0228010010999992014010100004+70933-008667FM-12+000999999V0202901N006019999999N030000199-00081-00401101221ADDAA106000091AY101021AY201021GA1011+999991061GE19MSL   +99999+99999GF101991011990999999991991MA1999990101101MD1810081+9990MW1021OD139901301999REMSYN07601001 11680 12906 11008 21040 30110 40122 58008 60001 70200 81500 333 91113=
0089010010999992014010101004+70933-008667FM-12+000999999V0203601N004019999999N999999999-00041-00401101211ADDMA1999990101091MD1810071+9990REMSYN04801001 46/// /3604 11004 21040 30109 40121 58007=
0089010010999992014010102004+70933-008667FM-12+000999999V0203401N010019999999N999999999-00031-00291101181ADDMA1999990101061MD1810041+9990REMSYN04801001 46/// /3410 11003 21029 30106 40118 58004=
0089010010999992014010104004+70933-008667FM-12+000999999V0203501N010019999999N999999999-00031-00191101101ADDMA1999990100981MD1810101+9990REMSYN04801001 46/// /3510 11003 21019 30098 40110 58010=
0089010010999992014010105004+70933-008667FM-12+000999999V0203601N011019999999N999999999-00051-00241101071ADDMA1999990100951MD1810121+9990REMSYN04801001 46/// /3611 11005 21024 30095 40107 58012=
0293010010999992014010106004+70933-008667FM-12+000999999V0203601N011019999999N030000199-00031-00211101001ADDAA112000091AA224000091AJ199991999999999AY101021AY201021GA1021+999991061GE19MSL   +99999+99999GF102991021990999999991991IA1269KA1240N-00081MA1999990100881MD1810181+9990MW1021OD139901701999REMSYN09401001 11680 23611 11003 21021 30088 40100 58018 60002 70200 82500 333 21008 42999 70000 91117=
0089010010999992014010107004+70933-008667FM-12+000999999V0203501N010019999999N999999999-00031-00171100981ADDMA1999990100861MD1610121+9990REMSYN04801001 46/// /3510 11003 21017 30086 40098 56012=
0089010010999992014010108004+70933-008667FM-12+000999999V0203601N009019999999N999999999-00041-00201101011ADDMA1999990100891MD1610061+9990REMSYN04801001 46/// /3609 11004 21020 30089 40101 56006=
0203010010999992014010109004+70933-008667FM-12+000999999V0203301N007019999999N025000199+00001-00291100941ADDAY121021AY211021GA1991+999991021GA2011+999991061GE19MSL   +99999+99999GF106991990990999999991991MA1999990100821MD1810061+9990MW1031REMSYN06001001 41675 63307 10000 21029 30082 40094 58006 70321 81508=
0089010010999992014010110004+70933-008667FM-12+000999999V0203401N009019999999N999999999-00011-00271100921ADDMA1999990100801MD1810061+9990REMSYN04801001 46/// /3409 11001 21027 30080 40092 58006=
0089010010999992014010111004+70933-008667FM-12+000999999V0203401N010019999999N999999999-00011-00271100871ADDMA1999990100751MD1610151+9990REMSYN04801001 46/// /3410 11001 21027 30075 40087 56015=
0264010010999992014010112004+70933-008667FM-12+000999999V0203401N009019999999N025000199-00021-00251100831ADDAA106000091AY121021AY211021GA1991+999991021GA2011+999991061GE19MSL   +99999+99999GF106991990990999999991991MA1999990100711MD1810111+9990MW1021OD139901701999SA1-0021REMSYN08801001 11575 63409 11002 21025 30071 40083 58011 60001 70221 81508 222// 01002 333 91117=
0089010010999992014010113004+70933-008667FM-12+000999999V0200401N003019999999N999999999+00101-00401100761ADDMA1999990100641MD1510171+9990REMSYN04801001 46/// /0403 10010 21040 30064 40076 55017=
0089010010999992014010114004+70933-008667FM-12+000999999V0201201N006019999999N999999999+00121-00361100681ADDMA1999990100561MD1810171+9990REMSYN04801001 46/// /1206 10012 21036 30056 40068 58017=
0203010010999992014010115004+70933-008667FM-12+000999999V0203501N010019999999N025000199+00061-00361100651ADDAY121021AY221021GA1991+999991021GA2021+999991061GE19MSL   +99999+99999GF106991990990999999991991MA1999990100531MD1610181+9990MW1021REMSYN06001001 41575 63510 10006 21036 30053 40065 56018 70222 82506=
0089010010999992014010116004+70933-008667FM-12+000999999V0200201N004019999999N999999999+00111-00321100631ADDMA1999990100511MD1610131+9990REMSYN04801001 46/// /0204 10011 21032 30051 40063 56013=
0089010010999992014010117004+70933-008667FM-12+000999999V0200301N007019999999N999999999+00101-00331100631ADDMA1999990100511MD1510061+9990REMSYN04801001 46/// /0307 10010 21033 30051 40063 55006=
0247010010999992014010118004+70933-008667FM-12+000999999V0200401N007019999999N030000199+00061-00311100541ADDAA112000091AY131021AY211021GA1041+999991061GE19MSL   +99999+99999GF104991041990999999991991KA1120M+00171MA1999990100421MD1810121+9990MW1011OD139901901999REMSYN08201001 11780 40407 10006 21031 30042 40054 58012 60002 70131 84500 333 10017 91119=
0089010010999992014010119004+70933-008667FM-12+000999999V0200501N009019999999N999999999+00101-00291100401ADDMA1999990100281MD1810221+9990REMSYN04801001 46/// /0509 10010 21029 30028 40040 58022=
0089010010999992014010120004+70933-008667FM-12+000999999V0200401N009019999999N999999999+00121-00331100381ADDMA1999990100261MD1810251+9990REMSYN04801001 46/// /0409 10012 21033 30026 40038 58025=
0089010010999992014010121004+70933-008667FM-12+000999999V0203601N011019999999N999999999+00081-00251100391ADDMA1999990100271MD1610151+9990REMSYN04801001 46/// /3611 10008 21025 30027 40039 56015=
0089010010999992014010122004+70933-008667FM-12+000999999V0200601N013019999999N999999999+00121-00241100331ADDMA1999990100211MD1810081+9990REMSYN04801001 46/// /0613 10012 21024 30021 40033 58008=
0089010010999992014010123004+70933-008667FM-12+000999999V0203601N010019999999N999999999+00101-00281100251ADDMA1999990100131MD1810111+9990REMSYN04801001 46/// /3610 10010 21028 30013 40025 58011=
0228010010999992014010200004+70933-008667FM-12+000999999V0200301N008019999999N011000199+00151-00241100221ADDAA106000021AY171021AY231021GA1081+999991061GE19MSL   +99999+99999GF108991081990999999991991MA1999990100101MD1510161+9990MW1701OD139902301999REMSYN07601001 11561 80308 10015 21024 30010 40022 55016 69901 77073 885// 333 91123=
0089010010999992014010201004+70933-008667FM-12+000999999V0200201N012019999999N999999999+00191-00281100091ADDMA1999990099971MD1810251+9990REMSYN04801001 46/// /0212 10019 21028 39997 40009 58025=
0089010010999992014010202004+70933-008667FM-12+000999999V0200501N012019999999N999999999+00181-00211100071ADDMA1999990099951MD1610201+9990REMSYN04801001 46/// /0512 10018 21021 39995 40007 56020=
0089010010999992014010203004+70933-008667FM-12+000999999V0200501N013019999999N999999999+00161-00141100011ADDMA1999990099891MD1610211+9990REMSYN04801001 46/// /0513 10016 21014 39989 40001 56021=
0089010010999992014010204004+70933-008667FM-12+000999999V0200201N009019999999N999999999+00161-00181099951ADDMA1999990099831MD1810141+9990REMSYN04801001 46/// /0209 10016 21018 39983 49995 58014=
0089010010999992014010205004+70933-008667FM-12+000999999V0200201N011019999999N999999999+00091-00111099871ADDMA1999990099751MD1810201+9990REMSYN04801001 46/// /0211 10009 21011 39975 49987 58020=
0309010010999992014010206004+70933-008667FM-12+000999999V0200401N013019999999N008000199+00191-00071099801ADDAA112000131AA224000131AJ199991999999999AY171021AY231021GA1991+999991051GA2071+999991061GE19MSL   +99999+99999GF108991990990999999991991IA1269KA1240N+00021MA1999990099681MD1710211+9990MW1711OD139902301999REMSYN09401001 11458 80413 10019 21007 39968 49980 57021 69912 77173 8752/ 333 20002 42999 70001 91123=
0089010010999992014010207004+70933-008667FM-12+000999999V0200301N009019999999N999999999+00231-00071099791ADDMA1999990099671MD1610171+9990REMSYN04801001 46/// /0309 10023 21007 39967 49979 56017=
0089010010999992014010208004+70933-008667FM-12+000999999V0200501N013019999999N999999999+00191-00081099781ADDMA1999990099661MD1510091+9990REMSYN04801001 46/// /0513 10019 21008 39966 49978 55009=
0187010010999992014010209004+70933-008667FM-12+000999999V0200601N012019999999N007000199+00211-00061099821ADDAY161021AY221021GA1081+999991071GE19MSL   +99999+99999GF108991081990999999991991MA1999990099701MD1310021+9990MW1611REMSYN06001001 41457 80612 10021 21006 39970 49982 53002 76162 886//=
0089010010999992014010210004+70933-008667FM-12+000999999V0200701N013019999999N999999999+00221-00041099821ADDMA1999990099701MD1210041+9990REMSYN04801001 46/// /0713 10022 21004 39970 49982 52004=
0089010010999992014010211004+70933-008667FM-12+000999999V0200701N012019999999N999999999+00211-00021099811ADDMA1999990099691MD1210031+9990REMSYN04801001 46/// /0712 10021 21002 39969 49981 52003=
0248010010999992014010212004+70933-008667FM-12+000999999V0200601N010019999999N011000199+00201-00051099781ADDAA106000131AY161021AY221021GA1081+999991071GE19MSL   +99999+99999GF108991081990999999991991MA1999990099661MD1810031+9990MW1611OD139901901999SA1-0011REMSYN08801001 11461 80610 10020 21005 39966 49978 58003 69911 76162 886// 222// 01001 333 91119=
0089010010999992014010213004+70933-008667FM-12+000999999V0200601N009019999999N999999999+00231-00071099771ADDMA1999990099651MD1710051+9990REMSYN04801001 46/// /0609 10023 21007 39965 49977 57005=
0089010010999992014010214004+70933-008667FM-12+000999999V0200501N006019999999N999999999+00201-00051099771ADDMA1999990099651MD1710041+9990REMSYN04801001 46/// /0506 10020 21005 39965 49977 57004=
0203010010999992014010215004+70933-008667FM-12+000999999V0200701N007019999999N020000199+00201-00051099741ADDAY161021AY221021GA1991+999991051GA2051+999991071GE19MSL   +99999+99999GF108991990990999999991991MA1999990099621MD1710041+9990MW1611REMSYN06001001 41570 80707 10020 21005 39962 49974 57004 76162 8572/=
0089010010999992014010216004+70933-008667FM-12+000999999V0200401N003019999999N999999999+00181-00041099721ADDMA1999990099601MD1810051+9990REMSYN04801001 46/// /0403 10018 21004 39960 49972 58005=
0089010010999992014010217004+70933-008667FM-12+000999999V0200501N004019999999N999999999+00191-00011099721ADDMA1999990099601MD1710051+9990REMSYN04801001 46/// /0504 10019 21001 39960 49972 57005=
0263010010999992014010218004+70933-008667FM-12+000999999V0200301N002019999999N020000199+00181+00011099701ADDAA112000231AY161021AY221021GA1991+999991041GA2041+999991071GE19MSL   +99999+99999GF106991990990999999991991KA1120M+00251MA1999990099581MD1710041+9990MW1601OD139901401999REMSYN08201001 11470 60302 10018 20001 39958 49970 57004 69922 76062 84610 333 10025 91114=
0089010010999992014010219004+70933-008667FM-12+000999999V0200701N006019999999N999999999+00191+00041099681ADDMA1999990099561MD1710041+9990REMSYN04801001 46/// /0706 10019 20004 39956 49968 57004=
0089010010999992014010220004+70933-008667FM-12+000999999V0200601N007019999999N999999999+00211+00061099681ADDMA1999990099561MD1710041+9990REMSYN04801001 46/// /0607 10021 20006 39956 49968 57004=
0089010010999992014010221004+70933-008667FM-12+000999999V0200101N008019999999N999999999+00231+00061099671ADDMA1999990099551MD1710031+9990REMSYN04801001 46/// /0108 10023 20006 39955 49967 57003=
0089010010999992014010222004+70933-008667FM-12+000999999V0200701N006019999999N999999999+00181+00061099641ADDMA1999990099521MD1810041+9990REMSYN04801001 46/// /0706 10018 20006 39952 49964 58004=
0089010010999992014010223004+70933-008667FM-12+000999999V0200901N006019999999N999999999+00181-00021099601ADDMA1999990099481MD1810081+9990REMSYN04801001 46/// /0906 10018 21002 39948 49960 58008=
0244010010999992014010300004+70933-008667FM-12+000999999V0200501N011019999999N010000199+00221-00031099541ADDAA106000131AY161021AY221021GA1991+999991041GA2031+999991071GE19MSL   +99999+99999GF105991990990999999991991MA1999990099421MD1810131+9990MW1601OD139901801999REMSYN07601001 11460 50511 10022 21003 39942 49954 58013 69911 76062 83610 333 91118=
0089010010999992014010301004+70933-008667FM-12+000999999V0200601N005019999999N999999999+00191-00071099511ADDMA1999990099391MD1810131+9990REMSYN04801001 46/// /0605 10019 21007 39939 49951 58013=
0089010010999992014010302004+70933-008667FM-12+000999999V0200701N014019999999N999999999+00261-00041099361ADDMA1999990099241MD1810231+9990REMSYN04801001 46/// /0714 10026 21004 39924 49936 58023=
0089010010999992014010303004+70933-008667FM-12+000999999V0200501N005019999999N999999999+00281-00021099361ADDMA1999990099241MD1810181+9990REMSYN04801001 46/// /0505 10028 21002 39924 49936 58018=
0089010010999992014010304004+70933-008667FM-12+000999999V0200401N007019999999N999999999+00261+00021099321ADDMA1999990099201MD1610191+9990REMSYN04801001 46/// /0407 10026 20002 39920 49932 56019=
0089010010999992014010305004+70933-008667FM-12+000999999V0200701N010019999999N999999999+00281+00101099301ADDMA1999990099181MD1810061+9990REMSYN04801001 46/// /0710 10028 20010 39918 49930 58006=
0293010010999992014010306004+70933-008667FM-12+000999999V0200701N009019999999N010000199+00261+00091099291ADDAA112000131AA224000331AJ199991999999999AY161021AY221021GA1071+999991071GE19MSL   +99999+99999GF107991071990999999991991IA1269KA1240N+00141MA1999990099171MD1610071+9990MW1031OD139902001999REMSYN09401001 11460 70709 10026 20009 39917 49929 56007 69912 70362 876// 333 20014 42999 70003 91120=
0089010010999992014010307004+70933-008667FM-12+000999999V0200701N008019999999N999999999+00251+00071099281ADDMA1999990099161MD1710051+9990REMSYN04801001 46/// /0708 10025 20007 39916 49928 57005=
0089010010999992014010308004+70933-008667FM-12+000999999V0200601N009019999999N999999999+00271+00101099281ADDMA1999990099161MD1710021+9990REMSYN04801001 46/// /0609 10027 20010 39916 49928 57002=
0187010010999992014010309004+70933-008667FM-12+000999999V0200501N008019999999N015000199+00251+00091099301ADDAY121021AY221021GA1071+999991071GE19MSL   +99999+99999GF107991071990999999991991MA1999990099181MD1310011+9990MW1021REMSYN06001001 41465 70508 10025 20009 39918 49930 53001 70222 876//=
0089010010999992014010310004+70933-008667FM-12+000999999V0200401N005019999999N999999999+00261+00071099311ADDMA1999990099191MD1310041+9990REMSYN04801001 46/// /0405 10026 20007 39919 49931 53004=
0089010010999992014010311004+70933-008667FM-12+000999999V0200801N002019999999N999999999+00261+00061099281ADDMA1999990099161MD1900001+9990REMSYN04801001 46/// /0802 10026 20006 39916 49928 50000=
0264010010999992014010312004+70933-008667FM-12+000999999V0203001N004019999999N015000199+00311+00011099171ADDAA106000091AY121021AY221021GA1991+999991041GA2041+999991061GE19MSL   +99999+99999GF108991990990999999991991MA1999990099061MD1810121+9990MW1021OD139901401999SA1+0001REMSYN08801001 11565 83004 10031 20001 39906 49917 58012 60001 70222 8451/ 222// 00000 333 91114=
0089010010999992014010313004+70933-008667FM-12+000999999V0200101N003019999999N999999999+00341+00001099151ADDMA1999990099041MD1610161+9990REMSYN04801001 46/// /0103 10034 21000 39904 49915 56016=
0089010010999992014010314004+70933-008667FM-12+000999999V0202401N001019999999N999999999+00261+00011099131ADDMA1999990099011MD1610151+9990REMSYN04801001 46/// /2401 10026 20001 39901 49913 56015=
0203010010999992014010315004+70933-008667FM-12+000999999V0200401N004019999999N012000199+00331+00051099101ADDAY121021AY221021GA1991+999991041GA2051+999991061GE19MSL   +99999+99999GF108991990990999999991991MA1999990098991MD1710071+9990MW1021REMSYN06001001 41462 80404 10033 20005 39899 49910 57007 70222 8551/=
0089010010999992014010316004+70933-008667FM-12+000999999V0203601N005019999999N999999999+00271+00041099121ADDMA1999990099001MD1710041+9990REMSYN04801001 46/// /3605 10027 20004 39900 49912 57004=
0089010010999992014010317004+70933-008667FM-12+000999999V0200301N003019999999N999999999+00241+00061099091ADDMA1999990098971MD1710041+9990REMSYN04801001 46/// /0303 10024 20006 39897 49909 57004=
0263010010999992014010318004+70933-008667FM-12+000999999V0200101N003019999999N015000199+00311+00131099061ADDAA112000091AY121021AY221021GA1991+999991041GA2021+999991071GE19MSL   +99999+99999GF108991990990999999991991KA1120M+00341MA1999990098951MD1710041+9990MW1021OD139900901999REMSYN08201001 11565 80103 10031 20013 39895 49906 57004 60002 70222 8261/ 333 10034 91109=
0089010010999992014010319004+70933-008667FM-12+000999999V0203301N006019999999N999999999+00271+00061099061ADDMA1999990098951MD1610051+9990REMSYN04801001 46/// /3306 10027 20006 39895 49906 56005=
0089010010999992014010320004+70933-008667FM-12+000999999V0203601N004019999999N999999999+00211+00061099061ADDMA1999990098941MD1810031+9990REMSYN04801001 46/// /3604 10021 20006 39894 49906 58003=
0089010010999992014010321004+70933-008667FM-12+000999999V0200901N002019999999N999999999+00261+00091099061ADDMA1999990098951MD1900001+9990REMSYN04801001 46/// /0902 10026 20009 39895 49906 50000=
0089010010999992014010322004+70933-008667FM-12+000999999V0203301N009019999999N999999999+00121-00021099041ADDMA1999990098921MD1810031+9990REMSYN04801001 46/// /3309 10012 21002 39892 49904 58003=
0089010010999992014010323004+70933-008667FM-12+000999999V0202401N004019999999N999999999+00191+00071099061ADDMA1999990098941MD1900011+9990REMSYN04801001 46/// /2404 10019 20007 39894 49906 50001=
0244010010999992014010400004+70933-008667FM-12+000999999V0203401N010019999999N015000199+00101-00021099031ADDAA106000091AY121021AY221021GA1991+999991041GA2021+999991071GE19MSL   +99999+99999GF108991990990999999991991MA1999990098911MD1810051+9990MW1021OD139901401999REMSYN07601001 11465 83410 10010 21002 39891 49903 58005 60001 70222 8261/ 333 91114=
0089010010999992014010401004+70933-008667FM-12+000999999V0203301N009019999999N999999999+00061-00021099051ADDMA1999990098931MD1900011+9990REMSYN04801001 46/// /3309 10006 21002 39893 49905 50001=
0089010010999992014010402004+70933-008667FM-12+000999999V0203101N010019999999N999999999+00051-00011099021ADDMA1999990098901MD1510041+9990REMSYN04801001 46/// /3110 10005 21001 39890 49902 55004=
0089010010999992014010403004+70933-008667FM-12+000999999V0203101N010019999999N999999999+00021-00031099001ADDMA1999990098881MD1810031+9990REMSYN04801001 46/// /3110 10002 21003 39888 49900 58003=
0089010010999992014010404004+70933-008667FM-12+000999999V0202001N002019999999N999999999+00051-00031099031ADDMA1999990098911MD1510021+9990REMSYN04801001 46/// /2002 10005 21003 39891 49903 55002=
0089010010999992014010405004+70933-008667FM-12+000999999V0202401N001019999999N999999999+00021-00071099011ADDMA1999990098891MD1510001+9990REMSYN04801001 46/// /2401 10002 21007 39889 49901 55000=
0293010010999992014010406004+70933-008667FM-12+000999999V0202201N002019999999N000300199-00021-00091099041ADDAA112000091AA224000091AJ199991999999999AY141021AY211021GA1021+999991071GE19MSL   +99999+99999GF102991021990999999991991IA1269KA1240N-00031MA1999990098921MD1310041+9990MW1461OD139901501999REMSYN09401001 11403 22202 11002 21009 39892 49904 53004 60002 74641 82600 333 21003 42999 70000 91115=
0089010010999992014010407004+70933-008667FM-12+000999999V0200201N001019999999N999999999-00041-00111099041ADDMA1999990098921MD1310011+9990REMSYN04801001 46/// /0201 11004 21011 39892 49904 53001=
0089010010999992014010408004+70933-008667FM-12+000999999V0202701N001019999999N999999999-00021-00081099051ADDMA1999990098931MD1210041+9990REMSYN04801001 46/// /2701 11002 21008 39893 49905 52004=
0187010010999992014010409004+70933-008667FM-12+000999999V0200401N002019999999N002000199-00021-00081099081ADDAY141021AY201021GA1011+999991061GE19MSL   +99999+99999GF101991011990999999991991MA1999990098961MD1310041+9990MW1101REMSYN06001001 41520 10402 11002 21008 39896 49908 53004 71040 81500=
0089010010999992014010410004+70933-008667FM-12+000999999V0203101N001019999999N999999999-00021-00091099101ADDMA1999990098981MD1210061+9990REMSYN04801001 46/// /3101 11002 21009 39898 49910 52006=
0089010010999992014010411004+70933-008667FM-12+000999999V0200101N003019999999N999999999+00291+00081099061ADDMA1999990098951MD1900021+9990REMSYN04801001 46/// /0103 10029 20008 39895 49906 50002=
0280010010999992014010412004+70933-008667FM-12+000999999V0202401N001019999999N020000199+00151-00051099081ADDAA106000091AY141021AY211021GA1021+999991061GA2991+999991021GA3991+999991031GE19MSL   +99999+99999GF108991021990999999991991MA1999990098961MD1900001+9990MW1031OD139900701999SA1-0011REMSYN08801001 11570 82401 10015 21005 39896 49908 50000 60001 70341 82577 222// 01001 333 91107=
0089010010999992014010413004+70933-008667FM-12+000999999V0202001N001019999999N999999999+00151-00041099081ADDMA1999990098961MD1510021+9990REMSYN04801001 46/// /2001 10015 21004 39896 49908 55002=
0089010010999992014010414004+70933-008667FM-12+000999999V0203201N002019999999N999999999+00291+00141099081ADDMA1999990098971MD1900021+9990REMSYN04801001 46/// /3202 10029 20014 39897 49908 50002=
0219010010999992014010415004+70933-008667FM-12+000999999V0200701N002019999999N020000199+00301+00091099101ADDAY121021AY221021GA1051+999991061GA2991+999991001GA3991+999991031GE19MSL   +99999+99999GF108991051990999999991991MA1999990098991MD1210031+9990MW1021REMSYN06001001 41570 80702 10030 20009 39899 49910 52003 70222 85572=
0089010010999992014010416004+70933-008667FM-12+000999999V0200901N002019999999N999999999+00281+00101099111ADDMA1999990099001MD1110041+9990REMSYN04801001 46/// /0902 10028 20010 39900 49911 51004=
0089010010999992014010417004+70933-008667FM-12+000999999V0200801N005019999999N999999999+00391+00071099111ADDMA1999990099001MD1900031+9990REMSYN04801001 46/// /0805 10039 20007 39900 49911 50003=
0247010010999992014010418004+70933-008667FM-12+000999999V0200401N005019999999N011000199+00361+00101099141ADDAA112000131AY161021AY251021GA1071+999991061GE19MSL   +99999+99999GF107991071990999999991991KA1120M+00461MA1999990099031MD1310041+9990MW1501OD139901301999REMSYN08201001 11561 70405 10036 20010 39903 49914 53004 69912 75065 875// 333 10046 91113=
0089010010999992014010419004+70933-008667FM-12+000999999V0200301N006019999999N999999999+00321+00071099101ADDMA1999990098991MD1810011+9990REMSYN04801001 46/// /0306 10032 20007 39899 49910 58001=
0089010010999992014010420004+70933-008667FM-12+000999999V0201501N001019999999N999999999+00311+00051099081ADDMA1999990098971MD1810031+9990REMSYN04801001 46/// /1501 10031 20005 39897 49908 58003=
0089010010999992014010421004+70933-008667FM-12+000999999V0203501N004019999999N999999999+00331+00101099151ADDMA1999990099041MD1510001+9990REMSYN04801001 46/// /3504 10033 20010 39904 49915 55000=
0089010010999992014010422004+70933-008667FM-12+000999999V0203501N005019999999N999999999+00221+00031099201ADDMA1999990099081MD1310091+9990REMSYN04801001 46/// /3505 10022 20003 39908 49920 53009=
0089010010999992014010423004+70933-008667FM-12+000999999V0203501N009019999999N999999999+00211+00021099181ADDMA1999990099061MD1110091+9990REMSYN04801001 46/// /3509 10021 20002 39906 49918 51009=
0228010010999992014010500004+70933-008667FM-12+000999999V0203501N009019999999N020000199+00151-00051099141ADDAA106000091AY121021AY221021GA1071+999991061GE19MSL   +99999+99999GF107991071990999999991991MA1999990099021MD1810021+9990MW1021OD139901901999REMSYN07601001 11570 73509 10015 21005 39902 49914 58002 60001 70222 875// 333 91119=
0089010010999992014010501004+70933-008667FM-12+000999999V0200201N005019999999N999999999+00211+00031099191ADDMA1999990099071MD1510011+9990REMSYN04801001 46/// /0205 10021 20003 39907 49919 55001=
0089010010999992014010502004+70933-008667FM-12+000999999V0203501N011019999999N999999999+00101-00041099161ADDMA1999990099041MD1810021+9990REMSYN04801001 46/// /3511 10010 21004 39904 49916 58002=
0089010010999992014010503004+70933-008667FM-12+000999999V0203501N010019999999N999999999+00101-00021099161ADDMA1999990099041MD1900031+9990REMSYN04801001 46/// /3510 10010 21002 39904 49916 50003=
0089010010999992014010504004+70933-008667FM-12+000999999V0203601N010019999999N999999999+00091-00021099171ADDMA1999990099051MD1510011+9990REMSYN04801001 46/// /3610 10009 21002 39905 49917 55001=
0089010010999992014010505004+70933-008667FM-12+000999999V0203601N012019999999N999999999+00111-00061099101ADDMA1999990098981MD1810051+9990REMSYN04801001 46/// /3612 10011 21006 39898 49910 58005=
0293010010999992014010506004+70933-008667FM-12+000999999V0200101N013019999999N013000199+00071-00041099101ADDAA112000021AA224000131AJ199991999999999AY171021AY221021GA1071+999991081GE19MSL   +99999+99999GF107991071990999999991991IA1269KA1240N+00061MA1999990098981MD1810071+9990MW1851OD139901901999REMSYN09401001 11563 70113 10007 21004 39898 49910 58007 69902 78572 878// 333 20006 42999 70001 91119=
0089010010999992014010507004+70933-008667FM-12+000999999V0203501N012019999999N999999999+00071-00041099081ADDMA1999990098961MD1810101+9990REMSYN04801001 46/// /3512 10007 21004 39896 49908 58010=
0089010010999992014010508004+70933-008667FM-12+000999999V0203501N014019999999N999999999+00061-00051099051ADDMA1999990098931MD1810061+9990REMSYN04801001 46/// /3514 10006 21005 39893 49905 58006=
0203010010999992014010509004+70933-008667FM-12+000999999V0203601N011019999999N004000199+00051-00041099071ADDAY171021AY231021GA1991+999991051GA2061+999991081GE19MSL   +99999+99999GF108991990990999999991991MA1999990098951MD1810031+9990MW1711REMSYN06001001 41440 83611 10005 21004 39895 49907 58003 77173 8682/=
0089010010999992014010510004+70933-008667FM-12+000999999V0203501N014019999999N999999999+00041-00051099021ADDMA1999990098901MD1810051+9990REMSYN04801001 46/// /3514 10004 21005 39890 49902 58005=
0089010010999992014010511004+70933-008667FM-12+000999999V0203601N013019999999N999999999+00041-00051098971ADDMA1999990098851MD1810071+9990REMSYN04801001 46/// /3613 10004 21005 39885 49897 58007=
0248010010999992014010512004+70933-008667FM-12+000999999V0203301N008019999999N011000199+00131+00011098981ADDAA106000021AY171021AY231021GA1071+999991081GE19MSL   +99999+99999GF107991071990999999991991MA1999990098861MD1510081+9990MW1261OD139902301999SA1+0001REMSYN08801001 11161 73308 10013 20001 39886 49898 55008 69901 72673 878// 222// 00000 333 91123=
0089010010999992014010513004+70933-008667FM-12+000999999V0200301N003019999999N999999999+00351+00141098951ADDMA1999990098841MD1610061+9990REMSYN04801001 46/// /0303 10035 20014 39884 49895 56006=
0089010010999992014010514004+70933-008667FM-12+000999999V0200601N003019999999N999999999+00341+00121098951ADDMA1999990098841MD1710011+9990REMSYN04801001 46/// /0603 10034 20012 39884 49895 57001=
0203010010999992014010515004+70933-008667FM-12+000999999V0200401N005019999999N009000199+00381+00081098901ADDAY121021AY221021GA1991+999991031GA2051+999991081GE19MSL   +99999+99999GF106991990990999999991991MA1999990098791MD1810081+9990MW1101REMSYN06001001 41559 60405 10038 20008 39879 49890 58008 71022 85850=
0089010010999992014010516004+70933-008667FM-12+000999999V0203101N008019999999N999999999+00281+00091098831ADDMA1999990098721MD1810121+9990REMSYN04801001 46/// /3108 10028 20009 39872 49883 58012=
0089010010999992014010517004+70933-008667FM-12+000999999V0203601N009019999999N999999999+00191+00071098781ADDMA1999990098671MD1710171+9990REMSYN04801001 46/// /3609 10019 20007 39867 49878 57017=
0247010010999992014010518004+70933-008667FM-12+000999999V0203501N007019999999N010000199+00281+00171098691ADDAA112000021AY161021AY221021GA1071+999991061GE19MSL   +99999+99999GF107991071990999999991991KA1120M+00441MA1999990098581MD1810201+9990MW1601OD139901501999REMSYN08201001 11560 73507 10028 20017 39858 49869 58020 69902 76062 875// 333 10044 91115=
0089010010999992014010519004+70933-008667FM-12+000999999V0200401N005019999999N999999999+00331+00151098691ADDMA1999990098581MD1610141+9990REMSYN04801001 46/// /0405 10033 20015 39858 49869 56014=
0089010010999992014010520004+70933-008667FM-12+000999999V0200601N004019999999N999999999+00351+00131098671ADDMA1999990098561MD1610111+9990REMSYN04801001 46/// /0604 10035 20013 39856 49867 56011=
0089010010999992014010521004+70933-008667FM-12+000999999V0200601N007019999999N999999999+00291+00141098681ADDMA1999990098571MD1510021+9990REMSYN04801001 46/// /0607 10029 20014 39857 49868 55002=
0089010010999992014010522004+70933-008667FM-12+000999999V0200601N008019999999N999999999+00271+00131098661ADDMA1999990098551MD1510031+9990REMSYN04801001 46/// /0608 10027 20013 39855 49866 55003=
0089010010999992014010523004+70933-008667FM-12+000999999V0200701N009019999999N999999999+00281+00181098641ADDMA1999990098531MD1710031+9990REMSYN04801001 46/// /0709 10028 20018 39853 49864 57003=
0244010010999992014010600004+70933-008667FM-12+000999999V0200801N009019999999N003000199+00241+00171098691ADDAA106002031AY161021AY221021GA1991+999991051GA2061+999991061GE19MSL   +99999+99999GF107991990990999999991991MA1999990098581MD1510011+9990MW1621OD139901301999REMSYN07601001 11430 70809 10024 20017 39858 49869 55001 60021 76262 8652/ 333 91113=
0089010010999992014010601004+70933-008667FM-12+000999999V0200901N006019999999N999999999+00181+00121098761ADDMA1999990098651MD1310101+9990REMSYN04801001 46/// /0906 10018 20012 39865 49876 53010=
0089010010999992014010602004+70933-008667FM-12+000999999V0201001N005019999999N999999999+00221+00171098871ADDMA1999990098761MD1310221+9990REMSYN04801001 46/// /1005 10022 20017 39876 49887 53022=
0089010010999992014010603004+70933-008667FM-12+000999999V0201101N007019999999N999999999+00211+00161098971ADDMA1999990098851MD1310281+9990REMSYN04801001 46/// /1107 10021 20016 39885 49897 53028=
0089010010999992014010604004+70933-008667FM-12+000999999V0201001N006019999999N999999999+00181+00131099031ADDMA1999990098911MD1110261+9990REMSYN04801001 46/// /1006 10018 20013 39891 49903 51026=
0089010010999992014010605004+70933-008667FM-12+000999999V0200801N006019999999N999999999+00221+00171099031ADDMA1999990098911MD1900151+9990REMSYN04801001 46/// /0806 10022 20017 39891 49903 50015=
0293010010999992014010606004+70933-008667FM-12+000999999V0200701N006019999999N005000199+00301+00241099051ADDAA112003032AA224002632AJ199991999999999AY161021AY221021GA1081+999991061GE19MSL   +99999+99999GF108991081990999999991991IA1269KA1240N+00181MA1999990098941MD1110091+9990MW1601OD139901201999REMSYN09401001 11450 80706 10030 20024 39894 49905 51009 60032 76062 885// 333 20018 42999 70026 91112=
0089010010999992014010607004+70933-008667FM-12+000999999V0200501N004019999999N999999999+00261+00181099091ADDMA1999990098971MD1310051+9990REMSYN04801001 46/// /0504 10026 20018 39897 49909 53005=
0089010010999992014010608004+70933-008667FM-12+000999999V0200601N008019999999N999999999+00311+00241099091ADDMA1999990098981MD1900071+9990REMSYN04801001 46/// /0608 10031 20024 39898 49909 50007=
0203010010999992014010609004+70933-008667FM-12+000999999V0200601N007019999999N004000199+00311+00231099091ADDAY161021AY221021GA1991+999991051GA2071+999991061GE19MSL   +99999+99999GF108991990990999999991991MA1999990098981MD1110041+9990MW1601REMSYN06001001 41440 80607 10031 20023 39898 49909 51004 76062 8752/=
0089010010999992014010610004+70933-008667FM-12+000999999V0200601N009019999999N999999999+00371+00201099051ADDMA1999990098941MD1810031+9990REMSYN04801001 46/// /0609 10037 20020 39894 49905 58003=
0089010010999992014010611004+70933-008667FM-12+000999999V0200601N011019999999N999999999+00431+00231098991ADDMA1999990098881MD1810111+9990REMSYN04801001 46/// /0611 10043 20023 39888 49899 58011=
0264010010999992014010612004+70933-008667FM-12+000999999V0200601N011019999999N012000199+00371+00181098991ADDAA106002031AY161021AY221021GA1991+999991051GA2071+999991061GE19MSL   +99999+99999GF108991990990999999991991MA1999990098881MD1610101+9990MW1211OD139901901999SA1+0051REMSYN08801001 11462 80611 10037 20018 39888 49899 56010 60021 72162 8752/ 222// 00005 333 91119=
0089010010999992014010613004+70933-008667FM-12+000999999V0200601N012019999999N999999999+00381+00201098961ADDMA1999990098851MD1610091+9990REMSYN04801001 46/// /0612 10038 20020 39885 49896 56009=
0089010010999992014010614004+70933-008667FM-12+000999999V0200501N010019999999N999999999+00361+00251098911ADDMA1999990098801MD1810071+9990REMSYN04801001 46/// /0510 10036 20025 39880 49891 58007=
0187010010999992014010615004+70933-008667FM-12+000999999V0200701N013019999999N003000199+00341+00261098891ADDAY161021AY221021GA1081+999991071GE19MSL   +99999+99999GF108991081990999999991991MA1999990098781MD1710101+9990MW1611REMSYN06001001 41430 80713 10034 20026 39878 49889 57010 76162 886//=
0089010010999992014010616004+70933-008667FM-12+000999999V0200801N011019999999N999999999+00311+00241098931ADDMA1999990098821MD1510021+9990REMSYN04801001 46/// /0811 10031 20024 39882 49893 55002=
0089010010999992014010617004+70933-008667FM-12+000999999V0200701N010019999999N999999999+00321+00241099011ADDMA1999990098901MD1310101+9990REMSYN04801001 46/// /0710 10032 20024 39890 49901 53010=
0247010010999992014010618004+70933-008667FM-12+000999999V0200701N008019999999N003000199+00271+00211099041ADDAA112003031AY161021AY221021GA1081+999991071GE19MSL   +99999+99999GF108991081990999999991991KA1120M+00431MA1999990098931MD1210151+9990MW1621OD139901801999REMSYN08201001 11230 80708 10027 20021 39893 49904 52015 60032 76262 886// 333 10043 91118=
0089010010999992014010619004+70933-008667FM-12+000999999V0200701N008019999999N999999999+00281+00221099051ADDMA1999990098941MD1110121+9990REMSYN04801001 46/// /0708 10028 20022 39894 49905 51012=
0089010010999992014010620004+70933-008667FM-12+000999999V0200601N007019999999N999999999+00271+00211099101ADDMA1999990098981MD1210081+9990REMSYN04801001 46/// /0607 10027 20021 39898 49910 52008=
0089010010999992014010621004+70933-008667FM-12+000999999V0200501N006019999999N999999999+00281+00221099131ADDMA1999990099011MD1210081+9990REMSYN04801001 46/// /0506 10028 20022 39901 49913 52008=
0089010010999992014010622004+70933-008667FM-12+000999999V0200701N009019999999N999999999+00341+00251099131ADDMA1999990099021MD1210081+9990REMSYN04801001 46/// /0709 10034 20025 39902 49913 52008=
0089010010999992014010623004+70933-008667FM-12+000999999V0200701N008019999999N999999999+00301+00181099161ADDMA1999990099051MD1210071+9990REMSYN04801001 46/// /0708 10030 20018 39905 49916 52007=
0244010010999992014010700004+70933-008667FM-12+000999999V0200501N008019999999N010000199+00361+00201099161ADDAA106000531AY161021AY221021GA1991+999991051GA2041+999991071GE19MSL   +99999+99999GF108991990990999999991991MA1999990099051MD1210031+9990MW1601OD139901501999REMSYN07601001 11460 80508 10036 20020 39905 49916 52003 69951 76062 8472/ 333 91115=
0089010010999992014010701004+70933-008667FM-12+000999999V0200501N010019999999N999999999+00341+00171099181ADDMA1999990099071MD1310051+9990REMSYN04801001 46/// /0510 10034 20017 39907 49918 53005=
0089010010999992014010702004+70933-008667FM-12+000999999V0200601N010019999999N999999999+00321+00181099191ADDMA1999990099081MD1310021+9990REMSYN04801001 46/// /0610 10032 20018 39908 49919 53002=
0089010010999992014010703004+70933-008667FM-12+000999999V0200601N010019999999N999999999+00331+00181099201ADDMA1999990099091MD1210051+9990REMSYN04801001 46/// /0610 10033 20018 39909 49920 52005=
0089010010999992014010704004+70933-008667FM-12+000999999V0200501N009019999999N999999999+00331+00171099201ADDMA1999990099091MD1210021+9990REMSYN04801001 46/// /0509 10033 20017 39909 49920 52002=
0089010010999992014010705004+70933-008667FM-12+000999999V0200501N010019999999N999999999+00311+00151099221ADDMA1999990099111MD1210031+9990REMSYN04801001 46/// /0510 10031 20015 39911 49922 52003=
0293010010999992014010706004+70933-008667FM-12+000999999V0200501N012019999999N015000199+00361+00081099231ADDAA112000731AA224003331AJ199991999999999AY161021AY221021GA1081+999991071GE19MSL   +99999+99999GF108991081990999999991991IA1259KA1240N+00241MA1999990099121MD1210021+9990MW1021OD139901901999REMSYN09401001 11465 80512 10036 20008 39912 49923 52002 69972 70262 886// 333 20024 41999 70033 91119=
0089010010999992014010707004+70933-008667FM-12+000999999V0200401N010019999999N999999999+00351+00031099251ADDMA1999990099141MD1210051+9990REMSYN04801001 46/// /0410 10035 20003 39914 49925 52005=
0089010010999992014010708004+70933-008667FM-12+000999999V0200401N013019999999N999999999+00381+00041099311ADDMA1999990099201MD1310091+9990REMSYN04801001 46/// /0413 10038 20004 39920 49931 53009=
0203010010999992014010709004+70933-008667FM-12+000999999V0200301N010019999999N015000199+00381+00001099331ADDAY121021AY221021GA1991+999991031GA2031+999991071GE19MSL   +99999+99999GF108991990990999999991991MA1999990099221MD1210111+9990MW1021REMSYN06001001 41465 80310 10038 20000 39922 49933 52011 70222 8367/=
0089010010999992014010710004+70933-008667FM-12+000999999V0200501N014019999999N999999999+00361+00061099391ADDMA1999990099281MD1210141+9990REMSYN04801001 46/// /0514 10036 20006 39928 49939 52014=
0089010010999992014010711004+70933-008667FM-12+000999999V0200501N014019999999N999999999+00351+00041099471ADDMA1999990099351MD1310151+9990REMSYN04801001 46/// /0514 10035 20004 39935 49947 53015=
0264010010999992014010712004+70933-008667FM-12+000999999V0200401N013019999999N015000199+00361+00021099511ADDAA106000021AY151021AY221021GA1991+999991051GA2061+999991061GE19MSL   +99999+99999GF108991990990999999991991MA1999990099391MD1210161+9990MW1501OD139902401999SA1+0061REMSYN08801001 11565 80413 10036 20002 39939 49951 52016 69901 75052 8652/ 222// 00006 333 91124=
0089010010999992014010713004+70933-008667FM-12+000999999V0200501N015019999999N999999999+00331+00051099561ADDMA1999990099441MD1210171+9990REMSYN04801001 46/// /0515 10033 20005 39944 49956 52017=
0089010010999992014010714004+70933-008667FM-12+000999999V0200501N013019999999N999999999+00321+00031099631ADDMA1999990099511MD1310161+9990REMSYN04801001 46/// /0513 10032 20003 39951 49963 53016=
0203010010999992014010715004+70933-008667FM-12+000999999V0200501N014019999999N020000199+00321+00031099641ADDAY151021AY221021GA1991+999991041GA2061+999991061GE19MSL   +99999+99999GF108991990990999999991991MA1999990099521MD1110131+9990MW1021REMSYN06001001 41570 80514 10032 20003 39952 49964 51013 70252 8651/=
0089010010999992014010716004+70933-008667FM-12+000999999V0200501N014019999999N999999999+00321-00021099681ADDMA1999990099561MD1110121+9990REMSYN04801001 46/// /0514 10032 21002 39956 49968 51012=
0089010010999992014010717004+70933-008667FM-12+000999999V0200501N015019999999N999999999+00281+00011099711ADDMA1999990099591MD1310081+9990REMSYN04801001 46/// /0515 10028 20001 39959 49971 53008=
0263010010999992014010718004+70933-008667FM-12+000999999V0200501N015019999999N008000199+00241+00001099751ADDAA112000131AY161021AY251021GA1991+999991051GA2061+999991061GE19MSL   +99999+99999GF108991990990999999991991KA1120M+00391MA1999990099631MD1310111+9990MW1611OD139902201999REMSYN08201001 11558 80515 10024 21000 39963 49975 53011 69912 76165 8652/ 333 10039 91122=
0089010010999992014010719004+70933-008667FM-12+000999999V0200501N011019999999N999999999+00261-00071099881ADDMA1999990099761MD1310201+9990REMSYN04801001 46/// /0511 10026 21007 39976 49988 53020=
0089010010999992014010720004+70933-008667FM-12+000999999V0200501N012019999999N999999999+00331-00021099981ADDMA1999990099861MD1310271+9990REMSYN04801001 46/// /0512 10033 21002 39986 49998 53027=
0089010010999992014010721004+70933-008667FM-12+000999999V0200401N015019999999N999999999+00281-00041100031ADDMA1999990099911MD1110281+9990REMSYN04801001 46/// /0415 10028 21004 39991 40003 51028=
0089010010999992014010722004+70933-008667FM-12+000999999V0200401N013019999999N999999999+00261-00021100111ADDMA1999990099991MD1110231+9990REMSYN04801001 46/// /0413 10026 21002 39999 40011 51023=
0089010010999992014010723004+70933-008667FM-12+000999999V0200401N013019999999N999999999+00261-00021100211ADDMA1999990100091MD1310231+9990REMSYN04801001 46/// /0413 10026 21002 30009 40021 53023=
0244010010999992014010800004+70933-008667FM-12+000999999V0200201N009019999999N009000199+00191-00061100311ADDAA106000021AY161021AY251021GA1991+999991051GA2061+999991061GE19MSL   +99999+99999GF107991990990999999991991MA1999990100191MD1310281+9990MW1601OD139902201999REMSYN07601001 11459 70209 10019 21006 30019 40031 53028 69901 76065 8652/ 333 91122=
0089010010999992014010801004+70933-008667FM-12+000999999V0200201N012019999999N999999999+00201-00021100381ADDMA1999990100261MD1210281+9990REMSYN04801001 46/// /0212 10020 21002 30026 40038 52028=
0089010010999992014010802004+70933-008667FM-12+000999999V0200301N011019999999N999999999+00211-00051100471ADDMA1999990100351MD1310261+9990REMSYN04801001 46/// /0311 10021 21005 30035 40047 53026=
0089010010999992014010803004+70933-008667FM-12+000999999V0200201N010019999999N999999999+00241+00001100551ADDMA1999990100431MD1310241+9990REMSYN04801001 46/// /0210 10024 20000 30043 40055 53024=
0089010010999992014010804004+70933-008667FM-12+000999999V0200201N010019999999N999999999+00201-00071100611ADDMA1999990100491MD1210231+9990REMSYN04801001 46/// /0210 10020 21007 30049 40061 52023=
0089010010999992014010805004+70933-008667FM-12+000999999V0200201N010019999999N999999999+00261-00021100691ADDMA1999990100571MD1310221+9990REMSYN04801001 46/// /0210 10026 21002 30057 40069 53022=
0293010010999992014010806004+70933-008667FM-12+000999999V0200401N011019999999N009000199+00251-00061100781ADDAA112000021AA224000131AJ199991999999999AY121021AY221021GA1071+999991061GE19MSL   +99999+99999GF107991071990999999991991IA1259KA1240N+00151MA1999990100661MD1310231+9990MW1101OD139902401999REMSYN09401001 11559 70411 10025 21006 30066 40078 53023 69902 71022 875// 333 20015 41999 70001 91124=
0089010010999992014010807004+70933-008667FM-12+000999999V0200701N013019999999N999999999+00241-00111100861ADDMA1999990100741MD1310251+9990REMSYN04801001 46/// /0713 10024 21011 30074 40086 53025=
0089010010999992014010808004+70933-008667FM-12+000999999V0200101N007019999999N999999999+00221-00171101001ADDMA1999990100881MD1310321+9990REMSYN04801001 46/// /0107 10022 21017 30088 40100 53032=
0187010010999992014010809004+70933-008667FM-12+000999999V0200701N015019999999N012000199+00231-00191100951ADDAY101021AY201021GA1031+999991061GE19MSL   +99999+99999GF103991031990999999991991MA1999990100831MD1900171+9990MW1011REMSYN06001001 41562 30715 10023 21019 30083 40095 50017 70100 83500=
0089010010999992014010810004+70933-008667FM-12+000999999V0203601N010019999999N999999999+00171-00211101061ADDMA1999990100941MD1110201+9990REMSYN04801001 46/// /3610 10017 21021 30094 40106 51020=
0089010010999992014010811004+70933-008667FM-12+000999999V0203201N006019999999N999999999+00121-00171101191ADDMA1999990101071MD1310191+9990REMSYN04801001 46/// /3206 10012 21017 30107 40119 53019=
0248010010999992014010812004+70933-008667FM-12+000999999V0203501N008019999999N030000199+00091-00191101271ADDAA106000021AY171021AY201021GA1041+999991061GE19MSL   +99999+99999GF104991041990999999991991MA1999990101151MD1310321+9990MW1221OD139902201999SA1+0041REMSYN08801001 11580 43508 10009 21019 30115 40127 53032 69901 72270 84500 222// 00004 333 91122=
0089010010999992014010813004+70933-008667FM-12+000999999V0200901N005019999999N999999999+00131-00241101201ADDMA1999990101081MD1900141+9990REMSYN04801001 46/// /0905 10013 21024 30108 40120 50014=
0089010010999992014010814004+70933-008667FM-12+000999999V0200801N009019999999N999999999+00151-00171101361ADDMA1999990101241MD1310171+9990REMSYN04801001 46/// /0809 10015 21017 30124 40136 53017=
0187010010999992014010815004+70933-008667FM-12+000999999V0200701N009019999999N015000199+00141-00161101391ADDAY111021AY211021GA1041+999991061GE19MSL   +99999+99999GF104991041990999999991991MA1999990101271MD1310121+9990MW1021REMSYN06001001 41565 40709 10014 21016 30127 40139 53012 70211 84500=
0089010010999992014010816004+70933-008667FM-12+000999999V0200401N006019999999N999999999+00121-00231101441ADDMA1999990101321MD1110241+9990REMSYN04801001 46/// /0406 10012 21023 30132 40144 51024=
0089010010999992014010817004+70933-008667FM-12+000999999V0200801N008019999999N999999999+00141-00271101421ADDMA1999990101301MD1900061+9990REMSYN04801001 46/// /0808 10014 21027 30130 40142 50006=
0247010010999992014010818004+70933-008667FM-12+000999999V0201001N008019999999N020000199+00121-00261101471ADDAA112000021AY111021AY211021GA1041+999991061GE19MSL   +99999+99999GF104991041990999999991991KA1120M+00281MA1999990101351MD1110081+9990MW1021OD139901501999REMSYN08201001 11570 41008 10012 21026 30135 40147 51008 69902 70211 84500 333 10028 91115=
0089010010999992014010819004+70933-008667FM-12+000999999V0200601N005019999999N999999999+00101-00241101561ADDMA1999990101441MD1310131+9990REMSYN04801001 46/// /0605 10010 21024 30144 40156 53013=
0089010010999992014010820004+70933-008667FM-12+000999999V0200301N005019999999N999999999+00071-00321101621ADDMA1999990101501MD1310201+9990REMSYN04801001 46/// /0305 10007 21032 30150 40162 53020=
0089010010999992014010821004+70933-008667FM-12+000999999V0200901N009019999999N999999999+00081-00311101621ADDMA1999990101501MD1110151+9990REMSYN04801001 46/// /0909 10008 21031 30150 40162 51015=
0089010010999992014010822004+70933-008667FM-12+000999999V0203501N002019999999N999999999-00011-00321101611ADDMA1999990101491MD1900041+9990REMSYN04801001 46/// /3502 11001 21032 30149 40161 50004=
0089010010999992014010823004+70933-008667FM-12+000999999V0200801N007019999999N999999999+00071-00301101581ADDMA1999990101461MD1810041+9990REMSYN04801001 46/// /0807 10007 21030 30146 40158 58004=
0228010010999992014010900004+70933-008667FM-12+000999999V0200901N007019999999N025000199+00061-00271101581ADDAA106000091AY101021AY201021GA1011+999991061GE19MSL   +99999+99999GF101991011990999999991991MA1999990101461MD1810051+9990MW1011OD139901401999REMSYN07601001 11575 10907 10006 21027 30146 40158 58005 60001 70100 81500 333 91114=
0089010010999992014010901004+70933-008667FM-12+000999999V0200801N006019999999N999999999+00071-00311101631ADDMA1999990101511MD1310021+9990REMSYN04801001 46/// /0806 10007 21031 30151 40163 53002=
0089010010999992014010902004+70933-008667FM-12+000999999V0200701N005019999999N999999999+00051-00291101651ADDMA1999990101531MD1310071+9990REMSYN04801001 46/// /0705 10005 21029 30153 40165 53007=
0089010010999992014010903004+70933-008667FM-12+000999999V0200801N003019999999N999999999+00041-00291101621ADDMA1999990101501MD1900051+9990REMSYN04801001 46/// /0803 10004 21029 30150 40162 50005=
0089010010999992014010904004+70933-008667FM-12+000999999V0200301N002019999999N999999999+00011-00421101661ADDMA1999990101541MD1310041+9990REMSYN04801001 46/// /0302 10001 21042 30154 40166 53004=
0089010010999992014010905004+70933-008667FM-12+000999999V0200301N002019999999N999999999+00011-00431101671ADDMA1999990101551MD1310011+9990REMSYN04801001 46/// /0302 10001 21043 30155 40167 53001=
0293010010999992014010906004+70933-008667FM-12+000999999V0209999C999999999999N020000199+00021-00421101691ADDAA112000091AA224000021AJ199991999999999AY101021AY201021GA1031+999991061GE19MSL   +99999+99999GF103991031990999999991991IA1259KA1240N-00031MA1999990101571MD1310061+9990MW1031OD139900901999REMSYN09401001 11670 30000 10002 21042 30157 40169 53006 60002 70300 83500 333 21003 41999 79999 91109=
0089010010999992014010907004+70933-008667FM-12+000999999V0200701N005019999999N999999999+00111-00421101661ADDMA1999990101541MD1900011+9990REMSYN04801001 46/// /0705 10011 21042 30154 40166 50001=
0089010010999992014010908004+70933-008667FM-12+000999999V0200601N003019999999N999999999+00041-00441101681ADDMA1999990101561MD1210011+9990REMSYN04801001 46/// /0603 10004 21044 30156 40168 52001=
0187010010999992014010909004+70933-008667FM-12+000999999V0200701N006019999999N020000199+00091-00391101701ADDAY101021AY201021GA1031+999991061GE19MSL   +99999+99999GF103991031990999999991991MA1999990101581MD1310011+9990MW1021REMSYN06001001 41570 30706 10009 21039 30158 40170 53001 70200 83500=
0089010010999992014010910004+70933-008667FM-12+000999999V0200601N002019999999N999999999+00061-00391101681ADDMA1999990101561MD1900021+9990REMSYN04801001 46/// /0602 10006 21039 30156 40168 50002=
0089010010999992014010911004+70933-008667FM-12+000999999V0201001N004019999999N999999999+00071-00401101661ADDMA1999990101541MD1810021+9990REMSYN04801001 46/// /1004 10007 21040 30154 40166 58002=
0244010010999992014010912004+70933-008667FM-12+000999999V0200801N003019999999N020000199+00051-00381101631ADDAA106000091AY101021AY201021GA1991+999991001GA2021+999991061GE19MSL   +99999+99999GF103991990990999999991991MA1999990101511MD1710071+9990MW1021OD139900801999REMSYN07601001 11670 30803 10005 21038 30151 40163 57007 60001 70200 82501 333 91108=
0089010010999992014010913004+70933-008667FM-12+000999999V0200901N003019999999N999999999+00051-00371101651ADDMA1999990101531MD1510021+9990REMSYN04801001 46/// /0903 10005 21037 30153 40165 55002=
0089010010999992014010914004+70933-008667FM-12+000999999V0200801N005019999999N999999999+00101-00331101691ADDMA1999990101571MD1310041+9990REMSYN04801001 46/// /0805 10010 21033 30157 40169 53004=
0203010010999992014010915004+70933-008667FM-12+000999999V0200901N005019999999N025000199+00111-00261101681ADDAY111021AY201021GA1991+999991001GA2041+999991061GE19MSL   +99999+99999GF105991990990999999991991MA1999990101561MD1900041+9990MW1031REMSYN06001001 41575 50905 10011 21026 30156 40168 50004 70310 84501=
0089010010999992014010916004+70933-008667FM-12+000999999V0201101N006019999999N999999999+00041-00191101671ADDMA1999990101551MD1900021+9990REMSYN04801001 46/// /1106 10004 21019 30155 40167 50002=
0089010010999992014010917004+70933-008667FM-12+000999999V0200701N003019999999N999999999+00051-00111101651ADDMA1999990101531MD1710041+9990REMSYN04801001 46/// /0703 10005 21011 30153 40165 57004=
0263010010999992014010918004+70933-008667FM-12+000999999V0201001N005019999999N025000199+00071-00131101671ADDAA112000091AY121021AY211021GA1991+999991031GA2041+999991061GE19MSL   +99999+99999GF105991990990999999991991KA1120M+00131MA1999990101551MD1510011+9990MW1011OD139900901999REMSYN08201001 11675 51005 10007 21013 30155 40167 55001 60002 70121 84530 333 10013 91109=
0089010010999992014010919004+70933-008667FM-12+000999999V0201101N004019999999N999999999+00081-00151101691ADDMA1999990101571MD1310021+9990REMSYN04801001 46/// /1104 10008 21015 30157 40169 53002=
0089010010999992014010920004+70933-008667FM-12+000999999V0201101N003019999999N999999999+00061-00161101701ADDMA1999990101581MD1210051+9990REMSYN04801001 46/// /1103 10006 21016 30158 40170 52005=
0089010010999992014010921004+70933-008667FM-12+000999999V0201601N003019999999N999999999+00041-00151101681ADDMA1999990101561MD1900011+9990REMSYN04801001 46/// /1603 10004 21015 30156 40168 50001=
0108010010999992014010922004+70933-008667FM-12+000999999V0200901N004019999999N999999999+00071-00161101691ADDMA1999990101571MD1410009+9990REMSYN04801001 46/// /0904 10007 21016 30157 40169 54001=EQDQ01.1    3APC3  
0089010010999992014010923004+70933-008667FM-12+000999999V0200901N003019999999N999999999+00071-00161101671ADDMA1999990101551MD1810031+9990REMSYN04801001 46/// /0903 10007 21016 30155 40167 58003=
0228010010999992014011000004+70933-008667FM-12+000999999V0201001N005019999999N020000199+00111-00181101651ADDAA106000091AY121021AY211021GA1071+999991061GE19MSL   +99999+99999GF107991071990999999991991MA1999990101531MD1810031+9990MW1031OD139900701999REMSYN07601001 11670 71005 10011 21018 30153 40165 58003 60001 70321 87500 333 91107=
0089010010999992014011001004+70933-008667FM-12+000999999V0201001N005019999999N999999999+00101-00191101641ADDMA1999990101521MD1710051+9990REMSYN04801001 46/// /1005 10010 21019 30152 40164 57005=
0089010010999992014011002004+70933-008667FM-12+000999999V0201101N004019999999N999999999+00101-00211101621ADDMA1999990101501MD1710051+9990REMSYN04801001 46/// /1104 10010 21021 30150 40162 57005=
0089010010999992014011003004+70933-008667FM-12+000999999V0201501N003019999999N999999999+00091-00221101591ADDMA1999990101471MD1710061+9990REMSYN04801001 46/// /1503 10009 21022 30147 40159 57006=
0089010010999992014011004004+70933-008667FM-12+000999999V0201501N003019999999N999999999+00051-00191101581ADDMA1999990101461MD1710061+9990REMSYN04801001 46/// /1503 10005 21019 30146 40158 57006=
0089010010999992014011005004+70933-008667FM-12+000999999V0200901N005019999999N999999999+00041-00141101561ADDMA1999990101441MD1710061+9990REMSYN04801001 46/// /0905 10004 21014 30144 40156 57006=
0293010010999992014011006004+70933-008667FM-12+000999999V0201101N004019999999N015000199+00091-00241101541ADDAA112000091AA224000091AJ199991999999999AY121021AY221021GA1071+999991061GE19MSL   +99999+99999GF107991071990999999991991IA1259KA1240N+00011MA1999990101421MD1710051+9990MW1021OD139900801999REMSYN09401001 11665 71104 10009 21024 30142 40154 57005 60002 70222 875// 333 20001 41999 70000 91108=
0089010010999992014011007004+70933-008667FM-12+000999999V0200901N007019999999N999999999+00071-00131101561ADDMA1999990101441MD1510011+9990REMSYN04801001 46/// /0907 10007 21013 30144 40156 55001=
0089010010999992014011008004+70933-008667FM-12+000999999V0200401N001019999999N999999999+00031-00141101551ADDMA1999990101431MD1710011+9990REMSYN04801001 46/// /0401 10003 21014 30143 40155 57001=
0203010010999992014011009004+70933-008667FM-12+000999999V0201301N002019999999N020000199+00051-00111101531ADDAY171021AY221021GA1991+999991031GA2041+999991061GE19MSL   +99999+99999GF105991990990999999991991MA1999990101411MD1900001+9990MW1011REMSYN06001001 41670 51302 10005 21011 30141 40153 50000 70172 84530=
0089010010999992014011010004+70933-008667FM-12+000999999V0201501N004019999999N999999999+00051-00121101551ADDMA1999990101431MD1710021+9990REMSYN04801001 46/// /1504 10005 21012 30143 40155 57002=
0089010010999992014011011004+70933-008667FM-12+000999999V0201001N007019999999N999999999+00041-00091101531ADDMA1999990101411MD1710011+9990REMSYN04801001 46/// /1007 10004 21009 30141 40153 57001=
0264010010999992014011012004+70933-008667FM-12+000999999V0201001N006019999999N020000199+00051-00051101481ADDAA106000131AY171021AY221021GA1991+999991031GA2061+999991061GE19MSL   +99999+99999GF108991990990999999991991MA1999990101361MD1810051+9990MW1021OD139900801999SA1+0021REMSYN08801001 11570 81006 10005 21005 30136 40148 58005 69911 70272 8657/ 222// 00002 333 91108=
0089010010999992014011013004+70933-008667FM-12+000999999V0200901N005019999999N999999999+00061-00081101471ADDMA1999990101351MD1710081+9990REMSYN04801001 46/// /0905 10006 21008 30135 40147 57008=
0089010010999992014011014004+70933-008667FM-12+000999999V0201101N004019999999N999999999+00091-00101101481ADDMA1999990101361MD1510051+9990REMSYN04801001 46/// /1104 10009 21010 30136 40148 55005=
0203010010999992014011015004+70933-008667FM-12+000999999V0201201N007019999999N015000199+00061-00081101491ADDAY121021AY221021GA1991+999991031GA2051+999991061GE19MSL   +99999+99999GF106991990990999999991991MA1999990101371MD1310011+9990MW1011REMSYN06001001 41465 61207 10006 21008 30137 40149 53001 70122 85530=
0089010010999992014011016004+70933-008667FM-12+000999999V0201101N004019999999N999999999+00061-00111101471ADDMA1999990101351MD1900011+9990REMSYN04801001 46/// /1104 10006 21011 30135 40147 50001=
0089010010999992014011017004+70933-008667FM-12+000999999V0201201N003019999999N999999999+00081-00061101451ADDMA1999990101331MD1810031+9990REMSYN04801001 46/// /1203 10008 21006 30133 40145 58003=
0247010010999992014011018004+70933-008667FM-12+000999999V0202201N003019999999N009000199-00031-00171101431ADDAA112000131AY171021AY201021GA1021+999991081GE19MSL   +99999+99999GF102991021990999999991991KA1120M+00111MA1999990101311MD1710061+9990MW1101OD139901001999REMSYN08201001 11459 22203 11003 21017 30131 40143 57006 69912 71070 82800 333 10011 91110=
0089010010999992014011019004+70933-008667FM-12+000999999V0201101N005019999999N999999999+00071-00061101421ADDMA1999990101301MD1710051+9990REMSYN04801001 46/// /1105 10007 21006 30130 40142 57005=
0089010010999992014011020004+70933-008667FM-12+000999999V0201401N005019999999N999999999+00051-00071101441ADDMA1999990101321MD1510011+9990REMSYN04801001 46/// /1405 10005 21007 30132 40144 55001=
0089010010999992014011021004+70933-008667FM-12+000999999V0201101N003019999999N999999999+00021-00101101431ADDMA1999990101311MD1410001+9990REMSYN04801001 46/// /1103 10002 21010 30131 40143 54000=
0089010010999992014011022004+70933-008667FM-12+000999999V0200901N005019999999N999999999+00041-00081101431ADDMA1999990101311MD1210011+9990REMSYN04801001 46/// /0905 10004 21008 30131 40143 52001=
0089010010999992014011023004+70933-008667FM-12+000999999V0200801N001019999999N999999999+00021-00111101421ADDMA1999990101301MD1710021+9990REMSYN04801001 46/// /0801 10002 21011 30130 40142 57002=
0263010010999992014011100004+70933-008667FM-12+000999999V0200801N005019999999N020000199+00041-00111101421ADDAA106000131AY171021AY201021GA1991+999991031GA2031+999991061GE19MSL   +99999+99999GF104991990990999999991991MA1999990101301MD1790019+9990MW1011OD139900701999REMSYN07601001 11470 40805 10004 21011 30130 40142 54001 69911 70170 83530 333 91107=EQDQ01.1    3APC3  
0089010010999992014011101004+70933-008667FM-12+000999999V0200401N001019999999N999999999+00031-00121101421ADDMA1999990101301MD1710011+9990REMSYN04801001 46/// /0401 10003 21012 30130 40142 57001=
0089010010999992014011102004+70933-008667FM-12+000999999V0200701N006019999999N999999999+00041-00111101411ADDMA1999990101291MD1710011+9990REMSYN04801001 46/// /0706 10004 21011 30129 40141 57001=
0089010010999992014011103004+70933-008667FM-12+000999999V0200101N001019999999N999999999+00001-00111101401ADDMA1999990101281MD1710021+9990REMSYN04801001 46/// /0101 10000 21011 30128 40140 57002=
0089010010999992014011104004+70933-008667FM-12+000999999V0200901N004019999999N999999999+00001-00111101381ADDMA1999990101261MD1710041+9990REMSYN04801001 46/// /0904 10000 21011 30126 40138 57004=
0089010010999992014011105004+70933-008667FM-12+000999999V0200701N006019999999N999999999+00011-00111101371ADDMA1999990101251MD1710031+9990REMSYN04801001 46/// /0706 10001 21011 30125 40137 57003=
0293010010999992014011106004+70933-008667FM-12+000999999V0201901N002019999999N012000199-00011-00111101381ADDAA112000431AA224000531AJ199991999999999AY181021AY211021GA1041+999991081GE19MSL   +99999+99999GF104991041990999999991991IA1239KA1240N-00051MA1999990101261MD1710021+9990MW1261OD139900901999REMSYN09401001 11462 41902 11001 21011 30126 40138 57002 69942 72681 84800 333 21005 47999 70005 91109=
0089010010999992014011107004+70933-008667FM-12+000999999V0200801N004019999999N999999999+00011-00131101371ADDMA1999990101251MD1710011+9990REMSYN04801001 46/// /0804 10001 21013 30125 40137 57001=
0089010010999992014011108004+70933-008667FM-12+000999999V0201001N004019999999N999999999+00061-00061101431ADDMA1999990101311MD1310051+9990REMSYN04801001 46/// /1004 10006 21006 30131 40143 53005=
0187010010999992014011109004+70933-008667FM-12+000999999V0200801N005019999999N008000199+00031-00121101441ADDAY181021AY201021GA1031+999991081GE19MSL   +99999+99999GF103991031990999999991991MA1999990101321MD1310061+9990MW1261REMSYN06001001 41458 30805 10003 21012 30132 40144 53006 72680 83800=
0089010010999992014011110004+70933-008667FM-12+000999999V0200201N002019999999N999999999-00061-00171101461ADDMA1999990101341MD1110101+9990REMSYN04801001 46/// /0202 11006 21017 30134 40146 51010=
0089010010999992014011111004+70933-008667FM-12+000999999V0201601N004019999999N999999999+00031-00101101491ADDMA1999990101371MD1310061+9990REMSYN04801001 46/// /1604 10003 21010 30137 40149 53006=
0248010010999992014011112004+70933-008667FM-12+000999999V0200401N001019999999N025000199-00011-00131101471ADDAA106000131AY181021AY211021GA1051+999991081GE19MSL   +99999+99999GF105991051990999999991991MA1999990101351MD1900031+9990MW1151OD139900901999SA1+0011REMSYN08801001 11475 50401 11001 21013 30135 40147 50003 69911 71581 85800 222// 00001 333 91109=
0089010010999992014011113004+70933-008667FM-12+000999999V0200901N005019999999N999999999+00041-00101101451ADDMA1999990101331MD1900011+9990REMSYN04801001 46/// /0905 10004 21010 30133 40145 50001=
0089010010999992014011114004+70933-008667FM-12+000999999V0201001N005019999999N999999999+00021-00081101501ADDMA1999990101381MD1510011+9990REMSYN04801001 46/// /1005 10002 21008 30138 40150 55001=
0203010010999992014011115004+70933-008667FM-12+000999999V0200901N002019999999N015000199-00021-00111101481ADDAY181021AY211021GA1991+999991031GA2051+999991081GE19MSL   +99999+99999GF106991990990999999991991MA1999990101361MD1900011+9990MW1151REMSYN06001001 41465 60902 11002 21011 30136 40148 50001 71581 85830=
0089010010999992014011116004+70933-008667FM-12+000999999V0201301N006019999999N999999999-00021-00081101541ADDMA1999990101421MD1310091+9990REMSYN04801001 46/// /1306 11002 21008 30142 40154 53009=
0089010010999992014011117004+70933-008667FM-12+000999999V0202901N001019999999N999999999-00041-00111101531ADDMA1999990101411MD1310031+9990REMSYN04801001 46/// /2901 11004 21011 30141 40153 53003=
0247010010999992014011118004+70933-008667FM-12+000999999V0200901N003019999999N011000199+00021-00091101551ADDAA112000731AY181021AY221021GA1071+999991081GE19MSL   +99999+99999GF107991071990999999991991KA1120M+00071MA1999990101431MD1110071+9990MW1021OD139900901999REMSYN08201001 11561 70903 10002 21009 30143 40155 51007 69972 70282 878// 333 10007 91109=
0089010010999992014011119004+70933-008667FM-12+000999999V0200901N005019999999N999999999+00081-00181101591ADDMA1999990101471MD1310051+9990REMSYN04801001 46/// /0905 10008 21018 30147 40159 53005=
0089010010999992014011120004+70933-008667FM-12+000999999V0201901N005019999999N999999999+00051-00161101651ADDMA1999990101531MD1310121+9990REMSYN04801001 46/// /1905 10005 21016 30153 40165 53012=
0089010010999992014011121004+70933-008667FM-12+000999999V0202201N002019999999N999999999-00031-00191101691ADDMA1999990101571MD1210141+9990REMSYN04801001 46/// /2202 11003 21019 30157 40169 52014=
0089010010999992014011122004+70933-008667FM-12+000999999V0200901N003019999999N999999999+00001-00121101721ADDMA1999990101601MD1210141+9990REMSYN04801001 46/// /0903 10000 21012 30160 40172 52014=
0089010010999992014011123004+70933-008667FM-12+000999999V0201501N001019999999N999999999-00041-00181101721ADDMA1999990101601MD1110071+9990REMSYN04801001 46/// /1501 11004 21018 30160 40172 51007=
0228010010999992014011200004+70933-008667FM-12+000999999V0201201N007019999999N015000199+00061-00151101761ADDAA106000091AY121021AY221021GA1051+999991081GE19MSL   +99999+99999GF105991051990999999991991MA1999990101641MD1310081+9990MW1011OD139901101999REMSYN07601001 11665 51207 10006 21015 30164 40176 53008 60001 70122 85800 333 91111=
0089010010999992014011201004+70933-008667FM-12+000999999V0200601N001019999999N999999999-00021-00181101791ADDMA1999990101671MD1310071+9990REMSYN04801001 46/// /0601 11002 21018 30167 40179 53007=
0089010010999992014011202004+70933-008667FM-12+000999999V0200601N003019999999N999999999-00051-00241101811ADDMA1999990101691MD1210091+9990REMSYN04801001 46/// /0603 11005 21024 30169 40181 52009=
0089010010999992014011203004+70933-008667FM-12+000999999V0201101N005019999999N999999999+00071-00151101821ADDMA1999990101701MD1310061+9990REMSYN04801001 46/// /1105 10007 21015 30170 40182 53006=
0089010010999992014011204004+70933-008667FM-12+000999999V0201501N003019999999N999999999+00071-00221101851ADDMA1999990101731MD1210061+9990REMSYN04801001 46/// /1503 10007 21022 30173 40185 52006=
0089010010999992014011205004+70933-008667FM-12+000999999V0201701N009019999999N999999999+00071-00251101871ADDMA1999990101751MD1210061+9990REMSYN04801001 46/// /1709 10007 21025 30175 40187 52006=
0293010010999992014011206004+70933-008667FM-12+000999999V0201501N006019999999N015000199+00071-00291101911ADDAA112000091AA224000731AJ199991999999999AY121021AY221021GA1051+999991061GE19MSL   +99999+99999GF105991051990999999991991IA1239KA1240N-00051MA1999990101791MD1310081+9990MW1021OD139901201999REMSYN09401001 11665 51506 10007 21029 30179 40191 53008 60002 70222 85500 333 21005 47999 70007 91112=
0089010010999992014011207004+70933-008667FM-12+000999999V0201601N003019999999N999999999-00111-00301101941ADDMA1999990101821MD1310101+9990REMSYN04801001 46/// /1603 11011 21030 30182 40194 53010=
0089010010999992014011208004+70933-008667FM-12+000999999V0202501N001019999999N999999999-00081-00251101971ADDMA1999990101851MD1210101+9990REMSYN04801001 46/// /2501 11008 21025 30185 40197 52010=
0187010010999992014011209004+70933-008667FM-12+000999999V0201601N005019999999N020000199+00041-00291101991ADDAY111021AY211021GA1031+999991061GE19MSL   +99999+99999GF103991031990999999991991MA1999990101871MD1210081+9990MW1011REMSYN06001001 41670 31605 10004 21029 30187 40199 52008 70111 83500=
0089010010999992014011210004+70933-008667FM-12+000999999V0202201N003019999999N999999999-00141-00381102031ADDMA1999990101911MD1210091+9990REMSYN04801001 46/// /2203 11014 21038 30191 40203 52009=
0089010010999992014011211004+70933-008667FM-12+000999999V0202401N002019999999N999999999-00091-00281102071ADDMA1999990101951MD1210101+9990REMSYN04801001 46/// /2402 11009 21028 30195 40207 52010=
0248010010999992014011212004+70933-008667FM-12+000999999V0202301N002019999999N020000199-00021-00251102091ADDAA106000091AY111021AY211021GA1051+999991061GE19MSL   +99999+99999GF105991051990999999991991MA1999990101971MD1210101+9990MW1031OD139900801999SA1+0011REMSYN08801001 11570 52302 11002 21025 30197 40209 52010 60001 70311 85500 222// 00001 333 91108=
0089010010999992014011213004+70933-008667FM-12+000999999V0202301N001019999999N999999999-00081-00321102091ADDMA1999990101971MD1210051+9990REMSYN04801001 46/// /2301 11008 21032 30197 40209 52005=
0089010010999992014011214004+70933-008667FM-12+000999999V0202301N001019999999N999999999-00061-00301102091ADDMA1999990101971MD1210031+9990REMSYN04801001 46/// /2301 11006 21030 30197 40209 52003=
0187010010999992014011215004+70933-008667FM-12+000999999V0201601N001019999999N015000199-00041-00301102101ADDAY181021AY221021GA1061+999991081GE19MSL   +99999+99999GF106991061990999999991991MA1999990101981MD1210021+9990MW1151REMSYN06001001 41465 61601 11004 21030 30198 40210 52002 71582 86800=
0089010010999992014011216004+70933-008667FM-12+000999999V0202501N001019999999N999999999-00051-00171102111ADDMA1999990101991MD1210021+9990REMSYN04801001 46/// /2501 11005 21017 30199 40211 52002=
0089010010999992014011217004+70933-008667FM-12+000999999V0201401N006019999999N999999999+00031-00161102121ADDMA1999990102001MD1210031+9990REMSYN04801001 46/// /1406 10003 21016 30200 40212 52003=
0263010010999992014011218004+70933-008667FM-12+000999999V0201101N005019999999N025000199-00011-00181102141ADDAA112000131AY181021AY221021GA1991+999991031GA2041+999991081GE19MSL   +99999+99999GF105991990990999999991991KA1120M+00101MA1999990102021MD1210041+9990MW1021OD139901501999REMSYN08201001 11675 51105 11001 21018 30202 40214 52004 69912 70282 84830 333 10010 91115=
0089010010999992014011219004+70933-008667FM-12+000999999V0201001N003019999999N999999999-00021-00141102191ADDMA1999990102071MD1310081+9990REMSYN04801001 46/// /1003 11002 21014 30207 40219 53008=
0089010010999992014011220004+70933-008667FM-12+000999999V0201301N005019999999N999999999+00001-00101102201ADDMA1999990102081MD1210071+9990REMSYN04801001 46/// /1305 10000 21010 30208 40220 52007=
0089010010999992014011221004+70933-008667FM-12+000999999V0201101N004019999999N999999999+00001-00101102201ADDMA1999990102081MD1110061+9990REMSYN04801001 46/// /1104 10000 21010 30208 40220 51006=
0089010010999992014011222004+70933-008667FM-12+000999999V0201001N006019999999N999999999+00041-00091102201ADDMA1999990102081MD1210021+9990REMSYN04801001 46/// /1006 10004 21009 30208 40220 52002=
0089010010999992014011223004+70933-008667FM-12+000999999V0201201N006019999999N999999999+00061-00081102221ADDMA1999990102101MD1210031+9990REMSYN04801001 46/// /1206 10006 21008 30210 40222 52003=
0130010010999992014011300004+70933-008667FM-12+000999999V0201101N005019999999N999999999+00071-00111102221ADDAA199999919MA1999990102101MD1210021+9990OD139901001999REMSYN06401001 16/// /1105 10007 21011 30210 40222 52002 6//// 333 91110=
0089010010999992014011301004+70933-008667FM-12+000999999V0201001N006019999999N999999999+00051-00121102231ADDMA1999990102111MD1210031+9990REMSYN04801001 46/// /1006 10005 21012 30211 40223 52003=
0089010010999992014011303004+70933-008667FM-12+000999999V0200201N002019999999N999999999-00151-00301102271ADDMA1999990102151MD1210051+9990REMSYN04801001 46/// /0202 11015 21030 30215 40227 52005=
0089010010999992014011304004+70933-008667FM-12+000999999V0200501N002019999999N999999999-00061-00181102271ADDMA1999990102151MD1210041+9990REMSYN04801001 46/// /0502 11006 21018 30215 40227 52004=
0089010010999992014011305004+70933-008667FM-12+000999999V0200301N003019999999N999999999-00041-00241102291ADDMA1999990102171MD1210031+9990REMSYN04801001 46/// /0303 11004 21024 30217 40229 52003=
0276010010999992014011306004+70933-008667FM-12+000999999V0203601N001019999999N020000199-00031-00151102301ADDAA199999919AJ199991999999999AY121021AY211021GA1041+999991091GE19MSL   +99999+99999GF104991041990999999991991IA1249KA1240N-00171MA1999990102181MD1210031+9990MW1261OD139900901999REMSYN08801001 11570 43601 11003 21015 30218 40230 52003 6//// 72621 84300 333 21017 44999 91109=
0089010010999992014011307004+70933-008667FM-12+000999999V0200401N002019999999N999999999-00061-00241102331ADDMA1999990102211MD1210061+9990REMSYN04801001 46/// /0402 11006 21024 30221 40233 52006=
0089010010999992014011308004+70933-008667FM-12+000999999V0200401N004019999999N999999999-00081-00321102351ADDMA1999990102231MD1210061+9990REMSYN04801001 46/// /0404 11008 21032 30223 40235 52006=
0187010010999992014011309004+70933-008667FM-12+000999999V0200701N007019999999N025000199+00051-00211102381ADDAY121021AY211021GA1021+999991081GE19MSL   +99999+99999GF102991021990999999991991MA1999990102261MD1210091+9990MW1291REMSYN06001001 41575 20707 10005 21021 30226 40238 52009 72921 82200=
0089010010999992014011310004+70933-008667FM-12+000999999V0200801N008019999999N999999999+00071-00281102391ADDMA1999990102271MD1210061+9990REMSYN04801001 46/// /0808 10007 21028 30227 40239 52006=
0089010010999992014011311004+70933-008667FM-12+000999999V0200901N008019999999N999999999+00011-00401102391ADDMA1999990102271MD1210041+9990REMSYN04801001 46/// /0908 10001 21040 30227 40239 52004=
0244010010999992014011312004+70933-008667FM-12+000999999V0200801N008019999999N030000199+00001-00361102411ADDAA199999919AY111021AY201021GA1991+999991001GA2011+999991081GE19MSL   +99999+99999GF101991990990999999991991MA1999990102291MD1210031+9990MW1011OD139901201999REMSYN07601001 11580 10808 10000 21036 30229 40241 52003 6//// 70110 81204 333 91112=
0089010010999992014011313004+70933-008667FM-12+000999999V0200901N011019999999N999999999-00011-00381102371ADDMA1999990102251MD1810021+9990REMSYN04801001 46/// /0911 11001 21038 30225 40237 58002=
0089010010999992014011314004+70933-008667FM-12+000999999V0200801N008019999999N999999999+00001-00401102411ADDMA1999990102291MD1310021+9990REMSYN04801001 46/// /0808 10000 21040 30229 40241 53002=
0219010010999992014011315004+70933-008667FM-12+000999999V0200801N009019999999N030000199-00011-00411102401ADDAY121021AY211021GA1021+999991081GA2991+999991021GA3991+999991031GE19MSL   +99999+99999GF107991021990999999991991MA1999990102281MD1510011+9990MW1031REMSYN06001001 41580 70809 11001 21041 30228 40240 55001 70321 82836=
0089010010999992014011316004+70933-008667FM-12+000999999V0200601N007019999999N999999999-00031-00331102391ADDMA1999990102271MD1900031+9990REMSYN04801001 46/// /0607 11003 21033 30227 40239 50003=
0089010010999992014011317004+70933-008667FM-12+000999999V0200601N009019999999N999999999+00001-00381102381ADDMA1999990102261MD1710031+9990REMSYN04801001 46/// /0609 10000 21038 30226 40238 57003=
0263010010999992014011318004+70933-008667FM-12+000999999V0200701N009019999999N020000199+00011-00451102371ADDAA199999919AY111021AY211021GA1991+999991031GA2011+999991081GE19MSL   +99999+99999GF104991990990999999991991KA1120M+00071MA1999990102251MD1710031+9990MW1011OD139901301999REMSYN08201001 11570 40709 10001 21045 30225 40237 57003 6//// 70111 81850 333 10007 91113=
0089010010999992014011319004+70933-008667FM-12+000999999V0200601N011019999999N999999999+00011-00351102351ADDMA1999990102231MD1710051+9990REMSYN04801001 46/// /0611 10001 21035 30223 40235 57005=
0089010010999992014011320004+70933-008667FM-12+000999999V0200601N010019999999N999999999+00011-00341102341ADDMA1999990102221MD1710041+9990REMSYN04801001 46/// /0610 10001 21034 30222 40234 57004=
0089010010999992014011321004+70933-008667FM-12+000999999V0200701N011019999999N999999999+00031-00371102341ADDMA1999990102221MD1510031+9990REMSYN04801001 46/// /0711 10003 21037 30222 40234 55003=
0089010010999992014011322004+70933-008667FM-12+000999999V0200701N010019999999N999999999+00021-00311102321ADDMA1999990102201MD1710021+9990REMSYN04801001 46/// /0710 10002 21031 30220 40232 57002=
0089010010999992014011323004+70933-008667FM-12+000999999V0200701N011019999999N999999999+00011-00331102291ADDMA1999990102171MD1810051+9990REMSYN04801001 46/// /0711 10001 21033 30217 40229 58005=
0228010010999992014011400004+70933-008667FM-12+000999999V0200601N010019999999N013000199+00001-00261102261ADDAA199999919AY111021AY211021GA1051+999991061GE19MSL   +99999+99999GF105991051990999999991991MA1999990102141MD1710071+9990MW1031OD139901401999REMSYN07601001 11463 50610 10000 21026 30214 40226 57007 6//// 70311 85500 333 91114=
0089010010999992014011401004+70933-008667FM-12+000999999V0200701N010019999999N999999999+00001-00311102241ADDMA1999990102121MD1710091+9990REMSYN04801001 46/// /0710 10000 21031 30212 40224 57009=
0089010010999992014011402004+70933-008667FM-12+000999999V0200701N010019999999N999999999+00011-00341102181ADDMA1999990102061MD1810111+9990REMSYN04801001 46/// /0710 10001 21034 30206 40218 58011=
0089010010999992014011403004+70933-008667FM-12+000999999V0200301N006019999999N999999999-00111-00431102151ADDMA1999990102031MD1710121+9990REMSYN04801001 46/// /0306 11011 21043 30203 40215 57012=
0089010010999992014011404004+70933-008667FM-12+000999999V0200401N005019999999N999999999-00101-00391102101ADDMA1999990101981MD1710141+9990REMSYN04801001 46/// /0405 11010 21039 30198 40210 57014=
0089010010999992014011405004+70933-008667FM-12+000999999V0200301N006019999999N999999999-00141-00481102041ADDMA1999990101921MD1710141+9990REMSYN04801001 46/// /0306 11014 21048 30192 40204 57014=
0309010010999992014011406004+70933-008667FM-12+000999999V0200501N008019999999N012000199-00071-00411101971ADDAA124000091AA299999919AJ199991999999999AY101021AY201021GA1991+999991031GA2011+999991061GE19MSL   +99999+99999GF102991990990999999991991IA1249KA1240N-00161MA1999990101851MD1810181+9990MW1011OD139901401999REMSYN09401001 11562 20508 11007 21041 30185 40197 58018 6//// 70100 81550 333 21016 44999 70000 91114=
0089010010999992014011407004+70933-008667FM-12+000999999V0200501N008019999999N999999999-00061-00431101931ADDMA1999990101811MD1710161+9990REMSYN04801001 46/// /0508 11006 21043 30181 40193 57016=
0089010010999992014011408004+70933-008667FM-12+000999999V0200601N008019999999N999999999-00061-00421101891ADDMA1999990101771MD1710151+9990REMSYN04801001 46/// /0608 11006 21042 30177 40189 57015=
0187010010999992014011409004+70933-008667FM-12+000999999V0200701N009019999999N011000199-00051-00411101831ADDAY101021AY201021GA1021+999991081GE19MSL   +99999+99999GF102991021990999999991991MA1999990101711MD1810141+9990MW1021REMSYN06001001 41561 20709 11005 21041 30171 40183 58014 70200 82800=
0089010010999992014011410004+70933-008667FM-12+000999999V0200701N010019999999N999999999-00041-00431101801ADDMA1999990101681MD1810131+9990REMSYN04801001 46/// /0710 11004 21043 30168 40180 58013=
0089010010999992014011411004+70933-008667FM-12+000999999V0200601N008019999999N999999999-00051-00501101751ADDMA1999990101631MD1810141+9990REMSYN04801001 46/// /0608 11005 21050 30163 40175 58014=
0244010010999992014011412004+70933-008667FM-12+000999999V0200701N008019999999N040000199-00061-00441101681ADDAA199999919AY101021AY201021GA1991+999991031GA2031+999991081GE19MSL   +99999+99999GF104991990990999999991991MA1999990101561MD1810151+9990MW1031OD139901301999REMSYN07601001 11582 40708 11006 21044 30156 40168 58015 6//// 70300 83850 333 91113=
0089010010999992014011413004+70933-008667FM-12+000999999V0200601N007019999999N999999999-00071-00451101601ADDMA1999990101481MD1810191+9990REMSYN04801001 46/// /0607 11007 21045 30148 40160 58019=
0089010010999992014011414004+70933-008667FM-12+000999999V0200401N007019999999N999999999-00201-00561101521ADDMA1999990101401MD1710221+9990REMSYN04801001 46/// /0407 11020 21056 30140 40152 57022=
0203010010999992014011415004+70933-008667FM-12+000999999V0203401N001019999999N040000199-00291-00741101471ADDAY111021AY201021GA1991+999991031GA2021+999991081GE19MSL   +99999+99999GF103991990990999999991991MA1999990101351MD1710211+9990MW1011REMSYN06001001 41582 33401 11029 21074 30135 40147 57021 70110 82840=
0089010010999992014011416004+70933-008667FM-12+000999999V0203601N004019999999N999999999-00191-00591101391ADDMA1999990101271MD1810221+9990REMSYN04801001 46/// /3604 11019 21059 30127 40139 58022=
0263010010999992014011418004+70933-008667FM-12+000999999V0203601N009019999999N025000199-00171-00511101251ADDAA112000091AY111021AY201021GA1991+999991031GA2021+999991061GE19MSL   +99999+99999GF103991990990999999991991KA1120M-00021MA1999990101131MD1710221+9990MW1031OD139901301999REMSYN08201001 11575 33609 11017 21051 30113 40125 57022 60002 70310 82540 333 11002 91113=
0089010010999992014011419004+70933-008667FM-12+000999999V0203501N011019999999N999999999-00161-00351101171ADDMA1999990101051MD1810221+9990REMSYN04801001 46/// /3511 11016 21035 30105 40117 58022=
0089010010999992014011420004+70933-008667FM-12+000999999V0203501N010019999999N999999999-00131-00261101121ADDMA1999990101001MD1710191+9990REMSYN04801001 46/// /3510 11013 21026 30100 40112 57019=
0089010010999992014011421004+70933-008667FM-12+000999999V0203501N010019999999N999999999-00111-00211101091ADDMA1999990100971MD1610171+9990REMSYN04801001 46/// /3510 11011 21021 30097 40109 56017=
0089010010999992014011422004+70933-008667FM-12+000999999V0203401N007019999999N999999999-00101-00201101041ADDMA1999990100921MD1710121+9990REMSYN04801001 46/// /3407 11010 21020 30092 40104 57012=
0089010010999992014011423004+70933-008667FM-12+000999999V0203401N002019999999N999999999+00011-00231101011ADDMA1999990100891MD1710111+9990REMSYN04801001 46/// /3402 10001 21023 30089 40101 57011=
0228010010999992014011500004+70933-008667FM-12+000999999V0200701N001019999999N005000199-00011-00171101001ADDAA199999919AY161021AY211021GA1081+999991061GE19MSL   +99999+99999GF108991081990999999991991MA1999990100881MD1610091+9990MW1601OD139901601999REMSYN07601001 11450 80701 11001 21017 30088 40100 56009 6//// 76061 885// 333 91116=
0089010010999992014011501004+70933-008667FM-12+000999999V0202201N003019999999N999999999-00031-00161100981ADDMA1999990100861MD1710061+9990REMSYN04801001 46/// /2203 11003 21016 30086 40098 57006=
0089010010999992014011502004+70933-008667FM-12+000999999V0202201N001019999999N999999999-00061-00191100981ADDMA1999990100861MD1710021+9990REMSYN04801001 46/// /2201 11006 21019 30086 40098 57002=
0089010010999992014011503004+70933-008667FM-12+000999999V0201601N004019999999N999999999+00031-00081100981ADDMA1999990100861MD1710021+9990REMSYN04801001 46/// /1604 10003 21008 30086 40098 57002=
0089010010999992014011504004+70933-008667FM-12+000999999V0201601N005019999999N999999999+00021-00121100961ADDMA1999990100841MD1810021+9990REMSYN04801001 46/// /1605 10002 21012 30084 40096 58002=
0089010010999992014011505004+70933-008667FM-12+000999999V0202101N001019999999N999999999-00061-00191100961ADDMA1999990100841MD1710021+9990REMSYN04801001 46/// /2101 11006 21019 30084 40096 57002=
0309010010999992014011506004+70933-008667FM-12+000999999V0203201N001019999999N020000199-00171-00331100981ADDAA112000021AA224000021AJ199991999999999AY161021AY221021GA1991+999991001GA2041+999991061GE19MSL   +99999+99999GF105991990990999999991991IA1249KA1240N-00221MA1999990100861MD1510011+9990MW1011OD139900801999REMSYN09401001 11570 53201 11017 21033 30086 40098 55001 69902 70162 84501 333 21022 44999 79999 91108=
0089010010999992014011507004+70933-008667FM-12+000999999V0203301N001019999999N999999999-00241-00421101001ADDMA1999990100881MD1210041+9990REMSYN04801001 46/// /3301 11024 21042 30088 40100 52004=
0089010010999992014011508004+70933-008667FM-12+000999999V0202901N002019999999N999999999-00251-00441101021ADDMA1999990100901MD1210061+9990REMSYN04801001 46/// /2902 11025 21044 30090 40102 52006=
0203010010999992014011509004+70933-008667FM-12+000999999V0203101N001019999999N015000199-00211-00451101081ADDAY111021AY211021GA1991+999991001GA2021+999991061GE19MSL   +99999+99999GF103991990990999999991991MA1999990100961MD1310101+9990MW1011REMSYN06001001 41565 33101 11021 21045 30096 40108 53010 70111 82501=
0089010010999992014011510004+70933-008667FM-12+000999999V0203201N002019999999N999999999-00221-00491101101ADDMA1999990100981MD1210101+9990REMSYN04801001 46/// /3202 11022 21049 30098 40110 52010=
0089010010999992014011511004+70933-008667FM-12+000999999V0203401N001019999999N999999999-00111-00351101091ADDMA1999990100971MD1110071+9990REMSYN04801001 46/// /3401 11011 21035 30097 40109 51007=
0260010010999992014011512004+70933-008667FM-12+000999999V0203301N002019999999N012000199-00171-00381101061ADDAA199999919AY111021AY211021GA1011+999991081GA2991+999991001GA3991+999991031GE19MSL   +99999+99999GF104991011990999999991991MA1999990100941MD1810021+9990MW1021OD139900301999REMSYN07601001 11562 43302 11017 21038 30094 40106 58002 6//// 70211 81831 333 91103=
0089010010999992014011513004+70933-008667FM-12+000999999V0203301N001019999999N999999999-00101-00281101041ADDMA1999990100921MD1810061+9990REMSYN04801001 46/// /3301 11010 21028 30092 40104 58006=
0089010010999992014011514004+70933-008667FM-12+000999999V0202501N001019999999N999999999-00071-00431101011ADDMA1999990100891MD1710081+9990REMSYN04801001 46/// /2501 11007 21043 30089 40101 57008=
0219010010999992014011515004+70933-008667FM-12+000999999V0200801N005019999999N015000199+00061-00171101011ADDAY121021AY211021GA1041+999991061GA2991+999991021GA3991+999991031GE19MSL   +99999+99999GF107991041990999999991991MA1999990100891MD1710051+9990MW1031REMSYN06001001 41565 70805 10006 21017 30089 40101 57005 70321 84536=
0089010010999992014011516004+70933-008667FM-12+000999999V0200701N001019999999N999999999+00041-00151101031ADDMA1999990100911MD1510011+9990REMSYN04801001 46/// /0701 10004 21015 30091 40103 55001=
0089010010999992014011517004+70933-008667FM-12+000999999V0203401N002019999999N999999999+00051-00101100991ADDMA1999990100871MD1810021+9990REMSYN04801001 46/// /3402 10005 21010 30087 40099 58002=
0255010010999992014011518004+70933-008667FM-12+000999999V0200901N004019999999N003500199+00111-00011100981ADDAA112000931AY171021GA1991+999991051GA2051+999991061GE19MSL   +99999+99999GF108991990990999999991991KA1120M+00111MA1999990100861MD1810031+9990MW1711OD139900701999REMSYN08201001 11335 80904 10011 21001 30086 40098 58003 69992 7717/ 8552/ 333 10011 91107=
0089010010999992014011519004+70933-008667FM-12+000999999V0200901N006019999999N999999999+00151+00061100961ADDMA1999990100841MD1710071+9990REMSYN04801001 46/// /0906 10015 20006 30084 40096 57007=
0089010010999992014011520004+70933-008667FM-12+000999999V0201701N006019999999N999999999+00191+00131100971ADDMA1999990100851MD1710021+9990REMSYN04801001 46/// /1706 10019 20013 30085 40097 57002=
0089010010999992014011521004+70933-008667FM-12+000999999V0202101N004019999999N999999999+00151+00091101001ADDMA1999990100881MD1310021+9990REMSYN04801001 46/// /2104 10015 20009 30088 40100 53002=
0089010010999992014011522004+70933-008667FM-12+000999999V0202101N005019999999N999999999+00191+00131101031ADDMA1999990100911MD1210071+9990REMSYN04801001 46/// /2105 10019 20013 30091 40103 52007=
0089010010999992014011523004+70933-008667FM-12+000999999V0202001N005019999999N999999999+00171+00111101041ADDMA1999990100921MD1210071+9990REMSYN04801001 46/// /2005 10017 20011 30092 40104 52007=
0228010010999992014011600004+70933-008667FM-12+000999999V0201601N008019999999N003500199+00211+00151101061ADDAA199999919AY171021AY261021GA1081+999991071GE19MSL   +99999+99999GF108991081990999999991991MA1999990100941MD1210061+9990MW1611OD139901001999REMSYN07601001 11335 81608 10021 20015 30094 40106 52006 6//// 76176 886// 333 91110=
0089010010999992014011601004+70933-008667FM-12+000999999V0202201N003019999999N999999999+00191+00071101071ADDMA1999990100951MD1210051+9990REMSYN04801001 46/// /2203 10019 20007 30095 40107 52005=
0089010010999992014011602004+70933-008667FM-12+000999999V0202001N002019999999N999999999+00181+00081101081ADDMA1999990100961MD1210041+9990REMSYN04801001 46/// /2002 10018 20008 30096 40108 52004=
0089010010999992014011603004+70933-008667FM-12+000999999V0201801N003019999999N999999999+00171+00081101081ADDMA1999990100961MD1210021+9990REMSYN04801001 46/// /1803 10017 20008 30096 40108 52002=
0089010010999992014011604004+70933-008667FM-12+000999999V0201601N006019999999N999999999+00191+00111101061ADDMA1999990100941MD1710011+9990REMSYN04801001 46/// /1606 10019 20011 30094 40106 57001=
0089010010999992014011605004+70933-008667FM-12+000999999V0201501N008019999999N999999999+00171+00091101061ADDMA1999990100941MD1710021+9990REMSYN04801001 46/// /1508 10017 20009 30094 40106 57002=
0293010010999992014011606004+70933-008667FM-12+000999999V0201801N007019999999N004000199+00151+00071101051ADDAA112001031AA224002231AJ199991999999999AY161021AY251021GA1081+999991071GE19MSL   +99999+99999GF108991081990999999991991IA1269KA1240N+00111MA1999990100931MD1710021+9990MW1511OD139901001999REMSYN09401001 11340 81807 10015 20007 30093 40105 57002 60012 75165 886// 333 20011 42999 70022 91110=
0089010010999992014011607004+70933-008667FM-12+000999999V0202101N003019999999N999999999+00151+00061101041ADDMA1999990100921MD1710021+9990REMSYN04801001 46/// /2103 10015 20006 30092 40104 57002=
0089010010999992014011608004+70933-008667FM-12+000999999V0201801N003019999999N999999999+00151+00021101041ADDMA1999990100921MD1710021+9990REMSYN04801001 46/// /1803 10015 20002 30092 40104 57002=
0203010010999992014011609004+70933-008667FM-12+000999999V0201501N005019999999N020000199+00151-00091101061ADDAY151021AY221021GA1991+999991041GA2041+999991061GE19MSL   +99999+99999GF108991990990999999991991MA1999990100941MD1510011+9990MW1021REMSYN06001001 41570 81505 10015 21009 30094 40106 55001 70252 8451/=
0108010010999992014011610004+70933-008667FM-12+000999999V0201301N004019999999N999999999+00151-00061101051ADDMA1999990100931MD1290019+9990REMSYN04801001 46/// /1304 10015 21006 30093 40105 54001=EQDQ01.1    3APC3  
0089010010999992014011611004+70933-008667FM-12+000999999V0201101N004019999999N999999999+00151-00041101021ADDMA1999990100901MD1810031+9990REMSYN04801001 46/// /1104 10015 21004 30090 40102 58003=
0244010010999992014011612004+70933-008667FM-12+000999999V0201201N008019999999N025000199+00131-00151100981ADDAA199999919AY151021AY221021GA1991+999991041GA2071+999991061GE19MSL   +99999+99999GF108991990990999999991991MA1999990100861MD1810071+9990MW1021OD139901101999REMSYN07601001 11675 81208 10013 21015 30086 40098 58007 6//// 70252 8751/ 333 91111=
0089010010999992014011613004+70933-008667FM-12+000999999V0201401N010019999999N999999999+00051-00121100981ADDMA1999990100861MD1710071+9990REMSYN04801001 46/// /1410 10005 21012 30086 40098 57007=
0089010010999992014011614004+70933-008667FM-12+000999999V0201301N004019999999N999999999+00101-00061100931ADDMA1999990100811MD1810091+9990REMSYN04801001 46/// /1304 10010 21006 30081 40093 58009=
0219010010999992014011615004+70933-008667FM-12+000999999V0201201N006019999999N025000199+00101-00181100871ADDAY121021AY221021GA1041+999991081GA2991+999991001GA3991+999991031GE19MSL   +99999+99999GF106991041990999999991991MA1999990100751MD1810111+9990MW1151REMSYN06001001 41575 61206 10010 21018 30075 40087 58011 71522 84831=
0089010010999992014011616004+70933-008667FM-12+000999999V0201101N002019999999N999999999+00031-00141100851ADDMA1999990100731MD1610131+9990REMSYN04801001 46/// /1102 10003 21014 30073 40085 56013=
0089010010999992014011617004+70933-008667FM-12+000999999V0201201N007019999999N999999999+00091-00181100811ADDMA1999990100691MD1610121+9990REMSYN04801001 46/// /1207 10009 21018 30069 40081 56012=
0263010010999992014011618004+70933-008667FM-12+000999999V0201101N006019999999N015000199+00091-00161100761ADDAA112000131AY181021AY211021GA1991+999991031GA2021+999991081GE19MSL   +99999+99999GF103991990990999999991991KA1120M+00171MA1999990100641MD1810111+9990MW1261OD139901301999REMSYN08201001 11565 31106 10009 21016 30064 40076 58011 69912 72681 82830 333 10017 91113=
0089010010999992014011619004+70933-008667FM-12+000999999V0201001N006019999999N999999999+00071-00141100741ADDMA1999990100621MD1710111+9990REMSYN04801001 46/// /1006 10007 21014 30062 40074 57011=
0089010010999992014011620004+70933-008667FM-12+000999999V0200901N007019999999N999999999+00061-00111100701ADDMA1999990100581MD1710101+9990REMSYN04801001 46/// /0907 10006 21011 30058 40070 57010=
0089010010999992014011621004+70933-008667FM-12+000999999V0200801N007019999999N999999999+00091-00091100681ADDMA1999990100561MD1710081+9990REMSYN04801001 46/// /0807 10009 21009 30056 40068 57008=
0089010010999992014011622004+70933-008667FM-12+000999999V0200901N005019999999N999999999+00061-00071100631ADDMA1999990100511MD1810111+9990REMSYN04801001 46/// /0905 10006 21007 30051 40063 58011=
0089010010999992014011623004+70933-008667FM-12+000999999V0200801N007019999999N999999999+00091-00061100571ADDMA1999990100451MD1810141+9990REMSYN04801001 46/// /0807 10009 21006 30045 40057 58014=
0206010010999992014011700004+70933-008667FM-12+000999999V0200801N00701001201CN000600199+00081-00061100541ADDAA199999919AY181021AY271021GE19MSL   +99999+99999GF109991990990999999991991MA1999990100421MD1710141+9990MW1861OD139901001999REMSYN07001001 11006 90807 10008 21006 30042 40054 57014 6//// 78687 333 91110=
0089010010999992014011701004+70933-008667FM-12+000999999V0200901N006019999999N999999999+00091-00011100461ADDMA1999990100341MD1810171+9990REMSYN04801001 46/// /0906 10009 21001 30034 40046 58017=
0089010010999992014011702004+70933-008667FM-12+000999999V0201001N006019999999N999999999+00091+00001100411ADDMA1999990100291MD1810151+9990REMSYN04801001 46/// /1006 10009 20000 30029 40041 58015=
0089010010999992014011703004+70933-008667FM-12+000999999V0201301N007019999999N999999999+00131+00061100371ADDMA1999990100251MD1610171+9990REMSYN04801001 46/// /1307 10013 20006 30025 40037 56017=
0089010010999992014011704004+70933-008667FM-12+000999999V0202201N002019999999N999999999+00101+00031100381ADDMA1999990100261MD1510071+9990REMSYN04801001 46/// /2202 10010 20003 30026 40038 55007=
0089010010999992014011705004+70933-008667FM-12+000999999V0202101N002019999999N999999999+00121+00051100381ADDMA1999990100261MD1510031+9990REMSYN04801001 46/// /2102 10012 20005 30026 40038 55003=
0293010010999992014011706004+70933-008667FM-12+000999999V0201701N004019999999N004000199+00171+00101100411ADDAA112002032AA224001632AJ199991999999999AY161021AY251021GA1081+999991071GE19MSL   +99999+99999GF108991081990999999991991IA1249KA1240N+00041MA1999990100291MD1210031+9990MW1401OD139901101999REMSYN09401001 11140 81704 10017 20010 30029 40041 52003 60022 74065 886// 333 20004 44999 70016 91111=
0089010010999992014011707004+70933-008667FM-12+000999999V0201601N007019999999N999999999+00191+00131100441ADDMA1999990100321MD1210061+9990REMSYN04801001 46/// /1607 10019 20013 30032 40044 52006=
0089010010999992014011708004+70933-008667FM-12+000999999V0201801N005019999999N999999999+00161+00091100491ADDMA1999990100371MD1310111+9990REMSYN04801001 46/// /1805 10016 20009 30037 40049 53011=
0203010010999992014011709004+70933-008667FM-12+000999999V0201701N007019999999N003000199+00151+00081100541ADDAY171021AY261021GA1991+999991051GA2061+999991071GE19MSL   +99999+99999GF108991990990999999991991MA1999990100421MD1310131+9990MW1691REMSYN06001001 41230 81707 10015 20008 30042 40054 53013 76976 8662/=
0089010010999992014011710004+70933-008667FM-12+000999999V0201601N008019999999N999999999+00181+00101100561ADDMA1999990100441MD1210131+9990REMSYN04801001 46/// /1608 10018 20010 30044 40056 52013=
0089010010999992014011711004+70933-008667FM-12+000999999V0201601N008019999999N999999999+00161+00081100561ADDMA1999990100441MD1110071+9990REMSYN04801001 46/// /1608 10016 20008 30044 40056 51007=
0228010010999992014011712004+70933-008667FM-12+000999999V0201401N006019999999N009000199+00181+00101100581ADDAA199999919AY171021AY261021GA1081+999991071GE19MSL   +99999+99999GF108991081990999999991991MA1999990100461MD1210041+9990MW1601OD139901201999REMSYN07601001 11359 81406 10018 20010 30046 40058 52004 6//// 76076 886// 333 91112=
0089010010999992014011713004+70933-008667FM-12+000999999V0201101N004019999999N999999999+00171+00081100611ADDMA1999990100491MD1210051+9990REMSYN04801001 46/// /1104 10017 20008 30049 40061 52005=
0089010010999992014011714004+70933-008667FM-12+000999999V0201201N003019999999N999999999+00171+00081100631ADDMA1999990100511MD1210071+9990REMSYN04801001 46/// /1203 10017 20008 30051 40063 52007=
0187010010999992014011715004+70933-008667FM-12+000999999V0201601N002019999999N006000199+00171+00071100661ADDAY121021AY221021GA1081+999991081GE19MSL   +99999+99999GF108991081990999999991991MA1999990100541MD1210081+9990MW1401REMSYN06001001 41456 81602 10017 20007 30054 40066 52008 74022 888//=
0089010010999992014011716004+70933-008667FM-12+000999999V0201401N005019999999N999999999+00181+00081100681ADDMA1999990100561MD1210071+9990REMSYN04801001 46/// /1405 10018 20008 30056 40068 52007=
0089010010999992014011717004+70933-008667FM-12+000999999V0201301N008019999999N999999999+00221+00051100681ADDMA1999990100561MD1210051+9990REMSYN04801001 46/// /1308 10022 20005 30056 40068 52005=
0247010010999992014011718004+70933-008667FM-12+000999999V0201201N004019999999N005000199+00191+00051100751ADDAA112000931AY161021AY221021GA1081+999991071GE19MSL   +99999+99999GF108991081990999999991991KA1120M+00221MA1999990100631MD1310091+9990MW1401OD139900901999REMSYN08201001 11450 81204 10019 20005 30063 40075 53009 69992 74062 886// 333 10022 91109=
0089010010999992014011719004+70933-008667FM-12+000999999V0201201N006019999999N999999999+00211+00041100781ADDMA1999990100661MD1310101+9990REMSYN04801001 46/// /1206 10021 20004 30066 40078 53010=
0089010010999992014011720004+70933-008667FM-12+000999999V0201201N006019999999N999999999+00211+00041100821ADDMA1999990100701MD1110141+9990REMSYN04801001 46/// /1206 10021 20004 30070 40082 51014=
0089010010999992014011721004+70933-008667FM-12+000999999V0201301N005019999999N999999999+00181+00021100861ADDMA1999990100741MD1210111+9990REMSYN04801001 46/// /1305 10018 20002 30074 40086 52011=
0089010010999992014011722004+70933-008667FM-12+000999999V0201201N007019999999N999999999+00191+00041100901ADDMA1999990100781MD1210121+9990REMSYN04801001 46/// /1207 10019 20004 30078 40090 52012=
0089010010999992014011723004+70933-008667FM-12+000999999V0201201N006019999999N999999999+00191+00051100921ADDMA1999990100801MD1210101+9990REMSYN04801001 46/// /1206 10019 20005 30080 40092 52010=
0247010010999992014011800004+70933-008667FM-12+000999999V0201201N008019999999N004000199+00151-00011100931ADDAA106000091AY121021AY221021GA1081+999991061GE19MSL   +99999+99999GF108991081990999999991991MA1999990100811MD1210071+9990MW1401OD139901101999REMSYN07601001 11540 81208 10015 21001 30081 40093 52007 69901 74022 885// 333 91111=EQDQ01  00002PRCP06
0089010010999992014011801004+70933-008667FM-12+000999999V0201401N005019999999N999999999+00191+00001100921ADDMA1999990100801MD1210031+9990REMSYN04801001 46/// /1405 10019 20000 30080 40092 52003=
0089010010999992014011802004+70933-008667FM-12+000999999V0201101N008019999999N999999999+00181-00011100961ADDMA1999990100841MD1310041+9990REMSYN04801001 46/// /1108 10018 21001 30084 40096 53004=
0089010010999992014011803004+70933-008667FM-12+000999999V0201201N007019999999N999999999+00181-00051100931ADDMA1999990100811MD1900011+9990REMSYN04801001 46/// /1207 10018 21005 30081 40093 50001=
0089010010999992014011804004+70933-008667FM-12+000999999V0201001N007019999999N999999999+00131-00081100951ADDMA1999990100831MD1900031+9990REMSYN04801001 46/// /1007 10013 21008 30083 40095 50003=
0089010010999992014011805004+70933-008667FM-12+000999999V0200901N008019999999N999999999+00171-00051100981ADDMA1999990100861MD1310021+9990REMSYN04801001 46/// /0908 10017 21005 30086 40098 53002=
0293010010999992014011806004+70933-008667FM-12+000999999V0200901N008019999999N012000199+00161-00081100971ADDAA112000091AA224000931AJ199991999999999AY121021AY221021GA1071+999991061GE19MSL   +99999+99999GF107991071990999999991991IA1269KA1240N+00121MA1999990100851MD1210041+9990MW1021OD139901301999REMSYN09401001 11562 70908 10016 21008 30085 40097 52004 60002 70222 875// 333 20012 42999 70009 91113=
0089010010999992014011807004+70933-008667FM-12+000999999V0200901N009019999999N999999999+00141-00081100971ADDMA1999990100851MD1210021+9990REMSYN04801001 46/// /0909 10014 21008 30085 40097 52002=
0089010010999992014011808004+70933-008667FM-12+000999999V0200901N009019999999N999999999+00131-00071100991ADDMA1999990100871MD1310011+9990REMSYN04801001 46/// /0909 10013 21007 30087 40099 53001=
0203010010999992014011809004+70933-008667FM-12+000999999V0200801N009019999999N012000199+00091-00081100991ADDAY121021AY211021GA1991+999991031GA2021+999991061GE19MSL   +99999+99999GF103991990990999999991991MA1999990100871MD1210021+9990MW1011REMSYN06001001 41562 30809 10009 21008 30087 40099 52002 70121 82530=
0089010010999992014011810004+70933-008667FM-12+000999999V0200801N011019999999N999999999+00101-00121101021ADDMA1999990100901MD1210051+9990REMSYN04801001 46/// /0811 10010 21012 30090 40102 52005=
0089010010999992014011811004+70933-008667FM-12+000999999V0200701N007019999999N999999999+00081-00121100991ADDMA1999990100871MD1900001+9990REMSYN04801001 46/// /0707 10008 21012 30087 40099 50000=
0263010010999992014011812004+70933-008667FM-12+000999999V0200701N009019999999N020000199+00101-00101100971ADDAA106000091AY171021AY211021GA1991+999991031GA2041+999991081GE19MSL   +99999+99999GF105991990990999999991991MA1999990100851MD1810021+9990MW1031OD139901401999REMSYN07601001 11470 50709 10010 21010 30085 40097 58002 69901 70371 84830 333 91114=EQDQ01  00002PRCP06
0089010010999992014011813004+70933-008667FM-12+000999999V0200701N007019999999N999999999+00091-00021100951ADDMA1999990100831MD1710061+9990REMSYN04801001 46/// /0707 10009 21002 30083 40095 57006=
0089010010999992014011814004+70933-008667FM-12+000999999V0200601N007019999999N999999999+00111-00061100911ADDMA1999990100791MD1810081+9990REMSYN04801001 46/// /0607 10011 21006 30079 40091 58008=
0187010010999992014011815004+70933-008667FM-12+000999999V0200801N009019999999N020000199+00131-00101100861ADDAY171021AY221021GA1071+999991081GE19MSL   +99999+99999GF107991071990999999991991MA1999990100741MD1810111+9990MW1031REMSYN06001001 41470 70809 10013 21010 30074 40086 58011 70372 878//=
0089010010999992014011816004+70933-008667FM-12+000999999V0200901N010019999999N999999999+00121-00091100851ADDMA1999990100731MD1510101+9990REMSYN04801001 46/// /0910 10012 21009 30073 40085 55010=
0089010010999992014011817004+70933-008667FM-12+000999999V0200801N008019999999N999999999+00131-00081100831ADDMA1999990100711MD1610081+9990REMSYN04801001 46/// /0808 10013 21008 30071 40083 56008=
0282010010999992014011818004+70933-008667FM-12+000999999V0200901N008019999999N006000199+00141-00051100781ADDAA112000091AY171021AY221021GA1991+999991021GA2051+999991061GE19MSL   +99999+99999GF108991990990999999991991KA1120M+00161MA1999990100661MD1810081+9990MW1101OD139901301999REMSYN08201001 11556 80908 10014 21005 30066 40078 58008 69902 71072 85507 333 10016 91113=EQDQ01  00002PRCP12
0089010010999992014011819004+70933-008667FM-12+000999999V0200801N009019999999N999999999+00151-00021100771ADDMA1999990100651MD1610091+9990REMSYN04801001 46/// /0809 10015 21002 30065 40077 56009=
0089010010999992014011820004+70933-008667FM-12+000999999V0200801N008019999999N999999999+00171-00011100741ADDMA1999990100621MD1610081+9990REMSYN04801001 46/// /0808 10017 21001 30062 40074 56008=
0089010010999992014011821004+70933-008667FM-12+000999999V0200801N009019999999N999999999+00181+00031100711ADDMA1999990100591MD1810071+9990REMSYN04801001 46/// /0809 10018 20003 30059 40071 58007=
0089010010999992014011822004+70933-008667FM-12+000999999V0201101N006019999999N999999999+00111+00011100741ADDMA1999990100621MD1510031+9990REMSYN04801001 46/// /1106 10011 20001 30062 40074 55003=
0089010010999992014011823004+70933-008667FM-12+000999999V0201101N006019999999N999999999+00131+00041100721ADDMA1999990100601MD1510021+9990REMSYN04801001 46/// /1106 10013 20004 30060 40072 55002=
