0188010014999992014010416504+59792+005341FM-15+004999999V0201601N00511007921CN009999199+00701+00501999999ADDGA1021+003661991GA2041+007921991GA3071+012501991GE19MSL   +99999+99999GF199999021990003661991991MA1099401999990REMMET065METAR ENSO 041650Z 16010KT 9999 FEW012 SCT026 BKN041 07/05 Q0994=
0188010014999992014010417204+59792+005341FM-15+004999999V0201601N00461009141CN009999199+00701+00501999999ADDGA1021+004571991GA2041+009141991GA3071+011581991GE19MSL   +99999+99999GF199999021990004571991991MA1099401999990REMMET065METAR ENSO 041720Z 16009KT 9999 FEW015 SCT030 BKN038 07/05 Q0994=
0165010014999992014010417504+59792+005341FM-15+004999999V0201601N005110103619N009999199+00701+00501999999ADDGA1041+004271991GA2071+010361991GE19MSL   +99999+99999GF199999041990004271991991MA1099401999990REMMET058METAR ENSO 041750Z 16010KT 9999 SCT014 BKN034 07/05 Q0994=
0165010014999992014010418204+59792+005341FM-15+004999999V0201601N006210103619N009999199+00701+00501999999ADDGA1041+004571991GA2071+010361991GE19MSL   +99999+99999GF199999041990004571991991MA1099401999990REMMET058METAR ENSO 041820Z 16012KT 9999 SCT015 BKN034 07/05 Q0994=
0142010014999992014010418504+59792+005341FM-15+004999999V0201501N005119999999N009999199+00601+00401999999ADDGA1041+010671991GE19MSL   +99999+99999GF199999041990010671991991MA1099401999990REMMET051METAR ENSO 041850Z 15010KT 9999 SCT035 06/04 Q0994=
0142010014999992014010419204+59792+005341FM-15+004999999V0201501N006219999999N009999199+00601+00301999999ADDGA1041+010361991GE19MSL   +99999+99999GF199999041990010361991991MA1099401999990REMMET051METAR ENSO 041920Z 15012KT 9999 SCT034 06/03 Q0994=
0142010014999992014010419504+59792+005341FM-15+004999999V0201301N006219999999N009999199+00601+00301999999ADDGA1021+010671991GE19MSL   +99999+99999GF199999021990010671991991MA1099401999990REMMET051METAR ENSO 041950Z 13012KT 9999 FEW035 06/03 Q0994=
0142010014999992014010420204+59792+005341FM-15+004999999V0201301N006219999999N009999199+00701+00201999999ADDGA1021+010671991GE19MSL   +99999+99999GF199999021990010671991991MA1099501999990REMMET051METAR ENSO 042020Z 13012KT 9999 FEW035 07/02 Q0995=
0072010014999992014010420504+59792+005341FM-15+004999999V0201401N004619999999Y999999999+00701+00201999999ADDMA1099401999990REMMET045METAR ENSO 042050Z 14009KT CAVOK 07/02 Q0994=
0165010014999992014010508504+59792+005341FM-15+004999999V0201401N005710201219N009999199+00801+00201999999ADDGA1041+010671991GA2071+020121991GE19MSL   +99999+99999GF199999041990010671991991MA1099201999990REMMET058METAR ENSO 050850Z 14011KT 9999 SCT035 BKN066 08/02 Q0992=
0165010014999992014010509204+59792+005341FM-15+004999999V0201401N006210237719N009999199+00901+00201999999ADDGA1041+013111991GA2071+023771991GE19MSL   +99999+99999GF199999041990013111991991MA1099201999990REMMET058METAR ENSO 050920Z 14012KT 9999 SCT043 BKN078 09/02 Q0992=
0142010014999992014010509504+59792+005341FM-15+004999999V0201501N006210121919N009999199+00901+00201999999ADDGA1071+012191991GE19MSL   +99999+99999GF199999071990012191991991MA1099201999990REMMET051METAR ENSO 050950Z 15012KT 9999 BKN040 09/02 Q0992=
0142010014999992014010510204+59792+005341FM-15+004999999V0201501N007710121919N009999199+00801+00201999999ADDGA1071+012191991GE19MSL   +99999+99999GF199999071990012191991991MA1099201999990REMMET051METAR ENSO 051020Z 15015KT 9999 BKN040 08/02 Q0992=
0142010014999992014010510504+59792+005341FM-15+004999999V0201501N007210112819N009999199+00801+00201999999ADDGA1071+011281991GE19MSL   +99999+99999GF199999071990011281991991MA1099201999990REMMET051METAR ENSO 051050Z 15014KT 9999 BKN037 08/02 Q0992=
0152010014999992014010511204+59792+005341FM-15+004999999V0201501N005710106719N009999199+00701+00301999999ADDGA1071+010671991GE19MSL   +99999+99999GF199999071990010671991991MA1099301999990MW1611REMMET055METAR ENSO 051120Z 15011KT 9999 -RA BKN035 07/03 Q0993=
0152010014999992014010511504+59792+005341FM-15+004999999V0201601N005710097519N009999199+00701+00401999999ADDGA1071+009751991GE19MSL   +99999+99999GF199999071990009751991991MA1099301999990MW1511REMMET055METAR ENSO 051150Z 16011KT 9999 -DZ BKN032 07/04 Q0993=
0152010014999992014010512204+59792+005341FM-15+004999999V0201701N005710097519N009999199+00701+00401999999ADDGA1071+009751991GE19MSL   +99999+99999GF199999071990009751991991MA1099301999990MW1511REMMET055METAR ENSO 051220Z 17011KT 9999 -DZ BKN032 07/04 Q0993=
0174010014999992014010512504+59792+005341FM-15+004999999V0201601N005710118919N009999199+00601+00401999999ADDGA1041+009451991GA2071+011891991GE19MSL   +99999+99999GF199999041990009451991991MA1099401999990MW1531REMMET061METAR ENSO 051250Z 16011KT 9999 DZ SCT031 BKN039 06/04 Q0994=
0202010014999992014010603504+59792+005341FM-15+004999999V0201401V00881013721CN009999199+00701-00201999999ADDGA1021+007621991GA2041+013721991GA3071+021341991GE19MSL   +99999+99999GF199999021990007621991991MA1098801999990REMMET079METAR ENSO 060350Z 14017KT 120V180 9999 FEW025 SCT045 BKN070 07/M02      Q0988=
0200010014999992014010604204+59792+005341FM-15+004999999V0201301N00981013721CN009999199+00701-00301999999ADDGA1021+007621991GA2041+013721991GA3071+021341991GE19MSL   +99999+99999GF199999021990007621991991MA1098701999990OC101541REMMET069METAR ENSO 060420Z 13019G30KT 9999 FEW025 SCT045 BKN070 07/M03 Q0987=
0200010014999992014010604504+59792+005341FM-15+004999999V0201401N01441013721CN009999199+00601-00101999999ADDGA1021+004571991GA2041+013721991GA3071+021341991GE19MSL   +99999+99999GF199999021990004571991991MA1098601999990OC102011REMMET069METAR ENSO 060450Z 14028G39KT 9999 FEW015 SCT045 BKN070 06/M01 Q0986=
0221010014999992014010605204+59792+005341FM-15+004999999V0201401V01131004571CN007000199+00401+00101999999ADDGA1021+003051991GA2041+004571991GA3071+006101991GE19MSL   +99999+99999GF199999021990003051991991MA1098601999990MW1631OC101701REMMET084METAR ENSO 060520Z 14022G33KT 110V170 7000 RA FEW010 SCT015 BKN020      04/01 Q0986=
0221010014999992014010605504+59792+005341FM-15+004999999V0201201V01031004571CN009999199+00401+00201999999ADDGA1021+003051991GA2041+004571991GA3071+006101991GE19MSL   +99999+99999GF199999021990003051991991MA1098501999990MW1631OC101541REMMET084METAR ENSO 060550Z 12020G30KT 080V150 9999 RA FEW010 SCT015 BKN020      04/02 Q0985=
0222010014999992014010606204+59792+005341FM-15+004999999V0201201V01131004571CN009999199+00401+00201999999ADDGA1021+003051991GA2041+004571991GA3071+007621991GE19MSL   +99999+99999GF199999021990003051991991MA1098501999990MW1611OC101701REMMET085METAR ENSO 060620Z 12022G33KT 090V150 9999 -RA FEW010 SCT015 BKN025      04/02 Q0985=
0165010014999992014010606504+59792+005341FM-15+004999999V0201201N008810079219N009999199+00501+00301999999ADDGA1021+004571991GA2071+007921991GE19MSL   +99999+99999GF199999021990004571991991MA1098401999990REMMET058METAR ENSO 060650Z 12017KT 9999 FEW015 BKN026 05/03 Q0984=
0173010014999992014010607204+59792+005341FM-15+004999999V0201201V009810079219N009999199+00601+00201999999ADDGA1021+004571991GA2071+007921991GE19MSL   +99999+99999GF199999021990004571991991MA1098401999990REMMET066METAR ENSO 060720Z 12019KT 090V150 9999 FEW015 BKN026 06/02 Q0984=
0165010014999992014010607504+59792+005341FM-15+004999999V0201301N008210082319N009999199+00601+00301999999ADDGA1021+004571991GA2071+008231991GE19MSL   +99999+99999GF199999021990004571991991MA1098501999990REMMET058METAR ENSO 060750Z 13016KT 9999 FEW015 BKN027 06/03 Q0985=
0199010014999992014010608204+59792+005341FM-15+004999999V0201301V007710082319N009999199+00501+00301999999ADDGA1021+004571991GA2071+008231991GE19MSL   +99999+99999GF199999021990004571991991MA1098501999990MW1611OC101291REMMET078METAR ENSO 060820Z 13015G25KT 100V160 9999 -RA FEW015 BKN027 05/03      Q0985=
0183010014999992014010608504+59792+005341FM-15+004999999V0201201V007210061019N009999199+00501+00301999999ADDGA1021+004571991GA2071+006101991GE19MSL   +99999+99999GF199999021990004571991991MA1098501999990MW1611REMMET070METAR ENSO 060850Z 12014KT 090V150 9999 -RA FEW015 BKN020 05/03 Q0985=
0175010014999992014010609204+59792+005341FM-15+004999999V0201301N008810061019N009999199+00501+00301999999ADDGA1021+004571991GA2071+006101991GE19MSL   +99999+99999GF199999021990004571991991MA1098501999990MW1611REMMET062METAR ENSO 060920Z 13017KT 9999 -RA FEW015 BKN020 05/03 Q0985=
0186010014999992014010609504+59792+005341FM-15+004999999V0201301N009310067119N009999199+00501+00301999999ADDGA1021+004571991GA2071+006711991GE19MSL   +99999+99999GF199999021990004571991991MA1098501999990MW1611OC101441REMMET065METAR ENSO 060950Z 13018G28KT 9999 -RA FEW015 BKN022 05/03 Q0985=
0175010014999992014010610204+59792+005341FM-15+004999999V0201301N008210070119N009999199+00501+00301999999ADDGA1021+004571991GA2071+007011991GE19MSL   +99999+99999GF199999021990004571991991MA1098501999990MW1611REMMET062METAR ENSO 061020Z 13016KT 9999 -RA FEW015 BKN023 05/03 Q0985=
0165010014999992014010610504+59792+005341FM-15+004999999V0201301N007710070119N009999199+00501+00401999999ADDGA1021+004571991GA2071+007011991GE19MSL   +99999+99999GF199999021990004571991991MA1098501999990REMMET058METAR ENSO 061050Z 13015KT 9999 FEW015 BKN023 05/04 Q0985=
0165010014999992014010611204+59792+005341FM-15+004999999V0201401N008210061019N009999199+00601+00401999999ADDGA1021+003661991GA2071+006101991GE19MSL   +99999+99999GF199999021990003661991991MA1098501999990REMMET058METAR ENSO 061120Z 14016KT 9999 FEW012 BKN020 06/04 Q0985=
0165010014999992014010611504+59792+005341FM-15+004999999V0201401N008810048819N009999199+00601+00401999999ADDGA1021+003051991GA2071+004881991GE19MSL   +99999+99999GF199999021990003051991991MA1098501999990REMMET058METAR ENSO 061150Z 14017KT 9999 FEW010 BKN016 06/04 Q0985=
0173010014999992014010612204+59792+005341FM-15+004999999V0201501V008810045719N009999199+00701+00501999999ADDGA1041+002441991GA2071+004571991GE19MSL   +99999+99999GF199999041990002441991991MA1098501999990REMMET066METAR ENSO 061220Z 15017KT 120V200 9999 SCT008 BKN015 07/05 Q0985=
0165010014999992014010612504+59792+005341FM-15+004999999V0201401N007710045719N009999199+00701+00501999999ADDGA1041+002441991GA2071+004571991GE19MSL   +99999+99999GF199999041990002441991991MA1098601999990REMMET058METAR ENSO 061250Z 14015KT 9999 SCT008 BKN015 07/05 Q0986=
0165010014999992014010613204+59792+005341FM-15+004999999V0201501N008210039619N009999199+00701+00501999999ADDGA1041+002441991GA2071+003961991GE19MSL   +99999+99999GF199999041990002441991991MA1098601999990REMMET058METAR ENSO 061320Z 15016KT 9999 SCT008 BKN013 07/05 Q0986=
0188010014999992014010613504+59792+005341FM-15+004999999V0201501N00821003661CN009999199+00701+00601999999ADDGA1021+002441991GA2041+003661991GA3071+004881991GE19MSL   +99999+99999GF199999021990002441991991MA1098601999990REMMET065METAR ENSO 061350Z 15016KT 9999 FEW008 SCT012 BKN016 07/06 Q0986=
0188010014999992014010614204+59792+005341FM-15+004999999V0201501N00821003961CN009999199+00801+00601999999ADDGA1021+002441991GA2041+003961991GA3071+005491991GE19MSL   +99999+99999GF199999021990002441991991MA1098601999990REMMET065METAR ENSO 061420Z 15016KT 9999 FEW008 SCT013 BKN018 08/06 Q0986=
0188010014999992014010614504+59792+005341FM-15+004999999V0201501N00671003661CN009999199+00801+00601999999ADDGA1021+002441991GA2041+003661991GA3071+004571991GE19MSL   +99999+99999GF199999021990002441991991MA1098601999990REMMET065METAR ENSO 061450Z 15013KT 9999 FEW008 SCT012 BKN015 08/06 Q0986=
0173010014999992014010615204+59792+005341FM-15+004999999V0201601V006710042719N009999199+00801+00601999999ADDGA1041+003051991GA2071+004271991GE19MSL   +99999+99999GF199999041990003051991991MA1098701999990REMMET066METAR ENSO 061520Z 16013KT 130V190 9999 SCT010 BKN014 08/06 Q0987=
0165010014999992014010615504+59792+005341FM-15+004999999V0201501N006710036619N009999199+00801+00601999999ADDGA1041+002741991GA2071+003661991GE19MSL   +99999+99999GF199999041990002741991991MA1098701999990REMMET058METAR ENSO 061550Z 15013KT 9999 SCT009 BKN012 08/06 Q0987=
0165010014999992014010616204+59792+005341FM-15+004999999V0201501N007210036619N009999199+00801+00601999999ADDGA1041+002741991GA2071+003661991GE19MSL   +99999+99999GF199999041990002741991991MA1098601999990REMMET058METAR ENSO 061620Z 15014KT 9999 SCT009 BKN012 08/06 Q0986=
0165010014999992014010616504+59792+005341FM-15+004999999V0201601N006710036619N009999199+00801+00601999999ADDGA1041+002441991GA2071+003661991GE19MSL   +99999+99999GF199999041990002441991991MA1098601999990REMMET058METAR ENSO 061650Z 16013KT 9999 SCT008 BKN012 08/06 Q0986=
0173010014999992014010617204+59792+005341FM-15+004999999V0201601V007210036619N009999199+00801+00501999999ADDGA1041+002441991GA2071+003661991GE19MSL   +99999+99999GF199999041990002441991991MA1098601999990REMMET066METAR ENSO 061720Z 16014KT 130V190 9999 SCT008 BKN012 08/05 Q0986=
0188010014999992014010617504+59792+005341FM-15+004999999V0201601N00771003351CN009999199+00801+00501999999ADDGA1021+002441991GA2041+003351991GA3071+004881991GE19MSL   +99999+99999GF199999021990002441991991MA1098601999990REMMET065METAR ENSO 061750Z 16015KT 9999 FEW008 SCT011 BKN016 08/05 Q0986=
0173010014999992014010618204+59792+005341FM-15+004999999V0201501V007710061019N009999199+00801+00501999999ADDGA1041+003661991GA2071+006101991GE19MSL   +99999+99999GF199999041990003661991991MA1098601999990REMMET066METAR ENSO 061820Z 15015KT 130V190 9999 SCT012 BKN020 08/05 Q0986=
0184010014999992014010704504+59792+005341FM-15+004999999V0201801V008210039619N009999199+00801+00701999999ADDGA1041+002741991GA2071+003961991GE19MSL   +99999+99999GF199999041990002741991991MA1098601999990OC101441REMMET069METAR ENSO 070450Z 18016G28KT 140V210 9999 SCT009 BKN013 08/07 Q0986=
0184010014999992014010705204+59792+005341FM-15+004999999V0201801V008810039619N009999199+00801+00601999999ADDGA1041+003051991GA2071+003961991GE19MSL   +99999+99999GF199999041990003051991991MA1098601999990OC101391REMMET069METAR ENSO 070520Z 18017G27KT 140V210 9999 SCT010 BKN013 08/06 Q0986=
0184010014999992014010705504+59792+005341FM-15+004999999V0201701V008810039619N009999199+00801+00601999999ADDGA1041+003051991GA2071+003961991GE19MSL   +99999+99999GF199999041990003051991991MA1098601999990OC101441REMMET069METAR ENSO 070550Z 17017G28KT 150V210 9999 SCT010 BKN013 08/06 Q0986=
0185010014999992014010706204+59792+005341FM-15+004999999V0201701V008810036619N009999199+00801+00601999999ADDGA1041+002441991GA2071+003661991GE19MSL   +99999+99999GF199999041990002441991991MA1098601999990MW1801REMMET072METAR ENSO 070620Z 17017KT 140V210 9999 -SHRA SCT008 BKN012 08/06 Q0986=
0162010014999992014010706504+59792+005341FM-15+004999999V0201801V008210027419N009999199+00801+00701999999ADDGA1071+002741991GE19MSL   +99999+99999GF199999071990002741991991MA1098601999990MW1801REMMET065METAR ENSO 070650Z 18016KT 150V220 9999 -SHRA BKN009 08/07 Q0986=
0168010014999992014010707204+59792+005341FM-15+004999999V0201901V007210024419N009999199+00801+00701999999ADDGA1071+002441991GE19MSL   +99999+99999GF199999071990002441991991MA1098601999990OC101391REMMET069METAR ENSO 070720Z 19014G27KT 140V230 9999 BKN008 08/07 Q0986 RESHRA=
0161010014999992014010707504+59792+005341FM-15+004999999V0202001V008810018319N009999199+00801+00701999999ADDGA1071+001831991GE19MSL   +99999+99999GF199999071990001831991991MA1098701999990OC101441REMMET062METAR ENSO 070750Z 20017G28KT 170V230 9999 BKN006 08/07 Q0987=
0184010014999992014010708204+59792+005341FM-15+004999999V0201901V008810024419N009999199+00801+00701999999ADDGA1041+001831991GA2071+002441991GE19MSL   +99999+99999GF199999041990001831991991MA1098701999990OC101491REMMET069METAR ENSO 070820Z 19017G29KT 140V240 9999 SCT006 BKN008 08/07 Q0987=
0173010014999992014010708504+59792+005341FM-15+004999999V0201901V006710030519N009999199+00801+00701999999ADDGA1041+002441991GA2071+003051991GE19MSL   +99999+99999GF199999041990002441991991MA1098801999990REMMET066METAR ENSO 070850Z 19013KT 140V240 9999 SCT008 BKN010 08/07 Q0988=
0201010014999992014010709204+59792+005341FM-15+004999999V0201801V007210027419N009999199+00801+00701999999ADDGA1041+001831991GA2071+002741991GE19MSL   +99999+99999GF199999041990001831991991MA1098801999990MW1801OC101241REMMET080METAR ENSO 070920Z 18014G24KT 110V230 9999 -SHRA SCT006 BKN009 08/07      Q0988=
0173010014999992014010709504+59792+005341FM-15+004999999V0201901V006710036619N009999199+00801+00701999999ADDGA1041+002441991GA2071+003661991GE19MSL   +99999+99999GF199999041990002441991991MA1098901999990REMMET066METAR ENSO 070950Z 19013KT 140V240 9999 SCT008 BKN012 08/07 Q0989=
0173010014999992014010710204+59792+005341FM-15+004999999V0201901V006210039619N009999199+00801+00601999999ADDGA1041+002741991GA2071+003961991GE19MSL   +99999+99999GF199999041990002741991991MA1098901999990REMMET066METAR ENSO 071020Z 19012KT 150V260 9999 SCT009 BKN013 08/06 Q0989=
0184010014999992014010711204+59792+005341FM-15+004999999V0202001V008810039619N009999199+00801+00601999999ADDGA1041+002441991GA2071+003961991GE19MSL   +99999+99999GF199999041990002441991991MA1098901999990OC101441REMMET069METAR ENSO 071120Z 20017G28KT 160V240 9999 SCT008 BKN013 08/06 Q0989=
0184010014999992014010711504+59792+005341FM-15+004999999V0202001V009810042719N009999199+00801+00601999999ADDGA1041+003051991GA2071+004271991GE19MSL   +99999+99999GF199999041990003051991991MA1098901999990OC101541REMMET069METAR ENSO 071150Z 20019G30KT 170V230 9999 SCT010 BKN014 08/06 Q0989=
0140010014999992014010712204+59792+005341FM-15+004999999V0202001V007719999999N999999999+99999+99999999999ADDMA1098901999990MW1801OC101291REMMET080METAR ENSO 071220Z 20015G25KT 160V240 -SHRA 9999 SCT010 BKN014 08/07      Q0989=EQDD01      0ADE693
0132010014999992014010712504+59792+005341FM-15+004999999V0201901V009319999999N999999999+00801+00601999999ADDMA1098901999990MW1631OC101541REMMET072METAR ENSO 071250Z 19018G30KT 160V240 RA 9999 SCT008 BKN015 08/06 Q0989=EQDD01      0ADE693
0140010014999992014010713204+59792+005341FM-15+004999999V0202001V008219999999N999999999+99999+99999999999ADDMA1098901999990MW1581OC101541REMMET080METAR ENSO 071320Z 20016G30KT 160V250 -RADZ 5000 BKN009 OVC011 08/07      Q0989=EQDD01      0ADE693
0128010014999992014010714204+59792+005341FM-15+004999999V0202001V009819999999N999999999+00801+00701999999ADDMA1098901999990MW1581OC101701REMMET068METAR ENSO 071420Z 20019G33KT 160V250 -RADZ 5000 BKN009 08/07 Q0989=EQDD01      0ADE693
0127010014999992014010714504+59792+005341FM-15+004999999V0202001V007219999999N999999999+00801+00601999999ADDMA1098901999990MW1591OC101441REMMET067METAR ENSO 071450Z 20014G28KT 140V260 RADZ 7000 BKN008 08/06 Q0989=EQDD01      0ADE693
0135010014999992014010715204+59792+005341FM-15+004999999V0202001V007719999999N999999999+99999+99999999999ADDMA1099001999990OC101291REMMET081METAR ENSO 071520Z 20015G25KT 150V240 SHRADZ 7000 BKN008 OVC010 07/07      Q0990=EQDD01      0ADE693
0146010014999992014010715504+59792+005341FM-15+004999999V0202001V009319999999N999999999+00801+00601999999ADDMA1099001999990MW1581OC101541REMMET086METAR ENSO 071550Z 20018G30KT 160V230 -RADZ 9000 4000W BKN008 OVC009      08/06 Q0990=EQDD01      0ADE693
0126010014999992014010716204+59792+005341FM-15+004999999V0202001V006719999999N999999999+00801+00601999999ADDMA1099001999990MW1511OC101341REMMET066METAR ENSO 071620Z 20013G26KT 140V250 -DZ 9000 BKN009 08/06 Q0990=EQDD01      0ADE693
0184010014999992014010717204+59792+005341FM-15+004999999V0202001V006710042719N009999199+00801+00601999999ADDGA1041+003051991GA2071+004271991GE19MSL   +99999+99999GF199999041990003051991991MA1099001999990OC101181REMMET069METAR ENSO 071720Z 20013G23KT 150V240 9999 SCT010 BKN014 08/06 Q0990=
0161010014999992014010717504+59792+005341FM-15+004999999V0202001V006210030519N009999199+00801+00601999999ADDGA1071+003051991GE19MSL   +99999+99999GF199999071990003051991991MA1099101999990OC101131REMMET062METAR ENSO 071750Z 20012G22KT 150V250 9999 BKN010 08/06 Q0991=
0173010014999992014010804504+59792+005341FM-15+004999999V0201801V004610021319N009999199+00701+00701999999ADDGA1041+001521991GA2071+002131991GE19MSL   +99999+99999GF199999041990001521991991MA1099301999990REMMET066METAR ENSO 080450Z 18009KT 120V210 9999 SCT005 BKN007 07/07 Q0993=
0201010014999992014010805204+59792+005341FM-15+004999999V0201701V00461002441CN009999199+00701+00701999999ADDGA1021+001521991GA2041+002441991GA3071+003051991GE19MSL   +99999+99999GF199999021990001521991991MA1099301999990REMMET078METAR ENSO 080520Z 17009KT 140V210 9999 FEW005 SCT008 BKN010 07/07      Q0993=
0173010014999992014010805504+59792+005341FM-15+004999999V0201801V004110027419N009999199+00701+00701999999ADDGA1021+001221991GA2071+002741991GE19MSL   +99999+99999GF199999021990001221991991MA1099301999990REMMET066METAR ENSO 080550Z 18008KT 140V210 9999 FEW004 BKN009 07/07 Q0993=
0173010014999992014010806204+59792+005341FM-15+004999999V0201801V004610027419N009999199+00701+00701999999ADDGA1021+001521991GA2071+002741991GE19MSL   +99999+99999GF199999021990001521991991MA1099301999990REMMET066METAR ENSO 080620Z 18009KT 140V230 9999 FEW005 BKN009 07/07 Q0993=
0173010014999992014010806504+59792+005341FM-15+004999999V0201801V004110036619N009999199+00701+00701999999ADDGA1041+001521991GA2071+003661991GE19MSL   +99999+99999GF199999041990001521991991MA1099401999990REMMET066METAR ENSO 080650Z 18008KT 140V230 9999 SCT005 BKN012 07/07 Q0994=
0173010014999992014010807204+59792+005341FM-15+004999999V0201901V004610027419N009999199+00701+00701999999ADDGA1041+001521991GA2071+002741991GE19MSL   +99999+99999GF199999041990001521991991MA1099401999990REMMET066METAR ENSO 080720Z 19009KT 140V230 9999 SCT005 BKN009 07/07 Q0994=
0173010014999992014010808204+59792+005341FM-15+004999999V0201901V004110027419N009999199+00701+00701999999ADDGA1041+001521991GA2071+002741991GE19MSL   +99999+99999GF199999041990001521991991MA1099501999990REMMET066METAR ENSO 080820Z 19008KT 130V230 9999 SCT005 BKN009 07/07 Q0995=
0173010014999992014010808504+59792+005341FM-15+004999999V0201801V004110030519N009999199+00701+00701999999ADDGA1041+001831991GA2071+003051991GE19MSL   +99999+99999GF199999041990001831991991MA1099501999990REMMET066METAR ENSO 080850Z 18008KT 140V220 9999 SCT006 BKN010 07/07 Q0995=
0173010014999992014010809204+59792+005341FM-15+004999999V0201801V004610024419N009999199+00701+00701999999ADDGA1041+001521991GA2071+002441991GE19MSL   +99999+99999GF199999041990001521991991MA1099501999990REMMET066METAR ENSO 080920Z 18009KT 140V200 9999 SCT005 BKN008 07/07 Q0995=
0173010014999992014010810204+59792+005341FM-15+004999999V0202101V004610021319N009999199+00801+00701999999ADDGA1041+001221991GA2071+002131991GE19MSL   +99999+99999GF199999041990001221991991MA1099601999990REMMET066METAR ENSO 081020Z 21009KT 170V280 9999 SCT004 BKN007 08/07 Q0996=
0213010014999992014010810504+59792+005341FM-15+004999999V0202201V00411001521CN009000199+00701+00701999999ADDGA1021+000911991GA2041+001521991GA3071+002741991GE19MSL   +99999+99999GF199999021990000911991991MA1099601999990MW1801REMMET084METAR ENSO 081050Z 22008KT 160V250 9000 -SHRA FEW003 SCT005 BKN009      07/07 Q0996=
0201010014999992014010811204+59792+005341FM-15+004999999V0202201V00461001831CN009999199+00801+00701999999ADDGA1021+001221991GA2041+001831991GA3071+003051991GE19MSL   +99999+99999GF199999021990001221991991MA1099601999990REMMET078METAR ENSO 081120Z 22009KT 160V280 9999 FEW004 SCT006 BKN010 08/07      Q0996=
0201010014999992014010811504+59792+005341FM-15+004999999V0202101V003110030519N009999199+00701+00701999999ADDGA1041+001831991GA2071+003051991GA3081+007621991GE19MSL   +99999+99999GF199999041990001831991991MA1099601999990REMMET078METAR ENSO 081150Z 21006KT 160V260 9999 SCT006 BKN010 OVC025 07/07      Q0996=
0201010014999992014010812504+59792+005341FM-15+004999999V0202201V00411002741CN009999199+00701+00701999999ADDGA1041+002131991GA2041+002741991GA3071+005491991GE19MSL   +99999+99999GF199999041990002131991991MA1099601999990REMMET078METAR ENSO 081250Z 22008KT 170V260 9999 SCT007 SCT009 BKN018 07/07      Q0996=
0188010014999992014010813204+59792+005341FM-15+004999999V0202201N00411003051CN009999199+00701+00701999999ADDGA1041+002131991GA2041+003051991GA3071+005791991GE19MSL   +99999+99999GF199999041990002131991991MA1099601999990REMMET065METAR ENSO 081320Z 22008KT 9999 SCT007 SCT010 BKN019 07/07 Q0996=
0188010014999992014010813504+59792+005341FM-15+004999999V0202101N00361003051CN009999199+00701+00701999999ADDGA1041+002441991GA2041+003051991GA3071+008531991GE19MSL   +99999+99999GF199999041990002441991991MA1099701999990REMMET065METAR ENSO 081350Z 21007KT 9999 SCT008 SCT010 BKN028 07/07 Q0997=
0201010014999992014010814204+59792+005341FM-15+004999999V0202101V00361003661CN009999199+00701+00701999999ADDGA1041+002441991GA2041+003661991GA3071+011891991GE19MSL   +99999+99999GF199999041990002441991991MA1099701999990REMMET078METAR ENSO 081420Z 21007KT 170V290 9999 SCT008 SCT012 BKN039 07/07      Q0997=
0201010014999992014010814504+59792+005341FM-15+004999999V0202201V00361002741CN009999199+00701+00701999999ADDGA1041+001831991GA2041+002741991GA3071+003961991GE19MSL   +99999+99999GF199999041990001831991991MA1099701999990REMMET078METAR ENSO 081450Z 22007KT 170V250 9999 SCT006 SCT009 BKN013 07/07      Q0997=
0131010014999992014010815204+59792+005341FM-15+004999999V0202101V004119999999N009999199+00701+00701999999ADDMA1099701999990REMMET085METAR ENSO 081520Z 21008KT 180V250 9999 SHRADZ SCT006 SCT009 BKN014      07/07 Q0997=EQDD01      0ADE693
0130010014999992014010815504+59792+005341FM-15+004999999V0202201N004119999999N009999199+00701+00701999999ADDMA1099701999990REMMET084METAR ENSO 081550Z 22008KT 9999 5000E -SHRADZ SCT006 SCT008 BKN018      07/07 Q0997=EQDD01      0ADE693
0210010014999992014010816204+59792+005341FM-15+004999999V0202101N00411002441CN009999199+00701+00701999999ADDGA1041+001831991GA2041+002441991GA3071+006711991GE19MSL   +99999+99999GF199999041990001831991991MA1099701999990MW1591REMMET081METAR ENSO 081620Z 21008KT 9999 5000E RADZ SCT006 SCT008 BKN022 07/07      Q0997=
0188010014999992014010816504+59792+005341FM-15+004999999V0202301N00461003661CN009999199+00701+00701999999ADDGA1041+002441991GA2041+003661991GA3071+015241991GE19MSL   +99999+99999GF199999041990002441991991MA1099801999990REMMET065METAR ENSO 081650Z 23009KT 9999 SCT008 SCT012 BKN050 07/07 Q0998=
0188010014999992014010817204+59792+005341FM-15+004999999V0202301N00461005181CN009999199+00701+00701999999ADDGA1041+002441991GA2041+005181991GA3071+021341991GE19MSL   +99999+99999GF199999041990002441991991MA1099801999990REMMET065METAR ENSO 081720Z 23009KT 9999 SCT008 SCT017 BKN070 07/07 Q0998=
0198010014999992014010817504+59792+005341FM-15+004999999V0202201N00311005181CN009999199+00701+00701999999ADDGA1041+002441991GA2041+005181991GA3071+021341991GE19MSL   +99999+99999GF199999041990002441991991MA1099801999990MW1611REMMET069METAR ENSO 081750Z 22006KT 9999 -RA SCT008 SCT017 BKN070 07/07 Q0998=
0198010014999992014010818204+59792+005341FM-15+004999999V0202201N00461003051CN009999199+00701+00701999999ADDGA1041+002131991GA2041+003051991GA3071+004271991GE19MSL   +99999+99999GF199999041990002131991991MA1099801999990MW1611REMMET069METAR ENSO 081820Z 22009KT 9999 -RA SCT007 SCT010 BKN014 07/07 Q0998=
0201010014999992014010904504+59792+005341FM-15+004999999V0201601V00411007321CN009999199+00601+00501999999ADDGA1021+003661991GA2041+007321991GA3071+010671991GE19MSL   +99999+99999GF199999021990003661991991MA1099801999990REMMET078METAR ENSO 090450Z 16008KT 130V200 9999 FEW012 SCT024 BKN035 06/05      Q0998=
0188010014999992014010905204+59792+005341FM-15+004999999V0201401N00461003051CN009999199+00601+00501999999ADDGA1021+002131991GA2041+003051991GA3071+009141991GE19MSL   +99999+99999GF199999021990002131991991MA1099801999990REMMET065METAR ENSO 090520Z 14009KT 9999 FEW007 SCT010 BKN030 06/05 Q0998=
0165010014999992014010905504+59792+005341FM-15+004999999V0201701N003610067119N009999199+00601+00501999999ADDGA1041+002441991GA2071+006711991GE19MSL   +99999+99999GF199999041990002441991991MA1099701999990REMMET058METAR ENSO 090550Z 17007KT 9999 SCT008 BKN022 06/05 Q0997=
0173010014999992014010906204+59792+005341FM-15+004999999V0201801V002610036619N009999199+00601+00501999999ADDGA1041+002741991GA2071+003661991GE19MSL   +99999+99999GF199999041990002741991991MA1099701999990REMMET066METAR ENSO 090620Z 18005KT 150V230 9999 SCT009 BKN012 06/05 Q0997=
0188010014999992014010906504+59792+005341FM-15+004999999V0201501N00411003051CN009999199+00601+00501999999ADDGA1021+002131991GA2041+003051991GA3071+006101991GE19MSL   +99999+99999GF199999021990002131991991MA1099701999990REMMET065METAR ENSO 090650Z 15008KT 9999 FEW007 SCT010 BKN020 06/05 Q0997=
0188010014999992014010907504+59792+005341FM-15+004999999V0201501N00411003351CN009999199+00501+00501999999ADDGA1021+002441991GA2041+003351991GA3071+005491991GE19MSL   +99999+99999GF199999021990002441991991MA1099601999990REMMET065METAR ENSO 090750Z 15008KT 9999 FEW008 SCT011 BKN018 05/05 Q0996=
0188010014999992014010908504+59792+005341FM-15+004999999V0201301N00411002741CN009999199+00501+00401999999ADDGA1021+002131991GA2041+002741991GA3071+004881991GE19MSL   +99999+99999GF199999021990002131991991MA1099601999990REMMET065METAR ENSO 090850Z 13008KT 9999 FEW007 SCT009 BKN016 05/04 Q0996=
0165010014999992014010909204+59792+005341FM-15+004999999V0201301N003610048819N009999199+00501+00401999999ADDGA1041+002131991GA2071+004881991GE19MSL   +99999+99999GF199999041990002131991991MA1099501999990REMMET058METAR ENSO 090920Z 13007KT 9999 SCT007 BKN016 05/04 Q0995=
0165010014999992014010909504+59792+005341FM-15+004999999V0201101N00261010971CN009999199+00501+00401999999ADDGA1041+004271991GA2041+010971991GE19MSL   +99999+99999GF199999041990004271991991MA1099501999990REMMET058METAR ENSO 090950Z 11005KT 9999 SCT014 SCT036 05/04 Q0995=
0165010014999992014010910204+59792+005341FM-15+004999999V0201101N00411010971CN009999199+00501+00401999999ADDGA1041+003661991GA2041+010971991GE19MSL   +99999+99999GF199999041990003661991991MA1099501999990REMMET058METAR ENSO 091020Z 11008KT 9999 SCT012 SCT036 05/04 Q0995=
0188010014999992014010910504+59792+005341FM-15+004999999V0201101N00411003661CN009999199+00501+00401999999ADDGA1021+002441991GA2041+003661991GA3071+027431991GE19MSL   +99999+99999GF199999021990002441991991MA1099501999990REMMET065METAR ENSO 091050Z 11008KT 9999 FEW008 SCT012 BKN090 05/04 Q0995=
0165010014999992014010911204+59792+005341FM-15+004999999V0201001N00411027431CN009999199+00501+00401999999ADDGA1021+003051991GA2041+027431991GE19MSL   +99999+99999GF199999021990003051991991MA1099401999990REMMET058METAR ENSO 091120Z 10008KT 9999 FEW010 SCT090 05/04 Q0994=
0165010014999992014010911504+59792+005341FM-15+004999999V0201001N00361007621CN009999199+00501+00301999999ADDGA1021+003051991GA2041+007621991GE19MSL   +99999+99999GF199999021990003051991991MA1099301999990REMMET058METAR ENSO 091150Z 10007KT 9999 FEW010 SCT025 05/03 Q0993=
0165010014999992014010912204+59792+005341FM-15+004999999V0201101N00311009141CN009999199+00501+00301999999ADDGA1021+003051991GA2041+009141991GE19MSL   +99999+99999GF199999021990003051991991MA1099301999990REMMET058METAR ENSO 091220Z 11006KT 9999 FEW010 SCT030 05/03 Q0993=
0165010014999992014010912504+59792+005341FM-15+004999999V0201101N00361007621CN009999199+00501+00301999999ADDGA1021+003961991GA2041+007621991GE19MSL   +99999+99999GF199999021990003961991991MA1099301999990REMMET058METAR ENSO 091250Z 11007KT 9999 FEW013 SCT025 05/03 Q0993=
0072010014999992014010913204+59792+005341FM-15+004999999V0201101N003119999999Y999999999+00601+00301999999ADDMA1099201999990REMMET045METAR ENSO 091320Z 11006KT CAVOK 06/03 Q0992=
0072010014999992014010913504+59792+005341FM-15+004999999V0201301N002619999999Y999999999+00501+00301999999ADDMA1099201999990REMMET045METAR ENSO 091350Z 13005KT CAVOK 05/03 Q0992=
0080010014999992014010914204+59792+005341FM-15+004999999V0201601V001019999999Y999999999+00501+00301999999ADDMA1099201999990REMMET053METAR ENSO 091420Z 16002KT 110V210 CAVOK 05/03 Q0992=
0072010014999992014010914504+59792+005341FM-15+004999999V0209999V000519999999Y999999999+00401+00301999999ADDMA1099201999990REMMET045METAR ENSO 091450Z VRB01KT CAVOK 04/03 Q0992=
0098010014999992014010915204+59792+005341FM-15+004999999V0200601N000519999999Y999999999+00401+00201999999ADDMA1099201999990REMMET052METAR ENSO 091520Z 06001KT 030100 CAVOK 04/02 Q0992=EQDD01      0ADE693
0072010014999992014010916204+59792+005341FM-15+004999999V0203501N002119999999Y999999999+00301+00201999999ADDMA1099201999990REMMET045METAR ENSO 091620Z 35004KT CAVOK 03/02 Q0992=
0072010014999992014010916504+59792+005341FM-15+004999999V0203401N002119999999Y999999999+00301+00201999999ADDMA1099201999990REMMET045METAR ENSO 091650Z 34004KT CAVOK 03/02 Q0992=
0072010014999992014010917504+59792+005341FM-15+004999999V0203501N002119999999Y999999999+00301+00201999999ADDMA1099201999990REMMET045METAR ENSO 091750Z 35004KT CAVOK 03/02 Q0992=
0072010014999992014010918204+59792+005341FM-15+004999999V0203501N001519999999Y999999999+00301+00201999999ADDMA1099201999990REMMET045METAR ENSO 091820Z 35003KT CAVOK 03/02 Q0992=
0072010014999992014010918504+59792+005341FM-15+004999999V0203601N001519999999Y999999999+00301+00201999999ADDMA1099201999990REMMET045METAR ENSO 091850Z 36003KT CAVOK 03/02 Q0992=
0072010014999992014010919204+59792+005341FM-15+004999999V0203401N001019999999Y999999999+00301+00201999999ADDMA1099201999990REMMET045METAR ENSO 091920Z 34002KT CAVOK 03/02 Q0992=
0165010014999992014011007204+59792+005341FM-15+004999999V0201401N003110091419N009999199+00301+00301999999ADDGA1021+006101991GA2071+009141991GE19MSL   +99999+99999GF199999021990006101991991MA1099801999990REMMET058METAR ENSO 100720Z 14006KT 9999 FEW020 BKN030 03/03 Q0998=
0165010014999992014011007504+59792+005341FM-15+004999999V0201401N003110048819N009999199+00301+00301999999ADDGA1041+001221991GA2071+004881991GE19MSL   +99999+99999GF199999041990001221991991MA1099801999990REMMET058METAR ENSO 100750Z 14006KT 9999 SCT004 BKN016 03/03 Q0998=
0172010014999992014011008204+59792+005341FM-15+004999999V0201301V003119999999N009999199+00301+00301999999ADDGA1041+001221991GA2071+999991991GE19MSL   +99999+99999GF199999041990001221991991MA1099801999990REMMET065METAR ENSO 100820Z 13006KT 090V150 9999 SCT004 BKN01 03/03 Q0998=
0165010014999992014011008504+59792+005341FM-15+004999999V0201301N002610042719N007000199+00301+00301999999ADDGA1041+001221991GA2071+004271991GE19MSL   +99999+99999GF199999041990001221991991MA1099901999990REMMET058METAR ENSO 100850Z 13005KT 7000 SCT004 BKN014 03/03 Q0999=
0188010014999992014011010204+59792+005341FM-15+004999999V0201201N00311003051CN009999199+00401+00301999999ADDGA1021+000911991GA2041+003051991GA3071+006101991GE19MSL   +99999+99999GF199999021990000911991991MA1099901999990REMMET065METAR ENSO 101020Z 12006KT 9999 FEW003 SCT010 BKN020 04/03 Q0999=
0188010014999992014011010504+59792+005341FM-15+004999999V0201401N00311002441CN009999199+00401+00301999999ADDGA1021+000611991GA2041+002441991GA3071+006101991GE19MSL   +99999+99999GF199999021990000611991991MA1099901999990REMMET065METAR ENSO 101050Z 14006KT 9999 FEW002 SCT008 BKN020 04/03 Q0999=
0188010014999992014011011204+59792+005341FM-15+004999999V0201301N00361002441CN009999199+00401+00401999999ADDGA1041+000911991GA2041+002441991GA3071+004571991GE19MSL   +99999+99999GF199999041990000911991991MA1099901999990REMMET065METAR ENSO 101120Z 13007KT 9999 SCT003 SCT008 BKN015 04/04 Q0999=
0188010014999992014011011504+59792+005341FM-15+004999999V0201301N00411002131CN009999199+00401+00401999999ADDGA1041+000911991GA2041+002131991GA3071+008531991GE19MSL   +99999+99999GF199999041990000911991991MA1099901999990REMMET065METAR ENSO 101150Z 13008KT 9999 SCT003 SCT007 BKN028 04/04 Q0999=
0188010014999992014011012204+59792+005341FM-15+004999999V0201501N00411002131CN009999199+00401+00401999999ADDGA1041+000911991GA2041+002131991GA3071+008531991GE19MSL   +99999+99999GF199999041990000911991991MA1099901999990REMMET065METAR ENSO 101220Z 15008KT 9999 SCT003 SCT007 BKN028 04/04 Q0999=
0200010014999992014011012504+59792+005341FM-15+004999999V0201401N00411001831CN009999199+00401+00401999999ADDGA1041+000911991GA2041+001831991GA3071+008531991GE19MSL   +99999+99999GF199999041990000911991991MA1099901999990MW1801REMMET071METAR ENSO 101250Z 14008KT 9999 -SHRA SCT003 SCT006 BKN028 04/04 Q0999=
0182010014999992014011013204+59792+005341FM-15+004999999V0201501V003110018319N009999199+00401+00401999999ADDGA1041+000911991GA2071+001831991GE19MSL   +99999+99999GF199999041990000911991991MA1099901999990MW1631REMMET069METAR ENSO 101320Z 15006KT 120V250 9999 RA SCT003 BKN006 04/04 Q0999=
0212010014999992014011013504+59792+005341FM-15+004999999V0200501V00211002441CN009999199+00401+00401999999ADDGA1021+000911991GA2041+002441991GA3071+004881991GE19MSL   +99999+99999GF199999021990000911991991MA1099901999990MW1161REMMET083METAR ENSO 101350Z 05004KT 010V090 9999 VCSH FEW003 SCT008 BKN016 04/04      Q0999=
0199010014999992014011014204+59792+005341FM-15+004999999V0201401N00261002131CN009999199+00401+00401999999ADDGA1021+000911991GA2041+002131991GA3071+009141991GE19MSL   +99999+99999GF199999021990000911991991MA1099901999990MW1811REMMET070METAR ENSO 101420Z 14005KT 9999 SHRA FEW003 SCT007 BKN030 04/04 Q0999=
0210010014999992014011014504+59792+005341FM-15+004999999V0201601V00101002131CN009999199+00501+00401999999ADDGA1041+000911991GA2041+002131991GA3071+005791991GE19MSL   +99999+99999GF199999041990000911991991MA1099901999990MW1631REMMET081METAR ENSO 101450Z 16002KT 090V280 9999 RA SCT003 SCT007 BKN019 05/04      Q0999=
0184010014999992014011015204+59792+005341FM-15+004999999V0202101V001510085319N009999199+00501+00401999999ADDGA1041+003961991GA2071+008531991GE19MSL   +99999+99999GF199999041990003961991991MA1099901999990MW1161REMMET071METAR ENSO 101520Z 21003KT 160V260 9999 VCSH SCT013 BKN028 05/04 Q0999=
0188010014999992014011015504+59792+005341FM-15+004999999V0202001N00211007621CN009999199+00501+00501999999ADDGA1041+003961991GA2041+007621991GA3071+009751991GE19MSL   +99999+99999GF199999041990003961991991MA1099901999990REMMET065METAR ENSO 101550Z 20004KT 9999 SCT013 SCT025 BKN032 05/05 Q0999=
0188010014999992014011016204+59792+005341FM-15+004999999V0202201N00261006711CN009999199+00501+00501999999ADDGA1041+004571991GA2041+006711991GA3071+007921991GE19MSL   +99999+99999GF199999041990004571991991MA1099901999990REMMET065METAR ENSO 101620Z 22005KT 9999 SCT015 SCT022 BKN026 05/05 Q0999=
0200010014999992014011016504+59792+005341FM-15+004999999V0202501N00461006711CN009999199+00501+00501999999ADDGA1041+003051991GA2041+006711991GA3071+008231991GE19MSL   +99999+99999GF199999041990003051991991MA1099901999990MW1801REMMET071METAR ENSO 101650Z 25009KT 9999 -SHRA SCT010 SCT022 BKN027 05/05 Q0999=
0165010014999992014011017204+59792+005341FM-15+004999999V0202701N003110082319N009999199+00501+00501999999ADDGA1041+003051991GA2071+008231991GE19MSL   +99999+99999GF199999041990003051991991MA1099901999990REMMET058METAR ENSO 101720Z 27006KT 9999 SCT010 BKN027 05/05 Q0999=
0188010014999992014011017504+59792+005341FM-15+004999999V0202701N00571003661CN009999199+00501+00501999999ADDGA1021+002441991GA2041+003661991GA3071+004571991GE19MSL   +99999+99999GF199999021990002441991991MA1099901999990REMMET065METAR ENSO 101750Z 27011KT 9999 FEW008 SCT012 BKN015 05/05 Q0999=
0188010014999992014011018204+59792+005341FM-15+004999999V0202801N00361002131CN009999199+00501+00401999999ADDGA1041+001521991GA2041+002131991GA3071+004271991GE19MSL   +99999+99999GF199999041990001521991991MA1099901999990REMMET065METAR ENSO 101820Z 28007KT 9999 SCT005 SCT007 BKN014 05/04 Q0999=
0142010014999992014011018504+59792+005341FM-15+004999999V0202601N003110042719N009999199+00501+00401999999ADDGA1071+004271991GE19MSL   +99999+99999GF199999071990004271991991MA1099901999990REMMET051METAR ENSO 101850Z 26006KT 9999 BKN014 05/04 Q0999=
0071010014999992014011213204+59792+005341FM-15+004999999V0203301N003019999999Y999999999+00801-00201999999ADDMA1101601999990REMMET044METAR ENSO 121320Z 33003 CAVOK 08/M02 Q1016=
0071010014999992014011213504+59792+005341FM-15+004999999V0203101N002019999999Y999999999+00002-00201999999ADDMA1101601999990REMMET044METAR ENSO 121350Z 31002 CAVOK 00/M02 Q1016=
0072010014999992014011214204+59792+005341FM-15+004999999V0209999V001019999999Y999999999+00001-00201999999ADDMA1101601999990REMMET045METAR ENSO 121420Z VRB01 CAVOK M00/M02 Q1016=
0072010014999992014011214504+59792+005341FM-15+004999999V0209999V001019999999Y999999999+00001-00201999999ADDMA1101601999990REMMET045METAR ENSO 121450Z VRB01 CAVOK M00/M02 Q1016=
0072010014999992014011215204+59792+005341FM-15+004999999V0209999V002019999999Y999999999-00101-00201999999ADDMA1101601999990REMMET045METAR ENSO 121520Z VRB02 CAVOK M01/M02 Q1016=
0072010014999992014011215504+59792+005341FM-15+004999999V0200701N003019999999Y999999999+00001-00301999999ADDMA1101601999990REMMET045METAR ENSO 121550Z 07003 CAVOK M00/M03 Q1016=
0072010014999992014011216204+59792+005341FM-15+004999999V0200901N005019999999Y999999999-00101-00401999999ADDMA1101601999990REMMET045METAR ENSO 121620Z 09005 CAVOK M01/M04 Q1016=
0072010014999992014011216504+59792+005341FM-15+004999999V0200901N006019999999Y999999999-00101-00401999999ADDMA1101501999990REMMET045METAR ENSO 121650Z 09006 CAVOK M01/M04 Q1015=
0072010014999992014011217204+59792+005341FM-15+004999999V0200901N007019999999Y999999999-00101-00401999999ADDMA1101501999990REMMET045METAR ENSO 121720Z 09007 CAVOK M01/M04 Q1015=
0072010014999992014011217504+59792+005341FM-15+004999999V0201201N003019999999Y999999999-00101-00401999999ADDMA1101501999990REMMET045METAR ENSO 121750Z 12003 CAVOK M01/M04 Q1015=
0074010014999992014011218204+59792+005341FM-15+004999999V0201301N003619999999Y999999999-00101-00401999999ADDMA1101501999990REMMET047METAR ENSO 121820Z 13007KT CAVOK M01/M04 Q1015=
0074010014999992014011218504+59792+005341FM-15+004999999V0201301N004119999999Y999999999-00101-00501999999ADDMA1101501999990REMMET047METAR ENSO 121850Z 13008KT CAVOK M01/M05 Q1015=
0074010014999992014011219204+59792+005341FM-15+004999999V0201001N004119999999Y999999999-00101-00501999999ADDMA1101401999990REMMET047METAR ENSO 121920Z 10008KT CAVOK M01/M05 Q1014=
0074010014999992014011219504+59792+005341FM-15+004999999V0201401N002619999999Y999999999-00201-00501999999ADDMA1101501999990REMMET047METAR ENSO 121950Z 14005KT CAVOK M02/M05 Q1015=
0074010014999992014011220504+59792+005341FM-15+004999999V0201101N003619999999Y999999999-00201-00601999999ADDMA1101501999990REMMET047METAR ENSO 122050Z 11007KT CAVOK M02/M06 Q1015=
0074010014999992014011303504+59792+005341FM-15+004999999V0201301N001519999999Y999999999-00101-01001999999ADDMA1100901999990REMMET047METAR ENSO 130350Z 13003KT CAVOK M01/M10 Q1009=
0074010014999992014011304204+59792+005341FM-15+004999999V0201001N003619999999Y999999999-00101-01001999999ADDMA1100801999990REMMET047METAR ENSO 130420Z 10007KT CAVOK M01/M10 Q1008=
0074010014999992014011304504+59792+005341FM-15+004999999V0200901N004619999999Y999999999-00101-01001999999ADDMA1100801999990REMMET047METAR ENSO 130450Z 09009KT CAVOK M01/M10 Q1008=
0082010014999992014011305204+59792+005341FM-15+004999999V0200901V004619999999Y999999999-00101-01001999999ADDMA1100701999990REMMET055METAR ENSO 130520Z 09009KT 070V130 CAVOK M01/M10 Q1007=
0074010014999992014011305504+59792+005341FM-15+004999999V0201101N004619999999Y999999999-00101-01001999999ADDMA1100701999990REMMET047METAR ENSO 130550Z 11009KT CAVOK M01/M10 Q1007=
0074010014999992014011306204+59792+005341FM-15+004999999V0201101N005719999999Y999999999-00101-01001999999ADDMA1100701999990REMMET047METAR ENSO 130620Z 11011KT CAVOK M01/M10 Q1007=
0082010014999992014011306504+59792+005341FM-15+004999999V0201101V005719999999Y999999999+00001-01001999999ADDMA1100601999990REMMET055METAR ENSO 130650Z 11011KT 060V130 CAVOK M00/M10 Q1006=
0074010014999992014011307204+59792+005341FM-15+004999999V0201001N006719999999Y999999999-00101-01001999999ADDMA1100601999990REMMET047METAR ENSO 130720Z 10013KT CAVOK M01/M10 Q1006=
0085010014999992014011307504+59792+005341FM-15+004999999V0201001N005719999999Y999999999-00101-01001999999ADDMA1100601999990OC101081REMMET050METAR ENSO 130750Z 10011G21KT CAVOK M01/M10 Q1006=
0082010014999992014011308204+59792+005341FM-15+004999999V0201201V005119999999Y999999999+00001-01001999999ADDMA1100601999990REMMET055METAR ENSO 130820Z 12010KT 070V160 CAVOK M00/M10 Q1006=
0167010014999992014011309204+59792+005341FM-15+004999999V0201001N008210076219N009999199-00101-00901999999ADDGA1021+005491991GA2071+007621991GE19MSL   +99999+99999GF199999021990005491991991MA1100601999990REMMET060METAR ENSO 130920Z 10016KT 9999 FEW018 BKN025 M01/M09 Q1006=
0188010014999992014011309504+59792+005341FM-15+004999999V0201201N006710061019N009000199+00001-00801999999ADDGA1021+004271991GA2071+006101991GE19MSL   +99999+99999GF199999021990004271991991MA1100601999990MW1711OC101181REMMET067METAR ENSO 130950Z 12013G23KT 9000 -SN FEW014 BKN020 M00/M08 Q1006=
0224010014999992014011310504+59792+005341FM-15+004999999V0201201V00881004881CN009000199-00101-00701999999ADDGA1021+003351991GA2041+004881991GA3071+006101991GE19MSL   +99999+99999GF199999021990003351991991MA1100501999990MW1711OC101541REMMET087METAR ENSO 131050Z 12017G30KT 090V150 9000 -SN FEW011 SCT016 BKN020      M01/M07 Q1005=
0218010014999992014011311504+59792+005341FM-15+004999999V0201201N00771006101CN009999199-00101-00601999999ADDGA1021+003051991GA2041+006101991GA3071+009141991GE19MSL   +99999+99999GF199999021990003051991991MA1100501999990MW1851OC101291REMMET081METAR ENSO 131150Z 12015G25KT 9999 -SHSN FEW010 SCT020 BKN030 M01/M06      Q1005=
0216010014999992014011312504+59792+005341FM-15+004999999V0201201N01081009141CN009999199-00101-00501999999ADDGA1021+003051991GA2041+009141991GA3071+076201991GE19MSL   +99999+99999GF199999021990003051991991MA1100401999990MW1711OC101601REMMET079METAR ENSO 131250Z 12021G31KT 9999 -SN FEW010 SCT030 BKN250 M01/M05      Q1004=
0216010014999992014011313204+59792+005341FM-15+004999999V0201101N01131005491CN009999199-00101-00601999999ADDGA1021+002441991GA2041+005491991GA3071+009141991GE19MSL   +99999+99999GF199999021990002441991991MA1100301999990MW1711OC101651REMMET079METAR ENSO 131320Z 11022G32KT 9999 -SN FEW008 SCT018 BKN030 M01/M06      Q1003=
0199010014999992014011313504+59792+005341FM-15+004999999V0201101N01241004571CN006000199-00201-00601999999ADDGA1021+002441991GA2041+004571991GA3071+006101991GE19MSL   +99999+99999GF199999021990002441991991MA1100301999990MW1731REMMET070METAR ENSO 131350Z 11024KT 6000 SN FEW008 SCT015 BKN020 M02/M06 Q1003=
0215010014999992014011314204+59792+005341FM-15+004999999V0201001N01291004271CN005000199-00201-00401999999ADDGA1021+002441991GA2041+004271991GA3071+006101991GE19MSL   +99999+99999GF199999021990002441991991MA1100301999990MW1731OC101801REMMET078METAR ENSO 131420Z 10025G35KT 5000 SN FEW008 SCT014 BKN020 M02/M04      Q1003=
0215010014999992014011315204+59792+005341FM-15+004999999V0201101N01031003661CN005000199-00201-00501999999ADDGA1021+002441991GA2041+003661991GA3071+005491991GE19MSL   +99999+99999GF199999021990002441991991MA1100201999990MW1731OC101751REMMET078METAR ENSO 131520Z 11020G34KT 5000 SN FEW008 SCT012 BKN018 M02/M05      Q1002=
0187010014999992014011315504+59792+005341FM-15+004999999V0201101N011310045719N004000199-00201-00501999999ADDGA1021+002441991GA2071+004571991GE19MSL   +99999+99999GF199999021990002441991991MA1100301999990MW1731OC101651REMMET066METAR ENSO 131550Z 11022G32KT 4000 SN FEW008 BKN015 M02/M05 Q1003=
0187010014999992014011316204+59792+005341FM-15+004999999V0201101N010810045719N004000199-00201-00401999999ADDGA1021+002441991GA2071+004571991GE19MSL   +99999+99999GF199999021990002441991991MA1100301999990MW1731OC101601REMMET066METAR ENSO 131620Z 11021G31KT 4000 SN FEW008 BKN015 M02/M04 Q1003=
0187010014999992014011316504+59792+005341FM-15+004999999V0201101N010810045719N004000199-00201-00401999999ADDGA1021+002441991GA2071+004571991GE19MSL   +99999+99999GF199999021990002441991991MA1100301999990MW1731OC101601REMMET066METAR ENSO 131650Z 11021G31KT 4000 SN FEW008 BKN015 M02/M04 Q1003=
0187010014999992014011317204+59792+005341FM-15+004999999V0201101N010310045719N004000199-00201-00401999999ADDGA1021+002441991GA2071+004571991GE19MSL   +99999+99999GF199999021990002441991991MA1100301999990MW1731OC101601REMMET066METAR ENSO 131720Z 11020G31KT 4000 SN FEW008 BKN015 M02/M04 Q1003=
0163010014999992014011318204+59792+005341FM-15+004999999V0201101N01081003051WN002000199-00201-00301999999ADDGA1091+003051991GE19MSL   +99999+99999GF109991091990003051991991MA1100301999990MW1731OC101601REMMET058METAR ENSO 131820Z 11021G31KT 2000 SN VV010 M02/M03 Q1003=
0163010014999992014011318504+59792+005341FM-15+004999999V0201101N00981003051WN001500199-00201-00301999999ADDGA1091+003051991GE19MSL   +99999+99999GF109991091990003051991991MA1100301999990MW1731OC101491REMMET058METAR ENSO 131850Z 11019G29KT 1500 SN VV010 M02/M03 Q1003=
0177010014999992014011404504+59792+005341FM-15+004999999V0201101N007210198119N009999199+00001-00401999999ADDGA1041+009141991GA2071+019811991GE19MSL   +99999+99999GF199999041990009141991991MA1100601999990OC101241REMMET062METAR ENSO 140450Z 11014G24KT 9999 SCT030 BKN065 00/M04 Q1006=
0189010014999992014011406204+59792+005341FM-15+004999999V0201001N00721012191CN009999199+00001-00401999999ADDGA1021+008531991GA2041+012191991GA3071+018291991GE19MSL   +99999+99999GF199999021990008531991991MA1100701999990REMMET066METAR ENSO 140620Z 10014KT 9999 FEW028 SCT040 BKN060 00/M04 Q1007=
0189010014999992014011406504+59792+005341FM-15+004999999V0201101N00571013721CN009999199+00101-00401999999ADDGA1021+008531991GA2041+013721991GA3071+021341991GE19MSL   +99999+99999GF199999021990008531991991MA1100701999990REMMET066METAR ENSO 140650Z 11011KT 9999 FEW028 SCT045 BKN070 01/M04 Q1007=
0189010014999992014011407204+59792+005341FM-15+004999999V0201101N00721013721CN009999199+00101-00401999999ADDGA1021+009141991GA2041+013721991GA3071+021341991GE19MSL   +99999+99999GF199999021990009141991991MA1100701999990REMMET066METAR ENSO 140720Z 11014KT 9999 FEW030 SCT045 BKN070 01/M04 Q1007=
0166010014999992014011408204+59792+005341FM-15+004999999V0201001N003610213419N009999199+00101-00401999999ADDGA1021+009141991GA2071+021341991GE19MSL   +99999+99999GF199999021990009141991991MA1100801999990REMMET059METAR ENSO 140820Z 10007KT 9999 FEW030 BKN070 01/M04 Q1008=
0185010014999992014011408504+59792+005341FM-15+004999999V0200901V004110213419N009999199+00101-00401999999ADDGA1021+012191991GA2071+021341991GE19MSL   +99999+99999GF199999021990012191991991MA1100801999990OC100931REMMET070METAR ENSO 140850Z 09008G18KT 010V170 9999 FEW040 BKN070 01/M04 Q1008=
0166010014999992014011409204+59792+005341FM-15+004999999V0201001N00461021341CN009999199+00101-00501999999ADDGA1021+012191991GA2041+021341991GE19MSL   +99999+99999GF199999021990012191991991MA1100801999990REMMET059METAR ENSO 140920Z 10009KT 9999 FEW040 SCT070 01/M05 Q1008=
0143010014999992014011409504+59792+005341FM-15+004999999V0200901N004619999999N009999199+00201-00501999999ADDGA1041+019811991GE19MSL   +99999+99999GF199999041990019811991991MA1100801999990REMMET052METAR ENSO 140950Z 09009KT 9999 SCT065 02/M05 Q1008=
0143010014999992014011410204+59792+005341FM-15+004999999V0200901N005119999999N009999199+00201-00501999999ADDGA1041+019811991GE19MSL   +99999+99999GF199999041990019811991991MA1100801999990REMMET052METAR ENSO 141020Z 09010KT 9999 SCT065 02/M05 Q1008=
0154010014999992014011410504+59792+005341FM-15+004999999V0200901N005119999999N009999199+00201-00501999999ADDGA1041+019811991GE19MSL   +99999+99999GF199999041990019811991991MA1100801999990OC101081REMMET055METAR ENSO 141050Z 09010G21KT 9999 SCT065 02/M05 Q1008=
0143010014999992014011411204+59792+005341FM-15+004999999V0200901N005119999999N009999199+00201-00501999999ADDGA1041+019811991GE19MSL   +99999+99999GF199999041990019811991991MA1100801999990REMMET052METAR ENSO 141120Z 09010KT 9999 SCT065 02/M05 Q1008=
0073010014999992014011411504+59792+005341FM-15+004999999V0200901N005719999999Y999999999+00201-00501999999ADDMA1100801999990REMMET046METAR ENSO 141150Z 09011KT CAVOK 02/M05 Q1008=
0073010014999992014011412204+59792+005341FM-15+004999999V0200901N006219999999Y999999999+00301-00501999999ADDMA1100801999990REMMET046METAR ENSO 141220Z 09012KT CAVOK 03/M05 Q1008=
0081010014999992014011412504+59792+005341FM-15+004999999V0200901V005119999999Y999999999+00201-00501999999ADDMA1100801999990REMMET054METAR ENSO 141250Z 09010KT 060V120 CAVOK 02/M05 Q1008=
0073010014999992014011413504+59792+005341FM-15+004999999V0200901N007219999999Y999999999+00201-00501999999ADDMA1100801999990REMMET046METAR ENSO 141350Z 09014KT CAVOK 02/M05 Q1008=
0073010014999992014011414204+59792+005341FM-15+004999999V0201001N006219999999Y999999999+00201-00601999999ADDMA1100801999990REMMET046METAR ENSO 141420Z 10012KT CAVOK 02/M06 Q1008=
0073010014999992014011414504+59792+005341FM-15+004999999V0201001N005119999999Y999999999+00301-00601999999ADDMA1100801999990REMMET046METAR ENSO 141450Z 10010KT CAVOK 03/M06 Q1008=
0073010014999992014011415204+59792+005341FM-15+004999999V0201001N005719999999Y999999999+00201-00601999999ADDMA1100901999990REMMET046METAR ENSO 141520Z 10011KT CAVOK 02/M06 Q1009=
0073010014999992014011415504+59792+005341FM-15+004999999V0201001N006719999999Y999999999+00201-00601999999ADDMA1100901999990REMMET046METAR ENSO 141550Z 10013KT CAVOK 02/M06 Q1009=
0073010014999992014011416204+59792+005341FM-15+004999999V0200901N006219999999Y999999999+00201-00601999999ADDMA1100801999990REMMET046METAR ENSO 141620Z 09012KT CAVOK 02/M06 Q1008=
0073010014999992014011417204+59792+005341FM-15+004999999V0201001N005119999999Y999999999+00201-00601999999ADDMA1100901999990REMMET046METAR ENSO 141720Z 10010KT CAVOK 02/M06 Q1009=
0073010014999992014011417504+59792+005341FM-15+004999999V0201001N006219999999Y999999999+00201-00601999999ADDMA1100901999990REMMET046METAR ENSO 141750Z 10012KT CAVOK 02/M06 Q1009=
0084010014999992014011504504+59792+005341FM-15+004999999V0201101N005719999999Y999999999+00201-00601999999ADDMA1100601999990OC101081REMMET049METAR ENSO 150450Z 11011G21KT CAVOK 02/M06 Q1006=
0084010014999992014011505204+59792+005341FM-15+004999999V0201101N005719999999Y999999999+00201-00601999999ADDMA1100601999990OC101181REMMET049METAR ENSO 150520Z 11011G23KT CAVOK 02/M06 Q1006=
0084010014999992014011505504+59792+005341FM-15+004999999V0201101N006219999999Y999999999+00201-00601999999ADDMA1100601999990OC101131REMMET049METAR ENSO 150550Z 11012G22KT CAVOK 02/M06 Q1006=
0073010014999992014011506204+59792+005341FM-15+004999999V0201101N005119999999Y999999999+00201-00601999999ADDMA1100601999990REMMET046METAR ENSO 150620Z 11010KT CAVOK 02/M06 Q1006=
0073010014999992014011507204+59792+005341FM-15+004999999V0201001N006219999999Y999999999+00201-00601999999ADDMA1100601999990REMMET046METAR ENSO 150720Z 10012KT CAVOK 02/M06 Q1006=
0143010014999992014011508204+59792+005341FM-15+004999999V0201001N006219999999N009999199+00201-00501999999ADDGA1041+015241991GE19MSL   +99999+99999GF199999041990015241991991MA1100601999990REMMET052METAR ENSO 150820Z 10012KT 9999 SCT050 02/M05 Q1006=
0143010014999992014011508504+59792+005341FM-15+004999999V0201001N005719999999N009999199+00301-00501999999ADDGA1041+015241991GE19MSL   +99999+99999GF199999041990015241991991MA1100601999990REMMET052METAR ENSO 150850Z 10011KT 9999 SCT050 03/M05 Q1006=
0143010014999992014011509204+59792+005341FM-15+004999999V0201001N008819999999N009999199+00301-00501999999ADDGA1041+015241991GE19MSL   +99999+99999GF199999041990015241991991MA1100601999990REMMET052METAR ENSO 150920Z 10017KT 9999 SCT050 03/M05 Q1006=
0084010014999992014011510204+59792+005341FM-15+004999999V0201101N007719999999Y999999999+00301-00501999999ADDMA1100601999990OC101291REMMET049METAR ENSO 151020Z 11015G25KT CAVOK 03/M05 Q1006=
0073010014999992014011511204+59792+005341FM-15+004999999V0201001N008219999999Y999999999+00301-00501999999ADDMA1100601999990REMMET046METAR ENSO 151120Z 10016KT CAVOK 03/M05 Q1006=
0084010014999992014011511504+59792+005341FM-15+004999999V0201001N005719999999Y999999999+00301-00501999999ADDMA1100601999990OC101081REMMET049METAR ENSO 151150Z 10011G21KT CAVOK 03/M05 Q1006=
0073010014999992014011512204+59792+005341FM-15+004999999V0201001N006719999999Y999999999+00301-00501999999ADDMA1100501999990REMMET046METAR ENSO 151220Z 10013KT CAVOK 03/M05 Q1005=
0177010014999992014011512504+59792+005341FM-15+004999999V0200901N00571021341CN009999199+00401-00501999999ADDGA1041+013721991GA2041+021341991GE19MSL   +99999+99999GF199999041990013721991991MA1100501999990OC101131REMMET062METAR ENSO 151250Z 09011G22KT 9999 SCT045 SCT070 04/M05 Q1005=
0177010014999992014011513204+59792+005341FM-15+004999999V0201001N00621021341CN009999199+00401-00401999999ADDGA1041+015241991GA2041+021341991GE19MSL   +99999+99999GF199999041990015241991991MA1100501999990OC101131REMMET062METAR ENSO 151320Z 10012G22KT 9999 SCT050 SCT070 04/M04 Q1005=
0143010014999992014011513504+59792+005341FM-15+004999999V0201001N006210152419N009999199+00401-00401999999ADDGA1071+015241991GE19MSL   +99999+99999GF199999071990015241991991MA1100501999990REMMET052METAR ENSO 151350Z 10012KT 9999 BKN050 04/M04 Q1005=
0073010014999992014011514204+59792+005341FM-15+004999999V0201001N007219999999Y999999999+00401-00401999999ADDMA1100501999990REMMET046METAR ENSO 151420Z 10014KT CAVOK 04/M04 Q1005=
0166010014999992014011514504+59792+005341FM-15+004999999V0201001N00721019811CN009999199+00401-00401999999ADDGA1041+014331991GA2041+019811991GE19MSL   +99999+99999GF199999041990014331991991MA1100401999990REMMET059METAR ENSO 151450Z 10014KT 9999 SCT047 SCT065 04/M04 Q1004=
0166010014999992014011515204+59792+005341FM-15+004999999V0201001N00771019201CN009999199+00401-00401999999ADDGA1041+014331991GA2041+019201991GE19MSL   +99999+99999GF199999041990014331991991MA1100401999990REMMET059METAR ENSO 151520Z 10015KT 9999 SCT047 SCT063 04/M04 Q1004=
0143010014999992014011515504+59792+005341FM-15+004999999V0201001N007219999999N009999199+00401-00401999999ADDGA1041+014021991GE19MSL   +99999+99999GF199999041990014021991991MA1100401999990REMMET052METAR ENSO 151550Z 10014KT 9999 SCT046 04/M04 Q1004=
0143010014999992014011516204+59792+005341FM-15+004999999V0201001N006719999999N009999199+00401-00401999999ADDGA1041+014021991GE19MSL   +99999+99999GF199999041990014021991991MA1100401999990REMMET052METAR ENSO 151620Z 10013KT 9999 SCT046 04/M04 Q1004=
0143010014999992014011516504+59792+005341FM-15+004999999V0201001N007719999999N009999199+00401-00401999999ADDGA1041+017981991GE19MSL   +99999+99999GF199999041990017981991991MA1100401999990REMMET052METAR ENSO 151650Z 10015KT 9999 SCT059 04/M04 Q1004=
0143010014999992014011517204+59792+005341FM-15+004999999V0201001N007719999999N009999199+00401-00301999999ADDGA1041+017371991GE19MSL   +99999+99999GF199999041990017371991991MA1100401999990REMMET052METAR ENSO 151720Z 10015KT 9999 SCT057 04/M03 Q1004=
0143010014999992014011518204+59792+005341FM-15+004999999V0201201N007719999999N009999199+00401-00301999999ADDGA1021+014021991GE19MSL   +99999+99999GF199999021990014021991991MA1100401999990REMMET052METAR ENSO 151820Z 12015KT 9999 FEW046 04/M03 Q1004=
0084010014999992014011604504+59792+005341FM-15+004999999V0201201N010319999999Y999999999+00401-00501999999ADDMA1100101999990OC101541REMMET049METAR ENSO 160450Z 12020G30KT CAVOK 04/M05 Q1001=
0084010014999992014011605204+59792+005341FM-15+004999999V0201301N010319999999Y999999999+00401-00501999999ADDMA1100101999990OC101651REMMET049METAR ENSO 160520Z 13020G32KT CAVOK 04/M05 Q1001=
0084010014999992014011605504+59792+005341FM-15+004999999V0201301N010319999999Y999999999+00401-00501999999ADDMA1100101999990OC101541REMMET049METAR ENSO 160550Z 13020G30KT CAVOK 04/M05 Q1001=
0073010014999992014011606204+59792+005341FM-15+004999999V0201201N009319999999Y999999999+00401-00501999999ADDMA1100101999990REMMET046METAR ENSO 160620Z 12018KT CAVOK 04/M05 Q1001=
0084010014999992014011606504+59792+005341FM-15+004999999V0201201N008219999999Y999999999+00401-00501999999ADDMA1100101999990OC101341REMMET049METAR ENSO 160650Z 12016G26KT CAVOK 04/M05 Q1001=
0084010014999992014011607204+59792+005341FM-15+004999999V0201301N010319999999Y999999999+00401-00501999999ADDMA1100101999990OC101541REMMET049METAR ENSO 160720Z 13020G30KT CAVOK 04/M05 Q1001=
0084010014999992014011607504+59792+005341FM-15+004999999V0201201N010319999999Y999999999+00401-00501999999ADDMA1100101999990OC101541REMMET049METAR ENSO 160750Z 12020G30KT CAVOK 04/M05 Q1001=
0095010014999992014011608204+59792+005341FM-15+004999999V0201201N008819999999Y999999999+00401-00501999999ADDMA1100101999990MW1161OC101651REMMET054METAR ENSO 160820Z 12017G32KT CAVOK VCSH 04/M05 Q1001=
0084010014999992014011608504+59792+005341FM-15+004999999V0201201N011319999999Y999999999+00401-00601999999ADDMA1100101999990OC101651REMMET049METAR ENSO 160850Z 12022G32KT CAVOK 04/M06 Q1001=
0073010014999992014011609204+59792+005341FM-15+004999999V0201301N009319999999Y999999999+00401-00601999999ADDMA1100101999990REMMET046METAR ENSO 160920Z 13018KT CAVOK 04/M06 Q1001=
0073010014999992014011609504+59792+005341FM-15+004999999V0201201N008819999999Y999999999+00401-00601999999ADDMA1100001999990REMMET046METAR ENSO 160950Z 12017KT CAVOK 04/M06 Q1000=
0084010014999992014011610204+59792+005341FM-15+004999999V0201301N010319999999Y999999999+00401-00601999999ADDMA1100101999990OC101541REMMET049METAR ENSO 161020Z 13020G30KT CAVOK 04/M06 Q1001=
0084010014999992014011610504+59792+005341FM-15+004999999V0201301N009319999999Y999999999+00401-00601999999ADDMA1100101999990OC101491REMMET049METAR ENSO 161050Z 13018G29KT CAVOK 04/M06 Q1001=
0084010014999992014011611204+59792+005341FM-15+004999999V0201301N009819999999Y999999999+00401-00601999999ADDMA1100001999990OC101491REMMET049METAR ENSO 161120Z 13019G29KT CAVOK 04/M06 Q1000=
0084010014999992014011611504+59792+005341FM-15+004999999V0201101N009819999999Y999999999+00401-00601999999ADDMA1100001999990OC101541REMMET049METAR ENSO 161150Z 11019G30KT CAVOK 04/M06 Q1000=
0084010014999992014011612204+59792+005341FM-15+004999999V0201201N011819999999Y999999999+00401-00601999999ADDMA1099901999990OC101801REMMET049METAR ENSO 161220Z 12023G35KT CAVOK 04/M06 Q0999=
0177010014999992014011613204+59792+005341FM-15+004999999V0201201N01131022861CN009999199+00501-00601999999ADDGA1021+009141991GA2041+022861991GE19MSL   +99999+99999GF199999021990009141991991MA1099901999990OC101751REMMET062METAR ENSO 161320Z 12022G34KT 9999 FEW030 SCT075 05/M06 Q0999=
0177010014999992014011613504+59792+005341FM-15+004999999V0201201N00981022861CN009999199+00401-00601999999ADDGA1021+012191991GA2041+022861991GE19MSL   +99999+99999GF199999021990012191991991MA1100001999990OC101541REMMET062METAR ENSO 161350Z 12019G30KT 9999 FEW040 SCT075 04/M06 Q1000=
0177010014999992014011614204+59792+005341FM-15+004999999V0201201N01081022861CN009999199+00401-00601999999ADDGA1021+013721991GA2041+022861991GE19MSL   +99999+99999GF199999021990013721991991MA1099901999990OC101601REMMET062METAR ENSO 161420Z 12021G31KT 9999 FEW045 SCT075 04/M06 Q0999=
0084010014999992014011614504+59792+005341FM-15+004999999V0201201N010319999999Y999999999+00401-00601999999ADDMA1099901999990OC101541REMMET049METAR ENSO 161450Z 12020G30KT CAVOK 04/M06 Q0999=
0084010014999992014011615204+59792+005341FM-15+004999999V0201201N012419999999Y999999999+00401-00601999999ADDMA1099901999990OC101851REMMET049METAR ENSO 161520Z 12024G36KT CAVOK 04/M06 Q0999=
0084010014999992014011615504+59792+005341FM-15+004999999V0201201N009819999999Y999999999+00401-00601999999ADDMA1099901999990OC101601REMMET049METAR ENSO 161550Z 12019G31KT CAVOK 04/M06 Q0999=
0125010014999992014011616504+59792+005341FM-15+004999999V0201101N010812200019N009999199+00301-00501999999ADDGF100991999999999999999999MA1099901999990MW1851OC101601REMMET058METAR ENSO 161650Z 11021G31KT 9999 -SHSN NSC 03/M05 Q0999=
0187010014999992014011617204+59792+005341FM-15+004999999V0201101N01181010671CN009999199+00301-00501999999ADDGA1021+003051991GA2041+010671991GE19MSL   +99999+99999GF199999021990003051991991MA1099901999990MW1711OC101851REMMET066METAR ENSO 161720Z 11023G36KT 9999 -SN FEW010 SCT035 03/M05 Q0999=
0187010014999992014011617504+59792+005341FM-15+004999999V0201101N01131010671CN009999199+00301-00601999999ADDGA1021+003051991GA2041+010671991GE19MSL   +99999+99999GF199999021990003051991991MA1099901999990MW1711OC101651REMMET066METAR ENSO 161750Z 11022G32KT 9999 -SN FEW010 SCT035 03/M06 Q0999=
0164010014999992014011618204+59792+005341FM-15+004999999V0201201N008810073219N009999199+00301-00501999999ADDGA1071+007321991GE19MSL   +99999+99999GF199999071990007321991991MA1100001999990MW1711OC101541REMMET059METAR ENSO 161820Z 12017G30KT 9999 -SN BKN024 03/M05 Q1000=
0164010014999992014011618504+59792+005341FM-15+004999999V0201201N011819999999N009999199+00301-00501999999ADDGA1041+007921991GE19MSL   +99999+99999GF199999041990007921991991MA1099901999990MW1711OC101701REMMET059METAR ENSO 161850Z 12023G33KT 9999 -SN SCT026 03/M05 Q0999=
0164010014999992014011619204+59792+005341FM-15+004999999V0201101N010319999999N009999199+00301-00501999999ADDGA1021+002441991GE19MSL   +99999+99999GF199999021990002441991991MA1099901999990MW1711OC101541REMMET059METAR ENSO 161920Z 11020G30KT 9999 -SN FEW008 03/M05 Q0999=
0084010014999992014011707504+59792+005341FM-15+004999999V0201101N009819999999Y999999999+00201-00801999999ADDMA1100001999990OC101751REMMET049METAR ENSO 170750Z 11019G34KT CAVOK 02/M08 Q1000=
0084010014999992014011708204+59792+005341FM-15+004999999V0201101N012419999999Y999999999+00201-00801999999ADDMA1100001999990OC101801REMMET049METAR ENSO 170820Z 11024G35KT CAVOK 02/M08 Q1000=
0084010014999992014011708504+59792+005341FM-15+004999999V0201101N010819999999Y999999999+00201-00801999999ADDMA1100101999990OC101601REMMET049METAR ENSO 170850Z 11021G31KT CAVOK 02/M08 Q1001=
0084010014999992014011709504+59792+005341FM-15+004999999V0201201N011819999999Y999999999+00201-00801999999ADDMA1100101999990OC101701REMMET049METAR ENSO 170950Z 12023G33KT CAVOK 02/M08 Q1001=
0084010014999992014011710204+59792+005341FM-15+004999999V0201201N010319999999Y999999999+00201-00901999999ADDMA1100101999990OC101601REMMET049METAR ENSO 171020Z 12020G31KT CAVOK 02/M09 Q1001=
0084010014999992014011710504+59792+005341FM-15+004999999V0201101N012419999999Y999999999+00201-00801999999ADDMA1100001999990OC101851REMMET049METAR ENSO 171050Z 11024G36KT CAVOK 02/M08 Q1000=
0084010014999992014011711204+59792+005341FM-15+004999999V0201101N013419999999Y999999999+00201-00901999999ADDMA1100001999990OC101901REMMET049METAR ENSO 171120Z 11026G37KT CAVOK 02/M09 Q1000=
0073010014999992014011711504+59792+005341FM-15+004999999V0201101N013419999999Y999999999+00201-00901999999ADDMA1099901999990REMMET046METAR ENSO 171150Z 11026KT CAVOK 02/M09 Q0999=
0177010014999992014011712204+59792+005341FM-15+004999999V0201101N013910182919N009999199+00201-00901999999ADDGA1021+010671991GA2071+018291991GE19MSL   +99999+99999GF199999021990010671991991MA1099901999990OC101961REMMET062METAR ENSO 171220Z 11027G38KT 9999 FEW035 BKN060 02/M09 Q0999=
0177010014999992014011712504+59792+005341FM-15+004999999V0201101N012910213419N009999199+00201-00901999999ADDGA1021+012191991GA2071+021341991GE19MSL   +99999+99999GF199999021990012191991991MA1100001999990OC101851REMMET062METAR ENSO 171250Z 11025G36KT 9999 FEW040 BKN070 02/M09 Q1000=
0166010014999992014011713204+59792+005341FM-15+004999999V0201101N01181021341CN009999199+00201-00901999999ADDGA1021+012191991GA2041+021341991GE19MSL   +99999+99999GF199999021990012191991991MA1100001999990REMMET059METAR ENSO 171320Z 11023KT 9999 FEW040 SCT070 02/M09 Q1000=
0084010014999992014011713504+59792+005341FM-15+004999999V0201101N011819999999Y999999999+00201-00901999999ADDMA1099901999990OC101801REMMET049METAR ENSO 171350Z 11023G35KT CAVOK 02/M09 Q0999=
0084010014999992014011714204+59792+005341FM-15+004999999V0201101N011319999999Y999999999+00201-00901999999ADDMA1099901999990OC101801REMMET049METAR ENSO 171420Z 11022G35KT CAVOK 02/M09 Q0999=
0084010014999992014011714504+59792+005341FM-15+004999999V0201101N013419999999Y999999999+00201-00901999999ADDMA1099901999990OC102111REMMET049METAR ENSO 171450Z 11026G41KT CAVOK 02/M09 Q0999=
0084010014999992014011715204+59792+005341FM-15+004999999V0201101N013419999999Y999999999+00201-00901999999ADDMA1099901999990OC102011REMMET049METAR ENSO 171520Z 11026G39KT CAVOK 02/M09 Q0999=
0084010014999992014011715504+59792+005341FM-15+004999999V0201101N012919999999Y999999999+00201-00901999999ADDMA1099901999990OC101901REMMET049METAR ENSO 171550Z 11025G37KT CAVOK 02/M09 Q0999=
0084010014999992014011716204+59792+005341FM-15+004999999V0201101N012919999999Y999999999+00201-00901999999ADDMA1099901999990OC101851REMMET049METAR ENSO 171620Z 11025G36KT CAVOK 02/M09 Q0999=
0084010014999992014011716504+59792+005341FM-15+004999999V0201101N012419999999Y999999999+00201-00901999999ADDMA1099901999990OC101851REMMET049METAR ENSO 171650Z 11024G36KT CAVOK 02/M09 Q0999=
0084010014999992014011717204+59792+005341FM-15+004999999V0201101N013419999999Y999999999+00201-00901999999ADDMA1099901999990OC102011REMMET049METAR ENSO 171720Z 11026G39KT CAVOK 02/M09 Q0999=
0073010014999992014011717504+59792+005341FM-15+004999999V0201101N012419999999Y999999999+00201-00901999999ADDMA1099901999990REMMET046METAR ENSO 171750Z 11024KT CAVOK 02/M09 Q0999=
0084010014999992014011718204+59792+005341FM-15+004999999V0201101N012919999999Y999999999+00201-00901999999ADDMA1100001999990OC101961REMMET049METAR ENSO 171820Z 11025G38KT CAVOK 02/M09 Q1000=
0122010014999992014011718504+59792+005341FM-15+004999999V0201101N012419999999N009999199+00201-00901999999ADDMA1100101999990OC101801REMMET068METAR ENSO 171850Z 11024G35KT 9999 -SHSG SCT025 BKN070 02/M09 Q1001=EQDD01      0ADE693
0073010014999992014011912504+59792+005341FM-15+004999999V0201201N011819999999Y999999999+00401-00601999999ADDMA1101001999990REMMET046METAR ENSO 191250Z 12023KT CAVOK 04/M06 Q1010=
0084010014999992014011913204+59792+005341FM-15+004999999V0201201N011319999999Y999999999+00401-00601999999ADDMA1101001999990OC101701REMMET049METAR ENSO 191320Z 12022G33KT CAVOK 04/M06 Q1010=
0084010014999992014011913504+59792+005341FM-15+004999999V0201201N010819999999Y999999999+00401-00601999999ADDMA1101001999990OC101651REMMET049METAR ENSO 191350Z 12021G32KT CAVOK 04/M06 Q1010=
0084010014999992014011914504+59792+005341FM-15+004999999V0201201N010819999999Y999999999+00401-00701999999ADDMA1101001999990OC101701REMMET049METAR ENSO 191450Z 12021G33KT CAVOK 04/M07 Q1010=
0073010014999992014011915204+59792+005341FM-15+004999999V0201201N010319999999Y999999999+00401-00701999999ADDMA1101001999990REMMET046METAR ENSO 191520Z 12020KT CAVOK 04/M07 Q1010=
0073010014999992014011916204+59792+005341FM-15+004999999V0201201N012919999999Y999999999+00401-00801999999ADDMA1101001999990REMMET046METAR ENSO 191620Z 12025KT CAVOK 04/M08 Q1010=
0084010014999992014011916504+59792+005341FM-15+004999999V0201201N009819999999Y999999999+00401-00801999999ADDMA1101101999990OC101601REMMET049METAR ENSO 191650Z 12019G31KT CAVOK 04/M08 Q1011=
0084010014999992014011917504+59792+005341FM-15+004999999V0201201N010819999999Y999999999+00401-00901999999ADDMA1101101999990OC101701REMMET049METAR ENSO 191750Z 12021G33KT CAVOK 04/M09 Q1011=
0084010014999992014011918204+59792+005341FM-15+004999999V0201201N009319999999Y999999999+00301-01001999999ADDMA1101101999990OC101541REMMET049METAR ENSO 191820Z 12018G30KT CAVOK 03/M10 Q1011=
0073010014999992014011918504+59792+005341FM-15+004999999V0201201N009319999999Y999999999+00301-00901999999ADDMA1101101999990REMMET046METAR ENSO 191850Z 12018KT CAVOK 03/M09 Q1011=
0092010014999992014011919204+59792+005341FM-15+004999999V0201201V008819999999Y999999999+00301-00901999999ADDMA1101101999990OC101541REMMET057METAR ENSO 191920Z 12017G30KT 090V170 CAVOK 03/M09 Q1011=
0081010014999992014011919504+59792+005341FM-15+004999999V0201201V009319999999Y999999999+00401-00901999999ADDMA1101101999990REMMET054METAR ENSO 191950Z 12018KT 090V160 CAVOK 04/M09 Q1011=
0073010014999992014011920204+59792+005341FM-15+004999999V0201201N008819999999Y999999999+00401-00901999999ADDMA1101101999990REMMET046METAR ENSO 192020Z 12017KT CAVOK 04/M09 Q1011=
0084010014999992014011920504+59792+005341FM-15+004999999V0201201N008819999999Y999999999+00401-00901999999ADDMA1101101999990OC101441REMMET049METAR ENSO 192050Z 12017G28KT CAVOK 04/M09 Q1011=
0084010014999992014012003504+59792+005341FM-15+004999999V0201201N009819999999Y999999999+00301-00901999999ADDMA1101201999990OC101491REMMET049METAR ENSO 200350Z 12019G29KT CAVOK 03/M09 Q1012=
0084010014999992014012004204+59792+005341FM-15+004999999V0201201N009319999999Y999999999+00301-00801999999ADDMA1101101999990OC101441REMMET049METAR ENSO 200420Z 12018G28KT CAVOK 03/M08 Q1011=
0081010014999992014012004504+59792+005341FM-15+004999999V0201201V007219999999Y999999999+00301-00801999999ADDMA1101101999990REMMET054METAR ENSO 200450Z 12014KT 090V160 CAVOK 03/M08 Q1011=
0073010014999992014012005204+59792+005341FM-15+004999999V0201101N006719999999Y999999999+00301-00701999999ADDMA1101201999990REMMET046METAR ENSO 200520Z 11013KT CAVOK 03/M07 Q1012=
0081010014999992014012005504+59792+005341FM-15+004999999V0201101V008819999999Y999999999+00301-00801999999ADDMA1101201999990REMMET054METAR ENSO 200550Z 11017KT 090V150 CAVOK 03/M08 Q1012=
0081010014999992014012006204+59792+005341FM-15+004999999V0201101V008819999999Y999999999+00401-00901999999ADDMA1101201999990REMMET054METAR ENSO 200620Z 11017KT 090V150 CAVOK 04/M09 Q1012=
0081010014999992014012006504+59792+005341FM-15+004999999V0201201V009319999999Y999999999+00401-00901999999ADDMA1101201999990REMMET054METAR ENSO 200650Z 12018KT 090V150 CAVOK 04/M09 Q1012=
0081010014999992014012007204+59792+005341FM-15+004999999V0201201V007219999999Y999999999+00401-00901999999ADDMA1101301999990REMMET054METAR ENSO 200720Z 12014KT 090V170 CAVOK 04/M09 Q1013=
0202010014999992014012007504+59792+005341FM-15+004999999V0201301V00721021341CN009999199+00401-01001999999ADDGA1021+009141991GA2041+021341991GA3071+033531991GE19MSL   +99999+99999GF199999021990009141991991MA1101301999990REMMET079METAR ENSO 200750Z 13014KT 090V160 9999 FEW030 SCT070 BKN110 04/M10      Q1013=
0189010014999992014012008204+59792+005341FM-15+004999999V0201201N00931015241CN009999199+00401-01001999999ADDGA1021+009141991GA2041+015241991GA3071+033531991GE19MSL   +99999+99999GF199999021990009141991991MA1101401999990REMMET066METAR ENSO 200820Z 12018KT 9999 FEW030 SCT050 BKN110 04/M10 Q1014=
0166010014999992014012008504+59792+005341FM-15+004999999V0201201N006210152419N009999199+00401-01001999999ADDGA1021+009141991GA2071+015241991GE19MSL   +99999+99999GF199999021990009141991991MA1101401999990REMMET059METAR ENSO 200850Z 12012KT 9999 FEW030 BKN050 04/M10 Q1014=
0174010014999992014012009204+59792+005341FM-15+004999999V0201301V006710152419N009999199+00401-01001999999ADDGA1021+009141991GA2071+015241991GE19MSL   +99999+99999GF199999021990009141991991MA1101401999990REMMET067METAR ENSO 200920Z 13013KT 090V150 9999 FEW030 BKN050 04/M10 Q1014=
0166010014999992014012009504+59792+005341FM-15+004999999V0201401N005710152419N009999199+00301-00901999999ADDGA1021+009141991GA2071+015241991GE19MSL   +99999+99999GF199999021990009141991991MA1101501999990REMMET059METAR ENSO 200950Z 14011KT 9999 FEW030 BKN050 03/M09 Q1015=
0174010014999992014012010204+59792+005341FM-15+004999999V0201301V005110152419N009999199+00301-01001999999ADDGA1021+009141991GA2071+015241991GE19MSL   +99999+99999GF199999021990009141991991MA1101501999990REMMET067METAR ENSO 201020Z 13010KT 090V150 9999 FEW030 BKN050 03/M10 Q1015=
0166010014999992014012010504+59792+005341FM-15+004999999V0201301N006710152419N009999199+00301-01001999999ADDGA1021+009141991GA2071+015241991GE19MSL   +99999+99999GF199999021990009141991991MA1101501999990REMMET059METAR ENSO 201050Z 13013KT 9999 FEW030 BKN050 03/M10 Q1015=
0189010014999992014012011204+59792+005341FM-15+004999999V0201301N00671015241CN009999199+00401-01101999999ADDGA1021+009141991GA2041+015241991GA3071+027431991GE19MSL   +99999+99999GF199999021990009141991991MA1101501999990REMMET066METAR ENSO 201120Z 13013KT 9999 FEW030 SCT050 BKN090 04/M11 Q1015=
0073010014999992014012011504+59792+005341FM-15+004999999V0201201N006719999999Y999999999+00301-01101999999ADDMA1101501999990REMMET046METAR ENSO 201150Z 12013KT CAVOK 03/M11 Q1015=
0166010014999992014012012204+59792+005341FM-15+004999999V0201101N006210228619N009999199+00301-01101999999ADDGA1041+013111991GA2071+022861991GE19MSL   +99999+99999GF199999041990013111991991MA1101501999990REMMET059METAR ENSO 201220Z 11012KT 9999 SCT043 BKN075 03/M11 Q1015=
0143010014999992014012013204+59792+005341FM-15+004999999V0201101N006710115819N009999199+00301-01201999999ADDGA1071+011581991GE19MSL   +99999+99999GF199999071990011581991991MA1101501999990REMMET052METAR ENSO 201320Z 11013KT 9999 BKN038 03/M12 Q1015=
0143010014999992014012014204+59792+005341FM-15+004999999V0201401N004610134119N009999199+00401-01301999999ADDGA1071+013411991GE19MSL   +99999+99999GF199999071990013411991991MA1101501999990REMMET052METAR ENSO 201420Z 14009KT 9999 BKN044 04/M13 Q1015=
0143010014999992014012014504+59792+005341FM-15+004999999V0201401N003610143319N009999199+00401-01201999999ADDGA1071+014331991GE19MSL   +99999+99999GF199999071990014331991991MA1101501999990REMMET052METAR ENSO 201450Z 14007KT 9999 BKN047 04/M12 Q1015=
0166010014999992014012015204+59792+005341FM-15+004999999V0201201N003610268219N009999199+00301-00901999999ADDGA1041+015541991GA2071+026821991GE19MSL   +99999+99999GF199999041990015541991991MA1101501999990REMMET059METAR ENSO 201520Z 12007KT 9999 SCT051 BKN088 03/M09 Q1015=
0073010014999992014012015504+59792+005341FM-15+004999999V0201201N002619999999Y999999999+00301-01001999999ADDMA1101601999990REMMET046METAR ENSO 201550Z 12005KT CAVOK 03/M10 Q1016=
0081010014999992014012016204+59792+005341FM-15+004999999V0201601V001519999999Y999999999+00201-01001999999ADDMA1101601999990REMMET054METAR ENSO 201620Z 16003KT 120V210 CAVOK 02/M10 Q1016=
0073010014999992014012016504+59792+005341FM-15+004999999V0202001N000519999999Y999999999+00201-01001999999ADDMA1101601999990REMMET046METAR ENSO 201650Z 20001KT CAVOK 02/M10 Q1016=
0081010014999992014012017204+59792+005341FM-15+004999999V0201701V001019999999Y999999999+00201-00801999999ADDMA1101601999990REMMET054METAR ENSO 201720Z 17002KT 060V250 CAVOK 02/M08 Q1016=
0081010014999992014012017504+59792+005341FM-15+004999999V0202301V001019999999Y999999999+00201-00801999999ADDMA1101601999990REMMET054METAR ENSO 201750Z 23002KT 200V270 CAVOK 02/M08 Q1016=
0081010014999992014012018204+59792+005341FM-15+004999999V0202201V000519999999Y999999999+00201-00801999999ADDMA1101601999990REMMET054METAR ENSO 201820Z 22001KT 130V280 CAVOK 02/M08 Q1016=
0073010014999992014012104504+59792+005341FM-15+004999999V0200601N001519999999Y999999999+00101-00501999999ADDMA1101601999990REMMET046METAR ENSO 210450Z 06003KT CAVOK 01/M05 Q1016=
0073010014999992014012105204+59792+005341FM-15+004999999V0200601N001019999999Y999999999+00101-00501999999ADDMA1101601999990REMMET046METAR ENSO 210520Z 06002KT CAVOK 01/M05 Q1016=
0073010014999992014012105504+59792+005341FM-15+004999999V0200601N001519999999Y999999999+00101-00401999999ADDMA1101601999990REMMET046METAR ENSO 210550Z 06003KT CAVOK 01/M04 Q1016=
0073010014999992014012106204+59792+005341FM-15+004999999V0201301N001019999999Y999999999+00101-00501999999ADDMA1101601999990REMMET046METAR ENSO 210620Z 13002KT CAVOK 01/M05 Q1016=
0073010014999992014012106504+59792+005341FM-15+004999999V0201901N000519999999Y999999999+00101-00501999999ADDMA1101601999990REMMET046METAR ENSO 210650Z 19001KT CAVOK 01/M05 Q1016=
0073010014999992014012107504+59792+005341FM-15+004999999V0200801N000519999999Y999999999+00101-00501999999ADDMA1101701999990REMMET046METAR ENSO 210750Z 08001KT CAVOK 01/M05 Q1017=
0153010014999992014012108204+59792+005341FM-15+004999999V0201601N003110045719N009000199+00101-00301999999ADDGA1071+004571991GE19MSL   +99999+99999GF199999071990004571991991MA1101701999990MW1711REMMET056METAR ENSO 210820Z 16006KT 9000 -SN BKN015 01/M03 Q1017=
0154010014999992014012108504+59792+005341FM-15+004999999V0202701N003110039619N007000199+00101-00201999999ADDGA1071+003961991GE19MSL   +99999+99999GF199999071990003961991991MA1101701999990MW1861REMMET057METAR ENSO 210850Z 27006KT 7000 SHSN BKN013 01/M02 Q1017=
0154010014999992014012109204+59792+005341FM-15+004999999V0202701N000510167619N009999199+00001-00201999999ADDGA1071+016761991GE19MSL   +99999+99999GF199999071990016761991991MA1101701999990MW1161REMMET057METAR ENSO 210920Z 27001KT 9999 VCSH BKN055 00/M02 Q1017=
0166010014999992014012109504+59792+005341FM-15+004999999V0200101N000510225619N009999199+00001-00201999999ADDGA1041+017371991GA2071+022561991GE19MSL   +99999+99999GF199999041990017371991991MA1101701999990REMMET059METAR ENSO 210950Z 01001KT 9999 SCT057 BKN074 00/M02 Q1017=
0097010014999992014012110204+59792+005341FM-15+004999999V0209999V000519999999Y009999199+00001-00201999999ADDMA1101701999990REMMET051METAR ENSO 211020Z VRB01KT 9999 CAVOK 00/M02 Q1017=EQDD01      0ADE693
0166010014999992014012110504+59792+005341FM-15+004999999V0201301N001510262119N009999199+00101-00301999999ADDGA1021+003961991GA2071+026211991GE19MSL   +99999+99999GF199999021990003961991991MA1101601999990REMMET059METAR ENSO 211050Z 13003KT 9999 FEW013 BKN086 01/M03 Q1016=
0097010014999992014012111204+59792+005341FM-15+004999999V0201801N001519999999Y009999199+00101-00201999999ADDMA1101601999990REMMET051METAR ENSO 211120Z 18003KT 9999 CAVOK 01/M02 Q1016=EQDD01      0ADE693
0189010014999992014012112204+59792+005341FM-15+004999999V0209999V00051027431CN009999199+00101-00201999999ADDGA1021+003661991GA2041+027431991GA3071+054861991GE19MSL   +99999+99999GF199999021990003661991991MA1101601999990REMMET066METAR ENSO 211220Z VRB01KT 9999 FEW012 SCT090 BKN180 01/M02 Q1016=
0189010014999992014012113204+59792+005341FM-15+004999999V0209999V00051030481CN009999199+00101-00301999999ADDGA1021+003661991GA2041+030481991GA3071+054861991GE19MSL   +99999+99999GF199999021990003661991991MA1101601999990REMMET066METAR ENSO 211320Z VRB01KT 9999 FEW012 SCT100 BKN180 01/M03 Q1016=
0166010014999992014012114504+59792+005341FM-15+004999999V0201401N001510487719N009999199+00101-00301999999ADDGA1041+013721991GA2071+048771991GE19MSL   +99999+99999GF199999041990013721991991MA1101601999990REMMET059METAR ENSO 211450Z 14003KT 9999 SCT045 BKN160 01/M03 Q1016=
0143010014999992014012115204+59792+005341FM-15+004999999V0201101N001010152419N009999199+00101-00301999999ADDGA1071+015241991GE19MSL   +99999+99999GF199999071990015241991991MA1101601999990REMMET052METAR ENSO 211520Z 11002KT 9999 BKN050 01/M03 Q1016=
0143010014999992014012115504+59792+005341FM-15+004999999V0201301N001510137219N009999199+00101-00301999999ADDGA1071+013721991GE19MSL   +99999+99999GF199999071990013721991991MA1101601999990REMMET052METAR ENSO 211550Z 13003KT 9999 BKN045 01/M03 Q1016=
0143010014999992014012116204+59792+005341FM-15+004999999V0201701N001510121919N009999199+00101-00301999999ADDGA1071+012191991GE19MSL   +99999+99999GF199999071990012191991991MA1101601999990REMMET052METAR ENSO 211620Z 17003KT 9999 BKN040 01/M03 Q1016=
0143010014999992014012116504+59792+005341FM-15+004999999V0201601N002110137219N009999199+00101-00301999999ADDGA1071+013721991GE19MSL   +99999+99999GF199999071990013721991991MA1101601999990REMMET052METAR ENSO 211650Z 16004KT 9999 BKN045 01/M03 Q1016=
0143010014999992014012117204+59792+005341FM-15+004999999V0201601N002610152419N009999199+00101-00401999999ADDGA1071+015241991GE19MSL   +99999+99999GF199999071990015241991991MA1101601999990REMMET052METAR ENSO 211720Z 16005KT 9999 BKN050 01/M04 Q1016=
0166010014999992014012117504+59792+005341FM-15+004999999V0201601N002610167619N009999199+00101-00401999999ADDGA1041+012191991GA2071+016761991GE19MSL   +99999+99999GF199999041990012191991991MA1101601999990REMMET059METAR ENSO 211750Z 16005KT 9999 SCT040 BKN055 01/M04 Q1016=
0073010014999992014012204504+59792+005341FM-15+004999999V0201101N007719999999Y999999999+00201-01401999999ADDMA1101501999990REMMET046METAR ENSO 220450Z 11015KT CAVOK 02/M14 Q1015=
0084010014999992014012205204+59792+005341FM-15+004999999V0201101N009819999999Y999999999+00201-01401999999ADDMA1101501999990OC101491REMMET049METAR ENSO 220520Z 11019G29KT CAVOK 02/M14 Q1015=
0177010014999992014012205504+59792+005341FM-15+004999999V0201101N009810417619N009999199+00201-01401999999ADDGA1021+017371991GA2071+041761991GE19MSL   +99999+99999GF199999021990017371991991MA1101501999990OC101491REMMET062METAR ENSO 220550Z 11019G29KT 9999 FEW057 BKN137 02/M14 Q1015=
0143010014999992014012206204+59792+005341FM-15+004999999V0201101N009810155419N009999199+00201-01401999999ADDGA1071+015541991GE19MSL   +99999+99999GF199999071990015541991991MA1101501999990REMMET052METAR ENSO 220620Z 11019KT 9999 BKN051 02/M14 Q1015=
0143010014999992014012206504+59792+005341FM-15+004999999V0201101N009310167619N009999199+00201-01401999999ADDGA1071+016761991GE19MSL   +99999+99999GF199999071990016761991991MA1101501999990REMMET052METAR ENSO 220650Z 11018KT 9999 BKN055 02/M14 Q1015=
0073010014999992014012207204+59792+005341FM-15+004999999V0201101N009319999999Y999999999+00201-01501999999ADDMA1101501999990REMMET046METAR ENSO 220720Z 11018KT CAVOK 02/M15 Q1015=
0143010014999992014012207504+59792+005341FM-15+004999999V0201101N010310179819N009999199+00201-01501999999ADDGA1071+017981991GE19MSL   +99999+99999GF199999071990017981991991MA1101501999990REMMET052METAR ENSO 220750Z 11020KT 9999 BKN059 02/M15 Q1015=
0073010014999992014012208204+59792+005341FM-15+004999999V0201101N008819999999Y999999999+00201-01401999999ADDMA1101501999990REMMET046METAR ENSO 220820Z 11017KT CAVOK 02/M14 Q1015=
0073010014999992014012208504+59792+005341FM-15+004999999V0201201N008819999999Y999999999+00201-01501999999ADDMA1101501999990REMMET046METAR ENSO 220850Z 12017KT CAVOK 02/M15 Q1015=
0073010014999992014012209204+59792+005341FM-15+004999999V0201101N009319999999Y999999999+00201-01501999999ADDMA1101501999990REMMET046METAR ENSO 220920Z 11018KT CAVOK 02/M15 Q1015=
0073010014999992014012209504+59792+005341FM-15+004999999V0201201N009319999999Y999999999+00201-01401999999ADDMA1101601999990REMMET046METAR ENSO 220950Z 12018KT CAVOK 02/M14 Q1016=
0073010014999992014012210204+59792+005341FM-15+004999999V0201101N009319999999Y999999999+00201-01401999999ADDMA1101601999990REMMET046METAR ENSO 221020Z 11018KT CAVOK 02/M14 Q1016=
0073010014999992014012210504+59792+005341FM-15+004999999V0201101N006219999999Y999999999+00201-01301999999ADDMA1101601999990REMMET046METAR ENSO 221050Z 11012KT CAVOK 02/M13 Q1016=
0073010014999992014012211204+59792+005341FM-15+004999999V0201401N008219999999Y999999999+00301-01301999999ADDMA1101601999990REMMET046METAR ENSO 221120Z 14016KT CAVOK 03/M13 Q1016=
0073010014999992014012211504+59792+005341FM-15+004999999V0201301N006219999999Y999999999+00301-01301999999ADDMA1101601999990REMMET046METAR ENSO 221150Z 13012KT CAVOK 03/M13 Q1016=
0073010014999992014012212204+59792+005341FM-15+004999999V0201301N008219999999Y999999999+00301-01501999999ADDMA1101601999990REMMET046METAR ENSO 221220Z 13016KT CAVOK 03/M15 Q1016=
0073010014999992014012212504+59792+005341FM-15+004999999V0201401N007719999999Y999999999+00301-01501999999ADDMA1101601999990REMMET046METAR ENSO 221250Z 14015KT CAVOK 03/M15 Q1016=
0073010014999992014012213504+59792+005341FM-15+004999999V0201301N006219999999Y999999999+00301-01401999999ADDMA1101601999990REMMET046METAR ENSO 221350Z 13012KT CAVOK 03/M14 Q1016=
0073010014999992014012214204+59792+005341FM-15+004999999V0201401N006719999999Y999999999+00301-01401999999ADDMA1101601999990REMMET046METAR ENSO 221420Z 14013KT CAVOK 03/M14 Q1016=
0189010014999992014012214504+59792+005341FM-15+004999999V0201401N00671024381CN009999199+00201-01401999999ADDGA1021+016761991GA2041+024381991GA3071+045721991GE19MSL   +99999+99999GF199999021990016761991991MA1101601999990REMMET066METAR ENSO 221450Z 14013KT 9999 FEW055 SCT080 BKN150 02/M14 Q1016=
0189010014999992014012215204+59792+005341FM-15+004999999V0201501N00671022861CN009999199+00201-01301999999ADDGA1021+016761991GA2041+022861991GA3071+045721991GE19MSL   +99999+99999GF199999021990016761991991MA1101601999990REMMET066METAR ENSO 221520Z 15013KT 9999 FEW055 SCT075 BKN150 02/M13 Q1016=
0166010014999992014012216204+59792+005341FM-15+004999999V0201301N007710213419N009999199+00201-01301999999ADDGA1021+016761991GA2071+021341991GE19MSL   +99999+99999GF199999021990016761991991MA1101601999990REMMET059METAR ENSO 221620Z 13015KT 9999 FEW055 BKN070 02/M13 Q1016=
0166010014999992014012216504+59792+005341FM-15+004999999V0201301N007210213419N009999199+00201-01301999999ADDGA1021+016761991GA2071+021341991GE19MSL   +99999+99999GF199999021990016761991991MA1101601999990REMMET059METAR ENSO 221650Z 13014KT 9999 FEW055 BKN070 02/M13 Q1016=
0166010014999992014012217204+59792+005341FM-15+004999999V0201501N006210213419N009999199+00201-01301999999ADDGA1021+013721991GA2071+021341991GE19MSL   +99999+99999GF199999021990013721991991MA1101601999990REMMET059METAR ENSO 221720Z 15012KT 9999 FEW045 BKN070 02/M13 Q1016=
0166010014999992014012217504+59792+005341FM-15+004999999V0201701N005710213419N009999199+00101-01101999999ADDGA1021+013721991GA2071+021341991GE19MSL   +99999+99999GF199999021990013721991991MA1101601999990REMMET059METAR ENSO 221750Z 17011KT 9999 FEW045 BKN070 01/M11 Q1016=
0085010014999992014012304504+59792+005341FM-15+004999999V0201221N012419999999Y999999999-00101-00701999999ADDMA1101301999990OC101901REMMET050METAR ENSO 230450Z 12224G37KT CAVOK M01/M07 Q1013=
0155010014999992014012305204+59792+005341FM-15+004999999V0201321N012919999999N009999199-00101-00701999999ADDGA1041+016761991GE19MSL   +99999+99999GF199999041990016761991991MA1101301999990OC101851REMMET056METAR ENSO 230520Z 13225G36KT 9999 SCT055 M01/M07 Q1013=
0178010014999992014012305504+59792+005341FM-15+004999999V0201201N011310225619N009999199-00101-00701999999ADDGA1041+017371991GA2071+022561991GE19MSL   +99999+99999GF199999041990017371991991MA1101301999990OC101651REMMET063METAR ENSO 230550Z 12022G32KT 9999 SCT057 BKN074 M01/M07 Q1013=
0178010014999992014012306204+59792+005341FM-15+004999999V0201301N01131017371CN009999199-00101-00701999999ADDGA1021+014021991GA2041+017371991GE19MSL   +99999+99999GF199999021990014021991991MA1101201999990OC101651REMMET063METAR ENSO 230620Z 13022G32KT 9999 FEW046 SCT057 M01/M07 Q1012=
0155010014999992014012306504+59792+005341FM-15+004999999V0201301N010819999999N009999199-00101-00701999999ADDGA1041+013411991GE19MSL   +99999+99999GF199999041990013411991991MA1101201999990OC101601REMMET056METAR ENSO 230650Z 13021G31KT 9999 SCT044 M01/M07 Q1012=
0178010014999992014012307204+59792+005341FM-15+004999999V0201301N01181019201CN009999199+00001-00701999999ADDGA1021+015541991GA2041+019201991GE19MSL   +99999+99999GF199999021990015541991991MA1101201999990OC101751REMMET063METAR ENSO 230720Z 13023G34KT 9999 FEW051 SCT063 M00/M07 Q1012=
0084010014999992014012307504+59792+005341FM-15+004999999V0201201N011819999999N009999199-00101-00701999999ADDMA1101201999990OC101801REMMET049METAR ENSO 230750Z 12023G35KT 9999 M01/M07 Q1012=
0085010014999992014012308204+59792+005341FM-15+004999999V0201201N012419999999Y999999999-00101-00601999999ADDMA1101201999990OC101961REMMET050METAR ENSO 230820Z 12024G38KT CAVOK M01/M06 Q1012=
0085010014999992014012308504+59792+005341FM-15+004999999V0201201N012419999999Y999999999+00001-00701999999ADDMA1101201999990OC101801REMMET050METAR ENSO 230850Z 12024G35KT CAVOK M00/M07 Q1012=
0085010014999992014012309204+59792+005341FM-15+004999999V0201201N011819999999Y999999999+00001-00801999999ADDMA1101201999990OC101751REMMET050METAR ENSO 230920Z 12023G34KT CAVOK M00/M08 Q1012=
0084010014999992014012309504+59792+005341FM-15+004999999V0201301N012419999999Y999999999+00001-00801999999ADDMA1101201999990OC101851REMMET049METAR ENSO 230950Z 13024G36KT CAVOK 00/M08 Q1012=
0084010014999992014012310204+59792+005341FM-15+004999999V0201301N013419999999Y999999999+00001-00801999999ADDMA1101201999990OC101901REMMET049METAR ENSO 231020Z 13026G37KT CAVOK 00/M08 Q1012=
0084010014999992014012310504+59792+005341FM-15+004999999V0201201N012419999999Y999999999+00101-00801999999ADDMA1101201999990OC101801REMMET049METAR ENSO 231050Z 12024G35KT CAVOK 01/M08 Q1012=
0084010014999992014012311204+59792+005341FM-15+004999999V0201201N013419999999Y999999999+00101-00801999999ADDMA1101201999990OC101851REMMET049METAR ENSO 231120Z 12026G36KT CAVOK 01/M08 Q1012=
0084010014999992014012312204+59792+005341FM-15+004999999V0201201N011819999999Y999999999+00101-00801999999ADDMA1101101999990OC101751REMMET049METAR ENSO 231220Z 12023G34KT CAVOK 01/M08 Q1011=
0177010014999992014012313504+59792+005341FM-15+004999999V0201201N01241024381CN009999199+00101-00901999999ADDGA1021+016761991GA2041+024381991GE19MSL   +99999+99999GF199999021990016761991991MA1101101999990OC101751REMMET062METAR ENSO 231350Z 12024G34KT 9999 FEW055 SCT080 01/M09 Q1011=
0177010014999992014012314204+59792+005341FM-15+004999999V0201201N01241024381CN009999199+00101-00901999999ADDGA1021+016761991GA2041+024381991GE19MSL   +99999+99999GF199999021990016761991991MA1101101999990OC101901REMMET062METAR ENSO 231420Z 12024G37KT 9999 FEW055 SCT080 01/M09 Q1011=
0084010014999992014012314504+59792+005341FM-15+004999999V0201201N012419999999Y999999999+00101-00901999999ADDMA1101101999990OC101851REMMET049METAR ENSO 231450Z 12024G36KT CAVOK 01/M09 Q1011=
0084010014999992014012315504+59792+005341FM-15+004999999V0201201N010819999999Y999999999+00101-00901999999ADDMA1101201999990OC101751REMMET049METAR ENSO 231550Z 12021G34KT CAVOK 01/M09 Q1012=
0073010014999992014012316204+59792+005341FM-15+004999999V0201201N010319999999Y999999999+00101-00901999999ADDMA1101201999990REMMET046METAR ENSO 231620Z 12020KT CAVOK 01/M09 Q1012=
0084010014999992014012316504+59792+005341FM-15+004999999V0201201N010819999999Y999999999+00201-00901999999ADDMA1101201999990OC101601REMMET049METAR ENSO 231650Z 12021G31KT CAVOK 02/M09 Q1012=
0084010014999992014012317204+59792+005341FM-15+004999999V0201301N011319999999Y999999999+00201-00901999999ADDMA1101201999990OC101701REMMET049METAR ENSO 231720Z 13022G33KT CAVOK 02/M09 Q1012=
0084010014999992014012317504+59792+005341FM-15+004999999V0201301N011319999999Y999999999+00201-00901999999ADDMA1101201999990OC101651REMMET049METAR ENSO 231750Z 13022G32KT CAVOK 02/M09 Q1012=
0084010014999992014012318504+59792+005341FM-15+004999999V0201201N010819999999Y999999999+00101-00801999999ADDMA1101301999990OC101601REMMET049METAR ENSO 231850Z 12021G31KT CAVOK 01/M08 Q1013=
0073010014999992014012407204+59792+005341FM-15+004999999V0201301N010319999999Y999999999+00001-01201999999ADDMA1101901999990REMMET046METAR ENSO 240720Z 13020KT CAVOK 00/M12 Q1019=
0073010014999992014012408204+59792+005341FM-15+004999999V0201401N008819999999Y999999999+00001-01201999999ADDMA1101901999990REMMET046METAR ENSO 240820Z 14017KT CAVOK 00/M12 Q1019=
0074010014999992014012408504+59792+005341FM-15+004999999V0201301N009319999999Y999999999+00001-01301999999ADDMA1101901999990REMMET047METAR ENSO 240850Z 13018KT CAVOK M00/M13 Q1019=
0074010014999992014012409204+59792+005341FM-15+004999999V0201401N010319999999Y999999999+00001-01301999999ADDMA1101901999990REMMET047METAR ENSO 240920Z 14020KT CAVOK M00/M13 Q1019=
0074010014999992014012409504+59792+005341FM-15+004999999V0201401N008219999999Y999999999+00001-01301999999ADDMA1101901999990REMMET047METAR ENSO 240950Z 14016KT CAVOK M00/M13 Q1019=
0074010014999992014012410204+59792+005341FM-15+004999999V0201501N007219999999Y999999999+00001-01201999999ADDMA1101901999990REMMET047METAR ENSO 241020Z 15014KT CAVOK M00/M12 Q1019=
0074010014999992014012410504+59792+005341FM-15+004999999V0201601N007219999999Y999999999+00001-01201999999ADDMA1101901999990REMMET047METAR ENSO 241050Z 16014KT CAVOK M00/M12 Q1019=
0073010014999992014012411204+59792+005341FM-15+004999999V0201401N010319999999Y999999999+00101-01301999999ADDMA1102001999990REMMET046METAR ENSO 241120Z 14020KT CAVOK 01/M13 Q1020=
0084010014999992014012411504+59792+005341FM-15+004999999V0201401N011819999999Y999999999+00001-01401999999ADDMA1102001999990OC101701REMMET049METAR ENSO 241150Z 14023G33KT CAVOK 00/M14 Q1020=
0073010014999992014012412204+59792+005341FM-15+004999999V0201301N010319999999Y999999999+00001-01401999999ADDMA1102001999990REMMET046METAR ENSO 241220Z 13020KT CAVOK 00/M14 Q1020=
0073010014999992014012412504+59792+005341FM-15+004999999V0201301N009319999999Y999999999+00001-01301999999ADDMA1102001999990REMMET046METAR ENSO 241250Z 13018KT CAVOK 00/M13 Q1020=
0073010014999992014012413204+59792+005341FM-15+004999999V0201501N008819999999Y999999999+00001-01201999999ADDMA1102001999990REMMET046METAR ENSO 241320Z 15017KT CAVOK 00/M12 Q1020=
0074010014999992014012413504+59792+005341FM-15+004999999V0201301N012419999999Y999999999+00001-01301999999ADDMA1102001999990REMMET047METAR ENSO 241350Z 13024KT CAVOK M00/M13 Q1020=
0074010014999992014012414204+59792+005341FM-15+004999999V0201301N010319999999Y999999999+00001-01301999999ADDMA1102001999990REMMET047METAR ENSO 241420Z 13020KT CAVOK M00/M13 Q1020=
0085010014999992014012414504+59792+005341FM-15+004999999V0201301N010819999999Y999999999-00101-01301999999ADDMA1102001999990OC101601REMMET050METAR ENSO 241450Z 13021G31KT CAVOK M01/M13 Q1020=
0074010014999992014012415204+59792+005341FM-15+004999999V0201301N011319999999Y999999999-00101-01301999999ADDMA1102001999990REMMET047METAR ENSO 241520Z 13022KT CAVOK M01/M13 Q1020=
0074010014999992014012415504+59792+005341FM-15+004999999V0201301N011819999999Y999999999-00101-01201999999ADDMA1101901999990REMMET047METAR ENSO 241550Z 13023KT CAVOK M01/M12 Q1019=
0074010014999992014012416204+59792+005341FM-15+004999999V0201301N012419999999Y999999999-00101-01201999999ADDMA1101901999990REMMET047METAR ENSO 241620Z 13024KT CAVOK M01/M12 Q1019=
0074010014999992014012417204+59792+005341FM-15+004999999V0201401N011319999999Y999999999-00101-01101999999ADDMA1101801999990REMMET047METAR ENSO 241720Z 14022KT CAVOK M01/M11 Q1018=
0074010014999992014012417504+59792+005341FM-15+004999999V0201301N010319999999Y999999999-00101-01101999999ADDMA1101701999990REMMET047METAR ENSO 241750Z 13020KT CAVOK M01/M11 Q1017=
0074010014999992014012418204+59792+005341FM-15+004999999V0201401N009819999999Y999999999+00001-01101999999ADDMA1101601999990REMMET047METAR ENSO 241820Z 14019KT CAVOK M00/M11 Q1016=
0085010014999992014012418504+59792+005341FM-15+004999999V0201301N010319999999Y999999999+00001-01001999999ADDMA1101601999990OC101541REMMET050METAR ENSO 241850Z 13020G30KT CAVOK M00/M10 Q1016=
0084010014999992014012613204+59792+005341FM-15+004999999V0201301N013419999999Y999999999+00101-01301999999ADDMA1100301999990OC101901REMMET049METAR ENSO 261320Z 13026G37KT CAVOK 01/M13 Q1003=
0084010014999992014012613504+59792+005341FM-15+004999999V0201301N011819999999Y999999999+00001-01301999999ADDMA1100301999990OC101961REMMET049METAR ENSO 261350Z 13023G38KT CAVOK 00/M13 Q1003=
0084010014999992014012614204+59792+005341FM-15+004999999V0201201N011319999999Y999999999+00001-01401999999ADDMA1100301999990OC101651REMMET049METAR ENSO 261420Z 12022G32KT CAVOK 00/M14 Q1003=
0085010014999992014012615204+59792+005341FM-15+004999999V0201201N012919999999Y999999999-00101-01401999999ADDMA1100201999990OC101801REMMET050METAR ENSO 261520Z 12025G35KT CAVOK M01/M14 Q1002=
0085010014999992014012615504+59792+005341FM-15+004999999V0201201N013919999999Y999999999-00201-01401999999ADDMA1100101999990OC102211REMMET050METAR ENSO 261550Z 12027G43KT CAVOK M02/M14 Q1001=
0085010014999992014012616204+59792+005341FM-15+004999999V0201201N012419999999Y999999999-00201-01401999999ADDMA1100101999990OC102011REMMET050METAR ENSO 261620Z 12024G39KT CAVOK M02/M14 Q1001=
0085010014999992014012616504+59792+005341FM-15+004999999V0201201N011819999999Y999999999-00101-01301999999ADDMA1100101999990OC101901REMMET050METAR ENSO 261650Z 12023G37KT CAVOK M01/M13 Q1001=
0085010014999992014012617204+59792+005341FM-15+004999999V0201201N011819999999Y999999999-00101-01201999999ADDMA1100001999990OC101701REMMET050METAR ENSO 261720Z 12023G33KT CAVOK M01/M12 Q1000=
0085010014999992014012617504+59792+005341FM-15+004999999V0201301N014419999999Y999999999-00101-01201999999ADDMA1100001999990OC102271REMMET050METAR ENSO 261750Z 13028G44KT CAVOK M01/M12 Q1000=
0085010014999992014012618204+59792+005341FM-15+004999999V0201301N015419999999Y999999999-00101-01201999999ADDMA1100001999990OC102371REMMET050METAR ENSO 261820Z 13030G46KT CAVOK M01/M12 Q1000=
