0089010020999992014010101004+80050+016250FM-12+000899999V0201501N006019999999N999999999-01031-01511101891ADDMA1999990101781MD1610251+9990REMSYN04801002 46/// /1506 11103 21151 30178 40189 56025=
0089010020999992014010102004+80050+016250FM-12+000899999V0201501N005019999999N999999999-00931-01301101831ADDMA1999990101711MD1710241+9990REMSYN04801002 46/// /1505 11093 21130 30171 40183 57024=
0089010020999992014010104004+80050+016250FM-12+000899999V0201301N009019999999N999999999-00741-00901101681ADDMA1999990101571MD1710221+9990REMSYN04801002 46/// /1309 11074 21090 30157 40168 57022=
0089010020999992014010105004+80050+016250FM-12+000899999V0201301N008019999999N999999999-00671-00901101581ADDMA1999990101471MD1610241+9990REMSYN04801002 46/// /1308 11067 21090 30147 40158 56024=
0113010020999992014010106004+80050+016250FM-12+000899999V0201401N008019999999N999999999-00701-00911101511ADDMA1999990101401MD1710251+9990OD139901001999REMSYN05801002 46/// /1408 11070 21091 30140 40151 57025 333 91110=
0089010020999992014010107004+80050+016250FM-12+000899999V0201401N004019999999N999999999-00561-00851101501ADDMA1999990101391MD1810181+9990REMSYN04801002 46/// /1404 11056 21085 30139 40150 58018=
0089010020999992014010108004+80050+016250FM-12+000899999V0201401N003019999999N999999999-00501-00941101481ADDMA1999990101371MD1810101+9990REMSYN04801002 46/// /1403 11050 21094 30137 40148 58010=
0089010020999992014010109004+80050+016250FM-12+000899999V0201601N004019999999N999999999-00411-00961101431ADDMA1999990101321MD1610081+9990REMSYN04801002 46/// /1604 11041 21096 30132 40143 56008=
0089010020999992014010110004+80050+016250FM-12+000899999V0201601N004019999999N999999999-00311-00851101391ADDMA1999990101281MD1710111+9990REMSYN04801002 46/// /1604 11031 21085 30128 40139 57011=
0089010020999992014010111004+80050+016250FM-12+000899999V0201801N004019999999N999999999-00421-00801101421ADDMA1999990101311MD1810061+9990REMSYN04801002 46/// /1804 11042 21080 30131 40142 58006=
0132010020999992014010112004+80050+016250FM-12+000899999V0201601N002019999999N999999999-00441-00821101401ADDMA1999990101291MD1790039+9990OD139900801999REMSYN05801002 46/// /1602 11044 21082 30129 40140 54003 333 91108=EQDQ01.3    3APC3  
0089010020999992014010113004+80050+016250FM-12+000899999V0202101N007019999999N999999999-00531-00881101351ADDMA1999990101241MD1510041+9990REMSYN04801002 46/// /2107 11053 21088 30124 40135 55004=
0089010020999992014010114004+80050+016250FM-12+000899999V0202001N008019999999N999999999-00481-00781101361ADDMA1999990101251MD1710061+9990REMSYN04801002 46/// /2008 11048 21078 30125 40136 57006=
0089010020999992014010115004+80050+016250FM-12+000899999V0201901N007019999999N999999999-00611-00941101371ADDMA1999990101261MD1900031+9990REMSYN04801002 46/// /1907 11061 21094 30126 40137 50003=
0108010020999992014010116004+80050+016250FM-12+000899999V0201901N007019999999N999999999-00631-00971101381ADDMA1999990101271MD1290039+9990REMSYN04801002 46/// /1907 11063 21097 30127 40138 54003=EQDQ01.3    3APC3  
0089010020999992014010117004+80050+016250FM-12+000899999V0202801N007019999999N999999999-00411-00521101411ADDMA1999990101301MD1210051+9990REMSYN04801002 46/// /2807 11041 21052 30130 40141 52005=
0132010020999992014010118004+80050+016250FM-12+000899999V0202901N010019999999N999999999-00461-00621101421ADDKA1120M-00301MA1999990101311MD1210051+9990OD139901101999REMSYN06401002 46/// /2910 11046 21062 30131 40142 52005 333 11030 91111=
0089010020999992014010119004+80050+016250FM-12+000899999V0202801N010019999999N999999999-00541-00801101461ADDMA1999990101351MD1210081+9990REMSYN04801002 46/// /2810 11054 21080 30135 40146 52008=
0089010020999992014010120004+80050+016250FM-12+000899999V0202801N010019999999N999999999-00591-00881101511ADDMA1999990101401MD1110101+9990REMSYN04801002 46/// /2810 11059 21088 30140 40151 51010=
0089010020999992014010121004+80050+016250FM-12+000899999V0202801N012019999999N999999999-00581-00911101521ADDMA1999990101411MD1210101+9990REMSYN04801002 46/// /2812 11058 21091 30141 40152 52010=
0089010020999992014010122004+80050+016250FM-12+000899999V0202901N012019999999N999999999-00651-00921101591ADDMA1999990101481MD1210131+9990REMSYN04801002 46/// /2912 11065 21092 30148 40159 52013=
0089010020999992014010123004+80050+016250FM-12+000899999V0202901N011019999999N999999999-00701-00971101671ADDMA1999990101561MD1110161+9990REMSYN04801002 46/// /2911 11070 21097 30156 40167 51016=
0113010020999992014010200004+80050+016250FM-12+000899999V0202901N009019999999N999999999-00721-00961101731ADDMA1999990101621MD1210211+9990OD139901401999REMSYN05801002 46/// /2909 11072 21096 30162 40173 52021 333 91114=
0089010020999992014010201004+80050+016250FM-12+000899999V0202901N008019999999N999999999-00711-00941101751ADDMA1999990101641MD1310161+9990REMSYN04801002 46/// /2908 11071 21094 30164 40175 53016=
0089010020999992014010202004+80050+016250FM-12+000899999V0202901N007019999999N999999999-00711-00981101761ADDMA1999990101651MD1310091+9990REMSYN04801002 46/// /2907 11071 21098 30165 40176 53009=
0089010020999992014010203004+80050+016250FM-12+000899999V0202801N007019999999N999999999-00681-00921101781ADDMA1999990101671MD1210051+9990REMSYN04801002 46/// /2807 11068 21092 30167 40178 52005=
0089010020999992014010204004+80050+016250FM-12+000899999V0202801N006019999999N999999999-00651-00951101791ADDMA1999990101681MD1210041+9990REMSYN04801002 46/// /2806 11065 21095 30168 40179 52004=
0108010020999992014010205004+80050+016250FM-12+000899999V0202901N006019999999N999999999-00661-00931101781ADDMA1999990101671MD1290029+9990REMSYN04801002 46/// /2906 11066 21093 30167 40178 54002=EQDQ01.2    3APC3  
0132010020999992014010206004+80050+016250FM-12+000899999V0202601N004019999999N999999999-00621-01031101771ADDKA1240N-00751MA1999990101661MD1410001+9990OD139901201999REMSYN06401002 46/// /2604 11062 21103 30166 40177 54000 333 21075 91112=
0108010020999992014010207004+80050+016250FM-12+000899999V0201901N004019999999N999999999-00881-01231101771ADDMA1999990101651MD1790029+9990REMSYN04801002 46/// /1904 11088 21123 30165 40177 54002=EQDQ01.2    3APC3  
0089010020999992014010208004+80050+016250FM-12+000899999V0201801N005019999999N999999999-00841-01191101791ADDMA1999990101681MD1900011+9990REMSYN04801002 46/// /1805 11084 21119 30168 40179 50001=
0089010020999992014010209004+80050+016250FM-12+000899999V0201701N003019999999N999999999-00711-01131101831ADDMA1999990101721MD1110061+9990REMSYN04801002 46/// /1703 11071 21113 30172 40183 51006=
0089010020999992014010210004+80050+016250FM-12+000899999V0201601N004019999999N999999999-00721-01121101851ADDMA1999990101731MD1210081+9990REMSYN04801002 46/// /1604 11072 21112 30173 40185 52008=
0089010020999992014010211004+80050+016250FM-12+000899999V0201601N004019999999N999999999-00711-01101101841ADDMA1999990101721MD1310041+9990REMSYN04801002 46/// /1604 11071 21110 30172 40184 53004=
0113010020999992014010212004+80050+016250FM-12+000899999V0201501N004019999999N999999999-00771-01111101791ADDMA1999990101671MD1610051+9990OD139900701999REMSYN05801002 46/// /1504 11077 21111 30167 40179 56005 333 91107=
0089010020999992014010213004+80050+016250FM-12+000899999V0201601N005019999999N999999999-00821-01211101791ADDMA1999990101671MD1710061+9990REMSYN04801002 46/// /1605 11082 21121 30167 40179 57006=
0089010020999992014010214004+80050+016250FM-12+000899999V0201601N005019999999N999999999-00831-01221101761ADDMA1999990101651MD1710071+9990REMSYN04801002 46/// /1605 11083 21122 30165 40176 57007=
0089010020999992014010215004+80050+016250FM-12+000899999V0201501N007019999999N999999999-00771-01111101731ADDMA1999990101621MD1610061+9990REMSYN04801002 46/// /1507 11077 21111 30162 40173 56006=
0089010020999992014010216004+80050+016250FM-12+000899999V0201501N006019999999N999999999-00701-01031101691ADDMA1999990101581MD1710101+9990REMSYN04801002 46/// /1506 11070 21103 30158 40169 57010=
0089010020999992014010218004+80050+016250FM-12+000899999V0201601N004019999999N999999999-00621-00951101611ADDMA1999990101501MD1710121+9990REMSYN04801002 46/// /1604 11062 21095 30150 40161 57012=
0089010020999992014010219004+80050+016250FM-12+000899999V0202801N006019999999N999999999-00431-00611101601ADDMA1999990101491MD1810091+9990REMSYN04801002 46/// /2806 11043 21061 30149 40160 58009=
0089010020999992014010220004+80050+016250FM-12+000899999V0202701N007019999999N999999999-00481-00701101611ADDMA1999990101501MD1900031+9990REMSYN04801002 46/// /2707 11048 21070 30150 40161 50003=
0089010020999992014010221004+80050+016250FM-12+000899999V0202701N008019999999N999999999-00501-00731101631ADDMA1999990101521MD1900021+9990REMSYN04801002 46/// /2708 11050 21073 30152 40163 50002=
0089010020999992014010222004+80050+016250FM-12+000899999V0203401N008019999999N999999999-00491-00671101671ADDMA1999990101561MD1210071+9990REMSYN04801002 46/// /3408 11049 21067 30156 40167 52007=
0089010020999992014010223004+80050+016250FM-12+000899999V0203601N007019999999N999999999-00671-00831101741ADDMA1999990101631MD1110131+9990REMSYN04801002 46/// /3607 11067 21083 30163 40174 51013=
0113010020999992014010300004+80050+016250FM-12+000899999V0200201N006019999999N999999999-00741-00911101801ADDMA1999990101681MD1210161+9990OD139901001999REMSYN05801002 46/// /0206 11074 21091 30168 40180 52016 333 91110=
0089010020999992014010301004+80050+016250FM-12+000899999V0200201N006019999999N999999999-00771-00951101811ADDMA1999990101701MD1310141+9990REMSYN04801002 46/// /0206 11077 21095 30170 40181 53014=
0089010020999992014010302004+80050+016250FM-12+000899999V0200301N006019999999N999999999-00811-00991101811ADDMA1999990101701MD1310061+9990REMSYN04801002 46/// /0306 11081 21099 30170 40181 53006=
0108010020999992014010303004+80050+016250FM-12+000899999V0200501N006019999999N999999999-00831-01011101821ADDMA1999990101711MD1290029+9990REMSYN04801002 46/// /0506 11083 21101 30171 40182 54002=EQDQ01.2    3APC3  
0108010020999992014010304004+80050+016250FM-12+000899999V0200501N006019999999N999999999-00821-00991101801ADDMA1999990101691MD1790019+9990REMSYN04801002 46/// /0506 11082 21099 30169 40180 54001=EQDQ01.1    3APC3  
0108010020999992014010305004+80050+016250FM-12+000899999V0200501N006019999999N999999999-00841-01021101801ADDMA1999990101691MD1790019+9990REMSYN04801002 46/// /0506 11084 21102 30169 40180 54001=EQDQ01.1    3APC3  
0151010020999992014010306004+80050+016250FM-12+000899999V0200601N006019999999N999999999-00801-00971101801ADDKA1240N-00851MA1999990101691MD1790029+9990OD139900801999REMSYN06401002 46/// /0606 11080 21097 30169 40180 54002 333 21085 91108=EQDQ01.2    3APC3  
0108010020999992014010307004+80050+016250FM-12+000899999V0200601N006019999999N999999999-00801-00971101811ADDMA1999990101701MD1290019+9990REMSYN04801002 46/// /0606 11080 21097 30170 40181 54001=EQDQ01.1    3APC3  
0108010020999992014010308004+80050+016250FM-12+000899999V0200701N007019999999N999999999-00791-00961101821ADDMA1999990101701MD1290029+9990REMSYN04801002 46/// /0707 11079 21096 30170 40182 54002=EQDQ01.2    3APC3  
0089010020999992014010309004+80050+016250FM-12+000899999V0200701N005019999999N999999999-00781-00951101841ADDMA1999990101731MD1210041+9990REMSYN04801002 46/// /0705 11078 21095 30173 40184 52004=
0089010020999992014010310004+80050+016250FM-12+000899999V0200601N006019999999N999999999-00771-00921101851ADDMA1999990101741MD1210051+9990REMSYN04801002 46/// /0606 11077 21092 30174 40185 52005=
0089010020999992014010311004+80050+016250FM-12+000899999V0200501N007019999999N999999999-00761-00911101851ADDMA1999990101741MD1310031+9990REMSYN04801002 46/// /0507 11076 21091 30174 40185 53003=
0132010020999992014010312004+80050+016250FM-12+000899999V0200701N007019999999N999999999-00741-00891101851ADDMA1999990101741MD1290019+9990OD139900801999REMSYN05801002 46/// /0707 11074 21089 30174 40185 54001 333 91108=EQDQ01.1    3APC3  
0089010020999992014010313004+80050+016250FM-12+000899999V0200701N007019999999N999999999-00721-00881101821ADDMA1999990101711MD1710041+9990REMSYN04801002 46/// /0707 11072 21088 30171 40182 57004=
0089010020999992014010314004+80050+016250FM-12+000899999V0200601N006019999999N999999999-00691-00851101801ADDMA1999990101691MD1710051+9990REMSYN04801002 46/// /0606 11069 21085 30169 40180 57005=
0089010020999992014010315004+80050+016250FM-12+000899999V0200501N007019999999N999999999-00671-00831101801ADDMA1999990101691MD1810051+9990REMSYN04801002 46/// /0507 11067 21083 30169 40180 58005=
0089010020999992014010316004+80050+016250FM-12+000899999V0200501N009019999999N999999999-00691-00801101771ADDMA1999990101661MD1710051+9990REMSYN04801002 46/// /0509 11069 21080 30166 40177 57005=
0108010020999992014010317004+80050+016250FM-12+000899999V0200501N008019999999N999999999-00711-00821101781ADDMA1999990101671MD1790029+9990REMSYN04801002 46/// /0508 11071 21082 30167 40178 54001=EQDQ01.1    3APC3  
0132010020999992014010318004+80050+016250FM-12+000899999V0200601N008019999999N999999999-00691-00811101791ADDKA1120M-00651MA1999990101681MD1900011+9990OD139901101999REMSYN06401002 46/// /0608 11069 21081 30168 40179 50001 333 11065 91111=
0108010020999992014010319004+80050+016250FM-12+000899999V0200701N008019999999N999999999-00671-00821101781ADDMA1999990101671MD1290019+9990REMSYN04801002 46/// /0708 11067 21082 30167 40178 54001=EQDQ01.1    3APC3  
0108010020999992014010320004+80050+016250FM-12+000899999V0200701N008019999999N999999999-00661-00811101781ADDMA1999990101671MD1410009+9990REMSYN04801002 46/// /0708 11066 21081 30167 40178 54001=EQDQ01.1    3APC3  
0089010020999992014010321004+80050+016250FM-12+000899999V0200601N008019999999N999999999-00651-00801101791ADDMA1999990101681MD1410001+9990REMSYN04801002 46/// /0608 11065 21080 30168 40179 54000=
0108010020999992014010322004+80050+016250FM-12+000899999V0200601N009019999999N999999999-00681-00841101791ADDMA1999990101681MD1290019+9990REMSYN04801002 46/// /0609 11068 21084 30168 40179 54001=EQDQ01.1    3APC3  
0108010020999992014010323004+80050+016250FM-12+000899999V0200601N009019999999N999999999-00671-00821101781ADDMA1999990101671MD1410009+9990REMSYN04801002 46/// /0609 11067 21082 30167 40178 54001=EQDQ01.1    3APC3  
0113010020999992014010400004+80050+016250FM-12+000899999V0200601N010019999999N999999999-00711-00881101791ADDMA1999990101681MD1410001+9990OD139901201999REMSYN05801002 46/// /0610 11071 21088 30168 40179 54000 333 91112=
0089010020999992014010401004+80050+016250FM-12+000899999V0200501N009019999999N999999999-00751-00991101801ADDMA1999990101681MD1410001+9990REMSYN04801002 46/// /0509 11075 21099 30168 40180 54000=
0108010020999992014010402004+80050+016250FM-12+000899999V0200701N008019999999N999999999-00791-01021101811ADDMA1999990101691MD1290039+9990REMSYN04801002 46/// /0708 11079 21102 30169 40181 54002=EQDQ01.2    3APC3  
0108010020999992014010403004+80050+016250FM-12+000899999V0200701N007019999999N999999999-00781-01021101811ADDMA1999990101701MD1290029+9990REMSYN04801002 46/// /0707 11078 21102 30170 40181 54002=EQDQ01.2    3APC3  
0089010020999992014010404004+80050+016250FM-12+000899999V0200701N008019999999N999999999-00731-00941101761ADDMA1999990101641MD1610041+9990REMSYN04801002 46/// /0708 11073 21094 30164 40176 56004=
0089010020999992014010405004+80050+016250FM-12+000899999V0200601N008019999999N999999999-00731-00961101751ADDMA1999990101641MD1710051+9990REMSYN04801002 46/// /0608 11073 21096 30164 40175 57005=
0132010020999992014010406004+80050+016250FM-12+000899999V0200701N008019999999N999999999-00741-00971101731ADDKA1240N-00791MA1999990101621MD1810081+9990OD139901201999REMSYN06401002 46/// /0708 11074 21097 30162 40173 58008 333 21079 91112=
0089010020999992014010407004+80050+016250FM-12+000899999V0200701N010019999999N999999999-00721-00921101711ADDMA1999990101601MD1710051+9990REMSYN04801002 46/// /0710 11072 21092 30160 40171 57005=
0089010020999992014010408004+80050+016250FM-12+000899999V0200701N009019999999N999999999-00721-00921101741ADDMA1999990101631MD1900011+9990REMSYN04801002 46/// /0709 11072 21092 30163 40174 50001=
0089010020999992014010409004+80050+016250FM-12+000899999V0200801N009019999999N999999999-00711-00961101761ADDMA1999990101641MD1900021+9990REMSYN04801002 46/// /0809 11071 21096 30164 40176 50002=
0089010020999992014010410004+80050+016250FM-12+000899999V0200701N010019999999N999999999-00721-00921101751ADDMA1999990101641MD1310041+9990REMSYN04801002 46/// /0710 11072 21092 30164 40175 53004=
0108010020999992014010411004+80050+016250FM-12+000899999V0200801N011019999999N999999999-00691-00881101741ADDMA1999990101631MD1410009+9990REMSYN04801002 46/// /0811 11069 21088 30163 40174 54001=EQDQ01.1    3APC3  
0132010020999992014010412004+80050+016250FM-12+000899999V0200801N010019999999N999999999-00621-00881101761ADDMA1999990101651MD1410009+9990OD139901201999REMSYN05801002 46/// /0810 11062 21088 30165 40176 54001 333 91112=EQDQ01.1    3APC3  
0089010020999992014010413004+80050+016250FM-12+000899999V0200801N011019999999N999999999-00671-00931101751ADDMA1999990101641MD1410001+9990REMSYN04801002 46/// /0811 11067 21093 30164 40175 54000=
0089010020999992014010414004+80050+016250FM-12+000899999V0200901N010019999999N999999999-00671-00911101781ADDMA1999990101671MD1210041+9990REMSYN04801002 46/// /0910 11067 21091 30167 40178 52004=
0089010020999992014010415004+80050+016250FM-12+000899999V0200701N011019999999N999999999-00751-00991101801ADDMA1999990101681MD1210031+9990REMSYN04801002 46/// /0711 11075 21099 30168 40180 52003=
0089010020999992014010416004+80050+016250FM-12+000899999V0200701N011019999999N999999999-00821-01021101821ADDMA1999990101711MD1210071+9990REMSYN04801002 46/// /0711 11082 21102 30171 40182 52007=
0089010020999992014010417004+80050+016250FM-12+000899999V0201301N010019999999N999999999-00901-01121101831ADDMA1999990101721MD1210051+9990REMSYN04801002 46/// /1310 11090 21112 30172 40183 52005=
0132010020999992014010418004+80050+016250FM-12+000899999V0201201N009019999999N999999999-00891-01131101881ADDKA1120M-00621MA1999990101771MD1210091+9990OD139901301999REMSYN06401002 46/// /1209 11089 21113 30177 40188 52009 333 11062 91113=
0089010020999992014010419004+80050+016250FM-12+000899999V0201101N009019999999N999999999-00911-01291101921ADDMA1999990101811MD1210101+9990REMSYN04801002 46/// /1109 11091 21129 30181 40192 52010=
0089010020999992014010420004+80050+016250FM-12+000899999V0201001N009019999999N999999999-00911-01281101951ADDMA1999990101841MD1210121+9990REMSYN04801002 46/// /1009 11091 21128 30184 40195 52012=
0089010020999992014010421004+80050+016250FM-12+000899999V0200901N011019999999N999999999-00941-01251101971ADDMA1999990101861MD1210091+9990REMSYN04801002 46/// /0911 11094 21125 30186 40197 52009=
0089010020999992014010422004+80050+016250FM-12+000899999V0201001N010019999999N999999999-00971-01351101991ADDMA1999990101871MD1210061+9990REMSYN04801002 46/// /1010 11097 21135 30187 40199 52006=
0089010020999992014010423004+80050+016250FM-12+000899999V0201001N009019999999N999999999-00991-01391101991ADDMA1999990101881MD1210041+9990REMSYN04801002 46/// /1009 11099 21139 30188 40199 52004=
0113010020999992014010500004+80050+016250FM-12+000899999V0201001N008019999999N999999999-01021-01451102001ADDMA1999990101891MD1210031+9990OD139901301999REMSYN05801002 46/// /1008 11102 21145 30189 40200 52003 333 91113=
0108010020999992014010501004+80050+016250FM-12+000899999V0201001N009019999999N999999999-01041-01401101991ADDMA1999990101881MD1410009+9990REMSYN04801002 46/// /1009 11104 21140 30188 40199 54001=EQDQ01.1    3APC3  
0089010020999992014010502004+80050+016250FM-12+000899999V0201001N010019999999N999999999-01061-01491102001ADDMA1999990101881MD1410001+9990REMSYN04801002 46/// /1010 11106 21149 30188 40200 54000=
0089010020999992014010503004+80050+016250FM-12+000899999V0201001N010019999999N999999999-01051-01431102011ADDMA1999990101901MD1410001+9990REMSYN04801002 46/// /1010 11105 21143 30190 40201 54000=
0089010020999992014010504004+80050+016250FM-12+000899999V0201001N011019999999N999999999-01091-01421102001ADDMA1999990101881MD1410001+9990REMSYN04801002 46/// /1011 11109 21142 30188 40200 54000=
0108010020999992014010505004+80050+016250FM-12+000899999V0201001N011019999999N999999999-01111-01501101991ADDMA1999990101881MD1790019+9990REMSYN04801002 46/// /1011 11111 21150 30188 40199 54001=EQDQ01.1    3APC3  
0151010020999992014010506004+80050+016250FM-12+000899999V0201001N011019999999N999999999-01091-01371102001ADDKA1240N-01141MA1999990101891MD1790019+9990OD139901501999REMSYN06401002 46/// /1011 11109 21137 30189 40200 54001 333 21114 91115=EQDQ01.1    3APC3  
0108010020999992014010507004+80050+016250FM-12+000899999V0200901N013019999999N999999999-01071-01301102011ADDMA1999990101901MD1290019+9990REMSYN04801002 46/// /0913 11107 21130 30190 40201 54001=EQDQ01.1    3APC3  
0089010020999992014010508004+80050+016250FM-12+000899999V0201001N012019999999N999999999-01101-01401102031ADDMA1999990101911MD1210041+9990REMSYN04801002 46/// /1012 11110 21140 30191 40203 52004=
0089010020999992014010509004+80050+016250FM-12+000899999V0201001N011019999999N999999999-01111-01461102041ADDMA1999990101931MD1210041+9990REMSYN04801002 46/// /1011 11111 21146 30193 40204 52004=
0089010020999992014010510004+80050+016250FM-12+000899999V0201201N012019999999N999999999-01201-01501102021ADDMA1999990101911MD1510011+9990REMSYN04801002 46/// /1212 11120 21150 30191 40202 55001=
0089010020999992014010511004+80050+016250FM-12+000899999V0201201N013019999999N999999999-01201-01491101991ADDMA1999990101881MD1610041+9990REMSYN04801002 46/// /1213 11120 21149 30188 40199 56004=
0113010020999992014010512004+80050+016250FM-12+000899999V0201201N014019999999N999999999-01221-01461101941ADDMA1999990101831MD1710101+9990OD139901601999REMSYN05801002 46/// /1214 11122 21146 30183 40194 57010 333 91116=
0089010020999992014010513004+80050+016250FM-12+000899999V0201201N015019999999N999999999-01231-01461101921ADDMA1999990101811MD1710101+9990REMSYN04801002 46/// /1215 11123 21146 30181 40192 57010=
0089010020999992014010514004+80050+016250FM-12+000899999V0201201N015019999999N999999999-01251-01481101921ADDMA1999990101811MD1810071+9990REMSYN04801002 46/// /1215 11125 21148 30181 40192 58007=
0108010020999992014010515004+80050+016250FM-12+000899999V0201201N016019999999N999999999-01231-01461101921ADDMA1999990101811MD1790029+9990REMSYN04801002 46/// /1216 11123 21146 30181 40192 54002=EQDQ01.2    3APC3  
0089010020999992014010516004+80050+016250FM-12+000899999V0201201N015019999999N999999999-01241-01431101921ADDMA1999990101811MD1410001+9990REMSYN04801002 46/// /1215 11124 21143 30181 40192 54000=
0089010020999992014010517004+80050+016250FM-12+000899999V0201301N017019999999N999999999-01291-01481101881ADDMA1999990101771MD1610041+9990REMSYN04801002 46/// /1317 11129 21148 30177 40188 56004=
0132010020999992014010518004+80050+016250FM-12+000899999V0201301N017019999999N999999999-01311-01511101871ADDKA1120M-01031MA1999990101761MD1710051+9990OD139901901999REMSYN06401002 46/// /1317 11131 21151 30176 40187 57005 333 11103 91119=
0089010020999992014010519004+80050+016250FM-12+000899999V0201301N016019999999N999999999-01281-01471101861ADDMA1999990101741MD1710061+9990REMSYN04801002 46/// /1316 11128 21147 30174 40186 57006=
0089010020999992014010520004+80050+016250FM-12+000899999V0201301N016019999999N999999999-01241-01421101901ADDMA1999990101791MD1900021+9990REMSYN04801002 46/// /1316 11124 21142 30179 40190 50002=
0089010020999992014010521004+80050+016250FM-12+000899999V0201301N017019999999N999999999-01301-01521101931ADDMA1999990101821MD1110061+9990REMSYN04801002 46/// /1317 11130 21152 30182 40193 51006=
0089010020999992014010522004+80050+016250FM-12+000899999V0201301N016019999999N999999999-01291-01521101961ADDMA1999990101851MD1210101+9990REMSYN04801002 46/// /1316 11129 21152 30185 40196 52010=
0089010020999992014010523004+80050+016250FM-12+000899999V0201201N016019999999N999999999-01251-01511101931ADDMA1999990101811MD1510021+9990REMSYN04801002 46/// /1216 11125 21151 30181 40193 55002=
0113010020999992014010600004+80050+016250FM-12+000899999V0201201N016019999999N999999999-01231-01461101921ADDMA1999990101811MD1510011+9990OD139902001999REMSYN05801002 46/// /1216 11123 21146 30181 40192 55001 333 91120=
0089010020999992014010601004+80050+016250FM-12+000899999V0201201N016019999999N999999999-01251-01541101901ADDMA1999990101781MD1710061+9990REMSYN04801002 46/// /1216 11125 21154 30178 40190 57006=
0089010020999992014010602004+80050+016250FM-12+000899999V0201201N017019999999N999999999-01251-01541101891ADDMA1999990101781MD1710031+9990REMSYN04801002 46/// /1217 11125 21154 30178 40189 57003=
0089010020999992014010603004+80050+016250FM-12+000899999V0201201N017019999999N999999999-01321-01591101871ADDMA1999990101751MD1710051+9990REMSYN04801002 46/// /1217 11132 21159 30175 40187 57005=
0108010020999992014010604004+80050+016250FM-12+000899999V0201201N017019999999N999999999-01371-01611101881ADDMA1999990101761MD1790029+9990REMSYN04801002 46/// /1217 11137 21161 30176 40188 54002=EQDQ01.2    3APC3  
0108010020999992014010605004+80050+016250FM-12+000899999V0201301N017019999999N999999999-01381-01601101871ADDMA1999990101761MD1790029+9990REMSYN04801002 46/// /1317 11138 21160 30176 40187 54002=EQDQ01.2    3APC3  
0151010020999992014010606004+80050+016250FM-12+000899999V0201301N017019999999N999999999-01411-01681101881ADDKA1240N-01421MA1999990101771MD1290019+9990OD139902001999REMSYN06401002 46/// /1317 11141 21168 30177 40188 54002 333 21142 91120=EQDQ01.2    3APC3  
0089010020999992014010607004+80050+016250FM-12+000899999V0201301N014019999999N999999999-01311-01551101931ADDMA1999990101811MD1110051+9990REMSYN04801002 46/// /1314 11131 21155 30181 40193 51005=
0089010020999992014010608004+80050+016250FM-12+000899999V0201301N008019999999N999999999-01481-01881101981ADDMA1999990101871MD1110111+9990REMSYN04801002 46/// /1308 11148 21188 30187 40198 51011=
0089010020999992014010609004+80050+016250FM-12+000899999V0201401N007019999999N999999999-01601-02041101991ADDMA1999990101881MD1310111+9990REMSYN04801002 46/// /1407 11160 21204 30188 40199 53011=
0089010020999992014010610004+80050+016250FM-12+000899999V0201401N007019999999N999999999-01641-02131101991ADDMA1999990101881MD1310061+9990REMSYN04801002 46/// /1407 11164 21213 30188 40199 53006=
0089010020999992014010611004+80050+016250FM-12+000899999V0201401N006019999999N999999999-01501-02021102021ADDMA1999990101911MD1210041+9990REMSYN04801002 46/// /1406 11150 21202 30191 40202 52004=
0132010020999992014010612004+80050+016250FM-12+000899999V0201401N006019999999N999999999-01481-02091102021ADDMA1999990101901MD1290039+9990OD139901901999REMSYN05801002 46/// /1406 11148 21209 30190 40202 54002 333 91119=EQDQ01.2    3APC3  
0089010020999992014010613004+80050+016250FM-12+000899999V0201401N005019999999N999999999-01631-02241102051ADDMA1999990101941MD1210061+9990REMSYN04801002 46/// /1405 11163 21224 30194 40205 52006=
0089010020999992014010614004+80050+016250FM-12+000899999V0201301N006019999999N999999999-01451-02081102061ADDMA1999990101951MD1210041+9990REMSYN04801002 46/// /1306 11145 21208 30195 40206 52004=
0089010020999992014010615004+80050+016250FM-12+000899999V0201401N006019999999N999999999-01591-02221102081ADDMA1999990101971MD1210061+9990REMSYN04801002 46/// /1406 11159 21222 30197 40208 52006=
0108010020999992014010616004+80050+016250FM-12+000899999V0201301N006019999999N999999999-01621-02191102081ADDMA1999990101961MD1290039+9990REMSYN04801002 46/// /1306 11162 21219 30196 40208 54003=EQDQ01.3    3APC3  
0108010020999992014010617004+80050+016250FM-12+000899999V0201301N006019999999N999999999-01581-02251102081ADDMA1999990101961MD1290029+9990REMSYN04801002 46/// /1306 11158 21225 30196 40208 54001=EQDQ01.1    3APC3  
0151010020999992014010618004+80050+016250FM-12+000899999V0201401N006019999999N999999999-01561-02251102071ADDKA1120M-01291MA1999990101951MD1790019+9990OD139900701999REMSYN06401002 46/// /1406 11156 21225 30195 40207 54001 333 11129 91107=EQDQ01.1    3APC3  
0108010020999992014010619004+80050+016250FM-12+000899999V0201301N006019999999N999999999-01551-02021102071ADDMA1999990101951MD1790019+9990REMSYN04801002 46/// /1306 11155 21202 30195 40207 54001=EQDQ01.1    3APC3  
0089010020999992014010620004+80050+016250FM-12+000899999V0201301N005019999999N999999999-01311-01861102081ADDMA1999990101961MD1410001+9990REMSYN04801002 46/// /1305 11131 21186 30196 40208 54000=
0089010020999992014010621004+80050+016250FM-12+000899999V0201301N005019999999N999999999-01341-01871102101ADDMA1999990101981MD1210031+9990REMSYN04801002 46/// /1305 11134 21187 30198 40210 52003=
0089010020999992014010622004+80050+016250FM-12+000899999V0201301N007019999999N999999999-01581-02021102121ADDMA1999990102011MD1210051+9990REMSYN04801002 46/// /1307 11158 21202 30201 40212 52005=
0089010020999992014010623004+80050+016250FM-12+000899999V0201301N007019999999N999999999-01601-01961102131ADDMA1999990102021MD1210051+9990REMSYN04801002 46/// /1307 11160 21196 30202 40213 52005=
0113010020999992014010700004+80050+016250FM-12+000899999V0201301N007019999999N999999999-01661-02021102141ADDMA1999990102021MD1210041+9990OD139900901999REMSYN05801002 46/// /1307 11166 21202 30202 40214 52004 333 91109=
0108010020999992014010701004+80050+016250FM-12+000899999V0201301N007019999999N999999999-01621-01951102141ADDMA1999990102021MD1290029+9990REMSYN04801002 46/// /1307 11162 21195 30202 40214 54001=EQDQ01.1    3APC3  
0089010020999992014010702004+80050+016250FM-12+000899999V0201301N008019999999N999999999-01501-01791102141ADDMA1999990102021MD1410001+9990REMSYN04801002 46/// /1308 11150 21179 30202 40214 54000=
0108010020999992014010703004+80050+016250FM-12+000899999V0201301N008019999999N999999999-01441-01721102131ADDMA1999990102011MD1790019+9990REMSYN04801002 46/// /1308 11144 21172 30201 40213 54001=EQDQ01.1    3APC3  
0089010020999992014010704004+80050+016250FM-12+000899999V0201301N008019999999N999999999-01521-01801102141ADDMA1999990102021MD1410001+9990REMSYN04801002 46/// /1308 11152 21180 30202 40214 54000=
0089010020999992014010705004+80050+016250FM-12+000899999V0201401N007019999999N999999999-01561-01911102131ADDMA1999990102021MD1410001+9990REMSYN04801002 46/// /1407 11156 21191 30202 40213 54000=
0151010020999992014010706004+80050+016250FM-12+000899999V0201301N008019999999N999999999-01441-01721102141ADDKA1240N-01661MA1999990102031MD1290019+9990OD139901101999REMSYN06401002 46/// /1308 11144 21172 30203 40214 54002 333 21166 91111=EQDQ01.2    3APC3  
0089010020999992014010707004+80050+016250FM-12+000899999V0201301N007019999999N999999999-01501-01821102171ADDMA1999990102061MD1110031+9990REMSYN04801002 46/// /1307 11150 21182 30206 40217 51003=
0089010020999992014010708004+80050+016250FM-12+000899999V0201301N007019999999N999999999-01561-01911102221ADDMA1999990102101MD1110081+9990REMSYN04801002 46/// /1307 11156 21191 30210 40222 51008=
0089010020999992014010709004+80050+016250FM-12+000899999V0201301N007019999999N999999999-01551-02041102251ADDMA1999990102141MD1210111+9990REMSYN04801002 46/// /1307 11155 21204 30214 40225 52011=
0089010020999992014010710004+80050+016250FM-12+000899999V0201301N008019999999N999999999-01571-01961102281ADDMA1999990102171MD1210111+9990REMSYN04801002 46/// /1308 11157 21196 30217 40228 52011=
0089010020999992014010711004+80050+016250FM-12+000899999V0201301N007019999999N999999999-01571-01921102301ADDMA1999990102181MD1210081+9990REMSYN04801002 46/// /1307 11157 21192 30218 40230 52008=
0113010020999992014010712004+80050+016250FM-12+000899999V0201301N009019999999N999999999-01441-01721102311ADDMA1999990102201MD1210061+9990OD139901001999REMSYN05801002 46/// /1309 11144 21172 30220 40231 52006 333 91110=
0108010020999992014010713004+80050+016250FM-12+000899999V0201201N010019999999N999999999-01351-01581102311ADDMA1999990102191MD1290039+9990REMSYN04801002 46/// /1210 11135 21158 30219 40231 54003=EQDQ01.3    3APC3  
0089010020999992014010714004+80050+016250FM-12+000899999V0201301N009019999999N999999999-01411-01691102301ADDMA1999990102191MD1410001+9990REMSYN04801002 46/// /1309 11141 21169 30219 40230 54000=
0089010020999992014010715004+80050+016250FM-12+000899999V0201301N010019999999N999999999-01371-01701102321ADDMA1999990102201MD1410001+9990REMSYN04801002 46/// /1310 11137 21170 30220 40232 54000=
0108010020999992014010716004+80050+016250FM-12+000899999V0201201N009019999999N999999999-01381-01681102321ADDMA1999990102211MD1290019+9990REMSYN04801002 46/// /1209 11138 21168 30221 40232 54001=EQDQ01.1    3APC3  
0108010020999992014010717004+80050+016250FM-12+000899999V0201301N009019999999N999999999-01361-01661102321ADDMA1999990102211MD1290029+9990REMSYN04801002 46/// /1309 11136 21166 30221 40232 54002=EQDQ01.2    3APC3  
0151010020999992014010718004+80050+016250FM-12+000899999V0201301N008019999999N999999999-01431-01711102331ADDKA1120M-01261MA1999990102221MD1290019+9990OD139901201999REMSYN06401002 46/// /1308 11143 21171 30222 40233 54001 333 11126 91112=EQDQ01.1    3APC3  
0108010020999992014010719004+80050+016250FM-12+000899999V0201301N010019999999N999999999-01421-01651102351ADDMA1999990102231MD1290039+9990REMSYN04801002 46/// /1310 11142 21165 30223 40235 54003=EQDQ01.3    3APC3  
0089010020999992014010720004+80050+016250FM-12+000899999V0201301N008019999999N999999999-01431-01731102381ADDMA1999990102261MD1210051+9990REMSYN04801002 46/// /1308 11143 21173 30226 40238 52005=
0089010020999992014010721004+80050+016250FM-12+000899999V0201301N009019999999N999999999-01371-01681102391ADDMA1999990102281MD1210061+9990REMSYN04801002 46/// /1309 11137 21168 30228 40239 52006=
0089010020999992014010722004+80050+016250FM-12+000899999V0201201N007019999999N999999999-01391-01701102391ADDMA1999990102281MD1210041+9990REMSYN04801002 46/// /1207 11139 21170 30228 40239 52004=
0089010020999992014010723004+80050+016250FM-12+000899999V0201301N008019999999N999999999-01451-01731102421ADDMA1999990102301MD1210041+9990REMSYN04801002 46/// /1308 11145 21173 30230 40242 52004=
0132010020999992014010800004+80050+016250FM-12+000899999V0201301N008019999999N999999999-01411-01781102421ADDMA1999990102311MD1290039+9990OD139901101999REMSYN05801002 46/// /1308 11141 21178 30231 40242 54003 333 91111=EQDQ01.3    3APC3  
0089010020999992014010801004+80050+016250FM-12+000899999V0201301N007019999999N999999999-01511-01801102431ADDMA1999990102311MD1210031+9990REMSYN04801002 46/// /1307 11151 21180 30231 40243 52003=
0089010020999992014010802004+80050+016250FM-12+000899999V0201301N007019999999N999999999-01501-01871102401ADDMA1999990102281MD1510021+9990REMSYN04801002 46/// /1307 11150 21187 30228 40240 55002=
0089010020999992014010803004+80050+016250FM-12+000899999V0201301N009019999999N999999999-01441-01761102391ADDMA1999990102281MD1710031+9990REMSYN04801002 46/// /1309 11144 21176 30228 40239 57003=
0089010020999992014010804004+80050+016250FM-12+000899999V0201301N009019999999N999999999-01411-01721102391ADDMA1999990102271MD1710041+9990REMSYN04801002 46/// /1309 11141 21172 30227 40239 57004=
0089010020999992014010805004+80050+016250FM-12+000899999V0201301N007019999999N999999999-01521-01871102361ADDMA1999990102241MD1710041+9990REMSYN04801002 46/// /1307 11152 21187 30224 40236 57004=
0151010020999992014010806004+80050+016250FM-12+000899999V0201301N007019999999N999999999-01521-01901102361ADDKA1240N-01601MA1999990102251MD1790039+9990OD139901101999REMSYN06401002 46/// /1307 11152 21190 30225 40236 54003 333 21160 91111=EQDQ01.3    3APC3  
0089010020999992014010807004+80050+016250FM-12+000899999V0201301N007019999999N999999999-01561-01901102361ADDMA1999990102241MD1710031+9990REMSYN04801002 46/// /1307 11156 21190 30224 40236 57003=
0108010020999992014010808004+80050+016250FM-12+000899999V0201301N007019999999N999999999-01581-01971102341ADDMA1999990102231MD1790029+9990REMSYN04801002 46/// /1307 11158 21197 30223 40234 54001=EQDQ01.1    3APC3  
0089010020999992014010809004+80050+016250FM-12+000899999V0201401N007019999999N999999999-01501-02251102321ADDMA1999990102201MD1710051+9990REMSYN04801002 46/// /1407 11150 21225 30220 40232 57005=
0089010020999992014010810004+80050+016250FM-12+000899999V0201301N008019999999N999999999-01511-01821102301ADDMA1999990102191MD1710051+9990REMSYN04801002 46/// /1308 11151 21182 30219 40230 57005=
0089010020999992014010811004+80050+016250FM-12+000899999V0201301N007019999999N999999999-01591-02001102331ADDMA1999990102211MD1900021+9990REMSYN04801002 46/// /1307 11159 21200 30221 40233 50002=
0132010020999992014010812004+80050+016250FM-12+000899999V0201301N007019999999N999999999-01451-01791102331ADDMA1999990102211MD1290019+9990OD139901001999REMSYN05801002 46/// /1307 11145 21179 30221 40233 54001 333 91110=EQDQ01.1    3APC3  
0089010020999992014010813004+80050+016250FM-12+000899999V0201301N005019999999N999999999-01451-02051102311ADDMA1999990102201MD1510011+9990REMSYN04801002 46/// /1305 11145 21205 30220 40231 55001=
0089010020999992014010814004+80050+016250FM-12+000899999V0201401N005019999999N999999999-01451-02051102271ADDMA1999990102161MD1610051+9990REMSYN04801002 46/// /1405 11145 21205 30216 40227 56005=
0089010020999992014010815004+80050+016250FM-12+000899999V0201401N007019999999N999999999-01461-02041102181ADDMA1999990102071MD1610141+9990REMSYN04801002 46/// /1407 11146 21204 30207 40218 56014=
0089010020999992014010816004+80050+016250FM-12+000899999V0201301N007019999999N999999999-01541-01981102101ADDMA1999990101991MD1610211+9990REMSYN04801002 46/// /1307 11154 21198 30199 40210 56021=
0089010020999992014010817004+80050+016250FM-12+000899999V0201301N008019999999N999999999-01311-01641102131ADDMA1999990102021MD1810141+9990REMSYN04801002 46/// /1308 11131 21164 30202 40213 58014=
0132010020999992014010818004+80050+016250FM-12+000899999V0201301N009019999999N999999999-01221-01561102121ADDKA1120M-01201MA1999990102011MD1810061+9990OD139901101999REMSYN06401002 46/// /1309 11122 21156 30201 40212 58006 333 11120 91111=
0089010020999992014010819004+80050+016250FM-12+000899999V0201401N006019999999N999999999-01271-01691102081ADDMA1999990101961MD1510021+9990REMSYN04801002 46/// /1406 11127 21169 30196 40208 55002=
0089010020999992014010820004+80050+016250FM-12+000899999V0201301N010019999999N999999999-01131-01421102001ADDMA1999990101891MD1610131+9990REMSYN04801002 46/// /1310 11113 21142 30189 40200 56013=
0089010020999992014010821004+80050+016250FM-12+000899999V0201301N009019999999N999999999-01091-01471101931ADDMA1999990101821MD1710191+9990REMSYN04801002 46/// /1309 11109 21147 30182 40193 57019=
0089010020999992014010822004+80050+016250FM-12+000899999V0201301N009019999999N999999999-01101-01431101981ADDMA1999990101861MD1810101+9990REMSYN04801002 46/// /1309 11110 21143 30186 40198 58010=
0089010020999992014010823004+80050+016250FM-12+000899999V0201301N008019999999N999999999-01031-01391101951ADDMA1999990101841MD1810051+9990REMSYN04801002 46/// /1308 11103 21139 30184 40195 58005=
0113010020999992014010900004+80050+016250FM-12+000899999V0201301N009019999999N999999999-01041-01361101921ADDMA1999990101811MD1510011+9990OD139901101999REMSYN05801002 46/// /1309 11104 21136 30181 40192 55001 333 91111=
0089010020999992014010901004+80050+016250FM-12+000899999V0201301N010019999999N999999999-01111-01401101861ADDMA1999990101751MD1710111+9990REMSYN04801002 46/// /1310 11111 21140 30175 40186 57011=
0089010020999992014010902004+80050+016250FM-12+000899999V0201301N010019999999N999999999-01081-01301101791ADDMA1999990101681MD1610161+9990REMSYN04801002 46/// /1310 11108 21130 30168 40179 56016=
0089010020999992014010903004+80050+016250FM-12+000899999V0201301N010019999999N999999999-01021-01251101731ADDMA1999990101621MD1710191+9990REMSYN04801002 46/// /1310 11102 21125 30162 40173 57019=
0089010020999992014010904004+80050+016250FM-12+000899999V0201301N011019999999N999999999-01091-01301101711ADDMA1999990101601MD1810151+9990REMSYN04801002 46/// /1311 11109 21130 30160 40171 58015=
0089010020999992014010905004+80050+016250FM-12+000899999V0201301N010019999999N999999999-01061-01291101681ADDMA1999990101571MD1810111+9990REMSYN04801002 46/// /1310 11106 21129 30157 40168 58011=
0132010020999992014010906004+80050+016250FM-12+000899999V0201301N010019999999N999999999-01071-01291101681ADDKA1240N-01371MA1999990101571MD1710051+9990OD139901201999REMSYN06401002 46/// /1310 11107 21129 30157 40168 57005 333 21137 91112=
0089010020999992014010907004+80050+016250FM-12+000899999V0201301N010019999999N999999999-01101-01291101621ADDMA1999990101501MD1610091+9990REMSYN04801002 46/// /1310 11110 21129 30150 40162 56009=
0089010020999992014010908004+80050+016250FM-12+000899999V0201301N012019999999N999999999-01071-01251101531ADDMA1999990101421MD1610151+9990REMSYN04801002 46/// /1312 11107 21125 30142 40153 56015=
0089010020999992014010909004+80050+016250FM-12+000899999V0201401N009019999999N999999999-00891-01201101461ADDMA1999990101351MD1710221+9990REMSYN04801002 46/// /1409 11089 21120 30135 40146 57022=
0089010020999992014010910004+80050+016250FM-12+000899999V0201401N009019999999N999999999-00941-01161101451ADDMA1999990101341MD1810171+9990REMSYN04801002 46/// /1409 11094 21116 30134 40145 58017=
0089010020999992014010911004+80050+016250FM-12+000899999V0201601N007019999999N999999999-00651-01141101391ADDMA1999990101281MD1710141+9990REMSYN04801002 46/// /1607 11065 21114 30128 40139 57014=
0113010020999992014010912004+80050+016250FM-12+000899999V0201401N006019999999N999999999-00861-01201101361ADDMA1999990101251MD1710101+9990OD139901301999REMSYN05801002 46/// /1406 11086 21120 30125 40136 57010 333 91113=
0089010020999992014010913004+80050+016250FM-12+000899999V0201801N007019999999N999999999-00551-01041101271ADDMA1999990101161MD1610181+9990REMSYN04801002 46/// /1807 11055 21104 30116 40127 56018=
0089010020999992014010914004+80050+016250FM-12+000899999V0201801N009019999999N999999999-00511-01001101131ADDMA1999990101021MD1610261+9990REMSYN04801002 46/// /1809 11051 21100 30102 40113 56026=
0089010020999992014010915004+80050+016250FM-12+000899999V0201801N008019999999N999999999-00491-00981101101ADDMA1999990100991MD1810261+9990REMSYN04801002 46/// /1808 11049 21098 30099 40110 58026=
0089010020999992014010916004+80050+016250FM-12+000899999V0201901N007019999999N999999999-00491-00971101081ADDMA1999990100971MD1810191+9990REMSYN04801002 46/// /1907 11049 21097 30097 40108 58019=
0089010020999992014010917004+80050+016250FM-12+000899999V0201901N009019999999N999999999-00421-00901100961ADDMA1999990100851MD1610171+9990REMSYN04801002 46/// /1909 11042 21090 30085 40096 56017=
0132010020999992014010918004+80050+016250FM-12+000899999V0201801N008019999999N999999999-00441-00921100891ADDKA1120M-00401MA1999990100781MD1610211+9990OD139901101999REMSYN06401002 46/// /1808 11044 21092 30078 40089 56021 333 11040 91111=
0089010020999992014010919004+80050+016250FM-12+000899999V0201801N007019999999N999999999-00501-00961100821ADDMA1999990100721MD1810251+9990REMSYN04801002 46/// /1807 11050 21096 30072 40082 58025=
0089010020999992014010920004+80050+016250FM-12+000899999V0201801N007019999999N999999999-00461-00901100791ADDMA1999990100691MD1810171+9990REMSYN04801002 46/// /1807 11046 21090 30069 40079 58017=
0089010020999992014010921004+80050+016250FM-12+000899999V0201501N006019999999N999999999-00561-00891100781ADDMA1999990100671MD1810111+9990REMSYN04801002 46/// /1506 11056 21089 30067 40078 58011=
0089010020999992014010922004+80050+016250FM-12+000899999V0201801N009019999999N999999999-00331-00851100721ADDMA1999990100611MD1710101+9990REMSYN04801002 46/// /1809 11033 21085 30061 40072 57010=
0089010020999992014010923004+80050+016250FM-12+000899999V0201801N009019999999N999999999-00351-00851100661ADDMA1999990100551MD1610141+9990REMSYN04801002 46/// /1809 11035 21085 30055 40066 56014=
0113010020999992014011000004+80050+016250FM-12+000899999V0201801N008019999999N999999999-00331-00831100581ADDMA1999990100471MD1710201+9990OD139901001999REMSYN05801002 46/// /1808 11033 21083 30047 40058 57020 333 91110=
0089010020999992014011001004+80050+016250FM-12+000899999V0201801N007019999999N999999999-00341-00811100541ADDMA1999990100431MD1710181+9990REMSYN04801002 46/// /1807 11034 21081 30043 40054 57018=
0089010020999992014011002004+80050+016250FM-12+000899999V0201801N006019999999N999999999-00281-00771100521ADDMA1999990100411MD1810141+9990REMSYN04801002 46/// /1806 11028 21077 30041 40052 58014=
0089010020999992014011003004+80050+016250FM-12+000899999V0201701N005019999999N999999999-00291-00741100501ADDMA1999990100391MD1710081+9990REMSYN04801002 46/// /1705 11029 21074 30039 40050 57008=
0089010020999992014011004004+80050+016250FM-12+000899999V0201801N007019999999N999999999-00231-00701100431ADDMA1999990100321MD1610111+9990REMSYN04801002 46/// /1807 11023 21070 30032 40043 56011=
0089010020999992014011005004+80050+016250FM-12+000899999V0201901N005019999999N999999999-00271-00661100411ADDMA1999990100311MD1710101+9990REMSYN04801002 46/// /1905 11027 21066 30031 40041 57010=
0132010020999992014011006004+80050+016250FM-12+000899999V0201901N005019999999N999999999-00251-00651100431ADDKA1240N-00581MA1999990100321MD1810071+9990OD139900901999REMSYN06401002 46/// /1905 11025 21065 30032 40043 58007 333 21058 91109=
0089010020999992014011007004+80050+016250FM-12+000899999V0201801N006019999999N999999999-00261-00681100471ADDMA1999990100361MD1110041+9990REMSYN04801002 46/// /1806 11026 21068 30036 40047 51004=
0089010020999992014011008004+80050+016250FM-12+000899999V0201801N005019999999N999999999-00251-00691100461ADDMA1999990100361MD1210051+9990REMSYN04801002 46/// /1805 11025 21069 30036 40046 52005=
0089010020999992014011009004+80050+016250FM-12+000899999V0201501N004019999999N999999999-00401-00811100481ADDMA1999990100371MD1210051+9990REMSYN04801002 46/// /1504 11040 21081 30037 40048 52005=
0089010020999992014011010004+80050+016250FM-12+000899999V0201301N004019999999N999999999-00511-00751100511ADDMA1999990100401MD1110041+9990REMSYN04801002 46/// /1304 11051 21075 30040 40051 51004=
0089010020999992014011011004+80050+016250FM-12+000899999V0201101N003019999999N999999999-00471-00711100531ADDMA1999990100421MD1210061+9990REMSYN04801002 46/// /1103 11047 21071 30042 40053 52006=
0113010020999992014011012004+80050+016250FM-12+000899999V0201301N003019999999N999999999-00461-00781100511ADDMA1999990100401MD1510031+9990OD139900701999REMSYN05801002 46/// /1303 11046 21078 30040 40051 55003 333 91107=
0089010020999992014011013004+80050+016250FM-12+000899999V0201401N003019999999N999999999-00451-00931100511ADDMA1999990100401MD1410001+9990REMSYN04801002 46/// /1403 11045 21093 30040 40051 54000=
0089010020999992014011014004+80050+016250FM-12+000899999V0201301N004019999999N999999999-00481-00781100521ADDMA1999990100421MD1900001+9990REMSYN04801002 46/// /1304 11048 21078 30042 40052 50000=
0089010020999992014011015004+80050+016250FM-12+000899999V0201301N003019999999N999999999-00481-00771100541ADDMA1999990100431MD1210031+9990REMSYN04801002 46/// /1303 11048 21077 30043 40054 52003=
0089010020999992014011016004+80050+016250FM-12+000899999V0201501N004019999999N999999999-00491-00871100551ADDMA1999990100441MD1210041+9990REMSYN04801002 46/// /1504 11049 21087 30044 40055 52004=
0089010020999992014011017004+80050+016250FM-12+000899999V0201401N004019999999N999999999-00491-00891100571ADDMA1999990100461MD1210041+9990REMSYN04801002 46/// /1404 11049 21089 30046 40057 52004=
0132010020999992014011018004+80050+016250FM-12+000899999V0201401N004019999999N999999999-00521-01001100571ADDKA1120M-00221MA1999990100461MD1210031+9990OD139900501999REMSYN06401002 46/// /1404 11052 21100 30046 40057 52003 333 11022 91105=
0108010020999992014011019004+80050+016250FM-12+000899999V0201301N003019999999N999999999-00531-00941100561ADDMA1999990100461MD1290019+9990REMSYN04801002 46/// /1303 11053 21094 30046 40056 54001=EQDQ01.1    3APC3  
0108010020999992014011020004+80050+016250FM-12+000899999V0201401N004019999999N999999999-00531-00911100591ADDMA1999990100481MD1290029+9990REMSYN04801002 46/// /1404 11053 21091 30048 40059 54002=EQDQ01.2    3APC3  
0089010020999992014011021004+80050+016250FM-12+000899999V0201701N005019999999N999999999-00661-01081100571ADDMA1999990100461MD1410001+9990REMSYN04801002 46/// /1705 11066 21108 30046 40057 54000=
0108010020999992014011022004+80050+016250FM-12+000899999V0201401N003019999999N999999999-00541-00841100581ADDMA1999990100471MD1290029+9990REMSYN04801002 46/// /1403 11054 21084 30047 40058 54002=EQDQ01.2    3APC3  
0089010020999992014011023004+80050+016250FM-12+000899999V0201301N003019999999N999999999-00551-00811100611ADDMA1999990100501MD1900031+9990REMSYN04801002 46/// /1303 11055 21081 30050 40061 50003=
0113010020999992014011100004+80050+016250FM-12+000899999V0201401N004019999999N999999999-00611-00871100621ADDMA1999990100511MD1210051+9990OD139900601999REMSYN05801002 46/// /1404 11061 21087 30051 40062 52005 333 91106=
0089010020999992014011101004+80050+016250FM-12+000899999V0201301N004019999999N999999999-00631-00871100631ADDMA1999990100521MD1210051+9990REMSYN04801002 46/// /1304 11063 21087 30052 40063 52005=
0108010020999992014011102004+80050+016250FM-12+000899999V0201401N004019999999N999999999-00641-00971100601ADDMA1999990100491MD1790019+9990REMSYN04801002 46/// /1404 11064 21097 30049 40060 54001=EQDQ01.1    3APC3  
0108010020999992014011103004+80050+016250FM-12+000899999V0201401N004019999999N999999999-00671-01031100601ADDMA1999990100491MD1790029+9990REMSYN04801002 46/// /1404 11067 21103 30049 40060 54002=EQDQ01.2    3APC3  
0089010020999992014011104004+80050+016250FM-12+000899999V0201401N004019999999N999999999-00641-00981100581ADDMA1999990100471MD1710051+9990REMSYN04801002 46/// /1404 11064 21098 30047 40058 57005=
0089010020999992014011105004+80050+016250FM-12+000899999V0201501N005019999999N999999999-00681-01071100561ADDMA1999990100451MD1710051+9990REMSYN04801002 46/// /1505 11068 21107 30045 40056 57005=
0132010020999992014011106004+80050+016250FM-12+000899999V0201601N005019999999N999999999-00601-00991100561ADDKA1240N-00811MA1999990100451MD1710041+9990OD139900601999REMSYN06401002 46/// /1605 11060 21099 30045 40056 57004 333 21081 91106=
0089010020999992014011107004+80050+016250FM-12+000899999V0201601N006019999999N999999999-00781-01211100591ADDMA1999990100481MD1900011+9990REMSYN04801002 46/// /1606 11078 21121 30048 40059 50001=
0089010020999992014011108004+80050+016250FM-12+000899999V0201501N005019999999N999999999-00841-01271100621ADDMA1999990100511MD1210061+9990REMSYN04801002 46/// /1505 11084 21127 30051 40062 52006=
0089010020999992014011109004+80050+016250FM-12+000899999V0202001N008019999999N999999999-00451-00781100601ADDMA1999990100491MD1310041+9990REMSYN04801002 46/// /2008 11045 21078 30049 40060 53004=
0089010020999992014011110004+80050+016250FM-12+000899999V0202001N007019999999N999999999-00461-00871100641ADDMA1999990100531MD1210051+9990REMSYN04801002 46/// /2007 11046 21087 30053 40064 52005=
0089010020999992014011111004+80050+016250FM-12+000899999V0201901N006019999999N999999999-00501-00891100661ADDMA1999990100551MD1110041+9990REMSYN04801002 46/// /1906 11050 21089 30055 40066 51004=
0113010020999992014011112004+80050+016250FM-12+000899999V0202001N006019999999N999999999-00551-00981100641ADDMA1999990100531MD1310041+9990OD139900901999REMSYN05801002 46/// /2006 11055 21098 30053 40064 53004 333 91109=
0108010020999992014011113004+80050+016250FM-12+000899999V0201901N006019999999N999999999-00521-00881100651ADDMA1999990100541MD1290019+9990REMSYN04801002 46/// /1906 11052 21088 30054 40065 54001=EQDQ01.1    3APC3  
0089010020999992014011114004+80050+016250FM-12+000899999V0202001N007019999999N999999999-00451-00831100631ADDMA1999990100521MD1710031+9990REMSYN04801002 46/// /2007 11045 21083 30052 40063 57003=
0089010020999992014011115004+80050+016250FM-12+000899999V0202001N008019999999N999999999-00421-00791100641ADDMA1999990100531MD1410001+9990REMSYN04801002 46/// /2008 11042 21079 30053 40064 54000=
0108010020999992014011116004+80050+016250FM-12+000899999V0202001N008019999999N999999999-00431-00831100641ADDMA1999990100531MD1790019+9990REMSYN04801002 46/// /2008 11043 21083 30053 40064 54001=EQDQ01.1    3APC3  
0089010020999992014011117004+80050+016250FM-12+000899999V0202001N007019999999N999999999-00531-00921100681ADDMA1999990100571MD1210051+9990REMSYN04801002 46/// /2007 11053 21092 30057 40068 52005=
0132010020999992014011118004+80050+016250FM-12+000899999V0201901N006019999999N999999999-00461-00921100711ADDKA1120M-00361MA1999990100601MD1210071+9990OD139901001999REMSYN06401002 46/// /1906 11046 21092 30060 40071 52007 333 11036 91110=
0089010020999992014011119004+80050+016250FM-12+000899999V0202001N008019999999N999999999-00431-00781100741ADDMA1999990100631MD1210101+9990REMSYN04801002 46/// /2008 11043 21078 30063 40074 52010=
0089010020999992014011120004+80050+016250FM-12+000899999V0202001N008019999999N999999999-00351-00671100771ADDMA1999990100661MD1210091+9990REMSYN04801002 46/// /2008 11035 21067 30066 40077 52009=
0089010020999992014011121004+80050+016250FM-12+000899999V0202101N009019999999N999999999-00291-00671100771ADDMA1999990100661MD1210061+9990REMSYN04801002 46/// /2109 11029 21067 30066 40077 52006=
0089010020999992014011122004+80050+016250FM-12+000899999V0202101N009019999999N999999999-00301-00671100791ADDMA1999990100681MD1210051+9990REMSYN04801002 46/// /2109 11030 21067 30068 40079 52005=
0108010020999992014011123004+80050+016250FM-12+000899999V0202201N011019999999N999999999-00171-00571100781ADDMA1999990100671MD1290019+9990REMSYN04801002 46/// /2211 11017 21057 30067 40078 54002=EQDQ01.2    3APC3  
0132010020999992014011200004+80050+016250FM-12+000899999V0202201N012019999999N999999999-00151-00611100791ADDMA1999990100681MD1290029+9990OD139901301999REMSYN05801002 46/// /2212 11015 21061 30068 40079 54001 333 91113=EQDQ01.1    3APC3  
0089010020999992014011201004+80050+016250FM-12+000899999V0202201N010019999999N999999999-00171-00621100821ADDMA1999990100711MD1900031+9990REMSYN04801002 46/// /2210 11017 21062 30071 40082 50003=
0089010020999992014011202004+80050+016250FM-12+000899999V0202201N012019999999N999999999-00151-00591100851ADDMA1999990100741MD1210071+9990REMSYN04801002 46/// /2212 11015 21059 30074 40085 52007=
0089010020999992014011203004+80050+016250FM-12+000899999V0202301N012019999999N999999999-00051-00511100851ADDMA1999990100751MD1210071+9990REMSYN04801002 46/// /2312 11005 21051 30075 40085 52007=
0089010020999992014011204004+80050+016250FM-12+000899999V0202301N011019999999N999999999-00011-00491100871ADDMA1999990100771MD1210061+9990REMSYN04801002 46/// /2311 11001 21049 30077 40087 52006=
0089010020999992014011205004+80050+016250FM-12+000899999V0202201N012019999999N999999999-00091-00511100891ADDMA1999990100781MD1210041+9990REMSYN04801002 46/// /2212 11009 21051 30078 40089 52004=
0132010020999992014011206004+80050+016250FM-12+000899999V0202301N011019999999N999999999+00001-00511100941ADDKA1240N-00481MA1999990100831MD1110081+9990OD139901501999REMSYN06401002 46/// /2311 10000 21051 30083 40094 51008 333 21048 91115=
0089010020999992014011207004+80050+016250FM-12+000899999V0202301N011019999999N999999999-00041-00481101011ADDMA1999990100911MD1110141+9990REMSYN04801002 46/// /2311 11004 21048 30091 40101 51014=
0089010020999992014011208004+80050+016250FM-12+000899999V0202301N010019999999N999999999-00051-00531101081ADDMA1999990100971MD1210191+9990REMSYN04801002 46/// /2310 11005 21053 30097 40108 52019=
0089010020999992014011209004+80050+016250FM-12+000899999V0202201N009019999999N999999999-00091-00501101161ADDMA1999990101051MD1210231+9990REMSYN04801002 46/// /2209 11009 21050 30105 40116 52023=
0089010020999992014011210004+80050+016250FM-12+000899999V0202101N009019999999N999999999-00201-00651101231ADDMA1999990101121MD1210221+9990REMSYN04801002 46/// /2109 11020 21065 30112 40123 52022=
0089010020999992014011211004+80050+016250FM-12+000899999V0202201N010019999999N999999999-00051-00531101211ADDMA1999990101111MD1310131+9990REMSYN04801002 46/// /2210 11005 21053 30111 40121 53013=
0113010020999992014011212004+80050+016250FM-12+000899999V0202201N010019999999N999999999-00111-00521101241ADDMA1999990101131MD1310071+9990OD139901401999REMSYN05801002 46/// /2210 11011 21052 30113 40124 53007 333 91114=
0089010020999992014011213004+80050+016250FM-12+000899999V0202201N010019999999N999999999-00061-00471101261ADDMA1999990101151MD1900031+9990REMSYN04801002 46/// /2210 11006 21047 30115 40126 50003=
0089010020999992014011214004+80050+016250FM-12+000899999V0202301N010019999999N999999999-00011-00471101281ADDMA1999990101171MD1210061+9990REMSYN04801002 46/// /2310 11001 21047 30117 40128 52006=
0089010020999992014011215004+80050+016250FM-12+000899999V0202301N011019999999N999999999+00001-00501101301ADDMA1999990101191MD1210061+9990REMSYN04801002 46/// /2311 10000 21050 30119 40130 52006=
0089010020999992014011216004+80050+016250FM-12+000899999V0202301N011019999999N999999999-00021-00461101331ADDMA1999990101221MD1210071+9990REMSYN04801002 46/// /2311 11002 21046 30122 40133 52007=
0089010020999992014011217004+80050+016250FM-12+000899999V0202301N011019999999N999999999+00001-00501101341ADDMA1999990101231MD1210071+9990REMSYN04801002 46/// /2311 10000 21050 30123 40134 52007=
0132010020999992014011218004+80050+016250FM-12+000899999V0202301N011019999999N999999999+00001-00411101391ADDKA1120M+00031MA1999990101281MD1210091+9990OD139901301999REMSYN06401002 46/// /2311 10000 21041 30128 40139 52009 333 10003 91113=
0089010020999992014011219004+80050+016250FM-12+000899999V0202301N012019999999N999999999+00051-00511101401ADDMA1999990101291MD1210071+9990REMSYN04801002 46/// /2312 10005 21051 30129 40140 52007=
0089010020999992014011220004+80050+016250FM-12+000899999V0202401N015019999999N999999999+00061-00561101451ADDMA1999990101341MD1210111+9990REMSYN04801002 46/// /2415 10006 21056 30134 40145 52011=
0089010020999992014011221004+80050+016250FM-12+000899999V0202401N013019999999N999999999+00041-00461101541ADDMA1999990101441MD1110151+9990REMSYN04801002 46/// /2413 10004 21046 30144 40154 51015=
0089010020999992014011222004+80050+016250FM-12+000899999V0202401N012019999999N999999999+00041-00541101591ADDMA1999990101491MD1210201+9990REMSYN04801002 46/// /2412 10004 21054 30149 40159 52020=
0089010020999992014011223004+80050+016250FM-12+000899999V0202401N012019999999N999999999+00031-00471101611ADDMA1999990101501MD1310161+9990REMSYN04801002 46/// /2412 10003 21047 30150 40161 53016=
0113010020999992014011300004+80050+016250FM-12+000899999V0202201N010019999999N999999999-00091-00461101651ADDMA1999990101541MD1210111+9990OD139901701999REMSYN05801002 46/// /2210 11009 21046 30154 40165 52011 333 91117=
0089010020999992014011301004+80050+016250FM-12+000899999V0202201N010019999999N999999999-00171-00501101681ADDMA1999990101571MD1210081+9990REMSYN04801002 46/// /2210 11017 21050 30157 40168 52008=
0089010020999992014011302004+80050+016250FM-12+000899999V0202101N009019999999N999999999-00311-00691101701ADDMA1999990101591MD1210091+9990REMSYN04801002 46/// /2109 11031 21069 30159 40170 52009=
0089010020999992014011303004+80050+016250FM-12+000899999V0202101N008019999999N999999999-00321-00721101691ADDMA1999990101581MD1310041+9990REMSYN04801002 46/// /2108 11032 21072 30158 40169 53004=
0089010020999992014011304004+80050+016250FM-12+000899999V0202101N010019999999N999999999-00311-00731101691ADDMA1999990101581MD1510011+9990REMSYN04801002 46/// /2110 11031 21073 30158 40169 55001=
0089010020999992014011305004+80050+016250FM-12+000899999V0202001N009019999999N999999999-00251-00701101671ADDMA1999990101561MD1710031+9990REMSYN04801002 46/// /2009 11025 21070 30156 40167 57003=
0132010020999992014011306004+80050+016250FM-12+000899999V0201901N008019999999N999999999-00261-00751101651ADDKA1240N-00381MA1999990101551MD1710041+9990OD139901201999REMSYN06401002 46/// /1908 11026 21075 30155 40165 57004 333 21038 91112=
0089010020999992014011307004+80050+016250FM-12+000899999V0201901N010019999999N999999999-00171-00771101651ADDMA1999990101541MD1710041+9990REMSYN04801002 46/// /1910 11017 21077 30154 40165 57004=
0108010020999992014011308004+80050+016250FM-12+000899999V0201701N009019999999N999999999-00341-00861101641ADDMA1999990101531MD1790039+9990REMSYN04801002 46/// /1709 11034 21086 30153 40164 54003=EQDQ01.3    3APC3  
0089010020999992014011309004+80050+016250FM-12+000899999V0202101N009019999999N999999999-00181-00651101601ADDMA1999990101491MD1710051+9990REMSYN04801002 46/// /2109 11018 21065 30149 40160 57005=
0089010020999992014011310004+80050+016250FM-12+000899999V0202101N011019999999N999999999-00061-00631101571ADDMA1999990101461MD1710081+9990REMSYN04801002 46/// /2111 11006 21063 30146 40157 57008=
0089010020999992014011311004+80050+016250FM-12+000899999V0202201N011019999999N999999999-00031-00421101531ADDMA1999990101431MD1710101+9990REMSYN04801002 46/// /2211 11003 21042 30143 40153 57010=
0113010020999992014011312004+80050+016250FM-12+000899999V0202401N013019999999N999999999+00051-00571101481ADDMA1999990101381MD1710121+9990OD139901601999REMSYN05801002 46/// /2413 10005 21057 30138 40148 57012 333 91116=
0089010020999992014011313004+80050+016250FM-12+000899999V0202301N011019999999N999999999+00031-00551101521ADDMA1999990101421MD1810041+9990REMSYN04801002 46/// /2311 10003 21055 30142 40152 58004=
0089010020999992014011314004+80050+016250FM-12+000899999V0202301N011019999999N999999999+00031-00591101541ADDMA1999990101431MD1900011+9990REMSYN04801002 46/// /2311 10003 21059 30143 40154 50001=
0089010020999992014011315004+80050+016250FM-12+000899999V0202501N012019999999N999999999-00011-00421101561ADDMA1999990101451MD1210081+9990REMSYN04801002 46/// /2512 11001 21042 30145 40156 52008=
0089010020999992014011316004+80050+016250FM-12+000899999V0202801N016019999999N999999999-00221-00511101621ADDMA1999990101521MD1110101+9990REMSYN04801002 46/// /2816 11022 21051 30152 40162 51010=
0089010020999992014011317004+80050+016250FM-12+000899999V0202801N015019999999N999999999-00351-00641101721ADDMA1999990101621MD1110181+9990REMSYN04801002 46/// /2815 11035 21064 30162 40172 51018=
0132010020999992014011318004+80050+016250FM-12+000899999V0203001N016019999999N999999999-00541-00781101851ADDKA1120M+00061MA1999990101741MD1110291+9990OD139901901999REMSYN06401002 46/// /3016 11054 21078 30174 40185 51029 333 10006 91119=
0089010020999992014011319004+80050+016250FM-12+000899999V0202901N012019999999N999999999-00681-01021102051ADDMA1999990101941MD1110421+9990REMSYN04801002 46/// /2912 11068 21102 30194 40205 51042=
0089010020999992014011320004+80050+016250FM-12+000899999V0203001N010019999999N999999999-00721-01031102131ADDMA1999990102021MD1310411+9990REMSYN04801002 46/// /3010 11072 21103 30202 40213 53041=
0089010020999992014011321004+80050+016250FM-12+000899999V0203101N008019999999N999999999-00781-01121102261ADDMA1999990102151MD1310421+9990REMSYN04801002 46/// /3108 11078 21112 30215 40226 53042=
0089010020999992014011322004+80050+016250FM-12+000899999V0203001N006019999999N999999999-00781-01121102361ADDMA1999990102251MD1210311+9990REMSYN04801002 46/// /3006 11078 21112 30225 40236 52031=
0089010020999992014011323004+80050+016250FM-12+000899999V0203201N004019999999N999999999-00801-01271102401ADDMA1999990102291MD1310271+9990REMSYN04801002 46/// /3204 11080 21127 30229 40240 53027=
0113010020999992014011400004+80050+016250FM-12+000899999V0203301N003019999999N999999999-00781-01261102431ADDMA1999990102321MD1310161+9990OD139902001999REMSYN05801002 46/// /3303 11078 21126 30232 40243 53016 333 91120=
0089010020999992014011401004+80050+016250FM-12+000899999V0203301N002019999999N999999999-00771-01221102481ADDMA1999990102361MD1210121+9990REMSYN04801002 46/// /3302 11077 21122 30236 40248 52012=
0089010020999992014011402004+80050+016250FM-12+000899999V0202501N001019999999N999999999-00901-01331102511ADDMA1999990102401MD1210111+9990REMSYN04801002 46/// /2501 11090 21133 30240 40251 52011=
0089010020999992014011403004+80050+016250FM-12+000899999V0201701N002019999999N999999999-00861-01281102501ADDMA1999990102391MD1310081+9990REMSYN04801002 46/// /1702 11086 21128 30239 40250 53008=
0089010020999992014011404004+80050+016250FM-12+000899999V0201501N004019999999N999999999-00881-01281102451ADDMA1999990102341MD1510021+9990REMSYN04801002 46/// /1504 11088 21128 30234 40245 55002=
0089010020999992014011405004+80050+016250FM-12+000899999V0201801N006019999999N999999999-00991-01331102441ADDMA1999990102331MD1710071+9990REMSYN04801002 46/// /1806 11099 21133 30233 40244 57007=
0132010020999992014011406004+80050+016250FM-12+000899999V0201901N004019999999N999999999-00861-01241102451ADDKA1240N-01011MA1999990102341MD1810051+9990OD139900601999REMSYN06401002 46/// /1904 11086 21124 30234 40245 58005 333 21101 91106=
0089010020999992014011407004+80050+016250FM-12+000899999V0201601N006019999999N999999999-00971-01281102451ADDMA1999990102341MD1410001+9990REMSYN04801002 46/// /1606 11097 21128 30234 40245 54000=
0108010020999992014011408004+80050+016250FM-12+000899999V0201501N005019999999N999999999-00971-01351102471ADDMA1999990102351MD1290039+9990REMSYN04801002 46/// /1505 11097 21135 30235 40247 54003=EQDQ01.3    3APC3  
0089010020999992014011409004+80050+016250FM-12+000899999V0201401N006019999999N999999999-01061-01321102451ADDMA1999990102341MD1410001+9990REMSYN04801002 46/// /1406 11106 21132 30234 40245 54000=
0108010020999992014011410004+80050+016250FM-12+000899999V0201401N005019999999N999999999-01011-01321102441ADDMA1999990102331MD1790019+9990REMSYN04801002 46/// /1405 11101 21132 30233 40244 54001=EQDQ01.1    3APC3  
0089010020999992014011411004+80050+016250FM-12+000899999V0201601N003019999999N999999999-00751-01091102421ADDMA1999990102301MD1710051+9990REMSYN04801002 46/// /1603 11075 21109 30230 40242 57005=
0113010020999992014011412004+80050+016250FM-12+000899999V0201501N002019999999N999999999-00811-01161102351ADDMA1999990102241MD1610101+9990OD139900701999REMSYN05801002 46/// /1502 11081 21116 30224 40235 56010 333 91107=
0089010020999992014011413004+80050+016250FM-12+000899999V0201401N003019999999N999999999-00841-01221102301ADDMA1999990102191MD1710141+9990REMSYN04801002 46/// /1403 11084 21122 30219 40230 57014=
0089010020999992014011414004+80050+016250FM-12+000899999V0201401N004019999999N999999999-00901-01361102251ADDMA1999990102141MD1710161+9990REMSYN04801002 46/// /1404 11090 21136 30214 40225 57016=
0089010020999992014011415004+80050+016250FM-12+000899999V0201201N002019999999N999999999-00831-01221102261ADDMA1999990102151MD1810091+9990REMSYN04801002 46/// /1202 11083 21122 30215 40226 58009=
0089010020999992014011416004+80050+016250FM-12+000899999V0201301N003019999999N999999999-00771-01191102251ADDMA1999990102141MD1810061+9990REMSYN04801002 46/// /1303 11077 21119 30214 40225 58006=
0089010020999992014011417004+80050+016250FM-12+000899999V0201301N001019999999N999999999-00671-01181102201ADDMA1999990102091MD1610051+9990REMSYN04801002 46/// /1301 11067 21118 30209 40220 56005=
0132010020999992014011418004+80050+016250FM-12+000899999V0201601N004019999999N999999999-00761-01231102171ADDKA1120M-00571MA1999990102061MD1710091+9990OD139900601999REMSYN06401002 46/// /1604 11076 21123 30206 40217 57009 333 11057 91106=
0089010020999992014011419004+80050+016250FM-12+000899999V0202001N009019999999N999999999-00611-01021102111ADDMA1999990102001MD1710141+9990REMSYN04801002 46/// /2009 11061 21102 30200 40211 57014=
0089010020999992014011420004+80050+016250FM-12+000899999V0201501N006019999999N999999999-00931-01341102111ADDMA1999990102001MD1710091+9990REMSYN04801002 46/// /1506 11093 21134 30200 40211 57009=
0089010020999992014011421004+80050+016250FM-12+000899999V0201401N005019999999N999999999-00951-01481102091ADDMA1999990101981MD1810081+9990REMSYN04801002 46/// /1405 11095 21148 30198 40209 58008=
0089010020999992014011422004+80050+016250FM-12+000899999V0201501N007019999999N999999999-00831-01541102001ADDMA1999990101891MD1610111+9990REMSYN04801002 46/// /1507 11083 21154 30189 40200 56011=
0089010020999992014011423004+80050+016250FM-12+000899999V0201401N005019999999N999999999-00741-01211101971ADDMA1999990101861MD1710141+9990REMSYN04801002 46/// /1405 11074 21121 30186 40197 57014=
0113010020999992014011500004+80050+016250FM-12+000899999V0201801N006019999999N999999999-00581-00991101901ADDMA1999990101791MD1710191+9990OD139901001999REMSYN05801002 46/// /1806 11058 21099 30179 40190 57019 333 91110=
0089010020999992014011502004+80050+016250FM-12+000899999V0202101N011019999999N999999999-00251-00601101791ADDMA1999990101691MD1810171+9990REMSYN04801002 46/// /2111 11025 21060 30169 40179 58017=
0089010020999992014011503004+80050+016250FM-12+000899999V0202101N010019999999N999999999-00231-00581101781ADDMA1999990101671MD1810121+9990REMSYN04801002 46/// /2110 11023 21058 30167 40178 58012=
0089010020999992014011504004+80050+016250FM-12+000899999V0202101N009019999999N999999999-00241-00611101781ADDMA1999990101681MD1810041+9990REMSYN04801002 46/// /2109 11024 21061 30168 40178 58004=
0089010020999992014011505004+80050+016250FM-12+000899999V0201901N005019999999N999999999-00361-00681101791ADDMA1999990101681MD1410001+9990REMSYN04801002 46/// /1905 11036 21068 30168 40179 54000=
0151010020999992014011506004+80050+016250FM-12+000899999V0202001N006019999999N999999999-00391-00711101771ADDKA1240N-01111MA1999990101661MD1790019+9990OD139901201999REMSYN06401002 46/// /2006 11039 21071 30166 40177 54001 333 21111 91112=EQDQ01.1    3APC3  
0108010020999992014011507004+80050+016250FM-12+000899999V0201901N006019999999N999999999-00351-00691101761ADDMA1999990101651MD1790029+9990REMSYN04801002 46/// /1906 11035 21069 30165 40176 54003=EQDQ01.3    3APC3  
0089010020999992014011508004+80050+016250FM-12+000899999V0202101N008019999999N999999999-00261-00571101741ADDMA1999990101631MD1710051+9990REMSYN04801002 46/// /2108 11026 21057 30163 40174 57005=
0089010020999992014011509004+80050+016250FM-12+000899999V0202101N010019999999N999999999-00211-00501101731ADDMA1999990101621MD1710041+9990REMSYN04801002 46/// /2110 11021 21050 30162 40173 57004=
0089010020999992014011510004+80050+016250FM-12+000899999V0202201N010019999999N999999999-00081-00411101761ADDMA1999990101661MD1900011+9990REMSYN04801002 46/// /2210 11008 21041 30166 40176 50001=
0089010020999992014011511004+80050+016250FM-12+000899999V0202701N007019999999N999999999-00141-00321101791ADDMA1999990101681MD1210051+9990REMSYN04801002 46/// /2707 11014 21032 30168 40179 52005=
0113010020999992014011512004+80050+016250FM-12+000899999V0202101N006019999999N999999999-00271-00501101761ADDMA1999990101651MD1310031+9990OD139901201999REMSYN05801002 46/// /2106 11027 21050 30165 40176 53003 333 91112=
0089010020999992014011513004+80050+016250FM-12+000899999V0201901N006019999999N999999999-00441-00701101741ADDMA1999990101631MD1510021+9990REMSYN04801002 46/// /1906 11044 21070 30163 40174 55002=
0089010020999992014011514004+80050+016250FM-12+000899999V0202001N006019999999N999999999-00391-00691101751ADDMA1999990101651MD1810031+9990REMSYN04801002 46/// /2006 11039 21069 30165 40175 58003=
0089010020999992014011515004+80050+016250FM-12+000899999V0201901N007019999999N999999999-00511-00831101721ADDMA1999990101611MD1710041+9990REMSYN04801002 46/// /1907 11051 21083 30161 40172 57004=
0108010020999992014011516004+80050+016250FM-12+000899999V0201901N004019999999N999999999-00301-00751101711ADDMA1999990101601MD1790039+9990REMSYN04801002 46/// /1904 11030 21075 30160 40171 54003=EQDQ01.3    3APC3  
0089010020999992014011517004+80050+016250FM-12+000899999V0201901N006019999999N999999999-00411-00841101671ADDMA1999990101571MD1710081+9990REMSYN04801002 46/// /1906 11041 21084 30157 40167 57008=
0132010020999992014011518004+80050+016250FM-12+000899999V0201301N004019999999N999999999-00361-00711101661ADDKA1120M-00081MA1999990101551MD1710061+9990OD139900901999REMSYN06401002 46/// /1304 11036 21071 30155 40166 57006 333 11008 91109=
0089010020999992014011519004+80050+016250FM-12+000899999V0201501N003019999999N999999999-00321-00701101631ADDMA1999990101521MD1710081+9990REMSYN04801002 46/// /1503 11032 21070 30152 40163 57008=
0089010020999992014011520004+80050+016250FM-12+000899999V0201801N007019999999N999999999-00361-00731101561ADDMA1999990101451MD1610121+9990REMSYN04801002 46/// /1807 11036 21073 30145 40156 56012=
0089010020999992014011522004+80050+016250FM-12+000899999V0202001N008019999999N999999999-00271-00641101531ADDMA1999990101431MD1810091+9990REMSYN04801002 46/// /2008 11027 21064 30143 40153 58009=
0108010020999992014011523004+80050+016250FM-12+000899999V0201901N007019999999N999999999-00221-00561101551ADDMA1999990101441MD1790019+9990REMSYN04801002 46/// /1907 11022 21056 30144 40155 54001=EQDQ01.1    3APC3  
0089010020999992014011600004+80050+016250FM-12+000899999V0201901N008019999999N999999999-00171-00611101501ADDMA1999990101391MD1610041+9990REMSYN04801002 46/// /1908 11017 21061 30139 40150 56004=
0089010020999992014011601004+80050+016250FM-12+000899999V0201901N006019999999N999999999-00231-00651101451ADDMA1999990101341MD1610081+9990REMSYN04801002 46/// /1906 11023 21065 30134 40145 56008=
0089010020999992014011602004+80050+016250FM-12+000899999V0201801N008019999999N999999999-00141-00681101391ADDMA1999990101291MD1710151+9990REMSYN04801002 46/// /1808 11014 21068 30129 40139 57015=
0089010020999992014011603004+80050+016250FM-12+000899999V0201901N007019999999N999999999-00121-00561101381ADDMA1999990101271MD1810121+9990REMSYN04801002 46/// /1907 11012 21056 30127 40138 58012=
0089010020999992014011604004+80050+016250FM-12+000899999V0202201N005019999999N999999999-00081-00381101401ADDMA1999990101291MD1810051+9990REMSYN04801002 46/// /2205 11008 21038 30129 40140 58005=
0108010020999992014011605004+80050+016250FM-12+000899999V0202201N009019999999N999999999-00071-00351101381ADDMA1999990101271MD1790019+9990REMSYN04801002 46/// /2209 11007 21035 30127 40138 54002=EQDQ01.2    3APC3  
0132010020999992014011606004+80050+016250FM-12+000899999V0202201N007019999999N999999999-00201-00511101371ADDMA1999990101261MD1790019+9990OD139901101999REMSYN05801002 46/// /2207 11020 21051 30126 40137 54001 333 91111=EQDQ01.1    3APC3  
0089010020999992014011607004+80050+016250FM-12+000899999V0201901N005019999999N999999999-00301-00641101361ADDMA1999990101251MD1710041+9990REMSYN04801002 46/// /1905 11030 21064 30125 40136 57004=
0108010020999992014011608004+80050+016250FM-12+000899999V0201701N005019999999N999999999-00261-00651101351ADDMA1999990101241MD1790039+9990REMSYN04801002 46/// /1705 11026 21065 30124 40135 54003=EQDQ01.3    3APC3  
0089010020999992014011609004+80050+016250FM-12+000899999V0201901N006019999999N999999999-00191-00591101331ADDMA1999990101221MD1710051+9990REMSYN04801002 46/// /1906 11019 21059 30122 40133 57005=
0089010020999992014011610004+80050+016250FM-12+000899999V0201601N005019999999N999999999-00181-00571101291ADDMA1999990101181MD1710071+9990REMSYN04801002 46/// /1605 11018 21057 30118 40129 57007=
0089010020999992014011611004+80050+016250FM-12+000899999V0201901N008019999999N999999999-00061-00501101221ADDMA1999990101121MD1610121+9990REMSYN04801002 46/// /1908 11006 21050 30112 40122 56012=
0113010020999992014011612004+80050+016250FM-12+000899999V0201901N009019999999N999999999-00011-00441101181ADDMA1999990101071MD1710151+9990OD139901001999REMSYN05801002 46/// /1909 11001 21044 30107 40118 57015 333 91110=
0089010020999992014011613004+80050+016250FM-12+000899999V0201701N011019999999N999999999-00021-00481101071ADDMA1999990100961MD1610221+9990REMSYN04801002 46/// /1711 11002 21048 30096 40107 56022=
0089010020999992014011614004+80050+016250FM-12+000899999V0201601N008019999999N999999999-00151-00571101031ADDMA1999990100921MD1710201+9990REMSYN04801002 46/// /1608 11015 21057 30092 40103 57020=
0089010020999992014011615004+80050+016250FM-12+000899999V0201701N008019999999N999999999-00051-00561100971ADDMA1999990100861MD1810211+9990REMSYN04801002 46/// /1708 11005 21056 30086 40097 58021=
0089010020999992014011616004+80050+016250FM-12+000899999V0201601N008019999999N999999999-00011-00581100911ADDMA1999990100801MD1710161+9990REMSYN04801002 46/// /1608 11001 21058 30080 40091 57016=
0089010020999992014011617004+80050+016250FM-12+000899999V0201901N008019999999N999999999-00071-00491100891ADDMA1999990100781MD1810141+9990REMSYN04801002 46/// /1908 11007 21049 30078 40089 58014=
0132010020999992014011618004+80050+016250FM-12+000899999V0201901N008019999999N999999999-00041-00461100831ADDKA1120M+00031MA1999990100721MD1710141+9990OD139901201999REMSYN06401002 46/// /1908 11004 21046 30072 40083 57014 333 10003 91112=
0089010020999992014011619004+80050+016250FM-12+000899999V0202101N009019999999N999999999+00011-00451100781ADDMA1999990100671MD1710131+9990REMSYN04801002 46/// /2109 10001 21045 30067 40078 57013=
0089010020999992014011620004+80050+016250FM-12+000899999V0202201N012019999999N999999999+00101-00351100781ADDMA1999990100671MD1810111+9990REMSYN04801002 46/// /2212 10010 21035 30067 40078 58011=
0089010020999992014011621004+80050+016250FM-12+000899999V0202701N007019999999N999999999-00031-00071100901ADDMA1999990100791MD1900071+9990REMSYN04801002 46/// /2707 11003 21007 30079 40090 50007=
0089010020999992014011622004+80050+016250FM-12+000899999V0202801N006019999999N999999999-00111-00151100941ADDMA1999990100831MD1110161+9990REMSYN04801002 46/// /2806 11011 21015 30083 40094 51016=
0089010020999992014011623004+80050+016250FM-12+000899999V0202901N004019999999N999999999-00131-00171100951ADDMA1999990100841MD1310171+9990REMSYN04801002 46/// /2904 11013 21017 30084 40095 53017=
0113010020999992014011700004+80050+016250FM-12+000899999V0203401N003019999999N999999999-00151-00191100931ADDMA1999990100821MD1510031+9990OD139901501999REMSYN05801002 46/// /3403 11015 21019 30082 40093 55003 333 91115=
0108010020999992014011701004+80050+016250FM-12+000899999V0200301N001019999999N999999999-00161-00201100951ADDMA1999990100841MD1290019+9990REMSYN04801002 46/// /0301 11016 21020 30084 40095 54001=EQDQ01.1    3APC3  
0089010020999992014011702004+80050+016250FM-12+000899999V0201201N003019999999N999999999-00181-00221100911ADDMA1999990100801MD1710031+9990REMSYN04801002 46/// /1203 11018 21022 30080 40091 57003=
0089010020999992014011703004+80050+016250FM-12+000899999V0201101N003019999999N999999999-00151-00171100881ADDMA1999990100771MD1610051+9990REMSYN04801002 46/// /1103 11015 21017 30077 40088 56005=
0089010020999992014011704004+80050+016250FM-12+000899999V0202301N004019999999N999999999-00041-00081100831ADDMA1999990100721MD1710121+9990REMSYN04801002 46/// /2304 11004 21008 30072 40083 57012=
0089010020999992014011705004+80050+016250FM-12+000899999V0202401N005019999999N999999999+00011-00051100851ADDMA1999990100741MD1810061+9990REMSYN04801002 46/// /2405 10001 21005 30074 40085 58006=
0132010020999992014011706004+80050+016250FM-12+000899999V0202301N010019999999N999999999+00061-00111100821ADDKA1240N-00191MA1999990100711MD1710061+9990OD139901201999REMSYN06401002 46/// /2310 10006 21011 30071 40082 57006 333 21019 91112=
0089010020999992014011707004+80050+016250FM-12+000899999V0202101N010019999999N999999999-00071-00281100831ADDMA1999990100721MD1410001+9990REMSYN04801002 46/// /2110 11007 21028 30072 40083 54000=
0089010020999992014011708004+80050+016250FM-12+000899999V0202201N011019999999N999999999-00051-00321100821ADDMA1999990100711MD1710031+9990REMSYN04801002 46/// /2211 11005 21032 30071 40082 57003=
0089010020999992014011709004+80050+016250FM-12+000899999V0202101N010019999999N999999999-00091-00391100821ADDMA1999990100711MD1410001+9990REMSYN04801002 46/// /2110 11009 21039 30071 40082 54000=
0089010020999992014011710004+80050+016250FM-12+000899999V0202101N008019999999N999999999-00121-00421100881ADDMA1999990100771MD1110051+9990REMSYN04801002 46/// /2108 11012 21042 30077 40088 51005=
0089010020999992014011711004+80050+016250FM-12+000899999V0202201N011019999999N999999999+00001-00361100851ADDMA1999990100751MD1210041+9990REMSYN04801002 46/// /2211 10000 21036 30075 40085 52004=
0113010020999992014011712004+80050+016250FM-12+000899999V0202101N009019999999N999999999-00131-00411100921ADDMA1999990100811MD1210111+9990OD139901301999REMSYN05801002 46/// /2109 11013 21041 30081 40092 52011 333 91113=
0089010020999992014011713004+80050+016250FM-12+000899999V0202201N013019999999N999999999-00101-00491100841ADDMA1999990100731MD1610041+9990REMSYN04801002 46/// /2213 11010 21049 30073 40084 56004=
0089010020999992014011714004+80050+016250FM-12+000899999V0202101N010019999999N999999999-00241-00581100861ADDMA1999990100761MD1510011+9990REMSYN04801002 46/// /2110 11024 21058 30076 40086 55001=
0089010020999992014011715004+80050+016250FM-12+000899999V0202201N011019999999N999999999-00201-00541100831ADDMA1999990100721MD1810101+9990REMSYN04801002 46/// /2211 11020 21054 30072 40083 58010=
0108010020999992014011716004+80050+016250FM-12+000899999V0202201N011019999999N999999999-00181-00541100851ADDMA1999990100741MD1290019+9990REMSYN04801002 46/// /2211 11018 21054 30074 40085 54001=EQDQ01.1    3APC3  
0089010020999992014011717004+80050+016250FM-12+000899999V0202101N011019999999N999999999-00111-00441100861ADDMA1999990100751MD1900011+9990REMSYN04801002 46/// /2111 11011 21044 30075 40086 50001=
0132010020999992014011718004+80050+016250FM-12+000899999V0202201N009019999999N999999999-00231-00621100881ADDKA1120M+00061MA1999990100771MD1210051+9990OD139901601999REMSYN06401002 46/// /2209 11023 21062 30077 40088 52005 333 10006 91116=
0089010020999992014011719004+80050+016250FM-12+000899999V0202101N009019999999N999999999-00291-00661100901ADDMA1999990100791MD1210051+9990REMSYN04801002 46/// /2109 11029 21066 30079 40090 52005=
0089010020999992014011720004+80050+016250FM-12+000899999V0201901N009019999999N999999999-00261-00681100881ADDMA1999990100771MD1510031+9990REMSYN04801002 46/// /1909 11026 21068 30077 40088 55003=
0089010020999992014011721004+80050+016250FM-12+000899999V0201901N008019999999N999999999-00331-00781100861ADDMA1999990100751MD1510021+9990REMSYN04801002 46/// /1908 11033 21078 30075 40086 55002=
0089010020999992014011722004+80050+016250FM-12+000899999V0201801N008019999999N999999999-00181-00691100851ADDMA1999990100741MD1710051+9990REMSYN04801002 46/// /1808 11018 21069 30074 40085 57005=
0089010020999992014011723004+80050+016250FM-12+000899999V0201801N005019999999N999999999-00181-00631100841ADDMA1999990100731MD1710041+9990REMSYN04801002 46/// /1805 11018 21063 30073 40084 57004=
0113010020999992014011800004+80050+016250FM-12+000899999V0201801N006019999999N999999999-00171-00531100791ADDMA1999990100681MD1610071+9990OD139901001999REMSYN05801002 46/// /1806 11017 21053 30068 40079 56007 333 91110=
0089010020999992014011801004+80050+016250FM-12+000899999V0201701N007019999999N999999999-00051-00561100731ADDMA1999990100621MD1610121+9990REMSYN04801002 46/// /1707 11005 21056 30062 40073 56012=
0089010020999992014011802004+80050+016250FM-12+000899999V0201801N006019999999N999999999-00031-00411100641ADDMA1999990100531MD1610201+9990REMSYN04801002 46/// /1806 11003 21041 30053 40064 56020=
0089010020999992014011803004+80050+016250FM-12+000899999V0202001N008019999999N999999999-00011-00291100521ADDMA1999990100411MD1610271+9990REMSYN04801002 46/// /2008 11001 21029 30041 40052 56027=
0089010020999992014011804004+80050+016250FM-12+000899999V0202101N007019999999N999999999-00031-00201100501ADDMA1999990100401MD1810221+9990REMSYN04801002 46/// /2107 11003 21020 30040 40050 58022=
0089010020999992014011805004+80050+016250FM-12+000899999V0202201N012019999999N999999999-00031-00071100491ADDMA1999990100381MD1810151+9990REMSYN04801002 46/// /2212 11003 21007 30038 40049 58015=
0132010020999992014011806004+80050+016250FM-12+000899999V0202601N009019999999N999999999-00011-00051100561ADDKA1240N-00361MA1999990100451MD1110041+9990OD139901401999REMSYN06401002 46/// /2609 11001 21005 30045 40056 51004 333 21036 91114=
0089010020999992014011807004+80050+016250FM-12+000899999V0202801N013019999999N999999999-00061-00151100541ADDMA1999990100431MD1210031+9990REMSYN04801002 46/// /2813 11006 21015 30043 40054 52003=
0089010020999992014011808004+80050+016250FM-12+000899999V0202901N014019999999N999999999-00241-00351100601ADDMA1999990100491MD1210111+9990REMSYN04801002 46/// /2914 11024 21035 30049 40060 52011=
0089010020999992014011809004+80050+016250FM-12+000899999V0202801N014019999999N999999999-00431-00591100701ADDMA1999990100601MD1110141+9990REMSYN04801002 46/// /2814 11043 21059 30060 40070 51014=
0089010020999992014011810004+80050+016250FM-12+000899999V0202901N016019999999N999999999-00611-00761100731ADDMA1999990100621MD1310191+9990REMSYN04801002 46/// /2916 11061 21076 30062 40073 53019=
0089010020999992014011811004+80050+016250FM-12+000899999V0202901N016019999999N999999999-00711-00861100851ADDMA1999990100741MD1210251+9990REMSYN04801002 46/// /2916 11071 21086 30074 40085 52025=
0113010020999992014011812004+80050+016250FM-12+000899999V0202901N015019999999N999999999-00801-00961101051ADDMA1999990100941MD1110351+9990OD139902001999REMSYN05801002 46/// /2915 11080 21096 30094 40105 51035 333 91120=
0089010020999992014011813004+80050+016250FM-12+000899999V0203001N017019999999N999999999-00871-01041101011ADDMA1999990100901MD1310291+9990REMSYN04801002 46/// /3017 11087 21104 30090 40101 53029=
0089010020999992014011814004+80050+016250FM-12+000899999V0202901N014019999999N999999999-00951-01151101281ADDMA1999990101171MD1110431+9990REMSYN04801002 46/// /2914 11095 21115 30117 40128 51043=
0089010020999992014011815004+80050+016250FM-12+000899999V0202901N012019999999N999999999-01021-01231101381ADDMA1999990101271MD1900331+9990REMSYN04801002 46/// /2912 11102 21123 30127 40138 50033=
0089010020999992014011816004+80050+016250FM-12+000899999V0202901N012019999999N999999999-01031-01161101491ADDMA1999990101381MD1310481+9990REMSYN04801002 46/// /2912 11103 21116 30138 40149 53048=
0089010020999992014011817004+80050+016250FM-12+000899999V0202801N011019999999N999999999-01001-01181101541ADDMA1999990101431MD1310261+9990REMSYN04801002 46/// /2811 11100 21118 30143 40154 53026=
0132010020999992014011818004+80050+016250FM-12+000899999V0202901N011019999999N999999999-01021-01181101611ADDKA1120M-00011MA1999990101501MD1310231+9990OD139902101999REMSYN06401002 46/// /2911 11102 21118 30150 40161 53023 333 11001 91121=
0089010020999992014011819004+80050+016250FM-12+000899999V0203001N011019999999N999999999-01041-01231101671ADDMA1999990101561MD1210181+9990REMSYN04801002 46/// /3011 11104 21123 30156 40167 52018=
0089010020999992014011820004+80050+016250FM-12+000899999V0203001N011019999999N999999999-01001-01171101721ADDMA1999990101611MD1210191+9990REMSYN04801002 46/// /3011 11100 21117 30161 40172 52019=
0089010020999992014011821004+80050+016250FM-12+000899999V0202901N010019999999N999999999-01011-01231101831ADDMA1999990101721MD1110221+9990REMSYN04801002 46/// /2910 11101 21123 30172 40183 51022=
0089010020999992014011822004+80050+016250FM-12+000899999V0203001N010019999999N999999999-01031-01241101881ADDMA1999990101771MD1210211+9990REMSYN04801002 46/// /3010 11103 21124 30177 40188 52021=
0089010020999992014011823004+80050+016250FM-12+000899999V0203001N009019999999N999999999-01021-01251101911ADDMA1999990101791MD1310181+9990REMSYN04801002 46/// /3009 11102 21125 30179 40191 53018=
0113010020999992014011900004+80050+016250FM-12+000899999V0202901N008019999999N999999999-00971-01221101921ADDMA1999990101811MD1310091+9990OD139901401999REMSYN05801002 46/// /2908 11097 21122 30181 40192 53009 333 91114=
0089010020999992014011901004+80050+016250FM-12+000899999V0202901N008019999999N999999999-00901-01191101951ADDMA1999990101841MD1210071+9990REMSYN04801002 46/// /2908 11090 21119 30184 40195 52007=
0089010020999992014011902004+80050+016250FM-12+000899999V0202901N010019999999N999999999-00841-01161101951ADDMA1999990101831MD1210041+9990REMSYN04801002 46/// /2910 11084 21116 30183 40195 52004=
0089010020999992014011903004+80050+016250FM-12+000899999V0202901N009019999999N999999999-00831-01141101981ADDMA1999990101871MD1210071+9990REMSYN04801002 46/// /2909 11083 21114 30187 40198 52007=
0089010020999992014011904004+80050+016250FM-12+000899999V0203001N008019999999N999999999-00851-01071102031ADDMA1999990101921MD1110081+9990REMSYN04801002 46/// /3008 11085 21107 30192 40203 51008=
0089010020999992014011905004+80050+016250FM-12+000899999V0202901N008019999999N999999999-00851-01121102021ADDMA1999990101911MD1310081+9990REMSYN04801002 46/// /2908 11085 21112 30191 40202 53008=
0132010020999992014011906004+80050+016250FM-12+000899999V0202901N007019999999N999999999-00821-01101102041ADDKA1240N-01061MA1999990101921MD1310051+9990OD139901301999REMSYN06401002 46/// /2907 11082 21110 30192 40204 53005 333 21106 91113=
0089010020999992014011907004+80050+016250FM-12+000899999V0203001N006019999999N999999999-00801-01051102071ADDMA1999990101961MD1110051+9990REMSYN04801002 46/// /3006 11080 21105 30196 40207 51005=
0089010020999992014011908004+80050+016250FM-12+000899999V0203001N005019999999N999999999-00751-01091102081ADDMA1999990101971MD1210061+9990REMSYN04801002 46/// /3005 11075 21109 30197 40208 52006=
0089010020999992014011909004+80050+016250FM-12+000899999V0203001N006019999999N999999999-00711-01011102101ADDMA1999990101991MD1210061+9990REMSYN04801002 46/// /3006 11071 21101 30199 40210 52006=
0089010020999992014011910004+80050+016250FM-12+000899999V0202501N005019999999N999999999-00661-00941102141ADDMA1999990102031MD1110071+9990REMSYN04801002 46/// /2505 11066 21094 30203 40214 51007=
0089010020999992014011911004+80050+016250FM-12+000899999V0202401N006019999999N999999999-00661-00931102171ADDMA1999990102061MD1210091+9990REMSYN04801002 46/// /2406 11066 21093 30206 40217 52009=
0113010020999992014011912004+80050+016250FM-12+000899999V0202101N007019999999N999999999-00821-01071102181ADDMA1999990102071MD1310081+9990OD139901101999REMSYN05801002 46/// /2107 11082 21107 30207 40218 53008 333 91111=
0089010020999992014011913004+80050+016250FM-12+000899999V0201901N007019999999N999999999-00831-01071102181ADDMA1999990102071MD1310041+9990REMSYN04801002 46/// /1907 11083 21107 30207 40218 53004=
0108010020999992014011914004+80050+016250FM-12+000899999V0202001N007019999999N999999999-00811-01021102171ADDMA1999990102061MD1410009+9990REMSYN04801002 46/// /2007 11081 21102 30206 40217 54001=EQDQ01.1    3APC3  
0108010020999992014011915004+80050+016250FM-12+000899999V0201901N006019999999N999999999-00861-01071102191ADDMA1999990102071MD1290019+9990REMSYN04801002 46/// /1906 11086 21107 30207 40219 54001=EQDQ01.1    3APC3  
0108010020999992014011916004+80050+016250FM-12+000899999V0202001N005019999999N999999999-00881-01121102201ADDMA1999990102081MD1290029+9990REMSYN04801002 46/// /2005 11088 21112 30208 40220 54002=EQDQ01.2    3APC3  
0108010020999992014011917004+80050+016250FM-12+000899999V0202101N003019999999N999999999-00861-01111102191ADDMA1999990102081MD1290029+9990REMSYN04801002 46/// /2103 11086 21111 30208 40219 54003=EQDQ01.3    3APC3  
0132010020999992014011918004+80050+016250FM-12+000899999V0201701N003019999999N999999999-00791-01271102191ADDKA1120M-00661MA1999990102071MD1410001+9990OD139900901999REMSYN06401002 46/// /1703 11079 21127 30207 40219 54000 333 11066 91109=
0108010020999992014011919004+80050+016250FM-12+000899999V0201501N006019999999N999999999-00901-01111102181ADDMA1999990102061MD1790029+9990REMSYN04801002 46/// /1506 11090 21111 30206 40218 54002=EQDQ01.2    3APC3  
0089010020999992014011920004+80050+016250FM-12+000899999V0201501N006019999999N999999999-00891-01131102151ADDMA1999990102041MD1710041+9990REMSYN04801002 46/// /1506 11089 21113 30204 40215 57004=
0089010020999992014011921004+80050+016250FM-12+000899999V0201401N004019999999N999999999-00861-01131102151ADDMA1999990102031MD1710041+9990REMSYN04801002 46/// /1404 11086 21113 30203 40215 57004=
0089010020999992014011922004+80050+016250FM-12+000899999V0201401N004019999999N999999999-00851-01231102141ADDMA1999990102021MD1710041+9990REMSYN04801002 46/// /1404 11085 21123 30202 40214 57004=
0089010020999992014011923004+80050+016250FM-12+000899999V0201401N004019999999N999999999-00811-01261102111ADDMA1999990102001MD1710041+9990REMSYN04801002 46/// /1404 11081 21126 30200 40211 57004=
0113010020999992014012000004+80050+016250FM-12+000899999V0201301N005019999999N999999999-00891-01421102081ADDMA1999990101971MD1710071+9990OD139900701999REMSYN05801002 46/// /1305 11089 21142 30197 40208 57007 333 91107=
0089010020999992014012001004+80050+016250FM-12+000899999V0201301N005019999999N999999999-00891-01481102031ADDMA1999990101921MD1710101+9990REMSYN04801002 46/// /1305 11089 21148 30192 40203 57010=
0089010020999992014012002004+80050+016250FM-12+000899999V0201301N006019999999N999999999-00991-01401101991ADDMA1999990101881MD1710121+9990REMSYN04801002 46/// /1306 11099 21140 30188 40199 57012=
0089010020999992014012003004+80050+016250FM-12+000899999V0201401N005019999999N999999999-00781-01301101961ADDMA1999990101851MD1710121+9990REMSYN04801002 46/// /1405 11078 21130 30185 40196 57012=
0089010020999992014012004004+80050+016250FM-12+000899999V0201201N006019999999N999999999-00981-01241101901ADDMA1999990101791MD1710131+9990REMSYN04801002 46/// /1206 11098 21124 30179 40190 57013=
0089010020999992014012005004+80050+016250FM-12+000899999V0201201N008019999999N999999999-00671-00861101841ADDMA1999990101721MD1610161+9990REMSYN04801002 46/// /1208 11067 21086 30172 40184 56016=
0132010020999992014012006004+80050+016250FM-12+000899999V0201301N010019999999N999999999-00601-00801101751ADDKA1240N-01031MA1999990101641MD1710211+9990OD139901101999REMSYN06401002 46/// /1310 11060 21080 30164 40175 57021 333 21103 91111=
0089010020999992014012007004+80050+016250FM-12+000899999V0201301N013019999999N999999999-00591-00751101671ADDMA1999990101561MD1710231+9990REMSYN04801002 46/// /1313 11059 21075 30156 40167 57023=
0089010020999992014012008004+80050+016250FM-12+000899999V0201301N013019999999N999999999-00671-00831101621ADDMA1999990101511MD1810211+9990REMSYN04801002 46/// /1313 11067 21083 30151 40162 58021=
0089010020999992014012009004+80050+016250FM-12+000899999V0201301N014019999999N999999999-00651-00781101591ADDMA1999990101481MD1810161+9990REMSYN04801002 46/// /1314 11065 21078 30148 40159 58016=
0089010020999992014012010004+80050+016250FM-12+000899999V0201301N011019999999N999999999-00551-00671101551ADDMA1999990101441MD1710121+9990REMSYN04801002 46/// /1311 11055 21067 30144 40155 57012=
0089010020999992014012011004+80050+016250FM-12+000899999V0201301N014019999999N999999999-00591-00701101421ADDMA1999990101311MD1610201+9990REMSYN04801002 46/// /1314 11059 21070 30131 40142 56020=
0113010020999992014012012004+80050+016250FM-12+000899999V0201301N013019999999N999999999-00561-00681101321ADDMA1999990101211MD1610271+9990OD139901601999REMSYN05801002 46/// /1313 11056 21068 30121 40132 56027 333 91116=
0089010020999992014012013004+80050+016250FM-12+000899999V0201301N015019999999N999999999-00581-00701101261ADDMA1999990101151MD1810291+9990REMSYN04801002 46/// /1315 11058 21070 30115 40126 58029=
0089010020999992014012014004+80050+016250FM-12+000899999V0201301N013019999999N999999999-00491-00651101181ADDMA1999990101071MD1710241+9990REMSYN04801002 46/// /1313 11049 21065 30107 40118 57024=
0089010020999992014012015004+80050+016250FM-12+000899999V0201501N012019999999N999999999-00361-00561101091ADDMA1999990100981MD1710241+9990REMSYN04801002 46/// /1512 11036 21056 30098 40109 57024=
0089010020999992014012016004+80050+016250FM-12+000899999V0201901N005019999999N999999999+00041-00201101131ADDMA1999990101031MD1810121+9990REMSYN04801002 46/// /1905 10004 21020 30103 40113 58012=
0089010020999992014012017004+80050+016250FM-12+000899999V0202101N006019999999N999999999-00081-00191101171ADDMA1999990101071MD1900011+9990REMSYN04801002 46/// /2106 11008 21019 30107 40117 50001=
0132010020999992014012018004+80050+016250FM-12+000899999V0202101N007019999999N999999999-00051-00301101141ADDKA1120M+00071MA1999990101031MD1310061+9990OD139901901999REMSYN06401002 46/// /2107 11005 21030 30103 40114 53006 333 10007 91119=
0089010020999992014012019004+80050+016250FM-12+000899999V0202301N011019999999N999999999+00011-00401101101ADDMA1999990100991MD1510031+9990REMSYN04801002 46/// /2311 10001 21040 30099 40110 55003=
0089010020999992014012020004+80050+016250FM-12+000899999V0202301N013019999999N999999999+00001-00551101081ADDMA1999990100971MD1710101+9990REMSYN04801002 46/// /2313 10000 21055 30097 40108 57010=
0089010020999992014012021004+80050+016250FM-12+000899999V0202301N014019999999N999999999-00021-00511101051ADDMA1999990100941MD1710091+9990REMSYN04801002 46/// /2314 11002 21051 30094 40105 57009=
0089010020999992014012022004+80050+016250FM-12+000899999V0202501N012019999999N999999999-00131-00341101101ADDMA1999990100991MD1900001+9990REMSYN04801002 46/// /2512 11013 21034 30099 40110 50000=
0108010020999992014012023004+80050+016250FM-12+000899999V0202601N010019999999N999999999-00131-00351101101ADDMA1999990100991MD1290029+9990REMSYN04801002 46/// /2610 11013 21035 30099 40110 54002=EQDQ01.2    3APC3  
0113010020999992014012100004+80050+016250FM-12+000899999V0202701N012019999999N999999999-00191-00331101071ADDMA1999990100961MD1510021+9990OD139901601999REMSYN05801002 46/// /2712 11019 21033 30096 40107 55002 333 91116=
0089010020999992014012101004+80050+016250FM-12+000899999V0202701N015019999999N999999999-00251-00461101051ADDMA1999990100951MD1710041+9990REMSYN04801002 46/// /2715 11025 21046 30095 40105 57004=
0089010020999992014012102004+80050+016250FM-12+000899999V0202701N016019999999N999999999-00311-00541101071ADDMA1999990100961MD1900031+9990REMSYN04801002 46/// /2716 11031 21054 30096 40107 50003=
0108010020999992014012103004+80050+016250FM-12+000899999V0202701N016019999999N999999999-00341-00501101081ADDMA1999990100981MD1290019+9990REMSYN04801002 46/// /2716 11034 21050 30098 40108 54002=EQDQ01.2    3APC3  
0089010020999992014012104004+80050+016250FM-12+000899999V0202801N015019999999N999999999-00391-00501101121ADDMA1999990101011MD1210071+9990REMSYN04801002 46/// /2815 11039 21050 30101 40112 52007=
0089010020999992014012105004+80050+016250FM-12+000899999V0202801N015019999999N999999999-00451-00571101161ADDMA1999990101051MD1210091+9990REMSYN04801002 46/// /2815 11045 21057 30105 40116 52009=
0132010020999992014012106004+80050+016250FM-12+000899999V0202701N012019999999N999999999-00461-00601101231ADDKA1240N-00481MA1999990101121MD1210141+9990OD139902001999REMSYN06401002 46/// /2712 11046 21060 30112 40123 52014 333 21048 91120=
0089010020999992014012107004+80050+016250FM-12+000899999V0202801N009019999999N999999999-00471-00611101311ADDMA1999990101211MD1110191+9990REMSYN04801002 46/// /2809 11047 21061 30121 40131 51019=
0089010020999992014012108004+80050+016250FM-12+000899999V0202701N008019999999N999999999-00501-00621101381ADDMA1999990101271MD1210221+9990REMSYN04801002 46/// /2708 11050 21062 30127 40138 52022=
0089010020999992014012109004+80050+016250FM-12+000899999V0202701N009019999999N999999999-00491-00601101441ADDMA1999990101331MD1210211+9990REMSYN04801002 46/// /2709 11049 21060 30133 40144 52021=
0089010020999992014012111004+80050+016250FM-12+000899999V0202801N007019999999N999999999-00511-00591101541ADDMA1999990101431MD1210161+9990REMSYN04801002 46/// /2807 11051 21059 30143 40154 52016=
0089010020999992014012112004+80050+016250FM-12+000899999V0202701N007019999999N999999999-00511-00591101581ADDMA1999990101471MD1210141+9990REMSYN04801002 46/// /2707 11051 21059 30147 40158 52014=
0089010020999992014012113004+80050+016250FM-12+000899999V0202801N006019999999N999999999-00491-00631101631ADDMA1999990101521MD1210131+9990REMSYN04801002 46/// /2806 11049 21063 30152 40163 52013=
0089010020999992014012114004+80050+016250FM-12+000899999V0202701N006019999999N999999999-00451-00631101631ADDMA1999990101521MD1310081+9990REMSYN04801002 46/// /2706 11045 21063 30152 40163 53008=
0089010020999992014012115004+80050+016250FM-12+000899999V0202801N005019999999N999999999-00431-00581101641ADDMA1999990101531MD1310051+9990REMSYN04801002 46/// /2805 11043 21058 30153 40164 53005=
0089010020999992014012117004+80050+016250FM-12+000899999V0202501N003019999999N999999999-00431-00751101671ADDMA1999990101561MD1210041+9990REMSYN04801002 46/// /2503 11043 21075 30156 40167 52004=
0113010020999992014012118004+80050+016250FM-12+000899999V0201801N003019999999N999999999-00671-00951101681ADDMA1999990101571MD1210041+9990OD139900801999REMSYN05801002 46/// /1803 11067 21095 30157 40168 52004 333 91108=
