0089010060999992014010101004+78250+022817FM-12+001499999V0202401N003019999999N999999999-01361-01591102391ADDMA1999990102221MD1610041+9990REMSYN04801006 46/// /2403 11136 21159 30222 40239 56004=
0089010060999992014010102004+78250+022817FM-12+001499999V0201401N002019999999N999999999-01421-01691102371ADDMA1999990102211MD1710061+9990REMSYN04801006 46/// /1402 11142 21169 30221 40237 57006=
0089010060999992014010104004+78250+022817FM-12+001499999V0202101N004019999999N999999999-01071-01421102311ADDMA1999990102141MD1710081+9990REMSYN04801006 46/// /2104 11107 21142 30214 40231 57008=
0089010060999992014010105004+78250+022817FM-12+001499999V0201701N003019999999N999999999-01121-01411102261ADDMA1999990102091MD1710121+9990REMSYN04801006 46/// /1703 11112 21141 30209 40226 57012=
0113010060999992014010106004+78250+022817FM-12+001499999V0201801N005019999999N999999999-01001-01331102181ADDMA1999990102021MD1610141+9990OD139900701999REMSYN05801006 46/// /1805 11100 21133 30202 40218 56014 333 91107=
0089010060999992014010107004+78250+022817FM-12+001499999V0201801N006019999999N999999999-01041-01361102121ADDMA1999990101951MD1710191+9990REMSYN04801006 46/// /1806 11104 21136 30195 40212 57019=
0089010060999992014010108004+78250+022817FM-12+001499999V0202001N006019999999N999999999-00791-01071102101ADDMA1999990101931MD1810161+9990REMSYN04801006 46/// /2006 11079 21107 30193 40210 58016=
0089010060999992014010109004+78250+022817FM-12+001499999V0202001N006019999999N999999999-00731-01041102061ADDMA1999990101901MD1810121+9990REMSYN04801006 46/// /2006 11073 21104 30190 40206 58012=
0089010060999992014010110004+78250+022817FM-12+001499999V0202401N007019999999N999999999-00481-00771102081ADDMA1999990101921MD1810031+9990REMSYN04801006 46/// /2407 11048 21077 30192 40208 58003=
0089010060999992014010111004+78250+022817FM-12+001499999V0201801N005019999999N999999999-00651-00931102061ADDMA1999990101901MD1710031+9990REMSYN04801006 46/// /1805 11065 21093 30190 40206 57003=
0113010060999992014010112004+78250+022817FM-12+001499999V0202101N011019999999N999999999-00551-00781101981ADDMA1999990101821MD1610081+9990OD139901301999REMSYN05801006 46/// /2111 11055 21078 30182 40198 56008 333 91113=
0089010060999992014010113004+78250+022817FM-12+001499999V0202101N007019999999N999999999-00601-00801102001ADDMA1999990101841MD1810081+9990REMSYN04801006 46/// /2107 11060 21080 30184 40200 58008=
0089010060999992014010114004+78250+022817FM-12+001499999V0202101N012019999999N999999999-00541-00781101931ADDMA1999990101761MD1710131+9990REMSYN04801006 46/// /2112 11054 21078 30176 40193 57013=
0089010060999992014010115004+78250+022817FM-12+001499999V0202201N008019999999N999999999-00501-00721101941ADDMA1999990101781MD1710041+9990REMSYN04801006 46/// /2208 11050 21072 30178 40194 57004=
0089010060999992014010118004+78250+022817FM-12+001499999V0202101N009019999999N999999999-00441-00711101931ADDMA1999990101771MD1510011+9990REMSYN04801006 46/// /2109 11044 21071 30177 40193 55001=
0089010060999992014010119004+78250+022817FM-12+001499999V0202301N012019999999N999999999-00361-00671101891ADDMA1999990101721MD1710101+9990REMSYN04801006 46/// /2312 11036 21067 30172 40189 57010=
0089010060999992014010120004+78250+022817FM-12+001499999V0202201N012019999999N999999999-00401-00671101881ADDMA1999990101721MD1710061+9990REMSYN04801006 46/// /2212 11040 21067 30172 40188 57006=
0089010060999992014010121004+78250+022817FM-12+001499999V0202001N013019999999N999999999-00381-00701101881ADDMA1999990101721MD1810051+9990REMSYN04801006 46/// /2013 11038 21070 30172 40188 58005=
0089010060999992014010122004+78250+022817FM-12+001499999V0202201N014019999999N999999999-00341-00741101921ADDMA1999990101761MD1110031+9990REMSYN04801006 46/// /2214 11034 21074 30176 40192 51003=
0089010060999992014010123004+78250+022817FM-12+001499999V0201901N010019999999N999999999-00481-00861101961ADDMA1999990101791MD1110071+9990REMSYN04801006 46/// /1910 11048 21086 30179 40196 51007=
0113010060999992014010200004+78250+022817FM-12+001499999V0202101N010019999999N999999999-00481-00861101991ADDMA1999990101831MD1210111+9990OD139902001999REMSYN05801006 46/// /2110 11048 21086 30183 40199 52011 333 91120=
0089010060999992014010201004+78250+022817FM-12+001499999V0202101N010019999999N999999999-00501-00831101951ADDMA1999990101791MD1310031+9990REMSYN04801006 46/// /2110 11050 21083 30179 40195 53003=
0089010060999992014010202004+78250+022817FM-12+001499999V0202201N011019999999N999999999-00571-00871101941ADDMA1999990101771MD1510021+9990REMSYN04801006 46/// /2211 11057 21087 30177 40194 55002=
0089010060999992014010203004+78250+022817FM-12+001499999V0202301N011019999999N999999999-00481-00751101941ADDMA1999990101781MD1810051+9990REMSYN04801006 46/// /2311 11048 21075 30178 40194 58005=
0108010060999992014010204004+78250+022817FM-12+001499999V0202201N009019999999N999999999-00551-00811101931ADDMA1999990101771MD1790029+9990REMSYN04801006 46/// /2209 11055 21081 30177 40193 54002=EQDQ01.2    3APC3  
0089010060999992014010205004+78250+022817FM-12+001499999V0202201N009019999999N999999999-00431-00801101971ADDMA1999990101811MD1110041+9990REMSYN04801006 46/// /2209 11043 21080 30181 40197 51004=
0151010060999992014010206004+78250+022817FM-12+001499999V0202201N009019999999N999999999-00371-00771101971ADDKA1240N-00661MA1999990101811MD1290039+9990OD139901401999REMSYN06401006 46/// /2209 11037 21077 30181 40197 54003 333 21066 91114=EQDQ01.3    3APC3  
0089010060999992014010207004+78250+022817FM-12+001499999V0202201N007019999999N999999999-00471-00871102011ADDMA1999990101851MD1210081+9990REMSYN04801006 46/// /2207 11047 21087 30185 40201 52008=
0089010060999992014010208004+78250+022817FM-12+001499999V0202301N008019999999N999999999-00381-00761102021ADDMA1999990101861MD1210051+9990REMSYN04801006 46/// /2308 11038 21076 30186 40202 52005=
0089010060999992014010209004+78250+022817FM-12+001499999V0202601N004019999999N999999999-00641-01011102081ADDMA1999990101921MD1210111+9990REMSYN04801006 46/// /2604 11064 21101 30192 40208 52011=
0089010060999992014010210004+78250+022817FM-12+001499999V0202401N005019999999N999999999-00481-00891102091ADDMA1999990101931MD1210081+9990REMSYN04801006 46/// /2405 11048 21089 30193 40209 52008=
0089010060999992014010211004+78250+022817FM-12+001499999V0202101N006019999999N999999999-00641-01001102081ADDMA1999990101921MD1310061+9990REMSYN04801006 46/// /2106 11064 21100 30192 40208 53006=
0132010060999992014010212004+78250+022817FM-12+001499999V0202201N007019999999N999999999-00601-01021102071ADDMA1999990101911MD1790019+9990OD139901101999REMSYN05801006 46/// /2207 11060 21102 30191 40207 54002 333 91111=EQDQ01.2    3APC3  
0089010060999992014010213004+78250+022817FM-12+001499999V0202201N007019999999N999999999-00651-01061102061ADDMA1999990101891MD1710041+9990REMSYN04801006 46/// /2207 11065 21106 30189 40206 57004=
0089010060999992014010214004+78250+022817FM-12+001499999V0202101N008019999999N999999999-00691-01101102051ADDMA1999990101881MD1710031+9990REMSYN04801006 46/// /2108 11069 21110 30188 40205 57003=
0089010060999992014010215004+78250+022817FM-12+001499999V0202101N009019999999N999999999-00581-01001102031ADDMA1999990101871MD1710041+9990REMSYN04801006 46/// /2109 11058 21100 30187 40203 57004=
0089010060999992014010216004+78250+022817FM-12+001499999V0202101N005019999999N999999999-00611-01051102051ADDMA1999990101891MD1900001+9990REMSYN04801006 46/// /2105 11061 21105 30189 40205 50000=
0089010060999992014010217004+78250+022817FM-12+001499999V0202001N008019999999N999999999-00571-00921102011ADDMA1999990101851MD1710031+9990REMSYN04801006 46/// /2008 11057 21092 30185 40201 57003=
0132010060999992014010218004+78250+022817FM-12+001499999V0202101N006019999999N999999999-00781-01171102011ADDKA1120M-00361MA1999990101841MD1510021+9990OD139901001999REMSYN06401006 46/// /2106 11078 21117 30184 40201 55002 333 11036 91110=
0089010060999992014010219004+78250+022817FM-12+001499999V0202101N007019999999N999999999-00541-00891102001ADDMA1999990101831MD1710061+9990REMSYN04801006 46/// /2107 11054 21089 30183 40200 57006=
0089010060999992014010220004+78250+022817FM-12+001499999V0202101N008019999999N999999999-00551-00851102011ADDMA1999990101851MD1410001+9990REMSYN04801006 46/// /2108 11055 21085 30185 40201 54000=
0108010060999992014010221004+78250+022817FM-12+001499999V0202201N006019999999N999999999-00621-00881102031ADDMA1999990101871MD1290029+9990REMSYN04801006 46/// /2206 11062 21088 30187 40203 54002=EQDQ01.2    3APC3  
0108010060999992014010222004+78250+022817FM-12+001499999V0202201N005019999999N999999999-00551-00811102031ADDMA1999990101861MD1290039+9990REMSYN04801006 46/// /2205 11055 21081 30186 40203 54003=EQDQ01.3    3APC3  
0089010060999992014010223004+78250+022817FM-12+001499999V0202101N005019999999N999999999-00541-00781102011ADDMA1999990101851MD1410001+9990REMSYN04801006 46/// /2105 11054 21078 30185 40201 54000=
0132010060999992014010300004+78250+022817FM-12+001499999V0202201N004019999999N999999999-00451-00711102011ADDMA1999990101851MD1790029+9990OD139900901999REMSYN05801006 46/// /2204 11045 21071 30185 40201 54002 333 91109=EQDQ01.2    3APC3  
0089010060999992014010301004+78250+022817FM-12+001499999V0202201N004019999999N999999999-00451-00711101971ADDMA1999990101811MD1610061+9990REMSYN04801006 46/// /2204 11045 21071 30181 40197 56006=
0089010060999992014010302004+78250+022817FM-12+001499999V0202201N004019999999N999999999-00431-00691101961ADDMA1999990101801MD1710051+9990REMSYN04801006 46/// /2204 11043 21069 30180 40196 57005=
0089010060999992014010303004+78250+022817FM-12+001499999V0202201N003019999999N999999999-00401-00701101931ADDMA1999990101761MD1710081+9990REMSYN04801006 46/// /2203 11040 21070 30176 40193 57008=
0089010060999992014010304004+78250+022817FM-12+001499999V0201801N005019999999N999999999-00391-00711101901ADDMA1999990101741MD1710061+9990REMSYN04801006 46/// /1805 11039 21071 30174 40190 57006=
0089010060999992014010305004+78250+022817FM-12+001499999V0201801N005019999999N999999999-00381-00751101881ADDMA1999990101721MD1710081+9990REMSYN04801006 46/// /1805 11038 21075 30172 40188 57008=
0132010060999992014010306004+78250+022817FM-12+001499999V0201801N005019999999N999999999-00381-00781101881ADDKA1240N-00761MA1999990101721MD1710041+9990OD139900601999REMSYN06401006 46/// /1805 11038 21078 30172 40188 57004 333 21076 91106=
0108010060999992014010307004+78250+022817FM-12+001499999V0202001N005019999999N999999999-00291-00831101891ADDMA1999990101731MD1790019+9990REMSYN04801006 46/// /2005 11029 21083 30173 40189 54001=EQDQ01.1    3APC3  
0108010060999992014010308004+78250+022817FM-12+001499999V0202001N003019999999N999999999-00381-00791101901ADDMA1999990101741MD1290029+9990REMSYN04801006 46/// /2003 11038 21079 30174 40190 54002=EQDQ01.2    3APC3  
0108010060999992014010309004+78250+022817FM-12+001499999V0202101N003019999999N999999999-00261-00851101901ADDMA1999990101741MD1290029+9990REMSYN04801006 46/// /2103 11026 21085 30174 40190 54001=EQDQ01.1    3APC3  
0108010060999992014010310004+78250+022817FM-12+001499999V0201401N002019999999N999999999-00401-00811101911ADDMA1999990101751MD1290029+9990REMSYN04801006 46/// /1402 11040 21081 30175 40191 54002=EQDQ01.2    3APC3  
0108010060999992014010311004+78250+022817FM-12+001499999V0201501N002019999999N999999999-00321-00841101891ADDMA1999990101731MD1790019+9990REMSYN04801006 46/// /1502 11032 21084 30173 40189 54002=EQDQ01.2    3APC3  
0113010060999992014010312004+78250+022817FM-12+001499999V0201401N002019999999N999999999-00321-00701101851ADDMA1999990101691MD1610041+9990OD139900701999REMSYN05801006 46/// /1402 11032 21070 30169 40185 56004 333 91107=
0089010060999992014010313004+78250+022817FM-12+001499999V0201601N003019999999N999999999-00361-00761101841ADDMA1999990101681MD1710071+9990REMSYN04801006 46/// /1603 11036 21076 30168 40184 57007=
0089010060999992014010314004+78250+022817FM-12+001499999V0201501N001019999999N999999999-00311-00831101811ADDMA1999990101651MD1710081+9990REMSYN04801006 46/// /1501 11031 21083 30165 40181 57008=
0089010060999992014010315004+78250+022817FM-12+001499999V0201201N002019999999N999999999-00281-00771101781ADDMA1999990101621MD1710071+9990REMSYN04801006 46/// /1202 11028 21077 30162 40178 57007=
0089010060999992014010316004+78250+022817FM-12+001499999V0201301N002019999999N999999999-00321-00771101761ADDMA1999990101601MD1710071+9990REMSYN04801006 46/// /1302 11032 21077 30160 40176 57007=
0089010060999992014010317004+78250+022817FM-12+001499999V0201201N001019999999N999999999-00311-00781101731ADDMA1999990101571MD1710071+9990REMSYN04801006 46/// /1201 11031 21078 30157 40173 57007=
0132010060999992014010318004+78250+022817FM-12+001499999V0201401N001019999999N999999999-00301-00731101711ADDKA1120M-00211MA1999990101551MD1710071+9990OD139900401999REMSYN06401006 46/// /1401 11030 21073 30155 40171 57007 333 11021 91104=
0089010060999992014010319004+78250+022817FM-12+001499999V0200901N001019999999N999999999-00321-00721101681ADDMA1999990101521MD1710091+9990REMSYN04801006 46/// /0901 11032 21072 30152 40168 57009=
0089010060999992014010320004+78250+022817FM-12+001499999V0201401N001019999999N999999999-00341-00721101661ADDMA1999990101501MD1710071+9990REMSYN04801006 46/// /1401 11034 21072 30150 40166 57007=
0089010060999992014010321004+78250+022817FM-12+001499999V0200901N002019999999N999999999-00321-00641101661ADDMA1999990101501MD1810051+9990REMSYN04801006 46/// /0902 11032 21064 30150 40166 58005=
0108010060999992014010322004+78250+022817FM-12+001499999V0201301N002019999999N999999999-00381-00641101661ADDMA1999990101501MD1790029+9990REMSYN04801006 46/// /1302 11038 21064 30150 40166 54002=EQDQ01.2    3APC3  
0108010060999992014010323004+78250+022817FM-12+001499999V0200901N004019999999N999999999-00341-00621101631ADDMA1999990101471MD1790039+9990REMSYN04801006 46/// /0904 11034 21062 30147 40163 54002=EQDQ01.2    3APC3  
0113010060999992014010400004+78250+022817FM-12+001499999V0209999C999999999999N999999999-00371-00601101621ADDMA1999990101461MD1710031+9990OD139900701999REMSYN05801006 46/// /0000 11037 21060 30146 40162 57003 333 91107=
0089010060999992014010401004+78250+022817FM-12+001499999V0200501N001019999999N999999999-00431-00611101611ADDMA1999990101451MD1710051+9990REMSYN04801006 46/// /0501 11043 21061 30145 40161 57005=
0108010060999992014010402004+78250+022817FM-12+001499999V0201701N001019999999N999999999-00491-00611101611ADDMA1999990101451MD1790029+9990REMSYN04801006 46/// /1701 11049 21061 30145 40161 54002=EQDQ01.2    3APC3  
0108010060999992014010403004+78250+022817FM-12+001499999V0200301N004019999999N999999999-00561-00681101601ADDMA1999990101441MD1790029+9990REMSYN04801006 46/// /0304 11056 21068 30144 40160 54003=EQDQ01.3    3APC3  
0108010060999992014010404004+78250+022817FM-12+001499999V0200301N005019999999N999999999-00601-00721101601ADDMA1999990101431MD1790019+9990REMSYN04801006 46/// /0305 11060 21072 30143 40160 54001=EQDQ01.1    3APC3  
0108010060999992014010405004+78250+022817FM-12+001499999V0200501N005019999999N999999999-00661-00771101601ADDMA1999990101431MD1790019+9990REMSYN04801006 46/// /0505 11066 21077 30143 40160 54002=EQDQ01.2    3APC3  
0151010060999992014010406004+78250+022817FM-12+001499999V0200101N005019999999N999999999-00731-00841101611ADDKA1240N-00731MA1999990101451MD1290019+9990OD139900601999REMSYN06401006 46/// /0105 11073 21084 30145 40161 54001 333 21073 91106=EQDQ01.1    3APC3  
0108010060999992014010407004+78250+022817FM-12+001499999V0200101N005019999999N999999999-00761-00871101631ADDMA1999990101461MD1290039+9990REMSYN04801006 46/// /0105 11076 21087 30146 40163 54003=EQDQ01.3    3APC3  
0089010060999992014010408004+78250+022817FM-12+001499999V0200301N004019999999N999999999-00761-00871101651ADDMA1999990101491MD1210061+9990REMSYN04801006 46/// /0304 11076 21087 30149 40165 52006=
0089010060999992014010409004+78250+022817FM-12+001499999V0200501N005019999999N999999999-00761-00871101671ADDMA1999990101511MD1210061+9990REMSYN04801006 46/// /0505 11076 21087 30151 40167 52006=
0089010060999992014010410004+78250+022817FM-12+001499999V0200201N004019999999N999999999-00791-00901101711ADDMA1999990101551MD1210081+9990REMSYN04801006 46/// /0204 11079 21090 30155 40171 52008=
0089010060999992014010411004+78250+022817FM-12+001499999V0200501N005019999999N999999999-00831-00981101731ADDMA1999990101571MD1210081+9990REMSYN04801006 46/// /0505 11083 21098 30157 40173 52008=
0113010060999992014010412004+78250+022817FM-12+001499999V0200601N006019999999N999999999-00861-01001101711ADDMA1999990101551MD1310041+9990OD139900901999REMSYN05801006 46/// /0606 11086 21100 30155 40171 53004 333 91109=
0089010060999992014010413004+78250+022817FM-12+001499999V0200501N005019999999N999999999-00901-01041101761ADDMA1999990101601MD1210051+9990REMSYN04801006 46/// /0505 11090 21104 30160 40176 52005=
0089010060999992014010414004+78250+022817FM-12+001499999V0200601N005019999999N999999999-00961-01131101771ADDMA1999990101611MD1210041+9990REMSYN04801006 46/// /0605 11096 21113 30161 40177 52004=
0089010060999992014010415004+78250+022817FM-12+001499999V0200701N009019999999N999999999-01031-01221101731ADDMA1999990101561MD1510011+9990REMSYN04801006 46/// /0709 11103 21122 30156 40173 55001=
0089010060999992014010416004+78250+022817FM-12+001499999V0200301N008019999999N999999999-01161-01341101781ADDMA1999990101611MD1900021+9990REMSYN04801006 46/// /0308 11116 21134 30161 40178 50002=
0089010060999992014010417004+78250+022817FM-12+001499999V0200201N007019999999N999999999-01241-01381101831ADDMA1999990101661MD1900051+9990REMSYN04801006 46/// /0207 11124 21138 30166 40183 50005=
0132010060999992014010418004+78250+022817FM-12+001499999V0200301N009019999999N999999999-01301-01481101841ADDKA1120M-00731MA1999990101681MD1310121+9990OD139901001999REMSYN06401006 46/// /0309 11130 21148 30168 40184 53012 333 11073 91110=
0089010060999992014010419004+78250+022817FM-12+001499999V0200501N007019999999N999999999-01341-01501101921ADDMA1999990101761MD1210141+9990REMSYN04801006 46/// /0507 11134 21150 30176 40192 52014=
0089010060999992014010420004+78250+022817FM-12+001499999V0200501N006019999999N999999999-01371-01571101961ADDMA1999990101801MD1210131+9990REMSYN04801006 46/// /0506 11137 21157 30180 40196 52013=
0089010060999992014010421004+78250+022817FM-12+001499999V0200601N006019999999N999999999-01361-01521101981ADDMA1999990101811MD1310131+9990REMSYN04801006 46/// /0606 11136 21152 30181 40198 53013=
0089010060999992014010422004+78250+022817FM-12+001499999V0200501N007019999999N999999999-01361-01621101981ADDMA1999990101811MD1310061+9990REMSYN04801006 46/// /0507 11136 21162 30181 40198 53006=
0089010060999992014010423004+78250+022817FM-12+001499999V0200501N007019999999N999999999-01321-01511101941ADDMA1999990101771MD1510021+9990REMSYN04801006 46/// /0507 11132 21151 30177 40194 55002=
0132010060999992014010500004+78250+022817FM-12+001499999V0200501N008019999999N999999999-01401-01611101971ADDMA1999990101801MD1790019+9990OD139901101999REMSYN05801006 46/// /0508 11140 21161 30180 40197 54001 333 91111=EQDQ01.1    3APC3  
0089010060999992014010501004+78250+022817FM-12+001499999V0200601N008019999999N999999999-01401-01641101961ADDMA1999990101791MD1900021+9990REMSYN04801006 46/// /0608 11140 21164 30179 40196 50002=
0108010060999992014010502004+78250+022817FM-12+001499999V0200401N007019999999N999999999-01361-01591101961ADDMA1999990101791MD1290029+9990REMSYN04801006 46/// /0407 11136 21159 30179 40196 54002=EQDQ01.2    3APC3  
0108010060999992014010503004+78250+022817FM-12+001499999V0200501N009019999999N999999999-01381-01651101951ADDMA1999990101781MD1790029+9990REMSYN04801006 46/// /0509 11138 21165 30178 40195 54002=EQDQ01.2    3APC3  
0108010060999992014010504004+78250+022817FM-12+001499999V0200601N008019999999N999999999-01341-01601101931ADDMA1999990101761MD1790039+9990REMSYN04801006 46/// /0608 11134 21160 30176 40193 54003=EQDQ01.3    3APC3  
0108010060999992014010505004+78250+022817FM-12+001499999V0200401N008019999999N999999999-01371-01601101941ADDMA1999990101771MD1790029+9990REMSYN04801006 46/// /0408 11137 21160 30177 40194 54002=EQDQ01.2    3APC3  
0132010060999992014010506004+78250+022817FM-12+001499999V0200501N008019999999N999999999-01431-01671101961ADDKA1240N-01441MA1999990101801MD1900021+9990OD139901101999REMSYN06401006 46/// /0508 11143 21167 30180 40196 50002 333 21144 91111=
0089010060999992014010507004+78250+022817FM-12+001499999V0200601N007019999999N999999999-01451-01731102001ADDMA1999990101831MD1210071+9990REMSYN04801006 46/// /0607 11145 21173 30183 40200 52007=
0089010060999992014010508004+78250+022817FM-12+001499999V0200601N006019999999N999999999-01391-01661102021ADDMA1999990101851MD1210081+9990REMSYN04801006 46/// /0606 11139 21166 30185 40202 52008=
0089010060999992014010509004+78250+022817FM-12+001499999V0200601N007019999999N999999999-01351-01631102031ADDMA1999990101871MD1210071+9990REMSYN04801006 46/// /0607 11135 21163 30187 40203 52007=
0089010060999992014010510004+78250+022817FM-12+001499999V0200701N007019999999N999999999-01391-01671102081ADDMA1999990101911MD1210081+9990REMSYN04801006 46/// /0707 11139 21167 30191 40208 52008=
0089010060999992014010511004+78250+022817FM-12+001499999V0200701N007019999999N999999999-01421-01651102101ADDMA1999990101931MD1210081+9990REMSYN04801006 46/// /0707 11142 21165 30193 40210 52008=
0113010060999992014010512004+78250+022817FM-12+001499999V0200801N008019999999N999999999-01381-01641102091ADDMA1999990101931MD1310061+9990OD139901101999REMSYN05801006 46/// /0808 11138 21164 30193 40209 53006 333 91111=
0089010060999992014010513004+78250+022817FM-12+001499999V0200801N007019999999N999999999-01361-01621102111ADDMA1999990101941MD1210031+9990REMSYN04801006 46/// /0807 11136 21162 30194 40211 52003=
0089010060999992014010514004+78250+022817FM-12+001499999V0200901N006019999999N999999999-01351-01611102141ADDMA1999990101971MD1210041+9990REMSYN04801006 46/// /0906 11135 21161 30197 40214 52004=
0089010060999992014010515004+78250+022817FM-12+001499999V0200701N007019999999N999999999-01331-01611102131ADDMA1999990101961MD1210031+9990REMSYN04801006 46/// /0707 11133 21161 30196 40213 52003=
0089010060999992014010516004+78250+022817FM-12+001499999V0200701N006019999999N999999999-01311-01581102151ADDMA1999990101981MD1210031+9990REMSYN04801006 46/// /0706 11131 21158 30198 40215 52003=
0108010060999992014010517004+78250+022817FM-12+001499999V0200801N007019999999N999999999-01361-01661102161ADDMA1999990101991MD1290029+9990REMSYN04801006 46/// /0807 11136 21166 30199 40216 54002=EQDQ01.2    3APC3  
0132010060999992014010518004+78250+022817FM-12+001499999V0200801N006019999999N999999999-01381-01661102191ADDKA1120M-01311MA1999990102021MD1210061+9990OD139901001999REMSYN06401006 46/// /0806 11138 21166 30202 40219 52006 333 11131 91110=
0108010060999992014010519004+78250+022817FM-12+001499999V0200801N006019999999N999999999-01361-01621102171ADDMA1999990102001MD1290029+9990REMSYN04801006 46/// /0806 11136 21162 30200 40217 54003=EQDQ01.3    3APC3  
0089010060999992014010520004+78250+022817FM-12+001499999V0200801N005019999999N999999999-01371-01651102191ADDMA1999990102021MD1210031+9990REMSYN04801006 46/// /0805 11137 21165 30202 40219 52003=
0108010060999992014010521004+78250+022817FM-12+001499999V0200801N006019999999N999999999-01371-01641102201ADDMA1999990102031MD1290019+9990REMSYN04801006 46/// /0806 11137 21164 30203 40220 54002=EQDQ01.2    3APC3  
0089010060999992014010522004+78250+022817FM-12+001499999V0200701N006019999999N999999999-01411-01691102241ADDMA1999990102071MD1210071+9990REMSYN04801006 46/// /0706 11141 21169 30207 40224 52007=
0089010060999992014010523004+78250+022817FM-12+001499999V0200801N006019999999N999999999-01371-01611102231ADDMA1999990102061MD1210041+9990REMSYN04801006 46/// /0806 11137 21161 30206 40223 52004=
0113010060999992014010600004+78250+022817FM-12+001499999V0200901N005019999999N999999999-01351-01581102241ADDMA1999990102071MD1310041+9990OD139900901999REMSYN05801006 46/// /0905 11135 21158 30207 40224 53004 333 91109=
0108010060999992014010601004+78250+022817FM-12+001499999V0200901N005019999999N999999999-01291-01521102221ADDMA1999990102061MD1790029+9990REMSYN04801006 46/// /0905 11129 21152 30206 40222 54002=EQDQ01.2    3APC3  
0108010060999992014010602004+78250+022817FM-12+001499999V0200801N005019999999N999999999-01291-01531102241ADDMA1999990102071MD1290019+9990REMSYN04801006 46/// /0805 11129 21153 30207 40224 54001=EQDQ01.1    3APC3  
0089010060999992014010603004+78250+022817FM-12+001499999V0200801N004019999999N999999999-01291-01511102271ADDMA1999990102111MD1110041+9990REMSYN04801006 46/// /0804 11129 21151 30211 40227 51004=
0089010060999992014010604004+78250+022817FM-12+001499999V0200701N004019999999N999999999-01311-01571102261ADDMA1999990102101MD1210041+9990REMSYN04801006 46/// /0704 11131 21157 30210 40226 52004=
0089010060999992014010605004+78250+022817FM-12+001499999V0200801N004019999999N999999999-01341-01531102261ADDMA1999990102101MD1510031+9990REMSYN04801006 46/// /0804 11134 21153 30210 40226 55003=
0132010060999992014010606004+78250+022817FM-12+001499999V0201001N004019999999N999999999-01371-01561102291ADDKA1240N-01411MA1999990102121MD1900011+9990OD139900701999REMSYN06401006 46/// /1004 11137 21156 30212 40229 50001 333 21141 91107=
0089010060999992014010607004+78250+022817FM-12+001499999V0200901N005019999999N999999999-01451-01641102331ADDMA1999990102161MD1110061+9990REMSYN04801006 46/// /0905 11145 21164 30216 40233 51006=
0089010060999992014010608004+78250+022817FM-12+001499999V0200701N006019999999N999999999-01551-01791102361ADDMA1999990102191MD1210101+9990REMSYN04801006 46/// /0706 11155 21179 30219 40236 52010=
0089010060999992014010609004+78250+022817FM-12+001499999V0200801N005019999999N999999999-01621-01871102401ADDMA1999990102231MD1210111+9990REMSYN04801006 46/// /0805 11162 21187 30223 40240 52011=
0089010060999992014010610004+78250+022817FM-12+001499999V0200701N004019999999N999999999-01661-01881102421ADDMA1999990102251MD1210091+9990REMSYN04801006 46/// /0704 11166 21188 30225 40242 52009=
0089010060999992014010611004+78250+022817FM-12+001499999V0200801N004019999999N999999999-01711-01911102451ADDMA1999990102281MD1210081+9990REMSYN04801006 46/// /0804 11171 21191 30228 40245 52008=
0113010060999992014010612004+78250+022817FM-12+001499999V0200601N004019999999N999999999-01681-01831102441ADDMA1999990102271MD1310041+9990OD139900801999REMSYN05801006 46/// /0604 11168 21183 30227 40244 53004 333 91108=
0108010060999992014010613004+78250+022817FM-12+001499999V0200401N005019999999N999999999-01681-01841102451ADDMA1999990102281MD1290039+9990REMSYN04801006 46/// /0405 11168 21184 30228 40245 54003=EQDQ01.3    3APC3  
0108010060999992014010614004+78250+022817FM-12+001499999V0200701N005019999999N999999999-01671-01811102461ADDMA1999990102291MD1290019+9990REMSYN04801006 46/// /0705 11167 21181 30229 40246 54001=EQDQ01.1    3APC3  
0089010060999992014010615004+78250+022817FM-12+001499999V0200801N006019999999N999999999-01701-01861102491ADDMA1999990102321MD1210051+9990REMSYN04801006 46/// /0806 11170 21186 30232 40249 52005=
0089010060999992014010616004+78250+022817FM-12+001499999V0201001N003019999999N999999999-01691-01861102511ADDMA1999990102341MD1210061+9990REMSYN04801006 46/// /1003 11169 21186 30234 40251 52006=
0089010060999992014010617004+78250+022817FM-12+001499999V0200801N004019999999N999999999-01691-01861102531ADDMA1999990102361MD1210061+9990REMSYN04801006 46/// /0804 11169 21186 30236 40253 52006=
0132010060999992014010618004+78250+022817FM-12+001499999V0201201N003019999999N999999999-01711-01881102541ADDKA1120M-01371MA1999990102371MD1210061+9990OD139900701999REMSYN06401006 46/// /1203 11171 21188 30237 40254 52006 333 11137 91107=
0089010060999992014010619004+78250+022817FM-12+001499999V0200801N004019999999N999999999-01741-01911102551ADDMA1999990102381MD1210041+9990REMSYN04801006 46/// /0804 11174 21191 30238 40255 52004=
0089010060999992014010620004+78250+022817FM-12+001499999V0200801N003019999999N999999999-01761-01931102581ADDMA1999990102411MD1210051+9990REMSYN04801006 46/// /0803 11176 21193 30241 40258 52005=
0089010060999992014010621004+78250+022817FM-12+001499999V0200801N003019999999N999999999-01811-01991102621ADDMA1999990102451MD1110081+9990REMSYN04801006 46/// /0803 11181 21199 30245 40262 51008=
0089010060999992014010622004+78250+022817FM-12+001499999V0200901N004019999999N999999999-01831-02011102631ADDMA1999990102461MD1210091+9990REMSYN04801006 46/// /0904 11183 21201 30246 40263 52009=
0089010060999992014010623004+78250+022817FM-12+001499999V0200801N004019999999N999999999-01861-02041102641ADDMA1999990102471MD1310061+9990REMSYN04801006 46/// /0804 11186 21204 30247 40264 53006=
0132010060999992014010700004+78250+022817FM-12+001499999V0200801N004019999999N999999999-01901-02081102631ADDMA1999990102461MD1290019+9990OD139900501999REMSYN05801006 46/// /0804 11190 21208 30246 40263 54001 333 91105=EQDQ01.1    3APC3  
0108010060999992014010701004+78250+022817FM-12+001499999V0200801N004019999999N999999999-01931-02111102661ADDMA1999990102491MD1290039+9990REMSYN04801006 46/// /0804 11193 21211 30249 40266 54003=EQDQ01.3    3APC3  
0089010060999992014010702004+78250+022817FM-12+001499999V0200801N003019999999N999999999-01941-02121102671ADDMA1999990102501MD1210031+9990REMSYN04801006 46/// /0803 11194 21212 30250 40267 52003=
0089010060999992014010703004+78250+022817FM-12+001499999V0200601N003019999999N999999999-01951-02141102671ADDMA1999990102501MD1310041+9990REMSYN04801006 46/// /0603 11195 21214 30250 40267 53004=
0089010060999992014010704004+78250+022817FM-12+001499999V0201101N003019999999N999999999-01971-02151102671ADDMA1999990102491MD1410001+9990REMSYN04801006 46/// /1103 11197 21215 30249 40267 54000=
0089010060999992014010705004+78250+022817FM-12+001499999V0200801N003019999999N999999999-01931-02111102671ADDMA1999990102501MD1410001+9990REMSYN04801006 46/// /0803 11193 21211 30250 40267 54000=
0151010060999992014010706004+78250+022817FM-12+001499999V0200801N004019999999N999999999-01911-02091102651ADDKA1240N-01981MA1999990102481MD1790029+9990OD139900501999REMSYN06401006 46/// /0804 11191 21209 30248 40265 54002 333 21198 91105=EQDQ01.2    3APC3  
0089010060999992014010707004+78250+022817FM-12+001499999V0200801N004019999999N999999999-01931-02141102691ADDMA1999990102521MD1900031+9990REMSYN04801006 46/// /0804 11193 21214 30252 40269 50003=
0089010060999992014010708004+78250+022817FM-12+001499999V0200801N003019999999N999999999-01961-02171102731ADDMA1999990102561MD1110061+9990REMSYN04801006 46/// /0803 11196 21217 30256 40273 51006=
0089010060999992014010709004+78250+022817FM-12+001499999V0200801N002019999999N999999999-01991-02171102751ADDMA1999990102581MD1210101+9990REMSYN04801006 46/// /0802 11199 21217 30258 40275 52010=
0089010060999992014010710004+78250+022817FM-12+001499999V0200801N002019999999N999999999-02021-02211102781ADDMA1999990102611MD1210091+9990REMSYN04801006 46/// /0802 11202 21221 30261 40278 52009=
0089010060999992014010711004+78250+022817FM-12+001499999V0201601N001019999999N999999999-02131-02311102801ADDMA1999990102631MD1210071+9990REMSYN04801006 46/// /1601 11213 21231 30263 40280 52007=
0113010060999992014010712004+78250+022817FM-12+001499999V0209999C999999999999N999999999-02151-02331102831ADDMA1999990102661MD1210081+9990OD139900501999REMSYN05801006 46/// /0000 11215 21233 30266 40283 52008 333 91105=
0089010060999992014010713004+78250+022817FM-12+001499999V0201301N001019999999N999999999-02161-02341102821ADDMA1999990102651MD1210041+9990REMSYN04801006 46/// /1301 11216 21234 30265 40282 52004=
0089010060999992014010714004+78250+022817FM-12+001499999V0202001N001019999999N999999999-02161-02341102821ADDMA1999990102651MD1510021+9990REMSYN04801006 46/// /2001 11216 21234 30265 40282 55002=
0108010060999992014010715004+78250+022817FM-12+001499999V0201501N001019999999N999999999-02151-02341102811ADDMA1999990102631MD1790029+9990REMSYN04801006 46/// /1501 11215 21234 30263 40281 54002=EQDQ01.2    3APC3  
0089010060999992014010716004+78250+022817FM-12+001499999V0201301N002019999999N999999999-02151-02341102821ADDMA1999990102651MD1410001+9990REMSYN04801006 46/// /1302 11215 21234 30265 40282 54000=
0108010060999992014010717004+78250+022817FM-12+001499999V0200901N003019999999N999999999-02011-02191102811ADDMA1999990102641MD1790019+9990REMSYN04801006 46/// /0903 11201 21219 30264 40281 54001=EQDQ01.1    3APC3  
0132010060999992014010718004+78250+022817FM-12+001499999V0201001N003019999999N999999999-02031-02211102851ADDKA1120M-01901MA1999990102671MD1210041+9990OD139900401999REMSYN06401006 46/// /1003 11203 21221 30267 40285 52004 333 11190 91104=
0108010060999992014010719004+78250+022817FM-12+001499999V0200801N003019999999N999999999-02011-02191102851ADDMA1999990102671MD1290039+9990REMSYN04801006 46/// /0803 11201 21219 30267 40285 54003=EQDQ01.3    3APC3  
0089010060999992014010720004+78250+022817FM-12+001499999V0200801N003019999999N999999999-02001-02181102861ADDMA1999990102691MD1210051+9990REMSYN04801006 46/// /0803 11200 21218 30269 40286 52005=
0089010060999992014010721004+78250+022817FM-12+001499999V0200801N003019999999N999999999-02001-02181102881ADDMA1999990102711MD1210031+9990REMSYN04801006 46/// /0803 11200 21218 30271 40288 52003=
0089010060999992014010722004+78250+022817FM-12+001499999V0200701N001019999999N999999999-02001-02191102891ADDMA1999990102711MD1210041+9990REMSYN04801006 46/// /0701 11200 21219 30271 40289 52004=
0089010060999992014010723004+78250+022817FM-12+001499999V0200301N001019999999N999999999-02011-02201102891ADDMA1999990102721MD1210031+9990REMSYN04801006 46/// /0301 11201 21220 30272 40289 52003=
0132010060999992014010800004+78250+022817FM-12+001499999V0200301N002019999999N999999999-02021-02201102901ADDMA1999990102731MD1290029+9990OD139900401999REMSYN05801006 46/// /0302 11202 21220 30273 40290 54002 333 91104=EQDQ01.2    3APC3  
0108010060999992014010801004+78250+022817FM-12+001499999V0200101N002019999999N999999999-02081-02261102911ADDMA1999990102741MD1290029+9990REMSYN04801006 46/// /0102 11208 21226 30274 40291 54002=EQDQ01.2    3APC3  
0089010060999992014010802004+78250+022817FM-12+001499999V0200301N002019999999N999999999-02091-02281102891ADDMA1999990102721MD1410001+9990REMSYN04801006 46/// /0302 11209 21228 30272 40289 54000=
0108010060999992014010803004+78250+022817FM-12+001499999V0200201N001019999999N999999999-02081-02271102891ADDMA1999990102711MD1790019+9990REMSYN04801006 46/// /0201 11208 21227 30271 40289 54001=EQDQ01.1    3APC3  
0089010060999992014010804004+78250+022817FM-12+001499999V0200101N001019999999N999999999-02091-02281102871ADDMA1999990102701MD1710031+9990REMSYN04801006 46/// /0101 11209 21228 30270 40287 57003=
0108010060999992014010805004+78250+022817FM-12+001499999V0203501N001019999999N999999999-02101-02291102871ADDMA1999990102691MD1790029+9990REMSYN04801006 46/// /3501 11210 21229 30269 40287 54002=EQDQ01.2    3APC3  
0132010060999992014010806004+78250+022817FM-12+001499999V0203301N002019999999N999999999-02091-02281102851ADDKA1240N-02121MA1999990102681MD1710031+9990OD139900301999REMSYN06401006 46/// /3302 11209 21228 30268 40285 57003 333 21212 91103=
0089010060999992014010807004+78250+022817FM-12+001499999V0202801N002019999999N999999999-02071-02261102831ADDMA1999990102651MD1710051+9990REMSYN04801006 46/// /2802 11207 21226 30265 40283 57005=
0089010060999992014010808004+78250+022817FM-12+001499999V0202501N002019999999N999999999-02091-02271102831ADDMA1999990102661MD1710041+9990REMSYN04801006 46/// /2502 11209 21227 30266 40283 57004=
0108010060999992014010809004+78250+022817FM-12+001499999V0202501N002019999999N999999999-02051-02231102831ADDMA1999990102651MD1790029+9990REMSYN04801006 46/// /2502 11205 21223 30265 40283 54003=EQDQ01.3    3APC3  
0108010060999992014010810004+78250+022817FM-12+001499999V0202401N001019999999N999999999-01921-02101102821ADDMA1999990102651MD1790019+9990REMSYN04801006 46/// /2401 11192 21210 30265 40282 54001=EQDQ01.1    3APC3  
0108010060999992014010811004+78250+022817FM-12+001499999V0202501N001019999999N999999999-01811-01981102801ADDMA1999990102631MD1790039+9990REMSYN04801006 46/// /2501 11181 21198 30263 40280 54003=EQDQ01.3    3APC3  
0113010060999992014010812004+78250+022817FM-12+001499999V0209999C999999999999N999999999-01761-01931102781ADDMA1999990102611MD1710041+9990OD139900301999REMSYN05801006 46/// /0000 11176 21193 30261 40278 57004 333 91103=
0089010060999992014010813004+78250+022817FM-12+001499999V0200301N001019999999N999999999-01731-01901102771ADDMA1999990102591MD1710051+9990REMSYN04801006 46/// /0301 11173 21190 30259 40277 57005=
0108010060999992014010814004+78250+022817FM-12+001499999V0209999C999999999999N999999999-01791-01961102771ADDMA1999990102601MD1790039+9990REMSYN04801006 46/// /0000 11179 21196 30260 40277 54003=EQDQ01.3    3APC3  
0089010060999992014010815004+78250+022817FM-12+001499999V0209999C999999999999N999999999-01831-02011102721ADDMA1999990102541MD1610071+9990REMSYN04801006 46/// /0000 11183 21201 30254 40272 56007=
0089010060999992014010816004+78250+022817FM-12+001499999V0209999C999999999999N999999999-01831-02011102671ADDMA1999990102501MD1610091+9990REMSYN04801006 46/// /0000 11183 21201 30250 40267 56009=
0089010060999992014010817004+78250+022817FM-12+001499999V0209999C999999999999N999999999-01831-02011102641ADDMA1999990102471MD1710131+9990REMSYN04801006 46/// /0000 11183 21201 30247 40264 57013=
0132010060999992014010818004+78250+022817FM-12+001499999V0209999C999999999999N999999999-01861-02041102621ADDKA1120M-01731MA1999990102451MD1710091+9990OD139900101999REMSYN06401006 46/// /0000 11186 21204 30245 40262 57009 333 11173 91101=
0089010060999992014010819004+78250+022817FM-12+001499999V0209999C999999999999N999999999-01881-02061102621ADDMA1999990102451MD1810051+9990REMSYN04801006 46/// /0000 11188 21206 30245 40262 58005=
0089010060999992014010820004+78250+022817FM-12+001499999V0209999C999999999999N999999999-01921-02101102641ADDMA1999990102471MD1900001+9990REMSYN04801006 46/// /0000 11192 21210 30247 40264 50000=
0089010060999992014010821004+78250+022817FM-12+001499999V0209999C999999999999N999999999-01911-02091102611ADDMA1999990102441MD1510011+9990REMSYN04801006 46/// /0000 11191 21209 30244 40261 55001=
0089010060999992014010822004+78250+022817FM-12+001499999V0209999C999999999999N999999999-01951-02141102591ADDMA1999990102421MD1610031+9990REMSYN04801006 46/// /0000 11195 21214 30242 40259 56003=
0089010060999992014010823004+78250+022817FM-12+001499999V0209999C999999999999N999999999-02011-02201102541ADDMA1999990102371MD1710101+9990REMSYN04801006 46/// /0000 11201 21220 30237 40254 57010=
0113010060999992014010900004+78250+022817FM-12+001499999V0209999C999999999999N999999999-02081-02281102551ADDMA1999990102381MD1810061+9990OD139900001999REMSYN05801006 46/// /0000 11208 21228 30238 40255 58006 333 91100=
0089010060999992014010901004+78250+022817FM-12+001499999V0209999C999999999999N999999999-02171-02371102541ADDMA1999990102361MD1710061+9990REMSYN04801006 46/// /0000 11217 21237 30236 40254 57006=
0089010060999992014010902004+78250+022817FM-12+001499999V0209999C999999999999N999999999-02211-02411102481ADDMA1999990102301MD1610071+9990REMSYN04801006 46/// /0000 11221 21241 30230 40248 56007=
0089010060999992014010903004+78250+022817FM-12+001499999V0209999C999999999999N999999999-02351-02571102461ADDMA1999990102281MD1710101+9990REMSYN04801006 46/// /0000 11235 21257 30228 40246 57010=
0089010060999992014010904004+78250+022817FM-12+001499999V0209999C999999999999N999999999-02201-02411102431ADDMA1999990102261MD1810101+9990REMSYN04801006 46/// /0000 11220 21241 30226 40243 58010=
0089010060999992014010905004+78250+022817FM-12+001499999V0209999C999999999999N999999999-02201-02411102401ADDMA1999990102221MD1710081+9990REMSYN04801006 46/// /0000 11220 21241 30222 40240 57008=
0132010060999992014010906004+78250+022817FM-12+001499999V0209999C999999999999N999999999-01971-02161102371ADDKA1240N-02381MA1999990102201MD1710081+9990OD139900001999REMSYN06401006 46/// /0000 11197 21216 30220 40237 57008 333 21238 91100=
0089010060999992014010907004+78250+022817FM-12+001499999V0209999C999999999999N999999999-01971-02161102341ADDMA1999990102171MD1710091+9990REMSYN04801006 46/// /0000 11197 21216 30217 40234 57009=
0089010060999992014010908004+78250+022817FM-12+001499999V0209999C999999999999N999999999-01801-01981102341ADDMA1999990102171MD1710051+9990REMSYN04801006 46/// /0000 11180 21198 30217 40234 57005=
0089010060999992014010909004+78250+022817FM-12+001499999V0209999C999999999999N999999999-01731-01901102271ADDMA1999990102101MD1610101+9990REMSYN04801006 46/// /0000 11173 21190 30210 40227 56010=
0089010060999992014010910004+78250+022817FM-12+001499999V0209999C999999999999N999999999-01631-01791102211ADDMA1999990102041MD1610131+9990REMSYN04801006 46/// /0000 11163 21179 30204 40221 56013=
0089010060999992014010911004+78250+022817FM-12+001499999V0209999C999999999999N999999999-01541-01701102131ADDMA1999990101971MD1710201+9990REMSYN04801006 46/// /0000 11154 21170 30197 40213 57020=
0113010060999992014010912004+78250+022817FM-12+001499999V0209999C999999999999N999999999-01261-01381102111ADDMA1999990101941MD1810151+9990OD139900001999REMSYN05801006 46/// /0000 11126 21138 30194 40211 58015 333 91100=
0089010060999992014010913004+78250+022817FM-12+001499999V0202401N002019999999N999999999-01001-01111102041ADDMA1999990101871MD1710171+9990REMSYN04801006 46/// /2402 11100 21111 30187 40204 57017=
0089010060999992014010914004+78250+022817FM-12+001499999V0202301N011019999999N999999999-00961-01071101891ADDMA1999990101731MD1610241+9990REMSYN04801006 46/// /2311 11096 21107 30173 40189 56024=
0089010060999992014010915004+78250+022817FM-12+001499999V0202201N011019999999N999999999-00931-01051101851ADDMA1999990101681MD1710261+9990REMSYN04801006 46/// /2211 11093 21105 30168 40185 57026=
0089010060999992014010916004+78250+022817FM-12+001499999V0202101N010019999999N999999999-00981-01141101751ADDMA1999990101591MD1810281+9990REMSYN04801006 46/// /2110 11098 21114 30159 40175 58028=
0089010060999992014010917004+78250+022817FM-12+001499999V0202201N011019999999N999999999-00841-01041101701ADDMA1999990101541MD1710191+9990REMSYN04801006 46/// /2211 11084 21104 30154 40170 57019=
0132010060999992014010918004+78250+022817FM-12+001499999V0202301N014019999999N999999999-00791-01041101651ADDKA1120M-00791MA1999990101491MD1810201+9990OD139901401999REMSYN06401006 46/// /2314 11079 21104 30149 40165 58020 333 11079 91114=
0089010060999992014010919004+78250+022817FM-12+001499999V0202301N012019999999N999999999-00731-01011101631ADDMA1999990101471MD1710121+9990REMSYN04801006 46/// /2312 11073 21101 30147 40163 57012=
0089010060999992014010920004+78250+022817FM-12+001499999V0202301N014019999999N999999999-00651-01011101531ADDMA1999990101371MD1610171+9990REMSYN04801006 46/// /2314 11065 21101 30137 40153 56017=
0089010060999992014010921004+78250+022817FM-12+001499999V0202301N015019999999N999999999-00621-00881101421ADDMA1999990101261MD1610231+9990REMSYN04801006 46/// /2315 11062 21088 30126 40142 56023=
0089010060999992014010922004+78250+022817FM-12+001499999V0202201N016019999999N999999999-00621-00881101381ADDMA1999990101211MD1810251+9990REMSYN04801006 46/// /2216 11062 21088 30121 40138 58025=
0089010060999992014010923004+78250+022817FM-12+001499999V0202301N014019999999N999999999-00581-00821101431ADDMA1999990101271MD1810101+9990REMSYN04801006 46/// /2314 11058 21082 30127 40143 58010=
0113010060999992014011000004+78250+022817FM-12+001499999V0202201N012019999999N999999999-00581-00781101351ADDMA1999990101191MD1610061+9990OD139901901999REMSYN05801006 46/// /2212 11058 21078 30119 40135 56006 333 91119=
0089010060999992014011001004+78250+022817FM-12+001499999V0202201N014019999999N999999999-00561-00801101261ADDMA1999990101101MD1510121+9990REMSYN04801006 46/// /2214 11056 21080 30110 40126 55012=
0089010060999992014011002004+78250+022817FM-12+001499999V0202301N014019999999N999999999-00521-00701101201ADDMA1999990101041MD1710231+9990REMSYN04801006 46/// /2314 11052 21070 30104 40120 57023=
0089010060999992014011003004+78250+022817FM-12+001499999V0202301N013019999999N999999999-00421-00641101111ADDMA1999990100951MD1710241+9990REMSYN04801006 46/// /2313 11042 21064 30095 40111 57024=
0089010060999992014011004004+78250+022817FM-12+001499999V0202201N012019999999N999999999-00461-00621100961ADDMA1999990100801MD1610301+9990REMSYN04801006 46/// /2212 11046 21062 30080 40096 56030=
0089010060999992014011005004+78250+022817FM-12+001499999V0202101N014019999999N999999999-00501-00641100811ADDMA1999990100651MD1610391+9990REMSYN04801006 46/// /2114 11050 21064 30065 40081 56039=
0132010060999992014011006004+78250+022817FM-12+001499999V0202101N012019999999N999999999-00481-00631100791ADDKA1240N-00791MA1999990100631MD1810321+9990OD139901701999REMSYN06401006 46/// /2112 11048 21063 30063 40079 58032 333 21079 91117=
0089010060999992014011007004+78250+022817FM-12+001499999V0202301N011019999999N999999999-00361-00481100821ADDMA1999990100661MD1810141+9990REMSYN04801006 46/// /2311 11036 21048 30066 40082 58014=
0108010060999992014011008004+78250+022817FM-12+001499999V0202301N010019999999N999999999-00381-00531100811ADDMA1999990100651MD1410009+9990REMSYN04801006 46/// /2310 11038 21053 30065 40081 54001=EQDQ01.1    3APC3  
0089010060999992014011009004+78250+022817FM-12+001499999V0202301N009019999999N999999999-00341-00531100781ADDMA1999990100631MD1510011+9990REMSYN04801006 46/// /2309 11034 21053 30063 40078 55001=
0089010060999992014011010004+78250+022817FM-12+001499999V0202201N007019999999N999999999-00461-00611100761ADDMA1999990100601MD1710061+9990REMSYN04801006 46/// /2207 11046 21061 30060 40076 57006=
0089010060999992014011011004+78250+022817FM-12+001499999V0202301N006019999999N999999999-00631-00781100711ADDMA1999990100551MD1710101+9990REMSYN04801006 46/// /2306 11063 21078 30055 40071 57010=
0113010060999992014011012004+78250+022817FM-12+001499999V0202601N004019999999N999999999-00601-00791100711ADDMA1999990100551MD1710081+9990OD139901501999REMSYN05801006 46/// /2604 11060 21079 30055 40071 57008 333 91115=
0089010060999992014011013004+78250+022817FM-12+001499999V0202401N005019999999N999999999-00421-00581100701ADDMA1999990100541MD1810051+9990REMSYN04801006 46/// /2405 11042 21058 30054 40070 58005=
0108010060999992014011014004+78250+022817FM-12+001499999V0202401N005019999999N999999999-00531-00651100691ADDMA1999990100531MD1790029+9990REMSYN04801006 46/// /2405 11053 21065 30053 40069 54002=EQDQ01.2    3APC3  
0108010060999992014011015004+78250+022817FM-12+001499999V0202301N005019999999N999999999-00401-00651100701ADDMA1999990100541MD1790019+9990REMSYN04801006 46/// /2305 11040 21065 30054 40070 54001=EQDQ01.1    3APC3  
0089010060999992014011016004+78250+022817FM-12+001499999V0203501N001019999999N999999999-00481-00631100721ADDMA1999990100561MD1900021+9990REMSYN04801006 46/// /3501 11048 21063 30056 40072 50002=
0089010060999992014011017004+78250+022817FM-12+001499999V0202401N003019999999N999999999-00381-00491100741ADDMA1999990100581MD1210051+9990REMSYN04801006 46/// /2403 11038 21049 30058 40074 52005=
0132010060999992014011018004+78250+022817FM-12+001499999V0202201N004019999999N999999999-00251-00511100731ADDKA1120M-00251MA1999990100571MD1510031+9990OD139900601999REMSYN06401006 46/// /2204 11025 21051 30057 40073 55003 333 11025 91106=
0108010060999992014011019004+78250+022817FM-12+001499999V0202101N005019999999N999999999-00211-00571100741ADDMA1999990100581MD1290029+9990REMSYN04801006 46/// /2105 11021 21057 30058 40074 54002=EQDQ01.2    3APC3  
0089010060999992014011020004+78250+022817FM-12+001499999V0202201N004019999999N999999999-00271-00621100781ADDMA1999990100621MD1110041+9990REMSYN04801006 46/// /2204 11027 21062 30062 40078 51004=
0089010060999992014011021004+78250+022817FM-12+001499999V0202201N005019999999N999999999-00371-00551100811ADDMA1999990100651MD1210081+9990REMSYN04801006 46/// /2205 11037 21055 30065 40081 52008=
0089010060999992014011022004+78250+022817FM-12+001499999V0202201N004019999999N999999999-00401-00551100811ADDMA1999990100651MD1310071+9990REMSYN04801006 46/// /2204 11040 21055 30065 40081 53007=
0089010060999992014011023004+78250+022817FM-12+001499999V0202701N002019999999N999999999-00411-00571100841ADDMA1999990100681MD1210061+9990REMSYN04801006 46/// /2702 11041 21057 30068 40084 52006=
0132010060999992014011100004+78250+022817FM-12+001499999V0202201N004019999999N999999999-00341-00561100841ADDMA1999990100681MD1290039+9990OD139900501999REMSYN05801006 46/// /2204 11034 21056 30068 40084 54003 333 91105=EQDQ01.3    3APC3  
0089010060999992014011101004+78250+022817FM-12+001499999V0202201N003019999999N999999999-00321-00631100861ADDMA1999990100701MD1210051+9990REMSYN04801006 46/// /2203 11032 21063 30070 40086 52005=
0108010060999992014011102004+78250+022817FM-12+001499999V0202101N005019999999N999999999-00281-00651100851ADDMA1999990100691MD1290019+9990REMSYN04801006 46/// /2105 11028 21065 30069 40085 54001=EQDQ01.1    3APC3  
0089010060999992014011103004+78250+022817FM-12+001499999V0202101N006019999999N999999999-00281-00601100841ADDMA1999990100681MD1410001+9990REMSYN04801006 46/// /2106 11028 21060 30068 40084 54000=
0089010060999992014011104004+78250+022817FM-12+001499999V0202001N006019999999N999999999-00281-00591100801ADDMA1999990100641MD1610061+9990REMSYN04801006 46/// /2006 11028 21059 30064 40080 56006=
0089010060999992014011105004+78250+022817FM-12+001499999V0202101N006019999999N999999999-00311-00561100781ADDMA1999990100621MD1710061+9990REMSYN04801006 46/// /2106 11031 21056 30062 40078 57006=
0132010060999992014011106004+78250+022817FM-12+001499999V0202201N007019999999N999999999-00241-00551100791ADDKA1240N-00461MA1999990100631MD1810061+9990OD139900801999REMSYN06401006 46/// /2207 11024 21055 30063 40079 58006 333 21046 91108=
0108010060999992014011107004+78250+022817FM-12+001499999V0202101N007019999999N999999999-00291-00581100781ADDMA1999990100621MD1790029+9990REMSYN04801006 46/// /2107 11029 21058 30062 40078 54002=EQDQ01.2    3APC3  
0108010060999992014011108004+78250+022817FM-12+001499999V0202201N007019999999N999999999-00471-00731100801ADDMA1999990100641MD1290029+9990REMSYN04801006 46/// /2207 11047 21073 30064 40080 54001=EQDQ01.1    3APC3  
0108010060999992014011109004+78250+022817FM-12+001499999V0202301N008019999999N999999999-00421-00691100801ADDMA1999990100641MD1290019+9990REMSYN04801006 46/// /2308 11042 21069 30064 40080 54001=EQDQ01.1    3APC3  
0089010060999992014011110004+78250+022817FM-12+001499999V0202301N008019999999N999999999-00481-00721100821ADDMA1999990100661MD1210031+9990REMSYN04801006 46/// /2308 11048 21072 30066 40082 52003=
0108010060999992014011111004+78250+022817FM-12+001499999V0202301N008019999999N999999999-00531-00791100811ADDMA1999990100651MD1290019+9990REMSYN04801006 46/// /2308 11053 21079 30065 40081 54001=EQDQ01.1    3APC3  
0113010060999992014011112004+78250+022817FM-12+001499999V0202501N003019999999N999999999-00441-00631100851ADDMA1999990100691MD1210051+9990OD139900901999REMSYN05801006 46/// /2503 11044 21063 30069 40085 52005 333 91109=
0108010060999992014011113004+78250+022817FM-12+001499999V0202401N006019999999N999999999-00531-00731100841ADDMA1999990100681MD1290029+9990REMSYN04801006 46/// /2406 11053 21073 30068 40084 54002=EQDQ01.2    3APC3  
0089010060999992014011114004+78250+022817FM-12+001499999V0202401N005019999999N999999999-00581-00771100871ADDMA1999990100711MD1210071+9990REMSYN04801006 46/// /2405 11058 21077 30071 40087 52007=
0089010060999992014011115004+78250+022817FM-12+001499999V0200101N001019999999N999999999-00981-01101100901ADDMA1999990100741MD1110051+9990REMSYN04801006 46/// /0101 11098 21110 30074 40090 51005=
0089010060999992014011116004+78250+022817FM-12+001499999V0209999C999999999999N999999999-01091-01171100931ADDMA1999990100771MD1210091+9990REMSYN04801006 46/// /0000 11109 21117 30077 40093 52009=
0089010060999992014011117004+78250+022817FM-12+001499999V0201601N001019999999N999999999-01041-01111100931ADDMA1999990100761MD1310051+9990REMSYN04801006 46/// /1601 11104 21111 30076 40093 53005=
0132010060999992014011118004+78250+022817FM-12+001499999V0209999C999999999999N999999999-01091-01181100961ADDKA1120M-00221MA1999990100801MD1210061+9990OD139900701999REMSYN06401006 46/// /0000 11109 21118 30080 40096 52006 333 11022 91107=
0108010060999992014011119004+78250+022817FM-12+001499999V0203401N001019999999N999999999-01041-01131100961ADDMA1999990100791MD1290039+9990REMSYN04801006 46/// /3401 11104 21113 30079 40096 54003=EQDQ01.3    3APC3  
0089010060999992014011120004+78250+022817FM-12+001499999V0209999C999999999999N999999999-01151-01241101001ADDMA1999990100841MD1210081+9990REMSYN04801006 46/// /0000 11115 21124 30084 40100 52008=
0089010060999992014011121004+78250+022817FM-12+001499999V0201501N001019999999N999999999-00991-01061101031ADDMA1999990100871MD1110071+9990REMSYN04801006 46/// /1501 11099 21106 30087 40103 51007=
0089010060999992014011122004+78250+022817FM-12+001499999V0201201N002019999999N999999999-00861-00931101041ADDMA1999990100881MD1310081+9990REMSYN04801006 46/// /1202 11086 21093 30088 40104 53008=
0089010060999992014011123004+78250+022817FM-12+001499999V0202401N003019999999N999999999-00661-00761101061ADDMA1999990100891MD1210061+9990REMSYN04801006 46/// /2403 11066 21076 30089 40106 52006=
0113010060999992014011200004+78250+022817FM-12+001499999V0202301N002019999999N999999999-01051-01171101081ADDMA1999990100921MD1210051+9990OD139900501999REMSYN05801006 46/// /2302 11105 21117 30092 40108 52005 333 91105=
0089010060999992014011201004+78250+022817FM-12+001499999V0202501N003019999999N999999999-01091-01181101121ADDMA1999990100961MD1210081+9990REMSYN04801006 46/// /2503 11109 21118 30096 40112 52008=
0089010060999992014011202004+78250+022817FM-12+001499999V0201101N001019999999N999999999-01061-01131101161ADDMA1999990101001MD1210101+9990REMSYN04801006 46/// /1101 11106 21113 30100 40116 52010=
0089010060999992014011203004+78250+022817FM-12+001499999V0201401N001019999999N999999999-00871-00961101191ADDMA1999990101021MD1210101+9990REMSYN04801006 46/// /1401 11087 21096 30102 40119 52010=
0089010060999992014011204004+78250+022817FM-12+001499999V0209999C999999999999N999999999-00741-00841101181ADDMA1999990101021MD1310061+9990REMSYN04801006 46/// /0000 11074 21084 30102 40118 53006=
0108010060999992014011205004+78250+022817FM-12+001499999V0202301N005019999999N999999999-00631-00891101181ADDMA1999990101021MD1290029+9990REMSYN04801006 46/// /2305 11063 21089 30102 40118 54002=EQDQ01.2    3APC3  
0132010060999992014011206004+78250+022817FM-12+001499999V0202401N005019999999N999999999-00601-00831101231ADDKA1240N-01151MA1999990101071MD1110051+9990OD139900601999REMSYN06401006 46/// /2405 11060 21083 30107 40123 51005 333 21115 91106=
0089010060999992014011207004+78250+022817FM-12+001499999V0202301N005019999999N999999999-00601-00861101271ADDMA1999990101111MD1110091+9990REMSYN04801006 46/// /2305 11060 21086 30111 40127 51009=
0089010060999992014011208004+78250+022817FM-12+001499999V0202301N005019999999N999999999-00631-00901101331ADDMA1999990101171MD1210151+9990REMSYN04801006 46/// /2305 11063 21090 30117 40133 52015=
0089010060999992014011209004+78250+022817FM-12+001499999V0202201N006019999999N999999999-00611-00871101391ADDMA1999990101231MD1210161+9990REMSYN04801006 46/// /2206 11061 21087 30123 40139 52016=
0089010060999992014011210004+78250+022817FM-12+001499999V0202301N007019999999N999999999-00611-00851101421ADDMA1999990101261MD1210151+9990REMSYN04801006 46/// /2307 11061 21085 30126 40142 52015=
0089010060999992014011211004+78250+022817FM-12+001499999V0202301N007019999999N999999999-00621-00881101461ADDMA1999990101301MD1210131+9990REMSYN04801006 46/// /2307 11062 21088 30130 40146 52013=
0113010060999992014011212004+78250+022817FM-12+001499999V0202601N007019999999N999999999-00971-01171101501ADDMA1999990101341MD1210111+9990OD139900901999REMSYN05801006 46/// /2607 11097 21117 30134 40150 52011 333 91109=
0089010060999992014011213004+78250+022817FM-12+001499999V0202701N002019999999N999999999-00871-01031101531ADDMA1999990101371MD1210111+9990REMSYN04801006 46/// /2702 11087 21103 30137 40153 52011=
0089010060999992014011214004+78250+022817FM-12+001499999V0202401N003019999999N999999999-00591-00881101531ADDMA1999990101361MD1310071+9990REMSYN04801006 46/// /2403 11059 21088 30136 40153 53007=
0089010060999992014011215004+78250+022817FM-12+001499999V0200201N001019999999N999999999-01181-01331101561ADDMA1999990101401MD1210061+9990REMSYN04801006 46/// /0201 11118 21133 30140 40156 52006=
0089010060999992014011216004+78250+022817FM-12+001499999V0201201N001019999999N999999999-01111-01211101591ADDMA1999990101431MD1110061+9990REMSYN04801006 46/// /1201 11111 21121 30143 40159 51006=
0089010060999992014011217004+78250+022817FM-12+001499999V0203001N002019999999N999999999-01151-01241101621ADDMA1999990101451MD1210091+9990REMSYN04801006 46/// /3002 11115 21124 30145 40162 52009=
0132010060999992014011218004+78250+022817FM-12+001499999V0203201N001019999999N999999999-01171-01241101661ADDKA1120M-00481MA1999990101491MD1210101+9990OD139900601999REMSYN06401006 46/// /3201 11117 21124 30149 40166 52010 333 11048 91106=
0089010060999992014011219004+78250+022817FM-12+001499999V0202301N004019999999N999999999-00881-01011101681ADDMA1999990101511MD1210081+9990REMSYN04801006 46/// /2304 11088 21101 30151 40168 52008=
0089010060999992014011220004+78250+022817FM-12+001499999V0203301N002019999999N999999999-01391-01491101751ADDMA1999990101581MD1110131+9990REMSYN04801006 46/// /3302 11139 21149 30158 40175 51013=
0089010060999992014011221004+78250+022817FM-12+001499999V0202601N001019999999N999999999-01111-01191101791ADDMA1999990101631MD1210131+9990REMSYN04801006 46/// /2601 11111 21119 30163 40179 52013=
0089010060999992014011222004+78250+022817FM-12+001499999V0209999C999999999999N999999999-01211-01411101811ADDMA1999990101641MD1310131+9990REMSYN04801006 46/// /0000 11121 21141 30164 40181 53013=
0089010060999992014011223004+78250+022817FM-12+001499999V0202701N001019999999N999999999-01351-01531101871ADDMA1999990101701MD1210121+9990REMSYN04801006 46/// /2701 11135 21153 30170 40187 52012=
0113010060999992014011300004+78250+022817FM-12+001499999V0203201N001019999999N999999999-01241-01361101881ADDMA1999990101721MD1210091+9990OD139900501999REMSYN05801006 46/// /3201 11124 21136 30172 40188 52009 333 91105=
0089010060999992014011301004+78250+022817FM-12+001499999V0202701N001019999999N999999999-01251-01371101951ADDMA1999990101781MD1210141+9990REMSYN04801006 46/// /2701 11125 21137 30178 40195 52014=
0089010060999992014011302004+78250+022817FM-12+001499999V0203001N001019999999N999999999-01131-01231101981ADDMA1999990101811MD1210121+9990REMSYN04801006 46/// /3001 11113 21123 30181 40198 52012=
0089010060999992014011303004+78250+022817FM-12+001499999V0203001N001019999999N999999999-01691-01871102001ADDMA1999990101831MD1310111+9990REMSYN04801006 46/// /3001 11169 21187 30183 40200 53011=
0089010060999992014011304004+78250+022817FM-12+001499999V0202101N001019999999N999999999-01101-01221102011ADDMA1999990101841MD1210051+9990REMSYN04801006 46/// /2101 11110 21122 30184 40201 52005=
0108010060999992014011305004+78250+022817FM-12+001499999V0202301N004019999999N999999999-01051-01171101991ADDMA1999990101831MD1290019+9990REMSYN04801006 46/// /2304 11105 21117 30183 40199 54001=EQDQ01.1    3APC3  
0151010060999992014011306004+78250+022817FM-12+001499999V0200301N001019999999N999999999-01251-01391102021ADDKA1240N-01751MA1999990101851MD1290029+9990OD139900601999REMSYN06401006 46/// /0301 11125 21139 30185 40202 54002 333 21175 91106=EQDQ01.2    3APC3  
0089010060999992014011307004+78250+022817FM-12+001499999V0202201N003019999999N999999999-00681-01051102011ADDMA1999990101841MD1410001+9990REMSYN04801006 46/// /2203 11068 21105 30184 40201 54000=
0108010060999992014011308004+78250+022817FM-12+001499999V0202101N002019999999N999999999-00761-01131102021ADDMA1999990101851MD1290039+9990REMSYN04801006 46/// /2102 11076 21113 30185 40202 54003=EQDQ01.3    3APC3  
0089010060999992014011309004+78250+022817FM-12+001499999V0202301N005019999999N999999999-00681-01101102061ADDMA1999990101891MD1110041+9990REMSYN04801006 46/// /2305 11068 21110 30189 40206 51004=
0089010060999992014011310004+78250+022817FM-12+001499999V0202301N006019999999N999999999-00771-01131102061ADDMA1999990101901MD1210061+9990REMSYN04801006 46/// /2306 11077 21113 30190 40206 52006=
0089010060999992014011311004+78250+022817FM-12+001499999V0202301N006019999999N999999999-00831-01181102031ADDMA1999990101871MD1510011+9990REMSYN04801006 46/// /2306 11083 21118 30187 40203 55001=
0113010060999992014011312004+78250+022817FM-12+001499999V0202201N006019999999N999999999-00731-01121101991ADDMA1999990101831MD1610061+9990OD139900701999REMSYN05801006 46/// /2206 11073 21112 30183 40199 56006 333 91107=
0089010060999992014011313004+78250+022817FM-12+001499999V0202201N007019999999N999999999-00771-01131102001ADDMA1999990101841MD1810061+9990REMSYN04801006 46/// /2207 11077 21113 30184 40200 58006=
0089010060999992014011314004+78250+022817FM-12+001499999V0202201N005019999999N999999999-00741-01131102011ADDMA1999990101851MD1900021+9990REMSYN04801006 46/// /2205 11074 21113 30185 40201 50002=
0089010060999992014011315004+78250+022817FM-12+001499999V0202301N005019999999N999999999-00731-01121101991ADDMA1999990101821MD1510001+9990REMSYN04801006 46/// /2305 11073 21112 30182 40199 55000=
0108010060999992014011316004+78250+022817FM-12+001499999V0202301N003019999999N999999999-00441-00921102001ADDMA1999990101841MD1410009+9990REMSYN04801006 46/// /2303 11044 21092 30184 40200 54001=EQDQ01.1    3APC3  
0089010060999992014011318004+78250+022817FM-12+001499999V0202501N003019999999N999999999-00521-00901102031ADDMA1999990101871MD1210041+9990REMSYN04801006 46/// /2503 11052 21090 30187 40203 52004=
0108010060999992014011319004+78250+022817FM-12+001499999V0202501N006019999999N999999999-00691-01031102011ADDMA1999990101851MD1290019+9990REMSYN04801006 46/// /2506 11069 21103 30185 40201 54001=EQDQ01.1    3APC3  
0094010060999992014011320004+78250+022817FM-12+001499999V0202601N007019999999N999999999-00751-01031102021ADDMA1999990101861REMSYN04801006 46/// /2607 11075 21103 30186 40202 54003=EQDQ014     3APCTEN
0089010060999992014011321004+78250+022817FM-12+001499999V0202501N005019999999N999999999-00711-01011102101ADDMA1999990101931MD1110061+9990REMSYN04801006 46/// /2505 11071 21101 30193 40210 51006=
0089010060999992014011322004+78250+022817FM-12+001499999V0202701N005019999999N999999999-00751-01121102201ADDMA1999990102041MD1110191+9990REMSYN04801006 46/// /2705 11075 21112 30204 40220 51019=
0089010060999992014011323004+78250+022817FM-12+001499999V0203101N002019999999N999999999-00901-01141102331ADDMA1999990102161MD1110301+9990REMSYN04801006 46/// /3102 11090 21114 30216 40233 51030=
0113010060999992014011400004+78250+022817FM-12+001499999V0202201N001019999999N999999999-00911-01041102401ADDMA1999990102241MD1210311+9990OD139900801999REMSYN05801006 46/// /2201 11091 21104 30224 40240 52031 333 91108=
0089010060999992014011401004+78250+022817FM-12+001499999V0203301N001019999999N999999999-00941-01111102421ADDMA1999990102261MD1310221+9990REMSYN04801006 46/// /3301 11094 21111 30226 40242 53022=
0089010060999992014011402004+78250+022817FM-12+001499999V0200201N003019999999N999999999-01001-01171102491ADDMA1999990102331MD1210171+9990REMSYN04801006 46/// /0203 11100 21117 30233 40249 52017=
0089010060999992014011403004+78250+022817FM-12+001499999V0200201N001019999999N999999999-01051-01211102551ADDMA1999990102381MD1110141+9990REMSYN04801006 46/// /0201 11105 21121 30238 40255 51014=
0089010060999992014011404004+78250+022817FM-12+001499999V0202501N001019999999N999999999-01091-01241102611ADDMA1999990102451MD1210191+9990REMSYN04801006 46/// /2501 11109 21124 30245 40261 52019=
0089010060999992014011405004+78250+022817FM-12+001499999V0202901N002019999999N999999999-01151-01341102651ADDMA1999990102491MD1210161+9990REMSYN04801006 46/// /2902 11115 21134 30249 40265 52016=
0132010060999992014011406004+78250+022817FM-12+001499999V0202501N002019999999N999999999-01091-01281102711ADDKA1240N-01261MA1999990102541MD1210161+9990OD139900401999REMSYN06401006 46/// /2502 11109 21128 30254 40271 52016 333 21126 91104=
0089010060999992014011407004+78250+022817FM-12+001499999V0202401N001019999999N999999999-01121-01331102681ADDMA1999990102511MD1310071+9990REMSYN04801006 46/// /2401 11112 21133 30251 40268 53007=
0089010060999992014011408004+78250+022817FM-12+001499999V0202101N001019999999N999999999-01111-01301102711ADDMA1999990102541MD1210051+9990REMSYN04801006 46/// /2101 11111 21130 30254 40271 52005=
0089010060999992014011409004+78250+022817FM-12+001499999V0202201N002019999999N999999999-01091-01341102741ADDMA1999990102571MD1110041+9990REMSYN04801006 46/// /2202 11109 21134 30257 40274 51004=
0089010060999992014011410004+78250+022817FM-12+001499999V0202201N001019999999N999999999-01081-01371102751ADDMA1999990102581MD1210071+9990REMSYN04801006 46/// /2201 11108 21137 30258 40275 52007=
0089010060999992014011411004+78250+022817FM-12+001499999V0209999C999999999999N999999999-01311-01471102771ADDMA1999990102601MD1210061+9990REMSYN04801006 46/// /0000 11131 21147 30260 40277 52006=
0132010060999992014011412004+78250+022817FM-12+001499999V0201501N001019999999N999999999-01291-01531102751ADDMA1999990102581MD1290019+9990OD139900301999REMSYN05801006 46/// /1501 11129 21153 30258 40275 54001 333 91103=EQDQ01.1    3APC3  
0108010060999992014011413004+78250+022817FM-12+001499999V0201701N002019999999N999999999-01271-01471102761ADDMA1999990102591MD1290019+9990REMSYN04801006 46/// /1702 11127 21147 30259 40276 54001=EQDQ01.1    3APC3  
0089010060999992014011414004+78250+022817FM-12+001499999V0201501N002019999999N999999999-01211-01431102721ADDMA1999990102551MD1710051+9990REMSYN04801006 46/// /1502 11121 21143 30255 40272 57005=
0089010060999992014011415004+78250+022817FM-12+001499999V0201901N009019999999N999999999-01161-01391102661ADDMA1999990102491MD1610081+9990REMSYN04801006 46/// /1909 11116 21139 30249 40266 56008=
0089010060999992014011416004+78250+022817FM-12+001499999V0201801N006019999999N999999999-01261-01521102691ADDMA1999990102521MD1810071+9990REMSYN04801006 46/// /1806 11126 21152 30252 40269 58007=
0089010060999992014011417004+78250+022817FM-12+001499999V0202001N004019999999N999999999-01211-01471102671ADDMA1999990102501MD1810051+9990REMSYN04801006 46/// /2004 11121 21147 30250 40267 58005=
0132010060999992014011418004+78250+022817FM-12+001499999V0202201N003019999999N999999999-01371-01631102651ADDKA1120M-01071MA1999990102481MD1510011+9990OD139900901999REMSYN06401006 46/// /2203 11137 21163 30248 40265 55001 333 11107 91109=
0089010060999992014011419004+78250+022817FM-12+001499999V0202301N007019999999N999999999-01101-01331102611ADDMA1999990102441MD1710081+9990REMSYN04801006 46/// /2307 11110 21133 30244 40261 57008=
0089010060999992014011420004+78250+022817FM-12+001499999V0202201N006019999999N999999999-01021-01231102571ADDMA1999990102401MD1710091+9990REMSYN04801006 46/// /2206 11102 21123 30240 40257 57009=
0089010060999992014011421004+78250+022817FM-12+001499999V0202601N003019999999N999999999-00961-01211102571ADDMA1999990102401MD1810081+9990REMSYN04801006 46/// /2603 11096 21121 30240 40257 58008=
0089010060999992014011422004+78250+022817FM-12+001499999V0202401N002019999999N999999999-00911-01171102561ADDMA1999990102391MD1710051+9990REMSYN04801006 46/// /2402 11091 21117 30239 40256 57005=
0089010060999992014011423004+78250+022817FM-12+001499999V0202501N010019999999N999999999-00671-00881102521ADDMA1999990102351MD1610051+9990REMSYN04801006 46/// /2510 11067 21088 30235 40252 56005=
0113010060999992014011500004+78250+022817FM-12+001499999V0202201N011019999999N999999999-00591-00801102451ADDMA1999990102281MD1610121+9990OD139901301999REMSYN05801006 46/// /2211 11059 21080 30228 40245 56012 333 91113=
0089010060999992014011502004+78250+022817FM-12+001499999V0202301N011019999999N999999999-00591-00721102341ADDMA1999990102181MD1710171+9990REMSYN04801006 46/// /2311 11059 21072 30218 40234 57017=
0089010060999992014011503004+78250+022817FM-12+001499999V0202301N009019999999N999999999-00581-00811102321ADDMA1999990102161MD1710131+9990REMSYN04801006 46/// /2309 11058 21081 30216 40232 57013=
0089010060999992014011504004+78250+022817FM-12+001499999V0202401N009019999999N999999999-00561-00821102291ADDMA1999990102131MD1810141+9990REMSYN04801006 46/// /2409 11056 21082 30213 40229 58014=
0089010060999992014011505004+78250+022817FM-12+001499999V0202401N012019999999N999999999-00521-00681102231ADDMA1999990102061MD1610111+9990REMSYN04801006 46/// /2412 11052 21068 30206 40223 56011=
0132010060999992014011506004+78250+022817FM-12+001499999V0202301N010019999999N999999999-00511-00691102231ADDKA1240N-01391MA1999990102061MD1810091+9990OD139901401999REMSYN06401006 46/// /2310 11051 21069 30206 40223 58009 333 21139 91114=
0089010060999992014011507004+78250+022817FM-12+001499999V0202301N011019999999N999999999-00501-00681102181ADDMA1999990102021MD1710111+9990REMSYN04801006 46/// /2311 11050 21068 30202 40218 57011=
0089010060999992014011508004+78250+022817FM-12+001499999V0202301N010019999999N999999999-00401-00601102191ADDMA1999990102031MD1710041+9990REMSYN04801006 46/// /2310 11040 21060 30203 40219 57004=
0089010060999992014011509004+78250+022817FM-12+001499999V0202301N011019999999N999999999-00381-00571102191ADDMA1999990102031MD1810031+9990REMSYN04801006 46/// /2311 11038 21057 30203 40219 58003=
0089010060999992014011510004+78250+022817FM-12+001499999V0202401N012019999999N999999999-00411-00611102181ADDMA1999990102021MD1410001+9990REMSYN04801006 46/// /2412 11041 21061 30202 40218 54000=
0108010060999992014011511004+78250+022817FM-12+001499999V0202401N010019999999N999999999-00371-00591102201ADDMA1999990102041MD1290019+9990REMSYN04801006 46/// /2410 11037 21059 30204 40220 54001=EQDQ01.1    3APC3  
0132010060999992014011512004+78250+022817FM-12+001499999V0202201N007019999999N999999999-00301-00491102211ADDMA1999990102051MD1290029+9990OD139901401999REMSYN05801006 46/// /2207 11030 21049 30205 40221 54002 333 91114=EQDQ01.2    3APC3  
0089010060999992014011513004+78250+022817FM-12+001499999V0202101N008019999999N999999999-00311-00501102171ADDMA1999990102001MD1510011+9990REMSYN04801006 46/// /2108 11031 21050 30200 40217 55001=
0089010060999992014011514004+78250+022817FM-12+001499999V0202201N006019999999N999999999-00291-00431102171ADDMA1999990102011MD1710031+9990REMSYN04801006 46/// /2206 11029 21043 30201 40217 57003=
0089010060999992014011515004+78250+022817FM-12+001499999V0202301N011019999999N999999999-00161-00301102091ADDMA1999990101931MD1610121+9990REMSYN04801006 46/// /2311 11016 21030 30193 40209 56012=
0089010060999992014011516004+78250+022817FM-12+001499999V0202301N011019999999N999999999-00151-00341102071ADDMA1999990101911MD1710091+9990REMSYN04801006 46/// /2311 11015 21034 30191 40207 57009=
0089010060999992014011517004+78250+022817FM-12+001499999V0202501N008019999999N999999999-00201-00341102101ADDMA1999990101941MD1810071+9990REMSYN04801006 46/// /2508 11020 21034 30194 40210 58007=
0151010060999992014011518004+78250+022817FM-12+001499999V0202401N009019999999N999999999-00111-00261102081ADDKA1120M-00111MA1999990101921MD1790019+9990OD139901301999REMSYN06401006 46/// /2409 11011 21026 30192 40208 54001 333 11011 91113=EQDQ01.1    3APC3  
0089010060999992014011520004+78250+022817FM-12+001499999V0202501N008019999999N999999999-00281-00421102061ADDMA1999990101901MD1710031+9990REMSYN04801006 46/// /2508 11028 21042 30190 40206 57003=
0108010060999992014011521004+78250+022817FM-12+001499999V0202301N008019999999N999999999-00381-00531102051ADDMA1999990101891MD1790039+9990REMSYN04801006 46/// /2308 11038 21053 30189 40205 54003=EQDQ01.3    3APC3  
0089010060999992014011522004+78250+022817FM-12+001499999V0202301N008019999999N999999999-00521-00641102031ADDMA1999990101871MD1710041+9990REMSYN04801006 46/// /2308 11052 21064 30187 40203 57004=
0089010060999992014011523004+78250+022817FM-12+001499999V0202301N004019999999N999999999-00421-00531102061ADDMA1999990101901MD1900001+9990REMSYN04801006 46/// /2304 11042 21053 30190 40206 50000=
0089010060999992014011600004+78250+022817FM-12+001499999V0202501N005019999999N999999999-00441-00581102051ADDMA1999990101881MD1410001+9990REMSYN04801006 46/// /2505 11044 21058 30188 40205 54000=
0089010060999992014011601004+78250+022817FM-12+001499999V0202401N005019999999N999999999-00431-00571102011ADDMA1999990101851MD1510021+9990REMSYN04801006 46/// /2405 11043 21057 30185 40201 55002=
0089010060999992014011602004+78250+022817FM-12+001499999V0202401N009019999999N999999999-00221-00451101951ADDMA1999990101791MD1610111+9990REMSYN04801006 46/// /2409 11022 21045 30179 40195 56011=
0089010060999992014011603004+78250+022817FM-12+001499999V0202201N008019999999N999999999-00241-00471101941ADDMA1999990101781MD1710111+9990REMSYN04801006 46/// /2208 11024 21047 30178 40194 57011=
0089010060999992014011604004+78250+022817FM-12+001499999V0202501N009019999999N999999999-00261-00511101901ADDMA1999990101741MD1710111+9990REMSYN04801006 46/// /2509 11026 21051 30174 40190 57011=
0089010060999992014011605004+78250+022817FM-12+001499999V0202501N010019999999N999999999-00181-00421101861ADDMA1999990101701MD1610091+9990REMSYN04801006 46/// /2510 11018 21042 30170 40186 56009=
0113010060999992014011606004+78250+022817FM-12+001499999V0202601N011019999999N999999999-00281-00431101821ADDMA1999990101661MD1710121+9990OD139901201999REMSYN05801006 46/// /2611 11028 21043 30166 40182 57012 333 91112=
0089010060999992014011607004+78250+022817FM-12+001499999V0202501N009019999999N999999999-00231-00401101811ADDMA1999990101651MD1810091+9990REMSYN04801006 46/// /2509 11023 21040 30165 40181 58009=
0089010060999992014011608004+78250+022817FM-12+001499999V0202501N008019999999N999999999-00211-00391101831ADDMA1999990101671MD1900031+9990REMSYN04801006 46/// /2508 11021 21039 30167 40183 50003=
0089010060999992014011609004+78250+022817FM-12+001499999V0202601N010019999999N999999999-00111-00361101821ADDMA1999990101661MD1410001+9990REMSYN04801006 46/// /2610 11011 21036 30166 40182 54000=
0089010060999992014011610004+78250+022817FM-12+001499999V0202801N009019999999N999999999-00181-00331101811ADDMA1999990101651MD1410001+9990REMSYN04801006 46/// /2809 11018 21033 30165 40181 54000=
0089010060999992014011611004+78250+022817FM-12+001499999V0202601N009019999999N999999999-00131-00441101791ADDMA1999990101631MD1710051+9990REMSYN04801006 46/// /2609 11013 21044 30163 40179 57005=
0113010060999992014011612004+78250+022817FM-12+001499999V0202201N007019999999N999999999-00241-00411101781ADDMA1999990101621MD1710051+9990OD139901401999REMSYN05801006 46/// /2207 11024 21041 30162 40178 57005 333 91114=
0089010060999992014011613004+78250+022817FM-12+001499999V0202301N008019999999N999999999-00211-00431101711ADDMA1999990101551MD1610101+9990REMSYN04801006 46/// /2308 11021 21043 30155 40171 56010=
0089010060999992014011614004+78250+022817FM-12+001499999V0202301N009019999999N999999999-00221-00371101641ADDMA1999990101481MD1610141+9990REMSYN04801006 46/// /2309 11022 21037 30148 40164 56014=
0089010060999992014011615004+78250+022817FM-12+001499999V0202301N011019999999N999999999-00131-00301101611ADDMA1999990101451MD1710171+9990REMSYN04801006 46/// /2311 11013 21030 30145 40161 57017=
0089010060999992014011616004+78250+022817FM-12+001499999V0202201N009019999999N999999999-00201-00301101601ADDMA1999990101441MD1810121+9990REMSYN04801006 46/// /2209 11020 21030 30144 40160 58012=
0089010060999992014011617004+78250+022817FM-12+001499999V0202101N009019999999N999999999-00191-00341101551ADDMA1999990101391MD1710091+9990REMSYN04801006 46/// /2109 11019 21034 30139 40155 57009=
0132010060999992014011618004+78250+022817FM-12+001499999V0201901N009019999999N999999999-00231-00361101501ADDKA1120M-00071MA1999990101341MD1610101+9990OD139901401999REMSYN06401006 46/// /1909 11023 21036 30134 40150 56010 333 11007 91114=
0089010060999992014011620004+78250+022817FM-12+001499999V0202201N011019999999N999999999-00191-00371101421ADDMA1999990101261MD1710141+9990REMSYN04801006 46/// /2211 11019 21037 30126 40142 57014=
0089010060999992014011621004+78250+022817FM-12+001499999V0202301N012019999999N999999999-00181-00371101391ADDMA1999990101231MD1710111+9990REMSYN04801006 46/// /2312 11018 21037 30123 40139 57011=
0089010060999992014011622004+78250+022817FM-12+001499999V0202301N012019999999N999999999-00171-00381101371ADDMA1999990101211MD1810101+9990REMSYN04801006 46/// /2312 11017 21038 30121 40137 58010=
0089010060999992014011623004+78250+022817FM-12+001499999V0202401N013019999999N999999999-00151-00421101341ADDMA1999990101181MD1710071+9990REMSYN04801006 46/// /2413 11015 21042 30118 40134 57007=
0089010060999992014011700004+78250+022817FM-12+001499999V0202401N011019999999N999999999-00061-00401101361ADDMA1999990101201MD1900031+9990REMSYN04801006 46/// /2411 11006 21040 30120 40136 50003=
0108010060999992014011701004+78250+022817FM-12+001499999V0202401N012019999999N999999999-00131-00441101361ADDMA1999990101201MD1790019+9990REMSYN04801006 46/// /2412 11013 21044 30120 40136 54001=EQDQ01.1    3APC3  
0108010060999992014011702004+78250+022817FM-12+001499999V0202401N011019999999N999999999-00161-00471101351ADDMA1999990101191MD1290019+9990REMSYN04801006 46/// /2411 11016 21047 30119 40135 54001=EQDQ01.1    3APC3  
0108010060999992014011703004+78250+022817FM-12+001499999V0202401N010019999999N999999999-00141-00451101361ADDMA1999990101201MD1410009+9990REMSYN04801006 46/// /2410 11014 21045 30120 40136 54001=EQDQ01.1    3APC3  
0089010060999992014011704004+78250+022817FM-12+001499999V0202501N009019999999N999999999-00171-00481101351ADDMA1999990101191MD1410001+9990REMSYN04801006 46/// /2509 11017 21048 30119 40135 54000=
0108010060999992014011705004+78250+022817FM-12+001499999V0202501N011019999999N999999999-00231-00511101341ADDMA1999990101181MD1790019+9990REMSYN04801006 46/// /2511 11023 21051 30118 40134 54001=EQDQ01.1    3APC3  
0132010060999992014011706004+78250+022817FM-12+001499999V0202501N011019999999N999999999-00201-00521101351ADDMA1999990101191MD1790019+9990OD139901401999REMSYN05801006 46/// /2511 11020 21052 30119 40135 54001 333 91114=EQDQ01.1    3APC3  
0089010060999992014011707004+78250+022817FM-12+001499999V0202501N007019999999N999999999-00351-00631101381ADDMA1999990101221MD1900031+9990REMSYN04801006 46/// /2507 11035 21063 30122 40138 50003=
0089010060999992014011708004+78250+022817FM-12+001499999V0202301N010019999999N999999999-00381-00601101351ADDMA1999990101191MD1510011+9990REMSYN04801006 46/// /2310 11038 21060 30119 40135 55001=
0089010060999992014011709004+78250+022817FM-12+001499999V0202401N007019999999N999999999-00391-00591101381ADDMA1999990101221MD1210041+9990REMSYN04801006 46/// /2407 11039 21059 30122 40138 52004=
0089010060999992014011710004+78250+022817FM-12+001499999V0202601N006019999999N999999999-00351-00601101411ADDMA1999990101251MD1900031+9990REMSYN04801006 46/// /2606 11035 21060 30125 40141 50003=
0089010060999992014011711004+78250+022817FM-12+001499999V0202501N008019999999N999999999-00251-00511101411ADDMA1999990101251MD1310061+9990REMSYN04801006 46/// /2508 11025 21051 30125 40141 53006=
0132010060999992014011712004+78250+022817FM-12+001499999V0202301N007019999999N999999999-00291-00541101411ADDMA1999990101251MD1290039+9990OD139901101999REMSYN05801006 46/// /2307 11029 21054 30125 40141 54003 333 91111=EQDQ01.3    3APC3  
0108010060999992014011713004+78250+022817FM-12+001499999V0202401N007019999999N999999999-00311-00461101391ADDMA1999990101231MD1790029+9990REMSYN04801006 46/// /2407 11031 21046 30123 40139 54003=EQDQ01.3    3APC3  
0089010060999992014011714004+78250+022817FM-12+001499999V0202501N004019999999N999999999-00361-00561101401ADDMA1999990101241MD1410001+9990REMSYN04801006 46/// /2504 11036 21056 30124 40140 54000=
0108010060999992014011715004+78250+022817FM-12+001499999V0202301N006019999999N999999999-00381-00611101401ADDMA1999990101241MD1790019+9990REMSYN04801006 46/// /2306 11038 21061 30124 40140 54001=EQDQ01.1    3APC3  
0089010060999992014011716004+78250+022817FM-12+001499999V0202401N004019999999N999999999-00321-00631101421ADDMA1999990101261MD1210031+9990REMSYN04801006 46/// /2404 11032 21063 30126 40142 52003=
0108010060999992014011717004+78250+022817FM-12+001499999V0202501N004019999999N999999999-00461-00701101411ADDMA1999990101251MD1290019+9990REMSYN04801006 46/// /2504 11046 21070 30125 40141 54001=EQDQ01.1    3APC3  
0151010060999992014011718004+78250+022817FM-12+001499999V0202501N007019999999N999999999-00391-00671101411ADDKA1120M-00201MA1999990101251MD1290019+9990OD139900901999REMSYN06401006 46/// /2507 11039 21067 30125 40141 54001 333 11020 91109=EQDQ01.1    3APC3  
0089010060999992014011719004+78250+022817FM-12+001499999V0202501N006019999999N999999999-00261-00551101441ADDMA1999990101281MD1900021+9990REMSYN04801006 46/// /2506 11026 21055 30128 40144 50002=
0108010060999992014011720004+78250+022817FM-12+001499999V0202201N005019999999N999999999-00431-00681101431ADDMA1999990101271MD1290029+9990REMSYN04801006 46/// /2205 11043 21068 30127 40143 54002=EQDQ01.2    3APC3  
0108010060999992014011721004+78250+022817FM-12+001499999V0202601N006019999999N999999999-00291-00481101441ADDMA1999990101281MD1290039+9990REMSYN04801006 46/// /2606 11029 21048 30128 40144 54003=EQDQ01.3    3APC3  
0089010060999992014011722004+78250+022817FM-12+001499999V0202701N008019999999N999999999-00391-00581101441ADDMA1999990101281MD1410001+9990REMSYN04801006 46/// /2708 11039 21058 30128 40144 54000=
0089010060999992014011723004+78250+022817FM-12+001499999V0202501N008019999999N999999999-00361-00581101411ADDMA1999990101251MD1510011+9990REMSYN04801006 46/// /2508 11036 21058 30125 40141 55001=
0132010060999992014011800004+78250+022817FM-12+001499999V0202501N008019999999N999999999-00261-00481101411ADDMA1999990101251MD1790039+9990OD139901001999REMSYN05801006 46/// /2508 11026 21048 30125 40141 54003 333 91110=EQDQ01.3    3APC3  
0089010060999992014011801004+78250+022817FM-12+001499999V0202301N010019999999N999999999-00331-00531101351ADDMA1999990101191MD1610081+9990REMSYN04801006 46/// /2310 11033 21053 30119 40135 56008=
0089010060999992014011802004+78250+022817FM-12+001499999V0202201N009019999999N999999999-00381-00571101321ADDMA1999990101161MD1710091+9990REMSYN04801006 46/// /2209 11038 21057 30116 40132 57009=
0089010060999992014011803004+78250+022817FM-12+001499999V0202401N007019999999N999999999-00271-00451101321ADDMA1999990101161MD1810091+9990REMSYN04801006 46/// /2407 11027 21045 30116 40132 58009=
0089010060999992014011804004+78250+022817FM-12+001499999V0202501N011019999999N999999999-00221-00401101221ADDMA1999990101061MD1610131+9990REMSYN04801006 46/// /2511 11022 21040 30106 40122 56013=
0089010060999992014011805004+78250+022817FM-12+001499999V0202501N012019999999N999999999-00191-00341101161ADDMA1999990101001MD1610161+9990REMSYN04801006 46/// /2512 11019 21034 30100 40116 56016=
0132010060999992014011806004+78250+022817FM-12+001499999V0202401N015019999999N999999999-00131-00371101131ADDKA1240N-00491MA1999990100971MD1810201+9990OD139901701999REMSYN06401006 46/// /2415 11013 21037 30097 40113 58020 333 21049 91117=
0089010060999992014011807004+78250+022817FM-12+001499999V0202401N013019999999N999999999-00231-00441101131ADDMA1999990100971MD1810101+9990REMSYN04801006 46/// /2413 11023 21044 30097 40113 58010=
0089010060999992014011808004+78250+022817FM-12+001499999V0202301N014019999999N999999999-00261-00491101081ADDMA1999990100931MD1710071+9990REMSYN04801006 46/// /2314 11026 21049 30093 40108 57007=
0108010060999992014011809004+78250+022817FM-12+001499999V0202401N014019999999N999999999-00161-00491101101ADDMA1999990100941MD1790039+9990REMSYN04801006 46/// /2414 11016 21049 30094 40110 54003=EQDQ01.3    3APC3  
0089010060999992014011810004+78250+022817FM-12+001499999V0202301N015019999999N999999999-00231-00441101111ADDMA1999990100951MD1900021+9990REMSYN04801006 46/// /2315 11023 21044 30095 40111 50002=
0108010060999992014011811004+78250+022817FM-12+001499999V0202301N013019999999N999999999-00221-00431101091ADDMA1999990100931MD1290019+9990REMSYN04801006 46/// /2313 11022 21043 30093 40109 54001=EQDQ01.1    3APC3  
0118010060999992014011812004+78250+022817FM-12+001499999V0202501N013019999999N999999999-00171-00381101101ADDMA1999990100951OD139901701999REMSYN05801006 46/// /2513 11017 21038 30095 40110 54001 333 91117=EQDQ014     3APCTEN
0108010060999992014011813004+78250+022817FM-12+001499999V0202501N010019999999N999999999-00191-00411101101ADDMA1999990100941MD1790019+9990REMSYN04801006 46/// /2510 11019 21041 30094 40110 54001=EQDQ01.1    3APC3  
0089010060999992014011814004+78250+022817FM-12+001499999V0202401N008019999999N999999999-00121-00361101191ADDMA1999990101031MD1110091+9990REMSYN04801006 46/// /2408 11012 21036 30103 40119 51009=
0089010060999992014011815004+78250+022817FM-12+001499999V0202801N008019999999N999999999-00301-00421101171ADDMA1999990101011MD1210071+9990REMSYN04801006 46/// /2808 11030 21042 30101 40117 52007=
0089010060999992014011816004+78250+022817FM-12+001499999V0203101N004019999999N999999999-00271-00491101321ADDMA1999990101161MD1110231+9990REMSYN04801006 46/// /3104 11027 21049 30116 40132 51023=
0089010060999992014011817004+78250+022817FM-12+001499999V0203301N005019999999N999999999-00451-00711101431ADDMA1999990101271MD1110241+9990REMSYN04801006 46/// /3305 11045 21071 30127 40143 51024=
0132010060999992014011818004+78250+022817FM-12+001499999V0203601N006019999999N999999999-00621-00821101511ADDKA1120M-00021MA1999990101351MD1310341+9990OD139901701999REMSYN06401006 46/// /3606 11062 21082 30135 40151 53034 333 11002 91117=
0089010060999992014011819004+78250+022817FM-12+001499999V0200101N007019999999N999999999-00661-00891101581ADDMA1999990101411MD1310251+9990REMSYN04801006 46/// /0107 11066 21089 30141 40158 53025=
0089010060999992014011820004+78250+022817FM-12+001499999V0203601N007019999999N999999999-00701-00941101631ADDMA1999990101471MD1210201+9990REMSYN04801006 46/// /3607 11070 21094 30147 40163 52020=
0089010060999992014011821004+78250+022817FM-12+001499999V0203601N006019999999N999999999-00741-01011101761ADDMA1999990101601MD1110251+9990REMSYN04801006 46/// /3606 11074 21101 30160 40176 51025=
0089010060999992014011823004+78250+022817FM-12+001499999V0200101N002019999999N999999999-00801-01011101891ADDMA1999990101721MD1210261+9990REMSYN04801006 46/// /0102 11080 21101 30172 40189 52026=
0089010060999992014011900004+78250+022817FM-12+001499999V0200301N004019999999N999999999-00791-01021101931ADDMA1999990101771MD1110171+9990REMSYN04801006 46/// /0304 11079 21102 30177 40193 51017=
0089010060999992014011901004+78250+022817FM-12+001499999V0200301N003019999999N999999999-00781-01021101971ADDMA1999990101811MD1310201+9990REMSYN04801006 46/// /0303 11078 21102 30181 40197 53020=
0089010060999992014011902004+78250+022817FM-12+001499999V0200301N002019999999N999999999-00811-01031102011ADDMA1999990101851MD1210121+9990REMSYN04801006 46/// /0302 11081 21103 30185 40201 52012=
0089010060999992014011903004+78250+022817FM-12+001499999V0200301N004019999999N999999999-00821-01041102051ADDMA1999990101881MD1210121+9990REMSYN04801006 46/// /0304 11082 21104 30188 40205 52012=
0089010060999992014011904004+78250+022817FM-12+001499999V0200401N003019999999N999999999-00841-01051102071ADDMA1999990101911MD1210101+9990REMSYN04801006 46/// /0403 11084 21105 30191 40207 52010=
0089010060999992014011905004+78250+022817FM-12+001499999V0200301N003019999999N999999999-00861-01081102131ADDMA1999990101971MD1210121+9990REMSYN04801006 46/// /0303 11086 21108 30197 40213 52012=
0113010060999992014011906004+78250+022817FM-12+001499999V0200101N003019999999N999999999-00851-01101102151ADDMA1999990101981MD1210101+9990OD139900501999REMSYN05801006 46/// /0103 11085 21110 30198 40215 52010 333 91105=
0089010060999992014011907004+78250+022817FM-12+001499999V0203401N003019999999N999999999-00851-01101102161ADDMA1999990101991MD1310081+9990REMSYN04801006 46/// /3403 11085 21110 30199 40216 53008=
0089010060999992014011908004+78250+022817FM-12+001499999V0200101N003019999999N999999999-00861-01131102221ADDMA1999990102051MD1110091+9990REMSYN04801006 46/// /0103 11086 21113 30205 40222 51009=
0089010060999992014011909004+78250+022817FM-12+001499999V0203101N002019999999N999999999-00861-01201102261ADDMA1999990102091MD1110111+9990REMSYN04801006 46/// /3102 11086 21120 30209 40226 51011=
0089010060999992014011910004+78250+022817FM-12+001499999V0202501N003019999999N999999999-01001-01221102301ADDMA1999990102131MD1210141+9990REMSYN04801006 46/// /2503 11100 21122 30213 40230 52014=
0089010060999992014011911004+78250+022817FM-12+001499999V0202401N005019999999N999999999-01091-01321102321ADDMA1999990102161MD1210101+9990REMSYN04801006 46/// /2405 11109 21132 30216 40232 52010=
0113010060999992014011912004+78250+022817FM-12+001499999V0202401N005019999999N999999999-01101-01281102321ADDMA1999990102151MD1310061+9990OD139900501999REMSYN05801006 46/// /2405 11110 21128 30215 40232 53006 333 91105=
0089010060999992014011913004+78250+022817FM-12+001499999V0202301N005019999999N999999999-01251-01401102351ADDMA1999990102181MD1210051+9990REMSYN04801006 46/// /2305 11125 21140 30218 40235 52005=
0108010060999992014011914004+78250+022817FM-12+001499999V0202301N006019999999N999999999-01301-01451102341ADDMA1999990102181MD1290029+9990REMSYN04801006 46/// /2306 11130 21145 30218 40234 54002=EQDQ01.2    3APC3  
0108010060999992014011915004+78250+022817FM-12+001499999V0202301N005019999999N999999999-01281-01421102351ADDMA1999990102181MD1290039+9990REMSYN04801006 46/// /2305 11128 21142 30218 40235 54003=EQDQ01.3    3APC3  
0108010060999992014011916004+78250+022817FM-12+001499999V0202301N005019999999N999999999-01281-01401102361ADDMA1999990102201MD1290019+9990REMSYN04801006 46/// /2305 11128 21140 30220 40236 54001=EQDQ01.1    3APC3  
0108010060999992014011918004+78250+022817FM-12+001499999V0202301N005019999999N999999999-01221-01311102371ADDMA1999990102201MD1290029+9990REMSYN04801006 46/// /2305 11122 21131 30220 40237 54002=EQDQ01.2    3APC3  
0108010060999992014011919004+78250+022817FM-12+001499999V0202301N004019999999N999999999-01181-01271102381ADDMA1999990102211MD1290029+9990REMSYN04801006 46/// /2304 11118 21127 30221 40238 54002=EQDQ01.2    3APC3  
0089010060999992014011920004+78250+022817FM-12+001499999V0202301N004019999999N999999999-01161-01251102411ADDMA1999990102251MD1210061+9990REMSYN04801006 46/// /2304 11116 21125 30225 40241 52006=
0089010060999992014011921004+78250+022817FM-12+001499999V0202201N004019999999N999999999-01131-01231102421ADDMA1999990102261MD1210061+9990REMSYN04801006 46/// /2204 11113 21123 30226 40242 52006=
0089010060999992014011922004+78250+022817FM-12+001499999V0202201N004019999999N999999999-01231-01411102431ADDMA1999990102261MD1210051+9990REMSYN04801006 46/// /2204 11123 21141 30226 40243 52005=
0108010060999992014011923004+78250+022817FM-12+001499999V0202201N003019999999N999999999-01121-01331102441ADDMA1999990102271MD1290039+9990REMSYN04801006 46/// /2203 11112 21133 30227 40244 54003=EQDQ01.3    3APC3  
0113010060999992014012000004+78250+022817FM-12+001499999V0201701N003019999999N999999999-01191-01341102401ADDMA1999990102241MD1510021+9990OD139900501999REMSYN05801006 46/// /1703 11119 21134 30224 40240 55002 333 91105=
0108010060999992014012001004+78250+022817FM-12+001499999V0201801N005019999999N999999999-01231-01451102411ADDMA1999990102251MD1790029+9990REMSYN04801006 46/// /1805 11123 21145 30225 40241 54001=EQDQ01.1    3APC3  
0089010060999992014012002004+78250+022817FM-12+001499999V0202101N005019999999N999999999-01281-01511102411ADDMA1999990102241MD1710031+9990REMSYN04801006 46/// /2105 11128 21151 30224 40241 57003=
0108010060999992014012003004+78250+022817FM-12+001499999V0201501N003019999999N999999999-01301-01421102391ADDMA1999990102221MD1790019+9990REMSYN04801006 46/// /1503 11130 21142 30222 40239 54001=EQDQ01.1    3APC3  
0108010060999992014012004004+78250+022817FM-12+001499999V0203201N001019999999N999999999-01201-01321102391ADDMA1999990102221MD1790029+9990REMSYN04801006 46/// /3201 11120 21132 30222 40239 54002=EQDQ01.2    3APC3  
0089010060999992014012005004+78250+022817FM-12+001499999V0202201N002019999999N999999999-01171-01361102351ADDMA1999990102181MD1710061+9990REMSYN04801006 46/// /2202 11117 21136 30218 40235 57006=
0132010060999992014012006004+78250+022817FM-12+001499999V0201701N002019999999N999999999-01191-01401102361ADDKA1240N-01411MA1999990102191MD1710031+9990OD139900601999REMSYN06401006 46/// /1702 11119 21140 30219 40236 57003 333 21141 91106=
0089010060999992014012007004+78250+022817FM-12+001499999V0201101N002019999999N999999999-01371-01531102321ADDMA1999990102151MD1710071+9990REMSYN04801006 46/// /1102 11137 21153 30215 40232 57007=
0089010060999992014012008004+78250+022817FM-12+001499999V0201001N001019999999N999999999-01191-01451102311ADDMA1999990102141MD1710041+9990REMSYN04801006 46/// /1001 11119 21145 30214 40231 57004=
0089010060999992014012009004+78250+022817FM-12+001499999V0201401N002019999999N999999999-01211-01471102291ADDMA1999990102121MD1710071+9990REMSYN04801006 46/// /1402 11121 21147 30212 40229 57007=
0089010060999992014012010004+78250+022817FM-12+001499999V0201801N006019999999N999999999-00811-00961102241ADDMA1999990102071MD1610081+9990REMSYN04801006 46/// /1806 11081 21096 30207 40224 56008=
0089010060999992014012011004+78250+022817FM-12+001499999V0201801N006019999999N999999999-00821-00971102191ADDMA1999990102031MD1710111+9990REMSYN04801006 46/// /1806 11082 21097 30203 40219 57011=
0113010060999992014012012004+78250+022817FM-12+001499999V0201801N006019999999N999999999-00721-00891102131ADDMA1999990101971MD1710161+9990OD139900801999REMSYN05801006 46/// /1806 11072 21089 30197 40213 57016 333 91108=
0089010060999992014012013004+78250+022817FM-12+001499999V0201901N007019999999N999999999-00561-00731102061ADDMA1999990101891MD1710181+9990REMSYN04801006 46/// /1907 11056 21073 30189 40206 57018=
0089010060999992014012014004+78250+022817FM-12+001499999V0201801N007019999999N999999999-00621-00811101971ADDMA1999990101811MD1710221+9990REMSYN04801006 46/// /1807 11062 21081 30181 40197 57022=
0089010060999992014012015004+78250+022817FM-12+001499999V0202101N011019999999N999999999-00481-00641101831ADDMA1999990101671MD1610301+9990REMSYN04801006 46/// /2111 11048 21064 30167 40183 56030=
0089010060999992014012016004+78250+022817FM-12+001499999V0201901N011019999999N999999999-00431-00611101731ADDMA1999990101571MD1710321+9990REMSYN04801006 46/// /1911 11043 21061 30157 40173 57032=
0089010060999992014012017004+78250+022817FM-12+001499999V0202101N013019999999N999999999-00251-00431101571ADDMA1999990101411MD1710401+9990REMSYN04801006 46/// /2113 11025 21043 30141 40157 57040=
0132010060999992014012018004+78250+022817FM-12+001499999V0202101N013019999999N999999999-00161-00371101491ADDKA1120M-00161MA1999990101331MD1710341+9990OD139901601999REMSYN06401006 46/// /2113 11016 21037 30133 40149 57034 333 11016 91116=
0089010060999992014012019004+78250+022817FM-12+001499999V0202201N011019999999N999999999-00061-00201101471ADDMA1999990101321MD1810251+9990REMSYN04801006 46/// /2211 11006 21020 30132 40147 58025=
0089010060999992014012020004+78250+022817FM-12+001499999V0202101N009019999999N999999999-00071-00181101431ADDMA1999990101271MD1810141+9990REMSYN04801006 46/// /2109 11007 21018 30127 40143 58014=
0089010060999992014012021004+78250+022817FM-12+001499999V0202801N009019999999N999999999-00121-00181101411ADDMA1999990101251MD1710081+9990REMSYN04801006 46/// /2809 11012 21018 30125 40141 57008=
0089010060999992014012022004+78250+022817FM-12+001499999V0202601N009019999999N999999999-00291-00381101431ADDMA1999990101271MD1810041+9990REMSYN04801006 46/// /2609 11029 21038 30127 40143 58004=
0108010060999992014012023004+78250+022817FM-12+001499999V0202701N007019999999N999999999-00461-00581101411ADDMA1999990101251MD1790029+9990REMSYN04801006 46/// /2707 11046 21058 30125 40141 54002=EQDQ01.2    3APC3  
0113010060999992014012100004+78250+022817FM-12+001499999V0202601N006019999999N999999999-00451-00681101421ADDMA1999990101251MD1410001+9990OD139901501999REMSYN05801006 46/// /2606 11045 21068 30125 40142 54000 333 91115=
0089010060999992014012101004+78250+022817FM-12+001499999V0202601N009019999999N999999999-00161-00581101431ADDMA1999990101271MD1900001+9990REMSYN04801006 46/// /2609 11016 21058 30127 40143 50000=
0108010060999992014012102004+78250+022817FM-12+001499999V0202601N008019999999N999999999-00331-00651101431ADDMA1999990101271MD1290029+9990REMSYN04801006 46/// /2608 11033 21065 30127 40143 54002=EQDQ01.2    3APC3  
0089010060999992014012103004+78250+022817FM-12+001499999V0202301N005019999999N999999999-00371-00691101381ADDMA1999990101221MD1610041+9990REMSYN04801006 46/// /2305 11037 21069 30122 40138 56004=
0089010060999992014012104004+78250+022817FM-12+001499999V0202701N010019999999N999999999-00221-00611101331ADDMA1999990101171MD1610101+9990REMSYN04801006 46/// /2710 11022 21061 30117 40133 56010=
0089010060999992014012105004+78250+022817FM-12+001499999V0202701N007019999999N999999999-00401-00661101341ADDMA1999990101181MD1810091+9990REMSYN04801006 46/// /2707 11040 21066 30118 40134 58009=
0132010060999992014012106004+78250+022817FM-12+001499999V0202801N008019999999N999999999-00341-00621101341ADDKA1240N-00481MA1999990101181MD1810031+9990OD139901301999REMSYN06401006 46/// /2808 11034 21062 30118 40134 58003 333 21048 91113=
0108010060999992014012107004+78250+022817FM-12+001499999V0202701N010019999999N999999999-00381-00721101351ADDMA1999990101191MD1290029+9990REMSYN04801006 46/// /2710 11038 21072 30119 40135 54001=EQDQ01.1    3APC3  
0089010060999992014012108004+78250+022817FM-12+001499999V0202901N011019999999N999999999-00411-00731101341ADDMA1999990101181MD1410001+9990REMSYN04801006 46/// /2911 11041 21073 30118 40134 54000=
0089010060999992014012109004+78250+022817FM-12+001499999V0202901N007019999999N999999999-00491-00811101451ADDMA1999990101291MD1110111+9990REMSYN04801006 46/// /2907 11049 21081 30129 40145 51011=
0089010060999992014012110004+78250+022817FM-12+001499999V0202901N004019999999N999999999-00621-00891101531ADDMA1999990101361MD1110181+9990REMSYN04801006 46/// /2904 11062 21089 30136 40153 51018=
0089010060999992014012111004+78250+022817FM-12+001499999V0203401N002019999999N999999999-00571-00741101571ADDMA1999990101411MD1310231+9990REMSYN04801006 46/// /3402 11057 21074 30141 40157 53023=
0113010060999992014012112004+78250+022817FM-12+001499999V0203301N002019999999N999999999-00651-00811101591ADDMA1999990101431MD1310141+9990OD139901201999REMSYN05801006 46/// /3302 11065 21081 30143 40159 53014 333 91112=
0089010060999992014012113004+78250+022817FM-12+001499999V0202701N002019999999N999999999-00661-00761101661ADDMA1999990101501MD1210141+9990REMSYN04801006 46/// /2702 11066 21076 30150 40166 52014=
0089010060999992014012114004+78250+022817FM-12+001499999V0203001N002019999999N999999999-00521-00701101721ADDMA1999990101551MD1110141+9990REMSYN04801006 46/// /3002 11052 21070 30155 40172 51014=
0089010060999992014012115004+78250+022817FM-12+001499999V0202401N003019999999N999999999-00641-00831101751ADDMA1999990101591MD1310161+9990REMSYN04801006 46/// /2403 11064 21083 30159 40175 53016=
0089010060999992014012116004+78250+022817FM-12+001499999V0202901N002019999999N999999999-00621-00861101781ADDMA1999990101621MD1210111+9990REMSYN04801006 46/// /2902 11062 21086 30162 40178 52011=
0089010060999992014012117004+78250+022817FM-12+001499999V0200101N005019999999N999999999-00461-00661101801ADDMA1999990101641MD1210081+9990REMSYN04801006 46/// /0105 11046 21066 30164 40180 52008=
0132010060999992014012118004+78250+022817FM-12+001499999V0203301N002019999999N999999999-00551-00741101871ADDKA1120M-00311MA1999990101711MD1110131+9990OD139900601999REMSYN06401006 46/// /3302 11055 21074 30171 40187 51013 333 11031 91106=
0089010060999992014012119004+78250+022817FM-12+001499999V0202801N002019999999N999999999-00691-00851101891ADDMA1999990101731MD1210111+9990REMSYN04801006 46/// /2802 11069 21085 30173 40189 52011=
