0130010070999992014010100004+78917+011933FM-12+000899999V0201301N004019999999N999999999-00631-00861101931ADDAA106000231MA1999990101831MD1710211+9990OD139900801999REMSYN06401007 16/// /1304 11063 21086 30183 40193 57021 69921 333 91108=
0089010070999992014010101004+78917+011933FM-12+000899999V0201201N008019999999N999999999-00571-00831101861ADDMA1999990101761MD1810201+9990REMSYN04801007 46/// /1208 11057 21083 30176 40186 58020=
0089010070999992014010102004+78917+011933FM-12+000899999V0201101N009019999999N999999999-00451-00721101791ADDMA1999990101701MD1710201+9990REMSYN04801007 46/// /1109 11045 21072 30170 40179 57020=
0089010070999992014010104004+78917+011933FM-12+000899999V0201001N007019999999N999999999-00321-00701101661ADDMA1999990101561MD1810201+9990REMSYN04801007 46/// /1007 11032 21070 30156 40166 58020=
0089010070999992014010105004+78917+011933FM-12+000899999V0201101N008019999999N999999999-00431-00631101611ADDMA1999990101511MD1710191+9990REMSYN04801007 46/// /1108 11043 21063 30151 40161 57019=
0293010070999992014010106004+78917+011933FM-12+000899999V0201201N010019999999N001800199-00501-00641101551ADDAA112001031AA224001131AJ100263100260094AY171021AY231021GA1081+999991081GE19MSL   +99999+99999GF108991081990999999991991IA1289KA1240N-01031MA1999990101451MD1610201+9990MW1731OD139901201999REMSYN09401007 11/18 81210 11050 21064 30145 40155 56020 60012 77373 888// 333 21103 48026 70011 91112=
0089010070999992014010107004+78917+011933FM-12+000899999V0201301N006019999999N999999999-00511-00651101511ADDMA1999990101411MD1810151+9990REMSYN04801007 46/// /1306 11051 21065 30141 40151 58015=
0089010070999992014010108004+78917+011933FM-12+000899999V0201101N011019999999N999999999-00511-00651101461ADDMA1999990101361MD1710141+9990REMSYN04801007 46/// /1111 11051 21065 30136 40146 57014=
0089010070999992014010109004+78917+011933FM-12+000899999V0200901N005019999999N999999999-00391-00531101431ADDMA1999990101331MD1710121+9990REMSYN04801007 46/// /0905 11039 21053 30133 40143 57012=
0089010070999992014010110004+78917+011933FM-12+000899999V0200601N002019999999N999999999-00361-00501101481ADDMA1999990101381MD1610041+9990REMSYN04801007 46/// /0602 11036 21050 30138 40148 56004=
0089010070999992014010111004+78917+011933FM-12+000899999V0203101N002019999999N999999999-00381-00521101551ADDMA1999990101451MD1310081+9990REMSYN04801007 46/// /3102 11038 21052 30145 40155 53008=
0085010070999992014010112004+78917+011933FM-12+000899999V020999999999999999999999999999+99999+99999999999REMSYN07601007 11X47 83202 11039 21054 30145 40155 50012 60041 77177 8802/ 333 91113=
0089010070999992014010113004+78917+011933FM-12+000899999V0202401N005019999999N999999999-00361-00591101571ADDMA1999990101471MD1110101+9990REMSYN04801007 46/// /2405 11036 21059 30147 40157 51010=
0089010070999992014010114004+78917+011933FM-12+000899999V0202401N005019999999N999999999-00391-00611101591ADDMA1999990101491MD1210041+9990REMSYN04801007 46/// /2405 11039 21061 30149 40159 52004=
0089010070999992014010115004+78917+011933FM-12+000899999V0202501N004019999999N999999999-00421-00621101601ADDMA1999990101501MD1210051+9990REMSYN04801007 46/// /2504 11042 21062 30150 40160 52005=
0089010070999992014010116004+78917+011933FM-12+000899999V0202701N005019999999N999999999-00531-00721101631ADDMA1999990101531MD1210061+9990REMSYN04801007 46/// /2705 11053 21072 30153 40163 52006=
0089010070999992014010117004+78917+011933FM-12+000899999V0202701N006019999999N999999999-00551-00771101691ADDMA1999990101591MD1310101+9990REMSYN04801007 46/// /2706 11055 21077 30159 40169 53010=
0091010070999992014010118004+78917+011933FM-12+000899999V020999999999999999999999999999+99999+99999999999REMSYN08201007 11X59 82806 11072 21095 30163 40173 52013 60052 77177 8802/ 333 11032 91109=
0089010070999992014010119004+78917+011933FM-12+000899999V0202801N004019999999N999999999-00761-01001101781ADDMA1999990101681MD1210151+9990REMSYN04801007 46/// /2804 11076 21100 30168 40178 52015=
0089010070999992014010120004+78917+011933FM-12+000899999V0203101N005019999999N999999999-00871-01111101821ADDMA1999990101721MD1210131+9990REMSYN04801007 46/// /3105 11087 21111 30172 40182 52013=
0089010070999992014010121004+78917+011933FM-12+000899999V0203001N002019999999N999999999-00951-01191101861ADDMA1999990101761MD1210121+9990REMSYN04801007 46/// /3002 11095 21119 30176 40186 52012=
0089010070999992014010122004+78917+011933FM-12+000899999V0201601N001019999999N999999999-00891-01141101891ADDMA1999990101781MD1210101+9990REMSYN04801007 46/// /1601 11089 21114 30178 40189 52010=
0089010070999992014010123004+78917+011933FM-12+000899999V0202501N002019999999N999999999-00801-01101101921ADDMA1999990101821MD1210101+9990REMSYN04801007 46/// /2502 11080 21110 30182 40192 52010=
0130010070999992014010200004+78917+011933FM-12+000899999V0202301N002019999999N999999999-00861-01141101931ADDAA106000091MA1999990101831MD1210081+9990OD139900701999REMSYN06401007 16/// /2302 11086 21114 30183 40193 52008 60001 333 91107=
0089010070999992014010201004+78917+011933FM-12+000899999V0202001N002019999999N999999999-00801-01111101931ADDMA1999990101831MD1900041+9990REMSYN04801007 46/// /2002 11080 21111 30183 40193 50004=
0089010070999992014010202004+78917+011933FM-12+000899999V0202001N003019999999N999999999-00831-01151101911ADDMA1999990101811MD1810011+9990REMSYN04801007 46/// /2003 11083 21115 30181 40191 58001=
0089010070999992014010203004+78917+011933FM-12+000899999V0201501N002019999999N999999999-00971-01281101931ADDMA1999990101831MD1710011+9990REMSYN04801007 46/// /1502 11097 21128 30183 40193 57001=
0089010070999992014010204004+78917+011933FM-12+000899999V0201301N002019999999N999999999-00951-01261101941ADDMA1999990101831MD1310011+9990REMSYN04801007 46/// /1302 11095 21126 30183 40194 53001=
0089010070999992014010205004+78917+011933FM-12+000899999V0201201N003019999999N999999999-01111-01371101921ADDMA1999990101821MD1900011+9990REMSYN04801007 46/// /1203 11111 21137 30182 40192 50001=
0223010070999992014010206004+78917+011933FM-12+000899999V0201301N003019999999N070001199-01271-01511101911ADDAA112000091AA224005031AJ100373100370094AY131021AY201021IA1239KA1240N-01341MA1999990101811MD1710011+9990MW1021OD139900401999REMSYN08801007 11989 01303 11127 21151 30181 40191 57001 60002 70230 333 21134 47037 70050 91104=
0089010070999992014010207004+78917+011933FM-12+000899999V0201401N002019999999N999999999-01121-01421101911ADDMA1999990101811MD1710021+9990REMSYN04801007 46/// /1402 11112 21142 30181 40191 57002=
0089010070999992014010208004+78917+011933FM-12+000899999V0201401N002019999999N999999999-01051-01371101941ADDMA1999990101841MD1210021+9990REMSYN04801007 46/// /1402 11105 21137 30184 40194 52002=
0083010070999992014010209004+78917+011933FM-12+000899999V0201301N002019999999N999999999+99999+99999999999ADDMA1999990101871MD1210061+9990REMSYN04201007 46/// /1302 1//// 2//// 30187 52006=
0089010070999992014010210004+78917+011933FM-12+000899999V0201501N002019999999N999999999-00881-01281101961ADDMA1999990101861MD1900041+9990REMSYN04801007 46/// /1502 11088 21128 30186 40196 50004=
0089010070999992014010211004+78917+011933FM-12+000899999V0209999C999999999999N999999999-00771-01201101921ADDMA1999990101821MD1810011+9990REMSYN04801007 46/// /0000 11077 21120 30182 40192 58001=
0228010070999992014010212004+78917+011933FM-12+000899999V0201501N002019999999N070001199-00611-00951101891ADDAA106001031AY121021AY201021GA1081+999991061GE19MSL   +99999+99999GF108991081990999999991991MA1999990101791MD1710081+9990MW1021OD139900401999REMSYN07601007 11689 81502 11061 21095 30179 40189 57008 60011 70220 885// 333 91104=
0089010070999992014010213004+78917+011933FM-12+000899999V0201701N002019999999N999999999-00521-00901101841ADDMA1999990101741MD1710121+9990REMSYN04801007 46/// /1702 11052 21090 30174 40184 57012=
0089010070999992014010214004+78917+011933FM-12+000899999V0201401N001019999999N999999999-00461-00791101821ADDMA1999990101721MD1710101+9990REMSYN04801007 46/// /1401 11046 21079 30172 40182 57010=
0089010070999992014010215004+78917+011933FM-12+000899999V0201501N002019999999N999999999-00441-00731101791ADDMA1999990101691MD1610101+9990REMSYN04801007 46/// /1502 11044 21073 30169 40179 56010=
0089010070999992014010216004+78917+011933FM-12+000899999V0201501N002019999999N999999999-00361-00591101761ADDMA1999990101661MD1810081+9990REMSYN04801007 46/// /1502 11036 21059 30166 40176 58008=
0089010070999992014010217004+78917+011933FM-12+000899999V0201401N001019999999N999999999-00381-00581101741ADDMA1999990101641MD1710081+9990REMSYN04801007 46/// /1401 11038 21058 30164 40174 57008=
0203010070999992014010218004+78917+011933FM-12+000899999V0203101N00201002401CN008000199-00421-00581101721ADDAA112001031AY171021AY221021GF109991999999999999999999KA1120M-00331MA1999990101621MD1710081+9990MW1711OD139900301999REMSYN07601007 11/58 93102 11042 21058 30162 40172 57008 60012 77172 333 11033 91103=
0089010070999992014010219004+78917+011933FM-12+000899999V0203501N002019999999N999999999-00331-00471101721ADDMA1999990101621MD1610041+9990REMSYN04801007 46/// /3502 11033 21047 30162 40172 56004=
0089010070999992014010220004+78917+011933FM-12+000899999V0203401N002019999999N999999999-00341-00501101751ADDMA1999990101651MD1310011+9990REMSYN04801007 46/// /3402 11034 21050 30165 40175 53001=
0089010070999992014010221004+78917+011933FM-12+000899999V0203301N004019999999N999999999-00451-00611101781ADDMA1999990101681MD1310061+9990REMSYN04801007 46/// /3304 11045 21061 30168 40178 53006=
0089010070999992014010222004+78917+011933FM-12+000899999V0202801N002019999999N999999999-00531-00701101791ADDMA1999990101691MD1210081+9990REMSYN04801007 46/// /2802 11053 21070 30169 40179 52008=
0089010070999992014010223004+78917+011933FM-12+000899999V0202801N002019999999N999999999-00521-00701101791ADDMA1999990101691MD1900041+9990REMSYN04801007 46/// /2802 11052 21070 30169 40179 50004=
0130010070999992014010300004+78917+011933FM-12+000899999V0201801N001019999999N999999999-00501-00691101751ADDAA106001031MA1999990101651MD1810031+9990OD139900601999REMSYN06401007 16/// /1801 11050 21069 30165 40175 58003 60011 333 91106=
0089010070999992014010301004+78917+011933FM-12+000899999V0202501N001019999999N999999999-00521-00721101721ADDMA1999990101621MD1810071+9990REMSYN04801007 46/// /2501 11052 21072 30162 40172 58007=
0089010070999992014010302004+78917+011933FM-12+000899999V0202201N001019999999N999999999-00471-00771101681ADDMA1999990101581MD1710111+9990REMSYN04801007 46/// /2201 11047 21077 30158 40168 57011=
0089010070999992014010303004+78917+011933FM-12+000899999V0201901N001019999999N999999999-00341-00741101671ADDMA1999990101571MD1710071+9990REMSYN04801007 46/// /1901 11034 21074 30157 40167 57007=
0089010070999992014010304004+78917+011933FM-12+000899999V0201301N001019999999N999999999-00401-00881101651ADDMA1999990101561MD1710061+9990REMSYN04801007 46/// /1301 11040 21088 30156 40165 57006=
0089010070999992014010305004+78917+011933FM-12+000899999V0201201N003019999999N999999999-00441-00941101661ADDMA1999990101561MD1710021+9990REMSYN04801007 46/// /1203 11044 21094 30156 40166 57002=
0293010070999992014010306004+78917+011933FM-12+000899999V0201501N003019999999N070001199-00401-00951101661ADDAA112002031AA224003031AJ100413100410094AY171021AY221021GA1081+999991061GE19MSL   +99999+99999GF108991081990999999991991IA1239KA1240N-00611MA1999990101561MD1710011+9990MW1021OD139900501999REMSYN09401007 11689 81503 11040 21095 30156 40166 57001 60022 70272 885// 333 21061 47041 70030 91105=
0089010070999992014010307004+78917+011933FM-12+000899999V0201401N001019999999N999999999-00441-01011101641ADDMA1999990101541MD1810011+9990REMSYN04801007 46/// /1401 11044 21101 30154 40164 58001=
0089010070999992014010308004+78917+011933FM-12+000899999V0201501N003019999999N999999999-00511-01001101671ADDMA1999990101571MD1310011+9990REMSYN04801007 46/// /1503 11051 21100 30157 40167 53001=
0089010070999992014010309004+78917+011933FM-12+000899999V0201201N003019999999N999999999-00541-01021101681ADDMA1999990101581MD1310011+9990REMSYN04801007 46/// /1203 11054 21102 30158 40168 53001=
0089010070999992014010310004+78917+011933FM-12+000899999V0201501N002019999999N999999999-00621-01091101691ADDMA1999990101591MD1210051+9990REMSYN04801007 46/// /1502 11062 21109 30159 40169 52005=
0089010070999992014010311004+78917+011933FM-12+000899999V0201501N003019999999N999999999-00691-01161101691ADDMA1999990101591MD1310021+9990REMSYN04801007 46/// /1503 11069 21116 30159 40169 53002=
0177010070999992014010312004+78917+011933FM-12+000899999V0201401N003019999999N070001199-00751-01241101681ADDAA106000091AY111021AY201021MA1999990101581MD1490001+9990MW1021OD139900701999REMSYN07001007 11989 01403 11075 21124 30158 40168 52000 60001 70210 333 91107=EQDQ012     3APCTEN
0089010070999992014010313004+78917+011933FM-12+000899999V0201601N004019999999N999999999-00731-01171101661ADDMA1999990101561MD1810031+9990REMSYN04801007 46/// /1604 11073 21117 30156 40166 58003=
0089010070999992014010314004+78917+011933FM-12+000899999V0201601N003019999999N999999999-00711-01181101661ADDMA1999990101561MD1610031+9990REMSYN04801007 46/// /1603 11071 21118 30156 40166 56003=
0089010070999992014010315004+78917+011933FM-12+000899999V0201501N004019999999N999999999-00831-01281101641ADDMA1999990101531MD1710051+9990REMSYN04801007 46/// /1504 11083 21128 30153 40164 57005=
0089010070999992014010316004+78917+011933FM-12+000899999V0201401N003019999999N999999999-00821-01251101601ADDMA1999990101501MD1810061+9990REMSYN04801007 46/// /1403 11082 21125 30150 40160 58006=
0089010070999992014010317004+78917+011933FM-12+000899999V0201501N003019999999N999999999-00741-01191101581ADDMA1999990101481MD1710081+9990REMSYN04801007 46/// /1503 11074 21119 30148 40158 57008=
0177010070999992014010318004+78917+011933FM-12+000899999V0201401N004019999999N070001199-00811-01211101571ADDAA112000091AY101021AY201021KA1120M-00361MA1999990101471MD1610061+9990MW1021OD139900601999REMSYN07601007 11989 01404 11081 21121 30147 40157 56006 60002 70200 333 11036 91106=
0089010070999992014010319004+78917+011933FM-12+000899999V0201501N004019999999N999999999-00871-01291101571ADDMA1999990101471MD1610031+9990REMSYN04801007 46/// /1504 11087 21129 30147 40157 56003=
0089010070999992014010320004+78917+011933FM-12+000899999V0201401N003019999999N999999999-00891-01301101581ADDMA1999990101481MD1410001+9990REMSYN04801007 46/// /1403 11089 21130 30148 40158 54000=
0089010070999992014010321004+78917+011933FM-12+000899999V0201501N004019999999N999999999-00891-01321101541ADDMA1999990101441MD1810031+9990REMSYN04801007 46/// /1504 11089 21132 30144 40154 58003=
0089010070999992014010322004+78917+011933FM-12+000899999V0201501N003019999999N999999999-00871-01301101541ADDMA1999990101441MD1710031+9990REMSYN04801007 46/// /1503 11087 21130 30144 40154 57003=
0089010070999992014010323004+78917+011933FM-12+000899999V0201401N003019999999N999999999-00831-01301101531ADDMA1999990101431MD1610051+9990REMSYN04801007 46/// /1403 11083 21130 30143 40153 56005=
0130010070999992014010400004+78917+011933FM-12+000899999V0201301N002019999999N999999999-00891-01321101541ADDAA106000091MA1999990101441MD1710011+9990OD139900501999REMSYN06401007 16/// /1302 11089 21132 30144 40154 57001 60001 333 91105=
0089010070999992014010401004+78917+011933FM-12+000899999V0201401N004019999999N999999999-00901-01361101521ADDMA1999990101421MD1710021+9990REMSYN04801007 46/// /1404 11090 21136 30142 40152 57002=
0089010070999992014010402004+78917+011933FM-12+000899999V0201501N004019999999N999999999-00851-01281101491ADDMA1999990101381MD1810051+9990REMSYN04801007 46/// /1504 11085 21128 30138 40149 58005=
0089010070999992014010403004+78917+011933FM-12+000899999V0201301N006019999999N999999999-00691-01211101451ADDMA1999990101351MD1710091+9990REMSYN04801007 46/// /1306 11069 21121 30135 40145 57009=
0089010070999992014010404004+78917+011933FM-12+000899999V0201501N007019999999N999999999-00601-01111101421ADDMA1999990101321MD1710101+9990REMSYN04801007 46/// /1507 11060 21111 30132 40142 57010=
0089010070999992014010405004+78917+011933FM-12+000899999V0201301N007019999999N999999999-00691-01211101401ADDMA1999990101301MD1710091+9990REMSYN04801007 46/// /1307 11069 21121 30130 40140 57009=
0223010070999992014010406004+78917+011933FM-12+000899999V0201401N005019999999N070001199-00711-01211101391ADDAA112000091AA224000091AJ100383100380094AY101021AY201021IA1239KA1240N-00941MA1999990101291MD1710061+9990MW1021OD139900901999REMSYN08801007 11989 01405 11071 21121 30129 40139 57006 60002 70200 333 21094 47038 70000 91109=
0089010070999992014010407004+78917+011933FM-12+000899999V0201401N005019999999N999999999-00671-01191101371ADDMA1999990101271MD1710051+9990REMSYN04801007 46/// /1405 11067 21119 30127 40137 57005=
0089010070999992014010408004+78917+011933FM-12+000899999V0201301N006019999999N999999999-00731-01221101381ADDMA1999990101281MD1710021+9990REMSYN04801007 46/// /1306 11073 21122 30128 40138 57002=
0089010070999992014010409004+78917+011933FM-12+000899999V0201301N006019999999N999999999-00641-01161101391ADDMA1999990101291MD1210011+9990REMSYN04801007 46/// /1306 11064 21116 30129 40139 52001=
0089010070999992014010410004+78917+011933FM-12+000899999V0201201N008019999999N999999999-00641-01201101411ADDMA1999990101311MD1210041+9990REMSYN04801007 46/// /1208 11064 21120 30131 40141 52004=
0089010070999992014010411004+78917+011933FM-12+000899999V0201501N006019999999N999999999-00711-01181101411ADDMA1999990101311MD1210031+9990REMSYN04801007 46/// /1506 11071 21118 30131 40141 52003=
0228010070999992014010412004+78917+011933FM-12+000899999V0201301N005019999999N070001199-00721-01191101391ADDAA106000091AY101021AY201021GA1011+999991031GE19MSL   +99999+99999GF101991011990999999991991MA1999990101291MD1410001+9990MW1021OD139901001999REMSYN07601007 11889 11305 11072 21119 30129 40139 54000 60001 70200 81070 333 91110=
0089010070999992014010413004+78917+011933FM-12+000899999V0201401N005019999999N999999999-00791-01261101411ADDMA1999990101311MD1410001+9990REMSYN04801007 46/// /1405 11079 21126 30131 40141 54000=
0089010070999992014010414004+78917+011933FM-12+000899999V0201001N007019999999N999999999-00511-01041101411ADDMA1999990101311MD1410001+9990REMSYN04801007 46/// /1007 11051 21104 30131 40141 54000=
0089010070999992014010415004+78917+011933FM-12+000899999V0200901N008019999999N999999999-00551-01131101421ADDMA1999990101321MD1210021+9990REMSYN04801007 46/// /0908 11055 21113 30132 40142 52002=
0089010070999992014010416004+78917+011933FM-12+000899999V0201001N008019999999N999999999-00551-01081101431ADDMA1999990101331MD1310021+9990REMSYN04801007 46/// /1008 11055 21108 30133 40143 53002=
0089010070999992014010417004+78917+011933FM-12+000899999V0201101N009019999999N999999999-00561-01091101461ADDMA1999990101361MD1210051+9990REMSYN04801007 46/// /1109 11056 21109 30136 40146 52005=
0247010070999992014010418004+78917+011933FM-12+000899999V0201001N007019999999N070001199-00611-01171101481ADDAA112000091AY131021AY201021GA1011+999991081GE19MSL   +99999+99999GF101991011990999999991991KA1120M-00491MA1999990101381MD1210071+9990MW1021OD139901201999REMSYN08201007 11789 11007 11061 21117 30138 40148 52007 60002 70230 81100 333 11049 91112=
0089010070999992014010419004+78917+011933FM-12+000899999V0201001N007019999999N999999999-00611-01141101511ADDMA1999990101411MD1210081+9990REMSYN04801007 46/// /1007 11061 21114 30141 40151 52008=
0089010070999992014010420004+78917+011933FM-12+000899999V0201001N008019999999N999999999-00641-01221101521ADDMA1999990101421MD1210061+9990REMSYN04801007 46/// /1008 11064 21122 30142 40152 52006=
0089010070999992014010421004+78917+011933FM-12+000899999V0201001N009019999999N999999999-00731-01291101551ADDMA1999990101451MD1210071+9990REMSYN04801007 46/// /1009 11073 21129 30145 40155 52007=
0089010070999992014010422004+78917+011933FM-12+000899999V0201001N009019999999N999999999-00801-01341101581ADDMA1999990101481MD1210071+9990REMSYN04801007 46/// /1009 11080 21134 30148 40158 52007=
0089010070999992014010423004+78917+011933FM-12+000899999V0201401N006019999999N999999999-01031-01461101581ADDMA1999990101481MD1210061+9990REMSYN04801007 46/// /1406 11103 21146 30148 40158 52006=
0130010070999992014010500004+78917+011933FM-12+000899999V0201501N006019999999N999999999-01051-01591101591ADDAA106000091MA1999990101491MD1210041+9990OD139901101999REMSYN06401007 16/// /1506 11105 21159 30149 40159 52004 60001 333 91111=
0089010070999992014010501004+78917+011933FM-12+000899999V0201601N005019999999N999999999-01111-01701101591ADDMA1999990101491MD1210011+9990REMSYN04801007 46/// /1605 11111 21170 30149 40159 52001=
0089010070999992014010502004+78917+011933FM-12+000899999V0201401N005019999999N999999999-01051-01761101611ADDMA1999990101501MD1210021+9990REMSYN04801007 46/// /1405 11105 21176 30150 40161 52002=
0089010070999992014010503004+78917+011933FM-12+000899999V0201401N005019999999N999999999-01121-01851101611ADDMA1999990101511MD1210021+9990REMSYN04801007 46/// /1405 11112 21185 30151 40161 52002=
0089010070999992014010504004+78917+011933FM-12+000899999V0201301N004019999999N999999999-01121-01891101611ADDMA1999990101501MD1210011+9990REMSYN04801007 46/// /1304 11112 21189 30150 40161 52001=
0089010070999992014010505004+78917+011933FM-12+000899999V0201301N004019999999N999999999-01151-01881101601ADDMA1999990101501MD1710011+9990REMSYN04801007 46/// /1304 11115 21188 30150 40160 57001=
0223010070999992014010506004+78917+011933FM-12+000899999V0201301N004019999999N070001199-01201-01951101611ADDAA112000091AA224000091AJ100313100310094AY131021AY201021IA1299KA1240N-01251MA1999990101511MD1410001+9990MW1021OD139900801999REMSYN08801007 11989 01304 11120 21195 30151 40161 54000 60002 70230 333 21125 49031 70000 91108=
0089010070999992014010507004+78917+011933FM-12+000899999V0201801N001019999999N999999999-01211-01961101651ADDMA1999990101541MD1310041+9990REMSYN04801007 46/// /1801 11121 21196 30154 40165 53004=
0089010070999992014010508004+78917+011933FM-12+000899999V0202701N002019999999N999999999-01321-02041101651ADDMA1999990101551MD1210051+9990REMSYN04801007 46/// /2702 11132 21204 30155 40165 52005=
0089010070999992014010509004+78917+011933FM-12+000899999V0202601N002019999999N999999999-01471-02161101651ADDMA1999990101551MD1900041+9990REMSYN04801007 46/// /2602 11147 21216 30155 40165 50004=
0089010070999992014010510004+78917+011933FM-12+000899999V0201801N002019999999N999999999-01271-01971101651ADDMA1999990101551MD1410001+9990REMSYN04801007 46/// /1802 11127 21197 30155 40165 54000=
0089010070999992014010511004+78917+011933FM-12+000899999V0202501N002019999999N999999999-01241-01981101651ADDMA1999990101551MD1410001+9990REMSYN04801007 46/// /2502 11124 21198 30155 40165 54000=
0247010070999992014010512004+78917+011933FM-12+000899999V0203601N001019999999N070001199-01131-01901101651ADDAA106000091AY101021AY201021GA1999+999991021GE19MSL   +99999+99999GF101991001990999999991991MA1999990101551MD1510001+9990MW1021OD139900801999REMSYN07601007 11989 13601 11113 21190 30155 40165 55000 60001 70200 80005 333 91108=EQDQ01    003SCCGA1
0089010070999992014010513004+78917+011933FM-12+000899999V0202701N003019999999N999999999-01361-02041101681ADDMA1999990101571MD1310031+9990REMSYN04801007 46/// /2703 11136 21204 30157 40168 53003=
0089010070999992014010514004+78917+011933FM-12+000899999V0202701N002019999999N999999999-01211-02071101681ADDMA1999990101581MD1310031+9990REMSYN04801007 46/// /2702 11121 21207 30158 40168 53003=
0089010070999992014010515004+78917+011933FM-12+000899999V0202301N002019999999N999999999-01161-01911101711ADDMA1999990101611MD1310061+9990REMSYN04801007 46/// /2302 11116 21191 30161 40171 53006=
0089010070999992014010516004+78917+011933FM-12+000899999V0202001N001019999999N999999999-01361-01961101731ADDMA1999990101631MD1310051+9990REMSYN04801007 46/// /2001 11136 21196 30163 40173 53005=
0089010070999992014010517004+78917+011933FM-12+000899999V0202501N002019999999N999999999-01331-01911101741ADDMA1999990101631MD1210061+9990REMSYN04801007 46/// /2502 11133 21191 30163 40174 52006=
0266010070999992014010518004+78917+011933FM-12+000899999V0202601N003019999999N070001199-01451-01981101781ADDAA112000091AY101021AY201021GA1999+999991021GE19MSL   +99999+99999GF101991001990999999991991KA1120M-01001MA1999990101671MD1310061+9990MW1021OD139900601999REMSYN08201007 11989 12603 11145 21198 30167 40178 53006 60002 70200 80005 333 11100 91106=EQDQ01    003SCCGA1
0089010070999992014010519004+78917+011933FM-12+000899999V0202201N002019999999N999999999-01711-02191101791ADDMA1999990101691MD1310061+9990REMSYN04801007 46/// /2202 11171 21219 30169 40179 53006=
0089010070999992014010520004+78917+011933FM-12+000899999V0201801N002019999999N999999999-01421-01951101801ADDMA1999990101701MD1210061+9990REMSYN04801007 46/// /1802 11142 21195 30170 40180 52006=
0089010070999992014010521004+78917+011933FM-12+000899999V0201401N006019999999N999999999-01521-02041101841ADDMA1999990101741MD1310061+9990REMSYN04801007 46/// /1406 11152 21204 30174 40184 53006=
0089010070999992014010522004+78917+011933FM-12+000899999V0201601N003019999999N999999999-01611-02151101871ADDMA1999990101761MD1310071+9990REMSYN04801007 46/// /1603 11161 21215 30176 40187 53007=
0089010070999992014010523004+78917+011933FM-12+000899999V0202901N001019999999N999999999-01571-01981101881ADDMA1999990101771MD1900081+9990REMSYN04801007 46/// /2901 11157 21198 30177 40188 50008=
0130010070999992014010600004+78917+011933FM-12+000899999V0202601N004019999999N999999999-01591-02061101861ADDAA106000091MA1999990101761MD1900021+9990OD139900901999REMSYN06401007 16/// /2604 11159 21206 30176 40186 50002 60001 333 91109=
0089010070999992014010601004+78917+011933FM-12+000899999V0201301N002019999999N999999999-01401-01951101881ADDMA1999990101781MD1210021+9990REMSYN04801007 46/// /1302 11140 21195 30178 40188 52002=
0089010070999992014010602004+78917+011933FM-12+000899999V0202701N004019999999N999999999-01611-02111101911ADDMA1999990101801MD1310031+9990REMSYN04801007 46/// /2704 11161 21211 30180 40191 53003=
0089010070999992014010603004+78917+011933FM-12+000899999V0201401N001019999999N999999999-01381-01981101931ADDMA1999990101821MD1310061+9990REMSYN04801007 46/// /1401 11138 21198 30182 40193 53006=
0089010070999992014010604004+78917+011933FM-12+000899999V0202501N003019999999N999999999-01511-02181101921ADDMA1999990101811MD1110031+9990REMSYN04801007 46/// /2503 11151 21218 30181 40192 51003=
0089010070999992014010605004+78917+011933FM-12+000899999V0201801N002019999999N999999999-01431-02031101921ADDMA1999990101811MD1210011+9990REMSYN04801007 46/// /1802 11143 21203 30181 40192 52001=
0223010070999992014010606004+78917+011933FM-12+000899999V0202801N002019999999N070001199-01801-02171101951ADDAA112000091AA224000091AJ100313100310094AY101021AY201021IA1289KA1240N-01951MA1999990101851MD1310031+9990MW1021OD139900501999REMSYN08801007 11989 02802 11180 21217 30185 40195 53003 60002 70200 333 21195 48031 70000 91105=
0089010070999992014010607004+78917+011933FM-12+000899999V0202601N001019999999N999999999-01591-02061101981ADDMA1999990101871MD1310061+9990REMSYN04801007 46/// /2601 11159 21206 30187 40198 53006=
0089010070999992014010608004+78917+011933FM-12+000899999V0202501N002019999999N999999999-01611-02101102001ADDMA1999990101891MD1210081+9990REMSYN04801007 46/// /2502 11161 21210 30189 40200 52008=
0089010070999992014010609004+78917+011933FM-12+000899999V0202201N001019999999N999999999-01451-02031102011ADDMA1999990101901MD1110051+9990REMSYN04801007 46/// /2201 11145 21203 30190 40201 51005=
0089010070999992014010610004+78917+011933FM-12+000899999V0202301N001019999999N999999999-01541-02101102031ADDMA1999990101931MD1210061+9990REMSYN04801007 46/// /2301 11154 21210 30193 40203 52006=
0089010070999992014010611004+78917+011933FM-12+000899999V0202701N002019999999N999999999-01681-02211102061ADDMA1999990101961MD1210061+9990REMSYN04801007 46/// /2702 11168 21221 30196 40206 52006=
0247010070999992014010612004+78917+011933FM-12+000899999V0202301N001019999999N070001199-01541-02121102091ADDAA106000091AY111021AY201021GA1999+999991001GE19MSL   +99999+99999GF102991001990999999991991MA1999990101991MD1210081+9990MW1021OD139900401999REMSYN07601007 11989 22301 11154 21212 30199 40209 52008 60001 70210 80001 333 91104=EQDQ01    003SCCGA1
0089010070999992014010613004+78917+011933FM-12+000899999V0202801N002019999999N999999999-01521-02061102101ADDMA1999990102001MD1210071+9990REMSYN04801007 46/// /2802 11152 21206 30200 40210 52007=
0089010070999992014010614004+78917+011933FM-12+000899999V0201301N002019999999N999999999-01511-02121102101ADDMA1999990101991MD1210041+9990REMSYN04801007 46/// /1302 11151 21212 30199 40210 52004=
0089010070999992014010615004+78917+011933FM-12+000899999V0201801N001019999999N999999999-01531-02141102081ADDMA1999990101981MD1810011+9990REMSYN04801007 46/// /1801 11153 21214 30198 40208 58001=
0089010070999992014010616004+78917+011933FM-12+000899999V0202601N001019999999N999999999-01541-02121102061ADDMA1999990101961MD1710041+9990REMSYN04801007 46/// /2601 11154 21212 30196 40206 57004=
0089010070999992014010617004+78917+011933FM-12+000899999V0202501N001019999999N999999999-01541-02121102081ADDMA1999990101971MD1610021+9990REMSYN04801007 46/// /2501 11154 21212 30197 40208 56002=
0177010070999992014010618004+78917+011933FM-12+000899999V0202301N001019999999N070001199-01501-02061102071ADDAA112000091AY101021AY201021KA1120M-01441MA1999990101961MD1710011+9990MW1021OD139900401999REMSYN07601007 11989 02301 11150 21206 30196 40207 57001 60002 70200 333 11144 91104=
0089010070999992014010619004+78917+011933FM-12+000899999V0202001N001019999999N999999999-01481-02111102071ADDMA1999990101961MD1410001+9990REMSYN04801007 46/// /2001 11148 21211 30196 40207 54000=
0089010070999992014010620004+78917+011933FM-12+000899999V0202501N003019999999N999999999-01481-02091102071ADDMA1999990101961MD1710011+9990REMSYN04801007 46/// /2503 11148 21209 30196 40207 57001=
0089010070999992014010621004+78917+011933FM-12+000899999V0201901N001019999999N999999999-01401-01981102101ADDMA1999990102001MD1310041+9990REMSYN04801007 46/// /1901 11140 21198 30200 40210 53004=
0089010070999992014010622004+78917+011933FM-12+000899999V0202501N002019999999N999999999-01421-01971102101ADDMA1999990102001MD1210041+9990REMSYN04801007 46/// /2502 11142 21197 30200 40210 52004=
0089010070999992014010623004+78917+011933FM-12+000899999V0202601N002019999999N999999999-01391-01991102111ADDMA1999990102001MD1900041+9990REMSYN04801007 46/// /2602 11139 21199 30200 40211 50004=
0130010070999992014010700004+78917+011933FM-12+000899999V0202401N002019999999N999999999-01361-02021102101ADDAA106000091MA1999990102001MD1410001+9990OD139900301999REMSYN06401007 16/// /2402 11136 21202 30200 40210 54000 60001 333 91103=
0089010070999992014010701004+78917+011933FM-12+000899999V0202401N001019999999N999999999-01301-01921102121ADDMA1999990102011MD1210011+9990REMSYN04801007 46/// /2401 11130 21192 30201 40212 52001=
0089010070999992014010702004+78917+011933FM-12+000899999V0202301N002019999999N999999999-01341-02061102131ADDMA1999990102021MD1210021+9990REMSYN04801007 46/// /2302 11134 21206 30202 40213 52002=
0089010070999992014010703004+78917+011933FM-12+000899999V0209999C999999999999N999999999-01341-02171102131ADDMA1999990102031MD1210031+9990REMSYN04801007 46/// /0000 11134 21217 30203 40213 52003=
0089010070999992014010704004+78917+011933FM-12+000899999V0201701N002019999999N999999999-01301-02201102121ADDMA1999990102021MD1210011+9990REMSYN04801007 46/// /1702 11130 21220 30202 40212 52001=
0089010070999992014010705004+78917+011933FM-12+000899999V0201501N002019999999N999999999-01201-02151102131ADDMA1999990102031MD1210011+9990REMSYN04801007 46/// /1502 11120 21215 30203 40213 52001=
0223010070999992014010706004+78917+011933FM-12+000899999V0201601N003019999999N070001199-01261-01941102141ADDAA112000091AA224000231AJ100313100310094AY101021AY201021IA1289KA1240N-01741MA1999990102041MD1210011+9990MW1021OD139900401999REMSYN08801007 11989 01603 11126 21194 30204 40214 52001 60002 70200 333 21174 48031 70002 91104=
0089010070999992014010707004+78917+011933FM-12+000899999V0202101N002019999999N999999999-01331-02031102161ADDMA1999990102061MD1210041+9990REMSYN04801007 46/// /2102 11133 21203 30206 40216 52004=
0089010070999992014010708004+78917+011933FM-12+000899999V0202001N002019999999N999999999-01281-01901102201ADDMA1999990102101MD1310071+9990REMSYN04801007 46/// /2002 11128 21190 30210 40220 53007=
0089010070999992014010709004+78917+011933FM-12+000899999V0201701N001019999999N999999999-01181-01811102251ADDMA1999990102141MD1310111+9990REMSYN04801007 46/// /1701 11118 21181 30214 40225 53011=
0089010070999992014010710004+78917+011933FM-12+000899999V0202101N001019999999N999999999-01251-01841102251ADDMA1999990102151MD1110091+9990REMSYN04801007 46/// /2101 11125 21184 30215 40225 51009=
0089010070999992014010711004+78917+011933FM-12+000899999V0201401N003019999999N999999999-01181-01721102271ADDMA1999990102171MD1110071+9990REMSYN04801007 46/// /1403 11118 21172 30217 40227 51007=
0158010070999992014010712004+78917+011933FM-12+000899999V0203201N001019999999N070001199-01231-01891102281ADDAA106000091AY101021AY201021MA1999990102171MD1210031+9990MW1021OD139900501999REMSYN07001007 11989 03201 11123 21189 30217 40228 52003 60001 70200 333 91105=
0089010070999992014010713004+78917+011933FM-12+000899999V0201301N003019999999N999999999-01201-01891102291ADDMA1999990102191MD1210041+9990REMSYN04801007 46/// /1303 11120 21189 30219 40229 52004=
0089010070999992014010714004+78917+011933FM-12+000899999V0202101N001019999999N999999999-01201-01851102311ADDMA1999990102211MD1210041+9990REMSYN04801007 46/// /2101 11120 21185 30221 40231 52004=
0089010070999992014010715004+78917+011933FM-12+000899999V0202201N001019999999N999999999-01251-01861102311ADDMA1999990102211MD1210041+9990REMSYN04801007 46/// /2201 11125 21186 30221 40231 52004=
0089010070999992014010716004+78917+011933FM-12+000899999V0201901N001019999999N999999999-01221-01901102301ADDMA1999990102201MD1900011+9990REMSYN04801007 46/// /1901 11122 21190 30220 40230 50001=
0089010070999992014010717004+78917+011933FM-12+000899999V0201401N002019999999N999999999-01211-01981102301ADDMA1999990102201MD1710011+9990REMSYN04801007 46/// /1402 11121 21198 30220 40230 57001=
0177010070999992014010718004+78917+011933FM-12+000899999V0202301N002019999999N070001199-01501-02151102341ADDAA112000091AY101021AY201021KA1120M-01121MA1999990102241MD1310031+9990MW1021OD139900601999REMSYN07601007 11989 02302 11150 21215 30224 40234 53003 60002 70200 333 11112 91106=
0089010070999992014010719004+78917+011933FM-12+000899999V0201501N002019999999N999999999-01241-02141102341ADDMA1999990102241MD1210041+9990REMSYN04801007 46/// /1502 11124 21214 30224 40234 52004=
0089010070999992014010720004+78917+011933FM-12+000899999V0202201N002019999999N999999999-01351-02131102371ADDMA1999990102271MD1210071+9990REMSYN04801007 46/// /2202 11135 21213 30227 40237 52007=
0089010070999992014010721004+78917+011933FM-12+000899999V0202701N001019999999N999999999-01411-02231102401ADDMA1999990102301MD1210061+9990REMSYN04801007 46/// /2701 11141 21223 30230 40240 52006=
0089010070999992014010722004+78917+011933FM-12+000899999V0202401N001019999999N999999999-01291-02051102421ADDMA1999990102321MD1210081+9990REMSYN04801007 46/// /2401 11129 21205 30232 40242 52008=
0089010070999992014010723004+78917+011933FM-12+000899999V0202801N002019999999N999999999-01551-02201102451ADDMA1999990102351MD1210081+9990REMSYN04801007 46/// /2802 11155 21220 30235 40245 52008=
0130010070999992014010800004+78917+011933FM-12+000899999V0209999C999999999999N999999999-01241-02031102451ADDAA106000331MA1999990102351MD1210051+9990OD139900501999REMSYN06401007 16/// /0000 11124 21203 30235 40245 52005 69931 333 91105=
0089010070999992014010801004+78917+011933FM-12+000899999V0202701N001019999999N999999999-01531-02181102471ADDMA1999990102361MD1210051+9990REMSYN04801007 46/// /2701 11153 21218 30236 40247 52005=
0089010070999992014010802004+78917+011933FM-12+000899999V0201101N001019999999N999999999-01341-02061102451ADDMA1999990102341MD1410001+9990REMSYN04801007 46/// /1101 11134 21206 30234 40245 54000=
0089010070999992014010803004+78917+011933FM-12+000899999V0202601N001019999999N999999999-01341-02041102441ADDMA1999990102331MD1710021+9990REMSYN04801007 46/// /2601 11134 21204 30233 40244 57002=
0089010070999992014010804004+78917+011933FM-12+000899999V0202401N001019999999N999999999-01351-02071102421ADDMA1999990102311MD1710051+9990REMSYN04801007 46/// /2401 11135 21207 30231 40242 57005=
0089010070999992014010805004+78917+011933FM-12+000899999V0201301N002019999999N999999999-01361-02101102411ADDMA1999990102311MD1710041+9990REMSYN04801007 46/// /1302 11136 21210 30231 40241 57004=
0223010070999992014010806004+78917+011933FM-12+000899999V0202301N001019999999N070001199-01421-02081102411ADDAA112000091AA224000091AJ100313100310094AY101021AY201021IA1289KA1240N-01561MA1999990102301MD1710031+9990MW1021OD139900301999REMSYN08801007 11989 02301 11142 21208 30230 40241 57003 60002 70200 333 21156 48031 70000 91103=
0089010070999992014010807004+78917+011933FM-12+000899999V0202501N001019999999N999999999-01501-02101102401ADDMA1999990102301MD1710011+9990REMSYN04801007 46/// /2501 11150 21210 30230 40240 57001=
0089010070999992014010808004+78917+011933FM-12+000899999V0201301N002019999999N999999999-01341-02171102401ADDMA1999990102291MD1710011+9990REMSYN04801007 46/// /1302 11134 21217 30229 40240 57001=
0089010070999992014010809004+78917+011933FM-12+000899999V0202101N001019999999N999999999-01501-02131102411ADDMA1999990102301MD1410001+9990REMSYN04801007 46/// /2101 11150 21213 30230 40241 54000=
0089010070999992014010810004+78917+011933FM-12+000899999V0201201N001019999999N999999999-01341-02001102411ADDMA1999990102311MD1410001+9990REMSYN04801007 46/// /1201 11134 21200 30231 40241 54000=
0089010070999992014010811004+78917+011933FM-12+000899999V0209999C999999999999N999999999-01401-01951102441ADDMA1999990102331MD1210041+9990REMSYN04801007 46/// /0000 11140 21195 30233 40244 52004=
0158010070999992014010812004+78917+011933FM-12+000899999V0201301N002019999999N070001199-01371-02011102441ADDAA106000091AY101021AY201021MA1999990102341MD1210041+9990MW1021OD139900401999REMSYN07001007 11989 01302 11137 21201 30234 40244 52004 60001 70200 333 91104=
0089010070999992014010813004+78917+011933FM-12+000899999V0201401N001019999999N999999999-01361-02021102411ADDMA1999990102311MD1900001+9990REMSYN04801007 46/// /1401 11136 21202 30231 40241 50000=
0089010070999992014010814004+78917+011933FM-12+000899999V0201201N001019999999N999999999-01401-02121102391ADDMA1999990102291MD1810051+9990REMSYN04801007 46/// /1201 11140 21212 30229 40239 58005=
0089010070999992014010815004+78917+011933FM-12+000899999V0201301N001019999999N999999999-01401-02041102331ADDMA1999990102231MD1810111+9990REMSYN04801007 46/// /1301 11140 21204 30223 40233 58011=
0089010070999992014010816004+78917+011933FM-12+000899999V0201301N006019999999N999999999-01431-02231102271ADDMA1999990102171MD1810141+9990REMSYN04801007 46/// /1306 11143 21223 30217 40227 58014=
0089010070999992014010817004+78917+011933FM-12+000899999V0201401N006019999999N999999999-01391-02151102281ADDMA1999990102181MD1610111+9990REMSYN04801007 46/// /1406 11139 21215 30218 40228 56011=
0177010070999992014010818004+78917+011933FM-12+000899999V0201301N003019999999N070001199-01341-02121102291ADDAA112000231AY101021AY201021KA1120M-01291MA1999990102181MD1610041+9990MW1021OD139900701999REMSYN07601007 11989 01303 11134 21212 30218 40229 56004 69922 70200 333 11129 91107=
0089010070999992014010819004+78917+011933FM-12+000899999V0201301N004019999999N999999999-01401-01951102241ADDMA1999990102141MD1810031+9990REMSYN04801007 46/// /1304 11140 21195 30214 40224 58003=
0089010070999992014010820004+78917+011933FM-12+000899999V0201301N005019999999N999999999-01401-01931102221ADDMA1999990102121MD1810061+9990REMSYN04801007 46/// /1305 11140 21193 30212 40222 58006=
0089010070999992014010821004+78917+011933FM-12+000899999V0201301N004019999999N999999999-01381-02021102111ADDMA1999990102011MD1810171+9990REMSYN04801007 46/// /1304 11138 21202 30201 40211 58017=
0089010070999992014010822004+78917+011933FM-12+000899999V0201401N004019999999N999999999-01331-01991102121ADDMA1999990102021MD1510121+9990REMSYN04801007 46/// /1404 11133 21199 30202 40212 55012=
0089010070999992014010823004+78917+011933FM-12+000899999V0201501N004019999999N999999999-01131-01741102131ADDMA1999990102031MD1610091+9990REMSYN04801007 46/// /1504 11113 21174 30203 40213 56009=
0130010070999992014010900004+78917+011933FM-12+000899999V0201201N003019999999N999999999-01141-01811102071ADDAA106000091MA1999990101971MD1810041+9990OD139900701999REMSYN06401007 16/// /1203 11114 21181 30197 40207 58004 60001 333 91107=
0089010070999992014010901004+78917+011933FM-12+000899999V0201401N002019999999N999999999-01021-01821102061ADDMA1999990101961MD1810061+9990REMSYN04801007 46/// /1402 11102 21182 30196 40206 58006=
0089010070999992014010902004+78917+011933FM-12+000899999V0201401N003019999999N999999999-00901-01601102001ADDMA1999990101901MD1710131+9990REMSYN04801007 46/// /1403 11090 21160 30190 40200 57013=
0089010070999992014010903004+78917+011933FM-12+000899999V0201501N003019999999N999999999-00831-01261101921ADDMA1999990101821MD1810151+9990REMSYN04801007 46/// /1503 11083 21126 30182 40192 58015=
0089010070999992014010904004+78917+011933FM-12+000899999V0200901N002019999999N999999999-00681-01041101871ADDMA1999990101771MD1610181+9990REMSYN04801007 46/// /0902 11068 21104 30177 40187 56018=
0089010070999992014010905004+78917+011933FM-12+000899999V0201101N002019999999N999999999-00601-00951101891ADDMA1999990101791MD1610111+9990REMSYN04801007 46/// /1102 11060 21095 30179 40189 56011=
0293010070999992014010906004+78917+011933FM-12+000899999V0201601N003019999999N001100199-00661-00831101861ADDAA112000431AA224000631AJ100333100330094AY171021AY231021GA1081+999991071GE19MSL   +99999+99999GF108991081990999999991991IA1239KA1240N-01471MA1999990101751MD1610071+9990MW1731OD139900601999REMSYN09401007 11311 81603 11066 21083 30175 40186 56007 69942 77373 887// 333 21147 47033 70006 91106=
0089010070999992014010907004+78917+011933FM-12+000899999V0201301N003019999999N999999999-00561-00761101831ADDMA1999990101731MD1810041+9990REMSYN04801007 46/// /1303 11056 21076 30173 40183 58004=
0089010070999992014010908004+78917+011933FM-12+000899999V0201201N006019999999N999999999-00521-00811101761ADDMA1999990101661MD1810121+9990REMSYN04801007 46/// /1206 11052 21081 30166 40176 58012=
0089010070999992014010909004+78917+011933FM-12+000899999V0201201N003019999999N999999999-00421-00791101691ADDMA1999990101591MD1810171+9990REMSYN04801007 46/// /1203 11042 21079 30159 40169 58017=
0089010070999992014010910004+78917+011933FM-12+000899999V0201201N002019999999N999999999-00451-00811101661ADDMA1999990101561MD1610171+9990REMSYN04801007 46/// /1202 11045 21081 30156 40166 56017=
0089010070999992014010911004+78917+011933FM-12+000899999V0201401N002019999999N999999999-00351-00731101621ADDMA1999990101521MD1610141+9990REMSYN04801007 46/// /1402 11035 21073 30152 40162 56014=
0228010070999992014010912004+78917+011933FM-12+000899999V0201401N003019999999N000500199-00291-00711101541ADDAA106002031AY171021AY221021GA1081+999991051GE19MSL   +99999+99999GF108991081990999999991991MA1999990101441MD1810141+9990MW1731OD139900901999REMSYN07601007 11/05 81403 11029 21071 30144 40154 58014 60021 77372 8802/ 333 91109=
0089010070999992014010913004+78917+011933FM-12+000899999V0201601N002019999999N999999999-00221-00781101491ADDMA1999990101391MD1610171+9990REMSYN04801007 46/// /1602 11022 21078 30139 40149 56017=
0089010070999992014010914004+78917+011933FM-12+000899999V0201001N002019999999N999999999-00241-00681101421ADDMA1999990101331MD1810191+9990REMSYN04801007 46/// /1002 11024 21068 30133 40142 58019=
0089010070999992014010915004+78917+011933FM-12+000899999V0202201N004019999999N999999999-00251-00641101381ADDMA1999990101281MD1810161+9990REMSYN04801007 46/// /2204 11025 21064 30128 40138 58016=
0089010070999992014010916004+78917+011933FM-12+000899999V0202801N002019999999N999999999-00231-00631101291ADDMA1999990101201MD1810201+9990REMSYN04801007 46/// /2802 11023 21063 30120 40129 58020=
0089010070999992014010917004+78917+011933FM-12+000899999V0203501N002019999999N999999999-00281-00561101261ADDMA1999990101171MD1810161+9990REMSYN04801007 46/// /3502 11028 21056 30117 40126 58016=
0228010070999992014010918004+78917+011933FM-12+000899999V0201301N002019999999N008000199-00191-00731101201ADDAA112004031AY171021AY221021GA1081+999991051GE19MSL   +99999+99999GF108991081990999999991991MA1999990101101MD1810191+9990MW1701OD139901301999REMSYN07601007 11658 81302 11019 21073 30110 40120 58019 60042 77072 8802/ 333 91113=
0089010070999992014010919004+78917+011933FM-12+000899999V0201501N005019999999N999999999-00151-00681101071ADDMA1999990100971MD1810221+9990REMSYN04801007 46/// /1505 11015 21068 30097 40107 58022=
0089010070999992014010920004+78917+011933FM-12+000899999V0202001N003019999999N999999999-00131-00641100971ADDMA1999990100881MD1810291+9990REMSYN04801007 46/// /2003 11013 21064 30088 40097 58029=
0089010070999992014010921004+78917+011933FM-12+000899999V0200901N001019999999N999999999-00161-00531100971ADDMA1999990100871MD1610221+9990REMSYN04801007 46/// /0901 11016 21053 30087 40097 56022=
0089010070999992014010922004+78917+011933FM-12+000899999V0202001N003019999999N999999999-00121-00511100931ADDMA1999990100831MD1610141+9990REMSYN04801007 46/// /2003 11012 21051 30083 40093 56014=
0089010070999992014010923004+78917+011933FM-12+000899999V0201201N002019999999N999999999-00201-00451100881ADDMA1999990100791MD1810091+9990REMSYN04801007 46/// /1202 11020 21045 30079 40088 58009=
0130010070999992014011000004+78917+011933FM-12+000899999V0200801N005019999999N999999999-00181-00431100801ADDAA106001031MA1999990100701MD1810171+9990OD139901601999REMSYN06401007 16/// /0805 11018 21043 30070 40080 58017 60011 333 91116=
0089010070999992014011001004+78917+011933FM-12+000899999V0201001N003019999999N999999999-00171-00391100701ADDMA1999990100601MD1810231+9990REMSYN04801007 46/// /1003 11017 21039 30060 40070 58023=
0089010070999992014011002004+78917+011933FM-12+000899999V0202601N001019999999N999999999-00071-00481100661ADDMA1999990100571MD1610221+9990REMSYN04801007 46/// /2601 11007 21048 30057 40066 56022=
0089010070999992014011003004+78917+011933FM-12+000899999V0200601N002019999999N999999999-00031-00521100631ADDMA1999990100531MD1610171+9990REMSYN04801007 46/// /0602 11003 21052 30053 40063 56017=
0089010070999992014011004004+78917+011933FM-12+000899999V0201001N003019999999N999999999-00101-00491100561ADDMA1999990100471MD1810141+9990REMSYN04801007 46/// /1003 11010 21049 30047 40056 58014=
0089010070999992014011005004+78917+011933FM-12+000899999V0203201N001019999999N999999999-00071-00491100541ADDMA1999990100441MD1610121+9990REMSYN04801007 46/// /3201 11007 21049 30044 40054 56012=
0293010070999992014011006004+78917+011933FM-12+000899999V0203301N001019999999N006000199-00051-00471100551ADDAA112002031AA224005731AJ100433100430094AY171021AY211021GA1081+999991051GE19MSL   +99999+99999GF108991081990999999991991IA1239KA1240N-00231MA1999990100461MD1610081+9990MW1711OD139900601999REMSYN09401007 11556 83301 11005 21047 30046 40055 56008 60022 77171 8802/ 333 21023 47043 70057 91106=
0089010070999992014011007004+78917+011933FM-12+000899999V0201101N001019999999N999999999-00141-00451100521ADDMA1999990100421MD1510051+9990REMSYN04801007 46/// /1101 11014 21045 30042 40052 55005=
0089010070999992014011008004+78917+011933FM-12+000899999V0201301N002019999999N999999999-00161-00451100551ADDMA1999990100451MD1310011+9990REMSYN04801007 46/// /1302 11016 21045 30045 40055 53001=
0089010070999992014011009004+78917+011933FM-12+000899999V0201901N001019999999N999999999-00111-00601100551ADDMA1999990100451MD1610011+9990REMSYN04801007 46/// /1901 11011 21060 30045 40055 56001=
0089010070999992014011010004+78917+011933FM-12+000899999V0202301N001019999999N999999999-00081-00631100561ADDMA1999990100461MD1110041+9990REMSYN04801007 46/// /2301 11008 21063 30046 40056 51004=
0089010070999992014011011004+78917+011933FM-12+000899999V0202601N003019999999N999999999-00111-00581100581ADDMA1999990100481MD1310031+9990REMSYN04801007 46/// /2603 11011 21058 30048 40058 53003=
0247010070999992014011012004+78917+011933FM-12+000899999V0202001N001019999999N030000199-00101-00651100601ADDAA106999999AY111021AY201021GA1081+999991061GE19MSL   +99999+99999GF108991081990999999991991MA1999990100511MD1310061+9990MW1701OD139900601999REMSYN07601007 11580 82001 11010 21065 30051 40060 53006 60001 77010 885// 333 91106=EQDQ01  00002PRCP06
0089010070999992014011013004+78917+011933FM-12+000899999V0202101N001019999999N999999999-00121-00661100601ADDMA1999990100501MD1210041+9990REMSYN04801007 46/// /2101 11012 21066 30050 40060 52004=
0089010070999992014011014004+78917+011933FM-12+000899999V0202001N002019999999N999999999-00121-00631100611ADDMA1999990100521MD1310031+9990REMSYN04801007 46/// /2002 11012 21063 30052 40061 53003=
0089010070999992014011015004+78917+011933FM-12+000899999V0201901N001019999999N999999999-00161-00691100621ADDMA1999990100521MD1310021+9990REMSYN04801007 46/// /1901 11016 21069 30052 40062 53002=
0089010070999992014011016004+78917+011933FM-12+000899999V0201901N001019999999N999999999-00181-00721100641ADDMA1999990100541MD1310041+9990REMSYN04801007 46/// /1901 11018 21072 30054 40064 53004=
0089010070999992014011017004+78917+011933FM-12+000899999V0209999C999999999999N999999999-00231-00751100641ADDMA1999990100541MD1210031+9990REMSYN04801007 46/// /0000 11023 21075 30054 40064 52003=
0247010070999992014011018004+78917+011933FM-12+000899999V0202301N001019999999N070001199-00191-00681100651ADDAA112000091AY121021AY221021GA1071+999991061GE19MSL   +99999+99999GF107991071990999999991991KA1120M-00041MA1999990100551MD1210031+9990MW1021OD139900401999REMSYN08201007 11589 72301 11019 21068 30055 40065 52003 60002 70222 875// 333 11004 91104=
0089010070999992014011019004+78917+011933FM-12+000899999V0209999C999999999999N999999999-00211-00701100681ADDMA1999990100581MD1210041+9990REMSYN04801007 46/// /0000 11021 21070 30058 40068 52004=
0089010070999992014011020004+78917+011933FM-12+000899999V0201701N002019999999N999999999-00201-00711100701ADDMA1999990100601MD1210061+9990REMSYN04801007 46/// /1702 11020 21071 30060 40070 52006=
0089010070999992014011021004+78917+011933FM-12+000899999V0201501N003019999999N999999999-00201-00671100701ADDMA1999990100611MD1210051+9990REMSYN04801007 46/// /1503 11020 21067 30061 40070 52005=
0089010070999992014011022004+78917+011933FM-12+000899999V0201501N002019999999N999999999-00171-00621100731ADDMA1999990100641MD1210061+9990REMSYN04801007 46/// /1502 11017 21062 30064 40073 52006=
0089010070999992014011023004+78917+011933FM-12+000899999V0201201N002019999999N999999999-00241-00611100761ADDMA1999990100661MD1210061+9990REMSYN04801007 46/// /1202 11024 21061 30066 40076 52006=
0130010070999992014011100004+78917+011933FM-12+000899999V0201401N003019999999N999999999-00281-00621100771ADDAA106000431MA1999990100671MD1110061+9990OD139900601999REMSYN06401007 16/// /1403 11028 21062 30067 40077 51006 69941 333 91106=
0089010070999992014011101004+78917+011933FM-12+000899999V0201301N003019999999N999999999-00221-00561100781ADDMA1999990100681MD1900051+9990REMSYN04801007 46/// /1303 11022 21056 30068 40078 50005=
0089010070999992014011102004+78917+011933FM-12+000899999V0201201N002019999999N999999999-00251-00621100771ADDMA1999990100681MD1900021+9990REMSYN04801007 46/// /1202 11025 21062 30068 40077 50002=
0089010070999992014011103004+78917+011933FM-12+000899999V0201401N003019999999N999999999-00251-00601100781ADDMA1999990100691MD1210021+9990REMSYN04801007 46/// /1403 11025 21060 30069 40078 52002=
0089010070999992014011104004+78917+011933FM-12+000899999V0201301N003019999999N999999999-00221-00621100781ADDMA1999990100681MD1410001+9990REMSYN04801007 46/// /1303 11022 21062 30068 40078 54000=
0089010070999992014011105004+78917+011933FM-12+000899999V0201401N002019999999N999999999-00221-00621100761ADDMA1999990100671MD1710011+9990REMSYN04801007 46/// /1402 11022 21062 30067 40076 57001=
0293010070999992014011106004+78917+011933FM-12+000899999V0202501N002019999999N070001199-00151-00571100771ADDAA112000091AA224000091AJ100423100420094AY121021AY221021GA1081+999991061GE19MSL   +99999+99999GF108991081990999999991991IA1239KA1240N-00331MA1999990100681MD1710011+9990MW1021OD139900601999REMSYN09401007 11589 82502 11015 21057 30068 40077 57001 60002 70222 885// 333 21033 47042 70000 91106=
0089010070999992014011107004+78917+011933FM-12+000899999V0202001N001019999999N999999999-00141-00601100811ADDMA1999990100711MD1310031+9990REMSYN04801007 46/// /2001 11014 21060 30071 40081 53003=
0089010070999992014011108004+78917+011933FM-12+000899999V0202401N002019999999N999999999-00081-00591100831ADDMA1999990100741MD1210071+9990REMSYN04801007 46/// /2402 11008 21059 30074 40083 52007=
0089010070999992014011109004+78917+011933FM-12+000899999V0202101N001019999999N999999999-00081-00591100881ADDMA1999990100781MD1210101+9990REMSYN04801007 46/// /2101 11008 21059 30078 40088 52010=
0089010070999992014011110004+78917+011933FM-12+000899999V0202001N001019999999N999999999-00091-00641100901ADDMA1999990100801MD1210091+9990REMSYN04801007 46/// /2001 11009 21064 30080 40090 52009=
0089010070999992014011111004+78917+011933FM-12+000899999V0201001N002019999999N999999999-00151-00591100891ADDMA1999990100791MD1900051+9990REMSYN04801007 46/// /1002 11015 21059 30079 40089 50005=
0228010070999992014011112004+78917+011933FM-12+000899999V0202501N002019999999N070001199-00071-00551100911ADDAA106000091AY121021AY221021GA1081+999991061GE19MSL   +99999+99999GF108991081990999999991991MA1999990100811MD1210031+9990MW1021OD139900601999REMSYN07601007 11589 82502 11007 21055 30081 40091 52003 60001 70222 885// 333 91106=
0089010070999992014011113004+78917+011933FM-12+000899999V0201701N002019999999N999999999-00041-00551100911ADDMA1999990100811MD1210011+9990REMSYN04801007 46/// /1702 11004 21055 30081 40091 52001=
0089010070999992014011114004+78917+011933FM-12+000899999V0201601N001019999999N999999999-00071-00561100931ADDMA1999990100831MD1210041+9990REMSYN04801007 46/// /1601 11007 21056 30083 40093 52004=
0089010070999992014011115004+78917+011933FM-12+000899999V0202201N003019999999N999999999-00131-00591100951ADDMA1999990100851MD1210041+9990REMSYN04801007 46/// /2203 11013 21059 30085 40095 52004=
0089010070999992014011116004+78917+011933FM-12+000899999V0202501N004019999999N999999999-00151-00641100991ADDMA1999990100891MD1210081+9990REMSYN04801007 46/// /2504 11015 21064 30089 40099 52008=
0089010070999992014011117004+78917+011933FM-12+000899999V0202401N004019999999N999999999-00151-00661101011ADDMA1999990100911MD1210081+9990REMSYN04801007 46/// /2404 11015 21066 30091 40101 52008=
0247010070999992014011118004+78917+011933FM-12+000899999V0202301N003019999999N070001199-00081-00611101021ADDAA112000091AY121021AY221021GA1071+999991061GE19MSL   +99999+99999GF107991071990999999991991KA1120M-00031MA1999990100931MD1210071+9990MW1021OD139900701999REMSYN08201007 11589 72303 11008 21061 30093 40102 52007 60002 70222 875// 333 11003 91107=
0089010070999992014011119004+78917+011933FM-12+000899999V0202201N003019999999N999999999-00081-00611101081ADDMA1999990100981MD1310091+9990REMSYN04801007 46/// /2203 11008 21061 30098 40108 53009=
0089010070999992014011120004+78917+011933FM-12+000899999V0202401N004019999999N999999999-00061-00631101131ADDMA1999990101041MD1310121+9990REMSYN04801007 46/// /2404 11006 21063 30104 40113 53012=
0089010070999992014011121004+78917+011933FM-12+000899999V0202301N004019999999N999999999-00041-00611101171ADDMA1999990101071MD1210151+9990REMSYN04801007 46/// /2304 11004 21061 30107 40117 52015=
0089010070999992014011122004+78917+011933FM-12+000899999V0202301N006019999999N999999999-00051-00541101201ADDMA1999990101101MD1210121+9990REMSYN04801007 46/// /2306 11005 21054 30110 40120 52012=
0089010070999992014011123004+78917+011933FM-12+000899999V0202401N005019999999N999999999-00031+99999101221ADDMA1999990101121MD1210091+9990REMSYN04801007 46/// /2405 11003 2//// 30112 40122 52009=
0130010070999992014011200004+78917+011933FM-12+000899999V0202401N005019999999N999999999-00071-00601101261ADDAA106000091MA1999990101171MD1210091+9990OD139900901999REMSYN06401007 16/// /2405 11007 21060 30117 40126 52009 60001 333 91109=
0089010070999992014011201004+78917+011933FM-12+000899999V0202501N006019999999N999999999-00051-00621101321ADDMA1999990101221MD1310121+9990REMSYN04801007 46/// /2506 11005 21062 30122 40132 53012=
0089010070999992014011202004+78917+011933FM-12+000899999V0202501N006019999999N999999999-00051-00651101331ADDMA1999990101231MD1900111+9990REMSYN04801007 46/// /2506 11005 21065 30123 40133 50011=
0089010070999992014011203004+78917+011933FM-12+000899999V0202501N006019999999N999999999-00041-00641101371ADDMA1999990101271MD1210111+9990REMSYN04801007 46/// /2506 11004 21064 30127 40137 52011=
0089010070999992014011204004+78917+011933FM-12+000899999V0202401N005019999999N999999999+00011-00651101391ADDMA1999990101291MD1210071+9990REMSYN04801007 46/// /2405 10001 21065 30129 40139 52007=
0089010070999992014011205004+78917+011933FM-12+000899999V0202501N006019999999N999999999-00031-00671101401ADDMA1999990101301MD1110071+9990REMSYN04801007 46/// /2506 11003 21067 30130 40140 51007=
0293010070999992014011206004+78917+011933FM-12+000899999V0202401N007019999999N070001199-00021-00611101421ADDAA112000091AA224000091AJ100413100410094AY121021AY221021GA1081+999991061GE19MSL   +99999+99999GF108991081990999999991991IA1289KA1240N-00121MA1999990101321MD1210051+9990MW1021OD139901001999REMSYN09401007 11689 82407 11002 21061 30132 40142 52005 60002 70222 885// 333 21012 48041 70000 91110=
0089010070999992014011207004+78917+011933FM-12+000899999V0202501N006019999999N999999999-00041-00661101451ADDMA1999990101351MD1310061+9990REMSYN04801007 46/// /2506 11004 21066 30135 40145 53006=
0089010070999992014011208004+78917+011933FM-12+000899999V0202401N005019999999N999999999-00021-00611101501ADDMA1999990101401MD1310101+9990REMSYN04801007 46/// /2405 11002 21061 30140 40150 53010=
0089010070999992014011209004+78917+011933FM-12+000899999V0202601N005019999999N999999999-00011-00521101541ADDMA1999990101441MD1210121+9990REMSYN04801007 46/// /2605 11001 21052 30144 40154 52012=
0089010070999992014011210004+78917+011933FM-12+000899999V0202601N005019999999N999999999-00011-00601101591ADDMA1999990101501MD1210151+9990REMSYN04801007 46/// /2605 11001 21060 30150 40159 52015=
0089010070999992014011211004+78917+011933FM-12+000899999V0202801N003019999999N999999999-00061-00611101631ADDMA1999990101541MD1210131+9990REMSYN04801007 46/// /2803 11006 21061 30154 40163 52013=
0228010070999992014011212004+78917+011933FM-12+000899999V0202601N004019999999N070001199-00021-00591101661ADDAA106000091AY121021AY221021GA1071+999991061GE19MSL   +99999+99999GF107991071990999999991991MA1999990101561MD1210121+9990MW1021OD139901301999REMSYN07601007 11589 72604 11002 21059 30156 40166 52012 60001 70222 875// 333 91113=
0089010070999992014011213004+78917+011933FM-12+000899999V0202701N004019999999N999999999+00011-00651101681ADDMA1999990101591MD1210091+9990REMSYN04801007 46/// /2704 10001 21065 30159 40168 52009=
0089010070999992014011214004+78917+011933FM-12+000899999V0202601N005019999999N999999999-00061-00631101711ADDMA1999990101611MD1210081+9990REMSYN04801007 46/// /2605 11006 21063 30161 40171 52008=
0089010070999992014011215004+78917+011933FM-12+000899999V0202601N003019999999N999999999-00081-00611101751ADDMA1999990101651MD1210091+9990REMSYN04801007 46/// /2603 11008 21061 30165 40175 52009=
0089010070999992014011216004+78917+011933FM-12+000899999V0202501N004019999999N999999999-00121-00701101771ADDMA1999990101671MD1210091+9990REMSYN04801007 46/// /2504 11012 21070 30167 40177 52009=
0089010070999992014011217004+78917+011933FM-12+000899999V0202501N004019999999N999999999-00061-00661101801ADDMA1999990101701MD1210091+9990REMSYN04801007 46/// /2504 11006 21066 30170 40180 52009=
0247010070999992014011218004+78917+011933FM-12+000899999V0202601N004019999999N070001199-00161-00701101841ADDAA112000091AY121021AY201021GA1031+999991061GE19MSL   +99999+99999GF103991031990999999991991KA1120M+00071MA1999990101741MD1210091+9990MW1011OD139900801999REMSYN08201007 11689 32604 11016 21070 30174 40184 52009 60002 70120 83500 333 10007 91108=
0089010070999992014011219004+78917+011933FM-12+000899999V0202601N004019999999N999999999-00201-00741101881ADDMA1999990101781MD1210101+9990REMSYN04801007 46/// /2604 11020 21074 30178 40188 52010=
0089010070999992014011220004+78917+011933FM-12+000899999V0202601N004019999999N999999999-00091-00691101911ADDMA1999990101811MD1210111+9990REMSYN04801007 46/// /2604 11009 21069 30181 40191 52011=
0089010070999992014011221004+78917+011933FM-12+000899999V0202701N006019999999N999999999+00011-00651101941ADDMA1999990101841MD1210101+9990REMSYN04801007 46/// /2706 10001 21065 30184 40194 52010=
0089010070999992014011222004+78917+011933FM-12+000899999V0202701N006019999999N999999999+00011-00811101971ADDMA1999990101871MD1210091+9990REMSYN04801007 46/// /2706 10001 21081 30187 40197 52009=
0089010070999992014011223004+78917+011933FM-12+000899999V0202701N004019999999N999999999+00011-00761101961ADDMA1999990101861MD1900051+9990REMSYN04801007 46/// /2704 10001 21076 30186 40196 50005=
0130010070999992014011300004+78917+011933FM-12+000899999V0202601N004019999999N999999999-00041-00791101971ADDAA106000091MA1999990101881MD1210031+9990OD139901001999REMSYN06401007 16/// /2604 11004 21079 30188 40197 52003 60001 333 91110=
0089010070999992014011301004+78917+011933FM-12+000899999V0202601N003019999999N999999999-00021-00731101971ADDMA1999990101871MD1410001+9990REMSYN04801007 46/// /2603 11002 21073 30187 40197 54000=
0089010070999992014011303004+78917+011933FM-12+000899999V0202501N003019999999N999999999+00031-00891102001ADDMA1999990101901MD1210021+9990REMSYN04801007 46/// /2503 10003 21089 30190 40200 52002=
0089010070999992014011304004+78917+011933FM-12+000899999V0202601N004019999999N999999999+00001-00861101981ADDMA1999990101881MD1210011+9990REMSYN04801007 46/// /2604 10000 21086 30188 40198 52001=
0089010070999992014011305004+78917+011933FM-12+000899999V0202301N004019999999N999999999+00021-00771101971ADDMA1999990101881MD1900001+9990REMSYN04801007 46/// /2304 10002 21077 30188 40197 50000=
0293010070999992014011306004+78917+011933FM-12+000899999V0202401N004019999999N070001199-00041-00721101961ADDAA112000091AA224000091AJ100403100400094AY121021AY211021GA1081+999991061GE19MSL   +99999+99999GF108991081990999999991991IA1239KA1240N-00251MA1999990101871MD1710031+9990MW1021OD139900801999REMSYN09401007 11789 82404 11004 21072 30187 40196 57003 60002 70221 885// 333 21025 47040 70000 91108=
0089010070999992014011307004+78917+011933FM-12+000899999V0202401N005019999999N999999999-00021-00751101951ADDMA1999990101851MD1710041+9990REMSYN04801007 46/// /2405 11002 21075 30185 40195 57004=
0089010070999992014011308004+78917+011933FM-12+000899999V0202401N007019999999N999999999+00011-00931101961ADDMA1999990101861MD1710021+9990REMSYN04801007 46/// /2407 10001 21093 30186 40196 57002=
0089010070999992014011309004+78917+011933FM-12+000899999V0202401N007019999999N999999999+00021-00871101971ADDMA1999990101871MD1410001+9990REMSYN04801007 46/// /2407 10002 21087 30187 40197 54000=
0089010070999992014011310004+78917+011933FM-12+000899999V0202401N006019999999N999999999-00041-00721101971ADDMA1999990101871MD1210021+9990REMSYN04801007 46/// /2406 11004 21072 30187 40197 52002=
0089010070999992014011311004+78917+011933FM-12+000899999V0202401N007019999999N999999999-00011-00761101951ADDMA1999990101851MD1410001+9990REMSYN04801007 46/// /2407 11001 21076 30185 40195 54000=
0257010070999992014011312004+78917+011933FM-12+000899999V0202401N007019999999N070001199-00011-00681101941ADDAA106000091AJ199991999999999AY121021AY221021GA1081+999991061GE19MSL   +99999+99999GF108991081990999999991991IA1249MA1999990101841MD1710031+9990MW1021OD139901201999REMSYN08201007 11689 82407 11001 21068 30184 40194 57003 60001 70222 885// 333 44/// 91112=
0089010070999992014011313004+78917+011933FM-12+000899999V0202301N006019999999N999999999-00021-00661101921ADDMA1999990101821MD1710051+9990REMSYN04801007 46/// /2306 11002 21066 30182 40192 57005=
0089010070999992014011314004+78917+011933FM-12+000899999V0202601N007019999999N999999999-00071-00651101931ADDMA1999990101831MD1710021+9990REMSYN04801007 46/// /2607 11007 21065 30183 40193 57002=
0089010070999992014011315004+78917+011933FM-12+000899999V0202601N005019999999N999999999-00121-00701102021ADDMA1999990101921MD1310081+9990REMSYN04801007 46/// /2605 11012 21070 30192 40202 53008=
0089010070999992014011316004+78917+011933FM-12+000899999V0202501N005019999999N999999999-00211-00811102041ADDMA1999990101951MD1310121+9990REMSYN04801007 46/// /2505 11021 21081 30195 40204 53012=
0089010070999992014011317004+78917+011933FM-12+000899999V0203101N008019999999N999999999-00351-00641102091ADDMA1999990101991MD1110151+9990REMSYN04801007 46/// /3108 11035 21064 30199 40209 51015=
0292010070999992014011318004+78917+011933FM-12+000899999V0203001N007019999999N070001199-00631-01101102181ADDAA112000091AJ199991999999999AY121021AY201021GA1991+999991021GA2031+999991061GE19MSL   +99999+99999GF105991990990999999991991IA1249KA1120M+00051MA1999990102081MD1310151+9990MW1011OD139901101999REMSYN08801007 11689 53007 11063 21110 30208 40218 53015 60002 70120 83505 333 10005 44/// 91111=
0089010070999992014011319004+78917+011933FM-12+000899999V0202901N005019999999N999999999-00561-00941102231ADDMA1999990102131MD1110181+9990REMSYN04801007 46/// /2905 11056 21094 30213 40223 51018=
0089010070999992014011320004+78917+011933FM-12+000899999V0202901N005019999999N999999999-00711-01041102271ADDMA1999990102171MD1110181+9990REMSYN04801007 46/// /2905 11071 21104 30217 40227 51018=
0089010070999992014011321004+78917+011933FM-12+000899999V0203501N002019999999N999999999-00811-01151102321ADDMA1999990102211MD1110141+9990REMSYN04801007 46/// /3502 11081 21115 30221 40232 51014=
0089010070999992014011322004+78917+011933FM-12+000899999V0202401N002019999999N999999999-00861-01201102381ADDMA1999990102281MD1310151+9990REMSYN04801007 46/// /2402 11086 21120 30228 40238 53015=
0089010070999992014011323004+78917+011933FM-12+000899999V0202401N002019999999N999999999-00751-01121102431ADDMA1999990102331MD1210161+9990REMSYN04801007 46/// /2402 11075 21112 30233 40243 52016=
0130010070999992014011400004+78917+011933FM-12+000899999V0201801N002019999999N999999999-00711-01071102481ADDAA106000431MA1999990102381MD1210161+9990OD139900701999REMSYN06401007 16/// /1802 11071 21107 30238 40248 52016 69941 333 91107=
0089010070999992014011401004+78917+011933FM-12+000899999V0201601N002019999999N999999999-00741-01081102491ADDMA1999990102391MD1900111+9990REMSYN04801007 46/// /1602 11074 21108 30239 40249 50011=
0089010070999992014011402004+78917+011933FM-12+000899999V0201101N002019999999N999999999-00791-01071102521ADDMA1999990102421MD1110091+9990REMSYN04801007 46/// /1102 11079 21107 30242 40252 51009=
0089010070999992014011403004+78917+011933FM-12+000899999V0201501N002019999999N999999999-00851-01171102521ADDMA1999990102421MD1900041+9990REMSYN04801007 46/// /1502 11085 21117 30242 40252 50004=
0089010070999992014011404004+78917+011933FM-12+000899999V0201301N002019999999N999999999-01071-01321102471ADDMA1999990102371MD1810031+9990REMSYN04801007 46/// /1302 11107 21132 30237 40247 58003=
0089010070999992014011405004+78917+011933FM-12+000899999V0201101N001019999999N999999999-01011-01301102451ADDMA1999990102351MD1810071+9990REMSYN04801007 46/// /1101 11101 21130 30235 40245 58007=
0312010070999992014011406004+78917+011933FM-12+000899999V0201301N001019999999N070001199-01031-01261102461ADDAA112000091AA224000091AJ100413100410094AY111021AY211021GA1999+999991001GE19MSL   +99999+99999GF103991001990999999991991IA1249KA1240N-01151MA1999990102361MD1610061+9990MW1021OD139900601999REMSYN09401007 11989 31301 11103 21126 30236 40246 56006 60002 70211 80001 333 21115 44041 70000 91106=EQDQ01    003SCCGA1
0089010070999992014011407004+78917+011933FM-12+000899999V0201501N002019999999N999999999-01041-01421102471ADDMA1999990102371MD1510001+9990REMSYN04801007 46/// /1502 11104 21142 30237 40247 55000=
0089010070999992014011408004+78917+011933FM-12+000899999V0202201N001019999999N999999999-01031-01561102471ADDMA1999990102371MD1900021+9990REMSYN04801007 46/// /2201 11103 21156 30237 40247 50002=
0089010070999992014011409004+78917+011933FM-12+000899999V0202001N001019999999N999999999-00961-01761102471ADDMA1999990102371MD1210011+9990REMSYN04801007 46/// /2001 11096 21176 30237 40247 52001=
0089010070999992014011410004+78917+011933FM-12+000899999V0202101N002019999999N999999999-01071-01891102491ADDMA1999990102391MD1210021+9990REMSYN04801007 46/// /2102 11107 21189 30239 40249 52002=
0089010070999992014011411004+78917+011933FM-12+000899999V0201401N004019999999N999999999-00991-02151102481ADDMA1999990102381MD1210011+9990REMSYN04801007 46/// /1404 11099 21215 30238 40248 52001=
0276010070999992014011412004+78917+011933FM-12+000899999V0201301N002019999999N070001199-00991-02041102431ADDAA106000531AJ199991999999999AY101021AY201021GA1999+999991021GE19MSL   +99999+99999GF101991001990999999991991IA1249MA1999990102321MD1810051+9990MW1021OD139900601999REMSYN08201007 11989 11302 11099 21204 30232 40243 58005 69951 70200 80005 333 44/// 91106=EQDQ01    003SCCGA1
0089010070999992014011413004+78917+011933FM-12+000899999V0201101N002019999999N999999999-00911-01941102401ADDMA1999990102291MD1810091+9990REMSYN04801007 46/// /1102 11091 21194 30229 40240 58009=
0089010070999992014011414004+78917+011933FM-12+000899999V0201301N002019999999N999999999-00901-02201102381ADDMA1999990102281MD1610101+9990REMSYN04801007 46/// /1302 11090 21220 30228 40238 56010=
0089010070999992014011415004+78917+011933FM-12+000899999V0201501N004019999999N999999999-00741-01631102411ADDMA1999990102311MD1610011+9990REMSYN04801007 46/// /1504 11074 21163 30231 40241 56001=
0089010070999992014011416004+78917+011933FM-12+000899999V0201501N004019999999N999999999-00641-01531102381ADDMA1999990102271MD1810021+9990REMSYN04801007 46/// /1504 11064 21153 30227 40238 58002=
0276010070999992014011418004+78917+011933FM-12+000899999V0201501N002019999999N070001199-00551-00961102301ADDAA112000731AJ199991999999999AY121021AY201021GA1081+999991061GE19MSL   +99999+99999GF108991081990999999991991IA1249KA1120M-00531MA1999990102201MD1810111+9990MW1031OD139900701999REMSYN08801007 11589 81502 11055 21096 30220 40230 58011 69972 70320 885// 333 11053 44/// 91107=
0089010070999992014011419004+78917+011933FM-12+000899999V0201501N003019999999N999999999-00411-00791102251ADDMA1999990102151MD1810121+9990REMSYN04801007 46/// /1503 11041 21079 30215 40225 58012=
0089010070999992014011420004+78917+011933FM-12+000899999V0201301N007019999999N999999999-00301-00641102181ADDMA1999990102081MD1710181+9990REMSYN04801007 46/// /1307 11030 21064 30208 40218 57018=
0089010070999992014011421004+78917+011933FM-12+000899999V0201301N007019999999N999999999-00291-00581102171ADDMA1999990102071MD1610131+9990REMSYN04801007 46/// /1307 11029 21058 30207 40217 56013=
0089010070999992014011422004+78917+011933FM-12+000899999V0201301N006019999999N999999999-00271-00581102151ADDMA1999990102051MD1610111+9990REMSYN04801007 46/// /1306 11027 21058 30205 40215 56011=
0089010070999992014011423004+78917+011933FM-12+000899999V0201201N004019999999N999999999-00281-00601102131ADDMA1999990102031MD1710041+9990REMSYN04801007 46/// /1204 11028 21060 30203 40213 57004=
0130010070999992014011500004+78917+011933FM-12+000899999V0200601N003019999999N999999999-00191-00501102111ADDAA106000731MA1999990102011MD1710061+9990OD139901001999REMSYN06401007 16/// /0603 11019 21050 30201 40211 57006 69971 333 91110=
0089010070999992014011501004+78917+011933FM-12+000899999V0201601N001019999999N999999999-00211-00491102081ADDMA1999990101981MD1710061+9990REMSYN04801007 46/// /1601 11021 21049 30198 40208 57006=
0089010070999992014011502004+78917+011933FM-12+000899999V0201301N002019999999N999999999-00201-00481102041ADDMA1999990101941MD1710091+9990REMSYN04801007 46/// /1302 11020 21048 30194 40204 57009=
0089010070999992014011503004+78917+011933FM-12+000899999V0201201N004019999999N999999999-00161-00431101991ADDMA1999990101891MD1710121+9990REMSYN04801007 46/// /1204 11016 21043 30189 40199 57012=
0089010070999992014011504004+78917+011933FM-12+000899999V0201001N002019999999N999999999-00221-00411101961ADDMA1999990101861MD1710121+9990REMSYN04801007 46/// /1002 11022 21041 30186 40196 57012=
0089010070999992014011505004+78917+011933FM-12+000899999V0201101N002019999999N999999999-00221-00371101951ADDMA1999990101851MD1610091+9990REMSYN04801007 46/// /1102 11022 21037 30185 40195 56009=
0293010070999992014011506004+78917+011933FM-12+000899999V0200701N004019999999N008000199-00241-00391101941ADDAA112002031AA224002931AJ100373100370094AY181021AY271021GA1081+999991051GE19MSL   +99999+99999GF108991081990999999991991IA1239KA1240N-00591MA1999990101841MD1710051+9990MW1701OD139900801999REMSYN09401007 11358 80704 11024 21039 30184 40194 57005 60022 77087 8802/ 333 21059 47037 70029 91108=
0089010070999992014011507004+78917+011933FM-12+000899999V0201401N001019999999N999999999-00241-00391101951ADDMA1999990101851MD1710011+9990REMSYN04801007 46/// /1401 11024 21039 30185 40195 57001=
0089010070999992014011508004+78917+011933FM-12+000899999V0201501N002019999999N999999999-00261-00421101951ADDMA1999990101851MD1410001+9990REMSYN04801007 46/// /1502 11026 21042 30185 40195 54000=
0089010070999992014011509004+78917+011933FM-12+000899999V0201401N002019999999N999999999-00281-00441101941ADDMA1999990101841MD1410001+9990REMSYN04801007 46/// /1402 11028 21044 30184 40194 54000=
0089010070999992014011510004+78917+011933FM-12+000899999V0201501N002019999999N999999999-00301-00491101951ADDMA1999990101851MD1710011+9990REMSYN04801007 46/// /1502 11030 21049 30185 40195 57001=
0089010070999992014011511004+78917+011933FM-12+000899999V0201501N003019999999N999999999-00271-00501101921ADDMA1999990101821MD1710031+9990REMSYN04801007 46/// /1503 11027 21050 30182 40192 57003=
0228010070999992014011512004+78917+011933FM-12+000899999V0201301N002019999999N025000199-00261-00511101881ADDAA106000091AY111021AY211021GA1081+999991061GE19MSL   +99999+99999GF108991081990999999991991MA1999990101791MD1810051+9990MW1021OD139900401999REMSYN07601007 11575 81302 11026 21051 30179 40188 58005 60001 70211 885// 333 91104=
0089010070999992014011513004+78917+011933FM-12+000899999V0201301N002019999999N999999999-00251-00501101851ADDMA1999990101751MD1710101+9990REMSYN04801007 46/// /1302 11025 21050 30175 40185 57010=
0089010070999992014011514004+78917+011933FM-12+000899999V0201501N003019999999N999999999-00361-00591101801ADDMA1999990101701MD1710121+9990REMSYN04801007 46/// /1503 11036 21059 30170 40180 57012=
0089010070999992014011515004+78917+011933FM-12+000899999V0202501N001019999999N999999999-00281-00541101761ADDMA1999990101661MD1710121+9990REMSYN04801007 46/// /2501 11028 21054 30166 40176 57012=
0089010070999992014011516004+78917+011933FM-12+000899999V0202801N002019999999N999999999-00261-00451101751ADDMA1999990101651MD1610101+9990REMSYN04801007 46/// /2802 11026 21045 30165 40175 56010=
0089010070999992014011517004+78917+011933FM-12+000899999V0201701N002019999999N999999999+00001-00461101731ADDMA1999990101631MD1610071+9990REMSYN04801007 46/// /1702 10000 21046 30163 40173 56007=
0247010070999992014011518004+78917+011933FM-12+000899999V0201201N004019999999N008000199-00131-00311101721ADDAA112000631AY171021AY211021GA1081+999991051GE19MSL   +99999+99999GF108991081990999999991991KA1120M+00021MA1999990101621MD1610051+9990MW1701OD139900701999REMSYN08201007 11558 81204 11013 21031 30162 40172 56005 69962 77071 8802/ 333 10002 91107=
0089010070999992014011519004+78917+011933FM-12+000899999V0203601N001019999999N999999999-00131-00281101741ADDMA1999990101641MD1610011+9990REMSYN04801007 46/// /3601 11013 21028 30164 40174 56001=
0089010070999992014011520004+78917+011933FM-12+000899999V0200801N004019999999N999999999-00091-00391101711ADDMA1999990101621MD1710011+9990REMSYN04801007 46/// /0804 11009 21039 30162 40171 57001=
0089010070999992014011521004+78917+011933FM-12+000899999V0201301N004019999999N999999999-00121-00451101731ADDMA1999990101631MD1210011+9990REMSYN04801007 46/// /1304 11012 21045 30163 40173 52001=
0089010070999992014011522004+78917+011933FM-12+000899999V0200801N002019999999N999999999+00031-00511101691ADDMA1999990101591MD1810051+9990REMSYN04801007 46/// /0802 10003 21051 30159 40169 58005=
0089010070999992014011523004+78917+011933FM-12+000899999V0201201N003019999999N999999999-00081-00321101671ADDMA1999990101571MD1810051+9990REMSYN04801007 46/// /1203 11008 21032 30157 40167 58005=
0130010070999992014011600004+78917+011933FM-12+000899999V0200901N004019999999N999999999-00081-00271101601ADDAA106002031MA1999990101511MD1810121+9990OD139900801999REMSYN06401007 16/// /0904 11008 21027 30151 40160 58012 60021 333 91108=
0089010070999992014011601004+78917+011933FM-12+000899999V0201101N004019999999N999999999-00031-00251101571ADDMA1999990101481MD1810121+9990REMSYN04801007 46/// /1104 11003 21025 30148 40157 58012=
0089010070999992014011602004+78917+011933FM-12+000899999V0202401N005019999999N999999999+00081-00241101571ADDMA1999990101471MD1610101+9990REMSYN04801007 46/// /2405 10008 21024 30147 40157 56010=
0089010070999992014011603004+78917+011933FM-12+000899999V0200401N002019999999N999999999+00041-00211101571ADDMA1999990101481MD1610031+9990REMSYN04801007 46/// /0402 10004 21021 30148 40157 56003=
0089010070999992014011604004+78917+011933FM-12+000899999V0202501N002019999999N999999999+00101-00351101561ADDMA1999990101461MD1710011+9990REMSYN04801007 46/// /2502 10010 21035 30146 40156 57001=
0089010070999992014011605004+78917+011933FM-12+000899999V0200701N002019999999N999999999+00051-00241101551ADDMA1999990101451MD1710021+9990REMSYN04801007 46/// /0702 10005 21024 30145 40155 57002=
0293010070999992014011606004+78917+011933FM-12+000899999V0201201N003019999999N005000199-00051-00201101521ADDAA112004031AA224004931AJ100423100420094AY171021AY221021GA1081+999991051GE19MSL   +99999+99999GF108991081990999999991991IA1279KA1240N-00201MA1999990101431MD1710051+9990MW1711OD139901001999REMSYN09401007 11350 81203 11005 21020 30143 40152 57005 60042 77172 8802/ 333 21020 43042 70049 91110=
0089010070999992014011607004+78917+011933FM-12+000899999V0201601N001019999999N999999999-00041-00181101491ADDMA1999990101391MD1810071+9990REMSYN04801007 46/// /1601 11004 21018 30139 40149 58007=
0089010070999992014011608004+78917+011933FM-12+000899999V0200101N001019999999N999999999-00031-00161101471ADDMA1999990101381MD1710071+9990REMSYN04801007 46/// /0101 11003 21016 30138 40147 57007=
0089010070999992014011609004+78917+011933FM-12+000899999V0201101N004019999999N999999999-00011-00161101461ADDMA1999990101361MD1710071+9990REMSYN04801007 46/// /1104 11001 21016 30136 40146 57007=
0089010070999992014011610004+78917+011933FM-12+000899999V0201701N008019999999N999999999+00131-00511101451ADDMA1999990101351MD1710041+9990REMSYN04801007 46/// /1708 10013 21051 30135 40145 57004=
0089010070999992014011611004+78917+011933FM-12+000899999V0201601N005019999999N999999999+00091-00411101431ADDMA1999990101341MD1710041+9990REMSYN04801007 46/// /1605 10009 21041 30134 40143 57004=
0228010070999992014011612004+78917+011933FM-12+000899999V0201301N003019999999N006000199+00111-00431101371ADDAA106003031AY171021AY221021GA1081+999991051GE19MSL   +99999+99999GF108991081990999999991991MA1999990101281MD1810081+9990MW1711OD139901701999REMSYN07601007 11556 81303 10011 21043 30128 40137 58008 60031 77172 8802/ 333 91117=
0089010070999992014011613004+78917+011933FM-12+000899999V0201601N005019999999N999999999+00101-00501101291ADDMA1999990101201MD1810151+9990REMSYN04801007 46/// /1605 10010 21050 30120 40129 58015=
0089010070999992014011614004+78917+011933FM-12+000899999V0201801N005019999999N999999999+00131-00471101251ADDMA1999990101161MD1810181+9990REMSYN04801007 46/// /1805 10013 21047 30116 40125 58018=
0089010070999992014011615004+78917+011933FM-12+000899999V0201801N006019999999N999999999+00071-00371101211ADDMA1999990101111MD1510171+9990REMSYN04801007 46/// /1806 10007 21037 30111 40121 55017=
0089010070999992014011616004+78917+011933FM-12+000899999V0202201N001019999999N999999999+00021-00301101191ADDMA1999990101091MD1710101+9990REMSYN04801007 46/// /2201 10002 21030 30109 40119 57010=
0089010070999992014011617004+78917+011933FM-12+000899999V0201501N001019999999N999999999+00021-00231101151ADDMA1999990101061MD1610101+9990REMSYN04801007 46/// /1501 10002 21023 30106 40115 56010=
0247010070999992014011618004+78917+011933FM-12+000899999V0201401N002019999999N001500199+00001-00201101131ADDAA112006031AY171021AY271021GA1081+999991051GE19MSL   +99999+99999GF108991081990999999991991KA1120M+00181MA1999990101031MD1710081+9990MW1751OD139901501999REMSYN08201007 11115 81402 10000 21020 30103 40113 57008 60062 77577 8802/ 333 10018 91115=
0089010070999992014011619004+78917+011933FM-12+000899999V0201801N003019999999N999999999+00051-00201101091ADDMA1999990101001MD1710101+9990REMSYN04801007 46/// /1803 10005 21020 30100 40109 57010=
0089010070999992014011620004+78917+011933FM-12+000899999V0202101N003019999999N999999999+00071-00221101081ADDMA1999990100981MD1610081+9990REMSYN04801007 46/// /2103 10007 21022 30098 40108 56008=
0089010070999992014011621004+78917+011933FM-12+000899999V0201601N003019999999N999999999+00071-00231101091ADDMA1999990101001MD1610031+9990REMSYN04801007 46/// /1603 10007 21023 30100 40109 56003=
0089010070999992014011622004+78917+011933FM-12+000899999V0201501N003019999999N999999999+00131-00181101101ADDMA1999990101001MD1510011+9990REMSYN04801007 46/// /1503 10013 21018 30100 40110 55001=
0089010070999992014011623004+78917+011933FM-12+000899999V0202101N006019999999N999999999+00101-00241101111ADDMA1999990101011MD1210031+9990REMSYN04801007 46/// /2106 10010 21024 30101 40111 52003=
0149010070999992014011700004+78917+011933FM-12+000899999V0202201N005019999999N999999999+00071-00221101101ADDAA106012031MA1999990101011MD1290019+9990OD139901101999REMSYN06401007 16/// /2205 10007 21022 30101 40110 54001 60121 333 91111=EQDQ01.1    3APC3  
0089010070999992014011701004+78917+011933FM-12+000899999V0202301N009019999999N999999999+00121-00201101141ADDMA1999990101041MD1310041+9990REMSYN04801007 46/// /2309 10012 21020 30104 40114 53004=
0089010070999992014011702004+78917+011933FM-12+000899999V0202301N010019999999N999999999+00141-00271101141ADDMA1999990101051MD1210041+9990REMSYN04801007 46/// /2310 10014 21027 30105 40114 52004=
0089010070999992014011703004+78917+011933FM-12+000899999V0202301N006019999999N999999999+00111-00391101141ADDMA1999990101051MD1900041+9990REMSYN04801007 46/// /2306 10011 21039 30105 40114 50004=
0089010070999992014011704004+78917+011933FM-12+000899999V0202401N003019999999N999999999+00111-00391101131ADDMA1999990101031MD1900011+9990REMSYN04801007 46/// /2403 10011 21039 30103 40113 50001=
0089010070999992014011705004+78917+011933FM-12+000899999V0202301N005019999999N999999999+00091-00451101171ADDMA1999990101071MD1310021+9990REMSYN04801007 46/// /2305 10009 21045 30107 40117 53002=
0287010070999992014011706004+78917+011933FM-12+000899999V0201901N002019999999N002000199+00041-00421101171ADDAA112015031AA224021031AJ100513100510094AY171021AY261021GA1081+999991051GE19MSL   +99999+99999GF108991081990999999991991IA1249KA1240N-00011MA1999990101081MD1310031+9990OD139901601999REMSYN09401007 11420 81902 10004 21042 30108 40117 53003 60152 7//76 8802/ 333 21001 44051 70210 91116=
0089010070999992014011707004+78917+011933FM-12+000899999V0201901N004019999999N999999999+00011-00401101161ADDMA1999990101071MD1900031+9990REMSYN04801007 46/// /1904 10001 21040 30107 40116 50003=
0089010070999992014011708004+78917+011933FM-12+000899999V0202001N004019999999N999999999+00021-00501101201ADDMA1999990101111MD1310041+9990REMSYN04801007 46/// /2004 10002 21050 30111 40120 53004=
0089010070999992014011709004+78917+011933FM-12+000899999V0202401N001019999999N999999999+00061-00601101191ADDMA1999990101091MD1900021+9990REMSYN04801007 46/// /2401 10006 21060 30109 40119 50002=
0089010070999992014011710004+78917+011933FM-12+000899999V0201501N001019999999N999999999+00011-00741101191ADDMA1999990101091MD1900031+9990REMSYN04801007 46/// /1501 10001 21074 30109 40119 50003=
0089010070999992014011711004+78917+011933FM-12+000899999V0202301N003019999999N999999999+00011-00711101201ADDMA1999990101101MD1410001+9990REMSYN04801007 46/// /2303 10001 21071 30110 40120 54000=
0228010070999992014011712004+78917+011933FM-12+000899999V0202501N002019999999N008000199-00081-00441101191ADDAA106001031AY171021AY221021GA1081+999991051GE19MSL   +99999+99999GF108991081990999999991991MA1999990101091MD1410001+9990MW1711OD139901001999REMSYN07601007 11458 82502 11008 21044 30109 40119 54000 60011 77172 8802/ 333 91110=
0089010070999992014011713004+78917+011933FM-12+000899999V0202301N004019999999N999999999-00121-00431101201ADDMA1999990101111MD1210011+9990REMSYN04801007 46/// /2304 11012 21043 30111 40120 52001=
0089010070999992014011714004+78917+011933FM-12+000899999V0201401N003019999999N999999999-00211-00421101181ADDMA1999990101081MD1710021+9990REMSYN04801007 46/// /1403 11021 21042 30108 40118 57002=
0089010070999992014011715004+78917+011933FM-12+000899999V0202001N003019999999N999999999-00131-00621101171ADDMA1999990101071MD1810021+9990REMSYN04801007 46/// /2003 11013 21062 30107 40117 58002=
0089010070999992014011716004+78917+011933FM-12+000899999V0202401N003019999999N999999999-00261-00481101181ADDMA1999990101081MD1610031+9990REMSYN04801007 46/// /2403 11026 21048 30108 40118 56003=
0089010070999992014011717004+78917+011933FM-12+000899999V0201501N004019999999N999999999-00331-00481101151ADDMA1999990101051MD1810031+9990REMSYN04801007 46/// /1504 11033 21048 30105 40115 58003=
0247010070999992014011718004+78917+011933FM-12+000899999V0201001N004019999999N070001199-00261-00451101091ADDAA112003031AY181021AY271021GA1041+999991031GE19MSL   +99999+99999GF104991041990999999991991KA1120M+00091MA1999990100991MD1810081+9990MW1011OD139901001999REMSYN08201007 11889 41004 11026 21045 30099 40109 58008 60032 70187 84090 333 10009 91110=
0089010070999992014011719004+78917+011933FM-12+000899999V0200901N002019999999N999999999-00121-00511101051ADDMA1999990100951MD1810131+9990REMSYN04801007 46/// /0902 11012 21051 30095 40105 58013=
0089010070999992014011720004+78917+011933FM-12+000899999V0201101N006019999999N999999999-00181-00321101051ADDMA1999990100951MD1610111+9990REMSYN04801007 46/// /1106 11018 21032 30095 40105 56011=
0089010070999992014011721004+78917+011933FM-12+000899999V0200701N006019999999N999999999-00191-00321101051ADDMA1999990100951MD1610041+9990REMSYN04801007 46/// /0706 11019 21032 30095 40105 56004=
0089010070999992014011722004+78917+011933FM-12+000899999V0200801N004019999999N999999999-00141-00271101031ADDMA1999990100931MD1710011+9990REMSYN04801007 46/// /0804 11014 21027 30093 40103 57001=
0089010070999992014011723004+78917+011933FM-12+000899999V0201401N003019999999N999999999-00061-00171101001ADDMA1999990100901MD1710041+9990REMSYN04801007 46/// /1403 11006 21017 30090 40100 57004=
0130010070999992014011800004+78917+011933FM-12+000899999V0202301N007019999999N999999999+00041-00211100971ADDAA106003031MA1999990100881MD1610071+9990OD139901201999REMSYN06401007 16/// /2307 10004 21021 30088 40097 56007 60031 333 91112=
0089010070999992014011801004+78917+011933FM-12+000899999V0202201N006019999999N999999999+00101-00271100931ADDMA1999990100831MD1810101+9990REMSYN04801007 46/// /2206 10010 21027 30083 40093 58010=
0089010070999992014011802004+78917+011933FM-12+000899999V0202001N003019999999N999999999+00101-00261100911ADDMA1999990100811MD1810091+9990REMSYN04801007 46/// /2003 10010 21026 30081 40091 58009=
0089010070999992014011803004+78917+011933FM-12+000899999V0202201N006019999999N999999999+00111-00251100861ADDMA1999990100761MD1810121+9990REMSYN04801007 46/// /2206 10011 21025 30076 40086 58012=
0089010070999992014011804004+78917+011933FM-12+000899999V0202401N009019999999N999999999+00111-00191100881ADDMA1999990100781MD1610051+9990REMSYN04801007 46/// /2409 10011 21019 30078 40088 56005=
0089010070999992014011805004+78917+011933FM-12+000899999V0202501N007019999999N999999999+00101-00221100861ADDMA1999990100771MD1610041+9990REMSYN04801007 46/// /2507 10010 21022 30077 40086 56004=
0293010070999992014011806004+78917+011933FM-12+000899999V0202701N005019999999N006000199+00041-00231100911ADDAA112007031AA224010331AJ100593100590094AY171021AY261021GA1081+999991051GE19MSL   +99999+99999GF108991081990999999991991IA1279KA1240N-00381MA1999990100811MD1310051+9990MW1701OD139901501999REMSYN09401007 11556 82705 10004 21023 30081 40091 53005 60072 77076 8802/ 333 21038 43059 70103 91115=
0089010070999992014011807004+78917+011933FM-12+000899999V0202701N007019999999N999999999+00011-00331100961ADDMA1999990100861MD1310081+9990REMSYN04801007 46/// /2707 10001 21033 30086 40096 53008=
0089010070999992014011808004+78917+011933FM-12+000899999V0202701N009019999999N999999999-00071-00461101031ADDMA1999990100931MD1310161+9990REMSYN04801007 46/// /2709 11007 21046 30093 40103 53016=
0089010070999992014011809004+78917+011933FM-12+000899999V0202701N005019999999N999999999-00211-00531101151ADDMA1999990101051MD1310251+9990REMSYN04801007 46/// /2705 11021 21053 30105 40115 53025=
0089010070999992014011810004+78917+011933FM-12+000899999V0203201N006019999999N999999999-00391-00791101221ADDMA1999990101121MD1110261+9990REMSYN04801007 46/// /3206 11039 21079 30112 40122 51026=
0089010070999992014011811004+78917+011933FM-12+000899999V0203101N008019999999N999999999-00591-00831101301ADDMA1999990101201MD1110271+9990REMSYN04801007 46/// /3108 11059 21083 30120 40130 51027=
0228010070999992014011812004+78917+011933FM-12+000899999V0203101N009019999999N020000199-00721-00971101381ADDAA106000231AY111021AY211021GA1081+999991061GE19MSL   +99999+99999GF108991081990999999991991MA1999990101281MD1310231+9990MW1021OD139901401999REMSYN07601007 11470 83109 11072 21097 30128 40138 53023 69921 70211 885// 333 91114=
0089010070999992014011813004+78917+011933FM-12+000899999V0203201N007019999999N999999999-00781-01081101461ADDMA1999990101361MD1210241+9990REMSYN04801007 46/// /3207 11078 21108 30136 40146 52024=
0089010070999992014011814004+78917+011933FM-12+000899999V0203101N006019999999N999999999-00891-01171101561ADDMA1999990101451MD1210251+9990REMSYN04801007 46/// /3106 11089 21117 30145 40156 52025=
0089010070999992014011815004+78917+011933FM-12+000899999V0203001N005019999999N999999999-00921-01241101641ADDMA1999990101541MD1210261+9990REMSYN04801007 46/// /3005 11092 21124 30154 40164 52026=
0089010070999992014011816004+78917+011933FM-12+000899999V0203001N004019999999N999999999-00951-01241101721ADDMA1999990101611MD1110251+9990REMSYN04801007 46/// /3004 11095 21124 30161 40172 51025=
0089010070999992014011817004+78917+011933FM-12+000899999V0203001N003019999999N999999999-01001-01311101781ADDMA1999990101681MD1210231+9990REMSYN04801007 46/// /3003 11100 21131 30168 40178 52023=
0247010070999992014011818004+78917+011933FM-12+000899999V0202501N003019999999N070001199-01081-01371101831ADDAA112000091AY111021AY211021GA1071+999991061GE19MSL   +99999+99999GF107991071990999999991991KA1120M+00081MA1999990101731MD1210191+9990MW1011OD139901001999REMSYN08201007 11589 72503 11108 21137 30173 40183 52019 60002 70111 875// 333 10008 91110=
0089010070999992014011819004+78917+011933FM-12+000899999V0202201N002019999999N999999999-01001-01321101881ADDMA1999990101781MD1210171+9990REMSYN04801007 46/// /2202 11100 21132 30178 40188 52017=
0089010070999992014011820004+78917+011933FM-12+000899999V0202801N003019999999N999999999-01011-01301101931ADDMA1999990101831MD1210151+9990REMSYN04801007 46/// /2803 11101 21130 30183 40193 52015=
0089010070999992014011821004+78917+011933FM-12+000899999V0202701N002019999999N999999999-00991-01301101991ADDMA1999990101881MD1210161+9990REMSYN04801007 46/// /2702 11099 21130 30188 40199 52016=
0089010070999992014011822004+78917+011933FM-12+000899999V0202501N002019999999N999999999-01031-01381102041ADDMA1999990101941MD1210161+9990REMSYN04801007 46/// /2502 11103 21138 30194 40204 52016=
0089010070999992014011823004+78917+011933FM-12+000899999V0202501N003019999999N999999999-01001-01331102071ADDMA1999990101971MD1110141+9990REMSYN04801007 46/// /2503 11100 21133 30197 40207 51014=
0130010070999992014011900004+78917+011933FM-12+000899999V0202501N001019999999N999999999-00991-01341102091ADDAA106000231MA1999990101991MD1900111+9990OD139900601999REMSYN06401007 16/// /2501 11099 21134 30199 40209 50011 69921 333 91106=
0089010070999992014011901004+78917+011933FM-12+000899999V0202201N002019999999N999999999-01021-01341102131ADDMA1999990102031MD1210091+9990REMSYN04801007 46/// /2202 11102 21134 30203 40213 52009=
0089010070999992014011902004+78917+011933FM-12+000899999V0202101N002019999999N999999999-01001-01321102151ADDMA1999990102051MD1210081+9990REMSYN04801007 46/// /2102 11100 21132 30205 40215 52008=
0089010070999992014011903004+78917+011933FM-12+000899999V0202001N002019999999N999999999-01111-01431102171ADDMA1999990102061MD1210071+9990REMSYN04801007 46/// /2002 11111 21143 30206 40217 52007=
0089010070999992014011904004+78917+011933FM-12+000899999V0201901N001019999999N999999999-01271-01581102181ADDMA1999990102081MD1210051+9990REMSYN04801007 46/// /1901 11127 21158 30208 40218 52005=
0089010070999992014011905004+78917+011933FM-12+000899999V0201301N003019999999N999999999-01301-01601102211ADDMA1999990102101MD1210061+9990REMSYN04801007 46/// /1303 11130 21160 30210 40221 52006=
0309010070999992014011906004+78917+011933FM-12+000899999V0201501N004019999999N070001199-01411-01661102201ADDAA112000091AA224000091AJ100593100590094AY111021AY201021GA1991+999991041GA2041+999991061GE19MSL   +99999+99999GF104991990990999999991991IA1279KA1240N-01451MA1999990102101MD1210031+9990MW1021OD139900601999REMSYN09401007 11489 41504 11141 21166 30210 40220 52003 60002 70210 84510 333 21145 43059 70000 91106=
0089010070999992014011907004+78917+011933FM-12+000899999V0201301N002019999999N999999999-01391-01631102221ADDMA1999990102111MD1210031+9990REMSYN04801007 46/// /1302 11139 21163 30211 40222 52003=
0089010070999992014011908004+78917+011933FM-12+000899999V0202401N002019999999N999999999-01321-01521102221ADDMA1999990102121MD1210011+9990REMSYN04801007 46/// /2402 11132 21152 30212 40222 52001=
0089010070999992014011909004+78917+011933FM-12+000899999V0201901N001019999999N999999999-01421-01671102241ADDMA1999990102131MD1210041+9990REMSYN04801007 46/// /1901 11142 21167 30213 40224 52004=
0089010070999992014011910004+78917+011933FM-12+000899999V0201501N001019999999N999999999-01351-01581102281ADDMA1999990102171MD1310061+9990REMSYN04801007 46/// /1501 11135 21158 30217 40228 53006=
0089010070999992014011911004+78917+011933FM-12+000899999V0201301N001019999999N999999999-01491-01781102301ADDMA1999990102201MD1210081+9990REMSYN04801007 46/// /1301 11149 21178 30220 40230 52008=
0244010070999992014011912004+78917+011933FM-12+000899999V0201701N001019999999N070001199-01291-01621102291ADDAA106000091AY111021AY211021GA1991+999991001GA2021+999991031GE19MSL   +99999+99999GF103991990990999999991991MA1999990102181MD1900051+9990MW1021OD139900301999REMSYN07601007 11789 31701 11129 21162 30218 40229 50005 60001 70211 82031 333 91103=
0089010070999992014011913004+78917+011933FM-12+000899999V0201301N002019999999N999999999-01281-01711102261ADDMA1999990102161MD1810021+9990REMSYN04801007 46/// /1302 11128 21171 30216 40226 58002=
0089010070999992014011914004+78917+011933FM-12+000899999V0201401N001019999999N999999999-01211-01701102241ADDMA1999990102131MD1710061+9990REMSYN04801007 46/// /1401 11121 21170 30213 40224 57006=
0089010070999992014011915004+78917+011933FM-12+000899999V0201501N003019999999N999999999-01171-01641102231ADDMA1999990102121MD1710061+9990REMSYN04801007 46/// /1503 11117 21164 30212 40223 57006=
0089010070999992014011916004+78917+011933FM-12+000899999V0201701N003019999999N999999999-01111-01701102171ADDMA1999990102071MD1810091+9990REMSYN04801007 46/// /1703 11111 21170 30207 40217 58009=
0089010070999992014011917004+78917+011933FM-12+000899999V0201301N001019999999N999999999-00951-01671102171ADDMA1999990102061MD1710071+9990REMSYN04801007 46/// /1301 11095 21167 30206 40217 57007=
0247010070999992014011918004+78917+011933FM-12+000899999V0201501N003019999999N070001199-00851-01481102171ADDAA112000331AY111021AY201021GA1081+999991061GE19MSL   +99999+99999GF108991081990999999991991KA1120M-00811MA1999990102061MD1610061+9990MW1031OD139900501999REMSYN08201007 11589 81503 11085 21148 30206 40217 56006 69932 70310 885// 333 11081 91105=
0089010070999992014011919004+78917+011933FM-12+000899999V0201401N003019999999N999999999-00911-01391102151ADDMA1999990102051MD1710021+9990REMSYN04801007 46/// /1403 11091 21139 30205 40215 57002=
0089010070999992014011920004+78917+011933FM-12+000899999V0201301N004019999999N999999999-00771-01241102131ADDMA1999990102031MD1710031+9990REMSYN04801007 46/// /1304 11077 21124 30203 40213 57003=
0089010070999992014011921004+78917+011933FM-12+000899999V0201301N005019999999N999999999-00751-01151102111ADDMA1999990102011MD1810061+9990REMSYN04801007 46/// /1305 11075 21115 30201 40211 58006=
0089010070999992014011922004+78917+011933FM-12+000899999V0201201N001019999999N999999999-00601-01021102051ADDMA1999990101951MD1810091+9990REMSYN04801007 46/// /1201 11060 21102 30195 40205 58009=
0089010070999992014011923004+78917+011933FM-12+000899999V0201401N005019999999N999999999-00481-00921102021ADDMA1999990101921MD1710111+9990REMSYN04801007 46/// /1405 11048 21092 30192 40202 57011=
0130010070999992014012000004+78917+011933FM-12+000899999V0201301N003019999999N999999999-00381-00841101971ADDAA106000091MA1999990101881MD1710131+9990OD139900901999REMSYN06401007 16/// /1303 11038 21084 30188 40197 57013 60001 333 91109=
0089010070999992014012001004+78917+011933FM-12+000899999V0201401N003019999999N999999999-00241-00711101921ADDMA1999990101821MD1710131+9990REMSYN04801007 46/// /1403 11024 21071 30182 40192 57013=
0089010070999992014012002004+78917+011933FM-12+000899999V0201801N002019999999N999999999-00271-00691101881ADDMA1999990101781MD1710141+9990REMSYN04801007 46/// /1802 11027 21069 30178 40188 57014=
0089010070999992014012003004+78917+011933FM-12+000899999V0202301N002019999999N999999999-00281-00601101801ADDMA1999990101701MD1710171+9990REMSYN04801007 46/// /2302 11028 21060 30170 40180 57017=
0089010070999992014012004004+78917+011933FM-12+000899999V0201301N009019999999N999999999-00261-00521101751ADDMA1999990101661MD1710171+9990REMSYN04801007 46/// /1309 11026 21052 30166 40175 57017=
0089010070999992014012005004+78917+011933FM-12+000899999V0201201N011019999999N999999999-00241-00501101691ADDMA1999990101591MD1710191+9990REMSYN04801007 46/// /1211 11024 21050 30159 40169 57019=
0293010070999992014012006004+78917+011933FM-12+000899999V0201201N011019999999N003000199-00201-00451101651ADDAA112000331AA224000631AJ100583100580094AY111021AY211021GA1081+999991061GE19MSL   +99999+99999GF108991081990999999991991IA1279KA1240N-01131MA1999990101551MD1710161+9990MW1381OD139901401999REMSYN09401007 11530 81211 11020 21045 30155 40165 57016 69932 73811 885// 333 21113 43058 70006 91114=
0089010070999992014012007004+78917+011933FM-12+000899999V0201101N011019999999N999999999-00121-00431101601ADDMA1999990101501MD1710151+9990REMSYN04801007 46/// /1111 11012 21043 30150 40160 57015=
0089010070999992014012008004+78917+011933FM-12+000899999V0201101N008019999999N999999999-00061-00401101551ADDMA1999990101451MD1810141+9990REMSYN04801007 46/// /1108 11006 21040 30145 40155 58014=
0089010070999992014012009004+78917+011933FM-12+000899999V0201101N012019999999N999999999-00151-00391101501ADDMA1999990101401MD1710141+9990REMSYN04801007 46/// /1112 11015 21039 30140 40150 57014=
