0089010090999992014010101004+80650+025000FM-12+000599999V0203101N004019999999N999999999-01031+99999102121ADDMA1999990102051MD1710061+9990REMSYN04801009 46/// /3104 11103 2//// 30205 40212 57006=
0089010090999992014010102004+80650+025000FM-12+000599999V0203601N002019999999N999999999-01051+99999102101ADDMA1999990102031MD1710061+9990REMSYN04801009 46/// /3602 11105 2//// 30203 40210 57006=
0089010090999992014010104004+80650+025000FM-12+000599999V0201101N006019999999N999999999-00991+99999102001ADDMA1999990101931MD1610121+9990REMSYN04801009 46/// /1106 11099 2//// 30193 40200 56012=
0089010090999992014010105004+80650+025000FM-12+000599999V0201201N006019999999N999999999-00921+99999101951ADDMA1999990101881MD1710151+9990REMSYN04801009 46/// /1206 11092 2//// 30188 40195 57015=
0113010090999992014010106004+80650+025000FM-12+000599999V0201501N003019999999N999999999-00861+99999101901ADDMA1999990101831MD1710171+9990OD139900801999REMSYN05801009 46/// /1503 11086 2//// 30183 40190 57017 333 91108=
0089010090999992014010107004+80650+025000FM-12+000599999V0201601N005019999999N999999999-00791+99999101841ADDMA1999990101771MD1710161+9990REMSYN04801009 46/// /1605 11079 2//// 30177 40184 57016=
0089010090999992014010108004+80650+025000FM-12+000599999V0201401N007019999999N999999999-00731+99999101801ADDMA1999990101721MD1710151+9990REMSYN04801009 46/// /1407 11073 2//// 30172 40180 57015=
0089010090999992014010109004+80650+025000FM-12+000599999V0201301N009019999999N999999999-00661+99999101741ADDMA1999990101661MD1710161+9990REMSYN04801009 46/// /1309 11066 2//// 30166 40174 57016=
0089010090999992014010110004+80650+025000FM-12+000599999V0201501N005019999999N999999999-00651+99999101721ADDMA1999990101651MD1710121+9990REMSYN04801009 46/// /1505 11065 2//// 30165 40172 57012=
0089010090999992014010111004+80650+025000FM-12+000599999V0201601N006019999999N999999999-00641+99999101691ADDMA1999990101621MD1710111+9990REMSYN04801009 46/// /1606 11064 2//// 30162 40169 57011=
0113010090999992014010112004+80650+025000FM-12+000599999V0201501N005019999999N999999999-00571+99999101641ADDMA1999990101571MD1710101+9990OD139901001999REMSYN05801009 46/// /1505 11057 2//// 30157 40164 57010 333 91110=
0089010090999992014010113004+80650+025000FM-12+000599999V0201701N005019999999N999999999-00561+99999101581ADDMA1999990101511MD1710131+9990REMSYN04801009 46/// /1705 11056 2//// 30151 40158 57013=
0089010090999992014010114004+80650+025000FM-12+000599999V0202201N005019999999N999999999-00511+99999101551ADDMA1999990101471MD1710141+9990REMSYN04801009 46/// /2205 11051 2//// 30147 40155 57014=
0089010090999992014010115004+80650+025000FM-12+000599999V0201601N004019999999N999999999-00511+99999101521ADDMA1999990101451MD1710121+9990REMSYN04801009 46/// /1604 11051 2//// 30145 40152 57012=
0089010090999992014010116004+80650+025000FM-12+000599999V0202401N006019999999N999999999-00411+99999101491ADDMA1999990101421MD1710091+9990REMSYN04801009 46/// /2406 11041 2//// 30142 40149 57009=
0089010090999992014010117004+80650+025000FM-12+000599999V0202401N007019999999N999999999-00361+99999101481ADDMA1999990101411MD1710071+9990REMSYN04801009 46/// /2407 11036 2//// 30141 40148 57007=
0132010090999992014010118004+80650+025000FM-12+000599999V0202201N005019999999N999999999-00351+99999101471ADDKA1120M-00321MA1999990101401MD1710051+9990OD139900801999REMSYN06401009 46/// /2205 11035 2//// 30140 40147 57005 333 11032 91108=
0089010090999992014010119004+80650+025000FM-12+000599999V0202201N006019999999N999999999-00311+99999101461ADDMA1999990101391MD1710041+9990REMSYN04801009 46/// /2206 11031 2//// 30139 40146 57004=
0108010090999992014010120004+80650+025000FM-12+000599999V0202201N006019999999N999999999-00291+99999101451ADDMA1999990101381MD1790039+9990REMSYN04801009 46/// /2206 11029 2//// 30138 40145 54002=EQDQ01.2    3APC3  
0089010090999992014010121004+80650+025000FM-12+000599999V0202401N007019999999N999999999-00271+99999101501ADDMA1999990101431MD1110031+9990REMSYN04801009 46/// /2407 11027 2//// 30143 40150 51003=
0089010090999992014010122004+80650+025000FM-12+000599999V0202601N008019999999N999999999-00311+99999101501ADDMA1999990101431MD1210051+9990REMSYN04801009 46/// /2608 11031 2//// 30143 40150 52005=
0089010090999992014010123004+80650+025000FM-12+000599999V0202801N006019999999N999999999-00331+99999101551ADDMA1999990101481MD1210101+9990REMSYN04801009 46/// /2806 11033 2//// 30148 40155 52010=
0113010090999992014010200004+80650+025000FM-12+000599999V0202601N010019999999N999999999-00391+99999101611ADDMA1999990101541MD1110111+9990OD139901101999REMSYN05801009 46/// /2610 11039 2//// 30154 40161 51011 333 91111=
0089010090999992014010201004+80650+025000FM-12+000599999V0202701N010019999999N999999999-00491+99999101641ADDMA1999990101571MD1210131+9990REMSYN04801009 46/// /2710 11049 2//// 30157 40164 52013=
0089010090999992014010202004+80650+025000FM-12+000599999V0202601N012019999999N999999999-00551+99999101671ADDMA1999990101601MD1210121+9990REMSYN04801009 46/// /2612 11055 2//// 30160 40167 52012=
0089010090999992014010203004+80650+025000FM-12+000599999V0202601N011019999999N999999999-00581+99999101711ADDMA1999990101641MD1210101+9990REMSYN04801009 46/// /2611 11058 2//// 30164 40171 52010=
0089010090999992014010204004+80650+025000FM-12+000599999V0202701N009019999999N999999999-00611+99999101741ADDMA1999990101671MD1210101+9990REMSYN04801009 46/// /2709 11061 2//// 30167 40174 52010=
0089010090999992014010205004+80650+025000FM-12+000599999V0202601N008019999999N999999999-00631+99999101761ADDMA1999990101691MD1210091+9990REMSYN04801009 46/// /2608 11063 2//// 30169 40176 52009=
0132010090999992014010206004+80650+025000FM-12+000599999V0202501N008019999999N999999999-00641+99999101801ADDKA1240N-00641MA1999990101731MD1210091+9990OD139901401999REMSYN06401009 46/// /2508 11064 2//// 30173 40180 52009 333 21064 91114=
0089010090999992014010207004+80650+025000FM-12+000599999V0202601N007019999999N999999999-00641+99999101801ADDMA1999990101721MD1210061+9990REMSYN04801009 46/// /2607 11064 2//// 30172 40180 52006=
0089010090999992014010208004+80650+025000FM-12+000599999V0202601N008019999999N999999999-00641+99999101821ADDMA1999990101751MD1210061+9990REMSYN04801009 46/// /2608 11064 2//// 30175 40182 52006=
0089010090999992014010209004+80650+025000FM-12+000599999V0202601N007019999999N999999999-00591+99999101871ADDMA1999990101801MD1110081+9990REMSYN04801009 46/// /2607 11059 2//// 30180 40187 51008=
0089010090999992014010210004+80650+025000FM-12+000599999V0202701N006019999999N999999999-00611+99999101871ADDMA1999990101801MD1210081+9990REMSYN04801009 46/// /2706 11061 2//// 30180 40187 52008=
0089010090999992014010211004+80650+025000FM-12+000599999V0202801N005019999999N999999999-00611+99999101891ADDMA1999990101821MD1310071+9990REMSYN04801009 46/// /2805 11061 2//// 30182 40189 53007=
0113010090999992014010212004+80650+025000FM-12+000599999V0202601N005019999999N999999999-00581+99999101871ADDMA1999990101801MD1410001+9990OD139901201999REMSYN05801009 46/// /2605 11058 2//// 30180 40187 54000 333 91112=
0089010090999992014010213004+80650+025000FM-12+000599999V0202101N003019999999N999999999-00571+99999101861ADDMA1999990101791MD1510011+9990REMSYN04801009 46/// /2103 11057 2//// 30179 40186 55001=
0108010090999992014010214004+80650+025000FM-12+000599999V0202001N005019999999N999999999-00631+99999101861ADDMA1999990101791MD1790039+9990REMSYN04801009 46/// /2005 11063 2//// 30179 40186 54003=EQDQ01.3    3APC3  
0108010090999992014010215004+80650+025000FM-12+000599999V0201901N005019999999N999999999-00641+99999101861ADDMA1999990101781MD1790019+9990REMSYN04801009 46/// /1905 11064 2//// 30178 40186 54002=EQDQ01.2    3APC3  
0089010090999992014010216004+80650+025000FM-12+000599999V0201801N005019999999N999999999-00651+99999101831ADDMA1999990101761MD1610031+9990REMSYN04801009 46/// /1805 11065 2//// 30176 40183 56003=
0089010090999992014010217004+80650+025000FM-12+000599999V0201801N005019999999N999999999-00641+99999101781ADDMA1999990101711MD1610091+9990REMSYN04801009 46/// /1805 11064 2//// 30171 40178 56009=
0132010090999992014010218004+80650+025000FM-12+000599999V0201701N005019999999N999999999-00621+99999101731ADDKA1120M-00551MA1999990101661MD1710121+9990OD139900701999REMSYN06401009 46/// /1705 11062 2//// 30166 40173 57012 333 11055 91107=
0089010090999992014010219004+80650+025000FM-12+000599999V0201701N006019999999N999999999-00551+99999101691ADDMA1999990101611MD1710141+9990REMSYN04801009 46/// /1706 11055 2//// 30161 40169 57014=
0089010090999992014010220004+80650+025000FM-12+000599999V0201601N007019999999N999999999-00521+99999101641ADDMA1999990101571MD1710141+9990REMSYN04801009 46/// /1607 11052 2//// 30157 40164 57014=
0089010090999992014010221004+80650+025000FM-12+000599999V0201701N006019999999N999999999-00481+99999101601ADDMA1999990101531MD1710131+9990REMSYN04801009 46/// /1706 11048 2//// 30153 40160 57013=
0089010090999992014010222004+80650+025000FM-12+000599999V0202001N006019999999N999999999-00421+99999101601ADDMA1999990101531MD1810091+9990REMSYN04801009 46/// /2006 11042 2//// 30153 40160 58009=
0089010090999992014010223004+80650+025000FM-12+000599999V0202301N009019999999N999999999-00271+99999101561ADDMA1999990101491MD1710071+9990REMSYN04801009 46/// /2309 11027 2//// 30149 40156 57007=
0132010090999992014010300004+80650+025000FM-12+000599999V0202501N011019999999N999999999-00321+99999101581ADDMA1999990101511MD1790029+9990OD139901201999REMSYN05801009 46/// /2511 11032 2//// 30151 40158 54003 333 91112=EQDQ01.3    3APC3  
0089010090999992014010301004+80650+025000FM-12+000599999V0203501N008019999999N999999999-00751+99999101661ADDMA1999990101581MD1900051+9990REMSYN04801009 46/// /3508 11075 2//// 30158 40166 50005=
0089010090999992014010302004+80650+025000FM-12+000599999V0203401N007019999999N999999999-00891+99999101731ADDMA1999990101661MD1110171+9990REMSYN04801009 46/// /3407 11089 2//// 30166 40173 51017=
0089010090999992014010303004+80650+025000FM-12+000599999V0203401N006019999999N999999999-00931+99999101791ADDMA1999990101711MD1210211+9990REMSYN04801009 46/// /3406 11093 2//// 30171 40179 52021=
0089010090999992014010304004+80650+025000FM-12+000599999V0203201N007019999999N999999999-00951+99999101811ADDMA1999990101741MD1310151+9990REMSYN04801009 46/// /3207 11095 2//// 30174 40181 53015=
0089010090999992014010305004+80650+025000FM-12+000599999V0203201N007019999999N999999999-00991+99999101831ADDMA1999990101761MD1310101+9990REMSYN04801009 46/// /3207 11099 2//// 30176 40183 53010=
0132010090999992014010306004+80650+025000FM-12+000599999V0203201N006019999999N999999999-01051+99999101851ADDKA1240N-01051MA1999990101781MD1210071+9990OD139901101999REMSYN06401009 46/// /3206 11105 2//// 30178 40185 52007 333 21105 91111=
0089010090999992014010307004+80650+025000FM-12+000599999V0203301N005019999999N999999999-01051+99999101881ADDMA1999990101801MD1210071+9990REMSYN04801009 46/// /3305 11105 2//// 30180 40188 52007=
0089010090999992014010308004+80650+025000FM-12+000599999V0203401N004019999999N999999999-01081+99999101911ADDMA1999990101841MD1210081+9990REMSYN04801009 46/// /3404 11108 2//// 30184 40191 52008=
0089010090999992014010309004+80650+025000FM-12+000599999V0203401N004019999999N999999999-01081+99999101921ADDMA1999990101851MD1210071+9990REMSYN04801009 46/// /3404 11108 2//// 30185 40192 52007=
0089010090999992014010310004+80650+025000FM-12+000599999V0203501N003019999999N999999999-01071+99999101951ADDMA1999990101881MD1210081+9990REMSYN04801009 46/// /3503 11107 2//// 30188 40195 52008=
0089010090999992014010311004+80650+025000FM-12+000599999V0203401N004019999999N999999999-01061+99999101981ADDMA1999990101911MD1210071+9990REMSYN04801009 46/// /3404 11106 2//// 30191 40198 52007=
0113010090999992014010312004+80650+025000FM-12+000599999V0203401N005019999999N999999999-01091+99999101981ADDMA1999990101911MD1210061+9990OD139900701999REMSYN05801009 46/// /3405 11109 2//// 30191 40198 52006 333 91107=
0089010090999992014010313004+80650+025000FM-12+000599999V0203501N004019999999N999999999-01121+99999101961ADDMA1999990101891MD1510011+9990REMSYN04801009 46/// /3504 11112 2//// 30189 40196 55001=
0089010090999992014010314004+80650+025000FM-12+000599999V0203401N004019999999N999999999-01151+99999101981ADDMA1999990101911MD1410001+9990REMSYN04801009 46/// /3404 11115 2//// 30191 40198 54000=
0108010090999992014010315004+80650+025000FM-12+000599999V0203501N004019999999N999999999-01151+99999101961ADDMA1999990101891MD1790029+9990REMSYN04801009 46/// /3504 11115 2//// 30189 40196 54002=EQDQ01.2    3APC3  
0108010090999992014010316004+80650+025000FM-12+000599999V0203401N004019999999N999999999-01141+99999101971ADDMA1999990101901MD1290019+9990REMSYN04801009 46/// /3404 11114 2//// 30190 40197 54001=EQDQ01.1    3APC3  
0108010090999992014010317004+80650+025000FM-12+000599999V0203301N003019999999N999999999-01141+99999101951ADDMA1999990101881MD1790039+9990REMSYN04801009 46/// /3303 11114 2//// 30188 40195 54003=EQDQ01.3    3APC3  
0132010090999992014010318004+80650+025000FM-12+000599999V0203501N004019999999N999999999-01161+99999101961ADDKA1120M-01021MA1999990101891MD1410001+9990OD139900701999REMSYN06401009 46/// /3504 11116 2//// 30189 40196 54000 333 11102 91107=
0108010090999992014010319004+80650+025000FM-12+000599999V0200101N003019999999N999999999-01161+99999101951ADDMA1999990101881MD1790029+9990REMSYN04801009 46/// /0103 11116 2//// 30188 40195 54002=EQDQ01.2    3APC3  
0108010090999992014010320004+80650+025000FM-12+000599999V0200101N003019999999N999999999-01161+99999101981ADDMA1999990101901MD1290039+9990REMSYN04801009 46/// /0103 11116 2//// 30190 40198 54002=EQDQ01.2    3APC3  
0108010090999992014010321004+80650+025000FM-12+000599999V0200101N003019999999N999999999-01141+99999101981ADDMA1999990101911MD1290029+9990REMSYN04801009 46/// /0103 11114 2//// 30191 40198 54002=EQDQ01.2    3APC3  
0089010090999992014010322004+80650+025000FM-12+000599999V0200201N004019999999N999999999-01101+99999101981ADDMA1999990101911MD1210031+9990REMSYN04801009 46/// /0204 11110 2//// 30191 40198 52003=
0108010090999992014010323004+80650+025000FM-12+000599999V0209999C999999999999N999999999-01101+99999101991ADDMA1999990101921MD1290019+9990REMSYN04801009 46/// ///// 11110 2//// 30192 40199 54001=EQDQ01.1    3APC3  
0113010090999992014010400004+80650+025000FM-12+000599999V0203501N004019999999N999999999-01111+99999101981ADDMA1999990101901MD1410001+9990OD139900601999REMSYN05801009 46/// /3504 11111 2//// 30190 40198 54000 333 91106=
0089010090999992014010401004+80650+025000FM-12+000599999V0203601N003019999999N999999999-01141+99999101981ADDMA1999990101911MD1410001+9990REMSYN04801009 46/// /3603 11114 2//// 30191 40198 54000=
0089010090999992014010402004+80650+025000FM-12+000599999V0200101N004019999999N999999999-01201+99999102011ADDMA1999990101931MD1900021+9990REMSYN04801009 46/// /0104 11120 2//// 30193 40201 50002=
0108010090999992014010403004+80650+025000FM-12+000599999V0209999C999999999999N999999999-01241+99999101991ADDMA1999990101921MD1290019+9990REMSYN04801009 46/// ///// 11124 2//// 30192 40199 54002=EQDQ01.2    3APC3  
0108010090999992014010404004+80650+025000FM-12+000599999V0200101N004019999999N999999999-01281+99999102001ADDMA1999990101931MD1290029+9990REMSYN04801009 46/// /0104 11128 2//// 30193 40200 54002=EQDQ01.2    3APC3  
0108010090999992014010405004+80650+025000FM-12+000599999V0200201N004019999999N999999999-01231+99999102001ADDMA1999990101931MD1790019+9990REMSYN04801009 46/// /0204 11123 2//// 30193 40200 54001=EQDQ01.1    3APC3  
0151010090999992014010406004+80650+025000FM-12+000599999V0200401N005019999999N999999999-01251+99999102011ADDKA1240N-01311MA1999990101931MD1290029+9990OD139900601999REMSYN06401009 46/// /0405 11125 2//// 30193 40201 54001 333 21131 91106=EQDQ01.1    3APC3  
0089010090999992014010407004+80650+025000FM-12+000599999V0200501N006019999999N999999999-01281+99999102041ADDMA1999990101971MD1110041+9990REMSYN04801009 46/// /0506 11128 2//// 30197 40204 51004=
0089010090999992014010408004+80650+025000FM-12+000599999V0200701N008019999999N999999999-01161+99999102041ADDMA1999990101971MD1210041+9990REMSYN04801009 46/// /0708 11116 2//// 30197 40204 52004=
0089010090999992014010409004+80650+025000FM-12+000599999V0200701N007019999999N999999999-01071+99999102071ADDMA1999990102001MD1210061+9990REMSYN04801009 46/// /0707 11107 2//// 30200 40207 52006=
0089010090999992014010410004+80650+025000FM-12+000599999V0200601N008019999999N999999999-00981+99999102071ADDMA1999990102001MD1210031+9990REMSYN04801009 46/// /0608 11098 2//// 30200 40207 52003=
0089010090999992014010411004+80650+025000FM-12+000599999V0200501N008019999999N999999999-01011+99999102111ADDMA1999990102031MD1210071+9990REMSYN04801009 46/// /0508 11101 2//// 30203 40211 52007=
0132010090999992014010412004+80650+025000FM-12+000599999V0200401N008019999999N999999999-01011+99999102101ADDMA1999990102021MD1290039+9990OD139901101999REMSYN05801009 46/// /0408 11101 2//// 30202 40210 54003 333 91111=EQDQ01.3    3APC3  
0108010090999992014010413004+80650+025000FM-12+000599999V0200801N009019999999N999999999-01031+99999102101ADDMA1999990102031MD1290039+9990REMSYN04801009 46/// /0809 11103 2//// 30203 40210 54003=EQDQ01.3    3APC3  
0108010090999992014010414004+80650+025000FM-12+000599999V0200701N009019999999N999999999-01091+99999102121ADDMA1999990102051MD1290019+9990REMSYN04801009 46/// /0709 11109 2//// 30205 40212 54002=EQDQ01.2    3APC3  
0108010090999992014010415004+80650+025000FM-12+000599999V0200701N009019999999N999999999-01061+99999102121ADDMA1999990102051MD1290029+9990REMSYN04801009 46/// /0709 11106 2//// 30205 40212 54003=EQDQ01.3    3APC3  
0108010090999992014010416004+80650+025000FM-12+000599999V0200601N008019999999N999999999-01071+99999102121ADDMA1999990102051MD1290029+9990REMSYN04801009 46/// /0608 11107 2//// 30205 40212 54002=EQDQ01.2    3APC3  
0108010090999992014010417004+80650+025000FM-12+000599999V0200501N009019999999N999999999-01101+99999102131ADDMA1999990102061MD1290019+9990REMSYN04801009 46/// /0509 11110 2//// 30206 40213 54001=EQDQ01.1    3APC3  
0151010090999992014010418004+80650+025000FM-12+000599999V0200601N008019999999N999999999-01131+99999102151ADDKA1120M-00961MA1999990102081MD1290039+9990OD139901201999REMSYN06401009 46/// /0608 11113 2//// 30208 40215 54003 333 11096 91112=EQDQ01.3    3APC3  
0089010090999992014010419004+80650+025000FM-12+000599999V0200601N007019999999N999999999-01121+99999102161ADDMA1999990102091MD1210031+9990REMSYN04801009 46/// /0607 11112 2//// 30209 40216 52003=
0089010090999992014010420004+80650+025000FM-12+000599999V0200601N008019999999N999999999-01161+99999102181ADDMA1999990102101MD1210041+9990REMSYN04801009 46/// /0608 11116 2//// 30210 40218 52004=
0108010090999992014010421004+80650+025000FM-12+000599999V0200801N007019999999N999999999-01191+99999102181ADDMA1999990102101MD1290039+9990REMSYN04801009 46/// /0807 11119 2//// 30210 40218 54002=EQDQ01.2    3APC3  
0089010090999992014010422004+80650+025000FM-12+000599999V0200701N009019999999N999999999-01281+99999102231ADDMA1999990102161MD1110071+9990REMSYN04801009 46/// /0709 11128 2//// 30216 40223 51007=
0089010090999992014010423004+80650+025000FM-12+000599999V0200701N008019999999N999999999-01271+99999102251ADDMA1999990102171MD1210071+9990REMSYN04801009 46/// /0708 11127 2//// 30217 40225 52007=
0113010090999992014010500004+80650+025000FM-12+000599999V0200701N009019999999N999999999-01241+99999102241ADDMA1999990102171MD1310061+9990OD139901401999REMSYN05801009 46/// /0709 11124 2//// 30217 40224 53006 333 91114=
0108010090999992014010501004+80650+025000FM-12+000599999V0200801N009019999999N999999999-01251+99999102241ADDMA1999990102171MD1290019+9990REMSYN04801009 46/// /0809 11125 2//// 30217 40224 54001=EQDQ01.1    3APC3  
0108010090999992014010502004+80650+025000FM-12+000599999V0200701N008019999999N999999999-01191+99999102241ADDMA1999990102171MD1790019+9990REMSYN04801009 46/// /0708 11119 2//// 30217 40224 54001=EQDQ01.1    3APC3  
0089010090999992014010503004+80650+025000FM-12+000599999V0200701N009019999999N999999999-01221+99999102241ADDMA1999990102161MD1410001+9990REMSYN04801009 46/// /0709 11122 2//// 30216 40224 54000=
0108010090999992014010504004+80650+025000FM-12+000599999V0200801N008019999999N999999999-01191+99999102211ADDMA1999990102141MD1790039+9990REMSYN04801009 46/// /0808 11119 2//// 30214 40221 54003=EQDQ01.3    3APC3  
0108010090999992014010505004+80650+025000FM-12+000599999V0200801N009019999999N999999999-01141+99999102211ADDMA1999990102141MD1790039+9990REMSYN04801009 46/// /0809 11114 2//// 30214 40221 54003=EQDQ01.3    3APC3  
0132010090999992014010506004+80650+025000FM-12+000599999V0200901N008019999999N999999999-01181+99999102231ADDKA1240N-01311MA1999990102161MD1900001+9990OD139901301999REMSYN06401009 46/// /0908 11118 2//// 30216 40223 50000 333 21131 91113=
0089010090999992014010507004+80650+025000FM-12+000599999V0200801N008019999999N999999999-01211+99999102271ADDMA1999990102201MD1110061+9990REMSYN04801009 46/// /0808 11121 2//// 30220 40227 51006=
0089010090999992014010508004+80650+025000FM-12+000599999V0200801N008019999999N999999999-01221+99999102301ADDMA1999990102231MD1210091+9990REMSYN04801009 46/// /0808 11122 2//// 30223 40230 52009=
0089010090999992014010509004+80650+025000FM-12+000599999V0200801N007019999999N999999999-01221+99999102331ADDMA1999990102261MD1210101+9990REMSYN04801009 46/// /0807 11122 2//// 30226 40233 52010=
0089010090999992014010510004+80650+025000FM-12+000599999V0200801N007019999999N999999999-01241+99999102351ADDMA1999990102281MD1210081+9990REMSYN04801009 46/// /0807 11124 2//// 30228 40235 52008=
0089010090999992014010511004+80650+025000FM-12+000599999V0200801N007019999999N999999999-01261+99999102351ADDMA1999990102281MD1310051+9990REMSYN04801009 46/// /0807 11126 2//// 30228 40235 53005=
0132010090999992014010512004+80650+025000FM-12+000599999V0200801N006019999999N999999999-01281+99999102361ADDMA1999990102281MD1290039+9990OD139901001999REMSYN05801009 46/// /0806 11128 2//// 30228 40236 54002 333 91110=EQDQ01.2    3APC3  
0108010090999992014010513004+80650+025000FM-12+000599999V0200901N006019999999N999999999-01291+99999102371ADDMA1999990102291MD1290029+9990REMSYN04801009 46/// /0906 11129 2//// 30229 40237 54001=EQDQ01.1    3APC3  
0089010090999992014010514004+80650+025000FM-12+000599999V0201101N005019999999N999999999-01341+99999102391ADDMA1999990102311MD1210031+9990REMSYN04801009 46/// /1105 11134 2//// 30231 40239 52003=
0108010090999992014010515004+80650+025000FM-12+000599999V0201001N005019999999N999999999-01321+99999102371ADDMA1999990102301MD1290019+9990REMSYN04801009 46/// /1005 11132 2//// 30230 40237 54002=EQDQ01.2    3APC3  
0108010090999992014010516004+80650+025000FM-12+000599999V0200501N005019999999N999999999-01391+99999102371ADDMA1999990102301MD1410009+9990REMSYN04801009 46/// /0505 11139 2//// 30230 40237 54001=EQDQ01.1    3APC3  
0089010090999992014010517004+80650+025000FM-12+000599999V0200601N004019999999N999999999-01401+99999102391ADDMA1999990102321MD1900011+9990REMSYN04801009 46/// /0604 11140 2//// 30232 40239 50001=
0151010090999992014010518004+80650+025000FM-12+000599999V0200601N004019999999N999999999-01411+99999102401ADDKA1120M-01161MA1999990102331MD1290039+9990OD139900901999REMSYN06401009 46/// /0604 11141 2//// 30233 40240 54003 333 11116 91109=EQDQ01.3    3APC3  
0108010090999992014010519004+80650+025000FM-12+000599999V0200601N003019999999N999999999-01451+99999102401ADDMA1999990102321MD1290039+9990REMSYN04801009 46/// /0603 11145 2//// 30232 40240 54002=EQDQ01.2    3APC3  
0108010090999992014010520004+80650+025000FM-12+000599999V0201001N003019999999N999999999-01481+99999102411ADDMA1999990102341MD1290029+9990REMSYN04801009 46/// /1003 11148 2//// 30234 40241 54002=EQDQ01.2    3APC3  
0108010090999992014010521004+80650+025000FM-12+000599999V0201101N004019999999N999999999-01471+99999102431ADDMA1999990102351MD1290039+9990REMSYN04801009 46/// /1104 11147 2//// 30235 40243 54003=EQDQ01.3    3APC3  
0089010090999992014010522004+80650+025000FM-12+000599999V0201101N004019999999N999999999-01471+99999102431ADDMA1999990102361MD1210041+9990REMSYN04801009 46/// /1104 11147 2//// 30236 40243 52004=
0089010090999992014010523004+80650+025000FM-12+000599999V0201101N004019999999N999999999-01461+99999102441ADDMA1999990102371MD1210031+9990REMSYN04801009 46/// /1104 11146 2//// 30237 40244 52003=
0113010090999992014010600004+80650+025000FM-12+000599999V0201201N004019999999N999999999-01461+99999102461ADDMA1999990102381MD1210031+9990OD139900901999REMSYN05801009 46/// /1204 11146 2//// 30238 40246 52003 333 91109=
0108010090999992014010601004+80650+025000FM-12+000599999V0201101N006019999999N999999999-01491+99999102451ADDMA1999990102371MD1290029+9990REMSYN04801009 46/// /1106 11149 2//// 30237 40245 54002=EQDQ01.2    3APC3  
0089010090999992014010602004+80650+025000FM-12+000599999V0200901N006019999999N999999999-01481+99999102441ADDMA1999990102371MD1410001+9990REMSYN04801009 46/// /0906 11148 2//// 30237 40244 54000=
0108010090999992014010603004+80650+025000FM-12+000599999V0201101N007019999999N999999999-01451+99999102431ADDMA1999990102361MD1790039+9990REMSYN04801009 46/// /1107 11145 2//// 30236 40243 54003=EQDQ01.3    3APC3  
0089010090999992014010604004+80650+025000FM-12+000599999V0201001N008019999999N999999999-01421+99999102411ADDMA1999990102341MD1710031+9990REMSYN04801009 46/// /1008 11142 2//// 30234 40241 57003=
0108010090999992014010605004+80650+025000FM-12+000599999V0200901N007019999999N999999999-01451+99999102421ADDMA1999990102351MD1790029+9990REMSYN04801009 46/// /0907 11145 2//// 30235 40242 54002=EQDQ01.2    3APC3  
0132010090999992014010606004+80650+025000FM-12+000599999V0201001N007019999999N999999999-01491+99999102441ADDKA1240N-01511MA1999990102361MD1900011+9990OD139901001999REMSYN06401009 46/// /1007 11149 2//// 30236 40244 50001 333 21151 91110=
0089010090999992014010607004+80650+025000FM-12+000599999V0201001N006019999999N999999999-01531+99999102481ADDMA1999990102401MD1210061+9990REMSYN04801009 46/// /1006 11153 2//// 30240 40248 52006=
0089010090999992014010608004+80650+025000FM-12+000599999V0200901N007019999999N999999999-01521+99999102461ADDMA1999990102391MD1310041+9990REMSYN04801009 46/// /0907 11152 2//// 30239 40246 53004=
0089010090999992014010609004+80650+025000FM-12+000599999V0201101N008019999999N999999999-01541+99999102471ADDMA1999990102391MD1510031+9990REMSYN04801009 46/// /1108 11154 2//// 30239 40247 55003=
0089010090999992014010610004+80650+025000FM-12+000599999V0201001N008019999999N999999999-01551+99999102481ADDMA1999990102411MD1900001+9990REMSYN04801009 46/// /1008 11155 2//// 30241 40248 50000=
0108010090999992014010611004+80650+025000FM-12+000599999V0201101N009019999999N999999999-01551+99999102481ADDMA1999990102411MD1290029+9990REMSYN04801009 46/// /1109 11155 2//// 30241 40248 54002=EQDQ01.2    3APC3  
0132010090999992014010612004+80650+025000FM-12+000599999V0201101N010019999999N999999999-01541+99999102471ADDMA1999990102401MD1410009+9990OD139901301999REMSYN05801009 46/// /1110 11154 2//// 30240 40247 54001 333 91113=EQDQ01.1    3APC3  
0108010090999992014010613004+80650+025000FM-12+000599999V0201101N009019999999N999999999-01591+99999102501ADDMA1999990102431MD1290029+9990REMSYN04801009 46/// /1109 11159 2//// 30243 40250 54002=EQDQ01.2    3APC3  
0108010090999992014010614004+80650+025000FM-12+000599999V0201001N009019999999N999999999-01581+99999102501ADDMA1999990102421MD1290029+9990REMSYN04801009 46/// /1009 11158 2//// 30242 40250 54002=EQDQ01.2    3APC3  
0108010090999992014010615004+80650+025000FM-12+000599999V0201101N009019999999N999999999-01581+99999102501ADDMA1999990102431MD1290039+9990REMSYN04801009 46/// /1109 11158 2//// 30243 40250 54003=EQDQ01.3    3APC3  
0108010090999992014010616004+80650+025000FM-12+000599999V0201101N008019999999N999999999-01531+99999102481ADDMA1999990102411MD1790029+9990REMSYN04801009 46/// /1108 11153 2//// 30241 40248 54002=EQDQ01.2    3APC3  
0108010090999992014010617004+80650+025000FM-12+000599999V0201101N009019999999N999999999-01561+99999102491ADDMA1999990102411MD1790019+9990REMSYN04801009 46/// /1109 11156 2//// 30241 40249 54001=EQDQ01.1    3APC3  
0132010090999992014010618004+80650+025000FM-12+000599999V0201101N009019999999N999999999-01511+99999102471ADDKA1120M-01471MA1999990102401MD1710031+9990OD139901201999REMSYN06401009 46/// /1109 11151 2//// 30240 40247 57003 333 11147 91112=
0108010090999992014010619004+80650+025000FM-12+000599999V0201201N010019999999N999999999-01531+99999102481ADDMA1999990102401MD1410009+9990REMSYN04801009 46/// /1210 11153 2//// 30240 40248 54001=EQDQ01.1    3APC3  
0089010090999992014010620004+80650+025000FM-12+000599999V0201201N009019999999N999999999-01531+99999102491ADDMA1999990102421MD1900001+9990REMSYN04801009 46/// /1209 11153 2//// 30242 40249 50000=
0108010090999992014010621004+80650+025000FM-12+000599999V0201201N010019999999N999999999-01531+99999102491ADDMA1999990102411MD1290029+9990REMSYN04801009 46/// /1210 11153 2//// 30241 40249 54001=EQDQ01.1    3APC3  
0108010090999992014010622004+80650+025000FM-12+000599999V0201201N011019999999N999999999-01551+99999102491ADDMA1999990102411MD1290019+9990REMSYN04801009 46/// /1211 11155 2//// 30241 40249 54001=EQDQ01.1    3APC3  
0089010090999992014010623004+80650+025000FM-12+000599999V0201201N011019999999N999999999-01501+99999102501ADDMA1999990102421MD1410001+9990REMSYN04801009 46/// /1211 11150 2//// 30242 40250 54000=
0132010090999992014010700004+80650+025000FM-12+000599999V0201201N012019999999N999999999-01541+99999102491ADDMA1999990102421MD1410009+9990OD139901401999REMSYN05801009 46/// /1212 11154 2//// 30242 40249 54001 333 91114=EQDQ01.1    3APC3  
0108010090999992014010701004+80650+025000FM-12+000599999V0201201N011019999999N999999999-01551+99999102511ADDMA1999990102441MD1290029+9990REMSYN04801009 46/// /1211 11155 2//// 30244 40251 54003=EQDQ01.3    3APC3  
0108010090999992014010702004+80650+025000FM-12+000599999V0201201N012019999999N999999999-01581+99999102511ADDMA1999990102431MD1290019+9990REMSYN04801009 46/// /1212 11158 2//// 30243 40251 54001=EQDQ01.1    3APC3  
0089010090999992014010703004+80650+025000FM-12+000599999V0201201N012019999999N999999999-01541+99999102491ADDMA1999990102421MD1510001+9990REMSYN04801009 46/// /1212 11154 2//// 30242 40249 55000=
0108010090999992014010704004+80650+025000FM-12+000599999V0201201N012019999999N999999999-01561+99999102491ADDMA1999990102421MD1790029+9990REMSYN04801009 46/// /1212 11156 2//// 30242 40249 54002=EQDQ01.2    3APC3  
0108010090999992014010705004+80650+025000FM-12+000599999V0201201N011019999999N999999999-01501+99999102491ADDMA1999990102421MD1790029+9990REMSYN04801009 46/// /1211 11150 2//// 30242 40249 54002=EQDQ01.2    3APC3  
0151010090999992014010706004+80650+025000FM-12+000599999V0201101N012019999999N999999999-01511+99999102481ADDKA1240N-01601MA1999990102411MD1790019+9990OD139901401999REMSYN06401009 46/// /1112 11151 2//// 30241 40248 54001 333 21160 91114=EQDQ01.1    3APC3  
0089010090999992014010707004+80650+025000FM-12+000599999V0201201N012019999999N999999999-01481+99999102521ADDMA1999990102441MD1900031+9990REMSYN04801009 46/// /1212 11148 2//// 30244 40252 50003=
0089010090999992014010708004+80650+025000FM-12+000599999V0201301N012019999999N999999999-01501+99999102541ADDMA1999990102471MD1110051+9990REMSYN04801009 46/// /1312 11150 2//// 30247 40254 51005=
0089010090999992014010709004+80650+025000FM-12+000599999V0201201N012019999999N999999999-01471+99999102551ADDMA1999990102471MD1210071+9990REMSYN04801009 46/// /1212 11147 2//// 30247 40255 52007=
0089010090999992014010710004+80650+025000FM-12+000599999V0201301N012019999999N999999999-01471+99999102601ADDMA1999990102521MD1210081+9990REMSYN04801009 46/// /1312 11147 2//// 30252 40260 52008=
0089010090999992014010711004+80650+025000FM-12+000599999V0201201N012019999999N999999999-01431+99999102631ADDMA1999990102561MD1210091+9990REMSYN04801009 46/// /1212 11143 2//// 30256 40263 52009=
0113010090999992014010712004+80650+025000FM-12+000599999V0201201N012019999999N999999999-01431+99999102631ADDMA1999990102551MD1310081+9990OD139901401999REMSYN05801009 46/// /1212 11143 2//// 30255 40263 53008 333 91114=
0089010090999992014010713004+80650+025000FM-12+000599999V0201301N012019999999N999999999-01481+99999102641ADDMA1999990102571MD1210041+9990REMSYN04801009 46/// /1312 11148 2//// 30257 40264 52004=
0108010090999992014010714004+80650+025000FM-12+000599999V0201201N012019999999N999999999-01461+99999102641ADDMA1999990102561MD1290019+9990REMSYN04801009 46/// /1212 11146 2//// 30256 40264 54001=EQDQ01.1    3APC3  
0108010090999992014010715004+80650+025000FM-12+000599999V0201101N012019999999N999999999-01461+99999102651ADDMA1999990102581MD1290029+9990REMSYN04801009 46/// /1112 11146 2//// 30258 40265 54003=EQDQ01.3    3APC3  
0108010090999992014010716004+80650+025000FM-12+000599999V0201101N012019999999N999999999-01491+99999102651ADDMA1999990102581MD1290019+9990REMSYN04801009 46/// /1112 11149 2//// 30258 40265 54001=EQDQ01.1    3APC3  
0108010090999992014010717004+80650+025000FM-12+000599999V0201101N012019999999N999999999-01421+99999102661ADDMA1999990102591MD1290029+9990REMSYN04801009 46/// /1112 11142 2//// 30259 40266 54002=EQDQ01.2    3APC3  
0151010090999992014010718004+80650+025000FM-12+000599999V0201201N011019999999N999999999-01391+99999102671ADDKA1120M-01361MA1999990102591MD1290029+9990OD139901501999REMSYN06401009 46/// /1211 11139 2//// 30259 40267 54001 333 11136 91115=EQDQ01.1    3APC3  
0108010090999992014010719004+80650+025000FM-12+000599999V0201201N012019999999N999999999-01411+99999102661ADDMA1999990102591MD1290019+9990REMSYN04801009 46/// /1212 11141 2//// 30259 40266 54001=EQDQ01.1    3APC3  
0108010090999992014010720004+80650+025000FM-12+000599999V0201201N012019999999N999999999-01391+99999102681ADDMA1999990102601MD1290029+9990REMSYN04801009 46/// /1212 11139 2//// 30260 40268 54002=EQDQ01.2    3APC3  
0108010090999992014010721004+80650+025000FM-12+000599999V0201301N012019999999N999999999-01381+99999102681ADDMA1999990102601MD1290019+9990REMSYN04801009 46/// /1312 11138 2//// 30260 40268 54001=EQDQ01.1    3APC3  
0108010090999992014010722004+80650+025000FM-12+000599999V0201301N012019999999N999999999-01391+99999102671ADDMA1999990102601MD1290019+9990REMSYN04801009 46/// /1312 11139 2//// 30260 40267 54001=EQDQ01.1    3APC3  
0108010090999992014010723004+80650+025000FM-12+000599999V0201301N012019999999N999999999-01341+99999102691ADDMA1999990102621MD1290019+9990REMSYN04801009 46/// /1312 11134 2//// 30262 40269 54001=EQDQ01.1    3APC3  
0113010090999992014010800004+80650+025000FM-12+000599999V0201301N014019999999N999999999-01271+99999102631ADDMA1999990102551MD1610051+9990OD139901501999REMSYN05801009 46/// /1314 11127 2//// 30255 40263 56005 333 91115=
0108010090999992014010801004+80650+025000FM-12+000599999V0201401N014019999999N999999999-01211+99999102661ADDMA1999990102591MD1790019+9990REMSYN04801009 46/// /1414 11121 2//// 30259 40266 54001=EQDQ01.1    3APC3  
0089010090999992014010802004+80650+025000FM-12+000599999V0201301N013019999999N999999999-01141+99999102641ADDMA1999990102571MD1810051+9990REMSYN04801009 46/// /1313 11114 2//// 30257 40264 58005=
0108010090999992014010803004+80650+025000FM-12+000599999V0201401N013019999999N999999999-01151+99999102651ADDMA1999990102581MD1290029+9990REMSYN04801009 46/// /1413 11115 2//// 30258 40265 54002=EQDQ01.2    3APC3  
0108010090999992014010804004+80650+025000FM-12+000599999V0201401N013019999999N999999999-01111+99999102651ADDMA1999990102571MD1790019+9990REMSYN04801009 46/// /1413 11111 2//// 30257 40265 54001=EQDQ01.1    3APC3  
0089010090999992014010805004+80650+025000FM-12+000599999V0201501N012019999999N999999999-01151+99999102671ADDMA1999990102601MD1210031+9990REMSYN04801009 46/// /1512 11115 2//// 30260 40267 52003=
0132010090999992014010806004+80650+025000FM-12+000599999V0201401N012019999999N999999999-01181+99999102651ADDKA1240N-01461MA1999990102581MD1410001+9990OD139901601999REMSYN06401009 46/// /1412 11118 2//// 30258 40265 54000 333 21146 91116=
0089010090999992014010807004+80650+025000FM-12+000599999V0201401N012019999999N999999999-01181+99999102641ADDMA1999990102561MD1510011+9990REMSYN04801009 46/// /1412 11118 2//// 30256 40264 55001=
0089010090999992014010808004+80650+025000FM-12+000599999V0201401N012019999999N999999999-01241+99999102651ADDMA1999990102571MD1900021+9990REMSYN04801009 46/// /1412 11124 2//// 30257 40265 50002=
0108010090999992014010809004+80650+025000FM-12+000599999V0201401N012019999999N999999999-01211+99999102631ADDMA1999990102561MD1790029+9990REMSYN04801009 46/// /1412 11121 2//// 30256 40263 54002=EQDQ01.2    3APC3  
0108010090999992014010810004+80650+025000FM-12+000599999V0201401N012019999999N999999999-01211+99999102621ADDMA1999990102551MD1790029+9990REMSYN04801009 46/// /1412 11121 2//// 30255 40262 54001=EQDQ01.1    3APC3  
0089010090999992014010811004+80650+025000FM-12+000599999V0201301N012019999999N999999999-01171+99999102571ADDMA1999990102501MD1610081+9990REMSYN04801009 46/// /1312 11117 2//// 30250 40257 56008=
0113010090999992014010812004+80650+025000FM-12+000599999V0201301N012019999999N999999999-01191+99999102541ADDMA1999990102471MD1710091+9990OD139901501999REMSYN05801009 46/// /1312 11119 2//// 30247 40254 57009 333 91115=
0089010090999992014010813004+80650+025000FM-12+000599999V0201301N012019999999N999999999-01181+99999102531ADDMA1999990102461MD1810091+9990REMSYN04801009 46/// /1312 11118 2//// 30246 40253 58009=
0089010090999992014010814004+80650+025000FM-12+000599999V0201401N012019999999N999999999-01181+99999102501ADDMA1999990102431MD1710071+9990REMSYN04801009 46/// /1412 11118 2//// 30243 40250 57007=
0089010090999992014010815004+80650+025000FM-12+000599999V0201501N009019999999N999999999-01161+99999102451ADDMA1999990102381MD1610091+9990REMSYN04801009 46/// /1509 11116 2//// 30238 40245 56009=
0089010090999992014010816004+80650+025000FM-12+000599999V0201501N010019999999N999999999-01121+99999102321ADDMA1999990102251MD1610211+9990REMSYN04801009 46/// /1510 11112 2//// 30225 40232 56021=
0089010090999992014010817004+80650+025000FM-12+000599999V0201601N008019999999N999999999-01101+99999102341ADDMA1999990102271MD1810161+9990REMSYN04801009 46/// /1608 11110 2//// 30227 40234 58016=
0132010090999992014010818004+80650+025000FM-12+000599999V0201501N007019999999N999999999-01041+99999102301ADDKA1120M-01041MA1999990102221MD1810161+9990OD139901401999REMSYN06401009 46/// /1507 11104 2//// 30222 40230 58016 333 11104 91114=
0089010090999992014010819004+80650+025000FM-12+000599999V0201501N006019999999N999999999-01041+99999102281ADDMA1999990102211MD1610041+9990REMSYN04801009 46/// /1506 11104 2//// 30221 40228 56004=
0089010090999992014010820004+80650+025000FM-12+000599999V0201701N007019999999N999999999-01061+99999102211ADDMA1999990102141MD1710131+9990REMSYN04801009 46/// /1707 11106 2//// 30214 40221 57013=
0089010090999992014010821004+80650+025000FM-12+000599999V0201901N006019999999N999999999-01071+99999102191ADDMA1999990102121MD1710101+9990REMSYN04801009 46/// /1906 11107 2//// 30212 40219 57010=
0089010090999992014010822004+80650+025000FM-12+000599999V0201601N007019999999N999999999-00991+99999102131ADDMA1999990102051MD1710151+9990REMSYN04801009 46/// /1607 11099 2//// 30205 40213 57015=
0089010090999992014010823004+80650+025000FM-12+000599999V0201601N007019999999N999999999-01041+99999102121ADDMA1999990102041MD1710101+9990REMSYN04801009 46/// /1607 11104 2//// 30204 40212 57010=
0113010090999992014010900004+80650+025000FM-12+000599999V0201701N006019999999N999999999-01021+99999102091ADDMA1999990102011MD1810111+9990OD139900901999REMSYN05801009 46/// /1706 11102 2//// 30201 40209 58011 333 91109=
0089010090999992014010901004+80650+025000FM-12+000599999V0201601N004019999999N999999999-01001+99999102061ADDMA1999990101991MD1710061+9990REMSYN04801009 46/// /1604 11100 2//// 30199 40206 57006=
0089010090999992014010902004+80650+025000FM-12+000599999V0201701N003019999999N999999999-00981+99999101991ADDMA1999990101921MD1610131+9990REMSYN04801009 46/// /1703 11098 2//// 30192 40199 56013=
0089010090999992014010903004+80650+025000FM-12+000599999V0201601N004019999999N999999999-00921+99999101931ADDMA1999990101861MD1610151+9990REMSYN04801009 46/// /1604 11092 2//// 30186 40193 56015=
0089010090999992014010904004+80650+025000FM-12+000599999V0201701N004019999999N999999999-00911+99999101841ADDMA1999990101771MD1710221+9990REMSYN04801009 46/// /1704 11091 2//// 30177 40184 57022=
0089010090999992014010905004+80650+025000FM-12+000599999V0201801N003019999999N999999999-00881+99999101851ADDMA1999990101781MD1810141+9990REMSYN04801009 46/// /1803 11088 2//// 30178 40185 58014=
0132010090999992014010906004+80650+025000FM-12+000599999V0201701N003019999999N999999999-00821+99999101801ADDKA1240N-01131MA1999990101731MD1810131+9990OD139900701999REMSYN06401009 46/// /1703 11082 2//// 30173 40180 58013 333 21113 91107=
0089010090999992014010907004+80650+025000FM-12+000599999V0201601N003019999999N999999999-00801+99999101781ADDMA1999990101711MD1610061+9990REMSYN04801009 46/// /1603 11080 2//// 30171 40178 56006=
0089010090999992014010908004+80650+025000FM-12+000599999V0201701N005019999999N999999999-00781+99999101691ADDMA1999990101621MD1610161+9990REMSYN04801009 46/// /1705 11078 2//// 30162 40169 56016=
0089010090999992014010909004+80650+025000FM-12+000599999V0201701N004019999999N999999999-00771+99999101671ADDMA1999990101601MD1710131+9990REMSYN04801009 46/// /1704 11077 2//// 30160 40167 57013=
0089010090999992014010910004+80650+025000FM-12+000599999V0202001N003019999999N999999999-00741+99999101671ADDMA1999990101601MD1810111+9990REMSYN04801009 46/// /2003 11074 2//// 30160 40167 58011=
0089010090999992014010911004+80650+025000FM-12+000599999V0202101N007019999999N999999999-00671+99999101621ADDMA1999990101551MD1610071+9990REMSYN04801009 46/// /2107 11067 2//// 30155 40162 56007=
0113010090999992014010912004+80650+025000FM-12+000599999V0202001N007019999999N999999999-00651+99999101561ADDMA1999990101491MD1610111+9990OD139900901999REMSYN05801009 46/// /2007 11065 2//// 30149 40156 56011 333 91109=
0089010090999992014010913004+80650+025000FM-12+000599999V0201601N007019999999N999999999-00621+99999101471ADDMA1999990101401MD1610201+9990REMSYN04801009 46/// /1607 11062 2//// 30140 40147 56020=
0089010090999992014010914004+80650+025000FM-12+000599999V0201801N006019999999N999999999-00641+99999101371ADDMA1999990101301MD1610251+9990REMSYN04801009 46/// /1806 11064 2//// 30130 40137 56025=
0089010090999992014010915004+80650+025000FM-12+000599999V0202001N005019999999N999999999-00601+99999101301ADDMA1999990101231MD1710261+9990REMSYN04801009 46/// /2005 11060 2//// 30123 40130 57026=
0089010090999992014010916004+80650+025000FM-12+000599999V0202101N008019999999N999999999-00531+99999101281ADDMA1999990101211MD1810191+9990REMSYN04801009 46/// /2108 11053 2//// 30121 40128 58019=
0089010090999992014010917004+80650+025000FM-12+000599999V0202101N009019999999N999999999-00511+99999101241ADDMA1999990101161MD1710141+9990REMSYN04801009 46/// /2109 11051 2//// 30116 40124 57014=
0132010090999992014010918004+80650+025000FM-12+000599999V0201901N008019999999N999999999-00491+99999101051ADDKA1120M-00471MA1999990100981MD1610251+9990OD139901001999REMSYN06401009 46/// /1908 11049 2//// 30098 40105 56025 333 11047 91110=
0089010090999992014010919004+80650+025000FM-12+000599999V0202001N007019999999N999999999-00441+99999100991ADDMA1999990100921MD1710291+9990REMSYN04801009 46/// /2007 11044 2//// 30092 40099 57029=
0089010090999992014010920004+80650+025000FM-12+000599999V0202101N008019999999N999999999-00341+99999100961ADDMA1999990100891MD1810271+9990REMSYN04801009 46/// /2108 11034 2//// 30089 40096 58027=
0089010090999992014010921004+80650+025000FM-12+000599999V0202201N009019999999N999999999-00321+99999100931ADDMA1999990100861MD1710121+9990REMSYN04801009 46/// /2209 11032 2//// 30086 40093 57012=
0089010090999992014010922004+80650+025000FM-12+000599999V0202201N011019999999N999999999-00341+99999100861ADDMA1999990100791MD1610141+9990REMSYN04801009 46/// /2211 11034 2//// 30079 40086 56014=
0089010090999992014010923004+80650+025000FM-12+000599999V0202101N009019999999N999999999-00321+99999100811ADDMA1999990100741MD1710151+9990REMSYN04801009 46/// /2109 11032 2//// 30074 40081 57015=
0113010090999992014011000004+80650+025000FM-12+000599999V0202101N011019999999N999999999-00331+99999100701ADDMA1999990100631MD1610231+9990OD139901301999REMSYN05801009 46/// /2111 11033 2//// 30063 40070 56023 333 91113=
0089010090999992014011001004+80650+025000FM-12+000599999V0202201N009019999999N999999999-00321+99999100651ADDMA1999990100581MD1710201+9990REMSYN04801009 46/// /2209 11032 2//// 30058 40065 57020=
0089010090999992014011002004+80650+025000FM-12+000599999V0202101N009019999999N999999999-00261+99999100601ADDMA1999990100531MD1810211+9990REMSYN04801009 46/// /2109 11026 2//// 30053 40060 58021=
0089010090999992014011003004+80650+025000FM-12+000599999V0202101N008019999999N999999999-00241+99999100541ADDMA1999990100471MD1710151+9990REMSYN04801009 46/// /2108 11024 2//// 30047 40054 57015=
0089010090999992014011004004+80650+025000FM-12+000599999V0202201N009019999999N999999999-00231+99999100521ADDMA1999990100451MD1810131+9990REMSYN04801009 46/// /2209 11023 2//// 30045 40052 58013=
0089010090999992014011005004+80650+025000FM-12+000599999V0202201N009019999999N999999999-00221+99999100491ADDMA1999990100421MD1710111+9990REMSYN04801009 46/// /2209 11022 2//// 30042 40049 57011=
0132010090999992014011006004+80650+025000FM-12+000599999V0202201N008019999999N999999999-00231+99999100501ADDKA1240N-00501MA1999990100431MD1710041+9990OD139901201999REMSYN06401009 46/// /2208 11023 2//// 30043 40050 57004 333 21050 91112=
0089010090999992014011007004+80650+025000FM-12+000599999V0202201N007019999999N999999999-00211+99999100511ADDMA1999990100441MD1900021+9990REMSYN04801009 46/// /2207 11021 2//// 30044 40051 50002=
0089010090999992014011008004+80650+025000FM-12+000599999V0202101N005019999999N999999999-00231+99999100541ADDMA1999990100471MD1210051+9990REMSYN04801009 46/// /2105 11023 2//// 30047 40054 52005=
0089010090999992014011009004+80650+025000FM-12+000599999V0202101N005019999999N999999999-00211+99999100561ADDMA1999990100491MD1210061+9990REMSYN04801009 46/// /2105 11021 2//// 30049 40056 52006=
0089010090999992014011010004+80650+025000FM-12+000599999V0202001N005019999999N999999999-00231+99999100551ADDMA1999990100481MD1310041+9990REMSYN04801009 46/// /2005 11023 2//// 30048 40055 53004=
0089010090999992014011011004+80650+025000FM-12+000599999V0201701N004019999999N999999999-00291+99999100581ADDMA1999990100511MD1210041+9990REMSYN04801009 46/// /1704 11029 2//// 30051 40058 52004=
0113010090999992014011012004+80650+025000FM-12+000599999V0201801N002019999999N999999999-00291+99999100601ADDMA1999990100531MD1210041+9990OD139901001999REMSYN05801009 46/// /1802 11029 2//// 30053 40060 52004 333 91110=
0089010090999992014011013004+80650+025000FM-12+000599999V0201501N004019999999N999999999-00231+99999100571ADDMA1999990100501MD1510021+9990REMSYN04801009 46/// /1504 11023 2//// 30050 40057 55002=
0108010090999992014011014004+80650+025000FM-12+000599999V0201401N004019999999N999999999-00251+99999100601ADDMA1999990100531MD1290029+9990REMSYN04801009 46/// /1404 11025 2//// 30053 40060 54002=EQDQ01.2    3APC3  
0089010090999992014011015004+80650+025000FM-12+000599999V0201201N003019999999N999999999-00251+99999100611ADDMA1999990100541MD1900011+9990REMSYN04801009 46/// /1203 11025 2//// 30054 40061 50001=
0089010090999992014011016004+80650+025000FM-12+000599999V0201201N004019999999N999999999-00261+99999100601ADDMA1999990100541MD1310041+9990REMSYN04801009 46/// /1204 11026 2//// 30054 40060 53004=
0108010090999992014011017004+80650+025000FM-12+000599999V0201401N004019999999N999999999-00281+99999100591ADDMA1999990100521MD1790019+9990REMSYN04801009 46/// /1404 11028 2//// 30052 40059 54002=EQDQ01.2    3APC3  
0132010090999992014011018004+80650+025000FM-12+000599999V0201701N002019999999N999999999-00341+99999100621ADDKA1120M-00191MA1999990100551MD1900001+9990OD139900501999REMSYN06401009 46/// /1702 11034 2//// 30055 40062 50000 333 11019 91105=
0089010090999992014011019004+80650+025000FM-12+000599999V0201501N001019999999N999999999-00331+99999100651ADDMA1999990100581MD1110041+9990REMSYN04801009 46/// /1501 11033 2//// 30058 40065 51004=
0089010090999992014011020004+80650+025000FM-12+000599999V0201201N004019999999N999999999-00361+99999100631ADDMA1999990100561MD1310041+9990REMSYN04801009 46/// /1204 11036 2//// 30056 40063 53004=
0108010090999992014011021004+80650+025000FM-12+000599999V0201401N004019999999N999999999-00351+99999100631ADDMA1999990100561MD1290019+9990REMSYN04801009 46/// /1404 11035 2//// 30056 40063 54001=EQDQ01.1    3APC3  
0108010090999992014011022004+80650+025000FM-12+000599999V0201801N002019999999N999999999-00371+99999100641ADDMA1999990100571MD1790019+9990REMSYN04801009 46/// /1802 11037 2//// 30057 40064 54001=EQDQ01.1    3APC3  
0108010090999992014011023004+80650+025000FM-12+000599999V0201801N002019999999N999999999-00391+99999100651ADDMA1999990100581MD1290029+9990REMSYN04801009 46/// /1802 11039 2//// 30058 40065 54003=EQDQ01.3    3APC3  
0113010090999992014011100004+80650+025000FM-12+000599999V0201501N004019999999N999999999-00351+99999100621ADDMA1999990100551MD1510011+9990OD139900501999REMSYN05801009 46/// /1504 11035 2//// 30055 40062 55001 333 91105=
0108010090999992014011101004+80650+025000FM-12+000599999V0202001N003019999999N999999999-00411+99999100651ADDMA1999990100581MD1290019+9990REMSYN04801009 46/// /2003 11041 2//// 30058 40065 54001=EQDQ01.1    3APC3  
0108010090999992014011102004+80650+025000FM-12+000599999V0201901N003019999999N999999999-00401+99999100631ADDMA1999990100561MD1790029+9990REMSYN04801009 46/// /1903 11040 2//// 30056 40063 54002=EQDQ01.2    3APC3  
0089010090999992014011103004+80650+025000FM-12+000599999V0201901N003019999999N999999999-00361+99999100621ADDMA1999990100551MD1510011+9990REMSYN04801009 46/// /1903 11036 2//// 30055 40062 55001=
0089010090999992014011104004+80650+025000FM-12+000599999V0202401N003019999999N999999999-00261+99999100601ADDMA1999990100531MD1710051+9990REMSYN04801009 46/// /2403 11026 2//// 30053 40060 57005=
0108010090999992014011105004+80650+025000FM-12+000599999V0201601N003019999999N999999999-00361+99999100601ADDMA1999990100531MD1790039+9990REMSYN04801009 46/// /1603 11036 2//// 30053 40060 54003=EQDQ014     3APCTEN
0151010090999992014011106004+80650+025000FM-12+000599999V0209999C999999999999N999999999-00371+99999100591ADDKA1240N-00431MA1999990100521MD1790039+9990OD139900501999REMSYN06401009 46/// ///// 11037 2//// 30052 40059 54003 333 21043 91105=EQDQ01.3    3APC3  
0108010090999992014011107004+80650+025000FM-12+000599999V0202301N002019999999N999999999-00311+99999100611ADDMA1999990100541MD1290019+9990REMSYN04801009 46/// /2302 11031 2//// 30054 40061 54001=EQDQ01.1    3APC3  
0089010090999992014011108004+80650+025000FM-12+000599999V0202701N003019999999N999999999-00271+99999100661ADDMA1999990100591MD1110061+9990REMSYN04801009 46/// /2703 11027 2//// 30059 40066 51006=
0089010090999992014011109004+80650+025000FM-12+000599999V0202701N004019999999N999999999-00281+99999100681ADDMA1999990100611MD1210091+9990REMSYN04801009 46/// /2704 11028 2//// 30061 40068 52009=
0089010090999992014011110004+80650+025000FM-12+000599999V0202501N004019999999N999999999-00261+99999100691ADDMA1999990100621MD1310071+9990REMSYN04801009 46/// /2504 11026 2//// 30062 40069 53007=
0089010090999992014011111004+80650+025000FM-12+000599999V0202501N004019999999N999999999-00241+99999100711ADDMA1999990100641MD1210051+9990REMSYN04801009 46/// /2504 11024 2//// 30064 40071 52005=
0132010090999992014011112004+80650+025000FM-12+000599999V0202201N003019999999N999999999-00261+99999100701ADDMA1999990100631MD1290029+9990OD139900501999REMSYN05801009 46/// /2203 11026 2//// 30063 40070 54002 333 91105=EQDQ01.2    3APC3  
0089010090999992014011113004+80650+025000FM-12+000599999V0202201N005019999999N999999999-00271+99999100681ADDMA1999990100611MD1510001+9990REMSYN04801009 46/// /2205 11027 2//// 30061 40068 55000=
0108010090999992014011114004+80650+025000FM-12+000599999V0202301N006019999999N999999999-00201+99999100681ADDMA1999990100611MD1790039+9990REMSYN04801009 46/// /2306 11020 2//// 30061 40068 54002=EQDQ01.2    3APC3  
0089010090999992014011115004+80650+025000FM-12+000599999V0202201N005019999999N999999999-00221+99999100701ADDMA1999990100631MD1900011+9990REMSYN04801009 46/// /2205 11022 2//// 30063 40070 50001=
0089010090999992014011116004+80650+025000FM-12+000599999V0202201N004019999999N999999999-00211+99999100711ADDMA1999990100651MD1210031+9990REMSYN04801009 46/// /2204 11021 2//// 30065 40071 52003=
0089010090999992014011117004+80650+025000FM-12+000599999V0202001N004019999999N999999999-00241+99999100751ADDMA1999990100681MD1210061+9990REMSYN04801009 46/// /2004 11024 2//// 30068 40075 52006=
0132010090999992014011118004+80650+025000FM-12+000599999V0202101N005019999999N999999999-00231+99999100751ADDKA1120M-00171MA1999990100681MD1210041+9990OD139900701999REMSYN06401009 46/// /2105 11023 2//// 30068 40075 52004 333 11017 91107=
0089010090999992014011119004+80650+025000FM-12+000599999V0202101N004019999999N999999999-00181+99999100761ADDMA1999990100691MD1210041+9990REMSYN04801009 46/// /2104 11018 2//// 30069 40076 52004=
0108010090999992014011120004+80650+025000FM-12+000599999V0202201N006019999999N999999999-00191+99999100771ADDMA1999990100701MD1290029+9990REMSYN04801009 46/// /2206 11019 2//// 30070 40077 54002=EQDQ01.2    3APC3  
0089010090999992014011121004+80650+025000FM-12+000599999V0202201N006019999999N999999999-00171+99999100791ADDMA1999990100721MD1210051+9990REMSYN04801009 46/// /2206 11017 2//// 30072 40079 52005=
0108010090999992014011122004+80650+025000FM-12+000599999V0202201N006019999999N999999999-00161+99999100791ADDMA1999990100721MD1290039+9990REMSYN04801009 46/// /2206 11016 2//// 30072 40079 54003=EQDQ01.3    3APC3  
0089010090999992014011123004+80650+025000FM-12+000599999V0202201N006019999999N999999999-00201+99999100801ADDMA1999990100731MD1210031+9990REMSYN04801009 46/// /2206 11020 2//// 30073 40080 52003=
0132010090999992014011200004+80650+025000FM-12+000599999V0202301N008019999999N999999999-00121+99999100811ADDMA1999990100741MD1290029+9990OD139900901999REMSYN05801009 46/// /2308 11012 2//// 30074 40081 54002 333 91109=EQDQ01.2    3APC3  
0089010090999992014011201004+80650+025000FM-12+000599999V0202201N007019999999N999999999-00191+99999100841ADDMA1999990100771MD1210061+9990REMSYN04801009 46/// /2207 11019 2//// 30077 40084 52006=
0089010090999992014011202004+80650+025000FM-12+000599999V0202201N007019999999N999999999-00211+99999100861ADDMA1999990100791MD1210051+9990REMSYN04801009 46/// /2207 11021 2//// 30079 40086 52005=
0089010090999992014011203004+80650+025000FM-12+000599999V0202301N006019999999N999999999-00161+99999100881ADDMA1999990100811MD1210061+9990REMSYN04801009 46/// /2306 11016 2//// 30081 40088 52006=
0089010090999992014011204004+80650+025000FM-12+000599999V0202401N008019999999N999999999-00121+99999100871ADDMA1999990100811MD1210031+9990REMSYN04801009 46/// /2408 11012 2//// 30081 40087 52003=
0089010090999992014011205004+80650+025000FM-12+000599999V0202401N008019999999N999999999-00131+99999100901ADDMA1999990100831MD1210051+9990REMSYN04801009 46/// /2408 11013 2//// 30083 40090 52005=
0132010090999992014011206004+80650+025000FM-12+000599999V0202501N008019999999N999999999-00111+99999100941ADDKA1240N-00231MA1999990100871MD1110061+9990OD139901101999REMSYN06401009 46/// /2508 11011 2//// 30087 40094 51006 333 21023 91111=
0089010090999992014011207004+80650+025000FM-12+000599999V0202601N010019999999N999999999-00071+99999100951ADDMA1999990100881MD1210081+9990REMSYN04801009 46/// /2610 11007 2//// 30088 40095 52008=
0089010090999992014011208004+80650+025000FM-12+000599999V0202801N010019999999N999999999-00071+99999101021ADDMA1999990100951MD1210121+9990REMSYN04801009 46/// /2810 11007 2//// 30095 40102 52012=
0089010090999992014011209004+80650+025000FM-12+000599999V0202801N010019999999N999999999-00051+99999101061ADDMA1999990100991MD1110121+9990REMSYN04801009 46/// /2810 11005 2//// 30099 40106 51012=
0089010090999992014011210004+80650+025000FM-12+000599999V0202701N011019999999N999999999-00031+99999101121ADDMA1999990101051MD1210171+9990REMSYN04801009 46/// /2711 11003 2//// 30105 40112 52017=
0089010090999992014011211004+80650+025000FM-12+000599999V0202701N011019999999N999999999-00071+99999101121ADDMA1999990101051MD1310101+9990REMSYN04801009 46/// /2711 11007 2//// 30105 40112 53010=
0113010090999992014011212004+80650+025000FM-12+000599999V0202601N010019999999N999999999-00101+99999101161ADDMA1999990101101MD1210101+9990OD139901501999REMSYN05801009 46/// /2610 11010 2//// 30110 40116 52010 333 91115=
0089010090999992014011213004+80650+025000FM-12+000599999V0202501N009019999999N999999999-00101+99999101201ADDMA1999990101131MD1110081+9990REMSYN04801009 46/// /2509 11010 2//// 30113 40120 51008=
0089010090999992014011214004+80650+025000FM-12+000599999V0202601N009019999999N999999999-00081+99999101221ADDMA1999990101151MD1210101+9990REMSYN04801009 46/// /2609 11008 2//// 30115 40122 52010=
0089010090999992014011215004+80650+025000FM-12+000599999V0202701N011019999999N999999999-00071+99999101231ADDMA1999990101161MD1210071+9990REMSYN04801009 46/// /2711 11007 2//// 30116 40123 52007=
0089010090999992014011216004+80650+025000FM-12+000599999V0202701N011019999999N999999999-00061+99999101261ADDMA1999990101191MD1210061+9990REMSYN04801009 46/// /2711 11006 2//// 30119 40126 52006=
0089010090999992014011217004+80650+025000FM-12+000599999V0202601N010019999999N999999999-00071+99999101291ADDMA1999990101221MD1210071+9990REMSYN04801009 46/// /2610 11007 2//// 30122 40129 52007=
0132010090999992014011218004+80650+025000FM-12+000599999V0202601N010019999999N999999999-00081+99999101321ADDKA1120M-00031MA1999990101251MD1210091+9990OD139901401999REMSYN06401009 46/// /2610 11008 2//// 30125 40132 52009 333 11003 91114=
0089010090999992014011219004+80650+025000FM-12+000599999V0202601N009019999999N999999999-00091+99999101361ADDMA1999990101291MD1210101+9990REMSYN04801009 46/// /2609 11009 2//// 30129 40136 52010=
0089010090999992014011220004+80650+025000FM-12+000599999V0202601N009019999999N999999999-00081+99999101381ADDMA1999990101311MD1210091+9990REMSYN04801009 46/// /2609 11008 2//// 30131 40138 52009=
0089010090999992014011221004+80650+025000FM-12+000599999V0202601N010019999999N999999999-00091+99999101451ADDMA1999990101381MD1110131+9990REMSYN04801009 46/// /2610 11009 2//// 30138 40145 51013=
0089010090999992014011222004+80650+025000FM-12+000599999V0202601N012019999999N999999999-00041+99999101461ADDMA1999990101391MD1210101+9990REMSYN04801009 46/// /2612 11004 2//// 30139 40146 52010=
0089010090999992014011223004+80650+025000FM-12+000599999V0202701N012019999999N999999999-00041+99999101451ADDMA1999990101381MD1310081+9990REMSYN04801009 46/// /2712 11004 2//// 30138 40145 53008=
0113010090999992014011300004+80650+025000FM-12+000599999V0202601N011019999999N999999999-00011+99999101511ADDMA1999990101441MD1110061+9990OD139901501999REMSYN05801009 46/// /2611 11001 2//// 30144 40151 51006 333 91115=
0089010090999992014011303004+80650+025000FM-12+000599999V0202501N010019999999N999999999-00061+99999101601ADDMA1999990101531MD1210101+9990REMSYN04801009 46/// /2510 11006 2//// 30153 40160 52010=
0089010090999992014011304004+80650+025000FM-12+000599999V0202501N011019999999N999999999-00061+99999101601ADDMA1999990101531MD1310071+9990REMSYN04801009 46/// /2511 11006 2//// 30153 40160 53007=
0089010090999992014011305004+80650+025000FM-12+000599999V0202501N011019999999N999999999-00061+99999101601ADDMA1999990101531MD1510031+9990REMSYN04801009 46/// /2511 11006 2//// 30153 40160 55003=
0108010090999992014011306004+80650+025000FM-12+000599999V0202501N011019999999N999999999-00061+99999101621ADDMA1999990101551MD1290029+9990REMSYN04801009 46/// /2511 11006 2//// 30155 40162 54002=EQDQ01.2    3APC3  
0108010090999992014011307004+80650+025000FM-12+000599999V0202401N010019999999N999999999-00061+99999101611ADDMA1999990101541MD1290019+9990REMSYN04801009 46/// /2410 11006 2//// 30154 40161 54001=EQDQ01.1    3APC3  
0089010090999992014011308004+80650+025000FM-12+000599999V0202401N009019999999N999999999-00051+99999101641ADDMA1999990101571MD1210041+9990REMSYN04801009 46/// /2409 11005 2//// 30157 40164 52004=
0108010090999992014011309004+80650+025000FM-12+000599999V0202201N009019999999N999999999-00141+99999101651ADDMA1999990101581MD1290039+9990REMSYN04801009 46/// /2209 11014 2//// 30158 40165 54003=EQDQ01.3    3APC3  
0089010090999992014011310004+80650+025000FM-12+000599999V0202201N009019999999N999999999-00151+99999101621ADDMA1999990101551MD1510011+9990REMSYN04801009 46/// /2209 11015 2//// 30155 40162 55001=
0089010090999992014011311004+80650+025000FM-12+000599999V0202001N007019999999N999999999-00181+99999101601ADDMA1999990101531MD1710051+9990REMSYN04801009 46/// /2007 11018 2//// 30153 40160 57005=
0113010090999992014011312004+80650+025000FM-12+000599999V0202101N009019999999N999999999-00211+99999101571ADDMA1999990101501MD1710071+9990OD139901201999REMSYN05801009 46/// /2109 11021 2//// 30150 40157 57007 333 91112=
0089010090999992014011313004+80650+025000FM-12+000599999V0202201N010019999999N999999999-00151+99999101541ADDMA1999990101471MD1710081+9990REMSYN04801009 46/// /2210 11015 2//// 30147 40154 57008=
0089010090999992014011314004+80650+025000FM-12+000599999V0202001N009019999999N999999999-00161+99999101551ADDMA1999990101481MD1810051+9990REMSYN04801009 46/// /2009 11016 2//// 30148 40155 58005=
0089010090999992014011315004+80650+025000FM-12+000599999V0201901N009019999999N999999999-00131+99999101481ADDMA1999990101411MD1610091+9990REMSYN04801009 46/// /1909 11013 2//// 30141 40148 56009=
0089010090999992014011316004+80650+025000FM-12+000599999V0202401N010019999999N999999999-00061+99999101511ADDMA1999990101441MD1710031+9990REMSYN04801009 46/// /2410 11006 2//// 30144 40151 57003=
0089010090999992014011317004+80650+025000FM-12+000599999V0202901N015019999999N999999999-00221+99999101531ADDMA1999990101461MD1900011+9990REMSYN04801009 46/// /2915 11022 2//// 30146 40153 50001=
0132010090999992014011318004+80650+025000FM-12+000599999V0202801N014019999999N999999999-00351+99999101601ADDKA1120M-00041MA1999990101531MD1110121+9990OD139901701999REMSYN06401009 46/// /2814 11035 2//// 30153 40160 51012 333 11004 91117=
0089010090999992014011319004+80650+025000FM-12+000599999V0202801N015019999999N999999999-00571+99999101671ADDMA1999990101601MD1110161+9990REMSYN04801009 46/// /2815 11057 2//// 30160 40167 51016=
0089010090999992014011320004+80650+025000FM-12+000599999V0203001N014019999999N999999999-00641+99999101761ADDMA1999990101691MD1210221+9990REMSYN04801009 46/// /3014 11064 2//// 30169 40176 52022=
0089010090999992014011321004+80650+025000FM-12+000599999V0203001N013019999999N999999999-00681+99999101931ADDMA1999990101861MD1110331+9990REMSYN04801009 46/// /3013 11068 2//// 30186 40193 51033=
0089010090999992014011322004+80650+025000FM-12+000599999V0203101N011019999999N999999999-00711+99999102051ADDMA1999990101981MD1110391+9990REMSYN04801009 46/// /3111 11071 2//// 30198 40205 51039=
0089010090999992014011323004+80650+025000FM-12+000599999V0203201N010019999999N999999999-00691+99999102151ADDMA1999990102081MD1310401+9990REMSYN04801009 46/// /3210 11069 2//// 30208 40215 53040=
0113010090999992014011400004+80650+025000FM-12+000599999V0203501N008019999999N999999999-00721+99999102241ADDMA1999990102171MD1310311+9990OD139901901999REMSYN05801009 46/// /3508 11072 2//// 30217 40224 53031 333 91119=
0089010090999992014011401004+80650+025000FM-12+000599999V0203401N006019999999N999999999-00741+99999102321ADDMA1999990102241MD1210261+9990REMSYN04801009 46/// /3406 11074 2//// 30224 40232 52026=
0089010090999992014011402004+80650+025000FM-12+000599999V0203401N007019999999N999999999-00741+99999102381ADDMA1999990102311MD1210231+9990REMSYN04801009 46/// /3407 11074 2//// 30231 40238 52023=
0089010090999992014011403004+80650+025000FM-12+000599999V0203401N006019999999N999999999-00731+99999102421ADDMA1999990102351MD1210181+9990REMSYN04801009 46/// /3406 11073 2//// 30235 40242 52018=
0089010090999992014011404004+80650+025000FM-12+000599999V0203201N005019999999N999999999-00701+99999102441ADDMA1999990102371MD1310131+9990REMSYN04801009 46/// /3205 11070 2//// 30237 40244 53013=
0089010090999992014011405004+80650+025000FM-12+000599999V0203201N004019999999N999999999-00681+99999102461ADDMA1999990102391MD1210091+9990REMSYN04801009 46/// /3204 11068 2//// 30239 40246 52009=
0132010090999992014011406004+80650+025000FM-12+000599999V0203001N003019999999N999999999-00681+99999102491ADDKA1240N-00751MA1999990102411MD1210061+9990OD139901101999REMSYN06401009 46/// /3003 11068 2//// 30241 40249 52006 333 21075 91111=
0089010090999992014011407004+80650+025000FM-12+000599999V0202901N003019999999N999999999-00681+99999102491ADDMA1999990102411MD1210041+9990REMSYN04801009 46/// /2903 11068 2//// 30241 40249 52004=
0089010090999992014011408004+80650+025000FM-12+000599999V0202701N002019999999N999999999-00681+99999102521ADDMA1999990102451MD1210061+9990REMSYN04801009 46/// /2702 11068 2//// 30245 40252 52006=
0089010090999992014011409004+80650+025000FM-12+000599999V0202501N003019999999N999999999-00661+99999102521ADDMA1999990102451MD1210031+9990REMSYN04801009 46/// /2503 11066 2//// 30245 40252 52003=
0089010090999992014011410004+80650+025000FM-12+000599999V0202201N003019999999N999999999-00681+99999102531ADDMA1999990102461MD1210041+9990REMSYN04801009 46/// /2203 11068 2//// 30246 40253 52004=
0089010090999992014011411004+80650+025000FM-12+000599999V0202001N006019999999N999999999-00691+99999102521ADDMA1999990102451MD1410001+9990REMSYN04801009 46/// /2006 11069 2//// 30245 40252 54000=
0113010090999992014011412004+80650+025000FM-12+000599999V0201901N005019999999N999999999-00731+99999102471ADDMA1999990102391MD1610051+9990OD139900701999REMSYN05801009 46/// /1905 11073 2//// 30239 40247 56005 333 91107=
0089010090999992014011413004+80650+025000FM-12+000599999V0201901N005019999999N999999999-00731+99999102421ADDMA1999990102351MD1610111+9990REMSYN04801009 46/// /1905 11073 2//// 30235 40242 56011=
0089010090999992014011414004+80650+025000FM-12+000599999V0202101N003019999999N999999999-00731+99999102371ADDMA1999990102301MD1710151+9990REMSYN04801009 46/// /2103 11073 2//// 30230 40237 57015=
0089010090999992014011415004+80650+025000FM-12+000599999V0202501N004019999999N999999999-00651+99999102361ADDMA1999990102291MD1810111+9990REMSYN04801009 46/// /2504 11065 2//// 30229 40236 58011=
0089010090999992014011416004+80650+025000FM-12+000599999V0201901N003019999999N999999999-00661+99999102291ADDMA1999990102221MD1710131+9990REMSYN04801009 46/// /1903 11066 2//// 30222 40229 57013=
0089010090999992014011417004+80650+025000FM-12+000599999V0202101N006019999999N999999999-00561+99999102251ADDMA1999990102171MD1610121+9990REMSYN04801009 46/// /2106 11056 2//// 30217 40225 56012=
0132010090999992014011418004+80650+025000FM-12+000599999V0202201N006019999999N999999999-00521+99999102211ADDKA1120M-00511MA1999990102141MD1810151+9990OD139901001999REMSYN06401009 46/// /2206 11052 2//// 30214 40221 58015 333 11051 91110=
0089010090999992014011419004+80650+025000FM-12+000599999V0202601N005019999999N999999999-00501+99999102211ADDMA1999990102141MD1810071+9990REMSYN04801009 46/// /2605 11050 2//// 30214 40221 58007=
0089010090999992014011420004+80650+025000FM-12+000599999V0202601N003019999999N999999999-00501+99999102191ADDMA1999990102121MD1710061+9990REMSYN04801009 46/// /2603 11050 2//// 30212 40219 57006=
0089010090999992014011421004+80650+025000FM-12+000599999V0202201N003019999999N999999999-00481+99999102181ADDMA1999990102111MD1710041+9990REMSYN04801009 46/// /2203 11048 2//// 30211 40218 57004=
0089010090999992014011422004+80650+025000FM-12+000599999V0202001N004019999999N999999999-00481+99999102131ADDMA1999990102061MD1710081+9990REMSYN04801009 46/// /2004 11048 2//// 30206 40213 57008=
0089010090999992014011423004+80650+025000FM-12+000599999V0202001N007019999999N999999999-00481+99999102041ADDMA1999990101971MD1610151+9990REMSYN04801009 46/// /2007 11048 2//// 30197 40204 56015=
0113010090999992014011500004+80650+025000FM-12+000599999V0202001N007019999999N999999999-00481+99999102001ADDMA1999990101931MD1710181+9990OD139900801999REMSYN05801009 46/// /2007 11048 2//// 30193 40200 57018 333 91108=
0089010090999992014011502004+80650+025000FM-12+000599999V0202001N007019999999N999999999-00451+99999101831ADDMA1999990101761MD1610211+9990REMSYN04801009 46/// /2007 11045 2//// 30176 40183 56021=
0089010090999992014011503004+80650+025000FM-12+000599999V0202001N006019999999N999999999-00411+99999101801ADDMA1999990101731MD1810201+9990REMSYN04801009 46/// /2006 11041 2//// 30173 40180 58020=
0089010090999992014011504004+80650+025000FM-12+000599999V0202201N005019999999N999999999-00321+99999101811ADDMA1999990101741MD1810101+9990REMSYN04801009 46/// /2205 11032 2//// 30174 40181 58010=
0089010090999992014011505004+80650+025000FM-12+000599999V0202401N007019999999N999999999-00251+99999101801ADDMA1999990101731MD1710031+9990REMSYN04801009 46/// /2407 11025 2//// 30173 40180 57003=
0151010090999992014011506004+80650+025000FM-12+000599999V0202601N007019999999N999999999-00241+99999101781ADDKA1240N-00531MA1999990101711MD1790029+9990OD139900901999REMSYN06401009 46/// /2607 11024 2//// 30171 40178 54003 333 21053 91109=EQDQ01.3    3APC3  
0089010090999992014011507004+80650+025000FM-12+000599999V0202401N006019999999N999999999-00251+99999101771ADDMA1999990101701MD1710041+9990REMSYN04801009 46/// /2406 11025 2//// 30170 40177 57004=
0089010090999992014011508004+80650+025000FM-12+000599999V0202401N007019999999N999999999-00241+99999101791ADDMA1999990101721MD1900011+9990REMSYN04801009 46/// /2407 11024 2//// 30172 40179 50001=
0108010090999992014011509004+80650+025000FM-12+000599999V0202301N006019999999N999999999-00271+99999101801ADDMA1999990101731MD1290029+9990REMSYN04801009 46/// /2306 11027 2//// 30173 40180 54003=EQDQ01.3    3APC3  
0108010090999992014011510004+80650+025000FM-12+000599999V0202401N005019999999N999999999-00251+99999101801ADDMA1999990101731MD1290039+9990REMSYN04801009 46/// /2405 11025 2//// 30173 40180 54003=EQDQ01.3    3APC3  
0089010090999992014011511004+80650+025000FM-12+000599999V0202501N005019999999N999999999-00231+99999101791ADDMA1999990101721MD1410001+9990REMSYN04801009 46/// /2505 11023 2//// 30172 40179 54000=
0132010090999992014011512004+80650+025000FM-12+000599999V0202501N007019999999N999999999-00191+99999101781ADDMA1999990101711MD1790029+9990OD139900801999REMSYN05801009 46/// /2507 11019 2//// 30171 40178 54002 333 91108=EQDQ01.2    3APC3  
0108010090999992014011513004+80650+025000FM-12+000599999V0202701N007019999999N999999999-00231+99999101781ADDMA1999990101711MD1790029+9990REMSYN04801009 46/// /2707 11023 2//// 30171 40178 54002=EQDQ01.2    3APC3  
0108010090999992014011514004+80650+025000FM-12+000599999V0202601N006019999999N999999999-00261+99999101781ADDMA1999990101711MD1790019+9990REMSYN04801009 46/// /2606 11026 2//// 30171 40178 54001=EQDQ01.1    3APC3  
0089010090999992014011515004+80650+025000FM-12+000599999V0202501N005019999999N999999999-00251+99999101781ADDMA1999990101711MD1410001+9990REMSYN04801009 46/// /2505 11025 2//// 30171 40178 54000=
0089010090999992014011516004+80650+025000FM-12+000599999V0202201N005019999999N999999999-00241+99999101751ADDMA1999990101681MD1710031+9990REMSYN04801009 46/// /2205 11024 2//// 30168 40175 57003=
0089010090999992014011517004+80650+025000FM-12+000599999V0202101N004019999999N999999999-00251+99999101751ADDMA1999990101681MD1710031+9990REMSYN04801009 46/// /2104 11025 2//// 30168 40175 57003=
0132010090999992014011518004+80650+025000FM-12+000599999V0202201N005019999999N999999999-00191+99999101761ADDKA1120M-00181MA1999990101691MD1900021+9990OD139900801999REMSYN06401009 46/// /2205 11019 2//// 30169 40176 50002 333 11018 91108=
0108010090999992014011519004+80650+025000FM-12+000599999V0202401N006019999999N999999999-00151+99999101741ADDMA1999990101671MD1790019+9990REMSYN04801009 46/// /2406 11015 2//// 30167 40174 54001=EQDQ01.1    3APC3  
0089010090999992014011520004+80650+025000FM-12+000599999V0202401N005019999999N999999999-00161+99999101721ADDMA1999990101651MD1610031+9990REMSYN04801009 46/// /2405 11016 2//// 30165 40172 56003=
0089010090999992014011521004+80650+025000FM-12+000599999V0202101N005019999999N999999999-00201+99999101721ADDMA1999990101651MD1710041+9990REMSYN04801009 46/// /2105 11020 2//// 30165 40172 57004=
0089010090999992014011522004+80650+025000FM-12+000599999V0202001N004019999999N999999999-00211+99999101681ADDMA1999990101611MD1710051+9990REMSYN04801009 46/// /2004 11021 2//// 30161 40168 57005=
0089010090999992014011523004+80650+025000FM-12+000599999V0201901N005019999999N999999999-00191+99999101681ADDMA1999990101611MD1710031+9990REMSYN04801009 46/// /1905 11019 2//// 30161 40168 57003=
0113010090999992014011600004+80650+025000FM-12+000599999V0201701N004019999999N999999999-00191+99999101621ADDMA1999990101551MD1710091+9990OD139900801999REMSYN05801009 46/// /1704 11019 2//// 30155 40162 57009 333 91108=
0089010090999992014011601004+80650+025000FM-12+000599999V0201801N004019999999N999999999-00231+99999101581ADDMA1999990101511MD1610101+9990REMSYN04801009 46/// /1804 11023 2//// 30151 40158 56010=
0089010090999992014011602004+80650+025000FM-12+000599999V0202101N006019999999N999999999-00151+99999101551ADDMA1999990101481MD1710131+9990REMSYN04801009 46/// /2106 11015 2//// 30148 40155 57013=
0089010090999992014011603004+80650+025000FM-12+000599999V0202201N005019999999N999999999-00131+99999101541ADDMA1999990101471MD1810081+9990REMSYN04801009 46/// /2205 11013 2//// 30147 40154 58008=
0089010090999992014011604004+80650+025000FM-12+000599999V0202101N007019999999N999999999-00151+99999101501ADDMA1999990101431MD1710081+9990REMSYN04801009 46/// /2107 11015 2//// 30143 40150 57008=
0089010090999992014011605004+80650+025000FM-12+000599999V0202001N005019999999N999999999-00111+99999101501ADDMA1999990101431MD1710051+9990REMSYN04801009 46/// /2005 11011 2//// 30143 40150 57005=
0132010090999992014011606004+80650+025000FM-12+000599999V0202201N005019999999N999999999-00081+99999101461ADDKA1240N-00261MA1999990101391MD1710081+9990OD139900901999REMSYN06401009 46/// /2205 11008 2//// 30139 40146 57008 333 21026 91109=
0089010090999992014011607004+80650+025000FM-12+000599999V0202201N005019999999N999999999-00101+99999101451ADDMA1999990101381MD1710061+9990REMSYN04801009 46/// /2205 11010 2//// 30138 40145 57006=
0089010090999992014011608004+80650+025000FM-12+000599999V0202201N006019999999N999999999-00091+99999101461ADDMA1999990101391MD1810051+9990REMSYN04801009 46/// /2206 11009 2//// 30139 40146 58005=
0089010090999992014011609004+80650+025000FM-12+000599999V0202201N007019999999N999999999-00101+99999101451ADDMA1999990101381MD1410001+9990REMSYN04801009 46/// /2207 11010 2//// 30138 40145 54000=
0108010090999992014011610004+80650+025000FM-12+000599999V0202201N006019999999N999999999-00111+99999101461ADDMA1999990101391MD1290019+9990REMSYN04801009 46/// /2206 11011 2//// 30139 40146 54001=EQDQ01.1    3APC3  
0108010090999992014011611004+80650+025000FM-12+000599999V0201901N004019999999N999999999-00111+99999101481ADDMA1999990101411MD1290029+9990REMSYN04801009 46/// /1904 11011 2//// 30141 40148 54002=EQDQ01.2    3APC3  
0113010090999992014011612004+80650+025000FM-12+000599999V0202101N005019999999N999999999-00101+99999101401ADDMA1999990101331MD1610051+9990OD139900901999REMSYN05801009 46/// /2105 11010 2//// 30133 40140 56005 333 91109=
0089010090999992014011613004+80650+025000FM-12+000599999V0201801N004019999999N999999999-00111+99999101331ADDMA1999990101261MD1610141+9990REMSYN04801009 46/// /1804 11011 2//// 30126 40133 56014=
0089010090999992014011614004+80650+025000FM-12+000599999V0201701N004019999999N999999999-00111+99999101261ADDMA1999990101191MD1710221+9990REMSYN04801009 46/// /1704 11011 2//// 30119 40126 57022=
0089010090999992014011615004+80650+025000FM-12+000599999V0201501N005019999999N999999999-00091+99999101201ADDMA1999990101131MD1710201+9990REMSYN04801009 46/// /1505 11009 2//// 30113 40120 57020=
0089010090999992014011616004+80650+025000FM-12+000599999V0201601N005019999999N999999999-00101+99999101121ADDMA1999990101051MD1710211+9990REMSYN04801009 46/// /1605 11010 2//// 30105 40112 57021=
0089010090999992014011617004+80650+025000FM-12+000599999V0201701N006019999999N999999999-00031+99999101021ADDMA1999990100951MD1610231+9990REMSYN04801009 46/// /1706 11003 2//// 30095 40102 56023=
0132010090999992014011618004+80650+025000FM-12+000599999V0202101N006019999999N999999999-00031+99999100971ADDKA1120M-00021MA1999990100901MD1710231+9990OD139900801999REMSYN06401009 46/// /2106 11003 2//// 30090 40097 57023 333 11002 91108=
0089010090999992014011619004+80650+025000FM-12+000599999V0202001N006019999999N999999999-00081+99999100941ADDMA1999990100871MD1810181+9990REMSYN04801009 46/// /2006 11008 2//// 30087 40094 58018=
0089010090999992014011620004+80650+025000FM-12+000599999V0202201N007019999999N999999999-00071+99999100881ADDMA1999990100821MD1710141+9990REMSYN04801009 46/// /2207 11007 2//// 30082 40088 57014=
0089010090999992014011621004+80650+025000FM-12+000599999V0202201N007019999999N999999999-00061+99999100861ADDMA1999990100791MD1710111+9990REMSYN04801009 46/// /2207 11006 2//// 30079 40086 57011=
0089010090999992014011622004+80650+025000FM-12+000599999V0202101N007019999999N999999999-00061+99999100881ADDMA1999990100811MD1810061+9990REMSYN04801009 46/// /2107 11006 2//// 30081 40088 58006=
0089010090999992014011623004+80650+025000FM-12+000599999V0202401N008019999999N999999999-00011+99999100901ADDMA1999990100831MD1900011+9990REMSYN04801009 46/// /2408 11001 2//// 30083 40090 50001=
0113010090999992014011700004+80650+025000FM-12+000599999V0202701N008019999999N999999999-00081+99999100941ADDMA1999990100871MD1210081+9990OD139901101999REMSYN05801009 46/// /2708 11008 2//// 30087 40094 52008 333 91111=
0089010090999992014011701004+80650+025000FM-12+000599999V0202801N005019999999N999999999-00111+99999100991ADDMA1999990100921MD1110111+9990REMSYN04801009 46/// /2805 11011 2//// 30092 40099 51011=
0089010090999992014011702004+80650+025000FM-12+000599999V0202701N004019999999N999999999-00131+99999100991ADDMA1999990100921MD1310091+9990REMSYN04801009 46/// /2704 11013 2//// 30092 40099 53009=
0089010090999992014011703004+80650+025000FM-12+000599999V0202501N002019999999N999999999-00141+99999100971ADDMA1999990100901MD1310031+9990REMSYN04801009 46/// /2502 11014 2//// 30090 40097 53003=
0089010090999992014011705004+80650+025000FM-12+000599999V0201801N003019999999N999999999-00191+99999100931ADDMA1999990100861MD1710061+9990REMSYN04801009 46/// /1803 11019 2//// 30086 40093 57006=
0089010090999992014011706004+80650+025000FM-12+000599999V0201601N005019999999N999999999-00161+99999100901ADDMA1999990100831MD1710081+9990REMSYN04801009 46/// /1605 11016 2//// 30083 40090 57008=
0089010090999992014011707004+80650+025000FM-12+000599999V0201701N006019999999N999999999-00141+99999100891ADDMA1999990100821MD1710081+9990REMSYN04801009 46/// /1706 11014 2//// 30082 40089 57008=
0089010090999992014011708004+80650+025000FM-12+000599999V0202101N006019999999N999999999-00111+99999100901ADDMA1999990100831MD1810031+9990REMSYN04801009 46/// /2106 11011 2//// 30083 40090 58003=
0089010090999992014011709004+80650+025000FM-12+000599999V0202101N006019999999N999999999-00051+99999100931ADDMA1999990100861MD1110031+9990REMSYN04801009 46/// /2106 11005 2//// 30086 40093 51003=
0089010090999992014011710004+80650+025000FM-12+000599999V0202101N005019999999N999999999-00061+99999100941ADDMA1999990100871MD1210061+9990REMSYN04801009 46/// /2105 11006 2//// 30087 40094 52006=
0089010090999992014011711004+80650+025000FM-12+000599999V0202301N006019999999N999999999+00001+99999100961ADDMA1999990100891MD1210061+9990REMSYN04801009 46/// /2306 10000 2//// 30089 40096 52006=
0113010090999992014011712004+80650+025000FM-12+000599999V0202001N005019999999N999999999-00021+99999100961ADDMA1999990100901MD1210031+9990OD139900901999REMSYN05801009 46/// /2005 11002 2//// 30090 40096 52003 333 91109=
0089010090999992014011713004+80650+025000FM-12+000599999V0202401N007019999999N999999999+00011+99999100941ADDMA1999990100871MD1510001+9990REMSYN04801009 46/// /2407 10001 2//// 30087 40094 55000=
0089010090999992014011714004+80650+025000FM-12+000599999V0202301N005019999999N999999999+00001+99999100981ADDMA1999990100921MD1900031+9990REMSYN04801009 46/// /2305 10000 2//// 30092 40098 50003=
0108010090999992014011715004+80650+025000FM-12+000599999V0202601N006019999999N999999999+00001+99999100951ADDMA1999990100881MD1790019+9990REMSYN04801009 46/// /2606 10000 2//// 30088 40095 54001=EQDQ01.1    3APC3  
0089010090999992014011716004+80650+025000FM-12+000599999V0202501N005019999999N999999999-00021+99999100961ADDMA1999990100891MD1510021+9990REMSYN04801009 46/// /2505 11002 2//// 30089 40096 55002=
0089010090999992014011717004+80650+025000FM-12+000599999V0202401N005019999999N999999999-00011+99999100971ADDMA1999990100901MD1900021+9990REMSYN04801009 46/// /2405 11001 2//// 30090 40097 50002=
0151010090999992014011718004+80650+025000FM-12+000599999V0202301N004019999999N999999999-00031+99999100971ADDKA1120M+00031MA1999990100901MD1290029+9990OD139900901999REMSYN06401009 46/// /2304 11003 2//// 30090 40097 54002 333 10003 91109=EQDQ01.2    3APC3  
0089010090999992014011719004+80650+025000FM-12+000599999V0202001N004019999999N999999999-00101+99999100951ADDMA1999990100881MD1410001+9990REMSYN04801009 46/// /2004 11010 2//// 30088 40095 54000=
0108010090999992014011720004+80650+025000FM-12+000599999V0202201N005019999999N999999999-00051+99999100941ADDMA1999990100871MD1790039+9990REMSYN04801009 46/// /2205 11005 2//// 30087 40094 54003=EQDQ01.3    3APC3  
0089010090999992014011721004+80650+025000FM-12+000599999V0202201N005019999999N999999999-00091+99999100941ADDMA1999990100871MD1710031+9990REMSYN04801009 46/// /2205 11009 2//// 30087 40094 57003=
0108010090999992014011722004+80650+025000FM-12+000599999V0202201N005019999999N999999999-00091+99999100941ADDMA1999990100871MD1790019+9990REMSYN04801009 46/// /2205 11009 2//// 30087 40094 54002=EQDQ01.2    3APC3  
0089010090999992014011723004+80650+025000FM-12+000599999V0202101N005019999999N999999999-00111+99999100901ADDMA1999990100831MD1610041+9990REMSYN04801009 46/// /2105 11011 2//// 30083 40090 56004=
0132010090999992014011800004+80650+025000FM-12+000599999V0202201N006019999999N999999999-00111+99999100911ADDMA1999990100841MD1790039+9990OD139900801999REMSYN05801009 46/// /2206 11011 2//// 30084 40091 54003 333 91108=EQDQ01.3    3APC3  
0089010090999992014011801004+80650+025000FM-12+000599999V0202201N006019999999N999999999-00101+99999100881ADDMA1999990100811MD1710061+9990REMSYN04801009 46/// /2206 11010 2//// 30081 40088 57006=
0089010090999992014011802004+80650+025000FM-12+000599999V0202001N006019999999N999999999-00131+99999100761ADDMA1999990100691MD1610141+9990REMSYN04801009 46/// /2006 11013 2//// 30069 40076 56014=
0089010090999992014011803004+80650+025000FM-12+000599999V0202101N006019999999N999999999-00121+99999100741ADDMA1999990100681MD1710161+9990REMSYN04801009 46/// /2106 11012 2//// 30068 40074 57016=
0089010090999992014011804004+80650+025000FM-12+000599999V0202101N006019999999N999999999-00111+99999100691ADDMA1999990100621MD1810191+9990REMSYN04801009 46/// /2106 11011 2//// 30062 40069 58019=
0089010090999992014011805004+80650+025000FM-12+000599999V0202101N005019999999N999999999-00101+99999100661ADDMA1999990100591MD1710101+9990REMSYN04801009 46/// /2105 11010 2//// 30059 40066 57010=
0132010090999992014011806004+80650+025000FM-12+000599999V0201901N006019999999N999999999-00111+99999100581ADDKA1240N-00131MA1999990100511MD1710171+9990OD139901001999REMSYN06401009 46/// /1906 11011 2//// 30051 40058 57017 333 21013 91110=
0089010090999992014011807004+80650+025000FM-12+000599999V0202301N008019999999N999999999-00031+99999100561ADDMA1999990100491MD1710141+9990REMSYN04801009 46/// /2308 11003 2//// 30049 40056 57014=
0089010090999992014011808004+80650+025000FM-12+000599999V0202301N007019999999N999999999-00041+99999100551ADDMA1999990100491MD1810101+9990REMSYN04801009 46/// /2307 11004 2//// 30049 40055 58010=
0089010090999992014011809004+80650+025000FM-12+000599999V0202401N010019999999N999999999-00061+99999100571ADDMA1999990100501MD1900001+9990REMSYN04801009 46/// /2410 11006 2//// 30050 40057 50000=
0089010090999992014011810004+80650+025000FM-12+000599999V0202901N006019999999N999999999-00121+99999100621ADDMA1999990100551MD1110071+9990REMSYN04801009 46/// /2906 11012 2//// 30055 40062 51007=
0089010090999992014011811004+80650+025000FM-12+000599999V0202901N012019999999N999999999-00351+99999100691ADDMA1999990100621MD1110131+9990REMSYN04801009 46/// /2912 11035 2//// 30062 40069 51013=
0113010090999992014011812004+80650+025000FM-12+000599999V0202801N016019999999N999999999-00501+99999100691ADDMA1999990100621MD1310121+9990OD139901701999REMSYN05801009 46/// /2816 11050 2//// 30062 40069 53012 333 91117=
0089010090999992014011813004+80650+025000FM-12+000599999V0202801N013019999999N999999999-00771+99999100871ADDMA1999990100801MD1110251+9990REMSYN04801009 46/// /2813 11077 2//// 30080 40087 51025=
0089010090999992014011815004+80650+025000FM-12+000599999V0202901N014019999999N999999999-01011+99999101021ADDMA1999990100951MD1310331+9990REMSYN04801009 46/// /2914 11101 2//// 30095 40102 53033=
0089010090999992014011816004+80650+025000FM-12+000599999V0202801N015019999999N999999999-01031+99999101091ADDMA1999990101021MD1310221+9990REMSYN04801009 46/// /2815 11103 2//// 30102 40109 53022=
0089010090999992014011817004+80650+025000FM-12+000599999V0203001N014019999999N999999999-01101+99999101181ADDMA1999990101111MD1110171+9990REMSYN04801009 46/// /3014 11110 2//// 30111 40118 51017=
0089010090999992014011818004+80650+025000FM-12+000599999V0202901N014019999999N999999999-01101+99999101231ADDMA1999990101161MD1210211+9990REMSYN04801009 46/// /2914 11110 2//// 30116 40123 52021=
0089010090999992014011819004+80650+025000FM-12+000599999V0203001N014019999999N999999999-01071+99999101311ADDMA1999990101231MD1210221+9990REMSYN04801009 46/// /3014 11107 2//// 30123 40131 52022=
0089010090999992014011820004+80650+025000FM-12+000599999V0202901N014019999999N999999999-01041+99999101361ADDMA1999990101291MD1210181+9990REMSYN04801009 46/// /2914 11104 2//// 30129 40136 52018=
0089010090999992014011821004+80650+025000FM-12+000599999V0202901N015019999999N999999999-01011+99999101411ADDMA1999990101341MD1210181+9990REMSYN04801009 46/// /2915 11101 2//// 30134 40141 52018=
0089010090999992014011822004+80650+025000FM-12+000599999V0202901N015019999999N999999999-00971+99999101441ADDMA1999990101371MD1210141+9990REMSYN04801009 46/// /2915 11097 2//// 30137 40144 52014=
0089010090999992014011823004+80650+025000FM-12+000599999V0203001N014019999999N999999999-01041+99999101491ADDMA1999990101411MD1210121+9990REMSYN04801009 46/// /3014 11104 2//// 30141 40149 52012=
0113010090999992014011900004+80650+025000FM-12+000599999V0202901N015019999999N999999999-01011+99999101501ADDMA1999990101431MD1210091+9990OD139902001999REMSYN05801009 46/// /2915 11101 2//// 30143 40150 52009 333 91120=
0089010090999992014011901004+80650+025000FM-12+000599999V0203001N017019999999N999999999-00991+99999101521ADDMA1999990101451MD1210081+9990REMSYN04801009 46/// /3017 11099 2//// 30145 40152 52008=
0089010090999992014011902004+80650+025000FM-12+000599999V0203001N016019999999N999999999-00981+99999101571ADDMA1999990101501MD1110091+9990REMSYN04801009 46/// /3016 11098 2//// 30150 40157 51009=
0089010090999992014011903004+80650+025000FM-12+000599999V0203001N015019999999N999999999-00931+99999101601ADDMA1999990101521MD1210091+9990REMSYN04801009 46/// /3015 11093 2//// 30152 40160 52009=
0089010090999992014011904004+80650+025000FM-12+000599999V0203001N015019999999N999999999-00981+99999101631ADDMA1999990101561MD1210111+9990REMSYN04801009 46/// /3015 11098 2//// 30156 40163 52011=
0089010090999992014011905004+80650+025000FM-12+000599999V0203101N014019999999N999999999-00991+99999101681ADDMA1999990101601MD1210101+9990REMSYN04801009 46/// /3114 11099 2//// 30160 40168 52010=
0132010090999992014011906004+80650+025000FM-12+000599999V0203101N013019999999N999999999-00971+99999101721ADDKA1240N-01111MA1999990101641MD1210121+9990OD139902101999REMSYN06401009 46/// /3113 11097 2//// 30164 40172 52012 333 21111 91121=
0089010090999992014011907004+80650+025000FM-12+000599999V0203101N014019999999N999999999-00971+99999101781ADDMA1999990101701MD1210151+9990REMSYN04801009 46/// /3114 11097 2//// 30170 40178 52015=
0089010090999992014011908004+80650+025000FM-12+000599999V0203101N013019999999N999999999-00931+99999101811ADDMA1999990101741MD1210131+9990REMSYN04801009 46/// /3113 11093 2//// 30174 40181 52013=
0089010090999992014011909004+80650+025000FM-12+000599999V0203101N014019999999N999999999-00951+99999101871ADDMA1999990101791MD1210151+9990REMSYN04801009 46/// /3114 11095 2//// 30179 40187 52015=
0089010090999992014011910004+80650+025000FM-12+000599999V0203101N013019999999N999999999-00951+99999101931ADDMA1999990101861MD1210151+9990REMSYN04801009 46/// /3113 11095 2//// 30186 40193 52015=
0089010090999992014011911004+80650+025000FM-12+000599999V0203101N012019999999N999999999-00941+99999102001ADDMA1999990101931MD1210191+9990REMSYN04801009 46/// /3112 11094 2//// 30193 40200 52019=
0113010090999992014011912004+80650+025000FM-12+000599999V0203101N012019999999N999999999-00961+99999102041ADDMA1999990101971MD1210181+9990OD139901701999REMSYN05801009 46/// /3112 11096 2//// 30197 40204 52018 333 91117=
0089010090999992014011913004+80650+025000FM-12+000599999V0203101N011019999999N999999999-00951+99999102061ADDMA1999990101991MD1310131+9990REMSYN04801009 46/// /3111 11095 2//// 30199 40206 53013=
0089010090999992014011914004+80650+025000FM-12+000599999V0203101N011019999999N999999999-00891+99999102061ADDMA1999990101991MD1310061+9990REMSYN04801009 46/// /3111 11089 2//// 30199 40206 53006=
0089010090999992014011915004+80650+025000FM-12+000599999V0203101N009019999999N999999999-00821+99999102121ADDMA1999990102041MD1110071+9990REMSYN04801009 46/// /3109 11082 2//// 30204 40212 51007=
0089010090999992014011916004+80650+025000FM-12+000599999V0203101N009019999999N999999999-00831+99999102131ADDMA1999990102061MD1210071+9990REMSYN04801009 46/// /3109 11083 2//// 30206 40213 52007=
0089010090999992014011917004+80650+025000FM-12+000599999V0203201N008019999999N999999999-00801+99999102171ADDMA1999990102091MD1210101+9990REMSYN04801009 46/// /3208 11080 2//// 30209 40217 52010=
0132010090999992014011918004+80650+025000FM-12+000599999V0203201N007019999999N999999999-00801+99999102211ADDKA1120M-00781MA1999990102141MD1110101+9990OD139901301999REMSYN06401009 46/// /3207 11080 2//// 30214 40221 51010 333 11078 91113=
0089010090999992014011919004+80650+025000FM-12+000599999V0203201N006019999999N999999999-00801+99999102221ADDMA1999990102151MD1210091+9990REMSYN04801009 46/// /3206 11080 2//// 30215 40222 52009=
0089010090999992014011920004+80650+025000FM-12+000599999V0203101N004019999999N999999999-00811+99999102271ADDMA1999990102201MD1210101+9990REMSYN04801009 46/// /3104 11081 2//// 30220 40227 52010=
0089010090999992014011921004+80650+025000FM-12+000599999V0203101N003019999999N999999999-00821+99999102251ADDMA1999990102181MD1210041+9990REMSYN04801009 46/// /3103 11082 2//// 30218 40225 52004=
0089010090999992014011922004+80650+025000FM-12+000599999V0203101N002019999999N999999999-00801+99999102261ADDMA1999990102191MD1310041+9990REMSYN04801009 46/// /3102 11080 2//// 30219 40226 53004=
0089010090999992014011923004+80650+025000FM-12+000599999V0203301N002019999999N999999999-00781+99999102271ADDMA1999990102201MD1410001+9990REMSYN04801009 46/// /3302 11078 2//// 30220 40227 54000=
0113010090999992014012000004+80650+025000FM-12+000599999V0209999C999999999999N999999999-00801+99999102291ADDMA1999990102221MD1210041+9990OD139900801999REMSYN05801009 46/// ///// 11080 2//// 30222 40229 52004 333 91108=
0108010090999992014012001004+80650+025000FM-12+000599999V0209999C999999999999N999999999-00801+99999102281ADDMA1999990102211MD1290029+9990REMSYN04801009 46/// ///// 11080 2//// 30221 40228 54002=EQDQ01.2    3APC3  
0089010090999992014012002004+80650+025000FM-12+000599999V0209999C999999999999N999999999-00791+99999102271ADDMA1999990102201MD1510001+9990REMSYN04801009 46/// ///// 11079 2//// 30220 40227 55000=
0089010090999992014012003004+80650+025000FM-12+000599999V0201501N002019999999N999999999-00741+99999102251ADDMA1999990102171MD1710041+9990REMSYN04801009 46/// /1502 11074 2//// 30217 40225 57004=
0089010090999992014012004004+80650+025000FM-12+000599999V0201301N003019999999N999999999-00671+99999102221ADDMA1999990102151MD1710061+9990REMSYN04801009 46/// /1303 11067 2//// 30215 40222 57006=
0089010090999992014012005004+80650+025000FM-12+000599999V0201301N004019999999N999999999-00641+99999102191ADDMA1999990102121MD1710081+9990REMSYN04801009 46/// /1304 11064 2//// 30212 40219 57008=
0132010090999992014012006004+80650+025000FM-12+000599999V0201301N005019999999N999999999-00651+99999102161ADDKA1240N-00851MA1999990102091MD1710081+9990OD139900701999REMSYN06401009 46/// /1305 11065 2//// 30209 40216 57008 333 21085 91107=
0089010090999992014012007004+80650+025000FM-12+000599999V0201301N007019999999N999999999-00651+99999102121ADDMA1999990102051MD1710101+9990REMSYN04801009 46/// /1307 11065 2//// 30205 40212 57010=
0089010090999992014012008004+80650+025000FM-12+000599999V0201301N008019999999N999999999-00641+99999102081ADDMA1999990102011MD1710111+9990REMSYN04801009 46/// /1308 11064 2//// 30201 40208 57011=
0089010090999992014012009004+80650+025000FM-12+000599999V0201201N010019999999N999999999-00591+99999102021ADDMA1999990101951MD1710141+9990REMSYN04801009 46/// /1210 11059 2//// 30195 40202 57014=
0089010090999992014012010004+80650+025000FM-12+000599999V0201301N012019999999N999999999-00551+99999101951ADDMA1999990101881MD1710171+9990REMSYN04801009 46/// /1312 11055 2//// 30188 40195 57017=
0089010090999992014012011004+80650+025000FM-12+000599999V0201201N010019999999N999999999-00541+99999101881ADDMA1999990101801MD1710211+9990REMSYN04801009 46/// /1210 11054 2//// 30180 40188 57021=
0113010090999992014012012004+80650+025000FM-12+000599999V0201401N007019999999N999999999-00481+99999101821ADDMA1999990101751MD1710191+9990OD139901301999REMSYN05801009 46/// /1407 11048 2//// 30175 40182 57019 333 91113=
0089010090999992014012013004+80650+025000FM-12+000599999V0201301N007019999999N999999999-00441+99999101721ADDMA1999990101651MD1710241+9990REMSYN04801009 46/// /1307 11044 2//// 30165 40172 57024=
0089010090999992014012014004+80650+025000FM-12+000599999V0201401N006019999999N999999999-00391+99999101631ADDMA1999990101561MD1610251+9990REMSYN04801009 46/// /1406 11039 2//// 30156 40163 56025=
0089010090999992014012015004+80650+025000FM-12+000599999V0201401N008019999999N999999999-00391+99999101531ADDMA1999990101461MD1710301+9990REMSYN04801009 46/// /1408 11039 2//// 30146 40153 57030=
0089010090999992014012016004+80650+025000FM-12+000599999V0201501N008019999999N999999999-00341+99999101421ADDMA1999990101351MD1710291+9990REMSYN04801009 46/// /1508 11034 2//// 30135 40142 57029=
0089010090999992014012017004+80650+025000FM-12+000599999V0201501N009019999999N999999999-00281+99999101341ADDMA1999990101271MD1710291+9990REMSYN04801009 46/// /1509 11028 2//// 30127 40134 57029=
0132010090999992014012018004+80650+025000FM-12+000599999V0201501N008019999999N999999999-00291+99999101281ADDKA1120M-00271MA1999990101211MD1810251+9990OD139901101999REMSYN06401009 46/// /1508 11029 2//// 30121 40128 58025 333 11027 91111=
0089010090999992014012019004+80650+025000FM-12+000599999V0201901N006019999999N999999999-00301+99999101271ADDMA1999990101201MD1810151+9990REMSYN04801009 46/// /1906 11030 2//// 30120 40127 58015=
0089010090999992014012020004+80650+025000FM-12+000599999V0202001N008019999999N999999999-00241+99999101231ADDMA1999990101161MD1710111+9990REMSYN04801009 46/// /2008 11024 2//// 30116 40123 57011=
0089010090999992014012021004+80650+025000FM-12+000599999V0202201N007019999999N999999999-00231+99999101191ADDMA1999990101121MD1610091+9990REMSYN04801009 46/// /2207 11023 2//// 30112 40119 56009=
0089010090999992014012022004+80650+025000FM-12+000599999V0202101N006019999999N999999999-00221+99999101181ADDMA1999990101111MD1810091+9990REMSYN04801009 46/// /2106 11022 2//// 30111 40118 58009=
0089010090999992014012023004+80650+025000FM-12+000599999V0202201N006019999999N999999999-00191+99999101151ADDMA1999990101081MD1710071+9990REMSYN04801009 46/// /2206 11019 2//// 30108 40115 57007=
0113010090999992014012100004+80650+025000FM-12+000599999V0202201N004019999999N999999999-00161+99999101141ADDMA1999990101071MD1710051+9990OD139900901999REMSYN05801009 46/// /2204 11016 2//// 30107 40114 57005 333 91109=
0089010090999992014012101004+80650+025000FM-12+000599999V0202401N005019999999N999999999-00201+99999101131ADDMA1999990101061MD1710051+9990REMSYN04801009 46/// /2405 11020 2//// 30106 40113 57005=
0089010090999992014012102004+80650+025000FM-12+000599999V0202101N005019999999N999999999-00231+99999101101ADDMA1999990101031MD1710061+9990REMSYN04801009 46/// /2105 11023 2//// 30103 40110 57006=
0089010090999992014012103004+80650+025000FM-12+000599999V0202201N006019999999N999999999-00241+99999101061ADDMA1999990100991MD1710081+9990REMSYN04801009 46/// /2206 11024 2//// 30099 40106 57008=
0089010090999992014012104004+80650+025000FM-12+000599999V0202601N012019999999N999999999-00361+99999101031ADDMA1999990100961MD1710101+9990REMSYN04801009 46/// /2612 11036 2//// 30096 40103 57010=
0089010090999992014012105004+80650+025000FM-12+000599999V0202701N011019999999N999999999-00371+99999100991ADDMA1999990100921MD1710101+9990REMSYN04801009 46/// /2711 11037 2//// 30092 40099 57010=
0132010090999992014012106004+80650+025000FM-12+000599999V0202601N011019999999N999999999-00371+99999101001ADDKA1240N-00381MA1999990100931MD1810061+9990OD139901501999REMSYN06401009 46/// /2611 11037 2//// 30093 40100 58006 333 21038 91115=
0089010090999992014012107004+80650+025000FM-12+000599999V0202801N010019999999N999999999-00401+99999101021ADDMA1999990100951MD1900011+9990REMSYN04801009 46/// /2810 11040 2//// 30095 40102 50001=
0089010090999992014012108004+80650+025000FM-12+000599999V0203001N009019999999N999999999-00421+99999101051ADDMA1999990100981MD1210061+9990REMSYN04801009 46/// /3009 11042 2//// 30098 40105 52006=
0089010090999992014012109004+80650+025000FM-12+000599999V0203001N006019999999N999999999-00371+99999101091ADDMA1999990101021MD1210101+9990REMSYN04801009 46/// /3006 11037 2//// 30102 40109 52010=
0089010090999992014012110004+80650+025000FM-12+000599999V0203201N006019999999N999999999-00351+99999101191ADDMA1999990101121MD1110161+9990REMSYN04801009 46/// /3206 11035 2//// 30112 40119 51016=
0089010090999992014012111004+80650+025000FM-12+000599999V0203201N007019999999N999999999-00341+99999101251ADDMA1999990101181MD1210191+9990REMSYN04801009 46/// /3207 11034 2//// 30118 40125 52019=
0113010090999992014012112004+80650+025000FM-12+000599999V0203001N007019999999N999999999-00371+99999101341ADDMA1999990101271MD1210251+9990OD139901101999REMSYN05801009 46/// /3007 11037 2//// 30127 40134 52025 333 91111=
0089010090999992014012113004+80650+025000FM-12+000599999V0203101N005019999999N999999999-00401+99999101421ADDMA1999990101351MD1210231+9990REMSYN04801009 46/// /3105 11040 2//// 30135 40142 52023=
0089010090999992014012114004+80650+025000FM-12+000599999V0203201N006019999999N999999999-00411+99999101491ADDMA1999990101421MD1210241+9990REMSYN04801009 46/// /3206 11041 2//// 30142 40149 52024=
0089010090999992014012115004+80650+025000FM-12+000599999V0203001N006019999999N999999999-00431+99999101531ADDMA1999990101461MD1310191+9990REMSYN04801009 46/// /3006 11043 2//// 30146 40153 53019=
