0110010040999992014052221004+78917+011933FM-12+000899999V0201601N001019999999N999999999+03091+01651100481ADDAA103000091MA1999990100451MD1900171+9990REMSYN05801004 46/// /1601 10309 20165 30045 40048 5/017 333 60007=
0110010040999992014052303004+78917+011933FM-12+000899999V0201801N003019999999N999999999+03181+01111100551ADDAA103000091MA1999990100521MD1900131+9990REMSYN05801004 46/// /1803 10318 20111 30052 40055 5/013 333 60007=
