0069010030999992014010201004+77000+015500FM-12+001299999V0201401N003019999999N999999999-00201-00461101941ADDMA1999990101801REMSYN04201003 46/// /1403 11020 21046 30180 40194=
0069010030999992014010202004+77000+015500FM-12+001299999V0200601N002019999999N999999999-00191-00551101931ADDMA1999990101791REMSYN04201003 46/// /0602 11019 21055 30179 40193=
0167010030999992014010203004+77000+015500FM-12+001299999V0200501N002019999999N030000199-00231-00631101921ADDAY171021AY221021GA1071+999991061GE19MSL   +99999+99999GF107991071990999999991991MA1999990101781MW1021REMSYN05401003 41580 70502 11023 21063 30178 40192 70272 875//=
0089010030999992014010204004+77000+015500FM-12+001299999V0200601N003019999999N999999999-00401-00801101931ADDMA1999990101791MD1410001+9990REMSYN04801003 46/// /0603 11040 21080 30179 40193 54000=
0108010030999992014010205004+77000+015500FM-12+001299999V0200601N003019999999N999999999-00511-00801101921ADDMA1999990101781MD1790019+9990REMSYN04801003 46/// /0603 11051 21080 30178 40192 54001=EQDQ01.1    3APC3  
0309010030999992014010206004+77000+015500FM-12+001299999V0200701N004019999999N017000199-00431-00721101901ADDAA112000091AA224000091AJ100073100070094AY171021AY221021GA1061+999991061GE19MSL   +99999+99999GF106991061990999999991991IA1289MA1999990101761MD1710021+9990MW1011OD139900601999REMSYN08801003 11667 60704 11043 21072 30176 40190 57002 69902 70172 86500 333 48007 79999 91106=EQDQ01  00002PRCP12Q02  00002PRCP24
0089010030999992014010207004+77000+015500FM-12+001299999V0200701N004019999999N999999999-00631-00861101911ADDMA1999990101771MD1710021+9990REMSYN04801003 46/// /0704 11063 21086 30177 40191 57002=
0089010030999992014010208004+77000+015500FM-12+001299999V0200701N004019999999N999999999-00671-00951101941ADDMA1999990101801MD1510011+9990REMSYN04801003 46/// /0704 11067 21095 30180 40194 55001=
0187010030999992014010209004+77000+015500FM-12+001299999V0200501N003019999999N035000199-00721-00961101941ADDAY111021AY211021GA1011+999991061GE19MSL   +99999+99999GF101991011990999999991991MA1999990101801MD1210051+9990MW1011REMSYN06001003 41581 10503 11072 21096 30180 40194 52005 70111 81500=
0089010030999992014010210004+77000+015500FM-12+001299999V0200901N005019999999N999999999-00481-00751101951ADDMA1999990101811MD1210051+9990REMSYN04801003 46/// /0905 11048 21075 30181 40195 52005=
0089010030999992014010211004+77000+015500FM-12+001299999V0201001N003019999999N999999999-00431-00721101951ADDMA1999990101811MD1210021+9990REMSYN04801003 46/// /1003 11043 21072 30181 40195 52002=
0228010030999992014010212004+77000+015500FM-12+001299999V0200901N004019999999N035000199-00381-00731101921ADDAA106000091AY111021AY211021GA1011+999991061GE19MSL   +99999+99999GF101991011990999999991991MA1999990101781MD1810021+9990MW1021OD139900701999REMSYN07601003 11681 10904 11038 21073 30178 40192 58002 60001 70211 81500 333 91107=
0089010030999992014010213004+77000+015500FM-12+001299999V0200501N005019999999N999999999-00291-00851101901ADDMA1999990101761MD1510051+9990REMSYN04801003 46/// /0505 11029 21085 30176 40190 55005=
0089010030999992014010214004+77000+015500FM-12+001299999V0200601N004019999999N999999999-00271-00721101851ADDMA1999990101711MD1710101+9990REMSYN04801003 46/// /0604 11027 21072 30171 40185 57010=
0187010030999992014010215004+77000+015500FM-12+001299999V0200701N006019999999N012000199-00281-00651101841ADDAY111021AY211021GA1061+999991061GE19MSL   +99999+99999GF106991061990999999991991MA1999990101701MD1610091+9990MW1701REMSYN06001003 41662 60706 11028 21065 30170 40184 56009 77011 86500=
0089010030999992014010216004+77000+015500FM-12+001299999V0200601N005019999999N999999999-00251-00601101811ADDMA1999990101671MD1710091+9990REMSYN04801003 46/// /0605 11025 21060 30167 40181 57009=
0089010030999992014010217004+77000+015500FM-12+001299999V0200801N006019999999N999999999-00171-00531101751ADDMA1999990101611MD1710091+9990REMSYN04801003 46/// /0806 11017 21053 30161 40175 57009=
0247010030999992014010218004+77000+015500FM-12+001299999V0200701N006019999999N012000199-00161-00531101721ADDAA112000021AY171021AY211021GA1071+999991061GE19MSL   +99999+99999GF107991071990999999991991KA1120M-00121MA1999990101581MD1710111+9990MW1701OD139901001999REMSYN08201003 11662 70706 11016 21053 30158 40172 57011 69902 77071 875// 333 11012 91110=
0089010030999992014010219004+77000+015500FM-12+001299999V0200701N007019999999N999999999-00111-00601101691ADDMA1999990101551MD1710131+9990REMSYN04801003 46/// /0707 11011 21060 30155 40169 57013=
0089010030999992014010220004+77000+015500FM-12+001299999V0200701N006019999999N999999999-00101-00611101711ADDMA1999990101571MD1510051+9990REMSYN04801003 46/// /0706 11010 21061 30157 40171 55005=
0187010030999992014010221004+77000+015500FM-12+001299999V0200701N006019999999N012000199-00091-00581101691ADDAY171021AY221021GA1071+999991061GE19MSL   +99999+99999GF107991071990999999991991MA1999990101551MD1510031+9990MW1021REMSYN06001003 41662 70706 11009 21058 30155 40169 55003 70272 875//=
0089010030999992014010222004+77000+015500FM-12+001299999V0200701N008019999999N999999999-00101-00571101661ADDMA1999990101521MD1810031+9990REMSYN04801003 46/// /0708 11010 21057 30152 40166 58003=
0089010030999992014010223004+77000+015500FM-12+001299999V0200801N008019999999N999999999-00101-00681101661ADDMA1999990101521MD1710051+9990REMSYN04801003 46/// /0808 11010 21068 30152 40166 57005=
0228010030999992014010300004+77000+015500FM-12+001299999V0200701N008019999999N012000199-00111-00731101601ADDAA106000021AY171021AY221021GA1051+999991061GE19MSL   +99999+99999GF105991051990999999991991MA1999990101461MD1710081+9990MW1011OD139901301999REMSYN07601003 11662 50708 11011 21073 30146 40160 57008 69901 70172 855// 333 91113=
0089010030999992014010301004+77000+015500FM-12+001299999V0200601N009019999999N999999999-00101-00661101581ADDMA1999990101441MD1710101+9990REMSYN04801003 46/// /0609 11010 21066 30144 40158 57010=
0089010030999992014010302004+77000+015500FM-12+001299999V0200701N009019999999N999999999-00131-00751101551ADDMA1999990101411MD1610111+9990REMSYN04801003 46/// /0709 11013 21075 30141 40155 56011=
0187010030999992014010303004+77000+015500FM-12+001299999V0200701N008019999999N012000199-00161-00721101521ADDAY171021AY221021GA1051+999991061GE19MSL   +99999+99999GF105991051990999999991991MA1999990101381MD1710081+9990MW1221REMSYN06001003 41662 50708 11016 21072 30138 40152 57008 72272 855//=
0089010030999992014010304004+77000+015500FM-12+001299999V0200701N009019999999N999999999-00141-00761101511ADDMA1999990101371MD1710071+9990REMSYN04801003 46/// /0709 11014 21076 30137 40151 57007=
0089010030999992014010305004+77000+015500FM-12+001299999V0200701N009019999999N999999999-00141-00781101491ADDMA1999990101351MD1710061+9990REMSYN04801003 46/// /0709 11014 21078 30135 40149 57006=
0293010030999992014010306004+77000+015500FM-12+001299999V0200601N010019999999N012000199-00161-00741101411ADDAA112000021AA224000021AJ100063100060094AY171021AY231021GA1031+999991061GE19MSL   +99999+99999GF103991031990999999991991IA1289KA1240N-00181MA1999990101271MD1810091+9990MW1701OD139901701999REMSYN09401003 11662 30610 11016 21074 30127 40141 58009 69902 77073 83500 333 21018 48006 79999 91117=
0089010030999992014010307004+77000+015500FM-12+001299999V0200601N010019999999N999999999-00161-00761101431ADDMA1999990101291MD1710101+9990REMSYN04801003 46/// /0610 11016 21076 30129 40143 57010=
0089010030999992014010308004+77000+015500FM-12+001299999V0200601N014019999999N999999999-00161-00801101401ADDMA1999990101261MD1510111+9990REMSYN04801003 46/// /0614 11016 21080 30126 40140 55011=
0187010030999992014010309004+77000+015500FM-12+001299999V0200601N013019999999N012000199-00161-00821101411ADDAY171021AY231021GA1051+999991061GE19MSL   +99999+99999GF105991051990999999991991MA1999990101271MD1510031+9990MW1221REMSYN06001003 41562 50613 11016 21082 30127 40141 55003 72273 85500=
0089010030999992014010310004+77000+015500FM-12+001299999V0200701N011019999999N999999999-00161-00801101421ADDMA1999990101281MD1510011+9990REMSYN04801003 46/// /0711 11016 21080 30128 40142 55001=
0089010030999992014010311004+77000+015500FM-12+001299999V0200701N012019999999N999999999-00141-00801101351ADDMA1999990101211MD1810061+9990REMSYN04801003 46/// /0712 11014 21080 30121 40135 58006=
0228010030999992014010312004+77000+015500FM-12+001299999V0200601N012019999999N012000199-00131-00771101271ADDAA106000021AY171021AY231021GA1061+999991061GE19MSL   +99999+99999GF106991061990999999991991MA1999990101131MD1810081+9990MW1031OD139902201999REMSYN07601003 11562 60612 11013 21077 30113 40127 58008 69901 70373 865// 333 91122=
0089010030999992014010313004+77000+015500FM-12+001299999V0200601N013019999999N999999999-00111-00791101261ADDMA1999990101121MD1710161+9990REMSYN04801003 46/// /0613 11011 21079 30112 40126 57016=
0089010030999992014010314004+77000+015500FM-12+001299999V0200701N013019999999N999999999-00101-00761101221ADDMA1999990101081MD1810141+9990REMSYN04801003 46/// /0713 11010 21076 30108 40122 58014=
0187010030999992014010315004+77000+015500FM-12+001299999V0200601N013019999999N012000199-00101-00741101181ADDAY131021AY221021GA1081+999991061GE19MSL   +99999+99999GF108991081990999999991991MA1999990101041MD1510101+9990MW1361REMSYN06001003 41562 80613 11010 21074 30104 40118 55010 73632 885//=
0089010030999992014010316004+77000+015500FM-12+001299999V0200601N013019999999N999999999-00081-00721101161ADDMA1999990101021MD1610121+9990REMSYN04801003 46/// /0613 11008 21072 30102 40116 56012=
0089010030999992014010317004+77000+015500FM-12+001299999V0200601N014019999999N999999999-00091-00711101151ADDMA1999990101011MD1610111+9990REMSYN04801003 46/// /0614 11009 21071 30101 40115 56011=
0247010030999992014010318004+77000+015500FM-12+001299999V0200601N013019999999N012000199-00091-00711101071ADDAA112000021AY131021AY221021GA1071+999991061GE19MSL   +99999+99999GF107991071990999999991991KA1120M-00081MA1999990100931MD1810121+9990MW1701OD139902601999REMSYN08201003 11562 70613 11009 21071 30093 40107 58012 69902 77032 875// 333 11008 91126=
0089010030999992014010319004+77000+015500FM-12+001299999V0200701N011019999999N999999999-00111-00691101041ADDMA1999990100901MD1510071+9990REMSYN04801003 46/// /0711 11011 21069 30090 40104 55007=
0089010030999992014010320004+77000+015500FM-12+001299999V0200601N014019999999N999999999-00111-00601100961ADDMA1999990100821MD1610181+9990REMSYN04801003 46/// /0614 11011 21060 30082 40096 56018=
0187010030999992014010321004+77000+015500FM-12+001299999V0200601N016019999999N010000199-00121-00541100931ADDAY171021AY231021GA1021+999991061GE19MSL   +99999+99999GF102991021990999999991991MA1999990100791MD1610131+9990MW1361REMSYN06001003 41660 20616 11012 21054 30079 40093 56013 73673 82500=
0089010030999992014010322004+77000+015500FM-12+001299999V0200701N013019999999N999999999-00161-00471101041ADDMA1999990100901MD1510031+9990REMSYN04801003 46/// /0713 11016 21047 30090 40104 55003=
0089010030999992014010323004+77000+015500FM-12+001299999V0200601N009019999999N999999999-00111-00571101051ADDMA1999990100911MD1310071+9990REMSYN04801003 46/// /0609 11011 21057 30091 40105 53007=
0228010030999992014010400004+77000+015500FM-12+001299999V0200501N012019999999N010000199-00081-00551100991ADDAA106000021AY171021AY231021GA1031+999991061GE19MSL   +99999+99999GF103991031990999999991991MA1999990100851MD1900051+9990MW1361OD139902401999REMSYN07601003 11660 30512 11008 21055 30085 40099 50005 69901 73673 83500 333 91124=
0089010030999992014010401004+77000+015500FM-12+001299999V0200601N012019999999N999999999-00081-00521100991ADDMA1999990100851MD1810081+9990REMSYN04801003 46/// /0612 11008 21052 30085 40099 58008=
0089010030999992014010402004+77000+015500FM-12+001299999V0200501N011019999999N999999999-00071-00511100931ADDMA1999990100791MD1610111+9990REMSYN04801003 46/// /0511 11007 21051 30079 40093 56011=
0187010030999992014010403004+77000+015500FM-12+001299999V0200501N011019999999N008000199-00041-00521100911ADDAY171021AY231021GA1031+999991061GE19MSL   +99999+99999GF103991031990999999991991MA1999990100771MD1810081+9990MW1701REMSYN06001003 41658 30511 11004 21052 30077 40091 58008 77073 83500=
0089010030999992014010404004+77000+015500FM-12+001299999V0200601N012019999999N999999999-00081-00521100891ADDMA1999990100751MD1510071+9990REMSYN04801003 46/// /0612 11008 21052 30075 40089 55007=
0089010030999992014010405004+77000+015500FM-12+001299999V0200601N014019999999N999999999-00081-00551100821ADDMA1999990100681MD1810131+9990REMSYN04801003 46/// /0614 11008 21055 30068 40082 58013=
0293010030999992014010406004+77000+015500FM-12+001299999V0200601N014019999999N004000199-00091-00551100831ADDAA112000021AA224000021AJ100063100060094AY171021AY231021GA1031+999991061GE19MSL   +99999+99999GF103991031990999999991991IA1229KA1240N-00161MA1999990100691MD1510071+9990MW1381OD139902301999REMSYN09401003 11640 30614 11009 21055 30069 40083 55007 69902 73873 83500 333 21016 46006 79999 91123=
0089010030999992014010407004+77000+015500FM-12+001299999V0200601N012019999999N999999999-00111-00571100861ADDMA1999990100721MD1510051+9990REMSYN04801003 46/// /0612 11011 21057 30072 40086 55005=
0089010030999992014010408004+77000+015500FM-12+001299999V0200501N011019999999N999999999-00201-00621100961ADDMA1999990100821MD1310151+9990REMSYN04801003 46/// /0511 11020 21062 30082 40096 53015=
0203010030999992014010409004+77000+015500FM-12+001299999V0200601N012019999999N012000199-00171-00711100941ADDAY131021AY211021GA1991+999991021GA2031+999991061GE19MSL   +99999+99999GF104991990990999999991991MA1999990100801MD1900061+9990MW1361REMSYN06001003 41562 40612 11017 21071 30080 40094 50006 73631 83508=
0089010030999992014010410004+77000+015500FM-12+001299999V0200301N011019999999N999999999-00241-00661100991ADDMA1999990100851MD1310121+9990REMSYN04801003 46/// /0311 11024 21066 30085 40099 53012=
0089010030999992014010411004+77000+015500FM-12+001299999V0200401N013019999999N999999999-00231-00651100931ADDMA1999990100791MD1310021+9990REMSYN04801003 46/// /0413 11023 21065 30079 40093 53002=
0260010030999992014010412004+77000+015500FM-12+001299999V0200601N015019999999N008000199-00221-00721100881ADDAA106000021AY171021AY231021GA1051+999991061GA2991+999991021GA3991+999991031GE19MSL   +99999+99999GF107991051990999999991991MA1999990100741MD1810051+9990MW1701OD139902401999REMSYN07601003 11558 70615 11022 21072 30074 40088 58005 69901 77073 85548 333 91124=
0089010030999992014010413004+77000+015500FM-12+001299999V0200601N015019999999N999999999-00231-00701100911ADDMA1999990100771MD1510061+9990REMSYN04801003 46/// /0615 11023 21070 30077 40091 55006=
0089010030999992014010414004+77000+015500FM-12+001299999V0200601N015019999999N999999999-00251-00691100881ADDMA1999990100741MD1510011+9990REMSYN04801003 46/// /0615 11025 21069 30074 40088 55001=
0203010030999992014010415004+77000+015500FM-12+001299999V0200601N014019999999N010000199-00271-00761100891ADDAY171021AY231021GA1991+999991031GA2051+999991061GE19MSL   +99999+99999GF106991990990999999991991MA1999990100751MD1810011+9990MW1701REMSYN06001003 41560 60614 11027 21076 30075 40089 58001 77073 85540=
0089010030999992014010416004+77000+015500FM-12+001299999V0200601N014019999999N999999999-00341-00891100951ADDMA1999990100811MD1310061+9990REMSYN04801003 46/// /0614 11034 21089 30081 40095 53006=
0089010030999992014010417004+77000+015500FM-12+001299999V0200601N012019999999N999999999-00441-00891101001ADDMA1999990100861MD1310131+9990REMSYN04801003 46/// /0612 11044 21089 30086 40100 53013=
0247010030999992014010418004+77000+015500FM-12+001299999V0200601N013019999999N012000199-00451-00931101011ADDAA112000021AY171021AY231021GA1021+999991061GE19MSL   +99999+99999GF102991021990999999991991KA1120M-00081MA1999990100871MD1900111+9990MW1361OD139902701999REMSYN08201003 11662 20613 11045 21093 30087 40101 50011 69902 73673 82500 333 11008 91127=
0089010030999992014010419004+77000+015500FM-12+001299999V0200501N013019999999N999999999-00561-01001101051ADDMA1999990100911MD1310131+9990REMSYN04801003 46/// /0513 11056 21100 30091 40105 53013=
0089010030999992014010420004+77000+015500FM-12+001299999V0200701N011019999999N999999999-00501-00981101081ADDMA1999990100941MD1110071+9990REMSYN04801003 46/// /0711 11050 21098 30094 40108 51007=
0187010030999992014010421004+77000+015500FM-12+001299999V0200601N013019999999N012000199-00541-01001101071ADDAY171021AY231021GA1061+999991061GE19MSL   +99999+99999GF106991061990999999991991MA1999990100931MD1110071+9990MW1361REMSYN06001003 41662 60613 11054 21100 30093 40107 51007 73673 865//=
0089010030999992014010422004+77000+015500FM-12+001299999V0200601N014019999999N999999999-00611-01071101071ADDMA1999990100931MD1310041+9990REMSYN04801003 46/// /0614 11061 21107 30093 40107 53004=
0089010030999992014010423004+77000+015500FM-12+001299999V0200801N012019999999N999999999-00661-01131101171ADDMA1999990101031MD1310071+9990REMSYN04801003 46/// /0812 11066 21113 30103 40117 53007=
0247010030999992014010500004+77000+015500FM-12+001299999V0200801N014019999999N012000199-00781-01151101191ADDAA106000091AY171021AY231021GA1031+999991061GE19MSL   +99999+99999GF103991031990999999991991MA1999990101051MD1110131+9990MW1361OD139902501999REMSYN07601003 11662 30814 11078 21115 30105 40119 51013 69901 73673 83500 333 91125=EQDQ01  00002PRCP06
0089010030999992014010501004+77000+015500FM-12+001299999V0200801N016019999999N999999999-00891-01171101241ADDMA1999990101101MD1110151+9990REMSYN04801003 46/// /0816 11089 21117 30110 40124 51015=
0089010030999992014010502004+77000+015500FM-12+001299999V0200801N014019999999N999999999-00941-01291101291ADDMA1999990101151MD1210111+9990REMSYN04801003 46/// /0814 11094 21129 30115 40129 52011=
0187010030999992014010503004+77000+015500FM-12+001299999V0200701N014019999999N020000199-01021-01341101281ADDAY131021AY201021GA1021+999991061GE19MSL   +99999+99999GF102991021990999999991991MA1999990101131MD1110101+9990MW1361REMSYN06001003 41670 20714 11102 21134 30113 40128 51010 73630 82500=
0089010030999992014010504004+77000+015500FM-12+001299999V0200701N013019999999N999999999-01001-01381101311ADDMA1999990101161MD1110071+9990REMSYN04801003 46/// /0713 11100 21138 30116 40131 51007=
0254010030999992014010506004+77000+015500FM-12+001299999V0200601N013019999999N020000199-01101-01571101401ADDAA112000091AA224000021AJ100063100060094AY131021AY201021GA1021+999991061GE19MSL   +99999+99999GF102991021990999999991991IA1229MA1999990101251MD1210111+9990MW1361REMSYN08201003 11670 20613 11110 21157 30125 40140 52011 60002 73630 82500 333 46006 79999=
0089010030999992014010507004+77000+015500FM-12+001299999V0200601N013019999999N999999999-01151-01641101391ADDMA1999990101241MD1210101+9990REMSYN04801003 46/// /0613 11115 21164 30124 40139 52010=
0089010030999992014010508004+77000+015500FM-12+001299999V0200601N014019999999N999999999-01181-01651101451ADDMA1999990101301MD1900101+9990REMSYN04801003 46/// /0614 11118 21165 30130 40145 50010=
0203010030999992014010509004+77000+015500FM-12+001299999V0200701N013019999999N012000199-01181-01621101421ADDAY131021AY201021GA1991+999991021GA2031+999991061GE19MSL   +99999+99999GF103991990990999999991991MA1999990101271MD1900041+9990MW1361REMSYN06001003 41662 30713 11118 21162 30127 40142 50004 73630 83508=
0089010030999992014010510004+77000+015500FM-12+001299999V0200801N013019999999N999999999-01191-01691101501ADDMA1999990101351MD1110101+9990REMSYN04801003 46/// /0813 11119 21169 30135 40150 51010=
0089010030999992014010511004+77000+015500FM-12+001299999V0200701N013019999999N999999999-01201-01691101481ADDMA1999990101331MD1900021+9990REMSYN04801003 46/// /0713 11120 21169 30133 40148 50002=
0260010030999992014010512004+77000+015500FM-12+001299999V0200801N013019999999N017000199-01231-01751101531ADDAA106000091AY131021AY211021GA1021+999991061GA2991+999991021GA3991+999991031GE19MSL   +99999+99999GF107991021990999999991991MA1999990101381MD1110111+9990MW1361OD139902401999REMSYN07601003 11567 70813 11123 21175 30138 40153 51011 60001 73631 82546 333 91124=
0089010030999992014010513004+77000+015500FM-12+001299999V0200701N013019999999N999999999-01211-01711101571ADDMA1999990101421MD1310051+9990REMSYN04801003 46/// /0713 11121 21171 30142 40157 53005=
0089010030999992014010514004+77000+015500FM-12+001299999V0200801N013019999999N999999999-01181-01701101571ADDMA1999990101421MD1110071+9990REMSYN04801003 46/// /0813 11118 21170 30142 40157 51007=
0219010030999992014010515004+77000+015500FM-12+001299999V0200701N013019999999N012000199-01181-01651101601ADDAY131021AY221021GA1021+999991061GA2991+999991021GA3991+999991031GE19MSL   +99999+99999GF107991021990999999991991MA1999990101451MD1310041+9990MW1361REMSYN06001003 41562 70713 11118 21165 30145 40160 53004 73632 82546=
0089010030999992014010516004+77000+015500FM-12+001299999V0200801N012019999999N999999999-01201-01691101621ADDMA1999990101471MD1310051+9990REMSYN04801003 46/// /0812 11120 21169 30147 40162 53005=
0089010030999992014010517004+77000+015500FM-12+001299999V0200801N014019999999N999999999-01211-01701101611ADDMA1999990101461MD1900041+9990REMSYN04801003 46/// /0814 11121 21170 30146 40161 50004=
0279010030999992014010518004+77000+015500FM-12+001299999V0200701N014019999999N012000199-01191-01691101631ADDAA112000091AY131021AY221021GA1021+999991061GA2991+999991021GA3991+999991031GE19MSL   +99999+99999GF107991021990999999991991KA1120M-01071MA1999990101481MD1900001+9990MW1361OD139902101999REMSYN08201003 11562 70714 11119 21169 30148 40163 50000 60002 73632 82546 333 11107 91121=
0089010030999992014010519004+77000+015500FM-12+001299999V0200801N012019999999N999999999-01171-01671101641ADDMA1999990101491MD1510001+9990REMSYN04801003 46/// /0812 11117 21167 30149 40164 55000=
0089010030999992014010520004+77000+015500FM-12+001299999V0200801N012019999999N999999999-01191-01641101631ADDMA1999990101481MD1210041+9990REMSYN04801003 46/// /0812 11119 21164 30148 40163 52004=
0219010030999992014010521004+77000+015500FM-12+001299999V0200801N010019999999N012000199-01151-01641101691ADDAY131021AY221021GA1031+999991061GA2991+999991021GA3991+999991031GE19MSL   +99999+99999GF105991031990999999991991MA1999990101541MD1210061+9990MW1361REMSYN06001003 41662 50810 11115 21164 30154 40169 52006 73632 83538=
0089010030999992014010522004+77000+015500FM-12+001299999V0200801N012019999999N999999999-01171-01641101691ADDMA1999990101541MD1210031+9990REMSYN04801003 46/// /0812 11117 21164 30154 40169 52003=
0089010030999992014010523004+77000+015500FM-12+001299999V0200801N012019999999N999999999-01161-01651101711ADDMA1999990101561MD1310071+9990REMSYN04801003 46/// /0812 11116 21165 30156 40171 53007=
0260010030999992014010600004+77000+015500FM-12+001299999V0200701N010019999999N015000199-01161-01631101721ADDAA106000091AY131021AY211021GA1021+999991061GA2991+999991021GA3991+999991031GE19MSL   +99999+99999GF104991021990999999991991MA1999990101571MD1310071+9990MW1361OD139902001999REMSYN07601003 11665 40710 11116 21163 30157 40172 53007 60001 73631 82538 333 91120=
0089010030999992014010601004+77000+015500FM-12+001299999V0200701N011019999999N999999999-01171-01661101791ADDMA1999990101641MD1210101+9990REMSYN04801003 46/// /0711 11117 21166 30164 40179 52010=
0089010030999992014010602004+77000+015500FM-12+001299999V0200701N012019999999N999999999-01181-01631101811ADDMA1999990101661MD1110091+9990REMSYN04801003 46/// /0712 11118 21163 30166 40181 51009=
0219010030999992014010603004+77000+015500FM-12+001299999V0200601N010019999999N015000199-01131-01521101791ADDAY131021AY201021GA1021+999991061GA2991+999991021GA3991+999991031GE19MSL   +99999+99999GF103991021990999999991991MA1999990101641MD1110081+9990MW1361REMSYN06001003 41665 30610 11113 21152 30164 40179 51008 73630 82538=
0089010030999992014010604004+77000+015500FM-12+001299999V0200601N009019999999N999999999-01141-01521101841ADDMA1999990101691MD1900031+9990REMSYN04801003 46/// /0609 11114 21152 30169 40184 50003=
0089010030999992014010605004+77000+015500FM-12+001299999V0200601N009019999999N999999999-01081-01461101791ADDMA1999990101641MD1900001+9990REMSYN04801003 46/// /0609 11108 21146 30164 40179 50000=
0309010030999992014010606004+77000+015500FM-12+001299999V0200701N009019999999N030000199-01081-01461101801ADDAA112000091AA224000091AJ100063100060094AY131021AY201021GA1991+999991031GA2021+999991061GE19MSL   +99999+99999GF102991990990999999991991IA1229KA1240N-01211MA1999990101651MD1900001+9990MW1361OD139901901999REMSYN09401003 11680 20709 11108 21146 30165 40180 50000 60002 73630 82540 333 21121 46006 70000 91119=
0089010030999992014010607004+77000+015500FM-12+001299999V0200601N009019999999N999999999-01041-01421101791ADDMA1999990101641MD1510011+9990REMSYN04801003 46/// /0609 11104 21142 30164 40179 55001=
0089010030999992014010608004+77000+015500FM-12+001299999V0200701N010019999999N999999999-00991-01361101821ADDMA1999990101671MD1900021+9990REMSYN04801003 46/// /0710 11099 21136 30167 40182 50002=
0203010030999992014010609004+77000+015500FM-12+001299999V0200601N010019999999N020000199-00971-01401101791ADDAY131021AY201021GA1991+999991021GA2021+999991061GE19MSL   +99999+99999GF102991990990999999991991MA1999990101641MD1900031+9990MW1361REMSYN06001003 41570 20610 11097 21140 30164 40179 50003 73630 82508=
0089010030999992014010610004+77000+015500FM-12+001299999V0200601N010019999999N999999999-00931-01311101831ADDMA1999990101681MD1900031+9990REMSYN04801003 46/// /0610 11093 21131 30168 40183 50003=
0089010030999992014010611004+77000+015500FM-12+001299999V0200601N010019999999N999999999-00921-01331101871ADDMA1999990101721MD1310071+9990REMSYN04801003 46/// /0610 11092 21133 30172 40187 53007=
0260010030999992014010612004+77000+015500FM-12+001299999V0200501N009019999999N020000199-00911-01291101931ADDAA106000091AY131021AY201021GA1021+999991061GA2991+999991021GA3991+999991031GE19MSL   +99999+99999GF102991021990999999991991MA1999990101781MD1310081+9990MW1361OD139901901999REMSYN07601003 11570 20509 11091 21129 30178 40193 53008 60001 73630 82548 333 91119=
0089010030999992014010613004+77000+015500FM-12+001299999V0200601N009019999999N999999999-00931-01311101951ADDMA1999990101801MD1110071+9990REMSYN04801003 46/// /0609 11093 21131 30180 40195 51007=
0089010030999992014010614004+77000+015500FM-12+001299999V0200601N011019999999N999999999-00921-01301101891ADDMA1999990101741MD1900041+9990REMSYN04801003 46/// /0611 11092 21130 30174 40189 50004=
0203010030999992014010615004+77000+015500FM-12+001299999V0200601N008019999999N020000199-00951-01331101951ADDAY131021AY201021GA1991+999991031GA2031+999991081GE19MSL   +99999+99999GF104991990990999999991991MA1999990101801MD1310051+9990MW1361REMSYN06001003 41570 40608 11095 21133 30180 40195 53005 73630 83140=
0089010030999992014010616004+77000+015500FM-12+001299999V0200701N009019999999N999999999-00991-01371101951ADDMA1999990101801MD1900011+9990REMSYN04801003 46/// /0709 11099 21137 30180 40195 50001=
0089010030999992014010617004+77000+015500FM-12+001299999V0200601N011019999999N999999999-01031-01381101931ADDMA1999990101781MD1900011+9990REMSYN04801003 46/// /0611 11103 21138 30178 40193 50001=
0149010030999992014010618004+77000+015500FM-12+001299999V0200701N011019999999N999999999-01041-01421101901ADDAA199999919KA1120M-00891MA1999990101751MD1810051+9990OD139901601999REMSYN07001003 16/// /0711 11104 21142 30175 40190 58005 6//// 333 11089 91116=
0089010030999992014010619004+77000+015500FM-12+001299999V0200601N009019999999N999999999-01021-01431101941ADDMA1999990101791MD1510011+9990REMSYN04801003 46/// /0609 11102 21143 30179 40194 55001=
0089010030999992014010620004+77000+015500FM-12+001299999V0200601N009019999999N999999999-01091-01471101981ADDMA1999990101831MD1310051+9990REMSYN04801003 46/// /0609 11109 21147 30183 40198 53005=
0187010030999992014010621004+77000+015500FM-12+001299999V0200801N012019999999N015000199-01061-01421101961ADDAY131021AY201021GA1011+999991061GE19MSL   +99999+99999GF101991011990999999991991MA1999990101811MD1900071+9990MW1361REMSYN06001003 41665 10812 11106 21142 30181 40196 50007 73630 81500=
0204010030999992014010700004+77000+015500FM-12+001299999V0200701N011019999999N030000199-01011-01371101961ADDAA106000091AY131021AY201021GA1011+999991061GE19MSL   +99999+99999GF101991011990999999991991MA1999990101811MD1900011+9990MW1361REMSYN06601003 11680 10711 11101 21137 30181 40196 50001 60001 73630 81500=
0089010030999992014010701004+77000+015500FM-12+001299999V0200701N011019999999N999999999-01001-01361101971ADDMA1999990101821MD1810021+9990REMSYN04801003 46/// /0711 11100 21136 30182 40197 58002=
0089010030999992014010702004+77000+015500FM-12+001299999V0200601N010019999999N999999999-00991-01391102011ADDMA1999990101861MD1310031+9990REMSYN04801003 46/// /0610 11099 21139 30186 40201 53003=
0187010030999992014010703004+77000+015500FM-12+001299999V0200601N012019999999N015000199-00991-01341102011ADDAY131021AY201021GA1011+999991061GE19MSL   +99999+99999GF101991011990999999991991MA1999990101861MD1110051+9990MW1361REMSYN06001003 41665 10612 11099 21134 30186 40201 51005 73630 81500=
0089010030999992014010704004+77000+015500FM-12+001299999V0200601N011019999999N999999999-01021-01371102031ADDMA1999990101881MD1110051+9990REMSYN04801003 46/// /0611 11102 21137 30188 40203 51005=
0089010030999992014010705004+77000+015500FM-12+001299999V0200601N011019999999N999999999-01071-01401102051ADDMA1999990101901MD1310071+9990REMSYN04801003 46/// /0611 11107 21140 30190 40205 53007=
0274010030999992014010706004+77000+015500FM-12+001299999V0200601N012019999999N012000199-01051-01351102001ADDAA112000091AA224000091AJ100063100060094AY131021AY201021GA1021+999991061GE19MSL   +99999+99999GF102991021990999999991991IA1229MA1999990101851MD1900011+9990MW1361OD139901801999REMSYN08801003 11662 20612 11105 21135 30185 40200 50001 60002 73630 82500 333 46006 70000 91118=
0089010030999992014010707004+77000+015500FM-12+001299999V0200601N011019999999N999999999-01061-01391102061ADDMA1999990101911MD1210041+9990REMSYN04801003 46/// /0611 11106 21139 30191 40206 52004=
0089010030999992014010708004+77000+015500FM-12+001299999V0200701N011019999999N999999999-01031-01411102061ADDMA1999990101911MD1210031+9990REMSYN04801003 46/// /0711 11103 21141 30191 40206 52003=
0203010030999992014010709004+77000+015500FM-12+001299999V0200701N012019999999N012000199-01071-01421102111ADDAY131021AY201021GA1991+999991031GA2021+999991061GE19MSL   +99999+99999GF103991990990999999991991MA1999990101961MD1110081+9990MW1361REMSYN06001003 41562 30712 11107 21142 30196 40211 51008 73630 82540=
0089010030999992014010710004+77000+015500FM-12+001299999V0200701N013019999999N999999999-01061-01381102111ADDMA1999990101961MD1310031+9990REMSYN04801003 46/// /0713 11106 21138 30196 40211 53003=
0089010030999992014010711004+77000+015500FM-12+001299999V0200701N012019999999N999999999-01111-01441102151ADDMA1999990102001MD1210071+9990REMSYN04801003 46/// /0712 11111 21144 30200 40215 52007=
0244010030999992014010712004+77000+015500FM-12+001299999V0200501N010019999999N012000199-01161-01541102251ADDAA106000091AY131021AY201021GA1991+999991031GA2021+999991061GE19MSL   +99999+99999GF103991990990999999991991MA1999990102101MD1310121+9990MW1361OD139901901999REMSYN07601003 11562 30510 11116 21154 30210 40225 53012 60001 73630 82530 333 91119=
0089010030999992014010713004+77000+015500FM-12+001299999V0200601N011019999999N999999999-01171-01491102191ADDMA1999990102041MD1900071+9990REMSYN04801003 46/// /0611 11117 21149 30204 40219 50007=
0089010030999992014010714004+77000+015500FM-12+001299999V0200601N011019999999N999999999-01181-01541102211ADDMA1999990102061MD1900071+9990REMSYN04801003 46/// /0611 11118 21154 30206 40221 50007=
0187010030999992014010715004+77000+015500FM-12+001299999V0200501N009019999999N012000199-01221-01561102271ADDAY131021AY201021GA1021+999991061GE19MSL   +99999+99999GF102991021990999999991991MA1999990102121MD1310021+9990MW1361REMSYN06001003 41562 20509 11122 21156 30212 40227 53002 73630 82500=
0089010030999992014010716004+77000+015500FM-12+001299999V0200701N013019999999N999999999-01181-01531102211ADDMA1999990102061MD1900011+9990REMSYN04801003 46/// /0713 11118 21153 30206 40221 50001=
0089010030999992014010717004+77000+015500FM-12+001299999V0200701N012019999999N999999999-01191-01531102231ADDMA1999990102081MD1310031+9990REMSYN04801003 46/// /0712 11119 21153 30208 40223 53003=
0247010030999992014010718004+77000+015500FM-12+001299999V0200701N011019999999N012000199-01181-01531102251ADDAA112000091AY131021AY201021GA1021+999991061GE19MSL   +99999+99999GF102991021990999999991991KA1120M-01001MA1999990102101MD1510021+9990MW1361OD139902101999REMSYN08201003 11562 20711 11118 21153 30210 40225 55002 60002 73630 82500 333 11100 91121=
0089010030999992014010719004+77000+015500FM-12+001299999V0200701N011019999999N999999999-01231-01601102301ADDMA1999990102151MD1310091+9990REMSYN04801003 46/// /0711 11123 21160 30215 40230 53009=
0089010030999992014010720004+77000+015500FM-12+001299999V0200701N009019999999N999999999-01311-01711102381ADDMA1999990102231MD1310141+9990REMSYN04801003 46/// /0709 11131 21171 30223 40238 53014=
0187010030999992014010721004+77000+015500FM-12+001299999V0200601N008019999999N020000199-01351-01771102391ADDAY131021AY201021GA1011+999991061GE19MSL   +99999+99999GF101991011990999999991991MA1999990102241MD1310141+9990MW1361REMSYN06001003 41570 10608 11135 21177 30224 40239 53014 73630 81500=
0089010030999992014010722004+77000+015500FM-12+001299999V0200501N008019999999N999999999-01411-01861102421ADDMA1999990102271MD1110131+9990REMSYN04801003 46/// /0508 11141 21186 30227 40242 51013=
0089010030999992014010723004+77000+015500FM-12+001299999V0200601N008019999999N999999999-01431-01861102411ADDMA1999990102261MD1900031+9990REMSYN04801003 46/// /0608 11143 21186 30226 40241 50003=
0228010030999992014010800004+77000+015500FM-12+001299999V0200501N007019999999N020000199-01451-01891102391ADDAA106000091AY131021AY201021GA1011+999991061GE19MSL   +99999+99999GF101991011990999999991991MA1999990102241MD1810021+9990MW1021OD139901801999REMSYN07601003 11570 10507 11145 21189 30224 40239 58002 60001 70230 81500 333 91118=
0089010030999992014010801004+77000+015500FM-12+001299999V0200801N008019999999N999999999-01401-01901102411ADDMA1999990102261MD1510011+9990REMSYN04801003 46/// /0808 11140 21190 30226 40241 55001=
0089010030999992014010802004+77000+015500FM-12+001299999V0200801N011019999999N999999999-01371-01741102341ADDMA1999990102191MD1810061+9990REMSYN04801003 46/// /0811 11137 21174 30219 40234 58006=
0187010030999992014010803004+77000+015500FM-12+001299999V0200901N013019999999N050000199-01431-01801102371ADDAY131021AY201021GA1011+999991061GE19MSL   +99999+99999GF101991011990999999991991MA1999990102221MD1810041+9990MW1021REMSYN06001003 41684 10913 11143 21180 30222 40237 58004 70230 81500=
0089010030999992014010805004+77000+015500FM-12+001299999V0200801N012019999999N999999999-01351-01771102341ADDMA1999990102191MD1900001+9990REMSYN04801003 46/// /0812 11135 21177 30219 40234 50000=
0254010030999992014010806004+77000+015500FM-12+001299999V0200901N012019999999N050000199-01381-01781102351ADDAA112000091AA224000091AJ100063100060094AY131021AY201021GA1011+999991061GE19MSL   +99999+99999GF101991011990999999991991IA1229MA1999990102201MD1510011+9990MW1021REMSYN08201003 11684 10912 11138 21178 30220 40235 55001 60002 70230 81500 333 46006 70000=
0089010030999992014010807004+77000+015500FM-12+001299999V0200901N012019999999N999999999-01361-01821102381ADDMA1999990102231MD1310021+9990REMSYN04801003 46/// /0912 11136 21182 30223 40238 53002=
0089010030999992014010808004+77000+015500FM-12+001299999V0200901N012019999999N999999999-01301-01781102401ADDMA1999990102251MD1210061+9990REMSYN04801003 46/// /0912 11130 21178 30225 40240 52006=
0187010030999992014010809004+77000+015500FM-12+001299999V0200901N012019999999N050000199-01341-01771102401ADDAY101021AY201021GA1011+999991061GE19MSL   +99999+99999GF101991011990999999991991MA1999990102251MD1210031+9990MW1021REMSYN06001003 41684 10912 11134 21177 30225 40240 52003 70200 81500=
0089010030999992014010810004+77000+015500FM-12+001299999V0200701N010019999999N999999999-01261-01631102441ADDMA1999990102291MD1310071+9990REMSYN04801003 46/// /0710 11126 21163 30229 40244 53007=
0089010030999992014010811004+77000+015500FM-12+001299999V0200501N007019999999N999999999-01281-01731102491ADDMA1999990102341MD1310091+9990REMSYN04801003 46/// /0507 11128 21173 30234 40249 53009=
0228010030999992014010812004+77000+015500FM-12+001299999V0200401N006019999999N050000199-01221-01661102471ADDAA106000091AY101021AY201021GA1011+999991061GE19MSL   +99999+99999GF101991011990999999991991MA1999990102321MD1900081+9990MW1021OD139901601999REMSYN07601003 11684 10406 11122 21166 30232 40247 50008 60001 70200 81500 333 91116=
0089010030999992014010813004+77000+015500FM-12+001299999V0200601N006019999999N999999999-01261-01711102451ADDMA1999990102301MD1900001+9990REMSYN04801003 46/// /0606 11126 21171 30230 40245 50000=
0089010030999992014010814004+77000+015500FM-12+001299999V0200601N006019999999N999999999-01211-01601102441ADDMA1999990102291MD1510051+9990REMSYN04801003 46/// /0606 11121 21160 30229 40244 55005=
0187010030999992014010815004+77000+015500FM-12+001299999V0200701N006019999999N050000199-01241-01661102441ADDAY101021AY201021GA1011+999991061GE19MSL   +99999+99999GF101991011990999999991991MA1999990102291MD1510031+9990MW1021REMSYN06001003 41684 10706 11124 21166 30229 40244 55003 70200 81500=
0089010030999992014010816004+77000+015500FM-12+001299999V0200801N007019999999N999999999-01191-01611102401ADDMA1999990102251MD1710051+9990REMSYN04801003 46/// /0807 11119 21161 30225 40240 57005=
0089010030999992014010817004+77000+015500FM-12+001299999V0200701N006019999999N999999999-01361-01791102381ADDMA1999990102231MD1710051+9990REMSYN04801003 46/// /0706 11136 21179 30223 40238 57005=
0247010030999992014010818004+77000+015500FM-12+001299999V0200701N005019999999N050000199-01331-01731102371ADDAA112000091AY101021AY201021GA1011+999991061GE19MSL   +99999+99999GF101991011990999999991991KA1120M-01151MA1999990102221MD1610071+9990MW1021OD139901101999REMSYN08201003 11684 10705 11133 21173 30222 40237 56007 60002 70200 81500 333 11115 91111=
0089010030999992014010819004+77000+015500FM-12+001299999V0200501N004019999999N999999999-01311-01701102401ADDMA1999990102251MD1510001+9990REMSYN04801003 46/// /0504 11131 21170 30225 40240 55000=
0089010030999992014010820004+77000+015500FM-12+001299999V0200701N005019999999N999999999-01271-01691102411ADDMA1999990102261MD1310031+9990REMSYN04801003 46/// /0705 11127 21169 30226 40241 53003=
0187010030999992014010821004+77000+015500FM-12+001299999V0200601N005019999999N050000199-01291-01691102391ADDAY101021AY201021GA1011+999991061GE19MSL   +99999+99999GF101991011990999999991991MA1999990102241MD1900021+9990MW1021REMSYN06001003 41684 10605 11129 21169 30224 40239 50002 70200 81500=
0089010030999992014010823004+77000+015500FM-12+001299999V0200601N004019999999N999999999-01401-01781102341ADDMA1999990102191MD1810071+9990REMSYN04801003 46/// /0604 11140 21178 30219 40234 58007=
0228010030999992014010900004+77000+015500FM-12+001299999V0200701N003019999999N050000199-01301-01661102381ADDAA106000091AY101021AY201021GA1011+999991061GE19MSL   +99999+99999GF101991011990999999991991MA1999990102231MD1510011+9990MW1021OD139901001999REMSYN07601003 11684 10703 11130 21166 30223 40238 55001 60001 70200 81500 333 91110=
0089010030999992014010901004+77000+015500FM-12+001299999V0200501N003019999999N999999999-01271-01611102381ADDMA1999990102231MD1510011+9990REMSYN04801003 46/// /0503 11127 21161 30223 40238 55001=
0089010030999992014010902004+77000+015500FM-12+001299999V0200701N003019999999N999999999-01291-01651102391ADDMA1999990102241MD1900051+9990REMSYN04801003 46/// /0703 11129 21165 30224 40239 50005=
0187010030999992014010903004+77000+015500FM-12+001299999V0200501N004019999999N050000199-01341-01651102351ADDAY101021AY201021GA1011+999991061GE19MSL   +99999+99999GF101991011990999999991991MA1999990102201MD1810031+9990MW1021REMSYN06001003 41684 10504 11134 21165 30220 40235 58003 70200 81500=
0089010030999992014010904004+77000+015500FM-12+001299999V0200701N004019999999N999999999-01281-01541102311ADDMA1999990102161MD1810071+9990REMSYN04801003 46/// /0704 11128 21154 30216 40231 58007=
0089010030999992014010905004+77000+015500FM-12+001299999V0200801N005019999999N999999999-01241-01541102281ADDMA1999990102131MD1710111+9990REMSYN04801003 46/// /0805 11124 21154 30213 40228 57011=
0293010030999992014010906004+77000+015500FM-12+001299999V0200701N003019999999N015000199-01251-01521102291ADDAA112000091AA224000091AJ100063100060094AY101021AY201021GA1021+999991061GE19MSL   +99999+99999GF102991021990999999991991IA1229KA1240N-01441MA1999990102141MD1510051+9990MW1031OD139900601999REMSYN09401003 11665 20703 11125 21152 30214 40229 55005 60002 70300 82500 333 21144 46006 70000 91106=
0089010030999992014010907004+77000+015500FM-12+001299999V0200601N003019999999N999999999-01231-01531102281ADDMA1999990102131MD1510031+9990REMSYN04801003 46/// /0603 11123 21153 30213 40228 55003=
0089010030999992014010908004+77000+015500FM-12+001299999V0200501N003019999999N999999999-01191-01531102301ADDMA1999990102151MD1900011+9990REMSYN04801003 46/// /0503 11119 21153 30215 40230 50001=
0219010030999992014010909004+77000+015500FM-12+001299999V0200801N002019999999N015000199-01161-01481102311ADDAY101021AY201021GA1021+999991061GA2991+999991021GA3991+999991031GE19MSL   +99999+99999GF103991021990999999991991MA1999990102161MD1310011+9990MW1031REMSYN06001003 41665 30802 11116 21148 30216 40231 53001 70300 82548=
0089010030999992014010910004+77000+015500FM-12+001299999V0200601N003019999999N999999999-01221-01511102271ADDMA1999990102121MD1900001+9990REMSYN04801003 46/// /0603 11122 21151 30212 40227 50000=
0089010030999992014010911004+77000+015500FM-12+001299999V0200601N003019999999N999999999-01191-01441102241ADDMA1999990102091MD1810051+9990REMSYN04801003 46/// /0603 11119 21144 30209 40224 58005=
0260010030999992014010912004+77000+015500FM-12+001299999V0200901N004019999999N015000199-00931-01241102191ADDAA106000091AY101021AY201021GA1031+999991061GA2991+999991021GA3991+999991031GE19MSL   +99999+99999GF104991031990999999991991MA1999990102041MD1810111+9990MW1031OD139900601999REMSYN07601003 11565 40904 11093 21124 30204 40219 58011 60001 70300 83548 333 91106=
0089010030999992014010913004+77000+015500FM-12+001299999V0200901N005019999999N999999999-00921-01211102141ADDMA1999990101991MD1810131+9990REMSYN04801003 46/// /0905 11092 21121 30199 40214 58013=
0089010030999992014010914004+77000+015500FM-12+001299999V0200801N004019999999N999999999-00981-01261102071ADDMA1999990101921MD1710171+9990REMSYN04801003 46/// /0804 11098 21126 30192 40207 57017=
0219010030999992014010915004+77000+015500FM-12+001299999V0200601N002019999999N012000199-00951-01231102041ADDAY111021AY211021GA1031+999991061GA2991+999991021GA3991+999991031GE19MSL   +99999+99999GF107991031990999999991991MA1999990101891MD1610151+9990MW1031REMSYN06001003 41562 70602 11095 21123 30189 40204 56015 70311 83548=
0089010030999992014010916004+77000+015500FM-12+001299999V0200601N002019999999N999999999-00871-01191101981ADDMA1999990101831MD1610161+9990REMSYN04801003 46/// /0602 11087 21119 30183 40198 56016=
0089010030999992014010917004+77000+015500FM-12+001299999V0201001N001019999999N999999999-00781-01121101911ADDMA1999990101771MD1810151+9990REMSYN04801003 46/// /1001 11078 21112 30177 40191 58015=
0247010030999992014010918004+77000+015500FM-12+001299999V0200201N002019999999N012000199-00691-01051101871ADDAA112000021AY171021AY221021GA1081+999991061GE19MSL   +99999+99999GF108991081990999999991991KA1120M-00671MA1999990101731MD1710151+9990MW1701OD139900601999REMSYN08201003 11562 80202 11069 21105 30173 40187 57015 69902 77072 885// 333 11067 91106=
0089010030999992014010919004+77000+015500FM-12+001299999V0201301N003019999999N999999999-00551-00911101801ADDMA1999990101661MD1710171+9990REMSYN04801003 46/// /1303 11055 21091 30166 40180 57017=
0089010030999992014010920004+77000+015500FM-12+001299999V0201501N008019999999N999999999-00511-00801101701ADDMA1999990101561MD1810221+9990REMSYN04801003 46/// /1508 11051 21080 30156 40170 58022=
0203010030999992014010921004+77000+015500FM-12+001299999V0201601N010019999999N016000199-00451-00681101601ADDAY171021AY231021GA1991+999991051GA2061+999991061GE19MSL   +99999+99999GF108991990990999999991991MA1999990101461MD1810271+9990MW1701REMSYN06001003 41666 81610 11045 21068 30146 40160 58027 77073 8652/=
0089010030999992014010922004+77000+015500FM-12+001299999V0201801N007019999999N999999999-00381-00501101551ADDMA1999990101411MD1610241+9990REMSYN04801003 46/// /1807 11038 21050 30141 40155 56024=
0089010030999992014010923004+77000+015500FM-12+001299999V0202001N007019999999N999999999-00301-00411101461ADDMA1999990101321MD1710241+9990REMSYN04801003 46/// /2007 11030 21041 30132 40146 57024=
0244010030999992014011000004+77000+015500FM-12+001299999V0202101N009019999999N004000199-00201-00261101351ADDAA106000531AY171021AY231021GA1991+999991051GA2061+999991061GE19MSL   +99999+99999GF108991990990999999991991MA1999990101211MD1810231+9990MW1731OD139901401999REMSYN07601003 11540 82109 11020 21026 30121 40135 58023 69951 77373 8652/ 333 91114=
0089010030999992014011001004+77000+015500FM-12+001299999V0202601N004019999999N999999999-00281-00381101281ADDMA1999990101141MD1610271+9990REMSYN04801003 46/// /2604 11028 21038 30114 40128 56027=
0089010030999992014011002004+77000+015500FM-12+001299999V0202601N007019999999N999999999-00221-00321101201ADDMA1999990101061MD1610261+9990REMSYN04801003 46/// /2607 11022 21032 30106 40120 56026=
0187010030999992014011003004+77000+015500FM-12+001299999V0202601N004019999999N005000199-00231-00371101131ADDAY171021AY231021GA1071+999991061GE19MSL   +99999+99999GF107991071990999999991991MA1999990100991MD1710221+9990MW1701REMSYN06001003 41550 72604 11023 21037 30099 40113 57022 77073 875//=
0089010030999992014011004004+77000+015500FM-12+001299999V0202301N007019999999N999999999-00161-00231101041ADDMA1999990100901MD1710241+9990REMSYN04801003 46/// /2307 11016 21023 30090 40104 57024=
0089010030999992014011005004+77000+015500FM-12+001299999V0202401N007019999999N999999999-00151-00221100971ADDMA1999990100831MD1710231+9990REMSYN04801003 46/// /2407 11015 21022 30083 40097 57023=
0293010030999992014011006004+77000+015500FM-12+001299999V0202701N005019999999N002000199-00171-00261100891ADDAA112001031AA224001131AJ100113100110094AY171021AY231021GA1071+999991061GE19MSL   +99999+99999GF108991071990999999991991IA1289KA1240N-00681MA1999990100751MD1710241+9990MW1711OD139901301999REMSYN09401003 11520 82705 11017 21026 30075 40089 57024 60012 77173 875// 333 21068 48011 70011 91113=
0089010030999992014011007004+77000+015500FM-12+001299999V0202601N005019999999N999999999-00121-00251100861ADDMA1999990100721MD1610191+9990REMSYN04801003 46/// /2605 11012 21025 30072 40086 56019=
0089010030999992014011008004+77000+015500FM-12+001299999V0202601N006019999999N999999999-00101-00211100821ADDMA1999990100681MD1610141+9990REMSYN04801003 46/// /2606 11010 21021 30068 40082 56014=
0187010030999992014011009004+77000+015500FM-12+001299999V0202701N008019999999N004000199-00051-00161100801ADDAY171021AY231021GA1071+999991061GE19MSL   +99999+99999GF108991071990999999991991MA1999990100661MD1710081+9990MW1681REMSYN06001003 41440 82708 11005 21016 30066 40080 57008 76873 875//=
0089010030999992014011010004+77000+015500FM-12+001299999V0202701N008019999999N999999999+00001-00241100791ADDMA1999990100651MD1710071+9990REMSYN04801003 46/// /2708 10000 21024 30065 40079 57007=
0089010030999992014011011004+77000+015500FM-12+001299999V0202901N006019999999N999999999+00011-00361100801ADDMA1999990100661MD1510021+9990REMSYN04801003 46/// /2906 10001 21036 30066 40080 55002=
0228010030999992014011012004+77000+015500FM-12+001299999V0202701N005019999999N005000199-00041-00261100811ADDAA106000331AY171021AY251021GA1071+999991061GE19MSL   +99999+99999GF108991071990999999991991MA1999990100671MD1310011+9990MW1571OD139901301999REMSYN07601003 11450 82705 11004 21026 30067 40081 53001 69931 75775 875// 333 91113=
0089010030999992014011013004+77000+015500FM-12+001299999V0202501N005019999999N999999999-00111-00291100801ADDMA1999990100661MD1900011+9990REMSYN04801003 46/// /2505 11011 21029 30066 40080 50001=
0089010030999992014011014004+77000+015500FM-12+001299999V0202801N005019999999N999999999-00051-00361100821ADDMA1999990100681MD1410001+9990REMSYN04801003 46/// /2805 11005 21036 30068 40082 54000=
0187010030999992014011015004+77000+015500FM-12+001299999V0202801N006019999999N012000199-00021-00331100761ADDAY151021AY221021GA1071+999991061GE19MSL   +99999+99999GF108991071990999999991991MA1999990100621MD1810041+9990MW1241REMSYN06001003 41462 82806 11002 21033 30062 40076 58004 72452 875//=
0089010030999992014011016004+77000+015500FM-12+001299999V0202901N005019999999N999999999-00041-00401100781ADDMA1999990100641MD1510021+9990REMSYN04801003 46/// /2905 11004 21040 30064 40078 55002=
0089010030999992014011017004+77000+015500FM-12+001299999V0203001N006019999999N999999999-00051-00331100801ADDMA1999990100661MD1510011+9990REMSYN04801003 46/// /3006 11005 21033 30066 40080 55001=
0247010030999992014011018004+77000+015500FM-12+001299999V0203101N004019999999N005000199-00071-00341100831ADDAA112000331AY151021AY221021GA1071+999991061GE19MSL   +99999+99999GF108991071990999999991991KA1120M+00021MA1999990100691MD1210061+9990MW1561OD139901101999REMSYN08201003 11450 83104 11007 21034 30069 40083 52006 69932 75652 875// 333 10002 91111=
0089010030999992014011019004+77000+015500FM-12+001299999V0202501N003019999999N999999999-00161-00311100871ADDMA1999990100731MD1210081+9990REMSYN04801003 46/// /2503 11016 21031 30073 40087 52008=
0089010030999992014011020004+77000+015500FM-12+001299999V0202801N004019999999N999999999-00061-00361100891ADDMA1999990100751MD1210091+9990REMSYN04801003 46/// /2804 11006 21036 30075 40089 52009=
0187010030999992014011021004+77000+015500FM-12+001299999V0203001N005019999999N005000199-00071-00341100921ADDAY151021AY221021GA1071+999991061GE19MSL   +99999+99999GF108991071990999999991991MA1999990100781MD1210091+9990MW1561REMSYN06001003 41450 83005 11007 21034 30078 40092 52009 75652 875//=
0089010030999992014011022004+77000+015500FM-12+001299999V0203001N004019999999N999999999-00041-00351100921ADDMA1999990100781MD1210061+9990REMSYN04801003 46/// /3004 11004 21035 30078 40092 52006=
0089010030999992014011023004+77000+015500FM-12+001299999V0202901N004019999999N999999999-00071-00401100941ADDMA1999990100801MD1210041+9990REMSYN04801003 46/// /2904 11007 21040 30080 40094 52004=
0228010030999992014011100004+77000+015500FM-12+001299999V0202901N004019999999N010000199-00061-00401100951ADDAA106000021AY171021AY251021GA1071+999991061GE19MSL   +99999+99999GF108991071990999999991991MA1999990100811MD1210031+9990MW1701OD139900901999REMSYN07601003 11560 82904 11006 21040 30081 40095 52003 69901 77075 875// 333 91109=
0089010030999992014011101004+77000+015500FM-12+001299999V0203001N005019999999N999999999-00031-00411100961ADDMA1999990100821MD1210041+9990REMSYN04801003 46/// /3005 11003 21041 30082 40096 52004=
0187010030999992014011103004+77000+015500FM-12+001299999V0203001N007019999999N012000199+00011-00571100971ADDAY171021AY251021GA1071+999991061GE19MSL   +99999+99999GF108991071990999999991991MA1999990100831MD1210021+9990MW1681REMSYN06001003 41462 83007 10001 21057 30083 40097 52002 76875 875//=
0089010030999992014011104004+77000+015500FM-12+001299999V0202901N006019999999N999999999-00011-00491100991ADDMA1999990100851MD1210021+9990REMSYN04801003 46/// /2906 11001 21049 30085 40099 52002=
0089010030999992014011105004+77000+015500FM-12+001299999V0203001N004019999999N999999999-00051-00491101001ADDMA1999990100861MD1210031+9990REMSYN04801003 46/// /3004 11005 21049 30086 40100 52003=
0254010030999992014011106004+77000+015500FM-12+001299999V0202901N005019999999N012000199-00031-00541101021ADDAA112000021AA224000331AJ100093100090094AY171021AY251021GA1071+999991061GE19MSL   +99999+99999GF108991071990999999991991IA1249MA1999990100881MD1210041+9990MW1701REMSYN08201003 11562 82905 11003 21054 30088 40102 52004 69902 77075 875// 333 44009 70003=
0089010030999992014011107004+77000+015500FM-12+001299999V0202801N006019999999N999999999-00041-00521101031ADDMA1999990100891MD1210051+9990REMSYN04801003 46/// /2806 11004 21052 30089 40103 52005=
0089010030999992014011108004+77000+015500FM-12+001299999V0202901N007019999999N999999999-00021-00501101061ADDMA1999990100921MD1210061+9990REMSYN04801003 46/// /2907 11002 21050 30092 40106 52006=
0187010030999992014011109004+77000+015500FM-12+001299999V0202901N006019999999N010000199-00021-00511101111ADDAY171021AY251021GA1071+999991061GE19MSL   +99999+99999GF108991071990999999991991MA1999990100971MD1310091+9990MW1561REMSYN06001003 41460 82906 11002 21051 30097 40111 53009 75675 875//=
0089010030999992014011110004+77000+015500FM-12+001299999V0202801N006019999999N999999999+00001-00481101131ADDMA1999990100991MD1210081+9990REMSYN04801003 46/// /2806 10000 21048 30099 40113 52008=
0089010030999992014011111004+77000+015500FM-12+001299999V0202801N006019999999N999999999-00011-00441101101ADDMA1999990100961MD1900041+9990REMSYN04801003 46/// /2806 11001 21044 30096 40110 50004=
0228010030999992014011112004+77000+015500FM-12+001299999V0202801N006019999999N012000199-00011-00421101091ADDAA106000021AY171021AY251021GA1071+999991061GE19MSL   +99999+99999GF108991071990999999991991MA1999990100951MD1710011+9990MW1661OD139901401999REMSYN07601003 11562 82806 11001 21042 30095 40109 57001 69901 76675 875// 333 91114=
0089010030999992014011113004+77000+015500FM-12+001299999V0202801N008019999999N999999999+00011-00511101111ADDMA1999990100971MD1510031+9990REMSYN04801003 46/// /2808 10001 21051 30097 40111 55003=
0108010030999992014011114004+77000+015500FM-12+001299999V0202801N008019999999N999999999-00011-00371101101ADDMA1999990100961MD1410009+9990REMSYN04801003 46/// /2808 11001 21037 30096 40110 54001=EQDQ01.1    3APC3  
0187010030999992014011115004+77000+015500FM-12+001299999V0202801N007019999999N012000199-00011-00311101111ADDAY151021AY221021GA1071+999991061GE19MSL   +99999+99999GF108991071990999999991991MA1999990100971MD1900021+9990MW1661REMSYN06001003 41562 82807 11001 21031 30097 40111 50002 76652 875//=
0089010030999992014011116004+77000+015500FM-12+001299999V0203001N006019999999N999999999+00041-00461101141ADDMA1999990101001MD1310051+9990REMSYN04801003 46/// /3006 10004 21046 30100 40114 53005=
0089010030999992014011117004+77000+015500FM-12+001299999V0203001N005019999999N999999999+00001-00341101171ADDMA1999990101031MD1210071+9990REMSYN04801003 46/// /3005 10000 21034 30103 40117 52007=
0247010030999992014011118004+77000+015500FM-12+001299999V0202801N006019999999N012000199+00061-00541101171ADDAA112000021AY161021AY251021GA1071+999991061GE19MSL   +99999+99999GF108991071990999999991991KA1120M+00061MA1999990101031MD1110071+9990MW1021OD139901401999REMSYN08201003 11562 82806 10006 21054 30103 40117 51007 69902 70265 875// 333 10006 91114=
0089010030999992014011119004+77000+015500FM-12+001299999V0202901N007019999999N999999999+00051-00571101231ADDMA1999990101091MD1210081+9990REMSYN04801003 46/// /2907 10005 21057 30109 40123 52008=
0089010030999992014011120004+77000+015500FM-12+001299999V0203001N006019999999N999999999+00041-00561101281ADDMA1999990101141MD1310111+9990REMSYN04801003 46/// /3006 10004 21056 30114 40128 53011=
0187010030999992014011121004+77000+015500FM-12+001299999V0202901N007019999999N022000199+00031-00531101311ADDAY121021AY221021GA1071+999991061GE19MSL   +99999+99999GF107991071990999999991991MA1999990101171MD1210131+9990MW1021REMSYN06001003 41572 72907 10003 21053 30117 40131 52013 70222 875//=
0089010030999992014011122004+77000+015500FM-12+001299999V0202901N006019999999N999999999+00041-00581101331ADDMA1999990101191MD1110101+9990REMSYN04801003 46/// /2906 10004 21058 30119 40133 51010=
0089010030999992014011123004+77000+015500FM-12+001299999V0202901N006019999999N999999999+00021-00621101361ADDMA1999990101221MD1210091+9990REMSYN04801003 46/// /2906 10002 21062 30122 40136 52009=
0228010030999992014011200004+77000+015500FM-12+001299999V0203001N004019999999N050000199+00011-00611101401ADDAA106000091AY121021AY221021GA1071+999991061GE19MSL   +99999+99999GF107991071990999999991991MA1999990101261MD1210091+9990MW1021OD139901301999REMSYN07601003 11584 73004 10001 21061 30126 40140 52009 60001 70222 875// 333 91113=
0089010030999992014011201004+77000+015500FM-12+001299999V0203001N005019999999N999999999+00001-00531101451ADDMA1999990101311MD1210111+9990REMSYN04801003 46/// /3005 10000 21053 30131 40145 52011=
0089010030999992014011202004+77000+015500FM-12+001299999V0202901N004019999999N999999999+00001-00511101461ADDMA1999990101321MD1210101+9990REMSYN04801003 46/// /2904 10000 21051 30132 40146 52010=
0187010030999992014011203004+77000+015500FM-12+001299999V0203101N007019999999N050000199+00011-00591101501ADDAY121021AY221021GA1071+999991061GE19MSL   +99999+99999GF107991071990999999991991MA1999990101361MD1210111+9990MW1021REMSYN06001003 41584 73107 10001 21059 30136 40150 52011 70222 875//=
0089010030999992014011204004+77000+015500FM-12+001299999V0203001N006019999999N999999999+00001-00511101511ADDMA1999990101371MD1210071+9990REMSYN04801003 46/// /3006 10000 21051 30137 40151 52007=
0089010030999992014011205004+77000+015500FM-12+001299999V0203101N006019999999N999999999+00021-00601101531ADDMA1999990101391MD1210071+9990REMSYN04801003 46/// /3106 10002 21060 30139 40153 52007=
0293010030999992014011206004+77000+015500FM-12+001299999V0203001N006019999999N035000199+00011-00611101521ADDAA112000091AA224000021AJ100093100090094AY121021AY221021GA1071+999991061GE19MSL   +99999+99999GF107991071990999999991991IA1249KA1240N-00021MA1999990101381MD1210031+9990MW1021OD139901301999REMSYN09401003 11581 73006 10001 21061 30138 40152 52003 60002 70222 875// 333 21002 44009 79999 91113=
0089010030999992014011207004+77000+015500FM-12+001299999V0203001N006019999999N999999999+00021-00581101581ADDMA1999990101441MD1310061+9990REMSYN04801003 46/// /3006 10002 21058 30144 40158 53006=
0089010030999992014011208004+77000+015500FM-12+001299999V0203101N005019999999N999999999+00041-00621101621ADDMA1999990101481MD1310091+9990REMSYN04801003 46/// /3105 10004 21062 30148 40162 53009=
0187010030999992014011209004+77000+015500FM-12+001299999V0203001N004019999999N050000199+00021-00581101651ADDAY121021AY221021GA1071+999991061GE19MSL   +99999+99999GF107991071990999999991991MA1999990101511MD1210121+9990MW1021REMSYN06001003 41584 73004 10002 21058 30151 40165 52012 70222 875//=
0089010030999992014011210004+77000+015500FM-12+001299999V0203101N005019999999N999999999+00051-00591101701ADDMA1999990101561MD1210121+9990REMSYN04801003 46/// /3105 10005 21059 30156 40170 52012=
0089010030999992014011211004+77000+015500FM-12+001299999V0203201N003019999999N999999999+00041-00581101741ADDMA1999990101601MD1210111+9990REMSYN04801003 46/// /3203 10004 21058 30160 40174 52011=
0228010030999992014011212004+77000+015500FM-12+001299999V0203101N003019999999N050000199+00031-00611101751ADDAA106000091AY121021AY221021GA1071+999991061GE19MSL   +99999+99999GF107991071990999999991991MA1999990101611MD1110101+9990MW1021OD139901401999REMSYN07601003 11584 73103 10003 21061 30161 40175 51010 60001 70222 875// 333 91114=
0089010030999992014011213004+77000+015500FM-12+001299999V0203101N004019999999N999999999+00051-00611101761ADDMA1999990101621MD1210061+9990REMSYN04801003 46/// /3104 10005 21061 30162 40176 52006=
0089010030999992014011214004+77000+015500FM-12+001299999V0203101N003019999999N999999999+00031-00591101781ADDMA1999990101641MD1210041+9990REMSYN04801003 46/// /3103 10003 21059 30164 40178 52004=
0187010030999992014011215004+77000+015500FM-12+001299999V0203001N003019999999N050000199+00021-00661101781ADDAY121021AY221021GA1061+999991061GE19MSL   +99999+99999GF106991061990999999991991MA1999990101641MD1210031+9990MW1011REMSYN06001003 41584 63003 10002 21066 30164 40178 52003 70122 86500=
0089010030999992014011216004+77000+015500FM-12+001299999V0203301N003019999999N999999999+00041-00661101781ADDMA1999990101641MD1210031+9990REMSYN04801003 46/// /3303 10004 21066 30164 40178 52003=
0089010030999992014011217004+77000+015500FM-12+001299999V0203201N003019999999N999999999+00031-00701101791ADDMA1999990101651MD1210021+9990REMSYN04801003 46/// /3203 10003 21070 30165 40179 52002=
0247010030999992014011218004+77000+015500FM-12+001299999V0203201N002019999999N050000199+00011-00671101811ADDAA112000091AY121021AY221021GA1051+999991061GE19MSL   +99999+99999GF105991051990999999991991KA1120M+00061MA1999990101671MD1210031+9990MW1011OD139901101999REMSYN08201003 11684 53202 10001 21067 30167 40181 52003 60002 70122 85500 333 10006 91111=
0089010030999992014011219004+77000+015500FM-12+001299999V0203501N001019999999N999999999-00101-00631101821ADDMA1999990101681MD1210041+9990REMSYN04801003 46/// /3501 11010 21063 30168 40182 52004=
0089010030999992014011220004+77000+015500FM-12+001299999V0201201N002019999999N999999999-00221-00591101861ADDMA1999990101721MD1210061+9990REMSYN04801003 46/// /1202 11022 21059 30172 40186 52006=
0187010030999992014011221004+77000+015500FM-12+001299999V0203601N001019999999N050000199-00181-00601101881ADDAY111021AY211021GA1031+999991061GE19MSL   +99999+99999GF103991031990999999991991MA1999990101741MD1210071+9990MW1011REMSYN06001003 41684 33601 11018 21060 30174 40188 52007 70111 83500=
0089010030999992014011222004+77000+015500FM-12+001299999V0200801N001019999999N999999999-00311-00661101891ADDMA1999990101751MD1210071+9990REMSYN04801003 46/// /0801 11031 21066 30175 40189 52007=
0089010030999992014011223004+77000+015500FM-12+001299999V0200501N001019999999N999999999-00371-00751101911ADDMA1999990101771MD1210061+9990REMSYN04801003 46/// /0501 11037 21075 30177 40191 52006=
0130010030999992014011300004+77000+015500FM-12+001299999V0200701N002019999999N999999999-00331-00671101931ADDAA199999919MA1999990101791MD1210051+9990OD139900301999REMSYN06401003 16/// /0702 11033 21067 30179 40193 52005 6//// 333 91103=
0089010030999992014011301004+77000+015500FM-12+001299999V0201801N001019999999N999999999-00421-00771101961ADDMA1999990101821MD1210071+9990REMSYN04801003 46/// /1801 11042 21077 30182 40196 52007=
0089010030999992014011302004+77000+015500FM-12+001299999V0200801N002019999999N999999999-00371-00721101991ADDMA1999990101851MD1210071+9990REMSYN04801003 46/// /0802 11037 21072 30185 40199 52007=
0187010030999992014011303004+77000+015500FM-12+001299999V0203601N002019999999N050000199-00271-00831102001ADDAY101021AY201021GA1011+999991061GE19MSL   +99999+99999GF101991011990999999991991MA1999990101861MD1210071+9990MW1011REMSYN06001003 41684 13602 11027 21083 30186 40200 52007 70100 81500=
0089010030999992014011304004+77000+015500FM-12+001299999V0200201N001019999999N999999999-00451-00901102011ADDMA1999990101871MD1210051+9990REMSYN04801003 46/// /0201 11045 21090 30187 40201 52005=
0089010030999992014011305004+77000+015500FM-12+001299999V0200401N001019999999N999999999-00391-00851102051ADDMA1999990101911MD1210061+9990REMSYN04801003 46/// /0401 11039 21085 30191 40205 52006=
0276010030999992014011306004+77000+015500FM-12+001299999V0200701N003019999999N050000199-00441-00821102061ADDAA199999919AJ100093100090094AY101021AY201021GA1011+999991061GE19MSL   +99999+99999GF101991011990999999991991IA1249KA1240N-00491MA1999990101921MD1210061+9990MW1021OD139900401999REMSYN08801003 11684 10703 11044 21082 30192 40206 52006 6//// 70200 81500 333 21049 44009 91104=
0089010030999992014011307004+77000+015500FM-12+001299999V0200601N002019999999N999999999-00421-00801102091ADDMA1999990101951MD1210071+9990REMSYN04801003 46/// /0602 11042 21080 30195 40209 52007=
0089010030999992014011308004+77000+015500FM-12+001299999V0201201N001019999999N999999999-00411-00761102131ADDMA1999990101991MD1210081+9990REMSYN04801003 46/// /1201 11041 21076 30199 40213 52008=
0203010030999992014011309004+77000+015500FM-12+001299999V0203601N001019999999N050000199-00371-00891102151ADDAY101021AY201021GA1991+999991021GA2021+999991061GE19MSL   +99999+99999GF104991990990999999991991MA1999990102011MD1210081+9990MW1031REMSYN06001003 41684 43601 11037 21089 30201 40215 52008 70300 82508=
0089010030999992014011310004+77000+015500FM-12+001299999V0200501N002019999999N999999999-00421-00881102151ADDMA1999990102011MD1900061+9990REMSYN04801003 46/// /0502 11042 21088 30201 40215 50006=
0089010030999992014011311004+77000+015500FM-12+001299999V0200701N001019999999N999999999-00301-00731102141ADDMA1999990102001MD1900011+9990REMSYN04801003 46/// /0701 11030 21073 30200 40214 50001=
0244010030999992014011312004+77000+015500FM-12+001299999V0200701N001019999999N050000199-00381-00791102151ADDAA199999919AY101021AY201021GA1991+999991031GA2021+999991061GE19MSL   +99999+99999GF104991990990999999991991MA1999990102011MD1410001+9990MW1021OD139900401999REMSYN07601003 11784 40701 11038 21079 30201 40215 54000 6//// 70200 82540 333 91104=
0089010030999992014011313004+77000+015500FM-12+001299999V0201501N003019999999N999999999-00261-00691102151ADDMA1999990102011MD1410001+9990REMSYN04801003 46/// /1503 11026 21069 30201 40215 54000=
0089010030999992014011314004+77000+015500FM-12+001299999V0201001N002019999999N999999999-00161-00601102161ADDMA1999990102021MD1210021+9990REMSYN04801003 46/// /1002 11016 21060 30202 40216 52002=
0203010030999992014011315004+77000+015500FM-12+001299999V0203501N002019999999N050000199-00151-00811102141ADDAY101021AY201021GA1991+999991031GA2021+999991061GE19MSL   +99999+99999GF104991990990999999991991MA1999990102001MD1410001+9990MW1021REMSYN06001003 41684 43502 11015 21081 30200 40214 54000 70200 82540=
0089010030999992014011316004+77000+015500FM-12+001299999V0203101N003019999999N999999999-00091-00791102151ADDMA1999990102011MD1410001+9990REMSYN04801003 46/// /3103 11009 21079 30201 40215 54000=
0089010030999992014011317004+77000+015500FM-12+001299999V0203101N003019999999N999999999-00121-00821102171ADDMA1999990102031MD1510001+9990REMSYN04801003 46/// /3103 11012 21082 30203 40217 55000=
0276010030999992014011318004+77000+015500FM-12+001299999V0200801N002019999999N050000199-00271-00881102171ADDAA199999919AJ199991999999999AY101021AY201021GA1021+999991061GE19MSL   +99999+99999GF102991021990999999991991IA1249KA1120M-00071MA1999990102031MD1210021+9990MW1011OD139900601999REMSYN08801003 11684 20802 11027 21088 30203 40217 52002 6//// 70100 82500 333 11007 44/// 91106=
0089010030999992014011319004+77000+015500FM-12+001299999V0200501N002019999999N999999999-00311-00811102161ADDMA1999990102021MD1210011+9990REMSYN04801003 46/// /0502 11031 21081 30202 40216 52001=
0089010030999992014011320004+77000+015500FM-12+001299999V0203101N004019999999N999999999-00221-00641102171ADDMA1999990102031MD1510011+9990REMSYN04801003 46/// /3104 11022 21064 30203 40217 55001=
0203010030999992014011321004+77000+015500FM-12+001299999V0203301N001019999999N050000199-00451-00901102191ADDAY101021AY201021GA1991+999991031GA2011+999991081GE19MSL   +99999+99999GF101991990990999999991991MA1999990102051MD1210021+9990MW1011REMSYN06001003 41684 13301 11045 21090 30205 40219 52002 70100 81130=
0089010030999992014011322004+77000+015500FM-12+001299999V0200601N002019999999N999999999-00471-00931102221ADDMA1999990102081MD1210061+9990REMSYN04801003 46/// /0602 11047 21093 30208 40222 52006=
0089010030999992014011323004+77000+015500FM-12+001299999V0200301N001019999999N999999999-00481-00891102231ADDMA1999990102091MD1210071+9990REMSYN04801003 46/// /0301 11048 21089 30209 40223 52007=
0276010030999992014011400004+77000+015500FM-12+001299999V0200601N001019999999N050000199-00441-00891102231ADDAA199999919AJ199991999999999AY101021AY201021GA1999+999991021GE19MSL   +99999+99999GF101991001990999999991991IA1249MA1999990102091MD1110051+9990MW1011OD139900701999REMSYN08201003 11984 10601 11044 21089 30209 40223 51005 6//// 70100 80008 333 44/// 91107=EQDQ01    003SCCGA1
0089010030999992014011401004+77000+015500FM-12+001299999V0200301N002019999999N999999999-00621-01131102261ADDMA1999990102121MD1210041+9990REMSYN04801003 46/// /0302 11062 21113 30212 40226 52004=
0089010030999992014011402004+77000+015500FM-12+001299999V0200901N004019999999N999999999-00541-01031102251ADDMA1999990102111MD1900021+9990REMSYN04801003 46/// /0904 11054 21103 30211 40225 50002=
0206010030999992014011403004+77000+015500FM-12+001299999V0200601N003019999999N050000199-00601-01221102291ADDAY111021AY211021GA1999+999991001GE19MSL   +99999+99999GF105991001990999999991991MA1999990102151MD1210061+9990MW1031REMSYN06001003 41984 50603 11060 21122 30215 40229 52006 70311 80004=EQDQ01    003SCCGA1
0089010030999992014011404004+77000+015500FM-12+001299999V0201001N007019999999N999999999-00401-00731102321ADDMA1999990102181MD1310061+9990REMSYN04801003 46/// /1007 11040 21073 30218 40232 53006=
0089010030999992014011405004+77000+015500FM-12+001299999V0200801N004019999999N999999999-00431-00801102361ADDMA1999990102221MD1210101+9990REMSYN04801003 46/// /0804 11043 21080 30222 40236 52010=
0309010030999992014011406004+77000+015500FM-12+001299999V0200601N006019999999N050000199-00401-00931102391ADDAA124000091AA299999919AJ100093100090094AY111021AY211021GA1991+999991021GA2011+999991031GE19MSL   +99999+99999GF104991990990999999991991IA1249KA1240N-00731MA1999990102251MD1900091+9990MW1011OD139901001999REMSYN09401003 11984 40606 11040 21093 30225 40239 50009 6//// 70111 81038 333 21073 44009 70000 91110=
0089010030999992014011407004+77000+015500FM-12+001299999V0200701N005019999999N999999999-00441-00971102431ADDMA1999990102291MD1210111+9990REMSYN04801003 46/// /0705 11044 21097 30229 40243 52011=
0089010030999992014011408004+77000+015500FM-12+001299999V0200501N007019999999N999999999-00441-00951102481ADDMA1999990102341MD1310131+9990REMSYN04801003 46/// /0507 11044 21095 30234 40248 53013=
0219010030999992014011409004+77000+015500FM-12+001299999V0200501N007019999999N030000199-00431-00911102471ADDAY111021AY211021GA1011+999991061GA2991+999991021GA3991+999991031GE19MSL   +99999+99999GF106991011990999999991991MA1999990102331MD1900091+9990MW1031REMSYN06001003 41680 60507 11043 21091 30233 40247 50009 70311 81536=
0089010030999992014011410004+77000+015500FM-12+001299999V0200501N005019999999N999999999-00481-00891102511ADDMA1999990102371MD1110081+9990REMSYN04801003 46/// /0505 11048 21089 30237 40251 51008=
0089010030999992014011411004+77000+015500FM-12+001299999V0200501N006019999999N999999999-00471-00881102541ADDMA1999990102401MD1210061+9990REMSYN04801003 46/// /0506 11047 21088 30240 40254 52006=
0289010030999992014011412004+77000+015500FM-12+001299999V0200701N005019999999N030000199-00631-00961102531ADDAA199999919AJ199991999999999AY111021AY211021GA1011+999991061GA2991+999991021GA3991+999991031GE19MSL   +99999+99999GF105991011990999999991991IA1249MA1999990102391MD1900051+9990MW1011OD139901001999REMSYN08201003 11780 50705 11063 21096 30239 40253 50005 6//// 70111 81538 333 44/// 91110=
0089010030999992014011413004+77000+015500FM-12+001299999V0200701N005019999999N999999999-00561-00891102531ADDMA1999990102391MD1900011+9990REMSYN04801003 46/// /0705 11056 21089 30239 40253 50001=
0089010030999992014011414004+77000+015500FM-12+001299999V0200401N005019999999N999999999-00531-00921102561ADDMA1999990102421MD1510011+9990REMSYN04801003 46/// /0405 11053 21092 30242 40256 55001=
0219010030999992014011415004+77000+015500FM-12+001299999V0200401N005019999999N030000199-00531-00921102561ADDAY121021AY221021GA1011+999991061GA2991+999991021GA3991+999991031GE19MSL   +99999+99999GF107991011990999999991991MA1999990102421MD1210031+9990MW1031REMSYN06001003 41580 70405 11053 21092 30242 40256 52003 70322 81536=
0089010030999992014011416004+77000+015500FM-12+001299999V0200601N004019999999N999999999-00561-00911102581ADDMA1999990102441MD1210061+9990REMSYN04801003 46/// /0604 11056 21091 30244 40258 52006=
0089010030999992014011417004+77000+015500FM-12+001299999V0200801N004019999999N999999999-00541-00841102581ADDMA1999990102441MD1210031+9990REMSYN04801003 46/// /0804 11054 21084 30244 40258 52003=
0292010030999992014011418004+77000+015500FM-12+001299999V0200501N004019999999N020000199-00561-00861102581ADDAA112000091AJ199991999999999AY121021AY221021GA1991+999991021GA2061+999991061GE19MSL   +99999+99999GF107991990990999999991991IA1249KA1120M-00371MA1999990102441MD1900031+9990MW1031OD139900901999REMSYN08801003 11570 70504 11056 21086 30244 40258 50003 60002 70322 86508 333 11037 44/// 91109=
0089010030999992014011419004+77000+015500FM-12+001299999V0200501N005019999999N999999999-00431-00801102551ADDMA1999990102411MD1810031+9990REMSYN04801003 46/// /0505 11043 21080 30241 40255 58003=
0089010030999992014011420004+77000+015500FM-12+001299999V0200501N005019999999N999999999-00401-00801102491ADDMA1999990102351MD1810091+9990REMSYN04801003 46/// /0505 11040 21080 30235 40249 58009=
0203010030999992014011421004+77000+015500FM-12+001299999V0200701N005019999999N012000199-00421-00771102481ADDAY121021AY221021GA1991+999991021GA2061+999991061GE19MSL   +99999+99999GF107991990990999999991991MA1999990102341MD1610101+9990MW1021REMSYN06001003 41662 70705 11042 21077 30234 40248 56010 70222 86508=
0089010030999992014011422004+77000+015500FM-12+001299999V0200501N005019999999N999999999-00421-00741102491ADDMA1999990102351MD1610061+9990REMSYN04801003 46/// /0505 11042 21074 30235 40249 56006=
0089010030999992014011423004+77000+015500FM-12+001299999V0200701N004019999999N999999999-00341-00681102441ADDMA1999990102301MD1810051+9990REMSYN04801003 46/// /0704 11034 21068 30230 40244 58005=
0273010030999992014011500004+77000+015500FM-12+001299999V0200401N004019999999N012000199-00351-00601102411ADDAA199999919AJ199991999999999AY121021AY221021GA1991+999991041GA2051+999991061GE19MSL   +99999+99999GF107991990990999999991991IA1249MA1999990102271MD1810071+9990MW1021OD139900901999REMSYN08201003 11562 70404 11035 21060 30227 40241 58007 6//// 70222 8551/ 333 44/// 91109=
0089010030999992014011501004+77000+015500FM-12+001299999V0200601N003019999999N999999999-00381-00561102381ADDMA1999990102241MD1710101+9990REMSYN04801003 46/// /0603 11038 21056 30224 40238 57010=
0089010030999992014011502004+77000+015500FM-12+001299999V0200601N003019999999N999999999-00341-00491102361ADDMA1999990102221MD1710081+9990REMSYN04801003 46/// /0603 11034 21049 30222 40236 57008=
0220010030999992014011503004+77000+015500FM-12+001299999V0200501N004019999999N012000199-00321-00511102311ADDAJ199991999999999AY121021AY221021GA1081+999991061GE19MSL   +99999+99999GF108991081990999999991991IA1249MA1999990102171MD1710101+9990MW1031REMSYN07001003 41562 80504 11032 21051 30217 40231 57010 70322 885// 333 44///=
0089010030999992014011504004+77000+015500FM-12+001299999V0200701N003019999999N999999999-00281-00491102261ADDMA1999990102121MD1810121+9990REMSYN04801003 46/// /0703 11028 21049 30212 40226 58012=
0089010030999992014011505004+77000+015500FM-12+001299999V0200701N003019999999N999999999-00291-00451102231ADDMA1999990102091MD1710121+9990REMSYN04801003 46/// /0703 11029 21045 30209 40223 57012=
0293010030999992014011506004+77000+015500FM-12+001299999V0200501N002019999999N012000199-00191-00411102201ADDAA112000021AA224000021AJ100093100090094AY171021AY221021GA1081+999991061GE19MSL   +99999+99999GF108991081990999999991991IA1249KA1240N-00581MA1999990102061MD1710121+9990MW1701OD139900501999REMSYN09401003 11562 80502 11019 21041 30206 40220 57012 69902 77072 885// 333 21058 44009 79999 91105=
0089010030999992014011507004+77000+015500FM-12+001299999V0200501N003019999999N999999999-00121-00331102171ADDMA1999990102031MD1710091+9990REMSYN04801003 46/// /0503 11012 21033 30203 40217 57009=
0089010030999992014011508004+77000+015500FM-12+001299999V0201001N002019999999N999999999-00111-00281102171ADDMA1999990102031MD1510061+9990REMSYN04801003 46/// /1002 11011 21028 30203 40217 55006=
0187010030999992014011509004+77000+015500FM-12+001299999V0201601N008019999999N012000199-00061-00171102111ADDAY171021AY221021GA1081+999991061GE19MSL   +99999+99999GF108991081990999999991991MA1999990101971MD1810091+9990MW1701REMSYN06001003 41462 81608 11006 21017 30197 40211 58009 77072 885//=
0089010030999992014011510004+77000+015500FM-12+001299999V0201901N006019999999N999999999-00051-00141102121ADDMA1999990101981MD1510051+9990REMSYN04801003 46/// /1906 11005 21014 30198 40212 55005=
0089010030999992014011511004+77000+015500FM-12+001299999V0201901N004019999999N999999999-00091-00181102111ADDMA1999990101971MD1510061+9990REMSYN04801003 46/// /1904 11009 21018 30197 40211 55006=
0228010030999992014011512004+77000+015500FM-12+001299999V0201801N006019999999N012000199-00061-00131102091ADDAA199999919AY171021AY221021GA1071+999991061GE19MSL   +99999+99999GF107991071990999999991991MA1999990101951MD1710021+9990MW1701OD139901101999REMSYN07601003 11562 71806 11006 21013 30195 40209 57002 6//// 77072 875// 333 91111=
0089010030999992014011513004+77000+015500FM-12+001299999V0202201N003019999999N999999999-00071-00171102081ADDMA1999990101941MD1710031+9990REMSYN04801003 46/// /2203 11007 21017 30194 40208 57003=
0089010030999992014011514004+77000+015500FM-12+001299999V0202301N006019999999N999999999-00061-00151102071ADDMA1999990101931MD1710031+9990REMSYN04801003 46/// /2306 11006 21015 30193 40207 57003=
0206010030999992014011515004+77000+015500FM-12+001299999V0202301N003019999999N012000199-00091-00201102081ADDAY181021AY221021GA1071+999991061GE19MSL   +99999+99999GF107991071990999999991991MA1999990101941MD1790019+9990MW1261REMSYN06001003 41562 72303 11009 21020 30194 40208 54001 72682 874//=EQDQ01.1    3APC3  
0089010030999992014011516004+77000+015500FM-12+001299999V0203501N001019999999N999999999-00091-00151102091ADDMA1999990101951MD1510001+9990REMSYN04801003 46/// /3501 11009 21015 30195 40209 55000=
0089010030999992014011517004+77000+015500FM-12+001299999V0209999C999999999999N999999999-00121-00181102081ADDMA1999990101941MD1900011+9990REMSYN04801003 46/// /0000 11012 21018 30194 40208 50001=
0247010030999992014011518004+77000+015500FM-12+001299999V0202701N001019999999N015000199-00111-00181102081ADDAA112000531AY181021AY221021GA1071+999991061GE19MSL   +99999+99999GF107991071990999999991991KA1120M+00011MA1999990101941MD1900011+9990MW1021OD139901001999REMSYN08201003 11565 72701 11011 21018 30194 40208 50001 69952 70282 874// 333 10001 91110=
0089010030999992014011519004+77000+015500FM-12+001299999V0202401N002019999999N999999999-00031-00121102071ADDMA1999990101931MD1710021+9990REMSYN04801003 46/// /2402 11003 21012 30193 40207 57002=
0089010030999992014011520004+77000+015500FM-12+001299999V0202501N002019999999N999999999-00071-00171102061ADDMA1999990101921MD1710021+9990REMSYN04801003 46/// /2502 11007 21017 30192 40206 57002=
0203010030999992014011521004+77000+015500FM-12+001299999V0202501N002019999999N030000199-00141-00231102071ADDAY181021AY221021GA1991+999991031GA2061+999991061GE19MSL   +99999+99999GF107991990990999999991991MA1999990101931MD1710011+9990MW1261REMSYN06001003 41480 72502 11014 21023 30193 40207 57001 72682 8643/=
0089010030999992014011522004+77000+015500FM-12+001299999V0202301N002019999999N999999999-00061-00151102071ADDMA1999990101931MD1410001+9990REMSYN04801003 46/// /2302 11006 21015 30193 40207 54000=
0089010030999992014011523004+77000+015500FM-12+001299999V0200401N001019999999N999999999-00121-00221102081ADDMA1999990101941MD1210011+9990REMSYN04801003 46/// /0401 11012 21022 30194 40208 52001=
0228010030999992014011600004+77000+015500FM-12+001299999V0200101N001019999999N021000199-00101-00201102051ADDAA199999919AY181021AY221021GA1071+999991061GE19MSL   +99999+99999GF107991071990999999991991MA1999990101911MD1710021+9990MW1031OD139900501999REMSYN07601003 11671 70101 11010 21020 30191 40205 57002 6//// 70382 874// 333 91105=
0089010030999992014011601004+77000+015500FM-12+001299999V0202701N001019999999N999999999-00041-00151102041ADDMA1999990101901MD1710031+9990REMSYN04801003 46/// /2701 11004 21015 30190 40204 57003=
0089010030999992014011602004+77000+015500FM-12+001299999V0201301N002019999999N999999999-00121-00251102011ADDMA1999990101871MD1710071+9990REMSYN04801003 46/// /1302 11012 21025 30187 40201 57007=
0187010030999992014011603004+77000+015500FM-12+001299999V0200101N002019999999N050000199-00071-00211102011ADDAY181021AY221021GA1071+999991061GE19MSL   +99999+99999GF107991071990999999991991MA1999990101871MD1710051+9990MW1021REMSYN06001003 41684 70102 11007 21021 30187 40201 57005 70282 874//=
0089010030999992014011604004+77000+015500FM-12+001299999V0200401N001019999999N999999999-00051-00291101991ADDMA1999990101851MD1710051+9990REMSYN04801003 46/// /0401 11005 21029 30185 40199 57005=
0089010030999992014011605004+77000+015500FM-12+001299999V0201001N001019999999N999999999-00081-00181101981ADDMA1999990101841MD1710031+9990REMSYN04801003 46/// /1001 11008 21018 30184 40198 57003=
0293010030999992014011606004+77000+015500FM-12+001299999V0201101N001019999999N035000199-00071-00181101931ADDAA112000431AA224000931AJ100113100110094AY181021AY271021GA1071+999991061GE19MSL   +99999+99999GF107991071990999999991991IA1289KA1240N-00151MA1999990101791MD1810071+9990MW1021OD139900501999REMSYN09401003 11681 71101 11007 21018 30179 40193 58007 69942 70287 875// 333 21015 48011 70009 91105=
0089010030999992014011607004+77000+015500FM-12+001299999V0200301N001019999999N999999999-00071-00281101901ADDMA1999990101761MD1810091+9990REMSYN04801003 46/// /0301 11007 21028 30176 40190 58009=
0089010030999992014011608004+77000+015500FM-12+001299999V0203201N002019999999N999999999-00081-00331101901ADDMA1999990101761MD1610081+9990REMSYN04801003 46/// /3202 11008 21033 30176 40190 56008=
0203010030999992014011609004+77000+015500FM-12+001299999V0201301N002019999999N050000199-00051-00271101911ADDAY121021AY221021GA1991+999991031GA2061+999991061GE19MSL   +99999+99999GF107991990990999999991991MA1999990101771MD1510011+9990MW1151REMSYN06001003 41684 71302 11005 21027 30177 40191 55001 71522 8653/=
0108010030999992014011610004+77000+015500FM-12+001299999V0203201N001019999999N999999999-00111-00241101891ADDMA1999990101751MD1790019+9990REMSYN04801003 46/// /3201 11011 21024 30175 40189 54001=EQDQ01.1    3APC3  
0089010030999992014011611004+77000+015500FM-12+001299999V0203301N001019999999N999999999-00131-00241101851ADDMA1999990101711MD1810051+9990REMSYN04801003 46/// /3301 11013 21024 30171 40185 58005=
0244010030999992014011612004+77000+015500FM-12+001299999V0203301N001019999999N050000199-00161-00271101811ADDAA199999919AY171021AY221021GA1991+999991031GA2051+999991061GE19MSL   +99999+99999GF106991990990999999991991MA1999990101671MD1710101+9990MW1151OD139900801999REMSYN07601003 11484 63301 11016 21027 30167 40181 57010 6//// 71572 85530 333 91108=
0089010030999992014011613004+77000+015500FM-12+001299999V0203201N001019999999N999999999-00091-00181101771ADDMA1999990101631MD1710121+9990REMSYN04801003 46/// /3201 11009 21018 30163 40177 57012=
0089010030999992014011614004+77000+015500FM-12+001299999V0202901N002019999999N999999999-00071-00171101731ADDMA1999990101591MD1710111+9990REMSYN04801003 46/// /2902 11007 21017 30159 40173 57011=
0187010030999992014011615004+77000+015500FM-12+001299999V0202101N004019999999N010000199-00121-00191101711ADDAY181021AY271021GA1071+999991061GE19MSL   +99999+99999GF107991071990999999991991MA1999990101571MD1710101+9990MW1251REMSYN06001003 41460 72104 11012 21019 30157 40171 57010 72587 874//=
0089010030999992014011616004+77000+015500FM-12+001299999V0202801N002019999999N999999999-00201-00291101681ADDMA1999990101541MD1710091+9990REMSYN04801003 46/// /2802 11020 21029 30154 40168 57009=
0089010030999992014011617004+77000+015500FM-12+001299999V0202201N004019999999N999999999-00081-00151101651ADDMA1999990101511MD1710081+9990REMSYN04801003 46/// /2204 11008 21015 30151 40165 57008=
0247010030999992014011618004+77000+015500FM-12+001299999V0201901N001019999999N020000199-00111-00211101621ADDAA112000631AY181021AY271021GA1071+999991061GE19MSL   +99999+99999GF107991071990999999991991KA1120M-00021MA1999990101481MD1710091+9990MW1021OD139900701999REMSYN08201003 11570 71901 11011 21021 30148 40162 57009 69962 70287 875// 333 11002 91107=
0089010030999992014011619004+77000+015500FM-12+001299999V0202601N005019999999N999999999-00071-00261101591ADDMA1999990101451MD1710091+9990REMSYN04801003 46/// /2605 11007 21026 30145 40159 57009=
0089010030999992014011620004+77000+015500FM-12+001299999V0202601N003019999999N999999999-00171-00281101611ADDMA1999990101471MD1510041+9990REMSYN04801003 46/// /2603 11017 21028 30147 40161 55004=
0187010030999992014011621004+77000+015500FM-12+001299999V0202701N003019999999N020000199-00111-00281101591ADDAY121021AY221021GA1051+999991061GE19MSL   +99999+99999GF105991051990999999991991MA1999990101451MD1510031+9990MW1021REMSYN06001003 41570 52703 11011 21028 30145 40159 55003 70222 85500=
0108010030999992014011622004+77000+015500FM-12+001299999V0202801N006019999999N999999999-00051-00251101591ADDMA1999990101451MD1410009+9990REMSYN04801003 46/// /2806 11005 21025 30145 40159 54001=EQDQ01.1    3APC3  
0089010030999992014011623004+77000+015500FM-12+001299999V0202601N004019999999N999999999-00171-00431101581ADDMA1999990101441MD1710031+9990REMSYN04801003 46/// /2604 11017 21043 30144 40158 57003=
0244010030999992014011700004+77000+015500FM-12+001299999V0202601N005019999999N020000199-00201-00351101571ADDAA199999919AY121021AY221021GA1991+999991021GA2021+999991061GE19MSL   +99999+99999GF105991990990999999991991MA1999990101431MD1710021+9990MW1021OD139900901999REMSYN07601003 11570 52605 11020 21035 30143 40157 57002 6//// 70222 82508 333 91109=
0089010030999992014011701004+77000+015500FM-12+001299999V0202601N006019999999N999999999-00091-00191101581ADDMA1999990101441MD1710011+9990REMSYN04801003 46/// /2606 11009 21019 30144 40158 57001=
0089010030999992014011702004+77000+015500FM-12+001299999V0202501N003019999999N999999999-00231-00331101581ADDMA1999990101441MD1410001+9990REMSYN04801003 46/// /2503 11023 21033 30144 40158 54000=
0203010030999992014011703004+77000+015500FM-12+001299999V0202601N004019999999N020000199-00141-00241101551ADDAY121021AY221021GA1991+999991021GA2041+999991061GE19MSL   +99999+99999GF106991990990999999991991MA1999990101411MD1810021+9990MW1031REMSYN06001003 41570 62604 11014 21024 30141 40155 58002 70322 84508=
0089010030999992014011704004+77000+015500FM-12+001299999V0202401N005019999999N999999999-00101-00161101551ADDMA1999990101411MD1710031+9990REMSYN04801003 46/// /2405 11010 21016 30141 40155 57003=
0089010030999992014011705004+77000+015500FM-12+001299999V0202701N005019999999N999999999-00081-00151101541ADDMA1999990101401MD1710041+9990REMSYN04801003 46/// /2705 11008 21015 30140 40154 57004=
0293010030999992014011706004+77000+015500FM-12+001299999V0202501N004019999999N012000199-00081-00151101551ADDAA112000731AA224001331AJ100123100120094AY181021AY221021GA1071+999991061GE19MSL   +99999+99999GF107991071990999999991991IA1289KA1240N-00321MA1999990101411MD1410001+9990MW1261OD139900901999REMSYN09401003 11562 72504 11008 21015 30141 40155 54000 69972 72682 874// 333 21032 48012 70013 91109=
0089010030999992014011707004+77000+015500FM-12+001299999V0202601N005019999999N999999999-00091-00181101551ADDMA1999990101411MD1410001+9990REMSYN04801003 46/// /2605 11009 21018 30141 40155 54000=
0089010030999992014011708004+77000+015500FM-12+001299999V0202601N005019999999N999999999-00051-00191101541ADDMA1999990101401MD1410001+9990REMSYN04801003 46/// /2605 11005 21019 30140 40154 54000=
0187010030999992014011709004+77000+015500FM-12+001299999V0202601N006019999999N012000199-00071-00181101551ADDAY181021AY221021GA1071+999991061GE19MSL   +99999+99999GF107991071990999999991991MA1999990101411MD1410001+9990MW1261REMSYN06001003 41562 72606 11007 21018 30141 40155 54000 72682 874//=
0089010030999992014011710004+77000+015500FM-12+001299999V0202701N006019999999N999999999-00061-00191101571ADDMA1999990101431MD1210021+9990REMSYN04801003 46/// /2706 11006 21019 30143 40157 52002=
0089010030999992014011711004+77000+015500FM-12+001299999V0202701N005019999999N999999999-00141-00361101571ADDMA1999990101431MD1210021+9990REMSYN04801003 46/// /2705 11014 21036 30143 40157 52002=
0228010030999992014011712004+77000+015500FM-12+001299999V0202701N006019999999N012000199-00091-00181101561ADDAA199999919AY181021AY221021GA1071+999991081GE19MSL   +99999+99999GF107991071990999999991991MA1999990101421MD1410001+9990MW1861OD139901101999REMSYN07601003 11562 72706 11009 21018 30142 40156 54000 6//// 78682 872// 333 91111=
0089010030999992014011713004+77000+015500FM-12+001299999V0202501N003019999999N999999999-00351-00461101551ADDMA1999990101411MD1710021+9990REMSYN04801003 46/// /2503 11035 21046 30141 40155 57002=
0089010030999992014011714004+77000+015500FM-12+001299999V0202501N002019999999N999999999-00201-00291101541ADDMA1999990101401MD1710031+9990REMSYN04801003 46/// /2502 11020 21029 30140 40154 57003=
0187010030999992014011715004+77000+015500FM-12+001299999V0202701N006019999999N012000199-00051-00221101511ADDAY181021AY221021GA1071+999991081GE19MSL   +99999+99999GF107991071990999999991991MA1999990101371MD1710051+9990MW1021REMSYN06001003 41562 72706 11005 21022 30137 40151 57005 70282 872//=
0089010030999992014011716004+77000+015500FM-12+001299999V0202601N005019999999N999999999-00101-00281101501ADDMA1999990101361MD1510051+9990REMSYN04801003 46/// /2605 11010 21028 30136 40150 55005=
0089010030999992014011717004+77000+015500FM-12+001299999V0202601N004019999999N999999999-00151-00301101491ADDMA1999990101351MD1510041+9990REMSYN04801003 46/// /2604 11015 21030 30135 40149 55004=
0247010030999992014011718004+77000+015500FM-12+001299999V0202401N003019999999N012000199-00151-00281101501ADDAA112000231AY181021AY221021GA1061+999991081GE19MSL   +99999+99999GF106991061990999999991991KA1120M-00021MA1999990101361MD1510011+9990MW1261OD139900901999REMSYN08201003 11562 62403 11015 21028 30136 40150 55001 69922 72682 86200 333 11002 91109=
0089010030999992014011719004+77000+015500FM-12+001299999V0202501N005019999999N999999999-00081-00171101491ADDMA1999990101351MD1410001+9990REMSYN04801003 46/// /2505 11008 21017 30135 40149 54000=
0089010030999992014011720004+77000+015500FM-12+001299999V0202601N005019999999N999999999-00051-00201101501ADDMA1999990101361MD1310011+9990REMSYN04801003 46/// /2605 11005 21020 30136 40150 53001=
0187010030999992014011721004+77000+015500FM-12+001299999V0202401N002019999999N012000199-00091-00161101521ADDAY181021AY221021GA1081+999991081GE19MSL   +99999+99999GF108991081990999999991991MA1999990101381MD1310021+9990MW1851REMSYN06001003 41562 82402 11009 21016 30138 40152 53002 78582 882//=
0089010030999992014011722004+77000+015500FM-12+001299999V0202601N005019999999N999999999-00021-00191101521ADDMA1999990101381MD1210021+9990REMSYN04801003 46/// /2605 11002 21019 30138 40152 52002=
0089010030999992014011723004+77000+015500FM-12+001299999V0202701N005019999999N999999999+00001-00141101501ADDMA1999990101361MD1900011+9990REMSYN04801003 46/// /2705 10000 21014 30136 40150 50001=
0244010030999992014011800004+77000+015500FM-12+001299999V0202401N004019999999N017000199+00001-00131101491ADDAA106000431AY181021AY221021GA1991+999991031GA2061+999991081GE19MSL   +99999+99999GF107991990990999999991991MA1999990101351MD1710031+9990MW1261OD139901101999REMSYN07601003 11467 72404 10000 21013 30135 40149 57003 69941 72682 8686/ 333 91111=
0089010030999992014011801004+77000+015500FM-12+001299999V0202801N007019999999N999999999+00001-00141101501ADDMA1999990101361MD1510021+9990REMSYN04801003 46/// /2807 10000 21014 30136 40150 55002=
0089010030999992014011802004+77000+015500FM-12+001299999V0202901N006019999999N999999999+00061-00281101471ADDMA1999990101331MD1710031+9990REMSYN04801003 46/// /2906 10006 21028 30133 40147 57003=
0187010030999992014011803004+77000+015500FM-12+001299999V0202401N006019999999N010000199-00051-00141101491ADDAY181021AY221021GA1071+999991081GE19MSL   +99999+99999GF108991071990999999991991MA1999990101351MD1410001+9990MW1271REMSYN06001003 41460 82406 11005 21014 30135 40149 54000 72782 878//=
0089010030999992014011804004+77000+015500FM-12+001299999V0202601N005019999999N999999999-00011-00211101481ADDMA1999990101341MD1510021+9990REMSYN04801003 46/// /2605 11001 21021 30134 40148 55002=
0108010030999992014011805004+77000+015500FM-12+001299999V0201901N003019999999N999999999-00101-00191101481ADDMA1999990101341MD1290019+9990REMSYN04801003 46/// /1903 11010 21019 30134 40148 54001=EQDQ01.1    3APC3  
0309010030999992014011806004+77000+015500FM-12+001299999V0202801N001019999999N015000199-00221-00311101441ADDAA112001031AA224001431AJ100173100170094AY181021AY221021GA1991+999991031GA2061+999991081GE19MSL   +99999+99999GF107991990990999999991991IA1299KA1240N-00261MA1999990101301MD1810041+9990MW1141OD139901401999REMSYN09401003 11565 72801 11022 21031 30130 40144 58004 60012 71482 8626/ 333 21026 49017 70014 91114=
0089010030999992014011807004+77000+015500FM-12+001299999V0202501N004019999999N999999999-00061-00191101441ADDMA1999990101301MD1710041+9990REMSYN04801003 46/// /2504 11006 21019 30130 40144 57004=
0089010030999992014011808004+77000+015500FM-12+001299999V0202801N008019999999N999999999+00021-00151101421ADDMA1999990101281MD1510051+9990REMSYN04801003 46/// /2808 10002 21015 30128 40142 55005=
0203010030999992014011809004+77000+015500FM-12+001299999V0202701N006019999999N010000199+00051-00111101471ADDAY181021AY221021GA1991+999991031GA2061+999991061GE19MSL   +99999+99999GF107991990990999999991991MA1999990101331MD1310031+9990MW1021REMSYN06001003 41460 72706 10005 21011 30133 40147 53003 70282 8644/=
0089010030999992014011810004+77000+015500FM-12+001299999V0202601N006019999999N999999999+00041-00131101461ADDMA1999990101321MD1310031+9990REMSYN04801003 46/// /2606 10004 21013 30132 40146 53003=
0089010030999992014011811004+77000+015500FM-12+001299999V0202501N007019999999N999999999+00051-00141101441ADDMA1999990101301MD1900021+9990REMSYN04801003 46/// /2507 10005 21014 30130 40144 50002=
0228010030999992014011812004+77000+015500FM-12+001299999V0202701N010019999999N005000199+00081-00081101441ADDAA106000131AY181021AY221021GA1071+999991081GE19MSL   +99999+99999GF107991071990999999991991MA1999990101301MD1710031+9990MW1831OD139901601999REMSYN07601003 11450 72710 10008 21008 30130 40144 57003 69911 78382 878// 333 91116=
0089010030999992014011813004+77000+015500FM-12+001299999V0203101N008019999999N999999999+00111-00101101491ADDMA1999990101351MD1310031+9990REMSYN04801003 46/// /3108 10011 21010 30135 40149 53003=
0089010030999992014011814004+77000+015500FM-12+001299999V0203101N009019999999N999999999+00101-00271101531ADDMA1999990101391MD1310091+9990REMSYN04801003 46/// /3109 10010 21027 30139 40153 53009=
0187010030999992014011815004+77000+015500FM-12+001299999V0203101N008019999999N012000199-00051-00471101601ADDAY181021AY211021GA1031+999991061GE19MSL   +99999+99999GF103991031990999999991991MA1999990101461MD1310161+9990MW1011REMSYN06001003 41562 33108 11005 21047 30146 40160 53016 70181 83400=
0089010030999992014011816004+77000+015500FM-12+001299999V0202901N007019999999N999999999-00181-00521101631ADDMA1999990101491MD1210141+9990REMSYN04801003 46/// /2907 11018 21052 30149 40163 52014=
0089010030999992014011817004+77000+015500FM-12+001299999V0203001N006019999999N999999999-00291-00661101701ADDMA1999990101561MD1210171+9990REMSYN04801003 46/// /3006 11029 21066 30156 40170 52017=
0263010030999992014011818004+77000+015500FM-12+001299999V0203001N005019999999N035000199-00381-00761101751ADDAA112001031AY181021AY211021GA1991+999991021GA2021+999991061GE19MSL   +99999+99999GF103991990990999999991991KA1120M+00191MA1999990101611MD1310151+9990MW1011OD139901301999REMSYN08201003 11581 33005 11038 21076 30161 40175 53015 60012 70181 82508 333 10019 91113=
0089010030999992014011819004+77000+015500FM-12+001299999V0202901N007019999999N999999999-00501-00821101791ADDMA1999990101651MD1110161+9990REMSYN04801003 46/// /2907 11050 21082 30165 40179 51016=
0089010030999992014011820004+77000+015500FM-12+001299999V0203101N005019999999N999999999-00471-00831101891ADDMA1999990101751MD1310191+9990REMSYN04801003 46/// /3105 11047 21083 30175 40189 53019=
0187010030999992014011821004+77000+015500FM-12+001299999V0202901N005019999999N035000199-00601-00911101941ADDAY101021AY201021GA1031+999991061GE19MSL   +99999+99999GF103991031990999999991991MA1999990101801MD1310191+9990MW1021REMSYN06001003 41581 32905 11060 21091 30180 40194 53019 70200 83500=
0089010030999992014011823004+77000+015500FM-12+001299999V0202901N005019999999N999999999-00731-01041102031ADDMA1999990101891MD1210141+9990REMSYN04801003 46/// /2905 11073 21104 30189 40203 52014=
0223010030999992014011900004+77000+015500FM-12+001299999V0200101N002019999999N035000199-00521-00901102051ADDAA106000091AY101021AY201021GA1021+999991061GE19MSL   +99999+99999GF102991021990999999991991MA1999990101911MD1210111+9990MW1011REMSYN06601003 11581 20102 11052 21090 30191 40205 52011 69901 70100 82500=EQDQ01  00002PRCP06
0089010030999992014011901004+77000+015500FM-12+001299999V0203501N002019999999N999999999-00731-01061102081ADDMA1999990101941MD1210081+9990REMSYN04801003 46/// /3502 11073 21106 30194 40208 52008=
0089010030999992014011902004+77000+015500FM-12+001299999V0202601N002019999999N999999999-00781-01061102101ADDMA1999990101951MD1210071+9990REMSYN04801003 46/// /2602 11078 21106 30195 40210 52007=
0187010030999992014011903004+77000+015500FM-12+001299999V0203101N003019999999N035000199-00721-00991102091ADDAY101021AY201021GA1011+999991061GE19MSL   +99999+99999GF101991011990999999991991MA1999990101951MD1210051+9990MW1011REMSYN06001003 41681 13103 11072 21099 30195 40209 52005 70100 81500=
0089010030999992014011904004+77000+015500FM-12+001299999V0200101N002019999999N999999999-00771-01131102121ADDMA1999990101971MD1210041+9990REMSYN04801003 46/// /0102 11077 21113 30197 40212 52004=
0089010030999992014011905004+77000+015500FM-12+001299999V0200401N002019999999N999999999-00631-00961102121ADDMA1999990101981MD1210031+9990REMSYN04801003 46/// /0402 11063 21096 30198 40212 52003=
0274010030999992014011906004+77000+015500FM-12+001299999V0200401N003019999999N035000199-00731-01001102141ADDAA112000091AA224001031AJ100173100170094AY101021AY201021GA1011+999991061GE19MSL   +99999+99999GF101991011990999999991991IA1299MA1999990102001MD1210051+9990MW1021OD139900501999REMSYN08801003 11681 10403 11073 21100 30200 40214 52005 60002 70200 81500 333 49017 70010 91105=
0089010030999992014011907004+77000+015500FM-12+001299999V0200401N002019999999N999999999-00691-00971102161ADDMA1999990102021MD1210051+9990REMSYN04801003 46/// /0402 11069 21097 30202 40216 52005=
0089010030999992014011908004+77000+015500FM-12+001299999V0200401N002019999999N999999999-00591-00951102151ADDMA1999990102011MD1900031+9990REMSYN04801003 46/// /0402 11059 21095 30201 40215 50003=
0203010030999992014011909004+77000+015500FM-12+001299999V0200301N002019999999N035000199-00601-00961102171ADDAY111021AY211021GA1021+999991061GA2991+999991021GE19MSL   +99999+99999GF105991021990999999991991MA1999990102031MD1210031+9990MW1031REMSYN06001003 41681 50302 11060 21096 30203 40217 52003 70311 82508=
0089010030999992014011910004+77000+015500FM-12+001299999V0200301N002019999999N999999999-00491-00751102211ADDMA1999990102071MD1310051+9990REMSYN04801003 46/// /0302 11049 21075 30207 40221 53005=
0089010030999992014011911004+77000+015500FM-12+001299999V0200701N001019999999N999999999-00451-00711102231ADDMA1999990102091MD1210081+9990REMSYN04801003 46/// /0701 11045 21071 30209 40223 52008=
0247010030999992014011912004+77000+015500FM-12+001299999V0200901N003019999999N035000199-00441-00661102211ADDAA106000091AY111021AY211021GA1071+999991061GE19MSL   +99999+99999GF107991071990999999991991MA1999990102071MD1900041+9990MW1031OD139900401999REMSYN07601003 11681 70903 11044 21066 30207 40221 50004 69901 70311 875// 333 91104=EQDQ01  00002PRCP06
0089010030999992014011913004+77000+015500FM-12+001299999V0201001N005019999999N999999999-00411-00711102211ADDMA1999990102071MD1900011+9990REMSYN04801003 46/// /1005 11041 21071 30207 40221 50001=
0089010030999992014011914004+77000+015500FM-12+001299999V0201101N003019999999N999999999-00371-00591102191ADDMA1999990102051MD1710041+9990REMSYN04801003 46/// /1103 11037 21059 30205 40219 57004=
