0110010050999992014052221004+78067+013633FM-12+000999999V0209999C999999999999N999999999+02801+01451100441ADDAA103000091MA1999990097101MD1900161+9990REMSYN05801005 46/// /0000 10280 20145 39710 40044 5/016 333 60007=
0110010050999992014052303004+78067+013633FM-12+000999999V0201801N001019999999N999999999+02911+01291100551ADDAA103000091MA1999990097221MD1900161+9990REMSYN05801005 46/// /1801 10291 20129 39722 40055 5/016 333 60007=
