0089010160999992014010101004+78933+028900FM-12+002099999V0202901N001019999999N999999999-01731-01901102321ADDMA1999990102151MD1210041+9990REMSYN04801016 46/// /2901 11173 21190 30215 40232 52004=
0089010160999992014010102004+78933+028900FM-12+002099999V0203101N001019999999N999999999-01741-01911102291ADDMA1999990102121MD1410001+9990REMSYN04801016 46/// /3101 11174 21191 30212 40229 54000=
0089010160999992014010104004+78933+028900FM-12+002099999V0209999C999999999999N999999999-01711-01881102271ADDMA1999990102101MD1710051+9990REMSYN04801016 46/// /0000 11171 21188 30210 40227 57005=
0089010160999992014010105004+78933+028900FM-12+002099999V0201801N001019999999N999999999-01531-01681102231ADDMA1999990102061MD1710061+9990REMSYN04801016 46/// /1801 11153 21168 30206 40223 57006=
0113010160999992014010106004+78933+028900FM-12+002099999V0202001N001019999999N999999999-01461-01611102211ADDMA1999990102041MD1710071+9990OD139900201999REMSYN05801016 46/// /2001 11146 21161 30204 40221 57007 333 91102=
0089010160999992014010107004+78933+028900FM-12+002099999V0201801N001019999999N999999999-01331-01471102201ADDMA1999990102031MD1710071+9990REMSYN04801016 46/// /1801 11133 21147 30203 40220 57007=
0089010160999992014010108004+78933+028900FM-12+002099999V0202201N001019999999N999999999-01311-01441102201ADDMA1999990102031MD1710031+9990REMSYN04801016 46/// /2201 11131 21144 30203 40220 57003=
0089010160999992014010109004+78933+028900FM-12+002099999V0202001N002019999999N999999999-01161-01291102171ADDMA1999990102011MD1710031+9990REMSYN04801016 46/// /2002 11116 21129 30201 40217 57003=
0108010160999992014010110004+78933+028900FM-12+002099999V0202001N003019999999N999999999-01131-01261102191ADDMA1999990102021MD1790019+9990REMSYN04801016 46/// /2003 11113 21126 30202 40219 54001=EQDQ01.1    3APC3  
0089010160999992014010111004+78933+028900FM-12+002099999V0202001N004019999999N999999999-01101-01331102201ADDMA1999990102031MD1900001+9990REMSYN04801016 46/// /2004 11110 21133 30203 40220 50000=
0113010160999992014010112004+78933+028900FM-12+002099999V0201901N007019999999N999999999-01041-01291102181ADDMA1999990102021MD1510011+9990OD139900801999REMSYN05801016 46/// /1907 11104 21129 30202 40218 55001 333 91108=
0089010160999992014010113004+78933+028900FM-12+002099999V0201901N008019999999N999999999-01011-01251102131ADDMA1999990101961MD1610061+9990REMSYN04801016 46/// /1908 11101 21125 30196 40213 56006=
0089010160999992014010114004+78933+028900FM-12+002099999V0201901N009019999999N999999999-00951-01161102081ADDMA1999990101911MD1610121+9990REMSYN04801016 46/// /1909 11095 21116 30191 40208 56012=
0089010160999992014010115004+78933+028900FM-12+002099999V0201901N008019999999N999999999-00881-01051102051ADDMA1999990101881MD1710131+9990REMSYN04801016 46/// /1908 11088 21105 30188 40205 57013=
0089010160999992014010116004+78933+028900FM-12+002099999V0201901N008019999999N999999999-00871-01041102031ADDMA1999990101871MD1810091+9990REMSYN04801016 46/// /1908 11087 21104 30187 40203 58009=
0089010160999992014010118004+78933+028900FM-12+002099999V0201901N011019999999N999999999-00751-00901101971ADDMA1999990101801MD1710081+9990REMSYN04801016 46/// /1911 11075 21090 30180 40197 57008=
0089010160999992014010119004+78933+028900FM-12+002099999V0201901N011019999999N999999999-00711-00871101951ADDMA1999990101791MD1710081+9990REMSYN04801016 46/// /1911 11071 21087 30179 40195 57008=
0089010160999992014010120004+78933+028900FM-12+002099999V0201901N011019999999N999999999-00711-00861101921ADDMA1999990101761MD1710061+9990REMSYN04801016 46/// /1911 11071 21086 30176 40192 57006=
0089010160999992014010121004+78933+028900FM-12+002099999V0202001N010019999999N999999999-00731-00881101971ADDMA1999990101801MD1900001+9990REMSYN04801016 46/// /2010 11073 21088 30180 40197 50000=
0089010160999992014010122004+78933+028900FM-12+002099999V0202001N009019999999N999999999-00701-00851101991ADDMA1999990101821MD1110041+9990REMSYN04801016 46/// /2009 11070 21085 30182 40199 51004=
0089010160999992014010123004+78933+028900FM-12+002099999V0202001N010019999999N999999999-00691-00841101971ADDMA1999990101801MD1310041+9990REMSYN04801016 46/// /2010 11069 21084 30180 40197 53004=
0132010160999992014010200004+78933+028900FM-12+002099999V0202001N011019999999N999999999-00691-00841101971ADDMA1999990101811MD1410009+9990OD139901401999REMSYN05801016 46/// /2011 11069 21084 30181 40197 54001 333 91114=EQDQ01.1    3APC3  
0089010160999992014010201004+78933+028900FM-12+002099999V0202001N010019999999N999999999-00661-00791101991ADDMA1999990101831MD1900011+9990REMSYN04801016 46/// /2010 11066 21079 30183 40199 50001=
0089010160999992014010202004+78933+028900FM-12+002099999V0202001N006019999999N999999999-00681-00791102031ADDMA1999990101871MD1110071+9990REMSYN04801016 46/// /2006 11068 21079 30187 40203 51007=
0089010160999992014010203004+78933+028900FM-12+002099999V0202001N007019999999N999999999-00691-00811102011ADDMA1999990101851MD1310041+9990REMSYN04801016 46/// /2007 11069 21081 30185 40201 53004=
0089010160999992014010204004+78933+028900FM-12+002099999V0202001N007019999999N999999999-00771-00881102001ADDMA1999990101841MD1510001+9990REMSYN04801016 46/// /2007 11077 21088 30184 40200 55000=
0089010160999992014010205004+78933+028900FM-12+002099999V0202101N008019999999N999999999-00731-00841101981ADDMA1999990101821MD1710051+9990REMSYN04801016 46/// /2108 11073 21084 30182 40198 57005=
0132010160999992014010206004+78933+028900FM-12+002099999V0202101N007019999999N999999999-00671-00791102011ADDKA1240N-00771MA1999990101851MD1900001+9990OD139901201999REMSYN06401016 46/// /2107 11067 21079 30185 40201 50000 333 21077 91112=
0108010160999992014010207004+78933+028900FM-12+002099999V0202101N006019999999N999999999-00631-00751102011ADDMA1999990101851MD1290019+9990REMSYN04801016 46/// /2106 11063 21075 30185 40201 54001=EQDQ01.1    3APC3  
0089010160999992014010208004+78933+028900FM-12+002099999V0202101N005019999999N999999999-00621-00731102031ADDMA1999990101871MD1210051+9990REMSYN04801016 46/// /2105 11062 21073 30187 40203 52005=
0089010160999992014010209004+78933+028900FM-12+002099999V0202101N005019999999N999999999-00611-00721102081ADDMA1999990101921MD1110071+9990REMSYN04801016 46/// /2105 11061 21072 30192 40208 51007=
0089010160999992014010210004+78933+028900FM-12+002099999V0202201N006019999999N999999999-00621-00741102061ADDMA1999990101901MD1310051+9990REMSYN04801016 46/// /2206 11062 21074 30190 40206 53005=
0089010160999992014010211004+78933+028900FM-12+002099999V0202101N005019999999N999999999-00821-00941102091ADDMA1999990101931MD1210051+9990REMSYN04801016 46/// /2105 11082 21094 30193 40209 52005=
0132010160999992014010212004+78933+028900FM-12+002099999V0202001N004019999999N999999999-00921-01031102091ADDMA1999990101921MD1290019+9990OD139900801999REMSYN05801016 46/// /2004 11092 21103 30192 40209 54001 333 91108=EQDQ01.1    3APC3  
0089010160999992014010213004+78933+028900FM-12+002099999V0202001N005019999999N999999999-00941-01051102081ADDMA1999990101911MD1510011+9990REMSYN04801016 46/// /2005 11094 21105 30191 40208 55001=
0108010160999992014010214004+78933+028900FM-12+002099999V0202001N005019999999N999999999-00931-01041102071ADDMA1999990101911MD1790029+9990REMSYN04801016 46/// /2005 11093 21104 30191 40207 54002=EQDQ01.2    3APC3  
0108010160999992014010215004+78933+028900FM-12+002099999V0202001N002019999999N999999999-00961-01071102071ADDMA1999990101911MD1790029+9990REMSYN04801016 46/// /2002 11096 21107 30191 40207 54002=EQDQ01.2    3APC3  
0089010160999992014010216004+78933+028900FM-12+002099999V0202101N002019999999N999999999-00961-01041102081ADDMA1999990101911MD1410001+9990REMSYN04801016 46/// /2102 11096 21104 30191 40208 54000=
0108010160999992014010217004+78933+028900FM-12+002099999V0201901N003019999999N999999999-00891-00951102051ADDMA1999990101891MD1790029+9990REMSYN04801016 46/// /1903 11089 21095 30189 40205 54002=EQDQ01.2    3APC3  
0151010160999992014010218004+78933+028900FM-12+002099999V0202001N003019999999N999999999-00941-01001102041ADDKA1120M-00601MA1999990101881MD1790039+9990OD139900601999REMSYN06401016 46/// /2003 11094 21100 30188 40204 54003 333 11060 91106=EQDQ01.3    3APC3  
0089010160999992014010219004+78933+028900FM-12+002099999V0202001N002019999999N999999999-00871-00931102041ADDMA1999990101871MD1710041+9990REMSYN04801016 46/// /2002 11087 21093 30187 40204 57004=
0108010160999992014010220004+78933+028900FM-12+002099999V0201901N003019999999N999999999-00831-00891102041ADDMA1999990101881MD1790019+9990REMSYN04801016 46/// /1903 11083 21089 30188 40204 54001=EQDQ01.1    3APC3  
0108010160999992014010221004+78933+028900FM-12+002099999V0201801N003019999999N999999999-00861-00931102061ADDMA1999990101901MD1290029+9990REMSYN04801016 46/// /1803 11086 21093 30190 40206 54002=EQDQ01.2    3APC3  
0108010160999992014010222004+78933+028900FM-12+002099999V0201801N003019999999N999999999-00751-00811102061ADDMA1999990101891MD1290029+9990REMSYN04801016 46/// /1803 11075 21081 30189 40206 54002=EQDQ01.2    3APC3  
0108010160999992014010223004+78933+028900FM-12+002099999V0201901N002019999999N999999999-00721-00791102051ADDMA1999990101891MD1290019+9990REMSYN04801016 46/// /1902 11072 21079 30189 40205 54001=EQDQ01.1    3APC3  
0132010160999992014010300004+78933+028900FM-12+002099999V0201901N002019999999N999999999-00681-00751102041ADDMA1999990101871MD1790029+9990OD139900501999REMSYN05801016 46/// /1902 11068 21075 30187 40204 54003 333 91105=EQDQ01.3    3APC3  
0089010160999992014010301004+78933+028900FM-12+002099999V0202101N003019999999N999999999-00671-00741101991ADDMA1999990101831MD1610071+9990REMSYN04801016 46/// /2103 11067 21074 30183 40199 56007=
0089010160999992014010302004+78933+028900FM-12+002099999V0202201N003019999999N999999999-00671-00751101971ADDMA1999990101801MD1710081+9990REMSYN04801016 46/// /2203 11067 21075 30180 40197 57008=
0089010160999992014010303004+78933+028900FM-12+002099999V0202201N003019999999N999999999-00601-00671101951ADDMA1999990101791MD1710091+9990REMSYN04801016 46/// /2203 11060 21067 30179 40195 57009=
0089010160999992014010304004+78933+028900FM-12+002099999V0202101N003019999999N999999999-00571-00641101931ADDMA1999990101771MD1710061+9990REMSYN04801016 46/// /2103 11057 21064 30177 40193 57006=
0089010160999992014010305004+78933+028900FM-12+002099999V0202201N005019999999N999999999-00521-00621101901ADDMA1999990101741MD1710061+9990REMSYN04801016 46/// /2205 11052 21062 30174 40190 57006=
0132010160999992014010306004+78933+028900FM-12+002099999V0202201N005019999999N999999999-00451-00631101911ADDKA1240N-00941MA1999990101751MD1710041+9990OD139900601999REMSYN06401016 46/// /2205 11045 21063 30175 40191 57004 333 21094 91106=
0108010160999992014010307004+78933+028900FM-12+002099999V0202501N005019999999N999999999-00421-00681101911ADDMA1999990101741MD1790029+9990REMSYN04801016 46/// /2505 11042 21068 30174 40191 54003=EQDQ01.3    3APC3  
0108010160999992014010308004+78933+028900FM-12+002099999V0202201N004019999999N999999999-00461-00681101921ADDMA1999990101761MD1290029+9990REMSYN04801016 46/// /2204 11046 21068 30176 40192 54002=EQDQ01.2    3APC3  
0108010160999992014010309004+78933+028900FM-12+002099999V0202401N002019999999N999999999-00481-00681101931ADDMA1999990101771MD1290029+9990REMSYN04801016 46/// /2402 11048 21068 30177 40193 54001=EQDQ01.1    3APC3  
0089010160999992014010310004+78933+028900FM-12+002099999V0202301N003019999999N999999999-00461-00691101941ADDMA1999990101781MD1210041+9990REMSYN04801016 46/// /2303 11046 21069 30178 40194 52004=
0089010160999992014010311004+78933+028900FM-12+002099999V0202401N003019999999N999999999-00461-00691101931ADDMA1999990101761MD1410001+9990REMSYN04801016 46/// /2403 11046 21069 30176 40193 54000=
0113010160999992014010312004+78933+028900FM-12+002099999V0202101N003019999999N999999999-00441-00701101901ADDMA1999990101741MD1510031+9990OD139900701999REMSYN05801016 46/// /2103 11044 21070 30174 40190 55003 333 91107=
0089010160999992014010313004+78933+028900FM-12+002099999V0201901N002019999999N999999999-00441-00631101881ADDMA1999990101721MD1710061+9990REMSYN04801016 46/// /1902 11044 21063 30172 40188 57006=
0089010160999992014010314004+78933+028900FM-12+002099999V0202001N001019999999N999999999-00441-00641101861ADDMA1999990101701MD1710061+9990REMSYN04801016 46/// /2001 11044 21064 30170 40186 57006=
0089010160999992014010315004+78933+028900FM-12+002099999V0201601N002019999999N999999999-00451-00641101841ADDMA1999990101681MD1710061+9990REMSYN04801016 46/// /1602 11045 21064 30168 40184 57006=
0089010160999992014010316004+78933+028900FM-12+002099999V0201901N002019999999N999999999-00451-00651101821ADDMA1999990101651MD1710071+9990REMSYN04801016 46/// /1902 11045 21065 30165 40182 57007=
0089010160999992014010317004+78933+028900FM-12+002099999V0202201N001019999999N999999999-00461-00721101801ADDMA1999990101641MD1710061+9990REMSYN04801016 46/// /2201 11046 21072 30164 40180 57006=
0132010160999992014010318004+78933+028900FM-12+002099999V0201601N001019999999N999999999-00441-00701101781ADDKA1120M-00401MA1999990101621MD1710061+9990OD139900401999REMSYN06401016 46/// /1601 11044 21070 30162 40178 57006 333 11040 91104=
0089010160999992014010319004+78933+028900FM-12+002099999V0201701N001019999999N999999999-00451-00681101751ADDMA1999990101591MD1710061+9990REMSYN04801016 46/// /1701 11045 21068 30159 40175 57006=
0089010160999992014010320004+78933+028900FM-12+002099999V0201801N001019999999N999999999-00431-00731101741ADDMA1999990101581MD1710061+9990REMSYN04801016 46/// /1801 11043 21073 30158 40174 57006=
0089010160999992014010321004+78933+028900FM-12+002099999V0201401N001019999999N999999999-00421-00711101751ADDMA1999990101591MD1810031+9990REMSYN04801016 46/// /1401 11042 21071 30159 40175 58003=
0089010160999992014010322004+78933+028900FM-12+002099999V0200201N003019999999N999999999-00481-00641101751ADDMA1999990101591MD1410001+9990REMSYN04801016 46/// /0203 11048 21064 30159 40175 54000=
0089010160999992014010323004+78933+028900FM-12+002099999V0200401N005019999999N999999999-00551-00621101741ADDMA1999990101581MD1410001+9990REMSYN04801016 46/// /0405 11055 21062 30158 40174 54000=
0132010160999992014010400004+78933+028900FM-12+002099999V0200501N006019999999N999999999-00611-00681101721ADDMA1999990101561MD1790039+9990OD139900701999REMSYN05801016 46/// /0506 11061 21068 30156 40172 54003 333 91107=EQDQ01.3    3APC3  
0089010160999992014010401004+78933+028900FM-12+002099999V0200501N008019999999N999999999-00661-00731101701ADDMA1999990101541MD1710051+9990REMSYN04801016 46/// /0508 11066 21073 30154 40170 57005=
0089010160999992014010402004+78933+028900FM-12+002099999V0200501N009019999999N999999999-00771-00851101701ADDMA1999990101541MD1710041+9990REMSYN04801016 46/// /0509 11077 21085 30154 40170 57004=
0089010160999992014010403004+78933+028900FM-12+002099999V0200501N009019999999N999999999-00771-00851101681ADDMA1999990101521MD1710041+9990REMSYN04801016 46/// /0509 11077 21085 30152 40168 57004=
0089010160999992014010404004+78933+028900FM-12+002099999V0200601N009019999999N999999999-00831-00921101701ADDMA1999990101531MD1410001+9990REMSYN04801016 46/// /0609 11083 21092 30153 40170 54000=
0108010160999992014010405004+78933+028900FM-12+002099999V0200601N010019999999N999999999-00851-00961101671ADDMA1999990101511MD1790039+9990REMSYN04801016 46/// /0610 11085 21096 30151 40167 54003=EQDQ01.3    3APC3  
0151010160999992014010406004+78933+028900FM-12+002099999V0200501N012019999999N999999999-00911-01021101671ADDKA1240N-00911MA1999990101501MD1790019+9990OD139901301999REMSYN06401016 46/// /0512 11091 21102 30150 40167 54001 333 21091 91113=EQDQ01.1    3APC3  
0089010160999992014010407004+78933+028900FM-12+002099999V0200501N012019999999N999999999-01001-01121101701ADDMA1999990101531MD1900001+9990REMSYN04801016 46/// /0512 11100 21112 30153 40170 50000=
0089010160999992014010408004+78933+028900FM-12+002099999V0200501N013019999999N999999999-01021-01191101711ADDMA1999990101541MD1210041+9990REMSYN04801016 46/// /0513 11102 21119 30154 40171 52004=
0089010160999992014010409004+78933+028900FM-12+002099999V0200601N012019999999N999999999-01021-01181101741ADDMA1999990101571MD1210071+9990REMSYN04801016 46/// /0612 11102 21118 30157 40174 52007=
0089010160999992014010410004+78933+028900FM-12+002099999V0200501N013019999999N999999999-01101-01241101771ADDMA1999990101601MD1210071+9990REMSYN04801016 46/// /0513 11110 21124 30160 40177 52007=
0089010160999992014010411004+78933+028900FM-12+002099999V0200501N013019999999N999999999-01161-01301101801ADDMA1999990101631MD1210091+9990REMSYN04801016 46/// /0513 11116 21130 30163 40180 52009=
0113010160999992014010412004+78933+028900FM-12+002099999V0200401N009019999999N999999999-01231-01411101861ADDMA1999990101691MD1110121+9990OD139901401999REMSYN05801016 46/// /0409 11123 21141 30169 40186 51012 333 91114=
0089010160999992014010413004+78933+028900FM-12+002099999V0200501N009019999999N999999999-01261-01401101811ADDMA1999990101651MD1310041+9990REMSYN04801016 46/// /0509 11126 21140 30165 40181 53004=
0089010160999992014010414004+78933+028900FM-12+002099999V0200401N010019999999N999999999-01291-01431101801ADDMA1999990101631MD1510001+9990REMSYN04801016 46/// /0410 11129 21143 30163 40180 55000=
0089010160999992014010415004+78933+028900FM-12+002099999V0200501N013019999999N999999999-01571-01731101811ADDMA1999990101641MD1810051+9990REMSYN04801016 46/// /0513 11157 21173 30164 40181 58005=
0089010160999992014010416004+78933+028900FM-12+002099999V0200401N011019999999N999999999-01551-01711101831ADDMA1999990101671MD1900021+9990REMSYN04801016 46/// /0411 11155 21171 30167 40183 50002=
0089010160999992014010417004+78933+028900FM-12+002099999V0200401N011019999999N999999999-01541-01711101841ADDMA1999990101671MD1210041+9990REMSYN04801016 46/// /0411 11154 21171 30167 40184 52004=
0132010160999992014010418004+78933+028900FM-12+002099999V0200401N010019999999N999999999-01511-01671101871ADDKA1120M-00911MA1999990101701MD1210061+9990OD139901501999REMSYN06401016 46/// /0410 11151 21167 30170 40187 52006 333 11091 91115=
0089010160999992014010419004+78933+028900FM-12+002099999V0200401N010019999999N999999999-01411-01611101871ADDMA1999990101701MD1210031+9990REMSYN04801016 46/// /0410 11141 21161 30170 40187 52003=
0089010160999992014010420004+78933+028900FM-12+002099999V0200401N010019999999N999999999-01481-01721101901ADDMA1999990101731MD1210061+9990REMSYN04801016 46/// /0410 11148 21172 30173 40190 52006=
0089010160999992014010421004+78933+028900FM-12+002099999V0200401N011019999999N999999999-01471-01681101861ADDMA1999990101701MD1510001+9990REMSYN04801016 46/// /0411 11147 21168 30170 40186 55000=
0089010160999992014010422004+78933+028900FM-12+002099999V0200301N010019999999N999999999-01411-01651101861ADDMA1999990101701MD1510001+9990REMSYN04801016 46/// /0310 11141 21165 30170 40186 55000=
0089010160999992014010423004+78933+028900FM-12+002099999V0200501N009019999999N999999999-01401-01641101891ADDMA1999990101721MD1900011+9990REMSYN04801016 46/// /0509 11140 21164 30172 40189 50001=
0113010160999992014010500004+78933+028900FM-12+002099999V0200501N008019999999N999999999-01351-01581101861ADDMA1999990101701MD1410001+9990OD139901301999REMSYN05801016 46/// /0508 11135 21158 30170 40186 54000 333 91113=
0089010160999992014010502004+78933+028900FM-12+002099999V0200501N011019999999N999999999-01511-01721101911ADDMA1999990101751MD1900031+9990REMSYN04801016 46/// /0511 11151 21172 30175 40191 50003=
0089010160999992014010503004+78933+028900FM-12+002099999V0200601N010019999999N999999999-01511-01741101931ADDMA1999990101771MD1210071+9990REMSYN04801016 46/// /0610 11151 21174 30177 40193 52007=
0089010160999992014010504004+78933+028900FM-12+002099999V0200601N010019999999N999999999-01431-01671101911ADDMA1999990101751MD1310041+9990REMSYN04801016 46/// /0610 11143 21167 30175 40191 53004=
0108010160999992014010505004+78933+028900FM-12+002099999V0200601N009019999999N999999999-01431-01641101931ADDMA1999990101761MD1290029+9990REMSYN04801016 46/// /0609 11143 21164 30176 40193 54001=EQDQ01.1    3APC3  
0089010160999992014010506004+78933+028900FM-12+002099999V0200701N009019999999N999999999-01481-01711101941ADDMA1999990101781MD1900011+9990REMSYN04801016 46/// /0709 11148 21171 30178 40194 50001=
0089010160999992014010507004+78933+028900FM-12+002099999V0200701N008019999999N999999999-01421-01651101951ADDMA1999990101791MD1210041+9990REMSYN04801016 46/// /0708 11142 21165 30179 40195 52004=
0089010160999992014010508004+78933+028900FM-12+002099999V0200701N010019999999N999999999-01411-01661102001ADDMA1999990101831MD1210071+9990REMSYN04801016 46/// /0710 11141 21166 30183 40200 52007=
0089010160999992014010509004+78933+028900FM-12+002099999V0200701N009019999999N999999999-01361-01631102021ADDMA1999990101851MD1210081+9990REMSYN04801016 46/// /0709 11136 21163 30185 40202 52008=
0089010160999992014010510004+78933+028900FM-12+002099999V0200701N009019999999N999999999-01351-01621102051ADDMA1999990101881MD1210091+9990REMSYN04801016 46/// /0709 11135 21162 30188 40205 52009=
0089010160999992014010511004+78933+028900FM-12+002099999V0200701N009019999999N999999999-01341-01611102061ADDMA1999990101891MD1210061+9990REMSYN04801016 46/// /0709 11134 21161 30189 40206 52006=
0113010160999992014010512004+78933+028900FM-12+002099999V0200601N011019999999N999999999-01351-01621102061ADDMA1999990101901MD1210051+9990OD139901301999REMSYN05801016 46/// /0611 11135 21162 30190 40206 52005 333 91113=
0089010160999992014010513004+78933+028900FM-12+002099999V0200801N010019999999N999999999-01361-01641102091ADDMA1999990101931MD1210051+9990REMSYN04801016 46/// /0810 11136 21164 30193 40209 52005=
0089010160999992014010514004+78933+028900FM-12+002099999V0200701N010019999999N999999999-01361-01641102121ADDMA1999990101951MD1210061+9990REMSYN04801016 46/// /0710 11136 21164 30195 40212 52006=
0089010160999992014010515004+78933+028900FM-12+002099999V0200701N009019999999N999999999-01371-01671102101ADDMA1999990101931MD1310031+9990REMSYN04801016 46/// /0709 11137 21167 30193 40210 53003=
0108010160999992014010516004+78933+028900FM-12+002099999V0200601N009019999999N999999999-01381-01661102111ADDMA1999990101941MD1290029+9990REMSYN04801016 46/// /0609 11138 21166 30194 40211 54002=EQDQ01.2    3APC3  
0089010160999992014010517004+78933+028900FM-12+002099999V0200801N010019999999N999999999-01421-01721102131ADDMA1999990101961MD1900021+9990REMSYN04801016 46/// /0810 11142 21172 30196 40213 50002=
0132010160999992014010518004+78933+028900FM-12+002099999V0200601N009019999999N999999999-01421-01741102151ADDKA1120M-01331MA1999990101991MD1210051+9990OD139901201999REMSYN06401016 46/// /0609 11142 21174 30199 40215 52005 333 11133 91112=
0089010160999992014010519004+78933+028900FM-12+002099999V0200601N007019999999N999999999-01351-01621102151ADDMA1999990101981MD1210041+9990REMSYN04801016 46/// /0607 11135 21162 30198 40215 52004=
0089010160999992014010520004+78933+028900FM-12+002099999V0200601N009019999999N999999999-01401-01671102181ADDMA1999990102011MD1210051+9990REMSYN04801016 46/// /0609 11140 21167 30201 40218 52005=
0089010160999992014010521004+78933+028900FM-12+002099999V0200501N009019999999N999999999-01431-01731102201ADDMA1999990102031MD1110051+9990REMSYN04801016 46/// /0509 11143 21173 30203 40220 51005=
0089010160999992014010522004+78933+028900FM-12+002099999V0200501N008019999999N999999999-01431-01711102231ADDMA1999990102061MD1210081+9990REMSYN04801016 46/// /0508 11143 21171 30206 40223 52008=
0089010160999992014010523004+78933+028900FM-12+002099999V0200501N008019999999N999999999-01461-01741102251ADDMA1999990102081MD1210071+9990REMSYN04801016 46/// /0508 11146 21174 30208 40225 52007=
0113010160999992014010600004+78933+028900FM-12+002099999V0200801N007019999999N999999999-01521-01791102271ADDMA1999990102101MD1210061+9990OD139901001999REMSYN05801016 46/// /0807 11152 21179 30210 40227 52006 333 91110=
0089010160999992014010601004+78933+028900FM-12+002099999V0200801N007019999999N999999999-01571-01841102271ADDMA1999990102111MD1210051+9990REMSYN04801016 46/// /0807 11157 21184 30211 40227 52005=
0089010160999992014010602004+78933+028900FM-12+002099999V0200801N009019999999N999999999-01691-01951102311ADDMA1999990102141MD1210061+9990REMSYN04801016 46/// /0809 11169 21195 30214 40231 52006=
0089010160999992014010603004+78933+028900FM-12+002099999V0200601N008019999999N999999999-01761-01991102341ADDMA1999990102171MD1210071+9990REMSYN04801016 46/// /0608 11176 21199 30217 40234 52007=
0089010160999992014010604004+78933+028900FM-12+002099999V0200701N007019999999N999999999-01761-01981102341ADDMA1999990102171MD1310061+9990REMSYN04801016 46/// /0707 11176 21198 30217 40234 53006=
0089010160999992014010605004+78933+028900FM-12+002099999V0200601N007019999999N999999999-01741-01941102321ADDMA1999990102151MD1510011+9990REMSYN04801016 46/// /0607 11174 21194 30215 40232 55001=
0132010160999992014010606004+78933+028900FM-12+002099999V0200601N007019999999N999999999-01761-01981102341ADDKA1240N-01771MA1999990102171MD1410001+9990OD139901001999REMSYN06401016 46/// /0607 11176 21198 30217 40234 54000 333 21177 91110=
0089010160999992014010607004+78933+028900FM-12+002099999V0200601N007019999999N999999999-01781-02001102371ADDMA1999990102201MD1110031+9990REMSYN04801016 46/// /0607 11178 21200 30220 40237 51003=
0089010160999992014010608004+78933+028900FM-12+002099999V0200701N006019999999N999999999-01781-02001102411ADDMA1999990102241MD1210081+9990REMSYN04801016 46/// /0706 11178 21200 30224 40241 52008=
0089010160999992014010609004+78933+028900FM-12+002099999V0200701N006019999999N999999999-01801-02011102451ADDMA1999990102271MD1210101+9990REMSYN04801016 46/// /0706 11180 21201 30227 40245 52010=
0089010160999992014010610004+78933+028900FM-12+002099999V0200601N006019999999N999999999-01841-02051102471ADDMA1999990102301MD1210101+9990REMSYN04801016 46/// /0606 11184 21205 30230 40247 52010=
0089010160999992014010611004+78933+028900FM-12+002099999V0200601N007019999999N999999999-01861-02051102461ADDMA1999990102291MD1310061+9990REMSYN04801016 46/// /0607 11186 21205 30229 40246 53006=
0113010160999992014010612004+78933+028900FM-12+002099999V0200701N006019999999N999999999-01921-02141102501ADDMA1999990102331MD1210061+9990OD139900901999REMSYN05801016 46/// /0706 11192 21214 30233 40250 52006 333 91109=
0089010160999992014010613004+78933+028900FM-12+002099999V0200801N006019999999N999999999-01951-02171102521ADDMA1999990102341MD1210051+9990REMSYN04801016 46/// /0806 11195 21217 30234 40252 52005=
0089010160999992014010614004+78933+028900FM-12+002099999V0200801N006019999999N999999999-01981-02211102541ADDMA1999990102371MD1210071+9990REMSYN04801016 46/// /0806 11198 21221 30237 40254 52007=
0089010160999992014010615004+78933+028900FM-12+002099999V0200701N006019999999N999999999-01981-02201102551ADDMA1999990102381MD1210051+9990REMSYN04801016 46/// /0706 11198 21220 30238 40255 52005=
0089010160999992014010616004+78933+028900FM-12+002099999V0200801N005019999999N999999999-01991-02221102561ADDMA1999990102391MD1210051+9990REMSYN04801016 46/// /0805 11199 21222 30239 40256 52005=
0089010160999992014010617004+78933+028900FM-12+002099999V0200801N003019999999N999999999-01941-02151102571ADDMA1999990102401MD1210041+9990REMSYN04801016 46/// /0803 11194 21215 30240 40257 52004=
0132010160999992014010618004+78933+028900FM-12+002099999V0201001N004019999999N999999999-01941-02131102551ADDKA1120M-01771MA1999990102371MD1510011+9990OD139900701999REMSYN06401016 46/// /1004 11194 21213 30237 40255 55001 333 11177 91107=
0108010160999992014010619004+78933+028900FM-12+002099999V0200901N004019999999N999999999-01981-02191102581ADDMA1999990102411MD1290029+9990REMSYN04801016 46/// /0904 11198 21219 30241 40258 54002=EQDQ01.2    3APC3  
0089010160999992014010620004+78933+028900FM-12+002099999V0201001N003019999999N999999999-01961-02151102601ADDMA1999990102421MD1900021+9990REMSYN04801016 46/// /1003 11196 21215 30242 40260 50002=
0089010160999992014010621004+78933+028900FM-12+002099999V0201001N004019999999N999999999-01951-02141102611ADDMA1999990102441MD1210061+9990REMSYN04801016 46/// /1004 11195 21214 30244 40261 52006=
0089010160999992014010622004+78933+028900FM-12+002099999V0201201N003019999999N999999999-01981-02201102651ADDMA1999990102471MD1210071+9990REMSYN04801016 46/// /1203 11198 21220 30247 40265 52007=
0089010160999992014010623004+78933+028900FM-12+002099999V0201101N004019999999N999999999-02031-02261102661ADDMA1999990102491MD1210061+9990REMSYN04801016 46/// /1104 11203 21226 30249 40266 52006=
0113010160999992014010700004+78933+028900FM-12+002099999V0201101N004019999999N999999999-02081-02301102651ADDMA1999990102481MD1310041+9990OD139900601999REMSYN05801016 46/// /1104 11208 21230 30248 40265 53004 333 91106=
0108010160999992014010701004+78933+028900FM-12+002099999V0201001N004019999999N999999999-02081-02301102671ADDMA1999990102501MD1290029+9990REMSYN04801016 46/// /1004 11208 21230 30250 40267 54002=EQDQ01.2    3APC3  
0108010160999992014010702004+78933+028900FM-12+002099999V0200901N003019999999N999999999-02241-02471102681ADDMA1999990102501MD1290029+9990REMSYN04801016 46/// /0903 11224 21247 30250 40268 54001=EQDQ01.1    3APC3  
0108010160999992014010703004+78933+028900FM-12+002099999V0200901N003019999999N999999999-02141-02341102671ADDMA1999990102501MD1290029+9990REMSYN04801016 46/// /0903 11214 21234 30250 40267 54002=EQDQ01.2    3APC3  
0108010160999992014010704004+78933+028900FM-12+002099999V0200701N003019999999N999999999-02121-02311102651ADDMA1999990102481MD1790029+9990REMSYN04801016 46/// /0703 11212 21231 30248 40265 54002=EQDQ01.2    3APC3  
0089010160999992014010705004+78933+028900FM-12+002099999V0200701N004019999999N999999999-02141-02361102681ADDMA1999990102501MD1900001+9990REMSYN04801016 46/// /0704 11214 21236 30250 40268 50000=
0151010160999992014010706004+78933+028900FM-12+002099999V0200701N005019999999N999999999-02271-02521102661ADDKA1240N-02271MA1999990102481MD1790019+9990OD139900501999REMSYN06401016 46/// /0705 11227 21252 30248 40266 54001 333 21227 91105=EQDQ01.1    3APC3  
0089010160999992014010707004+78933+028900FM-12+002099999V0200601N005019999999N999999999-02111-02311102701ADDMA1999990102531MD1210051+9990REMSYN04801016 46/// /0605 11211 21231 30253 40270 52005=
0089010160999992014010708004+78933+028900FM-12+002099999V0200701N002019999999N999999999-02131-02301102731ADDMA1999990102551MD1110051+9990REMSYN04801016 46/// /0702 11213 21230 30255 40273 51005=
0089010160999992014010709004+78933+028900FM-12+002099999V0201001N004019999999N999999999-02271-02481102771ADDMA1999990102601MD1210111+9990REMSYN04801016 46/// /1004 11227 21248 30260 40277 52011=
0089010160999992014010710004+78933+028900FM-12+002099999V0200901N004019999999N999999999-02251-02441102781ADDMA1999990102611MD1210081+9990REMSYN04801016 46/// /0904 11225 21244 30261 40278 52008=
0089010160999992014010711004+78933+028900FM-12+002099999V0200901N004019999999N999999999-02221-02401102801ADDMA1999990102631MD1210081+9990REMSYN04801016 46/// /0904 11222 21240 30263 40280 52008=
0132010160999992014010712004+78933+028900FM-12+002099999V0200801N006019999999N999999999-02301-02501102801ADDMA1999990102621MD1290039+9990OD139900601999REMSYN05801016 46/// /0806 11230 21250 30262 40280 54002 333 91106=EQDQ01.2    3APC3  
0108010160999992014010713004+78933+028900FM-12+002099999V0200801N005019999999N999999999-02241-02441102801ADDMA1999990102621MD1290029+9990REMSYN04801016 46/// /0805 11224 21244 30262 40280 54002=EQDQ01.2    3APC3  
0089010160999992014010714004+78933+028900FM-12+002099999V0200701N004019999999N999999999-02061-02261102801ADDMA1999990102621MD1410001+9990REMSYN04801016 46/// /0704 11206 21226 30262 40280 54000=
0108010160999992014010715004+78933+028900FM-12+002099999V0200501N004019999999N999999999-02061-02241102781ADDMA1999990102611MD1790029+9990REMSYN04801016 46/// /0504 11206 21224 30261 40278 54001=EQDQ01.1    3APC3  
0108010160999992014010716004+78933+028900FM-12+002099999V0200401N004019999999N999999999-02141-02311102781ADDMA1999990102611MD1790029+9990REMSYN04801016 46/// /0404 11214 21231 30261 40278 54002=EQDQ01.2    3APC3  
0108010160999992014010717004+78933+028900FM-12+002099999V0200501N007019999999N999999999-02131-02311102771ADDMA1999990102601MD1790039+9990REMSYN04801016 46/// /0507 11213 21231 30260 40277 54003=EQDQ01.3    3APC3  
0151010160999992014010718004+78933+028900FM-12+002099999V0200401N006019999999N999999999-02141-02321102761ADDKA1120M-02031MA1999990102591MD1790029+9990OD139900701999REMSYN06401016 46/// /0406 11214 21232 30259 40276 54002 333 11203 91107=EQDQ01.2    3APC3  
0089010160999992014010719004+78933+028900FM-12+002099999V0200401N006019999999N999999999-02261-02451102781ADDMA1999990102611MD1410001+9990REMSYN04801016 46/// /0406 11226 21245 30261 40278 54000=
0108010160999992014010720004+78933+028900FM-12+002099999V0200401N006019999999N999999999-02141-02341102781ADDMA1999990102611MD1290019+9990REMSYN04801016 46/// /0406 11214 21234 30261 40278 54001=EQDQ01.1    3APC3  
0089010160999992014010721004+78933+028900FM-12+002099999V0200301N004019999999N999999999-01991-02161102801ADDMA1999990102621MD1210041+9990REMSYN04801016 46/// /0304 11199 21216 30262 40280 52004=
0089010160999992014010722004+78933+028900FM-12+002099999V0200401N004019999999N999999999-01671-01821102781ADDMA1999990102611MD1410001+9990REMSYN04801016 46/// /0404 11167 21182 30261 40278 54000=
0089010160999992014010723004+78933+028900FM-12+002099999V0200401N002019999999N999999999-01541-01691102781ADDMA1999990102611MD1410001+9990REMSYN04801016 46/// /0402 11154 21169 30261 40278 54000=
0113010160999992014010800004+78933+028900FM-12+002099999V0200801N003019999999N999999999-01521-01671102801ADDMA1999990102631MD1900011+9990OD139900701999REMSYN05801016 46/// /0803 11152 21167 30263 40280 50001 333 91107=
0108010160999992014010801004+78933+028900FM-12+002099999V0200701N004019999999N999999999-01561-01721102791ADDMA1999990102621MD1290019+9990REMSYN04801016 46/// /0704 11156 21172 30262 40279 54001=EQDQ01.1    3APC3  
0089010160999992014010802004+78933+028900FM-12+002099999V0200601N005019999999N999999999-01721-01891102761ADDMA1999990102591MD1510031+9990REMSYN04801016 46/// /0605 11172 21189 30259 40276 55003=
0089010160999992014010803004+78933+028900FM-12+002099999V0200601N005019999999N999999999-01851-02031102761ADDMA1999990102591MD1710041+9990REMSYN04801016 46/// /0605 11185 21203 30259 40276 57004=
0108010160999992014010804004+78933+028900FM-12+002099999V0200601N005019999999N999999999-02001-02191102771ADDMA1999990102591MD1790029+9990REMSYN04801016 46/// /0605 11200 21219 30259 40277 54002=EQDQ01.2    3APC3  
0108010160999992014010805004+78933+028900FM-12+002099999V0200701N005019999999N999999999-02011-02201102751ADDMA1999990102581MD1790019+9990REMSYN04801016 46/// /0705 11201 21220 30258 40275 54001=EQDQ01.1    3APC3  
0151010160999992014010806004+78933+028900FM-12+002099999V0200701N004019999999N999999999-02011-02201102751ADDKA1240N-02371MA1999990102581MD1790019+9990OD139900601999REMSYN06401016 46/// /0704 11201 21220 30258 40275 54001 333 21237 91106=EQDQ01.1    3APC3  
0089010160999992014010807004+78933+028900FM-12+002099999V0200701N005019999999N999999999-01951-02131102721ADDMA1999990102551MD1710041+9990REMSYN04801016 46/// /0705 11195 21213 30255 40272 57004=
0108010160999992014010808004+78933+028900FM-12+002099999V0200601N004019999999N999999999-02061-02251102731ADDMA1999990102561MD1790029+9990REMSYN04801016 46/// /0604 11206 21225 30256 40273 54002=EQDQ01.2    3APC3  
0089010160999992014010809004+78933+028900FM-12+002099999V0201001N001019999999N999999999-02151-02351102751ADDMA1999990102581MD1900001+9990REMSYN04801016 46/// /1001 11215 21235 30258 40275 50000=
0089010160999992014010810004+78933+028900FM-12+002099999V0200801N001019999999N999999999-02001-02191102771ADDMA1999990102601MD1210051+9990REMSYN04801016 46/// /0801 11200 21219 30260 40277 52005=
0089010160999992014010811004+78933+028900FM-12+002099999V0200901N002019999999N999999999-02071-02261102771ADDMA1999990102591MD1210031+9990REMSYN04801016 46/// /0902 11207 21226 30259 40277 52003=
0113010160999992014010812004+78933+028900FM-12+002099999V0209999C999999999999N999999999-02021-02211102741ADDMA1999990102571MD1510011+9990OD139900501999REMSYN05801016 46/// /0000 11202 21221 30257 40274 55001 333 91105=
0089010160999992014010813004+78933+028900FM-12+002099999V0200901N002019999999N999999999-02071-02261102711ADDMA1999990102531MD1710061+9990REMSYN04801016 46/// /0902 11207 21226 30253 40271 57006=
0089010160999992014010814004+78933+028900FM-12+002099999V0209999C999999999999N999999999-02091-02291102721ADDMA1999990102551MD1810051+9990REMSYN04801016 46/// /0000 11209 21229 30255 40272 58005=
0089010160999992014010815004+78933+028900FM-12+002099999V0200801N002019999999N999999999-02111-02311102691ADDMA1999990102521MD1710041+9990REMSYN04801016 46/// /0802 11211 21231 30252 40269 57004=
0089010160999992014010816004+78933+028900FM-12+002099999V0200801N002019999999N999999999-01981-02171102621ADDMA1999990102451MD1610091+9990REMSYN04801016 46/// /0802 11198 21217 30245 40262 56009=
0089010160999992014010817004+78933+028900FM-12+002099999V0201101N002019999999N999999999-02101-02301102621ADDMA1999990102441MD1710101+9990REMSYN04801016 46/// /1102 11210 21230 30244 40262 57010=
0132010160999992014010818004+78933+028900FM-12+002099999V0201001N001019999999N999999999-02231-02431102591ADDKA1120M-01931MA1999990102421MD1810101+9990OD139900301999REMSYN06401016 46/// /1001 11223 21243 30242 40259 58010 333 11193 91103=
0089010160999992014010819004+78933+028900FM-12+002099999V0200201N001019999999N999999999-02091-02281102591ADDMA1999990102421MD1710031+9990REMSYN04801016 46/// /0201 11209 21228 30242 40259 57003=
0089010160999992014010820004+78933+028900FM-12+002099999V0200601N001019999999N999999999-02061-02251102621ADDMA1999990102451MD1900011+9990REMSYN04801016 46/// /0601 11206 21225 30245 40262 50001=
0089010160999992014010821004+78933+028900FM-12+002099999V0201201N002019999999N999999999-02141-02341102591ADDMA1999990102421MD1510001+9990REMSYN04801016 46/// /1202 11214 21234 30242 40259 55000=
0089010160999992014010823004+78933+028900FM-12+002099999V0201301N002019999999N999999999-02151-02351102551ADDMA1999990102381MD1710071+9990REMSYN04801016 46/// /1302 11215 21235 30238 40255 57007=
0113010160999992014010900004+78933+028900FM-12+002099999V0201101N002019999999N999999999-02031-02231102521ADDMA1999990102351MD1710071+9990OD139900301999REMSYN05801016 46/// /1102 11203 21223 30235 40252 57007 333 91103=
0089010160999992014010901004+78933+028900FM-12+002099999V0200901N001019999999N999999999-02221-02431102541ADDMA1999990102371MD1810041+9990REMSYN04801016 46/// /0901 11222 21243 30237 40254 58004=
0089010160999992014010902004+78933+028900FM-12+002099999V0201601N001019999999N999999999-02241-02451102511ADDMA1999990102341MD1710041+9990REMSYN04801016 46/// /1601 11224 21245 30234 40251 57004=
0089010160999992014010903004+78933+028900FM-12+002099999V0209999C999999999999N999999999-02401-02611102471ADDMA1999990102301MD1610051+9990REMSYN04801016 46/// /0000 11240 21261 30230 40247 56005=
0089010160999992014010904004+78933+028900FM-12+002099999V0209999C999999999999N999999999-02171-02371102461ADDMA1999990102291MD1710081+9990REMSYN04801016 46/// /0000 11217 21237 30229 40246 57008=
0089010160999992014010905004+78933+028900FM-12+002099999V0201601N001019999999N999999999-02001-02191102391ADDMA1999990102221MD1710121+9990REMSYN04801016 46/// /1601 11200 21219 30222 40239 57012=
0132010160999992014010906004+78933+028900FM-12+002099999V0201701N003019999999N999999999-01901-02081102381ADDKA1240N-02431MA1999990102211MD1710091+9990OD139900301999REMSYN06401016 46/// /1703 11190 21208 30221 40238 57009 333 21243 91103=
0089010160999992014010907004+78933+028900FM-12+002099999V0201801N002019999999N999999999-01881-02061102391ADDMA1999990102221MD1810061+9990REMSYN04801016 46/// /1802 11188 21206 30222 40239 58006=
0108010160999992014010908004+78933+028900FM-12+002099999V0201701N002019999999N999999999-01851-02031102411ADDMA1999990102241MD1290029+9990REMSYN04801016 46/// /1702 11185 21203 30224 40241 54002=EQDQ01.2    3APC3  
0089010160999992014010909004+78933+028900FM-12+002099999V0201801N003019999999N999999999-01741-01911102361ADDMA1999990102191MD1510021+9990REMSYN04801016 46/// /1803 11174 21191 30219 40236 55002=
0089010160999992014010910004+78933+028900FM-12+002099999V0201901N003019999999N999999999-01701-01871102321ADDMA1999990102151MD1610071+9990REMSYN04801016 46/// /1903 11170 21187 30215 40232 56007=
0089010160999992014010911004+78933+028900FM-12+002099999V0201901N002019999999N999999999-01671-01841102261ADDMA1999990102091MD1710151+9990REMSYN04801016 46/// /1902 11167 21184 30209 40226 57015=
0113010160999992014010912004+78933+028900FM-12+002099999V0201901N005019999999N999999999-01651-01821102201ADDMA1999990102031MD1710161+9990OD139900801999REMSYN05801016 46/// /1905 11165 21182 30203 40220 57016 333 91108=
0089010160999992014010913004+78933+028900FM-12+002099999V0202001N003019999999N999999999-01631-01791102221ADDMA1999990102051MD1810101+9990REMSYN04801016 46/// /2003 11163 21179 30205 40222 58010=
0089010160999992014010914004+78933+028900FM-12+002099999V0201901N002019999999N999999999-01571-01731102111ADDMA1999990101941MD1610151+9990REMSYN04801016 46/// /1902 11157 21173 30194 40211 56015=
0089010160999992014010915004+78933+028900FM-12+002099999V0201801N002019999999N999999999-01511-01661102001ADDMA1999990101841MD1610191+9990REMSYN04801016 46/// /1802 11151 21166 30184 40200 56019=
0089010160999992014010916004+78933+028900FM-12+002099999V0201801N002019999999N999999999-01411-01561101911ADDMA1999990101741MD1710311+9990REMSYN04801016 46/// /1802 11141 21156 30174 40191 57031=
0089010160999992014010917004+78933+028900FM-12+002099999V0201801N001019999999N999999999-01331-01471101901ADDMA1999990101731MD1810211+9990REMSYN04801016 46/// /1801 11133 21147 30173 40190 58021=
0132010160999992014010918004+78933+028900FM-12+002099999V0201801N001019999999N999999999-01231-01361101831ADDKA1120M-01231MA1999990101671MD1710171+9990OD139900601999REMSYN06401016 46/// /1801 11123 21136 30167 40183 57017 333 11123 91106=
0089010160999992014010919004+78933+028900FM-12+002099999V0201901N001019999999N999999999-01101-01221101741ADDMA1999990101571MD1610171+9990REMSYN04801016 46/// /1901 11110 21122 30157 40174 56017=
0089010160999992014010920004+78933+028900FM-12+002099999V0202001N002019999999N999999999-01011-01121101611ADDMA1999990101441MD1610291+9990REMSYN04801016 46/// /2002 11101 21112 30144 40161 56029=
0089010160999992014010921004+78933+028900FM-12+002099999V0202101N003019999999N999999999-00961-01071101561ADDMA1999990101391MD1810271+9990REMSYN04801016 46/// /2103 11096 21107 30139 40156 58027=
0089010160999992014010922004+78933+028900FM-12+002099999V0202101N007019999999N999999999-00891-00981101451ADDMA1999990101291MD1710291+9990REMSYN04801016 46/// /2107 11089 21098 30129 40145 57029=
0089010160999992014010923004+78933+028900FM-12+002099999V0202101N006019999999N999999999-00821-00911101491ADDMA1999990101331MD1810121+9990REMSYN04801016 46/// /2106 11082 21091 30133 40149 58012=
0113010160999992014011000004+78933+028900FM-12+002099999V0202001N007019999999N999999999-00811-00901101451ADDMA1999990101281MD1810111+9990OD139901001999REMSYN05801016 46/// /2007 11081 21090 30128 40145 58011 333 91110=
0089010160999992014011001004+78933+028900FM-12+002099999V0202001N010019999999N999999999-00801-00881101311ADDMA1999990101141MD1510141+9990REMSYN04801016 46/// /2010 11080 21088 30114 40131 55014=
0089010160999992014011002004+78933+028900FM-12+002099999V0202001N011019999999N999999999-00781-00881101211ADDMA1999990101041MD1610281+9990REMSYN04801016 46/// /2011 11078 21088 30104 40121 56028=
0089010160999992014011003004+78933+028900FM-12+002099999V0202101N011019999999N999999999-00771-00891101101ADDMA1999990100941MD1810351+9990REMSYN04801016 46/// /2111 11077 21089 30094 40110 58035=
0089010160999992014011004004+78933+028900FM-12+002099999V0202001N010019999999N999999999-00751-00881101021ADDMA1999990100851MD1710291+9990REMSYN04801016 46/// /2010 11075 21088 30085 40102 57029=
0089010160999992014011005004+78933+028900FM-12+002099999V0202001N009019999999N999999999-00731-00891100981ADDMA1999990100821MD1810221+9990REMSYN04801016 46/// /2009 11073 21089 30082 40098 58022=
0132010160999992014011006004+78933+028900FM-12+002099999V0201901N008019999999N999999999-00701-00831100991ADDKA1240N-01231MA1999990100831MD1810111+9990OD139901401999REMSYN06401016 46/// /1908 11070 21083 30083 40099 58011 333 21123 91114=
0089010160999992014011007004+78933+028900FM-12+002099999V0202001N008019999999N999999999-00661-00771100941ADDMA1999990100781MD1710081+9990REMSYN04801016 46/// /2008 11066 21077 30078 40094 57008=
0089010160999992014011008004+78933+028900FM-12+002099999V0202001N009019999999N999999999-00631-00731100901ADDMA1999990100741MD1610081+9990REMSYN04801016 46/// /2009 11063 21073 30074 40090 56008=
0089010160999992014011009004+78933+028900FM-12+002099999V0202001N009019999999N999999999-00611-00691100851ADDMA1999990100691MD1710131+9990REMSYN04801016 46/// /2009 11061 21069 30069 40085 57013=
0089010160999992014011010004+78933+028900FM-12+002099999V0202001N008019999999N999999999-00601-00701100841ADDMA1999990100681MD1710101+9990REMSYN04801016 46/// /2008 11060 21070 30068 40084 57010=
0089010160999992014011011004+78933+028900FM-12+002099999V0202001N006019999999N999999999-00631-00741100801ADDMA1999990100641MD1710101+9990REMSYN04801016 46/// /2006 11063 21074 30064 40080 57010=
0113010160999992014011012004+78933+028900FM-12+002099999V0202001N004019999999N999999999-00641-00741100811ADDMA1999990100651MD1710041+9990OD139901101999REMSYN05801016 46/// /2004 11064 21074 30065 40081 57004 333 91111=
0089010160999992014011013004+78933+028900FM-12+002099999V0201801N004019999999N999999999-00561-00631100791ADDMA1999990100631MD1710051+9990REMSYN04801016 46/// /1804 11056 21063 30063 40079 57005=
0089010160999992014011014004+78933+028900FM-12+002099999V0202001N005019999999N999999999-00481-00531100741ADDMA1999990100581MD1610061+9990REMSYN04801016 46/// /2005 11048 21053 30058 40074 56006=
0089010160999992014011015004+78933+028900FM-12+002099999V0201901N003019999999N999999999-00451-00491100751ADDMA1999990100591MD1710051+9990REMSYN04801016 46/// /1903 11045 21049 30059 40075 57005=
0089010160999992014011016004+78933+028900FM-12+002099999V0201701N004019999999N999999999-00471-00521100751ADDMA1999990100591MD1810041+9990REMSYN04801016 46/// /1704 11047 21052 30059 40075 58004=
0108010160999992014011017004+78933+028900FM-12+002099999V0201801N005019999999N999999999-00441-00491100761ADDMA1999990100601MD1290029+9990REMSYN04801016 46/// /1805 11044 21049 30060 40076 54001=EQDQ01.1    3APC3  
0151010160999992014011018004+78933+028900FM-12+002099999V0201901N003019999999N999999999-00471-00511100761ADDKA1120M-00441MA1999990100601MD1290019+9990OD139900701999REMSYN06401016 46/// /1903 11047 21051 30060 40076 54001 333 11044 91107=EQDQ01.1    3APC3  
0089010160999992014011019004+78933+028900FM-12+002099999V0201901N004019999999N999999999-00501-00551100751ADDMA1999990100591MD1410001+9990REMSYN04801016 46/// /1904 11050 21055 30059 40075 54000=
0108010160999992014011020004+78933+028900FM-12+002099999V0201701N003019999999N999999999-00451-00491100761ADDMA1999990100601MD1410009+9990REMSYN04801016 46/// /1703 11045 21049 30060 40076 54001=EQDQ01.1    3APC3  
0089010160999992014011021004+78933+028900FM-12+002099999V0201701N004019999999N999999999-00441-00491100791ADDMA1999990100631MD1900031+9990REMSYN04801016 46/// /1704 11044 21049 30063 40079 50003=
0089010160999992014011022004+78933+028900FM-12+002099999V0201901N002019999999N999999999-00471-00521100811ADDMA1999990100651MD1210071+9990REMSYN04801016 46/// /1902 11047 21052 30065 40081 52007=
0089010160999992014011023004+78933+028900FM-12+002099999V0202101N002019999999N999999999-00541-00581100851ADDMA1999990100691MD1210091+9990REMSYN04801016 46/// /2102 11054 21058 30069 40085 52009=
0113010160999992014011100004+78933+028900FM-12+002099999V0201601N002019999999N999999999-00621-00671100841ADDMA1999990100681MD1310051+9990OD139900501999REMSYN05801016 46/// /1602 11062 21067 30068 40084 53005 333 91105=
0089010160999992014011101004+78933+028900FM-12+002099999V0201901N003019999999N999999999-00681-00741100831ADDMA1999990100671MD1510011+9990REMSYN04801016 46/// /1903 11068 21074 30067 40083 55001=
0108010160999992014011102004+78933+028900FM-12+002099999V0202101N002019999999N999999999-00781-00851100831ADDMA1999990100671MD1790029+9990REMSYN04801016 46/// /2102 11078 21085 30067 40083 54002=EQDQ01.2    3APC3  
0089010160999992014011103004+78933+028900FM-12+002099999V0201701N001019999999N999999999-00821-00891100841ADDMA1999990100681MD1410001+9990REMSYN04801016 46/// /1701 11082 21089 30068 40084 54000=
0089010160999992014011104004+78933+028900FM-12+002099999V0201601N001019999999N999999999-00771-00841100831ADDMA1999990100671MD1410001+9990REMSYN04801016 46/// /1601 11077 21084 30067 40083 54000=
0108010160999992014011105004+78933+028900FM-12+002099999V0201701N001019999999N999999999-00721-00791100851ADDMA1999990100691MD1290029+9990REMSYN04801016 46/// /1701 11072 21079 30069 40085 54002=EQDQ01.2    3APC3  
0108010160999992014011107004+78933+028900FM-12+002099999V0201701N001019999999N999999999-00581-00641100861ADDMA1999990100701MD1290039+9990REMSYN04801016 46/// /1701 11058 21064 30070 40086 54003=EQDQ01.3    3APC3  
0108010160999992014011108004+78933+028900FM-12+002099999V0202101N001019999999N999999999-00581-00641100871ADDMA1999990100711MD1290029+9990REMSYN04801016 46/// /2101 11058 21064 30071 40087 54001=EQDQ01.1    3APC3  
0089010160999992014011109004+78933+028900FM-12+002099999V0201801N003019999999N999999999-00501-00561100881ADDMA1999990100721MD1210051+9990REMSYN04801016 46/// /1803 11050 21056 30072 40088 52005=
0108010160999992014011110004+78933+028900FM-12+002099999V0201701N004019999999N999999999-00481-00541100871ADDMA1999990100711MD1290019+9990REMSYN04801016 46/// /1704 11048 21054 30071 40087 54001=EQDQ01.1    3APC3  
0089010160999992014011111004+78933+028900FM-12+002099999V0201801N006019999999N999999999-00481-00551100861ADDMA1999990100701MD1410001+9990REMSYN04801016 46/// /1806 11048 21055 30070 40086 54000=
0113010160999992014011112004+78933+028900FM-12+002099999V0201801N007019999999N999999999-00441-00561100831ADDMA1999990100671MD1710051+9990OD139900801999REMSYN05801016 46/// /1807 11044 21056 30067 40083 57005 333 91108=
0089010160999992014011113004+78933+028900FM-12+002099999V0202401N003019999999N999999999-00411-00571100831ADDMA1999990100671MD1710041+9990REMSYN04801016 46/// /2403 11041 21057 30067 40083 57004=
0089010160999992014011114004+78933+028900FM-12+002099999V0202001N003019999999N999999999-00441-00591100841ADDMA1999990100681MD1900021+9990REMSYN04801016 46/// /2003 11044 21059 30068 40084 50002=
0108010160999992014011115004+78933+028900FM-12+002099999V0201901N006019999999N999999999-00451-00601100821ADDMA1999990100661MD1790019+9990REMSYN04801016 46/// /1906 11045 21060 30066 40082 54001=EQDQ01.1    3APC3  
0089010160999992014011116004+78933+028900FM-12+002099999V0201801N005019999999N999999999-00691-00821100801ADDMA1999990100631MD1610031+9990REMSYN04801016 46/// /1805 11069 21082 30063 40080 56003=
0089010160999992014011117004+78933+028900FM-12+002099999V0201901N004019999999N999999999-00951-01041100821ADDMA1999990100651MD1900021+9990REMSYN04801016 46/// /1904 11095 21104 30065 40082 50002=
0132010160999992014011118004+78933+028900FM-12+002099999V0201801N004019999999N999999999-00871-00951100831ADDKA1120M-00391MA1999990100661MD1900011+9990OD139900701999REMSYN06401016 46/// /1804 11087 21095 30066 40083 50001 333 11039 91107=
0089010160999992014011119004+78933+028900FM-12+002099999V0201701N003019999999N999999999-00871-00941100851ADDMA1999990100691MD1210051+9990REMSYN04801016 46/// /1703 11087 21094 30069 40085 52005=
0089010160999992014011120004+78933+028900FM-12+002099999V0201801N004019999999N999999999-00901-00981100871ADDMA1999990100711MD1210061+9990REMSYN04801016 46/// /1804 11090 21098 30071 40087 52006=
0089010160999992014011121004+78933+028900FM-12+002099999V0202001N002019999999N999999999-01181-01281100891ADDMA1999990100721MD1210061+9990REMSYN04801016 46/// /2002 11118 21128 30072 40089 52006=
0089010160999992014011122004+78933+028900FM-12+002099999V0202701N001019999999N999999999-01141-01221100921ADDMA1999990100761MD1210071+9990REMSYN04801016 46/// /2701 11114 21122 30076 40092 52007=
0089010160999992014011123004+78933+028900FM-12+002099999V0203001N001019999999N999999999-01321-01421100961ADDMA1999990100791MD1210081+9990REMSYN04801016 46/// /3001 11132 21142 30079 40096 52008=
0113010160999992014011200004+78933+028900FM-12+002099999V0202801N001019999999N999999999-01401-01501100981ADDMA1999990100811MD1210091+9990OD139900401999REMSYN05801016 46/// /2801 11140 21150 30081 40098 52009 333 91104=
0089010160999992014011201004+78933+028900FM-12+002099999V0203001N002019999999N999999999-01371-01481101021ADDMA1999990100861MD1210101+9990REMSYN04801016 46/// /3002 11137 21148 30086 40102 52010=
0089010160999992014011202004+78933+028900FM-12+002099999V0202901N002019999999N999999999-01391-01521101051ADDMA1999990100881MD1210091+9990REMSYN04801016 46/// /2902 11139 21152 30088 40105 52009=
0089010160999992014011203004+78933+028900FM-12+002099999V0203001N002019999999N999999999-01311-01431101081ADDMA1999990100921MD1210101+9990REMSYN04801016 46/// /3002 11131 21143 30092 40108 52010=
0089010160999992014011204004+78933+028900FM-12+002099999V0202901N002019999999N999999999-01281-01411101081ADDMA1999990100921MD1210061+9990REMSYN04801016 46/// /2902 11128 21141 30092 40108 52006=
0089010160999992014011205004+78933+028900FM-12+002099999V0203001N002019999999N999999999-01231-01351101121ADDMA1999990100951MD1210071+9990REMSYN04801016 46/// /3002 11123 21135 30095 40112 52007=
0132010160999992014011206004+78933+028900FM-12+002099999V0202901N002019999999N999999999-01151-01271101171ADDKA1240N-01511MA1999990101011MD1110091+9990OD139900401999REMSYN06401016 46/// /2902 11115 21127 30101 40117 51009 333 21151 91104=
0089010160999992014011207004+78933+028900FM-12+002099999V0202701N002019999999N999999999-01061-01171101211ADDMA1999990101051MD1210131+9990REMSYN04801016 46/// /2702 11106 21117 30105 40121 52013=
0089010160999992014011208004+78933+028900FM-12+002099999V0202401N001019999999N999999999-00991-01101101301ADDMA1999990101131MD1210181+9990REMSYN04801016 46/// /2401 11099 21110 30113 40130 52018=
0089010160999992014011209004+78933+028900FM-12+002099999V0202901N001019999999N999999999-01121-01241101341ADDMA1999990101181MD1210171+9990REMSYN04801016 46/// /2901 11112 21124 30118 40134 52017=
0089010160999992014011210004+78933+028900FM-12+002099999V0202401N001019999999N999999999-01071-01181101401ADDMA1999990101241MD1210191+9990REMSYN04801016 46/// /2401 11107 21118 30124 40140 52019=
0089010160999992014011211004+78933+028900FM-12+002099999V0203001N001019999999N999999999-01061-01141101441ADDMA1999990101271MD1210141+9990REMSYN04801016 46/// /3001 11106 21114 30127 40144 52014=
0113010160999992014011212004+78933+028900FM-12+002099999V0203501N001019999999N999999999-01111-01211101461ADDMA1999990101291MD1310121+9990OD139900401999REMSYN05801016 46/// /3501 11111 21121 30129 40146 53012 333 91104=
0089010160999992014011213004+78933+028900FM-12+002099999V0202801N001019999999N999999999-01211-01331101491ADDMA1999990101331MD1210081+9990REMSYN04801016 46/// /2801 11121 21133 30133 40149 52008=
0089010160999992014011214004+78933+028900FM-12+002099999V0209999C999999999999N999999999-01191-01291101511ADDMA1999990101341MD1210071+9990REMSYN04801016 46/// /0000 11119 21129 30134 40151 52007=
0089010160999992014011215004+78933+028900FM-12+002099999V0201801N001019999999N999999999-01271-01401101541ADDMA1999990101371MD1210081+9990REMSYN04801016 46/// /1801 11127 21140 30137 40154 52008=
0089010160999992014011216004+78933+028900FM-12+002099999V0202001N001019999999N999999999-01491-01631101561ADDMA1999990101391MD1210071+9990REMSYN04801016 46/// /2001 11149 21163 30139 40156 52007=
0089010160999992014011217004+78933+028900FM-12+002099999V0201801N001019999999N999999999-01431-01561101591ADDMA1999990101431MD1210091+9990REMSYN04801016 46/// /1801 11143 21156 30143 40159 52009=
0132010160999992014011218004+78933+028900FM-12+002099999V0209999C999999999999N999999999-01171-01291101631ADDKA1120M-00921MA1999990101461MD1210091+9990OD139900201999REMSYN06401016 46/// /0000 11117 21129 30146 40163 52009 333 11092 91102=
0089010160999992014011219004+78933+028900FM-12+002099999V0201701N002019999999N999999999-01331-01461101661ADDMA1999990101501MD1210101+9990REMSYN04801016 46/// /1702 11133 21146 30150 40166 52010=
0089010160999992014011220004+78933+028900FM-12+002099999V0201801N001019999999N999999999-01241-01371101701ADDMA1999990101531MD1210101+9990REMSYN04801016 46/// /1801 11124 21137 30153 40170 52010=
0089010160999992014011221004+78933+028900FM-12+002099999V0201801N001019999999N999999999-01181-01311101731ADDMA1999990101571MD1210111+9990REMSYN04801016 46/// /1801 11118 21131 30157 40173 52011=
0089010160999992014011222004+78933+028900FM-12+002099999V0201801N001019999999N999999999-01211-01341101731ADDMA1999990101571MD1310071+9990REMSYN04801016 46/// /1801 11121 21134 30157 40173 53007=
0089010160999992014011300004+78933+028900FM-12+002099999V0209999C999999999999N999999999-01271-01411101811ADDMA1999990101641MD1110081+9990REMSYN04801016 46/// /0000 11127 21141 30164 40181 51008=
0089010160999992014011301004+78933+028900FM-12+002099999V0209999C999999999999N999999999-01391-01531101851ADDMA1999990101681MD1210111+9990REMSYN04801016 46/// /0000 11139 21153 30168 40185 52011=
0089010160999992014011302004+78933+028900FM-12+002099999V0209999C999999999999N999999999-01411-01561101881ADDMA1999990101711MD1210101+9990REMSYN04801016 46/// /0000 11141 21156 30171 40188 52010=
0089010160999992014011303004+78933+028900FM-12+002099999V0209999C999999999999N999999999-01521-01671101901ADDMA1999990101731MD1210091+9990REMSYN04801016 46/// /0000 11152 21167 30173 40190 52009=
0089010160999992014011304004+78933+028900FM-12+002099999V0209999C999999999999N999999999-01561-01721101911ADDMA1999990101741MD1210061+9990REMSYN04801016 46/// /0000 11156 21172 30174 40191 52006=
0089010160999992014011305004+78933+028900FM-12+002099999V0209999C999999999999N999999999-01551-01701101941ADDMA1999990101771MD1210061+9990REMSYN04801016 46/// /0000 11155 21170 30177 40194 52006=
0113010160999992014011306004+78933+028900FM-12+002099999V0209999C999999999999N999999999-01641-01811101941ADDMA1999990101771MD1210041+9990OD139900001999REMSYN05801016 46/// /0000 11164 21181 30177 40194 52004 333 91100=
0089010160999992014011307004+78933+028900FM-12+002099999V0209999C999999999999N999999999-01351-01481101921ADDMA1999990101751MD1510011+9990REMSYN04801016 46/// /0000 11135 21148 30175 40192 55001=
0108010160999992014011308004+78933+028900FM-12+002099999V0209999C999999999999N999999999-01501-01641101951ADDMA1999990101781MD1290019+9990REMSYN04801016 46/// /0000 11150 21164 30178 40195 54001=EQDQ01.1    3APC3  
0089010160999992014011309004+78933+028900FM-12+002099999V0209999C999999999999N999999999-01501-01641101981ADDMA1999990101811MD1110031+9990REMSYN04801016 46/// /0000 11150 21164 30181 40198 51003=
0089010160999992014011310004+78933+028900FM-12+002099999V0209999C999999999999N999999999-01391-01521102001ADDMA1999990101831MD1210081+9990REMSYN04801016 46/// /0000 11139 21152 30183 40200 52008=
0089010160999992014011311004+78933+028900FM-12+002099999V0209999C999999999999N999999999-01481-01641101991ADDMA1999990101821MD1310041+9990REMSYN04801016 46/// /0000 11148 21164 30182 40199 53004=
0113010160999992014011312004+78933+028900FM-12+002099999V0209999C999999999999N999999999-01411-01561101941ADDMA1999990101771MD1610041+9990OD139900001999REMSYN05801016 46/// /0000 11141 21156 30177 40194 56004 333 91100=
0089010160999992014011313004+78933+028900FM-12+002099999V0209999C999999999999N999999999-01511-01661101931ADDMA1999990101771MD1710071+9990REMSYN04801016 46/// /0000 11151 21166 30177 40193 57007=
0089010160999992014011314004+78933+028900FM-12+002099999V0209999C999999999999N999999999-01361-01501101901ADDMA1999990101731MD1710091+9990REMSYN04801016 46/// /0000 11136 21150 30173 40190 57009=
0089010160999992014011315004+78933+028900FM-12+002099999V0209999C999999999999N999999999-01301-01431101901ADDMA1999990101741MD1710041+9990REMSYN04801016 46/// /0000 11130 21143 30174 40190 57004=
0089010160999992014011316004+78933+028900FM-12+002099999V0209999C999999999999N999999999-01281-01411101851ADDMA1999990101691MD1710081+9990REMSYN04801016 46/// /0000 11128 21141 30169 40185 57008=
0108010160999992014011317004+78933+028900FM-12+002099999V0209999C999999999999N999999999-01251-01381101871ADDMA1999990101701MD1790039+9990REMSYN04801016 46/// /0000 11125 21138 30170 40187 54003=EQDQ01.3    3APC3  
0132010160999992014011318004+78933+028900FM-12+002099999V0209999C999999999999N999999999-01301-01431101851ADDKA1120M-01211MA1999990101691MD1810051+9990OD139900001999REMSYN06401016 46/// /0000 11130 21143 30169 40185 58005 333 11121 91100=
0108010160999992014011319004+78933+028900FM-12+002099999V0209999C999999999999N999999999-01361-01501101881ADDMA1999990101721MD1290039+9990REMSYN04801016 46/// /0000 11136 21150 30172 40188 54003=EQDQ01.3    3APC3  
0108010160999992014011320004+78933+028900FM-12+002099999V0209999C999999999999N999999999-01121-01221101901ADDMA1999990101731MD1290039+9990REMSYN04801016 46/// /0000 11112 21122 30173 40190 54003=EQDQ01.3    3APC3  
0089010160999992014011321004+78933+028900FM-12+002099999V0209999C999999999999N999999999-01121-01241101941ADDMA1999990101771MD1210081+9990REMSYN04801016 46/// /0000 11112 21124 30177 40194 52008=
0089010160999992014011322004+78933+028900FM-12+002099999V0203001N001019999999N999999999-01151-01281102001ADDMA1999990101841MD1110121+9990REMSYN04801016 46/// /3001 11115 21128 30184 40200 51012=
0089010160999992014011323004+78933+028900FM-12+002099999V0203301N007019999999N999999999-01021-01151102051ADDMA1999990101891MD1210161+9990REMSYN04801016 46/// /3307 11102 21115 30189 40205 52016=
0113010160999992014011400004+78933+028900FM-12+002099999V0203601N007019999999N999999999-01021-01191102151ADDMA1999990101981MD1110211+9990OD139901001999REMSYN05801016 46/// /3607 11102 21119 30198 40215 51021 333 91110=
0089010160999992014011401004+78933+028900FM-12+002099999V0203601N007019999999N999999999-01151-01321102221ADDMA1999990102051MD1210221+9990REMSYN04801016 46/// /3607 11115 21132 30205 40222 52022=
0089010160999992014011403004+78933+028900FM-12+002099999V0203601N008019999999N999999999-01171-01341102291ADDMA1999990102121MD1310141+9990REMSYN04801016 46/// /3608 11117 21134 30212 40229 53014=
0089010160999992014011404004+78933+028900FM-12+002099999V0203401N006019999999N999999999-01321-01501102411ADDMA1999990102251MD1110201+9990REMSYN04801016 46/// /3406 11132 21150 30225 40241 51020=
0089010160999992014011405004+78933+028900FM-12+002099999V0203301N005019999999N999999999-01491-01671102471ADDMA1999990102301MD1110191+9990REMSYN04801016 46/// /3305 11149 21167 30230 40247 51019=
0089010160999992014011406004+78933+028900FM-12+002099999V0203401N005019999999N999999999-01521-01671102521ADDMA1999990102351MD1310231+9990REMSYN04801016 46/// /3405 11152 21167 30235 40252 53023=
0089010160999992014011407004+78933+028900FM-12+002099999V0203501N005019999999N999999999-01441-01571102541ADDMA1999990102371MD1310131+9990REMSYN04801016 46/// /3505 11144 21157 30237 40254 53013=
0089010160999992014011408004+78933+028900FM-12+002099999V0203601N004019999999N999999999-01401-01531102591ADDMA1999990102421MD1210121+9990REMSYN04801016 46/// /3604 11140 21153 30242 40259 52012=
0089010160999992014011409004+78933+028900FM-12+002099999V0200201N002019999999N999999999-01361-01471102621ADDMA1999990102451MD1210101+9990REMSYN04801016 46/// /0202 11136 21147 30245 40262 52010=
0089010160999992014011410004+78933+028900FM-12+002099999V0209999C999999999999N999999999-01321-01441102671ADDMA1999990102501MD1210131+9990REMSYN04801016 46/// /0000 11132 21144 30250 40267 52013=
0089010160999992014011411004+78933+028900FM-12+002099999V0203201N002019999999N999999999-01711-01851102711ADDMA1999990102531MD1210111+9990REMSYN04801016 46/// /3202 11171 21185 30253 40271 52011=
0113010160999992014011412004+78933+028900FM-12+002099999V0203301N001019999999N999999999-01541-01651102731ADDMA1999990102561MD1210111+9990OD139900601999REMSYN05801016 46/// /3301 11154 21165 30256 40273 52011 333 91106=
0089010160999992014011413004+78933+028900FM-12+002099999V0201501N001019999999N999999999-01561-01691102711ADDMA1999990102541MD1310041+9990REMSYN04801016 46/// /1501 11156 21169 30254 40271 53004=
0089010160999992014011414004+78933+028900FM-12+002099999V0201801N001019999999N999999999-01581-01731102741ADDMA1999990102571MD1210031+9990REMSYN04801016 46/// /1801 11158 21173 30257 40274 52003=
0089010160999992014011415004+78933+028900FM-12+002099999V0201801N001019999999N999999999-01521-01661102721ADDMA1999990102551MD1410001+9990REMSYN04801016 46/// /1801 11152 21166 30255 40272 54000=
0089010160999992014011416004+78933+028900FM-12+002099999V0201801N001019999999N999999999-01701-01861102701ADDMA1999990102531MD1510011+9990REMSYN04801016 46/// /1801 11170 21186 30253 40270 55001=
0089010160999992014011417004+78933+028900FM-12+002099999V0202001N001019999999N999999999-01811-01981102671ADDMA1999990102501MD1710071+9990REMSYN04801016 46/// /2001 11181 21198 30250 40267 57007=
0132010160999992014011418004+78933+028900FM-12+002099999V0201901N004019999999N999999999-01721-01881102611ADDKA1120M-01251MA1999990102441MD1710111+9990OD139900501999REMSYN06401016 46/// /1904 11172 21188 30244 40261 57011 333 11125 91105=
0089010160999992014011419004+78933+028900FM-12+002099999V0202001N006019999999N999999999-01671-01831102581ADDMA1999990102411MD1710111+9990REMSYN04801016 46/// /2006 11167 21183 30241 40258 57011=
0089010160999992014011420004+78933+028900FM-12+002099999V0201901N005019999999N999999999-01431-01571102581ADDMA1999990102421MD1810081+9990REMSYN04801016 46/// /1905 11143 21157 30242 40258 58008=
0089010160999992014011421004+78933+028900FM-12+002099999V0202001N006019999999N999999999-01461-01611102561ADDMA1999990102401MD1710051+9990REMSYN04801016 46/// /2006 11146 21161 30240 40256 57005=
0089010160999992014011422004+78933+028900FM-12+002099999V0201901N006019999999N999999999-01361-01501102521ADDMA1999990102351MD1610061+9990REMSYN04801016 46/// /1906 11136 21150 30235 40252 56006=
0089010160999992014011423004+78933+028900FM-12+002099999V0201901N005019999999N999999999-01371-01511102501ADDMA1999990102331MD1710091+9990REMSYN04801016 46/// /1905 11137 21151 30233 40250 57009=
0113010160999992014011500004+78933+028900FM-12+002099999V0202301N005019999999N999999999-01321-01441102421ADDMA1999990102251MD1610141+9990OD139900901999REMSYN05801016 46/// /2305 11132 21144 30225 40242 56014 333 91109=
0089010160999992014011502004+78933+028900FM-12+002099999V0202001N003019999999N999999999-01211-01331102311ADDMA1999990102141MD1710191+9990REMSYN04801016 46/// /2003 11121 21133 30214 40231 57019=
0089010160999992014011503004+78933+028900FM-12+002099999V0202101N003019999999N999999999-01071-01181102261ADDMA1999990102091MD1710161+9990REMSYN04801016 46/// /2103 11107 21118 30209 40226 57016=
0089010160999992014011504004+78933+028900FM-12+002099999V0201901N005019999999N999999999-01001-01111102201ADDMA1999990102031MD1710161+9990REMSYN04801016 46/// /1905 11100 21111 30203 40220 57016=
0089010160999992014011505004+78933+028900FM-12+002099999V0202201N007019999999N999999999-00971-01081102151ADDMA1999990101981MD1710161+9990REMSYN04801016 46/// /2207 11097 21108 30198 40215 57016=
0132010160999992014011506004+78933+028900FM-12+002099999V0202401N009019999999N999999999-00831-00941102111ADDKA1240N-01761MA1999990101951MD1710151+9990OD139901001999REMSYN06401016 46/// /2409 11083 21094 30195 40211 57015 333 21176 91110=
0089010160999992014011507004+78933+028900FM-12+002099999V0202201N006019999999N999999999-00831-00941102121ADDMA1999990101951MD1810081+9990REMSYN04801016 46/// /2206 11083 21094 30195 40212 58008=
0089010160999992014011508004+78933+028900FM-12+002099999V0201701N004019999999N999999999-00901-00991102161ADDMA1999990101991MD1900011+9990REMSYN04801016 46/// /1704 11090 21099 30199 40216 50001=
0089010160999992014011509004+78933+028900FM-12+002099999V0201901N003019999999N999999999-00881-00971102151ADDMA1999990101991MD1210041+9990REMSYN04801016 46/// /1903 11088 21097 30199 40215 52004=
0089010160999992014011510004+78933+028900FM-12+002099999V0202301N005019999999N999999999-00821-00911102141ADDMA1999990101981MD1510021+9990REMSYN04801016 46/// /2305 11082 21091 30198 40214 55002=
0108010160999992014011511004+78933+028900FM-12+002099999V0202201N005019999999N999999999-00751-00851102141ADDMA1999990101971MD1790029+9990REMSYN04801016 46/// /2205 11075 21085 30197 40214 54002=EQDQ01.2    3APC3  
0113010160999992014011512004+78933+028900FM-12+002099999V0202101N005019999999N999999999-00761-00841102111ADDMA1999990101951MD1710041+9990OD139901001999REMSYN05801016 46/// /2105 11076 21084 30195 40211 57004 333 91110=
0108010160999992014011513004+78933+028900FM-12+002099999V0202101N003019999999N999999999-00871-00961102111ADDMA1999990101951MD1790039+9990REMSYN04801016 46/// /2103 11087 21096 30195 40211 54003=EQDQ01.3    3APC3  
0089010160999992014011514004+78933+028900FM-12+002099999V0202201N005019999999N999999999-00911-01001102091ADDMA1999990101931MD1710051+9990REMSYN04801016 46/// /2205 11091 21100 30193 40209 57005=
0089010160999992014011515004+78933+028900FM-12+002099999V0202301N003019999999N999999999-00971-01061102061ADDMA1999990101901MD1710051+9990REMSYN04801016 46/// /2303 11097 21106 30190 40206 57005=
0089010160999992014011516004+78933+028900FM-12+002099999V0202201N003019999999N999999999-00931-01021102051ADDMA1999990101881MD1710061+9990REMSYN04801016 46/// /2203 11093 21102 30188 40205 57006=
0089010160999992014011517004+78933+028900FM-12+002099999V0202201N004019999999N999999999-00641-00721102031ADDMA1999990101871MD1710061+9990REMSYN04801016 46/// /2204 11064 21072 30187 40203 57006=
0151010160999992014011518004+78933+028900FM-12+002099999V0202101N004019999999N999999999-00621-00691102041ADDKA1120M-00621MA1999990101871MD1790029+9990OD139900701999REMSYN06401016 46/// /2104 11062 21069 30187 40204 54003 333 11062 91107=EQDQ01.3    3APC3  
0108010160999992014011519004+78933+028900FM-12+002099999V0202001N005019999999N999999999-00541-00611102021ADDMA1999990101861MD1790039+9990REMSYN04801016 46/// /2005 11054 21061 30186 40202 54003=EQDQ01.3    3APC3  
0089010160999992014011520004+78933+028900FM-12+002099999V0202001N004019999999N999999999-00501-00571101991ADDMA1999990101831MD1610041+9990REMSYN04801016 46/// /2004 11050 21057 30183 40199 56004=
0089010160999992014011521004+78933+028900FM-12+002099999V0202301N005019999999N999999999-00431-00491101971ADDMA1999990101811MD1710071+9990REMSYN04801016 46/// /2305 11043 21049 30181 40197 57007=
0089010160999992014011522004+78933+028900FM-12+002099999V0202201N006019999999N999999999-00391-00441101961ADDMA1999990101801MD1710061+9990REMSYN04801016 46/// /2206 11039 21044 30180 40196 57006=
0089010160999992014011523004+78933+028900FM-12+002099999V0202201N005019999999N999999999-00411-00471101951ADDMA1999990101791MD1710041+9990REMSYN04801016 46/// /2205 11041 21047 30179 40195 57004=
0132010160999992014011600004+78933+028900FM-12+002099999V0202301N005019999999N999999999-00471-00511101941ADDMA1999990101781MD1790039+9990OD139900701999REMSYN05801016 46/// /2305 11047 21051 30178 40194 54002 333 91107=EQDQ01.2    3APC3  
0089010160999992014011601004+78933+028900FM-12+002099999V0201901N003019999999N999999999-00581-00641101931ADDMA1999990101761MD1710041+9990REMSYN04801016 46/// /1903 11058 21064 30176 40193 57004=
0108010160999992014011602004+78933+028900FM-12+002099999V0201901N003019999999N999999999-00891-00971101921ADDMA1999990101761MD1790039+9990REMSYN04801016 46/// /1903 11089 21097 30176 40192 54003=EQDQ01.3    3APC3  
0089010160999992014011603004+78933+028900FM-12+002099999V0201901N003019999999N999999999-00651-00701101891ADDMA1999990101731MD1710051+9990REMSYN04801016 46/// /1903 11065 21070 30173 40189 57005=
0089010160999992014011604004+78933+028900FM-12+002099999V0202101N002019999999N999999999-00791-00861101881ADDMA1999990101721MD1710051+9990REMSYN04801016 46/// /2102 11079 21086 30172 40188 57005=
0089010160999992014011605004+78933+028900FM-12+002099999V0202201N003019999999N999999999-00761-00831101861ADDMA1999990101701MD1710061+9990REMSYN04801016 46/// /2203 11076 21083 30170 40186 57006=
0132010160999992014011606004+78933+028900FM-12+002099999V0201601N002019999999N999999999-00741-00811101841ADDKA1240N-00891MA1999990101671MD1710061+9990OD139900501999REMSYN06401016 46/// /1602 11074 21081 30167 40184 57006 333 21089 91105=
0089010160999992014011607004+78933+028900FM-12+002099999V0202001N004019999999N999999999-00701-00771101801ADDMA1999990101641MD1710081+9990REMSYN04801016 46/// /2004 11070 21077 30164 40180 57008=
0089010160999992014011608004+78933+028900FM-12+002099999V0202001N003019999999N999999999-00651-00721101831ADDMA1999990101671MD1810031+9990REMSYN04801016 46/// /2003 11065 21072 30167 40183 58003=
0108010160999992014011609004+78933+028900FM-12+002099999V0201501N004019999999N999999999-00771-00841101831ADDMA1999990101671MD1790019+9990REMSYN04801016 46/// /1504 11077 21084 30167 40183 54001=EQDQ01.1    3APC3  
0089010160999992014011610004+78933+028900FM-12+002099999V0201801N004019999999N999999999-00751-00811101821ADDMA1999990101661MD1510021+9990REMSYN04801016 46/// /1804 11075 21081 30166 40182 55002=
0108010160999992014011611004+78933+028900FM-12+002099999V0201701N004019999999N999999999-00751-00821101811ADDMA1999990101651MD1790029+9990REMSYN04801016 46/// /1704 11075 21082 30165 40181 54002=EQDQ01.2    3APC3  
0113010160999992014011612004+78933+028900FM-12+002099999V0201701N003019999999N999999999-00711-00781101781ADDMA1999990101621MD1710051+9990OD139900601999REMSYN05801016 46/// /1703 11071 21078 30162 40178 57005 333 91106=
0089010160999992014011613004+78933+028900FM-12+002099999V0201901N003019999999N999999999-00701-00771101731ADDMA1999990101561MD1610101+9990REMSYN04801016 46/// /1903 11070 21077 30156 40173 56010=
0089010160999992014011614004+78933+028900FM-12+002099999V0201901N003019999999N999999999-00731-00801101691ADDMA1999990101531MD1710121+9990REMSYN04801016 46/// /1903 11073 21080 30153 40169 57012=
0089010160999992014011615004+78933+028900FM-12+002099999V0202001N005019999999N999999999-00541-00591101631ADDMA1999990101471MD1710151+9990REMSYN04801016 46/// /2005 11054 21059 30147 40163 57015=
0089010160999992014011616004+78933+028900FM-12+002099999V0202001N003019999999N999999999-00501-00551101591ADDMA1999990101431MD1710131+9990REMSYN04801016 46/// /2003 11050 21055 30143 40159 57013=
0089010160999992014011617004+78933+028900FM-12+002099999V0202001N002019999999N999999999-00401-00441101531ADDMA1999990101371MD1710151+9990REMSYN04801016 46/// /2002 11040 21044 30137 40153 57015=
0132010160999992014011618004+78933+028900FM-12+002099999V0202101N005019999999N999999999-00331-00371101451ADDKA1120M-00331MA1999990101291MD1610171+9990OD139900601999REMSYN06401016 46/// /2105 11033 21037 30129 40145 56017 333 11033 91106=
0089010160999992014011619004+78933+028900FM-12+002099999V0202301N004019999999N999999999-00321-00341101391ADDMA1999990101231MD1710201+9990REMSYN04801016 46/// /2304 11032 21034 30123 40139 57020=
0089010160999992014011620004+78933+028900FM-12+002099999V0202201N007019999999N999999999-00321-00361101361ADDMA1999990101201MD1810181+9990REMSYN04801016 46/// /2207 11032 21036 30120 40136 58018=
0089010160999992014011621004+78933+028900FM-12+002099999V0202201N006019999999N999999999-00351-00391101351ADDMA1999990101191MD1810111+9990REMSYN04801016 46/// /2206 11035 21039 30119 40135 58011=
0089010160999992014011622004+78933+028900FM-12+002099999V0202201N007019999999N999999999-00351-00391101311ADDMA1999990101151MD1710081+9990REMSYN04801016 46/// /2207 11035 21039 30115 40131 57008=
0089010160999992014011623004+78933+028900FM-12+002099999V0202301N008019999999N999999999-00331-00371101271ADDMA1999990101111MD1610091+9990REMSYN04801016 46/// /2308 11033 21037 30111 40127 56009=
0113010160999992014011700004+78933+028900FM-12+002099999V0202201N006019999999N999999999-00321-00361101291ADDMA1999990101131MD1810051+9990OD139901001999REMSYN05801016 46/// /2206 11032 21036 30113 40129 58005 333 91110=
0089010160999992014011702004+78933+028900FM-12+002099999V0202101N005019999999N999999999-00391-00431101271ADDMA1999990101111MD1410001+9990REMSYN04801016 46/// /2105 11039 21043 30111 40127 54000=
0089010160999992014011703004+78933+028900FM-12+002099999V0202201N007019999999N999999999-00391-00441101231ADDMA1999990101071MD1710061+9990REMSYN04801016 46/// /2207 11039 21044 30107 40123 57006=
0089010160999992014011704004+78933+028900FM-12+002099999V0202101N004019999999N999999999-00441-00491101221ADDMA1999990101061MD1510021+9990REMSYN04801016 46/// /2104 11044 21049 30106 40122 55002=
0089010160999992014011705004+78933+028900FM-12+002099999V0202101N004019999999N999999999-00461-00521101221ADDMA1999990101061MD1810051+9990REMSYN04801016 46/// /2104 11046 21052 30106 40122 58005=
0089010160999992014011707004+78933+028900FM-12+002099999V0201701N005019999999N999999999-00561-00631101221ADDMA1999990101061MD1410001+9990REMSYN04801016 46/// /1705 11056 21063 30106 40122 54000=
0089010160999992014011708004+78933+028900FM-12+002099999V0201801N003019999999N999999999-00601-00671101251ADDMA1999990101091MD1110031+9990REMSYN04801016 46/// /1803 11060 21067 30109 40125 51003=
0089010160999992014011709004+78933+028900FM-12+002099999V0201601N004019999999N999999999-00541-00601101261ADDMA1999990101101MD1210051+9990REMSYN04801016 46/// /1604 11054 21060 30110 40126 52005=
0089010160999992014011710004+78933+028900FM-12+002099999V0201801N004019999999N999999999-00571-00641101281ADDMA1999990101111MD1210051+9990REMSYN04801016 46/// /1804 11057 21064 30111 40128 52005=
0108010160999992014011711004+78933+028900FM-12+002099999V0202101N004019999999N999999999-00591-00671101271ADDMA1999990101111MD1290029+9990REMSYN04801016 46/// /2104 11059 21067 30111 40127 54002=EQDQ01.2    3APC3  
0132010160999992014011712004+78933+028900FM-12+002099999V0202001N004019999999N999999999-00661-00741101291ADDMA1999990101131MD1290039+9990OD139900801999REMSYN05801016 46/// /2004 11066 21074 30113 40129 54002 333 91108=EQDQ01.2    3APC3  
0108010160999992014011713004+78933+028900FM-12+002099999V0202201N006019999999N999999999-00541-00621101251ADDMA1999990101091MD1790039+9990REMSYN04801016 46/// /2206 11054 21062 30109 40125 54002=EQDQ01.2    3APC3  
0089010160999992014011714004+78933+028900FM-12+002099999V0202101N005019999999N999999999-00611-00691101241ADDMA1999990101081MD1610031+9990REMSYN04801016 46/// /2105 11061 21069 30108 40124 56003=
0089010160999992014011715004+78933+028900FM-12+002099999V0201801N004019999999N999999999-00661-00731101231ADDMA1999990101071MD1710051+9990REMSYN04801016 46/// /1804 11066 21073 30107 40123 57005=
0089010160999992014011716004+78933+028900FM-12+002099999V0202101N006019999999N999999999-00681-00751101191ADDMA1999990101031MD1710061+9990REMSYN04801016 46/// /2106 11068 21075 30103 40119 57006=
0089010160999992014011717004+78933+028900FM-12+002099999V0202201N006019999999N999999999-00671-00741101171ADDMA1999990101011MD1710071+9990REMSYN04801016 46/// /2206 11067 21074 30101 40117 57007=
0132010160999992014011718004+78933+028900FM-12+002099999V0202001N003019999999N999999999-00781-00851101181ADDKA1120M-00431MA1999990101021MD1810051+9990OD139900801999REMSYN06401016 46/// /2003 11078 21085 30102 40118 58005 333 11043 91108=
0089010160999992014011719004+78933+028900FM-12+002099999V0202201N004019999999N999999999-00731-00811101161ADDMA1999990101001MD1710031+9990REMSYN04801016 46/// /2204 11073 21081 30100 40116 57003=
0089010160999992014011720004+78933+028900FM-12+002099999V0202401N007019999999N999999999-00521-00641101121ADDMA1999990100961MD1610051+9990REMSYN04801016 46/// /2407 11052 21064 30096 40112 56005=
0089010160999992014011721004+78933+028900FM-12+002099999V0202401N007019999999N999999999-00461-00621101161ADDMA1999990101001MD1900021+9990REMSYN04801016 46/// /2407 11046 21062 30100 40116 50002=
0089010160999992014011722004+78933+028900FM-12+002099999V0202901N007019999999N999999999-00371-00521101211ADDMA1999990101051MD1900051+9990REMSYN04801016 46/// /2907 11037 21052 30105 40121 50005=
0089010160999992014011723004+78933+028900FM-12+002099999V0202201N003019999999N999999999-00511-00651101221ADDMA1999990101061MD1310101+9990REMSYN04801016 46/// /2203 11051 21065 30106 40122 53010=
0113010160999992014011800004+78933+028900FM-12+002099999V0202601N004019999999N999999999-00561-00701101231ADDMA1999990101071MD1210071+9990OD139901101999REMSYN05801016 46/// /2604 11056 21070 30107 40123 52007 333 91111=
0108010160999992014011801004+78933+028900FM-12+002099999V0202301N005019999999N999999999-00681-00801101221ADDMA1999990101061MD1290019+9990REMSYN04801016 46/// /2305 11068 21080 30106 40122 54001=EQDQ01.1    3APC3  
0089010160999992014011802004+78933+028900FM-12+002099999V0202001N004019999999N999999999-00611-00721101191ADDMA1999990101031MD1510031+9990REMSYN04801016 46/// /2004 11061 21072 30103 40119 55003=
0089010160999992014011803004+78933+028900FM-12+002099999V0202001N003019999999N999999999-00681-00791101151ADDMA1999990100991MD1710091+9990REMSYN04801016 46/// /2003 11068 21079 30099 40115 57009=
0089010160999992014011804004+78933+028900FM-12+002099999V0201801N003019999999N999999999-00741-00841101121ADDMA1999990100961MD1710101+9990REMSYN04801016 46/// /1803 11074 21084 30096 40112 57010=
0089010160999992014011805004+78933+028900FM-12+002099999V0201901N003019999999N999999999-00611-00711101081ADDMA1999990100921MD1710111+9990REMSYN04801016 46/// /1903 11061 21071 30092 40108 57011=
0132010160999992014011806004+78933+028900FM-12+002099999V0202201N007019999999N999999999-00491-00571101011ADDKA1240N-00781MA1999990100851MD1610131+9990OD139900901999REMSYN06401016 46/// /2207 11049 21057 30085 40101 56013 333 21078 91109=
0089010160999992014011807004+78933+028900FM-12+002099999V0202101N008019999999N999999999-00481-00561100971ADDMA1999990100811MD1710151+9990REMSYN04801016 46/// /2108 11048 21056 30081 40097 57015=
0089010160999992014011808004+78933+028900FM-12+002099999V0202201N006019999999N999999999-00381-00481100961ADDMA1999990100811MD1810111+9990REMSYN04801016 46/// /2206 11038 21048 30081 40096 58011=
0089010160999992014011809004+78933+028900FM-12+002099999V0202301N006019999999N999999999-00351-00461100961ADDMA1999990100801MD1810051+9990REMSYN04801016 46/// /2306 11035 21046 30080 40096 58005=
0108010160999992014011810004+78933+028900FM-12+002099999V0202301N008019999999N999999999-00341-00461100951ADDMA1999990100791MD1790029+9990REMSYN04801016 46/// /2308 11034 21046 30079 40095 54002=EQDQ01.2    3APC3  
0108010160999992014011811004+78933+028900FM-12+002099999V0202201N005019999999N999999999-00441-00551100941ADDMA1999990100781MD1790029+9990REMSYN04801016 46/// /2205 11044 21055 30078 40094 54002=EQDQ01.2    3APC3  
0113010160999992014011812004+78933+028900FM-12+002099999V0202101N007019999999N999999999-00481-00601100911ADDMA1999990100751MD1710051+9990OD139900901999REMSYN05801016 46/// /2107 11048 21060 30075 40091 57005 333 91109=
0089010160999992014011813004+78933+028900FM-12+002099999V0201901N004019999999N999999999-00601-00711100921ADDMA1999990100761MD1710031+9990REMSYN04801016 46/// /1904 11060 21071 30076 40092 57003=
0089010160999992014011814004+78933+028900FM-12+002099999V0202401N009019999999N999999999-00301-00481100881ADDMA1999990100721MD1710061+9990REMSYN04801016 46/// /2409 11030 21048 30072 40088 57006=
0089010160999992014011815004+78933+028900FM-12+002099999V0202601N007019999999N999999999-00411-00571100931ADDMA1999990100771MD1900021+9990REMSYN04801016 46/// /2607 11041 21057 30077 40093 50002=
0089010160999992014011816004+78933+028900FM-12+002099999V0202901N007019999999N999999999-00381-00501101001ADDMA1999990100841MD1900081+9990REMSYN04801016 46/// /2907 11038 21050 30084 40100 50008=
0089010160999992014011817004+78933+028900FM-12+002099999V0200201N009019999999N999999999-00501-00621101131ADDMA1999990100971MD1110241+9990REMSYN04801016 46/// /0209 11050 21062 30097 40113 51024=
0132010160999992014011818004+78933+028900FM-12+002099999V0203601N007019999999N999999999-00531-00721101241ADDKA1120M-00281MA1999990101081MD1110311+9990OD139901101999REMSYN06401016 46/// /3607 11053 21072 30108 40124 51031 333 11028 91111=
0089010160999992014011819004+78933+028900FM-12+002099999V0203401N008019999999N999999999-00821-01141101321ADDMA1999990101151MD1310321+9990REMSYN04801016 46/// /3408 11082 21114 30115 40132 53032=
0089010160999992014011820004+78933+028900FM-12+002099999V0203601N005019999999N999999999-01131-01361101401ADDMA1999990101241MD1210271+9990REMSYN04801016 46/// /3605 11113 21136 30124 40140 52027=
0089010160999992014011821004+78933+028900FM-12+002099999V0203501N003019999999N999999999-01091-01391101531ADDMA1999990101371MD1110291+9990REMSYN04801016 46/// /3503 11109 21139 30137 40153 51029=
0089010160999992014011822004+78933+028900FM-12+002099999V0203101N005019999999N999999999-01471-01791101611ADDMA1999990101451MD1210291+9990REMSYN04801016 46/// /3105 11147 21179 30145 40161 52029=
0089010160999992014011823004+78933+028900FM-12+002099999V0203401N003019999999N999999999-01371-01631101651ADDMA1999990101491MD1310251+9990REMSYN04801016 46/// /3403 11137 21163 30149 40165 53025=
0113010160999992014011900004+78933+028900FM-12+002099999V0202701N002019999999N999999999-01411-01621101691ADDMA1999990101521MD1310151+9990OD139901001999REMSYN05801016 46/// /2702 11141 21162 30152 40169 53015 333 91110=
0089010160999992014011901004+78933+028900FM-12+002099999V0201401N001019999999N999999999-01461-01661101721ADDMA1999990101551MD1210101+9990REMSYN04801016 46/// /1401 11146 21166 30155 40172 52010=
0089010160999992014011902004+78933+028900FM-12+002099999V0201901N002019999999N999999999-01451-01641101731ADDMA1999990101561MD1210081+9990REMSYN04801016 46/// /1902 11145 21164 30156 40173 52008=
0089010160999992014011903004+78933+028900FM-12+002099999V0203201N004019999999N999999999-01541-01741101731ADDMA1999990101571MD1210051+9990REMSYN04801016 46/// /3204 11154 21174 30157 40173 52005=
0089010160999992014011904004+78933+028900FM-12+002099999V0203201N006019999999N999999999-01631-01791101781ADDMA1999990101621MD1110071+9990REMSYN04801016 46/// /3206 11163 21179 30162 40178 51007=
0089010160999992014011905004+78933+028900FM-12+002099999V0203001N007019999999N999999999-01541-01701101841ADDMA1999990101671MD1110101+9990REMSYN04801016 46/// /3007 11154 21170 30167 40184 51010=
0132010160999992014011906004+78933+028900FM-12+002099999V0202301N002019999999N999999999-01551-01721101881ADDKA1240N-01761MA1999990101711MD1210141+9990OD139900801999REMSYN06401016 46/// /2302 11155 21172 30171 40188 52014 333 21176 91108=
0089010160999992014011907004+78933+028900FM-12+002099999V0202901N006019999999N999999999-01531-01701101891ADDMA1999990101721MD1310111+9990REMSYN04801016 46/// /2906 11153 21170 30172 40189 53011=
0089010160999992014011908004+78933+028900FM-12+002099999V0202801N005019999999N999999999-01501-01661101921ADDMA1999990101751MD1210081+9990REMSYN04801016 46/// /2805 11150 21166 30175 40192 52008=
0089010160999992014011909004+78933+028900FM-12+002099999V0202901N002019999999N999999999-01621-01821101971ADDMA1999990101811MD1110101+9990REMSYN04801016 46/// /2902 11162 21182 30181 40197 51010=
0089010160999992014011910004+78933+028900FM-12+002099999V0202701N004019999999N999999999-01491-01671102011ADDMA1999990101851MD1210121+9990REMSYN04801016 46/// /2704 11149 21167 30185 40201 52012=
0089010160999992014011911004+78933+028900FM-12+002099999V0203001N007019999999N999999999-01431-01621102041ADDMA1999990101871MD1210121+9990REMSYN04801016 46/// /3007 11143 21162 30187 40204 52012=
0113010160999992014011912004+78933+028900FM-12+002099999V0203001N005019999999N999999999-01611-01811102051ADDMA1999990101881MD1210081+9990OD139900801999REMSYN05801016 46/// /3005 11161 21181 30188 40205 52008 333 91108=
0089010160999992014011913004+78933+028900FM-12+002099999V0203001N006019999999N999999999-01501-01661102071ADDMA1999990101901MD1210061+9990REMSYN04801016 46/// /3006 11150 21166 30190 40207 52006=
0089010160999992014011914004+78933+028900FM-12+002099999V0202801N003019999999N999999999-01431-01581102091ADDMA1999990101921MD1210051+9990REMSYN04801016 46/// /2803 11143 21158 30192 40209 52005=
0089010160999992014011915004+78933+028900FM-12+002099999V0202901N005019999999N999999999-01531-01681102121ADDMA1999990101951MD1210071+9990REMSYN04801016 46/// /2905 11153 21168 30195 40212 52007=
0089010160999992014011916004+78933+028900FM-12+002099999V0203001N005019999999N999999999-01611-01781102161ADDMA1999990102001MD1210091+9990REMSYN04801016 46/// /3005 11161 21178 30200 40216 52009=
0089010160999992014011917004+78933+028900FM-12+002099999V0202801N003019999999N999999999-01511-01651102181ADDMA1999990102011MD1210091+9990REMSYN04801016 46/// /2803 11151 21165 30201 40218 52009=
0132010160999992014011918004+78933+028900FM-12+002099999V0203001N005019999999N999999999-01171-01401102181ADDKA1120M-01111MA1999990102021MD1310071+9990OD139900701999REMSYN06401016 46/// /3005 11117 21140 30202 40218 53007 333 11111 91107=
0089010160999992014011919004+78933+028900FM-12+002099999V0203001N006019999999N999999999-01161-01371102191ADDMA1999990102031MD1210031+9990REMSYN04801016 46/// /3006 11116 21137 30203 40219 52003=
0089010160999992014011920004+78933+028900FM-12+002099999V0203401N006019999999N999999999-00951-01191102211ADDMA1999990102051MD1210031+9990REMSYN04801016 46/// /3406 11095 21119 30205 40221 52003=
0089010160999992014011921004+78933+028900FM-12+002099999V0203001N006019999999N999999999-01101-01291102261ADDMA1999990102091MD1110081+9990REMSYN04801016 46/// /3006 11110 21129 30209 40226 51008=
0089010160999992014011922004+78933+028900FM-12+002099999V0203001N006019999999N999999999-01131-01321102271ADDMA1999990102111MD1210081+9990REMSYN04801016 46/// /3006 11113 21132 30211 40227 52008=
0089010160999992014011923004+78933+028900FM-12+002099999V0203001N006019999999N999999999-01011-01191102301ADDMA1999990102131MD1210081+9990REMSYN04801016 46/// /3006 11101 21119 30213 40230 52008=
0113010160999992014012000004+78933+028900FM-12+002099999V0203001N005019999999N999999999-00971-01151102321ADDMA1999990102151MD1210061+9990OD139900701999REMSYN05801016 46/// /3005 11097 21115 30215 40232 52006 333 91107=
0089010160999992014012001004+78933+028900FM-12+002099999V0203001N005019999999N999999999-00971-01131102311ADDMA1999990102141MD1310031+9990REMSYN04801016 46/// /3005 11097 21113 30214 40231 53003=
0089010160999992014012002004+78933+028900FM-12+002099999V0203001N004019999999N999999999-00961-01121102331ADDMA1999990102171MD1210031+9990REMSYN04801016 46/// /3004 11096 21112 30217 40233 52003=
0108010160999992014012003004+78933+028900FM-12+002099999V0203001N003019999999N999999999-00921-01091102341ADDMA1999990102171MD1290029+9990REMSYN04801016 46/// /3003 11092 21109 30217 40234 54002=EQDQ01.2    3APC3  
0108010160999992014012004004+78933+028900FM-12+002099999V0203301N002019999999N999999999-00881-01051102331ADDMA1999990102171MD1290029+9990REMSYN04801016 46/// /3302 11088 21105 30217 40233 54003=EQDQ01.3    3APC3  
0089010160999992014012005004+78933+028900FM-12+002099999V0203501N002019999999N999999999-00841-01021102331ADDMA1999990102171MD1410001+9990REMSYN04801016 46/// /3502 11084 21102 30217 40233 54000=
0132010160999992014012006004+78933+028900FM-12+002099999V0203201N001019999999N999999999-00851-01021102341ADDKA1240N-01231MA1999990102171MD1410001+9990OD139900601999REMSYN06401016 46/// /3201 11085 21102 30217 40234 54000 333 21123 91106=
0108010160999992014012007004+78933+028900FM-12+002099999V0202901N002019999999N999999999-00931-01091102361ADDMA1999990102201MD1290039+9990REMSYN04801016 46/// /2902 11093 21109 30220 40236 54003=EQDQ01.3    3APC3  
0089010160999992014012008004+78933+028900FM-12+002099999V0202401N001019999999N999999999-00881-01021102371ADDMA1999990102201MD1210031+9990REMSYN04801016 46/// /2401 11088 21102 30220 40237 52003=
0089010160999992014012009004+78933+028900FM-12+002099999V0202401N002019999999N999999999-00921-01061102391ADDMA1999990102221MD1210051+9990REMSYN04801016 46/// /2402 11092 21106 30222 40239 52005=
0108010160999992014012010004+78933+028900FM-12+002099999V0202201N001019999999N999999999-00941-01061102371ADDMA1999990102201MD1290019+9990REMSYN04801016 46/// /2201 11094 21106 30220 40237 54001=EQDQ01.1    3APC3  
0089010160999992014012011004+78933+028900FM-12+002099999V0202101N003019999999N999999999-00961-01041102341ADDMA1999990102171MD1510031+9990REMSYN04801016 46/// /2103 11096 21104 30217 40234 55003=
0113010160999992014012012004+78933+028900FM-12+002099999V0201801N004019999999N999999999-00911-01021102301ADDMA1999990102141MD1710091+9990OD139900501999REMSYN05801016 46/// /1804 11091 21102 30214 40230 57009 333 91105=
0089010160999992014012013004+78933+028900FM-12+002099999V0202001N005019999999N999999999-00931-01021102231ADDMA1999990102071MD1610141+9990REMSYN04801016 46/// /2005 11093 21102 30207 40223 56014=
0089010160999992014012014004+78933+028900FM-12+002099999V0201901N006019999999N999999999-00961-01041102201ADDMA1999990102041MD1710141+9990REMSYN04801016 46/// /1906 11096 21104 30204 40220 57014=
0089010160999992014012015004+78933+028900FM-12+002099999V0201801N008019999999N999999999-00911-00991102121ADDMA1999990101961MD1710181+9990REMSYN04801016 46/// /1808 11091 21099 30196 40212 57018=
0089010160999992014012016004+78933+028900FM-12+002099999V0201801N009019999999N999999999-00861-00941102041ADDMA1999990101871MD1610201+9990REMSYN04801016 46/// /1809 11086 21094 30187 40204 56020=
0089010160999992014012017004+78933+028900FM-12+002099999V0201801N008019999999N999999999-00821-00901101971ADDMA1999990101801MD1710231+9990REMSYN04801016 46/// /1808 11082 21090 30180 40197 57023=
0132010160999992014012018004+78933+028900FM-12+002099999V0201801N011019999999N999999999-00791-00871101841ADDKA1120M-00791MA1999990101671MD1610291+9990OD139901301999REMSYN06401016 46/// /1811 11079 21087 30167 40184 56029 333 11079 91113=
0089010160999992014012019004+78933+028900FM-12+002099999V0201801N011019999999N999999999-00771-00851101731ADDMA1999990101571MD1610311+9990REMSYN04801016 46/// /1811 11077 21085 30157 40173 56031=
0089010160999992014012020004+78933+028900FM-12+002099999V0201801N010019999999N999999999-00671-00751101651ADDMA1999990101491MD1810321+9990REMSYN04801016 46/// /1810 11067 21075 30149 40165 58032=
0089010160999992014012021004+78933+028900FM-12+002099999V0201801N011019999999N999999999-00621-00691101511ADDMA1999990101351MD1610331+9990REMSYN04801016 46/// /1811 11062 21069 30135 40151 56033=
0089010160999992014012022004+78933+028900FM-12+002099999V0201801N008019999999N999999999-00561-00621101411ADDMA1999990101251MD1710311+9990REMSYN04801016 46/// /1808 11056 21062 30125 40141 57031=
0089010160999992014012023004+78933+028900FM-12+002099999V0201801N007019999999N999999999-00461-00511101291ADDMA1999990101131MD1710361+9990REMSYN04801016 46/// /1807 11046 21051 30113 40129 57036=
0113010160999992014012100004+78933+028900FM-12+002099999V0201901N005019999999N999999999-00401-00451101201ADDMA1999990101041MD1710311+9990OD139901301999REMSYN05801016 46/// /1905 11040 21045 30104 40120 57031 333 91113=
0089010160999992014012101004+78933+028900FM-12+002099999V0202401N002019999999N999999999-00421-00471101151ADDMA1999990100991MD1810261+9990REMSYN04801016 46/// /2402 11042 21047 30099 40115 58026=
0089010160999992014012102004+78933+028900FM-12+002099999V0203001N007019999999N999999999-00561-00621101131ADDMA1999990100971MD1810161+9990REMSYN04801016 46/// /3007 11056 21062 30097 40113 58016=
0089010160999992014012103004+78933+028900FM-12+002099999V0203001N007019999999N999999999-00811-00881101131ADDMA1999990100971MD1810061+9990REMSYN04801016 46/// /3007 11081 21088 30097 40113 58006=
0108010160999992014012104004+78933+028900FM-12+002099999V0203001N008019999999N999999999-00831-00911101121ADDMA1999990100961MD1790039+9990REMSYN04801016 46/// /3008 11083 21091 30096 40112 54003=EQDQ01.3    3APC3  
0108010160999992014012105004+78933+028900FM-12+002099999V0203001N007019999999N999999999-00661-00731101111ADDMA1999990100951MD1790029+9990REMSYN04801016 46/// /3007 11066 21073 30095 40111 54002=EQDQ01.2    3APC3  
0132010160999992014012106004+78933+028900FM-12+002099999V0203001N006019999999N999999999-00581-00651101151ADDKA1240N-00891MA1999990100991MD1900011+9990OD139900901999REMSYN06401016 46/// /3006 11058 21065 30099 40115 50001 333 21089 91109=
0089010160999992014012107004+78933+028900FM-12+002099999V0203001N005019999999N999999999-00601-00701101171ADDMA1999990101011MD1110051+9990REMSYN04801016 46/// /3005 11060 21070 30101 40117 51005=
0089010160999992014012108004+78933+028900FM-12+002099999V0203101N006019999999N999999999-00581-00691101171ADDMA1999990101011MD1310061+9990REMSYN04801016 46/// /3106 11058 21069 30101 40117 53006=
0089010160999992014012109004+78933+028900FM-12+002099999V0203101N006019999999N999999999-00581-00701101231ADDMA1999990101071MD1110081+9990REMSYN04801016 46/// /3106 11058 21070 30107 40123 51008=
0089010160999992014012110004+78933+028900FM-12+002099999V0203301N006019999999N999999999-00551-00691101251ADDMA1999990101091MD1210081+9990REMSYN04801016 46/// /3306 11055 21069 30109 40125 52008=
0089010160999992014012111004+78933+028900FM-12+002099999V0203101N005019999999N999999999-00531-00731101251ADDMA1999990101091MD1310081+9990REMSYN04801016 46/// /3105 11053 21073 30109 40125 53008=
0113010160999992014012112004+78933+028900FM-12+002099999V0203301N006019999999N999999999-00561-00761101271ADDMA1999990101111MD1210051+9990OD139900701999REMSYN05801016 46/// /3306 11056 21076 30111 40127 52005 333 91107=
0089010160999992014012113004+78933+028900FM-12+002099999V0203201N007019999999N999999999-00581-00771101301ADDMA1999990101141MD1210051+9990REMSYN04801016 46/// /3207 11058 21077 30114 40130 52005=
0089010160999992014012114004+78933+028900FM-12+002099999V0203201N007019999999N999999999-00681-00881101341ADDMA1999990101181MD1210091+9990REMSYN04801016 46/// /3207 11068 21088 30118 40134 52009=
0089010160999992014012115004+78933+028900FM-12+002099999V0203401N007019999999N999999999-00541-00651101381ADDMA1999990101211MD1210101+9990REMSYN04801016 46/// /3407 11054 21065 30121 40138 52010=
0089010160999992014012116004+78933+028900FM-12+002099999V0203501N006019999999N999999999-00481-00621101441ADDMA1999990101281MD1210141+9990REMSYN04801016 46/// /3506 11048 21062 30128 40144 52014=
0089010160999992014012117004+78933+028900FM-12+002099999V0203601N006019999999N999999999-00461-00651101521ADDMA1999990101361MD1110181+9990REMSYN04801016 46/// /3606 11046 21065 30136 40152 51018=
0132010160999992014012118004+78933+028900FM-12+002099999V0200401N007019999999N999999999-00611-00731101611ADDKA1120M-00441MA1999990101451MD1210231+9990OD139900901999REMSYN06401016 46/// /0407 11061 21073 30145 40161 52023 333 11044 91109=
0089010160999992014012119004+78933+028900FM-12+002099999V0200401N005019999999N999999999-00721-00841101701ADDMA1999990101541MD1210261+9990REMSYN04801016 46/// /0405 11072 21084 30154 40170 52026=
0089010160999992014012120004+78933+028900FM-12+002099999V0200401N004019999999N999999999-00791-00901101771ADDMA1999990101601MD1210251+9990REMSYN04801016 46/// /0404 11079 21090 30160 40177 52025=
0089010160999992014012121004+78933+028900FM-12+002099999V0200701N003019999999N999999999-00851-00961101841ADDMA1999990101681MD1210231+9990REMSYN04801016 46/// /0703 11085 21096 30168 40184 52023=
0089010160999992014012122004+78933+028900FM-12+002099999V0200901N003019999999N999999999-00951-01041101901ADDMA1999990101741MD1210201+9990REMSYN04801016 46/// /0903 11095 21104 30174 40190 52020=
