0081010190999992014052221004+77517+020817FM-12+002099999V0202801N002019999999N999999999+03161+00361999999ADDAA103000091REMSYN05801019 46/// /2802 10316 20036 3//// 4//// 5//// 333 60007=
0081010190999992014052303004+77517+020817FM-12+002099999V0203001N002019999999N999999999+03271+00181999999ADDAA103000091REMSYN05801019 46/// /3002 10327 20018 3//// 4//// 5//// 333 60007=
