0094010110999992014010101004+80067+031500FM-12+001099999V0200201N003019999999N999999999-01311-01611102171ADDMA1999990102061REMSYN04801011 46/// /0203 11131 21161 30206 40217 54001=EQDQ014     3APCTEN
0089010110999992014010102004+80067+031500FM-12+001099999V0200701N002019999999N999999999-01341-01601102131ADDMA1999990102021MD1710041+9990REMSYN04801011 46/// /0702 11134 21160 30202 40213 57004=
0089010110999992014010104004+80067+031500FM-12+001099999V0200601N001019999999N999999999-01321-01581102101ADDMA1999990101991MD1710061+9990REMSYN04801011 46/// /0601 11132 21158 30199 40210 57006=
0089010110999992014010105004+80067+031500FM-12+001099999V0200801N002019999999N999999999-01341-01561102091ADDMA1999990101971MD1710051+9990REMSYN04801011 46/// /0802 11134 21156 30197 40209 57005=
0113010110999992014010106004+80067+031500FM-12+001099999V0200801N005019999999N999999999-01471-01681102081ADDMA1999990101971MD1710041+9990OD139900601999REMSYN05801011 46/// /0805 11147 21168 30197 40208 57004 333 91106=
0089010110999992014010107004+80067+031500FM-12+001099999V0201101N004019999999N999999999-01261-01481102101ADDMA1999990101991MD1900001+9990REMSYN04801011 46/// /1104 11126 21148 30199 40210 50000=
0108010110999992014010108004+80067+031500FM-12+001099999V0201201N004019999999N999999999-01241-01531102101ADDMA1999990101981MD1290019+9990REMSYN04801011 46/// /1204 11124 21153 30198 40210 54001=EQDQ01.1    3APC3  
0089010110999992014010109004+80067+031500FM-12+001099999V0201101N005019999999N999999999-01261-01501102091ADDMA1999990101971MD1510011+9990REMSYN04801011 46/// /1105 11126 21150 30197 40209 55001=
0089010110999992014010110004+80067+031500FM-12+001099999V0201101N006019999999N999999999-01231-01501102111ADDMA1999990101991MD1410001+9990REMSYN04801011 46/// /1106 11123 21150 30199 40211 54000=
0108010110999992014010111004+80067+031500FM-12+001099999V0201101N007019999999N999999999-01251-01451102111ADDMA1999990102001MD1290019+9990REMSYN04801011 46/// /1107 11125 21145 30200 40211 54002=EQDQ01.2    3APC3  
0089010110999992014010113004+80067+031500FM-12+001099999V0201201N010019999999N999999999-01191-01361102051ADDMA1999990101941MD1610051+9990REMSYN04801011 46/// /1210 11119 21136 30194 40205 56005=
0089010110999992014010114004+80067+031500FM-12+001099999V0201101N012019999999N999999999-01141-01291101991ADDMA1999990101881MD1610121+9990REMSYN04801011 46/// /1112 11114 21129 30188 40199 56012=
0089010110999992014010115004+80067+031500FM-12+001099999V0201101N013019999999N999999999-01121-01261101951ADDMA1999990101841MD1710141+9990REMSYN04801011 46/// /1113 11112 21126 30184 40195 57014=
0089010110999992014010116004+80067+031500FM-12+001099999V0201101N014019999999N999999999-01101-01241101851ADDMA1999990101741MD1610201+9990REMSYN04801011 46/// /1114 11110 21124 30174 40185 56020=
0089010110999992014010117004+80067+031500FM-12+001099999V0201001N013019999999N999999999-01061-01201101831ADDMA1999990101721MD1710161+9990REMSYN04801011 46/// /1013 11106 21120 30172 40183 57016=
0113010110999992014010118004+80067+031500FM-12+001099999V0201101N012019999999N999999999-00951-01071101831ADDMA1999990101721MD1810121+9990OD139901601999REMSYN05801011 46/// /1112 11095 21107 30172 40183 58012 333 91116=
0108010110999992014010119004+80067+031500FM-12+001099999V0201201N010019999999N999999999-00851-00961101821ADDMA1999990101711MD1790039+9990REMSYN04801011 46/// /1210 11085 21096 30171 40182 54003=EQDQ01.3    3APC3  
0108010110999992014010120004+80067+031500FM-12+001099999V0201401N009019999999N999999999-00721-00801101801ADDMA1999990101691MD1790039+9990REMSYN04801011 46/// /1409 11072 21080 30169 40180 54003=EQDQ01.3    3APC3  
0089010110999992014010121004+80067+031500FM-12+001099999V0201501N010019999999N999999999-00641-00721101771ADDMA1999990101661MD1710061+9990REMSYN04801011 46/// /1510 11064 21072 30166 40177 57006=
0089010110999992014010122004+80067+031500FM-12+001099999V0201501N010019999999N999999999-00621-00691101761ADDMA1999990101651MD1710061+9990REMSYN04801011 46/// /1510 11062 21069 30165 40176 57006=
0089010110999992014010123004+80067+031500FM-12+001099999V0201501N008019999999N999999999-00591-00671101811ADDMA1999990101701MD1900011+9990REMSYN04801011 46/// /1508 11059 21067 30170 40181 50001=
0132010110999992014010200004+80067+031500FM-12+001099999V0201501N007019999999N999999999-00551-00621101781ADDMA1999990101671MD1290019+9990OD139901401999REMSYN05801011 46/// /1507 11055 21062 30167 40178 54002 333 91114=EQDQ01.2    3APC3  
0089010110999992014010201004+80067+031500FM-12+001099999V0201701N006019999999N999999999-00511-00611101801ADDMA1999990101691MD1210041+9990REMSYN04801011 46/// /1706 11051 21061 30169 40180 52004=
0108010110999992014010202004+80067+031500FM-12+001099999V0201901N008019999999N999999999-00491-00631101801ADDMA1999990101691MD1790019+9990REMSYN04801011 46/// /1908 11049 21063 30169 40180 54001=EQDQ01.1    3APC3  
0089010110999992014010203004+80067+031500FM-12+001099999V0201801N006019999999N999999999-00511-00651101821ADDMA1999990101711MD1210031+9990REMSYN04801011 46/// /1806 11051 21065 30171 40182 52003=
0089010110999992014010204004+80067+031500FM-12+001099999V0201801N005019999999N999999999-00511-00631101841ADDMA1999990101731MD1210041+9990REMSYN04801011 46/// /1805 11051 21063 30173 40184 52004=
0089010110999992014010205004+80067+031500FM-12+001099999V0201901N004019999999N999999999-00691-00821101861ADDMA1999990101751MD1210061+9990REMSYN04801011 46/// /1904 11069 21082 30175 40186 52006=
0132010110999992014010206004+80067+031500FM-12+001099999V0202001N003019999999N999999999-00641-00761101881ADDKA1240N-00941MA1999990101771MD1210061+9990OD139901001999REMSYN06401011 46/// /2003 11064 21076 30177 40188 52006 333 21094 91110=
0089010110999992014010207004+80067+031500FM-12+001099999V0201901N003019999999N999999999-00621-00751101901ADDMA1999990101791MD1210071+9990REMSYN04801011 46/// /1903 11062 21075 30179 40190 52007=
0089010110999992014010208004+80067+031500FM-12+001099999V0201701N003019999999N999999999-00591-00751101931ADDMA1999990101821MD1210071+9990REMSYN04801011 46/// /1703 11059 21075 30182 40193 52007=
0089010110999992014010209004+80067+031500FM-12+001099999V0201801N003019999999N999999999-00631-00791101971ADDMA1999990101861MD1210091+9990REMSYN04801011 46/// /1803 11063 21079 30186 40197 52009=
0089010110999992014010210004+80067+031500FM-12+001099999V0201601N002019999999N999999999-00831-00991101991ADDMA1999990101881MD1210081+9990REMSYN04801011 46/// /1602 11083 21099 30188 40199 52008=
0089010110999992014010211004+80067+031500FM-12+001099999V0202001N003019999999N999999999-00681-00831101991ADDMA1999990101881MD1310061+9990REMSYN04801011 46/// /2003 11068 21083 30188 40199 53006=
0132010110999992014010212004+80067+031500FM-12+001099999V0201901N003019999999N999999999-00681-00811101991ADDMA1999990101881MD1290029+9990OD139900601999REMSYN05801011 46/// /1903 11068 21081 30188 40199 54002 333 91106=EQDQ01.2    3APC3  
0108010110999992014010213004+80067+031500FM-12+001099999V0201801N002019999999N999999999-00711-00831101981ADDMA1999990101871MD1790019+9990REMSYN04801011 46/// /1802 11071 21083 30187 40198 54001=EQDQ01.1    3APC3  
0108010110999992014010214004+80067+031500FM-12+001099999V0201501N002019999999N999999999-00761-00821101961ADDMA1999990101851MD1790039+9990REMSYN04801011 46/// /1502 11076 21082 30185 40196 54003=EQDQ01.3    3APC3  
0108010110999992014010215004+80067+031500FM-12+001099999V0201401N003019999999N999999999-00771-00821101961ADDMA1999990101851MD1790039+9990REMSYN04801011 46/// /1403 11077 21082 30185 40196 54003=EQDQ01.3    3APC3  
0108010110999992014010216004+80067+031500FM-12+001099999V0201201N003019999999N999999999-00801-00871101961ADDMA1999990101841MD1790029+9990REMSYN04801011 46/// /1203 11080 21087 30184 40196 54003=EQDQ01.3    3APC3  
0089010110999992014010217004+80067+031500FM-12+001099999V0201201N004019999999N999999999-00841-00921101921ADDMA1999990101811MD1610041+9990REMSYN04801011 46/// /1204 11084 21092 30181 40192 56004=
0132010110999992014010218004+80067+031500FM-12+001099999V0201401N003019999999N999999999-00821-00891101901ADDKA1120M-00591MA1999990101791MD1710061+9990OD139900501999REMSYN06401011 46/// /1403 11082 21089 30179 40190 57006 333 11059 91105=
0089010110999992014010219004+80067+031500FM-12+001099999V0201501N003019999999N999999999-00861-00931101901ADDMA1999990101791MD1710061+9990REMSYN04801011 46/// /1503 11086 21093 30179 40190 57006=
0108010110999992014010220004+80067+031500FM-12+001099999V0201401N003019999999N999999999-00901-00971101901ADDMA1999990101791MD1790029+9990REMSYN04801011 46/// /1403 11090 21097 30179 40190 54002=EQDQ01.2    3APC3  
0108010110999992014010221004+80067+031500FM-12+001099999V0201201N004019999999N999999999-00861-00951101891ADDMA1999990101781MD1790019+9990REMSYN04801011 46/// /1204 11086 21095 30178 40189 54001=EQDQ01.1    3APC3  
0108010110999992014010222004+80067+031500FM-12+001099999V0201201N006019999999N999999999-00901-01011101871ADDMA1999990101761MD1790039+9990REMSYN04801011 46/// /1206 11090 21101 30176 40187 54003=EQDQ01.3    3APC3  
0089010110999992014010223004+80067+031500FM-12+001099999V0201201N007019999999N999999999-00811-00921101851ADDMA1999990101731MD1710051+9990REMSYN04801011 46/// /1207 11081 21092 30173 40185 57005=
0113010110999992014010300004+80067+031500FM-12+001099999V0201201N006019999999N999999999-00791-00891101841ADDMA1999990101731MD1710051+9990OD139900801999REMSYN05801011 46/// /1206 11079 21089 30173 40184 57005 333 91108=
0089010110999992014010301004+80067+031500FM-12+001099999V0201301N006019999999N999999999-00711-00821101781ADDMA1999990101671MD1710091+9990REMSYN04801011 46/// /1306 11071 21082 30167 40178 57009=
0089010110999992014010302004+80067+031500FM-12+001099999V0201101N006019999999N999999999-00681-00781101751ADDMA1999990101641MD1710091+9990REMSYN04801011 46/// /1106 11068 21078 30164 40175 57009=
0089010110999992014010304004+80067+031500FM-12+001099999V0201801N004019999999N999999999-00601-00711101751ADDMA1999990101641MD1610031+9990REMSYN04801011 46/// /1804 11060 21071 30164 40175 56003=
0089010110999992014010305004+80067+031500FM-12+001099999V0202001N004019999999N999999999-00551-00691101751ADDMA1999990101641MD1510011+9990REMSYN04801011 46/// /2004 11055 21069 30164 40175 55001=
0089010110999992014010306004+80067+031500FM-12+001099999V0203301N006019999999N999999999-00781-00901101771ADDMA1999990101661MD1810051+9990REMSYN04801011 46/// /3306 11078 21090 30166 40177 58005=
0089010110999992014010307004+80067+031500FM-12+001099999V0203301N008019999999N999999999-00891-01031101801ADDMA1999990101691MD1110051+9990REMSYN04801011 46/// /3308 11089 21103 30169 40180 51005=
0089010110999992014010308004+80067+031500FM-12+001099999V0203301N006019999999N999999999-00921-01101101851ADDMA1999990101731MD1210101+9990REMSYN04801011 46/// /3306 11092 21110 30173 40185 52010=
0089010110999992014010309004+80067+031500FM-12+001099999V0203601N005019999999N999999999-00941-01141101861ADDMA1999990101741MD1210091+9990REMSYN04801011 46/// /3605 11094 21114 30174 40186 52009=
0089010110999992014010310004+80067+031500FM-12+001099999V0203501N005019999999N999999999-00961-01131101881ADDMA1999990101771MD1210081+9990REMSYN04801011 46/// /3505 11096 21113 30177 40188 52008=
0089010110999992014010311004+80067+031500FM-12+001099999V0203501N003019999999N999999999-00951-01191101891ADDMA1999990101771MD1210041+9990REMSYN04801011 46/// /3503 11095 21119 30177 40189 52004=
0113010110999992014010312004+80067+031500FM-12+001099999V0203301N002019999999N999999999-00941-01141101911ADDMA1999990101801MD1210051+9990OD139900901999REMSYN05801011 46/// /3302 11094 21114 30180 40191 52005 333 91109=
0089010110999992014010313004+80067+031500FM-12+001099999V0203201N006019999999N999999999-01041-01291101891ADDMA1999990101781MD1410001+9990REMSYN04801011 46/// /3206 11104 21129 30178 40189 54000=
0108010110999992014010314004+80067+031500FM-12+001099999V0203001N002019999999N999999999-01011-01191101901ADDMA1999990101791MD1290019+9990REMSYN04801011 46/// /3002 11101 21119 30179 40190 54001=EQDQ01.1    3APC3  
0108010110999992014010315004+80067+031500FM-12+001099999V0203301N003019999999N999999999-01081-01271101901ADDMA1999990101791MD1790019+9990REMSYN04801011 46/// /3303 11108 21127 30179 40190 54001=EQDQ01.1    3APC3  
0108010110999992014010316004+80067+031500FM-12+001099999V0200201N002019999999N999999999-01071-01281101901ADDMA1999990101791MD1290019+9990REMSYN04801011 46/// /0202 11107 21128 30179 40190 54001=EQDQ01.1    3APC3  
0108010110999992014010317004+80067+031500FM-12+001099999V0200301N003019999999N999999999-01101-01391101891ADDMA1999990101781MD1790019+9990REMSYN04801011 46/// /0303 11110 21139 30178 40189 54001=EQDQ01.1    3APC3  
0151010110999992014010318004+80067+031500FM-12+001099999V0203201N002019999999N999999999-01101-01361101901ADDKA1120M-00781MA1999990101781MD1410009+9990OD139900701999REMSYN06401011 46/// /3202 11110 21136 30178 40190 54001 333 11078 91107=EQDQ01.1    3APC3  
0108010110999992014010319004+80067+031500FM-12+001099999V0203301N002019999999N999999999-01121-01391101881ADDMA1999990101771MD1790029+9990REMSYN04801011 46/// /3302 11112 21139 30177 40188 54002=EQDQ01.2    3APC3  
0108010110999992014010320004+80067+031500FM-12+001099999V0203401N004019999999N999999999-01151-01341101911ADDMA1999990101801MD1290029+9990REMSYN04801011 46/// /3404 11115 21134 30180 40191 54002=EQDQ01.2    3APC3  
0108010110999992014010321004+80067+031500FM-12+001099999V0203401N004019999999N999999999-01191-01361101921ADDMA1999990101801MD1290029+9990REMSYN04801011 46/// /3404 11119 21136 30180 40192 54002=EQDQ01.2    3APC3  
0089010110999992014010322004+80067+031500FM-12+001099999V0203401N003019999999N999999999-01201-01391101921ADDMA1999990101801MD1310041+9990REMSYN04801011 46/// /3403 11120 21139 30180 40192 53004=
0089010110999992014010323004+80067+031500FM-12+001099999V0203501N002019999999N999999999-01191-01371101951ADDMA1999990101841MD1210041+9990REMSYN04801011 46/// /3502 11119 21137 30184 40195 52004=
0132010110999992014010400004+80067+031500FM-12+001099999V0200401N004019999999N999999999-01211-01411101941ADDMA1999990101831MD1290029+9990OD139900501999REMSYN05801011 46/// /0404 11121 21141 30183 40194 54002 333 91105=EQDQ014     3APCTEN
0089010110999992014010401004+80067+031500FM-12+001099999V0200201N004019999999N999999999-01231-01401101941ADDMA1999990101821MD1510021+9990REMSYN04801011 46/// /0204 11123 21140 30182 40194 55002=
0108010110999992014010402004+80067+031500FM-12+001099999V0203301N004019999999N999999999-01221-01421101931ADDMA1999990101811MD1790029+9990REMSYN04801011 46/// /3304 11122 21142 30181 40193 54002=EQDQ01.2    3APC3  
0108010110999992014010403004+80067+031500FM-12+001099999V0203201N006019999999N999999999-01261-01461101911ADDMA1999990101801MD1790039+9990REMSYN04801011 46/// /3206 11126 21146 30180 40191 54002=EQDQ01.2    3APC3  
0108010110999992014010404004+80067+031500FM-12+001099999V0203301N005019999999N999999999-01301-01501101911ADDMA1999990101801MD1790039+9990REMSYN04801011 46/// /3305 11130 21150 30180 40191 54002=EQDQ01.2    3APC3  
0089010110999992014010405004+80067+031500FM-12+001099999V0203301N005019999999N999999999-01321-01541101931ADDMA1999990101811MD1410001+9990REMSYN04801011 46/// /3305 11132 21154 30181 40193 54000=
0132010110999992014010406004+80067+031500FM-12+001099999V0203301N006019999999N999999999-01341-01531101921ADDKA1240N-01351MA1999990101811MD1410001+9990OD139900701999REMSYN06401011 46/// /3306 11134 21153 30181 40192 54000 333 21135 91107=
0108010110999992014010407004+80067+031500FM-12+001099999V0203401N006019999999N999999999-01391-01571101931ADDMA1999990101811MD1290029+9990REMSYN04801011 46/// /3406 11139 21157 30181 40193 54001=EQDQ01.1    3APC3  
0089010110999992014010408004+80067+031500FM-12+001099999V0203201N007019999999N999999999-01501-01671101951ADDMA1999990101841MD1900031+9990REMSYN04801011 46/// /3207 11150 21167 30184 40195 50003=
0089010110999992014010409004+80067+031500FM-12+001099999V0203401N006019999999N999999999-01571-01741101981ADDMA1999990101861MD1210061+9990REMSYN04801011 46/// /3406 11157 21174 30186 40198 52006=
0089010110999992014010410004+80067+031500FM-12+001099999V0203401N006019999999N999999999-01521-01671102011ADDMA1999990101891MD1210081+9990REMSYN04801011 46/// /3406 11152 21167 30189 40201 52008=
0089010110999992014010411004+80067+031500FM-12+001099999V0203501N005019999999N999999999-01501-01661102041ADDMA1999990101931MD1210091+9990REMSYN04801011 46/// /3505 11150 21166 30193 40204 52009=
0113010110999992014010412004+80067+031500FM-12+001099999V0203401N005019999999N999999999-01451-01601102011ADDMA1999990101901MD1310041+9990OD139901001999REMSYN05801011 46/// /3405 11145 21160 30190 40201 53004 333 91110=
0089010110999992014010413004+80067+031500FM-12+001099999V0203601N010019999999N999999999-01561-01731102001ADDMA1999990101881MD1510011+9990REMSYN04801011 46/// /3610 11156 21173 30188 40200 55001=
0089010110999992014010414004+80067+031500FM-12+001099999V0200101N009019999999N999999999-01521-01691102021ADDMA1999990101901MD1900031+9990REMSYN04801011 46/// /0109 11152 21169 30190 40202 50003=
0089010110999992014010415004+80067+031500FM-12+001099999V0203601N007019999999N999999999-01391-01661102011ADDMA1999990101901MD1410001+9990REMSYN04801011 46/// /3607 11139 21166 30190 40201 54000=
0108010110999992014010416004+80067+031500FM-12+001099999V0203601N008019999999N999999999-01471-01711102021ADDMA1999990101911MD1290029+9990REMSYN04801011 46/// /3608 11147 21171 30191 40202 54003=EQDQ01.3    3APC3  
0108010110999992014010417004+80067+031500FM-12+001099999V0203601N007019999999N999999999-01491-01731102031ADDMA1999990101911MD1290019+9990REMSYN04801011 46/// /3607 11149 21173 30191 40203 54001=EQDQ01.1    3APC3  
0151010110999992014010418004+80067+031500FM-12+001099999V0200101N005019999999N999999999-01471-01701102031ADDKA1120M-01341MA1999990101921MD1290029+9990OD139901201999REMSYN06401011 46/// /0105 11147 21170 30192 40203 54003 333 11134 91112=EQDQ01.3    3APC3  
0108010110999992014010419004+80067+031500FM-12+001099999V0200101N008019999999N999999999-01431-01681102041ADDMA1999990101931MD1290029+9990REMSYN04801011 46/// /0108 11143 21168 30193 40204 54002=EQDQ01.2    3APC3  
0089010110999992014010420004+80067+031500FM-12+001099999V0203601N006019999999N999999999-01481-01671102071ADDMA1999990101951MD1210041+9990REMSYN04801011 46/// /3606 11148 21167 30195 40207 52004=
0089010110999992014010421004+80067+031500FM-12+001099999V0200201N005019999999N999999999-01491-01691102071ADDMA1999990101961MD1210041+9990REMSYN04801011 46/// /0205 11149 21169 30196 40207 52004=
0089010110999992014010422004+80067+031500FM-12+001099999V0200301N005019999999N999999999-01511-01721102121ADDMA1999990102011MD1210081+9990REMSYN04801011 46/// /0305 11151 21172 30201 40212 52008=
0089010110999992014010423004+80067+031500FM-12+001099999V0200201N004019999999N999999999-01471-01701102151ADDMA1999990102031MD1210081+9990REMSYN04801011 46/// /0204 11147 21170 30203 40215 52008=
0113010110999992014010500004+80067+031500FM-12+001099999V0200201N006019999999N999999999-01481-01711102141ADDMA1999990102031MD1310071+9990OD139901001999REMSYN05801011 46/// /0206 11148 21171 30203 40214 53007 333 91110=
0089010110999992014010501004+80067+031500FM-12+001099999V0200201N005019999999N999999999-01421-01671102131ADDMA1999990102011MD1510001+9990REMSYN04801011 46/// /0205 11142 21167 30201 40213 55000=
0108010110999992014010502004+80067+031500FM-12+001099999V0200201N006019999999N999999999-01351-01631102121ADDMA1999990102011MD1790039+9990REMSYN04801011 46/// /0206 11135 21163 30201 40212 54002=EQDQ01.2    3APC3  
0089010110999992014010503004+80067+031500FM-12+001099999V0200101N005019999999N999999999-01341-01621102141ADDMA1999990102021MD1410001+9990REMSYN04801011 46/// /0105 11134 21162 30202 40214 54000=
0108010110999992014010504004+80067+031500FM-12+001099999V0200101N004019999999N999999999-01381-01661102151ADDMA1999990102041MD1290029+9990REMSYN04801011 46/// /0104 11138 21166 30204 40215 54003=EQDQ01.3    3APC3  
0089010110999992014010505004+80067+031500FM-12+001099999V0200101N004019999999N999999999-01391-01671102161ADDMA1999990102051MD1210041+9990REMSYN04801011 46/// /0104 11139 21167 30205 40216 52004=
0132010110999992014010506004+80067+031500FM-12+001099999V0203601N005019999999N999999999-01411-01711102181ADDKA1240N-01531MA1999990102061MD1210041+9990OD139901001999REMSYN06401011 46/// /3605 11141 21171 30206 40218 52004 333 21153 91110=
0089010110999992014010507004+80067+031500FM-12+001099999V0200101N007019999999N999999999-01431-01731102191ADDMA1999990102071MD1210031+9990REMSYN04801011 46/// /0107 11143 21173 30207 40219 52003=
0089010110999992014010508004+80067+031500FM-12+001099999V0200201N007019999999N999999999-01461-01771102231ADDMA1999990102111MD1210061+9990REMSYN04801011 46/// /0207 11146 21177 30211 40223 52006=
0089010110999992014010509004+80067+031500FM-12+001099999V0200201N007019999999N999999999-01461-01781102271ADDMA1999990102151MD1210091+9990REMSYN04801011 46/// /0207 11146 21178 30215 40227 52009=
0089010110999992014010510004+80067+031500FM-12+001099999V0200201N006019999999N999999999-01441-01811102301ADDMA1999990102191MD1210121+9990REMSYN04801011 46/// /0206 11144 21181 30219 40230 52012=
0089010110999992014010511004+80067+031500FM-12+001099999V0200201N007019999999N999999999-01451-01771102301ADDMA1999990102191MD1310081+9990REMSYN04801011 46/// /0207 11145 21177 30219 40230 53008=
0113010110999992014010512004+80067+031500FM-12+001099999V0200201N005019999999N999999999-01471-01821102311ADDMA1999990102201MD1310051+9990OD139900901999REMSYN05801011 46/// /0205 11147 21182 30220 40231 53005 333 91109=
0108010110999992014010513004+80067+031500FM-12+001099999V0200201N004019999999N999999999-01501-01821102331ADDMA1999990102221MD1290039+9990REMSYN04801011 46/// /0204 11150 21182 30222 40233 54003=EQDQ01.3    3APC3  
0089010110999992014010514004+80067+031500FM-12+001099999V0200301N004019999999N999999999-01531-01851102341ADDMA1999990102231MD1210041+9990REMSYN04801011 46/// /0304 11153 21185 30223 40234 52004=
0089010110999992014010515004+80067+031500FM-12+001099999V0200201N004019999999N999999999-01541-01861102351ADDMA1999990102231MD1210041+9990REMSYN04801011 46/// /0204 11154 21186 30223 40235 52004=
0108010110999992014010516004+80067+031500FM-12+001099999V0200201N004019999999N999999999-01561-01881102361ADDMA1999990102241MD1290039+9990REMSYN04801011 46/// /0204 11156 21188 30224 40236 54003=EQDQ01.3    3APC3  
0108010110999992014010517004+80067+031500FM-12+001099999V0200301N003019999999N999999999-01591-01871102371ADDMA1999990102251MD1290039+9990REMSYN04801011 46/// /0303 11159 21187 30225 40237 54003=EQDQ01.3    3APC3  
0151010110999992014010518004+80067+031500FM-12+001099999V0200301N004019999999N999999999-01611-02001102381ADDKA1120M-01411MA1999990102261MD1290039+9990OD139900701999REMSYN06401011 46/// /0304 11161 21200 30226 40238 54003 333 11141 91107=EQDQ01.3    3APC3  
0089010110999992014010519004+80067+031500FM-12+001099999V0200201N004019999999N999999999-01671-02031102391ADDMA1999990102281MD1210031+9990REMSYN04801011 46/// /0204 11167 21203 30228 40239 52003=
0089010110999992014010520004+80067+031500FM-12+001099999V0200201N006019999999N999999999-01691-01951102401ADDMA1999990102291MD1210031+9990REMSYN04801011 46/// /0206 11169 21195 30229 40240 52003=
0089010110999992014010521004+80067+031500FM-12+001099999V0200401N003019999999N999999999-01701-02001102441ADDMA1999990102321MD1210061+9990REMSYN04801011 46/// /0403 11170 21200 30232 40244 52006=
0089010110999992014010522004+80067+031500FM-12+001099999V0200201N004019999999N999999999-01651-01941102431ADDMA1999990102321MD1210041+9990REMSYN04801011 46/// /0204 11165 21194 30232 40243 52004=
0089010110999992014010523004+80067+031500FM-12+001099999V0200201N005019999999N999999999-01601-01931102431ADDMA1999990102321MD1510031+9990REMSYN04801011 46/// /0205 11160 21193 30232 40243 55003=
0132010110999992014010600004+80067+031500FM-12+001099999V0200201N006019999999N999999999-01631-01981102431ADDMA1999990102311MD1790019+9990OD139900901999REMSYN05801011 46/// /0206 11163 21198 30231 40243 54001 333 91109=EQDQ01.1    3APC3  
0108010110999992014010601004+80067+031500FM-12+001099999V0200201N004019999999N999999999-01651-01971102451ADDMA1999990102331MD1290029+9990REMSYN04801011 46/// /0204 11165 21197 30233 40245 54002=EQDQ01.2    3APC3  
0108010110999992014010602004+80067+031500FM-12+001099999V0200401N009019999999N999999999-01961-02301102461ADDMA1999990102341MD1290039+9990REMSYN04801011 46/// /0409 11196 21230 30234 40246 54003=EQDQ01.3    3APC3  
0108010110999992014010603004+80067+031500FM-12+001099999V0200501N010019999999N999999999-01971-02251102461ADDMA1999990102341MD1290039+9990REMSYN04801011 46/// /0510 11197 21225 30234 40246 54003=EQDQ01.3    3APC3  
0108010110999992014010604004+80067+031500FM-12+001099999V0200601N008019999999N999999999-02061-02371102481ADDMA1999990102361MD1290039+9990REMSYN04801011 46/// /0608 11206 21237 30236 40248 54002=EQDQ01.2    3APC3  
0089010110999992014010605004+80067+031500FM-12+001099999V0200401N004019999999N999999999-02061-02441102501ADDMA1999990102391MD1110041+9990REMSYN04801011 46/// /0404 11206 21244 30239 40250 51004=
0132010110999992014010606004+80067+031500FM-12+001099999V0200601N007019999999N999999999-01941-02181102491ADDKA1240N-02161MA1999990102371MD1510031+9990OD139901101999REMSYN06401011 46/// /0607 11194 21218 30237 40249 55003 333 21216 91111=
0089010110999992014010607004+80067+031500FM-12+001099999V0200501N008019999999N999999999-02071-02321102521ADDMA1999990102401MD1210051+9990REMSYN04801011 46/// /0508 11207 21232 30240 40252 52005=
0089010110999992014010608004+80067+031500FM-12+001099999V0200601N007019999999N999999999-01921-02131102541ADDMA1999990102421MD1110041+9990REMSYN04801011 46/// /0607 11192 21213 30242 40254 51004=
0089010110999992014010609004+80067+031500FM-12+001099999V0200501N003019999999N999999999-01871-02121102571ADDMA1999990102461MD1210091+9990REMSYN04801011 46/// /0503 11187 21212 30246 40257 52009=
0089010110999992014010610004+80067+031500FM-12+001099999V0200301N003019999999N999999999-01911-02221102591ADDMA1999990102471MD1210071+9990REMSYN04801011 46/// /0303 11191 21222 30247 40259 52007=
0089010110999992014010611004+80067+031500FM-12+001099999V0200101N001019999999N999999999-01931-02231102601ADDMA1999990102491MD1210061+9990REMSYN04801011 46/// /0101 11193 21223 30249 40260 52006=
0132010110999992014010612004+80067+031500FM-12+001099999V0200601N007019999999N999999999-02021-02331102601ADDMA1999990102481MD1290039+9990OD139901101999REMSYN05801011 46/// /0607 11202 21233 30248 40260 54003 333 91111=EQDQ01.3    3APC3  
0108010110999992014010613004+80067+031500FM-12+001099999V0200601N005019999999N999999999-02001-02271102621ADDMA1999990102501MD1290039+9990REMSYN04801011 46/// /0605 11200 21227 30250 40262 54003=EQDQ01.3    3APC3  
0089010110999992014010614004+80067+031500FM-12+001099999V0200601N006019999999N999999999-02061-02331102641ADDMA1999990102521MD1210041+9990REMSYN04801011 46/// /0606 11206 21233 30252 40264 52004=
0089010110999992014010615004+80067+031500FM-12+001099999V0200701N006019999999N999999999-01981-02201102651ADDMA1999990102531MD1210051+9990REMSYN04801011 46/// /0706 11198 21220 30253 40265 52005=
0089010110999992014010616004+80067+031500FM-12+001099999V0200701N004019999999N999999999-01941-02161102661ADDMA1999990102541MD1210041+9990REMSYN04801011 46/// /0704 11194 21216 30254 40266 52004=
0108010110999992014010617004+80067+031500FM-12+001099999V0200701N002019999999N999999999-01941-02171102671ADDMA1999990102551MD1290039+9990REMSYN04801011 46/// /0702 11194 21217 30255 40267 54003=EQDQ01.3    3APC3  
0151010110999992014010618004+80067+031500FM-12+001099999V0200901N004019999999N999999999-01921-02151102651ADDKA1120M-01861MA1999990102541MD1410009+9990OD139900801999REMSYN06401011 46/// /0904 11192 21215 30254 40265 54001 333 11186 91108=EQDQ01.1    3APC3  
0089010110999992014010619004+80067+031500FM-12+001099999V0201001N004019999999N999999999-01941-02181102661ADDMA1999990102541MD1410001+9990REMSYN04801011 46/// /1004 11194 21218 30254 40266 54000=
0089010110999992014010620004+80067+031500FM-12+001099999V0201101N004019999999N999999999-01961-02181102691ADDMA1999990102581MD1900021+9990REMSYN04801011 46/// /1104 11196 21218 30258 40269 50002=
0089010110999992014010621004+80067+031500FM-12+001099999V0201001N004019999999N999999999-01981-02201102701ADDMA1999990102591MD1210051+9990REMSYN04801011 46/// /1004 11198 21220 30259 40270 52005=
0089010110999992014010622004+80067+031500FM-12+001099999V0200801N004019999999N999999999-02011-02241102721ADDMA1999990102611MD1210061+9990REMSYN04801011 46/// /0804 11201 21224 30261 40272 52006=
0108010110999992014010623004+80067+031500FM-12+001099999V0200701N006019999999N999999999-02071-02301102721ADDMA1999990102601MD1290039+9990REMSYN04801011 46/// /0706 11207 21230 30260 40272 54003=EQDQ01.3    3APC3  
0113010110999992014010700004+80067+031500FM-12+001099999V0201001N004019999999N999999999-02081-02301102741ADDMA1999990102621MD1210031+9990OD139900701999REMSYN05801011 46/// /1004 11208 21230 30262 40274 52003 333 91107=
0108010110999992014010701004+80067+031500FM-12+001099999V0200801N004019999999N999999999-02121-02361102741ADDMA1999990102621MD1290029+9990REMSYN04801011 46/// /0804 11212 21236 30262 40274 54002=EQDQ01.2    3APC3  
0108010110999992014010702004+80067+031500FM-12+001099999V0200601N007019999999N999999999-02031-02261102741ADDMA1999990102631MD1290029+9990REMSYN04801011 46/// /0607 11203 21226 30263 40274 54002=EQDQ01.2    3APC3  
0108010110999992014010703004+80067+031500FM-12+001099999V0200601N006019999999N999999999-02101-02341102731ADDMA1999990102611MD1790019+9990REMSYN04801011 46/// /0606 11210 21234 30261 40273 54001=EQDQ01.1    3APC3  
0108010110999992014010704004+80067+031500FM-12+001099999V0200901N005019999999N999999999-02021-02221102751ADDMA1999990102631MD1290019+9990REMSYN04801011 46/// /0905 11202 21222 30263 40275 54001=EQDQ01.1    3APC3  
0108010110999992014010705004+80067+031500FM-12+001099999V0200901N003019999999N999999999-02001-02211102761ADDMA1999990102641MD1290029+9990REMSYN04801011 46/// /0903 11200 21221 30264 40276 54001=EQDQ01.1    3APC3  
0151010110999992014010706004+80067+031500FM-12+001099999V0201001N004019999999N999999999-01981-02191102761ADDKA1240N-02151MA1999990102641MD1290039+9990OD139900901999REMSYN06401011 46/// /1004 11198 21219 30264 40276 54002 333 21215 91109=EQDQ01.2    3APC3  
0089010110999992014010707004+80067+031500FM-12+001099999V0200601N006019999999N999999999-02041-02301102791ADDMA1999990102681MD1110041+9990REMSYN04801011 46/// /0606 11204 21230 30268 40279 51004=
0089010110999992014010708004+80067+031500FM-12+001099999V0200601N006019999999N999999999-02101-02351102801ADDMA1999990102681MD1210041+9990REMSYN04801011 46/// /0606 11210 21235 30268 40280 52004=
0089010110999992014010709004+80067+031500FM-12+001099999V0200401N002019999999N999999999-01981-02331102841ADDMA1999990102721MD1210081+9990REMSYN04801011 46/// /0402 11198 21233 30272 40284 52008=
0089010110999992014010710004+80067+031500FM-12+001099999V0200401N002019999999N999999999-01991-02371102871ADDMA1999990102751MD1110081+9990REMSYN04801011 46/// /0402 11199 21237 30275 40287 51008=
0089010110999992014010711004+80067+031500FM-12+001099999V0200501N005019999999N999999999-02201-02491102901ADDMA1999990102781MD1210101+9990REMSYN04801011 46/// /0505 11220 21249 30278 40290 52010=
0113010110999992014010712004+80067+031500FM-12+001099999V0200501N005019999999N999999999-02111-02361102891ADDMA1999990102781MD1310061+9990OD139900801999REMSYN05801011 46/// /0505 11211 21236 30278 40289 53006 333 91108=
0089010110999992014010713004+80067+031500FM-12+001099999V0200501N005019999999N999999999-02051-02281102881ADDMA1999990102771MD1510011+9990REMSYN04801011 46/// /0505 11205 21228 30277 40288 55001=
0089010110999992014010714004+80067+031500FM-12+001099999V0200501N005019999999N999999999-01951-02171102901ADDMA1999990102781MD1410001+9990REMSYN04801011 46/// /0505 11195 21217 30278 40290 54000=
0108010110999992014010715004+80067+031500FM-12+001099999V0200401N005019999999N999999999-01881-02101102871ADDMA1999990102751MD1790029+9990REMSYN04801011 46/// /0405 11188 21210 30275 40287 54002=EQDQ01.2    3APC3  
0089010110999992014010716004+80067+031500FM-12+001099999V0200501N008019999999N999999999-01991-02211102851ADDMA1999990102731MD1610031+9990REMSYN04801011 46/// /0508 11199 21221 30273 40285 56003=
0089010110999992014010717004+80067+031500FM-12+001099999V0200801N006019999999N999999999-01901-02071102861ADDMA1999990102741MD1810041+9990REMSYN04801011 46/// /0806 11190 21207 30274 40286 58004=
0132010110999992014010718004+80067+031500FM-12+001099999V0201201N006019999999N999999999-01651-01821102841ADDKA1120M-01651MA1999990102721MD1710041+9990OD139901101999REMSYN06401011 46/// /1206 11165 21182 30272 40284 57004 333 11165 91111=
0108010110999992014010719004+80067+031500FM-12+001099999V0201201N003019999999N999999999-01621-01791102871ADDMA1999990102751MD1290029+9990REMSYN04801011 46/// /1203 11162 21179 30275 40287 54002=EQDQ01.2    3APC3  
0089010110999992014010720004+80067+031500FM-12+001099999V0200601N012019999999N999999999-01541-01701102781ADDMA1999990102661MD1610081+9990REMSYN04801011 46/// /0612 11154 21170 30266 40278 56008=
0089010110999992014010721004+80067+031500FM-12+001099999V0200601N014019999999N999999999-01651-01841102781ADDMA1999990102661MD1510061+9990REMSYN04801011 46/// /0614 11165 21184 30266 40278 55006=
0089010110999992014010722004+80067+031500FM-12+001099999V0200601N014019999999N999999999-01641-01841102801ADDMA1999990102681MD1810071+9990REMSYN04801011 46/// /0614 11164 21184 30268 40280 58007=
0089010110999992014010723004+80067+031500FM-12+001099999V0200701N014019999999N999999999-01731-01991102821ADDMA1999990102711MD1210041+9990REMSYN04801011 46/// /0714 11173 21199 30271 40282 52004=
0113010110999992014010800004+80067+031500FM-12+001099999V0200701N015019999999N999999999-01821-02051102821ADDMA1999990102711MD1210051+9990OD139901701999REMSYN05801011 46/// /0715 11182 21205 30271 40282 52005 333 91117=
0089010110999992014010801004+80067+031500FM-12+001099999V0200601N018019999999N999999999-01841-02061102771ADDMA1999990102651MD1610031+9990REMSYN04801011 46/// /0618 11184 21206 30265 40277 56003=
0089010110999992014010802004+80067+031500FM-12+001099999V0200601N018019999999N999999999-01901-02121102731ADDMA1999990102621MD1610091+9990REMSYN04801011 46/// /0618 11190 21212 30262 40273 56009=
0089010110999992014010803004+80067+031500FM-12+001099999V0200601N018019999999N999999999-01891-02121102751ADDMA1999990102641MD1810071+9990REMSYN04801011 46/// /0618 11189 21212 30264 40275 58007=
0089010110999992014010804004+80067+031500FM-12+001099999V0200601N018019999999N999999999-01871-02131102711ADDMA1999990102591MD1710061+9990REMSYN04801011 46/// /0618 11187 21213 30259 40271 57006=
0089010110999992014010805004+80067+031500FM-12+001099999V0200601N018019999999N999999999-01881-02151102681ADDMA1999990102571MD1610051+9990REMSYN04801011 46/// /0618 11188 21215 30257 40268 56005=
0132010110999992014010806004+80067+031500FM-12+001099999V0203401N001019999999N999999999-01781-02141102911ADDKA1240N-01921MA1999990102791MD1900151+9990OD139902001999REMSYN06401011 46/// /3401 11178 21214 30279 40291 50015 333 21192 91120=
0089010110999992014010807004+80067+031500FM-12+001099999V0200501N013019999999N999999999-01901-02311102761ADDMA1999990102641MD1310051+9990REMSYN04801011 46/// /0513 11190 21231 30264 40276 53005=
0089010110999992014010808004+80067+031500FM-12+001099999V0200501N014019999999N999999999-01941-02311102781ADDMA1999990102671MD1310101+9990REMSYN04801011 46/// /0514 11194 21231 30267 40278 53010=
0089010110999992014010809004+80067+031500FM-12+001099999V0200601N013019999999N999999999-01921-02221102771ADDMA1999990102661MD1810131+9990REMSYN04801011 46/// /0613 11192 21222 30266 40277 58013=
0089010110999992014010810004+80067+031500FM-12+001099999V0200501N013019999999N999999999-01971-02211102801ADDMA1999990102681MD1210041+9990REMSYN04801011 46/// /0513 11197 21221 30268 40280 52004=
0108010110999992014010811004+80067+031500FM-12+001099999V0200501N013019999999N999999999-02011-02211102801ADDMA1999990102681MD1290029+9990REMSYN04801011 46/// /0513 11201 21221 30268 40280 54002=EQDQ01.2    3APC3  
0113010110999992014010812004+80067+031500FM-12+001099999V0200501N012019999999N999999999-02051-02271102771ADDMA1999990102661MD1510001+9990OD139901701999REMSYN05801011 46/// /0512 11205 21227 30266 40277 55000 333 91117=
0089010110999992014010813004+80067+031500FM-12+001099999V0200601N013019999999N999999999-02021-02251102731ADDMA1999990102621MD1610071+9990REMSYN04801011 46/// /0613 11202 21225 30262 40273 56007=
0089010110999992014010814004+80067+031500FM-12+001099999V0200601N012019999999N999999999-01991-02221102721ADDMA1999990102601MD1710081+9990REMSYN04801011 46/// /0612 11199 21222 30260 40272 57008=
0089010110999992014010815004+80067+031500FM-12+001099999V0200601N012019999999N999999999-02011-02241102681ADDMA1999990102561MD1710091+9990REMSYN04801011 46/// /0612 11201 21224 30256 40268 57009=
0089010110999992014010816004+80067+031500FM-12+001099999V0200601N013019999999N999999999-01981-02211102611ADDMA1999990102501MD1610121+9990REMSYN04801011 46/// /0613 11198 21221 30250 40261 56012=
0089010110999992014010817004+80067+031500FM-12+001099999V0200701N012019999999N999999999-01951-02191102581ADDMA1999990102461MD1710141+9990REMSYN04801011 46/// /0712 11195 21219 30246 40258 57014=
0132010110999992014010818004+80067+031500FM-12+001099999V0200801N010019999999N999999999-02011-02281102601ADDKA1120M-01791MA1999990102481MD1810081+9990OD139901401999REMSYN06401011 46/// /0810 11201 21228 30248 40260 58008 333 11179 91114=
0094010110999992014010819004+80067+031500FM-12+001099999V0200801N010019999999N999999999-02041-02311102581ADDMA1999990102471REMSYN04801011 46/// /0810 11204 21231 30247 40258 54003=EQDQ014     3APCTEN
0089010110999992014010820004+80067+031500FM-12+001099999V0200701N010019999999N999999999-01991-02261102581ADDMA1999990102461MD1410001+9990REMSYN04801011 46/// /0710 11199 21226 30246 40258 54000=
0089010110999992014010821004+80067+031500FM-12+001099999V0200701N011019999999N999999999-02061-02301102561ADDMA1999990102441MD1710041+9990REMSYN04801011 46/// /0711 11206 21230 30244 40256 57004=
0089010110999992014010823004+80067+031500FM-12+001099999V0200701N013019999999N999999999-02111-02311102501ADDMA1999990102381MD1710081+9990REMSYN04801011 46/// /0713 11211 21231 30238 40250 57008=
0113010110999992014010900004+80067+031500FM-12+001099999V0200701N012019999999N999999999-02061-02251102491ADDMA1999990102371MD1710081+9990OD139901301999REMSYN05801011 46/// /0712 11206 21225 30237 40249 57008 333 91113=
0089010110999992014010901004+80067+031500FM-12+001099999V0200801N010019999999N999999999-01941-02131102461ADDMA1999990102341MD1710071+9990REMSYN04801011 46/// /0810 11194 21213 30234 40246 57007=
0089010110999992014010902004+80067+031500FM-12+001099999V0200901N011019999999N999999999-01921-02111102411ADDMA1999990102301MD1610081+9990REMSYN04801011 46/// /0911 11192 21211 30230 40241 56008=
0089010110999992014010903004+80067+031500FM-12+001099999V0200901N010019999999N999999999-01891-02071102381ADDMA1999990102271MD1710101+9990REMSYN04801011 46/// /0910 11189 21207 30227 40238 57010=
0089010110999992014010904004+80067+031500FM-12+001099999V0200901N011019999999N999999999-01871-02051102301ADDMA1999990102191MD1610151+9990REMSYN04801011 46/// /0911 11187 21205 30219 40230 56015=
0089010110999992014010905004+80067+031500FM-12+001099999V0201101N011019999999N999999999-01701-01871102301ADDMA1999990102181MD1710121+9990REMSYN04801011 46/// /1111 11170 21187 30218 40230 57012=
0132010110999992014010906004+80067+031500FM-12+001099999V0201101N012019999999N999999999-01611-01771102291ADDKA1240N-02121MA1999990102171MD1810101+9990OD139901301999REMSYN06401011 46/// /1112 11161 21177 30217 40229 58010 333 21212 91113=
0108010110999992014010907004+80067+031500FM-12+001099999V0201101N011019999999N999999999-01641-01801102291ADDMA1999990102171MD1790019+9990REMSYN04801011 46/// /1111 11164 21180 30217 40229 54002=EQDQ01.2    3APC3  
0089010110999992014010908004+80067+031500FM-12+001099999V0201101N011019999999N999999999-01671-01841102251ADDMA1999990102141MD1710041+9990REMSYN04801011 46/// /1111 11167 21184 30214 40225 57004=
0089010110999992014010909004+80067+031500FM-12+001099999V0201101N011019999999N999999999-01681-01851102201ADDMA1999990102081MD1610091+9990REMSYN04801011 46/// /1111 11168 21185 30208 40220 56009=
0089010110999992014010910004+80067+031500FM-12+001099999V0201201N011019999999N999999999-01761-01931102201ADDMA1999990102091MD1810091+9990REMSYN04801011 46/// /1211 11176 21193 30209 40220 58009=
0089010110999992014010911004+80067+031500FM-12+001099999V0201101N011019999999N999999999-01791-01961102131ADDMA1999990102021MD1710121+9990REMSYN04801011 46/// /1111 11179 21196 30202 40213 57012=
0113010110999992014010912004+80067+031500FM-12+001099999V0201101N011019999999N999999999-01781-01951102101ADDMA1999990101991MD1610091+9990OD139901401999REMSYN05801011 46/// /1111 11178 21195 30199 40210 56009 333 91114=
0089010110999992014010913004+80067+031500FM-12+001099999V0201301N011019999999N999999999-01661-01831102051ADDMA1999990101941MD1710151+9990REMSYN04801011 46/// /1311 11166 21183 30194 40205 57015=
0089010110999992014010914004+80067+031500FM-12+001099999V0201301N011019999999N999999999-01621-01781101991ADDMA1999990101881MD1610141+9990REMSYN04801011 46/// /1311 11162 21178 30188 40199 56014=
0089010110999992014010915004+80067+031500FM-12+001099999V0201301N013019999999N999999999-01511-01661101831ADDMA1999990101711MD1610281+9990REMSYN04801011 46/// /1313 11151 21166 30171 40183 56028=
0089010110999992014010916004+80067+031500FM-12+001099999V0201301N012019999999N999999999-01531-01681101801ADDMA1999990101691MD1810251+9990REMSYN04801011 46/// /1312 11153 21168 30169 40180 58025=
0089010110999992014010917004+80067+031500FM-12+001099999V0201301N011019999999N999999999-01471-01621101781ADDMA1999990101671MD1810211+9990REMSYN04801011 46/// /1311 11147 21162 30167 40178 58021=
0132010110999992014010918004+80067+031500FM-12+001099999V0201201N011019999999N999999999-01401-01541101691ADDKA1120M-01401MA1999990101571MD1610141+9990OD139901501999REMSYN06401011 46/// /1211 11140 21154 30157 40169 56014 333 11140 91115=
0089010110999992014010919004+80067+031500FM-12+001099999V0201301N012019999999N999999999-01321-01451101531ADDMA1999990101411MD1610271+9990REMSYN04801011 46/// /1312 11132 21145 30141 40153 56027=
0089010110999992014010920004+80067+031500FM-12+001099999V0201301N011019999999N999999999-01251-01381101451ADDMA1999990101331MD1710341+9990REMSYN04801011 46/// /1311 11125 21138 30133 40145 57034=
0089010110999992014010921004+80067+031500FM-12+001099999V0201201N009019999999N999999999-01171-01291101411ADDMA1999990101291MD1810281+9990REMSYN04801011 46/// /1209 11117 21129 30129 40141 58028=
0089010110999992014010922004+80067+031500FM-12+001099999V0201201N009019999999N999999999-01061-01171101371ADDMA1999990101261MD1810151+9990REMSYN04801011 46/// /1209 11106 21117 30126 40137 58015=
0089010110999992014010923004+80067+031500FM-12+001099999V0201401N009019999999N999999999-00961-01071101281ADDMA1999990101171MD1610171+9990REMSYN04801011 46/// /1409 11096 21107 30117 40128 56017=
0113010110999992014011000004+80067+031500FM-12+001099999V0201301N010019999999N999999999-00891-01001101151ADDMA1999990101041MD1610251+9990OD139901401999REMSYN05801011 46/// /1310 11089 21100 30104 40115 56025 333 91114=
0089010110999992014011001004+80067+031500FM-12+001099999V0201301N009019999999N999999999-00821-00941101091ADDMA1999990100981MD1710281+9990REMSYN04801011 46/// /1309 11082 21094 30098 40109 57028=
0089010110999992014011002004+80067+031500FM-12+001099999V0201301N008019999999N999999999-00751-00861101031ADDMA1999990100921MD1810251+9990REMSYN04801011 46/// /1308 11075 21086 30092 40103 58025=
0089010110999992014011003004+80067+031500FM-12+001099999V0201501N008019999999N999999999-00701-00821100961ADDMA1999990100851MD1710201+9990REMSYN04801011 46/// /1508 11070 21082 30085 40096 57020=
0089010110999992014011004004+80067+031500FM-12+001099999V0201401N008019999999N999999999-00681-00801100881ADDMA1999990100771MD1710211+9990REMSYN04801011 46/// /1408 11068 21080 30077 40088 57021=
0089010110999992014011005004+80067+031500FM-12+001099999V0201401N008019999999N999999999-00671-00801100841ADDMA1999990100731MD1810191+9990REMSYN04801011 46/// /1408 11067 21080 30073 40084 58019=
0132010110999992014011006004+80067+031500FM-12+001099999V0201501N008019999999N999999999-00661-00811100821ADDKA1240N-01401MA1999990100711MD1810131+9990OD139901101999REMSYN06401011 46/// /1508 11066 21081 30071 40082 58013 333 21140 91111=
0089010110999992014011007004+80067+031500FM-12+001099999V0201501N008019999999N999999999-00641-00771100801ADDMA1999990100691MD1710071+9990REMSYN04801011 46/// /1508 11064 21077 30069 40080 57007=
0108010110999992014011008004+80067+031500FM-12+001099999V0201501N007019999999N999999999-00611-00741100811ADDMA1999990100711MD1790039+9990REMSYN04801011 46/// /1507 11061 21074 30071 40081 54002=EQDQ01.2    3APC3  
0108010110999992014011009004+80067+031500FM-12+001099999V0201501N006019999999N999999999-00601-00721100801ADDMA1999990100691MD1790029+9990REMSYN04801011 46/// /1506 11060 21072 30069 40080 54002=EQDQ01.2    3APC3  
0089010110999992014011010004+80067+031500FM-12+001099999V0201501N006019999999N999999999-00591-00701100781ADDMA1999990100671MD1510021+9990REMSYN04801011 46/// /1506 11059 21070 30067 40078 55002=
0089010110999992014011011004+80067+031500FM-12+001099999V0201501N006019999999N999999999-00551-00651100781ADDMA1999990100671MD1710031+9990REMSYN04801011 46/// /1506 11055 21065 30067 40078 57003=
0132010110999992014011012004+80067+031500FM-12+001099999V0201401N005019999999N999999999-00541-00621100781ADDMA1999990100671MD1790029+9990OD139901001999REMSYN05801011 46/// /1405 11054 21062 30067 40078 54003 333 91110=EQDQ01.3    3APC3  
0108010110999992014011013004+80067+031500FM-12+001099999V0201601N005019999999N999999999-00531-00611100771ADDMA1999990100661MD1790019+9990REMSYN04801011 46/// /1605 11053 21061 30066 40077 54001=EQDQ01.1    3APC3  
0108010110999992014011014004+80067+031500FM-12+001099999V0201601N005019999999N999999999-00541-00611100761ADDMA1999990100651MD1790029+9990REMSYN04801011 46/// /1605 11054 21061 30065 40076 54002=EQDQ01.2    3APC3  
0108010110999992014011015004+80067+031500FM-12+001099999V0201301N006019999999N999999999-00551-00621100771ADDMA1999990100661MD1790019+9990REMSYN04801011 46/// /1306 11055 21062 30066 40077 54001=EQDQ01.1    3APC3  
0108010110999992014011016004+80067+031500FM-12+001099999V0201301N006019999999N999999999-00551-00611100791ADDMA1999990100681MD1290029+9990REMSYN04801011 46/// /1306 11055 21061 30068 40079 54002=EQDQ01.2    3APC3  
0089010110999992014011017004+80067+031500FM-12+001099999V0201301N006019999999N999999999-00541-00591100771ADDMA1999990100661MD1410001+9990REMSYN04801011 46/// /1306 11054 21059 30066 40077 54000=
0151010110999992014011018004+80067+031500FM-12+001099999V0201201N007019999999N999999999-00551-00591100771ADDKA1120M-00531MA1999990100671MD1410009+9990OD139900801999REMSYN06401011 46/// /1207 11055 21059 30067 40077 54001 333 11053 91108=EQDQ01.1    3APC3  
0089010110999992014011019004+80067+031500FM-12+001099999V0201201N006019999999N999999999-00551-00601100801ADDMA1999990100691MD1900011+9990REMSYN04801011 46/// /1206 11055 21060 30069 40080 50001=
0089010110999992014011020004+80067+031500FM-12+001099999V0201101N006019999999N999999999-00571-00621100811ADDMA1999990100701MD1210041+9990REMSYN04801011 46/// /1106 11057 21062 30070 40081 52004=
0089010110999992014011021004+80067+031500FM-12+001099999V0201101N006019999999N999999999-00601-00661100851ADDMA1999990100741MD1210081+9990REMSYN04801011 46/// /1106 11060 21066 30074 40085 52008=
0089010110999992014011022004+80067+031500FM-12+001099999V0201101N005019999999N999999999-00561-00621100871ADDMA1999990100761MD1210071+9990REMSYN04801011 46/// /1105 11056 21062 30076 40087 52007=
0089010110999992014011023004+80067+031500FM-12+001099999V0201101N006019999999N999999999-00521-00571100811ADDMA1999990100701MD1510001+9990REMSYN04801011 46/// /1106 11052 21057 30070 40081 55000=
0113010110999992014011100004+80067+031500FM-12+001099999V0201201N006019999999N999999999-00541-00601100801ADDMA1999990100691MD1710061+9990OD139900801999REMSYN05801011 46/// /1206 11054 21060 30069 40080 57006 333 91108=
0089010110999992014011101004+80067+031500FM-12+001099999V0201401N004019999999N999999999-00501-00551100861ADDMA1999990100751MD1900011+9990REMSYN04801011 46/// /1404 11050 21055 30075 40086 50001=
0089010110999992014011102004+80067+031500FM-12+001099999V0201101N005019999999N999999999-00561-00621100811ADDMA1999990100701MD1510001+9990REMSYN04801011 46/// /1105 11056 21062 30070 40081 55000=
0089010110999992014011103004+80067+031500FM-12+001099999V0201201N003019999999N999999999-00621-00681100791ADDMA1999990100681MD1510011+9990REMSYN04801011 46/// /1203 11062 21068 30068 40079 55001=
0089010110999992014011104004+80067+031500FM-12+001099999V0201301N004019999999N999999999-00561-00621100791ADDMA1999990100681MD1810071+9990REMSYN04801011 46/// /1304 11056 21062 30068 40079 58007=
0108010110999992014011105004+80067+031500FM-12+001099999V0201201N003019999999N999999999-00591-00651100781ADDMA1999990100671MD1790039+9990REMSYN04801011 46/// /1203 11059 21065 30067 40078 54003=EQDQ01.3    3APC3  
0108010110999992014011107004+80067+031500FM-12+001099999V0201001N002019999999N999999999-00651-00711100801ADDMA1999990100691MD1290019+9990REMSYN04801011 46/// /1002 11065 21071 30069 40080 54001=EQDQ01.1    3APC3  
0089010110999992014011108004+80067+031500FM-12+001099999V0201101N002019999999N999999999-00621-00681100791ADDMA1999990100681MD1410001+9990REMSYN04801011 46/// /1102 11062 21068 30068 40079 54000=
0089010110999992014011109004+80067+031500FM-12+001099999V0201201N002019999999N999999999-00581-00651100811ADDMA1999990100701MD1210041+9990REMSYN04801011 46/// /1202 11058 21065 30070 40081 52004=
0108010110999992014011110004+80067+031500FM-12+001099999V0201201N002019999999N999999999-00551-00611100821ADDMA1999990100711MD1290029+9990REMSYN04801011 46/// /1202 11055 21061 30071 40082 54002=EQDQ01.2    3APC3  
0089010110999992014011111004+80067+031500FM-12+001099999V0201201N003019999999N999999999-00511-00581100811ADDMA1999990100701MD1510031+9990REMSYN04801011 46/// /1203 11051 21058 30070 40081 55003=
0113010110999992014011112004+80067+031500FM-12+001099999V0201401N003019999999N999999999-00471-00551100781ADDMA1999990100671MD1610031+9990OD139900301999REMSYN05801011 46/// /1403 11047 21055 30067 40078 56003 333 91103=
0089010110999992014011114004+80067+031500FM-12+001099999V0201301N002019999999N999999999-00461-00561100801ADDMA1999990100691MD1900011+9990REMSYN04801011 46/// /1302 11046 21056 30069 40080 50001=
0108010110999992014011115004+80067+031500FM-12+001099999V0201301N002019999999N999999999-00461-00561100791ADDMA1999990100681MD1290019+9990REMSYN04801011 46/// /1302 11046 21056 30068 40079 54001=EQDQ01.1    3APC3  
0089010110999992014011116004+80067+031500FM-12+001099999V0201401N002019999999N999999999-00471-00551100791ADDMA1999990100681MD1410001+9990REMSYN04801011 46/// /1402 11047 21055 30068 40079 54000=
0089010110999992014011117004+80067+031500FM-12+001099999V0201301N001019999999N999999999-00461-00541100811ADDMA1999990100701MD1900011+9990REMSYN04801011 46/// /1301 11046 21054 30070 40081 50001=
0108010110999992014011118004+80067+031500FM-12+001099999V0201001N001019999999N999999999-00501-00581100811ADDMA1999990100701MD1290029+9990REMSYN04801011 46/// /1001 11050 21058 30070 40081 54002=EQDQ01.2    3APC3  
0089010110999992014011119004+80067+031500FM-12+001099999V0201001N001019999999N999999999-00601-00681100831ADDMA1999990100721MD1210041+9990REMSYN04801011 46/// /1001 11060 21068 30072 40083 52004=
0089010110999992014011120004+80067+031500FM-12+001099999V0209999C999999999999N999999999-00541-00601100871ADDMA1999990100761MD1110061+9990REMSYN04801011 46/// /0000 11054 21060 30076 40087 51006=
0089010110999992014011121004+80067+031500FM-12+001099999V0201001N001019999999N999999999-00661-00741100861ADDMA1999990100751MD1210051+9990REMSYN04801011 46/// /1001 11066 21074 30075 40086 52005=
0089010110999992014011122004+80067+031500FM-12+001099999V0201001N001019999999N999999999-00571-00641100881ADDMA1999990100771MD1210051+9990REMSYN04801011 46/// /1001 11057 21064 30077 40088 52005=
0108010110999992014011123004+80067+031500FM-12+001099999V0209999C999999999999N999999999-00551-00651100881ADDMA1999990100771MD1290019+9990REMSYN04801011 46/// /0000 11055 21065 30077 40088 54002=EQDQ01.2    3APC3  
0113010110999992014011200004+80067+031500FM-12+001099999V0209999C999999999999N999999999-00631-00781100921ADDMA1999990100811MD1210061+9990OD139900201999REMSYN05801011 46/// /0000 11063 21078 30081 40092 52006 333 91102=
0089010110999992014011201004+80067+031500FM-12+001099999V0201401N002019999999N999999999-00661-00771100931ADDMA1999990100821MD1210041+9990REMSYN04801011 46/// /1402 11066 21077 30082 40093 52004=
0089010110999992014011202004+80067+031500FM-12+001099999V0209999C999999999999N999999999-00561-00631100961ADDMA1999990100851MD1210081+9990REMSYN04801011 46/// /0000 11056 21063 30085 40096 52008=
0089010110999992014011203004+80067+031500FM-12+001099999V0201101N001019999999N999999999-00541-00701100971ADDMA1999990100861MD1210051+9990REMSYN04801011 46/// /1101 11054 21070 30086 40097 52005=
0089010110999992014011204004+80067+031500FM-12+001099999V0201001N001019999999N999999999-00451-00651100971ADDMA1999990100871MD1310051+9990REMSYN04801011 46/// /1001 11045 21065 30087 40097 53005=
0089010110999992014011205004+80067+031500FM-12+001099999V0201801N001019999999N999999999-00421-00641100991ADDMA1999990100881MD1210031+9990REMSYN04801011 46/// /1801 11042 21064 30088 40099 52003=
0132010110999992014011206004+80067+031500FM-12+001099999V0209999C999999999999N999999999-00421-00571101031ADDKA1240N-00711MA1999990100921MD1110051+9990OD139900201999REMSYN06401011 46/// /0000 11042 21057 30092 40103 51005 333 21071 91102=
0089010110999992014011207004+80067+031500FM-12+001099999V0202201N003019999999N999999999-00401-00561101051ADDMA1999990100941MD1210071+9990REMSYN04801011 46/// /2203 11040 21056 30094 40105 52007=
0089010110999992014011208004+80067+031500FM-12+001099999V0202401N003019999999N999999999-00361-00551101121ADDMA1999990101011MD1110121+9990REMSYN04801011 46/// /2403 11036 21055 30101 40112 51012=
0089010110999992014011209004+80067+031500FM-12+001099999V0202401N004019999999N999999999-00321-00511101141ADDMA1999990101031MD1210121+9990REMSYN04801011 46/// /2404 11032 21051 30103 40114 52012=
0089010110999992014011210004+80067+031500FM-12+001099999V0202501N005019999999N999999999-00321-00531101181ADDMA1999990101071MD1310131+9990REMSYN04801011 46/// /2505 11032 21053 30107 40118 53013=
0089010110999992014011211004+80067+031500FM-12+001099999V0202501N004019999999N999999999-00261-00451101211ADDMA1999990101101MD1210091+9990REMSYN04801011 46/// /2504 11026 21045 30110 40121 52009=
0113010110999992014011212004+80067+031500FM-12+001099999V0202701N005019999999N999999999-00231-00441101221ADDMA1999990101121MD1210081+9990OD139900601999REMSYN05801011 46/// /2705 11023 21044 30112 40122 52008 333 91106=
0089010110999992014011213004+80067+031500FM-12+001099999V0202701N006019999999N999999999-00211-00421101251ADDMA1999990101141MD1210071+9990REMSYN04801011 46/// /2706 11021 21042 30114 40125 52007=
0089010110999992014011214004+80067+031500FM-12+001099999V0202501N006019999999N999999999-00231-00421101291ADDMA1999990101191MD1210091+9990REMSYN04801011 46/// /2506 11023 21042 30119 40129 52009=
0089010110999992014011215004+80067+031500FM-12+001099999V0202701N007019999999N999999999-00221-00451101321ADDMA1999990101211MD1210101+9990REMSYN04801011 46/// /2707 11022 21045 30121 40132 52010=
0089010110999992014011216004+80067+031500FM-12+001099999V0202701N005019999999N999999999-00251-00471101361ADDMA1999990101261MD1210111+9990REMSYN04801011 46/// /2705 11025 21047 30126 40136 52011=
0089010110999992014011217004+80067+031500FM-12+001099999V0202501N005019999999N999999999-00341-00501101401ADDMA1999990101291MD1210111+9990REMSYN04801011 46/// /2505 11034 21050 30129 40140 52011=
0132010110999992014011218004+80067+031500FM-12+001099999V0202501N005019999999N999999999-00331-00521101431ADDKA1120M-00181MA1999990101321MD1210111+9990OD139900901999REMSYN06401011 46/// /2505 11033 21052 30132 40143 52011 333 11018 91109=
0089010110999992014011219004+80067+031500FM-12+001099999V0202601N005019999999N999999999-00301-00521101461ADDMA1999990101351MD1210101+9990REMSYN04801011 46/// /2605 11030 21052 30135 40146 52010=
0089010110999992014011220004+80067+031500FM-12+001099999V0202501N005019999999N999999999-00411-00601101501ADDMA1999990101391MD1210101+9990REMSYN04801011 46/// /2505 11041 21060 30139 40150 52010=
0089010110999992014011221004+80067+031500FM-12+001099999V0202301N005019999999N999999999-00531-00751101561ADDMA1999990101451MD1210131+9990REMSYN04801011 46/// /2305 11053 21075 30145 40156 52013=
0089010110999992014011222004+80067+031500FM-12+001099999V0202701N002019999999N999999999-00551-00841101601ADDMA1999990101491MD1210141+9990REMSYN04801011 46/// /2702 11055 21084 30149 40160 52014=
0089010110999992014011223004+80067+031500FM-12+001099999V0202901N003019999999N999999999-00541-00841101621ADDMA1999990101511MD1310121+9990REMSYN04801011 46/// /2903 11054 21084 30151 40162 53012=
0113010110999992014011300004+80067+031500FM-12+001099999V0203101N002019999999N999999999-00511-00781101631ADDMA1999990101521MD1210081+9990OD139900701999REMSYN05801011 46/// /3102 11051 21078 30152 40163 52008 333 91107=
0089010110999992014011301004+80067+031500FM-12+001099999V0202801N001019999999N999999999-00551-00781101661ADDMA1999990101551MD1210061+9990REMSYN04801011 46/// /2801 11055 21078 30155 40166 52006=
0089010110999992014011302004+80067+031500FM-12+001099999V0203001N001019999999N999999999-00471-00771101681ADDMA1999990101571MD1210061+9990REMSYN04801011 46/// /3001 11047 21077 30157 40168 52006=
0089010110999992014011303004+80067+031500FM-12+001099999V0203101N001019999999N999999999-00481-00701101711ADDMA1999990101601MD1210081+9990REMSYN04801011 46/// /3101 11048 21070 30160 40171 52008=
0089010110999992014011304004+80067+031500FM-12+001099999V0203201N002019999999N999999999-00421-00581101721ADDMA1999990101611MD1210061+9990REMSYN04801011 46/// /3202 11042 21058 30161 40172 52006=
0089010110999992014011305004+80067+031500FM-12+001099999V0203201N004019999999N999999999-00421-00651101741ADDMA1999990101631MD1210071+9990REMSYN04801011 46/// /3204 11042 21065 30163 40174 52007=
0132010110999992014011306004+80067+031500FM-12+001099999V0203101N003019999999N999999999-00461-00721101751ADDKA1240N-00581MA1999990101641MD1210041+9990OD139900501999REMSYN06401011 46/// /3103 11046 21072 30164 40175 52004 333 21058 91105=
0108010110999992014011307004+80067+031500FM-12+001099999V0203001N003019999999N999999999-00471-00771101751ADDMA1999990101641MD1290039+9990REMSYN04801011 46/// /3003 11047 21077 30164 40175 54003=EQDQ01.3    3APC3  
0108010110999992014011308004+80067+031500FM-12+001099999V0202901N002019999999N999999999-00541-00761101771ADDMA1999990101661MD1290039+9990REMSYN04801011 46/// /2902 11054 21076 30166 40177 54003=EQDQ01.3    3APC3  
0089010110999992014011309004+80067+031500FM-12+001099999V0203101N001019999999N999999999-00671-00841101811ADDMA1999990101701MD1110051+9990REMSYN04801011 46/// /3101 11067 21084 30170 40181 51005=
0089010110999992014011310004+80067+031500FM-12+001099999V0201901N001019999999N999999999-00651-00841101821ADDMA1999990101711MD1210071+9990REMSYN04801011 46/// /1901 11065 21084 30171 40182 52007=
0089010110999992014011311004+80067+031500FM-12+001099999V0201101N001019999999N999999999-00571-00871101811ADDMA1999990101701MD1310031+9990REMSYN04801011 46/// /1101 11057 21087 30170 40181 53003=
0113010110999992014011312004+80067+031500FM-12+001099999V0201301N003019999999N999999999-00651-01011101781ADDMA1999990101671MD1510021+9990OD139900501999REMSYN05801011 46/// /1303 11065 21101 30167 40178 55002 333 91105=
0089010110999992014011313004+80067+031500FM-12+001099999V0201101N004019999999N999999999-00601-00981101771ADDMA1999990101661MD1710051+9990REMSYN04801011 46/// /1104 11060 21098 30166 40177 57005=
0089010110999992014011314004+80067+031500FM-12+001099999V0201101N003019999999N999999999-00621-01061101751ADDMA1999990101641MD1710051+9990REMSYN04801011 46/// /1103 11062 21106 30164 40175 57005=
0089010110999992014011315004+80067+031500FM-12+001099999V0201501N005019999999N999999999-00911-01111101741ADDMA1999990101631MD1710041+9990REMSYN04801011 46/// /1505 11091 21111 30163 40174 57004=
0089010110999992014011316004+80067+031500FM-12+001099999V0201201N003019999999N999999999-00931-01141101731ADDMA1999990101621MD1710041+9990REMSYN04801011 46/// /1203 11093 21114 30162 40173 57004=
0089010110999992014011317004+80067+031500FM-12+001099999V0201201N003019999999N999999999-00841-01111101701ADDMA1999990101591MD1710051+9990REMSYN04801011 46/// /1203 11084 21111 30159 40170 57005=
0132010110999992014011318004+80067+031500FM-12+001099999V0201101N002019999999N999999999-00751-00991101691ADDKA1120M-00431MA1999990101581MD1710051+9990OD139900601999REMSYN06401011 46/// /1102 11075 21099 30158 40169 57005 333 11043 91106=
0089010110999992014011319004+80067+031500FM-12+001099999V0201301N002019999999N999999999-00781-00991101691ADDMA1999990101581MD1810041+9990REMSYN04801011 46/// /1302 11078 21099 30158 40169 58004=
0089010110999992014011320004+80067+031500FM-12+001099999V0202801N001019999999N999999999-00591-00821101741ADDMA1999990101631MD1110041+9990REMSYN04801011 46/// /2801 11059 21082 30163 40174 51004=
0089010110999992014011321004+80067+031500FM-12+001099999V0202701N010019999999N999999999-00381-00661101781ADDMA1999990101671MD1110091+9990REMSYN04801011 46/// /2710 11038 21066 30167 40178 51009=
0089010110999992014011322004+80067+031500FM-12+001099999V0202901N010019999999N999999999-00621-00901101891ADDMA1999990101781MD1110201+9990REMSYN04801011 46/// /2910 11062 21090 30178 40189 51020=
0089010110999992014011323004+80067+031500FM-12+001099999V0203001N008019999999N999999999-00651-00961101961ADDMA1999990101851MD1210221+9990REMSYN04801011 46/// /3008 11065 21096 30185 40196 52022=
0113010110999992014011400004+80067+031500FM-12+001099999V0203101N007019999999N999999999-00761-01061102011ADDMA1999990101891MD1310231+9990OD139901401999REMSYN05801011 46/// /3107 11076 21106 30189 40201 53023 333 91114=
0089010110999992014011401004+80067+031500FM-12+001099999V0203101N008019999999N999999999-00821-01101102061ADDMA1999990101951MD1210161+9990REMSYN04801011 46/// /3108 11082 21110 30195 40206 52016=
0089010110999992014011402004+80067+031500FM-12+001099999V0203301N008019999999N999999999-00881-01231102121ADDMA1999990102011MD1210161+9990REMSYN04801011 46/// /3308 11088 21123 30201 40212 52016=
0089010110999992014011403004+80067+031500FM-12+001099999V0203201N005019999999N999999999-00941-01281102211ADDMA1999990102101MD1110201+9990REMSYN04801011 46/// /3205 11094 21128 30210 40221 51020=
0089010110999992014011404004+80067+031500FM-12+001099999V0203401N005019999999N999999999-01071-01401102301ADDMA1999990102191MD1110241+9990REMSYN04801011 46/// /3405 11107 21140 30219 40230 51024=
0089010110999992014011405004+80067+031500FM-12+001099999V0203501N003019999999N999999999-01031-01381102381ADDMA1999990102271MD1210261+9990REMSYN04801011 46/// /3503 11103 21138 30227 40238 52026=
0132010110999992014011406004+80067+031500FM-12+001099999V0200101N001019999999N999999999-00911-01281102441ADDKA1240N-01131MA1999990102331MD1310231+9990OD139901201999REMSYN06401011 46/// /0101 11091 21128 30233 40244 53023 333 21113 91112=
0089010110999992014011407004+80067+031500FM-12+001099999V0200101N001019999999N999999999-00881-01251102461ADDMA1999990102341MD1310151+9990REMSYN04801011 46/// /0101 11088 21125 30234 40246 53015=
0089010110999992014011408004+80067+031500FM-12+001099999V0203401N002019999999N999999999-00901-01251102521ADDMA1999990102401MD1210131+9990REMSYN04801011 46/// /3402 11090 21125 30240 40252 52013=
0089010110999992014011409004+80067+031500FM-12+001099999V0203501N003019999999N999999999-00971-01371102541ADDMA1999990102421MD1210101+9990REMSYN04801011 46/// /3503 11097 21137 30242 40254 52010=
0089010110999992014011410004+80067+031500FM-12+001099999V0203601N002019999999N999999999-00901-01311102571ADDMA1999990102461MD1210111+9990REMSYN04801011 46/// /3602 11090 21131 30246 40257 52011=
0089010110999992014011411004+80067+031500FM-12+001099999V0203501N001019999999N999999999-00841-01291102581ADDMA1999990102471MD1210071+9990REMSYN04801011 46/// /3501 11084 21129 30247 40258 52007=
0113010110999992014011412004+80067+031500FM-12+001099999V0209999C999999999999N999999999-00821-01301102591ADDMA1999990102481MD1210061+9990OD139900401999REMSYN05801011 46/// /0000 11082 21130 30248 40259 52006 333 91104=
0108010110999992014011414004+80067+031500FM-12+001099999V0201201N003019999999N999999999-01011-01301102551ADDMA1999990102441MD1790039+9990REMSYN04801011 46/// /1203 11101 21130 30244 40255 54003=EQDQ01.3    3APC3  
0089010110999992014011415004+80067+031500FM-12+001099999V0201801N004019999999N999999999-00901-01151102571ADDMA1999990102461MD1900031+9990REMSYN04801011 46/// /1804 11090 21115 30246 40257 50003=
0089010110999992014011416004+80067+031500FM-12+001099999V0201801N006019999999N999999999-00891-01181102541ADDMA1999990102431MD1710031+9990REMSYN04801011 46/// /1806 11089 21118 30243 40254 57003=
0089010110999992014011417004+80067+031500FM-12+001099999V0201301N006019999999N999999999-01151-01371102511ADDMA1999990102401MD1610051+9990REMSYN04801011 46/// /1306 11115 21137 30240 40251 56005=
0089010110999992014011418004+80067+031500FM-12+001099999V0201301N006019999999N999999999-01111-01331102491ADDMA1999990102371MD1710081+9990REMSYN04801011 46/// /1306 11111 21133 30237 40249 57008=
0089010110999992014011419004+80067+031500FM-12+001099999V0201301N006019999999N999999999-01161-01341102481ADDMA1999990102371MD1710061+9990REMSYN04801011 46/// /1306 11116 21134 30237 40248 57006=
0089010110999992014011420004+80067+031500FM-12+001099999V0201401N007019999999N999999999-01101-01331102441ADDMA1999990102331MD1710071+9990REMSYN04801011 46/// /1407 11110 21133 30233 40244 57007=
0089010110999992014011421004+80067+031500FM-12+001099999V0201201N007019999999N999999999-01141-01401102431ADDMA1999990102321MD1710051+9990REMSYN04801011 46/// /1207 11114 21140 30232 40243 57005=
0089010110999992014011422004+80067+031500FM-12+001099999V0201201N008019999999N999999999-01201-01461102401ADDMA1999990102291MD1710081+9990REMSYN04801011 46/// /1208 11120 21146 30229 40240 57008=
0089010110999992014011423004+80067+031500FM-12+001099999V0201101N008019999999N999999999-01251-01471102331ADDMA1999990102221MD1610111+9990REMSYN04801011 46/// /1108 11125 21147 30222 40233 56011=
0113010110999992014011500004+80067+031500FM-12+001099999V0201201N008019999999N999999999-01241-01421102261ADDMA1999990102141MD1610181+9990OD139900901999REMSYN05801011 46/// /1208 11124 21142 30214 40226 56018 333 91109=
0089010110999992014011502004+80067+031500FM-12+001099999V0201501N005019999999N999999999-01101-01191102141ADDMA1999990102031MD1710191+9990REMSYN04801011 46/// /1505 11110 21119 30203 40214 57019=
0089010110999992014011503004+80067+031500FM-12+001099999V0201501N004019999999N999999999-01011-01101102081ADDMA1999990101971MD1710181+9990REMSYN04801011 46/// /1504 11101 21110 30197 40208 57018=
0089010110999992014011504004+80067+031500FM-12+001099999V0201601N005019999999N999999999-00961-01051102021ADDMA1999990101911MD1710171+9990REMSYN04801011 46/// /1605 11096 21105 30191 40202 57017=
0089010110999992014011505004+80067+031500FM-12+001099999V0201201N005019999999N999999999-01031-01141101951ADDMA1999990101841MD1710191+9990REMSYN04801011 46/// /1205 11103 21114 30184 40195 57019=
0132010110999992014011506004+80067+031500FM-12+001099999V0201101N005019999999N999999999-01001-01111101921ADDKA1240N-01271MA1999990101811MD1710161+9990OD139900901999REMSYN06401011 46/// /1105 11100 21111 30181 40192 57016 333 21127 91109=
0089010110999992014011507004+80067+031500FM-12+001099999V0201001N004019999999N999999999-00961-01051101921ADDMA1999990101811MD1810101+9990REMSYN04801011 46/// /1004 11096 21105 30181 40192 58010=
0089010110999992014011508004+80067+031500FM-12+001099999V0201001N004019999999N999999999-00911-01031101911ADDMA1999990101801MD1710041+9990REMSYN04801011 46/// /1004 11091 21103 30180 40191 57004=
0089010110999992014011509004+80067+031500FM-12+001099999V0201301N005019999999N999999999-00911-01041101921ADDMA1999990101811MD1410001+9990REMSYN04801011 46/// /1305 11091 21104 30181 40192 54000=
0108010110999992014011510004+80067+031500FM-12+001099999V0201201N004019999999N999999999-00771-01011101941ADDMA1999990101831MD1290029+9990REMSYN04801011 46/// /1204 11077 21101 30183 40194 54002=EQDQ01.2    3APC3  
0108010110999992014011511004+80067+031500FM-12+001099999V0201101N003019999999N999999999-00741-00941101931ADDMA1999990101811MD1290029+9990REMSYN04801011 46/// /1103 11074 21094 30181 40193 54002=EQDQ01.2    3APC3  
0113010110999992014011512004+80067+031500FM-12+001099999V0201001N003019999999N999999999-00691-00901101911ADDMA1999990101801MD1510011+9990OD139900601999REMSYN05801011 46/// /1003 11069 21090 30180 40191 55001 333 91106=
0108010110999992014011513004+80067+031500FM-12+001099999V0201201N003019999999N999999999-00731-00891101921ADDMA1999990101811MD1790029+9990REMSYN04801011 46/// /1203 11073 21089 30181 40192 54002=EQDQ01.2    3APC3  
0089010110999992014011514004+80067+031500FM-12+001099999V0201101N005019999999N999999999-00811-00961101891ADDMA1999990101781MD1710031+9990REMSYN04801011 46/// /1105 11081 21096 30178 40189 57003=
0089010110999992014011515004+80067+031500FM-12+001099999V0201101N004019999999N999999999-00711-00831101871ADDMA1999990101761MD1710041+9990REMSYN04801011 46/// /1104 11071 21083 30176 40187 57004=
0089010110999992014011516004+80067+031500FM-12+001099999V0201101N004019999999N999999999-00721-00841101861ADDMA1999990101751MD1710061+9990REMSYN04801011 46/// /1104 11072 21084 30175 40186 57006=
0089010110999992014011517004+80067+031500FM-12+001099999V0201301N002019999999N999999999-00671-00831101871ADDMA1999990101761MD1900021+9990REMSYN04801011 46/// /1302 11067 21083 30176 40187 50002=
0132010110999992014011518004+80067+031500FM-12+001099999V0201201N002019999999N999999999-00671-00831101871ADDKA1120M-00611MA1999990101761MD1410001+9990OD139900501999REMSYN06401011 46/// /1202 11067 21083 30176 40187 54000 333 11061 91105=
0089010110999992014011519004+80067+031500FM-12+001099999V0201201N003019999999N999999999-00651-00811101861ADDMA1999990101741MD1410001+9990REMSYN04801011 46/// /1203 11065 21081 30174 40186 54000=
0089010110999992014011520004+80067+031500FM-12+001099999V0201001N002019999999N999999999-00631-00781101841ADDMA1999990101731MD1710031+9990REMSYN04801011 46/// /1002 11063 21078 30173 40184 57003=
0108010110999992014011521004+80067+031500FM-12+001099999V0201101N003019999999N999999999-00681-00951101851ADDMA1999990101741MD1790029+9990REMSYN04801011 46/// /1103 11068 21095 30174 40185 54001=EQDQ01.1    3APC3  
0108010110999992014011522004+80067+031500FM-12+001099999V0201201N004019999999N999999999-00681-00871101841ADDMA1999990101731MD1790029+9990REMSYN04801011 46/// /1204 11068 21087 30173 40184 54001=EQDQ01.1    3APC3  
0108010110999992014011523004+80067+031500FM-12+001099999V0201101N004019999999N999999999-00801-00851101851ADDMA1999990101731MD1290019+9990REMSYN04801011 46/// /1104 11080 21085 30173 40185 54001=EQDQ01.1    3APC3  
0132010110999992014011600004+80067+031500FM-12+001099999V0201101N004019999999N999999999-00791-00851101841ADDMA1999990101731MD1790019+9990OD139900501999REMSYN05801011 46/// /1104 11079 21085 30173 40184 54001 333 91105=EQDQ01.1    3APC3  
0089010110999992014011601004+80067+031500FM-12+001099999V0201201N004019999999N999999999-00731-00801101811ADDMA1999990101701MD1510031+9990REMSYN04801011 46/// /1204 11073 21080 30170 40181 55003=
0089010110999992014011602004+80067+031500FM-12+001099999V0201201N004019999999N999999999-00691-00771101771ADDMA1999990101661MD1610071+9990REMSYN04801011 46/// /1204 11069 21077 30166 40177 56007=
0089010110999992014011603004+80067+031500FM-12+001099999V0201201N006019999999N999999999-00811-00891101721ADDMA1999990101611MD1710121+9990REMSYN04801011 46/// /1206 11081 21089 30161 40172 57012=
0089010110999992014011604004+80067+031500FM-12+001099999V0201101N006019999999N999999999-00741-00811101711ADDMA1999990101601MD1810101+9990REMSYN04801011 46/// /1106 11074 21081 30160 40171 58010=
0089010110999992014011605004+80067+031500FM-12+001099999V0201101N005019999999N999999999-00681-00751101691ADDMA1999990101581MD1710081+9990REMSYN04801011 46/// /1105 11068 21075 30158 40169 57008=
0132010110999992014011606004+80067+031500FM-12+001099999V0201101N005019999999N999999999-00681-00751101661ADDKA1240N-01001MA1999990101551MD1710061+9990OD139900701999REMSYN06401011 46/// /1105 11068 21075 30155 40166 57006 333 21100 91107=
0089010110999992014011607004+80067+031500FM-12+001099999V0201201N005019999999N999999999-00601-00751101631ADDMA1999990101521MD1710081+9990REMSYN04801011 46/// /1205 11060 21075 30152 40163 57008=
0089010110999992014011608004+80067+031500FM-12+001099999V0201201N006019999999N999999999-00701-00831101651ADDMA1999990101541MD1810041+9990REMSYN04801011 46/// /1206 11070 21083 30154 40165 58004=
0108010110999992014011609004+80067+031500FM-12+001099999V0201101N007019999999N999999999-00661-00771101641ADDMA1999990101531MD1790029+9990REMSYN04801011 46/// /1107 11066 21077 30153 40164 54002=EQDQ01.2    3APC3  
0089010110999992014011610004+80067+031500FM-12+001099999V0201101N006019999999N999999999-00611-00721101661ADDMA1999990101551MD1210031+9990REMSYN04801011 46/// /1106 11061 21072 30155 40166 52003=
0108010110999992014011611004+80067+031500FM-12+001099999V0201101N005019999999N999999999-00561-00711101661ADDMA1999990101551MD1290019+9990REMSYN04801011 46/// /1105 11056 21071 30155 40166 54001=EQDQ01.1    3APC3  
0113010110999992014011612004+80067+031500FM-12+001099999V0201201N004019999999N999999999-00561-00721101631ADDMA1999990101521MD1510001+9990OD139900801999REMSYN05801011 46/// /1204 11056 21072 30152 40163 55000 333 91108=
0089010110999992014011613004+80067+031500FM-12+001099999V0201101N004019999999N999999999-00561-00701101601ADDMA1999990101491MD1710071+9990REMSYN04801011 46/// /1104 11056 21070 30149 40160 57007=
0089010110999992014011614004+80067+031500FM-12+001099999V0201201N005019999999N999999999-00511-00621101521ADDMA1999990101411MD1610131+9990REMSYN04801011 46/// /1205 11051 21062 30141 40152 56013=
0089010110999992014011615004+80067+031500FM-12+001099999V0201101N007019999999N999999999-00491-00601101451ADDMA1999990101341MD1610181+9990REMSYN04801011 46/// /1107 11049 21060 30134 40145 56018=
0089010110999992014011616004+80067+031500FM-12+001099999V0201201N007019999999N999999999-00451-00571101391ADDMA1999990101291MD1710201+9990REMSYN04801011 46/// /1207 11045 21057 30129 40139 57020=
0089010110999992014011617004+80067+031500FM-12+001099999V0201201N008019999999N999999999-00431-00541101331ADDMA1999990101221MD1710201+9990REMSYN04801011 46/// /1208 11043 21054 30122 40133 57020=
0132010110999992014011618004+80067+031500FM-12+001099999V0201201N007019999999N999999999-00401-00501101301ADDKA1120M-00401MA1999990101191MD1710151+9990OD139901001999REMSYN06401011 46/// /1207 11040 21050 30119 40130 57015 333 11040 91110=
0089010110999992014011619004+80067+031500FM-12+001099999V0201201N007019999999N999999999-00401-00491101261ADDMA1999990101151MD1710141+9990REMSYN04801011 46/// /1207 11040 21049 30115 40126 57014=
0089010110999992014011620004+80067+031500FM-12+001099999V0201201N007019999999N999999999-00441-00531101201ADDMA1999990101101MD1710121+9990REMSYN04801011 46/// /1207 11044 21053 30110 40120 57012=
0089010110999992014011621004+80067+031500FM-12+001099999V0201201N007019999999N999999999-00451-00521101161ADDMA1999990101051MD1710141+9990REMSYN04801011 46/// /1207 11045 21052 30105 40116 57014=
0089010110999992014011622004+80067+031500FM-12+001099999V0201301N006019999999N999999999-00431-00491101121ADDMA1999990101011MD1710131+9990REMSYN04801011 46/// /1306 11043 21049 30101 40112 57013=
0089010110999992014011623004+80067+031500FM-12+001099999V0201101N006019999999N999999999-00401-00471101101ADDMA1999990100991MD1710101+9990REMSYN04801011 46/// /1106 11040 21047 30099 40110 57010=
0113010110999992014011700004+80067+031500FM-12+001099999V0201101N005019999999N999999999-00371-00461101091ADDMA1999990100981MD1710071+9990OD139900901999REMSYN05801011 46/// /1105 11037 21046 30098 40109 57007 333 91109=
0089010110999992014011701004+80067+031500FM-12+001099999V0201301N003019999999N999999999-00371-00471101111ADDMA1999990101001MD1900021+9990REMSYN04801011 46/// /1303 11037 21047 30100 40111 50002=
0108010110999992014011702004+80067+031500FM-12+001099999V0201101N004019999999N999999999-00371-00481101081ADDMA1999990100971MD1790029+9990REMSYN04801011 46/// /1104 11037 21048 30097 40108 54002=EQDQ01.2    3APC3  
0108010110999992014011703004+80067+031500FM-12+001099999V0200901N003019999999N999999999-00341-00481101081ADDMA1999990100971MD1790019+9990REMSYN04801011 46/// /0903 11034 21048 30097 40108 54001=EQDQ01.1    3APC3  
0089010110999992014011704004+80067+031500FM-12+001099999V0201101N003019999999N999999999-00391-00511101071ADDMA1999990100961MD1710031+9990REMSYN04801011 46/// /1103 11039 21051 30096 40107 57003=
0108010110999992014011705004+80067+031500FM-12+001099999V0201101N002019999999N999999999-00381-00501101061ADDMA1999990100951MD1790029+9990REMSYN04801011 46/// /1102 11038 21050 30095 40106 54002=EQDQ01.2    3APC3  
0132010110999992014011706004+80067+031500FM-12+001099999V0201101N004019999999N999999999-00441-00541101041ADDKA1240N-00521MA1999990100931MD1710041+9990OD139900701999REMSYN06401011 46/// /1104 11044 21054 30093 40104 57004 333 21052 91107=
0089010110999992014011707004+80067+031500FM-12+001099999V0201301N004019999999N999999999-00461-00571101071ADDMA1999990100961MD1900001+9990REMSYN04801011 46/// /1304 11046 21057 30096 40107 50000=
0108010110999992014011708004+80067+031500FM-12+001099999V0201101N004019999999N999999999-00481-00561101071ADDMA1999990100961MD1290019+9990REMSYN04801011 46/// /1104 11048 21056 30096 40107 54001=EQDQ01.1    3APC3  
0089010110999992014011709004+80067+031500FM-12+001099999V0201301N004019999999N999999999-00481-00591101091ADDMA1999990100981MD1210051+9990REMSYN04801011 46/// /1304 11048 21059 30098 40109 52005=
0089010110999992014011710004+80067+031500FM-12+001099999V0201101N004019999999N999999999-00431-00541101111ADDMA1999990101001MD1210031+9990REMSYN04801011 46/// /1104 11043 21054 30100 40111 52003=
0089010110999992014011711004+80067+031500FM-12+001099999V0201301N005019999999N999999999-00471-00591101101ADDMA1999990100991MD1510031+9990REMSYN04801011 46/// /1305 11047 21059 30099 40110 55003=
0132010110999992014011712004+80067+031500FM-12+001099999V0201101N004019999999N999999999-00491-00571101111ADDMA1999990101001MD1290029+9990OD139900601999REMSYN05801011 46/// /1104 11049 21057 30100 40111 54002 333 91106=EQDQ01.2    3APC3  
0108010110999992014011713004+80067+031500FM-12+001099999V0201001N003019999999N999999999-00431-00551101091ADDMA1999990100981MD1790029+9990REMSYN04801011 46/// /1003 11043 21055 30098 40109 54002=EQDQ01.2    3APC3  
0089010110999992014011714004+80067+031500FM-12+001099999V0201301N003019999999N999999999-00461-00621101061ADDMA1999990100951MD1610031+9990REMSYN04801011 46/// /1303 11046 21062 30095 40106 56003=
0089010110999992014011715004+80067+031500FM-12+001099999V0201201N004019999999N999999999-00521-00661101071ADDMA1999990100961MD1710051+9990REMSYN04801011 46/// /1204 11052 21066 30096 40107 57005=
0108010110999992014011716004+80067+031500FM-12+001099999V0201101N003019999999N999999999-00441-00581101061ADDMA1999990100961MD1790039+9990REMSYN04801011 46/// /1103 11044 21058 30096 40106 54002=EQDQ01.2    3APC3  
0108010110999992014011717004+80067+031500FM-12+001099999V0201101N002019999999N999999999-00391-00541101041ADDMA1999990100931MD1790029+9990REMSYN04801011 46/// /1102 11039 21054 30093 40104 54002=EQDQ01.2    3APC3  
0132010110999992014011718004+80067+031500FM-12+001099999V0201201N003019999999N999999999-00501-00611101001ADDKA1120M-00311MA1999990100891MD1610071+9990OD139900601999REMSYN06401011 46/// /1203 11050 21061 30089 40100 56007 333 11031 91106=
0089010110999992014011719004+80067+031500FM-12+001099999V0201201N004019999999N999999999-00481-00591101011ADDMA1999990100901MD1810061+9990REMSYN04801011 46/// /1204 11048 21059 30090 40101 58006=
0089010110999992014011720004+80067+031500FM-12+001099999V0201101N003019999999N999999999-00471-00581100991ADDMA1999990100881MD1710051+9990REMSYN04801011 46/// /1103 11047 21058 30088 40099 57005=
0108010110999992014011721004+80067+031500FM-12+001099999V0203301N001019999999N999999999-00431-00521100991ADDMA1999990100881MD1790019+9990REMSYN04801011 46/// /3301 11043 21052 30088 40099 54001=EQDQ01.1    3APC3  
0089010110999992014011722004+80067+031500FM-12+001099999V0203301N003019999999N999999999-00391-00441100971ADDMA1999990100861MD1710041+9990REMSYN04801011 46/// /3303 11039 21044 30086 40097 57004=
0089010110999992014011723004+80067+031500FM-12+001099999V0203101N002019999999N999999999-00361-00411100991ADDMA1999990100881MD1410001+9990REMSYN04801011 46/// /3102 11036 21041 30088 40099 54000=
0113010110999992014011800004+80067+031500FM-12+001099999V0203401N001019999999N999999999-00331-00381101011ADDMA1999990100901MD1900021+9990OD139900601999REMSYN05801011 46/// /3401 11033 21038 30090 40101 50002 333 91106=
0089010110999992014011801004+80067+031500FM-12+001099999V0203601N001019999999N999999999-00281-00321100991ADDMA1999990100881MD1510021+9990REMSYN04801011 46/// /3601 11028 21032 30088 40099 55002=
0089010110999992014011802004+80067+031500FM-12+001099999V0201501N001019999999N999999999-00351-00421100971ADDMA1999990100861MD1510021+9990REMSYN04801011 46/// /1501 11035 21042 30086 40097 55002=
0089010110999992014011803004+80067+031500FM-12+001099999V0201301N003019999999N999999999-00441-00671100941ADDMA1999990100831MD1710071+9990REMSYN04801011 46/// /1303 11044 21067 30083 40094 57007=
0089010110999992014011804004+80067+031500FM-12+001099999V0201001N003019999999N999999999-00451-00721100911ADDMA1999990100801MD1710081+9990REMSYN04801011 46/// /1003 11045 21072 30080 40091 57008=
0089010110999992014011805004+80067+031500FM-12+001099999V0201201N004019999999N999999999-00431-00691100871ADDMA1999990100761MD1710111+9990REMSYN04801011 46/// /1204 11043 21069 30076 40087 57011=
0132010110999992014011806004+80067+031500FM-12+001099999V0201101N004019999999N999999999-00441-00621100831ADDKA1240N-00561MA1999990100721MD1710111+9990OD139900601999REMSYN06401011 46/// /1104 11044 21062 30072 40083 57011 333 21056 91106=
0089010110999992014011807004+80067+031500FM-12+001099999V0201201N005019999999N999999999-00411-00591100761ADDMA1999990100661MD1710141+9990REMSYN04801011 46/// /1205 11041 21059 30066 40076 57014=
0089010110999992014011808004+80067+031500FM-12+001099999V0201201N005019999999N999999999-00371-00531100751ADDMA1999990100651MD1710111+9990REMSYN04801011 46/// /1205 11037 21053 30065 40075 57011=
0089010110999992014011809004+80067+031500FM-12+001099999V0201201N004019999999N999999999-00351-00511100741ADDMA1999990100631MD1810081+9990REMSYN04801011 46/// /1204 11035 21051 30063 40074 58008=
0089010110999992014011810004+80067+031500FM-12+001099999V0201201N003019999999N999999999-00361-00511100721ADDMA1999990100611MD1710041+9990REMSYN04801011 46/// /1203 11036 21051 30061 40072 57004=
0108010110999992014011811004+80067+031500FM-12+001099999V0201201N003019999999N999999999-00331-00471100741ADDMA1999990100631MD1790019+9990REMSYN04801011 46/// /1203 11033 21047 30063 40074 54002=EQDQ01.2    3APC3  
0089010110999992014011813004+80067+031500FM-12+001099999V0201501N001019999999N999999999-00311-00461100721ADDMA1999990100611MD1410001+9990REMSYN04801011 46/// /1501 11031 21046 30061 40072 54000=
0089010110999992014011814004+80067+031500FM-12+001099999V0203001N010019999999N999999999-00321-00411100811ADDMA1999990100701MD1110071+9990REMSYN04801011 46/// /3010 11032 21041 30070 40081 51007=
0089010110999992014011815004+80067+031500FM-12+001099999V0202901N012019999999N999999999-00541-00701100881ADDMA1999990100771MD1110151+9990REMSYN04801011 46/// /2912 11054 21070 30077 40088 51015=
0089010110999992014011816004+80067+031500FM-12+001099999V0202901N012019999999N999999999-00721-00961100961ADDMA1999990100851MD1210241+9990REMSYN04801011 46/// /2912 11072 21096 30085 40096 52024=
0089010110999992014011817004+80067+031500FM-12+001099999V0202801N013019999999N999999999-00841-01131101001ADDMA1999990100891MD1310191+9990REMSYN04801011 46/// /2813 11084 21113 30089 40100 53019=
0113010110999992014011818004+80067+031500FM-12+001099999V0202901N012019999999N999999999-00901-01121101071ADDMA1999990100961MD1210191+9990OD139901701999REMSYN05801011 46/// /2912 11090 21112 30096 40107 52019 333 91117=
0089010110999992014011819004+80067+031500FM-12+001099999V0202901N013019999999N999999999-00941-01201101121ADDMA1999990101011MD1210161+9990REMSYN04801011 46/// /2913 11094 21120 30101 40112 52016=
0089010110999992014011820004+80067+031500FM-12+001099999V0202901N014019999999N999999999-00961-01271101141ADDMA1999990101021MD1310141+9990REMSYN04801011 46/// /2914 11096 21127 30102 40114 53014=
0089010110999992014011821004+80067+031500FM-12+001099999V0203001N015019999999N999999999-00961-01221101201ADDMA1999990101091MD1210131+9990REMSYN04801011 46/// /3015 11096 21122 30109 40120 52013=
0089010110999992014011822004+80067+031500FM-12+001099999V0202901N014019999999N999999999-00921-01201101241ADDMA1999990101131MD1210121+9990REMSYN04801011 46/// /2914 11092 21120 30113 40124 52012=
0089010110999992014011823004+80067+031500FM-12+001099999V0202801N012019999999N999999999-00931-01171101321ADDMA1999990101211MD1210191+9990REMSYN04801011 46/// /2812 11093 21117 30121 40132 52019=
0113010110999992014011900004+80067+031500FM-12+001099999V0202901N013019999999N999999999-00941-01181101341ADDMA1999990101231MD1210141+9990OD139901701999REMSYN05801011 46/// /2913 11094 21118 30123 40134 52014 333 91117=
0089010110999992014011901004+80067+031500FM-12+001099999V0202901N013019999999N999999999-00941-01161101351ADDMA1999990101241MD1310111+9990REMSYN04801011 46/// /2913 11094 21116 30124 40135 53011=
0089010110999992014011902004+80067+031500FM-12+001099999V0202901N014019999999N999999999-00971-01221101371ADDMA1999990101261MD1210051+9990REMSYN04801011 46/// /2914 11097 21122 30126 40137 52005=
0108010110999992014011903004+80067+031500FM-12+001099999V0202801N015019999999N999999999-00971-01261101371ADDMA1999990101261MD1290039+9990REMSYN04801011 46/// /2815 11097 21126 30126 40137 54003=EQDQ01.3    3APC3  
0089010110999992014011904004+80067+031500FM-12+001099999V0202901N015019999999N999999999-00971-01181101391ADDMA1999990101281MD1210051+9990REMSYN04801011 46/// /2915 11097 21118 30128 40139 52005=
0089010110999992014011905004+80067+031500FM-12+001099999V0202901N015019999999N999999999-00981-01231101441ADDMA1999990101331MD1110071+9990REMSYN04801011 46/// /2915 11098 21123 30133 40144 51007=
0132010110999992014011906004+80067+031500FM-12+001099999V0203001N015019999999N999999999-00981-01291101471ADDKA1240N-01011MA1999990101361MD1210101+9990OD139901901999REMSYN06401011 46/// /3015 11098 21129 30136 40147 52010 333 21101 91119=
0089010110999992014011907004+80067+031500FM-12+001099999V0202901N014019999999N999999999-00981-01321101551ADDMA1999990101441MD1110161+9990REMSYN04801011 46/// /2914 11098 21132 30144 40155 51016=
0089010110999992014011908004+80067+031500FM-12+001099999V0202901N013019999999N999999999-00951-01291101581ADDMA1999990101471MD1210141+9990REMSYN04801011 46/// /2913 11095 21129 30147 40158 52014=
0089010110999992014011909004+80067+031500FM-12+001099999V0202901N013019999999N999999999-00921-01181101591ADDMA1999990101481MD1310121+9990REMSYN04801011 46/// /2913 11092 21118 30148 40159 53012=
0089010110999992014011910004+80067+031500FM-12+001099999V0202901N013019999999N999999999-00911-01191101641ADDMA1999990101531MD1210091+9990REMSYN04801011 46/// /2913 11091 21119 30153 40164 52009=
0089010110999992014011911004+80067+031500FM-12+001099999V0202901N014019999999N999999999-00861-01111101691ADDMA1999990101581MD1110111+9990REMSYN04801011 46/// /2914 11086 21111 30158 40169 51011=
0113010110999992014011912004+80067+031500FM-12+001099999V0203001N015019999999N999999999-00821-01031101681ADDMA1999990101561MD1310081+9990OD139901901999REMSYN05801011 46/// /3015 11082 21103 30156 40168 53008 333 91119=
0089010110999992014011913004+80067+031500FM-12+001099999V0203001N014019999999N999999999-00821-00971101751ADDMA1999990101641MD1210111+9990REMSYN04801011 46/// /3014 11082 21097 30164 40175 52011=
0089010110999992014011914004+80067+031500FM-12+001099999V0203001N013019999999N999999999-00791-00901101821ADDMA1999990101711MD1110131+9990REMSYN04801011 46/// /3013 11079 21090 30171 40182 51013=
0089010110999992014011915004+80067+031500FM-12+001099999V0203001N010019999999N999999999-00771-00851101861ADDMA1999990101741MD1310181+9990REMSYN04801011 46/// /3010 11077 21085 30174 40186 53018=
0089010110999992014011916004+80067+031500FM-12+001099999V0203201N009019999999N999999999-00791-00871101871ADDMA1999990101761MD1310121+9990REMSYN04801011 46/// /3209 11079 21087 30176 40187 53012=
0089010110999992014011917004+80067+031500FM-12+001099999V0203301N008019999999N999999999-00791-00871101891ADDMA1999990101781MD1210071+9990REMSYN04801011 46/// /3308 11079 21087 30178 40189 52007=
0132010110999992014011918004+80067+031500FM-12+001099999V0203201N006019999999N999999999-00771-00881102001ADDKA1120M-00761MA1999990101891MD1110141+9990OD139901801999REMSYN06401011 46/// /3206 11077 21088 30189 40200 51014 333 11076 91118=
0089010110999992014011919004+80067+031500FM-12+001099999V0203301N006019999999N999999999-00801-00911102031ADDMA1999990101921MD1210161+9990REMSYN04801011 46/// /3306 11080 21091 30192 40203 52016=
0089010110999992014011920004+80067+031500FM-12+001099999V0203301N006019999999N999999999-00801-00921102041ADDMA1999990101931MD1310151+9990REMSYN04801011 46/// /3306 11080 21092 30193 40204 53015=
0089010110999992014011921004+80067+031500FM-12+001099999V0203301N004019999999N999999999-00781-00881102111ADDMA1999990102001MD1110111+9990REMSYN04801011 46/// /3304 11078 21088 30200 40211 51011=
0089010110999992014011922004+80067+031500FM-12+001099999V0203201N004019999999N999999999-00751-00851102151ADDMA1999990102041MD1110121+9990REMSYN04801011 46/// /3204 11075 21085 30204 40215 51012=
0089010110999992014011923004+80067+031500FM-12+001099999V0203201N004019999999N999999999-00741-00841102171ADDMA1999990102061MD1310131+9990REMSYN04801011 46/// /3204 11074 21084 30206 40217 53013=
0113010110999992014012000004+80067+031500FM-12+001099999V0203301N003019999999N999999999-00741-00821102221ADDMA1999990102111MD1210111+9990OD139900701999REMSYN05801011 46/// /3303 11074 21082 30211 40222 52011 333 91107=
0089010110999992014012002004+80067+031500FM-12+001099999V0203401N001019999999N999999999-00741-00871102241ADDMA1999990102131MD1310071+9990REMSYN04801011 46/// /3401 11074 21087 30213 40224 53007=
0108010110999992014012003004+80067+031500FM-12+001099999V0203301N001019999999N999999999-00731-00861102241ADDMA1999990102131MD1290029+9990REMSYN04801011 46/// /3301 11073 21086 30213 40224 54002=EQDQ01.2    3APC3  
0094010110999992014012004004+80067+031500FM-12+001099999V0203601N001019999999N999999999-00671-00821102251ADDMA1999990102141REMSYN04801011 46/// /3601 11067 21082 30214 40225 54003=EQDQ014     3APCTEN
0108010110999992014012005004+80067+031500FM-12+001099999V0200801N002019999999N999999999-00761-00881102251ADDMA1999990102141MD1290019+9990REMSYN04801011 46/// /0802 11076 21088 30214 40225 54001=EQDQ01.1    3APC3  
0108010110999992014012006004+80067+031500FM-12+001099999V0200701N003019999999N999999999-00771-00921102251ADDMA1999990102141MD1290019+9990REMSYN04801011 46/// /0703 11077 21092 30214 40225 54001=EQDQ01.1    3APC3  
0089010110999992014012007004+80067+031500FM-12+001099999V0200701N003019999999N999999999-00821-00941102261ADDMA1999990102141MD1410001+9990REMSYN04801011 46/// /0703 11082 21094 30214 40226 54000=
0108010110999992014012008004+80067+031500FM-12+001099999V0200701N004019999999N999999999-00901-00991102261ADDMA1999990102151MD1290019+9990REMSYN04801011 46/// /0704 11090 21099 30215 40226 54001=EQDQ01.1    3APC3  
0108010110999992014012009004+80067+031500FM-12+001099999V0200701N005019999999N999999999-01051-01121102281ADDMA1999990102161MD1290039+9990REMSYN04801011 46/// /0705 11105 21112 30216 40228 54002=EQDQ01.2    3APC3  
0108010110999992014012010004+80067+031500FM-12+001099999V0200801N005019999999N999999999-01051-01131102281ADDMA1999990102171MD1290029+9990REMSYN04801011 46/// /0805 11105 21113 30217 40228 54002=EQDQ01.2    3APC3  
0089010110999992014012011004+80067+031500FM-12+001099999V0200801N005019999999N999999999-01071-01151102251ADDMA1999990102141MD1510011+9990REMSYN04801011 46/// /0805 11107 21115 30214 40225 55001=
0113010110999992014012012004+80067+031500FM-12+001099999V0200801N005019999999N999999999-00981-01051102221ADDMA1999990102101MD1610061+9990OD139900601999REMSYN05801011 46/// /0805 11098 21105 30210 40222 56006 333 91106=
0089010110999992014012013004+80067+031500FM-12+001099999V0201301N005019999999N999999999-00901-00991102171ADDMA1999990102061MD1710111+9990REMSYN04801011 46/// /1305 11090 21099 30206 40217 57011=
0089010110999992014012014004+80067+031500FM-12+001099999V0201101N005019999999N999999999-00951-01031102141ADDMA1999990102031MD1710111+9990REMSYN04801011 46/// /1105 11095 21103 30203 40214 57011=
0089010110999992014012015004+80067+031500FM-12+001099999V0201201N006019999999N999999999-00961-01051102071ADDMA1999990101961MD1610151+9990REMSYN04801011 46/// /1206 11096 21105 30196 40207 56015=
0089010110999992014012016004+80067+031500FM-12+001099999V0201201N006019999999N999999999-01021-01111101961ADDMA1999990101851MD1610211+9990REMSYN04801011 46/// /1206 11102 21111 30185 40196 56021=
0089010110999992014012017004+80067+031500FM-12+001099999V0201101N007019999999N999999999-01011-01101101881ADDMA1999990101771MD1710261+9990REMSYN04801011 46/// /1107 11101 21110 30177 40188 57026=
0132010110999992014012018004+80067+031500FM-12+001099999V0201101N007019999999N999999999-00961-01051101791ADDKA1120M-00781MA1999990101681MD1710271+9990OD139900801999REMSYN06401011 46/// /1107 11096 21105 30168 40179 57027 333 11078 91108=
0089010110999992014012019004+80067+031500FM-12+001099999V0201101N008019999999N999999999-00911-01001101681ADDMA1999990101571MD1710281+9990REMSYN04801011 46/// /1108 11091 21100 30157 40168 57028=
0089010110999992014012020004+80067+031500FM-12+001099999V0201201N008019999999N999999999-00911-01021101631ADDMA1999990101521MD1810251+9990REMSYN04801011 46/// /1208 11091 21102 30152 40163 58025=
0089010110999992014012021004+80067+031500FM-12+001099999V0201201N007019999999N999999999-00891-00981101551ADDMA1999990101441MD1710251+9990REMSYN04801011 46/// /1207 11089 21098 30144 40155 57025=
0089010110999992014012022004+80067+031500FM-12+001099999V0201101N007019999999N999999999-00881-00991101451ADDMA1999990101341MD1610231+9990REMSYN04801011 46/// /1107 11088 21099 30134 40145 56023=
0089010110999992014012023004+80067+031500FM-12+001099999V0201101N007019999999N999999999-00831-00941101381ADDMA1999990101261MD1710261+9990REMSYN04801011 46/// /1107 11083 21094 30126 40138 57026=
0113010110999992014012100004+80067+031500FM-12+001099999V0201001N007019999999N999999999-00771-00901101271ADDMA1999990101161MD1710271+9990OD139900901999REMSYN05801011 46/// /1007 11077 21090 30116 40127 57027 333 91109=
0089010110999992014012101004+80067+031500FM-12+001099999V0200901N006019999999N999999999-00701-00831101221ADDMA1999990101111MD1710231+9990REMSYN04801011 46/// /0906 11070 21083 30111 40122 57023=
0089010110999992014012102004+80067+031500FM-12+001099999V0200801N005019999999N999999999-00651-00781101181ADDMA1999990101071MD1810201+9990REMSYN04801011 46/// /0805 11065 21078 30107 40118 58020=
0089010110999992014012103004+80067+031500FM-12+001099999V0200701N004019999999N999999999-00621-00751101121ADDMA1999990101011MD1710151+9990REMSYN04801011 46/// /0704 11062 21075 30101 40112 57015=
0089010110999992014012104004+80067+031500FM-12+001099999V0200601N004019999999N999999999-00591-00781101071ADDMA1999990100961MD1710151+9990REMSYN04801011 46/// /0604 11059 21078 30096 40107 57015=
0089010110999992014012105004+80067+031500FM-12+001099999V0203601N001019999999N999999999-00461-00661101071ADDMA1999990100961MD1810111+9990REMSYN04801011 46/// /3601 11046 21066 30096 40107 58011=
0132010110999992014012106004+80067+031500FM-12+001099999V0209999C999999999999N999999999-00501-00611101091ADDKA1240N-00961MA1999990100981MD1900031+9990OD139900701999REMSYN06401011 46/// /0000 11050 21061 30098 40109 50003 333 21096 91107=
0089010110999992014012107004+80067+031500FM-12+001099999V0209999C999999999999N999999999-00501-00571101111ADDMA1999990101001MD1210041+9990REMSYN04801011 46/// /0000 11050 21057 30100 40111 52004=
0089010110999992014012108004+80067+031500FM-12+001099999V0202901N001019999999N999999999-00401-00501101091ADDMA1999990100981MD1510021+9990REMSYN04801011 46/// /2901 11040 21050 30098 40109 55002=
0089010110999992014012109004+80067+031500FM-12+001099999V0202901N003019999999N999999999-00371-00521101071ADDMA1999990100961MD1510021+9990REMSYN04801011 46/// /2903 11037 21052 30096 40107 55002=
0089010110999992014012110004+80067+031500FM-12+001099999V0203001N002019999999N999999999-00391-00501101091ADDMA1999990100981MD1900021+9990REMSYN04801011 46/// /3002 11039 21050 30098 40109 50002=
0089010110999992014012111004+80067+031500FM-12+001099999V0203101N002019999999N999999999-00391-00511101111ADDMA1999990101001MD1900011+9990REMSYN04801011 46/// /3102 11039 21051 30100 40111 50001=
0113010110999992014012112004+80067+031500FM-12+001099999V0200301N003019999999N999999999-00581-00791101181ADDMA1999990101071MD1110111+9990OD139900501999REMSYN05801011 46/// /0303 11058 21079 30107 40118 51011 333 91105=
0089010110999992014012113004+80067+031500FM-12+001099999V0200501N010019999999N999999999-00941-01151101241ADDMA1999990101131MD1110141+9990REMSYN04801011 46/// /0510 11094 21115 30113 40124 51014=
0089010110999992014012114004+80067+031500FM-12+001099999V0200501N011019999999N999999999-01061-01271101311ADDMA1999990101201MD1210201+9990REMSYN04801011 46/// /0511 11106 21127 30120 40131 52020=
0089010110999992014012115004+80067+031500FM-12+001099999V0200501N010019999999N999999999-01101-01311101421ADDMA1999990101311MD1110241+9990REMSYN04801011 46/// /0510 11110 21131 30131 40142 51024=
0089010110999992014012117004+80067+031500FM-12+001099999V0200601N010019999999N999999999-01251-01451101591ADDMA1999990101481MD1210281+9990REMSYN04801011 46/// /0610 11125 21145 30148 40159 52028=
0132010110999992014012118004+80067+031500FM-12+001099999V0200601N011019999999N999999999-01281-01471101651ADDKA1120M-00351MA1999990101541MD1210231+9990OD139901201999REMSYN06401011 46/// /0611 11128 21147 30154 40165 52023 333 11035 91112=
0089010110999992014012119004+80067+031500FM-12+001099999V0200601N010019999999N999999999-01271-01461101691ADDMA1999990101581MD1310181+9990REMSYN04801011 46/// /0610 11127 21146 30158 40169 53018=
0089010110999992014012120004+80067+031500FM-12+001099999V0200601N011019999999N999999999-01301-01481101741ADDMA1999990101621MD1210141+9990REMSYN04801011 46/// /0611 11130 21148 30162 40174 52014=
0089010110999992014012121004+80067+031500FM-12+001099999V0200601N011019999999N999999999-01221-01401101771ADDMA1999990101661MD1210121+9990REMSYN04801011 46/// /0611 11122 21140 30166 40177 52012=
