0039010150999992014010100004+69600+017833FM-12+001499999V0209999C999999999999N999999999+00161-00381999999REMSYN03001015 46/// ///// 10016 21038=
0039010150999992014010101004+69600+017833FM-12+001499999V0209999C999999999999N999999999+00131-00421999999REMSYN03001015 46/// ///// 10013 21042=
0039010150999992014010102004+69600+017833FM-12+001499999V0209999C999999999999N999999999+00111-00431999999REMSYN03001015 46/// ///// 10011 21043=
0039010150999992014010103004+69600+017833FM-12+001499999V0209999C999999999999N999999999+00071-00461999999REMSYN03001015 46/// ///// 10007 21046=
0039010150999992014010104004+69600+017833FM-12+001499999V0209999C999999999999N999999999+00051-00481999999REMSYN03001015 46/// ///// 10005 21048=
0039010150999992014010105004+69600+017833FM-12+001499999V0209999C999999999999N999999999+00081-00431999999REMSYN03001015 46/// ///// 10008 21043=
0049010150999992014010106004+69600+017833FM-12+001499999V020999999999999999999999999999+99999+99999999999REMSYN04001015 46/// ///// 10007 21042 333 20005=
0039010150999992014010107004+69600+017833FM-12+001499999V0209999C999999999999N999999999+00071-00441999999REMSYN03001015 46/// ///// 10007 21044=
0039010150999992014010108004+69600+017833FM-12+001499999V0209999C999999999999N999999999+00061-00431999999REMSYN03001015 46/// ///// 10006 21043=
0039010150999992014010109004+69600+017833FM-12+001499999V0209999C999999999999N999999999+00121-00371999999REMSYN03001015 46/// ///// 10012 21037=
0039010150999992014010110004+69600+017833FM-12+001499999V0209999C999999999999N999999999+00141-00391999999REMSYN03001015 46/// ///// 10014 21039=
0039010150999992014010111004+69600+017833FM-12+001499999V0209999C999999999999N999999999+00131-00411999999REMSYN03001015 46/// ///// 10013 21041=
0039010150999992014010112004+69600+017833FM-12+001499999V0209999C999999999999N999999999+00141-00391999999REMSYN03001015 46/// ///// 10014 21039=
0039010150999992014010113004+69600+017833FM-12+001499999V0209999C999999999999N999999999-00021-00301999999REMSYN03001015 46/// ///// 11002 21030=
0039010150999992014010114004+69600+017833FM-12+001499999V0209999C999999999999N999999999-00031-00211999999REMSYN03001015 46/// ///// 11003 21021=
0039010150999992014010115004+69600+017833FM-12+001499999V0209999C999999999999N999999999+00021-00131999999REMSYN03001015 46/// ///// 10002 21013=
0039010150999992014010116004+69600+017833FM-12+001499999V0209999C999999999999N999999999-00011-00161999999REMSYN03001015 46/// ///// 11001 21016=
0039010150999992014010117004+69600+017833FM-12+001499999V0209999C999999999999N999999999+00031-00171999999REMSYN03001015 46/// ///// 10003 21017=
0049010150999992014010118004+69600+017833FM-12+001499999V020999999999999999999999999999+99999+99999999999REMSYN04001015 46/// ///// 11002 21026 333 10015=
0039010150999992014010119004+69600+017833FM-12+001499999V0209999C999999999999N999999999-00021-00301999999REMSYN03001015 46/// ///// 11002 21030=
0039010150999992014010120004+69600+017833FM-12+001499999V0209999C999999999999N999999999-00021-00331999999REMSYN03001015 46/// ///// 11002 21033=
0039010150999992014010121004+69600+017833FM-12+001499999V0209999C999999999999N999999999+00001-00351999999REMSYN03001015 46/// ///// 11000 21035=
0039010150999992014010122004+69600+017833FM-12+001499999V0209999C999999999999N999999999+00021-00391999999REMSYN03001015 46/// ///// 10002 21039=
0039010150999992014010123004+69600+017833FM-12+001499999V0209999C999999999999N999999999-00031-00401999999REMSYN03001015 46/// ///// 11003 21040=
0039010150999992014010200004+69600+017833FM-12+001499999V0209999C999999999999N999999999-00011-00401999999REMSYN03001015 46/// ///// 11001 21040=
0039010150999992014010201004+69600+017833FM-12+001499999V0209999C999999999999N999999999+00001-00461999999REMSYN03001015 46/// ///// 10000 21046=
0039010150999992014010202004+69600+017833FM-12+001499999V0209999C999999999999N999999999+00041-00411999999REMSYN03001015 46/// ///// 10004 21041=
0039010150999992014010203004+69600+017833FM-12+001499999V0209999C999999999999N999999999+00061-00411999999REMSYN03001015 46/// ///// 10006 21041=
0039010150999992014010204004+69600+017833FM-12+001499999V0209999C999999999999N999999999+00091-00401999999REMSYN03001015 46/// ///// 10009 21040=
0039010150999992014010205004+69600+017833FM-12+001499999V0209999C999999999999N999999999+00121-00381999999REMSYN03001015 46/// ///// 10012 21038=
0049010150999992014010206004+69600+017833FM-12+001499999V020999999999999999999999999999+99999+99999999999REMSYN04001015 46/// ///// 10015 21035 333 21003=
0039010150999992014010207004+69600+017833FM-12+001499999V0209999C999999999999N999999999+00191-00321999999REMSYN03001015 46/// ///// 10019 21032=
0039010150999992014010208004+69600+017833FM-12+001499999V0209999C999999999999N999999999+00221-00271999999REMSYN03001015 46/// ///// 10022 21027=
0039010150999992014010209004+69600+017833FM-12+001499999V0209999C999999999999N999999999+00261-00231999999REMSYN03001015 46/// ///// 10026 21023=
0039010150999992014010210004+69600+017833FM-12+001499999V0209999C999999999999N999999999+00281-00241999999REMSYN03001015 46/// ///// 10028 21024=
0039010150999992014010211004+69600+017833FM-12+001499999V0209999C999999999999N999999999+00311-00211999999REMSYN03001015 46/// ///// 10031 21021=
0039010150999992014010212004+69600+017833FM-12+001499999V0209999C999999999999N999999999+00321-00191999999REMSYN03001015 46/// ///// 10032 21019=
0039010150999992014010213004+69600+017833FM-12+001499999V0209999C999999999999N999999999+00351-00221999999REMSYN03001015 46/// ///// 10035 21022=
0039010150999992014010214004+69600+017833FM-12+001499999V0209999C999999999999N999999999+00361-00191999999REMSYN03001015 46/// ///// 10036 21019=
0039010150999992014010215004+69600+017833FM-12+001499999V0209999C999999999999N999999999+00321-00251999999REMSYN03001015 46/// ///// 10032 21025=
0039010150999992014010216004+69600+017833FM-12+001499999V0209999C999999999999N999999999+00311-00351999999REMSYN03001015 46/// ///// 10031 21035=
0039010150999992014010217004+69600+017833FM-12+001499999V0209999C999999999999N999999999+00271-00441999999REMSYN03001015 46/// ///// 10027 21044=
0049010150999992014010218004+69600+017833FM-12+001499999V020999999999999999999999999999+99999+99999999999REMSYN04001015 46/// ///// 10025 21045 333 10037=
0039010150999992014010219004+69600+017833FM-12+001499999V0209999C999999999999N999999999+00241-00381999999REMSYN03001015 46/// ///// 10024 21038=
0039010150999992014010220004+69600+017833FM-12+001499999V0209999C999999999999N999999999+00231-00361999999REMSYN03001015 46/// ///// 10023 21036=
0039010150999992014010221004+69600+017833FM-12+001499999V0209999C999999999999N999999999+00241-00261999999REMSYN03001015 46/// ///// 10024 21026=
0039010150999992014010222004+69600+017833FM-12+001499999V0209999C999999999999N999999999+00221-00261999999REMSYN03001015 46/// ///// 10022 21026=
0039010150999992014010223004+69600+017833FM-12+001499999V0209999C999999999999N999999999+00241-00251999999REMSYN03001015 46/// ///// 10024 21025=
0039010150999992014010300004+69600+017833FM-12+001499999V0209999C999999999999N999999999+00241-00261999999REMSYN03001015 46/// ///// 10024 21026=
0039010150999992014010301004+69600+017833FM-12+001499999V0209999C999999999999N999999999+00281-00191999999REMSYN03001015 46/// ///// 10028 21019=
0039010150999992014010302004+69600+017833FM-12+001499999V0209999C999999999999N999999999+00331-00201999999REMSYN03001015 46/// ///// 10033 21020=
0039010150999992014010303004+69600+017833FM-12+001499999V0209999C999999999999N999999999+00311-00181999999REMSYN03001015 46/// ///// 10031 21018=
0039010150999992014010304004+69600+017833FM-12+001499999V0209999C999999999999N999999999+00331-00161999999REMSYN03001015 46/// ///// 10033 21016=
0039010150999992014010305004+69600+017833FM-12+001499999V0209999C999999999999N999999999+00331-00161999999REMSYN03001015 46/// ///// 10033 21016=
0049010150999992014010306004+69600+017833FM-12+001499999V020999999999999999999999999999+99999+99999999999REMSYN04001015 46/// ///// 10036 21013 333 20022=
0039010150999992014010307004+69600+017833FM-12+001499999V0209999C999999999999N999999999+00361-00081999999REMSYN03001015 46/// ///// 10036 21008=
0039010150999992014010308004+69600+017833FM-12+001499999V0209999C999999999999N999999999+00361-00101999999REMSYN03001015 46/// ///// 10036 21010=
0039010150999992014010309004+69600+017833FM-12+001499999V0209999C999999999999N999999999+00371-00111999999REMSYN03001015 46/// ///// 10037 21011=
0039010150999992014010310004+69600+017833FM-12+001499999V0209999C999999999999N999999999+00381-00081999999REMSYN03001015 46/// ///// 10038 21008=
0039010150999992014010311004+69600+017833FM-12+001499999V0209999C999999999999N999999999+00391-00041999999REMSYN03001015 46/// ///// 10039 21004=
0039010150999992014010312004+69600+017833FM-12+001499999V0209999C999999999999N999999999+00391-00031999999REMSYN03001015 46/// ///// 10039 21003=
0039010150999992014010313004+69600+017833FM-12+001499999V0209999C999999999999N999999999+00371-00041999999REMSYN03001015 46/// ///// 10037 21004=
0039010150999992014010314004+69600+017833FM-12+001499999V0209999C999999999999N999999999+00381-00041999999REMSYN03001015 46/// ///// 10038 21004=
0039010150999992014010315004+69600+017833FM-12+001499999V0209999C999999999999N999999999+00381-00031999999REMSYN03001015 46/// ///// 10038 21003=
0039010150999992014010316004+69600+017833FM-12+001499999V0209999C999999999999N999999999+00381-00031999999REMSYN03001015 46/// ///// 10038 21003=
0039010150999992014010317004+69600+017833FM-12+001499999V0209999C999999999999N999999999+00411-00041999999REMSYN03001015 46/// ///// 10041 21004=
0049010150999992014010318004+69600+017833FM-12+001499999V020999999999999999999999999999+99999+99999999999REMSYN04001015 46/// ///// 10042 21002 333 10043=
0039010150999992014010319004+69600+017833FM-12+001499999V0209999C999999999999N999999999+00421+00021999999REMSYN03001015 46/// ///// 10042 20002=
0039010150999992014010320004+69600+017833FM-12+001499999V0209999C999999999999N999999999+00431+00001999999REMSYN03001015 46/// ///// 10043 21000=
0039010150999992014010321004+69600+017833FM-12+001499999V0209999C999999999999N999999999+00441-00021999999REMSYN03001015 46/// ///// 10044 21002=
0039010150999992014010322004+69600+017833FM-12+001499999V0209999C999999999999N999999999+00441-00011999999REMSYN03001015 46/// ///// 10044 21001=
0039010150999992014010323004+69600+017833FM-12+001499999V0209999C999999999999N999999999+00441+00011999999REMSYN03001015 46/// ///// 10044 20001=
0039010150999992014010400004+69600+017833FM-12+001499999V0209999C999999999999N999999999+00411-00021999999REMSYN03001015 46/// ///// 10041 21002=
0039010150999992014010401004+69600+017833FM-12+001499999V0209999C999999999999N999999999+00411-00041999999REMSYN03001015 46/// ///// 10041 21004=
0039010150999992014010402004+69600+017833FM-12+001499999V0209999C999999999999N999999999+00431-00031999999REMSYN03001015 46/// ///// 10043 21003=
0039010150999992014010403004+69600+017833FM-12+001499999V0209999C999999999999N999999999+00431-00031999999REMSYN03001015 46/// ///// 10043 21003=
0039010150999992014010404004+69600+017833FM-12+001499999V0209999C999999999999N999999999+00421-00041999999REMSYN03001015 46/// ///// 10042 21004=
0039010150999992014010405004+69600+017833FM-12+001499999V0209999C999999999999N999999999+00421-00071999999REMSYN03001015 46/// ///// 10042 21007=
0049010150999992014010406004+69600+017833FM-12+001499999V020999999999999999999999999999+99999+99999999999REMSYN04001015 46/// ///// 10041 21006 333 20039=
0039010150999992014010407004+69600+017833FM-12+001499999V0209999C999999999999N999999999+00391-00071999999REMSYN03001015 46/// ///// 10039 21007=
0039010150999992014010408004+69600+017833FM-12+001499999V0209999C999999999999N999999999+00371-00111999999REMSYN03001015 46/// ///// 10037 21011=
0039010150999992014010409004+69600+017833FM-12+001499999V0209999C999999999999N999999999+00341-00131999999REMSYN03001015 46/// ///// 10034 21013=
0039010150999992014010410004+69600+017833FM-12+001499999V0209999C999999999999N999999999+00331-00181999999REMSYN03001015 46/// ///// 10033 21018=
0039010150999992014010411004+69600+017833FM-12+001499999V0209999C999999999999N999999999+00371-00151999999REMSYN03001015 46/// ///// 10037 21015=
0039010150999992014010412004+69600+017833FM-12+001499999V0209999C999999999999N999999999+00391-00171999999REMSYN03001015 46/// ///// 10039 21017=
0039010150999992014010413004+69600+017833FM-12+001499999V0209999C999999999999N999999999+00411-00111999999REMSYN03001015 46/// ///// 10041 21011=
0039010150999992014010414004+69600+017833FM-12+001499999V0209999C999999999999N999999999+00421-00101999999REMSYN03001015 46/// ///// 10042 21010=
0039010150999992014010415004+69600+017833FM-12+001499999V0209999C999999999999N999999999+00441-00111999999REMSYN03001015 46/// ///// 10044 21011=
0039010150999992014010416004+69600+017833FM-12+001499999V0209999C999999999999N999999999+00431-00131999999REMSYN03001015 46/// ///// 10043 21013=
0039010150999992014010417004+69600+017833FM-12+001499999V0209999C999999999999N999999999+00421-00101999999REMSYN03001015 46/// ///// 10042 21010=
0049010150999992014010418004+69600+017833FM-12+001499999V020999999999999999999999999999+99999+99999999999REMSYN04001015 46/// ///// 10039 21015 333 10046=
0039010150999992014010419004+69600+017833FM-12+001499999V0209999C999999999999N999999999+00351-00141999999REMSYN03001015 46/// ///// 10035 21014=
0039010150999992014010420004+69600+017833FM-12+001499999V0209999C999999999999N999999999+00361-00161999999REMSYN03001015 46/// ///// 10036 21016=
0039010150999992014010421004+69600+017833FM-12+001499999V0209999C999999999999N999999999+00321-00161999999REMSYN03001015 46/// ///// 10032 21016=
0039010150999992014010422004+69600+017833FM-12+001499999V0209999C999999999999N999999999+00351-00201999999REMSYN03001015 46/// ///// 10035 21020=
0039010150999992014010423004+69600+017833FM-12+001499999V0209999C999999999999N999999999+00341-00221999999REMSYN03001015 46/// ///// 10034 21022=
0039010150999992014010500004+69600+017833FM-12+001499999V0209999C999999999999N999999999+00321-00211999999REMSYN03001015 46/// ///// 10032 21021=
0039010150999992014010501004+69600+017833FM-12+001499999V0209999C999999999999N999999999+00321-00161999999REMSYN03001015 46/// ///// 10032 21016=
0039010150999992014010502004+69600+017833FM-12+001499999V0209999C999999999999N999999999+00331-00211999999REMSYN03001015 46/// ///// 10033 21021=
0039010150999992014010503004+69600+017833FM-12+001499999V0209999C999999999999N999999999+00291-00201999999REMSYN03001015 46/// ///// 10029 21020=
0039010150999992014010504004+69600+017833FM-12+001499999V0209999C999999999999N999999999+00301-00151999999REMSYN03001015 46/// ///// 10030 21015=
0039010150999992014010505004+69600+017833FM-12+001499999V0209999C999999999999N999999999+00291-00241999999REMSYN03001015 46/// ///// 10029 21024=
0049010150999992014010506004+69600+017833FM-12+001499999V020999999999999999999999999999+99999+99999999999REMSYN04001015 46/// ///// 10025 21021 333 20025=
0039010150999992014010507004+69600+017833FM-12+001499999V0209999C999999999999N999999999+00231-00211999999REMSYN03001015 46/// ///// 10023 21021=
0039010150999992014010508004+69600+017833FM-12+001499999V0209999C999999999999N999999999+00241-00201999999REMSYN03001015 46/// ///// 10024 21020=
0039010150999992014010509004+69600+017833FM-12+001499999V0209999C999999999999N999999999+00231-00221999999REMSYN03001015 46/// ///// 10023 21022=
0039010150999992014010510004+69600+017833FM-12+001499999V0209999C999999999999N999999999+00211-00221999999REMSYN03001015 46/// ///// 10021 21022=
0039010150999992014010511004+69600+017833FM-12+001499999V0209999C999999999999N999999999+00211-00191999999REMSYN03001015 46/// ///// 10021 21019=
0039010150999992014010512004+69600+017833FM-12+001499999V0209999C999999999999N999999999+00181-00191999999REMSYN03001015 46/// ///// 10018 21019=
0039010150999992014010513004+69600+017833FM-12+001499999V0209999C999999999999N999999999+00141-00231999999REMSYN03001015 46/// ///// 10014 21023=
0039010150999992014010514004+69600+017833FM-12+001499999V0209999C999999999999N999999999+00151-00211999999REMSYN03001015 46/// ///// 10015 21021=
0039010150999992014010515004+69600+017833FM-12+001499999V0209999C999999999999N999999999+00161-00241999999REMSYN03001015 46/// ///// 10016 21024=
0039010150999992014010516004+69600+017833FM-12+001499999V0209999C999999999999N999999999+00131-00221999999REMSYN03001015 46/// ///// 10013 21022=
0039010150999992014010517004+69600+017833FM-12+001499999V0209999C999999999999N999999999+00121-00211999999REMSYN03001015 46/// ///// 10012 21021=
0049010150999992014010518004+69600+017833FM-12+001499999V020999999999999999999999999999+99999+99999999999REMSYN04001015 46/// ///// 10011 21024 333 10026=
0039010150999992014010519004+69600+017833FM-12+001499999V0209999C999999999999N999999999+00101-00201999999REMSYN03001015 46/// ///// 10010 21020=
0039010150999992014010520004+69600+017833FM-12+001499999V0209999C999999999999N999999999+00091-00231999999REMSYN03001015 46/// ///// 10009 21023=
0039010150999992014010521004+69600+017833FM-12+001499999V0209999C999999999999N999999999+00081-00231999999REMSYN03001015 46/// ///// 10008 21023=
0039010150999992014010522004+69600+017833FM-12+001499999V0209999C999999999999N999999999+00061-00261999999REMSYN03001015 46/// ///// 10006 21026=
0039010150999992014010523004+69600+017833FM-12+001499999V0209999C999999999999N999999999+00061-00301999999REMSYN03001015 46/// ///// 10006 21030=
0039010150999992014010600004+69600+017833FM-12+001499999V0209999C999999999999N999999999+00041-00261999999REMSYN03001015 46/// ///// 10004 21026=
0039010150999992014010601004+69600+017833FM-12+001499999V0209999C999999999999N999999999+00061-00241999999REMSYN03001015 46/// ///// 10006 21024=
0039010150999992014010602004+69600+017833FM-12+001499999V0209999C999999999999N999999999+00091-00271999999REMSYN03001015 46/// ///// 10009 21027=
0039010150999992014010603004+69600+017833FM-12+001499999V0209999C999999999999N999999999+00071-00271999999REMSYN03001015 46/// ///// 10007 21027=
0039010150999992014010604004+69600+017833FM-12+001499999V0209999C999999999999N999999999+00121-00291999999REMSYN03001015 46/// ///// 10012 21029=
0039010150999992014010605004+69600+017833FM-12+001499999V0209999C999999999999N999999999+00131-00291999999REMSYN03001015 46/// ///// 10013 21029=
0049010150999992014010606004+69600+017833FM-12+001499999V020999999999999999999999999999+99999+99999999999REMSYN04001015 46/// ///// 10010 21025 333 20003=
0039010150999992014010607004+69600+017833FM-12+001499999V0209999C999999999999N999999999+00161-00161999999REMSYN03001015 46/// ///// 10016 21016=
0039010150999992014010608004+69600+017833FM-12+001499999V0209999C999999999999N999999999+00121-00211999999REMSYN03001015 46/// ///// 10012 21021=
0039010150999992014010609004+69600+017833FM-12+001499999V0209999C999999999999N999999999+00151-00271999999REMSYN03001015 46/// ///// 10015 21027=
0039010150999992014010610004+69600+017833FM-12+001499999V0209999C999999999999N999999999+00181-00311999999REMSYN03001015 46/// ///// 10018 21031=
0039010150999992014010611004+69600+017833FM-12+001499999V0209999C999999999999N999999999+00181-00321999999REMSYN03001015 46/// ///// 10018 21032=
0039010150999992014010612004+69600+017833FM-12+001499999V0209999C999999999999N999999999+00211-00311999999REMSYN03001015 46/// ///// 10021 21031=
0039010150999992014010613004+69600+017833FM-12+001499999V0209999C999999999999N999999999+00221-00321999999REMSYN03001015 46/// ///// 10022 21032=
0039010150999992014010614004+69600+017833FM-12+001499999V0209999C999999999999N999999999+00211-00291999999REMSYN03001015 46/// ///// 10021 21029=
0039010150999992014010615004+69600+017833FM-12+001499999V0209999C999999999999N999999999+00221-00271999999REMSYN03001015 46/// ///// 10022 21027=
0039010150999992014010616004+69600+017833FM-12+001499999V0209999C999999999999N999999999+00191-00311999999REMSYN03001015 46/// ///// 10019 21031=
0039010150999992014010617004+69600+017833FM-12+001499999V0209999C999999999999N999999999+00241-00301999999REMSYN03001015 46/// ///// 10024 21030=
0049010150999992014010618004+69600+017833FM-12+001499999V020999999999999999999999999999+99999+99999999999REMSYN04001015 46/// ///// 10023 21026 333 10025=
0039010150999992014010619004+69600+017833FM-12+001499999V0209999C999999999999N999999999+00241-00271999999REMSYN03001015 46/// ///// 10024 21027=
0039010150999992014010620004+69600+017833FM-12+001499999V0209999C999999999999N999999999+00281-00251999999REMSYN03001015 46/// ///// 10028 21025=
0039010150999992014010621004+69600+017833FM-12+001499999V0209999C999999999999N999999999+00311-00191999999REMSYN03001015 46/// ///// 10031 21019=
0039010150999992014010622004+69600+017833FM-12+001499999V0209999C999999999999N999999999+00381-00191999999REMSYN03001015 46/// ///// 10038 21019=
0039010150999992014010623004+69600+017833FM-12+001499999V0209999C999999999999N999999999+00401-00151999999REMSYN03001015 46/// ///// 10040 21015=
0039010150999992014010700004+69600+017833FM-12+001499999V0209999C999999999999N999999999+00361-00181999999REMSYN03001015 46/// ///// 10036 21018=
0039010150999992014010701004+69600+017833FM-12+001499999V0209999C999999999999N999999999+00341-00141999999REMSYN03001015 46/// ///// 10034 21014=
0039010150999992014010702004+69600+017833FM-12+001499999V0209999C999999999999N999999999+00281-00271999999REMSYN03001015 46/// ///// 10028 21027=
0039010150999992014010703004+69600+017833FM-12+001499999V0209999C999999999999N999999999+00251-00261999999REMSYN03001015 46/// ///// 10025 21026=
0039010150999992014010704004+69600+017833FM-12+001499999V0209999C999999999999N999999999+00251-00231999999REMSYN03001015 46/// ///// 10025 21023=
0039010150999992014010705004+69600+017833FM-12+001499999V0209999C999999999999N999999999+00311-00191999999REMSYN03001015 46/// ///// 10031 21019=
0049010150999992014010706004+69600+017833FM-12+001499999V020999999999999999999999999999+99999+99999999999REMSYN04001015 46/// ///// 10030 21030 333 20023=
0039010150999992014010707004+69600+017833FM-12+001499999V0209999C999999999999N999999999+00311-00301999999REMSYN03001015 46/// ///// 10031 21030=
0039010150999992014010708004+69600+017833FM-12+001499999V0209999C999999999999N999999999+00301-00301999999REMSYN03001015 46/// ///// 10030 21030=
0039010150999992014010709004+69600+017833FM-12+001499999V0209999C999999999999N999999999+00311-00211999999REMSYN03001015 46/// ///// 10031 21021=
0039010150999992014010710004+69600+017833FM-12+001499999V0209999C999999999999N999999999+00301-00231999999REMSYN03001015 46/// ///// 10030 21023=
0039010150999992014010711004+69600+017833FM-12+001499999V0209999C999999999999N999999999+00281-00241999999REMSYN03001015 46/// ///// 10028 21024=
0039010150999992014010712004+69600+017833FM-12+001499999V0209999C999999999999N999999999+00281-00211999999REMSYN03001015 46/// ///// 10028 21021=
0039010150999992014010713004+69600+017833FM-12+001499999V0209999C999999999999N999999999+00291-00201999999REMSYN03001015 46/// ///// 10029 21020=
0039010150999992014010714004+69600+017833FM-12+001499999V0209999C999999999999N999999999+00261-00211999999REMSYN03001015 46/// ///// 10026 21021=
0039010150999992014010715004+69600+017833FM-12+001499999V0209999C999999999999N999999999+00241-00311999999REMSYN03001015 46/// ///// 10024 21031=
0039010150999992014010716004+69600+017833FM-12+001499999V0209999C999999999999N999999999+00261-00241999999REMSYN03001015 46/// ///// 10026 21024=
0039010150999992014010717004+69600+017833FM-12+001499999V0209999C999999999999N999999999+00241-00271999999REMSYN03001015 46/// ///// 10024 21027=
0049010150999992014010718004+69600+017833FM-12+001499999V020999999999999999999999999999+99999+99999999999REMSYN04001015 46/// ///// 10020 21036 333 10032=
0039010150999992014010719004+69600+017833FM-12+001499999V0209999C999999999999N999999999+00241-00331999999REMSYN03001015 46/// ///// 10024 21033=
0039010150999992014010720004+69600+017833FM-12+001499999V0209999C999999999999N999999999+00231-00301999999REMSYN03001015 46/// ///// 10023 21030=
0039010150999992014010721004+69600+017833FM-12+001499999V0209999C999999999999N999999999+00241-00261999999REMSYN03001015 46/// ///// 10024 21026=
0039010150999992014010722004+69600+017833FM-12+001499999V0209999C999999999999N999999999+00231-00281999999REMSYN03001015 46/// ///// 10023 21028=
0039010150999992014010723004+69600+017833FM-12+001499999V0209999C999999999999N999999999+00221-00301999999REMSYN03001015 46/// ///// 10022 21030=
0039010150999992014010800004+69600+017833FM-12+001499999V0209999C999999999999N999999999+00281-00211999999REMSYN03001015 46/// ///// 10028 21021=
0039010150999992014010801004+69600+017833FM-12+001499999V0209999C999999999999N999999999+00291-00221999999REMSYN03001015 46/// ///// 10029 21022=
0039010150999992014010802004+69600+017833FM-12+001499999V0209999C999999999999N999999999+00281-00271999999REMSYN03001015 46/// ///// 10028 21027=
0039010150999992014010803004+69600+017833FM-12+001499999V0209999C999999999999N999999999+00291-00251999999REMSYN03001015 46/// ///// 10029 21025=
0039010150999992014010804004+69600+017833FM-12+001499999V0209999C999999999999N999999999+00281-00261999999REMSYN03001015 46/// ///// 10028 21026=
0039010150999992014010805004+69600+017833FM-12+001499999V0209999C999999999999N999999999+00281-00261999999REMSYN03001015 46/// ///// 10028 21026=
0049010150999992014010806004+69600+017833FM-12+001499999V020999999999999999999999999999+99999+99999999999REMSYN04001015 46/// ///// 10022 21025 333 20021=
0039010150999992014010807004+69600+017833FM-12+001499999V0209999C999999999999N999999999+00131-00261999999REMSYN03001015 46/// ///// 10013 21026=
0039010150999992014010808004+69600+017833FM-12+001499999V0209999C999999999999N999999999+00091-00231999999REMSYN03001015 46/// ///// 10009 21023=
0039010150999992014010809004+69600+017833FM-12+001499999V0209999C999999999999N999999999+00091-00191999999REMSYN03001015 46/// ///// 10009 21019=
0039010150999992014010810004+69600+017833FM-12+001499999V0209999C999999999999N999999999+00071-00191999999REMSYN03001015 46/// ///// 10007 21019=
0039010150999992014010811004+69600+017833FM-12+001499999V0209999C999999999999N999999999+00061-00171999999REMSYN03001015 46/// ///// 10006 21017=
0039010150999992014010812004+69600+017833FM-12+001499999V0209999C999999999999N999999999+00061-00161999999REMSYN03001015 46/// ///// 10006 21016=
0039010150999992014010813004+69600+017833FM-12+001499999V0209999C999999999999N999999999+00061-00161999999REMSYN03001015 46/// ///// 10006 21016=
0039010150999992014010814004+69600+017833FM-12+001499999V0209999C999999999999N999999999+00061-00151999999REMSYN03001015 46/// ///// 10006 21015=
0039010150999992014010815004+69600+017833FM-12+001499999V0209999C999999999999N999999999+00031-00161999999REMSYN03001015 46/// ///// 10003 21016=
0039010150999992014010816004+69600+017833FM-12+001499999V0209999C999999999999N999999999+00071-00151999999REMSYN03001015 46/// ///// 10007 21015=
0039010150999992014010817004+69600+017833FM-12+001499999V0209999C999999999999N999999999+00071-00201999999REMSYN03001015 46/// ///// 10007 21020=
0049010150999992014010818004+69600+017833FM-12+001499999V020999999999999999999999999999+99999+99999999999REMSYN04001015 46/// ///// 10010 21021 333 10022=
0039010150999992014010819004+69600+017833FM-12+001499999V0209999C999999999999N999999999+00111-00241999999REMSYN03001015 46/// ///// 10011 21024=
0039010150999992014010820004+69600+017833FM-12+001499999V0209999C999999999999N999999999+00101-00281999999REMSYN03001015 46/// ///// 10010 21028=
0039010150999992014010821004+69600+017833FM-12+001499999V0209999C999999999999N999999999+00081-00311999999REMSYN03001015 46/// ///// 10008 21031=
0039010150999992014010822004+69600+017833FM-12+001499999V0209999C999999999999N999999999+00051-00381999999REMSYN03001015 46/// ///// 10005 21038=
0039010150999992014010823004+69600+017833FM-12+001499999V0209999C999999999999N999999999+00021-00431999999REMSYN03001015 46/// ///// 10002 21043=
0039010150999992014010900004+69600+017833FM-12+001499999V0209999C999999999999N999999999+00001-00461999999REMSYN03001015 46/// ///// 10000 21046=
0039010150999992014010901004+69600+017833FM-12+001499999V0209999C999999999999N999999999-00031-00501999999REMSYN03001015 46/// ///// 11003 21050=
0039010150999992014010902004+69600+017833FM-12+001499999V0209999C999999999999N999999999-00051-00581999999REMSYN03001015 46/// ///// 11005 21058=
0039010150999992014010903004+69600+017833FM-12+001499999V0209999C999999999999N999999999-00071-00621999999REMSYN03001015 46/// ///// 11007 21062=
0039010150999992014010904004+69600+017833FM-12+001499999V0209999C999999999999N999999999-00081-00631999999REMSYN03001015 46/// ///// 11008 21063=
0039010150999992014010905004+69600+017833FM-12+001499999V0209999C999999999999N999999999-00141-00771999999REMSYN03001015 46/// ///// 11014 21077=
0049010150999992014010906004+69600+017833FM-12+001499999V020999999999999999999999999999+99999+99999999999REMSYN04001015 46/// ///// 11019 21076 333 21019=
0039010150999992014010907004+69600+017833FM-12+001499999V0209999C999999999999N999999999-00211-00831999999REMSYN03001015 46/// ///// 11021 21083=
0039010150999992014010908004+69600+017833FM-12+001499999V0209999C999999999999N999999999-00241-00911999999REMSYN03001015 46/// ///// 11024 21091=
0039010150999992014010909004+69600+017833FM-12+001499999V0209999C999999999999N999999999-00281-00971999999REMSYN03001015 46/// ///// 11028 21097=
0039010150999992014010910004+69600+017833FM-12+001499999V0209999C999999999999N999999999-00281-01061999999REMSYN03001015 46/// ///// 11028 21106=
0039010150999992014010911004+69600+017833FM-12+001499999V0209999C999999999999N999999999-00321-00961999999REMSYN03001015 46/// ///// 11032 21096=
0039010150999992014010912004+69600+017833FM-12+001499999V0209999C999999999999N999999999-00341-01071999999REMSYN03001015 46/// ///// 11034 21107=
0039010150999992014010913004+69600+017833FM-12+001499999V0209999C999999999999N999999999-00341-01101999999REMSYN03001015 46/// ///// 11034 21110=
0039010150999992014010914004+69600+017833FM-12+001499999V0209999C999999999999N999999999-00381-01161999999REMSYN03001015 46/// ///// 11038 21116=
0039010150999992014010915004+69600+017833FM-12+001499999V0209999C999999999999N999999999-00411-01191999999REMSYN03001015 46/// ///// 11041 21119=
0039010150999992014010916004+69600+017833FM-12+001499999V0209999C999999999999N999999999-00441-01211999999REMSYN03001015 46/// ///// 11044 21121=
0039010150999992014010917004+69600+017833FM-12+001499999V0209999C999999999999N999999999-00441-01271999999REMSYN03001015 46/// ///// 11044 21127=
0049010150999992014010918004+69600+017833FM-12+001499999V020999999999999999999999999999+99999+99999999999REMSYN04001015 46/// ///// 11045 21135 333 11018=
0039010150999992014010919004+69600+017833FM-12+001499999V0209999C999999999999N999999999-00451-01231999999REMSYN03001015 46/// ///// 11045 21123=
0039010150999992014010920004+69600+017833FM-12+001499999V0209999C999999999999N999999999-00441-01231999999REMSYN03001015 46/// ///// 11044 21123=
0039010150999992014010921004+69600+017833FM-12+001499999V0209999C999999999999N999999999-00431-01291999999REMSYN03001015 46/// ///// 11043 21129=
0039010150999992014010922004+69600+017833FM-12+001499999V0209999C999999999999N999999999-00521-01121999999REMSYN03001015 46/// ///// 11052 21112=
0039010150999992014010923004+69600+017833FM-12+001499999V0209999C999999999999N999999999-00501-01061999999REMSYN03001015 46/// ///// 11050 21106=
0039010150999992014011000004+69600+017833FM-12+001499999V0209999C999999999999N999999999-00551-01121999999REMSYN03001015 46/// ///// 11055 21112=
0039010150999992014011001004+69600+017833FM-12+001499999V0209999C999999999999N999999999-00571-01141999999REMSYN03001015 46/// ///// 11057 21114=
0039010150999992014011002004+69600+017833FM-12+001499999V0209999C999999999999N999999999-00591-01151999999REMSYN03001015 46/// ///// 11059 21115=
0039010150999992014011003004+69600+017833FM-12+001499999V0209999C999999999999N999999999-00591-01111999999REMSYN03001015 46/// ///// 11059 21111=
0039010150999992014011004004+69600+017833FM-12+001499999V0209999C999999999999N999999999-00591-01101999999REMSYN03001015 46/// ///// 11059 21110=
0039010150999992014011005004+69600+017833FM-12+001499999V0209999C999999999999N999999999-00601-01141999999REMSYN03001015 46/// ///// 11060 21114=
0049010150999992014011006004+69600+017833FM-12+001499999V020999999999999999999999999999+99999+99999999999REMSYN04001015 46/// ///// 11060 21116 333 21062=
0039010150999992014011007004+69600+017833FM-12+001499999V0209999C999999999999N999999999-00491-00991999999REMSYN03001015 46/// ///// 11049 21099=
0039010150999992014011008004+69600+017833FM-12+001499999V0209999C999999999999N999999999-00571-01061999999REMSYN03001015 46/// ///// 11057 21106=
0039010150999992014011009004+69600+017833FM-12+001499999V0209999C999999999999N999999999-00571-01051999999REMSYN03001015 46/// ///// 11057 21105=
0039010150999992014011010004+69600+017833FM-12+001499999V0209999C999999999999N999999999-00611-01061999999REMSYN03001015 46/// ///// 11061 21106=
0039010150999992014011011004+69600+017833FM-12+001499999V0209999C999999999999N999999999-00631-01051999999REMSYN03001015 46/// ///// 11063 21105=
0039010150999992014011012004+69600+017833FM-12+001499999V0209999C999999999999N999999999-00651-01051999999REMSYN03001015 46/// ///// 11065 21105=
0039010150999992014011013004+69600+017833FM-12+001499999V0209999C999999999999N999999999-00651-01061999999REMSYN03001015 46/// ///// 11065 21106=
0039010150999992014011014004+69600+017833FM-12+001499999V0209999C999999999999N999999999-00671-01051999999REMSYN03001015 46/// ///// 11067 21105=
0039010150999992014011015004+69600+017833FM-12+001499999V0209999C999999999999N999999999-00671-01021999999REMSYN03001015 46/// ///// 11067 21102=
0039010150999992014011016004+69600+017833FM-12+001499999V0209999C999999999999N999999999-00661-01011999999REMSYN03001015 46/// ///// 11066 21101=
0039010150999992014011017004+69600+017833FM-12+001499999V0209999C999999999999N999999999-00651-01001999999REMSYN03001015 46/// ///// 11065 21100=
0049010150999992014011018004+69600+017833FM-12+001499999V020999999999999999999999999999+99999+99999999999REMSYN04001015 46/// ///// 11067 21101 333 11048=
0039010150999992014011019004+69600+017833FM-12+001499999V0209999C999999999999N999999999-00671-00981999999REMSYN03001015 46/// ///// 11067 21098=
0039010150999992014011020004+69600+017833FM-12+001499999V0209999C999999999999N999999999-00671-00951999999REMSYN03001015 46/// ///// 11067 21095=
0039010150999992014011021004+69600+017833FM-12+001499999V0209999C999999999999N999999999-00721-01041999999REMSYN03001015 46/// ///// 11072 21104=
0039010150999992014011022004+69600+017833FM-12+001499999V0209999C999999999999N999999999-00731-01101999999REMSYN03001015 46/// ///// 11073 21110=
0039010150999992014011023004+69600+017833FM-12+001499999V0209999C999999999999N999999999-00711-01031999999REMSYN03001015 46/// ///// 11071 21103=
0039010150999992014011100004+69600+017833FM-12+001499999V0209999C999999999999N999999999-00741-01101999999REMSYN03001015 46/// ///// 11074 21110=
0039010150999992014011101004+69600+017833FM-12+001499999V0209999C999999999999N999999999-00711-00991999999REMSYN03001015 46/// ///// 11071 21099=
0039010150999992014011102004+69600+017833FM-12+001499999V0209999C999999999999N999999999-00741-01041999999REMSYN03001015 46/// ///// 11074 21104=
0039010150999992014011103004+69600+017833FM-12+001499999V0209999C999999999999N999999999-00751-01051999999REMSYN03001015 46/// ///// 11075 21105=
0039010150999992014011104004+69600+017833FM-12+001499999V0209999C999999999999N999999999-00731-01031999999REMSYN03001015 46/// ///// 11073 21103=
0039010150999992014011105004+69600+017833FM-12+001499999V0209999C999999999999N999999999-00751-01041999999REMSYN03001015 46/// ///// 11075 21104=
0039010150999992014011109004+69600+017833FM-12+001499999V0209999C999999999999N999999999-00741-01041999999REMSYN03001015 46/// ///// 11074 21104=
0039010150999992014011110004+69600+017833FM-12+001499999V0209999C999999999999N999999999-00741-01031999999REMSYN03001015 46/// ///// 11074 21103=
0039010150999992014011111004+69600+017833FM-12+001499999V0209999C999999999999N999999999-00751-01041999999REMSYN03001015 46/// ///// 11075 21104=
0039010150999992014011112004+69600+017833FM-12+001499999V0209999C999999999999N999999999-00731-01011999999REMSYN03001015 46/// ///// 11073 21101=
0039010150999992014011113004+69600+017833FM-12+001499999V0209999C999999999999N999999999-00731-01001999999REMSYN03001015 46/// ///// 11073 21100=
0039010150999992014011114004+69600+017833FM-12+001499999V0209999C999999999999N999999999-00721-01011999999REMSYN03001015 46/// ///// 11072 21101=
0039010150999992014011115004+69600+017833FM-12+001499999V0209999C999999999999N999999999-00731-01011999999REMSYN03001015 46/// ///// 11073 21101=
0039010150999992014011116004+69600+017833FM-12+001499999V0209999C999999999999N999999999-00711-01001999999REMSYN03001015 46/// ///// 11071 21100=
0039010150999992014011117004+69600+017833FM-12+001499999V0209999C999999999999N999999999-00751-01051999999REMSYN03001015 46/// ///// 11075 21105=
0039010150999992014011118004+69600+017833FM-12+001499999V0209999C999999999999N999999999-00731-01041999999REMSYN03001015 46/// ///// 11073 21104=
0039010150999992014011119004+69600+017833FM-12+001499999V0209999C999999999999N999999999-00711-00991999999REMSYN03001015 46/// ///// 11071 21099=
0039010150999992014011120004+69600+017833FM-12+001499999V0209999C999999999999N999999999-00711-00981999999REMSYN03001015 46/// ///// 11071 21098=
0039010150999992014011121004+69600+017833FM-12+001499999V0209999C999999999999N999999999-00701-00971999999REMSYN03001015 46/// ///// 11070 21097=
0039010150999992014011122004+69600+017833FM-12+001499999V0209999C999999999999N999999999-00711-00951999999REMSYN03001015 46/// ///// 11071 21095=
0039010150999992014011123004+69600+017833FM-12+001499999V0209999C999999999999N999999999-00691-00941999999REMSYN03001015 46/// ///// 11069 21094=
0039010150999992014011200004+69600+017833FM-12+001499999V0209999C999999999999N999999999-00681-00911999999REMSYN03001015 46/// ///// 11068 21091=
0039010150999992014011201004+69600+017833FM-12+001499999V0209999C999999999999N999999999-00701-00901999999REMSYN03001015 46/// ///// 11070 21090=
0039010150999992014011202004+69600+017833FM-12+001499999V0209999C999999999999N999999999-00711-00891999999REMSYN03001015 46/// ///// 11071 21089=
0039010150999992014011203004+69600+017833FM-12+001499999V0209999C999999999999N999999999-00711-00901999999REMSYN03001015 46/// ///// 11071 21090=
0039010150999992014011204004+69600+017833FM-12+001499999V0209999C999999999999N999999999-00681-00871999999REMSYN03001015 46/// ///// 11068 21087=
0039010150999992014011205004+69600+017833FM-12+001499999V0209999C999999999999N999999999-00681-00861999999REMSYN03001015 46/// ///// 11068 21086=
0049010150999992014011206004+69600+017833FM-12+001499999V020999999999999999999999999999+99999+99999999999REMSYN04001015 46/// ///// 11068 21087 333 21074=
0039010150999992014011207004+69600+017833FM-12+001499999V0209999C999999999999N999999999-00671-00841999999REMSYN03001015 46/// ///// 11067 21084=
0039010150999992014011208004+69600+017833FM-12+001499999V0209999C999999999999N999999999-00701-00861999999REMSYN03001015 46/// ///// 11070 21086=
0039010150999992014011209004+69600+017833FM-12+001499999V0209999C999999999999N999999999-00711-00861999999REMSYN03001015 46/// ///// 11071 21086=
0039010150999992014011210004+69600+017833FM-12+001499999V0209999C999999999999N999999999-00661-00821999999REMSYN03001015 46/// ///// 11066 21082=
0039010150999992014011211004+69600+017833FM-12+001499999V0209999C999999999999N999999999-00681-00831999999REMSYN03001015 46/// ///// 11068 21083=
0039010150999992014011212004+69600+017833FM-12+001499999V0209999C999999999999N999999999-00741-00871999999REMSYN03001015 46/// ///// 11074 21087=
0039010150999992014011213004+69600+017833FM-12+001499999V0209999C999999999999N999999999-00751-00881999999REMSYN03001015 46/// ///// 11075 21088=
0039010150999992014011214004+69600+017833FM-12+001499999V0209999C999999999999N999999999-00671-00831999999REMSYN03001015 46/// ///// 11067 21083=
0039010150999992014011215004+69600+017833FM-12+001499999V0209999C999999999999N999999999-00661-00851999999REMSYN03001015 46/// ///// 11066 21085=
0039010150999992014011216004+69600+017833FM-12+001499999V0209999C999999999999N999999999-00661-00881999999REMSYN03001015 46/// ///// 11066 21088=
0039010150999992014011217004+69600+017833FM-12+001499999V0209999C999999999999N999999999-00601-00851999999REMSYN03001015 46/// ///// 11060 21085=
0049010150999992014011218004+69600+017833FM-12+001499999V020999999999999999999999999999+99999+99999999999REMSYN04001015 46/// ///// 11062 21085 333 11059=
0039010150999992014011219004+69600+017833FM-12+001499999V0209999C999999999999N999999999-00611-00801999999REMSYN03001015 46/// ///// 11061 21080=
0039010150999992014011220004+69600+017833FM-12+001499999V0209999C999999999999N999999999-00611-00791999999REMSYN03001015 46/// ///// 11061 21079=
0039010150999992014011221004+69600+017833FM-12+001499999V0209999C999999999999N999999999-00591-00761999999REMSYN03001015 46/// ///// 11059 21076=
0039010150999992014011222004+69600+017833FM-12+001499999V0209999C999999999999N999999999-00581-00771999999REMSYN03001015 46/// ///// 11058 21077=
0039010150999992014011223004+69600+017833FM-12+001499999V0209999C999999999999N999999999-00551-00741999999REMSYN03001015 46/// ///// 11055 21074=
0039010150999992014011300004+69600+017833FM-12+001499999V0209999C999999999999N999999999-00531-00741999999REMSYN03001015 46/// ///// 11053 21074=
0039010150999992014011301004+69600+017833FM-12+001499999V0209999C999999999999N999999999-00511-00711999999REMSYN03001015 46/// ///// 11051 21071=
0039010150999992014011302004+69600+017833FM-12+001499999V0209999C999999999999N999999999-00461-00651999999REMSYN03001015 46/// ///// 11046 21065=
0039010150999992014011303004+69600+017833FM-12+001499999V0209999C999999999999N999999999-00451-00621999999REMSYN03001015 46/// ///// 11045 21062=
0039010150999992014011304004+69600+017833FM-12+001499999V0209999C999999999999N999999999-00441-00611999999REMSYN03001015 46/// ///// 11044 21061=
0039010150999992014011305004+69600+017833FM-12+001499999V0209999C999999999999N999999999-00421-00601999999REMSYN03001015 46/// ///// 11042 21060=
0049010150999992014011306004+69600+017833FM-12+001499999V020999999999999999999999999999+99999+99999999999REMSYN04001015 46/// ///// 11038 21057 333 21063=
0039010150999992014011307004+69600+017833FM-12+001499999V0209999C999999999999N999999999-00361-00561999999REMSYN03001015 46/// ///// 11036 21056=
0039010150999992014011308004+69600+017833FM-12+001499999V0209999C999999999999N999999999-00321-00521999999REMSYN03001015 46/// ///// 11032 21052=
0039010150999992014011309004+69600+017833FM-12+001499999V0209999C999999999999N999999999-00301-00491999999REMSYN03001015 46/// ///// 11030 21049=
0039010150999992014011310004+69600+017833FM-12+001499999V0209999C999999999999N999999999-00271-00461999999REMSYN03001015 46/// ///// 11027 21046=
0039010150999992014011311004+69600+017833FM-12+001499999V0209999C999999999999N999999999-00271-00481999999REMSYN03001015 46/// ///// 11027 21048=
0039010150999992014011312004+69600+017833FM-12+001499999V0209999C999999999999N999999999-00271-00471999999REMSYN03001015 46/// ///// 11027 21047=
0039010150999992014011313004+69600+017833FM-12+001499999V0209999C999999999999N999999999-00281-00471999999REMSYN03001015 46/// ///// 11028 21047=
0039010150999992014011314004+69600+017833FM-12+001499999V0209999C999999999999N999999999-00281-00461999999REMSYN03001015 46/// ///// 11028 21046=
0039010150999992014011315004+69600+017833FM-12+001499999V0209999C999999999999N999999999-00301-00461999999REMSYN03001015 46/// ///// 11030 21046=
0039010150999992014011316004+69600+017833FM-12+001499999V0209999C999999999999N999999999-00331-00491999999REMSYN03001015 46/// ///// 11033 21049=
0039010150999992014011317004+69600+017833FM-12+001499999V0209999C999999999999N999999999-00381-00531999999REMSYN03001015 46/// ///// 11038 21053=
0049010150999992014011318004+69600+017833FM-12+001499999V020999999999999999999999999999+99999+99999999999REMSYN04001015 46/// ///// 11038 21054 333 11026=
0039010150999992014011319004+69600+017833FM-12+001499999V0209999C999999999999N999999999-00381-00531999999REMSYN03001015 46/// ///// 11038 21053=
0039010150999992014011320004+69600+017833FM-12+001499999V0209999C999999999999N999999999-00381-00541999999REMSYN03001015 46/// ///// 11038 21054=
0039010150999992014011321004+69600+017833FM-12+001499999V0209999C999999999999N999999999-00391-00581999999REMSYN03001015 46/// ///// 11039 21058=
0039010150999992014011322004+69600+017833FM-12+001499999V0209999C999999999999N999999999-00401-00611999999REMSYN03001015 46/// ///// 11040 21061=
0039010150999992014011323004+69600+017833FM-12+001499999V0209999C999999999999N999999999-00431-00641999999REMSYN03001015 46/// ///// 11043 21064=
0039010150999992014011400004+69600+017833FM-12+001499999V0209999C999999999999N999999999-00431-00651999999REMSYN03001015 46/// ///// 11043 21065=
0039010150999992014011401004+69600+017833FM-12+001499999V0209999C999999999999N999999999-00431-00671999999REMSYN03001015 46/// ///// 11043 21067=
0039010150999992014011402004+69600+017833FM-12+001499999V0209999C999999999999N999999999-00441-00701999999REMSYN03001015 46/// ///// 11044 21070=
0039010150999992014011403004+69600+017833FM-12+001499999V0209999C999999999999N999999999-00481-00741999999REMSYN03001015 46/// ///// 11048 21074=
0039010150999992014011404004+69600+017833FM-12+001499999V0209999C999999999999N999999999-00481-00731999999REMSYN03001015 46/// ///// 11048 21073=
0039010150999992014011405004+69600+017833FM-12+001499999V0209999C999999999999N999999999-00511-00741999999REMSYN03001015 46/// ///// 11051 21074=
0049010150999992014011406004+69600+017833FM-12+001499999V020999999999999999999999999999+99999+99999999999REMSYN04001015 46/// ///// 11052 21074 333 21053=
0039010150999992014011407004+69600+017833FM-12+001499999V0209999C999999999999N999999999-00521-00741999999REMSYN03001015 46/// ///// 11052 21074=
0039010150999992014011408004+69600+017833FM-12+001499999V0209999C999999999999N999999999-00541-00761999999REMSYN03001015 46/// ///// 11054 21076=
0039010150999992014011409004+69600+017833FM-12+001499999V0209999C999999999999N999999999-00511-00721999999REMSYN03001015 46/// ///// 11051 21072=
0039010150999992014011410004+69600+017833FM-12+001499999V0209999C999999999999N999999999-00561-00811999999REMSYN03001015 46/// ///// 11056 21081=
0039010150999992014011411004+69600+017833FM-12+001499999V0209999C999999999999N999999999-00591-00841999999REMSYN03001015 46/// ///// 11059 21084=
0039010150999992014011412004+69600+017833FM-12+001499999V0209999C999999999999N999999999-00591-00851999999REMSYN03001015 46/// ///// 11059 21085=
0039010150999992014011413004+69600+017833FM-12+001499999V0209999C999999999999N999999999-00651-00871999999REMSYN03001015 46/// ///// 11065 21087=
0039010150999992014011414004+69600+017833FM-12+001499999V0201601N010019999999N999999999-00621-00831999999REMSYN03001015 46/// /1610 11062 21083=
0039010150999992014011415004+69600+017833FM-12+001499999V0201601N010019999999N999999999-00631-00881999999REMSYN03001015 46/// /1610 11063 21088=
0039010150999992014011416004+69600+017833FM-12+001499999V0201601N009019999999N999999999-00641-00891999999REMSYN03001015 46/// /1609 11064 21089=
0049010150999992014011418004+69600+017833FM-12+001499999V020999999999999999999999999999+99999+99999999999REMSYN04001015 46/// /1609 11063 21085 333 11051=
0039010150999992014011419004+69600+017833FM-12+001499999V0201601N010019999999N999999999-00661-00921999999REMSYN03001015 46/// /1610 11066 21092=
0039010150999992014011420004+69600+017833FM-12+001499999V0201601N009019999999N999999999-00601-00811999999REMSYN03001015 46/// /1609 11060 21081=
0039010150999992014011421004+69600+017833FM-12+001499999V0201601N008019999999N999999999-00611-00811999999REMSYN03001015 46/// /1608 11061 21081=
0039010150999992014011422004+69600+017833FM-12+001499999V0201601N009019999999N999999999-00581-00791999999REMSYN03001015 46/// /1609 11058 21079=
0039010150999992014011423004+69600+017833FM-12+001499999V0201501N009019999999N999999999-00531-00721999999REMSYN03001015 46/// /1509 11053 21072=
0049010150999992014011500004+69600+017833FM-12+001499999V020999999999999999999999999999+99999+99999999999REMSYN04001015 46/// /1608 11060 21076 333 91111=
0039010150999992014011501004+69600+017833FM-12+001499999V0201601N008019999999N999999999-00551-00731999999REMSYN03001015 46/// /1608 11055 21073=
0039010150999992014011502004+69600+017833FM-12+001499999V0201601N006019999999N999999999-00541-00731999999REMSYN03001015 46/// /1606 11054 21073=
0039010150999992014011503004+69600+017833FM-12+001499999V0201701N006019999999N999999999-00561-00821999999REMSYN03001015 46/// /1706 11056 21082=
0039010150999992014011504004+69600+017833FM-12+001499999V0201701N006019999999N999999999-00541-00711999999REMSYN03001015 46/// /1706 11054 21071=
0039010150999992014011505004+69600+017833FM-12+001499999V0201701N005019999999N999999999-00521-00711999999REMSYN03001015 46/// /1705 11052 21071=
0055010150999992014011506004+69600+017833FM-12+001499999V020999999999999999999999999999+99999+99999999999REMSYN04601015 46/// /1607 11044 21061 333 21067 91110=
0039010150999992014011507004+69600+017833FM-12+001499999V0201701N006019999999N999999999-00431-00691999999REMSYN03001015 46/// /1706 11043 21069=
0039010150999992014011508004+69600+017833FM-12+001499999V0201701N005019999999N999999999-00401-00691999999REMSYN03001015 46/// /1705 11040 21069=
0039010150999992014011509004+69600+017833FM-12+001499999V0201601N007019999999N999999999-00331-00651999999REMSYN03001015 46/// /1607 11033 21065=
0039010150999992014011510004+69600+017833FM-12+001499999V0201601N009019999999N999999999-00271-00661999999REMSYN03001015 46/// /1609 11027 21066=
0039010150999992014011511004+69600+017833FM-12+001499999V0201701N005019999999N999999999-00351-00721999999REMSYN03001015 46/// /1705 11035 21072=
0049010150999992014011512004+69600+017833FM-12+001499999V020999999999999999999999999999+99999+99999999999REMSYN04001015 46/// /1704 11036 21084 333 91113=
0039010150999992014011513004+69600+017833FM-12+001499999V0201701N006019999999N999999999-00331-00811999999REMSYN03001015 46/// /1706 11033 21081=
0039010150999992014011514004+69600+017833FM-12+001499999V0201701N006019999999N999999999-00321-00711999999REMSYN03001015 46/// /1706 11032 21071=
0039010150999992014011515004+69600+017833FM-12+001499999V0201701N008019999999N999999999-00351-00781999999REMSYN03001015 46/// /1708 11035 21078=
0039010150999992014011516004+69600+017833FM-12+001499999V0201701N007019999999N999999999-00381-00821999999REMSYN03001015 46/// /1707 11038 21082=
0039010150999992014011517004+69600+017833FM-12+001499999V0201701N007019999999N999999999-00391-00871999999REMSYN03001015 46/// /1707 11039 21087=
0055010150999992014011518004+69600+017833FM-12+001499999V020999999999999999999999999999+99999+99999999999REMSYN04601015 46/// /1706 11040 21093 333 11027 91110=
0039010150999992014011519004+69600+017833FM-12+001499999V0201701N006019999999N999999999-00421-00941999999REMSYN03001015 46/// /1706 11042 21094=
0039010150999992014011520004+69600+017833FM-12+001499999V0201701N006019999999N999999999-00421-00931999999REMSYN03001015 46/// /1706 11042 21093=
0039010150999992014011521004+69600+017833FM-12+001499999V0201701N007019999999N999999999-00411-00881999999REMSYN03001015 46/// /1707 11041 21088=
0039010150999992014011522004+69600+017833FM-12+001499999V0201701N009019999999N999999999-00371-00801999999REMSYN03001015 46/// /1709 11037 21080=
0039010150999992014011523004+69600+017833FM-12+001499999V0201801N007019999999N999999999-00401-00831999999REMSYN03001015 46/// /1807 11040 21083=
0049010150999992014011600004+69600+017833FM-12+001499999V020999999999999999999999999999+99999+99999999999REMSYN04001015 46/// /1708 11042 21084 333 91114=
0039010150999992014011601004+69600+017833FM-12+001499999V0201701N007019999999N999999999-00461-01001999999REMSYN03001015 46/// /1707 11046 21100=
0039010150999992014011602004+69600+017833FM-12+001499999V0201701N006019999999N999999999-00491-00971999999REMSYN03001015 46/// /1706 11049 21097=
0039010150999992014011603004+69600+017833FM-12+001499999V0201701N007019999999N999999999-00481-00981999999REMSYN03001015 46/// /1707 11048 21098=
0039010150999992014011604004+69600+017833FM-12+001499999V0201701N007019999999N999999999-00491-01081999999REMSYN03001015 46/// /1707 11049 21108=
0039010150999992014011605004+69600+017833FM-12+001499999V0201601N009019999999N999999999-00481-01091999999REMSYN03001015 46/// /1609 11048 21109=
0055010150999992014011606004+69600+017833FM-12+001499999V020999999999999999999999999999+99999+99999999999REMSYN04601015 46/// /1607 11048 21107 333 21050 91115=
0039010150999992014011607004+69600+017833FM-12+001499999V0201601N007019999999N999999999-00511-01131999999REMSYN03001015 46/// /1607 11051 21113=
0039010150999992014011608004+69600+017833FM-12+001499999V0201701N008019999999N999999999-00491-01161999999REMSYN03001015 46/// /1708 11049 21116=
0039010150999992014011609004+69600+017833FM-12+001499999V0201701N009019999999N999999999-00501-01101999999REMSYN03001015 46/// /1709 11050 21110=
0039010150999992014011610004+69600+017833FM-12+001499999V0201701N010019999999N999999999-00501-01141999999REMSYN03001015 46/// /1710 11050 21114=
0039010150999992014011611004+69600+017833FM-12+001499999V0201701N009019999999N999999999-00511-01191999999REMSYN03001015 46/// /1709 11051 21119=
0049010150999992014011612004+69600+017833FM-12+001499999V020999999999999999999999999999+99999+99999999999REMSYN04001015 46/// /1712 11048 21122 333 91116=
0039010150999992014011613004+69600+017833FM-12+001499999V0201701N009019999999N999999999-00491-01251999999REMSYN03001015 46/// /1709 11049 21125=
0039010150999992014011614004+69600+017833FM-12+001499999V0201701N009019999999N999999999-00491-01321999999REMSYN03001015 46/// /1709 11049 21132=
0039010150999992014011615004+69600+017833FM-12+001499999V0201701N008019999999N999999999-00521-01371999999REMSYN03001015 46/// /1708 11052 21137=
0039010150999992014011616004+69600+017833FM-12+001499999V0201701N007019999999N999999999-00531-01261999999REMSYN03001015 46/// /1707 11053 21126=
0039010150999992014011617004+69600+017833FM-12+001499999V0201701N008019999999N999999999-00521-01401999999REMSYN03001015 46/// /1708 11052 21140=
0055010150999992014011618004+69600+017833FM-12+001499999V020999999999999999999999999999+99999+99999999999REMSYN04601015 46/// /1608 11053 21137 333 11048 91115=
0039010150999992014011619004+69600+017833FM-12+001499999V0201601N006019999999N999999999-00551-01361999999REMSYN03001015 46/// /1606 11055 21136=
0039010150999992014011620004+69600+017833FM-12+001499999V0201701N010019999999N999999999-00521-01491999999REMSYN03001015 46/// /1710 11052 21149=
0039010150999992014011621004+69600+017833FM-12+001499999V0201701N010019999999N999999999-00531-01451999999REMSYN03001015 46/// /1710 11053 21145=
0039010150999992014011622004+69600+017833FM-12+001499999V0201701N012019999999N999999999-00521-01441999999REMSYN03001015 46/// /1712 11052 21144=
0039010150999992014011623004+69600+017833FM-12+001499999V0201701N011019999999N999999999-00491-01311999999REMSYN03001015 46/// /1711 11049 21131=
0049010150999992014011700004+69600+017833FM-12+001499999V020999999999999999999999999999+99999+99999999999REMSYN04001015 46/// /1711 11049 21119 333 91116=
0039010150999992014011701004+69600+017833FM-12+001499999V0201701N010019999999N999999999-00481-01181999999REMSYN03001015 46/// /1710 11048 21118=
0039010150999992014011702004+69600+017833FM-12+001499999V0201601N011019999999N999999999-00491-01241999999REMSYN03001015 46/// /1611 11049 21124=
0039010150999992014011703004+69600+017833FM-12+001499999V0201701N012019999999N999999999-00501-01241999999REMSYN03001015 46/// /1712 11050 21124=
0039010150999992014011704004+69600+017833FM-12+001499999V0201701N009019999999N999999999-00491-01381999999REMSYN03001015 46/// /1709 11049 21138=
0039010150999992014011705004+69600+017833FM-12+001499999V0201701N008019999999N999999999-00531-01381999999REMSYN03001015 46/// /1708 11053 21138=
0055010150999992014011706004+69600+017833FM-12+001499999V020999999999999999999999999999+99999+99999999999REMSYN04601015 46/// /1711 11053 21142 333 21056 91116=
0039010150999992014011707004+69600+017833FM-12+001499999V0201701N010019999999N999999999-00511-01321999999REMSYN03001015 46/// /1710 11051 21132=
0039010150999992014011708004+69600+017833FM-12+001499999V0201701N011019999999N999999999-00531-01271999999REMSYN03001015 46/// /1711 11053 21127=
0039010150999992014011709004+69600+017833FM-12+001499999V0201701N010019999999N999999999-00561-01331999999REMSYN03001015 46/// /1710 11056 21133=
0039010150999992014011710004+69600+017833FM-12+001499999V0201701N009019999999N999999999-00561-01351999999REMSYN03001015 46/// /1709 11056 21135=
0039010150999992014011711004+69600+017833FM-12+001499999V0201701N009019999999N999999999-00551-01441999999REMSYN03001015 46/// /1709 11055 21144=
0049010150999992014011712004+69600+017833FM-12+001499999V020999999999999999999999999999+99999+99999999999REMSYN04001015 46/// /1708 11053 21142 333 91117=
0039010150999992014011713004+69600+017833FM-12+001499999V0201701N009019999999N999999999-00551-01411999999REMSYN03001015 46/// /1709 11055 21141=
0039010150999992014011714004+69600+017833FM-12+001499999V0201601N008019999999N999999999-00521-01381999999REMSYN03001015 46/// /1608 11052 21138=
0039010150999992014011715004+69600+017833FM-12+001499999V0201601N009019999999N999999999-00501-01421999999REMSYN03001015 46/// /1609 11050 21142=
0039010150999992014011716004+69600+017833FM-12+001499999V0201601N008019999999N999999999-00551-01291999999REMSYN03001015 46/// /1608 11055 21129=
0039010150999992014011717004+69600+017833FM-12+001499999V0201601N009019999999N999999999-00491-01221999999REMSYN03001015 46/// /1609 11049 21122=
0055010150999992014011718004+69600+017833FM-12+001499999V020999999999999999999999999999+99999+99999999999REMSYN04601015 46/// /1610 11053 21135 333 11046 91115=
0039010150999992014011719004+69600+017833FM-12+001499999V0201601N011019999999N999999999-00461-01421999999REMSYN03001015 46/// /1611 11046 21142=
0039010150999992014011720004+69600+017833FM-12+001499999V0201601N011019999999N999999999-00471-01261999999REMSYN03001015 46/// /1611 11047 21126=
0039010150999992014011721004+69600+017833FM-12+001499999V0201601N009019999999N999999999-00491-01221999999REMSYN03001015 46/// /1609 11049 21122=
0039010150999992014011722004+69600+017833FM-12+001499999V0201601N010019999999N999999999-00481-01191999999REMSYN03001015 46/// /1610 11048 21119=
0039010150999992014011723004+69600+017833FM-12+001499999V0201601N011019999999N999999999-00521-01301999999REMSYN03001015 46/// /1611 11052 21130=
0049010150999992014011800004+69600+017833FM-12+001499999V020999999999999999999999999999+99999+99999999999REMSYN04001015 46/// /1709 11052 21133 333 91115=
0039010150999992014011801004+69600+017833FM-12+001499999V0201601N009019999999N999999999-00511-01241999999REMSYN03001015 46/// /1609 11051 21124=
0039010150999992014011802004+69600+017833FM-12+001499999V0201601N011019999999N999999999-00511-01231999999REMSYN03001015 46/// /1611 11051 21123=
0039010150999992014011803004+69600+017833FM-12+001499999V0201601N010019999999N999999999-00521-01351999999REMSYN03001015 46/// /1610 11052 21135=
0039010150999992014011804004+69600+017833FM-12+001499999V0201601N010019999999N999999999-00511-01271999999REMSYN03001015 46/// /1610 11051 21127=
0039010150999992014011805004+69600+017833FM-12+001499999V0201601N009019999999N999999999-00521-01191999999REMSYN03001015 46/// /1609 11052 21119=
0055010150999992014011806004+69600+017833FM-12+001499999V020999999999999999999999999999+99999+99999999999REMSYN04601015 46/// /1610 11050 21110 333 21053 91114=
0039010150999992014011807004+69600+017833FM-12+001499999V0201601N010019999999N999999999-00551-01011999999REMSYN03001015 46/// /1610 11055 21101=
0039010150999992014011808004+69600+017833FM-12+001499999V0201601N012019999999N999999999-00521-01101999999REMSYN03001015 46/// /1612 11052 21110=
0039010150999992014011809004+69600+017833FM-12+001499999V0201601N010019999999N999999999-00561-01171999999REMSYN03001015 46/// /1610 11056 21117=
0039010150999992014011810004+69600+017833FM-12+001499999V0201601N010019999999N999999999-00551-01251999999REMSYN03001015 46/// /1610 11055 21125=
0039010150999992014011811004+69600+017833FM-12+001499999V0201601N010019999999N999999999-00551-01181999999REMSYN03001015 46/// /1610 11055 21118=
0049010150999992014011812004+69600+017833FM-12+001499999V020999999999999999999999999999+99999+99999999999REMSYN04001015 46/// /1611 11056 21134 333 91113=
0039010150999992014011813004+69600+017833FM-12+001499999V0201601N011019999999N999999999-00551-01311999999REMSYN03001015 46/// /1611 11055 21131=
0039010150999992014011814004+69600+017833FM-12+001499999V0201601N010019999999N999999999-00541-01381999999REMSYN03001015 46/// /1610 11054 21138=
0039010150999992014011815004+69600+017833FM-12+001499999V0201601N011019999999N999999999-00551-01321999999REMSYN03001015 46/// /1611 11055 21132=
0039010150999992014011816004+69600+017833FM-12+001499999V0201601N011019999999N999999999-00541-01271999999REMSYN03001015 46/// /1611 11054 21127=
0039010150999992014011817004+69600+017833FM-12+001499999V0201601N012019999999N999999999-00551-01281999999REMSYN03001015 46/// /1612 11055 21128=
0055010150999992014011818004+69600+017833FM-12+001499999V020999999999999999999999999999+99999+99999999999REMSYN04601015 46/// /1611 11053 21108 333 11050 91115=
0039010150999992014011819004+69600+017833FM-12+001499999V0201601N011019999999N999999999-00571-01181999999REMSYN03001015 46/// /1611 11057 21118=
0039010150999992014011820004+69600+017833FM-12+001499999V0201601N012019999999N999999999-00541-00941999999REMSYN03001015 46/// /1612 11054 21094=
0039010150999992014011821004+69600+017833FM-12+001499999V0201601N011019999999N999999999-00571-01081999999REMSYN03001015 46/// /1611 11057 21108=
0039010150999992014011822004+69600+017833FM-12+001499999V0201601N012019999999N999999999-00551-01021999999REMSYN03001015 46/// /1612 11055 21102=
0039010150999992014011823004+69600+017833FM-12+001499999V0201601N012019999999N999999999-00531-01021999999REMSYN03001015 46/// /1612 11053 21102=
0049010150999992014011900004+69600+017833FM-12+001499999V020999999999999999999999999999+99999+99999999999REMSYN04001015 46/// /1612 11057 21110 333 91115=
0039010150999992014011901004+69600+017833FM-12+001499999V0201601N011019999999N999999999-00571-01041999999REMSYN03001015 46/// /1611 11057 21104=
0039010150999992014011902004+69600+017833FM-12+001499999V0201601N009019999999N999999999-00581-01011999999REMSYN03001015 46/// /1609 11058 21101=
0039010150999992014011903004+69600+017833FM-12+001499999V0201601N010019999999N999999999-00581-01061999999REMSYN03001015 46/// /1610 11058 21106=
0039010150999992014011904004+69600+017833FM-12+001499999V0201601N009019999999N999999999-00581-01011999999REMSYN03001015 46/// /1609 11058 21101=
0039010150999992014011905004+69600+017833FM-12+001499999V0201601N008019999999N999999999-00571-01011999999REMSYN03001015 46/// /1608 11057 21101=
0055010150999992014011906004+69600+017833FM-12+001499999V020999999999999999999999999999+99999+99999999999REMSYN04601015 46/// /1610 11059 21099 333 21060 91114=
0039010150999992014011907004+69600+017833FM-12+001499999V0201601N009019999999N999999999-00581-01011999999REMSYN03001015 46/// /1609 11058 21101=
0039010150999992014011908004+69600+017833FM-12+001499999V0201601N010019999999N999999999-00631-01131999999REMSYN03001015 46/// /1610 11063 21113=
0039010150999992014011909004+69600+017833FM-12+001499999V0201601N009019999999N999999999-00611-01031999999REMSYN03001015 46/// /1609 11061 21103=
0039010150999992014011910004+69600+017833FM-12+001499999V0201601N010019999999N999999999-00611-00961999999REMSYN03001015 46/// /1610 11061 21096=
0039010150999992014011911004+69600+017833FM-12+001499999V0201601N009019999999N999999999-00611-00941999999REMSYN03001015 46/// /1609 11061 21094=
0049010150999992014011912004+69600+017833FM-12+001499999V020999999999999999999999999999+99999+99999999999REMSYN04001015 46/// /1609 11060 21098 333 91113=
0039010150999992014011913004+69600+017833FM-12+001499999V0201601N008019999999N999999999-00581-00981999999REMSYN03001015 46/// /1608 11058 21098=
0039010150999992014011914004+69600+017833FM-12+001499999V0201601N007019999999N999999999-00581-01091999999REMSYN03001015 46/// /1607 11058 21109=
0039010150999992014011915004+69600+017833FM-12+001499999V0201601N008019999999N999999999-00581-01051999999REMSYN03001015 46/// /1608 11058 21105=
0039010150999992014011916004+69600+017833FM-12+001499999V0201601N008019999999N999999999-00601-01041999999REMSYN03001015 46/// /1608 11060 21104=
0039010150999992014011917004+69600+017833FM-12+001499999V0201601N008019999999N999999999-00621-01011999999REMSYN03001015 46/// /1608 11062 21101=
0055010150999992014011918004+69600+017833FM-12+001499999V020999999999999999999999999999+99999+99999999999REMSYN04601015 46/// /1608 11061 21102 333 11055 91111=
0039010150999992014011919004+69600+017833FM-12+001499999V0201601N008019999999N999999999-00631-01031999999REMSYN03001015 46/// /1608 11063 21103=
0039010150999992014011920004+69600+017833FM-12+001499999V0201601N009019999999N999999999-00611-00981999999REMSYN03001015 46/// /1609 11061 21098=
0039010150999992014011921004+69600+017833FM-12+001499999V0201601N007019999999N999999999-00601-00921999999REMSYN03001015 46/// /1607 11060 21092=
0039010150999992014011922004+69600+017833FM-12+001499999V0201601N008019999999N999999999-00611-00981999999REMSYN03001015 46/// /1608 11061 21098=
0039010150999992014011923004+69600+017833FM-12+001499999V0201601N008019999999N999999999-00591-00931999999REMSYN03001015 46/// /1608 11059 21093=
0049010150999992014012000004+69600+017833FM-12+001499999V020999999999999999999999999999+99999+99999999999REMSYN04001015 46/// /1609 11064 21106 333 91111=
0039010150999992014012001004+69600+017833FM-12+001499999V0201601N008019999999N999999999-00611-01031999999REMSYN03001015 46/// /1608 11061 21103=
0039010150999992014012002004+69600+017833FM-12+001499999V0201601N009019999999N999999999-00591-00961999999REMSYN03001015 46/// /1609 11059 21096=
0039010150999992014012003004+69600+017833FM-12+001499999V0201601N008019999999N999999999-00571-01061999999REMSYN03001015 46/// /1608 11057 21106=
0039010150999992014012004004+69600+017833FM-12+001499999V0201601N008019999999N999999999-00581-00981999999REMSYN03001015 46/// /1608 11058 21098=
0039010150999992014012005004+69600+017833FM-12+001499999V0201601N008019999999N999999999-00551-01041999999REMSYN03001015 46/// /1608 11055 21104=
0055010150999992014012006004+69600+017833FM-12+001499999V020999999999999999999999999999+99999+99999999999REMSYN04601015 46/// /1610 11056 21100 333 21065 91112=
0039010150999992014012007004+69600+017833FM-12+001499999V0201601N010019999999N999999999-00541-00901999999REMSYN03001015 46/// /1610 11054 21090=
0039010150999992014012008004+69600+017833FM-12+001499999V0201601N008019999999N999999999-00521-00831999999REMSYN03001015 46/// /1608 11052 21083=
0039010150999992014012009004+69600+017833FM-12+001499999V0201601N009019999999N999999999-00501-00871999999REMSYN03001015 46/// /1609 11050 21087=
0039010150999992014012010004+69600+017833FM-12+001499999V0201601N009019999999N999999999-00481-00791999999REMSYN03001015 46/// /1609 11048 21079=
0039010150999992014012011004+69600+017833FM-12+001499999V0201601N009019999999N999999999-00451-00751999999REMSYN03001015 46/// /1609 11045 21075=
0049010150999992014012012004+69600+017833FM-12+001499999V020999999999999999999999999999+99999+99999999999REMSYN04001015 46/// /1609 11042 21069 333 91112=
0039010150999992014012013004+69600+017833FM-12+001499999V0201601N009019999999N999999999-00401-00671999999REMSYN03001015 46/// /1609 11040 21067=
0039010150999992014012014004+69600+017833FM-12+001499999V0201601N007019999999N999999999-00391-00651999999REMSYN03001015 46/// /1607 11039 21065=
0039010150999992014012015004+69600+017833FM-12+001499999V0201601N007019999999N999999999-00391-00631999999REMSYN03001015 46/// /1607 11039 21063=
0039010150999992014012016004+69600+017833FM-12+001499999V0201601N009019999999N999999999-00441-00641999999REMSYN03001015 46/// /1609 11044 21064=
0039010150999992014012017004+69600+017833FM-12+001499999V0201601N009019999999N999999999-00461-00651999999REMSYN03001015 46/// /1609 11046 21065=
0055010150999992014012018004+69600+017833FM-12+001499999V020999999999999999999999999999+99999+99999999999REMSYN04601015 46/// /1610 11046 21065 333 11039 91112=
0039010150999992014012019004+69600+017833FM-12+001499999V0201601N010019999999N999999999-00441-00611999999REMSYN03001015 46/// /1610 11044 21061=
0039010150999992014012020004+69600+017833FM-12+001499999V0201601N010019999999N999999999-00431-00611999999REMSYN03001015 46/// /1610 11043 21061=
0039010150999992014012021004+69600+017833FM-12+001499999V0201601N009019999999N999999999-00461-00621999999REMSYN03001015 46/// /1609 11046 21062=
0039010150999992014012022004+69600+017833FM-12+001499999V0201601N009019999999N999999999-00461-00631999999REMSYN03001015 46/// /1609 11046 21063=
0039010150999992014012023004+69600+017833FM-12+001499999V0201601N009019999999N999999999-00451-00651999999REMSYN03001015 46/// /1609 11045 21065=
0049010150999992014012100004+69600+017833FM-12+001499999V020999999999999999999999999999+99999+99999999999REMSYN04001015 46/// /1708 11042 21073 333 91112=
0039010150999992014012101004+69600+017833FM-12+001499999V0201601N009019999999N999999999-00391-00641999999REMSYN03001015 46/// /1609 11039 21064=
0039010150999992014012102004+69600+017833FM-12+001499999V0201601N009019999999N999999999-00361-00561999999REMSYN03001015 46/// /1609 11036 21056=
0039010150999992014012103004+69600+017833FM-12+001499999V0201701N006019999999N999999999-00311-00671999999REMSYN03001015 46/// /1706 11031 21067=
0039010150999992014012104004+69600+017833FM-12+001499999V0201601N011019999999N999999999-00191-00651999999REMSYN03001015 46/// /1611 11019 21065=
0039010150999992014012105004+69600+017833FM-12+001499999V0201601N010019999999N999999999-00191-00541999999REMSYN03001015 46/// /1610 11019 21054=
0055010150999992014012106004+69600+017833FM-12+001499999V020999999999999999999999999999+99999+99999999999REMSYN04601015 46/// /1608 11017 21052 333 21046 91113=
0039010150999992014012107004+69600+017833FM-12+001499999V0201501N009019999999N999999999-00081-00561999999REMSYN03001015 46/// /1509 11008 21056=
0039010150999992014012108004+69600+017833FM-12+001499999V0201601N009019999999N999999999-00031-00751999999REMSYN03001015 46/// /1609 11003 21075=
0039010150999992014012109004+69600+017833FM-12+001499999V0201601N008019999999N999999999-00091-00831999999REMSYN03001015 46/// /1608 11009 21083=
0039010150999992014012110004+69600+017833FM-12+001499999V0201601N006019999999N999999999-00131-00841999999REMSYN03001015 46/// /1606 11013 21084=
0039010150999992014012111004+69600+017833FM-12+001499999V0201701N007019999999N999999999-00131-00861999999REMSYN03001015 46/// /1707 11013 21086=
0049010150999992014012112004+69600+017833FM-12+001499999V020999999999999999999999999999+99999+99999999999REMSYN04001015 46/// /1706 11015 21091 333 91113=
0039010150999992014012113004+69600+017833FM-12+001499999V0201601N008019999999N999999999-00141-00961999999REMSYN03001015 46/// /1608 11014 21096=
0039010150999992014012114004+69600+017833FM-12+001499999V0201601N007019999999N999999999-00141-00961999999REMSYN03001015 46/// /1607 11014 21096=
0039010150999992014012115004+69600+017833FM-12+001499999V0201701N008019999999N999999999-00061-01091999999REMSYN03001015 46/// /1708 11006 21109=
0039010150999992014012116004+69600+017833FM-12+001499999V0201601N009019999999N999999999-00081-01081999999REMSYN03001015 46/// /1609 11008 21108=
0039010150999992014012117004+69600+017833FM-12+001499999V0201601N008019999999N999999999-00111-01061999999REMSYN03001015 46/// /1608 11011 21106=
0055010150999992014012118004+69600+017833FM-12+001499999V020999999999999999999999999999+99999+99999999999REMSYN04601015 46/// /1610 11010 21104 333 11002 91112=
0039010150999992014012119004+69600+017833FM-12+001499999V0201601N010019999999N999999999-00161-00991999999REMSYN03001015 46/// /1610 11016 21099=
0039010150999992014012120004+69600+017833FM-12+001499999V0201601N009019999999N999999999-00201-00971999999REMSYN03001015 46/// /1609 11020 21097=
0039010150999992014012121004+69600+017833FM-12+001499999V0201601N011019999999N999999999-00201-00971999999REMSYN03001015 46/// /1611 11020 21097=
0039010150999992014012122004+69600+017833FM-12+001499999V0201601N009019999999N999999999-00211-01041999999REMSYN03001015 46/// /1609 11021 21104=
0039010150999992014012123004+69600+017833FM-12+001499999V0201601N009019999999N999999999-00191-01101999999REMSYN03001015 46/// /1609 11019 21110=
0049010150999992014012200004+69600+017833FM-12+001499999V020999999999999999999999999999+99999+99999999999REMSYN04001015 46/// /1608 11022 21107 333 91114=
0039010150999992014012201004+69600+017833FM-12+001499999V0201601N009019999999N999999999-00251-00951999999REMSYN03001015 46/// /1609 11025 21095=
0039010150999992014012202004+69600+017833FM-12+001499999V0201601N009019999999N999999999-00281-01001999999REMSYN03001015 46/// /1609 11028 21100=
0039010150999992014012203004+69600+017833FM-12+001499999V0201601N010019999999N999999999-00281-00991999999REMSYN03001015 46/// /1610 11028 21099=
0039010150999992014012204004+69600+017833FM-12+001499999V0201601N010019999999N999999999-00301-00961999999REMSYN03001015 46/// /1610 11030 21096=
0039010150999992014012205004+69600+017833FM-12+001499999V0201601N008019999999N999999999-00311-00971999999REMSYN03001015 46/// /1608 11031 21097=
0055010150999992014012206004+69600+017833FM-12+001499999V020999999999999999999999999999+99999+99999999999REMSYN04601015 46/// /1608 11032 21093 333 21033 91113=
0039010150999992014012207004+69600+017833FM-12+001499999V0201601N008019999999N999999999-00351-00891999999REMSYN03001015 46/// /1608 11035 21089=
0039010150999992014012208004+69600+017833FM-12+001499999V0201601N009019999999N999999999-00371-00871999999REMSYN03001015 46/// /1609 11037 21087=
0039010150999992014012209004+69600+017833FM-12+001499999V0201601N008019999999N999999999-00401-00921999999REMSYN03001015 46/// /1608 11040 21092=
0039010150999992014012210004+69600+017833FM-12+001499999V0201601N007019999999N999999999-00391-00801999999REMSYN03001015 46/// /1607 11039 21080=
0039010150999992014012211004+69600+017833FM-12+001499999V0201601N006019999999N999999999-00401-00881999999REMSYN03001015 46/// /1606 11040 21088=
0049010150999992014012212004+69600+017833FM-12+001499999V020999999999999999999999999999+99999+99999999999REMSYN04001015 46/// /1607 11040 21081 333 91111=
0039010150999992014012213004+69600+017833FM-12+001499999V0201601N006019999999N999999999-00401-00881999999REMSYN03001015 46/// /1606 11040 21088=
0039010150999992014012214004+69600+017833FM-12+001499999V0201601N007019999999N999999999-00421-00801999999REMSYN03001015 46/// /1607 11042 21080=
0039010150999992014012215004+69600+017833FM-12+001499999V0201601N007019999999N999999999-00441-00761999999REMSYN03001015 46/// /1607 11044 21076=
0039010150999992014012216004+69600+017833FM-12+001499999V0201601N007019999999N999999999-00461-00781999999REMSYN03001015 46/// /1607 11046 21078=
0039010150999992014012217004+69600+017833FM-12+001499999V0201601N008019999999N999999999-00461-00781999999REMSYN03001015 46/// /1608 11046 21078=
0055010150999992014012218004+69600+017833FM-12+001499999V020999999999999999999999999999+99999+99999999999REMSYN04601015 46/// /1607 11047 21076 333 11032 91110=
0039010150999992014012219004+69600+017833FM-12+001499999V0201601N007019999999N999999999-00471-00791999999REMSYN03001015 46/// /1607 11047 21079=
0039010150999992014012220004+69600+017833FM-12+001499999V0201601N006019999999N999999999-00471-00831999999REMSYN03001015 46/// /1606 11047 21083=
0039010150999992014012221004+69600+017833FM-12+001499999V0201601N006019999999N999999999-00471-00801999999REMSYN03001015 46/// /1606 11047 21080=
0039010150999992014012222004+69600+017833FM-12+001499999V0201601N006019999999N999999999-00451-00781999999REMSYN03001015 46/// /1606 11045 21078=
0039010150999992014012223004+69600+017833FM-12+001499999V0201601N007019999999N999999999-00491-00781999999REMSYN03001015 46/// /1607 11049 21078=
0049010150999992014012300004+69600+017833FM-12+001499999V020999999999999999999999999999+99999+99999999999REMSYN04001015 46/// /1608 11052 21080 333 91110=
0039010150999992014012301004+69600+017833FM-12+001499999V0201601N008019999999N999999999-00521-00811999999REMSYN03001015 46/// /1608 11052 21081=
0039010150999992014012302004+69600+017833FM-12+001499999V0201601N008019999999N999999999-00521-00801999999REMSYN03001015 46/// /1608 11052 21080=
0039010150999992014012303004+69600+017833FM-12+001499999V0201601N008019999999N999999999-00531-00851999999REMSYN03001015 46/// /1608 11053 21085=
0039010150999992014012304004+69600+017833FM-12+001499999V0201601N008019999999N999999999-00531-00861999999REMSYN03001015 46/// /1608 11053 21086=
0039010150999992014012305004+69600+017833FM-12+001499999V0201601N008019999999N999999999-00541-00841999999REMSYN03001015 46/// /1608 11054 21084=
0055010150999992014012306004+69600+017833FM-12+001499999V020999999999999999999999999999+99999+99999999999REMSYN04601015 46/// /1608 11056 21086 333 21057 91110=
0039010150999992014012307004+69600+017833FM-12+001499999V0201601N009019999999N999999999-00551-00861999999REMSYN03001015 46/// /1609 11055 21086=
0039010150999992014012308004+69600+017833FM-12+001499999V0201601N009019999999N999999999-00581-00861999999REMSYN03001015 46/// /1609 11058 21086=
0039010150999992014012309004+69600+017833FM-12+001499999V0201601N009019999999N999999999-00581-00851999999REMSYN03001015 46/// /1609 11058 21085=
0039010150999992014012310004+69600+017833FM-12+001499999V0201601N009019999999N999999999-00581-00901999999REMSYN03001015 46/// /1609 11058 21090=
0039010150999992014012311004+69600+017833FM-12+001499999V0201601N010019999999N999999999-00591-00961999999REMSYN03001015 46/// /1610 11059 21096=
0049010150999992014012312004+69600+017833FM-12+001499999V020999999999999999999999999999+99999+99999999999REMSYN04001015 46/// /1609 11060 21091 333 91112=
0039010150999992014012313004+69600+017833FM-12+001499999V0201601N010019999999N999999999-00601-00931999999REMSYN03001015 46/// /1610 11060 21093=
0039010150999992014012314004+69600+017833FM-12+001499999V0201601N010019999999N999999999-00601-00931999999REMSYN03001015 46/// /1610 11060 21093=
0039010150999992014012315004+69600+017833FM-12+001499999V0201601N010019999999N999999999-00561-00891999999REMSYN03001015 46/// /1610 11056 21089=
0039010150999992014012316004+69600+017833FM-12+001499999V0201601N011019999999N999999999-00571-00891999999REMSYN03001015 46/// /1611 11057 21089=
0039010150999992014012317004+69600+017833FM-12+001499999V0201601N011019999999N999999999-00561-00911999999REMSYN03001015 46/// /1611 11056 21091=
0055010150999992014012318004+69600+017833FM-12+001499999V020999999999999999999999999999+99999+99999999999REMSYN04601015 46/// /1610 11055 21088 333 11054 91113=
0039010150999992014012319004+69600+017833FM-12+001499999V0201601N010019999999N999999999-00581-00931999999REMSYN03001015 46/// /1610 11058 21093=
0039010150999992014012320004+69600+017833FM-12+001499999V0201601N010019999999N999999999-00581-00911999999REMSYN03001015 46/// /1610 11058 21091=
0039010150999992014012321004+69600+017833FM-12+001499999V0201601N009019999999N999999999-00561-00871999999REMSYN03001015 46/// /1609 11056 21087=
0039010150999992014012322004+69600+017833FM-12+001499999V0201601N008019999999N999999999-00581-00911999999REMSYN03001015 46/// /1608 11058 21091=
0039010150999992014012323004+69600+017833FM-12+001499999V0201601N008019999999N999999999-00571-00881999999REMSYN03001015 46/// /1608 11057 21088=
0049010150999992014012400004+69600+017833FM-12+001499999V020999999999999999999999999999+99999+99999999999REMSYN04001015 46/// /1609 11059 21093 333 91112=
0039010150999992014012401004+69600+017833FM-12+001499999V0201601N008019999999N999999999-00591-00931999999REMSYN03001015 46/// /1608 11059 21093=
0039010150999992014012402004+69600+017833FM-12+001499999V0201601N008019999999N999999999-00571-00911999999REMSYN03001015 46/// /1608 11057 21091=
0039010150999992014012403004+69600+017833FM-12+001499999V0201601N008019999999N999999999-00561-00931999999REMSYN03001015 46/// /1608 11056 21093=
0039010150999992014012404004+69600+017833FM-12+001499999V0201601N007019999999N999999999-00561-00961999999REMSYN03001015 46/// /1607 11056 21096=
0039010150999992014012405004+69600+017833FM-12+001499999V0201601N008019999999N999999999-00561-01051999999REMSYN03001015 46/// /1608 11056 21105=
0055010150999992014012406004+69600+017833FM-12+001499999V020999999999999999999999999999+99999+99999999999REMSYN04601015 46/// /1607 11056 21089 333 21059 91110=
0039010150999992014012407004+69600+017833FM-12+001499999V0201601N008019999999N999999999-00571-00951999999REMSYN03001015 46/// /1608 11057 21095=
0039010150999992014012408004+69600+017833FM-12+001499999V0201601N009019999999N999999999-00571-00881999999REMSYN03001015 46/// /1609 11057 21088=
0039010150999992014012409004+69600+017833FM-12+001499999V0201601N007019999999N999999999-00551-00961999999REMSYN03001015 46/// /1607 11055 21096=
0039010150999992014012410004+69600+017833FM-12+001499999V0201601N007019999999N999999999-00541-01021999999REMSYN03001015 46/// /1607 11054 21102=
0039010150999992014012411004+69600+017833FM-12+001499999V0201601N008019999999N999999999-00491-01161999999REMSYN03001015 46/// /1608 11049 21116=
0049010150999992014012412004+69600+017833FM-12+001499999V020999999999999999999999999999+99999+99999999999REMSYN04001015 46/// /1608 11050 21102 333 91111=
0039010150999992014012413004+69600+017833FM-12+001499999V0201601N010019999999N999999999-00521-01041999999REMSYN03001015 46/// /1610 11052 21104=
0039010150999992014012414004+69600+017833FM-12+001499999V0201601N007019999999N999999999-00461-01121999999REMSYN03001015 46/// /1607 11046 21112=
0039010150999992014012415004+69600+017833FM-12+001499999V0201601N009019999999N999999999-00461-00901999999REMSYN03001015 46/// /1609 11046 21090=
0039010150999992014012416004+69600+017833FM-12+001499999V0201601N010019999999N999999999-00481-00861999999REMSYN03001015 46/// /1610 11048 21086=
0039010150999992014012417004+69600+017833FM-12+001499999V0201601N011019999999N999999999-00501-00851999999REMSYN03001015 46/// /1611 11050 21085=
0055010150999992014012418004+69600+017833FM-12+001499999V020999999999999999999999999999+99999+99999999999REMSYN04601015 46/// /1611 11050 21091 333 11044 91114=
0039010150999992014012419004+69600+017833FM-12+001499999V0201601N011019999999N999999999-00491-00951999999REMSYN03001015 46/// /1611 11049 21095=
0039010150999992014012420004+69600+017833FM-12+001499999V0201601N011019999999N999999999-00491-00941999999REMSYN03001015 46/// /1611 11049 21094=
0039010150999992014012421004+69600+017833FM-12+001499999V0201601N011019999999N999999999-00491-00921999999REMSYN03001015 46/// /1611 11049 21092=
0039010150999992014012422004+69600+017833FM-12+001499999V0201601N011019999999N999999999-00471-00871999999REMSYN03001015 46/// /1611 11047 21087=
0039010150999992014012423004+69600+017833FM-12+001499999V0201601N011019999999N999999999-00461-00801999999REMSYN03001015 46/// /1611 11046 21080=
0049010150999992014012500004+69600+017833FM-12+001499999V020999999999999999999999999999+99999+99999999999REMSYN04001015 46/// /1613 11051 21100 333 91115=
0039010150999992014012501004+69600+017833FM-12+001499999V0201701N009019999999N999999999-00531-00971999999REMSYN03001015 46/// /1709 11053 21097=
0039010150999992014012502004+69600+017833FM-12+001499999V0201601N011019999999N999999999-00501-00881999999REMSYN03001015 46/// /1611 11050 21088=
0039010150999992014012503004+69600+017833FM-12+001499999V0201601N012019999999N999999999-00461-00921999999REMSYN03001015 46/// /1612 11046 21092=
0039010150999992014012504004+69600+017833FM-12+001499999V0201601N009019999999N999999999-00461-00921999999REMSYN03001015 46/// /1609 11046 21092=
0039010150999992014012505004+69600+017833FM-12+001499999V0201601N011019999999N999999999-00461-00891999999REMSYN03001015 46/// /1611 11046 21089=
0055010150999992014012506004+69600+017833FM-12+001499999V020999999999999999999999999999+99999+99999999999REMSYN04601015 46/// /1612 11050 21095 333 21053 91115=
0039010150999992014012507004+69600+017833FM-12+001499999V0201601N012019999999N999999999-00491-00961999999REMSYN03001015 46/// /1612 11049 21096=
0039010150999992014012508004+69600+017833FM-12+001499999V0201601N013019999999N999999999-00481-01011999999REMSYN03001015 46/// /1613 11048 21101=
0039010150999992014012509004+69600+017833FM-12+001499999V0201601N010019999999N999999999-00471-01041999999REMSYN03001015 46/// /1610 11047 21104=
0039010150999992014012510004+69600+017833FM-12+001499999V0201601N007019999999N999999999-00431-01091999999REMSYN03001015 46/// /1607 11043 21109=
0039010150999992014012511004+69600+017833FM-12+001499999V0201601N009019999999N999999999-00461-01081999999REMSYN03001015 46/// /1609 11046 21108=
0049010150999992014012512004+69600+017833FM-12+001499999V020999999999999999999999999999+99999+99999999999REMSYN04001015 46/// /1609 11045 21101 333 91116=
0039010150999992014012513004+69600+017833FM-12+001499999V0201601N009019999999N999999999-00461-01111999999REMSYN03001015 46/// /1609 11046 21111=
0039010150999992014012514004+69600+017833FM-12+001499999V0201601N008019999999N999999999-00461-01131999999REMSYN03001015 46/// /1608 11046 21113=
0039010150999992014012515004+69600+017833FM-12+001499999V0201601N007019999999N999999999-00411-00951999999REMSYN03001015 46/// /1607 11041 21095=
0039010150999992014012516004+69600+017833FM-12+001499999V0201601N008019999999N999999999-00421-01011999999REMSYN03001015 46/// /1608 11042 21101=
0039010150999992014012517004+69600+017833FM-12+001499999V0201601N008019999999N999999999-00431-01061999999REMSYN03001015 46/// /1608 11043 21106=
0055010150999992014012518004+69600+017833FM-12+001499999V020999999999999999999999999999+99999+99999999999REMSYN04601015 46/// /1609 11043 21096 333 11039 91112=
0039010150999992014012519004+69600+017833FM-12+001499999V0201601N009019999999N999999999-00431-00861999999REMSYN03001015 46/// /1609 11043 21086=
0039010150999992014012520004+69600+017833FM-12+001499999V0201601N008019999999N999999999-00441-00921999999REMSYN03001015 46/// /1608 11044 21092=
0039010150999992014012521004+69600+017833FM-12+001499999V0201601N008019999999N999999999-00451-00871999999REMSYN03001015 46/// /1608 11045 21087=
0039010150999992014012522004+69600+017833FM-12+001499999V0201601N008019999999N999999999-00431-00901999999REMSYN03001015 46/// /1608 11043 21090=
0039010150999992014012523004+69600+017833FM-12+001499999V0201601N009019999999N999999999-00461-00851999999REMSYN03001015 46/// /1609 11046 21085=
0049010150999992014012600004+69600+017833FM-12+001499999V020999999999999999999999999999+99999+99999999999REMSYN04001015 46/// /1607 11046 21089 333 91111=
0039010150999992014012601004+69600+017833FM-12+001499999V0201601N008019999999N999999999-00441-00861999999REMSYN03001015 46/// /1608 11044 21086=
0039010150999992014012602004+69600+017833FM-12+001499999V0201601N009019999999N999999999-00471-00921999999REMSYN03001015 46/// /1609 11047 21092=
0039010150999992014012603004+69600+017833FM-12+001499999V0201601N010019999999N999999999-00471-00911999999REMSYN03001015 46/// /1610 11047 21091=
0039010150999992014012604004+69600+017833FM-12+001499999V0201601N009019999999N999999999-00461-00861999999REMSYN03001015 46/// /1609 11046 21086=
0039010150999992014012605004+69600+017833FM-12+001499999V0201601N008019999999N999999999-00451-00911999999REMSYN03001015 46/// /1608 11045 21091=
0055010150999992014012606004+69600+017833FM-12+001499999V020999999999999999999999999999+99999+99999999999REMSYN04601015 46/// /1608 11042 21087 333 21048 91112=
0039010150999992014012607004+69600+017833FM-12+001499999V0201601N008019999999N999999999-00381-00751999999REMSYN03001015 46/// /1608 11038 21075=
0039010150999992014012608004+69600+017833FM-12+001499999V0201601N008019999999N999999999-00391-00791999999REMSYN03001015 46/// /1608 11039 21079=
0039010150999992014012609004+69600+017833FM-12+001499999V0201601N009019999999N999999999-00361-00741999999REMSYN03001015 46/// /1609 11036 21074=
0039010150999992014012610004+69600+017833FM-12+001499999V0201601N009019999999N999999999-00381-00721999999REMSYN03001015 46/// /1609 11038 21072=
0039010150999992014012611004+69600+017833FM-12+001499999V0201601N009019999999N999999999-00361-00681999999REMSYN03001015 46/// /1609 11036 21068=
0049010150999992014012612004+69600+017833FM-12+001499999V020999999999999999999999999999+99999+99999999999REMSYN04001015 46/// /1607 11029 21062 333 91111=
0039010150999992014012613004+69600+017833FM-12+001499999V0201601N006019999999N999999999-00271-00621999999REMSYN03001015 46/// /1606 11027 21062=
0039010150999992014012614004+69600+017833FM-12+001499999V0201601N008019999999N999999999-00291-00711999999REMSYN03001015 46/// /1608 11029 21071=
0039010150999992014012615004+69600+017833FM-12+001499999V0201601N008019999999N999999999-00291-00701999999REMSYN03001015 46/// /1608 11029 21070=
0039010150999992014012616004+69600+017833FM-12+001499999V0201601N009019999999N999999999-00321-00601999999REMSYN03001015 46/// /1609 11032 21060=
0039010150999992014012617004+69600+017833FM-12+001499999V0201601N012019999999N999999999-00321-00671999999REMSYN03001015 46/// /1612 11032 21067=
0055010150999992014012618004+69600+017833FM-12+001499999V020999999999999999999999999999+99999+99999999999REMSYN04601015 46/// /1613 11029 21071 333 11025 91116=
0039010150999992014012619004+69600+017833FM-12+001499999V0201601N012019999999N999999999-00331-00761999999REMSYN03001015 46/// /1612 11033 21076=
0039010150999992014012620004+69600+017833FM-12+001499999V0201601N014019999999N999999999-00391-00871999999REMSYN03001015 46/// /1614 11039 21087=
0039010150999992014012621004+69600+017833FM-12+001499999V0201601N013019999999N999999999-00451-00971999999REMSYN03001015 46/// /1613 11045 21097=
0039010150999992014012622004+69600+017833FM-12+001499999V0201701N010019999999N999999999-00521-01041999999REMSYN03001015 46/// /1710 11052 21104=
0039010150999992014012623004+69600+017833FM-12+001499999V0201701N011019999999N999999999-00581-01141999999REMSYN03001015 46/// /1711 11058 21114=
0049010150999992014012700004+69600+017833FM-12+001499999V020999999999999999999999999999+99999+99999999999REMSYN04001015 46/// /1611 11060 21120 333 91117=
0039010150999992014012701004+69600+017833FM-12+001499999V0201701N009019999999N999999999-00601-01251999999REMSYN03001015 46/// /1709 11060 21125=
0039010150999992014012702004+69600+017833FM-12+001499999V0201601N013019999999N999999999-00631-01231999999REMSYN03001015 46/// /1613 11063 21123=
0039010150999992014012703004+69600+017833FM-12+001499999V0201601N013019999999N999999999-00591-01251999999REMSYN03001015 46/// /1613 11059 21125=
0039010150999992014012704004+69600+017833FM-12+001499999V0201601N012019999999N999999999-00591-01231999999REMSYN03001015 46/// /1612 11059 21123=
0039010150999992014012705004+69600+017833FM-12+001499999V0201601N012019999999N999999999-00571-01271999999REMSYN03001015 46/// /1612 11057 21127=
0055010150999992014012706004+69600+017833FM-12+001499999V020999999999999999999999999999+99999+99999999999REMSYN04601015 46/// /1612 11058 21121 333 21065 91117=
0039010150999992014012707004+69600+017833FM-12+001499999V0201601N012019999999N999999999-00591-01241999999REMSYN03001015 46/// /1612 11059 21124=
0039010150999992014012708004+69600+017833FM-12+001499999V0201601N013019999999N999999999-00601-01191999999REMSYN03001015 46/// /1613 11060 21119=
0039010150999992014012709004+69600+017833FM-12+001499999V0201601N013019999999N999999999-00611-01181999999REMSYN03001015 46/// /1613 11061 21118=
0039010150999992014012710004+69600+017833FM-12+001499999V0201601N013019999999N999999999-00601-01271999999REMSYN03001015 46/// /1613 11060 21127=
0039010150999992014012711004+69600+017833FM-12+001499999V0201601N014019999999N999999999-00621-01271999999REMSYN03001015 46/// /1614 11062 21127=
0049010150999992014012712004+69600+017833FM-12+001499999V020999999999999999999999999999+99999+99999999999REMSYN04001015 46/// /1613 11062 21125 333 91117=
0039010150999992014012713004+69600+017833FM-12+001499999V0201601N012019999999N999999999-00621-01281999999REMSYN03001015 46/// /1612 11062 21128=
0039010150999992014012714004+69600+017833FM-12+001499999V0201601N014019999999N999999999-00631-01251999999REMSYN03001015 46/// /1614 11063 21125=
0039010150999992014012715004+69600+017833FM-12+001499999V0201601N014019999999N999999999-00581-01281999999REMSYN03001015 46/// /1614 11058 21128=
0039010150999992014012716004+69600+017833FM-12+001499999V0201601N015019999999N999999999-00611-01321999999REMSYN03001015 46/// /1615 11061 21132=
0039010150999992014012717004+69600+017833FM-12+001499999V0201601N014019999999N999999999-00591-01391999999REMSYN03001015 46/// /1614 11059 21139=
0055010150999992014012718004+69600+017833FM-12+001499999V020999999999999999999999999999+99999+99999999999REMSYN04601015 46/// /1613 11060 21137 333 11057 91119=
0039010150999992014012719004+69600+017833FM-12+001499999V0201601N009019999999N999999999-00571-01521999999REMSYN03001015 46/// /1609 11057 21152=
0039010150999992014012720004+69600+017833FM-12+001499999V0201601N010019999999N999999999-00471-01451999999REMSYN03001015 46/// /1610 11047 21145=
0039010150999992014012721004+69600+017833FM-12+001499999V0201701N009019999999N999999999-00481-01421999999REMSYN03001015 46/// /1709 11048 21142=
0039010150999992014012722004+69600+017833FM-12+001499999V0201601N011019999999N999999999-00451-01321999999REMSYN03001015 46/// /1611 11045 21132=
0039010150999992014012723004+69600+017833FM-12+001499999V0201701N011019999999N999999999-00401-01331999999REMSYN03001015 46/// /1711 11040 21133=
0049010150999992014012800004+69600+017833FM-12+001499999V020999999999999999999999999999+99999+99999999999REMSYN04001015 46/// /1611 11030 21141 333 91117=
0039010150999992014012801004+69600+017833FM-12+001499999V0201601N008019999999N999999999-00251-01351999999REMSYN03001015 46/// /1608 11025 21135=
0039010150999992014012802004+69600+017833FM-12+001499999V0201601N010019999999N999999999-00271-01091999999REMSYN03001015 46/// /1610 11027 21109=
0039010150999992014012803004+69600+017833FM-12+001499999V0201601N010019999999N999999999-00301-01261999999REMSYN03001015 46/// /1610 11030 21126=
0039010150999992014012804004+69600+017833FM-12+001499999V0201701N009019999999N999999999-00291-01331999999REMSYN03001015 46/// /1709 11029 21133=
0039010150999992014012805004+69600+017833FM-12+001499999V0201601N011019999999N999999999-00221-01371999999REMSYN03001015 46/// /1611 11022 21137=
0055010150999992014012806004+69600+017833FM-12+001499999V020999999999999999999999999999+99999+99999999999REMSYN04601015 46/// /1610 11025 21136 333 21060 91117=
0039010150999992014012807004+69600+017833FM-12+001499999V0201601N014019999999N999999999-00231-01441999999REMSYN03001015 46/// /1614 11023 21144=
0039010150999992014012808004+69600+017833FM-12+001499999V0201601N013019999999N999999999-00171-01201999999REMSYN03001015 46/// /1613 11017 21120=
0039010150999992014012809004+69600+017833FM-12+001499999V0201601N012019999999N999999999-00161-01381999999REMSYN03001015 46/// /1612 11016 21138=
0039010150999992014012810004+69600+017833FM-12+001499999V0201601N011019999999N999999999-00271-01391999999REMSYN03001015 46/// /1611 11027 21139=
0039010150999992014012811004+69600+017833FM-12+001499999V0201601N012019999999N999999999-00271-01261999999REMSYN03001015 46/// /1612 11027 21126=
0049010150999992014012812004+69600+017833FM-12+001499999V020999999999999999999999999999+99999+99999999999REMSYN04001015 46/// /1615 11027 21136 333 91118=
0039010150999992014012813004+69600+017833FM-12+001499999V0201601N014019999999N999999999-00261-01271999999REMSYN03001015 46/// /1614 11026 21127=
0039010150999992014012814004+69600+017833FM-12+001499999V0201601N011019999999N999999999-00261-01191999999REMSYN03001015 46/// /1611 11026 21119=
0039010150999992014012815004+69600+017833FM-12+001499999V0201601N012019999999N999999999-00241-01491999999REMSYN03001015 46/// /1612 11024 21149=
0039010150999992014012816004+69600+017833FM-12+001499999V0201701N009019999999N999999999-00211-01551999999REMSYN03001015 46/// /1709 11021 21155=
0039010150999992014012817004+69600+017833FM-12+001499999V0201601N009019999999N999999999-00121-01571999999REMSYN03001015 46/// /1609 11012 21157=
0055010150999992014012818004+69600+017833FM-12+001499999V020999999999999999999999999999+99999+99999999999REMSYN04601015 46/// /1613 11015 21108 333 11008 91117=
0039010150999992014012819004+69600+017833FM-12+001499999V0201601N011019999999N999999999-00181-01411999999REMSYN03001015 46/// /1611 11018 21141=
0039010150999992014012820004+69600+017833FM-12+001499999V0201701N011019999999N999999999-00211-01261999999REMSYN03001015 46/// /1711 11021 21126=
0039010150999992014012821004+69600+017833FM-12+001499999V0201601N012019999999N999999999-00131-00991999999REMSYN03001015 46/// /1612 11013 21099=
0039010150999992014012822004+69600+017833FM-12+001499999V0201601N012019999999N999999999-00121-00961999999REMSYN03001015 46/// /1612 11012 21096=
0039010150999992014012823004+69600+017833FM-12+001499999V0201701N011019999999N999999999-00171-00941999999REMSYN03001015 46/// /1711 11017 21094=
0049010150999992014012900004+69600+017833FM-12+001499999V020999999999999999999999999999+99999+99999999999REMSYN04001015 46/// /1609 11014 21081 333 91118=
0039010150999992014012901004+69600+017833FM-12+001499999V0201601N010019999999N999999999-00151-00831999999REMSYN03001015 46/// /1610 11015 21083=
0039010150999992014012902004+69600+017833FM-12+001499999V0201601N009019999999N999999999-00141-00931999999REMSYN03001015 46/// /1609 11014 21093=
0039010150999992014012903004+69600+017833FM-12+001499999V0201601N011019999999N999999999-00151-00951999999REMSYN03001015 46/// /1611 11015 21095=
0039010150999992014012904004+69600+017833FM-12+001499999V0201601N009019999999N999999999-00171-00991999999REMSYN03001015 46/// /1609 11017 21099=
0039010150999992014012905004+69600+017833FM-12+001499999V0201601N009019999999N999999999-00151-00971999999REMSYN03001015 46/// /1609 11015 21097=
0055010150999992014012906004+69600+017833FM-12+001499999V020999999999999999999999999999+99999+99999999999REMSYN04601015 46/// /1708 11021 21091 333 21022 91113=
0039010150999992014012907004+69600+017833FM-12+001499999V0201601N010019999999N999999999-00151-00851999999REMSYN03001015 46/// /1610 11015 21085=
0039010150999992014012908004+69600+017833FM-12+001499999V0201601N010019999999N999999999-00171-00851999999REMSYN03001015 46/// /1610 11017 21085=
0039010150999992014012909004+69600+017833FM-12+001499999V0201601N012019999999N999999999-00111-00751999999REMSYN03001015 46/// /1612 11011 21075=
0039010150999992014012910004+69600+017833FM-12+001499999V0201701N005019999999N999999999-00071-00831999999REMSYN03001015 46/// /1705 11007 21083=
0039010150999992014012911004+69600+017833FM-12+001499999V0201601N012019999999N999999999-00131-00621999999REMSYN03001015 46/// /1612 11013 21062=
0049010150999992014012912004+69600+017833FM-12+001499999V020999999999999999999999999999+99999+99999999999REMSYN04001015 46/// /1611 11014 21085 333 91118=
0039010150999992014012913004+69600+017833FM-12+001499999V0201601N012019999999N999999999-00131-00661999999REMSYN03001015 46/// /1612 11013 21066=
