0089010170999992014010101004+77683+014783FM-12+000699999V0200501N007019999999N999999999-00651+99999102131ADDMA1999990102051MD1710091+9990REMSYN04801017 46/// /0507 11065 2//// 30205 40213 57009=
0089010170999992014010102004+77683+014783FM-12+000699999V0200501N008019999999N999999999-00611+99999102111ADDMA1999990102021MD1710081+9990REMSYN04801017 46/// /0508 11061 2//// 30202 40211 57008=
0089010170999992014010104004+77683+014783FM-12+000699999V0200501N005019999999N999999999-00491+99999101981ADDMA1999990101901MD1610151+9990REMSYN04801017 46/// /0505 11049 2//// 30190 40198 56015=
0089010170999992014010105004+77683+014783FM-12+000699999V0200801N005019999999N999999999-00441+99999101921ADDMA1999990101831MD1710191+9990REMSYN04801017 46/// /0805 11044 2//// 30183 40192 57019=
0113010170999992014010106004+77683+014783FM-12+000699999V0201501N005019999999N999999999-00261+99999101871ADDMA1999990101791MD1810181+9990OD139901001999REMSYN05801017 46/// /1505 11026 2//// 30179 40187 58018 333 91110=
0089010170999992014010107004+77683+014783FM-12+000699999V0201501N005019999999N999999999-00281+99999101831ADDMA1999990101741MD1710151+9990REMSYN04801017 46/// /1505 11028 2//// 30174 40183 57015=
0089010170999992014010108004+77683+014783FM-12+000699999V0201801N010019999999N999999999-00221+99999101741ADDMA1999990101651MD1610181+9990REMSYN04801017 46/// /1810 11022 2//// 30165 40174 56018=
0089010170999992014010109004+77683+014783FM-12+000699999V0201701N010019999999N999999999-00261+99999101721ADDMA1999990101631MD1710161+9990REMSYN04801017 46/// /1710 11026 2//// 30163 40172 57016=
0089010170999992014010110004+77683+014783FM-12+000699999V0201801N010019999999N999999999-00221+99999101711ADDMA1999990101631MD1810121+9990REMSYN04801017 46/// /1810 11022 2//// 30163 40171 58012=
0089010170999992014010111004+77683+014783FM-12+000699999V0201801N011019999999N999999999-00151+99999101671ADDMA1999990101591MD1710071+9990REMSYN04801017 46/// /1811 11015 2//// 30159 40167 57007=
0113010170999992014010112004+77683+014783FM-12+000699999V0201901N011019999999N999999999-00111+99999101681ADDMA1999990101601MD1710041+9990OD139902201999REMSYN05801017 46/// /1911 11011 2//// 30160 40168 57004 333 91122=
0089010170999992014010113004+77683+014783FM-12+000699999V0201901N011019999999N999999999-00191+99999101691ADDMA1999990101611MD1900021+9990REMSYN04801017 46/// /1911 11019 2//// 30161 40169 50002=
0089010170999992014010114004+77683+014783FM-12+000699999V0201801N008019999999N999999999-00201+99999101711ADDMA1999990101631MD1210041+9990REMSYN04801017 46/// /1808 11020 2//// 30163 40171 52004=
0089010170999992014010115004+77683+014783FM-12+000699999V0201901N011019999999N999999999-00221+99999101681ADDMA1999990101601MD1510001+9990REMSYN04801017 46/// /1911 11022 2//// 30160 40168 55000=
0108010170999992014010116004+77683+014783FM-12+000699999V0201901N012019999999N999999999-00261+99999101701ADDMA1999990101621MD1290019+9990REMSYN04801017 46/// /1912 11026 2//// 30162 40170 54001=EQDQ01.1    3APC3  
0089010170999992014010117004+77683+014783FM-12+000699999V0201801N008019999999N999999999-00271+99999101741ADDMA1999990101651MD1900031+9990REMSYN04801017 46/// /1808 11027 2//// 30165 40174 50003=
0132010170999992014010118004+77683+014783FM-12+000699999V0201901N009019999999N999999999-00291+99999101771ADDKA1120M-00101MA1999990101691MD1210091+9990OD139901901999REMSYN06401017 46/// /1909 11029 2//// 30169 40177 52009 333 11010 91119=
0089010170999992014010119004+77683+014783FM-12+000699999V0201801N006019999999N999999999-00291+99999101771ADDMA1999990101691MD1310081+9990REMSYN04801017 46/// /1806 11029 2//// 30169 40177 53008=
0089010170999992014010120004+77683+014783FM-12+000699999V0201901N007019999999N999999999-00251+99999101791ADDMA1999990101711MD1210061+9990REMSYN04801017 46/// /1907 11025 2//// 30171 40179 52006=
0089010170999992014010121004+77683+014783FM-12+000699999V0201901N007019999999N999999999-00221+99999101801ADDMA1999990101721MD1210031+9990REMSYN04801017 46/// /1907 11022 2//// 30172 40180 52003=
0089010170999992014010122004+77683+014783FM-12+000699999V0201901N006019999999N999999999-00191+99999101801ADDMA1999990101721MD1210031+9990REMSYN04801017 46/// /1906 11019 2//// 30172 40180 52003=
0089010170999992014010123004+77683+014783FM-12+000699999V0201901N006019999999N999999999-00141+99999101841ADDMA1999990101751MD1210041+9990REMSYN04801017 46/// /1906 11014 2//// 30175 40184 52004=
0113010170999992014010200004+77683+014783FM-12+000699999V0202001N005019999999N999999999-00141+99999101851ADDMA1999990101771MD1210051+9990OD139901201999REMSYN05801017 46/// /2005 11014 2//// 30177 40185 52005 333 91112=
0089010170999992014010201004+77683+014783FM-12+000699999V0202001N005019999999N999999999-00121+99999101851ADDMA1999990101761MD1310041+9990REMSYN04801017 46/// /2005 11012 2//// 30176 40185 53004=
0089010170999992014010202004+77683+014783FM-12+000699999V0202001N003019999999N999999999-00121+99999101881ADDMA1999990101801MD1210051+9990REMSYN04801017 46/// /2003 11012 2//// 30180 40188 52005=
0089010170999992014010203004+77683+014783FM-12+000699999V0201901N004019999999N999999999-00091+99999101861ADDMA1999990101771MD1410001+9990REMSYN04801017 46/// /1904 11009 2//// 30177 40186 54000=
0089010170999992014010204004+77683+014783FM-12+000699999V0201801N005019999999N999999999-00111+99999101851ADDMA1999990101771MD1510001+9990REMSYN04801017 46/// /1805 11011 2//// 30177 40185 55000=
0089010170999992014010205004+77683+014783FM-12+000699999V0201901N006019999999N999999999-00071+99999101821ADDMA1999990101741MD1710061+9990REMSYN04801017 46/// /1906 11007 2//// 30174 40182 57006=
0151010170999992014010206004+77683+014783FM-12+000699999V0201901N006019999999N999999999-00071+99999101831ADDKA1240N-00291MA1999990101751MD1790039+9990OD139900901999REMSYN06401017 46/// /1906 11007 2//// 30175 40183 54003 333 21029 91109=EQDQ01.3    3APC3  
0089010170999992014010207004+77683+014783FM-12+000699999V0201701N003019999999N999999999-00131+99999101861ADDMA1999990101781MD1900011+9990REMSYN04801017 46/// /1703 11013 2//// 30178 40186 50001=
0089010170999992014010208004+77683+014783FM-12+000699999V0201701N004019999999N999999999-00091+99999101881ADDMA1999990101791MD1210051+9990REMSYN04801017 46/// /1704 11009 2//// 30179 40188 52005=
0089010170999992014010209004+77683+014783FM-12+000699999V0200301N004019999999N999999999-00161+99999101921ADDMA1999990101841MD1210091+9990REMSYN04801017 46/// /0304 11016 2//// 30184 40192 52009=
0089010170999992014010210004+77683+014783FM-12+000699999V0201501N003019999999N999999999-00081+99999101921ADDMA1999990101841MD1210061+9990REMSYN04801017 46/// /1503 11008 2//// 30184 40192 52006=
0089010170999992014010211004+77683+014783FM-12+000699999V0202401N001019999999N999999999-00181+99999101941ADDMA1999990101861MD1310061+9990REMSYN04801017 46/// /2401 11018 2//// 30186 40194 53006=
0132010170999992014010212004+77683+014783FM-12+000699999V0201601N002019999999N999999999-00191+99999101931ADDMA1999990101851MD1290019+9990OD139900901999REMSYN05801017 46/// /1602 11019 2//// 30185 40193 54001 333 91109=EQDQ01.1    3APC3  
0089010170999992014010213004+77683+014783FM-12+000699999V0203401N002019999999N999999999-00311+99999101911ADDMA1999990101831MD1510011+9990REMSYN04801017 46/// /3402 11031 2//// 30183 40191 55001=
0089010170999992014010214004+77683+014783FM-12+000699999V0201601N004019999999N999999999-00201+99999101891ADDMA1999990101811MD1710051+9990REMSYN04801017 46/// /1604 11020 2//// 30181 40189 57005=
0108010170999992014010215004+77683+014783FM-12+000699999V0201501N005019999999N999999999-00251+99999101901ADDMA1999990101821MD1790039+9990REMSYN04801017 46/// /1505 11025 2//// 30182 40190 54003=EQDQ01.3    3APC3  
0108010170999992014010216004+77683+014783FM-12+000699999V0201501N004019999999N999999999-00231+99999101881ADDMA1999990101801MD1790039+9990REMSYN04801017 46/// /1504 11023 2//// 30180 40188 54003=EQDQ01.3    3APC3  
0108010170999992014010217004+77683+014783FM-12+000699999V0200501N006019999999N999999999-00341+99999101881ADDMA1999990101801MD1790019+9990REMSYN04801017 46/// /0506 11034 2//// 30180 40188 54001=EQDQ01.1    3APC3  
0132010170999992014010218004+77683+014783FM-12+000699999V0200601N007019999999N999999999-00411+99999101871ADDKA1120M-00071MA1999990101791MD1710031+9990OD139900901999REMSYN06401017 46/// /0607 11041 2//// 30179 40187 57003 333 11007 91109=
0108010170999992014010219004+77683+014783FM-12+000699999V0200601N006019999999N999999999-00421+99999101871ADDMA1999990101781MD1790019+9990REMSYN04801017 46/// /0606 11042 2//// 30178 40187 54002=EQDQ01.2    3APC3  
0089010170999992014010220004+77683+014783FM-12+000699999V0200601N005019999999N999999999-00371+99999101851ADDMA1999990101761MD1710041+9990REMSYN04801017 46/// /0605 11037 2//// 30176 40185 57004=
0108010170999992014010221004+77683+014783FM-12+000699999V0200501N005019999999N999999999-00371+99999101851ADDMA1999990101761MD1790029+9990REMSYN04801017 46/// /0505 11037 2//// 30176 40185 54002=EQDQ01.2    3APC3  
0089010170999992014010222004+77683+014783FM-12+000699999V0200501N005019999999N999999999-00361+99999101821ADDMA1999990101741MD1710051+9990REMSYN04801017 46/// /0505 11036 2//// 30174 40182 57005=
0108010170999992014010223004+77683+014783FM-12+000699999V0200701N006019999999N999999999-00321+99999101821ADDMA1999990101731MD1790039+9990REMSYN04801017 46/// /0706 11032 2//// 30173 40182 54003=EQDQ01.3    3APC3  
0113010170999992014010300004+77683+014783FM-12+000699999V0200601N005019999999N999999999-00271+99999101791ADDMA1999990101711MD1710051+9990OD139900801999REMSYN05801017 46/// /0605 11027 2//// 30171 40179 57005 333 91108=
0089010170999992014010301004+77683+014783FM-12+000699999V0200401N006019999999N999999999-00241+99999101741ADDMA1999990101651MD1610091+9990REMSYN04801017 46/// /0406 11024 2//// 30165 40174 56009=
0089010170999992014010302004+77683+014783FM-12+000699999V0200401N007019999999N999999999-00231+99999101691ADDMA1999990101611MD1710121+9990REMSYN04801017 46/// /0407 11023 2//// 30161 40169 57012=
0089010170999992014010303004+77683+014783FM-12+000699999V0200501N005019999999N999999999-00201+99999101681ADDMA1999990101601MD1810121+9990REMSYN04801017 46/// /0505 11020 2//// 30160 40168 58012=
0089010170999992014010304004+77683+014783FM-12+000699999V0201101N004019999999N999999999-00141+99999101671ADDMA1999990101591MD1810061+9990REMSYN04801017 46/// /1104 11014 2//// 30159 40167 58006=
0089010170999992014010305004+77683+014783FM-12+000699999V0201101N004019999999N999999999-00171+99999101651ADDMA1999990101571MD1710041+9990REMSYN04801017 46/// /1104 11017 2//// 30157 40165 57004=
0132010170999992014010306004+77683+014783FM-12+000699999V0201001N005019999999N999999999-00181+99999101631ADDKA1240N-00431MA1999990101541MD1710051+9990OD139900801999REMSYN06401017 46/// /1005 11018 2//// 30154 40163 57005 333 21043 91108=
0089010170999992014010307004+77683+014783FM-12+000699999V0201101N004019999999N999999999-00201+99999101631ADDMA1999990101551MD1710051+9990REMSYN04801017 46/// /1104 11020 2//// 30155 40163 57005=
0089010170999992014010308004+77683+014783FM-12+000699999V0201101N006019999999N999999999-00181+99999101621ADDMA1999990101531MD1710031+9990REMSYN04801017 46/// /1106 11018 2//// 30153 40162 57003=
0108010170999992014010309004+77683+014783FM-12+000699999V0200901N006019999999N999999999-00201+99999101621ADDMA1999990101531MD1790019+9990REMSYN04801017 46/// /0906 11020 2//// 30153 40162 54001=EQDQ01.1    3APC3  
0108010170999992014010310004+77683+014783FM-12+000699999V0201001N006019999999N999999999-00211+99999101611ADDMA1999990101531MD1790029+9990REMSYN04801017 46/// /1006 11021 2//// 30153 40161 54002=EQDQ01.2    3APC3  
0089010170999992014010311004+77683+014783FM-12+000699999V0200901N004019999999N999999999-00231+99999101621ADDMA1999990101531MD1410001+9990REMSYN04801017 46/// /0904 11023 2//// 30153 40162 54000=
0113010170999992014010312004+77683+014783FM-12+000699999V0200701N005019999999N999999999-00241+99999101571ADDMA1999990101491MD1610041+9990OD139900801999REMSYN05801017 46/// /0705 11024 2//// 30149 40157 56004 333 91108=
0089010170999992014010313004+77683+014783FM-12+000699999V0200701N005019999999N999999999-00251+99999101551ADDMA1999990101461MD1710061+9990REMSYN04801017 46/// /0705 11025 2//// 30146 40155 57006=
0089010170999992014010314004+77683+014783FM-12+000699999V0200801N006019999999N999999999-00221+99999101491ADDMA1999990101411MD1710121+9990REMSYN04801017 46/// /0806 11022 2//// 30141 40149 57012=
0089010170999992014010315004+77683+014783FM-12+000699999V0200701N005019999999N999999999-00221+99999101481ADDMA1999990101391MD1710101+9990REMSYN04801017 46/// /0705 11022 2//// 30139 40148 57010=
0089010170999992014010316004+77683+014783FM-12+000699999V0200601N005019999999N999999999-00201+99999101441ADDMA1999990101361MD1710101+9990REMSYN04801017 46/// /0605 11020 2//// 30136 40144 57010=
0089010170999992014010317004+77683+014783FM-12+000699999V0200601N005019999999N999999999-00191+99999101411ADDMA1999990101321MD1710091+9990REMSYN04801017 46/// /0605 11019 2//// 30132 40141 57009=
0132010170999992014010318004+77683+014783FM-12+000699999V0200601N006019999999N999999999-00181+99999101371ADDKA1120M-00171MA1999990101281MD1710111+9990OD139900801999REMSYN06401017 46/// /0606 11018 2//// 30128 40137 57011 333 11017 91108=
0089010170999992014010319004+77683+014783FM-12+000699999V0200601N005019999999N999999999-00171+99999101351ADDMA1999990101261MD1710101+9990REMSYN04801017 46/// /0605 11017 2//// 30126 40135 57010=
0089010170999992014010320004+77683+014783FM-12+000699999V0200601N005019999999N999999999-00161+99999101311ADDMA1999990101231MD1710091+9990REMSYN04801017 46/// /0605 11016 2//// 30123 40131 57009=
0089010170999992014010321004+77683+014783FM-12+000699999V0200601N006019999999N999999999-00171+99999101291ADDMA1999990101211MD1710071+9990REMSYN04801017 46/// /0606 11017 2//// 30121 40129 57007=
0089010170999992014010322004+77683+014783FM-12+000699999V0200601N006019999999N999999999-00181+99999101301ADDMA1999990101221MD1810041+9990REMSYN04801017 46/// /0606 11018 2//// 30122 40130 58004=
0108010170999992014010323004+77683+014783FM-12+000699999V0200601N006019999999N999999999-00161+99999101301ADDMA1999990101221MD1790019+9990REMSYN04801017 46/// /0606 11016 2//// 30122 40130 54001=EQDQ01.1    3APC3  
0113010170999992014010400004+77683+014783FM-12+000699999V0200601N008019999999N999999999-00171+99999101241ADDMA1999990101161MD1610051+9990OD139900901999REMSYN05801017 46/// /0608 11017 2//// 30116 40124 56005 333 91109=
0089010170999992014010401004+77683+014783FM-12+000699999V0200501N010019999999N999999999-00181+99999101191ADDMA1999990101111MD1610111+9990REMSYN04801017 46/// /0510 11018 2//// 30111 40119 56011=
0089010170999992014010402004+77683+014783FM-12+000699999V0200601N009019999999N999999999-00191+99999101201ADDMA1999990101121MD1810101+9990REMSYN04801017 46/// /0609 11019 2//// 30112 40120 58010=
0089010170999992014010403004+77683+014783FM-12+000699999V0200701N003019999999N999999999-00221+99999101191ADDMA1999990101111MD1810051+9990REMSYN04801017 46/// /0703 11022 2//// 30111 40119 58005=
0089010170999992014010404004+77683+014783FM-12+000699999V0200501N010019999999N999999999-00241+99999101161ADDMA1999990101081MD1510031+9990REMSYN04801017 46/// /0510 11024 2//// 30108 40116 55003=
0089010170999992014010405004+77683+014783FM-12+000699999V0200601N012019999999N999999999-00271+99999101141ADDMA1999990101061MD1710061+9990REMSYN04801017 46/// /0612 11027 2//// 30106 40114 57006=
0132010170999992014010406004+77683+014783FM-12+000699999V0200501N011019999999N999999999-00271+99999101131ADDKA1240N-00281MA1999990101051MD1710061+9990OD139901501999REMSYN06401017 46/// /0511 11027 2//// 30105 40113 57006 333 21028 91115=
0089010170999992014010407004+77683+014783FM-12+000699999V0200501N011019999999N999999999-00291+99999101131ADDMA1999990101051MD1710031+9990REMSYN04801017 46/// /0511 11029 2//// 30105 40113 57003=
0108010170999992014010408004+77683+014783FM-12+000699999V0200501N011019999999N999999999-00291+99999101151ADDMA1999990101071MD1290019+9990REMSYN04801017 46/// /0511 11029 2//// 30107 40115 54001=EQDQ01.1    3APC3  
0089010170999992014010409004+77683+014783FM-12+000699999V0200501N011019999999N999999999-00291+99999101161ADDMA1999990101081MD1210031+9990REMSYN04801017 46/// /0511 11029 2//// 30108 40116 52003=
0089010170999992014010410004+77683+014783FM-12+000699999V0200601N011019999999N999999999-00321+99999101171ADDMA1999990101091MD1210041+9990REMSYN04801017 46/// /0611 11032 2//// 30109 40117 52004=
0108010170999992014010411004+77683+014783FM-12+000699999V0200601N012019999999N999999999-00371+99999101161ADDMA1999990101081MD1290019+9990REMSYN04801017 46/// /0612 11037 2//// 30108 40116 54001=EQDQ01.1    3APC3  
0132010170999992014010412004+77683+014783FM-12+000699999V0200601N012019999999N999999999-00381+99999101181ADDMA1999990101101MD1290029+9990OD139901601999REMSYN05801017 46/// /0612 11038 2//// 30110 40118 54002 333 91116=EQDQ01.2    3APC3  
0108010170999992014010413004+77683+014783FM-12+000699999V0200601N012019999999N999999999-00401+99999101181ADDMA1999990101101MD1290019+9990REMSYN04801017 46/// /0612 11040 2//// 30110 40118 54001=EQDQ01.1    3APC3  
0089010170999992014010414004+77683+014783FM-12+000699999V0200601N012019999999N999999999-00411+99999101221ADDMA1999990101141MD1210061+9990REMSYN04801017 46/// /0612 11041 2//// 30114 40122 52006=
0089010170999992014010415004+77683+014783FM-12+000699999V0200601N012019999999N999999999-00471+99999101211ADDMA1999990101131MD1210031+9990REMSYN04801017 46/// /0612 11047 2//// 30113 40121 52003=
0089010170999992014010416004+77683+014783FM-12+000699999V0200601N011019999999N999999999-00501+99999101231ADDMA1999990101141MD1210051+9990REMSYN04801017 46/// /0611 11050 2//// 30114 40123 52005=
0089010170999992014010417004+77683+014783FM-12+000699999V0200701N010019999999N999999999-00551+99999101301ADDMA1999990101211MD1110081+9990REMSYN04801017 46/// /0710 11055 2//// 30121 40130 51008=
0132010170999992014010418004+77683+014783FM-12+000699999V0200601N012019999999N999999999-00611+99999101321ADDKA1120M-00261MA1999990101241MD1210111+9990OD139901601999REMSYN06401017 46/// /0612 11061 2//// 30124 40132 52011 333 11026 91116=
0089010170999992014010419004+77683+014783FM-12+000699999V0200601N012019999999N999999999-00631+99999101331ADDMA1999990101241MD1310101+9990REMSYN04801017 46/// /0612 11063 2//// 30124 40133 53010=
0089010170999992014010420004+77683+014783FM-12+000699999V0200601N011019999999N999999999-00641+99999101371ADDMA1999990101291MD1210081+9990REMSYN04801017 46/// /0611 11064 2//// 30129 40137 52008=
0089010170999992014010421004+77683+014783FM-12+000699999V0200501N012019999999N999999999-00661+99999101401ADDMA1999990101321MD1210081+9990REMSYN04801017 46/// /0512 11066 2//// 30132 40140 52008=
0089010170999992014010422004+77683+014783FM-12+000699999V0200501N011019999999N999999999-00651+99999101411ADDMA1999990101331MD1310091+9990REMSYN04801017 46/// /0511 11065 2//// 30133 40141 53009=
0089010170999992014010423004+77683+014783FM-12+000699999V0200601N008019999999N999999999-00681+99999101451ADDMA1999990101361MD1210081+9990REMSYN04801017 46/// /0608 11068 2//// 30136 40145 52008=
0113010170999992014010500004+77683+014783FM-12+000699999V0200601N010019999999N999999999-00741+99999101451ADDMA1999990101371MD1210051+9990OD139901601999REMSYN05801017 46/// /0610 11074 2//// 30137 40145 52005 333 91116=
0089010170999992014010502004+77683+014783FM-12+000699999V0200501N013019999999N999999999-00871+99999101531ADDMA1999990101441MD1110081+9990REMSYN04801017 46/// /0513 11087 2//// 30144 40153 51008=
0089010170999992014010503004+77683+014783FM-12+000699999V0200501N014019999999N999999999-00971+99999101551ADDMA1999990101471MD1210101+9990REMSYN04801017 46/// /0514 11097 2//// 30147 40155 52010=
0089010170999992014010504004+77683+014783FM-12+000699999V0200501N014019999999N999999999-00991+99999101571ADDMA1999990101481MD1210081+9990REMSYN04801017 46/// /0514 11099 2//// 30148 40157 52008=
0089010170999992014010505004+77683+014783FM-12+000699999V0200601N013019999999N999999999-01071+99999101591ADDMA1999990101501MD1210061+9990REMSYN04801017 46/// /0613 11107 2//// 30150 40159 52006=
0089010170999992014010506004+77683+014783FM-12+000699999V0200601N013019999999N999999999-01101+99999101601ADDMA1999990101521MD1210051+9990REMSYN04801017 46/// /0613 11110 2//// 30152 40160 52005=
0089010170999992014010507004+77683+014783FM-12+000699999V0200701N011019999999N999999999-01111+99999101651ADDMA1999990101561MD1210081+9990REMSYN04801017 46/// /0711 11111 2//// 30156 40165 52008=
0089010170999992014010508004+77683+014783FM-12+000699999V0200801N008019999999N999999999-01161+99999101671ADDMA1999990101591MD1210081+9990REMSYN04801017 46/// /0808 11116 2//// 30159 40167 52008=
0089010170999992014010509004+77683+014783FM-12+000699999V0200801N008019999999N999999999-01171+99999101691ADDMA1999990101611MD1210091+9990REMSYN04801017 46/// /0808 11117 2//// 30161 40169 52009=
0089010170999992014010510004+77683+014783FM-12+000699999V0200901N007019999999N999999999-01231+99999101711ADDMA1999990101621MD1210061+9990REMSYN04801017 46/// /0907 11123 2//// 30162 40171 52006=
0089010170999992014010511004+77683+014783FM-12+000699999V0200801N008019999999N999999999-01221+99999101731ADDMA1999990101641MD1210051+9990REMSYN04801017 46/// /0808 11122 2//// 30164 40173 52005=
0113010170999992014010512004+77683+014783FM-12+000699999V0201101N008019999999N999999999-01251+99999101761ADDMA1999990101671MD1210061+9990OD139901601999REMSYN05801017 46/// /1108 11125 2//// 30167 40176 52006 333 91116=
0089010170999992014010513004+77683+014783FM-12+000699999V0201201N008019999999N999999999-01231+99999101751ADDMA1999990101671MD1210041+9990REMSYN04801017 46/// /1208 11123 2//// 30167 40175 52004=
0089010170999992014010514004+77683+014783FM-12+000699999V0201001N007019999999N999999999-01181+99999101771ADDMA1999990101691MD1210051+9990REMSYN04801017 46/// /1007 11118 2//// 30169 40177 52005=
0108010170999992014010515004+77683+014783FM-12+000699999V0200801N007019999999N999999999-01191+99999101781ADDMA1999990101691MD1290029+9990REMSYN04801017 46/// /0807 11119 2//// 30169 40178 54003=EQDQ01.3    3APC3  
0089010170999992014010517004+77683+014783FM-12+000699999V0201001N008019999999N999999999-01221+99999101821ADDMA1999990101731MD1210051+9990REMSYN04801017 46/// /1008 11122 2//// 30173 40182 52005=
0089010170999992014010518004+77683+014783FM-12+000699999V0201001N007019999999N999999999-01221+99999101831ADDMA1999990101751MD1210051+9990REMSYN04801017 46/// /1007 11122 2//// 30175 40183 52005=
0089010170999992014010519004+77683+014783FM-12+000699999V0201001N007019999999N999999999-01211+99999101841ADDMA1999990101761MD1210041+9990REMSYN04801017 46/// /1007 11121 2//// 30176 40184 52004=
0089010170999992014010520004+77683+014783FM-12+000699999V0200801N008019999999N999999999-01201+99999101821ADDMA1999990101741MD1510001+9990REMSYN04801017 46/// /0808 11120 2//// 30174 40182 55000=
0108010170999992014010521004+77683+014783FM-12+000699999V0200901N007019999999N999999999-01181+99999101861ADDMA1999990101771MD1290039+9990REMSYN04801017 46/// /0907 11118 2//// 30177 40186 54003=EQDQ01.3    3APC3  
0089010170999992014010522004+77683+014783FM-12+000699999V0201201N008019999999N999999999-01171+99999101881ADDMA1999990101801MD1110041+9990REMSYN04801017 46/// /1208 11117 2//// 30180 40188 51004=
0089010170999992014010523004+77683+014783FM-12+000699999V0200901N007019999999N999999999-01201+99999101891ADDMA1999990101801MD1310061+9990REMSYN04801017 46/// /0907 11120 2//// 30180 40189 53006=
0113010170999992014010600004+77683+014783FM-12+000699999V0200901N007019999999N999999999-01181+99999101911ADDMA1999990101821MD1210051+9990OD139901301999REMSYN05801017 46/// /0907 11118 2//// 30182 40191 52005 333 91113=
0089010170999992014010601004+77683+014783FM-12+000699999V0201101N006019999999N999999999-01181+99999101921ADDMA1999990101831MD1210041+9990REMSYN04801017 46/// /1106 11118 2//// 30183 40192 52004=
0089010170999992014010602004+77683+014783FM-12+000699999V0201301N007019999999N999999999-01211+99999101941ADDMA1999990101851MD1210051+9990REMSYN04801017 46/// /1307 11121 2//// 30185 40194 52005=
0089010170999992014010603004+77683+014783FM-12+000699999V0201201N008019999999N999999999-01221+99999101971ADDMA1999990101891MD1210071+9990REMSYN04801017 46/// /1208 11122 2//// 30189 40197 52007=
0089010170999992014010604004+77683+014783FM-12+000699999V0201101N006019999999N999999999-01211+99999101981ADDMA1999990101891MD1210061+9990REMSYN04801017 46/// /1106 11121 2//// 30189 40198 52006=
0089010170999992014010605004+77683+014783FM-12+000699999V0201201N008019999999N999999999-01171+99999101981ADDMA1999990101891MD1310041+9990REMSYN04801017 46/// /1208 11117 2//// 30189 40198 53004=
0151010170999992014010606004+77683+014783FM-12+000699999V0201001N006019999999N999999999-01171+99999101961ADDKA1240N-01241MA1999990101881MD1790019+9990OD139901201999REMSYN06401017 46/// /1006 11117 2//// 30188 40196 54001 333 21124 91112=EQDQ01.1    3APC3  
0089010170999992014010607004+77683+014783FM-12+000699999V0200901N007019999999N999999999-01161+99999102021ADDMA1999990101931MD1110041+9990REMSYN04801017 46/// /0907 11116 2//// 30193 40202 51004=
0108010170999992014010608004+77683+014783FM-12+000699999V0200701N006019999999N999999999-01111+99999102001ADDMA1999990101921MD1290029+9990REMSYN04801017 46/// /0706 11111 2//// 30192 40200 54003=EQDQ01.3    3APC3  
0089010170999992014010609004+77683+014783FM-12+000699999V0200601N010019999999N999999999-01081+99999102001ADDMA1999990101911MD1310031+9990REMSYN04801017 46/// /0610 11108 2//// 30191 40200 53003=
0108010170999992014010611004+77683+014783FM-12+000699999V0200501N011019999999N999999999-01021+99999102021ADDMA1999990101931MD1290029+9990REMSYN04801017 46/// /0511 11102 2//// 30193 40202 54002=EQDQ01.2    3APC3  
0089010170999992014010612004+77683+014783FM-12+000699999V0200601N010019999999N999999999-01021+99999102041ADDMA1999990101951MD1210041+9990REMSYN04801017 46/// /0610 11102 2//// 30195 40204 52004=
0089010170999992014010613004+77683+014783FM-12+000699999V0200501N011019999999N999999999-01021+99999102051ADDMA1999990101971MD1210051+9990REMSYN04801017 46/// /0511 11102 2//// 30197 40205 52005=
0108010170999992014010614004+77683+014783FM-12+000699999V0200501N011019999999N999999999-01001+99999102051ADDMA1999990101961MD1290039+9990REMSYN04801017 46/// /0511 11100 2//// 30196 40205 54003=EQDQ01.3    3APC3  
0108010170999992014010615004+77683+014783FM-12+000699999V0200601N010019999999N999999999-01011+99999102051ADDMA1999990101971MD1290019+9990REMSYN04801017 46/// /0610 11101 2//// 30197 40205 54001=EQDQ01.1    3APC3  
0108010170999992014010616004+77683+014783FM-12+000699999V0200501N011019999999N999999999-01011+99999102051ADDMA1999990101961MD1410009+9990REMSYN04801017 46/// /0511 11101 2//// 30196 40205 54001=EQDQ01.1    3APC3  
0108010170999992014010617004+77683+014783FM-12+000699999V0200501N012019999999N999999999-01041+99999102041ADDMA1999990101951MD1790019+9990REMSYN04801017 46/// /0512 11104 2//// 30195 40204 54001=EQDQ01.1    3APC3  
0113010170999992014010618004+77683+014783FM-12+000699999V0200501N012019999999N999999999-01101+99999102051ADDMA1999990101971MD1410001+9990OD139901501999REMSYN05801017 46/// /0512 11110 2//// 30197 40205 54000 333 91115=
0089010170999992014010619004+77683+014783FM-12+000699999V0200501N011019999999N999999999-01121+99999102091ADDMA1999990102001MD1110041+9990REMSYN04801017 46/// /0511 11112 2//// 30200 40209 51004=
0089010170999992014010620004+77683+014783FM-12+000699999V0200501N011019999999N999999999-01121+99999102101ADDMA1999990102021MD1210071+9990REMSYN04801017 46/// /0511 11112 2//// 30202 40210 52007=
0089010170999992014010621004+77683+014783FM-12+000699999V0200501N011019999999N999999999-01171+99999102121ADDMA1999990102041MD1210071+9990REMSYN04801017 46/// /0511 11117 2//// 30204 40212 52007=
0089010170999992014010622004+77683+014783FM-12+000699999V0200501N011019999999N999999999-01181+99999102141ADDMA1999990102051MD1210051+9990REMSYN04801017 46/// /0511 11118 2//// 30205 40214 52005=
0089010170999992014010623004+77683+014783FM-12+000699999V0200501N012019999999N999999999-01201+99999102151ADDMA1999990102071MD1210051+9990REMSYN04801017 46/// /0512 11120 2//// 30207 40215 52005=
0132010170999992014010700004+77683+014783FM-12+000699999V0200501N011019999999N999999999-01191+99999102151ADDMA1999990102071MD1290039+9990OD139901401999REMSYN05801017 46/// /0511 11119 2//// 30207 40215 54003 333 91114=EQDQ01.3    3APC3  
0108010170999992014010701004+77683+014783FM-12+000699999V0200501N012019999999N999999999-01181+99999102161ADDMA1999990102071MD1290029+9990REMSYN04801017 46/// /0512 11118 2//// 30207 40216 54002=EQDQ01.2    3APC3  
0108010170999992014010702004+77683+014783FM-12+000699999V0200501N011019999999N999999999-01151+99999102141ADDMA1999990102061MD1790019+9990REMSYN04801017 46/// /0511 11115 2//// 30206 40214 54001=EQDQ01.1    3APC3  
0108010170999992014010703004+77683+014783FM-12+000699999V0200501N011019999999N999999999-01131+99999102141ADDMA1999990102051MD1790019+9990REMSYN04801017 46/// /0511 11113 2//// 30205 40214 54002=EQDQ01.2    3APC3  
0108010170999992014010704004+77683+014783FM-12+000699999V0200501N010019999999N999999999-01091+99999102141ADDMA1999990102051MD1790029+9990REMSYN04801017 46/// /0510 11109 2//// 30205 40214 54002=EQDQ01.2    3APC3  
0108010170999992014010705004+77683+014783FM-12+000699999V0200501N009019999999N999999999-01061+99999102131ADDMA1999990102051MD1790019+9990REMSYN04801017 46/// /0509 11106 2//// 30205 40213 54001=EQDQ01.1    3APC3  
0151010170999992014010706004+77683+014783FM-12+000699999V0200501N008019999999N999999999-01041+99999102131ADDKA1240N-01221MA1999990102041MD1790019+9990OD139901301999REMSYN06401017 46/// /0508 11104 2//// 30204 40213 54001 333 21122 91113=EQDQ01.1    3APC3  
0108010170999992014010707004+77683+014783FM-12+000699999V0200601N008019999999N999999999-01021+99999102151ADDMA1999990102071MD1290019+9990REMSYN04801017 46/// /0608 11102 2//// 30207 40215 54002=EQDQ01.2    3APC3  
0089010170999992014010708004+77683+014783FM-12+000699999V0200601N008019999999N999999999-01031+99999102191ADDMA1999990102101MD1110051+9990REMSYN04801017 46/// /0608 11103 2//// 30210 40219 51005=
0089010170999992014010709004+77683+014783FM-12+000699999V0200601N008019999999N999999999-01041+99999102211ADDMA1999990102131MD1210091+9990REMSYN04801017 46/// /0608 11104 2//// 30213 40221 52009=
0089010170999992014010710004+77683+014783FM-12+000699999V0200501N009019999999N999999999-01041+99999102241ADDMA1999990102161MD1210091+9990REMSYN04801017 46/// /0509 11104 2//// 30216 40224 52009=
0089010170999992014010711004+77683+014783FM-12+000699999V0200501N009019999999N999999999-01081+99999102271ADDMA1999990102181MD1210081+9990REMSYN04801017 46/// /0509 11108 2//// 30218 40227 52008=
0113010170999992014010712004+77683+014783FM-12+000699999V0200501N009019999999N999999999-01091+99999102281ADDMA1999990102201MD1210071+9990OD139901301999REMSYN05801017 46/// /0509 11109 2//// 30220 40228 52007 333 91113=
0089010170999992014010713004+77683+014783FM-12+000699999V0200501N009019999999N999999999-01111+99999102301ADDMA1999990102221MD1210061+9990REMSYN04801017 46/// /0509 11111 2//// 30222 40230 52006=
0089010170999992014010714004+77683+014783FM-12+000699999V0200601N010019999999N999999999-01161+99999102311ADDMA1999990102231MD1210051+9990REMSYN04801017 46/// /0610 11116 2//// 30223 40231 52005=
0089010170999992014010715004+77683+014783FM-12+000699999V0200601N009019999999N999999999-01221+99999102331ADDMA1999990102251MD1210051+9990REMSYN04801017 46/// /0609 11122 2//// 30225 40233 52005=
0108010170999992014010716004+77683+014783FM-12+000699999V0200501N010019999999N999999999-01211+99999102331ADDMA1999990102241MD1290039+9990REMSYN04801017 46/// /0510 11121 2//// 30224 40233 54002=EQDQ01.2    3APC3  
0108010170999992014010717004+77683+014783FM-12+000699999V0200501N010019999999N999999999-01231+99999102341ADDMA1999990102251MD1290039+9990REMSYN04801017 46/// /0510 11123 2//// 30225 40234 54002=EQDQ01.2    3APC3  
0132010170999992014010718004+77683+014783FM-12+000699999V0200501N010019999999N999999999-01291+99999102381ADDKA1120M-01011MA1999990102291MD1110051+9990OD139901301999REMSYN06401017 46/// /0510 11129 2//// 30229 40238 51005 333 11101 91113=
0089010170999992014010719004+77683+014783FM-12+000699999V0200501N009019999999N999999999-01261+99999102401ADDMA1999990102311MD1210071+9990REMSYN04801017 46/// /0509 11126 2//// 30231 40240 52007=
0089010170999992014010720004+77683+014783FM-12+000699999V0200501N008019999999N999999999-01271+99999102411ADDMA1999990102331MD1210071+9990REMSYN04801017 46/// /0508 11127 2//// 30233 40241 52007=
0089010170999992014010721004+77683+014783FM-12+000699999V0200501N009019999999N999999999-01251+99999102441ADDMA1999990102351MD1210061+9990REMSYN04801017 46/// /0509 11125 2//// 30235 40244 52006=
0089010170999992014010722004+77683+014783FM-12+000699999V0200501N007019999999N999999999-01241+99999102471ADDMA1999990102391MD1210071+9990REMSYN04801017 46/// /0507 11124 2//// 30239 40247 52007=
0089010170999992014010723004+77683+014783FM-12+000699999V0200601N009019999999N999999999-01211+99999102481ADDMA1999990102401MD1210071+9990REMSYN04801017 46/// /0609 11121 2//// 30240 40248 52007=
0113010170999992014010800004+77683+014783FM-12+000699999V0200501N008019999999N999999999-01201+99999102491ADDMA1999990102401MD1210051+9990OD139901201999REMSYN05801017 46/// /0508 11120 2//// 30240 40249 52005 333 91112=
0089010170999992014010801004+77683+014783FM-12+000699999V0200401N009019999999N999999999-01201+99999102471ADDMA1999990102391MD1410001+9990REMSYN04801017 46/// /0409 11120 2//// 30239 40247 54000=
0108010170999992014010802004+77683+014783FM-12+000699999V0200501N009019999999N999999999-01201+99999102481ADDMA1999990102391MD1410009+9990REMSYN04801017 46/// /0509 11120 2//// 30239 40248 54001=EQDQ01.1    3APC3  
0089010170999992014010803004+77683+014783FM-12+000699999V0200501N009019999999N999999999-01181+99999102461ADDMA1999990102371MD1710031+9990REMSYN04801017 46/// /0509 11118 2//// 30237 40246 57003=
0108010170999992014010804004+77683+014783FM-12+000699999V0200401N009019999999N999999999-01181+99999102471ADDMA1999990102381MD1410009+9990REMSYN04801017 46/// /0409 11118 2//// 30238 40247 54001=EQDQ01.1    3APC3  
0108010170999992014010805004+77683+014783FM-12+000699999V0200401N008019999999N999999999-01211+99999102461ADDMA1999990102371MD1790029+9990REMSYN04801017 46/// /0408 11121 2//// 30237 40246 54002=EQDQ01.2    3APC3  
0151010170999992014010806004+77683+014783FM-12+000699999V0200501N008019999999N999999999-01141+99999102451ADDKA1240N-01311MA1999990102371MD1790019+9990OD139901201999REMSYN06401017 46/// /0508 11114 2//// 30237 40245 54001 333 21131 91112=EQDQ01.1    3APC3  
0108010170999992014010807004+77683+014783FM-12+000699999V0200501N009019999999N999999999-01221+99999102461ADDMA1999990102371MD1790019+9990REMSYN04801017 46/// /0509 11122 2//// 30237 40246 54001=EQDQ01.1    3APC3  
0089010170999992014010808004+77683+014783FM-12+000699999V0200501N008019999999N999999999-01171+99999102461ADDMA1999990102371MD1410001+9990REMSYN04801017 46/// /0508 11117 2//// 30237 40246 54000=
0108010170999992014010809004+77683+014783FM-12+000699999V0200501N008019999999N999999999-01101+99999102461ADDMA1999990102371MD1290019+9990REMSYN04801017 46/// /0508 11110 2//// 30237 40246 54001=EQDQ01.1    3APC3  
0108010170999992014010810004+77683+014783FM-12+000699999V0200401N008019999999N999999999-01161+99999102481ADDMA1999990102391MD1290029+9990REMSYN04801017 46/// /0408 11116 2//// 30239 40248 54002=EQDQ01.2    3APC3  
0089010170999992014010811004+77683+014783FM-12+000699999V0200401N008019999999N999999999-01141+99999102501ADDMA1999990102421MD1210041+9990REMSYN04801017 46/// /0408 11114 2//// 30242 40250 52004=
0113010170999992014010812004+77683+014783FM-12+000699999V0200701N007019999999N999999999-01131+99999102481ADDMA1999990102401MD1510021+9990OD139901101999REMSYN05801017 46/// /0707 11113 2//// 30240 40248 55002 333 91111=
0108010170999992014010813004+77683+014783FM-12+000699999V0200401N007019999999N999999999-01151+99999102491ADDMA1999990102401MD1290019+9990REMSYN04801017 46/// /0407 11115 2//// 30240 40249 54001=EQDQ01.1    3APC3  
0108010170999992014010814004+77683+014783FM-12+000699999V0200601N006019999999N999999999-01111+99999102491ADDMA1999990102401MD1790019+9990REMSYN04801017 46/// /0606 11111 2//// 30240 40249 54001=EQDQ01.1    3APC3  
0089010170999992014010815004+77683+014783FM-12+000699999V0200501N007019999999N999999999-01141+99999102451ADDMA1999990102361MD1610041+9990REMSYN04801017 46/// /0507 11114 2//// 30236 40245 56004=
0089010170999992014010817004+77683+014783FM-12+000699999V0200401N007019999999N999999999-01171+99999102391ADDMA1999990102301MD1710101+9990REMSYN04801017 46/// /0407 11117 2//// 30230 40239 57010=
0089010170999992014010818004+77683+014783FM-12+000699999V0200401N006019999999N999999999-01181+99999102401ADDMA1999990102311MD1810051+9990REMSYN04801017 46/// /0406 11118 2//// 30231 40240 58005=
0089010170999992014010819004+77683+014783FM-12+000699999V0200501N006019999999N999999999-01161+99999102381ADDMA1999990102301MD1710041+9990REMSYN04801017 46/// /0506 11116 2//// 30230 40238 57004=
0089010170999992014010820004+77683+014783FM-12+000699999V0200501N006019999999N999999999-01181+99999102391ADDMA1999990102301MD1410001+9990REMSYN04801017 46/// /0506 11118 2//// 30230 40239 54000=
0089010170999992014010821004+77683+014783FM-12+000699999V0200501N007019999999N999999999-01191+99999102371ADDMA1999990102281MD1710031+9990REMSYN04801017 46/// /0507 11119 2//// 30228 40237 57003=
0089010170999992014010822004+77683+014783FM-12+000699999V0200401N007019999999N999999999-01171+99999102321ADDMA1999990102241MD1610061+9990REMSYN04801017 46/// /0407 11117 2//// 30224 40232 56006=
0089010170999992014010823004+77683+014783FM-12+000699999V0200401N006019999999N999999999-01141+99999102311ADDMA1999990102221MD1710081+9990REMSYN04801017 46/// /0406 11114 2//// 30222 40231 57008=
0113010170999992014010900004+77683+014783FM-12+000699999V0200501N006019999999N999999999-01091+99999102291ADDMA1999990102201MD1710081+9990OD139900901999REMSYN05801017 46/// /0506 11109 2//// 30220 40229 57008 333 91109=
0094010170999992014010901004+77683+014783FM-12+000699999V0200401N006019999999N999999999-01121+99999102301ADDMA1999990102211REMSYN04801017 46/// /0406 11112 2//// 30221 40230 54002=EQDQ014     3APCTEN
0089010170999992014010902004+77683+014783FM-12+000699999V0200501N005019999999N999999999-01071+99999102271ADDMA1999990102181MD1710041+9990REMSYN04801017 46/// /0505 11107 2//// 30218 40227 57004=
0089010170999992014010903004+77683+014783FM-12+000699999V0200501N005019999999N999999999-01061+99999102241ADDMA1999990102161MD1610041+9990REMSYN04801017 46/// /0505 11106 2//// 30216 40224 56004=
0089010170999992014010904004+77683+014783FM-12+000699999V0200501N005019999999N999999999-01001+99999102181ADDMA1999990102101MD1710111+9990REMSYN04801017 46/// /0505 11100 2//// 30210 40218 57011=
0089010170999992014010905004+77683+014783FM-12+000699999V0200401N005019999999N999999999-01011+99999102171ADDMA1999990102081MD1710101+9990REMSYN04801017 46/// /0405 11101 2//// 30208 40217 57010=
0132010170999992014010906004+77683+014783FM-12+000699999V0200401N004019999999N999999999-00981+99999102181ADDKA1240N-01211MA1999990102091MD1810061+9990OD139900801999REMSYN06401017 46/// /0404 11098 2//// 30209 40218 58006 333 21121 91108=
0108010170999992014010907004+77683+014783FM-12+000699999V0200301N003019999999N999999999-00941+99999102171ADDMA1999990102091MD1790019+9990REMSYN04801017 46/// /0303 11094 2//// 30209 40217 54001=EQDQ01.1    3APC3  
0108010170999992014010908004+77683+014783FM-12+000699999V0200101N003019999999N999999999-00911+99999102181ADDMA1999990102091MD1290019+9990REMSYN04801017 46/// /0103 11091 2//// 30209 40218 54001=EQDQ01.1    3APC3  
0089010170999992014010909004+77683+014783FM-12+000699999V0200101N004019999999N999999999-00921+99999102151ADDMA1999990102061MD1710031+9990REMSYN04801017 46/// /0104 11092 2//// 30206 40215 57003=
0089010170999992014010910004+77683+014783FM-12+000699999V0200101N004019999999N999999999-00881+99999102131ADDMA1999990102041MD1710051+9990REMSYN04801017 46/// /0104 11088 2//// 30204 40213 57005=
0089010170999992014010911004+77683+014783FM-12+000699999V0203501N004019999999N999999999-00811+99999102071ADDMA1999990101981MD1710111+9990REMSYN04801017 46/// /3504 11081 2//// 30198 40207 57011=
0113010170999992014010912004+77683+014783FM-12+000699999V0202401N003019999999N999999999-00611+99999101991ADDMA1999990101901MD1610161+9990OD139900701999REMSYN05801017 46/// /2403 11061 2//// 30190 40199 56016 333 91107=
0089010170999992014010913004+77683+014783FM-12+000699999V0201901N007019999999N999999999-00401+99999101871ADDMA1999990101791MD1610251+9990REMSYN04801017 46/// /1907 11040 2//// 30179 40187 56025=
0089010170999992014010914004+77683+014783FM-12+000699999V0201901N007019999999N999999999-00391+99999101791ADDMA1999990101711MD1710271+9990REMSYN04801017 46/// /1907 11039 2//// 30171 40179 57027=
0089010170999992014010915004+77683+014783FM-12+000699999V0201801N009019999999N999999999-00401+99999101721ADDMA1999990101641MD1810271+9990REMSYN04801017 46/// /1809 11040 2//// 30164 40172 58027=
0089010170999992014010916004+77683+014783FM-12+000699999V0201801N010019999999N999999999-00361+99999101641ADDMA1999990101561MD1710231+9990REMSYN04801017 46/// /1810 11036 2//// 30156 40164 57023=
0089010170999992014010917004+77683+014783FM-12+000699999V0201801N011019999999N999999999-00341+99999101561ADDMA1999990101481MD1710231+9990REMSYN04801017 46/// /1811 11034 2//// 30148 40156 57023=
0132010170999992014010918004+77683+014783FM-12+000699999V0201901N010019999999N999999999-00321+99999101521ADDKA1120M-00281MA1999990101441MD1810201+9990OD139901401999REMSYN06401017 46/// /1910 11032 2//// 30144 40152 58020 333 11028 91114=
0089010170999992014010919004+77683+014783FM-12+000699999V0201801N010019999999N999999999-00291+99999101451ADDMA1999990101371MD1710191+9990REMSYN04801017 46/// /1810 11029 2//// 30137 40145 57019=
0089010170999992014010920004+77683+014783FM-12+000699999V0201801N011019999999N999999999-00271+99999101341ADDMA1999990101261MD1610221+9990REMSYN04801017 46/// /1811 11027 2//// 30126 40134 56022=
0089010170999992014010921004+77683+014783FM-12+000699999V0201801N010019999999N999999999-00301+99999101291ADDMA1999990101211MD1710231+9990REMSYN04801017 46/// /1810 11030 2//// 30121 40129 57023=
0089010170999992014010922004+77683+014783FM-12+000699999V0201801N009019999999N999999999-00311+99999101281ADDMA1999990101191MD1810181+9990REMSYN04801017 46/// /1809 11031 2//// 30119 40128 58018=
0089010170999992014010923004+77683+014783FM-12+000699999V0201801N007019999999N999999999-00221+99999101211ADDMA1999990101131MD1710131+9990REMSYN04801017 46/// /1807 11022 2//// 30113 40121 57013=
0113010170999992014011000004+77683+014783FM-12+000699999V0201901N008019999999N999999999-00161+99999101151ADDMA1999990101071MD1610141+9990OD139901601999REMSYN05801017 46/// /1908 11016 2//// 30107 40115 56014 333 91116=
0089010170999992014011001004+77683+014783FM-12+000699999V0201901N008019999999N999999999-00161+99999101051ADDMA1999990100961MD1610231+9990REMSYN04801017 46/// /1908 11016 2//// 30096 40105 56023=
0089010170999992014011002004+77683+014783FM-12+000699999V0201901N008019999999N999999999-00131+99999100991ADDMA1999990100901MD1710231+9990REMSYN04801017 46/// /1908 11013 2//// 30090 40099 57023=
0089010170999992014011003004+77683+014783FM-12+000699999V0201901N008019999999N999999999-00121+99999100901ADDMA1999990100821MD1710251+9990REMSYN04801017 46/// /1908 11012 2//// 30082 40090 57025=
0089010170999992014011004004+77683+014783FM-12+000699999V0201901N007019999999N999999999-00121+99999100841ADDMA1999990100761MD1710201+9990REMSYN04801017 46/// /1907 11012 2//// 30076 40084 57020=
0089010170999992014011005004+77683+014783FM-12+000699999V0201901N007019999999N999999999-00101+99999100791ADDMA1999990100711MD1810191+9990REMSYN04801017 46/// /1907 11010 2//// 30071 40079 58019=
0132010170999992014011006004+77683+014783FM-12+000699999V0202001N007019999999N999999999-00041+99999100721ADDKA1240N-00371MA1999990100641MD1710181+9990OD139901101999REMSYN06401017 46/// /2007 11004 2//// 30064 40072 57018 333 21037 91111=
0089010170999992014011007004+77683+014783FM-12+000699999V0202001N009019999999N999999999-00071+99999100681ADDMA1999990100591MD1710171+9990REMSYN04801017 46/// /2009 11007 2//// 30059 40068 57017=
0089010170999992014011008004+77683+014783FM-12+000699999V0202101N008019999999N999999999-00031+99999100691ADDMA1999990100611MD1810101+9990REMSYN04801017 46/// /2108 11003 2//// 30061 40069 58010=
0089010170999992014011009004+77683+014783FM-12+000699999V0202301N006019999999N999999999-00021+99999100751ADDMA1999990100671MD1900031+9990REMSYN04801017 46/// /2306 11002 2//// 30067 40075 50003=
0089010170999992014011010004+77683+014783FM-12+000699999V0202401N006019999999N999999999-00061+99999100741ADDMA1999990100661MD1210071+9990REMSYN04801017 46/// /2406 11006 2//// 30066 40074 52007=
0089010170999992014011011004+77683+014783FM-12+000699999V0202301N005019999999N999999999-00061+99999100741ADDMA1999990100661MD1310051+9990REMSYN04801017 46/// /2305 11006 2//// 30066 40074 53005=
0132010170999992014011012004+77683+014783FM-12+000699999V0202301N005019999999N999999999-00061+99999100731ADDMA1999990100641MD1790029+9990OD139901101999REMSYN05801017 46/// /2305 11006 2//// 30064 40073 54002 333 91111=EQDQ01.2    3APC3  
0089010170999992014011013004+77683+014783FM-12+000699999V0202301N005019999999N999999999-00041+99999100751ADDMA1999990100661MD1410001+9990REMSYN04801017 46/// /2305 11004 2//// 30066 40075 54000=
0089010170999992014011014004+77683+014783FM-12+000699999V0202601N003019999999N999999999-00081+99999100761ADDMA1999990100681MD1900021+9990REMSYN04801017 46/// /2603 11008 2//// 30068 40076 50002=
0089010170999992014011015004+77683+014783FM-12+000699999V0202301N003019999999N999999999-00081+99999100741ADDMA1999990100661MD1510011+9990REMSYN04801017 46/// /2303 11008 2//// 30066 40074 55001=
0108010170999992014011016004+77683+014783FM-12+000699999V0202501N005019999999N999999999-00101+99999100761ADDMA1999990100671MD1290019+9990REMSYN04801017 46/// /2505 11010 2//// 30067 40076 54001=EQDQ01.1    3APC3  
0089010170999992014011017004+77683+014783FM-12+000699999V0202401N005019999999N999999999-00111+99999100781ADDMA1999990100701MD1900021+9990REMSYN04801017 46/// /2405 11011 2//// 30070 40078 50002=
0132010170999992014011018004+77683+014783FM-12+000699999V0202301N005019999999N999999999-00111+99999100801ADDKA1120M-00021MA1999990100711MD1210061+9990OD139900701999REMSYN06401017 46/// /2305 11011 2//// 30071 40080 52006 333 11002 91107=
0089010170999992014011019004+77683+014783FM-12+000699999V0202501N004019999999N999999999-00121+99999100841ADDMA1999990100761MD1210091+9990REMSYN04801017 46/// /2504 11012 2//// 30076 40084 52009=
0089010170999992014011020004+77683+014783FM-12+000699999V0202101N003019999999N999999999-00101+99999100861ADDMA1999990100781MD1210081+9990REMSYN04801017 46/// /2103 11010 2//// 30078 40086 52008=
0089010170999992014011021004+77683+014783FM-12+000699999V0202201N003019999999N999999999-00091+99999100881ADDMA1999990100791MD1210081+9990REMSYN04801017 46/// /2203 11009 2//// 30079 40088 52008=
0089010170999992014011022004+77683+014783FM-12+000699999V0202301N005019999999N999999999-00091+99999100881ADDMA1999990100801MD1210041+9990REMSYN04801017 46/// /2305 11009 2//// 30080 40088 52004=
0089010170999992014011023004+77683+014783FM-12+000699999V0202401N005019999999N999999999-00081+99999100911ADDMA1999990100821MD1210051+9990REMSYN04801017 46/// /2405 11008 2//// 30082 40091 52005=
0113010170999992014011100004+77683+014783FM-12+000699999V0202201N005019999999N999999999-00061+99999100921ADDMA1999990100841MD1210051+9990OD139900701999REMSYN05801017 46/// /2205 11006 2//// 30084 40092 52005 333 91107=
0089010170999992014011101004+77683+014783FM-12+000699999V0202501N005019999999N999999999-00041+99999100941ADDMA1999990100861MD1210061+9990REMSYN04801017 46/// /2505 11004 2//// 30086 40094 52006=
0089010170999992014011102004+77683+014783FM-12+000699999V0202401N004019999999N999999999-00031+99999100941ADDMA1999990100861MD1210031+9990REMSYN04801017 46/// /2404 11003 2//// 30086 40094 52003=
0108010170999992014011103004+77683+014783FM-12+000699999V0202501N005019999999N999999999-00021+99999100951ADDMA1999990100871MD1290039+9990REMSYN04801017 46/// /2505 11002 2//// 30087 40095 54003=EQDQ01.3    3APC3  
0108010170999992014011104004+77683+014783FM-12+000699999V0202701N005019999999N999999999-00041+99999100961ADDMA1999990100881MD1290029+9990REMSYN04801017 46/// /2705 11004 2//// 30088 40096 54003=EQDQ01.3    3APC3  
0089010170999992014011105004+77683+014783FM-12+000699999V0202601N005019999999N999999999-00031+99999100971ADDMA1999990100891MD1210031+9990REMSYN04801017 46/// /2605 11003 2//// 30089 40097 52003=
0132010170999992014011106004+77683+014783FM-12+000699999V0202601N004019999999N999999999-00051+99999100991ADDKA1240N-00121MA1999990100911MD1210041+9990OD139900701999REMSYN06401017 46/// /2604 11005 2//// 30091 40099 52004 333 21012 91107=
0089010170999992014011107004+77683+014783FM-12+000699999V0202501N004019999999N999999999-00021+99999101001ADDMA1999990100921MD1210041+9990REMSYN04801017 46/// /2504 11002 2//// 30092 40100 52004=
0089010170999992014011108004+77683+014783FM-12+000699999V0202701N006019999999N999999999-00011+99999101041ADDMA1999990100951MD1210071+9990REMSYN04801017 46/// /2706 11001 2//// 30095 40104 52007=
0089010170999992014011109004+77683+014783FM-12+000699999V0202601N004019999999N999999999-00021+99999101081ADDMA1999990101001MD1110091+9990REMSYN04801017 46/// /2604 11002 2//// 30100 40108 51009=
0089010170999992014011110004+77683+014783FM-12+000699999V0202501N005019999999N999999999-00011+99999101101ADDMA1999990101011MD1210091+9990REMSYN04801017 46/// /2505 11001 2//// 30101 40110 52009=
0089010170999992014011111004+77683+014783FM-12+000699999V0202501N005019999999N999999999-00031+99999101091ADDMA1999990101011MD1310051+9990REMSYN04801017 46/// /2505 11003 2//// 30101 40109 53005=
0132010170999992014011112004+77683+014783FM-12+000699999V0202801N005019999999N999999999-00031+99999101111ADDMA1999990101031MD1290039+9990OD139900801999REMSYN05801017 46/// /2805 11003 2//// 30103 40111 54003 333 91108=EQDQ01.3    3APC3  
0108010170999992014011113004+77683+014783FM-12+000699999V0202201N003019999999N999999999-00061+99999101121ADDMA1999990101031MD1290029+9990REMSYN04801017 46/// /2203 11006 2//// 30103 40112 54002=EQDQ01.2    3APC3  
0108010170999992014011114004+77683+014783FM-12+000699999V0202701N004019999999N999999999-00051+99999101121ADDMA1999990101031MD1290039+9990REMSYN04801017 46/// /2704 11005 2//// 30103 40112 54003=EQDQ01.3    3APC3  
0089010170999992014011115004+77683+014783FM-12+000699999V0202601N004019999999N999999999-00031+99999101111ADDMA1999990101031MD1410001+9990REMSYN04801017 46/// /2604 11003 2//// 30103 40111 54000=
0108010170999992014011116004+77683+014783FM-12+000699999V0202601N005019999999N999999999+00001+99999101131ADDMA1999990101051MD1290019+9990REMSYN04801017 46/// /2605 10000 2//// 30105 40113 54002=EQDQ01.2    3APC3  
0089010170999992014011117004+77683+014783FM-12+000699999V0202501N006019999999N999999999+00031+99999101151ADDMA1999990101061MD1210031+9990REMSYN04801017 46/// /2506 10003 2//// 30106 40115 52003=
0132010170999992014011118004+77683+014783FM-12+000699999V0202601N005019999999N999999999+00021+99999101181ADDKA1120M+00031MA1999990101101MD1210071+9990OD139900801999REMSYN06401017 46/// /2605 10002 2//// 30110 40118 52007 333 10003 91108=
0089010170999992014011119004+77683+014783FM-12+000699999V0202601N005019999999N999999999+00021+99999101241ADDMA1999990101151MD1110101+9990REMSYN04801017 46/// /2605 10002 2//// 30115 40124 51010=
0089010170999992014011120004+77683+014783FM-12+000699999V0202601N005019999999N999999999+00011+99999101301ADDMA1999990101221MD1210151+9990REMSYN04801017 46/// /2605 10001 2//// 30122 40130 52015=
0089010170999992014011121004+77683+014783FM-12+000699999V0202601N004019999999N999999999+00001+99999101351ADDMA1999990101261MD1210161+9990REMSYN04801017 46/// /2604 10000 2//// 30126 40135 52016=
0089010170999992014011122004+77683+014783FM-12+000699999V0202601N005019999999N999999999+00001+99999101371ADDMA1999990101291MD1310131+9990REMSYN04801017 46/// /2605 10000 2//// 30129 40137 53013=
0089010170999992014011123004+77683+014783FM-12+000699999V0202601N006019999999N999999999+00011+99999101391ADDMA1999990101311MD1210101+9990REMSYN04801017 46/// /2606 10001 2//// 30131 40139 52010=
0113010170999992014011200004+77683+014783FM-12+000699999V0202601N006019999999N999999999+00001+99999101421ADDMA1999990101341MD1210081+9990OD139900801999REMSYN05801017 46/// /2606 10000 2//// 30134 40142 52008 333 91108=
0089010170999992014011201004+77683+014783FM-12+000699999V0202601N005019999999N999999999+00001+99999101471ADDMA1999990101391MD1210111+9990REMSYN04801017 46/// /2605 10000 2//// 30139 40147 52011=
0089010170999992014011202004+77683+014783FM-12+000699999V0202901N004019999999N999999999-00011+99999101511ADDMA1999990101431MD1210121+9990REMSYN04801017 46/// /2904 11001 2//// 30143 40151 52012=
0089010170999992014011203004+77683+014783FM-12+000699999V0202901N003019999999N999999999-00031+99999101541ADDMA1999990101461MD1210121+9990REMSYN04801017 46/// /2903 11003 2//// 30146 40154 52012=
0089010170999992014011204004+77683+014783FM-12+000699999V0202801N003019999999N999999999-00041+99999101551ADDMA1999990101471MD1210081+9990REMSYN04801017 46/// /2803 11004 2//// 30147 40155 52008=
0089010170999992014011205004+77683+014783FM-12+000699999V0202701N003019999999N999999999-00031+99999101571ADDMA1999990101491MD1210061+9990REMSYN04801017 46/// /2703 11003 2//// 30149 40157 52006=
0132010170999992014011206004+77683+014783FM-12+000699999V0202301N002019999999N999999999-00031+99999101591ADDKA1240N-00051MA1999990101511MD1210051+9990OD139900701999REMSYN06401017 46/// /2302 11003 2//// 30151 40159 52005 333 21005 91107=
0089010170999992014011207004+77683+014783FM-12+000699999V0202701N002019999999N999999999-00021+99999101631ADDMA1999990101551MD1210071+9990REMSYN04801017 46/// /2702 11002 2//// 30155 40163 52007=
0089010170999992014011208004+77683+014783FM-12+000699999V0202901N003019999999N999999999-00021+99999101661ADDMA1999990101581MD1210101+9990REMSYN04801017 46/// /2903 11002 2//// 30158 40166 52010=
0089010170999992014011209004+77683+014783FM-12+000699999V0202901N003019999999N999999999-00011+99999101701ADDMA1999990101621MD1210111+9990REMSYN04801017 46/// /2903 11001 2//// 30162 40170 52011=
0089010170999992014011210004+77683+014783FM-12+000699999V0203001N003019999999N999999999-00021+99999101751ADDMA1999990101671MD1210131+9990REMSYN04801017 46/// /3003 11002 2//// 30167 40175 52013=
0089010170999992014011211004+77683+014783FM-12+000699999V0202501N002019999999N999999999-00021+99999101771ADDMA1999990101691MD1210111+9990REMSYN04801017 46/// /2502 11002 2//// 30169 40177 52011=
0113010170999992014011212004+77683+014783FM-12+000699999V0202601N002019999999N999999999-00021+99999101791ADDMA1999990101711MD1210091+9990OD139900401999REMSYN05801017 46/// /2602 11002 2//// 30171 40179 52009 333 91104=
0089010170999992014011213004+77683+014783FM-12+000699999V0202901N003019999999N999999999-00021+99999101821ADDMA1999990101731MD1210061+9990REMSYN04801017 46/// /2903 11002 2//// 30173 40182 52006=
0089010170999992014011214004+77683+014783FM-12+000699999V0202901N003019999999N999999999-00021+99999101831ADDMA1999990101751MD1210061+9990REMSYN04801017 46/// /2903 11002 2//// 30175 40183 52006=
0089010170999992014011215004+77683+014783FM-12+000699999V0202301N002019999999N999999999-00041+99999101861ADDMA1999990101781MD1210071+9990REMSYN04801017 46/// /2302 11004 2//// 30178 40186 52007=
0089010170999992014011216004+77683+014783FM-12+000699999V0202801N002019999999N999999999-00011+99999101861ADDMA1999990101781MD1210041+9990REMSYN04801017 46/// /2802 11001 2//// 30178 40186 52004=
0089010170999992014011217004+77683+014783FM-12+000699999V0203101N003019999999N999999999+00031+99999101891ADDMA1999990101811MD1210061+9990REMSYN04801017 46/// /3103 10003 2//// 30181 40189 52006=
0132010170999992014011218004+77683+014783FM-12+000699999V0203201N001019999999N999999999-00031+99999101921ADDKA1120M+00071MA1999990101841MD1210061+9990OD139900501999REMSYN06401017 46/// /3201 11003 2//// 30184 40192 52006 333 10007 91105=
0089010170999992014011219004+77683+014783FM-12+000699999V0203601N001019999999N999999999-00181+99999101941ADDMA1999990101861MD1210081+9990REMSYN04801017 46/// /3601 11018 2//// 30186 40194 52008=
0089010170999992014011220004+77683+014783FM-12+000699999V0200201N001019999999N999999999-00151+99999101981ADDMA1999990101901MD1210091+9990REMSYN04801017 46/// /0201 11015 2//// 30190 40198 52009=
0089010170999992014011221004+77683+014783FM-12+000699999V0209999C999999999999N999999999-00141+99999101991ADDMA1999990101911MD1210071+9990REMSYN04801017 46/// /0000 11014 2//// 30191 40199 52007=
0089010170999992014011222004+77683+014783FM-12+000699999V0203501N001019999999N999999999-00191+99999102011ADDMA1999990101931MD1210071+9990REMSYN04801017 46/// /3501 11019 2//// 30193 40201 52007=
0089010170999992014011223004+77683+014783FM-12+000699999V0203601N001019999999N999999999-00231+99999102031ADDMA1999990101951MD1210051+9990REMSYN04801017 46/// /3601 11023 2//// 30195 40203 52005=
0113010170999992014011300004+77683+014783FM-12+000699999V0203501N001019999999N999999999-00121+99999102051ADDMA1999990101961MD1210051+9990OD139900301999REMSYN05801017 46/// /3501 11012 2//// 30196 40205 52005 333 91103=
0089010170999992014011301004+77683+014783FM-12+000699999V0203401N002019999999N999999999-00061+99999102061ADDMA1999990101981MD1210051+9990REMSYN04801017 46/// /3402 11006 2//// 30198 40206 52005=
0089010170999992014011303004+77683+014783FM-12+000699999V0203501N001019999999N999999999-00111+99999102121ADDMA1999990102041MD1210071+9990REMSYN04801017 46/// /3501 11011 2//// 30204 40212 52007=
0089010170999992014011304004+77683+014783FM-12+000699999V0200201N001019999999N999999999-00141+99999102111ADDMA1999990102021MD1310041+9990REMSYN04801017 46/// /0201 11014 2//// 30202 40211 53004=
0089010170999992014011305004+77683+014783FM-12+000699999V0200601N001019999999N999999999-00061+99999102111ADDMA1999990102021MD1510021+9990REMSYN04801017 46/// /0601 11006 2//// 30202 40211 55002=
0151010170999992014011306004+77683+014783FM-12+000699999V0202401N001019999999N999999999-00011+99999102111ADDKA1240N-00291MA1999990102031MD1790019+9990OD139900601999REMSYN06401017 46/// /2401 11001 2//// 30203 40211 54001 333 21029 91106=EQDQ01.1    3APC3  
0108010170999992014011307004+77683+014783FM-12+000699999V0209999C999999999999N999999999+00001+99999102121ADDMA1999990102031MD1290019+9990REMSYN04801017 46/// /0000 10000 2//// 30203 40212 54001=EQDQ01.1    3APC3  
0089010170999992014011308004+77683+014783FM-12+000699999V0202301N001019999999N999999999-00031+99999102151ADDMA1999990102061MD1210041+9990REMSYN04801017 46/// /2301 11003 2//// 30206 40215 52004=
0089010170999992014011309004+77683+014783FM-12+000699999V0202301N002019999999N999999999-00031+99999102161ADDMA1999990102071MD1210051+9990REMSYN04801017 46/// /2302 11003 2//// 30207 40216 52005=
0089010170999992014011310004+77683+014783FM-12+000699999V0202001N001019999999N999999999-00051+99999102151ADDMA1999990102071MD1310031+9990REMSYN04801017 46/// /2001 11005 2//// 30207 40215 53003=
0089010170999992014011311004+77683+014783FM-12+000699999V0202501N002019999999N999999999-00051+99999102151ADDMA1999990102061MD1410001+9990REMSYN04801017 46/// /2502 11005 2//// 30206 40215 54000=
0113010170999992014011312004+77683+014783FM-12+000699999V0202801N001019999999N999999999-00071+99999102161ADDMA1999990102081MD1410001+9990OD139900501999REMSYN05801017 46/// /2801 11007 2//// 30208 40216 54000 333 91105=
0089010170999992014011313004+77683+014783FM-12+000699999V0202601N005019999999N999999999+00041+99999102151ADDMA1999990102061MD1410001+9990REMSYN04801017 46/// /2605 10004 2//// 30206 40215 54000=
0108010170999992014011314004+77683+014783FM-12+000699999V0202801N006019999999N999999999+00041+99999102141ADDMA1999990102061MD1790019+9990REMSYN04801017 46/// /2806 10004 2//// 30206 40214 54001=EQDQ01.1    3APC3  
0089010170999992014011315004+77683+014783FM-12+000699999V0202701N004019999999N999999999-00021+99999102151ADDMA1999990102071MD1410001+9990REMSYN04801017 46/// /2704 11002 2//// 30207 40215 54000=
0089010170999992014011316004+77683+014783FM-12+000699999V0202601N003019999999N999999999-00051+99999102151ADDMA1999990102071MD1410001+9990REMSYN04801017 46/// /2603 11005 2//// 30207 40215 54000=
0089010170999992014011317004+77683+014783FM-12+000699999V0202401N004019999999N999999999-00021+99999102141ADDMA1999990102061MD1410001+9990REMSYN04801017 46/// /2404 11002 2//// 30206 40214 54000=
0132010170999992014011318004+77683+014783FM-12+000699999V0203201N005019999999N999999999-00141+99999102151ADDKA1120M+00061MA1999990102071MD1410001+9990OD139900701999REMSYN06401017 46/// /3205 11014 2//// 30207 40215 54000 333 10006 91107=
0089010170999992014011319004+77683+014783FM-12+000699999V0202901N003019999999N999999999-00131+99999102191ADDMA1999990102111MD1110041+9990REMSYN04801017 46/// /2903 11013 2//// 30211 40219 51004=
0089010170999992014011320004+77683+014783FM-12+000699999V0202901N004019999999N999999999-00191+99999102221ADDMA1999990102141MD1210081+9990REMSYN04801017 46/// /2904 11019 2//// 30214 40222 52008=
0089010170999992014011321004+77683+014783FM-12+000699999V0203001N005019999999N999999999-00241+99999102251ADDMA1999990102171MD1210101+9990REMSYN04801017 46/// /3005 11024 2//// 30217 40225 52010=
0089010170999992014011322004+77683+014783FM-12+000699999V0203201N003019999999N999999999-00321+99999102311ADDMA1999990102231MD1210121+9990REMSYN04801017 46/// /3203 11032 2//// 30223 40231 52012=
0089010170999992014011323004+77683+014783FM-12+000699999V0202501N002019999999N999999999-00301+99999102351ADDMA1999990102261MD1210121+9990REMSYN04801017 46/// /2502 11030 2//// 30226 40235 52012=
0113010170999992014011400004+77683+014783FM-12+000699999V0203301N001019999999N999999999-00441+99999102391ADDMA1999990102311MD1210141+9990OD139900601999REMSYN05801017 46/// /3301 11044 2//// 30231 40239 52014 333 91106=
0089010170999992014011401004+77683+014783FM-12+000699999V0203501N002019999999N999999999-00561+99999102411ADDMA1999990102321MD1210091+9990REMSYN04801017 46/// /3502 11056 2//// 30232 40241 52009=
0089010170999992014011402004+77683+014783FM-12+000699999V0203401N003019999999N999999999-00561+99999102401ADDMA1999990102321MD1310051+9990REMSYN04801017 46/// /3403 11056 2//// 30232 40240 53005=
0108010170999992014011403004+77683+014783FM-12+000699999V0200401N004019999999N999999999-00451+99999102421ADDMA1999990102331MD1290039+9990REMSYN04801017 46/// /0404 11045 2//// 30233 40242 54002=EQDQ01.2    3APC3  
0089010170999992014011404004+77683+014783FM-12+000699999V0200401N003019999999N999999999-00491+99999102441ADDMA1999990102361MD1110041+9990REMSYN04801017 46/// /0403 11049 2//// 30236 40244 51004=
0089010170999992014011405004+77683+014783FM-12+000699999V0200501N004019999999N999999999-00481+99999102441ADDMA1999990102361MD1210041+9990REMSYN04801017 46/// /0504 11048 2//// 30236 40244 52004=
0132010170999992014011406004+77683+014783FM-12+000699999V0200501N006019999999N999999999-00531+99999102471ADDKA1240N-00641MA1999990102381MD1210051+9990OD139900601999REMSYN06401017 46/// /0506 11053 2//// 30238 40247 52005 333 21064 91106=
0108010170999992014011407004+77683+014783FM-12+000699999V0200501N005019999999N999999999-00531+99999102451ADDMA1999990102371MD1290019+9990REMSYN04801017 46/// /0505 11053 2//// 30237 40245 54001=EQDQ01.1    3APC3  
0089010170999992014011408004+77683+014783FM-12+000699999V0200501N006019999999N999999999-00571+99999102501ADDMA1999990102421MD1210061+9990REMSYN04801017 46/// /0506 11057 2//// 30242 40250 52006=
0089010170999992014011409004+77683+014783FM-12+000699999V0200501N006019999999N999999999-00581+99999102531ADDMA1999990102441MD1110061+9990REMSYN04801017 46/// /0506 11058 2//// 30244 40253 51006=
0089010170999992014011410004+77683+014783FM-12+000699999V0200601N006019999999N999999999-00601+99999102541ADDMA1999990102461MD1310091+9990REMSYN04801017 46/// /0606 11060 2//// 30246 40254 53009=
0089010170999992014011411004+77683+014783FM-12+000699999V0200501N007019999999N999999999-00641+99999102561ADDMA1999990102481MD1210061+9990REMSYN04801017 46/// /0507 11064 2//// 30248 40256 52006=
0132010170999992014011412004+77683+014783FM-12+000699999V0200501N006019999999N999999999-00621+99999102561ADDMA1999990102471MD1290039+9990OD139900901999REMSYN05801017 46/// /0506 11062 2//// 30247 40256 54003 333 91109=EQDQ01.3    3APC3  
0089010170999992014011413004+77683+014783FM-12+000699999V0200501N007019999999N999999999-00651+99999102541ADDMA1999990102461MD1510001+9990REMSYN04801017 46/// /0507 11065 2//// 30246 40254 55000=
0089010170999992014011414004+77683+014783FM-12+000699999V0200501N007019999999N999999999-00691+99999102561ADDMA1999990102481MD1410001+9990REMSYN04801017 46/// /0507 11069 2//// 30248 40256 54000=
0108010170999992014011415004+77683+014783FM-12+000699999V0200501N007019999999N999999999-00661+99999102541ADDMA1999990102461MD1790029+9990REMSYN04801017 46/// /0507 11066 2//// 30246 40254 54002=EQDQ01.2    3APC3  
0108010170999992014011416004+77683+014783FM-12+000699999V0200401N007019999999N999999999-00691+99999102551ADDMA1999990102471MD1290019+9990REMSYN04801017 46/// /0407 11069 2//// 30247 40255 54001=EQDQ01.1    3APC3  
0089010170999992014011417004+77683+014783FM-12+000699999V0200601N007019999999N999999999-00611+99999102521ADDMA1999990102441MD1710041+9990REMSYN04801017 46/// /0607 11061 2//// 30244 40252 57004=
0151010170999992014011418004+77683+014783FM-12+000699999V0200501N007019999999N999999999-00711+99999102521ADDKA1120M-00511MA1999990102431MD1790029+9990OD139901001999REMSYN06401017 46/// /0507 11071 2//// 30243 40252 54002 333 11051 91110=EQDQ01.2    3APC3  
0089010170999992014011419004+77683+014783FM-12+000699999V0200501N008019999999N999999999-00631+99999102501ADDMA1999990102411MD1710051+9990REMSYN04801017 46/// /0508 11063 2//// 30241 40250 57005=
0089010170999992014011420004+77683+014783FM-12+000699999V0200701N006019999999N999999999-00551+99999102491ADDMA1999990102411MD1710031+9990REMSYN04801017 46/// /0706 11055 2//// 30241 40249 57003=
0089010170999992014011421004+77683+014783FM-12+000699999V0200601N007019999999N999999999-00661+99999102491ADDMA1999990102401MD1710031+9990REMSYN04801017 46/// /0607 11066 2//// 30240 40249 57003=
0089010170999992014011422004+77683+014783FM-12+000699999V0200401N006019999999N999999999-00571+99999102451ADDMA1999990102371MD1710051+9990REMSYN04801017 46/// /0406 11057 2//// 30237 40245 57005=
0089010170999992014011423004+77683+014783FM-12+000699999V0200401N006019999999N999999999-00471+99999102421ADDMA1999990102331MD1610071+9990REMSYN04801017 46/// /0406 11047 2//// 30233 40242 56007=
0113010170999992014011500004+77683+014783FM-12+000699999V0200501N004019999999N999999999-00391+99999102361ADDMA1999990102281MD1710131+9990OD139901001999REMSYN05801017 46/// /0504 11039 2//// 30228 40236 57013 333 91110=
0089010170999992014011502004+77683+014783FM-12+000699999V0200401N007019999999N999999999-00501+99999102311ADDMA1999990102231MD1710111+9990REMSYN04801017 46/// /0407 11050 2//// 30223 40231 57011=
0089010170999992014011503004+77683+014783FM-12+000699999V0200501N006019999999N999999999-00451+99999102241ADDMA1999990102161MD1610121+9990REMSYN04801017 46/// /0506 11045 2//// 30216 40224 56012=
0089010170999992014011504004+77683+014783FM-12+000699999V0200401N006019999999N999999999-00471+99999102211ADDMA1999990102121MD1710151+9990REMSYN04801017 46/// /0406 11047 2//// 30212 40221 57015=
0089010170999992014011505004+77683+014783FM-12+000699999V0200501N005019999999N999999999-00421+99999102181ADDMA1999990102091MD1810141+9990REMSYN04801017 46/// /0505 11042 2//// 30209 40218 58014=
0132010170999992014011506004+77683+014783FM-12+000699999V0200501N005019999999N999999999-00411+99999102161ADDKA1240N-00731MA1999990102081MD1710081+9990OD139900901999REMSYN06401017 46/// /0505 11041 2//// 30208 40216 57008 333 21073 91109=
0089010170999992014011507004+77683+014783FM-12+000699999V0200401N006019999999N999999999-00401+99999102131ADDMA1999990102051MD1710081+9990REMSYN04801017 46/// /0406 11040 2//// 30205 40213 57008=
0089010170999992014011508004+77683+014783FM-12+000699999V0200501N005019999999N999999999-00361+99999102131ADDMA1999990102041MD1710051+9990REMSYN04801017 46/// /0505 11036 2//// 30204 40213 57005=
0089010170999992014011509004+77683+014783FM-12+000699999V0200501N007019999999N999999999-00391+99999102081ADDMA1999990102001MD1710081+9990REMSYN04801017 46/// /0507 11039 2//// 30200 40208 57008=
0089010170999992014011510004+77683+014783FM-12+000699999V0200401N007019999999N999999999-00371+99999102081ADDMA1999990102001MD1710051+9990REMSYN04801017 46/// /0407 11037 2//// 30200 40208 57005=
0089010170999992014011511004+77683+014783FM-12+000699999V0200401N006019999999N999999999-00371+99999102071ADDMA1999990101991MD1810051+9990REMSYN04801017 46/// /0406 11037 2//// 30199 40207 58005=
0132010170999992014011512004+77683+014783FM-12+000699999V0200601N005019999999N999999999-00361+99999102061ADDMA1999990101981MD1790029+9990OD139900901999REMSYN05801017 46/// /0605 11036 2//// 30198 40206 54002 333 91109=EQDQ01.2    3APC3  
0089010170999992014011513004+77683+014783FM-12+000699999V0200501N006019999999N999999999-00341+99999102031ADDMA1999990101951MD1710051+9990REMSYN04801017 46/// /0506 11034 2//// 30195 40203 57005=
0089010170999992014011514004+77683+014783FM-12+000699999V0200501N005019999999N999999999-00321+99999102031ADDMA1999990101951MD1710041+9990REMSYN04801017 46/// /0505 11032 2//// 30195 40203 57004=
0089010170999992014011515004+77683+014783FM-12+000699999V0200501N005019999999N999999999-00291+99999102011ADDMA1999990101921MD1710051+9990REMSYN04801017 46/// /0505 11029 2//// 30192 40201 57005=
0108010170999992014011516004+77683+014783FM-12+000699999V0203601N003019999999N999999999-00311+99999102021ADDMA1999990101941MD1790019+9990REMSYN04801017 46/// /3603 11031 2//// 30194 40202 54001=EQDQ01.1    3APC3  
0089010170999992014011517004+77683+014783FM-12+000699999V0200601N004019999999N999999999-00321+99999102001ADDMA1999990101921MD1710031+9990REMSYN04801017 46/// /0604 11032 2//// 30192 40200 57003=
0132010170999992014011518004+77683+014783FM-12+000699999V0200101N001019999999N999999999-00311+99999102011ADDKA1120M-00261MA1999990101921MD1410001+9990OD139900801999REMSYN06401017 46/// /0101 11031 2//// 30192 40201 54000 333 11026 91108=
0089010170999992014011519004+77683+014783FM-12+000699999V0203601N001019999999N999999999-00291+99999101991ADDMA1999990101901MD1710041+9990REMSYN04801017 46/// /3601 11029 2//// 30190 40199 57004=
0089010170999992014011520004+77683+014783FM-12+000699999V0203401N002019999999N999999999-00241+99999101971ADDMA1999990101891MD1710031+9990REMSYN04801017 46/// /3402 11024 2//// 30189 40197 57003=
0089010170999992014011521004+77683+014783FM-12+000699999V0201901N007019999999N999999999+00111+99999101941ADDMA1999990101861MD1710061+9990REMSYN04801017 46/// /1907 10011 2//// 30186 40194 57006=
0089010170999992014011522004+77683+014783FM-12+000699999V0201901N005019999999N999999999+00141+99999101951ADDMA1999990101861MD1710041+9990REMSYN04801017 46/// /1905 10014 2//// 30186 40195 57004=
0089010170999992014011523004+77683+014783FM-12+000699999V0201901N006019999999N999999999+00161+99999101931ADDMA1999990101851MD1710031+9990REMSYN04801017 46/// /1906 10016 2//// 30185 40193 57003=
0113010170999992014011600004+77683+014783FM-12+000699999V0201801N005019999999N999999999+00131+99999101951ADDMA1999990101861MD1410001+9990OD139900801999REMSYN05801017 46/// /1805 10013 2//// 30186 40195 54000 333 91108=
0089010170999992014011601004+77683+014783FM-12+000699999V0201801N007019999999N999999999+00161+99999101901ADDMA1999990101821MD1610051+9990REMSYN04801017 46/// /1807 10016 2//// 30182 40190 56005=
0089010170999992014011602004+77683+014783FM-12+000699999V0201801N007019999999N999999999+00151+99999101881ADDMA1999990101801MD1610051+9990REMSYN04801017 46/// /1807 10015 2//// 30180 40188 56005=
0089010170999992014011603004+77683+014783FM-12+000699999V0201801N007019999999N999999999+00191+99999101851ADDMA1999990101771MD1710091+9990REMSYN04801017 46/// /1807 10019 2//// 30177 40185 57009=
0089010170999992014011604004+77683+014783FM-12+000699999V0201901N008019999999N999999999+00171+99999101831ADDMA1999990101751MD1710071+9990REMSYN04801017 46/// /1908 10017 2//// 30175 40183 57007=
0089010170999992014011605004+77683+014783FM-12+000699999V0201901N008019999999N999999999+00141+99999101811ADDMA1999990101731MD1710071+9990REMSYN04801017 46/// /1908 10014 2//// 30173 40181 57007=
0132010170999992014011606004+77683+014783FM-12+000699999V0201901N010019999999N999999999+00151+99999101741ADDKA1240N-00311MA1999990101661MD1610111+9990OD139901201999REMSYN06401017 46/// /1910 10015 2//// 30166 40174 56011 333 21031 91112=
0089010170999992014011607004+77683+014783FM-12+000699999V0201801N009019999999N999999999+00161+99999101761ADDMA1999990101681MD1810071+9990REMSYN04801017 46/// /1809 10016 2//// 30168 40176 58007=
0089010170999992014011608004+77683+014783FM-12+000699999V0201801N006019999999N999999999+00171+99999101801ADDMA1999990101721MD1900011+9990REMSYN04801017 46/// /1806 10017 2//// 30172 40180 50001=
0089010170999992014011609004+77683+014783FM-12+000699999V0201801N006019999999N999999999+00181+99999101761ADDMA1999990101681MD1510021+9990REMSYN04801017 46/// /1806 10018 2//// 30168 40176 55002=
0089010170999992014011610004+77683+014783FM-12+000699999V0201801N005019999999N999999999+00141+99999101771ADDMA1999990101691MD1510011+9990REMSYN04801017 46/// /1805 10014 2//// 30169 40177 55001=
0089010170999992014011611004+77683+014783FM-12+000699999V0201801N005019999999N999999999+00121+99999101731ADDMA1999990101651MD1710071+9990REMSYN04801017 46/// /1805 10012 2//// 30165 40173 57007=
0113010170999992014011612004+77683+014783FM-12+000699999V0201801N005019999999N999999999+00021+99999101701ADDMA1999990101621MD1610061+9990OD139901201999REMSYN05801017 46/// /1805 10002 2//// 30162 40170 56006 333 91112=
0089010170999992014011613004+77683+014783FM-12+000699999V0202001N007019999999N999999999+00021+99999101651ADDMA1999990101561MD1710121+9990REMSYN04801017 46/// /2007 10002 2//// 30156 40165 57012=
0089010170999992014011614004+77683+014783FM-12+000699999V0201801N006019999999N999999999+00131+99999101581ADDMA1999990101501MD1610151+9990REMSYN04801017 46/// /1806 10013 2//// 30150 40158 56015=
0089010170999992014011615004+77683+014783FM-12+000699999V0201901N006019999999N999999999+00101+99999101561ADDMA1999990101471MD1810151+9990REMSYN04801017 46/// /1906 10010 2//// 30147 40156 58015=
0089010170999992014011616004+77683+014783FM-12+000699999V0202001N006019999999N999999999+00031+99999101541ADDMA1999990101461MD1810111+9990REMSYN04801017 46/// /2006 10003 2//// 30146 40154 58011=
0089010170999992014011617004+77683+014783FM-12+000699999V0201901N007019999999N999999999+00051+99999101511ADDMA1999990101431MD1710071+9990REMSYN04801017 46/// /1907 10005 2//// 30143 40151 57007=
0132010170999992014011618004+77683+014783FM-12+000699999V0202001N007019999999N999999999+00021+99999101491ADDKA1120M+00201MA1999990101411MD1710061+9990OD139901101999REMSYN06401017 46/// /2007 10002 2//// 30141 40149 57006 333 10020 91111=
0089010170999992014011619004+77683+014783FM-12+000699999V0202001N007019999999N999999999+00021+99999101461ADDMA1999990101381MD1710071+9990REMSYN04801017 46/// /2007 10002 2//// 30138 40146 57007=
0089010170999992014011620004+77683+014783FM-12+000699999V0202001N007019999999N999999999+00001+99999101471ADDMA1999990101381MD1710041+9990REMSYN04801017 46/// /2007 10000 2//// 30138 40147 57004=
0108010170999992014011621004+77683+014783FM-12+000699999V0201901N007019999999N999999999-00031+99999101461ADDMA1999990101381MD1790039+9990REMSYN04801017 46/// /1907 11003 2//// 30138 40146 54003=EQDQ01.3    3APC3  
0089010170999992014011622004+77683+014783FM-12+000699999V0201901N007019999999N999999999+00091+99999101461ADDMA1999990101381MD1410001+9990REMSYN04801017 46/// /1907 10009 2//// 30138 40146 54000=
0089010170999992014011623004+77683+014783FM-12+000699999V0202001N007019999999N999999999-00011+99999101471ADDMA1999990101391MD1410001+9990REMSYN04801017 46/// /2007 11001 2//// 30139 40147 54000=
0132010170999992014011700004+77683+014783FM-12+000699999V0201901N008019999999N999999999+00061+99999101451ADDMA1999990101371MD1790019+9990OD139901001999REMSYN05801017 46/// /1908 10006 2//// 30137 40145 54001 333 91110=EQDQ01.1    3APC3  
0108010170999992014011701004+77683+014783FM-12+000699999V0202101N006019999999N999999999+00061+99999101451ADDMA1999990101371MD1790019+9990REMSYN04801017 46/// /2106 10006 2//// 30137 40145 54001=EQDQ01.1    3APC3  
0108010170999992014011702004+77683+014783FM-12+000699999V0202301N006019999999N999999999+00001+99999101451ADDMA1999990101371MD1790029+9990REMSYN04801017 46/// /2306 10000 2//// 30137 40145 54002=EQDQ01.2    3APC3  
0089010170999992014011703004+77683+014783FM-12+000699999V0202001N007019999999N999999999+00031+99999101411ADDMA1999990101331MD1610041+9990REMSYN04801017 46/// /2007 10003 2//// 30133 40141 56004=
0089010170999992014011704004+77683+014783FM-12+000699999V0201901N006019999999N999999999+00031+99999101411ADDMA1999990101331MD1710051+9990REMSYN04801017 46/// /1906 10003 2//// 30133 40141 57005=
0089010170999992014011705004+77683+014783FM-12+000699999V0201901N007019999999N999999999+00061+99999101411ADDMA1999990101331MD1810051+9990REMSYN04801017 46/// /1907 10006 2//// 30133 40141 58005=
0151010170999992014011706004+77683+014783FM-12+000699999V0202001N006019999999N999999999+00031+99999101421ADDKA1240N-00061MA1999990101341MD1290019+9990OD139901001999REMSYN06401017 46/// /2006 10003 2//// 30134 40142 54001 333 21006 91110=EQDQ01.1    3APC3  
0089010170999992014011707004+77683+014783FM-12+000699999V0201901N007019999999N999999999+00021+99999101391ADDMA1999990101311MD1510021+9990REMSYN04801017 46/// /1907 10002 2//// 30131 40139 55002=
0089010170999992014011708004+77683+014783FM-12+000699999V0201801N004019999999N999999999+00021+99999101411ADDMA1999990101331MD1410001+9990REMSYN04801017 46/// /1804 10002 2//// 30133 40141 54000=
0089010170999992014011709004+77683+014783FM-12+000699999V0201901N006019999999N999999999+00031+99999101421ADDMA1999990101331MD1900011+9990REMSYN04801017 46/// /1906 10003 2//// 30133 40142 50001=
0089010170999992014011710004+77683+014783FM-12+000699999V0202001N006019999999N999999999-00011+99999101451ADDMA1999990101361MD1210061+9990REMSYN04801017 46/// /2006 11001 2//// 30136 40145 52006=
0089010170999992014011711004+77683+014783FM-12+000699999V0202001N008019999999N999999999+00051+99999101401ADDMA1999990101321MD1510011+9990REMSYN04801017 46/// /2008 10005 2//// 30132 40140 55001=
0113010170999992014011712004+77683+014783FM-12+000699999V0202001N008019999999N999999999-00051+99999101421ADDMA1999990101341MD1410001+9990OD139901201999REMSYN05801017 46/// /2008 11005 2//// 30134 40142 54000 333 91112=
0089010170999992014011713004+77683+014783FM-12+000699999V0202201N007019999999N999999999-00061+99999101441ADDMA1999990101361MD1900001+9990REMSYN04801017 46/// /2207 11006 2//// 30136 40144 50000=
0089010170999992014011714004+77683+014783FM-12+000699999V0202001N006019999999N999999999-00021+99999101411ADDMA1999990101321MD1510011+9990REMSYN04801017 46/// /2006 11002 2//// 30132 40141 55001=
0089010170999992014011715004+77683+014783FM-12+000699999V0202001N007019999999N999999999-00021+99999101391ADDMA1999990101311MD1510031+9990REMSYN04801017 46/// /2007 11002 2//// 30131 40139 55003=
0089010170999992014011716004+77683+014783FM-12+000699999V0202101N004019999999N999999999-00081+99999101401ADDMA1999990101321MD1810041+9990REMSYN04801017 46/// /2104 11008 2//// 30132 40140 58004=
0108010170999992014011717004+77683+014783FM-12+000699999V0202201N004019999999N999999999-00031+99999101401ADDMA1999990101321MD1790019+9990REMSYN04801017 46/// /2204 11003 2//// 30132 40140 54001=EQDQ01.1    3APC3  
0132010170999992014011718004+77683+014783FM-12+000699999V0201901N007019999999N999999999+00051+99999101351ADDKA1120M+00071MA1999990101271MD1610041+9990OD139901001999REMSYN06401017 46/// /1907 10005 2//// 30127 40135 56004 333 10007 91110=
0089010170999992014011719004+77683+014783FM-12+000699999V0201901N008019999999N999999999+00111+99999101281ADDMA1999990101201MD1610121+9990REMSYN04801017 46/// /1908 10011 2//// 30120 40128 56012=
0089010170999992014011720004+77683+014783FM-12+000699999V0201901N008019999999N999999999+00111+99999101271ADDMA1999990101181MD1810131+9990REMSYN04801017 46/// /1908 10011 2//// 30118 40127 58013=
0089010170999992014011721004+77683+014783FM-12+000699999V0201901N009019999999N999999999+00131+99999101281ADDMA1999990101201MD1810071+9990REMSYN04801017 46/// /1909 10013 2//// 30120 40128 58007=
0089010170999992014011722004+77683+014783FM-12+000699999V0201801N009019999999N999999999+00041+99999101321ADDMA1999990101241MD1110041+9990REMSYN04801017 46/// /1809 10004 2//// 30124 40132 51004=
0089010170999992014011723004+77683+014783FM-12+000699999V0201901N009019999999N999999999+00061+99999101311ADDMA1999990101231MD1210041+9990REMSYN04801017 46/// /1909 10006 2//// 30123 40131 52004=
0113010170999992014011800004+77683+014783FM-12+000699999V0202001N008019999999N999999999+00191+99999101311ADDMA1999990101231MD1310031+9990OD139901401999REMSYN05801017 46/// /2008 10019 2//// 30123 40131 53003 333 91114=
0089010170999992014011801004+77683+014783FM-12+000699999V0202001N007019999999N999999999+00141+99999101311ADDMA1999990101231MD1410001+9990REMSYN04801017 46/// /2007 10014 2//// 30123 40131 54000=
0108010170999992014011802004+77683+014783FM-12+000699999V0202001N007019999999N999999999+00201+99999101291ADDMA1999990101211MD1790029+9990REMSYN04801017 46/// /2007 10020 2//// 30121 40129 54002=EQDQ01.2    3APC3  
0108010170999992014011803004+77683+014783FM-12+000699999V0202001N008019999999N999999999+00201+99999101291ADDMA1999990101211MD1790029+9990REMSYN04801017 46/// /2008 10020 2//// 30121 40129 54002=EQDQ01.2    3APC3  
0089010170999992014011804004+77683+014783FM-12+000699999V0202001N007019999999N999999999+00171+99999101301ADDMA1999990101221MD1900011+9990REMSYN04801017 46/// /2007 10017 2//// 30122 40130 50001=
0108010170999992014011805004+77683+014783FM-12+000699999V0202001N011019999999N999999999-00041+99999101271ADDMA1999990101191MD1790029+9990REMSYN04801017 46/// /2011 11004 2//// 30119 40127 54003=EQDQ01.3    3APC3  
0151010170999992014011806004+77683+014783FM-12+000699999V0202001N007019999999N999999999+00151+99999101281ADDKA1240N-00041MA1999990101201MD1790019+9990OD139901301999REMSYN06401017 46/// /2007 10015 2//// 30120 40128 54001 333 21004 91113=EQDQ01.1    3APC3  
0089010170999992014011807004+77683+014783FM-12+000699999V0201901N008019999999N999999999+00141+99999101241ADDMA1999990101161MD1710061+9990REMSYN04801017 46/// /1908 10014 2//// 30116 40124 57006=
0108010170999992014011808004+77683+014783FM-12+000699999V0202001N009019999999N999999999+00051+99999101251ADDMA1999990101171MD1790029+9990REMSYN04801017 46/// /2009 10005 2//// 30117 40125 54002=EQDQ01.2    3APC3  
0089010170999992014011809004+77683+014783FM-12+000699999V0202101N008019999999N999999999+00141+99999101251ADDMA1999990101171MD1900031+9990REMSYN04801017 46/// /2108 10014 2//// 30117 40125 50003=
0108010170999992014011810004+77683+014783FM-12+000699999V0202301N009019999999N999999999+00031+99999101261ADDMA1999990101181MD1290029+9990REMSYN04801017 46/// /2309 10003 2//// 30118 40126 54003=EQDQ01.3    3APC3  
0089010170999992014011811004+77683+014783FM-12+000699999V0202401N007019999999N999999999+00011+99999101341ADDMA1999990101261MD1110091+9990REMSYN04801017 46/// /2407 10001 2//// 30126 40134 51009=
0113010170999992014011812004+77683+014783FM-12+000699999V0202801N009019999999N999999999-00051+99999101421ADDMA1999990101341MD1110171+9990OD139901101999REMSYN05801017 46/// /2809 11005 2//// 30134 40142 51017 333 91111=
0089010170999992014011813004+77683+014783FM-12+000699999V0202601N007019999999N999999999-00091+99999101491ADDMA1999990101411MD1210221+9990REMSYN04801017 46/// /2607 11009 2//// 30141 40149 52022=
0089010170999992014011814004+77683+014783FM-12+000699999V0202801N008019999999N999999999-00191+99999101531ADDMA1999990101441MD1310191+9990REMSYN04801017 46/// /2808 11019 2//// 30144 40153 53019=
0089010170999992014011815004+77683+014783FM-12+000699999V0202901N007019999999N999999999-00311+99999101611ADDMA1999990101531MD1210191+9990REMSYN04801017 46/// /2907 11031 2//// 30153 40161 52019=
0089010170999992014011816004+77683+014783FM-12+000699999V0202801N006019999999N999999999-00371+99999101691ADDMA1999990101611MD1110201+9990REMSYN04801017 46/// /2806 11037 2//// 30161 40169 51020=
0089010170999992014011817004+77683+014783FM-12+000699999V0202701N006019999999N999999999-00401+99999101741ADDMA1999990101661MD1310211+9990REMSYN04801017 46/// /2706 11040 2//// 30166 40174 53021=
0132010170999992014011818004+77683+014783FM-12+000699999V0202501N005019999999N999999999-00421+99999101781ADDKA1120M+00171MA1999990101701MD1310171+9990OD139901101999REMSYN06401017 46/// /2505 11042 2//// 30170 40178 53017 333 10017 91111=
0089010170999992014011819004+77683+014783FM-12+000699999V0202701N005019999999N999999999-00431+99999101851ADDMA1999990101761MD1210151+9990REMSYN04801017 46/// /2705 11043 2//// 30176 40185 52015=
0089010170999992014011820004+77683+014783FM-12+000699999V0202901N005019999999N999999999-00481+99999101911ADDMA1999990101821MD1210171+9990REMSYN04801017 46/// /2905 11048 2//// 30182 40191 52017=
0089010170999992014011821004+77683+014783FM-12+000699999V0202701N006019999999N999999999-00471+99999101961ADDMA1999990101871MD1210181+9990REMSYN04801017 46/// /2706 11047 2//// 30187 40196 52018=
0089010170999992014011822004+77683+014783FM-12+000699999V0202801N005019999999N999999999-00511+99999102001ADDMA1999990101921MD1210151+9990REMSYN04801017 46/// /2805 11051 2//// 30192 40200 52015=
0089010170999992014011823004+77683+014783FM-12+000699999V0202801N004019999999N999999999-00501+99999102031ADDMA1999990101941MD1210121+9990REMSYN04801017 46/// /2804 11050 2//// 30194 40203 52012=
0113010170999992014011900004+77683+014783FM-12+000699999V0202901N005019999999N999999999-00511+99999102081ADDMA1999990101991MD1210121+9990OD139900801999REMSYN05801017 46/// /2905 11051 2//// 30199 40208 52012 333 91108=
0089010170999992014011901004+77683+014783FM-12+000699999V0202901N004019999999N999999999-00531+99999102111ADDMA1999990102021MD1210101+9990REMSYN04801017 46/// /2904 11053 2//// 30202 40211 52010=
0089010170999992014011902004+77683+014783FM-12+000699999V0202901N003019999999N999999999-00531+99999102141ADDMA1999990102051MD1210111+9990REMSYN04801017 46/// /2903 11053 2//// 30205 40214 52011=
0089010170999992014011903004+77683+014783FM-12+000699999V0202601N003019999999N999999999-00531+99999102121ADDMA1999990102041MD1310041+9990REMSYN04801017 46/// /2603 11053 2//// 30204 40212 53004=
0089010170999992014011904004+77683+014783FM-12+000699999V0202701N004019999999N999999999-00531+99999102161ADDMA1999990102071MD1210051+9990REMSYN04801017 46/// /2704 11053 2//// 30207 40216 52005=
0089010170999992014011905004+77683+014783FM-12+000699999V0202801N004019999999N999999999-00541+99999102171ADDMA1999990102091MD1110041+9990REMSYN04801017 46/// /2804 11054 2//// 30209 40217 51004=
0132010170999992014011906004+77683+014783FM-12+000699999V0203401N003019999999N999999999-00711+99999102181ADDKA1240N-00731MA1999990102101MD1210061+9990OD139900601999REMSYN06401017 46/// /3403 11071 2//// 30210 40218 52006 333 21073 91106=
0089010170999992014011907004+77683+014783FM-12+000699999V0200101N002019999999N999999999-00671+99999102221ADDMA1999990102141MD1210071+9990REMSYN04801017 46/// /0102 11067 2//// 30214 40222 52007=
0089010170999992014011908004+77683+014783FM-12+000699999V0203601N004019999999N999999999-00741+99999102211ADDMA1999990102121MD1210041+9990REMSYN04801017 46/// /3604 11074 2//// 30212 40221 52004=
0089010170999992014011909004+77683+014783FM-12+000699999V0203601N003019999999N999999999-00701+99999102231ADDMA1999990102151MD1210051+9990REMSYN04801017 46/// /3603 11070 2//// 30215 40223 52005=
0089010170999992014011910004+77683+014783FM-12+000699999V0200401N004019999999N999999999-00721+99999102271ADDMA1999990102181MD1110041+9990REMSYN04801017 46/// /0404 11072 2//// 30218 40227 51004=
0089010170999992014011911004+77683+014783FM-12+000699999V0200501N004019999999N999999999-00751+99999102281ADDMA1999990102201MD1210081+9990REMSYN04801017 46/// /0504 11075 2//// 30220 40228 52008=
0113010170999992014011912004+77683+014783FM-12+000699999V0200501N004019999999N999999999-00761+99999102301ADDMA1999990102221MD1210071+9990OD139900601999REMSYN05801017 46/// /0504 11076 2//// 30222 40230 52007 333 91106=
0089010170999992014011913004+77683+014783FM-12+000699999V0200501N005019999999N999999999-00771+99999102301ADDMA1999990102221MD1210041+9990REMSYN04801017 46/// /0505 11077 2//// 30222 40230 52004=
0089010170999992014011914004+77683+014783FM-12+000699999V0200501N006019999999N999999999-00741+99999102271ADDMA1999990102191MD1510011+9990REMSYN04801017 46/// /0506 11074 2//// 30219 40227 55001=
0089010170999992014011915004+77683+014783FM-12+000699999V0200501N006019999999N999999999-00731+99999102261ADDMA1999990102181MD1710041+9990REMSYN04801017 46/// /0506 11073 2//// 30218 40226 57004=
0089010170999992014011916004+77683+014783FM-12+000699999V0200401N007019999999N999999999-00711+99999102241ADDMA1999990102151MD1710061+9990REMSYN04801017 46/// /0407 11071 2//// 30215 40224 57006=
0089010170999992014011917004+77683+014783FM-12+000699999V0200401N007019999999N999999999-00721+99999102241ADDMA1999990102151MD1710031+9990REMSYN04801017 46/// /0407 11072 2//// 30215 40224 57003=
0132010170999992014011918004+77683+014783FM-12+000699999V0200501N005019999999N999999999-00691+99999102261ADDKA1120M-00651MA1999990102171MD1900001+9990OD139900801999REMSYN06401017 46/// /0505 11069 2//// 30217 40226 50000 333 11065 91108=
0089010170999992014011919004+77683+014783FM-12+000699999V0200601N007019999999N999999999-00701+99999102221ADDMA1999990102141MD1510021+9990REMSYN04801017 46/// /0607 11070 2//// 30214 40222 55002=
0108010170999992014011920004+77683+014783FM-12+000699999V0200501N006019999999N999999999-00671+99999102231ADDMA1999990102151MD1790019+9990REMSYN04801017 46/// /0506 11067 2//// 30215 40223 54001=EQDQ01.1    3APC3  
0089010170999992014011921004+77683+014783FM-12+000699999V0200501N007019999999N999999999-00671+99999102221ADDMA1999990102131MD1710041+9990REMSYN04801017 46/// /0507 11067 2//// 30213 40222 57004=
0108010170999992014011922004+77683+014783FM-12+000699999V0200501N007019999999N999999999-00671+99999102201ADDMA1999990102111MD1790029+9990REMSYN04801017 46/// /0507 11067 2//// 30211 40220 54002=EQDQ01.2    3APC3  
0089010170999992014011923004+77683+014783FM-12+000699999V0200601N008019999999N999999999-00681+99999102181ADDMA1999990102091MD1710051+9990REMSYN04801017 46/// /0608 11068 2//// 30209 40218 57005=
0113010170999992014012000004+77683+014783FM-12+000699999V0200601N007019999999N999999999-00621+99999102151ADDMA1999990102071MD1710071+9990OD139900901999REMSYN05801017 46/// /0607 11062 2//// 30207 40215 57007 333 91109=
0089010170999992014012001004+77683+014783FM-12+000699999V0200501N008019999999N999999999-00591+99999102131ADDMA1999990102051MD1710071+9990REMSYN04801017 46/// /0508 11059 2//// 30205 40213 57007=
0089010170999992014012002004+77683+014783FM-12+000699999V0200501N008019999999N999999999-00611+99999102111ADDMA1999990102021MD1710071+9990REMSYN04801017 46/// /0508 11061 2//// 30202 40211 57007=
0089010170999992014012003004+77683+014783FM-12+000699999V0200501N009019999999N999999999-00571+99999102071ADDMA1999990101991MD1710081+9990REMSYN04801017 46/// /0509 11057 2//// 30199 40207 57008=
0089010170999992014012004004+77683+014783FM-12+000699999V0200501N009019999999N999999999-00531+99999102041ADDMA1999990101961MD1710091+9990REMSYN04801017 46/// /0509 11053 2//// 30196 40204 57009=
0089010170999992014012005004+77683+014783FM-12+000699999V0200501N009019999999N999999999-00521+99999102011ADDMA1999990101931MD1710101+9990REMSYN04801017 46/// /0509 11052 2//// 30193 40201 57010=
0132010170999992014012006004+77683+014783FM-12+000699999V0200601N009019999999N999999999-00521+99999101991ADDKA1240N-00711MA1999990101911MD1710081+9990OD139901101999REMSYN06401017 46/// /0609 11052 2//// 30191 40199 57008 333 21071 91111=
0089010170999992014012007004+77683+014783FM-12+000699999V0200501N008019999999N999999999-00471+99999101981ADDMA1999990101891MD1710061+9990REMSYN04801017 46/// /0508 11047 2//// 30189 40198 57006=
0089010170999992014012008004+77683+014783FM-12+000699999V0200401N008019999999N999999999-00411+99999101951ADDMA1999990101871MD1710061+9990REMSYN04801017 46/// /0408 11041 2//// 30187 40195 57006=
0089010170999992014012009004+77683+014783FM-12+000699999V0200301N007019999999N999999999-00331+99999101931ADDMA1999990101841MD1710071+9990REMSYN04801017 46/// /0307 11033 2//// 30184 40193 57007=
0089010170999992014012010004+77683+014783FM-12+000699999V0200501N004019999999N999999999-00211+99999101901ADDMA1999990101821MD1710071+9990REMSYN04801017 46/// /0504 11021 2//// 30182 40190 57007=
0089010170999992014012011004+77683+014783FM-12+000699999V0200201N005019999999N999999999-00191+99999101851ADDMA1999990101771MD1610101+9990REMSYN04801017 46/// /0205 11019 2//// 30177 40185 56010=
0113010170999992014012012004+77683+014783FM-12+000699999V0200101N003019999999N999999999-00051+99999101781ADDMA1999990101701MD1610151+9990OD139901001999REMSYN05801017 46/// /0103 11005 2//// 30170 40178 56015 333 91110=
0089010170999992014012013004+77683+014783FM-12+000699999V0201701N003019999999N999999999+00121+99999101731ADDMA1999990101651MD1710171+9990REMSYN04801017 46/// /1703 10012 2//// 30165 40173 57017=
0089010170999992014012014004+77683+014783FM-12+000699999V0201801N006019999999N999999999+00151+99999101661ADDMA1999990101581MD1710191+9990REMSYN04801017 46/// /1806 10015 2//// 30158 40166 57019=
0089010170999992014012015004+77683+014783FM-12+000699999V0201901N009019999999N999999999+00181+99999101551ADDMA1999990101471MD1610231+9990REMSYN04801017 46/// /1909 10018 2//// 30147 40155 56023=
0089010170999992014012016004+77683+014783FM-12+000699999V0202001N009019999999N999999999+00121+99999101581ADDMA1999990101491MD1810151+9990REMSYN04801017 46/// /2009 10012 2//// 30149 40158 58015=
0089010170999992014012017004+77683+014783FM-12+000699999V0202101N005019999999N999999999+00001+99999101601ADDMA1999990101521MD1810061+9990REMSYN04801017 46/// /2105 10000 2//// 30152 40160 58006=
0132010170999992014012018004+77683+014783FM-12+000699999V0202901N005019999999N999999999-00081+99999101651ADDKA1120M+00221MA1999990101571MD1210101+9990OD139901301999REMSYN06401017 46/// /2905 11008 2//// 30157 40165 52010 333 10022 91113=
0089010170999992014012019004+77683+014783FM-12+000699999V0202501N003019999999N999999999-00111+99999101711ADDMA1999990101621MD1110131+9990REMSYN04801017 46/// /2503 11011 2//// 30162 40171 51013=
0089010170999992014012020004+77683+014783FM-12+000699999V0202001N003019999999N999999999-00111+99999101721ADDMA1999990101641MD1310121+9990REMSYN04801017 46/// /2003 11011 2//// 30164 40172 53012=
0089010170999992014012021004+77683+014783FM-12+000699999V0202501N003019999999N999999999-00131+99999101771ADDMA1999990101691MD1210121+9990REMSYN04801017 46/// /2503 11013 2//// 30169 40177 52012=
0089010170999992014012022004+77683+014783FM-12+000699999V0202601N003019999999N999999999-00111+99999101801ADDMA1999990101721MD1210101+9990REMSYN04801017 46/// /2603 11011 2//// 30172 40180 52010=
0089010170999992014012023004+77683+014783FM-12+000699999V0202601N004019999999N999999999-00091+99999101811ADDMA1999990101731MD1310091+9990REMSYN04801017 46/// /2604 11009 2//// 30173 40181 53009=
0113010170999992014012100004+77683+014783FM-12+000699999V0202501N006019999999N999999999-00071+99999101841ADDMA1999990101751MD1210071+9990OD139900701999REMSYN05801017 46/// /2506 11007 2//// 30175 40184 52007 333 91107=
0089010170999992014012101004+77683+014783FM-12+000699999V0202401N005019999999N999999999-00051+99999101841ADDMA1999990101761MD1210041+9990REMSYN04801017 46/// /2405 11005 2//// 30176 40184 52004=
0089010170999992014012102004+77683+014783FM-12+000699999V0202501N005019999999N999999999-00061+99999101821ADDMA1999990101731MD1510001+9990REMSYN04801017 46/// /2505 11006 2//// 30173 40182 55000=
0089010170999992014012103004+77683+014783FM-12+000699999V0202401N006019999999N999999999-00081+99999101791ADDMA1999990101701MD1610051+9990REMSYN04801017 46/// /2406 11008 2//// 30170 40179 56005=
0089010170999992014012104004+77683+014783FM-12+000699999V0202401N005019999999N999999999-00091+99999101761ADDMA1999990101681MD1710081+9990REMSYN04801017 46/// /2405 11009 2//// 30168 40176 57008=
0089010170999992014012105004+77683+014783FM-12+000699999V0202501N004019999999N999999999-00101+99999101751ADDMA1999990101671MD1710071+9990REMSYN04801017 46/// /2504 11010 2//// 30167 40175 57007=
0132010170999992014012106004+77683+014783FM-12+000699999V0202701N003019999999N999999999-00151+99999101741ADDKA1240N-00151MA1999990101661MD1710041+9990OD139900801999REMSYN06401017 46/// /2703 11015 2//// 30166 40174 57004 333 21015 91108=
0089010170999992014012107004+77683+014783FM-12+000699999V0203201N004019999999N999999999-00141+99999101781ADDMA1999990101701MD1900021+9990REMSYN04801017 46/// /3204 11014 2//// 30170 40178 50002=
0089010170999992014012108004+77683+014783FM-12+000699999V0203001N003019999999N999999999-00141+99999101791ADDMA1999990101711MD1210041+9990REMSYN04801017 46/// /3003 11014 2//// 30171 40179 52004=
0089010170999992014012109004+77683+014783FM-12+000699999V0202601N003019999999N999999999-00151+99999101801ADDMA1999990101721MD1310061+9990REMSYN04801017 46/// /2603 11015 2//// 30172 40180 53006=
0089010170999992014012110004+77683+014783FM-12+000699999V0202401N002019999999N999999999-00161+99999101811ADDMA1999990101731MD1210031+9990REMSYN04801017 46/// /2402 11016 2//// 30173 40181 52003=
0089010170999992014012111004+77683+014783FM-12+000699999V0202401N002019999999N999999999-00161+99999101831ADDMA1999990101751MD1210041+9990REMSYN04801017 46/// /2402 11016 2//// 30175 40183 52004=
0113010170999992014012112004+77683+014783FM-12+000699999V0202301N001019999999N999999999-00171+99999101841ADDMA1999990101751MD1210031+9990OD139900501999REMSYN05801017 46/// /2301 11017 2//// 30175 40184 52003 333 91105=
0108010170999992014012113004+77683+014783FM-12+000699999V0201901N002019999999N999999999-00151+99999101821ADDMA1999990101741MD1290019+9990REMSYN04801017 46/// /1902 11015 2//// 30174 40182 54001=EQDQ01.1    3APC3  
0108010170999992014012114004+77683+014783FM-12+000699999V0202201N003019999999N999999999-00151+99999101821ADDMA1999990101731MD1790019+9990REMSYN04801017 46/// /2203 11015 2//// 30173 40182 54001=EQDQ01.1    3APC3  
0108010170999992014012115004+77683+014783FM-12+000699999V0202001N002019999999N999999999-00141+99999101821ADDMA1999990101741MD1790029+9990REMSYN04801017 46/// /2002 11014 2//// 30174 40182 54002=EQDQ01.2    3APC3  
0089010170999992014012117004+77683+014783FM-12+000699999V0209999C999999999999N999999999-00151+99999101811ADDMA1999990101731MD1410001+9990REMSYN04801017 46/// /0000 11015 2//// 30173 40181 54000=
0151010170999992014012118004+77683+014783FM-12+000699999V0203501N001019999999N999999999-00221+99999101811ADDKA1120M-00121MA1999990101731MD1790019+9990OD139900301999REMSYN06401017 46/// /3501 11022 2//// 30173 40181 54001 333 11012 91103=EQDQ01.1    3APC3  
0094010170999992014012119004+77683+014783FM-12+000699999V0203401N002019999999N999999999-00241+99999101801ADDMA1999990101721REMSYN04801017 46/// /3402 11024 2//// 30172 40180 54002=EQDQ014     3APCTEN
