0110010140999992014052221004+69233+017900FM-12+000999999V0203601N002019999999N999999999+03061+01281100381ADDAA103000091MA1999990098391MD1900151+9990REMSYN05801014 46/// /3602 10306 20128 39839 40038 5/015 333 60007=
0110010140999992014052303004+69233+017900FM-12+000999999V0202001N001019999999N999999999+02691+01231100511ADDAA103000091MA1999990098491MD1900181+9990REMSYN05801014 46/// /2001 10269 20123 39849 40051 5/018 333 60007=
