0276010260999992014010100004+69650+018933FM-12+011599999V0200901N004019999999N070000199-00061-00601100851ADDAA101000091AJ199991999999999AY101021AY201021GA1999+999991001GE19MSL   +99999+99999GF102991001990999999991991IA1279MA1999990099421MD1210021+9990MW1021OD139900801999REMSYN08201026 21988 20904 11006 21060 39942 40085 52002 70200 80001 333 43/// 60005 91108=EQDQ01    003SCCGA1
0110010260999992014010101004+69650+018933FM-12+011599999V0201301N001019999999N999999999-00131-00651100871ADDAA101000091MA1999990099431MD1210031+9990REMSYN05801026 26/// /1301 11013 21065 39943 40087 52003 333 60005=
0110010260999992014010102004+69650+018933FM-12+011599999V0202601N003019999999N999999999-00251-00551100891ADDAA101000091MA1999990099451MD1310031+9990REMSYN05801026 26/// /2603 11025 21055 39945 40089 53003 333 60005=
0110010260999992014010104004+69650+018933FM-12+011599999V0203001N003019999999N999999999-00291-00511100881ADDAA101000091MA1999990099431MD1900001+9990REMSYN05801026 26/// /3003 11029 21051 39943 40088 50000 333 60005=
0110010260999992014010105004+69650+018933FM-12+011599999V0202501N001019999999N999999999-00201-00491100881ADDAA101000091MA1999990099441MD1710011+9990REMSYN05801026 26/// /2501 11020 21049 39944 40088 57001 333 60005=
0312010260999992014010106004+69650+018933FM-12+011599999V0200901N001019999999N070001199-00331-00571100881ADDAA112000091AA224000131AJ100653100650094AY101021AY201021GA1999+999991001GE19MSL   +99999+99999GF102991001990999999991991IA1239KA1240N-00381MA1999990099431MD1710031+9990MW1021OD139900601999REMSYN09401026 11989 20901 11033 21057 39943 40088 57003 60002 70200 80001 333 21038 47065 70001 91106=EQDQ01    003SCCGA1
0110010260999992014010107004+69650+018933FM-12+011599999V0201601N001019999999N999999999-00251-00591100861ADDAA101000091MA1999990099421MD1710011+9990REMSYN05801026 26/// /1601 11025 21059 39942 40086 57001 333 60005=
0110010260999992014010108004+69650+018933FM-12+011599999V0202201N001019999999N999999999-00361-00591100891ADDAA101000091MA1999990099441MD1510001+9990REMSYN05801026 26/// /2201 11036 21059 39944 40089 55000 333 60005=
0269010260999992014010109004+69650+018933FM-12+011599999V0201901N004019999999N070001199-00111-00551100931ADDAA101000091AJ199991999999999AY101021AY201021GA1021+999991061GA2991+999991001GA3991+999991031GE19MSL   +99999+99999GF104991021990999999991991IA1239MA1999990099491MD1310061+9990MW1031REMSYN07601026 21689 41904 11011 21055 39949 40093 53006 70300 82571 333 47/// 60005=
0110010260999992014010110004+69650+018933FM-12+011599999V0202001N005019999999N999999999-00051-00511100931ADDAA101000091MA1999990099501MD1210081+9990REMSYN05801026 26/// /2005 11005 21051 39950 40093 52008 333 60005=
0110010260999992014010111004+69650+018933FM-12+011599999V0201901N006019999999N999999999-00031-00521100921ADDAA101000091MA1999990099491MD1900051+9990REMSYN05801026 26/// /1906 11003 21052 39949 40092 50005 333 60005=
0244010260999992014010112004+69650+018933FM-12+011599999V0201901N006019999999N070000199-00011-00481100941ADDAA101000091AY121021AY211021GA1991+999991031GA2031+999991061GE19MSL   +99999+99999GF106991990990999999991991MA1999990099511MD1210021+9990MW1031OD139901201999REMSYN07601026 21688 61906 11001 21048 39951 40094 52002 70321 83570 333 60005 91112=
0110010260999992014010113004+69650+018933FM-12+011599999V0201901N006019999999N999999999-00011-00501100981ADDAA101000091MA1999990099551MD1310041+9990REMSYN05801026 26/// /1906 11001 21050 39955 40098 53004 333 60005=
0110010260999992014010114004+69650+018933FM-12+011599999V0201901N005019999999N999999999-00061-00441101031ADDAA101000091MA1999990099591MD1210101+9990REMSYN05801026 26/// /1905 11006 21044 39959 40103 52010 333 60005=
0164010260999992014010115004+69650+018933FM-12+011599999V0202101N00501002401CN003500199-00181-00311101001ADDAA101000231AY171021AY221021GF109991999999999999999999MA1999990099561MD1900051+9990MW1701REMSYN06401026 21/35 92105 11018 21031 39956 40100 50005 77072 333 69925=
0110010260999992014010116004+69650+018933FM-12+011599999V0202001N004019999999N999999999-00141-00261100931ADDAA101000091MA1999990099491MD1810051+9990REMSYN05801026 26/// /2004 11014 21026 39949 40093 58005 333 60005=
0110010260999992014010117004+69650+018933FM-12+011599999V0201901N005019999999N999999999-00141-00311100951ADDAA101000091MA1999990099511MD1510071+9990REMSYN05801026 26/// /1905 11014 21031 39951 40095 55007 333 60005=
0308010260999992014010118004+69650+018933FM-12+011599999V0201901N003019999999N070001199-00181-00371100921ADDAA112000131AJ199991999999999AY171021AY211021GA1011+999991061GA2991+999991001GA3991+999991031GE19MSL   +99999+99999GF102991011990999999991991IA1239KA1120M+00001MA1999990099481MD1610071+9990MW1011OD139901101999REMSYN08801026 11689 21903 11018 21037 39948 40092 56007 69912 70171 81531 333 10000 47/// 91111=
0110010260999992014010119004+69650+018933FM-12+011599999V0200501N002019999999N999999999-00251-00431100901ADDAA101000091MA1999990099461MD1810031+9990REMSYN05801026 26/// /0502 11025 21043 39946 40090 58003 333 60005=
0110010260999992014010120004+69650+018933FM-12+011599999V0201801N002019999999N999999999-00161-00401100901ADDAA101000091MA1999990099461MD1710061+9990REMSYN05801026 26/// /1802 11016 21040 39946 40090 57006 333 60005=
0208010260999992014010121004+69650+018933FM-12+011599999V0202101N004019999999N070001199-00101-00461100871ADDAA101000091AY101021AY201021GA1011+999991031GE19MSL   +99999+99999GF101991011990999999991991MA1999990099431MD1710051+9990MW1021REMSYN07001026 21889 12104 11010 21046 39943 40087 57005 70200 81030 333 60005=
0110010260999992014010122004+69650+018933FM-12+011599999V0201701N004019999999N999999999-00111-00521100841ADDAA101000091MA1999990099401MD1710061+9990REMSYN05801026 26/// /1704 11011 21052 39940 40084 57006 333 60005=
0110010260999992014010123004+69650+018933FM-12+011599999V0201701N002019999999N999999999-00121-00521100821ADDAA101000091MA1999990099381MD1710071+9990REMSYN05801026 26/// /1702 11012 21052 39938 40082 57007 333 60005=
0257010260999992014010200004+69650+018933FM-12+011599999V0201901N002019999999N070001199-00111-00551100781ADDAA101000091AJ199991999999999AY101021AY201021GA1011+999991031GE19MSL   +99999+99999GF101991011990999999991991IA1239MA1999990099341MD1810101+9990MW1021OD139901001999REMSYN08201026 21889 11902 11011 21055 39934 40078 58010 70200 81030 333 47/// 60005 91110=
0110010260999992014010201004+69650+018933FM-12+011599999V0201101N001019999999N999999999-00161-00571100731ADDAA101000091MA1999990099291MD1810111+9990REMSYN05801026 26/// /1101 11016 21057 39929 40073 58011 333 60005=
0110010260999992014010202004+69650+018933FM-12+011599999V0201601N003019999999N999999999-00111-00521100681ADDAA101000091MA1999990099251MD1710141+9990REMSYN05801026 26/// /1603 11011 21052 39925 40068 57014 333 60005=
0224010260999992014010203004+69650+018933FM-12+011599999V0201701N003019999999N070001199-00071-00531100611ADDAA101000091AY101021AY201021GA1991+999991031GA2011+999991061GE19MSL   +99999+99999GF102991990990999999991991MA1999990099181MD1710161+9990MW1021REMSYN07001026 21689 21703 11007 21053 39918 40061 57016 70200 81530 333 60005=
0110010260999992014010204004+69650+018933FM-12+011599999V0201101N002019999999N999999999-00141-00501100581ADDAA101000091MA1999990099151MD1710141+9990REMSYN05801026 26/// /1102 11014 21050 39915 40058 57014 333 60005=
0110010260999992014010205004+69650+018933FM-12+011599999V0202101N002019999999N999999999-00171-00561100511ADDAA101000091MA1999990099081MD1710171+9990REMSYN05801026 26/// /2102 11017 21056 39908 40051 57017 333 60005=
0325010260999992014010206004+69650+018933FM-12+011599999V0201401N002019999999N070000199-00091-00511100471ADDAA112000091AA224000131AJ100643100640094AY101021AY201021GA1011+999991061GA2991+999991001GA3991+999991031GE19MSL   +99999+99999GF102991011990999999991991IA1279KA1240N-00301MA1999990099041MD1710141+9990MW1021OD139900801999REMSYN09401026 11688 21402 11009 21051 39904 40047 57014 60002 70200 81531 333 21030 43064 70001 91108=
0110010260999992014010207004+69650+018933FM-12+011599999V0203601N001019999999N999999999-00061-00501100451ADDAA101000091MA1999990099021MD1610131+9990REMSYN05801026 26/// /3601 11006 21050 39902 40045 56013 333 60005=
0110010260999992014010208004+69650+018933FM-12+011599999V0200401N001019999999N999999999+00001-00481100411ADDAA101000091MA1999990098991MD1710091+9990REMSYN05801026 26/// /0401 10000 21048 39899 40041 57009 333 60005=
0240010260999992014010209004+69650+018933FM-12+011599999V0203401N001019999999N070000199-00041-00451100411ADDAA101000091AY121021AY201021GA1021+999991061GA2991+999991021GA3991+999991031GE19MSL   +99999+99999GF107991021990999999991991MA1999990098981MD1710051+9990MW1021REMSYN07001026 21688 73401 11004 21045 39898 40041 57005 70220 82538 333 60005=
0110010260999992014010210004+69650+018933FM-12+011599999V0200501N001019999999N999999999-00011-00451100431ADDAA101000091MA1999990099001MD1510011+9990REMSYN05801026 26/// /0501 11001 21045 39900 40043 55001 333 60005=
0110010260999992014010211004+69650+018933FM-12+011599999V0200901N001019999999N999999999+00041-00461100391ADDAA101000091MA1999990098971MD1810021+9990REMSYN05801026 26/// /0901 10004 21046 39897 40039 58002 333 60005=
0289010260999992014010212004+69650+018933FM-12+011599999V0200201N001019999999N070000199+00151-00451100341ADDAA101000091AJ199991999999999AY121021AY201021GA1011+999991081GA2991+999991021GA3991+999991031GE19MSL   +99999+99999GF107991011990999999991991IA1279MA1999990098921MD1810061+9990MW1021OD139900701999REMSYN08201026 21588 70201 10015 21045 39892 40034 58006 70220 81838 333 43/// 60005 91107=
0110010260999992014010213004+69650+018933FM-12+011599999V0200701N002019999999N999999999+00131-00351100311ADDAA101000091MA1999990098891MD1710111+9990REMSYN05801026 26/// /0702 10013 21035 39889 40031 57011 333 60005=
0110010260999992014010214004+69650+018933FM-12+011599999V0201901N006019999999N999999999+00241-00371100301ADDAA101000091MA1999990098891MD1510081+9990REMSYN05801026 26/// /1906 10024 21037 39889 40030 55008 333 60005=
0240010260999992014010215004+69650+018933FM-12+011599999V0201901N007019999999N070000199+00211-00521100321ADDAA101000091AY121021AY201021GA1021+999991061GA2991+999991001GA3991+999991031GE19MSL   +99999+99999GF104991021990999999991991MA1999990098911MD1510011+9990MW1011REMSYN07001026 21588 41907 10021 21052 39891 40032 55001 70120 82541 333 60005=
0110010260999992014010216004+69650+018933FM-12+011599999V0202101N006019999999N999999999+00151-00461100341ADDAA101000091MA1999990098921MD1310031+9990REMSYN05801026 26/// /2106 10015 21046 39892 40034 53003 333 60005=
0110010260999992014010217004+69650+018933FM-12+011599999V0202101N005019999999N999999999+00171-00421100311ADDAA101000091MA1999990098901MD1900021+9990REMSYN05801026 26/// /2105 10017 21042 39890 40031 50002 333 60005=
0308010260999992014010218004+69650+018933FM-12+011599999V0202001N004019999999N070000199+00161-00451100291ADDAA112000091AJ199991999999999AY121021AY201021GA1011+999991061GA2991+999991021GA3991+999991031GE19MSL   +99999+99999GF104991011990999999991991IA1279KA1120M+00271MA1999990098881MD1710041+9990MW1021OD139901301999REMSYN08801026 11688 42004 10016 21045 39888 40029 57004 60002 70220 81548 333 10027 43/// 91113=
0110010260999992014010219004+69650+018933FM-12+011599999V0201801N003019999999N999999999+00121-00411100291ADDAA101000091MA1999990098871MD1710051+9990REMSYN05801026 26/// /1803 10012 21041 39887 40029 57005 333 60005=
0110010260999992014010220004+69650+018933FM-12+011599999V0201701N001019999999N999999999+00031-00501100301ADDAA101000091MA1999990098881MD1710021+9990REMSYN05801026 26/// /1701 10003 21050 39888 40030 57002 333 60005=
0224010260999992014010221004+69650+018933FM-12+011599999V0203601N002019999999N070000199-00011-00441100291ADDAA101000091AY111021AY201021GA1991+999991021GA2011+999991031GE19MSL   +99999+99999GF101991990990999999991991MA1999990098871MD1710011+9990MW1011REMSYN07001026 21888 13602 11001 21044 39887 40029 57001 70110 81048 333 60005=
0129010260999992014010222004+69650+018933FM-12+011599999V0200401N002019999999N999999999-00131-00511100291ADDAA101000091MA1999990098861MD1410009+9990REMSYN05801026 26/// /0402 11013 21051 39886 40029 54001 333 60005=EQDQ01.1    3APC3  
0110010260999992014010223004+69650+018933FM-12+011599999V0200301N002019999999N999999999-00091-00481100271ADDAA101000091MA1999990098841MD1710031+9990REMSYN05801026 26/// /0302 11009 21048 39884 40027 57003 333 60005=
0276010260999992014010300004+69650+018933FM-12+011599999V0200401N003019999999N070001199-00061-00471100221ADDAA101000091AJ199991999999999AY121021AY211021GA1999+999991021GE19MSL   +99999+99999GF106991001990999999991991IA1279MA1999990098791MD1810071+9990MW1031OD139900701999REMSYN08201026 21989 60403 11006 21047 39879 40022 58007 70321 80008 333 43/// 60005 91107=EQDQ01    003SCCGA1
0110010260999992014010301004+69650+018933FM-12+011599999V0200301N002019999999N999999999-00061-00421100171ADDAA101000091MA1999990098751MD1810111+9990REMSYN05801026 26/// /0302 11006 21042 39875 40017 58011 333 60005=
0110010260999992014010302004+69650+018933FM-12+011599999V0200401N001019999999N999999999-00011-00391100171ADDAA101000091MA1999990098751MD1510091+9990REMSYN05801026 26/// /0401 11001 21039 39875 40017 55009 333 60005=
0224010260999992014010303004+69650+018933FM-12+011599999V0200401N002019999999N070001199-00051-00441100181ADDAA101000091AY121021AY221021GA1991+999991021GA2031+999991031GE19MSL   +99999+99999GF105991990990999999991991MA1999990098761MD1510031+9990MW1021REMSYN07001026 21889 50402 11005 21044 39876 40018 55003 70222 83038 333 60005=
0110010260999992014010304004+69650+018933FM-12+011599999V0200301N002019999999N999999999-00031-00491100141ADDAA101000091MA1999990098721MD1810031+9990REMSYN05801026 26/// /0302 11003 21049 39872 40014 58003 333 60005=
0110010260999992014010305004+69650+018933FM-12+011599999V0200501N003019999999N999999999+00041-00471100121ADDAA101000091MA1999990098701MD1810051+9990REMSYN05801026 26/// /0503 10004 21047 39870 40012 58005 333 60005=
0149010260999992014010306004+69650+018933FM-12+011599999V0200601N001019999999N999999999+00001-00371100131ADDAA101000091KA1240N-00141MA1999990098711MD1510051+9990OD139900901999REMSYN07001026 26/// /0601 10000 21037 39871 40013 55005 333 21014 60005 91109=
0110010260999992014010307004+69650+018933FM-12+011599999V0200601N001019999999N999999999+00051-00461100141ADDAA101000091MA1999990098721MD1510001+9990REMSYN05801026 26/// /0601 10005 21046 39872 40014 55000 333 60005=
0110010260999992014010308004+69650+018933FM-12+011599999V0203501N001019999999N999999999+00101-00451100151ADDAA101000091MA1999990098731MD1210031+9990REMSYN05801026 26/// /3501 10010 21045 39873 40015 52003 333 60005=
0224010260999992014010309004+69650+018933FM-12+011599999V0200701N002019999999N070001199+00131-00391100161ADDAA101000091AY121021AY221021GA1991+999991031GA2061+999991061GE19MSL   +99999+99999GF108991990990999999991991MA1999990098751MD1210041+9990MW1021REMSYN07001026 21689 80702 10013 21039 39875 40016 52004 70222 8657/ 333 60005=
0110010260999992014010310004+69650+018933FM-12+011599999V0200201N001019999999N999999999+00121-00401100161ADDAA101000091MA1999990098741MD1900021+9990REMSYN05801026 26/// /0201 10012 21040 39874 40016 50002 333 60005=
0110010260999992014010311004+69650+018933FM-12+011599999V0200501N001019999999N999999999+00191-00421100151ADDAA101000091MA1999990098741MD1900011+9990REMSYN05801026 26/// /0501 10019 21042 39874 40015 50001 333 60005=
0130010260999992014010312004+69650+018933FM-12+011599999V0203301N001019999999N999999999+00181-00391100131ADDAA101000091MA1999990098721MD1710021+9990OD139900301999REMSYN06401026 26/// /3301 10018 21039 39872 40013 57002 333 60005 91103=
0110010260999992014010313004+69650+018933FM-12+011599999V0202901N002019999999N999999999+00161-00361100121ADDAA101000091MA1999990098711MD1710031+9990REMSYN05801026 26/// /2902 10016 21036 39871 40012 57003 333 60005=
0110010260999992014010314004+69650+018933FM-12+011599999V0203301N001019999999N999999999+00091-00311100101ADDAA101000091MA1999990098681MD1710061+9990REMSYN05801026 26/// /3301 10009 21031 39868 40010 57006 333 60005=
0224010260999992014010315004+69650+018933FM-12+011599999V0200401N001019999999N070000199+00101-00301100051ADDAA101000091AY121021AY221021GA1991+999991021GA2021+999991061GE19MSL   +99999+99999GF108991990990999999991991MA1999990098641MD1710081+9990MW1021REMSYN07001026 21688 80401 10010 21030 39864 40005 57008 70222 82508 333 60005=
0110010260999992014010316004+69650+018933FM-12+011599999V0200701N002019999999N999999999+00151-00321099991ADDAA101000091MA1999990098581MD1810121+9990REMSYN05801026 26/// /0702 10015 21032 39858 49999 58012 333 60005=
0110010260999992014010317004+69650+018933FM-12+011599999V0200401N001019999999N999999999+00141-00321099941ADDAA101000091MA1999990098531MD1810151+9990REMSYN05801026 26/// /0401 10014 21032 39853 49994 58015 333 60005=
0149010260999992014010318004+69650+018933FM-12+011599999V0200401N002019999999N999999999+00181-00291099911ADDAA101000091KA1120M+00201MA1999990098501MD1710151+9990OD139900301999REMSYN07001026 26/// /0402 10018 21029 39850 49991 57015 333 10020 60005 91103=
0110010260999992014010319004+69650+018933FM-12+011599999V0200401N001019999999N999999999+00161-00271099861ADDAA101000091MA1999990098451MD1710131+9990REMSYN05801026 26/// /0401 10016 21027 39845 49986 57013 333 60005=
0110010260999992014010320004+69650+018933FM-12+011599999V0200501N002019999999N999999999+00171-00301099811ADDAA101000091MA1999990098401MD1710121+9990REMSYN05801026 26/// /0502 10017 21030 39840 49981 57012 333 60005=
0240010260999992014010321004+69650+018933FM-12+011599999V0200601N001019999999N060000199+00201-00271099791ADDAA101000091AY121021AY221021GA1011+999991061GA2991+999991021GA3991+999991051GE19MSL   +99999+99999GF108991011990999999991991MA1999990098381MD1710121+9990MW1021REMSYN07001026 21586 80601 10020 21027 39838 49979 57012 70222 81528 333 60005=
0110010260999992014010322004+69650+018933FM-12+011599999V0202401N002019999999N999999999+00231-00191099771ADDAA101000091MA1999990098371MD1610081+9990REMSYN05801026 26/// /2402 10023 21019 39837 49977 56008 333 60005=
0110010260999992014010323004+69650+018933FM-12+011599999V0202001N003019999999N999999999+00301-00121099771ADDAA101000091MA1999990098371MD1510031+9990REMSYN05801026 26/// /2003 10030 21012 39837 49977 55003 333 60005=
0289010260999992014010400004+69650+018933FM-12+011599999V0202301N002019999999N070000199+00321-00151099731ADDAA101000091AJ199991999999999AY121021AY221021GA1011+999991061GA2991+999991021GA3991+999991031GE19MSL   +99999+99999GF108991011990999999991991IA1279MA1999990098331MD1810051+9990MW1021OD139900701999REMSYN08201026 21588 82302 10032 21015 39833 49973 58005 70222 81538 333 43/// 60005 91107=
0110010260999992014010401004+69650+018933FM-12+011599999V0201901N003019999999N999999999+00381-00211099691ADDAA101000091MA1999990098291MD1810081+9990REMSYN05801026 26/// /1903 10038 21021 39829 49969 58008 333 60005=
0110010260999992014010402004+69650+018933FM-12+011599999V0201401N001019999999N999999999+00341-00201099671ADDAA101000091MA1999990098271MD1610091+9990REMSYN05801026 26/// /1401 10034 21020 39827 49967 56009 333 60005=
0224010260999992014010403004+69650+018933FM-12+011599999V0200601N002019999999N070001199+00261-00171099651ADDAA101000091AY121021AY221021GA1991+999991021GA2061+999991031GE19MSL   +99999+99999GF107991990990999999991991MA1999990098251MD1710081+9990MW1011REMSYN07001026 21889 70602 10026 21017 39825 49965 57008 70122 86038 333 60005=
0110010260999992014010404004+69650+018933FM-12+011599999V0200901N001019999999N999999999+00161-00151099631ADDAA101000091MA1999990098221MD1710061+9990REMSYN05801026 26/// /0901 10016 21015 39822 49963 57006 333 60005=
0110010260999992014010405004+69650+018933FM-12+011599999V0200201N002019999999N999999999+00051-00281099591ADDAA101000091MA1999990098181MD1710101+9990REMSYN05801026 26/// /0202 10005 21028 39818 49959 57010 333 60005=
0292010260999992014010406004+69650+018933FM-12+011599999V0200201N002019999999N070001199+00031-00291099591ADDAA112000091AJ100613100610094AY121021AY201021GA1991+999991021GA2011+999991031GE19MSL   +99999+99999GF103991990990999999991991IA1279KA1240N+00021MA1999990098181MD1710071+9990MW1011OD139900601999REMSYN08801026 11889 30202 10003 21029 39818 49959 57007 60002 70120 81038 333 20002 43061 91106=
0110010260999992014010407004+69650+018933FM-12+011599999V0200501N002019999999N999999999+00011-00261099601ADDAA101000091MA1999990098191MD1510031+9990REMSYN05801026 26/// /0502 10001 21026 39819 49960 55003 333 60005=
0110010260999992014010408004+69650+018933FM-12+011599999V0203401N001019999999N999999999+00091-00171099571ADDAA101000091MA1999990098161MD1810021+9990REMSYN05801026 26/// /3401 10009 21017 39816 49957 58002 333 60005=
0240010260999992014010409004+69650+018933FM-12+011599999V0202801N002019999999N070001199-00101-00331099571ADDAA101000091AY121021AY201021GA1011+999991061GA2991+999991021GA3991+999991031GE19MSL   +99999+99999GF105991011990999999991991MA1999990098151MD1710031+9990MW1031REMSYN07001026 21689 52802 11010 21033 39815 49957 57003 70320 81548 333 60005=
0110010260999992014010410004+69650+018933FM-12+011599999V0200101N001019999999N999999999+00021-00271099551ADDAA101000091MA1999990098141MD1710041+9990REMSYN05801026 26/// /0101 10002 21027 39814 49955 57004 333 60005=
0110010260999992014010411004+69650+018933FM-12+011599999V0203301N001019999999N999999999+00071-00261099541ADDAA101000091MA1999990098131MD1710021+9990REMSYN05801026 26/// /3301 10007 21026 39813 49954 57002 333 60005=
0130010260999992014010412004+69650+018933FM-12+011599999V0202801N001019999999N999999999+00141-00291099571ADDAA101000091MA1999990098161MD1310011+9990OD139900301999REMSYN06401026 26/// /2801 10014 21029 39816 49957 53001 333 60005 91103=
0110010260999992014010413004+69650+018933FM-12+011599999V0202001N002019999999N999999999+00181-00341099601ADDAA101000091MA1999990098201MD1310051+9990REMSYN05801026 26/// /2002 10018 21034 39820 49960 53005 333 60005=
0110010260999992014010414004+69650+018933FM-12+011599999V0202101N003019999999N999999999+00301-00351099591ADDAA101000091MA1999990098191MD1900051+9990REMSYN05801026 26/// /2103 10030 21035 39819 49959 50005 333 60005=
0240010260999992014010415004+69650+018933FM-12+011599999V0201901N004019999999N070000199+00351-00331099621ADDAA101000091AY121021AY221021GA1051+999991061GA2991+999991021GA3991+999991031GE19MSL   +99999+99999GF107991051990999999991991MA1999990098221MD1210061+9990MW1031REMSYN07001026 21688 71904 10035 21033 39822 49962 52006 70322 85548 333 60005=
0110010260999992014010416004+69650+018933FM-12+011599999V0203301N001019999999N999999999+00311-00321099611ADDAA101000091MA1999990098211MD1210011+9990REMSYN05801026 26/// /3301 10031 21032 39821 49961 52001 333 60005=
0110010260999992014010417004+69650+018933FM-12+011599999V0200601N001019999999N999999999+00181-00301099601ADDAA101000091MA1999990098201MD1900011+9990REMSYN05801026 26/// /0601 10018 21030 39820 49960 50001 333 60005=
0308010260999992014010418004+69650+018933FM-12+011599999V0200701N001019999999N070000199+00071-00261099651ADDAA112000091AJ199991999999999AY121021AY221021GA1011+999991061GA2991+999991021GA3991+999991031GE19MSL   +99999+99999GF104991011990999999991991IA1279KA1120M+00361MA1999990098241MD1310021+9990MW1011OD139900901999REMSYN08801026 11688 40701 10007 21026 39824 49965 53002 60002 70122 81548 333 10036 43/// 91109=
0110010260999992014010419004+69650+018933FM-12+011599999V0202501N001019999999N999999999+00031-00321099661ADDAA101000091MA1999990098251MD1310041+9990REMSYN05801026 26/// /2501 10003 21032 39825 49966 53004 333 60005=
0110010260999992014010420004+69650+018933FM-12+011599999V0202901N002019999999N999999999+00001-00281099681ADDAA101000091MA1999990098271MD1110071+9990REMSYN05801026 26/// /2902 10000 21028 39827 49968 51007 333 60005=
0227010260999992014010421004+69650+018933FM-12+011599999V0203301N001019999999N070001199-00061-00281099721ADDAA101000091AY111021AY201021GA1999+999991001GE19MSL   +99999+99999GF102991001990999999991991MA1999990098301MD1210061+9990MW1011REMSYN07001026 21989 23301 11006 21028 39830 49972 52006 70110 80001 333 60005=EQDQ01    003SCCGA1
0110010260999992014010422004+69650+018933FM-12+011599999V0200401N001019999999N999999999-00051-00241099741ADDAA101000091MA1999990098321MD1210071+9990REMSYN05801026 26/// /0401 11005 21024 39832 49974 52007 333 60005=
0110010260999992014010423004+69650+018933FM-12+011599999V0202201N002019999999N999999999-00011-00271099771ADDAA101000091MA1999990098351MD1210081+9990REMSYN05801026 26/// /2202 11001 21027 39835 49977 52008 333 60005=
0276010260999992014010500004+69650+018933FM-12+011599999V0202001N002019999999N070001199-00061-00311099771ADDAA101000091AJ199991999999999AY121021AY211021GA1999+999991021GE19MSL   +99999+99999GF107991001990999999991991IA1279MA1999990098351MD1210051+9990MW1031OD139900401999REMSYN08201026 21989 72002 11006 21031 39835 49977 52005 70321 80007 333 43/// 60005 91104=EQDQ01    003SCCGA1
0110010260999992014010501004+69650+018933FM-12+011599999V0202801N001019999999N999999999+00031-00291099771ADDAA101000091MA1999990098361MD1210041+9990REMSYN05801026 26/// /2801 10003 21029 39836 49977 52004 333 60005=
0110010260999992014010502004+69650+018933FM-12+011599999V0202301N001019999999N999999999-00041-00271099801ADDAA101000091MA1999990098381MD1210031+9990REMSYN05801026 26/// /2301 11004 21027 39838 49980 52003 333 60005=
0227010260999992014010503004+69650+018933FM-12+011599999V0202001N002019999999N070001199-00011-00211099811ADDAA101000091AY121021AY201021GA1999+999991021GE19MSL   +99999+99999GF102991001990999999991991MA1999990098391MD1210051+9990MW1011REMSYN07001026 21989 22002 11001 21021 39839 49981 52005 70120 80008 333 60005=EQDQ01    003SCCGA1
0110010260999992014010504004+69650+018933FM-12+011599999V0202101N002019999999N999999999-00051-00291099841ADDAA101000091MA1999990098421MD1210061+9990REMSYN05801026 26/// /2102 11005 21029 39842 49984 52006 333 60005=
0110010260999992014010505004+69650+018933FM-12+011599999V0202101N003019999999N999999999-00081-00261099891ADDAA101000091MA1999990098471MD1310101+9990REMSYN05801026 26/// /2103 11008 21026 39847 49989 53010 333 60005=
0309010260999992014010506004+69650+018933FM-12+011599999V0202401N003019999999N070001199+00031-00231099911ADDAA112000091AA224000091AJ100613100610094AY101021AY201021GA1991+999991021GA2011+999991031GE19MSL   +99999+99999GF102991990990999999991991IA1279KA1240N-00141MA1999990098491MD1210101+9990MW1021OD139900601999REMSYN09401026 11889 22403 10003 21023 39849 49991 52010 60002 70200 81038 333 21014 43061 70000 91106=
0110010260999992014010507004+69650+018933FM-12+011599999V0202301N003019999999N999999999-00011-00211099941ADDAA101000091MA1999990098521MD1110101+9990REMSYN05801026 26/// /2303 11001 21021 39852 49994 51010 333 60005=
0110010260999992014010508004+69650+018933FM-12+011599999V0202501N002019999999N999999999-00031-00221099991ADDAA101000091MA1999990098571MD1210101+9990REMSYN05801026 26/// /2502 11003 21022 39857 49999 52010 333 60005=
0224010260999992014010509004+69650+018933FM-12+011599999V0202401N001019999999N070001199-00031-00221100031ADDAA101000091AY101021AY201021GA1991+999991021GA2021+999991031GE19MSL   +99999+99999GF104991990990999999991991MA1999990098611MD1210121+9990MW1031REMSYN07001026 21889 42401 11003 21022 39861 40003 52012 70300 82038 333 60005=
0110010260999992014010510004+69650+018933FM-12+011599999V0202201N001019999999N999999999-00091-00241100051ADDAA101000091MA1999990098631MD1210111+9990REMSYN05801026 26/// /2201 11009 21024 39863 40005 52011 333 60005=
0110010260999992014010511004+69650+018933FM-12+011599999V0202101N002019999999N999999999-00121-00241100111ADDAA101000091MA1999990098681MD1210111+9990REMSYN05801026 26/// /2102 11012 21024 39868 40011 52011 333 60005=
0273010260999992014010512004+69650+018933FM-12+011599999V0202101N003019999999N070001199-00101-00211100161ADDAA101000091AJ199991999999999AY101021AY201021GA1991+999991021GA2011+999991031GE19MSL   +99999+99999GF104991990990999999991991IA1279MA1999990098731MD1310121+9990MW1021OD139900601999REMSYN08201026 21889 42103 11010 21021 39873 40016 53012 70200 81038 333 43/// 60005 91106=
0110010260999992014010513004+69650+018933FM-12+011599999V0202401N002019999999N999999999-00111-00211100211ADDAA101000091MA1999990098781MD1210151+9990REMSYN05801026 26/// /2402 11011 21021 39878 40021 52015 333 60005=
0110010260999992014010514004+69650+018933FM-12+011599999V0202001N002019999999N999999999-00091-00201100221ADDAA101000091MA1999990098791MD1900121+9990REMSYN05801026 26/// /2002 11009 21020 39879 40022 50012 333 60005=
0224010260999992014010515004+69650+018933FM-12+011599999V0202101N002019999999N070001199-00161-00261100251ADDAA101000091AY101021AY201021GA1991+999991021GA2011+999991031GE19MSL   +99999+99999GF103991990990999999991991MA1999990098821MD1210091+9990MW1021REMSYN07001026 21889 32102 11016 21026 39882 40025 52009 70200 81078 333 60005=
0110010260999992014010516004+69650+018933FM-12+011599999V0201901N001019999999N999999999-00251-00341100271ADDAA101000091MA1999990098831MD1210051+9990REMSYN05801026 26/// /1901 11025 21034 39883 40027 52005 333 60005=
0110010260999992014010517004+69650+018933FM-12+011599999V0202801N001019999999N999999999-00301-00391100261ADDAA101000091MA1999990098821MD1900021+9990REMSYN05801026 26/// /2801 11030 21039 39882 40026 50002 333 60005=
0292010260999992014010518004+69650+018933FM-12+011599999V0202101N001019999999N070001199-00261-00331100291ADDAA112000131AJ199991999999999AY101021AY201021GA1991+999991021GA2021+999991031GE19MSL   +99999+99999GF103991990990999999991991IA1279KA1120M+00091MA1999990098851MD1310031+9990MW1021OD139900501999REMSYN08801026 11889 32101 11026 21033 39885 40029 53003 69912 70200 82078 333 10009 43/// 91105=
0110010260999992014010519004+69650+018933FM-12+011599999V0209999C999999999999N999999999-00281-00351100311ADDAA101000091MA1999990098871MD1310031+9990REMSYN05801026 26/// /0000 11028 21035 39887 40031 53003 333 60005=
0110010260999992014010520004+69650+018933FM-12+011599999V0202201N001019999999N999999999-00261-00321100331ADDAA101000091MA1999990098891MD1210081+9990REMSYN05801026 26/// /2201 11026 21032 39889 40033 52008 333 60005=
0224010260999992014010521004+69650+018933FM-12+011599999V0202701N001019999999N070001199-00241-00301100351ADDAA101000091AY101021AY201021GA1991+999991021GA2011+999991031GE19MSL   +99999+99999GF101991990990999999991991MA1999990098911MD1210061+9990MW1011REMSYN07001026 21889 12701 11024 21030 39891 40035 52006 70100 81078 333 60005=
0110010260999992014010522004+69650+018933FM-12+011599999V0203201N001019999999N999999999-00251-00311100351ADDAA101000091MA1999990098911MD1900051+9990REMSYN05801026 26/// /3201 11025 21031 39891 40035 50005 333 60005=
0110010260999992014010523004+69650+018933FM-12+011599999V0203101N001019999999N999999999-00371-00431100341ADDAA101000091MA1999990098901MD1900001+9990REMSYN05801026 26/// /3101 11037 21043 39890 40034 50000 333 60005=
0273010260999992014010600004+69650+018933FM-12+011599999V0202001N002019999999N070001199-00321-00371100361ADDAA101000091AJ199991999999999AY101021AY201021GA1991+999991021GA2011+999991031GE19MSL   +99999+99999GF101991990990999999991991IA1279MA1999990098921MD1410001+9990MW1021OD139900301999REMSYN08201026 21889 12002 11032 21037 39892 40036 54000 70200 81078 333 43/// 60005 91103=
0110010260999992014010601004+69650+018933FM-12+011599999V0202901N001019999999N999999999-00361-00411100311ADDAA101000091MA1999990098871MD1810041+9990REMSYN05801026 26/// /2901 11036 21041 39887 40031 58004 333 60005=
0110010260999992014010602004+69650+018933FM-12+011599999V0209999C999999999999N999999999-00341-00391100261ADDAA101000091MA1999990098821MD1810081+9990REMSYN05801026 26/// /0000 11034 21039 39882 40026 58008 333 60005=
0224010260999992014010603004+69650+018933FM-12+011599999V0201901N001019999999N070001199-00341-00391100231ADDAA101000091AY101021AY201021GA1991+999991001GA2011+999991031GE19MSL   +99999+99999GF102991990990999999991991MA1999990098791MD1610121+9990MW1021REMSYN07001026 21889 21901 11034 21039 39879 40023 56012 70200 81071 333 60005=
0110010260999992014010604004+69650+018933FM-12+011599999V0202001N002019999999N999999999-00271-00321100211ADDAA101000091MA1999990098771MD1610101+9990REMSYN05801026 26/// /2002 11027 21032 39877 40021 56010 333 60005=
0110010260999992014010605004+69650+018933FM-12+011599999V0201801N001019999999N999999999-00281-00331100181ADDAA101000091MA1999990098741MD1710081+9990REMSYN05801026 26/// /1801 11028 21033 39874 40018 57008 333 60005=
0149010260999992014010606004+69650+018933FM-12+011599999V0202001N002019999999N999999999-00271-00321100131ADDAA101000091KA1240N-00411MA1999990098701MD1710091+9990OD139900301999REMSYN07001026 26/// /2002 11027 21032 39870 40013 57009 333 21041 60005 91103=
0110010260999992014010607004+69650+018933FM-12+011599999V0201701N002019999999N999999999-00291-00341100161ADDAA101000091MA1999990098721MD1510051+9990REMSYN05801026 26/// /1702 11029 21034 39872 40016 55005 333 60005=
0110010260999992014010608004+69650+018933FM-12+011599999V0202301N001019999999N999999999-00281-00331100171ADDAA101000091MA1999990098731MD1510011+9990REMSYN05801026 26/// /2301 11028 21033 39873 40017 55001 333 60005=
0224010260999992014010609004+69650+018933FM-12+011599999V0203601N001019999999N070001199-00291-00351100151ADDAA101000091AY121021AY201021GA1991+999991021GA2021+999991031GE19MSL   +99999+99999GF106991990990999999991991MA1999990098711MD1900011+9990MW1031REMSYN07001026 21889 63601 11029 21035 39871 40015 50001 70320 82038 333 60005=
0110010260999992014010610004+69650+018933FM-12+011599999V0202501N002019999999N999999999-00291-00351100181ADDAA101000091MA1999990098741MD1310031+9990REMSYN05801026 26/// /2502 11029 21035 39874 40018 53003 333 60005=
0110010260999992014010611004+69650+018933FM-12+011599999V0203001N001019999999N999999999-00201-00271100171ADDAA101000091MA1999990098741MD1310021+9990REMSYN05801026 26/// /3001 11020 21027 39874 40017 53002 333 60005=
0130010260999992014010612004+69650+018933FM-12+011599999V0203201N002019999999N999999999-00211-00301100131ADDAA101000091MA1999990098701MD1900001+9990OD139900301999REMSYN06401026 26/// /3202 11021 21030 39870 40013 50000 333 60005 91103=
0110010260999992014010613004+69650+018933FM-12+011599999V0201001N001019999999N999999999-00241-00331100111ADDAA101000091MA1999990098681MD1810061+9990REMSYN05801026 26/// /1001 11024 21033 39868 40011 58006 333 60005=
0110010260999992014010614004+69650+018933FM-12+011599999V0203101N002019999999N999999999-00211-00311100081ADDAA101000091MA1999990098651MD1610101+9990REMSYN05801026 26/// /3102 11021 21031 39865 40008 56010 333 60005=
0224010260999992014010615004+69650+018933FM-12+011599999V0200801N001019999999N070000199-00151-00261100071ADDAA101000091AY121021AY221021GA1991+999991021GA2041+999991041GE19MSL   +99999+99999GF107991990990999999991991MA1999990098641MD1710071+9990MW1021REMSYN07001026 21888 70801 11015 21026 39864 40007 57007 70222 84018 333 60005=
0110010260999992014010616004+69650+018933FM-12+011599999V0200201N002019999999N999999999-00231-00351099991ADDAA101000091MA1999990098561MD1810111+9990REMSYN05801026 26/// /0202 11023 21035 39856 49999 58011 333 60005=
0110010260999992014010617004+69650+018933FM-12+011599999V0200401N001019999999N999999999-00181-00311099961ADDAA101000091MA1999990098531MD1810121+9990REMSYN05801026 26/// /0401 11018 21031 39853 49996 58012 333 60005=
0295010260999992014010618004+69650+018933FM-12+011599999V0200301N002019999999N070000199-00231-00371099891ADDAA112000131AJ199991999999999AY121021AY201021GA1999+999991021GE19MSL   +99999+99999GF102991001990999999991991IA1279KA1120M-00151MA1999990098461MD1610181+9990MW1011OD139900401999REMSYN08801026 11988 20302 11023 21037 39846 49989 56018 69912 70120 80008 333 11015 43/// 91104=EQDQ01    003SCCGA1
0110010260999992014010619004+69650+018933FM-12+011599999V0202101N001019999999N999999999-00231-00361099901ADDAA101000091MA1999990098471MD1610101+9990REMSYN05801026 26/// /2101 11023 21036 39847 49990 56010 333 60005=
0110010260999992014010620004+69650+018933FM-12+011599999V0203601N002019999999N999999999-00141-00271099841ADDAA101000091MA1999990098421MD1610111+9990REMSYN05801026 26/// /3602 11014 21027 39842 49984 56011 333 60005=
0240010260999992014010621004+69650+018933FM-12+011599999V0203501N001019999999N070000199-00121-00271099831ADDAA101000091AY121021AY201021GA1011+999991061GA2991+999991021GA3991+999991041GE19MSL   +99999+99999GF108991011990999999991991MA1999990098411MD1810051+9990MW1021REMSYN07001026 21688 83501 11012 21027 39841 49983 58005 70220 81518 333 60005=
0110010260999992014010622004+69650+018933FM-12+011599999V0203201N003019999999N999999999-00101-00281099791ADDAA101000091MA1999990098371MD1610101+9990REMSYN05801026 26/// /3203 11010 21028 39837 49979 56010 333 60005=
0110010260999992014010623004+69650+018933FM-12+011599999V0202001N002019999999N999999999+00021-00271099701ADDAA101000091MA1999990098291MD1810131+9990REMSYN05801026 26/// /2002 10002 21027 39829 49970 58013 333 60005=
0273010260999992014010700004+69650+018933FM-12+011599999V0202101N005019999999N070000199+00211-00291099681ADDAA101000091AJ199991999999999AY121021AY201021GA1991+999991021GA2031+999991041GE19MSL   +99999+99999GF107991990990999999991991IA1279MA1999990098281MD1610121+9990MW1031OD139901001999REMSYN08201026 21888 72105 10021 21029 39828 49968 56012 70320 83018 333 43/// 60005 91110=
0110010260999992014010701004+69650+018933FM-12+011599999V0201801N008019999999N999999999+00161-00361099691ADDAA101000091MA1999990098281MD1610101+9990REMSYN05801026 26/// /1808 10016 21036 39828 49969 56010 333 60005=
0110010260999992014010702004+69650+018933FM-12+011599999V0202001N006019999999N999999999+00131-00411099661ADDAA101000091MA1999990098251MD1810041+9990REMSYN05801026 26/// /2006 10013 21041 39825 49966 58004 333 60005=
0240010260999992014010703004+69650+018933FM-12+011599999V0201901N009019999999N070000199+00111-00401099651ADDAA101000091AY121021AY221021GA1021+999991061GA2991+999991021GA3991+999991031GE19MSL   +99999+99999GF107991021990999999991991MA1999990098241MD1810051+9990MW1021REMSYN07001026 21688 71909 10011 21040 39824 49965 58005 70222 82548 333 60005=
0110010260999992014010704004+69650+018933FM-12+011599999V0201901N008019999999N999999999+00101-00341099611ADDAA101000091MA1999990098201MD1710071+9990REMSYN05801026 26/// /1908 10010 21034 39820 49961 57007 333 60005=
0110010260999992014010705004+69650+018933FM-12+011599999V0202001N005019999999N999999999+00181-00351099551ADDAA101000091MA1999990098151MD1810101+9990REMSYN05801026 26/// /2005 10018 21035 39815 49955 58010 333 60005=
0325010260999992014010706004+69650+018933FM-12+011599999V0202001N005019999999N070001199+00231-00381099521ADDAA112000091AA224000131AJ100613100610094AY121021AY221021GA1031+999991061GA2991+999991021GA3991+999991031GE19MSL   +99999+99999GF108991031990999999991991IA1279KA1240N-00281MA1999990098121MD1610111+9990MW1021OD139901501999REMSYN09401026 11689 82005 10023 21038 39812 49952 56011 60002 70222 83578 333 21028 43061 70001 91115=
0110010260999992014010707004+69650+018933FM-12+011599999V0201901N005019999999N999999999+00201-00391099521ADDAA101000091MA1999990098121MD1610081+9990REMSYN05801026 26/// /1905 10020 21039 39812 49952 56008 333 60005=
0110010260999992014010708004+69650+018933FM-12+011599999V0202001N004019999999N999999999+00211-00331099531ADDAA101000091MA1999990098131MD1510021+9990REMSYN05801026 26/// /2004 10021 21033 39813 49953 55002 333 60005=
0240010260999992014010709004+69650+018933FM-12+011599999V0202001N004019999999N070000199+00171-00391099541ADDAA101000091AY121021AY221021GA1021+999991061GA2991+999991021GA3991+999991031GE19MSL   +99999+99999GF108991021990999999991991MA1999990098141MD1210021+9990MW1021REMSYN07001026 21688 82004 10017 21039 39814 49954 52002 70222 82578 333 60005=
0110010260999992014010710004+69650+018933FM-12+011599999V0201901N005019999999N999999999+00211-00381099561ADDAA101000091MA1999990098161MD1210041+9990REMSYN05801026 26/// /1905 10021 21038 39816 49956 52004 333 60005=
0110010260999992014010711004+69650+018933FM-12+011599999V0201801N004019999999N999999999+00191-00381099571ADDAA101000091MA1999990098171MD1210031+9990REMSYN05801026 26/// /1804 10019 21038 39817 49957 52003 333 60005=
0289010260999992014010712004+69650+018933FM-12+011599999V0201701N002019999999N065000199+00181-00381099551ADDAA101000091AJ199991999999999AY121021AY221021GA1021+999991061GA2991+999991021GA3991+999991031GE19MSL   +99999+99999GF108991021990999999991991IA1279MA1999990098151MD1900011+9990MW1021OD139901201999REMSYN08201026 21587 81702 10018 21038 39815 49955 50001 70222 82578 333 43/// 60005 91112=
0110010260999992014010713004+69650+018933FM-12+011599999V0201801N002019999999N999999999+00141-00381099531ADDAA101000091MA1999990098131MD1810021+9990REMSYN05801026 26/// /1802 10014 21038 39813 49953 58002 333 60005=
0110010260999992014010714004+69650+018933FM-12+011599999V0202901N002019999999N999999999+00061-00401099501ADDAA101000091MA1999990098091MD1810081+9990REMSYN05801026 26/// /2902 10006 21040 39809 49950 58008 333 60005=
0240010260999992014010715004+69650+018933FM-12+011599999V0200501N001019999999N070000199-00051-00381099481ADDAA101000091AY121021AY221021GA1011+999991061GA2991+999991021GA3991+999991031GE19MSL   +99999+99999GF106991011990999999991991MA1999990098071MD1710091+9990MW1011REMSYN07001026 21688 60501 11005 21038 39807 49948 57009 70122 81538 333 60005=
0110010260999992014010716004+69650+018933FM-12+011599999V0203001N002019999999N999999999-00061-00351099481ADDAA101000091MA1999990098071MD1510071+9990REMSYN05801026 26/// /3002 11006 21035 39807 49948 55007 333 60005=
0110010260999992014010717004+69650+018933FM-12+011599999V0203301N002019999999N999999999-00091-00381099501ADDAA101000091MA1999990098081MD1710011+9990REMSYN05801026 26/// /3302 11009 21038 39808 49950 57001 333 60005=
0308010260999992014010718004+69650+018933FM-12+011599999V0203001N002019999999N070000199-00041-00361099491ADDAA112000091AJ199991999999999AY121021AY221021GA1021+999991061GA2991+999991021GA3991+999991031GE19MSL   +99999+99999GF106991021990999999991991IA1279KA1120M+00241MA1999990098081MD1210021+9990MW1021OD139900401999REMSYN08801026 11588 63002 11004 21036 39808 49949 52002 60002 70222 82538 333 10024 43/// 91104=
0110010260999992014010719004+69650+018933FM-12+011599999V0203101N002019999999N999999999-00021-00321099501ADDAA101000091MA1999990098091MD1210021+9990REMSYN05801026 26/// /3102 11002 21032 39809 49950 52002 333 60005=
0129010260999992014010720004+69650+018933FM-12+011599999V0203301N002019999999N999999999+00011-00401099501ADDAA101000091MA1999990098091MD1410009+9990REMSYN05801026 26/// /3302 10001 21040 39809 49950 54001 333 60005=EQDQ01.1    3APC3  
0240010260999992014010721004+69650+018933FM-12+011599999V0202701N002019999999N070000199-00011-00341099531ADDAA112000091AY121021AY221021GA1031+999991061GA2991+999991021GA3991+999991031GE19MSL   +99999+99999GF106991031990999999991991MA1999990098121MD1310041+9990MW1021REMSYN07001026 21688 62702 11001 21034 39812 49953 53004 70222 83538 333 60002=
0110010260999992014010722004+69650+018933FM-12+011599999V0203101N003019999999N999999999-00061-00381099561ADDAA101000091MA1999990098141MD1210051+9990REMSYN05801026 26/// /3103 11006 21038 39814 49956 52005 333 60005=
0110010260999992014010723004+69650+018933FM-12+011599999V0203001N002019999999N999999999-00011-00351099551ADDAA101000091MA1999990098141MD1110051+9990REMSYN05801026 26/// /3002 11001 21035 39814 49955 51005 333 60005=
0273010260999992014010800004+69650+018933FM-12+011599999V0203101N002019999999N070000199+00021-00391099571ADDAA101000091AJ199991999999999AY121021AY221021GA1991+999991031GA2051+999991061GE19MSL   +99999+99999GF108991990990999999991991IA1279MA1999990098161MD1210041+9990MW1021OD139900301999REMSYN08201026 21588 83102 10002 21039 39816 49957 52004 70222 8557/ 333 43/// 60005 91103=
0110010260999992014010801004+69650+018933FM-12+011599999V0200401N002019999999N999999999+00011-00391099591ADDAA101000091MA1999990098181MD1210041+9990REMSYN05801026 26/// /0402 10001 21039 39818 49959 52004 333 60005=
0110010260999992014010802004+69650+018933FM-12+011599999V0201701N002019999999N999999999+00051-00401099611ADDAA101000091MA1999990098201MD1210061+9990REMSYN05801026 26/// /1702 10005 21040 39820 49961 52006 333 60005=
0224010260999992014010803004+69650+018933FM-12+011599999V0202901N001019999999N070000199+00051-00401099611ADDAA101000091AY121021AY221021GA1991+999991031GA2041+999991061GE19MSL   +99999+99999GF108991990990999999991991MA1999990098201MD1210041+9990MW1021REMSYN07001026 21688 82901 10005 21040 39820 49961 52004 70222 8457/ 333 60005=
0110010260999992014010804004+69650+018933FM-12+011599999V0203101N001019999999N999999999+00031-00381099631ADDAA101000091MA1999990098221MD1210041+9990REMSYN05801026 26/// /3101 10003 21038 39822 49963 52004 333 60005=
0110010260999992014010805004+69650+018933FM-12+011599999V0200601N001019999999N999999999+00051-00401099651ADDAA101000091MA1999990098241MD1210041+9990REMSYN05801026 26/// /0601 10005 21040 39824 49965 52004 333 60005=
0344010260999992014010806004+69650+018933FM-12+011599999V0200601N002019999999N060000199+00091-00461099651ADDAA112999999AA224999999AJ100613100610094AY171021AY221021GA1991+999991031GA2061+999991061GE19MSL   +99999+99999GF108991990990999999991991IA1279KA1240N-00081MA1999990098241MD1210041+9990MW1701OD139900401999REMSYN09401026 11586 80602 10009 21046 39824 49965 52004 60002 77072 8657/ 333 21008 43061 70000 91104=EQDQ01  00002PRCP12Q02  00002PRCP24
0110010260999992014010807004+69650+018933FM-12+011599999V0200601N001019999999N999999999+00061-00411099691ADDAA101000091MA1999990098281MD1210051+9990REMSYN05801026 26/// /0601 10006 21041 39828 49969 52005 333 60005=
0110010260999992014010808004+69650+018933FM-12+011599999V0200501N004019999999N999999999+00001-00281099751ADDAA101000091MA1999990098331MD1310091+9990REMSYN05801026 26/// /0504 10000 21028 39833 49975 53009 333 60005=
0224010260999992014010809004+69650+018933FM-12+011599999V0200301N005019999999N005000199-00071-00231099781ADDAA101000131AY171021AY221021GA1991+999991031GA2071+999991061GE19MSL   +99999+99999GF108991990990999999991991MA1999990098361MD1210121+9990MW1711REMSYN07001026 21450 80305 11007 21023 39836 49978 52012 77172 8757/ 333 69915=
0110010260999992014010810004+69650+018933FM-12+011599999V0200301N007019999999N999999999-00071-00171099821ADDAA101000231MA1999990098401MD1210121+9990REMSYN05801026 26/// /0307 11007 21017 39840 49982 52012 333 69925=
0110010260999992014010811004+69650+018933FM-12+011599999V0200401N004019999999N999999999-00061-00191099851ADDAA101000131MA1999990098431MD1210101+9990REMSYN05801026 26/// /0404 11006 21019 39843 49985 52010 333 69915=
0273010260999992014010812004+69650+018933FM-12+011599999V0200401N006019999999N015000199-00021-00271099851ADDAA101000091AJ199991999999999AY171021AY221021GA1991+999991031GA2071+999991061GE19MSL   +99999+99999GF108991990990999999991991IA1279MA1999990098431MD1110071+9990MW1151OD139901001999REMSYN08201026 21465 80406 11002 21027 39843 49985 51007 71572 8757/ 333 43/// 60005 91110=
0110010260999992014010813004+69650+018933FM-12+011599999V0200501N005019999999N999999999-00011-00271099901ADDAA101000131MA1999990098481MD1310091+9990REMSYN05801026 26/// /0505 11001 21027 39848 49990 53009 333 69915=
0110010260999992014010814004+69650+018933FM-12+011599999V0200301N005019999999N999999999-00061-00261099941ADDAA101000131MA1999990098521MD1310091+9990REMSYN05801026 26/// /0305 11006 21026 39852 49994 53009 333 69915=
0208010260999992014010815004+69650+018933FM-12+011599999V0200401N004019999999N006000199-00051-00281099981ADDAA101000131AY171021AY221021GA1071+999991061GE19MSL   +99999+99999GF107991071990999999991991MA1999990098561MD1210131+9990MW1701REMSYN07001026 21456 70404 11005 21028 39856 49998 52013 77072 875// 333 69915=
0110010260999992014010816004+69650+018933FM-12+011599999V0200401N003019999999N999999999-00031-00311100001ADDAA101000091MA1999990098581MD1210101+9990REMSYN05801026 26/// /0403 11003 21031 39858 40000 52010 333 60005=
0110010260999992014010817004+69650+018933FM-12+011599999V0200501N006019999999N999999999-00041-00361100031ADDAA101000091MA1999990098611MD1210091+9990REMSYN05801026 26/// /0506 11004 21036 39861 40003 52009 333 60005=
0276010260999992014010818004+69650+018933FM-12+011599999V0200401N005019999999N030000199-00031-00401100061ADDAA112000431AJ199991999999999AY171021AY221021GA1071+999991061GE19MSL   +99999+99999GF108991071990999999991991IA1279KA1120M+00091MA1999990098641MD1210081+9990MW1221OD139901101999REMSYN08801026 11480 80405 11003 21040 39864 40006 52008 69942 72272 875// 333 10009 43/// 91111=
0110010260999992014010819004+69650+018933FM-12+011599999V0200301N005019999999N999999999-00081-00421100131ADDAA101000091MA1999990098711MD1310121+9990REMSYN05801026 26/// /0305 11008 21042 39871 40013 53012 333 60005=
0110010260999992014010820004+69650+018933FM-12+011599999V0200401N006019999999N999999999-00071-00451100191ADDAA101000091MA1999990098761MD1210151+9990REMSYN05801026 26/// /0406 11007 21045 39876 40019 52015 333 60005=
0208010260999992014010821004+69650+018933FM-12+011599999V0200601N005019999999N040000199-00091-00531100251ADDAA101000091AY171021AY221021GA1071+999991061GE19MSL   +99999+99999GF108991071990999999991991MA1999990098821MD1210181+9990MW1161REMSYN07001026 21582 80605 11009 21053 39882 40025 52018 71672 875// 333 60005=
0110010260999992014010822004+69650+018933FM-12+011599999V0200401N004019999999N999999999-00121-00661100291ADDAA101000091MA1999990098861MD1210151+9990REMSYN05801026 26/// /0404 11012 21066 39886 40029 52015 333 60005=
0110010260999992014010823004+69650+018933FM-12+011599999V0200601N007019999999N999999999-00161-00731100301ADDAA101000091MA1999990098871MD1900121+9990REMSYN05801026 26/// /0607 11016 21073 39887 40030 50012 333 60005=
0273010260999992014010900004+69650+018933FM-12+011599999V0200701N007019999999N055000199-00181-00821100361ADDAA101000091AJ199991999999999AY121021AY221021GA1991+999991031GA2051+999991061GE19MSL   +99999+99999GF106991990990999999991991IA1279MA1999990098931MD1310111+9990MW1021OD139901601999REMSYN08201026 21585 60707 11018 21082 39893 40036 53011 70222 85570 333 43/// 60005 91116=
0110010260999992014010901004+69650+018933FM-12+011599999V0200801N006019999999N999999999-00231-00841100451ADDAA101000091MA1999990099011MD1310151+9990REMSYN05801026 26/// /0806 11023 21084 39901 40045 53015 333 60005=
0110010260999992014010902004+69650+018933FM-12+011599999V0200701N006019999999N999999999-00271-00911100501ADDAA101000091MA1999990099061MD1210181+9990REMSYN05801026 26/// /0706 11027 21091 39906 40050 52018 333 60005=
0224010260999992014010903004+69650+018933FM-12+011599999V0200701N007019999999N055000199-00281-00971100561ADDAA101000091AY121021AY221021GA1991+999991031GA2051+999991061GE19MSL   +99999+99999GF106991990990999999991991MA1999990099121MD1310181+9990MW1021REMSYN07001026 21585 60707 11028 21097 39912 40056 53018 70222 85570 333 60005=
0110010260999992014010904004+69650+018933FM-12+011599999V0200501N009019999999N999999999-00331-01041100621ADDAA101000091MA1999990099181MD1310171+9990REMSYN05801026 26/// /0509 11033 21104 39918 40062 53017 333 60005=
0110010260999992014010905004+69650+018933FM-12+011599999V0200701N005019999999N999999999-00401-01111100711ADDAA101000091MA1999990099261MD1310201+9990REMSYN05801026 26/// /0705 11040 21111 39926 40071 53020 333 60005=
0309010260999992014010906004+69650+018933FM-12+011599999V0200801N006019999999N060000199-00431-01181100791ADDAA112000091AA224000431AJ100603100600094AY121021AY221021GA1991+999991031GA2041+999991061GE19MSL   +99999+99999GF106991990990999999991991IA1239KA1240N-00431MA1999990099341MD1310221+9990MW1021OD139901701999REMSYN09401026 11686 60806 11043 21118 39934 40079 53022 60002 70222 84550 333 21043 47060 70004 91117=
0110010260999992014010907004+69650+018933FM-12+011599999V0200801N007019999999N999999999-00441-01231100841ADDAA101000091MA1999990099391MD1310211+9990REMSYN05801026 26/// /0807 11044 21123 39939 40084 53021 333 60005=
0110010260999992014010908004+69650+018933FM-12+011599999V0200701N006019999999N999999999-00431-01331100921ADDAA101000091MA1999990099471MD1210201+9990REMSYN05801026 26/// /0706 11043 21133 39947 40092 52020 333 60005=
0224010260999992014010909004+69650+018933FM-12+011599999V0200601N008019999999N070001199-00441-01401100991ADDAA101000091AY121021AY201021GA1991+999991021GA2011+999991031GE19MSL   +99999+99999GF101991990990999999991991MA1999990099531MD1310191+9990MW1011REMSYN07001026 21889 10608 11044 21140 39953 40099 53019 70120 81048 333 60005=
0110010260999992014010910004+69650+018933FM-12+011599999V0200701N007019999999N999999999-00441-01521101031ADDAA101000091MA1999990099571MD1110191+9990REMSYN05801026 26/// /0707 11044 21152 39957 40103 51019 333 60005=
0110010260999992014010911004+69650+018933FM-12+011599999V0200601N006019999999N999999999-00541-01451101111ADDAA101000091MA1999990099651MD1310181+9990REMSYN05801026 26/// /0606 11054 21145 39965 40111 53018 333 60005=
0273010260999992014010912004+69650+018933FM-12+011599999V0200801N005019999999N070001199-00571-01431101171ADDAA101000091AJ199991999999999AY101021AY201021GA1991+999991021GA2011+999991031GE19MSL   +99999+99999GF101991990990999999991991IA1239MA1999990099701MD1110161+9990MW1021OD139901501999REMSYN08201026 21889 10805 11057 21143 39970 40117 51016 70200 81048 333 47/// 60005 91115=
0110010260999992014010913004+69650+018933FM-12+011599999V0200801N005019999999N999999999-00611-01511101241ADDAA101000091MA1999990099771MD1210201+9990REMSYN05801026 26/// /0805 11061 21151 39977 40124 52020 333 60005=
0110010260999992014010914004+69650+018933FM-12+011599999V0200701N005019999999N999999999-00611-01591101301ADDAA101000091MA1999990099831MD1210181+9990REMSYN05801026 26/// /0705 11061 21159 39983 40130 52018 333 60005=
0227010260999992014010915004+69650+018933FM-12+011599999V0200701N003019999999N070001199-00681-01731101331ADDAA101000091AY101021AY201021GA1999+999991021GE19MSL   +99999+99999GF101991001990999999991991MA1999990099861MD1110161+9990MW1021REMSYN07001026 21989 10703 11068 21173 39986 40133 51016 70200 80008 333 60005=EQDQ01    003SCCGA1
0110010260999992014010916004+69650+018933FM-12+011599999V0200901N003019999999N999999999-00671-01731101351ADDAA101000091MA1999990099881MD1110101+9990REMSYN05801026 26/// /0903 11067 21173 39988 40135 51010 333 60005=
0110010260999992014010917004+69650+018933FM-12+011599999V0200601N004019999999N999999999-00651-01701101371ADDAA101000091MA1999990099901MD1210071+9990REMSYN05801026 26/// /0604 11065 21170 39990 40137 52007 333 60005=
0206010260999992014010918004+69650+018933FM-12+011599999V0200801N003019999999N070001199-00621-01701101381ADDAA112000091AJ199991999999999AY101021AY201021IA1279KA1120M-00411MA1999990099911MD1210061+9990MW1021OD139901201999REMSYN08201026 11989 00803 11062 21170 39991 40138 52006 60002 70200 333 11041 43/// 91112=
0110010260999992014010919004+69650+018933FM-12+011599999V0200501N004019999999N999999999-00701-01651101441ADDAA101000091MA1999990099961MD1310081+9990REMSYN05801026 26/// /0504 11070 21165 39996 40144 53008 333 60005=
0110010260999992014010920004+69650+018933FM-12+011599999V0200801N001019999999N999999999-00821-01721101481ADDAA101000091MA1999990100001MD1310101+9990REMSYN05801026 26/// /0801 11082 21172 30000 40148 53010 333 60005=
0138010260999992014010921004+69650+018933FM-12+011599999V0200301N002019999999N070001199-00711-01701101531ADDAA101000091AY101021AY201021MA1999990100051MD1210141+9990MW1021REMSYN06401026 21989 00302 11071 21170 30005 40153 52014 70200 333 60005=
0110010260999992014010922004+69650+018933FM-12+011599999V0200801N002019999999N999999999-00671-01671101551ADDAA101000091MA1999990100071MD1110101+9990REMSYN05801026 26/// /0802 11067 21167 30007 40155 51010 333 60005=
0110010260999992014010923004+69650+018933FM-12+011599999V0203301N001019999999N999999999-00821-01711101521ADDAA101000091MA1999990100041MD1900041+9990REMSYN05801026 26/// /3301 11082 21171 30004 40152 50004 333 60005=
0187010260999992014011000004+69650+018933FM-12+011599999V0200101N003019999999N070001199-00801-01611101541ADDAA101000091AJ199991999999999AY101021AY201021IA1279MA1999990100061MD1210011+9990MW1021OD139900701999REMSYN07601026 21989 00103 11080 21161 30006 40154 52001 70200 333 43/// 60005 91107=
0110010260999992014011001004+69650+018933FM-12+011599999V0200701N002019999999N999999999-00821-01531101521ADDAA101000091MA1999990100041MD1710031+9990REMSYN05801026 26/// /0702 11082 21153 30004 40152 57003 333 60005=
0110010260999992014011002004+69650+018933FM-12+011599999V0200701N002019999999N999999999-00831-01561101491ADDAA101000091MA1999990100011MD1810031+9990REMSYN05801026 26/// /0702 11083 21156 30001 40149 58003 333 60005=
0138010260999992014011003004+69650+018933FM-12+011599999V0201101N001019999999N070001199-00851-01511101491ADDAA101000091AY101021AY201021MA1999990100001MD1710061+9990MW1021REMSYN06401026 21989 01101 11085 21151 30000 40149 57006 70200 333 60005=
0110010260999992014011004004+69650+018933FM-12+011599999V0202301N001019999999N999999999-00931-01351101481ADDAA101000091MA1999990099991MD1710051+9990REMSYN05801026 26/// /2301 11093 21135 39999 40148 57005 333 60005=
0110010260999992014011005004+69650+018933FM-12+011599999V0202701N001019999999N999999999-00961-01301101481ADDAA101000091MA1999990099991MD1710021+9990REMSYN05801026 26/// /2701 11096 21130 39999 40148 57002 333 60005=
0223010260999992014011006004+69650+018933FM-12+011599999V0200701N002019999999N070001199-00881-01221101491ADDAA112000091AA224000091AJ100603100600094AY101021AY201021IA1279KA1240N-01031MA1999990100001MD1410001+9990MW1021OD139900601999REMSYN08801026 11989 00702 11088 21122 30000 40149 54000 60002 70200 333 21103 43060 70000 91106=
0110010260999992014011007004+69650+018933FM-12+011599999V0201101N002019999999N999999999-00791-01341101501ADDAA101000091MA1999990100021MD1310041+9990REMSYN05801026 26/// /1102 11079 21134 30002 40150 53004 333 60005=
0110010260999992014011008004+69650+018933FM-12+011599999V0202001N002019999999N999999999-00921-01291101561ADDAA101000091MA1999990100071MD1310081+9990REMSYN05801026 26/// /2002 11092 21129 30007 40156 53008 333 60005=
0208010260999992014011009004+69650+018933FM-12+011599999V0200901N001019999999N070001199-00961-01351101581ADDAA101000091AY101021AY201021GA1011+999991061GE19MSL   +99999+99999GF101991011990999999991991MA1999990100091MD1210101+9990MW1021REMSYN07001026 21689 10901 11096 21135 30009 40158 52010 70200 81500 333 60005=
0110010260999992014011010004+69650+018933FM-12+011599999V0203101N001019999999N999999999-00931-01201101581ADDAA101000091MA1999990100091MD1900061+9990REMSYN05801026 26/// /3101 11093 21120 30009 40158 50006 333 60005=
0110010260999992014011011004+69650+018933FM-12+011599999V0202701N002019999999N999999999-00921-01161101591ADDAA101000091MA1999990100101MD1210021+9990REMSYN05801026 26/// /2702 11092 21116 30010 40159 52002 333 60005=
0276010260999992014011012004+69650+018933FM-12+011599999V0202501N002019999999N070001199-00951-01201101591ADDAA101000091AJ199991999999999AY101021AY201021GA1011+999991061GE19MSL   +99999+99999GF101991011990999999991991IA1279MA1999990100101MD1290019+9990MW1021OD139900601999REMSYN08201026 21589 12502 11095 21120 30010 40159 54001 70200 81500 333 43/// 60005 91106=EQDQ01.1    3APC3  
0110010260999992014011013004+69650+018933FM-12+011599999V0202701N002019999999N999999999-00961-01161101641ADDAA101000091MA1999990100151MD1310071+9990REMSYN05801026 26/// /2702 11096 21116 30015 40164 53007 333 60005=
0110010260999992014011014004+69650+018933FM-12+011599999V0209999C999999999999N999999999-01041-01221101651ADDAA101000091MA1999990100151MD1900061+9990REMSYN05801026 26/// /0000 11104 21122 30015 40165 50006 333 60005=
0208010260999992014011015004+69650+018933FM-12+011599999V0202301N002019999999N070001199-01011-01141101691ADDAA101000091AY101021AY201021GA1011+999991061GE19MSL   +99999+99999GF101991011990999999991991MA1999990100191MD1210091+9990MW1021REMSYN07001026 21589 12302 11101 21114 30019 40169 52009 70200 81500 333 60005=
0110010260999992014011016004+69650+018933FM-12+011599999V0202501N002019999999N999999999-01151-01311101721ADDAA101000091MA1999990100211MD1210061+9990REMSYN05801026 26/// /2502 11115 21131 30021 40172 52006 333 60005=
0110010260999992014011017004+69650+018933FM-12+011599999V0202501N002019999999N999999999-01031-01151101731ADDAA101000091MA1999990100231MD1110071+9990REMSYN05801026 26/// /2502 11103 21115 30023 40173 51007 333 60005=
0276010260999992014011018004+69650+018933FM-12+011599999V0202101N001019999999N070000199-01081-01201101721ADDAA112000091AJ199991999999999AY101021AY201021GA1011+999991081GE19MSL   +99999+99999GF101991011990999999991991IA1279KA1120M-00771MA1999990100221MD1900021+9990MW1021OD139900301999REMSYN08801026 11588 12101 11108 21120 30022 40172 50002 60002 70200 81100 333 11077 43/// 91103=
0110010260999992014011019004+69650+018933FM-12+011599999V0202301N002019999999N999999999-01091-01201101731ADDAA101000091MA1999990100231MD1210021+9990REMSYN05801026 26/// /2302 11109 21120 30023 40173 52002 333 60005=
0110010260999992014011020004+69650+018933FM-12+011599999V0202201N002019999999N999999999-01021-01151101741ADDAA101000091MA1999990100241MD1210011+9990REMSYN05801026 26/// /2202 11102 21115 30024 40174 52001 333 60005=
0208010260999992014011021004+69650+018933FM-12+011599999V0202301N002019999999N070000199-01001-01111101771ADDAA101000091AY101021AY201021GA1011+999991081GE19MSL   +99999+99999GF101991011990999999991991MA1999990100271MD1210051+9990MW1021REMSYN07001026 21588 12302 11100 21111 30027 40177 52005 70200 81100 333 60005=
0110010260999992014011022004+69650+018933FM-12+011599999V0201801N002019999999N999999999-01091-01221101781ADDAA101000091MA1999990100281MD1210051+9990REMSYN05801026 26/// /1802 11109 21122 30028 40178 52005 333 60005=
0110010260999992014011023004+69650+018933FM-12+011599999V0201701N001019999999N999999999-01111-01251101781ADDAA101000091MA1999990100281MD1110051+9990REMSYN05801026 26/// /1701 11111 21125 30028 40178 51005 333 60005=
0257010260999992014011100004+69650+018933FM-12+011599999V0201901N002019999999N070001199-01101-01231101801ADDAA101000091AJ199991999999999AY101021AY201021GA1011+999991081GE19MSL   +99999+99999GF101991011990999999991991IA1279MA1999990100301MD1210031+9990MW1021OD139900301999REMSYN08201026 21589 11902 11110 21123 30030 40180 52003 70200 81100 333 43/// 60005 91103=
0110010260999992014011101004+69650+018933FM-12+011599999V0201901N001019999999N999999999-01161-01311101821ADDAA101000091MA1999990100311MD1210041+9990REMSYN05801026 26/// /1901 11116 21131 30031 40182 52004 333 60005=
0110010260999992014011102004+69650+018933FM-12+011599999V0201101N001019999999N999999999-01231-01381101831ADDAA101000091MA1999990100321MD1210031+9990REMSYN05801026 26/// /1101 11123 21138 30032 40183 52003 333 60005=
0138010260999992014011103004+69650+018933FM-12+011599999V0202001N001019999999N070001199-01231-01371101801ADDAA101000091AY101021AY201021MA1999990100291MD1810011+9990MW1021REMSYN06401026 21989 02001 11123 21137 30029 40180 58001 70200 333 60005=
0110010260999992014011104004+69650+018933FM-12+011599999V0201901N001019999999N999999999-01171-01301101811ADDAA101000091MA1999990100301MD1710021+9990REMSYN05801026 26/// /1901 11117 21130 30030 40181 57002 333 60005=
0110010260999992014011105004+69650+018933FM-12+011599999V0201801N002019999999N999999999-01201-01331101831ADDAA101000091MA1999990100321MD1510001+9990REMSYN05801026 26/// /1802 11120 21133 30032 40183 55000 333 60005=
0293010260999992014011106004+69650+018933FM-12+011599999V0201201N001019999999N070001199-01201-01331101841ADDAA112000131AA224000131AJ100613100610094AY101021AY201021GA1011+999991081GE19MSL   +99999+99999GF101991011990999999991991IA1279KA1240N-01301MA1999990100331MD1210051+9990MW1021OD139900301999REMSYN09401026 11589 11201 11120 21133 30033 40184 52005 69912 70200 81100 333 21130 43061 70001 91103=
0110010260999992014011107004+69650+018933FM-12+011599999V0202601N001019999999N999999999-01131-01251101861ADDAA101000091MA1999990100351MD1210051+9990REMSYN05801026 26/// /2601 11113 21125 30035 40186 52005 333 60005=
0110010260999992014011108004+69650+018933FM-12+011599999V0201301N001019999999N999999999-01231-01361101871ADDAA101000091MA1999990100361MD1210051+9990REMSYN05801026 26/// /1301 11123 21136 30036 40187 52005 333 60005=
0208010260999992014011109004+69650+018933FM-12+011599999V0201501N001019999999N070001199-01251-01391101871ADDAA101000091AY101021AY201021GA1011+999991081GE19MSL   +99999+99999GF101991011990999999991991MA1999990100361MD1210031+9990MW1021REMSYN07001026 21589 11501 11125 21139 30036 40187 52003 70200 81100 333 60005=
0110010260999992014011110004+69650+018933FM-12+011599999V0201301N001019999999N999999999-01231-01361101891ADDAA101000091MA1999990100381MD1210031+9990REMSYN05801026 26/// /1301 11123 21136 30038 40189 52003 333 60005=
0110010260999992014011111004+69650+018933FM-12+011599999V0201701N002019999999N999999999-01181-01311101891ADDAA101000091MA1999990100381MD1210021+9990REMSYN05801026 26/// /1702 11118 21131 30038 40189 52002 333 60005=
0228010260999992014011112004+69650+018933FM-12+011599999V0201301N001019999999N070001199-01161-01311101921ADDAA101000091AY101021AY201021GA1011+999991081GE19MSL   +99999+99999GF101991011990999999991991MA1999990100411MD1310051+9990MW1021OD139900301999REMSYN07601026 21489 11301 11116 21131 30041 40192 53005 70200 81100 333 60005 91103=
0110010260999992014011113004+69650+018933FM-12+011599999V0209999C999999999999N999999999-01281-01461101931ADDAA101000091MA1999990100411MD1310031+9990REMSYN05801026 26/// /0000 11128 21146 30041 40193 53003 333 60005=
0110010260999992014011114004+69650+018933FM-12+011599999V0202501N002019999999N999999999-01051-01161101911ADDAA101000091MA1999990100411MD1110031+9990REMSYN05801026 26/// /2502 11105 21116 30041 40191 51003 333 60005=
0208010260999992014011115004+69650+018933FM-12+011599999V0202401N001019999999N070001199-01071-01171101911ADDAA101000091AY101021AY201021GA1011+999991081GE19MSL   +99999+99999GF101991011990999999991991MA1999990100411MD1710011+9990MW1021REMSYN07001026 21489 12401 11107 21117 30041 40191 57001 70200 81100 333 60005=
0110010260999992014011116004+69650+018933FM-12+011599999V0200401N001019999999N999999999-01161-01271101931ADDAA101000091MA1999990100421MD1410001+9990REMSYN05801026 26/// /0401 11116 21127 30042 40193 54000 333 60005=
0110010260999992014011117004+69650+018933FM-12+011599999V0202401N001019999999N999999999-01131-01251101931ADDAA101000091MA1999990100421MD1410001+9990REMSYN05801026 26/// /2401 11113 21125 30042 40193 54000 333 60005=
0276010260999992014011118004+69650+018933FM-12+011599999V0202801N001019999999N070001199-01201-01321101941ADDAA112000131AJ199991999999999AY101021AY201021GA1011+999991081GE19MSL   +99999+99999GF101991011990999999991991IA1279KA1120M-01041MA1999990100431MD1210021+9990MW1021OD139900201999REMSYN08801026 11589 12801 11120 21132 30043 40194 52002 69912 70200 81100 333 11104 43/// 91102=
0110010260999992014011119004+69650+018933FM-12+011599999V0202601N001019999999N999999999-01171-01281101961ADDAA101000091MA1999990100451MD1210031+9990REMSYN05801026 26/// /2601 11117 21128 30045 40196 52003 333 60005=
0110010260999992014011120004+69650+018933FM-12+011599999V0202601N001019999999N999999999-01161-01271101981ADDAA101000091MA1999990100471MD1210051+9990REMSYN05801026 26/// /2601 11116 21127 30047 40198 52005 333 60005=
0208010260999992014011121004+69650+018933FM-12+011599999V0202701N001019999999N070001199-01081-01191102011ADDAA101000091AY101021AY201021GA1011+999991061GE19MSL   +99999+99999GF101991011990999999991991MA1999990100501MD1210071+9990MW1021REMSYN07001026 21489 12701 11108 21119 30050 40201 52007 70200 81500 333 60005=
0110010260999992014011122004+69650+018933FM-12+011599999V0202801N001019999999N999999999-01171-01291102031ADDAA101000091MA1999990100521MD1210081+9990REMSYN05801026 26/// /2801 11117 21129 30052 40203 52008 333 60005=
0110010260999992014011123004+69650+018933FM-12+011599999V0202401N001019999999N999999999-01131-01231102021ADDAA101000091MA1999990100511MD1900041+9990REMSYN05801026 26/// /2401 11113 21123 30051 40202 50004 333 60005=
0257010260999992014011200004+69650+018933FM-12+011599999V0201901N002019999999N070001199-01121-01231102051ADDAA101000091AJ199991999999999AY101021AY201021GA1011+999991071GE19MSL   +99999+99999GF101991011990999999991991IA1279MA1999990100541MD1310041+9990MW1021OD139900301999REMSYN08201026 21289 11902 11112 21123 30054 40205 53004 70200 81600 333 43/// 60005 91103=
0110010260999992014011201004+69650+018933FM-12+011599999V0201801N002019999999N999999999-01071-01181102061ADDAA101000091MA1999990100551MD1310021+9990REMSYN05801026 26/// /1802 11107 21118 30055 40206 53002 333 60005=
0110010260999992014011202004+69650+018933FM-12+011599999V0202601N002019999999N999999999-01051-01151102071ADDAA101000091MA1999990100561MD1210051+9990REMSYN05801026 26/// /2602 11105 21115 30056 40207 52005 333 60005=
0208010260999992014011203004+69650+018933FM-12+011599999V0203501N001019999999N070001199-01151-01261102071ADDAA101000091AY101021AY201021GA1011+999991071GE19MSL   +99999+99999GF101991011990999999991991MA1999990100561MD1210021+9990MW1021REMSYN07001026 21289 13501 11115 21126 30056 40207 52002 70200 81600 333 60005=
0110010260999992014011204004+69650+018933FM-12+011599999V0202201N001019999999N999999999-01181-01281102061ADDAA101000091MA1999990100551MD1900011+9990REMSYN05801026 26/// /2201 11118 21128 30055 40206 50001 333 60005=
0110010260999992014011205004+69650+018933FM-12+011599999V0202201N001019999999N999999999-01111-01211102081ADDAA101000091MA1999990100571MD1410001+9990REMSYN05801026 26/// /2201 11111 21121 30057 40208 54000 333 60005=
0293010260999992014011206004+69650+018933FM-12+011599999V0202301N002019999999N070001199-01001-01091102091ADDAA112000131AA224000231AJ100613100610094AY101021AY201021GA1021+999991071GE19MSL   +99999+99999GF102991021990999999991991IA1279KA1240N-01241MA1999990100591MD1310031+9990MW1021OD139900301999REMSYN09401026 11389 22302 11100 21109 30059 40209 53003 69912 70200 82600 333 21124 43061 70002 91103=
0110010260999992014011207004+69650+018933FM-12+011599999V0202501N001019999999N999999999-00961-01051102151ADDAA101000091MA1999990100651MD1310101+9990REMSYN05801026 26/// /2501 11096 21105 30065 40215 53010 333 60005=
0110010260999992014011208004+69650+018933FM-12+011599999V0202201N001019999999N999999999-00921-01021102181ADDAA101000091MA1999990100681MD1210111+9990REMSYN05801026 26/// /2201 11092 21102 30068 40218 52011 333 60005=
0224010260999992014011209004+69650+018933FM-12+011599999V0202201N002019999999N070000199-00881-00971102211ADDAA101000091AY121021AY201021GA1991+999991031GA2061+999991071GE19MSL   +99999+99999GF107991990990999999991991MA1999990100711MD1210121+9990MW1031REMSYN07001026 21388 72202 11088 21097 30071 40221 52012 70320 8663/ 333 60005=
0110010260999992014011210004+69650+018933FM-12+011599999V0201901N001019999999N999999999-00911-01011102231ADDAA101000091MA1999990100731MD1210081+9990REMSYN05801026 26/// /1901 11091 21101 30073 40223 52008 333 60005=
0110010260999992014011211004+69650+018933FM-12+011599999V0202101N002019999999N999999999-00841-00921102241ADDAA101000091MA1999990100741MD1210061+9990REMSYN05801026 26/// /2102 11084 21092 30074 40224 52006 333 60005=
0273010260999992014011212004+69650+018933FM-12+011599999V0202101N002019999999N070000199-00831-00911102281ADDAA101000091AJ199991999999999AY121021AY201021GA1991+999991031GA2061+999991071GE19MSL   +99999+99999GF107991990990999999991991IA1279MA1999990100781MD1310061+9990MW1021OD139900501999REMSYN08201026 21388 72102 11083 21091 30078 40228 53006 70220 8663/ 333 43/// 60005 91105=
0110010260999992014011213004+69650+018933FM-12+011599999V0202301N002019999999N999999999-00801-00881102271ADDAA101000091MA1999990100781MD1210051+9990REMSYN05801026 26/// /2302 11080 21088 30078 40227 52005 333 60005=
0110010260999992014011214004+69650+018933FM-12+011599999V0202101N003019999999N999999999-00791-00871102291ADDAA101000091MA1999990100801MD1210061+9990REMSYN05801026 26/// /2103 11079 21087 30080 40229 52006 333 60005=
0243010260999992014011215004+69650+018933FM-12+011599999V0202201N003019999999N070000199-00781-00871102281ADDAA101000091AY121021AY221021GA1991+999991031GA2031+999991081GE19MSL   +99999+99999GF107991990990999999991991MA1999990100791MD1410009+9990MW1021REMSYN07001026 21388 72203 11078 21087 30079 40228 54001 70222 8327/ 333 60005=EQDQ01.1    3APC3  
0129010260999992014011216004+69650+018933FM-12+011599999V0202201N002019999999N999999999-00801-00891102271ADDAA101000091MA1999990100781MD1410009+9990REMSYN05801026 26/// /2202 11080 21089 30078 40227 54001 333 60005=EQDQ01.1    3APC3  
0110010260999992014011217004+69650+018933FM-12+011599999V0202101N002019999999N999999999-00771-00861102261ADDAA101000091MA1999990100771MD1710021+9990REMSYN05801026 26/// /2102 11077 21086 30077 40226 57002 333 60005=
0282010260999992014011218004+69650+018933FM-12+011599999V0202201N002019999999N018000199-00761-00861102281ADDAA112999999AY121021AY221021GA1991+999991031GA2031+999991081GE19MSL   +99999+99999GF107991990990999999991991KA1120M-00761MA1999990100791MD1410001+9990MW1851OD139900501999REMSYN08201026 11368 72202 11076 21086 30079 40228 54000 60002 78522 8387/ 333 11076 91105=EQDQ01  00002PRCP12
0110010260999992014011219004+69650+018933FM-12+011599999V0202001N003019999999N999999999-00721-00811102291ADDAA101000231MA1999990100801MD1310021+9990REMSYN05801026 26/// /2003 11072 21081 30080 40229 53002 333 69925=
0110010260999992014011220004+69650+018933FM-12+011599999V0202201N003019999999N999999999-00711-00801102281ADDAA101000531MA1999990100791MD1900021+9990REMSYN05801026 26/// /2203 11071 21080 30079 40228 50002 333 69955=
0224010260999992014011221004+69650+018933FM-12+011599999V0202101N004019999999N012000199-00711-00791102281ADDAA101000231AY181021AY221021GA1991+999991031GA2051+999991081GE19MSL   +99999+99999GF107991990990999999991991MA1999990100791MD1410001+9990MW1851REMSYN07001026 21362 72104 11071 21079 30079 40228 54000 78582 8587/ 333 69925=
0110010260999992014011222004+69650+018933FM-12+011599999V0202001N005019999999N999999999-00681-00761102231ADDAA101000131MA1999990100741MD1810061+9990REMSYN05801026 26/// /2005 11068 21076 30074 40223 58006 333 69915=
0110010260999992014011223004+69650+018933FM-12+011599999V0202001N005019999999N999999999-00671-00751102221ADDAA101000131MA1999990100731MD1810061+9990REMSYN05801026 26/// /2005 11067 21075 30073 40222 58006 333 69915=
0130010260999992014011300004+69650+018933FM-12+011599999V0202101N006019999999N999999999-00641-00721102181ADDAA101000091MA1999990100701MD1710081+9990OD139900901999REMSYN06401026 26/// /2106 11064 21072 30070 40218 57008 333 60005 91109=
0110010260999992014011301004+69650+018933FM-12+011599999V0202101N006019999999N999999999-00641-00721102181ADDAA101000131MA1999990100701MD1810041+9990REMSYN05801026 26/// /2106 11064 21072 30070 40218 58004 333 69915=
0110010260999992014011302004+69650+018933FM-12+011599999V0202001N006019999999N999999999-00621-00701102161ADDAA101000131MA1999990100681MD1710051+9990REMSYN05801026 26/// /2006 11062 21070 30068 40216 57005 333 69915=
0110010260999992014011303004+69650+018933FM-12+011599999V0202001N006019999999N999999999-00621-00701102141ADDAA101000091MA1999990100661MD1710041+9990REMSYN05801026 26/// /2006 11062 21070 30066 40214 57004 333 60005=
0110010260999992014011304004+69650+018933FM-12+011599999V0202001N006019999999N999999999-00601-00681102121ADDAA101000091MA1999990100641MD1710061+9990REMSYN05801026 26/// /2006 11060 21068 30064 40212 57006 333 60005=
0110010260999992014011305004+69650+018933FM-12+011599999V0202101N006019999999N999999999-00581-00661102081ADDAA101000091MA1999990100601MD1710081+9990REMSYN05801026 26/// /2106 11058 21066 30060 40208 57008 333 60005=
0292010260999992014011306004+69650+018933FM-12+011599999V0202001N006019999999N040000199-00551-00631102071ADDAA112002031AJ100623100620094AY171021AY221021GA1991+999991031GA2061+999991061GE19MSL   +99999+99999GF107991990990999999991991IA1239KA1240N-00761MA1999990100591MD1710071+9990MW1151OD139901001999REMSYN08801026 11382 72006 11055 21063 30059 40207 57007 60022 71572 8657/ 333 21076 47062 91110=
0110010260999992014011307004+69650+018933FM-12+011599999V0202001N005019999999N999999999-00521-00601102071ADDAA101000091MA1999990100591MD1710051+9990REMSYN05801026 26/// /2005 11052 21060 30059 40207 57005 333 60005=
0110010260999992014011308004+69650+018933FM-12+011599999V0202001N005019999999N999999999-00511-00601102071ADDAA101000091MA1999990100591MD1710011+9990REMSYN05801026 26/// /2005 11051 21060 30059 40207 57001 333 60005=
0227010260999992014011309004+69650+018933FM-12+011599999V0202001N006019999999N060000199-00491-00591102071ADDAA101000091AY121021AY221021GA1071+999991081GE19MSL   +99999+99999GF108991071990999999991991MA1999990100601MD1410009+9990MW1021REMSYN07001026 21286 82006 11049 21059 30060 40207 54001 70222 878// 333 60005=EQDQ01.1    3APC3  
0129010260999992014011310004+69650+018933FM-12+011599999V0202001N005019999999N999999999-00471-00581102071ADDAA101000091MA1999990100601MD1410009+9990REMSYN05801026 26/// /2005 11047 21058 30060 40207 54001 333 60005=EQDQ01.1    3APC3  
0129010260999992014011311004+69650+018933FM-12+011599999V0202101N005019999999N999999999-00481-00601102051ADDAA101000091MA1999990100581MD1790029+9990REMSYN05801026 26/// /2105 11048 21060 30058 40205 54001 333 60005=EQDQ01.1    3APC3  
0273010260999992014011312004+69650+018933FM-12+011599999V0202101N004019999999N070000199-00481-00601102031ADDAA101000091AJ199991999999999AY121021AY221021GA1991+999991031GA2061+999991061GE19MSL   +99999+99999GF107991990990999999991991IA1239MA1999990100561MD1710031+9990MW1021OD139901001999REMSYN08201026 21288 72104 11048 21060 30056 40203 57003 70222 8653/ 333 47/// 60005 91110=
0110010260999992014011313004+69650+018933FM-12+011599999V0202101N004019999999N999999999-00501-00631102011ADDAA101000091MA1999990100541MD1710061+9990REMSYN05801026 26/// /2104 11050 21063 30054 40201 57006 333 60005=
0110010260999992014011314004+69650+018933FM-12+011599999V0202101N004019999999N999999999-00501-00631102021ADDAA101000091MA1999990100551MD1510031+9990REMSYN05801026 26/// /2104 11050 21063 30055 40202 55003 333 60005=
0224010260999992014011315004+69650+018933FM-12+011599999V0202101N004019999999N070000199-00511-00631102011ADDAA101000091AY121021AY221021GA1991+999991021GA2041+999991061GE19MSL   +99999+99999GF106991990990999999991991MA1999990100541MD1710021+9990MW1021REMSYN07001026 21588 62104 11051 21063 30054 40201 57002 70222 84508 333 60005=
0110010260999992014011316004+69650+018933FM-12+011599999V0202001N003019999999N999999999-00551-00661102011ADDAA101000091MA1999990100531MD1710011+9990REMSYN05801026 26/// /2003 11055 21066 30053 40201 57001 333 60005=
0110010260999992014011317004+69650+018933FM-12+011599999V0202101N004019999999N999999999-00551-00661101991ADDAA101000091MA1999990100511MD1710041+9990REMSYN05801026 26/// /2104 11055 21066 30051 40199 57004 333 60005=
0276010260999992014011318004+69650+018933FM-12+011599999V0202101N003019999999N070000199-00551-00651101971ADDAA112000091AJ199991999999999AY121021AY201021GA1011+999991061GE19MSL   +99999+99999GF101991011990999999991991IA1239KA1120M-00471MA1999990100491MD1710051+9990MW1011OD139900701999REMSYN08801026 11588 12103 11055 21065 30049 40197 57005 60002 70120 81500 333 11047 47/// 91107=
0110010260999992014011319004+69650+018933FM-12+011599999V0202201N002019999999N999999999-00591-00691101981ADDAA101000091MA1999990100501MD1510021+9990REMSYN05801026 26/// /2202 11059 21069 30050 40198 55002 333 60005=
0110010260999992014011320004+69650+018933FM-12+011599999V0202001N002019999999N999999999-00631-00721101981ADDAA101000091MA1999990100501MD1510001+9990REMSYN05801026 26/// /2002 11063 21072 30050 40198 55000 333 60005=
0208010260999992014011321004+69650+018933FM-12+011599999V0202101N003019999999N070000199-00581-00671101971ADDAA101000091AY101021AY201021GA1031+999991061GE19MSL   +99999+99999GF103991031990999999991991MA1999990100491MD1900011+9990MW1021REMSYN07001026 21588 32103 11058 21067 30049 40197 50001 70200 83500 333 60005=
0110010260999992014011322004+69650+018933FM-12+011599999V0202401N002019999999N999999999-00631-00721102011ADDAA101000091MA1999990100531MD1310021+9990REMSYN05801026 26/// /2402 11063 21072 30053 40201 53002 333 60005=
0110010260999992014011323004+69650+018933FM-12+011599999V0202101N003019999999N999999999-00631-00721101981ADDAA101000091MA1999990100501MD1900001+9990REMSYN05801026 26/// /2103 11063 21072 30050 40198 50000 333 60005=
0257010260999992014011400004+69650+018933FM-12+011599999V0202401N002019999999N070000199-00681-00771101961ADDAA101000091AJ199991999999999AY101021AY201021GA1021+999991061GE19MSL   +99999+99999GF102991021990999999991991IA1239MA1999990100481MD1810011+9990MW1021OD139900501999REMSYN08201026 21588 22402 11068 21077 30048 40196 58001 70200 82500 333 47/// 60005 91105=
0110010260999992014011401004+69650+018933FM-12+011599999V0202101N002019999999N999999999-00731-00821101971ADDAA101000091MA1999990100481MD1710051+9990REMSYN05801026 26/// /2102 11073 21082 30048 40197 57005 333 60005=
0110010260999992014011402004+69650+018933FM-12+011599999V0202001N002019999999N999999999-00791-00891101971ADDAA101000091MA1999990100481MD1710011+9990REMSYN05801026 26/// /2002 11079 21089 30048 40197 57001 333 60005=
0208010260999992014011403004+69650+018933FM-12+011599999V0202301N001019999999N070000199-00811-00891101981ADDAA101000091AY101021AY201021GA1011+999991061GE19MSL   +99999+99999GF101991011990999999991991MA1999990100491MD1410001+9990MW1021REMSYN07001026 21588 12301 11081 21089 30049 40198 54000 70200 81500 333 60005=
0110010260999992014011404004+69650+018933FM-12+011599999V0202101N002019999999N999999999-00821-00911101971ADDAA101000091MA1999990100481MD1410001+9990REMSYN05801026 26/// /2102 11082 21091 30048 40197 54000 333 60005=
0110010260999992014011405004+69650+018933FM-12+011599999V0202001N003019999999N999999999-00801-00901101961ADDAA101000091MA1999990100471MD1710011+9990REMSYN05801026 26/// /2003 11080 21090 30047 40196 57001 333 60005=
0293010260999992014011406004+69650+018933FM-12+011599999V0202301N001019999999N070001199-00911-01021101961ADDAA112000091AA224000091AJ100623100620094AY101021AY201021GA1011+999991061GE19MSL   +99999+99999GF101991011990999999991991IA1239KA1240N-00911MA1999990100461MD1710021+9990MW1021OD139900401999REMSYN09401026 11589 12301 11091 21102 30046 40196 57002 60002 70200 81500 333 21091 47062 70000 91104=
0129010260999992014011407004+69650+018933FM-12+011599999V0201901N002019999999N999999999-00921-01011101981ADDAA101000091MA1999990100481MD1290019+9990REMSYN05801026 26/// /1902 11092 21101 30048 40198 54001 333 60005=EQDQ01.1    3APC3  
0110010260999992014011408004+69650+018933FM-12+011599999V0202001N002019999999N999999999-00901-00991102001ADDAA101000091MA1999990100501MD1210031+9990REMSYN05801026 26/// /2002 11090 21099 30050 40200 52003 333 60005=
0208010260999992014011409004+69650+018933FM-12+011599999V0201901N002019999999N070001199-00941-01041102021ADDAA101000091AY101021AY201021GA1011+999991071GE19MSL   +99999+99999GF101991011990999999991991MA1999990100521MD1210061+9990MW1021REMSYN07001026 21389 11902 11094 21104 30052 40202 52006 70200 81600 333 60005=
0110010260999992014011410004+69650+018933FM-12+011599999V0201901N001019999999N999999999-00981-01081102041ADDAA101000091MA1999990100541MD1210061+9990REMSYN05801026 26/// /1901 11098 21108 30054 40204 52006 333 60005=
0110010260999992014011411004+69650+018933FM-12+011599999V0202301N002019999999N999999999-00901-00991102051ADDAA101000091MA1999990100551MD1110051+9990REMSYN05801026 26/// /2302 11090 21099 30055 40205 51005 333 60005=
0257010260999992014011412004+69650+018933FM-12+011599999V0201901N002019999999N070001199-00961-01061102071ADDAA101000091AJ199991999999999AY101021AY201021GA1011+999991071GE19MSL   +99999+99999GF101991011990999999991991IA1239MA1999990100571MD1210041+9990MW1021OD139900301999REMSYN08201026 21489 11902 11096 21106 30057 40207 52004 70200 81600 333 47/// 60005 91103=
0110010260999992014011413004+69650+018933FM-12+011599999V0202001N002019999999N999999999-00931-01021102091ADDAA101000091MA1999990100591MD1210051+9990REMSYN05801026 26/// /2002 11093 21102 30059 40209 52005 333 60005=
0110010260999992014011414004+69650+018933FM-12+011599999V0202201N003019999999N999999999-00901-00991102091ADDAA101000091MA1999990100591MD1210041+9990REMSYN05801026 26/// /2203 11090 21099 30059 40209 52004 333 60005=
0208010260999992014011415004+69650+018933FM-12+011599999V0202201N002019999999N070001199-00871-00961102131ADDAA101000091AY101021AY201021GA1041+999991061GE19MSL   +99999+99999GF104991041990999999991991MA1999990100631MD1210051+9990MW1031REMSYN07001026 21489 42202 11087 21096 30063 40213 52005 70300 84500 333 60005=
0110010260999992014011416004+69650+018933FM-12+011599999V0202201N002019999999N999999999-00841-00921102121ADDAA101000091MA1999990100631MD1210041+9990REMSYN05801026 26/// /2202 11084 21092 30063 40212 52004 333 60005=
0276010260999992014011418004+69650+018933FM-12+011599999V0202501N002019999999N070001199-00961-01051102161ADDAA112000091AJ199991999999999AY101021AY201021GA1011+999991061GE19MSL   +99999+99999GF101991011990999999991991IA1239KA1120M-00841MA1999990100661MD1210031+9990MW1011OD139900401999REMSYN08801026 11589 12502 11096 21105 30066 40216 52003 60002 70100 81500 333 11084 47/// 91104=
0110010260999992014011419004+69650+018933FM-12+011599999V0201901N001019999999N999999999-00901-00991102171ADDAA101000091MA1999990100671MD1210041+9990REMSYN05801026 26/// /1901 11090 21099 30067 40217 52004 333 60005=
0110010260999992014011420004+69650+018933FM-12+011599999V0202301N002019999999N999999999-00931-01021102181ADDAA101000091MA1999990100681MD1210031+9990REMSYN05801026 26/// /2302 11093 21102 30068 40218 52003 333 60005=
0208010260999992014011421004+69650+018933FM-12+011599999V0202501N002019999999N070001199-00951-01041102211ADDAA101000091AY101021AY201021GA1031+999991071GE19MSL   +99999+99999GF103991031990999999991991MA1999990100711MD1210041+9990MW1011REMSYN07001026 21589 32502 11095 21104 30071 40221 52004 70100 83600 333 60005=
0110010260999992014011422004+69650+018933FM-12+011599999V0201801N001019999999N999999999-00901-00991102201ADDAA101000091MA1999990100701MD1210031+9990REMSYN05801026 26/// /1801 11090 21099 30070 40220 52003 333 60005=
0110010260999992014011423004+69650+018933FM-12+011599999V0202601N001019999999N999999999-00991-01091102191ADDAA101000091MA1999990100691MD1900021+9990REMSYN05801026 26/// /2601 11099 21109 30069 40219 50002 333 60005=
0276010260999992014011500004+69650+018933FM-12+011599999V0202601N001019999999N070001199-00991-01081102201ADDAA101000091AJ199991999999999AY101021AY201021GA1011+999991071GE19MSL   +99999+99999GF101991011990999999991991IA1239MA1999990100701MD1790019+9990MW1011OD139900301999REMSYN08201026 21589 12601 11099 21108 30070 40220 54001 70100 81600 333 47/// 60005 91103=EQDQ01.1    3APC3  
0110010260999992014011501004+69650+018933FM-12+011599999V0202801N001019999999N999999999-00951-01041102171ADDAA101000091MA1999990100671MD1710031+9990REMSYN05801026 26/// /2801 11095 21104 30067 40217 57003 333 60005=
0110010260999992014011502004+69650+018933FM-12+011599999V0202701N001019999999N999999999-00931-01021102161ADDAA101000091MA1999990100661MD1710031+9990REMSYN05801026 26/// /2701 11093 21102 30066 40216 57003 333 60005=
0224010260999992014011503004+69650+018933FM-12+011599999V0202901N001019999999N070001199-00941-01031102181ADDAA101000091AY101021AY201021GA1991+999991031GA2011+999991071GE19MSL   +99999+99999GF103991990990999999991991MA1999990100681MD1510021+9990MW1031REMSYN07001026 21589 32901 11094 21103 30068 40218 55002 70300 81630 333 60005=
0110010260999992014011504004+69650+018933FM-12+011599999V0202401N002019999999N999999999-00901-00991102171ADDAA101000091MA1999990100671MD1410001+9990REMSYN05801026 26/// /2402 11090 21099 30067 40217 54000 333 60005=
0110010260999992014011505004+69650+018933FM-12+011599999V0202501N001019999999N999999999-00831-00911102161ADDAA101000091MA1999990100671MD1210011+9990REMSYN05801026 26/// /2501 11083 21091 30067 40216 52001 333 60005=
0293010260999992014011506004+69650+018933FM-12+011599999V0202501N001019999999N070001199-00881-00971102181ADDAA112000231AA224000231AJ100623100620094AY101021AY201021GA1011+999991071GE19MSL   +99999+99999GF101991011990999999991991IA1239KA1240N-01031MA1999990100681MD1410001+9990MW1011OD139900201999REMSYN09401026 11189 12501 11088 21097 30068 40218 54000 69922 70100 81600 333 21103 47062 70002 91102=
0110010260999992014011507004+69650+018933FM-12+011599999V0203401N001019999999N999999999-00801-00881102181ADDAA101000091MA1999990100691MD1210021+9990REMSYN05801026 26/// /3401 11080 21088 30069 40218 52002 333 60005=
0110010260999992014011508004+69650+018933FM-12+011599999V0203501N001019999999N999999999-00841-00941102211ADDAA101000091MA1999990100711MD1210041+9990REMSYN05801026 26/// /3501 11084 21094 30071 40221 52004 333 60005=
0208010260999992014011509004+69650+018933FM-12+011599999V0200701N002019999999N070001199-00821-00921102221ADDAA101000091AY101021AY201021GA1011+999991061GE19MSL   +99999+99999GF101991011990999999991991MA1999990100731MD1210051+9990MW1021REMSYN07001026 21589 10702 11082 21092 30073 40222 52005 70200 81500 333 60005=
0110010260999992014011510004+69650+018933FM-12+011599999V0202901N001019999999N999999999-00841-00941102261ADDAA101000091MA1999990100761MD1210071+9990REMSYN05801026 26/// /2901 11084 21094 30076 40226 52007 333 60005=
0110010260999992014011511004+69650+018933FM-12+011599999V0209999C999999999999N999999999-00841-00951102301ADDAA101000091MA1999990100801MD1210091+9990REMSYN05801026 26/// /0000 11084 21095 30080 40230 52009 333 60005=
0228010260999992014011512004+69650+018933FM-12+011599999V0200901N001019999999N070001199-00841-00961102301ADDAA101000091AY101021AY201021GA1011+999991061GE19MSL   +99999+99999GF101991011990999999991991MA1999990100801MD1900071+9990MW1021OD139900401999REMSYN07601026 21389 10901 11084 21096 30080 40230 50007 70200 81500 333 60005 91104=
0110010260999992014011513004+69650+018933FM-12+011599999V0200901N001019999999N999999999-00811-00941102321ADDAA101000091MA1999990100821MD1110061+9990REMSYN05801026 26/// /0901 11081 21094 30082 40232 51006 333 60005=
0110010260999992014011514004+69650+018933FM-12+011599999V0202101N002019999999N999999999-00701-00841102341ADDAA101000091MA1999990100851MD1210051+9990REMSYN05801026 26/// /2102 11070 21084 30085 40234 52005 333 60005=
0208010260999992014011515004+69650+018933FM-12+011599999V0201901N001019999999N070001199-00711-00891102351ADDAA101000091AY101021AY201021GA1011+999991081GE19MSL   +99999+99999GF101991011990999999991991MA1999990100861MD1210061+9990MW1021REMSYN07001026 21589 11901 11071 21089 30086 40235 52006 70200 81100 333 60005=
0110010260999992014011516004+69650+018933FM-12+011599999V0201701N003019999999N999999999-00621-00861102381ADDAA101000091MA1999990100891MD1210071+9990REMSYN05801026 26/// /1703 11062 21086 30089 40238 52007 333 60005=
0110010260999992014011517004+69650+018933FM-12+011599999V0202001N005019999999N999999999-00581-00831102411ADDAA101000091MA1999990100931MD1310091+9990REMSYN05801026 26/// /2005 11058 21083 30093 40241 53009 333 60005=
0177010260999992014011518004+69650+018933FM-12+011599999V0203401N002019999999N070001199-00711-00911102451ADDAA112000091AY101021AY201021KA1120M-00551MA1999990100961MD1210101+9990MW1021OD139900901999REMSYN07601026 11989 03402 11071 21091 30096 40245 52010 60002 70200 333 11055 91109=
0110010260999992014011519004+69650+018933FM-12+011599999V0200401N002019999999N999999999-00581-00901102491ADDAA101000091MA1999990101001MD1210101+9990REMSYN05801026 26/// /0402 11058 21090 30100 40249 52010 333 60005=
0110010260999992014011520004+69650+018933FM-12+011599999V0200201N003019999999N999999999-00741-00981102521ADDAA101000091MA1999990101031MD1210091+9990REMSYN05801026 26/// /0203 11074 21098 30103 40252 52009 333 60005=
0138010260999992014011521004+69650+018933FM-12+011599999V0202001N001019999999N070001199-00681-00961102561ADDAA101000091AY101021AY201021MA1999990101071MD1210111+9990MW1021REMSYN06401026 21989 02001 11068 21096 30107 40256 52011 70200 333 60005=
0110010260999992014011522004+69650+018933FM-12+011599999V0209999C999999999999N999999999-00841-01111102601ADDAA101000091MA1999990101101MD1110101+9990REMSYN05801026 26/// /0000 11084 21111 30110 40260 51010 333 60005=
0110010260999992014011523004+69650+018933FM-12+011599999V0201801N003019999999N999999999-00701-01011102581ADDAA101000091MA1999990101091MD1110061+9990REMSYN05801026 26/// /1803 11070 21101 30109 40258 51006 333 60005=
0158010260999992014011600004+69650+018933FM-12+011599999V0201901N002019999999N070001199-00721-01031102581ADDAA101000091AY101021AY201021MA1999990101091MD1210021+9990MW1021OD139900601999REMSYN07001026 21989 01902 11072 21103 30109 40258 52002 70200 333 60005 91106=
0110010260999992014011601004+69650+018933FM-12+011599999V0201901N004019999999N999999999-00661-00991102591ADDAA101000091MA1999990101101MD1410001+9990REMSYN05801026 26/// /1904 11066 21099 30110 40259 54000 333 60005=
0129010260999992014011602004+69650+018933FM-12+011599999V0201801N004019999999N999999999-00641-00991102571ADDAA101000091MA1999990101081MD1790019+9990REMSYN05801026 26/// /1804 11064 21099 30108 40257 54001 333 60005=EQDQ01.1    3APC3  
0157010260999992014011603004+69650+018933FM-12+011599999V0201701N005019999999N070001199-00621-00971102591ADDAA101000091AY101021AY201021MA1999990101101MD1290019+9990MW1021REMSYN06401026 21989 01705 11062 21097 30110 40259 54001 70200 333 60005=EQDQ01.1    3APC3  
0110010260999992014011604004+69650+018933FM-12+011599999V0201701N003019999999N999999999-00661-01031102591ADDAA101000091MA1999990101101MD1410001+9990REMSYN05801026 26/// /1703 11066 21103 30110 40259 54000 333 60005=
0110010260999992014011605004+69650+018933FM-12+011599999V0201801N005019999999N999999999-00641-01081102591ADDAA101000091MA1999990101101MD1210021+9990REMSYN05801026 26/// /1805 11064 21108 30110 40259 52002 333 60005=
0206010260999992014011606004+69650+018933FM-12+011599999V0201901N004019999999N070001199-00681-01131102591ADDAA101000091AJ100623100620094AY101021AY201021IA1239KA1240N-00861MA1999990101101MD1410001+9990MW1021OD139900901999REMSYN08201026 21989 01904 11068 21113 30110 40259 54000 70200 333 21086 47062 60005 91109=
0110010260999992014011607004+69650+018933FM-12+011599999V0201801N003019999999N999999999-00691-01141102591ADDAA101000091MA1999990101101MD1410001+9990REMSYN05801026 26/// /1803 11069 21114 30110 40259 54000 333 60005=
0129010260999992014011608004+69650+018933FM-12+011599999V0201901N004019999999N999999999-00661-01121102591ADDAA101000091MA1999990101101MD1410009+9990REMSYN05801026 26/// /1904 11066 21112 30110 40259 54001 333 60005=EQDQ01.1    3APC3  
0138010260999992014011609004+69650+018933FM-12+011599999V0202101N004019999999N070001199-00661-01161102621ADDAA101000091AY101021AY201021MA1999990101131MD1310021+9990MW1021REMSYN06401026 21989 02104 11066 21116 30113 40262 53002 70200 333 60005=
0110010260999992014011610004+69650+018933FM-12+011599999V0201901N002019999999N999999999-00651-01171102611ADDAA101000091MA1999990101121MD1310031+9990REMSYN05801026 26/// /1902 11065 21117 30112 40261 53003 333 60005=
0110010260999992014011611004+69650+018933FM-12+011599999V0201901N003019999999N999999999-00631-01181102581ADDAA101000091MA1999990101091MD1900011+9990REMSYN05801026 26/// /1903 11063 21118 30109 40258 50001 333 60005=
0158010260999992014011612004+69650+018933FM-12+011599999V0201801N005019999999N070001199-00601-01201102581ADDAA101000091AY101021AY201021MA1999990101091MD1710031+9990MW1021OD139900901999REMSYN07001026 21989 01805 11060 21120 30109 40258 57003 70200 333 60005 91109=
0110010260999992014011613004+69650+018933FM-12+011599999V0201901N003019999999N999999999-00651-01261102551ADDAA101000091MA1999990101061MD1710061+9990REMSYN05801026 26/// /1903 11065 21126 30106 40255 57006 333 60005=
0110010260999992014011614004+69650+018933FM-12+011599999V0202001N004019999999N999999999-00671-01281102531ADDAA101000091MA1999990101041MD1710051+9990REMSYN05801026 26/// /2004 11067 21128 30104 40253 57005 333 60005=
0138010260999992014011615004+69650+018933FM-12+011599999V0202001N004019999999N070001199-00651-01271102491ADDAA101000091AY101021AY201021MA1999990101001MD1710091+9990MW1021REMSYN06401026 21989 02004 11065 21127 30100 40249 57009 70200 333 60005=
0110010260999992014011616004+69650+018933FM-12+011599999V0201901N005019999999N999999999-00621-01311102491ADDAA101000091MA1999990101001MD1710061+9990REMSYN05801026 26/// /1905 11062 21131 30100 40249 57006 333 60005=
0110010260999992014011617004+69650+018933FM-12+011599999V0201801N006019999999N999999999-00621-01361102471ADDAA101000091MA1999990100981MD1710061+9990REMSYN05801026 26/// /1806 11062 21136 30098 40247 57006 333 60005=
0177010260999992014011618004+69650+018933FM-12+011599999V0201801N005019999999N070001199-00621-01431102461ADDAA112000091AY101021AY201021KA1120M-00581MA1999990100971MD1710031+9990MW1021OD139901101999REMSYN07601026 11989 01805 11062 21143 30097 40246 57003 60002 70200 333 11058 91111=
0110010260999992014011619004+69650+018933FM-12+011599999V0202001N006019999999N999999999-00651-01421102441ADDAA101000091MA1999990100951MD1710051+9990REMSYN05801026 26/// /2006 11065 21142 30095 40244 57005 333 60005=
0110010260999992014011620004+69650+018933FM-12+011599999V0202001N006019999999N999999999-00641-01411102461ADDAA101000091MA1999990100971MD1510011+9990REMSYN05801026 26/// /2006 11064 21141 30097 40246 55001 333 60005=
0138010260999992014011621004+69650+018933FM-12+011599999V0201801N006019999999N070001199-00611-01411102471ADDAA101000091AY101021AY201021MA1999990100981MD1210011+9990MW1021REMSYN06401026 21989 01806 11061 21141 30098 40247 52001 70200 333 60005=
0110010260999992014011622004+69650+018933FM-12+011599999V0202001N006019999999N999999999-00601-01421102471ADDAA101000091MA1999990100981MD1110031+9990REMSYN05801026 26/// /2006 11060 21142 30098 40247 51003 333 60005=
0129010260999992014011623004+69650+018933FM-12+011599999V0201801N005019999999N999999999-00601-01341102451ADDAA101000091MA1999990100961MD1790019+9990REMSYN05801026 26/// /1805 11060 21134 30096 40245 54001 333 60005=EQDQ01.1    3APC3  
0158010260999992014011700004+69650+018933FM-12+011599999V0201901N006019999999N070001199-00571-01331102471ADDAA101000091AY101021AY201021MA1999990100991MD1510011+9990MW1021OD139901201999REMSYN07001026 21989 01906 11057 21133 30099 40247 55001 70200 333 60005 91112=
0110010260999992014011701004+69650+018933FM-12+011599999V0202001N006019999999N999999999-00561-01311102491ADDAA101000091MA1999990101011MD1310031+9990REMSYN05801026 26/// /2006 11056 21131 30101 40249 53003 333 60005=
0110010260999992014011702004+69650+018933FM-12+011599999V0201901N007019999999N999999999-00581-01381102441ADDAA101000091MA1999990100961MD1900001+9990REMSYN05801026 26/// /1907 11058 21138 30096 40244 50000 333 60005=
0138010260999992014011703004+69650+018933FM-12+011599999V0202001N005019999999N070001199-00581-01351102431ADDAA101000091AY101021AY201021MA1999990100951MD1810031+9990MW1021REMSYN06401026 21989 02005 11058 21135 30095 40243 58003 70200 333 60005=
0110010260999992014011704004+69650+018933FM-12+011599999V0202001N005019999999N999999999-00641-01391102441ADDAA101000091MA1999990100951MD1610061+9990REMSYN05801026 26/// /2005 11064 21139 30095 40244 56006 333 60005=
0110010260999992014011705004+69650+018933FM-12+011599999V0201901N006019999999N999999999-00601-01351102401ADDAA101000091MA1999990100911MD1810041+9990REMSYN05801026 26/// /1906 11060 21135 30091 40240 58004 333 60005=
0223010260999992014011706004+69650+018933FM-12+011599999V0201801N005019999999N070001199-00581-01401102391ADDAA112000091AA224000091AJ100623100620094AY101021AY201021IA1239KA1240N-00661MA1999990100911MD1710041+9990MW1021OD139901201999REMSYN08801026 11989 01805 11058 21140 30091 40239 57004 60002 70200 333 21066 47062 70000 91112=
