0059010270999992014010100004+69650+018900FM-12+002099999V0209999C999999999999N999999999-00021-00631999999ADDAA106000091REMSYN03601027 16/// ///// 11002 21063 60001=
0049010270999992014010101004+69650+018900FM-12+002099999V020999999999999999999999999999+99999+99999999999REMSYN04001027 26/// ///// 11017 21063 333 60005=
0049010270999992014010102004+69650+018900FM-12+002099999V020999999999999999999999999999+99999+99999999999REMSYN04001027 26/// ///// 11020 21051 333 60005=
0049010270999992014010103004+69650+018900FM-12+002099999V020999999999999999999999999999+99999+99999999999REMSYN04001027 26/// ///// 11025 21057 333 60005=
0049010270999992014010104004+69650+018900FM-12+002099999V020999999999999999999999999999+99999+99999999999REMSYN04001027 26/// ///// 11023 21050 333 60005=
0049010270999992014010105004+69650+018900FM-12+002099999V020999999999999999999999999999+99999+99999999999REMSYN04001027 26/// ///// 11022 21056 333 60005=
0099010270999992014010106004+69650+018900FM-12+002099999V0209999C999999999999N999999999-00161-00551999999ADDAA112000091AA224000091KA1240N-00281REMSYN05201027 16/// ///// 11016 21055 60002 333 21028 70000=
0049010270999992014010107004+69650+018900FM-12+002099999V020999999999999999999999999999+99999+99999999999REMSYN04001027 26/// ///// 11012 21056 333 60005=
0049010270999992014010108004+69650+018900FM-12+002099999V020999999999999999999999999999+99999+99999999999REMSYN04001027 26/// ///// 11017 21058 333 60005=
0049010270999992014010109004+69650+018900FM-12+002099999V020999999999999999999999999999+99999+99999999999REMSYN04001027 26/// ///// 10001 21062 333 60005=
0049010270999992014010110004+69650+018900FM-12+002099999V020999999999999999999999999999+99999+99999999999REMSYN04001027 26/// ///// 10006 21057 333 60005=
0049010270999992014010111004+69650+018900FM-12+002099999V020999999999999999999999999999+99999+99999999999REMSYN04001027 26/// ///// 10007 21057 333 60005=
0059010270999992014010112004+69650+018900FM-12+002099999V0209999C999999999999N999999999+00071-00561999999ADDAA106000091REMSYN03601027 16/// ///// 10007 21056 60001=
0049010270999992014010113004+69650+018900FM-12+002099999V020999999999999999999999999999+99999+99999999999REMSYN04001027 26/// ///// 10006 21055 333 60005=
0049010270999992014010114004+69650+018900FM-12+002099999V020999999999999999999999999999+99999+99999999999REMSYN04001027 26/// ///// 11002 21043 333 60005=
0049010270999992014010115004+69650+018900FM-12+002099999V020999999999999999999999999999+99999+99999999999REMSYN04001027 26/// ///// 11010 21028 333 69925=
0049010270999992014010116004+69650+018900FM-12+002099999V020999999999999999999999999999+99999+99999999999REMSYN04001027 26/// ///// 11006 21029 333 60005=
0049010270999992014010117004+69650+018900FM-12+002099999V020999999999999999999999999999+99999+99999999999REMSYN04001027 26/// ///// 11007 21035 333 60005=
0082010270999992014010118004+69650+018900FM-12+002099999V0209999C999999999999N999999999-00071-00371999999ADDAA112000231KA1120M+00091REMSYN04601027 16/// ///// 11007 21037 69922 333 10009=
0049010270999992014010119004+69650+018900FM-12+002099999V020999999999999999999999999999+99999+99999999999REMSYN04001027 26/// ///// 11011 21041 333 60005=
0049010270999992014010120004+69650+018900FM-12+002099999V020999999999999999999999999999+99999+99999999999REMSYN04001027 26/// ///// 11004 21046 333 60005=
0049010270999992014010121004+69650+018900FM-12+002099999V020999999999999999999999999999+99999+99999999999REMSYN04001027 26/// ///// 11003 21047 333 60005=
0049010270999992014010122004+69650+018900FM-12+002099999V020999999999999999999999999999+99999+99999999999REMSYN04001027 26/// ///// 10000 21052 333 60005=
0049010270999992014010123004+69650+018900FM-12+002099999V020999999999999999999999999999+99999+99999999999REMSYN04001027 26/// ///// 11004 21052 333 60005=
0059010270999992014010200004+69650+018900FM-12+002099999V0209999C999999999999N999999999+00011-00581999999ADDAA106000091REMSYN03601027 16/// ///// 10001 21058 60001=
0049010270999992014010201004+69650+018900FM-12+002099999V020999999999999999999999999999+99999+99999999999REMSYN04001027 26/// ///// 10001 21058 333 60005=
0049010270999992014010202004+69650+018900FM-12+002099999V020999999999999999999999999999+99999+99999999999REMSYN04001027 26/// ///// 10000 21051 333 60005=
0049010270999992014010203004+69650+018900FM-12+002099999V020999999999999999999999999999+99999+99999999999REMSYN04001027 26/// ///// 10005 21060 333 60005=
0049010270999992014010204004+69650+018900FM-12+002099999V020999999999999999999999999999+99999+99999999999REMSYN04001027 26/// ///// 10007 21062 333 60005=
0049010270999992014010205004+69650+018900FM-12+002099999V020999999999999999999999999999+99999+99999999999REMSYN04001027 26/// ///// 10000 21055 333 60005=
0099010270999992014010206004+69650+018900FM-12+002099999V0209999C999999999999N999999999+00061-00591999999ADDAA112000091AA224000231KA1240N-00171REMSYN05201027 16/// ///// 10006 21059 60002 333 21017 70002=
0049010270999992014010207004+69650+018900FM-12+002099999V020999999999999999999999999999+99999+99999999999REMSYN04001027 26/// ///// 10000 21051 333 60005=
0049010270999992014010208004+69650+018900FM-12+002099999V020999999999999999999999999999+99999+99999999999REMSYN04001027 26/// ///// 10018 21050 333 60005=
0049010270999992014010209004+69650+018900FM-12+002099999V020999999999999999999999999999+99999+99999999999REMSYN04001027 26/// ///// 10022 21044 333 60005=
0049010270999992014010210004+69650+018900FM-12+002099999V020999999999999999999999999999+99999+99999999999REMSYN04001027 26/// ///// 10023 21046 333 60005=
0049010270999992014010211004+69650+018900FM-12+002099999V020999999999999999999999999999+99999+99999999999REMSYN04001027 26/// ///// 10016 21041 333 60005=
0059010270999992014010212004+69650+018900FM-12+002099999V0209999C999999999999N999999999+00231-00431999999ADDAA106000091REMSYN03601027 16/// ///// 10023 21043 60001=
0049010270999992014010213004+69650+018900FM-12+002099999V020999999999999999999999999999+99999+99999999999REMSYN04001027 26/// ///// 10025 21037 333 60005=
0049010270999992014010214004+69650+018900FM-12+002099999V020999999999999999999999999999+99999+99999999999REMSYN04001027 26/// ///// 10033 21039 333 60005=
0049010270999992014010215004+69650+018900FM-12+002099999V020999999999999999999999999999+99999+99999999999REMSYN04001027 26/// ///// 10027 21046 333 60005=
0049010270999992014010216004+69650+018900FM-12+002099999V020999999999999999999999999999+99999+99999999999REMSYN04001027 26/// ///// 10025 21044 333 60005=
0049010270999992014010217004+69650+018900FM-12+002099999V020999999999999999999999999999+99999+99999999999REMSYN04001027 26/// ///// 10025 21040 333 60005=
0082010270999992014010218004+69650+018900FM-12+002099999V0209999C999999999999N999999999+00241-00421999999ADDAA112000091KA1120M+00371REMSYN04601027 16/// ///// 10024 21042 60002 333 10037=
0049010270999992014010219004+69650+018900FM-12+002099999V020999999999999999999999999999+99999+99999999999REMSYN04001027 26/// ///// 10016 21042 333 60005=
0049010270999992014010220004+69650+018900FM-12+002099999V020999999999999999999999999999+99999+99999999999REMSYN04001027 26/// ///// 10009 21045 333 60005=
0049010270999992014010221004+69650+018900FM-12+002099999V020999999999999999999999999999+99999+99999999999REMSYN04001027 26/// ///// 11004 21047 333 60005=
0049010270999992014010222004+69650+018900FM-12+002099999V020999999999999999999999999999+99999+99999999999REMSYN04001027 26/// ///// 11004 21045 333 60005=
0049010270999992014010223004+69650+018900FM-12+002099999V020999999999999999999999999999+99999+99999999999REMSYN04001027 26/// ///// 11006 21047 333 60005=
0059010270999992014010300004+69650+018900FM-12+002099999V0209999C999999999999N999999999-00061-00451999999ADDAA106000091REMSYN03601027 16/// ///// 11006 21045 60001=
0049010270999992014010301004+69650+018900FM-12+002099999V020999999999999999999999999999+99999+99999999999REMSYN04001027 26/// ///// 11001 21040 333 60005=
0049010270999992014010302004+69650+018900FM-12+002099999V020999999999999999999999999999+99999+99999999999REMSYN04001027 26/// ///// 11002 21043 333 60005=
0049010270999992014010303004+69650+018900FM-12+002099999V020999999999999999999999999999+99999+99999999999REMSYN04001027 26/// ///// 11006 21045 333 60005=
0049010270999992014010304004+69650+018900FM-12+002099999V020999999999999999999999999999+99999+99999999999REMSYN04001027 26/// ///// 11003 21039 333 60005=
0049010270999992014010305004+69650+018900FM-12+002099999V020999999999999999999999999999+99999+99999999999REMSYN04001027 26/// ///// 10001 21047 333 60005=
0099010270999992014010306004+69650+018900FM-12+002099999V0209999C999999999999N999999999+00041-00411999999ADDAA112000091AA224000091KA1240N-00121REMSYN05201027 16/// ///// 10004 21041 60002 333 21012 70000=
0049010270999992014010307004+69650+018900FM-12+002099999V020999999999999999999999999999+99999+99999999999REMSYN04001027 26/// ///// 10005 21044 333 60005=
0049010270999992014010308004+69650+018900FM-12+002099999V020999999999999999999999999999+99999+99999999999REMSYN04001027 26/// ///// 10005 21043 333 60005=
0049010270999992014010309004+69650+018900FM-12+002099999V020999999999999999999999999999+99999+99999999999REMSYN04001027 26/// ///// 10009 21034 333 60005=
0049010270999992014010311004+69650+018900FM-12+002099999V020999999999999999999999999999+99999+99999999999REMSYN04001027 26/// ///// 10013 21033 333 60005=
0059010270999992014010312004+69650+018900FM-12+002099999V0209999C999999999999N999999999+00151-00271999999ADDAA199999919REMSYN03601027 16/// ///// 10015 21027 6////=
0049010270999992014010313004+69650+018900FM-12+002099999V020999999999999999999999999999+99999+99999999999REMSYN04001027 26/// ///// 10016 21029 333 60005=
0049010270999992014010314004+69650+018900FM-12+002099999V020999999999999999999999999999+99999+99999999999REMSYN04001027 26/// ///// 10011 21031 333 60005=
0049010270999992014010315004+69650+018900FM-12+002099999V020999999999999999999999999999+99999+99999999999REMSYN04001027 26/// ///// 10019 21026 333 60005=
0049010270999992014010316004+69650+018900FM-12+002099999V020999999999999999999999999999+99999+99999999999REMSYN04001027 26/// ///// 10021 21028 333 60005=
0049010270999992014010317004+69650+018900FM-12+002099999V020999999999999999999999999999+99999+99999999999REMSYN04001027 26/// ///// 10024 21027 333 60005=
0059010270999992014010318004+69650+018900FM-12+002099999V0209999C999999999999N999999999+00181-00271999999ADDAA199999919REMSYN03601027 16/// ///// 10018 21027 6////=
0049010270999992014010319004+69650+018900FM-12+002099999V020999999999999999999999999999+99999+99999999999REMSYN04001027 26/// ///// 10024 21024 333 60005=
0049010270999992014010320004+69650+018900FM-12+002099999V020999999999999999999999999999+99999+99999999999REMSYN04001027 26/// ///// 10017 21027 333 60005=
0049010270999992014010321004+69650+018900FM-12+002099999V020999999999999999999999999999+99999+99999999999REMSYN04001027 26/// ///// 10019 21023 333 60005=
0049010270999992014010322004+69650+018900FM-12+002099999V020999999999999999999999999999+99999+99999999999REMSYN04001027 26/// ///// 10028 21015 333 60005=
0049010270999992014010323004+69650+018900FM-12+002099999V020999999999999999999999999999+99999+99999999999REMSYN04001027 26/// ///// 10037 21006 333 60005=
0059010270999992014010400004+69650+018900FM-12+002099999V0209999C999999999999N999999999+00361-00091999999ADDAA106000091REMSYN03601027 16/// ///// 10036 21009 60001=
0049010270999992014010401004+69650+018900FM-12+002099999V020999999999999999999999999999+99999+99999999999REMSYN04001027 26/// ///// 10041 21017 333 60005=
0049010270999992014010402004+69650+018900FM-12+002099999V020999999999999999999999999999+99999+99999999999REMSYN04001027 26/// ///// 10046 21020 333 60005=
0049010270999992014010403004+69650+018900FM-12+002099999V020999999999999999999999999999+99999+99999999999REMSYN04001027 26/// ///// 10036 21016 333 60005=
0049010270999992014010404004+69650+018900FM-12+002099999V020999999999999999999999999999+99999+99999999999REMSYN04001027 26/// ///// 10021 21016 333 60005=
0049010270999992014010405004+69650+018900FM-12+002099999V020999999999999999999999999999+99999+99999999999REMSYN04001027 26/// ///// 10016 21019 333 60005=
0082010270999992014010406004+69650+018900FM-12+002099999V0209999C999999999999N999999999+00161-00231999999ADDAA112000091KA1240N+00081REMSYN04601027 16/// ///// 10016 21023 60002 333 20008=
0049010270999992014010407004+69650+018900FM-12+002099999V020999999999999999999999999999+99999+99999999999REMSYN04001027 26/// ///// 10008 21027 333 60005=
0049010270999992014010408004+69650+018900FM-12+002099999V020999999999999999999999999999+99999+99999999999REMSYN04001027 26/// ///// 10007 21026 333 60005=
0049010270999992014010409004+69650+018900FM-12+002099999V020999999999999999999999999999+99999+99999999999REMSYN04001027 26/// ///// 10004 21028 333 60005=
0049010270999992014010410004+69650+018900FM-12+002099999V020999999999999999999999999999+99999+99999999999REMSYN04001027 26/// ///// 10005 21030 333 60005=
0049010270999992014010521004+69650+018900FM-12+002099999V020999999999999999999999999999+99999+99999999999REMSYN04001027 26/// ///// 11024 21033 333 60005=
0049010270999992014010522004+69650+018900FM-12+002099999V020999999999999999999999999999+99999+99999999999REMSYN04001027 26/// ///// 11028 21037 333 60005=
0049010270999992014010523004+69650+018900FM-12+002099999V020999999999999999999999999999+99999+99999999999REMSYN04001027 26/// ///// 11027 21035 333 60005=
0059010270999992014010600004+69650+018900FM-12+002099999V0209999C999999999999N999999999-00271-00351999999ADDAA106000091REMSYN03601027 16/// ///// 11027 21035 60001=
0049010270999992014010601004+69650+018900FM-12+002099999V020999999999999999999999999999+99999+99999999999REMSYN04001027 26/// ///// 11033 21042 333 60005=
0049010270999992014010602004+69650+018900FM-12+002099999V020999999999999999999999999999+99999+99999999999REMSYN04001027 26/// ///// 11030 21038 333 60005=
0049010270999992014010603004+69650+018900FM-12+002099999V020999999999999999999999999999+99999+99999999999REMSYN04001027 26/// ///// 11027 21034 333 60005=
0049010270999992014010604004+69650+018900FM-12+002099999V020999999999999999999999999999+99999+99999999999REMSYN04001027 26/// ///// 11028 21037 333 60005=
0049010270999992014010605004+69650+018900FM-12+002099999V020999999999999999999999999999+99999+99999999999REMSYN04001027 26/// ///// 11025 21032 333 60005=
0099010270999992014010606004+69650+018900FM-12+002099999V0209999C999999999999N999999999-00211-00301999999ADDAA112000091AA224000091KA1240N-00331REMSYN05201027 16/// ///// 11021 21030 60002 333 21033 70000=
0049010270999992014010607004+69650+018900FM-12+002099999V020999999999999999999999999999+99999+99999999999REMSYN04001027 26/// ///// 11022 21031 333 60005=
0049010270999992014010608004+69650+018900FM-12+002099999V020999999999999999999999999999+99999+99999999999REMSYN04001027 26/// ///// 11023 21033 333 60005=
0049010270999992014010609004+69650+018900FM-12+002099999V020999999999999999999999999999+99999+99999999999REMSYN04001027 26/// ///// 11025 21039 333 60005=
0049010270999992014010610004+69650+018900FM-12+002099999V020999999999999999999999999999+99999+99999999999REMSYN04001027 26/// ///// 11019 21032 333 60005=
0049010270999992014010611004+69650+018900FM-12+002099999V020999999999999999999999999999+99999+99999999999REMSYN04001027 26/// ///// 11013 21027 333 60005=
0059010270999992014010612004+69650+018900FM-12+002099999V0209999C999999999999N999999999-00081-00311999999ADDAA106000091REMSYN03601027 16/// ///// 11008 21031 60001=
0049010270999992014010613004+69650+018900FM-12+002099999V020999999999999999999999999999+99999+99999999999REMSYN04001027 26/// ///// 11011 21034 333 60005=
0049010270999992014010614004+69650+018900FM-12+002099999V020999999999999999999999999999+99999+99999999999REMSYN04001027 26/// ///// 11002 21026 333 60005=
0049010270999992014010615004+69650+018900FM-12+002099999V020999999999999999999999999999+99999+99999999999REMSYN04001027 26/// ///// 11004 21032 333 60005=
0049010270999992014010616004+69650+018900FM-12+002099999V020999999999999999999999999999+99999+99999999999REMSYN04001027 26/// ///// 11001 21030 333 60005=
0049010270999992014010617004+69650+018900FM-12+002099999V020999999999999999999999999999+99999+99999999999REMSYN04001027 26/// ///// 11012 21038 333 60005=
0082010270999992014010618004+69650+018900FM-12+002099999V0209999C999999999999N999999999-00081-00381999999ADDAA112000091KA1120M+00021REMSYN04601027 16/// ///// 11008 21038 60002 333 10002=
0049010270999992014010619004+69650+018900FM-12+002099999V020999999999999999999999999999+99999+99999999999REMSYN04001027 26/// ///// 11013 21037 333 60005=
0049010270999992014010620004+69650+018900FM-12+002099999V020999999999999999999999999999+99999+99999999999REMSYN04001027 26/// ///// 11006 21029 333 60005=
0049010270999992014010621004+69650+018900FM-12+002099999V020999999999999999999999999999+99999+99999999999REMSYN04001027 26/// ///// 11004 21030 333 60005=
0049010270999992014010622004+69650+018900FM-12+002099999V020999999999999999999999999999+99999+99999999999REMSYN04001027 26/// ///// 10003 21031 333 60005=
0049010270999992014010623004+69650+018900FM-12+002099999V020999999999999999999999999999+99999+99999999999REMSYN04001027 26/// ///// 10023 21035 333 60005=
0059010270999992014010700004+69650+018900FM-12+002099999V0209999C999999999999N999999999+00301-00331999999ADDAA106000091REMSYN03601027 16/// ///// 10030 21033 60001=
0049010270999992014010701004+69650+018900FM-12+002099999V020999999999999999999999999999+99999+99999999999REMSYN04001027 26/// ///// 10024 21043 333 60005=
0049010270999992014010702004+69650+018900FM-12+002099999V020999999999999999999999999999+99999+99999999999REMSYN04001027 26/// ///// 10024 21044 333 60005=
0049010270999992014010703004+69650+018900FM-12+002099999V020999999999999999999999999999+99999+99999999999REMSYN04001027 26/// ///// 10022 21040 333 60005=
0049010270999992014010704004+69650+018900FM-12+002099999V020999999999999999999999999999+99999+99999999999REMSYN04001027 26/// ///// 10022 21031 333 60005=
0049010270999992014010705004+69650+018900FM-12+002099999V020999999999999999999999999999+99999+99999999999REMSYN04001027 26/// ///// 10027 21034 333 60005=
0099010270999992014010706004+69650+018900FM-12+002099999V0209999C999999999999N999999999+00311-00361999999ADDAA112000091AA224000091KA1240N-00141REMSYN05201027 16/// ///// 10031 21036 60002 333 21014 70000=
0049010270999992014010707004+69650+018900FM-12+002099999V020999999999999999999999999999+99999+99999999999REMSYN04001027 26/// ///// 10030 21037 333 60005=
0049010270999992014010708004+69650+018900FM-12+002099999V020999999999999999999999999999+99999+99999999999REMSYN04001027 26/// ///// 10029 21031 333 60005=
0049010270999992014010709004+69650+018900FM-12+002099999V020999999999999999999999999999+99999+99999999999REMSYN04001027 26/// ///// 10027 21037 333 60005=
0049010270999992014010710004+69650+018900FM-12+002099999V020999999999999999999999999999+99999+99999999999REMSYN04001027 26/// ///// 10028 21038 333 60005=
0049010270999992014010711004+69650+018900FM-12+002099999V020999999999999999999999999999+99999+99999999999REMSYN04001027 26/// ///// 10027 21035 333 60005=
0059010270999992014010712004+69650+018900FM-12+002099999V0209999C999999999999N999999999+00241-00381999999ADDAA106000091REMSYN03601027 16/// ///// 10024 21038 60001=
0049010270999992014010713004+69650+018900FM-12+002099999V020999999999999999999999999999+99999+99999999999REMSYN04001027 26/// ///// 10022 21036 333 60005=
0049010270999992014010714004+69650+018900FM-12+002099999V020999999999999999999999999999+99999+99999999999REMSYN04001027 26/// ///// 10019 21031 333 60005=
0049010270999992014010715004+69650+018900FM-12+002099999V020999999999999999999999999999+99999+99999999999REMSYN04001027 26/// ///// 10002 21040 333 60005=
0049010270999992014010716004+69650+018900FM-12+002099999V020999999999999999999999999999+99999+99999999999REMSYN04001027 26/// ///// 10006 21037 333 60005=
0049010270999992014010717004+69650+018900FM-12+002099999V020999999999999999999999999999+99999+99999999999REMSYN04001027 26/// ///// 10001 21041 333 60005=
0082010270999992014010718004+69650+018900FM-12+002099999V0209999C999999999999N999999999+00001-00371999999ADDAA112000091KA1120M+00321REMSYN04601027 16/// ///// 10000 21037 60002 333 10032=
0049010270999992014010719004+69650+018900FM-12+002099999V020999999999999999999999999999+99999+99999999999REMSYN04001027 26/// ///// 10007 21034 333 60005=
0049010270999992014010720004+69650+018900FM-12+002099999V020999999999999999999999999999+99999+99999999999REMSYN04001027 26/// ///// 10004 21043 333 60005=
0049010270999992014010721004+69650+018900FM-12+002099999V020999999999999999999999999999+99999+99999999999REMSYN04001027 26/// ///// 10000 21032 333 60005=
0049010270999992014010722004+69650+018900FM-12+002099999V020999999999999999999999999999+99999+99999999999REMSYN04001027 26/// ///// 10003 21035 333 60005=
0049010270999992014010723004+69650+018900FM-12+002099999V020999999999999999999999999999+99999+99999999999REMSYN04001027 26/// ///// 10007 21036 333 60005=
0059010270999992014010800004+69650+018900FM-12+002099999V0209999C999999999999N999999999+00091-00341999999ADDAA106000091REMSYN03601027 16/// ///// 10009 21034 60001=
0049010270999992014010801004+69650+018900FM-12+002099999V020999999999999999999999999999+99999+99999999999REMSYN04001027 26/// ///// 10008 21036 333 60005=
0049010270999992014010802004+69650+018900FM-12+002099999V020999999999999999999999999999+99999+99999999999REMSYN04001027 26/// ///// 10009 21038 333 60005=
0049010270999992014010803004+69650+018900FM-12+002099999V020999999999999999999999999999+99999+99999999999REMSYN04001027 26/// ///// 10008 21034 333 60005=
0049010270999992014010804004+69650+018900FM-12+002099999V020999999999999999999999999999+99999+99999999999REMSYN04001027 26/// ///// 10009 21032 333 60005=
0049010270999992014010805004+69650+018900FM-12+002099999V020999999999999999999999999999+99999+99999999999REMSYN04001027 26/// ///// 10014 21039 333 60005=
0099010270999992014010806004+69650+018900FM-12+002099999V0209999C999999999999N999999999+00181-00431999999ADDAA112000091AA224000091KA1240N-00051REMSYN05201027 16/// ///// 10018 21043 60002 333 21005 70000=
0049010270999992014010807004+69650+018900FM-12+002099999V020999999999999999999999999999+99999+99999999999REMSYN04001027 26/// ///// 10009 21033 333 69915=
0049010270999992014010808004+69650+018900FM-12+002099999V020999999999999999999999999999+99999+99999999999REMSYN04001027 26/// ///// 10004 21028 333 60005=
0049010270999992014010809004+69650+018900FM-12+002099999V020999999999999999999999999999+99999+99999999999REMSYN04001027 26/// ///// 11003 21018 333 69915=
0049010270999992014010810004+69650+018900FM-12+002099999V020999999999999999999999999999+99999+99999999999REMSYN04001027 26/// ///// 11002 21017 333 60005=
0049010270999992014010811004+69650+018900FM-12+002099999V020999999999999999999999999999+99999+99999999999REMSYN04001027 26/// ///// 10000 21018 333 69915=
0059010270999992014010812004+69650+018900FM-12+002099999V0209999C999999999999N999999999+00011-00301999999ADDAA106000331REMSYN03601027 16/// ///// 10001 21030 69931=
0049010270999992014010813004+69650+018900FM-12+002099999V020999999999999999999999999999+99999+99999999999REMSYN04001027 26/// ///// 10001 21030 333 60005=
0049010270999992014010814004+69650+018900FM-12+002099999V020999999999999999999999999999+99999+99999999999REMSYN04001027 26/// ///// 11002 21024 333 60005=
0049010270999992014010815004+69650+018900FM-12+002099999V020999999999999999999999999999+99999+99999999999REMSYN04001027 26/// ///// 10000 21027 333 60005=
0049010270999992014010816004+69650+018900FM-12+002099999V020999999999999999999999999999+99999+99999999999REMSYN04001027 26/// ///// 10004 21037 333 60005=
0049010270999992014010817004+69650+018900FM-12+002099999V020999999999999999999999999999+99999+99999999999REMSYN04001027 26/// ///// 10002 21042 333 60005=
0082010270999992014010818004+69650+018900FM-12+002099999V0209999C999999999999N999999999+00031-00481999999ADDAA112000331KA1120M+00191REMSYN04601027 16/// ///// 10003 21048 69932 333 10019=
0049010270999992014010819004+69650+018900FM-12+002099999V020999999999999999999999999999+99999+99999999999REMSYN04001027 26/// ///// 11001 21044 333 60005=
0049010270999992014010820004+69650+018900FM-12+002099999V020999999999999999999999999999+99999+99999999999REMSYN04001027 26/// ///// 11002 21052 333 60005=
0049010270999992014010821004+69650+018900FM-12+002099999V020999999999999999999999999999+99999+99999999999REMSYN04001027 26/// ///// 11002 21056 333 60005=
0049010270999992014010823004+69650+018900FM-12+002099999V020999999999999999999999999999+99999+99999999999REMSYN04001027 26/// ///// 11010 21076 333 60005=
0059010270999992014010900004+69650+018900FM-12+002099999V0209999C999999999999N999999999-00121-00841999999ADDAA106000091REMSYN03601027 16/// ///// 11012 21084 60001=
0049010270999992014010901004+69650+018900FM-12+002099999V020999999999999999999999999999+99999+99999999999REMSYN04001027 26/// ///// 11015 21089 333 60005=
0049010270999992014010902004+69650+018900FM-12+002099999V020999999999999999999999999999+99999+99999999999REMSYN04001027 26/// ///// 11021 21092 333 60005=
0049010270999992014010903004+69650+018900FM-12+002099999V020999999999999999999999999999+99999+99999999999REMSYN04001027 26/// ///// 11021 21100 333 60005=
0049010270999992014010904004+69650+018900FM-12+002099999V020999999999999999999999999999+99999+99999999999REMSYN04001027 26/// ///// 11029 21108 333 60005=
0049010270999992014010905004+69650+018900FM-12+002099999V020999999999999999999999999999+99999+99999999999REMSYN04001027 26/// ///// 11030 21117 333 60005=
0099010270999992014010906004+69650+018900FM-12+002099999V0209999C999999999999N999999999-00331-01211999999ADDAA112000091AA224000331KA1240N-00341REMSYN05201027 16/// ///// 11033 21121 60002 333 21034 70003=
0049010270999992014010907004+69650+018900FM-12+002099999V020999999999999999999999999999+99999+99999999999REMSYN04001027 26/// ///// 11035 21130 333 60005=
0049010270999992014010908004+69650+018900FM-12+002099999V020999999999999999999999999999+99999+99999999999REMSYN04001027 26/// ///// 11036 21139 333 60005=
0049010270999992014010909004+69650+018900FM-12+002099999V020999999999999999999999999999+99999+99999999999REMSYN04001027 26/// ///// 11037 21148 333 60005=
0049010270999992014010910004+69650+018900FM-12+002099999V020999999999999999999999999999+99999+99999999999REMSYN04001027 26/// ///// 11040 21160 333 60005=
0049010270999992014010911004+69650+018900FM-12+002099999V020999999999999999999999999999+99999+99999999999REMSYN04001027 26/// ///// 11047 21152 333 60005=
0059010270999992014010912004+69650+018900FM-12+002099999V0209999C999999999999N999999999-00511-01501999999ADDAA106000091REMSYN03601027 16/// ///// 11051 21150 60001=
0049010270999992014010913004+69650+018900FM-12+002099999V020999999999999999999999999999+99999+99999999999REMSYN04001027 26/// ///// 11057 21157 333 60005=
0049010270999992014010914004+69650+018900FM-12+002099999V020999999999999999999999999999+99999+99999999999REMSYN04001027 26/// ///// 11053 21162 333 60005=
0049010270999992014010915004+69650+018900FM-12+002099999V020999999999999999999999999999+99999+99999999999REMSYN04001027 26/// ///// 11056 21179 333 60005=
0049010270999992014010916004+69650+018900FM-12+002099999V020999999999999999999999999999+99999+99999999999REMSYN04001027 26/// ///// 11057 21175 333 60005=
0049010270999992014010917004+69650+018900FM-12+002099999V020999999999999999999999999999+99999+99999999999REMSYN04001027 26/// ///// 11057 21170 333 60005=
0082010270999992014010918004+69650+018900FM-12+002099999V0209999C999999999999N999999999-00571-01701999999ADDAA112000091KA1120M-00331REMSYN04601027 16/// ///// 11057 21170 60002 333 11033=
0049010270999992014010919004+69650+018900FM-12+002099999V020999999999999999999999999999+99999+99999999999REMSYN04001027 26/// ///// 11060 21162 333 60005=
0049010270999992014010920004+69650+018900FM-12+002099999V020999999999999999999999999999+99999+99999999999REMSYN04001027 26/// ///// 11069 21167 333 60005=
0049010270999992014010921004+69650+018900FM-12+002099999V020999999999999999999999999999+99999+99999999999REMSYN04001027 26/// ///// 11051 21167 333 60005=
0049010270999992014010922004+69650+018900FM-12+002099999V020999999999999999999999999999+99999+99999999999REMSYN04001027 26/// ///// 11063 21168 333 60005=
0049010270999992014010923004+69650+018900FM-12+002099999V020999999999999999999999999999+99999+99999999999REMSYN04001027 26/// ///// 11078 21165 333 60005=
0059010270999992014011000004+69650+018900FM-12+002099999V0209999C999999999999N999999999-00671-01551999999ADDAA106000091REMSYN03601027 16/// ///// 11067 21155 60001=
0049010270999992014011001004+69650+018900FM-12+002099999V020999999999999999999999999999+99999+99999999999REMSYN04001027 26/// ///// 11077 21157 333 60005=
0049010270999992014011002004+69650+018900FM-12+002099999V020999999999999999999999999999+99999+99999999999REMSYN04001027 26/// ///// 11066 21148 333 60005=
0049010270999992014011003004+69650+018900FM-12+002099999V020999999999999999999999999999+99999+99999999999REMSYN04001027 26/// ///// 11081 21153 333 60005=
0049010270999992014011004004+69650+018900FM-12+002099999V020999999999999999999999999999+99999+99999999999REMSYN04001027 26/// ///// 11086 21128 333 60005=
0049010270999992014011005004+69650+018900FM-12+002099999V020999999999999999999999999999+99999+99999999999REMSYN04001027 26/// ///// 11087 21126 333 60005=
0099010270999992014011006004+69650+018900FM-12+002099999V0209999C999999999999N999999999-00801-01301999999ADDAA112000091AA224000091KA1240N-00891REMSYN05201027 16/// ///// 11080 21130 60002 333 21089 70000=
0049010270999992014011007004+69650+018900FM-12+002099999V020999999999999999999999999999+99999+99999999999REMSYN04001027 26/// ///// 11073 21141 333 60005=
0049010270999992014011008004+69650+018900FM-12+002099999V020999999999999999999999999999+99999+99999999999REMSYN04001027 26/// ///// 11086 21127 333 60005=
0049010270999992014011009004+69650+018900FM-12+002099999V020999999999999999999999999999+99999+99999999999REMSYN04001027 26/// ///// 11083 21117 333 60005=
0049010270999992014011010004+69650+018900FM-12+002099999V020999999999999999999999999999+99999+99999999999REMSYN04001027 26/// ///// 11087 21119 333 60005=
0049010270999992014011011004+69650+018900FM-12+002099999V020999999999999999999999999999+99999+99999999999REMSYN04001027 26/// ///// 11088 21120 333 60005=
0059010270999992014011012004+69650+018900FM-12+002099999V0209999C999999999999N999999999-00901-01191999999ADDAA106000091REMSYN03601027 16/// ///// 11090 21119 60001=
0049010270999992014011013004+69650+018900FM-12+002099999V020999999999999999999999999999+99999+99999999999REMSYN04001027 26/// ///// 11095 21120 333 60005=
0049010270999992014011014004+69650+018900FM-12+002099999V020999999999999999999999999999+99999+99999999999REMSYN04001027 26/// ///// 11094 21117 333 60005=
0049010270999992014011015004+69650+018900FM-12+002099999V020999999999999999999999999999+99999+99999999999REMSYN04001027 26/// ///// 11094 21118 333 60005=
0049010270999992014011016004+69650+018900FM-12+002099999V020999999999999999999999999999+99999+99999999999REMSYN04001027 26/// ///// 11100 21124 333 60005=
0049010270999992014011017004+69650+018900FM-12+002099999V020999999999999999999999999999+99999+99999999999REMSYN04001027 26/// ///// 11100 21122 333 60005=
0082010270999992014011018004+69650+018900FM-12+002099999V0209999C999999999999N999999999-01031-01221999999ADDAA112000091KA1120M-00661REMSYN04601027 16/// ///// 11103 21122 60002 333 11066=
0049010270999992014011019004+69650+018900FM-12+002099999V020999999999999999999999999999+99999+99999999999REMSYN04001027 26/// ///// 11101 21121 333 60005=
0049010270999992014011020004+69650+018900FM-12+002099999V020999999999999999999999999999+99999+99999999999REMSYN04001027 26/// ///// 11099 21119 333 60005=
0049010270999992014011021004+69650+018900FM-12+002099999V020999999999999999999999999999+99999+99999999999REMSYN04001027 26/// ///// 11095 21114 333 60005=
0049010270999992014011022004+69650+018900FM-12+002099999V020999999999999999999999999999+99999+99999999999REMSYN04001027 26/// ///// 11095 21123 333 60005=
0049010270999992014011023004+69650+018900FM-12+002099999V020999999999999999999999999999+99999+99999999999REMSYN04001027 26/// ///// 11095 21121 333 60005=
0059010270999992014011100004+69650+018900FM-12+002099999V0209999C999999999999N999999999-01021-01261999999ADDAA106000091REMSYN03601027 16/// ///// 11102 21126 60001=
0049010270999992014011101004+69650+018900FM-12+002099999V020999999999999999999999999999+99999+99999999999REMSYN04001027 26/// ///// 11104 21125 333 60005=
0049010270999992014011102004+69650+018900FM-12+002099999V020999999999999999999999999999+99999+99999999999REMSYN04001027 26/// ///// 11107 21130 333 60005=
0049010270999992014011103004+69650+018900FM-12+002099999V020999999999999999999999999999+99999+99999999999REMSYN04001027 26/// ///// 11108 21132 333 60005=
0049010270999992014011104004+69650+018900FM-12+002099999V020999999999999999999999999999+99999+99999999999REMSYN04001027 26/// ///// 11106 21128 333 60005=
0049010270999992014011105004+69650+018900FM-12+002099999V020999999999999999999999999999+99999+99999999999REMSYN04001027 26/// ///// 11106 21128 333 60005=
0099010270999992014011106004+69650+018900FM-12+002099999V0209999C999999999999N999999999-01111-01331999999ADDAA112000091AA224000091KA1240N-01141REMSYN05201027 16/// ///// 11111 21133 60002 333 21114 70000=
0049010270999992014011107004+69650+018900FM-12+002099999V020999999999999999999999999999+99999+99999999999REMSYN04001027 26/// ///// 11105 21124 333 60005=
0049010270999992014011108004+69650+018900FM-12+002099999V020999999999999999999999999999+99999+99999999999REMSYN04001027 26/// ///// 11114 21134 333 60005=
0049010270999992014011109004+69650+018900FM-12+002099999V020999999999999999999999999999+99999+99999999999REMSYN04001027 26/// ///// 11110 21133 333 60005=
0049010270999992014011110004+69650+018900FM-12+002099999V020999999999999999999999999999+99999+99999999999REMSYN04001027 26/// ///// 11102 21126 333 60005=
0049010270999992014011111004+69650+018900FM-12+002099999V020999999999999999999999999999+99999+99999999999REMSYN04001027 26/// ///// 11110 21135 333 60005=
0059010270999992014011112004+69650+018900FM-12+002099999V0209999C999999999999N999999999-01021-01321999999ADDAA106000091REMSYN03601027 16/// ///// 11102 21132 60001=
0049010270999992014011113004+69650+018900FM-12+002099999V020999999999999999999999999999+99999+99999999999REMSYN04001027 26/// ///// 11109 21135 333 60005=
0049010270999992014011114004+69650+018900FM-12+002099999V020999999999999999999999999999+99999+99999999999REMSYN04001027 26/// ///// 11098 21116 333 60005=
0049010270999992014011115004+69650+018900FM-12+002099999V020999999999999999999999999999+99999+99999999999REMSYN04001027 26/// ///// 11101 21118 333 60005=
0049010270999992014011116004+69650+018900FM-12+002099999V020999999999999999999999999999+99999+99999999999REMSYN04001027 26/// ///// 11107 21126 333 60005=
0049010270999992014011117004+69650+018900FM-12+002099999V020999999999999999999999999999+99999+99999999999REMSYN04001027 26/// ///// 11104 21121 333 60005=
0082010270999992014011118004+69650+018900FM-12+002099999V0209999C999999999999N999999999-01041-01211999999ADDAA112000091KA1120M-00931REMSYN04601027 16/// ///// 11104 21121 60002 333 11093=
0049010270999992014011119004+69650+018900FM-12+002099999V020999999999999999999999999999+99999+99999999999REMSYN04001027 26/// ///// 11107 21122 333 60005=
0049010270999992014011120004+69650+018900FM-12+002099999V020999999999999999999999999999+99999+99999999999REMSYN04001027 26/// ///// 11105 21120 333 60005=
0049010270999992014011121004+69650+018900FM-12+002099999V020999999999999999999999999999+99999+99999999999REMSYN04001027 26/// ///// 11102 21119 333 60005=
0049010270999992014011122004+69650+018900FM-12+002099999V020999999999999999999999999999+99999+99999999999REMSYN04001027 26/// ///// 11101 21117 333 60005=
0049010270999992014011123004+69650+018900FM-12+002099999V020999999999999999999999999999+99999+99999999999REMSYN04001027 26/// ///// 11106 21122 333 60005=
0059010270999992014011200004+69650+018900FM-12+002099999V0209999C999999999999N999999999-00921-01111999999ADDAA106000091REMSYN03601027 16/// ///// 11092 21111 60001=
0049010270999992014011201004+69650+018900FM-12+002099999V020999999999999999999999999999+99999+99999999999REMSYN04001027 26/// ///// 11098 21117 333 60005=
0049010270999992014011202004+69650+018900FM-12+002099999V020999999999999999999999999999+99999+99999999999REMSYN04001027 26/// ///// 11098 21113 333 60005=
0049010270999992014011203004+69650+018900FM-12+002099999V020999999999999999999999999999+99999+99999999999REMSYN04001027 26/// ///// 11102 21115 333 60005=
0049010270999992014011204004+69650+018900FM-12+002099999V020999999999999999999999999999+99999+99999999999REMSYN04001027 26/// ///// 11104 21118 333 60005=
0049010270999992014011205004+69650+018900FM-12+002099999V020999999999999999999999999999+99999+99999999999REMSYN04001027 26/// ///// 11100 21113 333 60005=
0099010270999992014011206004+69650+018900FM-12+002099999V0209999C999999999999N999999999-00931-01071999999ADDAA112000091AA224000091KA1240N-01121REMSYN05201027 16/// ///// 11093 21107 60002 333 21112 70000=
0049010270999992014011207004+69650+018900FM-12+002099999V020999999999999999999999999999+99999+99999999999REMSYN04001027 26/// ///// 11092 21106 333 60005=
0049010270999992014011208004+69650+018900FM-12+002099999V020999999999999999999999999999+99999+99999999999REMSYN04001027 26/// ///// 11081 21095 333 60005=
0049010270999992014011209004+69650+018900FM-12+002099999V020999999999999999999999999999+99999+99999999999REMSYN04001027 26/// ///// 11076 21089 333 60005=
0049010270999992014011210004+69650+018900FM-12+002099999V020999999999999999999999999999+99999+99999999999REMSYN04001027 26/// ///// 11084 21099 333 60005=
0049010270999992014011211004+69650+018900FM-12+002099999V020999999999999999999999999999+99999+99999999999REMSYN04001027 26/// ///// 11076 21088 333 60005=
0059010270999992014011212004+69650+018900FM-12+002099999V0209999C999999999999N999999999-00761-00901999999ADDAA106000091REMSYN03601027 16/// ///// 11076 21090 60001=
0049010270999992014011213004+69650+018900FM-12+002099999V020999999999999999999999999999+99999+99999999999REMSYN04001027 26/// ///// 11072 21086 333 60005=
0049010270999992014011214004+69650+018900FM-12+002099999V020999999999999999999999999999+99999+99999999999REMSYN04001027 26/// ///// 11071 21086 333 60005=
0049010270999992014011215004+69650+018900FM-12+002099999V020999999999999999999999999999+99999+99999999999REMSYN04001027 26/// ///// 11071 21086 333 60005=
0049010270999992014011216004+69650+018900FM-12+002099999V020999999999999999999999999999+99999+99999999999REMSYN04001027 26/// ///// 11071 21090 333 60005=
0049010270999992014011217004+69650+018900FM-12+002099999V020999999999999999999999999999+99999+99999999999REMSYN04001027 26/// ///// 11068 21089 333 60005=
0082010270999992014011218004+69650+018900FM-12+002099999V0209999C999999999999N999999999-00661-00911999999ADDAA112000091KA1120M-00651REMSYN04601027 16/// ///// 11066 21091 60002 333 11065=
0049010270999992014011219004+69650+018900FM-12+002099999V020999999999999999999999999999+99999+99999999999REMSYN04001027 26/// ///// 11064 21084 333 69915=
0049010270999992014011220004+69650+018900FM-12+002099999V020999999999999999999999999999+99999+99999999999REMSYN04001027 26/// ///// 11064 21080 333 69945=
0049010270999992014011221004+69650+018900FM-12+002099999V020999999999999999999999999999+99999+99999999999REMSYN04001027 26/// ///// 11063 21078 333 69915=
0049010270999992014011222004+69650+018900FM-12+002099999V020999999999999999999999999999+99999+99999999999REMSYN04001027 26/// ///// 11059 21075 333 60005=
0049010270999992014011223004+69650+018900FM-12+002099999V020999999999999999999999999999+99999+99999999999REMSYN04001027 26/// ///// 11059 21075 333 60005=
0059010270999992014011300004+69650+018900FM-12+002099999V0209999C999999999999N999999999-00561-00751999999ADDAA106000731REMSYN03601027 16/// ///// 11056 21075 69971=
0049010270999992014011301004+69650+018900FM-12+002099999V020999999999999999999999999999+99999+99999999999REMSYN04001027 26/// ///// 11055 21072 333 69915=
0049010270999992014011302004+69650+018900FM-12+002099999V020999999999999999999999999999+99999+99999999999REMSYN04001027 26/// ///// 11055 21074 333 60005=
0049010270999992014011303004+69650+018900FM-12+002099999V020999999999999999999999999999+99999+99999999999REMSYN04001027 26/// ///// 11051 21071 333 60005=
0049010270999992014011304004+69650+018900FM-12+002099999V020999999999999999999999999999+99999+99999999999REMSYN04001027 26/// ///// 11049 21071 333 60005=
0049010270999992014011305004+69650+018900FM-12+002099999V020999999999999999999999999999+99999+99999999999REMSYN04001027 26/// ///// 11048 21067 333 69915=
0099010270999992014011306004+69650+018900FM-12+002099999V0209999C999999999999N999999999-00451-00661999999ADDAA112000931AA224000931KA1240N-00691REMSYN05201027 16/// ///// 11045 21066 69992 333 21069 70009=
0049010270999992014011307004+69650+018900FM-12+002099999V020999999999999999999999999999+99999+99999999999REMSYN04001027 26/// ///// 11043 21067 333 60005=
0049010270999992014011308004+69650+018900FM-12+002099999V020999999999999999999999999999+99999+99999999999REMSYN04001027 26/// ///// 11040 21065 333 60005=
0049010270999992014011309004+69650+018900FM-12+002099999V020999999999999999999999999999+99999+99999999999REMSYN04001027 26/// ///// 11038 21064 333 60005=
0049010270999992014011310004+69650+018900FM-12+002099999V020999999999999999999999999999+99999+99999999999REMSYN04001027 26/// ///// 11038 21065 333 60005=
0049010270999992014011311004+69650+018900FM-12+002099999V020999999999999999999999999999+99999+99999999999REMSYN04001027 26/// ///// 11036 21063 333 60005=
0059010270999992014011312004+69650+018900FM-12+002099999V0209999C999999999999N999999999-00371-00651999999ADDAA106000091REMSYN03601027 16/// ///// 11037 21065 60001=
0049010270999992014011313004+69650+018900FM-12+002099999V020999999999999999999999999999+99999+99999999999REMSYN04001027 26/// ///// 11037 21063 333 60005=
0049010270999992014011314004+69650+018900FM-12+002099999V020999999999999999999999999999+99999+99999999999REMSYN04001027 26/// ///// 11038 21065 333 60005=
0049010270999992014011315004+69650+018900FM-12+002099999V020999999999999999999999999999+99999+99999999999REMSYN04001027 26/// ///// 11043 21063 333 60005=
0049010270999992014011316004+69650+018900FM-12+002099999V020999999999999999999999999999+99999+99999999999REMSYN04001027 26/// ///// 11043 21062 333 60005=
0049010270999992014011317004+69650+018900FM-12+002099999V020999999999999999999999999999+99999+99999999999REMSYN04001027 26/// ///// 11043 21060 333 60005=
0082010270999992014011318004+69650+018900FM-12+002099999V0209999C999999999999N999999999-00471-00681999999ADDAA112000091KA1120M-00351REMSYN04601027 16/// ///// 11047 21068 60002 333 11035=
0049010270999992014011319004+69650+018900FM-12+002099999V020999999999999999999999999999+99999+99999999999REMSYN04001027 26/// ///// 11054 21071 333 60005=
0049010270999992014011320004+69650+018900FM-12+002099999V020999999999999999999999999999+99999+99999999999REMSYN04001027 26/// ///// 11056 21071 333 60005=
0049010270999992014011321004+69650+018900FM-12+002099999V020999999999999999999999999999+99999+99999999999REMSYN04001027 26/// ///// 11057 21071 333 60005=
0049010270999992014011322004+69650+018900FM-12+002099999V020999999999999999999999999999+99999+99999999999REMSYN04001027 26/// ///// 11059 21074 333 60005=
0049010270999992014011323004+69650+018900FM-12+002099999V020999999999999999999999999999+99999+99999999999REMSYN04001027 26/// ///// 11058 21071 333 60005=
0059010270999992014011400004+69650+018900FM-12+002099999V0209999C999999999999N999999999-00621-00771999999ADDAA106000091REMSYN03601027 16/// ///// 11062 21077 60001=
0049010270999992014011401004+69650+018900FM-12+002099999V020999999999999999999999999999+99999+99999999999REMSYN04001027 26/// ///// 11066 21081 333 60005=
0049010270999992014011402004+69650+018900FM-12+002099999V020999999999999999999999999999+99999+99999999999REMSYN04001027 26/// ///// 11067 21082 333 60005=
0049010270999992014011403004+69650+018900FM-12+002099999V020999999999999999999999999999+99999+99999999999REMSYN04001027 26/// ///// 11072 21084 333 60005=
0049010270999992014011404004+69650+018900FM-12+002099999V020999999999999999999999999999+99999+99999999999REMSYN04001027 26/// ///// 11068 21083 333 60005=
0049010270999992014011405004+69650+018900FM-12+002099999V020999999999999999999999999999+99999+99999999999REMSYN04001027 26/// ///// 11071 21090 333 60005=
0099010270999992014011406004+69650+018900FM-12+002099999V0209999C999999999999N999999999-00811-00951999999ADDAA112000091AA224000091KA1240N-00811REMSYN05201027 16/// ///// 11081 21095 60002 333 21081 70000=
0049010270999992014011407004+69650+018900FM-12+002099999V020999999999999999999999999999+99999+99999999999REMSYN04001027 26/// ///// 11082 21097 333 60005=
0049010270999992014011408004+69650+018900FM-12+002099999V020999999999999999999999999999+99999+99999999999REMSYN04001027 26/// ///// 11076 21092 333 60005=
0049010270999992014011409004+69650+018900FM-12+002099999V020999999999999999999999999999+99999+99999999999REMSYN04001027 26/// ///// 11082 21097 333 60005=
0049010270999992014011410004+69650+018900FM-12+002099999V020999999999999999999999999999+99999+99999999999REMSYN04001027 26/// ///// 11089 21103 333 60005=
0049010270999992014011411004+69650+018900FM-12+002099999V020999999999999999999999999999+99999+99999999999REMSYN04001027 26/// ///// 11077 21091 333 60005=
0059010270999992014011412004+69650+018900FM-12+002099999V0209999C999999999999N999999999-00841-01001999999ADDAA106000091REMSYN03601027 16/// ///// 11084 21100 60001=
0049010270999992014011413004+69650+018900FM-12+002099999V020999999999999999999999999999+99999+99999999999REMSYN04001027 26/// ///// 11079 21093 333 60005=
0049010270999992014011414004+69650+018900FM-12+002099999V020999999999999999999999999999+99999+99999999999REMSYN04001027 26/// ///// 11080 21094 333 60005=
0049010270999992014011415004+69650+018900FM-12+002099999V020999999999999999999999999999+99999+99999999999REMSYN04001027 26/// ///// 11081 21094 333 60005=
0049010270999992014011416004+69650+018900FM-12+002099999V020999999999999999999999999999+99999+99999999999REMSYN04001027 26/// ///// 11080 21093 333 60005=
0049010270999992014011417004+69650+018900FM-12+002099999V020999999999999999999999999999+99999+99999999999REMSYN04001027 26/// ///// 11088 21101 333 60005=
0082010270999992014011418004+69650+018900FM-12+002099999V0209999C999999999999N999999999-00911-01051999999ADDAA112000091KA1120M-00731REMSYN04601027 16/// ///// 11091 21105 60002 333 11073=
0049010270999992014011419004+69650+018900FM-12+002099999V020999999999999999999999999999+99999+99999999999REMSYN04001027 26/// ///// 11088 21102 333 60005=
0049010270999992014011420004+69650+018900FM-12+002099999V020999999999999999999999999999+99999+99999999999REMSYN04001027 26/// ///// 11089 21103 333 60005=
0049010270999992014011421004+69650+018900FM-12+002099999V020999999999999999999999999999+99999+99999999999REMSYN04001027 26/// ///// 11087 21100 333 60005=
0049010270999992014011422004+69650+018900FM-12+002099999V020999999999999999999999999999+99999+99999999999REMSYN04001027 26/// ///// 11090 21104 333 60005=
0049010270999992014011423004+69650+018900FM-12+002099999V020999999999999999999999999999+99999+99999999999REMSYN04001027 26/// ///// 11090 21104 333 60005=
0059010270999992014011500004+69650+018900FM-12+002099999V0209999C999999999999N999999999-00901-01051999999ADDAA106000091REMSYN03601027 16/// ///// 11090 21105 60001=
0049010270999992014011501004+69650+018900FM-12+002099999V020999999999999999999999999999+99999+99999999999REMSYN04001027 26/// ///// 11092 21107 333 60005=
0049010270999992014011502004+69650+018900FM-12+002099999V020999999999999999999999999999+99999+99999999999REMSYN04001027 26/// ///// 11086 21099 333 60005=
0049010270999992014011503004+69650+018900FM-12+002099999V020999999999999999999999999999+99999+99999999999REMSYN04001027 26/// ///// 11088 21102 333 60005=
0049010270999992014011504004+69650+018900FM-12+002099999V020999999999999999999999999999+99999+99999999999REMSYN04001027 26/// ///// 11086 21099 333 60005=
0049010270999992014011505004+69650+018900FM-12+002099999V020999999999999999999999999999+99999+99999999999REMSYN04001027 26/// ///// 11080 21092 333 60005=
0099010270999992014011506004+69650+018900FM-12+002099999V0209999C999999999999N999999999-00821-00951999999ADDAA112000091AA224000091KA1240N-00941REMSYN05201027 16/// ///// 11082 21095 60002 333 21094 70000=
0049010270999992014011507004+69650+018900FM-12+002099999V020999999999999999999999999999+99999+99999999999REMSYN04001027 26/// ///// 11078 21089 333 60005=
0049010270999992014011508004+69650+018900FM-12+002099999V020999999999999999999999999999+99999+99999999999REMSYN04001027 26/// ///// 11081 21099 333 60005=
0049010270999992014011509004+69650+018900FM-12+002099999V020999999999999999999999999999+99999+99999999999REMSYN04001027 26/// ///// 11082 21101 333 60005=
0049010270999992014011510004+69650+018900FM-12+002099999V020999999999999999999999999999+99999+99999999999REMSYN04001027 26/// ///// 11080 21100 333 60005=
0049010270999992014011511004+69650+018900FM-12+002099999V020999999999999999999999999999+99999+99999999999REMSYN04001027 26/// ///// 11075 21098 333 60005=
0059010270999992014011512004+69650+018900FM-12+002099999V0209999C999999999999N999999999-00801-01041999999ADDAA106000091REMSYN03601027 16/// ///// 11080 21104 60001=
0049010270999992014011513004+69650+018900FM-12+002099999V020999999999999999999999999999+99999+99999999999REMSYN04001027 26/// ///// 11071 21094 333 60005=
0049010270999992014011514004+69650+018900FM-12+002099999V020999999999999999999999999999+99999+99999999999REMSYN04001027 26/// ///// 11058 21086 333 60005=
0049010270999992014011515004+69650+018900FM-12+002099999V020999999999999999999999999999+99999+99999999999REMSYN04001027 26/// ///// 11052 21090 333 60005=
0049010270999992014011516004+69650+018900FM-12+002099999V020999999999999999999999999999+99999+99999999999REMSYN04001027 26/// ///// 11046 21095 333 60005=
0049010270999992014011517004+69650+018900FM-12+002099999V020999999999999999999999999999+99999+99999999999REMSYN04001027 26/// ///// 11044 21096 333 60005=
0082010270999992014011518004+69650+018900FM-12+002099999V0209999C999999999999N999999999-00581-01011999999ADDAA112000091KA1120M-00411REMSYN04601027 16/// ///// 11058 21101 60002 333 11041=
0049010270999992014011519004+69650+018900FM-12+002099999V020999999999999999999999999999+99999+99999999999REMSYN04001027 26/// ///// 11058 21107 333 60005=
0049010270999992014011520004+69650+018900FM-12+002099999V020999999999999999999999999999+99999+99999999999REMSYN04001027 26/// ///// 11065 21102 333 60005=
0049010270999992014011521004+69650+018900FM-12+002099999V020999999999999999999999999999+99999+99999999999REMSYN04001027 26/// ///// 11057 21102 333 60005=
0049010270999992014011522004+69650+018900FM-12+002099999V020999999999999999999999999999+99999+99999999999REMSYN04001027 26/// ///// 11066 21105 333 60005=
0049010270999992014011523004+69650+018900FM-12+002099999V020999999999999999999999999999+99999+99999999999REMSYN04001027 26/// ///// 11051 21104 333 60005=
0059010270999992014011600004+69650+018900FM-12+002099999V0209999C999999999999N999999999-00561-01031999999ADDAA106000091REMSYN03601027 16/// ///// 11056 21103 60001=
0049010270999992014011601004+69650+018900FM-12+002099999V020999999999999999999999999999+99999+99999999999REMSYN04001027 26/// ///// 11051 21103 333 60005=
0049010270999992014011602004+69650+018900FM-12+002099999V020999999999999999999999999999+99999+99999999999REMSYN04001027 26/// ///// 11051 21105 333 60005=
0049010270999992014011603004+69650+018900FM-12+002099999V020999999999999999999999999999+99999+99999999999REMSYN04001027 26/// ///// 11054 21105 333 60005=
0049010270999992014011604004+69650+018900FM-12+002099999V020999999999999999999999999999+99999+99999999999REMSYN04001027 26/// ///// 11052 21105 333 60005=
0049010270999992014011605004+69650+018900FM-12+002099999V020999999999999999999999999999+99999+99999999999REMSYN04001027 26/// ///// 11053 21113 333 60005=
0099010270999992014011606004+69650+018900FM-12+002099999V0209999C999999999999N999999999-00601-01161999999ADDAA112000091AA224000091KA1240N-00861REMSYN05201027 16/// ///// 11060 21116 60002 333 21086 70000=
0049010270999992014011607004+69650+018900FM-12+002099999V020999999999999999999999999999+99999+99999999999REMSYN04001027 26/// ///// 11058 21117 333 60005=
0049010270999992014011608004+69650+018900FM-12+002099999V020999999999999999999999999999+99999+99999999999REMSYN04001027 26/// ///// 11053 21116 333 60005=
0049010270999992014011609004+69650+018900FM-12+002099999V020999999999999999999999999999+99999+99999999999REMSYN04001027 26/// ///// 11054 21118 333 60005=
0049010270999992014011610004+69650+018900FM-12+002099999V020999999999999999999999999999+99999+99999999999REMSYN04001027 26/// ///// 11056 21123 333 60005=
0049010270999992014011611004+69650+018900FM-12+002099999V020999999999999999999999999999+99999+99999999999REMSYN04001027 26/// ///// 11051 21126 333 60005=
0059010270999992014011612004+69650+018900FM-12+002099999V0209999C999999999999N999999999-00491-01241999999ADDAA106000091REMSYN03601027 16/// ///// 11049 21124 60001=
0049010270999992014011613004+69650+018900FM-12+002099999V020999999999999999999999999999+99999+99999999999REMSYN04001027 26/// ///// 11049 21128 333 60005=
0049010270999992014011614004+69650+018900FM-12+002099999V020999999999999999999999999999+99999+99999999999REMSYN04001027 26/// ///// 11054 21127 333 60005=
0049010270999992014011615004+69650+018900FM-12+002099999V020999999999999999999999999999+99999+99999999999REMSYN04001027 26/// ///// 11053 21127 333 60005=
0049010270999992014011616004+69650+018900FM-12+002099999V020999999999999999999999999999+99999+99999999999REMSYN04001027 26/// ///// 11052 21134 333 60005=
0049010270999992014011617004+69650+018900FM-12+002099999V020999999999999999999999999999+99999+99999999999REMSYN04001027 26/// ///// 11052 21142 333 60005=
0082010270999992014011618004+69650+018900FM-12+002099999V0209999C999999999999N999999999-00531-01401999999ADDAA112000091KA1120M-00471REMSYN04601027 16/// ///// 11053 21140 60002 333 11047=
0049010270999992014011619004+69650+018900FM-12+002099999V020999999999999999999999999999+99999+99999999999REMSYN04001027 26/// ///// 11055 21136 333 60005=
0049010270999992014011620004+69650+018900FM-12+002099999V020999999999999999999999999999+99999+99999999999REMSYN04001027 26/// ///// 11053 21140 333 60005=
0049010270999992014011621004+69650+018900FM-12+002099999V020999999999999999999999999999+99999+99999999999REMSYN04001027 26/// ///// 11052 21138 333 60005=
0049010270999992014011622004+69650+018900FM-12+002099999V020999999999999999999999999999+99999+99999999999REMSYN04001027 26/// ///// 11049 21132 333 60005=
0049010270999992014011623004+69650+018900FM-12+002099999V020999999999999999999999999999+99999+99999999999REMSYN04001027 26/// ///// 11054 21139 333 60005=
0059010270999992014011700004+69650+018900FM-12+002099999V0209999C999999999999N999999999-00451-01311999999ADDAA106000091REMSYN03601027 16/// ///// 11045 21131 60001=
0049010270999992014011701004+69650+018900FM-12+002099999V020999999999999999999999999999+99999+99999999999REMSYN04001027 26/// ///// 11046 21126 333 60005=
0049010270999992014011702004+69650+018900FM-12+002099999V020999999999999999999999999999+99999+99999999999REMSYN04001027 26/// ///// 11046 21125 333 60005=
0049010270999992014011703004+69650+018900FM-12+002099999V020999999999999999999999999999+99999+99999999999REMSYN04001027 26/// ///// 11050 21132 333 60005=
0049010270999992014011704004+69650+018900FM-12+002099999V020999999999999999999999999999+99999+99999999999REMSYN04001027 26/// ///// 11051 21134 333 60005=
0049010270999992014011705004+69650+018900FM-12+002099999V020999999999999999999999999999+99999+99999999999REMSYN04001027 26/// ///// 11052 21135 333 60005=
0099010270999992014011706004+69650+018900FM-12+002099999V0209999C999999999999N999999999-00501-01321999999ADDAA112000091AA224000091KA1240N-00561REMSYN05201027 16/// ///// 11050 21132 60002 333 21056 70000=
0049010270999992014011707004+69650+018900FM-12+002099999V020999999999999999999999999999+99999+99999999999REMSYN04001027 26/// ///// 11052 21133 333 60005=
0049010270999992014011708004+69650+018900FM-12+002099999V020999999999999999999999999999+99999+99999999999REMSYN04001027 26/// ///// 11055 21140 333 60005=
0049010270999992014011709004+69650+018900FM-12+002099999V020999999999999999999999999999+99999+99999999999REMSYN04001027 26/// ///// 11052 21139 333 60005=
0049010270999992014011710004+69650+018900FM-12+002099999V020999999999999999999999999999+99999+99999999999REMSYN04001027 26/// ///// 11054 21136 333 60005=
0049010270999992014011711004+69650+018900FM-12+002099999V020999999999999999999999999999+99999+99999999999REMSYN04001027 26/// ///// 11054 21137 333 60005=
0059010270999992014011712004+69650+018900FM-12+002099999V0209999C999999999999N999999999-00521-01331999999ADDAA106000091REMSYN03601027 16/// ///// 11052 21133 60001=
0049010270999992014011713004+69650+018900FM-12+002099999V020999999999999999999999999999+99999+99999999999REMSYN04001027 26/// ///// 11049 21126 333 60005=
0049010270999992014011714004+69650+018900FM-12+002099999V020999999999999999999999999999+99999+99999999999REMSYN04001027 26/// ///// 11050 21122 333 60005=
0049010270999992014011715004+69650+018900FM-12+002099999V020999999999999999999999999999+99999+99999999999REMSYN04001027 26/// ///// 11052 21126 333 60005=
0049010270999992014011716004+69650+018900FM-12+002099999V020999999999999999999999999999+99999+99999999999REMSYN04001027 26/// ///// 11052 21124 333 60005=
0049010270999992014011717004+69650+018900FM-12+002099999V020999999999999999999999999999+99999+99999999999REMSYN04001027 26/// ///// 11054 21119 333 60005=
0082010270999992014011718004+69650+018900FM-12+002099999V0209999C999999999999N999999999-00531-01191999999ADDAA112000091KA1120M-00471REMSYN04601027 16/// ///// 11053 21119 60002 333 11047=
0049010270999992014011719004+69650+018900FM-12+002099999V020999999999999999999999999999+99999+99999999999REMSYN04001027 26/// ///// 11053 21119 333 60005=
0049010270999992014011720004+69650+018900FM-12+002099999V020999999999999999999999999999+99999+99999999999REMSYN04001027 26/// ///// 11056 21115 333 60005=
0049010270999992014011721004+69650+018900FM-12+002099999V020999999999999999999999999999+99999+99999999999REMSYN04001027 26/// ///// 11059 21115 333 60005=
0049010270999992014011722004+69650+018900FM-12+002099999V020999999999999999999999999999+99999+99999999999REMSYN04001027 26/// ///// 11060 21106 333 60005=
0049010270999992014011723004+69650+018900FM-12+002099999V020999999999999999999999999999+99999+99999999999REMSYN04001027 26/// ///// 11063 21116 333 60005=
0059010270999992014011800004+69650+018900FM-12+002099999V0209999C999999999999N999999999-00641-01121999999ADDAA106000091REMSYN03601027 16/// ///// 11064 21112 60001=
0049010270999992014011801004+69650+018900FM-12+002099999V020999999999999999999999999999+99999+99999999999REMSYN04001027 26/// ///// 11074 21114 333 60005=
0049010270999992014011802004+69650+018900FM-12+002099999V020999999999999999999999999999+99999+99999999999REMSYN04001027 26/// ///// 11085 21120 333 60005=
0049010270999992014011803004+69650+018900FM-12+002099999V020999999999999999999999999999+99999+99999999999REMSYN04001027 26/// ///// 11091 21124 333 60005=
0049010270999992014011804004+69650+018900FM-12+002099999V020999999999999999999999999999+99999+99999999999REMSYN04001027 26/// ///// 11090 21123 333 60005=
0049010270999992014011805004+69650+018900FM-12+002099999V020999999999999999999999999999+99999+99999999999REMSYN04001027 26/// ///// 11093 21121 333 60005=
0099010270999992014011806004+69650+018900FM-12+002099999V0209999C999999999999N999999999-00941-01191999999ADDAA112000091AA224000091KA1240N-00951REMSYN05201027 16/// ///// 11094 21119 60002 333 21095 70000=
0049010270999992014011807004+69650+018900FM-12+002099999V020999999999999999999999999999+99999+99999999999REMSYN04001027 26/// ///// 11091 21117 333 60005=
0049010270999992014011808004+69650+018900FM-12+002099999V020999999999999999999999999999+99999+99999999999REMSYN04001027 26/// ///// 11091 21118 333 60005=
0049010270999992014011809004+69650+018900FM-12+002099999V020999999999999999999999999999+99999+99999999999REMSYN04001027 26/// ///// 11089 21120 333 60005=
0049010270999992014011810004+69650+018900FM-12+002099999V020999999999999999999999999999+99999+99999999999REMSYN04001027 26/// ///// 11087 21117 333 60005=
0049010270999992014011811004+69650+018900FM-12+002099999V020999999999999999999999999999+99999+99999999999REMSYN04001027 26/// ///// 11088 21123 333 60005=
0059010270999992014011812004+69650+018900FM-12+002099999V0209999C999999999999N999999999-00901-01191999999ADDAA106000091REMSYN03601027 16/// ///// 11090 21119 60001=
0049010270999992014011813004+69650+018900FM-12+002099999V020999999999999999999999999999+99999+99999999999REMSYN04001027 26/// ///// 11086 21116 333 60005=
0049010270999992014011814004+69650+018900FM-12+002099999V020999999999999999999999999999+99999+99999999999REMSYN04001027 26/// ///// 11088 21120 333 60005=
0049010270999992014011815004+69650+018900FM-12+002099999V020999999999999999999999999999+99999+99999999999REMSYN04001027 26/// ///// 11096 21125 333 60005=
0049010270999992014011816004+69650+018900FM-12+002099999V020999999999999999999999999999+99999+99999999999REMSYN04001027 26/// ///// 11093 21125 333 60005=
0049010270999992014011817004+69650+018900FM-12+002099999V020999999999999999999999999999+99999+99999999999REMSYN04001027 26/// ///// 11090 21126 333 60005=
0082010270999992014011818004+69650+018900FM-12+002099999V0209999C999999999999N999999999-00941-01241999999ADDAA112000091KA1120M-00831REMSYN04601027 16/// ///// 11094 21124 60002 333 11083=
0049010270999992014011819004+69650+018900FM-12+002099999V020999999999999999999999999999+99999+99999999999REMSYN04001027 26/// ///// 11096 21123 333 60005=
0049010270999992014011820004+69650+018900FM-12+002099999V020999999999999999999999999999+99999+99999999999REMSYN04001027 26/// ///// 11093 21118 333 60005=
0049010270999992014011821004+69650+018900FM-12+002099999V020999999999999999999999999999+99999+99999999999REMSYN04001027 26/// ///// 11098 21125 333 60005=
0049010270999992014011822004+69650+018900FM-12+002099999V020999999999999999999999999999+99999+99999999999REMSYN04001027 26/// ///// 11095 21119 333 60005=
0049010270999992014011823004+69650+018900FM-12+002099999V020999999999999999999999999999+99999+99999999999REMSYN04001027 26/// ///// 11096 21121 333 60005=
0059010270999992014011900004+69650+018900FM-12+002099999V0209999C999999999999N999999999-00961-01241999999ADDAA106000091REMSYN03601027 16/// ///// 11096 21124 60001=
0049010270999992014011901004+69650+018900FM-12+002099999V020999999999999999999999999999+99999+99999999999REMSYN04001027 26/// ///// 11089 21117 333 60005=
0049010270999992014011902004+69650+018900FM-12+002099999V020999999999999999999999999999+99999+99999999999REMSYN04001027 26/// ///// 11087 21119 333 60005=
0049010270999992014011903004+69650+018900FM-12+002099999V020999999999999999999999999999+99999+99999999999REMSYN04001027 26/// ///// 11084 21116 333 60005=
0049010270999992014011904004+69650+018900FM-12+002099999V020999999999999999999999999999+99999+99999999999REMSYN04001027 26/// ///// 11090 21119 333 60005=
0049010270999992014011905004+69650+018900FM-12+002099999V020999999999999999999999999999+99999+99999999999REMSYN04001027 26/// ///// 11084 21116 333 60005=
0099010270999992014011906004+69650+018900FM-12+002099999V0209999C999999999999N999999999-00941-01251999999ADDAA112000091AA224000091KA1240N-00991REMSYN05201027 16/// ///// 11094 21125 60002 333 21099 70000=
0049010270999992014011907004+69650+018900FM-12+002099999V020999999999999999999999999999+99999+99999999999REMSYN04001027 26/// ///// 11102 21130 333 60005=
0049010270999992014011908004+69650+018900FM-12+002099999V020999999999999999999999999999+99999+99999999999REMSYN04001027 26/// ///// 11096 21123 333 60005=
0049010270999992014011909004+69650+018900FM-12+002099999V020999999999999999999999999999+99999+99999999999REMSYN04001027 26/// ///// 11097 21121 333 60005=
0049010270999992014011910004+69650+018900FM-12+002099999V020999999999999999999999999999+99999+99999999999REMSYN04001027 26/// ///// 11097 21121 333 60005=
0049010270999992014011911004+69650+018900FM-12+002099999V020999999999999999999999999999+99999+99999999999REMSYN04001027 26/// ///// 11086 21106 333 60005=
0059010270999992014011912004+69650+018900FM-12+002099999V0209999C999999999999N999999999-00981-01191999999ADDAA106000091REMSYN03601027 16/// ///// 11098 21119 60001=
0049010270999992014011913004+69650+018900FM-12+002099999V020999999999999999999999999999+99999+99999999999REMSYN04001027 26/// ///// 11096 21119 333 60005=
0049010270999992014011914004+69650+018900FM-12+002099999V020999999999999999999999999999+99999+99999999999REMSYN04001027 26/// ///// 11086 21105 333 60005=
0049010270999992014011915004+69650+018900FM-12+002099999V020999999999999999999999999999+99999+99999999999REMSYN04001027 26/// ///// 11084 21108 333 60005=
0049010270999992014011916004+69650+018900FM-12+002099999V020999999999999999999999999999+99999+99999999999REMSYN04001027 26/// ///// 11084 21107 333 60005=
0049010270999992014011917004+69650+018900FM-12+002099999V020999999999999999999999999999+99999+99999999999REMSYN04001027 26/// ///// 11090 21111 333 60005=
0082010270999992014011918004+69650+018900FM-12+002099999V0209999C999999999999N999999999-00911-01131999999ADDAA112000091KA1120M-00841REMSYN04601027 16/// ///// 11091 21113 60002 333 11084=
0049010270999992014011919004+69650+018900FM-12+002099999V020999999999999999999999999999+99999+99999999999REMSYN04001027 26/// ///// 11089 21110 333 60005=
0049010270999992014011920004+69650+018900FM-12+002099999V020999999999999999999999999999+99999+99999999999REMSYN04001027 26/// ///// 11088 21112 333 60005=
0049010270999992014011921004+69650+018900FM-12+002099999V020999999999999999999999999999+99999+99999999999REMSYN04001027 26/// ///// 11094 21116 333 60005=
0049010270999992014011922004+69650+018900FM-12+002099999V020999999999999999999999999999+99999+99999999999REMSYN04001027 26/// ///// 11092 21113 333 60005=
0049010270999992014011923004+69650+018900FM-12+002099999V020999999999999999999999999999+99999+99999999999REMSYN04001027 26/// ///// 11088 21111 333 60005=
0059010270999992014012000004+69650+018900FM-12+002099999V0209999C999999999999N999999999-00961-01201999999ADDAA106000091REMSYN03601027 16/// ///// 11096 21120 60001=
0049010270999992014012001004+69650+018900FM-12+002099999V020999999999999999999999999999+99999+99999999999REMSYN04001027 26/// ///// 11091 21111 333 60005=
0049010270999992014012002004+69650+018900FM-12+002099999V020999999999999999999999999999+99999+99999999999REMSYN04001027 26/// ///// 11083 21104 333 60005=
0049010270999992014012003004+69650+018900FM-12+002099999V020999999999999999999999999999+99999+99999999999REMSYN04001027 26/// ///// 11080 21102 333 60005=
0049010270999992014012004004+69650+018900FM-12+002099999V020999999999999999999999999999+99999+99999999999REMSYN04001027 26/// ///// 11074 21097 333 60005=
0049010270999992014012005004+69650+018900FM-12+002099999V020999999999999999999999999999+99999+99999999999REMSYN04001027 26/// ///// 11062 21089 333 60005=
0099010270999992014012006004+69650+018900FM-12+002099999V0209999C999999999999N999999999-00601-00921999999ADDAA112000091AA224000091KA1240N-00981REMSYN05201027 16/// ///// 11060 21092 60002 333 21098 70000=
0049010270999992014012007004+69650+018900FM-12+002099999V020999999999999999999999999999+99999+99999999999REMSYN04001027 26/// ///// 11059 21091 333 60005=
0049010270999992014012008004+69650+018900FM-12+002099999V020999999999999999999999999999+99999+99999999999REMSYN04001027 26/// ///// 11057 21088 333 60005=
0049010270999992014012009004+69650+018900FM-12+002099999V020999999999999999999999999999+99999+99999999999REMSYN04001027 26/// ///// 11055 21093 333 60005=
0049010270999992014012010004+69650+018900FM-12+002099999V020999999999999999999999999999+99999+99999999999REMSYN04001027 26/// ///// 11052 21087 333 60005=
0049010270999992014012011004+69650+018900FM-12+002099999V020999999999999999999999999999+99999+99999999999REMSYN04001027 26/// ///// 11052 21085 333 60005=
0059010270999992014012012004+69650+018900FM-12+002099999V0209999C999999999999N999999999-00611-00911999999ADDAA106000091REMSYN03601027 16/// ///// 11061 21091 60001=
0049010270999992014012013004+69650+018900FM-12+002099999V020999999999999999999999999999+99999+99999999999REMSYN04001027 26/// ///// 11064 21089 333 60005=
0049010270999992014012014004+69650+018900FM-12+002099999V020999999999999999999999999999+99999+99999999999REMSYN04001027 26/// ///// 11073 21092 333 60005=
0049010270999992014012015004+69650+018900FM-12+002099999V020999999999999999999999999999+99999+99999999999REMSYN04001027 26/// ///// 11077 21094 333 60005=
0049010270999992014012016004+69650+018900FM-12+002099999V020999999999999999999999999999+99999+99999999999REMSYN04001027 26/// ///// 11080 21096 333 60005=
0049010270999992014012017004+69650+018900FM-12+002099999V020999999999999999999999999999+99999+99999999999REMSYN04001027 26/// ///// 11078 21094 333 60005=
0082010270999992014012018004+69650+018900FM-12+002099999V0209999C999999999999N999999999-00731-00881999999ADDAA112000091KA1120M-00511REMSYN04601027 16/// ///// 11073 21088 60002 333 11051=
0049010270999992014012019004+69650+018900FM-12+002099999V020999999999999999999999999999+99999+99999999999REMSYN04001027 26/// ///// 11076 21088 333 60005=
0049010270999992014012020004+69650+018900FM-12+002099999V020999999999999999999999999999+99999+99999999999REMSYN04001027 26/// ///// 11080 21094 333 60005=
0049010270999992014012021004+69650+018900FM-12+002099999V020999999999999999999999999999+99999+99999999999REMSYN04001027 26/// ///// 11083 21097 333 60005=
0049010270999992014012022004+69650+018900FM-12+002099999V020999999999999999999999999999+99999+99999999999REMSYN04001027 26/// ///// 11083 21097 333 60005=
0049010270999992014012023004+69650+018900FM-12+002099999V020999999999999999999999999999+99999+99999999999REMSYN04001027 26/// ///// 11086 21101 333 60005=
0059010270999992014012100004+69650+018900FM-12+002099999V0209999C999999999999N999999999-00831-00981999999ADDAA106000091REMSYN03601027 16/// ///// 11083 21098 60001=
0049010270999992014012101004+69650+018900FM-12+002099999V020999999999999999999999999999+99999+99999999999REMSYN04001027 26/// ///// 11082 21096 333 60005=
0049010270999992014012102004+69650+018900FM-12+002099999V020999999999999999999999999999+99999+99999999999REMSYN04001027 26/// ///// 11078 21091 333 60005=
0049010270999992014012103004+69650+018900FM-12+002099999V020999999999999999999999999999+99999+99999999999REMSYN04001027 26/// ///// 11073 21084 333 60005=
0049010270999992014012104004+69650+018900FM-12+002099999V020999999999999999999999999999+99999+99999999999REMSYN04001027 26/// ///// 11077 21089 333 60005=
0049010270999992014012105004+69650+018900FM-12+002099999V020999999999999999999999999999+99999+99999999999REMSYN04001027 26/// ///// 11076 21091 333 60005=
0099010270999992014012106004+69650+018900FM-12+002099999V0209999C999999999999N999999999-00731-00891999999ADDAA112000091AA224000091KA1240N-00861REMSYN05201027 16/// ///// 11073 21089 60002 333 21086 70000=
0049010270999992014012107004+69650+018900FM-12+002099999V020999999999999999999999999999+99999+99999999999REMSYN04001027 26/// ///// 11074 21091 333 60005=
0049010270999992014012108004+69650+018900FM-12+002099999V020999999999999999999999999999+99999+99999999999REMSYN04001027 26/// ///// 11067 21086 333 60005=
0049010270999992014012109004+69650+018900FM-12+002099999V020999999999999999999999999999+99999+99999999999REMSYN04001027 26/// ///// 11066 21089 333 60005=
0049010270999992014012110004+69650+018900FM-12+002099999V020999999999999999999999999999+99999+99999999999REMSYN04001027 26/// ///// 11062 21098 333 60005=
0049010270999992014012111004+69650+018900FM-12+002099999V020999999999999999999999999999+99999+99999999999REMSYN04001027 26/// ///// 11065 21105 333 60005=
0059010270999992014012112004+69650+018900FM-12+002099999V0209999C999999999999N999999999-00621-00961999999ADDAA106000091REMSYN03601027 16/// ///// 11062 21096 60001=
0049010270999992014012113004+69650+018900FM-12+002099999V020999999999999999999999999999+99999+99999999999REMSYN04001027 26/// ///// 11064 21099 333 60005=
0049010270999992014012114004+69650+018900FM-12+002099999V020999999999999999999999999999+99999+99999999999REMSYN04001027 26/// ///// 11051 21099 333 60005=
0049010270999992014012115004+69650+018900FM-12+002099999V020999999999999999999999999999+99999+99999999999REMSYN04001027 26/// ///// 11058 21098 333 60005=
0049010270999992014012116004+69650+018900FM-12+002099999V020999999999999999999999999999+99999+99999999999REMSYN04001027 26/// ///// 11057 21084 333 60005=
0049010270999992014012117004+69650+018900FM-12+002099999V020999999999999999999999999999+99999+99999999999REMSYN04001027 26/// ///// 11039 21080 333 60005=
0082010270999992014012118004+69650+018900FM-12+002099999V0209999C999999999999N999999999-00351-00971999999ADDAA112000091KA1120M-00341REMSYN04601027 16/// ///// 11035 21097 60002 333 11034=
0049010270999992014012119004+69650+018900FM-12+002099999V020999999999999999999999999999+99999+99999999999REMSYN04001027 26/// ///// 11022 21092 333 60005=
0049010270999992014012120004+69650+018900FM-12+002099999V020999999999999999999999999999+99999+99999999999REMSYN04001027 26/// ///// 11025 21096 333 60005=
0049010270999992014012121004+69650+018900FM-12+002099999V020999999999999999999999999999+99999+99999999999REMSYN04001027 26/// ///// 11031 21089 333 60005=
0049010270999992014012122004+69650+018900FM-12+002099999V020999999999999999999999999999+99999+99999999999REMSYN04001027 26/// ///// 11027 21085 333 60005=
0049010270999992014012123004+69650+018900FM-12+002099999V020999999999999999999999999999+99999+99999999999REMSYN04001027 26/// ///// 11034 21086 333 60005=
0059010270999992014012200004+69650+018900FM-12+002099999V0209999C999999999999N999999999-00371-00871999999ADDAA106000091REMSYN03601027 16/// ///// 11037 21087 60001=
0049010270999992014012201004+69650+018900FM-12+002099999V020999999999999999999999999999+99999+99999999999REMSYN04001027 26/// ///// 11039 21093 333 60005=
0049010270999992014012202004+69650+018900FM-12+002099999V020999999999999999999999999999+99999+99999999999REMSYN04001027 26/// ///// 11040 21096 333 60005=
0049010270999992014012203004+69650+018900FM-12+002099999V020999999999999999999999999999+99999+99999999999REMSYN04001027 26/// ///// 11040 21088 333 60005=
0049010270999992014012204004+69650+018900FM-12+002099999V020999999999999999999999999999+99999+99999999999REMSYN04001027 26/// ///// 11040 21089 333 60005=
0049010270999992014012205004+69650+018900FM-12+002099999V020999999999999999999999999999+99999+99999999999REMSYN04001027 26/// ///// 11045 21087 333 60005=
0099010270999992014012206004+69650+018900FM-12+002099999V0209999C999999999999N999999999-00501-00931999999ADDAA112000091AA224000091KA1240N-00511REMSYN05201027 16/// ///// 11050 21093 60002 333 21051 70000=
0049010270999992014012207004+69650+018900FM-12+002099999V020999999999999999999999999999+99999+99999999999REMSYN04001027 26/// ///// 11053 21090 333 60005=
0049010270999992014012208004+69650+018900FM-12+002099999V020999999999999999999999999999+99999+99999999999REMSYN04001027 26/// ///// 11060 21093 333 60005=
0049010270999992014012209004+69650+018900FM-12+002099999V020999999999999999999999999999+99999+99999999999REMSYN04001027 26/// ///// 11057 21098 333 60005=
0049010270999992014012210004+69650+018900FM-12+002099999V020999999999999999999999999999+99999+99999999999REMSYN04001027 26/// ///// 11061 21094 333 60005=
0049010270999992014012211004+69650+018900FM-12+002099999V020999999999999999999999999999+99999+99999999999REMSYN04001027 26/// ///// 11061 21095 333 60005=
0059010270999992014012212004+69650+018900FM-12+002099999V0209999C999999999999N999999999-00641-00971999999ADDAA106000091REMSYN03601027 16/// ///// 11064 21097 60001=
0049010270999992014012213004+69650+018900FM-12+002099999V020999999999999999999999999999+99999+99999999999REMSYN04001027 26/// ///// 11066 21092 333 60005=
0049010270999992014012214004+69650+018900FM-12+002099999V020999999999999999999999999999+99999+99999999999REMSYN04001027 26/// ///// 11068 21093 333 60005=
0049010270999992014012215004+69650+018900FM-12+002099999V020999999999999999999999999999+99999+99999999999REMSYN04001027 26/// ///// 11069 21091 333 60005=
0049010270999992014012216004+69650+018900FM-12+002099999V020999999999999999999999999999+99999+99999999999REMSYN04001027 26/// ///// 11073 21095 333 60005=
0049010270999992014012217004+69650+018900FM-12+002099999V020999999999999999999999999999+99999+99999999999REMSYN04001027 26/// ///// 11073 21092 333 60005=
0082010270999992014012218004+69650+018900FM-12+002099999V0209999C999999999999N999999999-00751-00931999999ADDAA112000091KA1120M-00441REMSYN04601027 16/// ///// 11075 21093 60002 333 11044=
0049010270999992014012219004+69650+018900FM-12+002099999V020999999999999999999999999999+99999+99999999999REMSYN04001027 26/// ///// 11081 21098 333 60005=
0049010270999992014012220004+69650+018900FM-12+002099999V020999999999999999999999999999+99999+99999999999REMSYN04001027 26/// ///// 11085 21101 333 60005=
0049010270999992014012221004+69650+018900FM-12+002099999V020999999999999999999999999999+99999+99999999999REMSYN04001027 26/// ///// 11078 21093 333 60005=
0049010270999992014012222004+69650+018900FM-12+002099999V020999999999999999999999999999+99999+99999999999REMSYN04001027 26/// ///// 11086 21104 333 60005=
0049010270999992014012223004+69650+018900FM-12+002099999V020999999999999999999999999999+99999+99999999999REMSYN04001027 26/// ///// 11078 21093 333 60005=
0059010270999992014012300004+69650+018900FM-12+002099999V0209999C999999999999N999999999-00861-01011999999ADDAA106000091REMSYN03601027 16/// ///// 11086 21101 60001=
0049010270999992014012301004+69650+018900FM-12+002099999V020999999999999999999999999999+99999+99999999999REMSYN04001027 26/// ///// 11087 21103 333 60005=
0049010270999992014012302004+69650+018900FM-12+002099999V020999999999999999999999999999+99999+99999999999REMSYN04001027 26/// ///// 11092 21110 333 60005=
0049010270999992014012303004+69650+018900FM-12+002099999V020999999999999999999999999999+99999+99999999999REMSYN04001027 26/// ///// 11086 21102 333 60005=
0049010270999992014012304004+69650+018900FM-12+002099999V020999999999999999999999999999+99999+99999999999REMSYN04001027 26/// ///// 11088 21103 333 60005=
0049010270999992014012305004+69650+018900FM-12+002099999V020999999999999999999999999999+99999+99999999999REMSYN04001027 26/// ///// 11091 21108 333 60005=
0099010270999992014012306004+69650+018900FM-12+002099999V0209999C999999999999N999999999-00901-01061999999ADDAA112000091AA224000091KA1240N-00941REMSYN05201027 16/// ///// 11090 21106 60002 333 21094 70000=
0049010270999992014012307004+69650+018900FM-12+002099999V020999999999999999999999999999+99999+99999999999REMSYN04001027 26/// ///// 11090 21108 333 60005=
0049010270999992014012308004+69650+018900FM-12+002099999V020999999999999999999999999999+99999+99999999999REMSYN04001027 26/// ///// 11088 21107 333 60005=
0049010270999992014012309004+69650+018900FM-12+002099999V020999999999999999999999999999+99999+99999999999REMSYN04001027 26/// ///// 11088 21107 333 60005=
0049010270999992014012310004+69650+018900FM-12+002099999V020999999999999999999999999999+99999+99999999999REMSYN04001027 26/// ///// 11088 21110 333 60005=
0049010270999992014012311004+69650+018900FM-12+002099999V020999999999999999999999999999+99999+99999999999REMSYN04001027 26/// ///// 11090 21111 333 60005=
0059010270999992014012312004+69650+018900FM-12+002099999V0209999C999999999999N999999999-00901-01101999999ADDAA106000091REMSYN03601027 16/// ///// 11090 21110 60001=
0049010270999992014012313004+69650+018900FM-12+002099999V020999999999999999999999999999+99999+99999999999REMSYN04001027 26/// ///// 11085 21106 333 60005=
0049010270999992014012314004+69650+018900FM-12+002099999V020999999999999999999999999999+99999+99999999999REMSYN04001027 26/// ///// 11082 21104 333 60005=
0049010270999992014012315004+69650+018900FM-12+002099999V020999999999999999999999999999+99999+99999999999REMSYN04001027 26/// ///// 11082 21104 333 60005=
0049010270999992014012316004+69650+018900FM-12+002099999V020999999999999999999999999999+99999+99999999999REMSYN04001027 26/// ///// 11080 21102 333 60005=
0049010270999992014012317004+69650+018900FM-12+002099999V020999999999999999999999999999+99999+99999999999REMSYN04001027 26/// ///// 11082 21105 333 60005=
0082010270999992014012318004+69650+018900FM-12+002099999V0209999C999999999999N999999999-00821-01091999999ADDAA112000091KA1120M-00741REMSYN04601027 16/// ///// 11082 21109 60002 333 11074=
0049010270999992014012319004+69650+018900FM-12+002099999V020999999999999999999999999999+99999+99999999999REMSYN04001027 26/// ///// 11083 21104 333 60005=
0049010270999992014012320004+69650+018900FM-12+002099999V020999999999999999999999999999+99999+99999999999REMSYN04001027 26/// ///// 11090 21111 333 60005=
0049010270999992014012321004+69650+018900FM-12+002099999V020999999999999999999999999999+99999+99999999999REMSYN04001027 26/// ///// 11086 21106 333 60005=
0049010270999992014012322004+69650+018900FM-12+002099999V020999999999999999999999999999+99999+99999999999REMSYN04001027 26/// ///// 11085 21104 333 60005=
0049010270999992014012323004+69650+018900FM-12+002099999V020999999999999999999999999999+99999+99999999999REMSYN04001027 26/// ///// 11089 21108 333 60005=
0059010270999992014012400004+69650+018900FM-12+002099999V0209999C999999999999N999999999-00871-01061999999ADDAA106000091REMSYN03601027 16/// ///// 11087 21106 60001=
0049010270999992014012401004+69650+018900FM-12+002099999V020999999999999999999999999999+99999+99999999999REMSYN04001027 26/// ///// 11086 21103 333 60005=
0049010270999992014012402004+69650+018900FM-12+002099999V020999999999999999999999999999+99999+99999999999REMSYN04001027 26/// ///// 11088 21105 333 60005=
0049010270999992014012403004+69650+018900FM-12+002099999V020999999999999999999999999999+99999+99999999999REMSYN04001027 26/// ///// 11089 21107 333 60005=
0049010270999992014012404004+69650+018900FM-12+002099999V020999999999999999999999999999+99999+99999999999REMSYN04001027 26/// ///// 11094 21113 333 60005=
0049010270999992014012405004+69650+018900FM-12+002099999V020999999999999999999999999999+99999+99999999999REMSYN04001027 26/// ///// 11089 21106 333 60005=
0099010270999992014012406004+69650+018900FM-12+002099999V0209999C999999999999N999999999-00921-01111999999ADDAA112000091AA224000091KA1240N-00951REMSYN05201027 16/// ///// 11092 21111 60002 333 21095 70000=
0049010270999992014012407004+69650+018900FM-12+002099999V020999999999999999999999999999+99999+99999999999REMSYN04001027 26/// ///// 11089 21108 333 60005=
0049010270999992014012408004+69650+018900FM-12+002099999V020999999999999999999999999999+99999+99999999999REMSYN04001027 26/// ///// 11095 21113 333 60005=
0049010270999992014012409004+69650+018900FM-12+002099999V020999999999999999999999999999+99999+99999999999REMSYN04001027 26/// ///// 11095 21113 333 60005=
0049010270999992014012410004+69650+018900FM-12+002099999V020999999999999999999999999999+99999+99999999999REMSYN04001027 26/// ///// 11089 21107 333 60005=
0049010270999992014012411004+69650+018900FM-12+002099999V020999999999999999999999999999+99999+99999999999REMSYN04001027 26/// ///// 11089 21110 333 60005=
0059010270999992014012412004+69650+018900FM-12+002099999V0209999C999999999999N999999999-00841-01041999999ADDAA106000091REMSYN03601027 16/// ///// 11084 21104 60001=
0049010270999992014012413004+69650+018900FM-12+002099999V020999999999999999999999999999+99999+99999999999REMSYN04001027 26/// ///// 11087 21108 333 60005=
0049010270999992014012414004+69650+018900FM-12+002099999V020999999999999999999999999999+99999+99999999999REMSYN04001027 26/// ///// 11085 21107 333 60005=
0049010270999992014012415004+69650+018900FM-12+002099999V020999999999999999999999999999+99999+99999999999REMSYN04001027 26/// ///// 11090 21115 333 60005=
0049010270999992014012416004+69650+018900FM-12+002099999V020999999999999999999999999999+99999+99999999999REMSYN04001027 26/// ///// 11088 21111 333 60005=
0049010270999992014012417004+69650+018900FM-12+002099999V020999999999999999999999999999+99999+99999999999REMSYN04001027 26/// ///// 11087 21110 333 60005=
0082010270999992014012418004+69650+018900FM-12+002099999V0209999C999999999999N999999999-00841-01081999999ADDAA112000091KA1120M-00781REMSYN04601027 16/// ///// 11084 21108 60002 333 11078=
0049010270999992014012419004+69650+018900FM-12+002099999V020999999999999999999999999999+99999+99999999999REMSYN04001027 26/// ///// 11083 21105 333 60005=
0049010270999992014012420004+69650+018900FM-12+002099999V020999999999999999999999999999+99999+99999999999REMSYN04001027 26/// ///// 11085 21109 333 60005=
0049010270999992014012421004+69650+018900FM-12+002099999V020999999999999999999999999999+99999+99999999999REMSYN04001027 26/// ///// 11084 21109 333 60005=
0049010270999992014012422004+69650+018900FM-12+002099999V020999999999999999999999999999+99999+99999999999REMSYN04001027 26/// ///// 11081 21104 333 60005=
0049010270999992014012423004+69650+018900FM-12+002099999V020999999999999999999999999999+99999+99999999999REMSYN04001027 26/// ///// 11084 21109 333 60005=
0059010270999992014012500004+69650+018900FM-12+002099999V0209999C999999999999N999999999-00861-01101999999ADDAA106000091REMSYN03601027 16/// ///// 11086 21110 60001=
0049010270999992014012501004+69650+018900FM-12+002099999V020999999999999999999999999999+99999+99999999999REMSYN04001027 26/// ///// 11086 21107 333 60005=
0049010270999992014012502004+69650+018900FM-12+002099999V020999999999999999999999999999+99999+99999999999REMSYN04001027 26/// ///// 11088 21111 333 60005=
0049010270999992014012503004+69650+018900FM-12+002099999V020999999999999999999999999999+99999+99999999999REMSYN04001027 26/// ///// 11089 21111 333 60005=
0049010270999992014012504004+69650+018900FM-12+002099999V020999999999999999999999999999+99999+99999999999REMSYN04001027 26/// ///// 11085 21103 333 60005=
0049010270999992014012505004+69650+018900FM-12+002099999V020999999999999999999999999999+99999+99999999999REMSYN04001027 26/// ///// 11086 21109 333 60005=
0099010270999992014012506004+69650+018900FM-12+002099999V0209999C999999999999N999999999-00861-01081999999ADDAA112000091AA224000091KA1240N-00911REMSYN05201027 16/// ///// 11086 21108 60002 333 21091 70000=
0049010270999992014012507004+69650+018900FM-12+002099999V020999999999999999999999999999+99999+99999999999REMSYN04001027 26/// ///// 11085 21108 333 60005=
0049010270999992014012508004+69650+018900FM-12+002099999V020999999999999999999999999999+99999+99999999999REMSYN04001027 26/// ///// 11078 21106 333 60005=
0049010270999992014012509004+69650+018900FM-12+002099999V020999999999999999999999999999+99999+99999999999REMSYN04001027 26/// ///// 11075 21103 333 60005=
0049010270999992014012510004+69650+018900FM-12+002099999V020999999999999999999999999999+99999+99999999999REMSYN04001027 26/// ///// 11067 21097 333 60005=
0049010270999992014012511004+69650+018900FM-12+002099999V020999999999999999999999999999+99999+99999999999REMSYN04001027 26/// ///// 11063 21098 333 60005=
0059010270999992014012512004+69650+018900FM-12+002099999V0209999C999999999999N999999999-00611-00971999999ADDAA106000091REMSYN03601027 16/// ///// 11061 21097 60001=
0049010270999992014012513004+69650+018900FM-12+002099999V020999999999999999999999999999+99999+99999999999REMSYN04001027 26/// ///// 11061 21110 333 60005=
0049010270999992014012514004+69650+018900FM-12+002099999V020999999999999999999999999999+99999+99999999999REMSYN04001027 26/// ///// 11060 21102 333 60005=
0049010270999992014012515004+69650+018900FM-12+002099999V020999999999999999999999999999+99999+99999999999REMSYN04001027 26/// ///// 11064 21109 333 60005=
0049010270999992014012516004+69650+018900FM-12+002099999V020999999999999999999999999999+99999+99999999999REMSYN04001027 26/// ///// 11057 21099 333 60005=
0049010270999992014012517004+69650+018900FM-12+002099999V020999999999999999999999999999+99999+99999999999REMSYN04001027 26/// ///// 11054 21102 333 60005=
0082010270999992014012518004+69650+018900FM-12+002099999V0209999C999999999999N999999999-00561-01061999999ADDAA112000091KA1120M-00531REMSYN04601027 16/// ///// 11056 21106 60002 333 11053=
0049010270999992014012519004+69650+018900FM-12+002099999V020999999999999999999999999999+99999+99999999999REMSYN04001027 26/// ///// 11060 21106 333 60005=
0049010270999992014012520004+69650+018900FM-12+002099999V020999999999999999999999999999+99999+99999999999REMSYN04001027 26/// ///// 11060 21107 333 60005=
0049010270999992014012521004+69650+018900FM-12+002099999V020999999999999999999999999999+99999+99999999999REMSYN04001027 26/// ///// 11059 21105 333 60005=
0049010270999992014012522004+69650+018900FM-12+002099999V020999999999999999999999999999+99999+99999999999REMSYN04001027 26/// ///// 11063 21105 333 60005=
0049010270999992014012523004+69650+018900FM-12+002099999V020999999999999999999999999999+99999+99999999999REMSYN04001027 26/// ///// 11060 21099 333 60005=
0059010270999992014012600004+69650+018900FM-12+002099999V0209999C999999999999N999999999-00651-01051999999ADDAA106000091REMSYN03601027 16/// ///// 11065 21105 60001=
0049010270999992014012601004+69650+018900FM-12+002099999V020999999999999999999999999999+99999+99999999999REMSYN04001027 26/// ///// 11062 21104 333 60005=
0049010270999992014012602004+69650+018900FM-12+002099999V020999999999999999999999999999+99999+99999999999REMSYN04001027 26/// ///// 11059 21101 333 60005=
0049010270999992014012603004+69650+018900FM-12+002099999V020999999999999999999999999999+99999+99999999999REMSYN04001027 26/// ///// 11058 21097 333 60005=
0049010270999992014012604004+69650+018900FM-12+002099999V020999999999999999999999999999+99999+99999999999REMSYN04001027 26/// ///// 11058 21096 333 60005=
0049010270999992014012605004+69650+018900FM-12+002099999V020999999999999999999999999999+99999+99999999999REMSYN04001027 26/// ///// 11061 21096 333 60005=
0099010270999992014012606004+69650+018900FM-12+002099999V0209999C999999999999N999999999-00561-00951999999ADDAA112000091AA224000091KA1240N-00651REMSYN05201027 16/// ///// 11056 21095 60002 333 21065 70000=
0049010270999992014012607004+69650+018900FM-12+002099999V020999999999999999999999999999+99999+99999999999REMSYN04001027 26/// ///// 11052 21089 333 60005=
0049010270999992014012608004+69650+018900FM-12+002099999V020999999999999999999999999999+99999+99999999999REMSYN04001027 26/// ///// 11054 21091 333 60005=
0049010270999992014012609004+69650+018900FM-12+002099999V020999999999999999999999999999+99999+99999999999REMSYN04001027 26/// ///// 11050 21087 333 60005=
0049010270999992014012610004+69650+018900FM-12+002099999V020999999999999999999999999999+99999+99999999999REMSYN04001027 26/// ///// 11048 21083 333 60005=
0049010270999992014012611004+69650+018900FM-12+002099999V020999999999999999999999999999+99999+99999999999REMSYN04001027 26/// ///// 11044 21080 333 60005=
0059010270999992014012612004+69650+018900FM-12+002099999V0209999C999999999999N999999999-00431-00781999999ADDAA106000091REMSYN03601027 16/// ///// 11043 21078 60001=
0049010270999992014012613004+69650+018900FM-12+002099999V020999999999999999999999999999+99999+99999999999REMSYN04001027 26/// ///// 11044 21079 333 60005=
0049010270999992014012614004+69650+018900FM-12+002099999V020999999999999999999999999999+99999+99999999999REMSYN04001027 26/// ///// 11044 21085 333 60005=
0049010270999992014012615004+69650+018900FM-12+002099999V020999999999999999999999999999+99999+99999999999REMSYN04001027 26/// ///// 11041 21080 333 60005=
0049010270999992014012616004+69650+018900FM-12+002099999V020999999999999999999999999999+99999+99999999999REMSYN04001027 26/// ///// 11046 21083 333 60005=
0049010270999992014012617004+69650+018900FM-12+002099999V020999999999999999999999999999+99999+99999999999REMSYN04001027 26/// ///// 11037 21079 333 60005=
0082010270999992014012618004+69650+018900FM-12+002099999V0209999C999999999999N999999999-00361-00851999999ADDAA112000091KA1120M-00321REMSYN04601027 16/// ///// 11036 21085 60002 333 11032=
0049010270999992014012619004+69650+018900FM-12+002099999V020999999999999999999999999999+99999+99999999999REMSYN04001027 26/// ///// 11038 21083 333 60005=
0049010270999992014012620004+69650+018900FM-12+002099999V020999999999999999999999999999+99999+99999999999REMSYN04001027 26/// ///// 11043 21086 333 60005=
0049010270999992014012621004+69650+018900FM-12+002099999V020999999999999999999999999999+99999+99999999999REMSYN04001027 26/// ///// 11051 21094 333 60005=
0049010270999992014012622004+69650+018900FM-12+002099999V020999999999999999999999999999+99999+99999999999REMSYN04001027 26/// ///// 11064 21097 333 60005=
0049010270999992014012623004+69650+018900FM-12+002099999V020999999999999999999999999999+99999+99999999999REMSYN04001027 26/// ///// 11064 21109 333 60005=
0059010270999992014012700004+69650+018900FM-12+002099999V0209999C999999999999N999999999-00671-01151999999ADDAA106000091REMSYN03601027 16/// ///// 11067 21115 60001=
0049010270999992014012701004+69650+018900FM-12+002099999V020999999999999999999999999999+99999+99999999999REMSYN04001027 26/// ///// 11067 21123 333 60005=
0049010270999992014012702004+69650+018900FM-12+002099999V020999999999999999999999999999+99999+99999999999REMSYN04001027 26/// ///// 11064 21127 333 60005=
0049010270999992014012703004+69650+018900FM-12+002099999V020999999999999999999999999999+99999+99999999999REMSYN04001027 26/// ///// 11060 21127 333 60005=
0049010270999992014012704004+69650+018900FM-12+002099999V020999999999999999999999999999+99999+99999999999REMSYN04001027 26/// ///// 11061 21127 333 60005=
0049010270999992014012705004+69650+018900FM-12+002099999V020999999999999999999999999999+99999+99999999999REMSYN04001027 26/// ///// 11062 21123 333 60005=
0099010270999992014012706004+69650+018900FM-12+002099999V0209999C999999999999N999999999-00651-01241999999ADDAA112000091AA224000091KA1240N-00731REMSYN05201027 16/// ///// 11065 21124 60002 333 21073 70000=
0049010270999992014012707004+69650+018900FM-12+002099999V020999999999999999999999999999+99999+99999999999REMSYN04001027 26/// ///// 11068 21125 333 60005=
0049010270999992014012708004+69650+018900FM-12+002099999V020999999999999999999999999999+99999+99999999999REMSYN04001027 26/// ///// 11069 21125 333 60005=
0049010270999992014012709004+69650+018900FM-12+002099999V020999999999999999999999999999+99999+99999999999REMSYN04001027 26/// ///// 11072 21124 333 60005=
0049010270999992014012710004+69650+018900FM-12+002099999V020999999999999999999999999999+99999+99999999999REMSYN04001027 26/// ///// 11072 21123 333 60005=
0049010270999992014012711004+69650+018900FM-12+002099999V020999999999999999999999999999+99999+99999999999REMSYN04001027 26/// ///// 11069 21120 333 60005=
0059010270999992014012712004+69650+018900FM-12+002099999V0209999C999999999999N999999999-00701-01231999999ADDAA106000091REMSYN03601027 16/// ///// 11070 21123 60001=
0049010270999992014012713004+69650+018900FM-12+002099999V020999999999999999999999999999+99999+99999999999REMSYN04001027 26/// ///// 11073 21127 333 60005=
0049010270999992014012714004+69650+018900FM-12+002099999V020999999999999999999999999999+99999+99999999999REMSYN04001027 26/// ///// 11078 21131 333 60005=
0049010270999992014012715004+69650+018900FM-12+002099999V020999999999999999999999999999+99999+99999999999REMSYN04001027 26/// ///// 11073 21131 333 60005=
0049010270999992014012716004+69650+018900FM-12+002099999V020999999999999999999999999999+99999+99999999999REMSYN04001027 26/// ///// 11082 21132 333 60005=
0049010270999992014012717004+69650+018900FM-12+002099999V020999999999999999999999999999+99999+99999999999REMSYN04001027 26/// ///// 11070 21126 333 60005=
0082010270999992014012718004+69650+018900FM-12+002099999V0209999C999999999999N999999999-00691-01241999999ADDAA112000091KA1120M-00651REMSYN04601027 16/// ///// 11069 21124 60002 333 11065=
0049010270999992014012719004+69650+018900FM-12+002099999V020999999999999999999999999999+99999+99999999999REMSYN04001027 26/// ///// 11049 21138 333 60005=
0049010270999992014012720004+69650+018900FM-12+002099999V020999999999999999999999999999+99999+99999999999REMSYN04001027 26/// ///// 11042 21131 333 60005=
0049010270999992014012721004+69650+018900FM-12+002099999V020999999999999999999999999999+99999+99999999999REMSYN04001027 26/// ///// 11045 21136 333 60005=
0049010270999992014012722004+69650+018900FM-12+002099999V020999999999999999999999999999+99999+99999999999REMSYN04001027 26/// ///// 11048 21129 333 60005=
0049010270999992014012723004+69650+018900FM-12+002099999V020999999999999999999999999999+99999+99999999999REMSYN04001027 26/// ///// 11038 21118 333 60005=
0059010270999992014012800004+69650+018900FM-12+002099999V0209999C999999999999N999999999-00341-01261999999ADDAA106000091REMSYN03601027 16/// ///// 11034 21126 60001=
0049010270999992014012801004+69650+018900FM-12+002099999V020999999999999999999999999999+99999+99999999999REMSYN04001027 26/// ///// 11036 21125 333 60005=
0049010270999992014012802004+69650+018900FM-12+002099999V020999999999999999999999999999+99999+99999999999REMSYN04001027 26/// ///// 11033 21118 333 60005=
0049010270999992014012803004+69650+018900FM-12+002099999V020999999999999999999999999999+99999+99999999999REMSYN04001027 26/// ///// 11031 21134 333 60005=
0049010270999992014012804004+69650+018900FM-12+002099999V020999999999999999999999999999+99999+99999999999REMSYN04001027 26/// ///// 11038 21131 333 60005=
0049010270999992014012805004+69650+018900FM-12+002099999V020999999999999999999999999999+99999+99999999999REMSYN04001027 26/// ///// 11039 21126 333 60005=
0099010270999992014012806004+69650+018900FM-12+002099999V0209999C999999999999N999999999-00341-01211999999ADDAA112000091AA224000091KA1240N-00691REMSYN05201027 16/// ///// 11034 21121 60002 333 21069 70000=
0049010270999992014012807004+69650+018900FM-12+002099999V020999999999999999999999999999+99999+99999999999REMSYN04001027 26/// ///// 11031 21118 333 60005=
0049010270999992014012808004+69650+018900FM-12+002099999V020999999999999999999999999999+99999+99999999999REMSYN04001027 26/// ///// 11039 21119 333 60005=
0049010270999992014012809004+69650+018900FM-12+002099999V020999999999999999999999999999+99999+99999999999REMSYN04001027 26/// ///// 11030 21122 333 60005=
0049010270999992014012810004+69650+018900FM-12+002099999V020999999999999999999999999999+99999+99999999999REMSYN04001027 26/// ///// 11031 21114 333 60005=
0049010270999992014012811004+69650+018900FM-12+002099999V020999999999999999999999999999+99999+99999999999REMSYN04001027 26/// ///// 11024 21134 333 60005=
0059010270999992014012812004+69650+018900FM-12+002099999V0209999C999999999999N999999999-00351-01171999999ADDAA106000091REMSYN03601027 16/// ///// 11035 21117 60001=
0049010270999992014012813004+69650+018900FM-12+002099999V020999999999999999999999999999+99999+99999999999REMSYN04001027 26/// ///// 11028 21105 333 60005=
0049010270999992014012814004+69650+018900FM-12+002099999V020999999999999999999999999999+99999+99999999999REMSYN04001027 26/// ///// 11036 21114 333 60005=
