0071010231999992014010100204+64350+007800FM-15+000099999V0202201N011819999999N999999999+00701+00201999999ADDMA1100101999990REMMET044METAR ENDR 010020Z AUTO 22023KT 07/02 Q1001=
0071010231999992014010100504+64350+007800FM-15+000099999V0202201N010319999999N999999999+00701+00201999999ADDMA1100101999990REMMET044METAR ENDR 010050Z AUTO 22020KT 07/02 Q1001=
0071010231999992014010101204+64350+007800FM-15+000099999V0202201N008819999999N999999999+00801+00101999999ADDMA1100101999990REMMET044METAR ENDR 010120Z AUTO 22017KT 08/01 Q1001=
0071010231999992014010101504+64350+007800FM-15+000099999V0202201N007219999999N999999999+00801+00201999999ADDMA1100201999990REMMET044METAR ENDR 010150Z AUTO 22014KT 08/02 Q1002=
0071010231999992014010102204+64350+007800FM-15+000099999V0201801N005719999999N999999999+00701+00201999999ADDMA1100201999990REMMET044METAR ENDR 010220Z AUTO 18011KT 07/02 Q1002=
0071010231999992014010102504+64350+007800FM-15+000099999V0201401N008819999999N999999999+00701+00401999999ADDMA1100101999990REMMET044METAR ENDR 010250Z AUTO 14017KT 07/04 Q1001=
0071010231999992014010103204+64350+007800FM-15+000099999V0201301N009319999999N999999999+00701+00401999999ADDMA1100101999990REMMET044METAR ENDR 010320Z AUTO 13018KT 07/04 Q1001=
0071010231999992014010103504+64350+007800FM-15+000099999V0201201N009319999999N999999999+00701+00301999999ADDMA1100101999990REMMET044METAR ENDR 010350Z AUTO 12018KT 07/03 Q1001=
0071010231999992014010104204+64350+007800FM-15+000099999V0201101N010319999999N999999999+00701+00201999999ADDMA1100001999990REMMET044METAR ENDR 010420Z AUTO 11020KT 07/02 Q1000=
0071010231999992014010104504+64350+007800FM-15+000099999V0201001N010819999999N999999999+00701+00201999999ADDMA1100001999990REMMET044METAR ENDR 010450Z AUTO 10021KT 07/02 Q1000=
0063010231999992014010105204+64350+007800FM-15+000099999V0209999N999999999999N999999999+00701+00101999999ADDMA1100001999990REMMET036METAR ENDR 010520Z AUTO 07/01 Q1000=
0071010231999992014010105504+64350+007800FM-15+000099999V0201101N012919999999N999999999+00601+00101999999ADDMA1099901999990REMMET044METAR ENDR 010550Z AUTO 11025KT 06/01 Q0999=
0071010231999992014010106504+64350+007800FM-15+000099999V0201201N011319999999N999999999+00601+00001999999ADDMA1099901999990REMMET044METAR ENDR 010650Z AUTO 12022KT 06/00 Q0999=
0072010231999992014010107204+64350+007800FM-15+000099999V0201201N010819999999N999999999+00601+00001999999ADDMA1099901999990REMMET045METAR ENDR 010720Z AUTO 12021KT 06/M00 Q0999=
0072010231999992014010107504+64350+007800FM-15+000099999V0201201N010319999999N999999999+00601-00101999999ADDMA1099901999990REMMET045METAR ENDR 010750Z AUTO 12020KT 06/M01 Q0999=
0071010231999992014010108204+64350+007800FM-15+000099999V0201201N009819999999N999999999+00601+00001999999ADDMA1099901999990REMMET044METAR ENDR 010820Z AUTO 12019KT 06/00 Q0999=
0071010231999992014010108504+64350+007800FM-15+000099999V0201101N008219999999N999999999+00601+00001999999ADDMA1099901999990REMMET044METAR ENDR 010850Z AUTO 11016KT 06/00 Q0999=
0071010231999992014010109504+64350+007800FM-15+000099999V0201301N005719999999N999999999+00601+00101999999ADDMA1099901999990REMMET044METAR ENDR 010950Z AUTO 13011KT 06/01 Q0999=
0071010231999992014010110204+64350+007800FM-15+000099999V0201301N005119999999N999999999+00601+00101999999ADDMA1099901999990REMMET044METAR ENDR 011020Z AUTO 13010KT 06/01 Q0999=
0071010231999992014010110504+64350+007800FM-15+000099999V0201401N005719999999N999999999+00701+00001999999ADDMA1099901999990REMMET044METAR ENDR 011050Z AUTO 14011KT 07/00 Q0999=
0071010231999992014010111204+64350+007800FM-15+000099999V0201401N007219999999N999999999+00701+00101999999ADDMA1099801999990REMMET044METAR ENDR 011120Z AUTO 14014KT 07/01 Q0998=
0063010231999992014010111504+64350+007800FM-15+000099999V0209999N999999999999N999999999+00701+00301999999ADDMA1099801999990REMMET036METAR ENDR 011150Z AUTO 07/03 Q0998=
0071010231999992014010112204+64350+007800FM-15+000099999V0201301N006719999999N999999999+00701+00301999999ADDMA1099801999990REMMET044METAR ENDR 011220Z AUTO 13013KT 07/03 Q0998=
0071010231999992014010112504+64350+007800FM-15+000099999V0201401N006219999999N999999999+00801+00301999999ADDMA1099801999990REMMET044METAR ENDR 011250Z AUTO 14012KT 08/03 Q0998=
0071010231999992014010113204+64350+007800FM-15+000099999V0201401N006219999999N999999999+00801+00401999999ADDMA1099801999990REMMET044METAR ENDR 011320Z AUTO 14012KT 08/04 Q0998=
0071010231999992014010113504+64350+007800FM-15+000099999V0201401N006219999999N999999999+00801+00401999999ADDMA1099801999990REMMET044METAR ENDR 011350Z AUTO 14012KT 08/04 Q0998=
0071010231999992014010114204+64350+007800FM-15+000099999V0201601N006219999999N999999999+00801+00401999999ADDMA1099801999990REMMET044METAR ENDR 011420Z AUTO 16012KT 08/04 Q0998=
0071010231999992014010114504+64350+007800FM-15+000099999V0201501N006219999999N999999999+00801+00401999999ADDMA1099701999990REMMET044METAR ENDR 011450Z AUTO 15012KT 08/04 Q0997=
0071010231999992014010115204+64350+007800FM-15+000099999V0201601N006219999999N999999999+00801+00401999999ADDMA1099701999990REMMET044METAR ENDR 011520Z AUTO 16012KT 08/04 Q0997=
0071010231999992014010115504+64350+007800FM-15+000099999V0201701N005719999999N999999999+00801+00401999999ADDMA1099701999990REMMET044METAR ENDR 011550Z AUTO 17011KT 08/04 Q0997=
0071010231999992014010116204+64350+007800FM-15+000099999V0201701N005119999999N999999999+00801+00401999999ADDMA1099701999990REMMET044METAR ENDR 011620Z AUTO 17010KT 08/04 Q0997=
0071010231999992014010116504+64350+007800FM-15+000099999V0201801N004619999999N999999999+00801+00401999999ADDMA1099701999990REMMET044METAR ENDR 011650Z AUTO 18009KT 08/04 Q0997=
0071010231999992014010117204+64350+007800FM-15+000099999V0202101N004619999999N999999999+00801+00401999999ADDMA1099701999990REMMET044METAR ENDR 011720Z AUTO 21009KT 08/04 Q0997=
0071010231999992014010117504+64350+007800FM-15+000099999V0202501N005119999999N999999999+00801+00501999999ADDMA1099701999990REMMET044METAR ENDR 011750Z AUTO 25010KT 08/05 Q0997=
0071010231999992014010118204+64350+007800FM-15+000099999V0202801N006219999999N999999999+00901+00501999999ADDMA1099701999990REMMET044METAR ENDR 011820Z AUTO 28012KT 09/05 Q0997=
0071010231999992014010118504+64350+007800FM-15+000099999V0202901N007219999999N999999999+01001+00601999999ADDMA1099701999990REMMET044METAR ENDR 011850Z AUTO 29014KT 10/06 Q0997=
0071010231999992014010119204+64350+007800FM-15+000099999V0203001N006719999999N999999999+01001+00601999999ADDMA1099701999990REMMET044METAR ENDR 011920Z AUTO 30013KT 10/06 Q0997=
0071010231999992014010119504+64350+007800FM-15+000099999V0202801N007219999999N999999999+01001+00501999999ADDMA1099801999990REMMET044METAR ENDR 011950Z AUTO 28014KT 10/05 Q0998=
0071010231999992014010120204+64350+007800FM-15+000099999V0202901N006219999999N999999999+01001+00501999999ADDMA1099701999990REMMET044METAR ENDR 012020Z AUTO 29012KT 10/05 Q0997=
0071010231999992014010120504+64350+007800FM-15+000099999V0202801N006219999999N999999999+01001+00501999999ADDMA1099801999990REMMET044METAR ENDR 012050Z AUTO 28012KT 10/05 Q0998=
0071010231999992014010121204+64350+007800FM-15+000099999V0202701N007719999999N999999999+00901+00601999999ADDMA1099801999990REMMET044METAR ENDR 012120Z AUTO 27015KT 09/06 Q0998=
0071010231999992014010121504+64350+007800FM-15+000099999V0202401N007719999999N999999999+00701+00401999999ADDMA1099801999990REMMET044METAR ENDR 012150Z AUTO 24015KT 07/04 Q0998=
0071010231999992014010122204+64350+007800FM-15+000099999V0202401N007719999999N999999999+00601+00401999999ADDMA1099801999990REMMET044METAR ENDR 012220Z AUTO 24015KT 06/04 Q0998=
0071010231999992014010122504+64350+007800FM-15+000099999V0202501N005119999999N999999999+00601+00401999999ADDMA1099801999990REMMET044METAR ENDR 012250Z AUTO 25010KT 06/04 Q0998=
0071010231999992014010123204+64350+007800FM-15+000099999V0202601N006219999999N999999999+00701+00501999999ADDMA1099801999990REMMET044METAR ENDR 012320Z AUTO 26012KT 07/05 Q0998=
0071010231999992014010123504+64350+007800FM-15+000099999V0202701N005719999999N999999999+00701+00401999999ADDMA1099801999990REMMET044METAR ENDR 012350Z AUTO 27011KT 07/04 Q0998=
0071010231999992014010200204+64350+007800FM-15+000099999V0202601N004119999999N999999999+00701+00401999999ADDMA1099801999990REMMET044METAR ENDR 020020Z AUTO 26008KT 07/04 Q0998=
0079010231999992014010200504+64350+007800FM-15+000099999V0201901V002119999999N999999999+00601+00301999999ADDMA1099801999990REMMET052METAR ENDR 020050Z AUTO 19004KT 140V230 06/03 Q0998=
0071010231999992014010201204+64350+007800FM-15+000099999V0201901N003119999999N999999999+00601+00401999999ADDMA1099801999990REMMET044METAR ENDR 020120Z AUTO 19006KT 06/04 Q0998=
0071010231999992014010201504+64350+007800FM-15+000099999V0201701N002119999999N999999999+00601+00301999999ADDMA1099801999990REMMET044METAR ENDR 020150Z AUTO 17004KT 06/03 Q0998=
0071010231999992014010202204+64350+007800FM-15+000099999V0201201N002119999999N999999999+00601+00301999999ADDMA1099801999990REMMET044METAR ENDR 020220Z AUTO 12004KT 06/03 Q0998=
0071010231999992014010202504+64350+007800FM-15+000099999V0201301N004619999999N999999999+00601+00401999999ADDMA1099701999990REMMET044METAR ENDR 020250Z AUTO 13009KT 06/04 Q0997=
0071010231999992014010203204+64350+007800FM-15+000099999V0201301N005719999999N999999999+00601+00301999999ADDMA1099701999990REMMET044METAR ENDR 020320Z AUTO 13011KT 06/03 Q0997=
0071010231999992014010203504+64350+007800FM-15+000099999V0201201N006719999999N999999999+00701+00401999999ADDMA1099701999990REMMET044METAR ENDR 020350Z AUTO 12013KT 07/04 Q0997=
0071010231999992014010204204+64350+007800FM-15+000099999V0201201N008819999999N999999999+00601+00401999999ADDMA1099701999990REMMET044METAR ENDR 020420Z AUTO 12017KT 06/04 Q0997=
0071010231999992014010204504+64350+007800FM-15+000099999V0201201N010319999999N999999999+00601+00501999999ADDMA1099601999990REMMET044METAR ENDR 020450Z AUTO 12020KT 06/05 Q0996=
0071010231999992014010205204+64350+007800FM-15+000099999V0201201N010819999999N999999999+00601+00301999999ADDMA1099601999990REMMET044METAR ENDR 020520Z AUTO 12021KT 06/03 Q0996=
0071010231999992014010205504+64350+007800FM-15+000099999V0201101N011319999999N999999999+00601+00201999999ADDMA1099601999990REMMET044METAR ENDR 020550Z AUTO 11022KT 06/02 Q0996=
0071010231999992014010206504+64350+007800FM-15+000099999V0201101N012419999999N999999999+00601+00001999999ADDMA1099501999990REMMET044METAR ENDR 020650Z AUTO 11024KT 06/00 Q0995=
0071010231999992014010207204+64350+007800FM-15+000099999V0201101N012419999999N999999999+00601+00101999999ADDMA1099401999990REMMET044METAR ENDR 020720Z AUTO 11024KT 06/01 Q0994=
0071010231999992014010207504+64350+007800FM-15+000099999V0201201N011819999999N999999999+00601+00001999999ADDMA1099401999990REMMET044METAR ENDR 020750Z AUTO 12023KT 06/00 Q0994=
0071010231999992014010208204+64350+007800FM-15+000099999V0201201N012419999999N999999999+00601+00001999999ADDMA1099401999990REMMET044METAR ENDR 020820Z AUTO 12024KT 06/00 Q0994=
0071010231999992014010208504+64350+007800FM-15+000099999V0201201N012419999999N999999999+00601+00101999999ADDMA1099301999990REMMET044METAR ENDR 020850Z AUTO 12024KT 06/01 Q0993=
0071010231999992014010209504+64350+007800FM-15+000099999V0201301N013419999999N999999999+00701+00001999999ADDMA1099301999990REMMET044METAR ENDR 020950Z AUTO 13026KT 07/00 Q0993=
0071010231999992014010210204+64350+007800FM-15+000099999V0201301N012419999999N999999999+00701+00201999999ADDMA1099301999990REMMET044METAR ENDR 021020Z AUTO 13024KT 07/02 Q0993=
0071010231999992014010210504+64350+007800FM-15+000099999V0201301N013419999999N999999999+00701+00101999999ADDMA1099201999990REMMET044METAR ENDR 021050Z AUTO 13026KT 07/01 Q0992=
0071010231999992014010211204+64350+007800FM-15+000099999V0201401N014919999999N999999999+00701+00101999999ADDMA1099201999990REMMET044METAR ENDR 021120Z AUTO 14029KT 07/01 Q0992=
0071010231999992014010211504+64350+007800FM-15+000099999V0201301N014419999999N999999999+00701+00101999999ADDMA1099101999990REMMET044METAR ENDR 021150Z AUTO 13028KT 07/01 Q0991=
0072010231999992014010212104+64350+007800FM-15+000099999V0201301N013419999999Y999999999+00701+00101999999ADDMA1099101999990REMMET045METAR ENDR 021210Z 13026KT CAVOK 07/01 Q0991=
0071010231999992014010212504+64350+007800FM-15+000099999V0201401N012419999999N999999999+00701+00201999999ADDMA1099101999990REMMET044METAR ENDR 021250Z AUTO 14024KT 07/02 Q0991=
0071010231999992014010213204+64350+007800FM-15+000099999V0201401N012419999999N999999999+00701+00101999999ADDMA1099101999990REMMET044METAR ENDR 021320Z AUTO 14024KT 07/01 Q0991=
0071010231999992014010213504+64350+007800FM-15+000099999V0201301N011819999999N999999999+00701+00201999999ADDMA1099101999990REMMET044METAR ENDR 021350Z AUTO 13023KT 07/02 Q0991=
0071010231999992014010214204+64350+007800FM-15+000099999V0201401N011319999999N999999999+00701+00201999999ADDMA1099001999990REMMET044METAR ENDR 021420Z AUTO 14022KT 07/02 Q0990=
0071010231999992014010214504+64350+007800FM-15+000099999V0201401N011819999999N999999999+00701+00301999999ADDMA1099101999990REMMET044METAR ENDR 021450Z AUTO 14023KT 07/03 Q0991=
0071010231999992014010215204+64350+007800FM-15+000099999V0201301N011319999999N999999999+00701+00201999999ADDMA1099001999990REMMET044METAR ENDR 021520Z AUTO 13022KT 07/02 Q0990=
0071010231999992014010215504+64350+007800FM-15+000099999V0201301N011319999999N999999999+00701+00201999999ADDMA1099001999990REMMET044METAR ENDR 021550Z AUTO 13022KT 07/02 Q0990=
0071010231999992014010216204+64350+007800FM-15+000099999V0201401N010319999999N999999999+00701+00201999999ADDMA1099001999990REMMET044METAR ENDR 021620Z AUTO 14020KT 07/02 Q0990=
0071010231999992014010216504+64350+007800FM-15+000099999V0201401N009819999999N999999999+00701+00201999999ADDMA1099001999990REMMET044METAR ENDR 021650Z AUTO 14019KT 07/02 Q0990=
0071010231999992014010217204+64350+007800FM-15+000099999V0201401N009319999999N999999999+00701+00201999999ADDMA1099001999990REMMET044METAR ENDR 021720Z AUTO 14018KT 07/02 Q0990=
0071010231999992014010217504+64350+007800FM-15+000099999V0201501N009319999999N999999999+00701+00201999999ADDMA1099001999990REMMET044METAR ENDR 021750Z AUTO 15018KT 07/02 Q0990=
0071010231999992014010218204+64350+007800FM-15+000099999V0201401N008819999999N999999999+00701+00301999999ADDMA1099001999990REMMET044METAR ENDR 021820Z AUTO 14017KT 07/03 Q0990=
0071010231999992014010218504+64350+007800FM-15+000099999V0201301N009319999999N999999999+00701+00301999999ADDMA1099001999990REMMET044METAR ENDR 021850Z AUTO 13018KT 07/03 Q0990=
0071010231999992014010219204+64350+007800FM-15+000099999V0201401N007719999999N999999999+00701+00201999999ADDMA1099101999990REMMET044METAR ENDR 021920Z AUTO 14015KT 07/02 Q0991=
0071010231999992014010219504+64350+007800FM-15+000099999V0201301N010819999999N999999999+00701+00301999999ADDMA1099001999990REMMET044METAR ENDR 021950Z AUTO 13021KT 07/03 Q0990=
0071010231999992014010220204+64350+007800FM-15+000099999V0201301N011819999999N999999999+00701+00301999999ADDMA1099101999990REMMET044METAR ENDR 022020Z AUTO 13023KT 07/03 Q0991=
0071010231999992014010220504+64350+007800FM-15+000099999V0201301N012419999999N999999999+00701+00201999999ADDMA1099001999990REMMET044METAR ENDR 022050Z AUTO 13024KT 07/02 Q0990=
0071010231999992014010221204+64350+007800FM-15+000099999V0201301N012919999999N999999999+00701+00201999999ADDMA1099001999990REMMET044METAR ENDR 022120Z AUTO 13025KT 07/02 Q0990=
0071010231999992014010221504+64350+007800FM-15+000099999V0201301N013419999999N999999999+00801+00301999999ADDMA1099001999990REMMET044METAR ENDR 022150Z AUTO 13026KT 08/03 Q0990=
0071010231999992014010222204+64350+007800FM-15+000099999V0201301N012419999999N999999999+00801+00301999999ADDMA1099101999990REMMET044METAR ENDR 022220Z AUTO 13024KT 08/03 Q0991=
0071010231999992014010222504+64350+007800FM-15+000099999V0201401N011819999999N999999999+00801+00301999999ADDMA1099101999990REMMET044METAR ENDR 022250Z AUTO 14023KT 08/03 Q0991=
0071010231999992014010223204+64350+007800FM-15+000099999V0201401N011819999999N999999999+00801+00301999999ADDMA1099101999990REMMET044METAR ENDR 022320Z AUTO 14023KT 08/03 Q0991=
0071010231999992014010223504+64350+007800FM-15+000099999V0201501N011319999999N999999999+00801+00301999999ADDMA1099101999990REMMET044METAR ENDR 022350Z AUTO 15022KT 08/03 Q0991=
0071010231999992014010300204+64350+007800FM-15+000099999V0201601N009319999999N999999999+00801+00301999999ADDMA1099201999990REMMET044METAR ENDR 030020Z AUTO 16018KT 08/03 Q0992=
0071010231999992014010300504+64350+007800FM-15+000099999V0201601N009819999999N999999999+00801+00301999999ADDMA1099201999990REMMET044METAR ENDR 030050Z AUTO 16019KT 08/03 Q0992=
0071010231999992014010301204+64350+007800FM-15+000099999V0201601N008219999999N999999999+00801+00401999999ADDMA1099201999990REMMET044METAR ENDR 030120Z AUTO 16016KT 08/04 Q0992=
0071010231999992014010301504+64350+007800FM-15+000099999V0201701N006719999999N999999999+00801+00501999999ADDMA1099201999990REMMET044METAR ENDR 030150Z AUTO 17013KT 08/05 Q0992=
0071010231999992014010302204+64350+007800FM-15+000099999V0202001N006719999999N999999999+00801+00401999999ADDMA1099301999990REMMET044METAR ENDR 030220Z AUTO 20013KT 08/04 Q0993=
0071010231999992014010302504+64350+007800FM-15+000099999V0202301N004119999999N999999999+00901+00401999999ADDMA1099301999990REMMET044METAR ENDR 030250Z AUTO 23008KT 09/04 Q0993=
0079010231999992014010303204+64350+007800FM-15+000099999V0201801V002619999999N999999999+00801+00401999999ADDMA1099301999990REMMET052METAR ENDR 030320Z AUTO 18005KT 150V210 08/04 Q0993=
0063010231999992014010303504+64350+007800FM-15+000099999V0209999N999999999999N999999999+00801+00401999999ADDMA1099301999990REMMET036METAR ENDR 030350Z AUTO 08/04 Q0993=
0071010231999992014010304204+64350+007800FM-15+000099999V0201401N005719999999N999999999+00801+00401999999ADDMA1099301999990REMMET044METAR ENDR 030420Z AUTO 14011KT 08/04 Q0993=
0071010231999992014010304504+64350+007800FM-15+000099999V0201301N006719999999N999999999+00801+00401999999ADDMA1099301999990REMMET044METAR ENDR 030450Z AUTO 13013KT 08/04 Q0993=
0071010231999992014010305204+64350+007800FM-15+000099999V0201301N007219999999N999999999+00701+00401999999ADDMA1099301999990REMMET044METAR ENDR 030520Z AUTO 13014KT 07/04 Q0993=
0071010231999992014010305504+64350+007800FM-15+000099999V0201301N008219999999N999999999+00701+00401999999ADDMA1099301999990REMMET044METAR ENDR 030550Z AUTO 13016KT 07/04 Q0993=
0072010231999992014010306104+64350+007800FM-15+000099999V0201301N008219999999Y999999999+00701+00401999999ADDMA1099301999990REMMET045METAR ENDR 030610Z 13016KT CAVOK 07/04 Q0993=
0071010231999992014010306504+64350+007800FM-15+000099999V0201301N007219999999N999999999+00701+00401999999ADDMA1099201999990REMMET044METAR ENDR 030650Z AUTO 13014KT 07/04 Q0992=
0071010231999992014010307204+64350+007800FM-15+000099999V0201301N008219999999N999999999+00701+00301999999ADDMA1099201999990REMMET044METAR ENDR 030720Z AUTO 13016KT 07/03 Q0992=
0071010231999992014010307504+64350+007800FM-15+000099999V0201301N007719999999N999999999+00701+00301999999ADDMA1099201999990REMMET044METAR ENDR 030750Z AUTO 13015KT 07/03 Q0992=
0071010231999992014010308204+64350+007800FM-15+000099999V0201301N006719999999N999999999+00701+00301999999ADDMA1099201999990REMMET044METAR ENDR 030820Z AUTO 13013KT 07/03 Q0992=
0071010231999992014010308504+64350+007800FM-15+000099999V0201301N006719999999N999999999+00701+00301999999ADDMA1099201999990REMMET044METAR ENDR 030850Z AUTO 13013KT 07/03 Q0992=
0071010231999992014010309204+64350+007800FM-15+000099999V0201301N005119999999N999999999+00701+00301999999ADDMA1099201999990REMMET044METAR ENDR 030920Z AUTO 13010KT 07/03 Q0992=
0160010231999992014010309404+64350+007800FM-15+000099999V0201201N005710213419N999999999+00701+00301999999ADDGA1021+009141991GA2071+021341991GE19MSL   +99999+99999GF199999021990009141991991MA1099201999990REMMET053METAR ENDR 030940Z 12011KT FEW030 BKN070 07/03 Q0992=
0071010231999992014010310204+64350+007800FM-15+000099999V0201201N005119999999N999999999+00701+00301999999ADDMA1099101999990REMMET044METAR ENDR 031020Z AUTO 12010KT 07/03 Q0991=
0071010231999992014010310504+64350+007800FM-15+000099999V0201201N005719999999N999999999+00701+00301999999ADDMA1099101999990REMMET044METAR ENDR 031050Z AUTO 12011KT 07/03 Q0991=
0071010231999992014010311204+64350+007800FM-15+000099999V0201301N006219999999N999999999+00701+00301999999ADDMA1099101999990REMMET044METAR ENDR 031120Z AUTO 13012KT 07/03 Q0991=
0071010231999992014010311504+64350+007800FM-15+000099999V0201501N007719999999N999999999+00701+00301999999ADDMA1099001999990REMMET044METAR ENDR 031150Z AUTO 15015KT 07/03 Q0990=
0072010231999992014010312104+64350+007800FM-15+000099999V0201601N006219999999Y999999999+00701+00301999999ADDMA1099001999990REMMET045METAR ENDR 031210Z 16012KT CAVOK 07/03 Q0990=
0071010231999992014010312504+64350+007800FM-15+000099999V0201501N008219999999N999999999+00701+00201999999ADDMA1099001999990REMMET044METAR ENDR 031250Z AUTO 15016KT 07/02 Q0990=
0071010231999992014010313204+64350+007800FM-15+000099999V0201501N009319999999N999999999+00701+00201999999ADDMA1099001999990REMMET044METAR ENDR 031320Z AUTO 15018KT 07/02 Q0990=
0071010231999992014010313504+64350+007800FM-15+000099999V0201401N008219999999N999999999+00701+00301999999ADDMA1098901999990REMMET044METAR ENDR 031350Z AUTO 14016KT 07/03 Q0989=
0071010231999992014010314204+64350+007800FM-15+000099999V0201401N008819999999N999999999+00701+00201999999ADDMA1098901999990REMMET044METAR ENDR 031420Z AUTO 14017KT 07/02 Q0989=
0071010231999992014010314504+64350+007800FM-15+000099999V0201301N010319999999N999999999+00701+00201999999ADDMA1098801999990REMMET044METAR ENDR 031450Z AUTO 13020KT 07/02 Q0988=
0072010231999992014010315104+64350+007800FM-15+000099999V0201401N011319999999Y999999999+00701+00201999999ADDMA1098801999990REMMET045METAR ENDR 031510Z 14022KT CAVOK 07/02 Q0988=
0071010231999992014010315504+64350+007800FM-15+000099999V0201401N011819999999N999999999+00701+00101999999ADDMA1098801999990REMMET044METAR ENDR 031550Z AUTO 14023KT 07/01 Q0988=
0071010231999992014010316204+64350+007800FM-15+000099999V0201401N011819999999N999999999+00701+00201999999ADDMA1098701999990REMMET044METAR ENDR 031620Z AUTO 14023KT 07/02 Q0987=
0071010231999992014010316504+64350+007800FM-15+000099999V0201301N012419999999N999999999+00701+00201999999ADDMA1098701999990REMMET044METAR ENDR 031650Z AUTO 13024KT 07/02 Q0987=
0071010231999992014010317204+64350+007800FM-15+000099999V0201301N011319999999N999999999+00701+00101999999ADDMA1098701999990REMMET044METAR ENDR 031720Z AUTO 13022KT 07/01 Q0987=
0071010231999992014010317504+64350+007800FM-15+000099999V0201301N012419999999N999999999+00701+00101999999ADDMA1098701999990REMMET044METAR ENDR 031750Z AUTO 13024KT 07/01 Q0987=
0071010231999992014010318204+64350+007800FM-15+000099999V0201301N012419999999N999999999+00701+00201999999ADDMA1098601999990REMMET044METAR ENDR 031820Z AUTO 13024KT 07/02 Q0986=
0071010231999992014010318504+64350+007800FM-15+000099999V0201301N011819999999N999999999+00701+00201999999ADDMA1098601999990REMMET044METAR ENDR 031850Z AUTO 13023KT 07/02 Q0986=
0071010231999992014010319204+64350+007800FM-15+000099999V0201301N010819999999N999999999+00701+00201999999ADDMA1098601999990REMMET044METAR ENDR 031920Z AUTO 13021KT 07/02 Q0986=
0071010231999992014010319504+64350+007800FM-15+000099999V0201301N011819999999N999999999+00801+00301999999ADDMA1098601999990REMMET044METAR ENDR 031950Z AUTO 13023KT 08/03 Q0986=
0071010231999992014010320204+64350+007800FM-15+000099999V0201301N011319999999N999999999+00801+00301999999ADDMA1098501999990REMMET044METAR ENDR 032020Z AUTO 13022KT 08/03 Q0985=
0071010231999992014010320504+64350+007800FM-15+000099999V0201201N010319999999N999999999+00801+00301999999ADDMA1098501999990REMMET044METAR ENDR 032050Z AUTO 12020KT 08/03 Q0985=
0071010231999992014010321204+64350+007800FM-15+000099999V0201301N011319999999N999999999+00801+00301999999ADDMA1098401999990REMMET044METAR ENDR 032120Z AUTO 13022KT 08/03 Q0984=
0071010231999992014010321504+64350+007800FM-15+000099999V0201301N013919999999N999999999+00801+00201999999ADDMA1098401999990REMMET044METAR ENDR 032150Z AUTO 13027KT 08/02 Q0984=
0071010231999992014010322204+64350+007800FM-15+000099999V0201301N017019999999N999999999+00801+00201999999ADDMA1098301999990REMMET044METAR ENDR 032220Z AUTO 13033KT 08/02 Q0983=
0071010231999992014010322504+64350+007800FM-15+000099999V0201301N016019999999N999999999+00801+00301999999ADDMA1098301999990REMMET044METAR ENDR 032250Z AUTO 13031KT 08/03 Q0983=
0071010231999992014010323204+64350+007800FM-15+000099999V0201301N017019999999N999999999+00801+00201999999ADDMA1098301999990REMMET044METAR ENDR 032320Z AUTO 13033KT 08/02 Q0983=
0071010231999992014010323504+64350+007800FM-15+000099999V0201301N014419999999N999999999+00801+00201999999ADDMA1098301999990REMMET044METAR ENDR 032350Z AUTO 13028KT 08/02 Q0983=
0071010231999992014010400204+64350+007800FM-15+000099999V0201501N012419999999N999999999+00801+00301999999ADDMA1098301999990REMMET044METAR ENDR 040020Z AUTO 15024KT 08/03 Q0983=
0071010231999992014010400504+64350+007800FM-15+000099999V0201501N012919999999N999999999+00801+00201999999ADDMA1098301999990REMMET044METAR ENDR 040050Z AUTO 15025KT 08/02 Q0983=
0071010231999992014010401204+64350+007800FM-15+000099999V0201601N012419999999N999999999+00801+00201999999ADDMA1098301999990REMMET044METAR ENDR 040120Z AUTO 16024KT 08/02 Q0983=
0071010231999992014010401504+64350+007800FM-15+000099999V0201801N010819999999N999999999+00801+00301999999ADDMA1098301999990REMMET044METAR ENDR 040150Z AUTO 18021KT 08/03 Q0983=
0071010231999992014010402204+64350+007800FM-15+000099999V0202101N009319999999N999999999+00801+00401999999ADDMA1098401999990REMMET044METAR ENDR 040220Z AUTO 21018KT 08/04 Q0984=
0071010231999992014010402504+64350+007800FM-15+000099999V0202001N005719999999N999999999+00801+00301999999ADDMA1098401999990REMMET044METAR ENDR 040250Z AUTO 20011KT 08/03 Q0984=
0071010231999992014010403204+64350+007800FM-15+000099999V0201901N006219999999N999999999+00801+00301999999ADDMA1098401999990REMMET044METAR ENDR 040320Z AUTO 19012KT 08/03 Q0984=
0071010231999992014010403504+64350+007800FM-15+000099999V0201501N006719999999N999999999+00801+00301999999ADDMA1098401999990REMMET044METAR ENDR 040350Z AUTO 15013KT 08/03 Q0984=
0071010231999992014010404204+64350+007800FM-15+000099999V0201401N008219999999N999999999+00901+00201999999ADDMA1098401999990REMMET044METAR ENDR 040420Z AUTO 14016KT 09/02 Q0984=
0071010231999992014010404504+64350+007800FM-15+000099999V0201401N008219999999N999999999+00801+00401999999ADDMA1098401999990REMMET044METAR ENDR 040450Z AUTO 14016KT 08/04 Q0984=
0071010231999992014010405204+64350+007800FM-15+000099999V0201201N009819999999N999999999+00801+00401999999ADDMA1098401999990REMMET044METAR ENDR 040520Z AUTO 12019KT 08/04 Q0984=
0071010231999992014010405504+64350+007800FM-15+000099999V0201301N011319999999N999999999+00801+00301999999ADDMA1098401999990REMMET044METAR ENDR 040550Z AUTO 13022KT 08/03 Q0984=
0142010231999992014010406104+64350+007800FM-15+000099999V0201301N011319999999N009999199+00801+00301999999ADDGA1021+009141991GE19MSL   +99999+99999GF199999021990009141991991MA1098401999990REMMET051METAR ENDR 040610Z 13022KT 9999 FEW030 08/03 Q0984=
0071010231999992014010406504+64350+007800FM-15+000099999V0201401N010819999999N999999999+00801+00301999999ADDMA1098501999990REMMET044METAR ENDR 040650Z AUTO 14021KT 08/03 Q0985=
0071010231999992014010407204+64350+007800FM-15+000099999V0201501N011819999999N999999999+00801+00201999999ADDMA1098501999990REMMET044METAR ENDR 040720Z AUTO 15023KT 08/02 Q0985=
0071010231999992014010407504+64350+007800FM-15+000099999V0201501N011319999999N999999999+00801+00201999999ADDMA1098501999990REMMET044METAR ENDR 040750Z AUTO 15022KT 08/02 Q0985=
0071010231999992014010408204+64350+007800FM-15+000099999V0201601N011319999999N999999999+00801+00101999999ADDMA1098501999990REMMET044METAR ENDR 040820Z AUTO 16022KT 08/01 Q0985=
0071010231999992014010408504+64350+007800FM-15+000099999V0201501N010319999999N999999999+00801+00301999999ADDMA1098501999990REMMET044METAR ENDR 040850Z AUTO 15020KT 08/03 Q0985=
0072010231999992014010409104+64350+007800FM-15+000099999V0201501N011319999999Y999999999+00801+00201999999ADDMA1098501999990REMMET045METAR ENDR 040910Z 15022KT CAVOK 08/02 Q0985=
0071010231999992014010409504+64350+007800FM-15+000099999V0201401N010819999999N999999999+00801+00301999999ADDMA1098501999990REMMET044METAR ENDR 040950Z AUTO 14021KT 08/03 Q0985=
0071010231999992014010410204+64350+007800FM-15+000099999V0201401N010819999999N999999999+00801+00301999999ADDMA1098501999990REMMET044METAR ENDR 041020Z AUTO 14021KT 08/03 Q0985=
0071010231999992014010410504+64350+007800FM-15+000099999V0201401N011319999999N999999999+00801+00201999999ADDMA1098601999990REMMET044METAR ENDR 041050Z AUTO 14022KT 08/02 Q0986=
0071010231999992014010411204+64350+007800FM-15+000099999V0201401N011319999999N999999999+00801+00201999999ADDMA1098601999990REMMET044METAR ENDR 041120Z AUTO 14022KT 08/02 Q0986=
0071010231999992014010411504+64350+007800FM-15+000099999V0201401N010819999999N999999999+00801+00101999999ADDMA1098601999990REMMET044METAR ENDR 041150Z AUTO 14021KT 08/01 Q0986=
0178010231999992014010412104+64350+007800FM-15+000099999V0201501N01031015241CN009999199+00801+00201999999ADDGA1021+009141091GA2041+015241991GE19MSL   +99999+99999GF199999021990009141991991MA1098601999990MW1161REMMET065METAR ENDR 041210Z 15020KT 9999 VCSH FEW030CB SCT050 08/02 Q0986=
0071010231999992014010412504+64350+007800FM-15+000099999V0201501N008819999999N999999999+00801+00201999999ADDMA1098601999990REMMET044METAR ENDR 041250Z AUTO 15017KT 08/02 Q0986=
0071010231999992014010413204+64350+007800FM-15+000099999V0201401N008219999999N999999999+00801+00301999999ADDMA1098601999990REMMET044METAR ENDR 041320Z AUTO 14016KT 08/03 Q0986=
0071010231999992014010413504+64350+007800FM-15+000099999V0201501N009319999999N999999999+00801+00201999999ADDMA1098601999990REMMET044METAR ENDR 041350Z AUTO 15018KT 08/02 Q0986=
0071010231999992014010414204+64350+007800FM-15+000099999V0201401N008819999999N999999999+00801+00201999999ADDMA1098601999990REMMET044METAR ENDR 041420Z AUTO 14017KT 08/02 Q0986=
0071010231999992014010414504+64350+007800FM-15+000099999V0201501N010319999999N999999999+00801+00101999999ADDMA1098601999990REMMET044METAR ENDR 041450Z AUTO 15020KT 08/01 Q0986=
0153010231999992014010415104+64350+007800FM-15+000099999V0201401N009310152419N009999199+00801+00201999999ADDGA1071+015241991GE19MSL   +99999+99999GF199999071990015241991991MA1098701999990MW1161REMMET056METAR ENDR 041510Z 14018KT 9999 VCSH BKN050 08/02 Q0987=
0082010231999992014010415504+64350+007800FM-15+000099999V0201801N011819999999N999999999+00801+00201999999ADDMA1098701999990OC101801REMMET047METAR ENDR 041550Z AUTO 18023G35KT 08/02 Q0987=
0071010231999992014010416204+64350+007800FM-15+000099999V0201801N012419999999N999999999+00601+00301999999ADDMA1098801999990REMMET044METAR ENDR 041620Z AUTO 18024KT 06/03 Q0988=
0071010231999992014010416504+64350+007800FM-15+000099999V0201601N009319999999N999999999+00601+00301999999ADDMA1098801999990REMMET044METAR ENDR 041650Z AUTO 16018KT 06/03 Q0988=
0071010231999992014010417204+64350+007800FM-15+000099999V0201601N009819999999N999999999+00601+00301999999ADDMA1098801999990REMMET044METAR ENDR 041720Z AUTO 16019KT 06/03 Q0988=
0071010231999992014010417504+64350+007800FM-15+000099999V0201601N010319999999N999999999+00701+00301999999ADDMA1098801999990REMMET044METAR ENDR 041750Z AUTO 16020KT 07/03 Q0988=
0071010231999992014010418204+64350+007800FM-15+000099999V0201601N011319999999N999999999+00701+00301999999ADDMA1098801999990REMMET044METAR ENDR 041820Z AUTO 16022KT 07/03 Q0988=
0071010231999992014010418504+64350+007800FM-15+000099999V0201701N012919999999N999999999+00701+00201999999ADDMA1098901999990REMMET044METAR ENDR 041850Z AUTO 17025KT 07/02 Q0989=
0071010231999992014010419204+64350+007800FM-15+000099999V0201701N012419999999N999999999+00801+00301999999ADDMA1098901999990REMMET044METAR ENDR 041920Z AUTO 17024KT 08/03 Q0989=
0071010231999992014010419504+64350+007800FM-15+000099999V0201801N010319999999N999999999+00701+00501999999ADDMA1099001999990REMMET044METAR ENDR 041950Z AUTO 18020KT 07/05 Q0990=
0071010231999992014010420204+64350+007800FM-15+000099999V0201801N012419999999N999999999+00701+00501999999ADDMA1099001999990REMMET044METAR ENDR 042020Z AUTO 18024KT 07/05 Q0990=
0071010231999992014010420504+64350+007800FM-15+000099999V0201801N012419999999N999999999+00701+00501999999ADDMA1099001999990REMMET044METAR ENDR 042050Z AUTO 18024KT 07/05 Q0990=
0071010231999992014010421204+64350+007800FM-15+000099999V0202101N016519999999N999999999+00801+00601999999ADDMA1099101999990REMMET044METAR ENDR 042120Z AUTO 21032KT 08/06 Q0991=
0071010231999992014010421504+64350+007800FM-15+000099999V0202001N014919999999N999999999+00801+00501999999ADDMA1099101999990REMMET044METAR ENDR 042150Z AUTO 20029KT 08/05 Q0991=
0071010231999992014010422204+64350+007800FM-15+000099999V0202101N016019999999N999999999+00801+00501999999ADDMA1099201999990REMMET044METAR ENDR 042220Z AUTO 21031KT 08/05 Q0992=
0071010231999992014010422504+64350+007800FM-15+000099999V0202101N015419999999N999999999+00801+00501999999ADDMA1099201999990REMMET044METAR ENDR 042250Z AUTO 21030KT 08/05 Q0992=
0071010231999992014010423204+64350+007800FM-15+000099999V0202101N014419999999N999999999+00801+00501999999ADDMA1099301999990REMMET044METAR ENDR 042320Z AUTO 21028KT 08/05 Q0993=
0071010231999992014010423504+64350+007800FM-15+000099999V0202101N018019999999N999999999+00801+00401999999ADDMA1099301999990REMMET044METAR ENDR 042350Z AUTO 21035KT 08/04 Q0993=
0071010231999992014010500204+64350+007800FM-15+000099999V0202101N017019999999N999999999+00801+00401999999ADDMA1099301999990REMMET044METAR ENDR 050020Z AUTO 21033KT 08/04 Q0993=
0071010231999992014010500504+64350+007800FM-15+000099999V0202101N016519999999N999999999+00801+00401999999ADDMA1099301999990REMMET044METAR ENDR 050050Z AUTO 21032KT 08/04 Q0993=
0071010231999992014010501204+64350+007800FM-15+000099999V0202101N016019999999N999999999+00801+00401999999ADDMA1099401999990REMMET044METAR ENDR 050120Z AUTO 21031KT 08/04 Q0994=
0071010231999992014010501504+64350+007800FM-15+000099999V0202201N014919999999N999999999+00801+00401999999ADDMA1099401999990REMMET044METAR ENDR 050150Z AUTO 22029KT 08/04 Q0994=
0071010231999992014010502204+64350+007800FM-15+000099999V0202101N013919999999N999999999+00801+00401999999ADDMA1099401999990REMMET044METAR ENDR 050220Z AUTO 21027KT 08/04 Q0994=
0071010231999992014010502504+64350+007800FM-15+000099999V0202101N012419999999N999999999+00801+00401999999ADDMA1099401999990REMMET044METAR ENDR 050250Z AUTO 21024KT 08/04 Q0994=
0071010231999992014010503204+64350+007800FM-15+000099999V0202101N010319999999N999999999+00801+00401999999ADDMA1099501999990REMMET044METAR ENDR 050320Z AUTO 21020KT 08/04 Q0995=
0071010231999992014010503504+64350+007800FM-15+000099999V0202101N009319999999N999999999+00801+00401999999ADDMA1099501999990REMMET044METAR ENDR 050350Z AUTO 21018KT 08/04 Q0995=
0071010231999992014010504204+64350+007800FM-15+000099999V0202101N006219999999N999999999+00801+00401999999ADDMA1099501999990REMMET044METAR ENDR 050420Z AUTO 21012KT 08/04 Q0995=
0071010231999992014010504504+64350+007800FM-15+000099999V0201901N005719999999N999999999+00801+00401999999ADDMA1099501999990REMMET044METAR ENDR 050450Z AUTO 19011KT 08/04 Q0995=
0071010231999992014010505204+64350+007800FM-15+000099999V0201801N004119999999N999999999+00801+00401999999ADDMA1099501999990REMMET044METAR ENDR 050520Z AUTO 18008KT 08/04 Q0995=
0071010231999992014010505504+64350+007800FM-15+000099999V0201301N005119999999N999999999+00801+00501999999ADDMA1099501999990REMMET044METAR ENDR 050550Z AUTO 13010KT 08/05 Q0995=
0072010231999992014010506104+64350+007800FM-15+000099999V0201201N006219999999Y999999999+00801+00501999999ADDMA1099501999990REMMET045METAR ENDR 050610Z 12012KT CAVOK 08/05 Q0995=
0071010231999992014010506504+64350+007800FM-15+000099999V0201201N007719999999N999999999+00701+00401999999ADDMA1099501999990REMMET044METAR ENDR 050650Z AUTO 12015KT 07/04 Q0995=
0071010231999992014010507204+64350+007800FM-15+000099999V0201201N007719999999N999999999+00701+00401999999ADDMA1099501999990REMMET044METAR ENDR 050720Z AUTO 12015KT 07/04 Q0995=
0071010231999992014010507504+64350+007800FM-15+000099999V0201201N008219999999N999999999+00701+00301999999ADDMA1099501999990REMMET044METAR ENDR 050750Z AUTO 12016KT 07/03 Q0995=
0071010231999992014010508204+64350+007800FM-15+000099999V0201201N008219999999N999999999+00701+00301999999ADDMA1099501999990REMMET044METAR ENDR 050820Z AUTO 12016KT 07/03 Q0995=
0071010231999992014010508504+64350+007800FM-15+000099999V0201101N008219999999N999999999+00701+00201999999ADDMA1099501999990REMMET044METAR ENDR 050850Z AUTO 11016KT 07/02 Q0995=
0071010231999992014010509204+64350+007800FM-15+000099999V0201101N008819999999N999999999+00701+00201999999ADDMA1099501999990REMMET044METAR ENDR 050920Z AUTO 11017KT 07/02 Q0995=
0071010231999992014010509504+64350+007800FM-15+000099999V0201101N007219999999N999999999+00601+00201999999ADDMA1099501999990REMMET044METAR ENDR 050950Z AUTO 11014KT 06/02 Q0995=
0071010231999992014010510204+64350+007800FM-15+000099999V0201101N008219999999N999999999+00601+00201999999ADDMA1099501999990REMMET044METAR ENDR 051020Z AUTO 11016KT 06/02 Q0995=
0071010231999992014010510504+64350+007800FM-15+000099999V0201201N008219999999N999999999+00601+00101999999ADDMA1099501999990REMMET044METAR ENDR 051050Z AUTO 12016KT 06/01 Q0995=
0071010231999992014010511204+64350+007800FM-15+000099999V0201301N006719999999N999999999+00601+00201999999ADDMA1099501999990REMMET044METAR ENDR 051120Z AUTO 13013KT 06/02 Q0995=
0071010231999992014010511504+64350+007800FM-15+000099999V0201301N005719999999N999999999+00601+00201999999ADDMA1099501999990REMMET044METAR ENDR 051150Z AUTO 13011KT 06/02 Q0995=
0072010231999992014010512104+64350+007800FM-15+000099999V0201601N005119999999Y999999999+00701+00201999999ADDMA1099501999990REMMET045METAR ENDR 051210Z 16010KT CAVOK 07/02 Q0995=
0071010231999992014010512504+64350+007800FM-15+000099999V0201701N004619999999N999999999+00701+00401999999ADDMA1099501999990REMMET044METAR ENDR 051250Z AUTO 17009KT 07/04 Q0995=
0071010231999992014010513204+64350+007800FM-15+000099999V0201901N003619999999N999999999+00701+00501999999ADDMA1099401999990REMMET044METAR ENDR 051320Z AUTO 19007KT 07/05 Q0994=
0071010231999992014010513504+64350+007800FM-15+000099999V0202001N000519999999N999999999+00701+00401999999ADDMA1099401999990REMMET044METAR ENDR 051350Z AUTO 20001KT 07/04 Q0994=
0071010231999992014010514204+64350+007800FM-15+000099999V0201301N003619999999N999999999+00701+00501999999ADDMA1099401999990REMMET044METAR ENDR 051420Z AUTO 13007KT 07/05 Q0994=
0071010231999992014010514504+64350+007800FM-15+000099999V0201301N006219999999N999999999+00701+00501999999ADDMA1099401999990REMMET044METAR ENDR 051450Z AUTO 13012KT 07/05 Q0994=
0072010231999992014010515104+64350+007800FM-15+000099999V0201301N007219999999Y999999999+00701+00501999999ADDMA1099401999990REMMET045METAR ENDR 051510Z 13014KT CAVOK 07/05 Q0994=
0071010231999992014010515504+64350+007800FM-15+000099999V0201201N007719999999N999999999+00701+00301999999ADDMA1099401999990REMMET044METAR ENDR 051550Z AUTO 12015KT 07/03 Q0994=
0071010231999992014010516204+64350+007800FM-15+000099999V0201201N008819999999N999999999+00801+00301999999ADDMA1099301999990REMMET044METAR ENDR 051620Z AUTO 12017KT 08/03 Q0993=
0071010231999992014010516504+64350+007800FM-15+000099999V0201201N009319999999N999999999+00801+00301999999ADDMA1099301999990REMMET044METAR ENDR 051650Z AUTO 12018KT 08/03 Q0993=
0071010231999992014010517204+64350+007800FM-15+000099999V0201201N009319999999N999999999+00801+00301999999ADDMA1099301999990REMMET044METAR ENDR 051720Z AUTO 12018KT 08/03 Q0993=
0071010231999992014010517504+64350+007800FM-15+000099999V0201401N009319999999N999999999+00801+00301999999ADDMA1099301999990REMMET044METAR ENDR 051750Z AUTO 14018KT 08/03 Q0993=
0071010231999992014010518204+64350+007800FM-15+000099999V0201501N009819999999N999999999+00801+00201999999ADDMA1099301999990REMMET044METAR ENDR 051820Z AUTO 15019KT 08/02 Q0993=
0071010231999992014010518504+64350+007800FM-15+000099999V0201401N009819999999N999999999+00901+00201999999ADDMA1099301999990REMMET044METAR ENDR 051850Z AUTO 14019KT 09/02 Q0993=
0071010231999992014010519204+64350+007800FM-15+000099999V0201501N009319999999N999999999+00801+00201999999ADDMA1099301999990REMMET044METAR ENDR 051920Z AUTO 15018KT 08/02 Q0993=
0071010231999992014010519504+64350+007800FM-15+000099999V0201401N008819999999N999999999+00901+00301999999ADDMA1099301999990REMMET044METAR ENDR 051950Z AUTO 14017KT 09/03 Q0993=
0071010231999992014010520204+64350+007800FM-15+000099999V0201401N009819999999N999999999+00801+00201999999ADDMA1099301999990REMMET044METAR ENDR 052020Z AUTO 14019KT 08/02 Q0993=
0071010231999992014010520504+64350+007800FM-15+000099999V0201501N009819999999N999999999+00801+00201999999ADDMA1099301999990REMMET044METAR ENDR 052050Z AUTO 15019KT 08/02 Q0993=
0071010231999992014010521204+64350+007800FM-15+000099999V0201501N009319999999N999999999+00801+00301999999ADDMA1099301999990REMMET044METAR ENDR 052120Z AUTO 15018KT 08/03 Q0993=
0071010231999992014010521504+64350+007800FM-15+000099999V0201501N008819999999N999999999+00801+00301999999ADDMA1099301999990REMMET044METAR ENDR 052150Z AUTO 15017KT 08/03 Q0993=
0071010231999992014010522204+64350+007800FM-15+000099999V0201601N008819999999N999999999+00901+00401999999ADDMA1099301999990REMMET044METAR ENDR 052220Z AUTO 16017KT 09/04 Q0993=
0071010231999992014010522504+64350+007800FM-15+000099999V0201601N008219999999N999999999+00901+00401999999ADDMA1099301999990REMMET044METAR ENDR 052250Z AUTO 16016KT 09/04 Q0993=
0071010231999992014010523204+64350+007800FM-15+000099999V0201901N006219999999N999999999+00901+00401999999ADDMA1099401999990REMMET044METAR ENDR 052320Z AUTO 19012KT 09/04 Q0994=
0071010231999992014010523504+64350+007800FM-15+000099999V0202401N005719999999N999999999+00901+00601999999ADDMA1099401999990REMMET044METAR ENDR 052350Z AUTO 24011KT 09/06 Q0994=
0071010231999992014010600204+64350+007800FM-15+000099999V0203201N001019999999N999999999+00901+00501999999ADDMA1099401999990REMMET044METAR ENDR 060020Z AUTO 32002KT 09/05 Q0994=
0071010231999992014010600504+64350+007800FM-15+000099999V0201601N001019999999N999999999+00801+00501999999ADDMA1099401999990REMMET044METAR ENDR 060050Z AUTO 16002KT 08/05 Q0994=
0079010231999992014010601204+64350+007800FM-15+000099999V0201401V001519999999N999999999+00801+00401999999ADDMA1099301999990REMMET052METAR ENDR 060120Z AUTO 14003KT 100V180 08/04 Q0993=
0071010231999992014010601504+64350+007800FM-15+000099999V0201101N001519999999N999999999+00801+00501999999ADDMA1099301999990REMMET044METAR ENDR 060150Z AUTO 11003KT 08/05 Q0993=
0071010231999992014010602204+64350+007800FM-15+000099999V0201401N001019999999N999999999+00801+00501999999ADDMA1099301999990REMMET044METAR ENDR 060220Z AUTO 14002KT 08/05 Q0993=
0071010231999992014010602504+64350+007800FM-15+000099999V0201301N001519999999N999999999+00801+00401999999ADDMA1099301999990REMMET044METAR ENDR 060250Z AUTO 13003KT 08/04 Q0993=
0071010231999992014010603204+64350+007800FM-15+000099999V0201301N005719999999N999999999+00801+00401999999ADDMA1099301999990REMMET044METAR ENDR 060320Z AUTO 13011KT 08/04 Q0993=
0071010231999992014010603504+64350+007800FM-15+000099999V0201301N007719999999N999999999+00801+00301999999ADDMA1099201999990REMMET044METAR ENDR 060350Z AUTO 13015KT 08/03 Q0992=
0071010231999992014010604204+64350+007800FM-15+000099999V0201301N008219999999N999999999+00801+00301999999ADDMA1099201999990REMMET044METAR ENDR 060420Z AUTO 13016KT 08/03 Q0992=
0071010231999992014010604504+64350+007800FM-15+000099999V0201401N008219999999N999999999+00801+00201999999ADDMA1099101999990REMMET044METAR ENDR 060450Z AUTO 14016KT 08/02 Q0991=
0071010231999992014010605204+64350+007800FM-15+000099999V0201401N009819999999N999999999+00801+00201999999ADDMA1099001999990REMMET044METAR ENDR 060520Z AUTO 14019KT 08/02 Q0990=
0071010231999992014010605504+64350+007800FM-15+000099999V0201301N013919999999N999999999+00701+00201999999ADDMA1098901999990REMMET044METAR ENDR 060550Z AUTO 13027KT 07/02 Q0989=
0072010231999992014010606104+64350+007800FM-15+000099999V0201301N007219999999Y999999999+00701+00201999999ADDMA1098901999990REMMET045METAR ENDR 060610Z 13014KT CAVOK 07/02 Q0989=
0071010231999992014010606504+64350+007800FM-15+000099999V0201301N016019999999N999999999+00701+00201999999ADDMA1098801999990REMMET044METAR ENDR 060650Z AUTO 13031KT 07/02 Q0988=
0071010231999992014010607204+64350+007800FM-15+000099999V0201301N017019999999N999999999+00701+00201999999ADDMA1098701999990REMMET044METAR ENDR 060720Z AUTO 13033KT 07/02 Q0987=
0071010231999992014010607504+64350+007800FM-15+000099999V0201301N018519999999N999999999+00701+00201999999ADDMA1098601999990REMMET044METAR ENDR 060750Z AUTO 13036KT 07/02 Q0986=
0071010231999992014010608204+64350+007800FM-15+000099999V0201201N018519999999N999999999+00701+00101999999ADDMA1098601999990REMMET044METAR ENDR 060820Z AUTO 12036KT 07/01 Q0986=
0071010231999992014010608504+64350+007800FM-15+000099999V0201201N017519999999N999999999+00701+00101999999ADDMA1098501999990REMMET044METAR ENDR 060850Z AUTO 12034KT 07/01 Q0985=
0072010231999992014010609504+64350+007800FM-15+000099999V0201401N014419999999N999999999+00701+00001999999ADDMA1098501999990REMMET045METAR ENDR 060950Z AUTO 14028KT 07/M00 Q0985=
0072010231999992014010610204+64350+007800FM-15+000099999V0201401N012919999999N999999999+00701+00001999999ADDMA1098401999990REMMET045METAR ENDR 061020Z AUTO 14025KT 07/M00 Q0984=
0072010231999992014010610504+64350+007800FM-15+000099999V0201401N010819999999N999999999+00701+00001999999ADDMA1098401999990REMMET045METAR ENDR 061050Z AUTO 14021KT 07/M00 Q0984=
0071010231999992014010611204+64350+007800FM-15+000099999V0201501N010819999999N999999999+00701+00001999999ADDMA1098401999990REMMET044METAR ENDR 061120Z AUTO 15021KT 07/00 Q0984=
0072010231999992014010611504+64350+007800FM-15+000099999V0201501N011319999999N999999999+00801-00101999999ADDMA1098401999990REMMET045METAR ENDR 061150Z AUTO 15022KT 08/M01 Q0984=
0071010231999992014010612204+64350+007800FM-15+000099999V0201501N010319999999N999999999+00801+00001999999ADDMA1098401999990REMMET044METAR ENDR 061220Z AUTO 15020KT 08/00 Q0984=
0071010231999992014010612504+64350+007800FM-15+000099999V0201501N009819999999N999999999+00801+00101999999ADDMA1098401999990REMMET044METAR ENDR 061250Z AUTO 15019KT 08/01 Q0984=
0071010231999992014010613204+64350+007800FM-15+000099999V0201501N009819999999N999999999+00801+00101999999ADDMA1098401999990REMMET044METAR ENDR 061320Z AUTO 15019KT 08/01 Q0984=
0071010231999992014010613504+64350+007800FM-15+000099999V0201401N009819999999N999999999+00801+00001999999ADDMA1098401999990REMMET044METAR ENDR 061350Z AUTO 14019KT 08/00 Q0984=
0071010231999992014010614204+64350+007800FM-15+000099999V0201401N009819999999N999999999+00801+00101999999ADDMA1098401999990REMMET044METAR ENDR 061420Z AUTO 14019KT 08/01 Q0984=
0071010231999992014010614504+64350+007800FM-15+000099999V0201701N008819999999N999999999+00801+00101999999ADDMA1098401999990REMMET044METAR ENDR 061450Z AUTO 17017KT 08/01 Q0984=
0071010231999992014010615204+64350+007800FM-15+000099999V0202101N010319999999N999999999+00801+00201999999ADDMA1098401999990REMMET044METAR ENDR 061520Z AUTO 21020KT 08/02 Q0984=
0071010231999992014010615504+64350+007800FM-15+000099999V0202001N009319999999N999999999+00701+00301999999ADDMA1098401999990REMMET044METAR ENDR 061550Z AUTO 20018KT 07/03 Q0984=
0071010231999992014010616204+64350+007800FM-15+000099999V0201501N008219999999N999999999+00701+00101999999ADDMA1098401999990REMMET044METAR ENDR 061620Z AUTO 15016KT 07/01 Q0984=
0071010231999992014010616504+64350+007800FM-15+000099999V0201401N008219999999N999999999+00701+00101999999ADDMA1098401999990REMMET044METAR ENDR 061650Z AUTO 14016KT 07/01 Q0984=
0071010231999992014010617204+64350+007800FM-15+000099999V0201401N008219999999N999999999+00701+00201999999ADDMA1098401999990REMMET044METAR ENDR 061720Z AUTO 14016KT 07/02 Q0984=
0071010231999992014010617504+64350+007800FM-15+000099999V0201401N008219999999N999999999+00801+00101999999ADDMA1098401999990REMMET044METAR ENDR 061750Z AUTO 14016KT 08/01 Q0984=
0071010231999992014010618204+64350+007800FM-15+000099999V0201301N008819999999N999999999+00701+00301999999ADDMA1098501999990REMMET044METAR ENDR 061820Z AUTO 13017KT 07/03 Q0985=
0071010231999992014010618504+64350+007800FM-15+000099999V0201301N008219999999N999999999+00701+00401999999ADDMA1098501999990REMMET044METAR ENDR 061850Z AUTO 13016KT 07/04 Q0985=
0071010231999992014010619204+64350+007800FM-15+000099999V0201301N010319999999N999999999+00701+00401999999ADDMA1098501999990REMMET044METAR ENDR 061920Z AUTO 13020KT 07/04 Q0985=
0071010231999992014010619504+64350+007800FM-15+000099999V0201301N011319999999N999999999+00701+00401999999ADDMA1098501999990REMMET044METAR ENDR 061950Z AUTO 13022KT 07/04 Q0985=
0071010231999992014010620204+64350+007800FM-15+000099999V0201301N011819999999N999999999+00701+00401999999ADDMA1098501999990REMMET044METAR ENDR 062020Z AUTO 13023KT 07/04 Q0985=
0071010231999992014010620504+64350+007800FM-15+000099999V0201301N010819999999N999999999+00701+00301999999ADDMA1098501999990REMMET044METAR ENDR 062050Z AUTO 13021KT 07/03 Q0985=
0071010231999992014010621204+64350+007800FM-15+000099999V0201401N011319999999N999999999+00701+00301999999ADDMA1098601999990REMMET044METAR ENDR 062120Z AUTO 14022KT 07/03 Q0986=
0071010231999992014010621504+64350+007800FM-15+000099999V0201301N010819999999N999999999+00701+00301999999ADDMA1098601999990REMMET044METAR ENDR 062150Z AUTO 13021KT 07/03 Q0986=
0071010231999992014010622204+64350+007800FM-15+000099999V0201301N010819999999N999999999+00701+00401999999ADDMA1098501999990REMMET044METAR ENDR 062220Z AUTO 13021KT 07/04 Q0985=
0063010231999992014010622504+64350+007800FM-15+000099999V0209999N999999999999N999999999+00701+00301999999ADDMA1098501999990REMMET036METAR ENDR 062250Z AUTO 07/03 Q0985=
0071010231999992014010623204+64350+007800FM-15+000099999V0201401N011319999999N999999999+00701+00301999999ADDMA1098501999990REMMET044METAR ENDR 062320Z AUTO 14022KT 07/03 Q0985=
0071010231999992014010623504+64350+007800FM-15+000099999V0201301N010819999999N999999999+00801+00401999999ADDMA1098501999990REMMET044METAR ENDR 062350Z AUTO 13021KT 08/04 Q0985=
0071010231999992014010700204+64350+007800FM-15+000099999V0201301N010819999999N999999999+00701+00301999999ADDMA1098501999990REMMET044METAR ENDR 070020Z AUTO 13021KT 07/03 Q0985=
0071010231999992014010700504+64350+007800FM-15+000099999V0201301N011319999999N999999999+00801+00301999999ADDMA1098501999990REMMET044METAR ENDR 070050Z AUTO 13022KT 08/03 Q0985=
0071010231999992014010701204+64350+007800FM-15+000099999V0201301N011319999999N999999999+00701+00301999999ADDMA1098501999990REMMET044METAR ENDR 070120Z AUTO 13022KT 07/03 Q0985=
0071010231999992014010701504+64350+007800FM-15+000099999V0201301N011819999999N999999999+00701+00301999999ADDMA1098401999990REMMET044METAR ENDR 070150Z AUTO 13023KT 07/03 Q0984=
0071010231999992014010702204+64350+007800FM-15+000099999V0201301N012919999999N999999999+00701+00301999999ADDMA1098401999990REMMET044METAR ENDR 070220Z AUTO 13025KT 07/03 Q0984=
0071010231999992014010702504+64350+007800FM-15+000099999V0201301N011819999999N999999999+00701+00301999999ADDMA1098401999990REMMET044METAR ENDR 070250Z AUTO 13023KT 07/03 Q0984=
0071010231999992014010703204+64350+007800FM-15+000099999V0201301N012919999999N999999999+00701+00201999999ADDMA1098401999990REMMET044METAR ENDR 070320Z AUTO 13025KT 07/02 Q0984=
0071010231999992014010703504+64350+007800FM-15+000099999V0201401N012419999999N999999999+00701+00301999999ADDMA1098401999990REMMET044METAR ENDR 070350Z AUTO 14024KT 07/03 Q0984=
0071010231999992014010704204+64350+007800FM-15+000099999V0201401N011319999999N999999999+00701+00301999999ADDMA1098401999990REMMET044METAR ENDR 070420Z AUTO 14022KT 07/03 Q0984=
0071010231999992014010704504+64350+007800FM-15+000099999V0201401N010319999999N999999999+00701+00301999999ADDMA1098401999990REMMET044METAR ENDR 070450Z AUTO 14020KT 07/03 Q0984=
0071010231999992014010705204+64350+007800FM-15+000099999V0201301N010819999999N999999999+00801+00201999999ADDMA1098401999990REMMET044METAR ENDR 070520Z AUTO 13021KT 08/02 Q0984=
0071010231999992014010705504+64350+007800FM-15+000099999V0201301N010319999999N999999999+00701+00301999999ADDMA1098401999990REMMET044METAR ENDR 070550Z AUTO 13020KT 07/03 Q0984=
0153010231999992014010706204+64350+007800FM-15+000099999V0201301N014410152419N009999199+00701+00201999999ADDGA1071+015241991GE19MSL   +99999+99999GF199999071990015241991991MA1098401999990MW1161REMMET056METAR ENDR 070620Z 13028KT 9999 VCSH BKN050 07/02 Q0984=
0071010231999992014010706504+64350+007800FM-15+000099999V0201301N010319999999N999999999+00701+00201999999ADDMA1098401999990REMMET044METAR ENDR 070650Z AUTO 13020KT 07/02 Q0984=
0071010231999992014010707204+64350+007800FM-15+000099999V0201301N010319999999N999999999+00701+00301999999ADDMA1098401999990REMMET044METAR ENDR 070720Z AUTO 13020KT 07/03 Q0984=
0071010231999992014010707504+64350+007800FM-15+000099999V0201301N009819999999N999999999+00701+00301999999ADDMA1098401999990REMMET044METAR ENDR 070750Z AUTO 13019KT 07/03 Q0984=
0071010231999992014010708204+64350+007800FM-15+000099999V0201301N009319999999N999999999+00701+00301999999ADDMA1098401999990REMMET044METAR ENDR 070820Z AUTO 13018KT 07/03 Q0984=
0071010231999992014010708504+64350+007800FM-15+000099999V0201301N008819999999N999999999+00701+00301999999ADDMA1098401999990REMMET044METAR ENDR 070850Z AUTO 13017KT 07/03 Q0984=
0072010231999992014010709104+64350+007800FM-15+000099999V0201301N008219999999Y999999999+00801+00401999999ADDMA1098401999990REMMET045METAR ENDR 070910Z 13016KT CAVOK 08/04 Q0984=
0071010231999992014010709504+64350+007800FM-15+000099999V0201401N006719999999N999999999+00801+00401999999ADDMA1098501999990REMMET044METAR ENDR 070950Z AUTO 14013KT 08/04 Q0985=
0071010231999992014010710204+64350+007800FM-15+000099999V0201501N007719999999N999999999+00801+00401999999ADDMA1098501999990REMMET044METAR ENDR 071020Z AUTO 15015KT 08/04 Q0985=
0071010231999992014010710504+64350+007800FM-15+000099999V0201601N007719999999N999999999+00901+00201999999ADDMA1098501999990REMMET044METAR ENDR 071050Z AUTO 16015KT 09/02 Q0985=
0071010231999992014010711204+64350+007800FM-15+000099999V0201301N006719999999N999999999+00801+00301999999ADDMA1098501999990REMMET044METAR ENDR 071120Z AUTO 13013KT 08/03 Q0985=
0071010231999992014010711504+64350+007800FM-15+000099999V0201301N007219999999N999999999+00901+00301999999ADDMA1098501999990REMMET044METAR ENDR 071150Z AUTO 13014KT 09/03 Q0985=
0156010231999992014010712104+64350+007800FM-15+000099999V0201301N007210304819N009999199+00901+00401999999ADDGA1071+030481081GE19MSL   +99999+99999GF199999071990030481991991MA1098401999990MW1161REMMET059METAR ENDR 071210Z 13014KT 9999 VCSH BKN100TCU 09/04 Q0984=
0071010231999992014010712504+64350+007800FM-15+000099999V0201501N008819999999N999999999+00901+00501999999ADDMA1098501999990REMMET044METAR ENDR 071250Z AUTO 15017KT 09/05 Q0985=
0071010231999992014010713204+64350+007800FM-15+000099999V0201501N008219999999N999999999+00901+00301999999ADDMA1098501999990REMMET044METAR ENDR 071320Z AUTO 15016KT 09/03 Q0985=
0071010231999992014010713504+64350+007800FM-15+000099999V0202001N011819999999N999999999+00801+00401999999ADDMA1098601999990REMMET044METAR ENDR 071350Z AUTO 20023KT 08/04 Q0986=
0071010231999992014010714204+64350+007800FM-15+000099999V0202001N005719999999N999999999+00801+00501999999ADDMA1098601999990REMMET044METAR ENDR 071420Z AUTO 20011KT 08/05 Q0986=
0071010231999992014010714504+64350+007800FM-15+000099999V0202001N002619999999N999999999+00801+00501999999ADDMA1098601999990REMMET044METAR ENDR 071450Z AUTO 20005KT 08/05 Q0986=
0165010231999992014010715204+64350+007800FM-15+000099999V0201801N00101021341CN009999199+00801+00501999999ADDGA1021+009141991GA2041+021341991GE19MSL   +99999+99999GF199999021990009141991991MA1098601999990REMMET058METAR ENDR 071520Z 18002KT 9999 FEW030 SCT070 08/05 Q0986=
0079010231999992014010715504+64350+007800FM-15+000099999V0201401V002119999999N999999999+00801+00401999999ADDMA1098601999990REMMET052METAR ENDR 071550Z AUTO 14004KT 100V170 08/04 Q0986=
0071010231999992014010716204+64350+007800FM-15+000099999V0201301N003619999999N999999999+00801+00401999999ADDMA1098601999990REMMET044METAR ENDR 071620Z AUTO 13007KT 08/04 Q0986=
0071010231999992014010716504+64350+007800FM-15+000099999V0201201N004619999999N999999999+00801+00401999999ADDMA1098601999990REMMET044METAR ENDR 071650Z AUTO 12009KT 08/04 Q0986=
0071010231999992014010717204+64350+007800FM-15+000099999V0201101N006719999999N999999999+00801+00601999999ADDMA1098601999990REMMET044METAR ENDR 071720Z AUTO 11013KT 08/06 Q0986=
0071010231999992014010717504+64350+007800FM-15+000099999V0201001N007719999999N999999999+00801+00501999999ADDMA1098601999990REMMET044METAR ENDR 071750Z AUTO 10015KT 08/05 Q0986=
0071010231999992014010718204+64350+007800FM-15+000099999V0201001N007719999999N999999999+00801+00501999999ADDMA1098601999990REMMET044METAR ENDR 071820Z AUTO 10015KT 08/05 Q0986=
0071010231999992014010718504+64350+007800FM-15+000099999V0201001N007219999999N999999999+00801+00501999999ADDMA1098701999990REMMET044METAR ENDR 071850Z AUTO 10014KT 08/05 Q0987=
0071010231999992014010719204+64350+007800FM-15+000099999V0201501N006219999999N999999999+00801+00401999999ADDMA1098701999990REMMET044METAR ENDR 071920Z AUTO 15012KT 08/04 Q0987=
0071010231999992014010719504+64350+007800FM-15+000099999V0201601N005719999999N999999999+00801+00401999999ADDMA1098701999990REMMET044METAR ENDR 071950Z AUTO 16011KT 08/04 Q0987=
0071010231999992014010720204+64350+007800FM-15+000099999V0201401N005119999999N999999999+00901+00201999999ADDMA1098701999990REMMET044METAR ENDR 072020Z AUTO 14010KT 09/02 Q0987=
0071010231999992014010720504+64350+007800FM-15+000099999V0201501N003619999999N999999999+00901+00201999999ADDMA1098701999990REMMET044METAR ENDR 072050Z AUTO 15007KT 09/02 Q0987=
0071010231999992014010721204+64350+007800FM-15+000099999V0201401N005119999999N999999999+00901+00501999999ADDMA1098801999990REMMET044METAR ENDR 072120Z AUTO 14010KT 09/05 Q0988=
0071010231999992014010721504+64350+007800FM-15+000099999V0201701N006719999999N999999999+00901+00301999999ADDMA1098801999990REMMET044METAR ENDR 072150Z AUTO 17013KT 09/03 Q0988=
0071010231999992014010722204+64350+007800FM-15+000099999V0202101N007719999999N999999999+00801+00501999999ADDMA1098901999990REMMET044METAR ENDR 072220Z AUTO 21015KT 08/05 Q0989=
0071010231999992014010722504+64350+007800FM-15+000099999V0202201N005719999999N999999999+00701+00501999999ADDMA1098901999990REMMET044METAR ENDR 072250Z AUTO 22011KT 07/05 Q0989=
0071010231999992014010723204+64350+007800FM-15+000099999V0202001N005719999999N999999999+00801+00401999999ADDMA1098901999990REMMET044METAR ENDR 072320Z AUTO 20011KT 08/04 Q0989=
0071010231999992014010723504+64350+007800FM-15+000099999V0201901N005119999999N999999999+00801+00401999999ADDMA1098901999990REMMET044METAR ENDR 072350Z AUTO 19010KT 08/04 Q0989=
0071010231999992014010800204+64350+007800FM-15+000099999V0201901N005119999999N999999999+00701+00401999999ADDMA1098901999990REMMET044METAR ENDR 080020Z AUTO 19010KT 07/04 Q0989=
0071010231999992014010800504+64350+007800FM-15+000099999V0202001N003119999999N999999999+00701+00501999999ADDMA1099001999990REMMET044METAR ENDR 080050Z AUTO 20006KT 07/05 Q0990=
0071010231999992014010801204+64350+007800FM-15+000099999V0201701N004119999999N999999999+00701+00601999999ADDMA1099001999990REMMET044METAR ENDR 080120Z AUTO 17008KT 07/06 Q0990=
0071010231999992014010801504+64350+007800FM-15+000099999V0201601N003619999999N999999999+00801+00401999999ADDMA1099001999990REMMET044METAR ENDR 080150Z AUTO 16007KT 08/04 Q0990=
0071010231999992014010802204+64350+007800FM-15+000099999V0201501N006219999999N999999999+00801+00501999999ADDMA1099001999990REMMET044METAR ENDR 080220Z AUTO 15012KT 08/05 Q0990=
0071010231999992014010802504+64350+007800FM-15+000099999V0201701N005719999999N999999999+00801+00401999999ADDMA1099001999990REMMET044METAR ENDR 080250Z AUTO 17011KT 08/04 Q0990=
0071010231999992014010803204+64350+007800FM-15+000099999V0202001N005719999999N999999999+00801+00501999999ADDMA1099001999990REMMET044METAR ENDR 080320Z AUTO 20011KT 08/05 Q0990=
0071010231999992014010804204+64350+007800FM-15+000099999V0201701N004119999999N999999999+00801+00401999999ADDMA1099001999990REMMET044METAR ENDR 080420Z AUTO 17008KT 08/04 Q0990=
0071010231999992014010804504+64350+007800FM-15+000099999V0201401N004619999999N999999999+00801+00401999999ADDMA1099001999990REMMET044METAR ENDR 080450Z AUTO 14009KT 08/04 Q0990=
0071010231999992014010805204+64350+007800FM-15+000099999V0201301N005119999999N999999999+00801+00301999999ADDMA1099001999990REMMET044METAR ENDR 080520Z AUTO 13010KT 08/03 Q0990=
0071010231999992014010805504+64350+007800FM-15+000099999V0201201N004619999999N999999999+00801+00401999999ADDMA1099001999990REMMET044METAR ENDR 080550Z AUTO 12009KT 08/04 Q0990=
0153010231999992014010806104+64350+007800FM-15+000099999V0201101N005710152419N009999199+00801+00401999999ADDGA1071+015241991GE19MSL   +99999+99999GF199999071990015241991991MA1099001999990MW1161REMMET056METAR ENDR 080610Z 11011KT 9999 VCSH BKN050 08/04 Q0990=
0071010231999992014010806504+64350+007800FM-15+000099999V0201201N007219999999N999999999+00801+00501999999ADDMA1099101999990REMMET044METAR ENDR 080650Z AUTO 12014KT 08/05 Q0991=
0071010231999992014010807204+64350+007800FM-15+000099999V0201201N006219999999N999999999+00801+00401999999ADDMA1099101999990REMMET044METAR ENDR 080720Z AUTO 12012KT 08/04 Q0991=
0071010231999992014010807504+64350+007800FM-15+000099999V0201301N006219999999N999999999+00801+00401999999ADDMA1099101999990REMMET044METAR ENDR 080750Z AUTO 13012KT 08/04 Q0991=
0071010231999992014010808204+64350+007800FM-15+000099999V0201301N008219999999N999999999+00801+00401999999ADDMA1099101999990REMMET044METAR ENDR 080820Z AUTO 13016KT 08/04 Q0991=
0071010231999992014010808504+64350+007800FM-15+000099999V0201301N007219999999N999999999+00701+00401999999ADDMA1099201999990REMMET044METAR ENDR 080850Z AUTO 13014KT 07/04 Q0992=
0071010231999992014010809204+64350+007800FM-15+000099999V0201401N006219999999N999999999+00801+00501999999ADDMA1099201999990REMMET044METAR ENDR 080920Z AUTO 14012KT 08/05 Q0992=
0071010231999992014010809504+64350+007800FM-15+000099999V0201501N005119999999N999999999+00801+00501999999ADDMA1099201999990REMMET044METAR ENDR 080950Z AUTO 15010KT 08/05 Q0992=
0071010231999992014010810204+64350+007800FM-15+000099999V0201401N005119999999N999999999+00801+00601999999ADDMA1099201999990REMMET044METAR ENDR 081020Z AUTO 14010KT 08/06 Q0992=
0071010231999992014010810504+64350+007800FM-15+000099999V0201301N004619999999N999999999+00801+00601999999ADDMA1099301999990REMMET044METAR ENDR 081050Z AUTO 13009KT 08/06 Q0993=
0071010231999992014010811204+64350+007800FM-15+000099999V0201201N004119999999N999999999+00801+00501999999ADDMA1099201999990REMMET044METAR ENDR 081120Z AUTO 12008KT 08/05 Q0992=
0071010231999992014010811504+64350+007800FM-15+000099999V0201101N004119999999N999999999+00801+00501999999ADDMA1099201999990REMMET044METAR ENDR 081150Z AUTO 11008KT 08/05 Q0992=
0176010231999992014010812104+64350+007800FM-15+000099999V0201201N004610182919N009999199+00801+00501999999ADDGA1021+009141991GA2071+018291991GE19MSL   +99999+99999GF199999021990009141991991MA1099301999990MW1161REMMET063METAR ENDR 081210Z 12009KT 9999 VCSH FEW030 BKN060 08/05 Q0993=
0071010231999992014010812504+64350+007800FM-15+000099999V0201001N005719999999N999999999+00801+00501999999ADDMA1099301999990REMMET044METAR ENDR 081250Z AUTO 10011KT 08/05 Q0993=
0071010231999992014010813204+64350+007800FM-15+000099999V0201001N006219999999N999999999+00801+00401999999ADDMA1099301999990REMMET044METAR ENDR 081320Z AUTO 10012KT 08/04 Q0993=
0071010231999992014010813504+64350+007800FM-15+000099999V0201001N007719999999N999999999+00701+00501999999ADDMA1099201999990REMMET044METAR ENDR 081350Z AUTO 10015KT 07/05 Q0992=
0071010231999992014010814204+64350+007800FM-15+000099999V0201201N007719999999N999999999+00701+00501999999ADDMA1099301999990REMMET044METAR ENDR 081420Z AUTO 12015KT 07/05 Q0993=
0071010231999992014010814504+64350+007800FM-15+000099999V0201201N006719999999N999999999+00701+00501999999ADDMA1099301999990REMMET044METAR ENDR 081450Z AUTO 12013KT 07/05 Q0993=
0165010231999992014010815104+64350+007800FM-15+000099999V0201101N00671018291CN009999199+00701+00401999999ADDGA1021+013721991GA2041+018291991GE19MSL   +99999+99999GF199999021990013721991991MA1099301999990REMMET058METAR ENDR 081510Z 11013KT 9999 FEW045 SCT060 07/04 Q0993=
0071010231999992014010815504+64350+007800FM-15+000099999V0201101N006219999999N999999999+00701+00501999999ADDMA1099301999990REMMET044METAR ENDR 081550Z AUTO 11012KT 07/05 Q0993=
0071010231999992014010816204+64350+007800FM-15+000099999V0201301N006219999999N999999999+00701+00401999999ADDMA1099301999990REMMET044METAR ENDR 081620Z AUTO 13012KT 07/04 Q0993=
0071010231999992014010816504+64350+007800FM-15+000099999V0201301N006719999999N999999999+00701+00401999999ADDMA1099301999990REMMET044METAR ENDR 081650Z AUTO 13013KT 07/04 Q0993=
0071010231999992014010817204+64350+007800FM-15+000099999V0201401N006219999999N999999999+00701+00401999999ADDMA1099301999990REMMET044METAR ENDR 081720Z AUTO 14012KT 07/04 Q0993=
0071010231999992014010817504+64350+007800FM-15+000099999V0201801N006719999999N999999999+00701+00501999999ADDMA1099401999990REMMET044METAR ENDR 081750Z AUTO 18013KT 07/05 Q0994=
0071010231999992014010818204+64350+007800FM-15+000099999V0202101N005719999999N999999999+00701+00501999999ADDMA1099401999990REMMET044METAR ENDR 081820Z AUTO 21011KT 07/05 Q0994=
0071010231999992014010818504+64350+007800FM-15+000099999V0201701N007219999999N999999999+00701+00401999999ADDMA1099401999990REMMET044METAR ENDR 081850Z AUTO 17014KT 07/04 Q0994=
0071010231999992014010819204+64350+007800FM-15+000099999V0201501N005719999999N999999999+00801+00301999999ADDMA1099401999990REMMET044METAR ENDR 081920Z AUTO 15011KT 08/03 Q0994=
0071010231999992014010819504+64350+007800FM-15+000099999V0201301N007719999999N999999999+00701+00401999999ADDMA1099401999990REMMET044METAR ENDR 081950Z AUTO 13015KT 07/04 Q0994=
0071010231999992014010820204+64350+007800FM-15+000099999V0201201N006219999999N999999999+00701+00501999999ADDMA1099501999990REMMET044METAR ENDR 082020Z AUTO 12012KT 07/05 Q0995=
0071010231999992014010820504+64350+007800FM-15+000099999V0201201N005719999999N999999999+00701+00501999999ADDMA1099501999990REMMET044METAR ENDR 082050Z AUTO 12011KT 07/05 Q0995=
0071010231999992014010821204+64350+007800FM-15+000099999V0201301N003619999999N999999999+00701+00501999999ADDMA1099501999990REMMET044METAR ENDR 082120Z AUTO 13007KT 07/05 Q0995=
0071010231999992014010822504+64350+007800FM-15+000099999V0200801N005119999999N999999999+00701+00501999999ADDMA1099501999990REMMET044METAR ENDR 082250Z AUTO 08010KT 07/05 Q0995=
0071010231999992014010823204+64350+007800FM-15+000099999V0200901N005119999999N999999999+00701+00501999999ADDMA1099501999990REMMET044METAR ENDR 082320Z AUTO 09010KT 07/05 Q0995=
0071010231999992014010823504+64350+007800FM-15+000099999V0201801N004119999999N999999999+00601+00501999999ADDMA1099601999990REMMET044METAR ENDR 082350Z AUTO 18008KT 06/05 Q0996=
0071010231999992014010900204+64350+007800FM-15+000099999V0201801N003119999999N999999999+00601+00501999999ADDMA1099601999990REMMET044METAR ENDR 090020Z AUTO 18006KT 06/05 Q0996=
0071010231999992014010900504+64350+007800FM-15+000099999V0201701N005119999999N999999999+00601+00501999999ADDMA1099601999990REMMET044METAR ENDR 090050Z AUTO 17010KT 06/05 Q0996=
0071010231999992014010901204+64350+007800FM-15+000099999V0201501N004119999999N999999999+00601+00501999999ADDMA1099601999990REMMET044METAR ENDR 090120Z AUTO 15008KT 06/05 Q0996=
0071010231999992014010901504+64350+007800FM-15+000099999V0201601N005719999999N999999999+00601+00501999999ADDMA1099601999990REMMET044METAR ENDR 090150Z AUTO 16011KT 06/05 Q0996=
0071010231999992014010902204+64350+007800FM-15+000099999V0201401N005719999999N999999999+00601+00601999999ADDMA1099601999990REMMET044METAR ENDR 090220Z AUTO 14011KT 06/06 Q0996=
0071010231999992014010902504+64350+007800FM-15+000099999V0201601N005119999999N999999999+00601+00601999999ADDMA1099501999990REMMET044METAR ENDR 090250Z AUTO 16010KT 06/06 Q0995=
0079010231999992014010903204+64350+007800FM-15+000099999V0201501V002619999999N999999999+00601+00501999999ADDMA1099501999990REMMET052METAR ENDR 090320Z AUTO 15005KT 130V190 06/05 Q0995=
0079010231999992014010903504+64350+007800FM-15+000099999V0201101V003119999999N999999999+00601+00501999999ADDMA1099501999990REMMET052METAR ENDR 090350Z AUTO 11006KT 080V160 06/05 Q0995=
0079010231999992014010904204+64350+007800FM-15+000099999V0201101V002619999999N999999999+00601+00501999999ADDMA1099501999990REMMET052METAR ENDR 090420Z AUTO 11005KT 080V140 06/05 Q0995=
0079010231999992014010904504+64350+007800FM-15+000099999V0201401V004119999999N999999999+00601+00501999999ADDMA1099501999990REMMET052METAR ENDR 090450Z AUTO 14008KT 110V170 06/05 Q0995=
0071010231999992014010905204+64350+007800FM-15+000099999V0201201N005119999999N999999999+00601+00601999999ADDMA1099501999990REMMET044METAR ENDR 090520Z AUTO 12010KT 06/06 Q0995=
0071010231999992014010905504+64350+007800FM-15+000099999V0201401N005119999999N999999999+00601+00501999999ADDMA1099501999990REMMET044METAR ENDR 090550Z AUTO 14010KT 06/05 Q0995=
0151010231999992014010906204+64350+007800FM-15+000099999V0201201N005710030519N009999199+00601+00501999999ADDGA1071+003051991GE19MSL   +99999+99999GF199999071990003051991991MA1099501999990MW1631REMMET054METAR ENDR 090620Z 12011KT 9999 RA BKN010 06/05 Q0995=
0071010231999992014010906504+64350+007800FM-15+000099999V0200801N006719999999N999999999+00601+00601999999ADDMA1099501999990REMMET044METAR ENDR 090650Z AUTO 08013KT 06/06 Q0995=
0071010231999992014010907204+64350+007800FM-15+000099999V0201101N006719999999N999999999+00601+00501999999ADDMA1099601999990REMMET044METAR ENDR 090720Z AUTO 11013KT 06/05 Q0996=
0071010231999992014010907504+64350+007800FM-15+000099999V0201301N005719999999N999999999+00501+00501999999ADDMA1099601999990REMMET044METAR ENDR 090750Z AUTO 13011KT 05/05 Q0996=
0071010231999992014010908204+64350+007800FM-15+000099999V0201101N006219999999N999999999+00501+00501999999ADDMA1099601999990REMMET044METAR ENDR 090820Z AUTO 11012KT 05/05 Q0996=
0071010231999992014010908504+64350+007800FM-15+000099999V0200901N007219999999N999999999+00601+00501999999ADDMA1099601999990REMMET044METAR ENDR 090850Z AUTO 09014KT 06/05 Q0996=
0071010231999992014010909204+64350+007800FM-15+000099999V0200901N007219999999N999999999+00601+00501999999ADDMA1099601999990REMMET044METAR ENDR 090920Z AUTO 09014KT 06/05 Q0996=
0071010231999992014010909504+64350+007800FM-15+000099999V0200801N008219999999N999999999+00601+00501999999ADDMA1099601999990REMMET044METAR ENDR 090950Z AUTO 08016KT 06/05 Q0996=
0071010231999992014010910204+64350+007800FM-15+000099999V0200701N009319999999N999999999+00601+00501999999ADDMA1099601999990REMMET044METAR ENDR 091020Z AUTO 07018KT 06/05 Q0996=
0071010231999992014010910504+64350+007800FM-15+000099999V0200601N009319999999N999999999+00601+00401999999ADDMA1099601999990REMMET044METAR ENDR 091050Z AUTO 06018KT 06/04 Q0996=
0071010231999992014010911204+64350+007800FM-15+000099999V0200601N011319999999N999999999+00501+00301999999ADDMA1099601999990REMMET044METAR ENDR 091120Z AUTO 06022KT 05/03 Q0996=
0071010231999992014010911504+64350+007800FM-15+000099999V0200601N011319999999N999999999+00501+00301999999ADDMA1099501999990REMMET044METAR ENDR 091150Z AUTO 06022KT 05/03 Q0995=
0152010231999992014010912104+64350+007800FM-15+000099999V0200601N010810039619N009999199+00501+00301999999ADDGA1071+003961991GE19MSL   +99999+99999GF199999071990003961991991MA1099501999990MW1611REMMET055METAR ENDR 091210Z 06021KT 9999 -RA BKN013 05/03 Q0995=
0071010231999992014010912504+64350+007800FM-15+000099999V0200601N009819999999N999999999+00501+00301999999ADDMA1099501999990REMMET044METAR ENDR 091250Z AUTO 06019KT 05/03 Q0995=
0071010231999992014010913204+64350+007800FM-15+000099999V0200601N010319999999N999999999+00501+00201999999ADDMA1099501999990REMMET044METAR ENDR 091320Z AUTO 06020KT 05/02 Q0995=
0071010231999992014010913504+64350+007800FM-15+000099999V0200601N009319999999N999999999+00501+00101999999ADDMA1099501999990REMMET044METAR ENDR 091350Z AUTO 06018KT 05/01 Q0995=
0071010231999992014010914204+64350+007800FM-15+000099999V0200701N009819999999N999999999+00501+00101999999ADDMA1099501999990REMMET044METAR ENDR 091420Z AUTO 07019KT 05/01 Q0995=
0071010231999992014010914504+64350+007800FM-15+000099999V0200701N009819999999N999999999+00501+00201999999ADDMA1099501999990REMMET044METAR ENDR 091450Z AUTO 07019KT 05/02 Q0995=
0071010231999992014010915204+64350+007800FM-15+000099999V0200701N010319999999N999999999+00501+00101999999ADDMA1099501999990REMMET044METAR ENDR 091520Z AUTO 07020KT 05/01 Q0995=
0072010231999992014010915504+64350+007800FM-15+000099999V0200601N010319999999N999999999+00601-00101999999ADDMA1099501999990REMMET045METAR ENDR 091550Z AUTO 06020KT 06/M01 Q0995=
0072010231999992014010916204+64350+007800FM-15+000099999V0200601N011819999999N999999999+00601-00101999999ADDMA1099501999990REMMET045METAR ENDR 091620Z AUTO 06023KT 06/M01 Q0995=
0072010231999992014010916504+64350+007800FM-15+000099999V0200501N012919999999N999999999+00601+00001999999ADDMA1099501999990REMMET045METAR ENDR 091650Z AUTO 05025KT 06/M00 Q0995=
0072010231999992014010917204+64350+007800FM-15+000099999V0200501N012919999999N999999999+00601+00001999999ADDMA1099501999990REMMET045METAR ENDR 091720Z AUTO 05025KT 06/M00 Q0995=
0072010231999992014010917504+64350+007800FM-15+000099999V0200601N012419999999N999999999+00601-00101999999ADDMA1099501999990REMMET045METAR ENDR 091750Z AUTO 06024KT 06/M01 Q0995=
0071010231999992014010918204+64350+007800FM-15+000099999V0200501N012419999999N999999999+00601+00001999999ADDMA1099501999990REMMET044METAR ENDR 091820Z AUTO 05024KT 06/00 Q0995=
0071010231999992014010918504+64350+007800FM-15+000099999V0200301N012919999999N999999999+00601+00101999999ADDMA1099501999990REMMET044METAR ENDR 091850Z AUTO 03025KT 06/01 Q0995=
0071010231999992014010919204+64350+007800FM-15+000099999V0200501N011819999999N999999999+00601+00001999999ADDMA1099501999990REMMET044METAR ENDR 091920Z AUTO 05023KT 06/00 Q0995=
0071010231999992014010919504+64350+007800FM-15+000099999V0200501N012919999999N999999999+00501+00101999999ADDMA1099501999990REMMET044METAR ENDR 091950Z AUTO 05025KT 05/01 Q0995=
0072010231999992014010920204+64350+007800FM-15+000099999V0200401N012919999999N999999999+00601-00101999999ADDMA1099501999990REMMET045METAR ENDR 092020Z AUTO 04025KT 06/M01 Q0995=
0071010231999992014010920504+64350+007800FM-15+000099999V0200401N012919999999N999999999+00601+00001999999ADDMA1099501999990REMMET044METAR ENDR 092050Z AUTO 04025KT 06/00 Q0995=
0072010231999992014010921204+64350+007800FM-15+000099999V0200401N012919999999N999999999+00501-00101999999ADDMA1099501999990REMMET045METAR ENDR 092120Z AUTO 04025KT 05/M01 Q0995=
0072010231999992014010921504+64350+007800FM-15+000099999V0200401N012919999999N999999999+00501-00101999999ADDMA1099501999990REMMET045METAR ENDR 092150Z AUTO 04025KT 05/M01 Q0995=
0072010231999992014010922204+64350+007800FM-15+000099999V0200301N012919999999N999999999+00501-00101999999ADDMA1099501999990REMMET045METAR ENDR 092220Z AUTO 03025KT 05/M01 Q0995=
0072010231999992014010922504+64350+007800FM-15+000099999V0200201N013919999999N999999999+00401-00201999999ADDMA1099601999990REMMET045METAR ENDR 092250Z AUTO 02027KT 04/M02 Q0996=
0072010231999992014010923204+64350+007800FM-15+000099999V0200201N014419999999N999999999+00401-00101999999ADDMA1099601999990REMMET045METAR ENDR 092320Z AUTO 02028KT 04/M01 Q0996=
0072010231999992014010923504+64350+007800FM-15+000099999V0200201N013919999999N999999999+00401-00101999999ADDMA1099601999990REMMET045METAR ENDR 092350Z AUTO 02027KT 04/M01 Q0996=
0072010231999992014011000204+64350+007800FM-15+000099999V0200201N014419999999N999999999+00401-00101999999ADDMA1099501999990REMMET045METAR ENDR 100020Z AUTO 02028KT 04/M01 Q0995=
0071010231999992014011000504+64350+007800FM-15+000099999V0200201N014919999999N999999999+00401+00001999999ADDMA1099501999990REMMET044METAR ENDR 100050Z AUTO 02029KT 04/00 Q0995=
0071010231999992014011001204+64350+007800FM-15+000099999V0200301N015419999999N999999999+00301+00101999999ADDMA1099501999990REMMET044METAR ENDR 100120Z AUTO 03030KT 03/01 Q0995=
0071010231999992014011001504+64350+007800FM-15+000099999V0200501N012919999999N999999999+00301+00101999999ADDMA1099601999990REMMET044METAR ENDR 100150Z AUTO 05025KT 03/01 Q0996=
0071010231999992014011002204+64350+007800FM-15+000099999V0200501N012919999999N999999999+00301+00001999999ADDMA1099601999990REMMET044METAR ENDR 100220Z AUTO 05025KT 03/00 Q0996=
0072010231999992014011002504+64350+007800FM-15+000099999V0200501N011319999999N999999999+00301-00101999999ADDMA1099601999990REMMET045METAR ENDR 100250Z AUTO 05022KT 03/M01 Q0996=
0072010231999992014011003204+64350+007800FM-15+000099999V0200501N011819999999N999999999+00301-00101999999ADDMA1099601999990REMMET045METAR ENDR 100320Z AUTO 05023KT 03/M01 Q0996=
0072010231999992014011003504+64350+007800FM-15+000099999V0200501N010819999999N999999999+00201-00201999999ADDMA1099601999990REMMET045METAR ENDR 100350Z AUTO 05021KT 02/M02 Q0996=
0072010231999992014011004204+64350+007800FM-15+000099999V0200401N010819999999N999999999+00201-00101999999ADDMA1099601999990REMMET045METAR ENDR 100420Z AUTO 04021KT 02/M01 Q0996=
0072010231999992014011004504+64350+007800FM-15+000099999V0200401N007719999999N999999999+00101+00001999999ADDMA1099601999990REMMET045METAR ENDR 100450Z AUTO 04015KT 01/M00 Q0996=
0072010231999992014011005204+64350+007800FM-15+000099999V0200601N011819999999N999999999+00101-00301999999ADDMA1099601999990REMMET045METAR ENDR 100520Z AUTO 06023KT 01/M03 Q0996=
0072010231999992014011005504+64350+007800FM-15+000099999V0200601N012419999999N999999999+00101-00401999999ADDMA1099701999990REMMET045METAR ENDR 100550Z AUTO 06024KT 01/M04 Q0997=
0154010231999992014011006104+64350+007800FM-15+000099999V0200601N012910076219N009999199+00101-00401999999ADDGA1071+007621991GE19MSL   +99999+99999GF199999071990007621991991MA1099701999990MW1161REMMET057METAR ENDR 100610Z 06025KT 9999 VCSH BKN025 01/M04 Q0997=
0072010231999992014011006504+64350+007800FM-15+000099999V0200601N012919999999N999999999+00101-00501999999ADDMA1099701999990REMMET045METAR ENDR 100650Z AUTO 06025KT 01/M05 Q0997=
0072010231999992014011007204+64350+007800FM-15+000099999V0200601N012919999999N999999999+00001-00501999999ADDMA1099801999990REMMET045METAR ENDR 100720Z AUTO 06025KT 00/M05 Q0998=
0072010231999992014011007504+64350+007800FM-15+000099999V0200601N013419999999N999999999+00001-00501999999ADDMA1099801999990REMMET045METAR ENDR 100750Z AUTO 06026KT 00/M05 Q0998=
0073010231999992014011008204+64350+007800FM-15+000099999V0200601N012419999999N999999999+00001-00501999999ADDMA1099801999990REMMET046METAR ENDR 100820Z AUTO 06024KT M00/M05 Q0998=
0073010231999992014011008504+64350+007800FM-15+000099999V0200601N011319999999N999999999+00001-00601999999ADDMA1099801999990REMMET046METAR ENDR 100850Z AUTO 06022KT M00/M06 Q0998=
0073010231999992014011009204+64350+007800FM-15+000099999V0200601N011819999999N999999999-00101-00601999999ADDMA1099901999990REMMET046METAR ENDR 100920Z AUTO 06023KT M01/M06 Q0999=
0073010231999992014011009504+64350+007800FM-15+000099999V0200601N012419999999N999999999-00101-00701999999ADDMA1099901999990REMMET046METAR ENDR 100950Z AUTO 06024KT M01/M07 Q0999=
0073010231999992014011010204+64350+007800FM-15+000099999V0200601N012419999999N999999999-00101-00801999999ADDMA1099901999990REMMET046METAR ENDR 101020Z AUTO 06024KT M01/M08 Q0999=
0073010231999992014011010504+64350+007800FM-15+000099999V0200601N012419999999N999999999-00101-00701999999ADDMA1099901999990REMMET046METAR ENDR 101050Z AUTO 06024KT M01/M07 Q0999=
0073010231999992014011011204+64350+007800FM-15+000099999V0200501N013919999999N999999999-00101-00801999999ADDMA1099901999990REMMET046METAR ENDR 101120Z AUTO 05027KT M01/M08 Q0999=
0073010231999992014011011504+64350+007800FM-15+000099999V0200501N014419999999N999999999-00201-00701999999ADDMA1099901999990REMMET046METAR ENDR 101150Z AUTO 05028KT M02/M07 Q0999=
0144010231999992014011012104+64350+007800FM-15+000099999V0200501N014910076219N009999199-00201-00801999999ADDGA1071+007621991GE19MSL   +99999+99999GF199999071990007621991991MA1099901999990REMMET053METAR ENDR 101210Z 05029KT 9999 BKN025 M02/M08 Q0999=
0073010231999992014011012504+64350+007800FM-15+000099999V0200501N013419999999N999999999-00301-00801999999ADDMA1100001999990REMMET046METAR ENDR 101250Z AUTO 05026KT M03/M08 Q1000=
0073010231999992014011013204+64350+007800FM-15+000099999V0200501N013419999999N999999999-00201-00801999999ADDMA1100001999990REMMET046METAR ENDR 101320Z AUTO 05026KT M02/M08 Q1000=
0073010231999992014011013504+64350+007800FM-15+000099999V0200501N013919999999N999999999-00301-00801999999ADDMA1100001999990REMMET046METAR ENDR 101350Z AUTO 05027KT M03/M08 Q1000=
0073010231999992014011014204+64350+007800FM-15+000099999V0200501N013419999999N999999999-00301-00801999999ADDMA1100001999990REMMET046METAR ENDR 101420Z AUTO 05026KT M03/M08 Q1000=
0073010231999992014011014504+64350+007800FM-15+000099999V0200501N014919999999N999999999-00301-00901999999ADDMA1100001999990REMMET046METAR ENDR 101450Z AUTO 05029KT M03/M09 Q1000=
0155010231999992014011015204+64350+007800FM-15+000099999V0200501N015410076219N009999199-00301-00901999999ADDGA1071+007621991GE19MSL   +99999+99999GF199999071990007621991991MA1100001999990MW1161REMMET058METAR ENDR 101520Z 05030KT 9999 VCSH BKN025 M03/M09 Q1000=
0073010231999992014011015504+64350+007800FM-15+000099999V0200601N016019999999N999999999-00301-00901999999ADDMA1100001999990REMMET046METAR ENDR 101550Z AUTO 06031KT M03/M09 Q1000=
0073010231999992014011016204+64350+007800FM-15+000099999V0200601N014919999999N999999999-00301-00801999999ADDMA1100101999990REMMET046METAR ENDR 101620Z AUTO 06029KT M03/M08 Q1001=
0073010231999992014011016504+64350+007800FM-15+000099999V0200601N016019999999N999999999-00301-00801999999ADDMA1100101999990REMMET046METAR ENDR 101650Z AUTO 06031KT M03/M08 Q1001=
0073010231999992014011017204+64350+007800FM-15+000099999V0200601N014919999999N999999999-00301-00901999999ADDMA1100101999990REMMET046METAR ENDR 101720Z AUTO 06029KT M03/M09 Q1001=
0073010231999992014011017504+64350+007800FM-15+000099999V0200601N014419999999N999999999-00301-00801999999ADDMA1100101999990REMMET046METAR ENDR 101750Z AUTO 06028KT M03/M08 Q1001=
0073010231999992014011018204+64350+007800FM-15+000099999V0200601N014419999999N999999999-00301-00901999999ADDMA1100101999990REMMET046METAR ENDR 101820Z AUTO 06028KT M03/M09 Q1001=
0073010231999992014011018504+64350+007800FM-15+000099999V0200501N015419999999N999999999-00301-01001999999ADDMA1100101999990REMMET046METAR ENDR 101850Z AUTO 05030KT M03/M10 Q1001=
0073010231999992014011019204+64350+007800FM-15+000099999V0200601N014919999999N999999999-00301-00801999999ADDMA1100101999990REMMET046METAR ENDR 101920Z AUTO 06029KT M03/M08 Q1001=
0073010231999992014011019504+64350+007800FM-15+000099999V0200601N015419999999N999999999-00301-00801999999ADDMA1100101999990REMMET046METAR ENDR 101950Z AUTO 06030KT M03/M08 Q1001=
0073010231999992014011020204+64350+007800FM-15+000099999V0200601N016019999999N999999999-00301-01001999999ADDMA1100101999990REMMET046METAR ENDR 102020Z AUTO 06031KT M03/M10 Q1001=
0084010231999992014011020504+64350+007800FM-15+000099999V0200501N014919999999N999999999-00301-00801999999ADDMA1100101999990OC102061REMMET049METAR ENDR 102050Z AUTO 05029G40KT M03/M08 Q1001=
0073010231999992014011021204+64350+007800FM-15+000099999V0200601N013919999999N999999999-00401-00801999999ADDMA1100101999990REMMET046METAR ENDR 102120Z AUTO 06027KT M04/M08 Q1001=
0073010231999992014011021504+64350+007800FM-15+000099999V0200601N013419999999N999999999-00301-00801999999ADDMA1100201999990REMMET046METAR ENDR 102150Z AUTO 06026KT M03/M08 Q1002=
0073010231999992014011022204+64350+007800FM-15+000099999V0200601N013919999999N999999999-00401-00801999999ADDMA1100201999990REMMET046METAR ENDR 102220Z AUTO 06027KT M04/M08 Q1002=
0073010231999992014011022504+64350+007800FM-15+000099999V0200701N013419999999N999999999-00401-00801999999ADDMA1100201999990REMMET046METAR ENDR 102250Z AUTO 07026KT M04/M08 Q1002=
0073010231999992014011023204+64350+007800FM-15+000099999V0200601N012419999999N999999999-00401-00801999999ADDMA1100201999990REMMET046METAR ENDR 102320Z AUTO 06024KT M04/M08 Q1002=
0073010231999992014011023504+64350+007800FM-15+000099999V0200701N013419999999N999999999-00401-00901999999ADDMA1100201999990REMMET046METAR ENDR 102350Z AUTO 07026KT M04/M09 Q1002=
0073010231999992014011100204+64350+007800FM-15+000099999V0200701N012919999999N999999999-00401-01001999999ADDMA1100201999990REMMET046METAR ENDR 110020Z AUTO 07025KT M04/M10 Q1002=
0073010231999992014011100504+64350+007800FM-15+000099999V0200601N011319999999N999999999-00401-01001999999ADDMA1100201999990REMMET046METAR ENDR 110050Z AUTO 06022KT M04/M10 Q1002=
0073010231999992014011101204+64350+007800FM-15+000099999V0200701N012419999999N999999999-00401-00801999999ADDMA1100201999990REMMET046METAR ENDR 110120Z AUTO 07024KT M04/M08 Q1002=
0073010231999992014011101504+64350+007800FM-15+000099999V0200601N012419999999N999999999-00401-00701999999ADDMA1100101999990REMMET046METAR ENDR 110150Z AUTO 06024KT M04/M07 Q1001=
0073010231999992014011102204+64350+007800FM-15+000099999V0200701N012419999999N999999999-00401-00801999999ADDMA1100101999990REMMET046METAR ENDR 110220Z AUTO 07024KT M04/M08 Q1001=
0073010231999992014011102504+64350+007800FM-15+000099999V0200701N013419999999N999999999-00401-00901999999ADDMA1100101999990REMMET046METAR ENDR 110250Z AUTO 07026KT M04/M09 Q1001=
0073010231999992014011103204+64350+007800FM-15+000099999V0200801N012419999999N999999999-00401-00901999999ADDMA1100101999990REMMET046METAR ENDR 110320Z AUTO 08024KT M04/M09 Q1001=
0073010231999992014011103504+64350+007800FM-15+000099999V0200801N012419999999N999999999-00401-00801999999ADDMA1100101999990REMMET046METAR ENDR 110350Z AUTO 08024KT M04/M08 Q1001=
0073010231999992014011104204+64350+007800FM-15+000099999V0200701N013419999999N999999999-00401-00801999999ADDMA1100101999990REMMET046METAR ENDR 110420Z AUTO 07026KT M04/M08 Q1001=
0073010231999992014011104504+64350+007800FM-15+000099999V0200701N013419999999N999999999-00401-00901999999ADDMA1100101999990REMMET046METAR ENDR 110450Z AUTO 07026KT M04/M09 Q1001=
0073010231999992014011105204+64350+007800FM-15+000099999V0200801N012919999999N999999999-00401-00901999999ADDMA1100101999990REMMET046METAR ENDR 110520Z AUTO 08025KT M04/M09 Q1001=
0073010231999992014011105504+64350+007800FM-15+000099999V0200701N012919999999N999999999-00401-00801999999ADDMA1100101999990REMMET046METAR ENDR 110550Z AUTO 07025KT M04/M08 Q1001=
0155010231999992014011106204+64350+007800FM-15+000099999V0200801N012410061019N009999199-00401-00901999999ADDGA1071+006101991GE19MSL   +99999+99999GF199999071990006101991991MA1100101999990MW1861REMMET058METAR ENDR 110620Z 08024KT 9999 SHSN BKN020 M04/M09 Q1001=
0073010231999992014011106504+64350+007800FM-15+000099999V0200701N011319999999N999999999-00401-00901999999ADDMA1100101999990REMMET046METAR ENDR 110650Z AUTO 07022KT M04/M09 Q1001=
0073010231999992014011107204+64350+007800FM-15+000099999V0200801N011319999999N999999999-00401-00801999999ADDMA1100101999990REMMET046METAR ENDR 110720Z AUTO 08022KT M04/M08 Q1001=
0073010231999992014011107504+64350+007800FM-15+000099999V0200701N011819999999N999999999-00401-00801999999ADDMA1100101999990REMMET046METAR ENDR 110750Z AUTO 07023KT M04/M08 Q1001=
0073010231999992014011108204+64350+007800FM-15+000099999V0200801N011319999999N999999999-00401-00901999999ADDMA1100101999990REMMET046METAR ENDR 110820Z AUTO 08022KT M04/M09 Q1001=
0073010231999992014011108504+64350+007800FM-15+000099999V0200801N011319999999N999999999-00401-00801999999ADDMA1100101999990REMMET046METAR ENDR 110850Z AUTO 08022KT M04/M08 Q1001=
0156010231999992014011109104+64350+007800FM-15+000099999V0200701N012410054919N009999199-00401-00801999999ADDGA1071+005491991GE19MSL   +99999+99999GF199999071990005491991991MA1100101999990MW1851REMMET059METAR ENDR 110910Z 07024KT 9999 -SHSN BKN018 M04/M08 Q1001=
0073010231999992014011109504+64350+007800FM-15+000099999V0200701N011319999999N999999999-00401-00901999999ADDMA1100101999990REMMET046METAR ENDR 110950Z AUTO 07022KT M04/M09 Q1001=
0073010231999992014011110204+64350+007800FM-15+000099999V0200701N012419999999N999999999-00401-00801999999ADDMA1100101999990REMMET046METAR ENDR 111020Z AUTO 07024KT M04/M08 Q1001=
0073010231999992014011110504+64350+007800FM-15+000099999V0200801N012419999999N999999999-00401-00901999999ADDMA1100101999990REMMET046METAR ENDR 111050Z AUTO 08024KT M04/M09 Q1001=
0073010231999992014011111204+64350+007800FM-15+000099999V0200801N012919999999N999999999-00401-00901999999ADDMA1100101999990REMMET046METAR ENDR 111120Z AUTO 08025KT M04/M09 Q1001=
0073010231999992014011111504+64350+007800FM-15+000099999V0200701N014419999999N999999999-00401-00901999999ADDMA1100101999990REMMET046METAR ENDR 111150Z AUTO 07028KT M04/M09 Q1001=
0156010231999992014011112104+64350+007800FM-15+000099999V0200801N013410064019N009999199-00401-00901999999ADDGA1071+006401991GE19MSL   +99999+99999GF199999071990006401991991MA1100101999990MW1851REMMET059METAR ENDR 111210Z 08026KT 9999 -SHSN BKN021 M04/M09 Q1001=
0073010231999992014011112504+64350+007800FM-15+000099999V0200801N013919999999N999999999-00401-00901999999ADDMA1100101999990REMMET046METAR ENDR 111250Z AUTO 08027KT M04/M09 Q1001=
0073010231999992014011113204+64350+007800FM-15+000099999V0200801N014419999999N999999999-00401-00901999999ADDMA1100101999990REMMET046METAR ENDR 111320Z AUTO 08028KT M04/M09 Q1001=
0073010231999992014011113504+64350+007800FM-15+000099999V0200801N013419999999N999999999-00401-00901999999ADDMA1100101999990REMMET046METAR ENDR 111350Z AUTO 08026KT M04/M09 Q1001=
0073010231999992014011114204+64350+007800FM-15+000099999V0200801N013419999999N999999999-00401-00901999999ADDMA1100201999990REMMET046METAR ENDR 111420Z AUTO 08026KT M04/M09 Q1002=
0073010231999992014011114504+64350+007800FM-15+000099999V0200801N013419999999N999999999-00401-00901999999ADDMA1100201999990REMMET046METAR ENDR 111450Z AUTO 08026KT M04/M09 Q1002=
0144010231999992014011115104+64350+007800FM-15+000099999V0200801N013410064019N009999199-00401-00901999999ADDGA1071+006401991GE19MSL   +99999+99999GF199999071990006401991991MA1100201999990REMMET053METAR ENDR 111510Z 08026KT 9999 BKN021 M04/M09 Q1002=
0073010231999992014011115504+64350+007800FM-15+000099999V0200801N012419999999N999999999-00401-00901999999ADDMA1100201999990REMMET046METAR ENDR 111550Z AUTO 08024KT M04/M09 Q1002=
0073010231999992014011116204+64350+007800FM-15+000099999V0200801N012419999999N999999999-00401-00901999999ADDMA1100201999990REMMET046METAR ENDR 111620Z AUTO 08024KT M04/M09 Q1002=
0073010231999992014011116504+64350+007800FM-15+000099999V0200801N011819999999N999999999-00401-00901999999ADDMA1100201999990REMMET046METAR ENDR 111650Z AUTO 08023KT M04/M09 Q1002=
0073010231999992014011117204+64350+007800FM-15+000099999V0200901N012419999999N999999999-00401-00801999999ADDMA1100201999990REMMET046METAR ENDR 111720Z AUTO 09024KT M04/M08 Q1002=
0073010231999992014011117504+64350+007800FM-15+000099999V0200801N012919999999N999999999-00401-00901999999ADDMA1100201999990REMMET046METAR ENDR 111750Z AUTO 08025KT M04/M09 Q1002=
0073010231999992014011118204+64350+007800FM-15+000099999V0200801N012419999999N999999999-00401-00801999999ADDMA1100301999990REMMET046METAR ENDR 111820Z AUTO 08024KT M04/M08 Q1003=
0073010231999992014011118504+64350+007800FM-15+000099999V0200901N011819999999N999999999-00401-00801999999ADDMA1100301999990REMMET046METAR ENDR 111850Z AUTO 09023KT M04/M08 Q1003=
0065010231999992014011119204+64350+007800FM-15+000099999V0209999N999999999999N999999999-00401-00901999999ADDMA1100301999990REMMET038METAR ENDR 111920Z AUTO M04/M09 Q1003=
0073010231999992014011119504+64350+007800FM-15+000099999V0200801N010819999999N999999999-00401-00801999999ADDMA1100401999990REMMET046METAR ENDR 111950Z AUTO 08021KT M04/M08 Q1004=
0073010231999992014011120204+64350+007800FM-15+000099999V0200801N010819999999N999999999-00401-00901999999ADDMA1100401999990REMMET046METAR ENDR 112020Z AUTO 08021KT M04/M09 Q1004=
0073010231999992014011120504+64350+007800FM-15+000099999V0200801N011819999999N999999999-00401-00901999999ADDMA1100401999990REMMET046METAR ENDR 112050Z AUTO 08023KT M04/M09 Q1004=
0073010231999992014011121204+64350+007800FM-15+000099999V0200801N011319999999N999999999-00401-00801999999ADDMA1100401999990REMMET046METAR ENDR 112120Z AUTO 08022KT M04/M08 Q1004=
0073010231999992014011121504+64350+007800FM-15+000099999V0200801N011819999999N999999999-00401-00801999999ADDMA1100501999990REMMET046METAR ENDR 112150Z AUTO 08023KT M04/M08 Q1005=
0073010231999992014011122204+64350+007800FM-15+000099999V0200801N011819999999N999999999-00401-00901999999ADDMA1100501999990REMMET046METAR ENDR 112220Z AUTO 08023KT M04/M09 Q1005=
0073010231999992014011122504+64350+007800FM-15+000099999V0200801N011319999999N999999999-00401-00901999999ADDMA1100501999990REMMET046METAR ENDR 112250Z AUTO 08022KT M04/M09 Q1005=
0073010231999992014011123204+64350+007800FM-15+000099999V0200701N011819999999N999999999-00401-00801999999ADDMA1100601999990REMMET046METAR ENDR 112320Z AUTO 07023KT M04/M08 Q1006=
0073010231999992014011123504+64350+007800FM-15+000099999V0200701N010819999999N999999999-00401-01001999999ADDMA1100601999990REMMET046METAR ENDR 112350Z AUTO 07021KT M04/M10 Q1006=
0081010231999992014011200204+64350+007800FM-15+000099999V0200701V010319999999N999999999-00401-00901999999ADDMA1100701999990REMMET054METAR ENDR 120020Z AUTO 07020KT 030V100 M04/M09 Q1007=
0073010231999992014011200504+64350+007800FM-15+000099999V0200701N010319999999N999999999-00401-00801999999ADDMA1100701999990REMMET046METAR ENDR 120050Z AUTO 07020KT M04/M08 Q1007=
0073010231999992014011201204+64350+007800FM-15+000099999V0200701N010319999999N999999999-00401-00901999999ADDMA1100701999990REMMET046METAR ENDR 120120Z AUTO 07020KT M04/M09 Q1007=
0073010231999992014011201504+64350+007800FM-15+000099999V0200701N010319999999N999999999-00401-00801999999ADDMA1100801999990REMMET046METAR ENDR 120150Z AUTO 07020KT M04/M08 Q1008=
0073010231999992014011202204+64350+007800FM-15+000099999V0200701N010819999999N999999999-00401-00901999999ADDMA1100901999990REMMET046METAR ENDR 120220Z AUTO 07021KT M04/M09 Q1009=
0073010231999992014011202504+64350+007800FM-15+000099999V0200701N011319999999N999999999-00401-00801999999ADDMA1100901999990REMMET046METAR ENDR 120250Z AUTO 07022KT M04/M08 Q1009=
0073010231999992014011203204+64350+007800FM-15+000099999V0200701N010819999999N999999999-00401-00801999999ADDMA1101001999990REMMET046METAR ENDR 120320Z AUTO 07021KT M04/M08 Q1010=
0073010231999992014011203504+64350+007800FM-15+000099999V0200701N010319999999N999999999-00401-00901999999ADDMA1101001999990REMMET046METAR ENDR 120350Z AUTO 07020KT M04/M09 Q1010=
0073010231999992014011204204+64350+007800FM-15+000099999V0200601N008819999999N999999999-00401-00901999999ADDMA1101001999990REMMET046METAR ENDR 120420Z AUTO 06017KT M04/M09 Q1010=
0073010231999992014011204504+64350+007800FM-15+000099999V0200701N009819999999N999999999-00401-00901999999ADDMA1101101999990REMMET046METAR ENDR 120450Z AUTO 07019KT M04/M09 Q1011=
0073010231999992014011205204+64350+007800FM-15+000099999V0200701N009819999999N999999999-00401-00901999999ADDMA1101101999990REMMET046METAR ENDR 120520Z AUTO 07019KT M04/M09 Q1011=
0073010231999992014011205504+64350+007800FM-15+000099999V0200801N010819999999N999999999-00401-00801999999ADDMA1101201999990REMMET046METAR ENDR 120550Z AUTO 08021KT M04/M08 Q1012=
0153010231999992014011206104+64350+007800FM-15+000099999V0200801N013410061019N009999199-00401-00901999999ADDGA1071+006101991GE19MSL   +99999+99999GF199999071990006101991991MA1101201999990MW1731REMMET056METAR ENDR 120610Z 08026KT 9999 SN BKN020 M04/M09 Q1012=
0073010231999992014011206504+64350+007800FM-15+000099999V0200801N010319999999N999999999-00401-00901999999ADDMA1101301999990REMMET046METAR ENDR 120650Z AUTO 08020KT M04/M09 Q1013=
0073010231999992014011207204+64350+007800FM-15+000099999V0200801N010319999999N999999999-00401-00901999999ADDMA1101301999990REMMET046METAR ENDR 120720Z AUTO 08020KT M04/M09 Q1013=
0073010231999992014011207504+64350+007800FM-15+000099999V0200901N008819999999N999999999-00501-00901999999ADDMA1101401999990REMMET046METAR ENDR 120750Z AUTO 09017KT M05/M09 Q1014=
0073010231999992014011208204+64350+007800FM-15+000099999V0200801N009819999999N999999999-00401-00901999999ADDMA1101401999990REMMET046METAR ENDR 120820Z AUTO 08019KT M04/M09 Q1014=
0073010231999992014011208504+64350+007800FM-15+000099999V0200801N008819999999N999999999-00401-00801999999ADDMA1101501999990REMMET046METAR ENDR 120850Z AUTO 08017KT M04/M08 Q1015=
0154010231999992014011209104+64350+007800FM-15+000099999V0200801N008810061019N009999199-00401-00901999999ADDGA1071+006101991GE19MSL   +99999+99999GF199999071990006101991991MA1101501999990MW1711REMMET057METAR ENDR 120910Z 08017KT 9999 -SN BKN020 M04/M09 Q1015=
0073010231999992014011209504+64350+007800FM-15+000099999V0200701N008219999999N999999999-00401-00901999999ADDMA1101501999990REMMET046METAR ENDR 120950Z AUTO 07016KT M04/M09 Q1015=
0073010231999992014011210204+64350+007800FM-15+000099999V0200801N007719999999N999999999-00401-00801999999ADDMA1101601999990REMMET046METAR ENDR 121020Z AUTO 08015KT M04/M08 Q1016=
0073010231999992014011210504+64350+007800FM-15+000099999V0200801N007219999999N999999999-00401-00801999999ADDMA1101601999990REMMET046METAR ENDR 121050Z AUTO 08014KT M04/M08 Q1016=
0073010231999992014011211204+64350+007800FM-15+000099999V0200701N007719999999N999999999-00401-00901999999ADDMA1101601999990REMMET046METAR ENDR 121120Z AUTO 07015KT M04/M09 Q1016=
0073010231999992014011211504+64350+007800FM-15+000099999V0200701N007719999999N999999999-00401-00901999999ADDMA1101601999990REMMET046METAR ENDR 121150Z AUTO 07015KT M04/M09 Q1016=
0073010231999992014011212204+64350+007800FM-15+000099999V0200701N008219999999N999999999-00401-00901999999ADDMA1101701999990REMMET046METAR ENDR 121220Z AUTO 07016KT M04/M09 Q1017=
0073010231999992014011212504+64350+007800FM-15+000099999V0200801N007219999999N999999999-00401-00901999999ADDMA1101701999990REMMET046METAR ENDR 121250Z AUTO 08014KT M04/M09 Q1017=
0073010231999992014011213204+64350+007800FM-15+000099999V0200701N008219999999N999999999-00401-00901999999ADDMA1101701999990REMMET046METAR ENDR 121320Z AUTO 07016KT M04/M09 Q1017=
0073010231999992014011213504+64350+007800FM-15+000099999V0200601N007719999999N999999999-00301-00901999999ADDMA1101701999990REMMET046METAR ENDR 121350Z AUTO 06015KT M03/M09 Q1017=
0073010231999992014011214204+64350+007800FM-15+000099999V0200601N007219999999N999999999-00401-01001999999ADDMA1101701999990REMMET046METAR ENDR 121420Z AUTO 06014KT M04/M10 Q1017=
0073010231999992014011214504+64350+007800FM-15+000099999V0200601N008219999999N999999999-00301-01001999999ADDMA1101801999990REMMET046METAR ENDR 121450Z AUTO 06016KT M03/M10 Q1018=
0155010231999992014011215104+64350+007800FM-15+000099999V0200601N008219999999N009999199-00301-01201999999ADDGA1041+009141991GE19MSL   +99999+99999GF199999041990009141991991MA1101801999990MW1161REMMET058METAR ENDR 121510Z 06016KT 9999 VCSH SCT030 M03/M12 Q1018=
0073010231999992014011215504+64350+007800FM-15+000099999V0200601N007719999999N999999999-00301-01201999999ADDMA1101801999990REMMET046METAR ENDR 121550Z AUTO 06015KT M03/M12 Q1018=
