0247010280999992014010100004+74517+019000FM-12+001899999V0200801N006019999999N030000199-00441-00891102181ADDAA106000091AY101021AY201021GA1021+999991061GE19MSL   +99999+99999GF102991021990999999991991MA1999990101971MD1210021+9990MW1021OD139900901999REMSYN07601028 11780 20806 11044 21089 30197 40218 52002 69901 70200 82500 333 91109=EQDQ01  00002PRCP06
0187010280999992014010101004+74517+019000FM-12+001899999V0200801N006019999999N030000199-00441-00911102171ADDAY101021AY201021GA1011+999991061GE19MSL   +99999+99999GF101991011990999999991991MA1999990101961MD1710011+9990MW1011REMSYN06001028 41780 10806 11044 21091 30196 40217 57001 70100 81500=
0187010280999992014010102004+74517+019000FM-12+001899999V0200901N006019999999N030000199-00481-00951102151ADDAY101021AY201021GA1011+999991061GE19MSL   +99999+99999GF101991011990999999991991MA1999990101941MD1710031+9990MW1021REMSYN06001028 41780 10906 11048 21095 30194 40215 57003 70200 81500=
0187010280999992014010104004+74517+019000FM-12+001899999V0200901N007019999999N020000199-00441-00921102071ADDAY101021AY201021GA1021+999991061GE19MSL   +99999+99999GF102991021990999999991991MA1999990101861MD1810091+9990MW1031REMSYN06001028 41670 20907 11044 21092 30186 40207 58009 70300 82500=
0187010280999992014010105004+74517+019000FM-12+001899999V0201001N006019999999N020000199-00471-00921102071ADDAY101021AY201021GA1021+999991061GE19MSL   +99999+99999GF102991021990999999991991MA1999990101861MD1510081+9990MW1021REMSYN06001028 41670 21006 11047 21092 30186 40207 55008 70200 82500=
0283010280999992014010106004+74517+019000FM-12+001899999V0201001N007019999999N020000199-00421-00921102081ADDAA112000091AA224000431AY101021AY201021GA1021+999991061GE19MSL   +99999+99999GF102991021990999999991991KA1240N-00541MA1999990101871MD1510041+9990MW1021OD139900901999REMSYN08801028 11670 21007 11042 21092 30187 40208 55004 69902 70200 82500 333 21054 70004 91109=EQDQ01  00002PRCP12
0187010280999992014010107004+74517+019000FM-12+001899999V0201001N008019999999N020000199-00401-00921102041ADDAY101021AY201021GA1021+999991061GE19MSL   +99999+99999GF102991021990999999991991MA1999990101831MD1810031+9990MW1021REMSYN06001028 41670 21008 11040 21092 30183 40204 58003 70200 82500=
0187010280999992014010108004+74517+019000FM-12+001899999V0201001N007019999999N020000199-00371-00821102061ADDAY101021AY201021GA1031+999991061GE19MSL   +99999+99999GF103991031990999999991991MA1999990101851MD1510021+9990MW1031REMSYN06001028 41670 31007 11037 21082 30185 40206 55002 70300 83500=
0187010280999992014010109004+74517+019000FM-12+001899999V0201001N008019999999N020000199-00351-00831102061ADDAY101021AY201021GA1031+999991061GE19MSL   +99999+99999GF103991031990999999991991MA1999990101851MD1510011+9990MW1021REMSYN06001028 41670 31008 11035 21083 30185 40206 55001 70200 83500=
0187010280999992014010110004+74517+019000FM-12+001899999V0200901N008019999999N020000199-00381-00841102061ADDAY101021AY201021GA1021+999991061GE19MSL   +99999+99999GF102991021990999999991991MA1999990101851MD1210021+9990MW1021REMSYN06001028 41670 20908 11038 21084 30185 40206 52002 70200 82500=
0187010280999992014010111004+74517+019000FM-12+001899999V0201001N007019999999N020000199-00331-00791102041ADDAY101021AY201021GA1031+999991061GE19MSL   +99999+99999GF103991031990999999991991MA1999990101831MD1710021+9990MW1021REMSYN06001028 41670 31007 11033 21079 30183 40204 57002 70200 83500=
0248010280999992014010112004+74517+019000FM-12+001899999V0201001N008019999999N030000199-00361-00791102021ADDAA106000091AY101021AY201021GA1031+999991081GE19MSL   +99999+99999GF103991031990999999991991MA1999990101811MD1710041+9990MW1021OD139901201999SA1-0131REMSYN08801028 11780 31008 11036 21079 30181 40202 57004 60001 70200 83100 222// 01013 333 91112=
0187010280999992014010113004+74517+019000FM-12+001899999V0200901N009019999999N030000199-00321-00771102001ADDAY101021AY201021GA1031+999991081GE19MSL   +99999+99999GF103991031990999999991991MA1999990101791MD1710061+9990MW1021REMSYN06001028 41680 30909 11032 21077 30179 40200 57006 70200 83100=
0187010280999992014010114004+74517+019000FM-12+001899999V0200901N009019999999N030000199-00271-00651101961ADDAY101021AY201021GA1031+999991091GE19MSL   +99999+99999GF103991031990999999991991MA1999990101761MD1710071+9990MW1021REMSYN06001028 41680 30909 11027 21065 30176 40196 57007 70200 83300=
0187010280999992014010115004+74517+019000FM-12+001899999V0200901N008019999999N030000199-00301-00701101941ADDAY101021AY201021GA1031+999991081GE19MSL   +99999+99999GF103991031990999999991991MA1999990101741MD1710071+9990MW1021REMSYN06001028 41680 30908 11030 21070 30174 40194 57007 70200 83100=
0187010280999992014010116004+74517+019000FM-12+001899999V0200901N009019999999N030000199-00261-00641101891ADDAY101021AY201021GA1031+999991081GE19MSL   +99999+99999GF103991031990999999991991MA1999990101691MD1810111+9990MW1021REMSYN06001028 41680 30909 11026 21064 30169 40189 58011 70200 83100=
0187010280999992014010117004+74517+019000FM-12+001899999V0201001N010019999999N030000199-00221-00491101871ADDAY101021AY201021GA1021+999991061GE19MSL   +99999+99999GF102991021990999999991991MA1999990101671MD1710091+9990MW1021REMSYN06001028 41680 21010 11022 21049 30167 40187 57009 70200 82500=
0266010280999992014010118004+74517+019000FM-12+001899999V0200901N010019999999N030000199-00231-00451101851ADDAA112000091AY101021AY201021GA1021+999991081GE19MSL   +99999+99999GF102991021990999999991991KA1120M-00221MA1999990101651MD1710091+9990MW1021OD139901401999REMSYN08201028 11680 20910 11023 21045 30165 40185 57009 69902 70200 82100 333 11022 91114=EQDQ01  00002PRCP12
0187010280999992014010119004+74517+019000FM-12+001899999V0200801N009019999999N025000199-00211-00411101821ADDAY101021AY201021GA1021+999991081GE19MSL   +99999+99999GF102991021990999999991991MA1999990101621MD1710071+9990MW1021REMSYN06001028 41675 20809 11021 21041 30162 40182 57007 70200 82100=
0203010280999992014010120004+74517+019000FM-12+001899999V0201001N008019999999N020000199-00211-00441101831ADDAY101021AY201021GA1991+999991001GA2021+999991061GE19MSL   +99999+99999GF103991990990999999991991MA1999990101631MD1510041+9990MW1031REMSYN06001028 41670 31008 11021 21044 30163 40183 55004 70300 82502=
0187010280999992014010121004+74517+019000FM-12+001899999V0201001N008019999999N020000199-00181-00541101851ADDAY101021AY201021GA1021+999991061GE19MSL   +99999+99999GF102991021990999999991991MA1999990101651MD1510011+9990MW1011REMSYN06001028 41670 21008 11018 21054 30165 40185 55001 70100 82500=
0187010280999992014010122004+74517+019000FM-12+001899999V0200901N009019999999N020000199-00151-00351101821ADDAY101021AY201021GA1041+999991061GE19MSL   +99999+99999GF104991041990999999991991MA1999990101621MD1900001+9990MW1031REMSYN06001028 41670 40909 11015 21035 30162 40182 50000 70300 84500=
0187010280999992014010123004+74517+019000FM-12+001899999V0201201N008019999999N020000199-00231-00501101791ADDAY101021AY201021GA1031+999991061GE19MSL   +99999+99999GF103991031990999999991991MA1999990101591MD1810041+9990MW1011REMSYN06001028 41770 31208 11023 21050 30159 40179 58004 70100 83500=
0228010280999992014010200004+74517+019000FM-12+001899999V0201001N006019999999N020000199-00291-00451101781ADDAA106000131AY101021AY201021GA1041+999991081GE19MSL   +99999+99999GF104991041990999999991991MA1999990101581MD1710071+9990MW1261OD139901301999REMSYN07601028 11670 41006 11029 21045 30158 40178 57007 69911 72600 84800 333 91113=
0187010280999992014010201004+74517+019000FM-12+001899999V0201001N007019999999N020000199-00221-00441101751ADDAY111021AY201021GA1041+999991061GE19MSL   +99999+99999GF104991041990999999991991MA1999990101551MD1710071+9990MW1021REMSYN06001028 41670 41007 11022 21044 30155 40175 57007 70210 84500=
0187010280999992014010202004+74517+019000FM-12+001899999V0201001N008019999999N020000199-00161-00591101721ADDAY121021AY221021GA1061+999991061GE19MSL   +99999+99999GF106991061990999999991991MA1999990101521MD1810071+9990MW1031REMSYN06001028 41670 61008 11016 21059 30152 40172 58007 70322 86500=
0187010280999992014010203004+74517+019000FM-12+001899999V0201001N011019999999N020000199-00131-00571101691ADDAY121021AY221021GA1081+999991061GE19MSL   +99999+99999GF108991081990999999991991MA1999990101491MD1710091+9990MW1031REMSYN06001028 41670 81011 11013 21057 30149 40169 57009 70322 885//=
0187010280999992014010204004+74517+019000FM-12+001899999V0201001N010019999999N020000199-00141-00581101631ADDAY121021AY221021GA1071+999991061GE19MSL   +99999+99999GF107991071990999999991991MA1999990101431MD1810121+9990MW1021REMSYN06001028 41670 71010 11014 21058 30143 40163 58012 70222 87500=
0187010280999992014010205004+74517+019000FM-12+001899999V0200901N012019999999N020000199-00091-00531101611ADDAY121021AY221021GA1081+999991061GE19MSL   +99999+99999GF108991081990999999991991MA1999990101411MD1710111+9990MW1021REMSYN06001028 41670 80912 11009 21053 30141 40161 57011 70222 885//=
0293010280999992014010206004+74517+019000FM-12+001899999V0200801N012019999999N015000199-00091-00601101581ADDAA112000131AA224000131AJ199991999999999AY121021AY221021GA1081+999991061GE19MSL   +99999+99999GF108991081990999999991991IA1289KA1240N-00321MA1999990101381MD1610121+9990MW1021OD139901701999REMSYN09401028 11665 80812 11009 21060 30138 40158 56012 69912 70222 885// 333 21032 48999 70001 91117=
0187010280999992014010207004+74517+019000FM-12+001899999V0200901N011019999999N015000199-00081-00551101551ADDAY121021AY221021GA1081+999991061GE19MSL   +99999+99999GF108991081990999999991991MA1999990101351MD1710081+9990MW1021REMSYN06001028 41665 80911 11008 21055 30135 40155 57008 70222 885//=
0187010280999992014010208004+74517+019000FM-12+001899999V0200801N012019999999N015000199-00061-00411101521ADDAY121021AY221021GA1081+999991061GE19MSL   +99999+99999GF108991081990999999991991MA1999990101321MD1710081+9990MW1021REMSYN06001028 41665 80812 11006 21041 30132 40152 57008 70222 885//=
0187010280999992014010209004+74517+019000FM-12+001899999V0200901N012019999999N015000199-00061-00391101511ADDAY121021AY221021GA1081+999991061GE19MSL   +99999+99999GF108991081990999999991991MA1999990101311MD1710071+9990MW1021REMSYN06001028 41665 80912 11006 21039 30131 40151 57007 70222 885//=
0187010280999992014010210004+74517+019000FM-12+001899999V0200901N013019999999N020000199-00041-00421101471ADDAY121021AY221021GA1081+999991061GE19MSL   +99999+99999GF108991081990999999991991MA1999990101271MD1710081+9990MW1021REMSYN06001028 41670 80913 11004 21042 30127 40147 57008 70222 885//=
0187010280999992014010211004+74517+019000FM-12+001899999V0200801N012019999999N020000199-00031-00341101421ADDAY171021AY221021GA1071+999991061GE19MSL   +99999+99999GF107991071990999999991991MA1999990101221MD1810101+9990MW1701REMSYN06001028 41670 70812 11003 21034 30122 40142 58010 77072 875//=
0228010280999992014010212004+74517+019000FM-12+001899999V0200801N013019999999N010000199-00031-00301101361ADDAA106000021AY171021AY221021GA1081+999991061GE19MSL   +99999+99999GF108991081990999999991991MA1999990101161MD1810151+9990MW1021OD139901901999REMSYN07601028 11660 80813 11003 21030 30116 40136 58015 69901 70272 885// 333 91119=
0187010280999992014010213004+74517+019000FM-12+001899999V0200801N014019999999N010000199-00021-00351101311ADDAY141021AY221021GA1081+999991061GE19MSL   +99999+99999GF108991081990999999991991MA1999990101111MD1710161+9990MW1101REMSYN06001028 41660 80814 11002 21035 30111 40131 57016 71042 885//=
0187010280999992014010214004+74517+019000FM-12+001899999V0200801N013019999999N010000199-00011-00351101271ADDAY141021AY221021GA1081+999991061GE19MSL   +99999+99999GF108991081990999999991991MA1999990101071MD1710151+9990MW1101REMSYN06001028 41560 80813 11001 21035 30107 40127 57015 71042 885//=
0187010280999992014010215004+74517+019000FM-12+001899999V0200901N013019999999N010000199-00021-00301101231ADDAY141021AY221021GA1081+999991061GE19MSL   +99999+99999GF108991081990999999991991MA1999990101031MD1710131+9990MW1101REMSYN06001028 41560 80913 11002 21030 30103 40123 57013 71042 885//=
0187010280999992014010216004+74517+019000FM-12+001899999V0200801N013019999999N008000199+00011-00331101191ADDAY141021AY221021GA1081+999991061GE19MSL   +99999+99999GF108991081990999999991991MA1999990100991MD1710111+9990MW1101REMSYN06001028 41658 80813 10001 21033 30099 40119 57011 71042 885//=
0187010280999992014010217004+74517+019000FM-12+001899999V0200801N013019999999N007000199+00021-00301101141ADDAY141021AY221021GA1081+999991061GE19MSL   +99999+99999GF108991081990999999991991MA1999990100941MD1810131+9990MW1101REMSYN06001028 41557 80813 10002 21030 30094 40114 58013 71042 885//=
0247010280999992014010218004+74517+019000FM-12+001899999V0200701N013019999999N015000199+00031-00301101081ADDAA112000021AY141021AY221021GA1081+999991061GE19MSL   +99999+99999GF108991081990999999991991KA1120M+00031MA1999990100881MD1710151+9990MW1021OD139901901999REMSYN08201028 11565 80713 10003 21030 30088 40108 57015 69902 70242 885// 333 10003 91119=
0187010280999992014010219004+74517+019000FM-12+001899999V0200701N013019999999N015000199+00031-00281101051ADDAY121021AY221021GA1081+999991061GE19MSL   +99999+99999GF108991081990999999991991MA1999990100851MD1710141+9990MW1021REMSYN06001028 41565 80713 10003 21028 30085 40105 57014 70222 885//=
0187010280999992014010220004+74517+019000FM-12+001899999V0200701N014019999999N015000199+00051-00291101021ADDAY121021AY221021GA1081+999991061GE19MSL   +99999+99999GF108991081990999999991991MA1999990100821MD1710121+9990MW1021REMSYN06001028 41565 80714 10005 21029 30082 40102 57012 70222 885//=
0187010280999992014010221004+74517+019000FM-12+001899999V0200701N013019999999N015000199+00051-00291101001ADDAY121021AY221021GA1081+999991061GE19MSL   +99999+99999GF108991081990999999991991MA1999990100801MD1710081+9990MW1021REMSYN06001028 41665 80713 10005 21029 30080 40100 57008 70222 885//=
0187010280999992014010222004+74517+019000FM-12+001899999V0200701N015019999999N015000199+00071-00301100961ADDAY121021AY221021GA1081+999991061GE19MSL   +99999+99999GF108991081990999999991991MA1999990100761MD1710091+9990MW1021REMSYN06001028 41665 80715 10007 21030 30076 40096 57009 70222 885//=
0187010280999992014010223004+74517+019000FM-12+001899999V0200701N016019999999N015000199+00071-00311100921ADDAY121021AY221021GA1081+999991061GE19MSL   +99999+99999GF108991081990999999991991MA1999990100721MD1710091+9990MW1021REMSYN06001028 41565 80716 10007 21031 30072 40092 57009 70222 885//=
0247010280999992014010300004+74517+019000FM-12+001899999V0200701N014019999999N015000199+00051-00291100901ADDAA106000091AY121021AY221021GA1081+999991061GE19MSL   +99999+99999GF108991081990999999991991MA1999990100701MD1710101+9990MW1021OD139902001999REMSYN07601028 11565 80714 10005 21029 30070 40090 57010 69901 70222 885// 333 91120=EQDQ01  00002PRCP06
0187010280999992014010301004+74517+019000FM-12+001899999V0200601N014019999999N015000199+00021-00201100851ADDAY121021AY221021GA1081+999991061GE19MSL   +99999+99999GF108991081990999999991991MA1999990100651MD1810111+9990MW1021REMSYN06001028 41565 80614 10002 21020 30065 40085 58011 70222 885//=
0187010280999992014010302004+74517+019000FM-12+001899999V0200601N014019999999N015000199+00011-00171100801ADDAY121021AY221021GA1081+999991061GE19MSL   +99999+99999GF108991081990999999991991MA1999990100601MD1810121+9990MW1021REMSYN06001028 41565 80614 10001 21017 30060 40080 58012 70222 885//=
0187010280999992014010303004+74517+019000FM-12+001899999V0200601N014019999999N015000199+00011-00161100771ADDAY121021AY221021GA1081+999991061GE19MSL   +99999+99999GF108991081990999999991991MA1999990100571MD1710131+9990MW1021REMSYN06001028 41465 80614 10001 21016 30057 40077 57013 70222 885//=
0187010280999992014010304004+74517+019000FM-12+001899999V0200601N015019999999N010000199+00021-00131100721ADDAY181021AY221021GA1071+999991081GE19MSL   +99999+99999GF107991071990999999991991MA1999990100521MD1710121+9990MW1851REMSYN06001028 41460 70615 10002 21013 30052 40072 57012 78582 878//=
0187010280999992014010305004+74517+019000FM-12+001899999V0200601N014019999999N010000199+00041-00141100691ADDAY181021AY221021GA1081+999991081GE19MSL   +99999+99999GF108991081990999999991991MA1999990100491MD1710111+9990MW1851REMSYN06001028 41360 80614 10004 21014 30049 40069 57011 78582 888//=
0293010280999992014010306004+74517+019000FM-12+001899999V0200601N015019999999N015000199+00041-00171100661ADDAA112000131AA224000131AJ199991999999999AY181021AY221021GA1061+999991081GE19MSL   +99999+99999GF106991061990999999991991IA1249KA1240N-00011MA1999990100461MD1710111+9990MW1261OD139902001999REMSYN09401028 11465 60615 10004 21017 30046 40066 57011 69912 72682 86800 333 21001 44/// 70001 91120=
0187010280999992014010307004+74517+019000FM-12+001899999V0200601N014019999999N015000199+00051-00141100631ADDAY121021AY221021GA1081+999991081GE19MSL   +99999+99999GF108991081990999999991991MA1999990100431MD1710091+9990MW1031REMSYN06001028 41465 80614 10005 21014 30043 40063 57009 70322 888//=
0187010280999992014010308004+74517+019000FM-12+001899999V0200601N014019999999N015000199+00061-00121100641ADDAY121021AY221021GA1081+999991081GE19MSL   +99999+99999GF108991081990999999991991MA1999990100441MD1710041+9990MW1021REMSYN06001028 41465 80614 10006 21012 30044 40064 57004 70222 888//=
0187010280999992014010309004+74517+019000FM-12+001899999V0200701N013019999999N015000199+00081-00091100641ADDAY121021AY221021GA1081+999991081GE19MSL   +99999+99999GF108991081990999999991991MA1999990100441MD1510011+9990MW1021REMSYN06001028 41465 80713 10008 21009 30044 40064 55001 70222 888//=
0187010280999992014010310004+74517+019000FM-12+001899999V0200601N014019999999N015000199+00101-00051100611ADDAY121021AY221021GA1071+999991061GE19MSL   +99999+99999GF107991071990999999991991MA1999990100411MD1810021+9990MW1011REMSYN06001028 41465 70614 10010 21005 30041 40061 58002 70122 875//=
0187010280999992014010311004+74517+019000FM-12+001899999V0200701N012019999999N015000199+00101-00011100601ADDAY121021AY221021GA1071+999991061GE19MSL   +99999+99999GF107991071990999999991991MA1999990100401MD1710041+9990MW1021REMSYN06001028 41465 70712 10010 21001 30040 40060 57004 70222 875//=
0248010280999992014010312004+74517+019000FM-12+001899999V0200701N012019999999N015000199+00101+00001100561ADDAA106000131AY121021AY221021GA1081+999991061GE19MSL   +99999+99999GF108991081990999999991991MA1999990100361MD1810081+9990MW1261OD139901901999SA1-0051REMSYN08801028 11465 80712 10010 20000 30036 40056 58008 69911 72622 885// 222// 01005 333 91119=
0187010280999992014010313004+74517+019000FM-12+001899999V0200701N010019999999N010000199+00111+00021100551ADDAY121021AY221021GA1081+999991081GE19MSL   +99999+99999GF108991081990999999991991MA1999990100351MD1710061+9990MW1021REMSYN06001028 41360 80710 10011 20002 30035 40055 57006 70222 888//=
0203010280999992014010314004+74517+019000FM-12+001899999V0200601N009019999999N015000199+00101+00021100521ADDAY121021AY221021GA1991+999991031GA2041+999991061GE19MSL   +99999+99999GF105991990990999999991991MA1999990100321MD1710081+9990MW1021REMSYN06001028 41465 50609 10010 20002 30032 40052 57008 70222 84570=
0187010280999992014010315004+74517+019000FM-12+001899999V0200701N009019999999N010000199+00111+00031100511ADDAY121021AY221021GA1081+999991081GE19MSL   +99999+99999GF108991081990999999991991MA1999990100311MD1710051+9990MW1021REMSYN06001028 41460 80709 10011 20003 30031 40051 57005 70222 888//=
0187010280999992014010316004+74517+019000FM-12+001899999V0200601N008019999999N015000199+00111+00031100501ADDAY121021AY221021GA1081+999991081GE19MSL   +99999+99999GF108991081990999999991991MA1999990100301MD1610051+9990MW1021REMSYN06001028 41565 80608 10011 20003 30030 40050 56005 70222 888//=
0187010280999992014010317004+74517+019000FM-12+001899999V0200601N007019999999N010000199+00111+00041100451ADDAY121021AY221021GA1081+999991081GE19MSL   +99999+99999GF108991081990999999991991MA1999990100251MD1810071+9990MW1021REMSYN06001028 41460 80607 10011 20004 30025 40045 58007 70222 888//=
0247010280999992014010318004+74517+019000FM-12+001899999V0200501N006019999999N006000199+00111+00011100441ADDAA112000131AY121021AY221021GA1081+999991061GE19MSL   +99999+99999GF108991081990999999991991KA1120M+00121MA1999990100241MD1710071+9990MW1101OD139901401999REMSYN08201028 11656 80506 10011 20001 30024 40044 57007 69912 71022 885// 333 10012 91114=
0187010280999992014010319004+74517+019000FM-12+001899999V0200601N007019999999N015000199+00111+00001100441ADDAY121021AY221021GA1081+999991061GE19MSL   +99999+99999GF108991081990999999991991MA1999990100241MD1610061+9990MW1021REMSYN06001028 41665 80607 10011 20000 30024 40044 56006 70222 885//=
0203010280999992014010320004+74517+019000FM-12+001899999V0200501N007019999999N015000199+00091+00001100411ADDAY121021AY211021GA1991+999991041GA2021+999991061GE19MSL   +99999+99999GF104991990990999999991991MA1999990100211MD1710041+9990MW1011REMSYN06001028 41665 40507 10009 20000 30021 40041 57004 70121 82510=
0187010280999992014010321004+74517+019000FM-12+001899999V0200701N007019999999N015000199+00071-00021100401ADDAY121021AY211021GA1071+999991061GE19MSL   +99999+99999GF107991071990999999991991MA1999990100201MD1710041+9990MW1031REMSYN06001028 41665 70707 10007 21002 30020 40040 57004 70321 875//=
0187010280999992014010322004+74517+019000FM-12+001899999V0200601N008019999999N010000199+00111+00011100371ADDAY121021AY221021GA1081+999991061GE19MSL   +99999+99999GF108991081990999999991991MA1999990100171MD1710061+9990MW1021REMSYN06001028 41560 80608 10011 20001 30017 40037 57006 70222 885//=
0187010280999992014010323004+74517+019000FM-12+001899999V0200801N009019999999N006000199+00101+00001100351ADDAY181021AY221021GA1081+999991081GE19MSL   +99999+99999GF108991081990999999991991MA1999990100151MD1710061+9990MW1831REMSYN06001028 41356 80809 10010 20000 30015 40035 57006 78382 888//=
0228010280999992014010400004+74517+019000FM-12+001899999V0200601N009019999999N009000199+00131-00011100301ADDAA106000631AY181021AY221021GA1041+999991071GE19MSL   +99999+99999GF104991041990999999991991MA1999990100101MD1710091+9990MW1261OD139901301999REMSYN07601028 11359 40609 10013 21001 30010 40030 57009 69961 72682 84600 333 91113=
0187010280999992014010401004+74517+019000FM-12+001899999V0200701N009019999999N015000199+00131+00001100291ADDAY111021AY201021GA1021+999991071GE19MSL   +99999+99999GF102991021990999999991991MA1999990100091MD1710081+9990MW1011REMSYN06001028 41365 20709 10013 21000 30009 40029 57008 70110 82600=
0187010280999992014010402004+74517+019000FM-12+001899999V0200601N009019999999N008000199+00131+00021100261ADDAY181021AY211021GA1071+999991081GE19MSL   +99999+99999GF107991071990999999991991MA1999990100061MD1710081+9990MW1801REMSYN06001028 41458 70609 10013 20002 30006 40026 57008 78081 878//=
0187010280999992014010403004+74517+019000FM-12+001899999V0200601N009019999999N015000199+00131+00021100211ADDAY181021AY221021GA1051+999991081GE19MSL   +99999+99999GF105991051990999999991991MA1999990100011MD1810091+9990MW1251REMSYN06001028 41465 50609 10013 20002 30001 40021 58009 72582 85800=
0187010280999992014010404004+74517+019000FM-12+001899999V0200601N009019999999N010000199+00131+00041100171ADDAY121021AY221021GA1081+999991081GE19MSL   +99999+99999GF108991081990999999991991MA1999990099971MD1710121+9990MW1031REMSYN06001028 41360 80609 10013 20004 39997 40017 57012 70322 888//=
0187010280999992014010405004+74517+019000FM-12+001899999V0200501N010019999999N009000199+00131+00051100131ADDAY121021AY221021GA1081+999991071GE19MSL   +99999+99999GF108991081990999999991991MA1999990099931MD1710131+9990MW1101REMSYN06001028 41359 80510 10013 20005 39993 40013 57013 71022 886//=
0293010280999992014010406004+74517+019000FM-12+001899999V0200501N009019999999N010000199+00131+00051100111ADDAA112000131AA224000231AJ199991999999999AY181021AY221021GA1081+999991071GE19MSL   +99999+99999GF108991081990999999991991IA1249KA1240N+00071MA1999990099911MD1710101+9990MW1021OD139901301999REMSYN09401028 11360 80509 10013 20005 39991 40011 57010 69912 70282 886// 333 20007 44/// 70002 91113=
0187010280999992014010407004+74517+019000FM-12+001899999V0200501N010019999999N010000199+00121+00031100101ADDAY161021AY221021GA1081+999991071GE19MSL   +99999+99999GF108991081990999999991991MA1999990099901MD1710071+9990MW1601REMSYN06001028 41360 80510 10012 20003 39990 40010 57007 76062 886//=
0187010280999992014010408004+74517+019000FM-12+001899999V0200501N011019999999N010000199+00121+00021100091ADDAY161021AY221021GA1081+999991071GE19MSL   +99999+99999GF108991081990999999991991MA1999990099891MD1710051+9990MW1211REMSYN06001028 41360 80511 10012 20002 39989 40009 57005 72162 886//=
0187010280999992014010409004+74517+019000FM-12+001899999V0200501N011019999999N010000199+00111+00011100081ADDAY161021AY221021GA1081+999991071GE19MSL   +99999+99999GF108991081990999999991991MA1999990099881MD1710031+9990MW1601REMSYN06001028 41360 80511 10011 20001 39988 40008 57003 76062 886//=
0187010280999992014010410004+74517+019000FM-12+001899999V0200501N011019999999N010000199+00071-00011100081ADDAY161021AY221021GA1081+999991071GE19MSL   +99999+99999GF108991081990999999991991MA1999990099881MD1710021+9990MW1021REMSYN06001028 41360 80511 10007 21001 39988 40008 57002 70262 886//=
0187010280999992014010411004+74517+019000FM-12+001899999V0200501N011019999999N010000199+00091+00001100051ADDAY181021AY221021GA1081+999991071GE19MSL   +99999+99999GF108991081990999999991991MA1999990099851MD1810031+9990MW1261REMSYN06001028 41360 80511 10009 20000 39985 40005 58003 72682 886//=
0248010280999992014010412004+74517+019000FM-12+001899999V0200501N012019999999N010000199+00091+00011100031ADDAA106000021AY181021AY221021GA1081+999991071GE19MSL   +99999+99999GF108991081990999999991991MA1999990099831MD1710061+9990MW1261OD139901501999SA1-0031REMSYN08801028 11360 80512 10009 20001 39983 40003 57006 69901 72682 886// 222// 01003 333 91115=
0187010280999992014010413004+74517+019000FM-12+001899999V0200501N011019999999N010000199+00111+00011100031ADDAY121021AY221021GA1081+999991071GE19MSL   +99999+99999GF108991081990999999991991MA1999990099831MD1710051+9990MW1021REMSYN06001028 41360 80511 10011 20001 39983 40003 57005 70222 886//=
0187010280999992014010414004+74517+019000FM-12+001899999V0200401N011019999999N010000199+00081-00011100051ADDAY121021AY221021GA1081+999991071GE19MSL   +99999+99999GF108991081990999999991991MA1999990099851MD1510001+9990MW1021REMSYN06001028 41360 80411 10008 21001 39985 40005 55000 70222 886//=
0187010280999992014010415004+74517+019000FM-12+001899999V0200401N012019999999N008000199+00061-00031100061ADDAY121021AY221021GA1081+999991071GE19MSL   +99999+99999GF108991081990999999991991MA1999990099861MD1210041+9990MW1101REMSYN06001028 41358 80412 10006 21003 39986 40006 52004 71022 886//=
0187010280999992014010416004+74517+019000FM-12+001899999V0200401N012019999999N008000199+00061-00051100061ADDAY121021AY221021GA1081+999991071GE19MSL   +99999+99999GF108991081990999999991991MA1999990099861MD1900031+9990MW1101REMSYN06001028 41358 80412 10006 21005 39986 40006 50003 71022 886//=
0187010280999992014010417004+74517+019000FM-12+001899999V0200401N013019999999N008000199+00041-00071100071ADDAY121021AY221021GA1081+999991071GE19MSL   +99999+99999GF108991081990999999991991MA1999990099871MD1210021+9990MW1101REMSYN06001028 41358 80413 10004 21007 39987 40007 52002 71022 886//=
0247010280999992014010418004+74517+019000FM-12+001899999V0200401N014019999999N008000199+00041-00071100091ADDAA112000091AY121021AY221021GA1081+999991071GE19MSL   +99999+99999GF108991081990999999991991KA1120M+00131MA1999990099891MD1310031+9990MW1101OD139901901999REMSYN08201028 11358 80414 10004 21007 39989 40009 53003 60002 71022 886// 333 10013 91119=
0187010280999992014010419004+74517+019000FM-12+001899999V0200401N013019999999N008000199+00031-00111100131ADDAY121021AY221021GA1081+999991071GE19MSL   +99999+99999GF108991081990999999991991MA1999990099931MD1310071+9990MW1101REMSYN06001028 41358 80413 10003 21011 39993 40013 53007 71022 886//=
0187010280999992014010420004+74517+019000FM-12+001899999V0200401N014019999999N008000199+00021-00111100141ADDAY121021AY221021GA1081+999991071GE19MSL   +99999+99999GF108991081990999999991991MA1999990099941MD1210081+9990MW1101REMSYN06001028 41358 80414 10002 21011 39994 40014 52008 71022 886//=
0187010280999992014010421004+74517+019000FM-12+001899999V0200401N014019999999N008000199+00011-00121100171ADDAY121021AY221021GA1081+999991071GE19MSL   +99999+99999GF108991081990999999991991MA1999990099971MD1210081+9990MW1101REMSYN06001028 41358 80414 10001 21012 39997 40017 52008 71022 886//=
0187010280999992014010422004+74517+019000FM-12+001899999V0200401N014019999999N008000199+00011-00131100201ADDAY121021AY221021GA1081+999991071GE19MSL   +99999+99999GF108991081990999999991991MA1999990100001MD1310071+9990MW1101REMSYN06001028 41358 80414 10001 21013 30000 40020 53007 71022 886//=
0187010280999992014010423004+74517+019000FM-12+001899999V0200501N015019999999N008000199+00001-00161100261ADDAY121021AY221021GA1081+999991071GE19MSL   +99999+99999GF108991081990999999991991MA1999990100061MD1310121+9990MW1101REMSYN06001028 41358 80515 10000 21016 30006 40026 53012 71022 886//=
0247010280999992014010500004+74517+019000FM-12+001899999V0200501N014019999999N010000199+00001-00191100301ADDAA106000091AY141021AY221021GA1081+999991071GE19MSL   +99999+99999GF108991081990999999991991MA1999990100101MD1210141+9990MW1101OD139902001999REMSYN07601028 11360 80514 10000 21019 30010 40030 52014 69901 71042 886// 333 91120=EQDQ01  00002PRCP06
0187010280999992014010501004+74517+019000FM-12+001899999V0200501N013019999999N007000199-00021-00201100351ADDAY141021AY221021GA1081+999991071GE19MSL   +99999+99999GF108991081990999999991991MA1999990100151MD1210151+9990MW1101REMSYN06001028 41357 80513 11002 21020 30015 40035 52015 71042 886//=
0187010280999992014010502004+74517+019000FM-12+001899999V0200501N015019999999N010000199-00011-00231100381ADDAY141021AY221021GA1081+999991071GE19MSL   +99999+99999GF108991081990999999991991MA1999990100181MD1210121+9990MW1021REMSYN06001028 41360 80515 11001 21023 30018 40038 52012 70242 886//=
0187010280999992014010503004+74517+019000FM-12+001899999V0200501N013019999999N010000199-00011-00251100421ADDAY141021AY221021GA1081+999991071GE19MSL   +99999+99999GF108991081990999999991991MA1999990100221MD1210111+9990MW1021REMSYN06001028 41360 80513 11001 21025 30022 40042 52011 70242 886//=
0187010280999992014010504004+74517+019000FM-12+001899999V0200501N014019999999N010000199-00031-00271100451ADDAY121021AY221021GA1081+999991071GE19MSL   +99999+99999GF108991081990999999991991MA1999990100251MD1210101+9990MW1021REMSYN06001028 41460 80514 11003 21027 30025 40045 52010 70222 886//=
0187010280999992014010505004+74517+019000FM-12+001899999V0200401N013019999999N010000199-00051-00261100471ADDAY121021AY221021GA1081+999991071GE19MSL   +99999+99999GF108991081990999999991991MA1999990100271MD1210091+9990MW1021REMSYN06001028 41460 80413 11005 21026 30027 40047 52009 70222 886//=
0264010280999992014010506004+74517+019000FM-12+001899999V0200401N012019999999N010000199-00051-00281100501ADDAA112000091AA224000091AY131021AY221021GA1081+999991061GE19MSL   +99999+99999GF108991081990999999991991KA1240N-00061MA1999990100301MD1210081+9990MW1381OD139902101999REMSYN08801028 11660 80412 11005 21028 30030 40050 52008 60002 73832 885// 333 21006 70000 91121=
0187010280999992014010507004+74517+019000FM-12+001899999V0200401N015019999999N010000199-00061-00251100501ADDAY121021AY221021GA1081+999991061GE19MSL   +99999+99999GF108991081990999999991991MA1999990100301MD1210061+9990MW1021REMSYN06001028 41660 80415 11006 21025 30030 40050 52006 70222 885//=
0187010280999992014010508004+74517+019000FM-12+001899999V0200401N014019999999N010000199-00111-00261100601ADDAY121021AY221021GA1081+999991071GE19MSL   +99999+99999GF108991081990999999991991MA1999990100401MD1310131+9990MW1021REMSYN06001028 41560 80414 11011 21026 30040 40060 53013 70222 886//=
0187010280999992014010509004+74517+019000FM-12+001899999V0200401N013019999999N010000199-00121-00251100661ADDAY121021AY221021GA1081+999991061GE19MSL   +99999+99999GF108991081990999999991991MA1999990100461MD1310161+9990MW1021REMSYN06001028 41560 80413 11012 21025 30046 40066 53016 70222 885//=
0187010280999992014010510004+74517+019000FM-12+001899999V0200401N014019999999N010000199-00131-00241100671ADDAY121021AY221021GA1081+999991061GE19MSL   +99999+99999GF108991081990999999991991MA1999990100471MD1110171+9990MW1021REMSYN06001028 41560 80414 11013 21024 30047 40067 51017 70222 885//=
0187010280999992014010511004+74517+019000FM-12+001899999V0200401N013019999999N020000199-00151-00321100711ADDAY121021AY221021GA1081+999991081GE19MSL   +99999+99999GF108991081990999999991991MA1999990100511MD1110111+9990MW1021REMSYN06001028 41570 80413 11015 21032 30051 40071 51011 70222 888//=
0248010280999992014010512004+74517+019000FM-12+001899999V0200401N014019999999N020000199-00151-00331100761ADDAA106000091AY121021AY221021GA1081+999991081GE19MSL   +99999+99999GF108991081990999999991991MA1999990100561MD1310101+9990MW1021OD139902001999SA1-0011REMSYN08801028 11470 80414 11015 21033 30056 40076 53010 60001 70222 888// 222// 01001 333 91120=
0187010280999992014010513004+74517+019000FM-12+001899999V0200501N013019999999N020000199-00151-00321100811ADDAY121021AY221021GA1081+999991081GE19MSL   +99999+99999GF108991081990999999991991MA1999990100611MD1210131+9990MW1021REMSYN06001028 41470 80513 11015 21032 30061 40081 52013 70222 888//=
0187010280999992014010514004+74517+019000FM-12+001899999V0200401N014019999999N020000199-00181-00361100841ADDAY121021AY221021GA1081+999991081GE19MSL   +99999+99999GF108991081990999999991991MA1999990100641MD1210131+9990MW1021REMSYN06001028 41470 80414 11018 21036 30064 40084 52013 70222 888//=
0187010280999992014010515004+74517+019000FM-12+001899999V0200501N013019999999N020000199-00181-00361100881ADDAY121021AY221021GA1081+999991081GE19MSL   +99999+99999GF108991081990999999991991MA1999990100681MD1210121+9990MW1021REMSYN06001028 41470 80513 11018 21036 30068 40088 52012 70222 888//=
0203010280999992014010517004+74517+019000FM-12+001899999V0200501N012019999999N015000199-00171-00371100891ADDAY121021AY221021GA1991+999991031GA2051+999991061GE19MSL   +99999+99999GF108991990990999999991991MA1999990100691MD1110061+9990MW1021REMSYN06001028 41465 80512 11017 21037 30069 40089 51006 70222 8557/=
0239010280999992014010518004+74517+019000FM-12+001899999V0200501N014019999999N015000199-00201-00421100931ADDAA112000091AY181021AY221021GA1991+999991031GA2051+999991061GE19MSL   +99999+99999GF108991990990999999991991MA1999990100731MD1310051+9990MW1021REMSYN06601028 11365 80514 11020 21042 30073 40093 53005 69902 70282 8557/=EQDQ01  00002PRCP12
0203010280999992014010519004+74517+019000FM-12+001899999V0200401N012019999999N015000199-00191-00391100961ADDAY121021AY221021GA1991+999991031GA2051+999991061GE19MSL   +99999+99999GF108991990990999999991991MA1999990100761MD1310071+9990MW1021REMSYN06001028 41365 80412 11019 21039 30076 40096 53007 70222 8557/=
0203010280999992014010520004+74517+019000FM-12+001899999V0200501N014019999999N015000199-00161-00361100971ADDAY121021AY221021GA1991+999991031GA2041+999991061GE19MSL   +99999+99999GF108991990990999999991991MA1999990100771MD1210081+9990MW1021REMSYN06001028 41365 80514 11016 21036 30077 40097 52008 70222 8457/=
0203010280999992014010521004+74517+019000FM-12+001899999V0200501N014019999999N015000199-00191-00421101021ADDAY121021AY221021GA1991+999991031GA2041+999991061GE19MSL   +99999+99999GF107991990990999999991991MA1999990100821MD1310091+9990MW1011REMSYN06001028 41465 70514 11019 21042 30082 40102 53009 70122 8457/=
0187010280999992014010522004+74517+019000FM-12+001899999V0200501N012019999999N015000199-00191-00431101051ADDAY181021AY221021GA1081+999991081GE19MSL   +99999+99999GF108991081990999999991991MA1999990100851MD1310101+9990MW1851REMSYN06001028 41465 80512 11019 21043 30085 40105 53010 78582 888//=
0187010280999992014010523004+74517+019000FM-12+001899999V0200501N011019999999N010000199-00201-00391101081ADDAY181021AY221021GA1081+999991081GE19MSL   +99999+99999GF108991081990999999991991MA1999990100881MD1210111+9990MW1851REMSYN06001028 41360 80511 11020 21039 30088 40108 52011 78582 888//=
0247010280999992014010600004+74517+019000FM-12+001899999V0200501N012019999999N010000199-00191-00481101111ADDAA106999999AY181021AY221021GA1071+999991081GE19MSL   +99999+99999GF107991071990999999991991MA1999990100911MD1210091+9990MW1851OD139901801999REMSYN07601028 11560 70512 11019 21048 30091 40111 52009 60001 78582 878// 333 91118=EQDQ01  00002PRCP06
0187010280999992014010601004+74517+019000FM-12+001899999V0200501N012019999999N010000199-00191-00541101131ADDAY121021AY211021GA1041+999991061GE19MSL   +99999+99999GF104991041990999999991991MA1999990100931MD1210081+9990MW1011REMSYN06001028 41560 40512 11019 21054 30093 40113 52008 70121 84500=
0187010280999992014010602004+74517+019000FM-12+001899999V0200501N012019999999N010000199-00201-00531101141ADDAY111021AY211021GA1041+999991061GE19MSL   +99999+99999GF104991041990999999991991MA1999990100941MD1210061+9990MW1021REMSYN06001028 41560 40512 11020 21053 30094 40114 52006 70211 84500=
0187010280999992014010603004+74517+019000FM-12+001899999V0200501N013019999999N010000199-00201-00491101121ADDAY121021AY221021GA1061+999991061GE19MSL   +99999+99999GF106991061990999999991991MA1999990100921MD1900021+9990MW1031REMSYN06001028 41560 60513 11020 21049 30092 40112 50002 70322 86500=
0187010280999992014010604004+74517+019000FM-12+001899999V0200501N012019999999N010000199-00211-00461101151ADDAY121021AY221021GA1061+999991061GE19MSL   +99999+99999GF106991061990999999991991MA1999990100951MD1310021+9990MW1021REMSYN06001028 41560 60512 11021 21046 30095 40115 53002 70222 86500=
0206010280999992014010605004+74517+019000FM-12+001899999V0200401N012019999999N010000199-00201-00461101141ADDAY121021AY221021GA1051+999991061GE19MSL   +99999+99999GF105991051990999999991991MA1999990100941MD1410009+9990MW1021REMSYN06001028 41560 50412 11020 21046 30094 40114 54001 70222 85500=EQDQ01.1    3APC3  
0293010280999992014010606004+74517+019000FM-12+001899999V0200401N011019999999N010000199-00151-00371101111ADDAA112000021AA224000021AJ199991999999999AY121021AY221021GA1031+999991061GE19MSL   +99999+99999GF103991031990999999991991IA1269KA1240N-00211MA1999990100911MD1900011+9990MW1011OD139901701999REMSYN09401028 11560 30411 11015 21037 30091 40111 50001 69902 70122 83500 333 21021 42999 79999 91117=
0187010280999992014010607004+74517+019000FM-12+001899999V0200501N009019999999N010000199-00111-00361101141ADDAY121021AY211021GA1061+999991061GE19MSL   +99999+99999GF106991061990999999991991MA1999990100941MD1510011+9990MW1031REMSYN06001028 41660 60509 11011 21036 30094 40114 55001 70321 86500=
0187010280999992014010608004+74517+019000FM-12+001899999V0200501N009019999999N010000199-00071-00421101171ADDAY121021AY221021GA1081+999991061GE19MSL   +99999+99999GF108991081990999999991991MA1999990100971MD1310031+9990MW1031REMSYN06001028 41660 80509 11007 21042 30097 40117 53003 70322 885//=
0187010280999992014010609004+74517+019000FM-12+001899999V0200601N010019999999N010000199-00101-00421101211ADDAY121021AY221021GA1071+999991061GE19MSL   +99999+99999GF107991071990999999991991MA1999990101011MD1210101+9990MW1011REMSYN06001028 41660 70610 11010 21042 30101 40121 52010 70122 875//=
0187010280999992014010610004+74517+019000FM-12+001899999V0200601N012019999999N010000199-00121-00401101241ADDAY121021AY221021GA1071+999991061GE19MSL   +99999+99999GF107991071990999999991991MA1999990101041MD1210101+9990MW1021REMSYN06001028 41660 70612 11012 21040 30104 40124 52010 70222 875//=
0187010280999992014010611004+74517+019000FM-12+001899999V0200601N013019999999N010000199-00151-00391101281ADDAY121021AY221021GA1061+999991061GE19MSL   +99999+99999GF106991061990999999991991MA1999990101081MD1210111+9990MW1011REMSYN06001028 41660 60613 11015 21039 30108 40128 52011 70122 86500=
0267010280999992014010612004+74517+019000FM-12+001899999V0200501N012019999999N010000199-00171-00341101291ADDAA106000091AY121021AY221021GA1071+999991061GE19MSL   +99999+99999GF107991071990999999991991MA1999990101091MD1210081+9990MW1031OD139901601999SA1-0021REMSYN08801028 11760 70512 11017 21034 30109 40129 52008 69901 70322 875// 222// 01002 333 91116=EQDQ01  00002PRCP06
0203010280999992014010613004+74517+019000FM-12+001899999V0200601N011019999999N015000199-00171-00361101301ADDAY121021AY221021GA1991+999991031GA2041+999991061GE19MSL   +99999+99999GF106991990990999999991991MA1999990101101MD1210061+9990MW1011REMSYN06001028 41765 60611 11017 21036 30110 40130 52006 70122 84570=
0203010280999992014010614004+74517+019000FM-12+001899999V0200601N011019999999N015000199-00151-00431101291ADDAY121021AY221021GA1991+999991031GA2031+999991061GE19MSL   +99999+99999GF104991990990999999991991MA1999990101091MD1210011+9990MW1011REMSYN06001028 41765 40611 11015 21043 30109 40129 52001 70122 83530=
0187010280999992014010615004+74517+019000FM-12+001899999V0200601N009019999999N015000199-00121-00441101261ADDAY121021AY221021GA1041+999991061GE19MSL   +99999+99999GF104991041990999999991991MA1999990101061MD1810041+9990MW1021REMSYN06001028 41765 40609 11012 21044 30106 40126 58004 70222 84500=
0187010280999992014010616004+74517+019000FM-12+001899999V0200601N011019999999N015000199-00101-00441101231ADDAY121021AY221021GA1041+999991061GE19MSL   +99999+99999GF104991041990999999991991MA1999990101031MD1810081+9990MW1021REMSYN06001028 41765 40611 11010 21044 30103 40123 58008 70222 84500=
0187010280999992014010617004+74517+019000FM-12+001899999V0200601N009019999999N015000199-00131-00391101231ADDAY121021AY211021GA1031+999991061GE19MSL   +99999+99999GF103991031990999999991991MA1999990101031MD1610071+9990MW1011REMSYN06001028 41765 30609 11013 21039 30103 40123 56007 70121 83500=
0247010280999992014010618004+74517+019000FM-12+001899999V0200701N010019999999N010000199-00081-00471101241ADDAA112000091AY121021AY221021GA1081+999991081GE19MSL   +99999+99999GF108991081990999999991991KA1120M-00061MA1999990101041MD1510011+9990MW1031OD139901501999REMSYN08201028 11660 80710 11008 21047 30104 40124 55001 60002 70322 888// 333 11006 91115=
0187010280999992014010619004+74517+019000FM-12+001899999V0200701N011019999999N010000199-00091-00371101241ADDAY121021AY221021GA1081+999991061GE19MSL   +99999+99999GF108991081990999999991991MA1999990101041MD1210011+9990MW1021REMSYN06001028 41660 80711 11009 21037 30104 40124 52001 70222 885//=
0187010280999992014010620004+74517+019000FM-12+001899999V0200601N009019999999N005000199-00131-00241101251ADDAY121021AY221021GA1081+999991061GE19MSL   +99999+99999GF108991081990999999991991MA1999990101051MD1210021+9990MW1701REMSYN06001028 41550 80609 11013 21024 30105 40125 52002 77022 885//=
0187010280999992014010621004+74517+019000FM-12+001899999V0200701N010019999999N005000199-00111-00281101261ADDAY181021AY221021GA1071+999991091GE19MSL   +99999+99999GF107991071990999999991991MA1999990101061MD1210021+9990MW1851REMSYN06001028 41550 70710 11011 21028 30106 40126 52002 78582 873//=
0206010280999992014010622004+74517+019000FM-12+001899999V0201001N010019999999N020000199-00111-00411101251ADDAY111021AY201021GA1021+999991061GE19MSL   +99999+99999GF102991021990999999991991MA1999990101051MD1290019+9990MW1011REMSYN06001028 41570 21010 11011 21041 30105 40125 54001 70110 82500=EQDQ01.1    3APC3  
0187010280999992014010623004+74517+019000FM-12+001899999V0201001N011019999999N010000199-00061-00471101251ADDAY121021AY221021GA1071+999991061GE19MSL   +99999+99999GF107991071990999999991991MA1999990101051MD1410001+9990MW1031REMSYN06001028 41560 71011 11006 21047 30105 40125 54000 70322 875//=
0228010280999992014010700004+74517+019000FM-12+001899999V0201001N011019999999N010000199-00091-00591101281ADDAA106000021AY181021AY221021GA1081+999991031GE19MSL   +99999+99999GF108991081990999999991991MA1999990101081MD1310021+9990MW1031OD139901601999REMSYN07601028 11860 81011 11009 21059 30108 40128 53002 69901 70382 8807/ 333 91116=
0203010280999992014010701004+74517+019000FM-12+001899999V0201001N014019999999N010000199-00121-00591101311ADDAY121021AY221021GA1991+999991031GA2041+999991061GE19MSL   +99999+99999GF107991990990999999991991MA1999990101111MD1310071+9990MW1011REMSYN06001028 41760 71014 11012 21059 30111 40131 53007 70122 8457/=
0203010280999992014010702004+74517+019000FM-12+001899999V0200701N011019999999N010000199-00181-00611101321ADDAY121021AY221021GA1991+999991031GA2031+999991061GE19MSL   +99999+99999GF104991990990999999991991MA1999990101121MD1210081+9990MW1011REMSYN06001028 41760 40711 11018 21061 30112 40132 52008 70122 83570=
0187010280999992014010703004+74517+019000FM-12+001899999V0200801N012019999999N010000199-00171-00581101311ADDAY121021AY221021GA1041+999991061GE19MSL   +99999+99999GF104991041990999999991991MA1999990101111MD1210031+9990MW1021REMSYN06001028 41660 40812 11017 21058 30111 40131 52003 70222 84500=
0187010280999992014010704004+74517+019000FM-12+001899999V0200901N014019999999N010000199-00171-00671101281ADDAY121021AY221021GA1071+999991061GE19MSL   +99999+99999GF107991071990999999991991MA1999990101081MD1810031+9990MW1031REMSYN06001028 41760 70914 11017 21067 30108 40128 58003 70322 875//=
0187010280999992014010705004+74517+019000FM-12+001899999V0200801N014019999999N010000199-00201-00561101291ADDAY121021AY221021GA1041+999991061GE19MSL   +99999+99999GF104991041990999999991991MA1999990101091MD1510031+9990MW1011REMSYN06001028 41760 40814 11020 21056 30109 40129 55003 70122 84500=
0293010280999992014010706004+74517+019000FM-12+001899999V0200801N015019999999N010000199-00231-00691101311ADDAA112000021AA224000021AJ199991999999999AY181021AY211021GA1031+999991081GE19MSL   +99999+99999GF103991031990999999991991IA1269KA1240N-00231MA1999990101111MD1510001+9990MW1271OD139902001999REMSYN09401028 11660 30815 11023 21069 30111 40131 55000 69902 72781 83800 333 21023 42999 79999 91120=
0187010280999992014010707004+74517+019000FM-12+001899999V0200801N015019999999N010000199-00241-00601101361ADDAY111021AY211021GA1031+999991081GE19MSL   +99999+99999GF103991031990999999991991MA1999990101161MD1310071+9990MW1021REMSYN06001028 41760 30815 11024 21060 30116 40136 53007 70211 83800=
0187010280999992014010708004+74517+019000FM-12+001899999V0200801N015019999999N010000199-00221-00711101371ADDAY121021AY221021GA1071+999991081GE19MSL   +99999+99999GF107991071990999999991991MA1999990101171MD1210081+9990MW1031REMSYN06001028 41660 70815 11022 21071 30117 40137 52008 70322 878//=
0187010280999992014010709004+74517+019000FM-12+001899999V0200701N015019999999N010000199-00241-00791101421ADDAY121021AY221021GA1081+999991081GE19MSL   +99999+99999GF108991081990999999991991MA1999990101221MD1210111+9990MW1021REMSYN06001028 41760 80715 11024 21079 30122 40142 52011 70222 888//=
0187010280999992014010710004+74517+019000FM-12+001899999V0200701N015019999999N015000199-00271-00851101441ADDAY121021AY221021GA1081+999991081GE19MSL   +99999+99999GF108991081990999999991991MA1999990101241MD1210081+9990MW1021REMSYN06001028 41765 80715 11027 21085 30124 40144 52008 70222 888//=
0203010280999992014010711004+74517+019000FM-12+001899999V0200601N013019999999N015000199-00271-00841101441ADDAY121021AY221021GA1991+999991031GA2071+999991081GE19MSL   +99999+99999GF107991990990999999991991MA1999990101241MD1110061+9990MW1021REMSYN06001028 41765 70613 11027 21084 30124 40144 51006 70222 87870=
0248010280999992014010712004+74517+019000FM-12+001899999V0200601N014019999999N020000199-00281-00791101431ADDAA106000091AY121021AY221021GA1071+999991061GE19MSL   +99999+99999GF107991071990999999991991MA1999990101231MD1210011+9990MW1021OD139902001999SA1-0081REMSYN08801028 11570 70614 11028 21079 30123 40143 52001 60001 70222 875// 222// 01008 333 91120=
0187010280999992014010713004+74517+019000FM-12+001899999V0200601N014019999999N010000199-00271-00781101421ADDAY121021AY221021GA1081+999991061GE19MSL   +99999+99999GF108991081990999999991991MA1999990101221MD1710011+9990MW1021REMSYN06001028 41560 80614 11027 21078 30122 40142 57001 70222 885//=
0187010280999992014010714004+74517+019000FM-12+001899999V0200601N014019999999N015000199-00291-00791101421ADDAY121021AY221021GA1081+999991061GE19MSL   +99999+99999GF108991081990999999991991MA1999990101221MD1710011+9990MW1021REMSYN06001028 41565 80614 11029 21079 30122 40142 57001 70222 885//=
0187010280999992014010715004+74517+019000FM-12+001899999V0200601N013019999999N010000199-00291-00721101421ADDAY121021AY221021GA1081+999991061GE19MSL   +99999+99999GF108991081990999999991991MA1999990101221MD1710021+9990MW1021REMSYN06001028 41560 80613 11029 21072 30122 40142 57002 70222 885//=
0187010280999992014010716004+74517+019000FM-12+001899999V0200601N014019999999N010000199-00281-00661101421ADDAY121021AY221021GA1081+999991091GE19MSL   +99999+99999GF108991081990999999991991MA1999990101221MD1410001+9990MW1261REMSYN06001028 41560 80614 11028 21066 30122 40142 54000 72622 883//=
0187010280999992014010717004+74517+019000FM-12+001899999V0200601N014019999999N010000199-00241-00741101411ADDAY121021AY221021GA1081+999991061GE19MSL   +99999+99999GF108991081990999999991991MA1999990101211MD1710021+9990MW1021REMSYN06001028 41560 80614 11024 21074 30121 40141 57002 70222 885//=
0266010280999992014010718004+74517+019000FM-12+001899999V0200501N015019999999N010000199-00301-00631101441ADDAA112999999AY121021AY221021GA1081+999991061GE19MSL   +99999+99999GF108991081990999999991991KA1120M-00211MA1999990101241MD1310021+9990MW1701OD139902001999REMSYN08201028 11460 80515 11030 21063 30124 40144 53002 60002 77022 885// 333 11021 91120=EQDQ01  00002PRCP12
0203010280999992014010719004+74517+019000FM-12+001899999V0200501N014019999999N010000199-00261-00771101461ADDAY171021AY221021GA1991+999991031GA2051+999991061GE19MSL   +99999+99999GF107991990990999999991991MA1999990101261MD1310051+9990MW1011REMSYN06001028 41460 70514 11026 21077 30126 40146 53005 70172 8557/=
0203010280999992014010720004+74517+019000FM-12+001899999V0200501N015019999999N010000199-00251-00711101491ADDAY121021AY221021GA1991+999991031GA2041+999991061GE19MSL   +99999+99999GF105991990990999999991991MA1999990101291MD1210071+9990MW1011REMSYN06001028 41560 50515 11025 21071 30129 40149 52007 70122 84570=
0203010280999992014010721004+74517+019000FM-12+001899999V0200501N013019999999N010000199-00271-00731101541ADDAY171021AY221021GA1991+999991031GA2051+999991061GE19MSL   +99999+99999GF106991990990999999991991MA1999990101341MD1310101+9990MW1031REMSYN06001028 41560 60513 11027 21073 30134 40154 53010 70372 85570=
0203010280999992014010722004+74517+019000FM-12+001899999V0200401N013019999999N010000199-00281-00721101561ADDAY121021AY221021GA1991+999991031GA2061+999991061GE19MSL   +99999+99999GF107991990990999999991991MA1999990101361MD1210101+9990MW1031REMSYN06001028 41660 70413 11028 21072 30136 40156 52010 70322 8657/=
0187010280999992014010723004+74517+019000FM-12+001899999V0200401N015019999999N010000199-00331-00591101571ADDAY121021AY221021GA1081+999991061GE19MSL   +99999+99999GF108991081990999999991991MA1999990101371MD1110091+9990MW1031REMSYN06001028 41560 80415 11033 21059 30137 40157 51009 70322 885//=
0228010280999992014010800004+74517+019000FM-12+001899999V0200401N014019999999N005000199-00331-00591101601ADDAA106000021AY171021AY221021GA1081+999991081GE19MSL   +99999+99999GF108991081990999999991991MA1999990101401MD1310061+9990MW1711OD139901901999REMSYN07601028 11450 80414 11033 21059 30140 40160 53006 69901 77172 888// 333 91119=
0187010280999992014010801004+74517+019000FM-12+001899999V0200401N014019999999N010000199-00301-00631101601ADDAY171021AY221021GA1071+999991081GE19MSL   +99999+99999GF107991071990999999991991MA1999990101401MD1210041+9990MW1261REMSYN06001028 41560 70414 11030 21063 30140 40160 52004 72672 878//=
0187010280999992014010802004+74517+019000FM-12+001899999V0200401N014019999999N005000199-00321-00591101621ADDAY171021AY221021GA1081+999991081GE19MSL   +99999+99999GF108991081990999999991991MA1999990101421MD1210051+9990MW1701REMSYN06001028 41550 80414 11032 21059 30142 40162 52005 77072 888//=
0187010280999992014010803004+74517+019000FM-12+001899999V0200401N014019999999N015000199-00291-00671101631ADDAY181021AY221021GA1061+999991081GE19MSL   +99999+99999GF106991061990999999991991MA1999990101431MD1210031+9990MW1011REMSYN06001028 41665 60414 11029 21067 30143 40163 52003 70182 86800=
0187010280999992014010804004+74517+019000FM-12+001899999V0200401N013019999999N015000199-00301-00621101631ADDAY121021AY221021GA1031+999991061GE19MSL   +99999+99999GF103991031990999999991991MA1999990101431MD1210031+9990MW1011REMSYN06001028 41665 30413 11030 21062 30143 40163 52003 70122 83500=
0187010280999992014010805004+74517+019000FM-12+001899999V0200401N013019999999N010000199-00321-00621101641ADDAY121021AY221021GA1081+999991081GE19MSL   +99999+99999GF108991081990999999991991MA1999990101441MD1210021+9990MW1031REMSYN06001028 41560 80413 11032 21062 30144 40164 52002 70322 888//=
0293010280999992014010806004+74517+019000FM-12+001899999V0200401N012019999999N015000199-00311-00691101661ADDAA112000021AA224000021AJ199991999999999AY181021AY221021GA1081+999991061GE19MSL   +99999+99999GF108991081990999999991991IA1269KA1240N-00351MA1999990101461MD1210031+9990MW1021OD139901901999REMSYN09401028 11565 80412 11031 21069 30146 40166 52003 69902 70282 885// 333 21035 42999 79999 91119=
0187010280999992014010807004+74517+019000FM-12+001899999V0200401N013019999999N015000199-00331-00661101701ADDAY121021AY221021GA1081+999991061GE19MSL   +99999+99999GF108991081990999999991991MA1999990101501MD1310061+9990MW1021REMSYN06001028 41565 80413 11033 21066 30150 40170 53006 70222 885//=
0187010280999992014010808004+74517+019000FM-12+001899999V0200301N011019999999N015000199-00351-00691101731ADDAY121021AY221021GA1071+999991061GE19MSL   +99999+99999GF107991071990999999991991MA1999990101531MD1210091+9990MW1021REMSYN06001028 41565 70311 11035 21069 30153 40173 52009 70222 875//=
0187010280999992014010809004+74517+019000FM-12+001899999V0200301N012019999999N015000199-00331-00681101741ADDAY121021AY221021GA1081+999991081GE19MSL   +99999+99999GF108991081990999999991991MA1999990101541MD1210081+9990MW1021REMSYN06001028 41565 80312 11033 21068 30154 40174 52008 70222 888//=
0187010280999992014010810004+74517+019000FM-12+001899999V0200301N011019999999N015000199-00321-00681101771ADDAY121021AY221021GA1061+999991061GE19MSL   +99999+99999GF106991061990999999991991MA1999990101571MD1210081+9990MW1011REMSYN06001028 41565 60311 11032 21068 30157 40177 52008 70122 86500=
0187010280999992014010811004+74517+019000FM-12+001899999V0200301N010019999999N015000199-00331-00551101771ADDAY121021AY211021GA1031+999991081GE19MSL   +99999+99999GF103991031990999999991991MA1999990101571MD1210041+9990MW1011REMSYN06001028 41565 30310 11033 21055 30157 40177 52004 70121 83800=
0267010280999992014010812004+74517+019000FM-12+001899999V0200301N010019999999N015000199-00311-00611101771ADDAA106000091AY121021AY211021GA1041+999991081GE19MSL   +99999+99999GF104991041990999999991991MA1999990101571MD1900031+9990MW1031OD139901701999SA1-0031REMSYN08801028 11565 40310 11031 21061 30157 40177 50003 69901 70321 84800 222// 01003 333 91117=EQDQ01  00002PRCP06
0187010280999992014010813004+74517+019000FM-12+001899999V0200401N008019999999N015000199-00301-00681101791ADDAY121021AY211021GA1031+999991081GE19MSL   +99999+99999GF103991031990999999991991MA1999990101591MD1210021+9990MW1011REMSYN06001028 41565 30408 11030 21068 30159 40179 52002 70121 83800=
0187010280999992014010814004+74517+019000FM-12+001899999V0200601N009019999999N015000199-00341-00651101821ADDAY121021AY211021GA1041+999991081GE19MSL   +99999+99999GF104991041990999999991991MA1999990101621MD1310051+9990MW1031REMSYN06001028 41565 40609 11034 21065 30162 40182 53005 70321 84800=
0187010280999992014010815004+74517+019000FM-12+001899999V0200601N009019999999N015000199-00421-00631101831ADDAY121021AY211021GA1041+999991081GE19MSL   +99999+99999GF104991041990999999991991MA1999990101621MD1210061+9990MW1021REMSYN06001028 41665 40609 11042 21063 30162 40183 52006 70221 84800=
0187010280999992014010816004+74517+019000FM-12+001899999V0200301N010019999999N015000199-00341-00631101811ADDAY111021AY201021GA1021+999991081GE19MSL   +99999+99999GF102991021990999999991991MA1999990101611MD1210021+9990MW1011REMSYN06001028 41665 20310 11034 21063 30161 40181 52002 70110 82800=
0187010280999992014010817004+74517+019000FM-12+001899999V0200501N008019999999N010000199-00421-00591101861ADDAY121021AY211021GA1051+999991081GE19MSL   +99999+99999GF105991051990999999991991MA1999990101651MD1310031+9990MW1031REMSYN06001028 41660 50508 11042 21059 30165 40186 53003 70321 85800=
0247010280999992014010818004+74517+019000FM-12+001899999V0200401N011019999999N010000199-00361-00761101851ADDAA112000131AY121021AY211021GA1051+999991081GE19MSL   +99999+99999GF105991051990999999991991KA1120M-00281MA1999990101641MD1310021+9990MW1261OD139901501999REMSYN08201028 11660 50411 11036 21076 30164 40185 53002 69912 72621 85800 333 11028 91115=
0187010280999992014010819004+74517+019000FM-12+001899999V0200301N011019999999N015000199-00361-00761101881ADDAY111021AY211021GA1041+999991081GE19MSL   +99999+99999GF104991041990999999991991MA1999990101671MD1210051+9990MW1021REMSYN06001028 41565 40311 11036 21076 30167 40188 52005 70211 84800=
0203010280999992014010820004+74517+019000FM-12+001899999V0200401N010019999999N015000199-00361-00831101921ADDAY111021AY211021GA1991+999991031GA2031+999991081GE19MSL   +99999+99999GF104991990990999999991991MA1999990101711MD1310061+9990MW1021REMSYN06001028 41665 40410 11036 21083 30171 40192 53006 70211 83830=
0203010280999992014010821004+74517+019000FM-12+001899999V0200401N009019999999N015000199-00381-00841101951ADDAY111021AY211021GA1991+999991031GA2031+999991081GE19MSL   +99999+99999GF104991990990999999991991MA1999990101741MD1210101+9990MW1021REMSYN06001028 41665 40409 11038 21084 30174 40195 52010 70211 83830=
0203010280999992014010823004+74517+019000FM-12+001899999V0200201N010019999999N015000199-00451-00741101981ADDAY101021AY201021GA1991+999991031GA2021+999991061GE19MSL   +99999+99999GF103991990990999999991991MA1999990101771MD1210071+9990MW1021REMSYN06001028 41665 30210 11045 21074 30177 40198 52007 70200 82570=
0228010280999992014010900004+74517+019000FM-12+001899999V0200201N009019999999N015000199-00451-00771102011ADDAA106000021AY111021AY201021GA1031+999991081GE19MSL   +99999+99999GF103991031990999999991991MA1999990101801MD1310061+9990MW1021OD139901401999REMSYN07601028 11565 30209 11045 21077 30180 40201 53006 69901 70210 83800 333 91114=
0187010280999992014010901004+74517+019000FM-12+001899999V0200201N006019999999N015000199-00471-00871102001ADDAY121021AY211021GA1051+999991081GE19MSL   +99999+99999GF105991051990999999991991MA1999990101791MD1900051+9990MW1031REMSYN06001028 41565 50206 11047 21087 30179 40200 50005 70321 85800=
0187010280999992014010902004+74517+019000FM-12+001899999V0200501N005019999999N015000199-00501-01061101961ADDAY121021AY221021GA1051+999991081GE19MSL   +99999+99999GF105991051990999999991991MA1999990101751MD1810021+9990MW1021REMSYN06001028 41565 50505 11050 21106 30175 40196 58002 70222 85800=
0187010280999992014010903004+74517+019000FM-12+001899999V0200401N004019999999N015000199-00441-01051101961ADDAY121021AY221021GA1041+999991061GE19MSL   +99999+99999GF104991041990999999991991MA1999990101751MD1510051+9990MW1021REMSYN06001028 41565 40404 11044 21105 30175 40196 55005 70222 84500=
0187010280999992014010904004+74517+019000FM-12+001899999V0200301N008019999999N015000199-00381-00691101991ADDAY181021AY221021GA1051+999991081GE19MSL   +99999+99999GF105991051990999999991991MA1999990101781MD1510011+9990MW1261REMSYN06001028 41565 50308 11038 21069 30178 40199 55001 72682 85800=
0187010280999992014010905004+74517+019000FM-12+001899999V0200401N009019999999N010000199-00381-00661102001ADDAY181021AY221021GA1071+999991081GE19MSL   +99999+99999GF107991071990999999991991MA1999990101791MD1210051+9990MW1851REMSYN06001028 41460 70409 11038 21066 30179 40200 52005 78582 878//=
0293010280999992014010906004+74517+019000FM-12+001899999V0200501N007019999999N010000199-00371-00781102021ADDAA112000021AA224000131AJ199991999999999AY181021AY221021GA1081+999991081GE19MSL   +99999+99999GF108991081990999999991991IA1269KA1240N-00521MA1999990101811MD1210061+9990MW1851OD139901201999REMSYN09401028 11560 80507 11037 21078 30181 40202 52006 69902 78582 888// 333 21052 42/// 70001 91112=
0187010280999992014010907004+74517+019000FM-12+001899999V0200601N009019999999N015000199-00391-00821102001ADDAY181021AY221021GA1081+999991081GE19MSL   +99999+99999GF108991081990999999991991MA1999990101791MD1210021+9990MW1261REMSYN06001028 41565 80609 11039 21082 30179 40200 52002 72682 888//=
0187010280999992014010908004+74517+019000FM-12+001899999V0200501N008019999999N015000199-00411-00821102061ADDAY121021AY221021GA1061+999991061GE19MSL   +99999+99999GF106991061990999999991991MA1999990101851MD1310051+9990MW1011REMSYN06001028 41565 60508 11041 21082 30185 40206 53005 70122 86500=
0187010280999992014010909004+74517+019000FM-12+001899999V0200401N008019999999N020000199-00421-00821102111ADDAY121021AY221021GA1051+999991061GE19MSL   +99999+99999GF105991051990999999991991MA1999990101901MD1310101+9990MW1011REMSYN06001028 41570 50408 11042 21082 30190 40211 53010 70122 85500=
0187010280999992014010910004+74517+019000FM-12+001899999V0200401N007019999999N020000199-00451-00881102131ADDAY121021AY221021GA1051+999991061GE19MSL   +99999+99999GF105991051990999999991991MA1999990101921MD1210131+9990MW1021REMSYN06001028 41570 50407 11045 21088 30192 40213 52013 70222 85500=
0187010280999992014010911004+74517+019000FM-12+001899999V0200501N006019999999N020000199-00481-00971102111ADDAY111021AY201021GA1021+999991061GE19MSL   +99999+99999GF102991021990999999991991MA1999990101901MD1900051+9990MW1011REMSYN06001028 41570 20506 11048 21097 30190 40211 50005 70110 82500=
0248010280999992014010912004+74517+019000FM-12+001899999V0200301N005019999999N020000199-00481-00991102121ADDAA106000021AY181021AY221021GA1051+999991061GE19MSL   +99999+99999GF105991051990999999991991MA1999990101911MD1210011+9990MW1021OD139901101999SA1-0071REMSYN08801028 11670 50305 11048 21099 30191 40212 52001 69901 70282 85500 222// 01007 333 91111=
0203010280999992014010913004+74517+019000FM-12+001899999V0200301N005019999999N020000199-00511-01021102131ADDAY111021AY211021GA1991+999991031GA2051+999991061GE19MSL   +99999+99999GF106991990990999999991991MA1999990101921MD1510001+9990MW1021REMSYN06001028 41670 60305 11051 21102 30192 40213 55000 70211 85530=
0203010280999992014010914004+74517+019000FM-12+001899999V0200501N005019999999N020000199-00551-01051102141ADDAY111021AY211021GA1991+999991031GA2031+999991061GE19MSL   +99999+99999GF104991990990999999991991MA1999990101931MD1210041+9990MW1021REMSYN06001028 41670 40505 11055 21105 30193 40214 52004 70211 83530=
0187010280999992014010915004+74517+019000FM-12+001899999V0200201N005019999999N020000199-00541-01061102121ADDAY111021AY211021GA1081+999991061GE19MSL   +99999+99999GF108991081990999999991991MA1999990101911MD1900011+9990MW1031REMSYN06001028 41670 80205 11054 21106 30191 40212 50001 70311 885//=
0187010280999992014010916004+74517+019000FM-12+001899999V0200301N004019999999N015000199-00571-01131102101ADDAY121021AY221021GA1071+999991061GE19MSL   +99999+99999GF107991071990999999991991MA1999990101891MD1810031+9990MW1021REMSYN06001028 41665 70304 11057 21113 30189 40210 58003 70222 875//=
0203010280999992014010917004+74517+019000FM-12+001899999V0200301N004019999999N015000199-00581-01111102051ADDAY101021AY201021GA1991+999991031GA2021+999991061GE19MSL   +99999+99999GF104991990990999999991991MA1999990101841MD1810091+9990MW1011REMSYN06001028 41665 40304 11058 21111 30184 40205 58009 70100 82540=
0247010280999992014010918004+74517+019000FM-12+001899999V0200201N004019999999N015000199-00541-01011102051ADDAA112000021AY121021AY211021GA1061+999991061GE19MSL   +99999+99999GF106991061990999999991991KA1120M-00371MA1999990101841MD1710061+9990MW1021OD139900801999REMSYN08201028 11565 60204 11054 21101 30184 40205 57006 69902 70221 86500 333 11037 91108=
0203010280999992014010919004+74517+019000FM-12+001899999V0200501N004019999999N015000199-00541-00981102011ADDAY121021AY221021GA1991+999991041GA2011+999991061GE19MSL   +99999+99999GF106991990990999999991991MA1999990101801MD1710091+9990MW1021REMSYN06001028 41565 60504 11054 21098 30180 40201 57009 70222 81510=
0203010280999992014010920004+74517+019000FM-12+001899999V0200501N004019999999N015000199-00581-00931102031ADDAY121021AY221021GA1991+999991041GA2011+999991061GE19MSL   +99999+99999GF107991990990999999991991MA1999990101821MD1510021+9990MW1021REMSYN06001028 41565 70504 11058 21093 30182 40203 55002 70222 8151/=
0203010280999992014010921004+74517+019000FM-12+001899999V0200701N002019999999N015000199-00631-00951102021ADDAY121021AY221021GA1991+999991041GA2011+999991061GE19MSL   +99999+99999GF107991990990999999991991MA1999990101811MD1510031+9990MW1021REMSYN06001028 41565 70702 11063 21095 30181 40202 55003 70222 8151/=
0203010280999992014010922004+74517+019000FM-12+001899999V0201501N003019999999N015000199-00711-00981102021ADDAY121021AY221021GA1991+999991041GA2011+999991061GE19MSL   +99999+99999GF107991990990999999991991MA1999990101811MD1900011+9990MW1021REMSYN06001028 41565 71503 11071 21098 30181 40202 50001 70222 8151/=
0203010280999992014010923004+74517+019000FM-12+001899999V0201301N002019999999N010000199-00721-00991101961ADDAY121021AY221021GA1991+999991041GA2011+999991061GE19MSL   +99999+99999GF107991990990999999991991MA1999990101751MD1810071+9990MW1021REMSYN06001028 41560 71302 11072 21099 30175 40196 58007 70222 8151/=
0244010280999992014011000004+74517+019000FM-12+001899999V0201201N005019999999N010000199-00771-01021101871ADDAA106000091AY121021AY221021GA1991+999991041GA2011+999991061GE19MSL   +99999+99999GF107991990990999999991991MA1999990101661MD1810151+9990MW1021OD139900601999REMSYN07601028 11560 71205 11077 21102 30166 40187 58015 60001 70222 8151/ 333 91106=
0203010280999992014011001004+74517+019000FM-12+001899999V0202101N003019999999N010000199-00711-01051101831ADDAY121021AY221021GA1991+999991041GA2011+999991061GE19MSL   +99999+99999GF107991990990999999991991MA1999990101621MD1710191+9990MW1021REMSYN06001028 41660 72103 11071 21105 30162 40183 57019 70222 8151/=
0203010280999992014011002004+74517+019000FM-12+001899999V0201501N003019999999N015000199-00661-00931101801ADDAY121021AY221021GA1991+999991041GA2011+999991061GE19MSL   +99999+99999GF106991990990999999991991MA1999990101591MD1610161+9990MW1011REMSYN06001028 41665 61503 11066 21093 30159 40180 56016 70122 81510=
0203010280999992014011003004+74517+019000FM-12+001899999V0201701N006019999999N015000199-00731-01071101761ADDAY121021AY211021GA1991+999991041GA2011+999991061GE19MSL   +99999+99999GF104991990990999999991991MA1999990101551MD1710111+9990MW1011REMSYN06001028 41665 41706 11073 21107 30155 40176 57011 70121 81510=
0187010280999992014011004004+74517+019000FM-12+001899999V0201701N006019999999N015000199-00721-01071101721ADDAY101021AY201021GA1041+999991041GE19MSL   +99999+99999GF104991041990999999991991MA1999990101511MD1710111+9990MW1021REMSYN06001028 41865 41706 11072 21107 30151 40172 57011 70200 84010=
0203010280999992014011005004+74517+019000FM-12+001899999V0201601N006019999999N015000199-00641-00981101691ADDAY101021AY201021GA1991+999991041GA2011+999991061GE19MSL   +99999+99999GF104991990990999999991991MA1999990101481MD1810111+9990MW1021REMSYN06001028 41665 41606 11064 21098 30148 40169 58011 70200 81510=
0328010280999992014011006004+74517+019000FM-12+001899999V0201601N006019999999N015000199-00581-00941101661ADDAA112000091AA224000021AJ199991999999999AY121021AY211021GA1991+999991041GA2021+999991061GE19MSL   +99999+99999GF105991990990999999991991IA1289KA1240N-00791MA1999990101451MD1710111+9990MW1031OD139900701999REMSYN09401028 11665 51606 11058 21094 30145 40166 57011 69902 70321 82510 333 21079 48/// 79999 91107=EQDQ01  00002PRCP12
0203010280999992014011007004+74517+019000FM-12+001899999V0201601N006019999999N015000199-00651-01001101621ADDAY121021AY221021GA1991+999991041GA2041+999991061GE19MSL   +99999+99999GF108991990990999999991991MA1999990101411MD1710101+9990MW1031REMSYN06001028 41665 81606 11065 21100 30141 40162 57010 70322 84510=
0203010280999992014011008004+74517+019000FM-12+001899999V0201701N006019999999N015000199-00581-00931101591ADDAY121021AY221021GA1991+999991041GA2051+999991061GE19MSL   +99999+99999GF108991990990999999991991MA1999990101381MD1710101+9990MW1011REMSYN06001028 41665 81706 11058 21093 30138 40159 57010 70122 85510=
0203010280999992014011009004+74517+019000FM-12+001899999V0201801N008019999999N015000199-00541-00851101541ADDAY121021AY221021GA1991+999991041GA2031+999991061GE19MSL   +99999+99999GF107991990990999999991991MA1999990101331MD1810121+9990MW1021REMSYN06001028 41665 71808 11054 21085 30133 40154 58012 70222 83510=
0203010280999992014011010004+74517+019000FM-12+001899999V0201901N010019999999N015000199-00361-00671101481ADDAY121021AY221021GA1991+999991041GA2051+999991061GE19MSL   +99999+99999GF107991990990999999991991MA1999990101281MD1810131+9990MW1021REMSYN06001028 41665 71910 11036 21067 30128 40148 58013 70222 85510=
0187010280999992014011011004+74517+019000FM-12+001899999V0201901N009019999999N015000199-00281-00511101451ADDAY121021AY221021GA1081+999991061GE19MSL   +99999+99999GF108991081990999999991991MA1999990101251MD1610131+9990MW1031REMSYN06001028 41665 81909 11028 21051 30125 40145 56013 70322 885//=
0264010280999992014011012004+74517+019000FM-12+001899999V0201901N009019999999N010000199-00201-00451101421ADDAA106000021AY181021AY221021GA1991+999991041GA2061+999991091GE19MSL   +99999+99999GF108991990990999999991991MA1999990101221MD1710111+9990MW1851OD139901201999SA1-0061REMSYN08801028 11460 81909 11020 21045 30122 40142 57011 69901 78582 8631/ 222// 01006 333 91112=
0203010280999992014011013004+74517+019000FM-12+001899999V0201901N008019999999N010000199-00221-00311101381ADDAY181021AY221021GA1991+999991041GA2061+999991081GE19MSL   +99999+99999GF108991990990999999991991MA1999990101181MD1710111+9990MW1151REMSYN06001028 41460 81908 11022 21031 30118 40138 57011 71582 8681/=
0203010280999992014011014004+74517+019000FM-12+001899999V0202001N007019999999N010000199-00241-00331101351ADDAY181021AY221021GA1991+999991031GA2031+999991081GE19MSL   +99999+99999GF104991990990999999991991MA1999990101151MD1710101+9990MW1161REMSYN06001028 41460 42007 11024 21033 30115 40135 57010 71682 83840=
0187010280999992014011015004+74517+019000FM-12+001899999V0201901N007019999999N010000199-00231-00311101311ADDAY181021AY221021GA1081+999991081GE19MSL   +99999+99999GF108991081990999999991991MA1999990101111MD1710111+9990MW1261REMSYN06001028 41460 81907 11023 21031 30111 40131 57011 72682 888//=
0187010280999992014011016004+74517+019000FM-12+001899999V0202101N004019999999N015000199-00231-00371101291ADDAY121021AY221021GA1061+999991081GE19MSL   +99999+99999GF106991061990999999991991MA1999990101091MD1710091+9990MW1021REMSYN06001028 41465 62104 11023 21037 30109 40129 57009 70222 86800=
0187010280999992014011017004+74517+019000FM-12+001899999V0202101N005019999999N010000199-00171-00241101271ADDAY181021AY221021GA1081+999991081GE19MSL   +99999+99999GF108991081990999999991991MA1999990101071MD1610081+9990MW1261REMSYN06001028 41460 82105 11017 21024 30107 40127 56008 72682 888//=
0247010280999992014011018004+74517+019000FM-12+001899999V0202701N005019999999N010000199-00091-00191101271ADDAA112001031AY181021AY221021GA1071+999991081GE19MSL   +99999+99999GF107991071990999999991991KA1120M-00051MA1999990101071MD1710041+9990MW1851OD139901001999REMSYN08201028 11560 72705 11009 21019 30107 40127 57004 60012 78582 878// 333 11005 91110=
0203010280999992014011019004+74517+019000FM-12+001899999V0202501N007019999999N015000199-00041-00151101211ADDAY181021AY211021GA1991+999991021GA2031+999991081GE19MSL   +99999+99999GF103991990990999999991991MA1999990101011MD1810081+9990MW1261REMSYN06001028 41565 32507 11004 21015 30101 40121 58008 72681 83808=
0219010280999992014011020004+74517+019000FM-12+001899999V0202601N006019999999N010000199-00071-00131101221ADDAY181021AY211021GA1051+999991081GA2991+999991021GA3991+999991031GE19MSL   +99999+99999GF106991051990999999991991MA1999990101021MD1510051+9990MW1851REMSYN06001028 41560 62606 11007 21013 30102 40122 55005 78581 85878=
0187010280999992014011021004+74517+019000FM-12+001899999V0202801N007019999999N010000199-00021-00171101231ADDAY181021AY221021GA1071+999991081GE19MSL   +99999+99999GF107991071990999999991991MA1999990101031MD1510041+9990MW1261REMSYN06001028 41560 72807 11002 21017 30103 40123 55004 72682 878//=
0187010280999992014011022004+74517+019000FM-12+001899999V0202701N006019999999N010000199-00051-00161101241ADDAY181021AY221021GA1071+999991081GE19MSL   +99999+99999GF107991071990999999991991MA1999990101041MD1210031+9990MW1851REMSYN06001028 41560 72706 11005 21016 30104 40124 52003 78582 878//=
0203010280999992014011023004+74517+019000FM-12+001899999V0202801N008019999999N015000199+00011-00261101251ADDAY181021AY221021GA1991+999991031GA2051+999991081GE19MSL   +99999+99999GF106991990990999999991991MA1999990101051MD1210031+9990MW1261REMSYN06001028 41565 62808 10001 21026 30105 40125 52003 72682 85870=
0228010280999992014011100004+74517+019000FM-12+001899999V0202501N006019999999N010000199-00041-00161101271ADDAA106001031AY181021AY221021GA1071+999991081GE19MSL   +99999+99999GF107991071990999999991991MA1999990101071MD1210041+9990MW1261OD139901101999REMSYN07601028 11560 72506 11004 21016 30107 40127 52004 60011 72682 878// 333 91111=
0187010280999992014011101004+74517+019000FM-12+001899999V0202601N006019999999N001000199-00071-00161101271ADDAY181021AY221021GA1081+999991081GE19MSL   +99999+99999GF108991081990999999991991MA1999990101071MD1210031+9990MW1851REMSYN06001028 41410 82606 11007 21016 30107 40127 52003 78582 888//=
0187010280999992014011102004+74517+019000FM-12+001899999V0203101N003019999999N015000199-00061-00151101251ADDAY121021AY211021GA1031+999991061GE19MSL   +99999+99999GF103991031990999999991991MA1999990101051MD1900001+9990MW1011REMSYN06001028 41565 33103 11006 21015 30105 40125 50000 70121 83500=
0187010280999992014011103004+74517+019000FM-12+001899999V0202901N002019999999N015000199-00051-00151101261ADDAY181021AY221021GA1051+999991081GE19MSL   +99999+99999GF105991051990999999991991MA1999990101061MD1710011+9990MW1261REMSYN06001028 41565 52902 11005 21015 30106 40126 57001 72682 85800=
0187010280999992014011104004+74517+019000FM-12+001899999V0202701N001019999999N015000199-00171-00251101281ADDAY121021AY221021GA1061+999991081GE19MSL   +99999+99999GF106991061990999999991991MA1999990101081MD1310011+9990MW1031REMSYN06001028 41465 62701 11017 21025 30108 40128 53001 70322 86800=
0187010280999992014011105004+74517+019000FM-12+001899999V0202901N005019999999N015000199-00061-00141101271ADDAY181021AY221021GA1051+999991081GE19MSL   +99999+99999GF105991051990999999991991MA1999990101071MD1210021+9990MW1851REMSYN06001028 41565 52905 11006 21014 30107 40127 52002 78582 85800=
0264010280999992014011106004+74517+019000FM-12+001899999V0202401N001019999999N020000199-00161-00271101301ADDAA112002031AA224002531AY181021AY221021GA1021+999991081GE19MSL   +99999+99999GF102991021990999999991991KA1240N-00301MA1999990101101MD1210041+9990MW1261OD139901001999REMSYN08801028 11670 22401 11016 21027 30110 40130 52004 60022 72682 82800 333 21030 70025 91110=
0187010280999992014011107004+74517+019000FM-12+001899999V0202001N001019999999N020000199-00301-00381101331ADDAY121021AY221021GA1051+999991081GE19MSL   +99999+99999GF105991051990999999991991MA1999990101131MD1310061+9990MW1031REMSYN06001028 41570 52001 11030 21038 30113 40133 53006 70322 85800=
0187010280999992014011108004+74517+019000FM-12+001899999V0202101N002019999999N020000199-00331-00411101361ADDAY121021AY221021GA1051+999991061GE19MSL   +99999+99999GF105991051990999999991991MA1999990101161MD1210091+9990MW1021REMSYN06001028 41570 52102 11033 21041 30116 40136 52009 70222 85500=
0203010280999992014011109004+74517+019000FM-12+001899999V0202901N003019999999N020000199-00071-00161101401ADDAY121021AY221021GA1991+999991031GA2031+999991081GE19MSL   +99999+99999GF105991990990999999991991MA1999990101201MD1310101+9990MW1021REMSYN06001028 41570 52903 11007 21016 30120 40140 53010 70222 83860=
0203010280999992014011110004+74517+019000FM-12+001899999V0202201N002019999999N020000199-00281-00401101421ADDAY121021AY221021GA1991+999991031GA2031+999991081GE19MSL   +99999+99999GF105991990990999999991991MA1999990101221MD1210101+9990MW1021REMSYN06001028 41670 52202 11028 21040 30122 40142 52010 70222 83860=
0187010280999992014011111004+74517+019000FM-12+001899999V0202101N002019999999N004000199-00381-00461101431ADDAY181021AY221021GA1071+999991091GE19MSL   +99999+99999GF107991071990999999991991MA1999990101231MD1900071+9990MW1851REMSYN06001028 41440 72102 11038 21046 30123 40143 50007 78582 873//=
0264010280999992014011112004+74517+019000FM-12+001899999V0203001N002019999999N020000199-00111-00171101451ADDAA106000731AY181021AY221021GA1991+999991031GA2061+999991091GE19MSL   +99999+99999GF106991990990999999991991MA1999990101251MD1210051+9990MW1261OD139900801999SA1-0031REMSYN08801028 11470 63002 11011 21017 30125 40145 52005 69971 72682 86360 222// 01003 333 91108=
0203010280999992014011113004+74517+019000FM-12+001899999V0202001N002019999999N002000199-00331-00411101491ADDAY111021AY201021GA1991+999991031GA2031+999991091GE19MSL   +99999+99999GF103991990990999999991991MA1999990101291MD1310061+9990MW1101REMSYN06001028 41420 32002 11033 21041 30129 40149 53006 71010 83360=
0187010280999992014011114004+74517+019000FM-12+001899999V0203601N002019999999N010000199-00111-00181101471ADDAY181021AY201021GA1021+999991091GE19MSL   +99999+99999GF102991021990999999991991MA1999990101271MD1900041+9990MW1151REMSYN06001028 41460 23602 11011 21018 30127 40147 50004 71580 82900=
0187010280999992014011115004+74517+019000FM-12+001899999V0209999C999999999999N005000199-00421-00501101501ADDAY181021AY211021GA1071+999991091GE19MSL   +99999+99999GF107991071990999999991991MA1999990101301MD1210051+9990MW1851REMSYN06001028 41450 70000 11042 21050 30130 40150 52005 78581 879//=
0203010280999992014011116004+74517+019000FM-12+001899999V0201801N002019999999N010000199-00291-00351101501ADDAY181021AY211021GA1991+999991031GA2031+999991091GE19MSL   +99999+99999GF104991990990999999991991MA1999990101301MD1310011+9990MW1261REMSYN06001028 41460 41802 11029 21035 30130 40150 53001 72681 83970=
0203010280999992014011117004+74517+019000FM-12+001899999V0201501N001019999999N010000199-00221-00281101521ADDAY181021AY201021GA1991+999991031GA2021+999991091GE19MSL   +99999+99999GF103991990990999999991991MA1999990101321MD1110051+9990MW1151REMSYN06001028 41460 31501 11022 21028 30132 40152 51005 71580 82970=
0263010280999992014011118004+74517+019000FM-12+001899999V0201701N004019999999N015000199-00511-00581101541ADDAA112002031AY181021AY241021GA1991+999991031GA2021+999991091GE19MSL   +99999+99999GF103991990990999999991991KA1120M-00071MA1999990101331MD1210031+9990MW1021OD139900601999REMSYN08201028 11465 31704 11051 21058 30133 40154 52003 60022 70284 82970 333 11007 91106=
0187010280999992014011119004+74517+019000FM-12+001899999V0201801N005019999999N020000199-00601-00661101571ADDAY101021AY201021GA1021+999991031GE19MSL   +99999+99999GF102991021990999999991991MA1999990101361MD1210071+9990MW1011REMSYN06001028 41870 21805 11060 21066 30136 40157 52007 70100 82070=
0187010280999992014011120004+74517+019000FM-12+001899999V0202001N004019999999N005000199-00401-00441101601ADDAY181021AY221021GA1071+999991041GE19MSL   +99999+99999GF107991071990999999991991MA1999990101401MD1310091+9990MW1261REMSYN06001028 41850 72004 11040 21044 30140 40160 53009 72682 87010=
0203010280999992014011121004+74517+019000FM-12+001899999V0201801N004019999999N010000199-00511-00561101631ADDAY181021AY221021GA1991+999991041GA2041+999991061GE19MSL   +99999+99999GF105991990990999999991991MA1999990101421MD1210091+9990MW1011REMSYN06001028 41660 51804 11051 21056 30142 40163 52009 70182 84510=
0203010280999992014011122004+74517+019000FM-12+001899999V0202101N002019999999N010000199-00381-00431101641ADDAY181021AY211021GA1991+999991041GA2021+999991061GE19MSL   +99999+99999GF103991990990999999991991MA1999990101441MD1210071+9990MW1261REMSYN06001028 41660 32102 11038 21043 30144 40164 52007 72681 82510=
0187010280999992014011123004+74517+019000FM-12+001899999V0202001N003019999999N001000199-00351-00391101651ADDAY181021AY221021GA1081+999991081GE19MSL   +99999+99999GF108991081990999999991991MA1999990101451MD1210051+9990MW1861REMSYN06001028 41510 82003 11035 21039 30145 40165 52005 78682 888//=
0228010280999992014011200004+74517+019000FM-12+001899999V0202001N004019999999N010000199-00491-00531101661ADDAA106002031AY121021AY221021GA1061+999991081GE19MSL   +99999+99999GF106991061990999999991991MA1999990101451MD1900031+9990MW1021OD139900601999REMSYN07601028 11560 62004 11049 21053 30145 40166 50003 60021 70222 86800 333 91106=
0187010280999992014011201004+74517+019000FM-12+001899999V0201901N004019999999N010000199-00511-00551101691ADDAY121021AY221021GA1041+999991081GE19MSL   +99999+99999GF104991041990999999991991MA1999990101481MD1210051+9990MW1021REMSYN06001028 41560 41904 11051 21055 30148 40169 52005 70222 84800=
0179010280999992014011202004+74517+019000FM-12+001899999V0203501N002019999999N003000199-00171-00201101701ADDAY181021GA1081+999991091GE19MSL   +99999+99999GF108991081990999999991991MA1999990101501MD1210051+9990MW1851REMSYN06001028 41430 83502 11017 21020 30150 40170 52005 7858/ 883//=
0187010280999992014011203004+74517+019000FM-12+001899999V0202201N001019999999N004000199-00181-00221101721ADDAY181021AY221021GA1041+999991091GE19MSL   +99999+99999GF104991041990999999991991MA1999990101521MD1210061+9990MW1851REMSYN06001028 41540 42201 11018 21022 30152 40172 52006 78582 84300=
0187010280999992014011204004+74517+019000FM-12+001899999V0202501N001019999999N005000199-00251-00281101741ADDAY121021AY221021GA1071+999991081GE19MSL   +99999+99999GF107991071990999999991991MA1999990101541MD1210061+9990MW1701REMSYN06001028 41550 72501 11025 21028 30154 40174 52006 77022 878//=
0187010280999992014011205004+74517+019000FM-12+001899999V0202701N003019999999N004000199-00091-00131101741ADDAY181021AY221021GA1081+999991091GE19MSL   +99999+99999GF108991081990999999991991MA1999990101541MD1900041+9990MW1851REMSYN06001028 41540 82703 11009 21013 30154 40174 50004 78582 883//=
0293010280999992014011206004+74517+019000FM-12+001899999V0203001N002019999999N003500199-00091-00131101761ADDAA112005031AA224007331AJ199991999999999AY181021AY271021GA1081+999991061GE19MSL   +99999+99999GF108991081990999999991991IA1249KA1240N-00641MA1999990101561MD1210051+9990MW1711OD139900601999REMSYN09401028 11535 83002 11009 21013 30156 40176 52005 60052 77187 885// 333 21064 44999 70073 91106=
0187010280999992014011207004+74517+019000FM-12+001899999V0202301N002019999999N005000199-00111-00151101801ADDAY171021AY221021GA1081+999991081GE19MSL   +99999+99999GF108991081990999999991991MA1999990101601MD1310061+9990MW1221REMSYN06001028 41550 82302 11011 21015 30160 40180 53006 72272 888//=
0203010280999992014011208004+74517+019000FM-12+001899999V0202301N003019999999N010000199-00291-00341101841ADDAY121021AY221021GA1991+999991031GA2041+999991081GE19MSL   +99999+99999GF106991990990999999991991MA1999990101641MD1210101+9990MW1011REMSYN06001028 41560 62303 11029 21034 30164 40184 52010 70122 84860=
0203010280999992014011209004+74517+019000FM-12+001899999V0201901N003019999999N010000199-00341-00381101881ADDAY171021AY221021GA1991+999991031GA2041+999991081GE19MSL   +99999+99999GF106991990990999999991991MA1999990101671MD1210111+9990MW1021REMSYN06001028 41560 61903 11034 21038 30167 40188 52011 70272 84860=
0203010280999992014011210004+74517+019000FM-12+001899999V0201901N003019999999N005000199-00421-00461101911ADDAY141021AY221021GA1991+999991031GA2041+999991081GE19MSL   +99999+99999GF105991990990999999991991MA1999990101701MD1210101+9990MW1101REMSYN06001028 41550 51903 11042 21046 30170 40191 52010 71042 84860=
0203010280999992014011211004+74517+019000FM-12+001899999V0202201N003019999999N005000199-00201-00241101911ADDAY181021AY241021GA1991+999991031GA2051+999991091GE19MSL   +99999+99999GF106991990990999999991991MA1999990101711MD1210071+9990MW1851REMSYN06001028 41550 62203 11020 21024 30171 40191 52007 78584 85360=
0248010280999992014011212004+74517+019000FM-12+001899999V0202901N004019999999N002000199-00061-00111101891ADDAA106001031AY181021AY271021GA1081+999991091GE19MSL   +99999+99999GF108991081990999999991991MA1999990101691MD1900021+9990MW1851OD139900701999SA1-0031REMSYN08801028 11620 82904 11006 21011 30169 40189 50002 60011 78587 883// 222// 01003 333 91107=
0206010280999992014011213004+74517+019000FM-12+001899999V0203101N004019999999N005000199-00021-00091101911ADDAY181021AY221021GA1081+999991091GE19MSL   +99999+99999GF108991081990999999991991MA1999990101711MD1410009+9990MW1261REMSYN06001028 41650 83104 11002 21009 30171 40191 54001 72682 883//=EQDQ01.1    3APC3  
0206010280999992014011214004+74517+019000FM-12+001899999V0203101N006019999999N005000199+00021-00151101901ADDAY181021AY221021GA1081+999991081GE19MSL   +99999+99999GF108991081990999999991991MA1999990101701MD1790019+9990MW1851REMSYN06001028 41550 83106 10002 21015 30170 40190 54001 78582 888//=EQDQ01.1    3APC3  
0187010280999992014011215004+74517+019000FM-12+001899999V0202901N005019999999N005000199+00021-00161101911ADDAY181021AY221021GA1081+999991081GE19MSL   +99999+99999GF108991081990999999991991MA1999990101711MD1210011+9990MW1261REMSYN06001028 41550 82905 10002 21016 30171 40191 52001 72682 888//=
0206010280999992014011216004+74517+019000FM-12+001899999V0203101N006019999999N005000199+00021-00191101901ADDAY181021AY221021GA1081+999991081GE19MSL   +99999+99999GF108991081990999999991991MA1999990101701MD1790019+9990MW1831REMSYN06001028 41550 83106 10002 21019 30170 40190 54001 78382 888//=EQDQ01.1    3APC3  
0187010280999992014011217004+74517+019000FM-12+001899999V0203001N004019999999N001000199-00011-00131101901ADDAY181021AY221021GA1081+999991081GE19MSL   +99999+99999GF108991081990999999991991MA1999990101701MD1410001+9990MW1851REMSYN06001028 41510 83004 11001 21013 30170 40190 54000 78582 888//=
0230010280999992014011218004+74517+019000FM-12+001899999V0203101N006019999999N010000199+00011-00151101911ADDAY121021AY221021GA1081+999991061GE19MSL   +99999+99999GF108991081990999999991991KA1120M+00021MA1999990101711MD1510011+9990MW1021OD139901001999REMSYN07601028 41560 83106 10001 21015 30171 40191 55001 70222 885// 333 10002 91110=
0187010280999992014011219004+74517+019000FM-12+001899999V0203201N005019999999N010000199+00041-00171101911ADDAY121021AY221021GA1081+999991061GE19MSL   +99999+99999GF108991081990999999991991MA1999990101711MD1210021+9990MW1021REMSYN06001028 41560 83205 10004 21017 30171 40191 52002 70222 885//=
0187010280999992014011220004+74517+019000FM-12+001899999V0203201N002019999999N001500199-00021-00091101921ADDAY181021AY221021GA1081+999991091GE19MSL   +99999+99999GF108991081990999999991991MA1999990101721MD1210021+9990MW1851REMSYN06001028 41415 83202 11002 21009 30172 40192 52002 78582 883//=
0187010280999992014011221004+74517+019000FM-12+001899999V0202901N003019999999N010000199-00041-00131101911ADDAY121021AY221021GA1071+999991061GE19MSL   +99999+99999GF107991071990999999991991MA1999990101711MD1410001+9990MW1021REMSYN06001028 41560 72903 11004 21013 30171 40191 54000 70222 875//=
0089010280999992014011222004+74517+019000FM-12+001899999V0203401N005019999999N999999999+00031-00271101891ADDMA1999990101691MD1710021+9990REMSYN04801028 46/// /3405 10003 21027 30169 40189 57002=
0187010280999992014011223004+74517+019000FM-12+001899999V0203301N007019999999N010000199+00051-00261101871ADDAY121021AY221021GA1081+999991061GE19MSL   +99999+99999GF108991081990999999991991MA1999990101671MD1710051+9990MW1021REMSYN06001028 41560 83307 10005 21026 30167 40187 57005 70222 885//=
0228010280999992014011300004+74517+019000FM-12+001899999V0203201N007019999999N010000199+00061-00341101841ADDAA199999919AY181021AY221021GA1081+999991061GE19MSL   +99999+99999GF108991081990999999991991MA1999990101641MD1710071+9990MW1021OD139901201999REMSYN07601028 11660 83207 10006 21034 30164 40184 57007 6//// 70282 885// 333 91112=
0187010280999992014011301004+74517+019000FM-12+001899999V0203501N006019999999N010000199+00021-00351101871ADDAY121021AY221021GA1081+999991061GE19MSL   +99999+99999GF108991081990999999991991MA1999990101671MD1510011+9990MW1021REMSYN06001028 41660 83506 10002 21035 30167 40187 55001 70222 885//=
0187010280999992014011302004+74517+019000FM-12+001899999V0203601N004019999999N010000199-00021-00331101901ADDAY121021AY221021GA1071+999991061GE19MSL   +99999+99999GF107991071990999999991991MA1999990101701MD1310031+9990MW1011REMSYN06001028 41660 73604 11002 21033 30170 40190 53003 70122 875//=
0187010280999992014011303004+74517+019000FM-12+001899999V0200201N002019999999N020000199-00101-00381101901ADDAY121021AY211021GA1031+999991071GE19MSL   +99999+99999GF103991031990999999991991MA1999990101701MD1210061+9990MW1011REMSYN06001028 41670 30202 11010 21038 30170 40190 52006 70121 83600=
0187010280999992014011304004+74517+019000FM-12+001899999V0200201N001019999999N015000199-00431-00711101931ADDAY101021AY201021GA1021+999991061GE19MSL   +99999+99999GF102991021990999999991991MA1999990101721MD1210051+9990MW1011REMSYN06001028 41665 20201 11043 21071 30172 40193 52005 70100 82500=
0187010280999992014011305004+74517+019000FM-12+001899999V0203501N001019999999N010000199-00771-00981101941ADDAY101021AY201021GA1021+999991061GE19MSL   +99999+99999GF102991021990999999991991MA1999990101731MD1210041+9990MW1021REMSYN06001028 41660 23501 11077 21098 30173 40194 52004 70200 82500=
0276010280999992014011306004+74517+019000FM-12+001899999V0203601N005019999999N010000199-00151-00351101941ADDAA199999919AJ199991999999999AY121021AY221021GA1021+999991061GE19MSL   +99999+99999GF102991021990999999991991IA1289KA1240N-00771MA1999990101741MD1210041+9990MW1291OD139900901999REMSYN08801028 11660 23605 11015 21035 30174 40194 52004 6//// 72922 82500 333 21077 48999 91109=
0187010280999992014011307004+74517+019000FM-12+001899999V0203601N005019999999N015000199-00051-00281101951ADDAY101021AY201021GA1011+999991061GE19MSL   +99999+99999GF101991011990999999991991MA1999990101751MD1210031+9990MW1021REMSYN06001028 41665 13605 11005 21028 30175 40195 52003 70200 81500=
0117010280999992014011308004+74517+019000FM-12+001899999V0203501N005019999999N015000199-00061-00351101971ADDAY101021AY201021MA1999990101771MD1210041+9990MW1011REMSYN05401028 41965 03505 11006 21035 30177 40197 52004 70100=
0117010280999992014011309004+74517+019000FM-12+001899999V0200201N005019999999N015000199-00091-00311102011ADDAY101021AY201021MA1999990101811MD1310081+9990MW1021REMSYN05401028 41965 00205 11009 21031 30181 40201 53008 70200=
0117010280999992014011310004+74517+019000FM-12+001899999V0200101N004019999999N015000199-00151-00361102041ADDAY101021AY201021MA1999990101841MD1210101+9990MW1021REMSYN05401028 41965 00104 11015 21036 30184 40204 52010 70200=
0187010280999992014011311004+74517+019000FM-12+001899999V0203601N003019999999N015000199-00131-00341102061ADDAY101021AY201021GA1011+999991061GE19MSL   +99999+99999GF101991011990999999991991MA1999990101861MD1210091+9990MW1021REMSYN06001028 41665 13603 11013 21034 30186 40206 52009 70200 81400=
0257010280999992014011312004+74517+019000FM-12+001899999V0203601N004019999999N015000199-00081-00301102061ADDAA199999919AJ199999999999999AY101021AY201021GA1011+999991061GE19MSL   +99999+99999GF101991011990999999991991IA1239MA1999990101861MD1210051+9990MW1021OD139900701999REMSYN08201028 11565 13604 11008 21030 30186 40206 52005 6//// 70200 81500 333 47998 91107=
0187010280999992014011313004+74517+019000FM-12+001899999V0203601N004019999999N015000199-00061-00301102071ADDAY101021AY201021GA1011+999991061GE19MSL   +99999+99999GF101991011990999999991991MA1999990101871MD1210031+9990MW1021REMSYN06001028 41565 13604 11006 21030 30187 40207 52003 70200 81500=
0187010280999992014011314004+74517+019000FM-12+001899999V0203601N004019999999N015000199-00061-00391102081ADDAY101021AY201021GA1011+999991061GE19MSL   +99999+99999GF101991011990999999991991MA1999990101881MD1210011+9990MW1021REMSYN06001028 41565 13604 11006 21039 30188 40208 52001 70200 81500=
0206010280999992014011315004+74517+019000FM-12+001899999V0203501N005019999999N015000199-00061-00391102071ADDAY101021AY201021GA1011+999991061GE19MSL   +99999+99999GF101991011990999999991991MA1999990101871MD1290019+9990MW1021REMSYN06001028 41565 13505 11006 21039 30187 40207 54001 70200 81500=EQDQ01.1    3APC3  
0187010280999992014011316004+74517+019000FM-12+001899999V0203501N007019999999N015000199-00051-00441102061ADDAY101021AY201021GA1011+999991061GE19MSL   +99999+99999GF101991011990999999991991MA1999990101861MD1410001+9990MW1021REMSYN06001028 41565 13507 11005 21044 30186 40206 54000 70200 81500=
0117010280999992014011317004+74517+019000FM-12+001899999V0203601N007019999999N015000199-00081-00381102081ADDAY101021AY201021MA1999990101881MD1510011+9990MW1021REMSYN05401028 41965 03607 11008 21038 30188 40208 55001 70200=
0276010280999992014011318004+74517+019000FM-12+001899999V0200101N007019999999N015000199-00131-00381102111ADDAA199999919AJ199991999999999AY101021AY201021GA1011+999991061GE19MSL   +99999+99999GF101991011990999999991991IA1249KA1120M-00041MA1999990101911MD1310041+9990MW1021OD139901001999REMSYN08801028 11565 10107 11013 21038 30191 40211 53004 6//// 70200 81500 333 11004 44999 91110=
0187010280999992014011319004+74517+019000FM-12+001899999V0200101N008019999999N015000199-00151-00441102111ADDAY101021AY201021GA1011+999991061GE19MSL   +99999+99999GF101991011990999999991991MA1999990101911MD1210041+9990MW1021REMSYN06001028 41565 10108 11015 21044 30191 40211 52004 70200 81500=
0187010280999992014011320004+74517+019000FM-12+001899999V0200201N007019999999N015000199-00191-00461102131ADDAY101021AY201021GA1011+999991061GE19MSL   +99999+99999GF101991011990999999991991MA1999990101931MD1210051+9990MW1021REMSYN06001028 41565 10207 11019 21046 30193 40213 52005 70200 81500=
0187010280999992014011321004+74517+019000FM-12+001899999V0200301N005019999999N010000199-00221-00431102151ADDAY101021AY201021GA1011+999991061GE19MSL   +99999+99999GF101991011990999999991991MA1999990101951MD1210041+9990MW1021REMSYN06001028 41560 10305 11022 21043 30195 40215 52004 70200 81500=
0187010280999992014011322004+74517+019000FM-12+001899999V0200201N004019999999N008000199-00251-00521102181ADDAY101021AY201021GA1021+999991061GE19MSL   +99999+99999GF102991021990999999991991MA1999990101981MD1210071+9990MW1101REMSYN06001028 41558 20204 11025 21052 30198 40218 52007 71000 82500=
0187010280999992014011323004+74517+019000FM-12+001899999V0200301N004019999999N007000199-00251-00521102181ADDAY101021AY201021GA1021+999991061GE19MSL   +99999+99999GF102991021990999999991991MA1999990101981MD1210041+9990MW1101REMSYN06001028 41557 20304 11025 21052 30198 40218 52004 71000 82500=
0257010280999992014011400004+74517+019000FM-12+001899999V0200201N004019999999N010000199-00271-00511102191ADDAA199999919AJ199999999999999AY141021AY201021GA1011+999991061GE19MSL   +99999+99999GF101991011990999999991991IA1289MA1999990101981MD1210031+9990MW1021OD139901001999REMSYN08201028 11560 10204 11027 21051 30198 40219 52003 6//// 70240 81500 333 48998 91110=
0187010280999992014011401004+74517+019000FM-12+001899999V0200301N004019999999N010000199-00271-00531102201ADDAY101021AY201021GA1021+999991061GE19MSL   +99999+99999GF102991021990999999991991MA1999990101991MD1210021+9990MW1021REMSYN06001028 41660 20304 11027 21053 30199 40220 52002 70200 82500=
0187010280999992014011402004+74517+019000FM-12+001899999V0200601N004019999999N010000199-00531-00811102221ADDAY101021AY201021GA1021+999991061GE19MSL   +99999+99999GF102991021990999999991991MA1999990102011MD1210031+9990MW1021REMSYN06001028 41660 20604 11053 21081 30201 40222 52003 70200 82500=
0187010280999992014011403004+74517+019000FM-12+001899999V0200601N004019999999N010000199-00681-00841102221ADDAY101021AY201021GA1011+999991061GE19MSL   +99999+99999GF101991011990999999991991MA1999990102011MD1210031+9990MW1021REMSYN06001028 41660 10604 11068 21084 30201 40222 52003 70200 81500=
0206010280999992014011404004+74517+019000FM-12+001899999V0200501N003019999999N010000199-00571-00671102211ADDAY101021AY201021GA1011+999991061GE19MSL   +99999+99999GF101991011990999999991991MA1999990102001MD1290019+9990MW1021REMSYN06001028 41660 10503 11057 21067 30200 40221 54001 70200 81500=EQDQ01.1    3APC3  
0187010280999992014011405004+74517+019000FM-12+001899999V0200401N003019999999N010000199-00411-00521102231ADDAY101021AY201021GA1031+999991061GE19MSL   +99999+99999GF103991031990999999991991MA1999990102021MD1210011+9990MW1031REMSYN06001028 41560 30403 11041 21052 30202 40223 52001 70300 83500=
0312010280999992014011406004+74517+019000FM-12+001899999V0200401N004019999999N015000199-00271-00431102261ADDAA124000091AA299999919AJ199991999999999AY111021AY201021GA1041+999991061GE19MSL   +99999+99999GF104991041990999999991991IA1289KA1240N-00761MA1999990102051MD1310041+9990MW1021OD139900501999REMSYN09401028 11565 40404 11027 21043 30205 40226 53004 6//// 70210 84500 333 21076 48999 79999 91105=EQDQ01  00002PRCP24
0187010280999992014011407004+74517+019000FM-12+001899999V0200401N004019999999N015000199-00221-00371102261ADDAY111021AY211021GA1061+999991081GE19MSL   +99999+99999GF106991061990999999991991MA1999990102061MD1210061+9990MW1031REMSYN06001028 41565 60404 11022 21037 30206 40226 52006 70311 86800=
0187010280999992014011408004+74517+019000FM-12+001899999V0200601N005019999999N015000199-00201-00441102311ADDAY121021AY221021GA1071+999991061GE19MSL   +99999+99999GF107991071990999999991991MA1999990102111MD1310091+9990MW1021REMSYN06001028 41565 70605 11020 21044 30211 40231 53009 70222 875//=
0187010280999992014011409004+74517+019000FM-12+001899999V0200701N004019999999N010000199-00241-00641102361ADDAY121021AY221021GA1081+999991061GE19MSL   +99999+99999GF108991081990999999991991MA1999990102151MD1210101+9990MW1021REMSYN06001028 41460 80704 11024 21064 30215 40236 52010 70222 885//=
0187010280999992014011410004+74517+019000FM-12+001899999V0200701N003019999999N010000199-00231-00521102361ADDAY121021AY221021GA1081+999991071GE19MSL   +99999+99999GF108991081990999999991991MA1999990102151MD1210091+9990MW1021REMSYN06001028 41460 80703 11023 21052 30215 40236 52009 70222 886//=
0187010280999992014011411004+74517+019000FM-12+001899999V0200801N005019999999N010000199-00171-00511102361ADDAY121021AY221021GA1081+999991071GE19MSL   +99999+99999GF108991081990999999991991MA1999990102161MD1210051+9990MW1281REMSYN06001028 41460 80805 11017 21051 30216 40236 52005 72822 886//=
0257010280999992014011412004+74517+019000FM-12+001899999V0200901N004019999999N010000199-00191-00471102381ADDAA199999919AJ199991999999999AY121021AY221021GA1081+999991071GE19MSL   +99999+99999GF108991081990999999991991IA1289MA1999990102181MD1210041+9990MW1021OD139900901999REMSYN08201028 11460 80904 11019 21047 30218 40238 52004 6//// 70222 886// 333 48999 91109=
0187010280999992014011413004+74517+019000FM-12+001899999V0200801N005019999999N010000199-00171-00471102391ADDAY121021AY221021GA1081+999991071GE19MSL   +99999+99999GF108991081990999999991991MA1999990102191MD1210041+9990MW1021REMSYN06001028 41560 80805 11017 21047 30219 40239 52004 70222 886//=
0187010280999992014011414004+74517+019000FM-12+001899999V0200801N005019999999N010000199-00171-00461102401ADDAY121021AY221021GA1081+999991071GE19MSL   +99999+99999GF108991081990999999991991MA1999990102201MD1210041+9990MW1021REMSYN06001028 41560 80805 11017 21046 30220 40240 52004 70222 886//=
0187010280999992014011415004+74517+019000FM-12+001899999V0200801N005019999999N010000199-00171-00451102421ADDAY121021AY221021GA1081+999991071GE19MSL   +99999+99999GF108991081990999999991991MA1999990102221MD1210041+9990MW1021REMSYN06001028 41560 80805 11017 21045 30222 40242 52004 70222 886//=
