0089010200999992014010101004+76483+016550FM-12+001099999V0200601N006019999999N999999999-00751-00871102231ADDMA1999990102121MD1710041+9990REMSYN04801020 46/// /0606 11075 21087 30212 40223 57004=
0089010200999992014010102004+76483+016550FM-12+001099999V0200701N005019999999N999999999-00741-00861102191ADDMA1999990102081MD1710071+9990REMSYN04801020 46/// /0705 11074 21086 30208 40219 57007=
0089010200999992014010104004+76483+016550FM-12+001099999V0200701N005019999999N999999999-00701-00821102121ADDMA1999990102011MD1710101+9990REMSYN04801020 46/// /0705 11070 21082 30201 40212 57010=
0089010200999992014010105004+76483+016550FM-12+001099999V0200601N004019999999N999999999-00761-00871102091ADDMA1999990101981MD1710111+9990REMSYN04801020 46/// /0604 11076 21087 30198 40209 57011=
0113010200999992014010106004+76483+016550FM-12+001099999V0200801N003019999999N999999999-00671-00821102081ADDMA1999990101961MD1710081+9990OD139900801999REMSYN05801020 46/// /0803 11067 21082 30196 40208 57008 333 91108=
0089010200999992014010107004+76483+016550FM-12+001099999V0201401N006019999999N999999999-00361-00681102041ADDMA1999990101931MD1710081+9990REMSYN04801020 46/// /1406 11036 21068 30193 40204 57008=
0089010200999992014010108004+76483+016550FM-12+001099999V0201501N007019999999N999999999-00311-00621102051ADDMA1999990101941MD1710041+9990REMSYN04801020 46/// /1507 11031 21062 30194 40205 57004=
0089010200999992014010109004+76483+016550FM-12+001099999V0201501N008019999999N999999999-00271-00561102061ADDMA1999990101951MD1900021+9990REMSYN04801020 46/// /1508 11027 21056 30195 40206 50002=
0089010200999992014010110004+76483+016550FM-12+001099999V0201701N009019999999N999999999-00211-00601102041ADDMA1999990101931MD1410001+9990REMSYN04801020 46/// /1709 11021 21060 30193 40204 54000=
0108010200999992014010111004+76483+016550FM-12+001099999V0201701N008019999999N999999999-00191-00611102021ADDMA1999990101911MD1790039+9990REMSYN04801020 46/// /1708 11019 21061 30191 40202 54003=EQDQ01.3    3APC3  
0113010200999992014010112004+76483+016550FM-12+001099999V0201701N008019999999N999999999-00181-00571102021ADDMA1999990101921MD1710031+9990OD139901101999REMSYN05801020 46/// /1708 11018 21057 30192 40202 57003 333 91111=
0108010200999992014010113004+76483+016550FM-12+001099999V0201601N008019999999N999999999-00181-00671102021ADDMA1999990101911MD1790029+9990REMSYN04801020 46/// /1608 11018 21067 30191 40202 54002=EQDQ01.2    3APC3  
0108010200999992014010114004+76483+016550FM-12+001099999V0201601N009019999999N999999999-00171-00681102011ADDMA1999990101901MD1790019+9990REMSYN04801020 46/// /1609 11017 21068 30190 40201 54002=EQDQ01.2    3APC3  
0089010200999992014010115004+76483+016550FM-12+001099999V0201601N008019999999N999999999-00181-00631101981ADDMA1999990101871MD1710041+9990REMSYN04801020 46/// /1608 11018 21063 30187 40198 57004=
0089010200999992014010116004+76483+016550FM-12+001099999V0201501N008019999999N999999999-00191-00531101951ADDMA1999990101841MD1710071+9990REMSYN04801020 46/// /1508 11019 21053 30184 40195 57007=
0089010200999992014010117004+76483+016550FM-12+001099999V0201501N008019999999N999999999-00231-00521101961ADDMA1999990101851MD1710051+9990REMSYN04801020 46/// /1508 11023 21052 30185 40196 57005=
0132010200999992014010118004+76483+016550FM-12+001099999V0201501N008019999999N999999999-00211-00501101941ADDKA1120M-00161MA1999990101831MD1710041+9990OD139901101999REMSYN06401020 46/// /1508 11021 21050 30183 40194 57004 333 11016 91111=
0089010200999992014010119004+76483+016550FM-12+001099999V0201501N009019999999N999999999-00201-00491101921ADDMA1999990101811MD1710031+9990REMSYN04801020 46/// /1509 11020 21049 30181 40192 57003=
0108010200999992014010120004+76483+016550FM-12+001099999V0201501N008019999999N999999999-00201-00571101931ADDMA1999990101821MD1790039+9990REMSYN04801020 46/// /1508 11020 21057 30182 40193 54003=EQDQ01.3    3APC3  
0089010200999992014010121004+76483+016550FM-12+001099999V0201601N007019999999N999999999-00211-00551101951ADDMA1999990101841MD1900011+9990REMSYN04801020 46/// /1607 11021 21055 30184 40195 50001=
0089010200999992014010123004+76483+016550FM-12+001099999V0201501N007019999999N999999999-00201-00481101941ADDMA1999990101831MD1510011+9990REMSYN04801020 46/// /1507 11020 21048 30183 40194 55001=
0089010200999992014010200004+76483+016550FM-12+001099999V0201501N006019999999N999999999-00221-00481101951ADDMA1999990101841MD1410001+9990REMSYN04801020 46/// /1506 11022 21048 30184 40195 54000=
0094010200999992014010201004+76483+016550FM-12+001099999V0201501N005019999999N999999999-00191-00441101931ADDMA1999990101821REMSYN04801020 46/// /1505 11019 21044 30182 40193 54003=EQDQ014     3APCTEN
0089010200999992014010202004+76483+016550FM-12+001099999V0201401N005019999999N999999999-00191-00481101941ADDMA1999990101831MD1410001+9990REMSYN04801020 46/// /1405 11019 21048 30183 40194 54000=
0089010200999992014010203004+76483+016550FM-12+001099999V0201301N004019999999N999999999-00181-00421101921ADDMA1999990101811MD1710041+9990REMSYN04801020 46/// /1304 11018 21042 30181 40192 57004=
0108010200999992014010204004+76483+016550FM-12+001099999V0201301N004019999999N999999999-00151-00421101901ADDMA1999990101791MD1790039+9990REMSYN04801020 46/// /1304 11015 21042 30179 40190 54003=EQDQ01.3    3APC3  
0089010200999992014010205004+76483+016550FM-12+001099999V0201201N004019999999N999999999-00241-00551101891ADDMA1999990101781MD1710051+9990REMSYN04801020 46/// /1204 11024 21055 30178 40189 57005=
0113010200999992014010206004+76483+016550FM-12+001099999V0201201N003019999999N999999999-00471-00711101881ADDMA1999990101771MD1710041+9990OD139900601999REMSYN05801020 46/// /1203 11047 21071 30177 40188 57004 333 91106=
0089010200999992014010207004+76483+016550FM-12+001099999V0200601N003019999999N999999999-00661-00861101871ADDMA1999990101761MD1710041+9990REMSYN04801020 46/// /0603 11066 21086 30176 40187 57004=
0089010200999992014010208004+76483+016550FM-12+001099999V0200401N005019999999N999999999-00581-00741101891ADDMA1999990101781MD1900001+9990REMSYN04801020 46/// /0405 11058 21074 30178 40189 50000=
0108010200999992014010209004+76483+016550FM-12+001099999V0200501N006019999999N999999999-00611-00801101901ADDMA1999990101791MD1290029+9990REMSYN04801020 46/// /0506 11061 21080 30179 40190 54003=EQDQ01.3    3APC3  
0089010200999992014010210004+76483+016550FM-12+001099999V0200601N005019999999N999999999-00551-00741101891ADDMA1999990101781MD1510021+9990REMSYN04801020 46/// /0605 11055 21074 30178 40189 55002=
0108010200999992014010211004+76483+016550FM-12+001099999V0200601N005019999999N999999999-00541-00741101881ADDMA1999990101771MD1790019+9990REMSYN04801020 46/// /0605 11054 21074 30177 40188 54001=EQDQ01.1    3APC3  
0113010200999992014010212004+76483+016550FM-12+001099999V0200401N005019999999N999999999-00481-00661101841ADDMA1999990101731MD1610061+9990OD139900601999REMSYN05801020 46/// /0405 11048 21066 30173 40184 56006 333 91106=
0089010200999992014010213004+76483+016550FM-12+001099999V0200601N004019999999N999999999-00391-00581101831ADDMA1999990101721MD1710061+9990REMSYN04801020 46/// /0604 11039 21058 30172 40183 57006=
0089010200999992014010214004+76483+016550FM-12+001099999V0201001N007019999999N999999999-00111-00521101791ADDMA1999990101681MD1710091+9990REMSYN04801020 46/// /1007 11011 21052 30168 40179 57009=
0089010200999992014010215004+76483+016550FM-12+001099999V0201001N008019999999N999999999-00081-00501101761ADDMA1999990101651MD1710081+9990REMSYN04801020 46/// /1008 11008 21050 30165 40176 57008=
0089010200999992014010216004+76483+016550FM-12+001099999V0200901N008019999999N999999999-00121-00481101721ADDMA1999990101621MD1710101+9990REMSYN04801020 46/// /0908 11012 21048 30162 40172 57010=
0089010200999992014010217004+76483+016550FM-12+001099999V0201101N009019999999N999999999-00081-00501101691ADDMA1999990101581MD1710101+9990REMSYN04801020 46/// /1109 11008 21050 30158 40169 57010=
0132010200999992014010218004+76483+016550FM-12+001099999V0201001N009019999999N999999999-00061-00551101661ADDKA1120M-00051MA1999990101551MD1710101+9990OD139901201999REMSYN06401020 46/// /1009 11006 21055 30155 40166 57010 333 11005 91112=
0089010200999992014010219004+76483+016550FM-12+001099999V0201001N008019999999N999999999-00061-00551101631ADDMA1999990101521MD1710101+9990REMSYN04801020 46/// /1008 11006 21055 30152 40163 57010=
0089010200999992014010220004+76483+016550FM-12+001099999V0201001N008019999999N999999999-00071-00561101641ADDMA1999990101531MD1810051+9990REMSYN04801020 46/// /1008 11007 21056 30153 40164 58005=
0089010200999992014010221004+76483+016550FM-12+001099999V0201001N008019999999N999999999-00091-00531101621ADDMA1999990101521MD1710041+9990REMSYN04801020 46/// /1008 11009 21053 30152 40162 57004=
0108010200999992014010222004+76483+016550FM-12+001099999V0201001N009019999999N999999999-00091-00601101621ADDMA1999990101511MD1790019+9990REMSYN04801020 46/// /1009 11009 21060 30151 40162 54001=EQDQ01.1    3APC3  
0089010200999992014010223004+76483+016550FM-12+001099999V0201001N010019999999N999999999-00101-00651101601ADDMA1999990101491MD1710041+9990REMSYN04801020 46/// /1010 11010 21065 30149 40160 57004=
0113010200999992014010300004+76483+016550FM-12+001099999V0200901N008019999999N999999999-00111-00551101561ADDMA1999990101451MD1710061+9990OD139901201999REMSYN05801020 46/// /0908 11011 21055 30145 40156 57006 333 91112=
0089010200999992014010301004+76483+016550FM-12+001099999V0200901N009019999999N999999999-00121-00541101541ADDMA1999990101431MD1710081+9990REMSYN04801020 46/// /0909 11012 21054 30143 40154 57008=
0089010200999992014010302004+76483+016550FM-12+001099999V0200901N009019999999N999999999-00121-00591101501ADDMA1999990101401MD1710091+9990REMSYN04801020 46/// /0909 11012 21059 30140 40150 57009=
0089010200999992014010303004+76483+016550FM-12+001099999V0200901N009019999999N999999999-00111-00601101481ADDMA1999990101371MD1710081+9990REMSYN04801020 46/// /0909 11011 21060 30137 40148 57008=
0089010200999992014010304004+76483+016550FM-12+001099999V0200901N010019999999N999999999-00101-00631101451ADDMA1999990101341MD1710091+9990REMSYN04801020 46/// /0910 11010 21063 30134 40145 57009=
0089010200999992014010305004+76483+016550FM-12+001099999V0200901N009019999999N999999999-00121-00631101411ADDMA1999990101311MD1710091+9990REMSYN04801020 46/// /0909 11012 21063 30131 40141 57009=
0132010200999992014010306004+76483+016550FM-12+001099999V0200901N011019999999N999999999-00111-00641101381ADDKA1240N-00141MA1999990101271MD1710101+9990OD139901301999REMSYN06401020 46/// /0911 11011 21064 30127 40138 57010 333 21014 91113=
0089010200999992014010307004+76483+016550FM-12+001099999V0200801N010019999999N999999999-00141-00551101351ADDMA1999990101241MD1710101+9990REMSYN04801020 46/// /0810 11014 21055 30124 40135 57010=
0089010200999992014010308004+76483+016550FM-12+001099999V0200801N010019999999N999999999-00131-00621101331ADDMA1999990101221MD1710081+9990REMSYN04801020 46/// /0810 11013 21062 30122 40133 57008=
0089010200999992014010309004+76483+016550FM-12+001099999V0200801N010019999999N999999999-00141-00561101341ADDMA1999990101241MD1810041+9990REMSYN04801020 46/// /0810 11014 21056 30124 40134 58004=
0089010200999992014010310004+76483+016550FM-12+001099999V0200801N010019999999N999999999-00101-00571101301ADDMA1999990101191MD1710051+9990REMSYN04801020 46/// /0810 11010 21057 30119 40130 57005=
0089010200999992014010311004+76483+016550FM-12+001099999V0200801N012019999999N999999999-00081-00591101271ADDMA1999990101171MD1610061+9990REMSYN04801020 46/// /0812 11008 21059 30117 40127 56006=
0113010200999992014010312004+76483+016550FM-12+001099999V0200801N011019999999N999999999-00091-00531101241ADDMA1999990101131MD1710101+9990OD139901501999REMSYN05801020 46/// /0811 11009 21053 30113 40124 57010 333 91115=
0089010200999992014010313004+76483+016550FM-12+001099999V0200801N011019999999N999999999-00061-00451101181ADDMA1999990101071MD1710121+9990REMSYN04801020 46/// /0811 11006 21045 30107 40118 57012=
0089010200999992014010314004+76483+016550FM-12+001099999V0200801N011019999999N999999999-00071-00511101141ADDMA1999990101031MD1710141+9990REMSYN04801020 46/// /0811 11007 21051 30103 40114 57014=
0089010200999992014010315004+76483+016550FM-12+001099999V0200801N011019999999N999999999-00091-00341101131ADDMA1999990101021MD1810111+9990REMSYN04801020 46/// /0811 11009 21034 30102 40113 58011=
0089010200999992014010316004+76483+016550FM-12+001099999V0200701N012019999999N999999999-00071-00321101091ADDMA1999990100981MD1710101+9990REMSYN04801020 46/// /0712 11007 21032 30098 40109 57010=
0089010200999992014010317004+76483+016550FM-12+001099999V0200701N011019999999N999999999-00061-00281101031ADDMA1999990100931MD1610101+9990REMSYN04801020 46/// /0711 11006 21028 30093 40103 56010=
0132010200999992014010318004+76483+016550FM-12+001099999V0200701N011019999999N999999999-00091-00231100981ADDKA1120M-00051MA1999990100871MD1710151+9990OD139901401999REMSYN06401020 46/// /0711 11009 21023 30087 40098 57015 333 11005 91114=
0089010200999992014010319004+76483+016550FM-12+001099999V0200601N012019999999N999999999-00081-00221100941ADDMA1999990100831MD1710151+9990REMSYN04801020 46/// /0612 11008 21022 30083 40094 57015=
0089010200999992014010320004+76483+016550FM-12+001099999V0200601N013019999999N999999999-00061-00211100931ADDMA1999990100831MD1810101+9990REMSYN04801020 46/// /0613 11006 21021 30083 40093 58010=
0089010200999992014010321004+76483+016550FM-12+001099999V0200701N013019999999N999999999-00061-00211100911ADDMA1999990100801MD1710071+9990REMSYN04801020 46/// /0713 11006 21021 30080 40091 57007=
0089010200999992014010322004+76483+016550FM-12+001099999V0200601N013019999999N999999999-00071-00171100911ADDMA1999990100801MD1710031+9990REMSYN04801020 46/// /0613 11007 21017 30080 40091 57003=
0089010200999992014010323004+76483+016550FM-12+001099999V0200601N012019999999N999999999-00071-00141100891ADDMA1999990100781MD1710041+9990REMSYN04801020 46/// /0612 11007 21014 30078 40089 57004=
0113010200999992014010400004+76483+016550FM-12+001099999V0200701N012019999999N999999999-00071-00131100861ADDMA1999990100761MD1710041+9990OD139901501999REMSYN05801020 46/// /0712 11007 21013 30076 40086 57004 333 91115=
0089010200999992014010401004+76483+016550FM-12+001099999V0200701N012019999999N999999999-00031-00181100861ADDMA1999990100751MD1710051+9990REMSYN04801020 46/// /0712 11003 21018 30075 40086 57005=
0089010200999992014010402004+76483+016550FM-12+001099999V0200601N013019999999N999999999-00041-00181100831ADDMA1999990100721MD1710061+9990REMSYN04801020 46/// /0613 11004 21018 30072 40083 57006=
0089010200999992014010403004+76483+016550FM-12+001099999V0200701N013019999999N999999999-00021-00171100811ADDMA1999990100701MD1710051+9990REMSYN04801020 46/// /0713 11002 21017 30070 40081 57005=
0089010200999992014010404004+76483+016550FM-12+001099999V0200701N013019999999N999999999-00081-00141100811ADDMA1999990100701MD1710051+9990REMSYN04801020 46/// /0713 11008 21014 30070 40081 57005=
0089010200999992014010405004+76483+016550FM-12+001099999V0200601N012019999999N999999999-00081-00171100801ADDMA1999990100691MD1710031+9990REMSYN04801020 46/// /0612 11008 21017 30069 40080 57003=
0132010200999992014010406004+76483+016550FM-12+001099999V0200601N012019999999N999999999-00101-00231100811ADDKA1240N-00111MA1999990100701MD1410001+9990OD139901601999REMSYN06401020 46/// /0612 11010 21023 30070 40081 54000 333 21011 91116=
0089010200999992014010407004+76483+016550FM-12+001099999V0200601N013019999999N999999999-00101-00351100811ADDMA1999990100701MD1410001+9990REMSYN04801020 46/// /0613 11010 21035 30070 40081 54000=
0089010200999992014010408004+76483+016550FM-12+001099999V0200601N012019999999N999999999-00091-00331100801ADDMA1999990100691MD1410001+9990REMSYN04801020 46/// /0612 11009 21033 30069 40080 54000=
0089010200999992014010409004+76483+016550FM-12+001099999V0200501N014019999999N999999999-00141-00271100811ADDMA1999990100701MD1410001+9990REMSYN04801020 46/// /0514 11014 21027 30070 40081 54000=
0089010200999992014010410004+76483+016550FM-12+001099999V0200601N014019999999N999999999-00131-00301100811ADDMA1999990100701MD1410001+9990REMSYN04801020 46/// /0614 11013 21030 30070 40081 54000=
0089010200999992014010411004+76483+016550FM-12+001099999V0200501N013019999999N999999999-00121-00261100831ADDMA1999990100731MD1210041+9990REMSYN04801020 46/// /0513 11012 21026 30073 40083 52004=
0132010200999992014010412004+76483+016550FM-12+001099999V0200501N014019999999N999999999-00121-00451100821ADDMA1999990100711MD1290019+9990OD139901701999REMSYN05801020 46/// /0514 11012 21045 30071 40082 54001 333 91117=EQDQ01.1    3APC3  
0108010200999992014010413004+76483+016550FM-12+001099999V0200601N014019999999N999999999-00131-00431100831ADDMA1999990100721MD1290029+9990REMSYN04801020 46/// /0614 11013 21043 30072 40083 54002=EQDQ01.2    3APC3  
0089010200999992014010414004+76483+016550FM-12+001099999V0200601N014019999999N999999999-00111-00421100831ADDMA1999990100721MD1410001+9990REMSYN04801020 46/// /0614 11011 21042 30072 40083 54000=
0089010200999992014010415004+76483+016550FM-12+001099999V0200401N012019999999N999999999-00251-00361100851ADDMA1999990100741MD1210031+9990REMSYN04801020 46/// /0412 11025 21036 30074 40085 52003=
0089010200999992014010416004+76483+016550FM-12+001099999V0200501N016019999999N999999999-00241-00411100831ADDMA1999990100721MD1410001+9990REMSYN04801020 46/// /0516 11024 21041 30072 40083 54000=
0089010200999992014010417004+76483+016550FM-12+001099999V0200401N016019999999N999999999-00281-00441100871ADDMA1999990100761MD1210041+9990REMSYN04801020 46/// /0416 11028 21044 30076 40087 52004=
0151010200999992014010418004+76483+016550FM-12+001099999V0200401N016019999999N999999999-00391-00501100861ADDKA1120M-00081MA1999990100751MD1290019+9990OD139902001999REMSYN06401020 46/// /0416 11039 21050 30075 40086 54001 333 11008 91120=EQDQ01.1    3APC3  
0089010200999992014010419004+76483+016550FM-12+001099999V0200501N017019999999N999999999-00361-00471100901ADDMA1999990100791MD1210071+9990REMSYN04801020 46/// /0517 11036 21047 30079 40090 52007=
0089010200999992014010420004+76483+016550FM-12+001099999V0200501N019019999999N999999999-00401-00551100941ADDMA1999990100831MD1110071+9990REMSYN04801020 46/// /0519 11040 21055 30083 40094 51007=
0089010200999992014010421004+76483+016550FM-12+001099999V0200501N018019999999N999999999-00421-00571100931ADDMA1999990100831MD1310081+9990REMSYN04801020 46/// /0518 11042 21057 30083 40093 53008=
0089010200999992014010422004+76483+016550FM-12+001099999V0200501N018019999999N999999999-00451-00611101001ADDMA1999990100891MD1210101+9990REMSYN04801020 46/// /0518 11045 21061 30089 40100 52010=
0089010200999992014010423004+76483+016550FM-12+001099999V0200501N016019999999N999999999-00481-00631101091ADDMA1999990100981MD1110141+9990REMSYN04801020 46/// /0516 11048 21063 30098 40109 51014=
0113010200999992014010500004+76483+016550FM-12+001099999V0200301N017019999999N999999999-00791-00921101111ADDMA1999990101001MD1310171+9990OD139902301999REMSYN05801020 46/// /0317 11079 21092 30100 40111 53017 333 91123=
0089010200999992014010501004+76483+016550FM-12+001099999V0200401N017019999999N999999999-00851-01011101131ADDMA1999990101021MD1310131+9990REMSYN04801020 46/// /0417 11085 21101 30102 40113 53013=
0089010200999992014010502004+76483+016550FM-12+001099999V0200401N017019999999N999999999-00911-01071101161ADDMA1999990101051MD1210071+9990REMSYN04801020 46/// /0417 11091 21107 30105 40116 52007=
0089010200999992014010503004+76483+016550FM-12+001099999V0200401N017019999999N999999999-00931-01111101141ADDMA1999990101031MD1310031+9990REMSYN04801020 46/// /0417 11093 21111 30103 40114 53003=
0089010200999992014010504004+76483+016550FM-12+001099999V0200301N017019999999N999999999-00931-01111101171ADDMA1999990101061MD1210041+9990REMSYN04801020 46/// /0317 11093 21111 30106 40117 52004=
0089010200999992014010505004+76483+016550FM-12+001099999V0200401N018019999999N999999999-00981-01181101191ADDMA1999990101081MD1110031+9990REMSYN04801020 46/// /0418 11098 21118 30108 40119 51003=
0132010200999992014010506004+76483+016550FM-12+001099999V0200301N017019999999N999999999-01101-01311101241ADDKA1240N-01101MA1999990101131MD1210101+9990OD139902101999REMSYN06401020 46/// /0317 11110 21131 30113 40124 52010 333 21110 91121=
0089010200999992014010507004+76483+016550FM-12+001099999V0200301N017019999999N999999999-01071-01281101291ADDMA1999990101181MD1210121+9990REMSYN04801020 46/// /0317 11107 21128 30118 40129 52012=
0089010200999992014010508004+76483+016550FM-12+001099999V0200301N019019999999N999999999-01081-01301101301ADDMA1999990101191MD1310111+9990REMSYN04801020 46/// /0319 11108 21130 30119 40130 53011=
0089010200999992014010509004+76483+016550FM-12+001099999V0200401N018019999999N999999999-01041-01341101321ADDMA1999990101211MD1310081+9990REMSYN04801020 46/// /0418 11104 21134 30121 40132 53008=
0089010200999992014010510004+76483+016550FM-12+001099999V0200401N018019999999N999999999-01051-01371101351ADDMA1999990101241MD1210061+9990REMSYN04801020 46/// /0418 11105 21137 30124 40135 52006=
0089010200999992014010511004+76483+016550FM-12+001099999V0200401N017019999999N999999999-01131-01381101441ADDMA1999990101321MD1110131+9990REMSYN04801020 46/// /0417 11113 21138 30132 40144 51013=
0113010200999992014010512004+76483+016550FM-12+001099999V0200401N016019999999N999999999-01181-01411101451ADDMA1999990101341MD1210131+9990OD139902201999REMSYN05801020 46/// /0416 11118 21141 30134 40145 52013 333 91122=
0089010200999992014010513004+76483+016550FM-12+001099999V0200301N014019999999N999999999-01131-01391101531ADDMA1999990101421MD1210191+9990REMSYN04801020 46/// /0314 11113 21139 30142 40153 52019=
0089010200999992014010514004+76483+016550FM-12+001099999V0200401N015019999999N999999999-01101-01331101511ADDMA1999990101391MD1310071+9990REMSYN04801020 46/// /0415 11110 21133 30139 40151 53007=
0089010200999992014010515004+76483+016550FM-12+001099999V0200401N014019999999N999999999-01071-01291101551ADDMA1999990101441MD1310101+9990REMSYN04801020 46/// /0414 11107 21129 30144 40155 53010=
0108010200999992014010516004+76483+016550FM-12+001099999V0200401N015019999999N999999999-01091-01321101521ADDMA1999990101401MD1790019+9990REMSYN04801020 46/// /0415 11109 21132 30140 40152 54002=EQDQ01.2    3APC3  
0089010200999992014010518004+76483+016550FM-12+001099999V0200401N016019999999N999999999-01071-01281101491ADDMA1999990101371MD1710071+9990REMSYN04801020 46/// /0416 11107 21128 30137 40149 57007=
0108010200999992014010519004+76483+016550FM-12+001099999V0200401N016019999999N999999999-01031-01281101551ADDMA1999990101431MD1290039+9990REMSYN04801020 46/// /0416 11103 21128 30143 40155 54003=EQDQ01.3    3APC3  
0089010200999992014010520004+76483+016550FM-12+001099999V0200401N015019999999N999999999-01011-01251101561ADDMA1999990101451MD1900011+9990REMSYN04801020 46/// /0415 11101 21125 30145 40156 50001=
0089010200999992014010521004+76483+016550FM-12+001099999V0200401N015019999999N999999999-01061-01271101561ADDMA1999990101451MD1310071+9990REMSYN04801020 46/// /0415 11106 21127 30145 40156 53007=
0089010200999992014010522004+76483+016550FM-12+001099999V0200501N017019999999N999999999-01041-01261101511ADDMA1999990101401MD1610031+9990REMSYN04801020 46/// /0517 11104 21126 30140 40151 56003=
0089010200999992014010523004+76483+016550FM-12+001099999V0200501N017019999999N999999999-00991-01211101561ADDMA1999990101451MD1900001+9990REMSYN04801020 46/// /0517 11099 21121 30145 40156 50000=
0113010200999992014010600004+76483+016550FM-12+001099999V0200401N015019999999N999999999-01031-01251101611ADDMA1999990101501MD1900051+9990OD139902001999REMSYN05801020 46/// /0415 11103 21125 30150 40161 50005 333 91120=
0089010200999992014010601004+76483+016550FM-12+001099999V0200401N015019999999N999999999-01091-01271101651ADDMA1999990101541MD1210141+9990REMSYN04801020 46/// /0415 11109 21127 30154 40165 52014=
0089010200999992014010602004+76483+016550FM-12+001099999V0200401N016019999999N999999999-01101-01311101621ADDMA1999990101511MD1310061+9990REMSYN04801020 46/// /0416 11110 21131 30151 40162 53006=
0089010200999992014010603004+76483+016550FM-12+001099999V0200301N015019999999N999999999-01081-01261101621ADDMA1999990101511MD1510011+9990REMSYN04801020 46/// /0315 11108 21126 30151 40162 55001=
0089010200999992014010604004+76483+016550FM-12+001099999V0200301N015019999999N999999999-01051-01281101611ADDMA1999990101501MD1710041+9990REMSYN04801020 46/// /0315 11105 21128 30150 40161 57004=
0089010200999992014010605004+76483+016550FM-12+001099999V0200301N016019999999N999999999-01001-01191101581ADDMA1999990101461MD1610051+9990REMSYN04801020 46/// /0316 11100 21119 30146 40158 56005=
0132010200999992014010606004+76483+016550FM-12+001099999V0200401N016019999999N999999999-01001-01141101571ADDKA1240N-01111MA1999990101461MD1710051+9990OD139901901999REMSYN06401020 46/// /0416 11100 21114 30146 40157 57005 333 21111 91119=
0089010200999992014010607004+76483+016550FM-12+001099999V0200401N016019999999N999999999-00981-01141101601ADDMA1999990101481MD1900021+9990REMSYN04801020 46/// /0416 11098 21114 30148 40160 50002=
0089010200999992014010608004+76483+016550FM-12+001099999V0200401N016019999999N999999999-01011-01181101621ADDMA1999990101511MD1110051+9990REMSYN04801020 46/// /0416 11101 21118 30151 40162 51005=
0089010200999992014010609004+76483+016550FM-12+001099999V0200301N015019999999N999999999-00911-01111101661ADDMA1999990101551MD1210091+9990REMSYN04801020 46/// /0315 11091 21111 30155 40166 52009=
0089010200999992014010610004+76483+016550FM-12+001099999V0200401N012019999999N999999999-00821-00981101711ADDMA1999990101601MD1110121+9990REMSYN04801020 46/// /0412 11082 21098 30160 40171 51012=
0089010200999992014010611004+76483+016550FM-12+001099999V0200401N013019999999N999999999-00791-00921101721ADDMA1999990101611MD1310101+9990REMSYN04801020 46/// /0413 11079 21092 30161 40172 53010=
0113010200999992014010612004+76483+016550FM-12+001099999V0200601N009019999999N999999999-00641-00851101771ADDMA1999990101661MD1210121+9990OD139901901999REMSYN05801020 46/// /0609 11064 21085 30166 40177 52012 333 91119=
0089010200999992014010613004+76483+016550FM-12+001099999V0200601N012019999999N999999999-00711-00811101771ADDMA1999990101661MD1210061+9990REMSYN04801020 46/// /0612 11071 21081 30166 40177 52006=
0089010200999992014010614004+76483+016550FM-12+001099999V0200501N014019999999N999999999-00751-00851101761ADDMA1999990101651MD1310041+9990REMSYN04801020 46/// /0514 11075 21085 30165 40176 53004=
0089010200999992014010615004+76483+016550FM-12+001099999V0200501N016019999999N999999999-00791-00901101731ADDMA1999990101621MD1610051+9990REMSYN04801020 46/// /0516 11079 21090 30162 40173 56005=
0089010200999992014010616004+76483+016550FM-12+001099999V0200401N016019999999N999999999-00931-01051101761ADDMA1999990101651MD1900011+9990REMSYN04801020 46/// /0416 11093 21105 30165 40176 50001=
0089010200999992014010617004+76483+016550FM-12+001099999V0200401N017019999999N999999999-01011-01141101761ADDMA1999990101651MD1900001+9990REMSYN04801020 46/// /0417 11101 21114 30165 40176 50000=
0132010200999992014010618004+76483+016550FM-12+001099999V0200401N017019999999N999999999-01031-01151101751ADDKA1120M-00631MA1999990101641MD1510031+9990OD139902001999REMSYN06401020 46/// /0417 11103 21115 30164 40175 55003 333 11063 91120=
0108010200999992014010619004+76483+016550FM-12+001099999V0200401N018019999999N999999999-01081-01211101771ADDMA1999990101661MD1290019+9990REMSYN04801020 46/// /0418 11108 21121 30166 40177 54001=EQDQ01.1    3APC3  
0108010200999992014010620004+76483+016550FM-12+001099999V0200401N017019999999N999999999-01121-01261101781ADDMA1999990101671MD1290029+9990REMSYN04801020 46/// /0417 11112 21126 30167 40178 54002=EQDQ01.2    3APC3  
0089010200999992014010621004+76483+016550FM-12+001099999V0200401N018019999999N999999999-01091-01221101801ADDMA1999990101691MD1210051+9990REMSYN04801020 46/// /0418 11109 21122 30169 40180 52005=
0089010200999992014010622004+76483+016550FM-12+001099999V0200401N018019999999N999999999-01091-01221101771ADDMA1999990101651MD1510011+9990REMSYN04801020 46/// /0418 11109 21122 30165 40177 55001=
0108010200999992014010623004+76483+016550FM-12+001099999V0200401N018019999999N999999999-01081-01211101761ADDMA1999990101651MD1790029+9990REMSYN04801020 46/// /0418 11108 21121 30165 40176 54002=EQDQ01.2    3APC3  
0113010200999992014010700004+76483+016550FM-12+001099999V0200401N018019999999N999999999-01061-01191101761ADDMA1999990101651MD1810041+9990OD139902101999REMSYN05801020 46/// /0418 11106 21119 30165 40176 58004 333 91121=
0089010200999992014010701004+76483+016550FM-12+001099999V0200401N019019999999N999999999-01051-01181101791ADDMA1999990101671MD1900021+9990REMSYN04801020 46/// /0419 11105 21118 30167 40179 50002=
0089010200999992014010702004+76483+016550FM-12+001099999V0200401N018019999999N999999999-01021-01141101811ADDMA1999990101701MD1210051+9990REMSYN04801020 46/// /0418 11102 21114 30170 40181 52005=
0089010200999992014010703004+76483+016550FM-12+001099999V0200401N017019999999N999999999-01001-01121101841ADDMA1999990101721MD1210081+9990REMSYN04801020 46/// /0417 11100 21112 30172 40184 52008=
0089010200999992014010704004+76483+016550FM-12+001099999V0200301N016019999999N999999999-01031-01151101861ADDMA1999990101741MD1210071+9990REMSYN04801020 46/// /0316 11103 21115 30174 40186 52007=
0089010200999992014010705004+76483+016550FM-12+001099999V0200401N018019999999N999999999-01031-01151101851ADDMA1999990101741MD1310041+9990REMSYN04801020 46/// /0418 11103 21115 30174 40185 53004=
0132010200999992014010706004+76483+016550FM-12+001099999V0200401N017019999999N999999999-01091-01221101901ADDKA1240N-01121MA1999990101781MD1210061+9990OD139902201999REMSYN06401020 46/// /0417 11109 21122 30178 40190 52006 333 21112 91122=
0089010200999992014010707004+76483+016550FM-12+001099999V0200401N017019999999N999999999-01081-01211101911ADDMA1999990101791MD1210051+9990REMSYN04801020 46/// /0417 11108 21121 30179 40191 52005=
0089010200999992014010708004+76483+016550FM-12+001099999V0200401N017019999999N999999999-01131-01271101931ADDMA1999990101821MD1210081+9990REMSYN04801020 46/// /0417 11113 21127 30182 40193 52008=
0089010200999992014010709004+76483+016550FM-12+001099999V0200401N018019999999N999999999-01171-01301101971ADDMA1999990101851MD1210071+9990REMSYN04801020 46/// /0418 11117 21130 30185 40197 52007=
0089010200999992014010710004+76483+016550FM-12+001099999V0200401N018019999999N999999999-01171-01301102011ADDMA1999990101891MD1210101+9990REMSYN04801020 46/// /0418 11117 21130 30189 40201 52010=
0089010200999992014010711004+76483+016550FM-12+001099999V0200401N018019999999N999999999-01171-01301102061ADDMA1999990101951MD1210131+9990REMSYN04801020 46/// /0418 11117 21130 30195 40206 52013=
0113010200999992014010712004+76483+016550FM-12+001099999V0200301N013019999999N999999999-01111-01241102141ADDMA1999990102021MD1110171+9990OD139902201999REMSYN05801020 46/// /0313 11111 21124 30202 40214 51017 333 91122=
0089010200999992014010713004+76483+016550FM-12+001099999V0200301N015019999999N999999999-01131-01261102121ADDMA1999990102011MD1310111+9990REMSYN04801020 46/// /0315 11113 21126 30201 40212 53011=
0089010200999992014010714004+76483+016550FM-12+001099999V0200301N016019999999N999999999-01151-01281102101ADDMA1999990101991MD1310041+9990REMSYN04801020 46/// /0316 11115 21128 30199 40210 53004=
0089010200999992014010715004+76483+016550FM-12+001099999V0200301N016019999999N999999999-01191-01331102041ADDMA1999990101931MD1610101+9990REMSYN04801020 46/// /0316 11119 21133 30193 40204 56010=
0089010200999992014010716004+76483+016550FM-12+001099999V0200301N016019999999N999999999-01211-01351102081ADDMA1999990101971MD1810041+9990REMSYN04801020 46/// /0316 11121 21135 30197 40208 58004=
0089010200999992014010717004+76483+016550FM-12+001099999V0200401N016019999999N999999999-01221-01361102091ADDMA1999990101971MD1900011+9990REMSYN04801020 46/// /0416 11122 21136 30197 40209 50001=
0132010200999992014010718004+76483+016550FM-12+001099999V0200301N015019999999N999999999-01221-01351102141ADDKA1120M-01051MA1999990102021MD1210091+9990OD139902001999REMSYN06401020 46/// /0315 11122 21135 30202 40214 52009 333 11105 91120=
0089010200999992014010719004+76483+016550FM-12+001099999V0200301N016019999999N999999999-01241-01381102131ADDMA1999990102021MD1210051+9990REMSYN04801020 46/// /0316 11124 21138 30202 40213 52005=
0089010200999992014010720004+76483+016550FM-12+001099999V0200301N016019999999N999999999-01241-01381102191ADDMA1999990102071MD1210101+9990REMSYN04801020 46/// /0316 11124 21138 30207 40219 52010=
0089010200999992014010721004+76483+016550FM-12+001099999V0200301N015019999999N999999999-01261-01401102231ADDMA1999990102121MD1110101+9990REMSYN04801020 46/// /0315 11126 21140 30212 40223 51010=
0089010200999992014010722004+76483+016550FM-12+001099999V0200301N015019999999N999999999-01281-01421102281ADDMA1999990102171MD1210151+9990REMSYN04801020 46/// /0315 11128 21142 30217 40228 52015=
0089010200999992014010723004+76483+016550FM-12+001099999V0200301N015019999999N999999999-01321-01471102261ADDMA1999990102151MD1310071+9990REMSYN04801020 46/// /0315 11132 21147 30215 40226 53007=
0113010200999992014010800004+76483+016550FM-12+001099999V0200401N016019999999N999999999-01351-01501102251ADDMA1999990102141MD1510011+9990OD139901901999REMSYN05801020 46/// /0416 11135 21150 30214 40225 55001 333 91119=
0089010200999992014010801004+76483+016550FM-12+001099999V0200401N016019999999N999999999-01391-01541102241ADDMA1999990102131MD1710041+9990REMSYN04801020 46/// /0416 11139 21154 30213 40224 57004=
0089010200999992014010802004+76483+016550FM-12+001099999V0200401N017019999999N999999999-01351-01491102201ADDMA1999990102091MD1710061+9990REMSYN04801020 46/// /0417 11135 21149 30209 40220 57006=
0089010200999992014010803004+76483+016550FM-12+001099999V0200401N017019999999N999999999-01371-01521102201ADDMA1999990102091MD1710041+9990REMSYN04801020 46/// /0417 11137 21152 30209 40220 57004=
0089010200999992014010804004+76483+016550FM-12+001099999V0200401N017019999999N999999999-01391-01541102231ADDMA1999990102121MD1900011+9990REMSYN04801020 46/// /0417 11139 21154 30212 40223 50001=
0089010200999992014010805004+76483+016550FM-12+001099999V0200401N015019999999N999999999-01411-01561102241ADDMA1999990102131MD1210041+9990REMSYN04801020 46/// /0415 11141 21156 30213 40224 52004=
0132010200999992014010806004+76483+016550FM-12+001099999V0200401N015019999999N999999999-01391-01541102251ADDKA1240N-01421MA1999990102131MD1210041+9990OD139902001999REMSYN06401020 46/// /0415 11139 21154 30213 40225 52004 333 21142 91120=
0089010200999992014010807004+76483+016550FM-12+001099999V0200401N013019999999N999999999-01361-01501102291ADDMA1999990102171MD1110051+9990REMSYN04801020 46/// /0413 11136 21150 30217 40229 51005=
0089010200999992014010808004+76483+016550FM-12+001099999V0200301N010019999999N999999999-01311-01451102361ADDMA1999990102241MD1110111+9990REMSYN04801020 46/// /0310 11131 21145 30224 40236 51011=
0089010200999992014010809004+76483+016550FM-12+001099999V0200301N013019999999N999999999-01291-01431102321ADDMA1999990102211MD1310081+9990REMSYN04801020 46/// /0313 11129 21143 30221 40232 53008=
0089010200999992014010810004+76483+016550FM-12+001099999V0200401N014019999999N999999999-01261-01401102331ADDMA1999990102221MD1310041+9990REMSYN04801020 46/// /0414 11126 21140 30222 40233 53004=
0089010200999992014010811004+76483+016550FM-12+001099999V0200301N012019999999N999999999-01171-01311102361ADDMA1999990102251MD1900011+9990REMSYN04801020 46/// /0312 11117 21131 30225 40236 50001=
0113010200999992014010812004+76483+016550FM-12+001099999V0200301N010019999999N999999999-01141-01281102371ADDMA1999990102261MD1210051+9990OD139901701999REMSYN05801020 46/// /0310 11114 21128 30226 40237 52005 333 91117=
0089010200999992014010813004+76483+016550FM-12+001099999V0200401N011019999999N999999999-01201-01341102361ADDMA1999990102241MD1510031+9990REMSYN04801020 46/// /0411 11120 21134 30224 40236 55003=
0089010200999992014010814004+76483+016550FM-12+001099999V0200301N011019999999N999999999-01211-01341102361ADDMA1999990102251MD1410001+9990REMSYN04801020 46/// /0311 11121 21134 30225 40236 54000=
0089010200999992014010815004+76483+016550FM-12+001099999V0200401N011019999999N999999999-01221-01351102381ADDMA1999990102261MD1900001+9990REMSYN04801020 46/// /0411 11122 21135 30226 40238 50000=
0108010200999992014010816004+76483+016550FM-12+001099999V0200401N009019999999N999999999-01281-01421102371ADDMA1999990102251MD1290019+9990REMSYN04801020 46/// /0409 11128 21142 30225 40237 54001=EQDQ01.1    3APC3  
0089010200999992014010817004+76483+016550FM-12+001099999V0200401N009019999999N999999999-01291-01461102341ADDMA1999990102221MD1510031+9990REMSYN04801020 46/// /0409 11129 21146 30222 40234 55003=
0132010200999992014010818004+76483+016550FM-12+001099999V0200401N008019999999N999999999-01221-01361102321ADDKA1120M-01131MA1999990102211MD1710061+9990OD139901401999REMSYN06401020 46/// /0408 11122 21136 30221 40232 57006 333 11113 91114=
0089010200999992014010819004+76483+016550FM-12+001099999V0200301N007019999999N999999999-01201-01351102331ADDMA1999990102221MD1810031+9990REMSYN04801020 46/// /0307 11120 21135 30222 40233 58003=
0089010200999992014010820004+76483+016550FM-12+001099999V0200201N007019999999N999999999-01221-01371102361ADDMA1999990102251MD1900031+9990REMSYN04801020 46/// /0207 11122 21137 30225 40236 50003=
0089010200999992014010821004+76483+016550FM-12+001099999V0200301N006019999999N999999999-01211-01351102381ADDMA1999990102271MD1210061+9990REMSYN04801020 46/// /0306 11121 21135 30227 40238 52006=
0089010200999992014010822004+76483+016550FM-12+001099999V0200301N006019999999N999999999-01231-01381102381ADDMA1999990102261MD1310041+9990REMSYN04801020 46/// /0306 11123 21138 30226 40238 53004=
0089010200999992014010823004+76483+016550FM-12+001099999V0200301N006019999999N999999999-01251-01391102351ADDMA1999990102231MD1510021+9990REMSYN04801020 46/// /0306 11125 21139 30223 40235 55002=
0113010200999992014010900004+76483+016550FM-12+001099999V0200401N005019999999N999999999-01291-01421102321ADDMA1999990102201MD1710061+9990OD139900901999REMSYN05801020 46/// /0405 11129 21142 30220 40232 57006 333 91109=
0089010200999992014010901004+76483+016550FM-12+001099999V0200201N006019999999N999999999-01261-01411102321ADDMA1999990102211MD1810061+9990REMSYN04801020 46/// /0206 11126 21141 30221 40232 58006=
0089010200999992014010902004+76483+016550FM-12+001099999V0200301N006019999999N999999999-01221-01401102341ADDMA1999990102221MD1900011+9990REMSYN04801020 46/// /0306 11122 21140 30222 40234 50001=
0089010200999992014010903004+76483+016550FM-12+001099999V0200401N005019999999N999999999-01191-01361102321ADDMA1999990102201MD1410001+9990REMSYN04801020 46/// /0405 11119 21136 30220 40232 54000=
0089010200999992014010904004+76483+016550FM-12+001099999V0200401N004019999999N999999999-01161-01301102261ADDMA1999990102151MD1610051+9990REMSYN04801020 46/// /0404 11116 21130 30215 40226 56005=
0089010200999992014010905004+76483+016550FM-12+001099999V0200401N005019999999N999999999-01151-01301102261ADDMA1999990102141MD1710081+9990REMSYN04801020 46/// /0405 11115 21130 30214 40226 57008=
0132010200999992014010906004+76483+016550FM-12+001099999V0200401N005019999999N999999999-01151-01321102221ADDKA1240N-01321MA1999990102111MD1710091+9990OD139900701999REMSYN06401020 46/// /0405 11115 21132 30211 40222 57009 333 21132 91107=
0089010200999992014010907004+76483+016550FM-12+001099999V0200501N006019999999N999999999-01151-01291102251ADDMA1999990102131MD1900021+9990REMSYN04801020 46/// /0506 11115 21129 30213 40225 50002=
0089010200999992014010908004+76483+016550FM-12+001099999V0200501N005019999999N999999999-01071-01191102251ADDMA1999990102141MD1900001+9990REMSYN04801020 46/// /0505 11107 21119 30214 40225 50000=
0089010200999992014010909004+76483+016550FM-12+001099999V0200501N004019999999N999999999-01031-01151102271ADDMA1999990102151MD1210041+9990REMSYN04801020 46/// /0504 11103 21115 30215 40227 52004=
0089010200999992014010910004+76483+016550FM-12+001099999V0200501N004019999999N999999999-00981-01121102251ADDMA1999990102141MD1410001+9990REMSYN04801020 46/// /0504 11098 21112 30214 40225 54000=
0089010200999992014010911004+76483+016550FM-12+001099999V0200501N004019999999N999999999-00971-01101102221ADDMA1999990102111MD1610031+9990REMSYN04801020 46/// /0504 11097 21110 30211 40222 56003=
0113010200999992014010912004+76483+016550FM-12+001099999V0200601N003019999999N999999999-00921-01031102201ADDMA1999990102091MD1710061+9990OD139900601999REMSYN05801020 46/// /0603 11092 21103 30209 40220 57006 333 91106=
0089010200999992014010913004+76483+016550FM-12+001099999V0200701N003019999999N999999999-00851-00971102181ADDMA1999990102061MD1710071+9990REMSYN04801020 46/// /0703 11085 21097 30206 40218 57007=
0089010200999992014010914004+76483+016550FM-12+001099999V0200901N003019999999N999999999-00801-00911102111ADDMA1999990102001MD1610111+9990REMSYN04801020 46/// /0903 11080 21091 30200 40211 56011=
0089010200999992014010915004+76483+016550FM-12+001099999V0201301N005019999999N999999999-00721-00921102061ADDMA1999990101951MD1710141+9990REMSYN04801020 46/// /1305 11072 21092 30195 40206 57014=
0089010200999992014010916004+76483+016550FM-12+001099999V0201401N005019999999N999999999-00651-00851102011ADDMA1999990101901MD1710171+9990REMSYN04801020 46/// /1405 11065 21085 30190 40201 57017=
0089010200999992014010917004+76483+016550FM-12+001099999V0201501N006019999999N999999999-00591-00821101961ADDMA1999990101851MD1710151+9990REMSYN04801020 46/// /1506 11059 21082 30185 40196 57015=
0132010200999992014010918004+76483+016550FM-12+001099999V0201601N006019999999N999999999-00541-00811101911ADDKA1120M-00531MA1999990101801MD1710151+9990OD139900701999REMSYN06401020 46/// /1606 11054 21081 30180 40191 57015 333 11053 91107=
0089010200999992014010919004+76483+016550FM-12+001099999V0201701N005019999999N999999999-00521-00681101881ADDMA1999990101771MD1710131+9990REMSYN04801020 46/// /1705 11052 21068 30177 40188 57013=
0089010200999992014010920004+76483+016550FM-12+001099999V0201601N008019999999N999999999-00491-00631101811ADDMA1999990101701MD1710151+9990REMSYN04801020 46/// /1608 11049 21063 30170 40181 57015=
0089010200999992014010921004+76483+016550FM-12+001099999V0201601N009019999999N999999999-00431-00551101731ADDMA1999990101621MD1610171+9990REMSYN04801020 46/// /1609 11043 21055 30162 40173 56017=
0089010200999992014010922004+76483+016550FM-12+001099999V0201801N010019999999N999999999-00371-00481101671ADDMA1999990101561MD1710211+9990REMSYN04801020 46/// /1810 11037 21048 30156 40167 57021=
0089010200999992014010923004+76483+016550FM-12+001099999V0201801N011019999999N999999999-00341-00521101581ADDMA1999990101471MD1710231+9990REMSYN04801020 46/// /1811 11034 21052 30147 40158 57023=
0113010200999992014011000004+76483+016550FM-12+001099999V0201901N011019999999N999999999-00291-00431101491ADDMA1999990101381MD1710251+9990OD139901301999REMSYN05801020 46/// /1911 11029 21043 30138 40149 57025 333 91113=
0089010200999992014011001004+76483+016550FM-12+001099999V0202001N010019999999N999999999-00211-00301101381ADDMA1999990101271MD1710291+9990REMSYN04801020 46/// /2010 11021 21030 30127 40138 57029=
0089010200999992014011002004+76483+016550FM-12+001099999V0202101N010019999999N999999999-00201-00261101301ADDMA1999990101191MD1710281+9990REMSYN04801020 46/// /2110 11020 21026 30119 40130 57028=
0089010200999992014011003004+76483+016550FM-12+001099999V0202201N009019999999N999999999-00141-00391101231ADDMA1999990101121MD1710261+9990REMSYN04801020 46/// /2209 11014 21039 30112 40123 57026=
0089010200999992014011004004+76483+016550FM-12+001099999V0202301N009019999999N999999999-00111-00351101161ADDMA1999990101051MD1710221+9990REMSYN04801020 46/// /2309 11011 21035 30105 40116 57022=
0089010200999992014011005004+76483+016550FM-12+001099999V0202201N009019999999N999999999-00151-00241101101ADDMA1999990100991MD1710201+9990REMSYN04801020 46/// /2209 11015 21024 30099 40110 57020=
0132010200999992014011006004+76483+016550FM-12+001099999V0202101N009019999999N999999999-00131-00181101001ADDKA1240N-00541MA1999990100891MD1610221+9990OD139901301999REMSYN06401020 46/// /2109 11013 21018 30089 40100 56022 333 21054 91113=
0089010200999992014011007004+76483+016550FM-12+001099999V0202301N008019999999N999999999-00101-00151100951ADDMA1999990100841MD1710211+9990REMSYN04801020 46/// /2308 11010 21015 30084 40095 57021=
0089010200999992014011008004+76483+016550FM-12+001099999V0202401N006019999999N999999999-00131-00181100961ADDMA1999990100851MD1810141+9990REMSYN04801020 46/// /2406 11013 21018 30085 40096 58014=
0089010200999992014011009004+76483+016550FM-12+001099999V0202501N007019999999N999999999-00101-00171100911ADDMA1999990100811MD1710091+9990REMSYN04801020 46/// /2507 11010 21017 30081 40091 57009=
0089010200999992014011010004+76483+016550FM-12+001099999V0202501N007019999999N999999999-00091-00181100891ADDMA1999990100791MD1610051+9990REMSYN04801020 46/// /2507 11009 21018 30079 40089 56005=
0089010200999992014011011004+76483+016550FM-12+001099999V0202701N006019999999N999999999-00091-00191100881ADDMA1999990100771MD1710081+9990REMSYN04801020 46/// /2706 11009 21019 30077 40088 57008=
0113010200999992014011012004+76483+016550FM-12+001099999V0202701N007019999999N999999999-00081-00131100901ADDMA1999990100801MD1900011+9990OD139901101999REMSYN05801020 46/// /2707 11008 21013 30080 40090 50001 333 91111=
0108010200999992014011013004+76483+016550FM-12+001099999V0202701N007019999999N999999999-00081-00141100881ADDMA1999990100781MD1790019+9990REMSYN04801020 46/// /2707 11008 21014 30078 40088 54001=EQDQ01.1    3APC3  
0089010200999992014011014004+76483+016550FM-12+001099999V0202701N008019999999N999999999-00081-00171100861ADDMA1999990100751MD1510021+9990REMSYN04801020 46/// /2708 11008 21017 30075 40086 55002=
0089010200999992014011015004+76483+016550FM-12+001099999V0202801N008019999999N999999999-00091-00201100821ADDMA1999990100711MD1710081+9990REMSYN04801020 46/// /2808 11009 21020 30071 40082 57008=
0089010200999992014011016004+76483+016550FM-12+001099999V0202801N007019999999N999999999-00081-00221100831ADDMA1999990100721MD1710051+9990REMSYN04801020 46/// /2807 11008 21022 30072 40083 57005=
0089010200999992014011018004+76483+016550FM-12+001099999V0202801N007019999999N999999999-00091-00241100891ADDMA1999990100781MD1210061+9990REMSYN04801020 46/// /2807 11009 21024 30078 40089 52006=
0089010200999992014011019004+76483+016550FM-12+001099999V0202901N007019999999N999999999-00111-00241100901ADDMA1999990100791MD1210071+9990REMSYN04801020 46/// /2907 11011 21024 30079 40090 52007=
0089010200999992014011020004+76483+016550FM-12+001099999V0203001N008019999999N999999999-00091-00231100911ADDMA1999990100811MD1210051+9990REMSYN04801020 46/// /3008 11009 21023 30081 40091 52005=
0089010200999992014011021004+76483+016550FM-12+001099999V0202901N008019999999N999999999-00101-00231100941ADDMA1999990100831MD1210051+9990REMSYN04801020 46/// /2908 11010 21023 30083 40094 52005=
0089010200999992014011022004+76483+016550FM-12+001099999V0202901N005019999999N999999999-00131-00231100961ADDMA1999990100851MD1210061+9990REMSYN04801020 46/// /2905 11013 21023 30085 40096 52006=
0089010200999992014011023004+76483+016550FM-12+001099999V0202801N006019999999N999999999-00101-00241100961ADDMA1999990100851MD1210041+9990REMSYN04801020 46/// /2806 11010 21024 30085 40096 52004=
0113010200999992014011100004+76483+016550FM-12+001099999V0202901N007019999999N999999999-00061-00311100971ADDMA1999990100861MD1210031+9990OD139901001999REMSYN05801020 46/// /2907 11006 21031 30086 40097 52003 333 91110=
0108010200999992014011101004+76483+016550FM-12+001099999V0202901N008019999999N999999999-00051-00301100981ADDMA1999990100871MD1290029+9990REMSYN04801020 46/// /2908 11005 21030 30087 40098 54003=EQDQ01.3    3APC3  
0108010200999992014011102004+76483+016550FM-12+001099999V0202901N007019999999N999999999-00061-00301100971ADDMA1999990100861MD1290019+9990REMSYN04801020 46/// /2907 11006 21030 30086 40097 54002=EQDQ01.2    3APC3  
0089010200999992014011103004+76483+016550FM-12+001099999V0203001N009019999999N999999999-00031-00361100971ADDMA1999990100861MD1410001+9990REMSYN04801020 46/// /3009 11003 21036 30086 40097 54000=
0089010200999992014011104004+76483+016550FM-12+001099999V0202701N007019999999N999999999-00101-00231101001ADDMA1999990100891MD1900021+9990REMSYN04801020 46/// /2707 11010 21023 30089 40100 50002=
0089010200999992014011105004+76483+016550FM-12+001099999V0203001N006019999999N999999999-00071-00311101021ADDMA1999990100921MD1210051+9990REMSYN04801020 46/// /3006 11007 21031 30092 40102 52005=
0132010200999992014011106004+76483+016550FM-12+001099999V0203101N006019999999N999999999-00061-00331101041ADDKA1240N-00141MA1999990100931MD1210071+9990OD139901001999REMSYN06401020 46/// /3106 11006 21033 30093 40104 52007 333 21014 91110=
0089010200999992014011107004+76483+016550FM-12+001099999V0202801N004019999999N999999999-00111-00321101061ADDMA1999990100961MD1210061+9990REMSYN04801020 46/// /2804 11011 21032 30096 40106 52006=
0089010200999992014011108004+76483+016550FM-12+001099999V0202801N006019999999N999999999-00121-00311101101ADDMA1999990100991MD1210071+9990REMSYN04801020 46/// /2806 11012 21031 30099 40110 52007=
0089010200999992014011109004+76483+016550FM-12+001099999V0202601N006019999999N999999999-00111-00281101131ADDMA1999990101021MD1210091+9990REMSYN04801020 46/// /2606 11011 21028 30102 40113 52009=
0089010200999992014011110004+76483+016550FM-12+001099999V0202801N006019999999N999999999-00081-00351101151ADDMA1999990101041MD1210091+9990REMSYN04801020 46/// /2806 11008 21035 30104 40115 52009=
0089010200999992014011111004+76483+016550FM-12+001099999V0202801N007019999999N999999999-00081-00301101141ADDMA1999990101031MD1310041+9990REMSYN04801020 46/// /2807 11008 21030 30103 40114 53004=
0132010200999992014011112004+76483+016550FM-12+001099999V0202701N007019999999N999999999-00081-00271101141ADDMA1999990101031MD1290019+9990OD139901001999REMSYN05801020 46/// /2707 11008 21027 30103 40114 54001 333 91110=EQDQ01.1    3APC3  
0089010200999992014011113004+76483+016550FM-12+001099999V0203001N008019999999N999999999-00111-00241101151ADDMA1999990101051MD1900001+9990REMSYN04801020 46/// /3008 11011 21024 30105 40115 50000=
0108010200999992014011114004+76483+016550FM-12+001099999V0202801N007019999999N999999999-00091-00231101171ADDMA1999990101061MD1290039+9990REMSYN04801020 46/// /2807 11009 21023 30106 40117 54003=EQDQ01.3    3APC3  
0089010200999992014011115004+76483+016550FM-12+001099999V0202801N007019999999N999999999-00111-00211101171ADDMA1999990101061MD1210041+9990REMSYN04801020 46/// /2807 11011 21021 30106 40117 52004=
0108010200999992014011116004+76483+016550FM-12+001099999V0202801N007019999999N999999999-00071-00221101181ADDMA1999990101071MD1290039+9990REMSYN04801020 46/// /2807 11007 21022 30107 40118 54003=EQDQ01.3    3APC3  
0108010200999992014011117004+76483+016550FM-12+001099999V0202801N008019999999N999999999-00051-00231101181ADDMA1999990101071MD1290019+9990REMSYN04801020 46/// /2808 11005 21023 30107 40118 54001=EQDQ01.1    3APC3  
0151010200999992014011118004+76483+016550FM-12+001099999V0202901N009019999999N999999999-00051-00201101201ADDKA1120M-00031MA1999990101091MD1290039+9990OD139901101999REMSYN06401020 46/// /2909 11005 21020 30109 40120 54003 333 11003 91111=EQDQ01.3    3APC3  
0089010200999992014011119004+76483+016550FM-12+001099999V0202901N008019999999N999999999-00041-00251101231ADDMA1999990101131MD1110061+9990REMSYN04801020 46/// /2908 11004 21025 30113 40123 51006=
0089010200999992014011120004+76483+016550FM-12+001099999V0202901N009019999999N999999999-00031-00301101261ADDMA1999990101161MD1210081+9990REMSYN04801020 46/// /2909 11003 21030 30116 40126 52008=
0089010200999992014011121004+76483+016550FM-12+001099999V0202801N010019999999N999999999-00031-00311101271ADDMA1999990101171MD1210081+9990REMSYN04801020 46/// /2810 11003 21031 30117 40127 52008=
0089010200999992014011122004+76483+016550FM-12+001099999V0202901N009019999999N999999999-00031-00281101311ADDMA1999990101201MD1210071+9990REMSYN04801020 46/// /2909 11003 21028 30120 40131 52007=
0089010200999992014011123004+76483+016550FM-12+001099999V0202901N009019999999N999999999-00021-00361101331ADDMA1999990101231MD1210071+9990REMSYN04801020 46/// /2909 11002 21036 30123 40133 52007=
0113010200999992014011200004+76483+016550FM-12+001099999V0203001N013019999999N999999999-00041-00371101281ADDMA1999990101181MD1510011+9990OD139901601999REMSYN05801020 46/// /3013 11004 21037 30118 40128 55001 333 91116=
0089010200999992014011201004+76483+016550FM-12+001099999V0203001N012019999999N999999999-00051-00361101351ADDMA1999990101241MD1110051+9990REMSYN04801020 46/// /3012 11005 21036 30124 40135 51005=
0089010200999992014011202004+76483+016550FM-12+001099999V0203001N010019999999N999999999-00031-00371101421ADDMA1999990101311MD1900091+9990REMSYN04801020 46/// /3010 11003 21037 30131 40142 50009=
0089010200999992014011203004+76483+016550FM-12+001099999V0203001N012019999999N999999999-00061-00361101371ADDMA1999990101261MD1310091+9990REMSYN04801020 46/// /3012 11006 21036 30126 40137 53009=
0089010200999992014011204004+76483+016550FM-12+001099999V0203001N013019999999N999999999-00071-00351101381ADDMA1999990101281MD1310031+9990REMSYN04801020 46/// /3013 11007 21035 30128 40138 53003=
0089010200999992014011205004+76483+016550FM-12+001099999V0203001N012019999999N999999999-00071-00351101381ADDMA1999990101271MD1810051+9990REMSYN04801020 46/// /3012 11007 21035 30127 40138 58005=
0132010200999992014011206004+76483+016550FM-12+001099999V0203001N013019999999N999999999-00061-00361101411ADDKA1240N-00091MA1999990101301MD1210041+9990OD139901601999REMSYN06401020 46/// /3013 11006 21036 30130 40141 52004 333 21009 91116=
0089010200999992014011207004+76483+016550FM-12+001099999V0203101N014019999999N999999999-00051-00391101421ADDMA1999990101311MD1210041+9990REMSYN04801020 46/// /3114 11005 21039 30131 40142 52004=
0089010200999992014011208004+76483+016550FM-12+001099999V0203101N012019999999N999999999-00021-00381101511ADDMA1999990101401MD1110141+9990REMSYN04801020 46/// /3112 11002 21038 30140 40151 51014=
0089010200999992014011209004+76483+016550FM-12+001099999V0203101N010019999999N999999999-00021-00411101621ADDMA1999990101511MD1110211+9990REMSYN04801020 46/// /3110 11002 21041 30151 40162 51021=
0089010200999992014011210004+76483+016550FM-12+001099999V0203101N012019999999N999999999+00021-00481101631ADDMA1999990101521MD1310201+9990REMSYN04801020 46/// /3112 10002 21048 30152 40163 53020=
0089010200999992014011211004+76483+016550FM-12+001099999V0203101N010019999999N999999999-00021-00381101681ADDMA1999990101571MD1310161+9990REMSYN04801020 46/// /3110 11002 21038 30157 40168 53016=
0113010200999992014011212004+76483+016550FM-12+001099999V0203101N012019999999N999999999+00021-00521101651ADDMA1999990101551MD1210041+9990OD139901901999REMSYN05801020 46/// /3112 10002 21052 30155 40165 52004 333 91119=
0089010200999992014011213004+76483+016550FM-12+001099999V0203101N009019999999N999999999+00001-00391101711ADDMA1999990101601MD1210081+9990REMSYN04801020 46/// /3109 10000 21039 30160 40171 52008=
0108010200999992014011214004+76483+016550FM-12+001099999V0203101N013019999999N999999999-00021-00401101671ADDMA1999990101561MD1790019+9990REMSYN04801020 46/// /3113 11002 21040 30156 40167 54001=EQDQ01.1    3APC3  
0089010200999992014011215004+76483+016550FM-12+001099999V0203101N009019999999N999999999-00011-00401101701ADDMA1999990101591MD1210051+9990REMSYN04801020 46/// /3109 11001 21040 30159 40170 52005=
0089010200999992014011216004+76483+016550FM-12+001099999V0203101N008019999999N999999999-00061-00361101731ADDMA1999990101621MD1900021+9990REMSYN04801020 46/// /3108 11006 21036 30162 40173 50002=
0089010200999992014011217004+76483+016550FM-12+001099999V0203101N008019999999N999999999-00121-00401101731ADDMA1999990101621MD1310061+9990REMSYN04801020 46/// /3108 11012 21040 30162 40173 53006=
0132010200999992014011218004+76483+016550FM-12+001099999V0203101N006019999999N999999999-00191-00471101791ADDKA1120M+00031MA1999990101681MD1110081+9990OD139901501999REMSYN06401020 46/// /3106 11019 21047 30168 40179 51008 333 10003 91115=
0089010200999992014011219004+76483+016550FM-12+001099999V0203001N006019999999N999999999-00221-00451101791ADDMA1999990101681MD1210061+9990REMSYN04801020 46/// /3006 11022 21045 30168 40179 52006=
0089010200999992014011220004+76483+016550FM-12+001099999V0203101N007019999999N999999999-00241-00451101811ADDMA1999990101701MD1310081+9990REMSYN04801020 46/// /3107 11024 21045 30170 40181 53008=
0089010200999992014011221004+76483+016550FM-12+001099999V0203101N006019999999N999999999-00251-00431101831ADDMA1999990101721MD1210041+9990REMSYN04801020 46/// /3106 11025 21043 30172 40183 52004=
0089010200999992014011222004+76483+016550FM-12+001099999V0203101N006019999999N999999999-00281-00511101851ADDMA1999990101741MD1210061+9990REMSYN04801020 46/// /3106 11028 21051 30174 40185 52006=
0089010200999992014011223004+76483+016550FM-12+001099999V0203101N006019999999N999999999-00361-00641101871ADDMA1999990101761MD1210061+9990REMSYN04801020 46/// /3106 11036 21064 30176 40187 52006=
0113010200999992014011300004+76483+016550FM-12+001099999V0203101N005019999999N999999999-00281-00591101881ADDMA1999990101771MD1210051+9990OD139900801999REMSYN05801020 46/// /3105 11028 21059 30177 40188 52005 333 91108=
0089010200999992014011301004+76483+016550FM-12+001099999V0203201N006019999999N999999999-00261-00571101901ADDMA1999990101791MD1210051+9990REMSYN04801020 46/// /3206 11026 21057 30179 40190 52005=
0089010200999992014011303004+76483+016550FM-12+001099999V0203101N004019999999N999999999-00271-00501101971ADDMA1999990101861MD1210091+9990REMSYN04801020 46/// /3104 11027 21050 30186 40197 52009=
0089010200999992014011304004+76483+016550FM-12+001099999V0203101N004019999999N999999999-00271-00561102001ADDMA1999990101891MD1210101+9990REMSYN04801020 46/// /3104 11027 21056 30189 40200 52010=
0089010200999992014011305004+76483+016550FM-12+001099999V0203201N005019999999N999999999-00291-00661102011ADDMA1999990101901MD1210081+9990REMSYN04801020 46/// /3205 11029 21066 30190 40201 52008=
0132010200999992014011306004+76483+016550FM-12+001099999V0203301N004019999999N999999999-00321-00691102031ADDKA1240N-00411MA1999990101921MD1210061+9990OD139900601999REMSYN06401020 46/// /3304 11032 21069 30192 40203 52006 333 21041 91106=
0089010200999992014011307004+76483+016550FM-12+001099999V0203201N005019999999N999999999-00311-00631102051ADDMA1999990101941MD1210051+9990REMSYN04801020 46/// /3205 11031 21063 30194 40205 52005=
0089010200999992014011308004+76483+016550FM-12+001099999V0203301N005019999999N999999999-00391-00741102091ADDMA1999990101981MD1210081+9990REMSYN04801020 46/// /3305 11039 21074 30198 40209 52008=
0089010200999992014011309004+76483+016550FM-12+001099999V0203101N004019999999N999999999-00321-00631102131ADDMA1999990102021MD1210101+9990REMSYN04801020 46/// /3104 11032 21063 30202 40213 52010=
0089010200999992014011310004+76483+016550FM-12+001099999V0203301N004019999999N999999999-00361-00731102131ADDMA1999990102021MD1210081+9990REMSYN04801020 46/// /3304 11036 21073 30202 40213 52008=
0089010200999992014011311004+76483+016550FM-12+001099999V0203201N005019999999N999999999-00291-00641102131ADDMA1999990102021MD1310041+9990REMSYN04801020 46/// /3205 11029 21064 30202 40213 53004=
0132010200999992014011312004+76483+016550FM-12+001099999V0203101N004019999999N999999999-00361-00701102141ADDMA1999990102031MD1290019+9990OD139900601999REMSYN05801020 46/// /3104 11036 21070 30203 40214 54002 333 91106=EQDQ01.2    3APC3  
0108010200999992014011313004+76483+016550FM-12+001099999V0203101N004019999999N999999999-00311-00711102161ADDMA1999990102051MD1290039+9990REMSYN04801020 46/// /3104 11031 21071 30205 40216 54003=EQDQ01.3    3APC3  
0089010200999992014011314004+76483+016550FM-12+001099999V0203101N003019999999N999999999-00281-00571102161ADDMA1999990102051MD1210041+9990REMSYN04801020 46/// /3103 11028 21057 30205 40216 52004=
0108010200999992014011315004+76483+016550FM-12+001099999V0202801N002019999999N999999999-00161-00521102161ADDMA1999990102051MD1290029+9990REMSYN04801020 46/// /2802 11016 21052 30205 40216 54001=EQDQ01.1    3APC3  
0089010200999992014011316004+76483+016550FM-12+001099999V0203001N001019999999N999999999-00211-00531102161ADDMA1999990102051MD1410001+9990REMSYN04801020 46/// /3001 11021 21053 30205 40216 54000=
0108010200999992014011318004+76483+016550FM-12+001099999V0203101N003019999999N999999999-00211-00491102161ADDMA1999990102061MD1410009+9990REMSYN04801020 46/// /3103 11021 21049 30206 40216 54001=EQDQ01.1    3APC3  
0089010200999992014011319004+76483+016550FM-12+001099999V0203101N003019999999N999999999-00281-00541102171ADDMA1999990102061MD1410001+9990REMSYN04801020 46/// /3103 11028 21054 30206 40217 54000=
0094010200999992014011320004+76483+016550FM-12+001099999V0203501N002019999999N999999999-00281-00731102181ADDMA1999990102071REMSYN04801020 46/// /3502 11028 21073 30207 40218 54003=EQDQ014     3APCTEN
0108010200999992014011321004+76483+016550FM-12+001099999V0202801N002019999999N999999999-00261-00651102191ADDMA1999990102081MD1290039+9990REMSYN04801020 46/// /2802 11026 21065 30208 40219 54003=EQDQ01.3    3APC3  
0089010200999992014011322004+76483+016550FM-12+001099999V0202901N004019999999N999999999-00241-00561102201ADDMA1999990102091MD1210031+9990REMSYN04801020 46/// /2904 11024 21056 30209 40220 52003=
0108010200999992014011323004+76483+016550FM-12+001099999V0203101N005019999999N999999999-00341-00591102201ADDMA1999990102091MD1290029+9990REMSYN04801020 46/// /3105 11034 21059 30209 40220 54002=EQDQ01.2    3APC3  
0132010200999992014011400004+76483+016550FM-12+001099999V0203201N005019999999N999999999-00361-00591102211ADDMA1999990102101MD1290029+9990OD139900601999REMSYN05801020 46/// /3205 11036 21059 30210 40221 54002 333 91106=EQDQ01.2    3APC3  
0089010200999992014011401004+76483+016550FM-12+001099999V0203401N004019999999N999999999-00541-00771102231ADDMA1999990102121MD1210031+9990REMSYN04801020 46/// /3404 11054 21077 30212 40223 52003=
0089010200999992014011402004+76483+016550FM-12+001099999V0200501N003019999999N999999999-00441-00551102271ADDMA1999990102161MD1210071+9990REMSYN04801020 46/// /0503 11044 21055 30216 40227 52007=
0089010200999992014011403004+76483+016550FM-12+001099999V0200501N004019999999N999999999-00401-00671102291ADDMA1999990102181MD1210081+9990REMSYN04801020 46/// /0504 11040 21067 30218 40229 52008=
0089010200999992014011404004+76483+016550FM-12+001099999V0200501N006019999999N999999999-00391-00741102311ADDMA1999990102201MD1210081+9990REMSYN04801020 46/// /0506 11039 21074 30220 40231 52008=
0089010200999992014011405004+76483+016550FM-12+001099999V0200301N007019999999N999999999-00501-00821102341ADDMA1999990102231MD1210071+9990REMSYN04801020 46/// /0307 11050 21082 30223 40234 52007=
0132010200999992014011406004+76483+016550FM-12+001099999V0200401N009019999999N999999999-00481-00711102371ADDKA1240N-00621MA1999990102261MD1210081+9990OD139901001999REMSYN06401020 46/// /0409 11048 21071 30226 40237 52008 333 21062 91110=
0089010200999992014011407004+76483+016550FM-12+001099999V0200401N008019999999N999999999-00501-00641102411ADDMA1999990102301MD1210101+9990REMSYN04801020 46/// /0408 11050 21064 30230 40241 52010=
0089010200999992014011408004+76483+016550FM-12+001099999V0200401N009019999999N999999999-00401-00521102451ADDMA1999990102341MD1210121+9990REMSYN04801020 46/// /0409 11040 21052 30234 40245 52012=
0089010200999992014011409004+76483+016550FM-12+001099999V0200401N008019999999N999999999-00411-00521102491ADDMA1999990102381MD1210121+9990REMSYN04801020 46/// /0408 11041 21052 30238 40249 52012=
0089010200999992014011410004+76483+016550FM-12+001099999V0200701N007019999999N999999999-00271-00561102491ADDMA1999990102381MD1310091+9990REMSYN04801020 46/// /0707 11027 21056 30238 40249 53009=
0089010200999992014011411004+76483+016550FM-12+001099999V0200601N006019999999N999999999-00391-00591102521ADDMA1999990102411MD1210061+9990REMSYN04801020 46/// /0606 11039 21059 30241 40252 52006=
0113010200999992014011412004+76483+016550FM-12+001099999V0200701N006019999999N999999999-00341-00571102521ADDMA1999990102411MD1210031+9990OD139901101999REMSYN05801020 46/// /0706 11034 21057 30241 40252 52003 333 91111=
0108010200999992014011413004+76483+016550FM-12+001099999V0200701N005019999999N999999999-00341-00541102521ADDMA1999990102411MD1290039+9990REMSYN04801020 46/// /0705 11034 21054 30241 40252 54003=EQDQ01.3    3APC3  
0089010200999992014011414004+76483+016550FM-12+001099999V0200601N006019999999N999999999-00321-00551102511ADDMA1999990102401MD1410001+9990REMSYN04801020 46/// /0606 11032 21055 30240 40251 54000=
0108010200999992014011415004+76483+016550FM-12+001099999V0200601N006019999999N999999999-00321-00551102521ADDMA1999990102411MD1410009+9990REMSYN04801020 46/// /0606 11032 21055 30241 40252 54001=EQDQ01.1    3APC3  
0108010200999992014011416004+76483+016550FM-12+001099999V0200501N006019999999N999999999-00401-00561102541ADDMA1999990102431MD1290029+9990REMSYN04801020 46/// /0506 11040 21056 30243 40254 54002=EQDQ01.2    3APC3  
0089010200999992014011417004+76483+016550FM-12+001099999V0201001N003019999999N999999999-00301-00491102551ADDMA1999990102441MD1210041+9990REMSYN04801020 46/// /1003 11030 21049 30244 40255 52004=
0132010200999992014011418004+76483+016550FM-12+001099999V0200901N004019999999N999999999-00291-00521102531ADDKA1120M-00271MA1999990102421MD1510001+9990OD139900801999REMSYN06401020 46/// /0904 11029 21052 30242 40253 55000 333 11027 91108=
0089010200999992014011419004+76483+016550FM-12+001099999V0200901N005019999999N999999999-00281-00501102511ADDMA1999990102401MD1710031+9990REMSYN04801020 46/// /0905 11028 21050 30240 40251 57003=
0089010200999992014011420004+76483+016550FM-12+001099999V0200901N005019999999N999999999-00261-00511102491ADDMA1999990102381MD1710061+9990REMSYN04801020 46/// /0905 11026 21051 30238 40249 57006=
0089010200999992014011421004+76483+016550FM-12+001099999V0201201N005019999999N999999999-00241-00421102491ADDMA1999990102381MD1710031+9990REMSYN04801020 46/// /1205 11024 21042 30238 40249 57003=
0108010200999992014011422004+76483+016550FM-12+001099999V0201601N004019999999N999999999-00231-00521102481ADDMA1999990102371MD1790039+9990REMSYN04801020 46/// /1604 11023 21052 30237 40248 54002=EQDQ01.2    3APC3  
0089010200999992014011423004+76483+016550FM-12+001099999V0201401N006019999999N999999999-00231-00541102461ADDMA1999990102351MD1710041+9990REMSYN04801020 46/// /1406 11023 21054 30235 40246 57004=
0113010200999992014011500004+76483+016550FM-12+001099999V0201301N005019999999N999999999-00201-00451102431ADDMA1999990102321MD1710071+9990OD139900801999REMSYN05801020 46/// /1305 11020 21045 30232 40243 57007 333 91108=
0089010200999992014011501004+76483+016550FM-12+001099999V0201401N005019999999N999999999-00181-00461102411ADDMA1999990102301MD1710071+9990REMSYN04801020 46/// /1405 11018 21046 30230 40241 57007=
0089010200999992014011502004+76483+016550FM-12+001099999V0201201N005019999999N999999999-00211-00301102391ADDMA1999990102291MD1710061+9990REMSYN04801020 46/// /1205 11021 21030 30229 40239 57006=
0089010200999992014011503004+76483+016550FM-12+001099999V0201301N005019999999N999999999-00181-00321102341ADDMA1999990102231MD1610091+9990REMSYN04801020 46/// /1305 11018 21032 30223 40234 56009=
0089010200999992014011504004+76483+016550FM-12+001099999V0201401N007019999999N999999999-00141-00281102291ADDMA1999990102181MD1710121+9990REMSYN04801020 46/// /1407 11014 21028 30218 40229 57012=
0089010200999992014011505004+76483+016550FM-12+001099999V0201401N007019999999N999999999-00071-00261102251ADDMA1999990102151MD1710141+9990REMSYN04801020 46/// /1407 11007 21026 30215 40225 57014=
0132010200999992014011506004+76483+016550FM-12+001099999V0201501N007019999999N999999999-00031-00271102201ADDKA1240N-00331MA1999990102091MD1710141+9990OD139900901999REMSYN06401020 46/// /1507 11003 21027 30209 40220 57014 333 21033 91109=
0089010200999992014011507004+76483+016550FM-12+001099999V0201601N009019999999N999999999-00011-00281102191ADDMA1999990102081MD1710101+9990REMSYN04801020 46/// /1609 11001 21028 30208 40219 57010=
0089010200999992014011508004+76483+016550FM-12+001099999V0201601N009019999999N999999999-00011-00251102201ADDMA1999990102091MD1810051+9990REMSYN04801020 46/// /1609 11001 21025 30209 40220 58005=
0108010200999992014011509004+76483+016550FM-12+001099999V0201701N008019999999N999999999+00001-00151102181ADDMA1999990102071MD1790029+9990REMSYN04801020 46/// /1708 10000 21015 30207 40218 54002=EQDQ01.2    3APC3  
0108010200999992014011510004+76483+016550FM-12+001099999V0201801N010019999999N999999999+00011-00121102181ADDMA1999990102071MD1790019+9990REMSYN04801020 46/// /1810 10001 21012 30207 40218 54001=EQDQ01.1    3APC3  
0089010200999992014011511004+76483+016550FM-12+001099999V0201701N010019999999N999999999-00031-00101102171ADDMA1999990102061MD1710031+9990REMSYN04801020 46/// /1710 11003 21010 30206 40217 57003=
0132010200999992014011512004+76483+016550FM-12+001099999V0201701N008019999999N999999999-00021-00071102161ADDMA1999990102051MD1790029+9990OD139901301999REMSYN05801020 46/// /1708 11002 21007 30205 40216 54002 333 91113=EQDQ01.2    3APC3  
0089010200999992014011513004+76483+016550FM-12+001099999V0201801N006019999999N999999999+00001-00041102141ADDMA1999990102031MD1710041+9990REMSYN04801020 46/// /1806 10000 21004 30203 40214 57004=
0108010200999992014011514004+76483+016550FM-12+001099999V0202201N006019999999N999999999+00011-00051102151ADDMA1999990102041MD1790029+9990REMSYN04801020 46/// /2206 10001 21005 30204 40215 54002=EQDQ01.2    3APC3  
0089010200999992014011515004+76483+016550FM-12+001099999V0201901N006019999999N999999999-00031-00091102111ADDMA1999990102011MD1710051+9990REMSYN04801020 46/// /1906 11003 21009 30201 40211 57005=
0108010200999992014011516004+76483+016550FM-12+001099999V0202201N004019999999N999999999+00001-00091102121ADDMA1999990102021MD1790029+9990REMSYN04801020 46/// /2204 10000 21009 30202 40212 54002=EQDQ01.2    3APC3  
0089010200999992014011517004+76483+016550FM-12+001099999V0202401N003019999999N999999999+00011-00061102121ADDMA1999990102011MD1900021+9990REMSYN04801020 46/// /2403 10001 21006 30201 40212 50002=
0132010200999992014011518004+76483+016550FM-12+001099999V0202401N002019999999N999999999+00021-00081102121ADDKA1120M+00061MA1999990102011MD1410001+9990OD139900901999REMSYN06401020 46/// /2402 10002 21008 30201 40212 54000 333 10006 91109=
0108010200999992014011519004+76483+016550FM-12+001099999V0202201N003019999999N999999999-00051-00151102101ADDMA1999990101991MD1790029+9990REMSYN04801020 46/// /2203 11005 21015 30199 40210 54002=EQDQ01.2    3APC3  
0108010200999992014011520004+76483+016550FM-12+001099999V0202101N002019999999N999999999-00041-00111102101ADDMA1999990102001MD1790029+9990REMSYN04801020 46/// /2102 11004 21011 30200 40210 54002=EQDQ01.2    3APC3  
0089010200999992014011521004+76483+016550FM-12+001099999V0202501N004019999999N999999999-00021-00081102121ADDMA1999990102011MD1410001+9990REMSYN04801020 46/// /2504 11002 21008 30201 40212 54000=
0089010200999992014011522004+76483+016550FM-12+001099999V0202301N003019999999N999999999+00001-00041102101ADDMA1999990101991MD1410001+9990REMSYN04801020 46/// /2303 10000 21004 30199 40210 54000=
0089010200999992014011523004+76483+016550FM-12+001099999V0202301N003019999999N999999999-00021-00061102111ADDMA1999990102001MD1410001+9990REMSYN04801020 46/// /2303 11002 21006 30200 40211 54000=
0132010200999992014011600004+76483+016550FM-12+001099999V0202001N003019999999N999999999-00051-00111102111ADDMA1999990102001MD1790019+9990OD139900901999REMSYN05801020 46/// /2003 11005 21011 30200 40211 54001 333 91109=EQDQ01.1    3APC3  
0089010200999992014011601004+76483+016550FM-12+001099999V0202201N004019999999N999999999-00011-00061102081ADDMA1999990101971MD1510021+9990REMSYN04801020 46/// /2204 11001 21006 30197 40208 55002=
0089010200999992014011602004+76483+016550FM-12+001099999V0201901N003019999999N999999999-00011-00101102051ADDMA1999990101941MD1610061+9990REMSYN04801020 46/// /1903 11001 21010 30194 40205 56006=
0089010200999992014011603004+76483+016550FM-12+001099999V0201801N004019999999N999999999+00001-00041102051ADDMA1999990101951MD1810061+9990REMSYN04801020 46/// /1804 10000 21004 30195 40205 58006=
0089010200999992014011604004+76483+016550FM-12+001099999V0201701N001019999999N999999999+00011-00051102041ADDMA1999990101931MD1710051+9990REMSYN04801020 46/// /1701 10001 21005 30193 40204 57005=
0089010200999992014011605004+76483+016550FM-12+001099999V0201201N003019999999N999999999-00111-00161102001ADDMA1999990101901MD1610041+9990REMSYN04801020 46/// /1203 11011 21016 30190 40200 56004=
0132010200999992014011606004+76483+016550FM-12+001099999V0202101N005019999999N999999999-00041-00081101971ADDKA1240N-00121MA1999990101861MD1710091+9990OD139900601999REMSYN06401020 46/// /2105 11004 21008 30186 40197 57009 333 21012 91106=
0089010200999992014011607004+76483+016550FM-12+001099999V0201801N002019999999N999999999-00031-00071101941ADDMA1999990101831MD1710101+9990REMSYN04801020 46/// /1802 11003 21007 30183 40194 57010=
0089010200999992014011608004+76483+016550FM-12+001099999V0201301N002019999999N999999999-00271-00321101941ADDMA1999990101831MD1810061+9990REMSYN04801020 46/// /1302 11027 21032 30183 40194 58006=
0089010200999992014011609004+76483+016550FM-12+001099999V0201701N005019999999N999999999-00061-00151101931ADDMA1999990101821MD1710041+9990REMSYN04801020 46/// /1705 11006 21015 30182 40193 57004=
0108010200999992014011610004+76483+016550FM-12+001099999V0201901N002019999999N999999999-00031-00051101931ADDMA1999990101821MD1790019+9990REMSYN04801020 46/// /1902 11003 21005 30182 40193 54001=EQDQ01.1    3APC3  
0089010200999992014011611004+76483+016550FM-12+001099999V0202001N003019999999N999999999-00021-00091101891ADDMA1999990101781MD1610061+9990REMSYN04801020 46/// /2003 11002 21009 30178 40189 56006=
0113010200999992014011612004+76483+016550FM-12+001099999V0201901N005019999999N999999999-00041-00151101861ADDMA1999990101751MD1710081+9990OD139900901999REMSYN05801020 46/// /1905 11004 21015 30175 40186 57008 333 91109=
0089010200999992014011613004+76483+016550FM-12+001099999V0202101N005019999999N999999999-00021-00121101831ADDMA1999990101721MD1710101+9990REMSYN04801020 46/// /2105 11002 21012 30172 40183 57010=
0089010200999992014011614004+76483+016550FM-12+001099999V0202201N005019999999N999999999+00011-00151101781ADDMA1999990101681MD1710101+9990REMSYN04801020 46/// /2205 10001 21015 30168 40178 57010=
0089010200999992014011615004+76483+016550FM-12+001099999V0202301N006019999999N999999999-00031-00141101741ADDMA1999990101631MD1710111+9990REMSYN04801020 46/// /2306 11003 21014 30163 40174 57011=
0089010200999992014011616004+76483+016550FM-12+001099999V0202401N006019999999N999999999-00011-00181101721ADDMA1999990101611MD1710111+9990REMSYN04801020 46/// /2406 11001 21018 30161 40172 57011=
0089010200999992014011618004+76483+016550FM-12+001099999V0202301N006019999999N999999999-00031-00161101681ADDMA1999990101571MD1710071+9990REMSYN04801020 46/// /2306 11003 21016 30157 40168 57007=
0089010200999992014011619004+76483+016550FM-12+001099999V0202301N005019999999N999999999+00001-00171101661ADDMA1999990101551MD1710061+9990REMSYN04801020 46/// /2305 10000 21017 30155 40166 57006=
0089010200999992014011620004+76483+016550FM-12+001099999V0202401N006019999999N999999999-00021-00171101651ADDMA1999990101541MD1710051+9990REMSYN04801020 46/// /2406 11002 21017 30154 40165 57005=
0089010200999992014011621004+76483+016550FM-12+001099999V0202201N006019999999N999999999+00021-00221101641ADDMA1999990101531MD1710031+9990REMSYN04801020 46/// /2206 10002 21022 30153 40164 57003=
0108010200999992014011622004+76483+016550FM-12+001099999V0202101N006019999999N999999999-00021-00131101651ADDMA1999990101541MD1790019+9990REMSYN04801020 46/// /2106 11002 21013 30154 40165 54001=EQDQ01.1    3APC3  
0108010200999992014011623004+76483+016550FM-12+001099999V0202201N008019999999N999999999-00041-00091101631ADDMA1999990101521MD1790029+9990REMSYN04801020 46/// /2208 11004 21009 30152 40163 54002=EQDQ01.2    3APC3  
0132010200999992014011700004+76483+016550FM-12+001099999V0202201N008019999999N999999999-00031-00071101621ADDMA1999990101521MD1790029+9990OD139901001999REMSYN05801020 46/// /2208 11003 21007 30152 40162 54002 333 91110=EQDQ01.2    3APC3  
0108010200999992014011701004+76483+016550FM-12+001099999V0202501N009019999999N999999999-00021-00071101631ADDMA1999990101521MD1790029+9990REMSYN04801020 46/// /2509 11002 21007 30152 40163 54002=EQDQ01.2    3APC3  
0108010200999992014011702004+76483+016550FM-12+001099999V0202501N010019999999N999999999-00011-00121101611ADDMA1999990101501MD1790029+9990REMSYN04801020 46/// /2510 11001 21012 30150 40161 54003=EQDQ01.3    3APC3  
0108010200999992014011703004+76483+016550FM-12+001099999V0202401N006019999999N999999999+00021-00111101601ADDMA1999990101501MD1790029+9990REMSYN04801020 46/// /2406 10002 21011 30150 40160 54002=EQDQ01.2    3APC3  
0089010200999992014011704004+76483+016550FM-12+001099999V0202101N011019999999N999999999+00061-00191101581ADDMA1999990101471MD1710051+9990REMSYN04801020 46/// /2111 10006 21019 30147 40158 57005=
0108010200999992014011705004+76483+016550FM-12+001099999V0202301N009019999999N999999999+00091-00321101581ADDMA1999990101471MD1790039+9990REMSYN04801020 46/// /2309 10009 21032 30147 40158 54002=EQDQ01.2    3APC3  
0151010200999992014011706004+76483+016550FM-12+001099999V0202401N007019999999N999999999+00061-00231101591ADDKA1240N-00061MA1999990101481MD1790019+9990OD139901201999REMSYN06401020 46/// /2407 10006 21023 30148 40159 54002 333 21006 91112=EQDQ01.2    3APC3  
0108010200999992014011707004+76483+016550FM-12+001099999V0202201N009019999999N999999999+00111-00301101561ADDMA1999990101451MD1790029+9990REMSYN04801020 46/// /2209 10011 21030 30145 40156 54002=EQDQ01.2    3APC3  
0089010200999992014011708004+76483+016550FM-12+001099999V0202301N009019999999N999999999+00031-00291101581ADDMA1999990101471MD1410001+9990REMSYN04801020 46/// /2309 10003 21029 30147 40158 54000=
0089010200999992014011709004+76483+016550FM-12+001099999V0202201N007019999999N999999999+00031-00241101611ADDMA1999990101501MD1900021+9990REMSYN04801020 46/// /2207 10003 21024 30150 40161 50002=
0089010200999992014011710004+76483+016550FM-12+001099999V0202001N008019999999N999999999-00031-00121101631ADDMA1999990101531MD1210071+9990REMSYN04801020 46/// /2008 11003 21012 30153 40163 52007=
0089010200999992014011711004+76483+016550FM-12+001099999V0202501N008019999999N999999999-00021-00191101611ADDMA1999990101511MD1310031+9990REMSYN04801020 46/// /2508 11002 21019 30151 40161 53003=
0132010200999992014011712004+76483+016550FM-12+001099999V0202301N006019999999N999999999-00011-00141101631ADDMA1999990101521MD1290029+9990OD139901301999REMSYN05801020 46/// /2306 11001 21014 30152 40163 54001 333 91113=EQDQ01.1    3APC3  
0089010200999992014011713004+76483+016550FM-12+001099999V0202501N007019999999N999999999+00041-00281101591ADDMA1999990101481MD1710051+9990REMSYN04801020 46/// /2507 10004 21028 30148 40159 57005=
0108010200999992014011714004+76483+016550FM-12+001099999V0202501N010019999999N999999999-00031-00201101591ADDMA1999990101481MD1790029+9990REMSYN04801020 46/// /2510 11003 21020 30148 40159 54003=EQDQ01.3    3APC3  
0089010200999992014011715004+76483+016550FM-12+001099999V0202101N006019999999N999999999+00001-00201101571ADDMA1999990101461MD1710051+9990REMSYN04801020 46/// /2106 10000 21020 30146 40157 57005=
0108010200999992014011716004+76483+016550FM-12+001099999V0202301N008019999999N999999999+00041-00171101561ADDMA1999990101451MD1790039+9990REMSYN04801020 46/// /2308 10004 21017 30145 40156 54003=EQDQ01.3    3APC3  
0089010200999992014011717004+76483+016550FM-12+001099999V0202201N006019999999N999999999+00081-00211101561ADDMA1999990101451MD1710031+9990REMSYN04801020 46/// /2206 10008 21021 30145 40156 57003=
0132010200999992014011718004+76483+016550FM-12+001099999V0202601N007019999999N999999999-00051-00121101591ADDKA1120M+00131MA1999990101481MD1900011+9990OD139901301999REMSYN06401020 46/// /2607 11005 21012 30148 40159 50001 333 10013 91113=
0089010200999992014011719004+76483+016550FM-12+001099999V0202401N009019999999N999999999-00021-00131101551ADDMA1999990101441MD1510011+9990REMSYN04801020 46/// /2409 11002 21013 30144 40155 55001=
0108010200999992014011720004+76483+016550FM-12+001099999V0202701N006019999999N999999999+00061-00151101571ADDMA1999990101461MD1290019+9990REMSYN04801020 46/// /2706 10006 21015 30146 40157 54001=EQDQ01.1    3APC3  
0089010200999992014011721004+76483+016550FM-12+001099999V0202501N009019999999N999999999-00021-00071101581ADDMA1999990101481MD1900001+9990REMSYN04801020 46/// /2509 11002 21007 30148 40158 50000=
0089010200999992014011722004+76483+016550FM-12+001099999V0202301N006019999999N999999999-00021-00131101581ADDMA1999990101481MD1210041+9990REMSYN04801020 46/// /2306 11002 21013 30148 40158 52004=
0108010200999992014011723004+76483+016550FM-12+001099999V0202101N008019999999N999999999+00001-00051101571ADDMA1999990101471MD1410009+9990REMSYN04801020 46/// /2108 10000 21005 30147 40157 54001=EQDQ01.1    3APC3  
0132010200999992014011800004+76483+016550FM-12+001099999V0202001N009019999999N999999999+00021-00091101561ADDMA1999990101461MD1790029+9990OD139901301999REMSYN05801020 46/// /2009 10002 21009 30146 40156 54002 333 91113=EQDQ01.2    3APC3  
0108010200999992014011801004+76483+016550FM-12+001099999V0202301N008019999999N999999999+00111-00111101551ADDMA1999990101451MD1790039+9990REMSYN04801020 46/// /2308 10011 21011 30145 40155 54003=EQDQ01.3    3APC3  
0108010200999992014011802004+76483+016550FM-12+001099999V0202301N010019999999N999999999+00071-00101101561ADDMA1999990101451MD1790019+9990REMSYN04801020 46/// /2310 10007 21010 30145 40156 54001=EQDQ01.1    3APC3  
0108010200999992014011803004+76483+016550FM-12+001099999V0202001N007019999999N999999999+00051-00081101551ADDMA1999990101441MD1790019+9990REMSYN04801020 46/// /2007 10005 21008 30144 40155 54001=EQDQ01.1    3APC3  
0089010200999992014011804004+76483+016550FM-12+001099999V0202201N007019999999N999999999+00081-00191101551ADDMA1999990101441MD1410001+9990REMSYN04801020 46/// /2207 10008 21019 30144 40155 54000=
0089010200999992014011805004+76483+016550FM-12+001099999V0202601N008019999999N999999999+00051-00191101521ADDMA1999990101421MD1710031+9990REMSYN04801020 46/// /2608 10005 21019 30142 40152 57003=
0132010200999992014011806004+76483+016550FM-12+001099999V0202401N008019999999N999999999+00111-00151101521ADDKA1240N-00051MA1999990101411MD1710031+9990OD139901501999REMSYN06401020 46/// /2408 10011 21015 30141 40152 57003 333 21005 91115=
0089010200999992014011807004+76483+016550FM-12+001099999V0202301N008019999999N999999999+00121-00241101521ADDMA1999990101411MD1710031+9990REMSYN04801020 46/// /2308 10012 21024 30141 40152 57003=
0108010200999992014011808004+76483+016550FM-12+001099999V0202301N011019999999N999999999+00171-00191101501ADDMA1999990101391MD1790029+9990REMSYN04801020 46/// /2311 10017 21019 30139 40150 54002=EQDQ01.2    3APC3  
0089010200999992014011809004+76483+016550FM-12+001099999V0202501N012019999999N999999999-00021-00091101571ADDMA1999990101471MD1110061+9990REMSYN04801020 46/// /2512 11002 21009 30147 40157 51006=
0089010200999992014011810004+76483+016550FM-12+001099999V0202301N009019999999N999999999+00121-00071101551ADDMA1999990101441MD1210031+9990REMSYN04801020 46/// /2309 10012 21007 30144 40155 52003=
0089010200999992014011811004+76483+016550FM-12+001099999V0202501N008019999999N999999999+00111-00081101561ADDMA1999990101451MD1310061+9990REMSYN04801020 46/// /2508 10011 21008 30145 40156 53006=
0118010200999992014011812004+76483+016550FM-12+001099999V0202501N008019999999N999999999+00091-00011101561ADDMA1999990101451OD139901401999REMSYN05801020 46/// /2508 10009 21001 30145 40156 54001 333 91114=EQDQ014     3APCTEN
0089010200999992014011813004+76483+016550FM-12+001099999V0202501N009019999999N999999999+00151-00091101551ADDMA1999990101451MD1410001+9990REMSYN04801020 46/// /2509 10015 21009 30145 40155 54000=
0108010200999992014011814004+76483+016550FM-12+001099999V0202601N011019999999N999999999+00151-00061101571ADDMA1999990101461MD1290019+9990REMSYN04801020 46/// /2611 10015 21006 30146 40157 54001=EQDQ01.1    3APC3  
0089010200999992014011815004+76483+016550FM-12+001099999V0202601N011019999999N999999999+00131+00001101591ADDMA1999990101491MD1110031+9990REMSYN04801020 46/// /2611 10013 21000 30149 40159 51003=
0089010200999992014011816004+76483+016550FM-12+001099999V0202801N004019999999N999999999-00031-00051101681ADDMA1999990101571MD1110121+9990REMSYN04801020 46/// /2804 11003 21005 30157 40168 51012=
0089010200999992014011817004+76483+016550FM-12+001099999V0202901N008019999999N999999999-00081-00181101691ADDMA1999990101581MD1210121+9990REMSYN04801020 46/// /2908 11008 21018 30158 40169 52012=
0132010200999992014011818004+76483+016550FM-12+001099999V0202901N009019999999N999999999-00081-00291101731ADDKA1120M+00191MA1999990101621MD1310141+9990OD139901401999REMSYN06401020 46/// /2909 11008 21029 30162 40173 53014 333 10019 91114=
0089010200999992014011819004+76483+016550FM-12+001099999V0202901N010019999999N999999999-00141-00441101761ADDMA1999990101651MD1210081+9990REMSYN04801020 46/// /2910 11014 21044 30165 40176 52008=
0089010200999992014011820004+76483+016550FM-12+001099999V0202901N011019999999N999999999-00171-00451101821ADDMA1999990101711MD1210131+9990REMSYN04801020 46/// /2911 11017 21045 30171 40182 52013=
0089010200999992014011821004+76483+016550FM-12+001099999V0202901N010019999999N999999999-00221-00511101891ADDMA1999990101781MD1110161+9990REMSYN04801020 46/// /2910 11022 21051 30178 40189 51016=
0089010200999992014011822004+76483+016550FM-12+001099999V0202901N009019999999N999999999-00231-00481101951ADDMA1999990101841MD1210191+9990REMSYN04801020 46/// /2909 11023 21048 30184 40195 52019=
0089010200999992014011823004+76483+016550FM-12+001099999V0203001N009019999999N999999999-00271-00501101971ADDMA1999990101861MD1310151+9990REMSYN04801020 46/// /3009 11027 21050 30186 40197 53015=
0113010200999992014011900004+76483+016550FM-12+001099999V0203201N006019999999N999999999-00481-00641102021ADDMA1999990101911MD1210121+9990OD139901301999REMSYN05801020 46/// /3206 11048 21064 30191 40202 52012 333 91113=
0089010200999992014011901004+76483+016550FM-12+001099999V0203101N006019999999N999999999-00401-00581102051ADDMA1999990101941MD1210101+9990REMSYN04801020 46/// /3106 11040 21058 30194 40205 52010=
0089010200999992014011902004+76483+016550FM-12+001099999V0203101N006019999999N999999999-00381-00581102071ADDMA1999990101961MD1210101+9990REMSYN04801020 46/// /3106 11038 21058 30196 40207 52010=
0089010200999992014011903004+76483+016550FM-12+001099999V0203101N006019999999N999999999-00381-00601102081ADDMA1999990101971MD1210061+9990REMSYN04801020 46/// /3106 11038 21060 30197 40208 52006=
0089010200999992014011904004+76483+016550FM-12+001099999V0203101N006019999999N999999999-00411-00641102101ADDMA1999990101991MD1210051+9990REMSYN04801020 46/// /3106 11041 21064 30199 40210 52005=
0089010200999992014011905004+76483+016550FM-12+001099999V0203201N005019999999N999999999-00421-00621102111ADDMA1999990102001MD1210041+9990REMSYN04801020 46/// /3205 11042 21062 30200 40211 52004=
0132010200999992014011906004+76483+016550FM-12+001099999V0203101N005019999999N999999999-00411-00641102111ADDKA1240N-00531MA1999990102001MD1210041+9990OD139900801999REMSYN06401020 46/// /3105 11041 21064 30200 40211 52004 333 21053 91108=
0089010200999992014011907004+76483+016550FM-12+001099999V0203101N004019999999N999999999-00401-00601102151ADDMA1999990102041MD1210051+9990REMSYN04801020 46/// /3104 11040 21060 30204 40215 52005=
0089010200999992014011908004+76483+016550FM-12+001099999V0203101N004019999999N999999999-00321-00541102151ADDMA1999990102041MD1210041+9990REMSYN04801020 46/// /3104 11032 21054 30204 40215 52004=
0089010200999992014011909004+76483+016550FM-12+001099999V0203201N002019999999N999999999-00401-00561102181ADDMA1999990102071MD1210071+9990REMSYN04801020 46/// /3202 11040 21056 30207 40218 52007=
0089010200999992014011910004+76483+016550FM-12+001099999V0203001N001019999999N999999999-00351-00491102211ADDMA1999990102101MD1210061+9990REMSYN04801020 46/// /3001 11035 21049 30210 40221 52006=
0089010200999992014011911004+76483+016550FM-12+001099999V0203101N001019999999N999999999-00341-00461102221ADDMA1999990102111MD1210061+9990REMSYN04801020 46/// /3101 11034 21046 30211 40222 52006=
0113010200999992014011912004+76483+016550FM-12+001099999V0203101N002019999999N999999999-00301-00481102211ADDMA1999990102101MD1510031+9990OD139900601999REMSYN05801020 46/// /3102 11030 21048 30210 40221 55003 333 91106=
0108010200999992014011913004+76483+016550FM-12+001099999V0201901N003019999999N999999999-00171-00411102221ADDMA1999990102121MD1290019+9990REMSYN04801020 46/// /1903 11017 21041 30212 40222 54002=EQDQ01.2    3APC3  
0108010200999992014011914004+76483+016550FM-12+001099999V0201801N002019999999N999999999-00141-00351102201ADDMA1999990102091MD1790029+9990REMSYN04801020 46/// /1802 11014 21035 30209 40220 54002=EQDQ01.2    3APC3  
0089010200999992014011915004+76483+016550FM-12+001099999V0200501N004019999999N999999999-00321-00501102191ADDMA1999990102081MD1510021+9990REMSYN04801020 46/// /0504 11032 21050 30208 40219 55002=
0089010200999992014011916004+76483+016550FM-12+001099999V0200501N006019999999N999999999-00371-00431102191ADDMA1999990102081MD1710041+9990REMSYN04801020 46/// /0506 11037 21043 30208 40219 57004=
0108010200999992014011918004+76483+016550FM-12+001099999V0200601N007019999999N999999999-00401-00511102161ADDMA1999990102051MD1790039+9990REMSYN04801020 46/// /0607 11040 21051 30205 40216 54002=EQDQ01.2    3APC3  
0089010200999992014011919004+76483+016550FM-12+001099999V0200601N006019999999N999999999-00381-00521102191ADDMA1999990102081MD1410001+9990REMSYN04801020 46/// /0606 11038 21052 30208 40219 54000=
0089010200999992014011920004+76483+016550FM-12+001099999V0200601N006019999999N999999999-00391-00511102201ADDMA1999990102091MD1900011+9990REMSYN04801020 46/// /0606 11039 21051 30209 40220 50001=
0089010200999992014011921004+76483+016550FM-12+001099999V0200501N007019999999N999999999-00391-00531102201ADDMA1999990102091MD1210031+9990REMSYN04801020 46/// /0507 11039 21053 30209 40220 52003=
0089010200999992014011922004+76483+016550FM-12+001099999V0200501N007019999999N999999999-00381-00501102191ADDMA1999990102081MD1410001+9990REMSYN04801020 46/// /0507 11038 21050 30208 40219 54000=
0089010200999992014011923004+76483+016550FM-12+001099999V0200601N007019999999N999999999-00401-00511102201ADDMA1999990102091MD1410001+9990REMSYN04801020 46/// /0607 11040 21051 30209 40220 54000=
0113010200999992014012000004+76483+016550FM-12+001099999V0200601N006019999999N999999999-00381-00491102231ADDMA1999990102121MD1900031+9990OD139900801999REMSYN05801020 46/// /0606 11038 21049 30212 40223 50003 333 91108=
0089010200999992014012001004+76483+016550FM-12+001099999V0200501N008019999999N999999999-00381-00471102181ADDMA1999990102071MD1510011+9990REMSYN04801020 46/// /0508 11038 21047 30207 40218 55001=
0089010200999992014012002004+76483+016550FM-12+001099999V0200501N008019999999N999999999-00391-00481102161ADDMA1999990102051MD1610041+9990REMSYN04801020 46/// /0508 11039 21048 30205 40216 56004=
0089010200999992014012003004+76483+016550FM-12+001099999V0200601N008019999999N999999999-00361-00461102171ADDMA1999990102061MD1810061+9990REMSYN04801020 46/// /0608 11036 21046 30206 40217 58006=
0089010200999992014012004004+76483+016550FM-12+001099999V0200601N008019999999N999999999-00361-00431102141ADDMA1999990102031MD1710051+9990REMSYN04801020 46/// /0608 11036 21043 30203 40214 57005=
0089010200999992014012005004+76483+016550FM-12+001099999V0200601N008019999999N999999999-00341-00411102131ADDMA1999990102021MD1710031+9990REMSYN04801020 46/// /0608 11034 21041 30202 40213 57003=
0132010200999992014012006004+76483+016550FM-12+001099999V0200601N007019999999N999999999-00331-00391102131ADDKA1240N-00441MA1999990102021MD1710041+9990OD139901001999REMSYN06401020 46/// /0607 11033 21039 30202 40213 57004 333 21044 91110=
0108010200999992014012007004+76483+016550FM-12+001099999V0200501N007019999999N999999999-00331-00401102121ADDMA1999990102011MD1790029+9990REMSYN04801020 46/// /0507 11033 21040 30201 40212 54002=EQDQ01.2    3APC3  
0108010200999992014012008004+76483+016550FM-12+001099999V0200601N006019999999N999999999-00311-00371102121ADDMA1999990102011MD1790019+9990REMSYN04801020 46/// /0606 11031 21037 30201 40212 54001=EQDQ01.1    3APC3  
0108010200999992014012009004+76483+016550FM-12+001099999V0200601N006019999999N999999999-00311-00361102141ADDMA1999990102031MD1290019+9990REMSYN04801020 46/// /0606 11031 21036 30203 40214 54001=EQDQ01.1    3APC3  
0089010200999992014012010004+76483+016550FM-12+001099999V0200601N006019999999N999999999-00311-00351102121ADDMA1999990102011MD1410001+9990REMSYN04801020 46/// /0606 11031 21035 30201 40212 54000=
0089010200999992014012011004+76483+016550FM-12+001099999V0200701N005019999999N999999999-00291-00331102101ADDMA1999990101991MD1510031+9990REMSYN04801020 46/// /0705 11029 21033 30199 40210 55003=
0113010200999992014012012004+76483+016550FM-12+001099999V0200701N002019999999N999999999-00271-00311102081ADDMA1999990101971MD1710071+9990OD139900801999REMSYN05801020 46/// /0702 11027 21031 30197 40208 57007 333 91108=
0089010200999992014012013004+76483+016550FM-12+001099999V0201601N003019999999N999999999+00011+00001102021ADDMA1999990101911MD1610101+9990REMSYN04801020 46/// /1603 10001 21000 30191 40202 56010=
0089010200999992014012014004+76483+016550FM-12+001099999V0202101N008019999999N999999999+00131+00011101971ADDMA1999990101861MD1610131+9990REMSYN04801020 46/// /2108 10013 20001 30186 40197 56013=
0089010200999992014012015004+76483+016550FM-12+001099999V0202101N008019999999N999999999+00121+00031101901ADDMA1999990101801MD1710171+9990REMSYN04801020 46/// /2108 10012 20003 30180 40190 57017=
0089010200999992014012016004+76483+016550FM-12+001099999V0202201N009019999999N999999999+00231+00141101831ADDMA1999990101721MD1710191+9990REMSYN04801020 46/// /2209 10023 20014 30172 40183 57019=
0089010200999992014012017004+76483+016550FM-12+001099999V0202401N009019999999N999999999+00241+00151101821ADDMA1999990101711MD1810151+9990REMSYN04801020 46/// /2409 10024 20015 30171 40182 58015=
0132010200999992014012018004+76483+016550FM-12+001099999V0202601N009019999999N999999999+00211+00081101831ADDKA1120M+00261MA1999990101721MD1810081+9990OD139901301999REMSYN06401020 46/// /2609 10021 20008 30172 40183 58008 333 10026 91113=
0089010200999992014012019004+76483+016550FM-12+001099999V0202501N011019999999N999999999+00201+00101101791ADDMA1999990101681MD1710041+9990REMSYN04801020 46/// /2511 10020 20010 30168 40179 57004=
0089010200999992014012020004+76483+016550FM-12+001099999V0202401N012019999999N999999999+00161+00041101781ADDMA1999990101681MD1710031+9990REMSYN04801020 46/// /2412 10016 20004 30168 40178 57003=
0089010200999992014012021004+76483+016550FM-12+001099999V0202501N012019999999N999999999+00111+00021101761ADDMA1999990101651MD1710071+9990REMSYN04801020 46/// /2512 10011 20002 30165 40176 57007=
0089010200999992014012022004+76483+016550FM-12+001099999V0202701N009019999999N999999999+00101+00011101811ADDMA1999990101701MD1900021+9990REMSYN04801020 46/// /2709 10010 20001 30170 40181 50002=
0089010200999992014012023004+76483+016550FM-12+001099999V0202601N007019999999N999999999+00051+00011101851ADDMA1999990101741MD1110061+9990REMSYN04801020 46/// /2607 10005 20001 30174 40185 51006=
0113010200999992014012100004+76483+016550FM-12+001099999V0202801N008019999999N999999999+00071-00101101841ADDMA1999990101741MD1310081+9990OD139901601999REMSYN05801020 46/// /2808 10007 21010 30174 40184 53008 333 91116=
0089010200999992014012101004+76483+016550FM-12+001099999V0202801N007019999999N999999999+00061-00151101861ADDMA1999990101751MD1210051+9990REMSYN04801020 46/// /2807 10006 21015 30175 40186 52005=
0108010200999992014012102004+76483+016550FM-12+001099999V0202701N008019999999N999999999+00061-00111101831ADDMA1999990101731MD1790029+9990REMSYN04801020 46/// /2708 10006 21011 30173 40183 54001=EQDQ01.1    3APC3  
0108010200999992014012103004+76483+016550FM-12+001099999V0202701N006019999999N999999999+00041-00021101821ADDMA1999990101711MD1790029+9990REMSYN04801020 46/// /2706 10004 21002 30171 40182 54002=EQDQ01.2    3APC3  
0089010200999992014012104004+76483+016550FM-12+001099999V0202801N007019999999N999999999+00011-00021101791ADDMA1999990101681MD1710071+9990REMSYN04801020 46/// /2807 10001 21002 30168 40179 57007=
0089010200999992014012105004+76483+016550FM-12+001099999V0202701N009019999999N999999999+00141+00101101731ADDMA1999990101621MD1610101+9990REMSYN04801020 46/// /2709 10014 20010 30162 40173 56010=
0132010200999992014012106004+76483+016550FM-12+001099999V0202601N012019999999N999999999+00161+00071101681ADDKA1240N+00011MA1999990101581MD1710141+9990OD139901501999REMSYN06401020 46/// /2612 10016 20007 30158 40168 57014 333 20001 91115=
0089010200999992014012107004+76483+016550FM-12+001099999V0202801N010019999999N999999999+00151+00061101731ADDMA1999990101621MD1810071+9990REMSYN04801020 46/// /2810 10015 20006 30162 40173 58007=
0089010200999992014012108004+76483+016550FM-12+001099999V0202701N010019999999N999999999+00171+00041101751ADDMA1999990101641MD1900021+9990REMSYN04801020 46/// /2710 10017 20004 30164 40175 50002=
0089010200999992014012109004+76483+016550FM-12+001099999V0202801N011019999999N999999999+00131+00041101741ADDMA1999990101631MD1310061+9990REMSYN04801020 46/// /2811 10013 20004 30163 40174 53006=
0108010200999992014012110004+76483+016550FM-12+001099999V0202901N009019999999N999999999+00091-00021101761ADDMA1999990101651MD1290039+9990REMSYN04801020 46/// /2909 10009 21002 30165 40176 54003=EQDQ01.3    3APC3  
0089010200999992014012111004+76483+016550FM-12+001099999V0203001N007019999999N999999999+00061-00021101781ADDMA1999990101681MD1110041+9990REMSYN04801020 46/// /3007 10006 21002 30168 40178 51004=
0113010200999992014012112004+76483+016550FM-12+001099999V0202901N005019999999N999999999-00041-00091101821ADDMA1999990101711MD1210081+9990OD139901401999REMSYN05801020 46/// /2905 11004 21009 30171 40182 52008 333 91114=
0089010200999992014012113004+76483+016550FM-12+001099999V0202601N004019999999N999999999-00031-00051101841ADDMA1999990101731MD1210081+9990REMSYN04801020 46/// /2604 11003 21005 30173 40184 52008=
0089010200999992014012114004+76483+016550FM-12+001099999V0202601N004019999999N999999999+00051+00021101831ADDMA1999990101721MD1310041+9990REMSYN04801020 46/// /2604 10005 20002 30172 40183 53004=
0089010200999992014012115004+76483+016550FM-12+001099999V0202601N006019999999N999999999+00091+00051101801ADDMA1999990101691MD1510021+9990REMSYN04801020 46/// /2606 10009 20005 30169 40180 55002=
0089010200999992014012116004+76483+016550FM-12+001099999V0202901N006019999999N999999999+00091-00041101801ADDMA1999990101691MD1710041+9990REMSYN04801020 46/// /2906 10009 21004 30169 40180 57004=
0089010200999992014012117004+76483+016550FM-12+001099999V0202601N003019999999N999999999+00081-00011101831ADDMA1999990101721MD1900001+9990REMSYN04801020 46/// /2603 10008 21001 30172 40183 50000=
0132010200999992014012118004+76483+016550FM-12+001099999V0202901N006019999999N999999999-00011-00061101781ADDKA1120M+00191MA1999990101671MD1510021+9990OD139900801999REMSYN06401020 46/// /2906 11001 21006 30167 40178 55002 333 10019 91108=
0089010200999992014012119004+76483+016550FM-12+001099999V0202901N004019999999N999999999+00011-00061101781ADDMA1999990101671MD1510021+9990REMSYN04801020 46/// /2904 10001 21006 30167 40178 55002=
0089010200999992014012120004+76483+016550FM-12+001099999V0203401N001019999999N999999999-00031-00081101821ADDMA1999990101711MD1900011+9990REMSYN04801020 46/// /3401 11003 21008 30171 40182 50001=
