0089010240999992014010101004+78650+016367FM-12+002099999V0203501N001019999999N999999999-01011-01121102161ADDMA1999990102021MD1710131+9990REMSYN04801024 46/// /3501 11101 21112 30202 40216 57013=
0089010240999992014010102004+78650+016367FM-12+002099999V0200501N001019999999N999999999-01011-01081102111ADDMA1999990101971MD1710141+9990REMSYN04801024 46/// /0501 11101 21108 30197 40211 57014=
0089010240999992014010104004+78650+016367FM-12+002099999V0201201N001019999999N999999999-00941-01021101991ADDMA1999990101851MD1710171+9990REMSYN04801024 46/// /1201 11094 21102 30185 40199 57017=
0089010240999992014010105004+78650+016367FM-12+002099999V0209999C999999999999N999999999-00971-01061101931ADDMA1999990101801MD1710171+9990REMSYN04801024 46/// /0000 11097 21106 30180 40193 57017=
0113010240999992014010106004+78650+016367FM-12+002099999V0203201N001019999999N999999999-00971-01031101871ADDMA1999990101731MD1710181+9990OD139900401999REMSYN05801024 46/// /3201 11097 21103 30173 40187 57018 333 91104=
0089010240999992014010107004+78650+016367FM-12+002099999V0201301N001019999999N999999999-00951-01031101801ADDMA1999990101671MD1710191+9990REMSYN04801024 46/// /1301 11095 21103 30167 40180 57019=
0089010240999992014010108004+78650+016367FM-12+002099999V0201001N001019999999N999999999-00951-01031101771ADDMA1999990101641MD1810161+9990REMSYN04801024 46/// /1001 11095 21103 30164 40177 58016=
0089010240999992014010109004+78650+016367FM-12+002099999V0203101N002019999999N999999999-00881-00911101771ADDMA1999990101641MD1810091+9990REMSYN04801024 46/// /3102 11088 21091 30164 40177 58009=
0089010240999992014010110004+78650+016367FM-12+002099999V0209999C999999999999N999999999-00821-00831101751ADDMA1999990101611MD1710051+9990REMSYN04801024 46/// /0000 11082 21083 30161 40175 57005=
0089010240999992014010111004+78650+016367FM-12+002099999V0203201N001019999999N999999999-00831-00841101721ADDMA1999990101591MD1710051+9990REMSYN04801024 46/// /3201 11083 21084 30159 40172 57005=
0113010240999992014010112004+78650+016367FM-12+002099999V0209999C999999999999N999999999-00801-00811101701ADDMA1999990101561MD1710081+9990OD139900301999REMSYN05801024 46/// /0000 11080 21081 30156 40170 57008 333 91103=
0089010240999992014010113004+78650+016367FM-12+002099999V0209999C999999999999N999999999-00771-00781101671ADDMA1999990101531MD1710081+9990REMSYN04801024 46/// /0000 11077 21078 30153 40167 57008=
0089010240999992014010114004+78650+016367FM-12+002099999V0200201N001019999999N999999999-00441-00441101651ADDMA1999990101521MD1710071+9990REMSYN04801024 46/// /0201 11044 21044 30152 40165 57007=
0089010240999992014010115004+78650+016367FM-12+002099999V0202101N003019999999N999999999-00321-00431101641ADDMA1999990101511MD1710051+9990REMSYN04801024 46/// /2103 11032 21043 30151 40164 57005=
0089010240999992014010116004+78650+016367FM-12+002099999V0203501N001019999999N999999999-00331-00341101641ADDMA1999990101501MD1710031+9990REMSYN04801024 46/// /3501 11033 21034 30150 40164 57003=
0089010240999992014010117004+78650+016367FM-12+002099999V0203101N002019999999N999999999-00311-00371101651ADDMA1999990101511MD1410001+9990REMSYN04801024 46/// /3102 11031 21037 30151 40165 54000=
0132010240999992014010118004+78650+016367FM-12+002099999V0203001N001019999999N999999999-00351-00361101671ADDKA1120M-00301MA1999990101541MD1210031+9990OD139900401999REMSYN06401024 46/// /3001 11035 21036 30154 40167 52003 333 11030 91104=
0089010240999992014010119004+78650+016367FM-12+002099999V0202901N003019999999N999999999-00341-00531101681ADDMA1999990101551MD1210051+9990REMSYN04801024 46/// /2903 11034 21053 30155 40168 52005=
0089010240999992014010120004+78650+016367FM-12+002099999V0203101N004019999999N999999999-00331-00531101721ADDMA1999990101591MD1210071+9990REMSYN04801024 46/// /3104 11033 21053 30159 40172 52007=
0089010240999992014010121004+78650+016367FM-12+002099999V0203001N004019999999N999999999-00431-00661101741ADDMA1999990101611MD1210071+9990REMSYN04801024 46/// /3004 11043 21066 30161 40174 52007=
0089010240999992014010122004+78650+016367FM-12+002099999V0203001N005019999999N999999999-00441-00791101771ADDMA1999990101641MD1210091+9990REMSYN04801024 46/// /3005 11044 21079 30164 40177 52009=
0089010240999992014010123004+78650+016367FM-12+002099999V0203001N003019999999N999999999-00351-00731101811ADDMA1999990101671MD1210091+9990REMSYN04801024 46/// /3003 11035 21073 30167 40181 52009=
0113010240999992014010200004+78650+016367FM-12+002099999V0203001N002019999999N999999999-00391-00741101831ADDMA1999990101691MD1210091+9990OD139900601999REMSYN05801024 46/// /3002 11039 21074 30169 40183 52009 333 91106=
0089010240999992014010201004+78650+016367FM-12+002099999V0202601N001019999999N999999999-00541-00731101831ADDMA1999990101701MD1210061+9990REMSYN04801024 46/// /2601 11054 21073 30170 40183 52006=
0108010240999992014010202004+78650+016367FM-12+002099999V0203001N003019999999N999999999-00451-00671101831ADDMA1999990101701MD1290029+9990REMSYN04801024 46/// /3003 11045 21067 30170 40183 54003=EQDQ01.3    3APC3  
0108010240999992014010203004+78650+016367FM-12+002099999V0203101N004019999999N999999999-00411-00561101841ADDMA1999990101711MD1290019+9990REMSYN04801024 46/// /3104 11041 21056 30171 40184 54001=EQDQ01.1    3APC3  
0108010240999992014010204004+78650+016367FM-12+002099999V0203301N003019999999N999999999-00461-00721101861ADDMA1999990101721MD1290039+9990REMSYN04801024 46/// /3303 11046 21072 30172 40186 54002=EQDQ01.2    3APC3  
0089010240999992014010205004+78650+016367FM-12+002099999V0203001N001019999999N999999999-00571-00791101871ADDMA1999990101731MD1210031+9990REMSYN04801024 46/// /3001 11057 21079 30173 40187 52003=
0151010240999992014010206004+78650+016367FM-12+002099999V0203001N002019999999N999999999-00411-00701101871ADDKA1240N-00641MA1999990101731MD1290039+9990OD139900601999REMSYN06401024 46/// /3002 11041 21070 30173 40187 54003 333 21064 91106=EQDQ01.3    3APC3  
0108010240999992014010207004+78650+016367FM-12+002099999V0203201N002019999999N999999999-00451-00751101861ADDMA1999990101731MD1410009+9990REMSYN04801024 46/// /3202 11045 21075 30173 40186 54001=EQDQ01.1    3APC3  
0089010240999992014010208004+78650+016367FM-12+002099999V0209999C999999999999N999999999-00511-00751101911ADDMA1999990101771MD1110051+9990REMSYN04801024 46/// /0000 11051 21075 30177 40191 51005=
0089010240999992014010209004+78650+016367FM-12+002099999V0203101N001019999999N999999999-00521-00751101951ADDMA1999990101811MD1110081+9990REMSYN04801024 46/// /3101 11052 21075 30181 40195 51008=
0089010240999992014010210004+78650+016367FM-12+002099999V0203301N001019999999N999999999-00501-00701101951ADDMA1999990101821MD1310091+9990REMSYN04801024 46/// /3301 11050 21070 30182 40195 53009=
0089010240999992014010211004+78650+016367FM-12+002099999V0203101N002019999999N999999999-00511-00591101951ADDMA1999990101821MD1310041+9990REMSYN04801024 46/// /3102 11051 21059 30182 40195 53004=
0113010240999992014010212004+78650+016367FM-12+002099999V0203101N002019999999N999999999-00511-00531101921ADDMA1999990101791MD1510021+9990OD139900301999REMSYN05801024 46/// /3102 11051 21053 30179 40192 55002 333 91103=
0089010240999992014010213004+78650+016367FM-12+002099999V0203201N002019999999N999999999-00481-00551101901ADDMA1999990101771MD1710051+9990REMSYN04801024 46/// /3202 11048 21055 30177 40190 57005=
0089010240999992014010214004+78650+016367FM-12+002099999V0209999C999999999999N999999999-00551-00561101871ADDMA1999990101731MD1710081+9990REMSYN04801024 46/// /0000 11055 21056 30173 40187 57008=
0089010240999992014010215004+78650+016367FM-12+002099999V0209999C999999999999N999999999-00561-00631101861ADDMA1999990101721MD1710071+9990REMSYN04801024 46/// /0000 11056 21063 30172 40186 57007=
0089010240999992014010216004+78650+016367FM-12+002099999V0201101N001019999999N999999999-00601-00611101851ADDMA1999990101711MD1710061+9990REMSYN04801024 46/// /1101 11060 21061 30171 40185 57006=
0089010240999992014010217004+78650+016367FM-12+002099999V0200701N001019999999N999999999-00561-00571101831ADDMA1999990101701MD1710041+9990REMSYN04801024 46/// /0701 11056 21057 30170 40183 57004=
0132010240999992014010218004+78650+016367FM-12+002099999V0203301N001019999999N999999999-00631-00691101811ADDKA1120M-00411MA1999990101681MD1710041+9990OD139900301999REMSYN06401024 46/// /3301 11063 21069 30168 40181 57004 333 11041 91103=
0089010240999992014010219004+78650+016367FM-12+002099999V0200401N001019999999N999999999-00681-00691101851ADDMA1999990101721MD1900011+9990REMSYN04801024 46/// /0401 11068 21069 30172 40185 50001=
0089010240999992014010220004+78650+016367FM-12+002099999V0209999C999999999999N999999999-00641-00681101861ADDMA1999990101731MD1110031+9990REMSYN04801024 46/// /0000 11064 21068 30173 40186 51003=
0089010240999992014010221004+78650+016367FM-12+002099999V0203101N001019999999N999999999-00641-00681101871ADDMA1999990101741MD1310061+9990REMSYN04801024 46/// /3101 11064 21068 30174 40187 53006=
0089010240999992014010222004+78650+016367FM-12+002099999V0203101N001019999999N999999999-00561-00711101891ADDMA1999990101761MD1210041+9990REMSYN04801024 46/// /3101 11056 21071 30176 40189 52004=
0108010240999992014010223004+78650+016367FM-12+002099999V0203301N001019999999N999999999-00531-00731101891ADDMA1999990101751MD1290039+9990REMSYN04801024 46/// /3301 11053 21073 30175 40189 54002=EQDQ01.2    3APC3  
0113010240999992014010300004+78650+016367FM-12+002099999V0200701N001019999999N999999999-00561-00751101861ADDMA1999990101721MD1510011+9990OD139900201999REMSYN05801024 46/// /0701 11056 21075 30172 40186 55001 333 91102=
0089010240999992014010301004+78650+016367FM-12+002099999V0203201N001019999999N999999999-00611-00741101841ADDMA1999990101711MD1710051+9990REMSYN04801024 46/// /3201 11061 21074 30171 40184 57005=
0089010240999992014010302004+78650+016367FM-12+002099999V0203201N002019999999N999999999-00581-00751101791ADDMA1999990101651MD1710101+9990REMSYN04801024 46/// /3202 11058 21075 30165 40179 57010=
0089010240999992014010303004+78650+016367FM-12+002099999V0203301N002019999999N999999999-00531-00751101761ADDMA1999990101621MD1710101+9990REMSYN04801024 46/// /3302 11053 21075 30162 40176 57010=
0089010240999992014010304004+78650+016367FM-12+002099999V0203501N001019999999N999999999-00361-00761101751ADDMA1999990101621MD1810091+9990REMSYN04801024 46/// /3501 11036 21076 30162 40175 58009=
0089010240999992014010305004+78650+016367FM-12+002099999V0203301N001019999999N999999999-00371-00751101741ADDMA1999990101601MD1710051+9990REMSYN04801024 46/// /3301 11037 21075 30160 40174 57005=
0132010240999992014010306004+78650+016367FM-12+002099999V0200501N002019999999N999999999-00501-00731101731ADDKA1240N-00721MA1999990101591MD1710031+9990OD139900301999REMSYN06401024 46/// /0502 11050 21073 30159 40173 57003 333 21072 91103=
0089010240999992014010307004+78650+016367FM-12+002099999V0200401N001019999999N999999999-00451-00801101711ADDMA1999990101581MD1710041+9990REMSYN04801024 46/// /0401 11045 21080 30158 40171 57004=
0108010240999992014010308004+78650+016367FM-12+002099999V0203301N001019999999N999999999-00471-00851101721ADDMA1999990101581MD1790029+9990REMSYN04801024 46/// /3301 11047 21085 30158 40172 54002=EQDQ01.2    3APC3  
0089010240999992014010309004+78650+016367FM-12+002099999V0209999C999999999999N999999999-00491-00891101751ADDMA1999990101611MD1900021+9990REMSYN04801024 46/// /0000 11049 21089 30161 40175 50002=
0108010240999992014010310004+78650+016367FM-12+002099999V0203101N001019999999N999999999-00561-00891101741ADDMA1999990101601MD1290039+9990REMSYN04801024 46/// /3101 11056 21089 30160 40174 54003=EQDQ01.3    3APC3  
0089010240999992014010311004+78650+016367FM-12+002099999V0209999C999999999999N999999999-00591-01031101741ADDMA1999990101601MD1510021+9990REMSYN04801024 46/// /0000 11059 21103 30160 40174 55002=
0132010240999992014010312004+78650+016367FM-12+002099999V0200701N002019999999N999999999-00671-01001101731ADDMA1999990101591MD1790029+9990OD139900201999REMSYN05801024 46/// /0702 11067 21100 30159 40173 54002 333 91102=EQDQ01.2    3APC3  
0108010240999992014010313004+78650+016367FM-12+002099999V0203301N001019999999N999999999-00561-01001101711ADDMA1999990101581MD1790039+9990REMSYN04801024 46/// /3301 11056 21100 30158 40171 54003=EQDQ01.3    3APC3  
0089010240999992014010314004+78650+016367FM-12+002099999V0200501N001019999999N999999999-00631-01011101701ADDMA1999990101561MD1710041+9990REMSYN04801024 46/// /0501 11063 21101 30156 40170 57004=
0089010240999992014010316004+78650+016367FM-12+002099999V0209999C999999999999N999999999-00631-01011101641ADDMA1999990101501MD1710071+9990REMSYN04801024 46/// /0000 11063 21101 30150 40164 57007=
0089010240999992014010317004+78650+016367FM-12+002099999V0202601N001019999999N999999999-00651-01071101601ADDMA1999990101461MD1710101+9990REMSYN04801024 46/// /2601 11065 21107 30146 40160 57010=
0089010240999992014010318004+78650+016367FM-12+002099999V0203201N002019999999N999999999-00591-01051101601ADDMA1999990101461MD1710071+9990REMSYN04801024 46/// /3202 11059 21105 30146 40160 57007=
0089010240999992014010319004+78650+016367FM-12+002099999V0209999C999999999999N999999999-00671-01111101601ADDMA1999990101461MD1810041+9990REMSYN04801024 46/// /0000 11067 21111 30146 40160 58004=
0108010240999992014010320004+78650+016367FM-12+002099999V0203101N001019999999N999999999-00651-01111101581ADDMA1999990101441MD1790029+9990REMSYN04801024 46/// /3101 11065 21111 30144 40158 54002=EQDQ01.2    3APC3  
0089010240999992014010321004+78650+016367FM-12+002099999V0200101N001019999999N999999999-00541-01021101551ADDMA1999990101421MD1710041+9990REMSYN04801024 46/// /0101 11054 21102 30142 40155 57004=
0089010240999992014010322004+78650+016367FM-12+002099999V0201001N003019999999N999999999-00341-00911101531ADDMA1999990101391MD1710071+9990REMSYN04801024 46/// /1003 11034 21091 30139 40153 57007=
0089010240999992014010323004+78650+016367FM-12+002099999V0200701N005019999999N999999999-00311-00941101511ADDMA1999990101371MD1710071+9990REMSYN04801024 46/// /0705 11031 21094 30137 40151 57007=
0113010240999992014010400004+78650+016367FM-12+002099999V0200701N005019999999N999999999-00321-00931101501ADDMA1999990101361MD1710051+9990OD139900701999REMSYN05801024 46/// /0705 11032 21093 30136 40150 57005 333 91107=
0089010240999992014010401004+78650+016367FM-12+002099999V0200701N005019999999N999999999-00321-00951101491ADDMA1999990101351MD1710041+9990REMSYN04801024 46/// /0705 11032 21095 30135 40149 57004=
0089010240999992014010402004+78650+016367FM-12+002099999V0200701N005019999999N999999999-00351-00901101471ADDMA1999990101331MD1710041+9990REMSYN04801024 46/// /0705 11035 21090 30133 40147 57004=
0089010240999992014010403004+78650+016367FM-12+002099999V0200701N005019999999N999999999-00341-00931101451ADDMA1999990101311MD1710051+9990REMSYN04801024 46/// /0705 11034 21093 30131 40145 57005=
0089010240999992014010404004+78650+016367FM-12+002099999V0200701N005019999999N999999999-00301-00951101431ADDMA1999990101301MD1710061+9990REMSYN04801024 46/// /0705 11030 21095 30130 40143 57006=
0089010240999992014010405004+78650+016367FM-12+002099999V0200801N005019999999N999999999-00341-00891101451ADDMA1999990101311MD1900021+9990REMSYN04801024 46/// /0805 11034 21089 30131 40145 50002=
0132010240999992014010406004+78650+016367FM-12+002099999V0200701N005019999999N999999999-00361-00931101421ADDKA1240N-00751MA1999990101281MD1710031+9990OD139900801999REMSYN06401024 46/// /0705 11036 21093 30128 40142 57003 333 21075 91108=
0108010240999992014010407004+78650+016367FM-12+002099999V0200701N005019999999N999999999-00361-00971101421ADDMA1999990101281MD1790019+9990REMSYN04801024 46/// /0705 11036 21097 30128 40142 54001=EQDQ01.1    3APC3  
0089010240999992014010408004+78650+016367FM-12+002099999V0200901N006019999999N999999999-00421-00851101441ADDMA1999990101301MD1900011+9990REMSYN04801024 46/// /0906 11042 21085 30130 40144 50001=
0089010240999992014010409004+78650+016367FM-12+002099999V0201001N006019999999N999999999-00441-00821101471ADDMA1999990101341MD1110051+9990REMSYN04801024 46/// /1006 11044 21082 30134 40147 51005=
0089010240999992014010410004+78650+016367FM-12+002099999V0201001N006019999999N999999999-00461-00921101491ADDMA1999990101351MD1210071+9990REMSYN04801024 46/// /1006 11046 21092 30135 40149 52007=
0089010240999992014010411004+78650+016367FM-12+002099999V0201001N007019999999N999999999-00511-00921101501ADDMA1999990101361MD1210061+9990REMSYN04801024 46/// /1007 11051 21092 30136 40150 52006=
0113010240999992014010412004+78650+016367FM-12+002099999V0201001N008019999999N999999999-00581-01001101511ADDMA1999990101371MD1210041+9990OD139901001999REMSYN05801024 46/// /1008 11058 21100 30137 40151 52004 333 91110=
0089010240999992014010413004+78650+016367FM-12+002099999V0201001N007019999999N999999999-00591-01031101531ADDMA1999990101401MD1210051+9990REMSYN04801024 46/// /1007 11059 21103 30140 40153 52005=
0089010240999992014010414004+78650+016367FM-12+002099999V0200901N007019999999N999999999-00661-01131101561ADDMA1999990101421MD1210061+9990REMSYN04801024 46/// /0907 11066 21113 30142 40156 52006=
0089010240999992014010415004+78650+016367FM-12+002099999V0200901N007019999999N999999999-00681-01191101561ADDMA1999990101421MD1210051+9990REMSYN04801024 46/// /0907 11068 21119 30142 40156 52005=
0089010240999992014010417004+78650+016367FM-12+002099999V0201201N007019999999N999999999-00721-01191101591ADDMA1999990101451MD1210031+9990REMSYN04801024 46/// /1207 11072 21119 30145 40159 52003=
0089010240999992014010418004+78650+016367FM-12+002099999V0201301N006019999999N999999999-00771-01191101611ADDMA1999990101471MD1210051+9990REMSYN04801024 46/// /1306 11077 21119 30147 40161 52005=
0089010240999992014010419004+78650+016367FM-12+002099999V0200901N007019999999N999999999-00711-01271101631ADDMA1999990101501MD1210061+9990REMSYN04801024 46/// /0907 11071 21127 30150 40163 52006=
0089010240999992014010420004+78650+016367FM-12+002099999V0200901N009019999999N999999999-00861-01311101651ADDMA1999990101511MD1210061+9990REMSYN04801024 46/// /0909 11086 21131 30151 40165 52006=
0089010240999992014010421004+78650+016367FM-12+002099999V0200801N008019999999N999999999-00991-01451101661ADDMA1999990101521MD1210051+9990REMSYN04801024 46/// /0808 11099 21145 30152 40166 52005=
0089010240999992014010422004+78650+016367FM-12+002099999V0200701N006019999999N999999999-00961-01581101681ADDMA1999990101541MD1210041+9990REMSYN04801024 46/// /0706 11096 21158 30154 40168 52004=
0108010240999992014010423004+78650+016367FM-12+002099999V0200701N003019999999N999999999-01031-01721101671ADDMA1999990101541MD1290029+9990REMSYN04801024 46/// /0703 11103 21172 30154 40167 54003=EQDQ01.3    3APC3  
0113010240999992014010500004+78650+016367FM-12+002099999V0202901N001019999999N999999999-01311-01931101701ADDMA1999990101561MD1210031+9990OD139901101999REMSYN05801024 46/// /2901 11131 21193 30156 40170 52003 333 91111=
0108010240999992014010501004+78650+016367FM-12+002099999V0202901N001019999999N999999999-01511-02001101711ADDMA1999990101571MD1290039+9990REMSYN04801024 46/// /2901 11151 21200 30157 40171 54003=EQDQ01.3    3APC3  
0089010240999992014010502004+78650+016367FM-12+002099999V0201101N005019999999N999999999-01191-01691101721ADDMA1999990101581MD1210041+9990REMSYN04801024 46/// /1105 11119 21169 30158 40172 52004=
0089010240999992014010503004+78650+016367FM-12+002099999V0203001N002019999999N999999999-01491-01971101751ADDMA1999990101611MD1210051+9990REMSYN04801024 46/// /3002 11149 21197 30161 40175 52005=
0108010240999992014010504004+78650+016367FM-12+002099999V0203201N003019999999N999999999-01491-01921101741ADDMA1999990101601MD1290039+9990REMSYN04801024 46/// /3203 11149 21192 30160 40174 54003=EQDQ01.3    3APC3  
0089010240999992014010505004+78650+016367FM-12+002099999V0203501N001019999999N999999999-01461-02041101751ADDMA1999990101611MD1210031+9990REMSYN04801024 46/// /3501 11146 21204 30161 40175 52003=
0151010240999992014010506004+78650+016367FM-12+002099999V0203101N002019999999N999999999-01541-01971101761ADDKA1240N-01731MA1999990101621MD1290019+9990OD139900801999REMSYN06401024 46/// /3102 11154 21197 30162 40176 54001 333 21173 91108=EQDQ01.1    3APC3  
0108010240999992014010507004+78650+016367FM-12+002099999V0203401N001019999999N999999999-01461-02021101761ADDMA1999990101621MD1290029+9990REMSYN04801024 46/// /3401 11146 21202 30162 40176 54003=EQDQ01.3    3APC3  
0089010240999992014010508004+78650+016367FM-12+002099999V0203101N001019999999N999999999-01671-02171101801ADDMA1999990101661MD1210051+9990REMSYN04801024 46/// /3101 11167 21217 30166 40180 52005=
0089010240999992014010509004+78650+016367FM-12+002099999V0203301N002019999999N999999999-01411-01961101811ADDMA1999990101671MD1210061+9990REMSYN04801024 46/// /3302 11141 21196 30167 40181 52006=
0089010240999992014010510004+78650+016367FM-12+002099999V0200301N002019999999N999999999-01281-02001101821ADDMA1999990101681MD1310051+9990REMSYN04801024 46/// /0302 11128 21200 30168 40182 53005=
0089010240999992014010511004+78650+016367FM-12+002099999V0203101N001019999999N999999999-01611-02101101831ADDMA1999990101691MD1210031+9990REMSYN04801024 46/// /3101 11161 21210 30169 40183 52003=
0113010240999992014010512004+78650+016367FM-12+002099999V0200601N003019999999N999999999-01251-01971101851ADDMA1999990101711MD1210031+9990OD139900501999REMSYN05801024 46/// /0603 11125 21197 30171 40185 52003 333 91105=
0089010240999992014010513004+78650+016367FM-12+002099999V0203101N001019999999N999999999-01521-02081101891ADDMA1999990101751MD1210071+9990REMSYN04801024 46/// /3101 11152 21208 30175 40189 52007=
0089010240999992014010514004+78650+016367FM-12+002099999V0202201N002019999999N999999999-01541-02191101921ADDMA1999990101781MD1210091+9990REMSYN04801024 46/// /2202 11154 21219 30178 40192 52009=
0089010240999992014010515004+78650+016367FM-12+002099999V0200701N005019999999N999999999-01251-02021101921ADDMA1999990101781MD1310071+9990REMSYN04801024 46/// /0705 11125 21202 30178 40192 53007=
0089010240999992014010516004+78650+016367FM-12+002099999V0200901N004019999999N999999999-01301-02081101951ADDMA1999990101811MD1210061+9990REMSYN04801024 46/// /0904 11130 21208 30181 40195 52006=
0108010240999992014010517004+78650+016367FM-12+002099999V0200401N003019999999N999999999-01351-02071101951ADDMA1999990101811MD1290039+9990REMSYN04801024 46/// /0403 11135 21207 30181 40195 54003=EQDQ01.3    3APC3  
0132010240999992014010518004+78650+016367FM-12+002099999V0202901N001019999999N999999999-01461-02151101961ADDKA1120M-01231MA1999990101821MD1210041+9990OD139900701999REMSYN06401024 46/// /2901 11146 21215 30182 40196 52004 333 11123 91107=
0089010240999992014010519004+78650+016367FM-12+002099999V0202901N002019999999N999999999-01571-02221101981ADDMA1999990101841MD1210031+9990REMSYN04801024 46/// /2902 11157 21222 30184 40198 52003=
0089010240999992014010520004+78650+016367FM-12+002099999V0203201N002019999999N999999999-01571-02241102001ADDMA1999990101861MD1210051+9990REMSYN04801024 46/// /3202 11157 21224 30186 40200 52005=
0089010240999992014010521004+78650+016367FM-12+002099999V0202901N001019999999N999999999-01631-02291102021ADDMA1999990101881MD1210061+9990REMSYN04801024 46/// /2901 11163 21229 30188 40202 52006=
0089010240999992014010522004+78650+016367FM-12+002099999V0203101N002019999999N999999999-01591-02201102051ADDMA1999990101911MD1210071+9990REMSYN04801024 46/// /3102 11159 21220 30191 40205 52007=
0089010240999992014010523004+78650+016367FM-12+002099999V0203101N002019999999N999999999-01611-02221102061ADDMA1999990101921MD1210061+9990REMSYN04801024 46/// /3102 11161 21222 30192 40206 52006=
0113010240999992014010600004+78650+016367FM-12+002099999V0203201N002019999999N999999999-01571-02221102051ADDMA1999990101911MD1310031+9990OD139900401999REMSYN05801024 46/// /3202 11157 21222 30191 40205 53003 333 91104=
0108010240999992014010601004+78650+016367FM-12+002099999V0203101N002019999999N999999999-01691-02241102061ADDMA1999990101921MD1290019+9990REMSYN04801024 46/// /3102 11169 21224 30192 40206 54001=EQDQ01.1    3APC3  
0089010240999992014010602004+78650+016367FM-12+002099999V0203101N003019999999N999999999-01731-02261102091ADDMA1999990101951MD1900031+9990REMSYN04801024 46/// /3103 11173 21226 30195 40209 50003=
0089010240999992014010603004+78650+016367FM-12+002099999V0203101N002019999999N999999999-01711-02281102091ADDMA1999990101951MD1210041+9990REMSYN04801024 46/// /3102 11171 21228 30195 40209 52004=
0089010240999992014010604004+78650+016367FM-12+002099999V0203001N002019999999N999999999-01741-02321102081ADDMA1999990101941MD1510021+9990REMSYN04801024 46/// /3002 11174 21232 30194 40208 55002=
0089010240999992014010605004+78650+016367FM-12+002099999V0202901N002019999999N999999999-01801-02361102091ADDMA1999990101951MD1410001+9990REMSYN04801024 46/// /2902 11180 21236 30195 40209 54000=
0151010240999992014010606004+78650+016367FM-12+002099999V0203101N002019999999N999999999-01751-02331102111ADDKA1240N-01881MA1999990101971MD1290029+9990OD139900301999REMSYN06401024 46/// /3102 11175 21233 30197 40211 54002 333 21188 91103=EQDQ01.2    3APC3  
0089010240999992014010607004+78650+016367FM-12+002099999V0203201N002019999999N999999999-01701-02251102141ADDMA1999990102001MD1210061+9990REMSYN04801024 46/// /3202 11170 21225 30200 40214 52006=
0089010240999992014010608004+78650+016367FM-12+002099999V0203001N001019999999N999999999-01751-02301102161ADDMA1999990102011MD1210061+9990REMSYN04801024 46/// /3001 11175 21230 30201 40216 52006=
0089010240999992014010609004+78650+016367FM-12+002099999V0209999C999999999999N999999999-01861-02311102181ADDMA1999990102041MD1210081+9990REMSYN04801024 46/// /0000 11186 21231 30204 40218 52008=
0089010240999992014010610004+78650+016367FM-12+002099999V0203201N001019999999N999999999-01731-02261102201ADDMA1999990102051MD1210051+9990REMSYN04801024 46/// /3201 11173 21226 30205 40220 52005=
0089010240999992014010611004+78650+016367FM-12+002099999V0203201N002019999999N999999999-01761-02271102221ADDMA1999990102081MD1210061+9990REMSYN04801024 46/// /3202 11176 21227 30208 40222 52006=
0113010240999992014010612004+78650+016367FM-12+002099999V0203101N001019999999N999999999-01781-02311102231ADDMA1999990102091MD1210051+9990OD139900401999REMSYN05801024 46/// /3101 11178 21231 30209 40223 52005 333 91104=
0089010240999992014010613004+78650+016367FM-12+002099999V0200301N001019999999N999999999-01791-02291102241ADDMA1999990102101MD1210041+9990REMSYN04801024 46/// /0301 11179 21229 30210 40224 52004=
0108010240999992014010614004+78650+016367FM-12+002099999V0209999C999999999999N999999999-01831-02261102241ADDMA1999990102101MD1290029+9990REMSYN04801024 46/// /0000 11183 21226 30210 40224 54002=EQDQ01.2    3APC3  
0089010240999992014010615004+78650+016367FM-12+002099999V0203401N001019999999N999999999-01841-02331102231ADDMA1999990102081MD1410001+9990REMSYN04801024 46/// /3401 11184 21233 30208 40223 54000=
0108010240999992014010616004+78650+016367FM-12+002099999V0209999C999999999999N999999999-01871-02271102221ADDMA1999990102081MD1790029+9990REMSYN04801024 46/// /0000 11187 21227 30208 40222 54002=EQDQ01.2    3APC3  
0108010240999992014010617004+78650+016367FM-12+002099999V0209999C999999999999N999999999-01981-02391102231ADDMA1999990102091MD1790019+9990REMSYN04801024 46/// /0000 11198 21239 30209 40223 54001=EQDQ01.1    3APC3  
0151010240999992014010618004+78650+016367FM-12+002099999V0209999C999999999999N999999999-01911-02281102231ADDKA1120M-01611MA1999990102091MD1410009+9990OD139900201999REMSYN06401024 46/// /0000 11191 21228 30209 40223 54001 333 11161 91102=EQDQ01.1    3APC3  
0108010240999992014010619004+78650+016367FM-12+002099999V0209999C999999999999N999999999-01871-02241102231ADDMA1999990102091MD1290019+9990REMSYN04801024 46/// /0000 11187 21224 30209 40223 54001=EQDQ01.1    3APC3  
0108010240999992014010620004+78650+016367FM-12+002099999V0209999C999999999999N999999999-01901-02231102241ADDMA1999990102101MD1290019+9990REMSYN04801024 46/// /0000 11190 21223 30210 40224 54001=EQDQ01.1    3APC3  
0108010240999992014010621004+78650+016367FM-12+002099999V0203301N002019999999N999999999-01841-02231102261ADDMA1999990102121MD1290039+9990REMSYN04801024 46/// /3302 11184 21223 30212 40226 54003=EQDQ01.3    3APC3  
0089010240999992014010622004+78650+016367FM-12+002099999V0209999C999999999999N999999999-02041-02361102281ADDMA1999990102131MD1210041+9990REMSYN04801024 46/// /0000 11204 21236 30213 40228 52004=
0089010240999992014010623004+78650+016367FM-12+002099999V0209999C999999999999N999999999-01961-02271102301ADDMA1999990102161MD1210061+9990REMSYN04801024 46/// /0000 11196 21227 30216 40230 52006=
0113010240999992014010700004+78650+016367FM-12+002099999V0209999C999999999999N999999999-02031-02371102291ADDMA1999990102141MD1510021+9990OD139900201999REMSYN05801024 46/// /0000 11203 21237 30214 40229 55002 333 91102=
0108010240999992014010701004+78650+016367FM-12+002099999V0209999C999999999999N999999999-01971-02351102301ADDMA1999990102151MD1290029+9990REMSYN04801024 46/// /0000 11197 21235 30215 40230 54002=EQDQ01.2    3APC3  
0089010240999992014010702004+78650+016367FM-12+002099999V0203101N001019999999N999999999-01911-02221102311ADDMA1999990102161MD1410001+9990REMSYN04801024 46/// /3101 11191 21222 30216 40231 54000=
0108010240999992014010703004+78650+016367FM-12+002099999V0209999C999999999999N999999999-02041-02361102301ADDMA1999990102151MD1290019+9990REMSYN04801024 46/// /0000 11204 21236 30215 40230 54001=EQDQ01.1    3APC3  
0108010240999992014010704004+78650+016367FM-12+002099999V0209999C999999999999N999999999-01901-02251102291ADDMA1999990102141MD1790019+9990REMSYN04801024 46/// /0000 11190 21225 30214 40229 54001=EQDQ01.1    3APC3  
0089010240999992014010705004+78650+016367FM-12+002099999V0200501N001019999999N999999999-01801-02141102271ADDMA1999990102131MD1710031+9990REMSYN04801024 46/// /0501 11180 21214 30213 40227 57003=
0151010240999992014010706004+78650+016367FM-12+002099999V0209999C999999999999N999999999-01961-02191102271ADDKA1240N-02091MA1999990102131MD1790039+9990OD139900201999REMSYN06401024 46/// /0000 11196 21219 30213 40227 54002 333 21209 91102=EQDQ01.2    3APC3  
0108010240999992014010707004+78650+016367FM-12+002099999V0209999C999999999999N999999999-01811-02201102281ADDMA1999990102131MD1790019+9990REMSYN04801024 46/// /0000 11181 21220 30213 40228 54001=EQDQ01.1    3APC3  
0108010240999992014010708004+78650+016367FM-12+002099999V0200601N001019999999N999999999-01641-02021102281ADDMA1999990102141MD1290019+9990REMSYN04801024 46/// /0601 11164 21202 30214 40228 54001=EQDQ01.1    3APC3  
0108010240999992014010709004+78650+016367FM-12+002099999V0203201N001019999999N999999999-01551-01981102301ADDMA1999990102151MD1290039+9990REMSYN04801024 46/// /3201 11155 21198 30215 40230 54003=EQDQ01.3    3APC3  
0089010240999992014010710004+78650+016367FM-12+002099999V0203201N001019999999N999999999-01721-02141102311ADDMA1999990102171MD1210041+9990REMSYN04801024 46/// /3201 11172 21214 30217 40231 52004=
0089010240999992014010711004+78650+016367FM-12+002099999V0200701N001019999999N999999999-01791-02241102341ADDMA1999990102201MD1210061+9990REMSYN04801024 46/// /0701 11179 21224 30220 40234 52006=
0113010240999992014010712004+78650+016367FM-12+002099999V0209999C999999999999N999999999-01611-02051102361ADDMA1999990102211MD1210061+9990OD139900301999REMSYN05801024 46/// /0000 11161 21205 30221 40236 52006 333 91103=
0089010240999992014010713004+78650+016367FM-12+002099999V0209999C999999999999N999999999-01731-02051102361ADDMA1999990102211MD1210041+9990REMSYN04801024 46/// /0000 11173 21205 30221 40236 52004=
0108010240999992014010714004+78650+016367FM-12+002099999V0209999C999999999999N999999999-01831-02191102371ADDMA1999990102221MD1290039+9990REMSYN04801024 46/// /0000 11183 21219 30222 40237 54003=EQDQ01.3    3APC3  
0108010240999992014010715004+78650+016367FM-12+002099999V0200801N002019999999N999999999-01681-02061102371ADDMA1999990102231MD1290019+9990REMSYN04801024 46/// /0802 11168 21206 30223 40237 54001=EQDQ01.1    3APC3  
0108010240999992014010716004+78650+016367FM-12+002099999V0203301N001019999999N999999999-01741-02101102381ADDMA1999990102241MD1290029+9990REMSYN04801024 46/// /3301 11174 21210 30224 40238 54003=EQDQ01.3    3APC3  
0108010240999992014010717004+78650+016367FM-12+002099999V0203101N001019999999N999999999-01571-02081102391ADDMA1999990102251MD1290029+9990REMSYN04801024 46/// /3101 11157 21208 30225 40239 54002=EQDQ01.2    3APC3  
0132010240999992014010718004+78650+016367FM-12+002099999V0209999C999999999999N999999999-01741-02361102421ADDKA1120M-01411MA1999990102271MD1210051+9990OD139900201999REMSYN06401024 46/// /0000 11174 21236 30227 40242 52005 333 11141 91102=
0089010240999992014010719004+78650+016367FM-12+002099999V0209999C999999999999N999999999-01881-02281102441ADDMA1999990102301MD1210061+9990REMSYN04801024 46/// /0000 11188 21228 30230 40244 52006=
0089010240999992014010720004+78650+016367FM-12+002099999V0209999C999999999999N999999999-01691-02241102471ADDMA1999990102321MD1210081+9990REMSYN04801024 46/// /0000 11169 21224 30232 40247 52008=
0089010240999992014010723004+78650+016367FM-12+002099999V0203301N001019999999N999999999-01691-02211102541ADDMA1999990102391MD1210071+9990REMSYN04801024 46/// /3301 11169 21221 30239 40254 52007=
0089010240999992014010800004+78650+016367FM-12+002099999V0209999C999999999999N999999999-01781-02341102521ADDMA1999990102381MD1310041+9990REMSYN04801024 46/// /0000 11178 21234 30238 40252 53004=
0094010240999992014010801004+78650+016367FM-12+002099999V0209999C999999999999N999999999-01801-02301102541ADDMA1999990102391REMSYN04801024 46/// /0000 11180 21230 30239 40254 54002=EQDQ014     3APCTEN
0089010240999992014010802004+78650+016367FM-12+002099999V0209999C999999999999N999999999-01831-02361102531ADDMA1999990102391MD1410001+9990REMSYN04801024 46/// /0000 11183 21236 30239 40253 54000=
0089010240999992014010803004+78650+016367FM-12+002099999V0209999C999999999999N999999999-01741-02341102531ADDMA1999990102381MD1410001+9990REMSYN04801024 46/// /0000 11174 21234 30238 40253 54000=
0108010240999992014010804004+78650+016367FM-12+002099999V0209999C999999999999N999999999-01881-02411102521ADDMA1999990102371MD1790029+9990REMSYN04801024 46/// /0000 11188 21241 30237 40252 54002=EQDQ01.2    3APC3  
0108010240999992014010805004+78650+016367FM-12+002099999V0209999C999999999999N999999999-01831-02341102521ADDMA1999990102381MD1790019+9990REMSYN04801024 46/// /0000 11183 21234 30238 40252 54001=EQDQ01.1    3APC3  
0132010240999992014010806004+78650+016367FM-12+002099999V0203401N001019999999N999999999-01931-02451102521ADDMA1999990102371MD1790019+9990OD139900101999REMSYN05801024 46/// /3401 11193 21245 30237 40252 54001 333 91101=EQDQ01.1    3APC3  
0108010240999992014010807004+78650+016367FM-12+002099999V0209999C999999999999N999999999-01971-02561102511ADDMA1999990102361MD1790019+9990REMSYN04801024 46/// /0000 11197 21256 30236 40251 54001=EQDQ01.1    3APC3  
0089010240999992014010808004+78650+016367FM-12+002099999V0203001N001019999999N999999999-01871-02471102521ADDMA1999990102381MD1410001+9990REMSYN04801024 46/// /3001 11187 21247 30238 40252 54000=
0108010240999992014010809004+78650+016367FM-12+002099999V0209999C999999999999N999999999-01771-02391102531ADDMA1999990102381MD1290019+9990REMSYN04801024 46/// /0000 11177 21239 30238 40253 54001=EQDQ01.1    3APC3  
0108010240999992014010810004+78650+016367FM-12+002099999V0209999C999999999999N999999999-01921-02591102521ADDMA1999990102371MD1290019+9990REMSYN04801024 46/// /0000 11192 21259 30237 40252 54001=EQDQ01.1    3APC3  
0108010240999992014010811004+78650+016367FM-12+002099999V0200801N001019999999N999999999-01871-02521102531ADDMA1999990102391MD1290019+9990REMSYN04801024 46/// /0801 11187 21252 30239 40253 54002=EQDQ01.2    3APC3  
0132010240999992014010812004+78650+016367FM-12+002099999V0200901N001019999999N999999999-01871-02451102511ADDMA1999990102371MD1790029+9990OD139900201999REMSYN05801024 46/// /0901 11187 21245 30237 40251 54002 333 91102=EQDQ01.2    3APC3  
0089010240999992014010813004+78650+016367FM-12+002099999V0209999C999999999999N999999999-01761-02461102511ADDMA1999990102371MD1410001+9990REMSYN04801024 46/// /0000 11176 21246 30237 40251 54000=
0089010240999992014010814004+78650+016367FM-12+002099999V0209999C999999999999N999999999-01871-02561102501ADDMA1999990102361MD1710031+9990REMSYN04801024 46/// /0000 11187 21256 30236 40250 57003=
0089010240999992014010815004+78650+016367FM-12+002099999V0203401N001019999999N999999999-01631-02501102451ADDMA1999990102311MD1610061+9990REMSYN04801024 46/// /3401 11163 21250 30231 40245 56006=
0089010240999992014010816004+78650+016367FM-12+002099999V0200701N001019999999N999999999-01841-02261102411ADDMA1999990102271MD1610101+9990REMSYN04801024 46/// /0701 11184 21226 30227 40241 56010=
0089010240999992014010817004+78650+016367FM-12+002099999V0209999C999999999999N999999999-01971-02601102411ADDMA1999990102271MD1810091+9990REMSYN04801024 46/// /0000 11197 21260 30227 40241 58009=
0132010240999992014010818004+78650+016367FM-12+002099999V0203301N001019999999N999999999-01751-02431102401ADDKA1120M-01611MA1999990102261MD1810051+9990OD139900201999REMSYN06401024 46/// /3301 11175 21243 30226 40240 58005 333 11161 91102=
0094010240999992014010819004+78650+016367FM-12+002099999V0203501N001019999999N999999999-01791-02481102421ADDMA1999990102281REMSYN04801024 46/// /3501 11179 21248 30228 40242 54001=EQDQ014     3APCTEN
0089010240999992014010820004+78650+016367FM-12+002099999V0209999C999999999999N999999999-01881-02481102381ADDMA1999990102231MD1610031+9990REMSYN04801024 46/// /0000 11188 21248 30223 40238 56003=
0108010240999992014010821004+78650+016367FM-12+002099999V0200901N002019999999N999999999-01811-02481102371ADDMA1999990102231MD1790039+9990REMSYN04801024 46/// /0902 11181 21248 30223 40237 54003=EQDQ01.3    3APC3  
0089010240999992014010822004+78650+016367FM-12+002099999V0209999C999999999999N999999999-01761-02421102341ADDMA1999990102201MD1710081+9990REMSYN04801024 46/// /0000 11176 21242 30220 40234 57008=
0089010240999992014010823004+78650+016367FM-12+002099999V0200701N002019999999N999999999-01651-02351102331ADDMA1999990102191MD1710051+9990REMSYN04801024 46/// /0702 11165 21235 30219 40233 57005=
0113010240999992014010900004+78650+016367FM-12+002099999V0203601N001019999999N999999999-01621-02231102331ADDMA1999990102191MD1810041+9990OD139900201999REMSYN05801024 46/// /3601 11162 21223 30219 40233 58004 333 91102=
0089010240999992014010901004+78650+016367FM-12+002099999V0203501N001019999999N999999999-01761-02331102311ADDMA1999990102161MD1710031+9990REMSYN04801024 46/// /3501 11176 21233 30216 40231 57003=
0089010240999992014010902004+78650+016367FM-12+002099999V0202901N002019999999N999999999-01471-01961102231ADDMA1999990102081MD1610101+9990REMSYN04801024 46/// /2902 11147 21196 30208 40223 56010=
0089010240999992014010903004+78650+016367FM-12+002099999V0209999C999999999999N999999999-01441-02041102201ADDMA1999990102061MD1710131+9990REMSYN04801024 46/// /0000 11144 21204 30206 40220 57013=
0089010240999992014010904004+78650+016367FM-12+002099999V0203001N001019999999N999999999-01471-02001102131ADDMA1999990101991MD1710181+9990REMSYN04801024 46/// /3001 11147 21200 30199 40213 57018=
0089010240999992014010905004+78650+016367FM-12+002099999V0201001N001019999999N999999999-01411-01811102131ADDMA1999990101981MD1710101+9990REMSYN04801024 46/// /1001 11141 21181 30198 40213 57010=
0132010240999992014010906004+78650+016367FM-12+002099999V0203101N001019999999N999999999-01371-01851102121ADDKA1240N-02021MA1999990101981MD1810081+9990OD139900301999REMSYN06401024 46/// /3101 11137 21185 30198 40212 58008 333 21202 91103=
0089010240999992014010907004+78650+016367FM-12+002099999V0203301N001019999999N999999999-01311-01641102091ADDMA1999990101951MD1710031+9990REMSYN04801024 46/// /3301 11131 21164 30195 40209 57003=
0089010240999992014010908004+78650+016367FM-12+002099999V0203301N001019999999N999999999-01291-01571102061ADDMA1999990101921MD1710071+9990REMSYN04801024 46/// /3301 11129 21157 30192 40206 57007=
0089010240999992014010909004+78650+016367FM-12+002099999V0201201N001019999999N999999999-01261-01491102031ADDMA1999990101891MD1710091+9990REMSYN04801024 46/// /1201 11126 21149 30189 40203 57009=
0089010240999992014010910004+78650+016367FM-12+002099999V0209999C999999999999N999999999-01241-01431102001ADDMA1999990101861MD1710101+9990REMSYN04801024 46/// /0000 11124 21143 30186 40200 57010=
0089010240999992014010911004+78650+016367FM-12+002099999V0209999C999999999999N999999999-01211-01331101971ADDMA1999990101831MD1710091+9990REMSYN04801024 46/// /0000 11121 21133 30183 40197 57009=
0113010240999992014010912004+78650+016367FM-12+002099999V0203101N001019999999N999999999-01211-01291101901ADDMA1999990101761MD1610121+9990OD139900201999REMSYN05801024 46/// /3101 11121 21129 30176 40190 56012 333 91102=
0089010240999992014010913004+78650+016367FM-12+002099999V0203601N001019999999N999999999-01071-01121101801ADDMA1999990101671MD1610191+9990REMSYN04801024 46/// /3601 11107 21112 30167 40180 56019=
0089010240999992014010914004+78650+016367FM-12+002099999V0203601N001019999999N999999999-00961-01011101741ADDMA1999990101601MD1710231+9990REMSYN04801024 46/// /3601 11096 21101 30160 40174 57023=
0089010240999992014010915004+78650+016367FM-12+002099999V0209999C999999999999N999999999-00941-00991101661ADDMA1999990101521MD1710241+9990REMSYN04801024 46/// /0000 11094 21099 30152 40166 57024=
0089010240999992014010916004+78650+016367FM-12+002099999V0203401N001019999999N999999999-00931-00981101581ADDMA1999990101441MD1710231+9990REMSYN04801024 46/// /3401 11093 21098 30144 40158 57023=
0089010240999992014010917004+78650+016367FM-12+002099999V0209999C999999999999N999999999-00851-00901101511ADDMA1999990101371MD1710231+9990REMSYN04801024 46/// /0000 11085 21090 30137 40151 57023=
0132010240999992014010918004+78650+016367FM-12+002099999V0201101N001019999999N999999999-00861-00891101451ADDKA1120M-00831MA1999990101321MD1710211+9990OD139900201999REMSYN06401024 46/// /1101 11086 21089 30132 40145 57021 333 11083 91102=
0089010240999992014010919004+78650+016367FM-12+002099999V0200901N001019999999N999999999-00771-00781101351ADDMA1999990101211MD1610231+9990REMSYN04801024 46/// /0901 11077 21078 30121 40135 56023=
0089010240999992014010920004+78650+016367FM-12+002099999V0203101N003019999999N999999999-00411-00501101221ADDMA1999990101081MD1610291+9990REMSYN04801024 46/// /3103 11041 21050 30108 40122 56029=
0089010240999992014010921004+78650+016367FM-12+002099999V0202501N005019999999N999999999-00251-00501101141ADDMA1999990101011MD1810311+9990REMSYN04801024 46/// /2505 11025 21050 30101 40114 58031=
0089010240999992014010922004+78650+016367FM-12+002099999V0202201N005019999999N999999999-00241-00471101111ADDMA1999990100981MD1810231+9990REMSYN04801024 46/// /2205 11024 21047 30098 40111 58023=
0089010240999992014010923004+78650+016367FM-12+002099999V0202201N006019999999N999999999-00221-00501101061ADDMA1999990100921MD1710161+9990REMSYN04801024 46/// /2206 11022 21050 30092 40106 57016=
0113010240999992014011000004+78650+016367FM-12+002099999V0202501N005019999999N999999999-00191-00451101001ADDMA1999990100871MD1710141+9990OD139900901999REMSYN05801024 46/// /2505 11019 21045 30087 40100 57014 333 91109=
0089010240999992014011001004+78650+016367FM-12+002099999V0203101N002019999999N999999999-00261-00331100921ADDMA1999990100781MD1610201+9990REMSYN04801024 46/// /3102 11026 21033 30078 40092 56020=
0089010240999992014011002004+78650+016367FM-12+002099999V0202501N004019999999N999999999-00111-00361100831ADDMA1999990100701MD1610231+9990REMSYN04801024 46/// /2504 11011 21036 30070 40083 56023=
0089010240999992014011003004+78650+016367FM-12+002099999V0202101N004019999999N999999999-00131-00301100771ADDMA1999990100641MD1810231+9990REMSYN04801024 46/// /2104 11013 21030 30064 40077 58023=
0089010240999992014011004004+78650+016367FM-12+002099999V0202701N003019999999N999999999-00141-00251100671ADDMA1999990100541MD1710241+9990REMSYN04801024 46/// /2703 11014 21025 30054 40067 57024=
0089010240999992014011005004+78650+016367FM-12+002099999V0203001N003019999999N999999999-00111-00221100631ADDMA1999990100501MD1710201+9990REMSYN04801024 46/// /3003 11011 21022 30050 40063 57020=
0132010240999992014011006004+78650+016367FM-12+002099999V0202901N002019999999N999999999-00111-00171100601ADDKA1240N-00861MA1999990100461MD1810181+9990OD139900701999REMSYN06401024 46/// /2902 11011 21017 30046 40060 58018 333 21086 91107=
0089010240999992014011007004+78650+016367FM-12+002099999V0203101N003019999999N999999999-00091-00201100601ADDMA1999990100471MD1810071+9990REMSYN04801024 46/// /3103 11009 21020 30047 40060 58007=
0089010240999992014011008004+78650+016367FM-12+002099999V0209999C999999999999N999999999-00161-00181100601ADDMA1999990100471MD1900031+9990REMSYN04801024 46/// /0000 11016 21018 30047 40060 50003=
0108010240999992014011009004+78650+016367FM-12+002099999V0200701N001019999999N999999999-00211-00221100591ADDMA1999990100461MD1790019+9990REMSYN04801024 46/// /0701 11021 21022 30046 40059 54001=EQDQ01.1    3APC3  
0089010240999992014011010004+78650+016367FM-12+002099999V0203601N001019999999N999999999-00201-00211100601ADDMA1999990100461MD1410001+9990REMSYN04801024 46/// /3601 11020 21021 30046 40060 54000=
0108010240999992014011011004+78650+016367FM-12+002099999V0203101N001019999999N999999999-00221-00231100591ADDMA1999990100451MD1790019+9990REMSYN04801024 46/// /3101 11022 21023 30045 40059 54001=EQDQ01.1    3APC3  
0132010240999992014011012004+78650+016367FM-12+002099999V0209999C999999999999N999999999-00271-00281100611ADDMA1999990100481MD1290029+9990OD139900501999REMSYN05801024 46/// /0000 11027 21028 30048 40061 54002 333 91105=EQDQ01.2    3APC3  
0089010240999992014011013004+78650+016367FM-12+002099999V0202901N002019999999N999999999-00141-00351100591ADDMA1999990100461MD1410001+9990REMSYN04801024 46/// /2902 11014 21035 30046 40059 54000=
0108010240999992014011014004+78650+016367FM-12+002099999V0203001N002019999999N999999999-00121-00341100611ADDMA1999990100481MD1290029+9990REMSYN04801024 46/// /3002 11012 21034 30048 40061 54002=EQDQ01.2    3APC3  
0108010240999992014011015004+78650+016367FM-12+002099999V0203101N002019999999N999999999-00141-00391100621ADDMA1999990100491MD1290019+9990REMSYN04801024 46/// /3102 11014 21039 30049 40062 54001=EQDQ01.1    3APC3  
0089010240999992014011017004+78650+016367FM-12+002099999V0209999C999999999999N999999999-00291-00441100661ADDMA1999990100521MD1210051+9990REMSYN04801024 46/// /0000 11029 21044 30052 40066 52005=
0089010240999992014011018004+78650+016367FM-12+002099999V0209999C999999999999N999999999-00191-00501100651ADDMA1999990100521MD1210031+9990REMSYN04801024 46/// /0000 11019 21050 30052 40065 52003=
0089010240999992014011019004+78650+016367FM-12+002099999V0209999C999999999999N999999999-00291-00481100681ADDMA1999990100551MD1210051+9990REMSYN04801024 46/// /0000 11029 21048 30055 40068 52005=
0089010240999992014011020004+78650+016367FM-12+002099999V0209999C999999999999N999999999-00301-00511100731ADDMA1999990100591MD1110071+9990REMSYN04801024 46/// /0000 11030 21051 30059 40073 51007=
0089010240999992014011021004+78650+016367FM-12+002099999V0203401N001019999999N999999999-00281-00531100741ADDMA1999990100611MD1210081+9990REMSYN04801024 46/// /3401 11028 21053 30061 40074 52008=
0089010240999992014011023004+78650+016367FM-12+002099999V0203001N002019999999N999999999-00221-00511100771ADDMA1999990100641MD1210051+9990REMSYN04801024 46/// /3002 11022 21051 30064 40077 52005=
0089010240999992014011100004+78650+016367FM-12+002099999V0203101N001019999999N999999999-00271-00481100791ADDMA1999990100661MD1210051+9990REMSYN04801024 46/// /3101 11027 21048 30066 40079 52005=
0108010240999992014011103004+78650+016367FM-12+002099999V0209999C999999999999N999999999-00301-00421100801ADDMA1999990100671MD1290019+9990REMSYN04801024 46/// /0000 11030 21042 30067 40080 54001=EQDQ01.1    3APC3  
0089010240999992014011104004+78650+016367FM-12+002099999V0203101N001019999999N999999999-00361-00451100811ADDMA1999990100671MD1410001+9990REMSYN04801024 46/// /3101 11036 21045 30067 40081 54000=
0089010240999992014011105004+78650+016367FM-12+002099999V0203101N001019999999N999999999-00351-00451100801ADDMA1999990100671MD1410001+9990REMSYN04801024 46/// /3101 11035 21045 30067 40080 54000=
0108010240999992014011106004+78650+016367FM-12+002099999V0202901N001019999999N999999999-00391-00481100811ADDMA1999990100681MD1290019+9990REMSYN04801024 46/// /2901 11039 21048 30068 40081 54001=EQDQ01.1    3APC3  
0108010240999992014011107004+78650+016367FM-12+002099999V0203501N001019999999N999999999-00311-00421100831ADDMA1999990100701MD1290029+9990REMSYN04801024 46/// /3501 11031 21042 30070 40083 54003=EQDQ01.3    3APC3  
0089010240999992014011108004+78650+016367FM-12+002099999V0201001N001019999999N999999999-00371-00461100871ADDMA1999990100731MD1210061+9990REMSYN04801024 46/// /1001 11037 21046 30073 40087 52006=
0089010240999992014011110004+78650+016367FM-12+002099999V0209999C999999999999N999999999-00331-00441100911ADDMA1999990100781MD1310081+9990REMSYN04801024 46/// /0000 11033 21044 30078 40091 53008=
0089010240999992014011112004+78650+016367FM-12+002099999V0209999C999999999999N999999999-00241-00451100911ADDMA1999990100781MD1410001+9990REMSYN04801024 46/// /0000 11024 21045 30078 40091 54000=
0108010240999992014011115004+78650+016367FM-12+002099999V0200401N001019999999N999999999-00161-00441100931ADDMA1999990100801MD1290029+9990REMSYN04801024 46/// /0401 11016 21044 30080 40093 54002=EQDQ01.2    3APC3  
0089010240999992014011118004+78650+016367FM-12+002099999V0209999C999999999999N999999999-00201-00451101001ADDMA1999990100871MD1210071+9990REMSYN04801024 46/// /0000 11020 21045 30087 40100 52007=
0089010240999992014011119004+78650+016367FM-12+002099999V0203001N002019999999N999999999-00151-00431101041ADDMA1999990100911MD1210101+9990REMSYN04801024 46/// /3002 11015 21043 30091 40104 52010=
0089010240999992014011120004+78650+016367FM-12+002099999V0203001N003019999999N999999999-00161-00471101101ADDMA1999990100961MD1210121+9990REMSYN04801024 46/// /3003 11016 21047 30096 40110 52012=
0089010240999992014011121004+78650+016367FM-12+002099999V0203101N003019999999N999999999-00281-00631101151ADDMA1999990101011MD1210141+9990REMSYN04801024 46/// /3103 11028 21063 30101 40115 52014=
0089010240999992014011122004+78650+016367FM-12+002099999V0203101N004019999999N999999999-00341-00741101201ADDMA1999990101061MD1210151+9990REMSYN04801024 46/// /3104 11034 21074 30106 40120 52015=
0089010240999992014011200004+78650+016367FM-12+002099999V0200901N001019999999N999999999-00471-00741101271ADDMA1999990101141MD1210121+9990REMSYN04801024 46/// /0901 11047 21074 30114 40127 52012=
0089010240999992014011201004+78650+016367FM-12+002099999V0203101N001019999999N999999999-00501-00721101331ADDMA1999990101201MD1210131+9990REMSYN04801024 46/// /3101 11050 21072 30120 40133 52013=
0089010240999992014011202004+78650+016367FM-12+002099999V0209999C999999999999N999999999-00411-00671101351ADDMA1999990101221MD1210121+9990REMSYN04801024 46/// /0000 11041 21067 30122 40135 52012=
0089010240999992014011203004+78650+016367FM-12+002099999V0209999C999999999999N999999999-00361-00621101381ADDMA1999990101251MD1210111+9990REMSYN04801024 46/// /0000 11036 21062 30125 40138 52011=
0089010240999992014011204004+78650+016367FM-12+002099999V0200201N001019999999N999999999-00451-00641101391ADDMA1999990101251MD1210061+9990REMSYN04801024 46/// /0201 11045 21064 30125 40139 52006=
0089010240999992014011205004+78650+016367FM-12+002099999V0201201N001019999999N999999999-00461-00681101391ADDMA1999990101251MD1210041+9990REMSYN04801024 46/// /1201 11046 21068 30125 40139 52004=
0132010240999992014011206004+78650+016367FM-12+002099999V0203001N001019999999N999999999-00491-00691101411ADDMA1999990101271MD1290039+9990OD139900201999REMSYN05801024 46/// /3001 11049 21069 30127 40141 54003 333 91102=EQDQ01.3    3APC3  
0089010240999992014011207004+78650+016367FM-12+002099999V0209999C999999999999N999999999-00471-00711101451ADDMA1999990101321MD1110061+9990REMSYN04801024 46/// /0000 11047 21071 30132 40145 51006=
0089010240999992014011208004+78650+016367FM-12+002099999V0209999C999999999999N999999999-00511-00741101491ADDMA1999990101361MD1210101+9990REMSYN04801024 46/// /0000 11051 21074 30136 40149 52010=
0089010240999992014011209004+78650+016367FM-12+002099999V0209999C999999999999N999999999-00581-00771101541ADDMA1999990101411MD1210141+9990REMSYN04801024 46/// /0000 11058 21077 30141 40154 52014=
0089010240999992014011210004+78650+016367FM-12+002099999V0209999C999999999999N999999999-00471-00701101591ADDMA1999990101451MD1210141+9990REMSYN04801024 46/// /0000 11047 21070 30145 40159 52014=
0089010240999992014011211004+78650+016367FM-12+002099999V0209999C999999999999N999999999-00621-00821101641ADDMA1999990101511MD1210151+9990REMSYN04801024 46/// /0000 11062 21082 30151 40164 52015=
0089010240999992014011213004+78650+016367FM-12+002099999V0203101N001019999999N999999999-00471-00731101701ADDMA1999990101561MD1210111+9990REMSYN04801024 46/// /3101 11047 21073 30156 40170 52011=
0089010240999992014011214004+78650+016367FM-12+002099999V0203301N001019999999N999999999-00361-00731101711ADDMA1999990101571MD1210071+9990REMSYN04801024 46/// /3301 11036 21073 30157 40171 52007=
0089010240999992014011215004+78650+016367FM-12+002099999V0200401N001019999999N999999999-00361-00741101731ADDMA1999990101601MD1210061+9990REMSYN04801024 46/// /0401 11036 21074 30160 40173 52006=
0089010240999992014011216004+78650+016367FM-12+002099999V0209999C999999999999N999999999-00651-00851101751ADDMA1999990101621MD1210051+9990REMSYN04801024 46/// /0000 11065 21085 30162 40175 52005=
0089010240999992014011217004+78650+016367FM-12+002099999V0209999C999999999999N999999999-00641-00851101791ADDMA1999990101651MD1210081+9990REMSYN04801024 46/// /0000 11064 21085 30165 40179 52008=
0113010240999992014011218004+78650+016367FM-12+002099999V0209999C999999999999N999999999-00631-00961101831ADDMA1999990101691MD1210091+9990OD139900301999REMSYN05801024 46/// /0000 11063 21096 30169 40183 52009 333 91103=
0089010240999992014011219004+78650+016367FM-12+002099999V0200301N001019999999N999999999-00571-00961101841ADDMA1999990101711MD1210091+9990REMSYN04801024 46/// /0301 11057 21096 30171 40184 52009=
0089010240999992014011220004+78650+016367FM-12+002099999V0209999C999999999999N999999999-00711-00881101891ADDMA1999990101761MD1210101+9990REMSYN04801024 46/// /0000 11071 21088 30176 40189 52010=
0089010240999992014011221004+78650+016367FM-12+002099999V0200601N001019999999N999999999-00871-01141101941ADDMA1999990101801MD1110111+9990REMSYN04801024 46/// /0601 11087 21114 30180 40194 51011=
0089010240999992014011223004+78650+016367FM-12+002099999V0209999C999999999999N999999999-00751-01021101971ADDMA1999990101841MD1210081+9990REMSYN04801024 46/// /0000 11075 21102 30184 40197 52008=
0089010240999992014011300004+78650+016367FM-12+002099999V0209999C999999999999N999999999-00781-00941101981ADDMA1999990101851MD1210051+9990REMSYN04801024 46/// /0000 11078 21094 30185 40198 52005=
0089010240999992014011301004+78650+016367FM-12+002099999V0200301N001019999999N999999999-00671-00911102001ADDMA1999990101861MD1210051+9990REMSYN04801024 46/// /0301 11067 21091 30186 40200 52005=
0089010240999992014011303004+78650+016367FM-12+002099999V0209999C999999999999N999999999-00841-00971102051ADDMA1999990101911MD1210071+9990REMSYN04801024 46/// /0000 11084 21097 30191 40205 52007=
0089010240999992014011304004+78650+016367FM-12+002099999V0203201N001019999999N999999999-00791-00961102061ADDMA1999990101921MD1210061+9990REMSYN04801024 46/// /3201 11079 21096 30192 40206 52006=
0089010240999992014011305004+78650+016367FM-12+002099999V0200401N001019999999N999999999-00811-00941102061ADDMA1999990101921MD1210031+9990REMSYN04801024 46/// /0401 11081 21094 30192 40206 52003=
0113010240999992014011306004+78650+016367FM-12+002099999V0209999C999999999999N999999999-00871-01011102051ADDMA1999990101911MD1410001+9990OD139900201999REMSYN05801024 46/// /0000 11087 21101 30191 40205 54000 333 91102=
0108010240999992014011307004+78650+016367FM-12+002099999V0209999C999999999999N999999999-00651-00881102041ADDMA1999990101901MD1790029+9990REMSYN04801024 46/// /0000 11065 21088 30190 40204 54002=EQDQ01.2    3APC3  
0108010240999992014011308004+78650+016367FM-12+002099999V0209999C999999999999N999999999-00631-00831102041ADDMA1999990101911MD1790029+9990REMSYN04801024 46/// /0000 11063 21083 30191 40204 54001=EQDQ01.1    3APC3  
0108010240999992014011309004+78650+016367FM-12+002099999V0209999C999999999999N999999999-00681-00871102041ADDMA1999990101901MD1790019+9990REMSYN04801024 46/// /0000 11068 21087 30190 40204 54001=EQDQ01.1    3APC3  
0089010240999992014011310004+78650+016367FM-12+002099999V0209999C999999999999N999999999-00671-00871102011ADDMA1999990101871MD1510031+9990REMSYN04801024 46/// /0000 11067 21087 30187 40201 55003=
0089010240999992014011311004+78650+016367FM-12+002099999V0209999C999999999999N999999999-00701-00891101991ADDMA1999990101851MD1710061+9990REMSYN04801024 46/// /0000 11070 21089 30185 40199 57006=
0113010240999992014011312004+78650+016367FM-12+002099999V0209999C999999999999N999999999-00581-00811101951ADDMA1999990101811MD1710091+9990OD139900301999REMSYN05801024 46/// /0000 11058 21081 30181 40195 57009 333 91103=
0089010240999992014011313004+78650+016367FM-12+002099999V0209999C999999999999N999999999-00591-00801101951ADDMA1999990101821MD1810051+9990REMSYN04801024 46/// /0000 11059 21080 30182 40195 58005=
0089010240999992014011314004+78650+016367FM-12+002099999V0203201N001019999999N999999999-00621-00811101941ADDMA1999990101801MD1710051+9990REMSYN04801024 46/// /3201 11062 21081 30180 40194 57005=
0108010240999992014011315004+78650+016367FM-12+002099999V0201101N001019999999N999999999-00451-00741101931ADDMA1999990101791MD1790029+9990REMSYN04801024 46/// /1101 11045 21074 30179 40193 54002=EQDQ01.2    3APC3  
0108010240999992014011316004+78650+016367FM-12+002099999V0203101N002019999999N999999999-00221-00741101941ADDMA1999990101801MD1790019+9990REMSYN04801024 46/// /3102 11022 21074 30180 40194 54001=EQDQ01.1    3APC3  
0108010240999992014011317004+78650+016367FM-12+002099999V0203601N001019999999N999999999-00251-00671101951ADDMA1999990101811MD1290019+9990REMSYN04801024 46/// /3601 11025 21067 30181 40195 54001=EQDQ01.1    3APC3  
0132010240999992014011318004+78650+016367FM-12+002099999V0203101N002019999999N999999999-00271-00771101971ADDKA1120M-00121MA1999990101841MD1210041+9990OD139900401999REMSYN06401024 46/// /3102 11027 21077 30184 40197 52004 333 11012 91104=
0089010240999992014011319004+78650+016367FM-12+002099999V0203101N004019999999N999999999-00291-00771102011ADDMA1999990101881MD1110071+9990REMSYN04801024 46/// /3104 11029 21077 30188 40201 51007=
0089010240999992014011320004+78650+016367FM-12+002099999V0203101N005019999999N999999999-00371-00831102071ADDMA1999990101941MD1110121+9990REMSYN04801024 46/// /3105 11037 21083 30194 40207 51012=
0089010240999992014011321004+78650+016367FM-12+002099999V0203101N005019999999N999999999-00521-00951102111ADDMA1999990101971MD1210141+9990REMSYN04801024 46/// /3105 11052 21095 30197 40211 52014=
0089010240999992014011323004+78650+016367FM-12+002099999V0200501N001019999999N999999999-00761-01101102291ADDMA1999990102151MD1110211+9990REMSYN04801024 46/// /0501 11076 21110 30215 40229 51021=
0089010240999992014011400004+78650+016367FM-12+002099999V0203601N002019999999N999999999-00561-00951102361ADDMA1999990102221MD1310251+9990REMSYN04801024 46/// /3602 11056 21095 30222 40236 53025=
0089010240999992014011401004+78650+016367FM-12+002099999V0200501N002019999999N999999999-00641-00951102401ADDMA1999990102271MD1210191+9990REMSYN04801024 46/// /0502 11064 21095 30227 40240 52019=
0089010240999992014011402004+78650+016367FM-12+002099999V0203101N001019999999N999999999-00971-01191102431ADDMA1999990102301MD1310151+9990REMSYN04801024 46/// /3101 11097 21119 30230 40243 53015=
0089010240999992014011403004+78650+016367FM-12+002099999V0203601N001019999999N999999999-00841-01051102461ADDMA1999990102321MD1210101+9990REMSYN04801024 46/// /3601 11084 21105 30232 40246 52010=
0089010240999992014011404004+78650+016367FM-12+002099999V0209999C999999999999N999999999-01091-01181102471ADDMA1999990102331MD1210061+9990REMSYN04801024 46/// /0000 11109 21118 30233 40247 52006=
0089010240999992014011405004+78650+016367FM-12+002099999V0209999C999999999999N999999999-01021-01191102451ADDMA1999990102311MD1510021+9990REMSYN04801024 46/// /0000 11102 21119 30231 40245 55002=
0132010240999992014011406004+78650+016367FM-12+002099999V0203501N001019999999N999999999-00921-01181102441ADDMA1999990102301MD1790029+9990OD139900301999REMSYN05801024 46/// /3501 11092 21118 30230 40244 54002 333 91103=EQDQ01.2    3APC3  
0089010240999992014011407004+78650+016367FM-12+002099999V0201001N002019999999N999999999-01171-01361102461ADDMA1999990102321MD1900011+9990REMSYN04801024 46/// /1002 11117 21136 30232 40246 50001=
0089010240999992014011408004+78650+016367FM-12+002099999V0203301N001019999999N999999999-00961-01211102501ADDMA1999990102361MD1110051+9990REMSYN04801024 46/// /3301 11096 21121 30236 40250 51005=
0089010240999992014011409004+78650+016367FM-12+002099999V0209999C999999999999N999999999-01131-01311102541ADDMA1999990102401MD1210091+9990REMSYN04801024 46/// /0000 11113 21131 30240 40254 52009=
0089010240999992014011410004+78650+016367FM-12+002099999V0203501N001019999999N999999999-01111-01321102551ADDMA1999990102411MD1210091+9990REMSYN04801024 46/// /3501 11111 21132 30241 40255 52009=
0089010240999992014011411004+78650+016367FM-12+002099999V0209999C999999999999N999999999-01231-01531102571ADDMA1999990102431MD1210071+9990REMSYN04801024 46/// /0000 11123 21153 30243 40257 52007=
0132010240999992014011412004+78650+016367FM-12+002099999V0200701N001019999999N999999999-01201-01471102571ADDMA1999990102431MD1290039+9990OD139900301999REMSYN05801024 46/// /0701 11120 21147 30243 40257 54003 333 91103=EQDQ01.3    3APC3  
0108010240999992014011413004+78650+016367FM-12+002099999V0203401N001019999999N999999999-01271-01451102561ADDMA1999990102421MD1290019+9990REMSYN04801024 46/// /3401 11127 21145 30242 40256 54001=EQDQ01.1    3APC3  
0108010240999992014011414004+78650+016367FM-12+002099999V0203101N001019999999N999999999-01191-01421102551ADDMA1999990102411MD1790029+9990REMSYN04801024 46/// /3101 11119 21142 30241 40255 54002=EQDQ01.2    3APC3  
0089010240999992014011415004+78650+016367FM-12+002099999V0200701N001019999999N999999999-01381-01601102571ADDMA1999990102431MD1410001+9990REMSYN04801024 46/// /0701 11138 21160 30243 40257 54000=
0089010240999992014011416004+78650+016367FM-12+002099999V0209999C999999999999N999999999-01151-01371102571ADDMA1999990102431MD1410001+9990REMSYN04801024 46/// /0000 11115 21137 30243 40257 54000=
0108010240999992014011417004+78650+016367FM-12+002099999V0209999C999999999999N999999999-01091-01371102561ADDMA1999990102421MD1290019+9990REMSYN04801024 46/// /0000 11109 21137 30242 40256 54001=EQDQ01.1    3APC3  
0132010240999992014011418004+78650+016367FM-12+002099999V0203301N001019999999N999999999-00981-01241102501ADDKA1120M-00791MA1999990102361MD1610061+9990OD139900201999REMSYN06401024 46/// /3301 11098 21124 30236 40250 56006 333 11079 91102=
0089010240999992014011419004+78650+016367FM-12+002099999V0203001N002019999999N999999999-00801-01111102461ADDMA1999990102321MD1610101+9990REMSYN04801024 46/// /3002 11080 21111 30232 40246 56010=
0089010240999992014011420004+78650+016367FM-12+002099999V0200701N001019999999N999999999-00941-01121102451ADDMA1999990102311MD1810111+9990REMSYN04801024 46/// /0701 11094 21112 30231 40245 58011=
0089010240999992014011421004+78650+016367FM-12+002099999V0200901N001019999999N999999999-00971-01151102411ADDMA1999990102271MD1710091+9990REMSYN04801024 46/// /0901 11097 21115 30227 40241 57009=
0089010240999992014011422004+78650+016367FM-12+002099999V0209999C999999999999N999999999-00981-01151102371ADDMA1999990102241MD1710091+9990REMSYN04801024 46/// /0000 11098 21115 30224 40237 57009=
0089010240999992014011423004+78650+016367FM-12+002099999V0209999C999999999999N999999999-00881-01061102341ADDMA1999990102211MD1710101+9990REMSYN04801024 46/// /0000 11088 21106 30221 40234 57010=
0113010240999992014011500004+78650+016367FM-12+002099999V0202901N001019999999N999999999-00901-01061102311ADDMA1999990102171MD1710101+9990OD139900401999REMSYN05801024 46/// /2901 11090 21106 30217 40231 57010 333 91104=
0089010240999992014011502004+78650+016367FM-12+002099999V0209999C999999999999N999999999-00781-00991102231ADDMA1999990102091MD1710111+9990REMSYN04801024 46/// /0000 11078 21099 30209 40223 57011=
0089010240999992014011503004+78650+016367FM-12+002099999V0203601N001019999999N999999999-00761-00931102181ADDMA1999990102051MD1710121+9990REMSYN04801024 46/// /3601 11076 21093 30205 40218 57012=
0089010240999992014011504004+78650+016367FM-12+002099999V0203501N001019999999N999999999-00701-00821102141ADDMA1999990102001MD1710141+9990REMSYN04801024 46/// /3501 11070 21082 30200 40214 57014=
0089010240999992014011506004+78650+016367FM-12+002099999V0200701N001019999999N999999999-00521-00711102071ADDMA1999990101931MD1710111+9990REMSYN04801024 46/// /0701 11052 21071 30193 40207 57011=
0089010240999992014011507004+78650+016367FM-12+002099999V0209999C999999999999N999999999-00631-00681102061ADDMA1999990101921MD1710081+9990REMSYN04801024 46/// /0000 11063 21068 30192 40206 57008=
0089010240999992014011508004+78650+016367FM-12+002099999V0203201N001019999999N999999999-00591-00651102041ADDMA1999990101901MD1710071+9990REMSYN04801024 46/// /3201 11059 21065 30190 40204 57007=
0089010240999992014011509004+78650+016367FM-12+002099999V0209999C999999999999N999999999-00611-00681102031ADDMA1999990101901MD1710041+9990REMSYN04801024 46/// /0000 11061 21068 30190 40203 57004=
0089010240999992014011510004+78650+016367FM-12+002099999V0200901N001019999999N999999999-00491-00611102051ADDMA1999990101921MD1900011+9990REMSYN04801024 46/// /0901 11049 21061 30192 40205 50001=
0089010240999992014011511004+78650+016367FM-12+002099999V0209999C999999999999N999999999-00571-00591102031ADDMA1999990101901MD1410001+9990REMSYN04801024 46/// /0000 11057 21059 30190 40203 54000=
0113010240999992014011512004+78650+016367FM-12+002099999V0203001N001019999999N999999999-00451-00471101981ADDMA1999990101851MD1610051+9990OD139900201999REMSYN05801024 46/// /3001 11045 21047 30185 40198 56005 333 91102=
0089010240999992014011513004+78650+016367FM-12+002099999V0203201N001019999999N999999999-00411-00421101961ADDMA1999990101831MD1710091+9990REMSYN04801024 46/// /3201 11041 21042 30183 40196 57009=
0089010240999992014011514004+78650+016367FM-12+002099999V0209999C999999999999N999999999-00411-00421101951ADDMA1999990101821MD1810081+9990REMSYN04801024 46/// /0000 11041 21042 30182 40195 58008=
0089010240999992014011515004+78650+016367FM-12+002099999V0209999C999999999999N999999999-00481-00491101931ADDMA1999990101791MD1710051+9990REMSYN04801024 46/// /0000 11048 21049 30179 40193 57005=
0089010240999992014011517004+78650+016367FM-12+002099999V0209999C999999999999N999999999-00511-00521101911ADDMA1999990101781MD1710041+9990REMSYN04801024 46/// /0000 11051 21052 30178 40191 57004=
0089010240999992014011518004+78650+016367FM-12+002099999V0209999C999999999999N999999999-00471-00481101881ADDMA1999990101741MD1610051+9990REMSYN04801024 46/// /0000 11047 21048 30174 40188 56005=
0089010240999992014011519004+78650+016367FM-12+002099999V0209999C999999999999N999999999-00441-00441101851ADDMA1999990101721MD1710071+9990REMSYN04801024 46/// /0000 11044 21044 30172 40185 57007=
0089010240999992014011520004+78650+016367FM-12+002099999V0200701N001019999999N999999999-00461-00471101861ADDMA1999990101721MD1810051+9990REMSYN04801024 46/// /0701 11046 21047 30172 40186 58005=
0089010240999992014011521004+78650+016367FM-12+002099999V0209999C999999999999N999999999-00431-00441101871ADDMA1999990101741MD1900001+9990REMSYN04801024 46/// /0000 11043 21044 30174 40187 50000=
0089010240999992014011522004+78650+016367FM-12+002099999V0209999C999999999999N999999999-00381-00391101861ADDMA1999990101721MD1410001+9990REMSYN04801024 46/// /0000 11038 21039 30172 40186 54000=
0089010240999992014011523004+78650+016367FM-12+002099999V0202301N001019999999N999999999-00441-00451101841ADDMA1999990101711MD1510021+9990REMSYN04801024 46/// /2301 11044 21045 30171 40184 55002=
0113010240999992014011600004+78650+016367FM-12+002099999V0209999C999999999999N999999999-00371-00381101801ADDMA1999990101671MD1710071+9990OD139900201999REMSYN05801024 46/// /0000 11037 21038 30167 40180 57007 333 91102=
0089010240999992014011601004+78650+016367FM-12+002099999V0209999C999999999999N999999999-00161-00161101771ADDMA1999990101641MD1710081+9990REMSYN04801024 46/// ///// 11016 21016 30164 40177 57008=
0089010240999992014011602004+78650+016367FM-12+002099999V0202401N004019999999N999999999+00131-00321101751ADDMA1999990101621MD1710091+9990REMSYN04801024 46/// /2404 10013 21032 30162 40175 57009=
0089010240999992014011603004+78650+016367FM-12+002099999V0202301N003019999999N999999999+00131-00281101741ADDMA1999990101611MD1710061+9990REMSYN04801024 46/// /2303 10013 21028 30161 40174 57006=
0089010240999992014011604004+78650+016367FM-12+002099999V0202201N002019999999N999999999+00121-00201101741ADDMA1999990101601MD1710041+9990REMSYN04801024 46/// /2202 10012 21020 30160 40174 57004=
0089010240999992014011605004+78650+016367FM-12+002099999V0202401N003019999999N999999999+00121-00201101701ADDMA1999990101571MD1710051+9990REMSYN04801024 46/// /2403 10012 21020 30157 40170 57005=
0132010240999992014011606004+78650+016367FM-12+002099999V0203101N004019999999N999999999+00051-00121101661ADDKA1240N-00521MA1999990101531MD1610081+9990OD139900801999REMSYN06401024 46/// /3104 10005 21012 30153 40166 56008 333 21052 91108=
0089010240999992014011607004+78650+016367FM-12+002099999V0202901N004019999999N999999999+00081-00171101651ADDMA1999990101521MD1710081+9990REMSYN04801024 46/// /2904 10008 21017 30152 40165 57008=
0089010240999992014011608004+78650+016367FM-12+002099999V0202901N005019999999N999999999+00101-00291101651ADDMA1999990101511MD1810051+9990REMSYN04801024 46/// /2905 10010 21029 30151 40165 58005=
0089010240999992014011609004+78650+016367FM-12+002099999V0202901N005019999999N999999999+00111-00321101681ADDMA1999990101541MD1900021+9990REMSYN04801024 46/// /2905 10011 21032 30154 40168 50002=
0108010240999992014011610004+78650+016367FM-12+002099999V0202601N005019999999N999999999+00121-00421101671ADDMA1999990101541MD1290029+9990REMSYN04801024 46/// /2605 10012 21042 30154 40167 54002=EQDQ01.2    3APC3  
0089010240999992014011611004+78650+016367FM-12+002099999V0202401N004019999999N999999999+00101-00441101641ADDMA1999990101511MD1510001+9990REMSYN04801024 46/// /2404 10010 21044 30151 40164 55000=
0113010240999992014011612004+78650+016367FM-12+002099999V0202701N005019999999N999999999+00101-00421101581ADDMA1999990101451MD1610101+9990OD139900801999REMSYN05801024 46/// /2705 10010 21042 30145 40158 56010 333 91108=
0089010240999992014011613004+78650+016367FM-12+002099999V0202401N004019999999N999999999+00131-00431101521ADDMA1999990101391MD1610151+9990REMSYN04801024 46/// /2404 10013 21043 30139 40152 56015=
0089010240999992014011614004+78650+016367FM-12+002099999V0202601N005019999999N999999999+00101-00351101451ADDMA1999990101321MD1710191+9990REMSYN04801024 46/// /2605 10010 21035 30132 40145 57019=
0089010240999992014011615004+78650+016367FM-12+002099999V0202201N004019999999N999999999+00081-00241101421ADDMA1999990101291MD1710161+9990REMSYN04801024 46/// /2204 10008 21024 30129 40142 57016=
0089010240999992014011616004+78650+016367FM-12+002099999V0202301N005019999999N999999999+00071-00201101391ADDMA1999990101261MD1810131+9990REMSYN04801024 46/// /2305 10007 21020 30126 40139 58013=
0089010240999992014011617004+78650+016367FM-12+002099999V0202101N004019999999N999999999+00091-00181101381ADDMA1999990101251MD1710081+9990REMSYN04801024 46/// /2104 10009 21018 30125 40138 57008=
0132010240999992014011618004+78650+016367FM-12+002099999V0201901N003019999999N999999999+00031-00161101341ADDKA1120M+00151MA1999990101211MD1710071+9990OD139900801999REMSYN06401024 46/// /1903 10003 21016 30121 40134 57007 333 10015 91108=
0089010240999992014011619004+78650+016367FM-12+002099999V0201701N001019999999N999999999-00021-00071101321ADDMA1999990101191MD1710071+9990REMSYN04801024 46/// /1701 11002 21007 30119 40132 57007=
0089010240999992014011620004+78650+016367FM-12+002099999V0202001N003019999999N999999999+00091-00201101281ADDMA1999990101151MD1710091+9990REMSYN04801024 46/// /2003 10009 21020 30115 40128 57009=
0089010240999992014011621004+78650+016367FM-12+002099999V0201901N002019999999N999999999+00111-00191101281ADDMA1999990101151MD1710061+9990REMSYN04801024 46/// /1902 10011 21019 30115 40128 57006=
0089010240999992014011622004+78650+016367FM-12+002099999V0202201N004019999999N999999999+00121-00121101291ADDMA1999990101161MD1900031+9990REMSYN04801024 46/// /2204 10012 21012 30116 40129 50003=
0089010240999992014011623004+78650+016367FM-12+002099999V0202701N005019999999N999999999+00131-00141101251ADDMA1999990101121MD1610031+9990REMSYN04801024 46/// /2705 10013 21014 30112 40125 56003=
0113010240999992014011700004+78650+016367FM-12+002099999V0202801N006019999999N999999999+00131-00111101221ADDMA1999990101091MD1610061+9990OD139900801999REMSYN05801024 46/// /2806 10013 21011 30109 40122 56006 333 91108=
0089010240999992014011701004+78650+016367FM-12+002099999V0202701N009019999999N999999999+00131-00061101231ADDMA1999990101091MD1810061+9990REMSYN04801024 46/// /2709 10013 21006 30109 40123 58006=
0089010240999992014011702004+78650+016367FM-12+002099999V0202701N007019999999N999999999+00121-00141101211ADDMA1999990101081MD1710041+9990REMSYN04801024 46/// /2707 10012 21014 30108 40121 57004=
0108010240999992014011703004+78650+016367FM-12+002099999V0202601N009019999999N999999999+00111-00191101211ADDMA1999990101071MD1790019+9990REMSYN04801024 46/// /2609 10011 21019 30107 40121 54002=EQDQ01.2    3APC3  
0108010240999992014011704004+78650+016367FM-12+002099999V0202901N007019999999N999999999+00001-00241101221ADDMA1999990101081MD1790019+9990REMSYN04801024 46/// /2907 10000 21024 30108 40122 54001=EQDQ01.1    3APC3  
0089010240999992014011706004+78650+016367FM-12+002099999V0202901N004019999999N999999999+00041-00331101291ADDMA1999990101161MD1210081+9990REMSYN04801024 46/// /2904 10004 21033 30116 40129 52008=
0089010240999992014011707004+78650+016367FM-12+002099999V0202801N004019999999N999999999-00031-00121101281ADDMA1999990101151MD1310071+9990REMSYN04801024 46/// /2804 11003 21012 30115 40128 53007=
0094010240999992014011708004+78650+016367FM-12+002099999V0203201N006019999999N999999999-00071-00281101281ADDMA1999990101151REMSYN04801024 46/// /3206 11007 21028 30115 40128 54002=EQDQ014     3APCTEN
0108010240999992014011709004+78650+016367FM-12+002099999V0203001N004019999999N999999999-00091-00311101301ADDMA1999990101171MD1290019+9990REMSYN04801024 46/// /3004 11009 21031 30117 40130 54001=EQDQ01.1    3APC3  
0108010240999992014011710004+78650+016367FM-12+002099999V0203101N003019999999N999999999-00101-00291101311ADDMA1999990101181MD1290039+9990REMSYN04801024 46/// /3103 11010 21029 30118 40131 54002=EQDQ01.2    3APC3  
0089010240999992014011711004+78650+016367FM-12+002099999V0203201N004019999999N999999999-00051-00181101301ADDMA1999990101161MD1510021+9990REMSYN04801024 46/// /3204 11005 21018 30116 40130 55002=
0132010240999992014011712004+78650+016367FM-12+002099999V0203301N005019999999N999999999-00081-00221101281ADDMA1999990101141MD1790029+9990OD139900901999REMSYN05801024 46/// /3305 11008 21022 30114 40128 54002 333 91109=EQDQ01.2    3APC3  
0089010240999992014011713004+78650+016367FM-12+002099999V0202801N002019999999N999999999-00211-00221101261ADDMA1999990101131MD1710051+9990REMSYN04801024 46/// /2802 11021 21022 30113 40126 57005=
0089010240999992014011714004+78650+016367FM-12+002099999V0203001N003019999999N999999999-00121-00271101251ADDMA1999990101111MD1710051+9990REMSYN04801024 46/// /3003 11012 21027 30111 40125 57005=
0089010240999992014011715004+78650+016367FM-12+002099999V0203101N003019999999N999999999-00141-00281101241ADDMA1999990101101MD1710041+9990REMSYN04801024 46/// /3103 11014 21028 30110 40124 57004=
0108010240999992014011716004+78650+016367FM-12+002099999V0203101N003019999999N999999999-00121-00261101241ADDMA1999990101111MD1790029+9990REMSYN04801024 46/// /3103 11012 21026 30111 40124 54002=EQDQ01.2    3APC3  
0108010240999992014011717004+78650+016367FM-12+002099999V0203101N003019999999N999999999-00131-00271101231ADDMA1999990101101MD1790029+9990REMSYN04801024 46/// /3103 11013 21027 30110 40123 54001=EQDQ01.1    3APC3  
0151010240999992014011718004+78650+016367FM-12+002099999V0202901N002019999999N999999999-00121-00191101231ADDKA1120M+00061MA1999990101101MD1790019+9990OD139900601999REMSYN06401024 46/// /2902 11012 21019 30110 40123 54001 333 10006 91106=EQDQ01.1    3APC3  
0089010240999992014011719004+78650+016367FM-12+002099999V0203101N004019999999N999999999-00081-00171101201ADDMA1999990101071MD1710041+9990REMSYN04801024 46/// /3104 11008 21017 30107 40120 57004=
0089010240999992014011720004+78650+016367FM-12+002099999V0203101N004019999999N999999999-00061-00191101161ADDMA1999990101031MD1610071+9990REMSYN04801024 46/// /3104 11006 21019 30103 40116 56007=
0089010240999992014011721004+78650+016367FM-12+002099999V0203001N003019999999N999999999-00101-00111101161ADDMA1999990101031MD1810071+9990REMSYN04801024 46/// /3003 11010 21011 30103 40116 58007=
0089010240999992014011722004+78650+016367FM-12+002099999V0202401N004019999999N999999999+00051-00161101151ADDMA1999990101011MD1710051+9990REMSYN04801024 46/// /2404 10005 21016 30101 40115 57005=
0089010240999992014011723004+78650+016367FM-12+002099999V0202701N006019999999N999999999+00151-00301101101ADDMA1999990100971MD1610061+9990REMSYN04801024 46/// /2706 10015 21030 30097 40110 56006=
0113010240999992014011800004+78650+016367FM-12+002099999V0202601N008019999999N999999999+00191-00201101081ADDMA1999990100951MD1710081+9990OD139901001999REMSYN05801024 46/// /2608 10019 21020 30095 40108 57008 333 91110=
0089010240999992014011801004+78650+016367FM-12+002099999V0202801N005019999999N999999999+00151-00191101081ADDMA1999990100951MD1810071+9990REMSYN04801024 46/// /2805 10015 21019 30095 40108 58007=
0089010240999992014011802004+78650+016367FM-12+002099999V0202701N006019999999N999999999+00191-00151101031ADDMA1999990100901MD1710071+9990REMSYN04801024 46/// /2706 10019 21015 30090 40103 57007=
0089010240999992014011803004+78650+016367FM-12+002099999V0202601N007019999999N999999999+00201-00141101001ADDMA1999990100871MD1610071+9990REMSYN04801024 46/// /2607 10020 21014 30087 40100 56007=
0089010240999992014011804004+78650+016367FM-12+002099999V0202801N006019999999N999999999+00151-00061101021ADDMA1999990100891MD1810061+9990REMSYN04801024 46/// /2806 10015 21006 30089 40102 58006=
0089010240999992014011805004+78650+016367FM-12+002099999V0202501N009019999999N999999999+00221-00161100971ADDMA1999990100841MD1710061+9990REMSYN04801024 46/// /2509 10022 21016 30084 40097 57006=
0132010240999992014011806004+78650+016367FM-12+002099999V0202601N009019999999N999999999+00201-00111100961ADDKA1240N-00121MA1999990100831MD1710041+9990OD139901301999REMSYN06401024 46/// /2609 10020 21011 30083 40096 57004 333 21012 91113=
0089010240999992014011807004+78650+016367FM-12+002099999V0202501N007019999999N999999999+00201-00121100941ADDMA1999990100811MD1710081+9990REMSYN04801024 46/// /2507 10020 21012 30081 40094 57008=
0089010240999992014011808004+78650+016367FM-12+002099999V0202601N011019999999N999999999+00181-00031100931ADDMA1999990100801MD1710051+9990REMSYN04801024 46/// /2611 10018 21003 30080 40093 57005=
0089010240999992014011809004+78650+016367FM-12+002099999V0202601N009019999999N999999999+00191-00021100911ADDMA1999990100781MD1710051+9990REMSYN04801024 46/// /2609 10019 21002 30078 40091 57005=
0089010240999992014011810004+78650+016367FM-12+002099999V0202601N007019999999N999999999+00201-00061100941ADDMA1999990100811MD1900001+9990REMSYN04801024 46/// /2607 10020 21006 30081 40094 50000=
0089010240999992014011811004+78650+016367FM-12+002099999V0202901N008019999999N999999999+00091-00391101011ADDMA1999990100871MD1110081+9990REMSYN04801024 46/// /2908 10009 21039 30087 40101 51008=
0113010240999992014011812004+78650+016367FM-12+002099999V0202901N007019999999N999999999-00111-00581101081ADDMA1999990100951MD1110171+9990OD139901401999REMSYN05801024 46/// /2907 11011 21058 30095 40108 51017 333 91114=
0089010240999992014011813004+78650+016367FM-12+002099999V0203101N004019999999N999999999-00321-00721101181ADDMA1999990101041MD1210231+9990REMSYN04801024 46/// /3104 11032 21072 30104 40118 52023=
0089010240999992014011814004+78650+016367FM-12+002099999V0203001N008019999999N999999999-00391-00791101201ADDMA1999990101071MD1310191+9990REMSYN04801024 46/// /3008 11039 21079 30107 40120 53019=
0089010240999992014011815004+78650+016367FM-12+002099999V0203001N006019999999N999999999-00521-00911101301ADDMA1999990101161MD1210211+9990REMSYN04801024 46/// /3006 11052 21091 30116 40130 52021=
0089010240999992014011816004+78650+016367FM-12+002099999V0203101N005019999999N999999999-00601-01011101411ADDMA1999990101281MD1110241+9990REMSYN04801024 46/// /3105 11060 21101 30128 40141 51024=
0089010240999992014011817004+78650+016367FM-12+002099999V0203101N003019999999N999999999-00721-01171101531ADDMA1999990101391MD1210321+9990REMSYN04801024 46/// /3103 11072 21117 30139 40153 52032=
0132010240999992014011818004+78650+016367FM-12+002099999V0200101N003019999999N999999999-00631-01151101581ADDKA1120M+00241MA1999990101441MD1310281+9990OD139901001999REMSYN06401024 46/// /0103 11063 21115 30144 40158 53028 333 10024 91110=
0089010240999992014011819004+78650+016367FM-12+002099999V0200101N001019999999N999999999-00841-01211101671ADDMA1999990101531MD1210251+9990REMSYN04801024 46/// /0101 11084 21121 30153 40167 52025=
0089010240999992014011820004+78650+016367FM-12+002099999V0203201N001019999999N999999999-00911-01221101741ADDMA1999990101611MD1210221+9990REMSYN04801024 46/// /3201 11091 21122 30161 40174 52022=
0089010240999992014011821004+78650+016367FM-12+002099999V0203301N001019999999N999999999-01081-01371101821ADDMA1999990101681MD1210241+9990REMSYN04801024 46/// /3301 11108 21137 30168 40182 52024=
0089010240999992014011823004+78650+016367FM-12+002099999V0209999C999999999999N999999999-01181-01431101911ADDMA1999990101771MD1310171+9990REMSYN04801024 46/// /0000 11118 21143 30177 40191 53017=
0089010240999992014011900004+78650+016367FM-12+002099999V0203201N001019999999N999999999-01101-01401101941ADDMA1999990101801MD1210121+9990REMSYN04801024 46/// /3201 11110 21140 30180 40194 52012=
0089010240999992014011901004+78650+016367FM-12+002099999V0203201N001019999999N999999999-01111-01431102001ADDMA1999990101861MD1210131+9990REMSYN04801024 46/// /3201 11111 21143 30186 40200 52013=
0089010240999992014011902004+78650+016367FM-12+002099999V0203401N001019999999N999999999-01221-01411102041ADDMA1999990101901MD1210131+9990REMSYN04801024 46/// /3401 11122 21141 30190 40204 52013=
0089010240999992014011903004+78650+016367FM-12+002099999V0203101N001019999999N999999999-01181-01531102061ADDMA1999990101921MD1310121+9990REMSYN04801024 46/// /3101 11118 21153 30192 40206 53012=
0089010240999992014011904004+78650+016367FM-12+002099999V0200301N001019999999N999999999-01431-01591102091ADDMA1999990101951MD1210091+9990REMSYN04801024 46/// /0301 11143 21159 30195 40209 52009=
0089010240999992014011905004+78650+016367FM-12+002099999V0209999C999999999999N999999999-01441-01601102141ADDMA1999990102001MD1210101+9990REMSYN04801024 46/// /0000 11144 21160 30200 40214 52010=
0113010240999992014011906004+78650+016367FM-12+002099999V0209999C999999999999N999999999-01391-01491102161ADDMA1999990102011MD1210101+9990OD139900301999REMSYN05801024 46/// /0000 11139 21149 30201 40216 52010 333 91103=
0089010240999992014011907004+78650+016367FM-12+002099999V0209999C999999999999N999999999-01491-01801102181ADDMA1999990102041MD1210091+9990REMSYN04801024 46/// /0000 11149 21180 30204 40218 52009=
0089010240999992014011908004+78650+016367FM-12+002099999V0200601N001019999999N999999999-01381-01651102221ADDMA1999990102081MD1210091+9990REMSYN04801024 46/// /0601 11138 21165 30208 40222 52009=
0089010240999992014011909004+78650+016367FM-12+002099999V0203201N001019999999N999999999-01371-01641102261ADDMA1999990102121MD1210111+9990REMSYN04801024 46/// /3201 11137 21164 30212 40226 52011=
0089010240999992014011910004+78650+016367FM-12+002099999V0200301N001019999999N999999999-01301-01571102301ADDMA1999990102161MD1210111+9990REMSYN04801024 46/// /0301 11130 21157 30216 40230 52011=
0089010240999992014011911004+78650+016367FM-12+002099999V0200201N001019999999N999999999-01391-01661102331ADDMA1999990102191MD1210111+9990REMSYN04801024 46/// /0201 11139 21166 30219 40233 52011=
0113010240999992014011912004+78650+016367FM-12+002099999V0209999C999999999999N999999999-01391-01551102351ADDMA1999990102211MD1210091+9990OD139900201999REMSYN05801024 46/// /0000 11139 21155 30221 40235 52009 333 91102=
0089010240999992014011913004+78650+016367FM-12+002099999V0200301N001019999999N999999999-01341-01581102361ADDMA1999990102221MD1210061+9990REMSYN04801024 46/// /0301 11134 21158 30222 40236 52006=
0089010240999992014011914004+78650+016367FM-12+002099999V0200901N001019999999N999999999-01391-01571102341ADDMA1999990102201MD1510011+9990REMSYN04801024 46/// /0901 11139 21157 30220 40234 55001=
0108010240999992014011915004+78650+016367FM-12+002099999V0200301N001019999999N999999999-01211-01471102341ADDMA1999990102201MD1790019+9990REMSYN04801024 46/// /0301 11121 21147 30220 40234 54001=EQDQ01.1    3APC3  
0108010240999992014011916004+78650+016367FM-12+002099999V0201801N001019999999N999999999-01501-01701102341ADDMA1999990102201MD1790029+9990REMSYN04801024 46/// /1801 11150 21170 30220 40234 54002=EQDQ01.2    3APC3  
0108010240999992014011917004+78650+016367FM-12+002099999V0203201N002019999999N999999999-01351-01591102321ADDMA1999990102181MD1790029+9990REMSYN04801024 46/// /3202 11135 21159 30218 40232 54002=EQDQ01.2    3APC3  
0132010240999992014011918004+78650+016367FM-12+002099999V0200501N001019999999N999999999-01291-01511102281ADDKA1120M-01191MA1999990102141MD1610051+9990OD139900301999REMSYN06401024 46/// /0501 11129 21151 30214 40228 56005 333 11119 91103=
0089010240999992014011919004+78650+016367FM-12+002099999V0203001N001019999999N999999999-01601-01801102321ADDMA1999990102181MD1900011+9990REMSYN04801024 46/// /3001 11160 21180 30218 40232 50001=
0089010240999992014011920004+78650+016367FM-12+002099999V0209999C999999999999N999999999-01711-01931102361ADDMA1999990102211MD1900031+9990REMSYN04801024 46/// /0000 11171 21193 30221 40236 50003=
0089010240999992014011921004+78650+016367FM-12+002099999V0209999C999999999999N999999999-01561-01761102361ADDMA1999990102211MD1310071+9990REMSYN04801024 46/// /0000 11156 21176 30221 40236 53007=
0089010240999992014011922004+78650+016367FM-12+002099999V0209999C999999999999N999999999-01301-01531102281ADDMA1999990102141MD1510041+9990REMSYN04801024 46/// /0000 11130 21153 30214 40228 55004=
0089010240999992014011923004+78650+016367FM-12+002099999V0203001N003019999999N999999999-00991-01541102241ADDMA1999990102101MD1610121+9990REMSYN04801024 46/// /3003 11099 21154 30210 40224 56012=
0113010240999992014012000004+78650+016367FM-12+002099999V0201101N001019999999N999999999-01341-01611102231ADDMA1999990102091MD1810121+9990OD139900401999REMSYN05801024 46/// /1101 11134 21161 30209 40223 58012 333 91104=
0089010240999992014012001004+78650+016367FM-12+002099999V0203501N001019999999N999999999-01111-01471102191ADDMA1999990102051MD1710091+9990REMSYN04801024 46/// /3501 11111 21147 30205 40219 57009=
0089010240999992014012002004+78650+016367FM-12+002099999V0209999C999999999999N999999999-01161-01451102171ADDMA1999990102031MD1710071+9990REMSYN04801024 46/// /0000 11116 21145 30203 40217 57007=
0089010240999992014012003004+78650+016367FM-12+002099999V0203001N001019999999N999999999-01061-01391102111ADDMA1999990101971MD1710121+9990REMSYN04801024 46/// /3001 11106 21139 30197 40211 57012=
0089010240999992014012004004+78650+016367FM-12+002099999V0209999C999999999999N999999999-01021-01281102071ADDMA1999990101931MD1710121+9990REMSYN04801024 46/// /0000 11102 21128 30193 40207 57012=
0089010240999992014012005004+78650+016367FM-12+002099999V0209999C999999999999N999999999-00931-01191102031ADDMA1999990101891MD1710141+9990REMSYN04801024 46/// /0000 11093 21119 30189 40203 57014=
0132010240999992014012006004+78650+016367FM-12+002099999V0209999C999999999999N999999999-00941-01121102001ADDKA1240N-01811MA1999990101861MD1710101+9990OD139900201999REMSYN06401024 46/// /0000 11094 21112 30186 40200 57010 333 21181 91102=
0089010240999992014012007004+78650+016367FM-12+002099999V0209999C999999999999N999999999-00931-01021101961ADDMA1999990101831MD1710111+9990REMSYN04801024 46/// /0000 11093 21102 30183 40196 57011=
0089010240999992014012008004+78650+016367FM-12+002099999V0209999C999999999999N999999999-00851-00901101921ADDMA1999990101781MD1710111+9990REMSYN04801024 46/// /0000 11085 21090 30178 40192 57011=
0089010240999992014012009004+78650+016367FM-12+002099999V0209999C999999999999N999999999-00731-00741101891ADDMA1999990101751MD1710111+9990REMSYN04801024 46/// /0000 11073 21074 30175 40189 57011=
0089010240999992014012010004+78650+016367FM-12+002099999V0209999C999999999999N999999999-00761-00771101861ADDMA1999990101721MD1710101+9990REMSYN04801024 46/// /0000 11076 21077 30172 40186 57010=
0089010240999992014012011004+78650+016367FM-12+002099999V0209999C999999999999N999999999-00701-00711101821ADDMA1999990101681MD1710101+9990REMSYN04801024 46/// /0000 11070 21071 30168 40182 57010=
0113010240999992014012012004+78650+016367FM-12+002099999V0209999C999999999999N999999999-00671-00681101731ADDMA1999990101591MD1610161+9990OD139900101999REMSYN05801024 46/// /0000 11067 21068 30159 40173 56016 333 91101=
0089010240999992014012013004+78650+016367FM-12+002099999V0200801N001019999999N999999999-00601-00601101641ADDMA1999990101501MD1610221+9990REMSYN04801024 46/// /0801 11060 21060 30150 40164 56022=
0089010240999992014012014004+78650+016367FM-12+002099999V0209999C999999999999N999999999-00651-00661101591ADDMA1999990101451MD1810231+9990REMSYN04801024 46/// /0000 11065 21066 30145 40159 58023=
0089010240999992014012015004+78650+016367FM-12+002099999V0209999C999999999999N999999999-00631-00631101521ADDMA1999990101381MD1710211+9990REMSYN04801024 46/// /0000 11063 21063 30138 40152 57021=
0089010240999992014012016004+78650+016367FM-12+002099999V0209999C999999999999N999999999-00581-00591101451ADDMA1999990101321MD1710181+9990REMSYN04801024 46/// /0000 11058 21059 30132 40145 57018=
0089010240999992014012017004+78650+016367FM-12+002099999V0209999C999999999999N999999999-00511-00521101421ADDMA1999990101291MD1810171+9990REMSYN04801024 46/// /0000 11051 21052 30129 40142 58017=
0132010240999992014012018004+78650+016367FM-12+002099999V0209999C999999999999N999999999-00411-00421101411ADDKA1120M-00391MA1999990101281MD1810111+9990OD139900201999REMSYN06401024 46/// /0000 11041 21042 30128 40141 58011 333 11039 91102=
0089010240999992014012019004+78650+016367FM-12+002099999V0209999C999999999999N999999999-00401-00421101451ADDMA1999990101311MD1900001+9990REMSYN04801024 46/// /0000 11040 21042 30131 40145 50000=
0089010240999992014012021004+78650+016367FM-12+002099999V0200401N001019999999N999999999-00241-00491101541ADDMA1999990101411MD1110131+9990REMSYN04801024 46/// /0401 11024 21049 30141 40154 51013=
0089010240999992014012022004+78650+016367FM-12+002099999V0203101N005019999999N999999999-00221-00481101541ADDMA1999990101411MD1210091+9990REMSYN04801024 46/// /3105 11022 21048 30141 40154 52009=
0089010240999992014012023004+78650+016367FM-12+002099999V0203001N004019999999N999999999-00151-00491101541ADDMA1999990101411MD1310091+9990REMSYN04801024 46/// /3004 11015 21049 30141 40154 53009=
0089010240999992014012100004+78650+016367FM-12+002099999V0203001N005019999999N999999999-00211-00421101541ADDMA1999990101411MD1410001+9990REMSYN04801024 46/// /3005 11021 21042 30141 40154 54000=
0108010240999992014012101004+78650+016367FM-12+002099999V0203001N005019999999N999999999-00211-00431101521ADDMA1999990101391MD1790029+9990REMSYN04801024 46/// /3005 11021 21043 30139 40152 54002=EQDQ01.2    3APC3  
0089010240999992014012102004+78650+016367FM-12+002099999V0202601N006019999999N999999999-00121-00421101481ADDMA1999990101351MD1610061+9990REMSYN04801024 46/// /2606 11012 21042 30135 40148 56006=
0089010240999992014012103004+78650+016367FM-12+002099999V0202901N005019999999N999999999-00171-00541101491ADDMA1999990101351MD1710061+9990REMSYN04801024 46/// /2905 11017 21054 30135 40149 57006=
0089010240999992014012104004+78650+016367FM-12+002099999V0203101N003019999999N999999999-00321-00611101521ADDMA1999990101391MD1900001+9990REMSYN04801024 46/// /3103 11032 21061 30139 40152 50000=
0089010240999992014012105004+78650+016367FM-12+002099999V0203301N005019999999N999999999-00411-00731101541ADDMA1999990101411MD1210061+9990REMSYN04801024 46/// /3305 11041 21073 30141 40154 52006=
0113010240999992014012106004+78650+016367FM-12+002099999V0203401N004019999999N999999999-00381-00781101551ADDMA1999990101421MD1210071+9990OD139900801999REMSYN05801024 46/// /3404 11038 21078 30142 40155 52007 333 91108=
0089010240999992014012107004+78650+016367FM-12+002099999V0203201N005019999999N999999999-00481-00891101561ADDMA1999990101421MD1210041+9990REMSYN04801024 46/// /3205 11048 21089 30142 40156 52004=
0089010240999992014012108004+78650+016367FM-12+002099999V0203101N004019999999N999999999-00521-01031101611ADDMA1999990101471MD1110061+9990REMSYN04801024 46/// /3104 11052 21103 30147 40161 51006=
0089010240999992014012109004+78650+016367FM-12+002099999V0203001N004019999999N999999999-00681-01201101641ADDMA1999990101511MD1110091+9990REMSYN04801024 46/// /3004 11068 21120 30151 40164 51009=
0089010240999992014012110004+78650+016367FM-12+002099999V0203201N001019999999N999999999-00671-01231101701ADDMA1999990101571MD1210141+9990REMSYN04801024 46/// /3201 11067 21123 30157 40170 52014=
0089010240999992014012111004+78650+016367FM-12+002099999V0209999C999999999999N999999999-01021-01241101731ADDMA1999990101591MD1210121+9990REMSYN04801024 46/// /0000 11102 21124 30159 40173 52012=
0113010240999992014012112004+78650+016367FM-12+002099999V0203401N001019999999N999999999-00981-01361101751ADDMA1999990101611MD1310101+9990OD139900701999REMSYN05801024 46/// /3401 11098 21136 30161 40175 53010 333 91107=
0089010240999992014012113004+78650+016367FM-12+002099999V0203001N001019999999N999999999-01091-01321101771ADDMA1999990101641MD1210071+9990REMSYN04801024 46/// /3001 11109 21132 30164 40177 52007=
0089010240999992014012114004+78650+016367FM-12+002099999V0203301N001019999999N999999999-00861-01211101781ADDMA1999990101641MD1210051+9990REMSYN04801024 46/// /3301 11086 21121 30164 40178 52005=
0089010240999992014012115004+78650+016367FM-12+002099999V0203301N002019999999N999999999-00891-01321101791ADDMA1999990101651MD1210051+9990REMSYN04801024 46/// /3302 11089 21132 30165 40179 52005=
0089010240999992014012116004+78650+016367FM-12+002099999V0203301N002019999999N999999999-00961-01361101831ADDMA1999990101691MD1110051+9990REMSYN04801024 46/// /3302 11096 21136 30169 40183 51005=
0089010240999992014012117004+78650+016367FM-12+002099999V0200101N001019999999N999999999-00951-01321101841ADDMA1999990101701MD1210061+9990REMSYN04801024 46/// /0101 11095 21132 30170 40184 52006=
0132010240999992014012118004+78650+016367FM-12+002099999V0200701N002019999999N999999999-01051-01381101851ADDKA1120M-00371MA1999990101711MD1210061+9990OD139900301999REMSYN06401024 46/// /0702 11105 21138 30171 40185 52006 333 11037 91103=
0108010240999992014012119004+78650+016367FM-12+002099999V0200201N001019999999N999999999-01001-01461101851ADDMA1999990101711MD1290029+9990REMSYN04801024 46/// /0201 11100 21146 30171 40185 54003=EQDQ01.3    3APC3  
0089010240999992014012120004+78650+016367FM-12+002099999V0203301N001019999999N999999999-00911-01371101841ADDMA1999990101701MD1410001+9990REMSYN04801024 46/// /3301 11091 21137 30170 40184 54000=
0089010240999992014012121004+78650+016367FM-12+002099999V0201001N001019999999N999999999-00971-01381101851ADDMA1999990101721MD1410001+9990REMSYN04801024 46/// /1001 11097 21138 30172 40185 54000=
0108010240999992014012122004+78650+016367FM-12+002099999V0203201N001019999999N999999999-00731-01201101841ADDMA1999990101701MD1790019+9990REMSYN04801024 46/// /3201 11073 21120 30170 40184 54001=EQDQ01.1    3APC3  
0089010240999992014012123004+78650+016367FM-12+002099999V0203101N002019999999N999999999-00611-01101101811ADDMA1999990101671MD1510031+9990REMSYN04801024 46/// /3102 11061 21110 30167 40181 55003=
0113010240999992014012200004+78650+016367FM-12+002099999V0200101N002019999999N999999999-00611-01021101781ADDMA1999990101641MD1710071+9990OD139900501999REMSYN05801024 46/// /0102 11061 21102 30164 40178 57007 333 91105=
0089010240999992014012201004+78650+016367FM-12+002099999V0203101N001019999999N999999999-00821-01021101751ADDMA1999990101611MD1710091+9990REMSYN04801024 46/// /3101 11082 21102 30161 40175 57009=
0089010240999992014012202004+78650+016367FM-12+002099999V0209999C999999999999N999999999-00631-00961101671ADDMA1999990101531MD1610141+9990REMSYN04801024 46/// /0000 11063 21096 30153 40167 56014=
0089010240999992014012203004+78650+016367FM-12+002099999V0209999C999999999999N999999999-00411-00841101611ADDMA1999990101471MD1610171+9990REMSYN04801024 46/// /0000 11041 21084 30147 40161 56017=
0089010240999992014012204004+78650+016367FM-12+002099999V0202801N002019999999N999999999-00391-00511101551ADDMA1999990101421MD1710201+9990REMSYN04801024 46/// /2802 11039 21051 30142 40155 57020=
0089010240999992014012205004+78650+016367FM-12+002099999V0209999C999999999999N999999999-00671-00841101511ADDMA1999990101381MD1710161+9990REMSYN04801024 46/// /0000 11067 21084 30138 40151 57016=
0132010240999992014012206004+78650+016367FM-12+002099999V0200801N001019999999N999999999-00471-00691101461ADDKA1240N-01311MA1999990101321MD1710151+9990OD139900401999REMSYN06401024 46/// /0801 11047 21069 30132 40146 57015 333 21131 91104=
0089010240999992014012207004+78650+016367FM-12+002099999V0203101N002019999999N999999999-00561-00661101401ADDMA1999990101261MD1710151+9990REMSYN04801024 46/// /3102 11056 21066 30126 40140 57015=
0089010240999992014012208004+78650+016367FM-12+002099999V0203101N001019999999N999999999-00361-00371101341ADDMA1999990101201MD1710171+9990REMSYN04801024 46/// /3101 11036 21037 30120 40134 57017=
0089010240999992014012209004+78650+016367FM-12+002099999V0203401N001019999999N999999999-00441-00441101291ADDMA1999990101151MD1710171+9990REMSYN04801024 46/// /3401 11044 21044 30115 40129 57017=
0089010240999992014012210004+78650+016367FM-12+002099999V0209999C999999999999N999999999-00381-00391101211ADDMA1999990101071MD1710191+9990REMSYN04801024 46/// /0000 11038 21039 30107 40121 57019=
0089010240999992014012211004+78650+016367FM-12+002099999V0200701N001019999999N999999999-00351-00361101151ADDMA1999990101021MD1710191+9990REMSYN04801024 46/// /0701 11035 21036 30102 40115 57019=
0113010240999992014012212004+78650+016367FM-12+002099999V0209999C999999999999N999999999-00421-00431101081ADDMA1999990100951MD1710201+9990OD139900301999REMSYN05801024 46/// /0000 11042 21043 30095 40108 57020 333 91103=
0089010240999992014012213004+78650+016367FM-12+002099999V0209999C999999999999N999999999-00391-00401101031ADDMA1999990100901MD1710171+9990REMSYN04801024 46/// /0000 11039 21040 30090 40103 57017=
0089010240999992014012214004+78650+016367FM-12+002099999V0201001N001019999999N999999999-00331-00341100981ADDMA1999990100851MD1710171+9990REMSYN04801024 46/// /1001 11033 21034 30085 40098 57017=
0089010240999992014012215004+78650+016367FM-12+002099999V0209999C999999999999N999999999-00411-00421100941ADDMA1999990100801MD1710151+9990REMSYN04801024 46/// /0000 11041 21042 30080 40094 57015=
