0110010340999992014052221004+70317+020150FM-12+003899999V0203401N004019999999N999999999+03001+00371099851ADDAA103000091MA1999990088591MD1900141+9990REMSYN05801034 46/// /3404 10300 20037 38859 49985 5/014 333 60007=
0110010340999992014052303004+70317+020150FM-12+003899999V0200401N008019999999N999999999+02891+00041099981ADDAA103000091MA1999990088661MD1900131+9990REMSYN05801034 46/// /0408 10289 20004 38866 49998 5/013 333 60007=
