0113010330999992014010100004+70250+019500FM-12+002499999V0201101N018019999999N999999999+00031-00591100811ADDMA1999990100501MD1810071+9990OD139902201999REMSYN05801033 46/// /1118 10003 21059 30050 40081 58007 333 91122=
0089010330999992014010101004+70250+019500FM-12+002499999V0201001N013019999999N999999999+00011-00641100911ADDMA1999990100601MD1510001+9990REMSYN04801033 46/// /1013 10001 21064 30060 40091 55000=
0089010330999992014010102004+70250+019500FM-12+002499999V0201001N015019999999N999999999+00001-00541100891ADDMA1999990100571MD1510021+9990REMSYN04801033 46/// /1015 10000 21054 30057 40089 55002=
0089010330999992014010104004+70250+019500FM-12+002499999V0201101N015019999999N999999999+00011-00591100821ADDMA1999990100511MD1810101+9990REMSYN04801033 46/// /1115 10001 21059 30051 40082 58010=
0089010330999992014010105004+70250+019500FM-12+002499999V0201101N014019999999N999999999+00071-00611100801ADDMA1999990100491MD1810081+9990REMSYN04801033 46/// /1114 10007 21061 30049 40080 58008=
0132010330999992014010106004+70250+019500FM-12+002499999V0201101N013019999999N999999999+00051-00581100791ADDKA1240N-00011MA1999990100481MD1610111+9990OD139902101999REMSYN06401033 46/// /1113 10005 21058 30048 40079 56011 333 21001 91121=
0089010330999992014010107004+70250+019500FM-12+002499999V0201201N010019999999N999999999+00141-00591100781ADDMA1999990100471MD1810021+9990REMSYN04801033 46/// /1210 10014 21059 30047 40078 58002=
0089010330999992014010108004+70250+019500FM-12+002499999V0201301N010019999999N999999999+00141-00601100791ADDMA1999990100481MD1410001+9990REMSYN04801033 46/// /1310 10014 21060 30048 40079 54000=
0089010330999992014010109004+70250+019500FM-12+002499999V0201201N012019999999N999999999+00111-00601100821ADDMA1999990100511MD1900021+9990REMSYN04801033 46/// /1212 10011 21060 30051 40082 50002=
0089010330999992014010110004+70250+019500FM-12+002499999V0201401N004019999999N999999999+00181-00631100921ADDMA1999990100611MD1310141+9990REMSYN04801033 46/// /1404 10018 21063 30061 40092 53014=
0089010330999992014010111004+70250+019500FM-12+002499999V0201501N003019999999N999999999+00191-00651100911ADDMA1999990100601MD1900121+9990REMSYN04801033 46/// /1503 10019 21065 30060 40091 50012=
0113010330999992014010112004+70250+019500FM-12+002499999V0200801N001019999999N999999999+00141-00651100931ADDMA1999990100621MD1110111+9990OD139901501999REMSYN05801033 46/// /0801 10014 21065 30062 40093 51011 333 91115=
0089010330999992014010113004+70250+019500FM-12+002499999V0200901N001019999999N999999999+00241-00571100911ADDMA1999990100601MD1510011+9990REMSYN04801033 46/// /0901 10024 21057 30060 40091 55001=
0089010330999992014010114004+70250+019500FM-12+002499999V0201601N008019999999N999999999+00241-00511100911ADDMA1999990100601MD1510011+9990REMSYN04801033 46/// /1608 10024 21051 30060 40091 55001=
0089010330999992014010115004+70250+019500FM-12+002499999V0201501N012019999999N999999999+00201-00451100871ADDMA1999990100561MD1610061+9990REMSYN04801033 46/// /1512 10020 21045 30056 40087 56006=
0089010330999992014010116004+70250+019500FM-12+002499999V0201501N010019999999N999999999+00141-00391100871ADDMA1999990100561MD1710041+9990REMSYN04801033 46/// /1510 10014 21039 30056 40087 57004=
0089010330999992014010117004+70250+019500FM-12+002499999V0201501N008019999999N999999999+00111-00401100851ADDMA1999990100541MD1710051+9990REMSYN04801033 46/// /1508 10011 21040 30054 40085 57005=
0132010330999992014010118004+70250+019500FM-12+002499999V0201501N009019999999N999999999+00101-00371100841ADDKA1120M+00261MA1999990100531MD1810031+9990OD139901501999REMSYN06401033 46/// /1509 10010 21037 30053 40084 58003 333 10026 91115=
0089010330999992014010119004+70250+019500FM-12+002499999V0201501N007019999999N999999999+00131-00401100801ADDMA1999990100491MD1810071+9990REMSYN04801033 46/// /1507 10013 21040 30049 40080 58007=
0089010330999992014010120004+70250+019500FM-12+002499999V0201501N005019999999N999999999+00141-00371100791ADDMA1999990100481MD1810061+9990REMSYN04801033 46/// /1505 10014 21037 30048 40079 58006=
0089010330999992014010121004+70250+019500FM-12+002499999V0201601N005019999999N999999999+00151-00321100801ADDMA1999990100491MD1510041+9990REMSYN04801033 46/// /1605 10015 21032 30049 40080 55004=
0089010330999992014010122004+70250+019500FM-12+002499999V0201501N007019999999N999999999+00171-00401100761ADDMA1999990100451MD1810041+9990REMSYN04801033 46/// /1507 10017 21040 30045 40076 58004=
0089010330999992014010123004+70250+019500FM-12+002499999V0201601N004019999999N999999999+00181-00451100771ADDMA1999990100461MD1810021+9990REMSYN04801033 46/// /1604 10018 21045 30046 40077 58002=
0113010330999992014010200004+70250+019500FM-12+002499999V0201101N002019999999N999999999+00161-00431100751ADDMA1999990100441MD1810051+9990OD139901201999REMSYN05801033 46/// /1102 10016 21043 30044 40075 58005 333 91112=
0089010330999992014010201004+70250+019500FM-12+002499999V0201501N002019999999N999999999+00131-00431100691ADDMA1999990100381MD1810071+9990REMSYN04801033 46/// /1502 10013 21043 30038 40069 58007=
0089010330999992014010202004+70250+019500FM-12+002499999V0201501N005019999999N999999999+00201-00451100661ADDMA1999990100351MD1810111+9990REMSYN04801033 46/// /1505 10020 21045 30035 40066 58011=
0089010330999992014010203004+70250+019500FM-12+002499999V0200901N003019999999N999999999+00151-00501100591ADDMA1999990100281MD1810161+9990REMSYN04801033 46/// /0903 10015 21050 30028 40059 58016=
0089010330999992014010204004+70250+019500FM-12+002499999V0201601N002019999999N999999999+00211-00521100531ADDMA1999990100221MD1810161+9990REMSYN04801033 46/// /1602 10021 21052 30022 40053 58016=
0089010330999992014010205004+70250+019500FM-12+002499999V0201001N002019999999N999999999+00171-00541100461ADDMA1999990100151MD1810191+9990REMSYN04801033 46/// /1002 10017 21054 30015 40046 58019=
0132010330999992014010206004+70250+019500FM-12+002499999V0201201N006019999999N999999999+00231-00491100401ADDKA1240N+00091MA1999990100091MD1710191+9990OD139901001999REMSYN06401033 46/// /1206 10023 21049 30009 40040 57019 333 20009 91110=
0089010330999992014010207004+70250+019500FM-12+002499999V0200301N002019999999N999999999+00221-00531100371ADDMA1999990100061MD1710161+9990REMSYN04801033 46/// /0302 10022 21053 30006 40037 57016=
0089010330999992014010208004+70250+019500FM-12+002499999V0201501N007019999999N999999999+00291-00531100351ADDMA1999990100041MD1710111+9990REMSYN04801033 46/// /1507 10029 21053 30004 40035 57011=
0089010330999992014010209004+70250+019500FM-12+002499999V0201501N009019999999N999999999+00331-00431100321ADDMA1999990100011MD1710081+9990REMSYN04801033 46/// /1509 10033 21043 30001 40032 57008=
0089010330999992014010210004+70250+019500FM-12+002499999V0201501N010019999999N999999999+00331-00371100311ADDMA1999990100001MD1710061+9990REMSYN04801033 46/// /1510 10033 21037 30000 40031 57006=
0089010330999992014010211004+70250+019500FM-12+002499999V0201601N010019999999N999999999+00371-00311100281ADDMA1999990099971MD1710071+9990REMSYN04801033 46/// /1610 10037 21031 39997 40028 57007=
0113010330999992014010212004+70250+019500FM-12+002499999V0201501N011019999999N999999999+00391-00261100271ADDMA1999990099961MD1710051+9990OD139901401999REMSYN05801033 46/// /1511 10039 21026 39996 40027 57005 333 91114=
0089010330999992014010213004+70250+019500FM-12+002499999V0201601N006019999999N999999999+00431-00201100261ADDMA1999990099951MD1710041+9990REMSYN04801033 46/// /1606 10043 21020 39995 40026 57004=
0089010330999992014010214004+70250+019500FM-12+002499999V0201701N004019999999N999999999+00451-00271100271ADDMA1999990099961MD1510021+9990REMSYN04801033 46/// /1704 10045 21027 39996 40027 55002=
0089010330999992014010215004+70250+019500FM-12+002499999V0201501N005019999999N999999999+00441-00291100241ADDMA1999990099931MD1810031+9990REMSYN04801033 46/// /1505 10044 21029 39993 40024 58003=
0089010330999992014010216004+70250+019500FM-12+002499999V0201901N004019999999N999999999+00421-00171100261ADDMA1999990099951MD1510001+9990REMSYN04801033 46/// /1904 10042 21017 39995 40026 55000=
0089010330999992014010217004+70250+019500FM-12+002499999V0201801N004019999999N999999999+00411-00221100241ADDMA1999990099931MD1810021+9990REMSYN04801033 46/// /1804 10041 21022 39993 40024 58002=
0132010330999992014010218004+70250+019500FM-12+002499999V0201501N008019999999N999999999+00431-00391100211ADDKA1120M+00461MA1999990099901MD1810031+9990OD139901301999REMSYN06401033 46/// /1508 10043 21039 39990 40021 58003 333 10046 91113=
0089010330999992014010219004+70250+019500FM-12+002499999V0201501N006019999999N999999999+00391-00421100221ADDMA1999990099911MD1510051+9990REMSYN04801033 46/// /1506 10039 21042 39991 40022 55005=
0089010330999992014010220004+70250+019500FM-12+002499999V0201501N006019999999N999999999+00371-00451100231ADDMA1999990099921MD1510011+9990REMSYN04801033 46/// /1506 10037 21045 39992 40023 55001=
0089010330999992014010221004+70250+019500FM-12+002499999V0201401N005019999999N999999999+00351-00461100231ADDMA1999990099921MD1210031+9990REMSYN04801033 46/// /1405 10035 21046 39992 40023 52003=
0089010330999992014010222004+70250+019500FM-12+002499999V0201501N005019999999N999999999+00341-00441100231ADDMA1999990099921MD1210011+9990REMSYN04801033 46/// /1505 10034 21044 39992 40023 52001=
0089010330999992014010223004+70250+019500FM-12+002499999V0201501N004019999999N999999999+00331-00421100211ADDMA1999990099901MD1710021+9990REMSYN04801033 46/// /1504 10033 21042 39990 40021 57002=
0113010330999992014010300004+70250+019500FM-12+002499999V0201601N004019999999N999999999+00311-00421100221ADDMA1999990099911MD1710011+9990OD139901001999REMSYN05801033 46/// /1604 10031 21042 39991 40022 57001 333 91110=
0089010330999992014010301004+70250+019500FM-12+002499999V0201601N001019999999N999999999+00321-00531100151ADDMA1999990099841MD1810081+9990REMSYN04801033 46/// /1601 10032 21053 39984 40015 58008=
0089010330999992014010302004+70250+019500FM-12+002499999V0201601N003019999999N999999999+00321-00371100141ADDMA1999990099831MD1810071+9990REMSYN04801033 46/// /1603 10032 21037 39983 40014 58007=
0089010330999992014010303004+70250+019500FM-12+002499999V0201701N003019999999N999999999+00281-00361100151ADDMA1999990099841MD1510071+9990REMSYN04801033 46/// /1703 10028 21036 39984 40015 55007=
0089010330999992014010304004+70250+019500FM-12+002499999V0201601N002019999999N999999999+00271-00431100111ADDMA1999990099801MD1710031+9990REMSYN04801033 46/// /1602 10027 21043 39980 40011 57003=
0089010330999992014010305004+70250+019500FM-12+002499999V0201801N002019999999N999999999+00321-00271100081ADDMA1999990099771MD1810051+9990REMSYN04801033 46/// /1802 10032 21027 39977 40008 58005=
0132010330999992014010306004+70250+019500FM-12+002499999V0202601N001019999999N999999999+00341-00391100071ADDKA1240N+00241MA1999990099761MD1710081+9990OD139900601999REMSYN06401033 46/// /2601 10034 21039 39976 40007 57008 333 20024 91106=
0089010330999992014010307004+70250+019500FM-12+002499999V0201601N002019999999N999999999+00331-00181100091ADDMA1999990099781MD1510031+9990REMSYN04801033 46/// /1602 10033 21018 39978 40009 55003=
0089010330999992014010308004+70250+019500FM-12+002499999V0201801N002019999999N999999999+00341-00121100101ADDMA1999990099791MD1210021+9990REMSYN04801033 46/// /1802 10034 21012 39979 40010 52002=
0089010330999992014010309004+70250+019500FM-12+002499999V0200101N002019999999N999999999+00351-00271100131ADDMA1999990099821MD1210061+9990REMSYN04801033 46/// /0102 10035 21027 39982 40013 52006=
0089010330999992014010310004+70250+019500FM-12+002499999V0200201N001019999999N999999999+00361-00351100121ADDMA1999990099811MD1210031+9990REMSYN04801033 46/// /0201 10036 21035 39981 40012 52003=
0089010330999992014010311004+70250+019500FM-12+002499999V0200201N001019999999N999999999+00351-00361100101ADDMA1999990099791MD1900001+9990REMSYN04801033 46/// /0201 10035 21036 39979 40010 50000=
0113010330999992014010312004+70250+019500FM-12+002499999V0201401N001019999999N999999999+00341-00261100101ADDMA1999990099791MD1710031+9990OD139900501999REMSYN05801033 46/// /1401 10034 21026 39979 40010 57003 333 91105=
0089010330999992014010313004+70250+019500FM-12+002499999V0201801N002019999999N999999999+00421-00281100081ADDMA1999990099771MD1710041+9990REMSYN04801033 46/// /1802 10042 21028 39977 40008 57004=
0089010330999992014010314004+70250+019500FM-12+002499999V0201701N002019999999N999999999+00401-00151100051ADDMA1999990099741MD1710051+9990REMSYN04801033 46/// /1702 10040 21015 39974 40005 57005=
0089010330999992014010315004+70250+019500FM-12+002499999V0203501N001019999999N999999999+00411-00121100021ADDMA1999990099711MD1710081+9990REMSYN04801033 46/// /3501 10041 21012 39971 40002 57008=
0089010330999992014010316004+70250+019500FM-12+002499999V0201601N001019999999N999999999+00371-00171099971ADDMA1999990099661MD1810111+9990REMSYN04801033 46/// /1601 10037 21017 39966 49997 58011=
0089010330999992014010317004+70250+019500FM-12+002499999V0201601N004019999999N999999999+00401-00091099931ADDMA1999990099621MD1710121+9990REMSYN04801033 46/// /1604 10040 21009 39962 49993 57012=
0132010330999992014010318004+70250+019500FM-12+002499999V0201401N002019999999N999999999+00391-00081099891ADDKA1120M+00431MA1999990099581MD1710131+9990OD139900601999REMSYN06401033 46/// /1402 10039 21008 39958 49989 57013 333 10043 91106=
0089010330999992014010319004+70250+019500FM-12+002499999V0200601N001019999999N999999999+00361-00161099841ADDMA1999990099531MD1710141+9990REMSYN04801033 46/// /0601 10036 21016 39953 49984 57014=
0089010330999992014010320004+70250+019500FM-12+002499999V0201801N003019999999N999999999+00361-00151099781ADDMA1999990099471MD1710151+9990REMSYN04801033 46/// /1803 10036 21015 39947 49978 57015=
0089010330999992014010321004+70250+019500FM-12+002499999V0201501N001019999999N999999999+00441-00111099761ADDMA1999990099451MD1710131+9990REMSYN04801033 46/// /1501 10044 21011 39945 49976 57013=
0089010330999992014010322004+70250+019500FM-12+002499999V0200801N001019999999N999999999+00441-00091099721ADDMA1999990099411MD1710111+9990REMSYN04801033 46/// /0801 10044 21009 39941 49972 57011=
0089010330999992014010323004+70250+019500FM-12+002499999V0201701N002019999999N999999999+00421-00101099701ADDMA1999990099391MD1710091+9990REMSYN04801033 46/// /1702 10042 21010 39939 49970 57009=
0113010330999992014010400004+70250+019500FM-12+002499999V0201901N004019999999N999999999+00451-00031099691ADDMA1999990099381MD1710071+9990OD139900601999REMSYN05801033 46/// /1904 10045 21003 39938 49969 57007 333 91106=
0089010330999992014010401004+70250+019500FM-12+002499999V0201701N003019999999N999999999+00421+00001099671ADDMA1999990099361MD1710051+9990REMSYN04801033 46/// /1703 10042 21000 39936 49967 57005=
0089010330999992014010402004+70250+019500FM-12+002499999V0201501N003019999999N999999999+00411-00021099661ADDMA1999990099351MD1710041+9990REMSYN04801033 46/// /1503 10041 21002 39935 49966 57004=
0089010330999992014010403004+70250+019500FM-12+002499999V0201601N004019999999N999999999+00471-00011099631ADDMA1999990099321MD1810061+9990REMSYN04801033 46/// /1604 10047 21001 39932 49963 58006=
0089010330999992014010404004+70250+019500FM-12+002499999V0201801N004019999999N999999999+00481-00061099591ADDMA1999990099281MD1810091+9990REMSYN04801033 46/// /1804 10048 21006 39928 49959 58009=
0089010330999992014010405004+70250+019500FM-12+002499999V0201801N003019999999N999999999+00501-00091099541ADDMA1999990099231MD1710121+9990REMSYN04801033 46/// /1803 10050 21009 39923 49954 57012=
0132010330999992014010406004+70250+019500FM-12+002499999V0201801N004019999999N999999999+00531-00131099531ADDKA1240N+00361MA1999990099231MD1510091+9990OD139900901999REMSYN06401033 46/// /1804 10053 21013 39923 49953 55009 333 20036 91109=
0089010330999992014010407004+70250+019500FM-12+002499999V0201701N003019999999N999999999+00501-00151099511ADDMA1999990099201MD1610071+9990REMSYN04801033 46/// /1703 10050 21015 39920 49951 56007=
0089010330999992014010408004+70250+019500FM-12+002499999V0201501N006019999999N999999999+00491-00171099521ADDMA1999990099211MD1710031+9990REMSYN04801033 46/// /1506 10049 21017 39921 49952 57003=
0089010330999992014010409004+70250+019500FM-12+002499999V0201601N006019999999N999999999+00511-00211099471ADDMA1999990099171MD1710061+9990REMSYN04801033 46/// /1606 10051 21021 39917 49947 57006=
0089010330999992014010410004+70250+019500FM-12+002499999V0201601N005019999999N999999999+00531-00241099471ADDMA1999990099171MD1710031+9990REMSYN04801033 46/// /1605 10053 21024 39917 49947 57003=
0089010330999992014010411004+70250+019500FM-12+002499999V0201501N005019999999N999999999+00491-00241099491ADDMA1999990099181MD1710031+9990REMSYN04801033 46/// /1505 10049 21024 39918 49949 57003=
0113010330999992014010412004+70250+019500FM-12+002499999V0201701N003019999999N999999999+00461-00261099491ADDMA1999990099181MD1410001+9990OD139900901999REMSYN05801033 46/// /1703 10046 21026 39918 49949 54000 333 91109=
0089010330999992014010413004+70250+019500FM-12+002499999V0201701N006019999999N999999999+00471-00201099511ADDMA1999990099201MD1110031+9990REMSYN04801033 46/// /1706 10047 21020 39920 49951 51003=
0089010330999992014010414004+70250+019500FM-12+002499999V0201601N007019999999N999999999+00531-00301099491ADDMA1999990099191MD1900011+9990REMSYN04801033 46/// /1607 10053 21030 39919 49949 50001=
0089010330999992014010415004+70250+019500FM-12+002499999V0201501N007019999999N999999999+00551-00301099521ADDMA1999990099221MD1210041+9990REMSYN04801033 46/// /1507 10055 21030 39922 49952 52004=
0089010330999992014010416004+70250+019500FM-12+002499999V0201601N007019999999N999999999+00541-00311099521ADDMA1999990099221MD1210021+9990REMSYN04801033 46/// /1607 10054 21031 39922 49952 52002=
0089010330999992014010417004+70250+019500FM-12+002499999V0201701N005019999999N999999999+00541-00341099531ADDMA1999990099231MD1210041+9990REMSYN04801033 46/// /1705 10054 21034 39923 49953 52004=
0132010330999992014010418004+70250+019500FM-12+002499999V0201801N004019999999N999999999+00481-00231099571ADDKA1120M+00581MA1999990099261MD1210041+9990OD139901001999REMSYN06401033 46/// /1804 10048 21023 39926 49957 52004 333 10058 91110=
0089010330999992014010419004+70250+019500FM-12+002499999V0201801N004019999999N999999999+00461-00241099611ADDMA1999990099301MD1210071+9990REMSYN04801033 46/// /1804 10046 21024 39930 49961 52007=
0089010330999992014010420004+70250+019500FM-12+002499999V0200401N002019999999N999999999+00431-00291099621ADDMA1999990099311MD1210081+9990REMSYN04801033 46/// /0402 10043 21029 39931 49962 52008=
0089010330999992014010421004+70250+019500FM-12+002499999V0201901N003019999999N999999999+00401-00281099661ADDMA1999990099351MD1310101+9990REMSYN04801033 46/// /1903 10040 21028 39935 49966 53010=
0089010330999992014010422004+70250+019500FM-12+002499999V0201501N002019999999N999999999+00361-00161099661ADDMA1999990099351MD1110061+9990REMSYN04801033 46/// /1502 10036 21016 39935 49966 51006=
0089010330999992014010423004+70250+019500FM-12+002499999V0201501N005019999999N999999999+00381-00101099681ADDMA1999990099371MD1110061+9990REMSYN04801033 46/// /1505 10038 21010 39937 49968 51006=
0113010330999992014010500004+70250+019500FM-12+002499999V0201801N004019999999N999999999+00361-00091099691ADDMA1999990099381MD1210031+9990OD139900801999REMSYN05801033 46/// /1804 10036 21009 39938 49969 52003 333 91108=
0089010330999992014010501004+70250+019500FM-12+002499999V0201301N001019999999N999999999+00411-00111099731ADDMA1999990099421MD1310061+9990REMSYN04801033 46/// /1301 10041 21011 39942 49973 53006=
0089010330999992014010502004+70250+019500FM-12+002499999V0202501N001019999999N999999999+00361-00151099731ADDMA1999990099421MD1900051+9990REMSYN04801033 46/// /2501 10036 21015 39942 49973 50005=
0089010330999992014010503004+70250+019500FM-12+002499999V0201601N003019999999N999999999+00391-00141099761ADDMA1999990099451MD1310071+9990REMSYN04801033 46/// /1603 10039 21014 39945 49976 53007=
0089010330999992014010504004+70250+019500FM-12+002499999V0201501N001019999999N999999999+00371-00201099781ADDMA1999990099471MD1310051+9990REMSYN04801033 46/// /1501 10037 21020 39947 49978 53005=
0089010330999992014010505004+70250+019500FM-12+002499999V0201601N002019999999N999999999+00391-00211099791ADDMA1999990099481MD1110071+9990REMSYN04801033 46/// /1602 10039 21021 39948 49979 51007=
0132010330999992014010506004+70250+019500FM-12+002499999V0200601N001019999999N999999999+00321-00231099831ADDKA1240N+00311MA1999990099521MD1310071+9990OD139900801999REMSYN06401033 46/// /0601 10032 21023 39952 49983 53007 333 20031 91108=
0089010330999992014010507004+70250+019500FM-12+002499999V0201701N001019999999N999999999+00261-00251099881ADDMA1999990099571MD1310101+9990REMSYN04801033 46/// /1701 10026 21025 39957 49988 53010=
0089010330999992014010508004+70250+019500FM-12+002499999V0209999C999999999999N999999999+00251-00261099931ADDMA1999990099621MD1210131+9990REMSYN04801033 46/// /0000 10025 21026 39962 49993 52013=
0089010330999992014010509004+70250+019500FM-12+002499999V0209999C999999999999N999999999+00241-00281099981ADDMA1999990099671MD1210151+9990REMSYN04801033 46/// /0000 10024 21028 39967 49998 52015=
0089010330999992014010510004+70250+019500FM-12+002499999V0201101N001019999999N999999999+00241-00261099991ADDMA1999990099681MD1210121+9990REMSYN04801033 46/// /1101 10024 21026 39968 49999 52012=
0089010330999992014010511004+70250+019500FM-12+002499999V0201601N002019999999N999999999+00221-00231100031ADDMA1999990099721MD1210111+9990REMSYN04801033 46/// /1602 10022 21023 39972 40003 52011=
0113010330999992014010512004+70250+019500FM-12+002499999V0201701N002019999999N999999999+00251-00171100101ADDMA1999990099791MD1310121+9990OD139900401999REMSYN05801033 46/// /1702 10025 21017 39979 40010 53012 333 91104=
0089010330999992014010513004+70250+019500FM-12+002499999V0201701N003019999999N999999999+00251-00151100131ADDMA1999990099821MD1210131+9990REMSYN04801033 46/// /1703 10025 21015 39982 40013 52013=
0089010330999992014010514004+70250+019500FM-12+002499999V0201701N002019999999N999999999+00281-00111100161ADDMA1999990099851MD1210121+9990REMSYN04801033 46/// /1702 10028 21011 39985 40016 52012=
0089010330999992014010515004+70250+019500FM-12+002499999V0201601N002019999999N999999999+00281-00111100181ADDMA1999990099871MD1210081+9990REMSYN04801033 46/// /1602 10028 21011 39987 40018 52008=
0089010330999992014010516004+70250+019500FM-12+002499999V0201601N001019999999N999999999+00241-00171100201ADDMA1999990099891MD1210071+9990REMSYN04801033 46/// /1601 10024 21017 39989 40020 52007=
0089010330999992014010517004+70250+019500FM-12+002499999V0201801N002019999999N999999999+00251-00171100191ADDMA1999990099881MD1210031+9990REMSYN04801033 46/// /1802 10025 21017 39988 40019 52003=
0132010330999992014010518004+70250+019500FM-12+002499999V0202701N001019999999N999999999+00291-00141100221ADDKA1120M+00321MA1999990099911MD1310041+9990OD139900501999REMSYN06401033 46/// /2701 10029 21014 39991 40022 53004 333 10032 91105=
0089010330999992014010519004+70250+019500FM-12+002499999V0201701N003019999999N999999999+00281-00121100241ADDMA1999990099931MD1310041+9990REMSYN04801033 46/// /1703 10028 21012 39993 40024 53004=
0089010330999992014010520004+70250+019500FM-12+002499999V0201501N001019999999N999999999+00251-00151100261ADDMA1999990099951MD1210071+9990REMSYN04801033 46/// /1501 10025 21015 39995 40026 52007=
0089010330999992014010521004+70250+019500FM-12+002499999V0201801N002019999999N999999999+00251-00121100301ADDMA1999990099991MD1210091+9990REMSYN04801033 46/// /1802 10025 21012 39999 40030 52009=
0089010330999992014010522004+70250+019500FM-12+002499999V0201501N001019999999N999999999+00221-00191100311ADDMA1999990100001MD1210071+9990REMSYN04801033 46/// /1501 10022 21019 30000 40031 52007=
0089010330999992014010523004+70250+019500FM-12+002499999V0201801N003019999999N999999999+00241-00121100301ADDMA1999990099991MD1900041+9990REMSYN04801033 46/// /1803 10024 21012 39999 40030 50004=
0113010330999992014010600004+70250+019500FM-12+002499999V0203401N001019999999N999999999+00231-00171100321ADDMA1999990100011MD1210021+9990OD139900601999REMSYN05801033 46/// /3401 10023 21017 30001 40032 52002 333 91106=
0089010330999992014010601004+70250+019500FM-12+002499999V0203601N001019999999N999999999+00211-00151100281ADDMA1999990099971MD1810031+9990REMSYN04801033 46/// /3601 10021 21015 39997 40028 58003=
0089010330999992014010602004+70250+019500FM-12+002499999V0201601N003019999999N999999999+00241-00121100251ADDMA1999990099941MD1810051+9990REMSYN04801033 46/// /1603 10024 21012 39994 40025 58005=
0089010330999992014010603004+70250+019500FM-12+002499999V0202901N001019999999N999999999+00301-00101100221ADDMA1999990099911MD1710101+9990REMSYN04801033 46/// /2901 10030 21010 39991 40022 57010=
0089010330999992014010604004+70250+019500FM-12+002499999V0201501N002019999999N999999999+00291-00121100191ADDMA1999990099881MD1710091+9990REMSYN04801033 46/// /1502 10029 21012 39988 40019 57009=
0089010330999992014010605004+70250+019500FM-12+002499999V0201001N008019999999N999999999+00421-00191100141ADDMA1999990099831MD1810121+9990REMSYN04801033 46/// /1008 10042 21019 39983 40014 58012=
0132010330999992014010606004+70250+019500FM-12+002499999V0200601N005019999999N999999999+00451-00271100081ADDKA1240N+00191MA1999990099771MD1810141+9990OD139901201999REMSYN06401033 46/// /0605 10045 21027 39977 40008 58014 333 20019 91112=
0089010330999992014010607004+70250+019500FM-12+002499999V0201101N011019999999N999999999+00521-00391100031ADDMA1999990099721MD1710151+9990REMSYN04801033 46/// /1111 10052 21039 39972 40003 57015=
0089010330999992014010608004+70250+019500FM-12+002499999V0201001N012019999999N999999999+00531-00401100021ADDMA1999990099711MD1610121+9990REMSYN04801033 46/// /1012 10053 21040 39971 40002 56012=
0089010330999992014010609004+70250+019500FM-12+002499999V0201001N012019999999N999999999+00501-00411100021ADDMA1999990099711MD1510051+9990REMSYN04801033 46/// /1012 10050 21041 39971 40002 55005=
0089010330999992014010610004+70250+019500FM-12+002499999V0201101N005019999999N999999999+00531-00391100081ADDMA1999990099771MD1310041+9990REMSYN04801033 46/// /1105 10053 21039 39977 40008 53004=
0089010330999992014010611004+70250+019500FM-12+002499999V0201001N009019999999N999999999+00571-00361100061ADDMA1999990099751MD1900041+9990REMSYN04801033 46/// /1009 10057 21036 39975 40006 50004=
0113010330999992014010612004+70250+019500FM-12+002499999V0201701N001019999999N999999999+00551-00411100061ADDMA1999990099751MD1900031+9990OD139901801999REMSYN05801033 46/// /1701 10055 21041 39975 40006 50003 333 91118=
0089010330999992014010613004+70250+019500FM-12+002499999V0202201N002019999999N999999999+00471-00381100021ADDMA1999990099711MD1610061+9990REMSYN04801033 46/// /2202 10047 21038 39971 40002 56006=
0089010330999992014010614004+70250+019500FM-12+002499999V0201701N002019999999N999999999+00431-00271100011ADDMA1999990099701MD1710051+9990REMSYN04801033 46/// /1702 10043 21027 39970 40001 57005=
0089010330999992014010615004+70250+019500FM-12+002499999V0201701N002019999999N999999999+00421-00241099971ADDMA1999990099661MD1710091+9990REMSYN04801033 46/// /1702 10042 21024 39966 49997 57009=
0089010330999992014010616004+70250+019500FM-12+002499999V0200801N004019999999N999999999+00471-00301099941ADDMA1999990099631MD1810081+9990REMSYN04801033 46/// /0804 10047 21030 39963 49994 58008=
0089010330999992014010617004+70250+019500FM-12+002499999V0201701N004019999999N999999999+00411-00161099881ADDMA1999990099571MD1810131+9990REMSYN04801033 46/// /1704 10041 21016 39957 49988 58013=
0132010330999992014010618004+70250+019500FM-12+002499999V0201301N001019999999N999999999+00371-00201099861ADDKA1120M+00591MA1999990099551MD1510111+9990OD139900801999REMSYN06401033 46/// /1301 10037 21020 39955 49986 55011 333 10059 91108=
0089010330999992014010619004+70250+019500FM-12+002499999V0200201N002019999999N999999999+00371-00241099791ADDMA1999990099481MD1810151+9990REMSYN04801033 46/// /0202 10037 21024 39948 49979 58015=
0089010330999992014010620004+70250+019500FM-12+002499999V0201501N002019999999N999999999+00341-00211099771ADDMA1999990099461MD1710101+9990REMSYN04801033 46/// /1502 10034 21021 39946 49977 57010=
0089010330999992014010621004+70250+019500FM-12+002499999V0203301N001019999999N999999999+00391-00251099731ADDMA1999990099421MD1610131+9990REMSYN04801033 46/// /3301 10039 21025 39942 49973 56013=
0089010330999992014010622004+70250+019500FM-12+002499999V0200201N003019999999N999999999+00391-00241099691ADDMA1999990099381MD1810101+9990REMSYN04801033 46/// /0203 10039 21024 39938 49969 58010=
0089010330999992014010623004+70250+019500FM-12+002499999V0200901N001019999999N999999999+00381-00201099631ADDMA1999990099321MD1810151+9990REMSYN04801033 46/// /0901 10038 21020 39932 49963 58015=
0113010330999992014010700004+70250+019500FM-12+002499999V0201101N003019999999N999999999+00471-00211099581ADDMA1999990099271MD1810141+9990OD139900701999REMSYN05801033 46/// /1103 10047 21021 39927 49958 58014 333 91107=
0089010330999992014010701004+70250+019500FM-12+002499999V0201501N006019999999N999999999+00741-00351099531ADDMA1999990099231MD1710141+9990REMSYN04801033 46/// /1506 10074 21035 39923 49953 57014=
0089010330999992014010702004+70250+019500FM-12+002499999V0201801N007019999999N999999999+00651-00221099531ADDMA1999990099231MD1510081+9990REMSYN04801033 46/// /1807 10065 21022 39923 49953 55008=
0089010330999992014010703004+70250+019500FM-12+002499999V0201701N007019999999N999999999+00491-00221099521ADDMA1999990099211MD1610061+9990REMSYN04801033 46/// /1707 10049 21022 39921 49952 56006=
0089010330999992014010704004+70250+019500FM-12+002499999V0201601N004019999999N999999999+00501-00471099531ADDMA1999990099221MD1510011+9990REMSYN04801033 46/// /1604 10050 21047 39922 49953 55001=
0089010330999992014010705004+70250+019500FM-12+002499999V0201401N006019999999N999999999+00481-00481099521ADDMA1999990099211MD1510021+9990REMSYN04801033 46/// /1406 10048 21048 39921 49952 55002=
0132010330999992014010706004+70250+019500FM-12+002499999V0201601N006019999999N999999999+00421-00331099531ADDKA1240N+00331MA1999990099221MD1900011+9990OD139901301999REMSYN06401033 46/// /1606 10042 21033 39922 49953 50001 333 20033 91113=
0089010330999992014010707004+70250+019500FM-12+002499999V0201301N005019999999N999999999+00431-00321099521ADDMA1999990099211MD1510021+9990REMSYN04801033 46/// /1305 10043 21032 39921 49952 55002=
0089010330999992014010708004+70250+019500FM-12+002499999V0201001N004019999999N999999999+00341-00351099571ADDMA1999990099261MD1310051+9990REMSYN04801033 46/// /1004 10034 21035 39926 49957 53005=
0089010330999992014010709004+70250+019500FM-12+002499999V0201201N009019999999N999999999+00331-00391099551ADDMA1999990099241MD1900021+9990REMSYN04801033 46/// /1209 10033 21039 39924 49955 50002=
0089010330999992014010710004+70250+019500FM-12+002499999V0201301N013019999999N999999999+00331-00371099471ADDMA1999990099161MD1810041+9990REMSYN04801033 46/// /1313 10033 21037 39916 49947 58004=
0089010330999992014010711004+70250+019500FM-12+002499999V0201101N015019999999N999999999+00271-00391099511ADDMA1999990099201MD1510061+9990REMSYN04801033 46/// /1115 10027 21039 39920 49951 55006=
0113010330999992014010712004+70250+019500FM-12+002499999V0201001N012019999999N999999999+00251-00361099521ADDMA1999990099211MD1510031+9990OD139902001999REMSYN05801033 46/// /1012 10025 21036 39921 49952 55003 333 91120=
0089010330999992014010713004+70250+019500FM-12+002499999V0201001N011019999999N999999999+00241-00351099521ADDMA1999990099211MD1110051+9990REMSYN04801033 46/// /1011 10024 21035 39921 49952 51005=
0089010330999992014010714004+70250+019500FM-12+002499999V0201001N010019999999N999999999+00211-00341099501ADDMA1999990099191MD1900011+9990REMSYN04801033 46/// /1010 10021 21034 39919 49950 50001=
0089010330999992014010715004+70250+019500FM-12+002499999V0201001N009019999999N999999999+00251-00371099471ADDMA1999990099161MD1810051+9990REMSYN04801033 46/// /1009 10025 21037 39916 49947 58005=
0089010330999992014010716004+70250+019500FM-12+002499999V0201001N010019999999N999999999+00251-00351099461ADDMA1999990099151MD1710061+9990REMSYN04801033 46/// /1010 10025 21035 39915 49946 57006=
0089010330999992014010717004+70250+019500FM-12+002499999V0201101N010019999999N999999999+00231-00431099461ADDMA1999990099151MD1710041+9990REMSYN04801033 46/// /1110 10023 21043 39915 49946 57004=
0132010330999992014010718004+70250+019500FM-12+002499999V0201301N007019999999N999999999+00241-00461099531ADDKA1120M+00471MA1999990099221MD1310061+9990OD139901701999REMSYN06401033 46/// /1307 10024 21046 39922 49953 53006 333 10047 91117=
0089010330999992014010719004+70250+019500FM-12+002499999V0201101N011019999999N999999999+00261-00421099531ADDMA1999990099221MD1310071+9990REMSYN04801033 46/// /1111 10026 21042 39922 49953 53007=
0089010330999992014010720004+70250+019500FM-12+002499999V0201001N008019999999N999999999+00261-00501099591ADDMA1999990099281MD1310131+9990REMSYN04801033 46/// /1008 10026 21050 39928 49959 53013=
0089010330999992014010721004+70250+019500FM-12+002499999V0201001N013019999999N999999999+00221-00461099521ADDMA1999990099211MD1900011+9990REMSYN04801033 46/// /1013 10022 21046 39921 49952 50001=
0089010330999992014010722004+70250+019500FM-12+002499999V0200901N013019999999N999999999+00261-00481099511ADDMA1999990099201MD1810021+9990REMSYN04801033 46/// /0913 10026 21048 39920 49951 58002=
0089010330999992014010723004+70250+019500FM-12+002499999V0200801N008019999999N999999999+00191-00441099581ADDMA1999990099271MD1510001+9990REMSYN04801033 46/// /0808 10019 21044 39927 49958 55000=
0113010330999992014010800004+70250+019500FM-12+002499999V0200801N007019999999N999999999+00191-00421099631ADDMA1999990099321MD1310111+9990OD139901701999REMSYN05801033 46/// /0807 10019 21042 39932 49963 53011 333 91117=
0089010330999992014010801004+70250+019500FM-12+002499999V0203001N005019999999N999999999+00191-00401099661ADDMA1999990099351MD1110141+9990REMSYN04801033 46/// /3005 10019 21040 39935 49966 51014=
0089010330999992014010802004+70250+019500FM-12+002499999V0203001N005019999999N999999999+00191-00351099711ADDMA1999990099401MD1310121+9990REMSYN04801033 46/// /3005 10019 21035 39940 49971 53012=
0089010330999992014010803004+70250+019500FM-12+002499999V0203201N003019999999N999999999+00191-00351099741ADDMA1999990099431MD1310111+9990REMSYN04801033 46/// /3203 10019 21035 39943 49974 53011=
0089010330999992014010804004+70250+019500FM-12+002499999V0203301N006019999999N999999999+00161-00411099731ADDMA1999990099421MD1900071+9990REMSYN04801033 46/// /3306 10016 21041 39942 49973 50007=
0089010330999992014010805004+70250+019500FM-12+002499999V0200401N003019999999N999999999+00141-00391099801ADDMA1999990099491MD1310091+9990REMSYN04801033 46/// /0403 10014 21039 39949 49980 53009=
0132010330999992014010806004+70250+019500FM-12+002499999V0202501N003019999999N999999999+00131-00401099821ADDKA1240N+00131MA1999990099511MD1310081+9990OD139901701999REMSYN06401033 46/// /2503 10013 21040 39951 49982 53008 333 20013 91117=
0089010330999992014010807004+70250+019500FM-12+002499999V0203401N005019999999N999999999+00121-00441099821ADDMA1999990099511MD1110091+9990REMSYN04801033 46/// /3405 10012 21044 39951 49982 51009=
0089010330999992014010808004+70250+019500FM-12+002499999V0202901N003019999999N999999999+00121-00431099851ADDMA1999990099541MD1310061+9990REMSYN04801033 46/// /2903 10012 21043 39954 49985 53006=
0089010330999992014010809004+70250+019500FM-12+002499999V0203301N002019999999N999999999+00111-00431099921ADDMA1999990099611MD1310101+9990REMSYN04801033 46/// /3302 10011 21043 39961 49992 53010=
0089010330999992014010810004+70250+019500FM-12+002499999V0201001N004019999999N999999999+00091-00361099951ADDMA1999990099641MD1210141+9990REMSYN04801033 46/// /1004 10009 21036 39964 49995 52014=
0089010330999992014010811004+70250+019500FM-12+002499999V0200601N003019999999N999999999+00081-00351100001ADDMA1999990099691MD1310151+9990REMSYN04801033 46/// /0603 10008 21035 39969 40000 53015=
0113010330999992014010812004+70250+019500FM-12+002499999V0200301N004019999999N999999999+00081-00331100031ADDMA1999990099721MD1310111+9990OD139901501999REMSYN05801033 46/// /0304 10008 21033 39972 40003 53011 333 91115=
0089010330999992014010813004+70250+019500FM-12+002499999V0200301N004019999999N999999999+00081-00321100071ADDMA1999990099761MD1310121+9990REMSYN04801033 46/// /0304 10008 21032 39976 40007 53012=
0089010330999992014010814004+70250+019500FM-12+002499999V0200601N007019999999N999999999+00091-00281100101ADDMA1999990099791MD1210101+9990REMSYN04801033 46/// /0607 10009 21028 39979 40010 52010=
0089010330999992014010815004+70250+019500FM-12+002499999V0200401N007019999999N999999999+00051-00271100121ADDMA1999990099811MD1210101+9990REMSYN04801033 46/// /0407 10005 21027 39981 40012 52010=
0089010330999992014010816004+70250+019500FM-12+002499999V0200701N007019999999N999999999+00051-00361100191ADDMA1999990099881MD1310121+9990REMSYN04801033 46/// /0707 10005 21036 39988 40019 53012=
0089010330999992014010817004+70250+019500FM-12+002499999V0200701N004019999999N999999999+00051-00391100201ADDMA1999990099891MD1900101+9990REMSYN04801033 46/// /0704 10005 21039 39989 40020 50010=
0132010330999992014010818004+70250+019500FM-12+002499999V0200801N007019999999N999999999+00041-00441100291ADDKA1120M+00131MA1999990099981MD1310161+9990OD139901901999REMSYN06401033 46/// /0807 10004 21044 39998 40029 53016 333 10013 91119=
0089010330999992014010819004+70250+019500FM-12+002499999V0200401N011019999999N999999999+00041-00471100301ADDMA1999990099991MD1310131+9990REMSYN04801033 46/// /0411 10004 21047 39999 40030 53013=
0089010330999992014010820004+70250+019500FM-12+002499999V0200701N005019999999N999999999+00021-00551100401ADDMA1999990100091MD1110181+9990REMSYN04801033 46/// /0705 10002 21055 30009 40040 51018=
0089010330999992014010821004+70250+019500FM-12+002499999V0200701N006019999999N999999999-00021-00501100491ADDMA1999990100181MD1310211+9990REMSYN04801033 46/// /0706 11002 21050 30018 40049 53021=
0089010330999992014010823004+70250+019500FM-12+002499999V0201201N006019999999N999999999-00041-00641100571ADDMA1999990100261MD1110201+9990REMSYN04801033 46/// /1206 11004 21064 30026 40057 51020=
0113010330999992014010900004+70250+019500FM-12+002499999V0201001N005019999999N999999999-00081-00711100631ADDMA1999990100311MD1310141+9990OD139902001999REMSYN05801033 46/// /1005 11008 21071 30031 40063 53014 333 91120=
0089010330999992014010901004+70250+019500FM-12+002499999V0201101N007019999999N999999999-00121-00801100711ADDMA1999990100391MD1210221+9990REMSYN04801033 46/// /1107 11012 21080 30039 40071 52022=
0089010330999992014010902004+70250+019500FM-12+002499999V0201101N007019999999N999999999-00171-00941100791ADDMA1999990100471MD1310211+9990REMSYN04801033 46/// /1107 11017 21094 30047 40079 53021=
0089010330999992014010903004+70250+019500FM-12+002499999V0201001N007019999999N999999999-00211-00911100841ADDMA1999990100521MD1210211+9990REMSYN04801033 46/// /1007 11021 21091 30052 40084 52021=
0089010330999992014010904004+70250+019500FM-12+002499999V0201101N005019999999N999999999-00231-01011100871ADDMA1999990100551MD1110161+9990REMSYN04801033 46/// /1105 11023 21101 30055 40087 51016=
0089010330999992014010905004+70250+019500FM-12+002499999V0201101N005019999999N999999999-00241-01051100931ADDMA1999990100611MD1210141+9990REMSYN04801033 46/// /1105 11024 21105 30061 40093 52014=
0132010330999992014010906004+70250+019500FM-12+002499999V0201301N005019999999N999999999-00261-01101101001ADDKA1240N-00271MA1999990100681MD1310161+9990OD139901801999REMSYN06401033 46/// /1305 11026 21110 30068 40100 53016 333 21027 91118=
0089010330999992014010907004+70250+019500FM-12+002499999V0201001N004019999999N999999999-00301-01051101061ADDMA1999990100741MD1210171+9990REMSYN04801033 46/// /1004 11030 21105 30074 40106 52017=
0089010330999992014010908004+70250+019500FM-12+002499999V0201101N005019999999N999999999-00301-01141101141ADDMA1999990100821MD1310201+9990REMSYN04801033 46/// /1105 11030 21114 30082 40114 53020=
0089010330999992014010909004+70250+019500FM-12+002499999V0201301N004019999999N999999999-00341-01111101191ADDMA1999990100871MD1310191+9990REMSYN04801033 46/// /1304 11034 21111 30087 40119 53019=
0089010330999992014010910004+70250+019500FM-12+002499999V0201301N004019999999N999999999-00381-01181101251ADDMA1999990100931MD1210191+9990REMSYN04801033 46/// /1304 11038 21118 30093 40125 52019=
0089010330999992014010911004+70250+019500FM-12+002499999V0201201N005019999999N999999999-00431-01171101301ADDMA1999990100981MD1310161+9990REMSYN04801033 46/// /1205 11043 21117 30098 40130 53016=
0113010330999992014010912004+70250+019500FM-12+002499999V0201201N005019999999N999999999-00431-01181101331ADDMA1999990101011MD1210141+9990OD139901201999REMSYN05801033 46/// /1205 11043 21118 30101 40133 52014 333 91112=
0089010330999992014010913004+70250+019500FM-12+002499999V0201101N005019999999N999999999-00451-01301101401ADDMA1999990101081MD1310151+9990REMSYN04801033 46/// /1105 11045 21130 30108 40140 53015=
0089010330999992014010914004+70250+019500FM-12+002499999V0201201N008019999999N999999999-00431-01331101391ADDMA1999990101071MD1110091+9990REMSYN04801033 46/// /1208 11043 21133 30107 40139 51009=
0089010330999992014010915004+70250+019500FM-12+002499999V0201001N007019999999N999999999-00461-01341101431ADDMA1999990101111MD1110101+9990REMSYN04801033 46/// /1007 11046 21134 30111 40143 51010=
0089010330999992014010916004+70250+019500FM-12+002499999V0201101N007019999999N999999999-00461-01341101461ADDMA1999990101141MD1310051+9990REMSYN04801033 46/// /1107 11046 21134 30114 40146 53005=
0089010330999992014010917004+70250+019500FM-12+002499999V0201001N008019999999N999999999-00421-01361101411ADDMA1999990101091MD1900011+9990REMSYN04801033 46/// /1008 11042 21136 30109 40141 50001=
0132010330999992014010918004+70250+019500FM-12+002499999V0200901N007019999999N999999999-00441-01351101441ADDKA1120M-00251MA1999990101121MD1900011+9990OD139901401999REMSYN06401033 46/// /0907 11044 21135 30112 40144 50001 333 11025 91114=
0089010330999992014010919004+70250+019500FM-12+002499999V0201601N004019999999N999999999-00391-01511101461ADDMA1999990101141MD1310031+9990REMSYN04801033 46/// /1604 11039 21151 30114 40146 53003=
0089010330999992014010920004+70250+019500FM-12+002499999V0202701N005019999999N999999999-00381-01611101531ADDMA1999990101211MD1310111+9990REMSYN04801033 46/// /2705 11038 21161 30121 40153 53011=
0089010330999992014010921004+70250+019500FM-12+002499999V0202801N004019999999N999999999-00421-01291101551ADDMA1999990101231MD1310111+9990REMSYN04801033 46/// /2804 11042 21129 30123 40155 53011=
0089010330999992014010922004+70250+019500FM-12+002499999V0202801N004019999999N999999999-00431-01231101541ADDMA1999990101221MD1900061+9990REMSYN04801033 46/// /2804 11043 21123 30122 40154 50006=
0089010330999992014010923004+70250+019500FM-12+002499999V0200701N004019999999N999999999-00391-01311101551ADDMA1999990101231MD1310021+9990REMSYN04801033 46/// /0704 11039 21131 30123 40155 53002=
0113010330999992014011000004+70250+019500FM-12+002499999V0200601N003019999999N999999999-00411-01201101561ADDMA1999990101241MD1310011+9990OD139901401999REMSYN05801033 46/// /0603 11041 21120 30124 40156 53001 333 91114=
0089010330999992014011001004+70250+019500FM-12+002499999V0200801N003019999999N999999999-00401-01071101511ADDMA1999990101191MD1810031+9990REMSYN04801033 46/// /0803 11040 21107 30119 40151 58003=
0089010330999992014011002004+70250+019500FM-12+002499999V0201201N002019999999N999999999-00391-01011101491ADDMA1999990101171MD1810061+9990REMSYN04801033 46/// /1202 11039 21101 30117 40149 58006=
0089010330999992014011003004+70250+019500FM-12+002499999V0201201N004019999999N999999999-00341-00991101471ADDMA1999990101151MD1710091+9990REMSYN04801033 46/// /1204 11034 21099 30115 40147 57009=
0089010330999992014011004004+70250+019500FM-12+002499999V0201101N003019999999N999999999-00341-00951101451ADDMA1999990101131MD1710061+9990REMSYN04801033 46/// /1103 11034 21095 30113 40145 57006=
0089010330999992014011005004+70250+019500FM-12+002499999V0201301N002019999999N999999999-00351-00911101461ADDMA1999990101141MD1510031+9990REMSYN04801033 46/// /1302 11035 21091 30114 40146 55003=
0132010330999992014011006004+70250+019500FM-12+002499999V0201101N004019999999N999999999-00321-00951101451ADDKA1240N-00431MA1999990101131MD1710021+9990OD139900801999REMSYN06401033 46/// /1104 11032 21095 30113 40145 57002 333 21043 91108=
0089010330999992014011007004+70250+019500FM-12+002499999V0201101N003019999999N999999999-00361-00941101491ADDMA1999990101171MD1310051+9990REMSYN04801033 46/// /1103 11036 21094 30117 40149 53005=
0089010330999992014011008004+70250+019500FM-12+002499999V0200701N004019999999N999999999-00361-01011101521ADDMA1999990101201MD1310061+9990REMSYN04801033 46/// /0704 11036 21101 30120 40152 53006=
0089010330999992014011009004+70250+019500FM-12+002499999V0201601N002019999999N999999999-00371-01071101541ADDMA1999990101221MD1210091+9990REMSYN04801033 46/// /1602 11037 21107 30122 40154 52009=
0089010330999992014011010004+70250+019500FM-12+002499999V0201101N004019999999N999999999-00401-01041101531ADDMA1999990101211MD1900031+9990REMSYN04801033 46/// /1104 11040 21104 30121 40153 50003=
0089010330999992014011011004+70250+019500FM-12+002499999V0203101N001019999999N999999999-00421-01231101571ADDMA1999990101251MD1310051+9990REMSYN04801033 46/// /3101 11042 21123 30125 40157 53005=
0113010330999992014011012004+70250+019500FM-12+002499999V0202801N002019999999N999999999-00441-01141101571ADDMA1999990101251MD1310031+9990OD139900701999REMSYN05801033 46/// /2802 11044 21114 30125 40157 53003 333 91107=
0089010330999992014011013004+70250+019500FM-12+002499999V0201001N003019999999N999999999-00431-01071101601ADDMA1999990101281MD1210071+9990REMSYN04801033 46/// /1003 11043 21107 30128 40160 52007=
0089010330999992014011014004+70250+019500FM-12+002499999V0200701N002019999999N999999999-00451-01151101631ADDMA1999990101311MD1310071+9990REMSYN04801033 46/// /0702 11045 21115 30131 40163 53007=
0089010330999992014011015004+70250+019500FM-12+002499999V0200801N003019999999N999999999-00451-01081101641ADDMA1999990101321MD1210081+9990REMSYN04801033 46/// /0803 11045 21108 30132 40164 52008=
0089010330999992014011016004+70250+019500FM-12+002499999V0202801N002019999999N999999999-00451-01161101651ADDMA1999990101331MD1210051+9990REMSYN04801033 46/// /2802 11045 21116 30133 40165 52005=
0089010330999992014011017004+70250+019500FM-12+002499999V0202001N002019999999N999999999-00451-01101101681ADDMA1999990101361MD1210051+9990REMSYN04801033 46/// /2002 11045 21110 30136 40168 52005=
0132010330999992014011018004+70250+019500FM-12+002499999V0201701N002019999999N999999999-00471-01091101681ADDKA1120M-00301MA1999990101361MD1210031+9990OD139900501999REMSYN06401033 46/// /1702 11047 21109 30136 40168 52003 333 11030 91105=
0089010330999992014011019004+70250+019500FM-12+002499999V0201601N002019999999N999999999-00451-01101101671ADDMA1999990101351MD1900021+9990REMSYN04801033 46/// /1602 11045 21110 30135 40167 50002=
0089010330999992014011020004+70250+019500FM-12+002499999V0203201N002019999999N999999999-00491-01191101691ADDMA1999990101371MD1310021+9990REMSYN04801033 46/// /3202 11049 21119 30137 40169 53002=
0089010330999992014011021004+70250+019500FM-12+002499999V0201701N002019999999N999999999-00461-01151101691ADDMA1999990101371MD1210011+9990REMSYN04801033 46/// /1702 11046 21115 30137 40169 52001=
0089010330999992014011022004+70250+019500FM-12+002499999V0202301N001019999999N999999999-00491-01261101711ADDMA1999990101391MD1210051+9990REMSYN04801033 46/// /2301 11049 21126 30139 40171 52005=
0089010330999992014011023004+70250+019500FM-12+002499999V0200101N001019999999N999999999-00501-01231101721ADDMA1999990101401MD1210031+9990REMSYN04801033 46/// /0101 11050 21123 30140 40172 52003=
0113010330999992014011100004+70250+019500FM-12+002499999V0200901N001019999999N999999999-00521-01141101721ADDMA1999990101401MD1210031+9990OD139900401999REMSYN05801033 46/// /0901 11052 21114 30140 40172 52003 333 91104=
0089010330999992014011101004+70250+019500FM-12+002499999V0201201N002019999999N999999999-00471-01181101721ADDMA1999990101401MD1210011+9990REMSYN04801033 46/// /1202 11047 21118 30140 40172 52001=
0089010330999992014011102004+70250+019500FM-12+002499999V0201201N004019999999N999999999-00421-01231101721ADDMA1999990101401MD1410001+9990REMSYN04801033 46/// /1204 11042 21123 30140 40172 54000=
0089010330999992014011103004+70250+019500FM-12+002499999V0201301N002019999999N999999999-00431-01351101721ADDMA1999990101401MD1410001+9990REMSYN04801033 46/// /1302 11043 21135 30140 40172 54000=
0089010330999992014011104004+70250+019500FM-12+002499999V0200701N001019999999N999999999-00481-01221101721ADDMA1999990101401MD1410001+9990REMSYN04801033 46/// /0701 11048 21122 30140 40172 54000=
0108010330999992014011105004+70250+019500FM-12+002499999V0200901N001019999999N999999999-00481-01141101711ADDMA1999990101391MD1790019+9990REMSYN04801033 46/// /0901 11048 21114 30139 40171 54001=EQDQ01.1    3APC3  
0132010330999992014011106004+70250+019500FM-12+002499999V0201301N003019999999N999999999-00441-01281101741ADDKA1240N-00531MA1999990101421MD1210021+9990OD139900501999REMSYN06401033 46/// /1303 11044 21128 30142 40174 52002 333 21053 91105=
0089010330999992014011107004+70250+019500FM-12+002499999V0201301N003019999999N999999999-00391-01171101741ADDMA1999990101421MD1210021+9990REMSYN04801033 46/// /1303 11039 21117 30142 40174 52002=
0089010330999992014011108004+70250+019500FM-12+002499999V0201401N004019999999N999999999-00361-01251101731ADDMA1999990101411MD1210021+9990REMSYN04801033 46/// /1404 11036 21125 30141 40173 52002=
0089010330999992014011109004+70250+019500FM-12+002499999V0201401N004019999999N999999999-00391-01011101771ADDMA1999990101451MD1310041+9990REMSYN04801033 46/// /1404 11039 21101 30145 40177 53004=
0089010330999992014011110004+70250+019500FM-12+002499999V0201401N004019999999N999999999-00401-01201101781ADDMA1999990101461MD1310051+9990REMSYN04801033 46/// /1404 11040 21120 30146 40178 53005=
0089010330999992014011111004+70250+019500FM-12+002499999V0201401N004019999999N999999999-00421-01001101781ADDMA1999990101461MD1110051+9990REMSYN04801033 46/// /1404 11042 21100 30146 40178 51005=
0113010330999992014011112004+70250+019500FM-12+002499999V0201501N002019999999N999999999-00431-01211101811ADDMA1999990101491MD1210041+9990OD139900601999REMSYN05801033 46/// /1502 11043 21121 30149 40181 52004 333 91106=
0108010330999992014011113004+70250+019500FM-12+002499999V0201401N006019999999N999999999-00381-00841101791ADDMA1999990101471MD1290019+9990REMSYN04801033 46/// /1406 11038 21084 30147 40179 54001=EQDQ01.1    3APC3  
0089010330999992014011114004+70250+019500FM-12+002499999V0201401N007019999999N999999999-00391-00861101771ADDMA1999990101451MD1900011+9990REMSYN04801033 46/// /1407 11039 21086 30145 40177 50001=
0089010330999992014011115004+70250+019500FM-12+002499999V0201401N004019999999N999999999-00411-00871101811ADDMA1999990101491MD1510001+9990REMSYN04801033 46/// /1404 11041 21087 30149 40181 55000=
0089010330999992014011116004+70250+019500FM-12+002499999V0201501N005019999999N999999999-00411-00801101791ADDMA1999990101471MD1900001+9990REMSYN04801033 46/// /1505 11041 21080 30147 40179 50000=
0089010330999992014011117004+70250+019500FM-12+002499999V0201501N004019999999N999999999-00411-00791101811ADDMA1999990101491MD1900041+9990REMSYN04801033 46/// /1504 11041 21079 30149 40181 50004=
0132010330999992014011118004+70250+019500FM-12+002499999V0201401N005019999999N999999999-00381-00781101811ADDKA1120M-00341MA1999990101491MD1510001+9990OD139900901999REMSYN06401033 46/// /1405 11038 21078 30149 40181 55000 333 11034 91109=
0089010330999992014011119004+70250+019500FM-12+002499999V0201401N005019999999N999999999-00351-00801101821ADDMA1999990101501MD1210041+9990REMSYN04801033 46/// /1405 11035 21080 30150 40182 52004=
0089010330999992014011120004+70250+019500FM-12+002499999V0201501N005019999999N999999999-00401-00851101861ADDMA1999990101541MD1310051+9990REMSYN04801033 46/// /1505 11040 21085 30154 40186 53005=
0089010330999992014011121004+70250+019500FM-12+002499999V0201401N004019999999N999999999-00371-00871101891ADDMA1999990101571MD1210081+9990REMSYN04801033 46/// /1404 11037 21087 30157 40189 52008=
0089010330999992014011122004+70250+019500FM-12+002499999V0201501N003019999999N999999999-00371-01091101901ADDMA1999990101581MD1210071+9990REMSYN04801033 46/// /1503 11037 21109 30158 40190 52007=
0089010330999992014011123004+70250+019500FM-12+002499999V0201401N002019999999N999999999-00371-00971101921ADDMA1999990101601MD1210061+9990REMSYN04801033 46/// /1402 11037 21097 30160 40192 52006=
0113010330999992014011200004+70250+019500FM-12+002499999V0201301N002019999999N999999999-00371-00961101941ADDMA1999990101621MD1210051+9990OD139900601999REMSYN05801033 46/// /1302 11037 21096 30162 40194 52005 333 91106=
0089010330999992014011201004+70250+019500FM-12+002499999V0201401N001019999999N999999999-00401-01001101961ADDMA1999990101641MD1210071+9990REMSYN04801033 46/// /1401 11040 21100 30164 40196 52007=
0089010330999992014011202004+70250+019500FM-12+002499999V0201401N004019999999N999999999-00371-00851101961ADDMA1999990101641MD1210041+9990REMSYN04801033 46/// /1404 11037 21085 30164 40196 52004=
0089010330999992014011203004+70250+019500FM-12+002499999V0201401N002019999999N999999999-00351-00861101961ADDMA1999990101641MD1210031+9990REMSYN04801033 46/// /1402 11035 21086 30164 40196 52003=
0089010330999992014011204004+70250+019500FM-12+002499999V0201201N002019999999N999999999-00371-00811101981ADDMA1999990101661MD1210011+9990REMSYN04801033 46/// /1202 11037 21081 30166 40198 52001=
0089010330999992014011205004+70250+019500FM-12+002499999V0201301N002019999999N999999999-00391-00901101981ADDMA1999990101661MD1210021+9990REMSYN04801033 46/// /1302 11039 21090 30166 40198 52002=
0132010330999992014011206004+70250+019500FM-12+002499999V0201401N002019999999N999999999-00381-00911102021ADDKA1240N-00421MA1999990101701MD1310061+9990OD139900501999REMSYN06401033 46/// /1402 11038 21091 30170 40202 53006 333 21042 91105=
0089010330999992014011207004+70250+019500FM-12+002499999V0201301N003019999999N999999999-00321-00751102051ADDMA1999990101731MD1310071+9990REMSYN04801033 46/// /1303 11032 21075 30173 40205 53007=
0089010330999992014011208004+70250+019500FM-12+002499999V0201401N003019999999N999999999-00301-00701102071ADDMA1999990101751MD1310091+9990REMSYN04801033 46/// /1403 11030 21070 30175 40207 53009=
0089010330999992014011209004+70250+019500FM-12+002499999V0201301N002019999999N999999999-00281-00681102101ADDMA1999990101781MD1310081+9990REMSYN04801033 46/// /1302 11028 21068 30178 40210 53008=
0089010330999992014011210004+70250+019500FM-12+002499999V0201401N002019999999N999999999-00261-00681102131ADDMA1999990101811MD1210081+9990REMSYN04801033 46/// /1402 11026 21068 30181 40213 52008=
0089010330999992014011211004+70250+019500FM-12+002499999V0201501N002019999999N999999999-00251-00671102121ADDMA1999990101801MD1210051+9990REMSYN04801033 46/// /1502 11025 21067 30180 40212 52005=
0113010330999992014011212004+70250+019500FM-12+002499999V0201501N003019999999N999999999-00241-00661102151ADDMA1999990101831MD1210051+9990OD139900401999REMSYN05801033 46/// /1503 11024 21066 30183 40215 52005 333 91104=
0089010330999992014011213004+70250+019500FM-12+002499999V0201501N004019999999N999999999-00221-00651102151ADDMA1999990101831MD1210021+9990REMSYN04801033 46/// /1504 11022 21065 30183 40215 52002=
0089010330999992014011214004+70250+019500FM-12+002499999V0201601N003019999999N999999999-00211-00761102151ADDMA1999990101831MD1210031+9990REMSYN04801033 46/// /1603 11021 21076 30183 40215 52003=
0089010330999992014011215004+70250+019500FM-12+002499999V0201601N004019999999N999999999-00211-00711102131ADDMA1999990101811MD1710011+9990REMSYN04801033 46/// /1604 11021 21071 30181 40213 57001=
0089010330999992014011216004+70250+019500FM-12+002499999V0201601N004019999999N999999999-00211-00641102111ADDMA1999990101791MD1710041+9990REMSYN04801033 46/// /1604 11021 21064 30179 40211 57004=
0089010330999992014011217004+70250+019500FM-12+002499999V0201601N004019999999N999999999-00191-00581102091ADDMA1999990101771MD1710061+9990REMSYN04801033 46/// /1604 11019 21058 30177 40209 57006=
0132010330999992014011218004+70250+019500FM-12+002499999V0201901N006019999999N999999999-00191-00571102061ADDKA1120M-00181MA1999990101741MD1710071+9990OD139900801999REMSYN06401033 46/// /1906 11019 21057 30174 40206 57007 333 11018 91108=
0089010330999992014011219004+70250+019500FM-12+002499999V0202001N007019999999N999999999-00181-00541102071ADDMA1999990101751MD1710051+9990REMSYN04801033 46/// /2007 11018 21054 30175 40207 57005=
0089010330999992014011220004+70250+019500FM-12+002499999V0201901N008019999999N999999999-00171-00541102051ADDMA1999990101731MD1710031+9990REMSYN04801033 46/// /1908 11017 21054 30173 40205 57003=
0108010330999992014011221004+70250+019500FM-12+002499999V0202001N008019999999N999999999-00161-00511102051ADDMA1999990101731MD1790019+9990REMSYN04801033 46/// /2008 11016 21051 30173 40205 54001=EQDQ01.1    3APC3  
0089010330999992014011222004+70250+019500FM-12+002499999V0202001N009019999999N999999999-00151-00501102021ADDMA1999990101701MD1710051+9990REMSYN04801033 46/// /2009 11015 21050 30170 40202 57005=
0089010330999992014011223004+70250+019500FM-12+002499999V0201901N008019999999N999999999-00161-00501102001ADDMA1999990101681MD1710061+9990REMSYN04801033 46/// /1908 11016 21050 30168 40200 57006=
0113010330999992014011300004+70250+019500FM-12+002499999V0201901N008019999999N999999999-00131-00451101971ADDMA1999990101651MD1710081+9990OD139901201999REMSYN05801033 46/// /1908 11013 21045 30165 40197 57008 333 91112=
0089010330999992014011301004+70250+019500FM-12+002499999V0202001N008019999999N999999999-00111-00391101971ADDMA1999990101651MD1610051+9990REMSYN04801033 46/// /2008 11011 21039 30165 40197 56005=
0089010330999992014011302004+70250+019500FM-12+002499999V0202001N008019999999N999999999-00111-00371101961ADDMA1999990101641MD1710041+9990REMSYN04801033 46/// /2008 11011 21037 30164 40196 57004=
0089010330999992014011303004+70250+019500FM-12+002499999V0202001N008019999999N999999999-00131-00371101941ADDMA1999990101621MD1710031+9990REMSYN04801033 46/// /2008 11013 21037 30162 40194 57003=
0089010330999992014011304004+70250+019500FM-12+002499999V0201901N008019999999N999999999-00101-00361101931ADDMA1999990101611MD1710041+9990REMSYN04801033 46/// /1908 11010 21036 30161 40193 57004=
0089010330999992014011305004+70250+019500FM-12+002499999V0201901N008019999999N999999999-00081-00351101901ADDMA1999990101581MD1710061+9990REMSYN04801033 46/// /1908 11008 21035 30158 40190 57006=
0132010330999992014011306004+70250+019500FM-12+002499999V0202001N008019999999N999999999-00081-00361101881ADDKA1240N-00201MA1999990101561MD1710061+9990OD139901201999REMSYN06401033 46/// /2008 11008 21036 30156 40188 57006 333 21020 91112=
0089010330999992014011307004+70250+019500FM-12+002499999V0201901N007019999999N999999999-00041-00311101891ADDMA1999990101571MD1510041+9990REMSYN04801033 46/// /1907 11004 21031 30157 40189 55004=
0089010330999992014011308004+70250+019500FM-12+002499999V0202101N008019999999N999999999-00041-00331101911ADDMA1999990101591MD1310011+9990REMSYN04801033 46/// /2108 11004 21033 30159 40191 53001=
0089010330999992014011309004+70250+019500FM-12+002499999V0202101N007019999999N999999999-00041-00341101931ADDMA1999990101611MD1210051+9990REMSYN04801033 46/// /2107 11004 21034 30161 40193 52005=
0089010330999992014011310004+70250+019500FM-12+002499999V0202001N007019999999N999999999-00041-00331101941ADDMA1999990101621MD1210041+9990REMSYN04801033 46/// /2007 11004 21033 30162 40194 52004=
0089010330999992014011311004+70250+019500FM-12+002499999V0202001N006019999999N999999999-00051-00351101921ADDMA1999990101601MD1900001+9990REMSYN04801033 46/// /2006 11005 21035 30160 40192 50000=
0113010330999992014011312004+70250+019500FM-12+002499999V0201901N005019999999N999999999-00061-00361101901ADDMA1999990101581MD1710031+9990OD139901201999REMSYN05801033 46/// /1905 11006 21036 30158 40190 57003 333 91112=
0089010330999992014011313004+70250+019500FM-12+002499999V0201501N005019999999N999999999-00091-00381101901ADDMA1999990101581MD1710031+9990REMSYN04801033 46/// /1505 11009 21038 30158 40190 57003=
0089010330999992014011314004+70250+019500FM-12+002499999V0201501N005019999999N999999999-00081-00361101901ADDMA1999990101581MD1710011+9990REMSYN04801033 46/// /1505 11008 21036 30158 40190 57001=
0108010330999992014011315004+70250+019500FM-12+002499999V0201901N004019999999N999999999-00061-00351101911ADDMA1999990101591MD1290019+9990REMSYN04801033 46/// /1904 11006 21035 30159 40191 54001=EQDQ01.1    3APC3  
0089010330999992014011316004+70250+019500FM-12+002499999V0201501N004019999999N999999999-00071-00351101881ADDMA1999990101561MD1710011+9990REMSYN04801033 46/// /1504 11007 21035 30156 40188 57001=
0089010330999992014011317004+70250+019500FM-12+002499999V0201501N007019999999N999999999-00091-00331101861ADDMA1999990101541MD1710041+9990REMSYN04801033 46/// /1507 11009 21033 30154 40186 57004=
0132010330999992014011318004+70250+019500FM-12+002499999V0201501N006019999999N999999999-00131-00361101861ADDKA1120M-00031MA1999990101541MD1710051+9990OD139900801999REMSYN06401033 46/// /1506 11013 21036 30154 40186 57005 333 11003 91108=
0089010330999992014011319004+70250+019500FM-12+002499999V0201501N005019999999N999999999-00131-00361101871ADDMA1999990101551MD1710021+9990REMSYN04801033 46/// /1505 11013 21036 30155 40187 57002=
0108010330999992014011320004+70250+019500FM-12+002499999V0201501N007019999999N999999999-00121-00341101851ADDMA1999990101531MD1790019+9990REMSYN04801033 46/// /1507 11012 21034 30153 40185 54001=EQDQ01.1    3APC3  
0089010330999992014011321004+70250+019500FM-12+002499999V0201601N004019999999N999999999-00141-00381101881ADDMA1999990101561MD1210021+9990REMSYN04801033 46/// /1604 11014 21038 30156 40188 52002=
0089010330999992014011322004+70250+019500FM-12+002499999V0201601N004019999999N999999999-00141-00381101901ADDMA1999990101581MD1310031+9990REMSYN04801033 46/// /1604 11014 21038 30158 40190 53003=
0089010330999992014011323004+70250+019500FM-12+002499999V0201401N003019999999N999999999-00161-00421101891ADDMA1999990101571MD1210041+9990REMSYN04801033 46/// /1403 11016 21042 30157 40189 52004=
0113010330999992014011400004+70250+019500FM-12+002499999V0201501N003019999999N999999999-00171-00421101881ADDMA1999990101561MD1410001+9990OD139900901999REMSYN05801033 46/// /1503 11017 21042 30156 40188 54000 333 91109=
0089010330999992014011401004+70250+019500FM-12+002499999V0201401N002019999999N999999999-00201-00451101881ADDMA1999990101561MD1710021+9990REMSYN04801033 46/// /1402 11020 21045 30156 40188 57002=
0108010330999992014011402004+70250+019500FM-12+002499999V0201601N003019999999N999999999-00201-00451101881ADDMA1999990101561MD1790019+9990REMSYN04801033 46/// /1603 11020 21045 30156 40188 54001=EQDQ01.1    3APC3  
0089010330999992014011403004+70250+019500FM-12+002499999V0201401N001019999999N999999999-00251-00501101881ADDMA1999990101561MD1410001+9990REMSYN04801033 46/// /1401 11025 21050 30156 40188 54000=
0108010330999992014011404004+70250+019500FM-12+002499999V0201501N002019999999N999999999-00241-00481101871ADDMA1999990101551MD1790019+9990REMSYN04801033 46/// /1502 11024 21048 30155 40187 54001=EQDQ01.1    3APC3  
0108010330999992014011405004+70250+019500FM-12+002499999V0201601N002019999999N999999999-00221-00461101881ADDMA1999990101561MD1410009+9990REMSYN04801033 46/// /1602 11022 21046 30156 40188 54001=EQDQ01.1    3APC3  
0151010330999992014011406004+70250+019500FM-12+002499999V0201601N003019999999N999999999-00201-00421101871ADDKA1240N-00251MA1999990101551MD1790019+9990OD139900501999REMSYN06401033 46/// /1603 11020 21042 30155 40187 54001 333 21025 91105=EQDQ01.1    3APC3  
0108010330999992014011407004+70250+019500FM-12+002499999V0201701N003019999999N999999999-00211-00421101871ADDMA1999990101551MD1410009+9990REMSYN04801033 46/// /1703 11021 21042 30155 40187 54001=EQDQ01.1    3APC3  
0089010330999992014011408004+70250+019500FM-12+002499999V0201601N002019999999N999999999-00221-00441101901ADDMA1999990101581MD1310031+9990REMSYN04801033 46/// /1602 11022 21044 30158 40190 53003=
0089010330999992014011409004+70250+019500FM-12+002499999V0201601N003019999999N999999999-00211-00421101911ADDMA1999990101591MD1210041+9990REMSYN04801033 46/// /1603 11021 21042 30159 40191 52004=
0089010330999992014011410004+70250+019500FM-12+002499999V0200401N001019999999N999999999-00221-00441101921ADDMA1999990101601MD1210051+9990REMSYN04801033 46/// /0401 11022 21044 30160 40192 52005=
0089010330999992014011411004+70250+019500FM-12+002499999V0201601N002019999999N999999999-00201-00421101951ADDMA1999990101631MD1210051+9990REMSYN04801033 46/// /1602 11020 21042 30163 40195 52005=
0113010330999992014011412004+70250+019500FM-12+002499999V0201601N004019999999N999999999-00191-00391101951ADDMA1999990101631MD1210041+9990OD139900601999REMSYN05801033 46/// /1604 11019 21039 30163 40195 52004 333 91106=
0089010330999992014011413004+70250+019500FM-12+002499999V0201501N002019999999N999999999-00201-00421101961ADDMA1999990101641MD1210041+9990REMSYN04801033 46/// /1502 11020 21042 30164 40196 52004=
0089010330999992014011414004+70250+019500FM-12+002499999V0201701N003019999999N999999999-00201-00411101991ADDMA1999990101671MD1210041+9990REMSYN04801033 46/// /1703 11020 21041 30167 40199 52004=
0089010330999992014011415004+70250+019500FM-12+002499999V0201801N004019999999N999999999-00171-00371102001ADDMA1999990101681MD1210051+9990REMSYN04801033 46/// /1804 11017 21037 30168 40200 52005=
0089010330999992014011416004+70250+019500FM-12+002499999V0200501N001019999999N999999999-00151-00371102031ADDMA1999990101711MD1210061+9990REMSYN04801033 46/// /0501 11015 21037 30171 40203 52006=
0132010330999992014011418004+70250+019500FM-12+002499999V0201701N004019999999N999999999-00111-00351102051ADDKA1120M-00111MA1999990101731MD1210051+9990OD139900601999REMSYN06401033 46/// /1704 11011 21035 30173 40205 52005 333 11011 91106=
0089010330999992014011419004+70250+019500FM-12+002499999V0202101N001019999999N999999999-00101-00361102071ADDMA1999990101751MD1210041+9990REMSYN04801033 46/// /2101 11010 21036 30175 40207 52004=
0089010330999992014011420004+70250+019500FM-12+002499999V0203101N001019999999N999999999-00071-00361102071ADDMA1999990101751MD1210031+9990REMSYN04801033 46/// /3101 11007 21036 30175 40207 52003=
0089010330999992014011421004+70250+019500FM-12+002499999V0201801N002019999999N999999999-00101-00401102101ADDMA1999990101781MD1210051+9990REMSYN04801033 46/// /1802 11010 21040 30178 40210 52005=
0089010330999992014011422004+70250+019500FM-12+002499999V0201301N003019999999N999999999-00071-00521102101ADDMA1999990101781MD1210031+9990REMSYN04801033 46/// /1303 11007 21052 30178 40210 52003=
0089010330999992014011423004+70250+019500FM-12+002499999V0201301N003019999999N999999999-00061-00521102121ADDMA1999990101801MD1210051+9990REMSYN04801033 46/// /1303 11006 21052 30180 40212 52005=
0113010330999992014011500004+70250+019500FM-12+002499999V0201001N003019999999N999999999-00121-00541102121ADDMA1999990101801MD1210031+9990OD139900601999REMSYN05801033 46/// /1003 11012 21054 30180 40212 52003 333 91106=
0108010330999992014011501004+70250+019500FM-12+002499999V0200901N005019999999N999999999-00111-00561102111ADDMA1999990101791MD1290019+9990REMSYN04801033 46/// /0905 11011 21056 30179 40211 54001=EQDQ01.1    3APC3  
0089010330999992014011502004+70250+019500FM-12+002499999V0201401N003019999999N999999999-00061-00561102101ADDMA1999990101781MD1710021+9990REMSYN04801033 46/// /1403 11006 21056 30178 40210 57002=
0108010330999992014011503004+70250+019500FM-12+002499999V0201501N003019999999N999999999-00071-00691102121ADDMA1999990101801MD1410009+9990REMSYN04801033 46/// /1503 11007 21069 30180 40212 54001=EQDQ01.1    3APC3  
0089010330999992014011504004+70250+019500FM-12+002499999V0201101N003019999999N999999999-00101-00751102121ADDMA1999990101801MD1210011+9990REMSYN04801033 46/// /1103 11010 21075 30180 40212 52001=
0089010330999992014011505004+70250+019500FM-12+002499999V0201301N003019999999N999999999-00101-00711102131ADDMA1999990101811MD1210031+9990REMSYN04801033 46/// /1303 11010 21071 30181 40213 52003=
0132010330999992014011506004+70250+019500FM-12+002499999V0201201N004019999999N999999999-00091-00711102141ADDKA1240N-00141MA1999990101821MD1310031+9990OD139901101999REMSYN06401033 46/// /1204 11009 21071 30182 40214 53003 333 21014 91111=
0089010330999992014011507004+70250+019500FM-12+002499999V0201301N002019999999N999999999-00111-00681102151ADDMA1999990101831MD1210031+9990REMSYN04801033 46/// /1302 11011 21068 30183 40215 52003=
0089010330999992014011508004+70250+019500FM-12+002499999V0201001N008019999999N999999999-00091-00661102141ADDMA1999990101821MD1210021+9990REMSYN04801033 46/// /1008 11009 21066 30182 40214 52002=
0089010330999992014011509004+70250+019500FM-12+002499999V0201301N005019999999N999999999-00101-00731102171ADDMA1999990101851MD1310031+9990REMSYN04801033 46/// /1305 11010 21073 30185 40217 53003=
0089010330999992014011510004+70250+019500FM-12+002499999V0201301N006019999999N999999999-00101-00761102201ADDMA1999990101881MD1310051+9990REMSYN04801033 46/// /1306 11010 21076 30188 40220 53005=
0089010330999992014011511004+70250+019500FM-12+002499999V0201101N006019999999N999999999-00161-00691102231ADDMA1999990101911MD1210091+9990REMSYN04801033 46/// /1106 11016 21069 30191 40223 52009=
0113010330999992014011512004+70250+019500FM-12+002499999V0201301N006019999999N999999999-00101-00751102231ADDMA1999990101911MD1900061+9990OD139901201999REMSYN05801033 46/// /1306 11010 21075 30191 40223 50006 333 91112=
0089010330999992014011513004+70250+019500FM-12+002499999V0201201N005019999999N999999999-00121-00791102271ADDMA1999990101951MD1210061+9990REMSYN04801033 46/// /1205 11012 21079 30195 40227 52006=
0089010330999992014011514004+70250+019500FM-12+002499999V0201101N005019999999N999999999-00171-00751102301ADDMA1999990101981MD1310071+9990REMSYN04801033 46/// /1105 11017 21075 30198 40230 53007=
0089010330999992014011515004+70250+019500FM-12+002499999V0201301N005019999999N999999999-00131-00791102291ADDMA1999990101971MD1900051+9990REMSYN04801033 46/// /1305 11013 21079 30197 40229 50005=
0089010330999992014011516004+70250+019500FM-12+002499999V0201201N005019999999N999999999-00161-00771102331ADDMA1999990102011MD1310061+9990REMSYN04801033 46/// /1205 11016 21077 30201 40233 53006=
0089010330999992014011517004+70250+019500FM-12+002499999V0201301N006019999999N999999999-00161-00721102321ADDMA1999990102001MD1310031+9990REMSYN04801033 46/// /1306 11016 21072 30200 40232 53003=
0132010330999992014011518004+70250+019500FM-12+002499999V0201401N006019999999N999999999-00141-00681102361ADDKA1120M-00081MA1999990102041MD1210081+9990OD139900901999REMSYN06401033 46/// /1406 11014 21068 30204 40236 52008 333 11008 91109=
0089010330999992014011519004+70250+019500FM-12+002499999V0201501N003019999999N999999999-00191-00761102431ADDMA1999990102111MD1310101+9990REMSYN04801033 46/// /1503 11019 21076 30211 40243 53010=
0089010330999992014011520004+70250+019500FM-12+002499999V0201601N003019999999N999999999-00161-00651102451ADDMA1999990102131MD1210131+9990REMSYN04801033 46/// /1603 11016 21065 30213 40245 52013=
0089010330999992014011521004+70250+019500FM-12+002499999V0201401N004019999999N999999999-00171-00671102471ADDMA1999990102151MD1110111+9990REMSYN04801033 46/// /1404 11017 21067 30215 40247 51011=
0089010330999992014011522004+70250+019500FM-12+002499999V0201501N004019999999N999999999-00161-00781102481ADDMA1999990102161MD1210051+9990REMSYN04801033 46/// /1504 11016 21078 30216 40248 52005=
0089010330999992014011523004+70250+019500FM-12+002499999V0201501N005019999999N999999999-00161-00721102471ADDMA1999990102151MD1210021+9990REMSYN04801033 46/// /1505 11016 21072 30215 40247 52002=
0132010330999992014011600004+70250+019500FM-12+002499999V0201501N008019999999N999999999-00161-00691102461ADDMA1999990102141MD1790019+9990OD139901001999REMSYN05801033 46/// /1508 11016 21069 30214 40246 54001 333 91110=EQDQ014     3APCTEN
0089010330999992014011601004+70250+019500FM-12+002499999V0201501N007019999999N999999999-00131-00721102451ADDMA1999990102131MD1710031+9990REMSYN04801033 46/// /1507 11013 21072 30213 40245 57003=
0089010330999992014011602004+70250+019500FM-12+002499999V0201501N006019999999N999999999-00151-00711102451ADDMA1999990102131MD1710021+9990REMSYN04801033 46/// /1506 11015 21071 30213 40245 57002=
0089010330999992014011603004+70250+019500FM-12+002499999V0201501N007019999999N999999999-00141-00691102431ADDMA1999990102111MD1710021+9990REMSYN04801033 46/// /1507 11014 21069 30211 40243 57002=
0089010330999992014011604004+70250+019500FM-12+002499999V0201501N006019999999N999999999-00161-00741102461ADDMA1999990102141MD1310011+9990REMSYN04801033 46/// /1506 11016 21074 30214 40246 53001=
0089010330999992014011605004+70250+019500FM-12+002499999V0201501N008019999999N999999999-00181-00771102461ADDMA1999990102141MD1210011+9990REMSYN04801033 46/// /1508 11018 21077 30214 40246 52001=
0132010330999992014011606004+70250+019500FM-12+002499999V0201501N008019999999N999999999-00211-00751102451ADDKA1240N-00221MA1999990102131MD1900021+9990OD139901101999REMSYN06401033 46/// /1508 11021 21075 30213 40245 50002 333 21022 91111=
0089010330999992014011607004+70250+019500FM-12+002499999V0201501N008019999999N999999999-00161-00751102431ADDMA1999990102111MD1710031+9990REMSYN04801033 46/// /1508 11016 21075 30211 40243 57003=
0089010330999992014011608004+70250+019500FM-12+002499999V0201601N008019999999N999999999-00211-00801102451ADDMA1999990102131MD1510011+9990REMSYN04801033 46/// /1608 11021 21080 30213 40245 55001=
0089010330999992014011609004+70250+019500FM-12+002499999V0201501N008019999999N999999999-00201-00821102471ADDMA1999990102151MD1310021+9990REMSYN04801033 46/// /1508 11020 21082 30215 40247 53002=
0089010330999992014011610004+70250+019500FM-12+002499999V0201501N010019999999N999999999-00191-00791102451ADDMA1999990102131MD1900031+9990REMSYN04801033 46/// /1510 11019 21079 30213 40245 50003=
0089010330999992014011611004+70250+019500FM-12+002499999V0201501N010019999999N999999999-00191-00771102441ADDMA1999990102121MD1900011+9990REMSYN04801033 46/// /1510 11019 21077 30212 40244 50001=
0113010330999992014011612004+70250+019500FM-12+002499999V0201501N009019999999N999999999-00191-00811102431ADDMA1999990102111MD1710041+9990OD139901301999REMSYN05801033 46/// /1509 11019 21081 30211 40243 57004 333 91113=
0089010330999992014011613004+70250+019500FM-12+002499999V0201501N010019999999N999999999-00201-00871102421ADDMA1999990102101MD1710031+9990REMSYN04801033 46/// /1510 11020 21087 30210 40242 57003=
0089010330999992014011614004+70250+019500FM-12+002499999V0201501N009019999999N999999999-00191-00791102401ADDMA1999990102081MD1710041+9990REMSYN04801033 46/// /1509 11019 21079 30208 40240 57004=
0089010330999992014011615004+70250+019500FM-12+002499999V0201501N009019999999N999999999-00201-00851102351ADDMA1999990102031MD1810081+9990REMSYN04801033 46/// /1509 11020 21085 30203 40235 58008=
0089010330999992014011616004+70250+019500FM-12+002499999V0201501N009019999999N999999999-00211-00801102351ADDMA1999990102031MD1710081+9990REMSYN04801033 46/// /1509 11021 21080 30203 40235 57008=
0089010330999992014011617004+70250+019500FM-12+002499999V0201501N009019999999N999999999-00211-00901102331ADDMA1999990102011MD1610071+9990REMSYN04801033 46/// /1509 11021 21090 30201 40233 56007=
0132010330999992014011618004+70250+019500FM-12+002499999V0201501N007019999999N999999999-00241-00891102361ADDKA1120M-00161MA1999990102041MD1310011+9990OD139901301999REMSYN06401033 46/// /1507 11024 21089 30204 40236 53001 333 11016 91113=
0089010330999992014011619004+70250+019500FM-12+002499999V0201601N007019999999N999999999-00241-00981102321ADDMA1999990102001MD1810021+9990REMSYN04801033 46/// /1607 11024 21098 30200 40232 58002=
0089010330999992014011620004+70250+019500FM-12+002499999V0201501N008019999999N999999999-00231-00891102341ADDMA1999990102021MD1900011+9990REMSYN04801033 46/// /1508 11023 21089 30202 40234 50001=
0089010330999992014011621004+70250+019500FM-12+002499999V0201501N007019999999N999999999-00241-01061102321ADDMA1999990102001MD1610041+9990REMSYN04801033 46/// /1507 11024 21106 30200 40232 56004=
0089010330999992014011622004+70250+019500FM-12+002499999V0201501N008019999999N999999999-00201-01121102291ADDMA1999990101971MD1810031+9990REMSYN04801033 46/// /1508 11020 21112 30197 40229 58003=
0089010330999992014011623004+70250+019500FM-12+002499999V0201501N008019999999N999999999-00261-00911102291ADDMA1999990101971MD1710061+9990REMSYN04801033 46/// /1508 11026 21091 30197 40229 57006=
0113010330999992014011700004+70250+019500FM-12+002499999V0201601N006019999999N999999999-00291-01021102351ADDMA1999990102031MD1310031+9990OD139901201999REMSYN05801033 46/// /1606 11029 21102 30203 40235 53003 333 91112=
0089010330999992014011701004+70250+019500FM-12+002499999V0201401N006019999999N999999999-00231-01201102371ADDMA1999990102051MD1310081+9990REMSYN04801033 46/// /1406 11023 21120 30205 40237 53008=
0089010330999992014011702004+70250+019500FM-12+002499999V0201601N005019999999N999999999-00251-01151102381ADDMA1999990102061MD1110091+9990REMSYN04801033 46/// /1605 11025 21115 30206 40238 51009=
0089010330999992014011703004+70250+019500FM-12+002499999V0201401N005019999999N999999999-00281-00981102371ADDMA1999990102051MD1210021+9990REMSYN04801033 46/// /1405 11028 21098 30205 40237 52002=
0089010330999992014011704004+70250+019500FM-12+002499999V0201601N004019999999N999999999-00281-01011102331ADDMA1999990102011MD1810031+9990REMSYN04801033 46/// /1604 11028 21101 30201 40233 58003=
0089010330999992014011705004+70250+019500FM-12+002499999V0201601N004019999999N999999999-00321-01001102311ADDMA1999990101991MD1710071+9990REMSYN04801033 46/// /1604 11032 21100 30199 40231 57007=
0132010330999992014011706004+70250+019500FM-12+002499999V0201401N005019999999N999999999-00271-01011102291ADDKA1240N-00341MA1999990101971MD1710091+9990OD139901101999REMSYN06401033 46/// /1405 11027 21101 30197 40229 57009 333 21034 91111=
0089010330999992014011707004+70250+019500FM-12+002499999V0201501N006019999999N999999999-00301-00961102291ADDMA1999990101971MD1710051+9990REMSYN04801033 46/// /1506 11030 21096 30197 40229 57005=
0089010330999992014011708004+70250+019500FM-12+002499999V0201601N006019999999N999999999-00321-00931102301ADDMA1999990101981MD1510001+9990REMSYN04801033 46/// /1606 11032 21093 30198 40230 55000=
0089010330999992014011709004+70250+019500FM-12+002499999V0201501N005019999999N999999999-00311-00941102321ADDMA1999990102001MD1210041+9990REMSYN04801033 46/// /1505 11031 21094 30200 40232 52004=
0089010330999992014011710004+70250+019500FM-12+002499999V0201501N006019999999N999999999-00321-00931102311ADDMA1999990101991MD1900021+9990REMSYN04801033 46/// /1506 11032 21093 30199 40231 50002=
0089010330999992014011711004+70250+019500FM-12+002499999V0201501N006019999999N999999999-00301-00951102301ADDMA1999990101981MD1900001+9990REMSYN04801033 46/// /1506 11030 21095 30198 40230 50000=
0113010330999992014011712004+70250+019500FM-12+002499999V0201601N006019999999N999999999-00301-00981102331ADDMA1999990102011MD1310011+9990OD139900901999REMSYN05801033 46/// /1606 11030 21098 30201 40233 53001 333 91109=
0089010330999992014011713004+70250+019500FM-12+002499999V0201401N004019999999N999999999-00311-01041102351ADDMA1999990102031MD1210051+9990REMSYN04801033 46/// /1404 11031 21104 30203 40235 52005=
0089010330999992014011714004+70250+019500FM-12+002499999V0201501N005019999999N999999999-00291-01061102371ADDMA1999990102051MD1210061+9990REMSYN04801033 46/// /1505 11029 21106 30205 40237 52006=
0089010330999992014011715004+70250+019500FM-12+002499999V0201501N005019999999N999999999-00291-01001102381ADDMA1999990102061MD1210041+9990REMSYN04801033 46/// /1505 11029 21100 30206 40238 52004=
0089010330999992014011716004+70250+019500FM-12+002499999V0201501N005019999999N999999999-00301-01021102401ADDMA1999990102081MD1210051+9990REMSYN04801033 46/// /1505 11030 21102 30208 40240 52005=
0089010330999992014011717004+70250+019500FM-12+002499999V0201401N002019999999N999999999-00321-01231102421ADDMA1999990102101MD1210061+9990REMSYN04801033 46/// /1402 11032 21123 30210 40242 52006=
0132010330999992014011718004+70250+019500FM-12+002499999V0201401N003019999999N999999999-00301-01181102451ADDKA1120M-00241MA1999990102131MD1210071+9990OD139900801999REMSYN06401033 46/// /1403 11030 21118 30213 40245 52007 333 11024 91108=
0089010330999992014011719004+70250+019500FM-12+002499999V0201701N005019999999N999999999-00291-00941102471ADDMA1999990102151MD1210071+9990REMSYN04801033 46/// /1705 11029 21094 30215 40247 52007=
0089010330999992014011720004+70250+019500FM-12+002499999V0201601N007019999999N999999999-00281-00771102481ADDMA1999990102161MD1210051+9990REMSYN04801033 46/// /1607 11028 21077 30216 40248 52005=
0089010330999992014011721004+70250+019500FM-12+002499999V0201801N005019999999N999999999-00291-00781102501ADDMA1999990102181MD1210061+9990REMSYN04801033 46/// /1805 11029 21078 30218 40250 52006=
0089010330999992014011722004+70250+019500FM-12+002499999V0201701N005019999999N999999999-00271-00821102511ADDMA1999990102191MD1210041+9990REMSYN04801033 46/// /1705 11027 21082 30219 40251 52004=
0089010330999992014011723004+70250+019500FM-12+002499999V0201801N004019999999N999999999-00251-00821102491ADDMA1999990102171MD1210021+9990REMSYN04801033 46/// /1804 11025 21082 30217 40249 52002=
0132010330999992014011800004+70250+019500FM-12+002499999V0201701N004019999999N999999999-00271-00801102511ADDMA1999990102191MD1290019+9990OD139900901999REMSYN05801033 46/// /1704 11027 21080 30219 40251 54001 333 91109=EQDQ01.1    3APC3  
0089010330999992014011801004+70250+019500FM-12+002499999V0200601N001019999999N999999999-00301-01111102511ADDMA1999990102191MD1410001+9990REMSYN04801033 46/// /0601 11030 21111 30219 40251 54000=
0089010330999992014011802004+70250+019500FM-12+002499999V0201601N001019999999N999999999-00331-01161102521ADDMA1999990102201MD1210031+9990REMSYN04801033 46/// /1601 11033 21116 30220 40252 52003=
0089010330999992014011803004+70250+019500FM-12+002499999V0201501N003019999999N999999999-00311-00931102521ADDMA1999990102201MD1210011+9990REMSYN04801033 46/// /1503 11031 21093 30220 40252 52001=
0089010330999992014011804004+70250+019500FM-12+002499999V0201601N002019999999N999999999-00301-00871102521ADDMA1999990102201MD1210021+9990REMSYN04801033 46/// /1602 11030 21087 30220 40252 52002=
0089010330999992014011805004+70250+019500FM-12+002499999V0201701N003019999999N999999999-00321-00851102541ADDMA1999990102221MD1210011+9990REMSYN04801033 46/// /1703 11032 21085 30222 40254 52001=
0132010330999992014011806004+70250+019500FM-12+002499999V0201601N003019999999N999999999-00341-00941102511ADDKA1240N-00361MA1999990102191MD1810011+9990OD139900701999REMSYN06401033 46/// /1603 11034 21094 30219 40251 58001 333 21036 91107=
0089010330999992014011807004+70250+019500FM-12+002499999V0201701N002019999999N999999999-00331-00911102521ADDMA1999990102201MD1510001+9990REMSYN04801033 46/// /1702 11033 21091 30220 40252 55000=
0089010330999992014011808004+70250+019500FM-12+002499999V0201601N002019999999N999999999-00351-01101102541ADDMA1999990102221MD1510011+9990REMSYN04801033 46/// /1602 11035 21110 30222 40254 55001=
0089010330999992014011809004+70250+019500FM-12+002499999V0201401N001019999999N999999999-00341-01131102581ADDMA1999990102261MD1210071+9990REMSYN04801033 46/// /1401 11034 21113 30226 40258 52007=
0089010330999992014011810004+70250+019500FM-12+002499999V0201501N002019999999N999999999-00341-01071102601ADDMA1999990102281MD1210071+9990REMSYN04801033 46/// /1502 11034 21107 30228 40260 52007=
0089010330999992014011811004+70250+019500FM-12+002499999V0201701N003019999999N999999999-00311-00951102591ADDMA1999990102271MD1110051+9990REMSYN04801033 46/// /1703 11031 21095 30227 40259 51005=
0113010330999992014011812004+70250+019500FM-12+002499999V0201701N003019999999N999999999-00311-00871102611ADDMA1999990102291MD1210021+9990OD139900701999REMSYN05801033 46/// /1703 11031 21087 30229 40261 52002 333 91107=
0089010330999992014011813004+70250+019500FM-12+002499999V0201601N002019999999N999999999-00301-00871102611ADDMA1999990102291MD1210011+9990REMSYN04801033 46/// /1602 11030 21087 30229 40261 52001=
0108010330999992014011814004+70250+019500FM-12+002499999V0201701N003019999999N999999999-00301-00851102601ADDMA1999990102281MD1290019+9990REMSYN04801033 46/// /1703 11030 21085 30228 40260 54001=EQDQ01.1    3APC3  
0089010330999992014011815004+70250+019500FM-12+002499999V0201601N004019999999N999999999-00301-00811102591ADDMA1999990102271MD1710011+9990REMSYN04801033 46/// /1604 11030 21081 30227 40259 57001=
0089010330999992014011816004+70250+019500FM-12+002499999V0201401N002019999999N999999999-00291-00831102611ADDMA1999990102291MD1510001+9990REMSYN04801033 46/// /1402 11029 21083 30229 40261 55000=
0089010330999992014011817004+70250+019500FM-12+002499999V0201701N002019999999N999999999-00311-00871102621ADDMA1999990102301MD1210031+9990REMSYN04801033 46/// /1702 11031 21087 30230 40262 52003=
0132010330999992014011818004+70250+019500FM-12+002499999V0201701N002019999999N999999999-00341-00861102611ADDKA1120M-00271MA1999990102291MD1210021+9990OD139900801999REMSYN06401033 46/// /1702 11034 21086 30229 40261 52002 333 11027 91108=
0089010330999992014011819004+70250+019500FM-12+002499999V0200501N001019999999N999999999-00321-00841102621ADDMA1999990102301MD1210011+9990REMSYN04801033 46/// /0501 11032 21084 30230 40262 52001=
0108010330999992014011820004+70250+019500FM-12+002499999V0201801N002019999999N999999999-00331-00861102611ADDMA1999990102291MD1790019+9990REMSYN04801033 46/// /1802 11033 21086 30229 40261 54001=EQDQ01.1    3APC3  
0108010330999992014011821004+70250+019500FM-12+002499999V0201401N002019999999N999999999-00291-00821102621ADDMA1999990102301MD1290019+9990REMSYN04801033 46/// /1402 11029 21082 30230 40262 54001=EQDQ01.1    3APC3  
0108010330999992014011822004+70250+019500FM-12+002499999V0201501N002019999999N999999999-00321-00861102611ADDMA1999990102291MD1790019+9990REMSYN04801033 46/// /1502 11032 21086 30229 40261 54001=EQDQ01.1    3APC3  
0089010330999992014011823004+70250+019500FM-12+002499999V0201501N002019999999N999999999-00281-00771102591ADDMA1999990102271MD1810021+9990REMSYN04801033 46/// /1502 11028 21077 30227 40259 58002=
0113010330999992014011900004+70250+019500FM-12+002499999V0201601N002019999999N999999999-00311-00871102581ADDMA1999990102261MD1710041+9990OD139900801999REMSYN05801033 46/// /1602 11031 21087 30226 40258 57004 333 91108=
0089010330999992014011901004+70250+019500FM-12+002499999V0201401N001019999999N999999999-00321-00871102561ADDMA1999990102241MD1710061+9990REMSYN04801033 46/// /1401 11032 21087 30224 40256 57006=
0089010330999992014011902004+70250+019500FM-12+002499999V0201601N003019999999N999999999-00251-00751102541ADDMA1999990102221MD1710051+9990REMSYN04801033 46/// /1603 11025 21075 30222 40254 57005=
0089010330999992014011903004+70250+019500FM-12+002499999V0201701N005019999999N999999999-00241-00671102541ADDMA1999990102221MD1710041+9990REMSYN04801033 46/// /1705 11024 21067 30222 40254 57004=
0089010330999992014011904004+70250+019500FM-12+002499999V0201801N005019999999N999999999-00261-00751102541ADDMA1999990102221MD1710021+9990REMSYN04801033 46/// /1805 11026 21075 30222 40254 57002=
0089010330999992014011905004+70250+019500FM-12+002499999V0201601N003019999999N999999999-00251-00881102531ADDMA1999990102211MD1810011+9990REMSYN04801033 46/// /1603 11025 21088 30221 40253 58001=
0132010330999992014011906004+70250+019500FM-12+002499999V0201601N002019999999N999999999-00281-00821102521ADDKA1240N-00361MA1999990102201MD1810021+9990OD139900801999REMSYN06401033 46/// /1602 11028 21082 30220 40252 58002 333 21036 91108=
0089010330999992014011907004+70250+019500FM-12+002499999V0201401N002019999999N999999999-00291-00961102521ADDMA1999990102201MD1710021+9990REMSYN04801033 46/// /1402 11029 21096 30220 40252 57002=
0089010330999992014011908004+70250+019500FM-12+002499999V0201501N001019999999N999999999-00321-00901102531ADDMA1999990102211MD1410001+9990REMSYN04801033 46/// /1501 11032 21090 30221 40253 54000=
0089010330999992014011909004+70250+019500FM-12+002499999V0201501N001019999999N999999999-00341-00841102531ADDMA1999990102211MD1210011+9990REMSYN04801033 46/// /1501 11034 21084 30221 40253 52001=
0089010330999992014011910004+70250+019500FM-12+002499999V0201601N001019999999N999999999-00321-00841102531ADDMA1999990102211MD1210011+9990REMSYN04801033 46/// /1601 11032 21084 30221 40253 52001=
0108010330999992014011911004+70250+019500FM-12+002499999V0201401N001019999999N999999999-00321-00811102541ADDMA1999990102221MD1290019+9990REMSYN04801033 46/// /1401 11032 21081 30222 40254 54001=EQDQ01.1    3APC3  
0113010330999992014011912004+70250+019500FM-12+002499999V0201601N001019999999N999999999-00301-00761102521ADDMA1999990102201MD1810011+9990OD139900501999REMSYN05801033 46/// /1601 11030 21076 30220 40252 58001 333 91105=
0089010330999992014011913004+70250+019500FM-12+002499999V0201701N002019999999N999999999-00291-00791102491ADDMA1999990102171MD1810041+9990REMSYN04801033 46/// /1702 11029 21079 30217 40249 58004=
0089010330999992014011914004+70250+019500FM-12+002499999V0201601N002019999999N999999999-00291-00791102471ADDMA1999990102151MD1710071+9990REMSYN04801033 46/// /1602 11029 21079 30215 40247 57007=
0089010330999992014011915004+70250+019500FM-12+002499999V0201401N001019999999N999999999-00291-00751102451ADDMA1999990102131MD1710061+9990REMSYN04801033 46/// /1401 11029 21075 30213 40245 57006=
0089010330999992014011916004+70250+019500FM-12+002499999V0201601N003019999999N999999999-00261-00681102431ADDMA1999990102111MD1710051+9990REMSYN04801033 46/// /1603 11026 21068 30211 40243 57005=
0089010330999992014011917004+70250+019500FM-12+002499999V0201601N004019999999N999999999-00271-00671102441ADDMA1999990102121MD1710031+9990REMSYN04801033 46/// /1604 11027 21067 30212 40244 57003=
0132010330999992014011918004+70250+019500FM-12+002499999V0201501N003019999999N999999999-00261-00671102431ADDKA1120M-00251MA1999990102111MD1710031+9990OD139900501999REMSYN06401033 46/// /1503 11026 21067 30211 40243 57003 333 11025 91105=
0089010330999992014011919004+70250+019500FM-12+002499999V0201601N002019999999N999999999-00301-00701102461ADDMA1999990102141MD1310021+9990REMSYN04801033 46/// /1602 11030 21070 30214 40246 53002=
0108010330999992014011920004+70250+019500FM-12+002499999V0201601N003019999999N999999999-00271-00621102451ADDMA1999990102131MD1290019+9990REMSYN04801033 46/// /1603 11027 21062 30213 40245 54001=EQDQ01.1    3APC3  
0089010330999992014011921004+70250+019500FM-12+002499999V0201701N003019999999N999999999-00271-00611102411ADDMA1999990102091MD1810011+9990REMSYN04801033 46/// /1703 11027 21061 30209 40241 58001=
0089010330999992014011922004+70250+019500FM-12+002499999V0201601N005019999999N999999999-00241-00591102411ADDMA1999990102091MD1710051+9990REMSYN04801033 46/// /1605 11024 21059 30209 40241 57005=
0089010330999992014011923004+70250+019500FM-12+002499999V0201801N003019999999N999999999-00261-00601102381ADDMA1999990102061MD1710061+9990REMSYN04801033 46/// /1803 11026 21060 30206 40238 57006=
0113010330999992014012000004+70250+019500FM-12+002499999V0201601N005019999999N999999999-00221-00621102371ADDMA1999990102051MD1710041+9990OD139900601999REMSYN05801033 46/// /1605 11022 21062 30205 40237 57004 333 91106=
0089010330999992014012001004+70250+019500FM-12+002499999V0201601N003019999999N999999999-00211-00721102361ADDMA1999990102041MD1710051+9990REMSYN04801033 46/// /1603 11021 21072 30204 40236 57005=
0089010330999992014012002004+70250+019500FM-12+002499999V0201701N005019999999N999999999-00151-00651102331ADDMA1999990102011MD1710051+9990REMSYN04801033 46/// /1705 11015 21065 30201 40233 57005=
0089010330999992014012003004+70250+019500FM-12+002499999V0201801N004019999999N999999999-00091-00671102301ADDMA1999990101981MD1810071+9990REMSYN04801033 46/// /1804 11009 21067 30198 40230 58007=
0089010330999992014012004004+70250+019500FM-12+002499999V0201601N005019999999N999999999-00081-00681102281ADDMA1999990101961MD1710081+9990REMSYN04801033 46/// /1605 11008 21068 30196 40228 57008=
0089010330999992014012005004+70250+019500FM-12+002499999V0201601N004019999999N999999999-00071-00651102291ADDMA1999990101971MD1510041+9990REMSYN04801033 46/// /1604 11007 21065 30197 40229 55004=
0132010330999992014012006004+70250+019500FM-12+002499999V0201601N003019999999N999999999-00101-00611102291ADDKA1240N-00311MA1999990101971MD1710011+9990OD139900901999REMSYN06401033 46/// /1603 11010 21061 30197 40229 57001 333 21031 91109=
0089010330999992014012007004+70250+019500FM-12+002499999V0201601N004019999999N999999999-00091-00531102271ADDMA1999990101951MD1410001+9990REMSYN04801033 46/// /1604 11009 21053 30195 40227 54000=
0089010330999992014012008004+70250+019500FM-12+002499999V0201701N003019999999N999999999-00111-00521102311ADDMA1999990101991MD1310021+9990REMSYN04801033 46/// /1703 11011 21052 30199 40231 53002=
0089010330999992014012009004+70250+019500FM-12+002499999V0201701N003019999999N999999999-00101-00501102341ADDMA1999990102021MD1310061+9990REMSYN04801033 46/// /1703 11010 21050 30202 40234 53006=
0089010330999992014012010004+70250+019500FM-12+002499999V0201701N004019999999N999999999-00081-00441102381ADDMA1999990102061MD1210111+9990REMSYN04801033 46/// /1704 11008 21044 30206 40238 52011=
0089010330999992014012011004+70250+019500FM-12+002499999V0201601N003019999999N999999999-00091-00451102381ADDMA1999990102061MD1110081+9990REMSYN04801033 46/// /1603 11009 21045 30206 40238 51008=
0113010330999992014012012004+70250+019500FM-12+002499999V0201401N002019999999N999999999-00111-00451102421ADDMA1999990102101MD1210081+9990OD139900801999REMSYN05801033 46/// /1402 11011 21045 30210 40242 52008 333 91108=
0089010330999992014012013004+70250+019500FM-12+002499999V0201401N003019999999N999999999-00071-00401102441ADDMA1999990102121MD1310061+9990REMSYN04801033 46/// /1403 11007 21040 30212 40244 53006=
0089010330999992014012014004+70250+019500FM-12+002499999V0201501N003019999999N999999999-00041-00371102461ADDMA1999990102141MD1210081+9990REMSYN04801033 46/// /1503 11004 21037 30214 40246 52008=
0089010330999992014012015004+70250+019500FM-12+002499999V0201601N002019999999N999999999-00041-00381102481ADDMA1999990102161MD1210061+9990REMSYN04801033 46/// /1602 11004 21038 30216 40248 52006=
0089010330999992014012016004+70250+019500FM-12+002499999V0201701N002019999999N999999999-00031-00361102491ADDMA1999990102171MD1210051+9990REMSYN04801033 46/// /1702 11003 21036 30217 40249 52005=
0089010330999992014012017004+70250+019500FM-12+002499999V0201601N001019999999N999999999-00061-00381102511ADDMA1999990102191MD1210051+9990REMSYN04801033 46/// /1601 11006 21038 30219 40251 52005=
0132010330999992014012018004+70250+019500FM-12+002499999V0201601N003019999999N999999999-00071-00371102541ADDKA1120M-00021MA1999990102221MD1210051+9990OD139900401999REMSYN06401033 46/// /1603 11007 21037 30222 40254 52005 333 11002 91104=
0089010330999992014012019004+70250+019500FM-12+002499999V0201801N003019999999N999999999-00071-00351102561ADDMA1999990102241MD1210071+9990REMSYN04801033 46/// /1803 11007 21035 30224 40256 52007=
0089010330999992014012020004+70250+019500FM-12+002499999V0201301N001019999999N999999999-00111-00431102581ADDMA1999990102261MD1210061+9990REMSYN04801033 46/// /1301 11011 21043 30226 40258 52006=
0089010330999992014012021004+70250+019500FM-12+002499999V0200901N001019999999N999999999-00121-00431102611ADDMA1999990102291MD1210071+9990REMSYN04801033 46/// /0901 11012 21043 30229 40261 52007=
0089010330999992014012022004+70250+019500FM-12+002499999V0202001N001019999999N999999999-00141-00441102611ADDMA1999990102291MD1110061+9990REMSYN04801033 46/// /2001 11014 21044 30229 40261 51006=
0089010330999992014012023004+70250+019500FM-12+002499999V0201301N002019999999N999999999-00061-00431102601ADDMA1999990102281MD1900031+9990REMSYN04801033 46/// /1302 11006 21043 30228 40260 50003=
0113010330999992014012100004+70250+019500FM-12+002499999V0201401N005019999999N999999999+00061-00531102581ADDMA1999990102261MD1710031+9990OD139900701999REMSYN05801033 46/// /1405 10006 21053 30226 40258 57003 333 91107=
0089010330999992014012101004+70250+019500FM-12+002499999V0201801N003019999999N999999999+00011-00491102601ADDMA1999990102281MD1510011+9990REMSYN04801033 46/// /1803 10001 21049 30228 40260 55001=
0089010330999992014012102004+70250+019500FM-12+002499999V0201201N005019999999N999999999+00171-00721102561ADDMA1999990102241MD1810041+9990REMSYN04801033 46/// /1205 10017 21072 30224 40256 58004=
0089010330999992014012103004+70250+019500FM-12+002499999V0201301N003019999999N999999999+00181-00811102541ADDMA1999990102221MD1810031+9990REMSYN04801033 46/// /1303 10018 21081 30222 40254 58003=
0089010330999992014012104004+70250+019500FM-12+002499999V0201201N006019999999N999999999+00171-00791102521ADDMA1999990102201MD1710071+9990REMSYN04801033 46/// /1206 10017 21079 30220 40252 57007=
0089010330999992014012105004+70250+019500FM-12+002499999V0201201N004019999999N999999999+00181-00831102521ADDMA1999990102201MD1710031+9990REMSYN04801033 46/// /1204 10018 21083 30220 40252 57003=
0132010330999992014012106004+70250+019500FM-12+002499999V0201201N009019999999N999999999+00161-00831102451ADDKA1240N-00151MA1999990102131MD1810091+9990OD139901401999REMSYN06401033 46/// /1209 10016 21083 30213 40245 58009 333 21015 91114=
0089010330999992014012107004+70250+019500FM-12+002499999V0201301N007019999999N999999999+00201-01251102451ADDMA1999990102141MD1510071+9990REMSYN04801033 46/// /1307 10020 21125 30214 40245 55007=
0089010330999992014012108004+70250+019500FM-12+002499999V0203201N001019999999N999999999+00151-01391102481ADDMA1999990102161MD1510051+9990REMSYN04801033 46/// /3201 10015 21139 30216 40248 55005=
0089010330999992014012109004+70250+019500FM-12+002499999V0200801N003019999999N999999999+00101-01371102471ADDMA1999990102151MD1310021+9990REMSYN04801033 46/// /0803 10010 21137 30215 40247 53002=
0089010330999992014012110004+70250+019500FM-12+002499999V0201401N005019999999N999999999+00181-01261102461ADDMA1999990102141MD1900001+9990REMSYN04801033 46/// /1405 10018 21126 30214 40246 50000=
0089010330999992014012111004+70250+019500FM-12+002499999V0201301N003019999999N999999999+00091-01071102401ADDMA1999990102081MD1810081+9990REMSYN04801033 46/// /1303 10009 21107 30208 40240 58008=
0113010330999992014012112004+70250+019500FM-12+002499999V0202501N001019999999N999999999+00061-01051102381ADDMA1999990102061MD1710091+9990OD139901701999REMSYN05801033 46/// /2501 10006 21105 30206 40238 57009 333 91117=
0089010330999992014012113004+70250+019500FM-12+002499999V0201501N004019999999N999999999+00031-00971102351ADDMA1999990102031MD1610101+9990REMSYN04801033 46/// /1504 10003 21097 30203 40235 56010=
0089010330999992014012114004+70250+019500FM-12+002499999V0201501N005019999999N999999999+00061-00861102321ADDMA1999990102001MD1810081+9990REMSYN04801033 46/// /1505 10006 21086 30200 40232 58008=
0089010330999992014012115004+70250+019500FM-12+002499999V0201501N004019999999N999999999+00041-01081102311ADDMA1999990101991MD1710081+9990REMSYN04801033 46/// /1504 10004 21108 30199 40231 57008=
0089010330999992014012117004+70250+019500FM-12+002499999V0201701N007019999999N999999999+00051-00871102231ADDMA1999990101911MD1810091+9990REMSYN04801033 46/// /1707 10005 21087 30191 40223 58009=
0132010330999992014012118004+70250+019500FM-12+002499999V0201601N006019999999N999999999-00011-00661102251ADDKA1120M+00251MA1999990101931MD1510051+9990OD139901201999REMSYN06401033 46/// /1606 11001 21066 30193 40225 55005 333 10025 91112=
0089010330999992014012119004+70250+019500FM-12+002499999V0201601N005019999999N999999999+00031-00791102241ADDMA1999990101921MD1510041+9990REMSYN04801033 46/// /1605 10003 21079 30192 40224 55004=
