0110010300999992014052221004+69700+019017FM-12+001499999V0202901N002019999999N999999999+03741-00691100561ADDAA103000091MA1999990099861MD1900151+9990REMSYN05801030 46/// /2902 10374 21069 39986 40056 5/015 333 60007=
0110010300999992014052303004+69700+019017FM-12+001499999V0209999C999999999999N999999999+02991+02402100681ADDAA103000091MA1999990099971MD1900161+9990REMSYN05801030 46/// /0000 10299 20240 39997 40068 5/016 333 60007=
