0049010350999992014010100004+69567+020100FM-12+071099999V020999999999999999999999999999+99999+99999999999REMSYN04001035 46/// ///// 11058 2//// 333 4/168=
0049010350999992014010101004+69567+020100FM-12+071099999V020999999999999999999999999999+99999+99999999999REMSYN04001035 46/// ///// 11056 2//// 333 4/166=
0049010350999992014010102004+69567+020100FM-12+071099999V020999999999999999999999999999+99999+99999999999REMSYN04001035 46/// ///// 11058 2//// 333 4/166=
0049010350999992014010104004+69567+020100FM-12+071099999V020999999999999999999999999999+99999+99999999999REMSYN04001035 46/// ///// 11070 2//// 333 4/166=
0049010350999992014010105004+69567+020100FM-12+071099999V020999999999999999999999999999+99999+99999999999REMSYN04001035 46/// ///// 11073 2//// 333 4/167=
0055010350999992014010106004+69567+020100FM-12+071099999V020999999999999999999999999999+99999+99999999999REMSYN04601035 46/// ///// 11072 2//// 333 21076 4/167=
0049010350999992014010107004+69567+020100FM-12+071099999V020999999999999999999999999999+99999+99999999999REMSYN04001035 46/// ///// 11074 2//// 333 4/166=
0049010350999992014010108004+69567+020100FM-12+071099999V020999999999999999999999999999+99999+99999999999REMSYN04001035 46/// ///// 11076 2//// 333 4/166=
0049010350999992014010109004+69567+020100FM-12+071099999V020999999999999999999999999999+99999+99999999999REMSYN04001035 46/// ///// 11076 2//// 333 4/166=
0049010350999992014010110004+69567+020100FM-12+071099999V020999999999999999999999999999+99999+99999999999REMSYN04001035 46/// ///// 11082 2//// 333 4/166=
0049010350999992014010111004+69567+020100FM-12+071099999V020999999999999999999999999999+99999+99999999999REMSYN04001035 46/// ///// 11077 2//// 333 4/166=
0049010350999992014010112004+69567+020100FM-12+071099999V020999999999999999999999999999+99999+99999999999REMSYN04001035 46/// ///// 11081 2//// 333 4/164=
0049010350999992014010113004+69567+020100FM-12+071099999V020999999999999999999999999999+99999+99999999999REMSYN04001035 46/// ///// 11060 2//// 333 4/165=
0049010350999992014010114004+69567+020100FM-12+071099999V020999999999999999999999999999+99999+99999999999REMSYN04001035 46/// ///// 11052 2//// 333 4/166=
0049010350999992014010115004+69567+020100FM-12+071099999V020999999999999999999999999999+99999+99999999999REMSYN04001035 46/// ///// 11048 2//// 333 4/166=
0049010350999992014010116004+69567+020100FM-12+071099999V020999999999999999999999999999+99999+99999999999REMSYN04001035 46/// ///// 11037 2//// 333 4/166=
0049010350999992014010117004+69567+020100FM-12+071099999V020999999999999999999999999999+99999+99999999999REMSYN04001035 46/// ///// 11038 2//// 333 4/166=
0055010350999992014010118004+69567+020100FM-12+071099999V020999999999999999999999999999+99999+99999999999REMSYN04601035 46/// ///// 11044 2//// 333 11032 4/165=
0049010350999992014010119004+69567+020100FM-12+071099999V020999999999999999999999999999+99999+99999999999REMSYN04001035 46/// ///// 11050 2//// 333 4/165=
0049010350999992014010120004+69567+020100FM-12+071099999V020999999999999999999999999999+99999+99999999999REMSYN04001035 46/// ///// 11027 2//// 333 4/165=
0049010350999992014010121004+69567+020100FM-12+071099999V020999999999999999999999999999+99999+99999999999REMSYN04001035 46/// ///// 11026 2//// 333 4/165=
0049010350999992014010122004+69567+020100FM-12+071099999V020999999999999999999999999999+99999+99999999999REMSYN04001035 46/// ///// 11034 2//// 333 4/165=
0049010350999992014010123004+69567+020100FM-12+071099999V020999999999999999999999999999+99999+99999999999REMSYN04001035 46/// ///// 11024 2//// 333 4/165=
0049010350999992014010200004+69567+020100FM-12+071099999V020999999999999999999999999999+99999+99999999999REMSYN04001035 46/// ///// 11021 2//// 333 4/165=
0049010350999992014010201004+69567+020100FM-12+071099999V020999999999999999999999999999+99999+99999999999REMSYN04001035 46/// ///// 11026 2//// 333 4/165=
0049010350999992014010202004+69567+020100FM-12+071099999V020999999999999999999999999999+99999+99999999999REMSYN04001035 46/// ///// 11029 2//// 333 4/166=
0049010350999992014010203004+69567+020100FM-12+071099999V020999999999999999999999999999+99999+99999999999REMSYN04001035 46/// ///// 11026 2//// 333 4/163=
0049010350999992014010204004+69567+020100FM-12+071099999V020999999999999999999999999999+99999+99999999999REMSYN04001035 46/// ///// 11028 2//// 333 4/164=
0049010350999992014010205004+69567+020100FM-12+071099999V020999999999999999999999999999+99999+99999999999REMSYN04001035 46/// ///// 11045 2//// 333 4/164=
0055010350999992014010206004+69567+020100FM-12+071099999V020999999999999999999999999999+99999+99999999999REMSYN04601035 46/// ///// 11022 2//// 333 21057 4/166=
0049010350999992014010207004+69567+020100FM-12+071099999V020999999999999999999999999999+99999+99999999999REMSYN04001035 46/// ///// 11008 2//// 333 4/165=
0049010350999992014010208004+69567+020100FM-12+071099999V020999999999999999999999999999+99999+99999999999REMSYN04001035 46/// ///// 11004 2//// 333 4/164=
0049010350999992014010209004+69567+020100FM-12+071099999V020999999999999999999999999999+99999+99999999999REMSYN04001035 46/// ///// 10001 2//// 333 4/164=
0049010350999992014010210004+69567+020100FM-12+071099999V020999999999999999999999999999+99999+99999999999REMSYN04001035 46/// ///// 11009 2//// 333 4/164=
0049010350999992014010211004+69567+020100FM-12+071099999V020999999999999999999999999999+99999+99999999999REMSYN04001035 46/// ///// 11019 2//// 333 4/164=
0049010350999992014010212004+69567+020100FM-12+071099999V020999999999999999999999999999+99999+99999999999REMSYN04001035 46/// ///// 11011 2//// 333 4/164=
0049010350999992014010213004+69567+020100FM-12+071099999V020999999999999999999999999999+99999+99999999999REMSYN04001035 46/// ///// 11024 2//// 333 4/163=
0049010350999992014010214004+69567+020100FM-12+071099999V020999999999999999999999999999+99999+99999999999REMSYN04001035 46/// ///// 11039 2//// 333 4/164=
0049010350999992014010215004+69567+020100FM-12+071099999V020999999999999999999999999999+99999+99999999999REMSYN04001035 46/// ///// 11033 2//// 333 4/164=
0049010350999992014010216004+69567+020100FM-12+071099999V020999999999999999999999999999+99999+99999999999REMSYN04001035 46/// ///// 11034 2//// 333 4/163=
0049010350999992014010217004+69567+020100FM-12+071099999V020999999999999999999999999999+99999+99999999999REMSYN04001035 46/// ///// 11033 2//// 333 4/163=
0055010350999992014010218004+69567+020100FM-12+071099999V020999999999999999999999999999+99999+99999999999REMSYN04601035 46/// ///// 11025 2//// 333 10004 4/163=
0049010350999992014010219004+69567+020100FM-12+071099999V020999999999999999999999999999+99999+99999999999REMSYN04001035 46/// ///// 11034 2//// 333 4/163=
0049010350999992014010220004+69567+020100FM-12+071099999V020999999999999999999999999999+99999+99999999999REMSYN04001035 46/// ///// 11024 2//// 333 4/163=
0049010350999992014010221004+69567+020100FM-12+071099999V020999999999999999999999999999+99999+99999999999REMSYN04001035 46/// ///// 11053 2//// 333 4/164=
0049010350999992014010222004+69567+020100FM-12+071099999V020999999999999999999999999999+99999+99999999999REMSYN04001035 46/// ///// 11037 2//// 333 4/162=
0049010350999992014010223004+69567+020100FM-12+071099999V020999999999999999999999999999+99999+99999999999REMSYN04001035 46/// ///// 11026 2//// 333 4/164=
0049010350999992014010300004+69567+020100FM-12+071099999V020999999999999999999999999999+99999+99999999999REMSYN04001035 46/// ///// 11012 2//// 333 4/163=
0049010350999992014010301004+69567+020100FM-12+071099999V020999999999999999999999999999+99999+99999999999REMSYN04001035 46/// ///// 11020 2//// 333 4/164=
0049010350999992014010302004+69567+020100FM-12+071099999V020999999999999999999999999999+99999+99999999999REMSYN04001035 46/// ///// 11011 2//// 333 4/163=
0049010350999992014010303004+69567+020100FM-12+071099999V020999999999999999999999999999+99999+99999999999REMSYN04001035 46/// ///// 11015 2//// 333 4/162=
0049010350999992014010304004+69567+020100FM-12+071099999V020999999999999999999999999999+99999+99999999999REMSYN04001035 46/// ///// 11013 2//// 333 4/162=
0049010350999992014010305004+69567+020100FM-12+071099999V020999999999999999999999999999+99999+99999999999REMSYN04001035 46/// ///// 11023 2//// 333 4/163=
0055010350999992014010306004+69567+020100FM-12+071099999V020999999999999999999999999999+99999+99999999999REMSYN04601035 46/// ///// 11008 2//// 333 21065 4/163=
0049010350999992014010307004+69567+020100FM-12+071099999V020999999999999999999999999999+99999+99999999999REMSYN04001035 46/// ///// 10001 2//// 333 4/162=
0049010350999992014010308004+69567+020100FM-12+071099999V020999999999999999999999999999+99999+99999999999REMSYN04001035 46/// ///// 11015 2//// 333 4/162=
0049010350999992014010309004+69567+020100FM-12+071099999V020999999999999999999999999999+99999+99999999999REMSYN04001035 46/// ///// 11025 2//// 333 4/162=
0049010350999992014010310004+69567+020100FM-12+071099999V020999999999999999999999999999+99999+99999999999REMSYN04001035 46/// ///// 11011 2//// 333 4/162=
0049010350999992014010311004+69567+020100FM-12+071099999V020999999999999999999999999999+99999+99999999999REMSYN04001035 46/// ///// 11014 2//// 333 4/162=
0049010350999992014010312004+69567+020100FM-12+071099999V020999999999999999999999999999+99999+99999999999REMSYN04001035 46/// ///// 11018 2//// 333 4/161=
0049010350999992014010313004+69567+020100FM-12+071099999V020999999999999999999999999999+99999+99999999999REMSYN04001035 46/// ///// 11012 2//// 333 4/161=
0049010350999992014010314004+69567+020100FM-12+071099999V020999999999999999999999999999+99999+99999999999REMSYN04001035 46/// ///// 11013 2//// 333 4/162=
0049010350999992014010315004+69567+020100FM-12+071099999V020999999999999999999999999999+99999+99999999999REMSYN04001035 46/// ///// 11007 2//// 333 4/162=
0049010350999992014010316004+69567+020100FM-12+071099999V020999999999999999999999999999+99999+99999999999REMSYN04001035 46/// ///// 11003 2//// 333 4/162=
0049010350999992014010317004+69567+020100FM-12+071099999V020999999999999999999999999999+99999+99999999999REMSYN04001035 46/// ///// 10003 2//// 333 4/162=
0055010350999992014010318004+69567+020100FM-12+071099999V020999999999999999999999999999+99999+99999999999REMSYN04601035 46/// ///// 11001 2//// 333 10006 4/162=
0049010350999992014010319004+69567+020100FM-12+071099999V020999999999999999999999999999+99999+99999999999REMSYN04001035 46/// ///// 10006 2//// 333 4/161=
0049010350999992014010320004+69567+020100FM-12+071099999V020999999999999999999999999999+99999+99999999999REMSYN04001035 46/// ///// 11001 2//// 333 4/161=
0049010350999992014010321004+69567+020100FM-12+071099999V020999999999999999999999999999+99999+99999999999REMSYN04001035 46/// ///// 11013 2//// 333 4/161=
0049010350999992014010322004+69567+020100FM-12+071099999V020999999999999999999999999999+99999+99999999999REMSYN04001035 46/// ///// 11019 2//// 333 4/164=
0049010350999992014010323004+69567+020100FM-12+071099999V020999999999999999999999999999+99999+99999999999REMSYN04001035 46/// ///// 11020 2//// 333 4/164=
0049010350999992014010400004+69567+020100FM-12+071099999V020999999999999999999999999999+99999+99999999999REMSYN04001035 46/// ///// 11019 2//// 333 4/164=
0049010350999992014010401004+69567+020100FM-12+071099999V020999999999999999999999999999+99999+99999999999REMSYN04001035 46/// ///// 11017 2//// 333 4/164=
0049010350999992014010402004+69567+020100FM-12+071099999V020999999999999999999999999999+99999+99999999999REMSYN04001035 46/// ///// 11011 2//// 333 4/164=
0049010350999992014010403004+69567+020100FM-12+071099999V020999999999999999999999999999+99999+99999999999REMSYN04001035 46/// ///// 11017 2//// 333 4/164=
0049010350999992014010404004+69567+020100FM-12+071099999V020999999999999999999999999999+99999+99999999999REMSYN04001035 46/// ///// 11004 2//// 333 4/163=
0049010350999992014010405004+69567+020100FM-12+071099999V020999999999999999999999999999+99999+99999999999REMSYN04001035 46/// ///// 11010 2//// 333 4/163=
0055010350999992014010406004+69567+020100FM-12+071099999V020999999999999999999999999999+99999+99999999999REMSYN04601035 46/// ///// 11011 2//// 333 21026 4/163=
0049010350999992014010407004+69567+020100FM-12+071099999V020999999999999999999999999999+99999+99999999999REMSYN04001035 46/// ///// 11014 2//// 333 4/163=
0049010350999992014010408004+69567+020100FM-12+071099999V020999999999999999999999999999+99999+99999999999REMSYN04001035 46/// ///// 11017 2//// 333 4/164=
0049010350999992014010409004+69567+020100FM-12+071099999V020999999999999999999999999999+99999+99999999999REMSYN04001035 46/// ///// 11032 2//// 333 4/162=
0049010350999992014010410004+69567+020100FM-12+071099999V020999999999999999999999999999+99999+99999999999REMSYN04001035 46/// ///// 11025 2//// 333 4/162=
0049010350999992014010411004+69567+020100FM-12+071099999V020999999999999999999999999999+99999+99999999999REMSYN04001035 46/// ///// 11005 2//// 333 4/163=
0049010350999992014010412004+69567+020100FM-12+071099999V020999999999999999999999999999+99999+99999999999REMSYN04001035 46/// ///// 11007 2//// 333 4/162=
0049010350999992014010413004+69567+020100FM-12+071099999V020999999999999999999999999999+99999+99999999999REMSYN04001035 46/// ///// 11011 2//// 333 4/163=
0049010350999992014010414004+69567+020100FM-12+071099999V020999999999999999999999999999+99999+99999999999REMSYN04001035 46/// ///// 11034 2//// 333 4/163=
0049010350999992014010415004+69567+020100FM-12+071099999V020999999999999999999999999999+99999+99999999999REMSYN04001035 46/// ///// 11018 2//// 333 4/163=
0049010350999992014010416004+69567+020100FM-12+071099999V020999999999999999999999999999+99999+99999999999REMSYN04001035 46/// ///// 10000 2//// 333 4/162=
0049010350999992014010417004+69567+020100FM-12+071099999V020999999999999999999999999999+99999+99999999999REMSYN04001035 46/// ///// 11040 2//// 333 4/163=
0055010350999992014010418004+69567+020100FM-12+071099999V020999999999999999999999999999+99999+99999999999REMSYN04601035 46/// ///// 11044 2//// 333 10008 4/163=
0049010350999992014010419004+69567+020100FM-12+071099999V020999999999999999999999999999+99999+99999999999REMSYN04001035 46/// ///// 11008 2//// 333 4/162=
0049010350999992014010420004+69567+020100FM-12+071099999V020999999999999999999999999999+99999+99999999999REMSYN04001035 46/// ///// 11011 2//// 333 4/163=
0049010350999992014010421004+69567+020100FM-12+071099999V020999999999999999999999999999+99999+99999999999REMSYN04001035 46/// ///// 11007 2//// 333 4/163=
0049010350999992014010422004+69567+020100FM-12+071099999V020999999999999999999999999999+99999+99999999999REMSYN04001035 46/// ///// 11010 2//// 333 4/162=
0049010350999992014010423004+69567+020100FM-12+071099999V020999999999999999999999999999+99999+99999999999REMSYN04001035 46/// ///// 11016 2//// 333 4/163=
0049010350999992014010500004+69567+020100FM-12+071099999V020999999999999999999999999999+99999+99999999999REMSYN04001035 46/// ///// 11044 2//// 333 4/162=
0049010350999992014010501004+69567+020100FM-12+071099999V020999999999999999999999999999+99999+99999999999REMSYN04001035 46/// ///// 11050 2//// 333 4/162=
0049010350999992014010502004+69567+020100FM-12+071099999V020999999999999999999999999999+99999+99999999999REMSYN04001035 46/// ///// 11018 2//// 333 4/163=
0049010350999992014010503004+69567+020100FM-12+071099999V020999999999999999999999999999+99999+99999999999REMSYN04001035 46/// ///// 11049 2//// 333 4/163=
0049010350999992014010504004+69567+020100FM-12+071099999V020999999999999999999999999999+99999+99999999999REMSYN04001035 46/// ///// 11046 2//// 333 4/163=
0049010350999992014010505004+69567+020100FM-12+071099999V020999999999999999999999999999+99999+99999999999REMSYN04001035 46/// ///// 11051 2//// 333 4/162=
0055010350999992014010506004+69567+020100FM-12+071099999V020999999999999999999999999999+99999+99999999999REMSYN04601035 46/// ///// 11049 2//// 333 21056 4/163=
0049010350999992014010507004+69567+020100FM-12+071099999V020999999999999999999999999999+99999+99999999999REMSYN04001035 46/// ///// 11049 2//// 333 4/162=
0049010350999992014010508004+69567+020100FM-12+071099999V020999999999999999999999999999+99999+99999999999REMSYN04001035 46/// ///// 11040 2//// 333 4/163=
0049010350999992014010509004+69567+020100FM-12+071099999V020999999999999999999999999999+99999+99999999999REMSYN04001035 46/// ///// 11029 2//// 333 4/161=
0049010350999992014010510004+69567+020100FM-12+071099999V020999999999999999999999999999+99999+99999999999REMSYN04001035 46/// ///// 11047 2//// 333 4/162=
0049010350999992014010511004+69567+020100FM-12+071099999V020999999999999999999999999999+99999+99999999999REMSYN04001035 46/// ///// 11053 2//// 333 4/162=
0049010350999992014010512004+69567+020100FM-12+071099999V020999999999999999999999999999+99999+99999999999REMSYN04001035 46/// ///// 11054 2//// 333 4/162=
0049010350999992014010513004+69567+020100FM-12+071099999V020999999999999999999999999999+99999+99999999999REMSYN04001035 46/// ///// 11047 2//// 333 4/161=
0049010350999992014010514004+69567+020100FM-12+071099999V020999999999999999999999999999+99999+99999999999REMSYN04001035 46/// ///// 11039 2//// 333 4/163=
0049010350999992014010515004+69567+020100FM-12+071099999V020999999999999999999999999999+99999+99999999999REMSYN04001035 46/// ///// 11058 2//// 333 4/162=
0049010350999992014010516004+69567+020100FM-12+071099999V020999999999999999999999999999+99999+99999999999REMSYN04001035 46/// ///// 11059 2//// 333 4/162=
0049010350999992014010517004+69567+020100FM-12+071099999V020999999999999999999999999999+99999+99999999999REMSYN04001035 46/// ///// 11066 2//// 333 4/162=
0055010350999992014010518004+69567+020100FM-12+071099999V020999999999999999999999999999+99999+99999999999REMSYN04601035 46/// ///// 11066 2//// 333 11019 4/161=
0049010350999992014010519004+69567+020100FM-12+071099999V020999999999999999999999999999+99999+99999999999REMSYN04001035 46/// ///// 11062 2//// 333 4/162=
0049010350999992014010520004+69567+020100FM-12+071099999V020999999999999999999999999999+99999+99999999999REMSYN04001035 46/// ///// 11060 2//// 333 4/162=
0049010350999992014010521004+69567+020100FM-12+071099999V020999999999999999999999999999+99999+99999999999REMSYN04001035 46/// ///// 11054 2//// 333 4/161=
0049010350999992014010522004+69567+020100FM-12+071099999V020999999999999999999999999999+99999+99999999999REMSYN04001035 46/// ///// 11058 2//// 333 4/162=
0049010350999992014010523004+69567+020100FM-12+071099999V020999999999999999999999999999+99999+99999999999REMSYN04001035 46/// ///// 11054 2//// 333 4/161=
0049010350999992014010600004+69567+020100FM-12+071099999V020999999999999999999999999999+99999+99999999999REMSYN04001035 46/// ///// 11055 2//// 333 4/160=
0049010350999992014010601004+69567+020100FM-12+071099999V020999999999999999999999999999+99999+99999999999REMSYN04001035 46/// ///// 11051 2//// 333 4/161=
0049010350999992014010602004+69567+020100FM-12+071099999V020999999999999999999999999999+99999+99999999999REMSYN04001035 46/// ///// 11018 2//// 333 4/161=
0049010350999992014010603004+69567+020100FM-12+071099999V020999999999999999999999999999+99999+99999999999REMSYN04001035 46/// ///// 11009 2//// 333 4/160=
0049010350999992014010604004+69567+020100FM-12+071099999V020999999999999999999999999999+99999+99999999999REMSYN04001035 46/// ///// 11013 2//// 333 4/162=
0049010350999992014010605004+69567+020100FM-12+071099999V020999999999999999999999999999+99999+99999999999REMSYN04001035 46/// ///// 11004 2//// 333 4/161=
0055010350999992014010606004+69567+020100FM-12+071099999V020999999999999999999999999999+99999+99999999999REMSYN04601035 46/// ///// 11008 2//// 333 21071 4/162=
0049010350999992014010607004+69567+020100FM-12+071099999V020999999999999999999999999999+99999+99999999999REMSYN04001035 46/// ///// 11009 2//// 333 4/161=
0049010350999992014010608004+69567+020100FM-12+071099999V020999999999999999999999999999+99999+99999999999REMSYN04001035 46/// ///// 11015 2//// 333 4/161=
0049010350999992014010609004+69567+020100FM-12+071099999V020999999999999999999999999999+99999+99999999999REMSYN04001035 46/// ///// 11006 2//// 333 4/161=
0049010350999992014010610004+69567+020100FM-12+071099999V020999999999999999999999999999+99999+99999999999REMSYN04001035 46/// ///// 11003 2//// 333 4/161=
0049010350999992014010611004+69567+020100FM-12+071099999V020999999999999999999999999999+99999+99999999999REMSYN04001035 46/// ///// 10000 2//// 333 4/160=
0049010350999992014010612004+69567+020100FM-12+071099999V020999999999999999999999999999+99999+99999999999REMSYN04001035 46/// ///// 11019 2//// 333 4/161=
0049010350999992014010613004+69567+020100FM-12+071099999V020999999999999999999999999999+99999+99999999999REMSYN04001035 46/// ///// 11022 2//// 333 4/161=
0049010350999992014010614004+69567+020100FM-12+071099999V020999999999999999999999999999+99999+99999999999REMSYN04001035 46/// ///// 11025 2//// 333 4/160=
0049010350999992014010615004+69567+020100FM-12+071099999V020999999999999999999999999999+99999+99999999999REMSYN04001035 46/// ///// 11024 2//// 333 4/161=
0049010350999992014010616004+69567+020100FM-12+071099999V020999999999999999999999999999+99999+99999999999REMSYN04001035 46/// ///// 11029 2//// 333 4/160=
0049010350999992014010617004+69567+020100FM-12+071099999V020999999999999999999999999999+99999+99999999999REMSYN04001035 46/// ///// 11047 2//// 333 4/160=
0055010350999992014010618004+69567+020100FM-12+071099999V020999999999999999999999999999+99999+99999999999REMSYN04601035 46/// ///// 11017 2//// 333 10006 4/161=
0049010350999992014010619004+69567+020100FM-12+071099999V020999999999999999999999999999+99999+99999999999REMSYN04001035 46/// ///// 11027 2//// 333 4/160=
0049010350999992014010620004+69567+020100FM-12+071099999V020999999999999999999999999999+99999+99999999999REMSYN04001035 46/// ///// 10015 2//// 333 4/160=
0049010350999992014010621004+69567+020100FM-12+071099999V020999999999999999999999999999+99999+99999999999REMSYN04001035 46/// ///// 11011 2//// 333 4/160=
0049010350999992014010622004+69567+020100FM-12+071099999V020999999999999999999999999999+99999+99999999999REMSYN04001035 46/// ///// 11006 2//// 333 4/160=
0049010350999992014010623004+69567+020100FM-12+071099999V020999999999999999999999999999+99999+99999999999REMSYN04001035 46/// ///// 11017 2//// 333 4/160=
0049010350999992014010700004+69567+020100FM-12+071099999V020999999999999999999999999999+99999+99999999999REMSYN04001035 46/// ///// 11014 2//// 333 4/160=
0049010350999992014010701004+69567+020100FM-12+071099999V020999999999999999999999999999+99999+99999999999REMSYN04001035 46/// ///// 11013 2//// 333 4/160=
0049010350999992014010702004+69567+020100FM-12+071099999V020999999999999999999999999999+99999+99999999999REMSYN04001035 46/// ///// 11057 2//// 333 4/161=
0049010350999992014010703004+69567+020100FM-12+071099999V020999999999999999999999999999+99999+99999999999REMSYN04001035 46/// ///// 11052 2//// 333 4/160=
0049010350999992014010704004+69567+020100FM-12+071099999V020999999999999999999999999999+99999+99999999999REMSYN04001035 46/// ///// 11037 2//// 333 4/161=
0049010350999992014010705004+69567+020100FM-12+071099999V020999999999999999999999999999+99999+99999999999REMSYN04001035 46/// ///// 11041 2//// 333 4/160=
0055010350999992014010706004+69567+020100FM-12+071099999V020999999999999999999999999999+99999+99999999999REMSYN04601035 46/// ///// 11040 2//// 333 21058 4/161=
0049010350999992014010707004+69567+020100FM-12+071099999V020999999999999999999999999999+99999+99999999999REMSYN04001035 46/// ///// 11040 2//// 333 4/160=
0049010350999992014010708004+69567+020100FM-12+071099999V020999999999999999999999999999+99999+99999999999REMSYN04001035 46/// ///// 11042 2//// 333 4/160=
0049010350999992014010709004+69567+020100FM-12+071099999V020999999999999999999999999999+99999+99999999999REMSYN04001035 46/// ///// 11043 2//// 333 4/160=
0049010350999992014010710004+69567+020100FM-12+071099999V020999999999999999999999999999+99999+99999999999REMSYN04001035 46/// ///// 11044 2//// 333 4/160=
0049010350999992014010711004+69567+020100FM-12+071099999V020999999999999999999999999999+99999+99999999999REMSYN04001035 46/// ///// 11046 2//// 333 4/160=
0049010350999992014010712004+69567+020100FM-12+071099999V020999999999999999999999999999+99999+99999999999REMSYN04001035 46/// ///// 11046 2//// 333 4/160=
0049010350999992014010713004+69567+020100FM-12+071099999V020999999999999999999999999999+99999+99999999999REMSYN04001035 46/// ///// 11042 2//// 333 4/160=
0049010350999992014010714004+69567+020100FM-12+071099999V020999999999999999999999999999+99999+99999999999REMSYN04001035 46/// ///// 11038 2//// 333 4/160=
0049010350999992014010715004+69567+020100FM-12+071099999V020999999999999999999999999999+99999+99999999999REMSYN04001035 46/// ///// 11041 2//// 333 4/160=
0049010350999992014010716004+69567+020100FM-12+071099999V020999999999999999999999999999+99999+99999999999REMSYN04001035 46/// ///// 11046 2//// 333 4/160=
0049010350999992014010717004+69567+020100FM-12+071099999V020999999999999999999999999999+99999+99999999999REMSYN04001035 46/// ///// 11043 2//// 333 4/161=
0055010350999992014010718004+69567+020100FM-12+071099999V020999999999999999999999999999+99999+99999999999REMSYN04601035 46/// ///// 11043 2//// 333 11035 4/160=
0049010350999992014010719004+69567+020100FM-12+071099999V020999999999999999999999999999+99999+99999999999REMSYN04001035 46/// ///// 11044 2//// 333 4/160=
0049010350999992014010720004+69567+020100FM-12+071099999V020999999999999999999999999999+99999+99999999999REMSYN04001035 46/// ///// 11044 2//// 333 4/161=
0049010350999992014010722004+69567+020100FM-12+071099999V020999999999999999999999999999+99999+99999999999REMSYN04001035 46/// ///// 11042 2//// 333 4/164=
0049010350999992014010723004+69567+020100FM-12+071099999V020999999999999999999999999999+99999+99999999999REMSYN04001035 46/// ///// 11043 2//// 333 4/166=
0049010350999992014010800004+69567+020100FM-12+071099999V020999999999999999999999999999+99999+99999999999REMSYN04001035 46/// ///// 11044 2//// 333 4/169=
0049010350999992014010801004+69567+020100FM-12+071099999V020999999999999999999999999999+99999+99999999999REMSYN04001035 46/// ///// 11049 2//// 333 4/168=
0049010350999992014010802004+69567+020100FM-12+071099999V020999999999999999999999999999+99999+99999999999REMSYN04001035 46/// ///// 11046 2//// 333 4/168=
0049010350999992014010804004+69567+020100FM-12+071099999V020999999999999999999999999999+99999+99999999999REMSYN04001035 46/// ///// 11047 2//// 333 4/168=
0049010350999992014010805004+69567+020100FM-12+071099999V020999999999999999999999999999+99999+99999999999REMSYN04001035 46/// ///// 11050 2//// 333 4/168=
0049010350999992014010806004+69567+020100FM-12+071099999V020999999999999999999999999999+99999+99999999999REMSYN04001035 46/// ///// 11051 2//// 333 4/168=
0049010350999992014010807004+69567+020100FM-12+071099999V020999999999999999999999999999+99999+99999999999REMSYN04001035 46/// ///// 11051 2//// 333 4/168=
0049010350999992014010808004+69567+020100FM-12+071099999V020999999999999999999999999999+99999+99999999999REMSYN04001035 46/// ///// 11054 2//// 333 4/168=
0049010350999992014010809004+69567+020100FM-12+071099999V020999999999999999999999999999+99999+99999999999REMSYN04001035 46/// ///// 11056 2//// 333 4/168=
0049010350999992014010810004+69567+020100FM-12+071099999V020999999999999999999999999999+99999+99999999999REMSYN04001035 46/// ///// 11059 2//// 333 4/167=
0049010350999992014010811004+69567+020100FM-12+071099999V020999999999999999999999999999+99999+99999999999REMSYN04001035 46/// ///// 11058 2//// 333 4/167=
0049010350999992014010812004+69567+020100FM-12+071099999V020999999999999999999999999999+99999+99999999999REMSYN04001035 46/// ///// 11058 2//// 333 4/166=
0049010350999992014010813004+69567+020100FM-12+071099999V020999999999999999999999999999+99999+99999999999REMSYN04001035 46/// ///// 11058 2//// 333 4/167=
0049010350999992014010814004+69567+020100FM-12+071099999V020999999999999999999999999999+99999+99999999999REMSYN04001035 46/// ///// 11060 2//// 333 4/170=
0049010350999992014010815004+69567+020100FM-12+071099999V020999999999999999999999999999+99999+99999999999REMSYN04001035 46/// ///// 11061 2//// 333 4/171=
0049010350999992014010816004+69567+020100FM-12+071099999V020999999999999999999999999999+99999+99999999999REMSYN04001035 46/// ///// 11063 2//// 333 4/171=
0049010350999992014010817004+69567+020100FM-12+071099999V020999999999999999999999999999+99999+99999999999REMSYN04001035 46/// ///// 11067 2//// 333 4/171=
0055010350999992014010818004+69567+020100FM-12+071099999V020999999999999999999999999999+99999+99999999999REMSYN04601035 46/// ///// 11067 2//// 333 11050 4/171=
0049010350999992014010821004+69567+020100FM-12+071099999V020999999999999999999999999999+99999+99999999999REMSYN04001035 46/// ///// 11075 2//// 333 4/168=
0049010350999992014010823004+69567+020100FM-12+071099999V020999999999999999999999999999+99999+99999999999REMSYN04001035 46/// ///// 11081 2//// 333 4/167=
0049010350999992014010900004+69567+020100FM-12+071099999V020999999999999999999999999999+99999+99999999999REMSYN04001035 46/// ///// 11085 2//// 333 4/167=
0049010350999992014010901004+69567+020100FM-12+071099999V020999999999999999999999999999+99999+99999999999REMSYN04001035 46/// ///// 11087 2//// 333 4/167=
0049010350999992014010902004+69567+020100FM-12+071099999V020999999999999999999999999999+99999+99999999999REMSYN04001035 46/// ///// 11085 2//// 333 4/166=
0049010350999992014010903004+69567+020100FM-12+071099999V020999999999999999999999999999+99999+99999999999REMSYN04001035 46/// ///// 11088 2//// 333 4/167=
0049010350999992014010904004+69567+020100FM-12+071099999V020999999999999999999999999999+99999+99999999999REMSYN04001035 46/// ///// 11094 2//// 333 4/166=
0049010350999992014010905004+69567+020100FM-12+071099999V020999999999999999999999999999+99999+99999999999REMSYN04001035 46/// ///// 11101 2//// 333 4/166=
0049010350999992014010906004+69567+020100FM-12+071099999V020999999999999999999999999999+99999+99999999999REMSYN04001035 46/// ///// 11099 2//// 333 4/166=
0049010350999992014010907004+69567+020100FM-12+071099999V020999999999999999999999999999+99999+99999999999REMSYN04001035 46/// ///// 11107 2//// 333 4/167=
0049010350999992014010908004+69567+020100FM-12+071099999V020999999999999999999999999999+99999+99999999999REMSYN04001035 46/// ///// 11119 2//// 333 4/166=
0049010350999992014010909004+69567+020100FM-12+071099999V020999999999999999999999999999+99999+99999999999REMSYN04001035 46/// ///// 11117 2//// 333 4/166=
0049010350999992014010910004+69567+020100FM-12+071099999V020999999999999999999999999999+99999+99999999999REMSYN04001035 46/// ///// 11121 2//// 333 4/166=
0049010350999992014010911004+69567+020100FM-12+071099999V020999999999999999999999999999+99999+99999999999REMSYN04001035 46/// ///// 11116 2//// 333 4/166=
0049010350999992014010912004+69567+020100FM-12+071099999V020999999999999999999999999999+99999+99999999999REMSYN04001035 46/// ///// 11119 2//// 333 4/166=
0049010350999992014010913004+69567+020100FM-12+071099999V020999999999999999999999999999+99999+99999999999REMSYN04001035 46/// ///// 11120 2//// 333 4/166=
0049010350999992014010914004+69567+020100FM-12+071099999V020999999999999999999999999999+99999+99999999999REMSYN04001035 46/// ///// 11121 2//// 333 4/166=
0049010350999992014010915004+69567+020100FM-12+071099999V020999999999999999999999999999+99999+99999999999REMSYN04001035 46/// ///// 11122 2//// 333 4/166=
0049010350999992014010916004+69567+020100FM-12+071099999V020999999999999999999999999999+99999+99999999999REMSYN04001035 46/// ///// 11122 2//// 333 4/166=
0049010350999992014010917004+69567+020100FM-12+071099999V020999999999999999999999999999+99999+99999999999REMSYN04001035 46/// ///// 11119 2//// 333 4/166=
0055010350999992014010918004+69567+020100FM-12+071099999V020999999999999999999999999999+99999+99999999999REMSYN04601035 46/// ///// 11123 2//// 333 11097 4/168=
0049010350999992014010919004+69567+020100FM-12+071099999V020999999999999999999999999999+99999+99999999999REMSYN04001035 46/// ///// 11123 2//// 333 4/167=
0049010350999992014010920004+69567+020100FM-12+071099999V020999999999999999999999999999+99999+99999999999REMSYN04001035 46/// ///// 11132 2//// 333 4/168=
0049010350999992014010921004+69567+020100FM-12+071099999V020999999999999999999999999999+99999+99999999999REMSYN04001035 46/// ///// 11144 2//// 333 4/168=
0049010350999992014010922004+69567+020100FM-12+071099999V020999999999999999999999999999+99999+99999999999REMSYN04001035 46/// ///// 11144 2//// 333 4/169=
0049010350999992014010923004+69567+020100FM-12+071099999V020999999999999999999999999999+99999+99999999999REMSYN04001035 46/// ///// 11154 2//// 333 4/166=
0049010350999992014011000004+69567+020100FM-12+071099999V020999999999999999999999999999+99999+99999999999REMSYN04001035 46/// ///// 11133 2//// 333 4/167=
0049010350999992014011001004+69567+020100FM-12+071099999V020999999999999999999999999999+99999+99999999999REMSYN04001035 46/// ///// 11145 2//// 333 4/168=
0049010350999992014011002004+69567+020100FM-12+071099999V020999999999999999999999999999+99999+99999999999REMSYN04001035 46/// ///// 11138 2//// 333 4/168=
0049010350999992014011003004+69567+020100FM-12+071099999V020999999999999999999999999999+99999+99999999999REMSYN04001035 46/// ///// 11135 2//// 333 4/168=
0049010350999992014011004004+69567+020100FM-12+071099999V020999999999999999999999999999+99999+99999999999REMSYN04001035 46/// ///// 11134 2//// 333 4/169=
0049010350999992014011005004+69567+020100FM-12+071099999V020999999999999999999999999999+99999+99999999999REMSYN04001035 46/// ///// 11152 2//// 333 4/168=
0055010350999992014011006004+69567+020100FM-12+071099999V020999999999999999999999999999+99999+99999999999REMSYN04601035 46/// ///// 11135 2//// 333 21170 4/169=
0049010350999992014011007004+69567+020100FM-12+071099999V020999999999999999999999999999+99999+99999999999REMSYN04001035 46/// ///// 11138 2//// 333 4/168=
0049010350999992014011008004+69567+020100FM-12+071099999V020999999999999999999999999999+99999+99999999999REMSYN04001035 46/// ///// 11165 2//// 333 4/168=
0049010350999992014011009004+69567+020100FM-12+071099999V020999999999999999999999999999+99999+99999999999REMSYN04001035 46/// ///// 11181 2//// 333 4/169=
0049010350999992014011010004+69567+020100FM-12+071099999V020999999999999999999999999999+99999+99999999999REMSYN04001035 46/// ///// 11170 2//// 333 4/168=
0049010350999992014011011004+69567+020100FM-12+071099999V020999999999999999999999999999+99999+99999999999REMSYN04001035 46/// ///// 11162 2//// 333 4/168=
0049010350999992014011012004+69567+020100FM-12+071099999V020999999999999999999999999999+99999+99999999999REMSYN04001035 46/// ///// 11176 2//// 333 4/169=
0049010350999992014011013004+69567+020100FM-12+071099999V020999999999999999999999999999+99999+99999999999REMSYN04001035 46/// ///// 11181 2//// 333 4/168=
0049010350999992014011014004+69567+020100FM-12+071099999V020999999999999999999999999999+99999+99999999999REMSYN04001035 46/// ///// 11144 2//// 333 4/169=
0049010350999992014011015004+69567+020100FM-12+071099999V020999999999999999999999999999+99999+99999999999REMSYN04001035 46/// ///// 11163 2//// 333 4/168=
0049010350999992014011016004+69567+020100FM-12+071099999V020999999999999999999999999999+99999+99999999999REMSYN04001035 46/// ///// 11166 2//// 333 4/167=
0049010350999992014011017004+69567+020100FM-12+071099999V020999999999999999999999999999+99999+99999999999REMSYN04001035 46/// ///// 11154 2//// 333 4/168=
0055010350999992014011018004+69567+020100FM-12+071099999V020999999999999999999999999999+99999+99999999999REMSYN04601035 46/// ///// 11146 2//// 333 11125 4/167=
0049010350999992014011019004+69567+020100FM-12+071099999V020999999999999999999999999999+99999+99999999999REMSYN04001035 46/// ///// 11168 2//// 333 4/169=
0049010350999992014011020004+69567+020100FM-12+071099999V020999999999999999999999999999+99999+99999999999REMSYN04001035 46/// ///// 11163 2//// 333 4/167=
0049010350999992014011021004+69567+020100FM-12+071099999V020999999999999999999999999999+99999+99999999999REMSYN04001035 46/// ///// 11129 2//// 333 4/167=
0049010350999992014011022004+69567+020100FM-12+071099999V020999999999999999999999999999+99999+99999999999REMSYN04001035 46/// ///// 11140 2//// 333 4/168=
0049010350999992014011023004+69567+020100FM-12+071099999V020999999999999999999999999999+99999+99999999999REMSYN04001035 46/// ///// 11157 2//// 333 4/165=
0049010350999992014011100004+69567+020100FM-12+071099999V020999999999999999999999999999+99999+99999999999REMSYN04001035 46/// ///// 11153 2//// 333 4/168=
0049010350999992014011101004+69567+020100FM-12+071099999V020999999999999999999999999999+99999+99999999999REMSYN04001035 46/// ///// 11152 2//// 333 4/166=
0049010350999992014011102004+69567+020100FM-12+071099999V020999999999999999999999999999+99999+99999999999REMSYN04001035 46/// ///// 11160 2//// 333 4/167=
0049010350999992014011103004+69567+020100FM-12+071099999V020999999999999999999999999999+99999+99999999999REMSYN04001035 46/// ///// 11175 2//// 333 4/169=
0049010350999992014011104004+69567+020100FM-12+071099999V020999999999999999999999999999+99999+99999999999REMSYN04001035 46/// ///// 11182 2//// 333 4/169=
0049010350999992014011105004+69567+020100FM-12+071099999V020999999999999999999999999999+99999+99999999999REMSYN04001035 46/// ///// 11157 2//// 333 4/168=
0055010350999992014011106004+69567+020100FM-12+071099999V020999999999999999999999999999+99999+99999999999REMSYN04601035 46/// ///// 11168 2//// 333 21188 4/168=
0049010350999992014011107004+69567+020100FM-12+071099999V020999999999999999999999999999+99999+99999999999REMSYN04001035 46/// ///// 11165 2//// 333 4/166=
0049010350999992014011108004+69567+020100FM-12+071099999V020999999999999999999999999999+99999+99999999999REMSYN04001035 46/// ///// 11169 2//// 333 4/168=
0049010350999992014011109004+69567+020100FM-12+071099999V020999999999999999999999999999+99999+99999999999REMSYN04001035 46/// ///// 11149 2//// 333 4/169=
0049010350999992014011110004+69567+020100FM-12+071099999V020999999999999999999999999999+99999+99999999999REMSYN04001035 46/// ///// 11150 2//// 333 4/167=
0049010350999992014011111004+69567+020100FM-12+071099999V020999999999999999999999999999+99999+99999999999REMSYN04001035 46/// ///// 11138 2//// 333 4/167=
0049010350999992014011112004+69567+020100FM-12+071099999V020999999999999999999999999999+99999+99999999999REMSYN04001035 46/// ///// 11117 2//// 333 4/166=
0049010350999992014011113004+69567+020100FM-12+071099999V020999999999999999999999999999+99999+99999999999REMSYN04001035 46/// ///// 11139 2//// 333 4/167=
0049010350999992014011114004+69567+020100FM-12+071099999V020999999999999999999999999999+99999+99999999999REMSYN04001035 46/// ///// 11132 2//// 333 4/167=
0049010350999992014011115004+69567+020100FM-12+071099999V020999999999999999999999999999+99999+99999999999REMSYN04001035 46/// ///// 11132 2//// 333 4/167=
0049010350999992014011116004+69567+020100FM-12+071099999V020999999999999999999999999999+99999+99999999999REMSYN04001035 46/// ///// 11147 2//// 333 4/168=
0049010350999992014011117004+69567+020100FM-12+071099999V020999999999999999999999999999+99999+99999999999REMSYN04001035 46/// ///// 11134 2//// 333 4/167=
0055010350999992014011118004+69567+020100FM-12+071099999V020999999999999999999999999999+99999+99999999999REMSYN04601035 46/// ///// 11149 2//// 333 11107 4/168=
0049010350999992014011119004+69567+020100FM-12+071099999V020999999999999999999999999999+99999+99999999999REMSYN04001035 46/// ///// 11141 2//// 333 4/168=
0049010350999992014011120004+69567+020100FM-12+071099999V020999999999999999999999999999+99999+99999999999REMSYN04001035 46/// ///// 11144 2//// 333 4/166=
0049010350999992014011121004+69567+020100FM-12+071099999V020999999999999999999999999999+99999+99999999999REMSYN04001035 46/// ///// 11136 2//// 333 4/167=
0049010350999992014011122004+69567+020100FM-12+071099999V020999999999999999999999999999+99999+99999999999REMSYN04001035 46/// ///// 11143 2//// 333 4/167=
0049010350999992014011123004+69567+020100FM-12+071099999V020999999999999999999999999999+99999+99999999999REMSYN04001035 46/// ///// 11099 2//// 333 4/167=
0049010350999992014011200004+69567+020100FM-12+071099999V020999999999999999999999999999+99999+99999999999REMSYN04001035 46/// ///// 11096 2//// 333 4/167=
0049010350999992014011201004+69567+020100FM-12+071099999V020999999999999999999999999999+99999+99999999999REMSYN04001035 46/// ///// 11095 2//// 333 4/168=
0049010350999992014011202004+69567+020100FM-12+071099999V020999999999999999999999999999+99999+99999999999REMSYN04001035 46/// ///// 11121 2//// 333 4/167=
0049010350999992014011203004+69567+020100FM-12+071099999V020999999999999999999999999999+99999+99999999999REMSYN04001035 46/// ///// 11114 2//// 333 4/166=
0049010350999992014011204004+69567+020100FM-12+071099999V020999999999999999999999999999+99999+99999999999REMSYN04001035 46/// ///// 11103 2//// 333 4/167=
0049010350999992014011205004+69567+020100FM-12+071099999V020999999999999999999999999999+99999+99999999999REMSYN04001035 46/// ///// 11119 2//// 333 4/166=
0049010350999992014011207004+69567+020100FM-12+071099999V020999999999999999999999999999+99999+99999999999REMSYN04001035 46/// ///// 11108 2//// 333 4/167=
0049010350999992014011208004+69567+020100FM-12+071099999V020999999999999999999999999999+99999+99999999999REMSYN04001035 46/// ///// 11101 2//// 333 4/167=
0049010350999992014011209004+69567+020100FM-12+071099999V020999999999999999999999999999+99999+99999999999REMSYN04001035 46/// ///// 11104 2//// 333 4/168=
0049010350999992014011210004+69567+020100FM-12+071099999V020999999999999999999999999999+99999+99999999999REMSYN04001035 46/// ///// 11124 2//// 333 4/167=
0049010350999992014011211004+69567+020100FM-12+071099999V020999999999999999999999999999+99999+99999999999REMSYN04001035 46/// ///// 11131 2//// 333 4/168=
0049010350999992014011212004+69567+020100FM-12+071099999V020999999999999999999999999999+99999+99999999999REMSYN04001035 46/// ///// 11123 2//// 333 4/166=
0049010350999992014011213004+69567+020100FM-12+071099999V020999999999999999999999999999+99999+99999999999REMSYN04001035 46/// ///// 11106 2//// 333 4/167=
0049010350999992014011214004+69567+020100FM-12+071099999V020999999999999999999999999999+99999+99999999999REMSYN04001035 46/// ///// 11106 2//// 333 4/166=
0049010350999992014011215004+69567+020100FM-12+071099999V020999999999999999999999999999+99999+99999999999REMSYN04001035 46/// ///// 11101 2//// 333 4/167=
0049010350999992014011216004+69567+020100FM-12+071099999V020999999999999999999999999999+99999+99999999999REMSYN04001035 46/// ///// 11111 2//// 333 4/167=
0049010350999992014011217004+69567+020100FM-12+071099999V020999999999999999999999999999+99999+99999999999REMSYN04001035 46/// ///// 11106 2//// 333 4/166=
0055010350999992014011218004+69567+020100FM-12+071099999V020999999999999999999999999999+99999+99999999999REMSYN04601035 46/// ///// 11106 2//// 333 11094 4/166=
0049010350999992014011219004+69567+020100FM-12+071099999V020999999999999999999999999999+99999+99999999999REMSYN04001035 46/// ///// 11107 2//// 333 4/168=
0049010350999992014011220004+69567+020100FM-12+071099999V020999999999999999999999999999+99999+99999999999REMSYN04001035 46/// ///// 11106 2//// 333 4/165=
0049010350999992014011221004+69567+020100FM-12+071099999V020999999999999999999999999999+99999+99999999999REMSYN04001035 46/// ///// 11094 2//// 333 4/166=
0049010350999992014011222004+69567+020100FM-12+071099999V020999999999999999999999999999+99999+99999999999REMSYN04001035 46/// ///// 11097 2//// 333 4/167=
0049010350999992014011223004+69567+020100FM-12+071099999V020999999999999999999999999999+99999+99999999999REMSYN04001035 46/// ///// 11091 2//// 333 4/167=
0049010350999992014011300004+69567+020100FM-12+071099999V020999999999999999999999999999+99999+99999999999REMSYN04001035 46/// ///// 11072 2//// 333 4/167=
0049010350999992014011301004+69567+020100FM-12+071099999V020999999999999999999999999999+99999+99999999999REMSYN04001035 46/// ///// 11068 2//// 333 4/167=
0049010350999992014011303004+69567+020100FM-12+071099999V020999999999999999999999999999+99999+99999999999REMSYN04001035 46/// ///// 11066 2//// 333 4/167=
0049010350999992014011304004+69567+020100FM-12+071099999V020999999999999999999999999999+99999+99999999999REMSYN04001035 46/// ///// 11063 2//// 333 4/167=
0049010350999992014011305004+69567+020100FM-12+071099999V020999999999999999999999999999+99999+99999999999REMSYN04001035 46/// ///// 11062 2//// 333 4/167=
0055010350999992014011306004+69567+020100FM-12+071099999V020999999999999999999999999999+99999+99999999999REMSYN04601035 46/// ///// 11058 2//// 333 21114 4/167=
0049010350999992014011307004+69567+020100FM-12+071099999V020999999999999999999999999999+99999+99999999999REMSYN04001035 46/// ///// 11076 2//// 333 4/168=
0049010350999992014011308004+69567+020100FM-12+071099999V020999999999999999999999999999+99999+99999999999REMSYN04001035 46/// ///// 11078 2//// 333 4/167=
0049010350999992014011309004+69567+020100FM-12+071099999V020999999999999999999999999999+99999+99999999999REMSYN04001035 46/// ///// 11073 2//// 333 4/166=
0049010350999992014011310004+69567+020100FM-12+071099999V020999999999999999999999999999+99999+99999999999REMSYN04001035 46/// ///// 11086 2//// 333 4/167=
0049010350999992014011311004+69567+020100FM-12+071099999V020999999999999999999999999999+99999+99999999999REMSYN04001035 46/// ///// 11084 2//// 333 4/167=
0049010350999992014011312004+69567+020100FM-12+071099999V020999999999999999999999999999+99999+99999999999REMSYN04001035 46/// ///// 11093 2//// 333 4/166=
0049010350999992014011313004+69567+020100FM-12+071099999V020999999999999999999999999999+99999+99999999999REMSYN04001035 46/// ///// 11098 2//// 333 4/167=
0049010350999992014011314004+69567+020100FM-12+071099999V020999999999999999999999999999+99999+99999999999REMSYN04001035 46/// ///// 11125 2//// 333 4/167=
0049010350999992014011315004+69567+020100FM-12+071099999V020999999999999999999999999999+99999+99999999999REMSYN04001035 46/// ///// 11125 2//// 333 4/166=
0049010350999992014011316004+69567+020100FM-12+071099999V020999999999999999999999999999+99999+99999999999REMSYN04001035 46/// ///// 11130 2//// 333 4/167=
0049010350999992014011317004+69567+020100FM-12+071099999V020999999999999999999999999999+99999+99999999999REMSYN04001035 46/// ///// 11130 2//// 333 4/166=
0055010350999992014011318004+69567+020100FM-12+071099999V020999999999999999999999999999+99999+99999999999REMSYN04601035 46/// ///// 11132 2//// 333 11059 4/167=
0049010350999992014011319004+69567+020100FM-12+071099999V020999999999999999999999999999+99999+99999999999REMSYN04001035 46/// ///// 11132 2//// 333 4/167=
0049010350999992014011320004+69567+020100FM-12+071099999V020999999999999999999999999999+99999+99999999999REMSYN04001035 46/// ///// 11129 2//// 333 4/166=
0049010350999992014011321004+69567+020100FM-12+071099999V020999999999999999999999999999+99999+99999999999REMSYN04001035 46/// ///// 11121 2//// 333 4/167=
0049010350999992014011322004+69567+020100FM-12+071099999V020999999999999999999999999999+99999+99999999999REMSYN04001035 46/// ///// 11129 2//// 333 4/166=
0049010350999992014011323004+69567+020100FM-12+071099999V020999999999999999999999999999+99999+99999999999REMSYN04001035 46/// ///// 11115 2//// 333 4/165=
0049010350999992014011400004+69567+020100FM-12+071099999V020999999999999999999999999999+99999+99999999999REMSYN04001035 46/// ///// 11119 2//// 333 4/164=
0049010350999992014011401004+69567+020100FM-12+071099999V020999999999999999999999999999+99999+99999999999REMSYN04001035 46/// ///// 11119 2//// 333 4/165=
0049010350999992014011402004+69567+020100FM-12+071099999V020999999999999999999999999999+99999+99999999999REMSYN04001035 46/// ///// 11118 2//// 333 4/165=
0049010350999992014011403004+69567+020100FM-12+071099999V020999999999999999999999999999+99999+99999999999REMSYN04001035 46/// ///// 11125 2//// 333 4/166=
0049010350999992014011404004+69567+020100FM-12+071099999V020999999999999999999999999999+99999+99999999999REMSYN04001035 46/// ///// 11111 2//// 333 4/166=
0049010350999992014011405004+69567+020100FM-12+071099999V020999999999999999999999999999+99999+99999999999REMSYN04001035 46/// ///// 11114 2//// 333 4/167=
0055010350999992014011406004+69567+020100FM-12+071099999V020999999999999999999999999999+99999+99999999999REMSYN04601035 46/// ///// 11127 2//// 333 21138 4/167=
0049010350999992014011407004+69567+020100FM-12+071099999V020999999999999999999999999999+99999+99999999999REMSYN04001035 46/// ///// 11138 2//// 333 4/167=
0049010350999992014011408004+69567+020100FM-12+071099999V020999999999999999999999999999+99999+99999999999REMSYN04001035 46/// ///// 11132 2//// 333 4/165=
0049010350999992014011409004+69567+020100FM-12+071099999V020999999999999999999999999999+99999+99999999999REMSYN04001035 46/// ///// 11114 2//// 333 4/167=
0049010350999992014011410004+69567+020100FM-12+071099999V020999999999999999999999999999+99999+99999999999REMSYN04001035 46/// ///// 11119 2//// 333 4/166=
0049010350999992014011411004+69567+020100FM-12+071099999V020999999999999999999999999999+99999+99999999999REMSYN04001035 46/// ///// 11105 2//// 333 4/167=
0049010350999992014011412004+69567+020100FM-12+071099999V020999999999999999999999999999+99999+99999999999REMSYN04001035 46/// ///// 11075 2//// 333 4/167=
0049010350999992014011413004+69567+020100FM-12+071099999V020999999999999999999999999999+99999+99999999999REMSYN04001035 46/// ///// 11074 2//// 333 4/166=
0049010350999992014011414004+69567+020100FM-12+071099999V020999999999999999999999999999+99999+99999999999REMSYN04001035 46/// ///// 11093 2//// 333 4/166=
0049010350999992014011415004+69567+020100FM-12+071099999V020999999999999999999999999999+99999+99999999999REMSYN04001035 46/// ///// 11083 2//// 333 4/167=
0049010350999992014011416004+69567+020100FM-12+071099999V020999999999999999999999999999+99999+99999999999REMSYN04001035 46/// ///// 11099 2//// 333 4/166=
0049010350999992014011417004+69567+020100FM-12+071099999V020999999999999999999999999999+99999+99999999999REMSYN04001035 46/// ///// 11131 2//// 333 4/165=
0055010350999992014011418004+69567+020100FM-12+071099999V020999999999999999999999999999+99999+99999999999REMSYN04601035 46/// ///// 11080 2//// 333 11065 4/166=
0049010350999992014011419004+69567+020100FM-12+071099999V020999999999999999999999999999+99999+99999999999REMSYN04001035 46/// ///// 11078 2//// 333 4/166=
0049010350999992014011420004+69567+020100FM-12+071099999V020999999999999999999999999999+99999+99999999999REMSYN04001035 46/// ///// 11071 2//// 333 4/166=
0049010350999992014011421004+69567+020100FM-12+071099999V020999999999999999999999999999+99999+99999999999REMSYN04001035 46/// ///// 11071 2//// 333 4/166=
0049010350999992014011422004+69567+020100FM-12+071099999V020999999999999999999999999999+99999+99999999999REMSYN04001035 46/// ///// 11098 2//// 333 4/166=
0049010350999992014011423004+69567+020100FM-12+071099999V020999999999999999999999999999+99999+99999999999REMSYN04001035 46/// ///// 11090 2//// 333 4/166=
0049010350999992014011500004+69567+020100FM-12+071099999V020999999999999999999999999999+99999+99999999999REMSYN04001035 46/// ///// 11111 2//// 333 4/166=
0049010350999992014011502004+69567+020100FM-12+071099999V020999999999999999999999999999+99999+99999999999REMSYN04001035 46/// ///// 11081 2//// 333 4/165=
0049010350999992014011503004+69567+020100FM-12+071099999V020999999999999999999999999999+99999+99999999999REMSYN04001035 46/// ///// 11078 2//// 333 4/166=
0049010350999992014011504004+69567+020100FM-12+071099999V020999999999999999999999999999+99999+99999999999REMSYN04001035 46/// ///// 11078 2//// 333 4/166=
0049010350999992014011505004+69567+020100FM-12+071099999V020999999999999999999999999999+99999+99999999999REMSYN04001035 46/// ///// 11077 2//// 333 4/166=
0055010350999992014011506004+69567+020100FM-12+071099999V020999999999999999999999999999+99999+99999999999REMSYN04601035 46/// ///// 11074 2//// 333 21111 4/167=
0049010350999992014011507004+69567+020100FM-12+071099999V020999999999999999999999999999+99999+99999999999REMSYN04001035 46/// ///// 11076 2//// 333 4/166=
0049010350999992014011518004+69567+020100FM-12+071099999V020999999999999999999999999999+99999+99999999999REMSYN04001035 46/// ///// 11075 2//// 333 11070=
0055010350999992014011606004+69567+020100FM-12+071099999V020999999999999999999999999999+99999+99999999999REMSYN04601035 46/// ///// 11122 2//// 333 21122 4/166=
0049010350999992014011618004+69567+020100FM-12+071099999V020999999999999999999999999999+99999+99999999999REMSYN04001035 46/// ///// 11098 2//// 333 11093=
0055010350999992014011706004+69567+020100FM-12+071099999V020999999999999999999999999999+99999+99999999999REMSYN04601035 46/// ///// 11121 2//// 333 21143 4/166=
0049010350999992014011718004+69567+020100FM-12+071099999V020999999999999999999999999999+99999+99999999999REMSYN04001035 46/// ///// 11143 2//// 333 11084=
0055010350999992014011806004+69567+020100FM-12+071099999V020999999999999999999999999999+99999+99999999999REMSYN04601035 46/// ///// 11129 2//// 333 21146 4/165=
0049010350999992014011818004+69567+020100FM-12+071099999V020999999999999999999999999999+99999+99999999999REMSYN04001035 46/// ///// 11122 2//// 333 11118=
0055010350999992014011906004+69567+020100FM-12+071099999V020999999999999999999999999999+99999+99999999999REMSYN04601035 46/// ///// 11112 2//// 333 21128 4/166=
0049010350999992014011918004+69567+020100FM-12+071099999V020999999999999999999999999999+99999+99999999999REMSYN04001035 46/// ///// 11118 2//// 333 11095=
0055010350999992014012006004+69567+020100FM-12+071099999V020999999999999999999999999999+99999+99999999999REMSYN04601035 46/// ///// 11087 2//// 333 21136 4/163=
0049010350999992014012018004+69567+020100FM-12+071099999V020999999999999999999999999999+99999+99999999999REMSYN04001035 46/// ///// 11064 2//// 333 11055=
0055010350999992014012106004+69567+020100FM-12+071099999V020999999999999999999999999999+99999+99999999999REMSYN04601035 46/// ///// 11049 2//// 333 21112 4/164=
0049010350999992014012118004+69567+020100FM-12+071099999V020999999999999999999999999999+99999+99999999999REMSYN04001035 46/// ///// 11051 2//// 333 11027=
0055010350999992014012206004+69567+020100FM-12+071099999V020999999999999999999999999999+99999+99999999999REMSYN04601035 46/// ///// 11086 2//// 333 21110 4/165=
0055010350999992014012306004+69567+020100FM-12+071099999V020999999999999999999999999999+99999+99999999999REMSYN04601035 46/// ///// 11125 2//// 333 21126 4/165=
0049010350999992014012318004+69567+020100FM-12+071099999V020999999999999999999999999999+99999+99999999999REMSYN04001035 46/// ///// 11102 2//// 333 11101=
0055010350999992014012406004+69567+020100FM-12+071099999V020999999999999999999999999999+99999+99999999999REMSYN04601035 46/// ///// 11106 2//// 333 21124 4/163=
0049010350999992014012418004+69567+020100FM-12+071099999V020999999999999999999999999999+99999+99999999999REMSYN04001035 46/// ///// 11099 2//// 333 11084=
0055010350999992014012506004+69567+020100FM-12+071099999V020999999999999999999999999999+99999+99999999999REMSYN04601035 46/// ///// 11075 2//// 333 21106 4/163=
0049010350999992014012518004+69567+020100FM-12+071099999V020999999999999999999999999999+99999+99999999999REMSYN04001035 46/// ///// 11080 2//// 333 11008=
0055010350999992014012606004+69567+020100FM-12+071099999V020999999999999999999999999999+99999+99999999999REMSYN04601035 46/// ///// 11034 2//// 333 21093 4/164=
0049010350999992014012618004+69567+020100FM-12+071099999V020999999999999999999999999999+99999+99999999999REMSYN04001035 46/// ///// 11105 2//// 333 11031=
0055010350999992014012706004+69567+020100FM-12+071099999V020999999999999999999999999999+99999+99999999999REMSYN04601035 46/// ///// 11131 2//// 333 21140 4/164=
0049010350999992014012718004+69567+020100FM-12+071099999V020999999999999999999999999999+99999+99999999999REMSYN04001035 46/// ///// 11084 2//// 333 11053=
0055010350999992014012806004+69567+020100FM-12+071099999V020999999999999999999999999999+99999+99999999999REMSYN04601035 46/// ///// 11072 2//// 333 21123 4/162=
0049010350999992014012818004+69567+020100FM-12+071099999V020999999999999999999999999999+99999+99999999999REMSYN04001035 46/// ///// 11063 2//// 333 11018=
0055010350999992014012906004+69567+020100FM-12+071099999V020999999999999999999999999999+99999+99999999999REMSYN04601035 46/// ///// 11088 2//// 333 21090 4/163=
0049010350999992014012918004+69567+020100FM-12+071099999V020999999999999999999999999999+99999+99999999999REMSYN04001035 46/// ///// 11099 2//// 333 11058=
0055010350999992014013006004+69567+020100FM-12+071099999V020999999999999999999999999999+99999+99999999999REMSYN04601035 46/// ///// 11079 2//// 333 21101 4/161=
0049010350999992014013018004+69567+020100FM-12+071099999V020999999999999999999999999999+99999+99999999999REMSYN04001035 46/// ///// 11121 2//// 333 11072=
0055010350999992014013106004+69567+020100FM-12+071099999V020999999999999999999999999999+99999+99999999999REMSYN04601035 46/// ///// 11103 2//// 333 21127 4/161=
0049010350999992014013118004+69567+020100FM-12+071099999V020999999999999999999999999999+99999+99999999999REMSYN04001035 46/// ///// 11059 2//// 333 11007=
0055010350999992014020106004+69567+020100FM-12+071099999V020999999999999999999999999999+99999+99999999999REMSYN04601035 46/// ///// 11089 2//// 333 21100 4/164=
0049010350999992014020118004+69567+020100FM-12+071099999V020999999999999999999999999999+99999+99999999999REMSYN04001035 46/// ///// 11078 2//// 333 11048=
0055010350999992014020206004+69567+020100FM-12+071099999V020999999999999999999999999999+99999+99999999999REMSYN04601035 46/// ///// 11102 2//// 333 21120 4/163=
0049010350999992014020218004+69567+020100FM-12+071099999V020999999999999999999999999999+99999+99999999999REMSYN04001035 46/// ///// 11066 2//// 333 11021=
0055010350999992014020306004+69567+020100FM-12+071099999V020999999999999999999999999999+99999+99999999999REMSYN04601035 46/// ///// 11076 2//// 333 21104 4/163=
0039010350999992014020316004+69567+020100FM-12+071099999V0209999C999999999999N999999999+00031+99999999999REMSYN03001035 46/// ///// 10003 2////=
0049010350999992014020318004+69567+020100FM-12+071099999V020999999999999999999999999999+99999+99999999999REMSYN04001035 46/// ///// 10007 2//// 333 10020=
0039010350999992014020320004+69567+020100FM-12+071099999V0209999C999999999999N999999999+00121+99999999999REMSYN03001035 46/// ///// 10012 2////=
0039010350999992014020321004+69567+020100FM-12+071099999V0209999C999999999999N999999999+00251+99999999999REMSYN03001035 46/// ///// 10025 2////=
0039010350999992014020322004+69567+020100FM-12+071099999V0209999C999999999999N999999999+00171+99999999999REMSYN03001035 46/// ///// 10017 2////=
0039010350999992014020323004+69567+020100FM-12+071099999V0209999C999999999999N999999999+00101+99999999999REMSYN03001035 46/// ///// 10010 2////=
0039010350999992014020400004+69567+020100FM-12+071099999V0209999C999999999999N999999999+00201+99999999999REMSYN03001035 46/// ///// 10020 2////=
0039010350999992014020401004+69567+020100FM-12+071099999V0209999C999999999999N999999999+00221+99999999999REMSYN03001035 46/// ///// 10022 2////=
0039010350999992014020402004+69567+020100FM-12+071099999V0209999C999999999999N999999999+00161+99999999999REMSYN03001035 46/// ///// 10016 2////=
0039010350999992014020403004+69567+020100FM-12+071099999V0209999C999999999999N999999999+00191+99999999999REMSYN03001035 46/// ///// 10019 2////=
0039010350999992014020404004+69567+020100FM-12+071099999V0209999C999999999999N999999999+00181+99999999999REMSYN03001035 46/// ///// 10018 2////=
0049010350999992014020406004+69567+020100FM-12+071099999V020999999999999999999999999999+99999+99999999999REMSYN04001035 46/// ///// 11010 2//// 333 4/161=
0039010350999992014020411004+69567+020100FM-12+071099999V0209999C999999999999N999999999+00041+99999999999REMSYN03001035 46/// ///// 10004 2////=
0039010350999992014020412004+69567+020100FM-12+071099999V0209999C999999999999N999999999+00111+99999999999REMSYN03001035 46/// ///// 10011 2////=
0039010350999992014020413004+69567+020100FM-12+071099999V0209999C999999999999N999999999+00121+99999999999REMSYN03001035 46/// ///// 10012 2////=
0039010350999992014020414004+69567+020100FM-12+071099999V0209999C999999999999N999999999+00251+99999999999REMSYN03001035 46/// ///// 10025 2////=
0039010350999992014020415004+69567+020100FM-12+071099999V0209999C999999999999N999999999+00091+99999999999REMSYN03001035 46/// ///// 10009 2////=
0039010350999992014020416004+69567+020100FM-12+071099999V0209999C999999999999N999999999+00241+99999999999REMSYN03001035 46/// ///// 10024 2////=
0039010350999992014020417004+69567+020100FM-12+071099999V0209999C999999999999N999999999+00001+99999999999REMSYN03001035 46/// ///// 10000 2////=
0039010350999992014020422004+69567+020100FM-12+071099999V0209999C999999999999N999999999+00101+99999999999REMSYN03001035 46/// ///// 10010 2////=
0039010350999992014020423004+69567+020100FM-12+071099999V0209999C999999999999N999999999+00211+99999999999REMSYN03001035 46/// ///// 10021 2////=
0039010350999992014020501004+69567+020100FM-12+071099999V0209999C999999999999N999999999+00171+99999999999REMSYN03001035 46/// ///// 10017 2////=
0039010350999992014020502004+69567+020100FM-12+071099999V0209999C999999999999N999999999+00241+99999999999REMSYN03001035 46/// ///// 10024 2////=
0055010350999992014020506004+69567+020100FM-12+071099999V020999999999999999999999999999+99999+99999999999REMSYN04601035 46/// ///// 11023 2//// 333 21055 4/166=
0039010350999992014020510004+69567+020100FM-12+071099999V0209999C999999999999N999999999+00051+99999999999REMSYN03001035 46/// ///// 10005 2////=
0049010350999992014020518004+69567+020100FM-12+071099999V020999999999999999999999999999+99999+99999999999REMSYN04001035 46/// ///// 11067 2//// 333 10010=
0055010350999992014020606004+69567+020100FM-12+071099999V020999999999999999999999999999+99999+99999999999REMSYN04601035 46/// ///// 11086 2//// 333 21089 4/165=
0049010350999992014020618004+69567+020100FM-12+071099999V020999999999999999999999999999+99999+99999999999REMSYN04001035 46/// ///// 11011 2//// 333 11011=
0049010350999992014020706004+69567+020100FM-12+071099999V020999999999999999999999999999+99999+99999999999REMSYN04001035 46/// ///// 11055 2//// 333 4/165=
0055010350999992014020806004+69567+020100FM-12+071099999V020999999999999999999999999999+99999+99999999999REMSYN04601035 46/// ///// 11018 2//// 333 21096 4/164=
0049010350999992014020818004+69567+020100FM-12+071099999V020999999999999999999999999999+99999+99999999999REMSYN04001035 46/// ///// 11049 2//// 333 10011=
0055010350999992014020906004+69567+020100FM-12+071099999V020999999999999999999999999999+99999+99999999999REMSYN04601035 46/// ///// 11042 2//// 333 21057 4/164=
0049010350999992014020918004+69567+020100FM-12+071099999V020999999999999999999999999999+99999+99999999999REMSYN04001035 46/// ///// 10000 2//// 333 10001=
0055010350999992014021006004+69567+020100FM-12+071099999V020999999999999999999999999999+99999+99999999999REMSYN04601035 46/// ///// 11022 2//// 333 21027 4/165=
0039010350999992014021011004+69567+020100FM-12+071099999V0209999C999999999999N999999999+00011+99999999999REMSYN03001035 46/// ///// 10001 2////=
0049010350999992014021106004+69567+020100FM-12+071099999V020999999999999999999999999999+99999+99999999999REMSYN04001035 46/// ///// 11015 2//// 333 4/170=
0039010350999992014021111004+69567+020100FM-12+071099999V0209999C999999999999N999999999+00021+99999999999REMSYN03001035 46/// ///// 10002 2////=
0049010350999992014021218004+69567+020100FM-12+071099999V020999999999999999999999999999+99999+99999999999REMSYN04001035 46/// ///// 11087 2//// 333 11014=
0049010350999992014021306004+69567+020100FM-12+071099999V020999999999999999999999999999+99999+99999999999REMSYN04001035 46/// ///// 11055 2//// 333 4/167=
0049010350999992014021318004+69567+020100FM-12+071099999V020999999999999999999999999999+99999+99999999999REMSYN04001035 46/// ///// 11057 2//// 333 11032=
0055010350999992014021406004+69567+020100FM-12+071099999V020999999999999999999999999999+99999+99999999999REMSYN04601035 46/// ///// 11051 2//// 333 21059 4/164=
0049010350999992014021418004+69567+020100FM-12+071099999V020999999999999999999999999999+99999+99999999999REMSYN04001035 46/// ///// 11047 2//// 333 11033=
0055010350999992014021506004+69567+020100FM-12+071099999V020999999999999999999999999999+99999+99999999999REMSYN04601035 46/// ///// 11044 2//// 333 21070 4/166=
0049010350999992014021518004+69567+020100FM-12+071099999V020999999999999999999999999999+99999+99999999999REMSYN04001035 46/// ///// 11034 2//// 333 11014=
0055010350999992014021606004+69567+020100FM-12+071099999V020999999999999999999999999999+99999+99999999999REMSYN04601035 46/// ///// 11060 2//// 333 21061 4/164=
0049010350999992014021618004+69567+020100FM-12+071099999V020999999999999999999999999999+99999+99999999999REMSYN04001035 46/// ///// 11055 2//// 333 11048=
0055010350999992014021706004+69567+020100FM-12+071099999V020999999999999999999999999999+99999+99999999999REMSYN04601035 46/// ///// 11029 2//// 333 21055 4/171=
0049010350999992014021718004+69567+020100FM-12+071099999V020999999999999999999999999999+99999+99999999999REMSYN04001035 46/// ///// 11047 2//// 333 11018=
0055010350999992014021806004+69567+020100FM-12+071099999V020999999999999999999999999999+99999+99999999999REMSYN04601035 46/// ///// 11045 2//// 333 21062 4/168=
0049010350999992014021818004+69567+020100FM-12+071099999V020999999999999999999999999999+99999+99999999999REMSYN04001035 46/// ///// 11025 2//// 333 11017=
0055010350999992014021906004+69567+020100FM-12+071099999V020999999999999999999999999999+99999+99999999999REMSYN04601035 46/// ///// 11050 2//// 333 21050 4/170=
0049010350999992014021918004+69567+020100FM-12+071099999V020999999999999999999999999999+99999+99999999999REMSYN04001035 46/// ///// 11054 2//// 333 11036=
0055010350999992014022006004+69567+020100FM-12+071099999V020999999999999999999999999999+99999+99999999999REMSYN04601035 46/// ///// 11072 2//// 333 21078 4/169=
0049010350999992014022018004+69567+020100FM-12+071099999V020999999999999999999999999999+99999+99999999999REMSYN04001035 46/// ///// 11097 2//// 333 11066=
0055010350999992014022106004+69567+020100FM-12+071099999V020999999999999999999999999999+99999+99999999999REMSYN04601035 46/// ///// 11086 2//// 333 21129 4/170=
0049010350999992014022118004+69567+020100FM-12+071099999V020999999999999999999999999999+99999+99999999999REMSYN04001035 46/// ///// 11131 2//// 333 11072=
0055010350999992014022206004+69567+020100FM-12+071099999V020999999999999999999999999999+99999+99999999999REMSYN04601035 46/// ///// 11101 2//// 333 21132 4/163=
0049010350999992014022218004+69567+020100FM-12+071099999V020999999999999999999999999999+99999+99999999999REMSYN04001035 46/// ///// 11031 2//// 333 11031=
0039010350999992014022300004+69567+020100FM-12+071099999V0209999C999999999999N999999999+00061+99999999999REMSYN03001035 46/// ///// 10006 2////=
0039010350999992014022301004+69567+020100FM-12+071099999V0209999C999999999999N999999999+00071+99999999999REMSYN03001035 46/// ///// 10007 2////=
0039010350999992014022304004+69567+020100FM-12+071099999V0209999C999999999999N999999999+00141+99999999999REMSYN03001035 46/// ///// 10014 2////=
0039010350999992014022305004+69567+020100FM-12+071099999V0209999C999999999999N999999999+00121+99999999999REMSYN03001035 46/// ///// 10012 2////=
0055010350999992014022306004+69567+020100FM-12+071099999V020999999999999999999999999999+99999+99999999999REMSYN04601035 46/// ///// 10001 2//// 333 21030 4/163=
0039010350999992014022308004+69567+020100FM-12+071099999V0209999C999999999999N999999999+00021+99999999999REMSYN03001035 46/// ///// 10002 2////=
0039010350999992014022310004+69567+020100FM-12+071099999V0209999C999999999999N999999999+00001+99999999999REMSYN03001035 46/// ///// 10000 2////=
0049010350999992014022318004+69567+020100FM-12+071099999V020999999999999999999999999999+99999+99999999999REMSYN04001035 46/// ///// 11020 2//// 333 10008=
0039010350999992014022320004+69567+020100FM-12+071099999V0209999C999999999999N999999999+00011+99999999999REMSYN03001035 46/// ///// 10001 2////=
0039010350999992014022321004+69567+020100FM-12+071099999V0209999C999999999999N999999999+00021+99999999999REMSYN03001035 46/// ///// 10002 2////=
0039010350999992014022404004+69567+020100FM-12+071099999V0209999C999999999999N999999999+00001+99999999999REMSYN03001035 46/// ///// 10000 2////=
0039010350999992014022405004+69567+020100FM-12+071099999V0209999C999999999999N999999999+00031+99999999999REMSYN03001035 46/// ///// 10003 2////=
0055010350999992014022406004+69567+020100FM-12+071099999V020999999999999999999999999999+99999+99999999999REMSYN04601035 46/// ///// 10008 2//// 333 21033 4/165=
0039010350999992014022407004+69567+020100FM-12+071099999V0209999C999999999999N999999999+00001+99999999999REMSYN03001035 46/// ///// 10000 2////=
0039010350999992014022408004+69567+020100FM-12+071099999V0209999C999999999999N999999999+00281+99999999999REMSYN03001035 46/// ///// 10028 2////=
0039010350999992014022409004+69567+020100FM-12+071099999V0209999C999999999999N999999999+00321+99999999999REMSYN03001035 46/// ///// 10032 2////=
0039010350999992014022410004+69567+020100FM-12+071099999V0209999C999999999999N999999999+00311+99999999999REMSYN03001035 46/// ///// 10031 2////=
0039010350999992014022411004+69567+020100FM-12+071099999V0209999C999999999999N999999999+00371+99999999999REMSYN03001035 46/// ///// 10037 2////=
0039010350999992014022412004+69567+020100FM-12+071099999V0209999C999999999999N999999999+00371+99999999999REMSYN03001035 46/// ///// 10037 2////=
0039010350999992014022413004+69567+020100FM-12+071099999V0209999C999999999999N999999999+00301+99999999999REMSYN03001035 46/// ///// 10030 2////=
0039010350999992014022414004+69567+020100FM-12+071099999V0209999C999999999999N999999999+00251+99999999999REMSYN03001035 46/// ///// 10025 2////=
0039010350999992014022415004+69567+020100FM-12+071099999V0209999C999999999999N999999999+00271+99999999999REMSYN03001035 46/// ///// 10027 2////=
0039010350999992014022416004+69567+020100FM-12+071099999V0209999C999999999999N999999999+00101+99999999999REMSYN03001035 46/// ///// 10010 2////=
0039010350999992014022417004+69567+020100FM-12+071099999V0209999C999999999999N999999999+00161+99999999999REMSYN03001035 46/// ///// 10016 2////=
0049010350999992014022418004+69567+020100FM-12+071099999V020999999999999999999999999999+99999+99999999999REMSYN04001035 46/// ///// 10032 2//// 333 10038=
0039010350999992014022419004+69567+020100FM-12+071099999V0209999C999999999999N999999999+00331+99999999999REMSYN03001035 46/// ///// 10033 2////=
0039010350999992014022420004+69567+020100FM-12+071099999V0209999C999999999999N999999999+00321+99999999999REMSYN03001035 46/// ///// 10032 2////=
0039010350999992014022421004+69567+020100FM-12+071099999V0209999C999999999999N999999999+00361+99999999999REMSYN03001035 46/// ///// 10036 2////=
0039010350999992014022422004+69567+020100FM-12+071099999V0209999C999999999999N999999999+00371+99999999999REMSYN03001035 46/// ///// 10037 2////=
0039010350999992014022423004+69567+020100FM-12+071099999V0209999C999999999999N999999999+00341+99999999999REMSYN03001035 46/// ///// 10034 2////=
0039010350999992014022500004+69567+020100FM-12+071099999V0209999C999999999999N999999999+00381+99999999999REMSYN03001035 46/// ///// 10038 2////=
0039010350999992014022501004+69567+020100FM-12+071099999V0209999C999999999999N999999999+00281+99999999999REMSYN03001035 46/// ///// 10028 2////=
0039010350999992014022502004+69567+020100FM-12+071099999V0209999C999999999999N999999999+00231+99999999999REMSYN03001035 46/// ///// 10023 2////=
0039010350999992014022503004+69567+020100FM-12+071099999V0209999C999999999999N999999999+00271+99999999999REMSYN03001035 46/// ///// 10027 2////=
0039010350999992014022504004+69567+020100FM-12+071099999V0209999C999999999999N999999999+00121+99999999999REMSYN03001035 46/// ///// 10012 2////=
0039010350999992014022505004+69567+020100FM-12+071099999V0209999C999999999999N999999999+00111+99999999999REMSYN03001035 46/// ///// 10011 2////=
0049010350999992014022506004+69567+020100FM-12+071099999V020999999999999999999999999999+99999+99999999999REMSYN04001035 46/// ///// 10007 2//// 333 20002=
0039010350999992014022507004+69567+020100FM-12+071099999V0209999C999999999999N999999999+00031+99999999999REMSYN03001035 46/// ///// 10003 2////=
0039010350999992014022508004+69567+020100FM-12+071099999V0209999C999999999999N999999999+00131+99999999999REMSYN03001035 46/// ///// 10013 2////=
0039010350999992014022509004+69567+020100FM-12+071099999V0209999C999999999999N999999999+00301+99999999999REMSYN03001035 46/// ///// 10030 2////=
0039010350999992014022510004+69567+020100FM-12+071099999V0209999C999999999999N999999999+00351+99999999999REMSYN03001035 46/// ///// 10035 2////=
0039010350999992014022511004+69567+020100FM-12+071099999V0209999C999999999999N999999999+00351+99999999999REMSYN03001035 46/// ///// 10035 2////=
0039010350999992014022512004+69567+020100FM-12+071099999V0209999C999999999999N999999999+00251+99999999999REMSYN03001035 46/// ///// 10025 2////=
0039010350999992014022513004+69567+020100FM-12+071099999V0209999C999999999999N999999999+00231+99999999999REMSYN03001035 46/// ///// 10023 2////=
0039010350999992014022514004+69567+020100FM-12+071099999V0209999C999999999999N999999999+00201+99999999999REMSYN03001035 46/// ///// 10020 2////=
0039010350999992014022515004+69567+020100FM-12+071099999V0209999C999999999999N999999999+00161+99999999999REMSYN03001035 46/// ///// 10016 2////=
0039010350999992014022516004+69567+020100FM-12+071099999V0209999C999999999999N999999999+00151+99999999999REMSYN03001035 46/// ///// 10015 2////=
0039010350999992014022517004+69567+020100FM-12+071099999V0209999C999999999999N999999999+00071+99999999999REMSYN03001035 46/// ///// 10007 2////=
0049010350999992014022518004+69567+020100FM-12+071099999V020999999999999999999999999999+99999+99999999999REMSYN04001035 46/// ///// 10015 2//// 333 10040=
0039010350999992014022519004+69567+020100FM-12+071099999V0209999C999999999999N999999999+00101+99999999999REMSYN03001035 46/// ///// 10010 2////=
0039010350999992014022520004+69567+020100FM-12+071099999V0209999C999999999999N999999999+00011+99999999999REMSYN03001035 46/// ///// 10001 2////=
0039010350999992014022521004+69567+020100FM-12+071099999V0209999C999999999999N999999999+00061+99999999999REMSYN03001035 46/// ///// 10006 2////=
0055010350999992014022606004+69567+020100FM-12+071099999V020999999999999999999999999999+99999+99999999999REMSYN04601035 46/// ///// 11029 2//// 333 21051 4/165=
0039010350999992014022608004+69567+020100FM-12+071099999V0209999C999999999999N999999999+00011+99999999999REMSYN03001035 46/// ///// 10001 2////=
0039010350999992014022611004+69567+020100FM-12+071099999V0209999C999999999999N999999999+00001+99999999999REMSYN03001035 46/// ///// 10000 2////=
0039010350999992014022612004+69567+020100FM-12+071099999V0209999C999999999999N999999999+00001+99999999999REMSYN03001035 46/// ///// 10000 2////=
0039010350999992014022617004+69567+020100FM-12+071099999V0209999C999999999999N999999999+00011+99999999999REMSYN03001035 46/// ///// 10001 2////=
0049010350999992014022618004+69567+020100FM-12+071099999V020999999999999999999999999999+99999+99999999999REMSYN04001035 46/// ///// 11001 2//// 333 10008=
0055010350999992014022706004+69567+020100FM-12+071099999V020999999999999999999999999999+99999+99999999999REMSYN04601035 46/// ///// 11065 2//// 333 21066 4/166=
0049010350999992014022718004+69567+020100FM-12+071099999V020999999999999999999999999999+99999+99999999999REMSYN04001035 46/// ///// 11020 2//// 333 11016=
0055010350999992014022806004+69567+020100FM-12+071099999V020999999999999999999999999999+99999+99999999999REMSYN04601035 46/// ///// 11024 2//// 333 21039 4/164=
0039010350999992014022812004+69567+020100FM-12+071099999V0209999C999999999999N999999999+00001+99999999999REMSYN03001035 46/// ///// 10000 2////=
0039010350999992014022813004+69567+020100FM-12+071099999V0209999C999999999999N999999999+00001+99999999999REMSYN03001035 46/// ///// 10000 2////=
0039010350999992014022814004+69567+020100FM-12+071099999V0209999C999999999999N999999999+00051+99999999999REMSYN03001035 46/// ///// 10005 2////=
0039010350999992014022815004+69567+020100FM-12+071099999V0209999C999999999999N999999999+00071+99999999999REMSYN03001035 46/// ///// 10007 2////=
0049010350999992014022818004+69567+020100FM-12+071099999V020999999999999999999999999999+99999+99999999999REMSYN04001035 46/// ///// 11025 2//// 333 10008=
0055010350999992014030106004+69567+020100FM-12+071099999V020999999999999999999999999999+99999+99999999999REMSYN04601035 46/// ///// 11047 2//// 333 21077 4/164=
0049010350999992014030118004+69567+020100FM-12+071099999V020999999999999999999999999999+99999+99999999999REMSYN04001035 46/// ///// 11066 2//// 333 11021=
0055010350999992014030206004+69567+020100FM-12+071099999V020999999999999999999999999999+99999+99999999999REMSYN04601035 46/// ///// 11038 2//// 333 21084 4/164=
0049010350999992014030218004+69567+020100FM-12+071099999V020999999999999999999999999999+99999+99999999999REMSYN04001035 46/// ///// 11040 2//// 333 11022=
0055010350999992014030306004+69567+020100FM-12+071099999V020999999999999999999999999999+99999+99999999999REMSYN04601035 46/// ///// 11084 2//// 333 21103 4/163=
0049010350999992014030318004+69567+020100FM-12+071099999V020999999999999999999999999999+99999+99999999999REMSYN04001035 46/// ///// 11085 2//// 333 11048=
0055010350999992014030406004+69567+020100FM-12+071099999V020999999999999999999999999999+99999+99999999999REMSYN04601035 46/// ///// 11027 2//// 333 21107 4/163=
0049010350999992014030418004+69567+020100FM-12+071099999V020999999999999999999999999999+99999+99999999999REMSYN04001035 46/// ///// 11018 2//// 333 11016=
0055010350999992014030506004+69567+020100FM-12+071099999V020999999999999999999999999999+99999+99999999999REMSYN04601035 46/// ///// 11042 2//// 333 21065 4/165=
0049010350999992014030518004+69567+020100FM-12+071099999V020999999999999999999999999999+99999+99999999999REMSYN04001035 46/// ///// 11030 2//// 333 11021=
0039010350999992014030523004+69567+020100FM-12+071099999V0209999C999999999999N999999999+00091+99999999999REMSYN03001035 46/// ///// 10009 2////=
0039010350999992014030600004+69567+020100FM-12+071099999V0209999C999999999999N999999999+00201+99999999999REMSYN03001035 46/// ///// 10020 2////=
0039010350999992014030601004+69567+020100FM-12+071099999V0209999C999999999999N999999999+00201+99999999999REMSYN03001035 46/// ///// 10020 2////=
0039010350999992014030602004+69567+020100FM-12+071099999V0209999C999999999999N999999999+00081+99999999999REMSYN03001035 46/// ///// 10008 2////=
0039010350999992014030603004+69567+020100FM-12+071099999V0209999C999999999999N999999999+00011+99999999999REMSYN03001035 46/// ///// 10001 2////=
0039010350999992014030604004+69567+020100FM-12+071099999V0209999C999999999999N999999999+00011+99999999999REMSYN03001035 46/// ///// 10001 2////=
0055010350999992014030606004+69567+020100FM-12+071099999V020999999999999999999999999999+99999+99999999999REMSYN04601035 46/// ///// 11013 2//// 333 21034 4/166=
0039010350999992014030610004+69567+020100FM-12+071099999V0209999C999999999999N999999999+00001+99999999999REMSYN03001035 46/// ///// 10000 2////=
0039010350999992014030611004+69567+020100FM-12+071099999V0209999C999999999999N999999999+00001+99999999999REMSYN03001035 46/// ///// 10000 2////=
0039010350999992014030612004+69567+020100FM-12+071099999V0209999C999999999999N999999999+00021+99999999999REMSYN03001035 46/// ///// 10002 2////=
0039010350999992014030613004+69567+020100FM-12+071099999V0209999C999999999999N999999999+00161+99999999999REMSYN03001035 46/// ///// 10016 2////=
0039010350999992014030616004+69567+020100FM-12+071099999V0209999C999999999999N999999999+00101+99999999999REMSYN03001035 46/// ///// 10010 2////=
0039010350999992014030617004+69567+020100FM-12+071099999V0209999C999999999999N999999999+00201+99999999999REMSYN03001035 46/// ///// 10020 2////=
0049010350999992014030618004+69567+020100FM-12+071099999V020999999999999999999999999999+99999+99999999999REMSYN04001035 46/// ///// 10007 2//// 333 10021=
0039010350999992014030619004+69567+020100FM-12+071099999V0209999C999999999999N999999999+00051+99999999999REMSYN03001035 46/// ///// 10005 2////=
0039010350999992014030622004+69567+020100FM-12+071099999V0209999C999999999999N999999999+00021+99999999999REMSYN03001035 46/// ///// 10002 2////=
0055010350999992014030706004+69567+020100FM-12+071099999V020999999999999999999999999999+99999+99999999999REMSYN04601035 46/// ///// 11009 2//// 333 21020 4/171=
0039010350999992014030711004+69567+020100FM-12+071099999V0209999C999999999999N999999999+00021+99999999999REMSYN03001035 46/// ///// 10002 2////=
0039010350999992014030713004+69567+020100FM-12+071099999V0209999C999999999999N999999999+00021+99999999999REMSYN03001035 46/// ///// 10002 2////=
0039010350999992014030714004+69567+020100FM-12+071099999V0209999C999999999999N999999999+00081+99999999999REMSYN03001035 46/// ///// 10008 2////=
0039010350999992014030715004+69567+020100FM-12+071099999V0209999C999999999999N999999999+00061+99999999999REMSYN03001035 46/// ///// 10006 2////=
0039010350999992014030716004+69567+020100FM-12+071099999V0209999C999999999999N999999999+00041+99999999999REMSYN03001035 46/// ///// 10004 2////=
0049010350999992014030718004+69567+020100FM-12+071099999V020999999999999999999999999999+99999+99999999999REMSYN04001035 46/// ///// 11008 2//// 333 10009=
0039010350999992014030719004+69567+020100FM-12+071099999V0209999C999999999999N999999999+00071+99999999999REMSYN03001035 46/// ///// 10007 2////=
0039010350999992014030804004+69567+020100FM-12+071099999V0209999C999999999999N999999999+00001+99999999999REMSYN03001035 46/// ///// 10000 2////=
0039010350999992014030805004+69567+020100FM-12+071099999V0209999C999999999999N999999999+00151+99999999999REMSYN03001035 46/// ///// 10015 2////=
0055010350999992014030806004+69567+020100FM-12+071099999V020999999999999999999999999999+99999+99999999999REMSYN04601035 46/// ///// 10007 2//// 333 21029 4/170=
0039010350999992014030807004+69567+020100FM-12+071099999V0209999C999999999999N999999999+00091+99999999999REMSYN03001035 46/// ///// 10009 2////=
0049010350999992014030818004+69567+020100FM-12+071099999V020999999999999999999999999999+99999+99999999999REMSYN04001035 46/// ///// 11015 2//// 333 10012=
0055010350999992014030906004+69567+020100FM-12+071099999V020999999999999999999999999999+99999+99999999999REMSYN04601035 46/// ///// 11022 2//// 333 21035 4/195=
0039010350999992014030911004+69567+020100FM-12+071099999V0209999C999999999999N999999999+00201+99999999999REMSYN03001035 46/// ///// 10020 2////=
0039010350999992014030912004+69567+020100FM-12+071099999V0209999C999999999999N999999999+00221+99999999999REMSYN03001035 46/// ///// 10022 2////=
0039010350999992014030913004+69567+020100FM-12+071099999V0209999C999999999999N999999999+00201+99999999999REMSYN03001035 46/// ///// 10020 2////=
0039010350999992014030914004+69567+020100FM-12+071099999V0209999C999999999999N999999999+00061+99999999999REMSYN03001035 46/// ///// 10006 2////=
0039010350999992014030915004+69567+020100FM-12+071099999V0209999C999999999999N999999999+00101+99999999999REMSYN03001035 46/// ///// 10010 2////=
0039010350999992014030916004+69567+020100FM-12+071099999V0209999C999999999999N999999999+00161+99999999999REMSYN03001035 46/// ///// 10016 2////=
0039010350999992014030917004+69567+020100FM-12+071099999V0209999C999999999999N999999999+00111+99999999999REMSYN03001035 46/// ///// 10011 2////=
0049010350999992014030918004+69567+020100FM-12+071099999V020999999999999999999999999999+99999+99999999999REMSYN04001035 46/// ///// 10020 2//// 333 10025=
0039010350999992014030919004+69567+020100FM-12+071099999V0209999C999999999999N999999999+00101+99999999999REMSYN03001035 46/// ///// 10010 2////=
0039010350999992014030920004+69567+020100FM-12+071099999V0209999C999999999999N999999999+00131+99999999999REMSYN03001035 46/// ///// 10013 2////=
0039010350999992014030921004+69567+020100FM-12+071099999V0209999C999999999999N999999999+00181+99999999999REMSYN03001035 46/// ///// 10018 2////=
0039010350999992014030922004+69567+020100FM-12+071099999V0209999C999999999999N999999999+00011+99999999999REMSYN03001035 46/// ///// 10001 2////=
0039010350999992014031000004+69567+020100FM-12+071099999V0209999C999999999999N999999999+00071+99999999999REMSYN03001035 46/// ///// 10007 2////=
0039010350999992014031001004+69567+020100FM-12+071099999V0209999C999999999999N999999999+00081+99999999999REMSYN03001035 46/// ///// 10008 2////=
0039010350999992014031002004+69567+020100FM-12+071099999V0209999C999999999999N999999999+00081+99999999999REMSYN03001035 46/// ///// 10008 2////=
0039010350999992014031003004+69567+020100FM-12+071099999V0209999C999999999999N999999999+00081+99999999999REMSYN03001035 46/// ///// 10008 2////=
0039010350999992014031004004+69567+020100FM-12+071099999V0209999C999999999999N999999999+00031+99999999999REMSYN03001035 46/// ///// 10003 2////=
0055010350999992014031006004+69567+020100FM-12+071099999V020999999999999999999999999999+99999+99999999999REMSYN04601035 46/// ///// 11003 2//// 333 21005 4/197=
0039010350999992014031008004+69567+020100FM-12+071099999V0209999C999999999999N999999999+00001+99999999999REMSYN03001035 46/// ///// 10000 2////=
0039010350999992014031009004+69567+020100FM-12+071099999V0209999C999999999999N999999999+00061+99999999999REMSYN03001035 46/// ///// 10006 2////=
0039010350999992014031010004+69567+020100FM-12+071099999V0209999C999999999999N999999999+00021+99999999999REMSYN03001035 46/// ///// 10002 2////=
0039010350999992014031011004+69567+020100FM-12+071099999V0209999C999999999999N999999999+00081+99999999999REMSYN03001035 46/// ///// 10008 2////=
0039010350999992014031012004+69567+020100FM-12+071099999V0209999C999999999999N999999999+00101+99999999999REMSYN03001035 46/// ///// 10010 2////=
0039010350999992014031013004+69567+020100FM-12+071099999V0209999C999999999999N999999999+00111+99999999999REMSYN03001035 46/// ///// 10011 2////=
0039010350999992014031014004+69567+020100FM-12+071099999V0209999C999999999999N999999999+00031+99999999999REMSYN03001035 46/// ///// 10003 2////=
0039010350999992014031015004+69567+020100FM-12+071099999V0209999C999999999999N999999999+00041+99999999999REMSYN03001035 46/// ///// 10004 2////=
0039010350999992014031016004+69567+020100FM-12+071099999V0209999C999999999999N999999999+00031+99999999999REMSYN03001035 46/// ///// 10003 2////=
0039010350999992014031017004+69567+020100FM-12+071099999V0209999C999999999999N999999999+00051+99999999999REMSYN03001035 46/// ///// 10005 2////=
0049010350999992014031018004+69567+020100FM-12+071099999V020999999999999999999999999999+99999+99999999999REMSYN04001035 46/// ///// 10008 2//// 333 10012=
0039010350999992014031019004+69567+020100FM-12+071099999V0209999C999999999999N999999999+00021+99999999999REMSYN03001035 46/// ///// 10002 2////=
0049010350999992014031104004+69567+020100FM-12+071099999V020999999999999999999999999999+99999+99999999999REMSYN04001035 46/// ///// 11028 2//// 333 4/209=
0049010350999992014031105004+69567+020100FM-12+071099999V020999999999999999999999999999+99999+99999999999REMSYN04001035 46/// ///// 11025 2//// 333 4/210=
0055010350999992014031106004+69567+020100FM-12+071099999V020999999999999999999999999999+99999+99999999999REMSYN04601035 46/// ///// 11033 2//// 333 21033 4/211=
0049010350999992014031107004+69567+020100FM-12+071099999V020999999999999999999999999999+99999+99999999999REMSYN04001035 46/// ///// 11028 2//// 333 4/220=
0049010350999992014031108004+69567+020100FM-12+071099999V020999999999999999999999999999+99999+99999999999REMSYN04001035 46/// ///// 11028 2//// 333 4/220=
0049010350999992014031109004+69567+020100FM-12+071099999V020999999999999999999999999999+99999+99999999999REMSYN04001035 46/// ///// 11028 2//// 333 4/219=
0049010350999992014031110004+69567+020100FM-12+071099999V020999999999999999999999999999+99999+99999999999REMSYN04001035 46/// ///// 11025 2//// 333 4/218=
0049010350999992014031111004+69567+020100FM-12+071099999V020999999999999999999999999999+99999+99999999999REMSYN04001035 46/// ///// 11022 2//// 333 4/217=
0049010350999992014031112004+69567+020100FM-12+071099999V020999999999999999999999999999+99999+99999999999REMSYN04001035 46/// ///// 11024 2//// 333 4/218=
0049010350999992014031113004+69567+020100FM-12+071099999V020999999999999999999999999999+99999+99999999999REMSYN04001035 46/// ///// 11024 2//// 333 4/218=
0049010350999992014031114004+69567+020100FM-12+071099999V020999999999999999999999999999+99999+99999999999REMSYN04001035 46/// ///// 11026 2//// 333 4/218=
0049010350999992014031115004+69567+020100FM-12+071099999V020999999999999999999999999999+99999+99999999999REMSYN04001035 46/// ///// 11021 2//// 333 4/217=
0049010350999992014031116004+69567+020100FM-12+071099999V020999999999999999999999999999+99999+99999999999REMSYN04001035 46/// ///// 11030 2//// 333 4/217=
0049010350999992014031117004+69567+020100FM-12+071099999V020999999999999999999999999999+99999+99999999999REMSYN04001035 46/// ///// 11026 2//// 333 4/217=
0055010350999992014031118004+69567+020100FM-12+071099999V020999999999999999999999999999+99999+99999999999REMSYN04601035 46/// ///// 11018 2//// 333 11018 4/217=
0049010350999992014031119004+69567+020100FM-12+071099999V020999999999999999999999999999+99999+99999999999REMSYN04001035 46/// ///// 11011 2//// 333 4/217=
0049010350999992014031120004+69567+020100FM-12+071099999V020999999999999999999999999999+99999+99999999999REMSYN04001035 46/// ///// 10004 2//// 333 4/218=
0049010350999992014031121004+69567+020100FM-12+071099999V020999999999999999999999999999+99999+99999999999REMSYN04001035 46/// ///// 10011 2//// 333 4/218=
0049010350999992014031122004+69567+020100FM-12+071099999V020999999999999999999999999999+99999+99999999999REMSYN04001035 46/// ///// 10014 2//// 333 4/218=
0049010350999992014031123004+69567+020100FM-12+071099999V020999999999999999999999999999+99999+99999999999REMSYN04001035 46/// ///// 10002 2//// 333 4/218=
0049010350999992014031200004+69567+020100FM-12+071099999V020999999999999999999999999999+99999+99999999999REMSYN04001035 46/// ///// 10003 2//// 333 4/218=
0049010350999992014031201004+69567+020100FM-12+071099999V020999999999999999999999999999+99999+99999999999REMSYN04001035 46/// ///// 10002 2//// 333 4/218=
0049010350999992014031202004+69567+020100FM-12+071099999V020999999999999999999999999999+99999+99999999999REMSYN04001035 46/// ///// 11007 2//// 333 4/220=
0049010350999992014031203004+69567+020100FM-12+071099999V020999999999999999999999999999+99999+99999999999REMSYN04001035 46/// ///// 11011 2//// 333 4/216=
0049010350999992014031204004+69567+020100FM-12+071099999V020999999999999999999999999999+99999+99999999999REMSYN04001035 46/// ///// 11017 2//// 333 4/217=
0049010350999992014031205004+69567+020100FM-12+071099999V020999999999999999999999999999+99999+99999999999REMSYN04001035 46/// ///// 11011 2//// 333 4/217=
0055010350999992014031206004+69567+020100FM-12+071099999V020999999999999999999999999999+99999+99999999999REMSYN04601035 46/// ///// 11007 2//// 333 21019 4/222=
0049010350999992014031207004+69567+020100FM-12+071099999V020999999999999999999999999999+99999+99999999999REMSYN04001035 46/// ///// 11005 2//// 333 4/220=
0049010350999992014031208004+69567+020100FM-12+071099999V020999999999999999999999999999+99999+99999999999REMSYN04001035 46/// ///// 10000 2//// 333 4/218=
0049010350999992014031209004+69567+020100FM-12+071099999V020999999999999999999999999999+99999+99999999999REMSYN04001035 46/// ///// 11001 2//// 333 4/219=
0049010350999992014031210004+69567+020100FM-12+071099999V020999999999999999999999999999+99999+99999999999REMSYN04001035 46/// ///// 10001 2//// 333 4/218=
0049010350999992014031211004+69567+020100FM-12+071099999V020999999999999999999999999999+99999+99999999999REMSYN04001035 46/// ///// 11005 2//// 333 4/219=
0049010350999992014031212004+69567+020100FM-12+071099999V020999999999999999999999999999+99999+99999999999REMSYN04001035 46/// ///// 11012 2//// 333 4/217=
0049010350999992014031213004+69567+020100FM-12+071099999V020999999999999999999999999999+99999+99999999999REMSYN04001035 46/// ///// 11012 2//// 333 4/218=
0049010350999992014031214004+69567+020100FM-12+071099999V020999999999999999999999999999+99999+99999999999REMSYN04001035 46/// ///// 11016 2//// 333 4/220=
0049010350999992014031215004+69567+020100FM-12+071099999V020999999999999999999999999999+99999+99999999999REMSYN04001035 46/// ///// 11017 2//// 333 4/227=
0049010350999992014031216004+69567+020100FM-12+071099999V020999999999999999999999999999+99999+99999999999REMSYN04001035 46/// ///// 11022 2//// 333 4/226=
0049010350999992014031217004+69567+020100FM-12+071099999V020999999999999999999999999999+99999+99999999999REMSYN04001035 46/// ///// 11025 2//// 333 4/225=
0055010350999992014031218004+69567+020100FM-12+071099999V020999999999999999999999999999+99999+99999999999REMSYN04601035 46/// ///// 11024 2//// 333 10005 4/222=
0049010350999992014031219004+69567+020100FM-12+071099999V020999999999999999999999999999+99999+99999999999REMSYN04001035 46/// ///// 11027 2//// 333 4/222=
0049010350999992014031220004+69567+020100FM-12+071099999V020999999999999999999999999999+99999+99999999999REMSYN04001035 46/// ///// 11036 2//// 333 4/221=
0049010350999992014031221004+69567+020100FM-12+071099999V020999999999999999999999999999+99999+99999999999REMSYN04001035 46/// ///// 11034 2//// 333 4/219=
0049010350999992014031222004+69567+020100FM-12+071099999V020999999999999999999999999999+99999+99999999999REMSYN04001035 46/// ///// 11036 2//// 333 4/223=
0049010350999992014031223004+69567+020100FM-12+071099999V020999999999999999999999999999+99999+99999999999REMSYN04001035 46/// ///// 11037 2//// 333 4/223=
0049010350999992014031300004+69567+020100FM-12+071099999V020999999999999999999999999999+99999+99999999999REMSYN04001035 46/// ///// 11039 2//// 333 4/224=
0049010350999992014031301004+69567+020100FM-12+071099999V020999999999999999999999999999+99999+99999999999REMSYN04001035 46/// ///// 11040 2//// 333 4/223=
0049010350999992014031302004+69567+020100FM-12+071099999V020999999999999999999999999999+99999+99999999999REMSYN04001035 46/// ///// 11041 2//// 333 4/223=
0049010350999992014031303004+69567+020100FM-12+071099999V020999999999999999999999999999+99999+99999999999REMSYN04001035 46/// ///// 11057 2//// 333 4/223=
0049010350999992014031304004+69567+020100FM-12+071099999V020999999999999999999999999999+99999+99999999999REMSYN04001035 46/// ///// 11057 2//// 333 4/223=
0049010350999992014031305004+69567+020100FM-12+071099999V020999999999999999999999999999+99999+99999999999REMSYN04001035 46/// ///// 11052 2//// 333 4/222=
0055010350999992014031306004+69567+020100FM-12+071099999V020999999999999999999999999999+99999+99999999999REMSYN04601035 46/// ///// 11039 2//// 333 21060 4/222=
0049010350999992014031307004+69567+020100FM-12+071099999V020999999999999999999999999999+99999+99999999999REMSYN04001035 46/// ///// 11042 2//// 333 4/222=
0049010350999992014031308004+69567+020100FM-12+071099999V020999999999999999999999999999+99999+99999999999REMSYN04001035 46/// ///// 11039 2//// 333 4/223=
0049010350999992014031309004+69567+020100FM-12+071099999V020999999999999999999999999999+99999+99999999999REMSYN04001035 46/// ///// 11048 2//// 333 4/222=
0049010350999992014031310004+69567+020100FM-12+071099999V020999999999999999999999999999+99999+99999999999REMSYN04001035 46/// ///// 11049 2//// 333 4/229=
0049010350999992014031311004+69567+020100FM-12+071099999V020999999999999999999999999999+99999+99999999999REMSYN04001035 46/// ///// 11050 2//// 333 4/221=
0049010350999992014031312004+69567+020100FM-12+071099999V020999999999999999999999999999+99999+99999999999REMSYN04001035 46/// ///// 11042 2//// 333 4/230=
0049010350999992014031313004+69567+020100FM-12+071099999V020999999999999999999999999999+99999+99999999999REMSYN04001035 46/// ///// 11045 2//// 333 4/227=
0049010350999992014031314004+69567+020100FM-12+071099999V020999999999999999999999999999+99999+99999999999REMSYN04001035 46/// ///// 11040 2//// 333 4/228=
0049010350999992014031315004+69567+020100FM-12+071099999V020999999999999999999999999999+99999+99999999999REMSYN04001035 46/// ///// 11036 2//// 333 4/226=
0049010350999992014031316004+69567+020100FM-12+071099999V020999999999999999999999999999+99999+99999999999REMSYN04001035 46/// ///// 11027 2//// 333 4/223=
0049010350999992014031317004+69567+020100FM-12+071099999V020999999999999999999999999999+99999+99999999999REMSYN04001035 46/// ///// 10014 2//// 333 4/221=
0055010350999992014031318004+69567+020100FM-12+071099999V020999999999999999999999999999+99999+99999999999REMSYN04601035 46/// ///// 10014 2//// 333 10017 4/219=
0049010350999992014031319004+69567+020100FM-12+071099999V020999999999999999999999999999+99999+99999999999REMSYN04001035 46/// ///// 10005 2//// 333 4/220=
0049010350999992014031320004+69567+020100FM-12+071099999V020999999999999999999999999999+99999+99999999999REMSYN04001035 46/// ///// 11001 2//// 333 4/221=
0049010350999992014031321004+69567+020100FM-12+071099999V020999999999999999999999999999+99999+99999999999REMSYN04001035 46/// ///// 11009 2//// 333 4/220=
0049010350999992014031322004+69567+020100FM-12+071099999V020999999999999999999999999999+99999+99999999999REMSYN04001035 46/// ///// 11015 2//// 333 4/222=
0049010350999992014031323004+69567+020100FM-12+071099999V020999999999999999999999999999+99999+99999999999REMSYN04001035 46/// ///// 11010 2//// 333 4/223=
0049010350999992014031400004+69567+020100FM-12+071099999V020999999999999999999999999999+99999+99999999999REMSYN04001035 46/// ///// 11010 2//// 333 4/223=
0049010350999992014031401004+69567+020100FM-12+071099999V020999999999999999999999999999+99999+99999999999REMSYN04001035 46/// ///// 11008 2//// 333 4/224=
0049010350999992014031402004+69567+020100FM-12+071099999V020999999999999999999999999999+99999+99999999999REMSYN04001035 46/// ///// 11016 2//// 333 4/224=
0049010350999992014031403004+69567+020100FM-12+071099999V020999999999999999999999999999+99999+99999999999REMSYN04001035 46/// ///// 11024 2//// 333 4/224=
0049010350999992014031404004+69567+020100FM-12+071099999V020999999999999999999999999999+99999+99999999999REMSYN04001035 46/// ///// 11019 2//// 333 4/225=
0049010350999992014031405004+69567+020100FM-12+071099999V020999999999999999999999999999+99999+99999999999REMSYN04001035 46/// ///// 11021 2//// 333 4/226=
0049010350999992014031406004+69567+020100FM-12+071099999V020999999999999999999999999999+99999+99999999999REMSYN04001035 46/// ///// 11024 2//// 333 21028=
0049010350999992014031407004+69567+020100FM-12+071099999V020999999999999999999999999999+99999+99999999999REMSYN04001035 46/// ///// 11023 2//// 333 4/229=
0049010350999992014031409004+69567+020100FM-12+071099999V020999999999999999999999999999+99999+99999999999REMSYN04001035 46/// ///// 11020 2//// 333 4/232=
0049010350999992014031410004+69567+020100FM-12+071099999V020999999999999999999999999999+99999+99999999999REMSYN04001035 46/// ///// 11010 2//// 333 4/233=
0049010350999992014031411004+69567+020100FM-12+071099999V020999999999999999999999999999+99999+99999999999REMSYN04001035 46/// ///// 11014 2//// 333 4/233=
0049010350999992014031412004+69567+020100FM-12+071099999V020999999999999999999999999999+99999+99999999999REMSYN04001035 46/// ///// 11021 2//// 333 4/235=
0049010350999992014031413004+69567+020100FM-12+071099999V020999999999999999999999999999+99999+99999999999REMSYN04001035 46/// ///// 11023 2//// 333 4/238=
0049010350999992014031414004+69567+020100FM-12+071099999V020999999999999999999999999999+99999+99999999999REMSYN04001035 46/// ///// 11028 2//// 333 4/238=
0049010350999992014031415004+69567+020100FM-12+071099999V020999999999999999999999999999+99999+99999999999REMSYN04001035 46/// ///// 11031 2//// 333 4/238=
0049010350999992014031416004+69567+020100FM-12+071099999V020999999999999999999999999999+99999+99999999999REMSYN04001035 46/// ///// 11040 2//// 333 4/236=
