0110010320999992014052221004+69017+019283FM-12+007899999V0209999C999999999999N999999999+02961+01471100521ADDAA103000091MA1999990099111MD1900201+9990REMSYN05801032 46/// /0000 10296 20147 39911 40052 5/020 333 60007=
0110010320999992014052303004+69017+019283FM-12+007899999V0209999C999999999999N999999999+02821+01621100641ADDAA103000091MA1999990099231MD1900181+9990REMSYN05801032 46/// /0000 10282 20162 39923 40064 5/018 333 60007=
