0111010020999992013010100004+80050+016250FM-12+000899999V0201201N024019999999N9999999N1-00201+99999099651ADDMA1999999099571MD1510121+9999REMSYN070AAXX  01001 01002 46/// /1224 11020 2//// 39957 49965 55012 333 91128;
0101010020999992013010101004+80050+016250FM-12+000899999V0201301N026019999999N9999999N1-00241+99999099611ADDMA1999999099531MD1810211+9999REMSYN060AAXX  01011 01002 46/// /1326 11024 2//// 39953 49961 58021;
0101010020999992013010102004+80050+016250FM-12+000899999V0201201N026019999999N9999999N1-00221+99999099671ADDMA1999999099591MD1010001+9999REMSYN060AAXX  01021 01002 46/// /1226 11022 2//// 39959 49967 50000;
0101010020999992013010103004+80050+016250FM-12+000899999V0201201N022019999999N9999999N1-00191+99999099761ADDMA1999999099681MD1010111+9999REMSYN060AAXX  01031 01002 46/// /1222 11019 2//// 39968 49976 50011;
0101010020999992013010104004+80050+016250FM-12+000899999V0201301N024019999999N9999999N1-00211+99999099651ADDMA1999999099571MD1310041+9999REMSYN060AAXX  01041 01002 46/// /1324 11021 2//// 39957 49965 53004;
0101010020999992013010105004+80050+016250FM-12+000899999V0201201N023019999999N9999999N1-00211+99999099661ADDMA1999999099571MD1510011+9999REMSYN060AAXX  01051 01002 46/// /1223 11021 2//// 39957 49966 55001;
0130010020999992013010106004+80050+016250FM-12+000899999V0201201N020019999999N9999999N1-00181+99999099751ADDKA1999N-00251MA1999999099671MD1010001+9999REMSYN076AAXX  01061 01002 46/// /1220 11018 2//// 39967 49975 50000 333 21025 91131;
0101010020999992013010107004+80050+016250FM-12+000899999V0201201N020019999999N9999999N1-00171+99999099831ADDMA1999999099751MD1110181+9999REMSYN060AAXX  01071 01002 46/// /1220 11017 2//// 39975 49983 51018;
0101010020999992013010108004+80050+016250FM-12+000899999V0201201N021019999999N9999999N1-00161+99999099771ADDMA1999999099691MD1310111+9999REMSYN060AAXX  01081 01002 46/// /1221 11016 2//// 39969 49977 53011;
0101010020999992013010109004+80050+016250FM-12+000899999V0201301N018019999999N9999999N1-00211+99999099801ADDMA1999999099721MD1310041+9999REMSYN060AAXX  01091 01002 46/// /1318 11021 2//// 39972 49980 53004;
0101010020999992013010110004+80050+016250FM-12+000899999V0201301N017019999999N9999999N1-00181+99999099841ADDMA1999999099761MD1010011+9999REMSYN060AAXX  01101 01002 46/// /1317 11018 2//// 39976 49984 50001;
0101010020999992013010111004+80050+016250FM-12+000899999V0201201N019019999999N9999999N1-00171+99999099761ADDMA1999999099681MD1510011+9999REMSYN060AAXX  01111 01002 46/// /1219 11017 2//// 39968 49976 55001;
0111010020999992013010112004+80050+016250FM-12+000899999V0201201N016019999999N9999999N1-00151+99999099831ADDMA1999999099751MD1210031+9999REMSYN070AAXX  01121 01002 46/// /1216 11015 2//// 39975 49983 52003 333 91126;
0101010020999992013010113004+80050+016250FM-12+000899999V0201201N015019999999N9999999N1-00121+99999099821ADDMA1999999099741MD1010021+9999REMSYN060AAXX  01131 01002 46/// /1215 11012 2//// 39974 49982 50002;
0101010020999992013010114004+80050+016250FM-12+000899999V0201201N014019999999N9999999N1-00101+99999099821ADDMA1999999099741MD1310051+9999REMSYN060AAXX  01141 01002 46/// /1214 11010 2//// 39974 49982 53005;
0101010020999992013010115004+80050+016250FM-12+000899999V0201201N015019999999N9999999N1-00091+99999099811ADDMA1999999099731MD1410001+9999REMSYN060AAXX  01151 01002 46/// /1215 11009 2//// 39973 49981 54002;
0101010020999992013010116004+80050+016250FM-12+000899999V0201201N018019999999N9999999N1-00091+99999099711ADDMA1999999099631MD1610121+9999REMSYN060AAXX  01161 01002 46/// /1218 11009 2//// 39963 49971 56012;
0101010020999992013010117004+80050+016250FM-12+000899999V0201201N017019999999N9999999N1-00081+99999099781ADDMA1999999099701MD1810031+9999REMSYN060AAXX  01171 01002 46/// /1217 11008 2//// 39970 49978 58003;
0130010020999992013010118004+80050+016250FM-12+000899999V0201201N016019999999N9999999N1-00081+99999099841ADDKA1120M-00081MA1999999099751MD1010021+9999REMSYN076AAXX  01181 01002 46/// /1216 11008 2//// 39975 49984 50002 333 11008 91122;
0101010020999992013010119004+80050+016250FM-12+000899999V0201201N016019999999N9999999N1-00091+99999099841ADDMA1999999099761MD1310131+9999REMSYN060AAXX  01191 01002 46/// /1216 11009 2//// 39976 49984 53013;
0101010020999992013010120004+80050+016250FM-12+000899999V0201201N016019999999N9999999N1-00091+99999099811ADDMA1999999099731MD1510031+9999REMSYN060AAXX  01201 01002 46/// /1216 11009 2//// 39973 49981 55003;
0101010020999992013010121004+80050+016250FM-12+000899999V0201201N016019999999N9999999N1-00061+99999099841ADDMA1999999099761MD1010011+9999REMSYN060AAXX  01211 01002 46/// /1216 11006 2//// 39976 49984 50001;
0101010020999992013010122004+80050+016250FM-12+000899999V0201201N014019999999N9999999N1-00071+99999099861ADDMA1999999099781MD1010021+9999REMSYN060AAXX  01221 01002 46/// /1214 11007 2//// 39978 49986 50002;
0101010020999992013010123004+80050+016250FM-12+000899999V0201201N013019999999N9999999N1-00071+99999099911ADDMA1999999099831MD1210101+9999REMSYN060AAXX  01231 01002 46/// /1213 11007 2//// 39983 49991 52010;
0111010020999992013010200004+80050+016250FM-12+000899999V0201201N015019999999N9999999N1-00071+99999099881ADDMA1999999099791MD1310031+9999REMSYN070AAXX  02001 01002 46/// /1215 11007 2//// 39979 49988 53003 333 91119;
0101010020999992013010201004+80050+016250FM-12+000899999V0201201N015019999999N9999999N1-00111+99999099871ADDMA1999999099791MD1510011+9999REMSYN060AAXX  02011 01002 46/// /1215 11011 2//// 39979 49987 55001;
0101010020999992013010202004+80050+016250FM-12+000899999V0201201N015019999999N9999999N1-00121+99999099851ADDMA1999999099761MD1710061+9999REMSYN060AAXX  02021 01002 46/// /1215 11012 2//// 39976 49985 57006;
0101010020999992013010203004+80050+016250FM-12+000899999V0201101N014019999999N9999999N1-00131+99999099811ADDMA1999999099731MD1710061+9999REMSYN060AAXX  02031 01002 46/// /1114 11013 2//// 39973 49981 57006;
0101010020999992013010207004+80050+016250FM-12+000899999V0201201N015019999999N9999999N1-00051+99999099521ADDMA1999999099441MD1810211+9999REMSYN060AAXX  02071 01002 46/// /1215 11005 2//// 39944 49952 58021;
0101010020999992013010208004+80050+016250FM-12+000899999V0201201N015019999999N9999999N1-00051+99999099521ADDMA1999999099441MD1810111+9999REMSYN060AAXX  02081 01002 46/// /1215 11005 2//// 39944 49952 58011;
0101010020999992013010209004+80050+016250FM-12+000899999V0201201N016019999999N9999999N1-00051+99999099571ADDMA1999999099491MD1010001+9999REMSYN060AAXX  02091 01002 46/// /1216 11005 2//// 39949 49957 50000;
0101010020999992013010210004+80050+016250FM-12+000899999V0201201N017019999999N9999999N1-00041+99999099621ADDMA1999999099541MD1110111+9999REMSYN060AAXX  02101 01002 46/// /1217 11004 2//// 39954 49962 51011;
0101010020999992013010211004+80050+016250FM-12+000899999V0201201N018019999999N9999999N1-00041+99999099581ADDMA1999999099501MD1310061+9999REMSYN060AAXX  02111 01002 46/// /1218 11004 2//// 39950 49958 53006;
0111010020999992013010212004+80050+016250FM-12+000899999V0201301N018019999999N9999999N1-00071+99999099501ADDMA1999999099421MD1510071+9999REMSYN070AAXX  02121 01002 46/// /1318 11007 2//// 39942 49950 55007 333 91121;
0101010020999992013010213004+80050+016250FM-12+000899999V0201201N018019999999N9999999N1-00071+99999099491ADDMA1999999099401MD1710141+9999REMSYN060AAXX  02131 01002 46/// /1218 11007 2//// 39940 49949 57014;
0101010020999992013010214004+80050+016250FM-12+000899999V0201201N015019999999N9999999N1-00051+99999099561ADDMA1999999099481MD1010021+9999REMSYN060AAXX  02141 01002 46/// /1215 11005 2//// 39948 49956 50002;
0101010020999992013010215004+80050+016250FM-12+000899999V0201201N012019999999N9999999N1-00041+99999099611ADDMA1999999099531MD1110101+9999REMSYN060AAXX  02151 01002 46/// /1212 11004 2//// 39953 49961 51010;
0101010020999992013010216004+80050+016250FM-12+000899999V0201101N011019999999N9999999N1-00021+99999099571ADDMA1999999099491MD1310091+9999REMSYN060AAXX  02161 01002 46/// /1111 11002 2//// 39949 49957 53009;
0101010020999992013010217004+80050+016250FM-12+000899999V0201101N011019999999N9999999N1-00051+99999099531ADDMA1999999099451MD1510031+9999REMSYN060AAXX  02171 01002 46/// /1111 11005 2//// 39945 49953 55003;
0130010020999992013010218004+80050+016250FM-12+000899999V0201101N010019999999N9999999N1-00091+99999099461ADDKA1120M-00021MA1999999099371MD1610151+9999REMSYN076AAXX  02181 01002 46/// /1110 11009 2//// 39937 49946 56015 333 11002 91121;
0101010020999992013010219004+80050+016250FM-12+000899999V0201201N012019999999N9999999N1-00101+99999099361ADDMA1999999099281MD1610211+9999REMSYN060AAXX  02191 01002 46/// /1212 11010 2//// 39928 49936 56021;
0101010020999992013010220004+80050+016250FM-12+000899999V0201201N013019999999N9999999N1-00071+99999099311ADDMA1999999099231MD1710221+9999REMSYN060AAXX  02201 01002 46/// /1213 11007 2//// 39923 49931 57022;
0101010020999992013010221004+80050+016250FM-12+000899999V0201201N011019999999N9999999N1-00111+99999099281ADDMA1999999099201MD1810171+9999REMSYN060AAXX  02211 01002 46/// /1211 11011 2//// 39920 49928 58017;
0101010020999992013010222004+80050+016250FM-12+000899999V0201101N009019999999N9999999N1-00121+99999099271ADDMA1999999099191MD1810091+9999REMSYN060AAXX  02221 01002 46/// /1109 11012 2//// 39919 49927 58009;
0101010020999992013010223004+80050+016250FM-12+000899999V0201401N007019999999N9999999N1-00171+99999099261ADDMA1999999099181MD1710051+9999REMSYN060AAXX  02231 01002 46/// /1407 11017 2//// 39918 49926 57005;
0111010020999992013010300004+80050+016250FM-12+000899999V0201401N007019999999N9999999N1-00241+99999099211ADDMA1999999099131MD1610071+9999REMSYN070AAXX  03001 01002 46/// /1407 11024 2//// 39913 49921 56007 333 91115;
0101010020999992013010301004+80050+016250FM-12+000899999V0201501N007019999999N9999999N1-00281+99999099161ADDMA1999999099081MD1610111+9999REMSYN060AAXX  03011 01002 46/// /1507 11028 2//// 39908 49916 56011;
0101010020999992013010302004+80050+016250FM-12+000899999V0201201N009019999999N9999999N1-00151+99999099131ADDMA1999999099051MD1710121+9999REMSYN060AAXX  03021 01002 46/// /1209 11015 2//// 39905 49913 57012;
0101010020999992013010303004+80050+016250FM-12+000899999V0201201N008019999999N9999999N1-00141+99999099121ADDMA1999999099041MD1810081+9999REMSYN060AAXX  03031 01002 46/// /1208 11014 2//// 39904 49912 58008;
0101010020999992013010304004+80050+016250FM-12+000899999V0201201N009019999999N9999999N1-00131+99999099121ADDMA1999999099041MD1710041+9999REMSYN060AAXX  03041 01002 46/// /1209 11013 2//// 39904 49912 57004;
0101010020999992013010305004+80050+016250FM-12+000899999V0201201N009019999999N9999999N1-00141+99999099131ADDMA1999999099051MD1410001+9999REMSYN060AAXX  03051 01002 46/// /1209 11014 2//// 39905 49913 54001;
0130010020999992013010306004+80050+016250FM-12+000899999V0201101N007019999999N9999999N1-00111+99999099151ADDKA1999N-00351MA1999999099071MD1410001+9999REMSYN076AAXX  03061 01002 46/// /1107 11011 2//// 39907 49915 54003 333 21035 91111;
0101010020999992013010308004+80050+016250FM-12+000899999V0201301N006019999999N9999999N1-00181+99999099181ADDMA1999999099101MD1210051+9999REMSYN060AAXX  03081 01002 46/// /1306 11018 2//// 39910 49918 52005;
0101010020999992013010309004+80050+016250FM-12+000899999V0201201N011019999999N9999999N1-00161+99999099191ADDMA1999999099111MD1210031+9999REMSYN060AAXX  03091 01002 46/// /1211 11016 2//// 39911 49919 52003;
0101010020999992013010310004+80050+016250FM-12+000899999V0201201N010019999999N9999999N1-00161+99999099211ADDMA1999999099131MD1210041+9999REMSYN060AAXX  03101 01002 46/// /1210 11016 2//// 39913 49921 52004;
0101010020999992013010311004+80050+016250FM-12+000899999V0201201N010019999999N9999999N1-00131+99999099231ADDMA1999999099151MD1210051+9999REMSYN060AAXX  03111 01002 46/// /1210 11013 2//// 39915 49923 52005;
0111010020999992013010312004+80050+016250FM-12+000899999V0201201N010019999999N9999999N1-00141+99999099271ADDMA1999999099191MD1210091+9999REMSYN070AAXX  03121 01002 46/// /1210 11014 2//// 39919 49927 52009 333 91113;
0101010020999992013010313004+80050+016250FM-12+000899999V0201201N010019999999N9999999N1-00141+99999099341ADDMA1999999099261MD1110131+9999REMSYN060AAXX  03131 01002 46/// /1210 11014 2//// 39926 49934 51013;
0101010020999992013010314004+80050+016250FM-12+000899999V0201301N011019999999N9999999N1-00131+99999099391ADDMA1999999099311MD1210161+9999REMSYN060AAXX  03141 01002 46/// /1311 11013 2//// 39931 49939 52016;
0101010020999992013010315004+80050+016250FM-12+000899999V0201201N014019999999N9999999N1-00141+99999099451ADDMA1999999099371MD1210181+9999REMSYN060AAXX  03151 01002 46/// /1214 11014 2//// 39937 49945 52018;
0101010020999992013010316004+80050+016250FM-12+000899999V0201201N016019999999N9999999N1-00181+99999099501ADDMA1999999099421MD1210161+9999REMSYN060AAXX  03161 01002 46/// /1216 11018 2//// 39942 49950 52016;
0101010020999992013010317004+80050+016250FM-12+000899999V0201301N015019999999N9999999N1-00201+99999099551ADDMA1999999099471MD1210161+9999REMSYN060AAXX  03171 01002 46/// /1315 11020 2//// 39947 49955 52016;
0130010020999992013010318004+80050+016250FM-12+000899999V0201301N017019999999N9999999N1-00191+99999099601ADDKA1120M-00101MA1999999099521MD1210151+9999REMSYN076AAXX  03181 01002 46/// /1317 11019 2//// 39952 49960 52015 333 11010 91121;
0101010020999992013010319004+80050+016250FM-12+000899999V0201301N017019999999N9999999N1-00201+99999099671ADDMA1999999099591MD1210171+9999REMSYN060AAXX  03191 01002 46/// /1317 11020 2//// 39959 49967 52017;
0101010020999992013010320004+80050+016250FM-12+000899999V0201301N017019999999N9999999N1-00241+99999099771ADDMA1999999099691MD1110221+9999REMSYN060AAXX  03201 01002 46/// /1317 11024 2//// 39969 49977 51022;
0101010020999992013010321004+80050+016250FM-12+000899999V0201301N017019999999N9999999N1-00261+99999099811ADDMA1999999099731MD1310211+9999REMSYN060AAXX  03211 01002 46/// /1317 11026 2//// 39973 49981 53021;
0101010020999992013010322004+80050+016250FM-12+000899999V0201301N016019999999N9999999N1-00281+99999099891ADDMA1999999099811MD1210221+9999REMSYN060AAXX  03221 01002 46/// /1316 11028 2//// 39981 49989 52022;
0101010020999992013010323004+80050+016250FM-12+000899999V0201201N014019999999N9999999N1-00291+99999099981ADDMA1999999099901MD1110211+9999REMSYN060AAXX  03231 01002 46/// /1214 11029 2//// 39990 49998 51021;
0111010020999992013010400004+80050+016250FM-12+000899999V0201301N012019999999N9999999N1-00311+99999100011ADDMA1999999099921MD1310201+9999REMSYN070AAXX  04001 01002 46/// /1312 11031 2//// 39992 40001 53020 333 91120;
0101010020999992013010401004+80050+016250FM-12+000899999V0201401N010019999999N9999999N1-00381+99999100041ADDMA1999999099961MD1310151+9999REMSYN060AAXX  04011 01002 46/// /1410 11038 2//// 39996 40004 53015;
0101010020999992013010402004+80050+016250FM-12+000899999V0201301N012019999999N9999999N1-00321+99999100121ADDMA1999999100041MD1110141+9999REMSYN060AAXX  04021 01002 46/// /1312 11032 2//// 30004 40012 51014;
0101010020999992013010403004+80050+016250FM-12+000899999V0201301N012019999999N9999999N1-00341+99999100161ADDMA1999999100081MD1210151+9999REMSYN060AAXX  04031 01002 46/// /1312 11034 2//// 30008 40016 52015;
0101010020999992013010404004+80050+016250FM-12+000899999V0201301N014019999999N9999999N1-00341+99999100211ADDMA1999999100131MD1310171+9999REMSYN060AAXX  04041 01002 46/// /1314 11034 2//// 30013 40021 53017;
0101010020999992013010405004+80050+016250FM-12+000899999V0201201N012019999999N9999999N1-00311+99999100281ADDMA1999999100201MD1210161+9999REMSYN060AAXX  04051 01002 46/// /1212 11031 2//// 30020 40028 52016;
0130010020999992013010406004+80050+016250FM-12+000899999V0201201N012019999999N9999999N1-00321+99999100331ADDKA1999N-00401MA1999999100241MD1210171+9999REMSYN076AAXX  04061 01002 46/// /1212 11032 2//// 30024 40033 52017 333 21040 91115;
0101010020999992013010407004+80050+016250FM-12+000899999V0201201N012019999999N9999999N1-00341+99999100381ADDMA1999999100301MD1210171+9999REMSYN060AAXX  04071 01002 46/// /1212 11034 2//// 30030 40038 52017;
0101010020999992013010408004+80050+016250FM-12+000899999V0201201N011019999999N9999999N1-00371+99999100441ADDMA1999999100361MD1210161+9999REMSYN060AAXX  04081 01002 46/// /1211 11037 2//// 30036 40044 52016;
0101010020999992013010409004+80050+016250FM-12+000899999V0201201N010019999999N9999999N1-00381+99999100501ADDMA1999999100421MD1210171+9999REMSYN060AAXX  04091 01002 46/// /1210 11038 2//// 30042 40050 52017;
0101010020999992013010410004+80050+016250FM-12+000899999V0201201N010019999999N9999999N1-00401+99999100551ADDMA1999999100471MD1210171+9999REMSYN060AAXX  04101 01002 46/// /1210 11040 2//// 30047 40055 52017;
0101010020999992013010411004+80050+016250FM-12+000899999V0201401N007019999999N9999999N1-00801+99999100621ADDMA1999999100541MD1210181+9999REMSYN060AAXX  04111 01002 46/// /1407 11080 2//// 30054 40062 52018;
0111010020999992013010412004+80050+016250FM-12+000899999V0201401N008019999999N9999999N1-00731+99999100681ADDMA1999999100601MD1210181+9999REMSYN070AAXX  04121 01002 46/// /1408 11073 2//// 30060 40068 52018 333 91114;
0101010020999992013010413004+80050+016250FM-12+000899999V0201301N009019999999N9999999N1-00511+99999100711ADDMA1999999100631MD1310161+9999REMSYN060AAXX  04131 01002 46/// /1309 11051 2//// 30063 40071 53016;
0101010020999992013010414004+80050+016250FM-12+000899999V0201401N008019999999N9999999N1-00721+99999100751ADDMA1999999100671MD1210131+9999REMSYN060AAXX  04141 01002 46/// /1408 11072 2//// 30067 40075 52013;
0101010020999992013010415004+80050+016250FM-12+000899999V0201401N009019999999N9999999N1-00681+99999100781ADDMA1999999100701MD1210101+9999REMSYN060AAXX  04151 01002 46/// /1409 11068 2//// 30070 40078 52010;
0101010020999992013010416004+80050+016250FM-12+000899999V0201401N008019999999N9999999N1-00721+99999100841ADDMA1999999100751MD1210131+9999REMSYN060AAXX  04161 01002 46/// /1408 11072 2//// 30075 40084 52013;
0101010020999992013010417004+80050+016250FM-12+000899999V0201401N009019999999N9999999N1-00721+99999100861ADDMA1999999100781MD1210111+9999REMSYN060AAXX  04171 01002 46/// /1409 11072 2//// 30078 40086 52011;
0130010020999992013010418004+80050+016250FM-12+000899999V0201501N008019999999N9999999N1-00761+99999100891ADDKA1120M-00321MA1999999100811MD1210111+9999REMSYN076AAXX  04181 01002 46/// /1508 11076 2//// 30081 40089 52011 333 11032 91110;
0101010020999992013010419004+80050+016250FM-12+000899999V0201501N007019999999N9999999N1-00641+99999100941ADDMA1999999100851MD1210101+9999REMSYN060AAXX  04191 01002 46/// /1507 11064 2//// 30085 40094 52010;
0101010020999992013010420004+80050+016250FM-12+000899999V0201401N006019999999N9999999N1-00721+99999101001ADDMA1999999100911MD1110141+9999REMSYN060AAXX  04201 01002 46/// /1406 11072 2//// 30091 40100 51014;
0101010020999992013010421004+80050+016250FM-12+000899999V0201401N006019999999N9999999N1-00701+99999101041ADDMA1999999100961MD1210151+9999REMSYN060AAXX  04211 01002 46/// /1406 11070 2//// 30096 40104 52015;
0101010020999992013010422004+80050+016250FM-12+000899999V0201401N005019999999N9999999N1-00641+99999101101ADDMA1999999101021MD1210161+9999REMSYN060AAXX  04221 01002 46/// /1405 11064 2//// 30102 40110 52016;
0101010020999992013010423004+80050+016250FM-12+000899999V0201501N005019999999N9999999N1-00601+99999101131ADDMA1999999101051MD1210131+9999REMSYN060AAXX  04231 01002 46/// /1505 11060 2//// 30105 40113 52013;
0111010020999992013010500004+80050+016250FM-12+000899999V0201501N005019999999N9999999N1-00481+99999101161ADDMA1999999101081MD1310121+9999REMSYN070AAXX  05001 01002 46/// /1505 11048 2//// 30108 40116 53012 333 91109;
0101010020999992013010501004+80050+016250FM-12+000899999V0201401N004019999999N9999999N1-00431+99999101191ADDMA1999999101111MD1210091+9999REMSYN060AAXX  05011 01002 46/// /1404 11043 2//// 30111 40119 52009;
0101010020999992013010502004+80050+016250FM-12+000899999V0201401N005019999999N9999999N1-00601+99999101221ADDMA1999999101131MD1210081+9999REMSYN060AAXX  05021 01002 46/// /1405 11060 2//// 30113 40122 52008;
0101010020999992013010503004+80050+016250FM-12+000899999V0201701N005019999999N9999999N1-00671+99999101251ADDMA1999999101171MD1210091+9999REMSYN060AAXX  05031 01002 46/// /1705 11067 2//// 30117 40125 52009;
0101010020999992013010504004+80050+016250FM-12+000899999V0201401N007019999999N9999999N1-00691+99999101251ADDMA1999999101171MD1210061+9999REMSYN060AAXX  05041 01002 46/// /1407 11069 2//// 30117 40125 52006;
0101010020999992013010505004+80050+016250FM-12+000899999V0201401N008019999999N9999999N1-00681+99999101311ADDMA1999999101221MD1210091+9999REMSYN060AAXX  05051 01002 46/// /1408 11068 2//// 30122 40131 52009;
0130010020999992013010506004+80050+016250FM-12+000899999V0201401N003019999999N9999999N1-00481+99999101321ADDKA1999N-00771MA1999999101231MD1210071+9999REMSYN076AAXX  05061 01002 46/// /1403 11048 2//// 30123 40132 52007 333 21077 91109;
0101010020999992013010507004+80050+016250FM-12+000899999V0201301N004019999999N9999999N1-00521+99999101361ADDMA1999999101281MD1210111+9999REMSYN060AAXX  05071 01002 46/// /1304 11052 2//// 30128 40136 52011;
0101010020999992013010508004+80050+016250FM-12+000899999V0201301N004019999999N9999999N1-00601+99999101371ADDMA1999999101281MD1210061+9999REMSYN060AAXX  05081 01002 46/// /1304 11060 2//// 30128 40137 52006;
0101010020999992013010509004+80050+016250FM-12+000899999V0201301N005019999999N9999999N1-00711+99999101401ADDMA1999999101311MD1210081+9999REMSYN060AAXX  05091 01002 46/// /1305 11071 2//// 30131 40140 52008;
0101010020999992013010510004+80050+016250FM-12+000899999V0201301N005019999999N9999999N1-00681+99999101411ADDMA1999999101331MD1210051+9999REMSYN060AAXX  05101 01002 46/// /1305 11068 2//// 30133 40141 52005;
0101010020999992013010511004+80050+016250FM-12+000899999V0201301N006019999999N9999999N1-00621+99999101401ADDMA1999999101311MD1510031+9999REMSYN060AAXX  05111 01002 46/// /1306 11062 2//// 30131 40140 55003;
0111010020999992013010512004+80050+016250FM-12+000899999V0201401N006019999999N9999999N1-00501+99999101391ADDMA1999999101301MD1410001+9999REMSYN070AAXX  05121 01002 46/// /1406 11050 2//// 30130 40139 54001 333 91107;
0101010020999992013010513004+80050+016250FM-12+000899999V0201301N006019999999N9999999N1-00491+99999101351ADDMA1999999101271MD1710061+9999REMSYN060AAXX  05131 01002 46/// /1306 11049 2//// 30127 40135 57006;
0101010020999992013010514004+80050+016250FM-12+000899999V0201301N010019999999N9999999N1-00571+99999101351ADDMA1999999101261MD1710051+9999REMSYN060AAXX  05141 01002 46/// /1310 11057 2//// 30126 40135 57005;
0101010020999992013010515004+80050+016250FM-12+000899999V0201401N010019999999N9999999N1-00521+99999101291ADDMA1999999101201MD1710101+9999REMSYN060AAXX  05151 01002 46/// /1410 11052 2//// 30120 40129 57010;
0101010020999992013010516004+80050+016250FM-12+000899999V0201401N009019999999N9999999N1-00461+99999101211ADDMA1999999101131MD1610141+9999REMSYN060AAXX  05161 01002 46/// /1409 11046 2//// 30113 40121 56014;
0101010020999992013010517004+80050+016250FM-12+000899999V0201401N012019999999N9999999N1-00431+99999101151ADDMA1999999101071MD1710191+9999REMSYN060AAXX  05171 01002 46/// /1412 11043 2//// 30107 40115 57019;
0130010020999992013010518004+80050+016250FM-12+000899999V0201301N008019999999N9999999N1-00421+99999101121ADDKA1120M-00421MA1999999101031MD1810171+9999REMSYN076AAXX  05181 01002 46/// /1308 11042 2//// 30103 40112 58017 333 11042 91113;
0101010020999992013010519004+80050+016250FM-12+000899999V0201401N010019999999N9999999N1-00361+99999101011ADDMA1999999100931MD1610201+9999REMSYN060AAXX  05191 01002 46/// /1410 11036 2//// 30093 40101 56020;
0101010020999992013010520004+80050+016250FM-12+000899999V0201201N010019999999N9999999N1-00341+99999100911ADDMA1999999100831MD1610241+9999REMSYN060AAXX  05201 01002 46/// /1210 11034 2//// 30083 40091 56024;
0101010020999992013010521004+80050+016250FM-12+000899999V0201301N009019999999N9999999N1-00371+99999100791ADDMA1999999100711MD1710331+9999REMSYN060AAXX  05211 01002 46/// /1309 11037 2//// 30071 40079 57033;
0101010020999992013010522004+80050+016250FM-12+000899999V0201301N008019999999N9999999N1-00431+99999100651ADDMA1999999100571MD1610361+9999REMSYN060AAXX  05221 01002 46/// /1308 11043 2//// 30057 40065 56036;
0101010020999992013010523004+80050+016250FM-12+000899999V0201301N013019999999N9999999N1-00291+99999100541ADDMA1999999100461MD1710371+9999REMSYN060AAXX  05231 01002 46/// /1313 11029 2//// 30046 40054 57037;
0111010020999992013010600004+80050+016250FM-12+000899999V0201401N015019999999N9999999N1-00281+99999100391ADDMA1999999100311MD1710401+9999REMSYN070AAXX  06001 01002 46/// /1415 11028 2//// 30031 40039 57040 333 91119;
0101010020999992013010601004+80050+016250FM-12+000899999V0201301N017019999999N9999999N1-00271+99999100231ADDMA1999999100151MD1610421+9999REMSYN060AAXX  06011 01002 46/// /1317 11027 2//// 30015 40023 56042;
0101010020999992013010602004+80050+016250FM-12+000899999V0201401N018019999999N9999999N1-00251+99999100081ADDMA1999999100001MD1710461+9999REMSYN060AAXX  06021 01002 46/// /1418 11025 2//// 30000 40008 57046;
0101010020999992013010603004+80050+016250FM-12+000899999V0201301N017019999999N9999999N1-00291+99999099971ADDMA1999999099881MD1810421+9999REMSYN060AAXX  06031 01002 46/// /1317 11029 2//// 39988 49997 58042;
0101010020999992013010604004+80050+016250FM-12+000899999V0201401N019019999999N9999999N1-00291+99999099751ADDMA1999999099661MD1610481+9999REMSYN060AAXX  06041 01002 46/// /1419 11029 2//// 39966 49975 56048;
0101010020999992013010605004+80050+016250FM-12+000899999V0201401N017019999999N9999999N1-00311+99999099621ADDMA1999999099541MD1710461+9999REMSYN060AAXX  06051 01002 46/// /1417 11031 2//// 39954 49962 57046;
0130010020999992013010606004+80050+016250FM-12+000899999V0201301N020019999999N9999999N1-00251+99999099451ADDKA1999N-00441MA1999999099371MD1810511+9999REMSYN076AAXX  06061 01002 46/// /1320 11025 2//// 39937 49945 58051 333 21044 91123;
0101010020999992013010607004+80050+016250FM-12+000899999V0201301N020019999999N9999999N1-00181+99999099371ADDMA1999999099291MD1810371+9999REMSYN060AAXX  06071 01002 46/// /1320 11018 2//// 39929 49937 58037;
0101010020999992013010609004+80050+016250FM-12+000899999V0201301N018019999999N9999999N1-00041+99999099231ADDMA1999999099151MD1810221+9999REMSYN060AAXX  06091 01002 46/// /1318 11004 2//// 39915 49923 58022;
0101010020999992013010610004+80050+016250FM-12+000899999V0201301N011019999999N9999999N1+00091+99999099271ADDMA1999999099191MD1810101+9999REMSYN060AAXX  06101 01002 46/// /1311 10009 2//// 39919 49927 58010;
0101010020999992013010611004+80050+016250FM-12+000899999V0201401N009019999999N9999999N1+00001+99999099271ADDMA1999999099191MD1010011+9999REMSYN060AAXX  06111 01002 46/// /1409 10000 2//// 39919 49927 50001;
0101010020999992013010612004+80050+016250FM-12+000899999V0201301N010019999999N9999999N1+00021+99999099311ADDMA1999999099231MD1210081+9999REMSYN060AAXX  06121 01002 46/// /1310 10002 2//// 39923 49931 52008;
0101010020999992013010613004+80050+016250FM-12+000899999V0201301N006019999999N9999999N1-00021+99999099301ADDMA1999999099221MD1210031+9999REMSYN060AAXX  06131 01002 46/// /1306 11002 2//// 39922 49930 52003;
0101010020999992013010614004+80050+016250FM-12+000899999V0201401N007019999999N9999999N1-00101+99999099311ADDMA1999999099231MD1310041+9999REMSYN060AAXX  06141 01002 46/// /1407 11010 2//// 39923 49931 53004;
0101010020999992013010615004+80050+016250FM-12+000899999V0201301N006019999999N9999999N1-00091+99999099291ADDMA1999999099211MD1410001+9999REMSYN060AAXX  06151 01002 46/// /1306 11009 2//// 39921 49929 54002;
0101010020999992013010616004+80050+016250FM-12+000899999V0201301N008019999999N9999999N1-00071+99999099231ADDMA1999999099151MD1610071+9999REMSYN060AAXX  06161 01002 46/// /1308 11007 2//// 39915 49923 56007;
0101010020999992013010617004+80050+016250FM-12+000899999V0201201N008019999999N9999999N1-00021+99999099201ADDMA1999999099121MD1710111+9999REMSYN060AAXX  06171 01002 46/// /1208 11002 2//// 39912 49920 57011;
0111010020999992013010618004+80050+016250FM-12+000899999V0201101N006019999999N9999999N1-00041+99999099191ADDMA1999999099111MD1810091+9999REMSYN070AAXX  06181 01002 46/// /1106 11004 2//// 39911 49919 58009 333 91111;
0101010020999992013010619004+80050+016250FM-12+000899999V0201301N006019999999N9999999N1-00071+99999099161ADDMA1999999099081MD1710071+9999REMSYN060AAXX  06191 01002 46/// /1306 11007 2//// 39908 49916 57007;
0101010020999992013010620004+80050+016250FM-12+000899999V0201201N004019999999N9999999N1-00081+99999099131ADDMA1999999099051MD1710071+9999REMSYN060AAXX  06201 01002 46/// /1204 11008 2//// 39905 49913 57007;
0101010020999992013010621004+80050+016250FM-12+000899999V0201201N005019999999N9999999N1-00081+99999099101ADDMA1999999099021MD1710101+9999REMSYN060AAXX  06211 01002 46/// /1205 11008 2//// 39902 49910 57010;
0101010020999992013010622004+80050+016250FM-12+000899999V0201401N004019999999N9999999N1-00091+99999099071ADDMA1999999098991MD1710081+9999REMSYN060AAXX  06221 01002 46/// /1404 11009 2//// 39899 49907 57008;
0101010020999992013010623004+80050+016250FM-12+000899999V0201301N003019999999N9999999N1-00081+99999099041ADDMA1999999098961MD1710091+9999REMSYN060AAXX  06231 01002 46/// /1303 11008 2//// 39896 49904 57009;
0111010020999992013010700004+80050+016250FM-12+000899999V0201501N002019999999N9999999N1-00011+99999099001ADDMA1999999098921MD1710101+9999REMSYN070AAXX  07001 01002 46/// /1502 11001 2//// 39892 49900 57010 333 91108;
0101010020999992013010701004+80050+016250FM-12+000899999V0202001N005019999999N9999999N1-00021+99999098981ADDMA1999999098901MD1710091+9999REMSYN060AAXX  07011 01002 46/// /2005 11002 2//// 39890 49898 57009;
0101010020999992013010702004+80050+016250FM-12+000899999V0202401N006019999999N9999999N1+00011+99999098951ADDMA1999999098871MD1710091+9999REMSYN060AAXX  07021 01002 46/// /2406 10001 2//// 39887 49895 57009;
0101010020999992013010703004+80050+016250FM-12+000899999V0202401N008019999999N9999999N1+00001+99999098941ADDMA1999999098861MD1710051+9999REMSYN060AAXX  07031 01002 46/// /2408 10000 2//// 39886 49894 57005;
0101010020999992013010704004+80050+016250FM-12+000899999V0202401N008019999999N9999999N1+00001+99999098931ADDMA1999999098851MD1710051+9999REMSYN060AAXX  07041 01002 46/// /2408 10000 2//// 39885 49893 57005;
0101010020999992013010705004+80050+016250FM-12+000899999V0202401N008019999999N9999999N1+00001+99999098941ADDMA1999999098861MD1410001+9999REMSYN060AAXX  07051 01002 46/// /2408 10000 2//// 39886 49894 54001;
0130010020999992013010706004+80050+016250FM-12+000899999V0202401N006019999999N9999999N1+00001+99999098981ADDKA1999N-00131MA1999999098901MD1110031+9999REMSYN076AAXX  07061 01002 46/// /2406 10000 2//// 39890 49898 51003 333 21013 91109;
0101010020999992013010707004+80050+016250FM-12+000899999V0202601N007019999999N9999999N1+00011+99999099011ADDMA1999999098931MD1210081+9999REMSYN060AAXX  07071 01002 46/// /2607 10001 2//// 39893 49901 52008;
0101010020999992013010708004+80050+016250FM-12+000899999V0202401N006019999999N9999999N1-00021+99999099031ADDMA1999999098951MD1210091+9999REMSYN060AAXX  07081 01002 46/// /2406 11002 2//// 39895 49903 52009;
0101010020999992013010709004+80050+016250FM-12+000899999V0202401N005019999999N9999999N1-00021+99999099041ADDMA1999999098961MD1210061+9999REMSYN060AAXX  07091 01002 46/// /2405 11002 2//// 39896 49904 52006;
0101010020999992013010710004+80050+016250FM-12+000899999V0202301N010019999999N9999999N1+00011+99999099041ADDMA1999999098961MD1410001+9999REMSYN060AAXX  07101 01002 46/// /2310 10001 2//// 39896 49904 54003;
0101010020999992013010711004+80050+016250FM-12+000899999V0202101N010019999999N9999999N1-00111+99999099091ADDMA1999999099011MD1110061+9999REMSYN060AAXX  07111 01002 46/// /2110 11011 2//// 39901 49909 51006;
0111010020999992013010712004+80050+016250FM-12+000899999V0202101N005019999999N9999999N1-00251+99999099111ADDMA1999999099031MD1210071+9999REMSYN070AAXX  07121 01002 46/// /2105 11025 2//// 39903 49911 52007 333 91112;
0101010020999992013010713004+80050+016250FM-12+000899999V0202001N007019999999N9999999N1-00301+99999099101ADDMA1999999099021MD1310061+9999REMSYN060AAXX  07131 01002 46/// /2007 11030 2//// 39902 49910 53006;
0101010020999992013010714004+80050+016250FM-12+000899999V0201801N007019999999N9999999N1-00301+99999099111ADDMA1999999099031MD1410001+9999REMSYN060AAXX  07141 01002 46/// /1807 11030 2//// 39903 49911 54002;
0101010020999992013010715004+80050+016250FM-12+000899999V0202301N004019999999N9999999N1-00281+99999099151ADDMA1999999099071MD1110041+9999REMSYN060AAXX  07151 01002 46/// /2304 11028 2//// 39907 49915 51004;
0101010020999992013010716004+80050+016250FM-12+000899999V0202901N008019999999N9999999N1-00131+99999099161ADDMA1999999099081MD1210061+9999REMSYN060AAXX  07161 01002 46/// /2908 11013 2//// 39908 49916 52006;
0101010020999992013010717004+80050+016250FM-12+000899999V0202901N010019999999N9999999N1-00171+99999099211ADDMA1999999099131MD1210101+9999REMSYN060AAXX  07171 01002 46/// /2910 11017 2//// 39913 49921 52010;
0130010020999992013010718004+80050+016250FM-12+000899999V0202801N012019999999N9999999N1-00311+99999099301ADDKA1120M+00031MA1999999099221MD1110151+9999REMSYN076AAXX  07181 01002 46/// /2812 11031 2//// 39922 49930 51015 333 10003 91114;
0101010020999992013010719004+80050+016250FM-12+000899999V0202901N009019999999N9999999N1-00301+99999099361ADDMA1999999099281MD1210211+9999REMSYN060AAXX  07191 01002 46/// /2909 11030 2//// 39928 49936 52021;
0101010020999992013010720004+80050+016250FM-12+000899999V0202601N007019999999N9999999N1-00361+99999099481ADDMA1999999099391MD1210271+9999REMSYN060AAXX  07201 01002 46/// /2607 11036 2//// 39939 49948 52027;
0101010020999992013010721004+80050+016250FM-12+000899999V0202801N007019999999N9999999N1-00391+99999099521ADDMA1999999099441MD1210211+9999REMSYN060AAXX  07211 01002 46/// /2807 11039 2//// 39944 49952 52021;
0101010020999992013010722004+80050+016250FM-12+000899999V0202501N008019999999N9999999N1-00421+99999099551ADDMA1999999099471MD1310191+9999REMSYN060AAXX  07221 01002 46/// /2508 11042 2//// 39947 49955 53019;
0101010020999992013010723004+80050+016250FM-12+000899999V0202501N008019999999N9999999N1-00511+99999099631ADDMA1999999099551MD1110161+9999REMSYN060AAXX  07231 01002 46/// /2508 11051 2//// 39955 49963 51016;
0111010020999992013010800004+80050+016250FM-12+000899999V0202501N008019999999N9999999N1-00471+99999099671ADDMA1999999099591MD1210151+9999REMSYN070AAXX  08001 01002 46/// /2508 11047 2//// 39959 49967 52015 333 91112;
0101010020999992013010801004+80050+016250FM-12+000899999V0202501N009019999999N9999999N1-00551+99999099721ADDMA1999999099641MD1210171+9999REMSYN060AAXX  08011 01002 46/// /2509 11055 2//// 39964 49972 52017;
0101010020999992013010802004+80050+016250FM-12+000899999V0202501N008019999999N9999999N1-00501+99999099761ADDMA1999999099681MD1210131+9999REMSYN060AAXX  08021 01002 46/// /2508 11050 2//// 39968 49976 52013;
0101010020999992013010803004+80050+016250FM-12+000899999V0202501N009019999999N9999999N1-00491+99999099801ADDMA1999999099721MD1210131+9999REMSYN060AAXX  08031 01002 46/// /2509 11049 2//// 39972 49980 52013;
0101010020999992013010804004+80050+016250FM-12+000899999V0202501N008019999999N9999999N1-00491+99999099831ADDMA1999999099751MD1210111+9999REMSYN060AAXX  08041 01002 46/// /2508 11049 2//// 39975 49983 52011;
0101010020999992013010805004+80050+016250FM-12+000899999V0202401N008019999999N9999999N1-00501+99999099861ADDMA1999999099781MD1210101+9999REMSYN060AAXX  08051 01002 46/// /2408 11050 2//// 39978 49986 52010;
0130010020999992013010806004+80050+016250FM-12+000899999V0202201N007019999999N9999999N1-00511+99999099911ADDKA1999N-00551MA1999999099831MD1210111+9999REMSYN076AAXX  08061 01002 46/// /2207 11051 2//// 39983 49991 52011 333 21055 91112;
0101010020999992013010807004+80050+016250FM-12+000899999V0202301N008019999999N9999999N1-00571+99999099991ADDMA1999999099901MD1110161+9999REMSYN060AAXX  08071 01002 46/// /2308 11057 2//// 39990 49999 51016;
0101010020999992013010808004+80050+016250FM-12+000899999V0202301N008019999999N9999999N1-00521+99999100011ADDMA1999999099931MD1210151+9999REMSYN060AAXX  08081 01002 46/// /2308 11052 2//// 39993 40001 52015;
0101010020999992013010809004+80050+016250FM-12+000899999V0203101N009019999999N9999999N1-00581+99999100111ADDMA1999999100031MD1210201+9999REMSYN060AAXX  08091 01002 46/// /3109 11058 2//// 30003 40011 52020;
0101010020999992013010810004+80050+016250FM-12+000899999V0203001N009019999999N9999999N1-00611+99999100221ADDMA1999999100141MD1110231+9999REMSYN060AAXX  08101 01002 46/// /3009 11061 2//// 30014 40022 51023;
0101010020999992013010811004+80050+016250FM-12+000899999V0203101N009019999999N9999999N1-00661+99999100281ADDMA1999999100191MD1310261+9999REMSYN060AAXX  08111 01002 46/// /3109 11066 2//// 30019 40028 53026;
0111010020999992013010812004+80050+016250FM-12+000899999V0203001N008019999999N9999999N1-00671+99999100351ADDMA1999999100271MD1310241+9999REMSYN070AAXX  08121 01002 46/// /3008 11067 2//// 30027 40035 53024 333 91112;
0101010020999992013010814004+80050+016250FM-12+000899999V0202901N008019999999N9999999N1-00681+99999100471ADDMA1999999100391MD1210191+9999REMSYN060AAXX  08141 01002 46/// /2908 11068 2//// 30039 40047 52019;
0101010020999992013010815004+80050+016250FM-12+000899999V0203001N009019999999N9999999N1-00681+99999100561ADDMA1999999100481MD1110211+9999REMSYN060AAXX  08151 01002 46/// /3009 11068 2//// 30048 40056 51021;
0101010020999992013010816004+80050+016250FM-12+000899999V0203101N008019999999N9999999N1-00701+99999100651ADDMA1999999100561MD1210251+9999REMSYN060AAXX  08161 01002 46/// /3108 11070 2//// 30056 40065 52025;
0101010020999992013010817004+80050+016250FM-12+000899999V0203001N008019999999N9999999N1-00701+99999100721ADDMA1999999100641MD1210251+9999REMSYN060AAXX  08171 01002 46/// /3008 11070 2//// 30064 40072 52025;
0101010020999992013010818004+80050+016250FM-12+000899999V0203001N007019999999N9999999N1-00681+99999100791ADDMA1999999100711MD1210231+9999REMSYN060AAXX  08181 01002 46/// /3007 11068 2//// 30071 40079 52023;
0101010020999992013010819004+80050+016250FM-12+000899999V0203001N008019999999N9999999N1-00631+99999100851ADDMA1999999100761MD1210201+9999REMSYN060AAXX  08191 01002 46/// /3008 11063 2//// 30076 40085 52020;
0101010020999992013010821004+80050+016250FM-12+000899999V0203001N006019999999N9999999N1-00641+99999100981ADDMA1999999100891MD1210191+9999REMSYN060AAXX  08211 01002 46/// /3006 11064 2//// 30089 40098 52019;
0101010020999992013010823004+80050+016250FM-12+000899999V0203201N006019999999N9999999N1-00701+99999101111ADDMA1999999101031MD1210181+9999REMSYN060AAXX  08231 01002 46/// /3206 11070 2//// 30103 40111 52018;
0111010020999992013010900004+80050+016250FM-12+000899999V0203101N006019999999N9999999N1-00671+99999101151ADDMA1999999101061MD1310171+9999REMSYN070AAXX  09001 01002 46/// /3106 11067 2//// 30106 40115 53017 333 91110;
0101010020999992013010901004+80050+016250FM-12+000899999V0203001N007019999999N9999999N1-00701+99999101171ADDMA1999999101091MD1310121+9999REMSYN060AAXX  09011 01002 46/// /3007 11070 2//// 30109 40117 53012;
0101010020999992013010902004+80050+016250FM-12+000899999V0203001N006019999999N9999999N1-00701+99999101181ADDMA1999999101091MD1210071+9999REMSYN060AAXX  09021 01002 46/// /3006 11070 2//// 30109 40118 52007;
0101010020999992013010903004+80050+016250FM-12+000899999V0202901N004019999999N9999999N1-00691+99999101181ADDMA1999999101101MD1210041+9999REMSYN060AAXX  09031 01002 46/// /2904 11069 2//// 30110 40118 52004;
0101010020999992013010904004+80050+016250FM-12+000899999V0202701N004019999999N9999999N1-00671+99999101211ADDMA1999999101121MD1210041+9999REMSYN060AAXX  09041 01002 46/// /2704 11067 2//// 30112 40121 52004;
0101010020999992013010905004+80050+016250FM-12+000899999V0202501N007019999999N9999999N1-00631+99999101191ADDMA1999999101111MD1410001+9999REMSYN060AAXX  09051 01002 46/// /2507 11063 2//// 30111 40119 54002;
0130010020999992013010906004+80050+016250FM-12+000899999V0202601N005019999999N9999999N1-00631+99999101191ADDKA1999N-00751MA1999999101101MD1510011+9999REMSYN076AAXX  09061 01002 46/// /2605 11063 2//// 30110 40119 55001 333 21075 91109;
0101010020999992013010907004+80050+016250FM-12+000899999V0202401N005019999999N9999999N1-00641+99999101201ADDMA1999999101111MD1410001+9999REMSYN060AAXX  09071 01002 46/// /2405 11064 2//// 30111 40120 54001;
0101010020999992013010908004+80050+016250FM-12+000899999V0202001N006019999999N9999999N1-00801+99999101201ADDMA1999999101121MD1410001+9999REMSYN060AAXX  09081 01002 46/// /2006 11080 2//// 30112 40120 54001;
0101010020999992013010909004+80050+016250FM-12+000899999V0201701N006019999999N9999999N1-00921+99999101171ADDMA1999999101081MD1510021+9999REMSYN060AAXX  09091 01002 46/// /1706 11092 2//// 30108 40117 55002;
0101010020999992013010910004+80050+016250FM-12+000899999V0201701N008019999999N9999999N1-00961+99999101131ADDMA1999999101051MD1610071+9999REMSYN060AAXX  09101 01002 46/// /1708 11096 2//// 30105 40113 56007;
0101010020999992013010911004+80050+016250FM-12+000899999V0201601N005019999999N9999999N1-00921+99999101131ADDMA1999999101041MD1710071+9999REMSYN060AAXX  09111 01002 46/// /1605 11092 2//// 30104 40113 57007;
0111010020999992013010912004+80050+016250FM-12+000899999V0201601N004019999999N9999999N1-00801+99999101091ADDMA1999999101001MD1710081+9999REMSYN070AAXX  09121 01002 46/// /1604 11080 2//// 30100 40109 57008 333 91109;
0101010020999992013010913004+80050+016250FM-12+000899999V0201501N006019999999N9999999N1-00971+99999101001ADDMA1999999100911MD1610131+9999REMSYN060AAXX  09131 01002 46/// /1506 11097 2//// 30091 40100 56013;
0101010020999992013010914004+80050+016250FM-12+000899999V0201401N004019999999N9999999N1-00751+99999100991ADDMA1999999100901MD1710141+9999REMSYN060AAXX  09141 01002 46/// /1404 11075 2//// 30090 40099 57014;
0101010020999992013010915004+80050+016250FM-12+000899999V0201401N005019999999N9999999N1-00791+99999100931ADDMA1999999100841MD1710161+9999REMSYN060AAXX  09151 01002 46/// /1405 11079 2//// 30084 40093 57016;
0101010020999992013010916004+80050+016250FM-12+000899999V0201701N007019999999N9999999N1-00571+99999100851ADDMA1999999100771MD1610151+9999REMSYN060AAXX  09161 01002 46/// /1707 11057 2//// 30077 40085 56015;
0101010020999992013010917004+80050+016250FM-12+000899999V0201901N008019999999N9999999N1-00541+99999100791ADDMA1999999100711MD1710191+9999REMSYN060AAXX  09171 01002 46/// /1908 11054 2//// 30071 40079 57019;
0130010020999992013010918004+80050+016250FM-12+000899999V0201701N006019999999N9999999N1-00511+99999100791ADDKA1120M-00461MA1999999100701MD1810141+9999REMSYN076AAXX  09181 01002 46/// /1706 11051 2//// 30070 40079 58014 333 11046 91109;
0101010020999992013010919004+80050+016250FM-12+000899999V0202101N006019999999N9999999N1-00281+99999100821ADDMA1999999100741MD1010031+9999REMSYN060AAXX  09191 01002 46/// /2106 11028 2//// 30074 40082 50003;
0101010020999992013010920004+80050+016250FM-12+000899999V0202101N010019999999N9999999N1-00161+99999100821ADDMA1999999100731MD1410001+9999REMSYN060AAXX  09201 01002 46/// /2110 11016 2//// 30073 40082 54003;
0101010020999992013010921004+80050+016250FM-12+000899999V0202401N011019999999N9999999N1-00031+99999100831ADDMA1999999100751MD1210041+9999REMSYN060AAXX  09211 01002 46/// /2411 11003 2//// 30075 40083 52004;
0101010020999992013010922004+80050+016250FM-12+000899999V0202501N010019999999N9999999N1-00021+99999100851ADDMA1999999100771MD1210031+9999REMSYN060AAXX  09221 01002 46/// /2510 11002 2//// 30077 40085 52003;
0101010020999992013010923004+80050+016250FM-12+000899999V0202301N009019999999N9999999N1-00041+99999100791ADDMA1999999100711MD1510021+9999REMSYN060AAXX  09231 01002 46/// /2309 11004 2//// 30071 40079 55002;
0111010020999992013011000004+80050+016250FM-12+000899999V0202301N008019999999N9999999N1-00101+99999100821ADDMA1999999100731MD1410001+9999REMSYN070AAXX  10001 01002 46/// /2308 11010 2//// 30073 40082 54001 333 91113;
0101010020999992013011001004+80050+016250FM-12+000899999V0202701N006019999999N9999999N1-00061+99999100831ADDMA1999999100751MD1010021+9999REMSYN060AAXX  10011 01002 46/// /2706 11006 2//// 30075 40083 50002;
0101010020999992013011002004+80050+016250FM-12+000899999V0202301N008019999999N9999999N1-00041+99999100851ADDMA1999999100771MD1210061+9999REMSYN060AAXX  10021 01002 46/// /2308 11004 2//// 30077 40085 52006;
0101010020999992013011003004+80050+016250FM-12+000899999V0202801N005019999999N9999999N1-00031+99999100851ADDMA1999999100771MD1210041+9999REMSYN060AAXX  10031 01002 46/// /2805 11003 2//// 30077 40085 52004;
0101010020999992013011004004+80050+016250FM-12+000899999V0202401N005019999999N9999999N1-00091+99999100781ADDMA1999999100701MD1610051+9999REMSYN060AAXX  10041 01002 46/// /2405 11009 2//// 30070 40078 56005;
0101010020999992013011005004+80050+016250FM-12+000899999V0202101N010019999999N9999999N1-00161+99999100731ADDMA1999999100641MD1610121+9999REMSYN060AAXX  10051 01002 46/// /2110 11016 2//// 30064 40073 56012;
0130010020999992013011006004+80050+016250FM-12+000899999V0202301N010019999999N9999999N1-00031+99999100661ADDKA1999N-00511MA1999999100571MD1710201+9999REMSYN076AAXX  10061 01002 46/// /2310 11003 2//// 30057 40066 57020 333 21051 91113;
0101010020999992013011007004+80050+016250FM-12+000899999V0202301N011019999999N9999999N1-00061+99999100601ADDMA1999999100521MD1710181+9999REMSYN060AAXX  10071 01002 46/// /2311 11006 2//// 30052 40060 57018;
0101010020999992013011008004+80050+016250FM-12+000899999V0202401N012019999999N9999999N1-00031+99999100581ADDMA1999999100501MD1810151+9999REMSYN060AAXX  10081 01002 46/// /2412 11003 2//// 30050 40058 58015;
0101010020999992013011009004+80050+016250FM-12+000899999V0202501N013019999999N9999999N1-00011+99999100511ADDMA1999999100431MD1710141+9999REMSYN060AAXX  10091 01002 46/// /2513 11001 2//// 30043 40051 57014;
0101010020999992013011010004+80050+016250FM-12+000899999V0202701N012019999999N9999999N1-00071+99999100441ADDMA1999999100361MD1610161+9999REMSYN060AAXX  10101 01002 46/// /2712 11007 2//// 30036 40044 56016;
0101010020999992013011011004+80050+016250FM-12+000899999V0202801N011019999999N9999999N1-00081+99999100381ADDMA1999999100301MD1710201+9999REMSYN060AAXX  10111 01002 46/// /2811 11008 2//// 30030 40038 57020;
0111010020999992013011012004+80050+016250FM-12+000899999V0202801N009019999999N9999999N1-00081+99999100301ADDMA1999999100221MD1710211+9999REMSYN070AAXX  10121 01002 46/// /2809 11008 2//// 30022 40030 57021 333 91117;
0101010020999992013011013004+80050+016250FM-12+000899999V0202801N007019999999N9999999N1-00051+99999100231ADDMA1999999100151MD1710211+9999REMSYN060AAXX  10131 01002 46/// /2807 11005 2//// 30015 40023 57021;
0101010020999992013011014004+80050+016250FM-12+000899999V0202701N006019999999N9999999N1-00021+99999100171ADDMA1999999100091MD1710211+9999REMSYN060AAXX  10141 01002 46/// /2706 11002 2//// 30009 40017 57021;
0101010020999992013011015004+80050+016250FM-12+000899999V0202501N003019999999N9999999N1-00031+99999100081ADDMA1999999100001MD1710231+9999REMSYN060AAXX  10151 01002 46/// /2503 11003 2//// 30000 40008 57023;
0101010020999992013011016004+80050+016250FM-12+000899999V0202601N005019999999N9999999N1+00001+99999099951ADDMA1999999099871MD1610281+9999REMSYN060AAXX  10161 01002 46/// /2605 10000 2//// 39987 49995 56028;
0101010020999992013011017004+80050+016250FM-12+000899999V0202401N003019999999N9999999N1-00021+99999099811ADDMA1999999099731MD1610361+9999REMSYN060AAXX  10171 01002 46/// /2403 11002 2//// 39973 49981 56036;
0130010020999992013011018004+80050+016250FM-12+000899999V0202401N006019999999N9999999N1+00061+99999099731ADDKA1120M+00091MA1999999099651MD1810341+9999REMSYN076AAXX  10181 01002 46/// /2406 10006 2//// 39965 49973 58034 333 10009 91109;
0101010020999992013011019004+80050+016250FM-12+000899999V0202101N006019999999N9999999N1+00001+99999099611ADDMA1999999099531MD1710341+9999REMSYN060AAXX  10191 01002 46/// /2106 10000 2//// 39953 49961 57034;
0101010020999992013011020004+80050+016250FM-12+000899999V0202201N004019999999N9999999N1+00031+99999099451ADDMA1999999099371MD1610361+9999REMSYN060AAXX  10201 01002 46/// /2204 10003 2//// 39937 49945 56036;
0101010020999992013011021004+80050+016250FM-12+000899999V0201601N003019999999N9999999N1-00111+99999099321ADDMA1999999099231MD1710421+9999REMSYN060AAXX  10211 01002 46/// /1603 11011 2//// 39923 49932 57042;
0101010020999992013011022004+80050+016250FM-12+000899999V0202101N012019999999N9999999N1+00071+99999099071ADDMA1999999098991MD1610531+9999REMSYN060AAXX  10221 01002 46/// /2112 10007 2//// 39899 49907 56053;
0101010020999992013011023004+80050+016250FM-12+000899999V0202101N011019999999N9999999N1+00051+99999098901ADDMA1999999098821MD1610551+9999REMSYN060AAXX  10231 01002 46/// /2111 10005 2//// 39882 49890 56055;
0111010020999992013011100004+80050+016250FM-12+000899999V0202201N014019999999N9999999N1+00131+99999098861ADDMA1999999098781MD1810451+9999REMSYN070AAXX  11001 01002 46/// /2214 10013 2//// 39878 49886 58045 333 91117;
0101010020999992013011101004+80050+016250FM-12+000899999V0202401N012019999999N9999999N1+00121+99999098821ADDMA1999999098741MD1810261+9999REMSYN060AAXX  11011 01002 46/// /2412 10012 2//// 39874 49882 58026;
0101010020999992013011102004+80050+016250FM-12+000899999V0202601N013019999999N9999999N1+00061+99999098771ADDMA1999999098691MD1710131+9999REMSYN060AAXX  11021 01002 46/// /2613 10006 2//// 39869 49877 57013;
0101010020999992013011103004+80050+016250FM-12+000899999V0202701N018019999999N9999999N1-00081+99999098781ADDMA1999999098701MD1810081+9999REMSYN060AAXX  11031 01002 46/// /2718 11008 2//// 39870 49878 58008;
0101010020999992013011104004+80050+016250FM-12+000899999V0202701N020019999999N9999999N1-00351+99999098831ADDMA1999999098751MD1010011+9999REMSYN060AAXX  11041 01002 46/// /2720 11035 2//// 39875 49883 50001;
0101010020999992013011105004+80050+016250FM-12+000899999V0202601N018019999999N9999999N1-00501+99999098981ADDMA1999999098891MD1110201+9999REMSYN060AAXX  11051 01002 46/// /2618 11050 2//// 39889 49898 51020;
0130010020999992013011106004+80050+016250FM-12+000899999V0202701N016019999999N9999999N1-00541+99999099081ADDKA1999N-00551MA1999999099001MD1110301+9999REMSYN076AAXX  11061 01002 46/// /2716 11054 2//// 39900 49908 51030 333 21055 91124;
0101010020999992013011107004+80050+016250FM-12+000899999V0202601N018019999999N9999999N1-00591+99999099081ADDMA1999999099001MD1310241+9999REMSYN060AAXX  11071 01002 46/// /2618 11059 2//// 39900 49908 53024;
0101010020999992013011108004+80050+016250FM-12+000899999V0202601N019019999999N9999999N1-00641+99999099171ADDMA1999999099091MD1210201+9999REMSYN060AAXX  11081 01002 46/// /2619 11064 2//// 39909 49917 52020;
0101010020999992013011109004+80050+016250FM-12+000899999V0202501N020019999999N9999999N1-00621+99999099111ADDMA1999999099021MD1510021+9999REMSYN060AAXX  11091 01002 46/// /2520 11062 2//// 39902 49911 55002;
0101010020999992013011110004+80050+016250FM-12+000899999V0202801N021019999999N9999999N1-00621+99999099121ADDMA1999999099041MD1310041+9999REMSYN060AAXX  11101 01002 46/// /2821 11062 2//// 39904 49912 53004;
0101010020999992013011111004+80050+016250FM-12+000899999V0202801N021019999999N9999999N1-00781+99999099191ADDMA1999999099111MD1010021+9999REMSYN060AAXX  11111 01002 46/// /2821 11078 2//// 39911 49919 50002;
0111010020999992013011112004+80050+016250FM-12+000899999V0202701N021019999999N9999999N1-00811+99999099241ADDMA1999999099161MD1110131+9999REMSYN070AAXX  11121 01002 46/// /2721 11081 2//// 39916 49924 51013 333 91126;
0101010020999992013011113004+80050+016250FM-12+000899999V0202701N021019999999N9999999N1-00791+99999099321ADDMA1999999099241MD1210201+9999REMSYN060AAXX  11131 01002 46/// /2721 11079 2//// 39924 49932 52020;
0101010020999992013011114004+80050+016250FM-12+000899999V0202601N020019999999N9999999N1-00751+99999099341ADDMA1999999099261MD1310151+9999REMSYN060AAXX  11141 01002 46/// /2620 11075 2//// 39926 49934 53015;
0101010020999992013011115004+80050+016250FM-12+000899999V0202701N020019999999N9999999N1-00711+99999099391ADDMA1999999099301MD1310151+9999REMSYN060AAXX  11151 01002 46/// /2720 11071 2//// 39930 49939 53015;
0101010020999992013011116004+80050+016250FM-12+000899999V0202701N021019999999N9999999N1-00751+99999099421ADDMA1999999099341MD1210101+9999REMSYN060AAXX  11161 01002 46/// /2721 11075 2//// 39934 49942 52010;
0101010020999992013011117004+80050+016250FM-12+000899999V0202701N017019999999N9999999N1-00671+99999099521ADDMA1999999099431MD1110181+9999REMSYN060AAXX  11171 01002 46/// /2717 11067 2//// 39943 49952 51018;
0130010020999992013011118004+80050+016250FM-12+000899999V0202501N018019999999N9999999N1-00611+99999099501ADDKA1120M-00551MA1999999099411MD1310111+9999REMSYN076AAXX  11181 01002 46/// /2518 11061 2//// 39941 49950 53011 333 11055 91125;
0101010020999992013011119004+80050+016250FM-12+000899999V0203301N010019999999N9999999N1-00601+99999099791ADDMA1999999099711MD1110371+9999REMSYN060AAXX  11191 01002 46/// /3310 11060 2//// 39971 49979 51037;
0101010020999992013011120004+80050+016250FM-12+000899999V0203501N005019999999N9999999N1-00611+99999100011ADDMA1999999099931MD1110491+9999REMSYN060AAXX  11201 01002 46/// /3505 11061 2//// 39993 40001 51049;
0101010020999992013011121004+80050+016250FM-12+000899999V0200301N006019999999N9999999N1-00521+99999100201ADDMA1999999100111MD1310701+9999REMSYN060AAXX  11211 01002 46/// /0306 11052 2//// 30011 40020 53070;
0101010020999992013011122004+80050+016250FM-12+000899999V0200401N006019999999N9999999N1-00441+99999100371ADDMA1999999100281MD1310581+9999REMSYN060AAXX  11221 01002 46/// /0406 11044 2//// 30028 40037 53058;
0101010020999992013011123004+80050+016250FM-12+000899999V0200601N009019999999N9999999N1-00461+99999100531ADDMA1999999100451MD1210531+9999REMSYN060AAXX  11231 01002 46/// /0609 11046 2//// 30045 40053 52053;
0101010020999992013011201004+80050+016250FM-12+000899999V0200501N006019999999N9999999N1-00561+99999100781ADDMA1999999100691MD1310411+9999REMSYN060AAXX  12011 01002 46/// /0506 11056 2//// 30069 40078 53041;
0101010020999992013011202004+80050+016250FM-12+000899999V0200301N008019999999N9999999N1-00521+99999100881ADDMA1999999100801MD1310341+9999REMSYN060AAXX  12021 01002 46/// /0308 11052 2//// 30080 40088 53034;
0101010020999992013011203004+80050+016250FM-12+000899999V0200301N010019999999N9999999N1-00571+99999101001ADDMA1999999100921MD1110301+9999REMSYN060AAXX  12031 01002 46/// /0310 11057 2//// 30092 40100 51030;
0101010020999992013011204004+80050+016250FM-12+000899999V0200101N011019999999N9999999N1-00601+99999101121ADDMA1999999101031MD1210341+9999REMSYN060AAXX  12041 01002 46/// /0111 11060 2//// 30103 40112 52034;
0101010020999992013011205004+80050+016250FM-12+000899999V0200201N009019999999N9999999N1-00661+99999101191ADDMA1999999101111MD1310311+9999REMSYN060AAXX  12051 01002 46/// /0209 11066 2//// 30111 40119 53031;
0111010020999992013011206004+80050+016250FM-12+000899999V0200101N008019999999N9999999N1-00741+99999101261ADDMA1999999101181MD1310261+9999REMSYN070AAXX  12061 01002 46/// /0108 11074 2//// 30118 40126 53026 333 91112;
0101010020999992013011207004+80050+016250FM-12+000899999V0203501N007019999999N9999999N1-00731+99999101331ADDMA1999999101251MD1210221+9999REMSYN060AAXX  12071 01002 46/// /3507 11073 2//// 30125 40133 52022;
0101010020999992013011208004+80050+016250FM-12+000899999V0203601N007019999999N9999999N1-00741+99999101381ADDMA1999999101301MD1210191+9999REMSYN060AAXX  12081 01002 46/// /3607 11074 2//// 30130 40138 52019;
0101010020999992013011209004+80050+016250FM-12+000899999V0203601N007019999999N9999999N1-00771+99999101451ADDMA1999999101371MD1210191+9999REMSYN060AAXX  12091 01002 46/// /3607 11077 2//// 30137 40145 52019;
0101010020999992013011210004+80050+016250FM-12+000899999V0203401N007019999999N9999999N1-00821+99999101491ADDMA1999999101411MD1210161+9999REMSYN060AAXX  12101 01002 46/// /3407 11082 2//// 30141 40149 52016;
0101010020999992013011211004+80050+016250FM-12+000899999V02099999999999999999N9999999N1-00801+99999101551ADDMA1999999101471MD1210171+9999REMSYN060AAXX  12111 01002 46/// ///// 11080 2//// 30147 40155 52017;
0111010020999992013011212004+80050+016250FM-12+000899999V0203401N008019999999N9999999N1-00821+99999101591ADDMA1999999101511MD1210141+9999REMSYN070AAXX  12121 01002 46/// /3408 11082 2//// 30151 40159 52014 333 91111;
0101010020999992013011213004+80050+016250FM-12+000899999V0203401N010019999999N9999999N1-00821+99999101611ADDMA1999999101521MD1310111+9999REMSYN060AAXX  12131 01002 46/// /3410 11082 2//// 30152 40161 53011;
0101010020999992013011214004+80050+016250FM-12+000899999V0203401N009019999999N9999999N1-00831+99999101631ADDMA1999999101541MD1210071+9999REMSYN060AAXX  12141 01002 46/// /3409 11083 2//// 30154 40163 52007;
0101010020999992013011215004+80050+016250FM-12+000899999V0203401N009019999999N9999999N1-00831+99999101651ADDMA1999999101561MD1210051+9999REMSYN060AAXX  12151 01002 46/// /3409 11083 2//// 30156 40165 52005;
0101010020999992013011216004+80050+016250FM-12+000899999V0203301N009019999999N9999999N1-00841+99999101651ADDMA1999999101561MD1210041+9999REMSYN060AAXX  12161 01002 46/// /3309 11084 2//// 30156 40165 52004;
0101010020999992013011217004+80050+016250FM-12+000899999V0203201N010019999999N9999999N1-00851+99999101661ADDMA1999999101571MD1410001+9999REMSYN060AAXX  12171 01002 46/// /3210 11085 2//// 30157 40166 54003;
0130010020999992013011218004+80050+016250FM-12+000899999V0203301N011019999999N9999999N1-00871+99999101671ADDKA1120M-00701MA1999999101591MD1410001+9999REMSYN076AAXX  12181 01002 46/// /3311 11087 2//// 30159 40167 54003 333 11070 91113;
0101010020999992013011219004+80050+016250FM-12+000899999V0203201N011019999999N9999999N1-00881+99999101721ADDMA1999999101631MD1110071+9999REMSYN060AAXX  12191 01002 46/// /3211 11088 2//// 30163 40172 51007;
0101010020999992013011220004+80050+016250FM-12+000899999V0203201N010019999999N9999999N1-00891+99999101711ADDMA1999999101621MD1210051+9999REMSYN060AAXX  12201 01002 46/// /3210 11089 2//// 30162 40171 52005;
0101010020999992013011221004+80050+016250FM-12+000899999V0203201N010019999999N9999999N1-00911+99999101761ADDMA1999999101681MD1210091+9999REMSYN060AAXX  12211 01002 46/// /3210 11091 2//// 30168 40176 52009;
0101010020999992013011222004+80050+016250FM-12+000899999V0203301N010019999999N9999999N1-00941+99999101791ADDMA1999999101711MD1110081+9999REMSYN060AAXX  12221 01002 46/// /3310 11094 2//// 30171 40179 51008;
0101010020999992013011223004+80050+016250FM-12+000899999V0203201N010019999999N9999999N1-00941+99999101781ADDMA1999999101691MD1310071+9999REMSYN060AAXX  12231 01002 46/// /3210 11094 2//// 30169 40178 53007;
0111010020999992013011300004+80050+016250FM-12+000899999V0203301N010019999999N9999999N1-00901+99999101761ADDMA1999999101681MD1510001+9999REMSYN070AAXX  13001 01002 46/// /3310 11090 2//// 30168 40176 55000 333 91113;
0101010020999992013011301004+80050+016250FM-12+000899999V0203301N011019999999N9999999N1-00941+99999101811ADDMA1999999101731MD1010021+9999REMSYN060AAXX  13011 01002 46/// /3311 11094 2//// 30173 40181 50002;
0101010020999992013011302004+80050+016250FM-12+000899999V0203401N010019999999N9999999N1-00951+99999101881ADDMA1999999101801MD1110101+9999REMSYN060AAXX  13021 01002 46/// /3410 11095 2//// 30180 40188 51010;
0101010020999992013011303004+80050+016250FM-12+000899999V0203401N011019999999N9999999N1-00971+99999101881ADDMA1999999101801MD1310121+9999REMSYN060AAXX  13031 01002 46/// /3411 11097 2//// 30180 40188 53012;
0101010020999992013011304004+80050+016250FM-12+000899999V0203401N010019999999N9999999N1-01021+99999101951ADDMA1999999101861MD1210131+9999REMSYN060AAXX  13041 01002 46/// /3410 11102 2//// 30186 40195 52013;
0101010020999992013011305004+80050+016250FM-12+000899999V0203501N009019999999N9999999N1-01011+99999102001ADDMA1999999101911MD1110111+9999REMSYN060AAXX  13051 01002 46/// /3509 11101 2//// 30191 40200 51011;
0130010020999992013011306004+80050+016250FM-12+000899999V0203401N008019999999N9999999N1-01021+99999102001ADDKA1999N-01041MA1999999101911MD1310121+9999REMSYN076AAXX  13061 01002 46/// /3408 11102 2//// 30191 40200 53012 333 21104 91114;
0101010020999992013011307004+80050+016250FM-12+000899999V0203301N008019999999N9999999N1-00991+99999102041ADDMA1999999101951MD1210091+9999REMSYN060AAXX  13071 01002 46/// /3308 11099 2//// 30195 40204 52009;
0101010020999992013011308004+80050+016250FM-12+000899999V0203501N007019999999N9999999N1-00981+99999102071ADDMA1999999101981MD1210071+9999REMSYN060AAXX  13081 01002 46/// /3507 11098 2//// 30198 40207 52007;
0101010020999992013011309004+80050+016250FM-12+000899999V0203401N009019999999N9999999N1-00971+99999102071ADDMA1999999101981MD1310071+9999REMSYN060AAXX  13091 01002 46/// /3409 11097 2//// 30198 40207 53007;
0101010020999992013011310004+80050+016250FM-12+000899999V0203301N006019999999N9999999N1-00931+99999102101ADDMA1999999102021MD1210071+9999REMSYN060AAXX  13101 01002 46/// /3306 11093 2//// 30202 40210 52007;
0101010020999992013011311004+80050+016250FM-12+000899999V0203401N007019999999N9999999N1-00941+99999102151ADDMA1999999102061MD1110081+9999REMSYN060AAXX  13111 01002 46/// /3407 11094 2//// 30206 40215 51008;
0111010020999992013011312004+80050+016250FM-12+000899999V0203501N007019999999N9999999N1-00941+99999102161ADDMA1999999102081MD1210091+9999REMSYN070AAXX  13121 01002 46/// /3507 11094 2//// 30208 40216 52009 333 91111;
0101010020999992013011313004+80050+016250FM-12+000899999V0203501N007019999999N9999999N1-00921+99999102181ADDMA1999999102101MD1210081+9999REMSYN060AAXX  13131 01002 46/// /3507 11092 2//// 30210 40218 52008;
0101010020999992013011314004+80050+016250FM-12+000899999V0203401N007019999999N9999999N1-00921+99999102191ADDMA1999999102111MD1210041+9999REMSYN060AAXX  13141 01002 46/// /3407 11092 2//// 30211 40219 52004;
0101010020999992013011315004+80050+016250FM-12+000899999V0203301N006019999999N9999999N1-00931+99999102181ADDMA1999999102091MD1410001+9999REMSYN060AAXX  13151 01002 46/// /3306 11093 2//// 30209 40218 54002;
0101010020999992013011316004+80050+016250FM-12+000899999V0203401N007019999999N9999999N1-00941+99999102201ADDMA1999999102111MD1410001+9999REMSYN060AAXX  13161 01002 46/// /3407 11094 2//// 30211 40220 54002;
0101010020999992013011317004+80050+016250FM-12+000899999V0203501N007019999999N9999999N1-00921+99999102181ADDMA1999999102101MD1410001+9999REMSYN060AAXX  13171 01002 46/// /3507 11092 2//// 30210 40218 54001;
0130010020999992013011318004+80050+016250FM-12+000899999V0203301N006019999999N9999999N1-00901+99999102191ADDKA1120M-00891MA1999999102111MD1410001+9999REMSYN076AAXX  13181 01002 46/// /3306 11090 2//// 30211 40219 54001 333 11089 91110;
0101010020999992013011319004+80050+016250FM-12+000899999V0203601N006019999999N9999999N1-00901+99999102211ADDMA1999999102121MD1410001+9999REMSYN060AAXX  13191 01002 46/// /3606 11090 2//// 30212 40221 54001;
0101010020999992013011320004+80050+016250FM-12+000899999V0203501N006019999999N9999999N1-00901+99999102221ADDMA1999999102141MD1210041+9999REMSYN060AAXX  13201 01002 46/// /3506 11090 2//// 30214 40222 52004;
0101010020999992013011321004+80050+016250FM-12+000899999V0203301N005019999999N9999999N1-00901+99999102231ADDMA1999999102141MD1210041+9999REMSYN060AAXX  13211 01002 46/// /3305 11090 2//// 30214 40223 52004;
0101010020999992013011322004+80050+016250FM-12+000899999V0203501N004019999999N9999999N1-00881+99999102241ADDMA1999999102161MD1210041+9999REMSYN060AAXX  13221 01002 46/// /3504 11088 2//// 30216 40224 52004;
0101010020999992013011323004+80050+016250FM-12+000899999V0203401N005019999999N9999999N1-00851+99999102241ADDMA1999999102161MD1410001+9999REMSYN060AAXX  13231 01002 46/// /3405 11085 2//// 30216 40224 54002;
0111010020999992013011400004+80050+016250FM-12+000899999V0200101N006019999999N9999999N1-00831+99999102271ADDMA1999999102191MD1210041+9999REMSYN070AAXX  14001 01002 46/// /0106 11083 2//// 30219 40227 52004 333 91108;
0101010020999992013011401004+80050+016250FM-12+000899999V0203601N007019999999N9999999N1-00851+99999102251ADDMA1999999102171MD1410001+9999REMSYN060AAXX  14011 01002 46/// /3607 11085 2//// 30217 40225 54001;
0101010020999992013011402004+80050+016250FM-12+000899999V0200201N006019999999N9999999N1-00841+99999102271ADDMA1999999102191MD1410001+9999REMSYN060AAXX  14021 01002 46/// /0206 11084 2//// 30219 40227 54003;
0101010020999992013011403004+80050+016250FM-12+000899999V0200201N006019999999N9999999N1-00841+99999102301ADDMA1999999102211MD1010031+9999REMSYN060AAXX  14031 01002 46/// /0206 11084 2//// 30221 40230 50003;
0101010020999992013011404004+80050+016250FM-12+000899999V0200201N007019999999N9999999N1-00861+99999102291ADDMA1999999102201MD1210041+9999REMSYN060AAXX  14041 01002 46/// /0207 11086 2//// 30220 40229 52004;
0101010020999992013011405004+80050+016250FM-12+000899999V0200201N007019999999N9999999N1-00841+99999102301ADDMA1999999102221MD1210031+9999REMSYN060AAXX  14051 01002 46/// /0207 11084 2//// 30222 40230 52003;
0130010020999992013011406004+80050+016250FM-12+000899999V0200201N005019999999N9999999N1-00831+99999102301ADDKA1999N-00921MA1999999102221MD1410001+9999REMSYN076AAXX  14061 01002 46/// /0205 11083 2//// 30222 40230 54000 333 21092 91110;
0101010020999992013011407004+80050+016250FM-12+000899999V0203501N004019999999N9999999N1-00811+99999102311ADDMA1999999102231MD1410001+9999REMSYN060AAXX  14071 01002 46/// /3504 11081 2//// 30223 40231 54002;
0101010020999992013011408004+80050+016250FM-12+000899999V0200201N004019999999N9999999N1-00801+99999102321ADDMA1999999102241MD1410001+9999REMSYN060AAXX  14081 01002 46/// /0204 11080 2//// 30224 40232 54002;
0101010020999992013011409004+80050+016250FM-12+000899999V0200101N004019999999N9999999N1-00761+99999102351ADDMA1999999102271MD1210051+9999REMSYN060AAXX  14091 01002 46/// /0104 11076 2//// 30227 40235 52005;
0101010020999992013011410004+80050+016250FM-12+000899999V0203601N005019999999N9999999N1-00761+99999102371ADDMA1999999102281MD1210051+9999REMSYN060AAXX  14101 01002 46/// /3605 11076 2//// 30228 40237 52005;
0101010020999992013011411004+80050+016250FM-12+000899999V0201001N003019999999N9999999N1-00831+99999102381ADDMA1999999102301MD1210061+9999REMSYN060AAXX  14111 01002 46/// /1003 11083 2//// 30230 40238 52006;
0111010020999992013011412004+80050+016250FM-12+000899999V0202101N002019999999N9999999N1-00901+99999102381ADDMA1999999102301MD1410001+9999REMSYN070AAXX  14121 01002 46/// /2102 11090 2//// 30230 40238 54003 333 91108;
0101010020999992013011413004+80050+016250FM-12+000899999V0201901N004019999999N9999999N1-00981+99999102371ADDMA1999999102291MD1410001+9999REMSYN060AAXX  14131 01002 46/// /1904 11098 2//// 30229 40237 54001;
0101010020999992013011414004+80050+016250FM-12+000899999V0202101N004019999999N9999999N1-00991+99999102371ADDMA1999999102281MD1410001+9999REMSYN060AAXX  14141 01002 46/// /2104 11099 2//// 30228 40237 54001;
0101010020999992013011415004+80050+016250FM-12+000899999V0201901N003019999999N9999999N1-00971+99999102361ADDMA1999999102281MD1410001+9999REMSYN060AAXX  14151 01002 46/// /1903 11097 2//// 30228 40236 54002;
0101010020999992013011416004+80050+016250FM-12+000899999V0201701N002019999999N9999999N1-00971+99999102361ADDMA1999999102271MD1410001+9999REMSYN060AAXX  14161 01002 46/// /1702 11097 2//// 30227 40236 54002;
0101010020999992013011417004+80050+016250FM-12+000899999V0201901N004019999999N9999999N1-01031+99999102351ADDMA1999999102261MD1410001+9999REMSYN060AAXX  14171 01002 46/// /1904 11103 2//// 30226 40235 54002;
0130010020999992013011418004+80050+016250FM-12+000899999V0202001N004019999999N9999999N1-01071+99999102321ADDKA1120M-00751MA1999999102241MD1710041+9999REMSYN076AAXX  14181 01002 46/// /2004 11107 2//// 30224 40232 57004 333 11075 91105;
0101010020999992013011419004+80050+016250FM-12+000899999V0201801N004019999999N9999999N1-01011+99999102311ADDMA1999999102221MD1710051+9999REMSYN060AAXX  14191 01002 46/// /1804 11101 2//// 30222 40231 57005;
0101010020999992013011420004+80050+016250FM-12+000899999V0201801N002019999999N9999999N1-00981+99999102301ADDMA1999999102211MD1710051+9999REMSYN060AAXX  14201 01002 46/// /1802 11098 2//// 30221 40230 57005;
0101010020999992013011421004+80050+016250FM-12+000899999V0201601N004019999999N9999999N1-01001+99999102271ADDMA1999999102181MD1710051+9999REMSYN060AAXX  14211 01002 46/// /1604 11100 2//// 30218 40227 57005;
0101010020999992013011422004+80050+016250FM-12+000899999V0201601N005019999999N9999999N1-01041+99999102251ADDMA1999999102161MD1710061+9999REMSYN060AAXX  14221 01002 46/// /1605 11104 2//// 30216 40225 57006;
0101010020999992013011423004+80050+016250FM-12+000899999V0202101N003019999999N9999999N1-01101+99999102221ADDMA1999999102131MD1710081+9999REMSYN060AAXX  14231 01002 46/// /2103 11110 2//// 30213 40222 57008;
0111010020999992013011500004+80050+016250FM-12+000899999V0202001N002019999999N9999999N1-01041+99999102211ADDMA1999999102121MD1710061+9999REMSYN070AAXX  15001 01002 46/// /2002 11104 2//// 30212 40221 57006 333 91106;
0101010020999992013011501004+80050+016250FM-12+000899999V0201701N003019999999N9999999N1-01071+99999102191ADDMA1999999102111MD1710061+9999REMSYN060AAXX  15011 01002 46/// /1703 11107 2//// 30211 40219 57006;
0101010020999992013011502004+80050+016250FM-12+000899999V0201501N003019999999N9999999N1-01021+99999102141ADDMA1999999102051MD1610081+9999REMSYN060AAXX  15021 01002 46/// /1503 11102 2//// 30205 40214 56008;
0101010020999992013011503004+80050+016250FM-12+000899999V0201601N004019999999N9999999N1-01111+99999102111ADDMA1999999102021MD1710101+9999REMSYN060AAXX  15031 01002 46/// /1604 11111 2//// 30202 40211 57010;
0101010020999992013011504004+80050+016250FM-12+000899999V0201401N005019999999N9999999N1-01271+99999102051ADDMA1999999101961MD1710141+9999REMSYN060AAXX  15041 01002 46/// /1405 11127 2//// 30196 40205 57014;
0101010020999992013011505004+80050+016250FM-12+000899999V0201401N005019999999N9999999N1-01231+99999102021ADDMA1999999101931MD1710121+9999REMSYN060AAXX  15051 01002 46/// /1405 11123 2//// 30193 40202 57012;
0130010020999992013011506004+80050+016250FM-12+000899999V0201401N005019999999N9999999N1-01181+99999101941ADDKA1999N-01451MA1999999101861MD1710171+9999REMSYN076AAXX  15061 01002 46/// /1405 11118 2//// 30186 40194 57017 333 21145 91107;
0101010020999992013011507004+80050+016250FM-12+000899999V0201401N005019999999N9999999N1-01291+99999101901ADDMA1999999101811MD1710151+9999REMSYN060AAXX  15071 01002 46/// /1405 11129 2//// 30181 40190 57015;
0101010020999992013011508004+80050+016250FM-12+000899999V0201601N006019999999N9999999N1-01121+99999101881ADDMA1999999101791MD1810141+9999REMSYN060AAXX  15081 01002 46/// /1606 11112 2//// 30179 40188 58014;
0101010020999992013011509004+80050+016250FM-12+000899999V0201501N005019999999N9999999N1-01071+99999101841ADDMA1999999101761MD1710101+9999REMSYN060AAXX  15091 01002 46/// /1505 11107 2//// 30176 40184 57010;
0101010020999992013011510004+80050+016250FM-12+000899999V0201401N008019999999N9999999N1-01231+99999101791ADDMA1999999101701MD1710111+9999REMSYN060AAXX  15101 01002 46/// /1408 11123 2//// 30170 40179 57011;
0101010020999992013011511004+80050+016250FM-12+000899999V0201501N007019999999N9999999N1-01161+99999101771ADDMA1999999101681MD1710111+9999REMSYN060AAXX  15111 01002 46/// /1507 11116 2//// 30168 40177 57011;
0111010020999992013011512004+80050+016250FM-12+000899999V0201401N007019999999N9999999N1-01221+99999101711ADDMA1999999101631MD1710131+9999REMSYN070AAXX  15121 01002 46/// /1407 11122 2//// 30163 40171 57013 333 91109;
0101010020999992013011513004+80050+016250FM-12+000899999V0201401N007019999999N9999999N1-01241+99999101661ADDMA1999999101571MD1610131+9999REMSYN060AAXX  15131 01002 46/// /1407 11124 2//// 30157 40166 56013;
0101010020999992013011514004+80050+016250FM-12+000899999V0201401N008019999999N9999999N1-01351+99999101561ADDMA1999999101481MD1610211+9999REMSYN060AAXX  15141 01002 46/// /1408 11135 2//// 30148 40156 56021;
0101010020999992013011515004+80050+016250FM-12+000899999V0201401N008019999999N9999999N1-01361+99999101501ADDMA1999999101411MD1710221+9999REMSYN060AAXX  15151 01002 46/// /1408 11136 2//// 30141 40150 57022;
0101010020999992013011516004+80050+016250FM-12+000899999V0201301N008019999999N9999999N1-01401+99999101451ADDMA1999999101361MD1810211+9999REMSYN060AAXX  15161 01002 46/// /1308 11140 2//// 30136 40145 58021;
0101010020999992013011517004+80050+016250FM-12+000899999V0201401N007019999999N9999999N1-01371+99999101371ADDMA1999999101281MD1710191+9999REMSYN060AAXX  15171 01002 46/// /1407 11137 2//// 30128 40137 57019;
0130010020999992013011518004+80050+016250FM-12+000899999V0201301N010019999999N9999999N1-01091+99999101291ADDKA1120M-01011MA1999999101201MD1610211+9999REMSYN076AAXX  15181 01002 46/// /1310 11109 2//// 30120 40129 56021 333 11101 91111;
0101010020999992013011519004+80050+016250FM-12+000899999V0201301N010019999999N9999999N1-01071+99999101201ADDMA1999999101111MD1710251+9999REMSYN060AAXX  15191 01002 46/// /1310 11107 2//// 30111 40120 57025;
0101010020999992013011520004+80050+016250FM-12+000899999V0201301N016019999999N9999999N1-00951+99999101061ADDMA1999999100971MD1610311+9999REMSYN060AAXX  15201 01002 46/// /1316 11095 2//// 30097 40106 56031;
0101010020999992013011521004+80050+016250FM-12+000899999V0201301N014019999999N9999999N1-00951+99999100991ADDMA1999999100901MD1710301+9999REMSYN060AAXX  15211 01002 46/// /1314 11095 2//// 30090 40099 57030;
0101010020999992013011522004+80050+016250FM-12+000899999V0201401N014019999999N9999999N1-00971+99999100841ADDMA1999999100761MD1710351+9999REMSYN060AAXX  15221 01002 46/// /1414 11097 2//// 30076 40084 57035;
0101010020999992013011523004+80050+016250FM-12+000899999V0201401N015019999999N9999999N1-00961+99999100741ADDMA1999999100651MD1610321+9999REMSYN060AAXX  15231 01002 46/// /1415 11096 2//// 30065 40074 56032;
0111010020999992013011600004+80050+016250FM-12+000899999V0201401N015019999999N9999999N1-00941+99999100621ADDMA1999999100541MD1810361+9999REMSYN070AAXX  16001 01002 46/// /1415 11094 2//// 30054 40062 58036 333 91117;
0101010020999992013011601004+80050+016250FM-12+000899999V0201501N016019999999N9999999N1-00901+99999100451ADDMA1999999100371MD1610381+9999REMSYN060AAXX  16011 01002 46/// /1516 11090 2//// 30037 40045 56038;
0101010020999992013011602004+80050+016250FM-12+000899999V0201401N017019999999N9999999N1-00861+99999100441ADDMA1999999100361MD1810301+9999REMSYN060AAXX  16021 01002 46/// /1417 11086 2//// 30036 40044 58030;
0101010020999992013011603004+80050+016250FM-12+000899999V0201401N018019999999N9999999N1-00811+99999100351ADDMA1999999100261MD1810281+9999REMSYN060AAXX  16031 01002 46/// /1418 11081 2//// 30026 40035 58028;
0101010020999992013011604004+80050+016250FM-12+000899999V0201501N020019999999N9999999N1-00781+99999100211ADDMA1999999100131MD1610251+9999REMSYN060AAXX  16041 01002 46/// /1520 11078 2//// 30013 40021 56025;
0101010020999992013011605004+80050+016250FM-12+000899999V0201401N017019999999N9999999N1-00721+99999100231ADDMA1999999100151MD1810211+9999REMSYN060AAXX  16051 01002 46/// /1417 11072 2//// 30015 40023 58021;
0130010020999992013011606004+80050+016250FM-12+000899999V0201401N016019999999N9999999N1-00691+99999100191ADDKA1999N-01231MA1999999100111MD1810161+9999REMSYN076AAXX  16061 01002 46/// /1416 11069 2//// 30011 40019 58016 333 21123 91122;
0101010020999992013011607004+80050+016250FM-12+000899999V0201401N016019999999N9999999N1-00711+99999100141ADDMA1999999100061MD1610071+9999REMSYN060AAXX  16071 01002 46/// /1416 11071 2//// 30006 40014 56007;
0101010020999992013011608004+80050+016250FM-12+000899999V0201401N016019999999N9999999N1-00701+99999100141ADDMA1999999100061MD1810091+9999REMSYN060AAXX  16081 01002 46/// /1416 11070 2//// 30006 40014 58009;
0101010020999992013011609004+80050+016250FM-12+000899999V0201401N017019999999N9999999N1-00721+99999100101ADDMA1999999100021MD1710091+9999REMSYN060AAXX  16091 01002 46/// /1417 11072 2//// 30002 40010 57009;
0101010020999992013011610004+80050+016250FM-12+000899999V0201501N016019999999N9999999N1-00751+99999100151ADDMA1999999100071MD1010021+9999REMSYN060AAXX  16101 01002 46/// /1516 11075 2//// 30007 40015 50002;
0101010020999992013011611004+80050+016250FM-12+000899999V0201401N015019999999N9999999N1-00751+99999100161ADDMA1999999100081MD1010021+9999REMSYN060AAXX  16111 01002 46/// /1415 11075 2//// 30008 40016 50002;
0111010020999992013011612004+80050+016250FM-12+000899999V0201401N014019999999N9999999N1-00721+99999100171ADDMA1999999100081MD1310071+9999REMSYN070AAXX  16121 01002 46/// /1414 11072 2//// 30008 40017 53007 333 91119;
0101010020999992013011613004+80050+016250FM-12+000899999V0201501N012019999999N9999999N1-00681+99999100201ADDMA1999999100121MD1210051+9999REMSYN060AAXX  16131 01002 46/// /1512 11068 2//// 30012 40020 52005;
0101010020999992013011614004+80050+016250FM-12+000899999V0201401N009019999999N9999999N1-00691+99999100241ADDMA1999999100151MD1110071+9999REMSYN060AAXX  16141 01002 46/// /1409 11069 2//// 30015 40024 51007;
0101010020999992013011615004+80050+016250FM-12+000899999V0201401N009019999999N9999999N1-00661+99999100211ADDMA1999999100131MD1310051+9999REMSYN060AAXX  16151 01002 46/// /1409 11066 2//// 30013 40021 53005;
0101010020999992013011616004+80050+016250FM-12+000899999V0201501N010019999999N9999999N1-00661+99999100191ADDMA1999999100101MD1510011+9999REMSYN060AAXX  16161 01002 46/// /1510 11066 2//// 30010 40019 55001;
0101010020999992013011617004+80050+016250FM-12+000899999V0201501N012019999999N9999999N1-00631+99999100141ADDMA1999999100061MD1710101+9999REMSYN060AAXX  16171 01002 46/// /1512 11063 2//// 30006 40014 57010;
0130010020999992013011618004+80050+016250FM-12+000899999V0201501N015019999999N9999999N1-00721+99999100111ADDKA1120M-00631MA1999999100031MD1710101+9999REMSYN076AAXX  16181 01002 46/// /1515 11072 2//// 30003 40011 57010 333 11063 91117;
0101010020999992013011619004+80050+016250FM-12+000899999V0201501N013019999999N9999999N1-00721+99999100171ADDMA1999999100081MD1010021+9999REMSYN060AAXX  16191 01002 46/// /1513 11072 2//// 30008 40017 50002;
0101010020999992013011620004+80050+016250FM-12+000899999V0201501N012019999999N9999999N1-00761+99999100201ADDMA1999999100121MD1110071+9999REMSYN060AAXX  16201 01002 46/// /1512 11076 2//// 30012 40020 51007;
0101010020999992013011621004+80050+016250FM-12+000899999V0201401N011019999999N9999999N1-00741+99999100241ADDMA1999999100161MD1210131+9999REMSYN060AAXX  16211 01002 46/// /1411 11074 2//// 30016 40024 52013;
0101010020999992013011622004+80050+016250FM-12+000899999V0201401N011019999999N9999999N1-00761+99999100251ADDMA1999999100161MD1210081+9999REMSYN060AAXX  16221 01002 46/// /1411 11076 2//// 30016 40025 52008;
0101010020999992013011623004+80050+016250FM-12+000899999V0201501N008019999999N9999999N1-00761+99999100271ADDMA1999999100191MD1210061+9999REMSYN060AAXX  16231 01002 46/// /1508 11076 2//// 30019 40027 52006;
0111010020999992013011700004+80050+016250FM-12+000899999V0201401N008019999999N9999999N1-00761+99999100271ADDMA1999999100191MD1210031+9999REMSYN070AAXX  17001 01002 46/// /1408 11076 2//// 30019 40027 52003 333 91115;
0101010020999992013011701004+80050+016250FM-12+000899999V0201501N009019999999N9999999N1-00791+99999100281ADDMA1999999100201MD1210031+9999REMSYN060AAXX  17011 01002 46/// /1509 11079 2//// 30020 40028 52003;
0101010020999992013011702004+80050+016250FM-12+000899999V0201501N006019999999N9999999N1-00821+99999100301ADDMA1999999100211MD1410001+9999REMSYN060AAXX  17021 01002 46/// /1506 11082 2//// 30021 40030 54003;
0101010020999992013011703004+80050+016250FM-12+000899999V0201501N007019999999N9999999N1-00791+99999100281ADDMA1999999100201MD1410001+9999REMSYN060AAXX  17031 01002 46/// /1507 11079 2//// 30020 40028 54001;
0101010020999992013011704004+80050+016250FM-12+000899999V0201501N007019999999N9999999N1-00791+99999100271ADDMA1999999100181MD1510021+9999REMSYN060AAXX  17041 01002 46/// /1507 11079 2//// 30018 40027 55002;
0101010020999992013011705004+80050+016250FM-12+000899999V0201401N009019999999N9999999N1-00841+99999100251ADDMA1999999100171MD1710051+9999REMSYN060AAXX  17051 01002 46/// /1409 11084 2//// 30017 40025 57005;
0130010020999992013011706004+80050+016250FM-12+000899999V0201501N008019999999N9999999N1-00811+99999100271ADDKA1999N-00861MA1999999100181MD1010011+9999REMSYN076AAXX  17061 01002 46/// /1508 11081 2//// 30018 40027 50001 333 21086 91110;
0101010020999992013011707004+80050+016250FM-12+000899999V0201501N006019999999N9999999N1-00881+99999100281ADDMA1999999100201MD1410001+9999REMSYN060AAXX  17071 01002 46/// /1506 11088 2//// 30020 40028 54002;
0101010020999992013011708004+80050+016250FM-12+000899999V0201501N007019999999N9999999N1-00951+99999100281ADDMA1999999100191MD1410001+9999REMSYN060AAXX  17081 01002 46/// /1507 11095 2//// 30019 40028 54003;
0101010020999992013011709004+80050+016250FM-12+000899999V0201501N007019999999N9999999N1-01001+99999100301ADDMA1999999100211MD1210031+9999REMSYN060AAXX  17091 01002 46/// /1507 11100 2//// 30021 40030 52003;
0101010020999992013011710004+80050+016250FM-12+000899999V0201401N006019999999N9999999N1-00981+99999100321ADDMA1999999100231MD1210031+9999REMSYN060AAXX  17101 01002 46/// /1406 11098 2//// 30023 40032 52003;
0101010020999992013011711004+80050+016250FM-12+000899999V0201401N006019999999N9999999N1-00951+99999100341ADDMA1999999100251MD1210061+9999REMSYN060AAXX  17111 01002 46/// /1406 11095 2//// 30025 40034 52006;
0111010020999992013011712004+80050+016250FM-12+000899999V0201501N006019999999N9999999N1-00991+99999100331ADDMA1999999100241MD1410001+9999REMSYN070AAXX  17121 01002 46/// /1506 11099 2//// 30024 40033 54003 333 91108;
0101010020999992013011713004+80050+016250FM-12+000899999V0201501N006019999999N9999999N1-00841+99999100331ADDMA1999999100251MD1410001+9999REMSYN060AAXX  17131 01002 46/// /1506 11084 2//// 30025 40033 54001;
0101010020999992013011714004+80050+016250FM-12+000899999V0200901N007019999999N9999999N1-00661+99999100351ADDMA1999999100271MD1010011+9999REMSYN060AAXX  17141 01002 46/// /0907 11066 2//// 30027 40035 50001;
0101010020999992013011715004+80050+016250FM-12+000899999V0201001N007019999999N9999999N1-00661+99999100321ADDMA1999999100231MD1510011+9999REMSYN060AAXX  17151 01002 46/// /1007 11066 2//// 30023 40032 55001;
0101010020999992013011716004+80050+016250FM-12+000899999V0200901N007019999999N9999999N1-00671+99999100321ADDMA1999999100231MD1410001+9999REMSYN060AAXX  17161 01002 46/// /0907 11067 2//// 30023 40032 54001;
0101010020999992013011717004+80050+016250FM-12+000899999V0200801N010019999999N9999999N1-00701+99999100311ADDMA1999999100221MD1710041+9999REMSYN060AAXX  17171 01002 46/// /0810 11070 2//// 30022 40031 57004;
0130010020999992013011718004+80050+016250FM-12+000899999V0200801N011019999999N9999999N1-00741+99999100311ADDKA1120M-00651MA1999999100231MD1410001+9999REMSYN076AAXX  17181 01002 46/// /0811 11074 2//// 30023 40031 54001 333 11065 91113;
0101010020999992013011719004+80050+016250FM-12+000899999V0200801N011019999999N9999999N1-00751+99999100301ADDMA1999999100211MD1410001+9999REMSYN060AAXX  17191 01002 46/// /0811 11075 2//// 30021 40030 54002;
0101010020999992013011720004+80050+016250FM-12+000899999V0200801N010019999999N9999999N1-00731+99999100311ADDMA1999999100231MD1410001+9999REMSYN060AAXX  17201 01002 46/// /0810 11073 2//// 30023 40031 54001;
0101010020999992013011721004+80050+016250FM-12+000899999V0200901N010019999999N9999999N1-00711+99999100321ADDMA1999999100241MD1410001+9999REMSYN060AAXX  17211 01002 46/// /0910 11071 2//// 30024 40032 54001;
0101010020999992013011722004+80050+016250FM-12+000899999V0201101N007019999999N9999999N1-00701+99999100321ADDMA1999999100241MD1410001+9999REMSYN060AAXX  17221 01002 46/// /1107 11070 2//// 30024 40032 54003;
0101010020999992013011723004+80050+016250FM-12+000899999V0201101N006019999999N9999999N1-00701+99999100391ADDMA1999999100311MD1110081+9999REMSYN060AAXX  17231 01002 46/// /1106 11070 2//// 30031 40039 51008;
0111010020999992013011800004+80050+016250FM-12+000899999V0201101N007019999999N9999999N1-00711+99999100431ADDMA1999999100341MD1210111+9999REMSYN070AAXX  18001 01002 46/// /1107 11071 2//// 30034 40043 52011 333 91114;
0101010020999992013011801004+80050+016250FM-12+000899999V0200901N007019999999N9999999N1-00731+99999100471ADDMA1999999100391MD1210151+9999REMSYN060AAXX  18011 01002 46/// /0907 11073 2//// 30039 40047 52015;
0101010020999992013011802004+80050+016250FM-12+000899999V0200801N007019999999N9999999N1-00721+99999100511ADDMA1999999100431MD1210121+9999REMSYN060AAXX  18021 01002 46/// /0807 11072 2//// 30043 40051 52012;
0101010020999992013011803004+80050+016250FM-12+000899999V0201001N006019999999N9999999N1-00701+99999100541ADDMA1999999100461MD1210111+9999REMSYN060AAXX  18031 01002 46/// /1006 11070 2//// 30046 40054 52011;
0101010020999992013011804004+80050+016250FM-12+000899999V0201101N005019999999N9999999N1-00721+99999100591ADDMA1999999100501MD1210121+9999REMSYN060AAXX  18041 01002 46/// /1105 11072 2//// 30050 40059 52012;
0101010020999992013011805004+80050+016250FM-12+000899999V0200801N008019999999N9999999N1-00751+99999100611ADDMA1999999100531MD1210101+9999REMSYN060AAXX  18051 01002 46/// /0808 11075 2//// 30053 40061 52010;
0130010020999992013011806004+80050+016250FM-12+000899999V0200801N008019999999N9999999N1-00781+99999100651ADDKA1999N-00821MA1999999100561MD1210101+9999REMSYN076AAXX  18061 01002 46/// /0808 11078 2//// 30056 40065 52010 333 21082 91110;
0101010020999992013011807004+80050+016250FM-12+000899999V0201201N005019999999N9999999N1-00921+99999100681ADDMA1999999100591MD1210091+9999REMSYN060AAXX  18071 01002 46/// /1205 11092 2//// 30059 40068 52009;
0101010020999992013011808004+80050+016250FM-12+000899999V0201501N004019999999N9999999N1-01011+99999100721ADDMA1999999100641MD1210111+9999REMSYN060AAXX  18081 01002 46/// /1504 11101 2//// 30064 40072 52011;
0101010020999992013011809004+80050+016250FM-12+000899999V0201001N008019999999N9999999N1-00871+99999100791ADDMA1999999100711MD1110141+9999REMSYN060AAXX  18091 01002 46/// /1008 11087 2//// 30071 40079 51014;
0101010020999992013011810004+80050+016250FM-12+000899999V0201501N006019999999N9999999N1-01341+99999100831ADDMA1999999100741MD1210151+9999REMSYN060AAXX  18101 01002 46/// /1506 11134 2//// 30074 40083 52015;
0101010020999992013011811004+80050+016250FM-12+000899999V0201501N006019999999N9999999N1-01221+99999100891ADDMA1999999100801MD1210161+9999REMSYN060AAXX  18111 01002 46/// /1506 11122 2//// 30080 40089 52016;
0111010020999992013011812004+80050+016250FM-12+000899999V0200901N009019999999N9999999N1-00881+99999100971ADDMA1999999100891MD1110181+9999REMSYN070AAXX  18121 01002 46/// /0909 11088 2//// 30089 40097 51018 333 91110;
0101010020999992013011813004+80050+016250FM-12+000899999V0200901N008019999999N9999999N1-00891+99999101021ADDMA1999999100931MD1210191+9999REMSYN060AAXX  18131 01002 46/// /0908 11089 2//// 30093 40102 52019;
0101010020999992013011814004+80050+016250FM-12+000899999V0200801N008019999999N9999999N1-00901+99999101081ADDMA1999999101001MD1210201+9999REMSYN060AAXX  18141 01002 46/// /0808 11090 2//// 30100 40108 52020;
0101010020999992013011815004+80050+016250FM-12+000899999V0200901N008019999999N9999999N1-00891+99999101111ADDMA1999999101031MD1210141+9999REMSYN060AAXX  18151 01002 46/// /0908 11089 2//// 30103 40111 52014;
0101010020999992013011816004+80050+016250FM-12+000899999V0201101N006019999999N9999999N1-01141+99999101161ADDMA1999999101081MD1210151+9999REMSYN060AAXX  18161 01002 46/// /1106 11114 2//// 30108 40116 52015;
0101010020999992013011817004+80050+016250FM-12+000899999V0201401N004019999999N9999999N1-01101+99999101191ADDMA1999999101101MD1210101+9999REMSYN060AAXX  18171 01002 46/// /1404 11110 2//// 30110 40119 52010;
0130010020999992013011818004+80050+016250FM-12+000899999V0201501N005019999999N9999999N1-01201+99999101221ADDKA1120M-00781MA1999999101131MD1210101+9999REMSYN076AAXX  18181 01002 46/// /1505 11120 2//// 30113 40122 52010 333 11078 91111;
0101010020999992013011819004+80050+016250FM-12+000899999V0201301N003019999999N9999999N1-01111+99999101251ADDMA1999999101161MD1210091+9999REMSYN060AAXX  18191 01002 46/// /1303 11111 2//// 30116 40125 52009;
0101010020999992013011820004+80050+016250FM-12+000899999V0201501N004019999999N9999999N1-00981+99999101291ADDMA1999999101211MD1210111+9999REMSYN060AAXX  18201 01002 46/// /1504 11098 2//// 30121 40129 52011;
0101010020999992013011821004+80050+016250FM-12+000899999V0201401N004019999999N9999999N1-00981+99999101341ADDMA1999999101251MD1210121+9999REMSYN060AAXX  18211 01002 46/// /1404 11098 2//// 30125 40134 52012;
0101010020999992013011822004+80050+016250FM-12+000899999V0201501N005019999999N9999999N1-01001+99999101391ADDMA1999999101311MD1210141+9999REMSYN060AAXX  18221 01002 46/// /1505 11100 2//// 30131 40139 52014;
0101010020999992013011823004+80050+016250FM-12+000899999V0201501N004019999999N9999999N1-01041+99999101441ADDMA1999999101351MD1210151+9999REMSYN060AAXX  18231 01002 46/// /1504 11104 2//// 30135 40144 52015;
0111010020999992013011900004+80050+016250FM-12+000899999V0201501N005019999999N9999999N1-01061+99999101471ADDMA1999999101391MD1210141+9999REMSYN070AAXX  19001 01002 46/// /1505 11106 2//// 30139 40147 52014 333 91106;
0101010020999992013011901004+80050+016250FM-12+000899999V0201401N005019999999N9999999N1-01001+99999101511ADDMA1999999101421MD1210111+9999REMSYN060AAXX  19011 01002 46/// /1405 11100 2//// 30142 40151 52011;
0101010020999992013011902004+80050+016250FM-12+000899999V0201401N004019999999N9999999N1-01001+99999101541ADDMA1999999101451MD1210101+9999REMSYN060AAXX  19021 01002 46/// /1404 11100 2//// 30145 40154 52010;
0101010020999992013011903004+80050+016250FM-12+000899999V0201401N004019999999N9999999N1-00981+99999101541ADDMA1999999101461MD1210071+9999REMSYN060AAXX  19031 01002 46/// /1404 11098 2//// 30146 40154 52007;
0101010020999992013011904004+80050+016250FM-12+000899999V0201501N006019999999N9999999N1-01021+99999101541ADDMA1999999101461MD1310041+9999REMSYN060AAXX  19041 01002 46/// /1506 11102 2//// 30146 40154 53004;
0101010020999992013011905004+80050+016250FM-12+000899999V0201001N004019999999N9999999N1-00951+99999101591ADDMA1999999101511MD1110051+9999REMSYN060AAXX  19051 01002 46/// /1004 11095 2//// 30151 40159 51005;
0130010020999992013011906004+80050+016250FM-12+000899999V0201401N005019999999N9999999N1-01021+99999101591ADDKA1999N-01201MA1999999101501MD1210051+9999REMSYN076AAXX  19061 01002 46/// /1405 11102 2//// 30150 40159 52005 333 21120 91107;
0101010020999992013011907004+80050+016250FM-12+000899999V0201401N006019999999N9999999N1-01241+99999101591ADDMA1999999101501MD1310051+9999REMSYN060AAXX  19071 01002 46/// /1406 11124 2//// 30150 40159 53005;
0101010020999992013011908004+80050+016250FM-12+000899999V0201401N007019999999N9999999N1-01341+99999101591ADDMA1999999101511MD1410001+9999REMSYN060AAXX  19081 01002 46/// /1407 11134 2//// 30151 40159 54000;
0101010020999992013011909004+80050+016250FM-12+000899999V0201401N008019999999N9999999N1-01211+99999101611ADDMA1999999101521MD1410001+9999REMSYN060AAXX  19091 01002 46/// /1408 11121 2//// 30152 40161 54002;
0101010020999992013011910004+80050+016250FM-12+000899999V0201301N007019999999N9999999N1-01281+99999101601ADDMA1999999101511MD1410001+9999REMSYN060AAXX  19101 01002 46/// /1307 11128 2//// 30151 40160 54001;
0101010020999992013011911004+80050+016250FM-12+000899999V0201401N007019999999N9999999N1-01231+99999101561ADDMA1999999101471MD1610031+9999REMSYN060AAXX  19111 01002 46/// /1407 11123 2//// 30147 40156 56003;
0111010020999992013011912004+80050+016250FM-12+000899999V0201401N008019999999N9999999N1-01281+99999101531ADDMA1999999101451MD1710081+9999REMSYN070AAXX  19121 01002 46/// /1408 11128 2//// 30145 40153 57008 333 91111;
0101010020999992013011913004+80050+016250FM-12+000899999V0201401N007019999999N9999999N1-01431+99999101511ADDMA1999999101421MD1710091+9999REMSYN060AAXX  19131 01002 46/// /1407 11143 2//// 30142 40151 57009;
0101010020999992013011914004+80050+016250FM-12+000899999V0201401N008019999999N9999999N1-01331+99999101451ADDMA1999999101371MD1710111+9999REMSYN060AAXX  19141 01002 46/// /1408 11133 2//// 30137 40145 57011;
0101010020999992013011915004+80050+016250FM-12+000899999V0201401N006019999999N9999999N1-01301+99999101411ADDMA1999999101321MD1710121+9999REMSYN060AAXX  19151 01002 46/// /1406 11130 2//// 30132 40141 57012;
0101010020999992013011916004+80050+016250FM-12+000899999V0201401N006019999999N9999999N1-01291+99999101381ADDMA1999999101291MD1710131+9999REMSYN060AAXX  19161 01002 46/// /1406 11129 2//// 30129 40138 57013;
0101010020999992013011917004+80050+016250FM-12+000899999V0201301N006019999999N9999999N1-01211+99999101311ADDMA1999999101221MD1710141+9999REMSYN060AAXX  19171 01002 46/// /1306 11121 2//// 30122 40131 57014;
0130010020999992013011918004+80050+016250FM-12+000899999V0201301N006019999999N9999999N1-01051+99999101221ADDKA1120M-01021MA1999999101131MD1610191+9999REMSYN076AAXX  19181 01002 46/// /1306 11105 2//// 30113 40122 56019 333 11102 91109;
0101010020999992013011919004+80050+016250FM-12+000899999V0201401N006019999999N9999999N1-01041+99999101121ADDMA1999999101041MD1710261+9999REMSYN060AAXX  19191 01002 46/// /1406 11104 2//// 30104 40112 57026;
0101010020999992013011920004+80050+016250FM-12+000899999V0201301N005019999999N9999999N1-01001+99999101121ADDMA1999999101041MD1810181+9999REMSYN060AAXX  19201 01002 46/// /1305 11100 2//// 30104 40112 58018;
0101010020999992013011921004+80050+016250FM-12+000899999V0201301N005019999999N9999999N1-00981+99999101031ADDMA1999999100951MD1710191+9999REMSYN060AAXX  19211 01002 46/// /1305 11098 2//// 30095 40103 57019;
0101010020999992013011922004+80050+016250FM-12+000899999V0201301N007019999999N9999999N1-00821+99999100941ADDMA1999999100851MD1610181+9999REMSYN060AAXX  19221 01002 46/// /1307 11082 2//// 30085 40094 56018;
0101010020999992013011923004+80050+016250FM-12+000899999V0201301N009019999999N9999999N1-00771+99999100831ADDMA1999999100751MD1710291+9999REMSYN060AAXX  19231 01002 46/// /1309 11077 2//// 30075 40083 57029;
0111010020999992013012000004+80050+016250FM-12+000899999V0201401N004019999999N9999999N1-00781+99999100791ADDMA1999999100711MD1810241+9999REMSYN070AAXX  20001 01002 46/// /1404 11078 2//// 30071 40079 58024 333 91111;
0101010020999992013012001004+80050+016250FM-12+000899999V0201301N007019999999N9999999N1-00721+99999100691ADDMA1999999100611MD1710251+9999REMSYN060AAXX  20011 01002 46/// /1307 11072 2//// 30061 40069 57025;
0101010020999992013012002004+80050+016250FM-12+000899999V0201401N005019999999N9999999N1-00691+99999100581ADDMA1999999100501MD1610251+9999REMSYN060AAXX  20021 01002 46/// /1405 11069 2//// 30050 40058 56025;
0101010020999992013012003004+80050+016250FM-12+000899999V0201401N005019999999N9999999N1-00681+99999100491ADDMA1999999100401MD1710301+9999REMSYN060AAXX  20031 01002 46/// /1405 11068 2//// 30040 40049 57030;
0101010020999992013012004004+80050+016250FM-12+000899999V0201401N005019999999N9999999N1-00641+99999100381ADDMA1999999100291MD1710311+9999REMSYN060AAXX  20041 01002 46/// /1405 11064 2//// 30029 40038 57031;
0101010020999992013012005004+80050+016250FM-12+000899999V0201301N004019999999N9999999N1-00591+99999100271ADDMA1999999100191MD1710311+9999REMSYN060AAXX  20051 01002 46/// /1304 11059 2//// 30019 40027 57031;
0130010020999992013012006004+80050+016250FM-12+000899999V0201301N007019999999N9999999N1-00601+99999100161ADDKA1999N-01331MA1999999100081MD1710321+9999REMSYN076AAXX  20061 01002 46/// /1307 11060 2//// 30008 40016 57032 333 21133 91108;
0101010020999992013012007004+80050+016250FM-12+000899999V0201301N010019999999N9999999N1-00591+99999099991ADDMA1999999099911MD1610381+9999REMSYN060AAXX  20071 01002 46/// /1310 11059 2//// 39991 49999 56038;
0101010020999992013012008004+80050+016250FM-12+000899999V0201401N005019999999N9999999N1-00541+99999099901ADDMA1999999099811MD1710371+9999REMSYN060AAXX  20081 01002 46/// /1405 11054 2//// 39981 49990 57037;
0101010020999992013012009004+80050+016250FM-12+000899999V0201401N007019999999N9999999N1-00811+99999099751ADDMA1999999099671MD1710411+9999REMSYN060AAXX  20091 01002 46/// /1407 11081 2//// 39967 49975 57041;
0101010020999992013012010004+80050+016250FM-12+000899999V0201301N008019999999N9999999N1-00681+99999099661ADDMA1999999099571MD1710341+9999REMSYN060AAXX  20101 01002 46/// /1308 11068 2//// 39957 49966 57034;
0101010020999992013012011004+80050+016250FM-12+000899999V0201301N012019999999N9999999N1-00621+99999099521ADDMA1999999099441MD1710381+9999REMSYN060AAXX  20111 01002 46/// /1312 11062 2//// 39944 49952 57038;
0111010020999992013012012004+80050+016250FM-12+000899999V0201401N005019999999N9999999N1-00641+99999099471ADDMA1999999099381MD1810291+9999REMSYN070AAXX  20121 01002 46/// /1405 11064 2//// 39938 49947 58029 333 91114;
0101010020999992013012013004+80050+016250FM-12+000899999V0202701N011019999999N9999999N1-00251+99999099421ADDMA1999999099341MD1810231+9999REMSYN060AAXX  20131 01002 46/// /2711 11025 2//// 39934 49942 58023;
0101010020999992013012014004+80050+016250FM-12+000899999V0202901N015019999999N9999999N1-00391+99999099401ADDMA1999999099321MD1810121+9999REMSYN060AAXX  20141 01002 46/// /2915 11039 2//// 39932 49940 58012;
0101010020999992013012015004+80050+016250FM-12+000899999V0202801N014019999999N9999999N1-00431+99999099431ADDMA1999999099341MD1810041+9999REMSYN060AAXX  20151 01002 46/// /2814 11043 2//// 39934 49943 58004;
0101010020999992013012016004+80050+016250FM-12+000899999V0202801N014019999999N9999999N1-00471+99999099341ADDMA1999999099261MD1610091+9999REMSYN060AAXX  20161 01002 46/// /2814 11047 2//// 39926 49934 56009;
0101010020999992013012017004+80050+016250FM-12+000899999V0202801N012019999999N9999999N1-00561+99999099431ADDMA1999999099351MD1010031+9999REMSYN060AAXX  20171 01002 46/// /2812 11056 2//// 39935 49943 50003;
0130010020999992013012018004+80050+016250FM-12+000899999V0202801N011019999999N9999999N1-00591+99999099451ADDKA1120M-00221MA1999999099371MD1010021+9999REMSYN076AAXX  20181 01002 46/// /2811 11059 2//// 39937 49945 50002 333 11022 91118;
0101010020999992013012019004+80050+016250FM-12+000899999V0202801N010019999999N9999999N1-00641+99999099501ADDMA1999999099421MD1310161+9999REMSYN060AAXX  20191 01002 46/// /2810 11064 2//// 39942 49950 53016;
0101010020999992013012020004+80050+016250FM-12+000899999V0202801N008019999999N9999999N1-00671+99999099591ADDMA1999999099511MD1110161+9999REMSYN060AAXX  20201 01002 46/// /2808 11067 2//// 39951 49959 51016;
0101010020999992013012021004+80050+016250FM-12+000899999V0202901N006019999999N9999999N1-00681+99999099621ADDMA1999999099531MD1210171+9999REMSYN060AAXX  20211 01002 46/// /2906 11068 2//// 39953 49962 52017;
0101010020999992013012022004+80050+016250FM-12+000899999V0202801N004019999999N9999999N1-00711+99999099711ADDMA1999999099631MD1210211+9999REMSYN060AAXX  20221 01002 46/// /2804 11071 2//// 39963 49971 52021;
0101010020999992013012023004+80050+016250FM-12+000899999V0201801N001019999999N9999999N1-00731+99999099781ADDMA1999999099701MD1110191+9999REMSYN060AAXX  20231 01002 46/// /1801 11073 2//// 39970 49978 51019;
0111010020999992013012100004+80050+016250FM-12+000899999V0201501N003019999999N9999999N1-00831+99999099851ADDMA1999999099771MD1210231+9999REMSYN070AAXX  21001 01002 46/// /1503 11083 2//// 39977 49985 52023 333 91113;
0101010020999992013012101004+80050+016250FM-12+000899999V0201301N010019999999N9999999N1-00891+99999099921ADDMA1999999099831MD1210201+9999REMSYN060AAXX  21011 01002 46/// /1310 11089 2//// 39983 49992 52020;
0101010020999992013012102004+80050+016250FM-12+000899999V0201401N009019999999N9999999N1-00971+99999099961ADDMA1999999099881MD1210181+9999REMSYN060AAXX  21021 01002 46/// /1409 11097 2//// 39988 49996 52018;
0101010020999992013012103004+80050+016250FM-12+000899999V0201101N009019999999N9999999N1-00901+99999100121ADDMA1999999100041MD1110271+9999REMSYN060AAXX  21031 01002 46/// /1109 11090 2//// 30004 40012 51027;
0101010020999992013012104004+80050+016250FM-12+000899999V0201101N011019999999N9999999N1-00971+99999100271ADDMA1999999100181MD1110351+9999REMSYN060AAXX  21041 01002 46/// /1111 11097 2//// 30018 40027 51035;
