0084010090999992013010100004+80650+025000FM-12+000599999V0201201N020019999999N9999999N1+99999+99999999999ADDMD1810131+9999REMSYN058AAXX  01001 01009 46/// /1220 1//// 2//// 58013 333 91128;
0074010090999992013010101004+80650+025000FM-12+000599999V0201201N018019999999N9999999N1+99999+99999999999ADDMD1010051+9999REMSYN048AAXX  01011 01009 46/// /1218 1//// 2//// 50005;
0074010090999992013010102004+80650+025000FM-12+000599999V0201201N018019999999N9999999N1+99999+99999999999ADDMD1310121+9999REMSYN048AAXX  01021 01009 46/// /1218 1//// 2//// 53012;
0074010090999992013010103004+80650+025000FM-12+000599999V0201201N019019999999N9999999N1+99999+99999999999ADDMD1310051+9999REMSYN048AAXX  01031 01009 46/// /1219 1//// 2//// 53005;
0074010090999992013010104004+80650+025000FM-12+000599999V0201101N018019999999N9999999N1+99999+99999999999ADDMD1010011+9999REMSYN048AAXX  01041 01009 46/// /1118 1//// 2//// 50001;
0074010090999992013010105004+80650+025000FM-12+000599999V0201101N018019999999N9999999N1+99999+99999999999ADDMD1510001+9999REMSYN048AAXX  01051 01009 46/// /1118 1//// 2//// 55000;
0103010090999992013010106004+80650+025000FM-12+000599999V0201201N018019999999N9999999N1+99999+99999999999ADDKA1999N-00291MD1410001+9999REMSYN064AAXX  01061 01009 46/// /1218 1//// 2//// 54000 333 21029 91123;
0074010090999992013010107004+80650+025000FM-12+000599999V0201201N018019999999N9999999N1+99999+99999999999ADDMD1010021+9999REMSYN048AAXX  01071 01009 46/// /1218 1//// 2//// 50002;
0074010090999992013010108004+80650+025000FM-12+000599999V0201201N017019999999N9999999N1+99999+99999999999ADDMD1410001+9999REMSYN048AAXX  01081 01009 46/// /1217 1//// 2//// 54002;
0074010090999992013010109004+80650+025000FM-12+000599999V0201201N018019999999N9999999N1+99999+99999999999ADDMD1610041+9999REMSYN048AAXX  01091 01009 46/// /1218 1//// 2//// 56004;
0074010090999992013010110004+80650+025000FM-12+000599999V0201101N019019999999N9999999N1+99999+99999999999ADDMD1610101+9999REMSYN048AAXX  01101 01009 46/// /1119 1//// 2//// 56010;
0074010090999992013010111004+80650+025000FM-12+000599999V0201101N018019999999N9999999N1+99999+99999999999ADDMD1810101+9999REMSYN048AAXX  01111 01009 46/// /1118 1//// 2//// 58010;
0084010090999992013010112004+80650+025000FM-12+000599999V0201101N019019999999N9999999N1+99999+99999999999ADDMD1610141+9999REMSYN058AAXX  01121 01009 46/// /1119 1//// 2//// 56014 333 91124;
0074010090999992013010113004+80650+025000FM-12+000599999V0201201N019019999999N9999999N1+99999+99999999999ADDMD1710081+9999REMSYN048AAXX  01131 01009 46/// /1219 1//// 2//// 57008;
0074010090999992013010114004+80650+025000FM-12+000599999V0201201N018019999999N9999999N1+99999+99999999999ADDMD1810081+9999REMSYN048AAXX  01141 01009 46/// /1218 1//// 2//// 58008;
0074010090999992013010115004+80650+025000FM-12+000599999V0201201N019019999999N9999999N1+99999+99999999999ADDMD1210031+9999REMSYN048AAXX  01151 01009 46/// /1219 1//// 2//// 52003;
0074010090999992013010116004+80650+025000FM-12+000599999V0201201N017019999999N9999999N1+99999+99999999999ADDMD1110061+9999REMSYN048AAXX  01161 01009 46/// /1217 1//// 2//// 51006;
0074010090999992013010117004+80650+025000FM-12+000599999V0201201N018019999999N9999999N1+99999+99999999999ADDMD1310051+9999REMSYN048AAXX  01171 01009 46/// /1218 1//// 2//// 53005;
0084010090999992013010118004+80650+025000FM-12+000599999V0201201N019019999999N9999999N1+99999+99999999999ADDMD1510011+9999REMSYN058AAXX  01181 01009 46/// /1219 1//// 2//// 55001 333 91123;
0074010090999992013010119004+80650+025000FM-12+000599999V0201101N018019999999N9999999N1+99999+99999999999ADDMD1410001+9999REMSYN048AAXX  01191 01009 46/// /1118 1//// 2//// 54002;
0074010090999992013010120004+80650+025000FM-12+000599999V0201201N019019999999N9999999N1+99999+99999999999ADDMD1610041+9999REMSYN048AAXX  01201 01009 46/// /1219 1//// 2//// 56004;
0074010090999992013010121004+80650+025000FM-12+000599999V0201101N019019999999N9999999N1+99999+99999999999ADDMD1710041+9999REMSYN048AAXX  01211 01009 46/// /1119 1//// 2//// 57004;
0074010090999992013010122004+80650+025000FM-12+000599999V0201101N019019999999N9999999N1+99999+99999999999ADDMD1810071+9999REMSYN048AAXX  01221 01009 46/// /1119 1//// 2//// 58007;
0074010090999992013010123004+80650+025000FM-12+000599999V0201101N019019999999N9999999N1+99999+99999999999ADDMD1610061+9999REMSYN048AAXX  01231 01009 46/// /1119 1//// 2//// 56006;
0084010090999992013010200004+80650+025000FM-12+000599999V0201101N020019999999N9999999N1+99999+99999999999ADDMD1710071+9999REMSYN058AAXX  02001 01009 46/// /1120 1//// 2//// 57007 333 91125;
0074010090999992013010201004+80650+025000FM-12+000599999V0201101N019019999999N9999999N1+99999+99999999999ADDMD1810031+9999REMSYN048AAXX  02011 01009 46/// /1119 1//// 2//// 58003;
0074010090999992013010202004+80650+025000FM-12+000599999V0201101N021019999999N9999999N1+99999+99999999999ADDMD1610061+9999REMSYN048AAXX  02021 01009 46/// /1121 1//// 2//// 56006;
0074010090999992013010203004+80650+025000FM-12+000599999V0201101N019019999999N9999999N1+99999+99999999999ADDMD1410001+9999REMSYN048AAXX  02031 01009 46/// /1119 1//// 2//// 54000;
0074010090999992013010204004+80650+025000FM-12+000599999V0201101N019019999999N9999999N1+99999+99999999999ADDMD1710091+9999REMSYN048AAXX  02041 01009 46/// /1119 1//// 2//// 57009;
0074010090999992013010207004+80650+025000FM-12+000599999V0201101N019019999999N9999999N1+99999+99999999999ADDMD1810051+9999REMSYN048AAXX  02071 01009 46/// /1119 1//// 2//// 58005;
0074010090999992013010208004+80650+025000FM-12+000599999V0201101N019019999999N9999999N1+99999+99999999999ADDMD1010011+9999REMSYN048AAXX  02081 01009 46/// /1119 1//// 2//// 50001;
0074010090999992013010209004+80650+025000FM-12+000599999V0201101N018019999999N9999999N1+99999+99999999999ADDMD1410001+9999REMSYN048AAXX  02091 01009 46/// /1118 1//// 2//// 54001;
0074010090999992013010210004+80650+025000FM-12+000599999V0201101N018019999999N9999999N1+99999+99999999999ADDMD1510021+9999REMSYN048AAXX  02101 01009 46/// /1118 1//// 2//// 55002;
0074010090999992013010211004+80650+025000FM-12+000599999V0201101N018019999999N9999999N1+99999+99999999999ADDMD1710071+9999REMSYN048AAXX  02111 01009 46/// /1118 1//// 2//// 57007;
0084010090999992013010212004+80650+025000FM-12+000599999V0201101N018019999999N9999999N1+99999+99999999999ADDMD1710081+9999REMSYN058AAXX  02121 01009 46/// /1118 1//// 2//// 57008 333 91123;
0074010090999992013010213004+80650+025000FM-12+000599999V0201101N016019999999N9999999N1+99999+99999999999ADDMD1810041+9999REMSYN048AAXX  02131 01009 46/// /1116 1//// 2//// 58004;
0074010090999992013010214004+80650+025000FM-12+000599999V0201101N017019999999N9999999N1+99999+99999999999ADDMD1610111+9999REMSYN048AAXX  02141 01009 46/// /1117 1//// 2//// 56011;
0074010090999992013010215004+80650+025000FM-12+000599999V0201101N018019999999N9999999N1+99999+99999999999ADDMD1610121+9999REMSYN048AAXX  02151 01009 46/// /1118 1//// 2//// 56012;
0074010090999992013010216004+80650+025000FM-12+000599999V0201101N019019999999N9999999N1+99999+99999999999ADDMD1810191+9999REMSYN048AAXX  02161 01009 46/// /1119 1//// 2//// 58019;
0074010090999992013010217004+80650+025000FM-12+000599999V0201001N019019999999N9999999N1+99999+99999999999ADDMD1710141+9999REMSYN048AAXX  02171 01009 46/// /1019 1//// 2//// 57014;
0084010090999992013010218004+80650+025000FM-12+000599999V0201001N018019999999N9999999N1+99999+99999999999ADDMD1710131+9999REMSYN058AAXX  02181 01009 46/// /1018 1//// 2//// 57013 333 91123;
0074010090999992013010219004+80650+025000FM-12+000599999V0201001N018019999999N9999999N1+99999+99999999999ADDMD1710121+9999REMSYN048AAXX  02191 01009 46/// /1018 1//// 2//// 57012;
0074010090999992013010220004+80650+025000FM-12+000599999V0201101N019019999999N9999999N1+99999+99999999999ADDMD1610181+9999REMSYN048AAXX  02201 01009 46/// /1119 1//// 2//// 56018;
0074010090999992013010221004+80650+025000FM-12+000599999V0201001N018019999999N9999999N1+99999+99999999999ADDMD1810151+9999REMSYN048AAXX  02211 01009 46/// /1018 1//// 2//// 58015;
0074010090999992013010222004+80650+025000FM-12+000599999V0201101N017019999999N9999999N1+99999+99999999999ADDMD1810141+9999REMSYN048AAXX  02221 01009 46/// /1117 1//// 2//// 58014;
0074010090999992013010223004+80650+025000FM-12+000599999V0201101N017019999999N9999999N1+99999+99999999999ADDMD1710071+9999REMSYN048AAXX  02231 01009 46/// /1117 1//// 2//// 57007;
0084010090999992013010300004+80650+025000FM-12+000599999V0201101N016019999999N9999999N1+99999+99999999999ADDMD1710071+9999REMSYN058AAXX  03001 01009 46/// /1116 1//// 2//// 57007 333 91123;
0074010090999992013010301004+80650+025000FM-12+000599999V0201101N017019999999N9999999N1+99999+99999999999ADDMD1610091+9999REMSYN048AAXX  03011 01009 46/// /1117 1//// 2//// 56009;
0074010090999992013010302004+80650+025000FM-12+000599999V0201201N017019999999N9999999N1+99999+99999999999ADDMD1710081+9999REMSYN048AAXX  03021 01009 46/// /1217 1//// 2//// 57008;
0074010090999992013010303004+80650+025000FM-12+000599999V0201201N017019999999N9999999N1+99999+99999999999ADDMD1810071+9999REMSYN048AAXX  03031 01009 46/// /1217 1//// 2//// 58007;
0074010090999992013010304004+80650+025000FM-12+000599999V0201101N017019999999N9999999N1+99999+99999999999ADDMD1710031+9999REMSYN048AAXX  03041 01009 46/// /1117 1//// 2//// 57003;
0074010090999992013010305004+80650+025000FM-12+000599999V0201101N016019999999N9999999N1+99999+99999999999ADDMD1710041+9999REMSYN048AAXX  03051 01009 46/// /1116 1//// 2//// 57004;
0103010090999992013010306004+80650+025000FM-12+000599999V0201101N016019999999N9999999N1+99999+99999999999ADDKA1999N-00191MD1410001+9999REMSYN064AAXX  03061 01009 46/// /1116 1//// 2//// 54003 333 21019 91121;
0074010090999992013010308004+80650+025000FM-12+000599999V0201201N014019999999N9999999N1+99999+99999999999ADDMD1210061+9999REMSYN048AAXX  03081 01009 46/// /1214 1//// 2//// 52006;
0074010090999992013010309004+80650+025000FM-12+000599999V0201201N015019999999N9999999N1+99999+99999999999ADDMD1210081+9999REMSYN048AAXX  03091 01009 46/// /1215 1//// 2//// 52008;
0074010090999992013010310004+80650+025000FM-12+000599999V0201201N017019999999N9999999N1+99999+99999999999ADDMD1210071+9999REMSYN048AAXX  03101 01009 46/// /1217 1//// 2//// 52007;
0074010090999992013010311004+80650+025000FM-12+000599999V0201301N017019999999N9999999N1+99999+99999999999ADDMD1110111+9999REMSYN048AAXX  03111 01009 46/// /1317 1//// 2//// 51011;
0084010090999992013010312004+80650+025000FM-12+000599999V0201301N015019999999N9999999N1+99999+99999999999ADDMD1110161+9999REMSYN058AAXX  03121 01009 46/// /1315 1//// 2//// 51016 333 91121;
0074010090999992013010313004+80650+025000FM-12+000599999V0201201N015019999999N9999999N1+99999+99999999999ADDMD1210211+9999REMSYN048AAXX  03131 01009 46/// /1215 1//// 2//// 52021;
0074010090999992013010314004+80650+025000FM-12+000599999V0201201N016019999999N9999999N1+99999+99999999999ADDMD1310191+9999REMSYN048AAXX  03141 01009 46/// /1216 1//// 2//// 53019;
0074010090999992013010315004+80650+025000FM-12+000599999V0201201N016019999999N9999999N1+99999+99999999999ADDMD1210151+9999REMSYN048AAXX  03151 01009 46/// /1216 1//// 2//// 52015;
0074010090999992013010316004+80650+025000FM-12+000599999V0201201N014019999999N9999999N1+99999+99999999999ADDMD1210181+9999REMSYN048AAXX  03161 01009 46/// /1214 1//// 2//// 52018;
0074010090999992013010317004+80650+025000FM-12+000599999V0201201N013019999999N9999999N1+99999+99999999999ADDMD1210171+9999REMSYN048AAXX  03171 01009 46/// /1213 1//// 2//// 52017;
0084010090999992013010318004+80650+025000FM-12+000599999V0201201N013019999999N9999999N1+99999+99999999999ADDMD1310151+9999REMSYN058AAXX  03181 01009 46/// /1213 1//// 2//// 53015 333 91119;
0074010090999992013010319004+80650+025000FM-12+000599999V0201201N014019999999N9999999N1+99999+99999999999ADDMD1210121+9999REMSYN048AAXX  03191 01009 46/// /1214 1//// 2//// 52012;
0074010090999992013010320004+80650+025000FM-12+000599999V0201201N014019999999N9999999N1+99999+99999999999ADDMD1210131+9999REMSYN048AAXX  03201 01009 46/// /1214 1//// 2//// 52013;
0074010090999992013010321004+80650+025000FM-12+000599999V0201301N013019999999N9999999N1+99999+99999999999ADDMD1210151+9999REMSYN048AAXX  03211 01009 46/// /1313 1//// 2//// 52015;
0074010090999992013010322004+80650+025000FM-12+000599999V0201101N014019999999N9999999N1+99999+99999999999ADDMD1210141+9999REMSYN048AAXX  03221 01009 46/// /1114 1//// 2//// 52014;
0074010090999992013010323004+80650+025000FM-12+000599999V0201101N012019999999N9999999N1+99999+99999999999ADDMD1210171+9999REMSYN048AAXX  03231 01009 46/// /1112 1//// 2//// 52017;
0084010090999992013010400004+80650+025000FM-12+000599999V0201101N011019999999N9999999N1+99999+99999999999ADDMD1210181+9999REMSYN058AAXX  04001 01009 46/// /1111 1//// 2//// 52018 333 91116;
0074010090999992013010401004+80650+025000FM-12+000599999V0201101N011019999999N9999999N1+99999+99999999999ADDMD1310141+9999REMSYN048AAXX  04011 01009 46/// /1111 1//// 2//// 53014;
0074010090999992013010402004+80650+025000FM-12+000599999V0201001N009019999999N9999999N1+99999+99999999999ADDMD1310101+9999REMSYN048AAXX  04021 01009 46/// /1009 1//// 2//// 53010;
0074010090999992013010403004+80650+025000FM-12+000599999V0200901N010019999999N9999999N1+99999+99999999999ADDMD1410001+9999REMSYN048AAXX  04031 01009 46/// /0910 1//// 2//// 54000;
0074010090999992013010404004+80650+025000FM-12+000599999V0201101N011019999999N9999999N1+99999+99999999999ADDMD1410001+9999REMSYN048AAXX  04041 01009 46/// /1111 1//// 2//// 54003;
0074010090999992013010405004+80650+025000FM-12+000599999V0201201N008019999999N9999999N1+99999+99999999999ADDMD1110061+9999REMSYN048AAXX  04051 01009 46/// /1208 1//// 2//// 51006;
0103010090999992013010406004+80650+025000FM-12+000599999V0201101N010019999999N9999999N1+99999+99999999999ADDKA1999N-00381MD1210121+9999REMSYN064AAXX  04061 01009 46/// /1110 1//// 2//// 52012 333 21038 91113;
0074010090999992013010407004+80650+025000FM-12+000599999V0201101N011019999999N9999999N1+99999+99999999999ADDMD1310131+9999REMSYN048AAXX  04071 01009 46/// /1111 1//// 2//// 53013;
0074010090999992013010408004+80650+025000FM-12+000599999V0201001N011019999999N9999999N1+99999+99999999999ADDMD1210111+9999REMSYN048AAXX  04081 01009 46/// /1011 1//// 2//// 52011;
0074010090999992013010409004+80650+025000FM-12+000599999V0201101N010019999999N9999999N1+99999+99999999999ADDMD1110151+9999REMSYN048AAXX  04091 01009 46/// /1110 1//// 2//// 51015;
0074010090999992013010410004+80650+025000FM-12+000599999V0201201N008019999999N9999999N1+99999+99999999999ADDMD1210161+9999REMSYN048AAXX  04101 01009 46/// /1208 1//// 2//// 52016;
0074010090999992013010411004+80650+025000FM-12+000599999V0201001N008019999999N9999999N1+99999+99999999999ADDMD1210161+9999REMSYN048AAXX  04111 01009 46/// /1008 1//// 2//// 52016;
0084010090999992013010412004+80650+025000FM-12+000599999V0200901N007019999999N9999999N1+99999+99999999999ADDMD1210151+9999REMSYN058AAXX  04121 01009 46/// /0907 1//// 2//// 52015 333 91112;
0074010090999992013010413004+80650+025000FM-12+000599999V0200801N006019999999N9999999N1+99999+99999999999ADDMD1210151+9999REMSYN048AAXX  04131 01009 46/// /0806 1//// 2//// 52015;
0074010090999992013010414004+80650+025000FM-12+000599999V0200901N005019999999N9999999N1+99999+99999999999ADDMD1310111+9999REMSYN048AAXX  04141 01009 46/// /0905 1//// 2//// 53011;
0074010090999992013010415004+80650+025000FM-12+000599999V0201001N005019999999N9999999N1+99999+99999999999ADDMD1210091+9999REMSYN048AAXX  04151 01009 46/// /1005 1//// 2//// 52009;
0074010090999992013010416004+80650+025000FM-12+000599999V0201201N005019999999N9999999N1+99999+99999999999ADDMD1210081+9999REMSYN048AAXX  04161 01009 46/// /1205 1//// 2//// 52008;
0074010090999992013010417004+80650+025000FM-12+000599999V0201301N004019999999N9999999N1+99999+99999999999ADDMD1210111+9999REMSYN048AAXX  04171 01009 46/// /1304 1//// 2//// 52011;
0084010090999992013010418004+80650+025000FM-12+000599999V0200801N004019999999N9999999N1+99999+99999999999ADDMD1210121+9999REMSYN058AAXX  04181 01009 46/// /0804 1//// 2//// 52012 333 91108;
0074010090999992013010419004+80650+025000FM-12+000599999V0201201N004019999999N9999999N1+99999+99999999999ADDMD1210101+9999REMSYN048AAXX  04191 01009 46/// /1204 1//// 2//// 52010;
0074010090999992013010420004+80650+025000FM-12+000599999V0201101N005019999999N9999999N1+99999+99999999999ADDMD1210121+9999REMSYN048AAXX  04201 01009 46/// /1105 1//// 2//// 52012;
0074010090999992013010421004+80650+025000FM-12+000599999V0201501N005019999999N9999999N1+99999+99999999999ADDMD1110131+9999REMSYN048AAXX  04211 01009 46/// /1505 1//// 2//// 51013;
0074010090999992013010422004+80650+025000FM-12+000599999V0201401N006019999999N9999999N1+99999+99999999999ADDMD1210151+9999REMSYN048AAXX  04221 01009 46/// /1406 1//// 2//// 52015;
0074010090999992013010423004+80650+025000FM-12+000599999V0201401N005019999999N9999999N1+99999+99999999999ADDMD1210161+9999REMSYN048AAXX  04231 01009 46/// /1405 1//// 2//// 52016;
0084010090999992013010500004+80650+025000FM-12+000599999V0201201N006019999999N9999999N1+99999+99999999999ADDMD1210121+9999REMSYN058AAXX  05001 01009 46/// /1206 1//// 2//// 52012 333 91108;
0074010090999992013010501004+80650+025000FM-12+000599999V0201301N005019999999N9999999N1+99999+99999999999ADDMD1210111+9999REMSYN048AAXX  05011 01009 46/// /1305 1//// 2//// 52011;
0074010090999992013010502004+80650+025000FM-12+000599999V0201301N005019999999N9999999N1+99999+99999999999ADDMD1210081+9999REMSYN048AAXX  05021 01009 46/// /1305 1//// 2//// 52008;
0074010090999992013010503004+80650+025000FM-12+000599999V0201301N005019999999N9999999N1+99999+99999999999ADDMD1210111+9999REMSYN048AAXX  05031 01009 46/// /1305 1//// 2//// 52011;
0074010090999992013010504004+80650+025000FM-12+000599999V0201501N005019999999N9999999N1+99999+99999999999ADDMD1210101+9999REMSYN048AAXX  05041 01009 46/// /1505 1//// 2//// 52010;
0074010090999992013010505004+80650+025000FM-12+000599999V0201501N006019999999N9999999N1+99999+99999999999ADDMD1310101+9999REMSYN048AAXX  05051 01009 46/// /1506 1//// 2//// 53010;
0103010090999992013010506004+80650+025000FM-12+000599999V0201601N006019999999N9999999N1+99999+99999999999ADDKA1999N-00491MD1210071+9999REMSYN064AAXX  05061 01009 46/// /1606 1//// 2//// 52007 333 21049 91107;
0074010090999992013010507004+80650+025000FM-12+000599999V0201601N007019999999N9999999N1+99999+99999999999ADDMD1210081+9999REMSYN048AAXX  05071 01009 46/// /1607 1//// 2//// 52008;
0074010090999992013010508004+80650+025000FM-12+000599999V0201601N007019999999N9999999N1+99999+99999999999ADDMD1210091+9999REMSYN048AAXX  05081 01009 46/// /1607 1//// 2//// 52009;
0074010090999992013010509004+80650+025000FM-12+000599999V0201701N005019999999N9999999N1+99999+99999999999ADDMD1210111+9999REMSYN048AAXX  05091 01009 46/// /1705 1//// 2//// 52011;
0074010090999992013010510004+80650+025000FM-12+000599999V0201701N005019999999N9999999N1+99999+99999999999ADDMD1310081+9999REMSYN048AAXX  05101 01009 46/// /1705 1//// 2//// 53008;
0074010090999992013010511004+80650+025000FM-12+000599999V0201601N006019999999N9999999N1+99999+99999999999ADDMD1210061+9999REMSYN048AAXX  05111 01009 46/// /1606 1//// 2//// 52006;
0084010090999992013010512004+80650+025000FM-12+000599999V0201501N007019999999N9999999N1+99999+99999999999ADDMD1510011+9999REMSYN058AAXX  05121 01009 46/// /1507 1//// 2//// 55001 333 91108;
0074010090999992013010513004+80650+025000FM-12+000599999V0201501N006019999999N9999999N1+99999+99999999999ADDMD1410001+9999REMSYN048AAXX  05131 01009 46/// /1506 1//// 2//// 54001;
0074010090999992013010514004+80650+025000FM-12+000599999V0201401N006019999999N9999999N1+99999+99999999999ADDMD1710071+9999REMSYN048AAXX  05141 01009 46/// /1406 1//// 2//// 57007;
0074010090999992013010515004+80650+025000FM-12+000599999V0201401N007019999999N9999999N1+99999+99999999999ADDMD1710051+9999REMSYN048AAXX  05151 01009 46/// /1407 1//// 2//// 57005;
0074010090999992013010516004+80650+025000FM-12+000599999V0201401N007019999999N9999999N1+99999+99999999999ADDMD1710101+9999REMSYN048AAXX  05161 01009 46/// /1407 1//// 2//// 57010;
0074010090999992013010517004+80650+025000FM-12+000599999V0201501N007019999999N9999999N1+99999+99999999999ADDMD1710091+9999REMSYN048AAXX  05171 01009 46/// /1507 1//// 2//// 57009;
0084010090999992013010518004+80650+025000FM-12+000599999V0201601N006019999999N9999999N1+99999+99999999999ADDMD1710111+9999REMSYN058AAXX  05181 01009 46/// /1606 1//// 2//// 57011 333 91108;
0074010090999992013010519004+80650+025000FM-12+000599999V0201601N008019999999N9999999N1+99999+99999999999ADDMD1710131+9999REMSYN048AAXX  05191 01009 46/// /1608 1//// 2//// 57013;
0074010090999992013010520004+80650+025000FM-12+000599999V0201701N009019999999N9999999N1+99999+99999999999ADDMD1710131+9999REMSYN048AAXX  05201 01009 46/// /1709 1//// 2//// 57013;
0074010090999992013010521004+80650+025000FM-12+000599999V0201601N010019999999N9999999N1+99999+99999999999ADDMD1710161+9999REMSYN048AAXX  05211 01009 46/// /1610 1//// 2//// 57016;
0074010090999992013010522004+80650+025000FM-12+000599999V0201601N009019999999N9999999N1+99999+99999999999ADDMD1710131+9999REMSYN048AAXX  05221 01009 46/// /1609 1//// 2//// 57013;
0074010090999992013010523004+80650+025000FM-12+000599999V0201501N011019999999N9999999N1+99999+99999999999ADDMD1710151+9999REMSYN048AAXX  05231 01009 46/// /1511 1//// 2//// 57015;
0084010090999992013010600004+80650+025000FM-12+000599999V0201501N015019999999N9999999N1+99999+99999999999ADDMD1610281+9999REMSYN058AAXX  06001 01009 46/// /1515 1//// 2//// 56028 333 91116;
0074010090999992013010601004+80650+025000FM-12+000599999V0201501N018019999999N9999999N1+99999+99999999999ADDMD1710311+9999REMSYN048AAXX  06011 01009 46/// /1518 1//// 2//// 57031;
0074010090999992013010602004+80650+025000FM-12+000599999V0201501N019019999999N9999999N1+99999+99999999999ADDMD1810371+9999REMSYN048AAXX  06021 01009 46/// /1519 1//// 2//// 58037;
0074010090999992013010603004+80650+025000FM-12+000599999V0201501N019019999999N9999999N1+99999+99999999999ADDMD1610311+9999REMSYN048AAXX  06031 01009 46/// /1519 1//// 2//// 56031;
0074010090999992013010604004+80650+025000FM-12+000599999V0201501N021019999999N9999999N1+99999+99999999999ADDMD1610411+9999REMSYN048AAXX  06041 01009 46/// /1521 1//// 2//// 56041;
0074010090999992013010605004+80650+025000FM-12+000599999V0201401N019019999999N9999999N1+99999+99999999999ADDMD1810361+9999REMSYN048AAXX  06051 01009 46/// /1419 1//// 2//// 58036;
0103010090999992013010606004+80650+025000FM-12+000599999V0201401N020019999999N9999999N1+99999+99999999999ADDKA1999N-00291MD1810341+9999REMSYN064AAXX  06061 01009 46/// /1420 1//// 2//// 58034 333 21029 91124;
0074010090999992013010607004+80650+025000FM-12+000599999V0201401N021019999999N9999999N1+99999+99999999999ADDMD1610301+9999REMSYN048AAXX  06071 01009 46/// /1421 1//// 2//// 56030;
0074010090999992013010608004+80650+025000FM-12+000599999V0201401N020019999999N9999999N1+99999+99999999999ADDMD1710311+9999REMSYN048AAXX  06081 01009 46/// /1420 1//// 2//// 57031;
0074010090999992013010609004+80650+025000FM-12+000599999V0201401N020019999999N9999999N1+99999+99999999999ADDMD1710321+9999REMSYN048AAXX  06091 01009 46/// /1420 1//// 2//// 57032;
0074010090999992013010610004+80650+025000FM-12+000599999V0201401N022019999999N9999999N1+99999+99999999999ADDMD1610371+9999REMSYN048AAXX  06101 01009 46/// /1422 1//// 2//// 56037;
0074010090999992013010611004+80650+025000FM-12+000599999V0201401N021019999999N9999999N1+99999+99999999999ADDMD1710401+9999REMSYN048AAXX  06111 01009 46/// /1421 1//// 2//// 57040;
0084010090999992013010612004+80650+025000FM-12+000599999V0201401N019019999999N9999999N1+99999+99999999999ADDMD1810331+9999REMSYN058AAXX  06121 01009 46/// /1419 1//// 2//// 58033 333 91127;
0074010090999992013010613004+80650+025000FM-12+000599999V0201401N019019999999N9999999N1+99999+99999999999ADDMD1810201+9999REMSYN048AAXX  06131 01009 46/// /1419 1//// 2//// 58020;
0074010090999992013010614004+80650+025000FM-12+000599999V0201401N018019999999N9999999N1+99999+99999999999ADDMD1710141+9999REMSYN048AAXX  06141 01009 46/// /1418 1//// 2//// 57014;
0074010090999992013010615004+80650+025000FM-12+000599999V0201401N016019999999N9999999N1+99999+99999999999ADDMD1710121+9999REMSYN048AAXX  06151 01009 46/// /1416 1//// 2//// 57012;
0074010090999992013010616004+80650+025000FM-12+000599999V0201501N015019999999N9999999N1+99999+99999999999ADDMD1610161+9999REMSYN048AAXX  06161 01009 46/// /1515 1//// 2//// 56016;
0074010090999992013010617004+80650+025000FM-12+000599999V0201501N015019999999N9999999N1+99999+99999999999ADDMD1710161+9999REMSYN048AAXX  06171 01009 46/// /1515 1//// 2//// 57016;
0084010090999992013010618004+80650+025000FM-12+000599999V0201501N014019999999N9999999N1+99999+99999999999ADDMD1810151+9999REMSYN058AAXX  06181 01009 46/// /1514 1//// 2//// 58015 333 91123;
0074010090999992013010619004+80650+025000FM-12+000599999V0201401N013019999999N9999999N1+99999+99999999999ADDMD1610161+9999REMSYN048AAXX  06191 01009 46/// /1413 1//// 2//// 56016;
0074010090999992013010620004+80650+025000FM-12+000599999V0201401N014019999999N9999999N1+99999+99999999999ADDMD1610201+9999REMSYN048AAXX  06201 01009 46/// /1414 1//// 2//// 56020;
0074010090999992013010621004+80650+025000FM-12+000599999V0201401N015019999999N9999999N1+99999+99999999999ADDMD1710271+9999REMSYN048AAXX  06211 01009 46/// /1415 1//// 2//// 57027;
0074010090999992013010622004+80650+025000FM-12+000599999V0201401N013019999999N9999999N1+99999+99999999999ADDMD1810221+9999REMSYN048AAXX  06221 01009 46/// /1413 1//// 2//// 58022;
0074010090999992013010623004+80650+025000FM-12+000599999V0201401N012019999999N9999999N1+99999+99999999999ADDMD1710211+9999REMSYN048AAXX  06231 01009 46/// /1412 1//// 2//// 57021;
0084010090999992013010700004+80650+025000FM-12+000599999V0201501N011019999999N9999999N1+99999+99999999999ADDMD1710201+9999REMSYN058AAXX  07001 01009 46/// /1511 1//// 2//// 57020 333 91117;
0074010090999992013010701004+80650+025000FM-12+000599999V0201501N009019999999N9999999N1+99999+99999999999ADDMD1810161+9999REMSYN048AAXX  07011 01009 46/// /1509 1//// 2//// 58016;
0074010090999992013010702004+80650+025000FM-12+000599999V0201401N010019999999N9999999N1+99999+99999999999ADDMD1710131+9999REMSYN048AAXX  07021 01009 46/// /1410 1//// 2//// 57013;
0074010090999992013010703004+80650+025000FM-12+000599999V0201501N010019999999N9999999N1+99999+99999999999ADDMD1610141+9999REMSYN048AAXX  07031 01009 46/// /1510 1//// 2//// 56014;
0074010090999992013010704004+80650+025000FM-12+000599999V0201501N008019999999N9999999N1+99999+99999999999ADDMD1710151+9999REMSYN048AAXX  07041 01009 46/// /1508 1//// 2//// 57015;
0074010090999992013010705004+80650+025000FM-12+000599999V0201701N006019999999N9999999N1+99999+99999999999ADDMD1810111+9999REMSYN048AAXX  07051 01009 46/// /1706 1//// 2//// 58011;
0103010090999992013010706004+80650+025000FM-12+000599999V0202201N003019999999N9999999N1+99999+99999999999ADDKA1999N-00071MD1010011+9999REMSYN064AAXX  07061 01009 46/// /2203 1//// 2//// 50001 333 21007 91112;
0074010090999992013010707004+80650+025000FM-12+000599999V0202501N003019999999N9999999N1+99999+99999999999ADDMD1110041+9999REMSYN048AAXX  07071 01009 46/// /2503 1//// 2//// 51004;
0074010090999992013010708004+80650+025000FM-12+000599999V0202501N005019999999N9999999N1+99999+99999999999ADDMD1210091+9999REMSYN048AAXX  07081 01009 46/// /2505 1//// 2//// 52009;
0074010090999992013010709004+80650+025000FM-12+000599999V0202401N005019999999N9999999N1+99999+99999999999ADDMD1210091+9999REMSYN048AAXX  07091 01009 46/// /2405 1//// 2//// 52009;
0074010090999992013010710004+80650+025000FM-12+000599999V0202701N008019999999N9999999N1+99999+99999999999ADDMD1310061+9999REMSYN048AAXX  07101 01009 46/// /2708 1//// 2//// 53006;
0074010090999992013010711004+80650+025000FM-12+000599999V0202701N008019999999N9999999N1+99999+99999999999ADDMD1110101+9999REMSYN048AAXX  07111 01009 46/// /2708 1//// 2//// 51010;
0084010090999992013010712004+80650+025000FM-12+000599999V0202601N008019999999N9999999N1+99999+99999999999ADDMD1110121+9999REMSYN058AAXX  07121 01009 46/// /2608 1//// 2//// 51012 333 91110;
0074010090999992013010713004+80650+025000FM-12+000599999V0202601N008019999999N9999999N1+99999+99999999999ADDMD1310141+9999REMSYN048AAXX  07131 01009 46/// /2608 1//// 2//// 53014;
0074010090999992013010714004+80650+025000FM-12+000599999V0202401N006019999999N9999999N1+99999+99999999999ADDMD1210131+9999REMSYN048AAXX  07141 01009 46/// /2406 1//// 2//// 52013;
0074010090999992013010715004+80650+025000FM-12+000599999V0202501N004019999999N9999999N1+99999+99999999999ADDMD1210101+9999REMSYN048AAXX  07151 01009 46/// /2504 1//// 2//// 52010;
0074010090999992013010716004+80650+025000FM-12+000599999V0202201N003019999999N9999999N1+99999+99999999999ADDMD1210111+9999REMSYN048AAXX  07161 01009 46/// /2203 1//// 2//// 52011;
0074010090999992013010717004+80650+025000FM-12+000599999V0202101N002019999999N9999999N1+99999+99999999999ADDMD1210081+9999REMSYN048AAXX  07171 01009 46/// /2102 1//// 2//// 52008;
0084010090999992013010718004+80650+025000FM-12+000599999V0201701N002019999999N9999999N1+99999+99999999999ADDMD1210081+9999REMSYN058AAXX  07181 01009 46/// /1702 1//// 2//// 52008 333 91109;
0074010090999992013010719004+80650+025000FM-12+000599999V0201801N002019999999N9999999N1+99999+99999999999ADDMD1210091+9999REMSYN048AAXX  07191 01009 46/// /1802 1//// 2//// 52009;
0074010090999992013010720004+80650+025000FM-12+000599999V0202301N002019999999N9999999N1+99999+99999999999ADDMD1210081+9999REMSYN048AAXX  07201 01009 46/// /2302 1//// 2//// 52008;
0074010090999992013010721004+80650+025000FM-12+000599999V0203201N002019999999N9999999N1+99999+99999999999ADDMD1210091+9999REMSYN048AAXX  07211 01009 46/// /3202 1//// 2//// 52009;
0074010090999992013010722004+80650+025000FM-12+000599999V0203201N004019999999N9999999N1+99999+99999999999ADDMD1210051+9999REMSYN048AAXX  07221 01009 46/// /3204 1//// 2//// 52005;
0074010090999992013010723004+80650+025000FM-12+000599999V0203501N006019999999N9999999N1+99999+99999999999ADDMD1410001+9999REMSYN048AAXX  07231 01009 46/// /3506 1//// 2//// 54002;
0084010090999992013010800004+80650+025000FM-12+000599999V0203201N010019999999N9999999N1+99999+99999999999ADDMD1410001+9999REMSYN058AAXX  08001 01009 46/// /3210 1//// 2//// 54003 333 91112;
0074010090999992013010801004+80650+025000FM-12+000599999V0203201N013019999999N9999999N1+99999+99999999999ADDMD1410001+9999REMSYN048AAXX  08011 01009 46/// /3213 1//// 2//// 54003;
0074010090999992013010802004+80650+025000FM-12+000599999V0203201N013019999999N9999999N1+99999+99999999999ADDMD1110111+9999REMSYN048AAXX  08021 01009 46/// /3213 1//// 2//// 51011;
0074010090999992013010803004+80650+025000FM-12+000599999V0203201N012019999999N9999999N1+99999+99999999999ADDMD1110151+9999REMSYN048AAXX  08031 01009 46/// /3212 1//// 2//// 51015;
0074010090999992013010804004+80650+025000FM-12+000599999V0203201N011019999999N9999999N1+99999+99999999999ADDMD1210201+9999REMSYN048AAXX  08041 01009 46/// /3211 1//// 2//// 52020;
0074010090999992013010805004+80650+025000FM-12+000599999V0203101N011019999999N9999999N1+99999+99999999999ADDMD1310161+9999REMSYN048AAXX  08051 01009 46/// /3111 1//// 2//// 53016;
0103010090999992013010806004+80650+025000FM-12+000599999V0203001N012019999999N9999999N1+99999+99999999999ADDKA1999N-00331MD1210151+9999REMSYN064AAXX  08061 01009 46/// /3012 1//// 2//// 52015 333 21033 91116;
0074010090999992013010807004+80650+025000FM-12+000599999V0202901N012019999999N9999999N1+99999+99999999999ADDMD1210161+9999REMSYN048AAXX  08071 01009 46/// /2912 1//// 2//// 52016;
0074010090999992013010808004+80650+025000FM-12+000599999V0203001N008019999999N9999999N1+99999+99999999999ADDMD1210201+9999REMSYN048AAXX  08081 01009 46/// /3008 1//// 2//// 52020;
0074010090999992013010809004+80650+025000FM-12+000599999V0203301N009019999999N9999999N1+99999+99999999999ADDMD1210191+9999REMSYN048AAXX  08091 01009 46/// /3309 1//// 2//// 52019;
0074010090999992013010810004+80650+025000FM-12+000599999V0203201N010019999999N9999999N1+99999+99999999999ADDMD1210211+9999REMSYN048AAXX  08101 01009 46/// /3210 1//// 2//// 52021;
0074010090999992013010811004+80650+025000FM-12+000599999V0203201N010019999999N9999999N1+99999+99999999999ADDMD1210191+9999REMSYN048AAXX  08111 01009 46/// /3210 1//// 2//// 52019;
0084010090999992013010812004+80650+025000FM-12+000599999V0203101N010019999999N9999999N1+99999+99999999999ADDMD1310191+9999REMSYN058AAXX  08121 01009 46/// /3110 1//// 2//// 53019 333 91113;
0074010090999992013010813004+80650+025000FM-12+000599999V0203001N011019999999N9999999N1+99999+99999999999ADDMD1310141+9999REMSYN048AAXX  08131 01009 46/// /3011 1//// 2//// 53014;
0074010090999992013010814004+80650+025000FM-12+000599999V0202901N010019999999N9999999N1+99999+99999999999ADDMD1210151+9999REMSYN048AAXX  08141 01009 46/// /2910 1//// 2//// 52015;
0074010090999992013010815004+80650+025000FM-12+000599999V0203001N010019999999N9999999N1+99999+99999999999ADDMD1110161+9999REMSYN048AAXX  08151 01009 46/// /3010 1//// 2//// 51016;
0074010090999992013010816004+80650+025000FM-12+000599999V0203001N010019999999N9999999N1+99999+99999999999ADDMD1210201+9999REMSYN048AAXX  08161 01009 46/// /3010 1//// 2//// 52020;
0074010090999992013010817004+80650+025000FM-12+000599999V0203001N010019999999N9999999N1+99999+99999999999ADDMD1210211+9999REMSYN048AAXX  08171 01009 46/// /3010 1//// 2//// 52021;
0084010090999992013010818004+80650+025000FM-12+000599999V0203101N009019999999N9999999N1+99999+99999999999ADDMD1210221+9999REMSYN058AAXX  08181 01009 46/// /3109 1//// 2//// 52022 333 91114;
0074010090999992013010819004+80650+025000FM-12+000599999V0203201N007019999999N9999999N1+99999+99999999999ADDMD1210231+9999REMSYN048AAXX  08191 01009 46/// /3207 1//// 2//// 52023;
0074010090999992013010821004+80650+025000FM-12+000599999V0203201N009019999999N9999999N1+99999+99999999999ADDMD1210231+9999REMSYN048AAXX  08211 01009 46/// /3209 1//// 2//// 52023;
0074010090999992013010823004+80650+025000FM-12+000599999V0203201N009019999999N9999999N1+99999+99999999999ADDMD1210191+9999REMSYN048AAXX  08231 01009 46/// /3209 1//// 2//// 52019;
0084010090999992013010900004+80650+025000FM-12+000599999V0203201N010019999999N9999999N1+99999+99999999999ADDMD1210181+9999REMSYN058AAXX  09001 01009 46/// /3210 1//// 2//// 52018 333 91112;
0074010090999992013010901004+80650+025000FM-12+000599999V0203201N009019999999N9999999N1+99999+99999999999ADDMD1210191+9999REMSYN048AAXX  09011 01009 46/// /3209 1//// 2//// 52019;
0074010090999992013010902004+80650+025000FM-12+000599999V0203101N010019999999N9999999N1+99999+99999999999ADDMD1210181+9999REMSYN048AAXX  09021 01009 46/// /3110 1//// 2//// 52018;
0074010090999992013010903004+80650+025000FM-12+000599999V0203101N009019999999N9999999N1+99999+99999999999ADDMD1310151+9999REMSYN048AAXX  09031 01009 46/// /3109 1//// 2//// 53015;
0074010090999992013010904004+80650+025000FM-12+000599999V0203201N008019999999N9999999N1+99999+99999999999ADDMD1210101+9999REMSYN048AAXX  09041 01009 46/// /3208 1//// 2//// 52010;
0074010090999992013010905004+80650+025000FM-12+000599999V0203101N008019999999N9999999N1+99999+99999999999ADDMD1210101+9999REMSYN048AAXX  09051 01009 46/// /3108 1//// 2//// 52010;
0103010090999992013010906004+80650+025000FM-12+000599999V0203101N008019999999N9999999N1+99999+99999999999ADDKA1999N-00691MD1210121+9999REMSYN064AAXX  09061 01009 46/// /3108 1//// 2//// 52012 333 21069 91113;
0074010090999992013010907004+80650+025000FM-12+000599999V0203101N008019999999N9999999N1+99999+99999999999ADDMD1210121+9999REMSYN048AAXX  09071 01009 46/// /3108 1//// 2//// 52012;
0074010090999992013010908004+80650+025000FM-12+000599999V0203101N007019999999N9999999N1+99999+99999999999ADDMD1210121+9999REMSYN048AAXX  09081 01009 46/// /3107 1//// 2//// 52012;
0074010090999992013010909004+80650+025000FM-12+000599999V0203301N005019999999N9999999N1+99999+99999999999ADDMD1210071+9999REMSYN048AAXX  09091 01009 46/// /3305 1//// 2//// 52007;
0074010090999992013010910004+80650+025000FM-12+000599999V0203301N004019999999N9999999N1+99999+99999999999ADDMD1310051+9999REMSYN048AAXX  09101 01009 46/// /3304 1//// 2//// 53005;
0074010090999992013010911004+80650+025000FM-12+000599999V0202901N002019999999N9999999N1+99999+99999999999ADDMD1410001+9999REMSYN048AAXX  09111 01009 46/// /2902 1//// 2//// 54001;
0084010090999992013010912004+80650+025000FM-12+000599999V0202401N002019999999N9999999N1+99999+99999999999ADDMD1410001+9999REMSYN058AAXX  09121 01009 46/// /2402 1//// 2//// 54001 333 91110;
0074010090999992013010913004+80650+025000FM-12+000599999V0202301N004019999999N9999999N1+99999+99999999999ADDMD1410001+9999REMSYN048AAXX  09131 01009 46/// /2304 1//// 2//// 54002;
0074010090999992013010914004+80650+025000FM-12+000599999V0202001N004019999999N9999999N1+99999+99999999999ADDMD1610101+9999REMSYN048AAXX  09141 01009 46/// /2004 1//// 2//// 56010;
0074010090999992013010915004+80650+025000FM-12+000599999V0202001N007019999999N9999999N1+99999+99999999999ADDMD1710121+9999REMSYN048AAXX  09151 01009 46/// /2007 1//// 2//// 57012;
0074010090999992013010916004+80650+025000FM-12+000599999V0201901N007019999999N9999999N1+99999+99999999999ADDMD1710181+9999REMSYN048AAXX  09161 01009 46/// /1907 1//// 2//// 57018;
0074010090999992013010917004+80650+025000FM-12+000599999V0201901N008019999999N9999999N1+99999+99999999999ADDMD1710151+9999REMSYN048AAXX  09171 01009 46/// /1908 1//// 2//// 57015;
0084010090999992013010918004+80650+025000FM-12+000599999V0201901N008019999999N9999999N1+99999+99999999999ADDMD1710171+9999REMSYN058AAXX  09181 01009 46/// /1908 1//// 2//// 57017 333 91110;
0074010090999992013010919004+80650+025000FM-12+000599999V0201801N006019999999N9999999N1+99999+99999999999ADDMD1710171+9999REMSYN048AAXX  09191 01009 46/// /1806 1//// 2//// 57017;
0074010090999992013010920004+80650+025000FM-12+000599999V0201901N006019999999N9999999N1+99999+99999999999ADDMD1810121+9999REMSYN048AAXX  09201 01009 46/// /1906 1//// 2//// 58012;
0074010090999992013010921004+80650+025000FM-12+000599999V0202101N008019999999N9999999N1+99999+99999999999ADDMD1810091+9999REMSYN048AAXX  09211 01009 46/// /2108 1//// 2//// 58009;
0074010090999992013010922004+80650+025000FM-12+000599999V0202401N008019999999N9999999N1+99999+99999999999ADDMD1410001+9999REMSYN048AAXX  09221 01009 46/// /2408 1//// 2//// 54001;
0074010090999992013010923004+80650+025000FM-12+000599999V0202401N009019999999N9999999N1+99999+99999999999ADDMD1410001+9999REMSYN048AAXX  09231 01009 46/// /2409 1//// 2//// 54003;
0084010090999992013011000004+80650+025000FM-12+000599999V0202601N009019999999N9999999N1+99999+99999999999ADDMD1610061+9999REMSYN058AAXX  10001 01009 46/// /2609 1//// 2//// 56006 333 91111;
0074010090999992013011001004+80650+025000FM-12+000599999V0202901N008019999999N9999999N1+99999+99999999999ADDMD1810061+9999REMSYN048AAXX  10011 01009 46/// /2908 1//// 2//// 58006;
0074010090999992013011002004+80650+025000FM-12+000599999V0202701N010019999999N9999999N1+99999+99999999999ADDMD1710051+9999REMSYN048AAXX  10021 01009 46/// /2710 1//// 2//// 57005;
0074010090999992013011003004+80650+025000FM-12+000599999V0202701N011019999999N9999999N1+99999+99999999999ADDMD1410001+9999REMSYN048AAXX  10031 01009 46/// /2711 1//// 2//// 54003;
0074010090999992013011004004+80650+025000FM-12+000599999V0202801N012019999999N9999999N1+99999+99999999999ADDMD1710081+9999REMSYN048AAXX  10041 01009 46/// /2812 1//// 2//// 57008;
0074010090999992013011005004+80650+025000FM-12+000599999V0202801N012019999999N9999999N1+99999+99999999999ADDMD1710101+9999REMSYN048AAXX  10051 01009 46/// /2812 1//// 2//// 57010;
0103010090999992013011006004+80650+025000FM-12+000599999V0202601N010019999999N9999999N1+99999+99999999999ADDKA1999N-00541MD1710151+9999REMSYN064AAXX  10061 01009 46/// /2610 1//// 2//// 57015 333 21054 91114;
0074010090999992013011007004+80650+025000FM-12+000599999V0202601N011019999999N9999999N1+99999+99999999999ADDMD1710161+9999REMSYN048AAXX  10071 01009 46/// /2611 1//// 2//// 57016;
0074010090999992013011008004+80650+025000FM-12+000599999V0202601N011019999999N9999999N1+99999+99999999999ADDMD1710161+9999REMSYN048AAXX  10081 01009 46/// /2611 1//// 2//// 57016;
0074010090999992013011009004+80650+025000FM-12+000599999V0202601N010019999999N9999999N1+99999+99999999999ADDMD1810091+9999REMSYN048AAXX  10091 01009 46/// /2610 1//// 2//// 58009;
0074010090999992013011011004+80650+025000FM-12+000599999V0202701N015019999999N9999999N1+99999+99999999999ADDMD1610231+9999REMSYN048AAXX  10111 01009 46/// /2715 1//// 2//// 56023;
0074010090999992013011012004+80650+025000FM-12+000599999V0202901N013019999999N9999999N1+99999+99999999999ADDMD1810311+9999REMSYN048AAXX  10121 01009 46/// /2913 1//// 2//// 58031;
0074010090999992013011013004+80650+025000FM-12+000599999V0202901N013019999999N9999999N1+99999+99999999999ADDMD1810281+9999REMSYN048AAXX  10131 01009 46/// /2913 1//// 2//// 58028;
0074010090999992013011014004+80650+025000FM-12+000599999V0203001N011019999999N9999999N1+99999+99999999999ADDMD1810201+9999REMSYN048AAXX  10141 01009 46/// /3011 1//// 2//// 58020;
0074010090999992013011015004+80650+025000FM-12+000599999V0202901N010019999999N9999999N1+99999+99999999999ADDMD1810161+9999REMSYN048AAXX  10151 01009 46/// /2910 1//// 2//// 58016;
0074010090999992013011016004+80650+025000FM-12+000599999V0203201N007019999999N9999999N1+99999+99999999999ADDMD1710151+9999REMSYN048AAXX  10161 01009 46/// /3207 1//// 2//// 57015;
0074010090999992013011017004+80650+025000FM-12+000599999V0203301N005019999999N9999999N1+99999+99999999999ADDMD1710161+9999REMSYN048AAXX  10171 01009 46/// /3305 1//// 2//// 57016;
0084010090999992013011018004+80650+025000FM-12+000599999V0203301N002019999999N9999999N1+99999+99999999999ADDMD1610241+9999REMSYN058AAXX  10181 01009 46/// /3302 1//// 2//// 56024 333 91115;
0074010090999992013011019004+80650+025000FM-12+000599999V0203501N001019999999N9999999N1+99999+99999999999ADDMD1710211+9999REMSYN048AAXX  10191 01009 46/// /3501 1//// 2//// 57021;
0074010090999992013011020004+80650+025000FM-12+000599999V0200601N002019999999N9999999N1+99999+99999999999ADDMD1710251+9999REMSYN048AAXX  10201 01009 46/// /0602 1//// 2//// 57025;
0074010090999992013011021004+80650+025000FM-12+000599999V0201001N004019999999N9999999N1+99999+99999999999ADDMD1610241+9999REMSYN048AAXX  10211 01009 46/// /1004 1//// 2//// 56024;
0074010090999992013011022004+80650+025000FM-12+000599999V0201301N007019999999N9999999N1+99999+99999999999ADDMD1610361+9999REMSYN048AAXX  10221 01009 46/// /1307 1//// 2//// 56036;
0074010090999992013011023004+80650+025000FM-12+000599999V0201201N009019999999N9999999N1+99999+99999999999ADDMD1610461+9999REMSYN048AAXX  10231 01009 46/// /1209 1//// 2//// 56046;
0103010090999992013011100004+80650+025000FM-12+000599999V0201301N011019999999N9999999N1+99999+99999999999ADDMD1710532+9999REMSYN058AAXX  11001 01009 46/// /1311 1//// 2//// 57053 333 91112;EQDQ01+000532APC3  
0074010090999992013011101004+80650+025000FM-12+000599999V0201301N008019999999N9999999N1+99999+99999999999ADDMD1810451+9999REMSYN048AAXX  11011 01009 46/// /1308 1//// 2//// 58045;
0074010090999992013011102004+80650+025000FM-12+000599999V0201401N008019999999N9999999N1+99999+99999999999ADDMD1810361+9999REMSYN048AAXX  11021 01009 46/// /1408 1//// 2//// 58036;
0074010090999992013011103004+80650+025000FM-12+000599999V0201501N007019999999N9999999N1+99999+99999999999ADDMD1710291+9999REMSYN048AAXX  11031 01009 46/// /1507 1//// 2//// 57029;
0074010090999992013011104004+80650+025000FM-12+000599999V0202701N009019999999N9999999N1+99999+99999999999ADDMD1810231+9999REMSYN048AAXX  11041 01009 46/// /2709 1//// 2//// 58023;
0074010090999992013011105004+80650+025000FM-12+000599999V0202701N015019999999N9999999N1+99999+99999999999ADDMD1810151+9999REMSYN048AAXX  11051 01009 46/// /2715 1//// 2//// 58015;
0103010090999992013011106004+80650+025000FM-12+000599999V0202801N015019999999N9999999N1+99999+99999999999ADDKA1999N-00361MD1010011+9999REMSYN064AAXX  11061 01009 46/// /2815 1//// 2//// 50001 333 21036 91117;
0074010090999992013011107004+80650+025000FM-12+000599999V0202801N014019999999N9999999N1+99999+99999999999ADDMD1110081+9999REMSYN048AAXX  11071 01009 46/// /2814 1//// 2//// 51008;
0074010090999992013011108004+80650+025000FM-12+000599999V0202801N016019999999N9999999N1+99999+99999999999ADDMD1110181+9999REMSYN048AAXX  11081 01009 46/// /2816 1//// 2//// 51018;
0074010090999992013011109004+80650+025000FM-12+000599999V0202901N014019999999N9999999N1+99999+99999999999ADDMD1210211+9999REMSYN048AAXX  11091 01009 46/// /2914 1//// 2//// 52021;
0074010090999992013011110004+80650+025000FM-12+000599999V0202901N015019999999N9999999N1+99999+99999999999ADDMD1310171+9999REMSYN048AAXX  11101 01009 46/// /2915 1//// 2//// 53017;
0074010090999992013011111004+80650+025000FM-12+000599999V0202901N015019999999N9999999N1+99999+99999999999ADDMD1310131+9999REMSYN048AAXX  11111 01009 46/// /2915 1//// 2//// 53013;
0084010090999992013011112004+80650+025000FM-12+000599999V0202901N010019999999N9999999N1+99999+99999999999ADDMD1110171+9999REMSYN058AAXX  11121 01009 46/// /2910 1//// 2//// 51017 333 91119;
0074010090999992013011113004+80650+025000FM-12+000599999V0202901N010019999999N9999999N1+99999+99999999999ADDMD1210201+9999REMSYN048AAXX  11131 01009 46/// /2910 1//// 2//// 52020;
0074010090999992013011114004+80650+025000FM-12+000599999V0202901N009019999999N9999999N1+99999+99999999999ADDMD1310231+9999REMSYN048AAXX  11141 01009 46/// /2909 1//// 2//// 53023;
0074010090999992013011115004+80650+025000FM-12+000599999V0203201N007019999999N9999999N1+99999+99999999999ADDMD1210201+9999REMSYN048AAXX  11151 01009 46/// /3207 1//// 2//// 52020;
0074010090999992013011116004+80650+025000FM-12+000599999V0203201N005019999999N9999999N1+99999+99999999999ADDMD1110251+9999REMSYN048AAXX  11161 01009 46/// /3205 1//// 2//// 51025;
0074010090999992013011117004+80650+025000FM-12+000599999V0203201N006019999999N9999999N1+99999+99999999999ADDMD1210261+9999REMSYN048AAXX  11171 01009 46/// /3206 1//// 2//// 52026;
0084010090999992013011118004+80650+025000FM-12+000599999V0200401N008019999999N9999999N1+99999+99999999999ADDMD1210251+9999REMSYN058AAXX  11181 01009 46/// /0408 1//// 2//// 52025 333 91113;
0074010090999992013011119004+80650+025000FM-12+000599999V0200701N014019999999N9999999N1+99999+99999999999ADDMD1110331+9999REMSYN048AAXX  11191 01009 46/// /0714 1//// 2//// 51033;
0074010090999992013011120004+80650+025000FM-12+000599999V0200601N012019999999N9999999N1+99999+99999999999ADDMD1110481+9999REMSYN048AAXX  11201 01009 46/// /0612 1//// 2//// 51048;
0093010090999992013011121004+80650+025000FM-12+000599999V0200501N012019999999N9999999N1+99999+99999999999ADDMD1210592+9999REMSYN048AAXX  11211 01009 46/// /0512 1//// 2//// 52059;EQDQ01+000592APC3  
0093010090999992013011122004+80650+025000FM-12+000599999V0200501N010019999999N9999999N1+99999+99999999999ADDMD1310592+9999REMSYN048AAXX  11221 01009 46/// /0510 1//// 2//// 53059;EQDQ01+000592APC3  
0074010090999992013011123004+80650+025000FM-12+000599999V0200501N008019999999N9999999N1+99999+99999999999ADDMD1310481+9999REMSYN048AAXX  11231 01009 46/// /0508 1//// 2//// 53048;
0084010090999992013011200004+80650+025000FM-12+000599999V0200201N011019999999N9999999N1+99999+99999999999ADDMD1310351+9999REMSYN058AAXX  12001 01009 46/// /0211 1//// 2//// 53035 333 91116;
0074010090999992013011201004+80650+025000FM-12+000599999V0200201N011019999999N9999999N1+99999+99999999999ADDMD1210271+9999REMSYN048AAXX  12011 01009 46/// /0211 1//// 2//// 52027;
0074010090999992013011202004+80650+025000FM-12+000599999V0200101N010019999999N9999999N1+99999+99999999999ADDMD1110251+9999REMSYN048AAXX  12021 01009 46/// /0110 1//// 2//// 51025;
0074010090999992013011203004+80650+025000FM-12+000599999V02099999999999999999N9999999N1+99999+99999999999ADDMD1210281+9999REMSYN048AAXX  12031 01009 46/// ///// 1//// 2//// 52028;
0074010090999992013011204004+80650+025000FM-12+000599999V02099999999999999999N9999999N1+99999+99999999999ADDMD1210281+9999REMSYN048AAXX  12041 01009 46/// ///// 1//// 2//// 52028;
0074010090999992013011205004+80650+025000FM-12+000599999V0203601N011019999999N9999999N1+99999+99999999999ADDMD1310211+9999REMSYN048AAXX  12051 01009 46/// /3611 1//// 2//// 53021;
0103010090999992013011206004+80650+025000FM-12+000599999V02099999999999999999N9999999N1+99999+99999999999ADDKA1999N-00881MD1210201+9999REMSYN064AAXX  12061 01009 46/// ///// 1//// 2//// 52020 333 21088 91115;
0074010090999992013011207004+80650+025000FM-12+000599999V0203501N010019999999N9999999N1+99999+99999999999ADDMD1210131+9999REMSYN048AAXX  12071 01009 46/// /3510 1//// 2//// 52013;
0074010090999992013011208004+80650+025000FM-12+000599999V0203501N011019999999N9999999N1+99999+99999999999ADDMD1310131+9999REMSYN048AAXX  12081 01009 46/// /3511 1//// 2//// 53013;
0074010090999992013011209004+80650+025000FM-12+000599999V0203501N010019999999N9999999N1+99999+99999999999ADDMD1210101+9999REMSYN048AAXX  12091 01009 46/// /3510 1//// 2//// 52010;
0074010090999992013011210004+80650+025000FM-12+000599999V0203401N011019999999N9999999N1+99999+99999999999ADDMD1210111+9999REMSYN048AAXX  12101 01009 46/// /3411 1//// 2//// 52011;
0074010090999992013011211004+80650+025000FM-12+000599999V0203401N011019999999N9999999N1+99999+99999999999ADDMD1210111+9999REMSYN048AAXX  12111 01009 46/// /3411 1//// 2//// 52011;
0084010090999992013011212004+80650+025000FM-12+000599999V0203501N011019999999N9999999N1+99999+99999999999ADDMD1210071+9999REMSYN058AAXX  12121 01009 46/// /3511 1//// 2//// 52007 333 91117;
0074010090999992013011213004+80650+025000FM-12+000599999V0203401N012019999999N9999999N1+99999+99999999999ADDMD1310051+9999REMSYN048AAXX  12131 01009 46/// /3412 1//// 2//// 53005;
0074010090999992013011214004+80650+025000FM-12+000599999V0203401N013019999999N9999999N1+99999+99999999999ADDMD1210031+9999REMSYN048AAXX  12141 01009 46/// /3413 1//// 2//// 52003;
0074010090999992013011215004+80650+025000FM-12+000599999V0203401N013019999999N9999999N1+99999+99999999999ADDMD1210041+9999REMSYN048AAXX  12151 01009 46/// /3413 1//// 2//// 52004;
0074010090999992013011216004+80650+025000FM-12+000599999V0203401N014019999999N9999999N1+99999+99999999999ADDMD1210031+9999REMSYN048AAXX  12161 01009 46/// /3414 1//// 2//// 52003;
0074010090999992013011217004+80650+025000FM-12+000599999V0203301N015019999999N9999999N1+99999+99999999999ADDMD1410001+9999REMSYN048AAXX  12171 01009 46/// /3315 1//// 2//// 54001;
0084010090999992013011218004+80650+025000FM-12+000599999V0203401N014019999999N9999999N1+99999+99999999999ADDMD1410001+9999REMSYN058AAXX  12181 01009 46/// /3414 1//// 2//// 54001 333 91119;
0074010090999992013011219004+80650+025000FM-12+000599999V0203401N014019999999N9999999N1+99999+99999999999ADDMD1010031+9999REMSYN048AAXX  12191 01009 46/// /3414 1//// 2//// 50003;
0074010090999992013011220004+80650+025000FM-12+000599999V0203401N012019999999N9999999N1+99999+99999999999ADDMD1110081+9999REMSYN048AAXX  12201 01009 46/// /3412 1//// 2//// 51008;
0074010090999992013011221004+80650+025000FM-12+000599999V0203501N012019999999N9999999N1+99999+99999999999ADDMD1210141+9999REMSYN048AAXX  12211 01009 46/// /3512 1//// 2//// 52014;
0074010090999992013011222004+80650+025000FM-12+000599999V0203401N011019999999N9999999N1+99999+99999999999ADDMD1210121+9999REMSYN048AAXX  12221 01009 46/// /3411 1//// 2//// 52012;
0074010090999992013011223004+80650+025000FM-12+000599999V0203401N012019999999N9999999N1+99999+99999999999ADDMD1310091+9999REMSYN048AAXX  12231 01009 46/// /3412 1//// 2//// 53009;
0084010090999992013011300004+80650+025000FM-12+000599999V0203301N014019999999N9999999N1+99999+99999999999ADDMD1510011+9999REMSYN058AAXX  13001 01009 46/// /3314 1//// 2//// 55001 333 91120;
0074010090999992013011301004+80650+025000FM-12+000599999V0203401N013019999999N9999999N1+99999+99999999999ADDMD1410001+9999REMSYN048AAXX  13011 01009 46/// /3413 1//// 2//// 54003;
0074010090999992013011302004+80650+025000FM-12+000599999V0203501N012019999999N9999999N1+99999+99999999999ADDMD1410001+9999REMSYN048AAXX  13021 01009 46/// /3512 1//// 2//// 54001;
0074010090999992013011303004+80650+025000FM-12+000599999V0203501N011019999999N9999999N1+99999+99999999999ADDMD1210101+9999REMSYN048AAXX  13031 01009 46/// /3511 1//// 2//// 52010;
0074010090999992013011304004+80650+025000FM-12+000599999V0203501N011019999999N9999999N1+99999+99999999999ADDMD1110101+9999REMSYN048AAXX  13041 01009 46/// /3511 1//// 2//// 51010;
0074010090999992013011305004+80650+025000FM-12+000599999V0203401N010019999999N9999999N1+99999+99999999999ADDMD1210151+9999REMSYN048AAXX  13051 01009 46/// /3410 1//// 2//// 52015;
0103010090999992013011306004+80650+025000FM-12+000599999V0203501N010019999999N9999999N1+99999+99999999999ADDKA1999N-01191MD1210131+9999REMSYN064AAXX  13061 01009 46/// /3510 1//// 2//// 52013 333 21119 91118;
0074010090999992013011307004+80650+025000FM-12+000599999V02099999999999999999N9999999N1+99999+99999999999ADDMD1210131+9999REMSYN048AAXX  13071 01009 46/// ///// 1//// 2//// 52013;
0074010090999992013011308004+80650+025000FM-12+000599999V0203401N010019999999N9999999N1+99999+99999999999ADDMD1210111+9999REMSYN048AAXX  13081 01009 46/// /3410 1//// 2//// 52011;
0074010090999992013011309004+80650+025000FM-12+000599999V0203501N009019999999N9999999N1+99999+99999999999ADDMD1210081+9999REMSYN048AAXX  13091 01009 46/// /3509 1//// 2//// 52008;
0074010090999992013011310004+80650+025000FM-12+000599999V0203501N009019999999N9999999N1+99999+99999999999ADDMD1210071+9999REMSYN048AAXX  13101 01009 46/// /3509 1//// 2//// 52007;
0074010090999992013011311004+80650+025000FM-12+000599999V0203501N010019999999N9999999N1+99999+99999999999ADDMD1110101+9999REMSYN048AAXX  13111 01009 46/// /3510 1//// 2//// 51010;
0084010090999992013011312004+80650+025000FM-12+000599999V02099999999999999999N9999999N1+99999+99999999999ADDMD1210121+9999REMSYN058AAXX  13121 01009 46/// ///// 1//// 2//// 52012 333 91116;
0074010090999992013011313004+80650+025000FM-12+000599999V02099999999999999999N9999999N1+99999+99999999999ADDMD1310101+9999REMSYN048AAXX  13131 01009 46/// ///// 1//// 2//// 53010;
0074010090999992013011314004+80650+025000FM-12+000599999V0200101N012019999999N9999999N1+99999+99999999999ADDMD1210051+9999REMSYN048AAXX  13141 01009 46/// /0112 1//// 2//// 52005;
0074010090999992013011315004+80650+025000FM-12+000599999V02099999999999999999N9999999N1+99999+99999999999ADDMD1210041+9999REMSYN048AAXX  13151 01009 46/// ///// 1//// 2//// 52004;
0074010090999992013011316004+80650+025000FM-12+000599999V0200101N012019999999N9999999N1+99999+99999999999ADDMD1210061+9999REMSYN048AAXX  13161 01009 46/// /0112 1//// 2//// 52006;
0074010090999992013011317004+80650+025000FM-12+000599999V0200101N010019999999N9999999N1+99999+99999999999ADDMD1210101+9999REMSYN048AAXX  13171 01009 46/// /0110 1//// 2//// 52010;
0084010090999992013011318004+80650+025000FM-12+000599999V0200101N010019999999N9999999N1+99999+99999999999ADDMD1210101+9999REMSYN058AAXX  13181 01009 46/// /0110 1//// 2//// 52010 333 91115;
0074010090999992013011319004+80650+025000FM-12+000599999V02099999999999999999N9999999N1+99999+99999999999ADDMD1310081+9999REMSYN048AAXX  13191 01009 46/// ///// 1//// 2//// 53008;
0074010090999992013011320004+80650+025000FM-12+000599999V0200101N010019999999N9999999N1+99999+99999999999ADDMD1210041+9999REMSYN048AAXX  13201 01009 46/// /0110 1//// 2//// 52004;
0074010090999992013011321004+80650+025000FM-12+000599999V0200101N011019999999N9999999N1+99999+99999999999ADDMD1110051+9999REMSYN048AAXX  13211 01009 46/// /0111 1//// 2//// 51005;
0074010090999992013011322004+80650+025000FM-12+000599999V0203501N010019999999N9999999N1+99999+99999999999ADDMD1210061+9999REMSYN048AAXX  13221 01009 46/// /3510 1//// 2//// 52006;
0074010090999992013011323004+80650+025000FM-12+000599999V02099999999999999999N9999999N1+99999+99999999999ADDMD1210081+9999REMSYN048AAXX  13231 01009 46/// ///// 1//// 2//// 52008;
0084010090999992013011400004+80650+025000FM-12+000599999V02099999999999999999N9999999N1+99999+99999999999ADDMD1210071+9999REMSYN058AAXX  14001 01009 46/// ///// 1//// 2//// 52007 333 91113;
0074010090999992013011401004+80650+025000FM-12+000599999V02099999999999999999N9999999N1+99999+99999999999ADDMD1210041+9999REMSYN048AAXX  14011 01009 46/// ///// 1//// 2//// 52004;
0074010090999992013011402004+80650+025000FM-12+000599999V02099999999999999999N9999999N1+99999+99999999999ADDMD1210041+9999REMSYN048AAXX  14021 01009 46/// ///// 1//// 2//// 52004;
0074010090999992013011403004+80650+025000FM-12+000599999V02099999999999999999N9999999N1+99999+99999999999ADDMD1410001+9999REMSYN048AAXX  14031 01009 46/// ///// 1//// 2//// 54003;
0074010090999992013011404004+80650+025000FM-12+000599999V02099999999999999999N9999999N1+99999+99999999999ADDMD1410001+9999REMSYN048AAXX  14041 01009 46/// ///// 1//// 2//// 54002;
0074010090999992013011405004+80650+025000FM-12+000599999V0200101N010019999999N9999999N1+99999+99999999999ADDMD1410001+9999REMSYN048AAXX  14051 01009 46/// /0110 1//// 2//// 54003;
0103010090999992013011406004+80650+025000FM-12+000599999V02099999999999999999N9999999N1+99999+99999999999ADDKA1999N-00871MD1210041+9999REMSYN064AAXX  14061 01009 46/// ///// 1//// 2//// 52004 333 21087 91113;
0074010090999992013011407004+80650+025000FM-12+000599999V0200101N008019999999N9999999N1+99999+99999999999ADDMD1210061+9999REMSYN048AAXX  14071 01009 46/// /0108 1//// 2//// 52006;
0074010090999992013011408004+80650+025000FM-12+000599999V0203601N008019999999N9999999N1+99999+99999999999ADDMD1210081+9999REMSYN048AAXX  14081 01009 46/// /3608 1//// 2//// 52008;
0074010090999992013011409004+80650+025000FM-12+000599999V0200101N008019999999N9999999N1+99999+99999999999ADDMD1210091+9999REMSYN048AAXX  14091 01009 46/// /0108 1//// 2//// 52009;
0074010090999992013011410004+80650+025000FM-12+000599999V0200201N007019999999N9999999N1+99999+99999999999ADDMD1210091+9999REMSYN048AAXX  14101 01009 46/// /0207 1//// 2//// 52009;
0074010090999992013011411004+80650+025000FM-12+000599999V0203601N009019999999N9999999N1+99999+99999999999ADDMD1210061+9999REMSYN048AAXX  14111 01009 46/// /3609 1//// 2//// 52006;
0084010090999992013011412004+80650+025000FM-12+000599999V0203501N009019999999N9999999N1+99999+99999999999ADDMD1210041+9999REMSYN058AAXX  14121 01009 46/// /3509 1//// 2//// 52004 333 91112;
0074010090999992013011413004+80650+025000FM-12+000599999V0201201N005019999999N9999999N1+99999+99999999999ADDMD1210041+9999REMSYN048AAXX  14131 01009 46/// /1205 1//// 2//// 52004;
0074010090999992013011414004+80650+025000FM-12+000599999V0200301N003019999999N9999999N1+99999+99999999999ADDMD1210061+9999REMSYN048AAXX  14141 01009 46/// /0303 1//// 2//// 52006;
0074010090999992013011415004+80650+025000FM-12+000599999V02099999999999999999N9999999N1+99999+99999999999ADDMD1310031+9999REMSYN048AAXX  14151 01009 46/// ///// 1//// 2//// 53003;
0074010090999992013011416004+80650+025000FM-12+000599999V0200101N006019999999N9999999N1+99999+99999999999ADDMD1410001+9999REMSYN048AAXX  14161 01009 46/// /0106 1//// 2//// 54003;
0074010090999992013011417004+80650+025000FM-12+000599999V0200101N004019999999N9999999N1+99999+99999999999ADDMD1010021+9999REMSYN048AAXX  14171 01009 46/// /0104 1//// 2//// 50002;
0084010090999992013011418004+80650+025000FM-12+000599999V0203501N005019999999N9999999N1+99999+99999999999ADDMD1510021+9999REMSYN058AAXX  14181 01009 46/// /3505 1//// 2//// 55002 333 91111;
0074010090999992013011419004+80650+025000FM-12+000599999V0203401N006019999999N9999999N1+99999+99999999999ADDMD1510021+9999REMSYN048AAXX  14191 01009 46/// /3406 1//// 2//// 55002;
0074010090999992013011420004+80650+025000FM-12+000599999V0203401N005019999999N9999999N1+99999+99999999999ADDMD1710041+9999REMSYN048AAXX  14201 01009 46/// /3405 1//// 2//// 57004;
0074010090999992013011421004+80650+025000FM-12+000599999V0203401N006019999999N9999999N1+99999+99999999999ADDMD1710041+9999REMSYN048AAXX  14211 01009 46/// /3406 1//// 2//// 57004;
0074010090999992013011422004+80650+025000FM-12+000599999V0203401N006019999999N9999999N1+99999+99999999999ADDMD1410001+9999REMSYN048AAXX  14221 01009 46/// /3406 1//// 2//// 54003;
0074010090999992013011423004+80650+025000FM-12+000599999V0203201N006019999999N9999999N1+99999+99999999999ADDMD1410001+9999REMSYN048AAXX  14231 01009 46/// /3206 1//// 2//// 54001;
0084010090999992013011500004+80650+025000FM-12+000599999V0203101N005019999999N9999999N1+99999+99999999999ADDMD1410001+9999REMSYN058AAXX  15001 01009 46/// /3105 1//// 2//// 54001 333 91108;
0074010090999992013011501004+80650+025000FM-12+000599999V0203101N004019999999N9999999N1+99999+99999999999ADDMD1410001+9999REMSYN048AAXX  15011 01009 46/// /3104 1//// 2//// 54003;
0074010090999992013011502004+80650+025000FM-12+000599999V0202901N002019999999N9999999N1+99999+99999999999ADDMD1510001+9999REMSYN048AAXX  15021 01009 46/// /2902 1//// 2//// 55000;
0074010090999992013011503004+80650+025000FM-12+000599999V0203001N002019999999N9999999N1+99999+99999999999ADDMD1410001+9999REMSYN048AAXX  15031 01009 46/// /3002 1//// 2//// 54002;
0074010090999992013011504004+80650+025000FM-12+000599999V0202601N002019999999N9999999N1+99999+99999999999ADDMD1710071+9999REMSYN048AAXX  15041 01009 46/// /2602 1//// 2//// 57007;
0074010090999992013011505004+80650+025000FM-12+000599999V0202601N002019999999N9999999N1+99999+99999999999ADDMD1710071+9999REMSYN048AAXX  15051 01009 46/// /2602 1//// 2//// 57007;
0103010090999992013011506004+80650+025000FM-12+000599999V0202601N003019999999N9999999N1+99999+99999999999ADDKA1999N-00741MD1710101+9999REMSYN064AAXX  15061 01009 46/// /2603 1//// 2//// 57010 333 21074 91106;
0074010090999992013011507004+80650+025000FM-12+000599999V0202401N002019999999N9999999N1+99999+99999999999ADDMD1710051+9999REMSYN048AAXX  15071 01009 46/// /2402 1//// 2//// 57005;
0074010090999992013011508004+80650+025000FM-12+000599999V0202201N003019999999N9999999N1+99999+99999999999ADDMD1710041+9999REMSYN048AAXX  15081 01009 46/// /2203 1//// 2//// 57004;
0074010090999992013011509004+80650+025000FM-12+000599999V0202001N004019999999N9999999N1+99999+99999999999ADDMD1410001+9999REMSYN048AAXX  15091 01009 46/// /2004 1//// 2//// 54002;
0074010090999992013011510004+80650+025000FM-12+000599999V0201901N004019999999N9999999N1+99999+99999999999ADDMD1410001+9999REMSYN048AAXX  15101 01009 46/// /1904 1//// 2//// 54003;
0074010090999992013011511004+80650+025000FM-12+000599999V0202101N004019999999N9999999N1+99999+99999999999ADDMD1710051+9999REMSYN048AAXX  15111 01009 46/// /2104 1//// 2//// 57005;
0084010090999992013011512004+80650+025000FM-12+000599999V0201801N004019999999N9999999N1+99999+99999999999ADDMD1610071+9999REMSYN058AAXX  15121 01009 46/// /1804 1//// 2//// 56007 333 91106;
0074010090999992013011513004+80650+025000FM-12+000599999V0201901N005019999999N9999999N1+99999+99999999999ADDMD1710101+9999REMSYN048AAXX  15131 01009 46/// /1905 1//// 2//// 57010;
0074010090999992013011514004+80650+025000FM-12+000599999V0201901N005019999999N9999999N1+99999+99999999999ADDMD1710111+9999REMSYN048AAXX  15141 01009 46/// /1905 1//// 2//// 57011;
0074010090999992013011515004+80650+025000FM-12+000599999V0201701N005019999999N9999999N1+99999+99999999999ADDMD1710111+9999REMSYN048AAXX  15151 01009 46/// /1705 1//// 2//// 57011;
0074010090999992013011516004+80650+025000FM-12+000599999V0201701N007019999999N9999999N1+99999+99999999999ADDMD1710121+9999REMSYN048AAXX  15161 01009 46/// /1707 1//// 2//// 57012;
0074010090999992013011517004+80650+025000FM-12+000599999V0201601N007019999999N9999999N1+99999+99999999999ADDMD1710121+9999REMSYN048AAXX  15171 01009 46/// /1607 1//// 2//// 57012;
0074010090999992013011519004+80650+025000FM-12+000599999V0201601N009019999999N9999999N1+99999+99999999999ADDMD1710151+9999REMSYN048AAXX  15191 01009 46/// /1609 1//// 2//// 57015;
0074010090999992013011520004+80650+025000FM-12+000599999V0201601N010019999999N9999999N1+99999+99999999999ADDMD1710181+9999REMSYN048AAXX  15201 01009 46/// /1610 1//// 2//// 57018;
0074010090999992013011521004+80650+025000FM-12+000599999V0201601N010019999999N9999999N1+99999+99999999999ADDMD1710181+9999REMSYN048AAXX  15211 01009 46/// /1610 1//// 2//// 57018;
0074010090999992013011522004+80650+025000FM-12+000599999V0201601N013019999999N9999999N1+99999+99999999999ADDMD1710201+9999REMSYN048AAXX  15221 01009 46/// /1613 1//// 2//// 57020;
0074010090999992013011523004+80650+025000FM-12+000599999V0201501N013019999999N9999999N1+99999+99999999999ADDMD1810161+9999REMSYN048AAXX  15231 01009 46/// /1513 1//// 2//// 58016;
0084010090999992013011600004+80650+025000FM-12+000599999V0201501N013019999999N9999999N1+99999+99999999999ADDMD1710161+9999REMSYN058AAXX  16001 01009 46/// /1513 1//// 2//// 57016 333 91115;
0074010090999992013011601004+80650+025000FM-12+000599999V0201501N014019999999N9999999N1+99999+99999999999ADDMD1610161+9999REMSYN048AAXX  16011 01009 46/// /1514 1//// 2//// 56016;
0074010090999992013011602004+80650+025000FM-12+000599999V0201401N015019999999N9999999N1+99999+99999999999ADDMD1710201+9999REMSYN048AAXX  16021 01009 46/// /1415 1//// 2//// 57020;
0074010090999992013011603004+80650+025000FM-12+000599999V0201401N015019999999N9999999N1+99999+99999999999ADDMD1710191+9999REMSYN048AAXX  16031 01009 46/// /1415 1//// 2//// 57019;
0074010090999992013011604004+80650+025000FM-12+000599999V0201501N015019999999N9999999N1+99999+99999999999ADDMD1710191+9999REMSYN048AAXX  16041 01009 46/// /1515 1//// 2//// 57019;
0074010090999992013011605004+80650+025000FM-12+000599999V0201401N016019999999N9999999N1+99999+99999999999ADDMD1710201+9999REMSYN048AAXX  16051 01009 46/// /1416 1//// 2//// 57020;
0103010090999992013011606004+80650+025000FM-12+000599999V0201301N016019999999N9999999N1+99999+99999999999ADDKA1999N-00701MD1710231+9999REMSYN064AAXX  16061 01009 46/// /1316 1//// 2//// 57023 333 21070 91118;
0074010090999992013011607004+80650+025000FM-12+000599999V0201301N015019999999N9999999N1+99999+99999999999ADDMD1810211+9999REMSYN048AAXX  16071 01009 46/// /1315 1//// 2//// 58021;
0074010090999992013011608004+80650+025000FM-12+000599999V0201201N015019999999N9999999N1+99999+99999999999ADDMD1810171+9999REMSYN048AAXX  16081 01009 46/// /1215 1//// 2//// 58017;
0074010090999992013011609004+80650+025000FM-12+000599999V0201201N015019999999N9999999N1+99999+99999999999ADDMD1710121+9999REMSYN048AAXX  16091 01009 46/// /1215 1//// 2//// 57012;
0074010090999992013011610004+80650+025000FM-12+000599999V0201201N015019999999N9999999N1+99999+99999999999ADDMD1710121+9999REMSYN048AAXX  16101 01009 46/// /1215 1//// 2//// 57012;
0074010090999992013011611004+80650+025000FM-12+000599999V0201301N014019999999N9999999N1+99999+99999999999ADDMD1810071+9999REMSYN048AAXX  16111 01009 46/// /1314 1//// 2//// 58007;
0084010090999992013011612004+80650+025000FM-12+000599999V0201301N014019999999N9999999N1+99999+99999999999ADDMD1710061+9999REMSYN058AAXX  16121 01009 46/// /1314 1//// 2//// 57006 333 91119;
0074010090999992013011613004+80650+025000FM-12+000599999V0201301N014019999999N9999999N1+99999+99999999999ADDMD1610101+9999REMSYN048AAXX  16131 01009 46/// /1314 1//// 2//// 56010;
0074010090999992013011614004+80650+025000FM-12+000599999V0201201N015019999999N9999999N1+99999+99999999999ADDMD1710121+9999REMSYN048AAXX  16141 01009 46/// /1215 1//// 2//// 57012;
0074010090999992013011615004+80650+025000FM-12+000599999V0201201N015019999999N9999999N1+99999+99999999999ADDMD1810101+9999REMSYN048AAXX  16151 01009 46/// /1215 1//// 2//// 58010;
0074010090999992013011616004+80650+025000FM-12+000599999V0201201N014019999999N9999999N1+99999+99999999999ADDMD1410001+9999REMSYN048AAXX  16161 01009 46/// /1214 1//// 2//// 54003;
0074010090999992013011617004+80650+025000FM-12+000599999V0201301N014019999999N9999999N1+99999+99999999999ADDMD1410001+9999REMSYN048AAXX  16171 01009 46/// /1314 1//// 2//// 54002;
0084010090999992013011618004+80650+025000FM-12+000599999V0201201N014019999999N9999999N1+99999+99999999999ADDMD1710031+9999REMSYN058AAXX  16181 01009 46/// /1214 1//// 2//// 57003 333 91119;
0074010090999992013011619004+80650+025000FM-12+000599999V0201301N014019999999N9999999N1+99999+99999999999ADDMD1710031+9999REMSYN048AAXX  16191 01009 46/// /1314 1//// 2//// 57003;
0074010090999992013011620004+80650+025000FM-12+000599999V0201201N014019999999N9999999N1+99999+99999999999ADDMD1010011+9999REMSYN048AAXX  16201 01009 46/// /1214 1//// 2//// 50001;
0074010090999992013011621004+80650+025000FM-12+000599999V0201301N014019999999N9999999N1+99999+99999999999ADDMD1410001+9999REMSYN048AAXX  16211 01009 46/// /1314 1//// 2//// 54000;
0074010090999992013011622004+80650+025000FM-12+000599999V0201201N014019999999N9999999N1+99999+99999999999ADDMD1410001+9999REMSYN048AAXX  16221 01009 46/// /1214 1//// 2//// 54003;
0074010090999992013011623004+80650+025000FM-12+000599999V0201201N013019999999N9999999N1+99999+99999999999ADDMD1410001+9999REMSYN048AAXX  16231 01009 46/// /1213 1//// 2//// 54000;
0084010090999992013011700004+80650+025000FM-12+000599999V0201201N013019999999N9999999N1+99999+99999999999ADDMD1410001+9999REMSYN058AAXX  17001 01009 46/// /1213 1//// 2//// 54001 333 91118;
0074010090999992013011701004+80650+025000FM-12+000599999V0201201N012019999999N9999999N1+99999+99999999999ADDMD1710041+9999REMSYN048AAXX  17011 01009 46/// /1212 1//// 2//// 57004;
0074010090999992013011702004+80650+025000FM-12+000599999V0201101N013019999999N9999999N1+99999+99999999999ADDMD1710051+9999REMSYN048AAXX  17021 01009 46/// /1113 1//// 2//// 57005;
0074010090999992013011703004+80650+025000FM-12+000599999V0201101N012019999999N9999999N1+99999+99999999999ADDMD1710061+9999REMSYN048AAXX  17031 01009 46/// /1112 1//// 2//// 57006;
0074010090999992013011704004+80650+025000FM-12+000599999V0201101N013019999999N9999999N1+99999+99999999999ADDMD1710081+9999REMSYN048AAXX  17041 01009 46/// /1113 1//// 2//// 57008;
0074010090999992013011705004+80650+025000FM-12+000599999V0201101N014019999999N9999999N1+99999+99999999999ADDMD1710081+9999REMSYN048AAXX  17051 01009 46/// /1114 1//// 2//// 57008;
0103010090999992013011706004+80650+025000FM-12+000599999V0201101N015019999999N9999999N1+99999+99999999999ADDKA1999N-00991MD1710071+9999REMSYN064AAXX  17061 01009 46/// /1115 1//// 2//// 57007 333 21099 91117;
0074010090999992013011707004+80650+025000FM-12+000599999V0201101N016019999999N9999999N1+99999+99999999999ADDMD1010011+9999REMSYN048AAXX  17071 01009 46/// /1116 1//// 2//// 50001;
0074010090999992013011708004+80650+025000FM-12+000599999V0201101N013019999999N9999999N1+99999+99999999999ADDMD1110061+9999REMSYN048AAXX  17081 01009 46/// /1113 1//// 2//// 51006;
0074010090999992013011709004+80650+025000FM-12+000599999V0201101N013019999999N9999999N1+99999+99999999999ADDMD1210081+9999REMSYN048AAXX  17091 01009 46/// /1113 1//// 2//// 52008;
0074010090999992013011710004+80650+025000FM-12+000599999V0201001N014019999999N9999999N1+99999+99999999999ADDMD1210071+9999REMSYN048AAXX  17101 01009 46/// /1014 1//// 2//// 52007;
0074010090999992013011711004+80650+025000FM-12+000599999V0201001N013019999999N9999999N1+99999+99999999999ADDMD1210041+9999REMSYN048AAXX  17111 01009 46/// /1013 1//// 2//// 52004;
0084010090999992013011712004+80650+025000FM-12+000599999V0201101N012019999999N9999999N1+99999+99999999999ADDMD1210051+9999REMSYN058AAXX  17121 01009 46/// /1112 1//// 2//// 52005 333 91118;
0074010090999992013011713004+80650+025000FM-12+000599999V0201101N011019999999N9999999N1+99999+99999999999ADDMD1510011+9999REMSYN048AAXX  17131 01009 46/// /1111 1//// 2//// 55001;
0074010090999992013011714004+80650+025000FM-12+000599999V0201001N011019999999N9999999N1+99999+99999999999ADDMD1510021+9999REMSYN048AAXX  17141 01009 46/// /1011 1//// 2//// 55002;
0074010090999992013011715004+80650+025000FM-12+000599999V0201001N011019999999N9999999N1+99999+99999999999ADDMD1710031+9999REMSYN048AAXX  17151 01009 46/// /1011 1//// 2//// 57003;
0074010090999992013011716004+80650+025000FM-12+000599999V0201001N012019999999N9999999N1+99999+99999999999ADDMD1710041+9999REMSYN048AAXX  17161 01009 46/// /1012 1//// 2//// 57004;
0074010090999992013011717004+80650+025000FM-12+000599999V0200901N012019999999N9999999N1+99999+99999999999ADDMD1710041+9999REMSYN048AAXX  17171 01009 46/// /0912 1//// 2//// 57004;
0084010090999992013011718004+80650+025000FM-12+000599999V0201001N012019999999N9999999N1+99999+99999999999ADDMD1710061+9999REMSYN058AAXX  17181 01009 46/// /1012 1//// 2//// 57006 333 91115;
0074010090999992013011719004+80650+025000FM-12+000599999V0201001N012019999999N9999999N1+99999+99999999999ADDMD1010021+9999REMSYN048AAXX  17191 01009 46/// /1012 1//// 2//// 50002;
0074010090999992013011720004+80650+025000FM-12+000599999V0201001N011019999999N9999999N1+99999+99999999999ADDMD1110031+9999REMSYN048AAXX  17201 01009 46/// /1011 1//// 2//// 51003;
0074010090999992013011721004+80650+025000FM-12+000599999V0201101N010019999999N9999999N1+99999+99999999999ADDMD1210041+9999REMSYN048AAXX  17211 01009 46/// /1110 1//// 2//// 52004;
0074010090999992013011722004+80650+025000FM-12+000599999V0201101N011019999999N9999999N1+99999+99999999999ADDMD1210041+9999REMSYN048AAXX  17221 01009 46/// /1111 1//// 2//// 52004;
0074010090999992013011723004+80650+025000FM-12+000599999V0201001N012019999999N9999999N1+99999+99999999999ADDMD1410001+9999REMSYN048AAXX  17231 01009 46/// /1012 1//// 2//// 54002;
0084010090999992013011800004+80650+025000FM-12+000599999V0201001N012019999999N9999999N1+99999+99999999999ADDMD1210061+9999REMSYN058AAXX  18001 01009 46/// /1012 1//// 2//// 52006 333 91115;
0074010090999992013011801004+80650+025000FM-12+000599999V0200901N011019999999N9999999N1+99999+99999999999ADDMD1210061+9999REMSYN048AAXX  18011 01009 46/// /0911 1//// 2//// 52006;
0074010090999992013011802004+80650+025000FM-12+000599999V0201001N011019999999N9999999N1+99999+99999999999ADDMD1210071+9999REMSYN048AAXX  18021 01009 46/// /1011 1//// 2//// 52007;
0074010090999992013011803004+80650+025000FM-12+000599999V0201001N010019999999N9999999N1+99999+99999999999ADDMD1210061+9999REMSYN048AAXX  18031 01009 46/// /1010 1//// 2//// 52006;
0074010090999992013011804004+80650+025000FM-12+000599999V0201001N010019999999N9999999N1+99999+99999999999ADDMD1110101+9999REMSYN048AAXX  18041 01009 46/// /1010 1//// 2//// 51010;
0074010090999992013011805004+80650+025000FM-12+000599999V0200801N010019999999N9999999N1+99999+99999999999ADDMD1210091+9999REMSYN048AAXX  18051 01009 46/// /0810 1//// 2//// 52009;
0103010090999992013011806004+80650+025000FM-12+000599999V0200701N009019999999N9999999N1+99999+99999999999ADDKA1999N-00971MD1210091+9999REMSYN064AAXX  18061 01009 46/// /0709 1//// 2//// 52009 333 21097 91114;
0074010090999992013011807004+80650+025000FM-12+000599999V0200901N009019999999N9999999N1+99999+99999999999ADDMD1210051+9999REMSYN048AAXX  18071 01009 46/// /0909 1//// 2//// 52005;
0074010090999992013011808004+80650+025000FM-12+000599999V0200801N010019999999N9999999N1+99999+99999999999ADDMD1210081+9999REMSYN048AAXX  18081 01009 46/// /0810 1//// 2//// 52008;
0074010090999992013011809004+80650+025000FM-12+000599999V0200701N010019999999N9999999N1+99999+99999999999ADDMD1210091+9999REMSYN048AAXX  18091 01009 46/// /0710 1//// 2//// 52009;
0074010090999992013011810004+80650+025000FM-12+000599999V0200801N009019999999N9999999N1+99999+99999999999ADDMD1210121+9999REMSYN048AAXX  18101 01009 46/// /0809 1//// 2//// 52012;
0074010090999992013011811004+80650+025000FM-12+000599999V0200801N009019999999N9999999N1+99999+99999999999ADDMD1210121+9999REMSYN048AAXX  18111 01009 46/// /0809 1//// 2//// 52012;
0084010090999992013011812004+80650+025000FM-12+000599999V0200701N009019999999N9999999N1+99999+99999999999ADDMD1210131+9999REMSYN058AAXX  18121 01009 46/// /0709 1//// 2//// 52013 333 91113;
0074010090999992013011813004+80650+025000FM-12+000599999V0200801N010019999999N9999999N1+99999+99999999999ADDMD1310091+9999REMSYN048AAXX  18131 01009 46/// /0810 1//// 2//// 53009;
0074010090999992013011814004+80650+025000FM-12+000599999V0200701N010019999999N9999999N1+99999+99999999999ADDMD1210111+9999REMSYN048AAXX  18141 01009 46/// /0710 1//// 2//// 52011;
0074010090999992013011815004+80650+025000FM-12+000599999V0200701N009019999999N9999999N1+99999+99999999999ADDMD1110121+9999REMSYN048AAXX  18151 01009 46/// /0709 1//// 2//// 51012;
0074010090999992013011816004+80650+025000FM-12+000599999V0200701N009019999999N9999999N1+99999+99999999999ADDMD1210181+9999REMSYN048AAXX  18161 01009 46/// /0709 1//// 2//// 52018;
0074010090999992013011817004+80650+025000FM-12+000599999V0200701N010019999999N9999999N1+99999+99999999999ADDMD1210161+9999REMSYN048AAXX  18171 01009 46/// /0710 1//// 2//// 52016;
0084010090999992013011818004+80650+025000FM-12+000599999V0200701N010019999999N9999999N1+99999+99999999999ADDMD1210141+9999REMSYN058AAXX  18181 01009 46/// /0710 1//// 2//// 52014 333 91112;
0074010090999992013011819004+80650+025000FM-12+000599999V0200801N008019999999N9999999N1+99999+99999999999ADDMD1110151+9999REMSYN048AAXX  18191 01009 46/// /0808 1//// 2//// 51015;
0074010090999992013011820004+80650+025000FM-12+000599999V0200601N007019999999N9999999N1+99999+99999999999ADDMD1210171+9999REMSYN048AAXX  18201 01009 46/// /0607 1//// 2//// 52017;
0074010090999992013011821004+80650+025000FM-12+000599999V0200801N006019999999N9999999N1+99999+99999999999ADDMD1210181+9999REMSYN048AAXX  18211 01009 46/// /0806 1//// 2//// 52018;
0074010090999992013011822004+80650+025000FM-12+000599999V0200501N006019999999N9999999N1+99999+99999999999ADDMD1210181+9999REMSYN048AAXX  18221 01009 46/// /0506 1//// 2//// 52018;
0074010090999992013011823004+80650+025000FM-12+000599999V0200801N004019999999N9999999N1+99999+99999999999ADDMD1210181+9999REMSYN048AAXX  18231 01009 46/// /0804 1//// 2//// 52018;
0084010090999992013011900004+80650+025000FM-12+000599999V0200601N006019999999N9999999N1+99999+99999999999ADDMD1310151+9999REMSYN058AAXX  19001 01009 46/// /0606 1//// 2//// 53015 333 91110;
0074010090999992013011901004+80650+025000FM-12+000599999V0200701N007019999999N9999999N1+99999+99999999999ADDMD1210121+9999REMSYN048AAXX  19011 01009 46/// /0707 1//// 2//// 52012;
0074010090999992013011902004+80650+025000FM-12+000599999V0200701N006019999999N9999999N1+99999+99999999999ADDMD1210101+9999REMSYN048AAXX  19021 01009 46/// /0706 1//// 2//// 52010;
0074010090999992013011903004+80650+025000FM-12+000599999V0200701N006019999999N9999999N1+99999+99999999999ADDMD1310071+9999REMSYN048AAXX  19031 01009 46/// /0706 1//// 2//// 53007;
0074010090999992013011904004+80650+025000FM-12+000599999V0200801N005019999999N9999999N1+99999+99999999999ADDMD1210071+9999REMSYN048AAXX  19041 01009 46/// /0805 1//// 2//// 52007;
0074010090999992013011905004+80650+025000FM-12+000599999V0200601N006019999999N9999999N1+99999+99999999999ADDMD1110051+9999REMSYN048AAXX  19051 01009 46/// /0606 1//// 2//// 51005;
0103010090999992013011906004+80650+025000FM-12+000599999V0201101N005019999999N9999999N1+99999+99999999999ADDKA1999N-01111MD1310061+9999REMSYN064AAXX  19061 01009 46/// /1105 1//// 2//// 53006 333 21111 91110;
0074010090999992013011907004+80650+025000FM-12+000599999V0200901N004019999999N9999999N1+99999+99999999999ADDMD1210041+9999REMSYN048AAXX  19071 01009 46/// /0904 1//// 2//// 52004;
0074010090999992013011908004+80650+025000FM-12+000599999V0201101N003019999999N9999999N1+99999+99999999999ADDMD1110041+9999REMSYN048AAXX  19081 01009 46/// /1103 1//// 2//// 51004;
0074010090999992013011909004+80650+025000FM-12+000599999V0200901N002019999999N9999999N1+99999+99999999999ADDMD1210051+9999REMSYN048AAXX  19091 01009 46/// /0902 1//// 2//// 52005;
0074010090999992013011910004+80650+025000FM-12+000599999V0201301N002019999999N9999999N1+99999+99999999999ADDMD1510031+9999REMSYN048AAXX  19101 01009 46/// /1302 1//// 2//// 55003;
0074010090999992013011911004+80650+025000FM-12+000599999V0200501N004019999999N9999999N1+99999+99999999999ADDMD1410001+9999REMSYN048AAXX  19111 01009 46/// /0504 1//// 2//// 54002;
0084010090999992013011912004+80650+025000FM-12+000599999V0201001N004019999999N9999999N1+99999+99999999999ADDMD1710051+9999REMSYN058AAXX  19121 01009 46/// /1004 1//// 2//// 57005 333 91108;
0074010090999992013011913004+80650+025000FM-12+000599999V0200801N001019999999N9999999N1+99999+99999999999ADDMD1710051+9999REMSYN048AAXX  19131 01009 46/// /0801 1//// 2//// 57005;
0074010090999992013011914004+80650+025000FM-12+000599999V0201201N002019999999N9999999N1+99999+99999999999ADDMD1710061+9999REMSYN048AAXX  19141 01009 46/// /1202 1//// 2//// 57006;
0074010090999992013011915004+80650+025000FM-12+000599999V0201101N003019999999N9999999N1+99999+99999999999ADDMD1710061+9999REMSYN048AAXX  19151 01009 46/// /1103 1//// 2//// 57006;
0074010090999992013011916004+80650+025000FM-12+000599999V0201301N004019999999N9999999N1+99999+99999999999ADDMD1710081+9999REMSYN048AAXX  19161 01009 46/// /1304 1//// 2//// 57008;
0074010090999992013011917004+80650+025000FM-12+000599999V0201301N004019999999N9999999N1+99999+99999999999ADDMD1610151+9999REMSYN048AAXX  19171 01009 46/// /1304 1//// 2//// 56015;
0084010090999992013011918004+80650+025000FM-12+000599999V0201401N004019999999N9999999N1+99999+99999999999ADDMD1710151+9999REMSYN058AAXX  19181 01009 46/// /1404 1//// 2//// 57015 333 91107;
0074010090999992013011919004+80650+025000FM-12+000599999V0201601N004019999999N9999999N1+99999+99999999999ADDMD1810161+9999REMSYN048AAXX  19191 01009 46/// /1604 1//// 2//// 58016;
0074010090999992013011920004+80650+025000FM-12+000599999V0201801N007019999999N9999999N1+99999+99999999999ADDMD1710091+9999REMSYN048AAXX  19201 01009 46/// /1807 1//// 2//// 57009;
0074010090999992013011921004+80650+025000FM-12+000599999V0201601N008019999999N9999999N1+99999+99999999999ADDMD1610151+9999REMSYN048AAXX  19211 01009 46/// /1608 1//// 2//// 56015;
0074010090999992013011922004+80650+025000FM-12+000599999V0201601N009019999999N9999999N1+99999+99999999999ADDMD1610211+9999REMSYN048AAXX  19221 01009 46/// /1609 1//// 2//// 56021;
0074010090999992013011923004+80650+025000FM-12+000599999V0201501N009019999999N9999999N1+99999+99999999999ADDMD1710291+9999REMSYN048AAXX  19231 01009 46/// /1509 1//// 2//// 57029;
0084010090999992013012000004+80650+025000FM-12+000599999V0201501N010019999999N9999999N1+99999+99999999999ADDMD1710291+9999REMSYN058AAXX  20001 01009 46/// /1510 1//// 2//// 57029 333 91113;
0074010090999992013012001004+80650+025000FM-12+000599999V0201401N010019999999N9999999N1+99999+99999999999ADDMD1810271+9999REMSYN048AAXX  20011 01009 46/// /1410 1//// 2//// 58027;
0074010090999992013012002004+80650+025000FM-12+000599999V0201301N010019999999N9999999N1+99999+99999999999ADDMD1610341+9999REMSYN048AAXX  20021 01009 46/// /1310 1//// 2//// 56034;
0074010090999992013012003004+80650+025000FM-12+000599999V0201501N008019999999N9999999N1+99999+99999999999ADDMD1710321+9999REMSYN048AAXX  20031 01009 46/// /1508 1//// 2//// 57032;
0074010090999992013012004004+80650+025000FM-12+000599999V0201501N006019999999N9999999N1+99999+99999999999ADDMD1810341+9999REMSYN048AAXX  20041 01009 46/// /1506 1//// 2//// 58034;
0074010090999992013012005004+80650+025000FM-12+000599999V0201401N007019999999N9999999N1+99999+99999999999ADDMD1610281+9999REMSYN048AAXX  20051 01009 46/// /1407 1//// 2//// 56028;
0103010090999992013012006004+80650+025000FM-12+000599999V0201501N007019999999N9999999N1+99999+99999999999ADDKA1999N-01121MD1710351+9999REMSYN064AAXX  20061 01009 46/// /1507 1//// 2//// 57035 333 21112 91113;
0074010090999992013012007004+80650+025000FM-12+000599999V0201401N007019999999N9999999N1+99999+99999999999ADDMD1710351+9999REMSYN048AAXX  20071 01009 46/// /1407 1//// 2//// 57035;
0074010090999992013012008004+80650+025000FM-12+000599999V0201401N008019999999N9999999N1+99999+99999999999ADDMD1810311+9999REMSYN048AAXX  20081 01009 46/// /1408 1//// 2//// 58031;
0074010090999992013012009004+80650+025000FM-12+000599999V0201401N011019999999N9999999N1+99999+99999999999ADDMD1710301+9999REMSYN048AAXX  20091 01009 46/// /1411 1//// 2//// 57030;
0074010090999992013012010004+80650+025000FM-12+000599999V0201401N013019999999N9999999N1+99999+99999999999ADDMD1610341+9999REMSYN048AAXX  20101 01009 46/// /1413 1//// 2//// 56034;
0074010090999992013012011004+80650+025000FM-12+000599999V0201401N015019999999N9999999N1+99999+99999999999ADDMD1810351+9999REMSYN048AAXX  20111 01009 46/// /1415 1//// 2//// 58035;
0084010090999992013012012004+80650+025000FM-12+000599999V0201401N017019999999N9999999N1+99999+99999999999ADDMD1710361+9999REMSYN058AAXX  20121 01009 46/// /1417 1//// 2//// 57036 333 91121;
0074010090999992013012013004+80650+025000FM-12+000599999V0201301N018019999999N9999999N1+99999+99999999999ADDMD1810261+9999REMSYN048AAXX  20131 01009 46/// /1318 1//// 2//// 58026;
0074010090999992013012014004+80650+025000FM-12+000599999V0201301N018019999999N9999999N1+99999+99999999999ADDMD1810211+9999REMSYN048AAXX  20141 01009 46/// /1318 1//// 2//// 58021;
0074010090999992013012015004+80650+025000FM-12+000599999V0201301N019019999999N9999999N1+99999+99999999999ADDMD1710101+9999REMSYN048AAXX  20151 01009 46/// /1319 1//// 2//// 57010;
0074010090999992013012016004+80650+025000FM-12+000599999V0201301N018019999999N9999999N1+99999+99999999999ADDMD1010011+9999REMSYN048AAXX  20161 01009 46/// /1318 1//// 2//// 50001;
0074010090999992013012018004+80650+025000FM-12+000599999V0201201N020019999999N9999999N1+99999+99999999999ADDMD1210091+9999REMSYN048AAXX  20181 01009 46/// /1220 1//// 2//// 52009;
0074010090999992013012019004+80650+025000FM-12+000599999V0201201N018019999999N9999999N1+99999+99999999999ADDMD1110171+9999REMSYN048AAXX  20191 01009 46/// /1218 1//// 2//// 51017;
0074010090999992013012020004+80650+025000FM-12+000599999V0201201N017019999999N9999999N1+99999+99999999999ADDMD1110261+9999REMSYN048AAXX  20201 01009 46/// /1217 1//// 2//// 51026;
0074010090999992013012021004+80650+025000FM-12+000599999V0201201N016019999999N9999999N1+99999+99999999999ADDMD1310301+9999REMSYN048AAXX  20211 01009 46/// /1216 1//// 2//// 53030;
0074010090999992013012022004+80650+025000FM-12+000599999V0201101N014019999999N9999999N1+99999+99999999999ADDMD1210281+9999REMSYN048AAXX  20221 01009 46/// /1114 1//// 2//// 52028;
0074010090999992013012023004+80650+025000FM-12+000599999V0201101N014019999999N9999999N1+99999+99999999999ADDMD1210271+9999REMSYN048AAXX  20231 01009 46/// /1114 1//// 2//// 52027;
0084010090999992013012100004+80650+025000FM-12+000599999V0201001N014019999999N9999999N1+99999+99999999999ADDMD1210261+9999REMSYN058AAXX  21001 01009 46/// /1014 1//// 2//// 52026 333 91122;
0074010090999992013012101004+80650+025000FM-12+000599999V0201001N015019999999N9999999N1+99999+99999999999ADDMD1210231+9999REMSYN048AAXX  21011 01009 46/// /1015 1//// 2//// 52023;
0074010090999992013012102004+80650+025000FM-12+000599999V0200901N015019999999N9999999N1+99999+99999999999ADDMD1110271+9999REMSYN048AAXX  21021 01009 46/// /0915 1//// 2//// 51027;
0074010090999992013012103004+80650+025000FM-12+000599999V0200901N014019999999N9999999N1+99999+99999999999ADDMD1210261+9999REMSYN048AAXX  21031 01009 46/// /0914 1//// 2//// 52026;
0074010090999992013012104004+80650+025000FM-12+000599999V0200801N013019999999N9999999N1+99999+99999999999ADDMD1210291+9999REMSYN048AAXX  21041 01009 46/// /0813 1//// 2//// 52029;
0074010090999992013012105004+80650+025000FM-12+000599999V0200701N011019999999N9999999N1+99999+99999999999ADDMD1210251+9999REMSYN048AAXX  21051 01009 46/// /0711 1//// 2//// 52025;
0103010090999992013012106004+80650+025000FM-12+000599999V0200601N011019999999N9999999N1+99999+99999999999ADDKA1999N-01501MD1310241+9999REMSYN064AAXX  21061 01009 46/// /0611 1//// 2//// 53024 333 21150 91117;
0074010090999992013012107004+80650+025000FM-12+000599999V0200601N011019999999N9999999N1+99999+99999999999ADDMD1210191+9999REMSYN048AAXX  21071 01009 46/// /0611 1//// 2//// 52019;
0074010090999992013012108004+80650+025000FM-12+000599999V0200801N011019999999N9999999N1+99999+99999999999ADDMD1210161+9999REMSYN048AAXX  21081 01009 46/// /0811 1//// 2//// 52016;
0074010090999992013012109004+80650+025000FM-12+000599999V0200701N011019999999N9999999N1+99999+99999999999ADDMD1210161+9999REMSYN048AAXX  21091 01009 46/// /0711 1//// 2//// 52016;
0074010090999992013012110004+80650+025000FM-12+000599999V0200801N011019999999N9999999N1+99999+99999999999ADDMD1210151+9999REMSYN048AAXX  21101 01009 46/// /0811 1//// 2//// 52015;
0074010090999992013012111004+80650+025000FM-12+000599999V0200601N012019999999N9999999N1+99999+99999999999ADDMD1210151+9999REMSYN048AAXX  21111 01009 46/// /0612 1//// 2//// 52015;
0084010090999992013012112004+80650+025000FM-12+000599999V0200601N013019999999N9999999N1+99999+99999999999ADDMD1210131+9999REMSYN058AAXX  21121 01009 46/// /0613 1//// 2//// 52013 333 91115;
0074010090999992013012113004+80650+025000FM-12+000599999V0200601N011019999999N9999999N1+99999+99999999999ADDMD1210121+9999REMSYN048AAXX  21131 01009 46/// /0611 1//// 2//// 52012;
0074010090999992013012114004+80650+025000FM-12+000599999V0200801N012019999999N9999999N1+99999+99999999999ADDMD1210121+9999REMSYN048AAXX  21141 01009 46/// /0812 1//// 2//// 52012;
0074010090999992013012115004+80650+025000FM-12+000599999V0200701N012019999999N9999999N1+99999+99999999999ADDMD1210121+9999REMSYN048AAXX  21151 01009 46/// /0712 1//// 2//// 52012;
0074010090999992013012116004+80650+025000FM-12+000599999V0200701N012019999999N9999999N1+99999+99999999999ADDMD1210101+9999REMSYN048AAXX  21161 01009 46/// /0712 1//// 2//// 52010;
0074010090999992013012117004+80650+025000FM-12+000599999V0200701N012019999999N9999999N1+99999+99999999999ADDMD1210101+9999REMSYN048AAXX  21171 01009 46/// /0712 1//// 2//// 52010;
0084010090999992013012118004+80650+025000FM-12+000599999V0200601N013019999999N9999999N1+99999+99999999999ADDMD1110111+9999REMSYN058AAXX  21181 01009 46/// /0613 1//// 2//// 51011 333 91116;
0074010090999992013012119004+80650+025000FM-12+000599999V0200601N013019999999N9999999N1+99999+99999999999ADDMD1210141+9999REMSYN048AAXX  21191 01009 46/// /0613 1//// 2//// 52014;
0074010090999992013012120004+80650+025000FM-12+000599999V0200601N014019999999N9999999N1+99999+99999999999ADDMD1210141+9999REMSYN048AAXX  21201 01009 46/// /0614 1//// 2//// 52014;
0074010090999992013012121004+80650+025000FM-12+000599999V0200701N014019999999N9999999N1+99999+99999999999ADDMD1210151+9999REMSYN048AAXX  21211 01009 46/// /0714 1//// 2//// 52015;
0074010090999992013012122004+80650+025000FM-12+000599999V0200601N014019999999N9999999N1+99999+99999999999ADDMD1210161+9999REMSYN048AAXX  21221 01009 46/// /0614 1//// 2//// 52016;
0074010090999992013012123004+80650+025000FM-12+000599999V0200601N015019999999N9999999N1+99999+99999999999ADDMD1310141+9999REMSYN048AAXX  21231 01009 46/// /0615 1//// 2//// 53014;
0084010090999992013012200004+80650+025000FM-12+000599999V0200601N015019999999N9999999N1+99999+99999999999ADDMD1310091+9999REMSYN058AAXX  22001 01009 46/// /0615 1//// 2//// 53009 333 91118;
0074010090999992013012201004+80650+025000FM-12+000599999V0200501N014019999999N9999999N1+99999+99999999999ADDMD1210041+9999REMSYN048AAXX  22011 01009 46/// /0514 1//// 2//// 52004;
0074010090999992013012202004+80650+025000FM-12+000599999V0200501N014019999999N9999999N1+99999+99999999999ADDMD1410001+9999REMSYN048AAXX  22021 01009 46/// /0514 1//// 2//// 54001;
0074010090999992013012203004+80650+025000FM-12+000599999V0200501N015019999999N9999999N1+99999+99999999999ADDMD1610051+9999REMSYN048AAXX  22031 01009 46/// /0515 1//// 2//// 56005;
0074010090999992013012204004+80650+025000FM-12+000599999V0200501N015019999999N9999999N1+99999+99999999999ADDMD1710061+9999REMSYN048AAXX  22041 01009 46/// /0515 1//// 2//// 57006;
0074010090999992013012205004+80650+025000FM-12+000599999V0200501N015019999999N9999999N1+99999+99999999999ADDMD1710101+9999REMSYN048AAXX  22051 01009 46/// /0515 1//// 2//// 57010;
0103010090999992013012206004+80650+025000FM-12+000599999V0200401N016019999999N9999999N1+99999+99999999999ADDKA1999N-01191MD1710081+9999REMSYN064AAXX  22061 01009 46/// /0416 1//// 2//// 57008 333 21119 91119;
0074010090999992013012207004+80650+025000FM-12+000599999V0200501N016019999999N9999999N1+99999+99999999999ADDMD1810091+9999REMSYN048AAXX  22071 01009 46/// /0516 1//// 2//// 58009;
0074010090999992013012208004+80650+025000FM-12+000599999V0200501N015019999999N9999999N1+99999+99999999999ADDMD1010001+9999REMSYN048AAXX  22081 01009 46/// /0515 1//// 2//// 50000;
0074010090999992013012209004+80650+025000FM-12+000599999V0200501N016019999999N9999999N1+99999+99999999999ADDMD1410001+9999REMSYN048AAXX  22091 01009 46/// /0516 1//// 2//// 54000;
0074010090999992013012210004+80650+025000FM-12+000599999V0200501N014019999999N9999999N1+99999+99999999999ADDMD1210051+9999REMSYN048AAXX  22101 01009 46/// /0514 1//// 2//// 52005;
0074010090999992013012211004+80650+025000FM-12+000599999V0200601N013019999999N9999999N1+99999+99999999999ADDMD1410001+9999REMSYN048AAXX  22111 01009 46/// /0613 1//// 2//// 54000;
0084010090999992013012212004+80650+025000FM-12+000599999V0200601N013019999999N9999999N1+99999+99999999999ADDMD1210031+9999REMSYN058AAXX  22121 01009 46/// /0613 1//// 2//// 52003 333 91119;
0074010090999992013012213004+80650+025000FM-12+000599999V0200501N012019999999N9999999N1+99999+99999999999ADDMD1410001+9999REMSYN048AAXX  22131 01009 46/// /0512 1//// 2//// 54001;
0074010090999992013012214004+80650+025000FM-12+000599999V0200501N013019999999N9999999N1+99999+99999999999ADDMD1410001+9999REMSYN048AAXX  22141 01009 46/// /0513 1//// 2//// 54002;
0074010090999992013012215004+80650+025000FM-12+000599999V0200501N012019999999N9999999N1+99999+99999999999ADDMD1510031+9999REMSYN048AAXX  22151 01009 46/// /0512 1//// 2//// 55003;
0074010090999992013012216004+80650+025000FM-12+000599999V0200701N012019999999N9999999N1+99999+99999999999ADDMD1410001+9999REMSYN048AAXX  22161 01009 46/// /0712 1//// 2//// 54003;
0074010090999992013012217004+80650+025000FM-12+000599999V0200601N011019999999N9999999N1+99999+99999999999ADDMD1010001+9999REMSYN048AAXX  22171 01009 46/// /0611 1//// 2//// 50000;
0084010090999992013012218004+80650+025000FM-12+000599999V0200701N011019999999N9999999N1+99999+99999999999ADDMD1210061+9999REMSYN058AAXX  22181 01009 46/// /0711 1//// 2//// 52006 333 91116;
0074010090999992013012219004+80650+025000FM-12+000599999V0200801N009019999999N9999999N1+99999+99999999999ADDMD1210101+9999REMSYN048AAXX  22191 01009 46/// /0809 1//// 2//// 52010;
0074010090999992013012220004+80650+025000FM-12+000599999V0200701N010019999999N9999999N1+99999+99999999999ADDMD1210101+9999REMSYN048AAXX  22201 01009 46/// /0710 1//// 2//// 52010;
0074010090999992013012221004+80650+025000FM-12+000599999V0200701N011019999999N9999999N1+99999+99999999999ADDMD1210111+9999REMSYN048AAXX  22211 01009 46/// /0711 1//// 2//// 52011;
0074010090999992013012222004+80650+025000FM-12+000599999V0200601N012019999999N9999999N1+99999+99999999999ADDMD1210071+9999REMSYN048AAXX  22221 01009 46/// /0612 1//// 2//// 52007;
0074010090999992013012223004+80650+025000FM-12+000599999V0200701N013019999999N9999999N1+99999+99999999999ADDMD1310041+9999REMSYN048AAXX  22231 01009 46/// /0713 1//// 2//// 53004;
0084010090999992013012300004+80650+025000FM-12+000599999V0200901N015019999999N9999999N1+99999+99999999999ADDMD1210031+9999REMSYN058AAXX  23001 01009 46/// /0915 1//// 2//// 52003 333 91117;
0074010090999992013012301004+80650+025000FM-12+000599999V0200901N015019999999N9999999N1+99999+99999999999ADDMD1110081+9999REMSYN048AAXX  23011 01009 46/// /0915 1//// 2//// 51008;
0074010090999992013012302004+80650+025000FM-12+000599999V0200901N014019999999N9999999N1+99999+99999999999ADDMD1110191+9999REMSYN048AAXX  23021 01009 46/// /0914 1//// 2//// 51019;
0074010090999992013012303004+80650+025000FM-12+000599999V0200801N014019999999N9999999N1+99999+99999999999ADDMD1110281+9999REMSYN048AAXX  23031 01009 46/// /0814 1//// 2//// 51028;
0074010090999992013012304004+80650+025000FM-12+000599999V0200801N013019999999N9999999N1+99999+99999999999ADDMD1310261+9999REMSYN048AAXX  23041 01009 46/// /0813 1//// 2//// 53026;
0074010090999992013012305004+80650+025000FM-12+000599999V0200901N012019999999N9999999N1+99999+99999999999ADDMD1310201+9999REMSYN048AAXX  23051 01009 46/// /0912 1//// 2//// 53020;
0103010090999992013012306004+80650+025000FM-12+000599999V0200901N012019999999N9999999N1+99999+99999999999ADDKA1999N-01151MD1210141+9999REMSYN064AAXX  23061 01009 46/// /0912 1//// 2//// 52014 333 21115 91118;
0074010090999992013012307004+80650+025000FM-12+000599999V0200901N012019999999N9999999N1+99999+99999999999ADDMD1210141+9999REMSYN048AAXX  23071 01009 46/// /0912 1//// 2//// 52014;
0074010090999992013012308004+80650+025000FM-12+000599999V0200901N013019999999N9999999N1+99999+99999999999ADDMD1210131+9999REMSYN048AAXX  23081 01009 46/// /0913 1//// 2//// 52013;
0074010090999992013012309004+80650+025000FM-12+000599999V0201001N014019999999N9999999N1+99999+99999999999ADDMD1210141+9999REMSYN048AAXX  23091 01009 46/// /1014 1//// 2//// 52014;
0074010090999992013012310004+80650+025000FM-12+000599999V0200901N013019999999N9999999N1+99999+99999999999ADDMD1110161+9999REMSYN048AAXX  23101 01009 46/// /0913 1//// 2//// 51016;
0074010090999992013012311004+80650+025000FM-12+000599999V0200901N013019999999N9999999N1+99999+99999999999ADDMD1210191+9999REMSYN048AAXX  23111 01009 46/// /0913 1//// 2//// 52019;
0084010090999992013012312004+80650+025000FM-12+000599999V0201001N013019999999N9999999N1+99999+99999999999ADDMD1310161+9999REMSYN058AAXX  23121 01009 46/// /1013 1//// 2//// 53016 333 91116;
0074010090999992013012313004+80650+025000FM-12+000599999V0200801N013019999999N9999999N1+99999+99999999999ADDMD1210141+9999REMSYN048AAXX  23131 01009 46/// /0813 1//// 2//// 52014;
0074010090999992013012314004+80650+025000FM-12+000599999V0200901N011019999999N9999999N1+99999+99999999999ADDMD1210091+9999REMSYN048AAXX  23141 01009 46/// /0911 1//// 2//// 52009;
0074010090999992013012315004+80650+025000FM-12+000599999V0200701N011019999999N9999999N1+99999+99999999999ADDMD1210101+9999REMSYN048AAXX  23151 01009 46/// /0711 1//// 2//// 52010;
0074010090999992013012316004+80650+025000FM-12+000599999V0200901N010019999999N9999999N1+99999+99999999999ADDMD1210041+9999REMSYN048AAXX  23161 01009 46/// /0910 1//// 2//// 52004;
0074010090999992013012317004+80650+025000FM-12+000599999V0200701N010019999999N9999999N1+99999+99999999999ADDMD1210041+9999REMSYN048AAXX  23171 01009 46/// /0710 1//// 2//// 52004;
0084010090999992013012318004+80650+025000FM-12+000599999V0200801N009019999999N9999999N1+99999+99999999999ADDMD1410001+9999REMSYN058AAXX  23181 01009 46/// /0809 1//// 2//// 54001 333 91115;
0074010090999992013012319004+80650+025000FM-12+000599999V0200601N009019999999N9999999N1+99999+99999999999ADDMD1410001+9999REMSYN048AAXX  23191 01009 46/// /0609 1//// 2//// 54000;
0074010090999992013012320004+80650+025000FM-12+000599999V0200701N009019999999N9999999N1+99999+99999999999ADDMD1410001+9999REMSYN048AAXX  23201 01009 46/// /0709 1//// 2//// 54002;
0074010090999992013012321004+80650+025000FM-12+000599999V0200901N011019999999N9999999N1+99999+99999999999ADDMD1410001+9999REMSYN048AAXX  23211 01009 46/// /0911 1//// 2//// 54001;
0074010090999992013012322004+80650+025000FM-12+000599999V0200801N009019999999N9999999N1+99999+99999999999ADDMD1710031+9999REMSYN048AAXX  23221 01009 46/// /0809 1//// 2//// 57003;
0074010090999992013012323004+80650+025000FM-12+000599999V0200701N010019999999N9999999N1+99999+99999999999ADDMD1710041+9999REMSYN048AAXX  23231 01009 46/// /0710 1//// 2//// 57004;
0084010090999992013012400004+80650+025000FM-12+000599999V0200701N011019999999N9999999N1+99999+99999999999ADDMD1710041+9999REMSYN058AAXX  24001 01009 46/// /0711 1//// 2//// 57004 333 91114;
0074010090999992013012401004+80650+025000FM-12+000599999V0200701N010019999999N9999999N1+99999+99999999999ADDMD1710061+9999REMSYN048AAXX  24011 01009 46/// /0710 1//// 2//// 57006;
0074010090999992013012402004+80650+025000FM-12+000599999V0200701N011019999999N9999999N1+99999+99999999999ADDMD1610101+9999REMSYN048AAXX  24021 01009 46/// /0711 1//// 2//// 56010;
