0177010014999992013010112504+59783+005350FM-15+0049ENSO V0201301N003112200019N0112651N1+00401+00301999999ADDGA1021+003001999GA2041+004501999GA3041+007501999GF104991999999999999999999MA1098981999999MW1161REMMET070METAR ENSO 011250Z 13006KT 9999 VCSH FEW010 SCT015 SCT025 04/03 Q0990;
0178010014999992013010113204+59783+005350FM-15+0049ENSO V0201601N00361003901CN0112651N1+00401+00201999999ADDGA1021+003001999GA2071+003901999GA3041+006601999MA1098981999999MW1161REMMET078METAR ENSO 011320Z 16007KT 130V200 9999 VCSH FEW010 BKN013 SCT022 04/02 Q0990;EQDQ01+000042SCOTCV
0171010014999992013010113504+59783+005350FM-15+0049ENSO V0202101N003110039019N0112651N1+00301+00201999999ADDGA1021+003001999GA2071+003901999GF107991999999999999999999MA1098981999999MW1161REMMET080METAR ENSO 011350Z 21006KT 160V250 9999 VCSH FEW010 BKN013 03/02 Q0990 RESHRAGS;
0199010014999992013010114204+59783+005350FM-15+0049ENSO V0202001N00211003901CN0112651N1+00201+00201999999ADDGA1021+003001999GA2041+003901999GA3071+006601999GF107991999999999999999999MA1099091999999MW1161REMMET092METAR ENSO 011420Z 20004KT 150V250 9999 4000SE VCSH FEW010 SCT013 BKN022 02/02 Q0991 RESHRA;
0168010014999992013010114504+59783+005350FM-15+0049ENSO V0201401N003610054019N0112651N1+00201+00101999999ADDGA1021+002401999GA2021+003601091GA3071+005401999GF107991999999999999999999MA1099091999999REMMET067METAR ENSO 011450Z 14007KT 9999 FEW008 FEW012CB BKN018 02/01 Q0991;
0156010014999992013010115204+59783+005350FM-15+0049ENSO V0201401N004110036019N0112651N1+00201+00101999999ADDGA1021+002401999GA2071+003601091GF107991999999999999999999MA1099191999999MW1811REMMET065METAR ENSO 011520Z 14008KT 9999 SHRA FEW008 BKN012CB 02/01 Q0992;
0157010014999992013010115504+59783+005350FM-15+0049ENSO V0201201N003110036019N0112651N1+00201+00101999999ADDGA1021+002401999GA2071+003601091GF107991999999999999999999MA1099191999999MW1801REMMET066METAR ENSO 011550Z 12006KT 9999 -SHRA FEW008 BKN012CB 02/01 Q0992;
0152010014999992013010116204+59783+005350FM-15+0049ENSO V0201401N004110045019N0112651N1+00201+00101999999ADDGA1021+003001999GA2071+004501091GF107991999999999999999999MA1099291999999REMMET067METAR ENSO 011620Z 14008KT 9999 FEW010 BKN015CB 02/01 Q0993 RESHRA;
0166010014999992013010116504+59783+005350FM-15+0049ENSO V0201401N00311004801CN0112651N1+00101+00101999999ADDGA1021+003001999GA2041+004801999GA3071+007801999GF107991999999999999999999MA1099291999999REMMET065METAR ENSO 011650Z 14006KT 9999 FEW010 SCT016 BKN026 01/01 Q0993;
0155010014999992013010117204+59783+005350FM-15+0049ENSO V0201501N002610039019N0112651N1+00201+00101999999ADDGA1021+002701999GA2071+003901999GF107991999999999999999999MA1099391999999MW1801REMMET064METAR ENSO 011720Z 15005KT 9999 -SHRA FEW009 BKN013 02/01 Q0994;
0155010014999992013010117504+59783+005350FM-15+0049ENSO V0201401N002610039019N0112651N1+00201+00101999999ADDGA1021+002401999GA2071+003901999GF107991999999999999999999MA1099391999999MW1801REMMET064METAR ENSO 011750Z 14005KT 9999 -SHRA FEW008 BKN013 02/01 Q0994;
0166010014999992013010118204+59783+005350FM-15+0049ENSO V0201601N00211004501CN0112651N1+00201+00101999999ADDGA1021+003601999GA2041+004501999GA3071+010501999GF107991999999999999999999MA1099391999999REMMET065METAR ENSO 011820Z 16004KT 9999 FEW012 SCT015 BKN035 02/01 Q0994;
0143010014999992013010204504+59783+005350FM-15+0049ENSO V0201701N001012200019N0112651N1+00201+00101999999ADDGA1041+007501999GA2041+012001999GF104991999999999999999999MA1100511999999REMMET058METAR ENSO 020450Z 17002KT 9999 SCT025 SCT040 02/01 Q1005;
0174010014999992013010205204+59783+005350FM-15+0049ENSO V0201401N00211006001CN0112651N1+00201+00201999999ADDGA1021+003601999GA2041+006001999GA3071+009001999GF107991999999999999999999MA1100511999999REMMET073METAR ENSO 020520Z 14004KT 120V190 9999 FEW012 SCT020 BKN030 02/02 Q1005;
0143010014999992013010205504+59783+005350FM-15+0049ENSO V0209999V001010078019N0112651N1+00301+00201999999ADDGA1021+005401999GA2071+007801999GF107991999999999999999999MA1100511999999REMMET058METAR ENSO 020550Z VRB02KT 9999 FEW018 BKN026 03/02 Q1005;
0166010014999992013010206204+59783+005350FM-15+0049ENSO V0209999V00151004201CN0112651N1+00201+00201999999ADDGA1021+002401999GA2041+004201999GA3071+006001999GF107991999999999999999999MA1100611999999REMMET065METAR ENSO 020620Z VRB03KT 9999 FEW008 SCT014 BKN020 02/02 Q1006;
0175010014999992013010206504+59783+005350FM-15+0049ENSO V0209999V00101004201CN0112651N1+00301+00201999999ADDGA1021+002701999GA2041+004201999GA3071+007501999GF107991999999999999999999MA1100711999999MW1531REMMET068METAR ENSO 020650Z VRB02KT 9999 DZ FEW009 SCT014 BKN025 03/02 Q1007;
0168010014999992013010207504+59783+005350FM-15+0049ENSO V0209999V000512200019N0112651N1+00301+00201999999ADDGA1021+004501999GA2021+007501091GA3041+010501999GF104991999999999999999999MA1100711999999REMMET067METAR ENSO 020750Z VRB01KT 9999 FEW015 FEW025CB SCT035 03/02 Q1007;
0168010014999992013010208204+59783+005350FM-15+0049ENSO V0209999V001010240019N0112651N1+00301+00201999999ADDGA1021+005401999GA2021+009001091GA3071+024001999GF107991999999999999999999MA1100811999999REMMET067METAR ENSO 020820Z VRB02KT 9999 FEW018 FEW030CB BKN080 03/02 Q1008;
0153010014999992013010208504+59783+005350FM-15+0049ENSO V0201401N001512200019N0112651N1+00201+00201999999ADDGA1021+005401999GA2021+009001091GF102991999999999999999999MA1100801999999REMMET068METAR ENSO 020850Z 14003KT 9999 FEW018 FEW030CB SCTN080 02/02 Q1008;
0187010014999992013010209204+59783+005350FM-15+0049ENSO V0201601N002110135019N0112651N1+00301+00301999999ADDGA1021+004201999GA2021+007501091GA3071+013501999GF107991999999999999999999MA1100911999999MW1161REMMET080METAR ENSO 020920Z 16004KT 120V230 9999 VCSH FEW014 FEW025CB BKN045 03/03 Q1009;
0175010014999992013010209504+59783+005350FM-15+0049ENSO V0201401N00151004801CN0112651N1+00301+00201999999ADDGA1021+000001999GA2041+004801999GA3071+006601999GF108991999999999999999999MA1100901999999REMMET074METAR ENSO 020950Z 14003KT 110V1800 9999 FEW000 SCT016 BKN022 03/02 Q1009;
0184010014999992013010210204+59783+005350FM-15+0049ENSO V0201401N00261003601CN0112651N1+00301+00301999999ADDGA1021+001201999GA2041+003601999GA3071+006001999GF107991999999999999999999MA1100911999999MW1511REMMET077METAR ENSO 021020Z 14005KT 110V210 9999 -DZ FEW004 SCT012 BKN020 03/03 Q1009;
0185010014999992013010210504+59783+005350FM-15+0049ENSO V0201401N00311003001CN0112651N1+00301+00301999999ADDGA1021+001201999GA2041+003001999GA3071+005101999GF107991999999999999999999MA1100911999999MW1811REMMET078METAR ENSO 021050Z 14006KT 110V220 9999 SHRA FEW004 SCT010 BKN017 03/03 Q1009;
0173010014999992013010211204+59783+005350FM-15+0049ENSO V0201201N00101004201CN0112651N1+00401+00301999999ADDGA1021+001801999GA2041+004201999GA3071+006001999GF107991999999999999999999MA1100911999999REMMET072METAR ENSO 021120Z 12002KT 9999 FEW006 SCT014 BKN020 04/03 Q1009 RESHRA;
0143010014999992013010212204+59783+005350FM-15+0049ENSO V0209999V001510084019N0112651N1+00401+00401999999ADDGA1041+004801999GA2071+008401999GF107991999999999999999999MA1101021999999REMMET058METAR ENSO 021220Z VRB03KT 9999 SCT016 BKN028 04/04 Q1010;
0151010014999992013010308204+59783+005350FM-15+0049ENSO V0202701N008210120019N0112651N1+00701+00601999999ADDGA1041+003601999GA2071+012001999GF107991999999999999999999MA1100711999999REMMET066METAR ENSO 030820Z 27016KT 240V300 9999 SCT012 BKN040 07/06 Q1007;
0155010014999992013010308504+59783+005350FM-15+0049ENSO V0202601N009812200019N0112651N1+00701+00601999999ADDGA1041+003001999GA2041+015001999GF104991999999999999999999MA1100711999999MW1801REMMET064METAR ENSO 030850Z 26019KT 9999 -SHRA SCT010 SCT050 07/06 Q1007;
0177010014999992013010309204+59783+005350FM-15+0049ENSO V0202701N00931006601CN0112651N1+00701+00601999999ADDGA1021+003001999GA2041+006601999GA3071+015001999GF107991999999999999999999MA1100811999999OC101541REMMET068METAR ENSO 030920Z 27018G30KT 9999 FEW010 SCT022 BKN055 07/06 Q1008;
0179010014999992013010309504+59783+005350FM-15+0049ENSO V0202801N009812200019N0112651N1+00701+00601999999ADDGA1021+003601999GA2041+005401091GA3041+015001999GF104991999999999999999999MA1100911999999OC101491REMMET070METAR ENSO 030950Z 28019G29KT 9999 FEW012 SCT018CB SCT055 07/06 Q1009;
0187010014999992013010310504+59783+005350FM-15+0049ENSO V0202801N008712200019N0112651N1+00701+00501999999ADDGA1021+004501999GA2021+006601091GA3041+018001999GF104991999999999999999999MA1101021999999OC101391REMMET078METAR ENSO 031050Z 28017G27KT 260V320 9999 FEW015 FEW022CB SCT060 07/05 Q1010;
0179010014999992013010311204+59783+005350FM-15+0049ENSO V0202801N008712200019N0112651N1+00701+00501999999ADDGA1021+004501999GA2021+007501091GA3041+021001999GF104991999999999999999999MA1101021999999OC101391REMMET070METAR ENSO 031120Z 28017G27KT 9999 FEW015 FEW025CB SCT070 07/05 Q1010;
0154010014999992013010311504+59783+005350FM-15+0049ENSO V0202901N009310120019N0112651N1+00701+00501999999ADDGA1041+006001999GA2071+012001999GF107991999999999999999999MA1101021999999OC101591REMMET061METAR ENSO 031150Z 29018G31KT 9999 SCT020 BKN040 07/05 Q1010;
0177010014999992013010312504+59783+005350FM-15+0049ENSO V0202901N008212200019N0112651N1+00701+00501999999ADDGA1041+006001999GA2041+007501021GA3041+015001999GF104991999999999999999999MA1101081999999REMMET076METAR ENSO 031250Z 29016KT 260V320 9999 SCT020 SCT025TCU SCT050 07/05 Q1011;
0177010014999992013010313204+59783+005350FM-15+0049ENSO V0202901N007212200019N0112651N1+00701+00501999999ADDGA1021+005401999GA2041+007501021GA3041+015001999GF104991999999999999999999MA1101191999999REMMET076METAR ENSO 031320Z 29014KT 260V320 9999 FEW018 SCT025TCU SCT050 07/05 Q1012;
0177010014999992013010313504+59783+005350FM-15+0049ENSO V0202901N00721007501CN0112651N1+00701+00501999999ADDGA1021+005401999GA2041+007501021GA3071+012001999GF107991999999999999999999MA1101291999999REMMET076METAR ENSO 031350Z 29014KT 260V320 9999 FEW018 SCT025TCU BKN040 07/05 Q1013;
0166010014999992013010405504+59783+005350FM-15+0049ENSO V0202801N00771005401CN0112651N1+00801+00801999999ADDGA1041+001501999GA2041+005401999GA3071+012001999GF107991999999999999999999MA1101901999999REMMET065METAR ENSO 040550Z 28015KT 9999 SCT005 SCT018 BKN040 08/08 Q1019;
0162010014999992013010407504+59783+005350FM-15+0049ENSO V0202801N009310024019N0035001N1+00801+00801999999ADDGA1041+001201999GA2071+002401999GF107991999999999999999999MA1101691999999MW1101MW2511REMMET065METAR ENSO 040750Z 28018KT 3500 -DZ BR SCT004 BKN008 08/08 Q1017;
0143010014999992013010408504+59783+005350FM-15+0049ENSO V0202801N008210036019N0112651N1+00801+00801999999ADDGA1041+001801999GA2071+003601999GF107991999999999999999999MA1101801999999REMMET058METAR ENSO 040850Z 28016KT 9999 SCT006 BKN012 08/08 Q1018;
0166010014999992013010409504+59783+005350FM-15+0049ENSO V0202801N00771005401CN0112651N1+00801+00801999999ADDGA1041+001501999GA2041+005401999GA3071+012001999GF107991999999999999999999MA1101901999999REMMET065METAR ENSO 040950Z 28015KT 9999 SCT005 SCT018 BKN040 08/08 Q1019;
0166010014999992013010410204+59783+005350FM-15+0049ENSO V0202801N00671006001CN0112651N1+00801+00801999999ADDGA1041+001801999GA2041+006001999GA3071+010501999GF107991999999999999999999MA1101901999999REMMET065METAR ENSO 041020Z 28013KT 9999 SCT006 SCT020 BKN035 08/08 Q1019;
0120010014999992013010410504+59783+005350FM-15+0049ENSO V0202801N006710012019N0112651N1+00801+00801999999ADDGA1071+001201999GF107991999999999999999999MA1101901999999REMMET051METAR ENSO 041050Z 28013KT 9999 BKN004 08/08 Q1019;
0143010014999992013010411204+59783+005350FM-15+0049ENSO V0202801N006210015019N0112651N1+00801+00801999999ADDGA1041+000901999GA2071+001501999GF107991999999999999999999MA1101901999999REMMET058METAR ENSO 041120Z 28012KT 9999 SCT003 BKN005 08/08 Q1019;
0128010014999992013010411504+59783+005350FM-15+0049ENSO V0202801N006210012019N0112651N1+00801+00801999999ADDGA1071+001201999GF107991999999999999999999MA1101901999999REMMET059METAR ENSO 041150Z 28012KT 260V320 9999 BKN004 08/08 Q1019;
0120010014999992013010412204+59783+005350FM-15+0049ENSO V0202801N005710009019N0112651N1+00801+00801999999ADDGA1071+000901999GF107991999999999999999999MA1102001999999REMMET051METAR ENSO 041220Z 28011KT 9999 BKN003 08/08 Q1020;
0143010014999992013010412504+59783+005350FM-15+0049ENSO V0202901N005710012019N0112651N1+00801+00801999999ADDGA1041+000601999GA2071+001201999GF107991999999999999999999MA1102001999999REMMET058METAR ENSO 041250Z 29011KT 9999 SCT002 BKN004 08/08 Q1020;
0147010014999992013010413204+59783+005350FM-15+0049ENSO V0202801N005110009019N0045001N1+00801+00801999999ADDGA1071+000901999GF107991999999999999999999MA1102001999999MW1101MW2511REMMET066METAR ENSO 041320Z 28010KT 250V320 4500 -DZ BR BKN003 08/08 Q1020;
0161010014999992013010413504+59783+005350FM-15+0049ENSO V0202901N004610009019N0070001N1+00801+00801999999ADDGA1071+000901999GA2081+001501999GF108991999999999999999999MA1102101999999MW1511REMMET070METAR ENSO 041350Z 29009KT 260V320 7000 -DZ BKN003 OVC005 08/08 Q1021;
0146010014999992013010414204+59783+005350FM-15+0049ENSO V0203001N005110003019N0009001N1+00801+00701999999ADDGA1091+000301999GF109991999999000251999999MA1102101999999MW1451MW2511REMMET065METAR ENSO 041420Z 30010KT 270V330 0900 -DZ FG VV001 08/07 Q1021;
0136010014999992013010414504+59783+005350FM-15+0049ENSO V0203201N003610001519N0003001N1+00801+00701999999ADDGA1091+000151999GF109991999999000251999999MA1102101999999MW1451REMMET061METAR ENSO 041450Z 32007KT 290V350 0300 FG VV000 08/07 Q1021;
0138010014999992013010415204+59783+005350FM-15+0049ENSO V0203201N004110001519N0002001N1+00801+00701999999ADDGA1091+000151999GF109991999999000251999999MA1102101999999MW1451MW2511REMMET057METAR ENSO 041520Z 32008KT 0200 -DZ FG VV000 08/07 Q1021;
0138010014999992013010415504+59783+005350FM-15+0049ENSO V0203201N003110001519N0002001N1+00801+00701999999ADDGA1091+000151999GF109991999999000251999999MA1102101999999MW1451MW2511REMMET057METAR ENSO 041550Z 32006KT 0200 -DZ FG VV000 08/07 Q1021;
0146010014999992013010612204+59783+005350FM-15+0049ENSO V0203301N005110006019N0009001N1+00701+00601999999ADDGA1091+000601999GF109991999999000251999999MA1102401999999MW1451MW2511REMMET065METAR ENSO 061220Z 33010KT 290V360 0900 -DZ FG VV002 07/06 Q1024;
0170010014999992013010612504+59783+005350FM-15+0049ENSO V0203301N004610006019N0025001N1+00701+00601999999ADDGA1071+000601999GA2081+000901999GF108991999999999999999999MA1102401999999MW1101MW2511REMMET073METAR ENSO 061250Z 33009KT 300V360 2500 -DZ BR BKN002 OVC003 07/06 Q1024;
0153010014999992013010613204+59783+005350FM-15+0049ENSO V0203601N003110006019N0090001N1+00701+00601999999ADDGA1071+000601999GA2081+001201999GF108991999999999999999999MA1102401999999MW1511REMMET062METAR ENSO 061320Z 36006KT 9000 -DZ BKN002 OVC004 07/06 Q1024;
0174010014999992013010613504+59783+005350FM-15+0049ENSO V0203501N003610012019N0112651N1+00701+00601999999ADDGA1021+000601999GA2071+001201999GA3081+003001999GF108991999999999999999999MA1102511999999REMMET073METAR ENSO 061350Z 35007KT 310V020 9999 FEW002 BKN004 OVC010 07/06 Q1025;
0151010014999992013010614204+59783+005350FM-15+0049ENSO V0203401N002110036019N0112651N1+00601+00601999999ADDGA1041+001801999GA2071+003601999GF107991999999999999999999MA1102401999999REMMET066METAR ENSO 061420Z 34004KT 300V360 9999 SCT006 BKN012 06/06 Q1024;
0185010014999992013010614504+59783+005350FM-15+0049ENSO V0203601N00211002701CN0112651N1+00601+00601999999ADDGA1021+001501999GA2041+002701999GA3071+013501999GF107991999999999999999999MA1102401999999MW1401REMMET078METAR ENSO 061450Z 36004KT 330V030 9999 VCFG FEW005 SCT009 BKN045 06/06 Q1024;
0177010014999992013010615204+59783+005350FM-15+0049ENSO V0209999V00101003001CN0112651N1+00501+00501999999ADDGA1021+001801999GA2041+003001999GA3071+018001999GF107991999999999999999999MA1102401999999MW1401REMMET070METAR ENSO 061520Z VRB02KT 9999 VCFG FEW006 SCT010 BKN060 05/05 Q1024;
0143010014999992013010615504+59783+005350FM-15+0049ENSO V0209999V001010120019N0112651N1+00601+00501999999ADDGA1041+002701999GA2071+012001999GF107991999999999999999999MA1102401999999REMMET058METAR ENSO 061550Z VRB02KT 9999 SCT009 BKN040 06/05 Q1024;
0143010014999992013010616204+59783+005350FM-15+0049ENSO V0200901N001510048019N0112651N1+00601+00501999999ADDGA1041+002401999GA2071+004801999GF107991999999999999999999MA1102401999999REMMET058METAR ENSO 061620Z 09003KT 9999 SCT008 BKN016 06/05 Q1024;
0166010014999992013010616504+59783+005350FM-15+0049ENSO V0201901N00101001801CN0112651N1+00601+00501999999ADDGA1021+001201999GA2041+001801999GA3071+002701999GF107991999999999999999999MA1102511999999REMMET065METAR ENSO 061650Z 19002KT 9999 FEW004 SCT006 BKN009 06/05 Q1025;
0143010014999992013010617204+59783+005350FM-15+0049ENSO V0209999V001010021019N0112651N1+00601+00501999999ADDGA1041+001501999GA2071+002101999GF107991999999999999999999MA1102511999999REMMET058METAR ENSO 061720Z VRB02KT 9999 SCT005 BKN007 06/05 Q1025;
0143010014999992013010617504+59783+005350FM-15+0049ENSO V0209999C000010021019N0112651N1+00601+00501999999ADDGA1041+001501999GA2071+002101999GF107991999999999999999999MA1102511999999REMMET058METAR ENSO 061750Z 00000KT 9999 SCT005 BKN007 06/05 Q1025;
0166010014999992013010618204+59783+005350FM-15+0049ENSO V0209999V00101001501CN0112651N1+00601+00501999999ADDGA1021+000301999GA2041+001501999GA3071+002401999GF107991999999999999999999MA1102511999999REMMET065METAR ENSO 061820Z VRB02KT 9999 FEW001 SCT005 BKN008 06/05 Q1025;
0127010014999992013010704504+59783+005350FM-15+0049ENSO V0201501N005110012019N0112651N1+00501+00401999999ADDGA1091+001201999GF109991999999000251999999MA1102201999999REMMET058METAR ENSO 070450Z 15010KT 120V190 9999 VV004 05/04 Q1022;
0119010014999992013010705204+59783+005350FM-15+0049ENSO V0201501N005710012019N0112651N1+00501+00401999999ADDGA1091+001201999GF109991999999000251999999MA1102101999999REMMET050METAR ENSO 070520Z 15011KT 9999 VV004 05/04 Q1021;
0143010014999992013010705504+59783+005350FM-15+0049ENSO V0201401N005710024019N0112651N1+00501+00401999999ADDGA1041+001801999GA2071+002401999GF107991999999999999999999MA1102101999999REMMET058METAR ENSO 070550Z 14011KT 9999 SCT006 BKN008 05/04 Q1021;
0151010014999992013010706204+59783+005350FM-15+0049ENSO V0201501N004110027019N0112651N1+00501+00401999999ADDGA1041+001801999GA2071+002701999GF107991999999999999999999MA1102101999999REMMET066METAR ENSO 070620Z 15008KT 120V190 9999 SCT006 BKN009 05/04 Q1021;
0143010014999992013010706504+59783+005350FM-15+0049ENSO V0201401N005110120019N0112651N1+00501+00401999999ADDGA1021+006001999GA2071+012001999GF107991999999999999999999MA1102101999999REMMET058METAR ENSO 070650Z 14010KT 9999 FEW020 BKN040 05/04 Q1021;
0143010014999992013010707204+59783+005350FM-15+0049ENSO V0201501N005710045019N0112651N1+00501+00401999999ADDGA1021+003001999GA2071+004501999GF107991999999999999999999MA1102101999999REMMET058METAR ENSO 070720Z 15011KT 9999 FEW010 BKN015 05/04 Q1021;
0143010014999992013010707504+59783+005350FM-15+0049ENSO V0201401N006210045019N0112651N1+00501+00401999999ADDGA1041+003001999GA2071+004501999GF107991999999999999999999MA1102101999999REMMET058METAR ENSO 070750Z 14012KT 9999 SCT010 BKN015 05/04 Q1021;
0143010014999992013010708204+59783+005350FM-15+0049ENSO V0201401N005710060019N0112651N1+00501+00401999999ADDGA1021+003001999GA2071+006001999GF107991999999999999999999MA1102101999999REMMET058METAR ENSO 070820Z 14011KT 9999 FEW010 BKN020 05/04 Q1021;
0143010014999992013010708504+59783+005350FM-15+0049ENSO V0201501N005110069019N0112651N1+00501+00401999999ADDGA1021+003001999GA2071+006901999GF107991999999999999999999MA1102101999999REMMET058METAR ENSO 070850Z 15010KT 9999 FEW010 BKN023 05/04 Q1021;
0143010014999992013010709204+59783+005350FM-15+0049ENSO V0201601N006710069019N0112651N1+00601+00401999999ADDGA1021+003001999GA2071+006901999GF107991999999999999999999MA1102001999999REMMET058METAR ENSO 070920Z 16013KT 9999 FEW010 BKN023 06/04 Q1020;
0143010014999992013010709504+59783+005350FM-15+0049ENSO V0201501N006710060019N0112651N1+00501+00401999999ADDGA1021+002701999GA2071+006001999GF107991999999999999999999MA1102001999999REMMET058METAR ENSO 070950Z 15013KT 9999 FEW009 BKN020 05/04 Q1020;
0143010014999992013010710204+59783+005350FM-15+0049ENSO V0201501N007210075019N0112651N1+00501+00401999999ADDGA1021+002701999GA2071+007501999GF107991999999999999999999MA1102001999999REMMET058METAR ENSO 071020Z 15014KT 9999 FEW009 BKN025 05/04 Q1020;
0143010014999992013010710504+59783+005350FM-15+0049ENSO V0201501N005710069019N0112651N1+00501+00401999999ADDGA1021+002401999GA2071+006901999GF107991999999999999999999MA1102001999999REMMET058METAR ENSO 071050Z 15011KT 9999 FEW008 BKN023 05/04 Q1020;
0143010014999992013010711204+59783+005350FM-15+0049ENSO V0201501N006210069019N0112651N1+00501+00401999999ADDGA1021+002101999GA2071+006901999GF107991999999999999999999MA1102001999999REMMET058METAR ENSO 071120Z 15012KT 9999 FEW007 BKN023 05/04 Q1020;
0166010014999992013010711504+59783+005350FM-15+0049ENSO V0201501N00771002101CN0112651N1+00501+00401999999ADDGA1021+001501999GA2041+002101999GA3071+006001999GF107991999999999999999999MA1101901999999REMMET065METAR ENSO 071150Z 15015KT 9999 FEW005 SCT007 BKN020 05/04 Q1019;
0166010014999992013010712204+59783+005350FM-15+0049ENSO V0201601N00571002101CN0112651N1+00501+00401999999ADDGA1041+001201999GA2041+002101999GA3081+006001999GF108991999999999999999999MA1101901999999REMMET065METAR ENSO 071220Z 16011KT 9999 SCT004 SCT007 OVC020 05/04 Q1019;
0139010014999992013010713204+59783+005350FM-15+0049ENSO V0201701N006210018019N0040001N1+00501+00401999999ADDGA1071+001801999GF107991999999999999999999MA1101901999999MW1101MW2511REMMET058METAR ENSO 071320Z 17012KT 4000 -DZ BR BKN006 05/04 Q1019;
0162010014999992013010714204+59783+005350FM-15+0049ENSO V0201601N006210018019N0060001N1+00501+00401999999ADDGA1021+001201999GA2071+001801999GF107991999999999999999999MA1101901999999MW1101MW2511REMMET065METAR ENSO 071420Z 16012KT 6000 -DZ BR FEW004 BKN006 05/04 Q1019;
0162010014999992013010714504+59783+005350FM-15+0049ENSO V0201601N005110018019N0060001N1+00501+00401999999ADDGA1021+001201999GA2071+001801999GF107991999999999999999999MA1101901999999MW1101MW2511REMMET065METAR ENSO 071450Z 16010KT 6000 -DZ BR FEW004 BKN006 05/04 Q1019;
0162010014999992013010715204+59783+005350FM-15+0049ENSO V0201601N006710018019N0070001N1+00501+00401999999ADDGA1021+001201999GA2071+001801999GF107991999999999999999999MA1101801999999MW1101MW2511REMMET065METAR ENSO 071520Z 16013KT 7000 -DZ BR FEW004 BKN006 05/04 Q1018;
0162010014999992013010715504+59783+005350FM-15+0049ENSO V0201501N007210018019N0070001N1+00501+00401999999ADDGA1021+001201999GA2071+001801999GF107991999999999999999999MA1101801999999MW1101MW2511REMMET065METAR ENSO 071550Z 15014KT 7000 -DZ BR FEW004 BKN006 05/04 Q1018;
0162010014999992013010716204+59783+005350FM-15+0049ENSO V0201601N006210018019N0060001N1+00501+00401999999ADDGA1021+001201999GA2071+001801999GF107991999999999999999999MA1101801999999MW1101MW2511REMMET065METAR ENSO 071620Z 16012KT 6000 -DZ BR FEW004 BKN006 05/04 Q1018;
0153010014999992013010717204+59783+005350FM-15+0049ENSO V0201701N005710018019N0090001N1+00501+00501999999ADDGA1021+001201999GA2071+001801999GF107991999999999999999999MA1101691999999MW1511REMMET062METAR ENSO 071720Z 17011KT 9000 -DZ FEW004 BKN006 05/05 Q1017;
0153010014999992013010718204+59783+005350FM-15+0049ENSO V0201601N005110024019N0112651N1+00501+00501999999ADDGA1021+001201999GA2071+002401999GF107991999999999999999999MA1101691999999MW1511REMMET062METAR ENSO 071820Z 16010KT 9999 -DZ FEW004 BKN008 05/05 Q1017;
0152010014999992013010804504+59783+005350FM-15+0049ENSO V0201001N001510036019N0010001N1+00601+00501999999ADDGA1041+000601999GA2071+003601999GF107991999999999999999999MA1101691999999MW1441REMMET061METAR ENSO 080450Z 10003KT 1000 FG SCT002 BKN012 06/05 Q1017;
0131010014999992013010806204+59783+005350FM-15+0049ENSO V0201001N001512200019N0020001N1+00401+00401999999ADDGA1041+000301999GF104991999999999999999999MA1101691999999MW1121REMMET056METAR ENSO 080620Z 10003KT 2000 MIFG SCT001 04/04 Q1017;
0131010014999992013010806504+59783+005350FM-15+0049ENSO V0209999V001512200019N0112651N1+00401+00401999999ADDGA1021+003601999GF102991999999999999999999MA1101691999999MW1121REMMET056METAR ENSO 080650Z VRB03KT 9999 MIFG FEW012 04/04 Q1017;
0143010014999992013010807204+59783+005350FM-15+0049ENSO V0201301N002112200019N0112651N1+00501+00401999999ADDGA1021+000301999GA2041+002401999GF104991999999999999999999MA1101801999999REMMET058METAR ENSO 080720Z 13004KT 9999 FEW001 SCT008 05/04 Q1018;
0143010014999992013010807504+59783+005350FM-15+0049ENSO V0201901N001010024019N0112651N1+00501+00401999999ADDGA1021+000301999GA2071+002401999GF107991999999999999999999MA1101801999999REMMET058METAR ENSO 080750Z 19002KT 9999 FEW001 BKN008 05/04 Q1018;
0143010014999992013010808204+59783+005350FM-15+0049ENSO V0201201N001010024019N0112651N1+00501+00401999999ADDGA1021+000301999GA2071+002401999GF107991999999999999999999MA1101801999999REMMET058METAR ENSO 080820Z 12002KT 9999 FEW001 BKN008 05/04 Q1018;
0166010014999992013010808504+59783+005350FM-15+0049ENSO V0201201N00151001801CN0112651N1+00501+00401999999ADDGA1021+000301999GA2041+001801999GA3071+002401999GF107991999999999999999999MA1101801999999REMMET065METAR ENSO 080850Z 12003KT 9999 FEW001 SCT006 BKN008 05/04 Q1018;
0143010014999992013010810204+59783+005350FM-15+0049ENSO V0201301N002612200019N0112651N1+00501+00501999999ADDGA1021+001501999GA2041+003601999GF104991999999999999999999MA1101901999999REMMET058METAR ENSO 081020Z 13005KT 9999 FEW005 SCT012 05/05 Q1019;
0143010014999992013010810504+59783+005350FM-15+0049ENSO V0201501N001512200019N0112651N1+00501+00401999999ADDGA1021+002401999GA2041+004201999GF104991999999999999999999MA1101901999999REMMET058METAR ENSO 081050Z 15003KT 9999 FEW008 SCT014 05/04 Q1019;
0166010014999992013010811204+59783+005350FM-15+0049ENSO V0201701N00261002401CN0112651N1+00501+00401999999ADDGA1021+000301999GA2041+002401999GA3071+004501999GF107991999999999999999999MA1101901999999REMMET065METAR ENSO 081120Z 17005KT 9999 FEW001 SCT008 BKN015 05/04 Q1019;
0166010014999992013010811504+59783+005350FM-15+0049ENSO V0201301N00211001501CN0112651N1+00501+00501999999ADDGA1021+000301999GA2041+001501999GA3071+004501999GF107991999999999999999999MA1101801999999REMMET065METAR ENSO 081150Z 13004KT 9999 FEW001 SCT005 BKN015 05/05 Q1018;
0166010014999992013010812204+59783+005350FM-15+0049ENSO V0201301N00211001501CN0112651N1+00501+00501999999ADDGA1021+000301999GA2041+001501999GA3071+004501999GF107991999999999999999999MA1101801999999REMMET065METAR ENSO 081220Z 13004KT 9999 FEW001 SCT005 BKN015 05/05 Q1018;
0174010014999992013010812504+59783+005350FM-15+0049ENSO V0201401N00211001801CN0112651N1+00501+00401999999ADDGA1021+000901999GA2041+001801999GA3071+002401999GF107991999999999999999999MA1101801999999REMMET073METAR ENSO 081250Z 14004KT 110V180 9999 FEW003 SCT006 BKN008 05/04 Q1018;
0151010014999992013010813204+59783+005350FM-15+0049ENSO V0201401N002610018019N0112651N1+00501+00401999999ADDGA1021+000901999GA2071+001801999GF107991999999999999999999MA1101801999999REMMET066METAR ENSO 081320Z 14005KT 110V180 9999 FEW003 BKN006 05/04 Q1018;
0174010014999992013010813504+59783+005350FM-15+0049ENSO V0201401N00311002701CN0112651N1+00401+00401999999ADDGA1021+001201999GA2041+002701999GA3071+045001999GF107991999999999999999999MA1101691999999REMMET073METAR ENSO 081350Z 14006KT 110V190 9999 FEW004 SCT009 BKN150 04/04 Q1017;
0151010014999992013010814204+59783+005350FM-15+0049ENSO V0200901N003110540019N0112651N1+00401+00301999999ADDGA1041+001801999GA2071+054001999GF107991999999999999999999MA1101691999999REMMET066METAR ENSO 081420Z 09006KT 070V130 9999 SCT006 BKN180 04/03 Q1017;
0143010014999992013010814504+59783+005350FM-15+0049ENSO V0201101N004110540019N0112651N1+00401+00301999999ADDGA1021+001201999GA2071+054001999GF107991999999999999999999MA1101691999999REMMET058METAR ENSO 081450Z 11008KT 9999 FEW004 BKN180 04/03 Q1017;
0154010014999992013010815204+59783+005350FM-15+0049ENSO V0201101N005110540019N0112651N1+00501+00201999999ADDGA1021+001201999GA2071+054001999GF107991999999999999999999MA1101691999999MW1401REMMET063METAR ENSO 081520Z 11010KT 9999 VCFG FEW004 BKN180 05/02 Q1017;
0162010014999992013010815504+59783+005350FM-15+0049ENSO V0201301N004610450019N0112651N1+00401+00301999999ADDGA1041+001201999GA2071+045001999GF107991999999999999999999MA1101691999999MW1401REMMET071METAR ENSO 081550Z 13009KT 100V160 9999 VCFG SCT004 BKN150 04/03 Q1017;
0154010014999992013010816204+59783+005350FM-15+0049ENSO V0201201N005110018019N0112651N1+00401+00301999999ADDGA1021+001201999GA2071+001801999GF107991999999999999999999MA1101691999999MW1401REMMET063METAR ENSO 081620Z 12010KT 9999 VCFG FEW004 BKN006 04/03 Q1017;
0143010014999992013010816504+59783+005350FM-15+0049ENSO V0201401N003110027019N0112651N1+00301+00301999999ADDGA1041+001201999GA2071+002701999GF107991999999999999999999MA1101691999999REMMET058METAR ENSO 081650Z 14006KT 9999 SCT004 BKN009 03/03 Q1017;
0175010014999992013010817204+59783+005350FM-15+0049ENSO V0201501N00211004801CN0112651N1+00401+00301999999ADDGA1041+001801999GA2041+004801999GA3071+007501999GF107991999999999999999999MA1101691999999REMMET074METAR ENSO 081720Z 15004KT 110V200 9999 SCT006 SCT016 BKN0259 04/03 Q1017;
0166010014999992013010817504+59783+005350FM-15+0049ENSO V0201301N00411002401CN0112651N1+00401+00301999999ADDGA1041+001201999GA2041+002401999GA3071+007501999GF107991999999999999999999MA1101591999999REMMET065METAR ENSO 081750Z 13008KT 9999 SCT004 SCT008 BKN025 04/03 Q1016;
0174010014999992013010818204+59783+005350FM-15+0049ENSO V0201501N00411003001CN0112651N1+00401+00301999999ADDGA1021+001201999GA2041+003001999GA3071+009001999GF107991999999999999999999MA1101591999999REMMET073METAR ENSO 081820Z 15008KT 120V190 9999 FEW004 SCT010 BKN030 04/03 Q1016;
0161010014999992013010904204+59783+005350FM-15+0049ENSO V0201401N002610018019N0112651N1+00501+00501999999ADDGA1041+000901999GA2071+001801999GF107991999999999999999999MA1101391999999MW1511REMMET070METAR ENSO 090420Z 14005KT 140V170 9999 -DZ SCT003 BKN006 05/05 Q1014;
0184010014999992013010904504+59783+005350FM-15+0049ENSO V0201501N00261001801CN0080001N1+00501+00501999999ADDGA1021+000901999GA2041+001801999GA3071+005401999GF107991999999999999999999MA1101391999999MW1511REMMET077METAR ENSO 090450Z 15005KT 130V190 8000 -DZ FEW003 SCT006 BKN018 05/05 Q1014;
0166010014999992013010905204+59783+005350FM-15+0049ENSO V0201401N00211002701CN0112651N1+00501+00501999999ADDGA1021+001201999GA2041+002701999GA3071+006601999GF107991999999999999999999MA1101391999999REMMET065METAR ENSO 090520Z 14004KT 9999 FEW004 SCT009 BKN022 05/05 Q1014;
0176010014999992013010905504+59783+005350FM-15+0049ENSO V0201301N00261001801CN0112651N1+00501+00501999999ADDGA1021+000901999GA2041+001801999GA3071+007501999GF107991999999999999999999MA1101391999999MW1511REMMET069METAR ENSO 090550Z 13005KT 9999 -DZ FEW003 SCT006 BKN025 05/05 Q1014;
0143010014999992013010906204+59783+005350FM-15+0049ENSO V0201501N002610036019N0112651N1+00501+00501999999ADDGA1041+001201999GA2071+003601999GF107991999999999999999999MA1101391999999REMMET058METAR ENSO 090620Z 15005KT 9999 SCT004 BKN012 05/05 Q1014;
0143010014999992013010906504+59783+005350FM-15+0049ENSO V0201401N003110027019N0112651N1+00501+00401999999ADDGA1041+001201999GA2071+002701999GF107991999999999999999999MA1101391999999REMMET058METAR ENSO 090650Z 14006KT 9999 SCT004 BKN009 05/04 Q1014;
0143010014999992013010907504+59783+005350FM-15+0049ENSO V0201501N002610105019N0112651N1+00501+00401999999ADDGA1041+000901999GA2071+010501999GF107991999999999999999999MA1101391999999REMMET058METAR ENSO 090750Z 15005KT 9999 SCT003 BKN035 05/04 Q1014;
0174010014999992013010908204+59783+005350FM-15+0049ENSO V0201601N00211001201CN0112651N1+00501+00401999999ADDGA1021+000301999GA2041+001201999GA3071+007501999GF107991999999999999999999MA1101391999999REMMET073METAR ENSO 090820Z 16004KT 150V190 9999 FEW001 SCT004 BKN025 05/04 Q1014;
0174010014999992013010908504+59783+005350FM-15+0049ENSO V0201501N00261003001CN0112651N1+00501+00501999999ADDGA1021+000901999GA2041+003001999GA3071+012001999GF107991999999999999999999MA1101391999999REMMET073METAR ENSO 090850Z 15005KT 120V210 9999 FEW003 SCT010 BKN040 05/05 Q1014;
0151010014999992013010909204+59783+005350FM-15+0049ENSO V0201501N002112200019N0112651N1+00501+00401999999ADDGA1021+001201999GA2041+013501999GF104991999999999999999999MA1101391999999REMMET066METAR ENSO 090920Z 15004KT 120V210 9999 FEW004 SCT045 05/04 Q1014;
0151010014999992013010909504+59783+005350FM-15+0049ENSO V0201501N002610135019N0112651N1+00501+00401999999ADDGA1021+000601999GA2071+013501999GF107991999999999999999999MA1101391999999REMMET066METAR ENSO 090950Z 15005KT 110V170 9999 FEW002 BKN045 05/04 Q1014;
0151010014999992013010910204+59783+005350FM-15+0049ENSO V0201501N002112200019N0112651N1+00501+00501999999ADDGA1021+000901999GA2041+015001999GF104991999999999999999999MA1101391999999REMMET066METAR ENSO 091020Z 15004KT 110V190 9999 FEW003 SCT050 05/05 Q1014;
0151010014999992013010910504+59783+005350FM-15+0049ENSO V0201401N002610150019N0112651N1+00501+00401999999ADDGA1021+000151999GA2071+015001999GF107991999999999999999999MA1101291999999REMMET066METAR ENSO 091050Z 14005KT 110V190 9999 FEW000 BKN055 05/04 Q1013;
0161010014999992013010911204+59783+005350FM-15+0049ENSO V0201301N003610150019N0112651N1+00501+00401999999ADDGA1021+000601999GA2071+015001999GF107991999999999999999999MA1101291999999MW1411REMMET070METAR ENSO 091120Z 13007KT 9999 0900SE PRFG FEW002 BKN055 05/04 Q1013;
0191010014999992013010911504+59783+005350FM-15+0049ENSO V0201301N00361006001CN0112651N1+00501+00401999999ADDGA1021+000601999GA2041+006001999GA3071+008401999GF107991999999999999999999MA1101291999999MW1311MW2411REMMET078METAR ENSO 091150Z 13007KT 9999 0700SSW PRFG FEW002 SCT020 BKN028 05/04 Q1013;
0177010014999992013010912204+59783+005350FM-15+0049ENSO V0201401N00261004201CN0112651N1+00501+00401999999ADDGA1021+000601999GA2041+004201999GA3071+009001999GF107991999999999999999999MA1101191999999MW1411REMMET070METAR ENSO 091220Z 14005KT 9999 BCFG FEW002 SCT014 BKN030 05/04 Q1012;
0185010014999992013010912504+59783+005350FM-15+0049ENSO V0201201N00261004201CN0112651N1+00501+00401999999ADDGA1021+000601999GA2041+004201999GA3071+013501999GF107991999999999999999999MA1101191999999MW1411REMMET078METAR ENSO 091250Z 12005KT 9999 5000 SW BCFG FEW002 SCT014 BKN045 05/04 Q1012;
0177010014999992013010913204+59783+005350FM-15+0049ENSO V0201201N00311003301CN0112651N1+00501+00401999999ADDGA1021+000601999GA2041+003301999GA3071+013501999GF107991999999999999999999MA1101191999999MW1411REMMET070METAR ENSO 091320Z 12006KT 9999 BCFG FEW002 SCT011 BKN045 05/04 Q1012;
0166010014999992013010914204+59783+005350FM-15+0049ENSO V0201001N00411005401CN0112651N1+00501+00401999999ADDGA1021+000601999GA2041+005401999GA3071+015001999GF107991999999999999999999MA1101191999999REMMET065METAR ENSO 091420Z 10008KT 9999 FEW002 SCT018 BKN050 05/04 Q1012;
0166010014999992013010914504+59783+005350FM-15+0049ENSO V0201101N00411005401CN0112651N1+00501+00301999999ADDGA1021+000601999GA2041+005401999GA3071+015001999GF107991999999999999999999MA1101081999999REMMET065METAR ENSO 091450Z 11008KT 9999 FEW002 SCT018 BKN050 05/03 Q1011;
0166010014999992013010915204+59783+005350FM-15+0049ENSO V0201001N00411006001CN0112651N1+00401+00301999999ADDGA1021+001201999GA2041+006001999GA3071+015001999GF107991999999999999999999MA1101081999999REMMET065METAR ENSO 091520Z 10008KT 9999 FEW004 SCT020 BKN055 04/03 Q1011;
0166010014999992013010916204+59783+005350FM-15+0049ENSO V0201101N00361007501CN0112651N1+00401+00301999999ADDGA1021+001501999GA2041+007501999GA3071+015001999GF107991999999999999999999MA1101081999999REMMET065METAR ENSO 091620Z 11007KT 9999 FEW005 SCT025 BKN055 04/03 Q1011;
0143010014999992013010916504+59783+005350FM-15+0049ENSO V0201301N002612200019N0112651N1+00401+00301999999ADDGA1041+007501999GA2041+018001999GF104991999999999999999999MA1101081999999REMMET058METAR ENSO 091650Z 13005KT 9999 SCT025 SCT060 04/03 Q1011;
0120010014999992013010917204+59783+005350FM-15+0049ENSO V0201101N003112200019N0112651N1+00401+00301999999ADDGA1021+007501999GF102991999999999999999999MA1101081999999REMMET051METAR ENSO 091720Z 11006KT 9999 FEW025 04/03 Q1011;
0073010014999992013011005204+59783+005350FM-15+0049ENSO V0201501N002119999999Y0099001N1+00101-00101999999ADDMA1101391999999REMMET046METAR ENSO 100520Z 15004KT CAVOK 01/M01 Q1014;
0073010014999992013011005504+59783+005350FM-15+0049ENSO V0201501N002619999999Y0099001N1+00101-00101999999ADDMA1101391999999REMMET046METAR ENSO 100550Z 15005KT CAVOK 01/M01 Q1014;
0121010014999992013011006204+59783+005350FM-15+0049ENSO V0201601N001512200019N0112651N1+00001-00101999999ADDGA1021+000601999GF102991999999999999999999MA1101391999999REMMET052METAR ENSO 100620Z 16003KT 9999 FEW002 00/M01 Q1014;
0121010014999992013011006504+59783+005350FM-15+0049ENSO V0201301N004612200019N0112651N1+00101+00001999999ADDGA1021+003601999GF102991999999999999999999MA1101491999999REMMET052METAR ENSO 100650Z 13009KT 9999 FEW012 01/M00 Q1015;
0143010014999992013011007504+59783+005350FM-15+0049ENSO V0201101N003112200019N0112651N1+00201+00001999999ADDGA1021+001201999GA2041+004501999GF104991999999999999999999MA1101491999999REMMET058METAR ENSO 100750Z 11006KT 9999 FEW004 SCT015 02/00 Q1015;
0120010014999992013011009204+59783+005350FM-15+0049ENSO V0201301N002612200019N0112651N1+00201+00001999999ADDGA1021+001801999GF102991999999999999999999MA1101591999999REMMET051METAR ENSO 100920Z 13005KT 9999 FEW006 02/00 Q1016;
0120010014999992013011009504+59783+005350FM-15+0049ENSO V0201101N003612200019N0112651N1+00201+00001999999ADDGA1021+003001999GF102991999999999999999999MA1101591999999REMMET051METAR ENSO 100950Z 11007KT 9999 FEW010 02/00 Q1016;
0121010014999992013011010504+59783+005350FM-15+0049ENSO V0201101N003612200019N0112651N1+00301+00001999999ADDGA1021+003601999GF102991999999999999999999MA1101691999999REMMET052METAR ENSO 101050Z 11007KT 9999 FEW012 03/M00 Q1017;
0121010014999992013011011204+59783+005350FM-15+0049ENSO V0201101N003612200019N0112651N1+00301+00001999999ADDGA1021+003601999GF102991999999999999999999MA1101691999999REMMET052METAR ENSO 101120Z 11007KT 9999 FEW012 03/M00 Q1017;
0121010014999992013011011504+59783+005350FM-15+0049ENSO V0201201N003612200019N0112651N1+00301-00101999999ADDGA1021+003601999GF102991999999999999999999MA1101591999999REMMET052METAR ENSO 101150Z 12007KT 9999 FEW012 03/M01 Q1016;
0121010014999992013011012204+59783+005350FM-15+0049ENSO V0201101N002612200019N0112651N1+00301-00201999999ADDGA1021+003601999GF102991999999999999999999MA1101691999999REMMET052METAR ENSO 101220Z 11005KT 9999 FEW012 03/M02 Q1017;
0121010014999992013011012504+59783+005350FM-15+0049ENSO V0201401N002112200019N0112651N1+00301-00201999999ADDGA1021+006001999GF102991999999999999999999MA1101691999999REMMET052METAR ENSO 101250Z 14004KT 9999 FEW020 03/M02 Q1017;
0121010014999992013011013204+59783+005350FM-15+0049ENSO V0201401N002612200019N0112651N1+00301-00201999999ADDGA1021+006001999GF102991999999999999999999MA1101591999999REMMET052METAR ENSO 101320Z 14005KT 9999 FEW020 03/M02 Q1016;
0121010014999992013011013504+59783+005350FM-15+0049ENSO V0201401N002112200019N0112651N1+00301-00201999999ADDGA1021+006001999GF102991999999999999999999MA1101591999999REMMET052METAR ENSO 101350Z 14004KT 9999 FEW020 03/M02 Q1016;
0129010014999992013011014204+59783+005350FM-15+0049ENSO V0201501N001512200019N0112651N1+00201-00101999999ADDGA1021+006001999GF102991999999999999999999MA1101691999999REMMET060METAR ENSO 101420Z 15003KT 120V190 9999 FEW020 02/M01 Q1017;
0121010014999992013011014504+59783+005350FM-15+0049ENSO V0209999V000512200019N0112651N1+00101-00101999999ADDGA1021+007501999GF102991999999999999999999MA1101591999999REMMET052METAR ENSO 101450Z VRB01KT 9999 FEW025 01/M01 Q1016;
0121010014999992013011016204+59783+005350FM-15+0049ENSO V0209999C000012200019N0112651N1+00101-00101999999ADDGA1021+007501999GF102991999999999999999999MA1101591999999REMMET052METAR ENSO 101620Z 00000KT 9999 FEW025 01/M01 Q1016;
0121010014999992013011016504+59783+005350FM-15+0049ENSO V0209999V000512200019N0112651N1+00101-00101999999ADDGA1021+007501999GF102991999999999999999999MA1101691999999REMMET052METAR ENSO 101650Z VRB01KT 9999 FEW025 01/M01 Q1017;
0121010014999992013011018204+59783+005350FM-15+0049ENSO V0209999V000512200019N0112651N1+00001-00101999999ADDGA1021+007501999GF102991999999999999999999MA1101691999999REMMET052METAR ENSO 101820Z VRB01KT 9999 FEW025 00/M01 Q1017;
0074010014999992013011109204+59783+005350FM-15+0049ENSO V0201301N002619999999Y0099001N1-00101-00701999999ADDMA1102001999999REMMET047METAR ENSO 110920Z 13005KT CAVOK M01/M07 Q1020;
0074010014999992013011109504+59783+005350FM-15+0049ENSO V0201201N004119999999Y0099001N1+00001-00601999999ADDMA1102001999999REMMET047METAR ENSO 110950Z 12008KT CAVOK M00/M06 Q1020;
0073010014999992013011111204+59783+005350FM-15+0049ENSO V0201101N003619999999Y0099001N1+00001-00701999999ADDMA1102101999999REMMET046METAR ENSO 111120Z 11007KT CAVOK 00/M07 Q1021;
0073010014999992013011111504+59783+005350FM-15+0049ENSO V0201201N004119999999Y0099001N1+00101-00601999999ADDMA1102101999999REMMET046METAR ENSO 111150Z 12008KT CAVOK 01/M06 Q1021;
0073010014999992013011112204+59783+005350FM-15+0049ENSO V0201201N002119999999Y0099001N1+00101-00501999999ADDMA1102101999999REMMET046METAR ENSO 111220Z 12004KT CAVOK 01/M05 Q1021;
0073010014999992013011112504+59783+005350FM-15+0049ENSO V0201101N002619999999Y0099001N1+00101-00501999999ADDMA1102101999999REMMET046METAR ENSO 111250Z 11005KT CAVOK 01/M05 Q1021;
0073010014999992013011113204+59783+005350FM-15+0049ENSO V0201001N002619999999Y0099001N1+00001-00601999999ADDMA1102101999999REMMET046METAR ENSO 111320Z 10005KT CAVOK 00/M06 Q1021;
0073010014999992013011113504+59783+005350FM-15+0049ENSO V0201001N003619999999Y0099001N1+00001-00601999999ADDMA1102101999999REMMET046METAR ENSO 111350Z 10007KT CAVOK 00/M06 Q1021;
0074010014999992013011114504+59783+005350FM-15+0049ENSO V0200701N002119999999Y0099001N1+00001-00501999999ADDMA1102101999999REMMET047METAR ENSO 111450Z 07004KT CAVOK M00/M05 Q1021;
0074010014999992013011115204+59783+005350FM-15+0049ENSO V0201301N002619999999Y0099001N1-00101-00601999999ADDMA1102101999999REMMET047METAR ENSO 111520Z 13005KT CAVOK M01/M06 Q1021;
0074010014999992013011115504+59783+005350FM-15+0049ENSO V0201001N002619999999Y0099001N1-00101-00601999999ADDMA1102201999999REMMET047METAR ENSO 111550Z 10005KT CAVOK M01/M06 Q1022;
0074010014999992013011312504+59783+005350FM-15+0049ENSO V0201101N005119999999Y0099001N1-00101-00801999999ADDMA1102401999999REMMET047METAR ENSO 131250Z 11010KT CAVOK M01/M08 Q1024;
0122010014999992013011314204+59783+005350FM-15+0049ENSO V0201101N004112200019N0112651N1-00201-00901999999ADDGA1021+015001999GF102991999999999999999999MA1102401999999REMMET053METAR ENSO 131420Z 11008KT 9999 FEW055 M02/M09 Q1024;
0122010014999992013011315204+59783+005350FM-15+0049ENSO V0201201N004612200019N0112651N1-00201-00901999999ADDGA1021+015001999GF102991999999999999999999MA1102301999999REMMET053METAR ENSO 131520Z 12009KT 9999 FEW055 M02/M09 Q1023;
0122010014999992013011315504+59783+005350FM-15+0049ENSO V0201201N003112200019N0112651N1-00201-00901999999ADDGA1021+015001999GF102991999999999999999999MA1102301999999REMMET053METAR ENSO 131550Z 12006KT 9999 FEW055 M02/M09 Q1023;
0122010014999992013011316204+59783+005350FM-15+0049ENSO V0201201N004112200019N0112651N1-00201-00901999999ADDGA1021+015001999GF102991999999999999999999MA1102301999999REMMET053METAR ENSO 131620Z 12008KT 9999 FEW055 M02/M09 Q1023;
0122010014999992013011317204+59783+005350FM-15+0049ENSO V0201201N004612200019N0112651N1-00201-00901999999ADDGA1021+015001999GF102991999999999999999999MA1102301999999REMMET053METAR ENSO 131720Z 12009KT 9999 FEW055 M02/M09 Q1023;
0122010014999992013011317504+59783+005350FM-15+0049ENSO V0201101N005112200019N0112651N1-00201-00801999999ADDGA1021+015001999GF102991999999999999999999MA1102301999999REMMET053METAR ENSO 131750Z 11010KT 9999 FEW055 M02/M08 Q1023;
0122010014999992013011404504+59783+005350FM-15+0049ENSO V0201001N004112200019N0112651N1-00101-00701999999ADDGA1021+015001999GF102991999999999999999999MA1101901999999REMMET053METAR ENSO 140450Z 10008KT 9999 FEW055 M01/M07 Q1019;
0122010014999992013011405204+59783+005350FM-15+0049ENSO V0201201N004112200019N0112651N1-00101-00701999999ADDGA1021+015001999GF102991999999999999999999MA1101901999999REMMET053METAR ENSO 140520Z 12008KT 9999 FEW055 M01/M07 Q1019;
0122010014999992013011405504+59783+005350FM-15+0049ENSO V0201201N004612200019N0112651N1-00101-00701999999ADDGA1021+015001999GF102991999999999999999999MA1101901999999REMMET053METAR ENSO 140550Z 12009KT 9999 FEW055 M01/M07 Q1019;
0122010014999992013011406204+59783+005350FM-15+0049ENSO V0201201N005712200019N0112651N1-00101-00701999999ADDGA1021+015001999GF102991999999999999999999MA1101801999999REMMET053METAR ENSO 140620Z 12011KT 9999 FEW055 M01/M07 Q1018;
0122010014999992013011406504+59783+005350FM-15+0049ENSO V0201101N003612200019N0112651N1-00101-00701999999ADDGA1021+015001999GF102991999999999999999999MA1101801999999REMMET053METAR ENSO 140650Z 11007KT 9999 FEW055 M01/M07 Q1018;
0122010014999992013011407204+59783+005350FM-15+0049ENSO V0201001N004112200019N0112651N1-00201-00701999999ADDGA1041+015001999GF104991999999999999999999MA1101801999999REMMET053METAR ENSO 140720Z 10008KT 9999 SCT055 M02/M07 Q1018;
0145010014999992013011407504+59783+005350FM-15+0049ENSO V0201101N005712200019N0112651N1-00101-00701999999ADDGA1021+012001999GA2041+015001999GF104991999999999999999999MA1101801999999REMMET060METAR ENSO 140750Z 11011KT 9999 FEW040 SCT055 M01/M07 Q1018;
0145010014999992013011408504+59783+005350FM-15+0049ENSO V0201101N003612200019N0112651N1-00201-00701999999ADDGA1021+012001999GA2041+015001999GF104991999999999999999999MA1101801999999REMMET060METAR ENSO 140850Z 11007KT 9999 FEW040 SCT055 M02/M07 Q1018;
0122010014999992013011409204+59783+005350FM-15+0049ENSO V0201101N004612200019N0112651N1-00201-00701999999ADDGA1041+012001999GF104991999999999999999999MA1101801999999REMMET053METAR ENSO 140920Z 11009KT 9999 SCT040 M02/M07 Q1018;
0122010014999992013011409504+59783+005350FM-15+0049ENSO V0201101N004612200019N0112651N1-00201-00701999999ADDGA1041+012001999GF104991999999999999999999MA1101691999999REMMET053METAR ENSO 140950Z 11009KT 9999 SCT040 M02/M07 Q1017;
0145010014999992013011410204+59783+005350FM-15+0049ENSO V0201101N004612200019N0112651N1-00101-00701999999ADDGA1041+012001999GA2041+015001999GF104991999999999999999999MA1101691999999REMMET060METAR ENSO 141020Z 11009KT 9999 SCT040 SCT050 M01/M07 Q1017;
0145010014999992013011410504+59783+005350FM-15+0049ENSO V0201101N005112200019N0112651N1-00101-00701999999ADDGA1041+012001999GA2041+015001999GF104991999999999999999999MA1101691999999REMMET060METAR ENSO 141050Z 11010KT 9999 SCT040 SCT050 M01/M07 Q1017;
0122010014999992013011411204+59783+005350FM-15+0049ENSO V0201001N004610135019N0112651N1-00101-00701999999ADDGA1071+013501999GF107991999999999999999999MA1101691999999REMMET053METAR ENSO 141120Z 10009KT 9999 BKN045 M01/M07 Q1017;
0145010014999992013011411504+59783+005350FM-15+0049ENSO V0200901N005710135019N0112651N1-00101-00701999999ADDGA1041+010501999GA2071+013501999GF107991999999999999999999MA1101591999999REMMET060METAR ENSO 141150Z 09011KT 9999 SCT035 BKN045 M01/M07 Q1016;
0145010014999992013011412204+59783+005350FM-15+0049ENSO V0201001N005112200019N0112651N1-00101-00801999999ADDGA1041+012001999GA2041+015001999GF104991999999999999999999MA1101591999999REMMET060METAR ENSO 141220Z 10010KT 9999 SCT040 SCT050 M01/M08 Q1016;
0145010014999992013011412504+59783+005350FM-15+0049ENSO V0200801N004112200019N0112651N1-00201-00801999999ADDGA1021+012001999GA2041+030001999GF104991999999999999999999MA1101591999999REMMET060METAR ENSO 141250Z 08008KT 9999 FEW040 SCT100 M02/M08 Q1016;
0145010014999992013011413204+59783+005350FM-15+0049ENSO V0201101N004112200019N0112651N1-00201-00801999999ADDGA1021+012001999GA2041+030001999GF104991999999999999999999MA1101491999999REMMET060METAR ENSO 141320Z 11008KT 9999 FEW040 SCT100 M02/M08 Q1015;
0145010014999992013011413504+59783+005350FM-15+0049ENSO V0201101N005112200019N0112651N1-00201-00901999999ADDGA1021+015001999GA2041+042001999GF104991999999999999999999MA1101491999999REMMET060METAR ENSO 141350Z 11010KT 9999 FEW050 SCT140 M02/M09 Q1015;
0074010014999992013011414204+59783+005350FM-15+0049ENSO V0201101N004619999999Y0099001N1-00201-00901999999ADDMA1101491999999REMMET047METAR ENSO 141420Z 11009KT CAVOK M02/M09 Q1015;
0074010014999992013011414504+59783+005350FM-15+0049ENSO V0201101N004119999999Y0099001N1-00201-00901999999ADDMA1101491999999REMMET047METAR ENSO 141450Z 11008KT CAVOK M02/M09 Q1015;
0074010014999992013011415504+59783+005350FM-15+0049ENSO V0201101N004619999999Y0099001N1-00201-00901999999ADDMA1101391999999REMMET047METAR ENSO 141550Z 11009KT CAVOK M02/M09 Q1014;
0074010014999992013011416204+59783+005350FM-15+0049ENSO V0201001N003619999999Y0099001N1-00301-00901999999ADDMA1101391999999REMMET047METAR ENSO 141620Z 10007KT CAVOK M03/M09 Q1014;
0074010014999992013011416504+59783+005350FM-15+0049ENSO V0201001N004619999999Y0099001N1-00201-01001999999ADDMA1101391999999REMMET047METAR ENSO 141650Z 10009KT CAVOK M02/M10 Q1014;
0074010014999992013011417204+59783+005350FM-15+0049ENSO V0201001N004619999999Y0099001N1-00201-01001999999ADDMA1101391999999REMMET047METAR ENSO 141720Z 10009KT CAVOK M02/M10 Q1014;
0074010014999992013011417504+59783+005350FM-15+0049ENSO V0201001N005119999999Y0099001N1-00201-01001999999ADDMA1101391999999REMMET047METAR ENSO 141750Z 10010KT CAVOK M02/M10 Q1014;
0074010014999992013011504504+59783+005350FM-15+0049ENSO V0200301N001519999999Y0099001N1-00401-01101999999ADDMA1101391999999REMMET047METAR ENSO 150450Z 03003KT CAVOK M04/M11 Q1014;
0074010014999992013011505204+59783+005350FM-15+0049ENSO V0200301N001519999999Y0099001N1-00401-01201999999ADDMA1101391999999REMMET047METAR ENSO 150520Z 03003KT CAVOK M04/M12 Q1014;
0074010014999992013011505504+59783+005350FM-15+0049ENSO V0202101N001019999999Y0099001N1-00401-01001999999ADDMA1101391999999REMMET047METAR ENSO 150550Z 21002KT CAVOK M04/M10 Q1014;
0074010014999992013011506204+59783+005350FM-15+0049ENSO V0202601N001019999999Y0099001N1-00501-01001999999ADDMA1101391999999REMMET047METAR ENSO 150620Z 26002KT CAVOK M05/M10 Q1014;
0074010014999992013011506504+59783+005350FM-15+0049ENSO V0200301N000519999999Y0099001N1-00501-01001999999ADDMA1101391999999REMMET047METAR ENSO 150650Z 03001KT CAVOK M05/M10 Q1014;
0074010014999992013011507204+59783+005350FM-15+0049ENSO V0202001N001019999999Y0099001N1-00401-00701999999ADDMA1101391999999REMMET047METAR ENSO 150720Z 20002KT CAVOK M04/M07 Q1014;
0074010014999992013011507504+59783+005350FM-15+0049ENSO V0202401N001019999999Y0099001N1-00401-00601999999ADDMA1101391999999REMMET047METAR ENSO 150750Z 24002KT CAVOK M04/M06 Q1014;
0074010014999992013011508204+59783+005350FM-15+0049ENSO V0202501N001019999999Y0099001N1-00401-00601999999ADDMA1101391999999REMMET047METAR ENSO 150820Z 25002KT CAVOK M04/M06 Q1014;
0074010014999992013011508504+59783+005350FM-15+0049ENSO V0202701N001519999999Y0099001N1-00401-00801999999ADDMA1101391999999REMMET047METAR ENSO 150850Z 27003KT CAVOK M04/M08 Q1014;
0074010014999992013011509504+59783+005350FM-15+0049ENSO V0201101N001519999999Y0099001N1-00401-00901999999ADDMA1101391999999REMMET047METAR ENSO 150950Z 11003KT CAVOK M04/M09 Q1014;
0074010014999992013011510204+59783+005350FM-15+0049ENSO V0200801N002619999999Y0099001N1-00401-01001999999ADDMA1101391999999REMMET047METAR ENSO 151020Z 08005KT CAVOK M04/M10 Q1014;
0074010014999992013011511204+59783+005350FM-15+0049ENSO V0201001N002119999999Y0099001N1-00301-00901999999ADDMA1101391999999REMMET047METAR ENSO 151120Z 10004KT CAVOK M03/M09 Q1014;
0074010014999992013011511504+59783+005350FM-15+0049ENSO V0201001N002619999999Y0099001N1-00301-00901999999ADDMA1101391999999REMMET047METAR ENSO 151150Z 10005KT CAVOK M03/M09 Q1014;
0074010014999992013011512204+59783+005350FM-15+0049ENSO V0201101N002119999999Y0099001N1-00201-00901999999ADDMA1101391999999REMMET047METAR ENSO 151220Z 11004KT CAVOK M02/M09 Q1014;
0082010014999992013011512504+59783+005350FM-15+0049ENSO V0201101N002619999999Y0099001N1-00201-00901999999ADDMA1101391999999REMMET055METAR ENSO 151250Z 11005KT 070V130 CAVOK M02/M09 Q1014;
0122010014999992013011513204+59783+005350FM-15+0049ENSO V0201101N002612200019N0112651N1-00301-00901999999ADDGA1021+015001999GF102991999999999999999999MA1101291999999REMMET053METAR ENSO 151320Z 11005KT 9999 FEW050 M03/M09 Q1013;
0122010014999992013011513504+59783+005350FM-15+0049ENSO V0201101N002612200019N0112651N1-00301-00801999999ADDGA1041+013501999GF104991999999999999999999MA1101291999999REMMET053METAR ENSO 151350Z 11005KT 9999 SCT045 M03/M08 Q1013;
0145010014999992013011514204+59783+005350FM-15+0049ENSO V0201101N003112200019N0112651N1-00301-00801999999ADDGA1021+009001999GA2041+013501999GF104991999999999999999999MA1101291999999REMMET060METAR ENSO 151420Z 11006KT 9999 FEW030 SCT045 M03/M08 Q1013;
0122010014999992013011514504+59783+005350FM-15+0049ENSO V0201101N002612200019N0112651N1-00401-00901999999ADDGA1021+015001999GF102991999999999999999999MA1101291999999REMMET053METAR ENSO 151450Z 11005KT 9999 FEW050 M04/M09 Q1013;
0122010014999992013011515204+59783+005350FM-15+0049ENSO V0201001N003112200019N0112651N1-00401-00901999999ADDGA1021+015001999GF102991999999999999999999MA1101291999999REMMET053METAR ENSO 151520Z 10006KT 9999 FEW050 M04/M09 Q1013;
0122010014999992013011515504+59783+005350FM-15+0049ENSO V0201001N003112200019N0112651N1-00401-00901999999ADDGA1021+015001999GF102991999999999999999999MA1101291999999REMMET053METAR ENSO 151550Z 10006KT 9999 FEW055 M04/M09 Q1013;
0122010014999992013011516204+59783+005350FM-15+0049ENSO V0201001N003112200019N0112651N1-00401-01001999999ADDGA1041+013501999GF104991999999999999999999MA1101291999999REMMET053METAR ENSO 151620Z 10006KT 9999 SCT045 M04/M10 Q1013;
0122010014999992013011516504+59783+005350FM-15+0049ENSO V0201101N003110120019N0112651N1-00401-01101999999ADDGA1071+012001999GF107991999999999999999999MA1101291999999REMMET053METAR ENSO 151650Z 11006KT 9999 BKN040 M04/M11 Q1013;
0122010014999992013011517504+59783+005350FM-15+0049ENSO V0201201N003112200019N0112651N1-00401-01101999999ADDGA1041+012001999GF104991999999999999999999MA1101291999999REMMET053METAR ENSO 151750Z 12006KT 9999 SCT040 M04/M11 Q1013;
0144010014999992013011604504+59783+005350FM-15+0049ENSO V0201001N003612200019N0112651N1-00401-01001999999ADDGA1021+018001999GA2041+021001999GF104991999999999999999999MA1101391999999REMMET059METAR ENSO 160450Z 10007KT 9999 FEW060 SCT075 M04/10 Q1014;
0144010014999992013011605504+59783+005350FM-15+0049ENSO V0201001N003612200019N0112651N1-00401-01001999999ADDGA1021+015001999GA2041+021001999GF104991999999999999999999MA1101391999999REMMET059METAR ENSO 160550Z 10007KT 9999 FEW050 SCT070 M04/10 Q1014;
0144010014999992013011606204+59783+005350FM-15+0049ENSO V0201001N003612200019N0112651N1-00401-00901999999ADDGA1041+015001999GA2041+021001999GF104991999999999999999999MA1101391999999REMMET059METAR ENSO 160620Z 10007KT 9999 SCT055 SCT075 M04/09 Q1014;
0144010014999992013011606504+59783+005350FM-15+0049ENSO V0201101N004112200019N0112651N1-00401-00901999999ADDGA1041+015001999GA2041+021001999GF104991999999999999999999MA1101391999999REMMET059METAR ENSO 160650Z 11008KT 9999 SCT055 SCT075 M04/09 Q1014;
0144010014999992013011607204+59783+005350FM-15+0049ENSO V0201101N004112200019N0112651N1-00401-00901999999ADDGA1021+015001999GA2041+021001999GF104991999999999999999999MA1101391999999REMMET059METAR ENSO 160720Z 11008KT 9999 FEW055 SCT070 M04/09 Q1014;
0144010014999992013011607504+59783+005350FM-15+0049ENSO V0201001N004112200019N0112651N1-00401-00901999999ADDGA1021+015001999GA2041+021001999GF104991999999999999999999MA1101391999999REMMET059METAR ENSO 160750Z 10008KT 9999 FEW055 SCT070 M04/09 Q1014;
0144010014999992013011608204+59783+005350FM-15+0049ENSO V0201101N004112200019N0112651N1-00401-00901999999ADDGA1021+015001999GA2041+018001999GF104991999999999999999999MA1101491999999REMMET059METAR ENSO 160820Z 11008KT 9999 FEW055 SCT065 M04/09 Q1015;
0144010014999992013011608504+59783+005350FM-15+0049ENSO V0201101N003612200019N0112651N1-00301-00901999999ADDGA1021+015001999GA2041+018001999GF104991999999999999999999MA1101491999999REMMET059METAR ENSO 160850Z 11007KT 9999 FEW050 SCT065 M03/09 Q1015;
0144010014999992013011609504+59783+005350FM-15+0049ENSO V0201101N004610210019N0112651N1-00301-00901999999ADDGA1021+007501999GA2071+021001999GF107991999999999999999999MA1101491999999REMMET059METAR ENSO 160950Z 11009KT 9999 FEW025 BKN070 M03/09 Q1015;
0144010014999992013011611204+59783+005350FM-15+0049ENSO V0201001N004110180019N0112651N1-00301-00901999999ADDGA1021+007501999GA2071+018001999GF107991999999999999999999MA1101591999999REMMET059METAR ENSO 161120Z 10008KT 9999 FEW025 BKN060 M03/09 Q1016;
0144010014999992013011611504+59783+005350FM-15+0049ENSO V0201101N003610180019N0112651N1-00301-00901999999ADDGA1021+009001999GA2071+018001999GF107991999999999999999999MA1101591999999REMMET059METAR ENSO 161150Z 11007KT 9999 FEW030 BKN060 M03/09 Q1016;
0144010014999992013011612204+59783+005350FM-15+0049ENSO V0201201N003610150019N0112651N1-00201-00901999999ADDGA1021+009001999GA2071+015001999GF107991999999999999999999MA1101591999999REMMET059METAR ENSO 161220Z 12007KT 9999 FEW030 BKN055 M02/09 Q1016;
0144010014999992013011612504+59783+005350FM-15+0049ENSO V0201301N003610150019N0112651N1-00201-00901999999ADDGA1021+009001999GA2071+015001999GF107991999999999999999999MA1101591999999REMMET059METAR ENSO 161250Z 13007KT 9999 FEW030 BKN055 M02/09 Q1016;
0152010014999992013011613204+59783+005350FM-15+0049ENSO V0201501N003110180019N0112651N1-00201-00901999999ADDGA1041+009001999GA2071+018001999GF107991999999999999999999MA1101591999999REMMET067METAR ENSO 161320Z 15006KT 120V200 9999 SCT030 BKN060 M02/09 Q1016;
0152010014999992013011613504+59783+005350FM-15+0049ENSO V0201601N003112200019N0112651N1-00201-00801999999ADDGA1041+009001999GA2041+013501999GF104991999999999999999999MA1101591999999REMMET067METAR ENSO 161350Z 16006KT 110V210 9999 SCT030 SCT045 M02/08 Q1016;
0175010014999992013011614204+59783+005350FM-15+0049ENSO V0201601N00261013501CN0112651N1-00201-00801999999ADDGA1041+009001999GA2041+013501999GA3071+018001999GF107991999999999999999999MA1101591999999REMMET074METAR ENSO 161420Z 16005KT 110V240 9999 SCT030 SCT045 BKN060 M02/08 Q1016;
0153010014999992013011614504+59783+005350FM-15+0049ENSO V0201701N003110105019N0112651N1-00201-00801999999ADDGA1041+008401999GA2071+010501999GF107991999999999999999999MA1101691999999REMMET068METAR ENSO 161450Z 17006KT 130V210 9999 SCT028 BKN035 M02/M08 Q1017;
0153010014999992013011615204+59783+005350FM-15+0049ENSO V0201601N003110135019N0112651N1-00201-00801999999ADDGA1041+009601999GA2071+013501999GF107991999999999999999999MA1101691999999REMMET068METAR ENSO 161520Z 16006KT 110V210 9999 SCT032 BKN045 M02/M08 Q1017;
0164010014999992013011615504+59783+005350FM-15+0049ENSO V0201401N003110120019N0112651N1-00201-00701999999ADDGA1041+006001999GA2071+012001999GF107991999999999999999999MA1101691999999MW1161REMMET073METAR ENSO 161550Z 14006KT 110V180 9999 VCSH SCT020 BKN040 M02/M07 Q1017;
0165010014999992013011616204+59783+005350FM-15+0049ENSO V0201301N002110060019N0090001N1-00201-00701999999ADDGA1041+003601999GA2081+006001999GF108991999999999999999999MA1101691999999MW1851REMMET074METAR ENSO 161620Z 13004KT 100V190 9000 -SHSN SCT012 OVC020 M02/M07 Q1017;
0163010014999992013011616504+59783+005350FM-15+0049ENSO V0201401N002110045019N0080001N1-00201-00701999999ADDGA1041+003001999GA2081+004501999GF108991999999999999999999MA1101691999999MW1711REMMET072METAR ENSO 161650Z 14004KT 110V170 8000 -SN SCT010 OVC015 M02/M07 Q1017;
0153010014999992013011617204+59783+005350FM-15+0049ENSO V0201601N002610066019N0112651N1-00201-00701999999ADDGA1041+004801999GA2081+006601999GF108991999999999999999999MA1101801999999REMMET068METAR ENSO 161720Z 16005KT 110V170 9999 SCT016 OVC022 M02/M07 Q1018;
0163010014999992013011617504+59783+005350FM-15+0049ENSO V0201301N002610135019N0112651N1-00201-00601999999ADDGA1041+006001999GA2071+013501999GF107991999999999999999999MA1101801999999MW1711REMMET072METAR ENSO 161750Z 13005KT 100V160 9999 -SN SCT020 BKN045 M02/M06 Q1018;
0157010014999992013011704504+59783+005350FM-15+0049ENSO V0201101N002610054019N0070001N1-00401-00601999999ADDGA1021+003601999GA2081+005401999GF108991999999999999999999MA1102101999999MW1851REMMET066METAR ENSO 170450Z 11005KT 7000 -SHSN FEW012 OVC018 M04/M06 Q1021;
0157010014999992013011705204+59783+005350FM-15+0049ENSO V0201001N003610075019N0090001N1-00301-00601999999ADDGA1021+004801999GA2081+007501999GF108991999999999999999999MA1102101999999MW1851REMMET066METAR ENSO 170520Z 10007KT 9000 -SHSN FEW016 OVC025 M03/M06 Q1021;
0157010014999992013011705504+59783+005350FM-15+0049ENSO V0201001N003110054019N0090001N1-00301-00601999999ADDGA1021+003601999GA2081+005401999GF108991999999999999999999MA1102201999999MW1851REMMET066METAR ENSO 170550Z 10006KT 9000 -SHSN FEW012 OVC018 M03/M06 Q1022;
0145010014999992013011706204+59783+005350FM-15+0049ENSO V0201201N003610135019N0112651N1-00301-00701999999ADDGA1021+005401999GA2071+013501999GF107991999999999999999999MA1102201999999REMMET060METAR ENSO 170620Z 12007KT 9999 FEW018 BKN045 M03/M07 Q1022;
0145010014999992013011706504+59783+005350FM-15+0049ENSO V0201301N004110210019N0112651N1-00301-00801999999ADDGA1021+007501999GA2071+021001999GF107991999999999999999999MA1102201999999REMMET060METAR ENSO 170650Z 13008KT 9999 FEW025 BKN070 M03/M08 Q1022;
0145010014999992013011707204+59783+005350FM-15+0049ENSO V0201201N003610240019N0112651N1-00301-00801999999ADDGA1021+009001999GA2071+024001999GF107991999999999999999999MA1102201999999REMMET060METAR ENSO 170720Z 12007KT 9999 FEW030 BKN080 M03/M08 Q1022;
0145010014999992013011707504+59783+005350FM-15+0049ENSO V0201201N004610210019N0112651N1-00301-00901999999ADDGA1021+009001999GA2071+021001999GF107991999999999999999999MA1102201999999REMMET060METAR ENSO 170750Z 12009KT 9999 FEW030 BKN075 M03/M09 Q1022;
0153010014999992013011708204+59783+005350FM-15+0049ENSO V0201301N004112200019N0112651N1-00301-00901999999ADDGA1021+009001999GA2041+024001999GF104991999999999999999999MA1102301999999REMMET068METAR ENSO 170820Z 13008KT 100V160 9999 FEW030 SCT080 M03/M09 Q1023;
0130010014999992013011708504+59783+005350FM-15+0049ENSO V0201301N003112200019N0112651N1-00301-00901999999ADDGA1021+012001999GF102991999999999999999999MA1102301999999REMMET061METAR ENSO 170850Z 13006KT 080V160 9999 FEW040 M03/M09 Q1023;
0122010014999992013011709204+59783+005350FM-15+0049ENSO V0201201N004112200019N0112651N1-00301-00901999999ADDGA1021+015001999GF102991999999999999999999MA1102301999999REMMET053METAR ENSO 170920Z 12008KT 9999 FEW050 M03/M09 Q1023;
0074010014999992013011709504+59783+005350FM-15+0049ENSO V0201201N005119999999Y0099001N1-00301-00901999999ADDMA1102301999999REMMET047METAR ENSO 170950Z 12010KT CAVOK M03/M09 Q1023;
0074010014999992013011710204+59783+005350FM-15+0049ENSO V0201101N004619999999Y0099001N1-00201-01001999999ADDMA1102301999999REMMET047METAR ENSO 171020Z 11009KT CAVOK M02/M10 Q1023;
0082010014999992013011710504+59783+005350FM-15+0049ENSO V0201301N005719999999Y0099001N1-00201-01101999999ADDMA1102301999999REMMET055METAR ENSO 171050Z 13011KT 090V170 CAVOK M02/M11 Q1023;
0082010014999992013011711204+59783+005350FM-15+0049ENSO V0201401N004619999999Y0099001N1-00201-01101999999ADDMA1102301999999REMMET055METAR ENSO 171120Z 14009KT 110V180 CAVOK M02/M11 Q1023;
0074010014999992013011711504+59783+005350FM-15+0049ENSO V0201301N004119999999Y0099001N1-00101-01101999999ADDMA1102301999999REMMET047METAR ENSO 171150Z 13008KT CAVOK M01/M11 Q1023;
0074010014999992013011712204+59783+005350FM-15+0049ENSO V0201301N003619999999Y0099001N1-00101-01101999999ADDMA1102301999999REMMET047METAR ENSO 171220Z 13007KT CAVOK M01/M11 Q1023;
0074010014999992013011713204+59783+005350FM-15+0049ENSO V0201201N004119999999Y0099001N1-00101-01101999999ADDMA1102301999999REMMET047METAR ENSO 171320Z 12008KT CAVOK M01/M11 Q1023;
0074010014999992013011713504+59783+005350FM-15+0049ENSO V0201301N003619999999Y0099001N1-00101-01201999999ADDMA1102301999999REMMET047METAR ENSO 171350Z 13007KT CAVOK M01/M12 Q1023;
0074010014999992013011714204+59783+005350FM-15+0049ENSO V0201201N004119999999Y0099001N1-00201-01201999999ADDMA1102301999999REMMET047METAR ENSO 171420Z 12008KT CAVOK M02/M12 Q1023;
0074010014999992013011714504+59783+005350FM-15+0049ENSO V0201201N003619999999Y0099001N1-00201-01101999999ADDMA1102401999999REMMET047METAR ENSO 171450Z 12007KT CAVOK M02/M11 Q1024;
0074010014999992013011715204+59783+005350FM-15+0049ENSO V0201201N003119999999Y0099001N1-00301-01101999999ADDMA1102301999999REMMET047METAR ENSO 171520Z 12006KT CAVOK M03/M11 Q1023;
0074010014999992013011715504+59783+005350FM-15+0049ENSO V0201301N003119999999Y0099001N1-00301-01101999999ADDMA1102401999999REMMET047METAR ENSO 171550Z 13006KT CAVOK M03/M11 Q1024;
0074010014999992013011716204+59783+005350FM-15+0049ENSO V0201401N003119999999Y0099001N1-00301-01001999999ADDMA1102401999999REMMET047METAR ENSO 171620Z 14006KT CAVOK M03/M10 Q1024;
0074010014999992013011716504+59783+005350FM-15+0049ENSO V0201401N003119999999Y0099001N1-00301-01001999999ADDMA1102401999999REMMET047METAR ENSO 171650Z 14006KT CAVOK M03/M10 Q1024;
0074010014999992013011717204+59783+005350FM-15+0049ENSO V0201301N003119999999Y0099001N1-00301-01001999999ADDMA1102301999999REMMET047METAR ENSO 171720Z 13006KT CAVOK M03/M10 Q1023;
0074010014999992013011717504+59783+005350FM-15+0049ENSO V0201301N003119999999Y0099001N1-00301-01001999999ADDMA1102301999999REMMET047METAR ENSO 171750Z 13006KT CAVOK M03/M10 Q1023;
0074010014999992013011718204+59783+005350FM-15+0049ENSO V0201301N003119999999Y0099001N1-00401-01001999999ADDMA1102301999999REMMET047METAR ENSO 171820Z 13006KT CAVOK M04/M10 Q1023;
0122010014999992013011808204+59783+005350FM-15+0049ENSO V0201101N005712200019N0112651N1-00301-00901999999ADDGA1021+013501999GF102991999999999999999999MA1102101999999REMMET053METAR ENSO 180820Z 11011KT 9999 FEW045 M03/M09 Q1021;
0122010014999992013011808504+59783+005350FM-15+0049ENSO V0201101N005112200019N0112651N1-00301-01001999999ADDGA1021+013501999GF102991999999999999999999MA1102101999999REMMET053METAR ENSO 180850Z 11010KT 9999 FEW045 M03/M10 Q1021;
0074010014999992013011809204+59783+005350FM-15+0049ENSO V0201101N004619999999Y0099001N1-00201-00901999999ADDMA1102101999999REMMET047METAR ENSO 180920Z 11009KT CAVOK M02/M09 Q1021;
0074010014999992013011809504+59783+005350FM-15+0049ENSO V0201101N004619999999Y0099001N1-00201-00901999999ADDMA1102101999999REMMET047METAR ENSO 180950Z 11009KT CAVOK M02/M09 Q1021;
0074010014999992013011810204+59783+005350FM-15+0049ENSO V0201201N002619999999Y0099001N1-00201-00901999999ADDMA1102001999999REMMET047METAR ENSO 181020Z 12005KT CAVOK M02/M09 Q1020;
0074010014999992013011810504+59783+005350FM-15+0049ENSO V0200901N004119999999Y0099001N1-00101-00901999999ADDMA1102001999999REMMET047METAR ENSO 181050Z 09008KT CAVOK M01/M09 Q1020;
0074010014999992013011811204+59783+005350FM-15+0049ENSO V0200901N004619999999Y0099001N1-00101-00901999999ADDMA1102001999999REMMET047METAR ENSO 181120Z 09009KT CAVOK M01/M09 Q1020;
0074010014999992013011812204+59783+005350FM-15+0049ENSO V0201001N005119999999Y0099001N1-00101-00901999999ADDMA1101901999999REMMET047METAR ENSO 181220Z 10010KT CAVOK M01/M09 Q1019;
0074010014999992013011812504+59783+005350FM-15+0049ENSO V0200901N004619999999Y0099001N1-00201-00901999999ADDMA1101901999999REMMET047METAR ENSO 181250Z 09009KT CAVOK M02/M09 Q1019;
0122010014999992013011813204+59783+005350FM-15+0049ENSO V0200901N004612200019N0112651N1-00101-00901999999ADDGA1041+015001999GF104991999999999999999999MA1101901999999REMMET053METAR ENSO 181320Z 09009KT 9999 SCT050 M01/M09 Q1019;
0122010014999992013011813504+59783+005350FM-15+0049ENSO V0200901N003612200019N0112651N1-00101-00901999999ADDGA1041+015001999GF104991999999999999999999MA1101801999999REMMET053METAR ENSO 181350Z 09007KT 9999 SCT050 M01/M09 Q1018;
0122010014999992013011814204+59783+005350FM-15+0049ENSO V0200901N003112200019N0112651N1-00101-01001999999ADDGA1041+015001999GF104991999999999999999999MA1101801999999REMMET053METAR ENSO 181420Z 09006KT 9999 SCT050 M01/M10 Q1018;
0122010014999992013011814504+59783+005350FM-15+0049ENSO V0200801N003112200019N0112651N1-00101-00901999999ADDGA1021+012001999GF102991999999999999999999MA1101801999999REMMET053METAR ENSO 181450Z 08006KT 9999 FEW040 M01/M09 Q1018;
0074010014999992013011818504+59783+005350FM-15+0049ENSO V0202301N001519999999Y0099001N1-00301-00701999999ADDMA1101691999999REMMET047METAR ENSO 181850Z 23003KT CAVOK M03/M07 Q1017;
0074010014999992013011819204+59783+005350FM-15+0049ENSO V0202201N001019999999Y0099001N1-00401-00701999999ADDMA1101691999999REMMET047METAR ENSO 181920Z 22002KT CAVOK M04/M07 Q1017;
0074010014999992013011819504+59783+005350FM-15+0049ENSO V0209999V000519999999Y0099001N1-00401-00701999999ADDMA1101691999999REMMET047METAR ENSO 181950Z VRB01KT CAVOK M04/M07 Q1017;
0074010014999992013011820204+59783+005350FM-15+0049ENSO V0209999V000519999999Y0099001N1-00401-00801999999ADDMA1101691999999REMMET047METAR ENSO 182020Z VRB01KT CAVOK M04/M08 Q1017;
0074010014999992013012012504+59783+005350FM-15+0049ENSO V0201801N001019999999Y0099001N1-00101-00501999999ADDMA1101021999999REMMET047METAR ENSO 201250Z 18002KT CAVOK M01/M05 Q1010;
0074010014999992013012013204+59783+005350FM-15+0049ENSO V0209999V000519999999Y0099001N1-00101-00501999999ADDMA1101021999999REMMET047METAR ENSO 201320Z VRB01KT CAVOK M01/M05 Q1010;
0073010014999992013012014204+59783+005350FM-15+0049ENSO V0209999V001019999999Y0099001N1+00001-00501999999ADDMA1101021999999REMMET046METAR ENSO 201420Z VRB02KT CAVOK 00/M05 Q1010;
0073010014999992013012014504+59783+005350FM-15+0049ENSO V0209999V000519999999Y0099001N1+00201-00401999999ADDMA1101081999999REMMET046METAR ENSO 201450Z VRB01KT CAVOK 02/M04 Q1011;
0074010014999992013012015204+59783+005350FM-15+0049ENSO V0200901N003619999999Y0099001N1+00001-00501999999ADDMA1101081999999REMMET047METAR ENSO 201520Z 09007KT CAVOK M00/M05 Q1011;
0073010014999992013012015504+59783+005350FM-15+0049ENSO V0201001N003119999999Y0099001N1+00101-00501999999ADDMA1101081999999REMMET046METAR ENSO 201550Z 10006KT CAVOK 01/M05 Q1011;
0073010014999992013012016504+59783+005350FM-15+0049ENSO V0201101N003119999999Y0099001N1+00101-00501999999ADDMA1101081999999REMMET046METAR ENSO 201650Z 11006KT CAVOK 01/M05 Q1011;
0074010014999992013012018204+59783+005350FM-15+0049ENSO V0202001N001019999999Y0099001N1+00001-00301999999ADDMA1101081999999REMMET047METAR ENSO 201820Z 20002KT CAVOK M00/M03 Q1011;
0073010014999992013012104504+59783+005350FM-15+0049ENSO V0201101N005119999999Y0099001N1-00301+99999999999ADDMA1101491999999REMMET046METAR ENSO 210450Z 11010KT CAVOK M03/13 Q1015;
0073010014999992013012105204+59783+005350FM-15+0049ENSO V0201101N004619999999Y0099001N1-00301+99999999999ADDMA1101491999999REMMET046METAR ENSO 210520Z 11009KT CAVOK M03/13 Q1015;
0084010014999992013012105504+59783+005350FM-15+0049ENSO V0201101N007219999999Y0099001N1-00301+99999999999ADDMA1101491999999OC101291REMMET049METAR ENSO 210550Z 11014G25KT CAVOK M03/13 Q1015;
0073010014999992013012106504+59783+005350FM-15+0049ENSO V0201001N003619999999Y0099001N1-00301+99999999999ADDMA1101491999999REMMET046METAR ENSO 210650Z 10007KT CAVOK M03/13 Q1015;
0073010014999992013012107504+59783+005350FM-15+0049ENSO V0200701N002619999999Y0099001N1-00301+99999999999ADDMA1101591999999REMMET046METAR ENSO 210750Z 07005KT CAVOK M03/12 Q1016;
0073010014999992013012108204+59783+005350FM-15+0049ENSO V0201301N003119999999Y0099001N1-00401+99999999999ADDMA1101591999999REMMET046METAR ENSO 210820Z 13006KT CAVOK M04/12 Q1016;
0073010014999992013012109204+59783+005350FM-15+0049ENSO V0200701N003619999999Y0099001N1-00301+99999999999ADDMA1101591999999REMMET046METAR ENSO 210920Z 07007KT CAVOK M03/12 Q1016;
0073010014999992013012110204+59783+005350FM-15+0049ENSO V0201101N004619999999Y0099001N1-00201+99999999999ADDMA1101591999999REMMET046METAR ENSO 211020Z 11009KT CAVOK M02/16 Q1016;
0073010014999992013012110504+59783+005350FM-15+0049ENSO V0209999V001019999999Y0099001N1-00101+99999999999ADDMA1101591999999REMMET046METAR ENSO 211050Z VRB02KT CAVOK M01/15 Q1016;
0074010014999992013012111204+59783+005350FM-15+0049ENSO V0209999V000519999999Y0099001N1+00001-01401999999ADDMA1101591999999REMMET047METAR ENSO 211120Z VRB01KT CAVOK M00/M14 Q1016;
0074010014999992013012111504+59783+005350FM-15+0049ENSO V0209999V001019999999Y0099001N1+00001-01401999999ADDMA1101591999999REMMET047METAR ENSO 211150Z VRB02KT CAVOK M00/M14 Q1016;
0074010014999992013012112204+59783+005350FM-15+0049ENSO V0201201N002619999999Y0099001N1+00001-01601999999ADDMA1101591999999REMMET047METAR ENSO 211220Z 12005KT CAVOK M00/M16 Q1016;
0074010014999992013012112504+59783+005350FM-15+0049ENSO V0201201N005119999999Y0099001N1-00101-01501999999ADDMA1101591999999REMMET047METAR ENSO 211250Z 12010KT CAVOK M01/M15 Q1016;
0082010014999992013012113504+59783+005350FM-15+0049ENSO V0201001N003619999999Y0099001N1-00101-01601999999ADDMA1101591999999REMMET055METAR ENSO 211350Z 10007KT 050V130 CAVOK M01/M16 Q1016;
0074010014999992013012114204+59783+005350FM-15+0049ENSO V0209999V001019999999Y0099001N1+00001-01601999999ADDMA1101591999999REMMET047METAR ENSO 211420Z VRB02KT CAVOK M00/M16 Q1016;
0082010014999992013012115204+59783+005350FM-15+0049ENSO V0200801N003119999999Y0099001N1-00201-01401999999ADDMA1101591999999REMMET055METAR ENSO 211520Z 08006KT 050V120 CAVOK M02/M14 Q1016;
0082010014999992013012115504+59783+005350FM-15+0049ENSO V0201401N003119999999Y0099001N1-00301-01301999999ADDMA1101591999999REMMET055METAR ENSO 211550Z 14006KT 080V210 CAVOK M03/M13 Q1016;
0082010014999992013012116504+59783+005350FM-15+0049ENSO V0201901N004119999999Y0099001N1-00301-01201999999ADDMA1101591999999REMMET055METAR ENSO 211650Z 19008KT 140V230 CAVOK M03/M12 Q1016;
0082010014999992013012117204+59783+005350FM-15+0049ENSO V0200901N004619999999Y0099001N1-00301-01401999999ADDMA1101591999999REMMET055METAR ENSO 211720Z 09009KT 060V130 CAVOK M03/M14 Q1016;
0082010014999992013012117504+59783+005350FM-15+0049ENSO V0201501N002119999999Y0099001N1-00401-01301999999ADDMA1101591999999REMMET055METAR ENSO 211750Z 15004KT 050V200 CAVOK M04/M13 Q1016;
0082010014999992013012118204+59783+005350FM-15+0049ENSO V0200901N004619999999Y0099001N1-00301-01301999999ADDMA1101591999999REMMET055METAR ENSO 211820Z 09009KT 050V110 CAVOK M03/M13 Q1016;
0074010014999992013012204504+59783+005350FM-15+0049ENSO V0209999V000519999999Y0099001N1-00601-01101999999ADDMA1101691999999REMMET047METAR ENSO 220450Z VRB01KT CAVOK M06/M11 Q1017;
0074010014999992013012205204+59783+005350FM-15+0049ENSO V0209999V000519999999Y0099001N1-00601-00901999999ADDMA1101691999999REMMET047METAR ENSO 220520Z VRB01KT CAVOK M06/M09 Q1017;
0074010014999992013012206504+59783+005350FM-15+0049ENSO V0209999V001019999999Y0099001N1-00601-00901999999ADDMA1101691999999REMMET047METAR ENSO 220650Z VRB02KT CAVOK M06/M09 Q1017;
0074010014999992013012207204+59783+005350FM-15+0049ENSO V0209999V001019999999Y0099001N1-00601-01001999999ADDMA1101691999999REMMET047METAR ENSO 220720Z VRB02KT CAVOK M06/M10 Q1017;
0074010014999992013012207504+59783+005350FM-15+0049ENSO V0201901N001019999999Y0099001N1-00601-00901999999ADDMA1101691999999REMMET047METAR ENSO 220750Z 19002KT CAVOK M06/M09 Q1017;
0074010014999992013012208204+59783+005350FM-15+0049ENSO V0202101N000519999999Y0099001N1-00601-00801999999ADDMA1101691999999REMMET047METAR ENSO 220820Z 21001KT CAVOK M06/M08 Q1017;
0074010014999992013012208504+59783+005350FM-15+0049ENSO V0201901N001019999999Y0099001N1-00501-00801999999ADDMA1101691999999REMMET047METAR ENSO 220850Z 19002KT CAVOK M05/M08 Q1017;
0074010014999992013012209504+59783+005350FM-15+0049ENSO V0201501N001519999999Y0099001N1-00401-00901999999ADDMA1101691999999REMMET047METAR ENSO 220950Z 15003KT CAVOK M04/M09 Q1017;
0074010014999992013012210204+59783+005350FM-15+0049ENSO V0201301N003119999999Y0099001N1-00401-00801999999ADDMA1101691999999REMMET047METAR ENSO 221020Z 13006KT CAVOK M04/M08 Q1017;
0074010014999992013012210504+59783+005350FM-15+0049ENSO V0201401N002619999999Y0099001N1-00301-00801999999ADDMA1101691999999REMMET047METAR ENSO 221050Z 14005KT CAVOK M03/M08 Q1017;
0082010014999992013012211204+59783+005350FM-15+0049ENSO V0201701N001519999999Y0099001N1-00201-00701999999ADDMA1101691999999REMMET055METAR ENSO 221120Z 17003KT 080V240 CAVOK M02/M07 Q1017;
0074010014999992013012211504+59783+005350FM-15+0049ENSO V0209999V001519999999Y0099001N1-00201-00701999999ADDMA1101691999999REMMET047METAR ENSO 221150Z VRB03KT CAVOK M02/M07 Q1017;
0074010014999992013012212504+59783+005350FM-15+0049ENSO V0201301N001519999999Y0099001N1-00101-00901999999ADDMA1101691999999REMMET047METAR ENSO 221250Z 13003KT CAVOK M01/M09 Q1017;
0074010014999992013012213204+59783+005350FM-15+0049ENSO V0201201N001519999999Y0099001N1-00101-01001999999ADDMA1101691999999REMMET047METAR ENSO 221320Z 12003KT CAVOK M01/M10 Q1017;
0074010014999992013012213504+59783+005350FM-15+0049ENSO V0201301N001019999999Y0099001N1-00201-01101999999ADDMA1101691999999REMMET047METAR ENSO 221350Z 13002KT CAVOK M02/M11 Q1017;
0074010014999992013012214204+59783+005350FM-15+0049ENSO V0201301N001519999999Y0099001N1-00201-00901999999ADDMA1101691999999REMMET047METAR ENSO 221420Z 13003KT CAVOK M02/M09 Q1017;
0074010014999992013012214504+59783+005350FM-15+0049ENSO V0201501N002119999999Y0099001N1-00201-01001999999ADDMA1101691999999REMMET047METAR ENSO 221450Z 15004KT CAVOK M02/M10 Q1017;
0074010014999992013012216204+59783+005350FM-15+0049ENSO V0201601N001019999999Y0099001N1-00401-01101999999ADDMA1101691999999REMMET047METAR ENSO 221620Z 16002KT CAVOK M04/M11 Q1017;
0074010014999992013012216504+59783+005350FM-15+0049ENSO V0201501N001019999999Y0099001N1-00501-01101999999ADDMA1101691999999REMMET047METAR ENSO 221650Z 15002KT CAVOK M05/M11 Q1017;
0074010014999992013012304504+59783+005350FM-15+0049ENSO V0201601N001519999999Y0099001N1-00601-00801999999ADDMA1101591999999REMMET047METAR ENSO 230450Z 16003KT CAVOK M06/M08 Q1016;
0074010014999992013012305204+59783+005350FM-15+0049ENSO V0209999V001019999999Y0099001N1-00701-00901999999ADDMA1101591999999REMMET047METAR ENSO 230520Z VRB02KT CAVOK M07/M09 Q1016;
0074010014999992013012305504+59783+005350FM-15+0049ENSO V0201701N001019999999Y0099001N1-00501-00801999999ADDMA1101491999999REMMET047METAR ENSO 230550Z 17002KT CAVOK M05/M08 Q1015;
0082010014999992013012306204+59783+005350FM-15+0049ENSO V0201701N001519999999Y0099001N1-00601-00801999999ADDMA1101491999999REMMET055METAR ENSO 230620Z 17003KT 110V200 CAVOK M06/M08 Q1015;
0074010014999992013012306504+59783+005350FM-15+0049ENSO V0209999V000519999999Y0099001N1-00601-00801999999ADDMA1101491999999REMMET047METAR ENSO 230650Z VRB01KT CAVOK M06/M08 Q1015;
0074010014999992013012307204+59783+005350FM-15+0049ENSO V0202101N000519999999Y0099001N1-00601-00801999999ADDMA1101491999999REMMET047METAR ENSO 230720Z 21001KT CAVOK M06/M08 Q1015;
0082010014999992013012307504+59783+005350FM-15+0049ENSO V0201701N001519999999Y0099001N1-00601-00801999999ADDMA1101491999999REMMET055METAR ENSO 230750Z 17003KT 140V200 CAVOK M06/M08 Q1015;
0074010014999992013012308204+59783+005350FM-15+0049ENSO V0209999V001019999999Y0099001N1-00601-00801999999ADDMA1101491999999REMMET047METAR ENSO 230820Z VRB02KT CAVOK M06/M08 Q1015;
0074010014999992013012308504+59783+005350FM-15+0049ENSO V0209999V001019999999Y0099001N1-00601-00801999999ADDMA1101491999999REMMET047METAR ENSO 230850Z VRB02KT CAVOK M06/M08 Q1015;
0122010014999992013012309204+59783+005350FM-15+0049ENSO V0209999V000512200019N0112651N1-00501-00801999999ADDGA1021+012001999GF102991999999999999999999MA1101491999999REMMET053METAR ENSO 230920Z VRB01KT 9999 FEW040 M05/M08 Q1015;
0122010014999992013012309504+59783+005350FM-15+0049ENSO V0209999V000512200019N0112651N1-00401-00801999999ADDGA1041+010501999GF104991999999999999999999MA1101591999999REMMET053METAR ENSO 230950Z VRB01KT 9999 SCT035 M04/M08 Q1016;
0122010014999992013012310204+59783+005350FM-15+0049ENSO V0209999V001012200019N0112651N1-00301-00701999999ADDGA1021+013501999GF102991999999999999999999MA1101591999999REMMET053METAR ENSO 231020Z VRB02KT 9999 FEW045 M03/M07 Q1016;
0074010014999992013012310504+59783+005350FM-15+0049ENSO V0209999V001019999999Y0099001N1-00201-00701999999ADDMA1101591999999REMMET047METAR ENSO 231050Z VRB02KT CAVOK M02/M07 Q1016;
0074010014999992013012311204+59783+005350FM-15+0049ENSO V0209999V000519999999Y0099001N1-00101-00701999999ADDMA1101591999999REMMET047METAR ENSO 231120Z VRB01KT CAVOK M01/M07 Q1016;
0074010014999992013012311504+59783+005350FM-15+0049ENSO V0209999V001019999999Y0099001N1-00101-00701999999ADDMA1101591999999REMMET047METAR ENSO 231150Z VRB02KT CAVOK M01/M07 Q1016;
0074010014999992013012312204+59783+005350FM-15+0049ENSO V0209999V001019999999Y0099001N1-00101-00801999999ADDMA1101491999999REMMET047METAR ENSO 231220Z VRB02KT CAVOK M01/M08 Q1015;
0074010014999992013012312504+59783+005350FM-15+0049ENSO V0201301N001519999999Y0099001N1-00101-00801999999ADDMA1101491999999REMMET047METAR ENSO 231250Z 13003KT CAVOK M01/M08 Q1015;
0122010014999992013012313204+59783+005350FM-15+0049ENSO V0201301N001512200019N0112651N1-00201-00901999999ADDGA1021+009001999GF102991999999999999999999MA1101491999999REMMET053METAR ENSO 231320Z 13003KT 9999 FEW030 M02/M09 Q1015;
0122010014999992013012313504+59783+005350FM-15+0049ENSO V0201501N002112200019N0112651N1-00201-00801999999ADDGA1021+009001999GF102991999999999999999999MA1101491999999REMMET053METAR ENSO 231350Z 15004KT 9999 FEW030 M02/M08 Q1015;
0122010014999992013012314504+59783+005350FM-15+0049ENSO V0201701N001512200019N0112651N1-00301-00701999999ADDGA1041+009001999GF104991999999999999999999MA1101491999999REMMET053METAR ENSO 231450Z 17003KT 9999 SCT030 M03/M07 Q1015;
0122010014999992013012315204+59783+005350FM-15+0049ENSO V0201401N002612200019N0112651N1-00301-00801999999ADDGA1021+009001999GF102991999999999999999999MA1101491999999REMMET053METAR ENSO 231520Z 14005KT 9999 FEW030 M03/M08 Q1015;
0122010014999992013012316204+59783+005350FM-15+0049ENSO V0201401N003612200019N0112651N1-00401-00801999999ADDGA1041+009001999GF104991999999999999999999MA1101491999999REMMET053METAR ENSO 231620Z 14007KT 9999 SCT030 M04/M08 Q1015;
0122010014999992013012317204+59783+005350FM-15+0049ENSO V0201401N002112200019N0112651N1-00401-00801999999ADDGA1041+009001999GF104991999999999999999999MA1101491999999REMMET053METAR ENSO 231720Z 14004KT 9999 SCT030 M04/M08 Q1015;
0122010014999992013012317504+59783+005350FM-15+0049ENSO V0201301N003112200019N0112651N1-00501-00901999999ADDGA1041+009001999GF104991999999999999999999MA1101491999999REMMET053METAR ENSO 231750Z 13006KT 9999 SCT030 M05/M09 Q1015;
0122010014999992013012404504+59783+005350FM-15+0049ENSO V0201301N002610090019N0112651N1-00401-00801999999ADDGA1071+009001999GF107991999999999999999999MA1101691999999REMMET053METAR ENSO 240450Z 13005KT 9999 BKN030 M04/M08 Q1017;
0122010014999992013012405204+59783+005350FM-15+0049ENSO V0201101N003110090019N0112651N1-00401-00801999999ADDGA1071+009001999GF107991999999999999999999MA1101801999999REMMET053METAR ENSO 240520Z 11006KT 9999 BKN030 M04/M08 Q1018;
0122010014999992013012405504+59783+005350FM-15+0049ENSO V0201301N003610099019N0112651N1-00401-00701999999ADDGA1071+009901999GF107991999999999999999999MA1101801999999REMMET053METAR ENSO 240550Z 13007KT 9999 BKN033 M04/M07 Q1018;
0122010014999992013012406204+59783+005350FM-15+0049ENSO V0201201N003110090019N0112651N1-00401-00701999999ADDGA1071+009001999GF107991999999999999999999MA1101801999999REMMET053METAR ENSO 240620Z 12006KT 9999 BKN030 M04/M07 Q1018;
0122010014999992013012406504+59783+005350FM-15+0049ENSO V0201101N002610090019N0112651N1-00301-00801999999ADDGA1071+009001999GF107991999999999999999999MA1101801999999REMMET053METAR ENSO 240650Z 11005KT 9999 BKN030 M03/M08 Q1018;
0130010014999992013012407204+59783+005350FM-15+0049ENSO V0201201N002610099019N0112651N1-00301-00801999999ADDGA1071+009901999GF107991999999999999999999MA1101801999999REMMET061METAR ENSO 240720Z 12005KT 090V180 9999 BKN033 M03/M08 Q1018;
0122010014999992013012407504+59783+005350FM-15+0049ENSO V0201101N002610099019N0112651N1-00301-00801999999ADDGA1071+009901999GF107991999999999999999999MA1101801999999REMMET053METAR ENSO 240750Z 11005KT 9999 BKN033 M03/M08 Q1018;
0122010014999992013012408204+59783+005350FM-15+0049ENSO V0201201N003110102019N0112651N1-00301-00801999999ADDGA1071+010201999GF107991999999999999999999MA1101801999999REMMET053METAR ENSO 240820Z 12006KT 9999 BKN034 M03/M08 Q1018;
0122010014999992013012408504+59783+005350FM-15+0049ENSO V0201101N005110105019N0112651N1-00301-00801999999ADDGA1071+010501999GF107991999999999999999999MA1101801999999REMMET053METAR ENSO 240850Z 11010KT 9999 BKN035 M03/M08 Q1018;
0122010014999992013012409204+59783+005350FM-15+0049ENSO V0201401N025710111019N0112651N1-00301-00701999999ADDGA1071+011101999GF107991999999999999999999MA1101901999999REMMET053METAR ENSO 240920Z 14050KT 9999 BKN037 M03/M07 Q1019;
0122010014999992013012409504+59783+005350FM-15+0049ENSO V0201301N004610114019N0112651N1-00201-00801999999ADDGA1071+011401999GF107991999999999999999999MA1101901999999REMMET053METAR ENSO 240950Z 13009KT 9999 BKN038 M02/M08 Q1019;
0122010014999992013012410504+59783+005350FM-15+0049ENSO V0201101N003110120019N0112651N1-00201-00901999999ADDGA1071+012001999GF107991999999999999999999MA1101901999999REMMET053METAR ENSO 241050Z 11006KT 9999 BKN040 M02/M09 Q1019;
0122010014999992013012411504+59783+005350FM-15+0049ENSO V0201301N004110120019N0112651N1-00201-01001999999ADDGA1071+012001999GF107991999999999999999999MA1101901999999REMMET053METAR ENSO 241150Z 13008KT 9999 BKN040 M02/M10 Q1019;
0145010014999992013012412204+59783+005350FM-15+0049ENSO V0201301N003110135019N0112651N1-00101-01001999999ADDGA1021+009001999GA2071+013501999GF107991999999999999999999MA1101901999999REMMET060METAR ENSO 241220Z 13006KT 9999 FEW030 BKN045 M01/M10 Q1019;
0145010014999992013012413504+59783+005350FM-15+0049ENSO V0201401N002610150019N0112651N1-00101-00901999999ADDGA1041+009001999GA2071+015001999GF107991999999999999999999MA1101901999999REMMET060METAR ENSO 241350Z 14005KT 9999 SCT030 BKN050 M01/M09 Q1019;
0145010014999992013012414204+59783+005350FM-15+0049ENSO V0201501N002110150019N0112651N1-00101-00801999999ADDGA1041+013501999GA2071+015001999GF107991999999999999999999MA1101901999999REMMET060METAR ENSO 241420Z 15004KT 9999 SCT045 BKN050 M01/M08 Q1019;
0168010014999992013012414504+59783+005350FM-15+0049ENSO V0201301N00361013501CN0112651N1-00101-00801999999ADDGA1021+010501999GA2041+013501999GA3071+015001999GF107991999999999999999999MA1101901999999REMMET067METAR ENSO 241450Z 13007KT 9999 FEW035 SCT045 BKN050 M01/M08 Q1019;
0145010014999992013012415204+59783+005350FM-15+0049ENSO V0201101N003610120019N0112651N1-00101-00901999999ADDGA1021+010501999GA2071+012001999GF107991999999999999999999MA1102001999999REMMET060METAR ENSO 241520Z 11007KT 9999 FEW035 BKN040 M01/M09 Q1020;
0144010014999992013012415504+59783+005350FM-15+0049ENSO V0201301N003110150019N0112651N1-00101-00801999999ADDGA1041+010501999GA2071+015001999GF107991999999999999999999MA1102001999999REMMET059METAR ENSO 241550Z 13006KT 9999 SCT35 BKN050 M01/M08 Q1020;
0121010014999992013012416504+59783+005350FM-15+0049ENSO V0201201N003110105019N0112651N1-00101-00801999999ADDGA1071+010501999GF107991999999999999999999MA1102001999999REMMET052METAR ENSO 241650Z 12006KT 9999 BKN35 M01/M08 Q1020;
0121010014999992013012417204+59783+005350FM-15+0049ENSO V0201201N003110111019N0112651N1-00101-00901999999ADDGA1071+011101999GF107991999999999999999999MA1102001999999REMMET052METAR ENSO 241720Z 12006KT 9999 BKN37 M01/M09 Q1020;
0145010014999992013012508204+59783+005350FM-15+0049ENSO V0201201N005710150019N0112651N1-00101-00601999999ADDGA1041+012001999GA2071+015001999GF107991999999999999999999MA1101491999999REMMET060METAR ENSO 250820Z 12011KT 9999 SCT040 BKN055 M01/M06 Q1015;
0145010014999992013012508504+59783+005350FM-15+0049ENSO V0201401N005110135019N0112651N1+00001-00601999999ADDGA1041+009001999GA2071+013501999GF107991999999999999999999MA1101491999999REMMET060METAR ENSO 250850Z 14010KT 9999 SCT030 BKN045 M00/M06 Q1015;
0153010014999992013012509204+59783+005350FM-15+0049ENSO V0201501N004610135019N0112651N1+00001-00601999999ADDGA1041+009001999GA2071+013501999GF107991999999999999999999MA1101491999999REMMET068METAR ENSO 250920Z 15009KT 130V190 9999 SCT030 BKN045 M00/M06 Q1015;
0152010014999992013012509504+59783+005350FM-15+0049ENSO V0201501N006210150019N0112651N1+00001-00601999999ADDGA1041+007801999GA2071+015001999GF107991999999999999999999MA1101491999999REMMET067METAR ENSO 250950Z 15012KT 130V190 9999 SCT026 BKN055 00/M06 Q1015;
0137010014999992013012510204+59783+005350FM-15+0049ENSO V0201501N006212200019N0112651N1+00001-00501999999ADDGA1041+001201999GF104991999999999999999999MA1101401999999REMMET068METAR ENSO 251020Z 15012KT 130V190 9999 SCT0040 BKN060 00/M05 Q1014;
0140010014999992013012510504+59783+005350FM-15+0049ENSO V0201501N008712200019N0112651N1+00001-00501999999ADDGA1041+001501999GF104991999999999999999999MA1101401999999OC101391REMMET063METAR ENSO 251050Z 15017G27KT 9999 SCT0050 BKN065 00/M05 Q1014;
0081010014999992013012511204+59783+005350FM-15+0049ENSO V0201501N006719999999Y0099001N1+00001-00501999999ADDMA1101291999999REMMET054METAR ENSO 251120Z 15013KT 120V200 CAVOK 00/M05 Q1013;
0163010014999992013012511504+59783+005350FM-15+0049ENSO V0201601N006210180019N0112651N1+00101-00501999999ADDGA1021+014401999GA2071+018001999GF107991999999999999999999MA1101291999999OC101131REMMET070METAR ENSO 251150Z 16012G22KT 120V190 9999 FEW048 BKN065 01/M05 Q1013;
0144010014999992013012512204+59783+005350FM-15+0049ENSO V0201501N007210150019N0112651N1+00001-00501999999ADDGA1021+012001999GA2071+015001999GF107991999999999999999999MA1101191999999REMMET059METAR ENSO 251220Z 15014KT 9999 FEW040 BKN055 00/M05 Q1012;
0163010014999992013012513504+59783+005350FM-15+0049ENSO V0201501N007710210019N0112651N1+00101-00401999999ADDGA1021+009001999GA2071+021001999GF107991999999999999999999MA1101081999999OC101291REMMET070METAR ENSO 251350Z 15015G25KT 120V190 9999 FEW030 BKN070 01/M04 Q1011;
0163010014999992013012514204+59783+005350FM-15+0049ENSO V0201501N008210090019N0112651N1+00101-00401999999ADDGA1021+005401999GA2071+009001999GF107991999999999999999999MA1101021999999MW1161REMMET072METAR ENSO 251420Z 15016KT 120V190 9999 VCSH FEW018 BKN030 01/M04 Q1010;
0155010014999992013012514504+59783+005350FM-15+0049ENSO V0201501N008210069019N0112651N1+00101-00401999999ADDGA1041+004801999GA2081+006901999GF108991999999999999999999MA1101021999999MW1161REMMET064METAR ENSO 251450Z 15016KT 9999 VCSH SCT016 OVC023 01/M04 Q1010;
0155010014999992013012515204+59783+005350FM-15+0049ENSO V0201401N008210075019N0112651N1+00001-00301999999ADDGA1041+003601999GA2081+007501999GF108991999999999999999999MA1100911999999MW1161REMMET064METAR ENSO 251520Z 14016KT 9999 VCSH SCT012 OVC025 00/M03 Q1009;
0155010014999992013012515504+59783+005350FM-15+0049ENSO V0201401N007710054019N0090001N1+00001-00301999999ADDGA1041+003601999GA2071+005401999GF107991999999999999999999MA1100911999999MW1161REMMET064METAR ENSO 251550Z 14015KT 9000 VCSH SCT012 BKN018 00/M03 Q1009;
0168010014999992013012712504+59783+005350FM-15+0049ENSO V0201201N010810060019N0112651N1+00201+00001999999ADDGA1041+002401999GA2081+006001999GF108991999999999999999999MA1097901999999MW1831OC101651REMMET069METAR ENSO 271250Z 12021G32KT 9999 -SHRASN SCT008 OVC020 02/00 Q0979;
0180010014999992013012713204+59783+005350FM-15+0049ENSO V0201101N00981003601CN0112651N1+00201+00001999999ADDGA1021+002401999GA2041+003601999GA3081+006001999GF108991999999999999999999MA1097901999999MW1831REMMET073METAR ENSO 271320Z 11019KT 9999 -SHRASN FEW008 SCT012 OVC020 02/00 Q0979;
0186010014999992013012713504+59783+005350FM-15+0049ENSO V0201101N01131004501CN0112651N1+00201+00001999999ADDGA1021+003601999GA2041+004501999GA3071+005401999GF107991999999999999999999MA1097901999999MW1801REMMET079METAR ENSO 271350Z 11022KT 080V140 9999 -SHRA FEW012 SCT015 BKN018 02/00 Q0979;
0166010014999992013012714204+59783+005350FM-15+0049ENSO V0201101N01181004801CN0112651N1+00201+00001999999ADDGA1021+003601999GA2041+004801999GA3071+007501999GF107991999999999999999999MA1097801999999REMMET065METAR ENSO 271420Z 11023KT 9999 FEW012 SCT016 BKN025 02/00 Q0978;
0177010014999992013012714504+59783+005350FM-15+0049ENSO V0201101N01081005401CN0112651N1+00201+00001999999ADDGA1021+004201999GA2041+005401999GA3071+009001999GF107991999999999999999999MA1097801999999OC101591REMMET068METAR ENSO 271450Z 11021G31KT 9999 FEW014 SCT018 BKN030 02/00 Q0978;
0166010014999992013012715204+59783+005350FM-15+0049ENSO V0201101N00871004801CN0112651N1+00201+00001999999ADDGA1021+003601999GA2041+004801999GA3071+009601999GF107991999999999999999999MA1097801999999REMMET065METAR ENSO 271520Z 11017KT 9999 FEW012 SCT016 BKN032 02/00 Q0978;
0154010014999992013012715504+59783+005350FM-15+0049ENSO V0201001N009310066019N0112651N1+00201+00001999999ADDGA1041+004201999GA2071+006601999GF107991999999999999999999MA1097801999999OC101441REMMET061METAR ENSO 271550Z 10018G28KT 9999 SCT014 BKN022 02/00 Q0978;
0143010014999992013012716204+59783+005350FM-15+0049ENSO V0201101N009310060019N0112651N1+00301+00001999999ADDGA1041+004201999GA2071+006001999GF107991999999999999999999MA1097801999999REMMET058METAR ENSO 271620Z 11018KT 9999 SCT014 BKN020 03/00 Q0978;
0143010014999992013012716504+59783+005350FM-15+0049ENSO V0201101N008210060019N0112651N1+00301+00001999999ADDGA1041+004201999GA2071+006001999GF107991999999999999999999MA1097801999999REMMET058METAR ENSO 271650Z 11016KT 9999 SCT014 BKN020 03/00 Q0978;
0143010014999992013012717204+59783+005350FM-15+0049ENSO V0201201N007710060019N0112651N1+00301+00001999999ADDGA1041+004201999GA2071+006001999GF107991999999999999999999MA1097801999999REMMET058METAR ENSO 271720Z 12015KT 9999 SCT014 BKN020 03/00 Q0978;
0155010014999992013012717504+59783+005350FM-15+0049ENSO V0201101N007710054019N0112651N1+00301+00101999999ADDGA1041+003601999GA2071+005401999GF107991999999999999999999MA1097801999999MW1801REMMET064METAR ENSO 271750Z 11015KT 9999 -SHRA SCT012 BKN018 03/01 Q0978;
0155010014999992013012718204+59783+005350FM-15+0049ENSO V0201101N007210060019N0112651N1+00301+00101999999ADDGA1021+004201999GA2071+006001999GF107991999999999999999999MA1097801999999MW1801REMMET064METAR ENSO 271820Z 11014KT 9999 -SHRA FEW014 BKN020 03/01 Q0978;
0151010014999992013012804504+59783+005350FM-15+0049ENSO V0201801N004610066019N0112651N1+00501+00301999999ADDGA1021+005401999GA2071+006601999GF107991999999999999999999MA1098711999999REMMET066METAR ENSO 280450Z 18009KT 140V210 9999 FEW018 BKN022 05/03 Q0987;
0151010014999992013012805204+59783+005350FM-15+0049ENSO V0201701N005110075019N0112651N1+00401+00201999999ADDGA1021+005401999GA2071+007501999GF107991999999999999999999MA1098821999999REMMET066METAR ENSO 280520Z 17010KT 120V200 9999 FEW018 BKN025 04/02 Q0988;
0151010014999992013012805504+59783+005350FM-15+0049ENSO V0201701N004610090019N0112651N1+00401+00201999999ADDGA1021+005401999GA2071+009001999GF107991999999999999999999MA1098821999999REMMET066METAR ENSO 280550Z 17009KT 130V200 9999 FEW018 BKN030 04/02 Q0988;
0166010014999992013012806204+59783+005350FM-15+0049ENSO V0201401N00461010501CN0112651N1+00301+00201999999ADDGA1021+004501999GA2041+010501999GA3071+015001999GF107991999999999999999999MA1098821999999REMMET065METAR ENSO 280620Z 14009KT 9999 FEW015 SCT035 BKN050 03/02 Q0988;
0174010014999992013012806504+59783+005350FM-15+0049ENSO V0201601N00571006601CN0112651N1+00401+00201999999ADDGA1021+004501999GA2041+006601999GA3071+009001999GF107991999999999999999999MA1098921999999REMMET073METAR ENSO 280650Z 16011KT 120V190 9999 FEW015 SCT022 BKN030 04/02 Q0989;
0174010014999992013012807204+59783+005350FM-15+0049ENSO V0201501N00461005701CN0112651N1+00301+00201999999ADDGA1021+003601999GA2041+005701999GA3071+009001999GF107991999999999999999999MA1098921999999REMMET073METAR ENSO 280720Z 15009KT 120V180 9999 FEW012 SCT019 BKN030 03/02 Q0989;
0151010014999992013012807504+59783+005350FM-15+0049ENSO V0201601N004610060019N0112651N1+00401+00301999999ADDGA1041+003601999GA2071+006001999GF107991999999999999999999MA1098921999999REMMET066METAR ENSO 280750Z 16009KT 140V200 9999 SCT012 BKN020 04/03 Q0989;
0143010014999992013012808204+59783+005350FM-15+0049ENSO V0201501N005710060019N0112651N1+00401+00201999999ADDGA1041+003601999GA2071+006001999GF107991999999999999999999MA1098981999999REMMET058METAR ENSO 280820Z 15011KT 9999 SCT012 BKN020 04/02 Q0990;
0174010014999992013012808504+59783+005350FM-15+0049ENSO V0201601N00571005401CN0112651N1+00401+00201999999ADDGA1041+003601999GA2041+005401999GA3071+009301999GF107991999999999999999999MA1098981999999REMMET073METAR ENSO 280850Z 16011KT 130V190 9999 SCT012 SCT018 BKN031 04/02 Q0990;
0174010014999992013012809204+59783+005350FM-15+0049ENSO V0201601N00511004801CN0112651N1+00401+00201999999ADDGA1021+003601999GA2041+004801999GA3071+009601999GF107991999999999999999999MA1099091999999REMMET073METAR ENSO 280920Z 16010KT 120V190 9999 FEW012 SCT016 BKN032 04/02 Q0991;
0174010014999992013012809504+59783+005350FM-15+0049ENSO V0201601N00511006001CN0112651N1+00401+00201999999ADDGA1021+003601999GA2041+006001999GA3071+013501999GF107991999999999999999999MA1099091999999REMMET073METAR ENSO 280950Z 16010KT 130V200 9999 FEW012 SCT020 BKN045 04/02 Q0991;
0174010014999992013012810204+59783+005350FM-15+0049ENSO V0201601N00511005401CN0112651N1+00401+00201999999ADDGA1021+003001999GA2041+005401999GA3071+012001999GF107991999999999999999999MA1099091999999REMMET073METAR ENSO 281020Z 16010KT 130V190 9999 FEW010 SCT018 BKN040 04/02 Q0991;
0171010014999992013012811204+59783+005350FM-15+0049ENSO V0201601N005110039019N0112651N1+00401+00201999999ADDGA1041+002701999GA2071+003901999GF107991999999999999999999MA1099091999999MW1771MW2801REMMET074METAR ENSO 281120Z 16010KT 120V190 9999 -SHRASG SCT009 BKN013 04/02 Q0991;
0162010014999992013012811504+59783+005350FM-15+0049ENSO V0201601N006210033019N0070001N1+00401+00201999999ADDGA1041+002101999GA2071+003301999GF107991999999999999999999MA1099091999999MW1811REMMET071METAR ENSO 281150Z 16012KT 120V200 7000 SHRA SCT007 BKN011 04/02 Q0991;
0160010014999992013012812204+59783+005350FM-15+0049ENSO V0201801N005110036019N0090001N1+00401+00301999999ADDGA1041+002101999GA2071+003601999GF107991999999999999999999MA1099091999999MW1631REMMET069METAR ENSO 281220Z 18010KT 150V240 9000 RA SCT007 BKN012 04/03 Q0991;
0160010014999992013012812504+59783+005350FM-15+0049ENSO V0201801N005710036019N0090001N1+00401+00301999999ADDGA1041+002101999GA2071+003601999GF107991999999999999999999MA1099091999999MW1631REMMET069METAR ENSO 281250Z 18011KT 150V240 9000 RA SCT007 BKN012 04/03 Q0991;
0129010014999992013012813204+59783+005350FM-15+0049ENSO V0201801N00721000151CN0090001N1+00401+00301999999ADDGA1071+000151999GF107991999999999999999999MA1099091999999REMMET060METAR ENSO 281320Z 18014KT 150V230 9000 BKN0006 04/03 Q0991;
0143010014999992013012814204+59783+005350FM-15+0049ENSO V0201701N005110030019N0112651N1+00401+00301999999ADDGA1041+001801999GA2071+003001999GF107991999999999999999999MA1099191999999REMMET058METAR ENSO 281420Z 17010KT 9999 SCT006 BKN010 04/03 Q0992;
0154010014999992013012814504+59783+005350FM-15+0049ENSO V0201901N006210030019N0112651N1+00401+00301999999ADDGA1041+001801999GA2071+003001999GF107991999999999999999999MA1099191999999OC101131REMMET061METAR ENSO 281450Z 19012G22KT 9999 SCT006 BKN010 04/03 Q0992;
0143010014999992013012815204+59783+005350FM-15+0049ENSO V0201801N004110030019N0112651N1+00401+00301999999ADDGA1041+002101999GA2071+003001999GF107991999999999999999999MA1099191999999REMMET058METAR ENSO 281520Z 18008KT 9999 SCT007 BKN010 04/03 Q0992;
0174010014999992013012816204+59783+005350FM-15+0049ENSO V0201701N004610030019N0112651N1+00401+00301999999ADDGA1041+001801999GA2071+003001999GA3081+005401999GF108991999999999999999999MA1099191999999REMMET073METAR ENSO 281620Z 17009KT 140V210 9999 SCT006 BKN010 OVC018 04/03 Q0992;
