0188010010999992013010100004+70933-008667FM-12+0009ENJA V0203501N009010012019N0035001N1-00331-00411099021ADDAA106000021AY151061AY221061GF108991081061001501999999MA1999999098901MD1210101+9999MW1561REMSYN088AAXX  01001 01001 11235 83509 11033 21041 39890 49902 52010 69901 75652 886// 333 91116;
0101010010999992013010101004+70933-008667FM-12+0009ENJA V0203501N008019999999N9999999N1-00361-00461099071ADDMA1999999098951MD1310121+9999REMSYN060AAXX  01011 01001 46/// /3508 11036 21046 39895 49907 53012;
0101010010999992013010102004+70933-008667FM-12+0009ENJA V0203501N010019999999N9999999N1-00401-00491099081ADDMA1999999098961MD1210101+9999REMSYN060AAXX  01021 01001 46/// /3510 11040 21049 39896 49908 52010;
0101010010999992013010103004+70933-008667FM-12+0009ENJA V0203501N011019999999N9999999N1-00421-00501099111ADDMA1999999098991MD1110091+9999REMSYN060AAXX  01031 01001 46/// /3511 11042 21050 39899 49911 51009;
0101010010999992013010104004+70933-008667FM-12+0009ENJA V0203501N009019999999N9999999N1-00441-00521099181ADDMA1999999099061MD1310101+9999REMSYN060AAXX  01041 01001 46/// /3509 11044 21052 39906 49918 53010;
0101010010999992013010105004+70933-008667FM-12+0009ENJA V0203501N010019999999N9999999N1-00431-00521099181ADDMA1999999099061MD1110101+9999REMSYN060AAXX  01051 01001 46/// /3510 11043 21052 39906 49918 51010;
0272010010999992013010106004+70933-008667FM-12+0009ENJA V0203401N013010021019N0060001N1-00431-00551099231ADDAA112000391AA224000391AJ199991999999999AY171061AY251061GF108991081071002501999999IA1309KA1999N-00451MA1999999099111MD1110121+9999MW1701REMSYN106AAXX  01061 01001 11356 83413 11043 21055 39911 49923 51012 69932 77075 887// 333 21045 42999 70003 91117;EQDQ01  09962SNDP  
0101010010999992013010107004+70933-008667FM-12+0009ENJA V0203401N012019999999N9999999N1-00441-00571099291ADDMA1999999099171MD1310111+9999REMSYN060AAXX  01071 01001 46/// /3412 11044 21057 39917 49929 53011;
0101010010999992013010108004+70933-008667FM-12+0009ENJA V0203401N011019999999N9999999N1-00431-00561099351ADDMA1999999099231MD1310171+9999REMSYN060AAXX  01081 01001 46/// /3411 11043 21056 39923 49935 53017;
0161010010999992013010109004+70933-008667FM-12+0009ENJA V0203401N013010021019N0200001N1-00401-00571099411ADDAY171031AY231031GF108991081071002501999999MA1999999099291MD1210181+9999MW1021REMSYN072AAXX  01091 01001 41370 83413 11040 21057 39929 49941 52018 70273 887//;
0101010010999992013010110004+70933-008667FM-12+0009ENJA V0203401N013019999999N9999999N1-00411-00561099421ADDMA1999999099301MD1110131+9999REMSYN060AAXX  01101 01001 46/// /3413 11041 21056 39930 49942 51013;
0101010010999992013010111004+70933-008667FM-12+0009ENJA V0203401N011019999999N9999999N1-00421-00561099521ADDMA1999999099401MD1310171+9999REMSYN060AAXX  01111 01001 46/// /3411 11042 21056 39940 49952 53017;
0208010010999992013010112004+70933-008667FM-12+0009ENJA V0203401N011010012019N0150001N1-00431-00551099581ADDAA106000021AY171061AY231061GF108991081061001501999999MA1999999099461MD1310171+9999MW1021SA1+0049REMSYN100AAXX  01121 01001 11265 83411 11043 21055 39946 49958 53017 69901 70273 886// 222// 00004 333 91120;
0101010010999992013010113004+70933-008667FM-12+0009ENJA V0203501N010019999999N9999999N1-00471-00591099661ADDMA1999999099541MD1310241+9999REMSYN060AAXX  01131 01001 46/// /3510 11047 21059 39954 49966 53024;
0101010010999992013010114004+70933-008667FM-12+0009ENJA V0203401N010019999999N9999999N1-00471-00611099701ADDMA1999999099581MD1210181+9999REMSYN060AAXX  01141 01001 46/// /3410 11047 21061 39958 49970 52018;
0161010010999992013010115004+70933-008667FM-12+0009ENJA V0203501N008010021019N0080001N1-00471-00621099751ADDAY151031AY221031GF108991081061002501999999MA1999999099631MD1210171+9999MW1561REMSYN072AAXX  01151 01001 41358 83508 11047 21062 39963 49975 52017 75652 886//;
0101010010999992013010116004+70933-008667FM-12+0009ENJA V0203401N009019999999N9999999N1-00471-00661099821ADDMA1999999099701MD1310161+9999REMSYN060AAXX  01161 01001 46/// /3409 11047 21066 39970 49982 53016;
0101010010999992013010117004+70933-008667FM-12+0009ENJA V0203501N009019999999N9999999N1-00461-00651099851ADDMA1999999099731MD1210151+9999REMSYN060AAXX  01171 01001 46/// /3509 11046 21065 39973 49985 52015;
0207010010999992013010118004+70933-008667FM-12+0009ENJA V0203501N007010042019N0150001N1-00461-00661099921ADDAA112000021AY151061AY221061GF108991081061004501999999KA1120M-00391MA1999999099801MD1310181+9999MW1561REMSYN094AAXX  01181 01001 11465 83507 11046 21066 39980 49992 53018 69902 75652 886// 333 11039 91118;
0101010010999992013010119004+70933-008667FM-12+0009ENJA V0203501N008019999999N9999999N1-00471-00731099991ADDMA1999999099871MD1310171+9999REMSYN060AAXX  01191 01001 46/// /3508 11047 21073 39987 49999 53017;
0101010010999992013010120004+70933-008667FM-12+0009ENJA V0203401N009019999999N9999999N1-00461-00731100001ADDMA1999999099881MD1110151+9999REMSYN060AAXX  01201 01001 46/// /3409 11046 21073 39988 40000 51015;
0101010010999992013010121004+70933-008667FM-12+0009ENJA V0203401N008019999999N9999999N1-00471-00741100011ADDMA1999999099891MD1110091+9999REMSYN060AAXX  01211 01001 46/// /3408 11047 21074 39989 40001 51009;
0101010010999992013010122004+70933-008667FM-12+0009ENJA V0203401N012019999999N9999999N1-00461-00771099991ADDMA1999999099871MD1010001+9999REMSYN060AAXX  01221 01001 46/// /3412 11046 21077 39987 49999 50000;
0101010010999992013010123004+70933-008667FM-12+0009ENJA V0203201N015019999999N9999999N1-00461-00771099971ADDMA1999999099851MD1810031+9999REMSYN060AAXX  01231 01001 46/// /3215 11046 21077 39985 49997 58003;
0188010010999992013010200004+70933-008667FM-12+0009ENJA V0203601N007010075019N0200001N1-00451-00801100081ADDAA106000021AY171061AY251061GF108991081051008001999999MA1999999099961MD1310071+9999MW1771REMSYN088AAXX  02001 01001 11570 83607 11045 21080 39996 40008 53007 69901 77775 885// 333 91120;
0101010010999992013010201004+70933-008667FM-12+0009ENJA V0203401N006019999999N9999999N1-00451-00801100071ADDMA1999999099951MD1010081+9999REMSYN060AAXX  02011 01001 46/// /3406 11045 21080 39995 40007 50008;
0101010010999992013010202004+70933-008667FM-12+0009ENJA V0203501N005019999999N9999999N1-00471-00861100121ADDMA1999999100001MD1110151+9999REMSYN060AAXX  02021 01001 46/// /3505 11047 21086 30000 40012 51015;
0101010010999992013010203004+70933-008667FM-12+0009ENJA V0203601N003019999999N9999999N1-00471-00841100101ADDMA1999999099981MD1310011+9999REMSYN060AAXX  02031 01001 46/// /3603 11047 21084 39998 40010 53001;
0101010010999992013010204004+70933-008667FM-12+0009ENJA V0202501N001019999999N9999999N1-00461-00791100081ADDMA1999999099961MD1010021+9999REMSYN060AAXX  02041 01001 46/// /2501 11046 21079 39996 40008 50002;
0101010010999992013010205004+70933-008667FM-12+0009ENJA V0202301N001019999999N9999999N1-00511-00731100041ADDMA1999999099921MD1810081+9999REMSYN060AAXX  02051 01001 46/// /2301 11051 21073 39992 40004 58008;
0109010010999992013010206004+70933-008667FM-12+0009ENJA V02099999999999999999N9999999N1-00531-00671999999REMSYN100AAXX  02061 01001 11X25 90101 11053 21067 39989 40001 58008 69962 77172 333 21054 48999 70006 91114;
0101010010999992013010207004+70933-008667FM-12+0009ENJA V0203201N002019999999N9999999N1-00551-00681099981ADDMA1999999099861MD1710111+9999REMSYN060AAXX  02071 01001 46/// /3202 11055 21068 39986 49998 57011;
0101010010999992013010208004+70933-008667FM-12+0009ENJA V0200201N001019999999N9999999N1-00561-00711099931ADDMA1999999099811MD1810111+9999REMSYN060AAXX  02081 01001 46/// /0201 11056 21071 39981 49993 58011;
0161010010999992013010209004+70933-008667FM-12+0009ENJA V0203401N001010120019N0250001N1-00541-00721099901ADDAY171031AY221031GF108991081051012501999999MA1999999099781MD1710111+9999MW1021REMSYN072AAXX  02091 01001 41675 83401 11054 21072 39978 49990 57011 70272 885//;
0101010010999992013010210004+70933-008667FM-12+0009ENJA V0202601N002019999999N9999999N1-00511-00681099861ADDMA1999999099741MD1710121+9999REMSYN060AAXX  02101 01001 46/// /2602 11051 21068 39974 49986 57012;
0101010010999992013010211004+70933-008667FM-12+0009ENJA V0201701N001019999999N9999999N1-00451-00621099781ADDMA1999999099661MD1810151+9999REMSYN060AAXX  02111 01001 46/// /1701 11045 21062 39966 49978 58015;
0208010010999992013010212004+70933-008667FM-12+0009ENJA V0201101N005010240019N0080001N1-00361-00491099701ADDAA106000021AY171061AY221061GF108991031071004501021999MA1999999099581MD1810201+9999MW1701SA1+0039REMSYN100AAXX  02121 01001 11458 81105 11036 21049 39958 49970 58020 69911 77072 8372/ 222// 00003 333 91107;
0101010010999992013010213004+70933-008667FM-12+0009ENJA V0200901N007019999999N9999999N1-00321-00441099631ADDMA1999999099511MD1710231+9999REMSYN060AAXX  02131 01001 46/// /0907 11032 21044 39951 49963 57023;
0101010010999992013010214004+70933-008667FM-12+0009ENJA V0201001N007019999999N9999999N1-00241-00391099531ADDMA1999999099411MD1810251+9999REMSYN060AAXX  02141 01001 46/// /1007 11024 21039 39941 49953 58025;
0161010010999992013010215004+70933-008667FM-12+0009ENJA V0201101N007010042019N0025001N1-00231-00321099451ADDAY171031AY221031GF108991061071004501021999MA1999999099331MD1710251+9999MW1701REMSYN072AAXX  02151 01001 41425 81107 11023 21032 39933 49945 57025 77072 8672/;
0101010010999992013010216004+70933-008667FM-12+0009ENJA V0200901N007019999999N9999999N1-00221-00291099381ADDMA1999999099261MD1710251+9999REMSYN060AAXX  02161 01001 46/// /0907 11022 21029 39926 49938 57025;
0101010010999992013010217004+70933-008667FM-12+0009ENJA V0201101N005019999999N9999999N1-00161-00231099311ADDMA1999999099191MD1710221+9999REMSYN060AAXX  02171 01001 46/// /1105 11016 21023 39919 49931 57022;
0207010010999992013010218004+70933-008667FM-12+0009ENJA V0201101N004010042019N0050001N1-00171-00251099231ADDAA112000591AY171061AY221061GF108991071071004501021999KA1120M-00151MA1999999099111MD1810211+9999MW1711REMSYN094AAXX  02181 01001 11450 81104 11017 21025 39911 49923 58021 69942 77172 8772/ 333 11015 91110;
0101010010999992013010219004+70933-008667FM-12+0009ENJA V0200901N004019999999N9999999N1-00161-00241099161ADDMA1999999099041MD1810221+9999REMSYN060AAXX  02191 01001 46/// /0904 11016 21024 39904 49916 58022;
0101010010999992013010220004+70933-008667FM-12+0009ENJA V0201001N003019999999N9999999N1-00131-00221099111ADDMA1999999098991MD1710201+9999REMSYN060AAXX  02201 01001 46/// /1003 11013 21022 39899 49911 57020;
0101010010999992013010221004+70933-008667FM-12+0009ENJA V0200801N005019999999N9999999N1-00111-00181099081ADDMA1999999098961MD1710151+9999REMSYN060AAXX  02211 01001 46/// /0805 11011 21018 39896 49908 57015;
0101010010999992013010222004+70933-008667FM-12+0009ENJA V0200701N005019999999N9999999N1-00091-00141099051ADDMA1999999098931MD1710111+9999REMSYN060AAXX  02221 01001 46/// /0705 11009 21014 39893 49905 57011;
0101010010999992013010223004+70933-008667FM-12+0009ENJA V0200801N006019999999N9999999N1-00061-00111099001ADDMA1999999098881MD1710121+9999REMSYN060AAXX  02231 01001 46/// /0806 11006 21011 39888 49900 57012;
0188010010999992013010300004+70933-008667FM-12+0009ENJA V0200801N007010042019N0050001N1-00051-00111098971ADDAA106002091AY171061AY221061GF108991071071004501021999MA1999999098851MD1710111+9999MW1711REMSYN088AAXX  03001 01001 11450 80807 11005 21011 39885 49897 57011 60021 77172 8772/ 333 91108;
0101010010999992013010301004+70933-008667FM-12+0009ENJA V0200701N006019999999N9999999N1-00051-00101098951ADDMA1999999098831MD1610101+9999REMSYN060AAXX  03011 01001 46/// /0706 11005 21010 39883 49895 56010;
0101010010999992013010302004+70933-008667FM-12+0009ENJA V0200801N007019999999N9999999N1-00021-00091098931ADDMA1999999098811MD1710071+9999REMSYN060AAXX  03021 01001 46/// /0807 11002 21009 39881 49893 57007;
0101010010999992013010303004+70933-008667FM-12+0009ENJA V0200801N007019999999N9999999N1+00011-00121098911ADDMA1999999098791MD1710061+9999REMSYN060AAXX  03031 01001 46/// /0807 10001 21012 39879 49891 57006;
0101010010999992013010304004+70933-008667FM-12+0009ENJA V0200801N007019999999N9999999N1+00021-00081098931ADDMA1999999098811MD1510021+9999REMSYN060AAXX  03041 01001 46/// /0807 10002 21008 39881 49893 55002;
0101010010999992013010305004+70933-008667FM-12+0009ENJA V0200901N005019999999N9999999N1+00041-00041098961ADDMA1999999098841MD1310031+9999REMSYN060AAXX  03051 01001 46/// /0905 10004 21004 39884 49896 53003;
0272010010999992013010306004+70933-008667FM-12+0009ENJA V0200101N002010021019N0070001N1+00001-00081098991ADDAA112002091AA224002391AJ199991999999999AY171061AY221061GF108991081061002501999999IA1249KA1999N-00171MA1999999098871MD1210081+9999MW1101REMSYN106AAXX  03061 01001 11357 80102 10000 21008 39887 49899 52008 60022 71072 886// 333 21017 48999 70022 91110;EQDQ01  09962SNDP  
0101010010999992013010308004+70933-008667FM-12+0009ENJA V0202701N001019999999N9999999N1+00021-00091099121ADDMA1999999099001MD1310161+9999REMSYN060AAXX  03081 01001 46/// /2701 10002 21009 39900 49912 53016;
0161010010999992013010309004+70933-008667FM-12+0009ENJA V0203201N001010021019N0050001N1+00041-00051099171ADDAY171031AY221031GF108991081061002501999999MA1999999099051MD1210191+9999MW1701REMSYN072AAXX  03091 01001 41350 83201 10004 21005 39905 49917 52019 77072 886//;
0101010010999992013010310004+70933-008667FM-12+0009ENJA V0201001N003019999999N9999999N1+00051-00021099241ADDMA1999999099121MD1310191+9999REMSYN060AAXX  03101 01001 46/// /1003 10005 21002 39912 49924 53019;
0101010010999992013010311004+70933-008667FM-12+0009ENJA V0202701N001019999999N9999999N1+00051-00021099301ADDMA1999999099181MD1210181+9999REMSYN060AAXX  03111 01001 46/// /2701 10005 21002 39918 49930 52018;
0208010010999992013010312004+70933-008667FM-12+0009ENJA V0203101N001010060019N0060001N1+00061-00011099351ADDAA106000591AY181061AY271061GF108991081081002501999999MA1999999099231MD1210181+9999MW1851SA1+0059REMSYN100AAXX  03121 01001 11356 83101 10006 21001 39923 49935 52018 69951 78587 888// 222// 00005 333 91105;
0101010010999992013010313004+70933-008667FM-12+0009ENJA V0203601N001019999999N9999999N1+00091+00001099431ADDMA1999999099311MD1210191+9999REMSYN060AAXX  03131 01001 46/// /3601 10009 21000 39931 49943 52019;
0101010010999992013010314004+70933-008667FM-12+0009ENJA V0200101N001019999999N9999999N1+00091-00011099491ADDMA1999999099371MD1210191+9999REMSYN060AAXX  03141 01001 46/// /0101 10009 21001 39937 49949 52019;
0161010010999992013010315004+70933-008667FM-12+0009ENJA V0209999C000010012019N0040001N1+00071-00031099551ADDAY181031AY221031GF108991081061001501999999MA1999999099431MD1210191+9999MW1101REMSYN072AAXX  03151 01001 41240 80000 10007 21003 39943 49955 52019 71082 886//;
0101010010999992013010316004+70933-008667FM-12+0009ENJA V0202401N001019999999N9999999N1+00071-00021099581ADDMA1999999099461MD1210161+9999REMSYN060AAXX  03161 01001 46/// /2401 10007 21002 39946 49958 52016;
0101010010999992013010317004+70933-008667FM-12+0009ENJA V0203601N001019999999N9999999N1-00041-00141099651ADDMA1999999099531MD1310161+9999REMSYN060AAXX  03171 01001 46/// /3601 11004 21014 39953 49965 53016;
0207010010999992013010318004+70933-008667FM-12+0009ENJA V0209999C000012200019N0100001N1-00091-00211099691ADDAA112000591AY121061AY211061GF102991021061004501001001KA1120M+00091MA1999999099571MD1210141+9999MW1101REMSYN094AAXX  03181 01001 11460 20000 11009 21021 39957 49969 52014 69962 71021 82600 333 10009 91103;
0101010010999992013010319004+70933-008667FM-12+0009ENJA V0202901N006019999999N9999999N1-00041-00161099731ADDMA1999999099611MD1210151+9999REMSYN060AAXX  03191 01001 46/// /2906 11004 21016 39961 49973 52015;
0101010010999992013010320004+70933-008667FM-12+0009ENJA V0203001N007019999999N9999999N1+00051-00141099771ADDMA1999999099651MD1210121+9999REMSYN060AAXX  03201 01001 46/// /3007 10005 21014 39965 49977 52012;
0101010010999992013010321004+70933-008667FM-12+0009ENJA V0202401N002019999999N9999999N1-00021-00211099861ADDMA1999999099741MD1310171+9999REMSYN060AAXX  03211 01001 46/// /2402 11002 21021 39974 49986 53017;
0101010010999992013010322004+70933-008667FM-12+0009ENJA V0200401N001019999999N9999999N1-00041-00201099931ADDMA1999999099811MD1310201+9999REMSYN060AAXX  03221 01001 46/// /0401 11004 21020 39981 49993 53020;
0101010010999992013010323004+70933-008667FM-12+0009ENJA V0203001N007019999999N9999999N1+00011-00121099961ADDMA1999999099841MD1110181+9999REMSYN060AAXX  03231 01001 46/// /3007 10001 21012 39984 49996 51018;
0217010010999992013010400004+70933-008667FM-12+0009ENJA V0203101N007012200019N0200001N1+00031-00181100031ADDAA106000091AY111061AY201061GA1001+999999999GF100991001001999999001001MA1999999099911MD1310171+9999MW1021REMSYN082AAXX  04001 01001 11970 03107 10003 21018 39991 40003 53017 60001 70210 333 91109;EQDQ01  00002PRCP06
0101010010999992013010401004+70933-008667FM-12+0009ENJA V0203001N007019999999N9999999N1-00021-00161100071ADDMA1999999099951MD1310141+9999REMSYN060AAXX  04011 01001 46/// /3007 11002 21016 39995 40007 53014;
0101010010999992013010402004+70933-008667FM-12+0009ENJA V0203001N005019999999N9999999N1+00041-00051100191ADDMA1999999100071MD1310231+9999REMSYN060AAXX  04021 01001 46/// /3005 10004 21005 30007 40019 53023;
0101010010999992013010403004+70933-008667FM-12+0009ENJA V0202801N001019999999N9999999N1+00011-00091100251ADDMA1999999100131MD1310221+9999REMSYN060AAXX  04031 01001 46/// /2801 10001 21009 30013 40025 53022;
0101010010999992013010404004+70933-008667FM-12+0009ENJA V0201201N001019999999N9999999N1-00021-00131100301ADDMA1999999100181MD1310241+9999REMSYN060AAXX  04041 01001 46/// /1201 11002 21013 30018 40030 53024;
0101010010999992013010405004+70933-008667FM-12+0009ENJA V0203001N006019999999N9999999N1-00021-00191100361ADDMA1999999100241MD1310171+9999REMSYN060AAXX  04051 01001 46/// /3006 11002 21019 30024 40036 53017;
0288010010999992013010406004+70933-008667FM-12+0009ENJA V0200101N001012200019N0250001N1-00051-00261100441ADDAA112000091AA224000591AJ199991999999999AY101061AY201061GF102991021001022501011001IA1249KA1999N-00101MA1999999100321MD1310201+9999MW1021REMSYN106AAXX  04061 01001 11875 20101 11005 21026 30032 40044 53020 60002 70200 82010 333 21010 48999 70006 91110;EQDQ01  00002PRCP12Q02  09962SNDP  
0101010010999992013010407004+70933-008667FM-12+0009ENJA V0202901N005019999999N9999999N1-00091-00281100541ADDMA1999999100421MD1310241+9999REMSYN060AAXX  04071 01001 46/// /2905 11009 21028 30042 40054 53024;
0101010010999992013010408004+70933-008667FM-12+0009ENJA V0202901N007019999999N9999999N1-00131-00331100581ADDMA1999999100461MD1110221+9999REMSYN060AAXX  04081 01001 46/// /2907 11013 21033 30046 40058 51022;
0161010010999992013010409004+70933-008667FM-12+0009ENJA V0203001N008012200019N0050001N1-00171-00291100671ADDAY101031AY201031GF103991031061008001001001MA1999999100551MD1110231+9999MW1101REMSYN072AAXX  04091 01001 41550 33008 11017 21029 30055 40067 51023 71000 83600;
0101010010999992013010410004+70933-008667FM-12+0009ENJA V0203001N008019999999N9999999N1-00201-00371100781ADDMA1999999100661MD1310241+9999REMSYN060AAXX  04101 01001 46/// /3008 11020 21037 30066 40078 53024;
0101010010999992013010411004+70933-008667FM-12+0009ENJA V0203101N010019999999N9999999N1-00251-00461100851ADDMA1999999100731MD1210271+9999REMSYN060AAXX  04111 01001 46/// /3110 11025 21046 30073 40085 52027;
0227010010999992013010412004+70933-008667FM-12+0009ENJA V0203101N008012200019N0250001N1-00281-00531100831ADDAA106000091AY171061AY231061GF103991011061002501051011MA1999999100711MD1010171+9999MW1361SA1+0059REMSYN100AAXX  04121 01001 11375 33108 11028 21053 30071 40083 50017 60001 73673 81651 222// 00005 333 91116;EQDQ01  00002PRCP06
0101010010999992013010413004+70933-008667FM-12+0009ENJA V0203201N007019999999N9999999N1-00321-00571100941ADDMA1999999100821MD1310171+9999REMSYN060AAXX  04131 01001 46/// /3207 11032 21057 30082 40094 53017;
0101010010999992013010414004+70933-008667FM-12+0009ENJA V0203001N002019999999N9999999N1-00331-00791101021ADDMA1999999100901MD1310171+9999REMSYN060AAXX  04141 01001 46/// /3002 11033 21079 30090 40102 53017;
0161010010999992013010415004+70933-008667FM-12+0009ENJA V0203101N002012200019N0250001N1-00401-00761101021ADDAY131031AY211031GF103991011061002501051001MA1999999100901MD1110181+9999MW1021REMSYN072AAXX  04151 01001 41375 33102 11040 21076 30090 40102 51018 70231 81650;
0101010010999992013010416004+70933-008667FM-12+0009ENJA V0203101N002019999999N9999999N1-00451-00811101031ADDMA1999999100911MD1110091+9999REMSYN060AAXX  04161 01001 46/// /3102 11045 21081 30091 40103 51009;
0101010010999992013010417004+70933-008667FM-12+0009ENJA V0202801N002019999999N9999999N1-00281-00441101061ADDMA1999999100941MD1310051+9999REMSYN060AAXX  04171 01001 46/// /2802 11028 21044 30094 40106 53005;
0226010010999992013010418004+70933-008667FM-12+0009ENJA V0200801N004012200019N0250001N1-00211-00331101081ADDAA112000091AY131061AY221061GF105991021051008001001081KA1120M-00011MA1999999100961MD1310061+9999MW1021REMSYN094AAXX  04181 01001 11575 50804 11021 21033 30096 40108 53006 69902 70232 82508 333 11001 91114;EQDQ01  00002PRCP12
0101010010999992013010419004+70933-008667FM-12+0009ENJA V0201601N003019999999N9999999N1-00141-00321101091ADDMA1999999100971MD1310061+9999REMSYN060AAXX  04191 01001 46/// /1603 11014 21032 30097 40109 53006;
0101010010999992013010420004+70933-008667FM-12+0009ENJA V0201101N003019999999N9999999N1-00141-00271101051ADDMA1999999100931MD1810011+9999REMSYN060AAXX  04201 01001 46/// /1103 11014 21027 30093 40105 58001;
0101010010999992013010421004+70933-008667FM-12+0009ENJA V0201301N005019999999N9999999N1-00091-00221100991ADDMA1999999100871MD1810091+9999REMSYN060AAXX  04211 01001 46/// /1305 11009 21022 30087 40099 58009;
0101010010999992013010422004+70933-008667FM-12+0009ENJA V0201501N003019999999N9999999N1-00061-00201100961ADDMA1999999100841MD1810131+9999REMSYN060AAXX  04221 01001 46/// /1503 11006 21020 30084 40096 58013;
0101010010999992013010423004+70933-008667FM-12+0009ENJA V0201201N005019999999N9999999N1+00021-00081100851ADDMA1999999100731MD1810211+9999REMSYN060AAXX  04231 01001 46/// /1205 10002 21008 30073 40085 58021;
0207010010999992013010500004+70933-008667FM-12+0009ENJA V0201001N008010021019N0200001N1+00111+00031100721ADDAA106000091AY121061AY221061GF108991081061002501999999MA1999999100601MD1810271+9999MW1031REMSYN088AAXX  05001 01001 11370 81008 10011 20003 30060 40072 58027 60001 70322 886// 333 91110;EQDQ01  00002PRCP06
0101010010999992013010501004+70933-008667FM-12+0009ENJA V0201101N009019999999N9999999N1+00161+00091100601ADDMA1999999100481MD1810361+9999REMSYN060AAXX  05011 01001 46/// /1109 10016 20009 30048 40060 58036;
0101010010999992013010502004+70933-008667FM-12+0009ENJA V0201001N009019999999N9999999N1+00211+00131100481ADDMA1999999100361MD1710361+9999REMSYN060AAXX  05021 01001 46/// /1009 10021 20013 30036 40048 57036;
0101010010999992013010503004+70933-008667FM-12+0009ENJA V0201001N008019999999N9999999N1+00231+00161100431ADDMA1999999100311MD1610291+9999REMSYN060AAXX  05031 01001 46/// /1008 10023 20016 30031 40043 56029;
0101010010999992013010504004+70933-008667FM-12+0009ENJA V0200901N008019999999N9999999N1+00281+00221100351ADDMA1999999100231MD1610251+9999REMSYN060AAXX  05041 01001 46/// /0908 10028 20022 30023 40035 56025;
0101010010999992013010505004+70933-008667FM-12+0009ENJA V0201101N008019999999N9999999N1+00311+00251100191ADDMA1999999100071MD1810291+9999REMSYN060AAXX  05051 01001 46/// /1108 10031 20025 30007 40019 58029;
0272010010999992013010506004+70933-008667FM-12+0009ENJA V0201201N008010021019N0100001N1+00271+00211100081ADDAA112006192AA224005692AJ199991999999999AY161061AY221061GF108991061071002501021999IA1309KA1999N-00241MA1999999099961MD1810361+9999MW1631REMSYN106AAXX  05061 01001 11360 81208 10027 20021 39996 40008 58036 60062 76362 8672/ 333 21024 42999 70055 91112;EQDQ01  09962SNDP  
0101010010999992013010507004+70933-008667FM-12+0009ENJA V0201301N007019999999N9999999N1+00241+00191100011ADDMA1999999099891MD1610341+9999REMSYN060AAXX  05071 01001 46/// /1307 10024 20019 39989 40001 56034;
0101010010999992013010508004+70933-008667FM-12+0009ENJA V0201901N003019999999N9999999N1+00221+00181099991ADDMA1999999099871MD1610201+9999REMSYN060AAXX  05081 01001 46/// /1903 10022 20018 39987 49999 56020;
0075010010999992013010509004+70933-008667FM-12+0009ENJA V02099999999999999999N9999999N1+00171+00131999999REMSYN066AAXX  05091 01001 41X04 92401 10017 20013 39983 49995 56013 74564;
0101010010999992013010510004+70933-008667FM-12+0009ENJA V0202101N002019999999N9999999N1+00111+00081099991ADDMA1999999099871MD1510011+9999REMSYN060AAXX  05101 01001 46/// /2102 10011 20008 39987 49999 55001;
0101010010999992013010511004+70933-008667FM-12+0009ENJA V0202201N001019999999N9999999N1+00131+00101100021ADDMA1999999099901MD1310031+9999REMSYN060AAXX  05111 01001 46/// /2201 10013 20010 39990 40002 53003;
0114010010999992013010512004+70933-008667FM-12+0009ENJA V02099999999999999999N9999999N1+00121+00091999999ADDSA1+0059REMSYN094AAXX  05121 01001 11X04 91801 10012 20009 39993 40005 53011 69981 76064 222// 00005 333 91110;
0101010010999992013010513004+70933-008667FM-12+0009ENJA V0200601N003019999999N9999999N1+00131+00101100021ADDMA1999999099901MD1010031+9999REMSYN060AAXX  05131 01001 46/// /0603 10013 20010 39990 40002 50003;
0101010010999992013010514004+70933-008667FM-12+0009ENJA V0203001N006019999999N9999999N1+00461+00221099961ADDMA1999999099841MD1810061+9999REMSYN060AAXX  05141 01001 46/// /3006 10046 20022 39984 49996 58006;
0161010010999992013010515004+70933-008667FM-12+0009ENJA V0203001N013010240019N0200001N1+00521-00111099881ADDAY161031AY241031GF108991041051008001071999MA1999999099771MD1810161+9999MW1021REMSYN072AAXX  05151 01001 41570 83013 10052 21011 39977 49988 58016 70264 8457/;
0101010010999992013010516004+70933-008667FM-12+0009ENJA V0203101N012019999999N9999999N1+00481-00171099901ADDMA1999999099781MD1810121+9999REMSYN060AAXX  05161 01001 46/// /3112 10048 21017 39978 49990 58012;
0101010010999992013010517004+70933-008667FM-12+0009ENJA V0203101N011019999999N9999999N1+00491-00101099911ADDMA1999999099791MD1510051+9999REMSYN060AAXX  05171 01001 46/// /3111 10049 21010 39979 49991 55005;
0207010010999992013010518004+70933-008667FM-12+0009ENJA V0203101N010010150019N0250001N1+00461-00041099911ADDAA112000891AY161061AY241061GF108991081001017501021999KA1120M+00531MA1999999099791MD1010021+9999MW1611REMSYN094AAXX  05181 01001 11775 83110 10046 21004 39979 49991 50002 69982 76164 8802/ 333 10053 91116;
0101010010999992013010519004+70933-008667FM-12+0009ENJA V0200201N003019999999N9999999N1+00391-00071099931ADDMA1999999099811MD1010031+9999REMSYN060AAXX  05191 01001 46/// /0203 10039 21007 39981 49993 50003;
0101010010999992013010520004+70933-008667FM-12+0009ENJA V0203601N003019999999N9999999N1+00291-00051099921ADDMA1999999099801MD1010011+9999REMSYN060AAXX  05201 01001 46/// /3603 10029 21005 39980 49992 50001;
0101010010999992013010521004+70933-008667FM-12+0009ENJA V0203301N006019999999N9999999N1+00301+00011099841ADDMA1999999099721MD1810081+9999REMSYN060AAXX  05211 01001 46/// /3306 10030 20001 39972 49984 58008;
0101010010999992013010522004+70933-008667FM-12+0009ENJA V0203001N010019999999N9999999N1+00171-00041099811ADDMA1999999099691MD1810121+9999REMSYN060AAXX  05221 01001 46/// /3010 10017 21004 39969 49981 58012;
0101010010999992013010523004+70933-008667FM-12+0009ENJA V0203001N011019999999N9999999N1+00081-00061099801ADDMA1999999099681MD1610111+9999REMSYN060AAXX  05231 01001 46/// /3011 10008 21006 39968 49980 56011;
0188010010999992013010600004+70933-008667FM-12+0009ENJA V0203001N009010240019N0070001N1+00061-00091099881ADDAA106001091AY171061AY261061GF108991021071002501021999MA1999999099761MD1310041+9999MW1711REMSYN088AAXX  06001 01001 11357 83009 10006 21009 39976 49988 53004 60011 77176 8272/ 333 91114;
0101010010999992013010601004+70933-008667FM-12+0009ENJA V0203001N007019999999N9999999N1+00051-00131099871ADDMA1999999099751MD1010061+9999REMSYN060AAXX  06011 01001 46/// /3007 10005 21013 39975 49987 50006;
0101010010999992013010602004+70933-008667FM-12+0009ENJA V0203101N008019999999N9999999N1+00121-00201099911ADDMA1999999099791MD1110101+9999REMSYN060AAXX  06021 01001 46/// /3108 10012 21020 39979 49991 51010;
0101010010999992013010603004+70933-008667FM-12+0009ENJA V0202701N009019999999N9999999N1+00291-00141099951ADDMA1999999099831MD1310071+9999REMSYN060AAXX  06031 01001 46/// /2709 10029 21014 39983 49995 53007;
0101010010999992013010604004+70933-008667FM-12+0009ENJA V0202401N005019999999N9999999N1+00341-00031099991ADDMA1999999099871MD1210121+9999REMSYN060AAXX  06041 01001 46/// /2405 10034 21003 39987 49999 52012;
0101010010999992013010605004+70933-008667FM-12+0009ENJA V0202501N007019999999N9999999N1+00421+00001099991ADDMA1999999099871MD1010081+9999REMSYN060AAXX  06051 01001 46/// /2507 10042 21000 39987 49999 50008;
0272010010999992013010606004+70933-008667FM-12+0009ENJA V0202101N005010240019N0080001N1+00111-00031100021ADDAA112001091AA224001891AJ199991999999999AY171061AY221061GF108991031051008001011999IA1309KA1999N+00041MA1999999099901MD1310071+9999MW1101REMSYN106AAXX  06061 01001 11558 82105 10011 21003 39990 40002 53007 60012 71072 8351/ 333 20004 42999 70018 91114;EQDQ01  09962SNDP  
0101010010999992013010607004+70933-008667FM-12+0009ENJA V0202101N008019999999N9999999N1+00201+00061100071ADDMA1999999099951MD1310081+9999REMSYN060AAXX  06071 01001 46/// /2108 10020 20006 39995 40007 53008;
0101010010999992013010608004+70933-008667FM-12+0009ENJA V0202501N010019999999N9999999N1+00181+00011100141ADDMA1999999100021MD1310161+9999REMSYN060AAXX  06081 01001 46/// /2510 10018 20001 30002 40014 53016;
0161010010999992013010609004+70933-008667FM-12+0009ENJA V0202501N012012200019N0100001N1+00171-00031100191ADDAY121031AY201031GF104991041051008001001001MA1999999100071MD1210171+9999MW1021REMSYN072AAXX  06091 01001 41560 42512 10017 21003 30007 40019 52017 70220 84500;
0101010010999992013010610004+70933-008667FM-12+0009ENJA V0202601N013019999999N9999999N1+00271-00061100201ADDMA1999999100081MD1110131+9999REMSYN060AAXX  06101 01001 46/// /2613 10027 21006 30008 40020 51013;
0101010010999992013010611004+70933-008667FM-12+0009ENJA V0202501N010019999999N9999999N1+00361-00101100241ADDMA1999999100121MD1310101+9999REMSYN060AAXX  06111 01001 46/// /2510 10036 21010 30012 40024 53010;
0227010010999992013010612004+70933-008667FM-12+0009ENJA V0202501N010012200019N0250001N1+00331-00051100251ADDAA106000091AY111061AY211061GF104991031051004501041011MA1999999100131MD1010061+9999MW1021SA1+0059REMSYN100AAXX  06121 01001 11475 42510 10033 21005 30013 40025 50006 60001 70211 83541 222// 00005 333 91119;EQDQ01  00002PRCP06
0101010010999992013010613004+70933-008667FM-12+0009ENJA V0202101N011019999999N9999999N1+00231-00051100261ADDMA1999999100141MD1010061+9999REMSYN060AAXX  06131 01001 46/// /2111 10023 21005 30014 40026 50006;
0101010010999992013010614004+70933-008667FM-12+0009ENJA V0202001N009019999999N9999999N1+00171-00031100261ADDMA1999999100141MD1310031+9999REMSYN060AAXX  06141 01001 46/// /2009 10017 21003 30014 40026 53003;
0161010010999992013010615004+70933-008667FM-12+0009ENJA V0202201N007010021019N0100001N1+00161-00031100281ADDAY151031AY221031GF108991081051002501999999MA1999999100161MD1310041+9999MW1501REMSYN072AAXX  06151 01001 41360 82207 10016 21003 30016 40028 53004 75052 885//;
0101010010999992013010616004+70933-008667FM-12+0009ENJA V0202401N008019999999N9999999N1+00161-00091100281ADDMA1999999100161MD1210031+9999REMSYN060AAXX  06161 01001 46/// /2408 10016 21009 30016 40028 52003;
0101010010999992013010617004+70933-008667FM-12+0009ENJA V0202201N008019999999N9999999N1+00231-00261100321ADDMA1999999100201MD1210061+9999REMSYN060AAXX  06171 01001 46/// /2208 10023 21026 30020 40032 52006;
0207010010999992013010618004+70933-008667FM-12+0009ENJA V0202001N007012200019N0150001N1+00151-00041100381ADDAA112000021AY151061AY211061GF103991031051004501001001KA1120M+00361MA1999999100261MD1310091+9999MW1011REMSYN094AAXX  06181 01001 11465 32007 10015 21004 30026 40038 53009 69902 70151 83500 333 10036 91117;
0101010010999992013010619004+70933-008667FM-12+0009ENJA V0201901N009019999999N9999999N1+00121-00011100391ADDMA1999999100271MD1210111+9999REMSYN060AAXX  06191 01001 46/// /1909 10012 21001 30027 40039 52011;
0101010010999992013010620004+70933-008667FM-12+0009ENJA V0202001N007019999999N9999999N1+00151-00071100411ADDMA1999999100291MD1110091+9999REMSYN060AAXX  06201 01001 46/// /2007 10015 21007 30029 40041 51009;
0101010010999992013010621004+70933-008667FM-12+0009ENJA V0201901N007019999999N9999999N1+00131-00041100461ADDMA1999999100341MD1310081+9999REMSYN060AAXX  06211 01001 46/// /1907 10013 21004 30034 40046 53008;
0101010010999992013010622004+70933-008667FM-12+0009ENJA V0201901N007019999999N9999999N1+00121-00041100501ADDMA1999999100381MD1310111+9999REMSYN060AAXX  06221 01001 46/// /1907 10012 21004 30038 40050 53011;
0101010010999992013010623004+70933-008667FM-12+0009ENJA V0201901N007019999999N9999999N1+00111-00031100521ADDMA1999999100401MD1210111+9999REMSYN060AAXX  06231 01001 46/// /1907 10011 21003 30040 40052 52011;
0217010010999992013010700004+70933-008667FM-12+0009ENJA V0202101N004012200019N0250001N1+00061-00081100541ADDAA106000091AY101061AY201061GA1001+999999999GF100991001001999999001001MA1999999100421MD1210091+9999MW1011REMSYN082AAXX  07001 01001 11975 02104 10006 21008 30042 40054 52009 60001 70100 333 91114;EQDQ01  00002PRCP06
0101010010999992013010701004+70933-008667FM-12+0009ENJA V0202301N001019999999N9999999N1+00081-00091100511ADDMA1999999100391MD1010021+9999REMSYN060AAXX  07011 01001 46/// /2301 10008 21009 30039 40051 50002;
0101010010999992013010702004+70933-008667FM-12+0009ENJA V0202401N002019999999N9999999N1+00101-00091100541ADDMA1999999100421MD1010021+9999REMSYN060AAXX  07021 01001 46/// /2402 10010 21009 30042 40054 50002;
0101010010999992013010703004+70933-008667FM-12+0009ENJA V0202001N002019999999N9999999N1+00101-00081100531ADDMA1999999100411MD1510011+9999REMSYN060AAXX  07031 01001 46/// /2002 10010 21008 30041 40053 55001;
0101010010999992013010704004+70933-008667FM-12+0009ENJA V0202001N004019999999N9999999N1+00091+00001100551ADDMA1999999100431MD1110031+9999REMSYN060AAXX  07041 01001 46/// /2004 10009 21000 30043 40055 51003;
0101010010999992013010705004+70933-008667FM-12+0009ENJA V0202101N003019999999N9999999N1+00061+00011100521ADDMA1999999100401MD1710011+9999REMSYN060AAXX  07051 01001 46/// /2103 10006 20001 30040 40052 57001;
0109010010999992013010706004+70933-008667FM-12+0009ENJA V02099999999999999999N9999999N1+00031-00011999999REMSYN100AAXX  07061 01001 11X06 91904 10003 21001 30041 40053 54001 69912 75054 333 20003 42999 70001 91107;
0101010010999992013010707004+70933-008667FM-12+0009ENJA V0202101N002019999999N9999999N1+00001-00031100521ADDMA1999999100401MD1710031+9999REMSYN060AAXX  07071 01001 46/// /2102 10000 21003 30040 40052 57003;
0101010010999992013010708004+70933-008667FM-12+0009ENJA V0200101N001019999999N9999999N1+00011-00021100571ADDMA1999999100451MD1310051+9999REMSYN060AAXX  07081 01001 46/// /0101 10001 21002 30045 40057 53005;
0075010010999992013010709004+70933-008667FM-12+0009ENJA V02099999999999999999N9999999N1+00041+00011999999REMSYN066AAXX  07091 01001 41X05 92201 10004 20001 30047 40059 53007 75054;
0101010010999992013010710004+70933-008667FM-12+0009ENJA V0202001N004019999999N9999999N1+00071+00041100601ADDMA1999999100481MD1110081+9999REMSYN060AAXX  07101 01001 46/// /2004 10007 20004 30048 40060 51008;
0101010010999992013010711004+70933-008667FM-12+0009ENJA V0202001N003019999999N9999999N1+00071+00041100591ADDMA1999999100471MD1210021+9999REMSYN060AAXX  07111 01001 46/// /2003 10007 20004 30047 40059 52002;
0227010010999992013010712004+70933-008667FM-12+0009ENJA V0202201N002010012019N0030001N1+00111+00081100561ADDAA106000091AY151061AY241061GF108991081061001501999999MA1999999100441MD1710031+9999MW1101SA1+0059REMSYN100AAXX  07121 01001 11230 82202 10011 20008 30044 40056 57003 69911 71054 886// 222// 00005 333 91106;EQDQ01  00002PRCP06
0101010010999992013010713004+70933-008667FM-12+0009ENJA V0202501N003019999999N9999999N1+00091+00061100551ADDMA1999999100431MD1710041+9999REMSYN060AAXX  07131 01001 46/// /2503 10009 20006 30043 40055 57004;
0101010010999992013010714004+70933-008667FM-12+0009ENJA V0202701N009019999999N9999999N1+00221-00571100531ADDMA1999999100411MD1710061+9999REMSYN060AAXX  07141 01001 46/// /2709 10022 21057 30041 40053 57006;
0161010010999992013010715004+70933-008667FM-12+0009ENJA V0202701N010012200019N0200001N1+00151-00601100521ADDAY121031AY211031GF104991041061004501001001MA1999999100401MD1510041+9999MW1011REMSYN072AAXX  07151 01001 41470 42710 10015 21060 30040 40052 55004 70121 84600;
0101010010999992013010716004+70933-008667FM-12+0009ENJA V0202601N006019999999N9999999N1+00051-00381100541ADDMA1999999100421MD1510011+9999REMSYN060AAXX  07161 01001 46/// /2606 10005 21038 30042 40054 55001;
0101010010999992013010717004+70933-008667FM-12+0009ENJA V0202701N006019999999N9999999N1-00041-00361100571ADDMA1999999100451MD1310041+9999REMSYN060AAXX  07171 01001 46/// /2706 11004 21036 30045 40057 53004;
0226010010999992013010718004+70933-008667FM-12+0009ENJA V0202701N007012200019N0250001N1-00081-00431100641ADDAA112000091AY121061AY211061GF103991021061002501031001KA1120M+00271MA1999999100521MD1310121+9999MW1021REMSYN094AAXX  07181 01001 11375 32707 11008 21043 30052 40064 53012 69912 70221 82630 333 10027 91117;EQDQ01  00002PRCP12
0101010010999992013010719004+70933-008667FM-12+0009ENJA V0202801N007019999999N9999999N1-00141-00651100691ADDMA1999999100571MD1210151+9999REMSYN060AAXX  07191 01001 46/// /2807 11014 21065 30057 40069 52015;
0101010010999992013010720004+70933-008667FM-12+0009ENJA V0203101N010019999999N9999999N1-00281-00601100801ADDMA1999999100681MD1310231+9999REMSYN060AAXX  07201 01001 46/// /3110 11028 21060 30068 40080 53023;
0101010010999992013010721004+70933-008667FM-12+0009ENJA V0203301N010019999999N9999999N1-00261-00601100881ADDMA1999999100761MD1310241+9999REMSYN060AAXX  07211 01001 46/// /3310 11026 21060 30076 40088 53024;
0101010010999992013010722004+70933-008667FM-12+0009ENJA V0203301N009019999999N9999999N1-00221-00781100951ADDMA1999999100831MD1210261+9999REMSYN060AAXX  07221 01001 46/// /3309 11022 21078 30083 40095 52026;
0101010010999992013010723004+70933-008667FM-12+0009ENJA V0203301N006019999999N9999999N1-00241-00831101071ADDMA1999999100951MD1310271+9999REMSYN060AAXX  07231 01001 46/// /3306 11024 21083 30095 40107 53027;
0217010010999992013010800004+70933-008667FM-12+0009ENJA V0202901N006012200019N0250001N1-00241-00761101181ADDAA106000091AY101061AY201061GA1001+999999999GF100991001001999999001001MA1999999101061MD1310301+9999MW1021REMSYN082AAXX  08001 01001 11975 02906 11024 21076 30106 40118 53030 60001 70200 333 91118;EQDQ01  00002PRCP06
0101010010999992013010801004+70933-008667FM-12+0009ENJA V0202901N006019999999N9999999N1-00241-00761101241ADDMA1999999101121MD1210291+9999REMSYN060AAXX  08011 01001 46/// /2906 11024 21076 30112 40124 52029;
0101010010999992013010802004+70933-008667FM-12+0009ENJA V0202801N006019999999N9999999N1-00251-00751101271ADDMA1999999101151MD1110201+9999REMSYN060AAXX  08021 01001 46/// /2806 11025 21075 30115 40127 51020;
0101010010999992013010803004+70933-008667FM-12+0009ENJA V0202901N006019999999N9999999N1-00231-00781101331ADDMA1999999101211MD1210151+9999REMSYN060AAXX  08031 01001 46/// /2906 11023 21078 30121 40133 52015;
0101010010999992013010804004+70933-008667FM-12+0009ENJA V0202901N007019999999N9999999N1-00231-00921101361ADDMA1999999101241MD1210131+9999REMSYN060AAXX  08041 01001 46/// /2907 11023 21092 30124 40136 52013;
0101010010999992013010805004+70933-008667FM-12+0009ENJA V0203201N007019999999N9999999N1-00241-00731101421ADDMA1999999101301MD1310161+9999REMSYN060AAXX  08051 01001 46/// /3207 11024 21073 30130 40142 53016;
0314010010999992013010806004+70933-008667FM-12+0009ENJA V0203301N007012200019N0250001N1-00351-00901101491ADDAA112000091AA224000091AJ199991999999999AY101061AY201061GA1001+999999999GF100991001001999999001001IA1309KA1999N-00351MA1999999101371MD1310161+9999MW1021REMSYN100AAXX  08061 01001 11975 03307 11035 21090 30137 40149 53016 60002 70200 333 21035 42999 70001 91115;EQDQ01  00002PRCP24Q02  00002PRCP12Q03  09962SNDP  
0101010010999992013010807004+70933-008667FM-12+0009ENJA V0203401N008019999999N9999999N1-00371-00801101551ADDMA1999999101431MD1210191+9999REMSYN060AAXX  08071 01001 46/// /3408 11037 21080 30143 40155 52019;
0101010010999992013010808004+70933-008667FM-12+0009ENJA V0203201N013019999999N9999999N1-00391-00811101521ADDMA1999999101401MD1010091+9999REMSYN060AAXX  08081 01001 46/// /3213 11039 21081 30140 40152 50009;
0161010010999992013010809004+70933-008667FM-12+0009ENJA V0203401N006012200019N0250001N1-00431-00811101661ADDAY101031AY201031GF101991011061004501001001MA1999999101541MD1310171+9999MW1021REMSYN072AAXX  08091 01001 41475 13406 11043 21081 30154 40166 53017 70200 81600;
0101010010999992013010810004+70933-008667FM-12+0009ENJA V0203501N005019999999N9999999N1-00441-00811101721ADDMA1999999101601MD1310171+9999REMSYN060AAXX  08101 01001 46/// /3505 11044 21081 30160 40172 53017;
0101010010999992013010811004+70933-008667FM-12+0009ENJA V0203401N004019999999N9999999N1-00521-00851101791ADDMA1999999101671MD1110271+9999REMSYN060AAXX  08111 01001 46/// /3404 11052 21085 30167 40179 51027;
0227010010999992013010812004+70933-008667FM-12+0009ENJA V0202801N002012200019N0250001N1-00561-00951101821ADDAA106000091AY101061AY201061GF102991011061004501031011MA1999999101701MD1110161+9999MW1031SA1+0049REMSYN100AAXX  08121 01001 11475 22802 11056 21095 30170 40182 51016 60001 70300 81631 222// 00004 333 91117;EQDQ01  00002PRCP06
0101010010999992013010813004+70933-008667FM-12+0009ENJA V0202301N002019999999N9999999N1-00561-00921101841ADDMA1999999101721MD1110121+9999REMSYN060AAXX  08131 01001 46/// /2302 11056 21092 30172 40184 51012;
0101010010999992013010814004+70933-008667FM-12+0009ENJA V0201601N003019999999N9999999N1-00391-00681101851ADDMA1999999101731MD1210061+9999REMSYN060AAXX  08141 01001 46/// /1603 11039 21068 30173 40185 52006;
0161010010999992013010815004+70933-008667FM-12+0009ENJA V0201301N004012200019N0250001N1-00291-00641101851ADDAY101031AY201031GF104991031081008001051081MA1999999101731MD1010031+9999MW1031REMSYN072AAXX  08151 01001 41575 41304 11029 21064 30173 40185 50003 70300 83858;
0101010010999992013010816004+70933-008667FM-12+0009ENJA V0201201N004019999999N9999999N1-00251-00591101831ADDMA1999999101711MD1810011+9999REMSYN060AAXX  08161 01001 46/// /1204 11025 21059 30171 40183 58001;
0101010010999992013010817004+70933-008667FM-12+0009ENJA V0201301N005019999999N9999999N1-00221-00581101821ADDMA1999999101701MD1710021+9999REMSYN060AAXX  08171 01001 46/// /1305 11022 21058 30170 40182 57002;
0226010010999992013010818004+70933-008667FM-12+0009ENJA V0201201N005010075019N0250001N1-00201-00511101841ADDAA112000091AY121061AY201061GF108991081051008001999999KA1120M-00191MA1999999101721MD1510011+9999MW1031REMSYN094AAXX  08181 01001 11575 81205 11020 21051 30172 40184 55001 60002 70320 885// 333 11019 91109;EQDQ01  00002PRCP12
0101010010999992013010819004+70933-008667FM-12+0009ENJA V0201101N007019999999N9999999N1-00191-00481101851ADDMA1999999101731MD1210031+9999REMSYN060AAXX  08191 01001 46/// /1107 11019 21048 30173 40185 52003;
0101010010999992013010821004+70933-008667FM-12+0009ENJA V0201201N008019999999N9999999N1-00121-00441101851ADDMA1999999101731MD1010011+9999REMSYN060AAXX  08211 01001 46/// /1208 11012 21044 30173 40185 50001;
0101010010999992013010823004+70933-008667FM-12+0009ENJA V0201301N007019999999N9999999N1-00091-00431101841ADDMA1999999101721MD1710031+9999REMSYN060AAXX  08231 01001 46/// /1307 11009 21043 30172 40184 57003;
0207010010999992013010900004+70933-008667FM-12+0009ENJA V0201401N007010075019N0250001N1-00061-00401101841ADDAA106000091AY121061AY221061GF108991081051008001999999MA1999999101721MD1710011+9999MW1021REMSYN088AAXX  09001 01001 11575 81407 11006 21040 30172 40184 57001 60001 70222 885// 333 91109;EQDQ01  00002PRCP06
0101010010999992013010901004+70933-008667FM-12+0009ENJA V0201301N006019999999N9999999N1-00031-00341101821ADDMA1999999101701MD1710031+9999REMSYN060AAXX  09011 01001 46/// /1306 11003 21034 30170 40182 57003;
0101010010999992013010902004+70933-008667FM-12+0009ENJA V0201501N006019999999N9999999N1+00001-00281101811ADDMA1999999101691MD1710031+9999REMSYN060AAXX  09021 01001 46/// /1506 10000 21028 30169 40181 57003;
0101010010999992013010903004+70933-008667FM-12+0009ENJA V0201501N007019999999N9999999N1+00021-00361101821ADDMA1999999101701MD1510011+9999REMSYN060AAXX  09031 01001 46/// /1507 10002 21036 30170 40182 55001;
0101010010999992013010904004+70933-008667FM-12+0009ENJA V0201401N007019999999N9999999N1+00021-00331101831ADDMA1999999101711MD1210011+9999REMSYN060AAXX  09041 01001 46/// /1407 10002 21033 30171 40183 52001;
0101010010999992013010905004+70933-008667FM-12+0009ENJA V0201501N007019999999N9999999N1+00041-00321101831ADDMA1999999101711MD1210011+9999REMSYN060AAXX  09051 01001 46/// /1507 10004 21032 30171 40183 52001;
0304010010999992013010906004+70933-008667FM-12+0009ENJA V0201601N007010075019N0250001N1+00061-00291101841ADDAA112000091AA224000091AJ199991999999999AY121061AY221061GF108991081051008001999999IA1309KA1999N-00201MA1999999101721MD1210021+9999MW1021REMSYN106AAXX  09061 01001 11575 81607 10006 21029 30172 40184 52002 60002 70222 885// 333 21020 42999 70000 91109;EQDQ01  00002PRCP24Q02  00002PRCP12Q03  09962SNDP  
0101010010999992013010907004+70933-008667FM-12+0009ENJA V0201701N006019999999N9999999N1+00081-00221101851ADDMA1999999101731MD1210031+9999REMSYN060AAXX  09071 01001 46/// /1706 10008 21022 30173 40185 52003;
0101010010999992013010908004+70933-008667FM-12+0009ENJA V0201701N007019999999N9999999N1+00081-00201101861ADDMA1999999101741MD1210041+9999REMSYN060AAXX  09081 01001 46/// /1707 10008 21020 30174 40186 52004;
0161010010999992013010909004+70933-008667FM-12+0009ENJA V0201801N007010042019N0250001N1+00091-00241101901ADDAY121031AY221031GF108991081051004501999999MA1999999101781MD1310061+9999MW1021REMSYN072AAXX  09091 01001 41475 81807 10009 21024 30178 40190 53006 70222 885//;
0101010010999992013010910004+70933-008667FM-12+0009ENJA V0201801N007019999999N9999999N1+00101-00241101911ADDMA1999999101791MD1310051+9999REMSYN060AAXX  09101 01001 46/// /1807 10010 21024 30179 40191 53005;
0101010010999992013010911004+70933-008667FM-12+0009ENJA V0201801N007019999999N9999999N1+00101-00221101941ADDMA1999999101821MD1210071+9999REMSYN060AAXX  09111 01001 46/// /1807 10010 21022 30182 40194 52007;
0227010010999992013010912004+70933-008667FM-12+0009ENJA V0201801N007010075019N0250001N1+00091-00191101991ADDAA106000091AY121061AY221061GF108991081051008001999999MA1999999101871MD1310091+9999MW1021SA1+0039REMSYN100AAXX  09121 01001 11575 81807 10009 21019 30187 40199 53009 60001 70222 885// 222// 00003 333 91110;EQDQ01  00002PRCP06
0101010010999992013010913004+70933-008667FM-12+0009ENJA V0201701N007019999999N9999999N1+00111-00181102041ADDMA1999999101921MD1210131+9999REMSYN060AAXX  09131 01001 46/// /1707 10011 21018 30192 40204 52013;
0101010010999992013010914004+70933-008667FM-12+0009ENJA V0201701N008019999999N9999999N1+00121-00191102031ADDMA1999999101911MD1010091+9999REMSYN060AAXX  09141 01001 46/// /1708 10012 21019 30191 40203 50009;
0161010010999992013010915004+70933-008667FM-12+0009ENJA V0201701N007010042019N0200001N1+00111-00121102031ADDAY161031AY221031GF108991061051004501021999MA1999999101911MD1010041+9999MW1601REMSYN072AAXX  09151 01001 41470 81707 10011 21012 30191 40203 50004 76062 8652/;
0101010010999992013010916004+70933-008667FM-12+0009ENJA V0201801N008019999999N9999999N1+00121-00151102021ADDMA1999999101901MD1410001+9999REMSYN060AAXX  09161 01001 46/// /1808 10012 21015 30190 40202 54001;
0101010010999992013010917004+70933-008667FM-12+0009ENJA V0201701N008019999999N9999999N1+00111-00151102021ADDMA1999999101901MD1710011+9999REMSYN060AAXX  09171 01001 46/// /1708 10011 21015 30190 40202 57001;
0207010010999992013010918004+70933-008667FM-12+0009ENJA V0201801N008010120019N0100001N1+00071-00081102011ADDAA112000021AY181061AY261061GF108991081081008001999999KA1120M+00131MA1999999101891MD1710021+9999MW1261REMSYN094AAXX  09181 01001 11560 81808 10007 21008 30189 40201 57002 69902 72686 888// 333 10013 91111;
0101010010999992013010919004+70933-008667FM-12+0009ENJA V0201701N008019999999N9999999N1+00071-00081102021ADDMA1999999101901MD1410001+9999REMSYN060AAXX  09191 01001 46/// /1708 10007 21008 30190 40202 54000;
0101010010999992013010920004+70933-008667FM-12+0009ENJA V0201601N007019999999N9999999N1+00071-00041102031ADDMA1999999101911MD1210021+9999REMSYN060AAXX  09201 01001 46/// /1607 10007 21004 30191 40203 52002;
0101010010999992013010921004+70933-008667FM-12+0009ENJA V0201701N008019999999N9999999N1+00071-00021102001ADDMA1999999101881MD1810011+9999REMSYN060AAXX  09211 01001 46/// /1708 10007 21002 30188 40200 58001;
0101010010999992013010922004+70933-008667FM-12+0009ENJA V0201901N006019999999N9999999N1+00061-00021101981ADDMA1999999101861MD1810041+9999REMSYN060AAXX  09221 01001 46/// /1906 10006 21002 30186 40198 58004;
0101010010999992013010923004+70933-008667FM-12+0009ENJA V0201701N006019999999N9999999N1+00081-00021101951ADDMA1999999101831MD1810081+9999REMSYN060AAXX  09231 01001 46/// /1706 10008 21002 30183 40195 58008;
0188010010999992013011000004+70933-008667FM-12+0009ENJA V0201801N009010120019N0045001N1+00081-00041101941ADDAA106000021AY181061AY271061GF108991081081008001999999MA1999999101821MD1810061+9999MW1831REMSYN088AAXX  10001 01001 11545 81809 10008 21004 30182 40194 58006 69901 78387 888// 333 91112;
0101010010999992013011001004+70933-008667FM-12+0009ENJA V0201601N008019999999N9999999N1+00091-00011101921ADDMA1999999101801MD1710071+9999REMSYN060AAXX  10011 01001 46/// /1608 10009 21001 30180 40192 57007;
0101010010999992013011002004+70933-008667FM-12+0009ENJA V0201601N008019999999N9999999N1+00121-00041101881ADDMA1999999101761MD1810071+9999REMSYN060AAXX  10021 01001 46/// /1608 10012 21004 30176 40188 58007;
0101010010999992013011003004+70933-008667FM-12+0009ENJA V0201501N008019999999N9999999N1+00141+00001101821ADDMA1999999101701MD1810131+9999REMSYN060AAXX  10031 01001 46/// /1508 10014 20000 30170 40182 58013;
0101010010999992013011004004+70933-008667FM-12+0009ENJA V0201701N008019999999N9999999N1+00151+00051101781ADDMA1999999101661MD1810131+9999REMSYN060AAXX  10041 01001 46/// /1708 10015 20005 30166 40178 58013;
0101010010999992013011005004+70933-008667FM-12+0009ENJA V0201601N008019999999N9999999N1+00141+00081101751ADDMA1999999101631MD1710131+9999REMSYN060AAXX  10051 01001 46/// /1608 10014 20008 30163 40175 57013;
0272010010999992013011006004+70933-008667FM-12+0009ENJA V0201701N010010012019N0025001N1+00141+00091101701ADDAA112000021AA224000021AJ199991999999999AY181061AY251061GF108991081061001501999999IA1309KA1999N+00061MA1999999101581MD1710121+9999MW1531REMSYN106AAXX  10061 01001 11225 81710 10014 20009 30158 40170 57012 69902 75385 886// 333 20006 42999 79999 91113;EQDQ01  09962SNDP  
0101010010999992013011007004+70933-008667FM-12+0009ENJA V0201701N011019999999N9999999N1+00151+00111101651ADDMA1999999101531MD1710131+9999REMSYN060AAXX  10071 01001 46/// /1711 10015 20011 30153 40165 57013;
0101010010999992013011008004+70933-008667FM-12+0009ENJA V0201701N013019999999N9999999N1+00151+00121101631ADDMA1999999101511MD1610111+9999REMSYN060AAXX  10081 01001 46/// /1713 10015 20012 30151 40163 56011;
0161010010999992013011009004+70933-008667FM-12+0009ENJA V0201801N009010012019N0015001N1+00151+00121101631ADDAY151031AY251031GF108991081061001501999999MA1999999101511MD1610061+9999MW1511REMSYN072AAXX  10091 01001 41215 81809 10015 20012 30151 40163 56006 75155 886//;
0101010010999992013011010004+70933-008667FM-12+0009ENJA V0202101N004019999999N9999999N1+00151+00121101631ADDMA1999999101511MD1510021+9999REMSYN060AAXX  10101 01001 46/// /2104 10015 20012 30151 40163 55002;
0101010010999992013011011004+70933-008667FM-12+0009ENJA V0202101N007019999999N9999999N1+00131+00101101571ADDMA1999999101451MD1810061+9999REMSYN060AAXX  10111 01001 46/// /2107 10013 20010 30145 40157 58006;
0208010010999992013011012004+70933-008667FM-12+0009ENJA V0202101N006010006019N0012001N1+00171+00141101551ADDAA106000021AY161061AY251061GF108991081061000751999999MA1999999101431MD1810091+9999MW1601SA1+0049REMSYN100AAXX  10121 01001 11112 82106 10017 20014 30143 40155 58009 69911 76065 886// 222// 00004 333 91116;
0101010010999992013011013004+70933-008667FM-12+0009ENJA V0202001N006019999999N9999999N1+00171+00141101531ADDMA1999999101411MD1610111+9999REMSYN060AAXX  10131 01001 46/// /2006 10017 20014 30141 40153 56011;
0101010010999992013011014004+70933-008667FM-12+0009ENJA V0202001N008019999999N9999999N1+00151+00121101491ADDMA1999999101371MD1710091+9999REMSYN060AAXX  10141 01001 46/// /2008 10015 20012 30137 40149 57009;
0075010010999992013011015004+70933-008667FM-12+0009ENJA V02099999999999999999N9999999N1+00141+00111999999REMSYN066AAXX  10151 01001 41X10 92007 10014 20011 30137 40149 55005 75965;
0101010010999992013011016004+70933-008667FM-12+0009ENJA V0202001N007019999999N9999999N1+00141+00111101481ADDMA1999999101361MD1610051+9999REMSYN060AAXX  10161 01001 46/// /2007 10014 20011 30136 40148 56005;
0101010010999992013011017004+70933-008667FM-12+0009ENJA V0201601N003019999999N9999999N1+00121+00091101511ADDMA1999999101391MD1310021+9999REMSYN060AAXX  10171 01001 46/// /1603 10012 20009 30139 40151 53002;
0136010010999992013011018004+70933-008667FM-12+0009ENJA V0201601N004019999999N9999999N1+00111+00081101481ADDKA1120M+00201MA1999999101361MD1810011+9999REMSYN082AAXX  10181 01001 16/// /1604 10011 20008 30136 40148 58001 6//// 333 10020 91110;
0101010010999992013011019004+70933-008667FM-12+0009ENJA V0201701N004019999999N9999999N1+00111+00091101471ADDMA1999999101351MD1010011+9999REMSYN060AAXX  10191 01001 46/// /1704 10011 20009 30135 40147 50001;
0101010010999992013011020004+70933-008667FM-12+0009ENJA V0201801N005019999999N9999999N1+00101+00081101491ADDMA1999999101371MD1510021+9999REMSYN060AAXX  10201 01001 46/// /1805 10010 20008 30137 40149 55002;
0101010010999992013011021004+70933-008667FM-12+0009ENJA V0202001N008019999999N9999999N1+00101+00081101491ADDMA1999999101371MD1210011+9999REMSYN060AAXX  10211 01001 46/// /2008 10010 20008 30137 40149 52001;
0101010010999992013011022004+70933-008667FM-12+0009ENJA V0202001N008019999999N9999999N1+00091+00071101491ADDMA1999999101371MD1210021+9999REMSYN060AAXX  10221 01001 46/// /2008 10009 20007 30137 40149 52002;
0101010010999992013011023004+70933-008667FM-12+0009ENJA V0202001N007019999999N9999999N1+00081+00061101511ADDMA1999999101391MD1310021+9999REMSYN060AAXX  10231 01001 46/// /2007 10008 20006 30139 40151 53002;
0188010010999992013011100004+70933-008667FM-12+0009ENJA V0202001N007010012019N0020001N1+00051+00031101521ADDAA106000591AY151061AY251061GF108991081061001501999999MA1999999101401MD1310031+9999MW1101REMSYN088AAXX  11001 01001 11220 82007 10005 20003 30140 40152 53003 69951 71055 886// 333 91110;
0101010010999992013011101004+70933-008667FM-12+0009ENJA V0202001N006019999999N9999999N1+00031+00011101541ADDMA1999999101421MD1110051+9999REMSYN060AAXX  11011 01001 46/// /2006 10003 20001 30142 40154 51005;
0101010010999992013011102004+70933-008667FM-12+0009ENJA V0202001N005019999999N9999999N1+00021+00001101571ADDMA1999999101451MD1310061+9999REMSYN060AAXX  11021 01001 46/// /2005 10002 21000 30145 40157 53006;
0101010010999992013011103004+70933-008667FM-12+0009ENJA V0202001N005019999999N9999999N1+00031+00011101561ADDMA1999999101441MD1010041+9999REMSYN060AAXX  11031 01001 46/// /2005 10003 20001 30144 40156 50004;
0101010010999992013011104004+70933-008667FM-12+0009ENJA V0202101N002019999999N9999999N1+00021+00001101561ADDMA1999999101441MD1010031+9999REMSYN060AAXX  11041 01001 46/// /2102 10002 21000 30144 40156 50003;
0101010010999992013011105004+70933-008667FM-12+0009ENJA V0201801N004019999999N9999999N1+00031+00011101581ADDMA1999999101461MD1310021+9999REMSYN060AAXX  11051 01001 46/// /1804 10003 20001 30146 40158 53002;
0272010010999992013011106004+70933-008667FM-12+0009ENJA V0202001N003010012019N0040001N1+00031+00011101581ADDAA112000591AA224001591AJ199991999999999AY121061AY221061GF108991081061001501999999IA1309KA1999N+00021MA1999999101461MD1210031+9999MW1101REMSYN106AAXX  11061 01001 11240 82003 10003 20001 30146 40158 52003 69952 71022 886// 333 20002 42999 70015 91107;EQDQ01  09962SNDP  
0101010010999992013011107004+70933-008667FM-12+0009ENJA V0201901N004019999999N9999999N1+00011-00011101621ADDMA1999999101501MD1310061+9999REMSYN060AAXX  11071 01001 46/// /1904 10001 21001 30150 40162 53006;
0101010010999992013011108004+70933-008667FM-12+0009ENJA V0202301N001019999999N9999999N1+00001-00021101671ADDMA1999999101551MD1310091+9999REMSYN060AAXX  11081 01001 46/// /2301 10000 21002 30155 40167 53009;
0161010010999992013011109004+70933-008667FM-12+0009ENJA V0202101N003010012019N0030001N1+00021+00001101671ADDAY121031AY221031GF108991081061001501999999MA1999999101551MD1110091+9999MW1101REMSYN072AAXX  11091 01001 41230 82103 10002 21000 30155 40167 51009 71022 886//;
0101010010999992013011110004+70933-008667FM-12+0009ENJA V0202001N006019999999N9999999N1+00001-00021101721ADDMA1999999101601MD1210091+9999REMSYN060AAXX  11101 01001 46/// /2006 10000 21002 30160 40172 52009;
0101010010999992013011111004+70933-008667FM-12+0009ENJA V0202001N004019999999N9999999N1+00001-00021101751ADDMA1999999101631MD1310081+9999REMSYN060AAXX  11111 01001 46/// /2004 10000 21002 30163 40175 53008;
0227010010999992013011112004+70933-008667FM-12+0009ENJA V0202201N003010006019N0030001N1+00001-00021101761ADDAA106000091AY121061AY221061GF108991081061000751999999MA1999999101641MD1210091+9999MW1101SA1+0049REMSYN100AAXX  11121 01001 11130 82203 10000 21002 30164 40176 52009 60001 71022 886// 222// 00004 333 91108;EQDQ01  00002PRCP06
0101010010999992013011113004+70933-008667FM-12+0009ENJA V0202001N005019999999N9999999N1+00001-00021101761ADDMA1999999101641MD1210051+9999REMSYN060AAXX  11131 01001 46/// /2005 10000 21002 30164 40176 52005;
0101010010999992013011114004+70933-008667FM-12+0009ENJA V0202001N004019999999N9999999N1+00011-00021101781ADDMA1999999101661MD1210031+9999REMSYN060AAXX  11141 01001 46/// /2004 10001 21002 30166 40178 52003;
0161010010999992013011115004+70933-008667FM-12+0009ENJA V0202301N001010006019N0070001N1+00021-00011101811ADDAY121031AY221031GF108991081061000751999999MA1999999101691MD1310041+9999MW1101REMSYN072AAXX  11151 01001 41157 82301 10002 21001 30169 40181 53004 71022 886//;
0101010010999992013011116004+70933-008667FM-12+0009ENJA V0201901N001019999999N9999999N1+00031+00001101821ADDMA1999999101701MD1210051+9999REMSYN060AAXX  11161 01001 46/// /1901 10003 21000 30170 40182 52005;
0101010010999992013011117004+70933-008667FM-12+0009ENJA V0201601N002019999999N9999999N1+00051+00021101851ADDMA1999999101731MD1210071+9999REMSYN060AAXX  11171 01001 46/// /1602 10005 20002 30173 40185 52007;
0226010010999992013011118004+70933-008667FM-12+0009ENJA V0200501N004010012019N0050001N1+00041+00011101891ADDAA112000091AY121061AY221061GF107991071061001501001001KA1120M+00071MA1999999101771MD1310081+9999MW1101REMSYN094AAXX  11181 01001 11250 70504 10004 20001 30177 40189 53008 60002 71022 87600 333 10007 91108;EQDQ01  00002PRCP12
0101010010999992013011119004+70933-008667FM-12+0009ENJA V0200301N003019999999N9999999N1+00041+00001101921ADDMA1999999101801MD1210101+9999REMSYN060AAXX  11191 01001 46/// /0303 10004 20000 30180 40192 52010;
0101010010999992013011120004+70933-008667FM-12+0009ENJA V0200301N002019999999N9999999N1+00061+00031101941ADDMA1999999101821MD1210091+9999REMSYN060AAXX  11201 01001 46/// /0302 10006 20003 30182 40194 52009;
0101010010999992013011121004+70933-008667FM-12+0009ENJA V0209999C000019999999N9999999N1+00071+00031101991ADDMA1999999101871MD1310101+9999REMSYN060AAXX  11211 01001 46/// /0000 10007 20003 30187 40199 53010;
0101010010999992013011122004+70933-008667FM-12+0009ENJA V0202001N007019999999N9999999N1+00051+00021101981ADDMA1999999101861MD1110061+9999REMSYN060AAXX  11221 01001 46/// /2007 10005 20002 30186 40198 51006;
0101010010999992013011123004+70933-008667FM-12+0009ENJA V0202001N007019999999N9999999N1+00051+00021102011ADDMA1999999101891MD1110081+9999REMSYN060AAXX  11231 01001 46/// /2007 10005 20002 30189 40201 51008;
0188010010999992013011200004+70933-008667FM-12+0009ENJA V0202001N006010003019N0040001N1+00041+00011102021ADDAA106000021AY151061AY221061GF108991081061000251999999MA1999999101901MD1210031+9999MW1511REMSYN088AAXX  12001 01001 11040 82006 10004 20001 30190 40202 52003 60001 75152 886// 333 91109;
0101010010999992013011201004+70933-008667FM-12+0009ENJA V0202001N005019999999N9999999N1+00041+00011102011ADDMA1999999101891MD1010031+9999REMSYN060AAXX  12011 01001 46/// /2005 10004 20001 30189 40201 50003;
0101010010999992013011202004+70933-008667FM-12+0009ENJA V0203001N001019999999N9999999N1+00031+00001102031ADDMA1999999101911MD1210011+9999REMSYN060AAXX  12021 01001 46/// /3001 10003 20000 30191 40203 52001;
0101010010999992013011203004+70933-008667FM-12+0009ENJA V0202901N001019999999N9999999N1+00031+00001102031ADDMA1999999101911MD1410001+9999REMSYN060AAXX  12031 01001 46/// /2901 10003 20000 30191 40203 54001;
0101010010999992013011204004+70933-008667FM-12+0009ENJA V0201901N004019999999N9999999N1+00041+00011102031ADDMA1999999101911MD1210021+9999REMSYN060AAXX  12041 01001 46/// /1904 10004 20001 30191 40203 52002;
0101010010999992013011205004+70933-008667FM-12+0009ENJA V0201901N002019999999N9999999N1+00041+00011102001ADDMA1999999101881MD1810021+9999REMSYN060AAXX  12051 01001 46/// /1902 10004 20001 30188 40200 58002;
0282010010999992013011206004+70933-008667FM-12+0009ENJA V0201901N003010003019N0005001N1+00041+00021101991ADDAA112000391AA224000391AJ199991999999999AY171061AY261061GA1091+999999999GF109991091999999999999999IA1309KA1999N+00021MA1999999101871MD1710041+9999MW1691REMSYN100AAXX  12061 01001 11005 91903 10004 20002 30187 40199 57004 69932 76976 333 20002 42999 70003 91107;EQDQ01  09962SNDP  
0101010010999992013011207004+70933-008667FM-12+0009ENJA V0202001N002019999999N9999999N1+00031+00011102011ADDMA1999999101891MD1510021+9999REMSYN060AAXX  12071 01001 46/// /2002 10003 20001 30189 40201 55002;
0101010010999992013011208004+70933-008667FM-12+0009ENJA V0201901N001019999999N9999999N1+00041+00011102021ADDMA1999999101901MD1210021+9999REMSYN060AAXX  12081 01001 46/// /1901 10004 20001 30190 40202 52002;
0161010010999992013011209004+70933-008667FM-12+0009ENJA V0202001N003010006019N0050001N1+00071+00041102031ADDAY171031AY261031GF108991081061000751999999MA1999999101911MD1210031+9999MW1511REMSYN072AAXX  12091 01001 41150 82003 10007 20004 30191 40203 52003 75176 886//;
0101010010999992013011210004+70933-008667FM-12+0009ENJA V0202001N002019999999N9999999N1+00071+00041102011ADDMA1999999101891MD1410001+9999REMSYN060AAXX  12101 01001 46/// /2002 10007 20004 30189 40201 54000;
0101010010999992013011211004+70933-008667FM-12+0009ENJA V0201601N005019999999N9999999N1+00081+00051101981ADDMA1999999101861MD1810031+9999REMSYN060AAXX  12111 01001 46/// /1605 10008 20005 30186 40198 58003;
0208010010999992013011212004+70933-008667FM-12+0009ENJA V0201701N006010060019N0200001N1+00081+00041101951ADDAA106001091AY171061AY261061GF107991051081002501051081MA1999999101831MD1710071+9999MW1151SA1+0049REMSYN100AAXX  12121 01001 11370 71706 10008 20004 30183 40195 57007 60011 71576 85858 222// 00004 333 91107;
0101010010999992013011213004+70933-008667FM-12+0009ENJA V0202101N002019999999N9999999N1+00051+00001101931ADDMA1999999101811MD1710091+9999REMSYN060AAXX  12131 01001 46/// /2102 10005 21000 30181 40193 57009;
0101010010999992013011214004+70933-008667FM-12+0009ENJA V0201601N005019999999N9999999N1+00071+00021101861ADDMA1999999101741MD1810121+9999REMSYN060AAXX  12141 01001 46/// /1605 10007 20002 30174 40186 58012;
0161010010999992013011215004+70933-008667FM-12+0009ENJA V0201401N006010075019N0250001N1+00081+00021101821ADDAY121031AY221031GF108991081051008001999999MA1999999101701MD1810141+9999MW1021REMSYN072AAXX  12151 01001 41575 81406 10008 20002 30170 40182 58014 70222 885//;
0101010010999992013011216004+70933-008667FM-12+0009ENJA V0201501N007019999999N9999999N1+00091+00021101781ADDMA1999999101661MD1610141+9999REMSYN060AAXX  12161 01001 46/// /1507 10009 20002 30166 40178 56014;
0101010010999992013011217004+70933-008667FM-12+0009ENJA V0201801N003019999999N9999999N1+00071+00011101741ADDMA1999999101621MD1810121+9999REMSYN060AAXX  12171 01001 46/// /1803 10007 20001 30162 40174 58012;
0207010010999992013011218004+70933-008667FM-12+0009ENJA V0202101N001010021019N0200001N1+00081+00021101711ADDAA112001091AY171061AY221061GF108991081061002501999999KA1120M+00091MA1999999101591MD1710111+9999MW1021REMSYN094AAXX  12181 01001 11370 82101 10008 20002 30159 40171 57011 60012 70272 886// 333 10009 91109;
0101010010999992013011219004+70933-008667FM-12+0009ENJA V0201901N003019999999N9999999N1+00111+00031101671ADDMA1999999101551MD1710111+9999REMSYN060AAXX  12191 01001 46/// /1903 10011 20003 30155 40167 57011;
0101010010999992013011220004+70933-008667FM-12+0009ENJA V0202101N002019999999N9999999N1+00101+00021101621ADDMA1999999101501MD1710121+9999REMSYN060AAXX  12201 01001 46/// /2102 10010 20002 30150 40162 57012;
0101010010999992013011221004+70933-008667FM-12+0009ENJA V0201901N002019999999N9999999N1+00111+00021101571ADDMA1999999101451MD1710141+9999REMSYN060AAXX  12211 01001 46/// /1902 10011 20002 30145 40157 57014;
0101010010999992013011222004+70933-008667FM-12+0009ENJA V0201701N007019999999N9999999N1+00121+00031101501ADDMA1999999101381MD1810171+9999REMSYN060AAXX  12221 01001 46/// /1707 10012 20003 30138 40150 58017;
0101010010999992013011223004+70933-008667FM-12+0009ENJA V0201601N007019999999N9999999N1+00121+00021101451ADDMA1999999101331MD1710171+9999REMSYN060AAXX  12231 01001 46/// /1607 10012 20002 30133 40145 57017;
0207010010999992013011300004+70933-008667FM-12+0009ENJA V0201601N006010021019N0200001N1+00101+00021101401ADDAA106000091AY121061AY221061GF108991081061002501999999MA1999999101281MD1710171+9999MW1021REMSYN088AAXX  13001 01001 11370 81606 10010 20002 30128 40140 57017 60001 70222 886// 333 91110;EQDQ01  00002PRCP06
0101010010999992013011301004+70933-008667FM-12+0009ENJA V0201601N007019999999N9999999N1+00121+00031101341ADDMA1999999101221MD1710161+9999REMSYN060AAXX  13011 01001 46/// /1607 10012 20003 30122 40134 57016;
0101010010999992013011302004+70933-008667FM-12+0009ENJA V0201501N007019999999N9999999N1+00111+00021101251ADDMA1999999101131MD1810191+9999REMSYN060AAXX  13021 01001 46/// /1507 10011 20002 30113 40125 58019;
0101010010999992013011303004+70933-008667FM-12+0009ENJA V0201801N003019999999N9999999N1+00111+00021101211ADDMA1999999101091MD1710191+9999REMSYN060AAXX  13031 01001 46/// /1803 10011 20002 30109 40121 57019;
0101010010999992013011304004+70933-008667FM-12+0009ENJA V0202001N001019999999N9999999N1+00111+00031101141ADDMA1999999101021MD1710201+9999REMSYN060AAXX  13041 01001 46/// /2001 10011 20003 30102 40114 57020;
0101010010999992013011305004+70933-008667FM-12+0009ENJA V0202001N002019999999N9999999N1+00101+00031101081ADDMA1999999100961MD1710171+9999REMSYN060AAXX  13051 01001 46/// /2002 10010 20003 30096 40108 57017;
0288010010999992013011306004+70933-008667FM-12+0009ENJA V0201701N003010012019N0080001N1+00111+00051101051ADDAA112000091AA224001091AJ199991999999999AY121061AY221061GF108991081061001501999999IA1309KA1999N+00081MA1999999100931MD1710161+9999MW1101REMSYN106AAXX  13061 01001 11258 81703 10011 20005 30093 40105 57016 60002 71022 886// 333 20008 42999 70011 91108;EQDQ01  00002PRCP12Q02  09962SNDP  
0101010010999992013011307004+70933-008667FM-12+0009ENJA V0201801N003019999999N9999999N1+00111+00051101011ADDMA1999999100891MD1710131+9999REMSYN060AAXX  13071 01001 46/// /1803 10011 20005 30089 40101 57013;
0101010010999992013011308004+70933-008667FM-12+0009ENJA V0201501N004019999999N9999999N1+00131+00071100971ADDMA1999999100851MD1710121+9999REMSYN060AAXX  13081 01001 46/// /1504 10013 20007 30085 40097 57012;
0161010010999992013011309004+70933-008667FM-12+0009ENJA V0201301N006010012019N0150001N1+00131+00051100941ADDAY121031AY221031GF108991081061001501999999MA1999999100821MD1710111+9999MW1021REMSYN072AAXX  13091 01001 41265 81306 10013 20005 30082 40094 57011 70222 886//;
0101010010999992013011310004+70933-008667FM-12+0009ENJA V0201301N003019999999N9999999N1+00101+00031100921ADDMA1999999100801MD1710091+9999REMSYN060AAXX  13101 01001 46/// /1303 10010 20003 30080 40092 57009;
0101010010999992013011311004+70933-008667FM-12+0009ENJA V0201601N003019999999N9999999N1+00111+00041100911ADDMA1999999100791MD1710061+9999REMSYN060AAXX  13111 01001 46/// /1603 10011 20004 30079 40091 57006;
0227010010999992013011312004+70933-008667FM-12+0009ENJA V0201201N004010012019N0250001N1+00111+00041100881ADDAA106000091AY121061AY221061GF108991061051001501001081MA1999999100761MD1710061+9999MW1021SA1+0049REMSYN100AAXX  13121 01001 11275 81204 10011 20004 30076 40088 57006 60001 70222 86508 222// 00004 333 91108;EQDQ01  00002PRCP06
0101010010999992013011313004+70933-008667FM-12+0009ENJA V0201101N004019999999N9999999N1+00101+00021100841ADDMA1999999100721MD1710081+9999REMSYN060AAXX  13131 01001 46/// /1104 10010 20002 30072 40084 57008;
0101010010999992013011314004+70933-008667FM-12+0009ENJA V0201401N003019999999N9999999N1+00091+00021100801ADDMA1999999100681MD1710101+9999REMSYN060AAXX  13141 01001 46/// /1403 10009 20002 30068 40080 57010;
0161010010999992013011315004+70933-008667FM-12+0009ENJA V0202001N002010060019N0250001N1+00081+00011100791ADDAY121031AY221031GF107991051081002501061001MA1999999100671MD1710081+9999MW1011REMSYN072AAXX  13151 01001 41375 72002 10008 20001 30067 40079 57008 70122 85860;
0101010010999992013011316004+70933-008667FM-12+0009ENJA V0202101N001019999999N9999999N1+00071+00001100791ADDMA1999999100671MD1610051+9999REMSYN060AAXX  13161 01001 46/// /2101 10007 21000 30067 40079 56005;
0101010010999992013011317004+70933-008667FM-12+0009ENJA V0200501N001019999999N9999999N1+00071+00001100781ADDMA1999999100661MD1710021+9999REMSYN060AAXX  13171 01001 46/// /0501 10007 21000 30066 40078 57002;
0226010010999992013011318004+70933-008667FM-12+0009ENJA V0203501N001010042019N0200001N1+00091+00011100791ADDAA112000091AY121061AY221061GF106991051051004501031001KA1120M+00161MA1999999100671MD1410001+9999MW1011REMSYN094AAXX  13181 01001 11470 63501 10009 20001 30067 40079 54000 60002 70122 85530 333 10016 91105;EQDQ01  00002PRCP12
0101010010999992013011319004+70933-008667FM-12+0009ENJA V0202901N001019999999N9999999N1+00051-00021100801ADDMA1999999100681MD1410001+9999REMSYN060AAXX  13191 01001 46/// /2901 10005 21002 30068 40080 54001;
0101010010999992013011320004+70933-008667FM-12+0009ENJA V0200501N001019999999N9999999N1+00051-00031100791ADDMA1999999100671MD1410001+9999REMSYN060AAXX  13201 01001 46/// /0501 10005 21003 30067 40079 54001;
0101010010999992013011321004+70933-008667FM-12+0009ENJA V0200601N002019999999N9999999N1+00061-00021100791ADDMA1999999100671MD1410001+9999REMSYN060AAXX  13211 01001 46/// /0602 10006 21002 30067 40079 54000;
0101010010999992013011322004+70933-008667FM-12+0009ENJA V0200501N001019999999N9999999N1+00031-00081100811ADDMA1999999100691MD1410001+9999REMSYN060AAXX  13221 01001 46/// /0501 10003 21008 30069 40081 54001;
0101010010999992013011323004+70933-008667FM-12+0009ENJA V0200601N002019999999N9999999N1+00051-00051100811ADDMA1999999100691MD1210021+9999REMSYN060AAXX  13231 01001 46/// /0602 10005 21005 30069 40081 52002;
0207010010999992013011400004+70933-008667FM-12+0009ENJA V0200901N003010240019N0250001N1+00081-00021100841ADDAA106000091AY121061AY221061GF108991021051008001011999MA1999999100721MD1210051+9999MW1021REMSYN088AAXX  14001 01001 11575 80903 10008 21002 30072 40084 52005 60001 70222 8251/ 333 91104;EQDQ01  00002PRCP06
0101010010999992013011401004+70933-008667FM-12+0009ENJA V0200601N001019999999N9999999N1+00091+00001100861ADDMA1999999100741MD1210061+9999REMSYN060AAXX  14011 01001 46/// /0601 10009 21000 30074 40086 52006;
0101010010999992013011402004+70933-008667FM-12+0009ENJA V0202201N001019999999N9999999N1+00111+00021100861ADDMA1999999100741MD1210061+9999REMSYN060AAXX  14021 01001 46/// /2201 10011 20002 30074 40086 52006;
0101010010999992013011403004+70933-008667FM-12+0009ENJA V0201401N001019999999N9999999N1+00121+00031100881ADDMA1999999100761MD1210041+9999REMSYN060AAXX  14031 01001 46/// /1401 10012 20003 30076 40088 52004;
0101010010999992013011404004+70933-008667FM-12+0009ENJA V0202401N001019999999N9999999N1+00121+00031100881ADDMA1999999100761MD1210021+9999REMSYN060AAXX  14041 01001 46/// /2401 10012 20003 30076 40088 52002;
0101010010999992013011405004+70933-008667FM-12+0009ENJA V0202101N002019999999N9999999N1+00111+00011100891ADDMA1999999100771MD1210031+9999REMSYN060AAXX  14051 01001 46/// /2102 10011 20001 30077 40089 52003;
0304010010999992013011406004+70933-008667FM-12+0009ENJA V0203301N002010021019N0200001N1+00111+00021100901ADDAA112000091AA224000091AJ199991999999999AY121061AY221061GF108991081061002501999999IA1309KA1999N+00031MA1999999100781MD1210021+9999MW1021REMSYN106AAXX  14061 01001 11370 83302 10011 20002 30078 40090 52002 60002 70222 886// 333 20003 42999 70000 91106;EQDQ01  00002PRCP24Q02  00002PRCP12Q03  09962SNDP  
0101010010999992013011407004+70933-008667FM-12+0009ENJA V0201901N002019999999N9999999N1+00101+00021100941ADDMA1999999100821MD1310061+9999REMSYN060AAXX  14071 01001 46/// /1902 10010 20002 30082 40094 53006;
0101010010999992013011408004+70933-008667FM-12+0009ENJA V0201801N003019999999N9999999N1+00081+00021100991ADDMA1999999100871MD1310101+9999REMSYN060AAXX  14081 01001 46/// /1803 10008 20002 30087 40099 53010;
0075010010999992013011409004+70933-008667FM-12+0009ENJA V02099999999999999999N9999999N1-00011-00041999999REMSYN066AAXX  14091 01001 41X10 92004 11001 21004 30093 40105 52015 75352;
0101010010999992013011410004+70933-008667FM-12+0009ENJA V0201801N004019999999N9999999N1-00061-00091101091ADDMA1999999100971MD1210151+9999REMSYN060AAXX  14101 01001 46/// /1804 11006 21009 30097 40109 52015;
0101010010999992013011411004+70933-008667FM-12+0009ENJA V0201901N003019999999N9999999N1-00051-00071101121ADDMA1999999101001MD1210131+9999REMSYN060AAXX  14111 01001 46/// /1903 11005 21007 30100 40112 52013;
0208010010999992013011412004+70933-008667FM-12+0009ENJA V0201901N005010006019N0060001N1-00061-00081101151ADDAA106000021AY151061AY221061GF108991081061000751999999MA1999999101031MD1210101+9999MW1201SA1+0049REMSYN100AAXX  14121 01001 11156 81905 11006 21008 30103 40115 52010 69901 72052 886// 222// 00004 333 91106;
0101010010999992013011413004+70933-008667FM-12+0009ENJA V0202001N004019999999N9999999N1-00061-00081101171ADDMA1999999101051MD1210091+9999REMSYN060AAXX  14131 01001 46/// /2004 11006 21008 30105 40117 52009;
0101010010999992013011414004+70933-008667FM-12+0009ENJA V0202101N005019999999N9999999N1-00041-00061101181ADDMA1999999101061MD1210071+9999REMSYN060AAXX  14141 01001 46/// /2105 11004 21006 30106 40118 52007;
0161010010999992013011415004+70933-008667FM-12+0009ENJA V0202101N005010021019N0120001N1-00041-00071101171ADDAY151031AY221031GF108991081061002501999999MA1999999101051MD1210021+9999MW1501REMSYN072AAXX  14151 01001 41362 82105 11004 21007 30105 40117 52002 75052 886//;
0101010010999992013011416004+70933-008667FM-12+0009ENJA V0202001N004019999999N9999999N1-00011-00081101191ADDMA1999999101071MD1210021+9999REMSYN060AAXX  14161 01001 46/// /2004 11001 21008 30107 40119 52002;
0101010010999992013011417004+70933-008667FM-12+0009ENJA V0201901N004019999999N9999999N1+00001-00091101201ADDMA1999999101081MD1210021+9999REMSYN060AAXX  14171 01001 46/// /1904 10000 21009 30108 40120 52002;
0207010010999992013011418004+70933-008667FM-12+0009ENJA V0202201N001010042019N0040001N1-00021-00121101201ADDAA112000021AY151061AY221061GF108991081061004501999999KA1120M+00111MA1999999101081MD1010031+9999MW1101REMSYN094AAXX  14181 01001 11440 82201 11002 21012 30108 40120 50003 69902 71052 886// 333 10011 91107;
0101010010999992013011419004+70933-008667FM-12+0009ENJA V0201701N003019999999N9999999N1-00021-00101101171ADDMA1999999101051MD1810011+9999REMSYN060AAXX  14191 01001 46/// /1703 11002 21010 30105 40117 58001;
0101010010999992013011420004+70933-008667FM-12+0009ENJA V0201901N004019999999N9999999N1-00041-00091101171ADDMA1999999101051MD1810031+9999REMSYN060AAXX  14201 01001 46/// /1904 11004 21009 30105 40117 58003;
0101010010999992013011421004+70933-008667FM-12+0009ENJA V0201701N003019999999N9999999N1-00021-00101101131ADDMA1999999101011MD1810071+9999REMSYN060AAXX  14211 01001 46/// /1703 11002 21010 30101 40113 58007;
0101010010999992013011422004+70933-008667FM-12+0009ENJA V0201801N005019999999N9999999N1-00021-00091101101ADDMA1999999100981MD1810081+9999REMSYN060AAXX  14221 01001 46/// /1805 11002 21009 30098 40110 58008;
0101010010999992013011423004+70933-008667FM-12+0009ENJA V0202001N004019999999N9999999N1-00041-00101101081ADDMA1999999100961MD1710091+9999REMSYN060AAXX  14231 01001 46/// /2004 11004 21010 30096 40108 57009;
0207010010999992013011500004+70933-008667FM-12+0009ENJA V0202001N005010021019N0045001N1-00051-00131101071ADDAA106000091AY171061AY221061GF105991051061002501001001MA1999999100951MD1710051+9999MW1101REMSYN088AAXX  15001 01001 11345 52005 11005 21013 30095 40107 57005 69901 71072 85600 333 91107;EQDQ01  00002PRCP06
0101010010999992013011501004+70933-008667FM-12+0009ENJA V0202001N003019999999N9999999N1-00081-00181101041ADDMA1999999100921MD1710051+9999REMSYN060AAXX  15011 01001 46/// /2003 11008 21018 30092 40104 57005;
0101010010999992013011502004+70933-008667FM-12+0009ENJA V0202401N001019999999N9999999N1-00121-00221101001ADDMA1999999100881MD1810081+9999REMSYN060AAXX  15021 01001 46/// /2401 11012 21022 30088 40100 58008;
0101010010999992013011503004+70933-008667FM-12+0009ENJA V0202201N001019999999N9999999N1-00151-00281100961ADDMA1999999100841MD1710111+9999REMSYN060AAXX  15031 01001 46/// /2201 11015 21028 30084 40096 57011;
0101010010999992013011504004+70933-008667FM-12+0009ENJA V0203101N001019999999N9999999N1-00201-00331100951ADDMA1999999100831MD1710091+9999REMSYN060AAXX  15041 01001 46/// /3101 11020 21033 30083 40095 57009;
0101010010999992013011505004+70933-008667FM-12+0009ENJA V0203301N001019999999N9999999N1-00221-00331100911ADDMA1999999100791MD1710081+9999REMSYN060AAXX  15051 01001 46/// /3301 11022 21033 30079 40091 57008;
0288010010999992013011506004+70933-008667FM-12+0009ENJA V0202901N001012200019N0050001N1-00241-00341100881ADDAA112000091AA224000021AJ199991999999999AY111061AY211061GF103991031061002501001001IA1309KA1999N-00271MA1999999100761MD1710081+9999MW1101REMSYN106AAXX  15061 01001 11350 32901 11024 21034 30076 40088 57008 69902 71011 83600 333 21027 42999 79999 91106;EQDQ01  00002PRCP12Q02  09962SNDP  
0101010010999992013011507004+70933-008667FM-12+0009ENJA V0202601N001019999999N9999999N1-00201-00291100851ADDMA1999999100731MD1710101+9999REMSYN060AAXX  15071 01001 46/// /2601 11020 21029 30073 40085 57010;
0101010010999992013011508004+70933-008667FM-12+0009ENJA V0202701N001019999999N9999999N1-00191-00301100851ADDMA1999999100731MD1510061+9999REMSYN060AAXX  15081 01001 46/// /2701 11019 21030 30073 40085 55006;
0161010010999992013011509004+70933-008667FM-12+0009ENJA V0200301N002010021019N0050001N1-00171-00251100851ADDAY171031AY211031GF107991071061002501999999MA1999999100731MD1510031+9999MW1701REMSYN072AAXX  15091 01001 41350 70302 11017 21025 30073 40085 55003 77071 876//;
0101010010999992013011510004+70933-008667FM-12+0009ENJA V0203401N003019999999N9999999N1-00131-00231100861ADDMA1999999100741MD1210011+9999REMSYN060AAXX  15101 01001 46/// /3403 11013 21023 30074 40086 52001;
0101010010999992013011511004+70933-008667FM-12+0009ENJA V0203501N004019999999N9999999N1-00141-00231100881ADDMA1999999100761MD1210031+9999REMSYN060AAXX  15111 01001 46/// /3504 11014 21023 30076 40088 52003;
0208010010999992013011512004+70933-008667FM-12+0009ENJA V0203601N005010060019N0100001N1-00171-00261100891ADDAA106000021AY181061AY221061GF108991071081002501999021MA1999999100771MD1210041+9999MW1851SA1+0059REMSYN100AAXX  15121 01001 11360 83605 11017 21026 30077 40089 52004 69921 78582 878/2 222// 00005 333 91107;
0101010010999992013011523004+70933-008667FM-12+0009ENJA V0201001N004019999999N9999999N1-00011-00131100651ADDMA1999999100531MD1810091+9999REMSYN060AAXX  15231 01001 46/// /1004 11001 21013 30053 40065 58009;
0188010010999992013011600004+70933-008667FM-12+0009ENJA V0200901N006010090019N0100001N1+00011-00071100591ADDAA106000021AY181061AY221061GF108991081081004501999999MA1999999100471MD1710131+9999MW1851REMSYN088AAXX  16001 01001 11460 80906 10001 21007 30047 40059 57013 69901 78582 888// 333 91109;
0101010010999992013011601004+70933-008667FM-12+0009ENJA V0201001N006019999999N9999999N1+00061+00001100531ADDMA1999999100411MD1810161+9999REMSYN060AAXX  16011 01001 46/// /1006 10006 21000 30041 40053 58016;
0101010010999992013011602004+70933-008667FM-12+0009ENJA V0201001N007019999999N9999999N1+00081+00031100491ADDMA1999999100371MD1710161+9999REMSYN060AAXX  16021 01001 46/// /1007 10008 20003 30037 40049 57016;
0101010010999992013011603004+70933-008667FM-12+0009ENJA V0202001N003019999999N9999999N1+00031-00011100451ADDMA1999999100331MD1710141+9999REMSYN060AAXX  16031 01001 46/// /2003 10003 21001 30033 40045 57014;
0101010010999992013011604004+70933-008667FM-12+0009ENJA V0201201N007019999999N9999999N1+00121+00081100381ADDMA1999999100261MD1810151+9999REMSYN060AAXX  16041 01001 46/// /1207 10012 20008 30026 40038 58015;
0101010010999992013011605004+70933-008667FM-12+0009ENJA V0201601N008019999999N9999999N1+00161+00101100351ADDMA1999999100231MD1710141+9999REMSYN060AAXX  16051 01001 46/// /1608 10016 20010 30023 40035 57014;
0272010010999992013011606004+70933-008667FM-12+0009ENJA V0201601N009010021019N0100001N1+00171+00091100331ADDAA112002092AA224001892AJ199991999999999AY181061AY221061GF108991081061002501999999IA1309KA1999N-00081MA1999999100211MD1610121+9999MW1021REMSYN106AAXX  16061 01001 11360 81609 10017 20009 30021 40033 56012 60022 70282 886// 333 21008 42999 70018 91112;EQDQ01  09962SNDP  
0101010010999992013011607004+70933-008667FM-12+0009ENJA V0201601N008019999999N9999999N1+00181+00081100311ADDMA1999999100191MD1810071+9999REMSYN060AAXX  16071 01001 46/// /1608 10018 20008 30019 40031 58007;
0101010010999992013011608004+70933-008667FM-12+0009ENJA V0201601N008019999999N9999999N1+00181+00071100291ADDMA1999999100171MD1810061+9999REMSYN060AAXX  16081 01001 46/// /1608 10018 20007 30017 40029 58006;
0161010010999992013011609004+70933-008667FM-12+0009ENJA V0201601N010010021019N0150001N1+00191+00071100261ADDAY121031AY221031GF108991081061002501999999MA1999999100141MD1710081+9999MW1021REMSYN072AAXX  16091 01001 41365 81610 10019 20007 30014 40026 57008 70222 886//;
0101010010999992013011610004+70933-008667FM-12+0009ENJA V0201601N009019999999N9999999N1+00201+00081100251ADDMA1999999100131MD1710061+9999REMSYN060AAXX  16101 01001 46/// /1609 10020 20008 30013 40025 57006;
0101010010999992013011611004+70933-008667FM-12+0009ENJA V0201601N008019999999N9999999N1+00191+00061100181ADDMA1999999100061MD1810111+9999REMSYN060AAXX  16111 01001 46/// /1608 10019 20006 30006 40018 58011;
0227010010999992013011612004+70933-008667FM-12+0009ENJA V0201601N010010240019N0250001N1+00201+00071100131ADDAA106000091AY121061AY221061GF108991031071004501021999MA1999999100011MD1810131+9999MW1021SA1+0059REMSYN100AAXX  16121 01001 11475 81610 10020 20007 30001 40013 58013 60001 70222 8372/ 222// 00005 333 91112;EQDQ01  00002PRCP06
0101010010999992013011613004+70933-008667FM-12+0009ENJA V0201601N009019999999N9999999N1+00211+00081100071ADDMA1999999099951MD1710181+9999REMSYN060AAXX  16131 01001 46/// /1609 10021 20008 39995 40007 57018;
0101010010999992013011614004+70933-008667FM-12+0009ENJA V0201601N010019999999N9999999N1+00211+00081099981ADDMA1999999099861MD1810191+9999REMSYN060AAXX  16141 01001 46/// /1610 10021 20008 39986 49998 58019;
0161010010999992013011615004+70933-008667FM-12+0009ENJA V0201501N010010042019N0200001N1+00211+00071099871ADDAY161031AY221031GF108991081061004501999999MA1999999099751MD1810261+9999MW1601REMSYN072AAXX  16151 01001 41470 81510 10021 20007 39975 49987 58026 76062 886//;
0101010010999992013011616004+70933-008667FM-12+0009ENJA V0201601N013019999999N9999999N1+00161+00051099731ADDMA1999999099611MD1810341+9999REMSYN060AAXX  16161 01001 46/// /1613 10016 20005 39961 49973 58034;
0101010010999992013011617004+70933-008667FM-12+0009ENJA V0201601N012019999999N9999999N1+00171+00071099611ADDMA1999999099491MD1810371+9999REMSYN060AAXX  16171 01001 46/// /1612 10017 20007 39949 49961 58037;
0207010010999992013011618004+70933-008667FM-12+0009ENJA V0201601N011010012019N0040001N1+00141+00071099531ADDAA112001091AY171061AY261061GF108991081071001501999999KA1120M+00221MA1999999099411MD1610341+9999MW1691REMSYN094AAXX  16181 01001 11240 81611 10014 20007 39941 49953 56034 60012 76976 887// 333 10022 91117;
0101010010999992013011619004+70933-008667FM-12+0009ENJA V0201701N008019999999N9999999N1+00161+00121099481ADDMA1999999099361MD1610251+9999REMSYN060AAXX  16191 01001 46/// /1708 10016 20012 39936 49948 56025;
0101010010999992013011620004+70933-008667FM-12+0009ENJA V0201901N007019999999N9999999N1+00131+00091099491ADDMA1999999099371MD1610111+9999REMSYN060AAXX  16201 01001 46/// /1907 10013 20009 39937 49949 56011;
0101010010999992013011621004+70933-008667FM-12+0009ENJA V0202001N010019999999N9999999N1+00111+00081099511ADDMA1999999099391MD1510021+9999REMSYN060AAXX  16211 01001 46/// /2010 10011 20008 39939 49951 55002;
0101010010999992013011622004+70933-008667FM-12+0009ENJA V0202001N008019999999N9999999N1+00061+00031099531ADDMA1999999099411MD1310051+9999REMSYN060AAXX  16221 01001 46/// /2008 10006 20003 39941 49953 53005;
0101010010999992013011623004+70933-008667FM-12+0009ENJA V0202101N009019999999N9999999N1+00041+00011099551ADDMA1999999099431MD1210061+9999REMSYN060AAXX  16231 01001 46/// /2109 10004 20001 39943 49955 52006;
0188010010999992013011700004+70933-008667FM-12+0009ENJA V0202001N009010012019N0050001N1+00001-00031099581ADDAA106000591AY171061AY261061GF108991081061001501999999MA1999999099461MD1310081+9999MW1611REMSYN088AAXX  17001 01001 11250 82009 10000 21003 39946 49958 53008 69941 76176 886// 333 91113;
0101010010999992013011701004+70933-008667FM-12+0009ENJA V0202101N009019999999N9999999N1-00011-00041099581ADDMA1999999099461MD1210051+9999REMSYN060AAXX  17011 01001 46/// /2109 11001 21004 39946 49958 52005;
0101010010999992013011702004+70933-008667FM-12+0009ENJA V0202101N007019999999N9999999N1-00021-00061099591ADDMA1999999099471MD1210051+9999REMSYN060AAXX  17021 01001 46/// /2107 11002 21006 39947 49959 52005;
0101010010999992013011703004+70933-008667FM-12+0009ENJA V0202101N008019999999N9999999N1-00031-00071099581ADDMA1999999099461MD1410001+9999REMSYN060AAXX  17031 01001 46/// /2108 11003 21007 39946 49958 54000;
0101010010999992013011704004+70933-008667FM-12+0009ENJA V0202001N006019999999N9999999N1-00021-00061099591ADDMA1999999099471MD1010011+9999REMSYN060AAXX  17041 01001 46/// /2006 11002 21006 39947 49959 50001;
0101010010999992013011705004+70933-008667FM-12+0009ENJA V0202101N005019999999N9999999N1-00021-00061099611ADDMA1999999099491MD1210021+9999REMSYN060AAXX  17051 01001 46/// /2105 11002 21006 39949 49961 52002;
0272010010999992013011706004+70933-008667FM-12+0009ENJA V0202001N005010012019N0080001N1+00001-00051099581ADDAA112000591AA224001591AJ199991999999999AY161061AY221061GF108991081061001501999999IA1309KA1999N-00041MA1999999099461MD1010011+9999MW1101REMSYN106AAXX  17061 01001 11258 82005 10000 21005 39946 49958 50001 69952 71062 886// 333 21004 42999 70015 91112;EQDQ01  09962SNDP  
0101010010999992013011707004+70933-008667FM-12+0009ENJA V0202001N005019999999N9999999N1+00001-00061099521ADDMA1999999099401MD1810071+9999REMSYN060AAXX  17071 01001 46/// /2005 10000 21006 39940 49952 58007;
0101010010999992013011708004+70933-008667FM-12+0009ENJA V0202001N005019999999N9999999N1-00011-00081099521ADDMA1999999099401MD1610091+9999REMSYN060AAXX  17081 01001 46/// /2005 11001 21008 39940 49952 56009;
0161010010999992013011709004+70933-008667FM-12+0009ENJA V0201701N002010021019N0200001N1-00021-00111099561ADDAY121031AY221031GF108991081061002501999999MA1999999099441MD1510011+9999MW1021REMSYN072AAXX  17091 01001 41370 81702 11002 21011 39944 49956 55001 70222 886//;
0101010010999992013011710004+70933-008667FM-12+0009ENJA V0200601N001019999999N9999999N1-00021-00111099601ADDMA1999999099481MD1310081+9999REMSYN060AAXX  17101 01001 46/// /0601 11002 21011 39948 49960 53008;
0101010010999992013011711004+70933-008667FM-12+0009ENJA V0202201N003019999999N9999999N1-00041-00141099671ADDMA1999999099551MD1310151+9999REMSYN060AAXX  17111 01001 46/// /2203 11004 21014 39955 49967 53015;
0208010010999992013011712004+70933-008667FM-12+0009ENJA V0202301N008010021019N0150001N1-00101-00231099721ADDAA106000021AY171061AY221061GF108991061061002501021999MA1999999099601MD1210161+9999MW1711SA1+0059REMSYN100AAXX  17121 01001 11365 82308 11010 21023 39960 49972 52016 69911 77172 8662/ 222// 00005 333 91113;
0101010010999992013011713004+70933-008667FM-12+0009ENJA V0202301N009019999999N9999999N1-00151-00251099791ADDMA1999999099671MD1310191+9999REMSYN060AAXX  17131 01001 46/// /2309 11015 21025 39967 49979 53019;
0101010010999992013011714004+70933-008667FM-12+0009ENJA V0202401N006019999999N9999999N1-00181-00271099871ADDMA1999999099751MD1310201+9999REMSYN060AAXX  17141 01001 46/// /2406 11018 21027 39975 49987 53020;
0161010010999992013011715004+70933-008667FM-12+0009ENJA V0202601N005010060019N0150001N1-00181-00331099931ADDAY171031AY221031GF107991061081002501061081MA1999999099811MD1210221+9999MW1711REMSYN072AAXX  17151 01001 41365 72605 11018 21033 39981 49993 52022 77172 86868;
0101010010999992013011716004+70933-008667FM-12+0009ENJA V0202401N003019999999N9999999N1-00201-00371099991ADDMA1999999099871MD1210191+9999REMSYN060AAXX  17161 01001 46/// /2403 11020 21037 39987 49999 52019;
0101010010999992013011717004+70933-008667FM-12+0009ENJA V0202201N004019999999N9999999N1-00191-00351100051ADDMA1999999099931MD1310181+9999REMSYN060AAXX  17171 01001 46/// /2204 11019 21035 39993 40005 53018;
0207010010999992013011718004+70933-008667FM-12+0009ENJA V0202401N004010090019N0080001N1-00221-00371100131ADDAA112000021AY181061AY271061GF108991061081004501001071KA1120M+00011MA1999999100011MD1310191+9999MW1851REMSYN094AAXX  17181 01001 11458 82404 11022 21037 30001 40013 53019 69912 78587 86807 333 10001 91115;
0101010010999992013011719004+70933-008667FM-12+0009ENJA V0202701N008019999999N9999999N1-00231-00381100111ADDMA1999999099991MD1010121+9999REMSYN060AAXX  17191 01001 46/// /2708 11023 21038 39999 40011 50012;
0101010010999992013011720004+70933-008667FM-12+0009ENJA V0202901N004019999999N9999999N1-00221-00391100201ADDMA1999999100081MD1310151+9999REMSYN060AAXX  17201 01001 46/// /2904 11022 21039 30008 40020 53015;
0101010010999992013011721004+70933-008667FM-12+0009ENJA V0202301N003019999999N9999999N1-00201-00401100301ADDMA1999999100181MD1310181+9999REMSYN060AAXX  17211 01001 46/// /2303 11020 21040 30018 40030 53018;
0101010010999992013011722004+70933-008667FM-12+0009ENJA V0202801N007019999999N9999999N1-00221-00411100281ADDMA1999999100161MD1010171+9999REMSYN060AAXX  17221 01001 46/// /2807 11022 21041 30016 40028 50017;
0101010010999992013011723004+70933-008667FM-12+0009ENJA V0202701N005019999999N9999999N1-00231-00441100331ADDMA1999999100211MD1110131+9999REMSYN060AAXX  17231 01001 46/// /2705 11023 21044 30021 40033 51013;
0188010010999992013011800004+70933-008667FM-12+0009ENJA V0202701N003010240019N0150001N1-00241-00431100381ADDAA106000021AY181061AY221061GF108991021081004501011999MA1999999100261MD1310081+9999MW1021REMSYN088AAXX  18001 01001 11465 82703 11024 21043 30026 40038 53008 69901 70282 8281/ 333 91114;
0101010010999992013011801004+70933-008667FM-12+0009ENJA V0203601N003019999999N9999999N1-00241-00451100401ADDMA1999999100281MD1110111+9999REMSYN060AAXX  18011 01001 46/// /3603 11024 21045 30028 40040 51011;
0101010010999992013011802004+70933-008667FM-12+0009ENJA V0203001N006019999999N9999999N1-00241-00411100381ADDMA1999999100261MD1010051+9999REMSYN060AAXX  18021 01001 46/// /3006 11024 21041 30026 40038 50005;
0101010010999992013011803004+70933-008667FM-12+0009ENJA V0203101N005019999999N9999999N1-00271-00441100451ADDMA1999999100331MD1310081+9999REMSYN060AAXX  18031 01001 46/// /3105 11027 21044 30033 40045 53008;
0101010010999992013011804004+70933-008667FM-12+0009ENJA V0203201N006019999999N9999999N1-00301-00461100481ADDMA1999999100361MD1310091+9999REMSYN060AAXX  18041 01001 46/// /3206 11030 21046 30036 40048 53009;
0101010010999992013011805004+70933-008667FM-12+0009ENJA V0203201N006019999999N9999999N1-00291-00421100451ADDMA1999999100331MD1010071+9999REMSYN060AAXX  18051 01001 46/// /3206 11029 21042 30033 40045 50007;
0136010010999992013011806004+70933-008667FM-12+0009ENJA V0203601N005019999999N9999999N1-00311-00441100521ADDKA1999N-00311MA1999999100401MD1310071+9999REMSYN082AAXX  18061 01001 16/// /3605 11031 21044 30040 40052 53007 6//// 333 21031 91112;
0101010010999992013011807004+70933-008667FM-12+0009ENJA V0203601N002019999999N9999999N1-00231-00351100551ADDMA1999999100431MD1310071+9999REMSYN060AAXX  18071 01001 46/// /3602 11023 21035 30043 40055 53007;
0101010010999992013011808004+70933-008667FM-12+0009ENJA V0203101N002019999999N9999999N1-00201-00311100591ADDMA1999999100471MD1110141+9999REMSYN060AAXX  18081 01001 46/// /3102 11020 21031 30047 40059 51014;
0161010010999992013011809004+70933-008667FM-12+0009ENJA V0201101N002010042019N0050001N1-00141-00241100631ADDAY171031AY221031GF108991081071004501999999MA1999999100511MD1310111+9999MW1711REMSYN072AAXX  18091 01001 41450 81102 11014 21024 30051 40063 53011 77172 887//;
0101010010999992013011810004+70933-008667FM-12+0009ENJA V0201501N002019999999N9999999N1-00111-00181100661ADDMA1999999100541MD1210101+9999REMSYN060AAXX  18101 01001 46/// /1502 11011 21018 30054 40066 52010;
0101010010999992013011811004+70933-008667FM-12+0009ENJA V0201801N001019999999N9999999N1-00091-00161100681ADDMA1999999100561MD1210091+9999REMSYN060AAXX  18111 01001 46/// /1801 11009 21016 30056 40068 52009;
0208010010999992013011812004+70933-008667FM-12+0009ENJA V0201301N002010012019N0030001N1-00071-00131100741ADDAA106000591AY171061AY221061GF108991071071001501999999MA1999999100621MD1310111+9999MW1701SA1+0049REMSYN100AAXX  18121 01001 11230 81302 11007 21013 30062 40074 53011 69941 77072 877// 222// 00004 333 91106;
0101010010999992013011813004+70933-008667FM-12+0009ENJA V0201801N001019999999N9999999N1-00071-00121100771ADDMA1999999100651MD1210111+9999REMSYN060AAXX  18131 01001 46/// /1801 11007 21012 30065 40077 52011;
0101010010999992013011814004+70933-008667FM-12+0009ENJA V0201701N001019999999N9999999N1-00061-00111100801ADDMA1999999100681MD1110121+9999REMSYN060AAXX  18141 01001 46/// /1701 11006 21011 30068 40080 51012;
0161010010999992013011815004+70933-008667FM-12+0009ENJA V0201601N001010003019N0025001N1-00061-00111100851ADDAY171031AY221031GF108991081061000251999999MA1999999100731MD1210111+9999MW1771REMSYN072AAXX  18151 01001 41025 81601 11006 21011 30073 40085 52011 77772 886//;
0101010010999992013011816004+70933-008667FM-12+0009ENJA V0209999C000019999999N9999999N1-00061-00101100861ADDMA1999999100741MD1210091+9999REMSYN060AAXX  18161 01001 46/// /0000 11006 21010 30074 40086 52009;
0101010010999992013011817004+70933-008667FM-12+0009ENJA V0202201N002019999999N9999999N1-00041-00081100921ADDMA1999999100801MD1310121+9999REMSYN060AAXX  18171 01001 46/// /2202 11004 21008 30080 40092 53012;
0207010010999992013011818004+70933-008667FM-12+0009ENJA V0202401N002010021019N0030001N1-00031-00071100991ADDAA112001091AY171061AY251061GF108991081061002501999999KA1120M-00031MA1999999100871MD1310141+9999MW1561REMSYN094AAXX  18181 01001 11330 82402 11003 21007 30087 40099 53014 60012 75675 886// 333 11003 91103;
0101010010999992013011819004+70933-008667FM-12+0009ENJA V0202201N002019999999N9999999N1-00021-00061101061ADDMA1999999100941MD1210201+9999REMSYN060AAXX  18191 01001 46/// /2202 11002 21006 30094 40106 52020;
0101010010999992013011820004+70933-008667FM-12+0009ENJA V0202401N001019999999N9999999N1-00011-00051101111ADDMA1999999100991MD1210191+9999REMSYN060AAXX  18201 01001 46/// /2401 11001 21005 30099 40111 52019;
0101010010999992013011821004+70933-008667FM-12+0009ENJA V0202601N001019999999N9999999N1+00021-00021101121ADDMA1999999101001MD1110131+9999REMSYN060AAXX  18211 01001 46/// /2601 10002 21002 30100 40112 51013;
0101010010999992013011822004+70933-008667FM-12+0009ENJA V0202201N002019999999N9999999N1+00041-00011101171ADDMA1999999101051MD1310111+9999REMSYN060AAXX  18221 01001 46/// /2202 10004 21001 30105 40117 53011;
0101010010999992013011823004+70933-008667FM-12+0009ENJA V0202001N002019999999N9999999N1+00061+00011101211ADDMA1999999101091MD1310101+9999REMSYN060AAXX  18231 01001 46/// /2002 10006 20001 30109 40121 53010;
0188010010999992013011900004+70933-008667FM-12+0009ENJA V0200501N001010021019N0025001N1+00051+00001101231ADDAA106000021AY151061AY221061GF108991081051002501999999MA1999999101111MD1210111+9999MW1101REMSYN088AAXX  19001 01001 11325 80501 10005 20000 30111 40123 52011 69901 71052 885// 333 91104;
0101010010999992013011901004+70933-008667FM-12+0009ENJA V0202301N002019999999N9999999N1+00091+00041101281ADDMA1999999101161MD1310111+9999REMSYN060AAXX  19011 01001 46/// /2302 10009 20004 30116 40128 53011;
0101010010999992013011902004+70933-008667FM-12+0009ENJA V0202201N002019999999N9999999N1+00121+00071101291ADDMA1999999101171MD1310071+9999REMSYN060AAXX  19021 01001 46/// /2202 10012 20007 30117 40129 53007;
0101010010999992013011903004+70933-008667FM-12+0009ENJA V0202101N001019999999N9999999N1+00111+00061101321ADDMA1999999101201MD1110091+9999REMSYN060AAXX  19031 01001 46/// /2101 10011 20006 30120 40132 51009;
0101010010999992013011904004+70933-008667FM-12+0009ENJA V0202301N002019999999N9999999N1+00131+00081101341ADDMA1999999101221MD1310061+9999REMSYN060AAXX  19041 01001 46/// /2302 10013 20008 30122 40134 53006;
0101010010999992013011905004+70933-008667FM-12+0009ENJA V0202101N002019999999N9999999N1+00141+00091101351ADDMA1999999101231MD1210061+9999REMSYN060AAXX  19051 01001 46/// /2102 10014 20009 30123 40135 52006;
0272010010999992013011906004+70933-008667FM-12+0009ENJA V0202201N002010012019N0020001N1+00161+00111101371ADDAA112000021AA224001391AJ199991999999999AY151061AY221061GF108991081061001501999999IA1289KA1999N-00031MA1999999101251MD1210051+9999MW1501REMSYN106AAXX  19061 01001 11220 82202 10016 20011 30125 40137 52005 69912 75052 886// 333 21003 44999 70012 91104;EQDQ01  09962SNDP  
0101010010999992013011907004+70933-008667FM-12+0009ENJA V0202101N001019999999N9999999N1+00131+00081101401ADDMA1999999101281MD1310061+9999REMSYN060AAXX  19071 01001 46/// /2101 10013 20008 30128 40140 53006;
0101010010999992013011908004+70933-008667FM-12+0009ENJA V0209999C000019999999N9999999N1+00131+00081101441ADDMA1999999101321MD1210091+9999REMSYN060AAXX  19081 01001 46/// /0000 10013 20008 30132 40144 52009;
0075010010999992013011909004+70933-008667FM-12+0009ENJA V02099999999999999999N9999999N1+00101+00051999999REMSYN066AAXX  19091 01001 41X01 91601 10010 20005 30137 40149 53012 76265;
0101010010999992013011910004+70933-008667FM-12+0009ENJA V0202001N002019999999N9999999N1+00111+00071101531ADDMA1999999101411MD1310131+9999REMSYN060AAXX  19101 01001 46/// /2002 10011 20007 30141 40153 53013;
0101010010999992013011911004+70933-008667FM-12+0009ENJA V0202001N001019999999N9999999N1+00101+00061101551ADDMA1999999101431MD1210111+9999REMSYN060AAXX  19111 01001 46/// /2001 10010 20006 30143 40155 52011;
0114010010999992013011912004+70933-008667FM-12+0009ENJA V02099999999999999999N9999999N1+00101+00061999999ADDSA1+0059REMSYN094AAXX  19121 01001 11X01 90401 10010 20006 30143 40155 52006 69951 74565 222// 00005 333 91103;
0101010010999992013011913004+70933-008667FM-12+0009ENJA V0200701N001019999999N9999999N1+00091+00051101571ADDMA1999999101451MD1210041+9999REMSYN060AAXX  19131 01001 46/// /0701 10009 20005 30145 40157 52004;
