0140010030999992013010900004+77000+015500FM-12+001299999V0200701N002012200019N0400001N1-00721-01161101201ADDAY101061AY201061GF101991011051008001001001MD1210211+9999MW1021REMSYN066AAXX  09001 01003 31582 10702 11072 21116 40120 52021 70200 81500;
0140010030999992013010903004+77000+015500FM-12+001299999V0203001N002012200019N0400001N1-00801-01241101401ADDAY101031AY201031GF101991011051008001001001MD1110201+9999MW1021REMSYN066AAXX  09031 01003 41582 13002 11080 21124 40140 51020 70200 81500;
0192010030999992013010906004+77000+015500FM-12+001299999V0200601N004010042019N0150001N1-00851-01171101551ADDAJ100049199999999AY111061AY211061GF108991081051004501999999IA1229KA1999N-00951MD1310151+9999MW1031REMSYN082AAXX  09061 01003 31465 80604 11085 21117 40155 53015 70311 885// 333 21095 46004;
0140010030999992013010909004+77000+015500FM-12+001299999V0200801N006010042019N0300001N1-00571-00901101641ADDAY121031AY221031GF107991061051004501031001MD1210091+9999MW1011REMSYN066AAXX  09091 01003 41480 70806 11057 21090 40164 52009 70122 86530;
0176010030999992013010912004+77000+015500FM-12+001299999V0203001N010010042019N0400001N1-00381-00831101681ADDAA106000091AY121061AY221061GF106991051051004501031001MD1110041+9999MW1011REMSYN072AAXX  09121 01003 31482 63010 11038 21083 40168 51004 60001 70122 85530;EQDQ01  00002PRCP06
0140010030999992013010915004+77000+015500FM-12+001299999V0202901N008010042019N0300001N1-00291-00701101671ADDAY121031AY221031GF107991051051004501031001MD1710011+9999MW1031REMSYN066AAXX  09151 01003 41480 72908 11029 21070 40167 57001 70322 85530;
0169010030999992013010918004+77000+015500FM-12+001299999V0202901N017010042019N0200001N1-00101-00561101571ADDAY121061AY221061GF108991081051004501999999KA1120M-00091MD1610101+9999MW1031REMSYN082AAXX  09181 01003 31470 82917 11010 21056 40157 56010 70322 885// 333 11009 91127;
0140010030999992013010921004+77000+015500FM-12+001299999V0202801N016010042019N0200001N1-00031-00391101531ADDAY121031AY221031GF108991081051004501999999MD1810041+9999MW1201REMSYN066AAXX  09211 01003 41470 82816 11003 21039 40153 58004 72022 885//;
0157010030999992013011000004+77000+015500FM-12+001299999V0202801N017010012019N0060001N1-00041-00141101501ADDAA106000021AY131061AY221061GF108991051071001501021999MD1510031+9999MW1731REMSYN072AAXX  10001 01003 11256 82817 11004 21014 40150 55003 69921 77332 8572/;
0140010030999992013011003004+77000+015500FM-12+001299999V0202901N017010240019N0070001N1+00111-00051101451ADDAY171031AY231031GF108991041071001501021999MD1510051+9999MW1711REMSYN066AAXX  10031 01003 41257 82917 10011 21005 40145 55005 77173 8472/;
0215010030999992013011006004+77000+015500FM-12+001299999V0202901N017010021019N0120001N1+00121-00101101411ADDAA112000391AJ100049199999999AY171061AY231061GF108991071051002501999999IA1229KA1999N-00101MD1510041+9999MW1701REMSYN094AAXX  10061 01003 11362 82917 10012 21010 40141 55004 69932 77073 875// 333 21010 46004 91131;
0140010030999992013011009004+77000+015500FM-12+001299999V0202801N017010042019N0150001N1+00141-00181101351ADDAY171031AY231031GF108991071051004501999999MD1610061+9999MW1011REMSYN066AAXX  10091 01003 41465 82817 10014 21018 40135 56006 70173 875//;
0167010030999992013011012004+77000+015500FM-12+001299999V0202801N017010012019N0015001N1+00041-00061101171ADDAA106000021AY131061AY221061GF108991081061001501999999MD1710181+9999MW1771REMSYN082AAXX  10121 01003 11215 82817 10004 21006 40117 57018 69901 77732 886// 333 91131;
0186010030999992013011018004+77000+015500FM-12+001299999V0202701N014010240019N0050001N1-00011-00051100811ADDAA112000891AY171061AY231061GF108991021071001501021999KA1120M+00161MD1710171+9999MW1711REMSYN088AAXX  10181 01003 11250 82714 11001 21005 40081 57017 69982 77173 8272/ 333 10016 91127;
0140010030999992013011021004+77000+015500FM-12+001299999V0202601N010010240019N0040001N1-00011-00031100421ADDAY171031AY271031GF108991041071001501021999MD1710391+9999MW1711REMSYN066AAXX  10211 01003 41240 82610 11001 21003 40042 57039 77177 8472/;
0167010030999992013011100004+77000+015500FM-12+001299999V0202701N023010240019N0030001N1+00161+00101100001ADDAA106002091AY171061AY221061GF108991041071000751021999MD1810411+9999MW1611REMSYN082AAXX  11001 01003 11130 82723 10016 20010 40000 58041 60021 76172 8472/ 333 91139;
0140010030999992013011103004+77000+015500FM-12+001299999V0202801N023010006019N0030001N1+00071-00011099921ADDAY171031AY261031GF108991051071000751021999MD1610081+9999MW1711REMSYN066AAXX  11031 01003 41130 82823 10007 21001 49992 56008 77176 8572/;
0150010030999992013011112004+77000+015500FM-12+001299999V0202901N021012200019N0300001N1-00101-00501100071ADDAY111061AY211061GF103991031051004501031001MD1210071+9999MW1011REMSYN076AAXX  11121 01003 31480 32921 11010 21050 40007 52007 70111 83530 333 91135;
0186010030999992013011400004+77000+015500FM-12+001299999V0200601N008012200019N0500001N1-01211-01931102091ADDAA106000091AY101061AY201061GA1001+999999999GF100991001001999999001001MD1310041+9999MW1021REMSYN066AAXX  14001 01003 31984 00608 11121 21193 40209 53004 60001 70200;EQDQ01  00002PRCP06
0150010030999992013011403004+77000+015500FM-12+001299999V0200701N008012200019N0500001N1-01031-01451102091ADDAY101031AY201031GA1001+999999999GF100991001001999999001001MD1410001+9999MW1021REMSYN060AAXX  14031 01003 41984 00708 11103 21145 40209 54000 70200;
0228010030999992013011406004+77000+015500FM-12+001299999V0200401N008012200019N0300001N1-00991-01831102121ADDAA112000091AJ100049199999999AY101061AY201061GF101991011051008001001001IA1249KA1999N-01391MD1110031+9999MW1031REMSYN088AAXX  14061 01003 31580 10408 11099 21183 40212 51003 60002 70300 81500 333 21139 48004;EQDQ01  00002PRCP12
0140010030999992013011409004+77000+015500FM-12+001299999V0200701N006012200019N0500001N1-00991-01611102261ADDAY101031AY201031GF101991011051008001001001MD1310141+9999MW1021REMSYN066AAXX  14091 01003 41584 10706 11099 21161 40226 53014 70200 81500;
0176010030999992013011412004+77000+015500FM-12+001299999V0200401N008012200019N0500001N1-00961-01761102301ADDAA106000091AY101061AY201061GF101991011051008001041001MD1310041+9999MW1021REMSYN072AAXX  14121 01003 31584 10408 11096 21176 40230 53004 60001 70200 81540;EQDQ01  00002PRCP06
0140010030999992013011415004+77000+015500FM-12+001299999V0200501N006012200019N0500001N1-01001-01661102361ADDAY101031AY201031GF102991021051008001001001MD1310061+9999MW1031REMSYN066AAXX  14151 01003 41584 20506 11100 21166 40236 53006 70300 82500;
0199010030999992013011418004+77000+015500FM-12+001299999V0200801N008012200019N0500001N1-00991-01411102371ADDAA112000091AY101061AY201061GF101991011051008001001001KA1999M-00831MD1310011+9999MW1011REMSYN082AAXX  14181 01003 31584 10808 11099 21141 40237 53001 60002 70100 81500 333 11083;EQDQ01  00002PRCP12
0140010030999992013011421004+77000+015500FM-12+001299999V0200701N008012200019N0500001N1-01021-01391102341ADDAY101031AY201031GF101991011051008001001001MD1610031+9999MW1021REMSYN066AAXX  14211 01003 41584 10708 11102 21139 40234 56003 70200 81500;
0140010030999992013011500004+77000+015500FM-12+001299999V0200701N010012200019N0400001N1-01061-01371102291ADDAY101061AY201061GF101991011051008001001001MD1610051+9999MW1021REMSYN066AAXX  15001 01003 31582 10710 11106 21137 40229 56005 70200 81500;
0140010030999992013011503004+77000+015500FM-12+001299999V0200801N010012200019N0400001N1-01021-01291102221ADDAY101031AY201031GF101991011051008001001001MD1810071+9999MW1021REMSYN066AAXX  15031 01003 41582 10810 11102 21129 40222 58007 70200 81500;
0192010030999992013011506004+77000+015500FM-12+001299999V0200801N010012200019N0400001N1-00991-01321102121ADDAJ100049199999999AY101061AY201061GF101991011051008001001001IA1249KA1999N-01171MD1710101+9999MW1021REMSYN082AAXX  15061 01003 31582 10810 11099 21132 40212 57010 70200 81500 333 21117 48004;
0140010030999992013011509004+77000+015500FM-12+001299999V0200801N012012200019N0500001N1-00841-01241102011ADDAY101031AY201031GF102991021051012501031001MD1810111+9999MW1031REMSYN066AAXX  15091 01003 41684 20812 11084 21124 40201 58011 70300 82530;
0176010030999992013011512004+77000+015500FM-12+001299999V0200701N012012200019N0500001N1-00811-01141101921ADDAA106000091AY101061AY201061GF102991021051008001041011MD1710091+9999MW1031REMSYN072AAXX  15121 01003 31584 20712 11081 21114 40192 57009 60001 70300 82541;EQDQ01  00002PRCP06
0140010030999992013011515004+77000+015500FM-12+001299999V0200901N014012200019N0400001N1-00631-00911101711ADDAY101031AY201031GF102991021051008001031001MD1710211+9999MW1021REMSYN066AAXX  15151 01003 41582 20914 11063 21091 40171 57021 70200 82530;
0163010030999992013011518004+77000+015500FM-12+001299999V0200901N016010042019N0250001N1-00421-00851101441ADDAY111061AY211061GF108991071051004501031999KA1999M-00421MD1710271+9999MW1031REMSYN076AAXX  15181 01003 31475 80916 11042 21085 40144 57027 70311 8753/ 333 11042;
0140010030999992013011521004+77000+015500FM-12+001299999V0200801N016010075019N0150001N1-00281-00611101091ADDAY171031AY221031GF108991081051008001999999MD1810351+9999MW1361REMSYN066AAXX  15211 01003 41565 80816 11028 21061 40109 58035 73672 885//;
0167010030999992013011600004+77000+015500FM-12+001299999V0200801N017010021019N0005001N1-00241-00331100751ADDAA106000021AY131061AY221061GF108991071061002501999999MD1810341+9999MW1731REMSYN082AAXX  16001 01003 11305 80817 11024 21033 40075 58034 69911 77332 876// 333 91129;
0140010030999992013011603004+77000+015500FM-12+001299999V0200701N010010012019N0080001N1-00121-00191100431ADDAY171031AY231031GF108991081051001501999999MD1610321+9999MW1731REMSYN066AAXX  16031 01003 41258 80710 11012 21019 40043 56032 77373 885//;
0215010030999992013011606004+77000+015500FM-12+001299999V0202801N017010012019N0030001N1-00141-00181100321ADDAA112003091AJ100119199999999AY171061AY231061GF108991081051001501999999IA1249KA1999N-00421MD1610111+9999MW1711REMSYN094AAXX  16061 01003 11230 82817 11014 21018 40032 56011 60032 77173 885// 333 21042 48011 91129;
0140010030999992013011609004+77000+015500FM-12+001299999V0202801N016010075019N0200001N1-00361-00641100411ADDAY171031AY221031GF108991071051008001999999MD1310091+9999MW1011REMSYN066AAXX  16091 01003 41570 82816 11036 21064 40041 53009 70172 875//;
0157010030999992013011612004+77000+015500FM-12+001299999V0202801N017010042019N0170001N1-00531-00821100441ADDAA106000021AY171061AY221061GF108991071051004501999999MD1010031+9999MW1361REMSYN072AAXX  16121 01003 11467 82817 11053 21082 40044 50003 69901 73672 875//;
0140010030999992013011615004+77000+015500FM-12+001299999V0202901N012010042019N0150001N1-00611-01061100461ADDAY131031AY221031GF108991081051004501999999MD1110021+9999MW1701REMSYN066AAXX  16151 01003 41465 82912 11061 21106 40046 51002 77032 885//;
0180010030999992013011618004+77000+015500FM-12+001299999V0203201N008010042019N0200001N1-00631-01101100491ADDAA112000021AY171061AY231061GF107991061051004501011999KA1999M-00131MD1310031+9999MW1011REMSYN082AAXX  16181 01003 11470 73208 11063 21110 40049 53003 69902 70173 8651/ 333 11013;
0140010030999992013011700004+77000+015500FM-12+001299999V0200401N004010042019N0150001N1-00611-01041100431ADDAY121061AY221061GF108991081051004501999999MD1610071+9999MW1021REMSYN066AAXX  17001 01003 31465 80404 11061 21104 40043 56007 70222 885//;
0140010030999992013011703004+77000+015500FM-12+001299999V0203201N004010042019N0150001N1-00541-01111100361ADDAY121031AY221031GF107991071051004501999999MD1710071+9999MW1011REMSYN066AAXX  17031 01003 41465 73204 11054 21111 40036 57007 70122 875//;
0192010030999992013011706004+77000+015500FM-12+001299999V0203401N004012200019N0250001N1-00721-01221100241ADDAJ100109199999999AY111061AY211061GF102991021051004501001001IA1249KA1999N-00751MD1710121+9999MW1011REMSYN082AAXX  17061 01003 31475 23404 11072 21122 40024 57012 70111 82500 333 21075 48010;
0140010030999992013011709004+77000+015500FM-12+001299999V0200401N002010042019N0250001N1-00631-01101100181ADDAY111031AY211031GF107991071051004501999999MD1610061+9999MW1031REMSYN066AAXX  17091 01003 41475 70402 11063 21110 40018 56006 70311 875//;
0176010030999992013011712004+77000+015500FM-12+001299999V0200701N006010075019N0400001N1-00591-01251100111ADDAA106000091AY111061AY211061GF108991081051008001999999MD1710071+9999MW1031REMSYN072AAXX  17121 01003 31582 80706 11059 21125 40011 57007 60001 70311 885//;EQDQ01  00002PRCP06
0140010030999992013011715004+77000+015500FM-12+001299999V0200801N010010075019N0300001N1-00571-01231099961ADDAY121031AY221031GF108991081051008001999999MD1710151+9999MW1021REMSYN066AAXX  17151 01003 41580 80810 11057 21123 49996 57015 70222 885//;
0180010030999992013011718004+77000+015500FM-12+001299999V0200601N010010042019N0200001N1-00591-01111099881ADDAA112000021AY121061AY221061GF108991081051004501999999KA1999M-00551MD1710081+9999MW1701REMSYN082AAXX  17181 01003 11470 80610 11059 21111 49988 57008 69902 77022 885// 333 11055;
0209010030999992013011806004+77000+015500FM-12+001299999V0203301N002012200019N0400001N1-00571-01011099961ADDAA112000021AJ100109199999999AY111061AY211061GF101991011051008001001001IA1249KA1999N-00901MD1210101+9999MW1021REMSYN088AAXX  18061 01003 11582 13302 11057 21101 49996 52010 69902 70211 81500 333 21090 48010;
0140010030999992013011809004+77000+015500FM-12+001299999V0200601N017012200019N0350001N1-00431-00941100221ADDAY111031AY211031GF103991031051008001001001MD1210261+9999MW1221REMSYN066AAXX  18091 01003 41581 30617 11043 21094 40022 52026 72211 83500;
0188010030999992013011812004+77000+015500FM-12+001299999V0200501N010012200019N0350001N1-00631-01291100501ADDAA106000021AY171061AY201061GF101991011051008001001001MA1999999100371MD1110281+9999MW1011REMSYN088AAXX  18121 01003 11581 10510 11063 21129 30037 40050 51028 69901 70170 81500 333 91129;
0161010030999992013011815004+77000+015500FM-12+001299999V0200801N010012200019N0300001N1-00841-01341100641ADDAY101031AY201031GF101991011051008001001001MA1999999100511MD1110141+9999MW1011REMSYN072AAXX  18151 01003 41580 10810 11084 21134 30051 40064 51014 70100 81500;
0201010030999992013011818004+77000+015500FM-12+001299999V0200401N012012200019N0300001N1-00701-01781100831ADDAA112000021AY101061AY201061GF101991011051008001001001KA1999M-00361MA1999999100701MD1110191+9999MW1021REMSYN088AAXX  18181 01003 11580 10412 11070 21178 30070 40083 51019 69902 70200 81500 333 11036;
0161010030999992013011821004+77000+015500FM-12+001299999V0200501N012012200019N0350001N1-00541-01171101061ADDAY101031AY201031GF103991031051008001001001MA1999999100931MD1310231+9999MW1031REMSYN072AAXX  18211 01003 41581 30512 11054 21117 30093 40106 53023 70300 83500;
0207010030999992013011900004+77000+015500FM-12+001299999V0200601N010012200019N0300001N1-00611-01091101291ADDAA106000091AY101061AY201061GF101991011051008001041001MA1999999101161MD1110231+9999MW1011REMSYN088AAXX  19001 01003 31580 10610 11061 21109 30116 40129 51023 60001 70100 81540 333 91110;EQDQ01  00002PRCP06
0140010030999992013011903004+77000+015500FM-12+001299999V0200601N010012200019N0300001N1-00591-01151101481ADDAY101031AY201031GF101991011051008001001001MD1110191+9999MW1021REMSYN066AAXX  19031 01003 41580 10610 11059 21115 40148 51019 70200 81500;
0198010030999992013011906004+77000+015500FM-12+001299999V0200701N008012200019N0300001N1-00641-01151101581ADDAJ100099199999999AY101061AY201061GF101991011051008001001001IA1239KA1999N-00731MD1210101+9999MW1021REMSYN088AAXX  19061 01003 31580 10708 11064 21115 40158 52010 70200 81500 333 21073 47009 91119;
0140010030999992013011909004+77000+015500FM-12+001299999V0200801N008010042019N0200001N1-00601-00971101641ADDAY111031AY211031GF108991081051004501999999MD1210061+9999MW1701REMSYN066AAXX  19091 01003 41470 80808 11060 21097 40164 52006 77011 885//;
0157010030999992013011912004+77000+015500FM-12+001299999V0200801N010010042019N0120001N1-00641-00761101611ADDAA106000021AY111061AY211061GF108991081051004501999999MD1810031+9999MW1711REMSYN072AAXX  19121 01003 11462 80810 11064 21076 40161 58003 69921 77111 885//;
0140010030999992013011915004+77000+015500FM-12+001299999V0200801N010010042019N0150001N1-00561-00751101551ADDAY171031AY221031GF108991081051004501999999MD1710061+9999MW1711REMSYN066AAXX  19151 01003 41465 80810 11056 21075 40155 57006 77172 885//;
0180010030999992013011918004+77000+015500FM-12+001299999V0200801N008010042019N0150001N1-00501-00741101461ADDAA112000591AY171061AY221061GF108991081051004501999999KA1999M-00501MD1710091+9999MW1221REMSYN082AAXX  19181 01003 11465 80808 11050 21074 40146 57009 69942 72272 885// 333 11050;
0161010030999992013011921004+77000+015500FM-12+001299999V0200901N010010042019N0150001N1-00481-00761101361ADDAY171031AY221031GF108991081051004501999999MA1999999101231MD1810101+9999MW1021REMSYN072AAXX  19211 01003 41465 80910 11048 21076 30123 40136 58010 70272 885//;
0178010030999992013012000004+77000+015500FM-12+001299999V0200801N004010042019N0120001N1-00461-00691101231ADDAA106000021AY121061AY221061GF108991081051004501999999MA1999999101101MD1810131+9999MW1711REMSYN078AAXX  20001 01003 11462 80804 11046 21069 30110 40123 58013 69901 77122 885//;
0161010030999992013012003004+77000+015500FM-12+001299999V0209999C000010075019N0150001N1-00461-00651101051ADDAY171031AY271031GF108991081051008001999999MA1999999100921MD1810181+9999MW1711REMSYN072AAXX  20031 01003 41565 80000 11046 21065 30092 40105 58018 77177 885//;
0230010030999992013012006004+77000+015500FM-12+001299999V0202201N001010012019N0030001N1-00341-00411100761ADDAA112000891AJ100129199999999AY171061AY271061GF108991061071001501021999IA1249KA1999N-00541MA1999999100631MD1710291+9999MW1711REMSYN094AAXX  20061 01003 11230 82201 11034 21041 30063 40076 57029 69972 77177 8672/ 333 21054 48012;
0161010030999992013012009004+77000+015500FM-12+001299999V0200101N001010021019N0030001N1-00281-00341100401ADDAY171031AY221031GF108991071061002501999999MA1999999100271MD1710361+9999MW1221REMSYN072AAXX  20091 01003 41330 80101 11028 21034 30027 40040 57036 72272 876//;
0178010030999992013012012004+77000+015500FM-12+001299999V0202801N009010012019N0020001N1+00121+00011100131ADDAA106001091AY171061AY221061GF108991051071001501021999MA1999999100011MD1610261+9999MW1691REMSYN078AAXX  20121 01003 11220 82809 10012 20001 30001 40013 56026 60011 76972 8572/;
0161010030999992013012015004+77000+015500FM-12+001299999V0203001N012010042019N0070001N1+00081-00091099851ADDAY171031AY221031GF107991051051004501071999MA1999999099731MD1610281+9999MW1681REMSYN072AAXX  20151 01003 41457 73012 10008 21009 39973 49985 56028 76872 8557/;
0207010030999992013012018004+77000+015500FM-12+001299999V0202901N015010240019N0200001N1+00001-00381099661ADDAA112001091AY171061AY221061GF105991041051004501031001KA1120M+00171MA1999999099541MD1810191+9999MW1011REMSYN094AAXX  20181 01003 11470 52915 10000 21038 39954 49966 58019 60012 70172 84530 333 10017 91121;
0161010030999992013012021004+77000+015500FM-12+001299999V0203101N009010240019N0200001N1-00301-00641099711ADDAY121031AY221031GF105991041051004501031001MA1999999099581MD1310041+9999MW1021REMSYN072AAXX  20211 01003 41470 53109 11030 21064 39958 49971 53004 70222 84530;
0207010030999992013012100004+77000+015500FM-12+001299999V0203101N006010240019N0150001N1-00361-00781099711ADDAA106000091AY121061AY221061GF105991041051004501031001MA1999999099581MD1010001+9999MW1021REMSYN088AAXX  21001 01003 31465 53106 11036 21078 39958 49971 50000 60001 70222 84530 333 91141;EQDQ01  00002PRCP06
0161010030999992013012103004+77000+015500FM-12+001299999V0203201N007012200019N0200001N1-00611-01021099751ADDAY111031AY211031GF104991031051004501031001MA1999999099621MD1210041+9999MW1011REMSYN072AAXX  21031 01003 41470 43207 11061 21102 39962 49975 52004 70111 83530;
0255010030999992013012106004+77000+015500FM-12+001299999V0200401N002010240019N0200001N1-00741-01151099911ADDAA106000091AJ100129199999999AY111061AY211061GF105991041051004501031001IA1289KA1999N-00991MA1999999099781MD1210161+9999MW1031REMSYN100AAXX  21061 01003 31470 50402 11074 21115 39978 49991 52016 60001 70311 84530 333 21099 44012 91114;EQDQ01  00002PRCP06
0161010030999992013012109004+77000+015500FM-12+001299999V0200601N011010042019N0120001N1-00731-01131100141ADDAY121031AY221031GF108991081051004501999999MA1999999100011MD1310231+9999MW1361REMSYN072AAXX  21091 01003 41462 80611 11073 21113 30001 40014 53023 73622 885//;
0207010030999992013012112004+77000+015500FM-12+001299999V0200901N009010042019N0120001N1-01021-01261100441ADDAA106000091AY121061AY221061GF108991081051004501999999MA1999999100311MD1110301+9999MW1361REMSYN088AAXX  21121 01003 31462 80909 11102 21126 30031 40044 51030 60001 73622 885// 333 91117;EQDQ01  00002PRCP06
0161010030999992013012115004+77000+015500FM-12+001299999V0200801N009010042019N0150001N1-01181-01621100711ADDAY121031AY221031GF107991051051004501031999MA1999999100581MD1110271+9999MW1361REMSYN072AAXX  21151 01003 41465 70809 11118 21162 30058 40071 51027 73622 8553/;
0226010030999992013012118004+77000+015500FM-12+001299999V0200401N009012200019N0300001N1-01371-01981100911ADDAA106000091AY131061AY211061GF102991021051008001031001KA1120M-00571MA1999999100781MD1210201+9999MW1361REMSYN094AAXX  21181 01003 31580 20409 11137 21198 30078 40091 52020 60001 73631 82530 333 11057 91117;EQDQ01  00002PRCP06
0161010030999992013012121004+77000+015500FM-12+001299999V0200301N009012200019N0400001N1-01461-02441101201ADDAY131031AY201031GF101991011051008001001001MA1999999101201MD1210291+9999MW1011REMSYN072AAXX  21211 01003 41582 10309 11146 21244 30120 40120 52029 70130 81500;
0207010030999992013012200004+77000+015500FM-12+001299999V0200301N006012200019N0500001N1-01331-02361101341ADDAA106000091AY131061AY201061GF101991011011012501001001MA1999999101211MD1210141+9999MW1021REMSYN088AAXX  22001 01003 31684 10306 11133 21236 30121 40134 52014 60001 70230 81100 333 91116;EQDQ01  00002PRCP06
0161010030999992013012203004+77000+015500FM-12+001299999V0200101N005012200019N0500001N1-01241-02291101441ADDAY101031AY201031GF101991011051012501001011MA1999999101311MD1110101+9999MW1031REMSYN072AAXX  22031 01003 41684 10105 11124 21229 30131 40144 51010 70300 81501;
0255010030999992013012206004+77000+015500FM-12+001299999V0200201N006012200019N0500001N1-01211-02191101431ADDAA112000091AJ100119199999999AY101061AY201061GF101991011011012501001001IA1249KA1999N-01511MA1999999101301MD1710011+9999MW1011REMSYN100AAXX  22061 01003 11684 10206 11121 21219 30130 40143 57001 60002 70100 81100 333 21151 48011 91112;EQDQ01  00002PRCP12
0161010030999992013012209004+77000+015500FM-12+001299999V0203101N005012200019N0400001N1-01191-02271101421ADDAY101031AY201031GF101991011011012501001001MA1999999101291MD1810011+9999MW1021REMSYN072AAXX  22091 01003 41682 13105 11119 21227 30129 40142 58001 70200 81100;
0207010030999992013012212004+77000+015500FM-12+001299999V0203401N002010240019N0350001N1-01051-02161101391ADDAA106000091AY111061AY211061GF107991021081008001071999MA1999999101261MD1810031+9999MW1031REMSYN088AAXX  22121 01003 31581 73402 11105 21216 30126 40139 58003 60001 70311 8287/ 333 91109;EQDQ01  00002PRCP06
0161010030999992013012215004+77000+015500FM-12+001299999V0203401N002010240019N0300001N1-00981-02021101331ADDAY121031AY221031GF107991021051008001071999MA1999999101201MD1710061+9999MW1021REMSYN072AAXX  22151 01003 41580 73402 11098 21202 30120 40133 57006 70222 8257/;
0226010030999992013012218004+77000+015500FM-12+001299999V0203201N003010240019N0350001N1-01041-01741101361ADDAA112000091AY121061AY221061GF107991021051008001071999KA1120M-00931MA1999999101231MD1210031+9999MW1021REMSYN094AAXX  22181 01003 31581 73203 11104 21174 30123 40136 52003 60002 70222 8257/ 333 11093 91110;EQDQ01  00002PRCP12
0161010030999992013012221004+77000+015500FM-12+001299999V0200301N004010240019N0300001N1-01111-02171101461ADDAY121031AY221031GF107991021051008001071001MA1999999101331MD1210101+9999MW1021REMSYN072AAXX  22211 01003 41580 70304 11111 21217 30133 40146 52010 70222 82570;
0207010030999992013012300004+77000+015500FM-12+001299999V0200101N004010240019N0350001N1-01161-02241101501ADDAA106000091AY121061AY221061GF107991021051008001011999MA1999999101371MD1210041+9999MW1021REMSYN088AAXX  23001 01003 31581 70104 11116 21224 30137 40150 52004 60001 70222 8251/ 333 91111;EQDQ01  00002PRCP06
0161010030999992013012303004+77000+015500FM-12+001299999V0200101N005012200019N0500001N1-01131-02191101541ADDAY111031AY211031GF101991011011012501001011MA1999999101411MD1210041+9999MW1011REMSYN072AAXX  23031 01003 41684 10105 11113 21219 30141 40154 52004 70111 81101;
0255010030999992013012306004+77000+015500FM-12+001299999V0200101N001012200019N0400001N1-01111-01971101561ADDAA112000091AJ100109199999999AY111061AY211061GF103991031051008001001001IA1249KA1999N-01311MA1999999101431MD1310021+9999MW1031REMSYN100AAXX  23061 01003 31582 30101 11111 21197 30143 40156 53002 60002 70311 83500 333 21131 48010 91111;EQDQ01  00002PRCP12
0161010030999992013012309004+77000+015500FM-12+001299999V0200501N006010240019N0300001N1-00801-01311101621ADDAY111031AY211031GF106991041051004501031001MA1999999101491MD1210061+9999MW1031REMSYN072AAXX  23091 01003 41480 60506 11080 21131 30149 40162 52006 70311 84530;
0197010030999992013012312004+77000+015500FM-12+001299999V0200401N007012200019N0200001N1-00681-01221101761ADDAA106000091AY111061AY211061GF103991021051004501041001MA1999999101631MD1110141+9999MW1011REMSYN078AAXX  23121 01003 31470 30407 11068 21122 30163 40176 51014 60001 70111 82540;EQDQ01  00002PRCP06
0161010030999992013012315004+77000+015500FM-12+001299999V0200501N009012200019N0300001N1-00821-01501101811ADDAY101031AY201031GF102991021051008001001001MA1999999101681MD1210051+9999MW1011REMSYN072AAXX  23151 01003 41580 20509 11082 21150 30168 40181 52005 70100 82500;
0226010030999992013012318004+77000+015500FM-12+001299999V0200501N010012200019N0250001N1-00741-01451101811ADDAA112000091AY101061AY201061GF102991021081008001001001KA1120M-00641MA1999999101681MD1510001+9999MW1021REMSYN094AAXX  23181 01003 31575 20510 11074 21145 30168 40181 55000 60002 70200 82800 333 11064 91118;EQDQ01  00002PRCP12
0161010030999992013012321004+77000+015500FM-12+001299999V0200601N008012200019N0250001N1-00671-01271101871ADDAY101031AY201031GF103991031081008001001001MA1999999101741MD1110061+9999MW1031REMSYN072AAXX  23211 01003 41575 30608 11067 21127 30174 40187 51006 70300 83800;
0207010030999992013012400004+77000+015500FM-12+001299999V0200601N010012200019N0350001N1-00801-01251101891ADDAA106000091AY101061AY201061GF102991011081008001041001MA1999999101761MD1210021+9999MW1011REMSYN088AAXX  24001 01003 31581 20610 11080 21125 30176 40189 52002 60001 70100 81840 333 91115;EQDQ01  00002PRCP06
0161010030999992013012403004+77000+015500FM-12+001299999V0200501N008012200019N0500001N1-00981-01741101881ADDAY101031AY201031GF101991001001999999001011MA1999999101751MD1810011+9999MW1011REMSYN072AAXX  24031 01003 41984 10508 11098 21174 30175 40188 58001 70100 80001;
0255010030999992013012406004+77000+015500FM-12+001299999V0200401N006010240019N0250001N1-01031-01741101841ADDAA112000091AJ100109199999999AY111061AY211061GF106991031051008001071001IA1239KA1999N-01091MA1999999101711MD1610041+9999MW1031REMSYN100AAXX  24061 01003 31575 60406 11103 21174 30171 40184 56004 60002 70311 83570 333 21109 47010 91116;EQDQ01  00002PRCP12
0161010030999992013012409004+77000+015500FM-12+001299999V0200401N006010240019N0250001N1-01091-01811101761ADDAY121031AY221031GF105991031051008001041011MA1999999101631MD1710081+9999MW1011REMSYN072AAXX  24091 01003 41575 50406 11109 21181 30163 40176 57008 70122 83541;
0207010030999992013012412004+77000+015500FM-12+001299999V0200401N006012200019N0400001N1-01121-01901101711ADDAA106000091AY121061AY221061GF105991011081008001001081MA1999999101581MD1710051+9999MW1011REMSYN088AAXX  24121 01003 31582 50406 11112 21190 30158 40171 57005 60001 70122 81808 333 91115;EQDQ01  00002PRCP06
0161010030999992013012415004+77000+015500FM-12+001299999V0200401N004012200019N0400001N1-01101-01991101571ADDAY121031AY221031GF105991021051012501001081MA1999999101441MD1610141+9999MW1031REMSYN072AAXX  24151 01003 41682 50404 11110 21199 30144 40157 56014 70322 82508;
0226010030999992013012418004+77000+015500FM-12+001299999V0200101N003010240019N0400001N1-01091-02031101441ADDAA112000091AY121061AY221061GF106991011051012501041081KA1120M-01021MA1999999101311MD1710131+9999MW1031REMSYN094AAXX  24181 01003 31682 60103 11109 21203 30131 40144 57013 60002 70322 81548 333 11102 91113;EQDQ01  00002PRCP12
0161010030999992013012421004+77000+015500FM-12+001299999V0200401N004010240019N0400001N1-01031-01841101311ADDAY121031AY221031GF106991011051012501041081MA1999999101181MD1610131+9999MW1021REMSYN072AAXX  24211 01003 41682 60404 11103 21184 30118 40131 56013 70222 81548;
0207010030999992013012500004+77000+015500FM-12+001299999V0200301N003012200019N0500001N1-01141-01801101241ADDAA106000091AY111061AY211061GF104991011051012501041011MA1999999101111MD1710071+9999MW1011REMSYN088AAXX  25001 01003 31684 40303 11114 21180 30111 40124 57007 60001 70111 81541 333 91108;EQDQ01  00002PRCP06
0161010030999992013012503004+77000+015500FM-12+001299999V0200401N005012200019N0500001N1-01151-01811101141ADDAY101031AY201031GF102991021051012501041001MA1999999101011MD1610101+9999MW1011REMSYN072AAXX  25031 01003 41684 20405 11115 21181 30101 40114 56010 70100 82540;
0255010030999992013012506004+77000+015500FM-12+001299999V0200501N007012200019N0500001N1-01141-01811101041ADDAA112000091AJ100099199999999AY101061AY201061GF102991011051012501001011IA1239KA1999N-01261MA1999999100911MD1710101+9999MW1021REMSYN100AAXX  25061 01003 31684 20507 11114 21181 30091 40104 57010 60002 70200 81501 333 21126 47009 91110;EQDQ01  00002PRCP12
0161010030999992013012509004+77000+015500FM-12+001299999V0200701N007012200019N0350001N1-01051-01861101001ADDAY101031AY201031GF102991021051008001001001MA1999999100871MD1710041+9999MW1021REMSYN072AAXX  25091 01003 41581 20707 11105 21186 30087 40100 57004 70200 82500;
0197010030999992013012512004+77000+015500FM-12+001299999V0200401N006012200019N0500001N1-01161-01831100981ADDAA106000091AY101061AY201061GF101991011051012501001001MA1999999100851MD1810021+9999MW1011REMSYN078AAXX  25121 01003 31684 10406 11116 21183 30085 40098 58002 60001 70100 81500;EQDQ01  00002PRCP06
0161010030999992013012515004+77000+015500FM-12+001299999V0200701N005012200019N0500001N1-01191-01801100891ADDAY101031AY201031GF101991011051012501001001MA1999999100761MD1710091+9999MW1021REMSYN072AAXX  25151 01003 41684 10705 11119 21180 30076 40089 57009 70200 81500;
0220010030999992013012518004+77000+015500FM-12+001299999V0200601N004012200019N0500001N1-01241-01741100861ADDAA112000091AY101061AY201061GF101991011051012501001001KA1999M-01031MA1999999100731MD1710031+9999MW1021REMSYN088AAXX  25181 01003 31684 10604 11124 21174 30073 40086 57003 60002 70200 81500 333 11103;EQDQ01  00002PRCP12
0161010030999992013012521004+77000+015500FM-12+001299999V0200601N005012200019N0500001N1-01371-01811100841ADDAY101031AY201031GF102991011051012501001011MA1999999100711MD1710021+9999MW1031REMSYN072AAXX  25211 01003 41684 20605 11137 21181 30071 40084 57002 70300 81501;
0197010030999992013012600004+77000+015500FM-12+001299999V0200601N006012200019N0500001N1-01341-01841100791ADDAA106000091AY101061AY201061GF101991011051008001001001MA1999999100661MD1610051+9999MW1011REMSYN078AAXX  26001 01003 31584 10606 11134 21184 30066 40079 56005 60001 70100 81500;EQDQ01  00002PRCP06
0161010030999992013012603004+77000+015500FM-12+001299999V0200501N007012200019N0500001N1-01351-01891100761ADDAY101031AY201031GF101991011051008001001001MA1999999100631MD1610031+9999MW1021REMSYN072AAXX  26031 01003 41584 10507 11135 21189 30063 40076 56003 70200 81500;
0249010030999992013012606004+77000+015500FM-12+001299999V0200401N006012200019N0500001N1-01351-01951100731ADDAA112000091AJ100089199999999AY101061AY201061GF102991011051008001041001IA1239KA1999N-01401MA1999999100601MD1710031+9999MW1031REMSYN094AAXX  26061 01003 31584 20406 11135 21195 30060 40073 57003 60002 70300 81540 333 21140 47008;EQDQ01  00002PRCP12
0161010030999992013012609004+77000+015500FM-12+001299999V0200301N006012200019N0400001N1-01361-01991100731ADDAY101031AY201031GF101991011081008001001011MA1999999100601MD1510001+9999MW1011REMSYN072AAXX  26091 01003 41582 10306 11136 21199 30060 40073 55000 70100 81801;
0197010030999992013012612004+77000+015500FM-12+001299999V0200501N005012200019N0350001N1-01391-02001100731ADDAA106000091AY101061AY201061GF101991011081008001041011MA1999999100601MD1010001+9999MW1031REMSYN078AAXX  26121 01003 31581 10505 11139 21200 30060 40073 50000 60001 70300 81841;EQDQ01  00002PRCP06
0161010030999992013012615004+77000+015500FM-12+001299999V0200401N006012200019N0250001N1-01361-01961100711ADDAY101031AY201031GF102991011051008001041001MA1999999100581MD1810021+9999MW1031REMSYN072AAXX  26151 01003 41575 20406 11136 21196 30058 40071 58002 70300 81540;
0226010030999992013012618004+77000+015500FM-12+001299999V0200701N005012200019N0250001N1-01281-01801100681ADDAA112000091AY101061AY201061GF103991031081008001001001KA1120M-01201MA1999999100551MD1810031+9999MW1031REMSYN094AAXX  26181 01003 31575 30705 11128 21180 30055 40068 58003 60002 70300 83800 333 11120 91111;EQDQ01  00002PRCP12
0161010030999992013012621004+77000+015500FM-12+001299999V0200501N004012200019N0300001N1-01291-01741100671ADDAY101031AY201031GF103991031081008001001001MA1999999100541MD1510011+9999MW1021REMSYN072AAXX  26211 01003 41580 30504 11129 21174 30054 40067 55001 70200 83800;
0207010030999992013012700004+77000+015500FM-12+001299999V0200601N004012200019N0400001N1-01391-01781100651ADDAA106000091AY101061AY201061GF102991021051012501001001MA1999999100521MD1610021+9999MW1011REMSYN088AAXX  27001 01003 31682 20604 11139 21178 30052 40065 56002 60001 70100 82500 333 91111;EQDQ01  00002PRCP06
0161010030999992013012703004+77000+015500FM-12+001299999V0200401N006012200019N0400001N1-01361-01851100661ADDAY101031AY201031GF102991021051012501001001MA1999999100531MD1310011+9999MW1021REMSYN072AAXX  27031 01003 41682 20406 11136 21185 30053 40066 53001 70200 82500;
0249010030999992013012706004+77000+015500FM-12+001299999V0200601N005012200019N0300001N1-01331-01771100651ADDAA112000091AJ100089199999999AY101061AY201061GF103991021051004501001011IA1239KA1999N-01471MA1999999100521MD1810011+9999MW1031REMSYN094AAXX  27061 01003 31480 30605 11133 21177 30052 40065 58001 60002 70300 82501 333 21147 47008;EQDQ01  00002PRCP12
0180010030999992013012709004+77000+015500FM-12+001299999V0200601N004012200019N0300001N1-01301-01611100671ADDAY101031AY201031GF103991999081004501001001MA1999999100541MD1310021+9999MW1021REMSYN072AAXX  27091 01003 41480 30604 11130 21161 30054 40067 53002 70200 82800;EQDQ01+000022SCOTLC
0161010030999992013012715004+77000+015500FM-12+001299999V0200701N005012200019N0250001N1-01241-01641100631ADDAY101031AY201031GF102991021051008001001001MA1999999100501MD1810051+9999MW1011REMSYN072AAXX  27151 01003 41575 20705 11124 21164 30050 40063 58005 70100 82500;
0220010030999992013012718004+77000+015500FM-12+001299999V0200701N004012200019N0250001N1-01361-01751100581ADDAA112000091AY101061AY201061GF102991021051008001001001KA1999M-01241MA1999999100451MD1710051+9999MW1021REMSYN088AAXX  27181 01003 31575 20704 11136 21175 30045 40058 57005 60002 70200 82500 333 11124;EQDQ01  00002PRCP12
0161010030999992013012721004+77000+015500FM-12+001299999V0200601N006012200019N0250001N1-01361-01691100571ADDAY101031AY201031GF101991011051008001001001MA1999999100441MD1710011+9999MW1011REMSYN072AAXX  27211 01003 41575 10606 11136 21169 30044 40057 57001 70100 81500;
0197010030999992013012800004+77000+015500FM-12+001299999V0200701N005012200019N0200001N1-01321-01621100561ADDAA106000091AY111061AY211061GF105991021051004501001081MA1999999100431MD1810011+9999MW1031REMSYN078AAXX  28001 01003 31470 50705 11132 21162 30043 40056 58001 60001 70311 82508;EQDQ01  00002PRCP06
0161010030999992013012803004+77000+015500FM-12+001299999V0200701N004012200019N0300001N1-01331-01581100561ADDAY111031AY211031GF104991021051008001031081MA1999999100431MD1510001+9999MW1011REMSYN072AAXX  28031 01003 41580 40704 11133 21158 30043 40056 55000 70111 82538;
0249010030999992013012806004+77000+015500FM-12+001299999V0200801N005012200019N0300001N1-01301-01671100551ADDAA112000091AJ100089199999999AY111061AY211061GF101991011081008001031001IA1239KA1999N-01471MA1999999100421MD1710011+9999MW1011REMSYN094AAXX  28061 01003 31580 10805 11130 21167 30042 40055 57001 60002 70111 81830 333 21147 47008;EQDQ01  00002PRCP12
0161010030999992013012809004+77000+015500FM-12+001299999V0200601N005012200019N0350001N1-01261-01681100531ADDAY101031AY201031GF101991011081008001001001MA1999999100401MD1510021+9999MW1011REMSYN072AAXX  28091 01003 41581 10605 11126 21168 30040 40053 55002 70100 81800;
0197010030999992013012812004+77000+015500FM-12+001299999V0200801N005012200019N0350001N1-01241-01631100551ADDAA106000091AY101061AY201061GF101991011081008001001001MA1999999100421MD1210021+9999MW1021REMSYN078AAXX  28121 01003 31581 10805 11124 21163 30042 40055 52002 60001 70200 81800;EQDQ01  00002PRCP06
0161010030999992013012815004+77000+015500FM-12+001299999V0200701N005012200019N0350001N1-01381-01801100561ADDAY101031AY201031GF101991011081008001001001MA1999999100431MD1310011+9999MW1021REMSYN072AAXX  28151 01003 41581 10705 11138 21180 30043 40056 53001 70200 81800;
0220010030999992013012818004+77000+015500FM-12+001299999V0200501N006012200019N0300001N1-01331-01791100491ADDAA112000091AY101061AY201061GF101991011051008001001001KA1999M-01221MA1999999100361MD1710071+9999MW1011REMSYN088AAXX  28181 01003 31580 10506 11133 21179 30036 40049 57007 60002 70100 81500 333 11122;EQDQ01  00002PRCP12
0161010030999992013012821004+77000+015500FM-12+001299999V0200501N006012200019N0300001N1-01201-01721100461ADDAY101031AY201031GF101991011051008001001001MA1999999100331MD1610031+9999MW1021REMSYN072AAXX  28211 01003 41580 10506 11120 21172 30033 40046 56003 70200 81500;
0197010030999992013012900004+77000+015500FM-12+001299999V0200501N007012200019N0400001N1-01061-01541100431ADDAA106000091AY101061AY201061GF101991011051008001001001MA1999999100301MD1610031+9999MW1021REMSYN078AAXX  29001 01003 31582 10507 11106 21154 30030 40043 56003 60001 70200 81500;EQDQ01  00002PRCP06
0249010030999992013012906004+77000+015500FM-12+001299999V0200601N008012200019N0400001N1-01041-01491100401ADDAA112000091AJ100089199999999AY101061AY201061GF101991011051008001001001IA1239KA1999N-01331MA1999999100271MD1710011+9999MW1021REMSYN094AAXX  29061 01003 31582 10608 11104 21149 30027 40040 57001 60002 70200 81500 333 21133 47008;EQDQ01  00002PRCP12
0161010030999992013012909004+77000+015500FM-12+001299999V0200601N007012200019N0400001N1-01071-01491100461ADDAY101031AY201031GF101991011081008001041001MA1999999100331MD1110061+9999MW1021REMSYN072AAXX  29091 01003 41582 10607 11107 21149 30033 40046 51006 70200 81840;
0197010030999992013012912004+77000+015500FM-12+001299999V0200701N008012200019N0500001N1-01121-01511100471ADDAA106000091AY101061AY201061GF101991011051008001041001MA1999999100341MD1210011+9999MW1011REMSYN078AAXX  29121 01003 31584 10708 11112 21151 30034 40047 52001 60001 70100 81540;EQDQ01  00002PRCP06
0161010030999992013012915004+77000+015500FM-12+001299999V0200701N008012200019N0500001N1-01211-01631100491ADDAY101031AY201031GF101991011051008001001001MA1999999100361MD1210021+9999MW1011REMSYN072AAXX  29151 01003 41584 10708 11121 21163 30036 40049 52002 70100 81500;
0220010030999992013012918004+77000+015500FM-12+001299999V0200701N008012200019N0300001N1-01231-01621100491ADDAA112000091AY101061AY201061GF101991011051008001001001KA1999M-01031MA1999999100361MD1410001+9999MW1021REMSYN088AAXX  29181 01003 31580 10708 11123 21162 30036 40049 54000 60002 70200 81500 333 11103;EQDQ01  00002PRCP12
0161010030999992013012921004+77000+015500FM-12+001299999V0200601N007012200019N0300001N1-01261-01711100461ADDAY101031AY201031GF101991011081008001001001MA1999999100331MD1810031+9999MW1031REMSYN072AAXX  29211 01003 41580 10607 11126 21171 30033 40046 58003 70300 81800;
0101010030999992013012922004+77000+015500FM-12+001299999V0200401N006019999999N9999999N1-01241-01741100431ADDMA1999999100281MD1810051+9999REMSYN060AAXX  29221 01003 46/// /0406 11124 21174 30028 40043 58005;
0101010030999992013012923004+77000+015500FM-12+001299999V0200601N006019999999N9999999N1-01251-01721100411ADDMA1999999100261MD1710081+9999REMSYN060AAXX  29231 01003 46/// /0606 11125 21172 30026 40041 57008;
0197010030999992013013000004+77000+015500FM-12+001299999V0200701N012012200019N0300001N1-01251-01721100411ADDAA106000091AY101061AY201061GF101991011081008001001001MA1999999100281MD1510051+9999MW1021REMSYN078AAXX  30001 01003 31580 10712 11125 21172 30028 40041 55005 60001 70200 81800;EQDQ01  00002PRCP06
0161010030999992013013003004+77000+015500FM-12+001299999V0200801N007012200019N0400001N1-01291-01711100321ADDAY101031AY201031GF101991011051008001001001MA1999999100191MD1710091+9999MW1011REMSYN072AAXX  30031 01003 41582 10807 11129 21171 30019 40032 57009 70100 81500;
0101010030999992013013005004+77000+015500FM-12+001299999V0200701N009019999999N9999999N1-01341-01821100231ADDMA1999999100081MD1810101+9999REMSYN060AAXX  30051 01003 46/// /0709 11134 21182 30008 40023 58010;
0249010030999992013013006004+77000+015500FM-12+001299999V0200901N009012200019N0350001N1-01301-01761100221ADDAA112000091AJ100089199999999AY101061AY201061GF101991011051004501001011IA1239KA1999N-01361MA1999999100091MD1610101+9999MW1031REMSYN094AAXX  30061 01003 31481 10909 11130 21176 30009 40022 56010 60002 70300 81501 333 21136 47008;EQDQ01  00002PRCP12
0161010030999992013013009004+77000+015500FM-12+001299999V0200801N007012200019N0400001N1-01271-01811100141ADDAY101031AY201031GF101991011081004501031001MA1999999100111MD1710081+9999MW1031REMSYN072AAXX  30091 01003 41482 10807 11127 21181 30011 40014 57008 70300 81830;
0207010030999992013013012004+77000+015500FM-12+001299999V0200901N007012200019N0500001N1-01231-01841100071ADDAA106000091AY101061AY201061GF101991011011008001031001MA1999999099941MD1610071+9999MW1011REMSYN088AAXX  30121 01003 31584 10907 11123 21184 39994 40007 56007 60001 70100 81130 333 91114;EQDQ01  00002PRCP06
0161010030999992013013015004+77000+015500FM-12+001299999V0200901N008012200019N0500001N1-01161-01981099941ADDAY101031AY201031GF101991011001999999031001MA1999999099811MD1710131+9999MW1011REMSYN072AAXX  30151 01003 41984 10908 11116 21198 39981 49994 57013 70100 81030;
0236010030999992013013018004+77000+015500FM-12+001299999V0200901N007012200019N0500001N1-01251-01991099871ADDAA112000091AY101061AY201061GA1001+999999999GF100991001001999999001001KA1120M-01121MA1999999099741MD1610071+9999MW1011REMSYN088AAXX  30181 01003 31984 00907 11125 21199 39974 49987 56007 60002 70100 333 11112 91112;EQDQ01  00002PRCP12
0101010030999992013013020004+77000+015500FM-12+001299999V0200601N010019999999N9999999N1-01181-01851099741ADDMA1999999099601MD1810131+9999REMSYN060AAXX  30201 01003 46/// /0610 11118 21185 39960 49974 58013;
0161010030999992013013021004+77000+015500FM-12+001299999V0200501N011012200019N0300001N1-01111-01761099691ADDAY101031AY201031GF101991011051022501001001MA1999999099551MD1810141+9999MW1361REMSYN072AAXX  30211 01003 41880 10511 11111 21176 39955 49969 58014 73600 81500;
0207010030999992013013100004+77000+015500FM-12+001299999V0200601N012012200019N0250001N1-00991-01701099611ADDAA106000091AY131061AY201061GF103991031051008001031001MA1999999099481MD1810121+9999MW1361REMSYN088AAXX  31001 01003 31575 30612 11099 21170 39948 49961 58012 60001 73630 83530 333 91118;EQDQ01  00002PRCP06
0161010030999992013013103004+77000+015500FM-12+001299999V0200501N013012200019N0250001N1-00901-01521099591ADDAY171031AY231031GF104991031051004501041081MA1999999099451MD1810081+9999MW1361REMSYN072AAXX  31031 01003 41475 40513 11090 21152 39945 49959 58008 73673 83548;
0101010030999992013013104004+77000+015500FM-12+001299999V0200501N016019999999N9999999N1-00911-01531099511ADDMA1999999099371MD1810121+9999REMSYN060AAXX  31041 01003 46/// /0516 11091 21153 39937 49951 58012;
0255010030999992013013106004+77000+015500FM-12+001299999V0200601N014012200019N0250001N1-00861-01581099491ADDAA112000091AJ100079199999999AY171061AY231061GF104991041051004501001001IA1239KA1999N-01251MA1999999099361MD1710101+9999MW1361REMSYN100AAXX  31061 01003 11475 40614 11086 21158 39936 49949 57010 69902 73673 84500 333 21125 47007 91121;EQDQ01  00002PRCP12
0161010030999992013013109004+77000+015500FM-12+001299999V0200601N014012200019N0400001N1-00861-01521099521ADDAY131031AY201031GF101991011081004501001001MA1999999099391MD1210031+9999MW1361REMSYN072AAXX  31091 01003 41482 10614 11086 21152 39939 49952 52003 73630 81800;
0101010030999992013013111004+77000+015500FM-12+001299999V0200401N011019999999N9999999N1-00741-01211099661ADDMA1999999099521MD1310071+9999REMSYN060AAXX  31111 01003 46/// /0411 11074 21121 39952 49966 53007;
0188010030999992013013112004+77000+015500FM-12+001299999V0200401N011010012019N0070001N1-00631-00981099621ADDAA106000021AY131061AY211061GF108991061061001501071999MA1999999099491MD1310101+9999MW1701REMSYN088AAXX  31121 01003 11257 80411 11063 21098 39949 49962 53010 69901 77031 8667/ 333 91121;
0161010030999992013013115004+77000+015500FM-12+001299999V0200401N012010240019N0080001N1-00591-01081099691ADDAY171031AY231031GF106991041061001501071001MA1999999099551MD1310031+9999MW1361REMSYN072AAXX  31151 01003 41258 60412 11059 21108 39955 49969 53003 73673 84670;
0178010030999992013013118004+77000+015500FM-12+001299999V0200301N012012200019N0150001N1-00651-01251099781ADDAA112000021AY171061AY231061GF103991031051004501999999MA1999999099641MD1310071+9999MW1361REMSYN078AAXX  31181 01003 11465 30312 11065 21125 39964 49978 53007 69902 73673 835//;
0101010030999992013013120004+77000+015500FM-12+001299999V0200401N013019999999N9999999N1-00681-01411099861ADDMA1999999099721MD1310111+9999REMSYN060AAXX  31201 01003 46/// /0413 11068 21141 39972 49986 53011;
0161010030999992013013121004+77000+015500FM-12+001299999V0200401N014012200019N0200001N1-00671-01381099821ADDAY131031AY231031GF101991011051008001001001MA1999999099681MD1310081+9999MW1361REMSYN072AAXX  31211 01003 41570 10414 11067 21138 39968 49982 53008 73633 81500;
0197010030999992013020100004+77000+015500FM-12+001299999V0200401N011012200019N0400001N1-00721-01311099831ADDAA106000091AY131061AY231061GF101991011051008001041001MA1999999099691MD1510001+9999MW1361REMSYN078AAXX  01001 01003 11582 10411 11072 21131 39969 49983 55000 60001 73633 81540;EQDQ01  00002PRCP06
0101010030999992013020103004+77000+015500FM-12+001299999V0200501N012019999999N9999999N1-00781-01331099931ADDMA1999999099791MD1110081+9999REMSYN060AAXX  01031 01003 46/// /0512 11078 21133 39979 49993 51008;
0247010030999992013020106004+77000+015500FM-12+001299999V0200501N012012200019N0250001N1-00761-01391099851ADDAA112000091AA224000021AJ100089199999999AY131061AY231061GF102991021051008001001001IA1249MA1999999099711MD1510071+9999MW1361REMSYN094AAXX  01061 01003 11575 20512 11076 21139 39971 49985 55007 60002 73633 82500 333 48008 79999;EQDQ01  00002PRCP12
0101010030999992013020109004+77000+015500FM-12+001299999V0200601N011019999999N9999999N1-00671-01341099891ADDMA1999999099751MD1310031+9999REMSYN060AAXX  01091 01003 46/// /0611 11067 21134 39975 49989 53003;
0197010030999992013020112004+77000+015500FM-12+001299999V0200501N012012200019N0300001N1-00661-01351099961ADDAA106000091AY131061AY231061GF102991021081008001001001MA1999999099821MD1010061+9999MW1361REMSYN078AAXX  01121 01003 11580 20512 11066 21135 39982 49996 50006 60001 73633 82800;EQDQ01  00002PRCP06
0161010030999992013020115004+77000+015500FM-12+001299999V0200501N014012200019N0350001N1-00771-01541099971ADDAY131031AY231031GF101991011051008001001001MA1999999099831MD1010041+9999MW1361REMSYN072AAXX  01151 01003 41581 10514 11077 21154 39983 49997 50004 73633 81500;
0161010030999992013020121004+77000+015500FM-12+001299999V0200301N010012200019N0300001N1-00981-01741100151ADDAY131031AY231031GF102991021051008001001001MA1999999100011MD1010051+9999MW1361REMSYN072AAXX  01211 01003 41580 20310 11098 21174 30001 40015 50005 73633 82500;
0101010030999992013020122004+77000+015500FM-12+001299999V0200401N010019999999N9999999N1-00981-01701100151ADDMA1999999100011MD1210041+9999REMSYN060AAXX  01221 01003 46/// /0410 11098 21170 30001 40015 52004;
0197010030999992013020200004+77000+015500FM-12+001299999V0200301N009012200019N0300001N1-01001-01721100211ADDAA106000091AY131061AY231061GF101991011051008001001001MA1999999100071MD1310041+9999MW1361REMSYN078AAXX  02001 01003 11580 10309 11100 21172 30007 40021 53004 60001 73633 81500;EQDQ01  00002PRCP06
0161010030999992013020203004+77000+015500FM-12+001299999V0200401N008012200019N0300001N1-00971-01671100171ADDAY131031AY201031GF101991011051008001001001MA1999999100031MD1710041+9999MW1021REMSYN072AAXX  02031 01003 41580 10408 11097 21167 30003 40017 57004 70230 81500;
0269010030999992013020206004+77000+015500FM-12+001299999V0200401N005012200019N0400001N1-01051-01851100151ADDAA112000091AA224000091AJ100089199999999AY131061AY201061GF101991011051008001001001IA1249MA1999999100011MD1710031+9999MW1021REMSYN100AAXX  02061 01003 11582 10405 11105 21185 30001 40015 57003 60002 70230 81500 333 48008 70000 91116;EQDQ01  00002PRCP24Q02  00002PRCP12
0171010030999992013020209004+77000+015500FM-12+001299999V0200301N005012200019N0500001N1-01071-01761100141ADDAY101031AY201031GA1001+999999999GF100991001001999999001001MA1999999100001MD1010011+9999MW1011REMSYN066AAXX  02091 01003 41084 00305 11107 21176 30000 40014 50001 70100;
0207010030999992013020212004+77000+015500FM-12+001299999V0200601N003012200019N0500001N1-01051-01541100141ADDAA106000091AY101061AY201061GF101991011051012501001001MA1999999100001MD1510011+9999MW1031REMSYN088AAXX  02121 01003 11684 10603 11105 21154 30000 40014 55001 60001 70300 81500 333 91109;EQDQ01  00002PRCP06
0171010030999992013020215004+77000+015500FM-12+001299999V0200401N003012200019N0500001N1-01171-01641100141ADDAY101031AY201031GA1001+999999999GF100991001001999999001001MA1999999100001MD1410001+9999MW1011REMSYN066AAXX  02151 01003 41984 00403 11117 21164 30000 40014 54001 70100;
0101010030999992013020217004+77000+015500FM-12+001299999V0200601N004019999999N9999999N1-01261-01661100111ADDMA1999999099971MD1010001+9999REMSYN060AAXX  02171 01003 46/// /0604 11126 21166 39997 40011 50000;
0197010030999992013020218004+77000+015500FM-12+001299999V0200401N004012200019N0400001N1-01201-01621100121ADDAA112000091AY101061AY201061GF101991011051012501001001MA1999999099981MD1510021+9999MW1031REMSYN078AAXX  02181 01003 11682 10404 11120 21162 39998 40012 55002 60002 70300 81500;EQDQ01  00002PRCP12
0161010030999992013020221004+77000+015500FM-12+001299999V0200501N003012200019N0500001N1-01281-01681100111ADDAY101031AY201031GF101991011051008001001001MA1999999099971MD1410001+9999MW1021REMSYN072AAXX  02211 01003 41584 10503 11128 21168 39997 40011 54000 70200 81500;
0207010030999992013020300004+77000+015500FM-12+001299999V0200601N004012200019N0400001N1-01271-01601100091ADDAA106000091AY101061AY201061GF101991011051008001001001MA1999999099951MD1710021+9999MW1021REMSYN088AAXX  03001 01003 11582 10604 11127 21160 39995 40009 57002 60001 70200 81500 333 91110;EQDQ01  00002PRCP06
0161010030999992013020303004+77000+015500FM-12+001299999V0200601N003012200019N0400001N1-01161-01511100131ADDAY101031AY201031GF101991011051008001001001MA1999999099991MD1010041+9999MW1021REMSYN072AAXX  03031 01003 41582 10603 11116 21151 39999 40013 50004 70200 81500;
0288010030999992013020306004+77000+015500FM-12+001299999V0200601N003012200019N0400001N1-01221-01531100071ADDAA112000091AA224000091AJ100089199999999AY101061AY201061GF101991011081008001001001IA1249KA1999N-01371MA1999999099931MD1610061+9999MW1021REMSYN106AAXX  03061 01003 11582 10603 11122 21153 39993 40007 56006 60002 70200 81800 333 21137 48008 70000 91106;EQDQ01  00002PRCP24Q02  00002PRCP12
0161010030999992013020309004+77000+015500FM-12+001299999V0200601N002010240019N0300001N1-01111-01441100151ADDAY111031AY211031GF106991021051004501031001MA1999999100011MD1210081+9999MW1031REMSYN072AAXX  03091 01003 41480 60602 11111 21144 30001 40015 52008 70311 82530;
0101010030999992013020311004+77000+015500FM-12+001299999V0202501N001019999999N9999999N1-00921-01321100161ADDMA1999999100021MD1210031+9999REMSYN060AAXX  03111 01003 46/// /2501 11092 21132 30002 40016 52003;
0207010030999992013020312004+77000+015500FM-12+001299999V0203101N001010042019N0400001N1-00911-01341100151ADDAA106000091AY111061AY211061GF107991071051004501999999MA1999999100011MD1410001+9999MW1031REMSYN088AAXX  03121 01003 11482 73101 11091 21134 30001 40015 54000 60001 70311 875// 333 91104;EQDQ01  00002PRCP06
0101010030999992013020314004+77000+015500FM-12+001299999V0200901N005019999999N9999999N1-00701-01001100131ADDMA1999999099991MD1510031+9999REMSYN060AAXX  03141 01003 46/// /0905 11070 21100 39999 40013 55003;
0161010030999992013020315004+77000+015500FM-12+001299999V0201001N005010042019N0350001N1-00701-00891100151ADDAY121031AY221031GF108991081051004501999999MA1999999100011MD1510011+9999MW1031REMSYN072AAXX  03151 01003 41481 81005 11070 21089 30001 40015 55001 70322 885//;
0101010030999992013020319004+77000+015500FM-12+001299999V0200401N001019999999N9999999N1-00731-01101100121ADDMA1999999099981MD1710021+9999REMSYN060AAXX  03191 01003 46/// /0401 11073 21110 39998 40012 57002;
0101010030999992013020320004+77000+015500FM-12+001299999V0200401N001019999999N9999999N1-00741-01131100121ADDMA1999999099981MD1710011+9999REMSYN060AAXX  03201 01003 46/// /0401 11074 21113 39998 40012 57001;
0161010030999992013020321004+77000+015500FM-12+001299999V0200501N001010075019N0250001N1-00751-01141100131ADDAY121031AY221031GF107991071051008001999999MA1999999099991MD1210021+9999MW1011REMSYN072AAXX  03211 01003 41575 70501 11075 21114 39999 40013 52002 70122 875//;
0197010030999992013020400004+77000+015500FM-12+001299999V0209999C000012200019N0300001N1-00771-01161100141ADDAA106000091AY111061AY211061GF103991031051008001001001MA1999999100011MD1810021+9999MW1011REMSYN078AAXX  04001 01003 31580 30000 11077 21116 30001 40014 58002 60001 70111 83500;EQDQ01  00002PRCP06
0101010030999992013020401004+77000+015500FM-12+001299999V0200701N001019999999N9999999N1-00811-01131100091ADDMA1999999099951MD1710041+9999REMSYN060AAXX  04011 01003 46/// /0701 11081 21113 39995 40009 57004;
0161010030999992013020403004+77000+015500FM-12+001299999V0200601N002012200019N0300001N1-00711-01101100101ADDAY101031AY201031GF102991021051008001001001MA1999999099971MD1610041+9999MW1011REMSYN072AAXX  04031 01003 41580 20602 11071 21110 39997 40010 56004 70100 82500;
0249010030999992013020406004+77000+015500FM-12+001299999V0201001N007012200019N0300001N1-00431-00771100031ADDAA112000091AJ100089199999999AY101061AY201061GF103991031051008001001001IA1249KA1999N-00841MA1999999099901MD1710071+9999MW1031REMSYN094AAXX  04061 01003 31580 31007 11043 21077 39990 40003 57007 60002 70300 83500 333 21084 48008;EQDQ01  00002PRCP12
0161010030999992013020409004+77000+015500FM-12+001299999V0201001N009010075019N0400001N1-00351-00771100031ADDAY111031AY211031GF107991071051008001999999MA1999999099901MD1410001+9999MW1031REMSYN072AAXX  04091 01003 41582 71009 11035 21077 39990 40003 54000 70311 875//;
0207010030999992013020412004+77000+015500FM-12+001299999V0200801N008010075019N0400001N1-00411-00741100011ADDAA106000091AY111061AY211061GF108991081051008001999999MA1999999099871MD1410001+9999MW1031REMSYN088AAXX  04121 01003 11582 80808 11041 21074 39987 40001 54000 60001 70311 885// 333 91112;EQDQ01  00002PRCP06
0161010030999992013020415004+77000+015500FM-12+001299999V0201101N006010075019N0300001N1-00311-00581100041ADDAY121031AY221031GF108991081051008001999999MA1999999099911MD1310011+9999MW1021REMSYN072AAXX  04151 01003 41580 81106 11031 21058 39991 40004 53001 70222 885//;
0197010030999992013020418004+77000+015500FM-12+001299999V0200901N007010075019N0300001N1-00311-00571100031ADDAA112000091AY121061AY221061GF107991071051008001999999MA1999999099891MD1210011+9999MW1011REMSYN078AAXX  04181 01003 11580 70907 11031 21057 39989 40003 52001 60002 70122 875//;EQDQ01  00002PRCP12
0101010030999992013020419004+77000+015500FM-12+001299999V0200901N008019999999N9999999N1-00311-00561100031ADDMA1999999099891MD1410001+9999REMSYN060AAXX  04191 01003 46/// /0908 11031 21056 39989 40003 54000;
0161010030999992013020421004+77000+015500FM-12+001299999V0200601N007010075019N0250001N1-00231-00641100071ADDAY171031AY221031GF106991061051008001001001MA1999999099941MD1210031+9999MW1221REMSYN072AAXX  04211 01003 41575 60607 11023 21064 39994 40007 52003 72272 86500;
0101010030999992013020422004+77000+015500FM-12+001299999V0200501N006019999999N9999999N1-00331-00621100101ADDMA1999999099961MD1310071+9999REMSYN060AAXX  04221 01003 46/// /0506 11033 21062 39996 40010 53007;
0188010030999992013020500004+77000+015500FM-12+001299999V0200601N009010075019N0200001N1-00221-00641100061ADDAA106000021AY171061AY221061GF106991061051008001001001MA1999999099921MD1010011+9999MW1701REMSYN088AAXX  05001 01003 11570 60609 11022 21064 39992 40006 50001 69901 77072 86500 333 91113;
0161010030999992013020503004+77000+015500FM-12+001299999V0200201N006012200019N0250001N1-00151-00651100191ADDAY171031AY211031GF104991041051008001001001MA1999999100061MD1110131+9999MW1221REMSYN072AAXX  05031 01003 41575 40206 11015 21065 30006 40019 51013 72271 84500;
0236010030999992013020506004+77000+015500FM-12+001299999V0200401N006010075019N0250001N1-00171-00611100311ADDAA112000021AJ100099199999999AY171061AY211061GF105991051051008001001001IA1289KA1999N-00321MA1999999100181MD1210121+9999MW1701REMSYN100AAXX  05061 01003 11575 50406 11017 21061 30018 40031 52012 69902 77071 85500 333 21032 44009 91115;
0101010030999992013020507004+77000+015500FM-12+001299999V0200401N007019999999N9999999N1-00211-00661100321ADDMA1999999100181MD1110101+9999REMSYN060AAXX  05071 01003 46/// /0407 11021 21066 30018 40032 51010;
0161010030999992013020509004+77000+015500FM-12+001299999V0200401N009010042019N0150001N1-00221-00641100441ADDAY171031AY231031GF105991051051004501001001MA1999999100301MD1310141+9999MW1361REMSYN072AAXX  05091 01003 41465 50409 11022 21064 30030 40044 53014 73673 85500;
0101010030999992013020511004+77000+015500FM-12+001299999V0200601N009019999999N9999999N1-00211-00681100501ADDMA1999999100361MD1310171+9999REMSYN060AAXX  05111 01003 46/// /0609 11021 21068 30036 40050 53017;
0188010030999992013020512004+77000+015500FM-12+001299999V0200501N009010042019N0200001N1-00221-00591100571ADDAA106000021AY171061AY231061GF105991051051004501001001MA1999999100431MD1310111+9999MW1361REMSYN088AAXX  05121 01003 11470 50509 11022 21059 30043 40057 53011 69901 73673 85500 333 91115;
0101010030999992013020513004+77000+015500FM-12+001299999V0200601N010019999999N9999999N1-00181-00601100571ADDMA1999999100431MD1110131+9999REMSYN060AAXX  05131 01003 46/// /0610 11018 21060 30043 40057 51013;
0161010030999992013020515004+77000+015500FM-12+001299999V0200501N009010042019N0200001N1-00201-00591100731ADDAY131031AY221031GF107991071051004501999999MA1999999100591MD1310161+9999MW1031REMSYN072AAXX  05151 01003 41470 70509 11020 21059 30059 40073 53016 70332 875//;
0107010030999992013020518004+77000+015500FM-12+001299999V0200601N008019999999N9999999N1-00171-00621100881ADDMA1999999100741MD1310151+9999REMSYN066AAXX  05181 01003 16/// /0608 11017 21062 30074 40088 53015 6////;
0161010030999992013020521004+77000+015500FM-12+001299999V0200901N008010042019N0200001N1-00181-00551101061ADDAY121031AY221031GF107991071051004501999999MA1999999100921MD1310181+9999MW1021REMSYN072AAXX  05211 01003 41470 70908 11018 21055 30092 40106 53018 70222 875//;
0188010030999992013020600004+77000+015500FM-12+001299999V0200601N008010042019N0200001N1-00251-00651101191ADDAA106000021AY121061AY221061GF105991051051004501999999MA1999999101051MD1310131+9999MW1701REMSYN088AAXX  06001 01003 11470 50608 11025 21065 30105 40119 53013 69901 77022 855// 333 91116;
0161010030999992013020603004+77000+015500FM-12+001299999V0200601N007012200019N0300001N1-00271-00691101321ADDAY171031AY211031GF103991031051008001001001MA1999999101181MD1310141+9999MW1011REMSYN072AAXX  06031 01003 41580 30607 11027 21069 30118 40132 53014 70171 83500;
0253010030999992013020606004+77000+015500FM-12+001299999V0200701N007012200019N0300001N1-00341-00681101401ADDAA112000021AA224000021AJ100099199999999AY171061AY211061GF103991031051008001001001IA1289KA1999N-00441MA1999999101261MD1110091+9999MW1021REMSYN106AAXX  06061 01003 11580 30707 11034 21068 30126 40140 51009 69902 70271 83500 333 21044 44009 79999 91115;
0161010030999992013020609004+77000+015500FM-12+001299999V0200601N006012200019N0300001N1-00381-00751101481ADDAY101031AY201031GF102991021051008001001001MA1999999101341MD1210061+9999MW1011REMSYN072AAXX  06091 01003 41580 20606 11038 21075 30134 40148 52006 70100 82500;
0207010030999992013020612004+77000+015500FM-12+001299999V0200701N005012200019N0400001N1-00341-00761101511ADDAA106000091AY101061AY201061GF102991021051008001001001MA1999999101371MD1210031+9999MW1021REMSYN088AAXX  06121 01003 11582 20705 11034 21076 30137 40151 52003 60001 70200 82500 333 91110;EQDQ01  00002PRCP06
0161010030999992013020615004+77000+015500FM-12+001299999V0200601N004012200019N0400001N1-00531-00941101511ADDAY101031AY201031GF101991011051008001001001MA1999999101371MD1410001+9999MW1011REMSYN072AAXX  06151 01003 41582 10604 11053 21094 30137 40151 54001 70100 81500;
0107010030999992013020618004+77000+015500FM-12+001299999V0200301N004019999999N9999999N1-00581-00991101521ADDMA1999999101381MD1410001+9999REMSYN066AAXX  06181 01003 16/// /0304 11058 21099 30138 40152 54000 6////;
0101010030999992013020621004+77000+015500FM-12+001299999V0200501N003019999999N9999999N1-00501-00911101451ADDMA1999999101311MD1710061+9999REMSYN060AAXX  06211 01003 46/// /0503 11050 21091 30131 40145 57006;
0101010030999992013020622004+77000+015500FM-12+001299999V0200801N004019999999N9999999N1-00441-00771101441ADDMA1999999101301MD1710051+9999REMSYN060AAXX  06221 01003 46/// /0804 11044 21077 30130 40144 57005;
0117010030999992013020700004+77000+015500FM-12+001299999V0200601N005019999999N9999999N1-00401-00731101401ADDMA1999999101261MD1710051+9999REMSYN076AAXX  07001 01003 16/// /0605 11040 21073 30126 40140 57005 6//// 333 91108;
0101010030999992013020703004+77000+015500FM-12+001299999V0200601N005019999999N9999999N1-00361-00671101361ADDMA1999999101221MD1710041+9999REMSYN060AAXX  07031 01003 46/// /0605 11036 21067 30122 40136 57004;
0136010030999992013020706004+77000+015500FM-12+001299999V0200601N003019999999N9999999N1-00341-00661101351ADDKA1999N-00681MA1999999101211MD1410001+9999REMSYN082AAXX  07061 01003 16/// /0603 11034 21066 30121 40135 54001 6//// 333 21068 91109;
0101010030999992013020709004+77000+015500FM-12+001299999V0200601N005019999999N9999999N1-00481-00741101351ADDMA1999999101211MD1410001+9999REMSYN060AAXX  07091 01003 46/// /0605 11048 21074 30121 40135 54000;
0117010030999992013020712004+77000+015500FM-12+001299999V0200601N003019999999N9999999N1-00351-00631101401ADDMA1999999101261MD1210051+9999REMSYN076AAXX  07121 01003 16/// /0603 11035 21063 30126 40140 52005 6//// 333 91107;
0161010030999992013020715004+77000+015500FM-12+001299999V0200701N003010075019N0300001N1-00261-00681101401ADDAY171031AY221031GF107991071051008001999999MA1999999101261MD1410001+9999MW1031REMSYN072AAXX  07151 01003 41580 70703 11026 21068 30126 40140 54000 70372 875//;
0107010030999992013020718004+77000+015500FM-12+001299999V0200701N002019999999N9999999N1-00471-00801101431ADDMA1999999101291MD1210031+9999REMSYN066AAXX  07181 01003 16/// /0702 11047 21080 30129 40143 52003 6////;
0161010030999992013020721004+77000+015500FM-12+001299999V0200701N002012200019N0300001N1-00381-00811101471ADDAY101031AY201031GF103991031051008001001001MA1999999101331MD1010041+9999MW1021REMSYN072AAXX  07211 01003 41580 30702 11038 21081 30133 40147 50004 70200 83500;
0101010030999992013020723004+77000+015500FM-12+001299999V0200601N003019999999N9999999N1-00411-00861101491ADDMA1999999101351MD1210011+9999REMSYN060AAXX  07231 01003 46/// /0603 11041 21086 30135 40149 52001;
0207010030999992013020800004+77000+015500FM-12+001299999V0200601N004010075019N0200001N1-00401-00861101481ADDAA106000091AY111061AY211061GF107991071051008001999999MA1999999101341MD1410001+9999MW1031REMSYN088AAXX  08001 01003 11570 70604 11040 21086 30134 40148 54001 60001 70311 875// 333 91106;EQDQ01  00002PRCP06
0101010030999992013020801004+77000+015500FM-12+001299999V0200501N004019999999N9999999N1-00431-00891101491ADDMA1999999101351MD1210021+9999REMSYN060AAXX  08011 01003 46/// /0504 11043 21089 30135 40149 52002;
0161010030999992013020803004+77000+015500FM-12+001299999V0200601N004012200019N0200001N1-00391-00851101471ADDAY111031AY211031GF103991031051008001001001MA1999999101331MD1710021+9999MW1011REMSYN072AAXX  08031 01003 41570 30604 11039 21085 30133 40147 57002 70111 83500;
0101010030999992013020804004+77000+015500FM-12+001299999V0200501N004019999999N9999999N1-00521-00981101471ADDMA1999999101331MD1710021+9999REMSYN060AAXX  08041 01003 46/// /0504 11052 21098 30133 40147 57002;
0288010030999992013020806004+77000+015500FM-12+001299999V0200501N005010075019N0300001N1-00391-00871101431ADDAA112000091AA224000091AJ100089199999999AY111061AY211061GF106991061051008001001001IA1249KA1999N-00591MA1999999101291MD1810041+9999MW1031REMSYN106AAXX  08061 01003 11580 60505 11039 21087 30129 40143 58004 60002 70311 86500 333 21059 48008 79999 91106;EQDQ01  00002PRCP24Q02  00002PRCP12
0161010030999992013020809004+77000+015500FM-12+001299999V0200501N004010120019N0500001N1-00221-00741101401ADDAY121031AY221031GF106991061051012501001001MA1999999101261MD1710031+9999MW1021REMSYN072AAXX  08091 01003 41684 60504 11022 21074 30126 40140 57003 70222 86500;
0207010030999992013020812004+77000+015500FM-12+001299999V0201601N008010021019N0300001N1-00091-00481101341ADDAA106000091AY121061AY221061GF108991081051002501999999MA1999999101201MD1810061+9999MW1031REMSYN088AAXX  08121 01003 11380 81608 11009 21048 30120 40134 58006 60001 70322 885// 333 91111;EQDQ01  00002PRCP06
0161010030999992013020815004+77000+015500FM-12+001299999V0201901N005010006019N0080001N1-00121-00181101291ADDAY171031AY221031GF108991081071000751999999MA1999999101151MD1510051+9999MW1701REMSYN072AAXX  08151 01003 41158 81905 11012 21018 30115 40129 55005 77072 887//;
0161010030999992013020821004+77000+015500FM-12+001299999V0200601N002010042019N0150001N1-00181-00291101201ADDAY171031AY221031GF107991071051004501999999MA1999999101061MD1710031+9999MW1011REMSYN072AAXX  08211 01003 41465 70602 11018 21029 30106 40120 57003 70172 875//;
0117010030999992013020900004+77000+015500FM-12+001299999V0200701N004019999999N9999999N1-00111-00201101131ADDMA1999999100991MD1710071+9999REMSYN076AAXX  09001 01003 16/// /0704 11011 21020 30099 40113 57007 6//// 333 91105;
0161010030999992013020903004+77000+015500FM-12+001299999V0201901N003010012019N0120001N1-00141-00211101191ADDAY171031AY221031GF108991061071001501021999MA1999999101051MD1310061+9999MW1731REMSYN072AAXX  09031 01003 41262 81903 11014 21021 30105 40119 53006 77372 8672/;
0136010030999992013020906004+77000+015500FM-12+001299999V0200501N003019999999N9999999N1-00051-00111101031ADDKA1999N-00251MA1999999100891MD1810151+9999REMSYN082AAXX  09061 01003 16/// /0503 11005 21011 30089 40103 58015 6//// 333 21025 91110;
0101010030999992013020907004+77000+015500FM-12+001299999V0200701N004019999999N9999999N1-00031-00101101011ADDMA1999999100871MD1610151+9999REMSYN060AAXX  09071 01003 46/// /0704 11003 21010 30087 40101 56015;
0161010030999992013020909004+77000+015500FM-12+001299999V0202201N005010012019N0120001N1+00051-00121101011ADDAY171031AY221031GF108991061051001501021999MA1999999100871MD1510021+9999MW1011REMSYN072AAXX  09091 01003 41262 82205 10005 21012 30087 40101 55002 70172 8652/;
0188010030999992013020912004+77000+015500FM-12+001299999V0202501N004010012019N0090001N1-00021-00081101021ADDAA106000891AY171061AY221061GF108991081061001501999999MA1999999100881MD1410001+9999MW1221REMSYN088AAXX  09121 01003 11259 82504 11002 21008 30088 40102 54001 69971 72272 886// 333 91108;
0101010030999992013020914004+77000+015500FM-12+001299999V0202901N006019999999N9999999N1-00061-00261101171ADDMA1999999101031MD1310151+9999REMSYN060AAXX  09141 01003 46/// /2906 11006 21026 30103 40117 53015;
0161010030999992013020915004+77000+015500FM-12+001299999V0202901N004010012019N0120001N1-00041-00281101231ADDAY171031AY221031GF108991061051001501071999MA1999999101091MD1310221+9999MW1221REMSYN072AAXX  09151 01003 41262 82904 11004 21028 30109 40123 53022 72272 8657/;
0178010030999992013020918004+77000+015500FM-12+001299999V0202801N009010021019N0150001N1-00141-00361101311ADDAA112001091AY171061AY221061GF108991081051002501999999MA1999999101171MD1210071+9999MW1361REMSYN078AAXX  09181 01003 11365 82809 11014 21036 30117 40131 52007 60012 73672 885//;
0101010030999992013020919004+77000+015500FM-12+001299999V0202801N008019999999N9999999N1-00211-00501101371ADDMA1999999101231MD1310121+9999REMSYN060AAXX  09191 01003 46/// /2808 11021 21050 30123 40137 53012;
0161010030999992013020921004+77000+015500FM-12+001299999V0202801N007012200019N0200001N1-00331-00591101501ADDAY171031AY231031GF104991041051004501001001MA1999999101361MD1210191+9999MW1221REMSYN072AAXX  09211 01003 41470 42807 11033 21059 30136 40150 52019 72273 84500;
0188010030999992013021000004+77000+015500FM-12+001299999V0202901N007010042019N0150001N1-00391-00801101681ADDAA106000021AY171061AY231061GF108991081051004501999999MA1999999101541MD1210181+9999MW1361REMSYN088AAXX  10001 01003 11465 82907 11039 21080 30154 40168 52018 69921 73673 885// 333 91113;
0161010030999992013021003004+77000+015500FM-12+001299999V0202801N007010042019N0150001N1-00391-00761101801ADDAY131031AY221031GF108991081051004501999999MA1999999101661MD1310131+9999MW1021REMSYN072AAXX  10031 01003 41465 82807 11039 21076 30166 40180 53013 70232 885//;
0101010030999992013021004004+77000+015500FM-12+001299999V0203001N006019999999N9999999N1-00391-00761101851ADDMA1999999101711MD1310111+9999REMSYN060AAXX  10041 01003 46/// /3006 11039 21076 30171 40185 53011;
0101010030999992013021005004+77000+015500FM-12+001299999V0202901N007019999999N9999999N1-00371-00691101861ADDMA1999999101721MD1110121+9999REMSYN060AAXX  10051 01003 46/// /2907 11037 21069 30172 40186 51012;
0253010030999992013021006004+77000+015500FM-12+001299999V0203001N005010042019N0150001N1-00381-00671101891ADDAA112000021AA224001591AJ100159199999999AY131061AY221061GF108991081051004501999999IA1289KA1999N-00401MA1999999101751MD1210091+9999MW1021REMSYN106AAXX  10061 01003 11465 83005 11038 21067 30175 40189 52009 60002 70232 885// 333 21040 44015 70014 91113;
0161010030999992013021009004+77000+015500FM-12+001299999V0202701N004010042019N0300001N1-00331-00611101931ADDAY121031AY221031GF108991081051004501999999MA1999999101791MD1010041+9999MW1021REMSYN072AAXX  10091 01003 41480 82704 11033 21061 30179 40193 50004 70222 885//;
0101010030999992013021011004+77000+015500FM-12+001299999V0202601N004019999999N9999999N1-00331-00611101921ADDMA1999999101781MD1010011+9999REMSYN060AAXX  10111 01003 46/// /2604 11033 21061 30178 40192 50001;
0188010030999992013021012004+77000+015500FM-12+001299999V0202401N002010012019N0150001N1-00341-00541101871ADDAA106000021AY121061AY221061GF108991061051001501021999MA1999999101731MD1810061+9999MW1711REMSYN088AAXX  10121 01003 11265 82402 11034 21054 30173 40187 58006 69911 77122 8652/ 333 91108;
0161010030999992013021015004+77000+015500FM-12+001299999V0202701N005010006019N0005001N1-00101-00171101591ADDAY171031AY241031GF108991081071000751999999MA1999999101451MD1710281+9999MW1731REMSYN072AAXX  10151 01003 41105 82705 11010 21017 30145 40159 57028 77374 887//;
0255010030999992013021106004+77000+015500FM-12+001299999V0200701N002010075019N0200001N1-00361-00691102041ADDAA112000091AJ100169199999999AY111061AY211061GF107991071051008001999999IA1289KA1999N-00531MA1999999101911MD1110151+9999MW1031REMSYN100AAXX  11061 01003 11570 70702 11036 21069 30191 40204 51015 69902 70311 875// 333 21053 44016 91113;EQDQ01  00002PRCP12
0161010030999992013021109004+77000+015500FM-12+001299999V0200401N001010240019N0350001N1-00281-00701102141ADDAY121031AY221031GF107991031051012501031999MA1999999102041MD1110101+9999MW1031REMSYN072AAXX  11091 01003 41681 70401 11028 21070 30204 40214 51010 70322 8353/;
0207010030999992013021112004+77000+015500FM-12+001299999V0203501N004012200019N0400001N1-00101-00551102171ADDAA106000091AY111061AY211061GF103991031051004501031001MA1999999102041MD1010031+9999MW1011REMSYN088AAXX  11121 01003 31482 33504 11010 21055 30204 40217 50003 60001 70111 83530 333 91112;EQDQ01  00002PRCP06
0161010030999992013021115004+77000+015500FM-12+001299999V0202501N008010006019N0070001N1-00171-00231102241ADDAY111031AY211031GF108991071051000751999999MA1999999102111MD1210071+9999MW1701REMSYN072AAXX  11151 01003 41157 82508 11017 21023 30211 40224 52007 77011 875//;
0207010030999992013021118004+77000+015500FM-12+001299999V0203001N008012200019N0120001N1+00111-00241102261ADDAA112000021AY171061AY261061GF104991041051004501001001KA1120M+00111MA1999999102131MD1010021+9999MW1361REMSYN094AAXX  11181 01003 11462 43008 10011 21024 30213 40226 50002 69902 73676 84500 333 10011 91113;
0161010030999992013021121004+77000+015500FM-12+001299999V0203101N007010021019N0120001N1+00071-00111102361ADDAY131031AY211031GF108991081061002501999999MA1999999102231MD1310101+9999MW1681REMSYN072AAXX  11211 01003 41362 83107 10007 21011 30223 40236 53010 76831 886//;
0188010030999992013021200004+77000+015500FM-12+001299999V0203101N008012200019N0150001N1+00011-00311102451ADDAA106000021AY171061AY251061GF103991031051004501001001MA1999999102321MD1110091+9999MW1361REMSYN088AAXX  12001 01003 11465 33108 10001 21031 30232 40245 51009 69901 73675 83500 333 91113;
0161010030999992013021203004+77000+015500FM-12+001299999V0203501N005012200019N0120001N1-00011-00381102551ADDAY131031AY231031GF103991031051004501001001MA1999999102421MD1210101+9999MW1361REMSYN072AAXX  12031 01003 41462 33505 11001 21038 30242 40255 52010 73633 83500;
0207010030999992013021206004+77000+015500FM-12+001299999V0203301N002012200019N0300001N1-00011-00341102611ADDAA112000021AY131061AY201061GF103991031051004501031001KA1999N-00121MA1999999102481MD1210061+9999MW1021REMSYN094AAXX  12061 01003 11480 33302 11001 21034 30248 40261 52006 69902 70230 83530 333 21012 91112;
0161010030999992013021209004+77000+015500FM-12+001299999V0202901N004012200019N0500001N1-00041-00481102711ADDAY101031AY201031GF102991021051008001031001MA1999999102581MD1210101+9999MW1011REMSYN072AAXX  12091 01003 41584 22904 11004 21048 30258 40271 52010 70100 82530;
0207010030999992013021212004+77000+015500FM-12+001299999V0202701N005010240019N0500001N1-00031-00351102761ADDAA106000091AY111061AY211061GF106991011051012501051001MA1999999102631MD1210051+9999MW1031REMSYN088AAXX  12121 01003 31684 62705 11003 21035 30263 40276 52005 60001 70311 81550 333 91113;EQDQ01  00002PRCP06
0161010030999992013021215004+77000+015500FM-12+001299999V0202901N004012200019N0500001N1-00231-00401102761ADDAY101031AY201031GF101991011051012501001011MA1999999102631MD1010001+9999MW1021REMSYN072AAXX  12151 01003 41684 12904 11023 21040 30263 40276 50000 70200 81501;
0220010030999992013021218004+77000+015500FM-12+001299999V0200601N002012200019N0500001N1-00391-00581102811ADDAA112000091AY101061AY201061GF101991011051008001001011KA1999M+00071MA1999999102681MD1210051+9999MW1021REMSYN088AAXX  12181 01003 31584 10602 11039 21058 30268 40281 52005 60002 70200 81501 333 10007;EQDQ01  00002PRCP12
0180010030999992013021221004+77000+015500FM-12+001299999V0200601N001012200019N0400001N1-00291-00481102821ADDAY101031AY201031GF103991999051008001001001MA1999999102691MD1210011+9999MW1031REMSYN072AAXX  12211 01003 41582 30601 11029 21048 30269 40282 52001 70300 82500;EQDQ01+000022SCOTLC
0161010030999992013021309004+77000+015500FM-12+001299999V0202701N002010012019N0040001N1+00011-00021102521ADDAY121031AY221031GF108991081061001501999999MA1999999102391MD1710011+9999MW1101REMSYN072AAXX  13091 01003 41240 82702 10001 21002 30239 40252 57001 71022 886//;
0178010030999992013021312004+77000+015500FM-12+001299999V0209999C000010021019N0080001N1-00011-00051102471ADDAA106000591AY171061AY221061GF107991061051002501041999MA1999999102341MD1810051+9999MW1221REMSYN078AAXX  13121 01003 11358 70000 11001 21005 30234 40247 58005 69941 72272 8654/;
0161010030999992013021315004+77000+015500FM-12+001299999V0201001N003010240019N0300001N1-00121-00161102291ADDAY121031AY221031GF105991011071000751051001MA1999999102161MD1710181+9999MW1011REMSYN072AAXX  13151 01003 41180 51003 11012 21016 30216 40229 57018 70122 81750;
0201010030999992013021318004+77000+015500FM-12+001299999V0200801N001010012019N0030001N1-00301-00331102091ADDAA112000591AY121061AY221061GF107991071061001501999999KA1999M+00041MA1999999101961MD1610201+9999MW1101REMSYN088AAXX  13181 01003 11230 70801 11030 21033 30196 40209 56020 69942 71022 876// 333 10004;
0161010030999992013021321004+77000+015500FM-12+001299999V0200801N001010042019N0150001N1-00401-00461101861ADDAY121031AY221031GF106991061051004501001001MA1999999101731MD1810231+9999MW1011REMSYN072AAXX  13211 01003 41465 60801 11040 21046 30173 40186 58023 70122 86500;
0197010030999992013021400004+77000+015500FM-12+001299999V0201001N006010042019N0120001N1-00121-00251101611ADDAA106000091AY121061AY221061GF108991081051004501999999MA1999999101481MD1710251+9999MW1031REMSYN078AAXX  14001 01003 31462 81006 11012 21025 30148 40161 57025 60001 70322 885//;EQDQ01  00002PRCP06
0161010030999992013021403004+77000+015500FM-12+001299999V0200901N005010042019N0150001N1-00121-00361101421ADDAY171031AY221031GF108991081051004501999999MA1999999101291MD1810191+9999MW1021REMSYN072AAXX  14031 01003 41465 80905 11012 21036 30129 40142 58019 70272 885//;
0220010030999992013021406004+77000+015500FM-12+001299999V0200801N006010042019N0350001N1-00161-00441101211ADDAA112000091AY171061AY221061GF105991051051004501001001KA1999N-00541MA1999999101081MD1610211+9999MW1011REMSYN088AAXX  14061 01003 11481 50806 11016 21044 30108 40121 56021 69902 70172 85500 333 21054;EQDQ01  00002PRCP12
0161010030999992013021409004+77000+015500FM-12+001299999V0200801N003010075019N0400001N1-00261-00521101101ADDAY121031AY221031GF106991051051008001051001MA1999999100961MD1510051+9999MW1031REMSYN072AAXX  14091 01003 41582 60803 11026 21052 30096 40110 55005 70322 85550;
0197010030999992013021412004+77000+015500FM-12+001299999V0201001N004010240019N0400001N1-00471-00741101001ADDAA106000091AY121061AY221061GF105991031051008001051001MA1999999100861MD1710101+9999MW1011REMSYN078AAXX  14121 01003 11582 51004 11047 21074 30086 40100 57010 60001 70122 83550;EQDQ01  00002PRCP06
0161010030999992013021415004+77000+015500FM-12+001299999V0209999C000010240019N0500001N1-00431-00681100961ADDAY121031AY221031GF107991011051008001071999MA1999999100821MD1510041+9999MW1031REMSYN072AAXX  14151 01003 41584 70000 11043 21068 30082 40096 55004 70322 8157/;
0101010030999992013021417004+77000+015500FM-12+001299999V0202301N001019999999N9999999N1-00471-00741100941ADDMA1999999100801MD1710021+9999REMSYN060AAXX  14171 01003 46/// /2301 11047 21074 30080 40094 57002;
0197010030999992013021418004+77000+015500FM-12+001299999V0200601N001010240019N0250001N1-00501-00761100941ADDAA112000091AY121061AY221061GF106991041051008001031001MA1999999100801MD1710011+9999MW1011REMSYN078AAXX  14181 01003 11575 60601 11050 21076 30080 40094 57001 60002 70122 84530;EQDQ01  00002PRCP12
0161010030999992013021421004+77000+015500FM-12+001299999V0200701N001010075019N0150001N1-00391-00671100971ADDAY121031AY221031GF108991081051008001999999MA1999999100831MD1210031+9999MW1031REMSYN072AAXX  14211 01003 41565 80701 11039 21067 30083 40097 52003 70322 885//;
0207010030999992013021500004+77000+015500FM-12+001299999V0200701N002012200019N0200001N1-00411-00601101001ADDAA106000091AY111061AY211061GF102991021051008001001001MA1999999100861MD1210031+9999MW1011REMSYN088AAXX  15001 01003 11570 20702 11041 21060 30086 40100 52003 60001 70111 82500 333 91103;EQDQ01  00002PRCP06
0161010030999992013021503004+77000+015500FM-12+001299999V0200901N001010075019N0200001N1-00321-00541101091ADDAY111031AY211031GF108991051051008001011999MA1999999100961MD1310061+9999MW1031REMSYN072AAXX  15031 01003 41570 80901 11032 21054 30096 40109 53006 70311 8551/;
0101010030999992013021504004+77000+015500FM-12+001299999V0209999C000019999999N9999999N1-00421-00581101091ADDMA1999999100951MD1210081+9999REMSYN060AAXX  15041 01003 46/// /0000 11042 21058 30095 40109 52008;
0249010030999992013021506004+77000+015500FM-12+001299999V0209999C000012200019N0300001N1-00411-00571101181ADDAA112000091AJ100149199999999AY111061AY211061GF103991031051008001001001IA1289KA1999N-00471MA1999999101051MD1310091+9999MW1011REMSYN094AAXX  15061 01003 31580 30000 11041 21057 30105 40118 53009 60002 70111 83500 333 21047 44014;EQDQ01  00002PRCP12
0161010030999992013021509004+77000+015500FM-12+001299999V0203201N007012200019N0300001N1-00621-01001101341ADDAY101031AY201031GF101991011051008001001001MA1999999101201MD1310191+9999MW1011REMSYN072AAXX  15091 01003 41580 13207 11062 21100 30120 40134 53019 70100 81500;
0207010030999992013021512004+77000+015500FM-12+001299999V0203001N006012200019N0500001N1-00801-01321101471ADDAA106000091AY101061AY201061GF101991011051008001001001MA1999999101331MD1310141+9999MW1021REMSYN088AAXX  15121 01003 11584 13006 11080 21132 30133 40147 53014 60001 70200 81500 333 91114;EQDQ01  00002PRCP06
0161010030999992013021515004+77000+015500FM-12+001299999V0200701N002012200019N0500001N1-00931-01441101651ADDAY101031AY201031GF101991011051008001001001MA1999999101521MD1110161+9999MW1021REMSYN072AAXX  15151 01003 41584 10702 11093 21144 30152 40165 51016 70200 81500;
0101010030999992013021517004+77000+015500FM-12+001299999V0200201N001019999999N9999999N1-01271-01821101751ADDMA1999999101601MD1310151+9999REMSYN060AAXX  15171 01003 46/// /0201 11127 21182 30160 40175 53015;
0197010030999992013021518004+77000+015500FM-12+001299999V0200601N004012200019N0500001N1-01101-01661101811ADDAA112000091AY101061AY201061GF101991011051008001001001MA1999999101661MD1210161+9999MW1021REMSYN078AAXX  15181 01003 11584 10604 11110 21166 30166 40181 52016 60002 70200 81500;EQDQ01  00002PRCP12
0161010030999992013021521004+77000+015500FM-12+001299999V0200701N005012200019N0300001N1-00981-01451101991ADDAY101031AY201031GF102991021051008001001001MA1999999101861MD1110191+9999MW1031REMSYN072AAXX  15211 01003 41580 20705 11098 21145 30186 40199 51019 70300 82500;
0101010030999992013021522004+77000+015500FM-12+001299999V0200501N006019999999N9999999N1-01021-01461102021ADDMA1999999101871MD1210141+9999REMSYN060AAXX  15221 01003 46/// /0506 11102 21146 30187 40202 52014;
0101010030999992013021523004+77000+015500FM-12+001299999V0200601N005019999999N9999999N1-01111-01491102041ADDMA1999999101891MD1110111+9999REMSYN060AAXX  15231 01003 46/// /0605 11111 21149 30189 40204 51011;
0197010030999992013021600004+77000+015500FM-12+001299999V0200601N005012200019N0300001N1-01071-01451102071ADDAA106000091AY101061AY201061GF102991021051008001001001MA1999999101941MD1110081+9999MW1021REMSYN078AAXX  16001 01003 31580 20605 11107 21145 30194 40207 51008 60001 70200 82500;EQDQ01  00002PRCP06
0161010030999992013021603004+77000+015500FM-12+001299999V0200601N004012200019N0350001N1-01111-01461102101ADDAY101031AY201031GF101991011051008001001001MA1999999101971MD1210031+9999MW1011REMSYN072AAXX  16031 01003 41581 10604 11111 21146 30197 40210 52003 70100 81500;
0263010030999992013021606004+77000+015500FM-12+001299999V0200401N006012200019N0350001N1-01121-01511102131ADDAA112000091AA224000091AJ100149199999999AY101061AY201061GF102991011051008001011001IA1289MA1999999101981MD1210051+9999MW1031REMSYN094AAXX  16061 01003 11581 20406 11112 21151 30198 40213 52005 60002 70300 81510 333 44014 70000;EQDQ01  00002PRCP24Q02  00002PRCP12
0161010030999992013021609004+77000+015500FM-12+001299999V0200601N007010240019N0400001N1-01071-01421102081ADDAY111031AY211031GF105991031051012501031001MA1999999101931MD1810041+9999MW1031REMSYN072AAXX  16091 01003 41682 50607 11107 21142 30193 40208 58004 70311 83530;
0207010030999992013021612004+77000+015500FM-12+001299999V0200601N007010240019N0350001N1-00971-01401102011ADDAA106000091AY111061AY211061GF106991021051012501071021MA1999999101861MD1810071+9999MW1031REMSYN088AAXX  16121 01003 11681 60607 11097 21140 30186 40201 58007 60001 70311 82572 333 91110;EQDQ01  00002PRCP06
0161010030999992013021615004+77000+015500FM-12+001299999V0200501N007010240019N0300001N1-00931-01331101991ADDAY121031AY221031GF108991021051002501021999MA1999999101841MD1510021+9999MW1031REMSYN072AAXX  16151 01003 41380 80507 11093 21133 30184 40199 55002 70322 8252/;
0220010030999992013021618004+77000+015500FM-12+001299999V0200901N009010240019N0150001N1-00811-01111101931ADDAA112000091AY171061AY221061GF108991031051004501021999KA1999M-00791MA1999999101801MD1810071+9999MW1361REMSYN088AAXX  16181 01003 11465 80909 11081 21111 30180 40193 58007 69912 73672 8352/ 333 11079;EQDQ01  00002PRCP12
0161010030999992013021621004+77000+015500FM-12+001299999V0200801N011010240019N0200001N1-00741-01101101801ADDAY131031AY231031GF107991031051008001031999MA1999999101661MD1710101+9999MW1711REMSYN072AAXX  16211 01003 41570 70811 11074 21110 30166 40180 57010 77133 8353/;
0101010030999992013021623004+77000+015500FM-12+001299999V0200801N010019999999N9999999N1-00661-01071101721ADDMA1999999101581MD1810121+9999REMSYN060AAXX  16231 01003 46/// /0810 11066 21107 30158 40172 58012;
0188010030999992013021700004+77000+015500FM-12+001299999V0200901N009010075019N0150001N1-00581-00921101711ADDAA106000021AY171061AY231061GF108991071051008001999999MA1999999101581MD1510051+9999MW1361REMSYN088AAXX  17001 01003 11565 80909 11058 21092 30158 40171 55005 69901 73673 875// 333 91116;
0161010030999992013021703004+77000+015500FM-12+001299999V0200701N009010075019N0150001N1-00481-00841101611ADDAY131031AY231031GF108991071051008001999999MA1999999101471MD1810051+9999MW1361REMSYN072AAXX  17031 01003 41565 80709 11048 21084 30147 40161 58005 73633 875//;
0101010030999992013021704004+77000+015500FM-12+001299999V0200601N008019999999N9999999N1-00451-00771101581ADDMA1999999101441MD1710081+9999REMSYN060AAXX  17041 01003 46/// /0608 11045 21077 30144 40158 57008;
0236010030999992013021706004+77000+015500FM-12+001299999V0200801N006010042019N0200001N1-00391-00651101591ADDAA112000021AJ100159199999999AY131061AY221061GF107991071051004501999999IA1239KA1999N-00821MA1999999101461MD1710031+9999MW1011REMSYN100AAXX  17061 01003 11470 70806 11039 21065 30146 40159 57003 69902 70132 875// 333 21082 47015 91113;
0161010030999992013021709004+77000+015500FM-12+001299999V0200701N004010240019N0500001N1-00321-00691101611ADDAY121031AY221031GF106991031081004501031011MA1999999101481MD1110021+9999MW1011REMSYN072AAXX  17091 01003 41484 60704 11032 21069 30148 40161 51002 70122 83831;
0197010030999992013021712004+77000+015500FM-12+001299999V0201101N005012200019N0400001N1-00431-00601101631ADDAA106000091AY111061AY211061GF104991031051008001031001MA1999999101501MD1210021+9999MW1011REMSYN078AAXX  17121 01003 31582 41105 11043 21060 30150 40163 52002 60001 70111 83530;EQDQ01  00002PRCP06
0161010030999992013021715004+77000+015500FM-12+001299999V0201001N002010042019N0150001N1-00491-00651101641ADDAY111031AY211031GF108991081051004501999999MA1999999101501MD1210031+9999MW1701REMSYN072AAXX  17151 01003 41465 81002 11049 21065 30150 40164 52003 77011 885//;
0101010030999992013021717004+77000+015500FM-12+001299999V0203201N005019999999N9999999N1-00341-00661101641ADDMA1999999101501MD1210031+9999REMSYN060AAXX  17171 01003 46/// /3205 11034 21066 30150 40164 52003;
0207010030999992013021718004+77000+015500FM-12+001299999V0203101N006010042019N0150001N1-00351-00751101701ADDAA112000021AY171061AY211061GF108991071051004501999999KA1120M-00301MA1999999101571MD1310031+9999MW1361REMSYN094AAXX  17181 01003 11465 83106 11035 21075 30157 40170 53003 69922 73671 875// 333 11030 91110;
0101010030999992013021720004+77000+015500FM-12+001299999V0202801N006019999999N9999999N1-00421-00921101751ADDMA1999999101611MD1210111+9999REMSYN060AAXX  17201 01003 46/// /2806 11042 21092 30161 40175 52011;
0161010030999992013021721004+77000+015500FM-12+001299999V0202801N006010042019N0150001N1-00401-00971101781ADDAY121031AY221031GF108991081051004501999999MA1999999101641MD1210101+9999MW1021REMSYN072AAXX  17211 01003 41465 82806 11040 21097 30164 40178 52010 70222 885//;
0197010030999992013021800004+77000+015500FM-12+001299999V0202901N005010075019N0250001N1-00371-00781101871ADDAA106000091AY121061AY221061GF108991081051008001999999MA1999999101741MD1210061+9999MW1021REMSYN078AAXX  18001 01003 31575 82905 11037 21078 30174 40187 52006 60001 70222 885//;EQDQ01  00002PRCP06
0161010030999992013021803004+77000+015500FM-12+001299999V0203101N003010042019N0200001N1-00471-00801101921ADDAY121031AY221031GF108991081051004501999999MA1999999101791MD1110051+9999MW1021REMSYN072AAXX  18031 01003 41470 83103 11047 21080 30179 40192 51005 70222 885//;
0101010030999992013021804004+77000+015500FM-12+001299999V0203001N003019999999N9999999N1-00491-01131101911ADDMA1999999101771MD1210051+9999REMSYN060AAXX  18041 01003 46/// /3003 11049 21113 30177 40191 52005;
0101010030999992013021805004+77000+015500FM-12+001299999V0203201N004019999999N9999999N1-00581-01241101961ADDMA1999999101821MD1310091+9999REMSYN060AAXX  18051 01003 46/// /3204 11058 21124 30182 40196 53009;
0272010030999992013021806004+77000+015500FM-12+001299999V0200201N003012200019N0250001N1-00751-01361102021ADDAA112000091AA224000391AJ100159199999999AY111061AY211061GF104991031051004501031011IA1239KA1999N-00751MA1999999101881MD1310121+9999MW1011REMSYN106AAXX  18061 01003 11475 40203 11075 21136 30188 40202 53012 60002 70111 83531 333 21075 47015 70002 91109;EQDQ01  00002PRCP12
0101010030999992013021808004+77000+015500FM-12+001299999V0203601N004019999999N9999999N1-00801-01371102121ADDMA1999999101971MD1210151+9999REMSYN060AAXX  18081 01003 46/// /3604 11080 21137 30197 40212 52015;
0161010030999992013021809004+77000+015500FM-12+001299999V0200701N003012200019N0250001N1-00831-01191102201ADDAY101031AY201031GF104991021051004501001011MA1999999102071MD1310161+9999MW1021REMSYN072AAXX  18091 01003 41475 40703 11083 21119 30207 40220 53016 70200 82501;
0197010030999992013021812004+77000+015500FM-12+001299999V0200701N003010240019N0350001N1-00701-01021102321ADDAA106000091AY111061AY211061GF106991021051008001051011MA1999999102191MD1210121+9999MW1031REMSYN078AAXX  18121 01003 31581 60703 11070 21102 30219 40232 52012 60001 70311 82551;EQDQ01  00002PRCP06
0101010030999992013021813004+77000+015500FM-12+001299999V0200801N008019999999N9999999N1-00681-01041102281ADDMA1999999102141MD1110051+9999REMSYN060AAXX  18131 01003 46/// /0808 11068 21104 30214 40228 51005;
0161010030999992013021815004+77000+015500FM-12+001299999V0200601N005010240019N0400001N1-00741-01161102331ADDAY121031AY221031GF106991041051008001051001MA1999999102181MD1310041+9999MW1021REMSYN072AAXX  18151 01003 41582 60605 11074 21116 30218 40233 53004 70222 84550;
0220010030999992013021818004+77000+015500FM-12+001299999V0200801N003010240019N0300001N1-00711-01071102381ADDAA112000091AY121061AY221061GF107991031051008001071999KA1999M-00591MA1999999102251MD1110061+9999MW1031REMSYN088AAXX  18181 01003 31580 70803 11071 21107 30225 40238 51006 60002 70322 8357/ 333 11059;EQDQ01  00002PRCP12
0101010030999992013021819004+77000+015500FM-12+001299999V0200601N006019999999N9999999N1-00861-01241102331ADDMA1999999102181MD1810011+9999REMSYN060AAXX  18191 01003 46/// /0606 11086 21124 30218 40233 58001;
0101010030999992013021820004+77000+015500FM-12+001299999V0200501N005019999999N9999999N1-00801-01201102361ADDMA1999999102211MD1510001+9999REMSYN060AAXX  18201 01003 46/// /0505 11080 21120 30221 40236 55000;
0161010030999992013021821004+77000+015500FM-12+001299999V0200501N004010075019N0300001N1-00791-01211102331ADDAY121031AY221031GF108991081051008001999999MA1999999102181MD1710031+9999MW1031REMSYN072AAXX  18211 01003 41580 80504 11079 21121 30218 40233 57003 70322 885//;
0178010030999992013021900004+77000+015500FM-12+001299999V0200601N004010042019N0150001N1-00741-01001102291ADDAA106000021AY121061AY221061GF108991081051004501999999MA1999999102161MD1610041+9999MW1711REMSYN078AAXX  19001 01003 11465 80604 11074 21100 30216 40229 56004 69921 77122 885//;
0101010030999992013021901004+77000+015500FM-12+001299999V0200601N004019999999N9999999N1-00771-01051102241ADDMA1999999102091MD1710061+9999REMSYN060AAXX  19011 01003 46/// /0604 11077 21105 30209 40224 57006;
0161010030999992013021903004+77000+015500FM-12+001299999V0200901N004010042019N0200001N1-00701-01051102191ADDAY171031AY221031GF106991061051004501001001MA1999999102061MD1810101+9999MW1011REMSYN072AAXX  19031 01003 41470 60904 11070 21105 30206 40219 58010 70172 86500;
0101010030999992013021904004+77000+015500FM-12+001299999V0200601N004019999999N9999999N1-00721-01141102131ADDMA1999999101991MD1710101+9999REMSYN060AAXX  19041 01003 46/// /0604 11072 21114 30199 40213 57010;
0253010030999992013021906004+77000+015500FM-12+001299999V0200801N004010075019N0250001N1-00701-01091102131ADDAA112000021AA224000021AJ100169199999999AY171061AY221061GF106991061051008001001001IA1239KA1999N-00941MA1999999101991MD1710021+9999MW1021REMSYN106AAXX  19061 01003 11575 60804 11070 21109 30199 40213 57002 69902 70272 86500 333 21094 47016 79999 91107;
0101010030999992013021908004+77000+015500FM-12+001299999V0200701N003019999999N9999999N1-00711-01071102151ADDMA1999999102011MD1310021+9999REMSYN060AAXX  19081 01003 46/// /0703 11071 21107 30201 40215 53002;
0161010030999992013021909004+77000+015500FM-12+001299999V0200701N002010075019N0300001N1-00731-01091102161ADDAY121031AY221031GF106991061051008001001001MA1999999102021MD1310041+9999MW1021REMSYN072AAXX  19091 01003 41580 60702 11073 21109 30202 40216 53004 70222 86500;
0101010030999992013021910004+77000+015500FM-12+001299999V0203501N004019999999N9999999N1-00731-01251102181ADDMA1999999102041MD1110071+9999REMSYN060AAXX  19101 01003 46/// /3504 11073 21125 30204 40218 51007;
0197010030999992013021912004+77000+015500FM-12+001299999V0209999C004010600019N0300001N1-00691-01441102201ADDAA106000091AY121061AY221061GF105991011051012501041081MA1999999102071MD1010001+9999MW1011REMSYN078AAXX  19121 01003 31680 50004 11069 21144 30207 40220 50000 60001 70122 81548;EQDQ01  00002PRCP06
0101010030999992013021913004+77000+015500FM-12+001299999V0200601N005019999999N9999999N1-00771-01361102151ADDMA1999999102001MD1810041+9999REMSYN060AAXX  19131 01003 46/// /0605 11077 21136 30200 40215 58004;
0161010030999992013021915004+77000+015500FM-12+001299999V0200601N005010240019N0350001N1-00831-01381102141ADDAY121031AY221031GF108991031051008001011999MA1999999102011MD1710061+9999MW1031REMSYN072AAXX  19151 01003 41581 80605 11083 21138 30201 40214 57006 70322 8351/;
0220010030999992013021918004+77000+015500FM-12+001299999V0200801N007010240019N0350001N1-00831-01241102061ADDAA112000091AY121061AY221061GF107991021051008001011999KA1999M-00631MA1999999101931MD1810081+9999MW1011REMSYN088AAXX  19181 01003 31581 70807 11083 21124 30193 40206 58008 60002 70122 8251/ 333 11063;EQDQ01  00002PRCP12
0101010030999992013021919004+77000+015500FM-12+001299999V0200901N010019999999N9999999N1-00911-01321102001ADDMA1999999101851MD1810081+9999REMSYN060AAXX  19191 01003 46/// /0910 11091 21132 30185 40200 58008;
0161010030999992013021921004+77000+015500FM-12+001299999V0200901N009010240019N0200001N1-00881-01431101931ADDAY131031AY221031GF107991041051008001011999MA1999999101801MD1610131+9999MW1361REMSYN072AAXX  19211 01003 41570 70909 11088 21143 30180 40193 56013 73632 8451/;
0101010030999992013021922004+77000+015500FM-12+001299999V0200801N011019999999N9999999N1-00961-01391101811ADDMA1999999101661MD1810181+9999REMSYN060AAXX  19221 01003 46/// /0811 11096 21139 30166 40181 58018;
0188010030999992013022000004+77000+015500FM-12+001299999V0200901N012010012019N0080001N1-00981-01181101681ADDAA106000021AY131061AY221061GF108991081071001501999999MA1999999101551MD1610251+9999MW1711REMSYN088AAXX  20001 01003 11258 80912 11098 21118 30155 40168 56025 69901 77132 887// 333 91117;
0161010030999992013022003004+77000+015500FM-12+001299999V0200901N015010006019N0040001N1-01021-01231101311ADDAY171031AY231031GF108991081071000751999999MA1999999101181MD1610371+9999MW1711REMSYN072AAXX  20031 01003 41140 80915 11102 21123 30118 40131 56037 77173 887//;
0101010030999992013022004004+77000+015500FM-12+001299999V0200801N016019999999N9999999N1-01081-01411101161ADDMA1999999101011MD1810361+9999REMSYN060AAXX  20041 01003 46/// /0816 11108 21141 30101 40116 58036;
0101010030999992013022005004+77000+015500FM-12+001299999V0200701N016019999999N9999999N1-01101-01451101031ADDMA1999999100881MD1710361+9999REMSYN060AAXX  20051 01003 46/// /0716 11110 21145 30088 40103 57036;
0236010030999992013022006004+77000+015500FM-12+001299999V0200801N018010006019N0005001N1-01111-01371100731ADDAA112000391AJ100169199999999AY171061AY231061GF108991081071000751999999IA1239KA1999N-01111MA1999999100601MD1810581+9999MW1711REMSYN100AAXX  20061 01003 11105 80818 11111 21137 30060 40073 58058 69932 77173 887// 333 21111 47016 91128;
0101010030999992013022007004+77000+015500FM-12+001299999V0200601N018019999999N9999999N1-01221-01521100761ADDMA1999999100611MD1610441+9999REMSYN060AAXX  20071 01003 46/// /0618 11122 21152 30061 40076 56044;
0101010030999992013022008004+77000+015500FM-12+001299999V0200701N019019999999N9999999N1-01211-01541100571ADDMA1999999100421MD1610451+9999REMSYN060AAXX  20081 01003 46/// /0719 11121 21154 30042 40057 56045;
0075010030999992013022009004+77000+015500FM-12+001299999V02099999999999999999N9999999N1-01171-01491999999REMSYN066AAXX  20091 01003 41X05 90618 11117 21149 30032 40046 58034 73973;
0101010030999992013022010004+77000+015500FM-12+001299999V0200601N016019999999N9999999N1-01171-01501100371ADDMA1999999100231MD1610341+9999REMSYN060AAXX  20101 01003 46/// /0616 11117 21150 30023 40037 56034;
0091010030999992013022012004+77000+015500FM-12+001299999V02099999999999999999N9999999N1-01201-01641999999REMSYN082AAXX  20121 01003 11X08 90719 11120 21164 30014 40028 56016 69931 73973 333 91130;
0101010030999992013022013004+77000+015500FM-12+001299999V0200801N014019999999N9999999N1-01251-01651100401ADDMA1999999100251MD1310051+9999REMSYN060AAXX  20131 01003 46/// /0814 11125 21165 30025 40040 53005;
0101010030999992013022014004+77000+015500FM-12+001299999V0200701N010019999999N9999999N1-01281-01711100581ADDMA1999999100431MD1310271+9999REMSYN060AAXX  20141 01003 46/// /0710 11128 21171 30043 40058 53027;
0161010030999992013022015004+77000+015500FM-12+001299999V0200701N010010012019N0080001N1-01401-01811100701ADDAY131031AY231031GF108991081071001501999999MA1999999100551MD1310401+9999MW1361REMSYN072AAXX  20151 01003 41258 80710 11140 21181 30055 40070 53040 73633 887//;
0178010030999992013022018004+77000+015500FM-12+001299999V0200201N006010240019N0250001N1-01601-02211101161ADDAA112000021AY131061AY221061GF106991031051008001031001MA1999999101011MD1110461+9999MW1011REMSYN078AAXX  20181 01003 11575 60206 11160 21221 30101 40116 51046 60002 70132 83530;
0101010030999992013022020004+77000+015500FM-12+001299999V0200201N006019999999N9999999N1-01701-02341101441ADDMA1999999101291MD1110431+9999REMSYN060AAXX  20201 01003 46/// /0206 11170 21234 30129 40144 51043;
0161010030999992013022021004+77000+015500FM-12+001299999V0200101N005012200019N0500001N1-01801-02441101591ADDAY111031AY211031GF101991011051008001041001MA1999999101441MD1110421+9999MW1011REMSYN072AAXX  20211 01003 41584 10105 11180 21244 30144 40159 51042 70111 81540;
0101010030999992013022022004+77000+015500FM-12+001299999V0203601N005019999999N9999999N1-01891-02491101701ADDMA1999999101551MD1110391+9999REMSYN060AAXX  20221 01003 46/// /3605 11189 21249 30155 40170 51039;
0101010030999992013022023004+77000+015500FM-12+001299999V0200501N006019999999N9999999N1-01881-02341101771ADDMA1999999101621MD1110331+9999REMSYN060AAXX  20231 01003 46/// /0506 11188 21234 30162 40177 51033;
0197010030999992013022100004+77000+015500FM-12+001299999V0200501N004012200019N0500001N1-01931-02561101811ADDAA106000091AY111061AY211061GF101991011051012501001001MA1999999101661MD1110231+9999MW1011REMSYN078AAXX  21001 01003 11684 10504 11193 21256 30166 40181 51023 60001 70111 81500;EQDQ01  00002PRCP06
