0147010070999992013010100004+78917+011933FM-12+000899999V0201001N010019999999N9999999N1+00111-00431099181ADDAA106000091MA1999999099091MD1310021+9999REMSYN076AAXX  01001 01007 16/// /1010 10011 21043 39909 49918 53002 60001 333 91118;EQDQ01  00002PRCP06
0101010070999992013010101004+78917+011933FM-12+000899999V0201101N011019999999N9999999N1+00181-00381099201ADDMA1999999099111MD1310071+9999REMSYN060AAXX  01011 01007 46/// /1111 10018 21038 39911 49920 53007;
0101010070999992013010102004+78917+011933FM-12+000899999V0201101N014019999999N9999999N1+00141-00421099171ADDMA1999999099081MD1010041+9999REMSYN060AAXX  01021 01007 46/// /1114 10014 21042 39908 49917 50004;
0101010070999992013010103004+78917+011933FM-12+000899999V0201101N013019999999N9999999N1+00161-00341099191ADDMA1999999099091MD1010011+9999REMSYN060AAXX  01031 01007 46/// /1113 10016 21034 39909 49919 50001;
0101010070999992013010104004+78917+011933FM-12+000899999V0201201N012019999999N9999999N1+00131-00471099251ADDMA1999999099151MD1310041+9999REMSYN060AAXX  01041 01007 46/// /1212 10013 21047 39915 49925 53004;
0101010070999992013010105004+78917+011933FM-12+000899999V0201101N012019999999N9999999N1+00121-00481099271ADDMA1999999099171MD1010091+9999REMSYN060AAXX  01051 01007 46/// /1112 10012 21048 39917 49927 50009;
0288010070999992013010106004+78917+011933FM-12+000899999V0201101N009010120019N0750001N1+00131-00491099311ADDAA112000091AA224000091AJ100049199999999AY121061AY221061GF108991081051012501999999IA1299KA1999N-00031MA1999999099221MD1110131+9999MW1021REMSYN106AAXX  01061 01007 11689 81109 10013 21049 39922 49931 51013 60002 70222 885// 333 21003 49004 70000 91118;EQDQ01  00002PRCP24Q02  00002PRCP12
0101010070999992013010107004+78917+011933FM-12+000899999V0201101N010019999999N9999999N1+00181-00451099361ADDMA1999999099271MD1310111+9999REMSYN060AAXX  01071 01007 46/// /1110 10018 21045 39927 49936 53011;
0101010070999992013010108004+78917+011933FM-12+000899999V0201001N009019999999N9999999N1+00181-00451099381ADDMA1999999099281MD1010111+9999REMSYN060AAXX  01081 01007 46/// /1009 10018 21045 39928 49938 50011;
0101010070999992013010109004+78917+011933FM-12+000899999V0201101N012019999999N9999999N1+00171-00501099381ADDMA1999999099281MD1010071+9999REMSYN060AAXX  01091 01007 46/// /1112 10017 21050 39928 49938 50007;
0101010070999992013010110004+78917+011933FM-12+000899999V0201101N010019999999N9999999N1+00171-00481099421ADDMA1999999099331MD1310061+9999REMSYN060AAXX  01101 01007 46/// /1110 10017 21048 39933 49942 53006;
0101010070999992013010111004+78917+011933FM-12+000899999V0200901N010019999999N9999999N1+00161-00601099471ADDMA1999999099381MD1310091+9999REMSYN060AAXX  01111 01007 46/// /0910 10016 21060 39938 49947 53009;
0207010070999992013010112004+78917+011933FM-12+000899999V0201001N011012200019N0750001N1+00171-00561099421ADDAA106000091AY121061AY211061GF102991001001999999001021MA1999999099321MD1010041+9999MW1021REMSYN088AAXX  01121 01007 11989 21011 10017 21056 39932 49942 50004 60001 70221 80002 333 91115;EQDQ01  00002PRCP06
0101010070999992013010113004+78917+011933FM-12+000899999V0201101N012019999999N9999999N1+00131-00491099391ADDMA1999999099301MD1810031+9999REMSYN060AAXX  01131 01007 46/// /1112 10013 21049 39930 49939 58003;
0101010070999992013010114004+78917+011933FM-12+000899999V0201001N010019999999N9999999N1+00121-00521099411ADDMA1999999099311MD1610061+9999REMSYN060AAXX  01141 01007 46/// /1010 10012 21052 39931 49941 56006;
0101010070999992013010115004+78917+011933FM-12+000899999V0200901N010019999999N9999999N1+00161-00531099441ADDMA1999999099351MD1310021+9999REMSYN060AAXX  01151 01007 46/// /0910 10016 21053 39935 49944 53002;
0101010070999992013010116004+78917+011933FM-12+000899999V0200901N009019999999N9999999N1+00071-00551099421ADDMA1999999099321MD1010021+9999REMSYN060AAXX  01161 01007 46/// /0909 10007 21055 39932 49942 50002;
0101010070999992013010117004+78917+011933FM-12+000899999V0201001N008019999999N9999999N1+00061-00521099431ADDMA1999999099341MD1010021+9999REMSYN060AAXX  01171 01007 46/// /1008 10006 21052 39934 49943 50002;
0226010070999992013010118004+78917+011933FM-12+000899999V0200901N009012200019N0750001N1+00091-00571099431ADDAA112000091AY101061AY201061GF101991001001999999001021KA1120M+00221MA1999999099341MD1610011+9999MW1021REMSYN094AAXX  01181 01007 11989 10909 10009 21057 39934 49943 56001 60002 70200 80002 333 10022 91114;EQDQ01  00002PRCP12
0101010070999992013010119004+78917+011933FM-12+000899999V0200901N009019999999N9999999N1+00051-00551099431ADDMA1999999099331MD1210011+9999REMSYN060AAXX  01191 01007 46/// /0909 10005 21055 39933 49943 52001;
0101010070999992013010120004+78917+011933FM-12+000899999V0200901N009019999999N9999999N1+00051-00491099431ADDMA1999999099341MD1410001+9999REMSYN060AAXX  01201 01007 46/// /0909 10005 21049 39934 49943 54000;
0101010070999992013010121004+78917+011933FM-12+000899999V0200801N008019999999N9999999N1+00091-00511099441ADDMA1999999099341MD1410001+9999REMSYN060AAXX  01211 01007 46/// /0808 10009 21051 39934 49944 54000;
0101010070999992013010122004+78917+011933FM-12+000899999V0200801N007019999999N9999999N1+00111-00511099451ADDMA1999999099361MD1210031+9999REMSYN060AAXX  01221 01007 46/// /0807 10011 21051 39936 49945 52003;
0101010070999992013010123004+78917+011933FM-12+000899999V0200901N008019999999N9999999N1+00151-00431099441ADDMA1999999099341MD1210011+9999REMSYN060AAXX  01231 01007 46/// /0908 10015 21043 39934 49944 52001;
0147010070999992013010200004+78917+011933FM-12+000899999V0200901N008019999999N9999999N1+00171-00521099431ADDAA106000091MA1999999099341MD1010001+9999REMSYN076AAXX  02001 01007 16/// /0908 10017 21052 39934 49943 50000 60001 333 91111;EQDQ01  00002PRCP06
0101010070999992013010201004+78917+011933FM-12+000899999V0200901N007019999999N9999999N1+00171-00481099431ADDMA1999999099341MD1710021+9999REMSYN060AAXX  02011 01007 46/// /0907 10017 21048 39934 49943 57002;
0101010070999992013010202004+78917+011933FM-12+000899999V0200801N007019999999N9999999N1+00111-00491099411ADDMA1999999099321MD1710021+9999REMSYN060AAXX  02021 01007 46/// /0807 10011 21049 39932 49941 57002;
0101010070999992013010203004+78917+011933FM-12+000899999V0200801N008019999999N9999999N1+00101-00561099411ADDMA1999999099321MD1710021+9999REMSYN060AAXX  02031 01007 46/// /0808 10010 21056 39932 49941 57002;
0101010070999992013010204004+78917+011933FM-12+000899999V0200801N010019999999N9999999N1+00081-00441099381ADDMA1999999099291MD1710051+9999REMSYN060AAXX  02041 01007 46/// /0810 10008 21044 39929 49938 57005;
0101010070999992013010205004+78917+011933FM-12+000899999V0200901N009019999999N9999999N1+00071-00451099351ADDMA1999999099261MD1710061+9999REMSYN060AAXX  02051 01007 46/// /0909 10007 21045 39926 49935 57006;
0271010070999992013010206004+78917+011933FM-12+000899999V0200901N008010120019N0750001N1+00041-00461099341ADDAA112000091AA224000091AY121061AY201061GF108991081051012501999999IA1309KA1999N+00021MA1999999099241MD1710071+9999MW1031REMSYN106AAXX  02061 01007 11689 80908 10004 21046 39924 49934 57007 60002 70320 885// 333 20002 42/// 70000 91111;EQDQ01  00002PRCP24Q02  00002PRCP12
0101010070999992013010207004+78917+011933FM-12+000899999V0200901N006019999999N9999999N1+00081-00401099341ADDMA1999999099251MD1610041+9999REMSYN060AAXX  02071 01007 46/// /0906 10008 21040 39925 49934 56004;
0101010070999992013010208004+78917+011933FM-12+000899999V0201201N007019999999N9999999N1+00041-00441099341ADDMA1999999099251MD1710011+9999REMSYN060AAXX  02081 01007 46/// /1207 10004 21044 39925 49934 57001;
0101010070999992013010209004+78917+011933FM-12+000899999V0201301N003019999999N9999999N1+00051-00431099361ADDMA1999999099261MD1210021+9999REMSYN060AAXX  02091 01007 46/// /1303 10005 21043 39926 49936 52002;
0101010070999992013010210004+78917+011933FM-12+000899999V0202201N002019999999N9999999N1+00001-00361099351ADDMA1999999099261MD1210011+9999REMSYN060AAXX  02101 01007 46/// /2202 10000 21036 39926 49935 52001;
0101010070999992013010211004+78917+011933FM-12+000899999V0201601N003019999999N9999999N1+00131-00471099361ADDMA1999999099271MD1210021+9999REMSYN060AAXX  02111 01007 46/// /1603 10013 21047 39927 49936 52002;
0207010070999992013010212004+78917+011933FM-12+000899999V0201101N008010150019N0750001N1+00131-00411099341ADDAA106000091AY171061AY221061GF108991081001017501021999MA1999999099241MD1810021+9999MW1021REMSYN088AAXX  02121 01007 11789 81108 10013 21041 39924 49934 58002 60001 70272 8802/ 333 91110;EQDQ01  00002PRCP06
0101010070999992013010213004+78917+011933FM-12+000899999V0201101N009019999999N9999999N1+00181-00311099331ADDMA1999999099231MD1810021+9999REMSYN060AAXX  02131 01007 46/// /1109 10018 21031 39923 49933 58002;
0101010070999992013010214004+78917+011933FM-12+000899999V0201101N010019999999N9999999N1+00171-00431099311ADDMA1999999099211MD1710051+9999REMSYN060AAXX  02141 01007 46/// /1110 10017 21043 39921 49931 57005;
0101010070999992013010215004+78917+011933FM-12+000899999V0201101N011019999999N9999999N1+00171-00461099281ADDMA1999999099191MD1710051+9999REMSYN060AAXX  02151 01007 46/// /1111 10017 21046 39919 49928 57005;
0101010070999992013010216004+78917+011933FM-12+000899999V0200901N010019999999N9999999N1+00121-00421099271ADDMA1999999099181MD1710061+9999REMSYN060AAXX  02161 01007 46/// /0910 10012 21042 39918 49927 57006;
0101010070999992013010217004+78917+011933FM-12+000899999V0200901N009019999999N9999999N1+00111-00451099251ADDMA1999999099161MD1710061+9999REMSYN060AAXX  02171 01007 46/// /0909 10011 21045 39916 49925 57006;
0226010070999992013010218004+78917+011933FM-12+000899999V0200901N008010150019N0750001N1+00131-00411099191ADDAA112000091AY121061AY211061GF107991071051017501999999KA1120M+00211MA1999999099101MD1810091+9999MW1021REMSYN094AAXX  02181 01007 11789 70908 10013 21041 39910 49919 58009 60002 70221 875// 333 10021 91115;EQDQ01  00002PRCP12
0101010070999992013010219004+78917+011933FM-12+000899999V0200701N008019999999N9999999N1+00081-00461099181ADDMA1999999099091MD1710091+9999REMSYN060AAXX  02191 01007 46/// /0708 10008 21046 39909 49918 57009;
0101010070999992013010220004+78917+011933FM-12+000899999V0200801N007019999999N9999999N1+00081-00521099151ADDMA1999999099051MD1610101+9999REMSYN060AAXX  02201 01007 46/// /0807 10008 21052 39905 49915 56010;
0101010070999992013010221004+78917+011933FM-12+000899999V0200901N009019999999N9999999N1+00061-00461099121ADDMA1999999099031MD1710071+9999REMSYN060AAXX  02211 01007 46/// /0909 10006 21046 39903 49912 57007;
0101010070999992013010222004+78917+011933FM-12+000899999V0200901N009019999999N9999999N1+00051-00451099121ADDMA1999999099021MD1610071+9999REMSYN060AAXX  02221 01007 46/// /0909 10005 21045 39902 49912 56007;
0101010070999992013010223004+78917+011933FM-12+000899999V0200901N007019999999N9999999N1+00081-00441099091ADDMA1999999099001MD1710051+9999REMSYN060AAXX  02231 01007 46/// /0907 10008 21044 39900 49909 57005;
0147010070999992013010300004+78917+011933FM-12+000899999V0201101N004019999999N9999999N1+00081-00481099071ADDAA106000091MA1999999098971MD1810051+9999REMSYN076AAXX  03001 01007 16/// /1104 10008 21048 39897 49907 58005 60001 333 91112;EQDQ01  00002PRCP06
0101010070999992013010301004+78917+011933FM-12+000899999V0201001N007019999999N9999999N1+00041-00521099061ADDMA1999999098961MD1710061+9999REMSYN060AAXX  03011 01007 46/// /1007 10004 21052 39896 49906 57006;
0101010070999992013010302004+78917+011933FM-12+000899999V0201101N007019999999N9999999N1+00041-00441099051ADDMA1999999098951MD1710051+9999REMSYN060AAXX  03021 01007 46/// /1107 10004 21044 39895 49905 57005;
0101010070999992013010303004+78917+011933FM-12+000899999V0201401N004019999999N9999999N1-00081-00501099041ADDMA1999999098951MD1710031+9999REMSYN060AAXX  03031 01007 46/// /1404 11008 21050 39895 49904 57003;
0101010070999992013010304004+78917+011933FM-12+000899999V0209999C000019999999N9999999N1-00071-00491099051ADDMA1999999098951MD1610011+9999REMSYN060AAXX  03041 01007 46/// /0000 11007 21049 39895 49905 56001;
0101010070999992013010305004+78917+011933FM-12+000899999V0201401N002019999999N9999999N1-00081-00501099041ADDMA1999999098951MD1710011+9999REMSYN060AAXX  03051 01007 46/// /1402 11008 21050 39895 49904 57001;
0271010070999992013010306004+78917+011933FM-12+000899999V0201701N001012200019N0750001N1-00141-00551099041ADDAA112000091AA224000091AY121061AY221061GF105991041001017501071011IA1309KA1999N-00221MA1999999098941MD1710011+9999MW1021REMSYN106AAXX  03061 01007 11789 51701 11014 21055 39894 49904 57001 60002 70222 84071 333 21022 42/// 70000 91110;EQDQ01  00002PRCP24Q02  00002PRCP12
0101010070999992013010308004+78917+011933FM-12+000899999V0202701N001019999999N9999999N1-00171-00561099091ADDMA1999999098991MD1310051+9999REMSYN060AAXX  03081 01007 46/// /2701 11017 21056 39899 49909 53005;
0101010070999992013010309004+78917+011933FM-12+000899999V0201201N002019999999N9999999N1-00151-00431099141ADDMA1999999099051MD1310101+9999REMSYN060AAXX  03091 01007 46/// /1202 11015 21043 39905 49914 53010;
0101010070999992013010310004+78917+011933FM-12+000899999V0201501N002019999999N9999999N1-00211-00361099191ADDMA1999999099091MD1210131+9999REMSYN060AAXX  03101 01007 46/// /1502 11021 21036 39909 49919 52013;
0101010070999992013010311004+78917+011933FM-12+000899999V0209999C000019999999N9999999N1-00231-00381099231ADDMA1999999099131MD1210141+9999REMSYN060AAXX  03111 01007 46/// /0000 11023 21038 39913 49923 52014;
0188010070999992013010312004+78917+011933FM-12+000899999V0202401N001010021019N0050001N1-00231-00371099261ADDAA106001091AY181061AY221061GF108991081031002501999999MA1999999099161MD1210111+9999MW1851REMSYN088AAXX  03121 01007 11350 82401 11023 21037 39916 49926 52011 60011 78582 883// 333 91104;
0101010070999992013010313004+78917+011933FM-12+000899999V0209999C000019999999N9999999N1-00221-00361099311ADDMA1999999099211MD1210121+9999REMSYN060AAXX  03131 01007 46/// /0000 11022 21036 39921 49931 52012;
0101010070999992013010314004+78917+011933FM-12+000899999V0201301N001019999999N9999999N1-00271-00411099371ADDMA1999999099281MD1210141+9999REMSYN060AAXX  03141 01007 46/// /1301 11027 21041 39928 49937 52014;
0101010070999992013010315004+78917+011933FM-12+000899999V0202301N001019999999N9999999N1-00281-00421099421ADDMA1999999099321MD1210161+9999REMSYN060AAXX  03151 01007 46/// /2301 11028 21042 39932 49942 52016;
0101010070999992013010316004+78917+011933FM-12+000899999V0201501N001019999999N9999999N1-00311-00461099471ADDMA1999999099371MD1210161+9999REMSYN060AAXX  03161 01007 46/// /1501 11031 21046 39937 49947 52016;
0101010070999992013010317004+78917+011933FM-12+000899999V0201501N002019999999N9999999N1-00321-00481099521ADDMA1999999099431MD1210151+9999REMSYN060AAXX  03171 01007 46/// /1502 11032 21048 39943 49952 52015;
0207010070999992013010318004+78917+011933FM-12+000899999V0201501N002012200019N0750001N1-00321-00551099571ADDAA112002091AY101061AY201061GF103991001001999999001021KA1120M-00061MA1999999099471MD1210151+9999MW1021REMSYN094AAXX  03181 01007 11989 31502 11032 21055 39947 49957 52015 60022 70200 80002 333 11006 91103;
0101010070999992013010319004+78917+011933FM-12+000899999V0202201N001019999999N9999999N1-00371-00601099631ADDMA1999999099541MD1210171+9999REMSYN060AAXX  03191 01007 46/// /2201 11037 21060 39954 49963 52017;
0101010070999992013010320004+78917+011933FM-12+000899999V0201401N001019999999N9999999N1-00291-00571099691ADDMA1999999099591MD1210161+9999REMSYN060AAXX  03201 01007 46/// /1401 11029 21057 39959 49969 52016;
0101010070999992013010321004+78917+011933FM-12+000899999V0201501N001019999999N9999999N1-00301-00521099751ADDMA1999999099651MD1210181+9999REMSYN060AAXX  03211 01007 46/// /1501 11030 21052 39965 49975 52018;
0101010070999992013010322004+78917+011933FM-12+000899999V0201601N001019999999N9999999N1-00301-00461099821ADDMA1999999099721MD1210181+9999REMSYN060AAXX  03221 01007 46/// /1601 11030 21046 39972 49982 52018;
0101010070999992013010323004+78917+011933FM-12+000899999V0201801N001019999999N9999999N1-00301-00451099891ADDMA1999999099791MD1210201+9999REMSYN060AAXX  03231 01007 46/// /1801 11030 21045 39979 49989 52020;
0147010070999992013010400004+78917+011933FM-12+000899999V0202401N001019999999N9999999N1-00331-00521099931ADDAA106000091MA1999999099831MD1210181+9999REMSYN076AAXX  04001 01007 16/// /2401 11033 21052 39983 49993 52018 60001 333 91103;EQDQ01  00002PRCP06
0101010070999992013010401004+78917+011933FM-12+000899999V0202301N002019999999N9999999N1-00331-00581099981ADDMA1999999099881MD1210161+9999REMSYN060AAXX  04011 01007 46/// /2302 11033 21058 39988 49998 52016;
0101010070999992013010402004+78917+011933FM-12+000899999V0209999C000019999999N9999999N1-00331-00641100041ADDMA1999999099941MD1210151+9999REMSYN060AAXX  04021 01007 46/// /0000 11033 21064 39994 40004 52015;
0101010070999992013010403004+78917+011933FM-12+000899999V0201401N001019999999N9999999N1-00401-00771100101ADDMA1999999100011MD1210171+9999REMSYN060AAXX  04031 01007 46/// /1401 11040 21077 30001 40010 52017;
0101010070999992013010404004+78917+011933FM-12+000899999V0201501N002019999999N9999999N1-00271-00661100161ADDMA1999999100061MD1210181+9999REMSYN060AAXX  04041 01007 46/// /1502 11027 21066 30006 40016 52018;
0101010070999992013010405004+78917+011933FM-12+000899999V0201301N003019999999N9999999N1-00271-00691100211ADDMA1999999100111MD1210171+9999REMSYN060AAXX  04051 01007 46/// /1303 11027 21069 30011 40021 52017;
0253010070999992013010406004+78917+011933FM-12+000899999V0202101N002012200019N0750001N1-00311-00731100271ADDAA112000391AA224001891AJ100059199999999AY181061AY211061GF103991021051012501001011IA1289KA1999N-00541MA1999999100171MD1210161+9999MW1021REMSYN106AAXX  04061 01007 11689 32102 11031 21073 30017 40027 52016 69932 70281 82501 333 21054 44005 70019 91105;
0101010070999992013010407004+78917+011933FM-12+000899999V0202801N002019999999N9999999N1-00551-00941100341ADDMA1999999100241MD1210181+9999REMSYN060AAXX  04071 01007 46/// /2802 11055 21094 30024 40034 52018;
0101010070999992013010408004+78917+011933FM-12+000899999V0202601N001019999999N9999999N1-00271-00701100421ADDMA1999999100321MD1210211+9999REMSYN060AAXX  04081 01007 46/// /2601 11027 21070 30032 40042 52021;
0101010070999992013010409004+78917+011933FM-12+000899999V0203001N001019999999N9999999N1-00291-00711100501ADDMA1999999100401MD1210231+9999REMSYN060AAXX  04091 01007 46/// /3001 11029 21071 30040 40050 52023;
0101010070999992013010410004+78917+011933FM-12+000899999V0201101N005019999999N9999999N1-00301-00731100561ADDMA1999999100471MD1210221+9999REMSYN060AAXX  04101 01007 46/// /1105 11030 21073 30047 40056 52022;
0101010070999992013010411004+78917+011933FM-12+000899999V0201101N005019999999N9999999N1-00271-00691100621ADDMA1999999100521MD1210201+9999REMSYN060AAXX  04111 01007 46/// /1105 11027 21069 30052 40062 52020;
0207010070999992013010412004+78917+011933FM-12+000899999V0202501N003010120019N0750001N1-00351-00751100671ADDAA106000091AY121061AY201061GF107991071051012501999999MA1999999100571MD1210181+9999MW1021REMSYN088AAXX  04121 01007 11689 72503 11035 21075 30057 40067 52018 60001 70220 875// 333 91108;EQDQ01  00002PRCP06
0101010070999992013010413004+78917+011933FM-12+000899999V0202501N001019999999N9999999N1-00401-00781100711ADDMA1999999100611MD1210141+9999REMSYN060AAXX  04131 01007 46/// /2501 11040 21078 30061 40071 52014;
0101010070999992013010414004+78917+011933FM-12+000899999V0201301N002019999999N9999999N1-00341-00791100771ADDMA1999999100681MD1210161+9999REMSYN060AAXX  04141 01007 46/// /1302 11034 21079 30068 40077 52016;
0101010070999992013010415004+78917+011933FM-12+000899999V0201201N002019999999N9999999N1-00351-00831100811ADDMA1999999100721MD1210141+9999REMSYN060AAXX  04151 01007 46/// /1202 11035 21083 30072 40081 52014;
0101010070999992013010416004+78917+011933FM-12+000899999V0209999C000019999999N9999999N1-00401-00851100871ADDMA1999999100771MD1210161+9999REMSYN060AAXX  04161 01007 46/// /0000 11040 21085 30077 40087 52016;
0101010070999992013010417004+78917+011933FM-12+000899999V0201201N004019999999N9999999N1-00541-00981100921ADDMA1999999100821MD1210141+9999REMSYN060AAXX  04171 01007 46/// /1204 11054 21098 30082 40092 52014;
0236010070999992013010418004+78917+011933FM-12+000899999V0202101N001012200019N0750001N1-00831-01201100981ADDAA112000091AY101061AY201061GA1001+999999999GF100991001001999999001001KA1120M-00211MA1999999100881MD1210161+9999MW1021REMSYN088AAXX  04181 01007 11989 02101 11083 21120 30088 40098 52016 60002 70200 333 11021 91106;EQDQ01  00002PRCP12
0101010070999992013010419004+78917+011933FM-12+000899999V0201301N003019999999N9999999N1-00651-01021101031ADDMA1999999100931MD1210151+9999REMSYN060AAXX  04191 01007 46/// /1303 11065 21102 30093 40103 52015;
0101010070999992013010420004+78917+011933FM-12+000899999V0201301N004019999999N9999999N1-00651-01141101071ADDMA1999999100971MD1210151+9999REMSYN060AAXX  04201 01007 46/// /1304 11065 21114 30097 40107 52015;
0101010070999992013010421004+78917+011933FM-12+000899999V0201301N005019999999N9999999N1-00661-01131101121ADDMA1999999101021MD1210141+9999REMSYN060AAXX  04211 01007 46/// /1305 11066 21113 30102 40112 52014;
0101010070999992013010422004+78917+011933FM-12+000899999V0201201N006019999999N9999999N1-00621-01081101171ADDMA1999999101071MD1210141+9999REMSYN060AAXX  04221 01007 46/// /1206 11062 21108 30107 40117 52014;
0101010070999992013010423004+78917+011933FM-12+000899999V0201301N005019999999N9999999N1-00521-00981101211ADDMA1999999101111MD1210141+9999REMSYN060AAXX  04231 01007 46/// /1305 11052 21098 30111 40121 52014;
0147010070999992013010500004+78917+011933FM-12+000899999V0201301N004019999999N9999999N1-00471-00831101231ADDAA106000091MA1999999101131MD1210111+9999REMSYN076AAXX  05001 01007 16/// /1304 11047 21083 30113 40123 52011 69921 333 91109;EQDQ01  00002PRCP06
0101010070999992013010501004+78917+011933FM-12+000899999V0201401N003019999999N9999999N1-00421-00801101271ADDMA1999999101171MD1210111+9999REMSYN060AAXX  05011 01007 46/// /1403 11042 21080 30117 40127 52011;
0101010070999992013010502004+78917+011933FM-12+000899999V0201301N004019999999N9999999N1-00391-00761101301ADDMA1999999101201MD1210091+9999REMSYN060AAXX  05021 01007 46/// /1304 11039 21076 30120 40130 52009;
0101010070999992013010503004+78917+011933FM-12+000899999V0201501N002019999999N9999999N1-00351-00751101321ADDMA1999999101221MD1210091+9999REMSYN060AAXX  05031 01007 46/// /1502 11035 21075 30122 40132 52009;
0101010070999992013010504004+78917+011933FM-12+000899999V0201501N001019999999N9999999N1-00301-00651101341ADDMA1999999101241MD1210061+9999REMSYN060AAXX  05041 01007 46/// /1501 11030 21065 30124 40134 52006;
0101010070999992013010505004+78917+011933FM-12+000899999V0201201N002019999999N9999999N1-00251-00641101361ADDMA1999999101261MD1210061+9999REMSYN060AAXX  05051 01007 46/// /1202 11025 21064 30126 40136 52006;
0253010070999992013010506004+78917+011933FM-12+000899999V0202001N002010075019N0040001N1-00261-00551101381ADDAA112000391AA224000391AJ100059199999999AY121061AY201061GF108991081051008001999999IA1289KA1999N-00831MA1999999101281MD1310061+9999MW1261REMSYN106AAXX  05061 01007 11540 82002 11026 21055 30128 40138 53006 69932 72620 885// 333 21083 44005 70003 91108;
0101010070999992013010507004+78917+011933FM-12+000899999V0209999C000019999999N9999999N1-00271-00551101411ADDMA1999999101321MD1310081+9999REMSYN060AAXX  05071 01007 46/// /0000 11027 21055 30132 40141 53008;
0101010070999992013010508004+78917+011933FM-12+000899999V0209999C000019999999N9999999N1-00291-00511101431ADDMA1999999101331MD1310071+9999REMSYN060AAXX  05081 01007 46/// /0000 11029 21051 30133 40143 53007;
0101010070999992013010509004+78917+011933FM-12+000899999V0202301N001019999999N9999999N1-00301-00511101461ADDMA1999999101361MD1210081+9999REMSYN060AAXX  05091 01007 46/// /2301 11030 21051 30136 40146 52008;
0101010070999992013010510004+78917+011933FM-12+000899999V0202501N001019999999N9999999N1-00281-00491101441ADDMA1999999101341MD1010021+9999REMSYN060AAXX  05101 01007 46/// /2501 11028 21049 30134 40144 50002;
0101010070999992013010511004+78917+011933FM-12+000899999V0201601N001019999999N9999999N1-00331-00561101401ADDMA1999999101301MD1810031+9999REMSYN060AAXX  05111 01007 46/// /1601 11033 21056 30130 40140 58003;
0188010070999992013010512004+78917+011933FM-12+000899999V0201201N008010075019N0060001N1-00271-00561101401ADDAA106000591AY171061AY221061GF108991081051008001999999MA1999999101301MD1510071+9999MW1361REMSYN088AAXX  05121 01007 11556 81208 11027 21056 30130 40140 55007 69961 73672 885// 333 91112;
0101010070999992013010513004+78917+011933FM-12+000899999V0201201N008019999999N9999999N1-00251-00501101401ADDMA1999999101301MD1610031+9999REMSYN060AAXX  05131 01007 46/// /1208 11025 21050 30130 40140 56003;
0101010070999992013010514004+78917+011933FM-12+000899999V0201201N010019999999N9999999N1-00231-00491101381ADDMA1999999101281MD1810021+9999REMSYN060AAXX  05141 01007 46/// /1210 11023 21049 30128 40138 58002;
0101010070999992013010515004+78917+011933FM-12+000899999V0201101N012019999999N9999999N1-00271-00561101291ADDMA1999999101191MD1810111+9999REMSYN060AAXX  05151 01007 46/// /1112 11027 21056 30119 40129 58011;
0101010070999992013010516004+78917+011933FM-12+000899999V0201101N011019999999N9999999N1-00171-00451101181ADDMA1999999101081MD1810221+9999REMSYN060AAXX  05161 01007 46/// /1111 11017 21045 30108 40118 58022;
0101010070999992013010517004+78917+011933FM-12+000899999V0201101N013019999999N9999999N1-00111-00441101061ADDMA1999999100961MD1610321+9999REMSYN060AAXX  05171 01007 46/// /1113 11011 21044 30096 40106 56032;
0207010070999992013010518004+78917+011933FM-12+000899999V0201101N013010075019N0060001N1-00131-00431100991ADDAA112000591AY131061AY221061GF108991081051008001999999KA1120M-00051MA1999999100891MD1610301+9999MW1361REMSYN094AAXX  05181 01007 11556 81113 11013 21043 30089 40099 56030 69952 73632 885// 333 11005 91118;
0101010070999992013010519004+78917+011933FM-12+000899999V0201101N014019999999N9999999N1-00091-00451100901ADDMA1999999100801MD1610281+9999REMSYN060AAXX  05191 01007 46/// /1114 11009 21045 30080 40090 56028;
0101010070999992013010520004+78917+011933FM-12+000899999V0201101N011019999999N9999999N1-00011-00451100761ADDMA1999999100661MD1810301+9999REMSYN060AAXX  05201 01007 46/// /1111 11001 21045 30066 40076 58030;
0101010070999992013010521004+78917+011933FM-12+000899999V0201101N013019999999N9999999N1-00081-00441100581ADDMA1999999100481MD1810411+9999REMSYN060AAXX  05211 01007 46/// /1113 11008 21044 30048 40058 58041;
0101010070999992013010522004+78917+011933FM-12+000899999V0201101N017019999999N9999999N1-00141-00391100431ADDMA1999999100331MD1710471+9999REMSYN060AAXX  05221 01007 46/// /1117 11014 21039 30033 40043 57047;
0101010070999992013010523004+78917+011933FM-12+000899999V0201101N017019999999N9999999N1-00161-00431100281ADDMA1999999100191MD1610481+9999REMSYN060AAXX  05231 01007 46/// /1117 11016 21043 30019 40028 56048;
0147010070999992013010600004+78917+011933FM-12+000899999V0201101N017019999999N9999999N1-00101-00411100121ADDAA106000091MA1999999100021MD1710461+9999REMSYN076AAXX  06001 01007 16/// /1117 11010 21041 30002 40012 57046 60001 333 91125;EQDQ01  00002PRCP06
0101010070999992013010601004+78917+011933FM-12+000899999V0201101N017019999999N9999999N1-00071-00351099941ADDMA1999999099851MD1810481+9999REMSYN060AAXX  06011 01007 46/// /1117 11007 21035 39985 49994 58048;
0101010070999992013010602004+78917+011933FM-12+000899999V0201101N018019999999N9999999N1-00121-00331099761ADDMA1999999099671MD1810521+9999REMSYN060AAXX  06021 01007 46/// /1118 11012 21033 39967 49976 58052;
0120010070999992013010603004+78917+011933FM-12+000899999V0201101N017019999999N9999999N1-00021-00261099551ADDMA1999999099451MD1810572+9999REMSYN060AAXX  06031 01007 46/// /1117 11002 21026 39945 49955 58057;EQDQ01+000572APC3  
0101010070999992013010604004+78917+011933FM-12+000899999V0201101N016019999999N9999999N1+00021-00351099401ADDMA1999999099301MD1610541+9999REMSYN060AAXX  06041 01007 46/// /1116 10002 21035 39930 49940 56054;
0101010070999992013010605004+78917+011933FM-12+000899999V0201101N012019999999N9999999N1+00091-00301099341ADDMA1999999099251MD1610421+9999REMSYN060AAXX  06051 01007 46/// /1112 10009 21030 39925 49934 56042;
0253010070999992013010606004+78917+011933FM-12+000899999V0201001N014010042019N0040001N1+00041-00181099321ADDAA112000021AA224000591AJ100039199999999AY171061AY261061GF108991081051004501999999IA1309KA1999N-00211MA1999999099231MD1610221+9999MW1261REMSYN106AAXX  06061 01007 11440 81014 10004 21018 39923 49932 56022 60002 72676 885// 333 21021 42003 70006 91124;
0101010070999992013010607004+78917+011933FM-12+000899999V0201001N013019999999N9999999N1+00101-00121099361ADDMA1999999099271MD1610041+9999REMSYN060AAXX  06071 01007 46/// /1013 10010 21012 39927 49936 56004;
0101010070999992013010608004+78917+011933FM-12+000899999V0201101N010019999999N9999999N1+00171-00121099361ADDMA1999999099261MD1310011+9999REMSYN060AAXX  06081 01007 46/// /1110 10017 21012 39926 49936 53001;
0101010070999992013010609004+78917+011933FM-12+000899999V0201201N008019999999N9999999N1+00181-00211099321ADDMA1999999099231MD1010001+9999REMSYN060AAXX  06091 01007 46/// /1208 10018 21021 39923 49932 50000;
0101010070999992013010610004+78917+011933FM-12+000899999V0201301N005019999999N9999999N1+00271-00201099341ADDMA1999999099241MD1610021+9999REMSYN060AAXX  06101 01007 46/// /1305 10027 21020 39924 49934 56002;
0101010070999992013010611004+78917+011933FM-12+000899999V0201401N004019999999N9999999N1+00261-00191099401ADDMA1999999099301MD1310041+9999REMSYN060AAXX  06111 01007 46/// /1404 10026 21019 39930 49940 53004;
0188010070999992013010612004+78917+011933FM-12+000899999V0203001N002010075019N0750001N1+00301-00131099381ADDAA106002091AY171061AY221061GF108991081051008001999999MA1999999099281MD1010051+9999MW1021REMSYN088AAXX  06121 01007 11589 83002 10030 21013 39928 49938 50005 60021 70272 885// 333 91118;
0101010070999992013010613004+78917+011933FM-12+000899999V0202301N001019999999N9999999N1+00231-00151099351ADDMA1999999099261MD1010021+9999REMSYN060AAXX  06131 01007 46/// /2301 10023 21015 39926 49935 50002;
0101010070999992013010614004+78917+011933FM-12+000899999V0201201N004019999999N9999999N1+00271-00161099281ADDMA1999999099191MD1810111+9999REMSYN060AAXX  06141 01007 46/// /1204 10027 21016 39919 49928 58011;
0101010070999992013010615004+78917+011933FM-12+000899999V0209999C000019999999N9999999N1+00311-00161099271ADDMA1999999099181MD1610101+9999REMSYN060AAXX  06151 01007 46/// /0000 10031 21016 39918 49927 56010;
0101010070999992013010616004+78917+011933FM-12+000899999V0201301N002019999999N9999999N1+00281-00101099261ADDMA1999999099171MD1610091+9999REMSYN060AAXX  06161 01007 46/// /1302 10028 21010 39917 49926 56009;
0101010070999992013010617004+78917+011933FM-12+000899999V0209999C000019999999N9999999N1+00221-00091099241ADDMA1999999099151MD1610041+9999REMSYN060AAXX  06171 01007 46/// /0000 10022 21009 39915 49924 56004;
0207010070999992013010618004+78917+011933FM-12+000899999V0202401N003010075019N0750001N1+00241-00101099221ADDAA112002091AY121061AY221061GF108991081051008001999999KA1120M+00331MA1999999099131MD1710051+9999MW1021REMSYN094AAXX  06181 01007 11589 82403 10024 21010 39913 49922 57005 60022 70222 885// 333 10033 91108;
0101010070999992013010619004+78917+011933FM-12+000899999V0209999C000019999999N9999999N1+00181-00131099191ADDMA1999999099101MD1710071+9999REMSYN060AAXX  06191 01007 46/// /0000 10018 21013 39910 49919 57007;
0101010070999992013010620004+78917+011933FM-12+000899999V0202901N004019999999N9999999N1+00151-00111099191ADDMA1999999099101MD1610051+9999REMSYN060AAXX  06201 01007 46/// /2904 10015 21011 39910 49919 56005;
0101010070999992013010621004+78917+011933FM-12+000899999V0202701N001019999999N9999999N1+00101-00121099181ADDMA1999999099091MD1610041+9999REMSYN060AAXX  06211 01007 46/// /2701 10010 21012 39909 49918 56004;
0101010070999992013010622004+78917+011933FM-12+000899999V0209999C000019999999N9999999N1+00051-00141099161ADDMA1999999099071MD1710031+9999REMSYN060AAXX  06221 01007 46/// /0000 10005 21014 39907 49916 57003;
0101010070999992013010623004+78917+011933FM-12+000899999V0209999C000019999999N9999999N1+00021-00151099181ADDMA1999999099091MD1610011+9999REMSYN060AAXX  06231 01007 46/// /0000 10002 21015 39909 49918 56001;
0128010070999992013010700004+78917+011933FM-12+000899999V0202001N001019999999N9999999N1+00031-00141099171ADDAA106002091MA1999999099081MD1710011+9999REMSYN076AAXX  07001 01007 16/// /2001 10003 21014 39908 49917 57001 60021 333 91107;
0101010070999992013010701004+78917+011933FM-12+000899999V0202001N002019999999N9999999N1+00031-00181099221ADDMA1999999099131MD1310061+9999REMSYN060AAXX  07011 01007 46/// /2002 10003 21018 39913 49922 53006;
0101010070999992013010702004+78917+011933FM-12+000899999V0202501N004019999999N9999999N1+00011-00281099231ADDMA1999999099141MD1310051+9999REMSYN060AAXX  07021 01007 46/// /2504 10001 21028 39914 49923 53005;
0101010070999992013010703004+78917+011933FM-12+000899999V0202301N004019999999N9999999N1+00011-00311099241ADDMA1999999099141MD1110061+9999REMSYN060AAXX  07031 01007 46/// /2304 10001 21031 39914 49924 51006;
0101010070999992013010704004+78917+011933FM-12+000899999V0209999C000019999999N9999999N1-00031-00231099241ADDMA1999999099141MD1210011+9999REMSYN060AAXX  07041 01007 46/// /0000 11003 21023 39914 49924 52001;
0101010070999992013010705004+78917+011933FM-12+000899999V0200901N003019999999N9999999N1-00041-00181099221ADDMA1999999099121MD1710011+9999REMSYN060AAXX  07051 01007 46/// /0903 11004 21018 39912 49922 57001;
0253010070999992013010706004+78917+011933FM-12+000899999V0200601N002010075019N0750001N1+00001-00251099241ADDAA112004191AA224005691AJ100049199999999AY171061AY221061GF108991081051008001999999IA1289KA1999N-00071MA1999999099141MD1410001+9999MW1021REMSYN106AAXX  07061 01007 11589 80602 10000 21025 39914 49924 54000 60042 70272 885// 333 21007 44004 70055 91107;
0101010070999992013010707004+78917+011933FM-12+000899999V0201501N002019999999N9999999N1+00041-00481099231ADDMA1999999099141MD1410001+9999REMSYN060AAXX  07071 01007 46/// /1502 10004 21048 39914 49923 54000;
0101010070999992013010708004+78917+011933FM-12+000899999V0200501N002019999999N9999999N1-00041-00261099241ADDMA1999999099141MD1210021+9999REMSYN060AAXX  07081 01007 46/// /0502 11004 21026 39914 49924 52002;
0101010070999992013010709004+78917+011933FM-12+000899999V0201701N002019999999N9999999N1-00071-00311099231ADDMA1999999099141MD1410001+9999REMSYN060AAXX  07091 01007 46/// /1702 11007 21031 39914 49923 54000;
0101010070999992013010710004+78917+011933FM-12+000899999V0201601N002019999999N9999999N1+00051-00451099211ADDMA1999999099121MD1810021+9999REMSYN060AAXX  07101 01007 46/// /1602 10005 21045 39912 49921 58002;
0101010070999992013010711004+78917+011933FM-12+000899999V0209999C000019999999N9999999N1-00061-00371099221ADDMA1999999099131MD1710021+9999REMSYN060AAXX  07111 01007 46/// /0000 11006 21037 39913 49922 57002;
0188010070999992013010712004+78917+011933FM-12+000899999V0202501N003010090019N0030001N1-00171-00341099271ADDAA106001091AY171061AY221061GF108991081081004501999999MA1999999099171MD1310041+9999MW1261REMSYN088AAXX  07121 01007 11430 82503 11017 21034 39917 49927 53004 60011 72672 888// 333 91108;
0101010070999992013010713004+78917+011933FM-12+000899999V0202301N008019999999N9999999N1-00311-00501099321ADDMA1999999099221MD1310111+9999REMSYN060AAXX  07131 01007 46/// /2308 11031 21050 39922 49932 53011;
0101010070999992013010714004+78917+011933FM-12+000899999V0202501N008019999999N9999999N1-00481-00711099431ADDMA1999999099331MD1310211+9999REMSYN060AAXX  07141 01007 46/// /2508 11048 21071 39933 49943 53021;
0101010070999992013010715004+78917+011933FM-12+000899999V0202301N010019999999N9999999N1-00561-00761099471ADDMA1999999099371MD1010201+9999REMSYN060AAXX  07151 01007 46/// /2310 11056 21076 39937 49947 50020;
0101010070999992013010716004+78917+011933FM-12+000899999V0202601N006019999999N9999999N1-00561-00851099551ADDMA1999999099451MD1110221+9999REMSYN060AAXX  07161 01007 46/// /2606 11056 21085 39945 49955 51022;
0101010070999992013010717004+78917+011933FM-12+000899999V0202501N004019999999N9999999N1-00631-00971099621ADDMA1999999099521MD1310191+9999REMSYN060AAXX  07171 01007 46/// /2504 11063 21097 39952 49962 53019;
0207010070999992013010718004+78917+011933FM-12+000899999V0202401N002012200019N0750001N1-00651-01171099651ADDAA112003091AY181061AY211061GF104991041051012501071001KA1120M+00061MA1999999099551MD1110181+9999MW1021REMSYN094AAXX  07181 01007 11689 42402 11065 21117 39955 49965 51018 60032 70281 84570 333 10006 91112;
0101010070999992013010719004+78917+011933FM-12+000899999V0201401N002019999999N9999999N1-00661-01101099701ADDMA1999999099601MD1110161+9999REMSYN060AAXX  07191 01007 46/// /1402 11066 21110 39960 49970 51016;
0101010070999992013010720004+78917+011933FM-12+000899999V0201201N003019999999N9999999N1-00751-01111099741ADDMA1999999099641MD1210121+9999REMSYN060AAXX  07201 01007 46/// /1203 11075 21111 39964 49974 52012;
0101010070999992013010721004+78917+011933FM-12+000899999V0201301N002019999999N9999999N1-00711-01081099771ADDMA1999999099681MD1210121+9999REMSYN060AAXX  07211 01007 46/// /1302 11071 21108 39968 49977 52012;
0101010070999992013010722004+78917+011933FM-12+000899999V0201401N003019999999N9999999N1-00691-01111099811ADDMA1999999099711MD1210111+9999REMSYN060AAXX  07221 01007 46/// /1403 11069 21111 39971 49981 52011;
0101010070999992013010723004+78917+011933FM-12+000899999V0201601N003019999999N9999999N1-00711-01101099851ADDMA1999999099751MD1210101+9999REMSYN060AAXX  07231 01007 46/// /1603 11071 21110 39975 49985 52010;
0128010070999992013010800004+78917+011933FM-12+000899999V0201501N004019999999N9999999N1-00671-01181099871ADDAA106000591MA1999999099771MD1210091+9999REMSYN076AAXX  08001 01007 16/// /1504 11067 21118 39977 49987 52009 69961 333 91108;
0101010070999992013010801004+78917+011933FM-12+000899999V0201401N004019999999N9999999N1-00761-01181099871ADDMA1999999099771MD1010051+9999REMSYN060AAXX  08011 01007 46/// /1404 11076 21118 39977 49987 50005;
0101010070999992013010802004+78917+011933FM-12+000899999V0201401N002019999999N9999999N1-00721-01221099911ADDMA1999999099811MD1210061+9999REMSYN060AAXX  08021 01007 46/// /1402 11072 21122 39981 49991 52006;
0101010070999992013010803004+78917+011933FM-12+000899999V0202701N002019999999N9999999N1-00721-01051099951ADDMA1999999099851MD1310091+9999REMSYN060AAXX  08031 01007 46/// /2702 11072 21105 39985 49995 53009;
0101010070999992013010804004+78917+011933FM-12+000899999V0209999C000019999999N9999999N1-00781-00981099991ADDMA1999999099891MD1210131+9999REMSYN060AAXX  08041 01007 46/// /0000 11078 21098 39989 49999 52013;
0101010070999992013010805004+78917+011933FM-12+000899999V0202101N002019999999N9999999N1-00851-01101100021ADDMA1999999099921MD1110111+9999REMSYN060AAXX  08051 01007 46/// /2102 11085 21110 39992 40002 51011;
0253010070999992013010806004+78917+011933FM-12+000899999V0202201N001010150019N0750001N1-00811-01121100081ADDAA112000591AA224003691AJ100089199999999AY181061AY211061GF107991071081012501001001IA1289KA1999N-00981MA1999999099991MD1310131+9999MW1031REMSYN106AAXX  08061 01007 11689 72201 11081 21112 39999 40008 53013 69962 70381 87800 333 21098 44008 70036 91107;
0101010070999992013010807004+78917+011933FM-12+000899999V0202301N002019999999N9999999N1-00751-00941100161ADDMA1999999100061MD1310161+9999REMSYN060AAXX  08071 01007 46/// /2302 11075 21094 30006 40016 53016;
0101010070999992013010808004+78917+011933FM-12+000899999V0203001N007019999999N9999999N1-00571-00861100181ADDMA1999999100081MD1110161+9999REMSYN060AAXX  08081 01007 46/// /3007 11057 21086 30008 40018 51016;
0101010070999992013010809004+78917+011933FM-12+000899999V0201001N002019999999N9999999N1-00691-00931100291ADDMA1999999100191MD1310201+9999REMSYN060AAXX  08091 01007 46/// /1002 11069 21093 30019 40029 53020;
0101010070999992013010810004+78917+011933FM-12+000899999V0201501N002019999999N9999999N1-00751-00951100371ADDMA1999999100271MD1310221+9999REMSYN060AAXX  08101 01007 46/// /1502 11075 21095 30027 40037 53022;
0101010070999992013010811004+78917+011933FM-12+000899999V0202601N001019999999N9999999N1-00621-00931100431ADDMA1999999100331MD1110251+9999REMSYN060AAXX  08111 01007 46/// /2601 11062 21093 30033 40043 51025;
0188010070999992013010812004+78917+011933FM-12+000899999V0201401N001010120019N0600001N1-00641-00921100481ADDAA106001091AY181061AY221061GF108991081081008001999999MA1999999100381MD1110201+9999MW1851REMSYN088AAXX  08121 01007 11586 81401 11064 21092 30038 40048 51020 60011 78582 888// 333 91113;
0101010070999992013010813004+78917+011933FM-12+000899999V0203101N006019999999N9999999N1-00591-01001100541ADDMA1999999100451MD1210171+9999REMSYN060AAXX  08131 01007 46/// /3106 11059 21100 30045 40054 52017;
0101010070999992013010814004+78917+011933FM-12+000899999V0203201N006019999999N9999999N1-00621-01031100621ADDMA1999999100521MD1210191+9999REMSYN060AAXX  08141 01007 46/// /3206 11062 21103 30052 40062 52019;
0101010070999992013010815004+78917+011933FM-12+000899999V0203201N007019999999N9999999N1-00671-01121100721ADDMA1999999100621MD1310231+9999REMSYN060AAXX  08151 01007 46/// /3207 11067 21112 30062 40072 53023;
0101010070999992013010816004+78917+011933FM-12+000899999V0203401N005019999999N9999999N1-00661-01151100801ADDMA1999999100701MD1210261+9999REMSYN060AAXX  08161 01007 46/// /3405 11066 21115 30070 40080 52026;
0101010070999992013010817004+78917+011933FM-12+000899999V0203401N004019999999N9999999N1-00701-01221100871ADDMA1999999100771MD1010251+9999REMSYN060AAXX  08171 01007 46/// /3404 11070 21122 30077 40087 50025;
0207010070999992013010818004+78917+011933FM-12+000899999V0203501N005012200019N0750001N1-00681-01221100951ADDAA112001091AY121061AY201061GF103991031081008001001001KA1120M-00541MA1999999100851MD1110231+9999MW1011REMSYN094AAXX  08181 01007 11589 33505 11068 21122 30085 40095 51023 60012 70120 83800 333 11054 91110;
0101010070999992013010819004+78917+011933FM-12+000899999V0203501N002019999999N9999999N1-00721-01281101021ADDMA1999999100921MD1210221+9999REMSYN060AAXX  08191 01007 46/// /3502 11072 21128 30092 40102 52022;
0101010070999992013010821004+78917+011933FM-12+000899999V0200101N003019999999N9999999N1-00681-01241101141ADDMA1999999101041MD1210191+9999REMSYN060AAXX  08211 01007 46/// /0103 11068 21124 30104 40114 52019;
0101010070999992013010823004+78917+011933FM-12+000899999V0200101N003019999999N9999999N1-00671-01211101261ADDMA1999999101161MD1210181+9999REMSYN060AAXX  08231 01007 46/// /0103 11067 21121 30116 40126 52018;
0147010070999992013010900004+78917+011933FM-12+000899999V0200401N003019999999N9999999N1-00691-01231101311ADDAA106000091MA1999999101211MD1210171+9999REMSYN076AAXX  09001 01007 16/// /0403 11069 21123 30121 40131 52017 60001 333 91107;EQDQ01  00002PRCP06
0101010070999992013010901004+78917+011933FM-12+000899999V0200701N003019999999N9999999N1-00701-01261101351ADDMA1999999101251MD1210131+9999REMSYN060AAXX  09011 01007 46/// /0703 11070 21126 30125 40135 52013;
0101010070999992013010902004+78917+011933FM-12+000899999V0201501N003019999999N9999999N1-00811-01211101351ADDMA1999999101251MD1010091+9999REMSYN060AAXX  09021 01007 46/// /1503 11081 21121 30125 40135 50009;
0101010070999992013010903004+78917+011933FM-12+000899999V0201301N003019999999N9999999N1-00801-01281101381ADDMA1999999101281MD1310071+9999REMSYN060AAXX  09031 01007 46/// /1303 11080 21128 30128 40138 53007;
0101010070999992013010904004+78917+011933FM-12+000899999V0201401N003019999999N9999999N1-00831-01261101411ADDMA1999999101311MD1310061+9999REMSYN060AAXX  09041 01007 46/// /1403 11083 21126 30131 40141 53006;
0101010070999992013010905004+78917+011933FM-12+000899999V0201301N003019999999N9999999N1-00831-01281101431ADDMA1999999101331MD1210081+9999REMSYN060AAXX  09051 01007 46/// /1303 11083 21128 30133 40143 52008;
0253010070999992013010906004+78917+011933FM-12+000899999V0201401N003010120019N0500001N1-00821-01251101421ADDAA112000021AA224001091AJ100089199999999AY181061AY211061GF108991081081008001999999IA1289KA1999N-00851MA1999999101321MD1010041+9999MW1851REMSYN106AAXX  09061 01007 11584 81403 11082 21125 30132 40142 50004 60002 78581 888// 333 21085 44008 70011 91105;
0101010070999992013010907004+78917+011933FM-12+000899999V0201601N003019999999N9999999N1-00751-01201101471ADDMA1999999101371MD1310061+9999REMSYN060AAXX  09071 01007 46/// /1603 11075 21120 30137 40147 53006;
0101010070999992013010908004+78917+011933FM-12+000899999V0201101N002019999999N9999999N1-00671-01161101471ADDMA1999999101371MD1310041+9999REMSYN060AAXX  09081 01007 46/// /1102 11067 21116 30137 40147 53004;
0101010070999992013010909004+78917+011933FM-12+000899999V0201301N005019999999N9999999N1-00731-01101101461ADDMA1999999101361MD1010041+9999REMSYN060AAXX  09091 01007 46/// /1305 11073 21110 30136 40146 50004;
0101010070999992013010910004+78917+011933FM-12+000899999V0201201N006019999999N9999999N1-00701-01121101441ADDMA1999999101341MD1810031+9999REMSYN060AAXX  09101 01007 46/// /1206 11070 21112 30134 40144 58003;
0101010070999992013010911004+78917+011933FM-12+000899999V0201501N005019999999N9999999N1-00661-01071101451ADDMA1999999101361MD1610021+9999REMSYN060AAXX  09111 01007 46/// /1505 11066 21107 30136 40145 56002;
0128010070999992013010912004+78917+011933FM-12+000899999V0201601N004019999999N9999999N1-00611-01001101401ADDAA106000021MA1999999101301MD1810061+9999REMSYN076AAXX  09121 01007 16/// /1604 11061 21100 30130 40140 58006 60001 333 91108;
0101010070999992013010913004+78917+011933FM-12+000899999V0201501N004019999999N9999999N1-00521-00951101341ADDMA1999999101241MD1810101+9999REMSYN060AAXX  09131 01007 46/// /1504 11052 21095 30124 40134 58010;
0101010070999992013010914004+78917+011933FM-12+000899999V0201301N003019999999N9999999N1-00431-00881101331ADDMA1999999101231MD1610131+9999REMSYN060AAXX  09141 01007 46/// /1303 11043 21088 30123 40133 56013;
0101010070999992013010915004+78917+011933FM-12+000899999V0201101N002019999999N9999999N1-00301-00771101301ADDMA1999999101201MD1610101+9999REMSYN060AAXX  09151 01007 46/// /1102 11030 21077 30120 40130 56010;
0101010070999992013010916004+78917+011933FM-12+000899999V0201901N002019999999N9999999N1-00141-00611101261ADDMA1999999101161MD1810081+9999REMSYN060AAXX  09161 01007 46/// /1902 11014 21061 30116 40126 58008;
0101010070999992013010917004+78917+011933FM-12+000899999V0202301N005019999999N9999999N1-00141-00601101231ADDMA1999999101131MD1710101+9999REMSYN060AAXX  09171 01007 46/// /2305 11014 21060 30113 40123 57010;
0188010070999992013010918004+78917+011933FM-12+000899999V0201901N003010120019N0750001N1-00121-00611101191ADDAA112000021AY121061AY221061GF108991081081008001999999MA1999999101091MD1710101+9999MW1021REMSYN088AAXX  09181 01007 11589 81903 11012 21061 30109 40119 57010 60002 70222 888// 333 91109;
0101010070999992013010919004+78917+011933FM-12+000899999V0202101N003019999999N9999999N1-00131-00591101161ADDMA1999999101061MD1710101+9999REMSYN060AAXX  09191 01007 46/// /2103 11013 21059 30106 40116 57010;
0101010070999992013010920004+78917+011933FM-12+000899999V0200901N002019999999N9999999N1-00191-00481101181ADDMA1999999101081MD1610051+9999REMSYN060AAXX  09201 01007 46/// /0902 11019 21048 30108 40118 56005;
0101010070999992013010921004+78917+011933FM-12+000899999V0201101N003019999999N9999999N1-00271-00461101151ADDMA1999999101061MD1610041+9999REMSYN060AAXX  09211 01007 46/// /1103 11027 21046 30106 40115 56004;
0101010070999992013010922004+78917+011933FM-12+000899999V0201601N002019999999N9999999N1-00241-00411101171ADDMA1999999101071MD1310011+9999REMSYN060AAXX  09221 01007 46/// /1602 11024 21041 30107 40117 53001;
0101010070999992013010923004+78917+011933FM-12+000899999V0201901N002019999999N9999999N1-00251-00441101171ADDMA1999999101071MD1610011+9999REMSYN060AAXX  09231 01007 46/// /1902 11025 21044 30107 40117 56001;
0128010070999992013011000004+78917+011933FM-12+000899999V0202101N003019999999N9999999N1-00121-00461101161ADDAA106001091MA1999999101061MD1010001+9999REMSYN076AAXX  10001 01007 16/// /2103 11012 21046 30106 40116 50000 69991 333 91109;
0101010070999992013011001004+78917+011933FM-12+000899999V0202401N001019999999N9999999N1-00191-00441101191ADDMA1999999101091MD1310021+9999REMSYN060AAXX  10011 01007 46/// /2401 11019 21044 30109 40119 53002;
0101010070999992013011002004+78917+011933FM-12+000899999V0202401N005019999999N9999999N1-00181-00601101231ADDMA1999999101141MD1310071+9999REMSYN060AAXX  10021 01007 46/// /2405 11018 21060 30114 40123 53007;
0101010070999992013011003004+78917+011933FM-12+000899999V0202301N007019999999N9999999N1-00311-00691101211ADDMA1999999101111MD1010051+9999REMSYN060AAXX  10031 01007 46/// /2307 11031 21069 30111 40121 50005;
0101010070999992013011004004+78917+011933FM-12+000899999V0202201N006019999999N9999999N1-00181-00671101221ADDMA1999999101121MD1010021+9999REMSYN060AAXX  10041 01007 46/// /2206 11018 21067 30112 40122 50002;
0101010070999992013011005004+78917+011933FM-12+000899999V0202301N005019999999N9999999N1-00181-00581101201ADDMA1999999101101MD1710031+9999REMSYN060AAXX  10051 01007 46/// /2305 11018 21058 30110 40120 57003;
0253010070999992013011006004+78917+011933FM-12+000899999V0201601N002010075019N0750001N1-00131-00551101161ADDAA112001091AA224001091AJ100099199999999AY181061AY221061GF108991081051008001999999IA1249KA1999N-00311MA1999999101061MD1810051+9999MW1021REMSYN106AAXX  10061 01007 11589 81602 11013 21055 30106 40116 58005 60012 70282 885// 333 21031 48009 70010 91109;
0101010070999992013011007004+78917+011933FM-12+000899999V0201201N002019999999N9999999N1-00211-00581101111ADDMA1999999101011MD1810111+9999REMSYN060AAXX  10071 01007 46/// /1202 11021 21058 30101 40111 58011;
0101010070999992013011008004+78917+011933FM-12+000899999V0200801N004019999999N9999999N1-00211-00451101041ADDMA1999999100941MD1710161+9999REMSYN060AAXX  10081 01007 46/// /0804 11021 21045 30094 40104 57016;
0101010070999992013011009004+78917+011933FM-12+000899999V0201401N003019999999N9999999N1-00261-00481100951ADDMA1999999100851MD1810211+9999REMSYN060AAXX  10091 01007 46/// /1403 11026 21048 30085 40095 58021;
0101010070999992013011010004+78917+011933FM-12+000899999V0201301N002019999999N9999999N1-00261-00411100911ADDMA1999999100811MD1610201+9999REMSYN060AAXX  10101 01007 46/// /1302 11026 21041 30081 40091 56020;
0101010070999992013011011004+78917+011933FM-12+000899999V0202301N006019999999N9999999N1-00011-00211100801ADDMA1999999100711MD1810231+9999REMSYN060AAXX  10111 01007 46/// /2306 11001 21021 30071 40080 58023;
0188010070999992013011012004+78917+011933FM-12+000899999V0202101N004010042019N0750001N1-00101-00321100711ADDAA106000591AY181061AY221061GF108991081031004501999999MA1999999100611MD1810241+9999MW1261REMSYN088AAXX  10121 01007 11489 82104 11010 21032 30061 40071 58024 69941 72682 883// 333 91111;
0101010070999992013011013004+78917+011933FM-12+000899999V0201201N003019999999N9999999N1-00141-00281100621ADDMA1999999100521MD1710291+9999REMSYN060AAXX  10131 01007 46/// /1203 11014 21028 30052 40062 57029;
0101010070999992013011014004+78917+011933FM-12+000899999V0201301N004019999999N9999999N1-00151-00281100541ADDMA1999999100451MD1710261+9999REMSYN060AAXX  10141 01007 46/// /1304 11015 21028 30045 40054 57026;
0101010070999992013011015004+78917+011933FM-12+000899999V0201001N002019999999N9999999N1-00111-00221100491ADDMA1999999100401MD1610221+9999REMSYN060AAXX  10151 01007 46/// /1002 11011 21022 30040 40049 56022;
0101010070999992013011016004+78917+011933FM-12+000899999V0202101N004019999999N9999999N1+00001-00131100371ADDMA1999999100281MD1810241+9999REMSYN060AAXX  10161 01007 46/// /2104 10000 21013 30028 40037 58024;
0101010070999992013011017004+78917+011933FM-12+000899999V0201101N004019999999N9999999N1-00111-00241100251ADDMA1999999100161MD1810291+9999REMSYN060AAXX  10171 01007 46/// /1104 11011 21024 30016 40025 58029;
0147010070999992013011018004+78917+011933FM-12+000899999V0201201N002019999999N9999999N1-00101-00211100161ADDAA112004191KA1120M+00011MA1999999100061MD1610331+9999REMSYN082AAXX  10181 01007 16/// /1202 11010 21021 30006 40016 56033 60042 333 10001 91108;
0101010070999992013011019004+78917+011933FM-12+000899999V0200701N004019999999N9999999N1-00031-00141100031ADDMA1999999099931MD1610351+9999REMSYN060AAXX  10191 01007 46/// /0704 11003 21014 39993 40003 56035;
0101010070999992013011020004+78917+011933FM-12+000899999V0200801N005019999999N9999999N1-00051-00161099881ADDMA1999999099781MD1810381+9999REMSYN060AAXX  10201 01007 46/// /0805 11005 21016 39978 49988 58038;
0101010070999992013011021004+78917+011933FM-12+000899999V0202501N002019999999N9999999N1+00061-00081099761ADDMA1999999099661MD1610401+9999REMSYN060AAXX  10211 01007 46/// /2502 10006 21008 39966 49976 56040;
0101010070999992013011022004+78917+011933FM-12+000899999V0201801N004019999999N9999999N1+00121-00121099611ADDMA1999999099511MD1810421+9999REMSYN060AAXX  10221 01007 46/// /1804 10012 21012 39951 49961 58042;
0101010070999992013011023004+78917+011933FM-12+000899999V0202201N007019999999N9999999N1+00131-00111099481ADDMA1999999099391MD1810391+9999REMSYN060AAXX  10231 01007 46/// /2207 10013 21011 39939 49948 58039;
0128010070999992013011100004+78917+011933FM-12+000899999V0202301N012019999999N9999999N1+00051-00171099441ADDAA106005191MA1999999099351MD1610321+9999REMSYN076AAXX  11001 01007 16/// /2312 10005 21017 39935 49944 56032 60051 333 91117;
0101010070999992013011101004+78917+011933FM-12+000899999V0202401N011019999999N9999999N1-00011-00261099511ADDMA1999999099411MD1610101+9999REMSYN060AAXX  11011 01007 46/// /2411 11001 21026 39941 49951 56010;
0101010070999992013011102004+78917+011933FM-12+000899999V0202501N009019999999N9999999N1-00061-00361099511ADDMA1999999099411MD1310031+9999REMSYN060AAXX  11021 01007 46/// /2509 11006 21036 39941 49951 53003;
0101010070999992013011103004+78917+011933FM-12+000899999V0202701N008019999999N9999999N1-00211-00571099601ADDMA1999999099501MD1310161+9999REMSYN060AAXX  11031 01007 46/// /2708 11021 21057 39950 49960 53016;
0101010070999992013011104004+78917+011933FM-12+000899999V0202601N004019999999N9999999N1-00381-00791099641ADDMA1999999099541MD1310131+9999REMSYN060AAXX  11041 01007 46/// /2604 11038 21079 39954 49964 53013;
0101010070999992013011105004+78917+011933FM-12+000899999V0202601N004019999999N9999999N1-00241-00691099571ADDMA1999999099481MD1010061+9999REMSYN060AAXX  11051 01007 46/// /2604 11024 21069 39948 49957 50006;
0253010070999992013011106004+78917+011933FM-12+000899999V0202601N007010021019N0750001N1-00391-00741099611ADDAA112005191AA224008991AJ100119199999999AY181061AY281061GF108991081031002501999999IA1179KA1999N-00391MA1999999099511MD1310011+9999MW1021REMSYN106AAXX  11061 01007 11389 82607 11039 21074 39951 49961 53001 60052 70288 883// 333 21039 40011 70088 91117;
0101010070999992013011107004+78917+011933FM-12+000899999V0202901N009019999999N9999999N1-00551-00901099731ADDMA1999999099641MD1310101+9999REMSYN060AAXX  11071 01007 46/// /2909 11055 21090 39964 49973 53010;
0101010070999992013011108004+78917+011933FM-12+000899999V0202901N009019999999N9999999N1-00691-01051099841ADDMA1999999099751MD1310271+9999REMSYN060AAXX  11081 01007 46/// /2909 11069 21105 39975 49984 53027;
0101010070999992013011109004+78917+011933FM-12+000899999V0202901N007019999999N9999999N1-00731-01091099941ADDMA1999999099841MD1110321+9999REMSYN060AAXX  11091 01007 46/// /2907 11073 21109 39984 49994 51032;
0101010070999992013011110004+78917+011933FM-12+000899999V0202901N009019999999N9999999N1-00761-01151100031ADDMA1999999099931MD1110301+9999REMSYN060AAXX  11101 01007 46/// /2909 11076 21115 39993 40003 51030;
0101010070999992013011111004+78917+011933FM-12+000899999V0202901N010019999999N9999999N1-00771-01221100071ADDMA1999999099971MD1110221+9999REMSYN060AAXX  11111 01007 46/// /2910 11077 21122 39997 40007 51022;
0207010070999992013011112004+78917+011933FM-12+000899999V0202701N010010120019N0750001N1-00771-01311100091ADDAA106000091AY121061AY221061GF108991081051012501999999MA1999999099991MD1010151+9999MW1021REMSYN088AAXX  11121 01007 11689 82710 11077 21131 39999 40009 50015 60001 70222 885// 333 91114;EQDQ01  00002PRCP06
0101010070999992013011113004+78917+011933FM-12+000899999V0202901N011019999999N9999999N1-00761-01181100131ADDMA1999999100031MD1110101+9999REMSYN060AAXX  11131 01007 46/// /2911 11076 21118 30003 40013 51010;
0101010070999992013011114004+78917+011933FM-12+000899999V0202901N010019999999N9999999N1-00871-01211100201ADDMA1999999100111MD1310141+9999REMSYN060AAXX  11141 01007 46/// /2910 11087 21121 30011 40020 53014;
0101010070999992013011115004+78917+011933FM-12+000899999V0202701N008019999999N9999999N1-00891-01291100251ADDMA1999999100151MD1310161+9999REMSYN060AAXX  11151 01007 46/// /2708 11089 21129 30015 40025 53016;
0101010070999992013011116004+78917+011933FM-12+000899999V0202801N012019999999N9999999N1-00921-01211100231ADDMA1999999100131MD1010101+9999REMSYN060AAXX  11161 01007 46/// /2812 11092 21121 30013 40023 50010;
0101010070999992013011117004+78917+011933FM-12+000899999V0202801N012019999999N9999999N1-00921-01131100251ADDMA1999999100151MD1010041+9999REMSYN060AAXX  11171 01007 46/// /2812 11092 21113 30015 40025 50004;
0207010070999992013011118004+78917+011933FM-12+000899999V0202801N011010120019N0035001N1-00921-01101100291ADDAA112000021AY181061AY231061GF108991081081008001999999KA1120M-00391MA1999999100191MD1310041+9999MW1851REMSYN094AAXX  11181 01007 11535 82811 11092 21110 30019 40029 53004 60002 78583 888// 333 11039 91118;
0101010070999992013011119004+78917+011933FM-12+000899999V0202801N010019999999N9999999N1-00901-01071100391ADDMA1999999100291MD1310161+9999REMSYN060AAXX  11191 01007 46/// /2810 11090 21107 30029 40039 53016;
0101010070999992013011120004+78917+011933FM-12+000899999V0202801N008019999999N9999999N1-00851-01051100451ADDMA1999999100351MD1310201+9999REMSYN060AAXX  11201 01007 46/// /2808 11085 21105 30035 40045 53020;
0101010070999992013011121004+78917+011933FM-12+000899999V0202701N009019999999N9999999N1-00761-01001100471ADDMA1999999100381MD1110191+9999REMSYN060AAXX  11211 01007 46/// /2709 11076 21100 30038 40047 51019;
0101010070999992013011122004+78917+011933FM-12+000899999V0202801N009019999999N9999999N1-00581-00751100481ADDMA1999999100391MD1010091+9999REMSYN060AAXX  11221 01007 46/// /2809 11058 21075 30039 40048 50009;
0101010070999992013011123004+78917+011933FM-12+000899999V0203001N006019999999N9999999N1-00551-00851100611ADDMA1999999100511MD1310161+9999REMSYN060AAXX  11231 01007 46/// /3006 11055 21085 30051 40061 53016;
0128010070999992013011200004+78917+011933FM-12+000899999V0202801N005019999999N9999999N1-00751-01051100701ADDAA106000021MA1999999100601MD1310221+9999REMSYN076AAXX  12001 01007 16/// /2805 11075 21105 30060 40070 53022 60001 333 91117;
0101010070999992013011201004+78917+011933FM-12+000899999V0203401N003019999999N9999999N1-00591-01001100791ADDMA1999999100691MD1110311+9999REMSYN060AAXX  12011 01007 46/// /3403 11059 21100 30069 40079 51031;
0101010070999992013011202004+78917+011933FM-12+000899999V0202601N002019999999N9999999N1-00701-01061100881ADDMA1999999100781MD1110271+9999REMSYN060AAXX  12021 01007 46/// /2602 11070 21106 30078 40088 51027;
0101010070999992013011203004+78917+011933FM-12+000899999V0202501N001019999999N9999999N1-00671-01081100991ADDMA1999999100891MD1210291+9999REMSYN060AAXX  12031 01007 46/// /2501 11067 21108 30089 40099 52029;
0101010070999992013011204004+78917+011933FM-12+000899999V0209999C000019999999N9999999N1-00951-01331101111ADDMA1999999101011MD1210311+9999REMSYN060AAXX  12041 01007 46/// /0000 11095 21133 30101 40111 52031;
0101010070999992013011205004+78917+011933FM-12+000899999V0202701N001019999999N9999999N1-00931-01241101171ADDMA1999999101071MD1110291+9999REMSYN060AAXX  12051 01007 46/// /2701 11093 21124 30107 40117 51029;
0253010070999992013011206004+78917+011933FM-12+000899999V0209999C000012200019N0750001N1-00841-01261101251ADDAA112000021AA224000021AJ100159199999999AY181061AY231061GF101991001001999999001011IA1289KA1999N-01081MA1999999101151MD1110271+9999MW1021REMSYN106AAXX  12061 01007 11989 10000 11084 21126 30115 40125 51027 60002 70283 80001 333 21108 44015 70000 91106;
0101010070999992013011207004+78917+011933FM-12+000899999V0202101N001019999999N9999999N1-00861-01181101331ADDMA1999999101231MD1210221+9999REMSYN060AAXX  12071 01007 46/// /2101 11086 21118 30123 40133 52022;
0101010070999992013011208004+78917+011933FM-12+000899999V0209999C000019999999N9999999N1-00971-01251101411ADDMA1999999101311MD1210241+9999REMSYN060AAXX  12081 01007 46/// /0000 11097 21125 30131 40141 52024;
0101010070999992013011209004+78917+011933FM-12+000899999V0209999C000019999999N9999999N1-00991-01281101491ADDMA1999999101391MD1210231+9999REMSYN060AAXX  12091 01007 46/// /0000 11099 21128 30139 40149 52023;
0101010070999992013011210004+78917+011933FM-12+000899999V0202701N002019999999N9999999N1-01181-01481101561ADDMA1999999101451MD1110231+9999REMSYN060AAXX  12101 01007 46/// /2702 11118 21148 30145 40156 51023;
0101010070999992013011211004+78917+011933FM-12+000899999V0203001N001019999999N9999999N1-00961-01331101611ADDMA1999999101511MD1210191+9999REMSYN060AAXX  12111 01007 46/// /3001 11096 21133 30151 40161 52019;
0188010070999992013011212004+78917+011933FM-12+000899999V0209999C000012200019N0750001N1-01121-01421101671ADDAA106000391AY101061AY201061GF102991011011004501001011MA1999999101571MD1210181+9999MW1021REMSYN088AAXX  12121 01007 11489 20000 11112 21142 30157 40167 52018 69931 70200 81101 333 91103;
0101010070999992013011213004+78917+011933FM-12+000899999V0209999C000019999999N9999999N1-01001-01331101701ADDMA1999999101601MD1210151+9999REMSYN060AAXX  12131 01007 46/// /0000 11100 21133 30160 40170 52015;
0101010070999992013011214004+78917+011933FM-12+000899999V0201201N001019999999N9999999N1-01051-01371101731ADDMA1999999101631MD1110121+9999REMSYN060AAXX  12141 01007 46/// /1201 11105 21137 30163 40173 51012;
0101010070999992013011215004+78917+011933FM-12+000899999V0200801N001019999999N9999999N1-01151-01471101771ADDMA1999999101661MD1210091+9999REMSYN060AAXX  12151 01007 46/// /0801 11115 21147 30166 40177 52009;
0101010070999992013011216004+78917+011933FM-12+000899999V0202401N001019999999N9999999N1-01071-01431101801ADDMA1999999101691MD1210091+9999REMSYN060AAXX  12161 01007 46/// /2401 11107 21143 30169 40180 52009;
0101010070999992013011217004+78917+011933FM-12+000899999V0209999C000019999999N9999999N1-01061-01381101831ADDMA1999999101731MD1210111+9999REMSYN060AAXX  12171 01007 46/// /0000 11106 21138 30173 40183 52011;
0226010070999992013011218004+78917+011933FM-12+000899999V0209999C000012200019N0750001N1-01291-01591101841ADDAA112000091AY101061AY201061GF102991021001017501031001KA1120M-00861MA1999999101731MD1110071+9999MW1021REMSYN094AAXX  12181 01007 11789 20000 11129 21159 30173 40184 51007 60002 70200 82030 333 11086 91103;EQDQ01  00002PRCP12
0101010070999992013011219004+78917+011933FM-12+000899999V0201701N002019999999N9999999N1-01441-01901101871ADDMA1999999101771MD1210081+9999REMSYN060AAXX  12191 01007 46/// /1702 11144 21190 30177 40187 52008;
0101010070999992013011220004+78917+011933FM-12+000899999V0209999C000019999999N9999999N1-01311-01611101911ADDMA1999999101811MD1310081+9999REMSYN060AAXX  12201 01007 46/// /0000 11131 21161 30181 40191 53008;
0101010070999992013011221004+78917+011933FM-12+000899999V0209999C000019999999N9999999N1-01161-01511101931ADDMA1999999101831MD1210091+9999REMSYN060AAXX  12211 01007 46/// /0000 11116 21151 30183 40193 52009;
0101010070999992013011222004+78917+011933FM-12+000899999V0209999C000019999999N9999999N1-01281-01591101951ADDMA1999999101841MD1210071+9999REMSYN060AAXX  12221 01007 46/// /0000 11128 21159 30184 40195 52007;
0101010070999992013011223004+78917+011933FM-12+000899999V0202601N001019999999N9999999N1-01361-01641101981ADDMA1999999101871MD1210061+9999REMSYN060AAXX  12231 01007 46/// /2601 11136 21164 30187 40198 52006;
0128010070999992013011300004+78917+011933FM-12+000899999V0209999C000019999999N9999999N1-01391-01651102001ADDAA106000591MA1999999101901MD1210071+9999REMSYN076AAXX  13001 01007 16/// /0000 11139 21165 30190 40200 52007 69951 333 91104;
0101010070999992013011301004+78917+011933FM-12+000899999V0202501N002019999999N9999999N1-01221-01581102021ADDMA1999999101921MD1210081+9999REMSYN060AAXX  13011 01007 46/// /2502 11122 21158 30192 40202 52008;
0101010070999992013011302004+78917+011933FM-12+000899999V0202501N001019999999N9999999N1-01261-01681102041ADDMA1999999101941MD1210061+9999REMSYN060AAXX  13021 01007 46/// /2501 11126 21168 30194 40204 52006;
0101010070999992013011303004+78917+011933FM-12+000899999V0202401N001019999999N9999999N1-01251-01651102041ADDMA1999999101941MD1210041+9999REMSYN060AAXX  13031 01007 46/// /2401 11125 21165 30194 40204 52004;
0101010070999992013011304004+78917+011933FM-12+000899999V0202601N001019999999N9999999N1-01321-01771102061ADDMA1999999101961MD1210041+9999REMSYN060AAXX  13041 01007 46/// /2601 11132 21177 30196 40206 52004;
0101010070999992013011305004+78917+011933FM-12+000899999V0201301N001019999999N9999999N1-01321-01711102081ADDMA1999999101971MD1210041+9999REMSYN060AAXX  13051 01007 46/// /1301 11132 21171 30197 40208 52004;
0164010070999992013011306004+78917+011933FM-12+000899999V0202401N001019999999N9999999N1-01271-01741102101ADDAA112000591AA224000591KA1999N-01711MA1999999102001MD1210061+9999REMSYN088AAXX  13061 01007 16/// /2401 11127 21174 30200 40210 52006 69952 333 21171 70005 91103;
0101010070999992013011307004+78917+011933FM-12+000899999V0202501N001019999999N9999999N1-01321-01771102121ADDMA1999999102021MD1210071+9999REMSYN060AAXX  13071 01007 46/// /2501 11132 21177 30202 40212 52007;
0101010070999992013011308004+78917+011933FM-12+000899999V0202101N001019999999N9999999N1-01351-01831102151ADDMA1999999102051MD1210071+9999REMSYN060AAXX  13081 01007 46/// /2101 11135 21183 30205 40215 52007;
0101010070999992013011309004+78917+011933FM-12+000899999V0202601N002019999999N9999999N1-01611-02131102161ADDMA1999999102061MD1210061+9999REMSYN060AAXX  13091 01007 46/// /2602 11161 21213 30206 40216 52006;
0101010070999992013011310004+78917+011933FM-12+000899999V0201501N001019999999N9999999N1-01321-01911102181ADDMA1999999102071MD1210051+9999REMSYN060AAXX  13101 01007 46/// /1501 11132 21191 30207 40218 52005;
0101010070999992013011311004+78917+011933FM-12+000899999V0201601N002019999999N9999999N1-01321-01941102201ADDMA1999999102091MD1210041+9999REMSYN060AAXX  13111 01007 46/// /1602 11132 21194 30209 40220 52004;
0217010070999992013011312004+78917+011933FM-12+000899999V0202201N001012200019N0750001N1-01291-01881102211ADDAA106000091AY101061AY201061GA1001+999999999GF100991001001999999001001MA1999999102101MD1210051+9999MW1021REMSYN082AAXX  13121 01007 11989 02201 11129 21188 30210 40221 52005 60001 70200 333 91103;EQDQ01  00002PRCP06
0101010070999992013011313004+78917+011933FM-12+000899999V0201301N002019999999N9999999N1-01301-01921102211ADDMA1999999102111MD1210031+9999REMSYN060AAXX  13131 01007 46/// /1302 11130 21192 30211 40221 52003;
0101010070999992013011314004+78917+011933FM-12+000899999V0201401N005019999999N9999999N1-01391-01941102201ADDMA1999999102101MD1010011+9999REMSYN060AAXX  13141 01007 46/// /1405 11139 21194 30210 40220 50001;
0101010070999992013011315004+78917+011933FM-12+000899999V0201301N005019999999N9999999N1-01311-01861102211ADDMA1999999102101MD1410001+9999REMSYN060AAXX  13151 01007 46/// /1305 11131 21186 30210 40221 54000;
0101010070999992013011316004+78917+011933FM-12+000899999V0201401N004019999999N9999999N1-01271-01881102211ADDMA1999999102111MD1410001+9999REMSYN060AAXX  13161 01007 46/// /1404 11127 21188 30211 40221 54000;
0101010070999992013011317004+78917+011933FM-12+000899999V0201401N004019999999N9999999N1-01361-01911102231ADDMA1999999102131MD1210031+9999REMSYN060AAXX  13171 01007 46/// /1404 11136 21191 30213 40223 52003;
0236010070999992013011318004+78917+011933FM-12+000899999V0201501N004012200019N0750001N1-01281-01901102221ADDAA112000091AY101061AY201061GA1001+999999999GF100991001001999999001001KA1120M-01171MA1999999102121MD1210011+9999MW1021REMSYN088AAXX  13181 01007 11989 01504 11128 21190 30212 40222 52001 60002 70200 333 11117 91107;EQDQ01  00002PRCP12
0101010070999992013011319004+78917+011933FM-12+000899999V0201501N004019999999N9999999N1-01291-01881102211ADDMA1999999102111MD1410001+9999REMSYN060AAXX  13191 01007 46/// /1504 11129 21188 30211 40221 54000;
0101010070999992013011320004+78917+011933FM-12+000899999V0201201N003019999999N9999999N1-01181-01851102211ADDMA1999999102111MD1710011+9999REMSYN060AAXX  13201 01007 46/// /1203 11118 21185 30211 40221 57001;
0101010070999992013011321004+78917+011933FM-12+000899999V0201301N004019999999N9999999N1-01241-01961102231ADDMA1999999102131MD1210011+9999REMSYN060AAXX  13211 01007 46/// /1304 11124 21196 30213 40223 52001;
0101010070999992013011322004+78917+011933FM-12+000899999V0201301N005019999999N9999999N1-01221-01951102211ADDMA1999999102111MD1410001+9999REMSYN060AAXX  13221 01007 46/// /1305 11122 21195 30211 40221 54000;
0101010070999992013011323004+78917+011933FM-12+000899999V0201301N004019999999N9999999N1-01281-02001102221ADDMA1999999102121MD1410001+9999REMSYN060AAXX  13231 01007 46/// /1304 11128 21200 30212 40222 54001;
0147010070999992013011400004+78917+011933FM-12+000899999V0201301N006019999999N9999999N1-01251-01951102241ADDAA106000091MA1999999102131MD1510001+9999REMSYN076AAXX  14001 01007 16/// /1306 11125 21195 30213 40224 55000 60001 333 91108;EQDQ01  00002PRCP06
0101010070999992013011401004+78917+011933FM-12+000899999V0201401N002019999999N9999999N1-01231-02041102251ADDMA1999999102151MD1210041+9999REMSYN060AAXX  14011 01007 46/// /1402 11123 21204 30215 40225 52004;
0101010070999992013011402004+78917+011933FM-12+000899999V0201401N002019999999N9999999N1-01201-02061102241ADDMA1999999102131MD1210021+9999REMSYN060AAXX  14021 01007 46/// /1402 11120 21206 30213 40224 52002;
0101010070999992013011403004+78917+011933FM-12+000899999V0201301N004019999999N9999999N1-01141-01961102251ADDMA1999999102151MD1210011+9999REMSYN060AAXX  14031 01007 46/// /1304 11114 21196 30215 40225 52001;
0101010070999992013011404004+78917+011933FM-12+000899999V0201401N001019999999N9999999N1-01191-02071102251ADDMA1999999102151MD1410001+9999REMSYN060AAXX  14041 01007 46/// /1401 11119 21207 30215 40225 54000;
0101010070999992013011405004+78917+011933FM-12+000899999V0201501N002019999999N9999999N1-01261-02051102251ADDMA1999999102151MD1210011+9999REMSYN060AAXX  14051 01007 46/// /1502 11126 21205 30215 40225 52001;
0279010070999992013011406004+78917+011933FM-12+000899999V0209999C000012200019N0750001N1-01201-01991102261ADDAA112000091AA224000091AJ100159199999999AY101061AY201061GA1001+999999999GF100991001001999999001001IA1289MA1999999102161MD1210011+9999MW1021REMSYN094AAXX  14061 01007 11989 00000 11120 21199 30216 40226 52001 60002 70200 333 44015 70000 91108;EQDQ01  00002PRCP24Q02  00002PRCP12
0101010070999992013011407004+78917+011933FM-12+000899999V0201201N003019999999N9999999N1-01241-01981102281ADDMA1999999102171MD1210031+9999REMSYN060AAXX  14071 01007 46/// /1203 11124 21198 30217 40228 52003;
0101010070999992013011408004+78917+011933FM-12+000899999V0201501N003019999999N9999999N1-01141-01751102311ADDMA1999999102211MD1210061+9999REMSYN060AAXX  14081 01007 46/// /1503 11114 21175 30221 40231 52006;
0101010070999992013011409004+78917+011933FM-12+000899999V0201601N001019999999N9999999N1-01161-01791102341ADDMA1999999102231MD1210071+9999REMSYN060AAXX  14091 01007 46/// /1601 11116 21179 30223 40234 52007;
0101010070999992013011410004+78917+011933FM-12+000899999V0201501N002019999999N9999999N1-01171-01941102371ADDMA1999999102271MD1210101+9999REMSYN060AAXX  14101 01007 46/// /1502 11117 21194 30227 40237 52010;
0101010070999992013011411004+78917+011933FM-12+000899999V0201401N002019999999N9999999N1-01141-01911102371ADDMA1999999102271MD1210061+9999REMSYN060AAXX  14111 01007 46/// /1402 11114 21191 30227 40237 52006;
0217010070999992013011412004+78917+011933FM-12+000899999V0201401N002012200019N0750001N1-01191-01861102371ADDAA106000091AY101061AY201061GA1001+999999999GF100991001001999999001001MA1999999102271MD1010031+9999MW1021REMSYN082AAXX  14121 01007 11989 01402 11119 21186 30227 40237 50003 60001 70200 333 91106;EQDQ01  00002PRCP06
0101010070999992013011413004+78917+011933FM-12+000899999V0201101N001019999999N9999999N1-01181-01891102381ADDMA1999999102271MD1410001+9999REMSYN060AAXX  14131 01007 46/// /1101 11118 21189 30227 40238 54000;
0101010070999992013011414004+78917+011933FM-12+000899999V0201401N002019999999N9999999N1-01221-01971102391ADDMA1999999102291MD1210021+9999REMSYN060AAXX  14141 01007 46/// /1402 11122 21197 30229 40239 52002;
0101010070999992013011415004+78917+011933FM-12+000899999V0201501N002019999999N9999999N1-01201-01891102381ADDMA1999999102281MD1210011+9999REMSYN060AAXX  14151 01007 46/// /1502 11120 21189 30228 40238 52001;
0101010070999992013011416004+78917+011933FM-12+000899999V0201401N003019999999N9999999N1-01231-02001102381ADDMA1999999102271MD1410001+9999REMSYN060AAXX  14161 01007 46/// /1403 11123 21200 30227 40238 54000;
0101010070999992013011417004+78917+011933FM-12+000899999V0201301N003019999999N9999999N1-01251-02021102381ADDMA1999999102271MD1710011+9999REMSYN060AAXX  14171 01007 46/// /1303 11125 21202 30227 40238 57001;
0236010070999992013011418004+78917+011933FM-12+000899999V0201401N004012200019N0750001N1-01341-02021102381ADDAA112000091AY101061AY201061GA1001+999999999GF100991001001999999001001KA1120M-01101MA1999999102271MD1410001+9999MW1021REMSYN088AAXX  14181 01007 11989 01404 11134 21202 30227 40238 54001 60002 70200 333 11110 91106;EQDQ01  00002PRCP12
0101010070999992013011419004+78917+011933FM-12+000899999V0201501N003019999999N9999999N1-01241-01961102351ADDMA1999999102251MD1710021+9999REMSYN060AAXX  14191 01007 46/// /1503 11124 21196 30225 40235 57002;
0101010070999992013011420004+78917+011933FM-12+000899999V0201301N003019999999N9999999N1-01331-02071102331ADDMA1999999102221MD1710051+9999REMSYN060AAXX  14201 01007 46/// /1303 11133 21207 30222 40233 57005;
0101010070999992013011421004+78917+011933FM-12+000899999V0201201N004019999999N9999999N1-01331-02091102291ADDMA1999999102191MD1710091+9999REMSYN060AAXX  14211 01007 46/// /1204 11133 21209 30219 40229 57009;
0101010070999992013011422004+78917+011933FM-12+000899999V0201501N001019999999N9999999N1-01241-01981102261ADDMA1999999102161MD1710091+9999REMSYN060AAXX  14221 01007 46/// /1501 11124 21198 30216 40226 57009;
0101010070999992013011423004+78917+011933FM-12+000899999V0201301N002019999999N9999999N1-01241-02011102241ADDMA1999999102141MD1710091+9999REMSYN060AAXX  14231 01007 46/// /1302 11124 21201 30214 40224 57009;
0147010070999992013011500004+78917+011933FM-12+000899999V0201201N005019999999N9999999N1-01251-01991102231ADDAA106000091MA1999999102131MD1710061+9999REMSYN076AAXX  15001 01007 16/// /1205 11125 21199 30213 40223 57006 60001 333 91106;EQDQ01  00002PRCP06
0101010070999992013011501004+78917+011933FM-12+000899999V0201501N004019999999N9999999N1-01301-01941102201ADDMA1999999102101MD1710061+9999REMSYN060AAXX  15011 01007 46/// /1504 11130 21194 30210 40220 57006;
0101010070999992013011502004+78917+011933FM-12+000899999V0201301N004019999999N9999999N1-01221-01971102161ADDMA1999999102061MD1810081+9999REMSYN060AAXX  15021 01007 46/// /1304 11122 21197 30206 40216 58008;
0101010070999992013011503004+78917+011933FM-12+000899999V0201301N005019999999N9999999N1-01191-01901102121ADDMA1999999102021MD1710111+9999REMSYN060AAXX  15031 01007 46/// /1305 11119 21190 30202 40212 57011;
0101010070999992013011504004+78917+011933FM-12+000899999V0201401N005019999999N9999999N1-01181-01951102061ADDMA1999999101961MD1610141+9999REMSYN060AAXX  15041 01007 46/// /1405 11118 21195 30196 40206 56014;
0101010070999992013011505004+78917+011933FM-12+000899999V0201401N005019999999N9999999N1-01071-01761102011ADDMA1999999101911MD1710151+9999REMSYN060AAXX  15051 01007 46/// /1405 11107 21176 30191 40201 57015;
0298010070999992013011506004+78917+011933FM-12+000899999V0201501N005012200019N0750001N1-00991-01541101941ADDAA112000091AA224000091AJ100129199999999AY101061AY201061GA1001+999999999GF100991001001999999001001IA1289KA1999N-01401MA1999999101841MD1710181+9999MW1021REMSYN100AAXX  15061 01007 11989 01505 11099 21154 30184 40194 57018 60002 70200 333 21140 44012 70000 91108;EQDQ01  00002PRCP24Q02  00002PRCP12
0101010070999992013011507004+78917+011933FM-12+000899999V0201401N007019999999N9999999N1-00921-01321101901ADDMA1999999101801MD1610171+9999REMSYN060AAXX  15071 01007 46/// /1407 11092 21132 30180 40190 56017;
0101010070999992013011508004+78917+011933FM-12+000899999V0201401N005019999999N9999999N1-00841-01221101871ADDMA1999999101771MD1610141+9999REMSYN060AAXX  15081 01007 46/// /1405 11084 21122 30177 40187 56014;
0101010070999992013011509004+78917+011933FM-12+000899999V0201201N007019999999N9999999N1-00681-01051101791ADDMA1999999101691MD1810151+9999REMSYN060AAXX  15091 01007 46/// /1207 11068 21105 30169 40179 58015;
0101010070999992013011510004+78917+011933FM-12+000899999V0201401N005019999999N9999999N1-00701-01171101781ADDMA1999999101681MD1610111+9999REMSYN060AAXX  15101 01007 46/// /1405 11070 21117 30168 40178 56011;
0101010070999992013011511004+78917+011933FM-12+000899999V0201101N010019999999N9999999N1-00701-01091101721ADDMA1999999101621MD1610151+9999REMSYN060AAXX  15111 01007 46/// /1110 11070 21109 30162 40172 56015;
0207010070999992013011512004+78917+011933FM-12+000899999V0201001N012012200019N0400001N1-00721-01081101651ADDAA106000091AY121061AY211061GF103991021001999999071061MA1999999101551MD1810151+9999MW1381REMSYN088AAXX  15121 01007 11982 31012 11072 21108 30155 40165 58015 60001 73821 82076 333 91115;EQDQ01  00002PRCP06
0101010070999992013011513004+78917+011933FM-12+000899999V0201201N012019999999N9999999N1-00841-01241101561ADDMA1999999101461MD1710221+9999REMSYN060AAXX  15131 01007 46/// /1212 11084 21124 30146 40156 57022;
0101010070999992013011514004+78917+011933FM-12+000899999V0201101N015019999999N9999999N1-00731-01121101461ADDMA1999999101361MD1810261+9999REMSYN060AAXX  15141 01007 46/// /1115 11073 21112 30136 40146 58026;
0101010070999992013011515004+78917+011933FM-12+000899999V0201201N011019999999N9999999N1-00761-01211101381ADDMA1999999101281MD1710271+9999REMSYN060AAXX  15151 01007 46/// /1211 11076 21121 30128 40138 57027;
0101010070999992013011516004+78917+011933FM-12+000899999V0201101N014019999999N9999999N1-00691-01111101281ADDMA1999999101181MD1710281+9999REMSYN060AAXX  15161 01007 46/// /1114 11069 21111 30118 40128 57028;
0101010070999992013011517004+78917+011933FM-12+000899999V0201101N015019999999N9999999N1-00731-01171101211ADDMA1999999101111MD1810251+9999REMSYN060AAXX  15171 01007 46/// /1115 11073 21117 30111 40121 58025;
0226010070999992013011518004+78917+011933FM-12+000899999V0201101N014010240019N0750001N1-00681-01101101141ADDAA112000091AY131061AY221061GF107991011051008001071999KA1120M-00601MA1999999101041MD1610231+9999MW1361REMSYN094AAXX  15181 01007 11589 71114 11068 21110 30104 40114 56023 60002 73632 8157/ 333 11060 91119;EQDQ01  00002PRCP12
0101010070999992013011519004+78917+011933FM-12+000899999V0201101N013019999999N9999999N1-00701-01281101061ADDMA1999999100961MD1810221+9999REMSYN060AAXX  15191 01007 46/// /1113 11070 21128 30096 40106 58022;
0101010070999992013011520004+78917+011933FM-12+000899999V0201101N014019999999N9999999N1-00601-01041100941ADDMA1999999100841MD1810271+9999REMSYN060AAXX  15201 01007 46/// /1114 11060 21104 30084 40094 58027;
0101010070999992013011521004+78917+011933FM-12+000899999V0201101N016019999999N9999999N1-00601-01061100821ADDMA1999999100721MD1810331+9999REMSYN060AAXX  15211 01007 46/// /1116 11060 21106 30072 40082 58033;
0101010070999992013011522004+78917+011933FM-12+000899999V0201101N017019999999N9999999N1-00561-01001100701ADDMA1999999100601MD1710361+9999REMSYN060AAXX  15221 01007 46/// /1117 11056 21100 30060 40070 57036;
0101010070999992013011523004+78917+011933FM-12+000899999V0201001N018019999999N9999999N1-00531-00991100591ADDMA1999999100491MD1710351+9999REMSYN060AAXX  15231 01007 46/// /1018 11053 21099 30049 40059 57035;
0147010070999992013011600004+78917+011933FM-12+000899999V0201001N018019999999N9999999N1-00581-00941100461ADDAA106000091MA1999999100361MD1710361+9999REMSYN076AAXX  16001 01007 16/// /1018 11058 21094 30036 40046 57036 60001 333 91124;EQDQ01  00002PRCP06
0101010070999992013011601004+78917+011933FM-12+000899999V0201001N018019999999N9999999N1-00541-00861100351ADDMA1999999100251MD1710351+9999REMSYN060AAXX  16011 01007 46/// /1018 11054 21086 30025 40035 57035;
0101010070999992013011602004+78917+011933FM-12+000899999V0201001N018019999999N9999999N1-00491-00811100271ADDMA1999999100181MD1610311+9999REMSYN060AAXX  16021 01007 46/// /1018 11049 21081 30018 40027 56031;
0101010070999992013011603004+78917+011933FM-12+000899999V0201001N016019999999N9999999N1-00481-00781100221ADDMA1999999100121MD1610241+9999REMSYN060AAXX  16031 01007 46/// /1016 11048 21078 30012 40022 56024;
0101010070999992013011604004+78917+011933FM-12+000899999V0201101N015019999999N9999999N1-00421-00771100131ADDMA1999999100041MD1610221+9999REMSYN060AAXX  16041 01007 46/// /1115 11042 21077 30004 40013 56022;
0101010070999992013011605004+78917+011933FM-12+000899999V0201101N014019999999N9999999N1-00441-00701100111ADDMA1999999100021MD1610161+9999REMSYN060AAXX  16051 01007 46/// /1114 11044 21070 30002 40011 56016;
0288010070999992013011606004+78917+011933FM-12+000899999V0201101N014010075019N0750001N1-00401-00701100121ADDAA112000091AA224000091AJ100109199999999AY121061AY221061GF108991081051008001999999IA1289KA1999N-00781MA1999999100021MD1610101+9999MW1021REMSYN106AAXX  16061 01007 11589 81114 11040 21070 30002 40012 56010 60002 70222 885// 333 21078 44010 70000 91123;EQDQ01  00002PRCP24Q02  00002PRCP12
0101010070999992013011607004+78917+011933FM-12+000899999V0201401N004019999999N9999999N1-00411-00781100181ADDMA1999999100081MD1310051+9999REMSYN060AAXX  16071 01007 46/// /1404 11041 21078 30008 40018 53005;
0101010070999992013011608004+78917+011933FM-12+000899999V0202401N005019999999N9999999N1-00471-00791100201ADDMA1999999100111MD1310091+9999REMSYN060AAXX  16081 01007 46/// /2405 11047 21079 30011 40020 53009;
0101010070999992013011609004+78917+011933FM-12+000899999V0202301N008019999999N9999999N1-00561-00821100211ADDMA1999999100111MD1110091+9999REMSYN060AAXX  16091 01007 46/// /2308 11056 21082 30011 40021 51009;
0101010070999992013011610004+78917+011933FM-12+000899999V0202101N009019999999N9999999N1-00611-00941100231ADDMA1999999100141MD1210051+9999REMSYN060AAXX  16101 01007 46/// /2109 11061 21094 30014 40023 52005;
0101010070999992013011611004+78917+011933FM-12+000899999V0202101N007019999999N9999999N1-00641-01031100301ADDMA1999999100201MD1310091+9999REMSYN060AAXX  16111 01007 46/// /2107 11064 21103 30020 40030 53009;
0188010070999992013011612004+78917+011933FM-12+000899999V0202201N004010120019N0750001N1-00621-01131100341ADDAA106000591AY181061AY221061GF108991081051012501999999MA1999999100241MD1210131+9999MW1021REMSYN088AAXX  16121 01007 11689 82204 11062 21113 30024 40034 52013 69961 70282 885// 333 91116;
0101010070999992013011613004+78917+011933FM-12+000899999V0201701N004019999999N9999999N1-00651-01271100341ADDMA1999999100241MD1110111+9999REMSYN060AAXX  16131 01007 46/// /1704 11065 21127 30024 40034 51011;
0101010070999992013011614004+78917+011933FM-12+000899999V0202101N003019999999N9999999N1-00691-01301100361ADDMA1999999100261MD1110061+9999REMSYN060AAXX  16141 01007 46/// /2103 11069 21130 30026 40036 51006;
0101010070999992013011615004+78917+011933FM-12+000899999V0202301N002019999999N9999999N1-00721-01211100371ADDMA1999999100271MD1210031+9999REMSYN060AAXX  16151 01007 46/// /2302 11072 21121 30027 40037 52003;
0101010070999992013011616004+78917+011933FM-12+000899999V0201901N002019999999N9999999N1-00731-01271100351ADDMA1999999100251MD1010011+9999REMSYN060AAXX  16161 01007 46/// /1902 11073 21127 30025 40035 50001;
0101010070999992013011617004+78917+011933FM-12+000899999V0201501N004019999999N9999999N1-00771-01361100331ADDMA1999999100231MD1810031+9999REMSYN060AAXX  16171 01007 46/// /1504 11077 21136 30023 40033 58003;
0207010070999992013011618004+78917+011933FM-12+000899999V0201301N002010120019N0750001N1-00741-01431100351ADDAA112000591AY121061AY221061GF108991081051012501999999KA1120M-00391MA1999999100251MD1610021+9999MW1021REMSYN094AAXX  16181 01007 11689 81302 11074 21143 30025 40035 56002 69952 70222 885// 333 11039 91107;
0101010070999992013011619004+78917+011933FM-12+000899999V0201501N004019999999N9999999N1-00841-01371100361ADDMA1999999100261MD1310011+9999REMSYN060AAXX  16191 01007 46/// /1504 11084 21137 30026 40036 53001;
0101010070999992013011620004+78917+011933FM-12+000899999V0201501N004019999999N9999999N1-00821-01431100351ADDMA1999999100251MD1210021+9999REMSYN060AAXX  16201 01007 46/// /1504 11082 21143 30025 40035 52002;
0101010070999992013011621004+78917+011933FM-12+000899999V0201401N002019999999N9999999N1-00771-01401100351ADDMA1999999100251MD1410001+9999REMSYN060AAXX  16211 01007 46/// /1402 11077 21140 30025 40035 54000;
0101010070999992013011622004+78917+011933FM-12+000899999V0201901N002019999999N9999999N1-00781-01371100351ADDMA1999999100251MD1710011+9999REMSYN060AAXX  16221 01007 46/// /1902 11078 21137 30025 40035 57001;
0101010070999992013011623004+78917+011933FM-12+000899999V0201701N003019999999N9999999N1-00821-01471100351ADDMA1999999100251MD1410001+9999REMSYN060AAXX  16231 01007 46/// /1703 11082 21147 30025 40035 54000;
0147010070999992013011700004+78917+011933FM-12+000899999V0201401N002019999999N9999999N1-00851-01401100331ADDAA106000091MA1999999100231MD1710011+9999REMSYN076AAXX  17001 01007 16/// /1402 11085 21140 30023 40033 57001 60001 333 91106;EQDQ01  00002PRCP06
0101010070999992013011701004+78917+011933FM-12+000899999V0201701N004019999999N9999999N1-00851-01231100321ADDMA1999999100221MD1710031+9999REMSYN060AAXX  17011 01007 46/// /1704 11085 21123 30022 40032 57003;
0101010070999992013011702004+78917+011933FM-12+000899999V0201501N003019999999N9999999N1-00841-01311100301ADDMA1999999100201MD1710051+9999REMSYN060AAXX  17021 01007 46/// /1503 11084 21131 30020 40030 57005;
0101010070999992013011703004+78917+011933FM-12+000899999V0201601N002019999999N9999999N1-00841-01291100281ADDMA1999999100181MD1710061+9999REMSYN060AAXX  17031 01007 46/// /1602 11084 21129 30018 40028 57006;
0101010070999992013011704004+78917+011933FM-12+000899999V0201801N002019999999N9999999N1-00891-01201100271ADDMA1999999100171MD1710051+9999REMSYN060AAXX  17041 01007 46/// /1802 11089 21120 30017 40027 57005;
0101010070999992013011705004+78917+011933FM-12+000899999V0202201N001019999999N9999999N1-00891-01291100251ADDMA1999999100161MD1710041+9999REMSYN060AAXX  17051 01007 46/// /2201 11089 21129 30016 40025 57004;
0272010070999992013011706004+78917+011933FM-12+000899999V0201801N002012200019N0750001N1-00951-01351100251ADDAA112000091AA224000591AJ100119199999999AY121061AY201061GF101991011051012501001001IA1289KA1999N-00991MA1999999100151MD1710021+9999MW1021REMSYN106AAXX  17061 01007 11689 11802 11095 21135 30015 40025 57002 60002 70220 81500 333 21099 44011 70006 91105;EQDQ01  00002PRCP12
0101010070999992013011707004+78917+011933FM-12+000899999V0201701N002019999999N9999999N1-00931-01341100251ADDMA1999999100151MD1710021+9999REMSYN060AAXX  17071 01007 46/// /1702 11093 21134 30015 40025 57002;
0101010070999992013011708004+78917+011933FM-12+000899999V0201701N002019999999N9999999N1-00931-01431100251ADDMA1999999100151MD1710011+9999REMSYN060AAXX  17081 01007 46/// /1702 11093 21143 30015 40025 57001;
0101010070999992013011709004+78917+011933FM-12+000899999V0201801N002019999999N9999999N1-00931-01441100251ADDMA1999999100151MD1410001+9999REMSYN060AAXX  17091 01007 46/// /1802 11093 21144 30015 40025 54000;
0101010070999992013011710004+78917+011933FM-12+000899999V0201701N002019999999N9999999N1-00941-01441100261ADDMA1999999100161MD1410001+9999REMSYN060AAXX  17101 01007 46/// /1702 11094 21144 30016 40026 54000;
0101010070999992013011711004+78917+011933FM-12+000899999V0202601N002019999999N9999999N1-00961-01441100261ADDMA1999999100161MD1210011+9999REMSYN060AAXX  17111 01007 46/// /2602 11096 21144 30016 40026 52001;
0128010070999992013011712004+78917+011933FM-12+000899999V0202301N001019999999N9999999N1-01011-01521100221ADDAA106000391MA1999999100121MD1810031+9999REMSYN076AAXX  17121 01007 16/// /2301 11101 21152 30012 40022 58003 69931 333 91103;
0101010070999992013011713004+78917+011933FM-12+000899999V0201401N002019999999N9999999N1-00911-01501100201ADDMA1999999100101MD1810061+9999REMSYN060AAXX  17131 01007 46/// /1402 11091 21150 30010 40020 58006;
0101010070999992013011714004+78917+011933FM-12+000899999V0202501N002019999999N9999999N1-01061-01621100181ADDMA1999999100081MD1710081+9999REMSYN060AAXX  17141 01007 46/// /2502 11106 21162 30008 40018 57008;
0101010070999992013011715004+78917+011933FM-12+000899999V0202601N003019999999N9999999N1-01291-01711100181ADDMA1999999100081MD1710041+9999REMSYN060AAXX  17151 01007 46/// /2603 11129 21171 30008 40018 57004;
0101010070999992013011716004+78917+011933FM-12+000899999V0209999C000019999999N9999999N1-01121-01611100181ADDMA1999999100081MD1710021+9999REMSYN060AAXX  17161 01007 46/// /0000 11112 21161 30008 40018 57002;
0101010070999992013011717004+78917+011933FM-12+000899999V0209999C000019999999N9999999N1-01101-01591100161ADDMA1999999100061MD1810021+9999REMSYN060AAXX  17171 01007 46/// /0000 11110 21159 30006 40016 58002;
0226010070999992013011718004+78917+011933FM-12+000899999V0201301N002012200019N0750001N1-01091-01631100151ADDAA112000091AY121061AY201061GF102991021001999999031001KA1120M-00831MA1999999100051MD1710031+9999MW1021REMSYN094AAXX  17181 01007 11989 21302 11109 21163 30005 40015 57003 60002 70220 82030 333 11083 91104;EQDQ01  00002PRCP12
0101010070999992013011719004+78917+011933FM-12+000899999V0202501N002019999999N9999999N1-01061-01691100131ADDMA1999999100031MD1710051+9999REMSYN060AAXX  17191 01007 46/// /2502 11106 21169 30003 40013 57005;
0101010070999992013011720004+78917+011933FM-12+000899999V0201301N001019999999N9999999N1-01091-01671100141ADDMA1999999100041MD1710021+9999REMSYN060AAXX  17201 01007 46/// /1301 11109 21167 30004 40014 57002;
0101010070999992013011721004+78917+011933FM-12+000899999V0203001N001019999999N9999999N1-01151-01691100131ADDMA1999999100031MD1710021+9999REMSYN060AAXX  17211 01007 46/// /3001 11115 21169 30003 40013 57002;
0101010070999992013011722004+78917+011933FM-12+000899999V0201501N003019999999N9999999N1-01051-01651100141ADDMA1999999100041MD1210011+9999REMSYN060AAXX  17221 01007 46/// /1503 11105 21165 30004 40014 52001;
0101010070999992013011723004+78917+011933FM-12+000899999V0201301N002019999999N9999999N1-01031-01691100161ADDMA1999999100061MD1210031+9999REMSYN060AAXX  17231 01007 46/// /1302 11103 21169 30006 40016 52003;
0147010070999992013011800004+78917+011933FM-12+000899999V0202701N001019999999N9999999N1-01161-01721100171ADDAA106000091MA1999999100071MD1210041+9999REMSYN076AAXX  18001 01007 16/// /2701 11116 21172 30007 40017 52004 69921 333 91104;EQDQ01  00002PRCP06
0101010070999992013011801004+78917+011933FM-12+000899999V0201401N003019999999N9999999N1-01071-01701100191ADDMA1999999100091MD1210051+9999REMSYN060AAXX  18011 01007 46/// /1403 11107 21170 30009 40019 52005;
0101010070999992013011802004+78917+011933FM-12+000899999V0201401N004019999999N9999999N1-01101-01791100241ADDMA1999999100141MD1310081+9999REMSYN060AAXX  18021 01007 46/// /1404 11110 21179 30014 40024 53008;
0101010070999992013011803004+78917+011933FM-12+000899999V0201301N004019999999N9999999N1-00971-01551100281ADDMA1999999100181MD1310111+9999REMSYN060AAXX  18031 01007 46/// /1304 11097 21155 30018 40028 53011;
0101010070999992013011804004+78917+011933FM-12+000899999V0209999C000019999999N9999999N1-00911-01571100331ADDMA1999999100231MD1210141+9999REMSYN060AAXX  18041 01007 46/// /0000 11091 21157 30023 40033 52014;
0101010070999992013011805004+78917+011933FM-12+000899999V0201201N003019999999N9999999N1-00851-01681100371ADDMA1999999100271MD1210131+9999REMSYN060AAXX  18051 01007 46/// /1203 11085 21168 30027 40037 52013;
0183010070999992013011806004+78917+011933FM-12+000899999V0201401N005019999999N9999999N1-00971-01591100421ADDAA112000091AA224000391KA1999N-01311MA1999999100321MD1210141+9999REMSYN088AAXX  18061 01007 16/// /1405 11097 21159 30032 40042 52014 69922 333 21131 70002 91107;EQDQ01  00002PRCP12
0101010070999992013011807004+78917+011933FM-12+000899999V0201201N001019999999N9999999N1-00881-01691100481ADDMA1999999100381MD1210151+9999REMSYN060AAXX  18071 01007 46/// /1201 11088 21169 30038 40048 52015;
0101010070999992013011808004+78917+011933FM-12+000899999V0202301N002019999999N9999999N1-00921-01681100551ADDMA1999999100451MD1210181+9999REMSYN060AAXX  18081 01007 46/// /2302 11092 21168 30045 40055 52018;
0101010070999992013011809004+78917+011933FM-12+000899999V0209999C000019999999N9999999N1-01001-01721100571ADDMA1999999100471MD1110141+9999REMSYN060AAXX  18091 01007 46/// /0000 11100 21172 30047 40057 51014;
0101010070999992013011810004+78917+011933FM-12+000899999V0201301N003019999999N9999999N1-01021-01641100621ADDMA1999999100521MD1110131+9999REMSYN060AAXX  18101 01007 46/// /1303 11102 21164 30052 40062 51013;
0101010070999992013011811004+78917+011933FM-12+000899999V0202401N002019999999N9999999N1-01071-01781100671ADDMA1999999100571MD1310121+9999REMSYN060AAXX  18111 01007 46/// /2402 11107 21178 30057 40067 53012;
0217010070999992013011812004+78917+011933FM-12+000899999V0202501N002012200019N0750001N1-00991-01711100721ADDAA106000091AY101061AY201061GA1001+999999999GF100991001001999999001001MA1999999100621MD1210151+9999MW1021REMSYN082AAXX  18121 01007 11989 02502 11099 21171 30062 40072 52015 60001 70200 333 91107;EQDQ01  00002PRCP06
0101010070999992013011813004+78917+011933FM-12+000899999V0202601N001019999999N9999999N1-01191-01881100761ADDMA1999999100661MD1210141+9999REMSYN060AAXX  18131 01007 46/// /2601 11119 21188 30066 40076 52014;
0101010070999992013011814004+78917+011933FM-12+000899999V0201101N003019999999N9999999N1-00971-01771100801ADDMA1999999100701MD1210121+9999REMSYN060AAXX  18141 01007 46/// /1103 11097 21177 30070 40080 52012;
0101010070999992013011815004+78917+011933FM-12+000899999V0202501N003019999999N9999999N1-01051-01811100861ADDMA1999999100761MD1210141+9999REMSYN060AAXX  18151 01007 46/// /2503 11105 21181 30076 40086 52014;
0101010070999992013011816004+78917+011933FM-12+000899999V0201501N002019999999N9999999N1-00961-01741100921ADDMA1999999100821MD1210161+9999REMSYN060AAXX  18161 01007 46/// /1502 11096 21174 30082 40092 52016;
0101010070999992013011817004+78917+011933FM-12+000899999V0201201N008019999999N9999999N1-01071-01701100981ADDMA1999999100881MD1210181+9999REMSYN060AAXX  18171 01007 46/// /1208 11107 21170 30088 40098 52018;
0236010070999992013011818004+78917+011933FM-12+000899999V0201201N007012200019N0750001N1-01111-01781101031ADDAA112000091AY101061AY201061GA1001+999999999GF100991001001999999001001KA1120M-00791MA1999999100931MD1110171+9999MW1021REMSYN088AAXX  18181 01007 11989 01207 11111 21178 30093 40103 51017 60002 70200 333 11079 91109;EQDQ01  00002PRCP12
0101010070999992013011819004+78917+011933FM-12+000899999V0201301N005019999999N9999999N1-01141-01911101091ADDMA1999999100991MD1210171+9999REMSYN060AAXX  18191 01007 46/// /1305 11114 21191 30099 40109 52017;
0101010070999992013011820004+78917+011933FM-12+000899999V0201201N005019999999N9999999N1-01091-01951101181ADDMA1999999101081MD1310201+9999REMSYN060AAXX  18201 01007 46/// /1205 11109 21195 30108 40118 53020;
0101010070999992013011821004+78917+011933FM-12+000899999V0201201N003019999999N9999999N1-01151-02031101261ADDMA1999999101161MD1210231+9999REMSYN060AAXX  18211 01007 46/// /1203 11115 21203 30116 40126 52023;
0101010070999992013011822004+78917+011933FM-12+000899999V0201501N002019999999N9999999N1-01061-01951101321ADDMA1999999101221MD1110231+9999REMSYN060AAXX  18221 01007 46/// /1502 11106 21195 30122 40132 51023;
0101010070999992013011823004+78917+011933FM-12+000899999V0201401N003019999999N9999999N1-01131-02061101361ADDMA1999999101261MD1110181+9999REMSYN060AAXX  18231 01007 46/// /1403 11113 21206 30126 40136 51018;
0147010070999992013011900004+78917+011933FM-12+000899999V0201401N003019999999N9999999N1-01131-02141101421ADDAA106000091MA1999999101321MD1210151+9999REMSYN076AAXX  19001 01007 16/// /1403 11113 21214 30132 40142 52015 60001 333 91108;EQDQ01  00002PRCP06
0101010070999992013011901004+78917+011933FM-12+000899999V0201601N004019999999N9999999N1-01091-02031101431ADDMA1999999101331MD1110111+9999REMSYN060AAXX  19011 01007 46/// /1604 11109 21203 30133 40143 51011;
0101010070999992013011902004+78917+011933FM-12+000899999V0201401N002019999999N9999999N1-01131-01971101481ADDMA1999999101371MD1210111+9999REMSYN060AAXX  19021 01007 46/// /1402 11113 21197 30137 40148 52011;
0101010070999992013011903004+78917+011933FM-12+000899999V0201501N004019999999N9999999N1-01111-01781101501ADDMA1999999101401MD1210081+9999REMSYN060AAXX  19031 01007 46/// /1504 11111 21178 30140 40150 52008;
0101010070999992013011904004+78917+011933FM-12+000899999V0201501N003019999999N9999999N1-01071-01741101521ADDMA1999999101421MD1110091+9999REMSYN060AAXX  19041 01007 46/// /1503 11107 21174 30142 40152 51009;
0101010070999992013011905004+78917+011933FM-12+000899999V0201301N003019999999N9999999N1-01021-01681101521ADDMA1999999101421MD1210051+9999REMSYN060AAXX  19051 01007 46/// /1303 11102 21168 30142 40152 52005;
0298010070999992013011906004+78917+011933FM-12+000899999V0201401N004012200019N0750001N1-01011-01651101531ADDAA112000091AA224000091AJ100119199999999AY101061AY201061GA1001+999999999GF100991001001999999001001IA1289KA1999N-01241MA1999999101431MD1210031+9999MW1021REMSYN100AAXX  19061 01007 11989 01404 11101 21165 30143 40153 52003 60002 70200 333 21124 44011 70000 91106;EQDQ01  00002PRCP24Q02  00002PRCP12
0101010070999992013011907004+78917+011933FM-12+000899999V0201201N004019999999N9999999N1-00971-01521101541ADDMA1999999101441MD1210021+9999REMSYN060AAXX  19071 01007 46/// /1204 11097 21152 30144 40154 52002;
0101010070999992013011908004+78917+011933FM-12+000899999V0201301N003019999999N9999999N1-00901-01431101541ADDMA1999999101441MD1210021+9999REMSYN060AAXX  19081 01007 46/// /1303 11090 21143 30144 40154 52002;
0101010070999992013011909004+78917+011933FM-12+000899999V0201301N003019999999N9999999N1-00891-01421101531ADDMA1999999101431MD1410001+9999REMSYN060AAXX  19091 01007 46/// /1303 11089 21142 30143 40153 54000;
0101010070999992013011910004+78917+011933FM-12+000899999V0201401N003019999999N9999999N1-00841-01291101531ADDMA1999999101431MD1710011+9999REMSYN060AAXX  19101 01007 46/// /1403 11084 21129 30143 40153 57001;
0101010070999992013011911004+78917+011933FM-12+000899999V0201401N003019999999N9999999N1-00811-01201101521ADDMA1999999101421MD1710021+9999REMSYN060AAXX  19111 01007 46/// /1403 11081 21120 30142 40152 57002;
0188010070999992013011912004+78917+011933FM-12+000899999V0201301N003010120019N0750001N1-00761-01161101491ADDAA106000021AY181061AY221061GF108991081031012501999999MA1999999101391MD1810041+9999MW1261REMSYN088AAXX  19121 01007 11689 81303 11076 21116 30139 40149 58004 60001 72682 883// 333 91106;
0101010070999992013011913004+78917+011933FM-12+000899999V0201301N004019999999N9999999N1-00771-01171101461ADDMA1999999101361MD1810061+9999REMSYN060AAXX  19131 01007 46/// /1304 11077 21117 30136 40146 58006;
0101010070999992013011914004+78917+011933FM-12+000899999V0201401N005019999999N9999999N1-00741-01161101441ADDMA1999999101341MD1710081+9999REMSYN060AAXX  19141 01007 46/// /1405 11074 21116 30134 40144 57008;
0101010070999992013011915004+78917+011933FM-12+000899999V0201301N005019999999N9999999N1-00671-01111101431ADDMA1999999101331MD1710071+9999REMSYN060AAXX  19151 01007 46/// /1305 11067 21111 30133 40143 57007;
0101010070999992013011916004+78917+011933FM-12+000899999V0201401N004019999999N9999999N1-00651-01071101411ADDMA1999999101311MD1710061+9999REMSYN060AAXX  19161 01007 46/// /1404 11065 21107 30131 40141 57006;
