0111010060999992013010100004+78250+022817FM-12+001499999V0201201N016019999999N9999999N1-00161-00231099811ADDMA1999999099661MD1210061+9999REMSYN070AAXX  01001 01006 46/// /1216 11016 21023 39966 49981 52006 333 91123;
0101010060999992013010101004+78250+022817FM-12+001499999V0201101N015019999999N9999999N1-00151-00241099801ADDMA1999999099651MD1310031+9999REMSYN060AAXX  01011 01006 46/// /1115 11015 21024 39965 49980 53003;
0101010060999992013010102004+78250+022817FM-12+001499999V0201201N015019999999N9999999N1-00141-00231099791ADDMA1999999099631MD1410001+9999REMSYN060AAXX  01021 01006 46/// /1215 11014 21023 39963 49979 54002;
0101010060999992013010103004+78250+022817FM-12+001499999V0201201N014019999999N9999999N1-00131-00221099811ADDMA1999999099651MD1410001+9999REMSYN060AAXX  01031 01006 46/// /1214 11013 21022 39965 49981 54000;
0101010060999992013010104004+78250+022817FM-12+001499999V0201201N013019999999N9999999N1-00151-00221099851ADDMA1999999099691MD1110041+9999REMSYN060AAXX  01041 01006 46/// /1213 11015 21022 39969 49985 51004;
0101010060999992013010105004+78250+022817FM-12+001499999V0201101N012019999999N9999999N1-00141-00201099831ADDMA1999999099681MD1310041+9999REMSYN060AAXX  01051 01006 46/// /1112 11014 21020 39968 49983 53004;
0130010060999992013010106004+78250+022817FM-12+001499999V0201101N012019999999N9999999N1-00131-00201099821ADDKA1999N-00171MA1999999099661MD1510011+9999REMSYN076AAXX  01061 01006 46/// /1112 11013 21020 39966 49982 55001 333 21017 91119;
0101010060999992013010107004+78250+022817FM-12+001499999V0201101N011019999999N9999999N1-00131-00201099811ADDMA1999999099661MD1710031+9999REMSYN060AAXX  01071 01006 46/// /1111 11013 21020 39966 49981 57003;
0101010060999992013010108004+78250+022817FM-12+001499999V0201101N012019999999N9999999N1-00141-00191099801ADDMA1999999099651MD1410001+9999REMSYN060AAXX  01081 01006 46/// /1112 11014 21019 39965 49980 54003;
0101010060999992013010109004+78250+022817FM-12+001499999V0201101N012019999999N9999999N1-00131-00171099801ADDMA1999999099651MD1410001+9999REMSYN060AAXX  01091 01006 46/// /1112 11013 21017 39965 49980 54001;
0101010060999992013010110004+78250+022817FM-12+001499999V0201101N011019999999N9999999N1-00121-00161099791ADDMA1999999099641MD1410001+9999REMSYN060AAXX  01101 01006 46/// /1111 11012 21016 39964 49979 54002;
0101010060999992013010111004+78250+022817FM-12+001499999V0201101N010019999999N9999999N1-00121-00141099801ADDMA1999999099651MD1410001+9999REMSYN060AAXX  01111 01006 46/// /1110 11012 21014 39965 49980 54000;
0111010060999992013010112004+78250+022817FM-12+001499999V0201201N011019999999N9999999N1-00121-00141099801ADDMA1999999099641MD1410001+9999REMSYN070AAXX  01121 01006 46/// /1211 11012 21014 39964 49980 54001 333 91115;
0101010060999992013010113004+78250+022817FM-12+001499999V0201201N010019999999N9999999N1-00121-00141099811ADDMA1999999099661MD1410001+9999REMSYN060AAXX  01131 01006 46/// /1210 11012 21014 39966 49981 54002;
0101010060999992013010114004+78250+022817FM-12+001499999V0201101N011019999999N9999999N1-00131-00171099821ADDMA1999999099661MD1410001+9999REMSYN060AAXX  01141 01006 46/// /1111 11013 21017 39966 49982 54001;
0101010060999992013010115004+78250+022817FM-12+001499999V0201101N011019999999N9999999N1-00131-00171099801ADDMA1999999099641MD1510001+9999REMSYN060AAXX  01151 01006 46/// /1111 11013 21017 39964 49980 55000;
0101010060999992013010116004+78250+022817FM-12+001499999V0201101N011019999999N9999999N1-00141-00181099791ADDMA1999999099641MD1410001+9999REMSYN060AAXX  01161 01006 46/// /1111 11014 21018 39964 49979 54002;
0101010060999992013010117004+78250+022817FM-12+001499999V0201101N012019999999N9999999N1-00141-00181099771ADDMA1999999099621MD1710041+9999REMSYN060AAXX  01171 01006 46/// /1112 11014 21018 39962 49977 57004;
0130010060999992013010118004+78250+022817FM-12+001499999V0201101N012019999999N9999999N1-00141-00181099761ADDKA1120M-00111MA1999999099611MD1710041+9999REMSYN076AAXX  01181 01006 46/// /1112 11014 21018 39961 49976 57004 333 11011 91114;
0101010060999992013010119004+78250+022817FM-12+001499999V0201101N013019999999N9999999N1-00141-00181099711ADDMA1999999099561MD1710081+9999REMSYN060AAXX  01191 01006 46/// /1113 11014 21018 39956 49971 57008;
0101010060999992013010120004+78250+022817FM-12+001499999V0201101N012019999999N9999999N1-00141-00181099721ADDMA1999999099571MD1710051+9999REMSYN060AAXX  01201 01006 46/// /1112 11014 21018 39957 49972 57005;
0101010060999992013010121004+78250+022817FM-12+001499999V0201101N012019999999N9999999N1-00151-00201099741ADDMA1999999099581MD1010021+9999REMSYN060AAXX  01211 01006 46/// /1112 11015 21020 39958 49974 50002;
0101010060999992013010122004+78250+022817FM-12+001499999V0201001N012019999999N9999999N1-00151-00191099691ADDMA1999999099531MD1510031+9999REMSYN060AAXX  01221 01006 46/// /1012 11015 21019 39953 49969 55003;
0101010060999992013010123004+78250+022817FM-12+001499999V0201101N011019999999N9999999N1-00151-00201099681ADDMA1999999099521MD1710051+9999REMSYN060AAXX  01231 01006 46/// /1111 11015 21020 39952 49968 57005;
0111010060999992013010200004+78250+022817FM-12+001499999V0201101N010019999999N9999999N1-00151-00191099631ADDMA1999999099481MD1710101+9999REMSYN070AAXX  02001 01006 46/// /1110 11015 21019 39948 49963 57010 333 91115;
0101010060999992013010201004+78250+022817FM-12+001499999V0201201N007019999999N9999999N1-00151-00171099641ADDMA1999999099481MD1710051+9999REMSYN060AAXX  02011 01006 46/// /1207 11015 21017 39948 49964 57005;
0101010060999992013010202004+78250+022817FM-12+001499999V0201301N007019999999N9999999N1-00131-00151099641ADDMA1999999099481MD1810041+9999REMSYN060AAXX  02021 01006 46/// /1307 11013 21015 39948 49964 58004;
0101010060999992013010203004+78250+022817FM-12+001499999V0201301N007019999999N9999999N1-00111-00131099661ADDMA1999999099501MD1410001+9999REMSYN060AAXX  02031 01006 46/// /1307 11011 21013 39950 49966 54002;
0101010060999992013010207004+78250+022817FM-12+001499999V0201401N008019999999N9999999N1-00071-00121099771ADDMA1999999099621MD1210121+9999REMSYN060AAXX  02071 01006 46/// /1408 11007 21012 39962 49977 52012;
0101010060999992013010208004+78250+022817FM-12+001499999V0201401N008019999999N9999999N1-00111-00161099801ADDMA1999999099641MD1210101+9999REMSYN060AAXX  02081 01006 46/// /1408 11011 21016 39964 49980 52010;
0101010060999992013010209004+78250+022817FM-12+001499999V0201401N005019999999N9999999N1-00121-00171099801ADDMA1999999099641MD1310061+9999REMSYN060AAXX  02091 01006 46/// /1405 11012 21017 39964 49980 53006;
0101010060999992013010210004+78250+022817FM-12+001499999V0201501N005019999999N9999999N1-00131-00171099791ADDMA1999999099641MD1410001+9999REMSYN060AAXX  02101 01006 46/// /1505 11013 21017 39964 49979 54002;
0101010060999992013010211004+78250+022817FM-12+001499999V0201301N006019999999N9999999N1-00131-00171099751ADDMA1999999099591MD1610051+9999REMSYN060AAXX  02111 01006 46/// /1306 11013 21017 39959 49975 56005;
0111010060999992013010212004+78250+022817FM-12+001499999V0201401N005019999999N9999999N1-00141-00161099731ADDMA1999999099581MD1710061+9999REMSYN070AAXX  02121 01006 46/// /1405 11014 21016 39958 49973 57006 333 91109;
0101010060999992013010213004+78250+022817FM-12+001499999V0201301N006019999999N9999999N1-00141-00161099681ADDMA1999999099521MD1710111+9999REMSYN060AAXX  02131 01006 46/// /1306 11014 21016 39952 49968 57011;
0101010060999992013010214004+78250+022817FM-12+001499999V0201301N005019999999N9999999N1-00151-00191099661ADDMA1999999099501MD1710091+9999REMSYN060AAXX  02141 01006 46/// /1305 11015 21019 39950 49966 57009;
0101010060999992013010215004+78250+022817FM-12+001499999V0201201N004019999999N9999999N1-00181-00201099621ADDMA1999999099461MD1710121+9999REMSYN060AAXX  02151 01006 46/// /1204 11018 21020 39946 49962 57012;
0101010060999992013010216004+78250+022817FM-12+001499999V0201101N004019999999N9999999N1-00161-00171099541ADDMA1999999099381MD1610141+9999REMSYN060AAXX  02161 01006 46/// /1104 11016 21017 39938 49954 56014;
0101010060999992013010217004+78250+022817FM-12+001499999V0201301N005019999999N9999999N1-00161-00171099481ADDMA1999999099331MD1710181+9999REMSYN060AAXX  02171 01006 46/// /1305 11016 21017 39933 49948 57018;
0130010060999992013010218004+78250+022817FM-12+001499999V0201201N004019999999N9999999N1-00181-00191099451ADDKA1120M-00061MA1999999099291MD1810171+9999REMSYN076AAXX  02181 01006 46/// /1204 11018 21019 39929 49945 58017 333 11006 91107;
0101010060999992013010219004+78250+022817FM-12+001499999V0201101N003019999999N9999999N1-00181-00191099421ADDMA1999999099261MD1710121+9999REMSYN060AAXX  02191 01006 46/// /1103 11018 21019 39926 49942 57012;
0101010060999992013010220004+78250+022817FM-12+001499999V0201201N004019999999N9999999N1-00181-00191099381ADDMA1999999099221MD1710111+9999REMSYN060AAXX  02201 01006 46/// /1204 11018 21019 39922 49938 57011;
0101010060999992013010221004+78250+022817FM-12+001499999V0201101N004019999999N9999999N1-00191-00201099341ADDMA1999999099181MD1710111+9999REMSYN060AAXX  02211 01006 46/// /1104 11019 21020 39918 49934 57011;
0101010060999992013010222004+78250+022817FM-12+001499999V0201501N003019999999N9999999N1-00191-00201099341ADDMA1999999099191MD1810081+9999REMSYN060AAXX  02221 01006 46/// /1503 11019 21020 39919 49934 58008;
0101010060999992013010223004+78250+022817FM-12+001499999V0201301N003019999999N9999999N1-00191-00201099321ADDMA1999999099161MD1710061+9999REMSYN060AAXX  02231 01006 46/// /1303 11019 21020 39916 49932 57006;
0111010060999992013010300004+78250+022817FM-12+001499999V0201201N003019999999N9999999N1-00221-00231099311ADDMA1999999099161MD1410001+9999REMSYN070AAXX  03001 01006 46/// /1203 11022 21023 39916 49931 54002 333 91105;
0101010060999992013010301004+78250+022817FM-12+001499999V0201401N005019999999N9999999N1-00271-00291099281ADDMA1999999099131MD1710061+9999REMSYN060AAXX  03011 01006 46/// /1405 11027 21029 39913 49928 57006;
0101010060999992013010302004+78250+022817FM-12+001499999V0201601N005019999999N9999999N1-00181-00201099281ADDMA1999999099121MD1710041+9999REMSYN060AAXX  03021 01006 46/// /1605 11018 21020 39912 49928 57004;
0101010060999992013010303004+78250+022817FM-12+001499999V0200801N003019999999N9999999N1-00211-00231099291ADDMA1999999099131MD1010031+9999REMSYN060AAXX  03031 01006 46/// /0803 11021 21023 39913 49929 50003;
0101010060999992013010304004+78250+022817FM-12+001499999V0201301N006019999999N9999999N1-00231-00281099281ADDMA1999999099121MD1410001+9999REMSYN060AAXX  03041 01006 46/// /1306 11023 21028 39912 49928 54000;
0101010060999992013010305004+78250+022817FM-12+001499999V0201701N005019999999N9999999N1-00201-00251099301ADDMA1999999099151MD1410001+9999REMSYN060AAXX  03051 01006 46/// /1705 11020 21025 39915 49930 54003;
0130010060999992013010306004+78250+022817FM-12+001499999V0201101N004019999999N9999999N1-00261-00321099321ADDKA1999N-00271MA1999999099161MD1210031+9999REMSYN076AAXX  03061 01006 46/// /1104 11026 21032 39916 49932 52003 333 21027 91107;
0101010060999992013010308004+78250+022817FM-12+001499999V0201301N005019999999N9999999N1-00301-00321099381ADDMA1999999099221MD1210081+9999REMSYN060AAXX  03081 01006 46/// /1305 11030 21032 39922 49938 52008;
0101010060999992013010309004+78250+022817FM-12+001499999V0201401N006019999999N9999999N1-00301-00321099411ADDMA1999999099261MD1210091+9999REMSYN060AAXX  03091 01006 46/// /1406 11030 21032 39926 49941 52009;
0101010060999992013010310004+78250+022817FM-12+001499999V0201301N005019999999N9999999N1-00281-00301099451ADDMA1999999099301MD1210111+9999REMSYN060AAXX  03101 01006 46/// /1305 11028 21030 39930 49945 52011;
0101010060999992013010311004+78250+022817FM-12+001499999V0201401N007019999999N9999999N1-00231-00251099461ADDMA1999999099301MD1210081+9999REMSYN060AAXX  03111 01006 46/// /1407 11023 21025 39930 49946 52008;
0111010060999992013010312004+78250+022817FM-12+001499999V0201301N005019999999N9999999N1-00201-00221099491ADDMA1999999099341MD1210081+9999REMSYN070AAXX  03121 01006 46/// /1305 11020 21022 39934 49949 52008 333 91108;
0101010060999992013010313004+78250+022817FM-12+001499999V0201301N008019999999N9999999N1-00201-00221099521ADDMA1999999099371MD1210071+9999REMSYN060AAXX  03131 01006 46/// /1308 11020 21022 39937 49952 52007;
0101010060999992013010314004+78250+022817FM-12+001499999V0201301N008019999999N9999999N1-00191-00211099561ADDMA1999999099411MD1210111+9999REMSYN060AAXX  03141 01006 46/// /1308 11019 21021 39941 49956 52011;
0101010060999992013010315004+78250+022817FM-12+001499999V0201301N009019999999N9999999N1-00231-00251099611ADDMA1999999099451MD1210111+9999REMSYN060AAXX  03151 01006 46/// /1309 11023 21025 39945 49961 52011;
0101010060999992013010316004+78250+022817FM-12+001499999V0201301N008019999999N9999999N1-00221-00271099661ADDMA1999999099501MD1210141+9999REMSYN060AAXX  03161 01006 46/// /1308 11022 21027 39950 49966 52014;
0101010060999992013010317004+78250+022817FM-12+001499999V0201201N008019999999N9999999N1-00221-00281099711ADDMA1999999099551MD1210141+9999REMSYN060AAXX  03171 01006 46/// /1208 11022 21028 39955 49971 52014;
0130010060999992013010318004+78250+022817FM-12+001499999V0201101N009019999999N9999999N1-00211-00261099751ADDKA1120M-00191MA1999999099601MD1210151+9999REMSYN076AAXX  03181 01006 46/// /1109 11021 21026 39960 49975 52015 333 11019 91111;
0101010060999992013010319004+78250+022817FM-12+001499999V0201101N009019999999N9999999N1-00231-00291099811ADDMA1999999099651MD1210151+9999REMSYN060AAXX  03191 01006 46/// /1109 11023 21029 39965 49981 52015;
0101010060999992013010320004+78250+022817FM-12+001499999V0201101N009019999999N9999999N1-00251-00311099871ADDMA1999999099711MD1210161+9999REMSYN060AAXX  03201 01006 46/// /1109 11025 21031 39971 49987 52016;
0101010060999992013010321004+78250+022817FM-12+001499999V0201101N009019999999N9999999N1-00271-00321099901ADDMA1999999099751MD1210151+9999REMSYN060AAXX  03211 01006 46/// /1109 11027 21032 39975 49990 52015;
0101010060999992013010322004+78250+022817FM-12+001499999V0201001N009019999999N9999999N1-00271-00371099981ADDMA1999999099821MD1210171+9999REMSYN060AAXX  03221 01006 46/// /1009 11027 21037 39982 49998 52017;
0101010060999992013010323004+78250+022817FM-12+001499999V0201001N009019999999N9999999N1-00281-00391100041ADDMA1999999099881MD1210171+9999REMSYN060AAXX  03231 01006 46/// /1009 11028 21039 39988 40004 52017;
0111010060999992013010400004+78250+022817FM-12+001499999V0201001N007019999999N9999999N1-00301-00421100091ADDMA1999999099941MD1210191+9999REMSYN070AAXX  04001 01006 46/// /1007 11030 21042 39994 40009 52019 333 91112;
0101010060999992013010401004+78250+022817FM-12+001499999V0200801N006019999999N9999999N1-00321-00431100141ADDMA1999999099991MD1210171+9999REMSYN060AAXX  04011 01006 46/// /0806 11032 21043 39999 40014 52017;
0101010060999992013010402004+78250+022817FM-12+001499999V0200901N006019999999N9999999N1-00321-00481100191ADDMA1999999100031MD1210151+9999REMSYN060AAXX  04021 01006 46/// /0906 11032 21048 30003 40019 52015;
0101010060999992013010403004+78250+022817FM-12+001499999V0200901N005019999999N9999999N1-00311-00381100231ADDMA1999999100071MD1210141+9999REMSYN060AAXX  04031 01006 46/// /0905 11031 21038 30007 40023 52014;
0101010060999992013010404004+78250+022817FM-12+001499999V0200901N006019999999N9999999N1-00331-00441100251ADDMA1999999100101MD1210111+9999REMSYN060AAXX  04041 01006 46/// /0906 11033 21044 30010 40025 52011;
0101010060999992013010405004+78250+022817FM-12+001499999V0201001N008019999999N9999999N1-00361-00511100301ADDMA1999999100141MD1210111+9999REMSYN060AAXX  04051 01006 46/// /1008 11036 21051 30014 40030 52011;
0130010060999992013010406004+78250+022817FM-12+001499999V0200901N006019999999N9999999N1-00331-00481100361ADDKA1999N-00371MA1999999100201MD1110131+9999REMSYN076AAXX  04061 01006 46/// /0906 11033 21048 30020 40036 51013 333 21037 91110;
0101010060999992013010407004+78250+022817FM-12+001499999V0200901N007019999999N9999999N1-00341-00521100441ADDMA1999999100281MD1110181+9999REMSYN060AAXX  04071 01006 46/// /0907 11034 21052 30028 40044 51018;
0101010060999992013010408004+78250+022817FM-12+001499999V0200801N005019999999N9999999N1-00341-00521100491ADDMA1999999100331MD1210191+9999REMSYN060AAXX  04081 01006 46/// /0805 11034 21052 30033 40049 52019;
0101010060999992013010409004+78250+022817FM-12+001499999V0200901N005019999999N9999999N1-00351-00601100541ADDMA1999999100381MD1210181+9999REMSYN060AAXX  04091 01006 46/// /0905 11035 21060 30038 40054 52018;
0101010060999992013010410004+78250+022817FM-12+001499999V0200601N003019999999N9999999N1-00361-00581100621ADDMA1999999100471MD1210191+9999REMSYN060AAXX  04101 01006 46/// /0603 11036 21058 30047 40062 52019;
0101010060999992013010411004+78250+022817FM-12+001499999V0200601N003019999999N9999999N1-00391-00591100701ADDMA1999999100541MD1210201+9999REMSYN060AAXX  04111 01006 46/// /0603 11039 21059 30054 40070 52020;
0111010060999992013010412004+78250+022817FM-12+001499999V0200201N003019999999N9999999N1-00441-00631100731ADDMA1999999100571MD1310191+9999REMSYN070AAXX  04121 01006 46/// /0203 11044 21063 30057 40073 53019 333 91108;
0101010060999992013010413004+78250+022817FM-12+001499999V0200601N002019999999N9999999N1-00441-00591100811ADDMA1999999100651MD1210181+9999REMSYN060AAXX  04131 01006 46/// /0602 11044 21059 30065 40081 52018;
0101010060999992013010414004+78250+022817FM-12+001499999V0200601N001019999999N9999999N1-00381-00571100851ADDMA1999999100691MD1210151+9999REMSYN060AAXX  04141 01006 46/// /0601 11038 21057 30069 40085 52015;
0101010060999992013010415004+78250+022817FM-12+001499999V0203601N003019999999N9999999N1-00471-00611100921ADDMA1999999100761MD1210191+9999REMSYN060AAXX  04151 01006 46/// /3603 11047 21061 30076 40092 52019;
0101010060999992013010416004+78250+022817FM-12+001499999V0203201N002019999999N9999999N1-00511-00651100981ADDMA1999999100821MD1210171+9999REMSYN060AAXX  04161 01006 46/// /3202 11051 21065 30082 40098 52017;
0101010060999992013010417004+78250+022817FM-12+001499999V0202701N002019999999N9999999N1-00561-00681101041ADDMA1999999100871MD1210191+9999REMSYN060AAXX  04171 01006 46/// /2702 11056 21068 30087 40104 52019;
0130010060999992013010418004+78250+022817FM-12+001499999V0202301N004019999999N9999999N1-00621-00721101091ADDKA1120M-00321MA1999999100931MD1210171+9999REMSYN076AAXX  04181 01006 46/// /2304 11062 21072 30093 40109 52017 333 11032 91106;
0101010060999992013010419004+78250+022817FM-12+001499999V0202301N003019999999N9999999N1-00601-00701101151ADDMA1999999100991MD1210181+9999REMSYN060AAXX  04191 01006 46/// /2303 11060 21070 30099 40115 52018;
0101010060999992013010420004+78250+022817FM-12+001499999V0202401N001019999999N9999999N1-00501-00611101201ADDMA1999999101041MD1210171+9999REMSYN060AAXX  04201 01006 46/// /2401 11050 21061 30104 40120 52017;
0101010060999992013010421004+78250+022817FM-12+001499999V0202601N001019999999N9999999N1-00511-00591101281ADDMA1999999101121MD1210191+9999REMSYN060AAXX  04211 01006 46/// /2601 11051 21059 30112 40128 52019;
0101010060999992013010422004+78250+022817FM-12+001499999V0202701N001019999999N9999999N1-00561-00621101351ADDMA1999999101191MD1210201+9999REMSYN060AAXX  04221 01006 46/// /2701 11056 21062 30119 40135 52020;
0101010060999992013010423004+78250+022817FM-12+001499999V0202301N003019999999N9999999N1-00571-00621101401ADDMA1999999101241MD1310201+9999REMSYN060AAXX  04231 01006 46/// /2303 11057 21062 30124 40140 53020;
0111010060999992013010500004+78250+022817FM-12+001499999V0202301N003019999999N9999999N1-00591-00641101451ADDMA1999999101291MD1210181+9999REMSYN070AAXX  05001 01006 46/// /2303 11059 21064 30129 40145 52018 333 91104;
0101010060999992013010501004+78250+022817FM-12+001499999V0202301N003019999999N9999999N1-00591-00641101481ADDMA1999999101321MD1210131+9999REMSYN060AAXX  05011 01006 46/// /2303 11059 21064 30132 40148 52013;
0101010060999992013010502004+78250+022817FM-12+001499999V0202301N003019999999N9999999N1-00601-00661101541ADDMA1999999101381MD1210141+9999REMSYN060AAXX  05021 01006 46/// /2303 11060 21066 30138 40154 52014;
0101010060999992013010503004+78250+022817FM-12+001499999V0202301N002019999999N9999999N1-00631-00711101601ADDMA1999999101441MD1210141+9999REMSYN060AAXX  05031 01006 46/// /2302 11063 21071 30144 40160 52014;
0101010060999992013010504004+78250+022817FM-12+001499999V0202201N005019999999N9999999N1-00951-01081101661ADDMA1999999101501MD1210171+9999REMSYN060AAXX  05041 01006 46/// /2205 11095 21108 30150 40166 52017;
0101010060999992013010505004+78250+022817FM-12+001499999V0202201N005019999999N9999999N1-00861-01081101691ADDMA1999999101531MD1210151+9999REMSYN060AAXX  05051 01006 46/// /2205 11086 21108 30153 40169 52015;
0130010060999992013010506004+78250+022817FM-12+001499999V0202401N003019999999N9999999N1-00821-01091101731ADDKA1999N-01051MA1999999101561MD1210131+9999REMSYN076AAXX  05061 01006 46/// /2403 11082 21109 30156 40173 52013 333 21105 91106;
0101010060999992013010507004+78250+022817FM-12+001499999V0202201N005019999999N9999999N1-00791-01151101781ADDMA1999999101611MD1210111+9999REMSYN060AAXX  05071 01006 46/// /2205 11079 21115 30161 40178 52011;
0101010060999992013010508004+78250+022817FM-12+001499999V0202101N005019999999N9999999N1-00761-01121101831ADDMA1999999101671MD1210141+9999REMSYN060AAXX  05081 01006 46/// /2105 11076 21112 30167 40183 52014;
0101010060999992013010509004+78250+022817FM-12+001499999V0202101N004019999999N9999999N1-00731-00981101881ADDMA1999999101721MD1210161+9999REMSYN060AAXX  05091 01006 46/// /2104 11073 21098 30172 40188 52016;
0101010060999992013010510004+78250+022817FM-12+001499999V0202201N005019999999N9999999N1-00761-01101101901ADDMA1999999101741MD1310131+9999REMSYN060AAXX  05101 01006 46/// /2205 11076 21110 30174 40190 53013;
0101010060999992013010511004+78250+022817FM-12+001499999V0202201N004019999999N9999999N1-00621-00861101941ADDMA1999999101781MD1210121+9999REMSYN060AAXX  05111 01006 46/// /2204 11062 21086 30178 40194 52012;
0111010060999992013010512004+78250+022817FM-12+001499999V0202101N005019999999N9999999N1-00701-00891101951ADDMA1999999101781MD1210071+9999REMSYN070AAXX  05121 01006 46/// /2105 11070 21089 30178 40195 52007 333 91106;
0101010060999992013010513004+78250+022817FM-12+001499999V0201801N004019999999N9999999N1-00661-00921101941ADDMA1999999101781MD1310041+9999REMSYN060AAXX  05131 01006 46/// /1804 11066 21092 30178 40194 53004;
0101010060999992013010514004+78250+022817FM-12+001499999V0201801N007019999999N9999999N1-00771-00981101901ADDMA1999999101741MD1610041+9999REMSYN060AAXX  05141 01006 46/// /1807 11077 21098 30174 40190 56004;
0101010060999992013010515004+78250+022817FM-12+001499999V0201901N007019999999N9999999N1-00761-00961101931ADDMA1999999101771MD1010011+9999REMSYN060AAXX  05151 01006 46/// /1907 11076 21096 30177 40193 50001;
0101010060999992013010516004+78250+022817FM-12+001499999V0201801N007019999999N9999999N1-00721-00931101861ADDMA1999999101701MD1610081+9999REMSYN060AAXX  05161 01006 46/// /1807 11072 21093 30170 40186 56008;
0101010060999992013010517004+78250+022817FM-12+001499999V0201801N008019999999N9999999N1-00701-00941101841ADDMA1999999101671MD1510061+9999REMSYN060AAXX  05171 01006 46/// /1808 11070 21094 30167 40184 55006;
0130010060999992013010518004+78250+022817FM-12+001499999V0201801N007019999999N9999999N1-00591-00851101831ADDKA1120M-00481MA1999999101671MD1810101+9999REMSYN076AAXX  05181 01006 46/// /1807 11059 21085 30167 40183 58010 333 11048 91109;
0101010060999992013010519004+78250+022817FM-12+001499999V0201801N008019999999N9999999N1-00601-00871101781ADDMA1999999101611MD1610081+9999REMSYN060AAXX  05191 01006 46/// /1808 11060 21087 30161 40178 56008;
0101010060999992013010520004+78250+022817FM-12+001499999V0201601N005019999999N9999999N1-00621-00861101741ADDMA1999999101571MD1610101+9999REMSYN060AAXX  05201 01006 46/// /1605 11062 21086 30157 40174 56010;
0101010060999992013010521004+78250+022817FM-12+001499999V0201301N001019999999N9999999N1-00641-00881101661ADDMA1999999101501MD1710181+9999REMSYN060AAXX  05211 01006 46/// /1301 11064 21088 30150 40166 57018;
0101010060999992013010522004+78250+022817FM-12+001499999V0201501N006019999999N9999999N1-00601-00841101561ADDMA1999999101401MD1610211+9999REMSYN060AAXX  05221 01006 46/// /1506 11060 21084 30140 40156 56021;
0101010060999992013010523004+78250+022817FM-12+001499999V0201701N008019999999N9999999N1-00551-00791101421ADDMA1999999101261MD1610311+9999REMSYN060AAXX  05231 01006 46/// /1708 11055 21079 30126 40142 56031;
0111010060999992013010600004+78250+022817FM-12+001499999V0201901N008019999999N9999999N1-00471-00711101351ADDMA1999999101181MD1710311+9999REMSYN070AAXX  06001 01006 46/// /1908 11047 21071 30118 40135 57031 333 91110;
0101010060999992013010601004+78250+022817FM-12+001499999V0201801N008019999999N9999999N1-00461-00661101251ADDMA1999999101091MD1810311+9999REMSYN060AAXX  06011 01006 46/// /1808 11046 21066 30109 40125 58031;
0101010060999992013010602004+78250+022817FM-12+001499999V0201601N013019999999N9999999N1-00371-00521100991ADDMA1999999100841MD1610431+9999REMSYN060AAXX  06021 01006 46/// /1613 11037 21052 30084 40099 56043;
0101010060999992013010603004+78250+022817FM-12+001499999V0201601N014019999999N9999999N1-00301-00441100901ADDMA1999999100741MD1710451+9999REMSYN060AAXX  06031 01006 46/// /1614 11030 21044 30074 40090 57045;
0101010060999992013010604004+78250+022817FM-12+001499999V0201601N015019999999N9999999N1-00271-00361100771ADDMA1999999100611MD1810481+9999REMSYN060AAXX  06041 01006 46/// /1615 11027 21036 30061 40077 58048;
0101010060999992013010605004+78250+022817FM-12+001499999V0201601N013019999999N9999999N1-00231-00291100641ADDMA1999999100481MD1710351+9999REMSYN060AAXX  06051 01006 46/// /1613 11023 21029 30048 40064 57035;
0130010060999992013010606004+78250+022817FM-12+001499999V0201501N014019999999N9999999N1-00181-00231100491ADDKA1999N-00701MA1999999100331MD1710401+9999REMSYN076AAXX  06061 01006 46/// /1514 11018 21023 30033 40049 57040 333 21070 91118;
0101010060999992013010607004+78250+022817FM-12+001499999V0201701N015019999999N9999999N1-00091-00141100331ADDMA1999999100171MD1610441+9999REMSYN060AAXX  06071 01006 46/// /1715 11009 21014 30017 40033 56044;
0101010060999992013010608004+78250+022817FM-12+001499999V0201701N018019999999N9999999N1-00021-00081100151ADDMA1999999100001MD1710481+9999REMSYN060AAXX  06081 01006 46/// /1718 11002 21008 30000 40015 57048;
0101010060999992013010609004+78250+022817FM-12+001499999V0201701N017019999999N9999999N1+00061-00041100041ADDMA1999999099891MD1810451+9999REMSYN060AAXX  06091 01006 46/// /1717 10006 21004 39989 40004 58045;
0101010060999992013010610004+78250+022817FM-12+001499999V0201801N016019999999N9999999N1+00081-00021099961ADDMA1999999099811MD1810371+9999REMSYN060AAXX  06101 01006 46/// /1816 10008 21002 39981 49996 58037;
0101010060999992013010611004+78250+022817FM-12+001499999V0201701N015019999999N9999999N1+00081-00021099911ADDMA1999999099761MD1810241+9999REMSYN060AAXX  06111 01006 46/// /1715 10008 21002 39976 49991 58024;
0111010060999992013010612004+78250+022817FM-12+001499999V0201801N015019999999N9999999N1+00101-00011099791ADDMA1999999099631MD1610251+9999REMSYN070AAXX  06121 01006 46/// /1815 10010 21001 39963 49979 56025 333 91121;
0101010060999992013010613004+78250+022817FM-12+001499999V0201801N015019999999N9999999N1+00081-00031099731ADDMA1999999099571MD1710231+9999REMSYN060AAXX  06131 01006 46/// /1815 10008 21003 39957 49973 57023;
0101010060999992013010614004+78250+022817FM-12+001499999V0201801N013019999999N9999999N1+00081-00031099711ADDMA1999999099551MD1810201+9999REMSYN060AAXX  06141 01006 46/// /1813 10008 21003 39955 49971 58020;
0101010060999992013010615004+78250+022817FM-12+001499999V0201801N012019999999N9999999N1+00091-00051099641ADDMA1999999099491MD1710151+9999REMSYN060AAXX  06151 01006 46/// /1812 10009 21005 39949 49964 57015;
0101010060999992013010616004+78250+022817FM-12+001499999V0201801N011019999999N9999999N1+00111-00031099561ADDMA1999999099401MD1610171+9999REMSYN060AAXX  06161 01006 46/// /1811 10011 21003 39940 49956 56017;
0101010060999992013010617004+78250+022817FM-12+001499999V0201801N010019999999N9999999N1+00121-00031099521ADDMA1999999099361MD1710191+9999REMSYN060AAXX  06171 01006 46/// /1810 10012 21003 39936 49952 57019;
0130010060999992013010618004+78250+022817FM-12+001499999V0201901N011019999999N9999999N1+00151+00021099451ADDKA1120M+00151MA1999999099291MD1710191+9999REMSYN076AAXX  06181 01006 46/// /1911 10015 20002 39929 49945 57019 333 10015 91118;
0101010060999992013010619004+78250+022817FM-12+001499999V0201801N012019999999N9999999N1+00141+00021099371ADDMA1999999099221MD1610181+9999REMSYN060AAXX  06191 01006 46/// /1812 10014 20002 39922 49937 56018;
0101010060999992013010620004+78250+022817FM-12+001499999V0201901N010019999999N9999999N1+00151+00031099351ADDMA1999999099201MD1810161+9999REMSYN060AAXX  06201 01006 46/// /1910 10015 20003 39920 49935 58016;
0101010060999992013010621004+78250+022817FM-12+001499999V0201901N013019999999N9999999N1+00181+00051099281ADDMA1999999099121MD1710171+9999REMSYN060AAXX  06211 01006 46/// /1913 10018 20005 39912 49928 57017;
0101010060999992013010622004+78250+022817FM-12+001499999V0201901N014019999999N9999999N1+00161+00031099171ADDMA1999999099021MD1610201+9999REMSYN060AAXX  06221 01006 46/// /1914 10016 20003 39902 49917 56020;
0101010060999992013010623004+78250+022817FM-12+001499999V0201901N011019999999N9999999N1+00151+00021099151ADDMA1999999098991MD1810201+9999REMSYN060AAXX  06231 01006 46/// /1911 10015 20002 39899 49915 58020;
0111010060999992013010700004+78250+022817FM-12+001499999V0202001N009019999999N9999999N1+00151+00031099141ADDMA1999999098991MD1810141+9999REMSYN070AAXX  07001 01006 46/// /2009 10015 20003 39899 49914 58014 333 91116;
0101010060999992013010701004+78250+022817FM-12+001499999V0202201N004019999999N9999999N1+00161+00041099161ADDMA1999999099011MD1010001+9999REMSYN060AAXX  07011 01006 46/// /2204 10016 20004 39901 49916 50000;
0101010060999992013010702004+78250+022817FM-12+001499999V0202701N004019999999N9999999N1+00141+00041099181ADDMA1999999099031MD1210041+9999REMSYN060AAXX  07021 01006 46/// /2704 10014 20004 39903 49918 52004;
0101010060999992013010703004+78250+022817FM-12+001499999V0202501N008019999999N9999999N1+00061+00001099231ADDMA1999999099081MD1210091+9999REMSYN060AAXX  07031 01006 46/// /2508 10006 20000 39908 49923 52009;
0101010060999992013010704004+78250+022817FM-12+001499999V0202501N008019999999N9999999N1+00071-00041099271ADDMA1999999099111MD1210101+9999REMSYN060AAXX  07041 01006 46/// /2508 10007 21004 39911 49927 52010;
0101010060999992013010705004+78250+022817FM-12+001499999V0202701N007019999999N9999999N1+00031-00261099341ADDMA1999999099181MD1210151+9999REMSYN060AAXX  07051 01006 46/// /2707 10003 21026 39918 49934 52015;
0130010060999992013010706004+78250+022817FM-12+001499999V0202501N012019999999N9999999N1+00041-00331099381ADDKA1999N-00021MA1999999099221MD1210151+9999REMSYN076AAXX  07061 01006 46/// /2512 10004 21033 39922 49938 52015 333 21002 91114;
0101010060999992013010707004+78250+022817FM-12+001499999V0202501N011019999999N9999999N1-00091-00311099441ADDMA1999999099281MD1210171+9999REMSYN060AAXX  07071 01006 46/// /2511 11009 21031 39928 49944 52017;
0101010060999992013010708004+78250+022817FM-12+001499999V0202301N009019999999N9999999N1-00151-00341099491ADDMA1999999099331MD1210151+9999REMSYN060AAXX  07081 01006 46/// /2309 11015 21034 39933 49949 52015;
0101010060999992013010709004+78250+022817FM-12+001499999V0202401N012019999999N9999999N1-00191-00411099471ADDMA1999999099311MD1310091+9999REMSYN060AAXX  07091 01006 46/// /2412 11019 21041 39931 49947 53009;
0101010060999992013010710004+78250+022817FM-12+001499999V0202301N012019999999N9999999N1-00151-00361099511ADDMA1999999099351MD1210071+9999REMSYN060AAXX  07101 01006 46/// /2312 11015 21036 39935 49951 52007;
0101010060999992013010711004+78250+022817FM-12+001499999V0202301N011019999999N9999999N1-00161-00411099511ADDMA1999999099361MD1410001+9999REMSYN060AAXX  07111 01006 46/// /2311 11016 21041 39936 49951 54003;
0111010060999992013010712004+78250+022817FM-12+001499999V0202301N010019999999N9999999N1-00181-00401099531ADDMA1999999099371MD1210061+9999REMSYN070AAXX  07121 01006 46/// /2310 11018 21040 39937 49953 52006 333 91115;
0101010060999992013010713004+78250+022817FM-12+001499999V0202301N008019999999N9999999N1-00221-00391099551ADDMA1999999099401MD1210051+9999REMSYN060AAXX  07131 01006 46/// /2308 11022 21039 39940 49955 52005;
0101010060999992013010714004+78250+022817FM-12+001499999V0202401N010019999999N9999999N1-00181-00351099511ADDMA1999999099351MD1510001+9999REMSYN060AAXX  07141 01006 46/// /2410 11018 21035 39935 49951 55000;
0101010060999992013010715004+78250+022817FM-12+001499999V0202201N009019999999N9999999N1-00211-00381099501ADDMA1999999099351MD1510021+9999REMSYN060AAXX  07151 01006 46/// /2209 11021 21038 39935 49950 55002;
0101010060999992013010716004+78250+022817FM-12+001499999V0202401N012019999999N9999999N1-00221-00401099451ADDMA1999999099301MD1710101+9999REMSYN060AAXX  07161 01006 46/// /2412 11022 21040 39930 49945 57010;
0101010060999992013010717004+78250+022817FM-12+001499999V0202401N008019999999N9999999N1-00231-00421099511ADDMA1999999099361MD1010001+9999REMSYN060AAXX  07171 01006 46/// /2408 11023 21042 39936 49951 50000;
0130010060999992013010718004+78250+022817FM-12+001499999V0202701N010019999999N9999999N1-00261-00551099591ADDKA1120M+00051MA1999999099431MD1010091+9999REMSYN076AAXX  07181 01006 46/// /2710 11026 21055 39943 49959 50009 333 10005 91113;
0101010060999992013010719004+78250+022817FM-12+001499999V0202701N009019999999N9999999N1-00391-00731099661ADDMA1999999099501MD1210201+9999REMSYN060AAXX  07191 01006 46/// /2709 11039 21073 39950 49966 52020;
0101010060999992013010720004+78250+022817FM-12+001499999V0202801N009019999999N9999999N1-00431-00751099701ADDMA1999999099541MD1310191+9999REMSYN060AAXX  07201 01006 46/// /2809 11043 21075 39954 49970 53019;
0101010060999992013010721004+78250+022817FM-12+001499999V0202401N007019999999N9999999N1-00651-01011099761ADDMA1999999099601MD1210171+9999REMSYN060AAXX  07211 01006 46/// /2407 11065 21101 39960 49976 52017;
0101010060999992013010722004+78250+022817FM-12+001499999V0202601N011019999999N9999999N1-00581-00971099801ADDMA1999999099641MD1210141+9999REMSYN060AAXX  07221 01006 46/// /2611 11058 21097 39964 49980 52014;
0101010060999992013010723004+78250+022817FM-12+001499999V0202701N013019999999N9999999N1-00561-01041099851ADDMA1999999099691MD1210141+9999REMSYN060AAXX  07231 01006 46/// /2713 11056 21104 39969 49985 52014;
0111010060999992013010800004+78250+022817FM-12+001499999V0202701N011019999999N9999999N1-00621-01091099871ADDMA1999999099711MD1210111+9999REMSYN070AAXX  08001 01006 46/// /2711 11062 21109 39971 49987 52011 333 91116;
0101010060999992013010801004+78250+022817FM-12+001499999V0202501N013019999999N9999999N1-00611-01171099911ADDMA1999999099751MD1210111+9999REMSYN060AAXX  08011 01006 46/// /2513 11061 21117 39975 49991 52011;
0101010060999992013010802004+78250+022817FM-12+001499999V0202701N013019999999N9999999N1-00601-01091099971ADDMA1999999099811MD1210121+9999REMSYN060AAXX  08021 01006 46/// /2713 11060 21109 39981 49997 52012;
0101010060999992013010803004+78250+022817FM-12+001499999V0202801N012019999999N9999999N1-00561-01041100021ADDMA1999999099861MD1210141+9999REMSYN060AAXX  08031 01006 46/// /2812 11056 21104 39986 40002 52014;
0101010060999992013010804004+78250+022817FM-12+001499999V0202601N007019999999N9999999N1-00681-01091100001ADDMA1999999099841MD1310091+9999REMSYN060AAXX  08041 01006 46/// /2607 11068 21109 39984 40000 53009;
0101010060999992013010805004+78250+022817FM-12+001499999V0202201N007019999999N9999999N1-00851-01171100041ADDMA1999999099881MD1210071+9999REMSYN060AAXX  08051 01006 46/// /2207 11085 21117 39988 40004 52007;
0130010060999992013010806004+78250+022817FM-12+001499999V0202301N006019999999N9999999N1-00901-01211100071ADDKA1999N-00901MA1999999099911MD1110051+9999REMSYN076AAXX  08061 01006 46/// /2306 11090 21121 39991 40007 51005 333 21090 91115;
0101010060999992013010807004+78250+022817FM-12+001499999V0202501N007019999999N9999999N1-00911-01231100121ADDMA1999999099961MD1210111+9999REMSYN060AAXX  08071 01006 46/// /2507 11091 21123 39996 40012 52011;
0101010060999992013010808004+78250+022817FM-12+001499999V0202401N006019999999N9999999N1-00931-01221100161ADDMA1999999100001MD1210121+9999REMSYN060AAXX  08081 01006 46/// /2406 11093 21122 30000 40016 52012;
0101010060999992013010809004+78250+022817FM-12+001499999V0202601N005019999999N9999999N1-00901-01211100201ADDMA1999999100041MD1210131+9999REMSYN060AAXX  08091 01006 46/// /2605 11090 21121 30004 40020 52013;
0101010060999992013010810004+78250+022817FM-12+001499999V0202501N005019999999N9999999N1-00851-01091100221ADDMA1999999100061MD1210111+9999REMSYN060AAXX  08101 01006 46/// /2505 11085 21109 30006 40022 52011;
0101010060999992013010811004+78250+022817FM-12+001499999V0202501N005019999999N9999999N1-00881-01191100281ADDMA1999999100121MD1210121+9999REMSYN060AAXX  08111 01006 46/// /2505 11088 21119 30012 40028 52012;
0111010060999992013010812004+78250+022817FM-12+001499999V0203601N004019999999N9999999N1-00631-01071100281ADDMA1999999100121MD1210081+9999REMSYN070AAXX  08121 01006 46/// /3604 11063 21107 30012 40028 52008 333 91109;
0101010060999992013010813004+78250+022817FM-12+001499999V0203601N007019999999N9999999N1-00581-00821100311ADDMA1999999100151MD1210081+9999REMSYN060AAXX  08131 01006 46/// /3607 11058 21082 30015 40031 52008;
0101010060999992013010814004+78250+022817FM-12+001499999V0203601N005019999999N9999999N1-00571-00771100371ADDMA1999999100211MD1110101+9999REMSYN060AAXX  08141 01006 46/// /3605 11057 21077 30021 40037 51010;
0101010060999992013010815004+78250+022817FM-12+001499999V0203501N007019999999N9999999N1-00581-00821100451ADDMA1999999100291MD1110181+9999REMSYN060AAXX  08151 01006 46/// /3507 11058 21082 30029 40045 51018;
0101010060999992013010816004+78250+022817FM-12+001499999V0203401N007019999999N9999999N1-00571-00811100501ADDMA1999999100341MD1210201+9999REMSYN060AAXX  08161 01006 46/// /3407 11057 21081 30034 40050 52020;
0101010060999992013010817004+78250+022817FM-12+001499999V0203601N009019999999N9999999N1-00551-00821100541ADDMA1999999100381MD1310171+9999REMSYN060AAXX  08171 01006 46/// /3609 11055 21082 30038 40054 53017;
0130010060999992013010818004+78250+022817FM-12+001499999V0203601N010019999999N9999999N1-00561-00861100631ADDKA1120M-00541MA1999999100471MD1110181+9999REMSYN076AAXX  08181 01006 46/// /3610 11056 21086 30047 40063 51018 333 11054 91112;
0101010060999992013010819004+78250+022817FM-12+001499999V0203601N008019999999N9999999N1-00591-00881100711ADDMA1999999100551MD1110211+9999REMSYN060AAXX  08191 01006 46/// /3608 11059 21088 30055 40071 51021;
0101010060999992013010821004+78250+022817FM-12+001499999V0203601N007019999999N9999999N1-00601-00841100871ADDMA1999999100701MD1210231+9999REMSYN060AAXX  08211 01006 46/// /3607 11060 21084 30070 40087 52023;
0101010060999992013010823004+78250+022817FM-12+001499999V0200101N006019999999N9999999N1-00601-00871100991ADDMA1999999100821MD1310211+9999REMSYN060AAXX  08231 01006 46/// /0106 11060 21087 30082 40099 53021;
0111010060999992013010900004+78250+022817FM-12+001499999V0200101N006019999999N9999999N1-00611-00871101061ADDMA1999999100891MD1210191+9999REMSYN070AAXX  09001 01006 46/// /0106 11061 21087 30089 40106 52019 333 91112;
0101010060999992013010901004+78250+022817FM-12+001499999V0203601N006019999999N9999999N1-00611-00881101121ADDMA1999999100961MD1210191+9999REMSYN060AAXX  09011 01006 46/// /3606 11061 21088 30096 40112 52019;
0101010060999992013010902004+78250+022817FM-12+001499999V0203601N004019999999N9999999N1-00631-00911101211ADDMA1999999101051MD1210221+9999REMSYN060AAXX  09021 01006 46/// /3604 11063 21091 30105 40121 52022;
0101010060999992013010903004+78250+022817FM-12+001499999V0203601N004019999999N9999999N1-00611-00941101241ADDMA1999999101081MD1310181+9999REMSYN060AAXX  09031 01006 46/// /3604 11061 21094 30108 40124 53018;
0101010060999992013010904004+78250+022817FM-12+001499999V0203601N005019999999N9999999N1-00551-00871101281ADDMA1999999101121MD1310151+9999REMSYN060AAXX  09041 01006 46/// /3605 11055 21087 30112 40128 53015;
0101010060999992013010905004+78250+022817FM-12+001499999V0203601N005019999999N9999999N1-00571-00891101291ADDMA1999999101131MD1210081+9999REMSYN060AAXX  09051 01006 46/// /3605 11057 21089 30113 40129 52008;
0130010060999992013010906004+78250+022817FM-12+001499999V0203601N005019999999N9999999N1-00571-00921101351ADDKA1999N-00641MA1999999101191MD1210121+9999REMSYN076AAXX  09061 01006 46/// /3605 11057 21092 30119 40135 52012 333 21064 91109;
0101010060999992013010907004+78250+022817FM-12+001499999V0203301N005019999999N9999999N1-00581-00911101411ADDMA1999999101251MD1110131+9999REMSYN060AAXX  09071 01006 46/// /3305 11058 21091 30125 40141 51013;
0101010060999992013010908004+78250+022817FM-12+001499999V0203401N003019999999N9999999N1-00601-00901101431ADDMA1999999101271MD1310151+9999REMSYN060AAXX  09081 01006 46/// /3403 11060 21090 30127 40143 53015;
0101010060999992013010909004+78250+022817FM-12+001499999V0202701N007019999999N9999999N1-00701-01001101511ADDMA1999999101351MD1210161+9999REMSYN060AAXX  09091 01006 46/// /2707 11070 21100 30135 40151 52016;
0101010060999992013010910004+78250+022817FM-12+001499999V0202401N006019999999N9999999N1-00801-01101101521ADDMA1999999101361MD1210111+9999REMSYN060AAXX  09101 01006 46/// /2406 11080 21110 30136 40152 52011;
0101010060999992013010911004+78250+022817FM-12+001499999V0202201N005019999999N9999999N1-00961-01221101481ADDMA1999999101321MD1310041+9999REMSYN060AAXX  09111 01006 46/// /2205 11096 21122 30132 40148 53004;
0111010060999992013010912004+78250+022817FM-12+001499999V0202101N005019999999N9999999N1-01151-01451101461ADDMA1999999101301MD1710051+9999REMSYN070AAXX  09121 01006 46/// /2105 11115 21145 30130 40146 57005 333 91108;
0101010060999992013010913004+78250+022817FM-12+001499999V0202101N006019999999N9999999N1-01041-01391101441ADDMA1999999101281MD1710081+9999REMSYN060AAXX  09131 01006 46/// /2106 11104 21139 30128 40144 57008;
0101010060999992013010914004+78250+022817FM-12+001499999V0202301N006019999999N9999999N1-00971-01311101451ADDMA1999999101281MD1710031+9999REMSYN060AAXX  09141 01006 46/// /2306 11097 21131 30128 40145 57003;
0101010060999992013010915004+78250+022817FM-12+001499999V0202201N006019999999N9999999N1-00901-01271101371ADDMA1999999101211MD1610091+9999REMSYN060AAXX  09151 01006 46/// /2206 11090 21127 30121 40137 56009;
0101010060999992013010916004+78250+022817FM-12+001499999V0202301N004019999999N9999999N1-00631-01011101321ADDMA1999999101151MD1610121+9999REMSYN060AAXX  09161 01006 46/// /2304 11063 21101 30115 40132 56012;
0101010060999992013010917004+78250+022817FM-12+001499999V0202501N006019999999N9999999N1-00621-00921101271ADDMA1999999101111MD1810171+9999REMSYN060AAXX  09171 01006 46/// /2506 11062 21092 30111 40127 58017;
0130010060999992013010918004+78250+022817FM-12+001499999V0202601N006019999999N9999999N1-00541-00841101261ADDKA1120M-00541MA1999999101101MD1810111+9999REMSYN076AAXX  09181 01006 46/// /2606 11054 21084 30110 40126 58011 333 11054 91107;
0101010060999992013010919004+78250+022817FM-12+001499999V0202401N008019999999N9999999N1-00571-00891101181ADDMA1999999101021MD1610131+9999REMSYN060AAXX  09191 01006 46/// /2408 11057 21089 30102 40118 56013;
0101010060999992013010920004+78250+022817FM-12+001499999V0202501N010019999999N9999999N1-00521-00851101161ADDMA1999999101001MD1710111+9999REMSYN060AAXX  09201 01006 46/// /2510 11052 21085 30100 40116 57011;
0101010060999992013010921004+78250+022817FM-12+001499999V0202501N010019999999N9999999N1-00421-00741101111ADDMA1999999100951MD1710151+9999REMSYN060AAXX  09211 01006 46/// /2510 11042 21074 30095 40111 57015;
0101010060999992013010922004+78250+022817FM-12+001499999V0202501N008019999999N9999999N1-00311-00621101131ADDMA1999999100971MD1810051+9999REMSYN060AAXX  09221 01006 46/// /2508 11031 21062 30097 40113 58005;
0101010060999992013010923004+78250+022817FM-12+001499999V0202701N009019999999N9999999N1-00281-00441101151ADDMA1999999100991MD1010021+9999REMSYN060AAXX  09231 01006 46/// /2709 11028 21044 30099 40115 50002;
0111010060999992013011000004+78250+022817FM-12+001499999V0202601N008019999999N9999999N1-00301-00421101121ADDMA1999999100961MD1510011+9999REMSYN070AAXX  10001 01006 46/// /2608 11030 21042 30096 40112 55001 333 91112;
0101010060999992013011001004+78250+022817FM-12+001499999V0202701N008019999999N9999999N1-00301-00481101121ADDMA1999999100961MD1410001+9999REMSYN060AAXX  10011 01006 46/// /2708 11030 21048 30096 40112 54001;
0101010060999992013011002004+78250+022817FM-12+001499999V0202401N006019999999N9999999N1-00381-00571101091ADDMA1999999100931MD1710051+9999REMSYN060AAXX  10021 01006 46/// /2406 11038 21057 30093 40109 57005;
0101010060999992013011003004+78250+022817FM-12+001499999V0203001N005019999999N9999999N1-00341-00521101131ADDMA1999999100971MD1010011+9999REMSYN060AAXX  10031 01006 46/// /3005 11034 21052 30097 40113 50001;
0101010060999992013011004004+78250+022817FM-12+001499999V0203001N003019999999N9999999N1-00321-00501101151ADDMA1999999100991MD1010031+9999REMSYN060AAXX  10041 01006 46/// /3003 11032 21050 30099 40115 50003;
0101010060999992013011005004+78250+022817FM-12+001499999V0202301N003019999999N9999999N1-00301-00481101071ADDMA1999999100911MD1510031+9999REMSYN060AAXX  10051 01006 46/// /2303 11030 21048 30091 40107 55003;
0130010060999992013011006004+78250+022817FM-12+001499999V0202201N006019999999N9999999N1-00451-00641101031ADDKA1999N-00611MA1999999100871MD1610101+9999REMSYN076AAXX  10061 01006 46/// /2206 11045 21064 30087 40103 56010 333 21061 91111;
0101010060999992013011007004+78250+022817FM-12+001499999V0202401N006019999999N9999999N1-00691-00861100981ADDMA1999999100821MD1710171+9999REMSYN060AAXX  10071 01006 46/// /2406 11069 21086 30082 40098 57017;
0101010060999992013011008004+78250+022817FM-12+001499999V0202501N008019999999N9999999N1-00441-00711100911ADDMA1999999100751MD1710151+9999REMSYN060AAXX  10081 01006 46/// /2508 11044 21071 30075 40091 57015;
0101010060999992013011009004+78250+022817FM-12+001499999V0202401N009019999999N9999999N1-00241-00581100861ADDMA1999999100711MD1710161+9999REMSYN060AAXX  10091 01006 46/// /2409 11024 21058 30071 40086 57016;
0101010060999992013011010004+78250+022817FM-12+001499999V0202501N012019999999N9999999N1-00121-00461100791ADDMA1999999100631MD1710181+9999REMSYN060AAXX  10101 01006 46/// /2512 11012 21046 30063 40079 57018;
0101010060999992013011011004+78250+022817FM-12+001499999V0202601N010019999999N9999999N1-00111-00421100701ADDMA1999999100541MD1610211+9999REMSYN060AAXX  10111 01006 46/// /2610 11011 21042 30054 40070 56021;
0111010060999992013011012004+78250+022817FM-12+001499999V0202601N011019999999N9999999N1-00091-00421100621ADDMA1999999100471MD1710241+9999REMSYN070AAXX  10121 01006 46/// /2611 11009 21042 30047 40062 57024 333 91115;
0101010060999992013011013004+78250+022817FM-12+001499999V0202501N009019999999N9999999N1-00121-00451100581ADDMA1999999100421MD1810211+9999REMSYN060AAXX  10131 01006 46/// /2509 11012 21045 30042 40058 58021;
0101010060999992013011014004+78250+022817FM-12+001499999V0202501N008019999999N9999999N1-00051-00351100521ADDMA1999999100361MD1710181+9999REMSYN060AAXX  10141 01006 46/// /2508 11005 21035 30036 40052 57018;
0101010060999992013011015004+78250+022817FM-12+001499999V0202501N009019999999N9999999N1+00051-00291100461ADDMA1999999100301MD1710161+9999REMSYN060AAXX  10151 01006 46/// /2509 10005 21029 30030 40046 57016;
0101010060999992013011016004+78250+022817FM-12+001499999V0202501N012019999999N9999999N1+00061-00261100381ADDMA1999999100221MD1710201+9999REMSYN060AAXX  10161 01006 46/// /2512 10006 21026 30022 40038 57020;
0101010060999992013011017004+78250+022817FM-12+001499999V0202501N005019999999N9999999N1+00031-00291100301ADDMA1999999100151MD1710221+9999REMSYN060AAXX  10171 01006 46/// /2505 10003 21029 30015 40030 57022;
0130010060999992013011018004+78250+022817FM-12+001499999V0202601N008019999999N9999999N1+00021-00271100191ADDKA1120M+00071MA1999999100041MD1710271+9999REMSYN076AAXX  10181 01006 46/// /2608 10002 21027 30004 40019 57027 333 10007 91115;
0101010060999992013011019004+78250+022817FM-12+001499999V0202501N010019999999N9999999N1+00081-00261100081ADDMA1999999099931MD1610291+9999REMSYN060AAXX  10191 01006 46/// /2510 10008 21026 39993 40008 56029;
0101010060999992013011020004+78250+022817FM-12+001499999V0202501N009019999999N9999999N1+00111-00321099961ADDMA1999999099801MD1710341+9999REMSYN060AAXX  10201 01006 46/// /2509 10011 21032 39980 49996 57034;
0101010060999992013011021004+78250+022817FM-12+001499999V0202401N013019999999N9999999N1+00041-00281099901ADDMA1999999099751MD1810291+9999REMSYN060AAXX  10211 01006 46/// /2413 10004 21028 39975 49990 58029;
0101010060999992013011022004+78250+022817FM-12+001499999V0202501N011019999999N9999999N1+00031-00261099841ADDMA1999999099691MD1810241+9999REMSYN060AAXX  10221 01006 46/// /2511 10003 21026 39969 49984 58024;
0101010060999992013011023004+78250+022817FM-12+001499999V0202401N010019999999N9999999N1+00051-00321099651ADDMA1999999099501MD1610301+9999REMSYN060AAXX  10231 01006 46/// /2410 10005 21032 39950 49965 56030;
0111010060999992013011100004+78250+022817FM-12+001499999V0202401N012019999999N9999999N1-00051-00331099501ADDMA1999999099341MD1610401+9999REMSYN070AAXX  11001 01006 46/// /2412 11005 21033 39934 49950 56040 333 91117;
0101010060999992013011101004+78250+022817FM-12+001499999V0202401N011019999999N9999999N1-00031-00301099421ADDMA1999999099261MD1810421+9999REMSYN060AAXX  11011 01006 46/// /2411 11003 21030 39926 49942 58042;
0101010060999992013011103004+78250+022817FM-12+001499999V0202301N011019999999N9999999N1+00001-00201099181ADDMA1999999099031MD1610311+9999REMSYN060AAXX  11031 01006 46/// /2311 10000 21020 39903 49918 56031;
0101010060999992013011104004+78250+022817FM-12+001499999V0202601N016019999999N9999999N1+00021-00231099071ADDMA1999999098921MD1710341+9999REMSYN060AAXX  11041 01006 46/// /2616 10002 21023 39892 49907 57034;
0101010060999992013011105004+78250+022817FM-12+001499999V0202701N018019999999N9999999N1+00011-00431099071ADDMA1999999098921MD1810231+9999REMSYN060AAXX  11051 01006 46/// /2718 10001 21043 39892 49907 58023;
0101010060999992013011106004+78250+022817FM-12+001499999V0203501N008019999999N9999999N1-00061-00441099201ADDMA1999999099041MD1010011+9999REMSYN060AAXX  11061 01006 46/// /3508 11006 21044 39904 49920 50001;
0101010060999992013011107004+78250+022817FM-12+001499999V0202801N011019999999N9999999N1-00131-00471099191ADDMA1999999099041MD1210111+9999REMSYN060AAXX  11071 01006 46/// /2811 11013 21047 39904 49919 52011;
0101010060999992013011108004+78250+022817FM-12+001499999V0202801N012019999999N9999999N1-00161-00471099221ADDMA1999999099061MD1310141+9999REMSYN060AAXX  11081 01006 46/// /2812 11016 21047 39906 49922 53014;
0101010060999992013011109004+78250+022817FM-12+001499999V0202901N013019999999N9999999N1-00171-00571099381ADDMA1999999099221MD1110181+9999REMSYN060AAXX  11091 01006 46/// /2913 11017 21057 39922 49938 51018;
0101010060999992013011110004+78250+022817FM-12+001499999V0203001N009019999999N9999999N1-00251-00641099411ADDMA1999999099251MD1210211+9999REMSYN060AAXX  11101 01006 46/// /3009 11025 21064 39925 49941 52021;
0101010060999992013011111004+78250+022817FM-12+001499999V0202801N011019999999N9999999N1-00271-00591099351ADDMA1999999099201MD1310131+9999REMSYN060AAXX  11111 01006 46/// /2811 11027 21059 39920 49935 53013;
0111010060999992013011112004+78250+022817FM-12+001499999V0202901N014019999999N9999999N1-00311-00661099391ADDMA1999999099231MD1410001+9999REMSYN070AAXX  11121 01006 46/// /2914 11031 21066 39923 49939 54001 333 91118;
0101010060999992013011113004+78250+022817FM-12+001499999V0202901N014019999999N9999999N1-00441-00841099451ADDMA1999999099301MD1010051+9999REMSYN060AAXX  11131 01006 46/// /2914 11044 21084 39930 49945 50005;
0101010060999992013011114004+78250+022817FM-12+001499999V0202901N011019999999N9999999N1-00581-00971099581ADDMA1999999099421MD1110231+9999REMSYN060AAXX  11141 01006 46/// /2911 11058 21097 39942 49958 51023;
0101010060999992013011115004+78250+022817FM-12+001499999V0202801N008019999999N9999999N1-00611-01051099671ADDMA1999999099511MD1210271+9999REMSYN060AAXX  11151 01006 46/// /2808 11061 21105 39951 49967 52027;
0101010060999992013011116004+78250+022817FM-12+001499999V0203001N010019999999N9999999N1-00611-01121099721ADDMA1999999099561MD1310261+9999REMSYN060AAXX  11161 01006 46/// /3010 11061 21112 39956 49972 53026;
0101010060999992013011117004+78250+022817FM-12+001499999V0203401N006019999999N9999999N1-00621-00901099731ADDMA1999999099571MD1310151+9999REMSYN060AAXX  11171 01006 46/// /3406 11062 21090 39957 49973 53015;
0101010060999992013011119004+78250+022817FM-12+001499999V0200101N006019999999N9999999N1-00631-00841099891ADDMA1999999099731MD1110171+9999REMSYN060AAXX  11191 01006 46/// /0106 11063 21084 39973 49989 51017;
0101010060999992013011120004+78250+022817FM-12+001499999V0200101N006019999999N9999999N1-00651-00821099961ADDMA1999999099801MD1310231+9999REMSYN060AAXX  11201 01006 46/// /0106 11065 21082 39980 49996 53023;
0101010060999992013011121004+78250+022817FM-12+001499999V0202901N004019999999N9999999N1-00701-00871100051ADDMA1999999099891MD1110211+9999REMSYN060AAXX  11211 01006 46/// /2904 11070 21087 39989 40005 51021;
0101010060999992013011122004+78250+022817FM-12+001499999V0203001N006019999999N9999999N1-00651-00981100171ADDMA1999999100011MD1110281+9999REMSYN060AAXX  11221 01006 46/// /3006 11065 21098 30001 40017 51028;
0101010060999992013011123004+78250+022817FM-12+001499999V0203201N007019999999N9999999N1-00571-00931100241ADDMA1999999100081MD1210281+9999REMSYN060AAXX  11231 01006 46/// /3207 11057 21093 30008 40024 52028;
0111010060999992013011200004+78250+022817FM-12+001499999V0203201N010019999999N9999999N1-00581-00971100331ADDMA1999999100171MD1210281+9999REMSYN070AAXX  12001 01006 46/// /3210 11058 21097 30017 40033 52028 333 91112;
0101010060999992013011201004+78250+022817FM-12+001499999V0203601N008019999999N9999999N1-00591-00981100391ADDMA1999999100231MD1210221+9999REMSYN060AAXX  12011 01006 46/// /3608 11059 21098 30023 40039 52022;
0101010060999992013011202004+78250+022817FM-12+001499999V0200401N008019999999N9999999N1-00621-00791100561ADDMA1999999100401MD1110321+9999REMSYN060AAXX  12021 01006 46/// /0408 11062 21079 30040 40056 51032;
0101010060999992013011203004+78250+022817FM-12+001499999V0200401N008019999999N9999999N1-00661-00961100731ADDMA1999999100571MD1110401+9999REMSYN060AAXX  12031 01006 46/// /0408 11066 21096 30057 40073 51040;
0101010060999992013011204004+78250+022817FM-12+001499999V0200201N007019999999N9999999N1-00731-01011100871ADDMA1999999100711MD1210481+9999REMSYN060AAXX  12041 01006 46/// /0207 11073 21101 30071 40087 52048;
0101010060999992013011205004+78250+022817FM-12+001499999V0200201N007019999999N9999999N1-00751-01271100961ADDMA1999999100801MD1310401+9999REMSYN060AAXX  12051 01006 46/// /0207 11075 21127 30080 40096 53040;
0130010060999992013011206004+78250+022817FM-12+001499999V0203501N008019999999N9999999N1-00771-01241101041ADDKA1999N-00811MA1999999100881MD1310311+9999REMSYN076AAXX  12061 01006 46/// /3508 11077 21124 30088 40104 53031 333 21081 91111;
0101010060999992013011207004+78250+022817FM-12+001499999V0203501N007019999999N9999999N1-00781-01151101121ADDMA1999999100961MD1210251+9999REMSYN060AAXX  12071 01006 46/// /3507 11078 21115 30096 40112 52025;
0101010060999992013011208004+78250+022817FM-12+001499999V0203501N008019999999N9999999N1-00771-01131101201ADDMA1999999101041MD1210231+9999REMSYN060AAXX  12081 01006 46/// /3508 11077 21113 30104 40120 52023;
0101010060999992013011209004+78250+022817FM-12+001499999V0203501N008019999999N9999999N1-00821-01211101271ADDMA1999999101111MD1210231+9999REMSYN060AAXX  12091 01006 46/// /3508 11082 21121 30111 40127 52023;
0101010060999992013011210004+78250+022817FM-12+001499999V0203601N008019999999N9999999N1-00841-01271101311ADDMA1999999101151MD1310191+9999REMSYN060AAXX  12101 01006 46/// /3608 11084 21127 30115 40131 53019;
0101010060999992013011211004+78250+022817FM-12+001499999V0203501N007019999999N9999999N1-00861-01261101381ADDMA1999999101221MD1210191+9999REMSYN060AAXX  12111 01006 46/// /3507 11086 21126 30122 40138 52019;
0111010060999992013011212004+78250+022817FM-12+001499999V0203401N007019999999N9999999N1-00871-01251101431ADDMA1999999101271MD1210161+9999REMSYN070AAXX  12121 01006 46/// /3407 11087 21125 30127 40143 52016 333 91111;
0101010060999992013011213004+78250+022817FM-12+001499999V0203401N008019999999N9999999N1-00851-01281101451ADDMA1999999101291MD1310141+9999REMSYN060AAXX  12131 01006 46/// /3408 11085 21128 30129 40145 53014;
0101010060999992013011214004+78250+022817FM-12+001499999V0203401N008019999999N9999999N1-00851-01331101501ADDMA1999999101331MD1210111+9999REMSYN060AAXX  12141 01006 46/// /3408 11085 21133 30133 40150 52011;
0101010060999992013011215004+78250+022817FM-12+001499999V0203501N009019999999N9999999N1-00871-01351101481ADDMA1999999101321MD1310051+9999REMSYN060AAXX  12151 01006 46/// /3509 11087 21135 30132 40148 53005;
0101010060999992013011216004+78250+022817FM-12+001499999V0203501N009019999999N9999999N1-00871-01291101481ADDMA1999999101321MD1510031+9999REMSYN060AAXX  12161 01006 46/// /3509 11087 21129 30132 40148 55003;
0101010060999992013011217004+78250+022817FM-12+001499999V0203501N010019999999N9999999N1-00861-01231101481ADDMA1999999101321MD1410001+9999REMSYN060AAXX  12171 01006 46/// /3510 11086 21123 30132 40148 54001;
0130010060999992013011218004+78250+022817FM-12+001499999V0203501N011019999999N9999999N1-00851-01351101491ADDKA1120M-00761MA1999999101331MD1410001+9999REMSYN076AAXX  12181 01006 46/// /3511 11085 21135 30133 40149 54001 333 11076 91114;
0101010060999992013011219004+78250+022817FM-12+001499999V0203401N010019999999N9999999N1-00841-01271101521ADDMA1999999101361MD1210041+9999REMSYN060AAXX  12191 01006 46/// /3410 11084 21127 30136 40152 52004;
0101010060999992013011220004+78250+022817FM-12+001499999V0203401N011019999999N9999999N1-00891-01091101581ADDMA1999999101411MD1110091+9999REMSYN060AAXX  12201 01006 46/// /3411 11089 21109 30141 40158 51009;
0101010060999992013011221004+78250+022817FM-12+001499999V0203401N010019999999N9999999N1-00921-01091101601ADDMA1999999101441MD1210111+9999REMSYN060AAXX  12211 01006 46/// /3410 11092 21109 30144 40160 52011;
0101010060999992013011222004+78250+022817FM-12+001499999V0203301N010019999999N9999999N1-00921-01081101601ADDMA1999999101431MD1310081+9999REMSYN060AAXX  12221 01006 46/// /3310 11092 21108 30143 40160 53008;
0101010060999992013011223004+78250+022817FM-12+001499999V0203301N010019999999N9999999N1-00951-01121101621ADDMA1999999101461MD1210041+9999REMSYN060AAXX  12231 01006 46/// /3310 11095 21112 30146 40162 52004;
0111010060999992013011300004+78250+022817FM-12+001499999V0203401N011019999999N9999999N1-00951-01111101601ADDMA1999999101441MD1410001+9999REMSYN070AAXX  13001 01006 46/// /3411 11095 21111 30144 40160 54000 333 91114;
0101010060999992013011301004+78250+022817FM-12+001499999V0203301N011019999999N9999999N1-00991-01151101611ADDMA1999999101451MD1410001+9999REMSYN060AAXX  13011 01006 46/// /3311 11099 21115 30145 40161 54002;
0101010060999992013011302004+78250+022817FM-12+001499999V0203301N015019999999N9999999N1-01001-01141101591ADDMA1999999101431MD1410001+9999REMSYN060AAXX  13021 01006 46/// /3315 11100 21114 30143 40159 54003;
0101010060999992013011303004+78250+022817FM-12+001499999V0203301N014019999999N9999999N1-00961-01131101611ADDMA1999999101451MD1410001+9999REMSYN060AAXX  13031 01006 46/// /3314 11096 21113 30145 40161 54001;
0101010060999992013011304004+78250+022817FM-12+001499999V0203401N009019999999N9999999N1-00931-01221101641ADDMA1999999101481MD1010031+9999REMSYN060AAXX  13041 01006 46/// /3409 11093 21122 30148 40164 50003;
0101010060999992013011305004+78250+022817FM-12+001499999V0203501N009019999999N9999999N1-00981-01301101651ADDMA1999999101491MD1210061+9999REMSYN060AAXX  13051 01006 46/// /3509 11098 21130 30149 40165 52006;
0130010060999992013011306004+78250+022817FM-12+001499999V0203601N011019999999N9999999N1-01041-01421101661ADDKA1999N-01041MA1999999101491MD1210041+9999REMSYN076AAXX  13061 01006 46/// /3611 11104 21142 30149 40166 52004 333 21104 91117;
0101010060999992013011307004+78250+022817FM-12+001499999V0203501N012019999999N9999999N1-01051-01431101661ADDMA1999999101491MD1410001+9999REMSYN060AAXX  13071 01006 46/// /3512 11105 21143 30149 40166 54001;
0101010060999992013011308004+78250+022817FM-12+001499999V0203601N012019999999N9999999N1-01031-01421101681ADDMA1999999101511MD1410001+9999REMSYN060AAXX  13081 01006 46/// /3612 11103 21142 30151 40168 54002;
0101010060999992013011309004+78250+022817FM-12+001499999V0203601N011019999999N9999999N1-01011-01341101701ADDMA1999999101531MD1210041+9999REMSYN060AAXX  13091 01006 46/// /3611 11101 21134 30153 40170 52004;
0101010060999992013011310004+78250+022817FM-12+001499999V0203601N012019999999N9999999N1-00991-01341101721ADDMA1999999101561MD1210071+9999REMSYN060AAXX  13101 01006 46/// /3612 11099 21134 30156 40172 52007;
0101010060999992013011311004+78250+022817FM-12+001499999V0203601N010019999999N9999999N1-00981-01291101761ADDMA1999999101601MD1210091+9999REMSYN060AAXX  13111 01006 46/// /3610 11098 21129 30160 40176 52009;
0111010060999992013011312004+78250+022817FM-12+001499999V0203601N011019999999N9999999N1-00971-01261101761ADDMA1999999101591MD1310061+9999REMSYN070AAXX  13121 01006 46/// /3611 11097 21126 30159 40176 53006 333 91116;
0101010060999992013011313004+78250+022817FM-12+001499999V0203601N012019999999N9999999N1-00971-01261101751ADDMA1999999101591MD1510031+9999REMSYN060AAXX  13131 01006 46/// /3612 11097 21126 30159 40175 55003;
0101010060999992013011314004+78250+022817FM-12+001499999V0203501N013019999999N9999999N1-00961-01301101721ADDMA1999999101561MD1710041+9999REMSYN060AAXX  13141 01006 46/// /3513 11096 21130 30156 40172 57004;
0101010060999992013011315004+78250+022817FM-12+001499999V0203601N012019999999N9999999N1-00951-01291101781ADDMA1999999101611MD1010021+9999REMSYN060AAXX  13151 01006 46/// /3612 11095 21129 30161 40178 50002;
0101010060999992013011316004+78250+022817FM-12+001499999V0203601N009019999999N9999999N1-00951-01291101831ADDMA1999999101671MD1110081+9999REMSYN060AAXX  13161 01006 46/// /3609 11095 21129 30167 40183 51008;
0101010060999992013011317004+78250+022817FM-12+001499999V0203601N011019999999N9999999N1-00921-01291101821ADDMA1999999101661MD1310101+9999REMSYN060AAXX  13171 01006 46/// /3611 11092 21129 30166 40182 53010;
0130010060999992013011318004+78250+022817FM-12+001499999V0203601N010019999999N9999999N1-00901-01281101851ADDKA1120M-00901MA1999999101681MD1210071+9999REMSYN076AAXX  13181 01006 46/// /3610 11090 21128 30168 40185 52007 333 11090 91116;
0101010060999992013011319004+78250+022817FM-12+001499999V0203601N009019999999N9999999N1-00911-01261101851ADDMA1999999101691MD1410001+9999REMSYN060AAXX  13191 01006 46/// /3609 11091 21126 30169 40185 54002;
0101010060999992013011320004+78250+022817FM-12+001499999V0203601N010019999999N9999999N1-00891-01261101861ADDMA1999999101701MD1210041+9999REMSYN060AAXX  13201 01006 46/// /3610 11089 21126 30170 40186 52004;
0101010060999992013011321004+78250+022817FM-12+001499999V0203601N011019999999N9999999N1-00881-01251101851ADDMA1999999101681MD1410001+9999REMSYN060AAXX  13211 01006 46/// /3611 11088 21125 30168 40185 54000;
0101010060999992013011322004+78250+022817FM-12+001499999V0203601N010019999999N9999999N1-00881-01251101901ADDMA1999999101731MD1110051+9999REMSYN060AAXX  13221 01006 46/// /3610 11088 21125 30173 40190 51005;
0101010060999992013011323004+78250+022817FM-12+001499999V0203601N009019999999N9999999N1-00871-01241101901ADDMA1999999101741MD1210041+9999REMSYN060AAXX  13231 01006 46/// /3609 11087 21124 30174 40190 52004;
0111010060999992013011400004+78250+022817FM-12+001499999V0203601N010019999999N9999999N1-00861-01231101911ADDMA1999999101741MD1310061+9999REMSYN070AAXX  14001 01006 46/// /3610 11086 21123 30174 40191 53006 333 91113;
0101010060999992013011401004+78250+022817FM-12+001499999V0203601N009019999999N9999999N1-00871-01211101941ADDMA1999999101781MD1110041+9999REMSYN060AAXX  14011 01006 46/// /3609 11087 21121 30178 40194 51004;
0101010060999992013011402004+78250+022817FM-12+001499999V0203501N008019999999N9999999N1-00871-01211101941ADDMA1999999101781MD1210041+9999REMSYN060AAXX  14021 01006 46/// /3508 11087 21121 30178 40194 52004;
0101010060999992013011403004+78250+022817FM-12+001499999V0203601N009019999999N9999999N1-00881-01251101961ADDMA1999999101801MD1210061+9999REMSYN060AAXX  14031 01006 46/// /3609 11088 21125 30180 40196 52006;
0101010060999992013011404004+78250+022817FM-12+001499999V0203501N008019999999N9999999N1-00891-01241101981ADDMA1999999101821MD1210041+9999REMSYN060AAXX  14041 01006 46/// /3508 11089 21124 30182 40198 52004;
0101010060999992013011405004+78250+022817FM-12+001499999V0203501N008019999999N9999999N1-00901-01211101991ADDMA1999999101831MD1210051+9999REMSYN060AAXX  14051 01006 46/// /3508 11090 21121 30183 40199 52005;
0130010060999992013011406004+78250+022817FM-12+001499999V0203501N008019999999N9999999N1-00891-01201102011ADDKA1999N-00921MA1999999101841MD1210051+9999REMSYN076AAXX  14061 01006 46/// /3508 11089 21120 30184 40201 52005 333 21092 91112;
0101010060999992013011407004+78250+022817FM-12+001499999V0203601N009019999999N9999999N1-00891-01161102031ADDMA1999999101871MD1210051+9999REMSYN060AAXX  14071 01006 46/// /3609 11089 21116 30187 40203 52005;
0101010060999992013011408004+78250+022817FM-12+001499999V0203501N007019999999N9999999N1-00871-01141102091ADDMA1999999101931MD1110101+9999REMSYN060AAXX  14081 01006 46/// /3507 11087 21114 30193 40209 51010;
0101010060999992013011409004+78250+022817FM-12+001499999V0203501N009019999999N9999999N1-00831-01001102121ADDMA1999999101961MD1210111+9999REMSYN060AAXX  14091 01006 46/// /3509 11083 21100 30196 40212 52011;
0101010060999992013011410004+78250+022817FM-12+001499999V0200101N007019999999N9999999N1-00811-01081102171ADDMA1999999102011MD1210131+9999REMSYN060AAXX  14101 01006 46/// /0107 11081 21108 30201 40217 52013;
0101010060999992013011411004+78250+022817FM-12+001499999V0200101N007019999999N9999999N1-00811-00981102201ADDMA1999999102041MD1210111+9999REMSYN060AAXX  14111 01006 46/// /0107 11081 21098 30204 40220 52011;
0111010060999992013011412004+78250+022817FM-12+001499999V0203501N003019999999N9999999N1-00891-01031102241ADDMA1999999102071MD1210121+9999REMSYN070AAXX  14121 01006 46/// /3503 11089 21103 30207 40224 52012 333 91111;
0101010060999992013011413004+78250+022817FM-12+001499999V0200301N003019999999N9999999N1-00851-00981102271ADDMA1999999102101MD1210101+9999REMSYN060AAXX  14131 01006 46/// /0303 11085 21098 30210 40227 52010;
0101010060999992013011414004+78250+022817FM-12+001499999V0200301N004019999999N9999999N1-00791-00901102291ADDMA1999999102121MD1210091+9999REMSYN060AAXX  14141 01006 46/// /0304 11079 21090 30212 40229 52009;
0101010060999992013011415004+78250+022817FM-12+001499999V0200101N003019999999N9999999N1-00841-00981102311ADDMA1999999102151MD1210071+9999REMSYN060AAXX  14151 01006 46/// /0103 11084 21098 30215 40231 52007;
0101010060999992013011416004+78250+022817FM-12+001499999V0203301N004019999999N9999999N1-01031-01201102321ADDMA1999999102151MD1210051+9999REMSYN060AAXX  14161 01006 46/// /3304 11103 21120 30215 40232 52005;
0101010060999992013011417004+78250+022817FM-12+001499999V0203401N003019999999N9999999N1-00961-01121102351ADDMA1999999102191MD1210061+9999REMSYN060AAXX  14171 01006 46/// /3403 11096 21112 30219 40235 52006;
0130010060999992013011418004+78250+022817FM-12+001499999V0203401N005019999999N9999999N1-01061-01231102371ADDKA1120M-00761MA1999999102201MD1210051+9999REMSYN076AAXX  14181 01006 46/// /3405 11106 21123 30220 40237 52005 333 11076 91106;
0101010060999992013011419004+78250+022817FM-12+001499999V0203401N004019999999N9999999N1-01091-01241102371ADDMA1999999102201MD1310051+9999REMSYN060AAXX  14191 01006 46/// /3404 11109 21124 30220 40237 53005;
0101010060999992013011420004+78250+022817FM-12+001499999V0202901N002019999999N9999999N1-01081-01201102371ADDMA1999999102211MD1410001+9999REMSYN060AAXX  14201 01006 46/// /2902 11108 21120 30221 40237 54002;
0101010060999992013011421004+78250+022817FM-12+001499999V0202601N003019999999N9999999N1-01131-01271102371ADDMA1999999102201MD1410001+9999REMSYN060AAXX  14211 01006 46/// /2603 11113 21127 30220 40237 54000;
0101010060999992013011422004+78250+022817FM-12+001499999V0202301N005019999999N9999999N1-01171-01321102371ADDMA1999999102211MD1410001+9999REMSYN060AAXX  14221 01006 46/// /2305 11117 21132 30221 40237 54001;
0101010060999992013011423004+78250+022817FM-12+001499999V0202301N004019999999N9999999N1-01231-01431102371ADDMA1999999102201MD1410001+9999REMSYN060AAXX  14231 01006 46/// /2304 11123 21143 30220 40237 54001;
0111010060999992013011500004+78250+022817FM-12+001499999V0202301N005019999999N9999999N1-01291-01491102381ADDMA1999999102221MD1410001+9999REMSYN070AAXX  15001 01006 46/// /2305 11129 21149 30222 40238 54001 333 91106;
0101010060999992013011501004+78250+022817FM-12+001499999V0202301N006019999999N9999999N1-01381-01601102391ADDMA1999999102221MD1410001+9999REMSYN060AAXX  15011 01006 46/// /2306 11138 21160 30222 40239 54001;
0101010060999992013011502004+78250+022817FM-12+001499999V0202201N006019999999N9999999N1-01341-01581102371ADDMA1999999102201MD1510001+9999REMSYN060AAXX  15021 01006 46/// /2206 11134 21158 30220 40237 55000;
0101010060999992013011503004+78250+022817FM-12+001499999V0202201N006019999999N9999999N1-01351-01581102361ADDMA1999999102191MD1410001+9999REMSYN060AAXX  15031 01006 46/// /2206 11135 21158 30219 40236 54003;
0101010060999992013011504004+78250+022817FM-12+001499999V0202201N005019999999N9999999N1-01161-01391102311ADDMA1999999102141MD1710081+9999REMSYN060AAXX  15041 01006 46/// /2205 11116 21139 30214 40231 57008;
0101010060999992013011505004+78250+022817FM-12+001499999V0202301N005019999999N9999999N1-01261-01481102291ADDMA1999999102121MD1710081+9999REMSYN060AAXX  15051 01006 46/// /2305 11126 21148 30212 40229 57008;
0130010060999992013011506004+78250+022817FM-12+001499999V0202201N005019999999N9999999N1-01311-01511102281ADDKA1999N-01471MA1999999102111MD1810081+9999REMSYN076AAXX  15061 01006 46/// /2205 11131 21151 30211 40228 58008 333 21147 91107;
0101010060999992013011507004+78250+022817FM-12+001499999V0202201N005019999999N9999999N1-01251-01491102261ADDMA1999999102101MD1710041+9999REMSYN060AAXX  15071 01006 46/// /2205 11125 21149 30210 40226 57004;
0101010060999992013011508004+78250+022817FM-12+001499999V0202201N005019999999N9999999N1-01311-01541102261ADDMA1999999102101MD1410001+9999REMSYN060AAXX  15081 01006 46/// /2205 11131 21154 30210 40226 54003;
0101010060999992013011509004+78250+022817FM-12+001499999V0202201N004019999999N9999999N1-01081-01291102251ADDMA1999999102081MD1410001+9999REMSYN060AAXX  15091 01006 46/// /2204 11108 21129 30208 40225 54003;
0101010060999992013011510004+78250+022817FM-12+001499999V0202301N003019999999N9999999N1-01231-01371102251ADDMA1999999102081MD1410001+9999REMSYN060AAXX  15101 01006 46/// /2303 11123 21137 30208 40225 54002;
0101010060999992013011511004+78250+022817FM-12+001499999V0202101N004019999999N9999999N1-01221-01491102211ADDMA1999999102051MD1710051+9999REMSYN060AAXX  15111 01006 46/// /2104 11122 21149 30205 40221 57005;
0111010060999992013011512004+78250+022817FM-12+001499999V0201701N003019999999N9999999N1-01441-01741102171ADDMA1999999102011MD1610071+9999REMSYN070AAXX  15121 01006 46/// /1703 11144 21174 30201 40217 56007 333 91106;
0101010060999992013011513004+78250+022817FM-12+001499999V0203501N001019999999N9999999N1-01551-01741102161ADDMA1999999101991MD1710091+9999REMSYN060AAXX  15131 01006 46/// /3501 11155 21174 30199 40216 57009;
0101010060999992013011514004+78250+022817FM-12+001499999V0201301N003019999999N9999999N1-01391-01651102121ADDMA1999999101951MD1710091+9999REMSYN060AAXX  15141 01006 46/// /1303 11139 21165 30195 40212 57009;
0101010060999992013011515004+78250+022817FM-12+001499999V0201801N006019999999N9999999N1-01291-01631102031ADDMA1999999101861MD1610141+9999REMSYN060AAXX  15151 01006 46/// /1806 11129 21163 30186 40203 56014;
0101010060999992013011517004+78250+022817FM-12+001499999V0201801N006019999999N9999999N1-01271-01631101981ADDMA1999999101811MD1810141+9999REMSYN060AAXX  15171 01006 46/// /1806 11127 21163 30181 40198 58014;
0101010060999992013011518004+78250+022817FM-12+001499999V0201701N005019999999N9999999N1-01311-01671101931ADDMA1999999101761MD1710101+9999REMSYN060AAXX  15181 01006 46/// /1705 11131 21167 30176 40193 57010;
0101010060999992013011519004+78250+022817FM-12+001499999V0201301N005019999999N9999999N1-01541-01851101851ADDMA1999999101691MD1610141+9999REMSYN060AAXX  15191 01006 46/// /1305 11154 21185 30169 40185 56014;
0101010060999992013011520004+78250+022817FM-12+001499999V0201501N004019999999N9999999N1-01311-01621101781ADDMA1999999101611MD1710201+9999REMSYN060AAXX  15201 01006 46/// /1504 11131 21162 30161 40178 57020;
0101010060999992013011521004+78250+022817FM-12+001499999V0201301N005019999999N9999999N1-01601-01861101731ADDMA1999999101561MD1710201+9999REMSYN060AAXX  15211 01006 46/// /1305 11160 21186 30156 40173 57020;
0101010060999992013011522004+78250+022817FM-12+001499999V0201301N003019999999N9999999N1-01311-01591101661ADDMA1999999101501MD1710191+9999REMSYN060AAXX  15221 01006 46/// /1303 11131 21159 30150 40166 57019;
0101010060999992013011523004+78250+022817FM-12+001499999V0201501N005019999999N9999999N1-01281-01551101581ADDMA1999999101411MD1710201+9999REMSYN060AAXX  15231 01006 46/// /1505 11128 21155 30141 40158 57020;
0111010060999992013011600004+78250+022817FM-12+001499999V0201701N009019999999N9999999N1-01051-01351101471ADDMA1999999101311MD1610251+9999REMSYN070AAXX  16001 01006 46/// /1709 11105 21135 30131 40147 56025 333 91110;
0101010060999992013011601004+78250+022817FM-12+001499999V0201701N010019999999N9999999N1-01011-01271101361ADDMA1999999101191MD1710301+9999REMSYN060AAXX  16011 01006 46/// /1710 11101 21127 30119 40136 57030;
0101010060999992013011602004+78250+022817FM-12+001499999V0201601N007019999999N9999999N1-01071-01281101331ADDMA1999999101161MD1810251+9999REMSYN060AAXX  16021 01006 46/// /1607 11107 21128 30116 40133 58025;
0101010060999992013011603004+78250+022817FM-12+001499999V0201301N007019999999N9999999N1-01101-01311101241ADDMA1999999101071MD1710231+9999REMSYN060AAXX  16031 01006 46/// /1307 11110 21131 30107 40124 57023;
0101010060999992013011604004+78250+022817FM-12+001499999V0201301N007019999999N9999999N1-00931-01101101131ADDMA1999999100961MD1610231+9999REMSYN060AAXX  16041 01006 46/// /1307 11093 21110 30096 40113 56023;
0101010060999992013011605004+78250+022817FM-12+001499999V0201301N008019999999N9999999N1-00791-00961100991ADDMA1999999100831MD1610341+9999REMSYN060AAXX  16051 01006 46/// /1308 11079 21096 30083 40099 56034;
0130010060999992013011606004+78250+022817FM-12+001499999V0201201N008019999999N9999999N1-00801-00921100891ADDKA1999N-01651MA1999999100721MD1710351+9999REMSYN076AAXX  16061 01006 46/// /1208 11080 21092 30072 40089 57035 333 21165 91111;
0101010060999992013011607004+78250+022817FM-12+001499999V0201201N009019999999N9999999N1-00751-00861100731ADDMA1999999100571MD1710391+9999REMSYN060AAXX  16071 01006 46/// /1209 11075 21086 30057 40073 57039;
0101010060999992013011608004+78250+022817FM-12+001499999V0201201N008019999999N9999999N1-00681-00781100651ADDMA1999999100491MD1710341+9999REMSYN060AAXX  16081 01006 46/// /1208 11068 21078 30049 40065 57034;
0101010060999992013011609004+78250+022817FM-12+001499999V0201201N009019999999N9999999N1-00601-00681100551ADDMA1999999100391MD1810341+9999REMSYN060AAXX  16091 01006 46/// /1209 11060 21068 30039 40055 58034;
0101010060999992013011610004+78250+022817FM-12+001499999V0201201N011019999999N9999999N1-00561-00641100441ADDMA1999999100281MD1610291+9999REMSYN060AAXX  16101 01006 46/// /1211 11056 21064 30028 40044 56029;
0101010060999992013011611004+78250+022817FM-12+001499999V0201201N012019999999N9999999N1-00551-00651100361ADDMA1999999100201MD1710291+9999REMSYN060AAXX  16111 01006 46/// /1212 11055 21065 30020 40036 57029;
0111010060999992013011612004+78250+022817FM-12+001499999V0201201N012019999999N9999999N1-00541-00621100281ADDMA1999999100121MD1810261+9999REMSYN070AAXX  16121 01006 46/// /1212 11054 21062 30012 40028 58026 333 91115;
0101010060999992013011613004+78250+022817FM-12+001499999V0201101N013019999999N9999999N1-00541-00621100211ADDMA1999999100061MD1710221+9999REMSYN060AAXX  16131 01006 46/// /1113 11054 21062 30006 40021 57022;
0101010060999992013011614004+78250+022817FM-12+001499999V0201101N011019999999N9999999N1-00561-00641100221ADDMA1999999100061MD1810141+9999REMSYN060AAXX  16141 01006 46/// /1111 11056 21064 30006 40022 58014;
0101010060999992013011615004+78250+022817FM-12+001499999V0201101N011019999999N9999999N1-00561-00661100221ADDMA1999999100061MD1810061+9999REMSYN060AAXX  16151 01006 46/// /1111 11056 21066 30006 40022 58006;
0101010060999992013011616004+78250+022817FM-12+001499999V0201101N010019999999N9999999N1-00581-00701100191ADDMA1999999100031MD1510021+9999REMSYN060AAXX  16161 01006 46/// /1110 11058 21070 30003 40019 55002;
0101010060999992013011617004+78250+022817FM-12+001499999V0201001N010019999999N9999999N1-00621-00721100171ADDMA1999999100011MD1710051+9999REMSYN060AAXX  16171 01006 46/// /1010 11062 21072 30001 40017 57005;
0130010060999992013011618004+78250+022817FM-12+001499999V0200901N009019999999N9999999N1-00661-00741100151ADDKA1120M-00531MA1999999099991MD1710081+9999REMSYN076AAXX  16181 01006 46/// /0909 11066 21074 39999 40015 57008 333 11053 91116;
0101010060999992013011619004+78250+022817FM-12+001499999V0200901N010019999999N9999999N1-00661-00741100141ADDMA1999999099981MD1710061+9999REMSYN060AAXX  16191 01006 46/// /0910 11066 21074 39998 40014 57006;
0101010060999992013011620004+78250+022817FM-12+001499999V0200801N007019999999N9999999N1-00651-00751100211ADDMA1999999100051MD1110041+9999REMSYN060AAXX  16201 01006 46/// /0807 11065 21075 30005 40021 51004;
0101010060999992013011621004+78250+022817FM-12+001499999V0200701N005019999999N9999999N1-00671-00771100241ADDMA1999999100081MD1110091+9999REMSYN060AAXX  16211 01006 46/// /0705 11067 21077 30008 40024 51009;
0101010060999992013011622004+78250+022817FM-12+001499999V0200601N005019999999N9999999N1-00651-00751100251ADDMA1999999100091MD1310111+9999REMSYN060AAXX  16221 01006 46/// /0605 11065 21075 30009 40025 53011;
0101010060999992013011623004+78250+022817FM-12+001499999V0200601N004019999999N9999999N1-00641-00741100261ADDMA1999999100101MD1210041+9999REMSYN060AAXX  16231 01006 46/// /0604 11064 21074 30010 40026 52004;
0111010060999992013011700004+78250+022817FM-12+001499999V0200501N003019999999N9999999N1-00611-00691100251ADDMA1999999100091MD1410001+9999REMSYN070AAXX  17001 01006 46/// /0503 11061 21069 30009 40025 54001 333 91111;
0101010060999992013011701004+78250+022817FM-12+001499999V0200801N005019999999N9999999N1-00641-00761100241ADDMA1999999100081MD1410001+9999REMSYN060AAXX  17011 01006 46/// /0805 11064 21076 30008 40024 54001;
0101010060999992013011702004+78250+022817FM-12+001499999V0200501N003019999999N9999999N1-00671-00771100251ADDMA1999999100091MD1410001+9999REMSYN060AAXX  17021 01006 46/// /0503 11067 21077 30009 40025 54001;
0101010060999992013011703004+78250+022817FM-12+001499999V0200201N004019999999N9999999N1-00731-00841100221ADDMA1999999100061MD1410001+9999REMSYN060AAXX  17031 01006 46/// /0204 11073 21084 30006 40022 54003;
0101010060999992013011704004+78250+022817FM-12+001499999V0203301N004019999999N9999999N1-00751-00851100221ADDMA1999999100061MD1410001+9999REMSYN060AAXX  17041 01006 46/// /3304 11075 21085 30006 40022 54002;
0101010060999992013011705004+78250+022817FM-12+001499999V0203301N005019999999N9999999N1-00731-00831100161ADDMA1999999100001MD1710091+9999REMSYN060AAXX  17051 01006 46/// /3305 11073 21083 30000 40016 57009;
0130010060999992013011706004+78250+022817FM-12+001499999V0203201N006019999999N9999999N1-00721-00821100131ADDKA1999N-00761MA1999999099971MD1710101+9999REMSYN076AAXX  17061 01006 46/// /3206 11072 21082 39997 40013 57010 333 21076 91108;
0101010060999992013011707004+78250+022817FM-12+001499999V0203101N005019999999N9999999N1-00711-00811100101ADDMA1999999099941MD1810111+9999REMSYN060AAXX  17071 01006 46/// /3105 11071 21081 39994 40010 58011;
0101010060999992013011708004+78250+022817FM-12+001499999V0202901N005019999999N9999999N1-00681-00811100081ADDMA1999999099921MD1710081+9999REMSYN060AAXX  17081 01006 46/// /2905 11068 21081 39992 40008 57008;
0101010060999992013011709004+78250+022817FM-12+001499999V0202701N006019999999N9999999N1-00681-00781100061ADDMA1999999099901MD1710071+9999REMSYN060AAXX  17091 01006 46/// /2706 11068 21078 39990 40006 57007;
0101010060999992013011710004+78250+022817FM-12+001499999V0200701N006019999999N9999999N1-00551-00651100021ADDMA1999999099861MD1710081+9999REMSYN060AAXX  17101 01006 46/// /0706 11055 21065 39986 40002 57008;
0101010060999992013011711004+78250+022817FM-12+001499999V0200601N008019999999N9999999N1-00611-00741100031ADDMA1999999099871MD1810051+9999REMSYN060AAXX  17111 01006 46/// /0608 11061 21074 39987 40003 58005;
0111010060999992013011712004+78250+022817FM-12+001499999V0200401N008019999999N9999999N1-00701-00851100051ADDMA1999999099891MD1010011+9999REMSYN070AAXX  17121 01006 46/// /0408 11070 21085 39989 40005 50001 333 91110;
0101010060999992013011713004+78250+022817FM-12+001499999V0200301N008019999999N9999999N1-00731-00861100021ADDMA1999999099861MD1510001+9999REMSYN060AAXX  17131 01006 46/// /0308 11073 21086 39986 40002 55000;
0101010060999992013011714004+78250+022817FM-12+001499999V0200301N008019999999N9999999N1-00681-00811100001ADDMA1999999099841MD1610031+9999REMSYN060AAXX  17141 01006 46/// /0308 11068 21081 39984 40000 56003;
0101010060999992013011715004+78250+022817FM-12+001499999V0200101N007019999999N9999999N1-00661-00821099941ADDMA1999999099781MD1710111+9999REMSYN060AAXX  17151 01006 46/// /0107 11066 21082 39978 49994 57011;
0101010060999992013011716004+78250+022817FM-12+001499999V0203601N008019999999N9999999N1-00661-00781099851ADDMA1999999099691MD1610171+9999REMSYN060AAXX  17161 01006 46/// /3608 11066 21078 39969 49985 56017;
0101010060999992013011717004+78250+022817FM-12+001499999V0203301N008019999999N9999999N1-00611-00711099791ADDMA1999999099631MD1710211+9999REMSYN060AAXX  17171 01006 46/// /3308 11061 21071 39963 49979 57021;
0130010060999992013011718004+78250+022817FM-12+001499999V0203501N006019999999N9999999N1-00471-00541099701ADDKA1120M-00471MA1999999099541MD1710241+9999REMSYN076AAXX  17181 01006 46/// /3506 11047 21054 39954 49970 57024 333 11047 91111;
0101010060999992013011719004+78250+022817FM-12+001499999V0200501N005019999999N9999999N1-00361-00421099681ADDMA1999999099531MD1810161+9999REMSYN060AAXX  17191 01006 46/// /0505 11036 21042 39953 49968 58016;
0101010060999992013011720004+78250+022817FM-12+001499999V0200501N005019999999N9999999N1-00451-00551099671ADDMA1999999099521MD1810111+9999REMSYN060AAXX  17201 01006 46/// /0505 11045 21055 39952 49967 58011;
0101010060999992013011721004+78250+022817FM-12+001499999V0200701N009019999999N9999999N1-00391-00461099641ADDMA1999999099481MD1710061+9999REMSYN060AAXX  17211 01006 46/// /0709 11039 21046 39948 49964 57006;
0101010060999992013011722004+78250+022817FM-12+001499999V0200801N009019999999N9999999N1-00401-00471099671ADDMA1999999099521MD1010011+9999REMSYN060AAXX  17221 01006 46/// /0809 11040 21047 39952 49967 50001;
0101010060999992013011723004+78250+022817FM-12+001499999V0200801N012019999999N9999999N1-00401-00471099701ADDMA1999999099541MD1010021+9999REMSYN060AAXX  17231 01006 46/// /0812 11040 21047 39954 49970 50002;
0111010060999992013011800004+78250+022817FM-12+001499999V0200801N014019999999N9999999N1-00491-00571099781ADDMA1999999099621MD1110141+9999REMSYN070AAXX  18001 01006 46/// /0814 11049 21057 39962 49978 51014 333 91116;
0101010060999992013011801004+78250+022817FM-12+001499999V0200901N013019999999N9999999N1-00531-00631099891ADDMA1999999099731MD1110211+9999REMSYN060AAXX  18011 01006 46/// /0913 11053 21063 39973 49989 51021;
0101010060999992013011802004+78250+022817FM-12+001499999V0200801N013019999999N9999999N1-00551-00691099951ADDMA1999999099791MD1210251+9999REMSYN060AAXX  18021 01006 46/// /0813 11055 21069 39979 49995 52025;
0101010060999992013011803004+78250+022817FM-12+001499999V0200801N011019999999N9999999N1-00571-00691100041ADDMA1999999099881MD1210261+9999REMSYN060AAXX  18031 01006 46/// /0811 11057 21069 39988 40004 52026;
0101010060999992013011804004+78250+022817FM-12+001499999V0200601N011019999999N9999999N1-00601-00751100131ADDMA1999999099971MD1210241+9999REMSYN060AAXX  18041 01006 46/// /0611 11060 21075 39997 40013 52024;
0101010060999992013011805004+78250+022817FM-12+001499999V0200601N011019999999N9999999N1-00671-00871100211ADDMA1999999100051MD1210261+9999REMSYN060AAXX  18051 01006 46/// /0611 11067 21087 30005 40021 52026;
0130010060999992013011806004+78250+022817FM-12+001499999V0200401N009019999999N9999999N1-00761-00991100311ADDKA1999N-00761MA1999999100141MD1210261+9999REMSYN076AAXX  18061 01006 46/// /0409 11076 21099 30014 40031 52026 333 21076 91116;
0101010060999992013011807004+78250+022817FM-12+001499999V0200401N009019999999N9999999N1-00811-01031100361ADDMA1999999100201MD1210231+9999REMSYN060AAXX  18071 01006 46/// /0409 11081 21103 30020 40036 52023;
0101010060999992013011808004+78250+022817FM-12+001499999V0200501N010019999999N9999999N1-00891-01141100391ADDMA1999999100231MD1310181+9999REMSYN060AAXX  18081 01006 46/// /0510 11089 21114 30023 40039 53018;
0101010060999992013011809004+78250+022817FM-12+001499999V0200301N008019999999N9999999N1-00911-01131100481ADDMA1999999100321MD1110171+9999REMSYN060AAXX  18091 01006 46/// /0308 11091 21113 30032 40048 51017;
0101010060999992013011810004+78250+022817FM-12+001499999V0200201N009019999999N9999999N1-00911-01171100491ADDMA1999999100321MD1210131+9999REMSYN060AAXX  18101 01006 46/// /0209 11091 21117 30032 40049 52013;
0101010060999992013011811004+78250+022817FM-12+001499999V0200201N011019999999N9999999N1-00901-01111100461ADDMA1999999100301MD1310071+9999REMSYN060AAXX  18111 01006 46/// /0211 11090 21111 30030 40046 53007;
0111010060999992013011812004+78250+022817FM-12+001499999V0200101N010019999999N9999999N1-00941-01101100461ADDMA1999999100301MD1410001+9999REMSYN070AAXX  18121 01006 46/// /0110 11094 21110 30030 40046 54002 333 91115;
0101010060999992013011813004+78250+022817FM-12+001499999V0200101N011019999999N9999999N1-00891-01011100471ADDMA1999999100311MD1010021+9999REMSYN060AAXX  18131 01006 46/// /0111 11089 21101 30031 40047 50002;
0101010060999992013011814004+78250+022817FM-12+001499999V0200201N012019999999N9999999N1-00861-01021100511ADDMA1999999100351MD1110051+9999REMSYN060AAXX  18141 01006 46/// /0212 11086 21102 30035 40051 51005;
0101010060999992013011815004+78250+022817FM-12+001499999V0200101N012019999999N9999999N1-00791-00901100551ADDMA1999999100391MD1110091+9999REMSYN060AAXX  18151 01006 46/// /0112 11079 21090 30039 40055 51009;
0101010060999992013011816004+78250+022817FM-12+001499999V0200201N011019999999N9999999N1-00711-00831100631ADDMA1999999100471MD1110171+9999REMSYN060AAXX  18161 01006 46/// /0211 11071 21083 30047 40063 51017;
0101010060999992013011817004+78250+022817FM-12+001499999V0200301N011019999999N9999999N1-00671-00751100721ADDMA1999999100551MD1110201+9999REMSYN060AAXX  18171 01006 46/// /0311 11067 21075 30055 40072 51020;
0130010060999992013011818004+78250+022817FM-12+001499999V0200301N007019999999N9999999N1-00601-00681100841ADDKA1120M-00601MA1999999100681MD1110291+9999REMSYN076AAXX  18181 01006 46/// /0307 11060 21068 30068 40084 51029 333 11060 91115;
0101010060999992013011819004+78250+022817FM-12+001499999V0200801N007019999999N9999999N1-00511-00811100961ADDMA1999999100801MD1110331+9999REMSYN060AAXX  18191 01006 46/// /0807 11051 21081 30080 40096 51033;
0101010060999992013011820004+78250+022817FM-12+001499999V0200801N007019999999N9999999N1-00571-00931101051ADDMA1999999100891MD1310341+9999REMSYN060AAXX  18201 01006 46/// /0807 11057 21093 30089 40105 53034;
0101010060999992013011821004+78250+022817FM-12+001499999V0200501N008019999999N9999999N1-00601-00801101161ADDMA1999999101001MD1210321+9999REMSYN060AAXX  18211 01006 46/// /0508 11060 21080 30100 40116 52032;
0101010060999992013011822004+78250+022817FM-12+001499999V0200601N007019999999N9999999N1-00661-00901101271ADDMA1999999101111MD1210311+9999REMSYN060AAXX  18221 01006 46/// /0607 11066 21090 30111 40127 52031;
0101010060999992013011823004+78250+022817FM-12+001499999V0200401N007019999999N9999999N1-00711-00901101361ADDMA1999999101201MD1210311+9999REMSYN060AAXX  18231 01006 46/// /0407 11071 21090 30120 40136 52031;
0111010060999992013011900004+78250+022817FM-12+001499999V0200501N006019999999N9999999N1-00741-00971101441ADDMA1999999101281MD1310281+9999REMSYN070AAXX  19001 01006 46/// /0506 11074 21097 30128 40144 53028 333 91110;
0101010060999992013011901004+78250+022817FM-12+001499999V0200401N006019999999N9999999N1-00801-01001101501ADDMA1999999101331MD1310231+9999REMSYN060AAXX  19011 01006 46/// /0406 11080 21100 30133 40150 53023;
0101010060999992013011902004+78250+022817FM-12+001499999V0200501N005019999999N9999999N1-00861-01081101561ADDMA1999999101391MD1210201+9999REMSYN060AAXX  19021 01006 46/// /0505 11086 21108 30139 40156 52020;
0101010060999992013011903004+78250+022817FM-12+001499999V0200401N004019999999N9999999N1-00921-01171101601ADDMA1999999101441MD1210161+9999REMSYN060AAXX  19031 01006 46/// /0404 11092 21117 30144 40160 52016;
0101010060999992013011904004+78250+022817FM-12+001499999V0200501N004019999999N9999999N1-00911-01131101631ADDMA1999999101461MD1310131+9999REMSYN060AAXX  19041 01006 46/// /0504 11091 21113 30146 40163 53013;
0101010060999992013011905004+78250+022817FM-12+001499999V0200601N004019999999N9999999N1-00931-01151101661ADDMA1999999101491MD1210101+9999REMSYN060AAXX  19051 01006 46/// /0604 11093 21115 30149 40166 52010;
0130010060999992013011906004+78250+022817FM-12+001499999V0200601N004019999999N9999999N1-00961-01171101691ADDKA1999N-00961MA1999999101521MD1210081+9999REMSYN076AAXX  19061 01006 46/// /0604 11096 21117 30152 40169 52008 333 21096 91108;
0101010060999992013011907004+78250+022817FM-12+001499999V0200601N004019999999N9999999N1-00991-01191101711ADDMA1999999101551MD1210081+9999REMSYN060AAXX  19071 01006 46/// /0604 11099 21119 30155 40171 52008;
0101010060999992013011908004+78250+022817FM-12+001499999V0200701N003019999999N9999999N1-01011-01231101731ADDMA1999999101561MD1210071+9999REMSYN060AAXX  19081 01006 46/// /0703 11101 21123 30156 40173 52007;
0101010060999992013011909004+78250+022817FM-12+001499999V0200701N004019999999N9999999N1-01011-01231101761ADDMA1999999101601MD1210081+9999REMSYN060AAXX  19091 01006 46/// /0704 11101 21123 30160 40176 52008;
0101010060999992013011910004+78250+022817FM-12+001499999V0200801N003019999999N9999999N1-01031-01281101791ADDMA1999999101631MD1210081+9999REMSYN060AAXX  19101 01006 46/// /0803 11103 21128 30163 40179 52008;
0101010060999992013011911004+78250+022817FM-12+001499999V0200601N002019999999N9999999N1-01031-01281101811ADDMA1999999101641MD1210081+9999REMSYN060AAXX  19111 01006 46/// /0602 11103 21128 30164 40181 52008;
0111010060999992013011912004+78250+022817FM-12+001499999V0200201N001019999999N9999999N1-01031-01291101801ADDMA1999999101631MD1310041+9999REMSYN070AAXX  19121 01006 46/// /0201 11103 21129 30163 40180 53004 333 91106;
0101010060999992013011913004+78250+022817FM-12+001499999V0209999C000019999999N9999999N1-01071-01291101821ADDMA1999999101661MD1410001+9999REMSYN060AAXX  19131 01006 46/// /0000 11107 21129 30166 40182 54003;
0101010060999992013011914004+78250+022817FM-12+001499999V0200801N001019999999N9999999N1-01061-01321101791ADDMA1999999101631MD1410001+9999REMSYN060AAXX  19141 01006 46/// /0801 11106 21132 30163 40179 54001;
0101010060999992013011915004+78250+022817FM-12+001499999V0200801N002019999999N9999999N1-01061-01321101781ADDMA1999999101611MD1510021+9999REMSYN060AAXX  19151 01006 46/// /0802 11106 21132 30161 40178 55002;
0101010060999992013011916004+78250+022817FM-12+001499999V0200701N003019999999N9999999N1-01081-01401101781ADDMA1999999101621MD1810041+9999REMSYN060AAXX  19161 01006 46/// /0703 11108 21140 30162 40178 58004;
0101010060999992013011917004+78250+022817FM-12+001499999V0200901N002019999999N9999999N1-01091-01451101761ADDMA1999999101601MD1410001+9999REMSYN060AAXX  19171 01006 46/// /0902 11109 21145 30160 40176 54003;
0130010060999992013011918004+78250+022817FM-12+001499999V0201101N002019999999N9999999N1-01091-01451101711ADDKA1120M-00961MA1999999101541MD1610071+9999REMSYN076AAXX  19181 01006 46/// /1102 11109 21145 30154 40171 56007 333 11096 91105;
0101010060999992013011919004+78250+022817FM-12+001499999V0201701N002019999999N9999999N1-01121-01451101691ADDMA1999999101531MD1710091+9999REMSYN060AAXX  19191 01006 46/// /1702 11112 21145 30153 40169 57009;
0101010060999992013011920004+78250+022817FM-12+001499999V0201701N004019999999N9999999N1-01161-01451101651ADDMA1999999101481MD1710111+9999REMSYN060AAXX  19201 01006 46/// /1704 11116 21145 30148 40165 57011;
0101010060999992013011921004+78250+022817FM-12+001499999V0201701N004019999999N9999999N1-01161-01451101591ADDMA1999999101421MD1610121+9999REMSYN060AAXX  19211 01006 46/// /1704 11116 21145 30142 40159 56012;
0101010060999992013011922004+78250+022817FM-12+001499999V0201801N005019999999N9999999N1-01201-01461101551ADDMA1999999101391MD1710141+9999REMSYN060AAXX  19221 01006 46/// /1805 11120 21146 30139 40155 57014;
0101010060999992013011923004+78250+022817FM-12+001499999V0201901N006019999999N9999999N1-01251-01491101461ADDMA1999999101291MD1610191+9999REMSYN060AAXX  19231 01006 46/// /1906 11125 21149 30129 40146 56019;
0111010060999992013012000004+78250+022817FM-12+001499999V0202001N006019999999N9999999N1-01221-01461101391ADDMA1999999101221MD1610201+9999REMSYN070AAXX  20001 01006 46/// /2006 11122 21146 30122 40139 56020 333 91107;
0101010060999992013012001004+78250+022817FM-12+001499999V0201901N006019999999N9999999N1-01161-01431101291ADDMA1999999101121MD1710271+9999REMSYN060AAXX  20011 01006 46/// /1906 11116 21143 30112 40129 57027;
0101010060999992013012002004+78250+022817FM-12+001499999V0201701N004019999999N9999999N1-01151-01361101171ADDMA1999999101011MD1610281+9999REMSYN060AAXX  20021 01006 46/// /1704 11115 21136 30101 40117 56028;
0101010060999992013012003004+78250+022817FM-12+001499999V0201701N005019999999N9999999N1-01111-01301101031ADDMA1999999100861MD1610361+9999REMSYN060AAXX  20031 01006 46/// /1705 11111 21130 30086 40103 56036;
0101010060999992013012004004+78250+022817FM-12+001499999V0201701N006019999999N9999999N1-01011-01221100901ADDMA1999999100741MD1710381+9999REMSYN060AAXX  20041 01006 46/// /1706 11101 21122 30074 40090 57038;
0101010060999992013012005004+78250+022817FM-12+001499999V0202001N003019999999N9999999N1-00831-01001100811ADDMA1999999100651MD1810361+9999REMSYN060AAXX  20051 01006 46/// /2003 11083 21100 30065 40081 58036;
0130010060999992013012006004+78250+022817FM-12+001499999V0202201N005019999999N9999999N1-00741-00931100641ADDKA1999N-01261MA1999999100481MD1610381+9999REMSYN076AAXX  20061 01006 46/// /2205 11074 21093 30048 40064 56038 333 21126 91107;
0101010060999992013012007004+78250+022817FM-12+001499999V0202201N005019999999N9999999N1-00691-00891100521ADDMA1999999100361MD1610381+9999REMSYN060AAXX  20071 01006 46/// /2205 11069 21089 30036 40052 56038;
0101010060999992013012008004+78250+022817FM-12+001499999V0202201N004019999999N9999999N1-00531-00731100411ADDMA1999999100251MD1810401+9999REMSYN060AAXX  20081 01006 46/// /2204 11053 21073 30025 40041 58040;
0101010060999992013012009004+78250+022817FM-12+001499999V0202401N005019999999N9999999N1-00541-00701100321ADDMA1999999100161MD1710321+9999REMSYN060AAXX  20091 01006 46/// /2405 11054 21070 30016 40032 57032;
0101010060999992013012010004+78250+022817FM-12+001499999V0202601N005019999999N9999999N1-00671-00821100211ADDMA1999999100051MD1710311+9999REMSYN060AAXX  20101 01006 46/// /2605 11067 21082 30005 40021 57031;
0101010060999992013012011004+78250+022817FM-12+001499999V0202201N003019999999N9999999N1-00591-00821100091ADDMA1999999099931MD1710331+9999REMSYN060AAXX  20111 01006 46/// /2203 11059 21082 39993 40009 57033;
0111010060999992013012012004+78250+022817FM-12+001499999V0202101N003019999999N9999999N1-00691-00841099951ADDMA1999999099791MD1610371+9999REMSYN070AAXX  20121 01006 46/// /2103 11069 21084 39979 49995 56037 333 91106;
0101010060999992013012013004+78250+022817FM-12+001499999V0203101N002019999999N9999999N1-00881-01121099911ADDMA1999999099751MD1810301+9999REMSYN060AAXX  20131 01006 46/// /3102 11088 21112 39975 49991 58030;
0101010060999992013012014004+78250+022817FM-12+001499999V0201801N003019999999N9999999N1-00641-00871099741ADDMA1999999099581MD1710341+9999REMSYN060AAXX  20141 01006 46/// /1803 11064 21087 39958 49974 57034;
0101010060999992013012015004+78250+022817FM-12+001499999V0202101N003019999999N9999999N1-00401-00661099611ADDMA1999999099461MD1610331+9999REMSYN060AAXX  20151 01006 46/// /2103 11040 21066 39946 49961 56033;
0101010060999992013012016004+78250+022817FM-12+001499999V0202401N004019999999N9999999N1-00451-00651099531ADDMA1999999099371MD1810371+9999REMSYN060AAXX  20161 01006 46/// /2404 11045 21065 39937 49953 58037;
0101010060999992013012017004+78250+022817FM-12+001499999V0202301N002019999999N9999999N1-00461-00611099491ADDMA1999999099331MD1810251+9999REMSYN060AAXX  20171 01006 46/// /2302 11046 21061 39933 49949 58025;
0130010060999992013012018004+78250+022817FM-12+001499999V0202801N002019999999N9999999N1-00421-00611099411ADDKA1120M-00361MA1999999099251MD1710201+9999REMSYN076AAXX  20181 01006 46/// /2802 11042 21061 39925 49941 57020 333 11036 91106;
0101010060999992013012019004+78250+022817FM-12+001499999V0203001N003019999999N9999999N1-00721-00881099411ADDMA1999999099251MD1810121+9999REMSYN060AAXX  20191 01006 46/// /3003 11072 21088 39925 49941 58012;
0101010060999992013012020004+78250+022817FM-12+001499999V0203301N006019999999N9999999N1-00681-00781099431ADDMA1999999099271MD1810061+9999REMSYN060AAXX  20201 01006 46/// /3306 11068 21078 39927 49943 58006;
0101010060999992013012021004+78250+022817FM-12+001499999V0203401N005019999999N9999999N1-00681-00761099441ADDMA1999999099281MD1410001+9999REMSYN060AAXX  20211 01006 46/// /3405 11068 21076 39928 49944 54002;
0101010060999992013012022004+78250+022817FM-12+001499999V0203501N005019999999N9999999N1-00551-00611099461ADDMA1999999099301MD1210051+9999REMSYN060AAXX  20221 01006 46/// /3505 11055 21061 39930 49946 52005;
0101010060999992013012023004+78250+022817FM-12+001499999V0200801N011019999999N9999999N1-00571-00681099501ADDMA1999999099341MD1110071+9999REMSYN060AAXX  20231 01006 46/// /0811 11057 21068 39934 49950 51007;
0111010060999992013012100004+78250+022817FM-12+001499999V0200901N011019999999N9999999N1-00741-00901099581ADDMA1999999099431MD1110151+9999REMSYN070AAXX  21001 01006 46/// /0911 11074 21090 39943 49958 51015 333 91114;
0101010060999992013012101004+78250+022817FM-12+001499999V0200901N011019999999N9999999N1-00801-00971099741ADDMA1999999099581MD1110281+9999REMSYN060AAXX  21011 01006 46/// /0911 11080 21097 39958 49974 51028;
0101010060999992013012102004+78250+022817FM-12+001499999V0200801N010019999999N9999999N1-00871-01011099881ADDMA1999999099721MD1110381+9999REMSYN060AAXX  21021 01006 46/// /0810 11087 21101 39972 49988 51038;
0101010060999992013012103004+78250+022817FM-12+001499999V0200801N010019999999N9999999N1-00941-01121099981ADDMA1999999099821MD1310401+9999REMSYN060AAXX  21031 01006 46/// /0810 11094 21112 39982 49998 53040;
0101010060999992013012104004+78250+022817FM-12+001499999V0200601N012019999999N9999999N1-01091-01241100101ADDMA1999999099941MD1210361+9999REMSYN060AAXX  21041 01006 46/// /0612 11109 21124 39994 40010 52036;
