0111010160999992013010100004+78933+028900FM-12+002099999V0201201N017019999999N9999999N1-00321-00381100481ADDMA1999999100321MD1710031+9999REMSYN070AAXX  01001 01016 46/// /1217 11032 21038 30032 40048 57003 333 91121;
0101010160999992013010101004+78933+028900FM-12+002099999V0201201N017019999999N9999999N1-00311-00371100441ADDMA1999999100291MD1710071+9999REMSYN060AAXX  01011 01016 46/// /1217 11031 21037 30029 40044 57007;
0101010160999992013010102004+78933+028900FM-12+002099999V0201201N017019999999N9999999N1-00301-00351100441ADDMA1999999100291MD1710061+9999REMSYN060AAXX  01021 01016 46/// /1217 11030 21035 30029 40044 57006;
0101010160999992013010103004+78933+028900FM-12+002099999V0201201N017019999999N9999999N1-00301-00351100391ADDMA1999999100231MD1710091+9999REMSYN060AAXX  01031 01016 46/// /1217 11030 21035 30023 40039 57009;
0101010160999992013010104004+78933+028900FM-12+002099999V0201101N017019999999N9999999N1-00291-00351100391ADDMA1999999100231MD1710051+9999REMSYN060AAXX  01041 01016 46/// /1117 11029 21035 30023 40039 57005;
0101010160999992013010105004+78933+028900FM-12+002099999V0201101N017019999999N9999999N1-00281-00331100361ADDMA1999999100201MD1710081+9999REMSYN060AAXX  01051 01016 46/// /1117 11028 21033 30020 40036 57008;
0130010160999992013010106004+78933+028900FM-12+002099999V0201101N017019999999N9999999N1-00271-00321100351ADDKA1999N-00331MA1999999100191MD1710041+9999REMSYN076AAXX  01061 01016 46/// /1117 11027 21032 30019 40035 57004 333 21033 91121;
0101010160999992013010107004+78933+028900FM-12+002099999V0201101N016019999999N9999999N1-00251-00301100331ADDMA1999999100171MD1710061+9999REMSYN060AAXX  01071 01016 46/// /1116 11025 21030 30017 40033 57006;
0101010160999992013010108004+78933+028900FM-12+002099999V0201101N016019999999N9999999N1-00231-00281100311ADDMA1999999100151MD1710051+9999REMSYN060AAXX  01081 01016 46/// /1116 11023 21028 30015 40031 57005;
0101010160999992013010109004+78933+028900FM-12+002099999V0201101N016019999999N9999999N1-00191-00241100301ADDMA1999999100141MD1710041+9999REMSYN060AAXX  01091 01016 46/// /1116 11019 21024 30014 40030 57004;
0101010160999992013010110004+78933+028900FM-12+002099999V0201201N015019999999N9999999N1-00151-00191100301ADDMA1999999100141MD1410001+9999REMSYN060AAXX  01101 01016 46/// /1215 11015 21019 30014 40030 54003;
0101010160999992013010111004+78933+028900FM-12+002099999V0201201N015019999999N9999999N1-00131-00171100291ADDMA1999999100141MD1410001+9999REMSYN060AAXX  01111 01016 46/// /1215 11013 21017 30014 40029 54002;
0111010160999992013010112004+78933+028900FM-12+002099999V0201201N015019999999N9999999N1-00131-00171100301ADDMA1999999100151MD1410001+9999REMSYN070AAXX  01121 01016 46/// /1215 11013 21017 30015 40030 54000 333 91120;
0101010160999992013010113004+78933+028900FM-12+002099999V0201201N015019999999N9999999N1-00141-00181100321ADDMA1999999100161MD1410001+9999REMSYN060AAXX  01131 01016 46/// /1215 11014 21018 30016 40032 54002;
0101010160999992013010114004+78933+028900FM-12+002099999V0201201N015019999999N9999999N1-00151-00191100311ADDMA1999999100151MD1410001+9999REMSYN060AAXX  01141 01016 46/// /1215 11015 21019 30015 40031 54002;
0101010160999992013010115004+78933+028900FM-12+002099999V0201201N015019999999N9999999N1-00161-00201100311ADDMA1999999100151MD1410001+9999REMSYN060AAXX  01151 01016 46/// /1215 11016 21020 30015 40031 54000;
0101010160999992013010116004+78933+028900FM-12+002099999V0201201N015019999999N9999999N1-00161-00201100301ADDMA1999999100141MD1410001+9999REMSYN060AAXX  01161 01016 46/// /1215 11016 21020 30014 40030 54002;
0101010160999992013010117004+78933+028900FM-12+002099999V0201201N015019999999N9999999N1-00161-00201100281ADDMA1999999100121MD1710041+9999REMSYN060AAXX  01171 01016 46/// /1215 11016 21020 30012 40028 57004;
0130010160999992013010118004+78933+028900FM-12+002099999V0201201N016019999999N9999999N1-00161-00201100271ADDKA1120M-00131MA1999999100111MD1710041+9999REMSYN076AAXX  01181 01016 46/// /1216 11016 21020 30011 40027 57004 333 11013 91119;
0101010160999992013010119004+78933+028900FM-12+002099999V0201201N016019999999N9999999N1-00171-00221100261ADDMA1999999100111MD1710041+9999REMSYN060AAXX  01191 01016 46/// /1216 11017 21022 30011 40026 57004;
0101010160999992013010120004+78933+028900FM-12+002099999V0201201N016019999999N9999999N1-00171-00221100261ADDMA1999999100101MD1410001+9999REMSYN060AAXX  01201 01016 46/// /1216 11017 21022 30010 40026 54002;
0101010160999992013010121004+78933+028900FM-12+002099999V0201201N016019999999N9999999N1-00181-00231100241ADDMA1999999100081MD1410001+9999REMSYN060AAXX  01211 01016 46/// /1216 11018 21023 30008 40024 54003;
0101010160999992013010122004+78933+028900FM-12+002099999V0201101N016019999999N9999999N1-00191-00241100211ADDMA1999999100051MD1710051+9999REMSYN060AAXX  01221 01016 46/// /1116 11019 21024 30005 40021 57005;
0101010160999992013010123004+78933+028900FM-12+002099999V0201101N016019999999N9999999N1-00181-00231100181ADDMA1999999100021MD1710081+9999REMSYN060AAXX  01231 01016 46/// /1116 11018 21023 30002 40018 57008;
0111010160999992013010200004+78933+028900FM-12+002099999V0201101N016019999999N9999999N1-00171-00221100141ADDMA1999999099981MD1710101+9999REMSYN070AAXX  02001 01016 46/// /1116 11017 21022 39998 40014 57010 333 91120;
0101010160999992013010201004+78933+028900FM-12+002099999V0201101N017019999999N9999999N1-00161-00211100111ADDMA1999999099951MD1710101+9999REMSYN060AAXX  02011 01016 46/// /1117 11016 21021 39995 40011 57010;
0101010160999992013010202004+78933+028900FM-12+002099999V0201201N016019999999N9999999N1-00161-00201100081ADDMA1999999099921MD1710101+9999REMSYN060AAXX  02021 01016 46/// /1216 11016 21020 39992 40008 57010;
0101010160999992013010203004+78933+028900FM-12+002099999V0201201N015019999999N9999999N1-00151-00191100091ADDMA1999999099931MD1810051+9999REMSYN060AAXX  02031 01016 46/// /1215 11015 21019 39993 40009 58005;
0101010160999992013010204004+78933+028900FM-12+002099999V0201301N013019999999N9999999N1-00121-00161100101ADDMA1999999099941MD1010011+9999REMSYN060AAXX  02041 01016 46/// /1313 11012 21016 39994 40010 50001;
0101010160999992013010207004+78933+028900FM-12+002099999V0201201N012019999999N9999999N1-00121-00161100141ADDMA1999999099981MD1210041+9999REMSYN060AAXX  02071 01016 46/// /1212 11012 21016 39998 40014 52004;
0101010160999992013010208004+78933+028900FM-12+002099999V0201201N011019999999N9999999N1-00111-00151100121ADDMA1999999099961MD1510011+9999REMSYN060AAXX  02081 01016 46/// /1211 11011 21015 39996 40012 55001;
0101010160999992013010209004+78933+028900FM-12+002099999V0201201N010019999999N9999999N1-00101-00121100111ADDMA1999999099961MD1410001+9999REMSYN060AAXX  02091 01016 46/// /1210 11010 21012 39996 40011 54001;
0101010160999992013010210004+78933+028900FM-12+002099999V0201201N012019999999N9999999N1-00101-00121100091ADDMA1999999099931MD1710051+9999REMSYN060AAXX  02101 01016 46/// /1212 11010 21012 39993 40009 57005;
0101010160999992013010211004+78933+028900FM-12+002099999V0201101N012019999999N9999999N1-00111-00151100031ADDMA1999999099871MD1610091+9999REMSYN060AAXX  02111 01016 46/// /1112 11011 21015 39987 40003 56009;
0111010160999992013010212004+78933+028900FM-12+002099999V0201201N012019999999N9999999N1-00121-00161099981ADDMA1999999099831MD1710131+9999REMSYN070AAXX  02121 01016 46/// /1212 11012 21016 39983 49998 57013 333 91114;
0101010160999992013010213004+78933+028900FM-12+002099999V0201201N013019999999N9999999N1-00111-00131099911ADDMA1999999099761MD1710171+9999REMSYN060AAXX  02131 01016 46/// /1213 11011 21013 39976 49991 57017;
0101010160999992013010214004+78933+028900FM-12+002099999V0201201N014019999999N9999999N1-00111-00131099871ADDMA1999999099721MD1710161+9999REMSYN060AAXX  02141 01016 46/// /1214 11011 21013 39972 49987 57016;
0101010160999992013010215004+78933+028900FM-12+002099999V0201201N013019999999N9999999N1-00121-00141099841ADDMA1999999099681MD1810151+9999REMSYN060AAXX  02151 01016 46/// /1213 11012 21014 39968 49984 58015;
0101010160999992013010216004+78933+028900FM-12+002099999V0201201N013019999999N9999999N1-00111-00131099781ADDMA1999999099621MD1710141+9999REMSYN060AAXX  02161 01016 46/// /1213 11011 21013 39962 49978 57014;
0101010160999992013010217004+78933+028900FM-12+002099999V0201201N014019999999N9999999N1-00111-00131099721ADDMA1999999099561MD1710151+9999REMSYN060AAXX  02171 01016 46/// /1214 11011 21013 39956 49972 57015;
0130010160999992013010218004+78933+028900FM-12+002099999V0201201N014019999999N9999999N1-00121-00141099661ADDKA1120M-00091MA1999999099511MD1710181+9999REMSYN076AAXX  02181 01016 46/// /1214 11012 21014 39951 49966 57018 333 11009 91117;
0101010160999992013010219004+78933+028900FM-12+002099999V0201201N015019999999N9999999N1-00131-00151099631ADDMA1999999099481MD1710141+9999REMSYN060AAXX  02191 01016 46/// /1215 11013 21015 39948 49963 57014;
0101010160999992013010220004+78933+028900FM-12+002099999V0201201N014019999999N9999999N1-00141-00161099611ADDMA1999999099461MD1810111+9999REMSYN060AAXX  02201 01016 46/// /1214 11014 21016 39946 49961 58011;
0101010160999992013010221004+78933+028900FM-12+002099999V0201301N014019999999N9999999N1-00141-00161099591ADDMA1999999099431MD1710071+9999REMSYN060AAXX  02211 01016 46/// /1314 11014 21016 39943 49959 57007;
0101010160999992013010222004+78933+028900FM-12+002099999V0201301N014019999999N9999999N1-00151-00171099601ADDMA1999999099441MD1810031+9999REMSYN060AAXX  02221 01016 46/// /1314 11015 21017 39944 49960 58003;
0101010160999992013010223004+78933+028900FM-12+002099999V0201301N014019999999N9999999N1-00171-00191099611ADDMA1999999099451MD1410001+9999REMSYN060AAXX  02231 01016 46/// /1314 11017 21019 39945 49961 54001;
0111010160999992013010300004+78933+028900FM-12+002099999V0201301N014019999999N9999999N1-00181-00201099581ADDMA1999999099421MD1510011+9999REMSYN070AAXX  03001 01016 46/// /1314 11018 21020 39942 49958 55001 333 91118;
0101010160999992013010301004+78933+028900FM-12+002099999V0201301N013019999999N9999999N1-00181-00221099561ADDMA1999999099401MD1710041+9999REMSYN060AAXX  03011 01016 46/// /1313 11018 21022 39940 49956 57004;
0101010160999992013010302004+78933+028900FM-12+002099999V0201301N014019999999N9999999N1-00171-00211099531ADDMA1999999099371MD1710081+9999REMSYN060AAXX  03021 01016 46/// /1314 11017 21021 39937 49953 57008;
0101010160999992013010303004+78933+028900FM-12+002099999V0201401N013019999999N9999999N1-00171-00211099551ADDMA1999999099391MD1010031+9999REMSYN060AAXX  03031 01016 46/// /1413 11017 21021 39939 49955 50003;
0101010160999992013010304004+78933+028900FM-12+002099999V0201301N012019999999N9999999N1-00171-00221099551ADDMA1999999099401MD1010011+9999REMSYN060AAXX  03041 01016 46/// /1312 11017 21022 39940 49955 50001;
0101010160999992013010305004+78933+028900FM-12+002099999V0201301N012019999999N9999999N1-00151-00191099571ADDMA1999999099411MD1210041+9999REMSYN060AAXX  03051 01016 46/// /1312 11015 21019 39941 49957 52004;
0130010160999992013010306004+78933+028900FM-12+002099999V0201401N011019999999N9999999N1-00151-00191099591ADDKA1999N-00191MA1999999099441MD1210041+9999REMSYN076AAXX  03061 01016 46/// /1411 11015 21019 39944 49959 52004 333 21019 91117;
0101010160999992013010308004+78933+028900FM-12+002099999V0201401N011019999999N9999999N1-00181-00231099701ADDMA1999999099541MD1110131+9999REMSYN060AAXX  03081 01016 46/// /1411 11018 21023 39954 49970 51013;
0101010160999992013010309004+78933+028900FM-12+002099999V0201401N012019999999N9999999N1-00201-00261099751ADDMA1999999099601MD1210161+9999REMSYN060AAXX  03091 01016 46/// /1412 11020 21026 39960 49975 52016;
0101010160999992013010310004+78933+028900FM-12+002099999V0201301N011019999999N9999999N1-00211-00281099801ADDMA1999999099641MD1210161+9999REMSYN060AAXX  03101 01016 46/// /1311 11021 21028 39964 49980 52016;
0101010160999992013010311004+78933+028900FM-12+002099999V0201301N010019999999N9999999N1-00211-00281099821ADDMA1999999099661MD1310121+9999REMSYN060AAXX  03111 01016 46/// /1310 11021 21028 39966 49982 53012;
0111010160999992013010312004+78933+028900FM-12+002099999V0201301N011019999999N9999999N1-00251-00321099831ADDMA1999999099671MD1310071+9999REMSYN070AAXX  03121 01016 46/// /1311 11025 21032 39967 49983 53007 333 91114;
0101010160999992013010313004+78933+028900FM-12+002099999V0201201N011019999999N9999999N1-00281-00341099881ADDMA1999999099721MD1110081+9999REMSYN060AAXX  03131 01016 46/// /1211 11028 21034 39972 49988 51008;
0101010160999992013010314004+78933+028900FM-12+002099999V0201201N011019999999N9999999N1-00291-00361099911ADDMA1999999099751MD1210091+9999REMSYN060AAXX  03141 01016 46/// /1211 11029 21036 39975 49991 52009;
0101010160999992013010315004+78933+028900FM-12+002099999V0201201N011019999999N9999999N1-00301-00391099951ADDMA1999999099791MD1210121+9999REMSYN060AAXX  03151 01016 46/// /1211 11030 21039 39979 49995 52012;
0101010160999992013010316004+78933+028900FM-12+002099999V0201201N010019999999N9999999N1-00321-00441099991ADDMA1999999099841MD1210121+9999REMSYN060AAXX  03161 01016 46/// /1210 11032 21044 39984 49999 52012;
0101010160999992013010317004+78933+028900FM-12+002099999V0201201N009019999999N9999999N1-00371-00521100021ADDMA1999999099871MD1210111+9999REMSYN060AAXX  03171 01016 46/// /1209 11037 21052 39987 40002 52011;
0130010160999992013010318004+78933+028900FM-12+002099999V0201101N009019999999N9999999N1-00321-00431100051ADDKA1120M-00141MA1999999099891MD1210101+9999REMSYN076AAXX  03181 01016 46/// /1109 11032 21043 39989 40005 52010 333 11014 91114;
0101010160999992013010319004+78933+028900FM-12+002099999V0201101N009019999999N9999999N1-00351-00491100081ADDMA1999999099921MD1210091+9999REMSYN060AAXX  03191 01016 46/// /1109 11035 21049 39992 40008 52009;
0101010160999992013010320004+78933+028900FM-12+002099999V0201001N010019999999N9999999N1-00351-00501100111ADDMA1999999099951MD1210081+9999REMSYN060AAXX  03201 01016 46/// /1010 11035 21050 39995 40011 52008;
0101010160999992013010321004+78933+028900FM-12+002099999V0201001N010019999999N9999999N1-00361-00541100131ADDMA1999999099971MD1210081+9999REMSYN060AAXX  03211 01016 46/// /1010 11036 21054 39997 40013 52008;
0101010160999992013010322004+78933+028900FM-12+002099999V0201001N008019999999N9999999N1-00371-00591100171ADDMA1999999100011MD1210091+9999REMSYN060AAXX  03221 01016 46/// /1008 11037 21059 30001 40017 52009;
0101010160999992013010323004+78933+028900FM-12+002099999V0201001N008019999999N9999999N1-00391-00651100221ADDMA1999999100071MD1110121+9999REMSYN060AAXX  03231 01016 46/// /1008 11039 21065 30007 40022 51012;
0111010160999992013010400004+78933+028900FM-12+002099999V0201001N007019999999N9999999N1-00381-00611100251ADDMA1999999100091MD1210121+9999REMSYN070AAXX  04001 01016 46/// /1007 11038 21061 30009 40025 52012 333 91112;
0101010160999992013010401004+78933+028900FM-12+002099999V0200901N007019999999N9999999N1-00421-00611100271ADDMA1999999100111MD1310101+9999REMSYN060AAXX  04011 01016 46/// /0907 11042 21061 30011 40027 53010;
0101010160999992013010402004+78933+028900FM-12+002099999V0200801N008019999999N9999999N1-00391-00581100301ADDMA1999999100141MD1210081+9999REMSYN060AAXX  04021 01016 46/// /0808 11039 21058 30014 40030 52008;
0101010160999992013010403004+78933+028900FM-12+002099999V0201001N007019999999N9999999N1-00421-00511100341ADDMA1999999100181MD1210081+9999REMSYN060AAXX  04031 01016 46/// /1007 11042 21051 30018 40034 52008;
0101010160999992013010404004+78933+028900FM-12+002099999V0201001N007019999999N9999999N1-00391-00571100351ADDMA1999999100191MD1210081+9999REMSYN060AAXX  04041 01016 46/// /1007 11039 21057 30019 40035 52008;
0101010160999992013010405004+78933+028900FM-12+002099999V0200901N009019999999N9999999N1-00381-00561100381ADDMA1999999100221MD1210081+9999REMSYN060AAXX  04051 01016 46/// /0909 11038 21056 30022 40038 52008;
0130010160999992013010406004+78933+028900FM-12+002099999V0200901N008019999999N9999999N1-00381-00661100401ADDKA1999N-00441MA1999999100241MD1210061+9999REMSYN076AAXX  04061 01016 46/// /0908 11038 21066 30024 40040 52006 333 21044 91110;
0101010160999992013010407004+78933+028900FM-12+002099999V0200801N008019999999N9999999N1-00381-00681100461ADDMA1999999100301MD1110111+9999REMSYN060AAXX  04071 01016 46/// /0808 11038 21068 30030 40046 51011;
0101010160999992013010408004+78933+028900FM-12+002099999V0200901N007019999999N9999999N1-00401-00671100501ADDMA1999999100341MD1210121+9999REMSYN060AAXX  04081 01016 46/// /0907 11040 21067 30034 40050 52012;
0101010160999992013010409004+78933+028900FM-12+002099999V0200901N006019999999N9999999N1-00431-00681100551ADDMA1999999100391MD1210151+9999REMSYN060AAXX  04091 01016 46/// /0906 11043 21068 30039 40055 52015;
0101010160999992013010410004+78933+028900FM-12+002099999V0200801N007019999999N9999999N1-00441-00691100591ADDMA1999999100441MD1210131+9999REMSYN060AAXX  04101 01016 46/// /0807 11044 21069 30044 40059 52013;
0101010160999992013010411004+78933+028900FM-12+002099999V0201001N005019999999N9999999N1-00471-00631100671ADDMA1999999100511MD1210171+9999REMSYN060AAXX  04111 01016 46/// /1005 11047 21063 30051 40067 52017;
0111010160999992013010412004+78933+028900FM-12+002099999V0200701N008019999999N9999999N1-00451-00711100701ADDMA1999999100541MD1210151+9999REMSYN070AAXX  04121 01016 46/// /0708 11045 21071 30054 40070 52015 333 91110;
0101010160999992013010413004+78933+028900FM-12+002099999V0200501N007019999999N9999999N1-00491-00761100731ADDMA1999999100571MD1310131+9999REMSYN060AAXX  04131 01016 46/// /0507 11049 21076 30057 40073 53013;
0101010160999992013010414004+78933+028900FM-12+002099999V0200401N006019999999N9999999N1-00491-00751100781ADDMA1999999100621MD1210111+9999REMSYN060AAXX  04141 01016 46/// /0406 11049 21075 30062 40078 52011;
0101010160999992013010415004+78933+028900FM-12+002099999V0200501N005019999999N9999999N1-00501-00761100821ADDMA1999999100661MD1210121+9999REMSYN060AAXX  04151 01016 46/// /0505 11050 21076 30066 40082 52012;
0101010160999992013010416004+78933+028900FM-12+002099999V0200301N005019999999N9999999N1-00511-00741100871ADDMA1999999100711MD1210151+9999REMSYN060AAXX  04161 01016 46/// /0305 11051 21074 30071 40087 52015;
0101010160999992013010417004+78933+028900FM-12+002099999V0200201N005019999999N9999999N1-00631-00831100911ADDMA1999999100751MD1210131+9999REMSYN060AAXX  04171 01016 46/// /0205 11063 21083 30075 40091 52013;
0130010160999992013010418004+78933+028900FM-12+002099999V0200501N004019999999N9999999N1-00471-00611100961ADDKA1120M-00381MA1999999100801MD1210141+9999REMSYN076AAXX  04181 01016 46/// /0504 11047 21061 30080 40096 52014 333 11038 91109;
0101010160999992013010419004+78933+028900FM-12+002099999V0200801N005019999999N9999999N1-00431-00691101021ADDMA1999999100861MD1210141+9999REMSYN060AAXX  04191 01016 46/// /0805 11043 21069 30086 40102 52014;
0101010160999992013010420004+78933+028900FM-12+002099999V0200601N005019999999N9999999N1-00411-00601101081ADDMA1999999100921MD1210171+9999REMSYN060AAXX  04201 01016 46/// /0605 11041 21060 30092 40108 52017;
0101010160999992013010421004+78933+028900FM-12+002099999V0200901N004019999999N9999999N1-00441-00601101151ADDMA1999999100991MD1210191+9999REMSYN060AAXX  04211 01016 46/// /0904 11044 21060 30099 40115 52019;
0101010160999992013010422004+78933+028900FM-12+002099999V0200901N004019999999N9999999N1-00441-00601101211ADDMA1999999101051MD1210191+9999REMSYN060AAXX  04221 01016 46/// /0904 11044 21060 30105 40121 52019;
0101010160999992013010423004+78933+028900FM-12+002099999V0200801N003019999999N9999999N1-00431-00591101271ADDMA1999999101111MD1210191+9999REMSYN060AAXX  04231 01016 46/// /0803 11043 21059 30111 40127 52019;
0111010160999992013010500004+78933+028900FM-12+002099999V0200901N002019999999N9999999N1-00431-00631101341ADDMA1999999101181MD1210181+9999REMSYN070AAXX  05001 01016 46/// /0902 11043 21063 30118 40134 52018 333 91107;
0101010160999992013010501004+78933+028900FM-12+002099999V0200801N004019999999N9999999N1-00441-00601101391ADDMA1999999101231MD1210181+9999REMSYN060AAXX  05011 01016 46/// /0804 11044 21060 30123 40139 52018;
0101010160999992013010502004+78933+028900FM-12+002099999V0200601N003019999999N9999999N1-00501-00691101441ADDMA1999999101281MD1210161+9999REMSYN060AAXX  05021 01016 46/// /0603 11050 21069 30128 40144 52016;
0101010160999992013010503004+78933+028900FM-12+002099999V0200301N002019999999N9999999N1-00411-00611101491ADDMA1999999101331MD1210151+9999REMSYN060AAXX  05031 01016 46/// /0302 11041 21061 30133 40149 52015;
0101010160999992013010504004+78933+028900FM-12+002099999V0200401N002019999999N9999999N1-00561-00781101561ADDMA1999999101401MD1210171+9999REMSYN060AAXX  05041 01016 46/// /0402 11056 21078 30140 40156 52017;
0101010160999992013010505004+78933+028900FM-12+002099999V0200201N003019999999N9999999N1-00601-00801101601ADDMA1999999101441MD1210161+9999REMSYN060AAXX  05051 01016 46/// /0203 11060 21080 30144 40160 52016;
0130010160999992013010506004+78933+028900FM-12+002099999V0203601N003019999999N9999999N1-00511-00741101661ADDKA1999N-00631MA1999999101501MD1210171+9999REMSYN076AAXX  05061 01016 46/// /3603 11051 21074 30150 40166 52017 333 21063 91104;
0101010160999992013010507004+78933+028900FM-12+002099999V0200401N001019999999N9999999N1-00581-00781101711ADDMA1999999101551MD1210151+9999REMSYN060AAXX  05071 01016 46/// /0401 11058 21078 30155 40171 52015;
0101010160999992013010508004+78933+028900FM-12+002099999V0203501N001019999999N9999999N1-00751-00911101791ADDMA1999999101621MD1210181+9999REMSYN060AAXX  05081 01016 46/// /3501 11075 21091 30162 40179 52018;
0101010160999992013010509004+78933+028900FM-12+002099999V0203501N001019999999N9999999N1-00781-00881101821ADDMA1999999101661MD1210161+9999REMSYN060AAXX  05091 01016 46/// /3501 11078 21088 30166 40182 52016;
0101010160999992013010510004+78933+028900FM-12+002099999V0209999C000019999999N9999999N1-00891-00971101881ADDMA1999999101711MD1210161+9999REMSYN060AAXX  05101 01016 46/// /0000 11089 21097 30171 40188 52016;
0101010160999992013010511004+78933+028900FM-12+002099999V0209999C000019999999N9999999N1-00721-00791101911ADDMA1999999101751MD1210131+9999REMSYN060AAXX  05111 01016 46/// /0000 11072 21079 30175 40191 52013;
0111010160999992013010512004+78933+028900FM-12+002099999V0209999C000019999999N9999999N1-00921-00991101961ADDMA1999999101791MD1210131+9999REMSYN070AAXX  05121 01016 46/// /0000 11092 21099 30179 40196 52013 333 91103;
0101010160999992013010513004+78933+028900FM-12+002099999V0201301N002019999999N9999999N1-00511-00591101961ADDMA1999999101801MD1210091+9999REMSYN060AAXX  05131 01016 46/// /1302 11051 21059 30180 40196 52009;
0101010160999992013010514004+78933+028900FM-12+002099999V0201501N002019999999N9999999N1-00931-01101102001ADDMA1999999101831MD1210081+9999REMSYN060AAXX  05141 01016 46/// /1502 11093 21110 30183 40200 52008;
0101010160999992013010515004+78933+028900FM-12+002099999V0201501N003019999999N9999999N1-00531-00631101981ADDMA1999999101821MD1410001+9999REMSYN060AAXX  05151 01016 46/// /1503 11053 21063 30182 40198 54003;
0101010160999992013010516004+78933+028900FM-12+002099999V0201901N005019999999N9999999N1-00341-00601101971ADDMA1999999101811MD1510011+9999REMSYN060AAXX  05161 01016 46/// /1905 11034 21060 30181 40197 55001;
0101010160999992013010517004+78933+028900FM-12+002099999V0201901N006019999999N9999999N1-00331-00581101941ADDMA1999999101781MD1710051+9999REMSYN060AAXX  05171 01016 46/// /1906 11033 21058 30178 40194 57005;
0130010160999992013010518004+78933+028900FM-12+002099999V0201801N007019999999N9999999N1-00331-00561101921ADDKA1120M-00331MA1999999101761MD1710061+9999REMSYN076AAXX  05181 01016 46/// /1807 11033 21056 30176 40192 57006 333 11033 91107;
0101010160999992013010519004+78933+028900FM-12+002099999V0201801N007019999999N9999999N1-00321-00551101921ADDMA1999999101761MD1810051+9999REMSYN060AAXX  05191 01016 46/// /1807 11032 21055 30176 40192 58005;
0101010160999992013010520004+78933+028900FM-12+002099999V0201801N008019999999N9999999N1-00321-00541101881ADDMA1999999101721MD1710061+9999REMSYN060AAXX  05201 01016 46/// /1808 11032 21054 30172 40188 57006;
0101010160999992013010521004+78933+028900FM-12+002099999V0201801N009019999999N9999999N1-00321-00581101821ADDMA1999999101661MD1610101+9999REMSYN060AAXX  05211 01016 46/// /1809 11032 21058 30166 40182 56010;
0101010160999992013010522004+78933+028900FM-12+002099999V0201801N009019999999N9999999N1-00321-00611101781ADDMA1999999101621MD1710141+9999REMSYN060AAXX  05221 01016 46/// /1809 11032 21061 30162 40178 57014;
0101010160999992013010523004+78933+028900FM-12+002099999V0201701N010019999999N9999999N1-00321-00581101701ADDMA1999999101541MD1710181+9999REMSYN060AAXX  05231 01016 46/// /1710 11032 21058 30154 40170 57018;
0111010160999992013010600004+78933+028900FM-12+002099999V0201701N011019999999N9999999N1-00321-00581101621ADDMA1999999101461MD1610191+9999REMSYN070AAXX  06001 01016 46/// /1711 11032 21058 30146 40162 56019 333 91113;
0101010160999992013010601004+78933+028900FM-12+002099999V0201701N012019999999N9999999N1-00311-00571101541ADDMA1999999101381MD1710251+9999REMSYN060AAXX  06011 01016 46/// /1712 11031 21057 30138 40154 57025;
0101010160999992013010602004+78933+028900FM-12+002099999V0201601N012019999999N9999999N1-00291-00551101471ADDMA1999999101311MD1710241+9999REMSYN060AAXX  06021 01016 46/// /1612 11029 21055 30131 40147 57024;
0101010160999992013010603004+78933+028900FM-12+002099999V0201601N013019999999N9999999N1-00271-00491101371ADDMA1999999101211MD1710261+9999REMSYN060AAXX  06031 01016 46/// /1613 11027 21049 30121 40137 57026;
0101010160999992013010604004+78933+028900FM-12+002099999V0201601N013019999999N9999999N1-00241-00461101241ADDMA1999999101081MD1610301+9999REMSYN060AAXX  06041 01016 46/// /1613 11024 21046 30108 40124 56030;
0101010160999992013010605004+78933+028900FM-12+002099999V0201601N015019999999N9999999N1-00231-00421101101ADDMA1999999100941MD1610371+9999REMSYN060AAXX  06051 01016 46/// /1615 11023 21042 30094 40110 56037;
0130010160999992013010606004+78933+028900FM-12+002099999V0201601N015019999999N9999999N1-00211-00421101011ADDKA1999N-00331MA1999999100851MD1810361+9999REMSYN076AAXX  06061 01016 46/// /1615 11021 21042 30085 40101 58036 333 21033 91119;
0101010160999992013010607004+78933+028900FM-12+002099999V0201601N014019999999N9999999N1-00161-00331100961ADDMA1999999100801MD1810281+9999REMSYN060AAXX  06071 01016 46/// /1614 11016 21033 30080 40096 58028;
0101010160999992013010608004+78933+028900FM-12+002099999V0201601N016019999999N9999999N1-00141-00311100831ADDMA1999999100671MD1610271+9999REMSYN060AAXX  06081 01016 46/// /1616 11014 21031 30067 40083 56027;
0101010160999992013010609004+78933+028900FM-12+002099999V0201601N014019999999N9999999N1-00161-00251100731ADDMA1999999100581MD1610271+9999REMSYN060AAXX  06091 01016 46/// /1614 11016 21025 30058 40073 56027;
0101010160999992013010610004+78933+028900FM-12+002099999V0201601N015019999999N9999999N1-00161-00221100631ADDMA1999999100471MD1710331+9999REMSYN060AAXX  06101 01016 46/// /1615 11016 21022 30047 40063 57033;
0101010160999992013010611004+78933+028900FM-12+002099999V0201601N016019999999N9999999N1-00151-00201100541ADDMA1999999100391MD1710291+9999REMSYN060AAXX  06111 01016 46/// /1616 11015 21020 30039 40054 57029;
0111010160999992013010612004+78933+028900FM-12+002099999V0201601N016019999999N9999999N1-00121-00161100421ADDMA1999999100271MD1710311+9999REMSYN070AAXX  06121 01016 46/// /1616 11012 21016 30027 40042 57031 333 91119;
0101010160999992013010613004+78933+028900FM-12+002099999V0201601N016019999999N9999999N1-00091-00131100311ADDMA1999999100151MD1710321+9999REMSYN060AAXX  06131 01016 46/// /1616 11009 21013 30015 40031 57032;
0101010160999992013010614004+78933+028900FM-12+002099999V0201601N017019999999N9999999N1-00081-00121100211ADDMA1999999100051MD1710331+9999REMSYN060AAXX  06141 01016 46/// /1617 11008 21012 30005 40021 57033;
0101010160999992013010615004+78933+028900FM-12+002099999V0201601N017019999999N9999999N1-00071-00111100131ADDMA1999999099971MD1810291+9999REMSYN060AAXX  06151 01016 46/// /1617 11007 21011 39997 40013 58029;
0101010160999992013010616004+78933+028900FM-12+002099999V0201701N018019999999N9999999N1-00071-00111100031ADDMA1999999099881MD1710271+9999REMSYN060AAXX  06161 01016 46/// /1718 11007 21011 39988 40003 57027;
0101010160999992013010617004+78933+028900FM-12+002099999V0201701N017019999999N9999999N1-00071-00111099951ADDMA1999999099801MD1710261+9999REMSYN060AAXX  06171 01016 46/// /1717 11007 21011 39980 49995 57026;
0130010160999992013010618004+78933+028900FM-12+002099999V0201701N017019999999N9999999N1-00071-00111099871ADDKA1120M-00071MA1999999099711MD1710261+9999REMSYN076AAXX  06181 01016 46/// /1717 11007 21011 39971 49987 57026 333 11007 91121;
0101010160999992013010619004+78933+028900FM-12+002099999V0201701N017019999999N9999999N1-00071-00091099791ADDMA1999999099631MD1710251+9999REMSYN060AAXX  06191 01016 46/// /1717 11007 21009 39963 49979 57025;
0101010160999992013010620004+78933+028900FM-12+002099999V0201701N016019999999N9999999N1-00071-00091099731ADDMA1999999099571MD1710221+9999REMSYN060AAXX  06201 01016 46/// /1716 11007 21009 39957 49973 57022;
0101010160999992013010621004+78933+028900FM-12+002099999V0201701N016019999999N9999999N1-00061-00081099671ADDMA1999999099521MD1710191+9999REMSYN060AAXX  06211 01016 46/// /1716 11006 21008 39952 49967 57019;
0101010160999992013010622004+78933+028900FM-12+002099999V0201801N016019999999N9999999N1-00061-00081099621ADDMA1999999099471MD1710171+9999REMSYN060AAXX  06221 01016 46/// /1816 11006 21008 39947 49962 57017;
0101010160999992013010623004+78933+028900FM-12+002099999V0201701N016019999999N9999999N1-00061-00081099541ADDMA1999999099391MD1710191+9999REMSYN060AAXX  06231 01016 46/// /1716 11006 21008 39939 49954 57019;
0111010160999992013010700004+78933+028900FM-12+002099999V0201701N015019999999N9999999N1-00061-00081099491ADDMA1999999099331MD1710191+9999REMSYN070AAXX  07001 01016 46/// /1715 11006 21008 39933 49949 57019 333 91119;
0101010160999992013010701004+78933+028900FM-12+002099999V0201701N015019999999N9999999N1-00061-00081099411ADDMA1999999099251MD1710211+9999REMSYN060AAXX  07011 01016 46/// /1715 11006 21008 39925 49941 57021;
0101010160999992013010702004+78933+028900FM-12+002099999V0201701N016019999999N9999999N1-00061-00081099341ADDMA1999999099181MD1710201+9999REMSYN060AAXX  07021 01016 46/// /1716 11006 21008 39918 49934 57020;
0101010160999992013010703004+78933+028900FM-12+002099999V0201701N015019999999N9999999N1-00061-00081099271ADDMA1999999099121MD1710211+9999REMSYN060AAXX  07031 01016 46/// /1715 11006 21008 39912 49927 57021;
0101010160999992013010704004+78933+028900FM-12+002099999V0201801N013019999999N9999999N1-00071-00081099231ADDMA1999999099081MD1810181+9999REMSYN060AAXX  07041 01016 46/// /1813 11007 21008 39908 49923 58018;
0101010160999992013010705004+78933+028900FM-12+002099999V0201801N012019999999N9999999N1-00081-00091099171ADDMA1999999099021MD1710171+9999REMSYN060AAXX  07051 01016 46/// /1812 11008 21009 39902 49917 57017;
0130010160999992013010706004+78933+028900FM-12+002099999V0201901N009019999999N9999999N1-00101-00111099161ADDKA1999N-00101MA1999999099011MD1810111+9999REMSYN076AAXX  07061 01016 46/// /1909 11010 21011 39901 49916 58011 333 21010 91118;
0101010160999992013010707004+78933+028900FM-12+002099999V0202201N005019999999N9999999N1-00101-00111099221ADDMA1999999099061MD1010021+9999REMSYN060AAXX  07071 01016 46/// /2205 11010 21011 39906 49922 50002;
0101010160999992013010708004+78933+028900FM-12+002099999V0202201N006019999999N9999999N1-00121-00131099261ADDMA1999999099111MD1110091+9999REMSYN060AAXX  07081 01016 46/// /2206 11012 21013 39911 49926 51009;
0101010160999992013010709004+78933+028900FM-12+002099999V0202301N008019999999N9999999N1-00161-00221099331ADDMA1999999099171MD1210161+9999REMSYN060AAXX  07091 01016 46/// /2308 11016 21022 39917 49933 52016;
0101010160999992013010710004+78933+028900FM-12+002099999V0202201N008019999999N9999999N1-00191-00281099391ADDMA1999999099241MD1210181+9999REMSYN060AAXX  07101 01016 46/// /2208 11019 21028 39924 49939 52018;
0101010160999992013010711004+78933+028900FM-12+002099999V0202301N008019999999N9999999N1-00221-00321099451ADDMA1999999099291MD1210191+9999REMSYN060AAXX  07111 01016 46/// /2308 11022 21032 39929 49945 52019;
0111010160999992013010712004+78933+028900FM-12+002099999V0202201N008019999999N9999999N1-00261-00351099481ADDMA1999999099321MD1310151+9999REMSYN070AAXX  07121 01016 46/// /2208 11026 21035 39932 49948 53015 333 91110;
0101010160999992013010713004+78933+028900FM-12+002099999V0202301N006019999999N9999999N1-00271-00361099511ADDMA1999999099351MD1210111+9999REMSYN060AAXX  07131 01016 46/// /2306 11027 21036 39935 49951 52011;
0101010160999992013010714004+78933+028900FM-12+002099999V0202101N009019999999N9999999N1-00221-00331099491ADDMA1999999099331MD1310041+9999REMSYN060AAXX  07141 01016 46/// /2109 11022 21033 39933 49949 53004;
0101010160999992013010715004+78933+028900FM-12+002099999V0202201N005019999999N9999999N1-00281-00351099511ADDMA1999999099351MD1410001+9999REMSYN060AAXX  07151 01016 46/// /2205 11028 21035 39935 49951 54003;
0101010160999992013010716004+78933+028900FM-12+002099999V0202101N007019999999N9999999N1-00251-00321099501ADDMA1999999099341MD1410001+9999REMSYN060AAXX  07161 01016 46/// /2107 11025 21032 39934 49950 54001;
0101010160999992013010717004+78933+028900FM-12+002099999V0202101N006019999999N9999999N1-00251-00311099491ADDMA1999999099331MD1410001+9999REMSYN060AAXX  07171 01016 46/// /2106 11025 21031 39933 49949 54001;
0130010160999992013010718004+78933+028900FM-12+002099999V0202101N006019999999N9999999N1-00261-00311099491ADDKA1120M-00091MA1999999099331MD1410001+9999REMSYN076AAXX  07181 01016 46/// /2106 11026 21031 39933 49949 54002 333 11009 91110;
0101010160999992013010719004+78933+028900FM-12+002099999V0202101N006019999999N9999999N1-00261-00311099481ADDMA1999999099321MD1410001+9999REMSYN060AAXX  07191 01016 46/// /2106 11026 21031 39932 49948 54002;
0101010160999992013010720004+78933+028900FM-12+002099999V0202201N005019999999N9999999N1-00271-00331099501ADDMA1999999099341MD1410001+9999REMSYN060AAXX  07201 01016 46/// /2205 11027 21033 39934 49950 54001;
0101010160999992013010721004+78933+028900FM-12+002099999V0202401N005019999999N9999999N1-00251-00321099511ADDMA1999999099361MD1410001+9999REMSYN060AAXX  07211 01016 46/// /2405 11025 21032 39936 49951 54003;
0101010160999992013010722004+78933+028900FM-12+002099999V0202601N006019999999N9999999N1-00331-00511099551ADDMA1999999099391MD1210071+9999REMSYN060AAXX  07221 01016 46/// /2606 11033 21051 39939 49955 52007;
0101010160999992013010723004+78933+028900FM-12+002099999V0202501N007019999999N9999999N1-00391-00621099581ADDMA1999999099421MD1210081+9999REMSYN060AAXX  07231 01016 46/// /2507 11039 21062 39942 49958 52008;
0111010160999992013010800004+78933+028900FM-12+002099999V0202501N008019999999N9999999N1-00491-00721099611ADDMA1999999099451MD1210101+9999REMSYN070AAXX  08001 01016 46/// /2508 11049 21072 39945 49961 52010 333 91111;
0101010160999992013010801004+78933+028900FM-12+002099999V0202401N006019999999N9999999N1-00571-00801099651ADDMA1999999099491MD1210101+9999REMSYN060AAXX  08011 01016 46/// /2406 11057 21080 39949 49965 52010;
0101010160999992013010802004+78933+028900FM-12+002099999V0202401N006019999999N9999999N1-00591-00801099661ADDMA1999999099501MD1210081+9999REMSYN060AAXX  08021 01016 46/// /2406 11059 21080 39950 49966 52008;
0101010160999992013010803004+78933+028900FM-12+002099999V0202401N008019999999N9999999N1-00451-00591099651ADDMA1999999099491MD1310041+9999REMSYN060AAXX  08031 01016 46/// /2408 11045 21059 39949 49965 53004;
0101010160999992013010804004+78933+028900FM-12+002099999V0202401N006019999999N9999999N1-00471-00531099671ADDMA1999999099511MD1410001+9999REMSYN060AAXX  08041 01016 46/// /2406 11047 21053 39951 49967 54002;
0101010160999992013010805004+78933+028900FM-12+002099999V0202401N005019999999N9999999N1-00441-00501099701ADDMA1999999099541MD1210041+9999REMSYN060AAXX  08051 01016 46/// /2405 11044 21050 39954 49970 52004;
0130010160999992013010806004+78933+028900FM-12+002099999V0202301N001019999999N9999999N1-00471-00531099741ADDKA1999N-00601MA1999999099591MD1210091+9999REMSYN076AAXX  08061 01016 46/// /2301 11047 21053 39959 49974 52009 333 21060 91112;
0101010160999992013010807004+78933+028900FM-12+002099999V0203601N004019999999N9999999N1-00491-00591099831ADDMA1999999099671MD1110151+9999REMSYN060AAXX  08071 01016 46/// /3604 11049 21059 39967 49983 51015;
0101010160999992013010808004+78933+028900FM-12+002099999V0202801N003019999999N9999999N1-00431-00531099901ADDMA1999999099751MD1210211+9999REMSYN060AAXX  08081 01016 46/// /2803 11043 21053 39975 49990 52021;
0101010160999992013010809004+78933+028900FM-12+002099999V0202801N004019999999N9999999N1-00411-00471099971ADDMA1999999099811MD1210231+9999REMSYN060AAXX  08091 01016 46/// /2804 11041 21047 39981 49997 52023;
0101010160999992013010810004+78933+028900FM-12+002099999V0202801N004019999999N9999999N1-00411-00461100031ADDMA1999999099871MD1210201+9999REMSYN060AAXX  08101 01016 46/// /2804 11041 21046 39987 40003 52020;
0101010160999992013010811004+78933+028900FM-12+002099999V0202701N003019999999N9999999N1-00481-00541100081ADDMA1999999099921MD1210181+9999REMSYN060AAXX  08111 01016 46/// /2703 11048 21054 39992 40008 52018;
0111010160999992013010812004+78933+028900FM-12+002099999V0202601N002019999999N9999999N1-00571-00651100141ADDMA1999999099981MD1210171+9999REMSYN070AAXX  08121 01016 46/// /2602 11057 21065 39998 40014 52017 333 91105;
0101010160999992013010813004+78933+028900FM-12+002099999V0202801N002019999999N9999999N1-00611-00681100161ADDMA1999999100001MD1210131+9999REMSYN060AAXX  08131 01016 46/// /2802 11061 21068 30000 40016 52013;
0101010160999992013010814004+78933+028900FM-12+002099999V0209999C000019999999N9999999N1-00651-00711100201ADDMA1999999100041MD1210121+9999REMSYN060AAXX  08141 01016 46/// /0000 11065 21071 30004 40020 52012;
0101010160999992013010815004+78933+028900FM-12+002099999V0203001N001019999999N9999999N1-00721-00781100241ADDMA1999999100081MD1210101+9999REMSYN060AAXX  08151 01016 46/// /3001 11072 21078 30008 40024 52010;
0101010160999992013010816004+78933+028900FM-12+002099999V0203601N004019999999N9999999N1-00491-00541100291ADDMA1999999100141MD1210131+9999REMSYN060AAXX  08161 01016 46/// /3604 11049 21054 30014 40029 52013;
0101010160999992013010817004+78933+028900FM-12+002099999V0200301N005019999999N9999999N1-00421-00481100351ADDMA1999999100191MD1210141+9999REMSYN060AAXX  08171 01016 46/// /0305 11042 21048 30019 40035 52014;
0130010160999992013010818004+78933+028900FM-12+002099999V0200201N008019999999N9999999N1-00411-00531100381ADDKA1120M-00381MA1999999100221MD1210141+9999REMSYN076AAXX  08181 01016 46/// /0208 11041 21053 30022 40038 52014 333 11038 91110;
0101010160999992013010819004+78933+028900FM-12+002099999V0200201N010019999999N9999999N1-00481-00661100461ADDMA1999999100301MD1210161+9999REMSYN060AAXX  08191 01016 46/// /0210 11048 21066 30030 40046 52016;
0101010160999992013010821004+78933+028900FM-12+002099999V0200101N009019999999N9999999N1-00531-00731100621ADDMA1999999100461MD1210241+9999REMSYN060AAXX  08211 01016 46/// /0109 11053 21073 30046 40062 52024;
0101010160999992013010823004+78933+028900FM-12+002099999V0200101N009019999999N9999999N1-00581-00821100741ADDMA1999999100581MD1310201+9999REMSYN060AAXX  08231 01016 46/// /0109 11058 21082 30058 40074 53020;
0111010160999992013010900004+78933+028900FM-12+002099999V0200101N008019999999N9999999N1-00541-00761100791ADDMA1999999100631MD1210171+9999REMSYN070AAXX  09001 01016 46/// /0108 11054 21076 30063 40079 52017 333 91112;
0101010160999992013010901004+78933+028900FM-12+002099999V0200101N007019999999N9999999N1-00481-00701100861ADDMA1999999100701MD1210161+9999REMSYN060AAXX  09011 01016 46/// /0107 11048 21070 30070 40086 52016;
0101010160999992013010902004+78933+028900FM-12+002099999V0203601N007019999999N9999999N1-00481-00711100911ADDMA1999999100751MD1210171+9999REMSYN060AAXX  09021 01016 46/// /3607 11048 21071 30075 40091 52017;
0101010160999992013010903004+78933+028900FM-12+002099999V0203601N007019999999N9999999N1-00471-00701100971ADDMA1999999100811MD1210181+9999REMSYN060AAXX  09031 01016 46/// /3607 11047 21070 30081 40097 52018;
0101010160999992013010904004+78933+028900FM-12+002099999V0203601N007019999999N9999999N1-00471-00711101001ADDMA1999999100841MD1310141+9999REMSYN060AAXX  09041 01016 46/// /3607 11047 21071 30084 40100 53014;
0101010160999992013010905004+78933+028900FM-12+002099999V0203601N006019999999N9999999N1-00481-00701101031ADDMA1999999100871MD1210121+9999REMSYN060AAXX  09051 01016 46/// /3606 11048 21070 30087 40103 52012;
0130010160999992013010906004+78933+028900FM-12+002099999V0203601N007019999999N9999999N1-00491-00731101071ADDKA1999N-00591MA1999999100911MD1210101+9999REMSYN076AAXX  09061 01016 46/// /3607 11049 21073 30091 40107 52010 333 21059 91109;
0101010160999992013010907004+78933+028900FM-12+002099999V0203601N007019999999N9999999N1-00531-00771101161ADDMA1999999101001MD1110161+9999REMSYN060AAXX  09071 01016 46/// /3607 11053 21077 30100 40116 51016;
0101010160999992013010908004+78933+028900FM-12+002099999V0203401N005019999999N9999999N1-00561-00881101211ADDMA1999999101051MD1210181+9999REMSYN060AAXX  09081 01016 46/// /3405 11056 21088 30105 40121 52018;
0101010160999992013010909004+78933+028900FM-12+002099999V0203601N003019999999N9999999N1-00581-00931101231ADDMA1999999101071MD1310161+9999REMSYN060AAXX  09091 01016 46/// /3603 11058 21093 30107 40123 53016;
0101010160999992013010910004+78933+028900FM-12+002099999V0203301N003019999999N9999999N1-00591-00921101281ADDMA1999999101121MD1210121+9999REMSYN060AAXX  09101 01016 46/// /3303 11059 21092 30112 40128 52012;
0101010160999992013010911004+78933+028900FM-12+002099999V0203301N003019999999N9999999N1-00581-00901101271ADDMA1999999101111MD1310061+9999REMSYN060AAXX  09111 01016 46/// /3303 11058 21090 30111 40127 53006;
0111010160999992013010912004+78933+028900FM-12+002099999V0203101N003019999999N9999999N1-00631-00931101291ADDMA1999999101131MD1310061+9999REMSYN070AAXX  09121 01016 46/// /3103 11063 21093 30113 40129 53006 333 91109;
0101010160999992013010913004+78933+028900FM-12+002099999V0203001N004019999999N9999999N1-00631-00931101301ADDMA1999999101141MD1410001+9999REMSYN060AAXX  09131 01016 46/// /3004 11063 21093 30114 40130 54002;
0101010160999992013010914004+78933+028900FM-12+002099999V0202901N004019999999N9999999N1-00641-00981101301ADDMA1999999101141MD1410001+9999REMSYN060AAXX  09141 01016 46/// /2904 11064 21098 30114 40130 54003;
0101010160999992013010915004+78933+028900FM-12+002099999V0202601N007019999999N9999999N1-00631-00971101301ADDMA1999999101141MD1410001+9999REMSYN060AAXX  09151 01016 46/// /2607 11063 21097 30114 40130 54001;
0101010160999992013010916004+78933+028900FM-12+002099999V0202701N004019999999N9999999N1-00641-01031101281ADDMA1999999101121MD1410001+9999REMSYN060AAXX  09161 01016 46/// /2704 11064 21103 30112 40128 54001;
0101010160999992013010917004+78933+028900FM-12+002099999V0202301N004019999999N9999999N1-00641-01061101251ADDMA1999999101081MD1610051+9999REMSYN060AAXX  09171 01016 46/// /2304 11064 21106 30108 40125 56005;
0130010160999992013010918004+78933+028900FM-12+002099999V0202801N002019999999N9999999N1-00701-01121101211ADDKA1120M-00491MA1999999101051MD1710091+9999REMSYN076AAXX  09181 01016 46/// /2802 11070 21112 30105 40121 57009 333 11049 91108;
0101010160999992013010919004+78933+028900FM-12+002099999V0202501N001019999999N9999999N1-00661-01081101181ADDMA1999999101021MD1710101+9999REMSYN060AAXX  09191 01016 46/// /2501 11066 21108 30102 40118 57010;
0101010160999992013010920004+78933+028900FM-12+002099999V0202201N001019999999N9999999N1-00631-01011101161ADDMA1999999101001MD1710091+9999REMSYN060AAXX  09201 01016 46/// /2201 11063 21101 30100 40116 57009;
0101010160999992013010921004+78933+028900FM-12+002099999V0202101N002019999999N9999999N1-00591-00921101091ADDMA1999999100931MD1610121+9999REMSYN060AAXX  09211 01016 46/// /2102 11059 21092 30093 40109 56012;
0101010160999992013010922004+78933+028900FM-12+002099999V0202701N001019999999N9999999N1-00741-01021101081ADDMA1999999100921MD1710101+9999REMSYN060AAXX  09221 01016 46/// /2701 11074 21102 30092 40108 57010;
0101010160999992013010923004+78933+028900FM-12+002099999V0203201N001019999999N9999999N1-00771-01051101101ADDMA1999999100931MD1810061+9999REMSYN060AAXX  09231 01016 46/// /3201 11077 21105 30093 40110 58006;
0111010160999992013011000004+78933+028900FM-12+002099999V0202801N001019999999N9999999N1-00731-01031101061ADDMA1999999100901MD1710031+9999REMSYN070AAXX  10001 01016 46/// /2801 11073 21103 30090 40106 57003 333 91103;
0101010160999992013011001004+78933+028900FM-12+002099999V0203201N001019999999N9999999N1-00741-00971101061ADDMA1999999100901MD1410001+9999REMSYN060AAXX  10011 01016 46/// /3201 11074 21097 30090 40106 54002;
0101010160999992013011002004+78933+028900FM-12+002099999V0202201N001019999999N9999999N1-00701-00871101001ADDMA1999999100841MD1710101+9999REMSYN060AAXX  10021 01016 46/// /2201 11070 21087 30084 40100 57010;
0101010160999992013011003004+78933+028900FM-12+002099999V0200801N001019999999N9999999N1-00791-00901101051ADDMA1999999100881MD1010011+9999REMSYN060AAXX  10031 01016 46/// /0801 11079 21090 30088 40105 50001;
0101010160999992013011004004+78933+028900FM-12+002099999V0202001N003019999999N9999999N1-00471-00611101001ADDMA1999999100841MD1710061+9999REMSYN060AAXX  10041 01016 46/// /2003 11047 21061 30084 40100 57006;
0101010160999992013011005004+78933+028900FM-12+002099999V0201901N003019999999N9999999N1-00441-00581100961ADDMA1999999100801MD1510041+9999REMSYN060AAXX  10051 01016 46/// /1903 11044 21058 30080 40096 55004;
0130010160999992013011006004+78933+028900FM-12+002099999V0202101N003019999999N9999999N1-00411-00511100941ADDKA1999N-01081MA1999999100781MD1710111+9999REMSYN076AAXX  10061 01016 46/// /2103 11041 21051 30078 40094 57011 333 21108 91104;
0101010160999992013011007004+78933+028900FM-12+002099999V0202301N001019999999N9999999N1-00541-00621100871ADDMA1999999100711MD1710131+9999REMSYN060AAXX  10071 01016 46/// /2301 11054 21062 30071 40087 57013;
0101010160999992013011008004+78933+028900FM-12+002099999V0202201N003019999999N9999999N1-00391-00431100801ADDMA1999999100641MD1610161+9999REMSYN060AAXX  10081 01016 46/// /2203 11039 21043 30064 40080 56016;
0101010160999992013011009004+78933+028900FM-12+002099999V0202201N003019999999N9999999N1-00401-00441100701ADDMA1999999100541MD1710231+9999REMSYN060AAXX  10091 01016 46/// /2203 11040 21044 30054 40070 57023;
0101010160999992013011010004+78933+028900FM-12+002099999V0202301N002019999999N9999999N1-00461-00521100721ADDMA1999999100561MD1810151+9999REMSYN060AAXX  10101 01016 46/// /2302 11046 21052 30056 40072 58015;
0101010160999992013011011004+78933+028900FM-12+002099999V0202101N003019999999N9999999N1-00401-00471100591ADDMA1999999100431MD1710201+9999REMSYN060AAXX  10111 01016 46/// /2103 11040 21047 30043 40059 57020;
0111010160999992013011012004+78933+028900FM-12+002099999V0201901N002019999999N9999999N1-00361-00431100481ADDMA1999999100321MD1610221+9999REMSYN070AAXX  10121 01016 46/// /1902 11036 21043 30032 40048 56022 333 91105;
0101010160999992013011013004+78933+028900FM-12+002099999V0202301N003019999999N9999999N1-00321-00421100381ADDMA1999999100221MD1710341+9999REMSYN060AAXX  10131 01016 46/// /2303 11032 21042 30022 40038 57034;
0101010160999992013011014004+78933+028900FM-12+002099999V0202001N001019999999N9999999N1-00391-00461100311ADDMA1999999100151MD1810281+9999REMSYN060AAXX  10141 01016 46/// /2001 11039 21046 30015 40031 58028;
0101010160999992013011015004+78933+028900FM-12+002099999V0202301N001019999999N9999999N1-00331-00421100221ADDMA1999999100061MD1710261+9999REMSYN060AAXX  10151 01016 46/// /2301 11033 21042 30006 40022 57026;
0101010160999992013011016004+78933+028900FM-12+002099999V0202501N002019999999N9999999N1-00331-00401100181ADDMA1999999100031MD1710191+9999REMSYN060AAXX  10161 01016 46/// /2502 11033 21040 30003 40018 57019;
0101010160999992013011017004+78933+028900FM-12+002099999V0202601N003019999999N9999999N1-00401-00511100071ADDMA1999999099911MD1710241+9999REMSYN060AAXX  10171 01016 46/// /2603 11040 21051 39991 40007 57024;
0130010160999992013011018004+78933+028900FM-12+002099999V0202401N004019999999N9999999N1-00281-00461099991ADDKA1120M-00271MA1999999099831MD1610231+9999REMSYN076AAXX  10181 01016 46/// /2404 11028 21046 39983 49999 56023 333 11027 91105;
0101010160999992013011019004+78933+028900FM-12+002099999V0202501N005019999999N9999999N1-00191-00331099891ADDMA1999999099741MD1710291+9999REMSYN060AAXX  10191 01016 46/// /2505 11019 21033 39974 49989 57029;
0101010160999992013011020004+78933+028900FM-12+002099999V0202501N004019999999N9999999N1-00191-00301099831ADDMA1999999099681MD1710241+9999REMSYN060AAXX  10201 01016 46/// /2504 11019 21030 39968 49983 57024;
0101010160999992013011021004+78933+028900FM-12+002099999V0202501N002019999999N9999999N1-00171-00271099701ADDMA1999999099551MD1610281+9999REMSYN060AAXX  10211 01016 46/// /2502 11017 21027 39955 49970 56028;
0101010160999992013011022004+78933+028900FM-12+002099999V0202801N006019999999N9999999N1-00101-00241099631ADDMA1999999099481MD1710261+9999REMSYN060AAXX  10221 01016 46/// /2806 11010 21024 39948 49963 57026;
0101010160999992013011023004+78933+028900FM-12+002099999V0202601N007019999999N9999999N1-00101-00141099511ADDMA1999999099361MD1710321+9999REMSYN060AAXX  10231 01016 46/// /2607 11010 21014 39936 49951 57032;
0111010160999992013011100004+78933+028900FM-12+002099999V0202501N006019999999N9999999N1-00111-00161099351ADDMA1999999099201MD1610351+9999REMSYN070AAXX  11001 01016 46/// /2506 11011 21016 39920 49935 56035 333 91109;
0101010160999992013011101004+78933+028900FM-12+002099999V0202301N006019999999N9999999N1-00161-00211099211ADDMA1999999099061MD1710421+9999REMSYN060AAXX  11011 01016 46/// /2306 11016 21021 39906 49921 57042;
0101010160999992013011102004+78933+028900FM-12+002099999V0202201N006019999999N9999999N1-00131-00191099081ADDMA1999999098921MD1710431+9999REMSYN060AAXX  11021 01016 46/// /2206 11013 21019 39892 49908 57043;
0101010160999992013011103004+78933+028900FM-12+002099999V0202401N008019999999N9999999N1-00121-00231098891ADDMA1999999098741MD1610461+9999REMSYN060AAXX  11031 01016 46/// /2408 11012 21023 39874 49889 56046;
0101010160999992013011104004+78933+028900FM-12+002099999V0202601N007019999999N9999999N1-00031-00171098781ADDMA1999999098631MD1710431+9999REMSYN060AAXX  11041 01016 46/// /2607 11003 21017 39863 49878 57043;
0101010160999992013011105004+78933+028900FM-12+002099999V0203001N009019999999N9999999N1-00251-00351098761ADDMA1999999098601MD1810321+9999REMSYN060AAXX  11051 01016 46/// /3009 11025 21035 39860 49876 58032;
0130010160999992013011106004+78933+028900FM-12+002099999V0203001N008019999999N9999999N1-00281-00391098761ADDKA1999N-00281MA1999999098611MD1810131+9999REMSYN076AAXX  11061 01016 46/// /3008 11028 21039 39861 49876 58013 333 21028 91114;
0101010160999992013011107004+78933+028900FM-12+002099999V0203001N008019999999N9999999N1-00371-00491098771ADDMA1999999098621MD1010011+9999REMSYN060AAXX  11071 01016 46/// /3008 11037 21049 39862 49877 50001;
0101010160999992013011108004+78933+028900FM-12+002099999V0203101N007019999999N9999999N1-00421-00541098861ADDMA1999999098701MD1110101+9999REMSYN060AAXX  11081 01016 46/// /3107 11042 21054 39870 49886 51010;
0101010160999992013011109004+78933+028900FM-12+002099999V0203601N008019999999N9999999N1-00251-00401098941ADDMA1999999098791MD1110181+9999REMSYN060AAXX  11091 01016 46/// /3608 11025 21040 39879 49894 51018;
0101010160999992013011110004+78933+028900FM-12+002099999V0203501N003019999999N9999999N1-00451-00631099041ADDMA1999999098891MD1210271+9999REMSYN060AAXX  11101 01016 46/// /3503 11045 21063 39889 49904 52027;
0101010160999992013011111004+78933+028900FM-12+002099999V0200101N009019999999N9999999N1-00531-00791099061ADDMA1999999098901MD1310201+9999REMSYN060AAXX  11111 01016 46/// /0109 11053 21079 39890 49906 53020;
0111010160999992013011112004+78933+028900FM-12+002099999V0203601N010019999999N9999999N1-00531-00821099181ADDMA1999999099021MD1210231+9999REMSYN070AAXX  11121 01016 46/// /3610 11053 21082 39902 49918 52023 333 91112;
0101010160999992013011113004+78933+028900FM-12+002099999V0200101N009019999999N9999999N1-00541-00831099211ADDMA1999999099051MD1210171+9999REMSYN060AAXX  11131 01016 46/// /0109 11054 21083 39905 49921 52017;
0101010160999992013011114004+78933+028900FM-12+002099999V0203301N010019999999N9999999N1-00611-00941099221ADDMA1999999099061MD1310161+9999REMSYN060AAXX  11141 01016 46/// /3310 11061 21094 39906 49922 53016;
0101010160999992013011115004+78933+028900FM-12+002099999V0203401N013019999999N9999999N1-00741-00991099261ADDMA1999999099101MD1210081+9999REMSYN060AAXX  11151 01016 46/// /3413 11074 21099 39910 49926 52008;
0101010160999992013011116004+78933+028900FM-12+002099999V0203301N011019999999N9999999N1-00811-01061099341ADDMA1999999099181MD1110131+9999REMSYN060AAXX  11161 01016 46/// /3311 11081 21106 39918 49934 51013;
0101010160999992013011117004+78933+028900FM-12+002099999V0203401N012019999999N9999999N1-00781-01121099351ADDMA1999999099191MD1310131+9999REMSYN060AAXX  11171 01016 46/// /3412 11078 21112 39919 49935 53013;
0130010160999992013011118004+78933+028900FM-12+002099999V0203401N011019999999N9999999N1-00731-01041099411ADDKA1120M-00251MA1999999099251MD1210151+9999REMSYN076AAXX  11181 01016 46/// /3411 11073 21104 39925 49941 52015 333 11025 91116;
0101010160999992013011119004+78933+028900FM-12+002099999V0203601N010019999999N9999999N1-00671-00911099491ADDMA1999999099331MD1110141+9999REMSYN060AAXX  11191 01016 46/// /3610 11067 21091 39933 49949 51014;
0101010160999992013011120004+78933+028900FM-12+002099999V0203601N010019999999N9999999N1-00651-00891099581ADDMA1999999099421MD1210231+9999REMSYN060AAXX  11201 01016 46/// /3610 11065 21089 39942 49958 52023;
0101010160999992013011121004+78933+028900FM-12+002099999V0200701N008019999999N9999999N1-00721-00841099731ADDMA1999999099571MD1110321+9999REMSYN060AAXX  11211 01016 46/// /0708 11072 21084 39957 49973 51032;
0101010160999992013011122004+78933+028900FM-12+002099999V0200601N009019999999N9999999N1-00771-00971099891ADDMA1999999099731MD1110401+9999REMSYN060AAXX  11221 01016 46/// /0609 11077 21097 39973 49989 51040;
0101010160999992013011123004+78933+028900FM-12+002099999V0200501N010019999999N9999999N1-00841-01061100061ADDMA1999999099901MD1210481+9999REMSYN060AAXX  11231 01016 46/// /0510 11084 21106 39990 40006 52048;
0111010160999992013011200004+78933+028900FM-12+002099999V0200401N011019999999N9999999N1-00911-01151100191ADDMA1999999100031MD1210451+9999REMSYN070AAXX  12001 01016 46/// /0411 11091 21115 30003 40019 52045 333 91115;
0101010160999992013011201004+78933+028900FM-12+002099999V0200201N009019999999N9999999N1-00941-01261100301ADDMA1999999100141MD1310411+9999REMSYN060AAXX  12011 01016 46/// /0209 11094 21126 30014 40030 53041;
0101010160999992013011202004+78933+028900FM-12+002099999V0200201N009019999999N9999999N1-00961-01311100401ADDMA1999999100241MD1210341+9999REMSYN060AAXX  12021 01016 46/// /0209 11096 21131 30024 40040 52034;
0101010160999992013011203004+78933+028900FM-12+002099999V0200101N010019999999N9999999N1-00931-01141100461ADDMA1999999100301MD1310271+9999REMSYN060AAXX  12031 01016 46/// /0110 11093 21114 30030 40046 53027;
0101010160999992013011204004+78933+028900FM-12+002099999V0200101N010019999999N9999999N1-00901-01271100511ADDMA1999999100341MD1310201+9999REMSYN060AAXX  12041 01016 46/// /0110 11090 21127 30034 40051 53020;
0101010160999992013011205004+78933+028900FM-12+002099999V0200101N011019999999N9999999N1-00871-01121100551ADDMA1999999100391MD1210151+9999REMSYN060AAXX  12051 01016 46/// /0111 11087 21112 30039 40055 52015;
0130010160999992013011206004+78933+028900FM-12+002099999V0200101N012019999999N9999999N1-00891-01061100621ADDKA1999N-00971MA1999999100461MD1210161+9999REMSYN076AAXX  12061 01016 46/// /0112 11089 21106 30046 40062 52016 333 21097 91115;
0101010160999992013011207004+78933+028900FM-12+002099999V0203601N012019999999N9999999N1-00871-01081100661ADDMA1999999100501MD1210151+9999REMSYN060AAXX  12071 01016 46/// /3612 11087 21108 30050 40066 52015;
0101010160999992013011208004+78933+028900FM-12+002099999V0200101N012019999999N9999999N1-00881-01051100711ADDMA1999999100551MD1210161+9999REMSYN060AAXX  12081 01016 46/// /0112 11088 21105 30055 40071 52016;
0101010160999992013011209004+78933+028900FM-12+002099999V0200101N014019999999N9999999N1-00901-01101100771ADDMA1999999100601MD1210141+9999REMSYN060AAXX  12091 01016 46/// /0114 11090 21110 30060 40077 52014;
0101010160999992013011210004+78933+028900FM-12+002099999V0203601N013019999999N9999999N1-00841-01091100811ADDMA1999999100651MD1210151+9999REMSYN060AAXX  12101 01016 46/// /3613 11084 21109 30065 40081 52015;
0101010160999992013011211004+78933+028900FM-12+002099999V0203601N014019999999N9999999N1-00871-01041100821ADDMA1999999100661MD1310121+9999REMSYN060AAXX  12111 01016 46/// /3614 11087 21104 30066 40082 53012;
0111010160999992013011212004+78933+028900FM-12+002099999V0203501N016019999999N9999999N1-00881-01051100841ADDMA1999999100681MD1210081+9999REMSYN070AAXX  12121 01016 46/// /3516 11088 21105 30068 40084 52008 333 91119;
0101010160999992013011213004+78933+028900FM-12+002099999V0203501N016019999999N9999999N1-00911-01121100861ADDMA1999999100701MD1210051+9999REMSYN060AAXX  12131 01016 46/// /3516 11091 21112 30070 40086 52005;
0101010160999992013011214004+78933+028900FM-12+002099999V0203501N016019999999N9999999N1-00911-01131100851ADDMA1999999100691MD1510031+9999REMSYN060AAXX  12141 01016 46/// /3516 11091 21113 30069 40085 55003;
0101010160999992013011215004+78933+028900FM-12+002099999V0203401N018019999999N9999999N1-00911-01151100851ADDMA1999999100691MD1410001+9999REMSYN060AAXX  12151 01016 46/// /3418 11091 21115 30069 40085 54001;
0101010160999992013011216004+78933+028900FM-12+002099999V0203501N018019999999N9999999N1-00921-01141100841ADDMA1999999100681MD1410001+9999REMSYN060AAXX  12161 01016 46/// /3518 11092 21114 30068 40084 54002;
0101010160999992013011217004+78933+028900FM-12+002099999V0203501N017019999999N9999999N1-00931-01151100871ADDMA1999999100701MD1410001+9999REMSYN060AAXX  12171 01016 46/// /3517 11093 21115 30070 40087 54002;
0130010160999992013011218004+78933+028900FM-12+002099999V0203501N017019999999N9999999N1-00931-01131100901ADDKA1120M-00831MA1999999100741MD1110051+9999REMSYN076AAXX  12181 01016 46/// /3517 11093 21113 30074 40090 51005 333 11083 91122;
0101010160999992013011219004+78933+028900FM-12+002099999V0203401N017019999999N9999999N1-00931-01141100911ADDMA1999999100751MD1210071+9999REMSYN060AAXX  12191 01016 46/// /3417 11093 21114 30075 40091 52007;
0101010160999992013011220004+78933+028900FM-12+002099999V0203401N018019999999N9999999N1-00921-01181100931ADDMA1999999100771MD1210061+9999REMSYN060AAXX  12201 01016 46/// /3418 11092 21118 30077 40093 52006;
0101010160999992013011221004+78933+028900FM-12+002099999V0203401N018019999999N9999999N1-00931-01181100941ADDMA1999999100781MD1210041+9999REMSYN060AAXX  12211 01016 46/// /3418 11093 21118 30078 40094 52004;
0101010160999992013011222004+78933+028900FM-12+002099999V0203501N018019999999N9999999N1-00961-01161100931ADDMA1999999100771MD1410001+9999REMSYN060AAXX  12221 01016 46/// /3518 11096 21116 30077 40093 54002;
0101010160999992013011223004+78933+028900FM-12+002099999V0203501N017019999999N9999999N1-01001-01161100971ADDMA1999999100801MD1210031+9999REMSYN060AAXX  12231 01016 46/// /3517 11100 21116 30080 40097 52003;
0111010160999992013011300004+78933+028900FM-12+002099999V0203601N016019999999N9999999N1-01001-01161100971ADDMA1999999100811MD1210031+9999REMSYN070AAXX  13001 01016 46/// /3616 11100 21116 30081 40097 52003 333 91122;
0101010160999992013011301004+78933+028900FM-12+002099999V0203601N016019999999N9999999N1-01041-01181100991ADDMA1999999100831MD1210061+9999REMSYN060AAXX  13011 01016 46/// /3616 11104 21118 30083 40099 52006;
0101010160999992013011302004+78933+028900FM-12+002099999V0203601N015019999999N9999999N1-01031-01191101011ADDMA1999999100841MD1210041+9999REMSYN060AAXX  13021 01016 46/// /3615 11103 21119 30084 40101 52004;
0101010160999992013011303004+78933+028900FM-12+002099999V0203501N016019999999N9999999N1-00991-01161100991ADDMA1999999100821MD1510011+9999REMSYN060AAXX  13031 01016 46/// /3516 11099 21116 30082 40099 55001;
0101010160999992013011304004+78933+028900FM-12+002099999V0203601N017019999999N9999999N1-01001-01221100981ADDMA1999999100821MD1410001+9999REMSYN060AAXX  13041 01016 46/// /3617 11100 21122 30082 40098 54001;
0101010160999992013011305004+78933+028900FM-12+002099999V0203601N016019999999N9999999N1-00941-01141101021ADDMA1999999100861MD1010011+9999REMSYN060AAXX  13051 01016 46/// /3616 11094 21114 30086 40102 50001;
0130010160999992013011306004+78933+028900FM-12+002099999V0203601N017019999999N9999999N1-00931-01131101021ADDKA1999N-01071MA1999999100861MD1210031+9999REMSYN076AAXX  13061 01016 46/// /3617 11093 21113 30086 40102 52003 333 21107 91121;
0101010160999992013011307004+78933+028900FM-12+002099999V0203601N016019999999N9999999N1-00921-01101101061ADDMA1999999100891MD1210081+9999REMSYN060AAXX  13071 01016 46/// /3616 11092 21110 30089 40106 52008;
0101010160999992013011308004+78933+028900FM-12+002099999V0203501N017019999999N9999999N1-00881-01151101091ADDMA1999999100931MD1110071+9999REMSYN060AAXX  13081 01016 46/// /3517 11088 21115 30093 40109 51007;
0101010160999992013011309004+78933+028900FM-12+002099999V0203501N016019999999N9999999N1-00861-01001101131ADDMA1999999100961MD1210111+9999REMSYN060AAXX  13091 01016 46/// /3516 11086 21100 30096 40113 52011;
0101010160999992013011310004+78933+028900FM-12+002099999V0203601N017019999999N9999999N1-00841-01001101141ADDMA1999999100981MD1210091+9999REMSYN060AAXX  13101 01016 46/// /3617 11084 21100 30098 40114 52009;
0101010160999992013011311004+78933+028900FM-12+002099999V0203601N017019999999N9999999N1-00841-00961101161ADDMA1999999101001MD1210071+9999REMSYN060AAXX  13111 01016 46/// /3617 11084 21096 30100 40116 52007;
0111010160999992013011312004+78933+028900FM-12+002099999V0203601N014019999999N9999999N1-00881-01151101211ADDMA1999999101041MD1210081+9999REMSYN070AAXX  13121 01016 46/// /3614 11088 21115 30104 40121 52008 333 91121;
0101010160999992013011313004+78933+028900FM-12+002099999V0200101N016019999999N9999999N1-00811-01011101201ADDMA1999999101031MD1210051+9999REMSYN060AAXX  13131 01016 46/// /0116 11081 21101 30103 40120 52005;
0101010160999992013011314004+78933+028900FM-12+002099999V0203601N015019999999N9999999N1-00811-00991101241ADDMA1999999101081MD1210081+9999REMSYN060AAXX  13141 01016 46/// /3615 11081 21099 30108 40124 52008;
0101010160999992013011315004+78933+028900FM-12+002099999V0200101N016019999999N9999999N1-00801-00951101241ADDMA1999999101081MD1210041+9999REMSYN060AAXX  13151 01016 46/// /0116 11080 21095 30108 40124 52004;
0101010160999992013011316004+78933+028900FM-12+002099999V0200101N015019999999N9999999N1-00791-00951101291ADDMA1999999101121MD1210091+9999REMSYN060AAXX  13161 01016 46/// /0115 11079 21095 30112 40129 52009;
0101010160999992013011317004+78933+028900FM-12+002099999V0200201N015019999999N9999999N1-00771-00891101341ADDMA1999999101171MD1110091+9999REMSYN060AAXX  13171 01016 46/// /0215 11077 21089 30117 40134 51009;
0130010160999992013011318004+78933+028900FM-12+002099999V0200301N014019999999N9999999N1-00791-00921101351ADDKA1120M-00731MA1999999101191MD1210111+9999REMSYN076AAXX  13181 01016 46/// /0314 11079 21092 30119 40135 52011 333 11073 91120;
0101010160999992013011319004+78933+028900FM-12+002099999V0200301N014019999999N9999999N1-00811-01091101371ADDMA1999999101201MD1310081+9999REMSYN060AAXX  13191 01016 46/// /0314 11081 21109 30120 40137 53008;
0101010160999992013011320004+78933+028900FM-12+002099999V0200301N013019999999N9999999N1-00801-01071101431ADDMA1999999101271MD1110091+9999REMSYN060AAXX  13201 01016 46/// /0313 11080 21107 30127 40143 51009;
0101010160999992013011321004+78933+028900FM-12+002099999V0200401N012019999999N9999999N1-00811-01081101501ADDMA1999999101331MD1110141+9999REMSYN060AAXX  13211 01016 46/// /0412 11081 21108 30133 40150 51014;
0101010160999992013011322004+78933+028900FM-12+002099999V0200401N012019999999N9999999N1-00851-01141101511ADDMA1999999101351MD1310151+9999REMSYN060AAXX  13221 01016 46/// /0412 11085 21114 30135 40151 53015;
0101010160999992013011323004+78933+028900FM-12+002099999V0200301N013019999999N9999999N1-00851-01161101551ADDMA1999999101391MD1210131+9999REMSYN060AAXX  13231 01016 46/// /0313 11085 21116 30139 40155 52013;
0111010160999992013011400004+78933+028900FM-12+002099999V0200301N013019999999N9999999N1-00841-01111101601ADDMA1999999101441MD1210101+9999REMSYN070AAXX  14001 01016 46/// /0313 11084 21111 30144 40160 52010 333 91117;
0101010160999992013011401004+78933+028900FM-12+002099999V0200401N011019999999N9999999N1-00881-01101101641ADDMA1999999101481MD1210131+9999REMSYN060AAXX  14011 01016 46/// /0411 11088 21110 30148 40164 52013;
0101010160999992013011402004+78933+028900FM-12+002099999V0200401N011019999999N9999999N1-00881-01091101661ADDMA1999999101501MD1210111+9999REMSYN060AAXX  14021 01016 46/// /0411 11088 21109 30150 40166 52011;
0101010160999992013011403004+78933+028900FM-12+002099999V0200401N010019999999N9999999N1-00911-01161101701ADDMA1999999101541MD1210111+9999REMSYN060AAXX  14031 01016 46/// /0410 11091 21116 30154 40170 52011;
0101010160999992013011404004+78933+028900FM-12+002099999V0200301N010019999999N9999999N1-00891-01211101741ADDMA1999999101571MD1210091+9999REMSYN060AAXX  14041 01016 46/// /0310 11089 21121 30157 40174 52009;
0101010160999992013011405004+78933+028900FM-12+002099999V0200501N010019999999N9999999N1-00871-01151101791ADDMA1999999101621MD1210121+9999REMSYN060AAXX  14051 01016 46/// /0510 11087 21115 30162 40179 52012;
0130010160999992013011406004+78933+028900FM-12+002099999V0200501N005019999999N9999999N1-00881-01121101841ADDKA1999N-00951MA1999999101671MD1210131+9999REMSYN076AAXX  14061 01016 46/// /0505 11088 21112 30167 40184 52013 333 21095 91115;
0101010160999992013011407004+78933+028900FM-12+002099999V0200701N005019999999N9999999N1-00881-01221101871ADDMA1999999101711MD1210141+9999REMSYN060AAXX  14071 01016 46/// /0705 11088 21122 30171 40187 52014;
0101010160999992013011408004+78933+028900FM-12+002099999V0200801N004019999999N9999999N1-00991-01341101941ADDMA1999999101781MD1210151+9999REMSYN060AAXX  14081 01016 46/// /0804 11099 21134 30178 40194 52015;
0101010160999992013011409004+78933+028900FM-12+002099999V0200601N006019999999N9999999N1-00911-01261102011ADDMA1999999101851MD1110171+9999REMSYN060AAXX  14091 01016 46/// /0606 11091 21126 30185 40201 51017;
0101010160999992013011410004+78933+028900FM-12+002099999V0200601N006019999999N9999999N1-00901-01241102051ADDMA1999999101891MD1210181+9999REMSYN060AAXX  14101 01016 46/// /0606 11090 21124 30189 40205 52018;
0101010160999992013011411004+78933+028900FM-12+002099999V0200901N003019999999N9999999N1-01001-01241102101ADDMA1999999101941MD1210161+9999REMSYN060AAXX  14111 01016 46/// /0903 11100 21124 30194 40210 52016;
0111010160999992013011412004+78933+028900FM-12+002099999V0200801N003019999999N9999999N1-00991-01281102131ADDMA1999999101961MD1210121+9999REMSYN070AAXX  14121 01016 46/// /0803 11099 21128 30196 40213 52012 333 91108;
0101010160999992013011413004+78933+028900FM-12+002099999V0200501N005019999999N9999999N1-00881-01301102151ADDMA1999999101981MD1210091+9999REMSYN060AAXX  14131 01016 46/// /0505 11088 21130 30198 40215 52009;
0101010160999992013011414004+78933+028900FM-12+002099999V0200601N003019999999N9999999N1-00971-01371102181ADDMA1999999102011MD1210081+9999REMSYN060AAXX  14141 01016 46/// /0603 11097 21137 30201 40218 52008;
0101010160999992013011415004+78933+028900FM-12+002099999V0200801N003019999999N9999999N1-00981-01301102201ADDMA1999999102031MD1210071+9999REMSYN060AAXX  14151 01016 46/// /0803 11098 21130 30203 40220 52007;
0101010160999992013011416004+78933+028900FM-12+002099999V0200901N003019999999N9999999N1-00961-01171102221ADDMA1999999102051MD1210071+9999REMSYN060AAXX  14161 01016 46/// /0903 11096 21117 30205 40222 52007;
0101010160999992013011417004+78933+028900FM-12+002099999V0200701N001019999999N9999999N1-00961-01131102241ADDMA1999999102071MD1210061+9999REMSYN060AAXX  14171 01016 46/// /0701 11096 21113 30207 40224 52006;
0130010160999992013011418004+78933+028900FM-12+002099999V0209999C000019999999N9999999N1-01041-01201102241ADDKA1120M-00861MA1999999102071MD1210041+9999REMSYN076AAXX  14181 01016 46/// /0000 11104 21120 30207 40224 52004 333 11086 91106;
0101010160999992013011419004+78933+028900FM-12+002099999V0201301N001019999999N9999999N1-00981-01181102231ADDMA1999999102061MD1410001+9999REMSYN060AAXX  14191 01016 46/// /1301 11098 21118 30206 40223 54001;
0101010160999992013011420004+78933+028900FM-12+002099999V0202901N003019999999N9999999N1-01031-01211102221ADDMA1999999102061MD1410001+9999REMSYN060AAXX  14201 01016 46/// /2903 11103 21121 30206 40222 54001;
0101010160999992013011421004+78933+028900FM-12+002099999V0202801N002019999999N9999999N1-00971-01101102221ADDMA1999999102061MD1410001+9999REMSYN060AAXX  14211 01016 46/// /2802 11097 21110 30206 40222 54001;
0101010160999992013011422004+78933+028900FM-12+002099999V0203001N002019999999N9999999N1-00961-01171102231ADDMA1999999102061MD1410001+9999REMSYN060AAXX  14221 01016 46/// /3002 11096 21117 30206 40223 54000;
0101010160999992013011423004+78933+028900FM-12+002099999V0201201N001019999999N9999999N1-00891-01141102231ADDMA1999999102061MD1410001+9999REMSYN060AAXX  14231 01016 46/// /1201 11089 21114 30206 40223 54000;
0111010160999992013011500004+78933+028900FM-12+002099999V0209999C000019999999N9999999N1-00891-01141102231ADDMA1999999102071MD1410001+9999REMSYN070AAXX  15001 01016 46/// /0000 11089 21114 30207 40223 54001 333 91104;
0101010160999992013011501004+78933+028900FM-12+002099999V0200101N001019999999N9999999N1-00981-01221102241ADDMA1999999102071MD1410001+9999REMSYN060AAXX  15011 01016 46/// /0101 11098 21122 30207 40224 54001;
0101010160999992013011502004+78933+028900FM-12+002099999V0201001N004019999999N9999999N1-01001-01211102241ADDMA1999999102081MD1410001+9999REMSYN060AAXX  15021 01016 46/// /1004 11100 21121 30208 40224 54001;
0101010160999992013011503004+78933+028900FM-12+002099999V0200901N002019999999N9999999N1-00951-01161102251ADDMA1999999102081MD1410001+9999REMSYN060AAXX  15031 01016 46/// /0902 11095 21116 30208 40225 54001;
0101010160999992013011504004+78933+028900FM-12+002099999V0209999C000019999999N9999999N1-01181-01401102211ADDMA1999999102051MD1510031+9999REMSYN060AAXX  15041 01016 46/// /0000 11118 21140 30205 40221 55003;
0101010160999992013011505004+78933+028900FM-12+002099999V0200701N002019999999N9999999N1-00991-01171102191ADDMA1999999102021MD1710051+9999REMSYN060AAXX  15051 01016 46/// /0702 11099 21117 30202 40219 57005;
0130010160999992013011506004+78933+028900FM-12+002099999V0203601N001019999999N9999999N1-01001-01161102181ADDKA1999N-01191MA1999999102021MD1710061+9999REMSYN076AAXX  15061 01016 46/// /3601 11100 21116 30202 40218 57006 333 21119 91104;
0101010160999992013011507004+78933+028900FM-12+002099999V0200901N001019999999N9999999N1-01111-01241102181ADDMA1999999102011MD1710031+9999REMSYN060AAXX  15071 01016 46/// /0901 11111 21124 30201 40218 57003;
0101010160999992013011508004+78933+028900FM-12+002099999V0200901N001019999999N9999999N1-01311-01441102191ADDMA1999999102021MD1410001+9999REMSYN060AAXX  15081 01016 46/// /0901 11131 21144 30202 40219 54000;
0101010160999992013011509004+78933+028900FM-12+002099999V0200301N001019999999N9999999N1-01131-01221102191ADDMA1999999102021MD1410001+9999REMSYN060AAXX  15091 01016 46/// /0301 11113 21122 30202 40219 54001;
0101010160999992013011510004+78933+028900FM-12+002099999V0200701N003019999999N9999999N1-01291-01431102201ADDMA1999999102031MD1410001+9999REMSYN060AAXX  15101 01016 46/// /0703 11129 21143 30203 40220 54001;
0101010160999992013011511004+78933+028900FM-12+002099999V0201001N004019999999N9999999N1-01141-01331102181ADDMA1999999102011MD1410001+9999REMSYN060AAXX  15111 01016 46/// /1004 11114 21133 30201 40218 54001;
0111010160999992013011512004+78933+028900FM-12+002099999V0200901N004019999999N9999999N1-01151-01361102161ADDMA1999999101991MD1610031+9999REMSYN070AAXX  15121 01016 46/// /0904 11115 21136 30199 40216 56003 333 91104;
0101010160999992013011513004+78933+028900FM-12+002099999V0200901N003019999999N9999999N1-00991-01251102131ADDMA1999999101971MD1710061+9999REMSYN060AAXX  15131 01016 46/// /0903 11099 21125 30197 40213 57006;
0101010160999992013011514004+78933+028900FM-12+002099999V0200901N003019999999N9999999N1-01001-01291102101ADDMA1999999101931MD1710081+9999REMSYN060AAXX  15141 01016 46/// /0903 11100 21129 30193 40210 57008;
0101010160999992013011515004+78933+028900FM-12+002099999V0200901N003019999999N9999999N1-01021-01331102081ADDMA1999999101911MD1710081+9999REMSYN060AAXX  15151 01016 46/// /0903 11102 21133 30191 40208 57008;
0101010160999992013011516004+78933+028900FM-12+002099999V0200901N005019999999N9999999N1-01041-01361102051ADDMA1999999101881MD1710081+9999REMSYN060AAXX  15161 01016 46/// /0905 11104 21136 30188 40205 57008;
0101010160999992013011517004+78933+028900FM-12+002099999V0201001N004019999999N9999999N1-01091-01381102021ADDMA1999999101851MD1710081+9999REMSYN060AAXX  15171 01016 46/// /1004 11109 21138 30185 40202 57008;
0130010160999992013011518004+78933+028900FM-12+002099999V0201201N004019999999N9999999N1-01171-01441101981ADDKA1120M-00961MA1999999101821MD1710091+9999REMSYN076AAXX  15181 01016 46/// /1204 11117 21144 30182 40198 57009 333 11096 91105;
0101010160999992013011519004+78933+028900FM-12+002099999V0201301N004019999999N9999999N1-01001-01261101951ADDMA1999999101781MD1710101+9999REMSYN060AAXX  15191 01016 46/// /1304 11100 21126 30178 40195 57010;
0101010160999992013011520004+78933+028900FM-12+002099999V0201201N005019999999N9999999N1-00961-01281101891ADDMA1999999101731MD1710121+9999REMSYN060AAXX  15201 01016 46/// /1205 11096 21128 30173 40189 57012;
0101010160999992013011521004+78933+028900FM-12+002099999V0201201N005019999999N9999999N1-01081-01381101831ADDMA1999999101661MD1610161+9999REMSYN060AAXX  15211 01016 46/// /1205 11108 21138 30166 40183 56016;
0101010160999992013011522004+78933+028900FM-12+002099999V0201201N005019999999N9999999N1-01231-01491101791ADDMA1999999101631MD1710151+9999REMSYN060AAXX  15221 01016 46/// /1205 11123 21149 30163 40179 57015;
0101010160999992013011523004+78933+028900FM-12+002099999V0201401N005019999999N9999999N1-01101-01331101761ADDMA1999999101591MD1710141+9999REMSYN060AAXX  15231 01016 46/// /1405 11110 21133 30159 40176 57014;
0111010160999992013011600004+78933+028900FM-12+002099999V0201401N005019999999N9999999N1-00961-01241101691ADDMA1999999101531MD1610141+9999REMSYN070AAXX  16001 01016 46/// /1405 11096 21124 30153 40169 56014 333 91106;
0101010160999992013011601004+78933+028900FM-12+002099999V0201201N006019999999N9999999N1-01031-01291101621ADDMA1999999101461MD1610171+9999REMSYN060AAXX  16011 01016 46/// /1206 11103 21129 30146 40162 56017;
0101010160999992013011602004+78933+028900FM-12+002099999V0201201N005019999999N9999999N1-01021-01301101561ADDMA1999999101401MD1710191+9999REMSYN060AAXX  16021 01016 46/// /1205 11102 21130 30140 40156 57019;
0101010160999992013011603004+78933+028900FM-12+002099999V0201201N005019999999N9999999N1-01001-01261101501ADDMA1999999101341MD1710191+9999REMSYN060AAXX  16031 01016 46/// /1205 11100 21126 30134 40150 57019;
0101010160999992013011604004+78933+028900FM-12+002099999V0201301N006019999999N9999999N1-00821-01071101401ADDMA1999999101241MD1610221+9999REMSYN060AAXX  16041 01016 46/// /1306 11082 21107 30124 40140 56022;
0101010160999992013011605004+78933+028900FM-12+002099999V0201201N006019999999N9999999N1-01001-01361101311ADDMA1999999101141MD1710251+9999REMSYN060AAXX  16051 01016 46/// /1206 11100 21136 30114 40131 57025;
0130010160999992013011606004+78933+028900FM-12+002099999V0201401N008019999999N9999999N1-00821-01071101211ADDKA1999N-01421MA1999999101051MD1710281+9999REMSYN076AAXX  16061 01016 46/// /1408 11082 21107 30105 40121 57028 333 21142 91110;
0101010160999992013011607004+78933+028900FM-12+002099999V0201301N008019999999N9999999N1-00901-01151101161ADDMA1999999101001MD1810241+9999REMSYN060AAXX  16071 01016 46/// /1308 11090 21115 30100 40116 58024;
0101010160999992013011608004+78933+028900FM-12+002099999V0201301N008019999999N9999999N1-00971-01221101091ADDMA1999999100931MD1710211+9999REMSYN060AAXX  16081 01016 46/// /1308 11097 21122 30093 40109 57021;
0101010160999992013011609004+78933+028900FM-12+002099999V0201201N008019999999N9999999N1-00951-01171101021ADDMA1999999100861MD1710201+9999REMSYN060AAXX  16091 01016 46/// /1208 11095 21117 30086 40102 57020;
0101010160999992013011610004+78933+028900FM-12+002099999V0201201N010019999999N9999999N1-00911-01081100941ADDMA1999999100781MD1710221+9999REMSYN060AAXX  16101 01016 46/// /1210 11091 21108 30078 40094 57022;
0101010160999992013011611004+78933+028900FM-12+002099999V0201301N009019999999N9999999N1-00911-01111100901ADDMA1999999100741MD1810191+9999REMSYN060AAXX  16111 01016 46/// /1309 11091 21111 30074 40090 58019;
0111010160999992013011612004+78933+028900FM-12+002099999V0201301N010019999999N9999999N1-00911-01131100851ADDMA1999999100691MD1710171+9999REMSYN070AAXX  16121 01016 46/// /1310 11091 21113 30069 40085 57017 333 91112;
0101010160999992013011613004+78933+028900FM-12+002099999V0201201N010019999999N9999999N1-00951-01161100801ADDMA1999999100631MD1710141+9999REMSYN060AAXX  16131 01016 46/// /1210 11095 21116 30063 40080 57014;
0101010160999992013011614004+78933+028900FM-12+002099999V0201201N010019999999N9999999N1-00961-01201100731ADDMA1999999100561MD1710181+9999REMSYN060AAXX  16141 01016 46/// /1210 11096 21120 30056 40073 57018;
0101010160999992013011615004+78933+028900FM-12+002099999V0201001N010019999999N9999999N1-00981-01161100671ADDMA1999999100501MD1710181+9999REMSYN060AAXX  16151 01016 46/// /1010 11098 21116 30050 40067 57018;
0101010160999992013011616004+78933+028900FM-12+002099999V0201101N011019999999N9999999N1-00991-01171100581ADDMA1999999100411MD1710221+9999REMSYN060AAXX  16161 01016 46/// /1111 11099 21117 30041 40058 57022;
0101010160999992013011617004+78933+028900FM-12+002099999V0201101N010019999999N9999999N1-00921-01101100531ADDMA1999999100361MD1710201+9999REMSYN060AAXX  16171 01016 46/// /1110 11092 21110 30036 40053 57020;
0130010160999992013011618004+78933+028900FM-12+002099999V0201001N011019999999N9999999N1-00901-01081100471ADDKA1120M-00821MA1999999100301MD1710201+9999REMSYN076AAXX  16181 01016 46/// /1011 11090 21108 30030 40047 57020 333 11082 91113;
0101010160999992013011619004+78933+028900FM-12+002099999V0201001N012019999999N9999999N1-00871-01051100411ADDMA1999999100251MD1710171+9999REMSYN060AAXX  16191 01016 46/// /1012 11087 21105 30025 40041 57017;
0101010160999992013011620004+78933+028900FM-12+002099999V0201001N013019999999N9999999N1-00861-01001100421ADDMA1999999100261MD1810101+9999REMSYN060AAXX  16201 01016 46/// /1013 11086 21100 30026 40042 58010;
0101010160999992013011621004+78933+028900FM-12+002099999V0201001N012019999999N9999999N1-00851-00961100391ADDMA1999999100231MD1710071+9999REMSYN060AAXX  16211 01016 46/// /1012 11085 21096 30023 40039 57007;
0101010160999992013011622004+78933+028900FM-12+002099999V0200901N013019999999N9999999N1-00891-01011100371ADDMA1999999100211MD1610041+9999REMSYN060AAXX  16221 01016 46/// /0913 11089 21101 30021 40037 56004;
0101010160999992013011623004+78933+028900FM-12+002099999V0200801N013019999999N9999999N1-00841-00951100341ADDMA1999999100181MD1710081+9999REMSYN060AAXX  16231 01016 46/// /0813 11084 21095 30018 40034 57008;
0111010160999992013011700004+78933+028900FM-12+002099999V0200801N013019999999N9999999N1-00721-00821100281ADDMA1999999100121MD1610121+9999REMSYN070AAXX  17001 01016 46/// /0813 11072 21082 30012 40028 56012 333 91115;
0101010160999992013011701004+78933+028900FM-12+002099999V0201001N012019999999N9999999N1-00631-00741100231ADDMA1999999100071MD1710141+9999REMSYN060AAXX  17011 01016 46/// /1012 11063 21074 30007 40023 57014;
0101010160999992013011702004+78933+028900FM-12+002099999V0200901N011019999999N9999999N1-00581-00681100211ADDMA1999999100051MD1810131+9999REMSYN060AAXX  17021 01016 46/// /0911 11058 21068 30005 40021 58013;
0101010160999992013011703004+78933+028900FM-12+002099999V0201001N012019999999N9999999N1-00551-00651100181ADDMA1999999100021MD1710101+9999REMSYN060AAXX  17031 01016 46/// /1012 11055 21065 30002 40018 57010;
0101010160999992013011704004+78933+028900FM-12+002099999V0200901N014019999999N9999999N1-00601-00711100151ADDMA1999999099991MD1710081+9999REMSYN060AAXX  17041 01016 46/// /0914 11060 21071 39999 40015 57008;
0101010160999992013011705004+78933+028900FM-12+002099999V0200901N016019999999N9999999N1-00661-00771100121ADDMA1999999099961MD1710091+9999REMSYN060AAXX  17051 01016 46/// /0916 11066 21077 39996 40012 57009;
0130010160999992013011706004+78933+028900FM-12+002099999V0200901N017019999999N9999999N1-00721-00831100111ADDKA1999N-00911MA1999999099951MD1710071+9999REMSYN076AAXX  17061 01016 46/// /0917 11072 21083 39995 40011 57007 333 21091 91119;
0101010160999992013011707004+78933+028900FM-12+002099999V0200801N017019999999N9999999N1-00771-00881100121ADDMA1999999099961MD1810031+9999REMSYN060AAXX  17071 01016 46/// /0817 11077 21088 39996 40012 58003;
0101010160999992013011708004+78933+028900FM-12+002099999V0200801N018019999999N9999999N1-00821-00941100111ADDMA1999999099951MD1410001+9999REMSYN060AAXX  17081 01016 46/// /0818 11082 21094 39995 40011 54001;
0101010160999992013011709004+78933+028900FM-12+002099999V0200801N017019999999N9999999N1-00821-00941100091ADDMA1999999099921MD1510031+9999REMSYN060AAXX  17091 01016 46/// /0817 11082 21094 39992 40009 55003;
0101010160999992013011710004+78933+028900FM-12+002099999V0200801N017019999999N9999999N1-00771-00881100051ADDMA1999999099891MD1710071+9999REMSYN060AAXX  17101 01016 46/// /0817 11077 21088 39989 40005 57007;
0101010160999992013011711004+78933+028900FM-12+002099999V0200801N017019999999N9999999N1-00731-00831100021ADDMA1999999099861MD1710101+9999REMSYN060AAXX  17111 01016 46/// /0817 11073 21083 39986 40002 57010;
0111010160999992013011712004+78933+028900FM-12+002099999V0200801N018019999999N9999999N1-00711-00811099971ADDMA1999999099811MD1710111+9999REMSYN070AAXX  17121 01016 46/// /0818 11071 21081 39981 49997 57011 333 91121;
0101010160999992013011713004+78933+028900FM-12+002099999V0200801N017019999999N9999999N1-00611-00691099931ADDMA1999999099771MD1710121+9999REMSYN060AAXX  17131 01016 46/// /0817 11061 21069 39977 49993 57012;
0101010160999992013011714004+78933+028900FM-12+002099999V0200901N016019999999N9999999N1-00591-00671099921ADDMA1999999099761MD1810101+9999REMSYN060AAXX  17141 01016 46/// /0916 11059 21067 39976 49992 58010;
0101010160999992013011715004+78933+028900FM-12+002099999V0200901N017019999999N9999999N1-00581-00651099911ADDMA1999999099751MD1810061+9999REMSYN060AAXX  17151 01016 46/// /0917 11058 21065 39975 49991 58006;
0101010160999992013011716004+78933+028900FM-12+002099999V0200901N016019999999N9999999N1-00591-00671099941ADDMA1999999099781MD1010011+9999REMSYN060AAXX  17161 01016 46/// /0916 11059 21067 39978 49994 50001;
0101010160999992013011717004+78933+028900FM-12+002099999V0201001N017019999999N9999999N1-00561-00631099931ADDMA1999999099771MD1410001+9999REMSYN060AAXX  17171 01016 46/// /1017 11056 21063 39977 49993 54001;
0130010160999992013011718004+78933+028900FM-12+002099999V0201001N014019999999N9999999N1-00551-00621099971ADDKA1120M-00541MA1999999099811MD1210071+9999REMSYN076AAXX  17181 01016 46/// /1014 11055 21062 39981 49997 52007 333 11054 91121;
0101010160999992013011719004+78933+028900FM-12+002099999V0201001N015019999999N9999999N1-00551-00631099981ADDMA1999999099831MD1210051+9999REMSYN060AAXX  17191 01016 46/// /1015 11055 21063 39983 49998 52005;
0101010160999992013011720004+78933+028900FM-12+002099999V0200901N016019999999N9999999N1-00591-00691100031ADDMA1999999099871MD1210101+9999REMSYN060AAXX  17201 01016 46/// /0916 11059 21069 39987 40003 52010;
0101010160999992013011721004+78933+028900FM-12+002099999V0200901N017019999999N9999999N1-00671-00781100071ADDMA1999999099911MD1210101+9999REMSYN060AAXX  17211 01016 46/// /0917 11067 21078 39991 40007 52010;
0101010160999992013011722004+78933+028900FM-12+002099999V0200901N017019999999N9999999N1-00741-00861100111ADDMA1999999099951MD1210131+9999REMSYN060AAXX  17221 01016 46/// /0917 11074 21086 39995 40011 52013;
0101010160999992013011723004+78933+028900FM-12+002099999V0200801N015019999999N9999999N1-00751-00871100171ADDMA1999999100011MD1210131+9999REMSYN060AAXX  17231 01016 46/// /0815 11075 21087 30001 40017 52013;
0111010160999992013011800004+78933+028900FM-12+002099999V0200801N015019999999N9999999N1-00791-00941100201ADDMA1999999100041MD1210131+9999REMSYN070AAXX  18001 01016 46/// /0815 11079 21094 30004 40020 52013 333 91120;
0101010160999992013011801004+78933+028900FM-12+002099999V0200701N015019999999N9999999N1-00841-01001100211ADDMA1999999100051MD1310101+9999REMSYN060AAXX  18011 01016 46/// /0715 11084 21100 30005 40021 53010;
0101010160999992013011802004+78933+028900FM-12+002099999V0200801N015019999999N9999999N1-00871-01051100231ADDMA1999999100071MD1210071+9999REMSYN060AAXX  18021 01016 46/// /0815 11087 21105 30007 40023 52007;
0101010160999992013011803004+78933+028900FM-12+002099999V0200701N014019999999N9999999N1-00921-01101100271ADDMA1999999100101MD1210071+9999REMSYN060AAXX  18031 01016 46/// /0714 11092 21110 30010 40027 52007;
0101010160999992013011804004+78933+028900FM-12+002099999V0200701N014019999999N9999999N1-00971-01151100271ADDMA1999999100111MD1210061+9999REMSYN060AAXX  18041 01016 46/// /0714 11097 21115 30011 40027 52006;
0101010160999992013011805004+78933+028900FM-12+002099999V0200601N014019999999N9999999N1-00981-01181100271ADDMA1999999100111MD1210041+9999REMSYN060AAXX  18051 01016 46/// /0614 11098 21118 30011 40027 52004;
0130010160999992013011806004+78933+028900FM-12+002099999V0200501N015019999999N9999999N1-00951-01121100241ADDKA1999N-01001MA1999999100081MD1510021+9999REMSYN076AAXX  18061 01016 46/// /0515 11095 21112 30008 40024 55002 333 21100 91117;
0101010160999992013011807004+78933+028900FM-12+002099999V0200401N015019999999N9999999N1-00981-01151100221ADDMA1999999100061MD1710051+9999REMSYN060AAXX  18071 01016 46/// /0415 11098 21115 30006 40022 57005;
0101010160999992013011808004+78933+028900FM-12+002099999V0200401N016019999999N9999999N1-00981-01151100201ADDMA1999999100041MD1710071+9999REMSYN060AAXX  18081 01016 46/// /0416 11098 21115 30004 40020 57007;
0101010160999992013011809004+78933+028900FM-12+002099999V0200401N017019999999N9999999N1-00951-01091100191ADDMA1999999100031MD1710051+9999REMSYN060AAXX  18091 01016 46/// /0417 11095 21109 30003 40019 57005;
0101010160999992013011810004+78933+028900FM-12+002099999V0200501N016019999999N9999999N1-00871-01011100201ADDMA1999999100041MD1410001+9999REMSYN060AAXX  18101 01016 46/// /0516 11087 21101 30004 40020 54002;
0101010160999992013011811004+78933+028900FM-12+002099999V0200601N017019999999N9999999N1-00761-00891100201ADDMA1999999100041MD1410001+9999REMSYN060AAXX  18111 01016 46/// /0617 11076 21089 30004 40020 54000;
0111010160999992013011812004+78933+028900FM-12+002099999V0200601N015019999999N9999999N1-00641-00761100261ADDMA1999999100101MD1110081+9999REMSYN070AAXX  18121 01016 46/// /0615 11064 21076 30010 40026 51008 333 91120;
0101010160999992013011813004+78933+028900FM-12+002099999V0200701N011019999999N9999999N1-00531-00631100371ADDMA1999999100211MD1110171+9999REMSYN060AAXX  18131 01016 46/// /0711 11053 21063 30021 40037 51017;
0101010160999992013011814004+78933+028900FM-12+002099999V0200901N010019999999N9999999N1-00491-00671100461ADDMA1999999100301MD1210251+9999REMSYN060AAXX  18141 01016 46/// /0910 11049 21067 30030 40046 52025;
0101010160999992013011815004+78933+028900FM-12+002099999V0200901N011019999999N9999999N1-00491-00641100551ADDMA1999999100391MD1210291+9999REMSYN060AAXX  18151 01016 46/// /0911 11049 21064 30039 40055 52029;
0101010160999992013011816004+78933+028900FM-12+002099999V0200801N012019999999N9999999N1-00601-00801100711ADDMA1999999100551MD1110341+9999REMSYN060AAXX  18161 01016 46/// /0812 11060 21080 30055 40071 51034;
0101010160999992013011817004+78933+028900FM-12+002099999V0200701N012019999999N9999999N1-00721-00921100811ADDMA1999999100641MD1210351+9999REMSYN060AAXX  18171 01016 46/// /0712 11072 21092 30064 40081 52035;
0130010160999992013011818004+78933+028900FM-12+002099999V0200701N011019999999N9999999N1-00771-00981100881ADDKA1120M-00461MA1999999100721MD1310331+9999REMSYN076AAXX  18181 01016 46/// /0711 11077 21098 30072 40088 53033 333 11046 91116;
0101010160999992013011819004+78933+028900FM-12+002099999V0200601N011019999999N9999999N1-00901-01101101001ADDMA1999999100841MD1210291+9999REMSYN060AAXX  18191 01016 46/// /0611 11090 21110 30084 40100 52029;
0101010160999992013011820004+78933+028900FM-12+002099999V0200701N009019999999N9999999N1-00951-01131101091ADDMA1999999100931MD1210281+9999REMSYN060AAXX  18201 01016 46/// /0709 11095 21113 30093 40109 52028;
0101010160999992013011821004+78933+028900FM-12+002099999V0200601N010019999999N9999999N1-00991-01191101151ADDMA1999999100991MD1310271+9999REMSYN060AAXX  18211 01016 46/// /0610 11099 21119 30099 40115 53027;
0101010160999992013011822004+78933+028900FM-12+002099999V0200601N010019999999N9999999N1-01051-01271101221ADDMA1999999101061MD1210221+9999REMSYN060AAXX  18221 01016 46/// /0610 11105 21127 30106 40122 52022;
0101010160999992013011823004+78933+028900FM-12+002099999V0200401N009019999999N9999999N1-01101-01351101341ADDMA1999999101171MD1110251+9999REMSYN060AAXX  18231 01016 46/// /0409 11110 21135 30117 40134 51025;
0111010160999992013011900004+78933+028900FM-12+002099999V0200401N009019999999N9999999N1-01181-01441101391ADDMA1999999101231MD1210241+9999REMSYN070AAXX  19001 01016 46/// /0409 11118 21144 30123 40139 52024 333 91113;
0101010160999992013011901004+78933+028900FM-12+002099999V0200301N009019999999N9999999N1-01211-01471101451ADDMA1999999101291MD1310231+9999REMSYN060AAXX  19011 01016 46/// /0309 11121 21147 30129 40145 53023;
0101010160999992013011902004+78933+028900FM-12+002099999V0200401N009019999999N9999999N1-01241-01481101491ADDMA1999999101321MD1210151+9999REMSYN060AAXX  19021 01016 46/// /0409 11124 21148 30132 40149 52015;
0101010160999992013011903004+78933+028900FM-12+002099999V0200401N009019999999N9999999N1-01281-01551101521ADDMA1999999101361MD1210131+9999REMSYN060AAXX  19031 01016 46/// /0409 11128 21155 30136 40152 52013;
0101010160999992013011904004+78933+028900FM-12+002099999V0200501N008019999999N9999999N1-01281-01541101551ADDMA1999999101391MD1210101+9999REMSYN060AAXX  19041 01016 46/// /0508 11128 21154 30139 40155 52010;
0101010160999992013011905004+78933+028900FM-12+002099999V0200401N008019999999N9999999N1-01291-01561101601ADDMA1999999101431MD1210111+9999REMSYN060AAXX  19051 01016 46/// /0408 11129 21156 30143 40160 52011;
0130010160999992013011906004+78933+028900FM-12+002099999V0200301N006019999999N9999999N1-01301-01581101631ADDKA1999N-01311MA1999999101461MD1210101+9999REMSYN076AAXX  19061 01016 46/// /0306 11130 21158 30146 40163 52010 333 21131 91112;
0101010160999992013011907004+78933+028900FM-12+002099999V0200401N008019999999N9999999N1-01311-01621101661ADDMA1999999101491MD1210111+9999REMSYN060AAXX  19071 01016 46/// /0408 11131 21162 30149 40166 52011;
0101010160999992013011908004+78933+028900FM-12+002099999V0200401N006019999999N9999999N1-01301-01581101681ADDMA1999999101521MD1210091+9999REMSYN060AAXX  19081 01016 46/// /0406 11130 21158 30152 40168 52009;
0101010160999992013011909004+78933+028900FM-12+002099999V0200301N005019999999N9999999N1-01311-01621101711ADDMA1999999101551MD1210091+9999REMSYN060AAXX  19091 01016 46/// /0305 11131 21162 30155 40171 52009;
0101010160999992013011910004+78933+028900FM-12+002099999V0200401N005019999999N9999999N1-01321-01681101741ADDMA1999999101571MD1210081+9999REMSYN060AAXX  19101 01016 46/// /0405 11132 21168 30157 40174 52008;
0101010160999992013011911004+78933+028900FM-12+002099999V0200101N004019999999N9999999N1-01301-01601101761ADDMA1999999101591MD1210081+9999REMSYN060AAXX  19111 01016 46/// /0104 11130 21160 30159 40176 52008;
0111010160999992013011912004+78933+028900FM-12+002099999V0200401N006019999999N9999999N1-01291-01591101751ADDMA1999999101581MD1310031+9999REMSYN070AAXX  19121 01016 46/// /0406 11129 21159 30158 40175 53003 333 91109;
0101010160999992013011913004+78933+028900FM-12+002099999V0200301N005019999999N9999999N1-01251-01551101731ADDMA1999999101561MD1510011+9999REMSYN060AAXX  19131 01016 46/// /0305 11125 21155 30156 40173 55001;
0101010160999992013011914004+78933+028900FM-12+002099999V0200301N006019999999N9999999N1-01241-01541101731ADDMA1999999101561MD1710031+9999REMSYN060AAXX  19141 01016 46/// /0306 11124 21154 30156 40173 57003;
0101010160999992013011915004+78933+028900FM-12+002099999V0200201N003019999999N9999999N1-01261-01571101731ADDMA1999999101571MD1410001+9999REMSYN060AAXX  19151 01016 46/// /0203 11126 21157 30157 40173 54001;
0101010160999992013011916004+78933+028900FM-12+002099999V0200101N003019999999N9999999N1-01261-01691101741ADDMA1999999101571MD1410001+9999REMSYN060AAXX  19161 01016 46/// /0103 11126 21169 30157 40174 54001;
0101010160999992013011917004+78933+028900FM-12+002099999V0200101N004019999999N9999999N1-01311-01651101711ADDMA1999999101551MD1410001+9999REMSYN060AAXX  19171 01016 46/// /0104 11131 21165 30155 40171 54001;
0130010160999992013011918004+78933+028900FM-12+002099999V0200201N004019999999N9999999N1-01401-01741101651ADDKA1120M-01241MA1999999101481MD1610081+9999REMSYN076AAXX  19181 01016 46/// /0204 11140 21174 30148 40165 56008 333 11124 91110;
0101010160999992013011919004+78933+028900FM-12+002099999V0203601N003019999999N9999999N1-01561-01901101641ADDMA1999999101471MD1710101+9999REMSYN060AAXX  19191 01016 46/// /3603 11156 21190 30147 40164 57010;
0101010160999992013011920004+78933+028900FM-12+002099999V0203501N002019999999N9999999N1-01471-01841101651ADDMA1999999101491MD1810061+9999REMSYN060AAXX  19201 01016 46/// /3502 11147 21184 30149 40165 58006;
0101010160999992013011921004+78933+028900FM-12+002099999V0200201N001019999999N9999999N1-01481-01751101621ADDMA1999999101451MD1710031+9999REMSYN060AAXX  19211 01016 46/// /0201 11148 21175 30145 40162 57003;
0101010160999992013011922004+78933+028900FM-12+002099999V0200101N001019999999N9999999N1-01381-01661101561ADDMA1999999101391MD1610081+9999REMSYN060AAXX  19221 01016 46/// /0101 11138 21166 30139 40156 56008;
0101010160999992013011923004+78933+028900FM-12+002099999V0200901N003019999999N9999999N1-01341-01561101511ADDMA1999999101341MD1710151+9999REMSYN060AAXX  19231 01016 46/// /0903 11134 21156 30134 40151 57015;
0111010160999992013012000004+78933+028900FM-12+002099999V0201001N002019999999N9999999N1-01321-01601101411ADDMA1999999101251MD1610201+9999REMSYN070AAXX  20001 01016 46/// /1002 11132 21160 30125 40141 56020 333 91104;
0101010160999992013012001004+78933+028900FM-12+002099999V0200901N002019999999N9999999N1-01311-01671101381ADDMA1999999101221MD1710181+9999REMSYN060AAXX  20011 01016 46/// /0902 11131 21167 30122 40138 57018;
0101010160999992013012002004+78933+028900FM-12+002099999V0200901N004019999999N9999999N1-01371-01611101281ADDMA1999999101121MD1710221+9999REMSYN060AAXX  20021 01016 46/// /0904 11137 21161 30112 40128 57022;
0101010160999992013012003004+78933+028900FM-12+002099999V0201601N005019999999N9999999N1-01131-01421101171ADDMA1999999101011MD1610241+9999REMSYN060AAXX  20031 01016 46/// /1605 11113 21142 30101 40117 56024;
0101010160999992013012004004+78933+028900FM-12+002099999V0201501N007019999999N9999999N1-01131-01381101051ADDMA1999999100891MD1710331+9999REMSYN060AAXX  20041 01016 46/// /1507 11113 21138 30089 40105 57033;
0101010160999992013012005004+78933+028900FM-12+002099999V0201401N008019999999N9999999N1-01101-01291100971ADDMA1999999100811MD1710311+9999REMSYN060AAXX  20051 01016 46/// /1408 11110 21129 30081 40097 57031;
0130010160999992013012006004+78933+028900FM-12+002099999V0201401N010019999999N9999999N1-01051-01211100831ADDKA1999N-01631MA1999999100661MD1710341+9999REMSYN076AAXX  20061 01016 46/// /1410 11105 21121 30066 40083 57034 333 21163 91112;
0101010160999992013012007004+78933+028900FM-12+002099999V0201501N011019999999N9999999N1-00971-01131100671ADDMA1999999100511MD1610381+9999REMSYN060AAXX  20071 01016 46/// /1511 11097 21113 30051 40067 56038;
0101010160999992013012008004+78933+028900FM-12+002099999V0201501N011019999999N9999999N1-00921-01051100551ADDMA1999999100391MD1710411+9999REMSYN060AAXX  20081 01016 46/// /1511 11092 21105 30039 40055 57041;
0101010160999992013012009004+78933+028900FM-12+002099999V0201601N011019999999N9999999N1-00821-00951100481ADDMA1999999100321MD1810341+9999REMSYN060AAXX  20091 01016 46/// /1611 11082 21095 30032 40048 58034;
0101010160999992013012010004+78933+028900FM-12+002099999V0201501N011019999999N9999999N1-00811-00941100401ADDMA1999999100241MD1810271+9999REMSYN060AAXX  20101 01016 46/// /1511 11081 21094 30024 40040 58027;
0101010160999992013012011004+78933+028900FM-12+002099999V0201501N012019999999N9999999N1-00771-00891100221ADDMA1999999100061MD1610331+9999REMSYN060AAXX  20111 01016 46/// /1512 11077 21089 30006 40022 56033;
0111010160999992013012012004+78933+028900FM-12+002099999V0201501N011019999999N9999999N1-00741-00901100151ADDMA1999999099991MD1710331+9999REMSYN070AAXX  20121 01016 46/// /1511 11074 21090 39999 40015 57033 333 91113;
0101010160999992013012013004+78933+028900FM-12+002099999V0201401N013019999999N9999999N1-00801-00911099991ADDMA1999999099831MD1710401+9999REMSYN060AAXX  20131 01016 46/// /1413 11080 21091 39983 49999 57040;
0101010160999992013012014004+78933+028900FM-12+002099999V0201401N014019999999N9999999N1-00811-00931099911ADDMA1999999099751MD1710311+9999REMSYN060AAXX  20141 01016 46/// /1414 11081 21093 39975 49991 57031;
0101010160999992013012015004+78933+028900FM-12+002099999V0201301N014019999999N9999999N1-00911-01021099801ADDMA1999999099641MD1810351+9999REMSYN060AAXX  20151 01016 46/// /1314 11091 21102 39964 49980 58035;
0101010160999992013012016004+78933+028900FM-12+002099999V0201301N014019999999N9999999N1-00921-01031099721ADDMA1999999099561MD1710271+9999REMSYN060AAXX  20161 01016 46/// /1314 11092 21103 39956 49972 57027;
0101010160999992013012017004+78933+028900FM-12+002099999V0201201N015019999999N9999999N1-00971-01091099651ADDMA1999999099491MD1810261+9999REMSYN060AAXX  20171 01016 46/// /1215 11097 21109 39949 49965 58026;
0130010160999992013012018004+78933+028900FM-12+002099999V0201101N014019999999N9999999N1-01021-01141099691ADDKA1120M-00731MA1999999099531MD1810111+9999REMSYN076AAXX  20181 01016 46/// /1114 11102 21114 39953 49969 58011 333 11073 91119;
0101010160999992013012019004+78933+028900FM-12+002099999V0201001N014019999999N9999999N1-01051-01181099671ADDMA1999999099511MD1810051+9999REMSYN060AAXX  20191 01016 46/// /1014 11105 21118 39951 49967 58005;
0101010160999992013012020004+78933+028900FM-12+002099999V0201001N015019999999N9999999N1-01091-01231099731ADDMA1999999099561MD1210071+9999REMSYN060AAXX  20201 01016 46/// /1015 11109 21123 39956 49973 52007;
0101010160999992013012021004+78933+028900FM-12+002099999V0200901N016019999999N9999999N1-01181-01321099771ADDMA1999999099611MD1110081+9999REMSYN060AAXX  20211 01016 46/// /0916 11118 21132 39961 49977 51008;
0101010160999992013012022004+78933+028900FM-12+002099999V0200901N016019999999N9999999N1-01291-01461099831ADDMA1999999099671MD1210161+9999REMSYN060AAXX  20221 01016 46/// /0916 11129 21146 39967 49983 52016;
0101010160999992013012023004+78933+028900FM-12+002099999V0200901N015019999999N9999999N1-01371-01551099881ADDMA1999999099711MD1210151+9999REMSYN060AAXX  20231 01016 46/// /0915 11137 21155 39971 49988 52015;
