0111010170999992013010100004+77683+014783FM-12+000699999V0200901N006019999999N9999999N1+00151+99999098981ADDMA1999999098901MD1210131+9999REMSYN070AAXX  01001 01017 46/// /0906 10015 2//// 39890 49898 52013 333 91117;
0101010170999992013010101004+77683+014783FM-12+000699999V0200901N008019999999N9999999N1+00181+99999099021ADDMA1999999098941MD1210131+9999REMSYN060AAXX  01011 01017 46/// /0908 10018 2//// 39894 49902 52013;
0101010170999992013010102004+77683+014783FM-12+000699999V0200501N010019999999N9999999N1+00021+99999099041ADDMA1999999098961MD1310101+9999REMSYN060AAXX  01021 01017 46/// /0510 10002 2//// 39896 49904 53010;
0101010170999992013010103004+77683+014783FM-12+000699999V0200501N012019999999N9999999N1-00021+99999099061ADDMA1999999098981MD1210081+9999REMSYN060AAXX  01031 01017 46/// /0512 11002 2//// 39898 49906 52008;
0101010170999992013010104004+77683+014783FM-12+000699999V0200501N012019999999N9999999N1-00031+99999099111ADDMA1999999099031MD1110091+9999REMSYN060AAXX  01041 01017 46/// /0512 11003 2//// 39903 49911 51009;
0101010170999992013010105004+77683+014783FM-12+000699999V0200601N012019999999N9999999N1-00021+99999099151ADDMA1999999099071MD1210111+9999REMSYN060AAXX  01051 01017 46/// /0612 11002 2//// 39907 49915 52011;
0130010170999992013010106004+77683+014783FM-12+000699999V0200601N011019999999N9999999N1+00011+99999099171ADDKA1999N-00051MA1999999099091MD1210111+9999REMSYN076AAXX  01061 01017 46/// /0611 10001 2//// 39909 49917 52011 333 21005 91119;
0101010170999992013010107004+77683+014783FM-12+000699999V0200701N007019999999N9999999N1+00091+99999099221ADDMA1999999099141MD1210111+9999REMSYN060AAXX  01071 01017 46/// /0707 10009 2//// 39914 49922 52011;
0101010170999992013010108004+77683+014783FM-12+000699999V0200601N012019999999N9999999N1+00061+99999099221ADDMA1999999099141MD1210081+9999REMSYN060AAXX  01081 01017 46/// /0612 10006 2//// 39914 49922 52008;
0101010170999992013010109004+77683+014783FM-12+000699999V0200701N013019999999N9999999N1+00091+99999099221ADDMA1999999099141MD1310051+9999REMSYN060AAXX  01091 01017 46/// /0713 10009 2//// 39914 49922 53005;
0101010170999992013010110004+77683+014783FM-12+000699999V0200701N009019999999N9999999N1+00071+99999099281ADDMA1999999099201MD1110051+9999REMSYN060AAXX  01101 01017 46/// /0709 10007 2//// 39920 49928 51005;
0101010170999992013010111004+77683+014783FM-12+000699999V0200601N010019999999N9999999N1+00041+99999099311ADDMA1999999099231MD1110091+9999REMSYN060AAXX  01111 01017 46/// /0610 10004 2//// 39923 49931 51009;
0111010170999992013010112004+77683+014783FM-12+000699999V0200501N009019999999N9999999N1+00001+99999099351ADDMA1999999099271MD1210131+9999REMSYN070AAXX  01121 01017 46/// /0509 10000 2//// 39927 49935 52013 333 91116;
0101010170999992013010113004+77683+014783FM-12+000699999V0200601N010019999999N9999999N1-00011+99999099371ADDMA1999999099291MD1210091+9999REMSYN060AAXX  01131 01017 46/// /0610 11001 2//// 39929 49937 52009;
0101010170999992013010114004+77683+014783FM-12+000699999V0200601N010019999999N9999999N1-00011+99999099351ADDMA1999999099271MD1310041+9999REMSYN060AAXX  01141 01017 46/// /0610 11001 2//// 39927 49935 53004;
0101010170999992013010115004+77683+014783FM-12+000699999V0200701N008019999999N9999999N1+00011+99999099371ADDMA1999999099291MD1410001+9999REMSYN060AAXX  01151 01017 46/// /0708 10001 2//// 39929 49937 54002;
0101010170999992013010116004+77683+014783FM-12+000699999V0200701N008019999999N9999999N1+00031+99999099361ADDMA1999999099281MD1410001+9999REMSYN060AAXX  01161 01017 46/// /0708 10003 2//// 39928 49936 54001;
0101010170999992013010117004+77683+014783FM-12+000699999V0200601N005019999999N9999999N1+00061+99999099361ADDMA1999999099281MD1410001+9999REMSYN060AAXX  01171 01017 46/// /0605 10006 2//// 39928 49936 54001;
0130010170999992013010118004+77683+014783FM-12+000699999V0200601N007019999999N9999999N1+00061+99999099341ADDKA1120M+00151MA1999999099261MD1710031+9999REMSYN076AAXX  01181 01017 46/// /0607 10006 2//// 39926 49934 57003 333 10015 91114;
0101010170999992013010119004+77683+014783FM-12+000699999V0200701N008019999999N9999999N1+00051+99999099331ADDMA1999999099251MD1710031+9999REMSYN060AAXX  01191 01017 46/// /0708 10005 2//// 39925 49933 57003;
0101010170999992013010120004+77683+014783FM-12+000699999V0200601N008019999999N9999999N1+00041+99999099361ADDMA1999999099281MD1010001+9999REMSYN060AAXX  01201 01017 46/// /0608 10004 2//// 39928 49936 50000;
0101010170999992013010121004+77683+014783FM-12+000699999V0200601N008019999999N9999999N1+00011+99999099371ADDMA1999999099291MD1410001+9999REMSYN060AAXX  01211 01017 46/// /0608 10001 2//// 39929 49937 54003;
0101010170999992013010122004+77683+014783FM-12+000699999V0200601N007019999999N9999999N1+00041+99999099371ADDMA1999999099291MD1210041+9999REMSYN060AAXX  01221 01017 46/// /0607 10004 2//// 39929 49937 52004;
0101010170999992013010123004+77683+014783FM-12+000699999V0200601N009019999999N9999999N1+00011+99999099371ADDMA1999999099291MD1410001+9999REMSYN060AAXX  01231 01017 46/// /0609 10001 2//// 39929 49937 54001;
0111010170999992013010200004+77683+014783FM-12+000699999V0200701N009019999999N9999999N1+00011+99999099351ADDMA1999999099271MD1410001+9999REMSYN070AAXX  02001 01017 46/// /0709 10001 2//// 39927 49935 54002 333 91111;
0101010170999992013010201004+77683+014783FM-12+000699999V0200601N008019999999N9999999N1+00001+99999099351ADDMA1999999099271MD1410001+9999REMSYN060AAXX  02011 01017 46/// /0608 10000 2//// 39927 49935 54002;
0101010170999992013010202004+77683+014783FM-12+000699999V0200701N007019999999N9999999N1+00001+99999099361ADDMA1999999099281MD1410001+9999REMSYN060AAXX  02021 01017 46/// /0707 10000 2//// 39928 49936 54001;
0101010170999992013010203004+77683+014783FM-12+000699999V0200601N006019999999N9999999N1+00001+99999099351ADDMA1999999099271MD1410001+9999REMSYN060AAXX  02031 01017 46/// /0606 10000 2//// 39927 49935 54001;
0101010170999992013010204004+77683+014783FM-12+000699999V0200601N007019999999N9999999N1-00051+99999099351ADDMA1999999099261MD1410001+9999REMSYN060AAXX  02041 01017 46/// /0607 11005 2//// 39926 49935 54001;
0101010170999992013010207004+77683+014783FM-12+000699999V0200801N003019999999N9999999N1-00011+99999099361ADDMA1999999099281MD1410001+9999REMSYN060AAXX  02071 01017 46/// /0803 11001 2//// 39928 49936 54002;
0101010170999992013010208004+77683+014783FM-12+000699999V0200801N005019999999N9999999N1+00001+99999099361ADDMA1999999099281MD1410001+9999REMSYN060AAXX  02081 01017 46/// /0805 10000 2//// 39928 49936 54002;
0101010170999992013010209004+77683+014783FM-12+000699999V0201201N003019999999N9999999N1+00071+99999099361ADDMA1999999099281MD1410001+9999REMSYN060AAXX  02091 01017 46/// /1203 10007 2//// 39928 49936 54001;
0101010170999992013010210004+77683+014783FM-12+000699999V0200501N004019999999N9999999N1-00031+99999099371ADDMA1999999099291MD1410001+9999REMSYN060AAXX  02101 01017 46/// /0504 11003 2//// 39929 49937 54000;
0101010170999992013010211004+77683+014783FM-12+000699999V0200601N004019999999N9999999N1+00001+99999099361ADDMA1999999099281MD1410001+9999REMSYN060AAXX  02111 01017 46/// /0604 10000 2//// 39928 49936 54000;
0111010170999992013010212004+77683+014783FM-12+000699999V0200601N005019999999N9999999N1+00021+99999099351ADDMA1999999099271MD1410001+9999REMSYN070AAXX  02121 01017 46/// /0605 10002 2//// 39927 49935 54001 333 91107;
0101010170999992013010213004+77683+014783FM-12+000699999V0200701N004019999999N9999999N1-00011+99999099341ADDMA1999999099261MD1410001+9999REMSYN060AAXX  02131 01017 46/// /0704 11001 2//// 39926 49934 54003;
0101010170999992013010214004+77683+014783FM-12+000699999V0200601N002019999999N9999999N1+00011+99999099311ADDMA1999999099231MD1710051+9999REMSYN060AAXX  02141 01017 46/// /0602 10001 2//// 39923 49931 57005;
0101010170999992013010215004+77683+014783FM-12+000699999V0200601N002019999999N9999999N1-00011+99999099271ADDMA1999999099191MD1710091+9999REMSYN060AAXX  02151 01017 46/// /0602 11001 2//// 39919 49927 57009;
0101010170999992013010216004+77683+014783FM-12+000699999V0200401N003019999999N9999999N1+00021+99999099251ADDMA1999999099171MD1710101+9999REMSYN060AAXX  02161 01017 46/// /0403 10002 2//// 39917 49925 57010;
0101010170999992013010217004+77683+014783FM-12+000699999V0200501N003019999999N9999999N1+00001+99999099221ADDMA1999999099141MD1710091+9999REMSYN060AAXX  02171 01017 46/// /0503 10000 2//// 39914 49922 57009;
0130010170999992013010218004+77683+014783FM-12+000699999V0200701N004019999999N9999999N1+00021+99999099171ADDKA1120M+00081MA1999999099091MD1710091+9999REMSYN076AAXX  02181 01017 46/// /0704 10002 2//// 39909 49917 57009 333 10008 91107;
0101010170999992013010219004+77683+014783FM-12+000699999V0200801N004019999999N9999999N1+00061+99999099171ADDMA1999999099091MD1710081+9999REMSYN060AAXX  02191 01017 46/// /0804 10006 2//// 39909 49917 57008;
0101010170999992013010220004+77683+014783FM-12+000699999V0200701N003019999999N9999999N1+00061+99999099141ADDMA1999999099061MD1710071+9999REMSYN060AAXX  02201 01017 46/// /0703 10006 2//// 39906 49914 57007;
0101010170999992013010221004+77683+014783FM-12+000699999V0201101N003019999999N9999999N1+00091+99999099121ADDMA1999999099041MD1710051+9999REMSYN060AAXX  02211 01017 46/// /1103 10009 2//// 39904 49912 57005;
0101010170999992013010222004+77683+014783FM-12+000699999V0201001N004019999999N9999999N1+00091+99999099111ADDMA1999999099031MD1710051+9999REMSYN060AAXX  02221 01017 46/// /1004 10009 2//// 39903 49911 57005;
0101010170999992013010223004+77683+014783FM-12+000699999V0201301N002019999999N9999999N1+00081+99999099101ADDMA1999999099021MD1710041+9999REMSYN060AAXX  02231 01017 46/// /1302 10008 2//// 39902 49910 57004;
0111010170999992013010300004+77683+014783FM-12+000699999V0200501N003019999999N9999999N1+00001+99999099091ADDMA1999999099011MD1410001+9999REMSYN070AAXX  03001 01017 46/// /0503 10000 2//// 39901 49909 54003 333 91107;
0101010170999992013010301004+77683+014783FM-12+000699999V0209999C000019999999N9999999N1-00021+99999099081ADDMA1999999099001MD1710031+9999REMSYN060AAXX  03011 01017 46/// /0000 11002 2//// 39900 49908 57003;
0101010170999992013010302004+77683+014783FM-12+000699999V0200301N002019999999N9999999N1-00021+99999099051ADDMA1999999098971MD1710051+9999REMSYN060AAXX  03021 01017 46/// /0302 11002 2//// 39897 49905 57005;
0101010170999992013010303004+77683+014783FM-12+000699999V0200501N001019999999N9999999N1-00081+99999099041ADDMA1999999098961MD1710051+9999REMSYN060AAXX  03031 01017 46/// /0501 11008 2//// 39896 49904 57005;
0101010170999992013010304004+77683+014783FM-12+000699999V0200601N003019999999N9999999N1-00111+99999099041ADDMA1999999098961MD1710041+9999REMSYN060AAXX  03041 01017 46/// /0603 11011 2//// 39896 49904 57004;
0101010170999992013010305004+77683+014783FM-12+000699999V0200701N001019999999N9999999N1-00111+99999099051ADDMA1999999098971MD1410001+9999REMSYN060AAXX  03051 01017 46/// /0701 11011 2//// 39897 49905 54001;
0130010170999992013010306004+77683+014783FM-12+000699999V0209999C000019999999N9999999N1-00151+99999099051ADDKA1999N-00151MA1999999098971MD1410001+9999REMSYN076AAXX  03061 01017 46/// /0000 11015 2//// 39897 49905 54001 333 21015 91104;
0101010170999992013010308004+77683+014783FM-12+000699999V0202601N007019999999N9999999N1-00161+99999099151ADDMA1999999099071MD1110101+9999REMSYN060AAXX  03081 01017 46/// /2607 11016 2//// 39907 49915 51010;
0101010170999992013010309004+77683+014783FM-12+000699999V0202501N005019999999N9999999N1-00181+99999099221ADDMA1999999099141MD1210171+9999REMSYN060AAXX  03091 01017 46/// /2505 11018 2//// 39914 49922 52017;
0101010170999992013010310004+77683+014783FM-12+000699999V0202801N005019999999N9999999N1-00171+99999099291ADDMA1999999099201MD1210191+9999REMSYN060AAXX  03101 01017 46/// /2805 11017 2//// 39920 49929 52019;
0101010170999992013010311004+77683+014783FM-12+000699999V0202701N004019999999N9999999N1-00161+99999099301ADDMA1999999099221MD1310151+9999REMSYN060AAXX  03111 01017 46/// /2704 11016 2//// 39922 49930 53015;
0111010170999992013010312004+77683+014783FM-12+000699999V0202901N003019999999N9999999N1-00171+99999099351ADDMA1999999099271MD1210121+9999REMSYN070AAXX  03121 01017 46/// /2903 11017 2//// 39927 49935 52012 333 91111;
0101010170999992013010313004+77683+014783FM-12+000699999V0202901N003019999999N9999999N1-00171+99999099371ADDMA1999999099291MD1210081+9999REMSYN060AAXX  03131 01017 46/// /2903 11017 2//// 39929 49937 52008;
0101010170999992013010314004+77683+014783FM-12+000699999V0209999C000019999999N9999999N1-00221+99999099391ADDMA1999999099311MD1210091+9999REMSYN060AAXX  03141 01017 46/// /0000 11022 2//// 39931 49939 52009;
0101010170999992013010315004+77683+014783FM-12+000699999V0200401N004019999999N9999999N1-00191+99999099411ADDMA1999999099331MD1210061+9999REMSYN060AAXX  03151 01017 46/// /0404 11019 2//// 39933 49941 52006;
0101010170999992013010316004+77683+014783FM-12+000699999V0200201N003019999999N9999999N1-00241+99999099471ADDMA1999999099381MD1210101+9999REMSYN060AAXX  03161 01017 46/// /0203 11024 2//// 39938 49947 52010;
0101010170999992013010317004+77683+014783FM-12+000699999V0200401N004019999999N9999999N1-00241+99999099501ADDMA1999999099421MD1210101+9999REMSYN060AAXX  03171 01017 46/// /0404 11024 2//// 39942 49950 52010;
0130010170999992013010318004+77683+014783FM-12+000699999V0200401N004019999999N9999999N1-00251+99999099521ADDKA1120M-00101MA1999999099441MD1210111+9999REMSYN076AAXX  03181 01017 46/// /0404 11025 2//// 39944 49952 52011 333 11010 91105;
0101010170999992013010319004+77683+014783FM-12+000699999V0200501N005019999999N9999999N1-00271+99999099561ADDMA1999999099481MD1210091+9999REMSYN060AAXX  03191 01017 46/// /0505 11027 2//// 39948 49956 52009;
0101010170999992013010320004+77683+014783FM-12+000699999V0200401N005019999999N9999999N1-00261+99999099601ADDMA1999999099521MD1210101+9999REMSYN060AAXX  03201 01017 46/// /0405 11026 2//// 39952 49960 52010;
0101010170999992013010321004+77683+014783FM-12+000699999V0200401N006019999999N9999999N1-00241+99999099651ADDMA1999999099571MD1210121+9999REMSYN060AAXX  03211 01017 46/// /0406 11024 2//// 39957 49965 52012;
0101010170999992013010322004+77683+014783FM-12+000699999V0200401N005019999999N9999999N1-00241+99999099711ADDMA1999999099631MD1210151+9999REMSYN060AAXX  03221 01017 46/// /0405 11024 2//// 39963 49971 52015;
0101010170999992013010323004+77683+014783FM-12+000699999V0200501N005019999999N9999999N1-00211+99999099761ADDMA1999999099681MD1210161+9999REMSYN060AAXX  03231 01017 46/// /0505 11021 2//// 39968 49976 52016;
0111010170999992013010400004+77683+014783FM-12+000699999V0200401N005019999999N9999999N1-00191+99999099821ADDMA1999999099741MD1210171+9999REMSYN070AAXX  04001 01017 46/// /0405 11019 2//// 39974 49982 52017 333 91107;
0101010170999992013010401004+77683+014783FM-12+000699999V0200501N004019999999N9999999N1-00171+99999099861ADDMA1999999099781MD1210161+9999REMSYN060AAXX  04011 01017 46/// /0504 11017 2//// 39978 49986 52016;
0101010170999992013010402004+77683+014783FM-12+000699999V0200601N009019999999N9999999N1-00121+99999099931ADDMA1999999099851MD1210171+9999REMSYN060AAXX  04021 01017 46/// /0609 11012 2//// 39985 49993 52017;
0101010170999992013010403004+77683+014783FM-12+000699999V0200601N010019999999N9999999N1-00121+99999099991ADDMA1999999099911MD1210171+9999REMSYN060AAXX  04031 01017 46/// /0610 11012 2//// 39991 49999 52017;
0101010170999992013010404004+77683+014783FM-12+000699999V0200601N009019999999N9999999N1-00151+99999100061ADDMA1999999099981MD1210201+9999REMSYN060AAXX  04041 01017 46/// /0609 11015 2//// 39998 40006 52020;
0101010170999992013010405004+77683+014783FM-12+000699999V0200601N010019999999N9999999N1-00171+99999100161ADDMA1999999100071MD1210231+9999REMSYN060AAXX  04051 01017 46/// /0610 11017 2//// 30007 40016 52023;
0130010170999992013010406004+77683+014783FM-12+000699999V0200601N010019999999N9999999N1-00201+99999100221ADDKA1999N-00281MA1999999100141MD1210231+9999REMSYN076AAXX  04061 01017 46/// /0610 11020 2//// 30014 40022 52023 333 21028 91112;
0101010170999992013010407004+77683+014783FM-12+000699999V0200601N009019999999N9999999N1-00191+99999100301ADDMA1999999100211MD1210231+9999REMSYN060AAXX  04071 01017 46/// /0609 11019 2//// 30021 40030 52023;
0101010170999992013010408004+77683+014783FM-12+000699999V0200501N008019999999N9999999N1-00191+99999100391ADDMA1999999100311MD1210241+9999REMSYN060AAXX  04081 01017 46/// /0508 11019 2//// 30031 40039 52024;
0101010170999992013010409004+77683+014783FM-12+000699999V0200601N007019999999N9999999N1-00231+99999100471ADDMA1999999100391MD1210241+9999REMSYN060AAXX  04091 01017 46/// /0607 11023 2//// 30039 40047 52024;
0101010170999992013010410004+77683+014783FM-12+000699999V0200601N006019999999N9999999N1-00211+99999100551ADDMA1999999100471MD1210251+9999REMSYN060AAXX  04101 01017 46/// /0606 11021 2//// 30047 40055 52025;
0101010170999992013010411004+77683+014783FM-12+000699999V0200501N004019999999N9999999N1-00241+99999100621ADDMA1999999100541MD1210231+9999REMSYN060AAXX  04111 01017 46/// /0504 11024 2//// 30054 40062 52023;
0111010170999992013010412004+77683+014783FM-12+000699999V0200701N003019999999N9999999N1-00271+99999100701ADDMA1999999100621MD1210231+9999REMSYN070AAXX  04121 01017 46/// /0703 11027 2//// 30062 40070 52023 333 91111;
0101010170999992013010413004+77683+014783FM-12+000699999V0200501N004019999999N9999999N1-00261+99999100761ADDMA1999999100681MD1210211+9999REMSYN060AAXX  04131 01017 46/// /0504 11026 2//// 30068 40076 52021;
0101010170999992013010414004+77683+014783FM-12+000699999V0200601N005019999999N9999999N1-00301+99999100811ADDMA1999999100731MD1210191+9999REMSYN060AAXX  04141 01017 46/// /0605 11030 2//// 30073 40081 52019;
0101010170999992013010415004+77683+014783FM-12+000699999V0200501N004019999999N9999999N1-00301+99999100881ADDMA1999999100801MD1210181+9999REMSYN060AAXX  04151 01017 46/// /0504 11030 2//// 30080 40088 52018;
0101010170999992013010416004+77683+014783FM-12+000699999V0200601N003019999999N9999999N1-00321+99999100941ADDMA1999999100861MD1210181+9999REMSYN060AAXX  04161 01017 46/// /0603 11032 2//// 30086 40094 52018;
0101010170999992013010417004+77683+014783FM-12+000699999V0200701N003019999999N9999999N1-00321+99999100991ADDMA1999999100901MD1210171+9999REMSYN060AAXX  04171 01017 46/// /0703 11032 2//// 30090 40099 52017;
0130010170999992013010418004+77683+014783FM-12+000699999V0200501N004019999999N9999999N1-00341+99999101041ADDKA1120M-00171MA1999999100961MD1210161+9999REMSYN076AAXX  04181 01017 46/// /0504 11034 2//// 30096 40104 52016 333 11017 91106;
0101010170999992013010419004+77683+014783FM-12+000699999V0200701N004019999999N9999999N1-00361+99999101101ADDMA1999999101021MD1210161+9999REMSYN060AAXX  04191 01017 46/// /0704 11036 2//// 30102 40110 52016;
0101010170999992013010420004+77683+014783FM-12+000699999V0200401N006019999999N9999999N1-00381+99999101151ADDMA1999999101071MD1210171+9999REMSYN060AAXX  04201 01017 46/// /0406 11038 2//// 30107 40115 52017;
0101010170999992013010421004+77683+014783FM-12+000699999V0200601N005019999999N9999999N1-00401+99999101231ADDMA1999999101151MD1210191+9999REMSYN060AAXX  04211 01017 46/// /0605 11040 2//// 30115 40123 52019;
0101010170999992013010422004+77683+014783FM-12+000699999V0200501N006019999999N9999999N1-00411+99999101291ADDMA1999999101201MD1210181+9999REMSYN060AAXX  04221 01017 46/// /0506 11041 2//// 30120 40129 52018;
0101010170999992013010423004+77683+014783FM-12+000699999V0200501N006019999999N9999999N1-00421+99999101321ADDMA1999999101241MD1310171+9999REMSYN060AAXX  04231 01017 46/// /0506 11042 2//// 30124 40132 53017;
0111010170999992013010500004+77683+014783FM-12+000699999V0200401N005019999999N9999999N1-00441+99999101351ADDMA1999999101271MD1210121+9999REMSYN070AAXX  05001 01017 46/// /0405 11044 2//// 30127 40135 52012 333 91107;
0101010170999992013010501004+77683+014783FM-12+000699999V0200501N006019999999N9999999N1-00471+99999101401ADDMA1999999101321MD1210121+9999REMSYN060AAXX  05011 01017 46/// /0506 11047 2//// 30132 40140 52012;
0101010170999992013010502004+77683+014783FM-12+000699999V0200501N006019999999N9999999N1-00431+99999101431ADDMA1999999101351MD1210111+9999REMSYN060AAXX  05021 01017 46/// /0506 11043 2//// 30135 40143 52011;
0101010170999992013010503004+77683+014783FM-12+000699999V0200601N005019999999N9999999N1-00441+99999101491ADDMA1999999101401MD1210141+9999REMSYN060AAXX  05031 01017 46/// /0605 11044 2//// 30140 40149 52014;
0101010170999992013010504004+77683+014783FM-12+000699999V0200501N006019999999N9999999N1-00421+99999101501ADDMA1999999101421MD1210101+9999REMSYN060AAXX  05041 01017 46/// /0506 11042 2//// 30142 40150 52010;
0101010170999992013010505004+77683+014783FM-12+000699999V0200401N008019999999N9999999N1-00451+99999101511ADDMA1999999101421MD1310081+9999REMSYN060AAXX  05051 01017 46/// /0408 11045 2//// 30142 40151 53008;
0130010170999992013010506004+77683+014783FM-12+000699999V0200501N008019999999N9999999N1-00441+99999101531ADDKA1999N-00491MA1999999101451MD1210051+9999REMSYN076AAXX  05061 01017 46/// /0508 11044 2//// 30145 40153 52005 333 21049 91109;
0101010170999992013010507004+77683+014783FM-12+000699999V0200601N008019999999N9999999N1-00431+99999101541ADDMA1999999101461MD1210041+9999REMSYN060AAXX  05071 01017 46/// /0608 11043 2//// 30146 40154 52004;
0101010170999992013010508004+77683+014783FM-12+000699999V0200501N008019999999N9999999N1-00391+99999101581ADDMA1999999101491MD1210071+9999REMSYN060AAXX  05081 01017 46/// /0508 11039 2//// 30149 40158 52007;
0101010170999992013010509004+77683+014783FM-12+000699999V0200601N008019999999N9999999N1-00381+99999101641ADDMA1999999101561MD1110111+9999REMSYN060AAXX  05091 01017 46/// /0608 11038 2//// 30156 40164 51011;
0101010170999992013010510004+77683+014783FM-12+000699999V0200601N007019999999N9999999N1-00381+99999101631ADDMA1999999101541MD1310091+9999REMSYN060AAXX  05101 01017 46/// /0607 11038 2//// 30154 40163 53009;
0101010170999992013010511004+77683+014783FM-12+000699999V0200601N005019999999N9999999N1-00221+99999101611ADDMA1999999101531MD1310041+9999REMSYN060AAXX  05111 01017 46/// /0605 11022 2//// 30153 40161 53004;
0111010170999992013010512004+77683+014783FM-12+000699999V0201301N005019999999N9999999N1-00061+99999101621ADDMA1999999101541MD1410001+9999REMSYN070AAXX  05121 01017 46/// /1305 11006 2//// 30154 40162 54002 333 91110;
0101010170999992013010513004+77683+014783FM-12+000699999V0201301N006019999999N9999999N1-00051+99999101581ADDMA1999999101491MD1710051+9999REMSYN060AAXX  05131 01017 46/// /1306 11005 2//// 30149 40158 57005;
0101010170999992013010514004+77683+014783FM-12+000699999V0201201N006019999999N9999999N1-00071+99999101551ADDMA1999999101471MD1610061+9999REMSYN060AAXX  05141 01017 46/// /1206 11007 2//// 30147 40155 56006;
0101010170999992013010515004+77683+014783FM-12+000699999V0201101N008019999999N9999999N1-00031+99999101491ADDMA1999999101411MD1710131+9999REMSYN060AAXX  05151 01017 46/// /1108 11003 2//// 30141 40149 57013;
0101010170999992013010516004+77683+014783FM-12+000699999V0201201N007019999999N9999999N1+00011+99999101411ADDMA1999999101331MD1610161+9999REMSYN060AAXX  05161 01017 46/// /1207 10001 2//// 30133 40141 56016;
0101010170999992013010517004+77683+014783FM-12+000699999V0201201N006019999999N9999999N1+00001+99999101381ADDMA1999999101301MD1710171+9999REMSYN060AAXX  05171 01017 46/// /1206 10000 2//// 30130 40138 57017;
0130010170999992013010518004+77683+014783FM-12+000699999V0201301N006019999999N9999999N1+00041+99999101221ADDKA1120M+00091MA1999999101141MD1610271+9999REMSYN076AAXX  05181 01017 46/// /1306 10004 2//// 30114 40122 56027 333 10009 91113;
0101010170999992013010519004+77683+014783FM-12+000699999V0201401N012019999999N9999999N1-00041+99999101111ADDMA1999999101021MD1610311+9999REMSYN060AAXX  05191 01017 46/// /1412 11004 2//// 30102 40111 56031;
0101010170999992013010520004+77683+014783FM-12+000699999V0201401N012019999999N9999999N1+00001+99999100981ADDMA1999999100901MD1810401+9999REMSYN060AAXX  05201 01017 46/// /1412 10000 2//// 30090 40098 58040;
0101010170999992013010521004+77683+014783FM-12+000699999V0201401N013019999999N9999999N1+00021+99999100761ADDMA1999999100671MD1610461+9999REMSYN060AAXX  05211 01017 46/// /1413 10002 2//// 30067 40076 56046;
0101010170999992013010522004+77683+014783FM-12+000699999V0201301N015019999999N9999999N1-00011+99999100661ADDMA1999999100581MD1810441+9999REMSYN060AAXX  05221 01017 46/// /1315 11001 2//// 30058 40066 58044;
0101010170999992013010523004+77683+014783FM-12+000699999V0201201N014019999999N9999999N1+00051+99999100551ADDMA1999999100471MD1810431+9999REMSYN060AAXX  05231 01017 46/// /1214 10005 2//// 30047 40055 58043;
0111010170999992013010600004+77683+014783FM-12+000699999V0201201N012019999999N9999999N1+00091+99999100401ADDMA1999999100321MD1610361+9999REMSYN070AAXX  06001 01017 46/// /1212 10009 2//// 30032 40040 56036 333 91124;
0101010170999992013010601004+77683+014783FM-12+000699999V0201201N013019999999N9999999N1+00081+99999100261ADDMA1999999100181MD1710411+9999REMSYN060AAXX  06011 01017 46/// /1213 10008 2//// 30018 40026 57041;
0101010170999992013010602004+77683+014783FM-12+000699999V0201201N012019999999N9999999N1+00181+99999100091ADDMA1999999100011MD1710461+9999REMSYN060AAXX  06021 01017 46/// /1212 10018 2//// 30001 40009 57046;
0120010170999992013010603004+77683+014783FM-12+000699999V0201201N010019999999N9999999N1+00291+99999099891ADDMA1999999099811MD1610512+9999REMSYN060AAXX  06031 01017 46/// /1210 10029 2//// 39981 49989 56051;EQDQ01+000512APC3  
0101010170999992013010604004+77683+014783FM-12+000699999V0201301N008019999999N9999999N1+00331+99999099801ADDMA1999999099721MD1810461+9999REMSYN060AAXX  06041 01017 46/// /1308 10033 2//// 39972 49980 58046;
0101010170999992013010605004+77683+014783FM-12+000699999V0201301N009019999999N9999999N1+00401+99999099611ADDMA1999999099531MD1710491+9999REMSYN060AAXX  06051 01017 46/// /1309 10040 2//// 39953 49961 57049;
0130010170999992013010606004+77683+014783FM-12+000699999V0201301N007019999999N9999999N1+00381+99999099541ADDKA1999N-00061MA1999999099461MD1710351+9999REMSYN076AAXX  06061 01017 46/// /1307 10038 2//// 39946 49954 57035 333 21006 91122;
0101010170999992013010607004+77683+014783FM-12+000699999V0201501N004019999999N9999999N1+00451+99999099531ADDMA1999999099451MD1810261+9999REMSYN060AAXX  06071 01017 46/// /1504 10045 2//// 39945 49953 58026;
0101010170999992013010608004+77683+014783FM-12+000699999V0201801N006019999999N9999999N1+00491+99999099531ADDMA1999999099451MD1810081+9999REMSYN060AAXX  06081 01017 46/// /1806 10049 2//// 39945 49953 58008;
0101010170999992013010609004+77683+014783FM-12+000699999V0202001N004019999999N9999999N1+00421+99999099541ADDMA1999999099461MD1410001+9999REMSYN060AAXX  06091 01017 46/// /2004 10042 2//// 39946 49954 54000;
0101010170999992013010610004+77683+014783FM-12+000699999V0203301N002019999999N9999999N1+00381+99999099501ADDMA1999999099421MD1610031+9999REMSYN060AAXX  06101 01017 46/// /3302 10038 2//// 39942 49950 56003;
0101010170999992013010611004+77683+014783FM-12+000699999V0200201N003019999999N9999999N1+00191+99999099501ADDMA1999999099421MD1710031+9999REMSYN060AAXX  06111 01017 46/// /0203 10019 2//// 39942 49950 57003;
0111010170999992013010612004+77683+014783FM-12+000699999V0200401N004019999999N9999999N1+00041+99999099471ADDMA1999999099391MD1710071+9999REMSYN070AAXX  06121 01017 46/// /0404 10004 2//// 39939 49947 57007 333 91112;
0101010170999992013010613004+77683+014783FM-12+000699999V0200101N003019999999N9999999N1+00031+99999099461ADDMA1999999099381MD1710031+9999REMSYN060AAXX  06131 01017 46/// /0103 10003 2//// 39938 49946 57003;
0101010170999992013010614004+77683+014783FM-12+000699999V0200501N005019999999N9999999N1+00081+99999099411ADDMA1999999099331MD1710081+9999REMSYN060AAXX  06141 01017 46/// /0505 10008 2//// 39933 49941 57008;
0101010170999992013010615004+77683+014783FM-12+000699999V0200401N005019999999N9999999N1+00051+99999099351ADDMA1999999099271MD1610121+9999REMSYN060AAXX  06151 01017 46/// /0405 10005 2//// 39927 49935 56012;
0101010170999992013010616004+77683+014783FM-12+000699999V0200601N005019999999N9999999N1+00091+99999099311ADDMA1999999099231MD1710151+9999REMSYN060AAXX  06161 01017 46/// /0605 10009 2//// 39923 49931 57015;
0101010170999992013010617004+77683+014783FM-12+000699999V0200501N004019999999N9999999N1+00081+99999099251ADDMA1999999099171MD1710161+9999REMSYN060AAXX  06171 01017 46/// /0504 10008 2//// 39917 49925 57016;
0130010170999992013010618004+77683+014783FM-12+000699999V0200601N004019999999N9999999N1+00031+99999099201ADDKA1120M+00511MA1999999099121MD1710151+9999REMSYN076AAXX  06181 01017 46/// /0604 10003 2//// 39912 49920 57015 333 10051 91106;
0101010170999992013010619004+77683+014783FM-12+000699999V0200701N003019999999N9999999N1+00041+99999099191ADDMA1999999099111MD1810121+9999REMSYN060AAXX  06191 01017 46/// /0703 10004 2//// 39911 49919 58012;
0101010170999992013010620004+77683+014783FM-12+000699999V0200601N002019999999N9999999N1+00041+99999099191ADDMA1999999099111MD1810071+9999REMSYN060AAXX  06201 01017 46/// /0602 10004 2//// 39911 49919 58007;
0101010170999992013010621004+77683+014783FM-12+000699999V0209999C000019999999N9999999N1+00031+99999099221ADDMA1999999099141MD1010011+9999REMSYN060AAXX  06211 01017 46/// /0000 10003 2//// 39914 49922 50001;
0101010170999992013010622004+77683+014783FM-12+000699999V0202301N004019999999N9999999N1+00011+99999099281ADDMA1999999099201MD1110091+9999REMSYN060AAXX  06221 01017 46/// /2304 10001 2//// 39920 49928 51009;
0101010170999992013010623004+77683+014783FM-12+000699999V0202401N006019999999N9999999N1+00101+99999099351ADDMA1999999099271MD1110161+9999REMSYN060AAXX  06231 01017 46/// /2406 10010 2//// 39927 49935 51016;
0111010170999992013010700004+77683+014783FM-12+000699999V0202401N008019999999N9999999N1+00101+99999099421ADDMA1999999099341MD1210201+9999REMSYN070AAXX  07001 01017 46/// /2408 10010 2//// 39934 49942 52020 333 91110;
0101010170999992013010701004+77683+014783FM-12+000699999V0202301N008019999999N9999999N1+00051+99999099491ADDMA1999999099411MD1210211+9999REMSYN060AAXX  07011 01017 46/// /2308 10005 2//// 39941 49949 52021;
0101010170999992013010702004+77683+014783FM-12+000699999V0202201N006019999999N9999999N1+00031+99999099521ADDMA1999999099441MD1310171+9999REMSYN060AAXX  07021 01017 46/// /2206 10003 2//// 39944 49952 53017;
0101010170999992013010703004+77683+014783FM-12+000699999V0202201N009019999999N9999999N1+00041+99999099511ADDMA1999999099431MD1310101+9999REMSYN060AAXX  07031 01017 46/// /2209 10004 2//// 39943 49951 53010;
0101010170999992013010704004+77683+014783FM-12+000699999V0202201N007019999999N9999999N1-00011+99999099531ADDMA1999999099451MD1210041+9999REMSYN060AAXX  07041 01017 46/// /2207 11001 2//// 39945 49953 52004;
0101010170999992013010705004+77683+014783FM-12+000699999V0202001N008019999999N9999999N1+00001+99999099521ADDMA1999999099441MD1410001+9999REMSYN060AAXX  07051 01017 46/// /2008 10000 2//// 39944 49952 54000;
0130010170999992013010706004+77683+014783FM-12+000699999V0202001N008019999999N9999999N1+00031+99999099491ADDKA1999N-00021MA1999999099411MD1510021+9999REMSYN076AAXX  07061 01017 46/// /2008 10003 2//// 39941 49949 55002 333 21002 91112;
0101010170999992013010707004+77683+014783FM-12+000699999V0202001N010019999999N9999999N1+00041+99999099481ADDMA1999999099401MD1710061+9999REMSYN060AAXX  07071 01017 46/// /2010 10004 2//// 39940 49948 57006;
0101010170999992013010708004+77683+014783FM-12+000699999V0201901N008019999999N9999999N1-00011+99999099471ADDMA1999999099391MD1710051+9999REMSYN060AAXX  07081 01017 46/// /1908 11001 2//// 39939 49947 57005;
0101010170999992013010709004+77683+014783FM-12+000699999V0202001N008019999999N9999999N1-00071+99999099481ADDMA1999999099401MD1410001+9999REMSYN060AAXX  07091 01017 46/// /2008 11007 2//// 39940 49948 54001;
0101010170999992013010710004+77683+014783FM-12+000699999V0202001N008019999999N9999999N1-00021+99999099481ADDMA1999999099401MD1410001+9999REMSYN060AAXX  07101 01017 46/// /2008 11002 2//// 39940 49948 54000;
0101010170999992013010711004+77683+014783FM-12+000699999V0202001N009019999999N9999999N1+00021+99999099461ADDMA1999999099381MD1410001+9999REMSYN060AAXX  07111 01017 46/// /2009 10002 2//// 39938 49946 54001;
0111010170999992013010712004+77683+014783FM-12+000699999V0202501N011019999999N9999999N1-00151+99999099531ADDMA1999999099451MD1110061+9999REMSYN070AAXX  07121 01017 46/// /2511 11015 2//// 39945 49953 51006 333 91114;
0101010170999992013010713004+77683+014783FM-12+000699999V0202401N011019999999N9999999N1-00201+99999099591ADDMA1999999099511MD1110111+9999REMSYN060AAXX  07131 01017 46/// /2411 11020 2//// 39951 49959 51011;
0101010170999992013010714004+77683+014783FM-12+000699999V0202501N010019999999N9999999N1-00251+99999099651ADDMA1999999099571MD1210191+9999REMSYN060AAXX  07141 01017 46/// /2510 11025 2//// 39957 49965 52019;
0101010170999992013010715004+77683+014783FM-12+000699999V0202501N011019999999N9999999N1-00331+99999099711ADDMA1999999099621MD1210171+9999REMSYN060AAXX  07151 01017 46/// /2511 11033 2//// 39962 49971 52017;
0101010170999992013010716004+77683+014783FM-12+000699999V0202401N010019999999N9999999N1-00471+99999099771ADDMA1999999099691MD1210181+9999REMSYN060AAXX  07161 01017 46/// /2410 11047 2//// 39969 49977 52018;
0101010170999992013010717004+77683+014783FM-12+000699999V0202501N011019999999N9999999N1-00441+99999099791ADDMA1999999099711MD1310141+9999REMSYN060AAXX  07171 01017 46/// /2511 11044 2//// 39971 49979 53014;
0130010170999992013010718004+77683+014783FM-12+000699999V0202401N010019999999N9999999N1-00451+99999099841ADDKA1120M+00091MA1999999099761MD1210141+9999REMSYN076AAXX  07181 01017 46/// /2410 11045 2//// 39976 49984 52014 333 10009 91115;
0101010170999992013010719004+77683+014783FM-12+000699999V0202401N010019999999N9999999N1-00511+99999099911ADDMA1999999099831MD1110141+9999REMSYN060AAXX  07191 01017 46/// /2410 11051 2//// 39983 49991 51014;
0101010170999992013010720004+77683+014783FM-12+000699999V0202201N007019999999N9999999N1-00501+99999099961ADDMA1999999099881MD1210181+9999REMSYN060AAXX  07201 01017 46/// /2207 11050 2//// 39988 49996 52018;
0101010170999992013010721004+77683+014783FM-12+000699999V0202401N011019999999N9999999N1-00521+99999099971ADDMA1999999099881MD1310131+9999REMSYN060AAXX  07211 01017 46/// /2411 11052 2//// 39988 49997 53013;
0101010170999992013010722004+77683+014783FM-12+000699999V0202401N010019999999N9999999N1-00441+99999100011ADDMA1999999099931MD1210101+9999REMSYN060AAXX  07221 01017 46/// /2410 11044 2//// 39993 40001 52010;
0101010170999992013010723004+77683+014783FM-12+000699999V0202301N010019999999N9999999N1-00471+99999100041ADDMA1999999099961MD1210081+9999REMSYN060AAXX  07231 01017 46/// /2310 11047 2//// 39996 40004 52008;
0111010170999992013010800004+77683+014783FM-12+000699999V0202401N010019999999N9999999N1-00441+99999100041ADDMA1999999099961MD1310071+9999REMSYN070AAXX  08001 01017 46/// /2410 11044 2//// 39996 40004 53007 333 91115;
0101010170999992013010801004+77683+014783FM-12+000699999V0202401N009019999999N9999999N1-00491+99999100041ADDMA1999999099961MD1410001+9999REMSYN060AAXX  08011 01017 46/// /2409 11049 2//// 39996 40004 54003;
0101010170999992013010802004+77683+014783FM-12+000699999V0202401N006019999999N9999999N1-00531+99999100091ADDMA1999999100011MD1110051+9999REMSYN060AAXX  08021 01017 46/// /2406 11053 2//// 30001 40009 51005;
0101010170999992013010803004+77683+014783FM-12+000699999V0202501N008019999999N9999999N1-00471+99999100081ADDMA1999999100001MD1210041+9999REMSYN060AAXX  08031 01017 46/// /2508 11047 2//// 30000 40008 52004;
0101010170999992013010804004+77683+014783FM-12+000699999V0202201N007019999999N9999999N1-00491+99999100091ADDMA1999999100001MD1310051+9999REMSYN060AAXX  08041 01017 46/// /2207 11049 2//// 30000 40009 53005;
0101010170999992013010805004+77683+014783FM-12+000699999V0202501N006019999999N9999999N1-00511+99999100111ADDMA1999999100031MD1010021+9999REMSYN060AAXX  08051 01017 46/// /2506 11051 2//// 30003 40011 50002;
0130010170999992013010806004+77683+014783FM-12+000699999V0202501N004019999999N9999999N1-00491+99999100141ADDKA1999N-00581MA1999999100061MD1210061+9999REMSYN076AAXX  08061 01017 46/// /2504 11049 2//// 30006 40014 52006 333 21058 91112;
0101010170999992013010807004+77683+014783FM-12+000699999V0202901N004019999999N9999999N1-00531+99999100201ADDMA1999999100121MD1210111+9999REMSYN060AAXX  08071 01017 46/// /2904 11053 2//// 30012 40020 52011;
0101010170999992013010808004+77683+014783FM-12+000699999V0203501N002019999999N9999999N1-00561+99999100231ADDMA1999999100141MD1210111+9999REMSYN060AAXX  08081 01017 46/// /3502 11056 2//// 30014 40023 52011;
0101010170999992013010809004+77683+014783FM-12+000699999V0203401N003019999999N9999999N1-00741+99999100261ADDMA1999999100181MD1210121+9999REMSYN060AAXX  08091 01017 46/// /3403 11074 2//// 30018 40026 52012;
0101010170999992013010810004+77683+014783FM-12+000699999V0203501N004019999999N9999999N1-00631+99999100321ADDMA1999999100241MD1110121+9999REMSYN060AAXX  08101 01017 46/// /3504 11063 2//// 30024 40032 51012;
0101010170999992013010811004+77683+014783FM-12+000699999V0203601N004019999999N9999999N1-00601+99999100371ADDMA1999999100291MD1210141+9999REMSYN060AAXX  08111 01017 46/// /3604 11060 2//// 30029 40037 52014;
0111010170999992013010812004+77683+014783FM-12+000699999V0200901N002019999999N9999999N1-00541+99999100431ADDMA1999999100351MD1210171+9999REMSYN070AAXX  08121 01017 46/// /0902 11054 2//// 30035 40043 52017 333 91107;
0101010170999992013010813004+77683+014783FM-12+000699999V0203301N001019999999N9999999N1-00641+99999100491ADDMA1999999100401MD1210161+9999REMSYN060AAXX  08131 01017 46/// /3301 11064 2//// 30040 40049 52016;
0101010170999992013010814004+77683+014783FM-12+000699999V0203501N001019999999N9999999N1-00611+99999100541ADDMA1999999100451MD1210171+9999REMSYN060AAXX  08141 01017 46/// /3501 11061 2//// 30045 40054 52017;
0101010170999992013010815004+77683+014783FM-12+000699999V0209999C000019999999N9999999N1-00611+99999100611ADDMA1999999100531MD1210181+9999REMSYN060AAXX  08151 01017 46/// /0000 11061 2//// 30053 40061 52018;
0101010170999992013010816004+77683+014783FM-12+000699999V0203401N003019999999N9999999N1-00611+99999100701ADDMA1999999100621MD1110221+9999REMSYN060AAXX  08161 01017 46/// /3403 11061 2//// 30062 40070 51022;
0101010170999992013010817004+77683+014783FM-12+000699999V0200101N003019999999N9999999N1-00501+99999100771ADDMA1999999100691MD1210241+9999REMSYN060AAXX  08171 01017 46/// /0103 11050 2//// 30069 40077 52024;
0130010170999992013010818004+77683+014783FM-12+000699999V0203501N003019999999N9999999N1-00551+99999100831ADDKA1120M-00481MA1999999100741MD1310211+9999REMSYN076AAXX  08181 01017 46/// /3503 11055 2//// 30074 40083 53021 333 11048 91105;
0101010170999992013010819004+77683+014783FM-12+000699999V0203301N003019999999N9999999N1-00641+99999100911ADDMA1999999100821MD1210201+9999REMSYN060AAXX  08191 01017 46/// /3303 11064 2//// 30082 40091 52020;
0101010170999992013010821004+77683+014783FM-12+000699999V0203601N003019999999N9999999N1-00561+99999101041ADDMA1999999100961MD1310221+9999REMSYN060AAXX  08211 01017 46/// /3603 11056 2//// 30096 40104 53022;
0101010170999992013010823004+77683+014783FM-12+000699999V0203601N003019999999N9999999N1-00601+99999101211ADDMA1999999101131MD1110201+9999REMSYN060AAXX  08231 01017 46/// /3603 11060 2//// 30113 40121 51020;
0111010170999992013010900004+77683+014783FM-12+000699999V0203601N003019999999N9999999N1-00601+99999101261ADDMA1999999101171MD1310211+9999REMSYN070AAXX  09001 01017 46/// /3603 11060 2//// 30117 40126 53021 333 91104;
0101010170999992013010901004+77683+014783FM-12+000699999V0203401N003019999999N9999999N1-00691+99999101321ADDMA1999999101241MD1210201+9999REMSYN060AAXX  09011 01017 46/// /3403 11069 2//// 30124 40132 52020;
0101010170999992013010902004+77683+014783FM-12+000699999V0203501N002019999999N9999999N1-00611+99999101381ADDMA1999999101301MD1210171+9999REMSYN060AAXX  09021 01017 46/// /3502 11061 2//// 30130 40138 52017;
0101010170999992013010903004+77683+014783FM-12+000699999V0203401N002019999999N9999999N1-00651+99999101391ADDMA1999999101311MD1310131+9999REMSYN060AAXX  09031 01017 46/// /3402 11065 2//// 30131 40139 53013;
0101010170999992013010904004+77683+014783FM-12+000699999V0200101N002019999999N9999999N1-00611+99999101421ADDMA1999999101341MD1210101+9999REMSYN060AAXX  09041 01017 46/// /0102 11061 2//// 30134 40142 52010;
0101010170999992013010905004+77683+014783FM-12+000699999V0203601N002019999999N9999999N1-00601+99999101511ADDMA1999999101421MD1110131+9999REMSYN060AAXX  09051 01017 46/// /3602 11060 2//// 30142 40151 51013;
0130010170999992013010906004+77683+014783FM-12+000699999V0200901N002019999999N9999999N1-00591+99999101541ADDKA1999N-00721MA1999999101461MD1210151+9999REMSYN076AAXX  09061 01017 46/// /0902 11059 2//// 30146 40154 52015 333 21072 91104;
0101010170999992013010907004+77683+014783FM-12+000699999V0209999C000019999999N9999999N1-00581+99999101581ADDMA1999999101491MD1310151+9999REMSYN060AAXX  09071 01017 46/// /0000 11058 2//// 30149 40158 53015;
0101010170999992013010908004+77683+014783FM-12+000699999V0209999C000019999999N9999999N1-00571+99999101591ADDMA1999999101511MD1210091+9999REMSYN060AAXX  09081 01017 46/// /0000 11057 2//// 30151 40159 52009;
0101010170999992013010909004+77683+014783FM-12+000699999V0209999C000019999999N9999999N1-00531+99999101641ADDMA1999999101561MD1210101+9999REMSYN060AAXX  09091 01017 46/// /0000 11053 2//// 30156 40164 52010;
0101010170999992013010910004+77683+014783FM-12+000699999V0202101N004019999999N9999999N1-00411+99999101611ADDMA1999999101531MD1310031+9999REMSYN060AAXX  09101 01017 46/// /2104 11041 2//// 30153 40161 53003;
0101010170999992013010911004+77683+014783FM-12+000699999V0202501N004019999999N9999999N1-00371+99999101621ADDMA1999999101531MD1510021+9999REMSYN060AAXX  09111 01017 46/// /2504 11037 2//// 30153 40162 55002;
0111010170999992013010912004+77683+014783FM-12+000699999V0202701N005019999999N9999999N1-00331+99999101631ADDMA1999999101541MD1010021+9999REMSYN070AAXX  09121 01017 46/// /2705 11033 2//// 30154 40163 50002 333 91107;
0101010170999992013010913004+77683+014783FM-12+000699999V0202401N006019999999N9999999N1-00261+99999101621ADDMA1999999101541MD1410001+9999REMSYN060AAXX  09131 01017 46/// /2406 11026 2//// 30154 40162 54002;
0101010170999992013010914004+77683+014783FM-12+000699999V0202301N007019999999N9999999N1-00181+99999101561ADDMA1999999101481MD1610051+9999REMSYN060AAXX  09141 01017 46/// /2307 11018 2//// 30148 40156 56005;
0101010170999992013010915004+77683+014783FM-12+000699999V0202401N008019999999N9999999N1-00121+99999101531ADDMA1999999101441MD1610101+9999REMSYN060AAXX  09151 01017 46/// /2408 11012 2//// 30144 40153 56010;
0101010170999992013010916004+77683+014783FM-12+000699999V0202401N008019999999N9999999N1-00091+99999101511ADDMA1999999101421MD1810121+9999REMSYN060AAXX  09161 01017 46/// /2408 11009 2//// 30142 40151 58012;
0101010170999992013010917004+77683+014783FM-12+000699999V0202401N009019999999N9999999N1-00081+99999101471ADDMA1999999101391MD1710091+9999REMSYN060AAXX  09171 01017 46/// /2409 11008 2//// 30139 40147 57009;
0130010170999992013010918004+77683+014783FM-12+000699999V0202501N008019999999N9999999N1-00041+99999101451ADDKA1120M-00041MA1999999101371MD1710081+9999REMSYN076AAXX  09181 01017 46/// /2508 11004 2//// 30137 40145 57008 333 11004 91111;
0101010170999992013010919004+77683+014783FM-12+000699999V0202401N010019999999N9999999N1-00061+99999101421ADDMA1999999101341MD1710081+9999REMSYN060AAXX  09191 01017 46/// /2410 11006 2//// 30134 40142 57008;
0101010170999992013010920004+77683+014783FM-12+000699999V0202401N008019999999N9999999N1-00021+99999101411ADDMA1999999101331MD1710061+9999REMSYN060AAXX  09201 01017 46/// /2408 11002 2//// 30133 40141 57006;
0101010170999992013010921004+77683+014783FM-12+000699999V0202401N010019999999N9999999N1-00071+99999101371ADDMA1999999101281MD1710081+9999REMSYN060AAXX  09211 01017 46/// /2410 11007 2//// 30128 40137 57008;
0101010170999992013010922004+77683+014783FM-12+000699999V0202401N008019999999N9999999N1-00041+99999101381ADDMA1999999101301MD1710041+9999REMSYN060AAXX  09221 01017 46/// /2408 11004 2//// 30130 40138 57004;
0101010170999992013010923004+77683+014783FM-12+000699999V0202501N008019999999N9999999N1-00061+99999101411ADDMA1999999101331MD1010001+9999REMSYN060AAXX  09231 01017 46/// /2508 11006 2//// 30133 40141 50000;
0111010170999992013011000004+77683+014783FM-12+000699999V0202301N009019999999N9999999N1-00011+99999101321ADDMA1999999101241MD1610051+9999REMSYN070AAXX  10001 01017 46/// /2309 11001 2//// 30124 40132 56005 333 91112;
0101010170999992013011001004+77683+014783FM-12+000699999V0202501N006019999999N9999999N1+00021+99999101371ADDMA1999999101291MD1410001+9999REMSYN060AAXX  10011 01017 46/// /2506 10002 2//// 30129 40137 54001;
0101010170999992013011002004+77683+014783FM-12+000699999V0202501N005019999999N9999999N1+00051+99999101391ADDMA1999999101311MD1010021+9999REMSYN060AAXX  10021 01017 46/// /2505 10005 2//// 30131 40139 50002;
0101010170999992013011003004+77683+014783FM-12+000699999V0202501N003019999999N9999999N1+00031+99999101411ADDMA1999999101331MD1310091+9999REMSYN060AAXX  10031 01017 46/// /2503 10003 2//// 30133 40141 53009;
0101010170999992013011004004+77683+014783FM-12+000699999V0202901N001019999999N9999999N1-00071+99999101411ADDMA1999999101321MD1210031+9999REMSYN060AAXX  10041 01017 46/// /2901 11007 2//// 30132 40141 52003;
0101010170999992013011005004+77683+014783FM-12+000699999V0202201N002019999999N9999999N1-00031+99999101391ADDMA1999999101311MD1510001+9999REMSYN060AAXX  10051 01017 46/// /2202 11003 2//// 30131 40139 55000;
0130010170999992013011006004+77683+014783FM-12+000699999V0202201N002019999999N9999999N1-00021+99999101371ADDKA1999N-00101MA1999999101291MD1710041+9999REMSYN076AAXX  10061 01017 46/// /2202 11002 2//// 30129 40137 57004 333 21010 91109;
0101010170999992013011007004+77683+014783FM-12+000699999V0202401N005019999999N9999999N1+00021+99999101301ADDMA1999999101211MD1610111+9999REMSYN060AAXX  10071 01017 46/// /2405 10002 2//// 30121 40130 56011;
0101010170999992013011008004+77683+014783FM-12+000699999V0202401N006019999999N9999999N1+00061+99999101251ADDMA1999999101171MD1710141+9999REMSYN060AAXX  10081 01017 46/// /2406 10006 2//// 30117 40125 57014;
0101010170999992013011009004+77683+014783FM-12+000699999V0202101N006019999999N9999999N1+00021+99999101201ADDMA1999999101121MD1710171+9999REMSYN060AAXX  10091 01017 46/// /2106 10002 2//// 30112 40120 57017;
0101010170999992013011010004+77683+014783FM-12+000699999V0202401N008019999999N9999999N1+00051+99999101151ADDMA1999999101071MD1710151+9999REMSYN060AAXX  10101 01017 46/// /2408 10005 2//// 30107 40115 57015;
0101010170999992013011011004+77683+014783FM-12+000699999V0202401N008019999999N9999999N1+00061+99999101091ADDMA1999999101011MD1710161+9999REMSYN060AAXX  10111 01017 46/// /2408 10006 2//// 30101 40109 57016;
0111010170999992013011012004+77683+014783FM-12+000699999V0202301N007019999999N9999999N1+00041+99999101011ADDMA1999999100931MD1610191+9999REMSYN070AAXX  10121 01017 46/// /2307 10004 2//// 30093 40101 56019 333 91111;
0101010170999992013011013004+77683+014783FM-12+000699999V0202301N007019999999N9999999N1+00021+99999100901ADDMA1999999100821MD1610251+9999REMSYN060AAXX  10131 01017 46/// /2307 10002 2//// 30082 40090 56025;
0101010170999992013011014004+77683+014783FM-12+000699999V0202401N011019999999N9999999N1+00031+99999100791ADDMA1999999100711MD1610301+9999REMSYN060AAXX  10141 01017 46/// /2411 10003 2//// 30071 40079 56030;
0101010170999992013011015004+77683+014783FM-12+000699999V0202401N011019999999N9999999N1+00041+99999100791ADDMA1999999100711MD1810221+9999REMSYN060AAXX  10151 01017 46/// /2411 10004 2//// 30071 40079 58022;
0101010170999992013011016004+77683+014783FM-12+000699999V0202401N008019999999N9999999N1+00021+99999100781ADDMA1999999100701MD1810121+9999REMSYN060AAXX  10161 01017 46/// /2408 10002 2//// 30070 40078 58012;
0101010170999992013011017004+77683+014783FM-12+000699999V0202301N007019999999N9999999N1+00021+99999100641ADDMA1999999100561MD1610151+9999REMSYN060AAXX  10171 01017 46/// /2307 10002 2//// 30056 40064 56015;
0130010170999992013011018004+77683+014783FM-12+000699999V0202301N007019999999N9999999N1-00021+99999100581ADDKA1120M+00091MA1999999100491MD1610211+9999REMSYN076AAXX  10181 01017 46/// /2307 11002 2//// 30049 40058 56021 333 10009 91114;
0101010170999992013011019004+77683+014783FM-12+000699999V0202101N007019999999N9999999N1+00001+99999100471ADDMA1999999100391MD1810311+9999REMSYN060AAXX  10191 01017 46/// /2107 10000 2//// 30039 40047 58031;
0101010170999992013011020004+77683+014783FM-12+000699999V0202101N009019999999N9999999N1+00021+99999100301ADDMA1999999100221MD1610341+9999REMSYN060AAXX  10201 01017 46/// /2109 10002 2//// 30022 40030 56034;
0101010170999992013011021004+77683+014783FM-12+000699999V0202001N011019999999N9999999N1+00041+99999100131ADDMA1999999100051MD1610451+9999REMSYN060AAXX  10211 01017 46/// /2011 10004 2//// 30005 40013 56045;
0101010170999992013011022004+77683+014783FM-12+000699999V0202101N010019999999N9999999N1+00131+99999099971ADDMA1999999099891MD1710501+9999REMSYN060AAXX  10221 01017 46/// /2110 10013 2//// 39989 49997 57050;
0101010170999992013011023004+77683+014783FM-12+000699999V0202201N011019999999N9999999N1+00151+99999099901ADDMA1999999099821MD1810401+9999REMSYN060AAXX  10231 01017 46/// /2211 10015 2//// 39982 49990 58040;
0111010170999992013011100004+77683+014783FM-12+000699999V0202301N012019999999N9999999N1+00111+99999099801ADDMA1999999099721MD1810331+9999REMSYN070AAXX  11001 01017 46/// /2312 10011 2//// 39972 49980 58033 333 91115;
0101010170999992013011101004+77683+014783FM-12+000699999V0202401N011019999999N9999999N1+00111+99999099791ADDMA1999999099711MD1810171+9999REMSYN060AAXX  11011 01017 46/// /2411 10011 2//// 39971 49979 58017;
0101010170999992013011102004+77683+014783FM-12+000699999V0202501N011019999999N9999999N1+00041+99999099761ADDMA1999999099681MD1810131+9999REMSYN060AAXX  11021 01017 46/// /2511 10004 2//// 39968 49976 58013;
0101010170999992013011103004+77683+014783FM-12+000699999V0202601N011019999999N9999999N1+00041+99999099761ADDMA1999999099681MD1710041+9999REMSYN060AAXX  11031 01017 46/// /2611 10004 2//// 39968 49976 57004;
0101010170999992013011104004+77683+014783FM-12+000699999V0202501N011019999999N9999999N1+00041+99999099731ADDMA1999999099651MD1710061+9999REMSYN060AAXX  11041 01017 46/// /2511 10004 2//// 39965 49973 57006;
0101010170999992013011105004+77683+014783FM-12+000699999V0202501N010019999999N9999999N1+00031+99999099771ADDMA1999999099691MD1010001+9999REMSYN060AAXX  11051 01017 46/// /2510 10003 2//// 39969 49977 50000;
0130010170999992013011106004+77683+014783FM-12+000699999V0202401N008019999999N9999999N1+00011+99999099781ADDKA1999N-00021MA1999999099701MD1010031+9999REMSYN076AAXX  11061 01017 46/// /2408 10001 2//// 39970 49978 50003 333 21002 91114;
0101010170999992013011107004+77683+014783FM-12+000699999V0202501N009019999999N9999999N1+00031+99999099771ADDMA1999999099691MD1310031+9999REMSYN060AAXX  11071 01017 46/// /2509 10003 2//// 39969 49977 53003;
0101010170999992013011108004+77683+014783FM-12+000699999V0202601N011019999999N9999999N1+00011+99999099771ADDMA1999999099691MD1410001+9999REMSYN060AAXX  11081 01017 46/// /2611 10001 2//// 39969 49977 54001;
0101010170999992013011109004+77683+014783FM-12+000699999V0202701N011019999999N9999999N1-00041+99999099851ADDMA1999999099771MD1110071+9999REMSYN060AAXX  11091 01017 46/// /2711 11004 2//// 39977 49985 51007;
0101010170999992013011110004+77683+014783FM-12+000699999V0203001N010019999999N9999999N1-00271+99999099961ADDMA1999999099881MD1110191+9999REMSYN060AAXX  11101 01017 46/// /3010 11027 2//// 39988 49996 51019;
0101010170999992013011111004+77683+014783FM-12+000699999V0203001N008019999999N9999999N1-00331+99999100101ADDMA1999999100021MD1110321+9999REMSYN060AAXX  11111 01017 46/// /3008 11033 2//// 30002 40010 51032;
0111010170999992013011112004+77683+014783FM-12+000699999V0203101N008019999999N9999999N1-00451+99999100191ADDMA1999999100111MD1210341+9999REMSYN070AAXX  11121 01017 46/// /3108 11045 2//// 30011 40019 52034 333 91115;
0101010170999992013011113004+77683+014783FM-12+000699999V0203101N008019999999N9999999N1-00491+99999100231ADDMA1999999100151MD1310271+9999REMSYN060AAXX  11131 01017 46/// /3108 11049 2//// 30015 40023 53027;
0101010170999992013011114004+77683+014783FM-12+000699999V0203001N010019999999N9999999N1-00511+99999100301ADDMA1999999100221MD1210211+9999REMSYN060AAXX  11141 01017 46/// /3010 11051 2//// 30022 40030 52021;
0101010170999992013011115004+77683+014783FM-12+000699999V0203101N009019999999N9999999N1-00511+99999100361ADDMA1999999100281MD1210171+9999REMSYN060AAXX  11151 01017 46/// /3109 11051 2//// 30028 40036 52017;
0101010170999992013011116004+77683+014783FM-12+000699999V0203001N012019999999N9999999N1-00531+99999100351ADDMA1999999100271MD1310121+9999REMSYN060AAXX  11161 01017 46/// /3012 11053 2//// 30027 40035 53012;
0101010170999992013011117004+77683+014783FM-12+000699999V0203001N011019999999N9999999N1-00521+99999100391ADDMA1999999100301MD1210081+9999REMSYN060AAXX  11171 01017 46/// /3011 11052 2//// 30030 40039 52008;
0130010170999992013011118004+77683+014783FM-12+000699999V0203001N011019999999N9999999N1-00601+99999100441ADDKA1120M+00041MA1999999100361MD1110081+9999REMSYN076AAXX  11181 01017 46/// /3011 11060 2//// 30036 40044 51008 333 10004 91114;
0101010170999992013011119004+77683+014783FM-12+000699999V0203101N010019999999N9999999N1-00601+99999100511ADDMA1999999100431MD1110161+9999REMSYN060AAXX  11191 01017 46/// /3110 11060 2//// 30043 40051 51016;
0101010170999992013011120004+77683+014783FM-12+000699999V0203101N009019999999N9999999N1-00671+99999100611ADDMA1999999100531MD1110221+9999REMSYN060AAXX  11201 01017 46/// /3109 11067 2//// 30053 40061 51022;
0101010170999992013011121004+77683+014783FM-12+000699999V0203001N011019999999N9999999N1-00691+99999100641ADDMA1999999100551MD1310191+9999REMSYN060AAXX  11211 01017 46/// /3011 11069 2//// 30055 40064 53019;
0101010170999992013011122004+77683+014783FM-12+000699999V0203001N011019999999N9999999N1-00641+99999100661ADDMA1999999100581MD1310151+9999REMSYN060AAXX  11221 01017 46/// /3011 11064 2//// 30058 40066 53015;
0101010170999992013011123004+77683+014783FM-12+000699999V0203101N011019999999N9999999N1-00641+99999100721ADDMA1999999100631MD1110101+9999REMSYN060AAXX  11231 01017 46/// /3111 11064 2//// 30063 40072 51010;
0111010170999992013011200004+77683+014783FM-12+000699999V0203501N004019999999N9999999N1-00561+99999100791ADDMA1999999100711MD1110161+9999REMSYN070AAXX  12001 01017 46/// /3504 11056 2//// 30071 40079 51016 333 91115;
0101010170999992013011201004+77683+014783FM-12+000699999V0200701N001019999999N9999999N1-00581+99999100841ADDMA1999999100761MD1210191+9999REMSYN060AAXX  12011 01017 46/// /0701 11058 2//// 30076 40084 52019;
0101010170999992013011202004+77683+014783FM-12+000699999V0203001N003019999999N9999999N1-00531+99999100881ADDMA1999999100801MD1310171+9999REMSYN060AAXX  12021 01017 46/// /3003 11053 2//// 30080 40088 53017;
0101010170999992013011203004+77683+014783FM-12+000699999V0200301N001019999999N9999999N1-00481+99999100911ADDMA1999999100831MD1210121+9999REMSYN060AAXX  12031 01017 46/// /0301 11048 2//// 30083 40091 52012;
0101010170999992013011204004+77683+014783FM-12+000699999V0200301N004019999999N9999999N1-00471+99999100991ADDMA1999999100911MD1110151+9999REMSYN060AAXX  12041 01017 46/// /0304 11047 2//// 30091 40099 51015;
0101010170999992013011205004+77683+014783FM-12+000699999V0200601N004019999999N9999999N1-00491+99999101101ADDMA1999999101011MD1110211+9999REMSYN060AAXX  12051 01017 46/// /0604 11049 2//// 30101 40110 51021;
0130010170999992013011206004+77683+014783FM-12+000699999V0200501N005019999999N9999999N1-00531+99999101201ADDKA1999N-00701MA1999999101121MD1210291+9999REMSYN076AAXX  12061 01017 46/// /0505 11053 2//// 30112 40120 52029 333 21070 91107;
0101010170999992013011207004+77683+014783FM-12+000699999V0200401N004019999999N9999999N1-00541+99999101281ADDMA1999999101201MD1210291+9999REMSYN060AAXX  12071 01017 46/// /0404 11054 2//// 30120 40128 52029;
0101010170999992013011208004+77683+014783FM-12+000699999V0200501N002019999999N9999999N1-00571+99999101351ADDMA1999999101271MD1310251+9999REMSYN060AAXX  12081 01017 46/// /0502 11057 2//// 30127 40135 53025;
0101010170999992013011209004+77683+014783FM-12+000699999V0203601N004019999999N9999999N1-00581+99999101431ADDMA1999999101351MD1210231+9999REMSYN060AAXX  12091 01017 46/// /3604 11058 2//// 30135 40143 52023;
0101010170999992013011210004+77683+014783FM-12+000699999V0200501N002019999999N9999999N1-00571+99999101481ADDMA1999999101401MD1210201+9999REMSYN060AAXX  12101 01017 46/// /0502 11057 2//// 30140 40148 52020;
0101010170999992013011211004+77683+014783FM-12+000699999V0203401N002019999999N9999999N1-00701+99999101521ADDMA1999999101441MD1310171+9999REMSYN060AAXX  12111 01017 46/// /3402 11070 2//// 30144 40152 53017;
0111010170999992013011212004+77683+014783FM-12+000699999V0203401N002019999999N9999999N1-00691+99999101571ADDMA1999999101491MD1210141+9999REMSYN070AAXX  12121 01017 46/// /3402 11069 2//// 30149 40157 52014 333 91106;
0101010170999992013011213004+77683+014783FM-12+000699999V0203401N002019999999N9999999N1-00711+99999101601ADDMA1999999101521MD1210121+9999REMSYN060AAXX  12131 01017 46/// /3402 11071 2//// 30152 40160 52012;
0101010170999992013011214004+77683+014783FM-12+000699999V0203501N002019999999N9999999N1-00721+99999101621ADDMA1999999101541MD1210101+9999REMSYN060AAXX  12141 01017 46/// /3502 11072 2//// 30154 40162 52010;
0101010170999992013011215004+77683+014783FM-12+000699999V0200101N002019999999N9999999N1-00651+99999101651ADDMA1999999101571MD1210081+9999REMSYN060AAXX  12151 01017 46/// /0102 11065 2//// 30157 40165 52008;
0101010170999992013011216004+77683+014783FM-12+000699999V0203401N002019999999N9999999N1-00741+99999101681ADDMA1999999101601MD1210081+9999REMSYN060AAXX  12161 01017 46/// /3402 11074 2//// 30160 40168 52008;
0101010170999992013011217004+77683+014783FM-12+000699999V0203601N004019999999N9999999N1-00671+99999101711ADDMA1999999101621MD1210081+9999REMSYN060AAXX  12171 01017 46/// /3604 11067 2//// 30162 40171 52008;
0130010170999992013011218004+77683+014783FM-12+000699999V0200101N005019999999N9999999N1-00631+99999101711ADDKA1120M-00531MA1999999101631MD1210061+9999REMSYN076AAXX  12181 01017 46/// /0105 11063 2//// 30163 40171 52006 333 11053 91106;
0101010170999992013011219004+77683+014783FM-12+000699999V0203601N005019999999N9999999N1-00711+99999101731ADDMA1999999101641MD1210041+9999REMSYN060AAXX  12191 01017 46/// /3605 11071 2//// 30164 40173 52004;
0101010170999992013011220004+77683+014783FM-12+000699999V0203501N004019999999N9999999N1-00691+99999101771ADDMA1999999101681MD1110061+9999REMSYN060AAXX  12201 01017 46/// /3504 11069 2//// 30168 40177 51006;
0101010170999992013011221004+77683+014783FM-12+000699999V0200101N004019999999N9999999N1-00701+99999101791ADDMA1999999101711MD1210081+9999REMSYN060AAXX  12211 01017 46/// /0104 11070 2//// 30171 40179 52008;
0101010170999992013011222004+77683+014783FM-12+000699999V0203601N005019999999N9999999N1-00741+99999101811ADDMA1999999101731MD1210081+9999REMSYN060AAXX  12221 01017 46/// /3605 11074 2//// 30173 40181 52008;
0101010170999992013011223004+77683+014783FM-12+000699999V0203601N004019999999N9999999N1-00721+99999101831ADDMA1999999101751MD1210071+9999REMSYN060AAXX  12231 01017 46/// /3604 11072 2//// 30175 40183 52007;
0111010170999992013011300004+77683+014783FM-12+000699999V0203501N003019999999N9999999N1-00861+99999101851ADDMA1999999101771MD1210061+9999REMSYN070AAXX  13001 01017 46/// /3503 11086 2//// 30177 40185 52006 333 91106;
0101010170999992013011301004+77683+014783FM-12+000699999V0203501N005019999999N9999999N1-00821+99999101841ADDMA1999999101761MD1310031+9999REMSYN060AAXX  13011 01017 46/// /3505 11082 2//// 30176 40184 53003;
0101010170999992013011302004+77683+014783FM-12+000699999V0203401N004019999999N9999999N1-00951+99999101881ADDMA1999999101801MD1210051+9999REMSYN060AAXX  13021 01017 46/// /3404 11095 2//// 30180 40188 52005;
0101010170999992013011303004+77683+014783FM-12+000699999V0203501N005019999999N9999999N1-00801+99999101881ADDMA1999999101791MD1410001+9999REMSYN060AAXX  13031 01017 46/// /3505 11080 2//// 30179 40188 54002;
0101010170999992013011304004+77683+014783FM-12+000699999V0203601N005019999999N9999999N1-00831+99999101901ADDMA1999999101821MD1210061+9999REMSYN060AAXX  13041 01017 46/// /3605 11083 2//// 30182 40190 52006;
0101010170999992013011305004+77683+014783FM-12+000699999V0203501N004019999999N9999999N1-00941+99999101911ADDMA1999999101831MD1410001+9999REMSYN060AAXX  13051 01017 46/// /3504 11094 2//// 30183 40191 54003;
0130010170999992013011306004+77683+014783FM-12+000699999V0200101N005019999999N9999999N1-00821+99999101921ADDKA1999N-01021MA1999999101841MD1210041+9999REMSYN076AAXX  13061 01017 46/// /0105 11082 2//// 30184 40192 52004 333 21102 91107;
0101010170999992013011307004+77683+014783FM-12+000699999V0200501N004019999999N9999999N1-00851+99999101951ADDMA1999999101871MD1210051+9999REMSYN060AAXX  13071 01017 46/// /0504 11085 2//// 30187 40195 52005;
0101010170999992013011308004+77683+014783FM-12+000699999V0203301N003019999999N9999999N1-01011+99999101971ADDMA1999999101881MD1210051+9999REMSYN060AAXX  13081 01017 46/// /3303 11101 2//// 30188 40197 52005;
0101010170999992013011309004+77683+014783FM-12+000699999V0200401N004019999999N9999999N1-00861+99999102011ADDMA1999999101931MD1210091+9999REMSYN060AAXX  13091 01017 46/// /0404 11086 2//// 30193 40201 52009;
0101010170999992013011310004+77683+014783FM-12+000699999V0200401N005019999999N9999999N1-00871+99999102031ADDMA1999999101951MD1210081+9999REMSYN060AAXX  13101 01017 46/// /0405 11087 2//// 30195 40203 52008;
0101010170999992013011311004+77683+014783FM-12+000699999V0200401N005019999999N9999999N1-00871+99999102061ADDMA1999999101981MD1210101+9999REMSYN060AAXX  13111 01017 46/// /0405 11087 2//// 30198 40206 52010;
0111010170999992013011312004+77683+014783FM-12+000699999V0200401N006019999999N9999999N1-00911+99999102061ADDMA1999999101981MD1210051+9999REMSYN070AAXX  13121 01017 46/// /0406 11091 2//// 30198 40206 52005 333 91107;
0101010170999992013011313004+77683+014783FM-12+000699999V0200401N007019999999N9999999N1-00901+99999102071ADDMA1999999101981MD1210041+9999REMSYN060AAXX  13131 01017 46/// /0407 11090 2//// 30198 40207 52004;
0101010170999992013011314004+77683+014783FM-12+000699999V0200501N007019999999N9999999N1-00901+99999102081ADDMA1999999101991MD1410001+9999REMSYN060AAXX  13141 01017 46/// /0507 11090 2//// 30199 40208 54002;
0101010170999992013011315004+77683+014783FM-12+000699999V0200401N006019999999N9999999N1-00941+99999102091ADDMA1999999102011MD1410001+9999REMSYN060AAXX  13151 01017 46/// /0406 11094 2//// 30201 40209 54003;
0101010170999992013011316004+77683+014783FM-12+000699999V0200401N006019999999N9999999N1-00901+99999102101ADDMA1999999102011MD1410001+9999REMSYN060AAXX  13161 01017 46/// /0406 11090 2//// 30201 40210 54003;
0101010170999992013011317004+77683+014783FM-12+000699999V0200401N005019999999N9999999N1-00931+99999102101ADDMA1999999102011MD1410001+9999REMSYN060AAXX  13171 01017 46/// /0405 11093 2//// 30201 40210 54002;
0130010170999992013011318004+77683+014783FM-12+000699999V0200401N005019999999N9999999N1-00931+99999102111ADDKA1120M-00821MA1999999102021MD1410001+9999REMSYN076AAXX  13181 01017 46/// /0405 11093 2//// 30202 40211 54001 333 11082 91108;
0101010170999992013011319004+77683+014783FM-12+000699999V0200501N005019999999N9999999N1-00951+99999102111ADDMA1999999102031MD1410001+9999REMSYN060AAXX  13191 01017 46/// /0505 11095 2//// 30203 40211 54002;
0101010170999992013011320004+77683+014783FM-12+000699999V0200501N005019999999N9999999N1-00931+99999102111ADDMA1999999102031MD1410001+9999REMSYN060AAXX  13201 01017 46/// /0505 11093 2//// 30203 40211 54002;
0101010170999992013011321004+77683+014783FM-12+000699999V0200501N005019999999N9999999N1-00931+99999102121ADDMA1999999102031MD1410001+9999REMSYN060AAXX  13211 01017 46/// /0505 11093 2//// 30203 40212 54001;
0101010170999992013011322004+77683+014783FM-12+000699999V0200401N006019999999N9999999N1-00951+99999102141ADDMA1999999102051MD1410001+9999REMSYN060AAXX  13221 01017 46/// /0406 11095 2//// 30205 40214 54002;
0101010170999992013011323004+77683+014783FM-12+000699999V0200501N006019999999N9999999N1-00951+99999102151ADDMA1999999102071MD1210041+9999REMSYN060AAXX  13231 01017 46/// /0506 11095 2//// 30207 40215 52004;
0111010170999992013011400004+77683+014783FM-12+000699999V0200401N007019999999N9999999N1-00931+99999102171ADDMA1999999102081MD1210051+9999REMSYN070AAXX  14001 01017 46/// /0407 11093 2//// 30208 40217 52005 333 91108;
0101010170999992013011401004+77683+014783FM-12+000699999V0200501N006019999999N9999999N1-00941+99999102181ADDMA1999999102101MD1210051+9999REMSYN060AAXX  14011 01017 46/// /0506 11094 2//// 30210 40218 52005;
0101010170999992013011402004+77683+014783FM-12+000699999V0200501N006019999999N9999999N1-00971+99999102171ADDMA1999999102091MD1410001+9999REMSYN060AAXX  14021 01017 46/// /0506 11097 2//// 30209 40217 54002;
0101010170999992013011403004+77683+014783FM-12+000699999V0200401N006019999999N9999999N1-00961+99999102181ADDMA1999999102091MD1410001+9999REMSYN060AAXX  14031 01017 46/// /0406 11096 2//// 30209 40218 54001;
0101010170999992013011404004+77683+014783FM-12+000699999V0200501N006019999999N9999999N1-00981+99999102171ADDMA1999999102091MD1410001+9999REMSYN060AAXX  14041 01017 46/// /0506 11098 2//// 30209 40217 54001;
0101010170999992013011405004+77683+014783FM-12+000699999V0200401N007019999999N9999999N1-00971+99999102181ADDMA1999999102091MD1410001+9999REMSYN060AAXX  14051 01017 46/// /0407 11097 2//// 30209 40218 54001;
0130010170999992013011406004+77683+014783FM-12+000699999V0200501N007019999999N9999999N1-00981+99999102181ADDKA1999N-01021MA1999999102101MD1410001+9999REMSYN076AAXX  14061 01017 46/// /0507 11098 2//// 30210 40218 54001 333 21102 91108;
0101010170999992013011407004+77683+014783FM-12+000699999V0200501N007019999999N9999999N1-00981+99999102221ADDMA1999999102131MD1210041+9999REMSYN060AAXX  14071 01017 46/// /0507 11098 2//// 30213 40222 52004;
0101010170999992013011408004+77683+014783FM-12+000699999V0200501N005019999999N9999999N1-00971+99999102261ADDMA1999999102181MD1110081+9999REMSYN060AAXX  14081 01017 46/// /0505 11097 2//// 30218 40226 51008;
0101010170999992013011409004+77683+014783FM-12+000699999V0200601N005019999999N9999999N1-00941+99999102301ADDMA1999999102221MD1210121+9999REMSYN060AAXX  14091 01017 46/// /0605 11094 2//// 30222 40230 52012;
0101010170999992013011410004+77683+014783FM-12+000699999V0200501N005019999999N9999999N1-00931+99999102341ADDMA1999999102251MD1210121+9999REMSYN060AAXX  14101 01017 46/// /0505 11093 2//// 30225 40234 52012;
0101010170999992013011411004+77683+014783FM-12+000699999V0200501N005019999999N9999999N1-00921+99999102351ADDMA1999999102271MD1210091+9999REMSYN060AAXX  14111 01017 46/// /0505 11092 2//// 30227 40235 52009;
0111010170999992013011412004+77683+014783FM-12+000699999V0200501N006019999999N9999999N1-00921+99999102351ADDMA1999999102271MD1310051+9999REMSYN070AAXX  14121 01017 46/// /0506 11092 2//// 30227 40235 53005 333 91108;
0101010170999992013011413004+77683+014783FM-12+000699999V0200501N006019999999N9999999N1-00931+99999102381ADDMA1999999102291MD1210041+9999REMSYN060AAXX  14131 01017 46/// /0506 11093 2//// 30229 40238 52004;
0101010170999992013011414004+77683+014783FM-12+000699999V0200501N006019999999N9999999N1-00951+99999102391ADDMA1999999102301MD1210041+9999REMSYN060AAXX  14141 01017 46/// /0506 11095 2//// 30230 40239 52004;
0101010170999992013011415004+77683+014783FM-12+000699999V0200501N007019999999N9999999N1-00931+99999102391ADDMA1999999102301MD1210031+9999REMSYN060AAXX  14151 01017 46/// /0507 11093 2//// 30230 40239 52003;
0101010170999992013011416004+77683+014783FM-12+000699999V0200401N007019999999N9999999N1-00941+99999102381ADDMA1999999102301MD1410001+9999REMSYN060AAXX  14161 01017 46/// /0407 11094 2//// 30230 40238 54001;
0101010170999992013011417004+77683+014783FM-12+000699999V0200401N007019999999N9999999N1-00961+99999102381ADDMA1999999102301MD1410001+9999REMSYN060AAXX  14171 01017 46/// /0407 11096 2//// 30230 40238 54001;
0130010170999992013011418004+77683+014783FM-12+000699999V0200501N007019999999N9999999N1-00921+99999102391ADDKA1120M-00911MA1999999102301MD1410001+9999REMSYN076AAXX  14181 01017 46/// /0507 11092 2//// 30230 40239 54000 333 11091 91109;
0101010170999992013011419004+77683+014783FM-12+000699999V0200501N007019999999N9999999N1-00951+99999102381ADDMA1999999102291MD1410001+9999REMSYN060AAXX  14191 01017 46/// /0507 11095 2//// 30229 40238 54001;
0101010170999992013011420004+77683+014783FM-12+000699999V0200401N007019999999N9999999N1-00991+99999102361ADDMA1999999102271MD1410001+9999REMSYN060AAXX  14201 01017 46/// /0407 11099 2//// 30227 40236 54002;
0101010170999992013011421004+77683+014783FM-12+000699999V0200401N007019999999N9999999N1-00961+99999102351ADDMA1999999102261MD1710041+9999REMSYN060AAXX  14211 01017 46/// /0407 11096 2//// 30226 40235 57004;
0101010170999992013011422004+77683+014783FM-12+000699999V0200401N007019999999N9999999N1-00941+99999102321ADDMA1999999102231MD1710061+9999REMSYN060AAXX  14221 01017 46/// /0407 11094 2//// 30223 40232 57006;
0101010170999992013011423004+77683+014783FM-12+000699999V0200501N007019999999N9999999N1-00931+99999102301ADDMA1999999102221MD1710061+9999REMSYN060AAXX  14231 01017 46/// /0507 11093 2//// 30222 40230 57006;
0111010170999992013011500004+77683+014783FM-12+000699999V0200501N007019999999N9999999N1-00941+99999102291ADDMA1999999102211MD1710051+9999REMSYN070AAXX  15001 01017 46/// /0507 11094 2//// 30221 40229 57005 333 91109;
0101010170999992013011501004+77683+014783FM-12+000699999V0200501N007019999999N9999999N1-00921+99999102281ADDMA1999999102191MD1710041+9999REMSYN060AAXX  15011 01017 46/// /0507 11092 2//// 30219 40228 57004;
0101010170999992013011502004+77683+014783FM-12+000699999V0200401N007019999999N9999999N1-00921+99999102251ADDMA1999999102161MD1710061+9999REMSYN060AAXX  15021 01017 46/// /0407 11092 2//// 30216 40225 57006;
0101010170999992013011503004+77683+014783FM-12+000699999V0200401N007019999999N9999999N1-00941+99999102221ADDMA1999999102141MD1710071+9999REMSYN060AAXX  15031 01017 46/// /0407 11094 2//// 30214 40222 57007;
0101010170999992013011504004+77683+014783FM-12+000699999V0200501N007019999999N9999999N1-00921+99999102181ADDMA1999999102091MD1710101+9999REMSYN060AAXX  15041 01017 46/// /0507 11092 2//// 30209 40218 57010;
0101010170999992013011505004+77683+014783FM-12+000699999V0200501N006019999999N9999999N1-00871+99999102131ADDMA1999999102051MD1710111+9999REMSYN060AAXX  15051 01017 46/// /0506 11087 2//// 30205 40213 57011;
0130010170999992013011506004+77683+014783FM-12+000699999V0200501N006019999999N9999999N1-00891+99999102121ADDKA1999N-00991MA1999999102041MD1810101+9999REMSYN076AAXX  15061 01017 46/// /0506 11089 2//// 30204 40212 58010 333 21099 91109;
0101010170999992013011507004+77683+014783FM-12+000699999V0200601N006019999999N9999999N1-00841+99999102081ADDMA1999999102001MD1710091+9999REMSYN060AAXX  15071 01017 46/// /0606 11084 2//// 30200 40208 57009;
0101010170999992013011508004+77683+014783FM-12+000699999V0200601N006019999999N9999999N1-00831+99999102061ADDMA1999999101971MD1710081+9999REMSYN060AAXX  15081 01017 46/// /0606 11083 2//// 30197 40206 57008;
0101010170999992013011509004+77683+014783FM-12+000699999V0200701N006019999999N9999999N1-00821+99999102021ADDMA1999999101931MD1710101+9999REMSYN060AAXX  15091 01017 46/// /0706 11082 2//// 30193 40202 57010;
0101010170999992013011510004+77683+014783FM-12+000699999V0200501N007019999999N9999999N1-00771+99999101981ADDMA1999999101901MD1710101+9999REMSYN060AAXX  15101 01017 46/// /0507 11077 2//// 30190 40198 57010;
0101010170999992013011511004+77683+014783FM-12+000699999V0200901N007019999999N9999999N1-00741+99999101941ADDMA1999999101851MD1710121+9999REMSYN060AAXX  15111 01017 46/// /0907 11074 2//// 30185 40194 57012;
0111010170999992013011512004+77683+014783FM-12+000699999V0200801N007019999999N9999999N1-00741+99999101881ADDMA1999999101801MD1710131+9999REMSYN070AAXX  15121 01017 46/// /0807 11074 2//// 30180 40188 57013 333 91112;
0101010170999992013011513004+77683+014783FM-12+000699999V0200801N009019999999N9999999N1-00711+99999101821ADDMA1999999101731MD1710171+9999REMSYN060AAXX  15131 01017 46/// /0809 11071 2//// 30173 40182 57017;
0101010170999992013011514004+77683+014783FM-12+000699999V0200501N009019999999N9999999N1-00661+99999101731ADDMA1999999101651MD1710201+9999REMSYN060AAXX  15141 01017 46/// /0509 11066 2//// 30165 40173 57020;
0101010170999992013011515004+77683+014783FM-12+000699999V0200901N007019999999N9999999N1-00601+99999101661ADDMA1999999101581MD1710221+9999REMSYN060AAXX  15151 01017 46/// /0907 11060 2//// 30158 40166 57022;
0101010170999992013011516004+77683+014783FM-12+000699999V0201501N006019999999N9999999N1-00511+99999101521ADDMA1999999101441MD1610291+9999REMSYN060AAXX  15161 01017 46/// /1506 11051 2//// 30144 40152 56029;
0101010170999992013011517004+77683+014783FM-12+000699999V0201601N005019999999N9999999N1-00511+99999101461ADDMA1999999101371MD1710281+9999REMSYN060AAXX  15171 01017 46/// /1605 11051 2//// 30137 40146 57028;
0130010170999992013011518004+77683+014783FM-12+000699999V0201501N004019999999N9999999N1-00451+99999101391ADDKA1120M-00421MA1999999101311MD1810271+9999REMSYN076AAXX  15181 01017 46/// /1504 11045 2//// 30131 40139 58027 333 11042 91115;
0101010170999992013011519004+77683+014783FM-12+000699999V0201401N011019999999N9999999N1-00421+99999101171ADDMA1999999101091MD1610351+9999REMSYN060AAXX  15191 01017 46/// /1411 11042 2//// 30109 40117 56035;
0101010170999992013011520004+77683+014783FM-12+000699999V0201401N011019999999N9999999N1-00401+99999101081ADDMA1999999101001MD1710371+9999REMSYN060AAXX  15201 01017 46/// /1411 11040 2//// 30100 40108 57037;
0101010170999992013011521004+77683+014783FM-12+000699999V0201501N015019999999N9999999N1-00361+99999100791ADDMA1999999100701MD1610601+9999REMSYN060AAXX  15211 01017 46/// /1515 11036 2//// 30070 40079 56060;
0101010170999992013011522004+77683+014783FM-12+000699999V0201501N015019999999N9999999N1-00381+99999100781ADDMA1999999100701MD1810391+9999REMSYN060AAXX  15221 01017 46/// /1515 11038 2//// 30070 40078 58039;
0101010170999992013011523004+77683+014783FM-12+000699999V0201501N016019999999N9999999N1-00301+99999100651ADDMA1999999100571MD1810431+9999REMSYN060AAXX  15231 01017 46/// /1516 11030 2//// 30057 40065 58043;
0111010170999992013011600004+77683+014783FM-12+000699999V0201401N016019999999N9999999N1-00301+99999100521ADDMA1999999100441MD1610271+9999REMSYN070AAXX  16001 01017 46/// /1416 11030 2//// 30044 40052 56027 333 91121;
0101010170999992013011601004+77683+014783FM-12+000699999V0201401N015019999999N9999999N1-00261+99999100431ADDMA1999999100341MD1810351+9999REMSYN060AAXX  16011 01017 46/// /1415 11026 2//// 30034 40043 58035;
0101010170999992013011602004+77683+014783FM-12+000699999V0201501N016019999999N9999999N1-00241+99999100301ADDMA1999999100221MD1710351+9999REMSYN060AAXX  16021 01017 46/// /1516 11024 2//// 30022 40030 57035;
0101010170999992013011603004+77683+014783FM-12+000699999V0201501N015019999999N9999999N1-00241+99999100251ADDMA1999999100161MD1810271+9999REMSYN060AAXX  16031 01017 46/// /1515 11024 2//// 30016 40025 58027;
0101010170999992013011604004+77683+014783FM-12+000699999V0201501N013019999999N9999999N1-00201+99999100221ADDMA1999999100141MD1810201+9999REMSYN060AAXX  16041 01017 46/// /1513 11020 2//// 30014 40022 58020;
0101010170999992013011605004+77683+014783FM-12+000699999V0201501N006019999999N9999999N1-00141+99999100291ADDMA1999999100201MD1010021+9999REMSYN060AAXX  16051 01017 46/// /1506 11014 2//// 30020 40029 50002;
0130010170999992013011606004+77683+014783FM-12+000699999V0202801N002019999999N9999999N1-00191+99999100321ADDKA1999N-00471MA1999999100241MD1110081+9999REMSYN076AAXX  16061 01017 46/// /2802 11019 2//// 30024 40032 51008 333 21047 91121;
0101010170999992013011607004+77683+014783FM-12+000699999V0202501N006019999999N9999999N1-00341+99999100331ADDMA1999999100241MD1310101+9999REMSYN060AAXX  16071 01017 46/// /2506 11034 2//// 30024 40033 53010;
0101010170999992013011608004+77683+014783FM-12+000699999V0202501N007019999999N9999999N1-00361+99999100341ADDMA1999999100261MD1210051+9999REMSYN060AAXX  16081 01017 46/// /2507 11036 2//// 30026 40034 52005;
0101010170999992013011609004+77683+014783FM-12+000699999V0202501N006019999999N9999999N1-00431+99999100381ADDMA1999999100301MD1110051+9999REMSYN060AAXX  16091 01017 46/// /2506 11043 2//// 30030 40038 51005;
0101010170999992013011610004+77683+014783FM-12+000699999V0202501N007019999999N9999999N1-00481+99999100401ADDMA1999999100321MD1210071+9999REMSYN060AAXX  16101 01017 46/// /2507 11048 2//// 30032 40040 52007;
0101010170999992013011611004+77683+014783FM-12+000699999V0202501N006019999999N9999999N1-00501+99999100421ADDMA1999999100341MD1210081+9999REMSYN060AAXX  16111 01017 46/// /2506 11050 2//// 30034 40042 52008;
0111010170999992013011612004+77683+014783FM-12+000699999V0202501N005019999999N9999999N1-00551+99999100431ADDMA1999999100351MD1210051+9999REMSYN070AAXX  16121 01017 46/// /2505 11055 2//// 30035 40043 52005 333 91109;
0101010170999992013011613004+77683+014783FM-12+000699999V0202801N006019999999N9999999N1-00591+99999100451ADDMA1999999100371MD1210051+9999REMSYN060AAXX  16131 01017 46/// /2806 11059 2//// 30037 40045 52005;
0101010170999992013011614004+77683+014783FM-12+000699999V0202701N005019999999N9999999N1-00601+99999100451ADDMA1999999100371MD1210031+9999REMSYN060AAXX  16141 01017 46/// /2705 11060 2//// 30037 40045 52003;
0101010170999992013011615004+77683+014783FM-12+000699999V0202501N006019999999N9999999N1-00601+99999100451ADDMA1999999100371MD1410001+9999REMSYN060AAXX  16151 01017 46/// /2506 11060 2//// 30037 40045 54002;
0101010170999992013011616004+77683+014783FM-12+000699999V0203001N004019999999N9999999N1-00611+99999100441ADDMA1999999100361MD1410001+9999REMSYN060AAXX  16161 01017 46/// /3004 11061 2//// 30036 40044 54001;
0101010170999992013011617004+77683+014783FM-12+000699999V0202901N004019999999N9999999N1-00621+99999100441ADDMA1999999100361MD1410001+9999REMSYN060AAXX  16171 01017 46/// /2904 11062 2//// 30036 40044 54001;
0130010170999992013011618004+77683+014783FM-12+000699999V0203201N003019999999N9999999N1-00661+99999100451ADDKA1120M-00191MA1999999100371MD1410001+9999REMSYN076AAXX  16181 01017 46/// /3203 11066 2//// 30037 40045 54000 333 11019 91107;
0101010170999992013011619004+77683+014783FM-12+000699999V0203201N001019999999N9999999N1-00631+99999100441ADDMA1999999100361MD1410001+9999REMSYN060AAXX  16191 01017 46/// /3201 11063 2//// 30036 40044 54000;
0101010170999992013011620004+77683+014783FM-12+000699999V0203301N002019999999N9999999N1-00651+99999100461ADDMA1999999100381MD1410001+9999REMSYN060AAXX  16201 01017 46/// /3302 11065 2//// 30038 40046 54002;
0101010170999992013011621004+77683+014783FM-12+000699999V0202501N004019999999N9999999N1-00541+99999100431ADDMA1999999100351MD1410001+9999REMSYN060AAXX  16211 01017 46/// /2504 11054 2//// 30035 40043 54002;
0101010170999992013011622004+77683+014783FM-12+000699999V0203201N001019999999N9999999N1-00631+99999100421ADDMA1999999100341MD1510021+9999REMSYN060AAXX  16221 01017 46/// /3201 11063 2//// 30034 40042 55002;
0101010170999992013011623004+77683+014783FM-12+000699999V0200201N002019999999N9999999N1-00591+99999100401ADDMA1999999100321MD1710061+9999REMSYN060AAXX  16231 01017 46/// /0202 11059 2//// 30032 40040 57006;
0111010170999992013011700004+77683+014783FM-12+000699999V0200801N001019999999N9999999N1-00611+99999100391ADDMA1999999100301MD1710051+9999REMSYN070AAXX  17001 01017 46/// /0801 11061 2//// 30030 40039 57005 333 91107;
0101010170999992013011702004+77683+014783FM-12+000699999V0202901N002019999999N9999999N1-00571+99999100341ADDMA1999999100261MD1710061+9999REMSYN060AAXX  17021 01017 46/// /2902 11057 2//// 30026 40034 57006;
0101010170999992013011703004+77683+014783FM-12+000699999V0202601N003019999999N9999999N1-00571+99999100311ADDMA1999999100231MD1710071+9999REMSYN060AAXX  17031 01017 46/// /2603 11057 2//// 30023 40031 57007;
0101010170999992013011704004+77683+014783FM-12+000699999V0203001N001019999999N9999999N1-00611+99999100301ADDMA1999999100221MD1710071+9999REMSYN060AAXX  17041 01017 46/// /3001 11061 2//// 30022 40030 57007;
0101010170999992013011705004+77683+014783FM-12+000699999V0203501N001019999999N9999999N1-00581+99999100271ADDMA1999999100181MD1710081+9999REMSYN060AAXX  17051 01017 46/// /3501 11058 2//// 30018 40027 57008;
0101010170999992013011706004+77683+014783FM-12+000699999V0200401N002019999999N9999999N1-00571+99999100231ADDMA1999999100151MD1710081+9999REMSYN060AAXX  17061 01017 46/// /0402 11057 2//// 30015 40023 57008;
0101010170999992013011707004+77683+014783FM-12+000699999V0200501N003019999999N9999999N1-00571+99999100221ADDMA1999999100141MD1710071+9999REMSYN060AAXX  17071 01017 46/// /0503 11057 2//// 30014 40022 57007;
0101010170999992013011708004+77683+014783FM-12+000699999V0200701N003019999999N9999999N1-00561+99999100211ADDMA1999999100121MD1710061+9999REMSYN060AAXX  17081 01017 46/// /0703 11056 2//// 30012 40021 57006;
0101010170999992013011709004+77683+014783FM-12+000699999V0200301N005019999999N9999999N1-00581+99999100201ADDMA1999999100121MD1410001+9999REMSYN060AAXX  17091 01017 46/// /0305 11058 2//// 30012 40020 54003;
0101010170999992013011710004+77683+014783FM-12+000699999V0200301N005019999999N9999999N1-00591+99999100191ADDMA1999999100111MD1710031+9999REMSYN060AAXX  17101 01017 46/// /0305 11059 2//// 30011 40019 57003;
0101010170999992013011711004+77683+014783FM-12+000699999V0200701N006019999999N9999999N1-00661+99999100181ADDMA1999999100101MD1410001+9999REMSYN060AAXX  17111 01017 46/// /0706 11066 2//// 30010 40018 54003;
0111010170999992013011712004+77683+014783FM-12+000699999V0200401N006019999999N9999999N1-00661+99999100151ADDMA1999999100071MD1710051+9999REMSYN070AAXX  17121 01017 46/// /0406 11066 2//// 30007 40015 57005 333 91108;
0101010170999992013011713004+77683+014783FM-12+000699999V0200501N006019999999N9999999N1-00691+99999100121ADDMA1999999100041MD1710071+9999REMSYN060AAXX  17131 01017 46/// /0506 11069 2//// 30004 40012 57007;
0101010170999992013011714004+77683+014783FM-12+000699999V0200501N007019999999N9999999N1-00721+99999100101ADDMA1999999100011MD1710081+9999REMSYN060AAXX  17141 01017 46/// /0507 11072 2//// 30001 40010 57008;
0101010170999992013011715004+77683+014783FM-12+000699999V0200501N007019999999N9999999N1-00741+99999100061ADDMA1999999099981MD1710091+9999REMSYN060AAXX  17151 01017 46/// /0507 11074 2//// 39998 40006 57009;
0101010170999992013011716004+77683+014783FM-12+000699999V0200501N008019999999N9999999N1-00751+99999100051ADDMA1999999099971MD1710071+9999REMSYN060AAXX  17161 01017 46/// /0508 11075 2//// 39997 40005 57007;
0101010170999992013011717004+77683+014783FM-12+000699999V0200401N008019999999N9999999N1-00761+99999100021ADDMA1999999099931MD1710081+9999REMSYN060AAXX  17171 01017 46/// /0408 11076 2//// 39993 40002 57008;
0130010170999992013011718004+77683+014783FM-12+000699999V0200501N007019999999N9999999N1-00731+99999100001ADDKA1120M-00551MA1999999099911MD1710071+9999REMSYN076AAXX  17181 01017 46/// /0507 11073 2//// 39991 40000 57007 333 11055 91110;
0101010170999992013011719004+77683+014783FM-12+000699999V0200501N007019999999N9999999N1-00711+99999099971ADDMA1999999099891MD1710071+9999REMSYN060AAXX  17191 01017 46/// /0507 11071 2//// 39989 49997 57007;
0101010170999992013011720004+77683+014783FM-12+000699999V0200501N007019999999N9999999N1-00691+99999099971ADDMA1999999099881MD1710051+9999REMSYN060AAXX  17201 01017 46/// /0507 11069 2//// 39988 49997 57005;
0101010170999992013011721004+77683+014783FM-12+000699999V0200501N007019999999N9999999N1-00711+99999099961ADDMA1999999099881MD1710041+9999REMSYN060AAXX  17211 01017 46/// /0507 11071 2//// 39988 49996 57004;
0101010170999992013011722004+77683+014783FM-12+000699999V0200401N007019999999N9999999N1-00711+99999099941ADDMA1999999099861MD1710031+9999REMSYN060AAXX  17221 01017 46/// /0407 11071 2//// 39986 49994 57003;
0101010170999992013011723004+77683+014783FM-12+000699999V0200601N005019999999N9999999N1-00721+99999099951ADDMA1999999099871MD1410001+9999REMSYN060AAXX  17231 01017 46/// /0605 11072 2//// 39987 49995 54002;
0111010170999992013011800004+77683+014783FM-12+000699999V0200601N005019999999N9999999N1-00751+99999099961ADDMA1999999099871MD1410001+9999REMSYN070AAXX  18001 01017 46/// /0605 11075 2//// 39987 49996 54000 333 91110;
0101010170999992013011801004+77683+014783FM-12+000699999V0200501N003019999999N9999999N1-00721+99999099961ADDMA1999999099881MD1410001+9999REMSYN060AAXX  18011 01017 46/// /0503 11072 2//// 39988 49996 54002;
0101010170999992013011802004+77683+014783FM-12+000699999V0200401N002019999999N9999999N1-00701+99999099981ADDMA1999999099901MD1410001+9999REMSYN060AAXX  18021 01017 46/// /0402 11070 2//// 39990 49998 54003;
0101010170999992013011803004+77683+014783FM-12+000699999V0200801N002019999999N9999999N1-00671+99999100011ADDMA1999999099931MD1210051+9999REMSYN060AAXX  18031 01017 46/// /0802 11067 2//// 39993 40001 52005;
0101010170999992013011804004+77683+014783FM-12+000699999V0200801N002019999999N9999999N1-00671+99999100041ADDMA1999999099961MD1210081+9999REMSYN060AAXX  18041 01017 46/// /0802 11067 2//// 39996 40004 52008;
0101010170999992013011805004+77683+014783FM-12+000699999V0200601N004019999999N9999999N1-00531+99999100091ADDMA1999999100011MD1210111+9999REMSYN060AAXX  18051 01017 46/// /0604 11053 2//// 30001 40009 52011;
0130010170999992013011806004+77683+014783FM-12+000699999V0200501N011019999999N9999999N1-00461+99999100141ADDKA1999N-00791MA1999999100061MD1210131+9999REMSYN076AAXX  18061 01017 46/// /0511 11046 2//// 30006 40014 52013 333 21079 91112;
0101010170999992013011807004+77683+014783FM-12+000699999V0200601N013019999999N9999999N1-00471+99999100201ADDMA1999999100121MD1210161+9999REMSYN060AAXX  18071 01017 46/// /0613 11047 2//// 30012 40020 52016;
0101010170999992013011808004+77683+014783FM-12+000699999V0200601N012019999999N9999999N1-00511+99999100321ADDMA1999999100231MD1110231+9999REMSYN060AAXX  18081 01017 46/// /0612 11051 2//// 30023 40032 51023;
0101010170999992013011809004+77683+014783FM-12+000699999V0200601N011019999999N9999999N1-00541+99999100431ADDMA1999999100341MD1110291+9999REMSYN060AAXX  18091 01017 46/// /0611 11054 2//// 30034 40043 51029;
0101010170999992013011810004+77683+014783FM-12+000699999V0200601N011019999999N9999999N1-00581+99999100461ADDMA1999999100371MD1310261+9999REMSYN060AAXX  18101 01017 46/// /0611 11058 2//// 30037 40046 53026;
0101010170999992013011811004+77683+014783FM-12+000699999V0200501N010019999999N9999999N1-00601+99999100571ADDMA1999999100491MD1210251+9999REMSYN060AAXX  18111 01017 46/// /0510 11060 2//// 30049 40057 52025;
0111010170999992013011812004+77683+014783FM-12+000699999V0200301N009019999999N9999999N1-00671+99999100631ADDMA1999999100541MD1210201+9999REMSYN070AAXX  18121 01017 46/// /0309 11067 2//// 30054 40063 52020 333 91114;
0101010170999992013011813004+77683+014783FM-12+000699999V0200501N009019999999N9999999N1-00701+99999100681ADDMA1999999100591MD1310221+9999REMSYN060AAXX  18131 01017 46/// /0509 11070 2//// 30059 40068 53022;
0101010170999992013011814004+77683+014783FM-12+000699999V0200401N008019999999N9999999N1-00761+99999100741ADDMA1999999100661MD1210171+9999REMSYN060AAXX  18141 01017 46/// /0408 11076 2//// 30066 40074 52017;
0101010170999992013011815004+77683+014783FM-12+000699999V0200401N008019999999N9999999N1-00751+99999100811ADDMA1999999100731MD1210191+9999REMSYN060AAXX  18151 01017 46/// /0408 11075 2//// 30073 40081 52019;
0101010170999992013011816004+77683+014783FM-12+000699999V0200401N008019999999N9999999N1-00821+99999100891ADDMA1999999100811MD1210211+9999REMSYN060AAXX  18161 01017 46/// /0408 11082 2//// 30081 40089 52021;
0101010170999992013011817004+77683+014783FM-12+000699999V0200401N007019999999N9999999N1-00781+99999100961ADDMA1999999100881MD1210221+9999REMSYN060AAXX  18171 01017 46/// /0407 11078 2//// 30088 40096 52022;
0130010170999992013011818004+77683+014783FM-12+000699999V0200401N008019999999N9999999N1-00821+99999101011ADDKA1120M-00441MA1999999100931MD1210201+9999REMSYN076AAXX  18181 01017 46/// /0408 11082 2//// 30093 40101 52020 333 11044 91111;
0101010170999992013011819004+77683+014783FM-12+000699999V0200401N007019999999N9999999N1-00801+99999101081ADDMA1999999100991MD1210191+9999REMSYN060AAXX  18191 01017 46/// /0407 11080 2//// 30099 40108 52019;
0101010170999992013011820004+77683+014783FM-12+000699999V0200401N006019999999N9999999N1-00811+99999101151ADDMA1999999101061MD1210181+9999REMSYN060AAXX  18201 01017 46/// /0406 11081 2//// 30106 40115 52018;
0101010170999992013011821004+77683+014783FM-12+000699999V0200501N006019999999N9999999N1-00771+99999101231ADDMA1999999101151MD1210221+9999REMSYN060AAXX  18211 01017 46/// /0506 11077 2//// 30115 40123 52022;
0101010170999992013011822004+77683+014783FM-12+000699999V0200501N006019999999N9999999N1-00761+99999101301ADDMA1999999101221MD1210231+9999REMSYN060AAXX  18221 01017 46/// /0506 11076 2//// 30122 40130 52023;
0101010170999992013011823004+77683+014783FM-12+000699999V0200701N004019999999N9999999N1-00751+99999101361ADDMA1999999101281MD1210211+9999REMSYN060AAXX  18231 01017 46/// /0704 11075 2//// 30128 40136 52021;
0111010170999992013011900004+77683+014783FM-12+000699999V0200601N005019999999N9999999N1-00701+99999101401ADDMA1999999101311MD1310171+9999REMSYN070AAXX  19001 01017 46/// /0605 11070 2//// 30131 40140 53017 333 91108;
0101010170999992013011901004+77683+014783FM-12+000699999V0200601N006019999999N9999999N1-00651+99999101431ADDMA1999999101351MD1210131+9999REMSYN060AAXX  19011 01017 46/// /0606 11065 2//// 30135 40143 52013;
0101010170999992013011902004+77683+014783FM-12+000699999V0200601N006019999999N9999999N1-00621+99999101451ADDMA1999999101371MD1210091+9999REMSYN060AAXX  19021 01017 46/// /0606 11062 2//// 30137 40145 52009;
0101010170999992013011903004+77683+014783FM-12+000699999V0200401N006019999999N9999999N1-00581+99999101511ADDMA1999999101431MD1210111+9999REMSYN060AAXX  19031 01017 46/// /0406 11058 2//// 30143 40151 52011;
0101010170999992013011904004+77683+014783FM-12+000699999V0200501N004019999999N9999999N1-00581+99999101531ADDMA1999999101451MD1210101+9999REMSYN060AAXX  19041 01017 46/// /0504 11058 2//// 30145 40153 52010;
0101010170999992013011905004+77683+014783FM-12+000699999V0200901N005019999999N9999999N1-00601+99999101511ADDMA1999999101421MD1310051+9999REMSYN060AAXX  19051 01017 46/// /0905 11060 2//// 30142 40151 53005;
0130010170999992013011906004+77683+014783FM-12+000699999V0200301N005019999999N9999999N1-00581+99999101561ADDKA1999N-00821MA1999999101481MD1110051+9999REMSYN076AAXX  19061 01017 46/// /0305 11058 2//// 30148 40156 51005 333 21082 91108;
0101010170999992013011907004+77683+014783FM-12+000699999V0200601N005019999999N9999999N1-00601+99999101581ADDMA1999999101491MD1110051+9999REMSYN060AAXX  19071 01017 46/// /0605 11060 2//// 30149 40158 51005;
0101010170999992013011908004+77683+014783FM-12+000699999V0200801N006019999999N9999999N1-00621+99999101591ADDMA1999999101511MD1310081+9999REMSYN060AAXX  19081 01017 46/// /0806 11062 2//// 30151 40159 53008;
0101010170999992013011909004+77683+014783FM-12+000699999V0200601N006019999999N9999999N1-00571+99999101591ADDMA1999999101511MD1210031+9999REMSYN060AAXX  19091 01017 46/// /0606 11057 2//// 30151 40159 52003;
0101010170999992013011910004+77683+014783FM-12+000699999V0200801N006019999999N9999999N1-00581+99999101581ADDMA1999999101501MD1410001+9999REMSYN060AAXX  19101 01017 46/// /0806 11058 2//// 30150 40158 54000;
0101010170999992013011911004+77683+014783FM-12+000699999V0200901N006019999999N9999999N1-00611+99999101591ADDMA1999999101501MD1410001+9999REMSYN060AAXX  19111 01017 46/// /0906 11061 2//// 30150 40159 54000;
0111010170999992013011912004+77683+014783FM-12+000699999V0200701N005019999999N9999999N1-00601+99999101581ADDMA1999999101501MD1410001+9999REMSYN070AAXX  19121 01017 46/// /0705 11060 2//// 30150 40158 54001 333 91109;
0101010170999992013011913004+77683+014783FM-12+000699999V0200701N006019999999N9999999N1-00621+99999101561ADDMA1999999101471MD1510021+9999REMSYN060AAXX  19131 01017 46/// /0706 11062 2//// 30147 40156 55002;
0101010170999992013011914004+77683+014783FM-12+000699999V0200601N007019999999N9999999N1-00651+99999101551ADDMA1999999101471MD1710031+9999REMSYN060AAXX  19141 01017 46/// /0607 11065 2//// 30147 40155 57003;
0101010170999992013011915004+77683+014783FM-12+000699999V0200601N008019999999N9999999N1-00621+99999101541ADDMA1999999101451MD1710051+9999REMSYN060AAXX  19151 01017 46/// /0608 11062 2//// 30145 40154 57005;
0101010170999992013011916004+77683+014783FM-12+000699999V0200601N008019999999N9999999N1-00611+99999101521ADDMA1999999101441MD1710041+9999REMSYN060AAXX  19161 01017 46/// /0608 11061 2//// 30144 40152 57004;
0101010170999992013011917004+77683+014783FM-12+000699999V0200601N006019999999N9999999N1-00621+99999101511ADDMA1999999101431MD1710041+9999REMSYN060AAXX  19171 01017 46/// /0606 11062 2//// 30143 40151 57004;
0130010170999992013011918004+77683+014783FM-12+000699999V0200501N006019999999N9999999N1-00601+99999101421ADDKA1120M-00551MA1999999101341MD1610121+9999REMSYN076AAXX  19181 01017 46/// /0506 11060 2//// 30134 40142 56012 333 11055 91110;
0101010170999992013011919004+77683+014783FM-12+000699999V0200601N006019999999N9999999N1-00611+99999101421ADDMA1999999101341MD1710101+9999REMSYN060AAXX  19191 01017 46/// /0606 11061 2//// 30134 40142 57010;
0101010170999992013011920004+77683+014783FM-12+000699999V0200601N006019999999N9999999N1-00581+99999101381ADDMA1999999101291MD1810141+9999REMSYN060AAXX  19201 01017 46/// /0606 11058 2//// 30129 40138 58014;
0101010170999992013011921004+77683+014783FM-12+000699999V0200601N005019999999N9999999N1-00571+99999101351ADDMA1999999101261MD1710071+9999REMSYN060AAXX  19211 01017 46/// /0605 11057 2//// 30126 40135 57007;
0101010170999992013011922004+77683+014783FM-12+000699999V0200601N005019999999N9999999N1-00541+99999101291ADDMA1999999101211MD1710131+9999REMSYN060AAXX  19221 01017 46/// /0605 11054 2//// 30121 40129 57013;
0101010170999992013011923004+77683+014783FM-12+000699999V0200501N004019999999N9999999N1-00541+99999101231ADDMA1999999101151MD1610141+9999REMSYN060AAXX  19231 01017 46/// /0504 11054 2//// 30115 40123 56014;
0111010170999992013012000004+77683+014783FM-12+000699999V0200401N004019999999N9999999N1-00541+99999101191ADDMA1999999101101MD1710161+9999REMSYN070AAXX  20001 01017 46/// /0404 11054 2//// 30110 40119 57016 333 91109;
0101010170999992013012001004+77683+014783FM-12+000699999V0200301N003019999999N9999999N1-00571+99999101101ADDMA1999999101021MD1710191+9999REMSYN060AAXX  20011 01017 46/// /0303 11057 2//// 30102 40110 57019;
0101010170999992013012002004+77683+014783FM-12+000699999V0200401N003019999999N9999999N1-00571+99999101051ADDMA1999999100961MD1710181+9999REMSYN060AAXX  20021 01017 46/// /0403 11057 2//// 30096 40105 57018;
0101010170999992013012003004+77683+014783FM-12+000699999V0200301N001019999999N9999999N1-00551+99999100971ADDMA1999999100881MD1710221+9999REMSYN060AAXX  20031 01017 46/// /0301 11055 2//// 30088 40097 57022;
0101010170999992013012004004+77683+014783FM-12+000699999V0203301N001019999999N9999999N1-00521+99999100821ADDMA1999999100741MD1610281+9999REMSYN060AAXX  20041 01017 46/// /3301 11052 2//// 30074 40082 56028;
0101010170999992013012005004+77683+014783FM-12+000699999V0202001N006019999999N9999999N1-00311+99999100711ADDMA1999999100631MD1710331+9999REMSYN060AAXX  20051 01017 46/// /2006 11031 2//// 30063 40071 57033;
0130010170999992013012006004+77683+014783FM-12+000699999V0200701N001019999999N9999999N1-00361+99999100671ADDKA1999N-00611MA1999999100581MD1810301+9999REMSYN076AAXX  20061 01017 46/// /0701 11036 2//// 30058 40067 58030 333 21061 91108;
0101010170999992013012007004+77683+014783FM-12+000699999V0200101N002019999999N9999999N1-00321+99999100491ADDMA1999999100411MD1610331+9999REMSYN060AAXX  20071 01017 46/// /0102 11032 2//// 30041 40049 56033;
0101010170999992013012008004+77683+014783FM-12+000699999V0200101N006019999999N9999999N1-00391+99999100341ADDMA1999999100261MD1610371+9999REMSYN060AAXX  20081 01017 46/// /0106 11039 2//// 30026 40034 56037;
0101010170999992013012009004+77683+014783FM-12+000699999V0200401N004019999999N9999999N1-00401+99999100321ADDMA1999999100231MD1810351+9999REMSYN060AAXX  20091 01017 46/// /0404 11040 2//// 30023 40032 58035;
0101010170999992013012010004+77683+014783FM-12+000699999V0202101N001019999999N9999999N1-00401+99999100221ADDMA1999999100141MD1810271+9999REMSYN060AAXX  20101 01017 46/// /2101 11040 2//// 30014 40022 58027;
0101010170999992013012011004+77683+014783FM-12+000699999V0202101N005019999999N9999999N1-00051+99999100141ADDMA1999999100061MD1610201+9999REMSYN060AAXX  20111 01017 46/// /2105 11005 2//// 30006 40014 56020;
0111010170999992013012012004+77683+014783FM-12+000699999V0202501N005019999999N9999999N1+00021+99999100071ADDMA1999999099991MD1710251+9999REMSYN070AAXX  20121 01017 46/// /2505 10002 2//// 39999 40007 57025 333 91107;
0101010170999992013012014004+77683+014783FM-12+000699999V0202701N005019999999N9999999N1+00001+99999099971ADDMA1999999099891MD1810171+9999REMSYN060AAXX  20141 01017 46/// /2705 10000 2//// 39989 49997 58017;
0101010170999992013012015004+77683+014783FM-12+000699999V0202601N008019999999N9999999N1+00031+99999099851ADDMA1999999099771MD1610221+9999REMSYN060AAXX  20151 01017 46/// /2608 10003 2//// 39977 49985 56022;
0101010170999992013012016004+77683+014783FM-12+000699999V0202701N007019999999N9999999N1+00001+99999099791ADDMA1999999099711MD1710211+9999REMSYN060AAXX  20161 01017 46/// /2707 10000 2//// 39971 49979 57021;
0101010170999992013012017004+77683+014783FM-12+000699999V0202801N007019999999N9999999N1-00081+99999099741ADDMA1999999099661MD1810221+9999REMSYN060AAXX  20171 01017 46/// /2807 11008 2//// 39966 49974 58022;
0101010170999992013012018004+77683+014783FM-12+000699999V0202701N008019999999N9999999N1-00171+99999099751ADDMA1999999099671MD1810101+9999REMSYN060AAXX  20181 01017 46/// /2708 11017 2//// 39967 49975 58010;
0101010170999992013012019004+77683+014783FM-12+000699999V0202901N009019999999N9999999N1-00351+99999099721ADDMA1999999099641MD1710071+9999REMSYN060AAXX  20191 01017 46/// /2909 11035 2//// 39964 49972 57007;
0101010170999992013012020004+77683+014783FM-12+000699999V0202801N009019999999N9999999N1-00431+99999099761ADDMA1999999099681MD1410001+9999REMSYN060AAXX  20201 01017 46/// /2809 11043 2//// 39968 49976 54001;
0101010170999992013012021004+77683+014783FM-12+000699999V0202901N006019999999N9999999N1-00431+99999099781ADDMA1999999099701MD1010031+9999REMSYN060AAXX  20211 01017 46/// /2906 11043 2//// 39970 49978 50003;
0101010170999992013012022004+77683+014783FM-12+000699999V0203001N009019999999N9999999N1-00431+99999099761ADDMA1999999099681MD1310041+9999REMSYN060AAXX  20221 01017 46/// /3009 11043 2//// 39968 49976 53004;
0101010170999992013012023004+77683+014783FM-12+000699999V0202801N009019999999N9999999N1-00501+99999099741ADDMA1999999099651MD1510021+9999REMSYN060AAXX  20231 01017 46/// /2809 11050 2//// 39965 49974 55002;
0111010170999992013012100004+77683+014783FM-12+000699999V0203101N008019999999N9999999N1-00601+99999099771ADDMA1999999099681MD1010021+9999REMSYN070AAXX  21001 01017 46/// /3108 11060 2//// 39968 49977 50002 333 91114;
0101010170999992013012101004+77683+014783FM-12+000699999V0203101N004019999999N9999999N1-00651+99999099781ADDMA1999999099691MD1010021+9999REMSYN060AAXX  21011 01017 46/// /3104 11065 2//// 39969 49978 50002;
