0061010150999992013010100004+69600+017833FM-12+001499999V02099999999999999999N9999999N1-00021-00511999999REMSYN052AAXX  01001 01015 46/// ///// 11002 21051 333 91111;
0051010150999992013010101004+69600+017833FM-12+001499999V02099999999999999999N9999999N1+00031-00531999999REMSYN042AAXX  01011 01015 46/// ///// 10003 21053;
0051010150999992013010102004+69600+017833FM-12+001499999V02099999999999999999N9999999N1+00031-00551999999REMSYN042AAXX  01021 01015 46/// ///// 10003 21055;
0051010150999992013010103004+69600+017833FM-12+001499999V02099999999999999999N9999999N1+00041-00501999999REMSYN042AAXX  01031 01015 46/// ///// 10004 21050;
0051010150999992013010104004+69600+017833FM-12+001499999V02099999999999999999N9999999N1+00051-00461999999REMSYN042AAXX  01041 01015 46/// ///// 10005 21046;
0051010150999992013010105004+69600+017833FM-12+001499999V02099999999999999999N9999999N1+00071-00451999999REMSYN042AAXX  01051 01015 46/// ///// 10007 21045;
0083010150999992013010106004+69600+017833FM-12+001499999V02099999999999999999N9999999N1+00041-00491999999ADDKA1999N-00021REMSYN058AAXX  01061 01015 46/// ///// 10004 21049 333 21002 91111;
0051010150999992013010107004+69600+017833FM-12+001499999V02099999999999999999N9999999N1+00041-00471999999REMSYN042AAXX  01071 01015 46/// ///// 10004 21047;
0051010150999992013010108004+69600+017833FM-12+001499999V02099999999999999999N9999999N1+00021-00471999999REMSYN042AAXX  01081 01015 46/// ///// 10002 21047;
0051010150999992013010109004+69600+017833FM-12+001499999V02099999999999999999N9999999N1-00031-00471999999REMSYN042AAXX  01091 01015 46/// ///// 11003 21047;
0051010150999992013010110004+69600+017833FM-12+001499999V02099999999999999999N9999999N1-00021-00491999999REMSYN042AAXX  01101 01015 46/// ///// 11002 21049;
0051010150999992013010111004+69600+017833FM-12+001499999V02099999999999999999N9999999N1+00011-00471999999REMSYN042AAXX  01111 01015 46/// ///// 10001 21047;
0061010150999992013010112004+69600+017833FM-12+001499999V02099999999999999999N9999999N1-00011-00491999999REMSYN052AAXX  01121 01015 46/// ///// 11001 21049 333 91110;
0051010150999992013010113004+69600+017833FM-12+001499999V02099999999999999999N9999999N1-00021-00431999999REMSYN042AAXX  01131 01015 46/// ///// 11002 21043;
0051010150999992013010114004+69600+017833FM-12+001499999V02099999999999999999N9999999N1-00011-00421999999REMSYN042AAXX  01141 01015 46/// ///// 11001 21042;
0051010150999992013010115004+69600+017833FM-12+001499999V02099999999999999999N9999999N1-00011-00461999999REMSYN042AAXX  01151 01015 46/// ///// 11001 21046;
0051010150999992013010116004+69600+017833FM-12+001499999V02099999999999999999N9999999N1-00031-00451999999REMSYN042AAXX  01161 01015 46/// ///// 11003 21045;
0051010150999992013010117004+69600+017833FM-12+001499999V02099999999999999999N9999999N1-00011-00421999999REMSYN042AAXX  01171 01015 46/// ///// 11001 21042;
0083010150999992013010118004+69600+017833FM-12+001499999V02099999999999999999N9999999N1-00011-00451999999ADDKA1120M+00051REMSYN058AAXX  01181 01015 46/// ///// 11001 21045 333 10005 91110;
0051010150999992013010119004+69600+017833FM-12+001499999V02099999999999999999N9999999N1-00011-00411999999REMSYN042AAXX  01191 01015 46/// ///// 11001 21041;
0051010150999992013010120004+69600+017833FM-12+001499999V02099999999999999999N9999999N1-00031-00381999999REMSYN042AAXX  01201 01015 46/// ///// 11003 21038;
0051010150999992013010121004+69600+017833FM-12+001499999V02099999999999999999N9999999N1-00051-00341999999REMSYN042AAXX  01211 01015 46/// ///// 11005 21034;
0051010150999992013010122004+69600+017833FM-12+001499999V02099999999999999999N9999999N1-00081-00361999999REMSYN042AAXX  01221 01015 46/// ///// 11008 21036;
0051010150999992013010123004+69600+017833FM-12+001499999V02099999999999999999N9999999N1-00091-00361999999REMSYN042AAXX  01231 01015 46/// ///// 11009 21036;
0061010150999992013010200004+69600+017833FM-12+001499999V02099999999999999999N9999999N1-00081-00311999999REMSYN052AAXX  02001 01015 46/// ///// 11008 21031 333 91109;
0051010150999992013010201004+69600+017833FM-12+001499999V02099999999999999999N9999999N1-00091-00321999999REMSYN042AAXX  02011 01015 46/// ///// 11009 21032;
0051010150999992013010202004+69600+017833FM-12+001499999V02099999999999999999N9999999N1-00101-00321999999REMSYN042AAXX  02021 01015 46/// ///// 11010 21032;
0051010150999992013010203004+69600+017833FM-12+001499999V02099999999999999999N9999999N1-00141-00351999999REMSYN042AAXX  02031 01015 46/// ///// 11014 21035;
0051010150999992013010204004+69600+017833FM-12+001499999V02099999999999999999N9999999N1-00141-00351999999REMSYN042AAXX  02041 01015 46/// ///// 11014 21035;
0051010150999992013010205004+69600+017833FM-12+001499999V02099999999999999999N9999999N1-00161-00371999999REMSYN042AAXX  02051 01015 46/// ///// 11016 21037;
0083010150999992013010206004+69600+017833FM-12+001499999V02099999999999999999N9999999N1-00181-00381999999ADDKA1999N-00181REMSYN058AAXX  02061 01015 46/// ///// 11018 21038 333 21018 91109;
0051010150999992013010207004+69600+017833FM-12+001499999V02099999999999999999N9999999N1-00231-00411999999REMSYN042AAXX  02071 01015 46/// ///// 11023 21041;
0051010150999992013010208004+69600+017833FM-12+001499999V02099999999999999999N9999999N1-00241-00411999999REMSYN042AAXX  02081 01015 46/// ///// 11024 21041;
0051010150999992013010209004+69600+017833FM-12+001499999V02099999999999999999N9999999N1-00231-00391999999REMSYN042AAXX  02091 01015 46/// ///// 11023 21039;
0051010150999992013010210004+69600+017833FM-12+001499999V02099999999999999999N9999999N1-00251-00421999999REMSYN042AAXX  02101 01015 46/// ///// 11025 21042;
0051010150999992013010211004+69600+017833FM-12+001499999V02099999999999999999N9999999N1-00251-00431999999REMSYN042AAXX  02111 01015 46/// ///// 11025 21043;
0061010150999992013010212004+69600+017833FM-12+001499999V02099999999999999999N9999999N1-00251-00431999999REMSYN052AAXX  02121 01015 46/// ///// 11025 21043 333 91111;
0051010150999992013010213004+69600+017833FM-12+001499999V02099999999999999999N9999999N1-00261-00441999999REMSYN042AAXX  02131 01015 46/// ///// 11026 21044;
0051010150999992013010214004+69600+017833FM-12+001499999V02099999999999999999N9999999N1-00261-00441999999REMSYN042AAXX  02141 01015 46/// ///// 11026 21044;
0051010150999992013010215004+69600+017833FM-12+001499999V02099999999999999999N9999999N1-00271-00431999999REMSYN042AAXX  02151 01015 46/// ///// 11027 21043;
0051010150999992013010216004+69600+017833FM-12+001499999V02099999999999999999N9999999N1-00241-00401999999REMSYN042AAXX  02161 01015 46/// ///// 11024 21040;
0051010150999992013010217004+69600+017833FM-12+001499999V02099999999999999999N9999999N1-00211-00371999999REMSYN042AAXX  02171 01015 46/// ///// 11021 21037;
0083010150999992013010218004+69600+017833FM-12+001499999V02099999999999999999N9999999N1-00171-00331999999ADDKA1120M-00171REMSYN058AAXX  02181 01015 46/// ///// 11017 21033 333 11017 91114;
0051010150999992013010219004+69600+017833FM-12+001499999V02099999999999999999N9999999N1-00151-00331999999REMSYN042AAXX  02191 01015 46/// ///// 11015 21033;
0051010150999992013010220004+69600+017833FM-12+001499999V02099999999999999999N9999999N1-00091-00311999999REMSYN042AAXX  02201 01015 46/// ///// 11009 21031;
0051010150999992013010221004+69600+017833FM-12+001499999V02099999999999999999N9999999N1-00051-00301999999REMSYN042AAXX  02211 01015 46/// ///// 11005 21030;
0051010150999992013010222004+69600+017833FM-12+001499999V02099999999999999999N9999999N1-00041-00321999999REMSYN042AAXX  02221 01015 46/// ///// 11004 21032;
0051010150999992013010223004+69600+017833FM-12+001499999V02099999999999999999N9999999N1-00011-00311999999REMSYN042AAXX  02231 01015 46/// ///// 11001 21031;
0061010150999992013010300004+69600+017833FM-12+001499999V02099999999999999999N9999999N1-00011-00311999999REMSYN052AAXX  03001 01015 46/// ///// 11001 21031 333 91114;
0051010150999992013010301004+69600+017833FM-12+001499999V02099999999999999999N9999999N1-00021-00311999999REMSYN042AAXX  03011 01015 46/// ///// 11002 21031;
0051010150999992013010302004+69600+017833FM-12+001499999V02099999999999999999N9999999N1-00021-00291999999REMSYN042AAXX  03021 01015 46/// ///// 11002 21029;
0051010150999992013010303004+69600+017833FM-12+001499999V02099999999999999999N9999999N1+00021-00291999999REMSYN042AAXX  03031 01015 46/// ///// 10002 21029;
0051010150999992013010304004+69600+017833FM-12+001499999V02099999999999999999N9999999N1+00011-00291999999REMSYN042AAXX  03041 01015 46/// ///// 10001 21029;
0051010150999992013010305004+69600+017833FM-12+001499999V02099999999999999999N9999999N1+00051-00271999999REMSYN042AAXX  03051 01015 46/// ///// 10005 21027;
0083010150999992013010306004+69600+017833FM-12+001499999V02099999999999999999N9999999N1+00061-00241999999ADDKA1999N-00181REMSYN058AAXX  03061 01015 46/// ///// 10006 21024 333 21018 91112;
0051010150999992013010308004+69600+017833FM-12+001499999V02099999999999999999N9999999N1+00061-00171999999REMSYN042AAXX  03081 01015 46/// ///// 10006 21017;
0051010150999992013010309004+69600+017833FM-12+001499999V02099999999999999999N9999999N1+00071-00181999999REMSYN042AAXX  03091 01015 46/// ///// 10007 21018;
0051010150999992013010310004+69600+017833FM-12+001499999V02099999999999999999N9999999N1+00051-00211999999REMSYN042AAXX  03101 01015 46/// ///// 10005 21021;
0051010150999992013010311004+69600+017833FM-12+001499999V02099999999999999999N9999999N1-00011-00251999999REMSYN042AAXX  03111 01015 46/// ///// 11001 21025;
0061010150999992013010312004+69600+017833FM-12+001499999V02099999999999999999N9999999N1-00011-00231999999REMSYN052AAXX  03121 01015 46/// ///// 11001 21023 333 91111;
0051010150999992013010313004+69600+017833FM-12+001499999V02099999999999999999N9999999N1-00031-00231999999REMSYN042AAXX  03131 01015 46/// ///// 11003 21023;
0051010150999992013010314004+69600+017833FM-12+001499999V02099999999999999999N9999999N1-00091-00281999999REMSYN042AAXX  03141 01015 46/// ///// 11009 21028;
0051010150999992013010315004+69600+017833FM-12+001499999V02099999999999999999N9999999N1-00081-00271999999REMSYN042AAXX  03151 01015 46/// ///// 11008 21027;
0051010150999992013010316004+69600+017833FM-12+001499999V02099999999999999999N9999999N1-00101-00301999999REMSYN042AAXX  03161 01015 46/// ///// 11010 21030;
0051010150999992013010317004+69600+017833FM-12+001499999V02099999999999999999N9999999N1-00091-00311999999REMSYN042AAXX  03171 01015 46/// ///// 11009 21031;
0083010150999992013010318004+69600+017833FM-12+001499999V02099999999999999999N9999999N1-00131-00371999999ADDKA1120M+00081REMSYN058AAXX  03181 01015 46/// ///// 11013 21037 333 10008 91108;
0051010150999992013010319004+69600+017833FM-12+001499999V02099999999999999999N9999999N1-00141-00371999999REMSYN042AAXX  03191 01015 46/// ///// 11014 21037;
0051010150999992013010320004+69600+017833FM-12+001499999V02099999999999999999N9999999N1-00161-00391999999REMSYN042AAXX  03201 01015 46/// ///// 11016 21039;
0051010150999992013010321004+69600+017833FM-12+001499999V02099999999999999999N9999999N1-00141-00361999999REMSYN042AAXX  03211 01015 46/// ///// 11014 21036;
0051010150999992013010322004+69600+017833FM-12+001499999V02099999999999999999N9999999N1-00141-00351999999REMSYN042AAXX  03221 01015 46/// ///// 11014 21035;
0051010150999992013010323004+69600+017833FM-12+001499999V02099999999999999999N9999999N1-00111-00311999999REMSYN042AAXX  03231 01015 46/// ///// 11011 21031;
0061010150999992013010400004+69600+017833FM-12+001499999V02099999999999999999N9999999N1-00111-00301999999REMSYN052AAXX  04001 01015 46/// ///// 11011 21030 333 91104;
0051010150999992013010401004+69600+017833FM-12+001499999V02099999999999999999N9999999N1-00101-00271999999REMSYN042AAXX  04011 01015 46/// ///// 11010 21027;
0051010150999992013010402004+69600+017833FM-12+001499999V02099999999999999999N9999999N1-00131-00301999999REMSYN042AAXX  04021 01015 46/// ///// 11013 21030;
0051010150999992013010403004+69600+017833FM-12+001499999V02099999999999999999N9999999N1-00131-00281999999REMSYN042AAXX  04031 01015 46/// ///// 11013 21028;
0051010150999992013010404004+69600+017833FM-12+001499999V02099999999999999999N9999999N1-00131-00271999999REMSYN042AAXX  04041 01015 46/// ///// 11013 21027;
0051010150999992013010405004+69600+017833FM-12+001499999V02099999999999999999N9999999N1-00121-00271999999REMSYN042AAXX  04051 01015 46/// ///// 11012 21027;
0083010150999992013010406004+69600+017833FM-12+001499999V02099999999999999999N9999999N1-00121-00281999999ADDKA1999N-00181REMSYN058AAXX  04061 01015 46/// ///// 11012 21028 333 21018 91110;
0051010150999992013010407004+69600+017833FM-12+001499999V02099999999999999999N9999999N1-00101-00271999999REMSYN042AAXX  04071 01015 46/// ///// 11010 21027;
0051010150999992013010408004+69600+017833FM-12+001499999V02099999999999999999N9999999N1-00081-00251999999REMSYN042AAXX  04081 01015 46/// ///// 11008 21025;
0051010150999992013010409004+69600+017833FM-12+001499999V02099999999999999999N9999999N1-00081-00201999999REMSYN042AAXX  04091 01015 46/// ///// 11008 21020;
0051010150999992013010410004+69600+017833FM-12+001499999V02099999999999999999N9999999N1-00041-00161999999REMSYN042AAXX  04101 01015 46/// ///// 11004 21016;
0051010150999992013010411004+69600+017833FM-12+001499999V02099999999999999999N9999999N1+00161+00031999999REMSYN042AAXX  04111 01015 46/// ///// 10016 20003;
0061010150999992013010412004+69600+017833FM-12+001499999V02099999999999999999N9999999N1+00211+00071999999REMSYN052AAXX  04121 01015 46/// ///// 10021 20007 333 91114;
0051010150999992013010413004+69600+017833FM-12+001499999V02099999999999999999N9999999N1+00241+00071999999REMSYN042AAXX  04131 01015 46/// ///// 10024 20007;
0051010150999992013010414004+69600+017833FM-12+001499999V02099999999999999999N9999999N1+00211+00051999999REMSYN042AAXX  04141 01015 46/// ///// 10021 20005;
0051010150999992013010415004+69600+017833FM-12+001499999V02099999999999999999N9999999N1+00301+00101999999REMSYN042AAXX  04151 01015 46/// ///// 10030 20010;
0051010150999992013010416004+69600+017833FM-12+001499999V02099999999999999999N9999999N1+00281+00051999999REMSYN042AAXX  04161 01015 46/// ///// 10028 20005;
0051010150999992013010417004+69600+017833FM-12+001499999V02099999999999999999N9999999N1+00251+00041999999REMSYN042AAXX  04171 01015 46/// ///// 10025 20004;
0083010150999992013010418004+69600+017833FM-12+001499999V02099999999999999999N9999999N1+00281+00041999999ADDKA1120M+00331REMSYN058AAXX  04181 01015 46/// ///// 10028 20004 333 10033 91114;
0051010150999992013010419004+69600+017833FM-12+001499999V02099999999999999999N9999999N1+00341+00011999999REMSYN042AAXX  04191 01015 46/// ///// 10034 20001;
0051010150999992013010420004+69600+017833FM-12+001499999V02099999999999999999N9999999N1+00341+00051999999REMSYN042AAXX  04201 01015 46/// ///// 10034 20005;
0051010150999992013010421004+69600+017833FM-12+001499999V02099999999999999999N9999999N1+00341+00061999999REMSYN042AAXX  04211 01015 46/// ///// 10034 20006;
0051010150999992013010422004+69600+017833FM-12+001499999V02099999999999999999N9999999N1+00331+00031999999REMSYN042AAXX  04221 01015 46/// ///// 10033 20003;
0051010150999992013010423004+69600+017833FM-12+001499999V02099999999999999999N9999999N1+00351+00031999999REMSYN042AAXX  04231 01015 46/// ///// 10035 20003;
0061010150999992013010500004+69600+017833FM-12+001499999V02099999999999999999N9999999N1+00371+00031999999REMSYN052AAXX  05001 01015 46/// ///// 10037 20003 333 91109;
0051010150999992013010501004+69600+017833FM-12+001499999V02099999999999999999N9999999N1+00381+00001999999REMSYN042AAXX  05011 01015 46/// ///// 10038 20000;
0051010150999992013010502004+69600+017833FM-12+001499999V02099999999999999999N9999999N1+00341+00011999999REMSYN042AAXX  05021 01015 46/// ///// 10034 20001;
0051010150999992013010503004+69600+017833FM-12+001499999V02099999999999999999N9999999N1+00341+00011999999REMSYN042AAXX  05031 01015 46/// ///// 10034 20001;
0051010150999992013010504004+69600+017833FM-12+001499999V02099999999999999999N9999999N1+00271+00001999999REMSYN042AAXX  05041 01015 46/// ///// 10027 21000;
0051010150999992013010505004+69600+017833FM-12+001499999V02099999999999999999N9999999N1+00261+00011999999REMSYN042AAXX  05051 01015 46/// ///// 10026 20001;
0083010150999992013010506004+69600+017833FM-12+001499999V02099999999999999999N9999999N1+00251+00031999999ADDKA1999N+00251REMSYN058AAXX  05061 01015 46/// ///// 10025 20003 333 20025 91112;
0051010150999992013010507004+69600+017833FM-12+001499999V02099999999999999999N9999999N1+00231+00011999999REMSYN042AAXX  05071 01015 46/// ///// 10023 20001;
0051010150999992013010508004+69600+017833FM-12+001499999V02099999999999999999N9999999N1+00281+00041999999REMSYN042AAXX  05081 01015 46/// ///// 10028 20004;
0051010150999992013010509004+69600+017833FM-12+001499999V02099999999999999999N9999999N1+00311+00051999999REMSYN042AAXX  05091 01015 46/// ///// 10031 20005;
0051010150999992013010510004+69600+017833FM-12+001499999V02099999999999999999N9999999N1+00321+00021999999REMSYN042AAXX  05101 01015 46/// ///// 10032 20002;
0051010150999992013010511004+69600+017833FM-12+001499999V02099999999999999999N9999999N1+00291-00051999999REMSYN042AAXX  05111 01015 46/// ///// 10029 21005;
0061010150999992013010512004+69600+017833FM-12+001499999V02099999999999999999N9999999N1+00271-00081999999REMSYN052AAXX  05121 01015 46/// ///// 10027 21008 333 91111;
0051010150999992013010513004+69600+017833FM-12+001499999V02099999999999999999N9999999N1+00251-00131999999REMSYN042AAXX  05131 01015 46/// ///// 10025 21013;
0051010150999992013010514004+69600+017833FM-12+001499999V02099999999999999999N9999999N1+00241-00101999999REMSYN042AAXX  05141 01015 46/// ///// 10024 21010;
0051010150999992013010515004+69600+017833FM-12+001499999V02099999999999999999N9999999N1+00231-00121999999REMSYN042AAXX  05151 01015 46/// ///// 10023 21012;
0051010150999992013010516004+69600+017833FM-12+001499999V02099999999999999999N9999999N1+00201-00201999999REMSYN042AAXX  05161 01015 46/// ///// 10020 21020;
0051010150999992013010517004+69600+017833FM-12+001499999V02099999999999999999N9999999N1+00191-00261999999REMSYN042AAXX  05171 01015 46/// ///// 10019 21026;
0083010150999992013010518004+69600+017833FM-12+001499999V02099999999999999999N9999999N1+00251-00341999999ADDKA1120M+00321REMSYN058AAXX  05181 01015 46/// ///// 10025 21034 333 10032 91113;
0051010150999992013010519004+69600+017833FM-12+001499999V02099999999999999999N9999999N1+00261-00351999999REMSYN042AAXX  05191 01015 46/// ///// 10026 21035;
0051010150999992013010520004+69600+017833FM-12+001499999V02099999999999999999N9999999N1+00241-00381999999REMSYN042AAXX  05201 01015 46/// ///// 10024 21038;
0051010150999992013010521004+69600+017833FM-12+001499999V02099999999999999999N9999999N1+00191-00421999999REMSYN042AAXX  05211 01015 46/// ///// 10019 21042;
0051010150999992013010522004+69600+017833FM-12+001499999V02099999999999999999N9999999N1+00201-00451999999REMSYN042AAXX  05221 01015 46/// ///// 10020 21045;
0051010150999992013010523004+69600+017833FM-12+001499999V02099999999999999999N9999999N1+00241-00511999999REMSYN042AAXX  05231 01015 46/// ///// 10024 21051;
0061010150999992013010600004+69600+017833FM-12+001499999V02099999999999999999N9999999N1+00181-00491999999REMSYN052AAXX  06001 01015 46/// ///// 10018 21049 333 91115;
0051010150999992013010601004+69600+017833FM-12+001499999V02099999999999999999N9999999N1+00211-00481999999REMSYN042AAXX  06011 01015 46/// ///// 10021 21048;
0051010150999992013010602004+69600+017833FM-12+001499999V02099999999999999999N9999999N1+00241-00561999999REMSYN042AAXX  06021 01015 46/// ///// 10024 21056;
0051010150999992013010603004+69600+017833FM-12+001499999V02099999999999999999N9999999N1+00271-00501999999REMSYN042AAXX  06031 01015 46/// ///// 10027 21050;
0051010150999992013010604004+69600+017833FM-12+001499999V02099999999999999999N9999999N1+00301-00501999999REMSYN042AAXX  06041 01015 46/// ///// 10030 21050;
0051010150999992013010605004+69600+017833FM-12+001499999V02099999999999999999N9999999N1+00281-00491999999REMSYN042AAXX  06051 01015 46/// ///// 10028 21049;
0083010150999992013010606004+69600+017833FM-12+001499999V02099999999999999999N9999999N1+00301-00371999999ADDKA1999N+00171REMSYN058AAXX  06061 01015 46/// ///// 10030 21037 333 20017 91119;
0051010150999992013010607004+69600+017833FM-12+001499999V02099999999999999999N9999999N1+00271-00161999999REMSYN042AAXX  06071 01015 46/// ///// 10027 21016;
0051010150999992013010608004+69600+017833FM-12+001499999V02099999999999999999N9999999N1+00291-00181999999REMSYN042AAXX  06081 01015 46/// ///// 10029 21018;
0051010150999992013010609004+69600+017833FM-12+001499999V02099999999999999999N9999999N1+00341-00101999999REMSYN042AAXX  06091 01015 46/// ///// 10034 21010;
0051010150999992013010610004+69600+017833FM-12+001499999V02099999999999999999N9999999N1+00441-00191999999REMSYN042AAXX  06101 01015 46/// ///// 10044 21019;
0051010150999992013010611004+69600+017833FM-12+001499999V02099999999999999999N9999999N1+00411-00191999999REMSYN042AAXX  06111 01015 46/// ///// 10041 21019;
0061010150999992013010612004+69600+017833FM-12+001499999V02099999999999999999N9999999N1+00401-00141999999REMSYN052AAXX  06121 01015 46/// ///// 10040 21014 333 91119;
0051010150999992013010613004+69600+017833FM-12+001499999V02099999999999999999N9999999N1+00551+00011999999REMSYN042AAXX  06131 01015 46/// ///// 10055 20001;
0051010150999992013010614004+69600+017833FM-12+001499999V02099999999999999999N9999999N1+00491+00031999999REMSYN042AAXX  06141 01015 46/// ///// 10049 20003;
0051010150999992013010615004+69600+017833FM-12+001499999V02099999999999999999N9999999N1+00461+00101999999REMSYN042AAXX  06151 01015 46/// ///// 10046 20010;
0051010150999992013010616004+69600+017833FM-12+001499999V02099999999999999999N9999999N1+00631+00241999999REMSYN042AAXX  06161 01015 46/// ///// 10063 20024;
0051010150999992013010617004+69600+017833FM-12+001499999V02099999999999999999N9999999N1+00671+00261999999REMSYN042AAXX  06171 01015 46/// ///// 10067 20026;
0083010150999992013010618004+69600+017833FM-12+001499999V02099999999999999999N9999999N1+00621+00291999999ADDKA1120M+00691REMSYN058AAXX  06181 01015 46/// ///// 10062 20029 333 10069 91119;
0051010150999992013010619004+69600+017833FM-12+001499999V02099999999999999999N9999999N1+00631+00251999999REMSYN042AAXX  06191 01015 46/// ///// 10063 20025;
0051010150999992013010620004+69600+017833FM-12+001499999V02099999999999999999N9999999N1+00491+00231999999REMSYN042AAXX  06201 01015 46/// ///// 10049 20023;
0051010150999992013010621004+69600+017833FM-12+001499999V02099999999999999999N9999999N1+00591+00191999999REMSYN042AAXX  06211 01015 46/// ///// 10059 20019;
0051010150999992013010622004+69600+017833FM-12+001499999V02099999999999999999N9999999N1+00581+00221999999REMSYN042AAXX  06221 01015 46/// ///// 10058 20022;
0051010150999992013010623004+69600+017833FM-12+001499999V02099999999999999999N9999999N1+00521+00221999999REMSYN042AAXX  06231 01015 46/// ///// 10052 20022;
0061010150999992013010700004+69600+017833FM-12+001499999V02099999999999999999N9999999N1+00531+00231999999REMSYN052AAXX  07001 01015 46/// ///// 10053 20023 333 91124;
0051010150999992013010701004+69600+017833FM-12+001499999V02099999999999999999N9999999N1+00591+00201999999REMSYN042AAXX  07011 01015 46/// ///// 10059 20020;
0051010150999992013010702004+69600+017833FM-12+001499999V02099999999999999999N9999999N1+00531+00241999999REMSYN042AAXX  07021 01015 46/// ///// 10053 20024;
0051010150999992013010703004+69600+017833FM-12+001499999V02099999999999999999N9999999N1+00571+00181999999REMSYN042AAXX  07031 01015 46/// ///// 10057 20018;
0051010150999992013010704004+69600+017833FM-12+001499999V02099999999999999999N9999999N1+00541+00131999999REMSYN042AAXX  07041 01015 46/// ///// 10054 20013;
0051010150999992013010705004+69600+017833FM-12+001499999V02099999999999999999N9999999N1+00491+00141999999REMSYN042AAXX  07051 01015 46/// ///// 10049 20014;
0083010150999992013010706004+69600+017833FM-12+001499999V02099999999999999999N9999999N1+00501+00091999999ADDKA1999N+00471REMSYN058AAXX  07061 01015 46/// ///// 10050 20009 333 20047 91119;
0051010150999992013010707004+69600+017833FM-12+001499999V02099999999999999999N9999999N1+00501-00021999999REMSYN042AAXX  07071 01015 46/// ///// 10050 21002;
0051010150999992013010708004+69600+017833FM-12+001499999V02099999999999999999N9999999N1+00471+00011999999REMSYN042AAXX  07081 01015 46/// ///// 10047 20001;
0051010150999992013010709004+69600+017833FM-12+001499999V02099999999999999999N9999999N1+00441+00061999999REMSYN042AAXX  07091 01015 46/// ///// 10044 20006;
0051010150999992013010710004+69600+017833FM-12+001499999V02099999999999999999N9999999N1+00441+00071999999REMSYN042AAXX  07101 01015 46/// ///// 10044 20007;
0051010150999992013010711004+69600+017833FM-12+001499999V02099999999999999999N9999999N1+00411+00131999999REMSYN042AAXX  07111 01015 46/// ///// 10041 20013;
0061010150999992013010712004+69600+017833FM-12+001499999V02099999999999999999N9999999N1+00381+00121999999REMSYN052AAXX  07121 01015 46/// ///// 10038 20012 333 91113;
0051010150999992013010713004+69600+017833FM-12+001499999V02099999999999999999N9999999N1+00331+00091999999REMSYN042AAXX  07131 01015 46/// ///// 10033 20009;
0051010150999992013010714004+69600+017833FM-12+001499999V02099999999999999999N9999999N1+00301+00061999999REMSYN042AAXX  07141 01015 46/// ///// 10030 20006;
0051010150999992013010715004+69600+017833FM-12+001499999V02099999999999999999N9999999N1+00301+00061999999REMSYN042AAXX  07151 01015 46/// ///// 10030 20006;
0051010150999992013010716004+69600+017833FM-12+001499999V02099999999999999999N9999999N1+00291+00061999999REMSYN042AAXX  07161 01015 46/// ///// 10029 20006;
0051010150999992013010717004+69600+017833FM-12+001499999V02099999999999999999N9999999N1+00281+00071999999REMSYN042AAXX  07171 01015 46/// ///// 10028 20007;
0083010150999992013010718004+69600+017833FM-12+001499999V02099999999999999999N9999999N1+00241+00051999999ADDKA1120M+00511REMSYN058AAXX  07181 01015 46/// ///// 10024 20005 333 10051 91110;
0051010150999992013010719004+69600+017833FM-12+001499999V02099999999999999999N9999999N1+00231+00021999999REMSYN042AAXX  07191 01015 46/// ///// 10023 20002;
0051010150999992013010720004+69600+017833FM-12+001499999V02099999999999999999N9999999N1+00241-00031999999REMSYN042AAXX  07201 01015 46/// ///// 10024 21003;
0051010150999992013010721004+69600+017833FM-12+001499999V02099999999999999999N9999999N1+00211-00071999999REMSYN042AAXX  07211 01015 46/// ///// 10021 21007;
0051010150999992013010722004+69600+017833FM-12+001499999V02099999999999999999N9999999N1+00211-00101999999REMSYN042AAXX  07221 01015 46/// ///// 10021 21010;
0051010150999992013010723004+69600+017833FM-12+001499999V02099999999999999999N9999999N1+00191-00131999999REMSYN042AAXX  07231 01015 46/// ///// 10019 21013;
0061010150999992013010800004+69600+017833FM-12+001499999V02099999999999999999N9999999N1+00201-00151999999REMSYN052AAXX  08001 01015 46/// ///// 10020 21015 333 91112;
0051010150999992013010801004+69600+017833FM-12+001499999V02099999999999999999N9999999N1+00211-00321999999REMSYN042AAXX  08011 01015 46/// ///// 10021 21032;
0051010150999992013010802004+69600+017833FM-12+001499999V02099999999999999999N9999999N1+00191-00351999999REMSYN042AAXX  08021 01015 46/// ///// 10019 21035;
0051010150999992013010803004+69600+017833FM-12+001499999V02099999999999999999N9999999N1+00191-00301999999REMSYN042AAXX  08031 01015 46/// ///// 10019 21030;
0051010150999992013010804004+69600+017833FM-12+001499999V02099999999999999999N9999999N1+00141-00391999999REMSYN042AAXX  08041 01015 46/// ///// 10014 21039;
0051010150999992013010805004+69600+017833FM-12+001499999V02099999999999999999N9999999N1+00161-00311999999REMSYN042AAXX  08051 01015 46/// ///// 10016 21031;
0083010150999992013010806004+69600+017833FM-12+001499999V02099999999999999999N9999999N1+00201-00321999999ADDKA1999N+00141REMSYN058AAXX  08061 01015 46/// ///// 10020 21032 333 20014 91114;
0051010150999992013010807004+69600+017833FM-12+001499999V02099999999999999999N9999999N1+00241-00381999999REMSYN042AAXX  08071 01015 46/// ///// 10024 21038;
0051010150999992013010808004+69600+017833FM-12+001499999V02099999999999999999N9999999N1+00191-00271999999REMSYN042AAXX  08081 01015 46/// ///// 10019 21027;
0051010150999992013010809004+69600+017833FM-12+001499999V02099999999999999999N9999999N1+00151-00101999999REMSYN042AAXX  08091 01015 46/// ///// 10015 21010;
0051010150999992013010810004+69600+017833FM-12+001499999V02099999999999999999N9999999N1+00201-00081999999REMSYN042AAXX  08101 01015 46/// ///// 10020 21008;
0051010150999992013010811004+69600+017833FM-12+001499999V02099999999999999999N9999999N1+00201-00051999999REMSYN042AAXX  08111 01015 46/// ///// 10020 21005;
0061010150999992013010812004+69600+017833FM-12+001499999V02099999999999999999N9999999N1+00291+00041999999REMSYN052AAXX  08121 01015 46/// ///// 10029 20004 333 91118;
0051010150999992013010813004+69600+017833FM-12+001499999V02099999999999999999N9999999N1+00321+00091999999REMSYN042AAXX  08131 01015 46/// ///// 10032 20009;
0051010150999992013010814004+69600+017833FM-12+001499999V02099999999999999999N9999999N1+00331+00101999999REMSYN042AAXX  08141 01015 46/// ///// 10033 20010;
0051010150999992013010815004+69600+017833FM-12+001499999V02099999999999999999N9999999N1+00331+00091999999REMSYN042AAXX  08151 01015 46/// ///// 10033 20009;
0051010150999992013010816004+69600+017833FM-12+001499999V02099999999999999999N9999999N1+00251-00041999999REMSYN042AAXX  08161 01015 46/// ///// 10025 21004;
0051010150999992013010817004+69600+017833FM-12+001499999V02099999999999999999N9999999N1+00251-00101999999REMSYN042AAXX  08171 01015 46/// ///// 10025 21010;
0083010150999992013010818004+69600+017833FM-12+001499999V02099999999999999999N9999999N1+00171-00131999999ADDKA1120M+00351REMSYN058AAXX  08181 01015 46/// ///// 10017 21013 333 10035 91119;
0051010150999992013010819004+69600+017833FM-12+001499999V02099999999999999999N9999999N1+00101-00191999999REMSYN042AAXX  08191 01015 46/// ///// 10010 21019;
0051010150999992013010821004+69600+017833FM-12+001499999V02099999999999999999N9999999N1+00041-00181999999REMSYN042AAXX  08211 01015 46/// ///// 10004 21018;
0051010150999992013010823004+69600+017833FM-12+001499999V02099999999999999999N9999999N1+00151-00301999999REMSYN042AAXX  08231 01015 46/// ///// 10015 21030;
0061010150999992013010900004+69600+017833FM-12+001499999V02099999999999999999N9999999N1+00111-00221999999REMSYN052AAXX  09001 01015 46/// ///// 10011 21022 333 91118;
0051010150999992013010901004+69600+017833FM-12+001499999V02099999999999999999N9999999N1+00111-00191999999REMSYN042AAXX  09011 01015 46/// ///// 10011 21019;
0051010150999992013010902004+69600+017833FM-12+001499999V02099999999999999999N9999999N1+00151-00091999999REMSYN042AAXX  09021 01015 46/// ///// 10015 21009;
0051010150999992013010903004+69600+017833FM-12+001499999V02099999999999999999N9999999N1+00211+00001999999REMSYN042AAXX  09031 01015 46/// ///// 10021 20000;
0051010150999992013010904004+69600+017833FM-12+001499999V02099999999999999999N9999999N1+00291+00061999999REMSYN042AAXX  09041 01015 46/// ///// 10029 20006;
0051010150999992013010905004+69600+017833FM-12+001499999V02099999999999999999N9999999N1+00221+00031999999REMSYN042AAXX  09051 01015 46/// ///// 10022 20003;
0083010150999992013010906004+69600+017833FM-12+001499999V02099999999999999999N9999999N1+00281+00081999999ADDKA1999N+00031REMSYN058AAXX  09061 01015 46/// ///// 10028 20008 333 20003 91117;
0051010150999992013010907004+69600+017833FM-12+001499999V02099999999999999999N9999999N1+00291+00091999999REMSYN042AAXX  09071 01015 46/// ///// 10029 20009;
0051010150999992013010908004+69600+017833FM-12+001499999V02099999999999999999N9999999N1+00321+00131999999REMSYN042AAXX  09081 01015 46/// ///// 10032 20013;
0051010150999992013010909004+69600+017833FM-12+001499999V02099999999999999999N9999999N1+00361+00171999999REMSYN042AAXX  09091 01015 46/// ///// 10036 20017;
0051010150999992013010910004+69600+017833FM-12+001499999V02099999999999999999N9999999N1+00381+00211999999REMSYN042AAXX  09101 01015 46/// ///// 10038 20021;
0051010150999992013010911004+69600+017833FM-12+001499999V02099999999999999999N9999999N1+00401+00201999999REMSYN042AAXX  09111 01015 46/// ///// 10040 20020;
0061010150999992013010912004+69600+017833FM-12+001499999V02099999999999999999N9999999N1+00381+00141999999REMSYN052AAXX  09121 01015 46/// ///// 10038 20014 333 91117;
0051010150999992013010913004+69600+017833FM-12+001499999V02099999999999999999N9999999N1+00331+00131999999REMSYN042AAXX  09131 01015 46/// ///// 10033 20013;
0051010150999992013010914004+69600+017833FM-12+001499999V02099999999999999999N9999999N1+00351+00121999999REMSYN042AAXX  09141 01015 46/// ///// 10035 20012;
0051010150999992013010915004+69600+017833FM-12+001499999V02099999999999999999N9999999N1+00321+00101999999REMSYN042AAXX  09151 01015 46/// ///// 10032 20010;
0051010150999992013010916004+69600+017833FM-12+001499999V02099999999999999999N9999999N1+00291+00081999999REMSYN042AAXX  09161 01015 46/// ///// 10029 20008;
0051010150999992013010917004+69600+017833FM-12+001499999V02099999999999999999N9999999N1+00301+00091999999REMSYN042AAXX  09171 01015 46/// ///// 10030 20009;
0083010150999992013010918004+69600+017833FM-12+001499999V02099999999999999999N9999999N1+00271+00061999999ADDKA1120M+00411REMSYN058AAXX  09181 01015 46/// ///// 10027 20006 333 10041 91115;
0051010150999992013010919004+69600+017833FM-12+001499999V02099999999999999999N9999999N1+00321+00061999999REMSYN042AAXX  09191 01015 46/// ///// 10032 20006;
0051010150999992013010920004+69600+017833FM-12+001499999V02099999999999999999N9999999N1+00301+00051999999REMSYN042AAXX  09201 01015 46/// ///// 10030 20005;
0051010150999992013010921004+69600+017833FM-12+001499999V02099999999999999999N9999999N1+00301+00061999999REMSYN042AAXX  09211 01015 46/// ///// 10030 20006;
0051010150999992013010922004+69600+017833FM-12+001499999V02099999999999999999N9999999N1+00301+00021999999REMSYN042AAXX  09221 01015 46/// ///// 10030 20002;
0051010150999992013010923004+69600+017833FM-12+001499999V02099999999999999999N9999999N1+00281+00051999999REMSYN042AAXX  09231 01015 46/// ///// 10028 20005;
0061010150999992013011000004+69600+017833FM-12+001499999V02099999999999999999N9999999N1+00301+00091999999REMSYN052AAXX  10001 01015 46/// ///// 10030 20009 333 91113;
0051010150999992013011001004+69600+017833FM-12+001499999V02099999999999999999N9999999N1+00311+00081999999REMSYN042AAXX  10011 01015 46/// ///// 10031 20008;
0051010150999992013011002004+69600+017833FM-12+001499999V02099999999999999999N9999999N1+00321+00081999999REMSYN042AAXX  10021 01015 46/// ///// 10032 20008;
0051010150999992013011003004+69600+017833FM-12+001499999V02099999999999999999N9999999N1+00341+00081999999REMSYN042AAXX  10031 01015 46/// ///// 10034 20008;
0051010150999992013011004004+69600+017833FM-12+001499999V02099999999999999999N9999999N1+00341+00081999999REMSYN042AAXX  10041 01015 46/// ///// 10034 20008;
0051010150999992013011005004+69600+017833FM-12+001499999V02099999999999999999N9999999N1+00321+00101999999REMSYN042AAXX  10051 01015 46/// ///// 10032 20010;
0083010150999992013011006004+69600+017833FM-12+001499999V02099999999999999999N9999999N1+00311+00101999999ADDKA1999N+00271REMSYN058AAXX  10061 01015 46/// ///// 10031 20010 333 20027 91111;
0051010150999992013011007004+69600+017833FM-12+001499999V02099999999999999999N9999999N1+00321+00121999999REMSYN042AAXX  10071 01015 46/// ///// 10032 20012;
0051010150999992013011008004+69600+017833FM-12+001499999V02099999999999999999N9999999N1+00331+00131999999REMSYN042AAXX  10081 01015 46/// ///// 10033 20013;
0051010150999992013011009004+69600+017833FM-12+001499999V02099999999999999999N9999999N1+00331+00131999999REMSYN042AAXX  10091 01015 46/// ///// 10033 20013;
0051010150999992013011010004+69600+017833FM-12+001499999V02099999999999999999N9999999N1+00321+00131999999REMSYN042AAXX  10101 01015 46/// ///// 10032 20013;
0051010150999992013011011004+69600+017833FM-12+001499999V02099999999999999999N9999999N1+00291+00121999999REMSYN042AAXX  10111 01015 46/// ///// 10029 20012;
0061010150999992013011012004+69600+017833FM-12+001499999V02099999999999999999N9999999N1+00251+00101999999REMSYN052AAXX  10121 01015 46/// ///// 10025 20010 333 91110;
0051010150999992013011013004+69600+017833FM-12+001499999V02099999999999999999N9999999N1+00231+00071999999REMSYN042AAXX  10131 01015 46/// ///// 10023 20007;
0051010150999992013011014004+69600+017833FM-12+001499999V02099999999999999999N9999999N1+00251+00081999999REMSYN042AAXX  10141 01015 46/// ///// 10025 20008;
0051010150999992013011015004+69600+017833FM-12+001499999V02099999999999999999N9999999N1+00231+00051999999REMSYN042AAXX  10151 01015 46/// ///// 10023 20005;
0051010150999992013011016004+69600+017833FM-12+001499999V02099999999999999999N9999999N1+00181+00001999999REMSYN042AAXX  10161 01015 46/// ///// 10018 20000;
0051010150999992013011017004+69600+017833FM-12+001499999V02099999999999999999N9999999N1+00151-00011999999REMSYN042AAXX  10171 01015 46/// ///// 10015 21001;
0083010150999992013011018004+69600+017833FM-12+001499999V02099999999999999999N9999999N1+00161+00001999999ADDKA1120M+00331REMSYN058AAXX  10181 01015 46/// ///// 10016 20000 333 10033 91105;
0051010150999992013011019004+69600+017833FM-12+001499999V02099999999999999999N9999999N1+00151+00001999999REMSYN042AAXX  10191 01015 46/// ///// 10015 21000;
0051010150999992013011020004+69600+017833FM-12+001499999V02099999999999999999N9999999N1+00131-00041999999REMSYN042AAXX  10201 01015 46/// ///// 10013 21004;
0051010150999992013011021004+69600+017833FM-12+001499999V02099999999999999999N9999999N1+00141-00041999999REMSYN042AAXX  10211 01015 46/// ///// 10014 21004;
0051010150999992013011022004+69600+017833FM-12+001499999V02099999999999999999N9999999N1+00141-00041999999REMSYN042AAXX  10221 01015 46/// ///// 10014 21004;
0051010150999992013011023004+69600+017833FM-12+001499999V02099999999999999999N9999999N1+00151-00051999999REMSYN042AAXX  10231 01015 46/// ///// 10015 21005;
0061010150999992013011100004+69600+017833FM-12+001499999V02099999999999999999N9999999N1+00141-00081999999REMSYN052AAXX  11001 01015 46/// ///// 10014 21008 333 91106;
0051010150999992013011101004+69600+017833FM-12+001499999V02099999999999999999N9999999N1+00151-00081999999REMSYN042AAXX  11011 01015 46/// ///// 10015 21008;
0051010150999992013011102004+69600+017833FM-12+001499999V02099999999999999999N9999999N1+00191-00101999999REMSYN042AAXX  11021 01015 46/// ///// 10019 21010;
0051010150999992013011103004+69600+017833FM-12+001499999V02099999999999999999N9999999N1+00181-00121999999REMSYN042AAXX  11031 01015 46/// ///// 10018 21012;
0051010150999992013011104004+69600+017833FM-12+001499999V02099999999999999999N9999999N1+00191-00151999999REMSYN042AAXX  11041 01015 46/// ///// 10019 21015;
0051010150999992013011105004+69600+017833FM-12+001499999V02099999999999999999N9999999N1+00221-00151999999REMSYN042AAXX  11051 01015 46/// ///// 10022 21015;
0083010150999992013011106004+69600+017833FM-12+001499999V02099999999999999999N9999999N1+00221-00161999999ADDKA1999N+00121REMSYN058AAXX  11061 01015 46/// ///// 10022 21016 333 20012 91109;
0051010150999992013011107004+69600+017833FM-12+001499999V02099999999999999999N9999999N1+00251-00121999999REMSYN042AAXX  11071 01015 46/// ///// 10025 21012;
0051010150999992013011108004+69600+017833FM-12+001499999V02099999999999999999N9999999N1+00271-00111999999REMSYN042AAXX  11081 01015 46/// ///// 10027 21011;
0051010150999992013011109004+69600+017833FM-12+001499999V02099999999999999999N9999999N1+00281-00131999999REMSYN042AAXX  11091 01015 46/// ///// 10028 21013;
0051010150999992013011110004+69600+017833FM-12+001499999V02099999999999999999N9999999N1+00281-00141999999REMSYN042AAXX  11101 01015 46/// ///// 10028 21014;
0051010150999992013011111004+69600+017833FM-12+001499999V02099999999999999999N9999999N1+00351-00051999999REMSYN042AAXX  11111 01015 46/// ///// 10035 21005;
0061010150999992013011112004+69600+017833FM-12+001499999V02099999999999999999N9999999N1+00331-00091999999REMSYN052AAXX  11121 01015 46/// ///// 10033 21009 333 91117;
0051010150999992013011113004+69600+017833FM-12+001499999V02099999999999999999N9999999N1+00351-00101999999REMSYN042AAXX  11131 01015 46/// ///// 10035 21010;
0051010150999992013011114004+69600+017833FM-12+001499999V02099999999999999999N9999999N1+00371-00051999999REMSYN042AAXX  11141 01015 46/// ///// 10037 21005;
0051010150999992013011115004+69600+017833FM-12+001499999V02099999999999999999N9999999N1+00371+00011999999REMSYN042AAXX  11151 01015 46/// ///// 10037 20001;
0051010150999992013011116004+69600+017833FM-12+001499999V02099999999999999999N9999999N1+00391+00041999999REMSYN042AAXX  11161 01015 46/// ///// 10039 20004;
0051010150999992013011117004+69600+017833FM-12+001499999V02099999999999999999N9999999N1+00411+00091999999REMSYN042AAXX  11171 01015 46/// ///// 10041 20009;
0083010150999992013011118004+69600+017833FM-12+001499999V02099999999999999999N9999999N1+00421+00081999999ADDKA1120M+00421REMSYN058AAXX  11181 01015 46/// ///// 10042 20008 333 10042 91116;
0051010150999992013011119004+69600+017833FM-12+001499999V02099999999999999999N9999999N1+00431+00091999999REMSYN042AAXX  11191 01015 46/// ///// 10043 20009;
0051010150999992013011120004+69600+017833FM-12+001499999V02099999999999999999N9999999N1+00421+00121999999REMSYN042AAXX  11201 01015 46/// ///// 10042 20012;
0051010150999992013011121004+69600+017833FM-12+001499999V02099999999999999999N9999999N1+00421+00131999999REMSYN042AAXX  11211 01015 46/// ///// 10042 20013;
0051010150999992013011122004+69600+017833FM-12+001499999V02099999999999999999N9999999N1+00411+00161999999REMSYN042AAXX  11221 01015 46/// ///// 10041 20016;
0051010150999992013011123004+69600+017833FM-12+001499999V02099999999999999999N9999999N1+00401+00161999999REMSYN042AAXX  11231 01015 46/// ///// 10040 20016;
0061010150999992013011200004+69600+017833FM-12+001499999V02099999999999999999N9999999N1+00421+00201999999REMSYN052AAXX  12001 01015 46/// ///// 10042 20020 333 91115;
0051010150999992013011201004+69600+017833FM-12+001499999V02099999999999999999N9999999N1+00451+00201999999REMSYN042AAXX  12011 01015 46/// ///// 10045 20020;
0051010150999992013011202004+69600+017833FM-12+001499999V02099999999999999999N9999999N1+00461+00191999999REMSYN042AAXX  12021 01015 46/// ///// 10046 20019;
0051010150999992013011203004+69600+017833FM-12+001499999V02099999999999999999N9999999N1+00481+00211999999REMSYN042AAXX  12031 01015 46/// ///// 10048 20021;
0051010150999992013011204004+69600+017833FM-12+001499999V02099999999999999999N9999999N1+00511+00241999999REMSYN042AAXX  12041 01015 46/// ///// 10051 20024;
0051010150999992013011205004+69600+017833FM-12+001499999V02099999999999999999N9999999N1+00531+00291999999REMSYN042AAXX  12051 01015 46/// ///// 10053 20029;
0083010150999992013011206004+69600+017833FM-12+001499999V02099999999999999999N9999999N1+00511+00311999999ADDKA1999N+00381REMSYN058AAXX  12061 01015 46/// ///// 10051 20031 333 20038 91116;
0051010150999992013011207004+69600+017833FM-12+001499999V02099999999999999999N9999999N1+00511+00331999999REMSYN042AAXX  12071 01015 46/// ///// 10051 20033;
0051010150999992013011208004+69600+017833FM-12+001499999V02099999999999999999N9999999N1+00481+00311999999REMSYN042AAXX  12081 01015 46/// ///// 10048 20031;
0051010150999992013011209004+69600+017833FM-12+001499999V02099999999999999999N9999999N1+00471+00281999999REMSYN042AAXX  12091 01015 46/// ///// 10047 20028;
0051010150999992013011210004+69600+017833FM-12+001499999V02099999999999999999N9999999N1+00461+00251999999REMSYN042AAXX  12101 01015 46/// ///// 10046 20025;
0051010150999992013011211004+69600+017833FM-12+001499999V02099999999999999999N9999999N1+00441+00251999999REMSYN042AAXX  12111 01015 46/// ///// 10044 20025;
0061010150999992013011212004+69600+017833FM-12+001499999V02099999999999999999N9999999N1+00451+00291999999REMSYN052AAXX  12121 01015 46/// ///// 10045 20029 333 91115;
0051010150999992013011213004+69600+017833FM-12+001499999V02099999999999999999N9999999N1+00441+00281999999REMSYN042AAXX  12131 01015 46/// ///// 10044 20028;
0051010150999992013011214004+69600+017833FM-12+001499999V02099999999999999999N9999999N1+00431+00261999999REMSYN042AAXX  12141 01015 46/// ///// 10043 20026;
0051010150999992013011215004+69600+017833FM-12+001499999V02099999999999999999N9999999N1+00421+00221999999REMSYN042AAXX  12151 01015 46/// ///// 10042 20022;
0051010150999992013011216004+69600+017833FM-12+001499999V02099999999999999999N9999999N1+00421+00201999999REMSYN042AAXX  12161 01015 46/// ///// 10042 20020;
0051010150999992013011217004+69600+017833FM-12+001499999V02099999999999999999N9999999N1+00401+00141999999REMSYN042AAXX  12171 01015 46/// ///// 10040 20014;
0083010150999992013011218004+69600+017833FM-12+001499999V02099999999999999999N9999999N1+00381+00091999999ADDKA1120M+00511REMSYN058AAXX  12181 01015 46/// ///// 10038 20009 333 10051 91107;
0051010150999992013011219004+69600+017833FM-12+001499999V02099999999999999999N9999999N1+00361+00051999999REMSYN042AAXX  12191 01015 46/// ///// 10036 20005;
0051010150999992013011220004+69600+017833FM-12+001499999V02099999999999999999N9999999N1+00351+00061999999REMSYN042AAXX  12201 01015 46/// ///// 10035 20006;
0051010150999992013011221004+69600+017833FM-12+001499999V02099999999999999999N9999999N1+00331+00081999999REMSYN042AAXX  12211 01015 46/// ///// 10033 20008;
0051010150999992013011222004+69600+017833FM-12+001499999V02099999999999999999N9999999N1+00311+00081999999REMSYN042AAXX  12221 01015 46/// ///// 10031 20008;
0051010150999992013011223004+69600+017833FM-12+001499999V02099999999999999999N9999999N1+00301+00101999999REMSYN042AAXX  12231 01015 46/// ///// 10030 20010;
0061010150999992013011300004+69600+017833FM-12+001499999V02099999999999999999N9999999N1+00281+00111999999REMSYN052AAXX  13001 01015 46/// ///// 10028 20011 333 91105;
0051010150999992013011301004+69600+017833FM-12+001499999V02099999999999999999N9999999N1+00261+00111999999REMSYN042AAXX  13011 01015 46/// ///// 10026 20011;
0051010150999992013011302004+69600+017833FM-12+001499999V02099999999999999999N9999999N1+00221+00091999999REMSYN042AAXX  13021 01015 46/// ///// 10022 20009;
0051010150999992013011303004+69600+017833FM-12+001499999V02099999999999999999N9999999N1+00181+00061999999REMSYN042AAXX  13031 01015 46/// ///// 10018 20006;
0051010150999992013011304004+69600+017833FM-12+001499999V02099999999999999999N9999999N1+00141+00021999999REMSYN042AAXX  13041 01015 46/// ///// 10014 20002;
0051010150999992013011305004+69600+017833FM-12+001499999V02099999999999999999N9999999N1+00101-00021999999REMSYN042AAXX  13051 01015 46/// ///// 10010 21002;
0083010150999992013011306004+69600+017833FM-12+001499999V02099999999999999999N9999999N1+00091-00021999999ADDKA1999N+00091REMSYN058AAXX  13061 01015 46/// ///// 10009 21002 333 20009 91105;
0051010150999992013011307004+69600+017833FM-12+001499999V02099999999999999999N9999999N1+00151+00041999999REMSYN042AAXX  13071 01015 46/// ///// 10015 20004;
0051010150999992013011308004+69600+017833FM-12+001499999V02099999999999999999N9999999N1+00181+00061999999REMSYN042AAXX  13081 01015 46/// ///// 10018 20006;
0051010150999992013011309004+69600+017833FM-12+001499999V02099999999999999999N9999999N1+00181+00071999999REMSYN042AAXX  13091 01015 46/// ///// 10018 20007;
0051010150999992013011310004+69600+017833FM-12+001499999V02099999999999999999N9999999N1+00201+00091999999REMSYN042AAXX  13101 01015 46/// ///// 10020 20009;
0051010150999992013011311004+69600+017833FM-12+001499999V02099999999999999999N9999999N1+00221+00111999999REMSYN042AAXX  13111 01015 46/// ///// 10022 20011;
0061010150999992013011312004+69600+017833FM-12+001499999V02099999999999999999N9999999N1+00201+00081999999REMSYN052AAXX  13121 01015 46/// ///// 10020 20008 333 91106;
0051010150999992013011313004+69600+017833FM-12+001499999V02099999999999999999N9999999N1+00181+00061999999REMSYN042AAXX  13131 01015 46/// ///// 10018 20006;
0051010150999992013011314004+69600+017833FM-12+001499999V02099999999999999999N9999999N1+00231+00111999999REMSYN042AAXX  13141 01015 46/// ///// 10023 20011;
0051010150999992013011315004+69600+017833FM-12+001499999V02099999999999999999N9999999N1+00231+00101999999REMSYN042AAXX  13151 01015 46/// ///// 10023 20010;
0051010150999992013011316004+69600+017833FM-12+001499999V02099999999999999999N9999999N1+00261+00121999999REMSYN042AAXX  13161 01015 46/// ///// 10026 20012;
0051010150999992013011317004+69600+017833FM-12+001499999V02099999999999999999N9999999N1+00261+00101999999REMSYN042AAXX  13171 01015 46/// ///// 10026 20010;
0083010150999992013011318004+69600+017833FM-12+001499999V02099999999999999999N9999999N1+00241+00081999999ADDKA1120M+00281REMSYN058AAXX  13181 01015 46/// ///// 10024 20008 333 10028 91105;
0051010150999992013011319004+69600+017833FM-12+001499999V02099999999999999999N9999999N1+00251+00061999999REMSYN042AAXX  13191 01015 46/// ///// 10025 20006;
0051010150999992013011320004+69600+017833FM-12+001499999V02099999999999999999N9999999N1+00241+00031999999REMSYN042AAXX  13201 01015 46/// ///// 10024 20003;
0051010150999992013011321004+69600+017833FM-12+001499999V02099999999999999999N9999999N1+00241-00031999999REMSYN042AAXX  13211 01015 46/// ///// 10024 21003;
0051010150999992013011322004+69600+017833FM-12+001499999V02099999999999999999N9999999N1+00241-00061999999REMSYN042AAXX  13221 01015 46/// ///// 10024 21006;
0051010150999992013011323004+69600+017833FM-12+001499999V02099999999999999999N9999999N1+00231-00071999999REMSYN042AAXX  13231 01015 46/// ///// 10023 21007;
0061010150999992013011400004+69600+017833FM-12+001499999V02099999999999999999N9999999N1+00241-00071999999REMSYN052AAXX  14001 01015 46/// ///// 10024 21007 333 91106;
0051010150999992013011401004+69600+017833FM-12+001499999V02099999999999999999N9999999N1+00221-00071999999REMSYN042AAXX  14011 01015 46/// ///// 10022 21007;
0051010150999992013011402004+69600+017833FM-12+001499999V02099999999999999999N9999999N1+00221-00051999999REMSYN042AAXX  14021 01015 46/// ///// 10022 21005;
0051010150999992013011403004+69600+017833FM-12+001499999V02099999999999999999N9999999N1+00161-00061999999REMSYN042AAXX  14031 01015 46/// ///// 10016 21006;
0051010150999992013011404004+69600+017833FM-12+001499999V02099999999999999999N9999999N1+00161-00061999999REMSYN042AAXX  14041 01015 46/// ///// 10016 21006;
0051010150999992013011405004+69600+017833FM-12+001499999V02099999999999999999N9999999N1+00141-00051999999REMSYN042AAXX  14051 01015 46/// ///// 10014 21005;
0083010150999992013011406004+69600+017833FM-12+001499999V02099999999999999999N9999999N1+00171+00001999999ADDKA1999N+00111REMSYN058AAXX  14061 01015 46/// ///// 10017 20000 333 20011 91112;
0051010150999992013011407004+69600+017833FM-12+001499999V02099999999999999999N9999999N1+00211+00031999999REMSYN042AAXX  14071 01015 46/// ///// 10021 20003;
0051010150999992013011408004+69600+017833FM-12+001499999V02099999999999999999N9999999N1+00241+00041999999REMSYN042AAXX  14081 01015 46/// ///// 10024 20004;
0051010150999992013011409004+69600+017833FM-12+001499999V02099999999999999999N9999999N1+00281+00071999999REMSYN042AAXX  14091 01015 46/// ///// 10028 20007;
0051010150999992013011410004+69600+017833FM-12+001499999V02099999999999999999N9999999N1+00241+00051999999REMSYN042AAXX  14101 01015 46/// ///// 10024 20005;
0051010150999992013011411004+69600+017833FM-12+001499999V02099999999999999999N9999999N1+00231+00061999999REMSYN042AAXX  14111 01015 46/// ///// 10023 20006;
0061010150999992013011412004+69600+017833FM-12+001499999V02099999999999999999N9999999N1+00241+00081999999REMSYN052AAXX  14121 01015 46/// ///// 10024 20008 333 91115;
0051010150999992013011413004+69600+017833FM-12+001499999V02099999999999999999N9999999N1+00241+00071999999REMSYN042AAXX  14131 01015 46/// ///// 10024 20007;
0051010150999992013011414004+69600+017833FM-12+001499999V02099999999999999999N9999999N1+00231+00051999999REMSYN042AAXX  14141 01015 46/// ///// 10023 20005;
0051010150999992013011415004+69600+017833FM-12+001499999V02099999999999999999N9999999N1+00261+00071999999REMSYN042AAXX  14151 01015 46/// ///// 10026 20007;
0051010150999992013011416004+69600+017833FM-12+001499999V02099999999999999999N9999999N1+00141-00041999999REMSYN042AAXX  14161 01015 46/// ///// 10014 21004;
0051010150999992013011417004+69600+017833FM-12+001499999V02099999999999999999N9999999N1+00121-00041999999REMSYN042AAXX  14171 01015 46/// ///// 10012 21004;
0083010150999992013011418004+69600+017833FM-12+001499999V02099999999999999999N9999999N1+00121-00031999999ADDKA1120M+00301REMSYN058AAXX  14181 01015 46/// ///// 10012 21003 333 10030 91108;
0051010150999992013011419004+69600+017833FM-12+001499999V02099999999999999999N9999999N1+00141-00011999999REMSYN042AAXX  14191 01015 46/// ///// 10014 21001;
0051010150999992013011420004+69600+017833FM-12+001499999V02099999999999999999N9999999N1+00121-00041999999REMSYN042AAXX  14201 01015 46/// ///// 10012 21004;
0051010150999992013011421004+69600+017833FM-12+001499999V02099999999999999999N9999999N1+00101-00071999999REMSYN042AAXX  14211 01015 46/// ///// 10010 21007;
0051010150999992013011422004+69600+017833FM-12+001499999V02099999999999999999N9999999N1+00071-00121999999REMSYN042AAXX  14221 01015 46/// ///// 10007 21012;
0051010150999992013011423004+69600+017833FM-12+001499999V02099999999999999999N9999999N1+00021-00211999999REMSYN042AAXX  14231 01015 46/// ///// 10002 21021;
0061010150999992013011500004+69600+017833FM-12+001499999V02099999999999999999N9999999N1-00011-00211999999REMSYN052AAXX  15001 01015 46/// ///// 11001 21021 333 91106;
0051010150999992013011501004+69600+017833FM-12+001499999V02099999999999999999N9999999N1-00051-00281999999REMSYN042AAXX  15011 01015 46/// ///// 11005 21028;
0051010150999992013011502004+69600+017833FM-12+001499999V02099999999999999999N9999999N1-00061-00281999999REMSYN042AAXX  15021 01015 46/// ///// 11006 21028;
0051010150999992013011503004+69600+017833FM-12+001499999V02099999999999999999N9999999N1-00071-00311999999REMSYN042AAXX  15031 01015 46/// ///// 11007 21031;
0051010150999992013011504004+69600+017833FM-12+001499999V02099999999999999999N9999999N1-00091-00331999999REMSYN042AAXX  15041 01015 46/// ///// 11009 21033;
0051010150999992013011505004+69600+017833FM-12+001499999V02099999999999999999N9999999N1-00051-00291999999REMSYN042AAXX  15051 01015 46/// ///// 11005 21029;
0083010150999992013011506004+69600+017833FM-12+001499999V02099999999999999999N9999999N1-00051-00291999999ADDKA1999N-00091REMSYN058AAXX  15061 01015 46/// ///// 11005 21029 333 21009 91109;
0051010150999992013011507004+69600+017833FM-12+001499999V02099999999999999999N9999999N1-00061-00291999999REMSYN042AAXX  15071 01015 46/// ///// 11006 21029;
0051010150999992013011508004+69600+017833FM-12+001499999V02099999999999999999N9999999N1-00061-00271999999REMSYN042AAXX  15081 01015 46/// ///// 11006 21027;
0051010150999992013011509004+69600+017833FM-12+001499999V02099999999999999999N9999999N1-00061-00261999999REMSYN042AAXX  15091 01015 46/// ///// 11006 21026;
0051010150999992013011510004+69600+017833FM-12+001499999V02099999999999999999N9999999N1-00111-00311999999REMSYN042AAXX  15101 01015 46/// ///// 11011 21031;
0051010150999992013011511004+69600+017833FM-12+001499999V02099999999999999999N9999999N1-00141-00321999999REMSYN042AAXX  15111 01015 46/// ///// 11014 21032;
0061010150999992013011512004+69600+017833FM-12+001499999V02099999999999999999N9999999N1-00151-00331999999REMSYN052AAXX  15121 01015 46/// ///// 11015 21033 333 91112;
0051010150999992013011513004+69600+017833FM-12+001499999V02099999999999999999N9999999N1-00151-00321999999REMSYN042AAXX  15131 01015 46/// ///// 11015 21032;
0051010150999992013011514004+69600+017833FM-12+001499999V02099999999999999999N9999999N1-00161-00331999999REMSYN042AAXX  15141 01015 46/// ///// 11016 21033;
0051010150999992013011515004+69600+017833FM-12+001499999V02099999999999999999N9999999N1-00151-00301999999REMSYN042AAXX  15151 01015 46/// ///// 11015 21030;
0051010150999992013011516004+69600+017833FM-12+001499999V02099999999999999999N9999999N1-00161-00311999999REMSYN042AAXX  15161 01015 46/// ///// 11016 21031;
0051010150999992013011517004+69600+017833FM-12+001499999V02099999999999999999N9999999N1-00141-00281999999REMSYN042AAXX  15171 01015 46/// ///// 11014 21028;
0083010150999992013011518004+69600+017833FM-12+001499999V02099999999999999999N9999999N1-00111-00261999999ADDKA1120M-00051REMSYN058AAXX  15181 01015 46/// ///// 11011 21026 333 11005 91112;
0051010150999992013011519004+69600+017833FM-12+001499999V02099999999999999999N9999999N1-00121-00261999999REMSYN042AAXX  15191 01015 46/// ///// 11012 21026;
0051010150999992013011520004+69600+017833FM-12+001499999V02099999999999999999N9999999N1-00141-00291999999REMSYN042AAXX  15201 01015 46/// ///// 11014 21029;
0051010150999992013011521004+69600+017833FM-12+001499999V02099999999999999999N9999999N1-00141-00291999999REMSYN042AAXX  15211 01015 46/// ///// 11014 21029;
0051010150999992013011522004+69600+017833FM-12+001499999V02099999999999999999N9999999N1-00171-00311999999REMSYN042AAXX  15221 01015 46/// ///// 11017 21031;
0051010150999992013011523004+69600+017833FM-12+001499999V02099999999999999999N9999999N1-00151-00281999999REMSYN042AAXX  15231 01015 46/// ///// 11015 21028;
0061010150999992013011600004+69600+017833FM-12+001499999V02099999999999999999N9999999N1-00151-00281999999REMSYN052AAXX  16001 01015 46/// ///// 11015 21028 333 91113;
0051010150999992013011601004+69600+017833FM-12+001499999V02099999999999999999N9999999N1-00141-00271999999REMSYN042AAXX  16011 01015 46/// ///// 11014 21027;
0051010150999992013011602004+69600+017833FM-12+001499999V02099999999999999999N9999999N1-00141-00261999999REMSYN042AAXX  16021 01015 46/// ///// 11014 21026;
0051010150999992013011603004+69600+017833FM-12+001499999V02099999999999999999N9999999N1-00141-00271999999REMSYN042AAXX  16031 01015 46/// ///// 11014 21027;
0051010150999992013011604004+69600+017833FM-12+001499999V02099999999999999999N9999999N1-00121-00261999999REMSYN042AAXX  16041 01015 46/// ///// 11012 21026;
0051010150999992013011605004+69600+017833FM-12+001499999V02099999999999999999N9999999N1-00121-00271999999REMSYN042AAXX  16051 01015 46/// ///// 11012 21027;
0083010150999992013011606004+69600+017833FM-12+001499999V02099999999999999999N9999999N1-00131-00271999999ADDKA1999N-00171REMSYN058AAXX  16061 01015 46/// ///// 11013 21027 333 21017 91114;
0051010150999992013011607004+69600+017833FM-12+001499999V02099999999999999999N9999999N1-00141-00281999999REMSYN042AAXX  16071 01015 46/// ///// 11014 21028;
0051010150999992013011608004+69600+017833FM-12+001499999V02099999999999999999N9999999N1-00151-00291999999REMSYN042AAXX  16081 01015 46/// ///// 11015 21029;
0051010150999992013011609004+69600+017833FM-12+001499999V02099999999999999999N9999999N1-00181-00311999999REMSYN042AAXX  16091 01015 46/// ///// 11018 21031;
0051010150999992013011610004+69600+017833FM-12+001499999V02099999999999999999N9999999N1-00201-00331999999REMSYN042AAXX  16101 01015 46/// ///// 11020 21033;
0051010150999992013011611004+69600+017833FM-12+001499999V02099999999999999999N9999999N1-00191-00321999999REMSYN042AAXX  16111 01015 46/// ///// 11019 21032;
0061010150999992013011612004+69600+017833FM-12+001499999V02099999999999999999N9999999N1-00201-00321999999REMSYN052AAXX  16121 01015 46/// ///// 11020 21032 333 91113;
0051010150999992013011613004+69600+017833FM-12+001499999V02099999999999999999N9999999N1-00211-00321999999REMSYN042AAXX  16131 01015 46/// ///// 11021 21032;
0051010150999992013011614004+69600+017833FM-12+001499999V02099999999999999999N9999999N1-00211-00311999999REMSYN042AAXX  16141 01015 46/// ///// 11021 21031;
0051010150999992013011615004+69600+017833FM-12+001499999V02099999999999999999N9999999N1-00171-00281999999REMSYN042AAXX  16151 01015 46/// ///// 11017 21028;
0051010150999992013011616004+69600+017833FM-12+001499999V02099999999999999999N9999999N1-00191-00301999999REMSYN042AAXX  16161 01015 46/// ///// 11019 21030;
0051010150999992013011617004+69600+017833FM-12+001499999V02099999999999999999N9999999N1-00191-00291999999REMSYN042AAXX  16171 01015 46/// ///// 11019 21029;
0083010150999992013011618004+69600+017833FM-12+001499999V02099999999999999999N9999999N1-00151-00261999999ADDKA1120M-00121REMSYN058AAXX  16181 01015 46/// ///// 11015 21026 333 11012 91114;
0051010150999992013011619004+69600+017833FM-12+001499999V02099999999999999999N9999999N1-00101-00221999999REMSYN042AAXX  16191 01015 46/// ///// 11010 21022;
0051010150999992013011620004+69600+017833FM-12+001499999V02099999999999999999N9999999N1-00121-00251999999REMSYN042AAXX  16201 01015 46/// ///// 11012 21025;
0051010150999992013011621004+69600+017833FM-12+001499999V02099999999999999999N9999999N1-00121-00261999999REMSYN042AAXX  16211 01015 46/// ///// 11012 21026;
0051010150999992013011622004+69600+017833FM-12+001499999V02099999999999999999N9999999N1-00101-00261999999REMSYN042AAXX  16221 01015 46/// ///// 11010 21026;
0051010150999992013011623004+69600+017833FM-12+001499999V02099999999999999999N9999999N1-00111-00271999999REMSYN042AAXX  16231 01015 46/// ///// 11011 21027;
0061010150999992013011700004+69600+017833FM-12+001499999V02099999999999999999N9999999N1-00101-00281999999REMSYN052AAXX  17001 01015 46/// ///// 11010 21028 333 91113;
0051010150999992013011701004+69600+017833FM-12+001499999V02099999999999999999N9999999N1-00101-00291999999REMSYN042AAXX  17011 01015 46/// ///// 11010 21029;
0051010150999992013011702004+69600+017833FM-12+001499999V02099999999999999999N9999999N1-00071-00281999999REMSYN042AAXX  17021 01015 46/// ///// 11007 21028;
0051010150999992013011703004+69600+017833FM-12+001499999V02099999999999999999N9999999N1-00021-00291999999REMSYN042AAXX  17031 01015 46/// ///// 11002 21029;
0051010150999992013011704004+69600+017833FM-12+001499999V02099999999999999999N9999999N1+00071-00321999999REMSYN042AAXX  17041 01015 46/// ///// 10007 21032;
0051010150999992013011705004+69600+017833FM-12+001499999V02099999999999999999N9999999N1+00081-00351999999REMSYN042AAXX  17051 01015 46/// ///// 10008 21035;
0083010150999992013011706004+69600+017833FM-12+001499999V02099999999999999999N9999999N1+00091-00371999999ADDKA1999N-00151REMSYN058AAXX  17061 01015 46/// ///// 10009 21037 333 21015 91112;
0051010150999992013011707004+69600+017833FM-12+001499999V02099999999999999999N9999999N1+00051-00381999999REMSYN042AAXX  17071 01015 46/// ///// 10005 21038;
0051010150999992013011708004+69600+017833FM-12+001499999V02099999999999999999N9999999N1+00061-00381999999REMSYN042AAXX  17081 01015 46/// ///// 10006 21038;
0051010150999992013011709004+69600+017833FM-12+001499999V02099999999999999999N9999999N1+00111-00431999999REMSYN042AAXX  17091 01015 46/// ///// 10011 21043;
0051010150999992013011710004+69600+017833FM-12+001499999V02099999999999999999N9999999N1+00091-00411999999REMSYN042AAXX  17101 01015 46/// ///// 10009 21041;
0051010150999992013011711004+69600+017833FM-12+001499999V02099999999999999999N9999999N1+00101-00431999999REMSYN042AAXX  17111 01015 46/// ///// 10010 21043;
0061010150999992013011712004+69600+017833FM-12+001499999V02099999999999999999N9999999N1+00091-00461999999REMSYN052AAXX  17121 01015 46/// ///// 10009 21046 333 91111;
0051010150999992013011713004+69600+017833FM-12+001499999V02099999999999999999N9999999N1+00101-00451999999REMSYN042AAXX  17131 01015 46/// ///// 10010 21045;
0051010150999992013011714004+69600+017833FM-12+001499999V02099999999999999999N9999999N1+00081-00441999999REMSYN042AAXX  17141 01015 46/// ///// 10008 21044;
0051010150999992013011715004+69600+017833FM-12+001499999V02099999999999999999N9999999N1+00101-00411999999REMSYN042AAXX  17151 01015 46/// ///// 10010 21041;
0051010150999992013011716004+69600+017833FM-12+001499999V02099999999999999999N9999999N1+00191-00381999999REMSYN042AAXX  17161 01015 46/// ///// 10019 21038;
0051010150999992013011717004+69600+017833FM-12+001499999V02099999999999999999N9999999N1+00241-00331999999REMSYN042AAXX  17171 01015 46/// ///// 10024 21033;
0083010150999992013011718004+69600+017833FM-12+001499999V02099999999999999999N9999999N1+00281-00311999999ADDKA1120M+00281REMSYN058AAXX  17181 01015 46/// ///// 10028 21031 333 10028 91120;
0051010150999992013011719004+69600+017833FM-12+001499999V02099999999999999999N9999999N1+00281-00291999999REMSYN042AAXX  17191 01015 46/// ///// 10028 21029;
0051010150999992013011720004+69600+017833FM-12+001499999V02099999999999999999N9999999N1+00341-00241999999REMSYN042AAXX  17201 01015 46/// ///// 10034 21024;
0051010150999992013011721004+69600+017833FM-12+001499999V02099999999999999999N9999999N1+00341-00231999999REMSYN042AAXX  17211 01015 46/// ///// 10034 21023;
0051010150999992013011722004+69600+017833FM-12+001499999V02099999999999999999N9999999N1+00371-00181999999REMSYN042AAXX  17221 01015 46/// ///// 10037 21018;
0051010150999992013011723004+69600+017833FM-12+001499999V02099999999999999999N9999999N1+00431-00151999999REMSYN042AAXX  17231 01015 46/// ///// 10043 21015;
0061010150999992013011800004+69600+017833FM-12+001499999V02099999999999999999N9999999N1+00501-00031999999REMSYN052AAXX  18001 01015 46/// ///// 10050 21003 333 91122;
0051010150999992013011801004+69600+017833FM-12+001499999V02099999999999999999N9999999N1+00511+00031999999REMSYN042AAXX  18011 01015 46/// ///// 10051 20003;
0051010150999992013011802004+69600+017833FM-12+001499999V02099999999999999999N9999999N1+00491+00091999999REMSYN042AAXX  18021 01015 46/// ///// 10049 20009;
0051010150999992013011803004+69600+017833FM-12+001499999V02099999999999999999N9999999N1+00571+00201999999REMSYN042AAXX  18031 01015 46/// ///// 10057 20020;
0051010150999992013011804004+69600+017833FM-12+001499999V02099999999999999999N9999999N1+00551+00291999999REMSYN042AAXX  18041 01015 46/// ///// 10055 20029;
0051010150999992013011805004+69600+017833FM-12+001499999V02099999999999999999N9999999N1+00551+00241999999REMSYN042AAXX  18051 01015 46/// ///// 10055 20024;
0083010150999992013011806004+69600+017833FM-12+001499999V02099999999999999999N9999999N1+00491+00241999999ADDKA1999N+00271REMSYN058AAXX  18061 01015 46/// ///// 10049 20024 333 20027 91129;
0051010150999992013011807004+69600+017833FM-12+001499999V02099999999999999999N9999999N1+00491+00251999999REMSYN042AAXX  18071 01015 46/// ///// 10049 20025;
0051010150999992013011808004+69600+017833FM-12+001499999V02099999999999999999N9999999N1+00481+00261999999REMSYN042AAXX  18081 01015 46/// ///// 10048 20026;
0051010150999992013011809004+69600+017833FM-12+001499999V02099999999999999999N9999999N1+00471+00261999999REMSYN042AAXX  18091 01015 46/// ///// 10047 20026;
0051010150999992013011810004+69600+017833FM-12+001499999V02099999999999999999N9999999N1+00491+00291999999REMSYN042AAXX  18101 01015 46/// ///// 10049 20029;
0051010150999992013011811004+69600+017833FM-12+001499999V02099999999999999999N9999999N1+00511+00311999999REMSYN042AAXX  18111 01015 46/// ///// 10051 20031;
0061010150999992013011812004+69600+017833FM-12+001499999V02099999999999999999N9999999N1+00511+00281999999REMSYN052AAXX  18121 01015 46/// ///// 10051 20028 333 91119;
0051010150999992013011813004+69600+017833FM-12+001499999V02099999999999999999N9999999N1+00491+00291999999REMSYN042AAXX  18131 01015 46/// ///// 10049 20029;
0051010150999992013011814004+69600+017833FM-12+001499999V02099999999999999999N9999999N1+00491+00311999999REMSYN042AAXX  18141 01015 46/// ///// 10049 20031;
0051010150999992013011815004+69600+017833FM-12+001499999V02099999999999999999N9999999N1+00491+00321999999REMSYN042AAXX  18151 01015 46/// ///// 10049 20032;
0051010150999992013011816004+69600+017833FM-12+001499999V02099999999999999999N9999999N1+00491+00311999999REMSYN042AAXX  18161 01015 46/// ///// 10049 20031;
0051010150999992013011817004+69600+017833FM-12+001499999V02099999999999999999N9999999N1+00461+00281999999REMSYN042AAXX  18171 01015 46/// ///// 10046 20028;
0083010150999992013011818004+69600+017833FM-12+001499999V02099999999999999999N9999999N1+00491+00291999999ADDKA1120M+00511REMSYN058AAXX  18181 01015 46/// ///// 10049 20029 333 10051 91117;
0051010150999992013011819004+69600+017833FM-12+001499999V02099999999999999999N9999999N1+00481+00291999999REMSYN042AAXX  18191 01015 46/// ///// 10048 20029;
0051010150999992013011820004+69600+017833FM-12+001499999V02099999999999999999N9999999N1+00441+00251999999REMSYN042AAXX  18201 01015 46/// ///// 10044 20025;
0051010150999992013011821004+69600+017833FM-12+001499999V02099999999999999999N9999999N1+00411+00211999999REMSYN042AAXX  18211 01015 46/// ///// 10041 20021;
0051010150999992013011822004+69600+017833FM-12+001499999V02099999999999999999N9999999N1+00381+00181999999REMSYN042AAXX  18221 01015 46/// ///// 10038 20018;
0051010150999992013011823004+69600+017833FM-12+001499999V02099999999999999999N9999999N1+00321+00141999999REMSYN042AAXX  18231 01015 46/// ///// 10032 20014;
0061010150999992013011900004+69600+017833FM-12+001499999V02099999999999999999N9999999N1+00311+00101999999REMSYN052AAXX  19001 01015 46/// ///// 10031 20010 333 91115;
0051010150999992013011901004+69600+017833FM-12+001499999V02099999999999999999N9999999N1+00291+00071999999REMSYN042AAXX  19011 01015 46/// ///// 10029 20007;
0051010150999992013011902004+69600+017833FM-12+001499999V02099999999999999999N9999999N1+00311-00031999999REMSYN042AAXX  19021 01015 46/// ///// 10031 21003;
0051010150999992013011903004+69600+017833FM-12+001499999V02099999999999999999N9999999N1+00161-00081999999REMSYN042AAXX  19031 01015 46/// ///// 10016 21008;
0051010150999992013011904004+69600+017833FM-12+001499999V02099999999999999999N9999999N1+00191-00321999999REMSYN042AAXX  19041 01015 46/// ///// 10019 21032;
0051010150999992013011905004+69600+017833FM-12+001499999V02099999999999999999N9999999N1+00161-00311999999REMSYN042AAXX  19051 01015 46/// ///// 10016 21031;
0083010150999992013011906004+69600+017833FM-12+001499999V02099999999999999999N9999999N1+00151-00421999999ADDKA1999N+00151REMSYN058AAXX  19061 01015 46/// ///// 10015 21042 333 20015 91116;
0051010150999992013011907004+69600+017833FM-12+001499999V02099999999999999999N9999999N1+00151-00581999999REMSYN042AAXX  19071 01015 46/// ///// 10015 21058;
0051010150999992013011908004+69600+017833FM-12+001499999V02099999999999999999N9999999N1+00121-00281999999REMSYN042AAXX  19081 01015 46/// ///// 10012 21028;
0051010150999992013011909004+69600+017833FM-12+001499999V02099999999999999999N9999999N1+00111-00221999999REMSYN042AAXX  19091 01015 46/// ///// 10011 21022;
0051010150999992013011910004+69600+017833FM-12+001499999V02099999999999999999N9999999N1+00191-00241999999REMSYN042AAXX  19101 01015 46/// ///// 10019 21024;
0051010150999992013011911004+69600+017833FM-12+001499999V02099999999999999999N9999999N1+00251-00281999999REMSYN042AAXX  19111 01015 46/// ///// 10025 21028;
0061010150999992013011912004+69600+017833FM-12+001499999V02099999999999999999N9999999N1+00181-00081999999REMSYN052AAXX  19121 01015 46/// ///// 10018 21008 333 91120;
0051010150999992013011913004+69600+017833FM-12+001499999V02099999999999999999N9999999N1+00061-00141999999REMSYN042AAXX  19131 01015 46/// ///// 10006 21014;
0051010150999992013011914004+69600+017833FM-12+001499999V02099999999999999999N9999999N1+00131-00121999999REMSYN042AAXX  19141 01015 46/// ///// 10013 21012;
0051010150999992013011915004+69600+017833FM-12+001499999V02099999999999999999N9999999N1+00171-00321999999REMSYN042AAXX  19151 01015 46/// ///// 10017 21032;
0051010150999992013011916004+69600+017833FM-12+001499999V02099999999999999999N9999999N1+00181-00371999999REMSYN042AAXX  19161 01015 46/// ///// 10018 21037;
0051010150999992013011917004+69600+017833FM-12+001499999V02099999999999999999N9999999N1+00121-00311999999REMSYN042AAXX  19171 01015 46/// ///// 10012 21031;
0083010150999992013011918004+69600+017833FM-12+001499999V02099999999999999999N9999999N1+00101-00351999999ADDKA1120M+00251REMSYN058AAXX  19181 01015 46/// ///// 10010 21035 333 10025 91119;
0051010150999992013011919004+69600+017833FM-12+001499999V02099999999999999999N9999999N1+00051-00301999999REMSYN042AAXX  19191 01015 46/// ///// 10005 21030;
0051010150999992013011920004+69600+017833FM-12+001499999V02099999999999999999N9999999N1+00021-00491999999REMSYN042AAXX  19201 01015 46/// ///// 10002 21049;
0051010150999992013011921004+69600+017833FM-12+001499999V02099999999999999999N9999999N1-00051-00371999999REMSYN042AAXX  19211 01015 46/// ///// 11005 21037;
0051010150999992013011922004+69600+017833FM-12+001499999V02099999999999999999N9999999N1+00031-00501999999REMSYN042AAXX  19221 01015 46/// ///// 10003 21050;
0051010150999992013011923004+69600+017833FM-12+001499999V02099999999999999999N9999999N1+00041-00541999999REMSYN042AAXX  19231 01015 46/// ///// 10004 21054;
0061010150999992013012000004+69600+017833FM-12+001499999V02099999999999999999N9999999N1+00011-00481999999REMSYN052AAXX  20001 01015 46/// ///// 10001 21048 333 91118;
0051010150999992013012001004+69600+017833FM-12+001499999V02099999999999999999N9999999N1-00011-00421999999REMSYN042AAXX  20011 01015 46/// ///// 11001 21042;
0051010150999992013012002004+69600+017833FM-12+001499999V02099999999999999999N9999999N1-00041-00431999999REMSYN042AAXX  20021 01015 46/// ///// 11004 21043;
0051010150999992013012003004+69600+017833FM-12+001499999V02099999999999999999N9999999N1-00071-00401999999REMSYN042AAXX  20031 01015 46/// ///// 11007 21040;
0051010150999992013012004004+69600+017833FM-12+001499999V02099999999999999999N9999999N1-00071-00401999999REMSYN042AAXX  20041 01015 46/// ///// 11007 21040;
0051010150999992013012005004+69600+017833FM-12+001499999V02099999999999999999N9999999N1-00051-00471999999REMSYN042AAXX  20051 01015 46/// ///// 11005 21047;
0083010150999992013012006004+69600+017833FM-12+001499999V02099999999999999999N9999999N1-00011-00581999999ADDKA1999N-00131REMSYN058AAXX  20061 01015 46/// ///// 11001 21058 333 21013 91116;
0051010150999992013012007004+69600+017833FM-12+001499999V02099999999999999999N9999999N1-00051-00621999999REMSYN042AAXX  20071 01015 46/// ///// 11005 21062;
0051010150999992013012008004+69600+017833FM-12+001499999V02099999999999999999N9999999N1-00091-00651999999REMSYN042AAXX  20081 01015 46/// ///// 11009 21065;
0051010150999992013012009004+69600+017833FM-12+001499999V02099999999999999999N9999999N1-00161-00711999999REMSYN042AAXX  20091 01015 46/// ///// 11016 21071;
0051010150999992013012010004+69600+017833FM-12+001499999V02099999999999999999N9999999N1-00211-00701999999REMSYN042AAXX  20101 01015 46/// ///// 11021 21070;
0051010150999992013012011004+69600+017833FM-12+001499999V02099999999999999999N9999999N1-00221-00701999999REMSYN042AAXX  20111 01015 46/// ///// 11022 21070;
0061010150999992013012012004+69600+017833FM-12+001499999V02099999999999999999N9999999N1-00161-00561999999REMSYN052AAXX  20121 01015 46/// ///// 11016 21056 333 91107;
0051010150999992013012013004+69600+017833FM-12+001499999V02099999999999999999N9999999N1-00151-00561999999REMSYN042AAXX  20131 01015 46/// ///// 11015 21056;
0051010150999992013012014004+69600+017833FM-12+001499999V02099999999999999999N9999999N1-00151-00631999999REMSYN042AAXX  20141 01015 46/// ///// 11015 21063;
0051010150999992013012015004+69600+017833FM-12+001499999V02099999999999999999N9999999N1-00141-00571999999REMSYN042AAXX  20151 01015 46/// ///// 11014 21057;
0051010150999992013012016004+69600+017833FM-12+001499999V02099999999999999999N9999999N1-00161-00561999999REMSYN042AAXX  20161 01015 46/// ///// 11016 21056;
0051010150999992013012017004+69600+017833FM-12+001499999V02099999999999999999N9999999N1-00151-00551999999REMSYN042AAXX  20171 01015 46/// ///// 11015 21055;
0083010150999992013012018004+69600+017833FM-12+001499999V02099999999999999999N9999999N1-00131-00571999999ADDKA1120M-00011REMSYN058AAXX  20181 01015 46/// ///// 11013 21057 333 11001 91111;
0051010150999992013012019004+69600+017833FM-12+001499999V02099999999999999999N9999999N1-00101-00471999999REMSYN042AAXX  20191 01015 46/// ///// 11010 21047;
0051010150999992013012020004+69600+017833FM-12+001499999V02099999999999999999N9999999N1-00101-00491999999REMSYN042AAXX  20201 01015 46/// ///// 11010 21049;
0051010150999992013012021004+69600+017833FM-12+001499999V02099999999999999999N9999999N1+00051-00351999999REMSYN042AAXX  20211 01015 46/// ///// 10005 21035;
0051010150999992013012022004+69600+017833FM-12+001499999V02099999999999999999N9999999N1+00181-00241999999REMSYN042AAXX  20221 01015 46/// ///// 10018 21024;
0051010150999992013012023004+69600+017833FM-12+001499999V02099999999999999999N9999999N1+00191-00221999999REMSYN042AAXX  20231 01015 46/// ///// 10019 21022;
0061010150999992013012100004+69600+017833FM-12+001499999V02099999999999999999N9999999N1+00181-00181999999REMSYN052AAXX  21001 01015 46/// ///// 10018 21018 333 91117;
0051010150999992013012101004+69600+017833FM-12+001499999V02099999999999999999N9999999N1+00251-00081999999REMSYN042AAXX  21011 01015 46/// ///// 10025 21008;
0051010150999992013012102004+69600+017833FM-12+001499999V02099999999999999999N9999999N1+00301-00011999999REMSYN042AAXX  21021 01015 46/// ///// 10030 21001;
0051010150999992013012103004+69600+017833FM-12+001499999V02099999999999999999N9999999N1+00361+00021999999REMSYN042AAXX  21031 01015 46/// ///// 10036 20002;
0051010150999992013012104004+69600+017833FM-12+001499999V02099999999999999999N9999999N1+00381+00031999999REMSYN042AAXX  21041 01015 46/// ///// 10038 20003;
0051010150999992013012105004+69600+017833FM-12+001499999V02099999999999999999N9999999N1+00311+00081999999REMSYN042AAXX  21051 01015 46/// ///// 10031 20008;
0083010150999992013012106004+69600+017833FM-12+001499999V02099999999999999999N9999999N1+00361+00131999999ADDKA1999N-00141REMSYN058AAXX  21061 01015 46/// ///// 10036 20013 333 21014 91123;
0051010150999992013012107004+69600+017833FM-12+001499999V02099999999999999999N9999999N1+00311+00071999999REMSYN042AAXX  21071 01015 46/// ///// 10031 20007;
0051010150999992013012108004+69600+017833FM-12+001499999V02099999999999999999N9999999N1+00301+00071999999REMSYN042AAXX  21081 01015 46/// ///// 10030 20007;
0051010150999992013012109004+69600+017833FM-12+001499999V02099999999999999999N9999999N1+00261+00031999999REMSYN042AAXX  21091 01015 46/// ///// 10026 20003;
0051010150999992013012110004+69600+017833FM-12+001499999V02099999999999999999N9999999N1+00321+00031999999REMSYN042AAXX  21101 01015 46/// ///// 10032 20003;
0051010150999992013012111004+69600+017833FM-12+001499999V02099999999999999999N9999999N1+00371+00051999999REMSYN042AAXX  21111 01015 46/// ///// 10037 20005;
0051010150999992013020715004+69600+017833FM-12+001499999V0201401N003019999999N9999999N1-00441-00801999999REMSYN042AAXX  07151 01015 46/// /1403 11044 21080;
0061010150999992013020718004+69600+017833FM-12+001499999V0201401N002019999999N9999999N1-00381-00761999999REMSYN052AAXX  07181 01015 46/// /1402 11038 21076 333 91110;
0051010150999992013020721004+69600+017833FM-12+001499999V0201401N003019999999N9999999N1-00341-00631999999REMSYN042AAXX  07211 01015 46/// /1403 11034 21063;
0051010150999992013020723004+69600+017833FM-12+001499999V0201401N002019999999N9999999N1-00321-00601999999REMSYN042AAXX  07231 01015 46/// /1402 11032 21060;
0061010150999992013020800004+69600+017833FM-12+001499999V0201401N003019999999N9999999N1-00311-00581999999REMSYN052AAXX  08001 01015 46/// /1403 11031 21058 333 91103;
0051010150999992013020801004+69600+017833FM-12+001499999V0201401N002019999999N9999999N1-00301-00561999999REMSYN042AAXX  08011 01015 46/// /1402 11030 21056;
0051010150999992013020803004+69600+017833FM-12+001499999V0201401N002019999999N9999999N1-00261-00511999999REMSYN042AAXX  08031 01015 46/// /1402 11026 21051;
0051010150999992013020804004+69600+017833FM-12+001499999V0201401N002019999999N9999999N1-00251-00511999999REMSYN042AAXX  08041 01015 46/// /1402 11025 21051;
0083010150999992013020806004+69600+017833FM-12+001499999V0201201N002019999999N9999999N1-00201-00471999999ADDKA1999N-00381REMSYN058AAXX  08061 01015 46/// /1202 11020 21047 333 21038 91103;
0051010150999992013020809004+69600+017833FM-12+001499999V0201401N002019999999N9999999N1-00191-00441999999REMSYN042AAXX  08091 01015 46/// /1402 11019 21044;
0061010150999992013020812004+69600+017833FM-12+001499999V0201401N002019999999N9999999N1-00191-00471999999REMSYN052AAXX  08121 01015 46/// /1402 11019 21047 333 91103;
0051010150999992013020815004+69600+017833FM-12+001499999V0201401N003019999999N9999999N1-00201-00461999999REMSYN042AAXX  08151 01015 46/// /1403 11020 21046;
0051010150999992013020816004+69600+017833FM-12+001499999V0201401N002019999999N9999999N1-00211-00461999999REMSYN042AAXX  08161 01015 46/// /1402 11021 21046;
0083010150999992013020818004+69600+017833FM-12+001499999V0201401N002019999999N9999999N1-00221-00501999999ADDKA1120M-00161REMSYN058AAXX  08181 01015 46/// /1402 11022 21050 333 11016 91104;
0051010150999992013020821004+69600+017833FM-12+001499999V0201401N003019999999N9999999N1-00261-00551999999REMSYN042AAXX  08211 01015 46/// /1403 11026 21055;
0061010150999992013020900004+69600+017833FM-12+001499999V0201401N004019999999N9999999N1-00201-00411999999REMSYN052AAXX  09001 01015 46/// /1404 11020 21041 333 91110;
0051010150999992013020903004+69600+017833FM-12+001499999V0201201N003019999999N9999999N1-00151-00301999999REMSYN042AAXX  09031 01015 46/// /1203 11015 21030;
0051010150999992013020904004+69600+017833FM-12+001499999V0201401N003019999999N9999999N1-00151-00321999999REMSYN042AAXX  09041 01015 46/// /1403 11015 21032;
0083010150999992013020906004+69600+017833FM-12+001499999V0201401N004019999999N9999999N1-00111-00301999999ADDKA1999N-00271REMSYN058AAXX  09061 01015 46/// /1404 11011 21030 333 21027 91111;
0051010150999992013020907004+69600+017833FM-12+001499999V0201301N003019999999N9999999N1-00071-00321999999REMSYN042AAXX  09071 01015 46/// /1303 11007 21032;
0051010150999992013020909004+69600+017833FM-12+001499999V0201401N003019999999N9999999N1-00051-00351999999REMSYN042AAXX  09091 01015 46/// /1403 11005 21035;
0061010150999992013020912004+69600+017833FM-12+001499999V0201401N003019999999N9999999N1-00051-00341999999REMSYN052AAXX  09121 01015 46/// /1403 11005 21034 333 91110;
0051010150999992013020914004+69600+017833FM-12+001499999V0201401N003019999999N9999999N1-00061-00391999999REMSYN042AAXX  09141 01015 46/// /1403 11006 21039;
0051010150999992013020915004+69600+017833FM-12+001499999V0201401N003019999999N9999999N1-00071-00411999999REMSYN042AAXX  09151 01015 46/// /1403 11007 21041;
0083010150999992013020918004+69600+017833FM-12+001499999V0201401N003019999999N9999999N1-00101-00401999999ADDKA1120M-00031REMSYN058AAXX  09181 01015 46/// /1403 11010 21040 333 11003 91108;
0051010150999992013020919004+69600+017833FM-12+001499999V0201401N003019999999N9999999N1-00111-00391999999REMSYN042AAXX  09191 01015 46/// /1403 11011 21039;
0051010150999992013020921004+69600+017833FM-12+001499999V0201401N003019999999N9999999N1-00081-00381999999REMSYN042AAXX  09211 01015 46/// /1403 11008 21038;
0061010150999992013021000004+69600+017833FM-12+001499999V0201301N003019999999N9999999N1-00061-00331999999REMSYN052AAXX  10001 01015 46/// /1303 11006 21033 333 91107;
0051010150999992013021003004+69600+017833FM-12+001499999V0201201N003019999999N9999999N1-00101-00311999999REMSYN042AAXX  10031 01015 46/// /1203 11010 21031;
0051010150999992013021004004+69600+017833FM-12+001499999V0201201N002019999999N9999999N1-00071-00291999999REMSYN042AAXX  10041 01015 46/// /1202 11007 21029;
0051010150999992013021005004+69600+017833FM-12+001499999V0201301N002019999999N9999999N1-00081-00301999999REMSYN042AAXX  10051 01015 46/// /1302 11008 21030;
0083010150999992013021006004+69600+017833FM-12+001499999V0201401N003019999999N9999999N1-00091-00321999999ADDKA1999N-00121REMSYN058AAXX  10061 01015 46/// /1403 11009 21032 333 21012 91106;
0051010150999992013021009004+69600+017833FM-12+001499999V0201401N002019999999N9999999N1-00111-00281999999REMSYN042AAXX  10091 01015 46/// /1402 11011 21028;
0051010150999992013021011004+69600+017833FM-12+001499999V0201401N002019999999N9999999N1-00081-00231999999REMSYN042AAXX  10111 01015 46/// /1402 11008 21023;
0061010150999992013021012004+69600+017833FM-12+001499999V0201401N002019999999N9999999N1-00061-00221999999REMSYN052AAXX  10121 01015 46/// /1402 11006 21022 333 91104;
0051010150999992013021013004+69600+017833FM-12+001499999V0201401N002019999999N9999999N1-00081-00231999999REMSYN042AAXX  10131 01015 46/// /1402 11008 21023;
0051010150999992013021015004+69600+017833FM-12+001499999V0201301N002019999999N9999999N1-00091-00241999999REMSYN042AAXX  10151 01015 46/// /1302 11009 21024;
0083010150999992013021018004+69600+017833FM-12+001499999V0201301N002019999999N9999999N1-00091-00231999999ADDKA1120M-00061REMSYN058AAXX  10181 01015 46/// /1302 11009 21023 333 11006 91103;
0051010150999992013021019004+69600+017833FM-12+001499999V0201301N002019999999N9999999N1-00091-00231999999REMSYN042AAXX  10191 01015 46/// /1302 11009 21023;
0051010150999992013021020004+69600+017833FM-12+001499999V0201401N002019999999N9999999N1-00131-00281999999REMSYN042AAXX  10201 01015 46/// /1402 11013 21028;
0051010150999992013021021004+69600+017833FM-12+001499999V0201401N002019999999N9999999N1-00161-00301999999REMSYN042AAXX  10211 01015 46/// /1402 11016 21030;
0051010150999992013021022004+69600+017833FM-12+001499999V0201301N002019999999N9999999N1-00191-00331999999REMSYN042AAXX  10221 01015 46/// /1302 11019 21033;
0061010150999992013021100004+69600+017833FM-12+001499999V0201401N002019999999N9999999N1-00181-00321999999REMSYN052AAXX  11001 01015 46/// /1402 11018 21032 333 91103;
0051010150999992013021103004+69600+017833FM-12+001499999V0201401N002019999999N9999999N1-00291-00401999999REMSYN042AAXX  11031 01015 46/// /1402 11029 21040;
0051010150999992013021104004+69600+017833FM-12+001499999V0201401N002019999999N9999999N1-00301-00401999999REMSYN042AAXX  11041 01015 46/// /1402 11030 21040;
0051010150999992013021105004+69600+017833FM-12+001499999V0201401N002019999999N9999999N1-00321-00421999999REMSYN042AAXX  11051 01015 46/// /1402 11032 21042;
0083010150999992013021106004+69600+017833FM-12+001499999V0201401N002019999999N9999999N1-00311-00421999999ADDKA1999N-00331REMSYN058AAXX  11061 01015 46/// /1402 11031 21042 333 21033 91103;
0051010150999992013021109004+69600+017833FM-12+001499999V0201401N002019999999N9999999N1-00351-00441999999REMSYN042AAXX  11091 01015 46/// /1402 11035 21044;
0061010150999992013021112004+69600+017833FM-12+001499999V0201401N002019999999N9999999N1-00331-00471999999REMSYN052AAXX  11121 01015 46/// /1402 11033 21047 333 91103;
0051010150999992013021115004+69600+017833FM-12+001499999V0201401N002019999999N9999999N1-00341-00511999999REMSYN042AAXX  11151 01015 46/// /1402 11034 21051;
0051010150999992013021116004+69600+017833FM-12+001499999V0201401N002019999999N9999999N1-00331-00511999999REMSYN042AAXX  11161 01015 46/// /1402 11033 21051;
0083010150999992013021118004+69600+017833FM-12+001499999V0201401N002019999999N9999999N1-00341-00531999999ADDKA1120M-00281REMSYN058AAXX  11181 01015 46/// /1402 11034 21053 333 11028 91103;
0051010150999992013021120004+69600+017833FM-12+001499999V0201401N002019999999N9999999N1-00341-00541999999REMSYN042AAXX  11201 01015 46/// /1402 11034 21054;
0051010150999992013021121004+69600+017833FM-12+001499999V0201401N002019999999N9999999N1-00331-00541999999REMSYN042AAXX  11211 01015 46/// /1402 11033 21054;
0061010150999992013021200004+69600+017833FM-12+001499999V0201301N002019999999N9999999N1-00291-00521999999REMSYN052AAXX  12001 01015 46/// /1302 11029 21052 333 91103;
0051010150999992013021203004+69600+017833FM-12+001499999V0201401N002019999999N9999999N1-00231-00501999999REMSYN042AAXX  12031 01015 46/// /1402 11023 21050;
0051010150999992013021204004+69600+017833FM-12+001499999V0201301N002019999999N9999999N1-00201-00451999999REMSYN042AAXX  12041 01015 46/// /1302 11020 21045;
0083010150999992013021206004+69600+017833FM-12+001499999V0201301N002019999999N9999999N1-00151-00421999999ADDKA1999N-00351REMSYN058AAXX  12061 01015 46/// /1302 11015 21042 333 21035 91103;
0051010150999992013021212004+69600+017833FM-12+001499999V0201401N002019999999N9999999N1-00111-00381999999REMSYN042AAXX  12121 01015 46/// /1402 11011 21038;
0051010150999992013021214004+69600+017833FM-12+001499999V0201301N002019999999N9999999N1+00001-00311999999REMSYN042AAXX  12141 01015 46/// /1302 11000 21031;
0051010150999992013021215004+69600+017833FM-12+001499999V0201401N002019999999N9999999N1+00021-00311999999REMSYN042AAXX  12151 01015 46/// /1402 10002 21031;
0051010150999992013021216004+69600+017833FM-12+001499999V0201401N002019999999N9999999N1-00091-00331999999REMSYN042AAXX  12161 01015 46/// /1402 11009 21033;
0061010150999992013021218004+69600+017833FM-12+001499999V0201301N002019999999N9999999N1-00121-00371999999REMSYN052AAXX  12181 01015 46/// /1302 11012 21037 333 91103;
0051010150999992013021219004+69600+017833FM-12+001499999V0201201N003019999999N9999999N1-00141-00331999999REMSYN042AAXX  12191 01015 46/// /1203 11014 21033;
0051010150999992013021221004+69600+017833FM-12+001499999V0201501N002019999999N9999999N1-00141-00351999999REMSYN042AAXX  12211 01015 46/// /1502 11014 21035;
0051010150999992013021222004+69600+017833FM-12+001499999V0201301N003019999999N9999999N1-00131-00321999999REMSYN042AAXX  12221 01015 46/// /1303 11013 21032;
0061010150999992013021300004+69600+017833FM-12+001499999V0201401N002019999999N9999999N1-00081-00381999999REMSYN052AAXX  13001 01015 46/// /1402 11008 21038 333 91106;
0051010150999992013021301004+69600+017833FM-12+001499999V0201401N003019999999N9999999N1+00021-00431999999REMSYN042AAXX  13011 01015 46/// /1403 10002 21043;
0051010150999992013021302004+69600+017833FM-12+001499999V0200601N002019999999N9999999N1-00011-00381999999REMSYN042AAXX  13021 01015 46/// /0602 11001 21038;
0051010150999992013021303004+69600+017833FM-12+001499999V0201401N002019999999N9999999N1+00041-00461999999REMSYN042AAXX  13031 01015 46/// /1402 10004 21046;
0051010150999992013021304004+69600+017833FM-12+001499999V0201401N002019999999N9999999N1+00011-00521999999REMSYN042AAXX  13041 01015 46/// /1402 10001 21052;
0083010150999992013021306004+69600+017833FM-12+001499999V0201401N002019999999N9999999N1+00031-00571999999ADDKA1999N-00161REMSYN058AAXX  13061 01015 46/// /1402 10003 21057 333 21016 91105;
0051010150999992013021307004+69600+017833FM-12+001499999V0201401N003019999999N9999999N1-00031-00521999999REMSYN042AAXX  13071 01015 46/// /1403 11003 21052;
0051010150999992013021309004+69600+017833FM-12+001499999V0201401N003019999999N9999999N1-00021-00541999999REMSYN042AAXX  13091 01015 46/// /1403 11002 21054;
0061010150999992013021312004+69600+017833FM-12+001499999V0201401N003019999999N9999999N1-00051-00651999999REMSYN052AAXX  13121 01015 46/// /1403 11005 21065 333 91111;
0051010150999992013021315004+69600+017833FM-12+001499999V0201401N002019999999N9999999N1-00151-00761999999REMSYN042AAXX  13151 01015 46/// /1402 11015 21076;
0051010150999992013021317004+69600+017833FM-12+001499999V0201401N002019999999N9999999N1-00121-00681999999REMSYN042AAXX  13171 01015 46/// /1402 11012 21068;
0083010150999992013021318004+69600+017833FM-12+001499999V0201401N002019999999N9999999N1-00111-00741999999ADDKA1120M+00041REMSYN058AAXX  13181 01015 46/// /1402 11011 21074 333 10004 91105;
0051010150999992013021321004+69600+017833FM-12+001499999V0201501N002019999999N9999999N1-00071-00721999999REMSYN042AAXX  13211 01015 46/// /1502 11007 21072;
0061010150999992013021400004+69600+017833FM-12+001499999V0201401N003019999999N9999999N1-00111-00761999999REMSYN052AAXX  14001 01015 46/// /1403 11011 21076 333 91106;
0051010150999992013021401004+69600+017833FM-12+001499999V0201401N003019999999N9999999N1-00111-00651999999REMSYN042AAXX  14011 01015 46/// /1403 11011 21065;
0051010150999992013021403004+69600+017833FM-12+001499999V0201801N001019999999N9999999N1-00181-00651999999REMSYN042AAXX  14031 01015 46/// /1801 11018 21065;
0051010150999992013021405004+69600+017833FM-12+001499999V0201401N002019999999N9999999N1-00201-00651999999REMSYN042AAXX  14051 01015 46/// /1402 11020 21065;
0083010150999992013021406004+69600+017833FM-12+001499999V0201401N002019999999N9999999N1-00221-00681999999ADDKA1999N-00221REMSYN058AAXX  14061 01015 46/// /1402 11022 21068 333 21022 91111;
0051010150999992013021409004+69600+017833FM-12+001499999V0201401N003019999999N9999999N1-00221-00751999999REMSYN042AAXX  14091 01015 46/// /1403 11022 21075;
0061010150999992013021412004+69600+017833FM-12+001499999V0201401N003019999999N9999999N1-00051-00541999999REMSYN052AAXX  14121 01015 46/// /1403 11005 21054 333 91107;
0051010150999992013021415004+69600+017833FM-12+001499999V0201401N003019999999N9999999N1-00021-00491999999REMSYN042AAXX  14151 01015 46/// /1403 11002 21049;
0051010150999992013021416004+69600+017833FM-12+001499999V0201401N002019999999N9999999N1-00011-00501999999REMSYN042AAXX  14161 01015 46/// /1402 11001 21050;
0051010150999992013021417004+69600+017833FM-12+001499999V0201401N002019999999N9999999N1-00031-00521999999REMSYN042AAXX  14171 01015 46/// /1402 11003 21052;
0083010150999992013021418004+69600+017833FM-12+001499999V0201401N002019999999N9999999N1-00011-00541999999ADDKA1120M+00001REMSYN058AAXX  14181 01015 46/// /1402 11001 21054 333 10000 91105;
0051010150999992013021421004+69600+017833FM-12+001499999V0201401N003019999999N9999999N1-00141-00631999999REMSYN042AAXX  14211 01015 46/// /1403 11014 21063;
0061010150999992013021500004+69600+017833FM-12+001499999V0201401N004019999999N9999999N1-00181-00651999999REMSYN052AAXX  15001 01015 46/// /1404 11018 21065 333 91110;
0051010150999992013021503004+69600+017833FM-12+001499999V0201401N003019999999N9999999N1-00201-00611999999REMSYN042AAXX  15031 01015 46/// /1403 11020 21061;
0051010150999992013021504004+69600+017833FM-12+001499999V0201401N003019999999N9999999N1-00221-00631999999REMSYN042AAXX  15041 01015 46/// /1403 11022 21063;
0083010150999992013021506004+69600+017833FM-12+001499999V0201401N003019999999N9999999N1-00271-00651999999ADDKA1999N-00271REMSYN058AAXX  15061 01015 46/// /1403 11027 21065 333 21027 91109;
0051010150999992013021509004+69600+017833FM-12+001499999V0201401N003019999999N9999999N1-00301-00711999999REMSYN042AAXX  15091 01015 46/// /1403 11030 21071;
0061010150999992013021512004+69600+017833FM-12+001499999V0201401N002019999999N9999999N1-00281-00741999999REMSYN052AAXX  15121 01015 46/// /1402 11028 21074 333 91105;
0051010150999992013021515004+69600+017833FM-12+001499999V0209999C000019999999N9999999N1-00331-00811999999REMSYN042AAXX  15151 01015 46/// /0000 11033 21081;
0051010150999992013021517004+69600+017833FM-12+001499999V0201401N002019999999N9999999N1-00331-00781999999REMSYN042AAXX  15171 01015 46/// /1402 11033 21078;
0083010150999992013021518004+69600+017833FM-12+001499999V0201401N002019999999N9999999N1-00281-00801999999ADDKA1120M-00251REMSYN058AAXX  15181 01015 46/// /1402 11028 21080 333 11025 91103;
0051010150999992013021521004+69600+017833FM-12+001499999V0201401N002019999999N9999999N1-00321-00831999999REMSYN042AAXX  15211 01015 46/// /1402 11032 21083;
0051010150999992013021522004+69600+017833FM-12+001499999V0201401N002019999999N9999999N1-00331-00831999999REMSYN042AAXX  15221 01015 46/// /1402 11033 21083;
0051010150999992013021523004+69600+017833FM-12+001499999V0201401N002019999999N9999999N1-00331-00821999999REMSYN042AAXX  15231 01015 46/// /1402 11033 21082;
0061010150999992013021600004+69600+017833FM-12+001499999V0201401N002019999999N9999999N1-00321-00801999999REMSYN052AAXX  16001 01015 46/// /1402 11032 21080 333 91104;
0051010150999992013021603004+69600+017833FM-12+001499999V0201401N002019999999N9999999N1-00331-00771999999REMSYN042AAXX  16031 01015 46/// /1402 11033 21077;
0051010150999992013021606004+69600+017833FM-12+001499999V0201401N002019999999N9999999N1-00321-00701999999REMSYN042AAXX  16061 01015 46/// /1402 11032 21070;
0051010150999992013021609004+69600+017833FM-12+001499999V0201401N002019999999N9999999N1-00341-00661999999REMSYN042AAXX  16091 01015 46/// /1402 11034 21066;
0061010150999992013021612004+69600+017833FM-12+001499999V0201401N002019999999N9999999N1-00311-00631999999REMSYN052AAXX  16121 01015 46/// /1402 11031 21063 333 91106;
0051010150999992013021615004+69600+017833FM-12+001499999V0201401N001019999999N9999999N1-00271-00571999999REMSYN042AAXX  16151 01015 46/// /1401 11027 21057;
0083010150999992013021618004+69600+017833FM-12+001499999V0201401N002019999999N9999999N1-00281-00551999999ADDKA1120M-00251REMSYN058AAXX  16181 01015 46/// /1402 11028 21055 333 11025 91105;
0051010150999992013021619004+69600+017833FM-12+001499999V0201301N002019999999N9999999N1-00261-00511999999REMSYN042AAXX  16191 01015 46/// /1302 11026 21051;
0051010150999992013021620004+69600+017833FM-12+001499999V0201301N003019999999N9999999N1-00261-00531999999REMSYN042AAXX  16201 01015 46/// /1303 11026 21053;
0051010150999992013021621004+69600+017833FM-12+001499999V0201401N002019999999N9999999N1-00241-00521999999REMSYN042AAXX  16211 01015 46/// /1402 11024 21052;
0051010150999992013021622004+69600+017833FM-12+001499999V0201201N002019999999N9999999N1-00201-00471999999REMSYN042AAXX  16221 01015 46/// /1202 11020 21047;
0061010150999992013021700004+69600+017833FM-12+001499999V0201301N002019999999N9999999N1-00201-00451999999REMSYN052AAXX  17001 01015 46/// /1302 11020 21045 333 91104;
0051010150999992013021703004+69600+017833FM-12+001499999V0201401N001019999999N9999999N1-00231-00491999999REMSYN042AAXX  17031 01015 46/// /1401 11023 21049;
0051010150999992013021704004+69600+017833FM-12+001499999V0201401N002019999999N9999999N1-00271-00511999999REMSYN042AAXX  17041 01015 46/// /1402 11027 21051;
0083010150999992013021706004+69600+017833FM-12+001499999V0209999C000019999999N9999999N1-00271-00511999999ADDKA1999N-00291REMSYN058AAXX  17061 01015 46/// /0000 11027 21051 333 21029 91104;
0051010150999992013021709004+69600+017833FM-12+001499999V0201401N002019999999N9999999N1-00281-00471999999REMSYN042AAXX  17091 01015 46/// /1402 11028 21047;
0061010150999992013021712004+69600+017833FM-12+001499999V0201401N001019999999N9999999N1-00181-00521999999REMSYN052AAXX  17121 01015 46/// /1401 11018 21052 333 91105;
0051010150999992013021715004+69600+017833FM-12+001499999V0209999C000019999999N9999999N1-00181-00491999999REMSYN042AAXX  17151 01015 46/// /0000 11018 21049;
0051010150999992013021717004+69600+017833FM-12+001499999V0209999C000019999999N9999999N1-00211-00511999999REMSYN042AAXX  17171 01015 46/// /0000 11021 21051;
0083010150999992013021718004+69600+017833FM-12+001499999V0201401N001019999999N9999999N1-00201-00501999999ADDKA1120M-00151REMSYN058AAXX  17181 01015 46/// /1401 11020 21050 333 11015 91103;
0051010150999992013021720004+69600+017833FM-12+001499999V0201401N001019999999N9999999N1-00221-00571999999REMSYN042AAXX  17201 01015 46/// /1401 11022 21057;
0051010150999992013021721004+69600+017833FM-12+001499999V0209999C000019999999N9999999N1-00251-00611999999REMSYN042AAXX  17211 01015 46/// /0000 11025 21061;
0061010150999992013021800004+69600+017833FM-12+001499999V0201501N001019999999N9999999N1-00221-00631999999REMSYN052AAXX  18001 01015 46/// /1501 11022 21063 333 91107;
0051010150999992013021801004+69600+017833FM-12+001499999V0201401N001019999999N9999999N1-00231-00661999999REMSYN042AAXX  18011 01015 46/// /1401 11023 21066;
0051010150999992013021803004+69600+017833FM-12+001499999V0209999C000019999999N9999999N1-00241-00651999999REMSYN042AAXX  18031 01015 46/// /0000 11024 21065;
0051010150999992013021804004+69600+017833FM-12+001499999V0209999C000019999999N9999999N1-00221-00611999999REMSYN042AAXX  18041 01015 46/// /0000 11022 21061;
0083010150999992013021806004+69600+017833FM-12+001499999V0209999C000019999999N9999999N1-00221-00511999999ADDKA1999N-00261REMSYN058AAXX  18061 01015 46/// /0000 11022 21051 333 21026 91104;
0051010150999992013021808004+69600+017833FM-12+001499999V0209999C000019999999N9999999N1-00211-00501999999REMSYN042AAXX  18081 01015 46/// /0000 11021 21050;
