0111010110999992013010100004+80067+031500FM-12+001099999V0200901N019019999999N9999999N1-00391+99999100881ADDMA1999999100771MD1610041+9999REMSYN070AAXX  01001 01011 46/// /0919 11039 2//// 30077 40088 56004 333 91122;
0101010110999992013010103004+80067+031500FM-12+001099999V0200901N016019999999N9999999N1-00371+99999100911ADDMA1999999100801MD1510031+9999REMSYN060AAXX  01031 01011 46/// /0916 11037 2//// 30080 40091 55003;
0101010110999992013010104004+80067+031500FM-12+001099999V0200901N018019999999N9999999N1-00411+99999100891ADDMA1999999100781MD1510011+9999REMSYN060AAXX  01041 01011 46/// /0918 11041 2//// 30078 40089 55001;
0101010110999992013010105004+80067+031500FM-12+001099999V0200901N018019999999N9999999N1-00401+99999100861ADDMA1999999100751MD1710081+9999REMSYN060AAXX  01051 01011 46/// /0918 11040 2//// 30075 40086 57008;
0101010110999992013010106004+80067+031500FM-12+001099999V0200901N017019999999N9999999N1-00391+99999100881ADDMA1999999100771MD1010021+9999REMSYN060AAXX  01061 01011 46/// /0917 11039 2//// 30077 40088 50002;
0101010110999992013010107004+80067+031500FM-12+001099999V0200901N020019999999N9999999N1-00371+99999100831ADDMA1999999100721MD1610061+9999REMSYN060AAXX  01071 01011 46/// /0920 11037 2//// 30072 40083 56006;
0101010110999992013010108004+80067+031500FM-12+001099999V0200801N018019999999N9999999N1-00371+99999100801ADDMA1999999100691MD1610061+9999REMSYN060AAXX  01081 01011 46/// /0818 11037 2//// 30069 40080 56006;
0101010110999992013010109004+80067+031500FM-12+001099999V0200801N018019999999N9999999N1-00361+99999100811ADDMA1999999100701MD1810071+9999REMSYN060AAXX  01091 01011 46/// /0818 11036 2//// 30070 40081 58007;
0101010110999992013010110004+80067+031500FM-12+001099999V0200801N020019999999N9999999N1-00341+99999100751ADDMA1999999100651MD1710071+9999REMSYN060AAXX  01101 01011 46/// /0820 11034 2//// 30065 40075 57007;
0101010110999992013010111004+80067+031500FM-12+001099999V0200901N019019999999N9999999N1-00291+99999100721ADDMA1999999100621MD1610081+9999REMSYN060AAXX  01111 01011 46/// /0919 11029 2//// 30062 40072 56008;
0111010110999992013010112004+80067+031500FM-12+001099999V0200901N020019999999N9999999N1-00251+99999100711ADDMA1999999100611MD1810091+9999REMSYN070AAXX  01121 01011 46/// /0920 11025 2//// 30061 40071 58009 333 91122;
0101010110999992013010113004+80067+031500FM-12+001099999V0200901N020019999999N9999999N1-00231+99999100711ADDMA1999999100601MD1710041+9999REMSYN060AAXX  01131 01011 46/// /0920 11023 2//// 30060 40071 57004;
0101010110999992013010114004+80067+031500FM-12+001099999V0200901N021019999999N9999999N1-00241+99999100701ADDMA1999999100591MD1410001+9999REMSYN060AAXX  01141 01011 46/// /0921 11024 2//// 30059 40070 54002;
0101010110999992013010115004+80067+031500FM-12+001099999V0200901N021019999999N9999999N1-00251+99999100681ADDMA1999999100571MD1710031+9999REMSYN060AAXX  01151 01011 46/// /0921 11025 2//// 30057 40068 57003;
0101010110999992013010116004+80067+031500FM-12+001099999V0200901N020019999999N9999999N1-00261+99999100691ADDMA1999999100581MD1410001+9999REMSYN060AAXX  01161 01011 46/// /0920 11026 2//// 30058 40069 54002;
0101010110999992013010117004+80067+031500FM-12+001099999V0200901N020019999999N9999999N1-00251+99999100721ADDMA1999999100621MD1010031+9999REMSYN060AAXX  01171 01011 46/// /0920 11025 2//// 30062 40072 50003;
0130010110999992013010118004+80067+031500FM-12+001099999V0200901N021019999999N9999999N1-00261+99999100701ADDKA1120M-00231MA1999999100601MD1410001+9999REMSYN076AAXX  01181 01011 46/// /0921 11026 2//// 30060 40070 54003 333 11023 91122;
0101010110999992013010119004+80067+031500FM-12+001099999V0200901N019019999999N9999999N1-00261+99999100751ADDMA1999999100641MD1210061+9999REMSYN060AAXX  01191 01011 46/// /0919 11026 2//// 30064 40075 52006;
0101010110999992013010120004+80067+031500FM-12+001099999V0200801N019019999999N9999999N1-00261+99999100731ADDMA1999999100621MD1410001+9999REMSYN060AAXX  01201 01011 46/// /0819 11026 2//// 30062 40073 54001;
0101010110999992013010121004+80067+031500FM-12+001099999V0200901N018019999999N9999999N1-00261+99999100731ADDMA1999999100621MD1510021+9999REMSYN060AAXX  01211 01011 46/// /0918 11026 2//// 30062 40073 55002;
0101010110999992013010122004+80067+031500FM-12+001099999V0200901N019019999999N9999999N1-00261+99999100721ADDMA1999999100621MD1410001+9999REMSYN060AAXX  01221 01011 46/// /0919 11026 2//// 30062 40072 54002;
0101010110999992013010123004+80067+031500FM-12+001099999V0200801N020019999999N9999999N1-00261+99999100711ADDMA1999999100601MD1410001+9999REMSYN060AAXX  01231 01011 46/// /0820 11026 2//// 30060 40071 54002;
0111010110999992013010200004+80067+031500FM-12+001099999V0200801N019019999999N9999999N1-00281+99999100671ADDMA1999999100561MD1610061+9999REMSYN070AAXX  02001 01011 46/// /0819 11028 2//// 30056 40067 56006 333 91121;
0101010110999992013010201004+80067+031500FM-12+001099999V0200801N020019999999N9999999N1-00261+99999100681ADDMA1999999100571MD1710051+9999REMSYN060AAXX  02011 01011 46/// /0820 11026 2//// 30057 40068 57005;
0101010110999992013010202004+80067+031500FM-12+001099999V0200801N018019999999N9999999N1-00271+99999100661ADDMA1999999100551MD1710051+9999REMSYN060AAXX  02021 01011 46/// /0818 11027 2//// 30055 40066 57005;
0101010110999992013010203004+80067+031500FM-12+001099999V0200801N020019999999N9999999N1-00271+99999100611ADDMA1999999100501MD1610061+9999REMSYN060AAXX  02031 01011 46/// /0820 11027 2//// 30050 40061 56006;
0101010110999992013010207004+80067+031500FM-12+001099999V0200801N022019999999N9999999N1-00261+99999100431ADDMA1999999100331MD1710091+9999REMSYN060AAXX  02071 01011 46/// /0822 11026 2//// 30033 40043 57009;
0101010110999992013010208004+80067+031500FM-12+001099999V0200701N021019999999N9999999N1-00271+99999100481ADDMA1999999100371MD1010021+9999REMSYN060AAXX  02081 01011 46/// /0721 11027 2//// 30037 40048 50002;
0101010110999992013010209004+80067+031500FM-12+001099999V0200701N020019999999N9999999N1-00281+99999100471ADDMA1999999100361MD1410001+9999REMSYN060AAXX  02091 01011 46/// /0720 11028 2//// 30036 40047 54002;
0101010110999992013010210004+80067+031500FM-12+001099999V0200801N020019999999N9999999N1-00261+99999100491ADDMA1999999100381MD1310051+9999REMSYN060AAXX  02101 01011 46/// /0820 11026 2//// 30038 40049 53005;
0101010110999992013010211004+80067+031500FM-12+001099999V0200801N019019999999N9999999N1-00261+99999100451ADDMA1999999100341MD1410001+9999REMSYN060AAXX  02111 01011 46/// /0819 11026 2//// 30034 40045 54003;
0111010110999992013010212004+80067+031500FM-12+001099999V0200801N020019999999N9999999N1-00241+99999100371ADDMA1999999100261MD1610101+9999REMSYN070AAXX  02121 01011 46/// /0820 11024 2//// 30026 40037 56010 333 91123;
0101010110999992013010213004+80067+031500FM-12+001099999V0200801N019019999999N9999999N1-00241+99999100381ADDMA1999999100271MD1810101+9999REMSYN060AAXX  02131 01011 46/// /0819 11024 2//// 30027 40038 58010;
0101010110999992013010214004+80067+031500FM-12+001099999V0200801N018019999999N9999999N1-00261+99999100371ADDMA1999999100261MD1810081+9999REMSYN060AAXX  02141 01011 46/// /0818 11026 2//// 30026 40037 58008;
0101010110999992013010215004+80067+031500FM-12+001099999V0200801N021019999999N9999999N1-00281+99999100281ADDMA1999999100181MD1610081+9999REMSYN060AAXX  02151 01011 46/// /0821 11028 2//// 30018 40028 56008;
0101010110999992013010216004+80067+031500FM-12+001099999V0200701N020019999999N9999999N1-00281+99999100261ADDMA1999999100151MD1710121+9999REMSYN060AAXX  02161 01011 46/// /0720 11028 2//// 30015 40026 57012;
0101010110999992013010217004+80067+031500FM-12+001099999V0200701N018019999999N9999999N1-00291+99999100251ADDMA1999999100141MD1810121+9999REMSYN060AAXX  02171 01011 46/// /0718 11029 2//// 30014 40025 58012;
0130010110999992013010218004+80067+031500FM-12+001099999V0200801N017019999999N9999999N1-00301+99999100181ADDKA1120M-00241MA1999999100081MD1610101+9999REMSYN076AAXX  02181 01011 46/// /0817 11030 2//// 30008 40018 56010 333 11024 91123;
0101010110999992013010219004+80067+031500FM-12+001099999V0200801N018019999999N9999999N1-00301+99999100101ADDMA1999999099991MD1610161+9999REMSYN060AAXX  02191 01011 46/// /0818 11030 2//// 39999 40010 56016;
0101010110999992013010220004+80067+031500FM-12+001099999V0200801N019019999999N9999999N1-00291+99999100011ADDMA1999999099901MD1710241+9999REMSYN060AAXX  02201 01011 46/// /0819 11029 2//// 39990 40001 57024;
0101010110999992013010221004+80067+031500FM-12+001099999V0200801N020019999999N9999999N1-00251+99999099951ADDMA1999999099841MD1710241+9999REMSYN060AAXX  02211 01011 46/// /0820 11025 2//// 39984 49995 57024;
0101010110999992013010222004+80067+031500FM-12+001099999V0200901N018019999999N9999999N1-00231+99999099981ADDMA1999999099881MD1810121+9999REMSYN060AAXX  02221 01011 46/// /0918 11023 2//// 39988 49998 58012;
0101010110999992013010223004+80067+031500FM-12+001099999V0200901N018019999999N9999999N1-00251+99999099931ADDMA1999999099821MD1710081+9999REMSYN060AAXX  02231 01011 46/// /0918 11025 2//// 39982 49993 57008;
0111010110999992013010300004+80067+031500FM-12+001099999V0200901N019019999999N9999999N1-00251+99999099901ADDMA1999999099791MD1510051+9999REMSYN070AAXX  03001 01011 46/// /0919 11025 2//// 39979 49990 55005 333 91121;
0101010110999992013010301004+80067+031500FM-12+001099999V0200901N021019999999N9999999N1-00251+99999099841ADDMA1999999099731MD1710141+9999REMSYN060AAXX  03011 01011 46/// /0921 11025 2//// 39973 49984 57014;
0101010110999992013010302004+80067+031500FM-12+001099999V0200901N017019999999N9999999N1-00251+99999099881ADDMA1999999099771MD1810051+9999REMSYN060AAXX  03021 01011 46/// /0917 11025 2//// 39977 49988 58005;
0101010110999992013010303004+80067+031500FM-12+001099999V0200901N017019999999N9999999N1-00251+99999099871ADDMA1999999099761MD1810031+9999REMSYN060AAXX  03031 01011 46/// /0917 11025 2//// 39976 49987 58003;
0101010110999992013010304004+80067+031500FM-12+001099999V0200901N017019999999N9999999N1-00261+99999099871ADDMA1999999099771MD1310031+9999REMSYN060AAXX  03041 01011 46/// /0917 11026 2//// 39977 49987 53003;
0101010110999992013010305004+80067+031500FM-12+001099999V0200901N015019999999N9999999N1-00271+99999099911ADDMA1999999099801MD1010031+9999REMSYN060AAXX  03051 01011 46/// /0915 11027 2//// 39980 49991 50003;
0130010110999992013010306004+80067+031500FM-12+001099999V0200901N016019999999N9999999N1-00261+99999099871ADDKA1999N-00301MA1999999099771MD1510011+9999REMSYN076AAXX  03061 01011 46/// /0916 11026 2//// 39977 49987 55001 333 21030 91122;
0101010110999992013010308004+80067+031500FM-12+001099999V0201001N017019999999N9999999N1-00281+99999099961ADDMA1999999099851MD1010051+9999REMSYN060AAXX  03081 01011 46/// /1017 11028 2//// 39985 49996 50005;
0101010110999992013010309004+80067+031500FM-12+001099999V0201001N014019999999N9999999N1-00291+99999100051ADDMA1999999099941MD1110171+9999REMSYN060AAXX  03091 01011 46/// /1014 11029 2//// 39994 40005 51017;
0101010110999992013010310004+80067+031500FM-12+001099999V0201001N017019999999N9999999N1-00321+99999100041ADDMA1999999099941MD1310131+9999REMSYN060AAXX  03101 01011 46/// /1017 11032 2//// 39994 40004 53013;
0101010110999992013010311004+80067+031500FM-12+001099999V0201001N017019999999N9999999N1-00331+99999100081ADDMA1999999099971MD1310121+9999REMSYN060AAXX  03111 01011 46/// /1017 11033 2//// 39997 40008 53012;
0111010110999992013010312004+80067+031500FM-12+001099999V0200901N016019999999N9999999N1-00331+99999100121ADDMA1999999100011MD1110071+9999REMSYN070AAXX  03121 01011 46/// /0916 11033 2//// 30001 40012 51007 333 91119;
0101010110999992013010313004+80067+031500FM-12+001099999V0201001N014019999999N9999999N1-00361+99999100191ADDMA1999999100091MD1110151+9999REMSYN060AAXX  03131 01011 46/// /1014 11036 2//// 30009 40019 51015;
0101010110999992013010314004+80067+031500FM-12+001099999V0201001N010019999999N9999999N1-00361+99999100261ADDMA1999999100151MD1210181+9999REMSYN060AAXX  03141 01011 46/// /1010 11036 2//// 30015 40026 52018;
0101010110999992013010315004+80067+031500FM-12+001099999V0201001N012019999999N9999999N1-00361+99999100271ADDMA1999999100161MD1310151+9999REMSYN060AAXX  03151 01011 46/// /1012 11036 2//// 30016 40027 53015;
0101010110999992013010316004+80067+031500FM-12+001099999V0200801N012019999999N9999999N1-00371+99999100301ADDMA1999999100201MD1310111+9999REMSYN060AAXX  03161 01011 46/// /0812 11037 2//// 30020 40030 53011;
0101010110999992013010317004+80067+031500FM-12+001099999V0201001N013019999999N9999999N1-00371+99999100321ADDMA1999999100211MD1210051+9999REMSYN060AAXX  03171 01011 46/// /1013 11037 2//// 30021 40032 52005;
0130010110999992013010318004+80067+031500FM-12+001099999V0200901N012019999999N9999999N1-00401+99999100341ADDKA1120M-00261MA1999999100241MD1210071+9999REMSYN076AAXX  03181 01011 46/// /0912 11040 2//// 30024 40034 52007 333 11026 91114;
0101010110999992013010319004+80067+031500FM-12+001099999V0200701N012019999999N9999999N1-00441+99999100381ADDMA1999999100281MD1210081+9999REMSYN060AAXX  03191 01011 46/// /0712 11044 2//// 30028 40038 52008;
0101010110999992013010320004+80067+031500FM-12+001099999V0200701N010019999999N9999999N1-00481+99999100451ADDMA1999999100341MD1110141+9999REMSYN060AAXX  03201 01011 46/// /0710 11048 2//// 30034 40045 51014;
0101010110999992013010321004+80067+031500FM-12+001099999V0200801N011019999999N9999999N1-00501+99999100441ADDMA1999999100331MD1310101+9999REMSYN060AAXX  03211 01011 46/// /0811 11050 2//// 30033 40044 53010;
0101010110999992013010322004+80067+031500FM-12+001099999V0200701N012019999999N9999999N1-00531+99999100411ADDMA1999999100311MD1510031+9999REMSYN060AAXX  03221 01011 46/// /0712 11053 2//// 30031 40041 55003;
0101010110999992013010323004+80067+031500FM-12+001099999V0200701N008019999999N9999999N1-00461+99999100461ADDMA1999999100351MD1010011+9999REMSYN060AAXX  03231 01011 46/// /0708 11046 2//// 30035 40046 50001;
0111010110999992013010400004+80067+031500FM-12+001099999V0200801N007019999999N9999999N1-00421+99999100481ADDMA1999999100371MD1110031+9999REMSYN070AAXX  04001 01011 46/// /0807 11042 2//// 30037 40048 51003 333 91113;
0101010110999992013010401004+80067+031500FM-12+001099999V0200901N008019999999N9999999N1-00411+99999100511ADDMA1999999100411MD1210101+9999REMSYN060AAXX  04011 01011 46/// /0908 11041 2//// 30041 40051 52010;
0101010110999992013010403004+80067+031500FM-12+001099999V0200901N007019999999N9999999N1-00461+99999100591ADDMA1999999100481MD1210121+9999REMSYN060AAXX  04031 01011 46/// /0907 11046 2//// 30048 40059 52012;
0101010110999992013010404004+80067+031500FM-12+001099999V0200601N008019999999N9999999N1-00461+99999100621ADDMA1999999100511MD1210101+9999REMSYN060AAXX  04041 01011 46/// /0608 11046 2//// 30051 40062 52010;
0101010110999992013010405004+80067+031500FM-12+001099999V0200701N007019999999N9999999N1-00481+99999100641ADDMA1999999100531MD1210071+9999REMSYN060AAXX  04051 01011 46/// /0707 11048 2//// 30053 40064 52007;
0101010110999992013010406004+80067+031500FM-12+001099999V0200701N008019999999N9999999N1-00511+99999100671ADDMA1999999100561MD1210081+9999REMSYN060AAXX  04061 01011 46/// /0708 11051 2//// 30056 40067 52008;
0101010110999992013010407004+80067+031500FM-12+001099999V0200401N007019999999N9999999N1-00571+99999100721ADDMA1999999100611MD1210101+9999REMSYN060AAXX  04071 01011 46/// /0407 11057 2//// 30061 40072 52010;
0101010110999992013010408004+80067+031500FM-12+001099999V0200401N007019999999N9999999N1-00571+99999100761ADDMA1999999100651MD1210121+9999REMSYN060AAXX  04081 01011 46/// /0407 11057 2//// 30065 40076 52012;
0101010110999992013010409004+80067+031500FM-12+001099999V0200401N007019999999N9999999N1-00571+99999100801ADDMA1999999100691MD1210121+9999REMSYN060AAXX  04091 01011 46/// /0407 11057 2//// 30069 40080 52012;
0101010110999992013010410004+80067+031500FM-12+001099999V0200301N007019999999N9999999N1-00621+99999100821ADDMA1999999100721MD1210111+9999REMSYN060AAXX  04101 01011 46/// /0307 11062 2//// 30072 40082 52011;
0101010110999992013010411004+80067+031500FM-12+001099999V0200401N006019999999N9999999N1-00591+99999100851ADDMA1999999100741MD1210091+9999REMSYN060AAXX  04111 01011 46/// /0406 11059 2//// 30074 40085 52009;
0111010110999992013010412004+80067+031500FM-12+001099999V0200501N011019999999N9999999N1-00581+99999100841ADDMA1999999100731MD1310041+9999REMSYN070AAXX  04121 01011 46/// /0511 11058 2//// 30073 40084 53004 333 91111;
0101010110999992013010413004+80067+031500FM-12+001099999V0200601N010019999999N9999999N1-00521+99999100881ADDMA1999999100771MD1210051+9999REMSYN060AAXX  04131 01011 46/// /0610 11052 2//// 30077 40088 52005;
0101010110999992013010414004+80067+031500FM-12+001099999V0200601N011019999999N9999999N1-00511+99999100891ADDMA1999999100781MD1210041+9999REMSYN060AAXX  04141 01011 46/// /0611 11051 2//// 30078 40089 52004;
0101010110999992013010415004+80067+031500FM-12+001099999V0200601N009019999999N9999999N1-00631+99999100961ADDMA1999999100851MD1210121+9999REMSYN060AAXX  04151 01011 46/// /0609 11063 2//// 30085 40096 52012;
0101010110999992013010416004+80067+031500FM-12+001099999V0200601N013019999999N9999999N1-00601+99999100971ADDMA1999999100861MD1210091+9999REMSYN060AAXX  04161 01011 46/// /0613 11060 2//// 30086 40097 52009;
0101010110999992013010417004+80067+031500FM-12+001099999V0200601N014019999999N9999999N1-00681+99999101031ADDMA1999999100921MD1210131+9999REMSYN060AAXX  04171 01011 46/// /0614 11068 2//// 30092 40103 52013;
0130010110999992013010418004+80067+031500FM-12+001099999V0200501N011019999999N9999999N1-00691+99999101081ADDKA1120M-00511MA1999999100971MD1110121+9999REMSYN076AAXX  04181 01011 46/// /0511 11069 2//// 30097 40108 51012 333 11051 91114;
0101010110999992013010419004+80067+031500FM-12+001099999V0200501N010019999999N9999999N1-00691+99999101141ADDMA1999999101031MD1210171+9999REMSYN060AAXX  04191 01011 46/// /0510 11069 2//// 30103 40114 52017;
0101010110999992013010420004+80067+031500FM-12+001099999V0200501N009019999999N9999999N1-00681+99999101191ADDMA1999999101081MD1210161+9999REMSYN060AAXX  04201 01011 46/// /0509 11068 2//// 30108 40119 52016;
0101010110999992013010421004+80067+031500FM-12+001099999V0200601N008019999999N9999999N1-00641+99999101261ADDMA1999999101151MD1210181+9999REMSYN060AAXX  04211 01011 46/// /0608 11064 2//// 30115 40126 52018;
0101010110999992013010422004+80067+031500FM-12+001099999V0200601N007019999999N9999999N1-00661+99999101321ADDMA1999999101211MD1210181+9999REMSYN060AAXX  04221 01011 46/// /0607 11066 2//// 30121 40132 52018;
0101010110999992013010423004+80067+031500FM-12+001099999V0200501N009019999999N9999999N1-00671+99999101351ADDMA1999999101241MD1310161+9999REMSYN060AAXX  04231 01011 46/// /0509 11067 2//// 30124 40135 53016;
0111010110999992013010500004+80067+031500FM-12+001099999V0200501N009019999999N9999999N1-00601+99999101391ADDMA1999999101281MD1210131+9999REMSYN070AAXX  05001 01011 46/// /0509 11060 2//// 30128 40139 52013 333 91111;
0101010110999992013010501004+80067+031500FM-12+001099999V0200701N006019999999N9999999N1-00641+99999101451ADDMA1999999101341MD1110141+9999REMSYN060AAXX  05011 01011 46/// /0706 11064 2//// 30134 40145 51014;
0101010110999992013010502004+80067+031500FM-12+001099999V0200801N005019999999N9999999N1-00661+99999101491ADDMA1999999101381MD1210141+9999REMSYN060AAXX  05021 01011 46/// /0805 11066 2//// 30138 40149 52014;
0101010110999992013010504004+80067+031500FM-12+001099999V0200801N004019999999N9999999N1-00651+99999101601ADDMA1999999101491MD1210141+9999REMSYN060AAXX  05041 01011 46/// /0804 11065 2//// 30149 40160 52014;
0101010110999992013010505004+80067+031500FM-12+001099999V0200901N003019999999N9999999N1-00521+99999101631ADDMA1999999101521MD1210131+9999REMSYN060AAXX  05051 01011 46/// /0903 11052 2//// 30152 40163 52013;
0101010110999992013010506004+80067+031500FM-12+001099999V0200801N008019999999N9999999N1-00581+99999101661ADDMA1999999101551MD1310121+9999REMSYN060AAXX  05061 01011 46/// /0808 11058 2//// 30155 40166 53012;
0101010110999992013010507004+80067+031500FM-12+001099999V0201001N006019999999N9999999N1-00611+99999101721ADDMA1999999101611MD1110131+9999REMSYN060AAXX  05071 01011 46/// /1006 11061 2//// 30161 40172 51013;
0101010110999992013010508004+80067+031500FM-12+001099999V0201001N007019999999N9999999N1-00591+99999101781ADDMA1999999101671MD1210151+9999REMSYN060AAXX  05081 01011 46/// /1007 11059 2//// 30167 40178 52015;
0101010110999992013010509004+80067+031500FM-12+001099999V0201201N005019999999N9999999N1-00551+99999101841ADDMA1999999101731MD1210191+9999REMSYN060AAXX  05091 01011 46/// /1205 11055 2//// 30173 40184 52019;
0101010110999992013010510004+80067+031500FM-12+001099999V0201201N006019999999N9999999N1-00471+99999101891ADDMA1999999101781MD1210171+9999REMSYN060AAXX  05101 01011 46/// /1206 11047 2//// 30178 40189 52017;
0101010110999992013010511004+80067+031500FM-12+001099999V0200901N007019999999N9999999N1-00561+99999101901ADDMA1999999101791MD1310121+9999REMSYN060AAXX  05111 01011 46/// /0907 11056 2//// 30179 40190 53012;
0111010110999992013010512004+80067+031500FM-12+001099999V0200901N008019999999N9999999N1-00601+99999101931ADDMA1999999101821MD1210091+9999REMSYN070AAXX  05121 01011 46/// /0908 11060 2//// 30182 40193 52009 333 91108;
0101010110999992013010513004+80067+031500FM-12+001099999V0201001N007019999999N9999999N1-00561+99999101961ADDMA1999999101851MD1210071+9999REMSYN060AAXX  05131 01011 46/// /1007 11056 2//// 30185 40196 52007;
0101010110999992013010514004+80067+031500FM-12+001099999V0201001N008019999999N9999999N1-00571+99999101951ADDMA1999999101841MD1310051+9999REMSYN060AAXX  05141 01011 46/// /1008 11057 2//// 30184 40195 53005;
0101010110999992013010515004+80067+031500FM-12+001099999V0201101N006019999999N9999999N1-00561+99999101961ADDMA1999999101851MD1410001+9999REMSYN060AAXX  05151 01011 46/// /1106 11056 2//// 30185 40196 54002;
0101010110999992013010516004+80067+031500FM-12+001099999V0200901N008019999999N9999999N1-00521+99999101951ADDMA1999999101841MD1410001+9999REMSYN060AAXX  05161 01011 46/// /0908 11052 2//// 30184 40195 54001;
0101010110999992013010517004+80067+031500FM-12+001099999V0201101N008019999999N9999999N1-00461+99999101901ADDMA1999999101791MD1610051+9999REMSYN060AAXX  05171 01011 46/// /1108 11046 2//// 30179 40190 56005;
0130010110999992013010518004+80067+031500FM-12+001099999V0201301N008019999999N9999999N1-00521+99999101881ADDKA1120M-00461MA1999999101771MD1710071+9999REMSYN076AAXX  05181 01011 46/// /1308 11052 2//// 30177 40188 57007 333 11046 91109;
0101010110999992013010519004+80067+031500FM-12+001099999V0201301N009019999999N9999999N1-00441+99999101881ADDMA1999999101771MD1810071+9999REMSYN060AAXX  05191 01011 46/// /1309 11044 2//// 30177 40188 58007;
0101010110999992013010520004+80067+031500FM-12+001099999V0201301N010019999999N9999999N1-00371+99999101851ADDMA1999999101741MD1710051+9999REMSYN060AAXX  05201 01011 46/// /1310 11037 2//// 30174 40185 57005;
0101010110999992013010521004+80067+031500FM-12+001099999V0201201N009019999999N9999999N1-00461+99999101821ADDMA1999999101711MD1710071+9999REMSYN060AAXX  05211 01011 46/// /1209 11046 2//// 30171 40182 57007;
0101010110999992013010522004+80067+031500FM-12+001099999V0201301N011019999999N9999999N1-00401+99999101771ADDMA1999999101661MD1710111+9999REMSYN060AAXX  05221 01011 46/// /1311 11040 2//// 30166 40177 57011;
0101010110999992013010523004+80067+031500FM-12+001099999V0201301N012019999999N9999999N1-00441+99999101731ADDMA1999999101621MD1710121+9999REMSYN060AAXX  05231 01011 46/// /1312 11044 2//// 30162 40173 57012;
0111010110999992013010600004+80067+031500FM-12+001099999V0201201N012019999999N9999999N1-00471+99999101661ADDMA1999999101551MD1710161+9999REMSYN070AAXX  06001 01011 46/// /1212 11047 2//// 30155 40166 57016 333 91113;
0101010110999992013010601004+80067+031500FM-12+001099999V0201201N013019999999N9999999N1-00481+99999101601ADDMA1999999101491MD1710171+9999REMSYN060AAXX  06011 01011 46/// /1213 11048 2//// 30149 40160 57017;
0101010110999992013010602004+80067+031500FM-12+001099999V0201201N012019999999N9999999N1-00451+99999101541ADDMA1999999101431MD1710191+9999REMSYN060AAXX  06021 01011 46/// /1212 11045 2//// 30143 40154 57019;
0101010110999992013010603004+80067+031500FM-12+001099999V0201201N015019999999N9999999N1-00441+99999101441ADDMA1999999101331MD1610221+9999REMSYN060AAXX  06031 01011 46/// /1215 11044 2//// 30133 40144 56022;
0101010110999992013010604004+80067+031500FM-12+001099999V0201101N016019999999N9999999N1-00451+99999101301ADDMA1999999101191MD1610301+9999REMSYN060AAXX  06041 01011 46/// /1116 11045 2//// 30119 40130 56030;
0101010110999992013010605004+80067+031500FM-12+001099999V0201201N017019999999N9999999N1-00411+99999101171ADDMA1999999101061MD1710381+9999REMSYN060AAXX  06051 01011 46/// /1217 11041 2//// 30106 40117 57038;
0130010110999992013010606004+80067+031500FM-12+001099999V0201201N017019999999N9999999N1-00391+99999101081ADDKA1999N-00481MA1999999100971MD1810351+9999REMSYN076AAXX  06061 01011 46/// /1217 11039 2//// 30097 40108 58035 333 21048 91119;
0101010110999992013010607004+80067+031500FM-12+001099999V0201201N018019999999N9999999N1-00381+99999100991ADDMA1999999100881MD1810311+9999REMSYN060AAXX  06071 01011 46/// /1218 11038 2//// 30088 40099 58031;
0101010110999992013010608004+80067+031500FM-12+001099999V0201201N019019999999N9999999N1-00351+99999100881ADDMA1999999100781MD1710281+9999REMSYN060AAXX  06081 01011 46/// /1219 11035 2//// 30078 40088 57028;
0101010110999992013010609004+80067+031500FM-12+001099999V0201101N020019999999N9999999N1-00371+99999100781ADDMA1999999100671MD1710301+9999REMSYN060AAXX  06091 01011 46/// /1120 11037 2//// 30067 40078 57030;
0101010110999992013010610004+80067+031500FM-12+001099999V0201101N021019999999N9999999N1-00351+99999100721ADDMA1999999100611MD1810271+9999REMSYN060AAXX  06101 01011 46/// /1121 11035 2//// 30061 40072 58027;
0101010110999992013010611004+80067+031500FM-12+001099999V0201101N021019999999N9999999N1-00301+99999100631ADDMA1999999100521MD1710251+9999REMSYN060AAXX  06111 01011 46/// /1121 11030 2//// 30052 40063 57025;
0111010110999992013010612004+80067+031500FM-12+001099999V0201101N020019999999N9999999N1-00231+99999100501ADDMA1999999100391MD1610281+9999REMSYN070AAXX  06121 01011 46/// /1120 11023 2//// 30039 40050 56028 333 91123;
0101010110999992013010613004+80067+031500FM-12+001099999V0201101N021019999999N9999999N1-00201+99999100361ADDMA1999999100251MD1610361+9999REMSYN060AAXX  06131 01011 46/// /1121 11020 2//// 30025 40036 56036;
0101010110999992013010614004+80067+031500FM-12+001099999V0201101N021019999999N9999999N1-00191+99999100281ADDMA1999999100181MD1810351+9999REMSYN060AAXX  06141 01011 46/// /1121 11019 2//// 30018 40028 58035;
0101010110999992013010615004+80067+031500FM-12+001099999V0201101N020019999999N9999999N1-00181+99999100211ADDMA1999999100101MD1810291+9999REMSYN060AAXX  06151 01011 46/// /1120 11018 2//// 30010 40021 58029;
0101010110999992013010616004+80067+031500FM-12+001099999V0201101N021019999999N9999999N1-00171+99999100131ADDMA1999999100031MD1710231+9999REMSYN060AAXX  06161 01011 46/// /1121 11017 2//// 30003 40013 57023;
0101010110999992013010617004+80067+031500FM-12+001099999V0201101N022019999999N9999999N1-00151+99999100051ADDMA1999999099951MD1710231+9999REMSYN060AAXX  06171 01011 46/// /1122 11015 2//// 39995 40005 57023;
0130010110999992013010618004+80067+031500FM-12+001099999V0201101N021019999999N9999999N1-00151+99999099971ADDKA1120M-00151MA1999999099861MD1710241+9999REMSYN076AAXX  06181 01011 46/// /1121 11015 2//// 39986 49997 57024 333 11015 91124;
0101010110999992013010619004+80067+031500FM-12+001099999V0201101N022019999999N9999999N1-00111+99999099901ADDMA1999999099801MD1710231+9999REMSYN060AAXX  06191 01011 46/// /1122 11011 2//// 39980 49990 57023;
0101010110999992013010620004+80067+031500FM-12+001099999V0201101N021019999999N9999999N1-00101+99999099791ADDMA1999999099681MD1710261+9999REMSYN060AAXX  06201 01011 46/// /1121 11010 2//// 39968 49979 57026;
0101010110999992013010621004+80067+031500FM-12+001099999V0201101N022019999999N9999999N1-00091+99999099721ADDMA1999999099611MD1710251+9999REMSYN060AAXX  06211 01011 46/// /1122 11009 2//// 39961 49972 57025;
0101010110999992013010622004+80067+031500FM-12+001099999V0201101N021019999999N9999999N1-00081+99999099631ADDMA1999999099521MD1710271+9999REMSYN060AAXX  06221 01011 46/// /1121 11008 2//// 39952 49963 57027;
0101010110999992013010623004+80067+031500FM-12+001099999V0201101N022019999999N9999999N1-00091+99999099551ADDMA1999999099451MD1710241+9999REMSYN060AAXX  06231 01011 46/// /1122 11009 2//// 39945 49955 57024;
0111010110999992013010700004+80067+031500FM-12+001099999V0201201N019019999999N9999999N1-00091+99999099501ADDMA1999999099401MD1810221+9999REMSYN070AAXX  07001 01011 46/// /1219 11009 2//// 39940 49950 58022 333 91124;
0101010110999992013010701004+80067+031500FM-12+001099999V0201201N020019999999N9999999N1-00101+99999099461ADDMA1999999099351MD1710171+9999REMSYN060AAXX  07011 01011 46/// /1220 11010 2//// 39935 49946 57017;
0101010110999992013010703004+80067+031500FM-12+001099999V0201201N020019999999N9999999N1-00091+99999099301ADDMA1999999099191MD1610201+9999REMSYN060AAXX  07031 01011 46/// /1220 11009 2//// 39919 49930 56020;
0101010110999992013010704004+80067+031500FM-12+001099999V0201201N019019999999N9999999N1-00081+99999099241ADDMA1999999099131MD1710221+9999REMSYN060AAXX  07041 01011 46/// /1219 11008 2//// 39913 49924 57022;
0101010110999992013010705004+80067+031500FM-12+001099999V0201201N018019999999N9999999N1-00091+99999099191ADDMA1999999099081MD1810211+9999REMSYN060AAXX  07051 01011 46/// /1218 11009 2//// 39908 49919 58021;
0101010110999992013010706004+80067+031500FM-12+001099999V0201201N016019999999N9999999N1-00091+99999099171ADDMA1999999099071MD1810121+9999REMSYN060AAXX  07061 01011 46/// /1216 11009 2//// 39907 49917 58012;
0101010110999992013010707004+80067+031500FM-12+001099999V0201101N016019999999N9999999N1-00091+99999099121ADDMA1999999099011MD1710121+9999REMSYN060AAXX  07071 01011 46/// /1116 11009 2//// 39901 49912 57012;
0101010110999992013010708004+80067+031500FM-12+001099999V0201101N015019999999N9999999N1-00091+99999099091ADDMA1999999098981MD1710101+9999REMSYN060AAXX  07081 01011 46/// /1115 11009 2//// 39898 49909 57010;
0101010110999992013010709004+80067+031500FM-12+001099999V0201201N013019999999N9999999N1-00101+99999099081ADDMA1999999098971MD1810101+9999REMSYN060AAXX  07091 01011 46/// /1213 11010 2//// 39897 49908 58010;
0101010110999992013010710004+80067+031500FM-12+001099999V0201201N009019999999N9999999N1-00121+99999099121ADDMA1999999099011MD1010001+9999REMSYN060AAXX  07101 01011 46/// /1209 11012 2//// 39901 49912 50000;
0101010110999992013010711004+80067+031500FM-12+001099999V0201801N005019999999N9999999N1-00151+99999099191ADDMA1999999099081MD1110091+9999REMSYN060AAXX  07111 01011 46/// /1805 11015 2//// 39908 49919 51009;
0111010110999992013010712004+80067+031500FM-12+001099999V0201101N001019999999N9999999N1-00201+99999099251ADDMA1999999099141MD1210171+9999REMSYN070AAXX  07121 01011 46/// /1101 11020 2//// 39914 49925 52017 333 91117;
0101010110999992013010713004+80067+031500FM-12+001099999V0202001N002019999999N9999999N1-00121+99999099301ADDMA1999999099191MD1210181+9999REMSYN060AAXX  07131 01011 46/// /2002 11012 2//// 39919 49930 52018;
0101010110999992013010714004+80067+031500FM-12+001099999V0201201N002019999999N9999999N1-00141+99999099351ADDMA1999999099241MD1210161+9999REMSYN060AAXX  07141 01011 46/// /1202 11014 2//// 39924 49935 52016;
0101010110999992013010715004+80067+031500FM-12+001099999V0201101N002019999999N9999999N1-00151+99999099371ADDMA1999999099261MD1210121+9999REMSYN060AAXX  07151 01011 46/// /1102 11015 2//// 39926 49937 52012;
0101010110999992013010716004+80067+031500FM-12+001099999V0201101N004019999999N9999999N1-00161+99999099401ADDMA1999999099301MD1210111+9999REMSYN060AAXX  07161 01011 46/// /1104 11016 2//// 39930 49940 52011;
0101010110999992013010717004+80067+031500FM-12+001099999V0201701N003019999999N9999999N1-00171+99999099431ADDMA1999999099321MD1210081+9999REMSYN060AAXX  07171 01011 46/// /1703 11017 2//// 39932 49943 52008;
0130010110999992013010718004+80067+031500FM-12+001099999V0201101N004019999999N9999999N1-00231+99999099421ADDKA1120M-00091MA1999999099321MD1310051+9999REMSYN076AAXX  07181 01011 46/// /1104 11023 2//// 39932 49942 53005 333 11009 91104;
0101010110999992013010719004+80067+031500FM-12+001099999V0201201N006019999999N9999999N1-00241+99999099441ADDMA1999999099341MD1210041+9999REMSYN060AAXX  07191 01011 46/// /1206 11024 2//// 39934 49944 52004;
0101010110999992013010720004+80067+031500FM-12+001099999V0201101N004019999999N9999999N1-00281+99999099461ADDMA1999999099361MD1210041+9999REMSYN060AAXX  07201 01011 46/// /1104 11028 2//// 39936 49946 52004;
0101010110999992013010721004+80067+031500FM-12+001099999V0201001N005019999999N9999999N1-00291+99999099461ADDMA1999999099361MD1210041+9999REMSYN060AAXX  07211 01011 46/// /1005 11029 2//// 39936 49946 52004;
0101010110999992013010722004+80067+031500FM-12+001099999V0201001N006019999999N9999999N1-00271+99999099461ADDMA1999999099351MD1410001+9999REMSYN060AAXX  07221 01011 46/// /1006 11027 2//// 39935 49946 54002;
0101010110999992013010723004+80067+031500FM-12+001099999V0201001N006019999999N9999999N1-00281+99999099451ADDMA1999999099341MD1410001+9999REMSYN060AAXX  07231 01011 46/// /1006 11028 2//// 39934 49945 54001;
0111010110999992013010800004+80067+031500FM-12+001099999V0201001N007019999999N9999999N1-00281+99999099451ADDMA1999999099341MD1410001+9999REMSYN070AAXX  08001 01011 46/// /1007 11028 2//// 39934 49945 54002 333 91107;
0101010110999992013010801004+80067+031500FM-12+001099999V0201201N005019999999N9999999N1-00211+99999099491ADDMA1999999099391MD1110031+9999REMSYN060AAXX  08011 01011 46/// /1205 11021 2//// 39939 49949 51003;
0101010110999992013010802004+80067+031500FM-12+001099999V0201501N002019999999N9999999N1-00281+99999099541ADDMA1999999099431MD1110091+9999REMSYN060AAXX  08021 01011 46/// /1502 11028 2//// 39943 49954 51009;
0101010110999992013010804004+80067+031500FM-12+001099999V0201301N004019999999N9999999N1-00481+99999099541ADDMA1999999099441MD1310051+9999REMSYN060AAXX  08041 01011 46/// /1304 11048 2//// 39944 49954 53005;
0101010110999992013010805004+80067+031500FM-12+001099999V0201201N006019999999N9999999N1-00501+99999099521ADDMA1999999099421MD1410001+9999REMSYN060AAXX  08051 01011 46/// /1206 11050 2//// 39942 49952 54002;
0101010110999992013010806004+80067+031500FM-12+001099999V0201101N007019999999N9999999N1-00511+99999099551ADDMA1999999099441MD1410001+9999REMSYN060AAXX  08061 01011 46/// /1107 11051 2//// 39944 49955 54000;
0101010110999992013010807004+80067+031500FM-12+001099999V0200901N006019999999N9999999N1-00421+99999099571ADDMA1999999099461MD1010031+9999REMSYN060AAXX  08071 01011 46/// /0906 11042 2//// 39946 49957 50003;
0101010110999992013010808004+80067+031500FM-12+001099999V0200901N007019999999N9999999N1-00441+99999099601ADDMA1999999099501MD1210081+9999REMSYN060AAXX  08081 01011 46/// /0907 11044 2//// 39950 49960 52008;
0101010110999992013010809004+80067+031500FM-12+001099999V0201101N004019999999N9999999N1-00471+99999099681ADDMA1999999099571MD1110131+9999REMSYN060AAXX  08091 01011 46/// /1104 11047 2//// 39957 49968 51013;
0101010110999992013010810004+80067+031500FM-12+001099999V0203601N002019999999N9999999N1-00461+99999099771ADDMA1999999099661MD1110201+9999REMSYN060AAXX  08101 01011 46/// /3602 11046 2//// 39966 49977 51020;
0101010110999992013010811004+80067+031500FM-12+001099999V0203601N003019999999N9999999N1-00511+99999099821ADDMA1999999099711MD1210211+9999REMSYN060AAXX  08111 01011 46/// /3603 11051 2//// 39971 49982 52021;
0111010110999992013010812004+80067+031500FM-12+001099999V0203001N010019999999N9999999N1-00281+99999099871ADDMA1999999099761MD1310191+9999REMSYN070AAXX  08121 01011 46/// /3010 11028 2//// 39976 49987 53019 333 91111;
0101010110999992013010813004+80067+031500FM-12+001099999V0203001N011019999999N9999999N1-00301+99999099951ADDMA1999999099841MD1110181+9999REMSYN060AAXX  08131 01011 46/// /3011 11030 2//// 39984 49995 51018;
0101010110999992013010814004+80067+031500FM-12+001099999V0203001N011019999999N9999999N1-00341+99999100031ADDMA1999999099931MD1110221+9999REMSYN060AAXX  08141 01011 46/// /3011 11034 2//// 39993 40003 51022;
0101010110999992013010815004+80067+031500FM-12+001099999V0202901N011019999999N9999999N1-00371+99999100101ADDMA1999999099991MD1210231+9999REMSYN060AAXX  08151 01011 46/// /2911 11037 2//// 39999 40010 52023;
0101010110999992013010816004+80067+031500FM-12+001099999V0203001N011019999999N9999999N1-00371+99999100161ADDMA1999999100051MD1210211+9999REMSYN060AAXX  08161 01011 46/// /3011 11037 2//// 30005 40016 52021;
0101010110999992013010817004+80067+031500FM-12+001099999V0203001N012019999999N9999999N1-00391+99999100201ADDMA1999999100091MD1210161+9999REMSYN060AAXX  08171 01011 46/// /3012 11039 2//// 30009 40020 52016;
0130010110999992013010818004+80067+031500FM-12+001099999V0202901N011019999999N9999999N1-00381+99999100261ADDKA1120M-00281MA1999999100151MD1210161+9999REMSYN076AAXX  08181 01011 46/// /2911 11038 2//// 30015 40026 52016 333 11028 91113;
0101010110999992013010819004+80067+031500FM-12+001099999V0202901N011019999999N9999999N1-00401+99999100331ADDMA1999999100221MD1210161+9999REMSYN060AAXX  08191 01011 46/// /2911 11040 2//// 30022 40033 52016;
0101010110999992013010821004+80067+031500FM-12+001099999V0202901N011019999999N9999999N1-00401+99999100451ADDMA1999999100351MD1210201+9999REMSYN060AAXX  08211 01011 46/// /2911 11040 2//// 30035 40045 52020;
0101010110999992013010823004+80067+031500FM-12+001099999V0203001N011019999999N9999999N1-00421+99999100571ADDMA1999999100461MD1210181+9999REMSYN060AAXX  08231 01011 46/// /3011 11042 2//// 30046 40057 52018;
0111010110999992013010900004+80067+031500FM-12+001099999V0203001N010019999999N9999999N1-00511+99999100641ADDMA1999999100531MD1210181+9999REMSYN070AAXX  09001 01011 46/// /3010 11051 2//// 30053 40064 52018 333 91112;
0101010110999992013010901004+80067+031500FM-12+001099999V0203101N011019999999N9999999N1-00521+99999100681ADDMA1999999100571MD1210161+9999REMSYN060AAXX  09011 01011 46/// /3111 11052 2//// 30057 40068 52016;
0101010110999992013010902004+80067+031500FM-12+001099999V0203101N010019999999N9999999N1-00511+99999100741ADDMA1999999100631MD1210161+9999REMSYN060AAXX  09021 01011 46/// /3110 11051 2//// 30063 40074 52016;
0101010110999992013010903004+80067+031500FM-12+001099999V0203001N011019999999N9999999N1-00501+99999100771ADDMA1999999100661MD1210141+9999REMSYN060AAXX  09031 01011 46/// /3011 11050 2//// 30066 40077 52014;
0101010110999992013010904004+80067+031500FM-12+001099999V0203101N013019999999N9999999N1-00541+99999100801ADDMA1999999100701MD1210121+9999REMSYN060AAXX  09041 01011 46/// /3113 11054 2//// 30070 40080 52012;
0101010110999992013010905004+80067+031500FM-12+001099999V0203001N013019999999N9999999N1-00561+99999100841ADDMA1999999100731MD1210101+9999REMSYN060AAXX  09051 01011 46/// /3013 11056 2//// 30073 40084 52010;
0130010110999992013010906004+80067+031500FM-12+001099999V0203001N009019999999N9999999N1-00591+99999100921ADDKA1999N-00591MA1999999100811MD1110151+9999REMSYN076AAXX  09061 01011 46/// /3009 11059 2//// 30081 40092 51015 333 21059 91113;
0101010110999992013010907004+80067+031500FM-12+001099999V0202901N009019999999N9999999N1-00581+99999100991ADDMA1999999100881MD1110181+9999REMSYN060AAXX  09071 01011 46/// /2909 11058 2//// 30088 40099 51018;
0101010110999992013010908004+80067+031500FM-12+001099999V0202901N008019999999N9999999N1-00591+99999101031ADDMA1999999100921MD1310191+9999REMSYN060AAXX  09081 01011 46/// /2908 11059 2//// 30092 40103 53019;
0101010110999992013010909004+80067+031500FM-12+001099999V0203001N007019999999N9999999N1-00611+99999101081ADDMA1999999100971MD1210161+9999REMSYN060AAXX  09091 01011 46/// /3007 11061 2//// 30097 40108 52016;
0101010110999992013010910004+80067+031500FM-12+001099999V0202901N007019999999N9999999N1-00611+99999101121ADDMA1999999101011MD1210131+9999REMSYN060AAXX  09101 01011 46/// /2907 11061 2//// 30101 40112 52013;
0101010110999992013010911004+80067+031500FM-12+001099999V0203001N006019999999N9999999N1-00611+99999101131ADDMA1999999101021MD1310101+9999REMSYN060AAXX  09111 01011 46/// /3006 11061 2//// 30102 40113 53010;
0111010110999992013010912004+80067+031500FM-12+001099999V0203101N005019999999N9999999N1-00641+99999101171ADDMA1999999101061MD1210091+9999REMSYN070AAXX  09121 01011 46/// /3105 11064 2//// 30106 40117 52009 333 91111;
0101010110999992013010913004+80067+031500FM-12+001099999V0203101N006019999999N9999999N1-00641+99999101171ADDMA1999999101061MD1210051+9999REMSYN060AAXX  09131 01011 46/// /3106 11064 2//// 30106 40117 52005;
0101010110999992013010914004+80067+031500FM-12+001099999V0203001N007019999999N9999999N1-00641+99999101181ADDMA1999999101071MD1210051+9999REMSYN060AAXX  09141 01011 46/// /3007 11064 2//// 30107 40118 52005;
0101010110999992013010915004+80067+031500FM-12+001099999V0202801N005019999999N9999999N1-00661+99999101201ADDMA1999999101091MD1410001+9999REMSYN060AAXX  09151 01011 46/// /2805 11066 2//// 30109 40120 54003;
0101010110999992013010916004+80067+031500FM-12+001099999V0202901N003019999999N9999999N1-00651+99999101181ADDMA1999999101071MD1510011+9999REMSYN060AAXX  09161 01011 46/// /2903 11065 2//// 30107 40118 55001;
0101010110999992013010917004+80067+031500FM-12+001099999V0202201N003019999999N9999999N1-00641+99999101141ADDMA1999999101031MD1610041+9999REMSYN060AAXX  09171 01011 46/// /2203 11064 2//// 30103 40114 56004;
0130010110999992013010918004+80067+031500FM-12+001099999V0201901N002019999999N9999999N1-00641+99999101101ADDKA1120M-00581MA1999999100991MD1710101+9999REMSYN076AAXX  09181 01011 46/// /1902 11064 2//// 30099 40110 57010 333 11058 91107;
0101010110999992013010919004+80067+031500FM-12+001099999V0201501N003019999999N9999999N1-00701+99999101071ADDMA1999999100961MD1710111+9999REMSYN060AAXX  09191 01011 46/// /1503 11070 2//// 30096 40107 57011;
0101010110999992013010920004+80067+031500FM-12+001099999V0201501N005019999999N9999999N1-00611+99999101021ADDMA1999999100911MD1710121+9999REMSYN060AAXX  09201 01011 46/// /1505 11061 2//// 30091 40102 57012;
0101010110999992013010921004+80067+031500FM-12+001099999V0201801N004019999999N9999999N1-00571+99999101041ADDMA1999999100931MD1810061+9999REMSYN060AAXX  09211 01011 46/// /1804 11057 2//// 30093 40104 58006;
0101010110999992013010922004+80067+031500FM-12+001099999V0201901N004019999999N9999999N1-00581+99999101031ADDMA1999999100921MD1710041+9999REMSYN060AAXX  09221 01011 46/// /1904 11058 2//// 30092 40103 57004;
0101010110999992013010923004+80067+031500FM-12+001099999V0201801N004019999999N9999999N1-00551+99999101001ADDMA1999999100891MD1510021+9999REMSYN060AAXX  09231 01011 46/// /1804 11055 2//// 30089 40100 55002;
0111010110999992013011000004+80067+031500FM-12+001099999V0201701N004019999999N9999999N1-00511+99999100971ADDMA1999999100861MD1710071+9999REMSYN070AAXX  10001 01011 46/// /1704 11051 2//// 30086 40097 57007 333 91105;
0101010110999992013011001004+80067+031500FM-12+001099999V0201701N003019999999N9999999N1-00471+99999100941ADDMA1999999100831MD1710091+9999REMSYN060AAXX  10011 01011 46/// /1703 11047 2//// 30083 40094 57009;
0101010110999992013011002004+80067+031500FM-12+001099999V0201401N003019999999N9999999N1-00411+99999100881ADDMA1999999100771MD1610121+9999REMSYN060AAXX  10021 01011 46/// /1403 11041 2//// 30077 40088 56012;
0101010110999992013011003004+80067+031500FM-12+001099999V0202201N004019999999N9999999N1-00281+99999100871ADDMA1999999100761MD1710101+9999REMSYN060AAXX  10031 01011 46/// /2204 11028 2//// 30076 40087 57010;
0101010110999992013011004004+80067+031500FM-12+001099999V0202401N006019999999N9999999N1-00221+99999100811ADDMA1999999100701MD1710131+9999REMSYN060AAXX  10041 01011 46/// /2406 11022 2//// 30070 40081 57013;
0101010110999992013011005004+80067+031500FM-12+001099999V0202401N006019999999N9999999N1-00211+99999100751ADDMA1999999100651MD1610121+9999REMSYN060AAXX  10051 01011 46/// /2406 11021 2//// 30065 40075 56012;
0130010110999992013011006004+80067+031500FM-12+001099999V0202401N006019999999N9999999N1-00221+99999100731ADDKA1999N-00701MA1999999100631MD1810131+9999REMSYN076AAXX  10061 01011 46/// /2406 11022 2//// 30063 40073 58013 333 21070 91107;
0101010110999992013011007004+80067+031500FM-12+001099999V0202401N006019999999N9999999N1-00221+99999100671ADDMA1999999100561MD1710141+9999REMSYN060AAXX  10071 01011 46/// /2406 11022 2//// 30056 40067 57014;
0101010110999992013011008004+80067+031500FM-12+001099999V0202301N005019999999N9999999N1-00221+99999100611ADDMA1999999100501MD1610151+9999REMSYN060AAXX  10081 01011 46/// /2305 11022 2//// 30050 40061 56015;
0101010110999992013011009004+80067+031500FM-12+001099999V0202301N006019999999N9999999N1-00201+99999100571ADDMA1999999100461MD1710161+9999REMSYN060AAXX  10091 01011 46/// /2306 11020 2//// 30046 40057 57016;
0101010110999992013011010004+80067+031500FM-12+001099999V0202301N006019999999N9999999N1-00201+99999100551ADDMA1999999100441MD1810121+9999REMSYN060AAXX  10101 01011 46/// /2306 11020 2//// 30044 40055 58012;
0101010110999992013011011004+80067+031500FM-12+001099999V0202201N006019999999N9999999N1-00221+99999100421ADDMA1999999100311MD1610191+9999REMSYN060AAXX  10111 01011 46/// /2206 11022 2//// 30031 40042 56019;
0111010110999992013011012004+80067+031500FM-12+001099999V0202101N007019999999N9999999N1-00211+99999100291ADDMA1999999100181MD1610281+9999REMSYN070AAXX  10121 01011 46/// /2107 11021 2//// 30018 40029 56028 333 91107;
0101010110999992013011013004+80067+031500FM-12+001099999V0202201N008019999999N9999999N1-00221+99999100211ADDMA1999999100101MD1810341+9999REMSYN060AAXX  10131 01011 46/// /2208 11022 2//// 30010 40021 58034;
0101010110999992013011014004+80067+031500FM-12+001099999V0202201N008019999999N9999999N1-00191+99999100091ADDMA1999999099981MD1710321+9999REMSYN060AAXX  10141 01011 46/// /2208 11019 2//// 39998 40009 57032;
0101010110999992013011015004+80067+031500FM-12+001099999V0202601N007019999999N9999999N1-00241+99999100011ADDMA1999999099901MD1710281+9999REMSYN060AAXX  10151 01011 46/// /2607 11024 2//// 39990 40001 57028;
0101010110999992013011016004+80067+031500FM-12+001099999V0202601N008019999999N9999999N1-00241+99999099931ADDMA1999999099821MD1810281+9999REMSYN060AAXX  10161 01011 46/// /2608 11024 2//// 39982 49993 58028;
0101010110999992013011017004+80067+031500FM-12+001099999V0202801N009019999999N9999999N1-00271+99999099841ADDMA1999999099741MD1710251+9999REMSYN060AAXX  10171 01011 46/// /2809 11027 2//// 39974 49984 57025;
0130010110999992013011018004+80067+031500FM-12+001099999V0203001N009019999999N9999999N1-00281+99999099811ADDKA1120M-00191MA1999999099701MD1810201+9999REMSYN076AAXX  10181 01011 46/// /3009 11028 2//// 39970 49981 58020 333 11019 91109;
0101010110999992013011019004+80067+031500FM-12+001099999V0202801N007019999999N9999999N1-00311+99999099761ADDMA1999999099651MD1810171+9999REMSYN060AAXX  10191 01011 46/// /2807 11031 2//// 39965 49976 58017;
0101010110999992013011020004+80067+031500FM-12+001099999V0202801N005019999999N9999999N1-00321+99999099721ADDMA1999999099621MD1710121+9999REMSYN060AAXX  10201 01011 46/// /2805 11032 2//// 39962 49972 57012;
0101010110999992013011021004+80067+031500FM-12+001099999V0202701N003019999999N9999999N1-00321+99999099671ADDMA1999999099571MD1710131+9999REMSYN060AAXX  10211 01011 46/// /2703 11032 2//// 39957 49967 57013;
0101010110999992013011022004+80067+031500FM-12+001099999V0203201N002019999999N9999999N1-00351+99999099581ADDMA1999999099471MD1610181+9999REMSYN060AAXX  10221 01011 46/// /3202 11035 2//// 39947 49958 56018;
0101010110999992013011023004+80067+031500FM-12+001099999V0200601N002019999999N9999999N1-00381+99999099431ADDMA1999999099321MD1610291+9999REMSYN060AAXX  10231 01011 46/// /0602 11038 2//// 39932 49943 56029;
0111010110999992013011100004+80067+031500FM-12+001099999V0200701N008019999999N9999999N1-00441+99999099311ADDMA1999999099201MD1710361+9999REMSYN070AAXX  11001 01011 46/// /0708 11044 2//// 39920 49931 57036 333 91108;
0101010110999992013011102004+80067+031500FM-12+001099999V0200701N013019999999N9999999N1-00501+99999098991ADDMA1999999098891MD1610441+9999REMSYN060AAXX  11021 01011 46/// /0713 11050 2//// 39889 49899 56044;
0101010110999992013011104004+80067+031500FM-12+001099999V0200801N014019999999N9999999N1-00471+99999098761ADDMA1999999098651MD1710391+9999REMSYN060AAXX  11041 01011 46/// /0814 11047 2//// 39865 49876 57039;
0101010110999992013011105004+80067+031500FM-12+001099999V0200801N013019999999N9999999N1-00461+99999098711ADDMA1999999098601MD1710281+9999REMSYN060AAXX  11051 01011 46/// /0813 11046 2//// 39860 49871 57028;
0101010110999992013011106004+80067+031500FM-12+001099999V0200801N012019999999N9999999N1-00441+99999098701ADDMA1999999098591MD1810221+9999REMSYN060AAXX  11061 01011 46/// /0812 11044 2//// 39859 49870 58022;
0101010110999992013011107004+80067+031500FM-12+001099999V0200901N010019999999N9999999N1-00401+99999098761ADDMA1999999098651MD1010001+9999REMSYN060AAXX  11071 01011 46/// /0910 11040 2//// 39865 49876 50000;
0101010110999992013011108004+80067+031500FM-12+001099999V0201001N007019999999N9999999N1-00421+99999098811ADDMA1999999098701MD1110101+9999REMSYN060AAXX  11081 01011 46/// /1007 11042 2//// 39870 49881 51010;
0101010110999992013011109004+80067+031500FM-12+001099999V0201001N004019999999N9999999N1-00411+99999098871ADDMA1999999098771MD1210181+9999REMSYN060AAXX  11091 01011 46/// /1004 11041 2//// 39877 49887 52018;
0101010110999992013011110004+80067+031500FM-12+001099999V0202801N011019999999N9999999N1-00491+99999098951ADDMA1999999098841MD1210191+9999REMSYN060AAXX  11101 01011 46/// /2811 11049 2//// 39884 49895 52019;
0101010110999992013011111004+80067+031500FM-12+001099999V0203001N009019999999N9999999N1-00551+99999099031ADDMA1999999098921MD1210221+9999REMSYN060AAXX  11111 01011 46/// /3009 11055 2//// 39892 49903 52022;
0111010110999992013011112004+80067+031500FM-12+001099999V0202901N010019999999N9999999N1-00621+99999099091ADDMA1999999098981MD1210211+9999REMSYN070AAXX  11121 01011 46/// /2910 11062 2//// 39898 49909 52021 333 91113;
0101010110999992013011113004+80067+031500FM-12+001099999V0203001N007019999999N9999999N1-00651+99999099131ADDMA1999999099021MD1310181+9999REMSYN060AAXX  11131 01011 46/// /3007 11065 2//// 39902 49913 53018;
0101010110999992013011114004+80067+031500FM-12+001099999V0203101N007019999999N9999999N1-00651+99999099151ADDMA1999999099041MD1310121+9999REMSYN060AAXX  11141 01011 46/// /3107 11065 2//// 39904 49915 53012;
0101010110999992013011115004+80067+031500FM-12+001099999V0203101N005019999999N9999999N1-00691+99999099231ADDMA1999999099121MD1110141+9999REMSYN060AAXX  11151 01011 46/// /3105 11069 2//// 39912 49923 51014;
0101010110999992013011116004+80067+031500FM-12+001099999V0200601N011019999999N9999999N1-00811+99999099281ADDMA1999999099171MD1210151+9999REMSYN060AAXX  11161 01011 46/// /0611 11081 2//// 39917 49928 52015;
0101010110999992013011117004+80067+031500FM-12+001099999V0200601N012019999999N9999999N1-00931+99999099341ADDMA1999999099231MD1210191+9999REMSYN060AAXX  11171 01011 46/// /0612 11093 2//// 39923 49934 52019;
0130010110999992013011118004+80067+031500FM-12+001099999V0200401N013019999999N9999999N1-01071+99999099501ADDKA1120M-00391MA1999999099391MD1110271+9999REMSYN076AAXX  11181 01011 46/// /0413 11107 2//// 39939 49950 51027 333 11039 91113;
0101010110999992013011119004+80067+031500FM-12+001099999V0200501N012019999999N9999999N1-01121+99999099631ADDMA1999999099521MD1110351+9999REMSYN060AAXX  11191 01011 46/// /0512 11112 2//// 39952 49963 51035;
0101010110999992013011120004+80067+031500FM-12+001099999V0200401N011019999999N9999999N1-01281+99999099801ADDMA1999999099691MD1210451+9999REMSYN060AAXX  11201 01011 46/// /0411 11128 2//// 39969 49980 52045;
0101010110999992013011121004+80067+031500FM-12+001099999V0200201N008019999999N9999999N1-01341+99999099981ADDMA1999999099871MD1110481+9999REMSYN060AAXX  11211 01011 46/// /0208 11134 2//// 39987 49998 51048;
0101010110999992013011122004+80067+031500FM-12+001099999V0200101N008019999999N9999999N1-01171+99999100111ADDMA1999999100001MD1310481+9999REMSYN060AAXX  11221 01011 46/// /0108 11117 2//// 30000 40011 53048;
0101010110999992013011123004+80067+031500FM-12+001099999V0203601N008019999999N9999999N1-01191+99999100201ADDMA1999999100091MD1310401+9999REMSYN060AAXX  11231 01011 46/// /3608 11119 2//// 30009 40020 53040;
0111010110999992013011200004+80067+031500FM-12+001099999V0203401N010019999999N9999999N1-01121+99999100231ADDMA1999999100111MD1310241+9999REMSYN070AAXX  12001 01011 46/// /3410 11112 2//// 30011 40023 53024 333 91112;
0101010110999992013011201004+80067+031500FM-12+001099999V0203401N009019999999N9999999N1-01061+99999100281ADDMA1999999100171MD1310161+9999REMSYN060AAXX  12011 01011 46/// /3409 11106 2//// 30017 40028 53016;
0101010110999992013011202004+80067+031500FM-12+001099999V0203401N012019999999N9999999N1-00951+99999100301ADDMA1999999100191MD1210101+9999REMSYN060AAXX  12021 01011 46/// /3412 11095 2//// 30019 40030 52010;
0101010110999992013011203004+80067+031500FM-12+001099999V0203301N013019999999N9999999N1-00961+99999100361ADDMA1999999100251MD1210131+9999REMSYN060AAXX  12031 01011 46/// /3313 11096 2//// 30025 40036 52013;
0101010110999992013011204004+80067+031500FM-12+001099999V0203301N015019999999N9999999N1-00951+99999100401ADDMA1999999100291MD1210131+9999REMSYN060AAXX  12041 01011 46/// /3315 11095 2//// 30029 40040 52013;
0101010110999992013011205004+80067+031500FM-12+001099999V0203301N015019999999N9999999N1-00981+99999100451ADDMA1999999100341MD1210151+9999REMSYN060AAXX  12051 01011 46/// /3315 11098 2//// 30034 40045 52015;
0130010110999992013011206004+80067+031500FM-12+001099999V0203301N015019999999N9999999N1-00991+99999100481ADDKA1999N-01351MA1999999100371MD1210121+9999REMSYN076AAXX  12061 01011 46/// /3315 11099 2//// 30037 40048 52012 333 21135 91116;
0101010110999992013011207004+80067+031500FM-12+001099999V0203201N017019999999N9999999N1-00951+99999100511ADDMA1999999100401MD1210111+9999REMSYN060AAXX  12071 01011 46/// /3217 11095 2//// 30040 40051 52011;
0101010110999992013011208004+80067+031500FM-12+001099999V0203201N016019999999N9999999N1-00921+99999100551ADDMA1999999100441MD1210111+9999REMSYN060AAXX  12081 01011 46/// /3216 11092 2//// 30044 40055 52011;
0101010110999992013011209004+80067+031500FM-12+001099999V0203101N016019999999N9999999N1-00921+99999100571ADDMA1999999100461MD1210091+9999REMSYN060AAXX  12091 01011 46/// /3116 11092 2//// 30046 40057 52009;
0101010110999992013011210004+80067+031500FM-12+001099999V0203201N020019999999N9999999N1-00891+99999100551ADDMA1999999100441MD1310031+9999REMSYN060AAXX  12101 01011 46/// /3220 11089 2//// 30044 40055 53003;
0101010110999992013011211004+80067+031500FM-12+001099999V0203101N020019999999N9999999N1-00871+99999100521ADDMA1999999100411MD1610041+9999REMSYN060AAXX  12111 01011 46/// /3120 11087 2//// 30041 40052 56004;
0111010110999992013011212004+80067+031500FM-12+001099999V0203101N019019999999N9999999N1-00881+99999100541ADDMA1999999100431MD1010031+9999REMSYN070AAXX  12121 01011 46/// /3119 11088 2//// 30043 40054 50003 333 91122;
0101010110999992013011213004+80067+031500FM-12+001099999V0203101N019019999999N9999999N1-00931+99999100571ADDMA1999999100461MD1010031+9999REMSYN060AAXX  12131 01011 46/// /3119 11093 2//// 30046 40057 50003;
0101010110999992013011214004+80067+031500FM-12+001099999V0203101N020019999999N9999999N1-00911+99999100551ADDMA1999999100441MD1310041+9999REMSYN060AAXX  12141 01011 46/// /3120 11091 2//// 30044 40055 53004;
0101010110999992013011215004+80067+031500FM-12+001099999V0203101N020019999999N9999999N1-00921+99999100591ADDMA1999999100481MD1210051+9999REMSYN060AAXX  12151 01011 46/// /3120 11092 2//// 30048 40059 52005;
0101010110999992013011216004+80067+031500FM-12+001099999V0203101N021019999999N9999999N1-01021+99999100611ADDMA1999999100501MD1110041+9999REMSYN060AAXX  12161 01011 46/// /3121 11102 2//// 30050 40061 51004;
0101010110999992013011217004+80067+031500FM-12+001099999V0203201N021019999999N9999999N1-01021+99999100641ADDMA1999999100531MD1210091+9999REMSYN060AAXX  12171 01011 46/// /3221 11102 2//// 30053 40064 52009;
0130010110999992013011218004+80067+031500FM-12+001099999V0203201N016019999999N9999999N1-01061+99999100691ADDKA1120M-00871MA1999999100571MD1210091+9999REMSYN076AAXX  12181 01011 46/// /3216 11106 2//// 30057 40069 52009 333 11087 91123;
0101010110999992013011219004+80067+031500FM-12+001099999V0203201N020019999999N9999999N1-01081+99999100671ADDMA1999999100561MD1310061+9999REMSYN060AAXX  12191 01011 46/// /3220 11108 2//// 30056 40067 53006;
0101010110999992013011220004+80067+031500FM-12+001099999V0203201N020019999999N9999999N1-01121+99999100701ADDMA1999999100591MD1210061+9999REMSYN060AAXX  12201 01011 46/// /3220 11112 2//// 30059 40070 52006;
0101010110999992013011221004+80067+031500FM-12+001099999V0203101N018019999999N9999999N1-01061+99999100701ADDMA1999999100591MD1410001+9999REMSYN060AAXX  12211 01011 46/// /3118 11106 2//// 30059 40070 54001;
0101010110999992013011222004+80067+031500FM-12+001099999V0203201N018019999999N9999999N1-01101+99999100731ADDMA1999999100611MD1210061+9999REMSYN060AAXX  12221 01011 46/// /3218 11110 2//// 30061 40073 52006;
0101010110999992013011223004+80067+031500FM-12+001099999V0203101N022019999999N9999999N1-01041+99999100581ADDMA1999999100471MD1610121+9999REMSYN060AAXX  12231 01011 46/// /3122 11104 2//// 30047 40058 56012;
0111010110999992013011300004+80067+031500FM-12+001099999V0203101N018019999999N9999999N1-00991+99999100671ADDMA1999999100561MD1010021+9999REMSYN070AAXX  13001 01011 46/// /3118 11099 2//// 30056 40067 50002 333 91123;
0101010110999992013011301004+80067+031500FM-12+001099999V0203201N019019999999N9999999N1-00971+99999100691ADDMA1999999100581MD1810041+9999REMSYN060AAXX  13011 01011 46/// /3219 11097 2//// 30058 40069 58004;
0101010110999992013011303004+80067+031500FM-12+001099999V0203201N016019999999N9999999N1-00961+99999100811ADDMA1999999100701MD1110141+9999REMSYN060AAXX  13031 01011 46/// /3216 11096 2//// 30070 40081 51014;
0101010110999992013011304004+80067+031500FM-12+001099999V0203201N016019999999N9999999N1-00931+99999100901ADDMA1999999100791MD1110211+9999REMSYN060AAXX  13041 01011 46/// /3216 11093 2//// 30079 40090 51021;
0101010110999992013011305004+80067+031500FM-12+001099999V0203201N017019999999N9999999N1-00911+99999100871ADDMA1999999100761MD1310141+9999REMSYN060AAXX  13051 01011 46/// /3217 11091 2//// 30076 40087 53014;
0101010110999992013011306004+80067+031500FM-12+001099999V0203201N018019999999N9999999N1-00881+99999100861ADDMA1999999100751MD1310051+9999REMSYN060AAXX  13061 01011 46/// /3218 11088 2//// 30075 40086 53005;
0101010110999992013011307004+80067+031500FM-12+001099999V0203301N017019999999N9999999N1-00861+99999100911ADDMA1999999100801MD1010011+9999REMSYN060AAXX  13071 01011 46/// /3317 11086 2//// 30080 40091 50001;
0101010110999992013011308004+80067+031500FM-12+001099999V0203301N017019999999N9999999N1-00921+99999100961ADDMA1999999100851MD1110101+9999REMSYN060AAXX  13081 01011 46/// /3317 11092 2//// 30085 40096 51010;
0101010110999992013011309004+80067+031500FM-12+001099999V0203401N017019999999N9999999N1-00871+99999101011ADDMA1999999100901MD1210151+9999REMSYN060AAXX  13091 01011 46/// /3417 11087 2//// 30090 40101 52015;
0101010110999992013011310004+80067+031500FM-12+001099999V0203301N015019999999N9999999N1-00881+99999101071ADDMA1999999100961MD1210161+9999REMSYN060AAXX  13101 01011 46/// /3315 11088 2//// 30096 40107 52016;
0101010110999992013011311004+80067+031500FM-12+001099999V0203301N015019999999N9999999N1-00811+99999101121ADDMA1999999101011MD1210151+9999REMSYN060AAXX  13111 01011 46/// /3315 11081 2//// 30101 40112 52015;
0111010110999992013011312004+80067+031500FM-12+001099999V0203301N017019999999N9999999N1-00791+99999101111ADDMA1999999101001MD1310111+9999REMSYN070AAXX  13121 01011 46/// /3317 11079 2//// 30100 40111 53011 333 91119;
0101010110999992013011313004+80067+031500FM-12+001099999V0203301N016019999999N9999999N1-00851+99999101161ADDMA1999999101051MD1210091+9999REMSYN060AAXX  13131 01011 46/// /3316 11085 2//// 30105 40116 52009;
0101010110999992013011314004+80067+031500FM-12+001099999V0203401N015019999999N9999999N1-00881+99999101201ADDMA1999999101091MD1110081+9999REMSYN060AAXX  13141 01011 46/// /3415 11088 2//// 30109 40120 51008;
0101010110999992013011315004+80067+031500FM-12+001099999V0203501N013019999999N9999999N1-00901+99999101251ADDMA1999999101141MD1210131+9999REMSYN060AAXX  13151 01011 46/// /3513 11090 2//// 30114 40125 52013;
0101010110999992013011316004+80067+031500FM-12+001099999V0203501N014019999999N9999999N1-00881+99999101301ADDMA1999999101191MD1210141+9999REMSYN060AAXX  13161 01011 46/// /3514 11088 2//// 30119 40130 52014;
0101010110999992013011317004+80067+031500FM-12+001099999V0203501N012019999999N9999999N1-00921+99999101371ADDMA1999999101261MD1210171+9999REMSYN060AAXX  13171 01011 46/// /3512 11092 2//// 30126 40137 52017;
0130010110999992013011318004+80067+031500FM-12+001099999V0203601N009019999999N9999999N1-00971+99999101421ADDKA1120M-00791MA1999999101301MD1210171+9999REMSYN076AAXX  13181 01011 46/// /3609 11097 2//// 30130 40142 52017 333 11079 91116;
0101010110999992013011319004+80067+031500FM-12+001099999V0203501N010019999999N9999999N1-00931+99999101461ADDMA1999999101351MD1210161+9999REMSYN060AAXX  13191 01011 46/// /3510 11093 2//// 30135 40146 52016;
0101010110999992013011320004+80067+031500FM-12+001099999V0200201N008019999999N9999999N1-01071+99999101531ADDMA1999999101421MD1210161+9999REMSYN060AAXX  13201 01011 46/// /0208 11107 2//// 30142 40153 52016;
0101010110999992013011321004+80067+031500FM-12+001099999V0203601N008019999999N9999999N1-01131+99999101581ADDMA1999999101461MD1210161+9999REMSYN060AAXX  13211 01011 46/// /3608 11113 2//// 30146 40158 52016;
0101010110999992013011322004+80067+031500FM-12+001099999V0200101N009019999999N9999999N1-01051+99999101621ADDMA1999999101511MD1210161+9999REMSYN060AAXX  13221 01011 46/// /0109 11105 2//// 30151 40162 52016;
0101010110999992013011323004+80067+031500FM-12+001099999V0200101N008019999999N9999999N1-01061+99999101691ADDMA1999999101581MD1210161+9999REMSYN060AAXX  13231 01011 46/// /0108 11106 2//// 30158 40169 52016;
0111010110999992013011400004+80067+031500FM-12+001099999V0200201N007019999999N9999999N1-01121+99999101741ADDMA1999999101631MD1210171+9999REMSYN070AAXX  14001 01011 46/// /0207 11112 2//// 30163 40174 52017 333 91111;
0101010110999992013011401004+80067+031500FM-12+001099999V0200201N005019999999N9999999N1-01111+99999101781ADDMA1999999101671MD1210161+9999REMSYN060AAXX  14011 01011 46/// /0205 11111 2//// 30167 40178 52016;
0101010110999992013011402004+80067+031500FM-12+001099999V0200201N006019999999N9999999N1-01081+99999101831ADDMA1999999101711MD1210141+9999REMSYN060AAXX  14021 01011 46/// /0206 11108 2//// 30171 40183 52014;
0101010110999992013011403004+80067+031500FM-12+001099999V0200101N006019999999N9999999N1-01061+99999101861ADDMA1999999101741MD1210111+9999REMSYN060AAXX  14031 01011 46/// /0106 11106 2//// 30174 40186 52011;
0101010110999992013011404004+80067+031500FM-12+001099999V0200201N006019999999N9999999N1-01051+99999101891ADDMA1999999101781MD1210111+9999REMSYN060AAXX  14041 01011 46/// /0206 11105 2//// 30178 40189 52011;
0101010110999992013011405004+80067+031500FM-12+001099999V0200101N006019999999N9999999N1-01041+99999101921ADDMA1999999101811MD1210101+9999REMSYN060AAXX  14051 01011 46/// /0106 11104 2//// 30181 40192 52010;
0130010110999992013011406004+80067+031500FM-12+001099999V0200201N006019999999N9999999N1-01081+99999101951ADDKA1999N-01131MA1999999101841MD1210101+9999REMSYN076AAXX  14061 01011 46/// /0206 11108 2//// 30184 40195 52010 333 21113 91106;
0101010110999992013011407004+80067+031500FM-12+001099999V0200401N007019999999N9999999N1-01201+99999101991ADDMA1999999101871MD1210091+9999REMSYN060AAXX  14071 01011 46/// /0407 11120 2//// 30187 40199 52009;
0101010110999992013011408004+80067+031500FM-12+001099999V0200401N007019999999N9999999N1-01131+99999102031ADDMA1999999101921MD1210111+9999REMSYN060AAXX  14081 01011 46/// /0407 11113 2//// 30192 40203 52011;
0101010110999992013011409004+80067+031500FM-12+001099999V0200301N005019999999N9999999N1-01101+99999102101ADDMA1999999101991MD1110151+9999REMSYN060AAXX  14091 01011 46/// /0305 11110 2//// 30199 40210 51015;
0101010110999992013011410004+80067+031500FM-12+001099999V0200401N007019999999N9999999N1-01141+99999102131ADDMA1999999102021MD1210141+9999REMSYN060AAXX  14101 01011 46/// /0407 11114 2//// 30202 40213 52014;
0101010110999992013011411004+80067+031500FM-12+001099999V0200301N005019999999N9999999N1-01081+99999102171ADDMA1999999102051MD1310131+9999REMSYN060AAXX  14111 01011 46/// /0305 11108 2//// 30205 40217 53013;
0111010110999992013011412004+80067+031500FM-12+001099999V0200301N005019999999N9999999N1-01051+99999102181ADDMA1999999102071MD1210081+9999REMSYN070AAXX  14121 01011 46/// /0305 11105 2//// 30207 40218 52008 333 91107;
0101010110999992013011413004+80067+031500FM-12+001099999V0200301N007019999999N9999999N1-01101+99999102191ADDMA1999999102081MD1210061+9999REMSYN060AAXX  14131 01011 46/// /0307 11110 2//// 30208 40219 52006;
0101010110999992013011414004+80067+031500FM-12+001099999V0200301N005019999999N9999999N1-01081+99999102211ADDMA1999999102101MD1210051+9999REMSYN060AAXX  14141 01011 46/// /0305 11108 2//// 30210 40221 52005;
0101010110999992013011415004+80067+031500FM-12+001099999V0200401N006019999999N9999999N1-01061+99999102241ADDMA1999999102121MD1210051+9999REMSYN060AAXX  14151 01011 46/// /0406 11106 2//// 30212 40224 52005;
0101010110999992013011416004+80067+031500FM-12+001099999V0200301N004019999999N9999999N1-00971+99999102261ADDMA1999999102141MD1210061+9999REMSYN060AAXX  14161 01011 46/// /0304 11097 2//// 30214 40226 52006;
0101010110999992013011417004+80067+031500FM-12+001099999V0200401N005019999999N9999999N1-01091+99999102271ADDMA1999999102161MD1210061+9999REMSYN060AAXX  14171 01011 46/// /0405 11109 2//// 30216 40227 52006;
0130010110999992013011418004+80067+031500FM-12+001099999V0200501N006019999999N9999999N1-01081+99999102271ADDKA1120M-00971MA1999999102161MD1210031+9999REMSYN076AAXX  14181 01011 46/// /0506 11108 2//// 30216 40227 52003 333 11097 91107;
0101010110999992013011419004+80067+031500FM-12+001099999V0200501N005019999999N9999999N1-01071+99999102271ADDMA1999999102161MD1410001+9999REMSYN060AAXX  14191 01011 46/// /0505 11107 2//// 30216 40227 54001;
0101010110999992013011420004+80067+031500FM-12+001099999V0200501N004019999999N9999999N1-01021+99999102271ADDMA1999999102151MD1410001+9999REMSYN060AAXX  14201 01011 46/// /0504 11102 2//// 30215 40227 54001;
0101010110999992013011421004+80067+031500FM-12+001099999V0200301N004019999999N9999999N1-01061+99999102261ADDMA1999999102151MD1410001+9999REMSYN060AAXX  14211 01011 46/// /0304 11106 2//// 30215 40226 54000;
0101010110999992013011422004+80067+031500FM-12+001099999V0200301N005019999999N9999999N1-01061+99999102271ADDMA1999999102161MD1410001+9999REMSYN060AAXX  14221 01011 46/// /0305 11106 2//// 30216 40227 54000;
0101010110999992013011423004+80067+031500FM-12+001099999V0200301N003019999999N9999999N1-01091+99999102281ADDMA1999999102161MD1410001+9999REMSYN060AAXX  14231 01011 46/// /0303 11109 2//// 30216 40228 54001;
0111010110999992013011500004+80067+031500FM-12+001099999V0200301N004019999999N9999999N1-01111+99999102281ADDMA1999999102171MD1410001+9999REMSYN070AAXX  15001 01011 46/// /0304 11111 2//// 30217 40228 54002 333 91106;
0101010110999992013011501004+80067+031500FM-12+001099999V0200301N006019999999N9999999N1-01151+99999102301ADDMA1999999102181MD1410001+9999REMSYN060AAXX  15011 01011 46/// /0306 11115 2//// 30218 40230 54003;
0101010110999992013011502004+80067+031500FM-12+001099999V0200301N005019999999N9999999N1-01021+99999102281ADDMA1999999102171MD1410001+9999REMSYN060AAXX  15021 01011 46/// /0305 11102 2//// 30217 40228 54001;
0101010110999992013011503004+80067+031500FM-12+001099999V0200701N005019999999N9999999N1-01271+99999102281ADDMA1999999102161MD1410001+9999REMSYN060AAXX  15031 01011 46/// /0705 11127 2//// 30216 40228 54000;
0101010110999992013011504004+80067+031500FM-12+001099999V0200801N006019999999N9999999N1-01281+99999102231ADDMA1999999102111MD1610071+9999REMSYN060AAXX  15041 01011 46/// /0806 11128 2//// 30211 40223 56007;
0101010110999992013011505004+80067+031500FM-12+001099999V0200801N004019999999N9999999N1-01221+99999102221ADDMA1999999102111MD1710061+9999REMSYN060AAXX  15051 01011 46/// /0804 11122 2//// 30211 40222 57006;
0130010110999992013011506004+80067+031500FM-12+001099999V0200701N004019999999N9999999N1-01201+99999102201ADDKA1999N-01281MA1999999102081MD1710081+9999REMSYN076AAXX  15061 01011 46/// /0704 11120 2//// 30208 40220 57008 333 21128 91106;
0101010110999992013011507004+80067+031500FM-12+001099999V0200801N005019999999N9999999N1-01291+99999102201ADDMA1999999102091MD1410001+9999REMSYN060AAXX  15071 01011 46/// /0805 11129 2//// 30209 40220 54002;
0101010110999992013011508004+80067+031500FM-12+001099999V0200901N005019999999N9999999N1-01201+99999102201ADDMA1999999102091MD1410001+9999REMSYN060AAXX  15081 01011 46/// /0905 11120 2//// 30209 40220 54002;
0101010110999992013011509004+80067+031500FM-12+001099999V0200901N004019999999N9999999N1-01181+99999102201ADDMA1999999102091MD1410001+9999REMSYN060AAXX  15091 01011 46/// /0904 11118 2//// 30209 40220 54000;
0101010110999992013011510004+80067+031500FM-12+001099999V0200901N004019999999N9999999N1-01131+99999102201ADDMA1999999102091MD1410001+9999REMSYN060AAXX  15101 01011 46/// /0904 11113 2//// 30209 40220 54000;
0101010110999992013011511004+80067+031500FM-12+001099999V0200801N005019999999N9999999N1-01161+99999102191ADDMA1999999102081MD1410001+9999REMSYN060AAXX  15111 01011 46/// /0805 11116 2//// 30208 40219 54001;
0111010110999992013011512004+80067+031500FM-12+001099999V0200901N004019999999N9999999N1-01141+99999102181ADDMA1999999102071MD1410001+9999REMSYN070AAXX  15121 01011 46/// /0904 11114 2//// 30207 40218 54002 333 91105;
0101010110999992013011513004+80067+031500FM-12+001099999V0201001N004019999999N9999999N1-01161+99999102141ADDMA1999999102031MD1710061+9999REMSYN060AAXX  15131 01011 46/// /1004 11116 2//// 30203 40214 57006;
0101010110999992013011514004+80067+031500FM-12+001099999V0201001N005019999999N9999999N1-01161+99999102101ADDMA1999999101981MD1610101+9999REMSYN060AAXX  15141 01011 46/// /1005 11116 2//// 30198 40210 56010;
0101010110999992013011515004+80067+031500FM-12+001099999V0201001N004019999999N9999999N1-01151+99999102081ADDMA1999999101961MD1710101+9999REMSYN060AAXX  15151 01011 46/// /1004 11115 2//// 30196 40208 57010;
0101010110999992013011516004+80067+031500FM-12+001099999V0201001N004019999999N9999999N1-01101+99999102071ADDMA1999999101951MD1810081+9999REMSYN060AAXX  15161 01011 46/// /1004 11110 2//// 30195 40207 58008;
0101010110999992013011517004+80067+031500FM-12+001099999V0201001N005019999999N9999999N1-01031+99999102041ADDMA1999999101931MD1710051+9999REMSYN060AAXX  15171 01011 46/// /1005 11103 2//// 30193 40204 57005;
0130010110999992013011518004+80067+031500FM-12+001099999V0201001N005019999999N9999999N1-01061+99999102021ADDKA1120M-01021MA1999999101901MD1710061+9999REMSYN076AAXX  15181 01011 46/// /1005 11106 2//// 30190 40202 57006 333 11102 91105;
0101010110999992013011519004+80067+031500FM-12+001099999V0201001N005019999999N9999999N1-01041+99999101981ADDMA1999999101871MD1710081+9999REMSYN060AAXX  15191 01011 46/// /1005 11104 2//// 30187 40198 57008;
0101010110999992013011520004+80067+031500FM-12+001099999V0201001N007019999999N9999999N1-01101+99999101921ADDMA1999999101811MD1610121+9999REMSYN060AAXX  15201 01011 46/// /1007 11110 2//// 30181 40192 56012;
0101010110999992013011521004+80067+031500FM-12+001099999V0201001N006019999999N9999999N1-01131+99999101881ADDMA1999999101771MD1710141+9999REMSYN060AAXX  15211 01011 46/// /1006 11113 2//// 30177 40188 57014;
0101010110999992013011522004+80067+031500FM-12+001099999V0201001N007019999999N9999999N1-01171+99999101841ADDMA1999999101731MD1710151+9999REMSYN060AAXX  15221 01011 46/// /1007 11117 2//// 30173 40184 57015;
0101010110999992013011523004+80067+031500FM-12+001099999V0201001N008019999999N9999999N1-01141+99999101811ADDMA1999999101701MD1710111+9999REMSYN060AAXX  15231 01011 46/// /1008 11114 2//// 30170 40181 57011;
0111010110999992013011600004+80067+031500FM-12+001099999V0200901N008019999999N9999999N1-01181+99999101771ADDMA1999999101661MD1710101+9999REMSYN070AAXX  16001 01011 46/// /0908 11118 2//// 30166 40177 57010 333 91108;
0101010110999992013011601004+80067+031500FM-12+001099999V0200901N008019999999N9999999N1-01281+99999101721ADDMA1999999101611MD1710121+9999REMSYN060AAXX  16011 01011 46/// /0908 11128 2//// 30161 40172 57012;
0101010110999992013011602004+80067+031500FM-12+001099999V0200801N008019999999N9999999N1-01321+99999101681ADDMA1999999101561MD1710131+9999REMSYN060AAXX  16021 01011 46/// /0808 11132 2//// 30156 40168 57013;
0101010110999992013011603004+80067+031500FM-12+001099999V0200901N008019999999N9999999N1-01241+99999101621ADDMA1999999101511MD1710161+9999REMSYN060AAXX  16031 01011 46/// /0908 11124 2//// 30151 40162 57016;
0101010110999992013011604004+80067+031500FM-12+001099999V0200901N008019999999N9999999N1-01161+99999101541ADDMA1999999101431MD1710181+9999REMSYN060AAXX  16041 01011 46/// /0908 11116 2//// 30143 40154 57018;
0101010110999992013011605004+80067+031500FM-12+001099999V0200901N010019999999N9999999N1-01221+99999101451ADDMA1999999101341MD1610221+9999REMSYN060AAXX  16051 01011 46/// /0910 11122 2//// 30134 40145 56022;
0130010110999992013011606004+80067+031500FM-12+001099999V0201001N010019999999N9999999N1-01251+99999101391ADDKA1999N-01321MA1999999101281MD1710231+9999REMSYN076AAXX  16061 01011 46/// /1010 11125 2//// 30128 40139 57023 333 21132 91110;
0101010110999992013011607004+80067+031500FM-12+001099999V0200901N011019999999N9999999N1-01271+99999101301ADDMA1999999101191MD1710241+9999REMSYN060AAXX  16071 01011 46/// /0911 11127 2//// 30119 40130 57024;
0101010110999992013011608004+80067+031500FM-12+001099999V0201001N009019999999N9999999N1-01201+99999101321ADDMA1999999101201MD1810131+9999REMSYN060AAXX  16081 01011 46/// /1009 11120 2//// 30120 40132 58013;
0101010110999992013011609004+80067+031500FM-12+001099999V0200901N013019999999N9999999N1-01221+99999101201ADDMA1999999101091MD1710191+9999REMSYN060AAXX  16091 01011 46/// /0913 11122 2//// 30109 40120 57019;
0101010110999992013011610004+80067+031500FM-12+001099999V0200901N011019999999N9999999N1-01291+99999101211ADDMA1999999101091MD1710101+9999REMSYN060AAXX  16101 01011 46/// /0911 11129 2//// 30109 40121 57010;
0101010110999992013011611004+80067+031500FM-12+001099999V0200801N013019999999N9999999N1-01331+99999101171ADDMA1999999101061MD1810151+9999REMSYN060AAXX  16111 01011 46/// /0813 11133 2//// 30106 40117 58015;
0111010110999992013011612004+80067+031500FM-12+001099999V0200901N012019999999N9999999N1-01311+99999101131ADDMA1999999101021MD1610071+9999REMSYN070AAXX  16121 01011 46/// /0912 11131 2//// 30102 40113 56007 333 91114;
0101010110999992013011613004+80067+031500FM-12+001099999V0201001N013019999999N9999999N1-01311+99999101071ADDMA1999999100961MD1710131+9999REMSYN060AAXX  16131 01011 46/// /1013 11131 2//// 30096 40107 57013;
0101010110999992013011614004+80067+031500FM-12+001099999V0201001N014019999999N9999999N1-01291+99999101011ADDMA1999999100901MD1710161+9999REMSYN060AAXX  16141 01011 46/// /1014 11129 2//// 30090 40101 57016;
0101010110999992013011615004+80067+031500FM-12+001099999V0200901N012019999999N9999999N1-01261+99999100981ADDMA1999999100871MD1710151+9999REMSYN060AAXX  16151 01011 46/// /0912 11126 2//// 30087 40098 57015;
0101010110999992013011616004+80067+031500FM-12+001099999V0201001N014019999999N9999999N1-01281+99999100881ADDMA1999999100771MD1610191+9999REMSYN060AAXX  16161 01011 46/// /1014 11128 2//// 30077 40088 56019;
0101010110999992013011617004+80067+031500FM-12+001099999V0200901N015019999999N9999999N1-01301+99999100841ADDMA1999999100731MD1710171+9999REMSYN060AAXX  16171 01011 46/// /0915 11130 2//// 30073 40084 57017;
0130010110999992013011618004+80067+031500FM-12+001099999V0200901N014019999999N9999999N1-01321+99999100821ADDKA1120M-01201MA1999999100711MD1810161+9999REMSYN076AAXX  16181 01011 46/// /0914 11132 2//// 30071 40082 58016 333 11120 91115;
0101010110999992013011619004+80067+031500FM-12+001099999V0200901N017019999999N9999999N1-01371+99999100711ADDMA1999999100601MD1610171+9999REMSYN060AAXX  16191 01011 46/// /0917 11137 2//// 30060 40071 56017;
0101010110999992013011620004+80067+031500FM-12+001099999V0200701N019019999999N9999999N1-01451+99999100741ADDMA1999999100631MD1810101+9999REMSYN060AAXX  16201 01011 46/// /0719 11145 2//// 30063 40074 58010;
0101010110999992013011621004+80067+031500FM-12+001099999V0200701N019019999999N9999999N1-01461+99999100701ADDMA1999999100591MD1810121+9999REMSYN060AAXX  16211 01011 46/// /0719 11146 2//// 30059 40070 58012;
0101010110999992013011622004+80067+031500FM-12+001099999V0200701N018019999999N9999999N1-01411+99999100671ADDMA1999999100561MD1610041+9999REMSYN060AAXX  16221 01011 46/// /0718 11141 2//// 30056 40067 56004;
0101010110999992013011623004+80067+031500FM-12+001099999V0200701N018019999999N9999999N1-01371+99999100621ADDMA1999999100511MD1710121+9999REMSYN060AAXX  16231 01011 46/// /0718 11137 2//// 30051 40062 57012;
0111010110999992013011700004+80067+031500FM-12+001099999V0200701N018019999999N9999999N1-01381+99999100611ADDMA1999999100501MD1710091+9999REMSYN070AAXX  17001 01011 46/// /0718 11138 2//// 30050 40061 57009 333 91121;
0101010110999992013011701004+80067+031500FM-12+001099999V0200601N019019999999N9999999N1-01301+99999100581ADDMA1999999100461MD1710091+9999REMSYN060AAXX  17011 01011 46/// /0619 11130 2//// 30046 40058 57009;
0101010110999992013011702004+80067+031500FM-12+001099999V0200601N018019999999N9999999N1-01241+99999100641ADDMA1999999100531MD1010021+9999REMSYN060AAXX  17021 01011 46/// /0618 11124 2//// 30053 40064 50002;
0101010110999992013011703004+80067+031500FM-12+001099999V0200601N016019999999N9999999N1-01231+99999100641ADDMA1999999100531MD1010031+9999REMSYN060AAXX  17031 01011 46/// /0616 11123 2//// 30053 40064 50003;
0101010110999992013011704004+80067+031500FM-12+001099999V0200601N018019999999N9999999N1-01251+99999100671ADDMA1999999100561MD1310091+9999REMSYN060AAXX  17041 01011 46/// /0618 11125 2//// 30056 40067 53009;
0101010110999992013011705004+80067+031500FM-12+001099999V0200501N016019999999N9999999N1-01271+99999100691ADDMA1999999100581MD1210051+9999REMSYN060AAXX  17051 01011 46/// /0516 11127 2//// 30058 40069 52005;
0130010110999992013011706004+80067+031500FM-12+001099999V0200501N016019999999N9999999N1-01321+99999100701ADDKA1999N-01461MA1999999100591MD1210061+9999REMSYN076AAXX  17061 01011 46/// /0516 11132 2//// 30059 40070 52006 333 21146 91120;
0101010110999992013011707004+80067+031500FM-12+001099999V0200501N017019999999N9999999N1-01391+99999100691ADDMA1999999100571MD1510021+9999REMSYN060AAXX  17071 01011 46/// /0517 11139 2//// 30057 40069 55002;
0101010110999992013011708004+80067+031500FM-12+001099999V0200601N018019999999N9999999N1-01391+99999100591ADDMA1999999100471MD1610101+9999REMSYN060AAXX  17081 01011 46/// /0618 11139 2//// 30047 40059 56010;
0101010110999992013011709004+80067+031500FM-12+001099999V0200601N019019999999N9999999N1-01391+99999100561ADDMA1999999100451MD1710141+9999REMSYN060AAXX  17091 01011 46/// /0619 11139 2//// 30045 40056 57014;
0101010110999992013011710004+80067+031500FM-12+001099999V0200601N021019999999N9999999N1-01381+99999100451ADDMA1999999100341MD1710241+9999REMSYN060AAXX  17101 01011 46/// /0621 11138 2//// 30034 40045 57024;
0101010110999992013011711004+80067+031500FM-12+001099999V0200601N021019999999N9999999N1-01381+99999100461ADDMA1999999100351MD1810131+9999REMSYN060AAXX  17111 01011 46/// /0621 11138 2//// 30035 40046 58013;
0111010110999992013011712004+80067+031500FM-12+001099999V0200601N022019999999N9999999N1-01401+99999100441ADDMA1999999100331MD1810121+9999REMSYN070AAXX  17121 01011 46/// /0622 11140 2//// 30033 40044 58012 333 91123;
0101010110999992013011713004+80067+031500FM-12+001099999V0200601N021019999999N9999999N1-01391+99999100411ADDMA1999999100301MD1610031+9999REMSYN060AAXX  17131 01011 46/// /0621 11139 2//// 30030 40041 56003;
0101010110999992013011714004+80067+031500FM-12+001099999V0200601N023019999999N9999999N1-01371+99999100401ADDMA1999999100291MD1710061+9999REMSYN060AAXX  17141 01011 46/// /0623 11137 2//// 30029 40040 57006;
0101010110999992013011715004+80067+031500FM-12+001099999V0200601N021019999999N9999999N1-01341+99999100421ADDMA1999999100311MD1010021+9999REMSYN060AAXX  17151 01011 46/// /0621 11134 2//// 30031 40042 50002;
0101010110999992013011716004+80067+031500FM-12+001099999V0200601N018019999999N9999999N1-01321+99999100411ADDMA1999999100301MD1410001+9999REMSYN060AAXX  17161 01011 46/// /0618 11132 2//// 30030 40041 54000;
0101010110999992013011717004+80067+031500FM-12+001099999V0200601N017019999999N9999999N1-01291+99999100531ADDMA1999999100411MD1110131+9999REMSYN060AAXX  17171 01011 46/// /0617 11129 2//// 30041 40053 51013;
0130010110999992013011718004+80067+031500FM-12+001099999V0200701N017019999999N9999999N1-01261+99999100471ADDKA1120M-01261MA1999999100361MD1310051+9999REMSYN076AAXX  17181 01011 46/// /0717 11126 2//// 30036 40047 53005 333 11126 91123;
0101010110999992013011719004+80067+031500FM-12+001099999V0200701N016019999999N9999999N1-01251+99999100501ADDMA1999999100391MD1310091+9999REMSYN060AAXX  17191 01011 46/// /0716 11125 2//// 30039 40050 53009;
0101010110999992013011720004+80067+031500FM-12+001099999V0200701N014019999999N9999999N1-01271+99999100581ADDMA1999999100461MD1010051+9999REMSYN060AAXX  17201 01011 46/// /0714 11127 2//// 30046 40058 50005;
0101010110999992013011721004+80067+031500FM-12+001099999V0200701N014019999999N9999999N1-01321+99999100631ADDMA1999999100511MD1210161+9999REMSYN060AAXX  17211 01011 46/// /0714 11132 2//// 30051 40063 52016;
0101010110999992013011722004+80067+031500FM-12+001099999V0200801N015019999999N9999999N1-01331+99999100581ADDMA1999999100471MD1310081+9999REMSYN060AAXX  17221 01011 46/// /0815 11133 2//// 30047 40058 53008;
0101010110999992013011723004+80067+031500FM-12+001099999V0200701N016019999999N9999999N1-01291+99999100591ADDMA1999999100481MD1510011+9999REMSYN060AAXX  17231 01011 46/// /0716 11129 2//// 30048 40059 55001;
0111010110999992013011800004+80067+031500FM-12+001099999V0200601N015019999999N9999999N1-01351+99999100631ADDMA1999999100521MD1010001+9999REMSYN070AAXX  18001 01011 46/// /0615 11135 2//// 30052 40063 50000 333 91118;
0101010110999992013011801004+80067+031500FM-12+001099999V0200601N018019999999N9999999N1-01351+99999100591ADDMA1999999100481MD1510011+9999REMSYN060AAXX  18011 01011 46/// /0618 11135 2//// 30048 40059 55001;
0101010110999992013011802004+80067+031500FM-12+001099999V0200501N015019999999N9999999N1-01361+99999100651ADDMA1999999100541MD1210061+9999REMSYN060AAXX  18021 01011 46/// /0515 11136 2//// 30054 40065 52006;
0101010110999992013011803004+80067+031500FM-12+001099999V0200501N015019999999N9999999N1-01391+99999100711ADDMA1999999100601MD1010081+9999REMSYN060AAXX  18031 01011 46/// /0515 11139 2//// 30060 40071 50008;
0101010110999992013011804004+80067+031500FM-12+001099999V0200501N013019999999N9999999N1-01411+99999100701ADDMA1999999100591MD1310111+9999REMSYN060AAXX  18041 01011 46/// /0513 11141 2//// 30059 40070 53011;
0101010110999992013011805004+80067+031500FM-12+001099999V0200501N014019999999N9999999N1-01381+99999100691ADDMA1999999100581MD1310041+9999REMSYN060AAXX  18051 01011 46/// /0514 11138 2//// 30058 40069 53004;
0130010110999992013011806004+80067+031500FM-12+001099999V0200501N009019999999N9999999N1-01381+99999100711ADDKA1999N-01411MA1999999100601MD1010001+9999REMSYN076AAXX  18061 01011 46/// /0509 11138 2//// 30060 40071 50000 333 21141 91119;
0101010110999992013011807004+80067+031500FM-12+001099999V0200401N014019999999N9999999N1-01401+99999100661ADDMA1999999100541MD1610041+9999REMSYN060AAXX  18071 01011 46/// /0414 11140 2//// 30054 40066 56004;
0101010110999992013011808004+80067+031500FM-12+001099999V0200301N014019999999N9999999N1-01411+99999100671ADDMA1999999100561MD1410001+9999REMSYN060AAXX  18081 01011 46/// /0314 11141 2//// 30056 40067 54002;
0101010110999992013011809004+80067+031500FM-12+001099999V0200301N016019999999N9999999N1-01301+99999100621ADDMA1999999100511MD1710091+9999REMSYN060AAXX  18091 01011 46/// /0316 11130 2//// 30051 40062 57009;
0101010110999992013011810004+80067+031500FM-12+001099999V0200401N018019999999N9999999N1-01221+99999100521ADDMA1999999100411MD1610131+9999REMSYN060AAXX  18101 01011 46/// /0418 11122 2//// 30041 40052 56013;
0101010110999992013011811004+80067+031500FM-12+001099999V0200501N021019999999N9999999N1-01201+99999100531ADDMA1999999100421MD1810141+9999REMSYN060AAXX  18111 01011 46/// /0521 11120 2//// 30042 40053 58014;
0111010110999992013011812004+80067+031500FM-12+001099999V0200501N020019999999N9999999N1-01251+99999100611ADDMA1999999100501MD1010011+9999REMSYN070AAXX  18121 01011 46/// /0520 11125 2//// 30050 40061 50001 333 91120;
0101010110999992013011813004+80067+031500FM-12+001099999V0200501N019019999999N9999999N1-01241+99999100721ADDMA1999999100611MD1110201+9999REMSYN060AAXX  18131 01011 46/// /0519 11124 2//// 30061 40072 51020;
0101010110999992013011815004+80067+031500FM-12+001099999V0200501N019019999999N9999999N1-01291+99999100861ADDMA1999999100751MD1210251+9999REMSYN060AAXX  18151 01011 46/// /0519 11129 2//// 30075 40086 52025;
0101010110999992013011816004+80067+031500FM-12+001099999V0200501N017019999999N9999999N1-01321+99999100971ADDMA1999999100851MD1110241+9999REMSYN060AAXX  18161 01011 46/// /0517 11132 2//// 30085 40097 51024;
0101010110999992013011817004+80067+031500FM-12+001099999V0200501N012019999999N9999999N1-01361+99999101101ADDMA1999999100991MD1210341+9999REMSYN060AAXX  18171 01011 46/// /0512 11136 2//// 30099 40110 52034;
0101010110999992013011818004+80067+031500FM-12+001099999V0200501N013019999999N9999999N1-01431+99999101131ADDMA1999999101011MD1310261+9999REMSYN060AAXX  18181 01011 46/// /0513 11143 2//// 30101 40113 53026;
0101010110999992013011819004+80067+031500FM-12+001099999V0200601N011019999999N9999999N1-01471+99999101251ADDMA1999999101141MD1210281+9999REMSYN060AAXX  18191 01011 46/// /0611 11147 2//// 30114 40125 52028;
0101010110999992013011820004+80067+031500FM-12+001099999V0200601N011019999999N9999999N1-01631+99999101341ADDMA1999999101221MD1110241+9999REMSYN060AAXX  18201 01011 46/// /0611 11163 2//// 30122 40134 51024;
0101010110999992013011821004+80067+031500FM-12+001099999V0200401N004019999999N9999999N1-01601+99999101461ADDMA1999999101351MD1210331+9999REMSYN060AAXX  18211 01011 46/// /0404 11160 2//// 30135 40146 52033;
0101010110999992013011822004+80067+031500FM-12+001099999V0200201N003019999999N9999999N1-01711+99999101511ADDMA1999999101401MD1310261+9999REMSYN060AAXX  18221 01011 46/// /0203 11171 2//// 30140 40151 53026;
0101010110999992013011823004+80067+031500FM-12+001099999V0200201N005019999999N9999999N1-01711+99999101571ADDMA1999999101461MD1310241+9999REMSYN060AAXX  18231 01011 46/// /0205 11171 2//// 30146 40157 53024;
0111010110999992013011900004+80067+031500FM-12+001099999V0200401N005019999999N9999999N1-01701+99999101641ADDMA1999999101531MD1210181+9999REMSYN070AAXX  19001 01011 46/// /0405 11170 2//// 30153 40164 52018 333 91112;
0101010110999992013011901004+80067+031500FM-12+001099999V0200401N005019999999N9999999N1-01781+99999101671ADDMA1999999101561MD1210161+9999REMSYN060AAXX  19011 01011 46/// /0405 11178 2//// 30156 40167 52016;
0101010110999992013011902004+80067+031500FM-12+001099999V0200201N007019999999N9999999N1-01901+99999101721ADDMA1999999101611MD1210151+9999REMSYN060AAXX  19021 01011 46/// /0207 11190 2//// 30161 40172 52015;
0101010110999992013011903004+80067+031500FM-12+001099999V0200201N006019999999N9999999N1-01961+99999101731ADDMA1999999101621MD1210091+9999REMSYN060AAXX  19031 01011 46/// /0206 11196 2//// 30162 40173 52009;
0101010110999992013011904004+80067+031500FM-12+001099999V0200301N006019999999N9999999N1-01941+99999101741ADDMA1999999101631MD1310071+9999REMSYN060AAXX  19041 01011 46/// /0306 11194 2//// 30163 40174 53007;
0101010110999992013011905004+80067+031500FM-12+001099999V0200401N006019999999N9999999N1-01741+99999101751ADDMA1999999101641MD1410001+9999REMSYN060AAXX  19051 01011 46/// /0406 11174 2//// 30164 40175 54003;
0130010110999992013011906004+80067+031500FM-12+001099999V0200201N006019999999N9999999N1-01811+99999101771ADDKA1999N-01961MA1999999101661MD1210041+9999REMSYN076AAXX  19061 01011 46/// /0206 11181 2//// 30166 40177 52004 333 21196 91107;
0101010110999992013011907004+80067+031500FM-12+001099999V0200201N006019999999N9999999N1-01711+99999101791ADDMA1999999101681MD1210051+9999REMSYN060AAXX  19071 01011 46/// /0206 11171 2//// 30168 40179 52005;
0101010110999992013011908004+80067+031500FM-12+001099999V0200101N005019999999N9999999N1-01501+99999101791ADDMA1999999101681MD1210041+9999REMSYN060AAXX  19081 01011 46/// /0105 11150 2//// 30168 40179 52004;
0101010110999992013011909004+80067+031500FM-12+001099999V0200301N005019999999N9999999N1-01481+99999101801ADDMA1999999101691MD1210031+9999REMSYN060AAXX  19091 01011 46/// /0305 11148 2//// 30169 40180 52003;
0101010110999992013011910004+80067+031500FM-12+001099999V0200301N008019999999N9999999N1-01491+99999101821ADDMA1999999101711MD1410001+9999REMSYN060AAXX  19101 01011 46/// /0308 11149 2//// 30171 40182 54003;
0101010110999992013011911004+80067+031500FM-12+001099999V0200401N005019999999N9999999N1-01531+99999101851ADDMA1999999101741MD1210061+9999REMSYN060AAXX  19111 01011 46/// /0405 11153 2//// 30174 40185 52006;
0111010110999992013011912004+80067+031500FM-12+001099999V0200401N005019999999N9999999N1-01551+99999101841ADDMA1999999101721MD1310031+9999REMSYN070AAXX  19121 01011 46/// /0405 11155 2//// 30172 40184 53003 333 91108;
0101010110999992013011913004+80067+031500FM-12+001099999V0200301N005019999999N9999999N1-01551+99999101821ADDMA1999999101711MD1510001+9999REMSYN060AAXX  19131 01011 46/// /0305 11155 2//// 30171 40182 55000;
0101010110999992013011914004+80067+031500FM-12+001099999V0200401N005019999999N9999999N1-01611+99999101831ADDMA1999999101711MD1410001+9999REMSYN060AAXX  19141 01011 46/// /0405 11161 2//// 30171 40183 54003;
0101010110999992013011915004+80067+031500FM-12+001099999V0200501N007019999999N9999999N1-01691+99999101811ADDMA1999999101691MD1410001+9999REMSYN060AAXX  19151 01011 46/// /0507 11169 2//// 30169 40181 54003;
0101010110999992013011916004+80067+031500FM-12+001099999V0200401N006019999999N9999999N1-01831+99999101821ADDMA1999999101701MD1410001+9999REMSYN060AAXX  19161 01011 46/// /0406 11183 2//// 30170 40182 54001;
0101010110999992013011917004+80067+031500FM-12+001099999V0200301N005019999999N9999999N1-01811+99999101801ADDMA1999999101681MD1410001+9999REMSYN060AAXX  19171 01011 46/// /0305 11181 2//// 30168 40180 54003;
0130010110999992013011918004+80067+031500FM-12+001099999V0200301N006019999999N9999999N1-01851+99999101751ADDKA1120M-01481MA1999999101631MD1610061+9999REMSYN076AAXX  19181 01011 46/// /0306 11185 2//// 30163 40175 56006 333 11148 91107;
0101010110999992013011919004+80067+031500FM-12+001099999V0200601N005019999999N9999999N1-01921+99999101691ADDMA1999999101581MD1610131+9999REMSYN060AAXX  19191 01011 46/// /0605 11192 2//// 30158 40169 56013;
0101010110999992013011920004+80067+031500FM-12+001099999V0200701N004019999999N9999999N1-01861+99999101711ADDMA1999999101591MD1810091+9999REMSYN060AAXX  19201 01011 46/// /0704 11186 2//// 30159 40171 58009;
0101010110999992013011921004+80067+031500FM-12+001099999V0200801N004019999999N9999999N1-01731+99999101661ADDMA1999999101551MD1710091+9999REMSYN060AAXX  19211 01011 46/// /0804 11173 2//// 30155 40166 57009;
0101010110999992013011922004+80067+031500FM-12+001099999V0200801N005019999999N9999999N1-01781+99999101561ADDMA1999999101441MD1610141+9999REMSYN060AAXX  19221 01011 46/// /0805 11178 2//// 30144 40156 56014;
0101010110999992013011923004+80067+031500FM-12+001099999V0200801N005019999999N9999999N1-01761+99999101521ADDMA1999999101411MD1710191+9999REMSYN060AAXX  19231 01011 46/// /0805 11176 2//// 30141 40152 57019;
0111010110999992013012000004+80067+031500FM-12+001099999V0200801N006019999999N9999999N1-01771+99999101431ADDMA1999999101321MD1710231+9999REMSYN070AAXX  20001 01011 46/// /0806 11177 2//// 30132 40143 57023 333 91106;
0101010110999992013012001004+80067+031500FM-12+001099999V0200801N007019999999N9999999N1-01731+99999101371ADDMA1999999101261MD1710191+9999REMSYN060AAXX  20011 01011 46/// /0807 11173 2//// 30126 40137 57019;
0101010110999992013012002004+80067+031500FM-12+001099999V0200901N007019999999N9999999N1-01641+99999101311ADDMA1999999101191MD1710221+9999REMSYN060AAXX  20021 01011 46/// /0907 11164 2//// 30119 40131 57022;
0101010110999992013012003004+80067+031500FM-12+001099999V0200801N009019999999N9999999N1-01611+99999101191ADDMA1999999101081MD1610241+9999REMSYN060AAXX  20031 01011 46/// /0809 11161 2//// 30108 40119 56024;
0101010110999992013012004004+80067+031500FM-12+001099999V0200901N009019999999N9999999N1-01551+99999101081ADDMA1999999100971MD1610291+9999REMSYN060AAXX  20041 01011 46/// /0909 11155 2//// 30097 40108 56029;
0101010110999992013012005004+80067+031500FM-12+001099999V0201001N008019999999N9999999N1-01451+99999101011ADDMA1999999100901MD1810301+9999REMSYN060AAXX  20051 01011 46/// /1008 11145 2//// 30090 40101 58030;
0130010110999992013012006004+80067+031500FM-12+001099999V0200901N008019999999N9999999N1-01411+99999100911ADDKA1999N-01921MA1999999100791MD1710281+9999REMSYN076AAXX  20061 01011 46/// /0908 11141 2//// 30079 40091 57028 333 21192 91109;
0101010110999992013012007004+80067+031500FM-12+001099999V0201101N009019999999N9999999N1-01351+99999100811ADDMA1999999100691MD1710271+9999REMSYN060AAXX  20071 01011 46/// /1109 11135 2//// 30069 40081 57027;
0101010110999992013012008004+80067+031500FM-12+001099999V0201001N011019999999N9999999N1-01321+99999100731ADDMA1999999100611MD1710281+9999REMSYN060AAXX  20081 01011 46/// /1011 11132 2//// 30061 40073 57028;
0101010110999992013012009004+80067+031500FM-12+001099999V0201001N012019999999N9999999N1-01341+99999100681ADDMA1999999100571MD1810231+9999REMSYN060AAXX  20091 01011 46/// /1012 11134 2//// 30057 40068 58023;
0101010110999992013012010004+80067+031500FM-12+001099999V0201001N012019999999N9999999N1-01341+99999100561ADDMA1999999100451MD1610241+9999REMSYN060AAXX  20101 01011 46/// /1012 11134 2//// 30045 40056 56024;
0101010110999992013012011004+80067+031500FM-12+001099999V0201001N013019999999N9999999N1-01391+99999100501ADDMA1999999100381MD1710231+9999REMSYN060AAXX  20111 01011 46/// /1013 11139 2//// 30038 40050 57023;
0111010110999992013012012004+80067+031500FM-12+001099999V0201001N015019999999N9999999N1-01461+99999100391ADDMA1999999100271MD1710291+9999REMSYN070AAXX  20121 01011 46/// /1015 11146 2//// 30027 40039 57029 333 91115;
0101010110999992013012013004+80067+031500FM-12+001099999V0200901N017019999999N9999999N1-01491+99999100301ADDMA1999999100181MD1710271+9999REMSYN060AAXX  20131 01011 46/// /0917 11149 2//// 30018 40030 57027;
0101010110999992013012014004+80067+031500FM-12+001099999V0200901N019019999999N9999999N1-01571+99999100211ADDMA1999999100091MD1710291+9999REMSYN060AAXX  20141 01011 46/// /0919 11157 2//// 30009 40021 57029;
0101010110999992013012015004+80067+031500FM-12+001099999V0200901N018019999999N9999999N1-01641+99999100151ADDMA1999999100041MD1810231+9999REMSYN060AAXX  20151 01011 46/// /0918 11164 2//// 30004 40015 58023;
0101010110999992013012016004+80067+031500FM-12+001099999V0200801N020019999999N9999999N1-01731+99999100051ADDMA1999999099941MD1710251+9999REMSYN060AAXX  20161 01011 46/// /0820 11173 2//// 39994 40005 57025;
0101010110999992013012018004+80067+031500FM-12+001099999V0200601N023019999999N9999999N1-01861+99999100011ADDMA1999999099901MD1810141+9999REMSYN060AAXX  20181 01011 46/// /0623 11186 2//// 39990 40001 58014;
0101010110999992013012019004+80067+031500FM-12+001099999V0200601N021019999999N9999999N1-01921+99999099981ADDMA1999999099871MD1610071+9999REMSYN060AAXX  20191 01011 46/// /0621 11192 2//// 39987 49998 56007;
0101010110999992013012020004+80067+031500FM-12+001099999V0200601N019019999999N9999999N1-01971+99999100091ADDMA1999999099981MD1010041+9999REMSYN060AAXX  20201 01011 46/// /0619 11197 2//// 39998 40009 50004;
0101010110999992013012021004+80067+031500FM-12+001099999V0200601N021019999999N9999999N1-02001+99999100121ADDMA1999999100001MD1110101+9999REMSYN060AAXX  20211 01011 46/// /0621 11200 2//// 30000 40012 51010;
0101010110999992013012022004+80067+031500FM-12+001099999V0200601N022019999999N9999999N1-02031+99999100201ADDMA1999999100091MD1210221+9999REMSYN060AAXX  20221 01011 46/// /0622 11203 2//// 30009 40020 52022;
0101010110999992013012023004+80067+031500FM-12+001099999V0200601N020019999999N9999999N1-02051+99999100271ADDMA1999999100151MD1110181+9999REMSYN060AAXX  20231 01011 46/// /0620 11205 2//// 30015 40027 51018;
0111010110999992013012100004+80067+031500FM-12+001099999V0200601N016019999999N9999999N1-02041+99999100281ADDMA1999999100171MD1310171+9999REMSYN070AAXX  21001 01011 46/// /0616 11204 2//// 30017 40028 53017 333 91124;
0101010110999992013012101004+80067+031500FM-12+001099999V0200601N018019999999N9999999N1-02021+99999100331ADDMA1999999100211MD1210131+9999REMSYN060AAXX  21011 01011 46/// /0618 11202 2//// 30021 40033 52013;
0101010110999992013012102004+80067+031500FM-12+001099999V0200601N017019999999N9999999N1-02031+99999100451ADDMA1999999100341MD1110181+9999REMSYN060AAXX  21021 01011 46/// /0617 11203 2//// 30034 40045 51018;
0101010110999992013012103004+80067+031500FM-12+001099999V0200501N015019999999N9999999N1-02051+99999100511ADDMA1999999100401MD1210231+9999REMSYN060AAXX  21031 01011 46/// /0515 11205 2//// 30040 40051 52023;
0101010110999992013012104004+80067+031500FM-12+001099999V0200501N015019999999N9999999N1-02101+99999100551ADDMA1999999100441MD1310231+9999REMSYN060AAXX  21041 01011 46/// /0515 11210 2//// 30044 40055 53023;
0101010110999992013012105004+80067+031500FM-12+001099999V0200401N006019999999N9999999N1-02121+99999100731ADDMA1999999100621MD1110281+9999REMSYN060AAXX  21051 01011 46/// /0406 11212 2//// 30062 40073 51028;
0130010110999992013012106004+80067+031500FM-12+001099999V0200401N010019999999N9999999N1-02111+99999100731ADDKA1999N-02121MA1999999100611MD1310221+9999REMSYN076AAXX  21061 01011 46/// /0410 11211 2//// 30061 40073 53022 333 21212 91120;
0101010110999992013012107004+80067+031500FM-12+001099999V0200301N010019999999N9999999N1-02041+99999100731ADDMA1999999100621MD1310181+9999REMSYN060AAXX  21071 01011 46/// /0310 11204 2//// 30062 40073 53018;
0101010110999992013012108004+80067+031500FM-12+001099999V0200301N013019999999N9999999N1-02011+99999100751ADDMA1999999100641MD1410001+9999REMSYN060AAXX  21081 01011 46/// /0313 11201 2//// 30064 40075 54002;
0101010110999992013012109004+80067+031500FM-12+001099999V0200301N014019999999N9999999N1-01941+99999100801ADDMA1999999100691MD1110071+9999REMSYN060AAXX  21091 01011 46/// /0314 11194 2//// 30069 40080 51007;
0101010110999992013012110004+80067+031500FM-12+001099999V0200201N011019999999N9999999N1-01961+99999100891ADDMA1999999100771MD1110151+9999REMSYN060AAXX  21101 01011 46/// /0211 11196 2//// 30077 40089 51015;
0101010110999992013012111004+80067+031500FM-12+001099999V0200201N009019999999N9999999N1-01921+99999100901ADDMA1999999100791MD1310151+9999REMSYN060AAXX  21111 01011 46/// /0209 11192 2//// 30079 40090 53015;
0101010110999992013012115004+80067+031500FM-12+001099999V0200201N010019999999N9999999N1-01761+99999101061ADDMA1999999100941MD1210131+9999REMSYN060AAXX  21151 01011 46/// /0210 11176 2//// 30094 40106 52013;
