0111010200999992013010100004+76483+016550FM-12+001099999V0201201N011019999999N9999999N1+00201+99999098711ADDMA1999999098611MD1210161+9999REMSYN070AAXX  01001 01020 46/// /1211 10020 2//// 39861 49871 52016 333 91118;
0101010200999992013010101004+76483+016550FM-12+001099999V0201201N010019999999N9999999N1+00191+99999098781ADDMA1999999098671MD1110161+9999REMSYN060AAXX  01011 01020 46/// /1210 10019 2//// 39867 49878 51016;
0101010200999992013010102004+76483+016550FM-12+001099999V0201101N011019999999N9999999N1+00191+99999098811ADDMA1999999098711MD1210161+9999REMSYN060AAXX  01021 01020 46/// /1111 10019 2//// 39871 49881 52016;
0101010200999992013010103004+76483+016550FM-12+001099999V0201101N011019999999N9999999N1+00191+99999098871ADDMA1999999098761MD1210151+9999REMSYN060AAXX  01031 01020 46/// /1111 10019 2//// 39876 49887 52015;
0101010200999992013010104004+76483+016550FM-12+001099999V0201101N011019999999N9999999N1+00191+99999098911ADDMA1999999098801MD1210131+9999REMSYN060AAXX  01041 01020 46/// /1111 10019 2//// 39880 49891 52013;
0101010200999992013010105004+76483+016550FM-12+001099999V0201101N011019999999N9999999N1+00181+99999098961ADDMA1999999098851MD1210141+9999REMSYN060AAXX  01051 01020 46/// /1111 10018 2//// 39885 49896 52014;
0130010200999992013010106004+76483+016550FM-12+001099999V0201101N009019999999N9999999N1+00161+99999099021ADDKA1999N+00161MA1999999098911MD1210151+9999REMSYN076AAXX  01061 01020 46/// /1109 10016 2//// 39891 49902 52015 333 20016 91114;
0101010200999992013010107004+76483+016550FM-12+001099999V0201001N010019999999N9999999N1+00151+99999099051ADDMA1999999098951MD1210141+9999REMSYN060AAXX  01071 01020 46/// /1010 10015 2//// 39895 49905 52014;
0101010200999992013010108004+76483+016550FM-12+001099999V0201001N008019999999N9999999N1+00141+99999099111ADDMA1999999099001MD1210151+9999REMSYN060AAXX  01081 01020 46/// /1008 10014 2//// 39900 49911 52015;
0101010200999992013010109004+76483+016550FM-12+001099999V0200901N009019999999N9999999N1+00141+99999099131ADDMA1999999099031MD1210121+9999REMSYN060AAXX  01091 01020 46/// /0909 10014 2//// 39903 49913 52012;
0101010200999992013010110004+76483+016550FM-12+001099999V0200901N007019999999N9999999N1+00111+99999099181ADDMA1999999099081MD1210131+9999REMSYN060AAXX  01101 01020 46/// /0907 10011 2//// 39908 49918 52013;
0101010200999992013010111004+76483+016550FM-12+001099999V0200801N007019999999N9999999N1+00081+99999099191ADDMA1999999099081MD1210081+9999REMSYN060AAXX  01111 01020 46/// /0807 10008 2//// 39908 49919 52008;
0111010200999992013010112004+76483+016550FM-12+001099999V0200701N007019999999N9999999N1+00071+99999099191ADDMA1999999099081MD1310051+9999REMSYN070AAXX  01121 01020 46/// /0707 10007 2//// 39908 49919 53005 333 91112;
0101010200999992013010113004+76483+016550FM-12+001099999V0200701N008019999999N9999999N1+00061+99999099211ADDMA1999999099101MD1410001+9999REMSYN060AAXX  01131 01020 46/// /0708 10006 2//// 39910 49921 54003;
0101010200999992013010114004+76483+016550FM-12+001099999V0200701N008019999999N9999999N1+00031+99999099201ADDMA1999999099091MD1410001+9999REMSYN060AAXX  01141 01020 46/// /0708 10003 2//// 39909 49920 54001;
0101010200999992013010115004+76483+016550FM-12+001099999V0200601N009019999999N9999999N1-00021+99999099181ADDMA1999999099081MD1510011+9999REMSYN060AAXX  01151 01020 46/// /0609 11002 2//// 39908 49918 55001;
0101010200999992013010116004+76483+016550FM-12+001099999V0200501N008019999999N9999999N1-00021+99999099201ADDMA1999999099101MD1410001+9999REMSYN060AAXX  01161 01020 46/// /0508 11002 2//// 39910 49920 54001;
0101010200999992013010117004+76483+016550FM-12+001099999V0200501N007019999999N9999999N1-00011+99999099211ADDMA1999999099111MD1410001+9999REMSYN060AAXX  01171 01020 46/// /0507 11001 2//// 39911 49921 54001;
0130010200999992013010118004+76483+016550FM-12+001099999V0200501N007019999999N9999999N1-00021+99999099201ADDKA1120M+00171MA1999999099101MD1410001+9999REMSYN076AAXX  01181 01020 46/// /0507 11002 2//// 39910 49920 54002 333 10017 91111;
0101010200999992013010119004+76483+016550FM-12+001099999V0200501N009019999999N9999999N1-00031+99999099201ADDMA1999999099091MD1410001+9999REMSYN060AAXX  01191 01020 46/// /0509 11003 2//// 39909 49920 54000;
0101010200999992013010120004+76483+016550FM-12+001099999V0200401N009019999999N9999999N1-00061+99999099211ADDMA1999999099101MD1410001+9999REMSYN060AAXX  01201 01020 46/// /0409 11006 2//// 39910 49921 54000;
0101010200999992013010121004+76483+016550FM-12+001099999V0200401N007019999999N9999999N1-00031+99999099221ADDMA1999999099121MD1410001+9999REMSYN060AAXX  01211 01020 46/// /0407 11003 2//// 39912 49922 54002;
0101010200999992013010122004+76483+016550FM-12+001099999V0200401N007019999999N9999999N1-00031+99999099211ADDMA1999999099111MD1410001+9999REMSYN060AAXX  01221 01020 46/// /0407 11003 2//// 39911 49921 54002;
0101010200999992013010123004+76483+016550FM-12+001099999V0200301N006019999999N9999999N1-00031+99999099221ADDMA1999999099111MD1410001+9999REMSYN060AAXX  01231 01020 46/// /0306 11003 2//// 39911 49922 54001;
0111010200999992013010200004+76483+016550FM-12+001099999V0200401N006019999999N9999999N1-00021+99999099211ADDMA1999999099111MD1410001+9999REMSYN070AAXX  02001 01020 46/// /0406 11002 2//// 39911 49921 54001 333 91110;
0101010200999992013010201004+76483+016550FM-12+001099999V0200401N006019999999N9999999N1-00031+99999099241ADDMA1999999099141MD1410001+9999REMSYN060AAXX  02011 01020 46/// /0406 11003 2//// 39914 49924 54003;
0101010200999992013010202004+76483+016550FM-12+001099999V0200401N005019999999N9999999N1-00031+99999099231ADDMA1999999099131MD1410001+9999REMSYN060AAXX  02021 01020 46/// /0405 11003 2//// 39913 49923 54002;
0101010200999992013010203004+76483+016550FM-12+001099999V0200401N005019999999N9999999N1-00031+99999099241ADDMA1999999099141MD1410001+9999REMSYN060AAXX  02031 01020 46/// /0405 11003 2//// 39914 49924 54003;
0101010200999992013010204004+76483+016550FM-12+001099999V0200401N005019999999N9999999N1-00051+99999099221ADDMA1999999099121MD1410001+9999REMSYN060AAXX  02041 01020 46/// /0405 11005 2//// 39912 49922 54002;
0101010200999992013010207004+76483+016550FM-12+001099999V0200501N005019999999N9999999N1-00041+99999099251ADDMA1999999099151MD1210031+9999REMSYN060AAXX  02071 01020 46/// /0505 11004 2//// 39915 49925 52003;
0101010200999992013010208004+76483+016550FM-12+001099999V0200501N004019999999N9999999N1-00031+99999099271ADDMA1999999099161MD1410001+9999REMSYN060AAXX  02081 01020 46/// /0504 11003 2//// 39916 49927 54003;
0101010200999992013010209004+76483+016550FM-12+001099999V0200501N004019999999N9999999N1-00071+99999099271ADDMA1999999099171MD1210041+9999REMSYN060AAXX  02091 01020 46/// /0504 11007 2//// 39917 49927 52004;
0101010200999992013010210004+76483+016550FM-12+001099999V0200401N005019999999N9999999N1-00041+99999099251ADDMA1999999099151MD1510001+9999REMSYN060AAXX  02101 01020 46/// /0405 11004 2//// 39915 49925 55000;
0101010200999992013010211004+76483+016550FM-12+001099999V0200401N003019999999N9999999N1-00031+99999099271ADDMA1999999099171MD1410001+9999REMSYN060AAXX  02111 01020 46/// /0403 11003 2//// 39917 49927 54000;
0111010200999992013010212004+76483+016550FM-12+001099999V0200501N005019999999N9999999N1-00061+99999099271ADDMA1999999099161MD1410001+9999REMSYN070AAXX  02121 01020 46/// /0505 11006 2//// 39916 49927 54001 333 91107;
0101010200999992013010213004+76483+016550FM-12+001099999V0200501N004019999999N9999999N1-00141+99999099251ADDMA1999999099151MD1510001+9999REMSYN060AAXX  02131 01020 46/// /0504 11014 2//// 39915 49925 55000;
0101010200999992013010214004+76483+016550FM-12+001099999V0200601N004019999999N9999999N1-00161+99999099241ADDMA1999999099131MD1710031+9999REMSYN060AAXX  02141 01020 46/// /0604 11016 2//// 39913 49924 57003;
0101010200999992013010215004+76483+016550FM-12+001099999V0200701N004019999999N9999999N1-00111+99999099231ADDMA1999999099121MD1710041+9999REMSYN060AAXX  02151 01020 46/// /0704 11011 2//// 39912 49923 57004;
0101010200999992013010216004+76483+016550FM-12+001099999V0200701N005019999999N9999999N1-00131+99999099211ADDMA1999999099101MD1710051+9999REMSYN060AAXX  02161 01020 46/// /0705 11013 2//// 39910 49921 57005;
0101010200999992013010217004+76483+016550FM-12+001099999V0200601N005019999999N9999999N1-00091+99999099171ADDMA1999999099071MD1710061+9999REMSYN060AAXX  02171 01020 46/// /0605 11009 2//// 39907 49917 57006;
0130010200999992013010218004+76483+016550FM-12+001099999V0200501N006019999999N9999999N1-00131+99999099131ADDKA1120M-00011MA1999999099031MD1710101+9999REMSYN076AAXX  02181 01020 46/// /0506 11013 2//// 39903 49913 57010 333 11001 91107;
0101010200999992013010219004+76483+016550FM-12+001099999V0200501N007019999999N9999999N1-00121+99999099111ADDMA1999999099001MD1710101+9999REMSYN060AAXX  02191 01020 46/// /0507 11012 2//// 39900 49911 57010;
0101010200999992013010220004+76483+016550FM-12+001099999V0200501N009019999999N9999999N1-00121+99999099071ADDMA1999999098961MD1710111+9999REMSYN060AAXX  02201 01020 46/// /0509 11012 2//// 39896 49907 57011;
0101010200999992013010221004+76483+016550FM-12+001099999V0200501N007019999999N9999999N1-00121+99999099091ADDMA1999999098981MD1810041+9999REMSYN060AAXX  02211 01020 46/// /0507 11012 2//// 39898 49909 58004;
0101010200999992013010222004+76483+016550FM-12+001099999V0200701N005019999999N9999999N1-00141+99999099101ADDMA1999999099001MD1010001+9999REMSYN060AAXX  02221 01020 46/// /0705 11014 2//// 39900 49910 50000;
0101010200999992013010223004+76483+016550FM-12+001099999V0200501N005019999999N9999999N1-00161+99999099091ADDMA1999999098991MD1510031+9999REMSYN060AAXX  02231 01020 46/// /0505 11016 2//// 39899 49909 55003;
0101010200999992013010302004+76483+016550FM-12+001099999V0200801N003019999999N9999999N1-00161+99999099071ADDMA1999999098961MD1410001+9999REMSYN060AAXX  03021 01020 46/// /0803 11016 2//// 39896 49907 54003;
0101010200999992013010303004+76483+016550FM-12+001099999V0201801N001019999999N9999999N1-00131+99999099091ADDMA1999999098981MD1410001+9999REMSYN060AAXX  03031 01020 46/// /1801 11013 2//// 39898 49909 54000;
0101010200999992013010304004+76483+016550FM-12+001099999V0202801N009019999999N9999999N1-00131+99999099081ADDMA1999999098981MD1410001+9999REMSYN060AAXX  03041 01020 46/// /2809 11013 2//// 39898 49908 54001;
0101010200999992013010305004+76483+016550FM-12+001099999V0202901N008019999999N9999999N1-00141+99999099111ADDMA1999999099011MD1210051+9999REMSYN060AAXX  03051 01020 46/// /2908 11014 2//// 39901 49911 52005;
0101010200999992013010306004+76483+016550FM-12+001099999V0203201N006019999999N9999999N1-00171+99999099121ADDMA1999999099021MD1210031+9999REMSYN060AAXX  03061 01020 46/// /3206 11017 2//// 39902 49912 52003;
0101010200999992013010308004+76483+016550FM-12+001099999V0203201N005019999999N9999999N1-00231+99999099181ADDMA1999999099081MD1210071+9999REMSYN060AAXX  03081 01020 46/// /3205 11023 2//// 39908 49918 52007;
0101010200999992013010309004+76483+016550FM-12+001099999V0203301N006019999999N9999999N1-00221+99999099211ADDMA1999999099101MD1210091+9999REMSYN060AAXX  03091 01020 46/// /3306 11022 2//// 39910 49921 52009;
0101010200999992013010310004+76483+016550FM-12+001099999V0203301N005019999999N9999999N1-00281+99999099241ADDMA1999999099131MD1210081+9999REMSYN060AAXX  03101 01020 46/// /3305 11028 2//// 39913 49924 52008;
0101010200999992013010311004+76483+016550FM-12+001099999V0203301N005019999999N9999999N1-00361+99999099241ADDMA1999999099131MD1210061+9999REMSYN060AAXX  03111 01020 46/// /3305 11036 2//// 39913 49924 52006;
0111010200999992013010312004+76483+016550FM-12+001099999V0203401N004019999999N9999999N1-00341+99999099241ADDMA1999999099131MD1510031+9999REMSYN070AAXX  03121 01020 46/// /3404 11034 2//// 39913 49924 55003 333 91107;
0101010200999992013010313004+76483+016550FM-12+001099999V0203101N003019999999N9999999N1-00271+99999099261ADDMA1999999099151MD1410001+9999REMSYN060AAXX  03131 01020 46/// /3103 11027 2//// 39915 49926 54002;
0101010200999992013010314004+76483+016550FM-12+001099999V0200201N001019999999N9999999N1-00321+99999099301ADDMA1999999099191MD1110061+9999REMSYN060AAXX  03141 01020 46/// /0201 11032 2//// 39919 49930 51006;
0101010200999992013010315004+76483+016550FM-12+001099999V0200801N004019999999N9999999N1-00291+99999099311ADDMA1999999099201MD1210071+9999REMSYN060AAXX  03151 01020 46/// /0804 11029 2//// 39920 49931 52007;
0101010200999992013010316004+76483+016550FM-12+001099999V0200601N006019999999N9999999N1-00311+99999099331ADDMA1999999099231MD1210071+9999REMSYN060AAXX  03161 01020 46/// /0606 11031 2//// 39923 49933 52007;
0101010200999992013010317004+76483+016550FM-12+001099999V0200501N006019999999N9999999N1-00311+99999099331ADDMA1999999099231MD1210041+9999REMSYN060AAXX  03171 01020 46/// /0506 11031 2//// 39923 49933 52004;
0130010200999992013010318004+76483+016550FM-12+001099999V0200501N006019999999N9999999N1-00331+99999099351ADDKA1120M-00171MA1999999099241MD1210041+9999REMSYN076AAXX  03181 01020 46/// /0506 11033 2//// 39924 49935 52004 333 11017 91107;
0101010200999992013010319004+76483+016550FM-12+001099999V0200301N004019999999N9999999N1-00321+99999099381ADDMA1999999099281MD1110051+9999REMSYN060AAXX  03191 01020 46/// /0304 11032 2//// 39928 49938 51005;
0101010200999992013010320004+76483+016550FM-12+001099999V0200301N004019999999N9999999N1-00291+99999099411ADDMA1999999099311MD1210081+9999REMSYN060AAXX  03201 01020 46/// /0304 11029 2//// 39931 49941 52008;
0101010200999992013010321004+76483+016550FM-12+001099999V0203501N002019999999N9999999N1-00351+99999099441ADDMA1999999099331MD1210101+9999REMSYN060AAXX  03211 01020 46/// /3502 11035 2//// 39933 49944 52010;
0101010200999992013010322004+76483+016550FM-12+001099999V0200101N001019999999N9999999N1-00331+99999099471ADDMA1999999099371MD1210091+9999REMSYN060AAXX  03221 01020 46/// /0101 11033 2//// 39937 49947 52009;
0101010200999992013010323004+76483+016550FM-12+001099999V0203401N004019999999N9999999N1-00281+99999099511ADDMA1999999099411MD1210101+9999REMSYN060AAXX  03231 01020 46/// /3404 11028 2//// 39941 49951 52010;
0111010200999992013010400004+76483+016550FM-12+001099999V0200801N007019999999N9999999N1-00081+99999099551ADDMA1999999099441MD1210111+9999REMSYN070AAXX  04001 01020 46/// /0807 11008 2//// 39944 49955 52011 333 91110;
0101010200999992013010401004+76483+016550FM-12+001099999V0200601N010019999999N9999999N1-00091+99999099611ADDMA1999999099501MD1210131+9999REMSYN060AAXX  04011 01020 46/// /0610 11009 2//// 39950 49961 52013;
0101010200999992013010402004+76483+016550FM-12+001099999V0200501N009019999999N9999999N1-00091+99999099701ADDMA1999999099591MD1110191+9999REMSYN060AAXX  04021 01020 46/// /0509 11009 2//// 39959 49970 51019;
0101010200999992013010403004+76483+016550FM-12+001099999V0200401N008019999999N9999999N1-00121+99999099781ADDMA1999999099681MD1110241+9999REMSYN060AAXX  04031 01020 46/// /0408 11012 2//// 39968 49978 51024;
0101010200999992013010404004+76483+016550FM-12+001099999V0200501N010019999999N9999999N1-00121+99999099851ADDMA1999999099741MD1210241+9999REMSYN060AAXX  04041 01020 46/// /0510 11012 2//// 39974 49985 52024;
0101010200999992013010405004+76483+016550FM-12+001099999V0200401N010019999999N9999999N1-00111+99999099921ADDMA1999999099821MD1210231+9999REMSYN060AAXX  04051 01020 46/// /0410 11011 2//// 39982 49992 52023;
0130010200999992013010406004+76483+016550FM-12+001099999V0200401N010019999999N9999999N1-00121+99999100011ADDKA1999N-00391MA1999999099901MD1210221+9999REMSYN076AAXX  04061 01020 46/// /0410 11012 2//// 39990 40001 52022 333 21039 91112;
0101010200999992013010407004+76483+016550FM-12+001099999V0200401N011019999999N9999999N1-00131+99999100111ADDMA1999999100001MD1210261+9999REMSYN060AAXX  04071 01020 46/// /0411 11013 2//// 30000 40011 52026;
0101010200999992013010408004+76483+016550FM-12+001099999V0200401N011019999999N9999999N1-00241+99999100191ADDMA1999999100081MD1210271+9999REMSYN060AAXX  04081 01020 46/// /0411 11024 2//// 30008 40019 52027;
0101010200999992013010409004+76483+016550FM-12+001099999V0200401N012019999999N9999999N1-00231+99999100271ADDMA1999999100161MD1210261+9999REMSYN060AAXX  04091 01020 46/// /0412 11023 2//// 30016 40027 52026;
0101010200999992013010410004+76483+016550FM-12+001099999V0200401N011019999999N9999999N1-00271+99999100351ADDMA1999999100241MD1210241+9999REMSYN060AAXX  04101 01020 46/// /0411 11027 2//// 30024 40035 52024;
0101010200999992013010411004+76483+016550FM-12+001099999V0200401N010019999999N9999999N1-00311+99999100471ADDMA1999999100371MD1110281+9999REMSYN060AAXX  04111 01020 46/// /0410 11031 2//// 30037 40047 51028;
0111010200999992013010412004+76483+016550FM-12+001099999V0200401N010019999999N9999999N1-00301+99999100571ADDMA1999999100461MD1210301+9999REMSYN070AAXX  04121 01020 46/// /0410 11030 2//// 30046 40057 52030 333 91114;
0101010200999992013010413004+76483+016550FM-12+001099999V0200401N009019999999N9999999N1-00291+99999100621ADDMA1999999100511MD1310271+9999REMSYN060AAXX  04131 01020 46/// /0409 11029 2//// 30051 40062 53027;
0101010200999992013010414004+76483+016550FM-12+001099999V0200401N010019999999N9999999N1-00281+99999100701ADDMA1999999100591MD1210221+9999REMSYN060AAXX  04141 01020 46/// /0410 11028 2//// 30059 40070 52022;
0101010200999992013010415004+76483+016550FM-12+001099999V0200401N008019999999N9999999N1-00291+99999100801ADDMA1999999100691MD1110231+9999REMSYN060AAXX  04151 01020 46/// /0408 11029 2//// 30069 40080 51023;
0101010200999992013010416004+76483+016550FM-12+001099999V0200401N006019999999N9999999N1-00341+99999100881ADDMA1999999100771MD1210261+9999REMSYN060AAXX  04161 01020 46/// /0406 11034 2//// 30077 40088 52026;
0101010200999992013010417004+76483+016550FM-12+001099999V0200401N005019999999N9999999N1-00361+99999100951ADDMA1999999100841MD1310251+9999REMSYN060AAXX  04171 01020 46/// /0405 11036 2//// 30084 40095 53025;
0130010200999992013010418004+76483+016550FM-12+001099999V0200401N007019999999N9999999N1-00341+99999100991ADDKA1120M-00121MA1999999100881MD1310191+9999REMSYN076AAXX  04181 01020 46/// /0407 11034 2//// 30088 40099 53019 333 11012 91112;
0101010200999992013010420004+76483+016550FM-12+001099999V0200401N007019999999N9999999N1-00361+99999101111ADDMA1999999101011MD1210171+9999REMSYN060AAXX  04201 01020 46/// /0407 11036 2//// 30101 40111 52017;
0101010200999992013010421004+76483+016550FM-12+001099999V0200501N007019999999N9999999N1-00341+99999101201ADDMA1999999101101MD1210221+9999REMSYN060AAXX  04211 01020 46/// /0507 11034 2//// 30110 40120 52022;
0101010200999992013010422004+76483+016550FM-12+001099999V0200501N007019999999N9999999N1-00361+99999101251ADDMA1999999101141MD1210201+9999REMSYN060AAXX  04221 01020 46/// /0507 11036 2//// 30114 40125 52020;
0101010200999992013010423004+76483+016550FM-12+001099999V0200501N006019999999N9999999N1-00371+99999101311ADDMA1999999101201MD1310201+9999REMSYN060AAXX  04231 01020 46/// /0506 11037 2//// 30120 40131 53020;
0101010200999992013010500004+76483+016550FM-12+001099999V0200501N006019999999N9999999N1-00341+99999101341ADDMA1999999101231MD1210141+9999REMSYN060AAXX  05001 01020 46/// /0506 11034 2//// 30123 40134 52014;
0101010200999992013010501004+76483+016550FM-12+001099999V0200501N006019999999N9999999N1-00371+99999101391ADDMA1999999101281MD1210141+9999REMSYN060AAXX  05011 01020 46/// /0506 11037 2//// 30128 40139 52014;
0101010200999992013010502004+76483+016550FM-12+001099999V0200501N007019999999N9999999N1-00341+99999101431ADDMA1999999101321MD1210121+9999REMSYN060AAXX  05021 01020 46/// /0507 11034 2//// 30132 40143 52012;
0101010200999992013010503004+76483+016550FM-12+001099999V0200501N006019999999N9999999N1-00371+99999101491ADDMA1999999101381MD1210141+9999REMSYN060AAXX  05031 01020 46/// /0506 11037 2//// 30138 40149 52014;
0101010200999992013010504004+76483+016550FM-12+001099999V0200501N007019999999N9999999N1-00351+99999101491ADDMA1999999101381MD1310101+9999REMSYN060AAXX  05041 01020 46/// /0507 11035 2//// 30138 40149 53010;
0101010200999992013010505004+76483+016550FM-12+001099999V0200601N007019999999N9999999N1-00291+99999101511ADDMA1999999101401MD1310091+9999REMSYN060AAXX  05051 01020 46/// /0607 11029 2//// 30140 40151 53009;
0111010200999992013010506004+76483+016550FM-12+001099999V0200601N006019999999N9999999N1-00251+99999101581ADDMA1999999101471MD1110101+9999REMSYN070AAXX  05061 01020 46/// /0606 11025 2//// 30147 40158 51010 333 91108;
0101010200999992013010507004+76483+016550FM-12+001099999V0200701N005019999999N9999999N1-00181+99999101591ADDMA1999999101481MD1210101+9999REMSYN060AAXX  05071 01020 46/// /0705 11018 2//// 30148 40159 52010;
0101010200999992013010508004+76483+016550FM-12+001099999V0201201N007019999999N9999999N1-00141+99999101621ADDMA1999999101511MD1310111+9999REMSYN060AAXX  05081 01020 46/// /1207 11014 2//// 30151 40162 53011;
0101010200999992013010509004+76483+016550FM-12+001099999V0201201N006019999999N9999999N1-00111+99999101681ADDMA1999999101571MD1110101+9999REMSYN060AAXX  05091 01020 46/// /1206 11011 2//// 30157 40168 51010;
0101010200999992013010510004+76483+016550FM-12+001099999V0201201N007019999999N9999999N1-00111+99999101691ADDMA1999999101581MD1210101+9999REMSYN060AAXX  05101 01020 46/// /1207 11011 2//// 30158 40169 52010;
0101010200999992013010511004+76483+016550FM-12+001099999V0201201N006019999999N9999999N1-00091+99999101711ADDMA1999999101601MD1310091+9999REMSYN060AAXX  05111 01020 46/// /1206 11009 2//// 30160 40171 53009;
0111010200999992013010512004+76483+016550FM-12+001099999V0201301N006019999999N9999999N1-00071+99999101731ADDMA1999999101621MD1210061+9999REMSYN070AAXX  05121 01020 46/// /1306 11007 2//// 30162 40173 52006 333 91108;
0101010200999992013010513004+76483+016550FM-12+001099999V0201301N007019999999N9999999N1-00031+99999101691ADDMA1999999101581MD1510001+9999REMSYN060AAXX  05131 01020 46/// /1307 11003 2//// 30158 40169 55000;
0101010200999992013010514004+76483+016550FM-12+001099999V0201301N008019999999N9999999N1-00041+99999101641ADDMA1999999101541MD1610061+9999REMSYN060AAXX  05141 01020 46/// /1308 11004 2//// 30154 40164 56006;
0101010200999992013010515004+76483+016550FM-12+001099999V0201301N009019999999N9999999N1-00071+99999101611ADDMA1999999101501MD1710121+9999REMSYN060AAXX  05151 01020 46/// /1309 11007 2//// 30150 40161 57012;
0101010200999992013010516004+76483+016550FM-12+001099999V0201301N009019999999N9999999N1-00071+99999101581ADDMA1999999101471MD1710111+9999REMSYN060AAXX  05161 01020 46/// /1309 11007 2//// 30147 40158 57011;
0101010200999992013010517004+76483+016550FM-12+001099999V0201301N010019999999N9999999N1-00071+99999101521ADDMA1999999101421MD1710121+9999REMSYN060AAXX  05171 01020 46/// /1310 11007 2//// 30142 40152 57012;
0130010200999992013010518004+76483+016550FM-12+001099999V0201201N011019999999N9999999N1-00051+99999101401ADDKA1120M-00021MA1999999101291MD1610201+9999REMSYN076AAXX  05181 01020 46/// /1211 11005 2//// 30129 40140 56020 333 11002 91112;
0101010200999992013010519004+76483+016550FM-12+001099999V0201301N012019999999N9999999N1-00031+99999101291ADDMA1999999101181MD1610291+9999REMSYN060AAXX  05191 01020 46/// /1312 11003 2//// 30118 40129 56029;
0101010200999992013010520004+76483+016550FM-12+001099999V0201301N012019999999N9999999N1+00011+99999101181ADDMA1999999101071MD1710351+9999REMSYN060AAXX  05201 01020 46/// /1312 10001 2//// 30107 40118 57035;
0101010200999992013010521004+76483+016550FM-12+001099999V0201301N012019999999N9999999N1+00041+99999101051ADDMA1999999100941MD1710351+9999REMSYN060AAXX  05211 01020 46/// /1312 10004 2//// 30094 40105 57035;
0101010200999992013010522004+76483+016550FM-12+001099999V0201401N014019999999N9999999N1+00111+99999100901ADDMA1999999100801MD1610381+9999REMSYN060AAXX  05221 01020 46/// /1414 10011 2//// 30080 40090 56038;
0101010200999992013010523004+76483+016550FM-12+001099999V0201401N014019999999N9999999N1+00141+99999100751ADDMA1999999100651MD1710421+9999REMSYN060AAXX  05231 01020 46/// /1414 10014 2//// 30065 40075 57042;
0101010200999992013010602004+76483+016550FM-12+001099999V0201401N013019999999N9999999N1+00211+99999100331ADDMA1999999100231MD1710421+9999REMSYN060AAXX  06021 01020 46/// /1413 10021 2//// 30023 40033 57042;
0101010200999992013010603004+76483+016550FM-12+001099999V0201601N014019999999N9999999N1+00241+99999100161ADDMA1999999100051MD1610451+9999REMSYN060AAXX  06031 01020 46/// /1614 10024 2//// 30005 40016 56045;
0101010200999992013010604004+76483+016550FM-12+001099999V0201401N013019999999N9999999N1+00231+99999100021ADDMA1999999099911MD1710451+9999REMSYN060AAXX  06041 01020 46/// /1413 10023 2//// 39991 40002 57045;
0101010200999992013010605004+76483+016550FM-12+001099999V0201601N016019999999N9999999N1+00271+99999099851ADDMA1999999099741MD1710481+9999REMSYN060AAXX  06051 01020 46/// /1616 10027 2//// 39974 49985 57048;
0101010200999992013010606004+76483+016550FM-12+001099999V0201701N017019999999N9999999N1+00281+99999099761ADDMA1999999099651MD1810401+9999REMSYN060AAXX  06061 01020 46/// /1717 10028 2//// 39965 49976 58040;
0101010200999992013010608004+76483+016550FM-12+001099999V0201801N013019999999N9999999N1+00311+99999099671ADDMA1999999099571MD1810171+9999REMSYN060AAXX  06081 01020 46/// /1813 10031 2//// 39957 49967 58017;
0101010200999992013010609004+76483+016550FM-12+001099999V0201801N010019999999N9999999N1+00321+99999099631ADDMA1999999099521MD1810131+9999REMSYN060AAXX  06091 01020 46/// /1810 10032 2//// 39952 49963 58013;
0101010200999992013010610004+76483+016550FM-12+001099999V0201801N009019999999N9999999N1+00321+99999099591ADDMA1999999099491MD1610081+9999REMSYN060AAXX  06101 01020 46/// /1809 10032 2//// 39949 49959 56008;
0101010200999992013010611004+76483+016550FM-12+001099999V0201901N007019999999N9999999N1+00301+99999099551ADDMA1999999099451MD1710121+9999REMSYN060AAXX  06111 01020 46/// /1907 10030 2//// 39945 49955 57012;
0101010200999992013010612004+76483+016550FM-12+001099999V0201901N007019999999N9999999N1+00291+99999099521ADDMA1999999099421MD1710111+9999REMSYN060AAXX  06121 01020 46/// /1907 10029 2//// 39942 49952 57011;
0101010200999992013010613004+76483+016550FM-12+001099999V0201901N007019999999N9999999N1+00261+99999099491ADDMA1999999099381MD1710101+9999REMSYN060AAXX  06131 01020 46/// /1907 10026 2//// 39938 49949 57010;
0101010200999992013010614004+76483+016550FM-12+001099999V0201701N006019999999N9999999N1+00211+99999099441ADDMA1999999099341MD1710111+9999REMSYN060AAXX  06141 01020 46/// /1706 10021 2//// 39934 49944 57011;
0101010200999992013010615004+76483+016550FM-12+001099999V0201701N007019999999N9999999N1+00231+99999099371ADDMA1999999099271MD1610151+9999REMSYN060AAXX  06151 01020 46/// /1707 10023 2//// 39927 49937 56015;
0101010200999992013010616004+76483+016550FM-12+001099999V0201701N008019999999N9999999N1+00261+99999099301ADDMA1999999099191MD1710191+9999REMSYN060AAXX  06161 01020 46/// /1708 10026 2//// 39919 49930 57019;
0101010200999992013010617004+76483+016550FM-12+001099999V0201801N007019999999N9999999N1+00281+99999099241ADDMA1999999099141MD1710201+9999REMSYN060AAXX  06171 01020 46/// /1807 10028 2//// 39914 49924 57020;
0111010200999992013010618004+76483+016550FM-12+001099999V0201801N007019999999N9999999N1+00251+99999099201ADDMA1999999099091MD1710171+9999REMSYN070AAXX  06181 01020 46/// /1807 10025 2//// 39909 49920 57017 333 91109;
0101010200999992013010619004+76483+016550FM-12+001099999V0201901N007019999999N9999999N1+00261+99999099191ADDMA1999999099091MD1810111+9999REMSYN060AAXX  06191 01020 46/// /1907 10026 2//// 39909 49919 58011;
0101010200999992013010620004+76483+016550FM-12+001099999V0202201N006019999999N9999999N1+00191+99999099201ADDMA1999999099091MD1810041+9999REMSYN060AAXX  06201 01020 46/// /2206 10019 2//// 39909 49920 58004;
0101010200999992013010621004+76483+016550FM-12+001099999V0202601N008019999999N9999999N1+00181+99999099261ADDMA1999999099151MD1110061+9999REMSYN060AAXX  06211 01020 46/// /2608 10018 2//// 39915 49926 51006;
0101010200999992013010622004+76483+016550FM-12+001099999V0202701N010019999999N9999999N1+00111+99999099371ADDMA1999999099261MD1110181+9999REMSYN060AAXX  06221 01020 46/// /2710 10011 2//// 39926 49937 51018;
0101010200999992013010623004+76483+016550FM-12+001099999V0202701N012019999999N9999999N1+00081+99999099491ADDMA1999999099381MD1110291+9999REMSYN060AAXX  06231 01020 46/// /2712 10008 2//// 39938 49949 51029;
0111010200999992013010700004+76483+016550FM-12+001099999V0202701N011019999999N9999999N1+00061+99999099611ADDMA1999999099501MD1210351+9999REMSYN070AAXX  07001 01020 46/// /2711 10006 2//// 39950 49961 52035 333 91114;
0101010200999992013010701004+76483+016550FM-12+001099999V0202701N009019999999N9999999N1+00051+99999099691ADDMA1999999099581MD1310321+9999REMSYN060AAXX  07011 01020 46/// /2709 10005 2//// 39958 49969 53032;
0101010200999992013010702004+76483+016550FM-12+001099999V0202601N013019999999N9999999N1+00051+99999099751ADDMA1999999099641MD1310261+9999REMSYN060AAXX  07021 01020 46/// /2613 10005 2//// 39964 49975 53026;
0101010200999992013010703004+76483+016550FM-12+001099999V0202601N010019999999N9999999N1+00101+99999099771ADDMA1999999099661MD1310161+9999REMSYN060AAXX  07031 01020 46/// /2610 10010 2//// 39966 49977 53016;
0101010200999992013010704004+76483+016550FM-12+001099999V0202501N011019999999N9999999N1+00161+99999099771ADDMA1999999099671MD1310091+9999REMSYN060AAXX  07041 01020 46/// /2511 10016 2//// 39967 49977 53009;
0101010200999992013010705004+76483+016550FM-12+001099999V0202301N011019999999N9999999N1+00121+99999099751ADDMA1999999099641MD1510001+9999REMSYN060AAXX  07051 01020 46/// /2311 10012 2//// 39964 49975 55000;
0130010200999992013010706004+76483+016550FM-12+001099999V0202501N011019999999N9999999N1+00121+99999099761ADDKA1999N+00031MA1999999099661MD1410001+9999REMSYN076AAXX  07061 01020 46/// /2511 10012 2//// 39966 49976 54000 333 20003 91116;
0101010200999992013010707004+76483+016550FM-12+001099999V0202401N012019999999N9999999N1+00111+99999099751ADDMA1999999099651MD1410001+9999REMSYN060AAXX  07071 01020 46/// /2412 10011 2//// 39965 49975 54002;
0101010200999992013010708004+76483+016550FM-12+001099999V0202301N011019999999N9999999N1+00151+99999099761ADDMA1999999099661MD1410001+9999REMSYN060AAXX  07081 01020 46/// /2311 10015 2//// 39966 49976 54002;
0101010200999992013010709004+76483+016550FM-12+001099999V0202401N012019999999N9999999N1+00131+99999099751ADDMA1999999099651MD1410001+9999REMSYN060AAXX  07091 01020 46/// /2412 10013 2//// 39965 49975 54001;
0101010200999992013010710004+76483+016550FM-12+001099999V0202401N013019999999N9999999N1+00171+99999099731ADDMA1999999099631MD1510021+9999REMSYN060AAXX  07101 01020 46/// /2413 10017 2//// 39963 49973 55002;
0101010200999992013010711004+76483+016550FM-12+001099999V0202501N014019999999N9999999N1+00131+99999099731ADDMA1999999099631MD1410001+9999REMSYN060AAXX  07111 01020 46/// /2514 10013 2//// 39963 49973 54003;
0111010200999992013010712004+76483+016550FM-12+001099999V0202401N013019999999N9999999N1+00051+99999099771ADDMA1999999099661MD1010021+9999REMSYN070AAXX  07121 01020 46/// /2413 10005 2//// 39966 49977 50002 333 91118;
0101010200999992013010713004+76483+016550FM-12+001099999V0202501N015019999999N9999999N1+00011+99999099771ADDMA1999999099661MD1210031+9999REMSYN060AAXX  07131 01020 46/// /2515 10001 2//// 39966 49977 52003;
0101010200999992013010714004+76483+016550FM-12+001099999V0202501N015019999999N9999999N1-00061+99999099831ADDMA1999999099721MD1210091+9999REMSYN060AAXX  07141 01020 46/// /2515 11006 2//// 39972 49983 52009;
0101010200999992013010715004+76483+016550FM-12+001099999V0202601N014019999999N9999999N1-00191+99999099911ADDMA1999999099811MD1110141+9999REMSYN060AAXX  07151 01020 46/// /2614 11019 2//// 39981 49991 51014;
0101010200999992013010716004+76483+016550FM-12+001099999V0202601N013019999999N9999999N1-00261+99999099961ADDMA1999999099851MD1210191+9999REMSYN060AAXX  07161 01020 46/// /2613 11026 2//// 39985 49996 52019;
0101010200999992013010717004+76483+016550FM-12+001099999V0202601N014019999999N9999999N1-00241+99999099981ADDMA1999999099881MD1310151+9999REMSYN060AAXX  07171 01020 46/// /2614 11024 2//// 39988 49998 53015;
0130010200999992013010718004+76483+016550FM-12+001099999V0202701N013019999999N9999999N1-00311+99999100021ADDKA1120M+00201MA1999999099911MD1210101+9999REMSYN076AAXX  07181 01020 46/// /2713 11031 2//// 39991 40002 52010 333 10020 91118;
0101010200999992013010719004+76483+016550FM-12+001099999V0202601N012019999999N9999999N1-00361+99999100111ADDMA1999999100001MD1110151+9999REMSYN060AAXX  07191 01020 46/// /2612 11036 2//// 30000 40011 51015;
0101010200999992013010720004+76483+016550FM-12+001099999V0202501N014019999999N9999999N1-00331+99999100101ADDMA1999999099991MD1310121+9999REMSYN060AAXX  07201 01020 46/// /2514 11033 2//// 39999 40010 53012;
0101010200999992013010721004+76483+016550FM-12+001099999V0202601N012019999999N9999999N1-00301+99999100141ADDMA1999999100031MD1310121+9999REMSYN060AAXX  07211 01020 46/// /2612 11030 2//// 30003 40014 53012;
0101010200999992013010722004+76483+016550FM-12+001099999V0202701N012019999999N9999999N1-00281+99999100141ADDMA1999999100031MD1210041+9999REMSYN060AAXX  07221 01020 46/// /2712 11028 2//// 30003 40014 52004;
0101010200999992013010723004+76483+016550FM-12+001099999V0202701N012019999999N9999999N1-00271+99999100171ADDMA1999999100061MD1210071+9999REMSYN060AAXX  07231 01020 46/// /2712 11027 2//// 30006 40017 52007;
0111010200999992013010800004+76483+016550FM-12+001099999V0202601N011019999999N9999999N1-00251+99999100171ADDMA1999999100061MD1210031+9999REMSYN070AAXX  08001 01020 46/// /2611 11025 2//// 30006 40017 52003 333 91117;
0101010200999992013010801004+76483+016550FM-12+001099999V0202801N008019999999N9999999N1-00281+99999100171ADDMA1999999100061MD1410001+9999REMSYN060AAXX  08011 01020 46/// /2808 11028 2//// 30006 40017 54003;
0101010200999992013010802004+76483+016550FM-12+001099999V0202701N007019999999N9999999N1-00271+99999100171ADDMA1999999100061MD1410001+9999REMSYN060AAXX  08021 01020 46/// /2707 11027 2//// 30006 40017 54000;
0101010200999992013010803004+76483+016550FM-12+001099999V0202801N007019999999N9999999N1-00281+99999100151ADDMA1999999100041MD1410001+9999REMSYN060AAXX  08031 01020 46/// /2807 11028 2//// 30004 40015 54002;
0101010200999992013010804004+76483+016550FM-12+001099999V0202801N006019999999N9999999N1-00301+99999100141ADDMA1999999100041MD1410001+9999REMSYN060AAXX  08041 01020 46/// /2806 11030 2//// 30004 40014 54002;
0101010200999992013010805004+76483+016550FM-12+001099999V0203001N005019999999N9999999N1-00351+99999100131ADDMA1999999100031MD1710031+9999REMSYN060AAXX  08051 01020 46/// /3005 11035 2//// 30003 40013 57003;
0130010200999992013010806004+76483+016550FM-12+001099999V0203201N006019999999N9999999N1-00361+99999100131ADDKA1999N-00371MA1999999100021MD1410001+9999REMSYN076AAXX  08061 01020 46/// /3206 11036 2//// 30002 40013 54002 333 21037 91111;
0101010200999992013010807004+76483+016550FM-12+001099999V0203201N007019999999N9999999N1-00361+99999100141ADDMA1999999100041MD1410001+9999REMSYN060AAXX  08071 01020 46/// /3207 11036 2//// 30004 40014 54000;
0101010200999992013010808004+76483+016550FM-12+001099999V0203201N006019999999N9999999N1-00381+99999100161ADDMA1999999100051MD1410001+9999REMSYN060AAXX  08081 01020 46/// /3206 11038 2//// 30005 40016 54003;
0101010200999992013010809004+76483+016550FM-12+001099999V0203401N007019999999N9999999N1-00421+99999100161ADDMA1999999100061MD1210041+9999REMSYN060AAXX  08091 01020 46/// /3407 11042 2//// 30006 40016 52004;
0101010200999992013010810004+76483+016550FM-12+001099999V0203401N007019999999N9999999N1-00441+99999100201ADDMA1999999100091MD1210051+9999REMSYN060AAXX  08101 01020 46/// /3407 11044 2//// 30009 40020 52005;
0101010200999992013010811004+76483+016550FM-12+001099999V0203401N007019999999N9999999N1-00471+99999100251ADDMA1999999100141MD1110091+9999REMSYN060AAXX  08111 01020 46/// /3407 11047 2//// 30014 40025 51009;
0111010200999992013010812004+76483+016550FM-12+001099999V0203401N006019999999N9999999N1-00491+99999100271ADDMA1999999100161MD1210101+9999REMSYN070AAXX  08121 01020 46/// /3406 11049 2//// 30016 40027 52010 333 91110;
0101010200999992013010813004+76483+016550FM-12+001099999V0203601N005019999999N9999999N1-00531+99999100321ADDMA1999999100211MD1210131+9999REMSYN060AAXX  08131 01020 46/// /3605 11053 2//// 30021 40032 52013;
0101010200999992013010814004+76483+016550FM-12+001099999V0203401N006019999999N9999999N1-00561+99999100381ADDMA1999999100281MD1110131+9999REMSYN060AAXX  08141 01020 46/// /3406 11056 2//// 30028 40038 51013;
0101010200999992013010815004+76483+016550FM-12+001099999V0203501N004019999999N9999999N1-00591+99999100451ADDMA1999999100341MD1210181+9999REMSYN060AAXX  08151 01020 46/// /3504 11059 2//// 30034 40045 52018;
0101010200999992013010816004+76483+016550FM-12+001099999V0203501N005019999999N9999999N1-00581+99999100521ADDMA1999999100411MD1210191+9999REMSYN060AAXX  08161 01020 46/// /3505 11058 2//// 30041 40052 52019;
0101010200999992013010817004+76483+016550FM-12+001099999V0203401N007019999999N9999999N1-00611+99999100611ADDMA1999999100511MD1110231+9999REMSYN060AAXX  08171 01020 46/// /3407 11061 2//// 30051 40061 51023;
0130010200999992013010818004+76483+016550FM-12+001099999V0203501N007019999999N9999999N1-00601+99999100681ADDKA1120M-00361MA1999999100571MD1210231+9999REMSYN076AAXX  08181 01020 46/// /3507 11060 2//// 30057 40068 52023 333 11036 91108;
0101010200999992013010819004+76483+016550FM-12+001099999V0200101N004019999999N9999999N1-00591+99999100761ADDMA1999999100651MD1210251+9999REMSYN060AAXX  08191 01020 46/// /0104 11059 2//// 30065 40076 52025;
0101010200999992013010821004+76483+016550FM-12+001099999V0203501N005019999999N9999999N1-00591+99999100941ADDMA1999999100831MD1210261+9999REMSYN060AAXX  08211 01020 46/// /3505 11059 2//// 30083 40094 52026;
0101010200999992013010823004+76483+016550FM-12+001099999V0200101N004019999999N9999999N1-00591+99999101061ADDMA1999999100961MD1210211+9999REMSYN060AAXX  08231 01020 46/// /0104 11059 2//// 30096 40106 52021;
0101010200999992013010901004+76483+016550FM-12+001099999V0203501N004019999999N9999999N1-00671+99999101231ADDMA1999999101121MD1210231+9999REMSYN060AAXX  09011 01020 46/// /3504 11067 2//// 30112 40123 52023;
0101010200999992013010903004+76483+016550FM-12+001099999V0200101N003019999999N9999999N1-00591+99999101341ADDMA1999999101231MD1210181+9999REMSYN060AAXX  09031 01020 46/// /0103 11059 2//// 30123 40134 52018;
0101010200999992013010904004+76483+016550FM-12+001099999V0203601N002019999999N9999999N1-00631+99999101361ADDMA1999999101251MD1210131+9999REMSYN060AAXX  09041 01020 46/// /3602 11063 2//// 30125 40136 52013;
0101010200999992013010905004+76483+016550FM-12+001099999V0200101N002019999999N9999999N1-00571+99999101421ADDMA1999999101311MD1210131+9999REMSYN060AAXX  09051 01020 46/// /0102 11057 2//// 30131 40142 52013;
0101010200999992013010906004+76483+016550FM-12+001099999V0203501N001019999999N9999999N1-00571+99999101501ADDMA1999999101391MD1110171+9999REMSYN060AAXX  09061 01020 46/// /3501 11057 2//// 30139 40150 51017;
0101010200999992013010907004+76483+016550FM-12+001099999V0203101N002019999999N9999999N1-00591+99999101541ADDMA1999999101431MD1210181+9999REMSYN060AAXX  09071 01020 46/// /3102 11059 2//// 30143 40154 52018;
0101010200999992013010908004+76483+016550FM-12+001099999V0203201N004019999999N9999999N1-00531+99999101571ADDMA1999999101461MD1310151+9999REMSYN060AAXX  09081 01020 46/// /3204 11053 2//// 30146 40157 53015;
0101010200999992013010909004+76483+016550FM-12+001099999V0203201N006019999999N9999999N1-00491+99999101601ADDMA1999999101491MD1210101+9999REMSYN060AAXX  09091 01020 46/// /3206 11049 2//// 30149 40160 52010;
0101010200999992013010910004+76483+016550FM-12+001099999V0203101N007019999999N9999999N1-00411+99999101621ADDMA1999999101511MD1210081+9999REMSYN060AAXX  09101 01020 46/// /3107 11041 2//// 30151 40162 52008;
0101010200999992013010911004+76483+016550FM-12+001099999V0203101N007019999999N9999999N1-00351+99999101611ADDMA1999999101501MD1310041+9999REMSYN060AAXX  09111 01020 46/// /3107 11035 2//// 30150 40161 53004;
0111010200999992013010912004+76483+016550FM-12+001099999V0203101N007019999999N9999999N1-00341+99999101621ADDMA1999999101511MD1410001+9999REMSYN070AAXX  09121 01020 46/// /3107 11034 2//// 30151 40162 54003 333 91108;
0101010200999992013010913004+76483+016550FM-12+001099999V0202901N008019999999N9999999N1-00271+99999101641ADDMA1999999101541MD1010021+9999REMSYN060AAXX  09131 01020 46/// /2908 11027 2//// 30154 40164 50002;
0101010200999992013010914004+76483+016550FM-12+001099999V0202901N009019999999N9999999N1-00251+99999101661ADDMA1999999101551MD1210051+9999REMSYN060AAXX  09141 01020 46/// /2909 11025 2//// 30155 40166 52005;
0101010200999992013010915004+76483+016550FM-12+001099999V0202801N010019999999N9999999N1-00221+99999101651ADDMA1999999101541MD1510031+9999REMSYN060AAXX  09151 01020 46/// /2810 11022 2//// 30154 40165 55003;
0101010200999992013010916004+76483+016550FM-12+001099999V0202801N009019999999N9999999N1-00151+99999101611ADDMA1999999101501MD1610041+9999REMSYN060AAXX  09161 01020 46/// /2809 11015 2//// 30150 40161 56004;
0101010200999992013010917004+76483+016550FM-12+001099999V0202701N011019999999N9999999N1-00091+99999101571ADDMA1999999101461MD1710091+9999REMSYN060AAXX  09171 01020 46/// /2711 11009 2//// 30146 40157 57009;
0130010200999992013010918004+76483+016550FM-12+001099999V0202701N011019999999N9999999N1-00061+99999101571ADDKA1120M-00061MA1999999101461MD1810081+9999REMSYN076AAXX  09181 01020 46/// /2711 11006 2//// 30146 40157 58008 333 11006 91113;
0101010200999992013010919004+76483+016550FM-12+001099999V0202801N011019999999N9999999N1-00041+99999101561ADDMA1999999101451MD1710041+9999REMSYN060AAXX  09191 01020 46/// /2811 11004 2//// 30145 40156 57004;
0101010200999992013010920004+76483+016550FM-12+001099999V0202801N011019999999N9999999N1-00031+99999101541ADDMA1999999101431MD1410001+9999REMSYN060AAXX  09201 01020 46/// /2811 11003 2//// 30143 40154 54003;
0101010200999992013010921004+76483+016550FM-12+001099999V0202801N011019999999N9999999N1-00011+99999101511ADDMA1999999101401MD1710061+9999REMSYN060AAXX  09211 01020 46/// /2811 11001 2//// 30140 40151 57006;
0101010200999992013010922004+76483+016550FM-12+001099999V0202801N012019999999N9999999N1+00021+99999101481ADDMA1999999101371MD1710081+9999REMSYN060AAXX  09221 01020 46/// /2812 10002 2//// 30137 40148 57008;
0101010200999992013010923004+76483+016550FM-12+001099999V0202901N012019999999N9999999N1+00021+99999101461ADDMA1999999101351MD1710081+9999REMSYN060AAXX  09231 01020 46/// /2912 10002 2//// 30135 40146 57008;
0111010200999992013011000004+76483+016550FM-12+001099999V0202801N012019999999N9999999N1+00011+99999101451ADDMA1999999101351MD1710061+9999REMSYN070AAXX  10001 01020 46/// /2812 10001 2//// 30135 40145 57006 333 91114;
0101010200999992013011001004+76483+016550FM-12+001099999V0202801N011019999999N9999999N1+00031+99999101531ADDMA1999999101421MD1110051+9999REMSYN060AAXX  10011 01020 46/// /2811 10003 2//// 30142 40153 51005;
0101010200999992013011002004+76483+016550FM-12+001099999V0202801N011019999999N9999999N1+00071+99999101401ADDMA1999999101291MD1610061+9999REMSYN060AAXX  10021 01020 46/// /2811 10007 2//// 30129 40140 56006;
0101010200999992013011003004+76483+016550FM-12+001099999V0202801N011019999999N9999999N1+00071+99999101441ADDMA1999999101341MD1510011+9999REMSYN060AAXX  10031 01020 46/// /2811 10007 2//// 30134 40144 55001;
0101010200999992013011004004+76483+016550FM-12+001099999V0202801N014019999999N9999999N1+00091+99999101331ADDMA1999999101221MD1710201+9999REMSYN060AAXX  10041 01020 46/// /2814 10009 2//// 30122 40133 57020;
0101010200999992013011005004+76483+016550FM-12+001099999V0202801N013019999999N9999999N1+00121+99999101331ADDMA1999999101221MD1510071+9999REMSYN060AAXX  10051 01020 46/// /2813 10012 2//// 30122 40133 55007;
0130010200999992013011006004+76483+016550FM-12+001099999V0202901N012019999999N9999999N1+00111+99999101351ADDKA1999N-00061MA1999999101241MD1810091+9999REMSYN076AAXX  10061 01020 46/// /2912 10011 2//// 30124 40135 58009 333 21006 91117;
0101010200999992013011007004+76483+016550FM-12+001099999V0202901N012019999999N9999999N1+00121+99999101371ADDMA1999999101261MD1210041+9999REMSYN060AAXX  10071 01020 46/// /2912 10012 2//// 30126 40137 52004;
0101010200999992013011008004+76483+016550FM-12+001099999V0202801N013019999999N9999999N1+00141+99999101341ADDMA1999999101231MD1510011+9999REMSYN060AAXX  10081 01020 46/// /2813 10014 2//// 30123 40134 55001;
0101010200999992013011009004+76483+016550FM-12+001099999V0202801N011019999999N9999999N1+00161+99999101301ADDMA1999999101201MD1610051+9999REMSYN060AAXX  10091 01020 46/// /2811 10016 2//// 30120 40130 56005;
0101010200999992013011010004+76483+016550FM-12+001099999V0202701N013019999999N9999999N1+00171+99999101231ADDMA1999999101121MD1610141+9999REMSYN060AAXX  10101 01020 46/// /2713 10017 2//// 30112 40123 56014;
0101010200999992013011011004+76483+016550FM-12+001099999V0202701N012019999999N9999999N1+00131+99999101221ADDMA1999999101111MD1710121+9999REMSYN060AAXX  10111 01020 46/// /2712 10013 2//// 30111 40122 57012;
0111010200999992013011012004+76483+016550FM-12+001099999V0202701N011019999999N9999999N1+00151+99999101181ADDMA1999999101071MD1810121+9999REMSYN070AAXX  10121 01020 46/// /2711 10015 2//// 30107 40118 58012 333 91116;
0101010200999992013011013004+76483+016550FM-12+001099999V0202701N012019999999N9999999N1+00101+99999101101ADDMA1999999100991MD1610131+9999REMSYN060AAXX  10131 01020 46/// /2712 10010 2//// 30099 40110 56013;
0101010200999992013011014004+76483+016550FM-12+001099999V0202701N013019999999N9999999N1+00111+99999101001ADDMA1999999100891MD1610221+9999REMSYN060AAXX  10141 01020 46/// /2713 10011 2//// 30089 40100 56022;
0101010200999992013011015004+76483+016550FM-12+001099999V0202601N013019999999N9999999N1+00071+99999100961ADDMA1999999100861MD1810221+9999REMSYN060AAXX  10151 01020 46/// /2613 10007 2//// 30086 40096 58022;
0101010200999992013011016004+76483+016550FM-12+001099999V0202701N013019999999N9999999N1+00071+99999100921ADDMA1999999100811MD1810171+9999REMSYN060AAXX  10161 01020 46/// /2713 10007 2//// 30081 40092 58017;
0101010200999992013011017004+76483+016550FM-12+001099999V0202701N014019999999N9999999N1+00031+99999100861ADDMA1999999100761MD1710141+9999REMSYN060AAXX  10171 01020 46/// /2714 10003 2//// 30076 40086 57014;
0130010200999992013011018004+76483+016550FM-12+001099999V0202701N011019999999N9999999N1+00031+99999100801ADDKA1120M+00181MA1999999100701MD1710161+9999REMSYN076AAXX  10181 01020 46/// /2711 10003 2//// 30070 40080 57016 333 10018 91118;
0101010200999992013011019004+76483+016550FM-12+001099999V0202701N011019999999N9999999N1+00011+99999100701ADDMA1999999100601MD1610221+9999REMSYN060AAXX  10191 01020 46/// /2711 10001 2//// 30060 40070 56022;
0101010200999992013011020004+76483+016550FM-12+001099999V0202601N010019999999N9999999N1+00071+99999100651ADDMA1999999100541MD1710221+9999REMSYN060AAXX  10201 01020 46/// /2610 10007 2//// 30054 40065 57022;
0101010200999992013011021004+76483+016550FM-12+001099999V0202401N010019999999N9999999N1+00091+99999100531ADDMA1999999100421MD1710281+9999REMSYN060AAXX  10211 01020 46/// /2410 10009 2//// 30042 40053 57028;
0101010200999992013011022004+76483+016550FM-12+001099999V0202401N011019999999N9999999N1+00151+99999100361ADDMA1999999100251MD1610351+9999REMSYN060AAXX  10221 01020 46/// /2411 10015 2//// 30025 40036 56035;
0101010200999992013011023004+76483+016550FM-12+001099999V0202401N013019999999N9999999N1+00181+99999100221ADDMA1999999100121MD1710421+9999REMSYN060AAXX  10231 01020 46/// /2413 10018 2//// 30012 40022 57042;
0111010200999992013011100004+76483+016550FM-12+001099999V0202501N014019999999N9999999N1+00191+99999100111ADDMA1999999100011MD1810411+9999REMSYN070AAXX  11001 01020 46/// /2514 10019 2//// 30001 40011 58041 333 91117;
0101010200999992013011101004+76483+016550FM-12+001099999V0202501N014019999999N9999999N1+00191+99999099951ADDMA1999999099851MD1710401+9999REMSYN060AAXX  11011 01020 46/// /2514 10019 2//// 39985 49995 57040;
0101010200999992013011102004+76483+016550FM-12+001099999V0202601N017019999999N9999999N1+00181+99999099861ADDMA1999999099751MD1710371+9999REMSYN060AAXX  11021 01020 46/// /2617 10018 2//// 39975 49986 57037;
0101010200999992013011103004+76483+016550FM-12+001099999V0202601N016019999999N9999999N1+00131+99999099831ADDMA1999999099721MD1810281+9999REMSYN060AAXX  11031 01020 46/// /2616 10013 2//// 39972 49983 58028;
0101010200999992013011104004+76483+016550FM-12+001099999V0202801N015019999999N9999999N1+00101+99999099851ADDMA1999999099741MD1810101+9999REMSYN060AAXX  11041 01020 46/// /2815 10010 2//// 39974 49985 58010;
0101010200999992013011105004+76483+016550FM-12+001099999V0202801N014019999999N9999999N1+00091+99999099891ADDMA1999999099791MD1110041+9999REMSYN060AAXX  11051 01020 46/// /2814 10009 2//// 39979 49989 51004;
0130010200999992013011106004+76483+016550FM-12+001099999V0202801N015019999999N9999999N1+00111+99999099931ADDKA1999N+00011MA1999999099831MD1210101+9999REMSYN076AAXX  11061 01020 46/// /2815 10011 2//// 39983 49993 52010 333 20001 91120;
0101010200999992013011107004+76483+016550FM-12+001099999V0202901N011019999999N9999999N1+00101+99999099991ADDMA1999999099891MD1210141+9999REMSYN060AAXX  11071 01020 46/// /2911 10010 2//// 39989 49999 52014;
0101010200999992013011108004+76483+016550FM-12+001099999V0202801N013019999999N9999999N1+00131+99999099981ADDMA1999999099881MD1310091+9999REMSYN060AAXX  11081 01020 46/// /2813 10013 2//// 39988 49998 53009;
0101010200999992013011109004+76483+016550FM-12+001099999V0202801N013019999999N9999999N1+00121+99999100001ADDMA1999999099891MD1310071+9999REMSYN060AAXX  11091 01020 46/// /2813 10012 2//// 39989 40000 53007;
0101010200999992013011110004+76483+016550FM-12+001099999V0202901N015019999999N9999999N1+00121+99999099981ADDMA1999999099881MD1410001+9999REMSYN060AAXX  11101 01020 46/// /2915 10012 2//// 39988 49998 54001;
0101010200999992013011111004+76483+016550FM-12+001099999V0202901N015019999999N9999999N1+00061+99999100031ADDMA1999999099931MD1110051+9999REMSYN060AAXX  11111 01020 46/// /2915 10006 2//// 39993 40003 51005;
0111010200999992013011112004+76483+016550FM-12+001099999V0203001N013019999999N9999999N1+00031+99999100091ADDMA1999999099991MD1110101+9999REMSYN070AAXX  11121 01020 46/// /3013 10003 2//// 39999 40009 51010 333 91117;
0101010200999992013011113004+76483+016550FM-12+001099999V0202901N015019999999N9999999N1-00031+99999100111ADDMA1999999100001MD1310121+9999REMSYN060AAXX  11131 01020 46/// /2915 11003 2//// 30000 40011 53012;
0101010200999992013011114004+76483+016550FM-12+001099999V0202901N016019999999N9999999N1-00061+99999100091ADDMA1999999099981MD1310061+9999REMSYN060AAXX  11141 01020 46/// /2916 11006 2//// 39998 40009 53006;
0101010200999992013011115004+76483+016550FM-12+001099999V0203101N012019999999N9999999N1-00241+99999100181ADDMA1999999100071MD1110091+9999REMSYN060AAXX  11151 01020 46/// /3112 11024 2//// 30007 40018 51009;
0101010200999992013011116004+76483+016550FM-12+001099999V0203101N014019999999N9999999N1-00221+99999100221ADDMA1999999100111MD1110111+9999REMSYN060AAXX  11161 01020 46/// /3114 11022 2//// 30011 40022 51011;
0101010200999992013011117004+76483+016550FM-12+001099999V0203101N016019999999N9999999N1-00321+99999100251ADDMA1999999100141MD1310161+9999REMSYN060AAXX  11171 01020 46/// /3116 11032 2//// 30014 40025 53016;
0130010200999992013011118004+76483+016550FM-12+001099999V0203101N015019999999N9999999N1-00321+99999100311ADDKA1120M+00131MA1999999100211MD1210131+9999REMSYN076AAXX  11181 01020 46/// /3115 11032 2//// 30021 40031 52013 333 10013 91119;
0101010200999992013011119004+76483+016550FM-12+001099999V0203101N015019999999N9999999N1-00341+99999100411ADDMA1999999100301MD1110181+9999REMSYN060AAXX  11191 01020 46/// /3115 11034 2//// 30030 40041 51018;
0101010200999992013011120004+76483+016550FM-12+001099999V0203001N015019999999N9999999N1-00331+99999100441ADDMA1999999100331MD1310181+9999REMSYN060AAXX  11201 01020 46/// /3015 11033 2//// 30033 40044 53018;
0101010200999992013011121004+76483+016550FM-12+001099999V0203001N018019999999N9999999N1-00401+99999100491ADDMA1999999100381MD1310181+9999REMSYN060AAXX  11211 01020 46/// /3018 11040 2//// 30038 40049 53018;
0101010200999992013011122004+76483+016550FM-12+001099999V0203001N017019999999N9999999N1-00401+99999100551ADDMA1999999100441MD1110141+9999REMSYN060AAXX  11221 01020 46/// /3017 11040 2//// 30044 40055 51014;
0101010200999992013011123004+76483+016550FM-12+001099999V0203101N016019999999N9999999N1-00461+99999100641ADDMA1999999100531MD1110201+9999REMSYN060AAXX  11231 01020 46/// /3116 11046 2//// 30053 40064 51020;
0111010200999992013011200004+76483+016550FM-12+001099999V0203101N016019999999N9999999N1-00431+99999100611ADDMA1999999100511MD1310131+9999REMSYN070AAXX  12001 01020 46/// /3116 11043 2//// 30051 40061 53013 333 91121;
0101010200999992013011201004+76483+016550FM-12+001099999V0203101N016019999999N9999999N1-00431+99999100691ADDMA1999999100581MD1210141+9999REMSYN060AAXX  12011 01020 46/// /3116 11043 2//// 30058 40069 52014;
0101010200999992013011202004+76483+016550FM-12+001099999V0203101N016019999999N9999999N1-00471+99999100721ADDMA1999999100611MD1110091+9999REMSYN060AAXX  12021 01020 46/// /3116 11047 2//// 30061 40072 51009;
0101010200999992013011203004+76483+016550FM-12+001099999V0203201N011019999999N9999999N1-00441+99999100891ADDMA1999999100791MD1110281+9999REMSYN060AAXX  12031 01020 46/// /3211 11044 2//// 30079 40089 51028;
0101010200999992013011204004+76483+016550FM-12+001099999V0203401N009019999999N9999999N1-00471+99999101001ADDMA1999999100901MD1110321+9999REMSYN060AAXX  12041 01020 46/// /3409 11047 2//// 30090 40100 51032;
0101010200999992013011205004+76483+016550FM-12+001099999V0203501N003019999999N9999999N1-00491+99999101081ADDMA1999999100971MD1310351+9999REMSYN060AAXX  12051 01020 46/// /3503 11049 2//// 30097 40108 53035;
0130010200999992013011206004+76483+016550FM-12+001099999V0203401N003019999999N9999999N1-00481+99999101141ADDKA1999N-00511MA1999999101041MD1310251+9999REMSYN076AAXX  12061 01020 46/// /3403 11048 2//// 30104 40114 53025 333 21051 91120;
0101010200999992013011207004+76483+016550FM-12+001099999V0200101N002019999999N9999999N1-00431+99999101191ADDMA1999999101081MD1310181+9999REMSYN060AAXX  12071 01020 46/// /0102 11043 2//// 30108 40119 53018;
0101010200999992013011208004+76483+016550FM-12+001099999V0200401N003019999999N9999999N1-00551+99999101281ADDMA1999999101171MD1210201+9999REMSYN060AAXX  12081 01020 46/// /0403 11055 2//// 30117 40128 52020;
0101010200999992013011209004+76483+016550FM-12+001099999V0200501N004019999999N9999999N1-00521+99999101341ADDMA1999999101231MD1210201+9999REMSYN060AAXX  12091 01020 46/// /0504 11052 2//// 30123 40134 52020;
0101010200999992013011210004+76483+016550FM-12+001099999V0200501N005019999999N9999999N1-00481+99999101411ADDMA1999999101301MD1210221+9999REMSYN060AAXX  12101 01020 46/// /0505 11048 2//// 30130 40141 52022;
0101010200999992013011211004+76483+016550FM-12+001099999V0200501N004019999999N9999999N1-00521+99999101461ADDMA1999999101351MD1210181+9999REMSYN060AAXX  12111 01020 46/// /0504 11052 2//// 30135 40146 52018;
0111010200999992013011212004+76483+016550FM-12+001099999V0200601N004019999999N9999999N1-00481+99999101501ADDMA1999999101391MD1310161+9999REMSYN070AAXX  12121 01020 46/// /0604 11048 2//// 30139 40150 53016 333 91106;
0101010200999992013011213004+76483+016550FM-12+001099999V0200501N002019999999N9999999N1-00491+99999101551ADDMA1999999101451MD1210141+9999REMSYN060AAXX  12131 01020 46/// /0502 11049 2//// 30145 40155 52014;
0101010200999992013011214004+76483+016550FM-12+001099999V0200501N001019999999N9999999N1-00481+99999101581ADDMA1999999101471MD1210121+9999REMSYN060AAXX  12141 01020 46/// /0501 11048 2//// 30147 40158 52012;
0101010200999992013011215004+76483+016550FM-12+001099999V0203501N001019999999N9999999N1-00521+99999101601ADDMA1999999101491MD1310101+9999REMSYN060AAXX  12151 01020 46/// /3501 11052 2//// 30149 40160 53010;
0101010200999992013011216004+76483+016550FM-12+001099999V0202901N001019999999N9999999N1-00471+99999101591ADDMA1999999101481MD1310031+9999REMSYN060AAXX  12161 01020 46/// /2901 11047 2//// 30148 40159 53003;
0101010200999992013011217004+76483+016550FM-12+001099999V0203301N002019999999N9999999N1-00481+99999101601ADDMA1999999101491MD1410001+9999REMSYN060AAXX  12171 01020 46/// /3302 11048 2//// 30149 40160 54002;
0130010200999992013011218004+76483+016550FM-12+001099999V0203201N004019999999N9999999N1-00481+99999101611ADDKA1120M-00421MA1999999101501MD1410001+9999REMSYN076AAXX  12181 01020 46/// /3204 11048 2//// 30150 40161 54001 333 11042 91106;
0101010200999992013011219004+76483+016550FM-12+001099999V0203301N004019999999N9999999N1-00501+99999101641ADDMA1999999101531MD1210051+9999REMSYN060AAXX  12191 01020 46/// /3304 11050 2//// 30153 40164 52005;
0101010200999992013011220004+76483+016550FM-12+001099999V0203301N006019999999N9999999N1-00511+99999101651ADDMA1999999101541MD1210051+9999REMSYN060AAXX  12201 01020 46/// /3306 11051 2//// 30154 40165 52005;
0101010200999992013011221004+76483+016550FM-12+001099999V0203301N006019999999N9999999N1-00561+99999101681ADDMA1999999101571MD1210071+9999REMSYN060AAXX  12211 01020 46/// /3306 11056 2//// 30157 40168 52007;
0101010200999992013011222004+76483+016550FM-12+001099999V0203401N005019999999N9999999N1-00601+99999101701ADDMA1999999101591MD1210061+9999REMSYN060AAXX  12221 01020 46/// /3405 11060 2//// 30159 40170 52006;
0101010200999992013011223004+76483+016550FM-12+001099999V0203301N005019999999N9999999N1-00591+99999101711ADDMA1999999101601MD1210061+9999REMSYN060AAXX  12231 01020 46/// /3305 11059 2//// 30160 40171 52006;
0111010200999992013011300004+76483+016550FM-12+001099999V0203201N007019999999N9999999N1-00521+99999101681ADDMA1999999101571MD1510001+9999REMSYN070AAXX  13001 01020 46/// /3207 11052 2//// 30157 40168 55000 333 91108;
0101010200999992013011301004+76483+016550FM-12+001099999V0203401N005019999999N9999999N1-00661+99999101711ADDMA1999999101601MD1410001+9999REMSYN060AAXX  13011 01020 46/// /3405 11066 2//// 30160 40171 54001;
0101010200999992013011302004+76483+016550FM-12+001099999V0203401N004019999999N9999999N1-00711+99999101711ADDMA1999999101601MD1410001+9999REMSYN060AAXX  13021 01020 46/// /3404 11071 2//// 30160 40171 54000;
0101010200999992013011303004+76483+016550FM-12+001099999V0203501N005019999999N9999999N1-00731+99999101711ADDMA1999999101601MD1510021+9999REMSYN060AAXX  13031 01020 46/// /3505 11073 2//// 30160 40171 55002;
0101010200999992013011304004+76483+016550FM-12+001099999V0203401N004019999999N9999999N1-00771+99999101721ADDMA1999999101601MD1410001+9999REMSYN060AAXX  13041 01020 46/// /3404 11077 2//// 30160 40172 54000;
0101010200999992013011305004+76483+016550FM-12+001099999V0203401N003019999999N9999999N1-00781+99999101721ADDMA1999999101611MD1410001+9999REMSYN060AAXX  13051 01020 46/// /3403 11078 2//// 30161 40172 54001;
0130010200999992013011306004+76483+016550FM-12+001099999V0200201N002019999999N9999999N1-00681+99999101731ADDKA1999N-00811MA1999999101621MD1410001+9999REMSYN076AAXX  13061 01020 46/// /0202 11068 2//// 30162 40173 54003 333 21081 91108;
0101010200999992013011307004+76483+016550FM-12+001099999V0200201N005019999999N9999999N1-00741+99999101771ADDMA1999999101651MD1210051+9999REMSYN060AAXX  13071 01020 46/// /0205 11074 2//// 30165 40177 52005;
0101010200999992013011308004+76483+016550FM-12+001099999V0200301N005019999999N9999999N1-00771+99999101811ADDMA1999999101701MD1110091+9999REMSYN060AAXX  13081 01020 46/// /0305 11077 2//// 30170 40181 51009;
0101010200999992013011309004+76483+016550FM-12+001099999V0200501N005019999999N9999999N1-00751+99999101811ADDMA1999999101701MD1210081+9999REMSYN060AAXX  13091 01020 46/// /0505 11075 2//// 30170 40181 52008;
0101010200999992013011310004+76483+016550FM-12+001099999V0200401N007019999999N9999999N1-00771+99999101831ADDMA1999999101721MD1210061+9999REMSYN060AAXX  13101 01020 46/// /0407 11077 2//// 30172 40183 52006;
0101010200999992013011311004+76483+016550FM-12+001099999V0200401N006019999999N9999999N1-00811+99999101871ADDMA1999999101761MD1110061+9999REMSYN060AAXX  13111 01020 46/// /0406 11081 2//// 30176 40187 51006;
0111010200999992013011312004+76483+016550FM-12+001099999V0200401N007019999999N9999999N1-00791+99999101901ADDMA1999999101791MD1210091+9999REMSYN070AAXX  13121 01020 46/// /0407 11079 2//// 30179 40190 52009 333 91109;
0101010200999992013011313004+76483+016550FM-12+001099999V0200401N006019999999N9999999N1-00781+99999101911ADDMA1999999101801MD1310081+9999REMSYN060AAXX  13131 01020 46/// /0406 11078 2//// 30180 40191 53008;
0101010200999992013011314004+76483+016550FM-12+001099999V0200401N006019999999N9999999N1-00811+99999101921ADDMA1999999101811MD1210051+9999REMSYN060AAXX  13141 01020 46/// /0406 11081 2//// 30181 40192 52005;
0101010200999992013011315004+76483+016550FM-12+001099999V0200401N007019999999N9999999N1-00831+99999101921ADDMA1999999101801MD1410001+9999REMSYN060AAXX  13151 01020 46/// /0407 11083 2//// 30180 40192 54002;
0101010200999992013011316004+76483+016550FM-12+001099999V0200401N007019999999N9999999N1-00811+99999101951ADDMA1999999101841MD1210041+9999REMSYN060AAXX  13161 01020 46/// /0407 11081 2//// 30184 40195 52004;
0101010200999992013011317004+76483+016550FM-12+001099999V0200401N006019999999N9999999N1-00841+99999101961ADDMA1999999101851MD1210041+9999REMSYN060AAXX  13171 01020 46/// /0406 11084 2//// 30185 40196 52004;
0130010200999992013011318004+76483+016550FM-12+001099999V0200401N006019999999N9999999N1-00831+99999101971ADDKA1120M-00681MA1999999101861MD1210061+9999REMSYN076AAXX  13181 01020 46/// /0406 11083 2//// 30186 40197 52006 333 11068 91108;
0101010200999992013011319004+76483+016550FM-12+001099999V0200301N004019999999N9999999N1-00821+99999101971ADDMA1999999101861MD1410001+9999REMSYN060AAXX  13191 01020 46/// /0304 11082 2//// 30186 40197 54002;
0101010200999992013011320004+76483+016550FM-12+001099999V0200301N005019999999N9999999N1-00791+99999101961ADDMA1999999101851MD1410001+9999REMSYN060AAXX  13201 01020 46/// /0305 11079 2//// 30185 40196 54000;
0101010200999992013011321004+76483+016550FM-12+001099999V0200201N005019999999N9999999N1-00811+99999101981ADDMA1999999101871MD1410001+9999REMSYN060AAXX  13211 01020 46/// /0205 11081 2//// 30187 40198 54001;
0101010200999992013011322004+76483+016550FM-12+001099999V0200101N004019999999N9999999N1-00861+99999101981ADDMA1999999101871MD1410001+9999REMSYN060AAXX  13221 01020 46/// /0104 11086 2//// 30187 40198 54001;
0101010200999992013011323004+76483+016550FM-12+001099999V0200101N005019999999N9999999N1-00841+99999102001ADDMA1999999101891MD1210041+9999REMSYN060AAXX  13231 01020 46/// /0105 11084 2//// 30189 40200 52004;
0111010200999992013011400004+76483+016550FM-12+001099999V0200201N009019999999N9999999N1-00821+99999101981ADDMA1999999101871MD1410001+9999REMSYN070AAXX  14001 01020 46/// /0209 11082 2//// 30187 40198 54000 333 91110;
0101010200999992013011401004+76483+016550FM-12+001099999V0200201N008019999999N9999999N1-00821+99999102011ADDMA1999999101901MD1210031+9999REMSYN060AAXX  14011 01020 46/// /0208 11082 2//// 30190 40201 52003;
0101010200999992013011402004+76483+016550FM-12+001099999V0200301N008019999999N9999999N1-00791+99999102021ADDMA1999999101911MD1410001+9999REMSYN060AAXX  14021 01020 46/// /0308 11079 2//// 30191 40202 54002;
0101010200999992013011403004+76483+016550FM-12+001099999V0200201N008019999999N9999999N1-00791+99999102021ADDMA1999999101911MD1210051+9999REMSYN060AAXX  14031 01020 46/// /0208 11079 2//// 30191 40202 52005;
0101010200999992013011404004+76483+016550FM-12+001099999V0200201N007019999999N9999999N1-00791+99999102031ADDMA1999999101921MD1410001+9999REMSYN060AAXX  14041 01020 46/// /0207 11079 2//// 30192 40203 54002;
0101010200999992013011405004+76483+016550FM-12+001099999V0200201N008019999999N9999999N1-00821+99999102041ADDMA1999999101931MD1410001+9999REMSYN060AAXX  14051 01020 46/// /0208 11082 2//// 30193 40204 54002;
0130010200999992013011406004+76483+016550FM-12+001099999V0200301N008019999999N9999999N1-00801+99999102031ADDKA1999N-00901MA1999999101921MD1410001+9999REMSYN076AAXX  14061 01020 46/// /0308 11080 2//// 30192 40203 54001 333 21090 91111;
0101010200999992013011407004+76483+016550FM-12+001099999V0200201N007019999999N9999999N1-00841+99999102071ADDMA1999999101961MD1210051+9999REMSYN060AAXX  14071 01020 46/// /0207 11084 2//// 30196 40207 52005;
0101010200999992013011408004+76483+016550FM-12+001099999V0200201N008019999999N9999999N1-00821+99999102111ADDMA1999999102001MD1110081+9999REMSYN060AAXX  14081 01020 46/// /0208 11082 2//// 30200 40211 51008;
0101010200999992013011409004+76483+016550FM-12+001099999V0200201N009019999999N9999999N1-00821+99999102151ADDMA1999999102041MD1210121+9999REMSYN060AAXX  14091 01020 46/// /0209 11082 2//// 30204 40215 52012;
0101010200999992013011410004+76483+016550FM-12+001099999V0200201N007019999999N9999999N1-00831+99999102211ADDMA1999999102101MD1210131+9999REMSYN060AAXX  14101 01020 46/// /0207 11083 2//// 30210 40221 52013;
0101010200999992013011411004+76483+016550FM-12+001099999V0200201N009019999999N9999999N1-00851+99999102201ADDMA1999999102091MD1310081+9999REMSYN060AAXX  14111 01020 46/// /0209 11085 2//// 30209 40220 53008;
0111010200999992013011412004+76483+016550FM-12+001099999V0200301N007019999999N9999999N1-00831+99999102251ADDMA1999999102131MD1210091+9999REMSYN070AAXX  14121 01020 46/// /0307 11083 2//// 30213 40225 52009 333 91111;
0101010200999992013011413004+76483+016550FM-12+001099999V0200301N008019999999N9999999N1-00841+99999102251ADDMA1999999102131MD1210041+9999REMSYN060AAXX  14131 01020 46/// /0308 11084 2//// 30213 40225 52004;
0101010200999992013011414004+76483+016550FM-12+001099999V0200301N009019999999N9999999N1-00841+99999102251ADDMA1999999102131MD1310051+9999REMSYN060AAXX  14141 01020 46/// /0309 11084 2//// 30213 40225 53005;
0101010200999992013011415004+76483+016550FM-12+001099999V0200301N009019999999N9999999N1-00811+99999102261ADDMA1999999102151MD1410001+9999REMSYN060AAXX  14151 01020 46/// /0309 11081 2//// 30215 40226 54001;
0101010200999992013011416004+76483+016550FM-12+001099999V0200301N007019999999N9999999N1-00821+99999102281ADDMA1999999102171MD1210031+9999REMSYN060AAXX  14161 01020 46/// /0307 11082 2//// 30217 40228 52003;
0101010200999992013011418004+76483+016550FM-12+001099999V0200301N008019999999N9999999N1-00831+99999102281ADDMA1999999102171MD1410001+9999REMSYN060AAXX  14181 01020 46/// /0308 11083 2//// 30217 40228 54002;
0101010200999992013011419004+76483+016550FM-12+001099999V0200401N008019999999N9999999N1-00801+99999102271ADDMA1999999102161MD1410001+9999REMSYN060AAXX  14191 01020 46/// /0408 11080 2//// 30216 40227 54001;
0101010200999992013011420004+76483+016550FM-12+001099999V0200401N008019999999N9999999N1-00801+99999102281ADDMA1999999102161MD1410001+9999REMSYN060AAXX  14201 01020 46/// /0408 11080 2//// 30216 40228 54000;
0101010200999992013011421004+76483+016550FM-12+001099999V0200401N007019999999N9999999N1-00811+99999102261ADDMA1999999102151MD1410001+9999REMSYN060AAXX  14211 01020 46/// /0407 11081 2//// 30215 40226 54002;
0101010200999992013011422004+76483+016550FM-12+001099999V0200401N007019999999N9999999N1-00791+99999102251ADDMA1999999102141MD1410001+9999REMSYN060AAXX  14221 01020 46/// /0407 11079 2//// 30214 40225 54002;
0101010200999992013011423004+76483+016550FM-12+001099999V0200401N007019999999N9999999N1-00771+99999102241ADDMA1999999102131MD1410001+9999REMSYN060AAXX  14231 01020 46/// /0407 11077 2//// 30213 40224 54003;
0111010200999992013011500004+76483+016550FM-12+001099999V0200501N008019999999N9999999N1-00741+99999102221ADDMA1999999102111MD1710041+9999REMSYN070AAXX  15001 01020 46/// /0508 11074 2//// 30211 40222 57004 333 91110;
0101010200999992013011503004+76483+016550FM-12+001099999V0200601N007019999999N9999999N1-00701+99999102151ADDMA1999999102041MD1610071+9999REMSYN060AAXX  15031 01020 46/// /0607 11070 2//// 30204 40215 56007;
0101010200999992013011504004+76483+016550FM-12+001099999V0200701N005019999999N9999999N1-00681+99999102151ADDMA1999999102031MD1810081+9999REMSYN060AAXX  15041 01020 46/// /0705 11068 2//// 30203 40215 58008;
0101010200999992013011505004+76483+016550FM-12+001099999V0200801N005019999999N9999999N1-00621+99999102121ADDMA1999999102001MD1710061+9999REMSYN060AAXX  15051 01020 46/// /0805 11062 2//// 30200 40212 57006;
0101010200999992013011506004+76483+016550FM-12+001099999V0200801N006019999999N9999999N1-00621+99999102061ADDMA1999999101951MD1610091+9999REMSYN060AAXX  15061 01020 46/// /0806 11062 2//// 30195 40206 56009;
0101010200999992013011507004+76483+016550FM-12+001099999V0200701N007019999999N9999999N1-00621+99999102031ADDMA1999999101921MD1710121+9999REMSYN060AAXX  15071 01020 46/// /0707 11062 2//// 30192 40203 57012;
0101010200999992013011508004+76483+016550FM-12+001099999V0200701N007019999999N9999999N1-00571+99999102001ADDMA1999999101891MD1810111+9999REMSYN060AAXX  15081 01020 46/// /0707 11057 2//// 30189 40200 58011;
0101010200999992013011509004+76483+016550FM-12+001099999V0200801N006019999999N9999999N1-00581+99999101991ADDMA1999999101881MD1710071+9999REMSYN060AAXX  15091 01020 46/// /0806 11058 2//// 30188 40199 57007;
0101010200999992013011510004+76483+016550FM-12+001099999V0200501N007019999999N9999999N1-00651+99999101951ADDMA1999999101841MD1710081+9999REMSYN060AAXX  15101 01020 46/// /0507 11065 2//// 30184 40195 57008;
0101010200999992013011511004+76483+016550FM-12+001099999V0201401N007019999999N9999999N1-00451+99999101931ADDMA1999999101821MD1710071+9999REMSYN060AAXX  15111 01020 46/// /1407 11045 2//// 30182 40193 57007;
0111010200999992013011512004+76483+016550FM-12+001099999V0201401N007019999999N9999999N1-00481+99999101881ADDMA1999999101771MD1710111+9999REMSYN070AAXX  15121 01020 46/// /1407 11048 2//// 30177 40188 57011 333 91110;
0101010200999992013011513004+76483+016550FM-12+001099999V0201301N007019999999N9999999N1-00461+99999101831ADDMA1999999101721MD1710121+9999REMSYN060AAXX  15131 01020 46/// /1307 11046 2//// 30172 40183 57012;
0101010200999992013011514004+76483+016550FM-12+001099999V0201301N007019999999N9999999N1-00421+99999101771ADDMA1999999101661MD1710171+9999REMSYN060AAXX  15141 01020 46/// /1307 11042 2//// 30166 40177 57017;
0101010200999992013011515004+76483+016550FM-12+001099999V0201401N008019999999N9999999N1-00421+99999101681ADDMA1999999101571MD1610201+9999REMSYN060AAXX  15151 01020 46/// /1408 11042 2//// 30157 40168 56020;
0101010200999992013011516004+76483+016550FM-12+001099999V0201301N008019999999N9999999N1-00301+99999101591ADDMA1999999101481MD1710251+9999REMSYN060AAXX  15161 01020 46/// /1308 11030 2//// 30148 40159 57025;
0101010200999992013011517004+76483+016550FM-12+001099999V0201401N010019999999N9999999N1-00271+99999101511ADDMA1999999101401MD1710261+9999REMSYN060AAXX  15171 01020 46/// /1410 11027 2//// 30140 40151 57026;
0130010200999992013011518004+76483+016550FM-12+001099999V0201301N010019999999N9999999N1-00251+99999101451ADDKA1120M-00251MA1999999101341MD1810231+9999REMSYN076AAXX  15181 01020 46/// /1310 11025 2//// 30134 40145 58023 333 11025 91112;
0101010200999992013011519004+76483+016550FM-12+001099999V0201301N011019999999N9999999N1-00231+99999101351ADDMA1999999101241MD1710241+9999REMSYN060AAXX  15191 01020 46/// /1311 11023 2//// 30124 40135 57024;
0101010200999992013011520004+76483+016550FM-12+001099999V0201301N012019999999N9999999N1-00231+99999101241ADDMA1999999101131MD1610271+9999REMSYN060AAXX  15201 01020 46/// /1312 11023 2//// 30113 40124 56027;
0101010200999992013011521004+76483+016550FM-12+001099999V0201301N013019999999N9999999N1-00181+99999101111ADDMA1999999101001MD1610341+9999REMSYN060AAXX  15211 01020 46/// /1313 11018 2//// 30100 40111 56034;
0101010200999992013011522004+76483+016550FM-12+001099999V0201301N013019999999N9999999N1-00191+99999100991ADDMA1999999100881MD1710361+9999REMSYN060AAXX  15221 01020 46/// /1313 11019 2//// 30088 40099 57036;
0101010200999992013011523004+76483+016550FM-12+001099999V0201301N013019999999N9999999N1-00161+99999100851ADDMA1999999100741MD1710391+9999REMSYN060AAXX  15231 01020 46/// /1313 11016 2//// 30074 40085 57039;
0111010200999992013011600004+76483+016550FM-12+001099999V0201301N013019999999N9999999N1-00131+99999100691ADDMA1999999100581MD1610421+9999REMSYN070AAXX  16001 01020 46/// /1313 11013 2//// 30058 40069 56042 333 91116;
0101010200999992013011601004+76483+016550FM-12+001099999V0201301N013019999999N9999999N1-00091+99999100511ADDMA1999999100401MD1610481+9999REMSYN060AAXX  16011 01020 46/// /1313 11009 2//// 30040 40051 56048;
0101010200999992013011602004+76483+016550FM-12+001099999V0201501N012019999999N9999999N1-00011+99999100351ADDMA1999999100251MD1710501+9999REMSYN060AAXX  16021 01020 46/// /1512 11001 2//// 30025 40035 57050;
0101010200999992013011603004+76483+016550FM-12+001099999V0202501N008019999999N9999999N1+00011+99999100341ADDMA1999999100231MD1810351+9999REMSYN060AAXX  16031 01020 46/// /2508 10001 2//// 30023 40034 58035;
0101010200999992013011604004+76483+016550FM-12+001099999V0202701N009019999999N9999999N1+00041+99999100321ADDMA1999999100211MD1810191+9999REMSYN060AAXX  16041 01020 46/// /2709 10004 2//// 30021 40032 58019;
0101010200999992013011605004+76483+016550FM-12+001099999V0202701N009019999999N9999999N1-00021+99999100301ADDMA1999999100191MD1710051+9999REMSYN060AAXX  16051 01020 46/// /2709 11002 2//// 30019 40030 57005;
0130010200999992013011606004+76483+016550FM-12+001099999V0202701N009019999999N9999999N1-00011+99999100311ADDKA1999N-00261MA1999999100211MD1010031+9999REMSYN076AAXX  16061 01020 46/// /2709 11001 2//// 30021 40031 50003 333 21026 91117;
0101010200999992013011607004+76483+016550FM-12+001099999V0202801N009019999999N9999999N1-00111+99999100321ADDMA1999999100221MD1410001+9999REMSYN060AAXX  16071 01020 46/// /2809 11011 2//// 30022 40032 54001;
0101010200999992013011608004+76483+016550FM-12+001099999V0202801N009019999999N9999999N1-00141+99999100341ADDMA1999999100231MD1210041+9999REMSYN060AAXX  16081 01020 46/// /2809 11014 2//// 30023 40034 52004;
0101010200999992013011609004+76483+016550FM-12+001099999V0202801N011019999999N9999999N1-00231+99999100371ADDMA1999999100261MD1210051+9999REMSYN060AAXX  16091 01020 46/// /2811 11023 2//// 30026 40037 52005;
0101010200999992013011610004+76483+016550FM-12+001099999V0202801N011019999999N9999999N1-00301+99999100391ADDMA1999999100281MD1210061+9999REMSYN060AAXX  16101 01020 46/// /2811 11030 2//// 30028 40039 52006;
0101010200999992013011611004+76483+016550FM-12+001099999V0202801N011019999999N9999999N1-00341+99999100401ADDMA1999999100291MD1210061+9999REMSYN060AAXX  16111 01020 46/// /2811 11034 2//// 30029 40040 52006;
0111010200999992013011612004+76483+016550FM-12+001099999V0202801N011019999999N9999999N1-00411+99999100391ADDMA1999999100291MD1410001+9999REMSYN070AAXX  16121 01020 46/// /2811 11041 2//// 30029 40039 54003 333 91114;
0101010200999992013011613004+76483+016550FM-12+001099999V0202701N011019999999N9999999N1-00441+99999100421ADDMA1999999100311MD1410001+9999REMSYN060AAXX  16131 01020 46/// /2711 11044 2//// 30031 40042 54003;
0101010200999992013011614004+76483+016550FM-12+001099999V0202901N011019999999N9999999N1-00481+99999100401ADDMA1999999100291MD1410001+9999REMSYN060AAXX  16141 01020 46/// /2911 11048 2//// 30029 40040 54000;
0101010200999992013011615004+76483+016550FM-12+001099999V0202801N011019999999N9999999N1-00471+99999100401ADDMA1999999100291MD1410001+9999REMSYN060AAXX  16151 01020 46/// /2811 11047 2//// 30029 40040 54000;
0101010200999992013011616004+76483+016550FM-12+001099999V0202801N011019999999N9999999N1-00451+99999100391ADDMA1999999100281MD1410001+9999REMSYN060AAXX  16161 01020 46/// /2811 11045 2//// 30028 40039 54003;
0101010200999992013011617004+76483+016550FM-12+001099999V0203001N011019999999N9999999N1-00451+99999100371ADDMA1999999100261MD1410001+9999REMSYN060AAXX  16171 01020 46/// /3011 11045 2//// 30026 40037 54003;
0130010200999992013011618004+76483+016550FM-12+001099999V0203001N010019999999N9999999N1-00441+99999100381ADDKA1120M+00001MA1999999100271MD1410001+9999REMSYN076AAXX  16181 01020 46/// /3010 11044 2//// 30027 40038 54002 333 10000 91114;
0101010200999992013011619004+76483+016550FM-12+001099999V0203001N011019999999N9999999N1-00491+99999100381ADDMA1999999100271MD1410001+9999REMSYN060AAXX  16191 01020 46/// /3011 11049 2//// 30027 40038 54001;
0101010200999992013011620004+76483+016550FM-12+001099999V0202901N011019999999N9999999N1-00471+99999100411ADDMA1999999100301MD1210031+9999REMSYN060AAXX  16201 01020 46/// /2911 11047 2//// 30030 40041 52003;
0101010200999992013011621004+76483+016550FM-12+001099999V0202801N010019999999N9999999N1-00461+99999100451ADDMA1999999100341MD1110071+9999REMSYN060AAXX  16211 01020 46/// /2810 11046 2//// 30034 40045 51007;
0101010200999992013011622004+76483+016550FM-12+001099999V0202901N008019999999N9999999N1-00461+99999100451ADDMA1999999100341MD1210071+9999REMSYN060AAXX  16221 01020 46/// /2908 11046 2//// 30034 40045 52007;
0101010200999992013011623004+76483+016550FM-12+001099999V0202801N008019999999N9999999N1-00421+99999100431ADDMA1999999100331MD1510031+9999REMSYN060AAXX  16231 01020 46/// /2808 11042 2//// 30033 40043 55003;
0111010200999992013011700004+76483+016550FM-12+001099999V0202801N006019999999N9999999N1-00391+99999100431ADDMA1999999100321MD1410001+9999REMSYN070AAXX  17001 01020 46/// /2806 11039 2//// 30032 40043 54002 333 91115;
0101010200999992013011701004+76483+016550FM-12+001099999V0202701N005019999999N9999999N1-00401+99999100411ADDMA1999999100301MD1710041+9999REMSYN060AAXX  17011 01020 46/// /2705 11040 2//// 30030 40041 57004;
0101010200999992013011702004+76483+016550FM-12+001099999V0202701N004019999999N9999999N1-00361+99999100371ADDMA1999999100261MD1710061+9999REMSYN060AAXX  17021 01020 46/// /2704 11036 2//// 30026 40037 57006;
0101010200999992013011704004+76483+016550FM-12+001099999V0203301N004019999999N9999999N1-00451+99999100281ADDMA1999999100171MD1710131+9999REMSYN060AAXX  17041 01020 46/// /3304 11045 2//// 30017 40028 57013;
0101010200999992013011706004+76483+016550FM-12+001099999V0203401N003019999999N9999999N1-00581+99999100181ADDMA1999999100071MD1710141+9999REMSYN060AAXX  17061 01020 46/// /3403 11058 2//// 30007 40018 57014;
0101010200999992013011707004+76483+016550FM-12+001099999V0200201N002019999999N9999999N1-00531+99999100161ADDMA1999999100051MD1710121+9999REMSYN060AAXX  17071 01020 46/// /0202 11053 2//// 30005 40016 57012;
0101010200999992013011708004+76483+016550FM-12+001099999V0200501N004019999999N9999999N1-00491+99999100131ADDMA1999999100021MD1710111+9999REMSYN060AAXX  17081 01020 46/// /0504 11049 2//// 30002 40013 57011;
0101010200999992013011709004+76483+016550FM-12+001099999V0200501N005019999999N9999999N1-00481+99999100101ADDMA1999999100001MD1710071+9999REMSYN060AAXX  17091 01020 46/// /0505 11048 2//// 30000 40010 57007;
0101010200999992013011710004+76483+016550FM-12+001099999V0200501N007019999999N9999999N1-00491+99999100071ADDMA1999999099961MD1710101+9999REMSYN060AAXX  17101 01020 46/// /0507 11049 2//// 39996 40007 57010;
0101010200999992013011711004+76483+016550FM-12+001099999V0200501N008019999999N9999999N1-00501+99999100051ADDMA1999999099941MD1710081+9999REMSYN060AAXX  17111 01020 46/// /0508 11050 2//// 39994 40005 57008;
0111010200999992013011712004+76483+016550FM-12+001099999V0200501N009019999999N9999999N1-00491+99999100001ADDMA1999999099901MD1710101+9999REMSYN070AAXX  17121 01020 46/// /0509 11049 2//// 39990 40000 57010 333 91109;
0101010200999992013011713004+76483+016550FM-12+001099999V0200501N009019999999N9999999N1-00491+99999099961ADDMA1999999099851MD1610111+9999REMSYN060AAXX  17131 01020 46/// /0509 11049 2//// 39985 49996 56011;
0101010200999992013011714004+76483+016550FM-12+001099999V0200501N010019999999N9999999N1-00491+99999099921ADDMA1999999099821MD1710131+9999REMSYN060AAXX  17141 01020 46/// /0510 11049 2//// 39982 49992 57013;
0101010200999992013011715004+76483+016550FM-12+001099999V0200501N010019999999N9999999N1-00501+99999099901ADDMA1999999099791MD1710111+9999REMSYN060AAXX  17151 01020 46/// /0510 11050 2//// 39979 49990 57011;
0101010200999992013011716004+76483+016550FM-12+001099999V0200601N011019999999N9999999N1-00531+99999099841ADDMA1999999099731MD1710121+9999REMSYN060AAXX  17161 01020 46/// /0611 11053 2//// 39973 49984 57012;
0101010200999992013011717004+76483+016550FM-12+001099999V0200601N012019999999N9999999N1-00561+99999099801ADDMA1999999099691MD1710131+9999REMSYN060AAXX  17171 01020 46/// /0612 11056 2//// 39969 49980 57013;
0130010200999992013011718004+76483+016550FM-12+001099999V0200501N013019999999N9999999N1-00571+99999099761ADDKA1120M-00471MA1999999099651MD1710131+9999REMSYN076AAXX  17181 01020 46/// /0513 11057 2//// 39965 49976 57013 333 11047 91114;
0101010200999992013011719004+76483+016550FM-12+001099999V0200501N014019999999N9999999N1-00591+99999099691ADDMA1999999099581MD1710151+9999REMSYN060AAXX  17191 01020 46/// /0514 11059 2//// 39958 49969 57015;
0101010200999992013011720004+76483+016550FM-12+001099999V0200401N014019999999N9999999N1-00551+99999099681ADDMA1999999099581MD1810111+9999REMSYN060AAXX  17201 01020 46/// /0414 11055 2//// 39958 49968 58011;
0101010200999992013011721004+76483+016550FM-12+001099999V0200401N014019999999N9999999N1-00561+99999099671ADDMA1999999099561MD1810091+9999REMSYN060AAXX  17211 01020 46/// /0414 11056 2//// 39956 49967 58009;
0101010200999992013011722004+76483+016550FM-12+001099999V0200401N014019999999N9999999N1-00581+99999099651ADDMA1999999099541MD1710041+9999REMSYN060AAXX  17221 01020 46/// /0414 11058 2//// 39954 49965 57004;
0101010200999992013011723004+76483+016550FM-12+001099999V0200401N012019999999N9999999N1-00561+99999099671ADDMA1999999099561MD1010011+9999REMSYN060AAXX  17231 01020 46/// /0412 11056 2//// 39956 49967 50001;
0111010200999992013011800004+76483+016550FM-12+001099999V0200401N010019999999N9999999N1-00561+99999099701ADDMA1999999099591MD1010031+9999REMSYN070AAXX  18001 01020 46/// /0410 11056 2//// 39959 49970 50003 333 91116;
0101010200999992013011803004+76483+016550FM-12+001099999V0200301N001019999999N9999999N1-00551+99999099791ADDMA1999999099681MD1210101+9999REMSYN060AAXX  18031 01020 46/// /0301 11055 2//// 39968 49979 52010;
0101010200999992013011804004+76483+016550FM-12+001099999V0209999C000019999999N9999999N1-00571+99999099811ADDMA1999999099701MD1210071+9999REMSYN060AAXX  18041 01020 46/// /0000 11057 2//// 39970 49981 52007;
0101010200999992013011805004+76483+016550FM-12+001099999V0203401N002019999999N9999999N1-00531+99999099861ADDMA1999999099751MD1210091+9999REMSYN060AAXX  18051 01020 46/// /3402 11053 2//// 39975 49986 52009;
0101010200999992013011806004+76483+016550FM-12+001099999V0203501N003019999999N9999999N1-00601+99999099891ADDMA1999999099781MD1210101+9999REMSYN060AAXX  18061 01020 46/// /3503 11060 2//// 39978 49989 52010;
0101010200999992013011807004+76483+016550FM-12+001099999V0200101N008019999999N9999999N1-00511+99999099961ADDMA1999999099851MD1210151+9999REMSYN060AAXX  18071 01020 46/// /0108 11051 2//// 39985 49996 52015;
0101010200999992013011808004+76483+016550FM-12+001099999V0200301N010019999999N9999999N1-00391+99999100001ADDMA1999999099901MD1210151+9999REMSYN060AAXX  18081 01020 46/// /0310 11039 2//// 39990 40000 52015;
0101010200999992013011809004+76483+016550FM-12+001099999V0200301N014019999999N9999999N1-00461+99999100081ADDMA1999999099971MD1210181+9999REMSYN060AAXX  18091 01020 46/// /0314 11046 2//// 39997 40008 52018;
0101010200999992013011810004+76483+016550FM-12+001099999V0200301N016019999999N9999999N1-00531+99999100141ADDMA1999999100031MD1210181+9999REMSYN060AAXX  18101 01020 46/// /0316 11053 2//// 30003 40014 52018;
0101010200999992013011811004+76483+016550FM-12+001099999V0200401N017019999999N9999999N1-00641+99999100261ADDMA1999999100151MD1110251+9999REMSYN060AAXX  18111 01020 46/// /0417 11064 2//// 30015 40026 51025;
0111010200999992013011812004+76483+016550FM-12+001099999V0200401N017019999999N9999999N1-00681+99999100331ADDMA1999999100221MD1210251+9999REMSYN070AAXX  18121 01020 46/// /0417 11068 2//// 30022 40033 52025 333 91120;
0101010200999992013011813004+76483+016550FM-12+001099999V0200401N015019999999N9999999N1-00741+99999100401ADDMA1999999100291MD1310251+9999REMSYN060AAXX  18131 01020 46/// /0415 11074 2//// 30029 40040 53025;
0101010200999992013011814004+76483+016550FM-12+001099999V0200401N011019999999N9999999N1-00741+99999100521ADDMA1999999100411MD1110261+9999REMSYN060AAXX  18141 01020 46/// /0411 11074 2//// 30041 40052 51026;
0101010200999992013011815004+76483+016550FM-12+001099999V0200301N010019999999N9999999N1-00771+99999100561ADDMA1999999100451MD1310231+9999REMSYN060AAXX  18151 01020 46/// /0310 11077 2//// 30045 40056 53023;
0101010200999992013011816004+76483+016550FM-12+001099999V0200301N008019999999N9999999N1-00791+99999100661ADDMA1999999100551MD1210261+9999REMSYN060AAXX  18161 01020 46/// /0308 11079 2//// 30055 40066 52026;
0101010200999992013011817004+76483+016550FM-12+001099999V0200301N006019999999N9999999N1-00791+99999100721ADDMA1999999100611MD1210191+9999REMSYN060AAXX  18171 01020 46/// /0306 11079 2//// 30061 40072 52019;
0130010200999992013011818004+76483+016550FM-12+001099999V0203501N007019999999N9999999N1-00881+99999100751ADDKA1120M-00371MA1999999100641MD1310191+9999REMSYN076AAXX  18181 01020 46/// /3507 11088 2//// 30064 40075 53019 333 11037 91118;
0101010200999992013011819004+76483+016550FM-12+001099999V0203501N007019999999N9999999N1-00811+99999100821ADDMA1999999100711MD1210161+9999REMSYN060AAXX  18191 01020 46/// /3507 11081 2//// 30071 40082 52016;
0101010200999992013011820004+76483+016550FM-12+001099999V0200301N012019999999N9999999N1-00621+99999100851ADDMA1999999100741MD1210131+9999REMSYN060AAXX  18201 01020 46/// /0312 11062 2//// 30074 40085 52013;
0101010200999992013011821004+76483+016550FM-12+001099999V0200101N008019999999N9999999N1-00651+99999100971ADDMA1999999100861MD1110221+9999REMSYN060AAXX  18211 01020 46/// /0108 11065 2//// 30086 40097 51022;
0101010200999992013011822004+76483+016550FM-12+001099999V0200101N006019999999N9999999N1-00591+99999101071ADDMA1999999100961MD1110251+9999REMSYN060AAXX  18221 01020 46/// /0106 11059 2//// 30096 40107 51025;
0101010200999992013011823004+76483+016550FM-12+001099999V0200201N011019999999N9999999N1-00591+99999101121ADDMA1999999101021MD1310281+9999REMSYN060AAXX  18231 01020 46/// /0211 11059 2//// 30102 40112 53028;
0111010200999992013011900004+76483+016550FM-12+001099999V0200201N010019999999N9999999N1-00591+99999101191ADDMA1999999101081MD1310221+9999REMSYN070AAXX  19001 01020 46/// /0210 11059 2//// 30108 40119 53022 333 91114;
0101010200999992013011901004+76483+016550FM-12+001099999V0200301N010019999999N9999999N1-00571+99999101281ADDMA1999999101171MD1110211+9999REMSYN060AAXX  19011 01020 46/// /0310 11057 2//// 30117 40128 51021;
0101010200999992013011902004+76483+016550FM-12+001099999V0200301N007019999999N9999999N1-00601+99999101361ADDMA1999999101251MD1210241+9999REMSYN060AAXX  19021 01020 46/// /0307 11060 2//// 30125 40136 52024;
0101010200999992013011903004+76483+016550FM-12+001099999V0200201N007019999999N9999999N1-00591+99999101411ADDMA1999999101301MD1310221+9999REMSYN060AAXX  19031 01020 46/// /0207 11059 2//// 30130 40141 53022;
0101010200999992013011904004+76483+016550FM-12+001099999V0200301N007019999999N9999999N1-00611+99999101491ADDMA1999999101381MD1210201+9999REMSYN060AAXX  19041 01020 46/// /0307 11061 2//// 30138 40149 52020;
0101010200999992013011905004+76483+016550FM-12+001099999V0200401N007019999999N9999999N1-00611+99999101501ADDMA1999999101391MD1310141+9999REMSYN060AAXX  19051 01020 46/// /0407 11061 2//// 30139 40150 53014;
0130010200999992013011906004+76483+016550FM-12+001099999V0200401N008019999999N9999999N1-00591+99999101521ADDKA1999N-00911MA1999999101411MD1310111+9999REMSYN076AAXX  19061 01020 46/// /0408 11059 2//// 30141 40152 53011 333 21091 91113;
0101010200999992013011907004+76483+016550FM-12+001099999V0200401N007019999999N9999999N1-00581+99999101561ADDMA1999999101451MD1210071+9999REMSYN060AAXX  19071 01020 46/// /0407 11058 2//// 30145 40156 52007;
0101010200999992013011908004+76483+016550FM-12+001099999V0200501N007019999999N9999999N1-00581+99999101571ADDMA1999999101461MD1210071+9999REMSYN060AAXX  19081 01020 46/// /0507 11058 2//// 30146 40157 52007;
0101010200999992013011909004+76483+016550FM-12+001099999V0200501N006019999999N9999999N1-00551+99999101611ADDMA1999999101501MD1210091+9999REMSYN060AAXX  19091 01020 46/// /0506 11055 2//// 30150 40161 52009;
0101010200999992013011910004+76483+016550FM-12+001099999V0200501N006019999999N9999999N1-00531+99999101621ADDMA1999999101511MD1210071+9999REMSYN060AAXX  19101 01020 46/// /0506 11053 2//// 30151 40162 52007;
0101010200999992013011911004+76483+016550FM-12+001099999V0200501N006019999999N9999999N1-00541+99999101621ADDMA1999999101511MD1310051+9999REMSYN060AAXX  19111 01020 46/// /0506 11054 2//// 30151 40162 53005;
0111010200999992013011912004+76483+016550FM-12+001099999V0200601N006019999999N9999999N1-00541+99999101611ADDMA1999999101501MD1410001+9999REMSYN070AAXX  19121 01020 46/// /0606 11054 2//// 30150 40161 54000 333 91108;
0101010200999992013011913004+76483+016550FM-12+001099999V0200701N005019999999N9999999N1-00511+99999101611ADDMA1999999101501MD1410001+9999REMSYN060AAXX  19131 01020 46/// /0705 11051 2//// 30150 40161 54001;
0101010200999992013011914004+76483+016550FM-12+001099999V0201001N005019999999N9999999N1-00481+99999101571ADDMA1999999101461MD1710051+9999REMSYN060AAXX  19141 01020 46/// /1005 11048 2//// 30146 40157 57005;
0101010200999992013011915004+76483+016550FM-12+001099999V0201001N006019999999N9999999N1-00451+99999101541ADDMA1999999101431MD1710071+9999REMSYN060AAXX  19151 01020 46/// /1006 11045 2//// 30143 40154 57007;
0101010200999992013011916004+76483+016550FM-12+001099999V0201101N006019999999N9999999N1-00451+99999101521ADDMA1999999101411MD1710091+9999REMSYN060AAXX  19161 01020 46/// /1106 11045 2//// 30141 40152 57009;
0101010200999992013011917004+76483+016550FM-12+001099999V0201001N007019999999N9999999N1-00431+99999101471ADDMA1999999101361MD1710101+9999REMSYN060AAXX  19171 01020 46/// /1007 11043 2//// 30136 40147 57010;
0130010200999992013011918004+76483+016550FM-12+001099999V0201001N009019999999N9999999N1-00411+99999101401ADDKA1120M-00391MA1999999101291MD1610141+9999REMSYN076AAXX  19181 01020 46/// /1009 11041 2//// 30129 40140 56014 333 11039 91109;
0101010200999992013011919004+76483+016550FM-12+001099999V0200801N009019999999N9999999N1-00371+99999101351ADDMA1999999101251MD1710171+9999REMSYN060AAXX  19191 01020 46/// /0809 11037 2//// 30125 40135 57017;
0101010200999992013011920004+76483+016550FM-12+001099999V0200801N008019999999N9999999N1-00321+99999101331ADDMA1999999101221MD1810151+9999REMSYN060AAXX  19201 01020 46/// /0808 11032 2//// 30122 40133 58015;
0101010200999992013011921004+76483+016550FM-12+001099999V0201201N007019999999N9999999N1-00261+99999101271ADDMA1999999101161MD1710131+9999REMSYN060AAXX  19211 01020 46/// /1207 11026 2//// 30116 40127 57013;
0101010200999992013011922004+76483+016550FM-12+001099999V0201001N005019999999N9999999N1-00221+99999101231ADDMA1999999101121MD1710121+9999REMSYN060AAXX  19221 01020 46/// /1005 11022 2//// 30112 40123 57012;
0101010200999992013011923004+76483+016550FM-12+001099999V0200701N001019999999N9999999N1-00181+99999101191ADDMA1999999101081MD1710141+9999REMSYN060AAXX  19231 01020 46/// /0701 11018 2//// 30108 40119 57014;
0111010200999992013012000004+76483+016550FM-12+001099999V0203601N001019999999N9999999N1-00241+99999101151ADDMA1999999101041MD1710121+9999REMSYN070AAXX  20001 01020 46/// /3601 11024 2//// 30104 40115 57012 333 91112;
0101010200999992013012001004+76483+016550FM-12+001099999V0200201N002019999999N9999999N1-00271+99999101111ADDMA1999999101001MD1710121+9999REMSYN060AAXX  20011 01020 46/// /0202 11027 2//// 30100 40111 57012;
0101010200999992013012002004+76483+016550FM-12+001099999V0203501N001019999999N9999999N1-00291+99999101061ADDMA1999999100951MD1710131+9999REMSYN060AAXX  20021 01020 46/// /3501 11029 2//// 30095 40106 57013;
0101010200999992013012003004+76483+016550FM-12+001099999V0202501N001019999999N9999999N1-00261+99999101001ADDMA1999999100891MD1710141+9999REMSYN060AAXX  20031 01020 46/// /2501 11026 2//// 30089 40100 57014;
0101010200999992013012004004+76483+016550FM-12+001099999V0202701N006019999999N9999999N1-00191+99999100921ADDMA1999999100811MD1710191+9999REMSYN060AAXX  20041 01020 46/// /2706 11019 2//// 30081 40092 57019;
0101010200999992013012005004+76483+016550FM-12+001099999V0202901N008019999999N9999999N1-00221+99999100841ADDMA1999999100731MD1710221+9999REMSYN060AAXX  20051 01020 46/// /2908 11022 2//// 30073 40084 57022;
0130010200999992013012006004+76483+016550FM-12+001099999V0202701N008019999999N9999999N1-00221+99999100731ADDKA1999N-00411MA1999999100631MD1710271+9999REMSYN076AAXX  20061 01020 46/// /2708 11022 2//// 30063 40073 57027 333 21041 91109;
0101010200999992013012007004+76483+016550FM-12+001099999V0202601N004019999999N9999999N1-00201+99999100681ADDMA1999999100571MD1810241+9999REMSYN060AAXX  20071 01020 46/// /2604 11020 2//// 30057 40068 58024;
0101010200999992013012008004+76483+016550FM-12+001099999V0201301N003019999999N9999999N1-00201+99999100521ADDMA1999999100421MD1610311+9999REMSYN060AAXX  20081 01020 46/// /1303 11020 2//// 30042 40052 56031;
0101010200999992013012009004+76483+016550FM-12+001099999V0202801N009019999999N9999999N1+00041+99999100351ADDMA1999999100241MD1610381+9999REMSYN060AAXX  20091 01020 46/// /2809 10004 2//// 30024 40035 56038;
0101010200999992013012010004+76483+016550FM-12+001099999V0202701N013019999999N9999999N1+00171+99999100231ADDMA1999999100121MD1810451+9999REMSYN060AAXX  20101 01020 46/// /2713 10017 2//// 30012 40023 58045;
0101010200999992013012011004+76483+016550FM-12+001099999V0202701N014019999999N9999999N1+00181+99999100161ADDMA1999999100061MD1810361+9999REMSYN060AAXX  20111 01020 46/// /2714 10018 2//// 30006 40016 58036;
0111010200999992013012012004+76483+016550FM-12+001099999V0202701N014019999999N9999999N1+00171+99999100111ADDMA1999999100011MD1810231+9999REMSYN070AAXX  20121 01020 46/// /2714 10017 2//// 30001 40011 58023 333 91116;
0101010200999992013012013004+76483+016550FM-12+001099999V0202701N013019999999N9999999N1+00191+99999100071ADDMA1999999099961MD1710161+9999REMSYN060AAXX  20131 01020 46/// /2713 10019 2//// 39996 40007 57016;
0101010200999992013012014004+76483+016550FM-12+001099999V0202701N013019999999N9999999N1+00181+99999099971ADDMA1999999099871MD1610191+9999REMSYN060AAXX  20141 01020 46/// /2713 10018 2//// 39987 49997 56019;
0101010200999992013012015004+76483+016550FM-12+001099999V0202801N012019999999N9999999N1+00171+99999099891ADDMA1999999099781MD1610221+9999REMSYN060AAXX  20151 01020 46/// /2812 10017 2//// 39978 49989 56022;
0101010200999992013012016004+76483+016550FM-12+001099999V0202801N013019999999N9999999N1+00151+99999099791ADDMA1999999099691MD1710281+9999REMSYN060AAXX  20161 01020 46/// /2813 10015 2//// 39969 49979 57028;
0101010200999992013012017004+76483+016550FM-12+001099999V0202901N013019999999N9999999N1+00041+99999099771ADDMA1999999099661MD1810201+9999REMSYN060AAXX  20171 01020 46/// /2913 10004 2//// 39966 49977 58020;
0130010200999992013012018004+76483+016550FM-12+001099999V0202801N014019999999N9999999N1+00041+99999099641ADDKA1120M+00201MA1999999099541MD1710251+9999REMSYN076AAXX  20181 01020 46/// /2814 10004 2//// 39954 49964 57025 333 10020 91117;
0101010200999992013012019004+76483+016550FM-12+001099999V0202901N015019999999N9999999N1+00001+99999099611ADDMA1999999099501MD1710181+9999REMSYN060AAXX  20191 01020 46/// /2915 10000 2//// 39950 49961 57018;
0101010200999992013012020004+76483+016550FM-12+001099999V0202901N016019999999N9999999N1-00031+99999099581ADDMA1999999099481MD1810181+9999REMSYN060AAXX  20201 01020 46/// /2916 11003 2//// 39948 49958 58018;
0101010200999992013012021004+76483+016550FM-12+001099999V0202901N015019999999N9999999N1-00091+99999099571ADDMA1999999099461MD1710071+9999REMSYN060AAXX  20211 01020 46/// /2915 11009 2//// 39946 49957 57007;
0101010200999992013012022004+76483+016550FM-12+001099999V0203001N015019999999N9999999N1-00191+99999099561ADDMA1999999099461MD1710041+9999REMSYN060AAXX  20221 01020 46/// /3015 11019 2//// 39946 49956 57004;
0101010200999992013012023004+76483+016550FM-12+001099999V0203101N013019999999N9999999N1-00271+99999099641ADDMA1999999099531MD1110051+9999REMSYN060AAXX  20231 01020 46/// /3113 11027 2//// 39953 49964 51005;
0111010200999992013012100004+76483+016550FM-12+001099999V0203001N014019999999N9999999N1-00221+99999099611ADDMA1999999099501MD1210041+9999REMSYN070AAXX  21001 01020 46/// /3014 11022 2//// 39950 49961 52004 333 91118;
0101010200999992013012101004+76483+016550FM-12+001099999V0203001N013019999999N9999999N1-00251+99999099601ADDMA1999999099491MD1310031+9999REMSYN060AAXX  21011 01020 46/// /3013 11025 2//// 39949 49960 53003;
0101010200999992013012102004+76483+016550FM-12+001099999V0203201N011019999999N9999999N1-00331+99999099611ADDMA1999999099501MD1810031+9999REMSYN060AAXX  21021 01020 46/// /3211 11033 2//// 39950 49961 58003;
0101010200999992013012103004+76483+016550FM-12+001099999V0203101N013019999999N9999999N1-00461+99999099651ADDMA1999999099551MD1110041+9999REMSYN060AAXX  21031 01020 46/// /3113 11046 2//// 39955 49965 51004;
0101010200999992013012104004+76483+016550FM-12+001099999V0203301N011019999999N9999999N1-00531+99999099661ADDMA1999999099561MD1210071+9999REMSYN060AAXX  21041 01020 46/// /3311 11053 2//// 39956 49966 52007;
0101010200999992013012105004+76483+016550FM-12+001099999V0203401N008019999999N9999999N1-00551+99999099751ADDMA1999999099651MD1110141+9999REMSYN060AAXX  21051 01020 46/// /3408 11055 2//// 39965 49975 51014;
0130010200999992013012106004+76483+016550FM-12+001099999V0203401N006019999999N9999999N1-00711+99999099811ADDKA1999N-00721MA1999999099701MD1110161+9999REMSYN076AAXX  21061 01020 46/// /3406 11071 2//// 39970 49981 51016 333 21072 91118;
0101010200999992013012107004+76483+016550FM-12+001099999V0203401N006019999999N9999999N1-00611+99999099861ADDMA1999999099751MD1310191+9999REMSYN060AAXX  21071 01020 46/// /3406 11061 2//// 39975 49986 53019;
0101010200999992013012108004+76483+016550FM-12+001099999V0200201N005019999999N9999999N1-00551+99999099951ADDMA1999999099841MD1110191+9999REMSYN060AAXX  21081 01020 46/// /0205 11055 2//// 39984 49995 51019;
0101010200999992013012109004+76483+016550FM-12+001099999V0200501N015019999999N9999999N1-00631+99999100001ADDMA1999999099891MD1210191+9999REMSYN060AAXX  21091 01020 46/// /0515 11063 2//// 39989 40000 52019;
0101010200999992013012110004+76483+016550FM-12+001099999V0200401N020019999999N9999999N1-00801+99999100021ADDMA1999999099911MD1310161+9999REMSYN060AAXX  21101 01020 46/// /0420 11080 2//// 39991 40002 53016;
0101010200999992013012111004+76483+016550FM-12+001099999V0200401N020019999999N9999999N1-00921+99999100151ADDMA1999999100041MD1110201+9999REMSYN060AAXX  21111 01020 46/// /0420 11092 2//// 30004 40015 51020;
0111010200999992013012112004+76483+016550FM-12+001099999V0200401N021019999999N9999999N1-01041+99999100261ADDMA1999999100151MD1110261+9999REMSYN070AAXX  21121 01020 46/// /0421 11104 2//// 30015 40026 51026 333 91124;
0101010200999992013012113004+76483+016550FM-12+001099999V0200301N018019999999N9999999N1-01111+99999100431ADDMA1999999100321MD1110411+9999REMSYN060AAXX  21131 01020 46/// /0318 11111 2//// 30032 40043 51041;
0101010200999992013012114004+76483+016550FM-12+001099999V0200401N019019999999N9999999N1-01181+99999100481ADDMA1999999100371MD1310331+9999REMSYN060AAXX  21141 01020 46/// /0419 11118 2//// 30037 40048 53033;
0101010200999992013012115004+76483+016550FM-12+001099999V0200301N018019999999N9999999N1-01271+99999100621ADDMA1999999100511MD1210361+9999REMSYN060AAXX  21151 01020 46/// /0318 11127 2//// 30051 40062 52036;
