0072010231999992013010100204+64350+007800AUTO +0000ENDR V0201001N010312200019N9999999N1+00401-00101999999ADDMA1097491999999REMMET045METAR ENDR 010020Z AUTO 10020KT 04/M01 Q0975;
0072010231999992013010100504+64350+007800AUTO +0000ENDR V0201101N010312200019N9999999N1+00501+00001999999ADDMA1097491999999REMMET045METAR ENDR 010050Z AUTO 11020KT 05/M00 Q0975;
0071010231999992013010101204+64350+007800AUTO +0000ENDR V0201001N009812200019N9999999N1+00501+00001999999ADDMA1097491999999REMMET044METAR ENDR 010120Z AUTO 10019KT 05/00 Q0975;
0072010231999992013010101504+64350+007800AUTO +0000ENDR V0200901N008212200019N9999999N1+00401+00001999999ADDMA1097491999999REMMET045METAR ENDR 010150Z AUTO 09016KT 04/M00 Q0975;
0071010231999992013010102204+64350+007800AUTO +0000ENDR V0200901N008212200019N9999999N1+00501+00001999999ADDMA1097491999999REMMET044METAR ENDR 010220Z AUTO 09016KT 05/00 Q0975;
0071010231999992013010102504+64350+007800AUTO +0000ENDR V0200901N007712200019N9999999N1+00501+00101999999ADDMA1097491999999REMMET044METAR ENDR 010250Z AUTO 09015KT 05/01 Q0975;
0071010231999992013010103204+64350+007800AUTO +0000ENDR V0201001N006212200019N9999999N1+00501+00001999999ADDMA1097491999999REMMET044METAR ENDR 010320Z AUTO 10012KT 05/00 Q0975;
0071010231999992013010103504+64350+007800AUTO +0000ENDR V0201101N005112200019N9999999N1+00501+00101999999ADDMA1097491999999REMMET044METAR ENDR 010350Z AUTO 11010KT 05/01 Q0975;
0071010231999992013010104204+64350+007800AUTO +0000ENDR V0200901N005112200019N9999999N1+00501+00201999999ADDMA1097601999999REMMET044METAR ENDR 010420Z AUTO 09010KT 05/02 Q0976;
0071010231999992013010104504+64350+007800AUTO +0000ENDR V0201401N004612200019N9999999N1+00401+00201999999ADDMA1097601999999REMMET044METAR ENDR 010450Z AUTO 14009KT 04/02 Q0976;
0071010231999992013010105204+64350+007800AUTO +0000ENDR V0201301N004112200019N9999999N1+00501+00301999999ADDMA1097601999999REMMET044METAR ENDR 010520Z AUTO 13008KT 05/03 Q0976;
0071010231999992013010105504+64350+007800AUTO +0000ENDR V0201301N005112200019N9999999N1+00501+00301999999ADDMA1097491999999REMMET044METAR ENDR 010550Z AUTO 13010KT 05/03 Q0975;
0071010231999992013010106204+64350+007800AUTO +0000ENDR V0201201N007712200019N9999999N1+00501+00501999999ADDMA1097491999999REMMET044METAR ENDR 010620Z AUTO 12015KT 05/05 Q0975;
0071010231999992013010106504+64350+007800AUTO +0000ENDR V0202001N012312200019N9999999N1+00601+00501999999ADDMA1097491999999REMMET044METAR ENDR 010650Z AUTO 20024KT 06/05 Q0975;
0071010231999992013010107204+64350+007800AUTO +0000ENDR V0202101N015912200019N9999999N1+00601+00501999999ADDMA1097491999999REMMET044METAR ENDR 010720Z AUTO 21031KT 06/05 Q0975;
0071010231999992013010107504+64350+007800AUTO +0000ENDR V0202101N014912200019N9999999N1+00601+00401999999ADDMA1097491999999REMMET044METAR ENDR 010750Z AUTO 21029KT 06/04 Q0975;
0071010231999992013010108204+64350+007800AUTO +0000ENDR V0202001N013912200019N9999999N1+00601+00401999999ADDMA1097601999999REMMET044METAR ENDR 010820Z AUTO 20027KT 06/04 Q0976;
0071010231999992013010108504+64350+007800AUTO +0000ENDR V0202001N015912200019N9999999N1+00601+00301999999ADDMA1097491999999REMMET044METAR ENDR 010850Z AUTO 20031KT 06/03 Q0975;
0071010231999992013010109204+64350+007800AUTO +0000ENDR V0201901N013412200019N9999999N1+00601+00301999999ADDMA1097601999999REMMET044METAR ENDR 010920Z AUTO 19026KT 06/03 Q0976;
0071010231999992013010109504+64350+007800AUTO +0000ENDR V0201801N011812200019N9999999N1+00601+00401999999ADDMA1097601999999REMMET044METAR ENDR 010950Z AUTO 18023KT 06/04 Q0976;
0071010231999992013010110204+64350+007800AUTO +0000ENDR V0202001N006212200019N9999999N1+00601+00601999999ADDMA1097491999999REMMET044METAR ENDR 011020Z AUTO 20012KT 06/06 Q0975;
0071010231999992013010110504+64350+007800AUTO +0000ENDR V0202301N009812200019N9999999N1+00601+00501999999ADDMA1097601999999REMMET044METAR ENDR 011050Z AUTO 23019KT 06/05 Q0976;
0071010231999992013010111204+64350+007800AUTO +0000ENDR V0202401N008212200019N9999999N1+00601+00401999999ADDMA1097701999999REMMET044METAR ENDR 011120Z AUTO 24016KT 06/04 Q0977;
0071010231999992013010111504+64350+007800AUTO +0000ENDR V0202301N009812200019N9999999N1+00601+00501999999ADDMA1097701999999REMMET044METAR ENDR 011150Z AUTO 23019KT 06/05 Q0977;
0071010231999992013010112204+64350+007800AUTO +0000ENDR V0202401N012912200019N9999999N1+00601+00501999999ADDMA1097801999999REMMET044METAR ENDR 011220Z AUTO 24025KT 06/05 Q0978;
0071010231999992013010112504+64350+007800AUTO +0000ENDR V0202301N013912200019N9999999N1+00601+00401999999ADDMA1097801999999REMMET044METAR ENDR 011250Z AUTO 23027KT 06/04 Q0978;
0071010231999992013010113204+64350+007800AUTO +0000ENDR V0202201N013912200019N9999999N1+00601+00401999999ADDMA1097901999999REMMET044METAR ENDR 011320Z AUTO 22027KT 06/04 Q0979;
0071010231999992013010113504+64350+007800AUTO +0000ENDR V0202201N012912200019N9999999N1+00501+00401999999ADDMA1097901999999REMMET044METAR ENDR 011350Z AUTO 22025KT 05/04 Q0979;
0071010231999992013010114204+64350+007800AUTO +0000ENDR V0202201N011812200019N9999999N1+00501+00401999999ADDMA1098001999999REMMET044METAR ENDR 011420Z AUTO 22023KT 05/04 Q0980;
0071010231999992013010114504+64350+007800AUTO +0000ENDR V0202201N011812200019N9999999N1+00501+00401999999ADDMA1098001999999REMMET044METAR ENDR 011450Z AUTO 22023KT 05/04 Q0980;
0131010231999992013010115104+64350+007800FM-15+0000ENDR V0202201N011810030019N0112651N1+00501+00401999999ADDGA1071+003001999GF107991999999999999999999MA1098001999999MW1161REMMET056METAR ENDR 011510Z 22023KT 9999 VCSH BKN010 05/04 Q0980;
0071010231999992013010115504+64350+007800AUTO +0000ENDR V0202201N010312200019N9999999N1+00501+00401999999ADDMA1098101999999REMMET044METAR ENDR 011550Z AUTO 22020KT 05/04 Q0981;
0071010231999992013010116204+64350+007800AUTO +0000ENDR V0202301N008212200019N9999999N1+00501+00401999999ADDMA1098101999999REMMET044METAR ENDR 011620Z AUTO 23016KT 05/04 Q0981;
0071010231999992013010116504+64350+007800AUTO +0000ENDR V0202401N004112200019N9999999N1+00601+00501999999ADDMA1098211999999REMMET044METAR ENDR 011650Z AUTO 24008KT 06/05 Q0982;
0071010231999992013010117204+64350+007800AUTO +0000ENDR V0202701N005712200019N9999999N1+00601+00501999999ADDMA1098211999999REMMET044METAR ENDR 011720Z AUTO 27011KT 06/05 Q0982;
0071010231999992013010117504+64350+007800AUTO +0000ENDR V0202801N006712200019N9999999N1+00601+00501999999ADDMA1098211999999REMMET044METAR ENDR 011750Z AUTO 28013KT 06/05 Q0982;
0071010231999992013010118204+64350+007800AUTO +0000ENDR V0203201N008212200019N9999999N1+00801+00601999999ADDMA1098311999999REMMET044METAR ENDR 011820Z AUTO 32016KT 08/06 Q0983;
0071010231999992013010118504+64350+007800AUTO +0000ENDR V0203201N010312200019N9999999N1+00701+00501999999ADDMA1098311999999REMMET044METAR ENDR 011850Z AUTO 32020KT 07/05 Q0983;
0071010231999992013010119204+64350+007800AUTO +0000ENDR V0203201N010312200019N9999999N1+00701+00501999999ADDMA1098311999999REMMET044METAR ENDR 011920Z AUTO 32020KT 07/05 Q0983;
0071010231999992013010119504+64350+007800AUTO +0000ENDR V0203201N011812200019N9999999N1+00701+00501999999ADDMA1098411999999REMMET044METAR ENDR 011950Z AUTO 32023KT 07/05 Q0984;
0071010231999992013010120204+64350+007800AUTO +0000ENDR V0203101N012312200019N9999999N1+00601+00501999999ADDMA1098511999999REMMET044METAR ENDR 012020Z AUTO 31024KT 06/05 Q0985;
0071010231999992013010120504+64350+007800AUTO +0000ENDR V0203101N013412200019N9999999N1+00601+00501999999ADDMA1098511999999REMMET044METAR ENDR 012050Z AUTO 31026KT 06/05 Q0985;
0071010231999992013010121204+64350+007800AUTO +0000ENDR V0203101N014412200019N9999999N1+00701+00601999999ADDMA1098511999999REMMET044METAR ENDR 012120Z AUTO 31028KT 07/06 Q0985;
0071010231999992013010121504+64350+007800AUTO +0000ENDR V0203301N007712200019N9999999N1+00801+00601999999ADDMA1098611999999REMMET044METAR ENDR 012150Z AUTO 33015KT 08/06 Q0986;
0071010231999992013010122204+64350+007800AUTO +0000ENDR V0203401N009812200019N9999999N1+00701+00601999999ADDMA1098611999999REMMET044METAR ENDR 012220Z AUTO 34019KT 07/06 Q0986;
0071010231999992013010122504+64350+007800AUTO +0000ENDR V0203401N010312200019N9999999N1+00701+00501999999ADDMA1098711999999REMMET044METAR ENDR 012250Z AUTO 34020KT 07/05 Q0987;
0071010231999992013010123204+64350+007800AUTO +0000ENDR V0203501N013912200019N9999999N1+00701+00501999999ADDMA1098711999999REMMET044METAR ENDR 012320Z AUTO 35027KT 07/05 Q0987;
0071010231999992013010123504+64350+007800AUTO +0000ENDR V0203501N013412200019N9999999N1+00701+00501999999ADDMA1098821999999REMMET044METAR ENDR 012350Z AUTO 35026KT 07/05 Q0988;
0071010231999992013010200204+64350+007800AUTO +0000ENDR V0203501N012312200019N9999999N1+00701+00501999999ADDMA1098921999999REMMET044METAR ENDR 020020Z AUTO 35024KT 07/05 Q0989;
0082010231999992013010200504+64350+007800AUTO +0000ENDR V0203401N012312200019N9999999N1+00701+00501999999ADDMA1098921999999OC101801REMMET047METAR ENDR 020050Z AUTO 34024G35KT 07/05 Q0989;
0071010231999992013010201204+64350+007800AUTO +0000ENDR V0203501N013912200019N9999999N1+00701+00501999999ADDMA1098981999999REMMET044METAR ENDR 020120Z AUTO 35027KT 07/05 Q0990;
0071010231999992013010201504+64350+007800AUTO +0000ENDR V0203501N017012200019N9999999N1+00601+00501999999ADDMA1099091999999REMMET044METAR ENDR 020150Z AUTO 35033KT 06/05 Q0991;
0071010231999992013010202204+64350+007800AUTO +0000ENDR V0203501N014412200019N9999999N1+00601+00401999999ADDMA1099191999999REMMET044METAR ENDR 020220Z AUTO 35028KT 06/04 Q0992;
0071010231999992013010202504+64350+007800AUTO +0000ENDR V0203501N013912200019N9999999N1+00701+00401999999ADDMA1099191999999REMMET044METAR ENDR 020250Z AUTO 35027KT 07/04 Q0992;
0071010231999992013010203204+64350+007800AUTO +0000ENDR V0203501N016512200019N9999999N1+00601+00401999999ADDMA1099291999999REMMET044METAR ENDR 020320Z AUTO 35032KT 06/04 Q0993;
0071010231999992013010203504+64350+007800AUTO +0000ENDR V0203501N015912200019N9999999N1+00601+00401999999ADDMA1099391999999REMMET044METAR ENDR 020350Z AUTO 35031KT 06/04 Q0994;
0071010231999992013010204204+64350+007800AUTO +0000ENDR V0203501N014912200019N9999999N1+00601+00301999999ADDMA1099491999999REMMET044METAR ENDR 020420Z AUTO 35029KT 06/03 Q0995;
0071010231999992013010204504+64350+007800AUTO +0000ENDR V0203501N014412200019N9999999N1+00601+00201999999ADDMA1099591999999REMMET044METAR ENDR 020450Z AUTO 35028KT 06/02 Q0996;
0071010231999992013010205204+64350+007800AUTO +0000ENDR V0203501N011812200019N9999999N1+00601+00201999999ADDMA1099591999999REMMET044METAR ENDR 020520Z AUTO 35023KT 06/02 Q0996;
0071010231999992013010205504+64350+007800AUTO +0000ENDR V0203501N011812200019N9999999N1+00601+00301999999ADDMA1099701999999REMMET044METAR ENDR 020550Z AUTO 35023KT 06/03 Q0997;
0071010231999992013010206204+64350+007800AUTO +0000ENDR V0203501N010312200019N9999999N1+00601+00201999999ADDMA1099801999999REMMET044METAR ENDR 020620Z AUTO 35020KT 06/02 Q0998;
0071010231999992013010206504+64350+007800AUTO +0000ENDR V0203301N008212200019N9999999N1+00701+00101999999ADDMA1099901999999REMMET044METAR ENDR 020650Z AUTO 33016KT 07/01 Q0999;
0120010231999992013010207204+64350+007800FM-15+0000ENDR V0203301N006210090019N0112651N1+00701+00001999999ADDGA1071+009001999GF107991999999999999999999MA1099901999999REMMET051METAR ENDR 020720Z 33012KT 9999 BKN030 07/00 Q0999;
0072010231999992013010207504+64350+007800AUTO +0000ENDR V0203301N007212200019N9999999N1+00701-00101999999ADDMA1100001999999REMMET045METAR ENDR 020750Z AUTO 33014KT 07/M01 Q1000;
0080010231999992013010208204+64350+007800AUTO +0000ENDR V0203301N004112200019N9999999N1+00701-00101999999ADDMA1100001999999REMMET053METAR ENDR 020820Z AUTO 33008KT 280V010 07/M01 Q1000;
0072010231999992013010208504+64350+007800AUTO +0000ENDR V0203101N007712200019N9999999N1+00701+00001999999ADDMA1100101999999REMMET045METAR ENDR 020850Z AUTO 31015KT 07/M00 Q1001;
0121010231999992013010209204+64350+007800FM-15+0000ENDR V0203001N006710099019N0112651N1+00601-00101999999ADDGA1071+009901999GF107991999999999999999999MA1100101999999REMMET052METAR ENDR 020920Z 30013KT 9999 BKN033 06/M01 Q1001;
0072010231999992013010209504+64350+007800AUTO +0000ENDR V0203001N006712200019N9999999N1+00601-00101999999ADDMA1100201999999REMMET045METAR ENDR 020950Z AUTO 30013KT 06/M01 Q1002;
0072010231999992013010210204+64350+007800AUTO +0000ENDR V0203101N006212200019N9999999N1+00701-00101999999ADDMA1100201999999REMMET045METAR ENDR 021020Z AUTO 31012KT 07/M01 Q1002;
0071010231999992013010210504+64350+007800AUTO +0000ENDR V0202701N005712200019N9999999N1+00501+00101999999ADDMA1100201999999REMMET044METAR ENDR 021050Z AUTO 27011KT 05/01 Q1002;
0071010231999992013010211204+64350+007800AUTO +0000ENDR V0202601N004112200019N9999999N1+00501+00101999999ADDMA1100201999999REMMET044METAR ENDR 021120Z AUTO 26008KT 05/01 Q1002;
0071010231999992013010211504+64350+007800AUTO +0000ENDR V0202701N008712200019N9999999N1+00501+00101999999ADDMA1100201999999REMMET044METAR ENDR 021150Z AUTO 27017KT 05/01 Q1002;
0143010231999992013010212104+64350+007800FM-15+0000ENDR V0202601N005712200019N0112651N1+00501+00101999999ADDGA1041+009001999GA2041+015001999GF104991999999999999999999MA1100201999999REMMET058METAR ENDR 021210Z 26011KT 9999 SCT030 SCT050 05/01 Q1002;
0071010231999992013010212504+64350+007800AUTO +0000ENDR V0202401N006712200019N9999999N1+00501+00201999999ADDMA1100201999999REMMET044METAR ENDR 021250Z AUTO 24013KT 05/02 Q1002;
0071010231999992013010213204+64350+007800AUTO +0000ENDR V0202601N004612200019N9999999N1+00501+00201999999ADDMA1100311999999REMMET044METAR ENDR 021320Z AUTO 26009KT 05/02 Q1003;
0071010231999992013010213504+64350+007800AUTO +0000ENDR V0202501N008212200019N9999999N1+00501+00201999999ADDMA1100201999999REMMET044METAR ENDR 021350Z AUTO 25016KT 05/02 Q1002;
0071010231999992013010214204+64350+007800AUTO +0000ENDR V0202401N007212200019N9999999N1+00501+00201999999ADDMA1100311999999REMMET044METAR ENDR 021420Z AUTO 24014KT 05/02 Q1003;
0071010231999992013010214504+64350+007800AUTO +0000ENDR V0202601N008212200019N9999999N1+00501+00201999999ADDMA1100311999999REMMET044METAR ENDR 021450Z AUTO 26016KT 05/02 Q1003;
0071010231999992013010215204+64350+007800AUTO +0000ENDR V0202501N008712200019N9999999N1+00501+00201999999ADDMA1100201999999REMMET044METAR ENDR 021520Z AUTO 25017KT 05/02 Q1002;
0071010231999992013010215504+64350+007800AUTO +0000ENDR V0202701N007212200019N9999999N1+00501+00301999999ADDMA1100201999999REMMET044METAR ENDR 021550Z AUTO 27014KT 05/03 Q1002;
0071010231999992013010216204+64350+007800AUTO +0000ENDR V0202701N006212200019N9999999N1+00501+00201999999ADDMA1100201999999REMMET044METAR ENDR 021620Z AUTO 27012KT 05/02 Q1002;
0071010231999992013010216504+64350+007800AUTO +0000ENDR V0202601N005112200019N9999999N1+00501+00201999999ADDMA1100201999999REMMET044METAR ENDR 021650Z AUTO 26010KT 05/02 Q1002;
0071010231999992013010217204+64350+007800AUTO +0000ENDR V0202601N006212200019N9999999N1+00501+00201999999ADDMA1100201999999REMMET044METAR ENDR 021720Z AUTO 26012KT 05/02 Q1002;
0071010231999992013010217504+64350+007800AUTO +0000ENDR V0202301N004612200019N9999999N1+00501+00201999999ADDMA1100201999999REMMET044METAR ENDR 021750Z AUTO 23009KT 05/02 Q1002;
0071010231999992013010218204+64350+007800AUTO +0000ENDR V0202101N005712200019N9999999N1+00501+00201999999ADDMA1100201999999REMMET044METAR ENDR 021820Z AUTO 21011KT 05/02 Q1002;
0071010231999992013010218504+64350+007800AUTO +0000ENDR V0202201N004112200019N9999999N1+00501+00201999999ADDMA1100101999999REMMET044METAR ENDR 021850Z AUTO 22008KT 05/02 Q1001;
0071010231999992013010219204+64350+007800AUTO +0000ENDR V0202001N004612200019N9999999N1+00501+00201999999ADDMA1100101999999REMMET044METAR ENDR 021920Z AUTO 20009KT 05/02 Q1001;
0071010231999992013010219504+64350+007800AUTO +0000ENDR V0202101N004612200019N9999999N1+00501+00201999999ADDMA1100001999999REMMET044METAR ENDR 021950Z AUTO 21009KT 05/02 Q1000;
0071010231999992013010220204+64350+007800AUTO +0000ENDR V0202001N003612200019N9999999N1+00501+00301999999ADDMA1100001999999REMMET044METAR ENDR 022020Z AUTO 20007KT 05/03 Q1000;
0071010231999992013010220504+64350+007800AUTO +0000ENDR V0202001N008212200019N9999999N1+00501+00301999999ADDMA1099901999999REMMET044METAR ENDR 022050Z AUTO 20016KT 05/03 Q0999;
0071010231999992013010221204+64350+007800AUTO +0000ENDR V0202001N008712200019N9999999N1+00501+00301999999ADDMA1099901999999REMMET044METAR ENDR 022120Z AUTO 20017KT 05/03 Q0999;
0071010231999992013010221504+64350+007800AUTO +0000ENDR V0202001N008212200019N9999999N1+00501+00301999999ADDMA1099801999999REMMET044METAR ENDR 022150Z AUTO 20016KT 05/03 Q0998;
0071010231999992013010222204+64350+007800AUTO +0000ENDR V0202101N009312200019N9999999N1+00501+00301999999ADDMA1099801999999REMMET044METAR ENDR 022220Z AUTO 21018KT 05/03 Q0998;
0071010231999992013010222504+64350+007800AUTO +0000ENDR V0202201N008712200019N9999999N1+00401+00301999999ADDMA1099701999999REMMET044METAR ENDR 022250Z AUTO 22017KT 04/03 Q0997;
0071010231999992013010223204+64350+007800AUTO +0000ENDR V0202101N012912200019N9999999N1+00501+00201999999ADDMA1099591999999REMMET044METAR ENDR 022320Z AUTO 21025KT 05/02 Q0996;
0071010231999992013010223504+64350+007800AUTO +0000ENDR V0202101N011312200019N9999999N1+00601+00201999999ADDMA1099591999999REMMET044METAR ENDR 022350Z AUTO 21022KT 06/02 Q0996;
0071010231999992013010300204+64350+007800AUTO +0000ENDR V0202001N009812200019N9999999N1+00601+00301999999ADDMA1099491999999REMMET044METAR ENDR 030020Z AUTO 20019KT 06/03 Q0995;
0071010231999992013010300504+64350+007800AUTO +0000ENDR V0201701N009812200019N9999999N1+00501+00201999999ADDMA1099391999999REMMET044METAR ENDR 030050Z AUTO 17019KT 05/02 Q0994;
0071010231999992013010301204+64350+007800AUTO +0000ENDR V0201501N010312200019N9999999N1+00501+00201999999ADDMA1099391999999REMMET044METAR ENDR 030120Z AUTO 15020KT 05/02 Q0994;
0071010231999992013010301504+64350+007800AUTO +0000ENDR V0201601N012912200019N9999999N1+00401+00101999999ADDMA1099291999999REMMET044METAR ENDR 030150Z AUTO 16025KT 04/01 Q0993;
0071010231999992013010302204+64350+007800AUTO +0000ENDR V0201501N012912200019N9999999N1+00301+00201999999ADDMA1099191999999REMMET044METAR ENDR 030220Z AUTO 15025KT 03/02 Q0992;
0071010231999992013010302504+64350+007800AUTO +0000ENDR V0201501N013412200019N9999999N1+00301+00101999999ADDMA1099191999999REMMET044METAR ENDR 030250Z AUTO 15026KT 03/01 Q0992;
0071010231999992013010303204+64350+007800AUTO +0000ENDR V0201501N014412200019N9999999N1+00301+00201999999ADDMA1098981999999REMMET044METAR ENDR 030320Z AUTO 15028KT 03/02 Q0990;
0071010231999992013010303504+64350+007800AUTO +0000ENDR V0201501N014912200019N9999999N1+00301+00201999999ADDMA1098921999999REMMET044METAR ENDR 030350Z AUTO 15029KT 03/02 Q0989;
0071010231999992013010304204+64350+007800AUTO +0000ENDR V0201501N015412200019N9999999N1+00301+00201999999ADDMA1098921999999REMMET044METAR ENDR 030420Z AUTO 15030KT 03/02 Q0989;
0071010231999992013010304504+64350+007800AUTO +0000ENDR V0201401N014912200019N9999999N1+00401+00301999999ADDMA1098821999999REMMET044METAR ENDR 030450Z AUTO 14029KT 04/03 Q0988;
0071010231999992013010305204+64350+007800AUTO +0000ENDR V0201501N015412200019N9999999N1+00401+00301999999ADDMA1098711999999REMMET044METAR ENDR 030520Z AUTO 15030KT 04/03 Q0987;
0071010231999992013010305504+64350+007800AUTO +0000ENDR V0201601N012312200019N9999999N1+00401+00301999999ADDMA1098611999999REMMET044METAR ENDR 030550Z AUTO 16024KT 04/03 Q0986;
0071010231999992013010306204+64350+007800AUTO +0000ENDR V0201701N010812200019N9999999N1+00501+00401999999ADDMA1098611999999REMMET044METAR ENDR 030620Z AUTO 17021KT 05/04 Q0986;
0138010231999992013010306504+64350+007800FM-15+0000ENDR V0202401N015410012019N0040001N1+00701+00701999999ADDGA1081+001201999GF108991999999999999999999MA1098611999999MW1101MW2631REMMET057METAR ENDR 030650Z 24030KT 4000 RA BR OVC004 07/07 Q0986;
0120010231999992013010307504+64350+007800FM-15+0000ENDR V0202401N018010018019N0112651N1+00701+00601999999ADDGA1081+001801999GF108991999999999999999999MA1098611999999REMMET051METAR ENDR 030750Z 24035KT 9999 OVC006 07/06 Q0986;
0071010231999992013010308204+64350+007800AUTO +0000ENDR V0202401N017012200019N9999999N1+00801+00601999999ADDMA1098611999999REMMET044METAR ENDR 030820Z AUTO 24033KT 08/06 Q0986;
0071010231999992013010308504+64350+007800AUTO +0000ENDR V0202301N016512200019N9999999N1+00701+00601999999ADDMA1098611999999REMMET044METAR ENDR 030850Z AUTO 23032KT 07/06 Q0986;
0138010231999992013010309204+64350+007800FM-15+0000ENDR V0202501N023710015019N0040001N1+00701+00601999999ADDGA1081+001501999GF108991999999999999999999MA1098511999999MW1101MW2631REMMET057METAR ENDR 030920Z 25046KT 4000 RA BR OVC005 07/06 Q0985;
0071010231999992013010309504+64350+007800AUTO +0000ENDR V0202601N021612200019N9999999N1+00701+00501999999ADDMA1098611999999REMMET044METAR ENDR 030950Z AUTO 26042KT 07/05 Q0986;
0071010231999992013010310204+64350+007800AUTO +0000ENDR V0202601N019512200019N9999999N1+00701+00501999999ADDMA1098711999999REMMET044METAR ENDR 031020Z AUTO 26038KT 07/05 Q0987;
0071010231999992013010310504+64350+007800AUTO +0000ENDR V0202601N021112200019N9999999N1+00601+00501999999ADDMA1098821999999REMMET044METAR ENDR 031050Z AUTO 26041KT 06/05 Q0988;
0071010231999992013010311204+64350+007800AUTO +0000ENDR V0202601N020612200019N9999999N1+00601+00501999999ADDMA1098821999999REMMET044METAR ENDR 031120Z AUTO 26040KT 06/05 Q0988;
0071010231999992013010311504+64350+007800AUTO +0000ENDR V0202601N022612200019N9999999N1+00601+00501999999ADDMA1098921999999REMMET044METAR ENDR 031150Z AUTO 26044KT 06/05 Q0989;
0153010231999992013010312104+64350+007800FM-15+0000ENDR V0202501N023710093019N0080001N1+00601+00401999999ADDGA1041+003001999GA2081+009301999GF108991999999999999999999MA1098921999999MW1611REMMET062METAR ENDR 031210Z 25046KT 8000 -RA SCT010 OVC031 06/04 Q0989;
0071010231999992013010313204+64350+007800AUTO +0000ENDR V0202701N025212200019N9999999N1+00601+00401999999ADDMA1098981999999REMMET044METAR ENDR 031320Z AUTO 27049KT 06/04 Q0990;
0071010231999992013010313504+64350+007800AUTO +0000ENDR V0202601N026212200019N9999999N1+00601+00401999999ADDMA1098981999999REMMET044METAR ENDR 031350Z AUTO 26051KT 06/04 Q0990;
0071010231999992013010314204+64350+007800AUTO +0000ENDR V0202701N025212200019N9999999N1+00701+00401999999ADDMA1099091999999REMMET044METAR ENDR 031420Z AUTO 27049KT 07/04 Q0991;
0071010231999992013010314504+64350+007800AUTO +0000ENDR V0202701N026212200019N9999999N1+00701+00301999999ADDMA1099191999999REMMET044METAR ENDR 031450Z AUTO 27051KT 07/03 Q0992;
0082010231999992013010315204+64350+007800AUTO +0000ENDR V0202601N026212200019N9999999N1+00701+00301999999ADDMA1099291999999OC103191REMMET047METAR ENDR 031520Z AUTO 26051G62KT 07/03 Q0993;
0071010231999992013010315504+64350+007800AUTO +0000ENDR V0202601N024712200019N9999999N1+00701+00301999999ADDMA1099291999999REMMET044METAR ENDR 031550Z AUTO 26048KT 07/03 Q0993;
0071010231999992013010316204+64350+007800AUTO +0000ENDR V0202601N026812200019N9999999N1+00601+00301999999ADDMA1099391999999REMMET044METAR ENDR 031620Z AUTO 26052KT 06/03 Q0994;
0071010231999992013010316504+64350+007800AUTO +0000ENDR V0202701N027312200019N9999999N1+00601+00301999999ADDMA1099491999999REMMET044METAR ENDR 031650Z AUTO 27053KT 06/03 Q0995;
0071010231999992013010317204+64350+007800AUTO +0000ENDR V0202701N026212200019N9999999N1+00601+00301999999ADDMA1099491999999REMMET044METAR ENDR 031720Z AUTO 27051KT 06/03 Q0995;
0071010231999992013010317504+64350+007800AUTO +0000ENDR V0202701N025712200019N9999999N1+00601+00301999999ADDMA1099591999999REMMET044METAR ENDR 031750Z AUTO 27050KT 06/03 Q0996;
0082010231999992013010318204+64350+007800AUTO +0000ENDR V0202701N026212200019N9999999N1+00601+00301999999ADDMA1099701999999OC103191REMMET047METAR ENDR 031820Z AUTO 27051G62KT 06/03 Q0997;
0071010231999992013010318504+64350+007800AUTO +0000ENDR V0202801N024212200019N9999999N1+00601+00301999999ADDMA1099701999999REMMET044METAR ENDR 031850Z AUTO 28047KT 06/03 Q0997;
0071010231999992013010319204+64350+007800AUTO +0000ENDR V0202801N025212200019N9999999N1+00601+00301999999ADDMA1099801999999REMMET044METAR ENDR 031920Z AUTO 28049KT 06/03 Q0998;
0071010231999992013010319504+64350+007800AUTO +0000ENDR V0202801N026212200019N9999999N1+00601+00401999999ADDMA1100001999999REMMET044METAR ENDR 031950Z AUTO 28051KT 06/04 Q1000;
0071010231999992013010320204+64350+007800AUTO +0000ENDR V0202801N023112200019N9999999N1+00601+00401999999ADDMA1100101999999REMMET044METAR ENDR 032020Z AUTO 28045KT 06/04 Q1001;
0071010231999992013010320504+64350+007800AUTO +0000ENDR V0202801N021612200019N9999999N1+00601+00401999999ADDMA1100201999999REMMET044METAR ENDR 032050Z AUTO 28042KT 06/04 Q1002;
0071010231999992013010321204+64350+007800AUTO +0000ENDR V0202801N021112200019N9999999N1+00601+00301999999ADDMA1100311999999REMMET044METAR ENDR 032120Z AUTO 28041KT 06/03 Q1003;
0071010231999992013010321504+64350+007800AUTO +0000ENDR V0202801N020612200019N9999999N1+00601+00301999999ADDMA1100411999999REMMET044METAR ENDR 032150Z AUTO 28040KT 06/03 Q1004;
0071010231999992013010322204+64350+007800AUTO +0000ENDR V0202901N017512200019N9999999N1+00601+00301999999ADDMA1100411999999REMMET044METAR ENDR 032220Z AUTO 29034KT 06/03 Q1004;
0071010231999992013010322504+64350+007800AUTO +0000ENDR V0202901N017012200019N9999999N1+00601+00301999999ADDMA1100511999999REMMET044METAR ENDR 032250Z AUTO 29033KT 06/03 Q1005;
0071010231999992013010323204+64350+007800AUTO +0000ENDR V0202801N018012200019N9999999N1+00601+00201999999ADDMA1100611999999REMMET044METAR ENDR 032320Z AUTO 28035KT 06/02 Q1006;
0071010231999992013010323504+64350+007800AUTO +0000ENDR V0202801N015912200019N9999999N1+00601+00201999999ADDMA1100711999999REMMET044METAR ENDR 032350Z AUTO 28031KT 06/02 Q1007;
0071010231999992013010400204+64350+007800AUTO +0000ENDR V0202801N014412200019N9999999N1+00601+00201999999ADDMA1100711999999REMMET044METAR ENDR 040020Z AUTO 28028KT 06/02 Q1007;
0071010231999992013010400504+64350+007800AUTO +0000ENDR V0202701N014912200019N9999999N1+00601+00301999999ADDMA1100811999999REMMET044METAR ENDR 040050Z AUTO 27029KT 06/03 Q1008;
0071010231999992013010401204+64350+007800AUTO +0000ENDR V0202601N013912200019N9999999N1+00701+00301999999ADDMA1100811999999REMMET044METAR ENDR 040120Z AUTO 26027KT 07/03 Q1008;
0071010231999992013010401504+64350+007800AUTO +0000ENDR V0202601N012312200019N9999999N1+00701+00101999999ADDMA1100811999999REMMET044METAR ENDR 040150Z AUTO 26024KT 07/01 Q1008;
0071010231999992013010402204+64350+007800AUTO +0000ENDR V0202701N012912200019N9999999N1+00701+00101999999ADDMA1100811999999REMMET044METAR ENDR 040220Z AUTO 27025KT 07/01 Q1008;
0071010231999992013010402504+64350+007800AUTO +0000ENDR V0202601N012312200019N9999999N1+00701+00201999999ADDMA1100811999999REMMET044METAR ENDR 040250Z AUTO 26024KT 07/02 Q1008;
0071010231999992013010403204+64350+007800AUTO +0000ENDR V0202601N012312200019N9999999N1+00601+00201999999ADDMA1100811999999REMMET044METAR ENDR 040320Z AUTO 26024KT 06/02 Q1008;
0071010231999992013010403504+64350+007800AUTO +0000ENDR V0202601N007712200019N9999999N1+00601+00301999999ADDMA1100811999999REMMET044METAR ENDR 040350Z AUTO 26015KT 06/03 Q1008;
0071010231999992013010404204+64350+007800AUTO +0000ENDR V0202601N010812200019N9999999N1+00601+00201999999ADDMA1100811999999REMMET044METAR ENDR 040420Z AUTO 26021KT 06/02 Q1008;
0071010231999992013010404504+64350+007800AUTO +0000ENDR V0202701N008212200019N9999999N1+00701+00301999999ADDMA1100811999999REMMET044METAR ENDR 040450Z AUTO 27016KT 07/03 Q1008;
0071010231999992013010410204+64350+007800AUTO +0000ENDR V0202701N005712200019N9999999N1+00701+00401999999ADDMA1101081999999REMMET044METAR ENDR 041020Z AUTO 27011KT 07/04 Q1011;
0071010231999992013010410504+64350+007800AUTO +0000ENDR V0202801N004112200019N9999999N1+00701+00501999999ADDMA1101081999999REMMET044METAR ENDR 041050Z AUTO 28008KT 07/05 Q1011;
0071010231999992013010411204+64350+007800AUTO +0000ENDR V0203201N002612200019N9999999N1+00701+00501999999ADDMA1101081999999REMMET044METAR ENDR 041120Z AUTO 32005KT 07/05 Q1011;
0071010231999992013010411504+64350+007800AUTO +0000ENDR V0203601N003112200019N9999999N1+00701+00401999999ADDMA1101191999999REMMET044METAR ENDR 041150Z AUTO 36006KT 07/04 Q1012;
0162010231999992013010412104+64350+007800FM-15+0000ENDR V0203501N002610102019N0112651N1+00701+00401999999ADDGA1041+005101999GA2071+010201999GF107991999999999999999999MA1101291999999MW1161REMMET071METAR ENDR 041210Z 35005KT 310V040 9999 VCSH SCT017 BKN034 07/04 Q1013;
0079010231999992013010412504+64350+007800AUTO +0000ENDR V0203601N002112200019N9999999N1+00801+00301999999ADDMA1101291999999REMMET052METAR ENDR 041250Z AUTO 36004KT 290V070 08/03 Q1013;
0071010231999992013010413204+64350+007800AUTO +0000ENDR V0203601N001512200019N9999999N1+00801+00301999999ADDMA1101391999999REMMET044METAR ENDR 041320Z AUTO 36003KT 08/03 Q1014;
0071010231999992013010413504+64350+007800AUTO +0000ENDR V0200101N000512200019N9999999N1+00701+00301999999ADDMA1101391999999REMMET044METAR ENDR 041350Z AUTO 01001KT 07/03 Q1014;
0079010231999992013010414204+64350+007800AUTO +0000ENDR V0203101N002612200019N9999999N1+00701+00301999999ADDMA1101491999999REMMET052METAR ENDR 041420Z AUTO 31005KT 290V350 07/03 Q1015;
0071010231999992013010414504+64350+007800AUTO +0000ENDR V0203001N003112200019N9999999N1+00701+00301999999ADDMA1101591999999REMMET044METAR ENDR 041450Z AUTO 30006KT 07/03 Q1016;
0151010231999992013010415104+64350+007800FM-15+0000ENDR V0203001N002612200019N0112651N1+00701+00301999999ADDGA1021+008401999GA2041+009601999GF104991999999999999999999MA1101591999999REMMET066METAR ENDR 041510Z 30005KT 250V020 9999 FEW028 SCT032 07/03 Q1016;
0071010231999992013010415504+64350+007800AUTO +0000ENDR V0202901N002612200019N9999999N1+00601+00301999999ADDMA1101591999999REMMET044METAR ENDR 041550Z AUTO 29005KT 06/03 Q1016;
0071010231999992013010416204+64350+007800AUTO +0000ENDR V0202801N003112200019N9999999N1+00601+00301999999ADDMA1101691999999REMMET044METAR ENDR 041620Z AUTO 28006KT 06/03 Q1017;
0071010231999992013010416504+64350+007800AUTO +0000ENDR V0202601N003612200019N9999999N1+00601+00301999999ADDMA1101691999999REMMET044METAR ENDR 041650Z AUTO 26007KT 06/03 Q1017;
0071010231999992013010417204+64350+007800AUTO +0000ENDR V0202701N003112200019N9999999N1+00601+00301999999ADDMA1101801999999REMMET044METAR ENDR 041720Z AUTO 27006KT 06/03 Q1018;
0071010231999992013010417504+64350+007800AUTO +0000ENDR V0202401N003612200019N9999999N1+00601+00401999999ADDMA1101801999999REMMET044METAR ENDR 041750Z AUTO 24007KT 06/04 Q1018;
0071010231999992013010418204+64350+007800AUTO +0000ENDR V0202301N003112200019N9999999N1+00601+00401999999ADDMA1101801999999REMMET044METAR ENDR 041820Z AUTO 23006KT 06/04 Q1018;
0071010231999992013010418504+64350+007800AUTO +0000ENDR V0202401N003612200019N9999999N1+00701+00501999999ADDMA1101901999999REMMET044METAR ENDR 041850Z AUTO 24007KT 07/05 Q1019;
0071010231999992013010419204+64350+007800AUTO +0000ENDR V0202401N004112200019N9999999N1+00701+00401999999ADDMA1101901999999REMMET044METAR ENDR 041920Z AUTO 24008KT 07/04 Q1019;
0071010231999992013010419504+64350+007800AUTO +0000ENDR V0202401N004612200019N9999999N1+00701+00501999999ADDMA1101901999999REMMET044METAR ENDR 041950Z AUTO 24009KT 07/05 Q1019;
0071010231999992013010420204+64350+007800AUTO +0000ENDR V0202601N004612200019N9999999N1+00601+00501999999ADDMA1102001999999REMMET044METAR ENDR 042020Z AUTO 26009KT 06/05 Q1020;
0071010231999992013010420504+64350+007800AUTO +0000ENDR V0202601N003612200019N9999999N1+00601+00401999999ADDMA1102001999999REMMET044METAR ENDR 042050Z AUTO 26007KT 06/04 Q1020;
0071010231999992013010421204+64350+007800AUTO +0000ENDR V0202501N002612200019N9999999N1+00601+00501999999ADDMA1102001999999REMMET044METAR ENDR 042120Z AUTO 25005KT 06/05 Q1020;
0071010231999992013010421504+64350+007800AUTO +0000ENDR V0202201N002112200019N9999999N1+00701+00501999999ADDMA1102001999999REMMET044METAR ENDR 042150Z AUTO 22004KT 07/05 Q1020;
0071010231999992013010422204+64350+007800AUTO +0000ENDR V0202101N002612200019N9999999N1+00701+00501999999ADDMA1102101999999REMMET044METAR ENDR 042220Z AUTO 21005KT 07/05 Q1021;
0071010231999992013010422504+64350+007800AUTO +0000ENDR V0202101N003112200019N9999999N1+00701+00501999999ADDMA1102101999999REMMET044METAR ENDR 042250Z AUTO 21006KT 07/05 Q1021;
0071010231999992013010423204+64350+007800AUTO +0000ENDR V0202301N003612200019N9999999N1+00701+00501999999ADDMA1102101999999REMMET044METAR ENDR 042320Z AUTO 23007KT 07/05 Q1021;
0071010231999992013010423504+64350+007800AUTO +0000ENDR V0202201N004612200019N9999999N1+00701+00501999999ADDMA1102101999999REMMET044METAR ENDR 042350Z AUTO 22009KT 07/05 Q1021;
0071010231999992013010500204+64350+007800AUTO +0000ENDR V0202101N004612200019N9999999N1+00701+00601999999ADDMA1102101999999REMMET044METAR ENDR 050020Z AUTO 21009KT 07/06 Q1021;
0071010231999992013010500504+64350+007800AUTO +0000ENDR V0202101N004612200019N9999999N1+00701+00601999999ADDMA1102101999999REMMET044METAR ENDR 050050Z AUTO 21009KT 07/06 Q1021;
0071010231999992013010501204+64350+007800AUTO +0000ENDR V0202101N005712200019N9999999N1+00701+00601999999ADDMA1102101999999REMMET044METAR ENDR 050120Z AUTO 21011KT 07/06 Q1021;
0071010231999992013010501504+64350+007800AUTO +0000ENDR V0202001N005712200019N9999999N1+00701+00501999999ADDMA1102101999999REMMET044METAR ENDR 050150Z AUTO 20011KT 07/05 Q1021;
0071010231999992013010502204+64350+007800AUTO +0000ENDR V0201901N006212200019N9999999N1+00701+00501999999ADDMA1102101999999REMMET044METAR ENDR 050220Z AUTO 19012KT 07/05 Q1021;
0071010231999992013010502504+64350+007800AUTO +0000ENDR V0201901N007212200019N9999999N1+00601+00501999999ADDMA1102101999999REMMET044METAR ENDR 050250Z AUTO 19014KT 06/05 Q1021;
0071010231999992013010503204+64350+007800AUTO +0000ENDR V0202001N008212200019N9999999N1+00701+00501999999ADDMA1102101999999REMMET044METAR ENDR 050320Z AUTO 20016KT 07/05 Q1021;
0071010231999992013010503504+64350+007800AUTO +0000ENDR V0202001N008712200019N9999999N1+00601+00501999999ADDMA1102101999999REMMET044METAR ENDR 050350Z AUTO 20017KT 06/05 Q1021;
0071010231999992013010504204+64350+007800AUTO +0000ENDR V0202001N009312200019N9999999N1+00601+00501999999ADDMA1102101999999REMMET044METAR ENDR 050420Z AUTO 20018KT 06/05 Q1021;
0071010231999992013010504504+64350+007800AUTO +0000ENDR V0202001N007712200019N9999999N1+00601+00501999999ADDMA1102001999999REMMET044METAR ENDR 050450Z AUTO 20015KT 06/05 Q1020;
0071010231999992013010505204+64350+007800AUTO +0000ENDR V0202001N007212200019N9999999N1+00701+00501999999ADDMA1102001999999REMMET044METAR ENDR 050520Z AUTO 20014KT 07/05 Q1020;
0071010231999992013010505504+64350+007800AUTO +0000ENDR V0202001N009812200019N9999999N1+00701+00601999999ADDMA1102001999999REMMET044METAR ENDR 050550Z AUTO 20019KT 07/06 Q1020;
0130010231999992013010506104+64350+007800FM-15+0000ENDR V0202101N010310012019N0070001N1+00701+00601999999ADDGA1081+001201999GF108991999999999999999999MA1102001999999MW1611REMMET055METAR ENDR 050610Z 21020KT 7000 -RA OVC004 07/06 Q1020;
0071010231999992013010506504+64350+007800AUTO +0000ENDR V0202001N009812200019N9999999N1+00701+00601999999ADDMA1102001999999REMMET044METAR ENDR 050650Z AUTO 20019KT 07/06 Q1020;
0071010231999992013010507204+64350+007800AUTO +0000ENDR V0202101N011312200019N9999999N1+00701+00601999999ADDMA1102001999999REMMET044METAR ENDR 050720Z AUTO 21022KT 07/06 Q1020;
0071010231999992013010507504+64350+007800AUTO +0000ENDR V0202001N011812200019N9999999N1+00701+00601999999ADDMA1101901999999REMMET044METAR ENDR 050750Z AUTO 20023KT 07/06 Q1019;
0071010231999992013010508204+64350+007800AUTO +0000ENDR V0202101N011812200019N9999999N1+00701+00601999999ADDMA1101901999999REMMET044METAR ENDR 050820Z AUTO 21023KT 07/06 Q1019;
0071010231999992013010508504+64350+007800AUTO +0000ENDR V0202101N010812200019N9999999N1+00701+00601999999ADDMA1101901999999REMMET044METAR ENDR 050850Z AUTO 21021KT 07/06 Q1019;
0071010231999992013010509204+64350+007800AUTO +0000ENDR V0202301N010812200019N9999999N1+00801+00701999999ADDMA1101901999999REMMET044METAR ENDR 050920Z AUTO 23021KT 08/07 Q1019;
0071010231999992013010509504+64350+007800AUTO +0000ENDR V0202401N009812200019N9999999N1+00801+00701999999ADDMA1102001999999REMMET044METAR ENDR 050950Z AUTO 24019KT 08/07 Q1020;
0071010231999992013010510204+64350+007800AUTO +0000ENDR V0202601N009812200019N9999999N1+00801+00801999999ADDMA1102001999999REMMET044METAR ENDR 051020Z AUTO 26019KT 08/08 Q1020;
0071010231999992013010510504+64350+007800AUTO +0000ENDR V0202601N009812200019N9999999N1+00801+00801999999ADDMA1102001999999REMMET044METAR ENDR 051050Z AUTO 26019KT 08/08 Q1020;
0071010231999992013010511204+64350+007800AUTO +0000ENDR V0202601N010312200019N9999999N1+00801+00801999999ADDMA1102001999999REMMET044METAR ENDR 051120Z AUTO 26020KT 08/08 Q1020;
0091010231999992013010511504+64350+007800AUTO +0000ENDR V0202401N008712200019N9999999N1+00801+99999999999ADDMA1102001999999REMMET045METAR ENDR 051150Z AUTO 24017KT 08/M01 Q1020;EQDQ01-000103ATOD  
0127010231999992013010512104+64350+007800FM-15+0000ENDR V0202501N012310012019N0020001N1+00701+99999999999ADDGA1081+001201999GF108991999999999999999999MA1102001999999MW1101REMMET052METAR ENDR 051210Z 25024KT 2000 BR OVC004 07/ Q1020;
0069010231999992013010512504+64350+007800AUTO +0000ENDR V0202401N011812200019N9999999N1+00701+99999999999ADDMA1102001999999REMMET042METAR ENDR 051250Z AUTO 24023KT 07/ Q1020;
0069010231999992013010513204+64350+007800AUTO +0000ENDR V0202401N011812200019N9999999N1+00701+99999999999ADDMA1102001999999REMMET042METAR ENDR 051320Z AUTO 24023KT 07/ Q1020;
0069010231999992013010513504+64350+007800AUTO +0000ENDR V0202401N010812200019N9999999N1+00701+99999999999ADDMA1102001999999REMMET042METAR ENDR 051350Z AUTO 24021KT 07/ Q1020;
0069010231999992013010514204+64350+007800AUTO +0000ENDR V0202401N011312200019N9999999N1+00701+99999999999ADDMA1102001999999REMMET042METAR ENDR 051420Z AUTO 24022KT 07/ Q1020;
0069010231999992013010514504+64350+007800AUTO +0000ENDR V0202301N010312200019N9999999N1+00701+99999999999ADDMA1102001999999REMMET042METAR ENDR 051450Z AUTO 23020KT 07/ Q1020;
0140010231999992013010515104+64350+007800FM-16+0000ENDR V0202401N010310009019N0040001N1+00701+99999999999ADDGA1071+000901999GF107991999999999999999999MA1101901999999MW1101MW2611REMMET059METAR ENDR 051510Z 24020KT 4000 -RA BR BKN003 07/M73 Q1019;
0072010231999992013010515504+64350+007800FM-15+0000ENDR V0202301N010312200019N9999999N1+00701+99999999999ADDMA1101901999999REMMET045METAR ENDR 051550Z AUTO 23020KT 07/M76 Q1019;
0072010231999992013010516204+64350+007800FM-15+0000ENDR V0202301N011312200019N9999999N1+00701+99999999999ADDMA1101901999999REMMET045METAR ENDR 051620Z AUTO 23022KT 07/M67 Q1019;
0072010231999992013010516504+64350+007800FM-15+0000ENDR V0202301N011312200019N9999999N1+00701+99999999999ADDMA1101901999999REMMET045METAR ENDR 051650Z AUTO 23022KT 07/M76 Q1019;
0072010231999992013010517204+64350+007800FM-15+0000ENDR V0202301N011312200019N9999999N1+00701+99999999999ADDMA1101901999999REMMET045METAR ENDR 051720Z AUTO 23022KT 07/M75 Q1019;
0072010231999992013010517504+64350+007800FM-15+0000ENDR V0202301N011312200019N9999999N1+00801+99999999999ADDMA1101901999999REMMET045METAR ENDR 051750Z AUTO 23022KT 08/M77 Q1019;
0072010231999992013010518204+64350+007800FM-15+0000ENDR V0202301N011812200019N9999999N1+00801+99999999999ADDMA1101801999999REMMET045METAR ENDR 051820Z AUTO 23023KT 08/M75 Q1018;
0072010231999992013010518504+64350+007800FM-15+0000ENDR V0202301N011812200019N9999999N1+00801+99999999999ADDMA1101801999999REMMET045METAR ENDR 051850Z AUTO 23023KT 08/M78 Q1018;
0072010231999992013010519204+64350+007800FM-15+0000ENDR V0202301N011312200019N9999999N1+00801+99999999999ADDMA1101801999999REMMET045METAR ENDR 051920Z AUTO 23022KT 08/M78 Q1018;
0069010231999992013010519504+64350+007800AUTO +0000ENDR V0202301N011312200019N9999999N1+00801+99999999999ADDMA1101801999999REMMET042METAR ENDR 051950Z AUTO 23022KT 08/ Q1018;
0072010231999992013010520204+64350+007800FM-15+0000ENDR V0202201N011812200019N9999999N1+00801+99999999999ADDMA1101801999999REMMET045METAR ENDR 052020Z AUTO 22023KT 08/M75 Q1018;
0072010231999992013010520504+64350+007800FM-15+0000ENDR V0202201N011312200019N9999999N1+00701+99999999999ADDMA1101801999999REMMET045METAR ENDR 052050Z AUTO 22022KT 07/M78 Q1018;
0072010231999992013010521204+64350+007800FM-15+0000ENDR V0202201N010312200019N9999999N1+00701+99999999999ADDMA1101691999999REMMET045METAR ENDR 052120Z AUTO 22020KT 07/M67 Q1017;
0072010231999992013010521504+64350+007800FM-15+0000ENDR V0202201N010812200019N9999999N1+00701+99999999999ADDMA1101691999999REMMET045METAR ENDR 052150Z AUTO 22021KT 07/M81 Q1017;
0072010231999992013010522204+64350+007800FM-15+0000ENDR V0202301N012312200019N9999999N1+00701+99999999999ADDMA1101691999999REMMET045METAR ENDR 052220Z AUTO 23024KT 07/M82 Q1017;
0072010231999992013010522504+64350+007800FM-15+0000ENDR V0202301N012912200019N9999999N1+00701+99999999999ADDMA1101691999999REMMET045METAR ENDR 052250Z AUTO 23025KT 07/M79 Q1017;
0072010231999992013010523204+64350+007800FM-15+0000ENDR V0202301N014412200019N9999999N1+00701+99999999999ADDMA1101591999999REMMET045METAR ENDR 052320Z AUTO 23028KT 07/M80 Q1016;
0072010231999992013010523504+64350+007800FM-15+0000ENDR V0202301N014912200019N9999999N1+00701+99999999999ADDMA1101591999999REMMET045METAR ENDR 052350Z AUTO 23029KT 07/M77 Q1016;
0071010231999992013010600204+64350+007800FM-15+0000ENDR V0202201N011312200019N9999999N1+00801+00801999999ADDMA1101691999999REMMET044METAR ENDR 060020Z AUTO 22022KT 08/08 Q1017;
0069010231999992013010600504+64350+007800AUTO +0000ENDR V0202201N010812200019N9999999N1+00701+00701999999ADDMA1101591999999REMMET042METAR ENDR 060050Z AUTO 22021KT 07/07 Q101
0071010231999992013010601204+64350+007800AUTO +0000ENDR V0202201N010812200019N9999999N1+00701+00201999999ADDMA1101591999999REMMET044METAR ENDR 060120Z AUTO 22021KT 07/02 Q1016;
0071010231999992013010601504+64350+007800AUTO +0000ENDR V0202201N011312200019N9999999N1+00701+00701999999ADDMA1101591999999REMMET044METAR ENDR 060150Z AUTO 22022KT 07/07 Q1016;
0071010231999992013010602204+64350+007800AUTO +0000ENDR V0202101N011312200019N9999999N1+00701+00701999999ADDMA1101591999999REMMET044METAR ENDR 060220Z AUTO 21022KT 07/07 Q1016;
0071010231999992013010602504+64350+007800AUTO +0000ENDR V0202101N011312200019N9999999N1+00701+00701999999ADDMA1101591999999REMMET044METAR ENDR 060250Z AUTO 21022KT 07/07 Q1016;
0071010231999992013010603204+64350+007800AUTO +0000ENDR V0202201N011812200019N9999999N1+00701+00701999999ADDMA1101591999999REMMET044METAR ENDR 060320Z AUTO 22023KT 07/07 Q1016;
0071010231999992013010603504+64350+007800AUTO +0000ENDR V0202201N011812200019N9999999N1+00701+00701999999ADDMA1101591999999REMMET044METAR ENDR 060350Z AUTO 22023KT 07/07 Q1016;
0071010231999992013010604204+64350+007800AUTO +0000ENDR V0202201N011312200019N9999999N1+00701+00601999999ADDMA1101591999999REMMET044METAR ENDR 060420Z AUTO 22022KT 07/06 Q1016;
0071010231999992013010604504+64350+007800AUTO +0000ENDR V0202201N012312200019N9999999N1+00701+00601999999ADDMA1101591999999REMMET044METAR ENDR 060450Z AUTO 22024KT 07/06 Q1016;
0071010231999992013010605204+64350+007800AUTO +0000ENDR V0202201N013412200019N9999999N1+00701+00501999999ADDMA1101491999999REMMET044METAR ENDR 060520Z AUTO 22026KT 07/05 Q1015;
0071010231999992013010605504+64350+007800AUTO +0000ENDR V0202201N012912200019N9999999N1+00701+00501999999ADDMA1101491999999REMMET044METAR ENDR 060550Z AUTO 22025KT 07/05 Q1015;
0120010231999992013010606104+64350+007800FM-15+0000ENDR V0202101N013410021019N0112651N1+00701+00601999999ADDGA1071+002101999GF107991999999999999999999MA1101491999999REMMET051METAR ENDR 060610Z 21026KT 9999 BKN007 07/06 Q1015;
0071010231999992013010606504+64350+007800AUTO +0000ENDR V0202101N013912200019N9999999N1+00701+00501999999ADDMA1101591999999REMMET044METAR ENDR 060650Z AUTO 21027KT 07/05 Q1016;
0071010231999992013010607204+64350+007800AUTO +0000ENDR V0202101N014412200019N9999999N1+00701+00501999999ADDMA1101591999999REMMET044METAR ENDR 060720Z AUTO 21028KT 07/05 Q1016;
0063010231999992013010607504+64350+007800AUTO +0000ENDR V02099999999992200019N9999999N1+00601+00501999999ADDMA1101591999999REMMET036METAR ENDR 060750Z AUTO 06/05 Q1016;
0071010231999992013010608204+64350+007800AUTO +0000ENDR V0202101N013912200019N9999999N1+00701+00601999999ADDMA1101591999999REMMET044METAR ENDR 060820Z AUTO 21027KT 07/06 Q1016;
0071010231999992013010608504+64350+007800AUTO +0000ENDR V0202201N010812200019N9999999N1+00701+00601999999ADDMA1101591999999REMMET044METAR ENDR 060850Z AUTO 22021KT 07/06 Q1016;
0177010231999992013010609104+64350+007800FM-15+0000ENDR V0202401N010810150019N0112651N1+00701+00701999999ADDGA1041+003001999GA2071+015001999GA3081+021001999GF108991999999999999999999MA1101691999999MW1401REMMET070METAR ENDR 060910Z 24021KT 9999 VCFG SCT010 BKN054 OVC073 07/07 Q1017;
0071010231999992013010609504+64350+007800AUTO +0000ENDR V0202801N011312200019N9999999N1+00701+00601999999ADDMA1101691999999REMMET044METAR ENDR 060950Z AUTO 28022KT 07/06 Q1017;
0071010231999992013010610204+64350+007800AUTO +0000ENDR V0202801N011312200019N9999999N1+00701+00501999999ADDMA1101801999999REMMET044METAR ENDR 061020Z AUTO 28022KT 07/05 Q1018;
0071010231999992013010610504+64350+007800AUTO +0000ENDR V0202701N010312200019N9999999N1+00701+00501999999ADDMA1101801999999REMMET044METAR ENDR 061050Z AUTO 27020KT 07/05 Q1018;
0071010231999992013010611204+64350+007800AUTO +0000ENDR V0202601N010312200019N9999999N1+00701+00501999999ADDMA1101901999999REMMET044METAR ENDR 061120Z AUTO 26020KT 07/05 Q1019;
0071010231999992013010611504+64350+007800AUTO +0000ENDR V0202701N011312200019N9999999N1+00701+00501999999ADDMA1101901999999REMMET044METAR ENDR 061150Z AUTO 27022KT 07/05 Q1019;
0131010231999992013010612204+64350+007800FM-15+0000ENDR V0202701N011810051019N0112651N1+00701+00401999999ADDGA1071+005101999GF107991999999999999999999MA1101901999999MW1161REMMET056METAR ENDR 061220Z 27023KT 9999 VCSH BKN017 07/04 Q1019;
0071010231999992013010612504+64350+007800AUTO +0000ENDR V0202701N011812200019N9999999N1+00701+00401999999ADDMA1102001999999REMMET044METAR ENDR 061250Z AUTO 27023KT 07/04 Q1020;
0071010231999992013010613204+64350+007800AUTO +0000ENDR V0202601N012312200019N9999999N1+00701+00401999999ADDMA1102001999999REMMET044METAR ENDR 061320Z AUTO 26024KT 07/04 Q1020;
0071010231999992013010613504+64350+007800AUTO +0000ENDR V0202701N010812200019N9999999N1+00701+00301999999ADDMA1102001999999REMMET044METAR ENDR 061350Z AUTO 27021KT 07/03 Q1020;
0071010231999992013010614204+64350+007800AUTO +0000ENDR V0202601N010812200019N9999999N1+00701+00301999999ADDMA1102101999999REMMET044METAR ENDR 061420Z AUTO 26021KT 07/03 Q1021;
0071010231999992013010614504+64350+007800AUTO +0000ENDR V0202601N009312200019N9999999N1+00701+00301999999ADDMA1102101999999REMMET044METAR ENDR 061450Z AUTO 26018KT 07/03 Q1021;
0131010231999992013010615104+64350+007800FM-15+0000ENDR V0202701N007710081019N0112651N1+00701+00201999999ADDGA1071+008101999GF107991999999999999999999MA1102101999999MW1161REMMET056METAR ENDR 061510Z 27015KT 9999 VCSH BKN027 07/02 Q1021;
0071010231999992013010615504+64350+007800AUTO +0000ENDR V0202701N008212200019N9999999N1+00701+00401999999ADDMA1102101999999REMMET044METAR ENDR 061550Z AUTO 27016KT 07/04 Q1021;
0071010231999992013010616204+64350+007800AUTO +0000ENDR V0202701N008712200019N9999999N1+00701+00401999999ADDMA1102101999999REMMET044METAR ENDR 061620Z AUTO 27017KT 07/04 Q1021;
0071010231999992013010616504+64350+007800AUTO +0000ENDR V0202801N008712200019N9999999N1+00701+00201999999ADDMA1102101999999REMMET044METAR ENDR 061650Z AUTO 28017KT 07/02 Q1021;
0071010231999992013010617204+64350+007800AUTO +0000ENDR V0202901N007212200019N9999999N1+00701+00301999999ADDMA1102101999999REMMET044METAR ENDR 061720Z AUTO 29014KT 07/03 Q1021;
0071010231999992013010618204+64350+007800AUTO +0000ENDR V0202501N004612200019N9999999N1+00701+00301999999ADDMA1102201999999REMMET044METAR ENDR 061820Z AUTO 25009KT 07/03 Q1022;
0071010231999992013010618504+64350+007800AUTO +0000ENDR V0202401N005112200019N9999999N1+00701+00201999999ADDMA1102201999999REMMET044METAR ENDR 061850Z AUTO 24010KT 07/02 Q1022;
0071010231999992013010619204+64350+007800AUTO +0000ENDR V0202501N007212200019N9999999N1+00701+00201999999ADDMA1102201999999REMMET044METAR ENDR 061920Z AUTO 25014KT 07/02 Q1022;
0071010231999992013010619504+64350+007800AUTO +0000ENDR V0202301N005712200019N9999999N1+00701+00201999999ADDMA1102201999999REMMET044METAR ENDR 061950Z AUTO 23011KT 07/02 Q1022;
0071010231999992013010620204+64350+007800AUTO +0000ENDR V0202401N006712200019N9999999N1+00701+00001999999ADDMA1102201999999REMMET044METAR ENDR 062020Z AUTO 24013KT 07/00 Q1022;
0071010231999992013010620504+64350+007800AUTO +0000ENDR V0202401N005112200019N9999999N1+00701+00101999999ADDMA1102201999999REMMET044METAR ENDR 062050Z AUTO 24010KT 07/01 Q1022;
0071010231999992013010621204+64350+007800AUTO +0000ENDR V0202301N005112200019N9999999N1+00701+00201999999ADDMA1102201999999REMMET044METAR ENDR 062120Z AUTO 23010KT 07/02 Q1022;
0071010231999992013010621504+64350+007800AUTO +0000ENDR V0202301N004612200019N9999999N1+00701+00201999999ADDMA1102201999999REMMET044METAR ENDR 062150Z AUTO 23009KT 07/02 Q1022;
0071010231999992013010622204+64350+007800AUTO +0000ENDR V0202201N004612200019N9999999N1+00701+00201999999ADDMA1102101999999REMMET044METAR ENDR 062220Z AUTO 22009KT 07/02 Q1021;
0071010231999992013010622504+64350+007800AUTO +0000ENDR V0202001N004612200019N9999999N1+00701+00301999999ADDMA1102101999999REMMET044METAR ENDR 062250Z AUTO 20009KT 07/03 Q1021;
0071010231999992013010623204+64350+007800AUTO +0000ENDR V0202001N004612200019N9999999N1+00701+00301999999ADDMA1102101999999REMMET044METAR ENDR 062320Z AUTO 20009KT 07/03 Q1021;
0071010231999992013010623504+64350+007800AUTO +0000ENDR V0202001N005112200019N9999999N1+00701+00301999999ADDMA1102101999999REMMET044METAR ENDR 062350Z AUTO 20010KT 07/03 Q1021;
0071010231999992013010700204+64350+007800AUTO +0000ENDR V0201801N004612200019N9999999N1+00701+00301999999ADDMA1102001999999REMMET044METAR ENDR 070020Z AUTO 18009KT 07/03 Q1020;
0071010231999992013010700504+64350+007800AUTO +0000ENDR V0201801N005112200019N9999999N1+00701+00501999999ADDMA1102001999999REMMET044METAR ENDR 070050Z AUTO 18010KT 07/05 Q1020;
0071010231999992013010701204+64350+007800AUTO +0000ENDR V0201901N004612200019N9999999N1+00601+00501999999ADDMA1102001999999REMMET044METAR ENDR 070120Z AUTO 19009KT 06/05 Q1020;
0071010231999992013010701504+64350+007800AUTO +0000ENDR V0201901N006212200019N9999999N1+00601+00501999999ADDMA1102001999999REMMET044METAR ENDR 070150Z AUTO 19012KT 06/05 Q1020;
0071010231999992013010702204+64350+007800AUTO +0000ENDR V0201901N007212200019N9999999N1+00601+00501999999ADDMA1101901999999REMMET044METAR ENDR 070220Z AUTO 19014KT 06/05 Q1019;
0071010231999992013010702504+64350+007800AUTO +0000ENDR V0201801N006212200019N9999999N1+00601+00501999999ADDMA1101901999999REMMET044METAR ENDR 070250Z AUTO 18012KT 06/05 Q1019;
0071010231999992013010703204+64350+007800AUTO +0000ENDR V0201701N007212200019N9999999N1+00601+00501999999ADDMA1101801999999REMMET044METAR ENDR 070320Z AUTO 17014KT 06/05 Q1018;
0071010231999992013010703504+64350+007800AUTO +0000ENDR V0201701N007712200019N9999999N1+00601+00401999999ADDMA1101801999999REMMET044METAR ENDR 070350Z AUTO 17015KT 06/04 Q1018;
0071010231999992013010704204+64350+007800AUTO +0000ENDR V0201601N007712200019N9999999N1+00601+00401999999ADDMA1101801999999REMMET044METAR ENDR 070420Z AUTO 16015KT 06/04 Q1018;
0071010231999992013010704504+64350+007800AUTO +0000ENDR V0201601N007712200019N9999999N1+00601+00401999999ADDMA1101691999999REMMET044METAR ENDR 070450Z AUTO 16015KT 06/04 Q1017;
0071010231999992013010705204+64350+007800AUTO +0000ENDR V0201501N008212200019N9999999N1+00601+00401999999ADDMA1101591999999REMMET044METAR ENDR 070520Z AUTO 15016KT 06/04 Q1016;
0071010231999992013010705504+64350+007800AUTO +0000ENDR V0201501N007712200019N9999999N1+00601+00401999999ADDMA1101591999999REMMET044METAR ENDR 070550Z AUTO 15015KT 06/04 Q1016;
0120010231999992013010706104+64350+007800FM-15+0000ENDR V0201401N008212200019N0112651N1+00601+00301999999ADDGA1041+036001999GF104991999999999999999999MA1101591999999REMMET051METAR ENDR 070610Z 14016KT 9999 SCT120 06/03 Q1016;
0071010231999992013010706504+64350+007800AUTO +0000ENDR V0201301N008712200019N9999999N1+00601+00401999999ADDMA1101491999999REMMET044METAR ENDR 070650Z AUTO 13017KT 06/04 Q1015;
0071010231999992013010707204+64350+007800AUTO +0000ENDR V0201401N008212200019N9999999N1+00601+00401999999ADDMA1101491999999REMMET044METAR ENDR 070720Z AUTO 14016KT 06/04 Q1015;
0071010231999992013010707504+64350+007800AUTO +0000ENDR V0201401N008712200019N9999999N1+00601+00401999999ADDMA1101391999999REMMET044METAR ENDR 070750Z AUTO 14017KT 06/04 Q1014;
0071010231999992013010708204+64350+007800AUTO +0000ENDR V0201501N008712200019N9999999N1+00601+00301999999ADDMA1101391999999REMMET044METAR ENDR 070820Z AUTO 15017KT 06/03 Q1014;
0071010231999992013010708504+64350+007800AUTO +0000ENDR V0201501N007712200019N9999999N1+00601+00301999999ADDMA1101391999999REMMET044METAR ENDR 070850Z AUTO 15015KT 06/03 Q1014;
0139010231999992013010709104+64350+007800FM-15+0000ENDR V0201701N008710084019N0112651N1+00601+00401999999ADDGA1081+008401999GF108991999999999999999999MA1101291999999MW1101MW2611REMMET058METAR ENDR 070910Z 17017KT 9999 -RA BR OVC028 06/04 Q1013;
0071010231999992013010709504+64350+007800AUTO +0000ENDR V0201701N012312200019N9999999N1+00501+00201999999ADDMA1101291999999REMMET044METAR ENDR 070950Z AUTO 17024KT 05/02 Q1013;
0071010231999992013010710204+64350+007800AUTO +0000ENDR V0201701N012912200019N9999999N1+00501+00201999999ADDMA1101291999999REMMET044METAR ENDR 071020Z AUTO 17025KT 05/02 Q1013;
0071010231999992013010710504+64350+007800AUTO +0000ENDR V0201801N012912200019N9999999N1+00501+00301999999ADDMA1101191999999REMMET044METAR ENDR 071050Z AUTO 18025KT 05/03 Q1012;
0071010231999992013010711204+64350+007800AUTO +0000ENDR V0201701N013412200019N9999999N1+00501+00301999999ADDMA1101081999999REMMET044METAR ENDR 071120Z AUTO 17026KT 05/03 Q1011;
0071010231999992013010711504+64350+007800AUTO +0000ENDR V0201701N014412200019N9999999N1+00601+00301999999ADDMA1101081999999REMMET044METAR ENDR 071150Z AUTO 17028KT 06/03 Q1011;
0131010231999992013010712104+64350+007800FM-15+0000ENDR V0201701N014410042019N0112651N1+00601+00301999999ADDGA1081+004201999GF108991999999999999999999MA1101081999999MW1161REMMET056METAR ENDR 071210Z 17028KT 9999 VCSH OVC014 06/03 Q1011;
0071010231999992013010712504+64350+007800AUTO +0000ENDR V0201701N013912200019N9999999N1+00601+00401999999ADDMA1101021999999REMMET044METAR ENDR 071250Z AUTO 17027KT 06/04 Q1010;
0071010231999992013010713204+64350+007800AUTO +0000ENDR V0201801N012912200019N9999999N1+00601+00401999999ADDMA1101021999999REMMET044METAR ENDR 071320Z AUTO 18025KT 06/04 Q1010;
0071010231999992013010713504+64350+007800AUTO +0000ENDR V0201901N013412200019N9999999N1+00601+00501999999ADDMA1101021999999REMMET044METAR ENDR 071350Z AUTO 19026KT 06/05 Q1010;
0071010231999992013010714204+64350+007800AUTO +0000ENDR V0201901N012912200019N9999999N1+00701+00501999999ADDMA1101021999999REMMET044METAR ENDR 071420Z AUTO 19025KT 07/05 Q1010;
0071010231999992013010714504+64350+007800AUTO +0000ENDR V0201901N012312200019N9999999N1+00601+00501999999ADDMA1101021999999REMMET044METAR ENDR 071450Z AUTO 19024KT 06/05 Q1010;
0071010231999992013010715204+64350+007800AUTO +0000ENDR V0202001N010812200019N9999999N1+00601+00501999999ADDMA1100911999999REMMET044METAR ENDR 071520Z AUTO 20021KT 06/05 Q1009;
0071010231999992013010715504+64350+007800AUTO +0000ENDR V0202101N012312200019N9999999N1+00701+00501999999ADDMA1100911999999REMMET044METAR ENDR 071550Z AUTO 21024KT 07/05 Q1009;
0162010231999992013010716104+64350+007800FM-15+0000ENDR V0202101N012910030019N0112651N1+00701+00501999999ADDGA1071+003001999GA2071+015001999GF107991999999999999999999MA1100911999999MW1101MW2611REMMET065METAR ENDR 071610Z 21025KT 9999 -RA BR BKN010 BKN056 07/05 Q1009;
0071010231999992013010716504+64350+007800AUTO +0000ENDR V0202101N010812200019N9999999N1+00701+00401999999ADDMA1100911999999REMMET044METAR ENDR 071650Z AUTO 21021KT 07/04 Q1009;
0071010231999992013010717204+64350+007800AUTO +0000ENDR V0202101N010812200019N9999999N1+00601+00501999999ADDMA1100911999999REMMET044METAR ENDR 071720Z AUTO 21021KT 06/05 Q1009;
0071010231999992013010717504+64350+007800AUTO +0000ENDR V0202101N011812200019N9999999N1+00601+00401999999ADDMA1100811999999REMMET044METAR ENDR 071750Z AUTO 21023KT 06/04 Q1008;
0071010231999992013010718204+64350+007800AUTO +0000ENDR V0202101N008712200019N9999999N1+00601+00501999999ADDMA1100811999999REMMET044METAR ENDR 071820Z AUTO 21017KT 06/05 Q1008;
0071010231999992013010718504+64350+007800AUTO +0000ENDR V0202201N011312200019N9999999N1+00701+00501999999ADDMA1100811999999REMMET044METAR ENDR 071850Z AUTO 22022KT 07/05 Q1008;
0071010231999992013010719204+64350+007800AUTO +0000ENDR V0202201N012912200019N9999999N1+00701+00601999999ADDMA1100811999999REMMET044METAR ENDR 071920Z AUTO 22025KT 07/06 Q1008;
0071010231999992013010719504+64350+007800AUTO +0000ENDR V0202201N010812200019N9999999N1+00701+00601999999ADDMA1100811999999REMMET044METAR ENDR 071950Z AUTO 22021KT 07/06 Q1008;
0071010231999992013010720204+64350+007800AUTO +0000ENDR V0202201N011812200019N9999999N1+00701+00501999999ADDMA1100811999999REMMET044METAR ENDR 072020Z AUTO 22023KT 07/05 Q1008;
0071010231999992013010720504+64350+007800AUTO +0000ENDR V0202201N010812200019N9999999N1+00701+00601999999ADDMA1100811999999REMMET044METAR ENDR 072050Z AUTO 22021KT 07/06 Q1008;
0071010231999992013010721204+64350+007800AUTO +0000ENDR V0202301N009812200019N9999999N1+00701+00601999999ADDMA1100811999999REMMET044METAR ENDR 072120Z AUTO 23019KT 07/06 Q1008;
0071010231999992013010721504+64350+007800AUTO +0000ENDR V0202401N011312200019N9999999N1+00701+00601999999ADDMA1100811999999REMMET044METAR ENDR 072150Z AUTO 24022KT 07/06 Q1008;
0071010231999992013010722204+64350+007800AUTO +0000ENDR V0202501N009812200019N9999999N1+00701+00601999999ADDMA1100811999999REMMET044METAR ENDR 072220Z AUTO 25019KT 07/06 Q1008;
0071010231999992013010722504+64350+007800AUTO +0000ENDR V0202401N009312200019N9999999N1+00701+00601999999ADDMA1100811999999REMMET044METAR ENDR 072250Z AUTO 24018KT 07/06 Q1008;
0071010231999992013010723204+64350+007800AUTO +0000ENDR V0202501N008712200019N9999999N1+00701+00601999999ADDMA1100911999999REMMET044METAR ENDR 072320Z AUTO 25017KT 07/06 Q1009;
0071010231999992013010723504+64350+007800AUTO +0000ENDR V0202601N009312200019N9999999N1+00701+00601999999ADDMA1100911999999REMMET044METAR ENDR 072350Z AUTO 26018KT 07/06 Q1009;
0071010231999992013010800204+64350+007800AUTO +0000ENDR V0202901N009312200019N9999999N1+00701+00601999999ADDMA1100911999999REMMET044METAR ENDR 080020Z AUTO 29018KT 07/06 Q1009;
0071010231999992013010800504+64350+007800AUTO +0000ENDR V0202901N010312200019N9999999N1+00601+00501999999ADDMA1100911999999REMMET044METAR ENDR 080050Z AUTO 29020KT 06/05 Q1009;
0071010231999992013010801204+64350+007800AUTO +0000ENDR V0203001N009312200019N9999999N1+00701+00601999999ADDMA1101021999999REMMET044METAR ENDR 080120Z AUTO 30018KT 07/06 Q1010;
0071010231999992013010801504+64350+007800AUTO +0000ENDR V0203001N008212200019N9999999N1+00701+00501999999ADDMA1101021999999REMMET044METAR ENDR 080150Z AUTO 30016KT 07/05 Q1010;
0071010231999992013010802204+64350+007800AUTO +0000ENDR V0203101N008212200019N9999999N1+00701+00601999999ADDMA1101021999999REMMET044METAR ENDR 080220Z AUTO 31016KT 07/06 Q1010;
0071010231999992013010802504+64350+007800AUTO +0000ENDR V0203101N007712200019N9999999N1+00801+00601999999ADDMA1101081999999REMMET044METAR ENDR 080250Z AUTO 31015KT 08/06 Q1011;
0071010231999992013010803204+64350+007800AUTO +0000ENDR V0203101N007712200019N9999999N1+00801+00501999999ADDMA1101081999999REMMET044METAR ENDR 080320Z AUTO 31015KT 08/05 Q1011;
0071010231999992013010803504+64350+007800AUTO +0000ENDR V0203101N006712200019N9999999N1+00801+00501999999ADDMA1101191999999REMMET044METAR ENDR 080350Z AUTO 31013KT 08/05 Q1012;
0071010231999992013010804204+64350+007800AUTO +0000ENDR V0203001N007212200019N9999999N1+00701+00501999999ADDMA1101191999999REMMET044METAR ENDR 080420Z AUTO 30014KT 07/05 Q1012;
0071010231999992013010804504+64350+007800AUTO +0000ENDR V0203001N007212200019N9999999N1+00701+00501999999ADDMA1101291999999REMMET044METAR ENDR 080450Z AUTO 30014KT 07/05 Q1013;
0071010231999992013010805204+64350+007800AUTO +0000ENDR V0202901N008712200019N9999999N1+00701+00601999999ADDMA1101291999999REMMET044METAR ENDR 080520Z AUTO 29017KT 07/06 Q1013;
0071010231999992013010805504+64350+007800AUTO +0000ENDR V0203101N009812200019N9999999N1+00801+00501999999ADDMA1101291999999REMMET044METAR ENDR 080550Z AUTO 31019KT 08/05 Q1013;
0120010231999992013010806104+64350+007800FM-15+0000ENDR V0203201N006710048019N0112651N1+00801+00501999999ADDGA1071+004801999GF107991999999999999999999MA1101391999999REMMET051METAR ENDR 080610Z 32013KT 9999 BKN016 08/05 Q1014;
0071010231999992013010806504+64350+007800AUTO +0000ENDR V0203101N010312200019N9999999N1+00801+00401999999ADDMA1101391999999REMMET044METAR ENDR 080650Z AUTO 31020KT 08/04 Q1014;
0071010231999992013010807204+64350+007800AUTO +0000ENDR V0203101N007712200019N9999999N1+00801+00301999999ADDMA1101391999999REMMET044METAR ENDR 080720Z AUTO 31015KT 08/03 Q1014;
0071010231999992013010807504+64350+007800AUTO +0000ENDR V0203001N008212200019N9999999N1+00701+00501999999ADDMA1101391999999REMMET044METAR ENDR 080750Z AUTO 30016KT 07/05 Q1014;
0071010231999992013010808204+64350+007800AUTO +0000ENDR V0203001N009312200019N9999999N1+00701+00501999999ADDMA1101491999999REMMET044METAR ENDR 080820Z AUTO 30018KT 07/05 Q1015;
0071010231999992013010808504+64350+007800AUTO +0000ENDR V0202801N009312200019N9999999N1+00701+00401999999ADDMA1101491999999REMMET044METAR ENDR 080850Z AUTO 28018KT 07/04 Q1015;
0120010231999992013010809104+64350+007800FM-15+0000ENDR V0202901N008210066019N0112651N1+00601+00401999999ADDGA1081+006601999GF108991999999999999999999MA1101591999999REMMET051METAR ENDR 080910Z 29016KT 9999 OVC022 06/04 Q1016;
0071010231999992013010809504+64350+007800AUTO +0000ENDR V0202701N008212200019N9999999N1+00601+00401999999ADDMA1101591999999REMMET044METAR ENDR 080950Z AUTO 27016KT 06/04 Q1016;
0071010231999992013010810204+64350+007800AUTO +0000ENDR V0202801N008212200019N9999999N1+00601+00301999999ADDMA1101591999999REMMET044METAR ENDR 081020Z AUTO 28016KT 06/03 Q1016;
0071010231999992013010810504+64350+007800AUTO +0000ENDR V0202601N009812200019N9999999N1+00501+00301999999ADDMA1101591999999REMMET044METAR ENDR 081050Z AUTO 26019KT 05/03 Q1016;
0071010231999992013010811204+64350+007800AUTO +0000ENDR V0202601N009812200019N9999999N1+00501+00301999999ADDMA1101591999999REMMET044METAR ENDR 081120Z AUTO 26019KT 05/03 Q1016;
0071010231999992013010811504+64350+007800AUTO +0000ENDR V0202601N008712200019N9999999N1+00501+00401999999ADDMA1101591999999REMMET044METAR ENDR 081150Z AUTO 26017KT 05/04 Q1016;
0131010231999992013010812104+64350+007800FM-15+0000ENDR V0202601N008710024019N0112651N1+00601+00301999999ADDGA1071+002401999GF107991999999999999999999MA1101591999999MW1161REMMET056METAR ENDR 081210Z 26017KT 9999 VCSH BKN008 06/03 Q1016;
0071010231999992013010812504+64350+007800AUTO +0000ENDR V0202601N008712200019N9999999N1+00601+00301999999ADDMA1101591999999REMMET044METAR ENDR 081250Z AUTO 26017KT 06/03 Q1016;
0071010231999992013010813204+64350+007800AUTO +0000ENDR V0202601N010312200019N9999999N1+00601+00401999999ADDMA1101591999999REMMET044METAR ENDR 081320Z AUTO 26020KT 06/04 Q1016;
0071010231999992013010813504+64350+007800AUTO +0000ENDR V0202501N008712200019N9999999N1+00601+00401999999ADDMA1101591999999REMMET044METAR ENDR 081350Z AUTO 25017KT 06/04 Q1016;
0071010231999992013010814204+64350+007800AUTO +0000ENDR V0202601N008712200019N9999999N1+00601+00401999999ADDMA1101591999999REMMET044METAR ENDR 081420Z AUTO 26017KT 06/04 Q1016;
0131010231999992013010815104+64350+007800FM-15+0000ENDR V0202601N007210021019N0112651N1+00501+00401999999ADDGA1081+002101999GF108991999999999999999999MA1101591999999MW1161REMMET056METAR ENDR 081510Z 26014KT 9999 VCSH OVC007 05/04 Q1016;
0071010231999992013010815504+64350+007800AUTO +0000ENDR V0202801N005112200019N9999999N1+00501+00401999999ADDMA1101591999999REMMET044METAR ENDR 081550Z AUTO 28010KT 05/04 Q1016;
0071010231999992013010816204+64350+007800AUTO +0000ENDR V0202601N003612200019N9999999N1+00501+00401999999ADDMA1101591999999REMMET044METAR ENDR 081620Z AUTO 26007KT 05/04 Q1016;
0071010231999992013010816504+64350+007800AUTO +0000ENDR V0202501N004612200019N9999999N1+00501+00401999999ADDMA1101591999999REMMET044METAR ENDR 081650Z AUTO 25009KT 05/04 Q1016;
0079010231999992013010817204+64350+007800AUTO +0000ENDR V0202901N003112200019N9999999N1+00501+00401999999ADDMA1101591999999REMMET052METAR ENDR 081720Z AUTO 29006KT 240V330 05/04 Q1016;
0071010231999992013010817504+64350+007800AUTO +0000ENDR V0202601N004112200019N9999999N1+00501+00401999999ADDMA1101591999999REMMET044METAR ENDR 081750Z AUTO 26008KT 05/04 Q1016;
0071010231999992013010818204+64350+007800AUTO +0000ENDR V0202801N003112200019N9999999N1+00501+00401999999ADDMA1101591999999REMMET044METAR ENDR 081820Z AUTO 28006KT 05/04 Q1016;
0071010231999992013010818504+64350+007800AUTO +0000ENDR V0202601N002612200019N9999999N1+00501+00401999999ADDMA1101591999999REMMET044METAR ENDR 081850Z AUTO 26005KT 05/04 Q1016;
0071010231999992013010819204+64350+007800AUTO +0000ENDR V0203501N001512200019N9999999N1+00601+00401999999ADDMA1101491999999REMMET044METAR ENDR 081920Z AUTO 35003KT 06/04 Q1015;
0071010231999992013010819504+64350+007800AUTO +0000ENDR V0200101N003112200019N9999999N1+00601+00401999999ADDMA1101491999999REMMET044METAR ENDR 081950Z AUTO 01006KT 06/04 Q1015;
0071010231999992013010820204+64350+007800AUTO +0000ENDR V0200401N002612200019N9999999N1+00501+00401999999ADDMA1101491999999REMMET044METAR ENDR 082020Z AUTO 04005KT 05/04 Q1015;
0071010231999992013010820504+64350+007800AUTO +0000ENDR V0201001N002112200019N9999999N1+00501+00401999999ADDMA1101491999999REMMET044METAR ENDR 082050Z AUTO 10004KT 05/04 Q1015;
0079010231999992013010821204+64350+007800AUTO +0000ENDR V0201201N001512200019N9999999N1+00501+00301999999ADDMA1101391999999REMMET052METAR ENDR 082120Z AUTO 12003KT 090V160 05/03 Q1014;
0071010231999992013010821504+64350+007800AUTO +0000ENDR V0200601N004112200019N9999999N1+00601+00401999999ADDMA1101391999999REMMET044METAR ENDR 082150Z AUTO 06008KT 06/04 Q1014;
0071010231999992013010822204+64350+007800AUTO +0000ENDR V0200601N005112200019N9999999N1+00601+00401999999ADDMA1101391999999REMMET044METAR ENDR 082220Z AUTO 06010KT 06/04 Q1014;
0071010231999992013010822504+64350+007800AUTO +0000ENDR V0200601N004612200019N9999999N1+00601+00301999999ADDMA1101391999999REMMET044METAR ENDR 082250Z AUTO 06009KT 06/03 Q1014;
0071010231999992013010823204+64350+007800AUTO +0000ENDR V0200701N005112200019N9999999N1+00701+00201999999ADDMA1101391999999REMMET044METAR ENDR 082320Z AUTO 07010KT 07/02 Q1014;
0071010231999992013010823504+64350+007800AUTO +0000ENDR V0200701N004112200019N9999999N1+00601+00201999999ADDMA1101391999999REMMET044METAR ENDR 082350Z AUTO 07008KT 06/02 Q1014;
0071010231999992013010900204+64350+007800AUTO +0000ENDR V0200801N004112200019N9999999N1+00601+00201999999ADDMA1101391999999REMMET044METAR ENDR 090020Z AUTO 08008KT 06/02 Q1014;
0071010231999992013010900504+64350+007800AUTO +0000ENDR V0200701N003612200019N9999999N1+00601+00201999999ADDMA1101391999999REMMET044METAR ENDR 090050Z AUTO 07007KT 06/02 Q1014;
0071010231999992013010901204+64350+007800AUTO +0000ENDR V0200701N004112200019N9999999N1+00701+00201999999ADDMA1101291999999REMMET044METAR ENDR 090120Z AUTO 07008KT 07/02 Q1013;
0071010231999992013010901504+64350+007800AUTO +0000ENDR V0200401N003612200019N9999999N1+00601+00101999999ADDMA1101291999999REMMET044METAR ENDR 090150Z AUTO 04007KT 06/01 Q1013;
0071010231999992013010902204+64350+007800AUTO +0000ENDR V0200701N002612200019N9999999N1+00601+00101999999ADDMA1101291999999REMMET044METAR ENDR 090220Z AUTO 07005KT 06/01 Q1013;
0071010231999992013010902504+64350+007800AUTO +0000ENDR V0200501N004612200019N9999999N1+00701+00101999999ADDMA1101291999999REMMET044METAR ENDR 090250Z AUTO 05009KT 07/01 Q1013;
0072010231999992013010903204+64350+007800AUTO +0000ENDR V0200301N005112200019N9999999N1+00601+00001999999ADDMA1101291999999REMMET045METAR ENDR 090320Z AUTO 03010KT 06/M00 Q1013;
0072010231999992013010903504+64350+007800AUTO +0000ENDR V0200301N007212200019N9999999N1+00601-00101999999ADDMA1101291999999REMMET045METAR ENDR 090350Z AUTO 03014KT 06/M01 Q1013;
0072010231999992013010904204+64350+007800AUTO +0000ENDR V0200301N007212200019N9999999N1+00601-00101999999ADDMA1101291999999REMMET045METAR ENDR 090420Z AUTO 03014KT 06/M01 Q1013;
0072010231999992013010904504+64350+007800AUTO +0000ENDR V0200301N006712200019N9999999N1+00601-00101999999ADDMA1101291999999REMMET045METAR ENDR 090450Z AUTO 03013KT 06/M01 Q1013;
0072010231999992013010905204+64350+007800AUTO +0000ENDR V0200401N007712200019N9999999N1+00601-00101999999ADDMA1101291999999REMMET045METAR ENDR 090520Z AUTO 04015KT 06/M01 Q1013;
0072010231999992013010905504+64350+007800AUTO +0000ENDR V0200401N007712200019N9999999N1+00501-00201999999ADDMA1101291999999REMMET045METAR ENDR 090550Z AUTO 04015KT 05/M02 Q1013;
0121010231999992013010906104+64350+007800FM-15+0000ENDR V0200301N007212200019N0112651N1+00501-00201999999ADDGA1041+009301999GF104991999999999999999999MA1101291999999REMMET052METAR ENDR 090610Z 03014KT 9999 SCT031 05/M02 Q1013;
0072010231999992013010906504+64350+007800AUTO +0000ENDR V0200401N007712200019N9999999N1+00501-00201999999ADDMA1101291999999REMMET045METAR ENDR 090650Z AUTO 04015KT 05/M02 Q1013;
0072010231999992013010907204+64350+007800AUTO +0000ENDR V0200501N008212200019N9999999N1+00501-00201999999ADDMA1101391999999REMMET045METAR ENDR 090720Z AUTO 05016KT 05/M02 Q1014;
0072010231999992013010907504+64350+007800AUTO +0000ENDR V0200501N008212200019N9999999N1+00501-00301999999ADDMA1101391999999REMMET045METAR ENDR 090750Z AUTO 05016KT 05/M03 Q1014;
0072010231999992013010908204+64350+007800AUTO +0000ENDR V0200401N008712200019N9999999N1+00401-00301999999ADDMA1101391999999REMMET045METAR ENDR 090820Z AUTO 04017KT 04/M03 Q1014;
0072010231999992013010908504+64350+007800AUTO +0000ENDR V0200401N007712200019N9999999N1+00401-00301999999ADDMA1101491999999REMMET045METAR ENDR 090850Z AUTO 04015KT 04/M03 Q1015;
0072010231999992013010909204+64350+007800AUTO +0000ENDR V0200401N006712200019N9999999N1+00401-00301999999ADDMA1101491999999REMMET045METAR ENDR 090920Z AUTO 04013KT 04/M03 Q1015;
0072010231999992013010909504+64350+007800AUTO +0000ENDR V0200501N005112200019N9999999N1+00501-00201999999ADDMA1101491999999REMMET045METAR ENDR 090950Z AUTO 05010KT 05/M02 Q1015;
0072010231999992013010910204+64350+007800AUTO +0000ENDR V0200701N006212200019N9999999N1+00501-00301999999ADDMA1101491999999REMMET045METAR ENDR 091020Z AUTO 07012KT 05/M03 Q1015;
0072010231999992013010911204+64350+007800AUTO +0000ENDR V0200201N006712200019N9999999N1+00401-00301999999ADDMA1101491999999REMMET045METAR ENDR 091120Z AUTO 02013KT 04/M03 Q1015;
0072010231999992013010911504+64350+007800AUTO +0000ENDR V0200301N006212200019N9999999N1+00401-00101999999ADDMA1101591999999REMMET045METAR ENDR 091150Z AUTO 03012KT 04/M01 Q1016;
0155010231999992013010912204+64350+007800FM-15+0000ENDR V0200301N007210090019N0112651N1+00401-00301999999ADDGA1071+009001999GA2071+060001999GF107991999999999999999999MA1101591999999MW1161REMMET064METAR ENDR 091220Z 03014KT 9999 VCSH BKN030 BKN200 04/M03 Q1016;
0072010231999992013010912504+64350+007800AUTO +0000ENDR V0200601N004112200019N9999999N1+00501-00101999999ADDMA1101591999999REMMET045METAR ENDR 091250Z AUTO 06008KT 05/M01 Q1016;
0072010231999992013010913204+64350+007800AUTO +0000ENDR V0200401N011312200019N9999999N1+00401-00301999999ADDMA1101591999999REMMET045METAR ENDR 091320Z AUTO 04022KT 04/M03 Q1016;
0072010231999992013010913504+64350+007800AUTO +0000ENDR V0200301N008712200019N9999999N1+00401-00401999999ADDMA1101591999999REMMET045METAR ENDR 091350Z AUTO 03017KT 04/M04 Q1016;
0072010231999992013010914204+64350+007800AUTO +0000ENDR V0200301N009812200019N9999999N1+00401-00201999999ADDMA1101591999999REMMET045METAR ENDR 091420Z AUTO 03019KT 04/M02 Q1016;
0072010231999992013010914504+64350+007800AUTO +0000ENDR V0200201N009312200019N9999999N1+00401-00301999999ADDMA1101591999999REMMET045METAR ENDR 091450Z AUTO 02018KT 04/M03 Q1016;
0121010231999992013010915104+64350+007800FM-15+0000ENDR V0200301N010310087019N0112651N1+00401-00301999999ADDGA1081+008701999GF108991999999999999999999MA1101691999999REMMET052METAR ENDR 091510Z 03020KT 9999 OVC029 04/M03 Q1017;
0072010231999992013010915504+64350+007800AUTO +0000ENDR V0200301N009812200019N9999999N1+00401-00301999999ADDMA1101691999999REMMET045METAR ENDR 091550Z AUTO 03019KT 04/M03 Q1017;
0072010231999992013010916204+64350+007800AUTO +0000ENDR V0200301N009812200019N9999999N1+00301-00301999999ADDMA1101691999999REMMET045METAR ENDR 091620Z AUTO 03019KT 03/M03 Q1017;
0072010231999992013010916504+64350+007800AUTO +0000ENDR V0200501N009312200019N9999999N1+00401-00401999999ADDMA1101691999999REMMET045METAR ENDR 091650Z AUTO 05018KT 04/M04 Q1017;
0072010231999992013010917204+64350+007800AUTO +0000ENDR V0200401N010312200019N9999999N1+00401-00401999999ADDMA1101691999999REMMET045METAR ENDR 091720Z AUTO 04020KT 04/M04 Q1017;
0072010231999992013010917504+64350+007800AUTO +0000ENDR V0200201N010812200019N9999999N1+00401-00101999999ADDMA1101801999999REMMET045METAR ENDR 091750Z AUTO 02021KT 04/M01 Q1018;
0072010231999992013010918204+64350+007800AUTO +0000ENDR V0200401N009812200019N9999999N1+00401-00301999999ADDMA1101801999999REMMET045METAR ENDR 091820Z AUTO 04019KT 04/M03 Q1018;
0072010231999992013010918504+64350+007800AUTO +0000ENDR V0200201N007212200019N9999999N1+00401-00101999999ADDMA1101801999999REMMET045METAR ENDR 091850Z AUTO 02014KT 04/M01 Q1018;
0072010231999992013010919204+64350+007800AUTO +0000ENDR V0200201N009312200019N9999999N1+00401-00101999999ADDMA1101801999999REMMET045METAR ENDR 091920Z AUTO 02018KT 04/M01 Q1018;
0072010231999992013010919504+64350+007800AUTO +0000ENDR V0200101N009812200019N9999999N1+00401+00001999999ADDMA1101901999999REMMET045METAR ENDR 091950Z AUTO 01019KT 04/M00 Q1019;
0071010231999992013010920204+64350+007800AUTO +0000ENDR V0200301N009812200019N9999999N1+00301+00001999999ADDMA1101901999999REMMET044METAR ENDR 092020Z AUTO 03019KT 03/00 Q1019;
0071010231999992013010920504+64350+007800AUTO +0000ENDR V0200301N009312200019N9999999N1+00301+00101999999ADDMA1101901999999REMMET044METAR ENDR 092050Z AUTO 03018KT 03/01 Q1019;
0072010231999992013010921204+64350+007800AUTO +0000ENDR V0200401N011312200019N9999999N1+00401+00001999999ADDMA1101901999999REMMET045METAR ENDR 092120Z AUTO 04022KT 04/M00 Q1019;
0071010231999992013010921504+64350+007800AUTO +0000ENDR V0200201N011312200019N9999999N1+00401+00001999999ADDMA1101901999999REMMET044METAR ENDR 092150Z AUTO 02022KT 04/00 Q1019;
0072010231999992013010922204+64350+007800AUTO +0000ENDR V0200301N010812200019N9999999N1+00401-00201999999ADDMA1101901999999REMMET045METAR ENDR 092220Z AUTO 03021KT 04/M02 Q1019;
0072010231999992013010922504+64350+007800AUTO +0000ENDR V0200401N010812200019N9999999N1+00501-00301999999ADDMA1101901999999REMMET045METAR ENDR 092250Z AUTO 04021KT 05/M03 Q1019;
0072010231999992013010923204+64350+007800AUTO +0000ENDR V0200301N010812200019N9999999N1+00501-00301999999ADDMA1101901999999REMMET045METAR ENDR 092320Z AUTO 03021KT 05/M03 Q1019;
0072010231999992013010923504+64350+007800AUTO +0000ENDR V0200201N008712200019N9999999N1+00501-00401999999ADDMA1101901999999REMMET045METAR ENDR 092350Z AUTO 02017KT 05/M04 Q1019;
0072010231999992013011000204+64350+007800AUTO +0000ENDR V0200301N008712200019N9999999N1+00501-00401999999ADDMA1101901999999REMMET045METAR ENDR 100020Z AUTO 03017KT 05/M04 Q1019;
0072010231999992013011000504+64350+007800AUTO +0000ENDR V0200301N009312200019N9999999N1+00501-00301999999ADDMA1101901999999REMMET045METAR ENDR 100050Z AUTO 03018KT 05/M03 Q1019;
0072010231999992013011001204+64350+007800AUTO +0000ENDR V0200401N009812200019N9999999N1+00501+00001999999ADDMA1102001999999REMMET045METAR ENDR 100120Z AUTO 04019KT 05/M00 Q1020;
0071010231999992013011001504+64350+007800AUTO +0000ENDR V0200201N010812200019N9999999N1+00501+00101999999ADDMA1102001999999REMMET044METAR ENDR 100150Z AUTO 02021KT 05/01 Q1020;
0071010231999992013011002204+64350+007800AUTO +0000ENDR V0200301N010312200019N9999999N1+00501+00101999999ADDMA1101901999999REMMET044METAR ENDR 100220Z AUTO 03020KT 05/01 Q1019;
0071010231999992013011002504+64350+007800AUTO +0000ENDR V0200201N010312200019N9999999N1+00401+00101999999ADDMA1102001999999REMMET044METAR ENDR 100250Z AUTO 02020KT 04/01 Q1020;
0071010231999992013011003204+64350+007800AUTO +0000ENDR V0200201N012312200019N9999999N1+00501+00101999999ADDMA1101901999999REMMET044METAR ENDR 100320Z AUTO 02024KT 05/01 Q1019;
0071010231999992013011003504+64350+007800AUTO +0000ENDR V0200201N009812200019N9999999N1+00401+00001999999ADDMA1101901999999REMMET044METAR ENDR 100350Z AUTO 02019KT 04/00 Q1019;
0072010231999992013011004204+64350+007800AUTO +0000ENDR V0200401N010812200019N9999999N1+00501+00001999999ADDMA1102001999999REMMET045METAR ENDR 100420Z AUTO 04021KT 05/M00 Q1020;
0071010231999992013011004504+64350+007800AUTO +0000ENDR V0200301N011312200019N9999999N1+00501+00101999999ADDMA1102001999999REMMET044METAR ENDR 100450Z AUTO 03022KT 05/01 Q1020;
0071010231999992013011005204+64350+007800AUTO +0000ENDR V0200401N010812200019N9999999N1+00501+00001999999ADDMA1102001999999REMMET044METAR ENDR 100520Z AUTO 04021KT 05/00 Q1020;
0071010231999992013011005504+64350+007800AUTO +0000ENDR V0200301N009812200019N9999999N1+00501+00101999999ADDMA1102001999999REMMET044METAR ENDR 100550Z AUTO 03019KT 05/01 Q1020;
0143010231999992013011006104+64350+007800FM-15+0000ENDR V0200301N011312200019N0112651N1+00501+00101999999ADDGA1021+005701999GA2041+008701999GF104991999999999999999999MA1102001999999REMMET058METAR ENDR 100610Z 03022KT 9999 FEW019 SCT029 05/01 Q1020;
0071010231999992013011006504+64350+007800AUTO +0000ENDR V0200301N009312200019N9999999N1+00501+00101999999ADDMA1102001999999REMMET044METAR ENDR 100650Z AUTO 03018KT 05/01 Q1020;
0071010231999992013011007204+64350+007800AUTO +0000ENDR V0200301N010812200019N9999999N1+00501+00201999999ADDMA1102001999999REMMET044METAR ENDR 100720Z AUTO 03021KT 05/02 Q1020;
0071010231999992013011007504+64350+007800AUTO +0000ENDR V0200401N011312200019N9999999N1+00501+00101999999ADDMA1102001999999REMMET044METAR ENDR 100750Z AUTO 04022KT 05/01 Q1020;
0071010231999992013011008204+64350+007800AUTO +0000ENDR V0200301N010812200019N9999999N1+00501+00101999999ADDMA1102101999999REMMET044METAR ENDR 100820Z AUTO 03021KT 05/01 Q1021;
0071010231999992013011008504+64350+007800AUTO +0000ENDR V0200101N009812200019N9999999N1+00501+00101999999ADDMA1102101999999REMMET044METAR ENDR 100850Z AUTO 01019KT 05/01 Q1021;
0154010231999992013011009104+64350+007800FM-15+0000ENDR V0200401N010310054019N0112651N1+00501+00101999999ADDGA1071+005401999GA2071+060001999GF107991999999999999999999MA1102101999999MW1161REMMET063METAR ENDR 100910Z 04020KT 9999 VCSH BKN018 BKN200 05/01 Q1021;
0071010231999992013011009504+64350+007800AUTO +0000ENDR V0200501N010312200019N9999999N1+00501+00201999999ADDMA1102101999999REMMET044METAR ENDR 100950Z AUTO 05020KT 05/02 Q1021;
0071010231999992013011010204+64350+007800AUTO +0000ENDR V0200401N007712200019N9999999N1+00501+00101999999ADDMA1102101999999REMMET044METAR ENDR 101020Z AUTO 04015KT 05/01 Q1021;
0071010231999992013011010504+64350+007800AUTO +0000ENDR V0200401N009312200019N9999999N1+00501+00001999999ADDMA1102101999999REMMET044METAR ENDR 101050Z AUTO 04018KT 05/00 Q1021;
0071010231999992013011011204+64350+007800AUTO +0000ENDR V0200601N008212200019N9999999N1+00501+00101999999ADDMA1102001999999REMMET044METAR ENDR 101120Z AUTO 06016KT 05/01 Q1020;
0071010231999992013011011504+64350+007800AUTO +0000ENDR V0200601N006712200019N9999999N1+00601+00201999999ADDMA1102001999999REMMET044METAR ENDR 101150Z AUTO 06013KT 06/02 Q1020;
0131010231999992013011012204+64350+007800FM-15+0000ENDR V0200301N010310051019N0112651N1+00501+00101999999ADDGA1071+005101999GF107991999999999999999999MA1102001999999MW1161REMMET056METAR ENDR 101220Z 03020KT 9999 VCSH BKN017 05/01 Q1020;
0071010231999992013011012504+64350+007800AUTO +0000ENDR V0200601N008212200019N9999999N1+00501+00201999999ADDMA1102101999999REMMET044METAR ENDR 101250Z AUTO 06016KT 05/02 Q1021;
0071010231999992013011013204+64350+007800AUTO +0000ENDR V0200601N007712200019N9999999N1+00501+00201999999ADDMA1102001999999REMMET044METAR ENDR 101320Z AUTO 06015KT 05/02 Q1020;
0071010231999992013011013504+64350+007800AUTO +0000ENDR V0200501N006712200019N9999999N1+00501+00101999999ADDMA1102001999999REMMET044METAR ENDR 101350Z AUTO 05013KT 05/01 Q1020;
0071010231999992013011014204+64350+007800AUTO +0000ENDR V0200601N007212200019N9999999N1+00501+00101999999ADDMA1102101999999REMMET044METAR ENDR 101420Z AUTO 06014KT 05/01 Q1021;
0131010231999992013011015204+64350+007800FM-15+0000ENDR V0200601N006712200019N0050001N1+00501+00101999999ADDGA1041+005701999GF104991999999999999999999MA1102001999999MW1161REMMET056METAR ENDR 101520Z 06013KT 5000 VCSH SCT019 05/01 Q1020;
0071010231999992013011015504+64350+007800AUTO +0000ENDR V0200601N007212200019N9999999N1+00501+00101999999ADDMA1102101999999REMMET044METAR ENDR 101550Z AUTO 06014KT 05/01 Q1021;
0072010231999992013011016204+64350+007800AUTO +0000ENDR V0200501N007212200019N9999999N1+00501+00001999999ADDMA1102001999999REMMET045METAR ENDR 101620Z AUTO 05014KT 05/M00 Q1020;
0071010231999992013011016504+64350+007800AUTO +0000ENDR V0200701N006712200019N9999999N1+00501+00101999999ADDMA1102101999999REMMET044METAR ENDR 101650Z AUTO 07013KT 05/01 Q1021;
0079010231999992013011017204+64350+007800AUTO +0000ENDR V0200801N006212200019N9999999N1+00401+00101999999ADDMA1102101999999REMMET052METAR ENDR 101720Z AUTO 08012KT 040V100 04/01 Q1021;
0071010231999992013011017504+64350+007800AUTO +0000ENDR V0200901N006212200019N9999999N1+00401+00001999999ADDMA1102101999999REMMET044METAR ENDR 101750Z AUTO 09012KT 04/00 Q1021;
0071010231999992013011018204+64350+007800AUTO +0000ENDR V0201201N006212200019N9999999N1+00401+00001999999ADDMA1102101999999REMMET044METAR ENDR 101820Z AUTO 12012KT 04/00 Q1021;
0071010231999992013011018504+64350+007800AUTO +0000ENDR V0201401N005112200019N9999999N1+00301+00001999999ADDMA1102101999999REMMET044METAR ENDR 101850Z AUTO 14010KT 03/00 Q1021;
0072010231999992013011019204+64350+007800AUTO +0000ENDR V0201401N005712200019N9999999N1+00301-00301999999ADDMA1102101999999REMMET045METAR ENDR 101920Z AUTO 14011KT 03/M03 Q1021;
0072010231999992013011019504+64350+007800AUTO +0000ENDR V0201301N006712200019N9999999N1+00301-00301999999ADDMA1102101999999REMMET045METAR ENDR 101950Z AUTO 13013KT 03/M03 Q1021;
0072010231999992013011020204+64350+007800AUTO +0000ENDR V0201201N006212200019N9999999N1+00301-00301999999ADDMA1102101999999REMMET045METAR ENDR 102020Z AUTO 12012KT 03/M03 Q1021;
0072010231999992013011020504+64350+007800AUTO +0000ENDR V0201201N006712200019N9999999N1+00301-00301999999ADDMA1102201999999REMMET045METAR ENDR 102050Z AUTO 12013KT 03/M03 Q1022;
0072010231999992013011021204+64350+007800AUTO +0000ENDR V0201101N006712200019N9999999N1+00301-00301999999ADDMA1102201999999REMMET045METAR ENDR 102120Z AUTO 11013KT 03/M03 Q1022;
0072010231999992013011021504+64350+007800AUTO +0000ENDR V0201001N007212200019N9999999N1+00301-00201999999ADDMA1102201999999REMMET045METAR ENDR 102150Z AUTO 10014KT 03/M02 Q1022;
0072010231999992013011022204+64350+007800AUTO +0000ENDR V0201101N007712200019N9999999N1+00301-00301999999ADDMA1102201999999REMMET045METAR ENDR 102220Z AUTO 11015KT 03/M03 Q1022;
0072010231999992013011022504+64350+007800AUTO +0000ENDR V0201101N008212200019N9999999N1+00201-00401999999ADDMA1102201999999REMMET045METAR ENDR 102250Z AUTO 11016KT 02/M04 Q1022;
0072010231999992013011023204+64350+007800AUTO +0000ENDR V0201001N007712200019N9999999N1+00301-00401999999ADDMA1102201999999REMMET045METAR ENDR 102320Z AUTO 10015KT 03/M04 Q1022;
0072010231999992013011023504+64350+007800AUTO +0000ENDR V0201001N007212200019N9999999N1+00301-00401999999ADDMA1102201999999REMMET045METAR ENDR 102350Z AUTO 10014KT 03/M04 Q1022;
0072010231999992013011100204+64350+007800AUTO +0000ENDR V0201001N007712200019N9999999N1+00201-00401999999ADDMA1102201999999REMMET045METAR ENDR 110020Z AUTO 10015KT 02/M04 Q1022;
0072010231999992013011100504+64350+007800AUTO +0000ENDR V0201101N008212200019N9999999N1+00201-00401999999ADDMA1102201999999REMMET045METAR ENDR 110050Z AUTO 11016KT 02/M04 Q1022;
0072010231999992013011101204+64350+007800AUTO +0000ENDR V0201101N008212200019N9999999N1+00201-00301999999ADDMA1102301999999REMMET045METAR ENDR 110120Z AUTO 11016KT 02/M03 Q1023;
0072010231999992013011101504+64350+007800AUTO +0000ENDR V0201101N008212200019N9999999N1+00201-00401999999ADDMA1102301999999REMMET045METAR ENDR 110150Z AUTO 11016KT 02/M04 Q1023;
0072010231999992013011102204+64350+007800AUTO +0000ENDR V0201001N008712200019N9999999N1+00101-00401999999ADDMA1102301999999REMMET045METAR ENDR 110220Z AUTO 10017KT 01/M04 Q1023;
0072010231999992013011102504+64350+007800AUTO +0000ENDR V0201101N008712200019N9999999N1+00101-00401999999ADDMA1102301999999REMMET045METAR ENDR 110250Z AUTO 11017KT 01/M04 Q1023;
0072010231999992013011103204+64350+007800AUTO +0000ENDR V0201101N008712200019N9999999N1+00101-00501999999ADDMA1102301999999REMMET045METAR ENDR 110320Z AUTO 11017KT 01/M05 Q1023;
0072010231999992013011103504+64350+007800AUTO +0000ENDR V0201101N008212200019N9999999N1+00101-00401999999ADDMA1102301999999REMMET045METAR ENDR 110350Z AUTO 11016KT 01/M04 Q1023;
0072010231999992013011104204+64350+007800AUTO +0000ENDR V0201001N009312200019N9999999N1+00101-00501999999ADDMA1102301999999REMMET045METAR ENDR 110420Z AUTO 10018KT 01/M05 Q1023;
0072010231999992013011104504+64350+007800AUTO +0000ENDR V0201001N010812200019N9999999N1+00101-00501999999ADDMA1102301999999REMMET045METAR ENDR 110450Z AUTO 10021KT 01/M05 Q1023;
0072010231999992013011105204+64350+007800AUTO +0000ENDR V0201101N010812200019N9999999N1+00101-00501999999ADDMA1102301999999REMMET045METAR ENDR 110520Z AUTO 11021KT 01/M05 Q1023;
0072010231999992013011105504+64350+007800AUTO +0000ENDR V0201001N010812200019N9999999N1+00101-00501999999ADDMA1102301999999REMMET045METAR ENDR 110550Z AUTO 10021KT 01/M05 Q1023;
0121010231999992013011106104+64350+007800FM-15+0000ENDR V0201001N010312200019N0112651N1+00101-00501999999ADDGF100991999999999999999999MA1102301999999REMMET049METAR ENDR 110610Z 10020KT 9999 SKC 01/M05 Q1023;EQDQ01    003SCCGA1
0072010231999992013011106504+64350+007800AUTO +0000ENDR V0201001N010812200019N9999999N1+00101-00501999999ADDMA1102301999999REMMET045METAR ENDR 110650Z AUTO 10021KT 01/M05 Q1023;
0072010231999992013011107204+64350+007800AUTO +0000ENDR V0201001N010812200019N9999999N1+00101-00601999999ADDMA1102301999999REMMET045METAR ENDR 110720Z AUTO 10021KT 01/M06 Q1023;
0072010231999992013011107504+64350+007800AUTO +0000ENDR V0201001N010812200019N9999999N1+00101-00501999999ADDMA1102301999999REMMET045METAR ENDR 110750Z AUTO 10021KT 01/M05 Q1023;
0072010231999992013011108204+64350+007800AUTO +0000ENDR V0201001N009312200019N9999999N1+00101-00401999999ADDMA1102401999999REMMET045METAR ENDR 110820Z AUTO 10018KT 01/M04 Q1024;
0072010231999992013011108504+64350+007800AUTO +0000ENDR V0201001N009812200019N9999999N1+00101-00501999999ADDMA1102301999999REMMET045METAR ENDR 110850Z AUTO 10019KT 01/M05 Q1023;
0073010231999992013011109104+64350+007800FM-15+0000ENDR V0201001N009819999999Y0099001N1+00101-00401999999ADDMA1102301999999REMMET046METAR ENDR 110910Z 10019KT CAVOK 01/M04 Q1023;
0072010231999992013011109504+64350+007800AUTO +0000ENDR V0201001N010312200019N9999999N1+00201-00401999999ADDMA1102301999999REMMET045METAR ENDR 110950Z AUTO 10020KT 02/M04 Q1023;
0072010231999992013011110204+64350+007800AUTO +0000ENDR V0201001N010812200019N9999999N1+00201-00401999999ADDMA1102301999999REMMET045METAR ENDR 111020Z AUTO 10021KT 02/M04 Q1023;
0072010231999992013011110504+64350+007800AUTO +0000ENDR V0201001N010812200019N9999999N1+00201-00401999999ADDMA1102401999999REMMET045METAR ENDR 111050Z AUTO 10021KT 02/M04 Q1024;
0072010231999992013011111204+64350+007800AUTO +0000ENDR V0201101N010312200019N9999999N1+00101-00401999999ADDMA1102401999999REMMET045METAR ENDR 111120Z AUTO 11020KT 01/M04 Q1024;
0072010231999992013011111504+64350+007800AUTO +0000ENDR V0201101N009812200019N9999999N1+00101-00401999999ADDMA1102401999999REMMET045METAR ENDR 111150Z AUTO 11019KT 01/M04 Q1024;
0073010231999992013011112104+64350+007800FM-15+0000ENDR V0201101N009319999999Y0099001N1+00101-00401999999ADDMA1102401999999REMMET046METAR ENDR 111210Z 11018KT CAVOK 01/M04 Q1024;
0072010231999992013011112504+64350+007800AUTO +0000ENDR V0201101N008712200019N9999999N1+00101-00401999999ADDMA1102401999999REMMET045METAR ENDR 111250Z AUTO 11017KT 01/M04 Q1024;
0072010231999992013011113204+64350+007800AUTO +0000ENDR V0201001N009812200019N9999999N1+00101-00501999999ADDMA1102301999999REMMET045METAR ENDR 111320Z AUTO 10019KT 01/M05 Q1023;
0072010231999992013011113504+64350+007800AUTO +0000ENDR V0201101N009312200019N9999999N1+00101-00501999999ADDMA1102401999999REMMET045METAR ENDR 111350Z AUTO 11018KT 01/M05 Q1024;
0072010231999992013011114204+64350+007800AUTO +0000ENDR V0201101N009812200019N9999999N1+00101-00501999999ADDMA1102401999999REMMET045METAR ENDR 111420Z AUTO 11019KT 01/M05 Q1024;
0072010231999992013011114504+64350+007800AUTO +0000ENDR V0201101N008212200019N9999999N1+00101-00401999999ADDMA1102401999999REMMET045METAR ENDR 111450Z AUTO 11016KT 01/M04 Q1024;
0073010231999992013011115104+64350+007800FM-15+0000ENDR V0201101N008219999999Y0099001N1+00101-00501999999ADDMA1102401999999REMMET046METAR ENDR 111510Z 11016KT CAVOK 01/M05 Q1024;
0072010231999992013011115504+64350+007800AUTO +0000ENDR V0201101N007212200019N9999999N1+00101-00401999999ADDMA1102301999999REMMET045METAR ENDR 111550Z AUTO 11014KT 01/M04 Q1023;
0072010231999992013011116204+64350+007800AUTO +0000ENDR V0201001N008712200019N9999999N1+00101-00401999999ADDMA1102301999999REMMET045METAR ENDR 111620Z AUTO 10017KT 01/M04 Q1023;
0072010231999992013011116504+64350+007800AUTO +0000ENDR V0201101N008712200019N9999999N1+00101-00401999999ADDMA1102301999999REMMET045METAR ENDR 111650Z AUTO 11017KT 01/M04 Q1023;
0072010231999992013011117204+64350+007800AUTO +0000ENDR V0201101N008212200019N9999999N1+00101-00401999999ADDMA1102301999999REMMET045METAR ENDR 111720Z AUTO 11016KT 01/M04 Q1023;
0072010231999992013011117504+64350+007800AUTO +0000ENDR V0201101N008212200019N9999999N1+00201-00301999999ADDMA1102301999999REMMET045METAR ENDR 111750Z AUTO 11016KT 02/M03 Q1023;
0072010231999992013011118204+64350+007800AUTO +0000ENDR V0201101N007212200019N9999999N1+00201-00301999999ADDMA1102301999999REMMET045METAR ENDR 111820Z AUTO 11014KT 02/M03 Q1023;
0072010231999992013011118504+64350+007800AUTO +0000ENDR V0201101N007712200019N9999999N1+00201-00301999999ADDMA1102401999999REMMET045METAR ENDR 111850Z AUTO 11015KT 02/M03 Q1024;
0072010231999992013011119204+64350+007800AUTO +0000ENDR V0201001N007712200019N9999999N1+00201-00401999999ADDMA1102301999999REMMET045METAR ENDR 111920Z AUTO 10015KT 02/M04 Q1023;
0072010231999992013011119504+64350+007800AUTO +0000ENDR V0201001N007712200019N9999999N1+00201-00301999999ADDMA1102401999999REMMET045METAR ENDR 111950Z AUTO 10015KT 02/M03 Q1024;
0072010231999992013011120204+64350+007800AUTO +0000ENDR V0201101N008212200019N9999999N1+00201-00301999999ADDMA1102401999999REMMET045METAR ENDR 112020Z AUTO 11016KT 02/M03 Q1024;
0072010231999992013011120504+64350+007800AUTO +0000ENDR V0201101N007712200019N9999999N1+00201-00301999999ADDMA1102401999999REMMET045METAR ENDR 112050Z AUTO 11015KT 02/M03 Q1024;
0072010231999992013011121204+64350+007800AUTO +0000ENDR V0201101N007712200019N9999999N1+00201-00401999999ADDMA1102401999999REMMET045METAR ENDR 112120Z AUTO 11015KT 02/M04 Q1024;
0072010231999992013011121504+64350+007800AUTO +0000ENDR V0201101N007712200019N9999999N1+00201-00401999999ADDMA1102401999999REMMET045METAR ENDR 112150Z AUTO 11015KT 02/M04 Q1024;
0072010231999992013011122204+64350+007800AUTO +0000ENDR V0201101N008212200019N9999999N1+00201-00401999999ADDMA1102401999999REMMET045METAR ENDR 112220Z AUTO 11016KT 02/M04 Q1024;
0072010231999992013011122504+64350+007800AUTO +0000ENDR V0201201N007212200019N9999999N1+00201-00301999999ADDMA1102401999999REMMET045METAR ENDR 112250Z AUTO 12014KT 02/M03 Q1024;
0072010231999992013011123204+64350+007800AUTO +0000ENDR V0201201N006712200019N9999999N1+00201-00301999999ADDMA1102401999999REMMET045METAR ENDR 112320Z AUTO 12013KT 02/M03 Q1024;
0072010231999992013011123504+64350+007800AUTO +0000ENDR V0201301N006212200019N9999999N1+00101-00301999999ADDMA1102401999999REMMET045METAR ENDR 112350Z AUTO 13012KT 01/M03 Q1024;
0072010231999992013011200204+64350+007800AUTO +0000ENDR V0201201N006212200019N9999999N1+00101-00301999999ADDMA1102401999999REMMET045METAR ENDR 120020Z AUTO 12012KT 01/M03 Q1024;
0072010231999992013011200504+64350+007800AUTO +0000ENDR V0201101N005112200019N9999999N1+00101-00301999999ADDMA1102401999999REMMET045METAR ENDR 120050Z AUTO 11010KT 01/M03 Q1024;
0072010231999992013011201204+64350+007800AUTO +0000ENDR V0201201N004612200019N9999999N1+00101-00201999999ADDMA1102401999999REMMET045METAR ENDR 120120Z AUTO 12009KT 01/M02 Q1024;
0072010231999992013011201504+64350+007800AUTO +0000ENDR V0201201N005112200019N9999999N1+00101-00301999999ADDMA1102401999999REMMET045METAR ENDR 120150Z AUTO 12010KT 01/M03 Q1024;
0072010231999992013011202204+64350+007800AUTO +0000ENDR V0201101N005112200019N9999999N1+00101-00301999999ADDMA1102401999999REMMET045METAR ENDR 120220Z AUTO 11010KT 01/M03 Q1024;
0072010231999992013011202504+64350+007800AUTO +0000ENDR V0201001N005712200019N9999999N1+00201-00301999999ADDMA1102401999999REMMET045METAR ENDR 120250Z AUTO 10011KT 02/M03 Q1024;
0072010231999992013011203204+64350+007800AUTO +0000ENDR V0201001N006712200019N9999999N1+00201-00301999999ADDMA1102401999999REMMET045METAR ENDR 120320Z AUTO 10013KT 02/M03 Q1024;
0072010231999992013011203504+64350+007800AUTO +0000ENDR V0201101N006212200019N9999999N1+00201-00301999999ADDMA1102401999999REMMET045METAR ENDR 120350Z AUTO 11012KT 02/M03 Q1024;
0072010231999992013011204204+64350+007800AUTO +0000ENDR V0201201N005712200019N9999999N1+00201-00301999999ADDMA1102401999999REMMET045METAR ENDR 120420Z AUTO 12011KT 02/M03 Q1024;
0072010231999992013011204504+64350+007800AUTO +0000ENDR V0201201N006712200019N9999999N1+00201-00301999999ADDMA1102401999999REMMET045METAR ENDR 120450Z AUTO 12013KT 02/M03 Q1024;
0072010231999992013011205204+64350+007800AUTO +0000ENDR V0201201N006212200019N9999999N1+00201-00301999999ADDMA1102401999999REMMET045METAR ENDR 120520Z AUTO 12012KT 02/M03 Q1024;
0072010231999992013011205504+64350+007800AUTO +0000ENDR V0201301N006212200019N9999999N1+00201-00301999999ADDMA1102401999999REMMET045METAR ENDR 120550Z AUTO 13012KT 02/M03 Q1024;
0073010231999992013011206204+64350+007800FM-15+0000ENDR V0201201N005719999999Y0099001N1+00201-00301999999ADDMA1102401999999REMMET046METAR ENDR 120620Z 12011KT CAVOK 02/M03 Q1024;
0072010231999992013011206504+64350+007800AUTO +0000ENDR V0201201N005712200019N9999999N1+00201-00301999999ADDMA1102401999999REMMET045METAR ENDR 120650Z AUTO 12011KT 02/M03 Q1024;
0072010231999992013011207204+64350+007800AUTO +0000ENDR V0201201N005112200019N9999999N1+00201-00201999999ADDMA1102401999999REMMET045METAR ENDR 120720Z AUTO 12010KT 02/M02 Q1024;
0072010231999992013011207504+64350+007800AUTO +0000ENDR V0201201N005112200019N9999999N1+00201-00201999999ADDMA1102511999999REMMET045METAR ENDR 120750Z AUTO 12010KT 02/M02 Q1025;
0072010231999992013011208204+64350+007800AUTO +0000ENDR V0201201N005112200019N9999999N1+00201-00301999999ADDMA1102401999999REMMET045METAR ENDR 120820Z AUTO 12010KT 02/M03 Q1024;
0072010231999992013011208504+64350+007800AUTO +0000ENDR V0201301N005112200019N9999999N1+00201-00301999999ADDMA1102511999999REMMET045METAR ENDR 120850Z AUTO 13010KT 02/M03 Q1025;
0144010231999992013011209104+64350+007800FM-15+0000ENDR V0201301N005112200019N0112651N1+00201-00301999999ADDGA1021+007501999GA2041+060001999GF104991999999999999999999MA1102511999999REMMET059METAR ENDR 120910Z 13010KT 9999 FEW025 SCT200 02/M03 Q1025;
0072010231999992013011209504+64350+007800AUTO +0000ENDR V0201401N005112200019N9999999N1+00201-00201999999ADDMA1102511999999REMMET045METAR ENDR 120950Z AUTO 14010KT 02/M02 Q1025;
0072010231999992013011210204+64350+007800AUTO +0000ENDR V0201401N004112200019N9999999N1+00201-00201999999ADDMA1102511999999REMMET045METAR ENDR 121020Z AUTO 14008KT 02/M02 Q1025;
0072010231999992013011210504+64350+007800AUTO +0000ENDR V0201301N003112200019N9999999N1+00301-00301999999ADDMA1102401999999REMMET045METAR ENDR 121050Z AUTO 13006KT 03/M03 Q1024;
0072010231999992013011211204+64350+007800AUTO +0000ENDR V0201301N002612200019N9999999N1+00301-00301999999ADDMA1102401999999REMMET045METAR ENDR 121120Z AUTO 13005KT 03/M03 Q1024;
0072010231999992013011211504+64350+007800AUTO +0000ENDR V0201601N002612200019N9999999N1+00201-00201999999ADDMA1102401999999REMMET045METAR ENDR 121150Z AUTO 16005KT 02/M02 Q1024;
0132010231999992013011212104+64350+007800FM-15+0000ENDR V0201601N002110093019N0112651N1+00201-00301999999ADDGA1071+009301999GF107991999999999999999999MA1102401999999MW1161REMMET057METAR ENDR 121210Z 16004KT 9999 VCSH BKN031 02/M03 Q1024;
0080010231999992013011212504+64350+007800AUTO +0000ENDR V0201501N001512200019N9999999N1+00301-00301999999ADDMA1102401999999REMMET053METAR ENDR 121250Z AUTO 15003KT 110V190 03/M03 Q1024;
0072010231999992013011213204+64350+007800AUTO +0000ENDR V0201201N001012200019N9999999N1+00301-00301999999ADDMA1102401999999REMMET045METAR ENDR 121320Z AUTO 12002KT 03/M03 Q1024;
0080010231999992013011213504+64350+007800AUTO +0000ENDR V0201101N002112200019N9999999N1+00301-00401999999ADDMA1102401999999REMMET053METAR ENDR 121350Z AUTO 11004KT 050V130 03/M04 Q1024;
0072010231999992013011214204+64350+007800AUTO +0000ENDR V0201301N002612200019N9999999N1+00301-00401999999ADDMA1102401999999REMMET045METAR ENDR 121420Z AUTO 13005KT 03/M04 Q1024;
0080010231999992013011214504+64350+007800AUTO +0000ENDR V0201701N001512200019N9999999N1+00301-00301999999ADDMA1102401999999REMMET053METAR ENDR 121450Z AUTO 17003KT 080V250 03/M03 Q1024;
0080010231999992013011215204+64350+007800AUTO +0000ENDR V0201701N002112200019N9999999N1+00301-00301999999ADDMA1102401999999REMMET053METAR ENDR 121520Z AUTO 17004KT 080V230 03/M03 Q1024;
0072010231999992013011215504+64350+007800AUTO +0000ENDR V0201801N002612200019N9999999N1+00301-00301999999ADDMA1102401999999REMMET045METAR ENDR 121550Z AUTO 18005KT 03/M03 Q1024;
0080010231999992013011216204+64350+007800AUTO +0000ENDR V0201501N002612200019N9999999N1+00301-00301999999ADDMA1102401999999REMMET053METAR ENDR 121620Z AUTO 15005KT 110V180 03/M03 Q1024;
0072010231999992013011216504+64350+007800AUTO +0000ENDR V0201501N002612200019N9999999N1+00301-00401999999ADDMA1102401999999REMMET045METAR ENDR 121650Z AUTO 15005KT 03/M04 Q1024;
0080010231999992013011217204+64350+007800AUTO +0000ENDR V0201601N002112200019N9999999N1+00301-00401999999ADDMA1102401999999REMMET053METAR ENDR 121720Z AUTO 16004KT 120V200 03/M04 Q1024;
0072010231999992013011217504+64350+007800AUTO +0000ENDR V0201701N002612200019N9999999N1+00301-00301999999ADDMA1102401999999REMMET045METAR ENDR 121750Z AUTO 17005KT 03/M03 Q1024;
0072010231999992013011218204+64350+007800AUTO +0000ENDR V0202001N002612200019N9999999N1+00301-00301999999ADDMA1102401999999REMMET045METAR ENDR 121820Z AUTO 20005KT 03/M03 Q1024;
0072010231999992013011218504+64350+007800AUTO +0000ENDR V0202501N002612200019N9999999N1+00301-00301999999ADDMA1102401999999REMMET045METAR ENDR 121850Z AUTO 25005KT 03/M03 Q1024;
