0207010280999992013010100004+74517+019000FM-12+0018ENBJ V0201401N007012200019N0300001N1+00211+00081098731ADDAA106000091AY101061AY201061GF101991011021008001051001MA1999999098541MD1310171+9999MW1021REMSYN088AAXX  01001 01028 11580 11407 10021 20008 39854 49873 53017 60001 70200 81250 333 91114;EQDQ01  00002PRCP06
0161010280999992013010101004+74517+019000FM-12+0018ENBJ V0201401N008012200019N0300001N1+00221+00091098771ADDAY101999AY201999GF101991011021008001001001MA1999999098581MD1210161+9999MW1021REMSYN072AAXX  01011 01028 41580 11408 10022 20009 39858 49877 52016 70200 81200;
0161010280999992013010102004+74517+019000FM-12+0018ENBJ V0201401N007010075019N0300001N1+00241+00111098811ADDAY111999AY201999GF105991051021008001001001MA1999999098621MD1210141+9999MW1031REMSYN072AAXX  01021 01028 41580 51407 10024 20011 39862 49881 52014 70310 85200;
0161010280999992013010103004+74517+019000FM-12+0018ENBJ V0201401N008010075019N0300001N1+00251+00121098831ADDAY121031AY221031GF105991051021008001001001MA1999999098641MD1210101+9999MW1021REMSYN072AAXX  01031 01028 41580 51408 10025 20012 39864 49883 52010 70222 85200;
0161010280999992013010104004+74517+019000FM-12+0018ENBJ V0201301N006012200019N0300001N1+00201+00081098891ADDAY111999AY211999GF102991021021008001001001MA1999999098691MD1310111+9999MW1011REMSYN072AAXX  01041 01028 41580 21306 10020 20008 39869 49889 53011 70111 82200;
0161010280999992013010105004+74517+019000FM-12+0018ENBJ V0201401N006012200019N0300001N1+00141+00031098901ADDAY101999AY201999GF101991011021008001001001MA1999999098701MD1210081+9999MW1011REMSYN072AAXX  01051 01028 41580 11406 10014 20003 39870 49890 52008 70100 81200;
0288010280999992013010106004+74517+019000FM-12+0018ENBJ V0201101N005012200019N0300001N1+00101-00011098941ADDAA112000091AA224002391AJ199991999999999AY111061AY201061GF103991031051008001001001IA1289KA1999N+00101MA1999999098741MD1210091+9999MW1031REMSYN106AAXX  01061 01028 11580 31105 10010 21001 39874 49894 52009 60002 70310 83500 333 20010 44999 70023 91110;EQDQ01  00002PRCP12Q02  09962SNDP  
0161010280999992013010107004+74517+019000FM-12+0018ENBJ V0201001N006012200019N0300001N1+00111+00011098931ADDAY111999AY201999GF103991031051012501001001MA1999999098731MD1210041+9999MW1021REMSYN072AAXX  01071 01028 41680 31006 10011 20001 39873 49893 52004 70210 83500;
0161010280999992013010108004+74517+019000FM-12+0018ENBJ V0201101N007010240019N0250001N1+00151+00051098961ADDAY151999AY221999GF107991031051012501071001MA1999999098761MD1210061+9999MW1501REMSYN072AAXX  01081 01028 41675 71107 10015 20005 39876 49896 52006 75052 83570;
0161010280999992013010109004+74517+019000FM-12+0018ENBJ V0200901N006010240019N0250001N1+00131+00031098991ADDAY151031AY221031GF106991031051012501071001MA1999999098791MD1210051+9999MW1511REMSYN072AAXX  01091 01028 41675 60906 10013 20003 39879 49899 52005 75152 83570;
0161010280999992013010110004+74517+019000FM-12+0018ENBJ V0200901N005010240019N0200001N1+00111+00011099011ADDAY151999AY221999GF107991031051012501071999MA1999999098811MD1210081+9999MW1511REMSYN072AAXX  01101 01028 41670 70905 10011 20001 39881 49901 52008 75152 8357/;
0161010280999992013010111004+74517+019000FM-12+0018ENBJ V0201001N005010150019N0200001N1+00091-00011099021ADDAY151999AY221999GF108991061081012501071999MA1999999098821MD1210061+9999MW1241REMSYN072AAXX  01111 01028 41670 81005 10009 21001 39882 49902 52006 72452 8687/;
0208010280999992013010112004+74517+019000FM-12+0018ENBJ V0201001N004010120019N0150001N1+00071-00021099011ADDAA106000021AY151061AY221061GF108991071081008001071999MA1999999098811MD1210031+9999MW1021SA1+0049REMSYN100AAXX  01121 01028 11565 81004 10007 21002 39881 49901 52003 69901 70252 8787/ 222// 00004 333 91108;
0161010280999992013010113004+74517+019000FM-12+0018ENBJ V0200701N003010120019N0200001N1+00061-00031099031ADDAY121999AY221999GF107991071081008001999999MA1999999098831MD1210021+9999MW1021REMSYN072AAXX  01131 01028 41570 70703 10006 21003 39883 49903 52002 70222 878//;
0161010280999992013010114004+74517+019000FM-12+0018ENBJ V0200601N004010120019N0010001N1+00051-00041099031ADDAY121999AY221999GF108991081081008001999999MA1999999098831MD1210011+9999MW1101REMSYN072AAXX  01141 01028 41510 80604 10005 21004 39883 49903 52001 71022 888//;
0161010280999992013010115004+74517+019000FM-12+0018ENBJ V0200701N004010210019N0015001N1+00011-00081099041ADDAY121031AY221031GF108991081001022501071999MA1999999098841MD1210021+9999MW1101REMSYN072AAXX  01151 01028 41815 80704 10001 21008 39884 49904 52002 71022 8807/;
0161010280999992013010116004+74517+019000FM-12+0018ENBJ V0200601N003010240019N0015001N1-00011-00091099061ADDAY121999AY221999GF108991021051004501071999MA1999999098861MD1210021+9999MW1101REMSYN072AAXX  01161 01028 41415 80603 11001 21009 39886 49906 52002 71022 8257/;
0161010280999992013010117004+74517+019000FM-12+0018ENBJ V0200501N002010042019N0010001N1+00011-00081099061ADDAY121999AY221999GF108991071051004501071999MA1999999098861MD1210031+9999MW1101REMSYN072AAXX  01171 01028 41410 80502 10001 21008 39886 49906 52003 71022 8757/;
0207010280999992013010118004+74517+019000FM-12+0018ENBJ V0203601N001010042019N0010001N1+00001-00081099071ADDAA112000021AY121061AY221061GF108991071051004501071999KA1120M+00151MA1999999098871MD1210031+9999MW1101REMSYN094AAXX  01181 01028 11410 83601 10000 21008 39887 49907 52003 69902 71022 8757/ 333 10015 91105;
0161010280999992013010119004+74517+019000FM-12+0018ENBJ V0200301N002010042019N0010001N1-00031-00101099101ADDAY121999AY221999GF108991071051004501071999MA1999999098901MD1310051+9999MW1101REMSYN072AAXX  01191 01028 41410 80302 11003 21010 39890 49910 53005 71022 8757/;
0075010280999992013010120004+74517+019000FM-12+0018ENBJ V02099999999999999999N9999999N1-00051-00121999999REMSYN066AAXX  01201 01028 41X07 93602 11005 21012 39893 49913 53007 74742;
0075010280999992013010121004+74517+019000FM-12+0018ENBJ V02099999999999999999N9999999N1-00051-00121999999REMSYN066AAXX  01211 01028 41X06 90202 11005 21012 39897 49917 52010 74744;
0075010280999992013010122004+74517+019000FM-12+0018ENBJ V02099999999999999999N9999999N1-00051-00121999999REMSYN066AAXX  01221 01028 41X06 93502 11005 21012 39898 49918 52008 74544;
0075010280999992013010123004+74517+019000FM-12+0018ENBJ V02099999999999999999N9999999N1-00061-00131999999REMSYN066AAXX  01231 01028 41X06 93202 11006 21013 39900 49920 52007 74544;
0091010280999992013010200004+74517+019000FM-12+0018ENBJ V02099999999999999999N9999999N1-00051-00121999999REMSYN082AAXX  02001 01028 11X05 92701 11005 21012 39903 49923 52006 60001 74544 333 91104;
0075010280999992013010201004+74517+019000FM-12+0018ENBJ V02099999999999999999N9999999N1-00051-00121999999REMSYN066AAXX  02011 01028 41X05 92202 11005 21012 39906 49926 52008 74554;
0161010280999992013010202004+74517+019000FM-12+0018ENBJ V0202101N003010240019N0030001N1-00041-00111099281ADDAY171999AY241999GF108991041051012501071999MA1999999099081MD1210081+9999MW1701REMSYN072AAXX  02021 01028 41630 82103 11004 21011 39908 49928 52008 77074 8457/;
0161010280999992013010203004+74517+019000FM-12+0018ENBJ V0201901N004010240019N0030001N1-00051-00121099301ADDAY171031AY241031GF108991021051012501011999MA1999999099101MD1210071+9999MW1101REMSYN072AAXX  02031 01028 41630 81904 11005 21012 39910 49930 52007 71074 8251/;
0161010280999992013010204004+74517+019000FM-12+0018ENBJ V0201801N004010150019N0100001N1-00071-00131099311ADDAY121999AY221999GF108991081081012501999999MA1999999099111MD1210051+9999MW1021REMSYN072AAXX  02041 01028 41660 81804 11007 21013 39911 49931 52005 70222 888//;
0161010280999992013010205004+74517+019000FM-12+0018ENBJ V0202001N003010042019N0030001N1-00041-00101099331ADDAY121999AY221999GF108991081061004501999999MA1999999099131MD1210051+9999MW1101REMSYN072AAXX  02051 01028 41430 82003 11004 21010 39913 49933 52005 71022 886//;
0207010280999992013010206004+74517+019000FM-12+0018ENBJ V0201901N003010042019N0030001N1+00001-00061099341ADDAA106000021AY151061AY221061GF108991081061004501999999KA1999N-00101MA1999999099141MD1210041+9999MW1241REMSYN094AAXX  02061 01028 11430 81903 10000 21006 39914 49934 52004 69921 72452 886// 333 21010 91105;
0161010280999992013010207004+74517+019000FM-12+0018ENBJ V0201701N004010090019N0030001N1+00021-00051099361ADDAY141999AY221999GF108991081081004501999999MA1999999099161MD1210051+9999MW1111REMSYN072AAXX  02071 01028 41430 81704 10002 21005 39916 49936 52005 71142 888//;
0161010280999992013010208004+74517+019000FM-12+0018ENBJ V0201701N004010090019N0200001N1-00031-00101099381ADDAY121999AY221999GF108991071081004501999999MA1999999099181MD1210051+9999MW1011REMSYN072AAXX  02081 01028 41470 81704 11003 21010 39918 49938 52005 70122 878//;
0161010280999992013010209004+74517+019000FM-12+0018ENBJ V0201701N005012200019N0200001N1-00221-00291099401ADDAY121031AY211031GF104991031081008001031001MA1999999099201MD1210061+9999MW1011REMSYN072AAXX  02091 01028 41570 41705 11022 21029 39920 49940 52006 70121 83830;
0161010280999992013010210004+74517+019000FM-12+0018ENBJ V0201601N005012200019N0200001N1-00241-00301099411ADDAY111999AY201999GF102991021081008001001001MA1999999099211MD1210051+9999MW1011REMSYN072AAXX  02101 01028 41570 21605 11024 21030 39921 49941 52005 70110 82800;
0161010280999992013010211004+74517+019000FM-12+0018ENBJ V0201601N005012200019N0200001N1-00221-00281099421ADDAY101999AY201999GF103991021081008001031001MA1999999099221MD1210041+9999MW1021REMSYN072AAXX  02111 01028 41570 31605 11022 21028 39922 49942 52004 70200 82830;
0208010280999992013010212004+74517+019000FM-12+0018ENBJ V0201601N006012200019N0200001N1-00191-00261099401ADDAA106000021AY111061AY211061GF104991031081008001031001MA1999999099201MD1010001+9999MW1031SA1+0039REMSYN100AAXX  02121 01028 11570 41606 11019 21026 39920 49940 50000 60001 70311 83830 222// 00003 333 91106;
0161010280999992013010213004+74517+019000FM-12+0018ENBJ V0201401N005012200019N0200001N1-00091-00171099391ADDAY111999AY211999GF104991031081008001031001MA1999999099191MD1710021+9999MW1021REMSYN072AAXX  02131 01028 41570 41405 11009 21017 39919 49939 57002 70211 83830;
0161010280999992013010214004+74517+019000FM-12+0018ENBJ V0201801N006010042019N0150001N1-00011-00081099411ADDAY181999AY221999GF107991071031004501999999MA1999999099211MD1710011+9999MW1801REMSYN072AAXX  02141 01028 41465 71806 11001 21008 39921 49941 57001 78082 873//;
0161010280999992013010215004+74517+019000FM-12+0018ENBJ V0201501N005012200019N0200001N1-00041-00121099371ADDAY181031AY211031GF104991031081008001031001MA1999999099171MD1810031+9999MW1011REMSYN072AAXX  02151 01028 41570 41505 11004 21012 39917 49937 58003 70181 83830;
0161010280999992013010216004+74517+019000FM-12+0018ENBJ V0201801N006010021019N0100001N1+00031-00051099361ADDAY181999AY221999GF108991081031002501999999MA1999999099161MD1810031+9999MW1831REMSYN072AAXX  02161 01028 41360 81806 10003 21005 39916 49936 58003 78382 883//;
0161010280999992013010217004+74517+019000FM-12+0018ENBJ V0201601N006010042019N0100001N1+00051-00041099321ADDAY181999AY221999GF107991071031004501999999MA1999999099121MD1710091+9999MW1831REMSYN072AAXX  02171 01028 41460 71606 10005 21004 39912 49932 57009 78382 873//;
0207010280999992013010218004+74517+019000FM-12+0018ENBJ V0201901N005012200019N0250001N1+00021-00081099311ADDAA112000891AY181061AY211061GF103991031021008001001001KA1120M+00101MA1999999099111MD1710051+9999MW1011REMSYN094AAXX  02181 01028 11575 31905 10002 21008 39911 49931 57005 69982 70181 83200 333 10010 91108;
0161010280999992013010219004+74517+019000FM-12+0018ENBJ V0202101N004012200019N0250001N1-00031-00111099321ADDAY111999AY201999GF104991041021008001001001MA1999999099121MD1610041+9999MW1021REMSYN072AAXX  02191 01028 41575 42104 11003 21011 39912 49932 56004 70210 84200;
0161010280999992013010220004+74517+019000FM-12+0018ENBJ V0202601N003010075019N0250001N1-00011-00081099321ADDAY111999AY211999GF105991051021008001001001MA1999999099121MD1410001+9999MW1031REMSYN072AAXX  02201 01028 41575 52603 11001 21008 39912 49932 54000 70311 85200;
0161010280999992013010221004+74517+019000FM-12+0018ENBJ V0202301N002012200019N0200001N1-00061-00141099341ADDAY111031AY211031GF104991041021008001001001MA1999999099141MD1210021+9999MW1021REMSYN072AAXX  02211 01028 41570 42302 11006 21014 39914 49934 52002 70211 84200;
0161010280999992013010222004+74517+019000FM-12+0018ENBJ V0202401N002010075019N0070001N1-00071-00151099331ADDAY121999AY211999GF107991071021008001999999MA1999999099131MD1210011+9999MW1101REMSYN072AAXX  02221 01028 41557 72402 11007 21015 39913 49933 52001 71021 872//;
0161010280999992013010223004+74517+019000FM-12+0018ENBJ V0202701N002010240019N0010001N1-00011-00081099321ADDAY171999AY221999GF108991041051004501021999MA1999999099121MD1410001+9999MW1701REMSYN072AAXX  02231 01028 41410 82702 11001 21008 39912 49932 54000 77072 8452/;
0188010280999992013010300004+74517+019000FM-12+0018ENBJ V0202501N002010120019N0150001N1-00051-00121099311ADDAA106000591AY181061AY271061GF106991051081008001031001MA1999999099111MD1710021+9999MW1711REMSYN088AAXX  03001 01028 11565 62502 11005 21012 39911 49931 57002 69941 77187 85830 333 91106;
0161010280999992013010301004+74517+019000FM-12+0018ENBJ V0202301N002010120019N0100001N1-00131-00201099301ADDAY181999AY271999GF108991081081008001999999MA1999999099101MD1710031+9999MW1701REMSYN072AAXX  03011 01028 41560 82302 11013 21020 39910 49930 57003 77087 888//;
0161010280999992013010302004+74517+019000FM-12+0018ENBJ V0203001N003010120019N0035001N1-00051-00121099291ADDAY181999AY271999GF108991081081008001999999MA1999999099091MD1710031+9999MW1711REMSYN072AAXX  03021 01028 41535 83003 11005 21012 39909 49929 57003 77187 888//;
0161010280999992013010303004+74517+019000FM-12+0018ENBJ V0202901N003010120019N0100001N1+00001-00091099281ADDAY171031AY221031GF108991081081008001999999MA1999999099081MD1710031+9999MW1221REMSYN072AAXX  03031 01028 41560 82903 10000 21009 39908 49928 57003 72272 888//;
0161010280999992013010304004+74517+019000FM-12+0018ENBJ V0202701N002012200019N0150001N1-00061-00161099261ADDAY121999AY211999GF104991041021008001001001MA1999999099061MD1710041+9999MW1011REMSYN072AAXX  03041 01028 41565 42702 11006 21016 39906 49926 57004 70121 84200;
0161010280999992013010305004+74517+019000FM-12+0018ENBJ V0202301N002012200019N0150001N1-00321-00421099231ADDAY101999AY201999GF102991021021008001001001MA1999999099031MD1710051+9999MW1011REMSYN072AAXX  03051 01028 41565 22302 11032 21042 39903 49923 57005 70100 82200;
0272010280999992013010306004+74517+019000FM-12+0018ENBJ V0202501N002012200019N0200001N1-00451-00531099231ADDAA112000591AA224001391AJ199991999999999AY181061AY271061GF101991011021008001001001IA1289KA1999N-00451MA1999999099031MD1710061+9999MW1011REMSYN106AAXX  03061 01028 11570 12502 11045 21053 39903 49923 57006 69942 70187 81200 333 21045 44999 70012 91104;EQDQ01  09962SNDP  
0161010280999992013010308004+74517+019000FM-12+0018ENBJ V0200901N001012200019N0200001N1-00531-00601099241ADDAY101999AY201999GF102991021081008001001001MA1999999099041MD1410001+9999MW1031REMSYN072AAXX  03081 01028 41570 20901 11053 21060 39904 49924 54001 70300 82800;
0161010280999992013010309004+74517+019000FM-12+0018ENBJ V0201701N001012200019N0200001N1-00591-00651099261ADDAY101031AY201031GF103991021081008001061001MA1999999099061MD1310031+9999MW1031REMSYN072AAXX  03091 01028 41570 31701 11059 21065 39906 49926 53003 70300 82860;
0161010280999992013010310004+74517+019000FM-12+0018ENBJ V0202201N001010240019N0150001N1-00491-00561099271ADDAY121999AY211999GF105991031081008001061001MA1999999099071MD1210041+9999MW1031REMSYN072AAXX  03101 01028 41565 52201 11049 21056 39907 49927 52004 70321 83860;
0161010280999992013010311004+74517+019000FM-12+0018ENBJ V0202501N002012200019N0200001N1-00541-00611099261ADDAY111021AY211021GF104991031081008001051001MA1999999099061MD1010021+9999MW1011REMSYN072AAXX  03111 01028 41570 42502 11054 21061 39906 49926 50002 70111 83850;
0227010280999992013010312004+74517+019000FM-12+0018ENBJ V0202501N001012200019N0300001N1-00621-00691099271ADDAA106000091AY111061AY201061GF104991011051008001001081MA1999999099071MD1210011+9999MW1021SA1+0039REMSYN100AAXX  03121 01028 11580 42501 11062 21069 39907 49927 52001 60001 70210 81508 222// 00003 333 91102;EQDQ01  00002PRCP06
0161010280999992013010313004+74517+019000FM-12+0018ENBJ V0202201N002012200019N0300001N1-00641-00701099281ADDAY101999AY201999GF101991011051008001001081MA1999999099081MD1210021+9999MW1011REMSYN072AAXX  03131 01028 41580 12202 11064 21070 39908 49928 52002 70100 81508;
0161010280999992013010314004+74517+019000FM-12+0018ENBJ V0202501N001012200019N0300001N1-00611-00671099311ADDAY101999AY201999GF101991011051008001001001MA1999999099111MD1210041+9999MW1021REMSYN072AAXX  03141 01028 41580 12501 11061 21067 39911 49931 52004 70200 81500;
0161010280999992013010315004+74517+019000FM-12+0018ENBJ V0201801N001012200019N0300001N1-00601-00651099331ADDAY101031AY201031GF101991011051008001001001MA1999999099131MD1210061+9999MW1021REMSYN072AAXX  03151 01028 41580 11801 11060 21065 39913 49933 52006 70200 81500;
0171010280999992013010316004+74517+019000FM-12+0018ENBJ V0201901N002012200019N0300001N1-00521-00581099331ADDAY101999AY201999GA1001+999999999GF100991001001999999001001MA1999999099131MD1210051+9999MW1021REMSYN066AAXX  03161 01028 41980 01902 11052 21058 39913 49933 52005 70200;
0171010280999992013010317004+74517+019000FM-12+0018ENBJ V0201901N003012200019N0300001N1-00651-00711099341ADDAY101999AY201999GA1001+999999999GF100991001001999999001001MA1999999099141MD1210031+9999MW1021REMSYN066AAXX  03171 01028 41980 01903 11065 21071 39914 49934 52003 70200;
0236010280999992013010318004+74517+019000FM-12+0018ENBJ V0201801N002012200019N0300001N1-00601-00661099341ADDAA106000091AY101061AY201061GA1001+999999999GF100991001001999999001001KA1120M-00441MA1999999099141MD1410001+9999MW1021REMSYN088AAXX  03181 01028 11980 01802 11060 21066 39914 49934 54000 69901 70200 333 11044 91104;EQDQ01  00002PRCP06
0171010280999992013010319004+74517+019000FM-12+0018ENBJ V0201301N003012200019N0300001N1-00541-00611099341ADDAY101999AY201999GA1001+999999999GF100991001001999999001001MA1999999099141MD1410001+9999MW1021REMSYN066AAXX  03191 01028 41980 01303 11054 21061 39914 49934 54000 70200;
0161010280999992013010320004+74517+019000FM-12+0018ENBJ V0201901N005012200019N0300001N1-00491-00551099361ADDAY101999AY201999GF103991021051008001001081MA1999999099161MD1310031+9999MW1031REMSYN072AAXX  03201 01028 41580 31905 11049 21055 39916 49936 53003 70300 82508;
0161010280999992013010321004+74517+019000FM-12+0018ENBJ V0201801N005012200019N0200001N1-00551-00621099381ADDAY101031AY201031GF101991011051008001001001MA1999999099181MD1210051+9999MW1011REMSYN072AAXX  03211 01028 41570 11805 11055 21062 39918 49938 52005 70100 81500;
0161010280999992013010322004+74517+019000FM-12+0018ENBJ V0201701N006012200019N0200001N1-00581-00651099371ADDAY101999AY201999GF101991011051008001001001MA1999999099171MD1010041+9999MW1021REMSYN072AAXX  03221 01028 41570 11706 11058 21065 39917 49937 50004 70200 81500;
0161010280999992013010323004+74517+019000FM-12+0018ENBJ V0201701N007012200019N0200001N1-00411-00481099401ADDAY101999AY201999GF101991011051008001001001MA1999999099201MD1310041+9999MW1021REMSYN072AAXX  03231 01028 41570 11707 11041 21048 39920 49940 53004 70200 81500;
0207010280999992013010400004+74517+019000FM-12+0018ENBJ V0201101N005012200019N0200001N1-00511-00581099371ADDAA106000091AY101061AY201061GF102991021051008001001001MA1999999099171MD1010011+9999MW1031REMSYN088AAXX  04001 01028 11570 21105 11051 21058 39917 49937 50001 60001 70300 82500 333 91109;EQDQ01  00002PRCP06
0161010280999992013010401004+74517+019000FM-12+0018ENBJ V0201501N005012200019N0200001N1-00611-00691099381ADDAY101999AY201999GF102991021051008001001001MA1999999099181MD1010001+9999MW1021REMSYN072AAXX  04011 01028 41570 21505 11061 21069 39918 49938 50000 70200 82500;
0161010280999992013010402004+74517+019000FM-12+0018ENBJ V0201001N004012200019N0100001N1-00481-00561099381ADDAY101999AY201999GF103991011081008001011001MA1999999099181MD1510021+9999MW1031REMSYN072AAXX  04021 01028 41560 31004 11048 21056 39918 49938 55002 70300 81810;
0161010280999992013010403004+74517+019000FM-12+0018ENBJ V0200601N004012200019N0100001N1-00251-00321099441ADDAY101031AY201031GF103991031051008001001001MA1999999099241MD1310071+9999MW1021REMSYN072AAXX  04031 01028 41560 30604 11025 21032 39924 49944 53007 70200 83500;
0161010280999992013010404004+74517+019000FM-12+0018ENBJ V0200201N003012200019N0200001N1-00181-00251099531ADDAY101999AY201999GF103991031081008001001001MA1999999099331MD1310151+9999MW1021REMSYN072AAXX  04041 01028 41570 30203 11018 21025 39933 49953 53015 70200 83800;
0161010280999992013010405004+74517+019000FM-12+0018ENBJ V0203601N005012200019N0200001N1-00061-00141099631ADDAY101999AY201999GF103991021081008001061001MA1999999099431MD1310251+9999MW1021REMSYN072AAXX  04051 01028 41570 33605 11006 21014 39943 49963 53025 70200 82860;
0271010280999992013010406004+74517+019000FM-12+0018ENBJ V0203301N005012200019N0200001N1-00071-00151099701ADDAA112000091AJ199991999999999AY101061AY201061GF103991021081008001061001IA1289KA1999N-00681MA1999999099501MD1210261+9999MW1021REMSYN100AAXX  04061 01028 11570 33305 11007 21015 39950 49970 52026 60002 70200 82860 333 21068 44999 91107;EQDQ01  00002PRCP12Q02  09962SNDP  
0161010280999992013010408004+74517+019000FM-12+0018ENBJ V0203501N005010090019N0100001N1-00061-00141099881ADDAY181999AY211999GF107991071081004501999999MA1999999099681MD1310261+9999MW1851REMSYN072AAXX  04081 01028 41460 73505 11006 21014 39968 49988 53026 78581 878//;
0101010280999992013010409004+74517+019000FM-12+0018ENBJ V0200101N007019999999N9999999N1-00021-00091100001ADDMA1999999099801MD1310311+9999REMSYN060AAXX  04091 01028 46/// /0107 11002 21009 39980 40000 53031;
0101010280999992013010410004+74517+019000FM-12+0018ENBJ V0200201N007019999999N9999999N1-00061-00141100121ADDMA1999999099921MD1310331+9999REMSYN060AAXX  04101 01028 46/// /0207 11006 21014 39992 40012 53033;
0161010280999992013010411004+74517+019000FM-12+0018ENBJ V0200201N006012200019N0200001N1-00031-00121100241ADDAY121999AY201999GF103991031081008001001001MA1999999100041MD1310361+9999MW1011REMSYN072AAXX  04111 01028 41570 30206 11003 21012 30004 40024 53036 70120 83800;
0208010280999992013010412004+74517+019000FM-12+0018ENBJ V0200201N006012200019N0200001N1-00051-00151100361ADDAA106000591AY101061AY201061GF103991031081008001001001MA1999999100161MD1310361+9999MW1021SA1+0009REMSYN100AAXX  04121 01028 11570 30206 11005 21015 30016 40036 53036 69941 70200 83800 222// 00000 333 91110;
0101010280999992013010413004+74517+019000FM-12+0018ENBJ V0200301N006019999999N9999999N1-00081-00191100491ADDMA1999999100291MD1310371+9999REMSYN060AAXX  04131 01028 46/// /0306 11008 21019 30029 40049 53037;
0101010280999992013010414004+74517+019000FM-12+0018ENBJ V0200201N005019999999N9999999N1-00111-00231100591ADDMA1999999100391MD1210351+9999REMSYN060AAXX  04141 01028 46/// /0205 11011 21023 30039 40059 52035;
0161010280999992013010415004+74517+019000FM-12+0018ENBJ V0203601N004012200019N0200001N1-00091-00231100711ADDAY101031AY201031GF102991021081008001001001MA1999999100511MD1310341+9999MW1021REMSYN072AAXX  04151 01028 41570 23604 11009 21023 30051 40071 53034 70200 82800;
0161010280999992013010416004+74517+019000FM-12+0018ENBJ V0203501N004012200019N0200001N1-00061-00211100801ADDAY101999AY201999GF101991011081008001001001MA1999999100601MD1210311+9999MW1011REMSYN072AAXX  04161 01028 41570 13504 11006 21021 30060 40080 52031 70100 81800;
0171010280999992013010417004+74517+019000FM-12+0018ENBJ V0203401N005012200019N0300001N1-00061-00231100891ADDAY101999AY201999GA1001+999999999GF100991001001999999001001MA1999999100691MD1210301+9999MW1011REMSYN066AAXX  04171 01028 41980 03405 11006 21023 30069 40089 52030 70100;
0217010280999992013010418004+74517+019000FM-12+0018ENBJ V0203501N004012200019N0300001N1-00061-00221100941ADDAA112000591AY101061AY201061GA1001+999999999GF100991001001999999001001KA1120M-00021MA1999999100741MD1110241+9999MW1021REMSYN088AAXX  04181 01028 11980 03504 11006 21022 30074 40094 51024 69942 70200 333 11002 91108;
0171010280999992013010419004+74517+019000FM-12+0018ENBJ V0203401N004012200019N0300001N1-00061-00231101041ADDAY101999AY201999GA1001+999999999GF100991001001999999001001MA1999999100841MD1310241+9999MW1021REMSYN066AAXX  04191 01028 41980 03404 11006 21023 30084 40104 53024 70200;
0171010280999992013010420004+74517+019000FM-12+0018ENBJ V0200101N003012200019N0300001N1-00071-00241101131ADDAY101999AY201999GA1001+999999999GF100991001001999999001001MA1999999100931MD1310241+9999MW1021REMSYN066AAXX  04201 01028 41980 00103 11007 21024 30093 40113 53024 70200;
0171010280999992013010421004+74517+019000FM-12+0018ENBJ V0201401N002012200019N0300001N1-00621-00751101221ADDAY101031AY201031GA1001+999999999GF100991001001999999001001MA1999999101011MD1310271+9999MW1021REMSYN066AAXX  04211 01028 41980 01402 11062 21075 30101 40122 53027 70200;
0171010280999992013010422004+74517+019000FM-12+0018ENBJ V0201601N002012200019N0300001N1-00571-00671101291ADDAY101999AY201999GA1001+999999999GF100991001001999999001001MA1999999101081MD1310251+9999MW1021REMSYN066AAXX  04221 01028 41980 01602 11057 21067 30108 40129 53025 70200;
0171010280999992013010423004+74517+019000FM-12+0018ENBJ V0201601N003012200019N0300001N1-00571-00671101361ADDAY101999AY201999GA1001+999999999GF100991001001999999001001MA1999999101151MD1210231+9999MW1021REMSYN066AAXX  04231 01028 41980 01603 11057 21067 30115 40136 52023 70200;
0217010280999992013010500004+74517+019000FM-12+0018ENBJ V0201301N002012200019N0300001N1-00531-00641101391ADDAA106000091AY101061AY201061GA1001+999999999GF100991001001999999001001MA1999999101181MD1110171+9999MW1021REMSYN082AAXX  05001 01028 11980 01302 11053 21064 30118 40139 51017 60001 70200 333 91105;EQDQ01  00002PRCP06
0171010280999992013010501004+74517+019000FM-12+0018ENBJ V0201601N003012200019N0300001N1-00641-00751101451ADDAY101999AY201999GA1001+999999999GF100991001001999999001001MA1999999101241MD1210161+9999MW1021REMSYN066AAXX  05011 01028 41980 01603 11064 21075 30124 40145 52016 70200;
0171010280999992013010502004+74517+019000FM-12+0018ENBJ V0201501N004012200019N0300001N1-00731-00841101511ADDAY101999AY201999GA1001+999999999GF100991001001999999001001MA1999999101301MD1310151+9999MW1021REMSYN066AAXX  05021 01028 41980 01504 11073 21084 30130 40151 53015 70200;
0161010280999992013010503004+74517+019000FM-12+0018ENBJ V0201401N002012200019N0300001N1-00571-00681101551ADDAY101031AY201031GF101991011051012501001001MA1999999101341MD1210161+9999MW1021REMSYN072AAXX  05031 01028 41680 11402 11057 21068 30134 40155 52016 70200 81500;
0161010280999992013010504004+74517+019000FM-12+0018ENBJ V0201201N003012200019N0300001N1-00591-00731101581ADDAY101999AY201999GF101991011051012501001001MA1999999101371MD1210131+9999MW1021REMSYN072AAXX  05041 01028 41680 11203 11059 21073 30137 40158 52013 70200 81500;
0101010280999992013010505004+74517+019000FM-12+0018ENBJ V0201501N003019999999N9999999N1-00581-00731101641ADDMA1999999101431MD1310131+9999REMSYN060AAXX  05051 01028 46/// /1503 11058 21073 30143 40164 53013;
0255010280999992013010506004+74517+019000FM-12+0018ENBJ V0201201N004012200019N0300001N1-00471-00651101681ADDAA112000091AA224000591AY101061AY201061GF101991011051008001001011IA1289KA1999N-00751MA1999999101471MD1210131+9999MW1021REMSYN106AAXX  05061 01028 11580 11204 11047 21065 30147 40168 52013 60002 70200 81501 333 21075 44/// 70004 91104;EQDQ01  00002PRCP12
0161010280999992013010507004+74517+019000FM-12+0018ENBJ V0201201N005012200019N0300001N1-00651-00821101701ADDAY101999AY201999GF101991011051008001071001MA1999999101491MD1210121+9999MW1021REMSYN072AAXX  05071 01028 41580 11205 11065 21082 30149 40170 52012 70200 81570;
0161010280999992013010508004+74517+019000FM-12+0018ENBJ V0201101N006012200019N0300001N1-00681-00801101731ADDAY101999AY201999GF101991011051008001001001MA1999999101521MD1310091+9999MW1021REMSYN072AAXX  05081 01028 41580 11106 11068 21080 30152 40173 53009 70200 81500;
0161010280999992013010509004+74517+019000FM-12+0018ENBJ V0201101N006012200019N0300001N1-00601-00721101791ADDAY101031AY201031GF101991011051008001001001MA1999999101581MD1310111+9999MW1021REMSYN072AAXX  05091 01028 41580 11106 11060 21072 30158 40179 53011 70200 81500;
0161010280999992013010510004+74517+019000FM-12+0018ENBJ V0201201N006012200019N0300001N1-00641-00761101801ADDAY101999AY201999GF102991011051004501031001MA1999999101591MD1010101+9999MW1021REMSYN072AAXX  05101 01028 41480 21206 11064 21076 30159 40180 50010 70200 81530;
0161010280999992013010511004+74517+019000FM-12+0018ENBJ V0201201N006012200019N0300001N1-00531-00641101821ADDAY101999AY201999GF103991021051004501031001MA1999999101611MD1110101+9999MW1031REMSYN072AAXX  05111 01028 41480 31206 11053 21064 30161 40182 51010 70300 82530;
0227010280999992013010512004+74517+019000FM-12+0018ENBJ V0201101N008012200019N0300001N1-00291-00431101821ADDAA106000091AY101061AY201061GF103991021051008001031001MA1999999101621MD1210041+9999MW1021SA1-0029REMSYN100AAXX  05121 01028 11580 31108 11029 21043 30162 40182 52004 60001 70200 82530 222// 01002 333 91109;EQDQ01  00002PRCP06
0161010280999992013010513004+74517+019000FM-12+0018ENBJ V0201001N008012200019N0300001N1-00191-00351101811ADDAY101999AY201999GF103991021051008001031001MA1999999101611MD1010021+9999MW1021REMSYN072AAXX  05131 01028 41580 31008 11019 21035 30161 40181 50002 70200 82530;
0161010280999992013010514004+74517+019000FM-12+0018ENBJ V0201101N007012200019N0200001N1-00191-00351101781ADDAY111999AY201999GF104991031051008001031001MA1999999101581MD1810031+9999MW1031REMSYN072AAXX  05141 01028 41570 41107 11019 21035 30158 40178 58003 70310 83530;
0161010280999992013010515004+74517+019000FM-12+0018ENBJ V0201201N007012200019N0200001N1-00141-00301101731ADDAY111031AY201031GF104991031051012501031001MA1999999101531MD1810091+9999MW1021REMSYN072AAXX  05151 01028 41670 41207 11014 21030 30153 40173 58009 70210 83530;
0161010280999992013010516004+74517+019000FM-12+0018ENBJ V0201101N008012200019N0200001N1-00011-00211101661ADDAY111999AY211999GF104991041081012501001001MA1999999101461MD1810141+9999MW1021REMSYN072AAXX  05161 01028 41670 41108 11001 21021 30146 40166 58014 70211 84800;
0161010280999992013010517004+74517+019000FM-12+0018ENBJ V0201301N009012200019N0200001N1+00031-00191101621ADDAY111999AY211999GF104991041081008001001001MA1999999101421MD1710161+9999MW1021REMSYN072AAXX  05171 01028 41570 41309 10003 21019 30142 40162 57016 70211 84800;
0226010280999992013010518004+74517+019000FM-12+0018ENBJ V0201401N011012200019N0200001N1+00091-00101101561ADDAA112000091AY111061AY201061GF104991041081008001001001KA1120M+00091MA1999999101361MD1810171+9999MW1021REMSYN094AAXX  05181 01028 11570 41411 10009 21010 30136 40156 58017 60002 70210 84800 333 10009 91114;EQDQ01  00002PRCP12
0161010280999992013010519004+74517+019000FM-12+0018ENBJ V0201401N011010090019N0150001N1+00141-00031101501ADDAY151999AY221999GF106991061081004501001001MA1999999101301MD1810161+9999MW1501REMSYN072AAXX  05191 01028 41465 61411 10014 21003 30130 40150 58016 75052 86800;
0161010280999992013010520004+74517+019000FM-12+0018ENBJ V0201401N012010090019N0110001N1+00181+00011101391ADDAY151999AY221999GF107991071081004501999999MA1999999101191MD1810241+9999MW1511REMSYN072AAXX  05201 01028 41461 71412 10018 20001 30119 40139 58024 75152 878//;
0161010280999992013010521004+74517+019000FM-12+0018ENBJ V0201401N012010090019N0110001N1+00161+00011101281ADDAY161031AY251031GF108991051081004501021999MA1999999101081MD1810281+9999MW1611REMSYN072AAXX  05211 01028 41461 81412 10016 20001 30108 40128 58028 76165 8582/;
0161010280999992013010522004+74517+019000FM-12+0018ENBJ V0201501N012010090019N0110001N1+00201+00061101201ADDAY161999AY251999GF108991051081004501021999MA1999999101001MD1710301+9999MW1511REMSYN072AAXX  05221 01028 41461 81512 10020 20006 30100 40120 57030 75165 8582/;
0161010280999992013010523004+74517+019000FM-12+0018ENBJ V0201401N010010090019N0150001N1+00211+00071101111ADDAY151999AY221999GF106991061081004501001001MA1999999100911MD1710271+9999MW1011REMSYN072AAXX  05231 01028 41465 61410 10021 20007 30091 40111 57027 70152 86800;
0188010280999992013010600004+74517+019000FM-12+0018ENBJ V0201501N012010120019N0150001N1+00231+00081100991ADDAA106000021AY161061AY251061GF108991081081008001999999MA1999999100791MD1810291+9999MW1021REMSYN088AAXX  06001 01028 11565 81512 10023 20008 30079 40099 58029 69901 70265 888// 333 91116;
0161010280999992013010601004+74517+019000FM-12+0018ENBJ V0201501N011010120019N0180001N1+00251+00101100921ADDAY121999AY221999GF108991081081008001999999MA1999999100721MD1710281+9999MW1021REMSYN072AAXX  06011 01028 41568 81511 10025 20010 30072 40092 57028 70222 888//;
0161010280999992013010602004+74517+019000FM-12+0018ENBJ V0201601N015010120019N0150001N1+00341+00121100811ADDAY161999AY221999GF108991081051012501999999MA1999999100611MD1710301+9999MW1601REMSYN072AAXX  06021 01028 41665 81615 10034 20012 30061 40081 57030 76062 885//;
0161010280999992013010603004+74517+019000FM-12+0018ENBJ V0201601N015010042019N0150001N1+00301+00081100731ADDAY161031AY221031GF108991071051004501021999MA1999999100531MD1710261+9999MW1601REMSYN072AAXX  06031 01028 41465 81615 10030 20008 30053 40073 57026 76062 8752/;
0161010280999992013010604004+74517+019000FM-12+0018ENBJ V0201601N016010240019N0100001N1+00251+00051100621ADDAY161999AY261999GF108991021071004501021999MA1999999100421MD1810301+9999MW1631REMSYN072AAXX  06041 01028 41460 81616 10025 20005 30042 40062 58030 76366 8272/;
0161010280999992013010605004+74517+019000FM-12+0018ENBJ V0201601N016010240019N0100001N1+00231+00061100521ADDAY161999AY261999GF108991021071004501021999MA1999999100321MD1710291+9999MW1631REMSYN072AAXX  06051 01028 41460 81616 10023 20006 30032 40052 57029 76366 8272/;
0236010280999992013010606004+74517+019000FM-12+0018ENBJ V0201601N016010240019N0100001N1+00241+00071100411ADDAA112000591AA224000591AY161061AY221061GF108991021071004501021999IA1289KA1999N+00091MA1999999100211MD1710321+9999MW1631REMSYN106AAXX  06061 01028 11460 81616 10024 20007 30021 40041 57032 69942 76362 8272/ 333 20009 44/// 70004 91122;
0161010280999992013010607004+74517+019000FM-12+0018ENBJ V0201601N017010240019N0100001N1+00241+00081100351ADDAY161999AY261999GF108991021071004501021999MA1999999100151MD1610281+9999MW1631REMSYN072AAXX  06071 01028 41460 81617 10024 20008 30015 40035 56028 76366 8272/;
0161010280999992013010608004+74517+019000FM-12+0018ENBJ V0201701N018010240019N0090001N1+00251+00091100271ADDAY161999AY261999GF108991031071004501021999MA1999999100071MD1610251+9999MW1631REMSYN072AAXX  06081 01028 41459 81718 10025 20009 30007 40027 56025 76366 8372/;
0161010280999992013010609004+74517+019000FM-12+0018ENBJ V0201601N018010240019N0080001N1+00281+00131100191ADDAY161031AY261031GF108991041071004501021999MA1999999099991MD1810231+9999MW1631REMSYN072AAXX  06091 01028 41458 81618 10028 20013 39999 40019 58023 76366 8472/;
0161010280999992013010610004+74517+019000FM-12+0018ENBJ V0201701N016010240019N0080001N1+00301+00181100141ADDAY161999AY261999GF108991031071004501021999MA1999999099941MD1710201+9999MW1631REMSYN072AAXX  06101 01028 41458 81716 10030 20018 39994 40014 57020 76366 8372/;
0161010280999992013010611004+74517+019000FM-12+0018ENBJ V0201701N015010240019N0020001N1+00291+00181100091ADDAY161999AY261999GF108991031071004501021999MA1999999099891MD1610191+9999MW1611REMSYN072AAXX  06111 01028 41420 81715 10029 20018 39989 40009 56019 76166 8372/;
0188010280999992013010612004+74517+019000FM-12+0018ENBJ V0201701N014010240019N0020001N1+00311+00211100031ADDAA106003091AY161061AY261061GF108991031071002501021999MA1999999099831MD1710161+9999MW1611REMSYN088AAXX  06121 01028 11320 81714 10031 20021 39983 40003 57016 60031 76166 8372/ 333 91123;
0161010280999992013010613004+74517+019000FM-12+0018ENBJ V0201701N014010240019N0030001N1+00331+00231099961ADDAY161999AY261999GF108991031071002501021999MA1999999099761MD1710181+9999MW1611REMSYN072AAXX  06131 01028 41330 81714 10033 20023 39976 49996 57018 76166 8372/;
0161010280999992013010614004+74517+019000FM-12+0018ENBJ V0201701N013010240019N0040001N1+00351+00251099911ADDAY161999AY261999GF108991031071004501021999MA1999999099711MD1710181+9999MW1611REMSYN072AAXX  06141 01028 41440 81713 10035 20025 39971 49991 57018 76166 8372/;
0161010280999992013010615004+74517+019000FM-12+0018ENBJ V0201701N014010240019N0020001N1+00361+00261099831ADDAY161031AY261031GF108991031071002501021999MA1999999099631MD1710191+9999MW1611REMSYN072AAXX  06151 01028 41320 81714 10036 20026 39963 49983 57019 76166 8372/;
0161010280999992013010616004+74517+019000FM-12+0018ENBJ V0201701N014010240019N0030001N1+00351+00251099751ADDAY161999AY261999GF108991031071002501021999MA1999999099551MD1710211+9999MW1631REMSYN072AAXX  06161 01028 41330 81714 10035 20025 39955 49975 57021 76366 8372/;
0161010280999992013010617004+74517+019000FM-12+0018ENBJ V0201701N014010240019N0040001N1+00351+00261099681ADDAY161999AY261999GF108991031071004501021999MA1999999099481MD1710221+9999MW1631REMSYN072AAXX  06171 01028 41440 81714 10035 20026 39948 49968 57022 76366 8372/;
0207010280999992013010618004+74517+019000FM-12+0018ENBJ V0201701N013010240019N0025001N1+00351+00261099661ADDAA112006191AY161061AY261061GF108991031071004501021999KA1120M+00381MA1999999099461MD1610171+9999MW1631REMSYN094AAXX  06181 01028 11425 81713 10035 20026 39946 49966 56017 60062 76366 8372/ 333 10038 91118;
0161010280999992013010619004+74517+019000FM-12+0018ENBJ V0201801N010010240019N0020001N1+00261+00171099671ADDAY161999AY221999GF108991031071008001021999MA1999999099471MD1510081+9999MW1101REMSYN072AAXX  06191 01028 41520 81810 10026 20017 39947 49967 55008 71062 8372/;
0161010280999992013010620004+74517+019000FM-12+0018ENBJ V0201901N008010240019N0025001N1+00211+00131099681ADDAY121999AY221999GF107991031071004501021001MA1999999099481MD1510011+9999MW1101REMSYN072AAXX  06201 01028 41425 71908 10021 20013 39948 49968 55001 71022 83720;
0161010280999992013010621004+74517+019000FM-12+0018ENBJ V0202201N009010240019N0010001N1+00281+00201099751ADDAY161031AY221031GF108991031071004501021999MA1999999099551MD1310101+9999MW1601REMSYN072AAXX  06211 01028 41410 82209 10028 20020 39955 49975 53010 76062 8372/;
0161010280999992013010622004+74517+019000FM-12+0018ENBJ V0202601N009010240019N0025001N1+00231+00151099891ADDAY161999AY251999GF108991031071004501021999MA1999999099691MD1310221+9999MW1501REMSYN072AAXX  06221 01028 41425 82609 10023 20015 39969 49989 53022 75065 8372/;
0161010280999992013010623004+74517+019000FM-12+0018ENBJ V0202601N010010240019N0050001N1+00221+00101100031ADDAY151999AY221999GF108991021071008001021999MA1999999099831MD1310351+9999MW1201REMSYN072AAXX  06231 01028 41550 82610 10022 20010 39983 40003 53035 72052 8272/;
0188010280999992013010700004+74517+019000FM-12+0018ENBJ V0202601N010010240019N0040001N1+00201+00071100151ADDAA106000021AY161061AY261061GF108991021071004501021999MA1999999099951MD1210411+9999MW1201REMSYN088AAXX  07001 01028 11440 82610 10020 20007 39995 40015 52041 69911 72066 8272/ 333 91116;
0161010280999992013010701004+74517+019000FM-12+0018ENBJ V0202601N011010240019N0040001N1+00201+00051100271ADDAY121999AY221999GF108991021071004501021999MA1999999100071MD1210381+9999MW1101REMSYN072AAXX  07011 01028 41440 82611 10020 20005 30007 40027 52038 71022 8272/;
0161010280999992013010702004+74517+019000FM-12+0018ENBJ V0202601N010010240019N0050001N1+00171-00021100381ADDAY121999AY221999GF107991021071004501021999MA1999999100181MD1210351+9999MW1101REMSYN072AAXX  07021 01028 41450 72610 10017 21002 30018 40038 52035 71022 8272/;
0161010280999992013010703004+74517+019000FM-12+0018ENBJ V0202401N009012200019N0120001N1+00201+00011100441ADDAY121031AY211031GF103991031081008001001001MA1999999100241MD1110291+9999MW1011REMSYN072AAXX  07031 01028 41562 32409 10020 20001 30024 40044 51029 70121 83800;
0161010280999992013010704004+74517+019000FM-12+0018ENBJ V0202201N007012200019N0120001N1+00171-00011100431ADDAY111999AY211999GF104991041051012501001001MA1999999100231MD1110151+9999MW1031REMSYN072AAXX  07041 01028 41662 42207 10017 21001 30023 40043 51015 70311 84500;
0161010280999992013010705004+74517+019000FM-12+0018ENBJ V0202201N009012200019N0150001N1+00201+00021100411ADDAY111999AY211999GF103991031051012501001001MA1999999100211MD1010021+9999MW1011REMSYN072AAXX  07051 01028 41665 32209 10020 20002 30021 40041 50002 70111 83500;
0272010280999992013010706004+74517+019000FM-12+0018ENBJ V0202301N009012200019N0100001N1+00191+00031100421ADDAA112000021AA224006191AJ199991999999999AY151061AY211061GF104991041051008001001001IA1309KA1999N+00161MA1999999100221MD1510021+9999MW1501REMSYN106AAXX  07061 01028 11560 42309 10019 20003 30022 40042 55002 69912 75051 84500 333 20016 42999 70061 91115;EQDQ01  09962SNDP  
0161010280999992013010707004+74517+019000FM-12+0018ENBJ V0202401N009012200019N0150001N1+00211-00051100461ADDAY151999AY201999GF102991021051008001001001MA1999999100261MD1310041+9999MW1011REMSYN072AAXX  07071 01028 41565 22409 10021 21005 30026 40046 53004 70150 82500;
0161010280999992013010708004+74517+019000FM-12+0018ENBJ V0202301N009010075019N0250001N1+00191-00091100511ADDAY121999AY211999GF106991061051008001001001MA1999999100311MD1310101+9999MW1031REMSYN072AAXX  07081 01028 41575 62309 10019 21009 30031 40051 53010 70321 86500;
0161010280999992013010709004+74517+019000FM-12+0018ENBJ V0202201N008012200019N0250001N1+00181-00101100491ADDAY111031AY211031GF103991031051008001031001MA1999999100291MD1010071+9999MW1011REMSYN072AAXX  07091 01028 41575 32208 10018 21010 30029 40049 50007 70111 83530;
0161010280999992013010710004+74517+019000FM-12+0018ENBJ V0202201N011010075019N0250001N1+00171-00071100511ADDAY121999AY211999GF107991051051008001031999MA1999999100311MD1110051+9999MW1031REMSYN072AAXX  07101 01028 41575 72211 10017 21007 30031 40051 51005 70321 8553/;
0161010280999992013010711004+74517+019000FM-12+0018ENBJ V0202301N009010075019N0250001N1+00181-00051100501ADDAY121999AY221999GF107991071051008001999999MA1999999100301MD1410001+9999MW1021REMSYN072AAXX  07111 01028 41575 72309 10018 21005 30030 40050 54001 70222 875//;
0208010280999992013010712004+74517+019000FM-12+0018ENBJ V0202301N010010075019N0250001N1+00211-00061100491ADDAA106000021AY151061AY221061GF105991051051008001001001MA1999999100291MD1010001+9999MW1011SA1+0059REMSYN100AAXX  07121 01028 11575 52310 10021 21006 30029 40049 50000 69901 70152 85500 222// 00005 333 91117;
0161010280999992013010713004+74517+019000FM-12+0018ENBJ V0202201N009010120019N0250001N1+00171-00061100501ADDAY121999AY221999GF105991051081008001001001MA1999999100301MD1410001+9999MW1021REMSYN072AAXX  07131 01028 41575 52209 10017 21006 30030 40050 54001 70222 85800;
0161010280999992013010714004+74517+019000FM-12+0018ENBJ V0202301N011010150019N0250001N1+00241-00121100501ADDAY121999AY221999GF106991061081012501001001MA1999999100301MD1410001+9999MW1031REMSYN072AAXX  07141 01028 41675 62311 10024 21012 30030 40050 54000 70322 86800;
0161010280999992013010715004+74517+019000FM-12+0018ENBJ V0202301N009010150019N0250001N1+00221-00161100511ADDAY121031AY221031GF106991061081012501001001MA1999999100311MD1210021+9999MW1021REMSYN072AAXX  07151 01028 41675 62309 10022 21016 30031 40051 52002 70222 86800;
0161010280999992013010716004+74517+019000FM-12+0018ENBJ V0202401N009010120019N0250001N1+00191-00181100531ADDAY121999AY221999GF105991051051012501001001MA1999999100331MD1210031+9999MW1011REMSYN072AAXX  07161 01028 41675 52409 10019 21018 30033 40053 52003 70122 85500;
0161010280999992013010717004+74517+019000FM-12+0018ENBJ V0202401N010012200019N0250001N1+00171-00211100541ADDAY121999AY201999GF102991021051012501001001MA1999999100341MD1210051+9999MW1011REMSYN072AAXX  07171 01028 41675 22410 10017 21021 30034 40054 52005 70120 82500;
0207010280999992013010718004+74517+019000FM-12+0018ENBJ V0202401N008012200019N0250001N1+00131-00201100571ADDAA112000021AY121061AY201061GF102991021051008001001001KA1120M+00241MA1999999100371MD1210051+9999MW1021REMSYN094AAXX  07181 01028 11575 22408 10013 21020 30037 40057 52005 69902 70220 82500 333 10024 91114;
0161010280999992013010719004+74517+019000FM-12+0018ENBJ V0202401N008012200019N0250001N1+00141-00181100581ADDAY101999AY201999GF103991031051012501001001MA1999999100381MD1210051+9999MW1031REMSYN072AAXX  07191 01028 41675 32408 10014 21018 30038 40058 52005 70300 83500;
0161010280999992013010720004+74517+019000FM-12+0018ENBJ V0202401N006012200019N0250001N1+00111-00171100591ADDAY101999AY201999GF103991031051012501001001MA1999999100391MD1210051+9999MW1021REMSYN072AAXX  07201 01028 41675 32406 10011 21017 30039 40059 52005 70200 83500;
0161010280999992013010721004+74517+019000FM-12+0018ENBJ V0202301N005012200019N0250001N1+00101-00151100591ADDAY101031AY201031GF104991041051008001001001MA1999999100391MD1210021+9999MW1031REMSYN072AAXX  07211 01028 41575 42305 10010 21015 30039 40059 52002 70300 84500;
0161010280999992013010722004+74517+019000FM-12+0018ENBJ V0202101N004012200019N0250001N1+00051-00171100581ADDAY111999AY211999GF104991041051008001001001MA1999999100381MD1410001+9999MW1021REMSYN072AAXX  07221 01028 41575 42104 10005 21017 30038 40058 54000 70211 84500;
0161010280999992013010723004+74517+019000FM-12+0018ENBJ V0201701N004010075019N0200001N1+00061-00141100521ADDAY121999AY221999GF108991081051008001999999MA1999999100321MD1810081+9999MW1031REMSYN072AAXX  07231 01028 41570 81704 10006 21014 30032 40052 58008 70322 885//;
0188010280999992013010800004+74517+019000FM-12+0018ENBJ V0201601N004010075019N0150001N1+00091-00101100461ADDAA106000021AY151061AY211061GF108991081051008001999999MA1999999100261MD1810131+9999MW1501REMSYN088AAXX  08001 01028 11565 81604 10009 21010 30026 40046 58013 69901 75051 885// 333 91111;
0161010280999992013010801004+74517+019000FM-12+0018ENBJ V0201901N005010075019N0100001N1+00131-00031100401ADDAY161999AY251999GF108991081051008001999999MA1999999100201MD1810181+9999MW1601REMSYN072AAXX  08011 01028 41560 81905 10013 21003 30020 40040 58018 76065 885//;
0161010280999992013010802004+74517+019000FM-12+0018ENBJ V0201601N005010075019N0150001N1+00121-00031100341ADDAY161999AY221999GF107991071051008001999999MA1999999100141MD1810181+9999MW1211REMSYN072AAXX  08021 01028 41565 71605 10012 21003 30014 40034 58018 72162 875//;
0161010280999992013010803004+74517+019000FM-12+0018ENBJ V0201701N008010075019N0150001N1+00191+00021100251ADDAY161031AY251031GF108991081051008001999999MA1999999100051MD1810201+9999MW1021REMSYN072AAXX  08031 01028 41565 81708 10019 20002 30005 40025 58020 70265 885//;
0161010280999992013010804004+74517+019000FM-12+0018ENBJ V0201801N011010042019N0100001N1+00191+00031100191ADDAY161999AY221999GF108991081051004501999999MA1999999099991MD1610221+9999MW1601REMSYN072AAXX  08041 01028 41460 81811 10019 20003 39999 40019 56022 76062 885//;
0161010280999992013010805004+74517+019000FM-12+0018ENBJ V0201701N006010042019N0150001N1+00081-00051100091ADDAY161999AY221999GF107991071051004501999999MA1999999099891MD1810251+9999MW1011REMSYN072AAXX  08051 01028 41465 71706 10008 21005 39989 40009 58025 70162 875//;
0207010280999992013010806004+74517+019000FM-12+0018ENBJ V0201801N009010075019N0150001N1+00161+00021100011ADDAA106002091AY151061AY221061GF108991081051008001999999KA1999N+00051MA1999999099811MD1610241+9999MW1501REMSYN094AAXX  08061 01028 11565 81809 10016 20002 39981 40001 56024 60021 75052 885// 333 20005 91114;
0161010280999992013010807004+74517+019000FM-12+0018ENBJ V0201701N005010042019N0150001N1+00131-00011099991ADDAY151999AY221999GF108991081051004501999999MA1999999099791MD1610201+9999MW1501REMSYN072AAXX  08071 01028 41465 81705 10013 21001 39979 49999 56020 75052 885//;
0161010280999992013010808004+74517+019000FM-12+0018ENBJ V0201701N007010042019N0150001N1+00161+00031099941ADDAY151999AY221999GF108991081051004501999999MA1999999099741MD1610141+9999MW1521REMSYN072AAXX  08081 01028 41465 81707 10016 20003 39974 49994 56014 75252 885//;
0161010280999992013010809004+74517+019000FM-12+0018ENBJ V0201601N006010042019N0100001N1+00131+00001099911ADDAY161031AY251031GF108991081051004501999999MA1999999099711MD1810101+9999MW1601REMSYN072AAXX  08091 01028 41460 81606 10013 20000 39971 49991 58010 76065 885//;
0161010280999992013010810004+74517+019000FM-12+0018ENBJ V0201701N007010075019N0150001N1+00161+00041099881ADDAY161999AY251999GF108991081051008001999999MA1999999099681MD1710111+9999MW1501REMSYN072AAXX  08101 01028 41565 81707 10016 20004 39968 49988 57011 75065 885//;
0161010280999992013010811004+74517+019000FM-12+0018ENBJ V0201701N006010042019N0100001N1+00171+00041099851ADDAY161999AY251999GF108991081051004501999999MA1999999099651MD1710091+9999MW1601REMSYN072AAXX  08111 01028 41460 81706 10017 20004 39965 49985 57009 76065 885//;
0208010280999992013010812004+74517+019000FM-12+0018ENBJ V0201501N005010240019N0120001N1+00161+00031099851ADDAA106003091AY161061AY251061GF108991041071008001021999MA1999999099651MD1710061+9999MW1611SA1+0059REMSYN100AAXX  08121 01028 11562 81505 10016 20003 39965 49985 57006 60031 76165 8472/ 222// 00005 333 91111;
0161010280999992013010813004+74517+019000FM-12+0018ENBJ V0201701N004010240019N0120001N1+00141+00011099831ADDAY161999AY261999GF108991041071004501021999MA1999999099631MD1710051+9999MW1611REMSYN072AAXX  08131 01028 41462 81704 10014 20001 39963 49983 57005 76166 8472/;
0161010280999992013010814004+74517+019000FM-12+0018ENBJ V0202001N002010240019N0110001N1+00111-00021099871ADDAY161999AY261999GF108991031071004501021999MA1999999099671MD1310011+9999MW1611REMSYN072AAXX  08141 01028 41461 82002 10011 21002 39967 49987 53001 76166 8372/;
0161010280999992013010815004+74517+019000FM-12+0018ENBJ V0203401N004010240019N0010001N1+00051-00071099901ADDAY171031AY261031GF108991041071004501021999MA1999999099701MD1310061+9999MW1691REMSYN072AAXX  08151 01028 41410 83404 10005 21007 39970 49990 53006 76976 8472/;
0161010280999992013010816004+74517+019000FM-12+0018ENBJ V0203401N011010021019N0008001N1+00001-00091099941ADDAY171999AY271999GF108991051071002501021999MA1999999099741MD1210121+9999MW1731REMSYN072AAXX  08161 01028 41308 83411 10000 21009 39974 49994 52012 77377 8572/;
0161010280999992013010817004+74517+019000FM-12+0018ENBJ V0203401N014010021019N0006001N1-00091-00171100041ADDAY171999AY271999GF108991051071002501021999MA1999999099841MD1310171+9999MW1731REMSYN072AAXX  08171 01028 41306 83414 11009 21017 39984 40004 53017 77377 8572/;
0207010280999992013010818004+74517+019000FM-12+0018ENBJ V0203401N014010240019N0030001N1-00101-00201100141ADDAA112006191AY171061AY261061GF108991031071004501021999KA1120M+00171MA1999999099941MD1310241+9999MW1221REMSYN094AAXX  08181 01028 11430 83414 11010 21020 39994 40014 53024 60062 72276 8372/ 333 10017 91119;
0161010280999992013010819004+74517+019000FM-12+0018ENBJ V0203401N013010240019N0008001N1-00121-00211100241ADDAY171999AY231999GF108991031071004501021999MA1999999100041MD1210291+9999MW1381REMSYN072AAXX  08191 01028 41408 83413 11012 21021 30004 40024 52029 73873 8372/;
0161010280999992013010821004+74517+019000FM-12+0018ENBJ V0203401N014010240019N0020001N1-00171-00281100471ADDAY131031AY221031GF108991041051004501071999MA1999999100271MD1310321+9999MW1381REMSYN072AAXX  08211 01028 41420 83414 11017 21028 30027 40047 53032 73832 8457/;
0161010280999992013010823004+74517+019000FM-12+0018ENBJ V0203401N014010090019N0050001N1-00231-00371100641ADDAY131999AY221999GF108991081081004501999999MA1999999100441MD1210301+9999MW1361REMSYN072AAXX  08231 01028 41450 83414 11023 21037 30044 40064 52030 73632 888//;
0188010280999992013010900004+74517+019000FM-12+0018ENBJ V0203501N012010090019N0100001N1-00211-00391100721ADDAA106002091AY131061AY221061GF108991081081004501999999MA1999999100521MD1210261+9999MW1361REMSYN088AAXX  09001 01028 11460 83512 11021 21039 30052 40072 52026 60021 73632 888// 333 91119;
0161010280999992013010901004+74517+019000FM-12+0018ENBJ V0203601N011010090019N0100001N1-00181-00401100811ADDAY171999AY221999GF108991081081004501999999MA1999999100611MD1310261+9999MW1851REMSYN072AAXX  09011 01028 41460 83611 11018 21040 30061 40081 53026 78572 888//;
0161010280999992013010902004+74517+019000FM-12+0018ENBJ V0203501N011010090019N0000001N1-00211-00441100941ADDAY171999AY221999GF108991081081004501999999MA1999999100741MD1310291+9999MW1851REMSYN072AAXX  09021 01028 41400 83511 11021 21044 30074 40094 53029 78572 888//;
0161010280999992013010903004+74517+019000FM-12+0018ENBJ V0203501N013010090019N0150001N1-00231-00491101031ADDAY131031AY221031GF107991071081004501999999MA1999999100831MD1310311+9999MW1011REMSYN072AAXX  09031 01028 41465 73513 11023 21049 30083 40103 53031 70132 878//;
0161010280999992013010904004+74517+019000FM-12+0018ENBJ V0203601N010010090019N0150001N1-00251-00531101111ADDAY121999AY221999GF108991081081004501999999MA1999999100911MD1210291+9999MW1021REMSYN072AAXX  09041 01028 41465 83610 11025 21053 30091 40111 52029 70222 888//;
0161010280999992013010905004+74517+019000FM-12+0018ENBJ V0203501N011010120019N0150001N1-00271-00601101181ADDAY121999AY221999GF108991081081008001999999MA1999999100981MD1210251+9999MW1021REMSYN072AAXX  09051 01028 41565 83511 11027 21060 30098 40118 52025 70222 888//;
0255010280999992013010906004+74517+019000FM-12+0018ENBJ V0203601N009010120019N0150001N1-00271-00601101261ADDAA106002091AJ199991999999999AY171061AY231061GF108991081081008001999999IA1309KA1999N-00281MA1999999101061MD1310231+9999MW1021REMSYN100AAXX  09061 01028 11565 83609 11027 21060 30106 40126 53023 60021 70273 888// 333 21028 42999 91116;EQDQ01  09962SNDP  
0161010280999992013010907004+74517+019000FM-12+0018ENBJ V0203501N009010120019N0150001N1-00271-00581101351ADDAY121999AY221999GF108991081081008001999999MA1999999101151MD1310241+9999MW1021REMSYN072AAXX  09071 01028 41565 83509 11027 21058 30115 40135 53024 70222 888//;
0161010280999992013010908004+74517+019000FM-12+0018ENBJ V0203601N009010120019N0100001N1-00281-00611101441ADDAY181999AY221999GF108991081081008001999999MA1999999101241MD1310271+9999MW1851REMSYN072AAXX  09081 01028 41560 83609 11028 21061 30124 40144 53027 78582 888//;
0161010280999992013010909004+74517+019000FM-12+0018ENBJ V0203401N010010120019N0150001N1-00261-00591101541ADDAY181031AY221031GF107991071081008001999999MA1999999101341MD1310281+9999MW1261REMSYN072AAXX  09091 01028 41565 73410 11026 21059 30134 40154 53028 72682 878//;
0161010280999992013010910004+74517+019000FM-12+0018ENBJ V0203501N009010075019N0200001N1-00261-00601101601ADDAY121999AY221999GF107991071051008001999999MA1999999101401MD1210251+9999MW1021REMSYN072AAXX  09101 01028 41570 73509 11026 21060 30140 40160 52025 70222 875//;
0161010280999992013010911004+74517+019000FM-12+0018ENBJ V0203601N007010240019N0200001N1-00281-00611101661ADDAY121999AY221999GF106991041051008001031001MA1999999101461MD1110221+9999MW1011REMSYN072AAXX  09111 01028 41570 63607 11028 21061 30146 40166 51022 70122 84530;
0208010280999992013010912004+74517+019000FM-12+0018ENBJ V0203501N007010075019N0250001N1-00261-00591101721ADDAA106000021AY181061AY221061GF108991081051008001999999MA1999999101521MD1210181+9999MW1021SA1+0029REMSYN100AAXX  09121 01028 11575 83507 11026 21059 30152 40172 52018 69901 70282 885// 222// 00002 333 91114;
0161010280999992013010913004+74517+019000FM-12+0018ENBJ V0203501N007010075019N0200001N1-00261-00581101781ADDAY121999AY221999GF108991081051008001999999MA1999999101581MD1210171+9999MW1021REMSYN072AAXX  09131 01028 41570 83507 11026 21058 30158 40178 52017 70222 885//;
0161010280999992013010914004+74517+019000FM-12+0018ENBJ V0203501N007010075019N0200001N1-00251-00571101841ADDAY121999AY221999GF108991081051008001999999MA1999999101641MD1210181+9999MW1021REMSYN072AAXX  09141 01028 41570 83507 11025 21057 30164 40184 52018 70222 885//;
0161010280999992013010915004+74517+019000FM-12+0018ENBJ V0203301N005010075019N0200001N1-00241-00571101881ADDAY121031AY221031GF108991081051008001999999MA1999999101681MD1210171+9999MW1021REMSYN072AAXX  09151 01028 41570 83305 11024 21057 30168 40188 52017 70222 885//;
0161010280999992013010916004+74517+019000FM-12+0018ENBJ V0203301N004010075019N0200001N1-00211-00541101901ADDAY121999AY221999GF108991081051008001999999MA1999999101701MD1110121+9999MW1021REMSYN072AAXX  09161 01028 41570 83304 11021 21054 30170 40190 51012 70222 885//;
0161010280999992013010917004+74517+019000FM-12+0018ENBJ V0203301N001010075019N0200001N1-00191-00521101921ADDAY121999AY221999GF108991081051008001999999MA1999999101721MD1110091+9999MW1021REMSYN072AAXX  09171 01028 41570 83301 11019 21052 30172 40192 51009 70222 885//;
0207010280999992013010918004+74517+019000FM-12+0018ENBJ V0202001N002010075019N0200001N1-00221-00501101921ADDAA112000021AY121061AY221061GF108991081051008001999999KA1120M-00191MA1999999101721MD1210031+9999MW1021REMSYN094AAXX  09181 01028 11570 82002 11022 21050 30172 40192 52003 69902 70222 885// 333 11019 91111;
0161010280999992013010919004+74517+019000FM-12+0018ENBJ V0202801N006010075019N0250001N1-00101-00391101921ADDAY121999AY221999GF108991081051008001999999MA1999999101721MD1010021+9999MW1021REMSYN072AAXX  09191 01028 41575 82806 11010 21039 30172 40192 50002 70222 885//;
0161010280999992013010920004+74517+019000FM-12+0018ENBJ V0202801N006010075019N0200001N1-00101-00391101951ADDAY121999AY221999GF108991081051008001999999MA1999999101751MD1310031+9999MW1021REMSYN072AAXX  09201 01028 41570 82806 11010 21039 30175 40195 53003 70222 885//;
0161010280999992013010921004+74517+019000FM-12+0018ENBJ V0202701N006010075019N0200001N1-00051-00371101941ADDAY121031AY221031GF108991081051008001999999MA1999999101741MD1010021+9999MW1021REMSYN072AAXX  09211 01028 41570 82706 11005 21037 30174 40194 50002 70222 885//;
0161010280999992013010922004+74517+019000FM-12+0018ENBJ V0202601N008010075019N0150001N1-00021-00341101911ADDAY121999AY221999GF108991081051008001999999MA1999999101711MD1010011+9999MW1021REMSYN072AAXX  09221 01028 41565 82608 11002 21034 30171 40191 50001 70222 885//;
0161010280999992013010923004+74517+019000FM-12+0018ENBJ V0202601N008010075019N0150001N1-00011-00321101891ADDAY121999AY221999GF108991081051008001999999MA1999999101691MD1710051+9999MW1021REMSYN072AAXX  09231 01028 41565 82608 11001 21032 30169 40189 57005 70222 885//;
0207010280999992013011000004+74517+019000FM-12+0018ENBJ V0202601N008010075019N0150001N1+00021-00311101871ADDAA106000091AY121061AY221061GF108991081051008001999999MA1999999101671MD1710071+9999MW1021REMSYN088AAXX  10001 01028 11565 82608 10002 21031 30167 40187 57007 60001 70222 885// 333 91111;EQDQ01  00002PRCP06
0161010280999992013011001004+74517+019000FM-12+0018ENBJ V0202701N007010075019N0150001N1+00041-00281101871ADDAY121999AY221999GF108991081051008001999999MA1999999101671MD1510041+9999MW1021REMSYN072AAXX  10011 01028 41565 82707 10004 21028 30167 40187 55004 70222 885//;
0161010280999992013011002004+74517+019000FM-12+0018ENBJ V0202801N007010075019N0150001N1+00061-00271101871ADDAY121999AY221999GF108991081051008001999999MA1999999101671MD1510021+9999MW1021REMSYN072AAXX  10021 01028 41565 82807 10006 21027 30167 40187 55002 70222 885//;
0161010280999992013011003004+74517+019000FM-12+0018ENBJ V0202801N008010075019N0150001N1+00061-00291101831ADDAY121031AY221031GF108991081051008001999999MA1999999101631MD1810041+9999MW1021REMSYN072AAXX  10031 01028 41565 82808 10006 21029 30163 40183 58004 70222 885//;
0161010280999992013011004004+74517+019000FM-12+0018ENBJ V0202701N006010075019N0150001N1+00071-00251101811ADDAY121999AY221999GF108991081051008001999999MA1999999101611MD1810061+9999MW1021REMSYN072AAXX  10041 01028 41565 82706 10007 21025 30161 40181 58006 70222 885//;
0161010280999992013011005004+74517+019000FM-12+0018ENBJ V0202701N007010075019N0150001N1+00091-00261101781ADDAY121999AY221999GF108991081051008001999999MA1999999101581MD1710091+9999MW1021REMSYN072AAXX  10051 01028 41565 82707 10009 21026 30158 40178 57009 70222 885//;
0288010280999992013011006004+74517+019000FM-12+0018ENBJ V0202701N007010120019N0150001N1+00101-00241101791ADDAA112000091AA224000021AJ199991999999999AY121061AY221061GF108991081051012501999999IA1309KA1999N-00221MA1999999101591MD1510031+9999MW1021REMSYN106AAXX  10061 01028 11665 82707 10010 21024 30159 40179 55003 60002 70222 885// 333 21022 42999 79999 91112;EQDQ01  00002PRCP12Q02  09962SNDP  
0161010280999992013011007004+74517+019000FM-12+0018ENBJ V0202701N007010120019N0150001N1+00091-00261101801ADDAY121999AY221999GF108991081051012501999999MA1999999101601MD1510011+9999MW1021REMSYN072AAXX  10071 01028 41665 82707 10009 21026 30160 40180 55001 70222 885//;
0161010280999992013011008004+74517+019000FM-12+0018ENBJ V0202801N006010120019N0150001N1+00111-00231101811ADDAY121999AY221999GF108991081051012501999999MA1999999101611MD1210041+9999MW1021REMSYN072AAXX  10081 01028 41665 82806 10011 21023 30161 40181 52004 70222 885//;
0161010280999992013011009004+74517+019000FM-12+0018ENBJ V0202601N005010120019N0150001N1+00101-00201101811ADDAY121031AY221031GF108991081051012501999999MA1999999101611MD1210011+9999MW1021REMSYN072AAXX  10091 01028 41665 82605 10010 21020 30161 40181 52001 70222 885//;
0161010280999992013011010004+74517+019000FM-12+0018ENBJ V0202501N007010120019N0200001N1+00121-00161101771ADDAY121999AY221999GF108991081051012501999999MA1999999101571MD1810031+9999MW1021REMSYN072AAXX  10101 01028 41670 82507 10012 21016 30157 40177 58003 70222 885//;
0161010280999992013011011004+74517+019000FM-12+0018ENBJ V0202501N007010075019N0200001N1+00121-00191101721ADDAY121999AY221999GF108991081051008001999999MA1999999101521MD1810091+9999MW1021REMSYN072AAXX  10111 01028 41570 82507 10012 21019 30152 40172 58009 70222 885//;
0227010280999992013011012004+74517+019000FM-12+0018ENBJ V0202401N007010075019N0200001N1+00111-00221101701ADDAA106000091AY121061AY221061GF108991081051008001999999MA1999999101501MD1710101+9999MW1021SA1+0039REMSYN100AAXX  10121 01028 11570 82407 10011 21022 30150 40170 57010 69901 70222 885// 222// 00003 333 91110;EQDQ01  00002PRCP06
0161010280999992013011013004+74517+019000FM-12+0018ENBJ V0202501N007010120019N0200001N1+00061-00161101651ADDAY121999AY221999GF108991081081008001999999MA1999999101451MD1810121+9999MW1021REMSYN072AAXX  10131 01028 41570 82507 10006 21016 30145 40165 58012 70222 888//;
0161010280999992013011014004+74517+019000FM-12+0018ENBJ V0202501N009010120019N0200001N1+00071-00181101621ADDAY121999AY221999GF108991081081008001999999MA1999999101421MD1710101+9999MW1021REMSYN072AAXX  10141 01028 41570 82509 10007 21018 30142 40162 57010 70222 888//;
0161010280999992013011015004+74517+019000FM-12+0018ENBJ V0202501N008010090019N0100001N1+00051-00151101541ADDAY181031AY221031GF108991081081004501999999MA1999999101341MD1810161+9999MW1851REMSYN072AAXX  10151 01028 41460 82508 10005 21015 30134 40154 58016 78582 888//;
0161010280999992013011016004+74517+019000FM-12+0018ENBJ V0202501N009010090019N0200001N1+00081-00151101481ADDAY181999AY221999GF106991061081004501001001MA1999999101281MD1810181+9999MW1851REMSYN072AAXX  10161 01028 41470 62509 10008 21015 30128 40148 58018 78582 86800;
0161010280999992013011017004+74517+019000FM-12+0018ENBJ V0202501N010010120019N0200001N1+00061-00151101421ADDAY121999AY221999GF105991051081008001001001MA1999999101221MD1710201+9999MW1011REMSYN072AAXX  10171 01028 41570 52510 10006 21015 30122 40142 57020 70122 85800;
0136010280999992013011018004+74517+019000FM-12+0018ENBJ V0202401N008019999999N9999999N1+00061-00131101351ADDKA1120M+00121MA1999999101151MD1710201+9999REMSYN082AAXX  10181 01028 16/// /2408 10006 21013 30115 40135 57020 6//// 333 10012 91113;
0161010280999992013011019004+74517+019000FM-12+0018ENBJ V0202501N010010120019N0100001N1+00061-00101101311ADDAY181999AY221999GF107991071081008001999999MA1999999101111MD1710171+9999MW1831REMSYN072AAXX  10191 01028 41560 72510 10006 21010 30111 40131 57017 78382 878//;
0161010280999992013011020004+74517+019000FM-12+0018ENBJ V0202401N010010120019N0150001N1+00071-00131101181ADDAY181999AY221999GF105991051081008001001001MA1999999100981MD1810231+9999MW1831REMSYN072AAXX  10201 01028 41565 52410 10007 21013 30098 40118 58023 78382 85800;
0161010280999992013011021004+74517+019000FM-12+0018ENBJ V0202301N009010120019N0150001N1+00071-00121101141ADDAY181031AY221031GF105991051081008001001001MA1999999100941MD1810201+9999MW1261REMSYN072AAXX  10211 01028 41565 52309 10007 21012 30094 40114 58020 72682 85800;
0161010280999992013011022004+74517+019000FM-12+0018ENBJ V0202401N010010120019N0100001N1+00141-00051101061ADDAY181999AY221999GF108991081081008001999999MA1999999100861MD1610251+9999MW1831REMSYN072AAXX  10221 01028 41560 82410 10014 21005 30086 40106 56025 78382 888//;
0161010280999992013011023004+74517+019000FM-12+0018ENBJ V0202401N010010120019N0100001N1+00161-00021100961ADDAY181999AY221999GF108991081081008001999999MA1999999100761MD1810221+9999MW1261REMSYN072AAXX  10231 01028 41560 82410 10016 21002 30076 40096 58022 72682 888//;
0188010280999992013011100004+74517+019000FM-12+0018ENBJ V0202401N011010150019N0110001N1+00191+00021100851ADDAA106000021AY181061AY221061GF108991081081012501999999MA1999999100651MD1810291+9999MW1021REMSYN088AAXX  11001 01028 11661 82411 10019 20002 30065 40085 58029 69911 70282 888// 333 91115;
0161010280999992013011101004+74517+019000FM-12+0018ENBJ V0202401N012010120019N0110001N1+00211+00041100771ADDAY181999AY221999GF108991081081008001999999MA1999999100571MD1710291+9999MW1801REMSYN072AAXX  11011 01028 41561 82412 10021 20004 30057 40077 57029 78082 888//;
0161010280999992013011102004+74517+019000FM-12+0018ENBJ V0202401N011010090019N0100001N1+00211+00051100691ADDAY181999AY221999GF108991081081004501999999MA1999999100491MD1610271+9999MW1801REMSYN072AAXX  11021 01028 41460 82411 10021 20005 30049 40069 56027 78082 888//;
0161010280999992013011103004+74517+019000FM-12+0018ENBJ V0202401N012010090019N0100001N1+00241+00081100591ADDAY181031AY221031GF108991081081004501999999MA1999999100391MD1810261+9999MW1251REMSYN072AAXX  11031 01028 41460 82412 10024 20008 30039 40059 58026 72582 888//;
0161010280999992013011104004+74517+019000FM-12+0018ENBJ V0202401N013010090019N0100001N1+00251+00101100521ADDAY181999AY221999GF108991081081004501999999MA1999999100321MD1710241+9999MW1801REMSYN072AAXX  11041 01028 41460 82413 10025 20010 30032 40052 57024 78082 888//;
0161010280999992013011105004+74517+019000FM-12+0018ENBJ V0202401N014010090019N0060001N1+00251+00121100451ADDAY181999AY221999GF108991081081004501999999MA1999999100251MD1810241+9999MW1801REMSYN072AAXX  11051 01028 41456 82414 10025 20012 30025 40045 58024 78082 888//;
0236010280999992013011106004+74517+019000FM-12+0018ENBJ V0202501N013010090019N0060001N1+00241+00111100451ADDAA112000021AA224000021AY181061AY221061GF108991081081004501999999IA1309KA1999N+00051MA1999999100251MD1610141+9999MW1801REMSYN106AAXX  11061 01028 11456 82513 10024 20011 30025 40045 56014 69912 78082 888// 333 20005 42/// 70001 91118;
0161010280999992013011107004+74517+019000FM-12+0018ENBJ V0202601N011010090019N0150001N1+00211+00051100441ADDAY181999AY221999GF108991081081004501999999MA1999999100241MD1610081+9999MW1251REMSYN072AAXX  11071 01028 41465 82611 10021 20005 30024 40044 56008 72582 888//;
0161010280999992013011108004+74517+019000FM-12+0018ENBJ V0202701N009010090019N0100001N1+00171+00011100491ADDAY151999AY221999GF108991081081004501999999MA1999999100291MD1310041+9999MW1501REMSYN072AAXX  11081 01028 41460 82709 10017 20001 30029 40049 53004 75052 888//;
0161010280999992013011109004+74517+019000FM-12+0018ENBJ V0202601N010010120019N0200001N1+00161-00011100481ADDAY151031AY221031GF108991081081008001999999MA1999999100281MD1310041+9999MW1201REMSYN072AAXX  11091 01028 41570 82610 10016 21001 30028 40048 53004 72052 888//;
0161010280999992013011110004+74517+019000FM-12+0018ENBJ V0202601N010010120019N0150001N1+00151-00031100491ADDAY151999AY221999GF107991071081008001999999MA1999999100291MD1110061+9999MW1501REMSYN072AAXX  11101 01028 41565 72610 10015 21003 30029 40049 51006 75052 878//;
0161010280999992013011111004+74517+019000FM-12+0018ENBJ V0202701N008010075019N0200001N1+00141-00041100521ADDAY151999AY221999GF107991071051008001999999MA1999999100321MD1210031+9999MW1201REMSYN072AAXX  11111 01028 41570 72708 10014 21004 30032 40052 52003 72052 875//;
0208010280999992013011112004+74517+019000FM-12+0018ENBJ V0202701N007010042019N0100001N1+00131-00051100571ADDAA106000021AY181061AY251061GF107991071051004501001001MA1999999100371MD1310091+9999MW1021SA1+0069REMSYN100AAXX  11121 01028 11460 72707 10013 21005 30037 40057 53009 69901 70285 87500 222// 00006 333 91116;
0161010280999992013011113004+74517+019000FM-12+0018ENBJ V0202701N010010042019N0100001N1+00151-00071100541ADDAY121999AY221999GF107991071051004501001001MA1999999100341MD1010041+9999MW1021REMSYN072AAXX  11131 01028 41460 72710 10015 21007 30034 40054 50004 70222 87500;
0161010280999992013011114004+74517+019000FM-12+0018ENBJ V0202601N010012200019N0200001N1+00141-00071100551ADDAY121999AY211999GF103991031081008001001001MA1999999100351MD1010031+9999MW1011REMSYN072AAXX  11141 01028 41570 32610 10014 21007 30035 40055 50003 70121 83800;
0161010280999992013011115004+74517+019000FM-12+0018ENBJ V0202801N010012200019N0200001N1+00161-00081100561ADDAY121031AY211031GF103991031081008001001001MA1999999100361MD1510011+9999MW1021REMSYN072AAXX  11151 01028 41570 32810 10016 21008 30036 40056 55001 70221 83800;
0161010280999992013011116004+74517+019000FM-12+0018ENBJ V0202701N009012200019N0200001N1+00161-00111100581ADDAY101999AY201999GF102991021081008001001001MA1999999100381MD1110041+9999MW1011REMSYN072AAXX  11161 01028 41570 22709 10016 21011 30038 40058 51004 70100 82800;
0161010280999992013011117004+74517+019000FM-12+0018ENBJ V0202701N010012200019N0200001N1+00161-00121100601ADDAY101999AY201999GF102991021081008001001001MA1999999100401MD1210051+9999MW1021REMSYN072AAXX  11171 01028 41570 22710 10016 21012 30040 40060 52005 70200 82800;
0207010280999992013011118004+74517+019000FM-12+0018ENBJ V0202801N010012200019N0250001N1+00151-00171100611ADDAA112000021AY121061AY211061GF102991021081008001001001KA1120M+00241MA1999999100411MD1210051+9999MW1021REMSYN094AAXX  11181 01028 11575 22810 10015 21017 30041 40061 52005 69902 70221 82800 333 10024 91114;
0161010280999992013011119004+74517+019000FM-12+0018ENBJ V0202901N011012200019N0250001N1+00141-00231100661ADDAY101999AY201999GF102991021081008001001001MA1999999100461MD1310081+9999MW1021REMSYN072AAXX  11191 01028 41575 22911 10014 21023 30046 40066 53008 70200 82800;
0161010280999992013011120004+74517+019000FM-12+0018ENBJ V0202901N012012200019N0250001N1+00101-00261100691ADDAY101999AY201999GF102991021081008001001001MA1999999100491MD1210091+9999MW1021REMSYN072AAXX  11201 01028 41575 22912 10010 21026 30049 40069 52009 70200 82800;
0161010280999992013011121004+74517+019000FM-12+0018ENBJ V0202901N013012200019N0250001N1+00061-00311100701ADDAY101031AY201031GF102991021081008001001001MA1999999100501MD1110101+9999MW1021REMSYN072AAXX  11211 01028 41575 22913 10006 21031 30050 40070 51010 70200 82800;
0161010280999992013011122004+74517+019000FM-12+0018ENBJ V0202901N012012200019N0250001N1+00031-00371100761ADDAY101999AY201999GF103991031081012501001001MA1999999100561MD1310101+9999MW1031REMSYN072AAXX  11221 01028 41675 32912 10003 21037 30056 40076 53010 70300 83800;
0161010280999992013011123004+74517+019000FM-12+0018ENBJ V0202901N012012200019N0250001N1-00021-00391100781ADDAY101999AY201999GF102991021081012501001001MA1999999100581MD1010091+9999MW1011REMSYN072AAXX  11231 01028 41675 22912 11002 21039 30058 40078 50009 70100 82800;
0207010280999992013011200004+74517+019000FM-12+0018ENBJ V0202901N013012200019N0200001N1-00021-00371100821ADDAA106000091AY101061AY201061GF103991031051008001001001MA1999999100621MD1310121+9999MW1031REMSYN088AAXX  12001 01028 11570 32913 11002 21037 30062 40082 53012 60001 70300 83500 333 91118;EQDQ01  00002PRCP06
0161010280999992013011201004+74517+019000FM-12+0018ENBJ V0202901N013010075019N0200001N1-00051-00411100871ADDAY121999AY201999GF105991051051008001001001MA1999999100671MD1310101+9999MW1031REMSYN072AAXX  12011 01028 41570 52913 11005 21041 30067 40087 53010 70320 85500;
0161010280999992013011202004+74517+019000FM-12+0018ENBJ V0203101N013010075019N0200001N1-00081-00431100951ADDAY121999AY221999GF107991071051008001999999MA1999999100751MD1310181+9999MW1031REMSYN072AAXX  12021 01028 41570 73113 11008 21043 30075 40095 53018 70322 875//;
0161010280999992013011203004+74517+019000FM-12+0018ENBJ V0203101N013010075019N0200001N1-00111-00481101031ADDAY121031AY221031GF107991071051008001999999MA1999999100831MD1310211+9999MW1021REMSYN072AAXX  12031 01028 41570 73113 11011 21048 30083 40103 53021 70222 875//;
0161010280999992013011204004+74517+019000FM-12+0018ENBJ V0203001N014010075019N0200001N1-00121-00531101031ADDAY121999AY221999GF108991081051008001999999MA1999999100831MD1010161+9999MW1021REMSYN072AAXX  12041 01028 41570 83014 11012 21053 30083 40103 50016 70222 885//;
0161010280999992013011205004+74517+019000FM-12+0018ENBJ V0203101N011010075019N0200001N1-00141-00521101101ADDAY121999AY221999GF108991081051008001999999MA1999999100901MD1110141+9999MW1021REMSYN072AAXX  12051 01028 41570 83111 11014 21052 30090 40110 51014 70222 885//;
0224010280999992013011206004+74517+019000FM-12+0018ENBJ V0203101N010010075019N0200001N1-00151-00521101181ADDAA112000021AA224000021AY121061AY201061GF108991081051008001999999KA1999N-00151MA1999999100981MD1310151+9999MW1701REMSYN100AAXX  12061 01028 11570 83110 11015 21052 30098 40118 53015 60002 77020 885// 333 21015 79999 91119;
0161010280999992013011207004+74517+019000FM-12+0018ENBJ V0203001N010010075019N0150001N1-00151-00541101241ADDAY171999AY271999GF108991081051008001999999MA1999999101041MD1110221+9999MW1701REMSYN072AAXX  12071 01028 41565 83010 11015 21054 30104 40124 51022 77077 885//;
0161010280999992013011208004+74517+019000FM-12+0018ENBJ V0203101N010010075019N0200001N1-00141-00501101291ADDAY171999AY271999GF108991081051008001999999MA1999999101091MD1210191+9999MW1711REMSYN072AAXX  12081 01028 41570 83110 11014 21050 30109 40129 52019 77177 885//;
0161010280999992013011209004+74517+019000FM-12+0018ENBJ V0203301N007010042019N0100001N1-00191-00491101371ADDAY171031AY271031GF108991081051004501999999MA1999999101171MD1310191+9999MW1731REMSYN072AAXX  12091 01028 41460 83307 11019 21049 30117 40137 53019 77377 885//;
0161010280999992013011210004+74517+019000FM-12+0018ENBJ V0203201N005010075019N0050001N1-00211-00531101431ADDAY171999AY271999GF107991071051008001999999MA1999999101231MD1310191+9999MW1711REMSYN072AAXX  12101 01028 41550 73205 11021 21053 30123 40143 53019 77177 875//;
0161010280999992013011211004+74517+019000FM-12+0018ENBJ V0203101N005010042019N0200001N1-00191-00551101461ADDAY121999AY221999GF106991061051004501031001MA1999999101261MD1210171+9999MW1011REMSYN072AAXX  12111 01028 41470 63105 11019 21055 30126 40146 52017 70122 86530;
0208010280999992013011212004+74517+019000FM-12+0018ENBJ V0203001N004010090019N0120001N1-00231-00501101491ADDAA106000021AY181061AY271061GF105991051081004501001001MA1999999101291MD1210121+9999MW1851SA1+0039REMSYN100AAXX  12121 01028 11462 53004 11023 21050 30129 40149 52012 69901 78587 85800 222// 00003 333 91116;
0161010280999992013011213004+74517+019000FM-12+0018ENBJ V0203101N003010120019N0150001N1-00231-00481101531ADDAY181999AY221999GF106991061081008001001001MA1999999101331MD1210101+9999MW1021REMSYN072AAXX  12131 01028 41565 63103 11023 21048 30133 40153 52010 70282 86800;
0161010280999992013011214004+74517+019000FM-12+0018ENBJ V0202801N002010090019N0120001N1-00261-00471101551ADDAY181999AY221999GF106991061081004501001001MA1999999101351MD1210091+9999MW1851REMSYN072AAXX  12141 01028 41462 62802 11026 21047 30135 40155 52009 78582 86800;
0161010280999992013011215004+74517+019000FM-12+0018ENBJ V0203501N003010090019N0120001N1-00241-00441101581ADDAY181031AY221031GF107991071081004501999999MA1999999101381MD1210081+9999MW1851REMSYN072AAXX  12151 01028 41462 73503 11024 21044 30138 40158 52008 78582 878//;
0161010280999992013011217004+74517+019000FM-12+0018ENBJ V0203101N001012200019N0200001N1-00251-00481101611ADDAY101999AY201999GF102991021081008001001001MA1999999101411MD1210061+9999MW1011REMSYN072AAXX  12171 01028 41570 23101 11025 21048 30141 40161 52006 70100 82800;
0207010280999992013011218004+74517+019000FM-12+0018ENBJ V0200501N001012200019N0250001N1-00451-00721101631ADDAA112000591AY181061AY221061GF102991021081012501001001KA1120M-00121MA1999999101421MD1210051+9999MW1021REMSYN094AAXX  12181 01028 11675 20501 11045 21072 30142 40163 52005 69942 70282 82800 333 11012 91107;
0161010280999992013011219004+74517+019000FM-12+0018ENBJ V0201801N002012200019N0200001N1-00551-00771101671ADDAY101999AY201999GF104991041081012501001001MA1999999101461MD1310061+9999MW1031REMSYN072AAXX  12191 01028 41670 41802 11055 21077 30146 40167 53006 70300 84800;
0161010280999992013011220004+74517+019000FM-12+0018ENBJ V0201401N002012200019N0200001N1-00541-00751101671ADDAY101999AY201999GF104991041081012501001001MA1999999101461MD1210051+9999MW1021REMSYN072AAXX  12201 01028 41670 41402 11054 21075 30146 40167 52005 70200 84800;
0161010280999992013011221004+74517+019000FM-12+0018ENBJ V0201801N002010150019N0200001N1-00471-00681101701ADDAY121031AY201031GF106991061081012501001001MA1999999101491MD1210071+9999MW1031REMSYN072AAXX  12211 01028 41670 61802 11047 21068 30149 40170 52007 70320 86800;
0161010280999992013011222004+74517+019000FM-12+0018ENBJ V0201801N003010120019N0150001N1-00461-00651101711ADDAY121999AY221999GF107991061081008001031001MA1999999101501MD1210041+9999MW1031REMSYN072AAXX  12221 01028 41565 71803 11046 21065 30150 40171 52004 70322 86830;
0161010280999992013011223004+74517+019000FM-12+0018ENBJ V0201901N002012200019N0200001N1-00561-00761101711ADDAY121999AY201999GF102991021081008001001001MA1999999101501MD1010041+9999MW1011REMSYN072AAXX  12231 01028 41570 21902 11056 21076 30150 40171 50004 70120 82800;
0207010280999992013011300004+74517+019000FM-12+0018ENBJ V0202101N002012200019N0200001N1-00681-00881101691ADDAA106000091AY121061AY201061GF102991021081008001001001MA1999999101481MD1810011+9999MW1021REMSYN088AAXX  13001 01028 11570 22102 11068 21088 30148 40169 58001 60001 70220 82800 333 91103;EQDQ01  00002PRCP06
0161010280999992013011301004+74517+019000FM-12+0018ENBJ V0202301N001012200019N0200001N1-00671-00861101691ADDAY101999AY201999GF101991011081008001001001MA1999999101481MD1710021+9999MW1011REMSYN072AAXX  13011 01028 41570 12301 11067 21086 30148 40169 57002 70100 81800;
0161010280999992013011302004+74517+019000FM-12+0018ENBJ V0203401N005012200019N0200001N1-00201-00481101661ADDAY101999AY201999GF102991021081008001001001MA1999999101461MD1710041+9999MW1031REMSYN072AAXX  13021 01028 41570 23405 11020 21048 30146 40166 57004 70300 82800;
0161010280999992013011303004+74517+019000FM-12+0018ENBJ V0203501N007010120019N0150001N1-00191-00511101661ADDAY181031AY211031GF108991081081008001999999MA1999999101461MD1710011+9999MW1851REMSYN072AAXX  13031 01028 41565 83507 11019 21051 30146 40166 57001 78581 888//;
0161010280999992013011304004+74517+019000FM-12+0018ENBJ V0203501N006010120019N0150001N1-00191-00601101651ADDAY181999AY221999GF108991081081008001999999MA1999999101451MD1710031+9999MW1021REMSYN072AAXX  13041 01028 41565 83506 11019 21060 30145 40165 57003 70282 888//;
0161010280999992013011305004+74517+019000FM-12+0018ENBJ V0203501N006010120019N0150001N1-00201-00641101641ADDAY181999AY221999GF108991081081008001999999MA1999999101441MD1710021+9999MW1851REMSYN072AAXX  13051 01028 41565 83506 11020 21064 30144 40164 57002 78582 888//;
0236010280999992013011306004+74517+019000FM-12+0018ENBJ V0203501N006010120019N0150001N1-00201-00611101651ADDAA112000021AA224000591AY121061AY221061GF108991081081008001999999IA1229KA1999N-00711MA1999999101451MD1410001+9999MW1021REMSYN106AAXX  13061 01028 11565 83506 11020 21061 30145 40165 54001 69902 70222 888// 333 21071 46/// 70004 91109;
0161010280999992013011307004+74517+019000FM-12+0018ENBJ V0203501N006010120019N0150001N1-00211-00641101661ADDAY121999AY221999GF108991081081008001999999MA1999999101461MD1410001+9999MW1021REMSYN072AAXX  13071 01028 41565 83506 11021 21064 30146 40166 54001 70222 888//;
0161010280999992013011308004+74517+019000FM-12+0018ENBJ V0203501N003010120019N0150001N1-00241-00661101691ADDAY181999AY221999GF108991081081008001999999MA1999999101491MD1310051+9999MW1851REMSYN072AAXX  13081 01028 41565 83503 11024 21066 30149 40169 53005 78582 888//;
0161010280999992013011309004+74517+019000FM-12+0018ENBJ V0203501N003010120019N0200001N1-00251-00661101691ADDAY181031AY221031GF108991081081008001999999MA1999999101491MD1210041+9999MW1851REMSYN072AAXX  13091 01028 41570 83503 11025 21066 30149 40169 52004 78582 888//;
0161010280999992013011310004+74517+019000FM-12+0018ENBJ V0200101N003010120019N0200001N1-00281-00661101681ADDAY181999AY221999GF108991081081008001999999MA1999999101481MD1010021+9999MW1261REMSYN072AAXX  13101 01028 41570 80103 11028 21066 30148 40168 50002 72682 888//;
0161010280999992013011311004+74517+019000FM-12+0018ENBJ V0200401N003010120019N0200001N1-00291-00671101721ADDAY181999AY221999GF107991071081008001999999MA1999999101521MD1310031+9999MW1851REMSYN072AAXX  13111 01028 41570 70403 11029 21067 30152 40172 53003 78582 878//;
0208010280999992013011312004+74517+019000FM-12+0018ENBJ V0200401N005010120019N0200001N1-00351-00681101741ADDAA106000021AY181061AY221061GF107991071081008001999999MA1999999101541MD1310051+9999MW1851SA1+0039REMSYN100AAXX  13121 01028 11570 70405 11035 21068 30154 40174 53005 69901 78582 878// 222// 00003 333 91108;
0161010280999992013011313004+74517+019000FM-12+0018ENBJ V0200501N005010120019N0200001N1-00411-00721101761ADDAY181999AY221999GF107991071081008001999999MA1999999101551MD1210071+9999MW1261REMSYN072AAXX  13131 01028 41570 70505 11041 21072 30155 40176 52007 72682 878//;
0161010280999992013011314004+74517+019000FM-12+0018ENBJ V0200401N006010120019N0200001N1-00421-00751101761ADDAY121999AY221999GF107991071081008001999999MA1999999101551MD1210031+9999MW1021REMSYN072AAXX  13141 01028 41570 70406 11042 21075 30155 40176 52003 70222 878//;
0161010280999992013011315004+74517+019000FM-12+0018ENBJ V0200301N005012200019N0200001N1-00451-00791101791ADDAY121031AY201031GF103991031081008001001001MA1999999101581MD1310041+9999MW1021REMSYN072AAXX  13151 01028 41570 30305 11045 21079 30158 40179 53004 70220 83800;
0161010280999992013011316004+74517+019000FM-12+0018ENBJ V0200301N006012200019N0200001N1-00461-00851101811ADDAY101999AY201999GF104991041081008001001001MA1999999101601MD1310051+9999MW1021REMSYN072AAXX  13161 01028 41570 40306 11046 21085 30160 40181 53005 70200 84800;
0161010280999992013011317004+74517+019000FM-12+0018ENBJ V0200101N006012200019N0200001N1-00481-00921101791ADDAY101999AY201999GF104991041081008001001001MA1999999101581MD1010041+9999MW1021REMSYN072AAXX  13171 01028 41570 40106 11048 21092 30158 40179 50004 70200 84800;
0207010280999992013011318004+74517+019000FM-12+0018ENBJ V0200201N006012200019N0200001N1-00491-00951101791ADDAA112000021AY101061AY201061GF104991041081008001001001KA1120M-00201MA1999999101581MD1410001+9999MW1021REMSYN094AAXX  13181 01028 11570 40206 11049 21095 30158 40179 54000 69902 70200 84800 333 11020 91109;
0161010280999992013011319004+74517+019000FM-12+0018ENBJ V0200101N006012200019N0200001N1-00521-01011101781ADDAY101999AY201999GF103991031081008001001001MA1999999101571MD1710031+9999MW1011REMSYN072AAXX  13191 01028 41570 30106 11052 21101 30157 40178 57003 70100 83800;
0161010280999992013011320004+74517+019000FM-12+0018ENBJ V0200201N006012200019N0200001N1-00531-00991101781ADDAY101999AY201999GF103991031081008001001001MA1999999101571MD1710011+9999MW1021REMSYN072AAXX  13201 01028 41570 30206 11053 21099 30157 40178 57001 70200 83800;
0161010280999992013011321004+74517+019000FM-12+0018ENBJ V0200101N006010120019N0200001N1-00501-00941101781ADDAY171031AY211031GF106991061081008001001001MA1999999101571MD1710011+9999MW1701REMSYN072AAXX  13211 01028 41570 60106 11050 21094 30157 40178 57001 77071 86800;
0161010280999992013011322004+74517+019000FM-12+0018ENBJ V0200201N006012200019N0200001N1-00481-00941101781ADDAY121999AY211999GF104991041081008001001001MA1999999101571MD1410001+9999MW1011REMSYN072AAXX  13221 01028 41570 40206 11048 21094 30157 40178 54000 70121 84800;
0161010280999992013011323004+74517+019000FM-12+0018ENBJ V0200101N006010120019N0200001N1-00491-00961101781ADDAY121999AY211999GF105991051081008001001001MA1999999101571MD1410001+9999MW1031REMSYN072AAXX  13231 01028 41570 50106 11049 21096 30157 40178 54000 70321 85800;
0188010280999992013011400004+74517+019000FM-12+0018ENBJ V0200201N006010150019N0100001N1-00501-00921101781ADDAA106000021AY181061AY271061GF108991081081012501999999MA1999999101571MD1410001+9999MW1851REMSYN088AAXX  14001 01028 11660 80206 11050 21092 30157 40178 54000 69901 78587 888// 333 91111;
0161010280999992013011401004+74517+019000FM-12+0018ENBJ V0200101N007010150019N0100001N1-00511-00871101781ADDAY181999AY221999GF106991061081012501001001MA1999999101571MD1410001+9999MW1851REMSYN072AAXX  14011 01028 41660 60107 11051 21087 30157 40178 54000 78582 86800;
0161010280999992013011402004+74517+019000FM-12+0018ENBJ V0200201N008012200019N0200001N1-00501-00951101781ADDAY181999AY211999GF104991041081012501001001MA1999999101571MD1410001+9999MW1261REMSYN072AAXX  14021 01028 41670 40208 11050 21095 30157 40178 54000 72681 84800;
0161010280999992013011403004+74517+019000FM-12+0018ENBJ V0200101N008010150019N0200001N1-00481-00901101761ADDAY181031AY221031GF106991061081012501001001MA1999999101551MD1710021+9999MW1031REMSYN072AAXX  14031 01028 41670 60108 11048 21090 30155 40176 57002 70382 86800;
0161010280999992013011404004+74517+019000FM-12+0018ENBJ V0200101N007010120019N0200001N1-00471-00961101751ADDAY121999AY221999GF106991061081008001001001MA1999999101541MD1710031+9999MW1021REMSYN072AAXX  14041 01028 41570 60107 11047 21096 30154 40175 57003 70222 86800;
0161010280999992013011405004+74517+019000FM-12+0018ENBJ V0200101N008010150019N0200001N1-00481-00941101761ADDAY121999AY221999GF106991061081012501001001MA1999999101551MD1710011+9999MW1021REMSYN072AAXX  14051 01028 41670 60108 11048 21094 30155 40176 57001 70222 86800;
0236010280999992013011406004+74517+019000FM-12+0018ENBJ V0200201N007010150019N0200001N1-00471-00921101771ADDAA112000021AA224000021AY181061AY221061GF106991061081012501001001IA1229KA1999N-00531MA1999999101561MD1410001+9999MW1851REMSYN106AAXX  14061 01028 11670 60207 11047 21092 30156 40177 54001 69902 78582 86800 333 21053 46/// 79999 91111;
0161010280999992013011407004+74517+019000FM-12+0018ENBJ V0200101N007010150019N0200001N1-00471-00941101801ADDAY181999AY221999GF105991051081012501001001MA1999999101591MD1210051+9999MW1261REMSYN072AAXX  14071 01028 41670 50107 11047 21094 30159 40180 52005 72682 85800;
0161010280999992013011408004+74517+019000FM-12+0018ENBJ V0200101N006010150019N0200001N1-00461-00891101851ADDAY121999AY221999GF105991051081012501001001MA1999999101641MD1310091+9999MW1021REMSYN072AAXX  14081 01028 41670 50106 11046 21089 30164 40185 53009 70222 85800;
0161010280999992013011409004+74517+019000FM-12+0018ENBJ V0200201N006010150019N0200001N1-00461-00881101901ADDAY121031AY221031GF106991061081012501001001MA1999999101691MD1310131+9999MW1031REMSYN072AAXX  14091 01028 41670 60206 11046 21088 30169 40190 53013 70322 86800;
0161010280999992013011410004+74517+019000FM-12+0018ENBJ V0203601N005010150019N0200001N1-00461-00871101921ADDAY121999AY221999GF106991051081012501031001MA1999999101711MD1210121+9999MW1151REMSYN072AAXX  14101 01028 41670 63605 11046 21087 30171 40192 52012 71522 85830;
0161010280999992013011411004+74517+019000FM-12+0018ENBJ V0200101N006010150019N0200001N1-00431-00861101951ADDAY121999AY221999GF106991061081012501001001MA1999999101741MD1210101+9999MW1151REMSYN072AAXX  14111 01028 41670 60106 11043 21086 30174 40195 52010 71522 86800;
0208010280999992013011412004+74517+019000FM-12+0018ENBJ V0200201N008010120019N0160001N1-00451-00821101981ADDAA106000021AY121061AY221061GF106991061081008001001001MA1999999101771MD1210081+9999MW1151SA1+0009REMSYN100AAXX  14121 01028 11566 60208 11045 21082 30177 40198 52008 60001 71522 86800 222// 00000 333 91111;
0161010280999992013011413004+74517+019000FM-12+0018ENBJ V0200301N008010120019N0150001N1-00451-00781102011ADDAY121999AY221999GF106991061081008001001001MA1999999101801MD1210081+9999MW1151REMSYN072AAXX  14131 01028 41565 60308 11045 21078 30180 40201 52008 71522 86800;
0161010280999992013011414004+74517+019000FM-12+0018ENBJ V0200201N008010120019N0130001N1-00471-00761102021ADDAY181999AY221999GF107991071081008001001001MA1999999101811MD1210081+9999MW1851REMSYN072AAXX  14141 01028 41563 70208 11047 21076 30181 40202 52008 78582 87800;
0161010280999992013011415004+74517+019000FM-12+0018ENBJ V0200201N007010090019N0120001N1-00471-00841102041ADDAY181031AY221031GF105991051081004501001001MA1999999101831MD1210071+9999MW1851REMSYN072AAXX  14151 01028 41462 50207 11047 21084 30183 40204 52007 78582 85800;
0161010280999992013011416004+74517+019000FM-12+0018ENBJ V0200201N008010090019N0110001N1-00481-00761102071ADDAY181999AY221999GF106991061081004501001001MA1999999101861MD1210061+9999MW1851REMSYN072AAXX  14161 01028 41461 60208 11048 21076 30186 40207 52006 78582 86800;
0161010280999992013011417004+74517+019000FM-12+0018ENBJ V0200201N007012200019N0150001N1-00471-00791102071ADDAY181999AY211999GF103991031081008001001001MA1999999101861MD1210041+9999MW1851REMSYN072AAXX  14171 01028 41565 30207 11047 21079 30186 40207 52004 78581 83800;
0207010280999992013011418004+74517+019000FM-12+0018ENBJ V0200301N005012200019N0200001N1-00471-00811102091ADDAA112000021AY181061AY221061GF102991021081008001001001KA1120M-00421MA1999999101881MD1210051+9999MW1261REMSYN094AAXX  14181 01028 11570 20305 11047 21081 30188 40209 52005 69922 72682 82800 333 11042 91113;
0161010280999992013011419004+74517+019000FM-12+0018ENBJ V0200401N007012200019N0200001N1-00481-00781102111ADDAY101999AY201999GF102991021081008001001001MA1999999101901MD1210051+9999MW1021REMSYN072AAXX  14191 01028 41570 20407 11048 21078 30190 40211 52005 70200 82800;
0161010280999992013011420004+74517+019000FM-12+0018ENBJ V0200401N005012200019N0200001N1-00481-00851102121ADDAY101999AY201999GF103991031081008001001001MA1999999101911MD1210051+9999MW1021REMSYN072AAXX  14201 01028 41570 30405 11048 21085 30191 40212 52005 70200 83800;
0161010280999992013011421004+74517+019000FM-12+0018ENBJ V0200501N005012200019N0200001N1-00511-00861102131ADDAY101031AY201031GF103991031081008001001001MA1999999101921MD1210041+9999MW1021REMSYN072AAXX  14211 01028 41570 30505 11051 21086 30192 40213 52004 70200 83800;
0161010280999992013011422004+74517+019000FM-12+0018ENBJ V0200501N004010120019N0200001N1-00511-00911102151ADDAY171999AY211999GF105991051081008001001001MA1999999101941MD1210031+9999MW1261REMSYN072AAXX  14221 01028 41570 50504 11051 21091 30194 40215 52003 72671 85800;
0161010280999992013011423004+74517+019000FM-12+0018ENBJ V0200501N004010120019N0200001N1-00501-00951102151ADDAY121999AY221999GF106991061081008001001001MA1999999101941MD1210031+9999MW1021REMSYN072AAXX  14231 01028 41570 60504 11050 21095 30194 40215 52003 70222 86800;
0188010280999992013011500004+74517+019000FM-12+0018ENBJ V0200301N005010120019N0200001N1-00501-01041102181ADDAA106000021AY181061AY221061GF105991051081008001001001MA1999999101971MD1210051+9999MW1261REMSYN088AAXX  15001 01028 11570 50305 11050 21104 30197 40218 52005 69901 72682 85800 333 91109;
0161010280999992013011501004+74517+019000FM-12+0018ENBJ V0200501N004010120019N0200001N1-00511-01081102171ADDAY121999AY221999GF106991061081008001001001MA1999999101961MD1210031+9999MW1021REMSYN072AAXX  15011 01028 41570 60504 11051 21108 30196 40217 52003 70222 86800;
0161010280999992013011502004+74517+019000FM-12+0018ENBJ V0200501N004012200019N0200001N1-00591-01121102151ADDAY121999AY211999GF104991041081008001001001MA1999999101941MD1010001+9999MW1011REMSYN072AAXX  15021 01028 41570 40504 11059 21112 30194 40215 50000 70121 84800;
0161010280999992013011503004+74517+019000FM-12+0018ENBJ V0200601N003012200019N0200001N1-00651-01151102151ADDAY121031AY211031GF104991041081008001001001MA1999999101941MD1710031+9999MW1021REMSYN072AAXX  15031 01028 41570 40603 11065 21115 30194 40215 57003 70221 84800;
0161010280999992013011504004+74517+019000FM-12+0018ENBJ V0200801N003012200019N0200001N1-00701-01181102111ADDAY111999AY201999GF102991021081008001001001MA1999999101901MD1710061+9999MW1011REMSYN072AAXX  15041 01028 41570 20803 11070 21118 30190 40211 57006 70110 82800;
0161010280999992013011505004+74517+019000FM-12+0018ENBJ V0201001N001012200019N0200001N1-00761-01221102101ADDAY101999AY201999GF102991021081008001001001MA1999999101891MD1710051+9999MW1021REMSYN072AAXX  15051 01028 41570 21001 11076 21122 30189 40210 57005 70200 82800;
0272010280999992013011506004+74517+019000FM-12+0018ENBJ V0200901N002010150019N0200001N1-00721-01151102081ADDAA112000021AA224000391AJ199991999999999AY121061AY211061GF106991061081012501001001IA1229KA1999N-00801MA1999999101871MD1710061+9999MW1031REMSYN106AAXX  15061 01028 11670 60902 11072 21115 30187 40208 57006 69902 70321 86800 333 21080 46999 70002 91107;EQDQ01  09962SNDP  
0161010280999992013011507004+74517+019000FM-12+0018ENBJ V0200901N002010150019N0100001N1-00701-01061102081ADDAY181999AY221999GF107991071081012501001001MA1999999101871MD1710031+9999MW1851REMSYN072AAXX  15071 01028 41660 70902 11070 21106 30187 40208 57003 78582 87800;
0161010280999992013011508004+74517+019000FM-12+0018ENBJ V0200901N002012200019N0250001N1-00701-01041102051ADDAY181999AY211999GF103991031081012501001001MA1999999101841MD1710051+9999MW1261REMSYN072AAXX  15081 01028 41675 30902 11070 21104 30184 40205 57005 72681 83800;
0161010280999992013011509004+74517+019000FM-12+0018ENBJ V0201001N004012200019N0250001N1-00791-01101102031ADDAY181031AY221031GF102991021081012501001001MA1999999101821MD1710051+9999MW1011REMSYN072AAXX  15091 01028 41675 21004 11079 21110 30182 40203 57005 70182 82800;
0161010280999992013011510004+74517+019000FM-12+0018ENBJ V0201101N003012200019N0250001N1-00801-01091102021ADDAY101999AY201999GF102991021081012501001001MA1999999101811MD1710061+9999MW1021REMSYN072AAXX  15101 01028 41675 21103 11080 21109 30181 40202 57006 70200 82800;
0161010280999992013011511004+74517+019000FM-12+0018ENBJ V0201001N005012200019N0250001N1-00751-01021102001ADDAY101999AY201999GF102991021081012501001001MA1999999101791MD1710051+9999MW1021REMSYN072AAXX  15111 01028 41675 21005 11075 21102 30179 40200 57005 70200 82800;
0208010280999992013011512004+74517+019000FM-12+0018ENBJ V0201001N005010120019N0250001N1-00571-00841101961ADDAA106000021AY181061AY221061GF107991071081008001999999MA1999999101751MD1810071+9999MW1031SA1-0019REMSYN100AAXX  15121 01028 11575 71005 11057 21084 30175 40196 58007 69901 70382 878// 222// 01001 333 91106;
0161010280999992013011513004+74517+019000FM-12+0018ENBJ V0201101N004010120019N0200001N1-00511-00781101921ADDAY121999AY221999GF106991061081008001001001MA1999999101711MD1810101+9999MW1021REMSYN072AAXX  15131 01028 41570 61104 11051 21078 30171 40192 58010 70222 86800;
0161010280999992013011514004+74517+019000FM-12+0018ENBJ V0201201N005012200019N0250001N1-00671-00941101871ADDAY121999AY211999GF103991031081008001001001MA1999999101661MD1710131+9999MW1011REMSYN072AAXX  15141 01028 41575 31205 11067 21094 30166 40187 57013 70121 83800;
0161010280999992013011515004+74517+019000FM-12+0018ENBJ V0201101N006012200019N0250001N1-00731-00991101811ADDAY121031AY211031GF103991031081008001001001MA1999999101601MD1710151+9999MW1021REMSYN072AAXX  15151 01028 41575 31106 11073 21099 30160 40181 57015 70221 83800;
0161010280999992013011516004+74517+019000FM-12+0018ENBJ V0201201N006012200019N0250001N1-00711-00961101761ADDAY101999AY201999GF103991031081008001001001MA1999999101551MD1710161+9999MW1021REMSYN072AAXX  15161 01028 41575 31206 11071 21096 30155 40176 57016 70200 83800;
0161010280999992013011517004+74517+019000FM-12+0018ENBJ V0201101N007012200019N0250001N1-00521-00771101701ADDAY111999AY201999GF104991041081012501001001MA1999999101491MD1710171+9999MW1031REMSYN072AAXX  15171 01028 41675 41107 11052 21077 30149 40170 57017 70310 84800;
0207010280999992013011518004+74517+019000FM-12+0018ENBJ V0201201N006010120019N0200001N1-00411-00681101631ADDAA112000021AY121061AY211061GF106991061081008001001001KA1120M-00411MA1999999101421MD1710181+9999MW1031REMSYN094AAXX  15181 01028 11570 61206 11041 21068 30142 40163 57018 69902 70321 86800 333 11041 91108;
0161010280999992013011519004+74517+019000FM-12+0018ENBJ V0201301N007010120019N0200001N1-00281-00581101541ADDAY121999AY221999GF107991071081008001999999MA1999999101341MD1810201+9999MW1031REMSYN072AAXX  15191 01028 41570 71307 11028 21058 30134 40154 58020 70322 878//;
0161010280999992013011520004+74517+019000FM-12+0018ENBJ V0201301N008010120019N0200001N1-00241-00581101441ADDAY121999AY221999GF107991071081008001999999MA1999999101241MD1810251+9999MW1021REMSYN072AAXX  15201 01028 41570 71308 11024 21058 30124 40144 58025 70222 878//;
0161010280999992013011521004+74517+019000FM-12+0018ENBJ V0201401N009010120019N0200001N1-00171-00501101361ADDAY121031AY221031GF108991081081008001999999MA1999999101161MD1810271+9999MW1031REMSYN072AAXX  15211 01028 41570 81409 11017 21050 30116 40136 58027 70322 888//;
0161010280999992013011522004+74517+019000FM-12+0018ENBJ V0201501N010010120019N0150001N1-00101-00381101251ADDAY181999AY221999GF108991081081008001999999MA1999999101051MD1810291+9999MW1851REMSYN072AAXX  15221 01028 41565 81510 11010 21038 30105 40125 58029 78582 888//;
0161010280999992013011523004+74517+019000FM-12+0018ENBJ V0201601N011010120019N0100001N1-00091-00271101161ADDAY181999AY271999GF108991081081008001999999MA1999999100961MD1810271+9999MW1851REMSYN072AAXX  15231 01028 41560 81611 11009 21027 30096 40116 58027 78587 888//;
0188010280999992013011600004+74517+019000FM-12+0018ENBJ V0201601N012010090019N0060001N1-00051-00211101041ADDAA106000021AY181061AY231061GF108991081081004501999999MA1999999100841MD1810321+9999MW1851REMSYN088AAXX  16001 01028 11456 81612 11005 21021 30084 40104 58032 69901 78583 888// 333 91115;
0161010280999992013011601004+74517+019000FM-12+0018ENBJ V0201601N014010090019N0010001N1+00001-00131100911ADDAY181999AY231999GF108991081081004501999999MA1999999100711MD1810351+9999MW1861REMSYN072AAXX  16011 01028 41410 81614 10000 21013 30071 40091 58035 78683 888//;
0161010280999992013011602004+74517+019000FM-12+0018ENBJ V0201701N015010240019N0010001N1+00071-00071100791ADDAY181999AY271999GF108991041071004501021999MA1999999100591MD1710371+9999MW1691REMSYN072AAXX  16021 01028 41410 81715 10007 21007 30059 40079 57037 76987 8472/;
0161010280999992013011603004+74517+019000FM-12+0018ENBJ V0201801N012010240019N0050001N1+00121+00001100771ADDAY181031AY271031GF108991041071004501021999MA1999999100571MD1610271+9999MW1681REMSYN072AAXX  16031 01028 41450 81812 10012 21000 30057 40077 56027 76887 8472/;
0161010280999992013011604004+74517+019000FM-12+0018ENBJ V0202301N007010240019N0100001N1+00171+00031100741ADDAY171999AY221999GF108991041071008001021999MA1999999100541MD1610161+9999MW1231REMSYN072AAXX  16041 01028 41560 82307 10017 20003 30054 40074 56016 72372 8472/;
0161010280999992013011605004+74517+019000FM-12+0018ENBJ V0202201N005010120019N0100001N1+00151+00011100711ADDAY121999AY221999GF108991081081008001999999MA1999999100511MD1610081+9999MW1021REMSYN072AAXX  16051 01028 41560 82205 10015 20001 30051 40071 56008 70222 888//;
0224010280999992013011606004+74517+019000FM-12+0018ENBJ V0202401N004010240019N0100001N1+00151+00001100701ADDAA112001091AA224001091AY181061AY271061GF108991021071008001021999KA1999N-00411MA1999999100501MD1710071+9999MW1601REMSYN100AAXX  16061 01028 11560 82404 10015 20000 30050 40070 57007 60012 76087 8272/ 333 21041 70011 91119;
0161010280999992013011607004+74517+019000FM-12+0018ENBJ V0202201N005010120019N0100001N1+00111-00061100681ADDAY161999AY251999GF108991081001012501021999MA1999999100481MD1710061+9999MW1501REMSYN072AAXX  16071 01028 41660 82205 10011 21006 30048 40068 57006 75065 8802/;
0161010280999992013011608004+74517+019000FM-12+0018ENBJ V0202501N006010075019N0100001N1+00101-00061100681ADDAY161999AY251999GF108991081001008001021999MA1999999100481MD1710031+9999MW1611REMSYN072AAXX  16081 01028 41560 82506 10010 21006 30048 40068 57003 76165 8802/;
