0090010270999992013010100004+69650+018900FM-12+002099999V02099999999999999999N9999999N1-00301-00531999999ADDAA106000091REMSYN048AAXX  01001 01027 16/// ///// 11030 21053 60001;EQDQ01  00002PRCP06
0075010270999992013010101004+69650+018900FM-12+002099999V02099999999999999999N9999999N1-00341-00561999999ADDAA101000021REMSYN052AAXX  01011 01027 26/// ///// 11034 21056 333 60005;
0075010270999992013010102004+69650+018900FM-12+002099999V02099999999999999999N9999999N1-00351-00561999999ADDAA101000021REMSYN052AAXX  01021 01027 26/// ///// 11035 21056 333 60005;
0075010270999992013010103004+69650+018900FM-12+002099999V02099999999999999999N9999999N1-00331-00541999999ADDAA101000021REMSYN052AAXX  01031 01027 26/// ///// 11033 21054 333 60005;
0075010270999992013010104004+69650+018900FM-12+002099999V02099999999999999999N9999999N1-00301-00531999999ADDAA101000021REMSYN052AAXX  01041 01027 26/// ///// 11030 21053 333 60005;
0075010270999992013010105004+69650+018900FM-12+002099999V02099999999999999999N9999999N1-00301-00531999999ADDAA101000021REMSYN052AAXX  01051 01027 26/// ///// 11030 21053 333 60005;
0146010270999992013010106004+69650+018900FM-12+002099999V02099999999999999999N9999999N1-00321-00611999999ADDAA112000091AA224000091KA1999N-00401REMSYN064AAXX  01061 01027 16/// ///// 11032 21061 60002 333 21040 70000;EQDQ01  00002PRCP24Q02  00002PRCP12
0075010270999992013010107004+69650+018900FM-12+002099999V02099999999999999999N9999999N1-00291-00581999999ADDAA101000021REMSYN052AAXX  01071 01027 26/// ///// 11029 21058 333 60005;
0075010270999992013010108004+69650+018900FM-12+002099999V02099999999999999999N9999999N1-00161-00581999999ADDAA101000021REMSYN052AAXX  01081 01027 26/// ///// 11016 21058 333 60005;
0075010270999992013010109004+69650+018900FM-12+002099999V02099999999999999999N9999999N1-00111-00631999999ADDAA101000021REMSYN052AAXX  01091 01027 26/// ///// 11011 21063 333 60005;
0075010270999992013010110004+69650+018900FM-12+002099999V02099999999999999999N9999999N1-00211-00671999999ADDAA101000021REMSYN052AAXX  01101 01027 26/// ///// 11021 21067 333 60005;
0075010270999992013010111004+69650+018900FM-12+002099999V02099999999999999999N9999999N1-00321-00691999999ADDAA101000021REMSYN052AAXX  01111 01027 26/// ///// 11032 21069 333 60005;
0090010270999992013010112004+69650+018900FM-12+002099999V02099999999999999999N9999999N1-00291-00591999999ADDAA106000091REMSYN048AAXX  01121 01027 16/// ///// 11029 21059 60001;EQDQ01  00002PRCP06
0075010270999992013010113004+69650+018900FM-12+002099999V02099999999999999999N9999999N1-00341-00711999999ADDAA101000021REMSYN052AAXX  01131 01027 26/// ///// 11034 21071 333 60005;
0075010270999992013010114004+69650+018900FM-12+002099999V02099999999999999999N9999999N1-00331-00741999999ADDAA101000021REMSYN052AAXX  01141 01027 26/// ///// 11033 21074 333 60005;
0075010270999992013010115004+69650+018900FM-12+002099999V02099999999999999999N9999999N1-00421-00771999999ADDAA101000021REMSYN052AAXX  01151 01027 26/// ///// 11042 21077 333 60005;
0075010270999992013010116004+69650+018900FM-12+002099999V02099999999999999999N9999999N1-00441-00801999999ADDAA101000021REMSYN052AAXX  01161 01027 26/// ///// 11044 21080 333 60005;
0075010270999992013010117004+69650+018900FM-12+002099999V02099999999999999999N9999999N1-00471-00821999999ADDAA101000021REMSYN052AAXX  01171 01027 26/// ///// 11047 21082 333 60005;
0113010270999992013010118004+69650+018900FM-12+002099999V02099999999999999999N9999999N1-00461-00801999999ADDAA112000091KA1999M-00091REMSYN058AAXX  01181 01027 16/// ///// 11046 21080 60002 333 11009;EQDQ01  00002PRCP12
0075010270999992013010119004+69650+018900FM-12+002099999V02099999999999999999N9999999N1-00421-00721999999ADDAA101000021REMSYN052AAXX  01191 01027 26/// ///// 11042 21072 333 60005;
0075010270999992013010120004+69650+018900FM-12+002099999V02099999999999999999N9999999N1-00501-00751999999ADDAA101000021REMSYN052AAXX  01201 01027 26/// ///// 11050 21075 333 60005;
0075010270999992013010121004+69650+018900FM-12+002099999V02099999999999999999N9999999N1-00461-00741999999ADDAA101000021REMSYN052AAXX  01211 01027 26/// ///// 11046 21074 333 60005;
0075010270999992013010122004+69650+018900FM-12+002099999V02099999999999999999N9999999N1-00491-00711999999ADDAA101000021REMSYN052AAXX  01221 01027 26/// ///// 11049 21071 333 60005;
0075010270999992013010123004+69650+018900FM-12+002099999V02099999999999999999N9999999N1-00491-00651999999ADDAA101000021REMSYN052AAXX  01231 01027 26/// ///// 11049 21065 333 60005;
0090010270999992013010200004+69650+018900FM-12+002099999V02099999999999999999N9999999N1-00501-00611999999ADDAA106000091REMSYN048AAXX  02001 01027 16/// ///// 11050 21061 60001;EQDQ01  00002PRCP06
0075010270999992013010201004+69650+018900FM-12+002099999V02099999999999999999N9999999N1-00531-00621999999ADDAA101000021REMSYN052AAXX  02011 01027 26/// ///// 11053 21062 333 60005;
0075010270999992013010202004+69650+018900FM-12+002099999V02099999999999999999N9999999N1-00561-00641999999ADDAA101000021REMSYN052AAXX  02021 01027 26/// ///// 11056 21064 333 60005;
0075010270999992013010203004+69650+018900FM-12+002099999V02099999999999999999N9999999N1-00471-00551999999ADDAA101000021REMSYN052AAXX  02031 01027 26/// ///// 11047 21055 333 60005;
0075010270999992013010204004+69650+018900FM-12+002099999V02099999999999999999N9999999N1-00561-00641999999ADDAA101000021REMSYN052AAXX  02041 01027 26/// ///// 11056 21064 333 60005;
0075010270999992013010205004+69650+018900FM-12+002099999V02099999999999999999N9999999N1-00531-00611999999ADDAA101000021REMSYN052AAXX  02051 01027 26/// ///// 11053 21061 333 60005;
0146010270999992013010206004+69650+018900FM-12+002099999V02099999999999999999N9999999N1-00441-00511999999ADDAA112000091AA224000091KA1999N-00571REMSYN064AAXX  02061 01027 16/// ///// 11044 21051 60002 333 21057 70000;EQDQ01  00002PRCP24Q02  00002PRCP12
0075010270999992013010207004+69650+018900FM-12+002099999V02099999999999999999N9999999N1-00341-00401999999ADDAA101000021REMSYN052AAXX  02071 01027 26/// ///// 11034 21040 333 60005;
0075010270999992013010208004+69650+018900FM-12+002099999V02099999999999999999N9999999N1-00351-00411999999ADDAA101000021REMSYN052AAXX  02081 01027 26/// ///// 11035 21041 333 60005;
0075010270999992013010209004+69650+018900FM-12+002099999V02099999999999999999N9999999N1-00421-00491999999ADDAA101000021REMSYN052AAXX  02091 01027 26/// ///// 11042 21049 333 60005;
0075010270999992013010210004+69650+018900FM-12+002099999V02099999999999999999N9999999N1-00451-00521999999ADDAA101000021REMSYN052AAXX  02101 01027 26/// ///// 11045 21052 333 60005;
0075010270999992013010211004+69650+018900FM-12+002099999V02099999999999999999N9999999N1-00341-00391999999ADDAA101000021REMSYN052AAXX  02111 01027 26/// ///// 11034 21039 333 60005;
0090010270999992013010212004+69650+018900FM-12+002099999V02099999999999999999N9999999N1-00331-00391999999ADDAA106000091REMSYN048AAXX  02121 01027 16/// ///// 11033 21039 60001;EQDQ01  00002PRCP06
0075010270999992013010213004+69650+018900FM-12+002099999V02099999999999999999N9999999N1-00301-00371999999ADDAA101000021REMSYN052AAXX  02131 01027 26/// ///// 11030 21037 333 60005;
0075010270999992013010214004+69650+018900FM-12+002099999V02099999999999999999N9999999N1-00291-00381999999ADDAA101000021REMSYN052AAXX  02141 01027 26/// ///// 11029 21038 333 60005;
0075010270999992013010215004+69650+018900FM-12+002099999V02099999999999999999N9999999N1-00271-00391999999ADDAA101000021REMSYN052AAXX  02151 01027 26/// ///// 11027 21039 333 60005;
0075010270999992013010216004+69650+018900FM-12+002099999V02099999999999999999N9999999N1-00231-00391999999ADDAA101000021REMSYN052AAXX  02161 01027 26/// ///// 11023 21039 333 60005;
0075010270999992013010217004+69650+018900FM-12+002099999V02099999999999999999N9999999N1-00221-00401999999ADDAA101000021REMSYN052AAXX  02171 01027 26/// ///// 11022 21040 333 60005;
0113010270999992013010218004+69650+018900FM-12+002099999V02099999999999999999N9999999N1-00191-00381999999ADDAA112000091KA1999M-00191REMSYN058AAXX  02181 01027 16/// ///// 11019 21038 60002 333 11019;EQDQ01  00002PRCP12
0075010270999992013010219004+69650+018900FM-12+002099999V02099999999999999999N9999999N1-00201-00411999999ADDAA101000021REMSYN052AAXX  02191 01027 26/// ///// 11020 21041 333 60005;
0075010270999992013010220004+69650+018900FM-12+002099999V02099999999999999999N9999999N1-00181-00421999999ADDAA101000021REMSYN052AAXX  02201 01027 26/// ///// 11018 21042 333 60005;
0075010270999992013010221004+69650+018900FM-12+002099999V02099999999999999999N9999999N1-00171-00391999999ADDAA101000021REMSYN052AAXX  02211 01027 26/// ///// 11017 21039 333 60005;
0075010270999992013010222004+69650+018900FM-12+002099999V02099999999999999999N9999999N1-00151-00361999999ADDAA101000021REMSYN052AAXX  02221 01027 26/// ///// 11015 21036 333 60005;
0075010270999992013010223004+69650+018900FM-12+002099999V02099999999999999999N9999999N1-00101-00381999999ADDAA101000021REMSYN052AAXX  02231 01027 26/// ///// 11010 21038 333 60005;
0090010270999992013010300004+69650+018900FM-12+002099999V02099999999999999999N9999999N1-00081-00421999999ADDAA106000091REMSYN048AAXX  03001 01027 16/// ///// 11008 21042 60001;EQDQ01  00002PRCP06
0075010270999992013010301004+69650+018900FM-12+002099999V02099999999999999999N9999999N1-00091-00371999999ADDAA101000021REMSYN052AAXX  03011 01027 26/// ///// 11009 21037 333 60005;
0075010270999992013010302004+69650+018900FM-12+002099999V02099999999999999999N9999999N1-00061-00361999999ADDAA101000021REMSYN052AAXX  03021 01027 26/// ///// 11006 21036 333 60005;
0075010270999992013010303004+69650+018900FM-12+002099999V02099999999999999999N9999999N1-00021-00351999999ADDAA101000021REMSYN052AAXX  03031 01027 26/// ///// 11002 21035 333 60005;
0075010270999992013010304004+69650+018900FM-12+002099999V02099999999999999999N9999999N1-00011-00341999999ADDAA101000021REMSYN052AAXX  03041 01027 26/// ///// 11001 21034 333 60005;
0075010270999992013010305004+69650+018900FM-12+002099999V02099999999999999999N9999999N1-00011-00361999999ADDAA101000021REMSYN052AAXX  03051 01027 26/// ///// 11001 21036 333 60005;
0146010270999992013010306004+69650+018900FM-12+002099999V02099999999999999999N9999999N1+00031-00401999999ADDAA112000091AA224000091KA1999N-00221REMSYN064AAXX  03061 01027 16/// ///// 10003 21040 60002 333 21022 70000;EQDQ01  00002PRCP24Q02  00002PRCP12
0075010270999992013010308004+69650+018900FM-12+002099999V02099999999999999999N9999999N1+00031-00351999999ADDAA101000021REMSYN052AAXX  03081 01027 26/// ///// 10003 21035 333 60005;
0075010270999992013010309004+69650+018900FM-12+002099999V02099999999999999999N9999999N1+00031-00311999999ADDAA101000021REMSYN052AAXX  03091 01027 26/// ///// 10003 21031 333 60005;
0075010270999992013010310004+69650+018900FM-12+002099999V02099999999999999999N9999999N1-00051-00351999999ADDAA101000021REMSYN052AAXX  03101 01027 26/// ///// 11005 21035 333 60005;
0075010270999992013010311004+69650+018900FM-12+002099999V02099999999999999999N9999999N1-00181-00381999999ADDAA101000021REMSYN052AAXX  03111 01027 26/// ///// 11018 21038 333 60005;
0090010270999992013010312004+69650+018900FM-12+002099999V02099999999999999999N9999999N1-00281-00471999999ADDAA106000091REMSYN048AAXX  03121 01027 16/// ///// 11028 21047 60001;EQDQ01  00002PRCP06
0075010270999992013010313004+69650+018900FM-12+002099999V02099999999999999999N9999999N1-00351-00511999999ADDAA101000021REMSYN052AAXX  03131 01027 26/// ///// 11035 21051 333 60005;
0075010270999992013010314004+69650+018900FM-12+002099999V02099999999999999999N9999999N1-00401-00531999999ADDAA101000021REMSYN052AAXX  03141 01027 26/// ///// 11040 21053 333 60005;
0075010270999992013010315004+69650+018900FM-12+002099999V02099999999999999999N9999999N1-00451-00561999999ADDAA101000021REMSYN052AAXX  03151 01027 26/// ///// 11045 21056 333 60005;
0075010270999992013010316004+69650+018900FM-12+002099999V02099999999999999999N9999999N1-00451-00541999999ADDAA101000021REMSYN052AAXX  03161 01027 26/// ///// 11045 21054 333 60005;
0075010270999992013010317004+69650+018900FM-12+002099999V02099999999999999999N9999999N1-00431-00511999999ADDAA101000021REMSYN052AAXX  03171 01027 26/// ///// 11043 21051 333 60005;
0113010270999992013010318004+69650+018900FM-12+002099999V02099999999999999999N9999999N1-00481-00551999999ADDAA112000091KA1999M+00061REMSYN058AAXX  03181 01027 16/// ///// 11048 21055 60002 333 10006;EQDQ01  00002PRCP12
0075010270999992013010319004+69650+018900FM-12+002099999V02099999999999999999N9999999N1-00491-00561999999ADDAA101000021REMSYN052AAXX  03191 01027 26/// ///// 11049 21056 333 60005;
0075010270999992013010320004+69650+018900FM-12+002099999V02099999999999999999N9999999N1-00531-00611999999ADDAA101000021REMSYN052AAXX  03201 01027 26/// ///// 11053 21061 333 60005;
0075010270999992013010321004+69650+018900FM-12+002099999V02099999999999999999N9999999N1-00531-00601999999ADDAA101000021REMSYN052AAXX  03211 01027 26/// ///// 11053 21060 333 60005;
0075010270999992013010322004+69650+018900FM-12+002099999V02099999999999999999N9999999N1-00481-00541999999ADDAA101000021REMSYN052AAXX  03221 01027 26/// ///// 11048 21054 333 60005;
0075010270999992013010323004+69650+018900FM-12+002099999V02099999999999999999N9999999N1-00381-00431999999ADDAA101000021REMSYN052AAXX  03231 01027 26/// ///// 11038 21043 333 60005;
0090010270999992013010400004+69650+018900FM-12+002099999V02099999999999999999N9999999N1-00351-00411999999ADDAA106000091REMSYN048AAXX  04001 01027 16/// ///// 11035 21041 60001;EQDQ01  00002PRCP06
0075010270999992013010401004+69650+018900FM-12+002099999V02099999999999999999N9999999N1-00291-00371999999ADDAA101000021REMSYN052AAXX  04011 01027 26/// ///// 11029 21037 333 60005;
0075010270999992013010402004+69650+018900FM-12+002099999V02099999999999999999N9999999N1-00311-00401999999ADDAA101000021REMSYN052AAXX  04021 01027 26/// ///// 11031 21040 333 60005;
0075010270999992013010403004+69650+018900FM-12+002099999V02099999999999999999N9999999N1-00271-00411999999ADDAA101000021REMSYN052AAXX  04031 01027 26/// ///// 11027 21041 333 60005;
0075010270999992013010404004+69650+018900FM-12+002099999V02099999999999999999N9999999N1-00251-00421999999ADDAA101000021REMSYN052AAXX  04041 01027 26/// ///// 11025 21042 333 60005;
0075010270999992013010405004+69650+018900FM-12+002099999V02099999999999999999N9999999N1-00231-00461999999ADDAA101000021REMSYN052AAXX  04051 01027 26/// ///// 11023 21046 333 60005;
0146010270999992013010406004+69650+018900FM-12+002099999V02099999999999999999N9999999N1-00211-00461999999ADDAA112000091AA224000091KA1999N-00541REMSYN064AAXX  04061 01027 16/// ///// 11021 21046 60002 333 21054 70000;EQDQ01  00002PRCP24Q02  00002PRCP12
0075010270999992013010407004+69650+018900FM-12+002099999V02099999999999999999N9999999N1-00201-00491999999ADDAA101000021REMSYN052AAXX  04071 01027 26/// ///// 11020 21049 333 60005;
0075010270999992013010408004+69650+018900FM-12+002099999V02099999999999999999N9999999N1-00251-00301999999ADDAA101001091REMSYN052AAXX  04081 01027 26/// ///// 11025 21030 333 60015;
0075010270999992013010409004+69650+018900FM-12+002099999V02099999999999999999N9999999N1-00211-00261999999ADDAA101000591REMSYN052AAXX  04091 01027 26/// ///// 11021 21026 333 69955;
0075010270999992013010410004+69650+018900FM-12+002099999V02099999999999999999N9999999N1-00181-00231999999ADDAA101000591REMSYN052AAXX  04101 01027 26/// ///// 11018 21023 333 69945;
0075010270999992013010411004+69650+018900FM-12+002099999V02099999999999999999N9999999N1-00171-00201999999ADDAA101001091REMSYN052AAXX  04111 01027 26/// ///// 11017 21020 333 69995;
0071010270999992013010412004+69650+018900FM-12+002099999V02099999999999999999N9999999N1-00091-00131999999ADDAA106003091REMSYN048AAXX  04121 01027 16/// ///// 11009 21013 60031;
0075010270999992013010413004+69650+018900FM-12+002099999V02099999999999999999N9999999N1-00091-00131999999ADDAA101002091REMSYN052AAXX  04131 01027 26/// ///// 11009 21013 333 60025;
0075010270999992013010414004+69650+018900FM-12+002099999V02099999999999999999N9999999N1-00031-00071999999ADDAA101001091REMSYN052AAXX  04141 01027 26/// ///// 11003 21007 333 60015;
0075010270999992013010415004+69650+018900FM-12+002099999V02099999999999999999N9999999N1+00011-00031999999ADDAA101000591REMSYN052AAXX  04151 01027 26/// ///// 10001 21003 333 69955;
0075010270999992013010416004+69650+018900FM-12+002099999V02099999999999999999N9999999N1+00041-00011999999ADDAA101000021REMSYN052AAXX  04161 01027 26/// ///// 10004 21001 333 60005;
0075010270999992013010417004+69650+018900FM-12+002099999V02099999999999999999N9999999N1+00061-00011999999ADDAA101000391REMSYN052AAXX  04171 01027 26/// ///// 10006 21001 333 69935;
0094010270999992013010418004+69650+018900FM-12+002099999V02099999999999999999N9999999N1+00091-00011999999ADDAA112007191KA1999M+00111REMSYN058AAXX  04181 01027 16/// ///// 10009 21001 60072 333 10011;
0075010270999992013010419004+69650+018900FM-12+002099999V02099999999999999999N9999999N1+00091+00001999999ADDAA101000591REMSYN052AAXX  04191 01027 26/// ///// 10009 20000 333 69955;
0075010270999992013010420004+69650+018900FM-12+002099999V02099999999999999999N9999999N1+00071+00001999999ADDAA101000891REMSYN052AAXX  04201 01027 26/// ///// 10007 21000 333 69975;
0075010270999992013010421004+69650+018900FM-12+002099999V02099999999999999999N9999999N1+00141+00011999999ADDAA101000021REMSYN052AAXX  04211 01027 26/// ///// 10014 20001 333 60005;
0075010270999992013010422004+69650+018900FM-12+002099999V02099999999999999999N9999999N1+00061-00041999999ADDAA101000021REMSYN052AAXX  04221 01027 26/// ///// 10006 21004 333 60005;
0075010270999992013010423004+69650+018900FM-12+002099999V02099999999999999999N9999999N1+00051-00041999999ADDAA101000591REMSYN052AAXX  04231 01027 26/// ///// 10005 21004 333 69945;
0071010270999992013010500004+69650+018900FM-12+002099999V02099999999999999999N9999999N1+00061+00001999999ADDAA106002091REMSYN048AAXX  05001 01027 16/// ///// 10006 21000 60021;
0075010270999992013010501004+69650+018900FM-12+002099999V02099999999999999999N9999999N1+00101+00031999999ADDAA101000021REMSYN052AAXX  05011 01027 26/// ///// 10010 20003 333 60005;
0075010270999992013010502004+69650+018900FM-12+002099999V02099999999999999999N9999999N1+00111+00031999999ADDAA101000021REMSYN052AAXX  05021 01027 26/// ///// 10011 20003 333 60005;
0075010270999992013010503004+69650+018900FM-12+002099999V02099999999999999999N9999999N1+00111+00031999999ADDAA101000021REMSYN052AAXX  05031 01027 26/// ///// 10011 20003 333 60005;
0075010270999992013010504004+69650+018900FM-12+002099999V02099999999999999999N9999999N1+00051-00011999999ADDAA101000891REMSYN052AAXX  05041 01027 26/// ///// 10005 21001 333 69975;
0075010270999992013010505004+69650+018900FM-12+002099999V02099999999999999999N9999999N1+00111+00041999999ADDAA101001091REMSYN052AAXX  05051 01027 26/// ///// 10011 20004 333 69995;
0111010270999992013010506004+69650+018900FM-12+002099999V02099999999999999999N9999999N1+00151+00041999999ADDAA112005191AA224011791KA1999N+00011REMSYN064AAXX  05061 01027 16/// ///// 10015 20004 60052 333 20001 70118;
0075010270999992013010507004+69650+018900FM-12+002099999V02099999999999999999N9999999N1+00191+00031999999ADDAA101000021REMSYN052AAXX  05071 01027 26/// ///// 10019 20003 333 60005;
0075010270999992013010508004+69650+018900FM-12+002099999V02099999999999999999N9999999N1+00191+00001999999ADDAA101000021REMSYN052AAXX  05081 01027 26/// ///// 10019 21000 333 60005;
0075010270999992013010509004+69650+018900FM-12+002099999V02099999999999999999N9999999N1+00191+00011999999ADDAA101000021REMSYN052AAXX  05091 01027 26/// ///// 10019 20001 333 60005;
0075010270999992013010510004+69650+018900FM-12+002099999V02099999999999999999N9999999N1+00171-00021999999ADDAA101000021REMSYN052AAXX  05101 01027 26/// ///// 10017 21002 333 60005;
0075010270999992013010511004+69650+018900FM-12+002099999V02099999999999999999N9999999N1+00221-00091999999ADDAA101000021REMSYN052AAXX  05111 01027 26/// ///// 10022 21009 333 60005;
0090010270999992013010512004+69650+018900FM-12+002099999V02099999999999999999N9999999N1+00231-00101999999ADDAA106000091REMSYN048AAXX  05121 01027 16/// ///// 10023 21010 60001;EQDQ01  00002PRCP06
0075010270999992013010513004+69650+018900FM-12+002099999V02099999999999999999N9999999N1+00191-00161999999ADDAA101000021REMSYN052AAXX  05131 01027 26/// ///// 10019 21016 333 60005;
0075010270999992013010514004+69650+018900FM-12+002099999V02099999999999999999N9999999N1+00221-00141999999ADDAA101000021REMSYN052AAXX  05141 01027 26/// ///// 10022 21014 333 60005;
0075010270999992013010515004+69650+018900FM-12+002099999V02099999999999999999N9999999N1+00131-00231999999ADDAA101000021REMSYN052AAXX  05151 01027 26/// ///// 10013 21023 333 60005;
0075010270999992013010516004+69650+018900FM-12+002099999V02099999999999999999N9999999N1+00131-00151999999ADDAA101000021REMSYN052AAXX  05161 01027 26/// ///// 10013 21015 333 60005;
0075010270999992013010517004+69650+018900FM-12+002099999V02099999999999999999N9999999N1+00051-00261999999ADDAA101000021REMSYN052AAXX  05171 01027 26/// ///// 10005 21026 333 60005;
0113010270999992013010518004+69650+018900FM-12+002099999V02099999999999999999N9999999N1+00011-00331999999ADDAA112000091KA1999M+00241REMSYN058AAXX  05181 01027 16/// ///// 10001 21033 60002 333 10024;EQDQ01  00002PRCP12
0075010270999992013010519004+69650+018900FM-12+002099999V02099999999999999999N9999999N1+00031-00351999999ADDAA101000021REMSYN052AAXX  05191 01027 26/// ///// 10003 21035 333 60005;
0075010270999992013010520004+69650+018900FM-12+002099999V02099999999999999999N9999999N1+00021-00381999999ADDAA101000021REMSYN052AAXX  05201 01027 26/// ///// 10002 21038 333 60005;
0075010270999992013010521004+69650+018900FM-12+002099999V02099999999999999999N9999999N1+00001-00321999999ADDAA101000021REMSYN052AAXX  05211 01027 26/// ///// 11000 21032 333 60005;
0075010270999992013010522004+69650+018900FM-12+002099999V02099999999999999999N9999999N1+00081-00361999999ADDAA101000021REMSYN052AAXX  05221 01027 26/// ///// 10008 21036 333 60005;
0075010270999992013010523004+69650+018900FM-12+002099999V02099999999999999999N9999999N1+00191-00601999999ADDAA101000021REMSYN052AAXX  05231 01027 26/// ///// 10019 21060 333 60005;
0090010270999992013010600004+69650+018900FM-12+002099999V02099999999999999999N9999999N1+00201-00691999999ADDAA106000091REMSYN048AAXX  06001 01027 16/// ///// 10020 21069 60001;EQDQ01  00002PRCP06
0075010270999992013010601004+69650+018900FM-12+002099999V02099999999999999999N9999999N1+00251-00651999999ADDAA101000021REMSYN052AAXX  06011 01027 26/// ///// 10025 21065 333 60005;
0075010270999992013010602004+69650+018900FM-12+002099999V02099999999999999999N9999999N1+00271-00691999999ADDAA101000021REMSYN052AAXX  06021 01027 26/// ///// 10027 21069 333 60005;
0075010270999992013010603004+69650+018900FM-12+002099999V02099999999999999999N9999999N1+00271-00641999999ADDAA101000021REMSYN052AAXX  06031 01027 26/// ///// 10027 21064 333 60005;
0075010270999992013010604004+69650+018900FM-12+002099999V02099999999999999999N9999999N1+00271-00691999999ADDAA101000021REMSYN052AAXX  06041 01027 26/// ///// 10027 21069 333 60005;
0075010270999992013010605004+69650+018900FM-12+002099999V02099999999999999999N9999999N1+00281-00691999999ADDAA101000021REMSYN052AAXX  06051 01027 26/// ///// 10028 21069 333 60005;
0146010270999992013010606004+69650+018900FM-12+002099999V02099999999999999999N9999999N1+00261-00591999999ADDAA112000091AA224000091KA1999N-00071REMSYN064AAXX  06061 01027 16/// ///// 10026 21059 60002 333 21007 70000;EQDQ01  00002PRCP24Q02  00002PRCP12
0075010270999992013010607004+69650+018900FM-12+002099999V02099999999999999999N9999999N1+00271-00571999999ADDAA101000021REMSYN052AAXX  06071 01027 26/// ///// 10027 21057 333 60005;
0075010270999992013010608004+69650+018900FM-12+002099999V02099999999999999999N9999999N1+00281-00371999999ADDAA101000021REMSYN052AAXX  06081 01027 26/// ///// 10028 21037 333 60005;
0075010270999992013010609004+69650+018900FM-12+002099999V02099999999999999999N9999999N1+00291-00411999999ADDAA101000021REMSYN052AAXX  06091 01027 26/// ///// 10029 21041 333 60005;
0075010270999992013010610004+69650+018900FM-12+002099999V02099999999999999999N9999999N1+00311-00471999999ADDAA101000021REMSYN052AAXX  06101 01027 26/// ///// 10031 21047 333 60005;
0075010270999992013010611004+69650+018900FM-12+002099999V02099999999999999999N9999999N1+00291-00291999999ADDAA101000021REMSYN052AAXX  06111 01027 26/// ///// 10029 21029 333 60005;
0090010270999992013010612004+69650+018900FM-12+002099999V02099999999999999999N9999999N1+00411-00331999999ADDAA106000091REMSYN048AAXX  06121 01027 16/// ///// 10041 21033 60001;EQDQ01  00002PRCP06
0075010270999992013010613004+69650+018900FM-12+002099999V02099999999999999999N9999999N1+00371-00231999999ADDAA101000021REMSYN052AAXX  06131 01027 26/// ///// 10037 21023 333 60005;
0075010270999992013010614004+69650+018900FM-12+002099999V02099999999999999999N9999999N1+00271-00091999999ADDAA101000021REMSYN052AAXX  06141 01027 26/// ///// 10027 21009 333 60005;
0075010270999992013010615004+69650+018900FM-12+002099999V02099999999999999999N9999999N1+00361+00031999999ADDAA101000891REMSYN052AAXX  06151 01027 26/// ///// 10036 20003 333 69975;
0075010270999992013010616004+69650+018900FM-12+002099999V02099999999999999999N9999999N1+00421+00051999999ADDAA101000021REMSYN052AAXX  06161 01027 26/// ///// 10042 20005 333 60005;
0075010270999992013010617004+69650+018900FM-12+002099999V02099999999999999999N9999999N1+00301+00021999999ADDAA101000021REMSYN052AAXX  06171 01027 26/// ///// 10030 20002 333 60005;
0094010270999992013010618004+69650+018900FM-12+002099999V02099999999999999999N9999999N1+00421+00121999999ADDAA112001091KA1999M+00441REMSYN058AAXX  06181 01027 16/// ///// 10042 20012 60012 333 10044;
0075010270999992013010619004+69650+018900FM-12+002099999V02099999999999999999N9999999N1+00471+00121999999ADDAA101000021REMSYN052AAXX  06191 01027 26/// ///// 10047 20012 333 60005;
0075010270999992013010620004+69650+018900FM-12+002099999V02099999999999999999N9999999N1+00421+00131999999ADDAA101000591REMSYN052AAXX  06201 01027 26/// ///// 10042 20013 333 69945;
0075010270999992013010621004+69650+018900FM-12+002099999V02099999999999999999N9999999N1+00351+00121999999ADDAA101000891REMSYN052AAXX  06211 01027 26/// ///// 10035 20012 333 69975;
0075010270999992013010622004+69650+018900FM-12+002099999V02099999999999999999N9999999N1+00491-00031999999ADDAA101000021REMSYN052AAXX  06221 01027 26/// ///// 10049 21003 333 60005;
0075010270999992013010623004+69650+018900FM-12+002099999V02099999999999999999N9999999N1+00361+00041999999ADDAA101000891REMSYN052AAXX  06231 01027 26/// ///// 10036 20004 333 69975;
0071010270999992013010700004+69650+018900FM-12+002099999V02099999999999999999N9999999N1+00351+00111999999ADDAA106003091REMSYN048AAXX  07001 01027 16/// ///// 10035 20011 60031;
0075010270999992013010701004+69650+018900FM-12+002099999V02099999999999999999N9999999N1+00301+00111999999ADDAA101000391REMSYN052AAXX  07011 01027 26/// ///// 10030 20011 333 69935;
0075010270999992013010702004+69650+018900FM-12+002099999V02099999999999999999N9999999N1+00341+00131999999ADDAA101001091REMSYN052AAXX  07021 01027 26/// ///// 10034 20013 333 69995;
0075010270999992013010703004+69650+018900FM-12+002099999V02099999999999999999N9999999N1+00321+00121999999ADDAA101000021REMSYN052AAXX  07031 01027 26/// ///// 10032 20012 333 60005;
0075010270999992013010704004+69650+018900FM-12+002099999V02099999999999999999N9999999N1+00301+00151999999ADDAA101002091REMSYN052AAXX  07041 01027 26/// ///// 10030 20015 333 60025;
0075010270999992013010705004+69650+018900FM-12+002099999V02099999999999999999N9999999N1+00331+00111999999ADDAA101000021REMSYN052AAXX  07051 01027 26/// ///// 10033 20011 333 60005;
0111010270999992013010706004+69650+018900FM-12+002099999V02099999999999999999N9999999N1+00321+00101999999ADDAA112006191AA224007191KA1999N+00291REMSYN064AAXX  07061 01027 16/// ///// 10032 20010 60062 333 20029 70072;
0075010270999992013010707004+69650+018900FM-12+002099999V02099999999999999999N9999999N1+00361+00091999999ADDAA101000021REMSYN052AAXX  07071 01027 26/// ///// 10036 20009 333 60005;
0075010270999992013010708004+69650+018900FM-12+002099999V02099999999999999999N9999999N1+00311+00081999999ADDAA101000021REMSYN052AAXX  07081 01027 26/// ///// 10031 20008 333 60005;
0075010270999992013010709004+69650+018900FM-12+002099999V02099999999999999999N9999999N1+00341+00081999999ADDAA101000021REMSYN052AAXX  07091 01027 26/// ///// 10034 20008 333 60005;
0075010270999992013010710004+69650+018900FM-12+002099999V02099999999999999999N9999999N1+00341+00051999999ADDAA101000021REMSYN052AAXX  07101 01027 26/// ///// 10034 20005 333 60005;
0075010270999992013010711004+69650+018900FM-12+002099999V02099999999999999999N9999999N1+00311+00081999999ADDAA101000021REMSYN052AAXX  07111 01027 26/// ///// 10031 20008 333 60005;
0090010270999992013010712004+69650+018900FM-12+002099999V02099999999999999999N9999999N1+00311+00081999999ADDAA106000091REMSYN048AAXX  07121 01027 16/// ///// 10031 20008 60001;EQDQ01  00002PRCP06
0075010270999992013010713004+69650+018900FM-12+002099999V02099999999999999999N9999999N1+00271+00091999999ADDAA101000021REMSYN052AAXX  07131 01027 26/// ///// 10027 20009 333 60005;
0075010270999992013010714004+69650+018900FM-12+002099999V02099999999999999999N9999999N1+00231+00001999999ADDAA101000021REMSYN052AAXX  07141 01027 26/// ///// 10023 20000 333 60005;
0075010270999992013010715004+69650+018900FM-12+002099999V02099999999999999999N9999999N1+00161-00021999999ADDAA101000021REMSYN052AAXX  07151 01027 26/// ///// 10016 21002 333 60005;
0075010270999992013010716004+69650+018900FM-12+002099999V02099999999999999999N9999999N1+00031-00091999999ADDAA101000021REMSYN052AAXX  07161 01027 26/// ///// 10003 21009 333 60005;
0075010270999992013010717004+69650+018900FM-12+002099999V02099999999999999999N9999999N1+00021-00071999999ADDAA101000021REMSYN052AAXX  07171 01027 26/// ///// 10002 21007 333 60005;
0113010270999992013010718004+69650+018900FM-12+002099999V02099999999999999999N9999999N1+00011-00071999999ADDAA112000091KA1999M+00381REMSYN058AAXX  07181 01027 16/// ///// 10001 21007 60002 333 10038;EQDQ01  00002PRCP12
0075010270999992013010719004+69650+018900FM-12+002099999V02099999999999999999N9999999N1-00041-00101999999ADDAA101000021REMSYN052AAXX  07191 01027 26/// ///// 11004 21010 333 60005;
0075010270999992013010720004+69650+018900FM-12+002099999V02099999999999999999N9999999N1-00071-00131999999ADDAA101000021REMSYN052AAXX  07201 01027 26/// ///// 11007 21013 333 60005;
0075010270999992013010721004+69650+018900FM-12+002099999V02099999999999999999N9999999N1-00081-00141999999ADDAA101000021REMSYN052AAXX  07211 01027 26/// ///// 11008 21014 333 60005;
0075010270999992013010722004+69650+018900FM-12+002099999V02099999999999999999N9999999N1-00071-00131999999ADDAA101000021REMSYN052AAXX  07221 01027 26/// ///// 11007 21013 333 60005;
0075010270999992013010723004+69650+018900FM-12+002099999V02099999999999999999N9999999N1-00021-00151999999ADDAA101000021REMSYN052AAXX  07231 01027 26/// ///// 11002 21015 333 60005;
0090010270999992013010800004+69650+018900FM-12+002099999V02099999999999999999N9999999N1-00081-00211999999ADDAA106000091REMSYN048AAXX  08001 01027 16/// ///// 11008 21021 60001;EQDQ01  00002PRCP06
0075010270999992013010801004+69650+018900FM-12+002099999V02099999999999999999N9999999N1-00101-00231999999ADDAA101000021REMSYN052AAXX  08011 01027 26/// ///// 11010 21023 333 60005;
0075010270999992013010802004+69650+018900FM-12+002099999V02099999999999999999N9999999N1+00031-00271999999ADDAA101000021REMSYN052AAXX  08021 01027 26/// ///// 10003 21027 333 60005;
0075010270999992013010803004+69650+018900FM-12+002099999V02099999999999999999N9999999N1-00031-00341999999ADDAA101000021REMSYN052AAXX  08031 01027 26/// ///// 11003 21034 333 60005;
0075010270999992013010804004+69650+018900FM-12+002099999V02099999999999999999N9999999N1+00071-00371999999ADDAA101000021REMSYN052AAXX  08041 01027 26/// ///// 10007 21037 333 60005;
0075010270999992013010805004+69650+018900FM-12+002099999V02099999999999999999N9999999N1+00061-00321999999ADDAA101000021REMSYN052AAXX  08051 01027 26/// ///// 10006 21032 333 60005;
0146010270999992013010806004+69650+018900FM-12+002099999V02099999999999999999N9999999N1+00151-00391999999ADDAA112000091AA224000091KA1999N-00131REMSYN064AAXX  08061 01027 16/// ///// 10015 21039 60002 333 21013 70000;EQDQ01  00002PRCP24Q02  00002PRCP12
0075010270999992013010807004+69650+018900FM-12+002099999V02099999999999999999N9999999N1+00181-00331999999ADDAA101000021REMSYN052AAXX  08071 01027 26/// ///// 10018 21033 333 60005;
0075010270999992013010808004+69650+018900FM-12+002099999V02099999999999999999N9999999N1+00181-00381999999ADDAA101000021REMSYN052AAXX  08081 01027 26/// ///// 10018 21038 333 60005;
0075010270999992013010809004+69650+018900FM-12+002099999V02099999999999999999N9999999N1+00051-00131999999ADDAA101000021REMSYN052AAXX  08091 01027 26/// ///// 10005 21013 333 60005;
0075010270999992013010810004+69650+018900FM-12+002099999V02099999999999999999N9999999N1+00061-00051999999ADDAA101000391REMSYN052AAXX  08101 01027 26/// ///// 10006 21005 333 69935;
0075010270999992013010811004+69650+018900FM-12+002099999V02099999999999999999N9999999N1+00061-00151999999ADDAA101000021REMSYN052AAXX  08111 01027 26/// ///// 10006 21015 333 60005;
0071010270999992013010812004+69650+018900FM-12+002099999V02099999999999999999N9999999N1+00151-00041999999ADDAA106000891REMSYN048AAXX  08121 01027 16/// ///// 10015 21004 69971;
0075010270999992013010813004+69650+018900FM-12+002099999V02099999999999999999N9999999N1+00091-00031999999ADDAA101000891REMSYN052AAXX  08131 01027 26/// ///// 10009 21003 333 69985;
0075010270999992013010814004+69650+018900FM-12+002099999V02099999999999999999N9999999N1+00041-00041999999ADDAA101001091REMSYN052AAXX  08141 01027 26/// ///// 10004 21004 333 60015;
0075010270999992013010815004+69650+018900FM-12+002099999V02099999999999999999N9999999N1+00051-00011999999ADDAA101001091REMSYN052AAXX  08151 01027 26/// ///// 10005 21001 333 60015;
0075010270999992013010816004+69650+018900FM-12+002099999V02099999999999999999N9999999N1+00061+00001999999ADDAA101002091REMSYN052AAXX  08161 01027 26/// ///// 10006 20000 333 60025;
0075010270999992013010817004+69650+018900FM-12+002099999V02099999999999999999N9999999N1+00111-00051999999ADDAA101001091REMSYN052AAXX  08171 01027 26/// ///// 10011 21005 333 69995;
0094010270999992013010818004+69650+018900FM-12+002099999V02099999999999999999N9999999N1+00041-00071999999ADDAA112007991KA1999M+00221REMSYN058AAXX  08181 01027 16/// ///// 10004 21007 60082 333 10022;
0075010270999992013010819004+69650+018900FM-12+002099999V02099999999999999999N9999999N1+00091-00351999999ADDAA101000591REMSYN052AAXX  08191 01027 26/// ///// 10009 21035 333 69955;
0075010270999992013010823004+69650+018900FM-12+002099999V02099999999999999999N9999999N1+00021-00441999999ADDAA101000021REMSYN052AAXX  08231 01027 26/// ///// 10002 21044 333 60005;
0071010270999992013010900004+69650+018900FM-12+002099999V02099999999999999999N9999999N1-00071-00221999999ADDAA106002091REMSYN048AAXX  09001 01027 16/// ///// 11007 21022 60021;
0075010270999992013010901004+69650+018900FM-12+002099999V02099999999999999999N9999999N1-00131-00201999999ADDAA101000891REMSYN052AAXX  09011 01027 26/// ///// 11013 21020 333 69975;
0075010270999992013010902004+69650+018900FM-12+002099999V02099999999999999999N9999999N1-00071-00111999999ADDAA101001091REMSYN052AAXX  09021 01027 26/// ///// 11007 21011 333 60015;
0075010270999992013010903004+69650+018900FM-12+002099999V02099999999999999999N9999999N1-00011-00041999999ADDAA101001091REMSYN052AAXX  09031 01027 26/// ///// 11001 21004 333 60015;
0075010270999992013010904004+69650+018900FM-12+002099999V02099999999999999999N9999999N1+00101+00051999999ADDAA101005191REMSYN052AAXX  09041 01027 26/// ///// 10010 20005 333 60055;
0075010270999992013010905004+69650+018900FM-12+002099999V02099999999999999999N9999999N1+00171+00001999999ADDAA101002091REMSYN052AAXX  09051 01027 26/// ///// 10017 21000 333 60025;
0111010270999992013010906004+69650+018900FM-12+002099999V02099999999999999999N9999999N1+00231+00031999999ADDAA112011991AA224020191KA1999N-00131REMSYN064AAXX  09061 01027 16/// ///// 10023 20003 60122 333 21013 70200;
0075010270999992013010907004+69650+018900FM-12+002099999V02099999999999999999N9999999N1+00271+00001999999ADDAA101000021REMSYN052AAXX  09071 01027 26/// ///// 10027 20000 333 60005;
0075010270999992013010908004+69650+018900FM-12+002099999V02099999999999999999N9999999N1+00251+00021999999ADDAA101000021REMSYN052AAXX  09081 01027 26/// ///// 10025 20002 333 60005;
0075010270999992013010909004+69650+018900FM-12+002099999V02099999999999999999N9999999N1+00231+00011999999ADDAA101000021REMSYN052AAXX  09091 01027 26/// ///// 10023 20001 333 60005;
0075010270999992013010910004+69650+018900FM-12+002099999V02099999999999999999N9999999N1+00181+00031999999ADDAA101002091REMSYN052AAXX  09101 01027 26/// ///// 10018 20003 333 60025;
0075010270999992013010911004+69650+018900FM-12+002099999V02099999999999999999N9999999N1+00211+00021999999ADDAA101000591REMSYN052AAXX  09111 01027 26/// ///// 10021 20002 333 69965;
0071010270999992013010912004+69650+018900FM-12+002099999V02099999999999999999N9999999N1+00261+00001999999ADDAA106003091REMSYN048AAXX  09121 01027 16/// ///// 10026 21000 60031;
0075010270999992013010913004+69650+018900FM-12+002099999V02099999999999999999N9999999N1+00281+00001999999ADDAA101000021REMSYN052AAXX  09131 01027 26/// ///// 10028 21000 333 60005;
0075010270999992013010914004+69650+018900FM-12+002099999V02099999999999999999N9999999N1+00271+00001999999ADDAA101000021REMSYN052AAXX  09141 01027 26/// ///// 10027 20000 333 60005;
0075010270999992013010915004+69650+018900FM-12+002099999V02099999999999999999N9999999N1+00221-00041999999ADDAA101000021REMSYN052AAXX  09151 01027 26/// ///// 10022 21004 333 60005;
0075010270999992013010916004+69650+018900FM-12+002099999V02099999999999999999N9999999N1+00261-00081999999ADDAA101000021REMSYN052AAXX  09161 01027 26/// ///// 10026 21008 333 60005;
0075010270999992013010917004+69650+018900FM-12+002099999V02099999999999999999N9999999N1+00261-00101999999ADDAA101000021REMSYN052AAXX  09171 01027 26/// ///// 10026 21010 333 60005;
0094010270999992013010918004+69650+018900FM-12+002099999V02099999999999999999N9999999N1+00221-00101999999ADDAA112003091KA1999M+00311REMSYN058AAXX  09181 01027 16/// ///// 10022 21010 60032 333 10031;
0075010270999992013010919004+69650+018900FM-12+002099999V02099999999999999999N9999999N1+00241-00101999999ADDAA101000021REMSYN052AAXX  09191 01027 26/// ///// 10024 21010 333 60005;
0075010270999992013010920004+69650+018900FM-12+002099999V02099999999999999999N9999999N1+00211-00121999999ADDAA101000021REMSYN052AAXX  09201 01027 26/// ///// 10021 21012 333 60005;
0075010270999992013010921004+69650+018900FM-12+002099999V02099999999999999999N9999999N1+00211-00101999999ADDAA101000021REMSYN052AAXX  09211 01027 26/// ///// 10021 21010 333 60005;
0075010270999992013010922004+69650+018900FM-12+002099999V02099999999999999999N9999999N1+00221-00111999999ADDAA101000021REMSYN052AAXX  09221 01027 26/// ///// 10022 21011 333 60005;
0075010270999992013010923004+69650+018900FM-12+002099999V02099999999999999999N9999999N1+00201-00101999999ADDAA101000021REMSYN052AAXX  09231 01027 26/// ///// 10020 21010 333 60005;
0090010270999992013011000004+69650+018900FM-12+002099999V02099999999999999999N9999999N1+00241-00071999999ADDAA106000091REMSYN048AAXX  10001 01027 16/// ///// 10024 21007 60001;EQDQ01  00002PRCP06
0075010270999992013011001004+69650+018900FM-12+002099999V02099999999999999999N9999999N1+00231-00091999999ADDAA101000021REMSYN052AAXX  10011 01027 26/// ///// 10023 21009 333 60005;
0075010270999992013011002004+69650+018900FM-12+002099999V02099999999999999999N9999999N1+00241-00071999999ADDAA101000021REMSYN052AAXX  10021 01027 26/// ///// 10024 21007 333 60005;
0075010270999992013011003004+69650+018900FM-12+002099999V02099999999999999999N9999999N1+00241-00051999999ADDAA101000021REMSYN052AAXX  10031 01027 26/// ///// 10024 21005 333 60005;
0075010270999992013011004004+69650+018900FM-12+002099999V02099999999999999999N9999999N1+00241-00021999999ADDAA101000021REMSYN052AAXX  10041 01027 26/// ///// 10024 21002 333 60005;
0075010270999992013011005004+69650+018900FM-12+002099999V02099999999999999999N9999999N1+00231-00011999999ADDAA101000021REMSYN052AAXX  10051 01027 26/// ///// 10023 21001 333 60005;
0130010270999992013011006004+69650+018900FM-12+002099999V02099999999999999999N9999999N1+00231-00021999999ADDAA112000091AA224002591KA1999N+00201REMSYN064AAXX  10061 01027 16/// ///// 10023 21002 60002 333 20020 70025;EQDQ01  00002PRCP12
0075010270999992013011007004+69650+018900FM-12+002099999V02099999999999999999N9999999N1+00211-00021999999ADDAA101000021REMSYN052AAXX  10071 01027 26/// ///// 10021 21002 333 60005;
0075010270999992013011008004+69650+018900FM-12+002099999V02099999999999999999N9999999N1+00161-00021999999ADDAA101000021REMSYN052AAXX  10081 01027 26/// ///// 10016 21002 333 60005;
0075010270999992013011009004+69650+018900FM-12+002099999V02099999999999999999N9999999N1+00131-00031999999ADDAA101000021REMSYN052AAXX  10091 01027 26/// ///// 10013 21003 333 60005;
0075010270999992013011010004+69650+018900FM-12+002099999V02099999999999999999N9999999N1+00081-00091999999ADDAA101000021REMSYN052AAXX  10101 01027 26/// ///// 10008 21009 333 60005;
0075010270999992013011011004+69650+018900FM-12+002099999V02099999999999999999N9999999N1+00071-00051999999ADDAA101000021REMSYN052AAXX  10111 01027 26/// ///// 10007 21005 333 60005;
0090010270999992013011012004+69650+018900FM-12+002099999V02099999999999999999N9999999N1+00111+00001999999ADDAA106000091REMSYN048AAXX  10121 01027 16/// ///// 10011 20000 60001;EQDQ01  00002PRCP06
0075010270999992013011013004+69650+018900FM-12+002099999V02099999999999999999N9999999N1+00131+00031999999ADDAA101000021REMSYN052AAXX  10131 01027 26/// ///// 10013 20003 333 60005;
0075010270999992013011014004+69650+018900FM-12+002099999V02099999999999999999N9999999N1+00111+00011999999ADDAA101000021REMSYN052AAXX  10141 01027 26/// ///// 10011 20001 333 60005;
0075010270999992013011015004+69650+018900FM-12+002099999V02099999999999999999N9999999N1+00091-00021999999ADDAA101000021REMSYN052AAXX  10151 01027 26/// ///// 10009 21002 333 60005;
0075010270999992013011016004+69650+018900FM-12+002099999V02099999999999999999N9999999N1+00081+00001999999ADDAA101000591REMSYN052AAXX  10161 01027 26/// ///// 10008 20000 333 69945;
0075010270999992013011017004+69650+018900FM-12+002099999V02099999999999999999N9999999N1+00091+00021999999ADDAA101000021REMSYN052AAXX  10171 01027 26/// ///// 10009 20002 333 60005;
0094010270999992013011018004+69650+018900FM-12+002099999V02099999999999999999N9999999N1+00071-00021999999ADDAA112000591KA1999M+00251REMSYN058AAXX  10181 01027 16/// ///// 10007 21002 69942 333 10025;
0075010270999992013011019004+69650+018900FM-12+002099999V02099999999999999999N9999999N1+00031-00071999999ADDAA101000021REMSYN052AAXX  10191 01027 26/// ///// 10003 21007 333 60005;
0075010270999992013011020004+69650+018900FM-12+002099999V02099999999999999999N9999999N1+00001-00101999999ADDAA101000021REMSYN052AAXX  10201 01027 26/// ///// 10000 21010 333 60005;
0075010270999992013011021004+69650+018900FM-12+002099999V02099999999999999999N9999999N1+00081-00031999999ADDAA101000021REMSYN052AAXX  10211 01027 26/// ///// 10008 21003 333 60005;
0075010270999992013011022004+69650+018900FM-12+002099999V02099999999999999999N9999999N1+00061-00041999999ADDAA101000021REMSYN052AAXX  10221 01027 26/// ///// 10006 21004 333 60005;
0075010270999992013011023004+69650+018900FM-12+002099999V02099999999999999999N9999999N1+00091-00071999999ADDAA101000021REMSYN052AAXX  10231 01027 26/// ///// 10009 21007 333 60005;
0090010270999992013011100004+69650+018900FM-12+002099999V02099999999999999999N9999999N1+00071-00051999999ADDAA106000091REMSYN048AAXX  11001 01027 16/// ///// 10007 21005 60001;EQDQ01  00002PRCP06
0075010270999992013011101004+69650+018900FM-12+002099999V02099999999999999999N9999999N1+00081-00121999999ADDAA101000021REMSYN052AAXX  11011 01027 26/// ///// 10008 21012 333 60005;
0075010270999992013011102004+69650+018900FM-12+002099999V02099999999999999999N9999999N1+00101-00161999999ADDAA101000021REMSYN052AAXX  11021 01027 26/// ///// 10010 21016 333 60005;
0075010270999992013011103004+69650+018900FM-12+002099999V02099999999999999999N9999999N1+00111-00161999999ADDAA101000021REMSYN052AAXX  11031 01027 26/// ///// 10011 21016 333 60005;
0075010270999992013011104004+69650+018900FM-12+002099999V02099999999999999999N9999999N1+00111-00171999999ADDAA101000021REMSYN052AAXX  11041 01027 26/// ///// 10011 21017 333 60005;
0075010270999992013011105004+69650+018900FM-12+002099999V02099999999999999999N9999999N1+00111-00151999999ADDAA101000021REMSYN052AAXX  11051 01027 26/// ///// 10011 21015 333 60005;
0130010270999992013011106004+69650+018900FM-12+002099999V02099999999999999999N9999999N1+00111-00201999999ADDAA112000091AA224000591KA1999N-00021REMSYN064AAXX  11061 01027 16/// ///// 10011 21020 60002 333 21002 70004;EQDQ01  00002PRCP12
0075010270999992013011107004+69650+018900FM-12+002099999V02099999999999999999N9999999N1+00111-00201999999ADDAA101000021REMSYN052AAXX  11071 01027 26/// ///// 10011 21020 333 60005;
0075010270999992013011108004+69650+018900FM-12+002099999V02099999999999999999N9999999N1+00171-00151999999ADDAA101000021REMSYN052AAXX  11081 01027 26/// ///// 10017 21015 333 60005;
0075010270999992013011109004+69650+018900FM-12+002099999V02099999999999999999N9999999N1+00141-00101999999ADDAA101000021REMSYN052AAXX  11091 01027 26/// ///// 10014 21010 333 60005;
0075010270999992013011110004+69650+018900FM-12+002099999V02099999999999999999N9999999N1+00161-00161999999ADDAA101000021REMSYN052AAXX  11101 01027 26/// ///// 10016 21016 333 60005;
0075010270999992013011111004+69650+018900FM-12+002099999V02099999999999999999N9999999N1+00161-00131999999ADDAA101000021REMSYN052AAXX  11111 01027 26/// ///// 10016 21013 333 60005;
0090010270999992013011112004+69650+018900FM-12+002099999V02099999999999999999N9999999N1+00141-00111999999ADDAA106000091REMSYN048AAXX  11121 01027 16/// ///// 10014 21011 60001;EQDQ01  00002PRCP06
0075010270999992013011113004+69650+018900FM-12+002099999V02099999999999999999N9999999N1+00131-00121999999ADDAA101000021REMSYN052AAXX  11131 01027 26/// ///// 10013 21012 333 60005;
0075010270999992013011114004+69650+018900FM-12+002099999V02099999999999999999N9999999N1+00161-00081999999ADDAA101000021REMSYN052AAXX  11141 01027 26/// ///// 10016 21008 333 60005;
0075010270999992013011115004+69650+018900FM-12+002099999V02099999999999999999N9999999N1+00161-00061999999ADDAA101000021REMSYN052AAXX  11151 01027 26/// ///// 10016 21006 333 60005;
0075010270999992013011116004+69650+018900FM-12+002099999V02099999999999999999N9999999N1+00141-00071999999ADDAA101000021REMSYN052AAXX  11161 01027 26/// ///// 10014 21007 333 60005;
0075010270999992013011117004+69650+018900FM-12+002099999V02099999999999999999N9999999N1+00181-00041999999ADDAA101000021REMSYN052AAXX  11171 01027 26/// ///// 10018 21004 333 60005;
0113010270999992013011118004+69650+018900FM-12+002099999V02099999999999999999N9999999N1+00171-00031999999ADDAA112000091KA1999M+00191REMSYN058AAXX  11181 01027 16/// ///// 10017 21003 60002 333 10019;EQDQ01  00002PRCP12
0075010270999992013011119004+69650+018900FM-12+002099999V02099999999999999999N9999999N1+00191+00011999999ADDAA101000021REMSYN052AAXX  11191 01027 26/// ///// 10019 20001 333 60005;
0075010270999992013011120004+69650+018900FM-12+002099999V02099999999999999999N9999999N1+00211+00021999999ADDAA101000021REMSYN052AAXX  11201 01027 26/// ///// 10021 20002 333 60005;
0075010270999992013011121004+69650+018900FM-12+002099999V02099999999999999999N9999999N1+00211+00041999999ADDAA101000021REMSYN052AAXX  11211 01027 26/// ///// 10021 20004 333 60005;
0075010270999992013011122004+69650+018900FM-12+002099999V02099999999999999999N9999999N1+00211+00041999999ADDAA101000591REMSYN052AAXX  11221 01027 26/// ///// 10021 20004 333 69955;
0075010270999992013011123004+69650+018900FM-12+002099999V02099999999999999999N9999999N1+00201+00041999999ADDAA101000391REMSYN052AAXX  11231 01027 26/// ///// 10020 20004 333 69935;
0071010270999992013011200004+69650+018900FM-12+002099999V02099999999999999999N9999999N1+00211+00061999999ADDAA106000891REMSYN048AAXX  12001 01027 16/// ///// 10021 20006 69981;
0075010270999992013011201004+69650+018900FM-12+002099999V02099999999999999999N9999999N1+00221+00071999999ADDAA101000021REMSYN052AAXX  12011 01027 26/// ///// 10022 20007 333 60005;
0075010270999992013011202004+69650+018900FM-12+002099999V02099999999999999999N9999999N1+00231+00071999999ADDAA101000021REMSYN052AAXX  12021 01027 26/// ///// 10023 20007 333 60005;
0075010270999992013011203004+69650+018900FM-12+002099999V02099999999999999999N9999999N1+00261+00081999999ADDAA101000021REMSYN052AAXX  12031 01027 26/// ///// 10026 20008 333 60005;
0075010270999992013011204004+69650+018900FM-12+002099999V02099999999999999999N9999999N1+00241+00081999999ADDAA101000021REMSYN052AAXX  12041 01027 26/// ///// 10024 20008 333 60005;
0075010270999992013011205004+69650+018900FM-12+002099999V02099999999999999999N9999999N1+00251+00141999999ADDAA101000391REMSYN052AAXX  12051 01027 26/// ///// 10025 20014 333 69935;
0111010270999992013011206004+69650+018900FM-12+002099999V02099999999999999999N9999999N1+00261+00161999999ADDAA112002092AA224001592KA1999N+00161REMSYN064AAXX  12061 01027 16/// ///// 10026 20016 60022 333 20016 70015;
0075010270999992013011207004+69650+018900FM-12+002099999V02099999999999999999N9999999N1+00271+00181999999ADDAA101001091REMSYN052AAXX  12071 01027 26/// ///// 10027 20018 333 60015;
0075010270999992013011208004+69650+018900FM-12+002099999V02099999999999999999N9999999N1+00271+00191999999ADDAA101000391REMSYN052AAXX  12081 01027 26/// ///// 10027 20019 333 69935;
0075010270999992013011209004+69650+018900FM-12+002099999V02099999999999999999N9999999N1+00291+00151999999ADDAA101000021REMSYN052AAXX  12091 01027 26/// ///// 10029 20015 333 60005;
0075010270999992013011210004+69650+018900FM-12+002099999V02099999999999999999N9999999N1+00231+00141999999ADDAA101000021REMSYN052AAXX  12101 01027 26/// ///// 10023 20014 333 60005;
0075010270999992013011211004+69650+018900FM-12+002099999V02099999999999999999N9999999N1+00251+00161999999ADDAA101000021REMSYN052AAXX  12111 01027 26/// ///// 10025 20016 333 60005;
0071010270999992013011212004+69650+018900FM-12+002099999V02099999999999999999N9999999N1+00271+00131999999ADDAA106002091REMSYN048AAXX  12121 01027 16/// ///// 10027 20013 60021;
0075010270999992013011213004+69650+018900FM-12+002099999V02099999999999999999N9999999N1+00271+00131999999ADDAA101000021REMSYN052AAXX  12131 01027 26/// ///// 10027 20013 333 60005;
0075010270999992013011214004+69650+018900FM-12+002099999V02099999999999999999N9999999N1+00231+00101999999ADDAA101000021REMSYN052AAXX  12141 01027 26/// ///// 10023 20010 333 60005;
0075010270999992013011215004+69650+018900FM-12+002099999V02099999999999999999N9999999N1+00191+00081999999ADDAA101000021REMSYN052AAXX  12151 01027 26/// ///// 10019 20008 333 60005;
0075010270999992013011216004+69650+018900FM-12+002099999V02099999999999999999N9999999N1+00231+00111999999ADDAA101000021REMSYN052AAXX  12161 01027 26/// ///// 10023 20011 333 60005;
0075010270999992013011217004+69650+018900FM-12+002099999V02099999999999999999N9999999N1+00161+00051999999ADDAA101000021REMSYN052AAXX  12171 01027 26/// ///// 10016 20005 333 60005;
0094010270999992013011218004+69650+018900FM-12+002099999V02099999999999999999N9999999N1+00221+00001999999ADDAA112002091KA1999M+00361REMSYN058AAXX  12181 01027 16/// ///// 10022 20000 60022 333 10036;
0075010270999992013011219004+69650+018900FM-12+002099999V02099999999999999999N9999999N1+00281-00111999999ADDAA101000021REMSYN052AAXX  12191 01027 26/// ///// 10028 21011 333 60005;
0075010270999992013011220004+69650+018900FM-12+002099999V02099999999999999999N9999999N1+00181-00121999999ADDAA101000021REMSYN052AAXX  12201 01027 26/// ///// 10018 21012 333 60005;
0075010270999992013011221004+69650+018900FM-12+002099999V02099999999999999999N9999999N1+00151-00091999999ADDAA101000021REMSYN052AAXX  12211 01027 26/// ///// 10015 21009 333 60005;
0075010270999992013011222004+69650+018900FM-12+002099999V02099999999999999999N9999999N1+00131-00081999999ADDAA101000021REMSYN052AAXX  12221 01027 26/// ///// 10013 21008 333 60005;
0075010270999992013011223004+69650+018900FM-12+002099999V02099999999999999999N9999999N1+00121-00091999999ADDAA101000021REMSYN052AAXX  12231 01027 26/// ///// 10012 21009 333 60005;
0090010270999992013011300004+69650+018900FM-12+002099999V02099999999999999999N9999999N1+00111-00071999999ADDAA106000091REMSYN048AAXX  13001 01027 16/// ///// 10011 21007 60001;EQDQ01  00002PRCP06
0075010270999992013011301004+69650+018900FM-12+002099999V02099999999999999999N9999999N1+00121-00061999999ADDAA101000021REMSYN052AAXX  13011 01027 26/// ///// 10012 21006 333 60005;
0075010270999992013011302004+69650+018900FM-12+002099999V02099999999999999999N9999999N1+00121+00011999999ADDAA101000021REMSYN052AAXX  13021 01027 26/// ///// 10012 20001 333 60005;
0075010270999992013011303004+69650+018900FM-12+002099999V02099999999999999999N9999999N1+00091+00001999999ADDAA101000021REMSYN052AAXX  13031 01027 26/// ///// 10009 20000 333 69925;
0075010270999992013011304004+69650+018900FM-12+002099999V02099999999999999999N9999999N1+00041-00031999999ADDAA101000591REMSYN052AAXX  13041 01027 26/// ///// 10004 21003 333 69955;
0075010270999992013011305004+69650+018900FM-12+002099999V02099999999999999999N9999999N1+00021-00051999999ADDAA101000591REMSYN052AAXX  13051 01027 26/// ///// 10002 21005 333 69965;
0111010270999992013011306004+69650+018900FM-12+002099999V02099999999999999999N9999999N1+00021-00051999999ADDAA112002091AA224003091KA1999N+00021REMSYN064AAXX  13061 01027 16/// ///// 10002 21005 60022 333 20002 70030;
0075010270999992013011307004+69650+018900FM-12+002099999V02099999999999999999N9999999N1+00021-00051999999ADDAA101000021REMSYN052AAXX  13071 01027 26/// ///// 10002 21005 333 60005;
0075010270999992013011308004+69650+018900FM-12+002099999V02099999999999999999N9999999N1+00051-00011999999ADDAA101000021REMSYN052AAXX  13081 01027 26/// ///// 10005 21001 333 60005;
0075010270999992013011309004+69650+018900FM-12+002099999V02099999999999999999N9999999N1+00081+00031999999ADDAA101000021REMSYN052AAXX  13091 01027 26/// ///// 10008 20003 333 60005;
0075010270999992013011310004+69650+018900FM-12+002099999V02099999999999999999N9999999N1+00141+00071999999ADDAA101000021REMSYN052AAXX  13101 01027 26/// ///// 10014 20007 333 60005;
0075010270999992013011311004+69650+018900FM-12+002099999V02099999999999999999N9999999N1+00151+00041999999ADDAA101000021REMSYN052AAXX  13111 01027 26/// ///// 10015 20004 333 60005;
0090010270999992013011312004+69650+018900FM-12+002099999V02099999999999999999N9999999N1+00141+00041999999ADDAA106000091REMSYN048AAXX  13121 01027 16/// ///// 10014 20004 60001;EQDQ01  00002PRCP06
0075010270999992013011313004+69650+018900FM-12+002099999V02099999999999999999N9999999N1+00161+00051999999ADDAA101000021REMSYN052AAXX  13131 01027 26/// ///// 10016 20005 333 60005;
0075010270999992013011314004+69650+018900FM-12+002099999V02099999999999999999N9999999N1+00161+00051999999ADDAA101000021REMSYN052AAXX  13141 01027 26/// ///// 10016 20005 333 69925;
0075010270999992013011315004+69650+018900FM-12+002099999V02099999999999999999N9999999N1+00161+00041999999ADDAA101000591REMSYN052AAXX  13151 01027 26/// ///// 10016 20004 333 69955;
0075010270999992013011316004+69650+018900FM-12+002099999V02099999999999999999N9999999N1+00191+00041999999ADDAA101000591REMSYN052AAXX  13161 01027 26/// ///// 10019 20004 333 69955;
0075010270999992013011317004+69650+018900FM-12+002099999V02099999999999999999N9999999N1+00221+00011999999ADDAA101000021REMSYN052AAXX  13171 01027 26/// ///// 10022 20001 333 60005;
0094010270999992013011318004+69650+018900FM-12+002099999V02099999999999999999N9999999N1+00201-00051999999ADDAA112001091KA1999M+00241REMSYN058AAXX  13181 01027 16/// ///// 10020 21005 60012 333 10024;
0075010270999992013011319004+69650+018900FM-12+002099999V02099999999999999999N9999999N1+00211-00031999999ADDAA101000021REMSYN052AAXX  13191 01027 26/// ///// 10021 21003 333 60005;
0075010270999992013011320004+69650+018900FM-12+002099999V02099999999999999999N9999999N1+00221-00081999999ADDAA101000021REMSYN052AAXX  13201 01027 26/// ///// 10022 21008 333 60005;
0075010270999992013011321004+69650+018900FM-12+002099999V02099999999999999999N9999999N1+00221-00091999999ADDAA101000021REMSYN052AAXX  13211 01027 26/// ///// 10022 21009 333 60005;
0075010270999992013011322004+69650+018900FM-12+002099999V02099999999999999999N9999999N1+00211-00111999999ADDAA101000021REMSYN052AAXX  13221 01027 26/// ///// 10021 21011 333 60005;
0075010270999992013011323004+69650+018900FM-12+002099999V02099999999999999999N9999999N1+00211-00121999999ADDAA101000021REMSYN052AAXX  13231 01027 26/// ///// 10021 21012 333 60005;
0090010270999992013011400004+69650+018900FM-12+002099999V02099999999999999999N9999999N1+00211-00171999999ADDAA106000091REMSYN048AAXX  14001 01027 16/// ///// 10021 21017 60001;EQDQ01  00002PRCP06
0075010270999992013011401004+69650+018900FM-12+002099999V02099999999999999999N9999999N1+00241-00181999999ADDAA101000021REMSYN052AAXX  14011 01027 26/// ///// 10024 21018 333 60005;
0075010270999992013011402004+69650+018900FM-12+002099999V02099999999999999999N9999999N1+00171-00121999999ADDAA101000021REMSYN052AAXX  14021 01027 26/// ///// 10017 21012 333 60005;
0075010270999992013011403004+69650+018900FM-12+002099999V02099999999999999999N9999999N1+00211-00171999999ADDAA101000021REMSYN052AAXX  14031 01027 26/// ///// 10021 21017 333 69925;
0075010270999992013011404004+69650+018900FM-12+002099999V02099999999999999999N9999999N1+00141-00111999999ADDAA101000021REMSYN052AAXX  14041 01027 26/// ///// 10014 21011 333 60005;
0075010270999992013011405004+69650+018900FM-12+002099999V02099999999999999999N9999999N1+00091-00051999999ADDAA101000391REMSYN052AAXX  14051 01027 26/// ///// 10009 21005 333 69935;
0111010270999992013011406004+69650+018900FM-12+002099999V02099999999999999999N9999999N1+00091-00031999999ADDAA112000591AA224002091KA1999N+00071REMSYN064AAXX  14061 01027 16/// ///// 10009 21003 69962 333 20007 70020;
0075010270999992013011407004+69650+018900FM-12+002099999V02099999999999999999N9999999N1+00031-00041999999ADDAA101000591REMSYN052AAXX  14071 01027 26/// ///// 10003 21004 333 69955;
0075010270999992013011408004+69650+018900FM-12+002099999V02099999999999999999N9999999N1+00021-00031999999ADDAA101000891REMSYN052AAXX  14081 01027 26/// ///// 10002 21003 333 69975;
0075010270999992013011409004+69650+018900FM-12+002099999V02099999999999999999N9999999N1+00021-00031999999ADDAA101000891REMSYN052AAXX  14091 01027 26/// ///// 10002 21003 333 69985;
0075010270999992013011410004+69650+018900FM-12+002099999V02099999999999999999N9999999N1+00011-00041999999ADDAA101001091REMSYN052AAXX  14101 01027 26/// ///// 10001 21004 333 60015;
0075010270999992013011411004+69650+018900FM-12+002099999V02099999999999999999N9999999N1+00061+00001999999ADDAA101000591REMSYN052AAXX  14111 01027 26/// ///// 10006 20000 333 69955;
0071010270999992013011412004+69650+018900FM-12+002099999V02099999999999999999N9999999N1+00081+00021999999ADDAA106005191REMSYN048AAXX  14121 01027 16/// ///// 10008 20002 60051;
0075010270999992013011413004+69650+018900FM-12+002099999V02099999999999999999N9999999N1+00091+00021999999ADDAA101000891REMSYN052AAXX  14131 01027 26/// ///// 10009 20002 333 69975;
0075010270999992013011414004+69650+018900FM-12+002099999V02099999999999999999N9999999N1+00091+00001999999ADDAA101001091REMSYN052AAXX  14141 01027 26/// ///// 10009 20000 333 69995;
0075010270999992013011415004+69650+018900FM-12+002099999V02099999999999999999N9999999N1+00041-00031999999ADDAA101000591REMSYN052AAXX  14151 01027 26/// ///// 10004 21003 333 69955;
0075010270999992013011416004+69650+018900FM-12+002099999V02099999999999999999N9999999N1+00061-00121999999ADDAA101000391REMSYN052AAXX  14161 01027 26/// ///// 10006 21012 333 69935;
0075010270999992013011417004+69650+018900FM-12+002099999V02099999999999999999N9999999N1+00021-00281999999ADDAA101000021REMSYN052AAXX  14171 01027 26/// ///// 10002 21028 333 60005;
0094010270999992013011418004+69650+018900FM-12+002099999V02099999999999999999N9999999N1+00001-00331999999ADDAA112007991KA1999M+00111REMSYN058AAXX  14181 01027 16/// ///// 10000 21033 60082 333 10011;
0075010270999992013011419004+69650+018900FM-12+002099999V02099999999999999999N9999999N1-00051-00341999999ADDAA101000021REMSYN052AAXX  14191 01027 26/// ///// 11005 21034 333 60005;
0075010270999992013011420004+69650+018900FM-12+002099999V02099999999999999999N9999999N1-00091-00361999999ADDAA101000021REMSYN052AAXX  14201 01027 26/// ///// 11009 21036 333 60005;
0075010270999992013011421004+69650+018900FM-12+002099999V02099999999999999999N9999999N1-00071-00441999999ADDAA101000021REMSYN052AAXX  14211 01027 26/// ///// 11007 21044 333 60005;
0075010270999992013011422004+69650+018900FM-12+002099999V02099999999999999999N9999999N1-00161-00501999999ADDAA101000021REMSYN052AAXX  14221 01027 26/// ///// 11016 21050 333 60005;
0075010270999992013011423004+69650+018900FM-12+002099999V02099999999999999999N9999999N1-00171-00431999999ADDAA101000021REMSYN052AAXX  14231 01027 26/// ///// 11017 21043 333 60005;
0090010270999992013011500004+69650+018900FM-12+002099999V02099999999999999999N9999999N1-00221-00501999999ADDAA106000091REMSYN048AAXX  15001 01027 16/// ///// 11022 21050 60001;EQDQ01  00002PRCP06
0075010270999992013011501004+69650+018900FM-12+002099999V02099999999999999999N9999999N1-00261-00571999999ADDAA101000021REMSYN052AAXX  15011 01027 26/// ///// 11026 21057 333 60005;
0075010270999992013011502004+69650+018900FM-12+002099999V02099999999999999999N9999999N1-00271-00631999999ADDAA101000021REMSYN052AAXX  15021 01027 26/// ///// 11027 21063 333 60005;
0075010270999992013011503004+69650+018900FM-12+002099999V02099999999999999999N9999999N1-00381-00641999999ADDAA101000021REMSYN052AAXX  15031 01027 26/// ///// 11038 21064 333 60005;
0075010270999992013011504004+69650+018900FM-12+002099999V02099999999999999999N9999999N1-00401-00651999999ADDAA101000021REMSYN052AAXX  15041 01027 26/// ///// 11040 21065 333 60005;
0075010270999992013011505004+69650+018900FM-12+002099999V02099999999999999999N9999999N1-00421-00661999999ADDAA101000021REMSYN052AAXX  15051 01027 26/// ///// 11042 21066 333 60005;
0130010270999992013011506004+69650+018900FM-12+002099999V02099999999999999999N9999999N1-00441-00611999999ADDAA112000091AA224007691KA1999N-00471REMSYN064AAXX  15061 01027 16/// ///// 11044 21061 60002 333 21047 70077;EQDQ01  00002PRCP12
0075010270999992013011507004+69650+018900FM-12+002099999V02099999999999999999N9999999N1-00491-00641999999ADDAA101000021REMSYN052AAXX  15071 01027 26/// ///// 11049 21064 333 60005;
0075010270999992013011508004+69650+018900FM-12+002099999V02099999999999999999N9999999N1-00481-00581999999ADDAA101000021REMSYN052AAXX  15081 01027 26/// ///// 11048 21058 333 60005;
0075010270999992013011509004+69650+018900FM-12+002099999V02099999999999999999N9999999N1-00521-00611999999ADDAA101000021REMSYN052AAXX  15091 01027 26/// ///// 11052 21061 333 60005;
0075010270999992013011510004+69650+018900FM-12+002099999V02099999999999999999N9999999N1-00551-00661999999ADDAA101000021REMSYN052AAXX  15101 01027 26/// ///// 11055 21066 333 60005;
0075010270999992013011511004+69650+018900FM-12+002099999V02099999999999999999N9999999N1-00511-00651999999ADDAA101000021REMSYN052AAXX  15111 01027 26/// ///// 11051 21065 333 60005;
0090010270999992013011512004+69650+018900FM-12+002099999V02099999999999999999N9999999N1-00511-00691999999ADDAA106000091REMSYN048AAXX  15121 01027 16/// ///// 11051 21069 60001;EQDQ01  00002PRCP06
0075010270999992013011513004+69650+018900FM-12+002099999V02099999999999999999N9999999N1-00521-00681999999ADDAA101000021REMSYN052AAXX  15131 01027 26/// ///// 11052 21068 333 60005;
0075010270999992013011514004+69650+018900FM-12+002099999V02099999999999999999N9999999N1-00441-00591999999ADDAA101000021REMSYN052AAXX  15141 01027 26/// ///// 11044 21059 333 60005;
0075010270999992013011515004+69650+018900FM-12+002099999V02099999999999999999N9999999N1-00521-00671999999ADDAA101000021REMSYN052AAXX  15151 01027 26/// ///// 11052 21067 333 60005;
0075010270999992013011516004+69650+018900FM-12+002099999V02099999999999999999N9999999N1-00531-00661999999ADDAA101000021REMSYN052AAXX  15161 01027 26/// ///// 11053 21066 333 60005;
0075010270999992013011517004+69650+018900FM-12+002099999V02099999999999999999N9999999N1-00531-00661999999ADDAA101000021REMSYN052AAXX  15171 01027 26/// ///// 11053 21066 333 60005;
0113010270999992013011518004+69650+018900FM-12+002099999V02099999999999999999N9999999N1-00301-00551999999ADDAA112000091KA1999M-00301REMSYN058AAXX  15181 01027 16/// ///// 11030 21055 60002 333 11030;EQDQ01  00002PRCP12
0075010270999992013011519004+69650+018900FM-12+002099999V02099999999999999999N9999999N1-00261-00501999999ADDAA101000021REMSYN052AAXX  15191 01027 26/// ///// 11026 21050 333 60005;
0075010270999992013011520004+69650+018900FM-12+002099999V02099999999999999999N9999999N1-00241-00501999999ADDAA101000021REMSYN052AAXX  15201 01027 26/// ///// 11024 21050 333 60005;
0075010270999992013011521004+69650+018900FM-12+002099999V02099999999999999999N9999999N1-00211-00451999999ADDAA101000021REMSYN052AAXX  15211 01027 26/// ///// 11021 21045 333 60005;
0075010270999992013011522004+69650+018900FM-12+002099999V02099999999999999999N9999999N1-00191-00421999999ADDAA101000021REMSYN052AAXX  15221 01027 26/// ///// 11019 21042 333 60005;
0075010270999992013011523004+69650+018900FM-12+002099999V02099999999999999999N9999999N1-00191-00421999999ADDAA101000021REMSYN052AAXX  15231 01027 26/// ///// 11019 21042 333 60005;
0090010270999992013011600004+69650+018900FM-12+002099999V02099999999999999999N9999999N1-00201-00431999999ADDAA106000091REMSYN048AAXX  16001 01027 16/// ///// 11020 21043 60001;EQDQ01  00002PRCP06
0075010270999992013011601004+69650+018900FM-12+002099999V02099999999999999999N9999999N1-00181-00411999999ADDAA101000021REMSYN052AAXX  16011 01027 26/// ///// 11018 21041 333 60005;
0075010270999992013011602004+69650+018900FM-12+002099999V02099999999999999999N9999999N1-00141-00371999999ADDAA101000021REMSYN052AAXX  16021 01027 26/// ///// 11014 21037 333 60005;
0075010270999992013011603004+69650+018900FM-12+002099999V02099999999999999999N9999999N1-00121-00371999999ADDAA101000021REMSYN052AAXX  16031 01027 26/// ///// 11012 21037 333 60005;
0075010270999992013011604004+69650+018900FM-12+002099999V02099999999999999999N9999999N1-00111-00341999999ADDAA101000021REMSYN052AAXX  16041 01027 26/// ///// 11011 21034 333 60005;
0075010270999992013011605004+69650+018900FM-12+002099999V02099999999999999999N9999999N1-00131-00361999999ADDAA101000021REMSYN052AAXX  16051 01027 26/// ///// 11013 21036 333 60005;
0146010270999992013011606004+69650+018900FM-12+002099999V02099999999999999999N9999999N1-00111-00371999999ADDAA112000091AA224000091KA1999N-00311REMSYN064AAXX  16061 01027 16/// ///// 11011 21037 60002 333 21031 70000;EQDQ01  00002PRCP24Q02  00002PRCP12
0075010270999992013011607004+69650+018900FM-12+002099999V02099999999999999999N9999999N1-00111-00371999999ADDAA101000021REMSYN052AAXX  16071 01027 26/// ///// 11011 21037 333 60005;
0075010270999992013011608004+69650+018900FM-12+002099999V02099999999999999999N9999999N1-00111-00371999999ADDAA101000021REMSYN052AAXX  16081 01027 26/// ///// 11011 21037 333 60005;
0075010270999992013011609004+69650+018900FM-12+002099999V02099999999999999999N9999999N1-00091-00331999999ADDAA101000021REMSYN052AAXX  16091 01027 26/// ///// 11009 21033 333 60005;
0075010270999992013011610004+69650+018900FM-12+002099999V02099999999999999999N9999999N1-00141-00381999999ADDAA101000021REMSYN052AAXX  16101 01027 26/// ///// 11014 21038 333 60005;
0075010270999992013011611004+69650+018900FM-12+002099999V02099999999999999999N9999999N1-00161-00401999999ADDAA101000021REMSYN052AAXX  16111 01027 26/// ///// 11016 21040 333 60005;
0090010270999992013011612004+69650+018900FM-12+002099999V02099999999999999999N9999999N1-00121-00361999999ADDAA106000091REMSYN048AAXX  16121 01027 16/// ///// 11012 21036 60001;EQDQ01  00002PRCP06
0075010270999992013011613004+69650+018900FM-12+002099999V02099999999999999999N9999999N1-00151-00411999999ADDAA101000021REMSYN052AAXX  16131 01027 26/// ///// 11015 21041 333 60005;
0075010270999992013011614004+69650+018900FM-12+002099999V02099999999999999999N9999999N1-00171-00421999999ADDAA101000021REMSYN052AAXX  16141 01027 26/// ///// 11017 21042 333 60005;
0075010270999992013011615004+69650+018900FM-12+002099999V02099999999999999999N9999999N1-00171-00391999999ADDAA101000021REMSYN052AAXX  16151 01027 26/// ///// 11017 21039 333 60005;
0075010270999992013011616004+69650+018900FM-12+002099999V02099999999999999999N9999999N1-00171-00431999999ADDAA101000021REMSYN052AAXX  16161 01027 26/// ///// 11017 21043 333 60005;
0075010270999992013011617004+69650+018900FM-12+002099999V02099999999999999999N9999999N1-00161-00431999999ADDAA101000021REMSYN052AAXX  16171 01027 26/// ///// 11016 21043 333 60005;
0113010270999992013011618004+69650+018900FM-12+002099999V02099999999999999999N9999999N1-00161-00411999999ADDAA112000091KA1999M-00081REMSYN058AAXX  16181 01027 16/// ///// 11016 21041 60002 333 11008;EQDQ01  00002PRCP12
0075010270999992013011619004+69650+018900FM-12+002099999V02099999999999999999N9999999N1-00161-00421999999ADDAA101000021REMSYN052AAXX  16191 01027 26/// ///// 11016 21042 333 60005;
0075010270999992013011620004+69650+018900FM-12+002099999V02099999999999999999N9999999N1-00161-00401999999ADDAA101000021REMSYN052AAXX  16201 01027 26/// ///// 11016 21040 333 60005;
0075010270999992013011621004+69650+018900FM-12+002099999V02099999999999999999N9999999N1-00171-00451999999ADDAA101000021REMSYN052AAXX  16211 01027 26/// ///// 11017 21045 333 60005;
0075010270999992013011622004+69650+018900FM-12+002099999V02099999999999999999N9999999N1-00151-00431999999ADDAA101000021REMSYN052AAXX  16221 01027 26/// ///// 11015 21043 333 60005;
0075010270999992013011623004+69650+018900FM-12+002099999V02099999999999999999N9999999N1-00131-00391999999ADDAA101000021REMSYN052AAXX  16231 01027 26/// ///// 11013 21039 333 60005;
0090010270999992013011700004+69650+018900FM-12+002099999V02099999999999999999N9999999N1-00151-00451999999ADDAA106000091REMSYN048AAXX  17001 01027 16/// ///// 11015 21045 60001;EQDQ01  00002PRCP06
0075010270999992013011701004+69650+018900FM-12+002099999V02099999999999999999N9999999N1-00131-00421999999ADDAA101000021REMSYN052AAXX  17011 01027 26/// ///// 11013 21042 333 60005;
0075010270999992013011702004+69650+018900FM-12+002099999V02099999999999999999N9999999N1-00101-00401999999ADDAA101000021REMSYN052AAXX  17021 01027 26/// ///// 11010 21040 333 60005;
0075010270999992013011703004+69650+018900FM-12+002099999V02099999999999999999N9999999N1-00071-00471999999ADDAA101000021REMSYN052AAXX  17031 01027 26/// ///// 11007 21047 333 60005;
0075010270999992013011704004+69650+018900FM-12+002099999V02099999999999999999N9999999N1-00051-00531999999ADDAA101000021REMSYN052AAXX  17041 01027 26/// ///// 11005 21053 333 60005;
0075010270999992013011705004+69650+018900FM-12+002099999V02099999999999999999N9999999N1-00051-00521999999ADDAA101000021REMSYN052AAXX  17051 01027 26/// ///// 11005 21052 333 60005;
0146010270999992013011706004+69650+018900FM-12+002099999V02099999999999999999N9999999N1-00081-00471999999ADDAA112000091AA224000091KA1999N-00181REMSYN064AAXX  17061 01027 16/// ///// 11008 21047 60002 333 21018 70000;EQDQ01  00002PRCP24Q02  00002PRCP12
0075010270999992013011707004+69650+018900FM-12+002099999V02099999999999999999N9999999N1-00011-00431999999ADDAA101000021REMSYN052AAXX  17071 01027 26/// ///// 11001 21043 333 60005;
0075010270999992013011708004+69650+018900FM-12+002099999V02099999999999999999N9999999N1+00001-00481999999ADDAA101000021REMSYN052AAXX  17081 01027 26/// ///// 11000 21048 333 60005;
0075010270999992013011709004+69650+018900FM-12+002099999V02099999999999999999N9999999N1+00011-00531999999ADDAA101000021REMSYN052AAXX  17091 01027 26/// ///// 10001 21053 333 60005;
0075010270999992013011710004+69650+018900FM-12+002099999V02099999999999999999N9999999N1+00001-00561999999ADDAA101000021REMSYN052AAXX  17101 01027 26/// ///// 10000 21056 333 60005;
0075010270999992013011711004+69650+018900FM-12+002099999V02099999999999999999N9999999N1+00031-00561999999ADDAA101000021REMSYN052AAXX  17111 01027 26/// ///// 10003 21056 333 60005;
0090010270999992013011712004+69650+018900FM-12+002099999V02099999999999999999N9999999N1+00011-00531999999ADDAA106000091REMSYN048AAXX  17121 01027 16/// ///// 10001 21053 60001;EQDQ01  00002PRCP06
0075010270999992013011713004+69650+018900FM-12+002099999V02099999999999999999N9999999N1-00011-00571999999ADDAA101000021REMSYN052AAXX  17131 01027 26/// ///// 11001 21057 333 60005;
0075010270999992013011714004+69650+018900FM-12+002099999V02099999999999999999N9999999N1-00011-00571999999ADDAA101000021REMSYN052AAXX  17141 01027 26/// ///// 11001 21057 333 60005;
0075010270999992013011715004+69650+018900FM-12+002099999V02099999999999999999N9999999N1+00001-00651999999ADDAA101000021REMSYN052AAXX  17151 01027 26/// ///// 10000 21065 333 60005;
0075010270999992013011716004+69650+018900FM-12+002099999V02099999999999999999N9999999N1-00021-00751999999ADDAA101000021REMSYN052AAXX  17161 01027 26/// ///// 11002 21075 333 60005;
0075010270999992013011717004+69650+018900FM-12+002099999V02099999999999999999N9999999N1-00011-00791999999ADDAA101000021REMSYN052AAXX  17171 01027 26/// ///// 11001 21079 333 60005;
0113010270999992013011718004+69650+018900FM-12+002099999V02099999999999999999N9999999N1+00001-00691999999ADDAA112000091KA1999M+00031REMSYN058AAXX  17181 01027 16/// ///// 10000 21069 60002 333 10003;EQDQ01  00002PRCP12
0075010270999992013011719004+69650+018900FM-12+002099999V02099999999999999999N9999999N1+00021-00741999999ADDAA101000021REMSYN052AAXX  17191 01027 26/// ///// 10002 21074 333 60005;
0075010270999992013011720004+69650+018900FM-12+002099999V02099999999999999999N9999999N1-00011-00491999999ADDAA101000021REMSYN052AAXX  17201 01027 26/// ///// 11001 21049 333 60005;
0075010270999992013011721004+69650+018900FM-12+002099999V02099999999999999999N9999999N1-00031-00361999999ADDAA101000021REMSYN052AAXX  17211 01027 26/// ///// 11003 21036 333 60005;
0075010270999992013011722004+69650+018900FM-12+002099999V02099999999999999999N9999999N1-00111-00191999999ADDAA101000391REMSYN052AAXX  17221 01027 26/// ///// 11011 21019 333 69935;
0075010270999992013011723004+69650+018900FM-12+002099999V02099999999999999999N9999999N1+00021-00221999999ADDAA101000021REMSYN052AAXX  17231 01027 26/// ///// 10002 21022 333 69925;
0071010270999992013011800004+69650+018900FM-12+002099999V02099999999999999999N9999999N1+00141-00311999999ADDAA106000891REMSYN048AAXX  18001 01027 16/// ///// 10014 21031 69971;
0075010270999992013011801004+69650+018900FM-12+002099999V02099999999999999999N9999999N1+00121-00221999999ADDAA101000591REMSYN052AAXX  18011 01027 26/// ///// 10012 21022 333 69955;
0075010270999992013011802004+69650+018900FM-12+002099999V02099999999999999999N9999999N1+00081-00041999999ADDAA101000891REMSYN052AAXX  18021 01027 26/// ///// 10008 21004 333 69985;
0075010270999992013011803004+69650+018900FM-12+002099999V02099999999999999999N9999999N1+00131+00031999999ADDAA101003091REMSYN052AAXX  18031 01027 26/// ///// 10013 20003 333 60035;
0075010270999992013011804004+69650+018900FM-12+002099999V02099999999999999999N9999999N1+00131+00031999999ADDAA101003091REMSYN052AAXX  18041 01027 26/// ///// 10013 20003 333 60035;
0075010270999992013011805004+69650+018900FM-12+002099999V02099999999999999999N9999999N1+00221+00101999999ADDAA101001091REMSYN052AAXX  18051 01027 26/// ///// 10022 20010 333 69995;
0111010270999992013011806004+69650+018900FM-12+002099999V02099999999999999999N9999999N1+00431+00031999999ADDAA112008992AA224008692KA1999N-00121REMSYN064AAXX  18061 01027 16/// ///// 10043 20003 60092 333 21012 70087;
0075010270999992013011807004+69650+018900FM-12+002099999V02099999999999999999N9999999N1+00371+00021999999ADDAA101000021REMSYN052AAXX  18071 01027 26/// ///// 10037 20002 333 69925;
0075010270999992013011808004+69650+018900FM-12+002099999V02099999999999999999N9999999N1+00391+00061999999ADDAA101000021REMSYN052AAXX  18081 01027 26/// ///// 10039 20006 333 69925;
0075010270999992013011809004+69650+018900FM-12+002099999V02099999999999999999N9999999N1+00401-00011999999ADDAA101000021REMSYN052AAXX  18091 01027 26/// ///// 10040 21001 333 60005;
0075010270999992013011810004+69650+018900FM-12+002099999V02099999999999999999N9999999N1+00391+00051999999ADDAA101000021REMSYN052AAXX  18101 01027 26/// ///// 10039 20005 333 60005;
0075010270999992013011811004+69650+018900FM-12+002099999V02099999999999999999N9999999N1+00351+00091999999ADDAA101000021REMSYN052AAXX  18111 01027 26/// ///// 10035 20009 333 60005;
0071010270999992013011812004+69650+018900FM-12+002099999V02099999999999999999N9999999N1+00371+00061999999ADDAA106000591REMSYN048AAXX  18121 01027 16/// ///// 10037 20006 69951;
0075010270999992013011813004+69650+018900FM-12+002099999V02099999999999999999N9999999N1+00371+00061999999ADDAA101000021REMSYN052AAXX  18131 01027 26/// ///// 10037 20006 333 60005;
0075010270999992013011814004+69650+018900FM-12+002099999V02099999999999999999N9999999N1+00341+00121999999ADDAA101000391REMSYN052AAXX  18141 01027 26/// ///// 10034 20012 333 69935;
0075010270999992013011815004+69650+018900FM-12+002099999V02099999999999999999N9999999N1+00281+00161999999ADDAA101001091REMSYN052AAXX  18151 01027 26/// ///// 10028 20016 333 60015;
0075010270999992013011816004+69650+018900FM-12+002099999V02099999999999999999N9999999N1+00281+00171999999ADDAA101002091REMSYN052AAXX  18161 01027 26/// ///// 10028 20017 333 60025;
0075010270999992013011817004+69650+018900FM-12+002099999V02099999999999999999N9999999N1+00231+00111999999ADDAA101002091REMSYN052AAXX  18171 01027 26/// ///// 10023 20011 333 60025;
0094010270999992013011818004+69650+018900FM-12+002099999V02099999999999999999N9999999N1+00301+00121999999ADDAA112007191KA1999M+00461REMSYN058AAXX  18181 01027 16/// ///// 10030 20012 60072 333 10046;
0075010270999992013011819004+69650+018900FM-12+002099999V02099999999999999999N9999999N1+00321+00121999999ADDAA101001091REMSYN052AAXX  18191 01027 26/// ///// 10032 20012 333 60015;
0075010270999992013011820004+69650+018900FM-12+002099999V02099999999999999999N9999999N1+00271+00091999999ADDAA101000021REMSYN052AAXX  18201 01027 26/// ///// 10027 20009 333 69925;
0075010270999992013011821004+69650+018900FM-12+002099999V02099999999999999999N9999999N1+00281+00071999999ADDAA101000021REMSYN052AAXX  18211 01027 26/// ///// 10028 20007 333 60005;
0075010270999992013011822004+69650+018900FM-12+002099999V02099999999999999999N9999999N1+00221+00041999999ADDAA101000591REMSYN052AAXX  18221 01027 26/// ///// 10022 20004 333 69955;
0075010270999992013011823004+69650+018900FM-12+002099999V02099999999999999999N9999999N1+00221-00011999999ADDAA101000391REMSYN052AAXX  18231 01027 26/// ///// 10022 21001 333 69935;
0071010270999992013011900004+69650+018900FM-12+002099999V02099999999999999999N9999999N1+00191-00121999999ADDAA106002091REMSYN048AAXX  19001 01027 16/// ///// 10019 21012 60021;
0075010270999992013011901004+69650+018900FM-12+002099999V02099999999999999999N9999999N1+00121-00081999999ADDAA101000021REMSYN052AAXX  19011 01027 26/// ///// 10012 21008 333 60005;
0075010270999992013011902004+69650+018900FM-12+002099999V02099999999999999999N9999999N1+00151-00281999999ADDAA101000021REMSYN052AAXX  19021 01027 26/// ///// 10015 21028 333 60005;
0075010270999992013011903004+69650+018900FM-12+002099999V02099999999999999999N9999999N1+00051-00331999999ADDAA101000021REMSYN052AAXX  19031 01027 26/// ///// 10005 21033 333 60005;
0075010270999992013011904004+69650+018900FM-12+002099999V02099999999999999999N9999999N1+00061-00601999999ADDAA101000021REMSYN052AAXX  19041 01027 26/// ///// 10006 21060 333 60005;
0075010270999992013011905004+69650+018900FM-12+002099999V02099999999999999999N9999999N1+00001-00491999999ADDAA101000021REMSYN052AAXX  19051 01027 26/// ///// 11000 21049 333 60005;
0111010270999992013011906004+69650+018900FM-12+002099999V02099999999999999999N9999999N1-00111-00361999999ADDAA112002091AA224008991KA1999N-00121REMSYN064AAXX  19061 01027 16/// ///// 11011 21036 60022 333 21012 70089;
0075010270999992013011907004+69650+018900FM-12+002099999V02099999999999999999N9999999N1+00031-00611999999ADDAA101000021REMSYN052AAXX  19071 01027 26/// ///// 10003 21061 333 60005;
0075010270999992013011908004+69650+018900FM-12+002099999V02099999999999999999N9999999N1-00061-00381999999ADDAA101000021REMSYN052AAXX  19081 01027 26/// ///// 11006 21038 333 60005;
0075010270999992013011909004+69650+018900FM-12+002099999V02099999999999999999N9999999N1+00041-00381999999ADDAA101000021REMSYN052AAXX  19091 01027 26/// ///// 10004 21038 333 60005;
0075010270999992013011910004+69650+018900FM-12+002099999V02099999999999999999N9999999N1+00101-00491999999ADDAA101000021REMSYN052AAXX  19101 01027 26/// ///// 10010 21049 333 60005;
0075010270999992013011911004+69650+018900FM-12+002099999V02099999999999999999N9999999N1+00001-00201999999ADDAA101000021REMSYN052AAXX  19111 01027 26/// ///// 10000 21020 333 60005;
0071010270999992013011912004+69650+018900FM-12+002099999V02099999999999999999N9999999N1-00121-00201999999ADDAA106000591REMSYN048AAXX  19121 01027 16/// ///// 11012 21020 69961;
0075010270999992013011913004+69650+018900FM-12+002099999V02099999999999999999N9999999N1-00121-00231999999ADDAA101000021REMSYN052AAXX  19131 01027 26/// ///// 11012 21023 333 60005;
0075010270999992013011914004+69650+018900FM-12+002099999V02099999999999999999N9999999N1-00121-00151999999ADDAA101001091REMSYN052AAXX  19141 01027 26/// ///// 11012 21015 333 69995;
0075010270999992013011915004+69650+018900FM-12+002099999V02099999999999999999N9999999N1-00171-00211999999ADDAA101000021REMSYN052AAXX  19151 01027 26/// ///// 11017 21021 333 69925;
0075010270999992013011916004+69650+018900FM-12+002099999V02099999999999999999N9999999N1-00201-00271999999ADDAA101000021REMSYN052AAXX  19161 01027 26/// ///// 11020 21027 333 60005;
0075010270999992013011917004+69650+018900FM-12+002099999V02099999999999999999N9999999N1-00221-00371999999ADDAA101000021REMSYN052AAXX  19171 01027 26/// ///// 11022 21037 333 60005;
0094010270999992013011918004+69650+018900FM-12+002099999V02099999999999999999N9999999N1-00231-00401999999ADDAA112002091KA1999M+00161REMSYN058AAXX  19181 01027 16/// ///// 11023 21040 60022 333 10016;
0075010270999992013011919004+69650+018900FM-12+002099999V02099999999999999999N9999999N1-00261-00321999999ADDAA101000021REMSYN052AAXX  19191 01027 26/// ///// 11026 21032 333 60005;
0075010270999992013011920004+69650+018900FM-12+002099999V02099999999999999999N9999999N1-00211-00551999999ADDAA101000021REMSYN052AAXX  19201 01027 26/// ///// 11021 21055 333 60005;
0075010270999992013011921004+69650+018900FM-12+002099999V02099999999999999999N9999999N1-00241-00621999999ADDAA101000021REMSYN052AAXX  19211 01027 26/// ///// 11024 21062 333 60005;
0075010270999992013011922004+69650+018900FM-12+002099999V02099999999999999999N9999999N1-00231-00561999999ADDAA101000021REMSYN052AAXX  19221 01027 26/// ///// 11023 21056 333 60005;
0075010270999992013011923004+69650+018900FM-12+002099999V02099999999999999999N9999999N1-00251-00571999999ADDAA101000021REMSYN052AAXX  19231 01027 26/// ///// 11025 21057 333 60005;
0090010270999992013012000004+69650+018900FM-12+002099999V02099999999999999999N9999999N1-00221-00601999999ADDAA106000091REMSYN048AAXX  20001 01027 16/// ///// 11022 21060 60001;EQDQ01  00002PRCP06
0075010270999992013012001004+69650+018900FM-12+002099999V02099999999999999999N9999999N1-00261-00701999999ADDAA101000021REMSYN052AAXX  20011 01027 26/// ///// 11026 21070 333 60005;
0075010270999992013012002004+69650+018900FM-12+002099999V02099999999999999999N9999999N1-00261-00641999999ADDAA101000021REMSYN052AAXX  20021 01027 26/// ///// 11026 21064 333 60005;
0075010270999992013012003004+69650+018900FM-12+002099999V02099999999999999999N9999999N1-00241-00621999999ADDAA101000021REMSYN052AAXX  20031 01027 26/// ///// 11024 21062 333 60005;
0075010270999992013012004004+69650+018900FM-12+002099999V02099999999999999999N9999999N1-00221-00611999999ADDAA101000021REMSYN052AAXX  20041 01027 26/// ///// 11022 21061 333 60005;
0075010270999992013012005004+69650+018900FM-12+002099999V02099999999999999999N9999999N1-00201-00691999999ADDAA101000021REMSYN052AAXX  20051 01027 26/// ///// 11020 21069 333 60005;
0130010270999992013012006004+69650+018900FM-12+002099999V02099999999999999999N9999999N1-00351-00751999999ADDAA112000091AA224001891KA1999N-00361REMSYN064AAXX  20061 01027 16/// ///// 11035 21075 60002 333 21036 70019;EQDQ01  00002PRCP12
0075010270999992013012007004+69650+018900FM-12+002099999V02099999999999999999N9999999N1-00221-00701999999ADDAA101000021REMSYN052AAXX  20071 01027 26/// ///// 11022 21070 333 60005;
0075010270999992013012008004+69650+018900FM-12+002099999V02099999999999999999N9999999N1-00441-00801999999ADDAA101000021REMSYN052AAXX  20081 01027 26/// ///// 11044 21080 333 60005;
0075010270999992013012009004+69650+018900FM-12+002099999V02099999999999999999N9999999N1-00531-00831999999ADDAA101000021REMSYN052AAXX  20091 01027 26/// ///// 11053 21083 333 60005;
0075010270999992013012010004+69650+018900FM-12+002099999V02099999999999999999N9999999N1-00441-00701999999ADDAA101000021REMSYN052AAXX  20101 01027 26/// ///// 11044 21070 333 60005;
0075010270999992013012011004+69650+018900FM-12+002099999V02099999999999999999N9999999N1-00431-00701999999ADDAA101000021REMSYN052AAXX  20111 01027 26/// ///// 11043 21070 333 60005;
0090010270999992013012012004+69650+018900FM-12+002099999V02099999999999999999N9999999N1-00281-00661999999ADDAA106000091REMSYN048AAXX  20121 01027 16/// ///// 11028 21066 60001;EQDQ01  00002PRCP06
0075010270999992013012013004+69650+018900FM-12+002099999V02099999999999999999N9999999N1-00261-00641999999ADDAA101000021REMSYN052AAXX  20131 01027 26/// ///// 11026 21064 333 60005;
0075010270999992013012014004+69650+018900FM-12+002099999V02099999999999999999N9999999N1-00241-00581999999ADDAA101000021REMSYN052AAXX  20141 01027 26/// ///// 11024 21058 333 60005;
0075010270999992013012015004+69650+018900FM-12+002099999V02099999999999999999N9999999N1-00241-00591999999ADDAA101000021REMSYN052AAXX  20151 01027 26/// ///// 11024 21059 333 60005;
0075010270999992013012016004+69650+018900FM-12+002099999V02099999999999999999N9999999N1-00231-00631999999ADDAA101000021REMSYN052AAXX  20161 01027 26/// ///// 11023 21063 333 60005;
0075010270999992013012017004+69650+018900FM-12+002099999V02099999999999999999N9999999N1-00221-00641999999ADDAA101000021REMSYN052AAXX  20171 01027 26/// ///// 11022 21064 333 60005;
0113010270999992013012018004+69650+018900FM-12+002099999V02099999999999999999N9999999N1-00201-00651999999ADDAA112000091KA1999M-00201REMSYN058AAXX  20181 01027 16/// ///// 11020 21065 60002 333 11020;EQDQ01  00002PRCP12
0075010270999992013012019004+69650+018900FM-12+002099999V02099999999999999999N9999999N1-00191-00661999999ADDAA101000021REMSYN052AAXX  20191 01027 26/// ///// 11019 21066 333 60005;
0075010270999992013012020004+69650+018900FM-12+002099999V02099999999999999999N9999999N1-00181-00681999999ADDAA101000021REMSYN052AAXX  20201 01027 26/// ///// 11018 21068 333 60005;
0075010270999992013012021004+69650+018900FM-12+002099999V02099999999999999999N9999999N1-00101-00551999999ADDAA101000021REMSYN052AAXX  20211 01027 26/// ///// 11010 21055 333 60005;
0075010270999992013012022004+69650+018900FM-12+002099999V02099999999999999999N9999999N1-00101-00551999999ADDAA101000021REMSYN052AAXX  20221 01027 26/// ///// 11010 21055 333 60005;
0075010270999992013012023004+69650+018900FM-12+002099999V02099999999999999999N9999999N1-00121-00531999999ADDAA101000021REMSYN052AAXX  20231 01027 26/// ///// 11012 21053 333 60005;
0090010270999992013012100004+69650+018900FM-12+002099999V02099999999999999999N9999999N1-00111-00431999999ADDAA106000091REMSYN048AAXX  21001 01027 16/// ///// 11011 21043 60001;EQDQ01  00002PRCP06
0075010270999992013012101004+69650+018900FM-12+002099999V02099999999999999999N9999999N1-00121-00341999999ADDAA101000021REMSYN052AAXX  21011 01027 26/// ///// 11012 21034 333 69925;
0075010270999992013012102004+69650+018900FM-12+002099999V02099999999999999999N9999999N1-00101-00151999999ADDAA101001091REMSYN052AAXX  21021 01027 26/// ///// 11010 21015 333 60015;
0075010270999992013012103004+69650+018900FM-12+002099999V02099999999999999999N9999999N1-00071-00101999999ADDAA101002091REMSYN052AAXX  21031 01027 26/// ///// 11007 21010 333 60025;
0075010270999992013012104004+69650+018900FM-12+002099999V02099999999999999999N9999999N1+00011-00021999999ADDAA101001091REMSYN052AAXX  21041 01027 26/// ///// 10001 21002 333 60015;
0075010270999992013012105004+69650+018900FM-12+002099999V02099999999999999999N9999999N1+00171+00131999999ADDAA101000891REMSYN052AAXX  21051 01027 26/// ///// 10017 20013 333 69985;
0111010270999992013012106004+69650+018900FM-12+002099999V02099999999999999999N9999999N1+00181+00081999999ADDAA112007192AA224006992KA1999N-00211REMSYN064AAXX  21061 01027 16/// ///// 10018 20008 60072 333 21021 70068;
0075010270999992013012107004+69650+018900FM-12+002099999V02099999999999999999N9999999N1+00181+00071999999ADDAA101000591REMSYN052AAXX  21071 01027 26/// ///// 10018 20007 333 69955;
0075010270999992013012108004+69650+018900FM-12+002099999V02099999999999999999N9999999N1+00161+00051999999ADDAA101000891REMSYN052AAXX  21081 01027 26/// ///// 10016 20005 333 69985;
0075010270999992013012109004+69650+018900FM-12+002099999V02099999999999999999N9999999N1+00211+00041999999ADDAA101000591REMSYN052AAXX  21091 01027 26/// ///// 10021 20004 333 69955;
0075010270999992013012110004+69650+018900FM-12+002099999V02099999999999999999N9999999N1+00121-00071999999ADDAA101000591REMSYN052AAXX  21101 01027 26/// ///// 10012 21007 333 69965;
0075010270999992013012111004+69650+018900FM-12+002099999V02099999999999999999N9999999N1+00271-00171999999ADDAA101000591REMSYN052AAXX  21111 01027 26/// ///// 10027 21017 333 69955;
0071010270999992013012112004+69650+018900FM-12+002099999V02099999999999999999N9999999N1+00331-00181999999ADDAA106003091REMSYN048AAXX  21121 01027 16/// ///// 10033 21018 60031;
0075010270999992013012113004+69650+018900FM-12+002099999V02099999999999999999N9999999N1+00121+00001999999ADDAA101002091REMSYN052AAXX  21131 01027 26/// ///// 10012 20000 333 60025;
0075010270999992013012114004+69650+018900FM-12+002099999V02099999999999999999N9999999N1+00141-00031999999ADDAA101001091REMSYN052AAXX  21141 01027 26/// ///// 10014 21003 333 60015;
0075010270999992013012115004+69650+018900FM-12+002099999V02099999999999999999N9999999N1+00161-00201999999ADDAA101000021REMSYN052AAXX  21151 01027 26/// ///// 10016 21020 333 69925;
0075010270999992013012116004+69650+018900FM-12+002099999V02099999999999999999N9999999N1+00231-00301999999ADDAA101000021REMSYN052AAXX  21161 01027 26/// ///// 10023 21030 333 60005;
0075010270999992013012117004+69650+018900FM-12+002099999V02099999999999999999N9999999N1+00211-00291999999ADDAA101000021REMSYN052AAXX  21171 01027 26/// ///// 10021 21029 333 60005;
0094010270999992013012118004+69650+018900FM-12+002099999V02099999999999999999N9999999N1+00211-00371999999ADDAA112006191KA1999M+00341REMSYN058AAXX  21181 01027 16/// ///// 10021 21037 60062 333 10034;
0075010270999992013012119004+69650+018900FM-12+002099999V02099999999999999999N9999999N1+00171-00371999999ADDAA101000021REMSYN052AAXX  21191 01027 26/// ///// 10017 21037 333 60005;
0075010270999992013012120004+69650+018900FM-12+002099999V02099999999999999999N9999999N1+00161-00361999999ADDAA101000391REMSYN052AAXX  21201 01027 26/// ///// 10016 21036 333 69935;
0075010270999992013012121004+69650+018900FM-12+002099999V02099999999999999999N9999999N1+00131-00481999999ADDAA101000391REMSYN052AAXX  21211 01027 26/// ///// 10013 21048 333 69935;
0075010270999992013012122004+69650+018900FM-12+002099999V02099999999999999999N9999999N1-00061-00321999999ADDAA101000391REMSYN052AAXX  21221 01027 26/// ///// 11006 21032 333 69935;
0075010270999992013012123004+69650+018900FM-12+002099999V02099999999999999999N9999999N1+00021-00401999999ADDAA101000021REMSYN052AAXX  21231 01027 26/// ///// 10002 21040 333 69925;
0071010270999992013012200004+69650+018900FM-12+002099999V02099999999999999999N9999999N1-00101-00291999999ADDAA106002091REMSYN048AAXX  22001 01027 16/// ///// 11010 21029 60021;
0075010270999992013012201004+69650+018900FM-12+002099999V02099999999999999999N9999999N1-00121-00231999999ADDAA101000591REMSYN052AAXX  22011 01027 26/// ///// 11012 21023 333 69945;
0075010270999992013012202004+69650+018900FM-12+002099999V02099999999999999999N9999999N1+00021-00521999999ADDAA101000021REMSYN052AAXX  22021 01027 26/// ///// 10002 21052 333 60005;
0075010270999992013012203004+69650+018900FM-12+002099999V02099999999999999999N9999999N1-00091-00331999999ADDAA101000391REMSYN052AAXX  22031 01027 26/// ///// 11009 21033 333 69935;
0075010270999992013012204004+69650+018900FM-12+002099999V02099999999999999999N9999999N1-00081-00271999999ADDAA101000391REMSYN052AAXX  22041 01027 26/// ///// 11008 21027 333 69935;
0075010270999992013012205004+69650+018900FM-12+002099999V02099999999999999999N9999999N1-00201-00311999999ADDAA101000021REMSYN052AAXX  22051 01027 26/// ///// 11020 21031 333 69925;
0111010270999992013012206004+69650+018900FM-12+002099999V02099999999999999999N9999999N1-00061-00471999999ADDAA112003091AA224009791KA1999N-00221REMSYN064AAXX  22061 01027 16/// ///// 11006 21047 60032 333 21022 70096;
0075010270999992013012207004+69650+018900FM-12+002099999V02099999999999999999N9999999N1-00071-00571999999ADDAA101000021REMSYN052AAXX  22071 01027 26/// ///// 11007 21057 333 60005;
0075010270999992013012208004+69650+018900FM-12+002099999V02099999999999999999N9999999N1-00111-00461999999ADDAA101000391REMSYN052AAXX  22081 01027 26/// ///// 11011 21046 333 69935;
0075010270999992013012209004+69650+018900FM-12+002099999V02099999999999999999N9999999N1-00321-00431999999ADDAA101000591REMSYN052AAXX  22091 01027 26/// ///// 11032 21043 333 69945;
0075010270999992013012210004+69650+018900FM-12+002099999V02099999999999999999N9999999N1-00361-00501999999ADDAA101000391REMSYN052AAXX  22101 01027 26/// ///// 11036 21050 333 69935;
0075010270999992013012211004+69650+018900FM-12+002099999V02099999999999999999N9999999N1-00371-00481999999ADDAA101000391REMSYN052AAXX  22111 01027 26/// ///// 11037 21048 333 69935;
0071010270999992013012212004+69650+018900FM-12+002099999V02099999999999999999N9999999N1-00441-00521999999ADDAA106002091REMSYN048AAXX  22121 01027 16/// ///// 11044 21052 60021;
0075010270999992013012213004+69650+018900FM-12+002099999V02099999999999999999N9999999N1-00431-00591999999ADDAA101000021REMSYN052AAXX  22131 01027 26/// ///// 11043 21059 333 69925;
0075010270999992013012214004+69650+018900FM-12+002099999V02099999999999999999N9999999N1-00541-00621999999ADDAA101001091REMSYN052AAXX  22141 01027 26/// ///// 11054 21062 333 60015;
0075010270999992013012215004+69650+018900FM-12+002099999V02099999999999999999N9999999N1-00561-00631999999ADDAA101000391REMSYN052AAXX  22151 01027 26/// ///// 11056 21063 333 69935;
0075010270999992013012216004+69650+018900FM-12+002099999V02099999999999999999N9999999N1-00571-00651999999ADDAA101000391REMSYN052AAXX  22161 01027 26/// ///// 11057 21065 333 69935;
0075010270999992013012217004+69650+018900FM-12+002099999V02099999999999999999N9999999N1-00531-00601999999ADDAA101000391REMSYN052AAXX  22171 01027 26/// ///// 11053 21060 333 69935;
0094010270999992013012218004+69650+018900FM-12+002099999V02099999999999999999N9999999N1-00541-00621999999ADDAA112004191KA1999M+00001REMSYN058AAXX  22181 01027 16/// ///// 11054 21062 60042 333 10000;
0075010270999992013012219004+69650+018900FM-12+002099999V02099999999999999999N9999999N1-00561-00831999999ADDAA101000021REMSYN052AAXX  22191 01027 26/// ///// 11056 21083 333 60005;
0075010270999992013012220004+69650+018900FM-12+002099999V02099999999999999999N9999999N1-00521-00911999999ADDAA101000021REMSYN052AAXX  22201 01027 26/// ///// 11052 21091 333 60005;
0075010270999992013012221004+69650+018900FM-12+002099999V02099999999999999999N9999999N1-00541-00941999999ADDAA101000021REMSYN052AAXX  22211 01027 26/// ///// 11054 21094 333 60005;
0075010270999992013012222004+69650+018900FM-12+002099999V02099999999999999999N9999999N1-00481-01081999999ADDAA101000021REMSYN052AAXX  22221 01027 26/// ///// 11048 21108 333 60005;
0075010270999992013012223004+69650+018900FM-12+002099999V02099999999999999999N9999999N1-00481-00961999999ADDAA101000021REMSYN052AAXX  22231 01027 26/// ///// 11048 21096 333 60005;
0071010270999992013012300004+69650+018900FM-12+002099999V02099999999999999999N9999999N1-00511-00801999999ADDAA106000591REMSYN048AAXX  23001 01027 16/// ///// 11051 21080 69961;
0075010270999992013012301004+69650+018900FM-12+002099999V02099999999999999999N9999999N1-00471-00851999999ADDAA101000021REMSYN052AAXX  23011 01027 26/// ///// 11047 21085 333 60005;
0075010270999992013012302004+69650+018900FM-12+002099999V02099999999999999999N9999999N1-00481-00931999999ADDAA101000021REMSYN052AAXX  23021 01027 26/// ///// 11048 21093 333 69925;
0075010270999992013012303004+69650+018900FM-12+002099999V02099999999999999999N9999999N1-00571-00781999999ADDAA101000021REMSYN052AAXX  23031 01027 26/// ///// 11057 21078 333 60005;
0075010270999992013012304004+69650+018900FM-12+002099999V02099999999999999999N9999999N1-00471-00621999999ADDAA101000021REMSYN052AAXX  23041 01027 26/// ///// 11047 21062 333 69925;
0075010270999992013012305004+69650+018900FM-12+002099999V02099999999999999999N9999999N1-00441-00761999999ADDAA101000021REMSYN052AAXX  23051 01027 26/// ///// 11044 21076 333 60005;
0111010270999992013012306004+69650+018900FM-12+002099999V02099999999999999999N9999999N1-00531-00621999999ADDAA112002091AA224005691KA1999N-00611REMSYN064AAXX  23061 01027 16/// ///// 11053 21062 60022 333 21061 70057;
0075010270999992013012307004+69650+018900FM-12+002099999V02099999999999999999N9999999N1-00521-00711999999ADDAA101000391REMSYN052AAXX  23071 01027 26/// ///// 11052 21071 333 69935;
0075010270999992013012308004+69650+018900FM-12+002099999V02099999999999999999N9999999N1-00491-00891999999ADDAA101000021REMSYN052AAXX  23081 01027 26/// ///// 11049 21089 333 60005;
0075010270999992013012309004+69650+018900FM-12+002099999V02099999999999999999N9999999N1-00561-00881999999ADDAA101000021REMSYN052AAXX  23091 01027 26/// ///// 11056 21088 333 60005;
0075010270999992013012310004+69650+018900FM-12+002099999V02099999999999999999N9999999N1-00481-00881999999ADDAA101000021REMSYN052AAXX  23101 01027 26/// ///// 11048 21088 333 60005;
0075010270999992013012311004+69650+018900FM-12+002099999V02099999999999999999N9999999N1-00431-00971999999ADDAA101000021REMSYN052AAXX  23111 01027 26/// ///// 11043 21097 333 60005;
0071010270999992013012312004+69650+018900FM-12+002099999V02099999999999999999N9999999N1-00421-00781999999ADDAA106000591REMSYN048AAXX  23121 01027 16/// ///// 11042 21078 69941;
0075010270999992013012313004+69650+018900FM-12+002099999V02099999999999999999N9999999N1-00331-00611999999ADDAA101000021REMSYN052AAXX  23131 01027 26/// ///// 11033 21061 333 60005;
0075010270999992013012314004+69650+018900FM-12+002099999V02099999999999999999N9999999N1-00361-00521999999ADDAA101000891REMSYN052AAXX  23141 01027 26/// ///// 11036 21052 333 69975;
0075010270999992013012315004+69650+018900FM-12+002099999V02099999999999999999N9999999N1-00251-00311999999ADDAA101001091REMSYN052AAXX  23151 01027 26/// ///// 11025 21031 333 69995;
