0194010260999992013010100004+69650+018933FM-12+011599999V0202201N002012200019N0700001N1-00341-00511098741ADDAJ100149199999999AY101061AY201061GF102991011061000751031001MA1999999097321MD1210021+9999MW1021REMSYN088AAXX  01001 01026 41188 22202 11034 21051 39732 49874 52002 70200 81630 333 4/014 91103;
0128010260999992013010101004+69650+018933FM-12+011599999V0202601N001019999999N9999999N1-00361-00531098721ADDAJ100139199999999MA1999999097301MD1410001+9999REMSYN070AAXX  01011 01026 46/// /2601 11036 21053 39730 49872 54000 333 4/013;
0128010260999992013010102004+69650+018933FM-12+011599999V0200501N001019999999N9999999N1-00431-00571098701ADDAJ100149199999999MA1999999097281MD1810021+9999REMSYN070AAXX  01021 01026 46/// /0501 11043 21057 39728 49870 58002 333 4/014;
0188010260999992013010103004+69650+018933FM-12+011599999V0202701N001012200019N0650001N1-00411-00551098691ADDAJ100149199999999AY101031AY201031GF104991011061000751031081MA1999999097271MD1710051+9999MW1021REMSYN082AAXX  01031 01026 41187 42701 11041 21055 39727 49869 57005 70200 81638 333 4/014;
0128010260999992013010104004+69650+018933FM-12+011599999V0200601N001019999999N9999999N1-00311-00441098701ADDAJ100149199999999MA1999999097281MD1510021+9999REMSYN070AAXX  01041 01026 46/// /0601 11031 21044 39728 49870 55002 333 4/014;
0128010260999992013010105004+69650+018933FM-12+011599999V0202201N002019999999N9999999N1-00321-00531098701ADDAJ100149199999999MA1999999097281MD1410001+9999REMSYN070AAXX  01051 01026 46/// /2202 11032 21053 39728 49870 54000 333 4/014;
0288010260999992013010106004+69650+018933FM-12+011599999V0202401N001012200019N0750001N1-00321-00531098711ADDAA112000091AA224000091AJ100149199999999AY101061AY201061GF102991011011012501031011IA1229KA1999N-00451MA1999999097291MD1210031+9999MW1021REMSYN106AAXX  01061 01026 11689 22401 11032 21053 39729 49871 52003 60002 70200 81131 333 21045 46014 70000 91103;EQDQ01  00002PRCP24Q02  00002PRCP12
0128010260999992013010107004+69650+018933FM-12+011599999V0209999C000019999999N9999999N1-00331-00591098731ADDAJ100139199999999MA1999999097311MD1210031+9999REMSYN070AAXX  01071 01026 46/// /0000 11033 21059 39731 49873 52003 333 4/013;
0128010260999992013010108004+69650+018933FM-12+011599999V0201801N002019999999N9999999N1-00231-00541098761ADDAJ100149199999999MA1999999097351MD1310061+9999REMSYN070AAXX  01081 01026 46/// /1802 11023 21054 39735 49876 53006 333 4/014;
0188010260999992013010109004+69650+018933FM-12+011599999V0200801N001012200019N0700001N1-00301-00581098811ADDAJ100139199999999AY101031AY201031GF101991011011012501031001MA1999999097391MD1310101+9999MW1021REMSYN082AAXX  01091 01026 41688 10801 11030 21058 39739 49881 53010 70200 81130 333 4/013;
0128010260999992013010110004+69650+018933FM-12+011599999V0202201N001019999999N9999999N1-00271-00631098851ADDAJ100139199999999MA1999999097431MD1210121+9999REMSYN070AAXX  01101 01026 46/// /2201 11027 21063 39743 49885 52012 333 4/013;
0128010260999992013010111004+69650+018933FM-12+011599999V0202101N002019999999N9999999N1-00301-00631098881ADDAJ100139199999999MA1999999097461MD1210121+9999REMSYN070AAXX  01111 01026 46/// /2102 11030 21063 39746 49888 52012 333 4/013;
0194010260999992013010112004+69650+018933FM-12+011599999V0203101N001012200019N0750001N1-00331-00601098921ADDAJ100139199999999AY101061AY201061GF101991011011008001001011MA1999999097501MD1210111+9999MW1021REMSYN088AAXX  01121 01026 41589 13101 11033 21060 39750 49892 52011 70200 81101 333 4/013 91106;
0128010260999992013010113004+69650+018933FM-12+011599999V0200701N001019999999N9999999N1-00341-00721098951ADDAJ100149199999999MA1999999097531MD1210101+9999REMSYN070AAXX  01131 01026 46/// /0701 11034 21072 39753 49895 52010 333 4/014;
0128010260999992013010114004+69650+018933FM-12+011599999V0200501N001019999999N9999999N1-00291-00651099001ADDAJ100149199999999MA1999999097581MD1210121+9999REMSYN070AAXX  01141 01026 46/// /0501 11029 21065 39758 49900 52012 333 4/014;
0188010260999992013010115004+69650+018933FM-12+011599999V0200101N001012200019N0750001N1-00431-00761099051ADDAJ100149199999999AY101031AY201031GF101991011011008001001001MA1999999097621MD1210121+9999MW1021REMSYN082AAXX  01151 01026 41589 10101 11043 21076 39762 49905 52012 70200 81100 333 4/014;
0128010260999992013010116004+69650+018933FM-12+011599999V0200701N002019999999N9999999N1-00321-00691099081ADDAJ100139199999999MA1999999097661MD1210131+9999REMSYN070AAXX  01161 01026 46/// /0702 11032 21069 39766 49908 52013 333 4/013;
0128010260999992013010117004+69650+018933FM-12+011599999V0200401N001019999999N9999999N1-00381-00771099101ADDAJ100149199999999MA1999999097671MD1110091+9999REMSYN070AAXX  01171 01026 46/// /0401 11038 21077 39767 49910 51009 333 4/014;
0259010260999992013010118004+69650+018933FM-12+011599999V0200501N002012200019N0750001N1-00451-00741099141ADDAA112000091AJ100149199999999AY101061AY201061GA1001+999999999GF100991001001999999001001KA1120M-00191MA1999999097711MD1210091+9999MW1021REMSYN094AAXX  01181 01026 11989 00502 11045 21074 39771 49914 52009 60002 70200 333 11019 4/014 91103;EQDQ01  00002PRCP12
0128010260999992013010119004+69650+018933FM-12+011599999V0200801N002019999999N9999999N1-00341-00571099161ADDAJ100139199999999MA1999999097741MD1210081+9999REMSYN070AAXX  01191 01026 46/// /0802 11034 21057 39774 49916 52008 333 4/013;
0128010260999992013010120004+69650+018933FM-12+011599999V0200801N001019999999N9999999N1-00541-00791099241ADDAJ100149199999999MA1999999097801MD1210121+9999REMSYN070AAXX  01201 01026 46/// /0801 11054 21079 39780 49924 52012 333 4/014;
0198010260999992013010121004+69650+018933FM-12+011599999V0200701N002012200019N0750001N1-00461-00691099271ADDAJ100139199999999AY101031AY201031GA1001+999999999GF100991001001999999001001MA1999999097841MD1210131+9999MW1021REMSYN076AAXX  01211 01026 41989 00702 11046 21069 39784 49927 52013 70200 333 4/013;
0128010260999992013010122004+69650+018933FM-12+011599999V0202601N001019999999N9999999N1-00481-00671099311ADDAJ100139199999999MA1999999097881MD1210141+9999REMSYN070AAXX  01221 01026 46/// /2601 11048 21067 39788 49931 52014 333 4/013;
0128010260999992013010123004+69650+018933FM-12+011599999V0202501N002019999999N9999999N1-00451-00571099341ADDAJ100139199999999MA1999999097911MD1210111+9999REMSYN070AAXX  01231 01026 46/// /2502 11045 21057 39791 49934 52011 333 4/013;
0194010260999992013010200004+69650+018933FM-12+011599999V0201601N001012200019N0750001N1-00441-00531099391ADDAJ100149199999999AY101061AY201061GF101991011061001501001001MA1999999097961MD1210121+9999MW1021REMSYN088AAXX  02001 01026 41289 11601 11044 21053 39796 49939 52012 70200 81600 333 4/014 91103;
0128010260999992013010201004+69650+018933FM-12+011599999V0202401N001019999999N9999999N1-00521-00611099421ADDAJ100139199999999MA1999999097981MD1110091+9999REMSYN070AAXX  02011 01026 46/// /2401 11052 21061 39798 49942 51009 333 4/013;
0128010260999992013010202004+69650+018933FM-12+011599999V0202201N002019999999N9999999N1-00461-00531099471ADDAJ100139199999999MA1999999098031MD1210131+9999REMSYN070AAXX  02021 01026 46/// /2202 11046 21053 39803 49947 52013 333 4/013;
0188010260999992013010203004+69650+018933FM-12+011599999V0202401N002012200019N0750001N1-00481-00551099521ADDAJ100139199999999AY101031AY201031GF102991021061002501001001MA1999999098081MD1310111+9999MW1021REMSYN082AAXX  02031 01026 41389 22402 11048 21055 39808 49952 53011 70200 82600 333 4/013;
0128010260999992013010204004+69650+018933FM-12+011599999V0202801N001019999999N9999999N1-00531-00601099541ADDAJ100139199999999MA1999999098101MD1110121+9999REMSYN070AAXX  02041 01026 46/// /2801 11053 21060 39810 49954 51012 333 4/013;
0128010260999992013010205004+69650+018933FM-12+011599999V0201901N002019999999N9999999N1-00551-00621099581ADDAJ100149199999999MA1999999098141MD1310101+9999REMSYN070AAXX  02051 01026 46/// /1902 11055 21062 39814 49958 53010 333 4/014;
0288010260999992013010206004+69650+018933FM-12+011599999V0202401N002010006019N0050001N1-00471-00531099631ADDAA112000091AA224000091AJ100129199999999AY141061AY211061GF107991071061000751001001IA1229KA1999N-00621MA1999999098191MD1310111+9999MW1401REMSYN106AAXX  02061 01026 11150 72402 11047 21053 39819 49963 53011 69912 74041 87600 333 21062 46012 70001 91103;EQDQ01  00002PRCP24Q02  00002PRCP12
0128010260999992013010207004+69650+018933FM-12+011599999V0202301N001019999999N9999999N1-00391-00461099661ADDAJ100139199999999MA1999999098231MD1310131+9999REMSYN070AAXX  02071 01026 46/// /2301 11039 21046 39823 49966 53013 333 4/013;
0128010260999992013010208004+69650+018933FM-12+011599999V0202101N002019999999N9999999N1-00351-00421099701ADDAJ100139199999999MA1999999098271MD1210131+9999REMSYN070AAXX  02081 01026 46/// /2102 11035 21042 39827 49970 52013 333 4/013;
0188010260999992013010209004+69650+018933FM-12+011599999V0202501N002010006019N0050001N1-00431-00501099731ADDAJ100139199999999AY121031AY221031GF108991081061000751999999MA1999999098291MD1210101+9999MW1401REMSYN082AAXX  02091 01026 41150 82502 11043 21050 39829 49973 52010 74022 886// 333 4/013;
0128010260999992013010210004+69650+018933FM-12+011599999V0202201N002019999999N9999999N1-00441-00511099771ADDAJ100139199999999MA1999999098331MD1210111+9999REMSYN070AAXX  02101 01026 46/// /2202 11044 21051 39833 49977 52011 333 4/013;
0128010260999992013010211004+69650+018933FM-12+011599999V0202201N003019999999N9999999N1-00391-00461099811ADDAJ100139199999999MA1999999098371MD1210101+9999REMSYN070AAXX  02111 01026 46/// /2203 11039 21046 39837 49981 52010 333 4/013;
0194010260999992013010212004+69650+018933FM-12+011599999V0202001N003010006019N0030001N1-00391-00451099821ADDAJ100139199999999AY121061AY221061GF107991071061000751999999MA1999999098381MD1210091+9999MW1401REMSYN088AAXX  02121 01026 41130 72003 11039 21045 39838 49982 52009 74022 876// 333 4/013 91106;
0128010260999992013010213004+69650+018933FM-12+011599999V0202101N002019999999N9999999N1-00371-00441099861ADDAJ100139199999999MA1999999098421MD1210091+9999REMSYN070AAXX  02131 01026 46/// /2102 11037 21044 39842 49986 52009 333 4/013;
0128010260999992013010214004+69650+018933FM-12+011599999V0202101N003019999999N9999999N1-00361-00431099871ADDAJ100139199999999MA1999999098431MD1210071+9999REMSYN070AAXX  02141 01026 46/// /2103 11036 21043 39843 49987 52007 333 4/013;
0188010260999992013010215004+69650+018933FM-12+011599999V0202101N005010300019N0750001N1-00351-00421099891ADDAJ100139199999999AY121031AY221031GF107991031061002501051081MA1999999098451MD1210071+9999MW1011REMSYN082AAXX  02151 01026 41389 72105 11035 21042 39845 49989 52007 70122 83658 333 4/013;
0128010260999992013010216004+69650+018933FM-12+011599999V0202001N005019999999N9999999N1-00331-00411099891ADDAJ100139199999999MA1999999098461MD1210041+9999REMSYN070AAXX  02161 01026 46/// /2005 11033 21041 39846 49989 52004 333 4/013;
0128010260999992013010217004+69650+018933FM-12+011599999V0202001N005019999999N9999999N1-00301-00381099881ADDAJ100139199999999MA1999999098451MD1210021+9999REMSYN070AAXX  02171 01026 46/// /2005 11030 21038 39845 49988 52002 333 4/013;
0213010260999992013010218004+69650+018933FM-12+011599999V0202101N005010075019N0750001N1-00281-00371099871ADDAJ100139199999999AY121061AY221061GF107991061051008001071999KA1120M-00281MA1999999098441MD1410001+9999MW1021REMSYN094AAXX  02181 01026 41589 72105 11028 21037 39844 49987 54000 70222 8657/ 333 11028 4/013 91109;
0128010260999992013010219004+69650+018933FM-12+011599999V0202101N005019999999N9999999N1-00281-00391099841ADDAJ100139199999999MA1999999098411MD1810041+9999REMSYN070AAXX  02191 01026 46/// /2105 11028 21039 39841 49984 58004 333 4/013;
0128010260999992013010220004+69650+018933FM-12+011599999V0202101N004019999999N9999999N1-00261-00391099861ADDAJ100139199999999MA1999999098431MD1710021+9999REMSYN070AAXX  02201 01026 46/// /2104 11026 21039 39843 49986 57002 333 4/013;
0188010260999992013010221004+69650+018933FM-12+011599999V0202301N004010300019N0700001N1-00201-00341099841ADDAJ100139199999999AY121031AY221031GF107991041051012501071999MA1999999098411MD1710031+9999MW1021REMSYN082AAXX  02211 01026 41688 72304 11020 21034 39841 49984 57003 70222 8457/ 333 4/013;
0128010260999992013010222004+69650+018933FM-12+011599999V0202201N005019999999N9999999N1-00211-00371099791ADDAJ100139199999999MA1999999098361MD1810051+9999REMSYN070AAXX  02221 01026 46/// /2205 11021 21037 39836 49979 58005 333 4/013;
0128010260999992013010223004+69650+018933FM-12+011599999V0202301N003019999999N9999999N1-00201-00381099751ADDAJ100139199999999MA1999999098321MD1810101+9999REMSYN070AAXX  02231 01026 46/// /2303 11020 21038 39832 49975 58010 333 4/013;
0194010260999992013010300004+69650+018933FM-12+011599999V0202101N005010120019N0750001N1-00161-00351099701ADDAJ100139199999999AY121061AY221061GF106991051051012501071021MA1999999098281MD1610131+9999MW1011REMSYN088AAXX  03001 01026 41689 62105 11016 21035 39828 49970 56013 70122 85572 333 4/013 91110;
0128010260999992013010301004+69650+018933FM-12+011599999V0202201N005019999999N9999999N1-00151-00341099671ADDAJ100139199999999MA1999999098251MD1610101+9999REMSYN070AAXX  03011 01026 46/// /2205 11015 21034 39825 49967 56010 333 4/013;
0128010260999992013010302004+69650+018933FM-12+011599999V0202201N004019999999N9999999N1-00121-00311099621ADDAJ100139199999999MA1999999098201MD1710121+9999REMSYN070AAXX  03021 01026 46/// /2204 11012 21031 39820 49962 57012 333 4/013;
0188010260999992013010303004+69650+018933FM-12+011599999V0202101N004010120019N0700001N1-00101-00301099611ADDAJ100139199999999AY121031AY221031GF107991051051012501071999MA1999999098191MD1610091+9999MW1031REMSYN082AAXX  03031 01026 41688 72104 11010 21030 39819 49961 56009 70322 8557/ 333 4/013;
0128010260999992013010304004+69650+018933FM-12+011599999V0202201N005019999999N9999999N1-00091-00321099551ADDAJ100139199999999MA1999999098131MD1710131+9999REMSYN070AAXX  03041 01026 46/// /2205 11009 21032 39813 49955 57013 333 4/013;
0128010260999992013010305004+69650+018933FM-12+011599999V0202101N004019999999N9999999N1-00081-00341099521ADDAJ100139199999999MA1999999098101MD1810101+9999REMSYN070AAXX  03051 01026 46/// /2104 11008 21034 39810 49952 58010 333 4/013;
0219010260999992013010306004+69650+018933FM-12+011599999V0202001N003010120019N0750001N1-00041-00351099491ADDAJ100129199999999AY121061AY221061GF107991061051012501071999IA1239KA1999N-00301MA1999999098081MD1610111+9999MW1021REMSYN094AAXX  03061 01026 41689 72003 11004 21035 39808 49949 56011 70222 8657/ 333 21030 47012 91107;
0128010260999992013010308004+69650+018933FM-12+011599999V0202201N004019999999N9999999N1-00071-00331099451ADDAJ100139199999999MA1999999098041MD1510051+9999REMSYN070AAXX  03081 01026 46/// /2204 11007 21033 39804 49945 55005 333 4/013;
0128010260999992013010310004+69650+018933FM-12+011599999V0202201N004019999999N9999999N1-00111-00321099451ADDAJ100139199999999MA1999999098031MD1510021+9999REMSYN070AAXX  03101 01026 46/// /2204 11011 21032 39803 49945 55002 333 4/013;
0128010260999992013010311004+69650+018933FM-12+011599999V0202201N002019999999N9999999N1-00231-00401099431ADDAJ100139199999999MA1999999098011MD1710031+9999REMSYN070AAXX  03111 01026 46/// /2202 11023 21040 39801 49943 57003 333 4/013;
0194010260999992013010312004+69650+018933FM-12+011599999V0202101N001012200019N0700001N1-00331-00481099451ADDAJ100149199999999AY121061AY201061GF103991011051012501071041MA1999999098021MD1410001+9999MW1011REMSYN088AAXX  03121 01026 41688 32101 11033 21048 39802 49945 54001 70120 81574 333 4/014 91106;
0128010260999992013010314004+69650+018933FM-12+011599999V0209999C000019999999N9999999N1-00411-00501099471ADDAJ100139199999999MA1999999098041MD1210031+9999REMSYN070AAXX  03141 01026 46/// /0000 11041 21050 39804 49947 52003 333 4/013;
0188010260999992013010315004+69650+018933FM-12+011599999V0201401N001012200019N0700001N1-00461-00551099491ADDAJ100139199999999AY101031AY201031GF101991011001022501071081MA1999999098051MD1210041+9999MW1021REMSYN082AAXX  03151 01026 41888 11401 11046 21055 39805 49949 52004 70200 81078 333 4/013;
0128010260999992013010316004+69650+018933FM-12+011599999V0200601N001019999999N9999999N1-00531-00621099521ADDAJ100149199999999MA1999999098081MD1210051+9999REMSYN070AAXX  03161 01026 46/// /0601 11053 21062 39808 49952 52005 333 4/014;
0128010260999992013010317004+69650+018933FM-12+011599999V0202601N002019999999N9999999N1-00421-00501099541ADDAJ100139199999999MA1999999098111MD1210061+9999REMSYN070AAXX  03171 01026 46/// /2602 11042 21050 39811 49954 52006 333 4/013;
0224010260999992013010318004+69650+018933FM-12+011599999V0202601N001012200019N0700001N1-00551-00631099601ADDAA112000091AJ100139199999999AY101061AY201061GF101991011051012501071001MA1999999098161MD1310111+9999MW1021REMSYN088AAXX  03181 01026 11688 12601 11055 21063 39816 49960 53011 69912 70200 81570 333 4/013;EQDQ01  00002PRCP12
0128010260999992013010319004+69650+018933FM-12+011599999V0203201N001019999999N9999999N1-00571-00651099651ADDAJ100139199999999MA1999999098211MD1210131+9999REMSYN070AAXX  03191 01026 46/// /3201 11057 21065 39821 49965 52013 333 4/013;
0128010260999992013010320004+69650+018933FM-12+011599999V0202701N001019999999N9999999N1-00591-00661099751ADDAJ100149199999999MA1999999098301MD1310191+9999REMSYN070AAXX  03201 01026 46/// /2701 11059 21066 39830 49975 53019 333 4/014;
0188010260999992013010321004+69650+018933FM-12+011599999V0202801N001012200019N0600001N1-00541-00611099811ADDAJ100139199999999AY101031AY201031GF103991999061008001001001MA1999999098371MD1310201+9999MW1021REMSYN082AAXX  03211 01026 41586 32801 11054 21061 39837 49981 53020 70200 82600 333 4/013;
0128010260999992013010322004+69650+018933FM-12+011599999V0202301N002019999999N9999999N1-00581-00661099901ADDAJ100139199999999MA1999999098451MD1210241+9999REMSYN070AAXX  03221 01026 46/// /2302 11058 21066 39845 49990 52024 333 4/013;
0128010260999992013010323004+69650+018933FM-12+011599999V0202601N002019999999N9999999N1-00431-00491100011ADDAJ100139199999999MA1999999098571MD1310271+9999REMSYN070AAXX  03231 01026 46/// /2602 11043 21049 39857 40001 53027 333 4/013;
0213010260999992013010400004+69650+018933FM-12+011599999V0202101N002010012019N0600001N1-00381-00451100091ADDAJ100139199999999AY121061AY201061GF106991999061001501001001MA1999999098651MD1210271+9999MW1031REMSYN088AAXX  04001 01026 41286 62102 11038 21045 39865 40009 52027 70320 85600 333 4/013 91103;EQDQ01+000052SCOTLC
0128010260999992013010401004+69650+018933FM-12+011599999V0202201N003019999999N9999999N1-00351-00421100171ADDAJ100139199999999MA1999999098731MD1210281+9999REMSYN070AAXX  04011 01026 46/// /2203 11035 21042 39873 40017 52028 333 4/013;
0128010260999992013010402004+69650+018933FM-12+011599999V0202101N003019999999N9999999N1-00391-00461100261ADDAJ100139199999999MA1999999098821MD1210251+9999REMSYN070AAXX  04021 01026 46/// /2103 11039 21046 39882 40026 52025 333 4/013;
0188010260999992013010403004+69650+018933FM-12+011599999V0202001N003010042019N0600001N1-00331-00401100351ADDAJ100139199999999AY121031AY221031GF105991051061004501001001MA1999999098911MD1210271+9999MW1021REMSYN082AAXX  04031 01026 41486 52003 11033 21040 39891 40035 52027 70222 85600 333 4/013;
0128010260999992013010404004+69650+018933FM-12+011599999V0202001N004019999999N9999999N1-00341-00421100411ADDAJ100139199999999MA1999999098971MD1110241+9999REMSYN070AAXX  04041 01026 46/// /2004 11034 21042 39897 40041 51024 333 4/013;
0128010260999992013010405004+69650+018933FM-12+011599999V0202001N005019999999N9999999N1-00321-00431100471ADDAJ100139199999999MA1999999099031MD1110211+9999REMSYN070AAXX  04051 01026 46/// /2005 11032 21043 39903 40047 51021 333 4/013;
0282010260999992013010406004+69650+018933FM-12+011599999V0202101N006010300019N0650001N1-00301-00441100531ADDAA112000091AA224000091AJ100139199999999AY121061AY221061GF106991041051008001071001KA1999N-00631MA1999999099091MD1210171+9999MW1021REMSYN106AAXX  04061 01026 11587 62106 11030 21044 39909 40053 52017 60002 70222 84570 333 21063 4/013 70001 91109;EQDQ01  00002PRCP24Q02  00002PRCP12
0128010260999992013010407004+69650+018933FM-12+011599999V0202001N006019999999N9999999N1-00271-00441100581ADDAJ100139199999999MA1999999099141MD1210161+9999REMSYN070AAXX  04071 01026 46/// /2006 11027 21044 39914 40058 52016 333 4/013;
0128010260999992013010408004+69650+018933FM-12+011599999V0201901N005019999999N9999999N1-00291-00391100681ADDAJ100179199999999MA1999999099241MD1310211+9999REMSYN070AAXX  04081 01026 46/// /1905 11029 21039 39924 40068 53021 333 4/017;
0128010260999992013010409004+69650+018933FM-12+011599999V0202001N005019999999N9999999N1-00261-00331100741ADDAJ100179199999999MA1999999099301MD1110221+9999REMSYN070AAXX  04091 01026 46/// /2005 11026 21033 39930 40074 51022 333 4/017;
0128010260999992013010410004+69650+018933FM-12+011599999V0201901N005019999999N9999999N1-00221-00291100781ADDAJ100179199999999MA1999999099341MD1110201+9999REMSYN070AAXX  04101 01026 46/// /1905 11022 21029 39934 40078 51020 333 4/017;
0128010260999992013010411004+69650+018933FM-12+011599999V0202001N005019999999N9999999N1-00191-00251100821ADDAJ100199199999999MA1999999099381MD1110151+9999REMSYN070AAXX  04111 01026 46/// /2005 11019 21025 39938 40082 51015 333 4/019;
0140010260999992013010412004+69650+018933FM-12+011599999V0201801N005019999999N9999999N1-00141-00201100911ADDAJ100189199999999MA1999999099471MD1310161+9999REMSYN082AAXX  04121 01026 16/// /1805 11014 21020 39947 40091 53016 6//// 333 4/018 91110;
0128010260999992013010413004+69650+018933FM-12+011599999V0201901N004019999999N9999999N1-00121-00181100981ADDAJ100219199999999MA1999999099541MD1310201+9999REMSYN070AAXX  04131 01026 46/// /1904 11012 21018 39954 40098 53020 333 4/021;
0128010260999992013010414004+69650+018933FM-12+011599999V0201901N003019999999N9999999N1-00071-00131101051ADDAJ100229199999999MA1999999099611MD1210221+9999REMSYN070AAXX  04141 01026 46/// /1903 11007 21013 39961 40105 52022 333 4/022;
0128010260999992013010415004+69650+018933FM-12+011599999V0201901N004019999999N9999999N1-00041-00091101121ADDAJ100239199999999MA1999999099681MD1210211+9999REMSYN070AAXX  04151 01026 46/// /1904 11004 21009 39968 40112 52021 333 4/023;
0128010260999992013010416004+69650+018933FM-12+011599999V0201901N002019999999N9999999N1-00011-00061101211ADDAJ100239199999999MA1999999099771MD1210231+9999REMSYN070AAXX  04161 01026 46/// /1902 11001 21006 39977 40121 52023 333 4/023;
0128010260999992013010417004+69650+018933FM-12+011599999V0201501N002019999999N9999999N1+00021-00041101251ADDAJ100239199999999MA1999999099811MD1110201+9999REMSYN070AAXX  04171 01026 46/// /1502 10002 21004 39981 40125 51020 333 4/023;
0230010260999992013010418004+69650+018933FM-12+011599999V0201301N001010300019N0300001N1+00031-00041101331ADDAA112007991AJ100239199999999AY181061AY221061GF107991041081004501061999KA1120M+00061MA1999999099891MD1110201+9999MW1261REMSYN100AAXX  04181 01026 11480 71301 10003 21004 39989 40133 51020 60082 72682 8486/ 333 10006 4/023 91107;
0128010260999992013010419004+69650+018933FM-12+011599999V0201401N002019999999N9999999N1+00021-00051101421ADDAJ100239199999999MA1999999099981MD1310211+9999REMSYN070AAXX  04191 01026 46/// /1402 10002 21005 39998 40142 53021 333 4/023;
0128010260999992013010420004+69650+018933FM-12+011599999V0201601N001019999999N9999999N1+00031-00041101511ADDAJ100229199999999MA1999999100071MD1210261+9999REMSYN070AAXX  04201 01026 46/// /1601 10003 21004 30007 40151 52026 333 4/022;
0188010260999992013010421004+69650+018933FM-12+011599999V0200601N002010060019N0250001N1+00021-00051101581ADDAJ100229199999999AY181031AY221031GF107991061081002501061999MA1999999100141MD1110261+9999MW1261REMSYN082AAXX  04211 01026 41375 70602 10002 21005 30014 40158 51026 72682 8686/ 333 4/022;
0128010260999992013010422004+69650+018933FM-12+011599999V0200501N002019999999N9999999N1+00051-00021101651ADDAJ100229199999999MA1999999100211MD1110231+9999REMSYN070AAXX  04221 01026 46/// /0502 10005 21002 30021 40165 51023 333 4/022;
0128010260999992013010423004+69650+018933FM-12+011599999V0201501N001019999999N9999999N1+00041-00041101701ADDAJ100239199999999MA1999999100261MD1210181+9999REMSYN070AAXX  04231 01026 46/// /1501 10004 21004 30026 40170 52018 333 4/023;
0194010260999992013010500004+69650+018933FM-12+011599999V0201901N002010300019N0150001N1+00031-00041101731ADDAJ100229199999999AY181061AY221061GF107991031081000751061999MA1999999100291MD1210151+9999MW1261REMSYN088AAXX  05001 01026 41165 71902 10003 21004 30029 40173 52015 72682 8386/ 333 4/022 91104;
0128010260999992013010501004+69650+018933FM-12+011599999V0202001N003019999999N9999999N1+00061-00011101761ADDAJ100219199999999MA1999999100321MD1210121+9999REMSYN070AAXX  05011 01026 46/// /2003 10006 21001 30032 40176 52012 333 4/021;
0128010260999992013010502004+69650+018933FM-12+011599999V0202001N002019999999N9999999N1+00071+00001101831ADDAJ100239199999999MA1999999100391MD1310131+9999REMSYN070AAXX  05021 01026 46/// /2002 10007 21000 30039 40183 53013 333 4/023;
0188010260999992013010503004+69650+018933FM-12+011599999V0201801N004010300019N0080001N1+00061-00011101841ADDAJ100239199999999AY181031AY221031GF107991041081001501061999MA1999999100401MD1110121+9999MW1151REMSYN082AAXX  05031 01026 41258 71804 10006 21001 30040 40184 51012 71582 8486/ 333 4/023;
0128010260999992013010504004+69650+018933FM-12+011599999V0201901N003019999999N9999999N1+00011-00061101881ADDAJ100249199999999MA1999999100431MD1110111+9999REMSYN070AAXX  05041 01026 46/// /1903 10001 21006 30043 40188 51011 333 4/024;
0128010260999992013010505004+69650+018933FM-12+011599999V0202001N002019999999N9999999N1+00051-00021101901ADDAJ100239199999999MA1999999100461MD1210071+9999REMSYN070AAXX  05051 01026 46/// /2002 10005 21002 30046 40190 52007 333 4/023;
0253010260999992013010506004+69650+018933FM-12+011599999V0202001N003010300019N0200001N1+00091+00021101911ADDAA112003091AA224011291AJ100239199999999AY181061AY221061GF108991041081004501061999IA1279KA1999N+00011MA1999999100471MD1210071+9999MW1831REMSYN106AAXX  05061 01026 11470 82003 10009 20002 30047 40191 52007 60032 78382 8486/ 333 20001 43023 70111 91106;
0128010260999992013010507004+69650+018933FM-12+011599999V0202001N004019999999N9999999N1+00121+00031101951ADDAJ100249199999999MA1999999100511MD1210081+9999REMSYN070AAXX  05071 01026 46/// /2004 10012 20003 30051 40195 52008 333 4/024;
0128010260999992013010508004+69650+018933FM-12+011599999V0202001N003019999999N9999999N1+00121+00001101991ADDAJ100259199999999MA1999999100551MD1310091+9999REMSYN070AAXX  05081 01026 46/// /2003 10012 21000 30055 40199 53009 333 4/025;
0188010260999992013010509004+69650+018933FM-12+011599999V0202001N004010300019N0550001N1+00121-00031102021ADDAJ100249199999999AY181031AY221031GF107991041081004501061999MA1999999100581MD1210111+9999MW1801REMSYN082AAXX  05091 01026 41485 72004 10012 21003 30058 40202 52011 78082 8486/ 333 4/024;
0128010260999992013010510004+69650+018933FM-12+011599999V0202001N004019999999N9999999N1+00121-00031102051ADDAJ100249199999999MA1999999100611MD1210111+9999REMSYN070AAXX  05101 01026 46/// /2004 10012 21003 30061 40205 52011 333 4/024;
0128010260999992013010511004+69650+018933FM-12+011599999V0202101N006019999999N9999999N1+00151-00061102051ADDAJ100249199999999MA1999999100611MD1010061+9999REMSYN070AAXX  05111 01026 46/// /2106 10015 21006 30061 40205 50006 333 4/024;
0194010260999992013010512004+69650+018933FM-12+011599999V0202201N005010300019N0700001N1+00151-00051102071ADDAJ100249199999999AY181061AY221061GF107991041081008001061999MA1999999100631MD1210051+9999MW1021REMSYN088AAXX  05121 01026 41588 72205 10015 21005 30063 40207 52005 70282 8486/ 333 4/024 91108;
0128010260999992013010513004+69650+018933FM-12+011599999V0202101N006019999999N9999999N1+00131-00091102071ADDAJ100249199999999MA1999999100631MD1210021+9999REMSYN070AAXX  05131 01026 46/// /2106 10013 21009 30063 40207 52002 333 4/024;
0128010260999992013010514004+69650+018933FM-12+011599999V0202101N005019999999N9999999N1+00111-00131102081ADDAJ100249199999999MA1999999100641MD1210031+9999REMSYN070AAXX  05141 01026 46/// /2105 10011 21013 30064 40208 52003 333 4/024;
0188010260999992013010515004+69650+018933FM-12+011599999V0202101N005012200019N0750001N1+00091-00231102071ADDAJ100249199999999AY121031AY211031GF103991011051008001001081MA1999999100631MD1010011+9999MW1021REMSYN082AAXX  05151 01026 41589 32105 10009 21023 30063 40207 50001 70221 81508 333 4/024;
0128010260999992013010516004+69650+018933FM-12+011599999V0202201N004019999999N9999999N1+00051-00151102051ADDAJ100249199999999MA1999999100601MD1810031+9999REMSYN070AAXX  05161 01026 46/// /2204 10005 21015 30060 40205 58003 333 4/024;
0128010260999992013010517004+69650+018933FM-12+011599999V0201801N002019999999N9999999N1+00011-00251102001ADDAJ100249199999999MA1999999100551MD1710091+9999REMSYN070AAXX  05171 01026 46/// /1802 10001 21025 30055 40200 57009 333 4/024;
0230010260999992013010518004+69650+018933FM-12+011599999V0201901N003012200019N0750001N1-00011-00271101961ADDAA112000021AJ100249199999999AY121061AY211061GF103991001001999999001081KA1120M+00151MA1999999100511MD1710121+9999MW1021REMSYN100AAXX  05181 01026 11989 31903 11001 21027 30051 40196 57012 69902 70221 80008 333 10015 4/024 91109;
0128010260999992013010519004+69650+018933FM-12+011599999V0201801N004019999999N9999999N1+00011-00321101941ADDAJ100249199999999MA1999999100491MD1610101+9999REMSYN070AAXX  05191 01026 46/// /1804 10001 21032 30049 40194 56010 333 4/024;
0128010260999992013010520004+69650+018933FM-12+011599999V0202101N002019999999N9999999N1-00041-00301101891ADDAJ100249199999999MA1999999100441MD1710111+9999REMSYN070AAXX  05201 01026 46/// /2102 11004 21030 30044 40189 57011 333 4/024;
0188010260999992013010521004+69650+018933FM-12+011599999V0202101N003019999999N0750001N1-00071-00291101831ADDAJ100249199999999AY121031AY211031GF106991001001999999001081MA1999999100381MD1810121+9999MW1031REMSYN082AAXX  05211 01026 41989 62103 11007 21029 30038 40183 58012 70321 80008 333 4/024;
0128010260999992013010522004+69650+018933FM-12+011599999V0202101N003019999999N9999999N1-00031-00291101781ADDAJ100249199999999MA1999999100331MD1710161+9999REMSYN070AAXX  05221 01026 46/// /2103 11003 21029 30033 40178 57016 333 4/024;
0128010260999992013010523004+69650+018933FM-12+011599999V0202001N005019999999N9999999N1+00101-00521101681ADDAJ100249199999999MA1999999100241MD1710191+9999REMSYN070AAXX  05231 01026 46/// /2005 10010 21052 30024 40168 57019 333 4/024;
0194010260999992013010600004+69650+018933FM-12+011599999V0201901N005012200019N0750001N1+00131-00531101581ADDAJ100249199999999AY121061AY211061GF101991001001999999001061MA1999999100151MD1810221+9999MW1021REMSYN088AAXX  06001 01026 41989 11905 10013 21053 30015 40158 58022 70221 80006 333 4/024 91110;
0128010260999992013010601004+69650+018933FM-12+011599999V0201901N005019999999N9999999N1+00181-00581101511ADDAJ100239199999999MA1999999100081MD1710241+9999REMSYN070AAXX  06011 01026 46/// /1905 10018 21058 30008 40151 57024 333 4/023;
0128010260999992013010602004+69650+018933FM-12+011599999V0201901N006019999999N9999999N1+00191-00621101441ADDAJ100249199999999MA1999999100011MD1710231+9999REMSYN070AAXX  06021 01026 46/// /1906 10019 21062 30001 40144 57023 333 4/024;
0188010260999992013010603004+69650+018933FM-12+011599999V0202001N006010210019N0750001N1+00191-00571101411ADDAJ100249199999999AY121031AY201031GF107991051001022501071071MA1999999099981MD1610181+9999MW1031REMSYN082AAXX  06031 01026 41889 72006 10019 21057 39998 40141 56018 70320 85077 333 4/024;
0128010260999992013010604004+69650+018933FM-12+011599999V0202001N006019999999N9999999N1+00201-00641101361ADDAJ100249199999999MA1999999099931MD1610151+9999REMSYN070AAXX  06041 01026 46/// /2006 10020 21064 39993 40136 56015 333 4/024;
0128010260999992013010605004+69650+018933FM-12+011599999V0202001N006019999999N9999999N1+00191-00611101341ADDAJ100249199999999MA1999999099911MD1510101+9999REMSYN070AAXX  06051 01026 46/// /2006 10019 21061 39991 40134 55010 333 4/024;
0272010260999992013010606004+69650+018933FM-12+011599999V0202001N007010075019N0300001N1+00191-00571101321ADDAA112000091AA224000021AJ100219199999999AY121061AY211061GF108991061051008001071999IA1279KA1999N-00121MA1999999099891MD1610091+9999MW1021REMSYN106AAXX  06061 01026 11580 82007 10019 21057 39989 40132 56009 60002 70221 8657/ 333 21012 43021 79999 91113;EQDQ01  00002PRCP12
0128010260999992013010607004+69650+018933FM-12+011599999V0202001N007019999999N9999999N1+00191-00511101301ADDAJ100239199999999MA1999999099871MD1710061+9999REMSYN070AAXX  06071 01026 46/// /2007 10019 21051 39987 40130 57006 333 4/023;
0128010260999992013010608004+69650+018933FM-12+011599999V0202001N006019999999N9999999N1+00221-00471101291ADDAJ100239199999999MA1999999099861MD1710041+9999REMSYN070AAXX  06081 01026 46/// /2006 10022 21047 39986 40129 57004 333 4/023;
0188010260999992013010609004+69650+018933FM-12+011599999V0202001N005010075019N0400001N1+00251-00351101171ADDAJ100239199999999AY121031AY221031GF107991061051008001071999MA1999999099751MD1810131+9999MW1021REMSYN082AAXX  06091 01026 41582 72005 10025 21035 39975 40117 58013 70222 8657/ 333 4/023;
0128010260999992013010610004+69650+018933FM-12+011599999V0202001N007019999999N9999999N1+00261-00381101141ADDAJ100239199999999MA1999999099721MD1810151+9999REMSYN070AAXX  06101 01026 46/// /2007 10026 21038 39972 40114 58015 333 4/023;
0128010260999992013010611004+69650+018933FM-12+011599999V0202101N007019999999N9999999N1+00261-00321101081ADDAJ100239199999999MA1999999099661MD1610211+9999REMSYN070AAXX  06111 01026 46/// /2107 10026 21032 39966 40108 56021 333 4/023;
0194010260999992013010612004+69650+018933FM-12+011599999V0202001N007010075019N0400001N1+00381-00251101031ADDAJ100239199999999AY121061AY221061GF108991071051008001071999MA1999999099621MD1710141+9999MW1151REMSYN088AAXX  06121 01026 41582 82007 10038 21025 39962 40103 57014 71522 8757/ 333 4/023 91114;
0128010260999992013010613004+69650+018933FM-12+011599999V0202001N006019999999N9999999N1+00321-00171101011ADDAJ100229199999999MA1999999099591MD1710121+9999REMSYN070AAXX  06131 01026 46/// /2006 10032 21017 39959 40101 57012 333 4/022;
0128010260999992013010614004+69650+018933FM-12+011599999V0202001N006019999999N9999999N1+00281-00011100961ADDAJ100229199999999MA1999999099541MD1710121+9999REMSYN070AAXX  06141 01026 46/// /2006 10028 21001 39954 40096 57012 333 4/022;
0188010260999992013010615004+69650+018933FM-12+011599999V0202001N006010042019N0250001N1+00301+00031100931ADDAJ100219199999999AY161031AY221031GF108991061061004501061999MA1999999099511MD1710111+9999MW1611REMSYN082AAXX  06151 01026 41475 82006 10030 20003 39951 40093 57011 76162 8666/ 333 4/021;
0128010260999992013010616004+69650+018933FM-12+011599999V0202101N006019999999N9999999N1+00381+00111100941ADDAJ100219199999999MA1999999099531MD1510061+9999REMSYN070AAXX  06161 01026 46/// /2106 10038 20011 39953 40094 55006 333 4/021;
0128010260999992013010617004+69650+018933FM-12+011599999V0202001N006019999999N9999999N1+00351+00081100981ADDAJ100209199999999MA1999999099571MD1310031+9999REMSYN070AAXX  06171 01026 46/// /2006 10035 20008 39957 40098 53003 333 4/020;
0230010260999992013010618004+69650+018933FM-12+011599999V0202001N007010042019N0200001N1+00361+00141101041ADDAA112001091AJ100199199999999AY161061AY221061GF108991061061004501061999KA1120M+00421MA1999999099621MD1210111+9999MW1611REMSYN100AAXX  06181 01026 11470 82007 10036 20014 39962 40104 52011 60012 76162 8666/ 333 10042 4/019 91113;
0128010260999992013010619004+69650+018933FM-12+011599999V0202001N006019999999N9999999N1+00381+00131101101ADDAJ100199199999999MA1999999099691MD1310161+9999REMSYN070AAXX  06191 01026 46/// /2006 10038 20013 39969 40110 53016 333 4/019;
0128010260999992013010620004+69650+018933FM-12+011599999V0202101N006019999999N9999999N1+00381+00161101191ADDAJ100199199999999MA1999999099771MD1310201+9999REMSYN070AAXX  06201 01026 46/// /2106 10038 20016 39977 40119 53020 333 4/019;
0188010260999992013010621004+69650+018933FM-12+011599999V0202001N003010042019N0200001N1+00311+00151101341ADDAJ100199199999999AY161031AY261031GF108991061061004501021999MA1999999099921MD1310301+9999MW1611REMSYN082AAXX  06211 01026 41470 82003 10031 20015 39992 40134 53030 76166 8662/ 333 4/019;
0128010260999992013010622004+69650+018933FM-12+011599999V0202901N004019999999N9999999N1+00411+00091101431ADDAJ100189199999999MA1999999100011MD1310321+9999REMSYN070AAXX  06221 01026 46/// /2904 10041 20009 30001 40143 53032 333 4/018;
0128010260999992013010623004+69650+018933FM-12+011599999V0202301N002019999999N9999999N1+00311+00101101501ADDAJ100189199999999MA1999999100081MD1110311+9999REMSYN070AAXX  06231 01026 46/// /2302 10031 20010 30008 40150 51031 333 4/018;
0194010260999992013010700004+69650+018933FM-12+011599999V0202201N003010042019N0200001N1+00301+00111101581ADDAJ100189199999999AY161061AY261061GF108991051071004501021999MA1999999100151MD1110231+9999MW1611REMSYN088AAXX  07001 01026 41470 82203 10030 20011 30015 40158 51023 76166 8572/ 333 4/018 91113;
0128010260999992013010701004+69650+018933FM-12+011599999V0202001N004019999999N9999999N1+00261+00111101621ADDAJ100179199999999MA1999999100191MD1110181+9999REMSYN070AAXX  07011 01026 46/// /2004 10026 20011 30019 40162 51018 333 4/017;
0128010260999992013010702004+69650+018933FM-12+011599999V0202201N005019999999N9999999N1+00281+00131101701ADDAJ100179199999999MA1999999100271MD1310201+9999REMSYN070AAXX  07021 01026 46/// /2205 10028 20013 30027 40170 53020 333 4/017;
0188010260999992013010703004+69650+018933FM-12+011599999V0201901N004010021019N0150001N1+00271+00121101711ADDAJ100179199999999AY161031AY261031GF108991051071002501021999MA1999999100281MD1110131+9999MW1611REMSYN082AAXX  07031 01026 41365 81904 10027 20012 30028 40171 51013 76166 8572/ 333 4/017;
0128010260999992013010704004+69650+018933FM-12+011599999V0202001N003019999999N9999999N1+00251+00121101731ADDAJ100179199999999MA1999999100301MD1110111+9999REMSYN070AAXX  07041 01026 46/// /2003 10025 20012 30030 40173 51011 333 4/017;
0128010260999992013010705004+69650+018933FM-12+011599999V0202101N004019999999N9999999N1+00271+00121101751ADDAJ100179199999999MA1999999100321MD1210051+9999REMSYN070AAXX  07051 01026 46/// /2104 10027 20012 30032 40175 52005 333 4/017;
0253010260999992013010706004+69650+018933FM-12+011599999V0202001N003010090019N0150001N1+00271+00131101771ADDAA112007191AA224007691AJ100159199999999AY181061AY261061GF108991061081004501071999IA1279KA1999N+00241MA1999999100341MD1310061+9999MW1801REMSYN106AAXX  07061 01026 11465 82003 10027 20013 30034 40177 53006 60072 78086 8687/ 333 20024 43015 70075 91109;
0128010260999992013010707004+69650+018933FM-12+011599999V0202101N004019999999N9999999N1+00281+00131101771ADDAJ100169199999999MA1999999100341MD1210041+9999REMSYN070AAXX  07071 01026 46/// /2104 10028 20013 30034 40177 52004 333 4/016;
0128010260999992013010708004+69650+018933FM-12+011599999V0201801N004019999999N9999999N1+00271+00111101801ADDAJ100169199999999MA1999999100371MD1210051+9999REMSYN070AAXX  07081 01026 46/// /1804 10027 20011 30037 40180 52005 333 4/016;
0188010260999992013010709004+69650+018933FM-12+011599999V0202101N004010300019N0400001N1+00261+00071101811ADDAJ100169199999999AY181031AY221031GF106991041081008001061081MA1999999100381MD1210041+9999MW1251REMSYN082AAXX  07091 01026 41582 62104 10026 20007 30038 40181 52004 72582 84868 333 4/016;
0128010260999992013010710004+69650+018933FM-12+011599999V0202001N005019999999N9999999N1+00301+00071101791ADDAJ100169199999999MA1999999100361MD1010011+9999REMSYN070AAXX  07101 01026 46/// /2005 10030 20007 30036 40179 50001 333 4/016;
0128010260999992013010711004+69650+018933FM-12+011599999V0201901N004019999999N9999999N1+00281+00091101761ADDAJ100169199999999MA1999999100331MD1810041+9999REMSYN070AAXX  07111 01026 46/// /1904 10028 20009 30033 40176 58004 333 4/016;
0194010260999992013010712004+69650+018933FM-12+011599999V0202001N004010120019N0650001N1+00301+00081101701ADDAJ100169199999999AY121061AY221061GF107991061081008001061081MA1999999100271MD1810111+9999MW1021REMSYN088AAXX  07121 01026 41587 72004 10030 20008 30027 40170 58011 70222 86868 333 4/016 91109;
0128010260999992013010713004+69650+018933FM-12+011599999V0202001N003019999999N9999999N1+00231+00041101651ADDAJ100169199999999MA1999999100221MD1710141+9999REMSYN070AAXX  07131 01026 46/// /2003 10023 20004 30022 40165 57014 333 4/016;
0128010260999992013010714004+69650+018933FM-12+011599999V0202101N002019999999N9999999N1+00211+00001101601ADDAJ100169199999999MA1999999100171MD1710151+9999REMSYN070AAXX  07141 01026 46/// /2102 10021 21000 30017 40160 57015 333 4/016;
0188010260999992013010715004+69650+018933FM-12+011599999V0202101N003012200019N0500001N1+00141-00041101551ADDAJ100169199999999AY121031AY211031GF104991021081008001061081MA1999999100121MD1710151+9999MW1021REMSYN082AAXX  07151 01026 41584 42103 10014 21004 30012 40155 57015 70221 82868 333 4/016;
0128010260999992013010716004+69650+018933FM-12+011599999V0202701N001019999999N9999999N1+00021-00111101541ADDAJ100169199999999MA1999999100101MD1610121+9999REMSYN070AAXX  07161 01026 46/// /2701 10002 21011 30010 40154 56012 333 4/016;
0128010260999992013010717004+69650+018933FM-12+011599999V0200501N002019999999N9999999N1-00021-00111101471ADDAJ100169199999999MA1999999100031MD1810141+9999REMSYN070AAXX  07171 01026 46/// /0502 11002 21011 30003 40147 58014 333 4/016;
0230010260999992013010718004+69650+018933FM-12+011599999V0203201N001010750019N0300001N1-00111-00191101421ADDAA112000021AJ100169199999999AY121061AY211061GF105991011061000251031081KA1120M+00301MA1999999099981MD1810141+9999MW1021REMSYN100AAXX  07181 01026 11080 53201 11011 21019 39998 40142 58014 69902 70221 81638 333 10030 4/016 91106;
0128010260999992013010719004+69650+018933FM-12+011599999V0209999C000019999999N9999999N1+00021-00061101341ADDAJ100169199999999MA1999999099901MD1710191+9999REMSYN070AAXX  07191 01026 46/// /0000 10002 21006 39990 40134 57019 333 4/016;
0128010260999992013010720004+69650+018933FM-12+011599999V0202901N001019999999N9999999N1-00081-00151101271ADDAJ100159199999999MA1999999099831MD1710201+9999REMSYN070AAXX  07201 01026 46/// /2901 11008 21015 39983 40127 57020 333 4/015;
0188010260999992013010721004+69650+018933FM-12+011599999V0200801N002012200019N0600001N1-00081-00141101211ADDAJ101289199999999AY111031AY201031GF102991001001999999001081MA1999999099771MD1710201+9999MW1021REMSYN082AAXX  07211 01026 41986 20802 11008 21014 39977 40121 57020 70210 80008 333 4/128;
0128010260999992013010722004+69650+018933FM-12+011599999V0202501N003019999999N9999999N1-00071-00131101151ADDAJ100159199999999MA1999999099711MD1710181+9999REMSYN070AAXX  07221 01026 46/// /2503 11007 21013 39971 40115 57018 333 4/015;
0128010260999992013010723004+69650+018933FM-12+011599999V0202901N001019999999N9999999N1-00071-00141101091ADDAJ100899199999999MA1999999099651MD1810181+9999REMSYN070AAXX  07231 01026 46/// /2901 11007 21014 39965 40109 58018 333 4/089;
0194010260999992013010800004+69650+018933FM-12+011599999V0203401N001012200019N0750001N1-00121-00191101031ADDAJ100159199999999AY111061AY201061GF104991001001999999001081MA1999999099591MD1710181+9999MW1021REMSYN088AAXX  08001 01026 41989 43401 11012 21019 39959 40103 57018 70210 80008 333 4/015 91105;
0101010260999992013010801004+69650+018933FM-12+011599999V0209999C000019999999N9999999N1-00161-00231101011ADDMA1999999099571MD1610141+9999REMSYN060AAXX  08011 01026 46/// /0000 11016 21023 39957 40101 56014;
0128010260999992013010802004+69650+018933FM-12+011599999V0202101N004019999999N9999999N1-00031-00191100961ADDAJ100149199999999MA1999999099531MD1610111+9999REMSYN070AAXX  08021 01026 46/// /2104 11003 21019 39953 40096 56011 333 4/014;
0188010260999992013010803004+69650+018933FM-12+011599999V0202401N004012200019N0750001N1-00031-00241100921ADDAJ100159199999999AY101031AY201031GF102991001001999999001081MA1999999099491MD1710111+9999MW1021REMSYN082AAXX  08031 01026 41989 22404 11003 21024 39949 40092 57011 70200 80008 333 4/015;
0128010260999992013010804004+69650+018933FM-12+011599999V0202201N005019999999N9999999N1+00021-00331100831ADDAJ100169199999999MA1999999099401MD1810161+9999REMSYN070AAXX  08041 01026 46/// /2205 10002 21033 39940 40083 58016 333 4/016;
0128010260999992013010805004+69650+018933FM-12+011599999V0202101N004019999999N9999999N1+00021-00331100751ADDAJ100169199999999MA1999999099321MD1810221+9999REMSYN070AAXX  08051 01026 46/// /2104 10002 21033 39932 40075 58022 333 4/016;
0272010260999992013010806004+69650+018933FM-12+011599999V0202101N005010300019N0650001N1+00101-00381100661ADDAA112000091AA224000021AJ100119199999999AY121061AY201061GF107991021051012501071999IA1289KA1999N-00211MA1999999099241MD1610241+9999MW1031REMSYN106AAXX  08061 01026 11687 72105 10010 21038 39924 40066 56024 60002 70320 8257/ 333 21021 44011 79999 91110;EQDQ01  00002PRCP12
0128010260999992013010807004+69650+018933FM-12+011599999V0202201N006019999999N9999999N1+00111-00331100591ADDAJ100169199999999MA1999999099171MD1610221+9999REMSYN070AAXX  08071 01026 46/// /2206 10011 21033 39917 40059 56022 333 4/016;
0128010260999992013010808004+69650+018933FM-12+011599999V0201901N005019999999N9999999N1+00181-00291100541ADDAJ100169199999999MA1999999099121MD1710191+9999REMSYN070AAXX  08081 01026 46/// /1905 10018 21029 39912 40054 57019 333 4/016;
0085010260999992013010809004+69650+018933FM-12+011599999V02099999999999999999N9999999N1+00031-00201999999REMSYN076AAXX  08091 01026 41X25 92006 10003 21020 39906 40048 58018 77372 333 4/015;
0128010260999992013010810004+69650+018933FM-12+011599999V0202101N006019999999N9999999N1+00041-00071100371ADDAJ100159199999999MA1999999098951MD1810221+9999REMSYN070AAXX  08101 01026 46/// /2106 10004 21007 39895 40037 58022 333 4/015;
0128010260999992013010811004+69650+018933FM-12+011599999V0201901N008019999999N9999999N1+00051-00131100281ADDAJ100159199999999MA1999999098861MD1610261+9999REMSYN070AAXX  08111 01026 46/// /1908 10005 21013 39886 40028 56026 333 4/015;
0194010260999992013010812004+69650+018933FM-12+011599999V0202101N007010042019N0200001N1+00091-00071100261ADDAJ100169199999999AY171061AY221061GF108991071071004501021999MA1999999098841MD1610231+9999MW1701REMSYN088AAXX  08121 01026 41470 82107 10009 21007 39884 40026 56023 77072 8772/ 333 4/016 91112;
0128010260999992013010813004+69650+018933FM-12+011599999V0202001N006019999999N9999999N1+00051-00081100261ADDAJ100179199999999MA1999999098841MD1610101+9999REMSYN070AAXX  08131 01026 46/// /2006 10005 21008 39884 40026 56010 333 4/017;
0128010260999992013010814004+69650+018933FM-12+011599999V0202101N005019999999N9999999N1+00031-00081100321ADDAJ100169199999999MA1999999098901MD1310041+9999REMSYN070AAXX  08141 01026 46/// /2105 10003 21008 39890 40032 53004 333 4/016;
0085010260999992013010815004+69650+018933FM-12+011599999V02099999999999999999N9999999N1+00011-00081999999REMSYN076AAXX  08151 01026 41X40 91905 10001 21008 39893 40035 53010 77072 333 4/019;
0128010260999992013010816004+69650+018933FM-12+011599999V0202101N003019999999N9999999N1+00011-00071100421ADDAJ100229199999999MA1999999099001MD1310161+9999REMSYN070AAXX  08161 01026 46/// /2103 10001 21007 39900 40042 53016 333 4/022;
0128010260999992013010817004+69650+018933FM-12+011599999V0202401N002019999999N9999999N1+00031-00051100491ADDAJ100229199999999MA1999999099071MD1310171+9999REMSYN070AAXX  08171 01026 46/// /2402 10003 21005 39907 40049 53017 333 4/022;
0103010260999992013010818004+69650+018933FM-12+011599999V02099999999999999999N9999999N1-00011-00081999999REMSYN094AAXX  08181 01026 11X30 92201 11001 21008 39910 40053 51016 60092 78582 333 10018 4/024 91113;
0128010260999992013010819004+69650+018933FM-12+011599999V0203201N002019999999N9999999N1-00021-00121100621ADDAJ100239199999999MA1999999099191MD1310181+9999REMSYN070AAXX  08191 01026 46/// /3202 11002 21012 39919 40062 53018 333 4/023;
0188010260999992013010821004+69650+018933FM-12+011599999V0201801N002010060019N0050001N1-00121-00261100661ADDAJ100249199999999AY171031AY221031GF107991061081002501071999MA1999999099231MD1110141+9999MW1161REMSYN082AAXX  08211 01026 41350 71802 11012 21026 39923 40066 51014 71672 8687/ 333 4/024;
0128010260999992013010823004+69650+018933FM-12+011599999V0202301N002019999999N9999999N1-00111-00281100661ADDAJ100249199999999MA1999999099231MD1010011+9999REMSYN070AAXX  08231 01026 46/// /2302 11011 21028 39923 40066 50001 333 4/024;
0091010260999992013010900004+69650+018933FM-12+011599999V02099999999999999999N9999999N1-00121-00251999999REMSYN082AAXX  09001 01026 41X10 93003 11012 21025 39925 40068 52002 78682 333 4/025 91108;
0128010260999992013010901004+69650+018933FM-12+011599999V0202101N003019999999N9999999N1-00151-00241100671ADDAJ100259199999999MA1999999099231MD1710011+9999REMSYN070AAXX  09011 01026 46/// /2103 11015 21024 39923 40067 57001 333 4/025;
0128010260999992013010902004+69650+018933FM-12+011599999V0201901N005019999999N9999999N1-00111-00181100611ADDAJ100329199999999MA1999999099181MD1810051+9999REMSYN070AAXX  09021 01026 46/// /1905 11011 21018 39918 40061 58005 333 4/032;
0085010260999992013010903004+69650+018933FM-12+011599999V02099999999999999999N9999999N1-00041-00101999999REMSYN076AAXX  09031 01026 41X06 92004 11004 21010 39915 40058 57010 78688 333 4/036;
0128010260999992013010904004+69650+018933FM-12+011599999V0202801N003019999999N9999999N1+00041-00031100611ADDAJ100389199999999MA1999999099181MD1510061+9999REMSYN070AAXX  09041 01026 46/// /2803 10004 21003 39918 40061 55006 333 4/038;
0128010260999992013010905004+69650+018933FM-12+011599999V0203301N004019999999N9999999N1+00081+00001100611ADDAJ100389199999999MA1999999099191MD1510011+9999REMSYN070AAXX  09051 01026 46/// /3304 10008 21000 39919 40061 55001 333 4/038;
0253010260999992013010906004+69650+018933FM-12+011599999V0203301N005010060019N0050001N1+00131+00021100641ADDAA112013091AA224021691AJ100349199999999AY181061AY281061GF108991071081002501071999IA1279KA1999N-00161MA1999999099221MD1210061+9999MW1801REMSYN106AAXX  09061 01026 11350 83305 10013 20002 39922 40064 52006 60132 78088 8787/ 333 21016 43034 70216 91110;
0128010260999992013010907004+69650+018933FM-12+011599999V0203401N004019999999N9999999N1+00171+00031100691ADDAJ100389199999999MA1999999099271MD1310091+9999REMSYN070AAXX  09071 01026 46/// /3404 10017 20003 39927 40069 53009 333 4/038;
0128010260999992013010908004+69650+018933FM-12+011599999V0200201N004019999999N9999999N1+00181+00031100791ADDAJ100379199999999MA1999999099371MD1310181+9999REMSYN070AAXX  09081 01026 46/// /0204 10018 20003 39937 40079 53018 333 4/037;
0188010260999992013010909004+69650+018933FM-12+011599999V0200301N003010060019N0200001N1+00141+00011100911ADDAJ100369199999999AY181031AY281031GF108991071081002501071999MA1999999099491MD1310271+9999MW1161REMSYN082AAXX  09091 01026 41370 80303 10014 20001 39949 40091 53027 71688 8787/ 333 4/036;
0128010260999992013010910004+69650+018933FM-12+011599999V0200401N002019999999N9999999N1+00091-00031100981ADDAJ100359199999999MA1999999099551MD1110271+9999REMSYN070AAXX  09101 01026 46/// /0402 10009 21003 39955 40098 51027 333 4/035;
0128010260999992013010911004+69650+018933FM-12+011599999V0200201N004019999999N9999999N1+00121+00011101051ADDAJ100359199999999MA1999999099621MD1110251+9999REMSYN070AAXX  09111 01026 46/// /0204 10012 20001 39962 40105 51025 333 4/035;
0194010260999992013010912004+69650+018933FM-12+011599999V0200101N005010060019N0300001N1+00191+00031101121ADDAJ100359199999999AY181061AY281061GF107991051081002501071999MA1999999099701MD1210211+9999MW1151REMSYN088AAXX  09121 01026 41380 70105 10019 20003 39970 40112 52021 71588 8587/ 333 4/035 91110;
0128010260999992013010913004+69650+018933FM-12+011599999V0203601N005019999999N9999999N1+00221+00031101211ADDAJ100349199999999MA1999999099791MD1210241+9999REMSYN070AAXX  09131 01026 46/// /3605 10022 20003 39979 40121 52024 333 4/034;
0128010260999992013010914004+69650+018933FM-12+011599999V0200101N005019999999N9999999N1+00191+00011101281ADDAJ100349199999999MA1999999099851MD1210231+9999REMSYN070AAXX  09141 01026 46/// /0105 10019 20001 39985 40128 52023 333 4/034;
0188010260999992013010915004+69650+018933FM-12+011599999V0203601N005010090019N0550001N1+00171+00011101351ADDAJ100339199999999AY181031AY221031GF106991061081004501001001MA1999999099921MD1210221+9999MW1021REMSYN082AAXX  09151 01026 41485 63605 10017 20001 39992 40135 52022 70282 86800 333 4/033;
0128010260999992013010916004+69650+018933FM-12+011599999V0203601N006019999999N9999999N1+00181-00041101431ADDAJ100339199999999MA1999999100001MD1310221+9999REMSYN070AAXX  09161 01026 46/// /3606 10018 21004 30000 40143 53022 333 4/033;
0128010260999992013010917004+69650+018933FM-12+011599999V0200101N006019999999N9999999N1+00181-00051101501ADDAJ100339199999999MA1999999100071MD1210211+9999REMSYN070AAXX  09171 01026 46/// /0106 10018 21005 30007 40150 52021 333 4/033;
0230010260999992013010918004+69650+018933FM-12+011599999V0203601N005010090019N0600001N1+00161-00041101571ADDAA112002091AJ100339199999999AY181061AY221061GF106991061081004501001001KA1120M+00221MA1999999100141MD1210221+9999MW1151REMSYN100AAXX  09181 01026 11486 63605 10016 21004 30014 40157 52022 60022 71582 86800 333 10022 4/033 91112;
0128010260999992013010919004+69650+018933FM-12+011599999V0203401N004019999999N9999999N1+00141-00071101651ADDAJ100339199999999MA1999999100221MD1210211+9999REMSYN070AAXX  09191 01026 46/// /3404 10014 21007 30022 40165 52021 333 4/033;
0128010260999992013010920004+69650+018933FM-12+011599999V0203501N003019999999N9999999N1+00141-00071101721ADDAJ100329199999999MA1999999100281MD1210211+9999REMSYN070AAXX  09201 01026 46/// /3503 10014 21007 30028 40172 52021 333 4/032;
0188010260999992013010921004+69650+018933FM-12+011599999V0203501N004010090019N0500001N1+00161-00051101791ADDAJ100329199999999AY181031AY221031GF106991061081004501001001MA1999999100351MD1210211+9999MW1251REMSYN082AAXX  09211 01026 41484 63504 10016 21005 30035 40179 52021 72582 86800 333 4/032;
0128010260999992013010922004+69650+018933FM-12+011599999V0203501N003019999999N9999999N1+00151-00071101811ADDAJ100329199999999MA1999999100371MD1110161+9999REMSYN070AAXX  09221 01026 46/// /3503 10015 21007 30037 40181 51016 333 4/032;
0128010260999992013010923004+69650+018933FM-12+011599999V0203501N003019999999N9999999N1+00141-00051101871ADDAJ100329199999999MA1999999100431MD1210151+9999REMSYN070AAXX  09231 01026 46/// /3503 10014 21005 30043 40187 52015 333 4/032;
0194010260999992013011000004+69650+018933FM-12+011599999V0203601N003010090019N0300001N1+00161-00031101911ADDAJ100319199999999AY181061AY221061GF107991071081004501001001MA1999999100471MD1210131+9999MW1261REMSYN088AAXX  10001 01026 41480 73603 10016 21003 30047 40191 52013 72682 87800 333 4/031 91111;
0128010260999992013011001004+69650+018933FM-12+011599999V0203501N003019999999N9999999N1+00171-00041101951ADDAJ100319199999999MA1999999100511MD1210141+9999REMSYN070AAXX  10011 01026 46/// /3503 10017 21004 30051 40195 52014 333 4/031;
0128010260999992013011002004+69650+018933FM-12+011599999V0203601N004019999999N9999999N1+00171-00041102011ADDAJ100319199999999MA1999999100571MD1210141+9999REMSYN070AAXX  10021 01026 46/// /3604 10017 21004 30057 40201 52014 333 4/031;
0188010260999992013011003004+69650+018933FM-12+011599999V0203601N003010090019N0400001N1+00161-00011102041ADDAJ100319199999999AY171031AY221031GF107991071081004501001001MA1999999100601MD1210131+9999MW1151REMSYN082AAXX  10031 01026 41482 73603 10016 21001 30060 40204 52013 71572 87800 333 4/031;
0128010260999992013011004004+69650+018933FM-12+011599999V0200101N004019999999N9999999N1+00151-00011102081ADDAJ100319199999999MA1999999100641MD1210131+9999REMSYN070AAXX  10041 01026 46/// /0104 10015 21001 30064 40208 52013 333 4/031;
0128010260999992013011005004+69650+018933FM-12+011599999V0203601N002019999999N9999999N1+00151+00011102121ADDAJ100319199999999MA1999999100681MD1210101+9999REMSYN070AAXX  10051 01026 46/// /3602 10015 20001 30068 40212 52010 333 4/031;
0253010260999992013011006004+69650+018933FM-12+011599999V0200401N003010060019N0400001N1+00161+00011102121ADDAA112000021AA224002391AJ100299199999999AY171061AY221061GF107991061081002501071999IA1279KA1999N+00131MA1999999100681MD1210081+9999MW1021REMSYN106AAXX  10061 01026 11382 70403 10016 20001 30068 40212 52008 69902 70272 8687/ 333 20013 43029 70024 91107;
0128010260999992013011007004+69650+018933FM-12+011599999V0200701N002019999999N9999999N1+00141+00001102171ADDAJ100319199999999MA1999999100731MD1210091+9999REMSYN070AAXX  10071 01026 46/// /0702 10014 20000 30073 40217 52009 333 4/031;
0128010260999992013011008004+69650+018933FM-12+011599999V0200601N001019999999N9999999N1+00101-00021102251ADDAJ100319199999999MA1999999100801MD1310121+9999REMSYN070AAXX  10081 01026 46/// /0601 10010 21002 30080 40225 53012 333 4/031;
0188010260999992013011009004+69650+018933FM-12+011599999V0200501N001010300019N0500001N1+00061-00051102261ADDAJ100319199999999AY121031AY221031GF107991031051004501071081MA1999999100811MD1110121+9999MW1021REMSYN082AAXX  10091 01026 41484 70501 10006 21005 30081 40226 51012 70222 83578 333 4/031;
0128010260999992013011010004+69650+018933FM-12+011599999V0200801N001019999999N9999999N1+00061-00041102301ADDAJ100319199999999MA1999999100851MD1110121+9999REMSYN070AAXX  10101 01026 46/// /0801 10006 21004 30085 40230 51012 333 4/031;
0128010260999992013011011004+69650+018933FM-12+011599999V0200701N001019999999N9999999N1+00061-00041102251ADDAJ100319199999999MA1999999100801MD1010001+9999REMSYN070AAXX  10111 01026 46/// /0701 10006 21004 30080 40225 50000 333 4/031;
0194010260999992013011012004+69650+018933FM-12+011599999V0203401N001010042019N0300001N1+00071-00031102271ADDAJ100319199999999AY121061AY221061GF107991051051004501071999MA1999999100821MD1010021+9999MW1021REMSYN088AAXX  10121 01026 41480 73401 10007 21003 30082 40227 50002 70222 8557/ 333 4/031 91104;
0128010260999992013011013004+69650+018933FM-12+011599999V0202301N001019999999N9999999N1+00071-00031102281ADDAJ100319199999999MA1999999100831MD1510021+9999REMSYN070AAXX  10131 01026 46/// /2301 10007 21003 30083 40228 55002 333 4/031;
0128010260999992013011014004+69650+018933FM-12+011599999V0202601N001019999999N9999999N1+00081-00011102301ADDAJ100309199999999MA1999999100851MD1110041+9999REMSYN070AAXX  10141 01026 46/// /2601 10008 21001 30085 40230 51004 333 4/030;
0188010260999992013011015004+69650+018933FM-12+011599999V0202601N002010021019N0050001N1+00031-00061102321ADDAJ100319199999999AY151031AY221031GF108991071061002501071999MA1999999100871MD1210041+9999MW1501REMSYN082AAXX  10151 01026 41350 82602 10003 21006 30087 40232 52004 75052 8767/ 333 4/031;
0128010260999992013011016004+69650+018933FM-12+011599999V0202001N001019999999N9999999N1+00051-00031102291ADDAJ100309199999999MA1999999100841MD1010011+9999REMSYN070AAXX  10161 01026 46/// /2001 10005 21003 30084 40229 50001 333 4/030;
0128010260999992013011017004+69650+018933FM-12+011599999V0201901N002019999999N9999999N1+00061-00021102291ADDAJ100309199999999MA1999999100841MD1410001+9999REMSYN070AAXX  10171 01026 46/// /1902 10006 21002 30084 40229 54001 333 4/030;
0159010260999992013011018004+69650+018933FM-12+011599999V0201901N002019999999N9999999N1+00041-00041102291ADDAJ100309199999999KA1120M+00161MA1999999100841MD1510021+9999REMSYN088AAXX  10181 01026 16/// /1902 10004 21004 30084 40229 55002 6//// 333 10016 4/030 91104;
0128010260999992013011019004+69650+018933FM-12+011599999V0202201N003019999999N9999999N1-00011-00081102301ADDAJ100309199999999MA1999999100851MD1410001+9999REMSYN070AAXX  10191 01026 46/// /2203 11001 21008 30085 40230 54001 333 4/030;
0128010260999992013011020004+69650+018933FM-12+011599999V0202201N002019999999N9999999N1-00031-00101102271ADDAJ100309199999999MA1999999100821MD1810021+9999REMSYN070AAXX  10201 01026 46/// /2202 11003 21010 30082 40227 58002 333 4/030;
0188010260999992013011021004+69650+018933FM-12+011599999V0202001N004010060019N0250001N1+00001-00071102291ADDAJ100309199999999AY181031AY221031GF106991061081002501001001MA1999999100841MD1410001+9999MW1021REMSYN082AAXX  10211 01026 41375 62004 10000 21007 30084 40229 54001 70282 86800 333 4/030;
0128010260999992013011022004+69650+018933FM-12+011599999V0201901N004019999999N9999999N1-00011-00081102261ADDAJ100309199999999MA1999999100811MD1710041+9999REMSYN070AAXX  10221 01026 46/// /1904 11001 21008 30081 40226 57004 333 4/030;
0128010260999992013011023004+69650+018933FM-12+011599999V0202001N003019999999N9999999N1+00011-00101102271ADDAJ100309199999999MA1999999100821MD1410001+9999REMSYN070AAXX  10231 01026 46/// /2003 10001 21010 30082 40227 54000 333 4/030;
0194010260999992013011100004+69650+018933FM-12+011599999V0201901N004010090019N0300001N1+00011-00111102251ADDAJ100309199999999AY181061AY221061GF107991061081004501071999MA1999999100801MD1710041+9999MW1851REMSYN088AAXX  11001 01026 41480 71904 10001 21011 30080 40225 57004 78582 8687/ 333 4/030 91107;
0128010260999992013011101004+69650+018933FM-12+011599999V0201901N005019999999N9999999N1+00041-00131102201ADDAJ100309199999999MA1999999100751MD1810051+9999REMSYN070AAXX  11011 01026 46/// /1905 10004 21013 30075 40220 58005 333 4/030;
0128010260999992013011102004+69650+018933FM-12+011599999V0201901N004019999999N9999999N1+00041-00141102231ADDAJ100309199999999MA1999999100781MD1510041+9999REMSYN070AAXX  11021 01026 46/// /1904 10004 21014 30078 40223 55004 333 4/030;
0188010260999992013011103004+69650+018933FM-12+011599999V0202101N005010090019N0700001N1+00061-00131102191ADDAJ100309199999999AY181031AY221031GF107991061081004501071999MA1999999100741MD1610051+9999MW1021REMSYN082AAXX  11031 01026 41488 72105 10006 21013 30074 40219 56005 70282 8687/ 333 4/030;
0128010260999992013011104004+69650+018933FM-12+011599999V0201901N004019999999N9999999N1+00051-00151102171ADDAJ100309199999999MA1999999100721MD1810031+9999REMSYN070AAXX  11041 01026 46/// /1904 10005 21015 30072 40217 58003 333 4/030;
0128010260999992013011105004+69650+018933FM-12+011599999V0201901N004019999999N9999999N1+00051-00171102151ADDAJ100309199999999MA1999999100701MD1710081+9999REMSYN070AAXX  11051 01026 46/// /1904 10005 21017 30070 40215 57008 333 4/030;
0253010260999992013011106004+69650+018933FM-12+011599999V0202001N005010042019N0300001N1+00061-00171102101ADDAA112000021AA224000391AJ100289199999999AY181061AY221061GF108991071031004501061999IA1279KA1999N-00051MA1999999100651MD1710091+9999MW1151REMSYN106AAXX  11061 01026 11480 82005 10006 21017 30065 40210 57009 69902 71582 8736/ 333 21005 43028 70002 91110;
0128010260999992013011107004+69650+018933FM-12+011599999V0201901N006019999999N9999999N1+00061-00161102101ADDAJ100309199999999MA1999999100651MD1710071+9999REMSYN070AAXX  11071 01026 46/// /1906 10006 21016 30065 40210 57007 333 4/030;
0128010260999992013011108004+69650+018933FM-12+011599999V0202101N005019999999N9999999N1+00081-00151102111ADDAJ100309199999999MA1999999100671MD1510041+9999REMSYN070AAXX  11081 01026 46/// /2105 10008 21015 30067 40211 55004 333 4/030;
0188010260999992013011109004+69650+018933FM-12+011599999V0202001N005010042019N0220001N1+00061-00121102111ADDAJ100309199999999AY121031AY221031GF107991061031004501061999MA1999999100661MD1210011+9999MW1151REMSYN082AAXX  11091 01026 41472 72005 10006 21012 30066 40211 52001 71522 8636/ 333 4/030;
0128010260999992013011110004+69650+018933FM-12+011599999V0202101N006019999999N9999999N1+00101-00101102061ADDAJ100309199999999MA1999999100621MD1810031+9999REMSYN070AAXX  11101 01026 46/// /2106 10010 21010 30062 40206 58003 333 4/030;
0128010260999992013011111004+69650+018933FM-12+011599999V0202101N006019999999N9999999N1+00111-00121102051ADDAJ100309199999999MA1999999100611MD1710051+9999REMSYN070AAXX  11111 01026 46/// /2106 10011 21012 30061 40205 57005 333 4/030;
0194010260999992013011112004+69650+018933FM-12+011599999V0202301N005010021019N0100001N1+00091-00111102051ADDAJ100309199999999AY181061AY221061GF108991071031002501061999MA1999999100611MD1510051+9999MW1831REMSYN088AAXX  11121 01026 41360 82305 10009 21011 30061 40205 55005 78382 8736/ 333 4/030 91111;
0128010260999992013011113004+69650+018933FM-12+011599999V0202101N005019999999N9999999N1+00081-00091102051ADDAJ100309199999999MA1999999100611MD1410001+9999REMSYN070AAXX  11131 01026 46/// /2105 10008 21009 30061 40205 54000 333 4/030;
0128010260999992013011114004+69650+018933FM-12+011599999V0202101N006019999999N9999999N1+00111-00051102001ADDAJ100309199999999MA1999999100561MD1810051+9999REMSYN070AAXX  11141 01026 46/// /2106 10011 21005 30056 40200 58005 333 4/030;
0188010260999992013011115004+69650+018933FM-12+011599999V0202201N006010060019N0200001N1+00101-00061101981ADDAJ100309199999999AY181031AY221031GF108991061081002501071999MA1999999100541MD1810071+9999MW1831REMSYN082AAXX  11151 01026 41370 82206 10010 21006 30054 40198 58007 78382 8687/ 333 4/030;
0128010260999992013011116004+69650+018933FM-12+011599999V0202201N006019999999N9999999N1+00091-00061101971ADDAJ100309199999999MA1999999100531MD1610091+9999REMSYN070AAXX  11161 01026 46/// /2206 10009 21006 30053 40197 56009 333 4/030;
0128010260999992013011117004+69650+018933FM-12+011599999V0202001N005019999999N9999999N1+00101-00051101941ADDAJ100309199999999MA1999999100501MD1710061+9999REMSYN070AAXX  11171 01026 46/// /2005 10010 21005 30050 40194 57006 333 4/030;
0230010260999992013011118004+69650+018933FM-12+011599999V0202001N005010060019N0180001N1+00121-00021101951ADDAA112000021AJ100309199999999AY181061AY221061GF108991061081002501071999KA1120M+00121MA1999999100511MD1510031+9999MW1831REMSYN100AAXX  11181 01026 11368 82005 10012 21002 30051 40195 55003 69912 78382 8687/ 333 10012 4/030 91110;
0128010260999992013011119004+69650+018933FM-12+011599999V0201901N005019999999N9999999N1+00121-00011101951ADDAJ100309199999999MA1999999100511MD1510021+9999REMSYN070AAXX  11191 01026 46/// /1905 10012 21001 30051 40195 55002 333 4/030;
0128010260999992013011120004+69650+018933FM-12+011599999V0201901N005019999999N9999999N1+00141+00011101961ADDAJ100309199999999MA1999999100521MD1210021+9999REMSYN070AAXX  11201 01026 46/// /1905 10014 20001 30052 40196 52002 333 4/030;
0188010260999992013011121004+69650+018933FM-12+011599999V0201901N004010060019N0200001N1+00141+00011101971ADDAJ100309199999999AY181031AY221031GF108991081081002501999999MA1999999100531MD1210011+9999MW1801REMSYN082AAXX  11211 01026 41370 81904 10014 20001 30053 40197 52001 78082 888// 333 4/030;
0128010260999992013011122004+69650+018933FM-12+011599999V0202101N004019999999N9999999N1+00141+00021101961ADDAJ100309199999999MA1999999100521MD1210011+9999REMSYN070AAXX  11221 01026 46/// /2104 10014 20002 30052 40196 52001 333 4/030;
0128010260999992013011123004+69650+018933FM-12+011599999V0202001N004019999999N9999999N1+00141+00031101931ADDAJ100299199999999MA1999999100491MD1810031+9999REMSYN070AAXX  11231 01026 46/// /2004 10014 20003 30049 40193 58003 333 4/029;
0194010260999992013011200004+69650+018933FM-12+011599999V0201901N004010060019N0100001N1+00151+00041101921ADDAJ100299199999999AY181061AY221061GF108991061081002501071999MA1999999100481MD1710041+9999MW1801REMSYN088AAXX  12001 01026 41360 81904 10015 20004 30048 40192 57004 78082 8687/ 333 4/029 91109;
0128010260999992013011201004+69650+018933FM-12+011599999V0202001N005019999999N9999999N1+00171+00071101901ADDAJ100299199999999MA1999999100461MD1710061+9999REMSYN070AAXX  12011 01026 46/// /2005 10017 20007 30046 40190 57006 333 4/029;
0128010260999992013011202004+69650+018933FM-12+011599999V0201901N005019999999N9999999N1+00181+00071101881ADDAJ100299199999999MA1999999100441MD1710051+9999REMSYN070AAXX  12021 01026 46/// /1905 10018 20007 30044 40188 57005 333 4/029;
0188010260999992013011203004+69650+018933FM-12+011599999V0202001N005010060019N0200001N1+00191+00071101871ADDAJ100299199999999AY181031AY221031GF108991061081002501071999MA1999999100431MD1710061+9999MW1801REMSYN082AAXX  12031 01026 41370 82005 10019 20007 30043 40187 57006 78082 8687/ 333 4/029;
0128010260999992013011204004+69650+018933FM-12+011599999V0201901N004019999999N9999999N1+00181+00061101861ADDAJ100289199999999MA1999999100421MD1710041+9999REMSYN070AAXX  12041 01026 46/// /1904 10018 20006 30042 40186 57004 333 4/028;
0128010260999992013011205004+69650+018933FM-12+011599999V0202001N005019999999N9999999N1+00201+00111101841ADDAJ100289199999999MA1999999100411MD1710031+9999REMSYN070AAXX  12051 01026 46/// /2005 10020 20011 30041 40184 57003 333 4/028;
0253010260999992013011206004+69650+018933FM-12+011599999V0202001N004010021019N0150001N1+00201+00111101841ADDAA112001091AA224001091AJ100259199999999AY181061AY261061GF108991071061002501021999IA1279KA1999N+00101MA1999999100411MD1710011+9999MW1581REMSYN106AAXX  12061 01026 11365 82004 10020 20011 30041 40184 57001 69992 75886 8762/ 333 20010 43025 70010 91109;
0128010260999992013011207004+69650+018933FM-12+011599999V0201901N003019999999N9999999N1+00211+00121101861ADDAJ100279199999999MA1999999100431MD1410001+9999REMSYN070AAXX  12071 01026 46/// /1903 10021 20012 30043 40186 54001 333 4/027;
0128010260999992013011208004+69650+018933FM-12+011599999V0202001N002019999999N9999999N1+00221+00131101901ADDAJ100269199999999MA1999999100471MD1310061+9999REMSYN070AAXX  12081 01026 46/// /2002 10022 20013 30047 40190 53006 333 4/026;
0188010260999992013011209004+69650+018933FM-12+011599999V0201501N001010021019N0550001N1+00221+00131101931ADDAJ100269199999999AY161031AY251031GF108991071061002501071999MA1999999100501MD1210091+9999MW1021REMSYN082AAXX  12091 01026 41385 81501 10022 20013 30050 40193 52009 70265 8767/ 333 4/026;
0128010260999992013011210004+69650+018933FM-12+011599999V0202301N001019999999N9999999N1+00231+00141101941ADDAJ100259199999999MA1999999100511MD1210081+9999REMSYN070AAXX  12101 01026 46/// /2301 10023 20014 30051 40194 52008 333 4/025;
0128010260999992013011211004+69650+018933FM-12+011599999V0202301N001019999999N9999999N1+00231+00141101951ADDAJ100259199999999MA1999999100521MD1210051+9999REMSYN070AAXX  12111 01026 46/// /2301 10023 20014 30052 40195 52005 333 4/025;
0194010260999992013011212004+69650+018933FM-12+011599999V0200201N001010021019N0600001N1+00211+00121101971ADDAJ100259199999999AY161061AY251061GF107991061061002501071999MA1999999100531MD1210031+9999MW1021REMSYN088AAXX  12121 01026 41386 70201 10021 20012 30053 40197 52003 70265 8667/ 333 4/025 91107;
0128010260999992013011213004+69650+018933FM-12+011599999V0200301N002019999999N9999999N1+00191+00101101981ADDAJ100259199999999MA1999999100541MD1210031+9999REMSYN070AAXX  12131 01026 46/// /0302 10019 20010 30054 40198 52003 333 4/025;
0128010260999992013011214004+69650+018933FM-12+011599999V0200701N001019999999N9999999N1+00211+00111101961ADDAJ100259199999999MA1999999100521MD1410001+9999REMSYN070AAXX  12141 01026 46/// /0701 10021 20011 30052 40196 54000 333 4/025;
0188010260999992013011215004+69650+018933FM-12+011599999V0201301N001010150019N0500001N1+00181+00071101971ADDAJ100259199999999AY121031AY221031GF107991061081012501071999MA1999999100531MD1410001+9999MW1021REMSYN082AAXX  12151 01026 41684 71301 10018 20007 30053 40197 54000 70222 8687/ 333 4/025;
0128010260999992013011216004+69650+018933FM-12+011599999V0200701N002019999999N9999999N1+00161+00061101981ADDAJ100259199999999MA1999999100541MD1510011+9999REMSYN070AAXX  12161 01026 46/// /0702 10016 20006 30054 40198 55001 333 4/025;
0128010260999992013011217004+69650+018933FM-12+011599999V0200401N002019999999N9999999N1+00151+00051101981ADDAJ100259199999999MA1999999100541MD1010021+9999REMSYN070AAXX  12171 01026 46/// /0402 10015 20005 30054 40198 50002 333 4/025;
0230010260999992013011218004+69650+018933FM-12+011599999V0200401N002010120019N0500001N1+00151+00021101991ADDAA112002091AJ100259199999999AY121061AY221061GF107991061051012501071999KA1120M+00251MA1999999100551MD1210021+9999MW1021REMSYN100AAXX  12181 01026 11684 70402 10015 20002 30055 40199 52002 60022 70222 8657/ 333 10025 4/025 91103;
0128010260999992013011219004+69650+018933FM-12+011599999V0200401N002019999999N9999999N1+00171-00021102001ADDAJ100259199999999MA1999999100561MD1210011+9999REMSYN070AAXX  12191 01026 46/// /0402 10017 21002 30056 40200 52001 333 4/025;
0128010260999992013011220004+69650+018933FM-12+011599999V0200601N002019999999N9999999N1+00131-00041102001ADDAJ100259199999999MA1999999100561MD1210021+9999REMSYN070AAXX  12201 01026 46/// /0602 10013 21004 30056 40200 52002 333 4/025;
0188010260999992013011221004+69650+018933FM-12+011599999V0200401N002010120019N0600001N1+00141-00081102001ADDAJ100259199999999AY121031AY221031GF107991061051012501071999MA1999999100561MD1410001+9999MW1021REMSYN082AAXX  12211 01026 41686 70402 10014 21008 30056 40200 54001 70222 8657/ 333 4/025;
0128010260999992013011222004+69650+018933FM-12+011599999V0200601N001019999999N9999999N1+00101-00101101991ADDAJ100249199999999MA1999999100551MD1410001+9999REMSYN070AAXX  12221 01026 46/// /0601 10010 21010 30055 40199 54001 333 4/024;
0128010260999992013011223004+69650+018933FM-12+011599999V0209999C000019999999N9999999N1+00131-00091101961ADDAJ100249199999999MA1999999100521MD1710041+9999REMSYN070AAXX  12231 01026 46/// /0000 10013 21009 30052 40196 57004 333 4/024;
0194010260999992013011300004+69650+018933FM-12+011599999V0209999C000010042019N0300001N1+00091-00111101951ADDAJ100249199999999AY181061AY221061GF107991061051004501061011MA1999999100511MD1710051+9999MW1021REMSYN088AAXX  13001 01026 41480 70000 10009 21011 30051 40195 57005 70282 86561 333 4/024 91104;
0128010260999992013011301004+69650+018933FM-12+011599999V0201501N001019999999N9999999N1+00121-00071101921ADDAJ100249199999999MA1999999100481MD1710071+9999REMSYN070AAXX  13011 01026 46/// /1501 10012 21007 30048 40192 57007 333 4/024;
0128010260999992013011302004+69650+018933FM-12+011599999V0202201N002019999999N9999999N1+00101-00031101891ADDAJ100249199999999MA1999999100451MD1710071+9999REMSYN070AAXX  13021 01026 46/// /2202 10010 21003 30045 40189 57007 333 4/024;
0188010260999992013011303004+69650+018933FM-12+011599999V0202601N001010060019N0060001N1+00051-00051101871ADDAJ100249199999999AY181031AY281031GF108991071081000751071999MA1999999100431MD1710071+9999MW1831REMSYN082AAXX  13031 01026 41156 82601 10005 21005 30043 40187 57007 78388 8787/ 333 4/024;
0128010260999992013011304004+69650+018933FM-12+011599999V0202501N001019999999N9999999N1+00021-00071101851ADDAJ100249199999999MA1999999100411MD1710071+9999REMSYN070AAXX  13041 01026 46/// /2501 10002 21007 30041 40185 57007 333 4/024;
0128010260999992013011305004+69650+018933FM-12+011599999V0202801N001019999999N9999999N1+00021-00061101821ADDAJ100249199999999MA1999999100381MD1710071+9999REMSYN070AAXX  13051 01026 46/// /2801 10002 21006 30038 40182 57007 333 4/024;
0253010260999992013011306004+69650+018933FM-12+011599999V0209999C000010060019N0030001N1+00021-00061101821ADDAA112002091AA224003391AJ100229199999999AY181061AY281061GF108991081081000751999999IA1279KA1999N+00011MA1999999100381MD1710051+9999MW1831REMSYN106AAXX  13061 01026 11130 80000 10002 21006 30038 40182 57005 60022 78388 888// 333 20001 43022 70033 91103;
0128010260999992013011307004+69650+018933FM-12+011599999V0202001N001019999999N9999999N1+00021-00061101801ADDAJ100249199999999MA1999999100361MD1710051+9999REMSYN070AAXX  13071 01026 46/// /2001 10002 21006 30036 40180 57005 333 4/024;
0128010260999992013011308004+69650+018933FM-12+011599999V0202501N001019999999N9999999N1+00021-00051101811ADDAJ100249199999999MA1999999100371MD1710011+9999REMSYN070AAXX  13081 01026 46/// /2501 10002 21005 30037 40181 57001 333 4/024;
0188010260999992013011309004+69650+018933FM-12+011599999V0202101N003010060019N0200001N1+00061-00011101781ADDAJ100249199999999AY181031AY281031GF108991081081002501999999MA1999999100341MD1710031+9999MW1581REMSYN082AAXX  13091 01026 41370 82103 10006 21001 30034 40178 57003 75888 888// 333 4/024;
0128010260999992013011310004+69650+018933FM-12+011599999V0202101N003019999999N9999999N1+00081+00011101761ADDAJ100259199999999MA1999999100321MD1810031+9999REMSYN070AAXX  13101 01026 46/// /2103 10008 20001 30032 40176 58003 333 4/025;
0128010260999992013011311004+69650+018933FM-12+011599999V0202001N003019999999N9999999N1+00091+00021101741ADDAJ100259199999999MA1999999100301MD1710071+9999REMSYN070AAXX  13111 01026 46/// /2003 10009 20002 30030 40174 57007 333 4/025;
0194010260999992013011312004+69650+018933FM-12+011599999V0202001N003010060019N0200001N1+00091+00021101731ADDAJ100259199999999AY181061AY281061GF108991061081001501071999MA1999999100291MD1710051+9999MW1831REMSYN088AAXX  13121 01026 41270 82003 10009 20002 30029 40173 57005 78388 8687/ 333 4/025 91106;
0128010260999992013011313004+69650+018933FM-12+011599999V0202101N003019999999N9999999N1+00101+00021101701ADDAJ100249199999999MA1999999100261MD1710061+9999REMSYN070AAXX  13131 01026 46/// /2103 10010 20002 30026 40170 57006 333 4/024;
0128010260999992013011314004+69650+018933FM-12+011599999V0202101N004019999999N9999999N1+00101+00021101661ADDAJ100249199999999MA1999999100221MD1710081+9999REMSYN070AAXX  13141 01026 46/// /2104 10010 20002 30022 40166 57008 333 4/024;
0085010260999992013011315004+69650+018933FM-12+011599999V02099999999999999999N9999999N1+00081-00011999999REMSYN076AAXX  13151 01026 41X65 92003 10008 21001 30022 40166 57007 76876 333 4/025;
0128010260999992013011316004+69650+018933FM-12+011599999V0202001N003019999999N9999999N1+00111+00011101611ADDAJ100259199999999MA1999999100171MD1710091+9999REMSYN070AAXX  13161 01026 46/// /2003 10011 20001 30017 40161 57009 333 4/025;
0128010260999992013011317004+69650+018933FM-12+011599999V0202101N004019999999N9999999N1+00151+00011101571ADDAJ100259199999999MA1999999100141MD1810091+9999REMSYN070AAXX  13171 01026 46/// /2104 10015 20001 30014 40157 58009 333 4/025;
0230010260999992013011318004+69650+018933FM-12+011599999V0202001N004010021019N0550001N1+00171-00021101551ADDAA112002091AJ100259199999999AY171061AY261061GF108991061061002501071999KA1120M+00171MA1999999100121MD1610091+9999MW1011REMSYN100AAXX  13181 01026 11385 82004 10017 21002 30012 40155 56009 60022 70176 8667/ 333 10017 4/025 91108;
0128010260999992013011319004+69650+018933FM-12+011599999V0202001N004019999999N9999999N1+00141-00021101531ADDAJ100259199999999MA1999999100101MD1710071+9999REMSYN070AAXX  13191 01026 46/// /2004 10014 21002 30010 40153 57007 333 4/025;
0128010260999992013011320004+69650+018933FM-12+011599999V0202101N004019999999N9999999N1+00151-00031101511ADDAJ100249199999999MA1999999100081MD1710051+9999REMSYN070AAXX  13201 01026 46/// /2104 10015 21003 30008 40151 57005 333 4/024;
0188010260999992013011321004+69650+018933FM-12+011599999V0202101N004010021019N0600001N1+00141-00071101501ADDAJ100249199999999AY171031AY261031GF107991061061002501071999MA1999999100071MD1710051+9999MW1021REMSYN082AAXX  13211 01026 41386 72104 10014 21007 30007 40150 57005 70276 8667/ 333 4/024;
0128010260999992013011322004+69650+018933FM-12+011599999V0202101N005019999999N9999999N1+00151-00081101481ADDAJ100249199999999MA1999999100051MD1710051+9999REMSYN070AAXX  13221 01026 46/// /2105 10015 21008 30005 40148 57005 333 4/024;
0128010260999992013011323004+69650+018933FM-12+011599999V0201901N004019999999N9999999N1+00151-00091101451ADDAJ100259199999999MA1999999100021MD1710061+9999REMSYN070AAXX  13231 01026 46/// /1904 10015 21009 30002 40145 57006 333 4/025;
0194010260999992013011400004+69650+018933FM-12+011599999V0202001N003010090019N0300001N1+00141-00121101401ADDAJ100259199999999AY171061AY221061GF107991061081004501071999MA1999999099971MD1710091+9999MW1831REMSYN088AAXX  14001 01026 41480 72003 10014 21012 39997 40140 57009 78372 8687/ 333 4/025 91109;
0128010260999992013011401004+69650+018933FM-12+011599999V0202101N005019999999N9999999N1+00171-00141101381ADDAJ100259199999999MA1999999099951MD1710101+9999REMSYN070AAXX  14011 01026 46/// /2105 10017 21014 39995 40138 57010 333 4/025;
0128010260999992013011402004+69650+018933FM-12+011599999V0202101N005019999999N9999999N1+00151-00141101341ADDAJ100259199999999MA1999999099911MD1710111+9999REMSYN070AAXX  14021 01026 46/// /2105 10015 21014 39991 40134 57011 333 4/025;
0188010260999992013011403004+69650+018933FM-12+011599999V0202101N004010042019N0250001N1+00111-00091101321ADDAJ100249199999999AY171031AY221031GF107991061031004501071999MA1999999099891MD1710081+9999MW1831REMSYN082AAXX  14031 01026 41475 72104 10011 21009 39989 40132 57008 78372 8637/ 333 4/024;
0128010260999992013011404004+69650+018933FM-12+011599999V0202201N007019999999N9999999N1+00091-00121101311ADDAJ100249199999999MA1999999099881MD1710071+9999REMSYN070AAXX  14041 01026 46/// /2207 10009 21012 39988 40131 57007 333 4/024;
0128010260999992013011405004+69650+018933FM-12+011599999V0202001N004019999999N9999999N1+00031-00101101291ADDAJ100249199999999MA1999999099851MD1810051+9999REMSYN070AAXX  14051 01026 46/// /2004 10003 21010 39985 40129 58005 333 4/024;
0253010260999992013011406004+69650+018933FM-12+011599999V0201901N005010021019N0200001N1+00021-00081101281ADDAA112001091AA224002891AJ100219199999999AY181061AY221061GF107991061031002501061999IA1279KA1999N+00011MA1999999099841MD1710051+9999MW1851REMSYN106AAXX  14061 01026 11370 71905 10002 21008 39984 40128 57005 69992 78582 8636/ 333 20001 43021 70027 91109;
0128010260999992013011407004+69650+018933FM-12+011599999V0202001N004019999999N9999999N1+00001-00081101301ADDAJ100249199999999MA1999999099861MD1510021+9999REMSYN070AAXX  14071 01026 46/// /2004 10000 21008 39986 40130 55002 333 4/024;
0128010260999992013011408004+69650+018933FM-12+011599999V0201901N004019999999N9999999N1+00011-00071101321ADDAJ100299199999999MA1999999099881MD1310031+9999REMSYN070AAXX  14081 01026 46/// /1904 10001 21007 39988 40132 53003 333 4/029;
0085010260999992013011409004+69650+018933FM-12+011599999V02099999999999999999N9999999N1+00001-00071999999REMSYN076AAXX  14091 01026 41X06 91904 10000 21007 39992 40136 52008 78688 333 4/032;
0128010260999992013011410004+69650+018933FM-12+011599999V0201901N003019999999N9999999N1+00011-00061101401ADDAJ100349199999999MA1999999099961MD1210101+9999REMSYN070AAXX  14101 01026 46/// /1903 10001 21006 39996 40140 52010 333 4/034;
0128010260999992013011411004+69650+018933FM-12+011599999V0201801N003019999999N9999999N1+00021-00051101421ADDAJ100369199999999MA1999999099981MD1210101+9999REMSYN070AAXX  14111 01026 46/// /1803 10002 21005 39998 40142 52010 333 4/036;
0194010260999992013011412004+69650+018933FM-12+011599999V0202001N003010060019N0150001N1+00021-00051101431ADDAJ100369199999999AY181061AY221061GF108991071081001501071081MA1999999099991MD1210081+9999MW1261REMSYN088AAXX  14121 01026 41265 82003 10002 21005 39999 40143 52008 72682 87878 333 4/036 91108;
0128010260999992013011413004+69650+018933FM-12+011599999V0201901N003019999999N9999999N1+00041-00031101461ADDAJ100369199999999MA1999999100021MD1210061+9999REMSYN070AAXX  14131 01026 46/// /1903 10004 21003 30002 40146 52006 333 4/036;
0128010260999992013011414004+69650+018933FM-12+011599999V0202001N003019999999N9999999N1+00041-00031101481ADDAJ100359199999999MA1999999100041MD1210061+9999REMSYN070AAXX  14141 01026 46/// /2003 10004 21003 30004 40148 52006 333 4/035;
0085010260999992013011415004+69650+018933FM-12+011599999V02099999999999999999N9999999N1-00011-00071999999REMSYN076AAXX  14151 01026 41X40 90403 11001 21007 30009 40153 52010 78582 333 4/035;
0128010260999992013011416004+69650+018933FM-12+011599999V0200301N004019999999N9999999N1+00001-00061101561ADDAJ100359199999999MA1999999100121MD1210101+9999REMSYN070AAXX  14161 01026 46/// /0304 10000 21006 30012 40156 52010 333 4/035;
0128010260999992013011417004+69650+018933FM-12+011599999V0200201N005019999999N9999999N1-00041-00201101601ADDAJ100369199999999MA1999999100161MD1210121+9999REMSYN070AAXX  14171 01026 46/// /0205 11004 21020 30016 40160 52012 333 4/036;
0230010260999992013011418004+69650+018933FM-12+011599999V0200201N004010060019N0400001N1-00041-00221101631ADDAA112010991AJ100369199999999AY181061AY221061GF108991071081002501071999KA1120M+00041MA1999999100191MD1210101+9999MW1021REMSYN100AAXX  14181 01026 11382 80204 11004 21022 30019 40163 52010 60112 70282 8787/ 333 10004 4/036 91107;
0128010260999992013011419004+69650+018933FM-12+011599999V0200301N004019999999N9999999N1-00081-00301101661ADDAJ100369199999999MA1999999100211MD1210091+9999REMSYN070AAXX  14191 01026 46/// /0304 11008 21030 30021 40166 52009 333 4/036;
0128010260999992013011420004+69650+018933FM-12+011599999V0200301N002019999999N9999999N1-00131-00361101701ADDAJ100369199999999MA1999999100251MD1210091+9999REMSYN070AAXX  14201 01026 46/// /0302 11013 21036 30025 40170 52009 333 4/036;
0188010260999992013011421004+69650+018933FM-12+011599999V0200301N002010060019N0400001N1-00171-00421101711ADDAJ100369199999999AY181031AY221031GF106991051081002501071001MA1999999100261MD1210071+9999MW1011REMSYN082AAXX  14211 01026 41382 60302 11017 21042 30026 40171 52007 70182 85870 333 4/036;
0128010260999992013011422004+69650+018933FM-12+011599999V0200401N002019999999N9999999N1-00231-00441101741ADDAJ100359199999999MA1999999100281MD1110071+9999REMSYN070AAXX  14221 01026 46/// /0402 11023 21044 30028 40174 51007 333 4/035;
0128010260999992013011423004+69650+018933FM-12+011599999V0200501N001019999999N9999999N1-00291-00471101771ADDAJ100359199999999MA1999999100311MD1210061+9999REMSYN070AAXX  14231 01026 46/// /0501 11029 21047 30031 40177 52006 333 4/035;
0194010260999992013011500004+69650+018933FM-12+011599999V0200401N002012200019N0600001N1-00351-00531101781ADDAJ100359199999999AY121061AY201061GF102991021081008001001001MA1999999100321MD1210061+9999MW1011REMSYN088AAXX  15001 01026 41586 20402 11035 21053 30032 40178 52006 70120 82800 333 4/035 91106;
0128010260999992013011501004+69650+018933FM-12+011599999V0200401N002019999999N9999999N1-00351-00501101811ADDAJ100359199999999MA1999999100351MD1210081+9999REMSYN070AAXX  15011 01026 46/// /0402 11035 21050 30035 40181 52008 333 4/035;
0128010260999992013011502004+69650+018933FM-12+011599999V0200501N003019999999N9999999N1-00401-00591101831ADDAJ100359199999999MA1999999100361MD1210061+9999REMSYN070AAXX  15021 01026 46/// /0503 11040 21059 30036 40183 52006 333 4/035;
0188010260999992013011503004+69650+018933FM-12+011599999V0200601N002012200019N0700001N1-00491-00641101831ADDAJ100359199999999AY101031AY201031GF101991011051008001001001MA1999999100361MD1210041+9999MW1021REMSYN082AAXX  15031 01026 41588 10602 11049 21064 30036 40183 52004 70200 81500 333 4/035;
0128010260999992013011504004+69650+018933FM-12+011599999V0200701N002019999999N9999999N1-00481-00631101841ADDAJ100359199999999MA1999999100371MD1210021+9999REMSYN070AAXX  15041 01026 46/// /0702 11048 21063 30037 40184 52002 333 4/035;
0128010260999992013011505004+69650+018933FM-12+011599999V0200501N002019999999N9999999N1-00521-00671101811ADDAJ100359199999999MA1999999100341MD1710021+9999REMSYN070AAXX  15051 01026 46/// /0502 11052 21067 30034 40181 57002 333 4/035;
0272010260999992013011506004+69650+018933FM-12+011599999V0201101N001012200019N0700001N1-00551-00671101821ADDAA112000091AA224011291AJ100329199999999AY101061AY201061GF101991011051008001001001IA1239KA1999N-00581MA1999999100351MD1410001+9999MW1021REMSYN106AAXX  15061 01026 11588 11101 11055 21067 30035 40182 54001 69902 70200 81500 333 21058 47032 70112 91104;EQDQ01  00002PRCP12
0128010260999992013011507004+69650+018933FM-12+011599999V0200401N001019999999N9999999N1-00571-00681101821ADDAJ100359199999999MA1999999100351MD1510011+9999REMSYN070AAXX  15071 01026 46/// /0401 11057 21068 30035 40182 55001 333 4/035;
0128010260999992013011508004+69650+018933FM-12+011599999V0202101N001019999999N9999999N1-00561-00651101841ADDAJ100349199999999MA1999999100371MD1210031+9999REMSYN070AAXX  15081 01026 46/// /2101 11056 21065 30037 40184 52003 333 4/034;
0188010260999992013011509004+69650+018933FM-12+011599999V0209999C000012200019N0700001N1-00641-00731101871ADDAJ100359199999999AY101031AY201031GF101991011051008001001011MA1999999100391MD1210041+9999MW1021REMSYN082AAXX  15091 01026 41588 10000 11064 21073 30039 40187 52004 70200 81501 333 4/035;
0128010260999992013011510004+69650+018933FM-12+011599999V0200401N001019999999N9999999N1-00621-00711101891ADDAJ100359199999999MA1999999100411MD1210051+9999REMSYN070AAXX  15101 01026 46/// /0401 11062 21071 30041 40189 52005 333 4/035;
0128010260999992013011511004+69650+018933FM-12+011599999V0203601N002019999999N9999999N1-00601-00701101901ADDAJ100349199999999MA1999999100421MD1210051+9999REMSYN070AAXX  15111 01026 46/// /3602 11060 21070 30042 40190 52005 333 4/034;
0194010260999992013011512004+69650+018933FM-12+011599999V0200501N002012200019N0750001N1-00641-00781101891ADDAJ100349199999999AY101061AY201061GF103991021061004501031011MA1999999100411MD1210021+9999MW1031REMSYN088AAXX  15121 01026 41489 30502 11064 21078 30041 40189 52002 70300 82631 333 4/034 91103;
0128010260999992013011513004+69650+018933FM-12+011599999V0203301N001019999999N9999999N1-00591-00711101871ADDAJ100349199999999MA1999999100391MD1810011+9999REMSYN070AAXX  15131 01026 46/// /3301 11059 21071 30039 40187 58001 333 4/034;
0128010260999992013011514004+69650+018933FM-12+011599999V0203301N001019999999N9999999N1-00601-00711101861ADDAJ100349199999999MA1999999100381MD1710041+9999REMSYN070AAXX  15141 01026 46/// /3301 11060 21071 30038 40186 57004 333 4/034;
0188010260999992013011515004+69650+018933FM-12+011599999V0200501N001012200019N0750001N1-00651-00761101881ADDAJ100349199999999AY101031AY201031GF102991011011012501031011MA1999999100401MD1710011+9999MW1021REMSYN082AAXX  15151 01026 41689 20501 11065 21076 30040 40188 57001 70200 81131 333 4/034;
0128010260999992013011516004+69650+018933FM-12+011599999V0203501N001019999999N9999999N1-00631-00721101901ADDAJ100339199999999MA1999999100421MD1210031+9999REMSYN070AAXX  15161 01026 46/// /3501 11063 21072 30042 40190 52003 333 4/033;
0128010260999992013011517004+69650+018933FM-12+011599999V0202001N001019999999N9999999N1-00641-00741101911ADDAJ100329199999999MA1999999100431MD1210041+9999REMSYN070AAXX  15171 01026 46/// /2001 11064 21074 30043 40191 52004 333 4/032;
0249010260999992013011518004+69650+018933FM-12+011599999V0202101N001010300019N0750001N1-00491-00591101901ADDAA112000091AJ100339199999999AY121061AY201061GF107991031051008001031999KA1120M-00491MA1999999100431MD1210041+9999MW1031REMSYN100AAXX  15181 01026 11589 72101 11049 21059 30043 40190 52004 69912 70320 8353/ 333 11049 4/033 91104;EQDQ01  00002PRCP12
0128010260999992013011519004+69650+018933FM-12+011599999V0201901N003019999999N9999999N1-00371-00501101861ADDAJ100339199999999MA1999999100401MD1810021+9999REMSYN070AAXX  15191 01026 46/// /1903 11037 21050 30040 40186 58002 333 4/033;
0128010260999992013011520004+69650+018933FM-12+011599999V0201901N003019999999N9999999N1-00351-00491101841ADDAJ100339199999999MA1999999100381MD1710051+9999REMSYN070AAXX  15201 01026 46/// /1903 11035 21049 30038 40184 57005 333 4/033;
0188010260999992013011521004+69650+018933FM-12+011599999V0202101N004010042019N0750001N1-00301-00441101841ADDAJ100349199999999AY121031AY221031GF108991071051004501031999MA1999999100381MD1710051+9999MW1021REMSYN082AAXX  15211 01026 41489 82104 11030 21044 30038 40184 57005 70222 8753/ 333 4/034;
0128010260999992013011522004+69650+018933FM-12+011599999V0202101N005019999999N9999999N1-00281-00431101831ADDAJ100349199999999MA1999999100371MD1710021+9999REMSYN070AAXX  15221 01026 46/// /2105 11028 21043 30037 40183 57002 333 4/034;
0128010260999992013011523004+69650+018933FM-12+011599999V0202101N004019999999N9999999N1-00281-00421101811ADDAJ100349199999999MA1999999100351MD1810031+9999REMSYN070AAXX  15231 01026 46/// /2104 11028 21042 30035 40181 58003 333 4/034;
0194010260999992013011600004+69650+018933FM-12+011599999V0202101N004010075019N0750001N1-00271-00401101811ADDAJ100339199999999AY121061AY221061GF106991051051008001031001MA1999999100351MD1710031+9999MW1021REMSYN088AAXX  16001 01026 41589 62104 11027 21040 30035 40181 57003 70222 85530 333 4/033 91107;
0128010260999992013011601004+69650+018933FM-12+011599999V0202001N005019999999N9999999N1-00241-00381101821ADDAJ100339199999999MA1999999100361MD1710021+9999REMSYN070AAXX  16011 01026 46/// /2005 11024 21038 30036 40182 57002 333 4/033;
0128010260999992013011602004+69650+018933FM-12+011599999V0202001N005019999999N9999999N1-00231-00371101821ADDAJ100339199999999MA1999999100361MD1210011+9999REMSYN070AAXX  16021 01026 46/// /2005 11023 21037 30036 40182 52001 333 4/033;
0188010260999992013011603004+69650+018933FM-12+011599999V0202001N005010300019N0750001N1-00221-00361101801ADDAJ100339199999999AY121031AY221031GF106991031051008001031001MA1999999100341MD1410001+9999MW1021REMSYN082AAXX  16031 01026 41589 62005 11022 21036 30034 40180 54001 70222 83530 333 4/033;
0128010260999992013011604004+69650+018933FM-12+011599999V0202001N005019999999N9999999N1-00201-00341101781ADDAJ100339199999999MA1999999100331MD1710021+9999REMSYN070AAXX  16041 01026 46/// /2005 11020 21034 30033 40178 57002 333 4/033;
0128010260999992013011605004+69650+018933FM-12+011599999V0202101N005019999999N9999999N1-00241-00381101771ADDAJ100339199999999MA1999999100311MD1710041+9999REMSYN070AAXX  16051 01026 46/// /2105 11024 21038 30031 40177 57004 333 4/033;
0288010260999992013011606004+69650+018933FM-12+011599999V0202101N005010120019N0750001N1-00201-00351101751ADDAA112000091AA224000091AJ100329199999999AY121061AY221061GF107991061051012501071999IA1239KA1999N-00491MA1999999100301MD1710041+9999MW1021REMSYN106AAXX  16061 01026 11689 72105 11020 21035 30030 40175 57004 60002 70222 8657/ 333 21049 47032 70001 91109;EQDQ01  00002PRCP24Q02  00002PRCP12
0128010260999992013011607004+69650+018933FM-12+011599999V0201901N005019999999N9999999N1-00201-00351101761ADDAJ100329199999999MA1999999100311MD1510031+9999REMSYN070AAXX  16071 01026 46/// /1905 11020 21035 30031 40176 55003 333 4/032;
0128010260999992013011608004+69650+018933FM-12+011599999V0202001N004019999999N9999999N1-00191-00351101791ADDAJ100329199999999MA1999999100341MD1310021+9999REMSYN070AAXX  16081 01026 46/// /2004 11019 21035 30034 40179 53002 333 4/032;
0188010260999992013011609004+69650+018933FM-12+011599999V0202101N005010300019N0700001N1-00201-00351101801ADDAJ100329199999999AY121031AY221031GF106991031051008001031011MA1999999100351MD1210051+9999MW1011REMSYN082AAXX  16091 01026 41588 62105 11020 21035 30035 40180 52005 70122 83531 333 4/032;
0128010260999992013011610004+69650+018933FM-12+011599999V0202001N006019999999N9999999N1-00231-00381101831ADDAJ100329199999999MA1999999100371MD1210061+9999REMSYN070AAXX  16101 01026 46/// /2006 11023 21038 30037 40183 52006 333 4/032;
0128010260999992013011611004+69650+018933FM-12+011599999V0202101N006019999999N9999999N1-00231-00381101851ADDAJ100329199999999MA1999999100391MD1210061+9999REMSYN070AAXX  16111 01026 46/// /2106 11023 21038 30039 40185 52006 333 4/032;
0194010260999992013011612004+69650+018933FM-12+011599999V0202101N005010300019N0700001N1-00211-00371101871ADDAJ100329199999999AY121061AY221061GF106991041051008001041081MA1999999100411MD1210051+9999MW1021REMSYN088AAXX  16121 01026 41588 62105 11021 21037 30041 40187 52005 70222 84548 333 4/032 91109;
0128010260999992013011613004+69650+018933FM-12+011599999V0202101N005019999999N9999999N1-00241-00411101871ADDAJ100309199999999MA1999999100411MD1210041+9999REMSYN070AAXX  16131 01026 46/// /2105 11024 21041 30041 40187 52004 333 4/030;
0128010260999992013011614004+69650+018933FM-12+011599999V0202001N004019999999N9999999N1-00281-00421101891ADDAJ100309199999999MA1999999100431MD1210041+9999REMSYN070AAXX  16141 01026 46/// /2004 11028 21042 30043 40189 52004 333 4/030;
0188010260999992013011615004+69650+018933FM-12+011599999V0202101N006010300019N0700001N1-00261-00411101901ADDAJ100309199999999AY121031AY221031GF106991021051012501071081MA1999999100441MD1210031+9999MW1021REMSYN082AAXX  16151 01026 41688 62106 11026 21041 30044 40190 52003 70222 82578 333 4/030;
0128010260999992013011616004+69650+018933FM-12+011599999V0202001N004019999999N9999999N1-00251-00401101921ADDAJ100309199999999MA1999999100461MD1210051+9999REMSYN070AAXX  16161 01026 46/// /2004 11025 21040 30046 40192 52005 333 4/030;
0128010260999992013011617004+69650+018933FM-12+011599999V0202101N005019999999N9999999N1-00251-00401101911ADDAJ100319199999999MA1999999100451MD1210031+9999REMSYN070AAXX  16171 01026 46/// /2105 11025 21040 30045 40191 52003 333 4/031;
0249010260999992013011618004+69650+018933FM-12+011599999V0202001N005010300019N0700001N1-00251-00391101911ADDAA112000091AJ100319199999999AY121061AY221061GF105991041051012501071001KA1120M-00181MA1999999100451MD1210011+9999MW1021REMSYN100AAXX  16181 01026 11688 52005 11025 21039 30045 40191 52001 60002 70222 84570 333 11018 4/031 91109;EQDQ01  00002PRCP12
0128010260999992013011619004+69650+018933FM-12+011599999V0202001N005019999999N9999999N1-00241-00401101911ADDAJ100329199999999MA1999999100451MD1410001+9999REMSYN070AAXX  16191 01026 46/// /2005 11024 21040 30045 40191 54001 333 4/032;
0128010260999992013011620004+69650+018933FM-12+011599999V0202101N006019999999N9999999N1-00241-00391101921ADDAJ100329199999999MA1999999100461MD1410001+9999REMSYN070AAXX  16201 01026 46/// /2106 11024 21039 30046 40192 54000 333 4/032;
0188010260999992013011621004+69650+018933FM-12+011599999V0202001N006010300019N0700001N1-00241-00411101911ADDAJ100329199999999AY121031AY221031GF106991041051012501071001MA1999999100451MD1410001+9999MW1021REMSYN082AAXX  16211 01026 41688 62006 11024 21041 30045 40191 54000 70222 84570 333 4/032;
0128010260999992013011622004+69650+018933FM-12+011599999V0202001N006019999999N9999999N1-00261-00431101901ADDAJ100329199999999MA1999999100441MD1410001+9999REMSYN070AAXX  16221 01026 46/// /2006 11026 21043 30044 40190 54000 333 4/032;
0128010260999992013011623004+69650+018933FM-12+011599999V0202101N005019999999N9999999N1-00231-00391101871ADDAJ100329199999999MA1999999100411MD1810051+9999REMSYN070AAXX  16231 01026 46/// /2105 11023 21039 30041 40187 58005 333 4/032;
0194010260999992013011700004+69650+018933FM-12+011599999V0202001N005010300019N0750001N1-00231-00441101891ADDAJ100329199999999AY121061AY221061GF106991011051012501071081MA1999999100431MD1510021+9999MW1021REMSYN088AAXX  17001 01026 41689 62005 11023 21044 30043 40189 55002 70222 81578 333 4/032 91110;
0128010260999992013011701004+69650+018933FM-12+011599999V0202101N005019999999N9999999N1-00251-00431101881ADDAJ100329199999999MA1999999100421MD1510031+9999REMSYN070AAXX  17011 01026 46/// /2105 11025 21043 30042 40188 55003 333 4/032;
0128010260999992013011702004+69650+018933FM-12+011599999V0201801N004019999999N9999999N1-00221-00401101881ADDAJ100329199999999MA1999999100421MD1210021+9999REMSYN070AAXX  17021 01026 46/// /1804 11022 21040 30042 40188 52002 333 4/032;
0188010260999992013011703004+69650+018933FM-12+011599999V0201901N004010300019N0750001N1-00211-00411101851ADDAJ100329199999999AY121031AY221031GF106991011051012501071081MA1999999100391MD1810041+9999MW1021REMSYN082AAXX  17031 01026 41689 61904 11021 21041 30039 40185 58004 70222 81578 333 4/032;
0128010260999992013011704004+69650+018933FM-12+011599999V0201801N004019999999N9999999N1-00171-00451101831ADDAJ100329199999999MA1999999100381MD1710041+9999REMSYN070AAXX  17041 01026 46/// /1804 11017 21045 30038 40183 57004 333 4/032;
0128010260999992013011705004+69650+018933FM-12+011599999V0202001N004019999999N9999999N1-00151-00471101781ADDAJ100329199999999MA1999999100331MD1810091+9999REMSYN070AAXX  17051 01026 46/// /2004 11015 21047 30033 40178 58009 333 4/032;
0288010260999992013011706004+69650+018933FM-12+011599999V0201901N005010300019N0750001N1-00141-00441101741ADDAA112000091AA224000091AJ100319199999999AY121061AY221061GF106991031051012501071081IA1239KA1999N-00271MA1999999100291MD1810101+9999MW1021REMSYN106AAXX  17061 01026 11689 61905 11014 21044 30029 40174 58010 60002 70222 83578 333 21027 47031 70000 91110;EQDQ01  00002PRCP24Q02  00002PRCP12
0128010260999992013011707004+69650+018933FM-12+011599999V0202001N005019999999N9999999N1-00141-00451101711ADDAJ100329199999999MA1999999100261MD1710121+9999REMSYN070AAXX  17071 01026 46/// /2005 11014 21045 30026 40171 57012 333 4/032;
0128010260999992013011708004+69650+018933FM-12+011599999V0202001N006019999999N9999999N1-00101-00441101701ADDAJ100319199999999MA1999999100251MD1610071+9999REMSYN070AAXX  17081 01026 46/// /2006 11010 21044 30025 40170 56007 333 4/031;
