0111010240999992013010100004+78656+016360FM-12+002099999V0200901N013019999999N9999999N1+00001-00251099441ADDMA1999999099311MD1010011+9999REMSYN070AAXX  01001 01024 46/// /0913 10000 21025 39931 49944 50001 333 91119;
0101010240999992013010101004+78656+016360FM-12+002099999V0200901N012019999999N9999999N1+00011-00341099461ADDMA1999999099331MD1210061+9999REMSYN060AAXX  01011 01024 46/// /0912 10001 21034 39933 49946 52006;
0101010240999992013010102004+78656+016360FM-12+002099999V0200801N011019999999N9999999N1+00001-00301099471ADDMA1999999099341MD1210081+9999REMSYN060AAXX  01021 01024 46/// /0811 10000 21030 39934 49947 52008;
0101010240999992013010103004+78656+016360FM-12+002099999V0200801N012019999999N9999999N1+00011-00311099461ADDMA1999999099331MD1510021+9999REMSYN060AAXX  01031 01024 46/// /0812 10001 21031 39933 49946 55002;
0101010240999992013010104004+78656+016360FM-12+002099999V0200801N011019999999N9999999N1+00031-00341099491ADDMA1999999099361MD1410001+9999REMSYN060AAXX  01041 01024 46/// /0811 10003 21034 39936 49949 54003;
0101010240999992013010105004+78656+016360FM-12+002099999V0200801N011019999999N9999999N1+00061-00351099531ADDMA1999999099401MD1110061+9999REMSYN060AAXX  01051 01024 46/// /0811 10006 21035 39940 49953 51006;
0130010240999992013010106004+78656+016360FM-12+002099999V0200801N011019999999N9999999N1+00081-00381099531ADDKA1999N-00031MA1999999099401MD1310071+9999REMSYN076AAXX  01061 01024 46/// /0811 10008 21038 39940 49953 53007 333 21003 91117;
0101010240999992013010107004+78656+016360FM-12+002099999V0200901N010019999999N9999999N1+00091-00431099571ADDMA1999999099441MD1210081+9999REMSYN060AAXX  01071 01024 46/// /0910 10009 21043 39944 49957 52008;
0101010240999992013010108004+78656+016360FM-12+002099999V0200901N010019999999N9999999N1+00081-00421099591ADDMA1999999099461MD1210061+9999REMSYN060AAXX  01081 01024 46/// /0910 10008 21042 39946 49959 52006;
0101010240999992013010109004+78656+016360FM-12+002099999V0200901N008019999999N9999999N1+00111-00451099621ADDMA1999999099491MD1210091+9999REMSYN060AAXX  01091 01024 46/// /0908 10011 21045 39949 49962 52009;
0101010240999992013010110004+78656+016360FM-12+002099999V0200901N010019999999N9999999N1+00121-00401099601ADDMA1999999099471MD1310031+9999REMSYN060AAXX  01101 01024 46/// /0910 10012 21040 39947 49960 53003;
0101010240999992013010111004+78656+016360FM-12+002099999V0200901N010019999999N9999999N1+00101-00381099571ADDMA1999999099441MD1510021+9999REMSYN060AAXX  01111 01024 46/// /0910 10010 21038 39944 49957 55002;
0111010240999992013010112004+78656+016360FM-12+002099999V0200901N009019999999N9999999N1+00141-00461099551ADDMA1999999099421MD1710071+9999REMSYN070AAXX  01121 01024 46/// /0909 10014 21046 39942 49955 57007 333 91114;
0101010240999992013010113004+78656+016360FM-12+002099999V0200801N008019999999N9999999N1+00161-00471099571ADDMA1999999099441MD1010031+9999REMSYN060AAXX  01131 01024 46/// /0808 10016 21047 39944 49957 50003;
0101010240999992013010114004+78656+016360FM-12+002099999V0200901N007019999999N9999999N1+00121-00441099561ADDMA1999999099431MD1410001+9999REMSYN060AAXX  01141 01024 46/// /0907 10012 21044 39943 49956 54001;
0101010240999992013010115004+78656+016360FM-12+002099999V0200901N008019999999N9999999N1+00111-00411099561ADDMA1999999099431MD1410001+9999REMSYN060AAXX  01151 01024 46/// /0908 10011 21041 39943 49956 54001;
0101010240999992013010116004+78656+016360FM-12+002099999V0200901N008019999999N9999999N1+00141-00461099521ADDMA1999999099391MD1710051+9999REMSYN060AAXX  01161 01024 46/// /0908 10014 21046 39939 49952 57005;
0101010240999992013010117004+78656+016360FM-12+002099999V0200901N009019999999N9999999N1+00121-00461099541ADDMA1999999099411MD1410001+9999REMSYN060AAXX  01171 01024 46/// /0909 10012 21046 39941 49954 54002;
0130010240999992013010118004+78656+016360FM-12+002099999V0201001N008019999999N9999999N1+00111-00491099531ADDKA1120M+00191MA1999999099401MD1710031+9999REMSYN076AAXX  01181 01024 46/// /1008 10011 21049 39940 49953 57003 333 10019 91112;
0101010240999992013010119004+78656+016360FM-12+002099999V0200801N008019999999N9999999N1+00131-00511099531ADDMA1999999099401MD1410001+9999REMSYN060AAXX  01191 01024 46/// /0808 10013 21051 39940 49953 54001;
0101010240999992013010120004+78656+016360FM-12+002099999V0200801N009019999999N9999999N1+00131-00511099521ADDMA1999999099391MD1410001+9999REMSYN060AAXX  01201 01024 46/// /0809 10013 21051 39939 49952 54002;
0101010240999992013010121004+78656+016360FM-12+002099999V0200801N008019999999N9999999N1+00091-00471099551ADDMA1999999099421MD1410001+9999REMSYN060AAXX  01211 01024 46/// /0808 10009 21047 39942 49955 54002;
0101010240999992013010122004+78656+016360FM-12+002099999V0200901N008019999999N9999999N1+00091-00471099551ADDMA1999999099421MD1410001+9999REMSYN060AAXX  01221 01024 46/// /0908 10009 21047 39942 49955 54002;
0101010240999992013010123004+78656+016360FM-12+002099999V0200901N009019999999N9999999N1+00121-00481099541ADDMA1999999099411MD1510021+9999REMSYN060AAXX  01231 01024 46/// /0909 10012 21048 39941 49954 55002;
0111010240999992013010200004+78656+016360FM-12+002099999V0200901N008019999999N9999999N1+00141-00511099531ADDMA1999999099401MD1410001+9999REMSYN070AAXX  02001 01024 46/// /0908 10014 21051 39940 49953 54002 333 91111;
0101010240999992013010201004+78656+016360FM-12+002099999V0200801N008019999999N9999999N1+00161-00511099501ADDMA1999999099371MD1710051+9999REMSYN060AAXX  02011 01024 46/// /0808 10016 21051 39937 49950 57005;
0101010240999992013010202004+78656+016360FM-12+002099999V0200901N007019999999N9999999N1+00121-00501099491ADDMA1999999099361MD1710051+9999REMSYN060AAXX  02021 01024 46/// /0907 10012 21050 39936 49949 57005;
0101010240999992013010203004+78656+016360FM-12+002099999V0201101N005019999999N9999999N1+00091-00471099471ADDMA1999999099341MD1710061+9999REMSYN060AAXX  02031 01024 46/// /1105 10009 21047 39934 49947 57006;
0101010240999992013010204004+78656+016360FM-12+002099999V0200801N003019999999N9999999N1+00151-00541099421ADDMA1999999099291MD1610081+9999REMSYN060AAXX  02041 01024 46/// /0803 10015 21054 39929 49942 56008;
0101010240999992013010207004+78656+016360FM-12+002099999V0209999C000019999999N9999999N1+00041-00331099481ADDMA1999999099351MD1110051+9999REMSYN060AAXX  02071 01024 46/// /0000 10004 21033 39935 49948 51005;
0101010240999992013010208004+78656+016360FM-12+002099999V0201101N001019999999N9999999N1+00071-00341099501ADDMA1999999099371MD1210101+9999REMSYN060AAXX  02081 01024 46/// /1101 10007 21034 39937 49950 52010;
0101010240999992013010209004+78656+016360FM-12+002099999V0202901N001019999999N9999999N1+00031-00291099491ADDMA1999999099361MD1310041+9999REMSYN060AAXX  02091 01024 46/// /2901 10003 21029 39936 49949 53004;
0101010240999992013010210004+78656+016360FM-12+002099999V0201101N003019999999N9999999N1+00111-00251099521ADDMA1999999099391MD1210051+9999REMSYN060AAXX  02101 01024 46/// /1103 10011 21025 39939 49952 52005;
0101010240999992013010211004+78656+016360FM-12+002099999V0200801N007019999999N9999999N1+00161-00381099501ADDMA1999999099371MD1410001+9999REMSYN060AAXX  02111 01024 46/// /0807 10016 21038 39937 49950 54000;
0111010240999992013010212004+78656+016360FM-12+002099999V0200901N007019999999N9999999N1+00111-00391099491ADDMA1999999099361MD1510001+9999REMSYN070AAXX  02121 01024 46/// /0907 10011 21039 39936 49949 55000 333 91110;
0101010240999992013010213004+78656+016360FM-12+002099999V0200801N006019999999N9999999N1+00151-00411099471ADDMA1999999099351MD1710051+9999REMSYN060AAXX  02131 01024 46/// /0806 10015 21041 39935 49947 57005;
0101010240999992013010214004+78656+016360FM-12+002099999V0200701N006019999999N9999999N1+00171-00461099441ADDMA1999999099311MD1710061+9999REMSYN060AAXX  02141 01024 46/// /0706 10017 21046 39931 49944 57006;
0101010240999992013010215004+78656+016360FM-12+002099999V0200801N007019999999N9999999N1+00161-00421099391ADDMA1999999099261MD1610101+9999REMSYN060AAXX  02151 01024 46/// /0807 10016 21042 39926 49939 56010;
0101010240999992013010216004+78656+016360FM-12+002099999V0200701N006019999999N9999999N1+00131-00431099361ADDMA1999999099231MD1710121+9999REMSYN060AAXX  02161 01024 46/// /0706 10013 21043 39923 49936 57012;
0101010240999992013010217004+78656+016360FM-12+002099999V0200801N006019999999N9999999N1+00151-00451099311ADDMA1999999099181MD1710131+9999REMSYN060AAXX  02171 01024 46/// /0806 10015 21045 39918 49931 57013;
0130010240999992013010218004+78656+016360FM-12+002099999V0200801N007019999999N9999999N1+00161-00491099261ADDKA1120M+00191MA1999999099131MD1710131+9999REMSYN076AAXX  02181 01024 46/// /0807 10016 21049 39913 49926 57013 333 10019 91110;
0101010240999992013010219004+78656+016360FM-12+002099999V0200801N007019999999N9999999N1+00111-00451099251ADDMA1999999099121MD1810111+9999REMSYN060AAXX  02191 01024 46/// /0807 10011 21045 39912 49925 58011;
0101010240999992013010220004+78656+016360FM-12+002099999V0200901N007019999999N9999999N1+00111-00511099221ADDMA1999999099091MD1710091+9999REMSYN060AAXX  02201 01024 46/// /0907 10011 21051 39909 49922 57009;
0101010240999992013010221004+78656+016360FM-12+002099999V0200601N005019999999N9999999N1+00141-00551099211ADDMA1999999099081MD1710051+9999REMSYN060AAXX  02211 01024 46/// /0605 10014 21055 39908 49921 57005;
0101010240999992013010222004+78656+016360FM-12+002099999V0200701N004019999999N9999999N1+00161-00551099161ADDMA1999999099041MD1710081+9999REMSYN060AAXX  02221 01024 46/// /0704 10016 21055 39904 49916 57008;
0101010240999992013010223004+78656+016360FM-12+002099999V0201001N003019999999N9999999N1+00071-00511099141ADDMA1999999099011MD1710081+9999REMSYN060AAXX  02231 01024 46/// /1003 10007 21051 39901 49914 57008;
0111010240999992013010300004+78656+016360FM-12+002099999V0200801N005019999999N9999999N1+00081-00461099101ADDMA1999999098971MD1710101+9999REMSYN070AAXX  03001 01024 46/// /0805 10008 21046 39897 49910 57010 333 91109;
0101010240999992013010301004+78656+016360FM-12+002099999V0200601N006019999999N9999999N1+00121-00441099071ADDMA1999999098941MD1710101+9999REMSYN060AAXX  03011 01024 46/// /0606 10012 21044 39894 49907 57010;
0101010240999992013010302004+78656+016360FM-12+002099999V0200801N005019999999N9999999N1+00081-00361099051ADDMA1999999098921MD1710091+9999REMSYN060AAXX  03021 01024 46/// /0805 10008 21036 39892 49905 57009;
0101010240999992013010303004+78656+016360FM-12+002099999V0200801N005019999999N9999999N1+00071-00391099041ADDMA1999999098921MD1710061+9999REMSYN060AAXX  03031 01024 46/// /0805 10007 21039 39892 49904 57006;
0101010240999992013010304004+78656+016360FM-12+002099999V0200701N005019999999N9999999N1+00101-00461099031ADDMA1999999098901MD1710041+9999REMSYN060AAXX  03041 01024 46/// /0705 10010 21046 39890 49903 57004;
0101010240999992013010305004+78656+016360FM-12+002099999V0200701N003019999999N9999999N1+00141-00511099011ADDMA1999999098881MD1710041+9999REMSYN060AAXX  03051 01024 46/// /0703 10014 21051 39888 49901 57004;
0101010240999992013010308004+78656+016360FM-12+002099999V0200901N004019999999N9999999N1+00111-00431099071ADDMA1999999098941MD1210061+9999REMSYN060AAXX  03081 01024 46/// /0904 10011 21043 39894 49907 52006;
0101010240999992013010309004+78656+016360FM-12+002099999V0203201N001019999999N9999999N1+00021-00371099121ADDMA1999999098991MD1210091+9999REMSYN060AAXX  03091 01024 46/// /3201 10002 21037 39899 49912 52009;
0101010240999992013010310004+78656+016360FM-12+002099999V0209999C000019999999N9999999N1-00091-00161099191ADDMA1999999099061MD1110131+9999REMSYN060AAXX  03101 01024 46/// /0000 11009 21016 39906 49919 51013;
0101010240999992013010311004+78656+016360FM-12+002099999V0209999C000019999999N9999999N1-00131-00181099231ADDMA1999999099101MD1210161+9999REMSYN060AAXX  03111 01024 46/// /0000 11013 21018 39910 49923 52016;
0111010240999992013010312004+78656+016360FM-12+002099999V0209999C000019999999N9999999N1-00121-00171099261ADDMA1999999099131MD1310141+9999REMSYN070AAXX  03121 01024 46/// /0000 11012 21017 39913 49926 53014 333 91105;
0101010240999992013010313004+78656+016360FM-12+002099999V0209999C000019999999N9999999N1-00151-00221099321ADDMA1999999099181MD1210131+9999REMSYN060AAXX  03131 01024 46/// /0000 11015 21022 39918 49932 52013;
0101010240999992013010314004+78656+016360FM-12+002099999V0203301N001019999999N9999999N1-00131-00231099361ADDMA1999999099231MD1210121+9999REMSYN060AAXX  03141 01024 46/// /3301 11013 21023 39923 49936 52012;
0101010240999992013010315004+78656+016360FM-12+002099999V0201001N001019999999N9999999N1-00181-00291099411ADDMA1999999099281MD1210151+9999REMSYN060AAXX  03151 01024 46/// /1001 11018 21029 39928 49941 52015;
0101010240999992013010316004+78656+016360FM-12+002099999V0209999C000019999999N9999999N1-00201-00251099461ADDMA1999999099331MD1210151+9999REMSYN060AAXX  03161 01024 46/// /0000 11020 21025 39933 49946 52015;
0101010240999992013010317004+78656+016360FM-12+002099999V0203301N001019999999N9999999N1-00161-00201099521ADDMA1999999099391MD1210161+9999REMSYN060AAXX  03171 01024 46/// /3301 11016 21020 39939 49952 52016;
0130010240999992013010318004+78656+016360FM-12+002099999V0203401N001019999999N9999999N1-00151-00211099551ADDKA1120M+00111MA1999999099421MD1210141+9999REMSYN076AAXX  03181 01024 46/// /3401 11015 21021 39942 49955 52014 333 10011 91102;
0101010240999992013010319004+78656+016360FM-12+002099999V0203101N002019999999N9999999N1-00151-00241099611ADDMA1999999099481MD1210141+9999REMSYN060AAXX  03191 01024 46/// /3102 11015 21024 39948 49961 52014;
0101010240999992013010320004+78656+016360FM-12+002099999V0201201N001019999999N9999999N1-00061-00421099661ADDMA1999999099531MD1210141+9999REMSYN060AAXX  03201 01024 46/// /1201 11006 21042 39953 49966 52014;
0101010240999992013010321004+78656+016360FM-12+002099999V0200801N006019999999N9999999N1+00001-00531099711ADDMA1999999099581MD1210161+9999REMSYN060AAXX  03211 01024 46/// /0806 10000 21053 39958 49971 52016;
0101010240999992013010322004+78656+016360FM-12+002099999V0200901N007019999999N9999999N1-00021-00531099781ADDMA1999999099641MD1210171+9999REMSYN060AAXX  03221 01024 46/// /0907 11002 21053 39964 49978 52017;
0101010240999992013010323004+78656+016360FM-12+002099999V0200901N009019999999N9999999N1-00041-00571099861ADDMA1999999099731MD1110201+9999REMSYN060AAXX  03231 01024 46/// /0909 11004 21057 39973 49986 51020;
0111010240999992013010400004+78656+016360FM-12+002099999V0201101N006019999999N9999999N1-00081-00551099921ADDMA1999999099791MD1210211+9999REMSYN070AAXX  04001 01024 46/// /1106 11008 21055 39979 49992 52021 333 91111;
0101010240999992013010401004+78656+016360FM-12+002099999V0201201N005019999999N9999999N1-00101-00611099991ADDMA1999999099861MD1210211+9999REMSYN060AAXX  04011 01024 46/// /1205 11010 21061 39986 49999 52021;
0101010240999992013010402004+78656+016360FM-12+002099999V0201101N006019999999N9999999N1-00131-00691100051ADDMA1999999099921MD1210191+9999REMSYN060AAXX  04021 01024 46/// /1106 11013 21069 39992 40005 52019;
0101010240999992013010403004+78656+016360FM-12+002099999V0201101N007019999999N9999999N1-00191-00711100121ADDMA1999999099991MD1210201+9999REMSYN060AAXX  04031 01024 46/// /1107 11019 21071 39999 40012 52020;
0101010240999992013010404004+78656+016360FM-12+002099999V0201101N005019999999N9999999N1-00181-00701100181ADDMA1999999100041MD1210191+9999REMSYN060AAXX  04041 01024 46/// /1105 11018 21070 30004 40018 52019;
0101010240999992013010405004+78656+016360FM-12+002099999V0201001N006019999999N9999999N1-00221-00711100251ADDMA1999999100121MD1210201+9999REMSYN060AAXX  04051 01024 46/// /1006 11022 21071 30012 40025 52020;
0130010240999992013010406004+78656+016360FM-12+002099999V0201001N006019999999N9999999N1-00211-00871100311ADDKA1999N-00241MA1999999100181MD1210191+9999REMSYN076AAXX  04061 01024 46/// /1006 11021 21087 30018 40031 52019 333 21024 91110;
0101010240999992013010407004+78656+016360FM-12+002099999V0200901N005019999999N9999999N1-00231-00851100371ADDMA1999999100241MD1210201+9999REMSYN060AAXX  04071 01024 46/// /0905 11023 21085 30024 40037 52020;
0101010240999992013010408004+78656+016360FM-12+002099999V0200901N004019999999N9999999N1-00231-00901100451ADDMA1999999100321MD1210211+9999REMSYN060AAXX  04081 01024 46/// /0904 11023 21090 30032 40045 52021;
0101010240999992013010410004+78656+016360FM-12+002099999V0209999C000019999999N9999999N1-00381-00931100601ADDMA1999999100461MD1210221+9999REMSYN060AAXX  04101 01024 46/// /0000 11038 21093 30046 40060 52022;
0101010240999992013010411004+78656+016360FM-12+002099999V0209999C000019999999N9999999N1-00551-00981100671ADDMA1999999100531MD1210211+9999REMSYN060AAXX  04111 01024 46/// /0000 11055 21098 30053 40067 52021;
0101010240999992013010412004+78656+016360FM-12+002099999V0203201N001019999999N9999999N1-00571-01011100711ADDMA1999999100581MD1210191+9999REMSYN060AAXX  04121 01024 46/// /3201 11057 21101 30058 40071 52019;
0101010240999992013010413004+78656+016360FM-12+002099999V0209999C000019999999N9999999N1-00441-00921100761ADDMA1999999100631MD1210171+9999REMSYN060AAXX  04131 01024 46/// /0000 11044 21092 30063 40076 52017;
0101010240999992013010414004+78656+016360FM-12+002099999V0202801N001019999999N9999999N1-00531-00921100811ADDMA1999999100681MD1210151+9999REMSYN060AAXX  04141 01024 46/// /2801 11053 21092 30068 40081 52015;
0101010240999992013010415004+78656+016360FM-12+002099999V0203301N001019999999N9999999N1-00481-00941100861ADDMA1999999100731MD1210151+9999REMSYN060AAXX  04151 01024 46/// /3301 11048 21094 30073 40086 52015;
0101010240999992013010416004+78656+016360FM-12+002099999V0203301N002019999999N9999999N1-00521-01001100931ADDMA1999999100791MD1210171+9999REMSYN060AAXX  04161 01024 46/// /3302 11052 21100 30079 40093 52017;
0101010240999992013010417004+78656+016360FM-12+002099999V0203201N001019999999N9999999N1-00511-01041100981ADDMA1999999100851MD1210171+9999REMSYN060AAXX  04171 01024 46/// /3201 11051 21104 30085 40098 52017;
0111010240999992013010418004+78656+016360FM-12+002099999V0203301N001019999999N9999999N1-00571-01041101021ADDMA1999999100881MD1210151+9999REMSYN070AAXX  04181 01024 46/// /3301 11057 21104 30088 40102 52015 333 91103;
0101010240999992013010419004+78656+016360FM-12+002099999V0203301N001019999999N9999999N1-00661-01131101081ADDMA1999999100941MD1210151+9999REMSYN060AAXX  04191 01024 46/// /3301 11066 21113 30094 40108 52015;
0101010240999992013010420004+78656+016360FM-12+002099999V0203301N002019999999N9999999N1-00621-01151101141ADDMA1999999101011MD1110161+9999REMSYN060AAXX  04201 01024 46/// /3302 11062 21115 30101 40114 51016;
0101010240999992013010421004+78656+016360FM-12+002099999V0209999C000019999999N9999999N1-00691-01141101201ADDMA1999999101071MD1210181+9999REMSYN060AAXX  04211 01024 46/// /0000 11069 21114 30107 40120 52018;
0101010240999992013010422004+78656+016360FM-12+002099999V0209999C000019999999N9999999N1-00841-01181101261ADDMA1999999101121MD1210181+9999REMSYN060AAXX  04221 01024 46/// /0000 11084 21118 30112 40126 52018;
0101010240999992013010423004+78656+016360FM-12+002099999V0209999C000019999999N9999999N1-00771-01191101301ADDMA1999999101161MD1210151+9999REMSYN060AAXX  04231 01024 46/// /0000 11077 21119 30116 40130 52015;
0111010240999992013010500004+78656+016360FM-12+002099999V0203201N001019999999N9999999N1-00761-01231101331ADDMA1999999101201MD1210131+9999REMSYN070AAXX  05001 01024 46/// /3201 11076 21123 30120 40133 52013 333 91103;
0101010240999992013010501004+78656+016360FM-12+002099999V0200401N001019999999N9999999N1-00731-01221101381ADDMA1999999101251MD1210121+9999REMSYN060AAXX  05011 01024 46/// /0401 11073 21122 30125 40138 52012;
0101010240999992013010502004+78656+016360FM-12+002099999V0203601N002019999999N9999999N1-00661-01171101431ADDMA1999999101291MD1210131+9999REMSYN060AAXX  05021 01024 46/// /3602 11066 21117 30129 40143 52013;
0101010240999992013010503004+78656+016360FM-12+002099999V0209999C000019999999N9999999N1-00771-01141101481ADDMA1999999101341MD1210151+9999REMSYN060AAXX  05031 01024 46/// /0000 11077 21114 30134 40148 52015;
0101010240999992013010504004+78656+016360FM-12+002099999V0203101N001019999999N9999999N1-00711-01071101501ADDMA1999999101361MD1210121+9999REMSYN060AAXX  05041 01024 46/// /3101 11071 21107 30136 40150 52012;
0101010240999992013010505004+78656+016360FM-12+002099999V0200801N001019999999N9999999N1-00621-00961101521ADDMA1999999101391MD1310091+9999REMSYN060AAXX  05051 01024 46/// /0801 11062 21096 30139 40152 53009;
0130010240999992013010506004+78656+016360FM-12+002099999V0200201N001019999999N9999999N1-00571-01061101541ADDKA1999N-00911MA1999999101401MD1210061+9999REMSYN076AAXX  05061 01024 46/// /0201 11057 21106 30140 40154 52006 333 21091 91102;
0101010240999992013010507004+78656+016360FM-12+002099999V0200301N001019999999N9999999N1-00491-00981101571ADDMA1999999101431MD1210071+9999REMSYN060AAXX  05071 01024 46/// /0301 11049 21098 30143 40157 52007;
0101010240999992013010508004+78656+016360FM-12+002099999V0209999C000019999999N9999999N1-00511-01001101581ADDMA1999999101451MD1210061+9999REMSYN060AAXX  05081 01024 46/// /0000 11051 21100 30145 40158 52006;
0101010240999992013010509004+78656+016360FM-12+002099999V0203301N001019999999N9999999N1-00541-00981101581ADDMA1999999101451MD1310051+9999REMSYN060AAXX  05091 01024 46/// /3301 11054 21098 30145 40158 53005;
0101010240999992013010510004+78656+016360FM-12+002099999V0202801N002019999999N9999999N1-00431-00911101611ADDMA1999999101471MD1210041+9999REMSYN060AAXX  05101 01024 46/// /2802 11043 21091 30147 40161 52004;
0101010240999992013010511004+78656+016360FM-12+002099999V0200801N001019999999N9999999N1-00431-00811101621ADDMA1999999101491MD1210041+9999REMSYN060AAXX  05111 01024 46/// /0801 11043 21081 30149 40162 52004;
0111010240999992013010512004+78656+016360FM-12+002099999V0203001N001019999999N9999999N1-00511-00831101621ADDMA1999999101491MD1210041+9999REMSYN070AAXX  05121 01024 46/// /3001 11051 21083 30149 40162 52004 333 91104;
0101010240999992013010513004+78656+016360FM-12+002099999V0201001N001019999999N9999999N1-00511-00811101601ADDMA1999999101471MD1510001+9999REMSYN060AAXX  05131 01024 46/// /1001 11051 21081 30147 40160 55000;
0101010240999992013010514004+78656+016360FM-12+002099999V0209999C000019999999N9999999N1-00421-00871101591ADDMA1999999101451MD1710041+9999REMSYN060AAXX  05141 01024 46/// /0000 11042 21087 30145 40159 57004;
0101010240999992013010515004+78656+016360FM-12+002099999V0209999C000019999999N9999999N1-00451-00751101531ADDMA1999999101401MD1610091+9999REMSYN060AAXX  05151 01024 46/// /0000 11045 21075 30140 40153 56009;
0101010240999992013010516004+78656+016360FM-12+002099999V0203001N001019999999N9999999N1-00441-00731101491ADDMA1999999101361MD1710111+9999REMSYN060AAXX  05161 01024 46/// /3001 11044 21073 30136 40149 57011;
0101010240999992013010517004+78656+016360FM-12+002099999V0209999C000019999999N9999999N1-00411-00701101431ADDMA1999999101301MD1710151+9999REMSYN060AAXX  05171 01024 46/// /0000 11041 21070 30130 40143 57015;
0130010240999992013010518004+78656+016360FM-12+002099999V0209999C000019999999N9999999N1-00301-00681101361ADDKA1120M-00301MA1999999101231MD1610171+9999REMSYN076AAXX  05181 01024 46/// /0000 11030 21068 30123 40136 56017 333 11030 91102;
0101010240999992013010519004+78656+016360FM-12+002099999V0200901N001019999999N9999999N1-00241-00661101291ADDMA1999999101161MD1710201+9999REMSYN060AAXX  05191 01024 46/// /0901 11024 21066 30116 40129 57020;
0101010240999992013010520004+78656+016360FM-12+002099999V0209999C000019999999N9999999N1-00271-00671101201ADDMA1999999101071MD1710231+9999REMSYN060AAXX  05201 01024 46/// /0000 11027 21067 30107 40120 57023;
0101010240999992013010521004+78656+016360FM-12+002099999V0201001N002019999999N9999999N1-00101-00681101071ADDMA1999999100941MD1610291+9999REMSYN060AAXX  05211 01024 46/// /1002 11010 21068 30094 40107 56029;
0101010240999992013010522004+78656+016360FM-12+002099999V0201401N004019999999N9999999N1-00081-00641100951ADDMA1999999100821MD1710341+9999REMSYN060AAXX  05221 01024 46/// /1404 11008 21064 30082 40095 57034;
0101010240999992013010523004+78656+016360FM-12+002099999V0201401N004019999999N9999999N1-00091-00601100841ADDMA1999999100701MD1710361+9999REMSYN060AAXX  05231 01024 46/// /1404 11009 21060 30070 40084 57036;
0111010240999992013010600004+78656+016360FM-12+002099999V0200901N003019999999N9999999N1-00011-00621100721ADDMA1999999100591MD1710351+9999REMSYN070AAXX  06001 01024 46/// /0903 11001 21062 30059 40072 57035 333 91107;
0101010240999992013010601004+78656+016360FM-12+002099999V0201201N002019999999N9999999N1-00021-00481100591ADDMA1999999100461MD1710361+9999REMSYN060AAXX  06011 01024 46/// /1202 11002 21048 30046 40059 57036;
0101010240999992013010602004+78656+016360FM-12+002099999V0201101N004019999999N9999999N1-00051-00431100431ADDMA1999999100301MD1610401+9999REMSYN060AAXX  06021 01024 46/// /1104 11005 21043 30030 40043 56040;
0120010240999992013010603004+78656+016360FM-12+002099999V0200701N005019999999N9999999N1-00091-00221100211ADDMA1999999100081MD1610502+9999REMSYN060AAXX  06031 01024 46/// /0705 11009 21022 30008 40021 56050;EQDQ01+000502APC3  
0101010240999992013010604004+78656+016360FM-12+002099999V0200801N007019999999N9999999N1+00011-00161100031ADDMA1999999099901MD1710561+9999REMSYN060AAXX  06041 01024 46/// /0807 10001 21016 39990 40003 57056;
0101010240999992013010607004+78656+016360FM-12+002099999V0202801N001019999999N9999999N1+00291-00141099661ADDMA1999999099531MD1810371+9999REMSYN060AAXX  06071 01024 46/// /2801 10029 21014 39953 49966 58037;
0101010240999992013010608004+78656+016360FM-12+002099999V0200101N001019999999N9999999N1+00221-00091099611ADDMA1999999099481MD1810211+9999REMSYN060AAXX  06081 01024 46/// /0101 10022 21009 39948 49961 58021;
0101010240999992013010609004+78656+016360FM-12+002099999V0200201N002019999999N9999999N1+00321-00061099571ADDMA1999999099441MD1710151+9999REMSYN060AAXX  06091 01024 46/// /0202 10032 21006 39944 49957 57015;
0101010240999992013010610004+78656+016360FM-12+002099999V0202901N002019999999N9999999N1+00161+00011099531ADDMA1999999099401MD1710131+9999REMSYN060AAXX  06101 01024 46/// /2902 10016 20001 39940 49953 57013;
0101010240999992013010611004+78656+016360FM-12+002099999V0203201N002019999999N9999999N1+00141+00011099501ADDMA1999999099371MD1710111+9999REMSYN060AAXX  06111 01024 46/// /3202 10014 20001 39937 49950 57011;
0111010240999992013010612004+78656+016360FM-12+002099999V0202901N003019999999N9999999N1+00181+00031099481ADDMA1999999099351MD1710081+9999REMSYN070AAXX  06121 01024 46/// /2903 10018 20003 39935 49948 57008 333 91104;
0101010240999992013010613004+78656+016360FM-12+002099999V0209999C000019999999N9999999N1+00171-00011099481ADDMA1999999099351MD1710051+9999REMSYN060AAXX  06131 01024 46/// /0000 10017 21001 39935 49948 57005;
0101010240999992013010614004+78656+016360FM-12+002099999V0203501N001019999999N9999999N1+00191-00021099421ADDMA1999999099291MD1610081+9999REMSYN060AAXX  06141 01024 46/// /3501 10019 21002 39929 49942 56008;
0101010240999992013010615004+78656+016360FM-12+002099999V0209999C000019999999N9999999N1+00141-00011099371ADDMA1999999099241MD1610111+9999REMSYN060AAXX  06151 01024 46/// /0000 10014 21001 39924 49937 56011;
0101010240999992013010616004+78656+016360FM-12+002099999V0203101N001019999999N9999999N1+00131+00011099321ADDMA1999999099191MD1710161+9999REMSYN060AAXX  06161 01024 46/// /3101 10013 20001 39919 49932 57016;
0101010240999992013010617004+78656+016360FM-12+002099999V0209999C000019999999N9999999N1+00051-00021099271ADDMA1999999099141MD1710151+9999REMSYN060AAXX  06171 01024 46/// /0000 10005 21002 39914 49927 57015;
0130010240999992013010618004+78656+016360FM-12+002099999V0200901N001019999999N9999999N1+00011-00021099211ADDKA1120M+00341MA1999999099081MD1710161+9999REMSYN076AAXX  06181 01024 46/// /0901 10001 21002 39908 49921 57016 333 10034 91104;
0101010240999992013010619004+78656+016360FM-12+002099999V0209999C000019999999N9999999N1+00011+00001099181ADDMA1999999099051MD1710141+9999REMSYN060AAXX  06191 01024 46/// /0000 10001 21000 39905 49918 57014;
0101010240999992013010620004+78656+016360FM-12+002099999V0209999C000019999999N9999999N1+00011+00001099141ADDMA1999999099011MD1710131+9999REMSYN060AAXX  06201 01024 46/// /0000 10001 21000 39901 49914 57013;
0101010240999992013010621004+78656+016360FM-12+002099999V0209999C000019999999N9999999N1+00011+00001099121ADDMA1999999098991MD1710091+9999REMSYN060AAXX  06211 01024 46/// /0000 10001 21000 39899 49912 57009;
0101010240999992013010622004+78656+016360FM-12+002099999V0200901N001019999999N9999999N1-00021-00031099091ADDMA1999999098961MD1710091+9999REMSYN060AAXX  06221 01024 46/// /0901 11002 21003 39896 49909 57009;
0101010240999992013010623004+78656+016360FM-12+002099999V0200701N001019999999N9999999N1-00021-00031099111ADDMA1999999098981MD1010031+9999REMSYN060AAXX  06231 01024 46/// /0701 11002 21003 39898 49911 50003;
0111010240999992013010700004+78656+016360FM-12+002099999V0209999C000019999999N9999999N1-00071-00081099131ADDMA1999999099001MD1010011+9999REMSYN070AAXX  07001 01024 46/// /0000 11007 21008 39900 49913 50001 333 91102;
0101010240999992013010701004+78656+016360FM-12+002099999V0209999C000019999999N9999999N1-00031-00041099181ADDMA1999999099051MD1110091+9999REMSYN060AAXX  07011 01024 46/// /0000 11003 21004 39905 49918 51009;
0101010240999992013010702004+78656+016360FM-12+002099999V0202901N004019999999N9999999N1+00161-00051099211ADDMA1999999099081MD1210101+9999REMSYN060AAXX  07021 01024 46/// /2904 10016 21005 39908 49921 52010;
0101010240999992013010703004+78656+016360FM-12+002099999V0203101N005019999999N9999999N1+00091-00131099251ADDMA1999999099131MD1210131+9999REMSYN060AAXX  07031 01024 46/// /3105 10009 21013 39913 49925 52013;
0101010240999992013010704004+78656+016360FM-12+002099999V0203301N007019999999N9999999N1+00051-00271099281ADDMA1999999099151MD1210101+9999REMSYN060AAXX  07041 01024 46/// /3307 10005 21027 39915 49928 52010;
0101010240999992013010705004+78656+016360FM-12+002099999V0203001N006019999999N9999999N1+00071-00141099291ADDMA1999999099161MD1210081+9999REMSYN060AAXX  07051 01024 46/// /3006 10007 21014 39916 49929 52008;
0130010240999992013010706004+78656+016360FM-12+002099999V0202801N006019999999N9999999N1+00071-00231099331ADDKA1999N-00081MA1999999099201MD1210071+9999REMSYN076AAXX  07061 01024 46/// /2806 10007 21023 39920 49933 52007 333 21008 91109;
0101010240999992013010707004+78656+016360FM-12+002099999V0202801N006019999999N9999999N1+00041-00261099351ADDMA1999999099221MD1210071+9999REMSYN060AAXX  07071 01024 46/// /2806 10004 21026 39922 49935 52007;
0101010240999992013010708004+78656+016360FM-12+002099999V0203001N005019999999N9999999N1-00011-00181099361ADDMA1999999099231MD1210071+9999REMSYN060AAXX  07081 01024 46/// /3005 11001 21018 39923 49936 52007;
0101010240999992013010709004+78656+016360FM-12+002099999V0202901N004019999999N9999999N1-00021-00351099381ADDMA1999999099251MD1210051+9999REMSYN060AAXX  07091 01024 46/// /2904 11002 21035 39925 49938 52005;
0101010240999992013010711004+78656+016360FM-12+002099999V0202701N002019999999N9999999N1-00041-00371099361ADDMA1999999099231MD1410001+9999REMSYN060AAXX  07111 01024 46/// /2702 11004 21037 39923 49936 54000;
0101010240999992013010712004+78656+016360FM-12+002099999V0202901N002019999999N9999999N1-00031-00271099341ADDMA1999999099211MD1710041+9999REMSYN060AAXX  07121 01024 46/// /2902 11003 21027 39921 49934 57004;
0101010240999992013010713004+78656+016360FM-12+002099999V0203001N003019999999N9999999N1-00061-00281099331ADDMA1999999099201MD1710041+9999REMSYN060AAXX  07131 01024 46/// /3003 11006 21028 39920 49933 57004;
0101010240999992013010714004+78656+016360FM-12+002099999V0202901N006019999999N9999999N1-00151-00481099401ADDMA1999999099261MD1110041+9999REMSYN060AAXX  07141 01024 46/// /2906 11015 21048 39926 49940 51004;
0101010240999992013010715004+78656+016360FM-12+002099999V0203001N006019999999N9999999N1-00261-00541099441ADDMA1999999099311MD1110111+9999REMSYN060AAXX  07151 01024 46/// /3006 11026 21054 39931 49944 51011;
0101010240999992013010716004+78656+016360FM-12+002099999V0202801N005019999999N9999999N1-00331-00811099551ADDMA1999999099421MD1110221+9999REMSYN060AAXX  07161 01024 46/// /2805 11033 21081 39942 49955 51022;
0101010240999992013010717004+78656+016360FM-12+002099999V0203001N005019999999N9999999N1-00451-00881099631ADDMA1999999099501MD1210231+9999REMSYN060AAXX  07171 01024 46/// /3005 11045 21088 39950 49963 52023;
0111010240999992013010718004+78656+016360FM-12+002099999V0203101N003019999999N9999999N1-00621-01091099671ADDMA1999999099541MD1310221+9999REMSYN070AAXX  07181 01024 46/// /3103 11062 21109 39954 49967 53022 333 91110;
0101010240999992013010719004+78656+016360FM-12+002099999V0203101N005019999999N9999999N1-00661-01081099711ADDMA1999999099571MD1310151+9999REMSYN060AAXX  07191 01024 46/// /3105 11066 21108 39957 49971 53015;
0101010240999992013010720004+78656+016360FM-12+002099999V0203001N003019999999N9999999N1-00611-00991099791ADDMA1999999099661MD1110161+9999REMSYN060AAXX  07201 01024 46/// /3003 11061 21099 39966 49979 51016;
0101010240999992013010721004+78656+016360FM-12+002099999V0203001N003019999999N9999999N1-00651-01061099841ADDMA1999999099701MD1210171+9999REMSYN060AAXX  07211 01024 46/// /3003 11065 21106 39970 49984 52017;
0101010240999992013010722004+78656+016360FM-12+002099999V0203101N003019999999N9999999N1-00661-01131099901ADDMA1999999099771MD1210201+9999REMSYN060AAXX  07221 01024 46/// /3103 11066 21113 39977 49990 52020;
0101010240999992013010723004+78656+016360FM-12+002099999V0203101N002019999999N9999999N1-00721-01161099911ADDMA1999999099781MD1310121+9999REMSYN060AAXX  07231 01024 46/// /3102 11072 21116 39978 49991 53012;
0111010240999992013010800004+78656+016360FM-12+002099999V0203101N003019999999N9999999N1-00751-01251099931ADDMA1999999099801MD1310101+9999REMSYN070AAXX  08001 01024 46/// /3103 11075 21125 39980 49993 53010 333 91106;
0101010240999992013010801004+78656+016360FM-12+002099999V0203301N003019999999N9999999N1-00681-01241099931ADDMA1999999099801MD1410001+9999REMSYN060AAXX  08011 01024 46/// /3303 11068 21124 39980 49993 54003;
0101010240999992013010802004+78656+016360FM-12+002099999V0202901N001019999999N9999999N1-00721-01221099971ADDMA1999999099831MD1210051+9999REMSYN060AAXX  08021 01024 46/// /2901 11072 21122 39983 49997 52005;
0101010240999992013010803004+78656+016360FM-12+002099999V0203201N002019999999N9999999N1-00681-01121100001ADDMA1999999099861MD1110061+9999REMSYN060AAXX  08031 01024 46/// /3202 11068 21112 39986 40000 51006;
0101010240999992013010804004+78656+016360FM-12+002099999V0203101N002019999999N9999999N1-00731-01181100011ADDMA1999999099881MD1210081+9999REMSYN060AAXX  08041 01024 46/// /3102 11073 21118 39988 40001 52008;
0101010240999992013010805004+78656+016360FM-12+002099999V0203201N001019999999N9999999N1-00701-01191100051ADDMA1999999099911MD1210081+9999REMSYN060AAXX  08051 01024 46/// /3201 11070 21119 39991 40005 52008;
0130010240999992013010806004+78656+016360FM-12+002099999V0209999C000019999999N9999999N1-00781-01201100071ADDKA1999N-00781MA1999999099941MD1210081+9999REMSYN076AAXX  08061 01024 46/// /0000 11078 21120 39994 40007 52008 333 21078 91104;
0101010240999992013010807004+78656+016360FM-12+002099999V0209999C000019999999N9999999N1-00651-01171100131ADDMA1999999100001MD1210121+9999REMSYN060AAXX  08071 01024 46/// /0000 11065 21117 30000 40013 52012;
0101010240999992013010808004+78656+016360FM-12+002099999V0203001N001019999999N9999999N1-00751-01141100171ADDMA1999999100041MD1210121+9999REMSYN060AAXX  08081 01024 46/// /3001 11075 21114 30004 40017 52012;
0101010240999992013010809004+78656+016360FM-12+002099999V0203101N001019999999N9999999N1-00811-01231100211ADDMA1999999100081MD1210141+9999REMSYN060AAXX  08091 01024 46/// /3101 11081 21123 30008 40021 52014;
0101010240999992013010810004+78656+016360FM-12+002099999V0209999C000019999999N9999999N1-00841-01261100291ADDMA1999999100151MD1110161+9999REMSYN060AAXX  08101 01024 46/// /0000 11084 21126 30015 40029 51016;
0101010240999992013010811004+78656+016360FM-12+002099999V0203101N002019999999N9999999N1-00921-01491100331ADDMA1999999100201MD1210161+9999REMSYN060AAXX  08111 01024 46/// /3102 11092 21149 30020 40033 52016;
0111010240999992013010812004+78656+016360FM-12+002099999V0200301N001019999999N9999999N1-00941-01451100391ADDMA1999999100251MD1210181+9999REMSYN070AAXX  08121 01024 46/// /0301 11094 21145 30025 40039 52018 333 91104;
0101010240999992013010813004+78656+016360FM-12+002099999V0203101N001019999999N9999999N1-01031-01541100461ADDMA1999999100321MD1210171+9999REMSYN060AAXX  08131 01024 46/// /3101 11103 21154 30032 40046 52017;
0101010240999992013010814004+78656+016360FM-12+002099999V0203101N001019999999N9999999N1-01061-01551100521ADDMA1999999100381MD1210181+9999REMSYN060AAXX  08141 01024 46/// /3101 11106 21155 30038 40052 52018;
0101010240999992013010815004+78656+016360FM-12+002099999V0200501N001019999999N9999999N1-01041-01521100591ADDMA1999999100451MD1210201+9999REMSYN060AAXX  08151 01024 46/// /0501 11104 21152 30045 40059 52020;
0101010240999992013010816004+78656+016360FM-12+002099999V0209999C000019999999N9999999N1-01181-01621100681ADDMA1999999100551MD1110231+9999REMSYN060AAXX  08161 01024 46/// /0000 11118 21162 30055 40068 51023;
0101010240999992013010817004+78656+016360FM-12+002099999V0203201N002019999999N9999999N1-01091-01531100761ADDMA1999999100621MD1210241+9999REMSYN060AAXX  08171 01024 46/// /3202 11109 21153 30062 40076 52024;
0130010240999992013010818004+78656+016360FM-12+002099999V0203401N001019999999N9999999N1-00981-01471100811ADDKA1120M-00641MA1999999100671MD1310221+9999REMSYN076AAXX  08181 01024 46/// /3401 11098 21147 30067 40081 53022 333 11064 91102;
0101010240999992013010819004+78656+016360FM-12+002099999V0203201N001019999999N9999999N1-01001-01481100881ADDMA1999999100751MD1210201+9999REMSYN060AAXX  08191 01024 46/// /3201 11100 21148 30075 40088 52020;
0101010240999992013010821004+78656+016360FM-12+002099999V0203101N001019999999N9999999N1-00881-01311101011ADDMA1999999100881MD1310211+9999REMSYN060AAXX  08211 01024 46/// /3101 11088 21131 30088 40101 53021;
0101010240999992013010823004+78656+016360FM-12+002099999V0203001N003019999999N9999999N1-00791-01271101181ADDMA1999999101041MD1110201+9999REMSYN060AAXX  08231 01024 46/// /3003 11079 21127 30104 40118 51020;
0111010240999992013010900004+78656+016360FM-12+002099999V0202901N002019999999N9999999N1-00761-01251101201ADDMA1999999101071MD1310191+9999REMSYN070AAXX  09001 01024 46/// /2902 11076 21125 30107 40120 53019 333 91104;
0101010240999992013010901004+78656+016360FM-12+002099999V0203001N003019999999N9999999N1-00861-01311101261ADDMA1999999101121MD1310181+9999REMSYN060AAXX  09011 01024 46/// /3003 11086 21131 30112 40126 53018;
0101010240999992013010902004+78656+016360FM-12+002099999V0203101N004019999999N9999999N1-00891-01351101301ADDMA1999999101161MD1210121+9999REMSYN060AAXX  09021 01024 46/// /3104 11089 21135 30116 40130 52012;
0101010240999992013010903004+78656+016360FM-12+002099999V0203201N001019999999N9999999N1-00971-01381101321ADDMA1999999101191MD1210121+9999REMSYN060AAXX  09031 01024 46/// /3201 11097 21138 30119 40132 52012;
0101010240999992013010904004+78656+016360FM-12+002099999V0203001N003019999999N9999999N1-01001-01431101331ADDMA1999999101191MD1310071+9999REMSYN060AAXX  09041 01024 46/// /3003 11100 21143 30119 40133 53007;
0101010240999992013010905004+78656+016360FM-12+002099999V0203101N003019999999N9999999N1-01021-01451101401ADDMA1999999101261MD1110101+9999REMSYN060AAXX  09051 01024 46/// /3103 11102 21145 30126 40140 51010;
0101010240999992013010908004+78656+016360FM-12+002099999V0203301N002019999999N9999999N1-00861-01321101511ADDMA1999999101371MD1210121+9999REMSYN060AAXX  09081 01024 46/// /3302 11086 21132 30137 40151 52012;
0101010240999992013010909004+78656+016360FM-12+002099999V0203001N002019999999N9999999N1-01061-01471101541ADDMA1999999101401MD1310121+9999REMSYN060AAXX  09091 01024 46/// /3002 11106 21147 30140 40154 53012;
0101010240999992013010910004+78656+016360FM-12+002099999V0202901N002019999999N9999999N1-00961-01361101551ADDMA1999999101411MD1210061+9999REMSYN060AAXX  09101 01024 46/// /2902 11096 21136 30141 40155 52006;
0101010240999992013010911004+78656+016360FM-12+002099999V0201101N001019999999N9999999N1-01021-01381101541ADDMA1999999101401MD1510031+9999REMSYN060AAXX  09111 01024 46/// /1101 11102 21138 30140 40154 55003;
0101010240999992013010912004+78656+016360FM-12+002099999V0209999C000019999999N9999999N1-01011-01341101541ADDMA1999999101401MD1410001+9999REMSYN060AAXX  09121 01024 46/// /0000 11101 21134 30140 40154 54000;
0101010240999992013010913004+78656+016360FM-12+002099999V0203201N001019999999N9999999N1-00861-01241101531ADDMA1999999101391MD1410001+9999REMSYN060AAXX  09131 01024 46/// /3201 11086 21124 30139 40153 54002;
0101010240999992013010914004+78656+016360FM-12+002099999V0203001N001019999999N9999999N1-00821-01221101461ADDMA1999999101331MD1610071+9999REMSYN060AAXX  09141 01024 46/// /3001 11082 21122 30133 40146 56007;
0101010240999992013010915004+78656+016360FM-12+002099999V0203001N002019999999N9999999N1-00811-01151101431ADDMA1999999101301MD1710111+9999REMSYN060AAXX  09151 01024 46/// /3002 11081 21115 30130 40143 57011;
0101010240999992013010916004+78656+016360FM-12+002099999V0203301N001019999999N9999999N1-00731-01131101401ADDMA1999999101261MD1810131+9999REMSYN060AAXX  09161 01024 46/// /3301 11073 21113 30126 40140 58013;
0101010240999992013010917004+78656+016360FM-12+002099999V0203101N002019999999N9999999N1-00711-01071101351ADDMA1999999101221MD1710111+9999REMSYN060AAXX  09171 01024 46/// /3102 11071 21107 30122 40135 57011;
0111010240999992013010918004+78656+016360FM-12+002099999V0209999C000019999999N9999999N1-00711-01021101281ADDMA1999999101141MD1610161+9999REMSYN070AAXX  09181 01024 46/// /0000 11071 21102 30114 40128 56016 333 91103;
0101010240999992013010919004+78656+016360FM-12+002099999V0209999C000019999999N9999999N1-00611-00921101261ADDMA1999999101131MD1810141+9999REMSYN060AAXX  09191 01024 46/// /0000 11061 21092 30113 40126 58014;
0101010240999992013010920004+78656+016360FM-12+002099999V0209999C000019999999N9999999N1-00581-00881101221ADDMA1999999101081MD1810131+9999REMSYN060AAXX  09201 01024 46/// /0000 11058 21088 30108 40122 58013;
0101010240999992013010921004+78656+016360FM-12+002099999V0203301N001019999999N9999999N1-00551-00851101201ADDMA1999999101061MD1710081+9999REMSYN060AAXX  09211 01024 46/// /3301 11055 21085 30106 40120 57008;
0101010240999992013010922004+78656+016360FM-12+002099999V0200701N002019999999N9999999N1-00321-00631101221ADDMA1999999101091MD1810041+9999REMSYN060AAXX  09221 01024 46/// /0702 11032 21063 30109 40122 58004;
0101010240999992013010923004+78656+016360FM-12+002099999V0200301N001019999999N9999999N1-00341-00591101211ADDMA1999999101071MD1410001+9999REMSYN060AAXX  09231 01024 46/// /0301 11034 21059 30107 40121 54001;
0111010240999992013011000004+78656+016360FM-12+002099999V0203401N001019999999N9999999N1-00331-00591101191ADDMA1999999101051MD1510011+9999REMSYN070AAXX  10001 01024 46/// /3401 11033 21059 30105 40119 55001 333 91102;
0101010240999992013011001004+78656+016360FM-12+002099999V0203201N002019999999N9999999N1-00261-00541101131ADDMA1999999101001MD1610091+9999REMSYN060AAXX  10011 01024 46/// /3202 11026 21054 30100 40113 56009;
0101010240999992013011002004+78656+016360FM-12+002099999V0203201N001019999999N9999999N1-00311-00531101191ADDMA1999999101051MD1010021+9999REMSYN060AAXX  10021 01024 46/// /3201 11031 21053 30105 40119 50002;
0101010240999992013011003004+78656+016360FM-12+002099999V0209999C000019999999N9999999N1-00291-00511101201ADDMA1999999101061MD1010011+9999REMSYN060AAXX  10031 01024 46/// /0000 11029 21051 30106 40120 50001;
0101010240999992013011004004+78656+016360FM-12+002099999V0203201N001019999999N9999999N1-00291-00481101191ADDMA1999999101051MD1310051+9999REMSYN060AAXX  10041 01024 46/// /3201 11029 21048 30105 40119 53005;
0101010240999992013011005004+78656+016360FM-12+002099999V0203001N002019999999N9999999N1-00171-00501101171ADDMA1999999101041MD1410001+9999REMSYN060AAXX  10051 01024 46/// /3002 11017 21050 30104 40117 54002;
0130010240999992013011006004+78656+016360FM-12+002099999V0203001N003019999999N9999999N1-00221-00541101181ADDKA1999N-00711MA1999999101041MD1410001+9999REMSYN076AAXX  10061 01024 46/// /3003 11022 21054 30104 40118 54002 333 21071 91105;
0101010240999992013011007004+78656+016360FM-12+002099999V0202901N004019999999N9999999N1-00191-00581101121ADDMA1999999100991MD1610061+9999REMSYN060AAXX  10071 01024 46/// /2904 11019 21058 30099 40112 56006;
0101010240999992013011008004+78656+016360FM-12+002099999V0203301N003019999999N9999999N1-00101-00571101071ADDMA1999999100931MD1610101+9999REMSYN060AAXX  10081 01024 46/// /3303 11010 21057 30093 40107 56010;
0101010240999992013011009004+78656+016360FM-12+002099999V0203401N001019999999N9999999N1-00151-00561101011ADDMA1999999100871MD1710171+9999REMSYN060AAXX  10091 01024 46/// /3401 11015 21056 30087 40101 57017;
0101010240999992013011011004+78656+016360FM-12+002099999V0209999C000019999999N9999999N1-00161-00441100811ADDMA1999999100681MD1610261+9999REMSYN060AAXX  10111 01024 46/// /0000 11016 21044 30068 40081 56026;
0101010240999992013011012004+78656+016360FM-12+002099999V0209999C000019999999N9999999N1-00181-00331100711ADDMA1999999100581MD1710291+9999REMSYN060AAXX  10121 01024 46/// /0000 11018 21033 30058 40071 57029;
0101010240999992013011013004+78656+016360FM-12+002099999V0200601N001019999999N9999999N1-00161-00251100591ADDMA1999999100461MD1710331+9999REMSYN060AAXX  10131 01024 46/// /0601 11016 21025 30046 40059 57033;
0101010240999992013011014004+78656+016360FM-12+002099999V0202901N005019999999N9999999N1+00091-00161100491ADDMA1999999100361MD1710311+9999REMSYN060AAXX  10141 01024 46/// /2905 10009 21016 30036 40049 57031;
0101010240999992013011015004+78656+016360FM-12+002099999V0203001N006019999999N9999999N1+00111-00161100431ADDMA1999999100301MD1810281+9999REMSYN060AAXX  10151 01024 46/// /3006 10011 21016 30030 40043 58028;
0101010240999992013011016004+78656+016360FM-12+002099999V0202801N006019999999N9999999N1+00131-00161100311ADDMA1999999100181MD1710281+9999REMSYN060AAXX  10161 01024 46/// /2806 10013 21016 30018 40031 57028;
0101010240999992013011017004+78656+016360FM-12+002099999V0202901N008019999999N9999999N1+00111-00101100251ADDMA1999999100121MD1710241+9999REMSYN060AAXX  10171 01024 46/// /2908 10011 21010 30012 40025 57024;
0111010240999992013011018004+78656+016360FM-12+002099999V0203001N005019999999N9999999N1+00091-00131100211ADDMA1999999100081MD1810221+9999REMSYN070AAXX  10181 01024 46/// /3005 10009 21013 30008 40021 58022 333 91109;
0101010240999992013011019004+78656+016360FM-12+002099999V0202501N007019999999N9999999N1+00161-00181100091ADDMA1999999099961MD1610221+9999REMSYN060AAXX  10191 01024 46/// /2507 10016 21018 39996 40009 56022;
0101010240999992013011020004+78656+016360FM-12+002099999V0202601N008019999999N9999999N1+00171-00211099991ADDMA1999999099861MD1610261+9999REMSYN060AAXX  10201 01024 46/// /2608 10017 21021 39986 49999 56026;
0101010240999992013011021004+78656+016360FM-12+002099999V0202901N005019999999N9999999N1+00091-00151099871ADDMA1999999099741MD1710331+9999REMSYN060AAXX  10211 01024 46/// /2905 10009 21015 39974 49987 57033;
0101010240999992013011022004+78656+016360FM-12+002099999V0202901N005019999999N9999999N1+00101-00111099751ADDMA1999999099621MD1710351+9999REMSYN060AAXX  10221 01024 46/// /2905 10010 21011 39962 49975 57035;
0101010240999992013011023004+78656+016360FM-12+002099999V0203001N006019999999N9999999N1+00151-00071099591ADDMA1999999099461MD1610401+9999REMSYN060AAXX  10231 01024 46/// /3006 10015 21007 39946 49959 56040;
0111010240999992013011100004+78656+016360FM-12+002099999V0202901N007019999999N9999999N1+00151-00111099401ADDMA1999999099281MD1610471+9999REMSYN070AAXX  11001 01024 46/// /2907 10015 21011 39928 49940 56047 333 91112;
0101010240999992013011101004+78656+016360FM-12+002099999V0203001N008019999999N9999999N1+00141-00101099331ADDMA1999999099201MD1810411+9999REMSYN060AAXX  11011 01024 46/// /3008 10014 21010 39920 49933 58041;
0101010240999992013011103004+78656+016360FM-12+002099999V0202901N007019999999N9999999N1+00051-00321099311ADDMA1999999099181MD1710101+9999REMSYN060AAXX  11031 01024 46/// /2907 10005 21032 39918 49931 57010;
0101010240999992013011104004+78656+016360FM-12+002099999V0202801N007019999999N9999999N1+00021-00561099321ADDMA1999999099191MD1410001+9999REMSYN060AAXX  11041 01024 46/// /2807 10002 21056 39919 49932 54001;
0101010240999992013011105004+78656+016360FM-12+002099999V0202901N009019999999N9999999N1-00011-00661099301ADDMA1999999099171MD1710071+9999REMSYN060AAXX  11051 01024 46/// /2909 11001 21066 39917 49930 57007;
0101010240999992013011106004+78656+016360FM-12+002099999V0202901N008019999999N9999999N1-00041-00831099301ADDMA1999999099171MD1410001+9999REMSYN060AAXX  11061 01024 46/// /2908 11004 21083 39917 49930 54001;
0101010240999992013011107004+78656+016360FM-12+002099999V0202501N006019999999N9999999N1-00181-00741099371ADDMA1999999099231MD1110041+9999REMSYN060AAXX  11071 01024 46/// /2506 11018 21074 39923 49937 51004;
0101010240999992013011108004+78656+016360FM-12+002099999V0202901N006019999999N9999999N1-00151-00731099401ADDMA1999999099271MD1110111+9999REMSYN060AAXX  11081 01024 46/// /2906 11015 21073 39927 49940 51011;
0101010240999992013011109004+78656+016360FM-12+002099999V0203101N005019999999N9999999N1-00161-00901099491ADDMA1999999099361MD1210191+9999REMSYN060AAXX  11091 01024 46/// /3105 11016 21090 39936 49949 52019;
0101010240999992013011110004+78656+016360FM-12+002099999V0202901N009019999999N9999999N1-00431-01061099571ADDMA1999999099441MD1110201+9999REMSYN060AAXX  11101 01024 46/// /2909 11043 21106 39944 49957 51020;
0101010240999992013011111004+78656+016360FM-12+002099999V0202901N006019999999N9999999N1-00621-01241099641ADDMA1999999099511MD1210241+9999REMSYN060AAXX  11111 01024 46/// /2906 11062 21124 39951 49964 52024;
0111010240999992013011112004+78656+016360FM-12+002099999V0203101N004019999999N9999999N1-00601-01261099721ADDMA1999999099591MD1210231+9999REMSYN070AAXX  11121 01024 46/// /3104 11060 21126 39959 49972 52023 333 91111;
0101010240999992013011113004+78656+016360FM-12+002099999V0202901N006019999999N9999999N1-00631-01301099751ADDMA1999999099611MD1310171+9999REMSYN060AAXX  11131 01024 46/// /2906 11063 21130 39961 49975 53017;
0101010240999992013011114004+78656+016360FM-12+002099999V0202901N007019999999N9999999N1-00681-01201099811ADDMA1999999099681MD1210171+9999REMSYN060AAXX  11141 01024 46/// /2907 11068 21120 39968 49981 52017;
0101010240999992013011115004+78656+016360FM-12+002099999V0203101N002019999999N9999999N1-00671-01191099851ADDMA1999999099721MD1210131+9999REMSYN060AAXX  11151 01024 46/// /3102 11067 21119 39972 49985 52013;
0101010240999992013011116004+78656+016360FM-12+002099999V0202901N005019999999N9999999N1-00731-01271099881ADDMA1999999099741MD1310131+9999REMSYN060AAXX  11161 01024 46/// /2905 11073 21127 39974 49988 53013;
0101010240999992013011117004+78656+016360FM-12+002099999V0202801N005019999999N9999999N1-00791-01291099951ADDMA1999999099811MD1210131+9999REMSYN060AAXX  11171 01024 46/// /2805 11079 21129 39981 49995 52013;
0130010240999992013011118004+78656+016360FM-12+002099999V0202701N003019999999N9999999N1-00801-01221100021ADDKA1120M-00031MA1999999099891MD1110171+9999REMSYN076AAXX  11181 01024 46/// /2703 11080 21122 39989 40002 51017 333 11003 91110;
0101010240999992013011119004+78656+016360FM-12+002099999V0202701N007019999999N9999999N1-00801-01161100071ADDMA1999999099941MD1210191+9999REMSYN060AAXX  11191 01024 46/// /2707 11080 21116 39994 40007 52019;
0101010240999992013011120004+78656+016360FM-12+002099999V0202901N007019999999N9999999N1-00771-01101100161ADDMA1999999100021MD1210211+9999REMSYN060AAXX  11201 01024 46/// /2907 11077 21110 30002 40016 52021;
0101010240999992013011121004+78656+016360FM-12+002099999V0203001N005019999999N9999999N1-00741-01141100281ADDMA1999999100151MD1110261+9999REMSYN060AAXX  11211 01024 46/// /3005 11074 21114 30015 40028 51026;
0101010240999992013011122004+78656+016360FM-12+002099999V0203101N005019999999N9999999N1-00681-01311100381ADDMA1999999100251MD1210311+9999REMSYN060AAXX  11221 01024 46/// /3105 11068 21131 30025 40038 52031;
0101010240999992013011123004+78656+016360FM-12+002099999V0203101N004019999999N9999999N1-00681-01351100491ADDMA1999999100361MD1210341+9999REMSYN060AAXX  11231 01024 46/// /3104 11068 21135 30036 40049 52034;
0111010240999992013011200004+78656+016360FM-12+002099999V0202901N005019999999N9999999N1-00711-01321100571ADDMA1999999100431MD1210291+9999REMSYN070AAXX  12001 01024 46/// /2905 11071 21132 30043 40057 52029 333 91110;
0101010240999992013011201004+78656+016360FM-12+002099999V0209999C000019999999N9999999N1-00711-01251100691ADDMA1999999100551MD1210301+9999REMSYN060AAXX  12011 01024 46/// /0000 11071 21125 30055 40069 52030;
0101010240999992013011202004+78656+016360FM-12+002099999V0209999C000019999999N9999999N1-00681-01311100771ADDMA1999999100631MD1210281+9999REMSYN060AAXX  12021 01024 46/// /0000 11068 21131 30063 40077 52028;
0101010240999992013011203004+78656+016360FM-12+002099999V0203101N003019999999N9999999N1-00701-01311100891ADDMA1999999100751MD1210321+9999REMSYN060AAXX  12031 01024 46/// /3103 11070 21131 30075 40089 52032;
0101010240999992013011204004+78656+016360FM-12+002099999V0203201N001019999999N9999999N1-00841-01341100991ADDMA1999999100851MD1210301+9999REMSYN060AAXX  12041 01024 46/// /3201 11084 21134 30085 40099 52030;
0101010240999992013011205004+78656+016360FM-12+002099999V0200101N001019999999N9999999N1-00721-01141101061ADDMA1999999100921MD1310291+9999REMSYN060AAXX  12051 01024 46/// /0101 11072 21114 30092 40106 53029;
0101010240999992013011208004+78656+016360FM-12+002099999V0203101N001019999999N9999999N1-00941-01401101301ADDMA1999999101161MD1210241+9999REMSYN060AAXX  12081 01024 46/// /3101 11094 21140 30116 40130 52024;
0101010240999992013011209004+78656+016360FM-12+002099999V0203201N002019999999N9999999N1-00851-01421101371ADDMA1999999101241MD1210231+9999REMSYN060AAXX  12091 01024 46/// /3202 11085 21142 30124 40137 52023;
0101010240999992013011210004+78656+016360FM-12+002099999V0209999C000019999999N9999999N1-00961-01441101431ADDMA1999999101301MD1210211+9999REMSYN060AAXX  12101 01024 46/// /0000 11096 21144 30130 40143 52021;
0101010240999992013011211004+78656+016360FM-12+002099999V0203201N001019999999N9999999N1-00961-01511101481ADDMA1999999101351MD1210191+9999REMSYN060AAXX  12111 01024 46/// /3201 11096 21151 30135 40148 52019;
0101010240999992013011212004+78656+016360FM-12+002099999V0200601N001019999999N9999999N1-01051-01491101531ADDMA1999999101391MD1210161+9999REMSYN060AAXX  12121 01024 46/// /0601 11105 21149 30139 40153 52016;
0101010240999992013011213004+78656+016360FM-12+002099999V0203001N001019999999N9999999N1-01101-01541101581ADDMA1999999101441MD1210141+9999REMSYN060AAXX  12131 01024 46/// /3001 11110 21154 30144 40158 52014;
0101010240999992013011214004+78656+016360FM-12+002099999V0203601N002019999999N9999999N1-00941-01541101601ADDMA1999999101461MD1210111+9999REMSYN060AAXX  12141 01024 46/// /3602 11094 21154 30146 40160 52011;
0101010240999992013011215004+78656+016360FM-12+002099999V0200101N001019999999N9999999N1-00981-01561101621ADDMA1999999101491MD1210091+9999REMSYN060AAXX  12151 01024 46/// /0101 11098 21156 30149 40162 52009;
0101010240999992013011216004+78656+016360FM-12+002099999V0203501N001019999999N9999999N1-00991-01651101651ADDMA1999999101511MD1210071+9999REMSYN060AAXX  12161 01024 46/// /3501 11099 21165 30151 40165 52007;
0101010240999992013011217004+78656+016360FM-12+002099999V0203601N001019999999N9999999N1-01051-01741101681ADDMA1999999101541MD1210091+9999REMSYN060AAXX  12171 01024 46/// /3601 11105 21174 30154 40168 52009;
0111010240999992013011218004+78656+016360FM-12+002099999V0203201N002019999999N9999999N1-01101-01811101681ADDMA1999999101551MD1210061+9999REMSYN070AAXX  12181 01024 46/// /3202 11110 21181 30155 40168 52006 333 91103;
0101010240999992013011219004+78656+016360FM-12+002099999V0203101N002019999999N9999999N1-01041-01801101721ADDMA1999999101581MD1210081+9999REMSYN060AAXX  12191 01024 46/// /3102 11104 21180 30158 40172 52008;
0101010240999992013011220004+78656+016360FM-12+002099999V0203001N004019999999N9999999N1-01111-01821101741ADDMA1999999101601MD1210061+9999REMSYN060AAXX  12201 01024 46/// /3004 11111 21182 30160 40174 52006;
0101010240999992013011221004+78656+016360FM-12+002099999V0203301N003019999999N9999999N1-01151-01841101771ADDMA1999999101631MD1210081+9999REMSYN060AAXX  12211 01024 46/// /3303 11115 21184 30163 40177 52008;
0101010240999992013011222004+78656+016360FM-12+002099999V0203101N002019999999N9999999N1-01141-01871101791ADDMA1999999101651MD1210061+9999REMSYN060AAXX  12221 01024 46/// /3102 11114 21187 30165 40179 52006;
0101010240999992013011223004+78656+016360FM-12+002099999V0203001N003019999999N9999999N1-01131-01901101801ADDMA1999999101671MD1210061+9999REMSYN060AAXX  12231 01024 46/// /3003 11113 21190 30167 40180 52006;
0111010240999992013011300004+78656+016360FM-12+002099999V0203201N002019999999N9999999N1-00981-01871101821ADDMA1999999101681MD1210051+9999REMSYN070AAXX  13001 01024 46/// /3202 11098 21187 30168 40182 52005 333 91105;
0101010240999992013011301004+78656+016360FM-12+002099999V0202901N002019999999N9999999N1-01061-01931101831ADDMA1999999101691MD1210051+9999REMSYN060AAXX  13011 01024 46/// /2902 11106 21193 30169 40183 52005;
0101010240999992013011302004+78656+016360FM-12+002099999V0203001N003019999999N9999999N1-01151-01941101851ADDMA1999999101711MD1210041+9999REMSYN060AAXX  13021 01024 46/// /3003 11115 21194 30171 40185 52004;
0101010240999992013011303004+78656+016360FM-12+002099999V0203001N003019999999N9999999N1-01171-01961101861ADDMA1999999101721MD1210041+9999REMSYN060AAXX  13031 01024 46/// /3003 11117 21196 30172 40186 52004;
0101010240999992013011304004+78656+016360FM-12+002099999V0203001N003019999999N9999999N1-01161-02001101901ADDMA1999999101761MD1210071+9999REMSYN060AAXX  13041 01024 46/// /3003 11116 21200 30176 40190 52007;
0101010240999992013011305004+78656+016360FM-12+002099999V0203101N003019999999N9999999N1-01231-01981101911ADDMA1999999101771MD1210061+9999REMSYN060AAXX  13051 01024 46/// /3103 11123 21198 30177 40191 52006;
0130010240999992013011306004+78656+016360FM-12+002099999V0200701N002019999999N9999999N1-00941-01811101911ADDKA1999N-01291MA1999999101771MD1310051+9999REMSYN076AAXX  13061 01024 46/// /0702 11094 21181 30177 40191 53005 333 21129 91105;
0101010240999992013011307004+78656+016360FM-12+002099999V0202901N003019999999N9999999N1-01101-01901101921ADDMA1999999101781MD1410001+9999REMSYN060AAXX  13071 01024 46/// /2903 11110 21190 30178 40192 54002;
0101010240999992013011308004+78656+016360FM-12+002099999V0203101N002019999999N9999999N1-01061-01811101941ADDMA1999999101801MD1210031+9999REMSYN060AAXX  13081 01024 46/// /3102 11106 21181 30180 40194 52003;
0101010240999992013011310004+78656+016360FM-12+002099999V0203601N003019999999N9999999N1-01071-01821101991ADDMA1999999101851MD1210061+9999REMSYN060AAXX  13101 01024 46/// /3603 11107 21182 30185 40199 52006;
0101010240999992013011311004+78656+016360FM-12+002099999V0201301N002019999999N9999999N1-01181-01831102031ADDMA1999999101891MD1210081+9999REMSYN060AAXX  13111 01024 46/// /1302 11118 21183 30189 40203 52008;
0101010240999992013011312004+78656+016360FM-12+002099999V0202501N004019999999N9999999N1-01261-01901102041ADDMA1999999101901MD1210091+9999REMSYN060AAXX  13121 01024 46/// /2504 11126 21190 30190 40204 52009;
0101010240999992013011313004+78656+016360FM-12+002099999V0200301N001019999999N9999999N1-01141-01791102081ADDMA1999999101941MD1210091+9999REMSYN060AAXX  13131 01024 46/// /0301 11114 21179 30194 40208 52009;
0101010240999992013011314004+78656+016360FM-12+002099999V0203201N001019999999N9999999N1-01251-01781102081ADDMA1999999101941MD1210051+9999REMSYN060AAXX  13141 01024 46/// /3201 11125 21178 30194 40208 52005;
0101010240999992013011315004+78656+016360FM-12+002099999V0201501N001019999999N9999999N1-01301-01851102111ADDMA1999999101971MD1210071+9999REMSYN060AAXX  13151 01024 46/// /1501 11130 21185 30197 40211 52007;
0101010240999992013011316004+78656+016360FM-12+002099999V0200801N001019999999N9999999N1-01291-01771102131ADDMA1999999101991MD1210051+9999REMSYN060AAXX  13161 01024 46/// /0801 11129 21177 30199 40213 52005;
0101010240999992013011317004+78656+016360FM-12+002099999V0203501N002019999999N9999999N1-01261-01781102121ADDMA1999999101981MD1310041+9999REMSYN060AAXX  13171 01024 46/// /3502 11126 21178 30198 40212 53004;
0111010240999992013011318004+78656+016360FM-12+002099999V0203301N001019999999N9999999N1-01241-01741102101ADDMA1999999101961MD1510011+9999REMSYN070AAXX  13181 01024 46/// /3301 11124 21174 30196 40210 55001 333 91105;
0101010240999992013011319004+78656+016360FM-12+002099999V0203301N002019999999N9999999N1-01191-01731102121ADDMA1999999101981MD1410001+9999REMSYN060AAXX  13191 01024 46/// /3302 11119 21173 30198 40212 54001;
0101010240999992013011320004+78656+016360FM-12+002099999V0203001N001019999999N9999999N1-01241-01741102141ADDMA1999999102001MD1010021+9999REMSYN060AAXX  13201 01024 46/// /3001 11124 21174 30200 40214 50002;
0101010240999992013011321004+78656+016360FM-12+002099999V0203001N002019999999N9999999N1-01321-01821102151ADDMA1999999102011MD1210061+9999REMSYN060AAXX  13211 01024 46/// /3002 11132 21182 30201 40215 52006;
0101010240999992013011322004+78656+016360FM-12+002099999V0202701N002019999999N9999999N1-01301-01821102161ADDMA1999999102021MD1210051+9999REMSYN060AAXX  13221 01024 46/// /2702 11130 21182 30202 40216 52005;
0101010240999992013011323004+78656+016360FM-12+002099999V0203001N001019999999N9999999N1-01241-01781102201ADDMA1999999102061MD1210071+9999REMSYN060AAXX  13231 01024 46/// /3001 11124 21178 30206 40220 52007;
0111010240999992013011400004+78656+016360FM-12+002099999V0203301N001019999999N9999999N1-01091-01581102211ADDMA1999999102071MD1210061+9999REMSYN070AAXX  14001 01024 46/// /3301 11109 21158 30207 40221 52006 333 91105;
0101010240999992013011401004+78656+016360FM-12+002099999V0209999C000019999999N9999999N1-01221-01671102231ADDMA1999999102091MD1210061+9999REMSYN060AAXX  14011 01024 46/// /0000 11122 21167 30209 40223 52006;
0101010240999992013011402004+78656+016360FM-12+002099999V0203201N001019999999N9999999N1-01311-01811102211ADDMA1999999102071MD1410001+9999REMSYN060AAXX  14021 01024 46/// /3201 11131 21181 30207 40221 54001;
0101010240999992013011403004+78656+016360FM-12+002099999V0203501N001019999999N9999999N1-01211-01631102221ADDMA1999999102081MD1410001+9999REMSYN060AAXX  14031 01024 46/// /3501 11121 21163 30208 40222 54001;
0101010240999992013011404004+78656+016360FM-12+002099999V0203201N001019999999N9999999N1-01421-01821102221ADDMA1999999102081MD1410001+9999REMSYN060AAXX  14041 01024 46/// /3201 11142 21182 30208 40222 54001;
0101010240999992013011405004+78656+016360FM-12+002099999V0203501N002019999999N9999999N1-01261-01731102221ADDMA1999999102081MD1410001+9999REMSYN060AAXX  14051 01024 46/// /3502 11126 21173 30208 40222 54001;
0130010240999992013011406004+78656+016360FM-12+002099999V0203201N001019999999N9999999N1-01281-01781102251ADDKA1999N-01511MA1999999102111MD1210031+9999REMSYN076AAXX  14061 01024 46/// /3201 11128 21178 30211 40225 52003 333 21151 91107;
0101010240999992013011407004+78656+016360FM-12+002099999V0203001N001019999999N9999999N1-01461-01901102241ADDMA1999999102101MD1410001+9999REMSYN060AAXX  14071 01024 46/// /3001 11146 21190 30210 40224 54002;
0101010240999992013011408004+78656+016360FM-12+002099999V0200101N001019999999N9999999N1-01171-01691102281ADDMA1999999102141MD1210061+9999REMSYN060AAXX  14081 01024 46/// /0101 11117 21169 30214 40228 52006;
0101010240999992013011409004+78656+016360FM-12+002099999V0203101N002019999999N9999999N1-01331-01761102331ADDMA1999999102191MD1110081+9999REMSYN060AAXX  14091 01024 46/// /3102 11133 21176 30219 40233 51008;
0101010240999992013011410004+78656+016360FM-12+002099999V0203301N001019999999N9999999N1-01271-01741102351ADDMA1999999102211MD1210111+9999REMSYN060AAXX  14101 01024 46/// /3301 11127 21174 30221 40235 52011;
0101010240999992013011411004+78656+016360FM-12+002099999V0203601N001019999999N9999999N1-01301-01751102371ADDMA1999999102231MD1210091+9999REMSYN060AAXX  14111 01024 46/// /3601 11130 21175 30223 40237 52009;
0111010240999992013011412004+78656+016360FM-12+002099999V0203201N001019999999N9999999N1-01361-01791102381ADDMA1999999102241MD1210051+9999REMSYN070AAXX  14121 01024 46/// /3201 11136 21179 30224 40238 52005 333 91103;
0101010240999992013011413004+78656+016360FM-12+002099999V0203101N001019999999N9999999N1-01511-01941102411ADDMA1999999102271MD1210061+9999REMSYN060AAXX  14131 01024 46/// /3101 11151 21194 30227 40241 52006;
0101010240999992013011414004+78656+016360FM-12+002099999V0209999C000019999999N9999999N1-01331-01761102421ADDMA1999999102281MD1210051+9999REMSYN060AAXX  14141 01024 46/// /0000 11133 21176 30228 40242 52005;
0101010240999992013011415004+78656+016360FM-12+002099999V0203201N001019999999N9999999N1-01271-01741102431ADDMA1999999102291MD1210051+9999REMSYN060AAXX  14151 01024 46/// /3201 11127 21174 30229 40243 52005;
0101010240999992013011416004+78656+016360FM-12+002099999V0203001N001019999999N9999999N1-01451-01851102421ADDMA1999999102281MD1410001+9999REMSYN060AAXX  14161 01024 46/// /3001 11145 21185 30228 40242 54001;
0101010240999992013011417004+78656+016360FM-12+002099999V0209999C000019999999N9999999N1-01381-01811102431ADDMA1999999102291MD1410001+9999REMSYN060AAXX  14171 01024 46/// /0000 11138 21181 30229 40243 54001;
0130010240999992013011418004+78656+016360FM-12+002099999V0203101N001019999999N9999999N1-01361-01841102431ADDKA1120M-01081MA1999999102291MD1410001+9999REMSYN076AAXX  14181 01024 46/// /3101 11136 21184 30229 40243 54001 333 11108 91102;
0101010240999992013011419004+78656+016360FM-12+002099999V0200201N001019999999N9999999N1-01311-01861102401ADDMA1999999102261MD1510021+9999REMSYN060AAXX  14191 01024 46/// /0201 11131 21186 30226 40240 55002;
0101010240999992013011420004+78656+016360FM-12+002099999V0203201N001019999999N9999999N1-01381-01881102391ADDMA1999999102241MD1710051+9999REMSYN060AAXX  14201 01024 46/// /3201 11138 21188 30224 40239 57005;
0101010240999992013011421004+78656+016360FM-12+002099999V0209999C000019999999N9999999N1-01431-01891102381ADDMA1999999102231MD1710051+9999REMSYN060AAXX  14211 01024 46/// /0000 11143 21189 30223 40238 57005;
0101010240999992013011422004+78656+016360FM-12+002099999V0209999C000019999999N9999999N1-01391-01901102351ADDMA1999999102211MD1710051+9999REMSYN060AAXX  14221 01024 46/// /0000 11139 21190 30221 40235 57005;
0101010240999992013011423004+78656+016360FM-12+002099999V0209999C000019999999N9999999N1-01451-01961102341ADDMA1999999102201MD1710041+9999REMSYN060AAXX  14231 01024 46/// /0000 11145 21196 30220 40234 57004;
0111010240999992013011500004+78656+016360FM-12+002099999V0203201N001019999999N9999999N1-01371-01871102321ADDMA1999999102181MD1710051+9999REMSYN070AAXX  15001 01024 46/// /3201 11137 21187 30218 40232 57005 333 91102;
0101010240999992013011501004+78656+016360FM-12+002099999V0209999C000019999999N9999999N1-01331-01841102311ADDMA1999999102171MD1710051+9999REMSYN060AAXX  15011 01024 46/// /0000 11133 21184 30217 40231 57005;
0101010240999992013011502004+78656+016360FM-12+002099999V0209999C000019999999N9999999N1-01291-01791102281ADDMA1999999102141MD1710061+9999REMSYN060AAXX  15021 01024 46/// /0000 11129 21179 30214 40228 57006;
0101010240999992013011503004+78656+016360FM-12+002099999V0203101N001019999999N9999999N1-01401-01861102251ADDMA1999999102111MD1710081+9999REMSYN060AAXX  15031 01024 46/// /3101 11140 21186 30211 40225 57008;
0101010240999992013011504004+78656+016360FM-12+002099999V0209999C000019999999N9999999N1-01561-02021102201ADDMA1999999102061MD1710101+9999REMSYN060AAXX  15041 01024 46/// /0000 11156 21202 30206 40220 57010;
0101010240999992013011505004+78656+016360FM-12+002099999V0209999C000019999999N9999999N1-01471-02031102171ADDMA1999999102031MD1710121+9999REMSYN060AAXX  15051 01024 46/// /0000 11147 21203 30203 40217 57012;
0101010240999992013011507004+78656+016360FM-12+002099999V0203401N001019999999N9999999N1-01341-01841102081ADDMA1999999101941MD1710121+9999REMSYN060AAXX  15071 01024 46/// /3401 11134 21184 30194 40208 57012;
0101010240999992013011508004+78656+016360FM-12+002099999V0200301N001019999999N9999999N1-01161-01751102061ADDMA1999999101921MD1710101+9999REMSYN060AAXX  15081 01024 46/// /0301 11116 21175 30192 40206 57010;
0101010240999992013011509004+78656+016360FM-12+002099999V0209999C000019999999N9999999N1-01201-01721102041ADDMA1999999101901MD1710091+9999REMSYN060AAXX  15091 01024 46/// /0000 11120 21172 30190 40204 57009;
0101010240999992013011510004+78656+016360FM-12+002099999V0203201N001019999999N9999999N1-01221-01761102011ADDMA1999999101871MD1710061+9999REMSYN060AAXX  15101 01024 46/// /3201 11122 21176 30187 40201 57006;
0101010240999992013011511004+78656+016360FM-12+002099999V0203201N001019999999N9999999N1-01221-01761101971ADDMA1999999101831MD1710101+9999REMSYN060AAXX  15111 01024 46/// /3201 11122 21176 30183 40197 57010;
0111010240999992013011512004+78656+016360FM-12+002099999V0201001N001019999999N9999999N1-01251-01731101931ADDMA1999999101791MD1710111+9999REMSYN070AAXX  15121 01024 46/// /1001 11125 21173 30179 40193 57011 333 91103;
0101010240999992013011513004+78656+016360FM-12+002099999V0209999C000019999999N9999999N1-01181-01771101881ADDMA1999999101741MD1710131+9999REMSYN060AAXX  15131 01024 46/// /0000 11118 21177 30174 40188 57013;
0101010240999992013011514004+78656+016360FM-12+002099999V0203301N001019999999N9999999N1-01271-01791101831ADDMA1999999101691MD1710141+9999REMSYN060AAXX  15141 01024 46/// /3301 11127 21179 30169 40183 57014;
0101010240999992013011515004+78656+016360FM-12+002099999V0209999C000019999999N9999999N1-01371-01871101741ADDMA1999999101601MD1610191+9999REMSYN060AAXX  15151 01024 46/// /0000 11137 21187 30160 40174 56019;
0101010240999992013011516004+78656+016360FM-12+002099999V0203301N001019999999N9999999N1-01271-01841101681ADDMA1999999101541MD1710201+9999REMSYN060AAXX  15161 01024 46/// /3301 11127 21184 30154 40168 57020;
0101010240999992013011517004+78656+016360FM-12+002099999V0200701N001019999999N9999999N1-01431-01911101631ADDMA1999999101491MD1810191+9999REMSYN060AAXX  15171 01024 46/// /0701 11143 21191 30149 40163 58019;
0130010240999992013011518004+78656+016360FM-12+002099999V0203101N001019999999N9999999N1-01201-01851101561ADDKA1120M-01131MA1999999101421MD1710181+9999REMSYN076AAXX  15181 01024 46/// /3101 11120 21185 30142 40156 57018 333 11113 91102;
0101010240999992013011519004+78656+016360FM-12+002099999V0203101N001019999999N9999999N1-01221-01791101461ADDMA1999999101321MD1610221+9999REMSYN060AAXX  15191 01024 46/// /3101 11122 21179 30132 40146 56022;
0101010240999992013011520004+78656+016360FM-12+002099999V0203101N002019999999N9999999N1-01051-01701101371ADDMA1999999101231MD1710261+9999REMSYN060AAXX  15201 01024 46/// /3102 11105 21170 30123 40137 57026;
0101010240999992013011521004+78656+016360FM-12+002099999V0203401N001019999999N9999999N1-00991-01611101291ADDMA1999999101151MD1710271+9999REMSYN060AAXX  15211 01024 46/// /3401 11099 21161 30115 40129 57027;
0101010240999992013011522004+78656+016360FM-12+002099999V0203401N001019999999N9999999N1-00951-01501101191ADDMA1999999101051MD1710271+9999REMSYN060AAXX  15221 01024 46/// /3401 11095 21150 30105 40119 57027;
0101010240999992013011523004+78656+016360FM-12+002099999V0203101N001019999999N9999999N1-00971-01451101091ADDMA1999999100951MD1710281+9999REMSYN060AAXX  15231 01024 46/// /3101 11097 21145 30095 40109 57028;
0111010240999992013011600004+78656+016360FM-12+002099999V0203101N001019999999N9999999N1-00911-01361100941ADDMA1999999100811MD1610341+9999REMSYN070AAXX  16001 01024 46/// /3101 11091 21136 30081 40094 56034 333 91104;
0101010240999992013011601004+78656+016360FM-12+002099999V0203301N002019999999N9999999N1-00651-01211100881ADDMA1999999100741MD1810311+9999REMSYN060AAXX  16011 01024 46/// /3302 11065 21121 30074 40088 58031;
0101010240999992013011602004+78656+016360FM-12+002099999V0203001N002019999999N9999999N1-00791-01061100771ADDMA1999999100641MD1810311+9999REMSYN060AAXX  16021 01024 46/// /3002 11079 21106 30064 40077 58031;
0101010240999992013011603004+78656+016360FM-12+002099999V0209999C000019999999N9999999N1-00751-00901100691ADDMA1999999100561MD1710251+9999REMSYN060AAXX  16031 01024 46/// /0000 11075 21090 30056 40069 57025;
0101010240999992013011604004+78656+016360FM-12+002099999V0200801N007019999999N9999999N1-00531-00701100581ADDMA1999999100451MD1710291+9999REMSYN060AAXX  16041 01024 46/// /0807 11053 21070 30045 40058 57029;
0101010240999992013011605004+78656+016360FM-12+002099999V0200801N007019999999N9999999N1-00521-00671100501ADDMA1999999100361MD1710271+9999REMSYN060AAXX  16051 01024 46/// /0807 11052 21067 30036 40050 57027;
0130010240999992013011606004+78656+016360FM-12+002099999V0200801N007019999999N9999999N1-00511-00671100421ADDKA1999N-01401MA1999999100291MD1810271+9999REMSYN076AAXX  16061 01024 46/// /0807 11051 21067 30029 40042 58027 333 21140 91110;
0101010240999992013011607004+78656+016360FM-12+002099999V0200901N007019999999N9999999N1-00541-00701100371ADDMA1999999100241MD1810211+9999REMSYN060AAXX  16071 01024 46/// /0907 11054 21070 30024 40037 58021;
0101010240999992013011608004+78656+016360FM-12+002099999V0200901N007019999999N9999999N1-00501-00721100311ADDMA1999999100181MD1710181+9999REMSYN060AAXX  16081 01024 46/// /0907 11050 21072 30018 40031 57018;
0101010240999992013011610004+78656+016360FM-12+002099999V0200901N006019999999N9999999N1-00461-00841100291ADDMA1999999100151MD1810081+9999REMSYN060AAXX  16101 01024 46/// /0906 11046 21084 30015 40029 58008;
0101010240999992013011612004+78656+016360FM-12+002099999V0203201N001019999999N9999999N1-00521-00751100311ADDMA1999999100181MD1010021+9999REMSYN060AAXX  16121 01024 46/// /3201 11052 21075 30018 40031 50002;
0101010240999992013011613004+78656+016360FM-12+002099999V0203001N001019999999N9999999N1-00581-00741100311ADDMA1999999100181MD1410001+9999REMSYN060AAXX  16131 01024 46/// /3001 11058 21074 30018 40031 54002;
0101010240999992013011614004+78656+016360FM-12+002099999V0203201N001019999999N9999999N1-00601-00711100311ADDMA1999999100181MD1410001+9999REMSYN060AAXX  16141 01024 46/// /3201 11060 21071 30018 40031 54002;
0101010240999992013011615004+78656+016360FM-12+002099999V0202801N002019999999N9999999N1-00641-00761100311ADDMA1999999100181MD1410001+9999REMSYN060AAXX  16151 01024 46/// /2802 11064 21076 30018 40031 54000;
0101010240999992013011616004+78656+016360FM-12+002099999V0202901N005019999999N9999999N1-00641-00971100311ADDMA1999999100181MD1410001+9999REMSYN060AAXX  16161 01024 46/// /2905 11064 21097 30018 40031 54000;
0101010240999992013011617004+78656+016360FM-12+002099999V0202901N004019999999N9999999N1-00671-01081100301ADDMA1999999100171MD1410001+9999REMSYN060AAXX  16171 01024 46/// /2904 11067 21108 30017 40030 54001;
0111010240999992013011618004+78656+016360FM-12+002099999V0203101N003019999999N9999999N1-00681-01131100311ADDMA1999999100181MD1410001+9999REMSYN070AAXX  16181 01024 46/// /3103 11068 21113 30018 40031 54000 333 91106;
0101010240999992013011619004+78656+016360FM-12+002099999V0203001N003019999999N9999999N1-00741-01161100331ADDMA1999999100201MD1010021+9999REMSYN060AAXX  16191 01024 46/// /3003 11074 21116 30020 40033 50002;
0101010240999992013011620004+78656+016360FM-12+002099999V0202901N003019999999N9999999N1-00721-01211100351ADDMA1999999100211MD1210051+9999REMSYN060AAXX  16201 01024 46/// /2903 11072 21121 30021 40035 52005;
0101010240999992013011621004+78656+016360FM-12+002099999V0203001N003019999999N9999999N1-00771-01221100361ADDMA1999999100231MD1210051+9999REMSYN060AAXX  16211 01024 46/// /3003 11077 21122 30023 40036 52005;
0101010240999992013011622004+78656+016360FM-12+002099999V0202901N002019999999N9999999N1-00771-01321100361ADDMA1999999100221MD1410001+9999REMSYN060AAXX  16221 01024 46/// /2902 11077 21132 30022 40036 54002;
0101010240999992013011623004+78656+016360FM-12+002099999V0203301N002019999999N9999999N1-00731-01341100361ADDMA1999999100231MD1410001+9999REMSYN060AAXX  16231 01024 46/// /3302 11073 21134 30023 40036 54001;
0111010240999992013011700004+78656+016360FM-12+002099999V0203301N002019999999N9999999N1-00731-01321100361ADDMA1999999100231MD1410001+9999REMSYN070AAXX  17001 01024 46/// /3302 11073 21132 30023 40036 54000 333 91105;
0101010240999992013011701004+78656+016360FM-12+002099999V0200601N003019999999N9999999N1-00721-01121100341ADDMA1999999100211MD1410001+9999REMSYN060AAXX  17011 01024 46/// /0603 11072 21112 30021 40034 54001;
0101010240999992013011703004+78656+016360FM-12+002099999V0203501N001019999999N9999999N1-00821-01241100301ADDMA1999999100161MD1710061+9999REMSYN060AAXX  17031 01024 46/// /3501 11082 21124 30016 40030 57006;
0101010240999992013011704004+78656+016360FM-12+002099999V0200801N003019999999N9999999N1-00721-01301100261ADDMA1999999100131MD1710081+9999REMSYN060AAXX  17041 01024 46/// /0803 11072 21130 30013 40026 57008;
0101010240999992013011705004+78656+016360FM-12+002099999V0203301N001019999999N9999999N1-00821-01291100231ADDMA1999999100091MD1710101+9999REMSYN060AAXX  17051 01024 46/// /3301 11082 21129 30009 40023 57010;
0101010240999992013011707004+78656+016360FM-12+002099999V0202801N001019999999N9999999N1-00961-01371100231ADDMA1999999100091MD1810041+9999REMSYN060AAXX  17071 01024 46/// /2801 11096 21137 30009 40023 58004;
0101010240999992013011708004+78656+016360FM-12+002099999V0203401N001019999999N9999999N1-00841-01431100221ADDMA1999999100081MD1410001+9999REMSYN060AAXX  17081 01024 46/// /3401 11084 21143 30008 40022 54001;
0101010240999992013011709004+78656+016360FM-12+002099999V0209999C000019999999N9999999N1-00861-01451100231ADDMA1999999100091MD1410001+9999REMSYN060AAXX  17091 01024 46/// /0000 11086 21145 30009 40023 54001;
0101010240999992013011710004+78656+016360FM-12+002099999V0209999C000019999999N9999999N1-00901-01471100211ADDMA1999999100081MD1410001+9999REMSYN060AAXX  17101 01024 46/// /0000 11090 21147 30008 40021 54001;
0101010240999992013011711004+78656+016360FM-12+002099999V0200601N001019999999N9999999N1-01121-01661100231ADDMA1999999100091MD1410001+9999REMSYN060AAXX  17111 01024 46/// /0601 11112 21166 30009 40023 54001;
0111010240999992013011712004+78656+016360FM-12+002099999V0203001N001019999999N9999999N1-01191-01711100221ADDMA1999999100081MD1410001+9999REMSYN070AAXX  17121 01024 46/// /3001 11119 21171 30008 40022 54001 333 91103;
0101010240999992013011713004+78656+016360FM-12+002099999V0209999C000019999999N9999999N1-00971-01501100181ADDMA1999999100051MD1510031+9999REMSYN060AAXX  17131 01024 46/// /0000 11097 21150 30005 40018 55003;
0101010240999992013011714004+78656+016360FM-12+002099999V0202901N002019999999N9999999N1-00831-01481100141ADDMA1999999100011MD1610081+9999REMSYN060AAXX  17141 01024 46/// /2902 11083 21148 30001 40014 56008;
0101010240999992013011715004+78656+016360FM-12+002099999V0200701N002019999999N9999999N1-00661-01371100111ADDMA1999999099971MD1710111+9999REMSYN060AAXX  17151 01024 46/// /0702 11066 21137 39997 40011 57011;
0101010240999992013011716004+78656+016360FM-12+002099999V0200401N004019999999N9999999N1-00741-01411100121ADDMA1999999099991MD1810061+9999REMSYN060AAXX  17161 01024 46/// /0404 11074 21141 39999 40012 58006;
0101010240999992013011717004+78656+016360FM-12+002099999V0200401N004019999999N9999999N1-00751-01501100111ADDMA1999999099971MD1710031+9999REMSYN060AAXX  17171 01024 46/// /0404 11075 21150 39997 40011 57003;
0130010240999992013011718004+78656+016360FM-12+002099999V0203301N001019999999N9999999N1-01091-01611100111ADDKA1120M-00641MA1999999099981MD1410001+9999REMSYN076AAXX  17181 01024 46/// /3301 11109 21161 39998 40011 54001 333 11064 91106;
0101010240999992013011719004+78656+016360FM-12+002099999V0202801N001019999999N9999999N1-01331-01791100101ADDMA1999999099961MD1410001+9999REMSYN060AAXX  17191 01024 46/// /2801 11133 21179 39996 40010 54003;
0101010240999992013011720004+78656+016360FM-12+002099999V0200301N001019999999N9999999N1-01001-01601100071ADDMA1999999099931MD1610041+9999REMSYN060AAXX  17201 01024 46/// /0301 11100 21160 39993 40007 56004;
0101010240999992013011721004+78656+016360FM-12+002099999V0202101N001019999999N9999999N1-00981-01641100061ADDMA1999999099921MD1710051+9999REMSYN060AAXX  17211 01024 46/// /2101 11098 21164 39992 40006 57005;
0101010240999992013011722004+78656+016360FM-12+002099999V0200201N005019999999N9999999N1-00571-01381099991ADDMA1999999099861MD1610101+9999REMSYN060AAXX  17221 01024 46/// /0205 11057 21138 39986 49999 56010;
0101010240999992013011723004+78656+016360FM-12+002099999V0200201N003019999999N9999999N1-00541-01301099981ADDMA1999999099851MD1710081+9999REMSYN060AAXX  17231 01024 46/// /0203 11054 21130 39985 49998 57008;
0111010240999992013011800004+78656+016360FM-12+002099999V0200301N005019999999N9999999N1-00481-01271100021ADDMA1999999099891MD1810031+9999REMSYN070AAXX  18001 01024 46/// /0305 11048 21127 39989 40002 58003 333 91109;
0101010240999992013011801004+78656+016360FM-12+002099999V0200301N005019999999N9999999N1-00471-01241100041ADDMA1999999099911MD1210051+9999REMSYN060AAXX  18011 01024 46/// /0305 11047 21124 39991 40004 52005;
0101010240999992013011802004+78656+016360FM-12+002099999V0200501N005019999999N9999999N1-00461-01211100141ADDMA1999999100001MD1110151+9999REMSYN060AAXX  18021 01024 46/// /0505 11046 21121 30000 40014 51015;
0101010240999992013011803004+78656+016360FM-12+002099999V0200401N005019999999N9999999N1-00511-01251100201ADDMA1999999100071MD1110181+9999REMSYN060AAXX  18031 01024 46/// /0405 11051 21125 30007 40020 51018;
0101010240999992013011804004+78656+016360FM-12+002099999V0200301N004019999999N9999999N1-00571-01311100301ADDMA1999999100161MD1210251+9999REMSYN060AAXX  18041 01024 46/// /0304 11057 21131 30016 40030 52025;
0101010240999992013011805004+78656+016360FM-12+002099999V0200601N006019999999N9999999N1-00621-01441100361ADDMA1999999100231MD1210221+9999REMSYN060AAXX  18051 01024 46/// /0606 11062 21144 30023 40036 52022;
0101010240999992013011807004+78656+016360FM-12+002099999V0200701N002019999999N9999999N1-00781-01551100461ADDMA1999999100331MD1210171+9999REMSYN060AAXX  18071 01024 46/// /0702 11078 21155 30033 40046 52017;
0101010240999992013011808004+78656+016360FM-12+002099999V0203101N001019999999N9999999N1-01111-01761100511ADDMA1999999100381MD1210151+9999REMSYN060AAXX  18081 01024 46/// /3101 11111 21176 30038 40051 52015;
0101010240999992013011809004+78656+016360FM-12+002099999V0202901N002019999999N9999999N1-01151-01761100581ADDMA1999999100441MD1210181+9999REMSYN060AAXX  18091 01024 46/// /2902 11115 21176 30044 40058 52018;
0101010240999992013011810004+78656+016360FM-12+002099999V0202701N001019999999N9999999N1-01261-01811100631ADDMA1999999100491MD1210161+9999REMSYN060AAXX  18101 01024 46/// /2701 11126 21181 30049 40063 52016;
0101010240999992013011811004+78656+016360FM-12+002099999V0203201N001019999999N9999999N1-01061-01641100671ADDMA1999999100541MD1210161+9999REMSYN060AAXX  18111 01024 46/// /3201 11106 21164 30054 40067 52016;
0111010240999992013011812004+78656+016360FM-12+002099999V0203001N001019999999N9999999N1-01381-01831100751ADDMA1999999100611MD1210171+9999REMSYN070AAXX  18121 01024 46/// /3001 11138 21183 30061 40075 52017 333 91107;
0101010240999992013011813004+78656+016360FM-12+002099999V0203101N001019999999N9999999N1-01261-01711100771ADDMA1999999100641MD1210151+9999REMSYN060AAXX  18131 01024 46/// /3101 11126 21171 30064 40077 52015;
0101010240999992013011814004+78656+016360FM-12+002099999V0202901N001019999999N9999999N1-01271-01771100821ADDMA1999999100691MD1210151+9999REMSYN060AAXX  18141 01024 46/// /2901 11127 21177 30069 40082 52015;
0101010240999992013011815004+78656+016360FM-12+002099999V0203401N001019999999N9999999N1-01391-01871100901ADDMA1999999100771MD1110161+9999REMSYN060AAXX  18151 01024 46/// /3401 11139 21187 30077 40090 51016;
0101010240999992013011816004+78656+016360FM-12+002099999V0203501N001019999999N9999999N1-01151-01711100951ADDMA1999999100821MD1210181+9999REMSYN060AAXX  18161 01024 46/// /3501 11115 21171 30082 40095 52018;
0101010240999992013011817004+78656+016360FM-12+002099999V0203601N001019999999N9999999N1-01181-01771101021ADDMA1999999100881MD1210201+9999REMSYN060AAXX  18171 01024 46/// /3601 11118 21177 30088 40102 52020;
0101010240999992013011819004+78656+016360FM-12+002099999V0200501N001019999999N9999999N1-01111-01721101131ADDMA1999999100991MD1210181+9999REMSYN060AAXX  18191 01024 46/// /0501 11111 21172 30099 40113 52018;
0101010240999992013011820004+78656+016360FM-12+002099999V0203501N001019999999N9999999N1-00971-01651101191ADDMA1999999101061MD1210181+9999REMSYN060AAXX  18201 01024 46/// /3501 11097 21165 30106 40119 52018;
0101010240999992013011821004+78656+016360FM-12+002099999V0200201N001019999999N9999999N1-00951-01571101271ADDMA1999999101131MD1210191+9999REMSYN060AAXX  18211 01024 46/// /0201 11095 21157 30113 40127 52019;
0101010240999992013011822004+78656+016360FM-12+002099999V0203601N001019999999N9999999N1-00911-01501101351ADDMA1999999101211MD1210221+9999REMSYN060AAXX  18221 01024 46/// /3601 11091 21150 30121 40135 52022;
0101010240999992013011823004+78656+016360FM-12+002099999V0203001N001019999999N9999999N1-00941-01421101421ADDMA1999999101281MD1210221+9999REMSYN060AAXX  18231 01024 46/// /3001 11094 21142 30128 40142 52022;
0111010240999992013011900004+78656+016360FM-12+002099999V0209999C000019999999N9999999N1-00961-01331101451ADDMA1999999101311MD1310181+9999REMSYN070AAXX  19001 01024 46/// /0000 11096 21133 30131 40145 53018 333 91104;
0101010240999992013011901004+78656+016360FM-12+002099999V0200301N001019999999N9999999N1-00981-01321101461ADDMA1999999101321MD1310111+9999REMSYN060AAXX  19011 01024 46/// /0301 11098 21132 30132 40146 53011;
0101010240999992013011902004+78656+016360FM-12+002099999V0203401N001019999999N9999999N1-01111-01401101501ADDMA1999999101361MD1210081+9999REMSYN060AAXX  19021 01024 46/// /3401 11111 21140 30136 40150 52008;
0101010240999992013011903004+78656+016360FM-12+002099999V0209999C000019999999N9999999N1-01181-01441101511ADDMA1999999101371MD1210061+9999REMSYN060AAXX  19031 01024 46/// /0000 11118 21144 30137 40151 52006;
0101010240999992013011904004+78656+016360FM-12+002099999V0209999C000019999999N9999999N1-01121-01501101541ADDMA1999999101401MD1210081+9999REMSYN060AAXX  19041 01024 46/// /0000 11112 21150 30140 40154 52008;
0101010240999992013011905004+78656+016360FM-12+002099999V0209999C000019999999N9999999N1-00941-01371101561ADDMA1999999101421MD1210061+9999REMSYN060AAXX  19051 01024 46/// /0000 11094 21137 30142 40156 52006;
0130010240999992013011906004+78656+016360FM-12+002099999V0203201N001019999999N9999999N1-01051-01431101581ADDKA1999N-01261MA1999999101441MD1210071+9999REMSYN076AAXX  19061 01024 46/// /3201 11105 21143 30144 40158 52007 333 21126 91101;
0101010240999992013011907004+78656+016360FM-12+002099999V0209999C000019999999N9999999N1-01121-01541101581ADDMA1999999101441MD1210041+9999REMSYN060AAXX  19071 01024 46/// /0000 11112 21154 30144 40158 52004;
0101010240999992013011908004+78656+016360FM-12+002099999V0202801N001019999999N9999999N1-01281-01651101611ADDMA1999999101471MD1210051+9999REMSYN060AAXX  19081 01024 46/// /2801 11128 21165 30147 40161 52005;
0101010240999992013011909004+78656+016360FM-12+002099999V0203301N001019999999N9999999N1-01211-01551101641ADDMA1999999101501MD1210061+9999REMSYN060AAXX  19091 01024 46/// /3301 11121 21155 30150 40164 52006;
0101010240999992013011912004+78656+016360FM-12+002099999V0200401N001019999999N9999999N1-01121-01451101641ADDMA1999999101501MD1410001+9999REMSYN060AAXX  19121 01024 46/// /0401 11112 21145 30150 40164 54000;
0101010240999992013011913004+78656+016360FM-12+002099999V0209999C000019999999N9999999N1-01231-01531101611ADDMA1999999101471MD1610031+9999REMSYN060AAXX  19131 01024 46/// /0000 11123 21153 30147 40161 56003;
0101010240999992013011914004+78656+016360FM-12+002099999V0209999C000019999999N9999999N1-01171-01491101601ADDMA1999999101461MD1710051+9999REMSYN060AAXX  19141 01024 46/// /0000 11117 21149 30146 40160 57005;
0101010240999992013011915004+78656+016360FM-12+002099999V0209999C000019999999N9999999N1-01151-01471101581ADDMA1999999101441MD1710061+9999REMSYN060AAXX  19151 01024 46/// /0000 11115 21147 30144 40158 57006;
0101010240999992013011916004+78656+016360FM-12+002099999V0203201N001019999999N9999999N1-01031-01331101571ADDMA1999999101431MD1710041+9999REMSYN060AAXX  19161 01024 46/// /3201 11103 21133 30143 40157 57004;
0101010240999992013011917004+78656+016360FM-12+002099999V0209999C000019999999N9999999N1-01031-01311101521ADDMA1999999101381MD1610081+9999REMSYN060AAXX  19171 01024 46/// /0000 11103 21131 30138 40152 56008;
0111010240999992013011918004+78656+016360FM-12+002099999V0203101N001019999999N9999999N1-01011-01291101461ADDMA1999999101321MD1610121+9999REMSYN070AAXX  19181 01024 46/// /3101 11101 21129 30132 40146 56012 333 91102;
0101010240999992013011919004+78656+016360FM-12+002099999V0203401N001019999999N9999999N1-01031-01311101401ADDMA1999999101271MD1710161+9999REMSYN060AAXX  19191 01024 46/// /3401 11103 21131 30127 40140 57016;
0101010240999992013011920004+78656+016360FM-12+002099999V0203201N001019999999N9999999N1-00901-01251101361ADDMA1999999101221MD1710161+9999REMSYN060AAXX  19201 01024 46/// /3201 11090 21125 30122 40136 57016;
0101010240999992013011921004+78656+016360FM-12+002099999V0209999C000019999999N9999999N1-00921-01231101331ADDMA1999999101191MD1710131+9999REMSYN060AAXX  19211 01024 46/// /0000 11092 21123 30119 40133 57013;
0101010240999992013011922004+78656+016360FM-12+002099999V0203101N001019999999N9999999N1-00951-01121101261ADDMA1999999101121MD1710151+9999REMSYN060AAXX  19221 01024 46/// /3101 11095 21112 30112 40126 57015;
0101010240999992013011923004+78656+016360FM-12+002099999V0209999C000019999999N9999999N1-00941-01111101181ADDMA1999999101041MD1610181+9999REMSYN060AAXX  19231 01024 46/// /0000 11094 21111 30104 40118 56018;
0111010240999992013012000004+78656+016360FM-12+002099999V0209999C000019999999N9999999N1-00941-01081101111ADDMA1999999100971MD1710221+9999REMSYN070AAXX  20001 01024 46/// /0000 11094 21108 30097 40111 57022 333 91105;
0101010240999992013012001004+78656+016360FM-12+002099999V0209999C000019999999N9999999N1-00921-01041101041ADDMA1999999100901MD1710221+9999REMSYN060AAXX  20011 01024 46/// /0000 11092 21104 30090 40104 57022;
0101010240999992013012002004+78656+016360FM-12+002099999V0209999C000019999999N9999999N1-00911-01041100951ADDMA1999999100811MD1710231+9999REMSYN060AAXX  20021 01024 46/// /0000 11091 21104 30081 40095 57023;
0101010240999992013012003004+78656+016360FM-12+002099999V0202701N001019999999N9999999N1-00921-01081100841ADDMA1999999100701MD1610271+9999REMSYN060AAXX  20031 01024 46/// /2701 11092 21108 30070 40084 56027;
0101010240999992013012004004+78656+016360FM-12+002099999V0203201N001019999999N9999999N1-00921-01051100751ADDMA1999999100621MD1710281+9999REMSYN060AAXX  20041 01024 46/// /3201 11092 21105 30062 40075 57028;
0101010240999992013012005004+78656+016360FM-12+002099999V0209999C000019999999N9999999N1-00891-01031100671ADDMA1999999100531MD1710281+9999REMSYN060AAXX  20051 01024 46/// /0000 11089 21103 30053 40067 57028;
0101010240999992013012007004+78656+016360FM-12+002099999V0201101N001019999999N9999999N1-00781-00881100451ADDMA1999999100321MD1710301+9999REMSYN060AAXX  20071 01024 46/// /1101 11078 21088 30032 40045 57030;
0101010240999992013012008004+78656+016360FM-12+002099999V0203201N001019999999N9999999N1-00761-00821100331ADDMA1999999100201MD1710331+9999REMSYN060AAXX  20081 01024 46/// /3201 11076 21082 30020 40033 57033;
0101010240999992013012009004+78656+016360FM-12+002099999V0209999C000019999999N9999999N1-00671-00721100261ADDMA1999999100121MD1710261+9999REMSYN060AAXX  20091 01024 46/// /0000 11067 21072 30012 40026 57026;
0101010240999992013012010004+78656+016360FM-12+002099999V0209999C000019999999N9999999N1-00631-00681100131ADDMA1999999100001MD1710321+9999REMSYN060AAXX  20101 01024 46/// /0000 11063 21068 30000 40013 57032;
0101010240999992013012011004+78656+016360FM-12+002099999V0203001N002019999999N9999999N1-00551-00601099991ADDMA1999999099851MD1610341+9999REMSYN060AAXX  20111 01024 46/// /3002 11055 21060 39985 49999 56034;
0111010240999992013012012004+78656+016360FM-12+002099999V0202701N003019999999N9999999N1-00531-00591099931ADDMA1999999099791MD1810331+9999REMSYN070AAXX  20121 01024 46/// /2703 11053 21059 39979 49993 58033 333 91104;
0101010240999992013012013004+78656+016360FM-12+002099999V0209999C000019999999N9999999N1-00521-00621099821ADDMA1999999099691MD1810311+9999REMSYN060AAXX  20131 01024 46/// /0000 11052 21062 39969 49982 58031;
0101010240999992013012014004+78656+016360FM-12+002099999V0202501N001019999999N9999999N1-00501-00611099701ADDMA1999999099561MD1610291+9999REMSYN060AAXX  20141 01024 46/// /2501 11050 21061 39956 49970 56029;
0101010240999992013012015004+78656+016360FM-12+002099999V0201001N001019999999N9999999N1-00481-00551099621ADDMA1999999099481MD1710311+9999REMSYN060AAXX  20151 01024 46/// /1001 11048 21055 39948 49962 57031;
0101010240999992013012016004+78656+016360FM-12+002099999V0200601N001019999999N9999999N1-00391-00491099561ADDMA1999999099431MD1810261+9999REMSYN060AAXX  20161 01024 46/// /0601 11039 21049 39943 49956 58026;
0101010240999992013012018004+78656+016360FM-12+002099999V0203301N004019999999N9999999N1-00471-00791099491ADDMA1999999099361MD1810121+9999REMSYN060AAXX  20181 01024 46/// /3304 11047 21079 39936 49949 58012;
0101010240999992013012019004+78656+016360FM-12+002099999V0203001N003019999999N9999999N1-00601-01021099481ADDMA1999999099341MD1810091+9999REMSYN060AAXX  20191 01024 46/// /3003 11060 21102 39934 49948 58009;
0101010240999992013012020004+78656+016360FM-12+002099999V0203001N007019999999N9999999N1-00691-01161099501ADDMA1999999099371MD1410001+9999REMSYN060AAXX  20201 01024 46/// /3007 11069 21116 39937 49950 54001;
0101010240999992013012021004+78656+016360FM-12+002099999V0203101N006019999999N9999999N1-00831-01251099541ADDMA1999999099401MD1110041+9999REMSYN060AAXX  20211 01024 46/// /3106 11083 21125 39940 49954 51004;
0101010240999992013012022004+78656+016360FM-12+002099999V0203201N005019999999N9999999N1-00751-01241099581ADDMA1999999099451MD1210101+9999REMSYN060AAXX  20221 01024 46/// /3205 11075 21124 39945 49958 52010;
0101010240999992013012023004+78656+016360FM-12+002099999V0203301N003019999999N9999999N1-00661-01181099621ADDMA1999999099481MD1210111+9999REMSYN060AAXX  20231 01024 46/// /3303 11066 21118 39948 49962 52011;
0111010240999992013012100004+78656+016360FM-12+002099999V0209999C000019999999N9999999N1-00691-00991099681ADDMA1999999099541MD1210141+9999REMSYN070AAXX  21001 01024 46/// /0000 11069 21099 39954 49968 52014 333 91108;
0101010240999992013012101004+78656+016360FM-12+002099999V0200701N005019999999N9999999N1-00621-01261099731ADDMA1999999099601MD1210151+9999REMSYN060AAXX  21011 01024 46/// /0705 11062 21126 39960 49973 52015;
0101010240999992013012102004+78656+016360FM-12+002099999V0200201N004019999999N9999999N1-00631-01391099801ADDMA1999999099661MD1210181+9999REMSYN060AAXX  21021 01024 46/// /0204 11063 21139 39966 49980 52018;
0101010240999992013012103004+78656+016360FM-12+002099999V0201101N003019999999N9999999N1-00681-01461099861ADDMA1999999099731MD1210191+9999REMSYN060AAXX  21031 01024 46/// /1103 11068 21146 39973 49986 52019;
0101010240999992013012104004+78656+016360FM-12+002099999V0201101N007019999999N9999999N1-00751-01501099941ADDMA1999999099811MD1210211+9999REMSYN060AAXX  21041 01024 46/// /1107 11075 21150 39981 49994 52021;
0101010240999992013012105004+78656+016360FM-12+002099999V0201001N008019999999N9999999N1-00881-01621100071ADDMA1999999099931MD1110271+9999REMSYN060AAXX  21051 01024 46/// /1008 11088 21162 39993 40007 51027;
0130010240999992013012106004+78656+016360FM-12+002099999V0201001N007019999999N9999999N1-00931-01631100191ADDKA1999N-00931MA1999999100061MD1110331+9999REMSYN076AAXX  21061 01024 46/// /1007 11093 21163 30006 40019 51033 333 21093 91111;
0101010240999992013012108004+78656+016360FM-12+002099999V0201101N008019999999N9999999N1-01061-01621100371ADDMA1999999100231MD1310301+9999REMSYN060AAXX  21081 01024 46/// /1108 11106 21162 30023 40037 53030;
0101010240999992013012109004+78656+016360FM-12+002099999V0201101N009019999999N9999999N1-01131-01721100491ADDMA1999999100361MD1110301+9999REMSYN060AAXX  21091 01024 46/// /1109 11113 21172 30036 40049 51030;
0101010240999992013012110004+78656+016360FM-12+002099999V0201201N005019999999N9999999N1-01131-01651100611ADDMA1999999100471MD1210331+9999REMSYN060AAXX  21101 01024 46/// /1205 11113 21165 30047 40061 52033;
0101010240999992013012111004+78656+016360FM-12+002099999V0200601N005019999999N9999999N1-01201-01671100711ADDMA1999999100571MD1210341+9999REMSYN060AAXX  21111 01024 46/// /0605 11120 21167 30057 40071 52034;
0101010240999992013012112004+78656+016360FM-12+002099999V0200701N008019999999N9999999N1-01281-01751100801ADDMA1999999100661MD1210301+9999REMSYN060AAXX  21121 01024 46/// /0708 11128 21175 30066 40080 52030;
0101010240999992013012113004+78656+016360FM-12+002099999V0203601N002019999999N9999999N1-01321-02001100901ADDMA1999999100761MD1210291+9999REMSYN060AAXX  21131 01024 46/// /3602 11132 21200 30076 40090 52029;
0101010240999992013012114004+78656+016360FM-12+002099999V0200601N007019999999N9999999N1-01451-02161101051ADDMA1999999100911MD1110341+9999REMSYN060AAXX  21141 01024 46/// /0607 11145 21216 30091 40105 51034;
0101010240999992013012115004+78656+016360FM-12+002099999V0200501N003019999999N9999999N1-01461-02391101141ADDMA1999999101001MD1210341+9999REMSYN060AAXX  21151 01024 46/// /0503 11146 21239 30100 40114 52034;
0101010240999992013012116004+78656+016360FM-12+002099999V0200601N003019999999N9999999N1-01471-02481101171ADDMA1999999101031MD1310271+9999REMSYN060AAXX  21161 01024 46/// /0603 11147 21248 30103 40117 53027;
0101010240999992013012117004+78656+016360FM-12+002099999V0209999C000019999999N9999999N1-01741-02521101231ADDMA1999999101091MD1210181+9999REMSYN060AAXX  21171 01024 46/// /0000 11174 21252 30109 40123 52018;
0111010240999992013012118004+78656+016360FM-12+002099999V0202801N002019999999N9999999N1-01891-02641101301ADDMA1999999101161MD1110161+9999REMSYN070AAXX  21181 01024 46/// /2802 11189 21264 30116 40130 51016 333 91112;
0101010240999992013012119004+78656+016360FM-12+002099999V0203201N001019999999N9999999N1-01781-02471101361ADDMA1999999101221MD1210191+9999REMSYN060AAXX  21191 01024 46/// /3201 11178 21247 30122 40136 52019;
0101010240999992013012120004+78656+016360FM-12+002099999V0203001N002019999999N9999999N1-01671-02431101411ADDMA1999999101271MD1210181+9999REMSYN060AAXX  21201 01024 46/// /3002 11167 21243 30127 40141 52018;
0101010240999992013012121004+78656+016360FM-12+002099999V0203001N002019999999N9999999N1-01811-02451101481ADDMA1999999101341MD1210181+9999REMSYN060AAXX  21211 01024 46/// /3002 11181 21245 30134 40148 52018;
0101010240999992013012122004+78656+016360FM-12+002099999V0203101N003019999999N9999999N1-01581-02311101521ADDMA1999999101381MD1210161+9999REMSYN060AAXX  21221 01024 46/// /3103 11158 21231 30138 40152 52016;
0101010240999992013012123004+78656+016360FM-12+002099999V0203301N001019999999N9999999N1-01451-02161101511ADDMA1999999101371MD1310101+9999REMSYN060AAXX  21231 01024 46/// /3301 11145 21216 30137 40151 53010;
0111010240999992013012200004+78656+016360FM-12+002099999V0203301N001019999999N9999999N1-01441-02041101521ADDMA1999999101381MD1310041+9999REMSYN070AAXX  22001 01024 46/// /3301 11144 21204 30138 40152 53004 333 91105;
0101010240999992013012201004+78656+016360FM-12+002099999V0203201N001019999999N9999999N1-01401-02041101541ADDMA1999999101401MD1410001+9999REMSYN060AAXX  22011 01024 46/// /3201 11140 21204 30140 40154 54002;
