0101010370999992013010101004+69383+020267FM-12+000699999V0200901N001019999999N9999999N1-00291-00601098851ADDMA1999999098801MD1710041+9999REMSYN060AAXX  01011 01037 46/// /0901 11029 21060 39880 49885 57004;
0101010370999992013010102004+69383+020267FM-12+000699999V0201101N001019999999N9999999N1-00281-00531098821ADDMA1999999098761MD1710061+9999REMSYN060AAXX  01021 01037 46/// /1101 11028 21053 39876 49882 57006;
0101010370999992013010103004+69383+020267FM-12+000699999V0201101N001019999999N9999999N1-00291-00521098831ADDMA1999999098771MD1510051+9999REMSYN060AAXX  01031 01037 46/// /1101 11029 21052 39877 49883 55005;
0101010370999992013010104004+69383+020267FM-12+000699999V0201701N005019999999N9999999N1-00131-00441098831ADDMA1999999098771MD1510021+9999REMSYN060AAXX  01041 01037 46/// /1705 11013 21044 39877 49883 55002;
0101010370999992013010105004+69383+020267FM-12+000699999V0201801N005019999999N9999999N1-00141-00421098831ADDMA1999999098771MD1410001+9999REMSYN060AAXX  01051 01037 46/// /1805 11014 21042 39877 49883 54001;
0145010370999992013010106004+69383+020267FM-12+000699999V0201701N004019999999N9999999N1-00141-00421098861ADDAA112000391AA224000391MA1999999098801MD1310031+9999REMSYN082AAXX  01061 01037 16/// /1704 11014 21042 39880 49886 53003 69932 333 70003 91109;
0101010370999992013010107004+69383+020267FM-12+000699999V0201701N004019999999N9999999N1-00161-00451098881ADDMA1999999098821MD1310051+9999REMSYN060AAXX  01071 01037 46/// /1704 11016 21045 39882 49888 53005;
0101010370999992013010108004+69383+020267FM-12+000699999V0201701N004019999999N9999999N1-00141-00451098861ADDMA1999999098811MD1010041+9999REMSYN060AAXX  01081 01037 46/// /1704 11014 21045 39881 49886 50004;
0101010370999992013010109004+69383+020267FM-12+000699999V0201701N004019999999N9999999N1-00111-00411098911ADDMA1999999098851MD1310051+9999REMSYN060AAXX  01091 01037 46/// /1704 11011 21041 39885 49891 53005;
0101010370999992013010110004+69383+020267FM-12+000699999V0201701N003019999999N9999999N1-00121-00391098941ADDMA1999999098881MD1310061+9999REMSYN060AAXX  01101 01037 46/// /1703 11012 21039 39888 49894 53006;
0101010370999992013010111004+69383+020267FM-12+000699999V0201701N004019999999N9999999N1-00101-00401098961ADDMA1999999098901MD1210091+9999REMSYN060AAXX  01111 01037 46/// /1704 11010 21040 39890 49896 52009;
0147010370999992013010112004+69383+020267FM-12+000699999V0201901N003019999999N9999999N1-00061-00421098981ADDAA106000091MA1999999098921MD1210071+9999REMSYN076AAXX  01121 01037 16/// /1903 11006 21042 39892 49898 52007 60001 333 91108;EQDQ01  00002PRCP06
0101010370999992013010113004+69383+020267FM-12+000699999V0201801N002019999999N9999999N1-00101-00441099011ADDMA1999999098951MD1210071+9999REMSYN060AAXX  01131 01037 46/// /1802 11010 21044 39895 49901 52007;
0101010370999992013010114004+69383+020267FM-12+000699999V0201401N001019999999N9999999N1-00411-00601099051ADDMA1999999098991MD1210091+9999REMSYN060AAXX  01141 01037 46/// /1401 11041 21060 39899 49905 52009;
0101010370999992013010115004+69383+020267FM-12+000699999V0201701N002019999999N9999999N1-00121-00391099091ADDMA1999999099031MD1210111+9999REMSYN060AAXX  01151 01037 46/// /1702 11012 21039 39903 49909 52011;
0101010370999992013010116004+69383+020267FM-12+000699999V0201101N001019999999N9999999N1-00411-00601099121ADDMA1999999099061MD1210101+9999REMSYN060AAXX  01161 01037 46/// /1101 11041 21060 39906 49912 52010;
0101010370999992013010117004+69383+020267FM-12+000699999V0201201N001019999999N9999999N1-00481-00621099151ADDMA1999999099091MD1210101+9999REMSYN060AAXX  01171 01037 46/// /1201 11048 21062 39909 49915 52010;
0166010370999992013010118004+69383+020267FM-12+000699999V0201201N001019999999N9999999N1-00681-00741099191ADDAA112000091KA1120M-00041MA1999999099131MD1210101+9999REMSYN082AAXX  01181 01037 16/// /1201 11068 21074 39913 49919 52010 60002 333 11004 91105;EQDQ01  00002PRCP12
0101010370999992013010119004+69383+020267FM-12+000699999V0200901N001019999999N9999999N1-00801-00861099221ADDMA1999999099161MD1210101+9999REMSYN060AAXX  01191 01037 46/// /0901 11080 21086 39916 49922 52010;
0101010370999992013010120004+69383+020267FM-12+000699999V0200601N002019999999N9999999N1-00951-01031099261ADDMA1999999099201MD1210101+9999REMSYN060AAXX  01201 01037 46/// /0602 11095 21103 39920 49926 52010;
0101010370999992013010121004+69383+020267FM-12+000699999V0200701N001019999999N9999999N1-01041-01111099291ADDMA1999999099231MD1210101+9999REMSYN060AAXX  01211 01037 46/// /0701 11104 21111 39923 49929 52010;
0101010370999992013010122004+69383+020267FM-12+000699999V0201001N001019999999N9999999N1-01111-01191099331ADDMA1999999099271MD1210111+9999REMSYN060AAXX  01221 01037 46/// /1001 11111 21119 39927 49933 52011;
0101010370999992013010123004+69383+020267FM-12+000699999V0201201N001019999999N9999999N1-01211-01301099371ADDMA1999999099311MD1210111+9999REMSYN060AAXX  01231 01037 46/// /1201 11121 21130 39931 49937 52011;
0147010370999992013010200004+69383+020267FM-12+000699999V0201201N001019999999N9999999N1-01121-01181099411ADDAA106000091MA1999999099351MD1210121+9999REMSYN076AAXX  02001 01037 16/// /1201 11112 21118 39935 49941 52012 60001 333 91102;EQDQ01  00002PRCP06
0101010370999992013010201004+69383+020267FM-12+000699999V0201301N001019999999N9999999N1-01281-01401099451ADDMA1999999099391MD1210111+9999REMSYN060AAXX  02011 01037 46/// /1301 11128 21140 39939 49945 52011;
0101010370999992013010202004+69383+020267FM-12+000699999V0201301N002019999999N9999999N1-01191-01261099491ADDMA1999999099431MD1310121+9999REMSYN060AAXX  02021 01037 46/// /1302 11119 21126 39943 49949 53012;
0101010370999992013010203004+69383+020267FM-12+000699999V0201301N001019999999N9999999N1-01321-01421099531ADDMA1999999099461MD1210111+9999REMSYN060AAXX  02031 01037 46/// /1301 11132 21142 39946 49953 52011;
0101010370999992013010204004+69383+020267FM-12+000699999V0201201N001019999999N9999999N1-01401-01501099561ADDMA1999999099501MD1210111+9999REMSYN060AAXX  02041 01037 46/// /1201 11140 21150 39950 49956 52011;
0101010370999992013010205004+69383+020267FM-12+000699999V0201301N002019999999N9999999N1-01391-01491099591ADDMA1999999099531MD1310101+9999REMSYN060AAXX  02051 01037 46/// /1302 11139 21149 39953 49959 53010;
0199010370999992013010206004+69383+020267FM-12+000699999V0201301N002019999999N9999999N1-01421-01531099661ADDAA112000091AA224000091KA1999N-01421MA1999999099591MD1310131+9999REMSYN088AAXX  02061 01037 16/// /1302 11142 21153 39959 49966 53013 60002 333 21142 70000 91103;EQDQ01  00002PRCP24Q02  00002PRCP12
0101010370999992013010207004+69383+020267FM-12+000699999V0201301N002019999999N9999999N1-01421-01531099701ADDMA1999999099641MD1310151+9999REMSYN060AAXX  02071 01037 46/// /1302 11142 21153 39964 49970 53015;
0101010370999992013010208004+69383+020267FM-12+000699999V0201101N002019999999N9999999N1-01421-01511099741ADDMA1999999099671MD1210141+9999REMSYN060AAXX  02081 01037 46/// /1102 11142 21151 39967 49974 52014;
0101010370999992013010209004+69383+020267FM-12+000699999V0201301N002019999999N9999999N1-01401-01501099761ADDMA1999999099701MD1210111+9999REMSYN060AAXX  02091 01037 46/// /1302 11140 21150 39970 49976 52011;
0101010370999992013010210004+69383+020267FM-12+000699999V0201201N001019999999N9999999N1-01401-01511099811ADDMA1999999099751MD1310111+9999REMSYN060AAXX  02101 01037 46/// /1201 11140 21151 39975 49981 53011;
0101010370999992013010211004+69383+020267FM-12+000699999V0201401N001019999999N9999999N1-01421-01551099831ADDMA1999999099771MD1210091+9999REMSYN060AAXX  02111 01037 46/// /1401 11142 21155 39977 49983 52009;
0147010370999992013010212004+69383+020267FM-12+000699999V0201401N001019999999N9999999N1-01421-01561099851ADDAA106000091MA1999999099791MD1210091+9999REMSYN076AAXX  02121 01037 16/// /1401 11142 21156 39979 49985 52009 69921 333 91103;EQDQ01  00002PRCP06
0101010370999992013010213004+69383+020267FM-12+000699999V0201201N002019999999N9999999N1-01371-01471099901ADDMA1999999099831MD1210091+9999REMSYN060AAXX  02131 01037 46/// /1202 11137 21147 39983 49990 52009;
0101010370999992013010214004+69383+020267FM-12+000699999V0201401N002019999999N9999999N1-01371-01501099931ADDMA1999999099871MD1210101+9999REMSYN060AAXX  02141 01037 46/// /1402 11137 21150 39987 49993 52010;
0101010370999992013010215004+69383+020267FM-12+000699999V0201101N002019999999N9999999N1-01371-01471099961ADDMA1999999099901MD1210111+9999REMSYN060AAXX  02151 01037 46/// /1102 11137 21147 39990 49996 52011;
0101010370999992013010216004+69383+020267FM-12+000699999V0201201N002019999999N9999999N1-01421-01531099971ADDMA1999999099911MD1210081+9999REMSYN060AAXX  02161 01037 46/// /1202 11142 21153 39991 49997 52008;
0101010370999992013010217004+69383+020267FM-12+000699999V0201201N002019999999N9999999N1-01481-01611099971ADDMA1999999099911MD1010041+9999REMSYN060AAXX  02171 01037 46/// /1202 11148 21161 39991 49997 50004;
0166010370999992013010218004+69383+020267FM-12+000699999V0201201N002019999999N9999999N1-01401-01501099971ADDAA112000091KA1120M-01301MA1999999099911MD1410001+9999REMSYN082AAXX  02181 01037 16/// /1202 11140 21150 39991 49997 54001 60002 333 11130 91103;EQDQ01  00002PRCP12
0101010370999992013010219004+69383+020267FM-12+000699999V0201301N002019999999N9999999N1-01331-01431099961ADDMA1999999099901MD1710021+9999REMSYN060AAXX  02191 01037 46/// /1302 11133 21143 39990 49996 57002;
0101010370999992013010220004+69383+020267FM-12+000699999V0201301N002019999999N9999999N1-01241-01341099971ADDMA1999999099911MD1410001+9999REMSYN060AAXX  02201 01037 46/// /1302 11124 21134 39991 49997 54000;
0101010370999992013010221004+69383+020267FM-12+000699999V0201201N002019999999N9999999N1-01231-01321099961ADDMA1999999099901MD1410001+9999REMSYN060AAXX  02211 01037 46/// /1202 11123 21132 39990 49996 54001;
0101010370999992013010222004+69383+020267FM-12+000699999V0201501N002019999999N9999999N1-00971-01051099931ADDMA1999999099871MD1810031+9999REMSYN060AAXX  02221 01037 46/// /1502 11097 21105 39987 49993 58003;
0101010370999992013010223004+69383+020267FM-12+000699999V0201501N002019999999N9999999N1-00861-00951099881ADDMA1999999099821MD1810091+9999REMSYN060AAXX  02231 01037 46/// /1502 11086 21095 39982 49988 58009;
0128010370999992013010300004+69383+020267FM-12+000699999V0201401N003019999999N9999999N1-00851-00961099831ADDAA106002091MA1999999099771MD1810141+9999REMSYN076AAXX  03001 01037 16/// /1403 11085 21096 39977 49983 58014 60021 333 91105;
0101010370999992013010301004+69383+020267FM-12+000699999V0201201N001019999999N9999999N1-01141-01261099791ADDMA1999999099731MD1810141+9999REMSYN060AAXX  03011 01037 46/// /1201 11114 21126 39973 49979 58014;
0101010370999992013010302004+69383+020267FM-12+000699999V0201101N002019999999N9999999N1-01091-01161099751ADDMA1999999099691MD1710131+9999REMSYN060AAXX  03021 01037 46/// /1102 11109 21116 39969 49975 57013;
0101010370999992013010303004+69383+020267FM-12+000699999V0201301N002019999999N9999999N1-00801-00861099721ADDMA1999999099661MD1710101+9999REMSYN060AAXX  03031 01037 46/// /1302 11080 21086 39966 49972 57010;
0101010370999992013010304004+69383+020267FM-12+000699999V0201201N002019999999N9999999N1-00681-00781099681ADDMA1999999099621MD1710111+9999REMSYN060AAXX  03041 01037 46/// /1202 11068 21078 39962 49968 57011;
0101010370999992013010305004+69383+020267FM-12+000699999V0201201N002019999999N9999999N1-00711-00821099621ADDMA1999999099561MD1810131+9999REMSYN060AAXX  03051 01037 46/// /1202 11071 21082 39956 49962 58013;
0164010370999992013010306004+69383+020267FM-12+000699999V0201401N003019999999N9999999N1-00641-00761099601ADDAA112002092AA224001592KA1999N-01411MA1999999099541MD1710121+9999REMSYN088AAXX  03061 01037 16/// /1403 11064 21076 39954 49960 57012 60022 333 21141 70015 91105;
0101010370999992013010308004+69383+020267FM-12+000699999V0201301N002019999999N9999999N1-00781-00941099551ADDMA1999999099491MD1810081+9999REMSYN060AAXX  03081 01037 46/// /1302 11078 21094 39949 49955 58008;
0101010370999992013010309004+69383+020267FM-12+000699999V0201101N002019999999N9999999N1-00961-01091099571ADDMA1999999099511MD1510041+9999REMSYN060AAXX  03091 01037 46/// /1102 11096 21109 39951 49957 55004;
0101010370999992013010310004+69383+020267FM-12+000699999V0201301N003019999999N9999999N1-00761-00991099571ADDMA1999999099511MD1510011+9999REMSYN060AAXX  03101 01037 46/// /1303 11076 21099 39951 49957 55001;
0101010370999992013010311004+69383+020267FM-12+000699999V0201301N003019999999N9999999N1-00771-00981099531ADDMA1999999099471MD1810021+9999REMSYN060AAXX  03111 01037 46/// /1303 11077 21098 39947 49953 58002;
0147010370999992013010312004+69383+020267FM-12+000699999V0201501N002019999999N9999999N1-00861-01061099531ADDAA106000091MA1999999099471MD1710031+9999REMSYN076AAXX  03121 01037 16/// /1502 11086 21106 39947 49953 57003 60001 333 91106;EQDQ01  00002PRCP06
0101010370999992013010313004+69383+020267FM-12+000699999V0201501N003019999999N9999999N1-00771-01011099571ADDMA1999999099511MD1510001+9999REMSYN060AAXX  03131 01037 46/// /1503 11077 21101 39951 49957 55000;
0101010370999992013010314004+69383+020267FM-12+000699999V0201401N002019999999N9999999N1-01131-01251099571ADDMA1999999099511MD1210031+9999REMSYN060AAXX  03141 01037 46/// /1402 11113 21125 39951 49957 52003;
0101010370999992013010315004+69383+020267FM-12+000699999V0200901N001019999999N9999999N1-01311-01431099591ADDMA1999999099531MD1210061+9999REMSYN060AAXX  03151 01037 46/// /0901 11131 21143 39953 49959 52006;
0101010370999992013010316004+69383+020267FM-12+000699999V0201401N001019999999N9999999N1-01471-01581099601ADDMA1999999099541MD1210041+9999REMSYN060AAXX  03161 01037 46/// /1401 11147 21158 39954 49960 52004;
0101010370999992013010317004+69383+020267FM-12+000699999V0201301N001019999999N9999999N1-01521-01651099631ADDMA1999999099561MD1210061+9999REMSYN060AAXX  03171 01037 46/// /1301 11152 21165 39956 49963 52006;
0166010370999992013010318004+69383+020267FM-12+000699999V0201001N001019999999N9999999N1-01511-01621099681ADDAA112000091KA1120M-00581MA1999999099611MD1310081+9999REMSYN082AAXX  03181 01037 16/// /1001 11151 21162 39961 49968 53008 60002 333 11058 91105;EQDQ01  00002PRCP12
0101010370999992013010319004+69383+020267FM-12+000699999V0201201N002019999999N9999999N1-01321-01391099741ADDMA1999999099681MD1310131+9999REMSYN060AAXX  03191 01037 46/// /1202 11132 21139 39968 49974 53013;
0101010370999992013010320004+69383+020267FM-12+000699999V0201001N002019999999N9999999N1-01421-01521099801ADDMA1999999099741MD1310181+9999REMSYN060AAXX  03201 01037 46/// /1002 11142 21152 39974 49980 53018;
0101010370999992013010321004+69383+020267FM-12+000699999V0201401N001019999999N9999999N1-01541-01671099891ADDMA1999999099831MD1310221+9999REMSYN060AAXX  03211 01037 46/// /1401 11154 21167 39983 49989 53022;
0101010370999992013010322004+69383+020267FM-12+000699999V0201201N002019999999N9999999N1-01401-01491099961ADDMA1999999099901MD1310221+9999REMSYN060AAXX  03221 01037 46/// /1202 11140 21149 39990 49996 53022;
0101010370999992013010323004+69383+020267FM-12+000699999V0201301N002019999999N9999999N1-01381-01481100071ADDMA1999999100001MD1310261+9999REMSYN060AAXX  03231 01037 46/// /1302 11138 21148 30000 40007 53026;
0147010370999992013010400004+69383+020267FM-12+000699999V0201301N002019999999N9999999N1-01431-01531100131ADDAA106000091MA1999999100071MD1310241+9999REMSYN076AAXX  04001 01037 16/// /1302 11143 21153 30007 40013 53024 60001 333 91103;EQDQ01  00002PRCP06
0101010370999992013010401004+69383+020267FM-12+000699999V0201301N002019999999N9999999N1-01271-01341100231ADDMA1999999100171MD1310271+9999REMSYN060AAXX  04011 01037 46/// /1302 11127 21134 30017 40023 53027;
0101010370999992013010402004+69383+020267FM-12+000699999V0201101N002019999999N9999999N1-01351-01471100301ADDMA1999999100241MD1310231+9999REMSYN060AAXX  04021 01037 46/// /1102 11135 21147 30024 40030 53023;
0101010370999992013010403004+69383+020267FM-12+000699999V0201501N001019999999N9999999N1-01321-01421100381ADDMA1999999100321MD1210251+9999REMSYN060AAXX  04031 01037 46/// /1501 11132 21142 30032 40038 52025;
0101010370999992013010404004+69383+020267FM-12+000699999V0201501N002019999999N9999999N1-01251-01371100451ADDMA1999999100391MD1310221+9999REMSYN060AAXX  04041 01037 46/// /1502 11125 21137 30039 40045 53022;
0101010370999992013010405004+69383+020267FM-12+000699999V0201301N002019999999N9999999N1-01271-01371100511ADDMA1999999100451MD1210211+9999REMSYN060AAXX  04051 01037 46/// /1302 11127 21137 30045 40051 52021;
0199010370999992013010406004+69383+020267FM-12+000699999V0201401N002019999999N9999999N1-01321-01411100561ADDAA112000091AA224000091KA1999N-01581MA1999999100501MD1210181+9999REMSYN088AAXX  04061 01037 16/// /1402 11132 21141 30050 40056 52018 60002 333 21158 70000 91103;EQDQ01  00002PRCP24Q02  00002PRCP12
0101010370999992013010407004+69383+020267FM-12+000699999V0201401N002019999999N9999999N1-01201-01291100641ADDMA1999999100581MD1310191+9999REMSYN060AAXX  04071 01037 46/// /1402 11120 21129 30058 40064 53019;
0101010370999992013010408004+69383+020267FM-12+000699999V0201401N002019999999N9999999N1-01151-01251100681ADDMA1999999100611MD1310161+9999REMSYN060AAXX  04081 01037 46/// /1402 11115 21125 30061 40068 53016;
0101010370999992013010409004+69383+020267FM-12+000699999V0201301N002019999999N9999999N1-00951-01031100721ADDMA1999999100651MD1110151+9999REMSYN060AAXX  04091 01037 46/// /1302 11095 21103 30065 40072 51015;
0101010370999992013010410004+69383+020267FM-12+000699999V0201201N001019999999N9999999N1-00761-00861100751ADDMA1999999100681MD1310111+9999REMSYN060AAXX  04101 01037 46/// /1201 11076 21086 30068 40075 53011;
0101010370999992013010411004+69383+020267FM-12+000699999V0201001N002019999999N9999999N1-00661-00721100791ADDMA1999999100731MD1310111+9999REMSYN060AAXX  04111 01037 46/// /1002 11066 21072 30073 40079 53011;
0128010370999992013010412004+69383+020267FM-12+000699999V0201401N002019999999N9999999N1-00551-00611100841ADDAA106002091MA1999999100781MD1310131+9999REMSYN076AAXX  04121 01037 16/// /1402 11055 21061 30078 40084 53013 60021 333 91105;
0101010370999992013010413004+69383+020267FM-12+000699999V0209999C000019999999N9999999N1-00511-00561100891ADDMA1999999100831MD1210141+9999REMSYN060AAXX  04131 01037 46/// /0000 11051 21056 30083 40089 52014;
0101010370999992013010414004+69383+020267FM-12+000699999V0201501N001019999999N9999999N1-00481-00531100981ADDMA1999999100921MD1310191+9999REMSYN060AAXX  04141 01037 46/// /1501 11048 21053 30092 40098 53019;
0101010370999992013010415004+69383+020267FM-12+000699999V0201301N002019999999N9999999N1-00441-00481101041ADDMA1999999100981MD1310201+9999REMSYN060AAXX  04151 01037 46/// /1302 11044 21048 30098 40104 53020;
0101010370999992013010416004+69383+020267FM-12+000699999V0201401N002019999999N9999999N1-00381-00421101101ADDMA1999999101041MD1210221+9999REMSYN060AAXX  04161 01037 46/// /1402 11038 21042 30104 40110 52022;
0101010370999992013010417004+69383+020267FM-12+000699999V0201401N001019999999N9999999N1-00351-00391101171ADDMA1999999101111MD1310191+9999REMSYN060AAXX  04171 01037 46/// /1401 11035 21039 30111 40117 53019;
0147010370999992013010418004+69383+020267FM-12+000699999V0201301N001019999999N9999999N1-00331-00371101231ADDAA112004191KA1120M-00331MA1999999101171MD1210201+9999REMSYN082AAXX  04181 01037 16/// /1301 11033 21037 30117 40123 52020 60042 333 11033 91104;
0101010370999992013010419004+69383+020267FM-12+000699999V0201401N001019999999N9999999N1-00291-00331101321ADDMA1999999101261MD1310221+9999REMSYN060AAXX  04191 01037 46/// /1401 11029 21033 30126 40132 53022;
0101010370999992013010420004+69383+020267FM-12+000699999V0201201N001019999999N9999999N1-00271-00311101411ADDMA1999999101351MD1310241+9999REMSYN060AAXX  04201 01037 46/// /1201 11027 21031 30135 40141 53024;
0101010370999992013010421004+69383+020267FM-12+000699999V0202701N002019999999N9999999N1-00031-00051101501ADDMA1999999101441MD1210261+9999REMSYN060AAXX  04211 01037 46/// /2702 11003 21005 30144 40150 52026;
0101010370999992013010422004+69383+020267FM-12+000699999V0203101N002019999999N9999999N1-00211-00251101551ADDMA1999999101491MD1110231+9999REMSYN060AAXX  04221 01037 46/// /3102 11021 21025 30149 40155 51023;
0101010370999992013010423004+69383+020267FM-12+000699999V0209999C000019999999N9999999N1-00181-00201101641ADDMA1999999101581MD1310231+9999REMSYN060AAXX  04231 01037 46/// /0000 11018 21020 30158 40164 53023;
0128010370999992013010500004+69383+020267FM-12+000699999V0201301N001019999999N9999999N1-00151-00191101681ADDAA106001091MA1999999101621MD1110181+9999REMSYN076AAXX  05001 01037 16/// /1301 11015 21019 30162 40168 51018 60011 333 91105;
0101010370999992013010501004+69383+020267FM-12+000699999V0201201N001019999999N9999999N1-00211-00231101711ADDMA1999999101651MD1110161+9999REMSYN060AAXX  05011 01037 46/// /1201 11021 21023 30165 40171 51016;
0101010370999992013010502004+69383+020267FM-12+000699999V0201301N001019999999N9999999N1-00201-00221101791ADDMA1999999101731MD1310141+9999REMSYN060AAXX  05021 01037 46/// /1301 11020 21022 30173 40179 53014;
0101010370999992013010503004+69383+020267FM-12+000699999V0209999C000019999999N9999999N1-00261-00301101841ADDMA1999999101781MD1310161+9999REMSYN060AAXX  05031 01037 46/// /0000 11026 21030 30178 40184 53016;
0101010370999992013010504004+69383+020267FM-12+000699999V0201501N002019999999N9999999N1-00221-00241101851ADDMA1999999101791MD1110141+9999REMSYN060AAXX  05041 01037 46/// /1502 11022 21024 30179 40185 51014;
0101010370999992013010505004+69383+020267FM-12+000699999V0201601N001019999999N9999999N1-00261-00281101891ADDMA1999999101831MD1210111+9999REMSYN060AAXX  05051 01037 46/// /1601 11026 21028 30183 40189 52011;
0164010370999992013010506004+69383+020267FM-12+000699999V0201301N001019999999N9999999N1-00211-00231101951ADDAA112001091AA224005191KA1999N-00341MA1999999101891MD1310111+9999REMSYN088AAXX  05061 01037 16/// /1301 11021 21023 30189 40195 53011 60012 333 21034 70051 91103;
0101010370999992013010507004+69383+020267FM-12+000699999V0201301N001019999999N9999999N1-00191-00211101971ADDMA1999999101911MD1210121+9999REMSYN060AAXX  05071 01037 46/// /1301 11019 21021 30191 40197 52012;
0101010370999992013010508004+69383+020267FM-12+000699999V0201201N001019999999N9999999N1-00191-00211102031ADDMA1999999101971MD1310141+9999REMSYN060AAXX  05081 01037 46/// /1201 11019 21021 30197 40203 53014;
0101010370999992013010509004+69383+020267FM-12+000699999V0201601N002019999999N9999999N1-00131-00151102061ADDMA1999999102001MD1310101+9999REMSYN060AAXX  05091 01037 46/// /1602 11013 21015 30200 40206 53010;
0101010370999992013010510004+69383+020267FM-12+000699999V0201301N001019999999N9999999N1-00181-00221102081ADDMA1999999102021MD1110111+9999REMSYN060AAXX  05101 01037 46/// /1301 11018 21022 30202 40208 51011;
0101010370999992013010511004+69383+020267FM-12+000699999V0201101N002019999999N9999999N1-00191-00231102121ADDMA1999999102061MD1310081+9999REMSYN060AAXX  05111 01037 46/// /1102 11019 21023 30206 40212 53008;
0147010370999992013010512004+69383+020267FM-12+000699999V0201201N002019999999N9999999N1-00221-00261102131ADDAA106000091MA1999999102071MD1210081+9999REMSYN076AAXX  05121 01037 16/// /1202 11022 21026 30207 40213 52008 60001 333 91103;EQDQ01  00002PRCP06
0101010370999992013010513004+69383+020267FM-12+000699999V0201201N001019999999N9999999N1-00281-00321102131ADDMA1999999102071MD1210051+9999REMSYN060AAXX  05131 01037 46/// /1201 11028 21032 30207 40213 52005;
0101010370999992013010514004+69383+020267FM-12+000699999V0201501N002019999999N9999999N1-00261-00301102151ADDMA1999999102091MD1210031+9999REMSYN060AAXX  05141 01037 46/// /1502 11026 21030 30209 40215 52003;
0101010370999992013010515004+69383+020267FM-12+000699999V0201501N001019999999N9999999N1-00291-00311102141ADDMA1999999102081MD1010011+9999REMSYN060AAXX  05151 01037 46/// /1501 11029 21031 30208 40214 50001;
0101010370999992013010516004+69383+020267FM-12+000699999V0201601N002019999999N9999999N1-00341-00381102131ADDMA1999999102071MD1010001+9999REMSYN060AAXX  05161 01037 46/// /1602 11034 21038 30207 40213 50000;
0101010370999992013010517004+69383+020267FM-12+000699999V0201301N001019999999N9999999N1-00551-00611102131ADDMA1999999102061MD1710021+9999REMSYN060AAXX  05171 01037 46/// /1301 11055 21061 30206 40213 57002;
0166010370999992013010518004+69383+020267FM-12+000699999V0200901N001019999999N9999999N1-00751-00811102081ADDAA112000091KA1120M-00121MA1999999102011MD1810061+9999REMSYN082AAXX  05181 01037 16/// /0901 11075 21081 30201 40208 58006 60002 333 11012 91103;EQDQ01  00002PRCP12
0101010370999992013010519004+69383+020267FM-12+000699999V0201101N002019999999N9999999N1-00511-00531102081ADDMA1999999102021MD1510051+9999REMSYN060AAXX  05191 01037 46/// /1102 11051 21053 30202 40208 55005;
0101010370999992013010520004+69383+020267FM-12+000699999V0201801N001019999999N9999999N1-00701-00761102071ADDMA1999999102001MD1610061+9999REMSYN060AAXX  05201 01037 46/// /1801 11070 21076 30200 40207 56006;
0101010370999992013010521004+69383+020267FM-12+000699999V0200901N001019999999N9999999N1-00721-00771102021ADDMA1999999101961MD1810061+9999REMSYN060AAXX  05211 01037 46/// /0901 11072 21077 30196 40202 58006;
0101010370999992013010522004+69383+020267FM-12+000699999V0201501N003019999999N9999999N1-00211-00301101951ADDMA1999999101891MD1810131+9999REMSYN060AAXX  05221 01037 46/// /1503 11021 21030 30189 40195 58013;
0101010370999992013010523004+69383+020267FM-12+000699999V0201501N003019999999N9999999N1-00161-00371101891ADDMA1999999101831MD1710171+9999REMSYN060AAXX  05231 01037 46/// /1503 11016 21037 30183 40189 57017;
0128010370999992013010600004+69383+020267FM-12+000699999V0201801N005019999999N9999999N1-00141-00441101811ADDAA106001091MA1999999101751MD1810201+9999REMSYN076AAXX  06001 01037 16/// /1805 11014 21044 30175 40181 58020 69991 333 91109;
0101010370999992013010601004+69383+020267FM-12+000699999V0201801N005019999999N9999999N1-00141-00481101781ADDMA1999999101721MD1710171+9999REMSYN060AAXX  06011 01037 46/// /1805 11014 21048 30172 40178 57017;
0101010370999992013010602004+69383+020267FM-12+000699999V0201801N006019999999N9999999N1-00111-00521101731ADDMA1999999101671MD1810161+9999REMSYN060AAXX  06021 01037 46/// /1806 11011 21052 30167 40173 58016;
0101010370999992013010603004+69383+020267FM-12+000699999V0201901N006019999999N9999999N1-00081-00571101671ADDMA1999999101611MD1810151+9999REMSYN060AAXX  06031 01037 46/// /1906 11008 21057 30161 40167 58015;
0101010370999992013010604004+69383+020267FM-12+000699999V0201901N006019999999N9999999N1-00031-00601101621ADDMA1999999101561MD1710161+9999REMSYN060AAXX  06041 01037 46/// /1906 11003 21060 30156 40162 57016;
0101010370999992013010605004+69383+020267FM-12+000699999V0201701N006019999999N9999999N1+00031-00651101591ADDMA1999999101531MD1710141+9999REMSYN060AAXX  06051 01037 46/// /1706 10003 21065 30153 40159 57014;
0199010370999992013010606004+69383+020267FM-12+000699999V0201701N005019999999N9999999N1+00031-00651101561ADDAA112000091AA224000091KA1999N-00791MA1999999101501MD1710111+9999REMSYN088AAXX  06061 01037 16/// /1705 10003 21065 30150 40156 57011 60002 333 21079 70000 91112;EQDQ01  00002PRCP24Q02  00002PRCP12
0101010370999992013010607004+69383+020267FM-12+000699999V0201701N005019999999N9999999N1+00031-00611101521ADDMA1999999101471MD1710101+9999REMSYN060AAXX  06071 01037 46/// /1705 10003 21061 30147 40152 57010;
0101010370999992013010608004+69383+020267FM-12+000699999V0201601N005019999999N9999999N1+00031-00531101501ADDMA1999999101441MD1710101+9999REMSYN060AAXX  06081 01037 46/// /1605 10003 21053 30144 40150 57010;
0101010370999992013010609004+69383+020267FM-12+000699999V0201601N006019999999N9999999N1+00011-00511101461ADDMA1999999101401MD1710101+9999REMSYN060AAXX  06091 01037 46/// /1606 10001 21051 30140 40146 57010;
0101010370999992013010610004+69383+020267FM-12+000699999V0201601N004019999999N9999999N1-00011-00471101421ADDMA1999999101361MD1710111+9999REMSYN060AAXX  06101 01037 46/// /1604 11001 21047 30136 40142 57011;
0101010370999992013010611004+69383+020267FM-12+000699999V0201601N005019999999N9999999N1+00021-00521101351ADDMA1999999101291MD1810151+9999REMSYN060AAXX  06111 01037 46/// /1605 10002 21052 30129 40135 58015;
0147010370999992013010612004+69383+020267FM-12+000699999V0201501N005019999999N9999999N1+00011-00511101291ADDAA106000091MA1999999101231MD1810161+9999REMSYN076AAXX  06121 01037 16/// /1505 10001 21051 30123 40129 58016 60001 333 91112;EQDQ01  00002PRCP06
0101010370999992013010613004+69383+020267FM-12+000699999V0201401N003019999999N9999999N1+00031-00491101271ADDMA1999999101211MD1610151+9999REMSYN060AAXX  06131 01037 46/// /1403 10003 21049 30121 40127 56015;
0101010370999992013010614004+69383+020267FM-12+000699999V0201501N004019999999N9999999N1+00051-00431101221ADDMA1999999101161MD1710141+9999REMSYN060AAXX  06141 01037 46/// /1504 10005 21043 30116 40122 57014;
0101010370999992013010615004+69383+020267FM-12+000699999V0201601N005019999999N9999999N1+00071-00391101161ADDMA1999999101101MD1810131+9999REMSYN060AAXX  06151 01037 46/// /1605 10007 21039 30110 40116 58013;
0101010370999992013010616004+69383+020267FM-12+000699999V0201601N004019999999N9999999N1+00061-00331101131ADDMA1999999101071MD1610141+9999REMSYN060AAXX  06161 01037 46/// /1604 10006 21033 30107 40113 56014;
0101010370999992013010617004+69383+020267FM-12+000699999V0201401N003019999999N9999999N1+00101-00271101141ADDMA1999999101081MD1510081+9999REMSYN060AAXX  06171 01037 46/// /1403 10010 21027 30108 40114 55008;
0166010370999992013010618004+69383+020267FM-12+000699999V0201401N002019999999N9999999N1+00101-00221101181ADDAA112000091KA1120M+00101MA1999999101121MD1310021+9999REMSYN082AAXX  06181 01037 16/// /1402 10010 21022 30112 40118 53002 60002 333 10010 91111;EQDQ01  00002PRCP12
0101010370999992013010619004+69383+020267FM-12+000699999V0201501N002019999999N9999999N1+00071-00171101211ADDMA1999999101151MD1210081+9999REMSYN060AAXX  06191 01037 46/// /1502 10007 21017 30115 40121 52008;
0101010370999992013010620004+69383+020267FM-12+000699999V0201401N002019999999N9999999N1+00051-00081101201ADDMA1999999101141MD1010071+9999REMSYN060AAXX  06201 01037 46/// /1402 10005 21008 30114 40120 50007;
0101010370999992013010621004+69383+020267FM-12+000699999V0202701N004019999999N9999999N1+00641+00111101171ADDMA1999999101111MD1810011+9999REMSYN060AAXX  06211 01037 46/// /2704 10064 20011 30111 40117 58001;
0101010370999992013010622004+69383+020267FM-12+000699999V0202501N006019999999N9999999N1+00641+00071101271ADDMA1999999101211MD1310061+9999REMSYN060AAXX  06221 01037 46/// /2506 10064 20007 30121 40127 53006;
0101010370999992013010623004+69383+020267FM-12+000699999V0202801N004019999999N9999999N1+00581+00001101391ADDMA1999999101331MD1310191+9999REMSYN060AAXX  06231 01037 46/// /2804 10058 21000 30133 40139 53019;
0147010370999992013010700004+69383+020267FM-12+000699999V0203501N002019999999N9999999N1+00411+00131101481ADDAA106000091MA1999999101421MD1110311+9999REMSYN076AAXX  07001 01037 16/// /3502 10041 20013 30142 40148 51031 69921 333 91113;EQDQ01  00002PRCP06
0101010370999992013010701004+69383+020267FM-12+000699999V0202501N004019999999N9999999N1+00541+00101101511ADDMA1999999101461MD1110251+9999REMSYN060AAXX  07011 01037 46/// /2504 10054 20010 30146 40151 51025;
0101010370999992013010702004+69383+020267FM-12+000699999V0202801N004019999999N9999999N1+00581+00021101581ADDMA1999999101521MD1110191+9999REMSYN060AAXX  07021 01037 46/// /2804 10058 20002 30152 40158 51019;
0101010370999992013010703004+69383+020267FM-12+000699999V0203301N001019999999N9999999N1+00471-00031101611ADDMA1999999101551MD1110131+9999REMSYN060AAXX  07031 01037 46/// /3301 10047 21003 30155 40161 51013;
0101010370999992013010704004+69383+020267FM-12+000699999V0203501N004019999999N9999999N1+00461+00081101631ADDMA1999999101571MD1110111+9999REMSYN060AAXX  07041 01037 46/// /3504 10046 20008 30157 40163 51011;
0101010370999992013010705004+69383+020267FM-12+000699999V0202501N003019999999N9999999N1+00541-00021101681ADDMA1999999101631MD1310101+9999REMSYN060AAXX  07051 01037 46/// /2503 10054 21002 30163 40168 53010;
0183010370999992013010706004+69383+020267FM-12+000699999V0202601N004019999999N9999999N1+00591+00011101701ADDAA112000091AA224000591KA1999N+00051MA1999999101641MD1310091+9999REMSYN088AAXX  07061 01037 16/// /2604 10059 20001 30164 40170 53009 69922 333 20005 70004 91111;EQDQ01  00002PRCP12
0101010370999992013010707004+69383+020267FM-12+000699999V0202801N004019999999N9999999N1+00431+00121101741ADDMA1999999101691MD1210121+9999REMSYN060AAXX  07071 01037 46/// /2804 10043 20012 30169 40174 52012;
0101010370999992013010708004+69383+020267FM-12+000699999V0202701N003019999999N9999999N1+00551+00051101791ADDMA1999999101731MD1210101+9999REMSYN060AAXX  07081 01037 46/// /2703 10055 20005 30173 40179 52010;
0101010370999992013010709004+69383+020267FM-12+000699999V0202701N003019999999N9999999N1+00571-00081101801ADDMA1999999101741MD1110101+9999REMSYN060AAXX  07091 01037 46/// /2703 10057 21008 30174 40180 51010;
0101010370999992013010710004+69383+020267FM-12+000699999V0201101N002019999999N9999999N1+00291-00071101791ADDMA1999999101731MD1010041+9999REMSYN060AAXX  07101 01037 46/// /1102 10029 21007 30173 40179 50004;
0101010370999992013010711004+69383+020267FM-12+000699999V0200801N001019999999N9999999N1+00101-00111101751ADDMA1999999101691MD1810041+9999REMSYN060AAXX  07111 01037 46/// /0801 10010 21011 30169 40175 58004;
0147010370999992013010712004+69383+020267FM-12+000699999V0201401N002019999999N9999999N1+00021-00111101721ADDAA106000091MA1999999101661MD1810081+9999REMSYN076AAXX  07121 01037 16/// /1402 10002 21011 30166 40172 58008 60001 333 91110;EQDQ01  00002PRCP06
0101010370999992013010713004+69383+020267FM-12+000699999V0201301N002019999999N9999999N1-00161-00261101671ADDMA1999999101611MD1710111+9999REMSYN060AAXX  07131 01037 46/// /1302 11016 21026 30161 40167 57011;
0101010370999992013010714004+69383+020267FM-12+000699999V0201301N002019999999N9999999N1-00251-00301101661ADDMA1999999101601MD1710091+9999REMSYN060AAXX  07141 01037 46/// /1302 11025 21030 30160 40166 57009;
0101010370999992013010715004+69383+020267FM-12+000699999V0209999C000019999999N9999999N1-00321-00391101651ADDMA1999999101591MD1610071+9999REMSYN060AAXX  07151 01037 46/// /0000 11032 21039 30159 40165 56007;
0101010370999992013010716004+69383+020267FM-12+000699999V0200701N001019999999N9999999N1-00371-00421101601ADDMA1999999101541MD1810071+9999REMSYN060AAXX  07161 01037 46/// /0701 11037 21042 30154 40160 58007;
0101010370999992013010717004+69383+020267FM-12+000699999V0201101N002019999999N9999999N1-00401-00441101571ADDMA1999999101511MD1810091+9999REMSYN060AAXX  07171 01037 46/// /1102 11040 21044 30151 40157 58009;
0166010370999992013010718004+69383+020267FM-12+000699999V0200701N001019999999N9999999N1-00421-00471101541ADDAA112000091KA1120M+00611MA1999999101481MD1710111+9999REMSYN082AAXX  07181 01037 16/// /0701 11042 21047 30148 40154 57011 60002 333 10061 91104;EQDQ01  00002PRCP12
0101010370999992013010719004+69383+020267FM-12+000699999V0201001N001019999999N9999999N1-00461-00511101491ADDMA1999999101431MD1710111+9999REMSYN060AAXX  07191 01037 46/// /1001 11046 21051 30143 40149 57011;
0101010370999992013010720004+69383+020267FM-12+000699999V0200701N001019999999N9999999N1-00391-00481101421ADDMA1999999101361MD1810141+9999REMSYN060AAXX  07201 01037 46/// /0701 11039 21048 30136 40142 58014;
0101010370999992013010721004+69383+020267FM-12+000699999V0201601N004019999999N9999999N1-00011-00321101311ADDMA1999999101251MD1810231+9999REMSYN060AAXX  07211 01037 46/// /1604 11001 21032 30125 40131 58023;
0101010370999992013010722004+69383+020267FM-12+000699999V0201801N005019999999N9999999N1+00101-00461101251ADDMA1999999101191MD1810241+9999REMSYN060AAXX  07221 01037 46/// /1805 10010 21046 30119 40125 58024;
0101010370999992013010723004+69383+020267FM-12+000699999V0201801N006019999999N9999999N1+00141-00461101191ADDMA1999999101131MD1610241+9999REMSYN060AAXX  07231 01037 46/// /1806 10014 21046 30113 40119 56024;
0128010370999992013010800004+69383+020267FM-12+000699999V0201901N005019999999N9999999N1+00191-00421101121ADDAA106001091MA1999999101071MD1710181+9999REMSYN076AAXX  08001 01037 16/// /1905 10019 21042 30107 40112 57018 60011 333 91111;
0101010370999992013010801004+69383+020267FM-12+000699999V0202001N005019999999N9999999N1+00241-00411101071ADDMA1999999101011MD1710181+9999REMSYN060AAXX  08011 01037 46/// /2005 10024 21041 30101 40107 57018;
0101010370999992013010802004+69383+020267FM-12+000699999V0201801N004019999999N9999999N1+00211-00381101001ADDMA1999999100941MD1710191+9999REMSYN060AAXX  08021 01037 46/// /1804 10021 21038 30094 40100 57019;
0101010370999992013010803004+69383+020267FM-12+000699999V0201901N004019999999N9999999N1+00201-00371100961ADDMA1999999100901MD1710171+9999REMSYN060AAXX  08031 01037 46/// /1904 10020 21037 30090 40096 57017;
0101010370999992013010804004+69383+020267FM-12+000699999V0201801N005019999999N9999999N1+00091-00391100911ADDMA1999999100851MD1710161+9999REMSYN060AAXX  08041 01037 46/// /1805 10009 21039 30085 40091 57016;
0101010370999992013010805004+69383+020267FM-12+000699999V0201701N004019999999N9999999N1-00041-00421100901ADDMA1999999100841MD1510101+9999REMSYN060AAXX  08051 01037 46/// /1704 11004 21042 30084 40090 55010;
0199010370999992013010806004+69383+020267FM-12+000699999V0201601N004019999999N9999999N1-00071-00481100841ADDAA112000091AA224000091KA1999N-00481MA1999999100781MD1810121+9999REMSYN088AAXX  08061 01037 16/// /1604 11007 21048 30078 40084 58012 60002 333 21048 70000 91110;EQDQ01  00002PRCP24Q02  00002PRCP12
0101010370999992013010807004+69383+020267FM-12+000699999V0201401N004019999999N9999999N1-00041-00521100781ADDMA1999999100721MD1810131+9999REMSYN060AAXX  08071 01037 46/// /1404 11004 21052 30072 40078 58013;
0101010370999992013010808004+69383+020267FM-12+000699999V0201401N003019999999N9999999N1-00071-00531100711ADDMA1999999100651MD1810191+9999REMSYN060AAXX  08081 01037 46/// /1403 11007 21053 30065 40071 58019;
0101010370999992013010809004+69383+020267FM-12+000699999V0201401N003019999999N9999999N1-00041-00531100661ADDMA1999999100601MD1710181+9999REMSYN060AAXX  08091 01037 46/// /1403 11004 21053 30060 40066 57018;
0101010370999992013010810004+69383+020267FM-12+000699999V0201701N005019999999N9999999N1-00031-00491100581ADDMA1999999100521MD1810191+9999REMSYN060AAXX  08101 01037 46/// /1705 11003 21049 30052 40058 58019;
0101010370999992013010811004+69383+020267FM-12+000699999V0201601N004019999999N9999999N1-00081-00441100461ADDMA1999999100401MD1810241+9999REMSYN060AAXX  08111 01037 46/// /1604 11008 21044 30040 40046 58024;
0147010370999992013010812004+69383+020267FM-12+000699999V0201701N004019999999N9999999N1-00091-00511100391ADDAA106000091MA1999999100331MD1810271+9999REMSYN076AAXX  08121 01037 16/// /1704 11009 21051 30033 40039 58027 60001 333 91110;EQDQ01  00002PRCP06
0101010370999992013010813004+69383+020267FM-12+000699999V0201501N004019999999N9999999N1-00121-00531100371ADDMA1999999100311MD1610221+9999REMSYN060AAXX  08131 01037 46/// /1504 11012 21053 30031 40037 56022;
0101010370999992013010814004+69383+020267FM-12+000699999V0201301N003019999999N9999999N1-00131-00461100371ADDMA1999999100321MD1610091+9999REMSYN060AAXX  08141 01037 46/// /1303 11013 21046 30032 40037 56009;
0101010370999992013010815004+69383+020267FM-12+000699999V0201601N002019999999N9999999N1-00181-00501100351ADDMA1999999100291MD1810051+9999REMSYN060AAXX  08151 01037 46/// /1602 11018 21050 30029 40035 58005;
0101010370999992013010816004+69383+020267FM-12+000699999V0201401N002019999999N9999999N1-00251-00471100331ADDMA1999999100271MD1810041+9999REMSYN060AAXX  08161 01037 46/// /1402 11025 21047 30027 40033 58004;
0101010370999992013010817004+69383+020267FM-12+000699999V0201001N001019999999N9999999N1-00261-00451100361ADDMA1999999100301MD1510021+9999REMSYN060AAXX  08171 01037 46/// /1001 11026 21045 30030 40036 55002;
0166010370999992013010818004+69383+020267FM-12+000699999V0203501N002019999999N9999999N1-00231-00381100341ADDAA112000091KA1120M-00011MA1999999100281MD1410001+9999REMSYN082AAXX  08181 01037 16/// /3502 11023 21038 30028 40034 54000 60002 333 11001 91109;EQDQ01  00002PRCP12
0101010370999992013010819004+69383+020267FM-12+000699999V0203201N003019999999N9999999N1+00221-00211100431ADDMA1999999100371MD1310101+9999REMSYN060AAXX  08191 01037 46/// /3203 10022 21021 30037 40043 53010;
0101010370999992013010821004+69383+020267FM-12+000699999V0202901N004019999999N9999999N1+00141-00381100521ADDMA1999999100461MD1110191+9999REMSYN060AAXX  08211 01037 46/// /2904 10014 21038 30046 40052 51019;
0101010370999992013010823004+69383+020267FM-12+000699999V0202501N004019999999N9999999N1+00171-00591100491ADDMA1999999100441MD1010001+9999REMSYN060AAXX  08231 01037 46/// /2504 10017 21059 30044 40049 50000;
0128010370999992013010900004+69383+020267FM-12+000699999V0202501N005019999999N9999999N1+00141-00531100481ADDAA106000391MA1999999100421MD1710051+9999REMSYN076AAXX  09001 01037 16/// /2505 10014 21053 30042 40048 57005 69931 333 91110;
0101010370999992013010901004+69383+020267FM-12+000699999V0202501N004019999999N9999999N1+00121-00421100481ADDMA1999999100421MD1710021+9999REMSYN060AAXX  09011 01037 46/// /2504 10012 21042 30042 40048 57002;
0101010370999992013010902004+69383+020267FM-12+000699999V0202401N003019999999N9999999N1+00141-00401100481ADDMA1999999100421MD1710021+9999REMSYN060AAXX  09021 01037 46/// /2403 10014 21040 30042 40048 57002;
0101010370999992013010903004+69383+020267FM-12+000699999V0202701N003019999999N9999999N1+00071-00231100471ADDMA1999999100411MD1410001+9999REMSYN060AAXX  09031 01037 46/// /2703 10007 21023 30041 40047 54001;
0101010370999992013010904004+69383+020267FM-12+000699999V0202701N004019999999N9999999N1+00011-00101100441ADDMA1999999100381MD1810041+9999REMSYN060AAXX  09041 01037 46/// /2704 10001 21010 30038 40044 58004;
0101010370999992013010905004+69383+020267FM-12+000699999V0202701N004019999999N9999999N1+00011-00061100471ADDMA1999999100411MD1510011+9999REMSYN060AAXX  09051 01037 46/// /2704 10001 21006 30041 40047 55001;
0164010370999992013010906004+69383+020267FM-12+000699999V0202801N003019999999N9999999N1+00021-00041100511ADDAA112002091AA224002391KA1999N-00241MA1999999100451MD1310041+9999REMSYN088AAXX  09061 01037 16/// /2803 10002 21004 30045 40051 53004 60022 333 21024 70024 91112;
0101010370999992013010907004+69383+020267FM-12+000699999V0203401N002019999999N9999999N1+00031-00011100611ADDMA1999999100551MD1310171+9999REMSYN060AAXX  09071 01037 46/// /3402 10003 21001 30055 40061 53017;
0101010370999992013010908004+69383+020267FM-12+000699999V0203301N002019999999N9999999N1+00031-00011100741ADDMA1999999100681MD1310271+9999REMSYN060AAXX  09081 01037 46/// /3302 10003 21001 30068 40074 53027;
0101010370999992013010909004+69383+020267FM-12+000699999V0203301N001019999999N9999999N1+00011-00031100831ADDMA1999999100771MD1310331+9999REMSYN060AAXX  09091 01037 46/// /3301 10001 21003 30077 40083 53033;
0101010370999992013010910004+69383+020267FM-12+000699999V0200101N001019999999N9999999N1+00021-00011100901ADDMA1999999100841MD1110291+9999REMSYN060AAXX  09101 01037 46/// /0101 10002 21001 30084 40090 51029;
0101010370999992013010911004+69383+020267FM-12+000699999V0203601N001019999999N9999999N1+00031+00001100961ADDMA1999999100901MD1110231+9999REMSYN060AAXX  09111 01037 46/// /3601 10003 20000 30090 40096 51023;
0128010370999992013010912004+69383+020267FM-12+000699999V0203301N001019999999N9999999N1+00061+00031101041ADDAA106001091MA1999999100981MD1310201+9999REMSYN076AAXX  09121 01037 16/// /3301 10006 20003 30098 40104 53020 60011 333 91106;
0101010370999992013010913004+69383+020267FM-12+000699999V0202901N003019999999N9999999N1+00111+00071101101ADDMA1999999101041MD1310201+9999REMSYN060AAXX  09131 01037 46/// /2903 10011 20007 30104 40110 53020;
0101010370999992013010914004+69383+020267FM-12+000699999V0203201N003019999999N9999999N1+00101+00061101171ADDMA1999999101111MD1210211+9999REMSYN060AAXX  09141 01037 46/// /3203 10010 20006 30111 40117 52021;
0101010370999992013010915004+69383+020267FM-12+000699999V0203401N002019999999N9999999N1+00091+00051101231ADDMA1999999101171MD1210191+9999REMSYN060AAXX  09151 01037 46/// /3402 10009 20005 30117 40123 52019;
0101010370999992013010916004+69383+020267FM-12+000699999V0203201N002019999999N9999999N1+00121+00081101291ADDMA1999999101231MD1210191+9999REMSYN060AAXX  09161 01037 46/// /3202 10012 20008 30123 40129 52019;
0101010370999992013010917004+69383+020267FM-12+000699999V0203101N002019999999N9999999N1+00151+00121101381ADDMA1999999101321MD1310211+9999REMSYN060AAXX  09171 01037 46/// /3102 10015 20012 30132 40138 53021;
0147010370999992013010918004+69383+020267FM-12+000699999V0202801N003019999999N9999999N1+00261+00111101431ADDAA112003091KA1120M+00261MA1999999101371MD1210201+9999REMSYN082AAXX  09181 01037 16/// /2803 10026 20011 30137 40143 52020 60032 333 10026 91106;
0101010370999992013010919004+69383+020267FM-12+000699999V0202801N004019999999N9999999N1+00301+00111101481ADDMA1999999101421MD1110201+9999REMSYN060AAXX  09191 01037 46/// /2804 10030 20011 30142 40148 51020;
0101010370999992013010920004+69383+020267FM-12+000699999V0203601N004019999999N9999999N1+00271+00091101561ADDMA1999999101501MD1310181+9999REMSYN060AAXX  09201 01037 46/// /3604 10027 20009 30150 40156 53018;
0101010370999992013010921004+69383+020267FM-12+000699999V0203601N005019999999N9999999N1+00271+00141101641ADDMA1999999101581MD1310211+9999REMSYN060AAXX  09211 01037 46/// /3605 10027 20014 30158 40164 53021;
0101010370999992013010922004+69383+020267FM-12+000699999V0203301N004019999999N9999999N1+00261+00111101691ADDMA1999999101631MD1210201+9999REMSYN060AAXX  09221 01037 46/// /3304 10026 20011 30163 40169 52020;
0101010370999992013010923004+69383+020267FM-12+000699999V0203401N003019999999N9999999N1+00241+00121101771ADDMA1999999101711MD1310211+9999REMSYN060AAXX  09231 01037 46/// /3403 10024 20012 30171 40177 53021;
0147010370999992013011000004+69383+020267FM-12+000699999V0203201N002019999999N9999999N1+00231+00131101831ADDAA106000091MA1999999101771MD1310201+9999REMSYN076AAXX  10001 01037 16/// /3202 10023 20013 30177 40183 53020 60001 333 91110;EQDQ01  00002PRCP06
0101010370999992013011001004+69383+020267FM-12+000699999V0203101N001019999999N9999999N1+00201+00071101901ADDMA1999999101841MD1310221+9999REMSYN060AAXX  10011 01037 46/// /3101 10020 20007 30184 40190 53022;
0101010370999992013011002004+69383+020267FM-12+000699999V0202901N003019999999N9999999N1+00241+00061101971ADDMA1999999101911MD1310201+9999REMSYN060AAXX  10021 01037 46/// /2903 10024 20006 30191 40197 53020;
0101010370999992013011003004+69383+020267FM-12+000699999V0209999C000019999999N9999999N1-00141-00201102021ADDMA1999999101961MD1210191+9999REMSYN060AAXX  10031 01037 46/// /0000 11014 21020 30196 40202 52019;
0101010370999992013011004004+69383+020267FM-12+000699999V0201301N001019999999N9999999N1-00111-00131102061ADDMA1999999102001MD1210151+9999REMSYN060AAXX  10041 01037 46/// /1301 11011 21013 30200 40206 52015;
0101010370999992013011005004+69383+020267FM-12+000699999V0200901N001019999999N9999999N1-00241-00281102101ADDMA1999999102041MD1210131+9999REMSYN060AAXX  10051 01037 46/// /0901 11024 21028 30204 40210 52013;
0183010370999992013011006004+69383+020267FM-12+000699999V0200401N001019999999N9999999N1-00261-00281102121ADDAA112000091AA224002891KA1999N-00281MA1999999102061MD1210101+9999REMSYN088AAXX  10061 01037 16/// /0401 11026 21028 30206 40212 52010 60002 333 21028 70028 91105;EQDQ01  00002PRCP12
0101010370999992013011007004+69383+020267FM-12+000699999V0200701N001019999999N9999999N1-00201-00221102181ADDMA1999999102121MD1310121+9999REMSYN060AAXX  10071 01037 46/// /0701 11020 21022 30212 40218 53012;
0101010370999992013011008004+69383+020267FM-12+000699999V0201201N001019999999N9999999N1-00151-00171102251ADDMA1999999102191MD1310151+9999REMSYN060AAXX  10081 01037 46/// /1201 11015 21017 30219 40225 53015;
0101010370999992013011009004+69383+020267FM-12+000699999V0201701N001019999999N9999999N1-00121-00141102261ADDMA1999999102201MD1110141+9999REMSYN060AAXX  10091 01037 46/// /1701 11012 21014 30220 40226 51014;
0101010370999992013011010004+69383+020267FM-12+000699999V0201901N001019999999N9999999N1-00111-00121102291ADDMA1999999102231MD1110111+9999REMSYN060AAXX  10101 01037 46/// /1901 11011 21012 30223 40229 51011;
0101010370999992013011011004+69383+020267FM-12+000699999V0201201N001019999999N9999999N1-00111-00131102271ADDMA1999999102211MD1010021+9999REMSYN060AAXX  10111 01037 46/// /1201 11011 21013 30221 40227 50002;
0128010370999992013011012004+69383+020267FM-12+000699999V0209999C000019999999N9999999N1-00231-00251102261ADDAA106000391MA1999999102201MD1010001+9999REMSYN076AAXX  10121 01037 16/// /0000 11023 21025 30220 40226 50000 69931 333 91102;
0101010370999992013011013004+69383+020267FM-12+000699999V0209999C000019999999N9999999N1-00241-00261102301ADDMA1999999102241MD1510011+9999REMSYN060AAXX  10131 01037 46/// /0000 11024 21026 30224 40230 55001;
0101010370999992013011014004+69383+020267FM-12+000699999V0201101N002019999999N9999999N1-00271-00291102301ADDMA1999999102241MD1310031+9999REMSYN060AAXX  10141 01037 46/// /1102 11027 21029 30224 40230 53003;
0101010370999992013011015004+69383+020267FM-12+000699999V0201601N001019999999N9999999N1-00341-00361102301ADDMA1999999102241MD1010041+9999REMSYN060AAXX  10151 01037 46/// /1601 11034 21036 30224 40230 50004;
0101010370999992013011016004+69383+020267FM-12+000699999V0201101N001019999999N9999999N1-00491-00531102301ADDMA1999999102241MD1410001+9999REMSYN060AAXX  10161 01037 46/// /1101 11049 21053 30224 40230 54001;
0101010370999992013011017004+69383+020267FM-12+000699999V0201101N002019999999N9999999N1-00561-00601102291ADDMA1999999102231MD1410001+9999REMSYN060AAXX  10171 01037 46/// /1102 11056 21060 30223 40229 54001;
0166010370999992013011018004+69383+020267FM-12+000699999V0201301N002019999999N9999999N1-00561-00601102301ADDAA112000091KA1120M-00101MA1999999102241MD1410001+9999REMSYN082AAXX  10181 01037 16/// /1302 11056 21060 30224 40230 54001 60002 333 11010 91103;EQDQ01  00002PRCP12
0101010370999992013011019004+69383+020267FM-12+000699999V0201201N001019999999N9999999N1-00551-00601102291ADDMA1999999102231MD1710011+9999REMSYN060AAXX  10191 01037 46/// /1201 11055 21060 30223 40229 57001;
0101010370999992013011020004+69383+020267FM-12+000699999V0201301N001019999999N9999999N1-00611-00661102291ADDMA1999999102231MD1010001+9999REMSYN060AAXX  10201 01037 46/// /1301 11061 21066 30223 40229 50000;
0101010370999992013011021004+69383+020267FM-12+000699999V0201401N001019999999N9999999N1-00571-00611102281ADDMA1999999102221MD1710021+9999REMSYN060AAXX  10211 01037 46/// /1401 11057 21061 30222 40228 57002;
0101010370999992013011022004+69383+020267FM-12+000699999V0201001N002019999999N9999999N1-00571-00611102281ADDMA1999999102221MD1710021+9999REMSYN060AAXX  10221 01037 46/// /1002 11057 21061 30222 40228 57002;
0101010370999992013011023004+69383+020267FM-12+000699999V0200901N002019999999N9999999N1-00571-00611102261ADDMA1999999102201MD1810031+9999REMSYN060AAXX  10231 01037 46/// /0902 11057 21061 30220 40226 58003;
0147010370999992013011100004+69383+020267FM-12+000699999V0201101N001019999999N9999999N1-00561-00611102271ADDAA106000091MA1999999102201MD1810021+9999REMSYN076AAXX  11001 01037 16/// /1101 11056 21061 30220 40227 58002 60001 333 91102;EQDQ01  00002PRCP06
0101010370999992013011101004+69383+020267FM-12+000699999V0201101N001019999999N9999999N1-00651-00711102211ADDMA1999999102151MD1810071+9999REMSYN060AAXX  11011 01037 46/// /1101 11065 21071 30215 40221 58007;
0101010370999992013011102004+69383+020267FM-12+000699999V0201301N001019999999N9999999N1-00681-00731102201ADDMA1999999102141MD1810061+9999REMSYN060AAXX  11021 01037 46/// /1301 11068 21073 30214 40220 58006;
0101010370999992013011103004+69383+020267FM-12+000699999V0201301N002019999999N9999999N1-00601-00641102191ADDMA1999999102131MD1610071+9999REMSYN060AAXX  11031 01037 46/// /1302 11060 21064 30213 40219 56007;
0101010370999992013011104004+69383+020267FM-12+000699999V0201501N002019999999N9999999N1-00591-00641102131ADDMA1999999102071MD1810081+9999REMSYN060AAXX  11041 01037 46/// /1502 11059 21064 30207 40213 58008;
0101010370999992013011105004+69383+020267FM-12+000699999V0201201N001019999999N9999999N1-00601-00661102071ADDMA1999999102011MD1810131+9999REMSYN060AAXX  11051 01037 46/// /1201 11060 21066 30201 40207 58013;
0199010370999992013011106004+69383+020267FM-12+000699999V0201501N002019999999N9999999N1-00551-00621102061ADDAA112000091AA224000091KA1999N-00701MA1999999102001MD1610131+9999REMSYN088AAXX  11061 01037 16/// /1502 11055 21062 30200 40206 56013 60002 333 21070 70000 91105;EQDQ01  00002PRCP24Q02  00002PRCP12
0101010370999992013011107004+69383+020267FM-12+000699999V0201101N002019999999N9999999N1-00421-00491102021ADDMA1999999101961MD1710111+9999REMSYN060AAXX  11071 01037 46/// /1102 11042 21049 30196 40202 57011;
0101010370999992013011108004+69383+020267FM-12+000699999V0202101N004019999999N9999999N1-00021-00381102001ADDMA1999999101941MD1810071+9999REMSYN060AAXX  11081 01037 46/// /2104 11002 21038 30194 40200 58007;
0101010370999992013011109004+69383+020267FM-12+000699999V0202401N005019999999N9999999N1+00281-00291101971ADDMA1999999101911MD1710091+9999REMSYN060AAXX  11091 01037 46/// /2405 10028 21029 30191 40197 57009;
0101010370999992013011110004+69383+020267FM-12+000699999V0202401N005019999999N9999999N1+00321-00331101941ADDMA1999999101881MD1710081+9999REMSYN060AAXX  11101 01037 46/// /2405 10032 21033 30188 40194 57008;
0101010370999992013011111004+69383+020267FM-12+000699999V0202401N006019999999N9999999N1+00331-00331101921ADDMA1999999101861MD1710081+9999REMSYN060AAXX  11111 01037 46/// /2406 10033 21033 30186 40192 57008;
0128010370999992013011112004+69383+020267FM-12+000699999V0202401N006019999999N9999999N1+00351-00311101871ADDAA106000591MA1999999101811MD1810101+9999REMSYN076AAXX  11121 01037 16/// /2406 10035 21031 30181 40187 58010 69951 333 91112;
0101010370999992013011113004+69383+020267FM-12+000699999V0202401N005019999999N9999999N1+00401-00331101861ADDMA1999999101801MD1710081+9999REMSYN060AAXX  11131 01037 46/// /2405 10040 21033 30180 40186 57008;
0101010370999992013011114004+69383+020267FM-12+000699999V0202601N005019999999N9999999N1+00371-00351101851ADDMA1999999101791MD1510061+9999REMSYN060AAXX  11141 01037 46/// /2605 10037 21035 30179 40185 55006;
0101010370999992013011115004+69383+020267FM-12+000699999V0202701N005019999999N9999999N1+00331-00161101821ADDMA1999999101761MD1710061+9999REMSYN060AAXX  11151 01037 46/// /2705 10033 21016 30176 40182 57006;
0101010370999992013011116004+69383+020267FM-12+000699999V0202601N005019999999N9999999N1+00411-00231101801ADDMA1999999101741MD1710061+9999REMSYN060AAXX  11161 01037 46/// /2605 10041 21023 30174 40180 57006;
0101010370999992013011117004+69383+020267FM-12+000699999V0202601N004019999999N9999999N1+00431-00231101771ADDMA1999999101711MD1710081+9999REMSYN060AAXX  11171 01037 46/// /2604 10043 21023 30171 40177 57008;
0147010370999992013011118004+69383+020267FM-12+000699999V0202701N004019999999N9999999N1+00431-00211101771ADDAA112000591KA1120M+00491MA1999999101711MD1710051+9999REMSYN082AAXX  11181 01037 16/// /2704 10043 21021 30171 40177 57005 69952 333 10049 91113;
0101010370999992013011119004+69383+020267FM-12+000699999V0202501N005019999999N9999999N1+00421-00181101781ADDMA1999999101721MD1710021+9999REMSYN060AAXX  11191 01037 46/// /2505 10042 21018 30172 40178 57002;
0101010370999992013011120004+69383+020267FM-12+000699999V0202701N005019999999N9999999N1+00421-00161101801ADDMA1999999101741MD1210021+9999REMSYN060AAXX  11201 01037 46/// /2705 10042 21016 30174 40180 52002;
0101010370999992013011121004+69383+020267FM-12+000699999V0202601N004019999999N9999999N1+00471-00151101791ADDMA1999999101731MD1010021+9999REMSYN060AAXX  11211 01037 46/// /2604 10047 21015 30173 40179 50002;
0101010370999992013011122004+69383+020267FM-12+000699999V0202701N005019999999N9999999N1+00451-00111101781ADDMA1999999101721MD1010001+9999REMSYN060AAXX  11221 01037 46/// /2705 10045 21011 30172 40178 50000;
0101010370999992013011123004+69383+020267FM-12+000699999V0202601N005019999999N9999999N1+00471-00111101761ADDMA1999999101701MD1810031+9999REMSYN060AAXX  11231 01037 46/// /2605 10047 21011 30170 40176 58003;
0147010370999992013011200004+69383+020267FM-12+000699999V0202601N005019999999N9999999N1+00531-00141101721ADDAA106000091MA1999999101661MD1810071+9999REMSYN076AAXX  12001 01037 16/// /2605 10053 21014 30166 40172 58007 60001 333 91114;EQDQ01  00002PRCP06
0101010370999992013011201004+69383+020267FM-12+000699999V0202501N004019999999N9999999N1+00591-00151101721ADDMA1999999101661MD1710061+9999REMSYN060AAXX  12011 01037 46/// /2504 10059 21015 30166 40172 57006;
0101010370999992013011202004+69383+020267FM-12+000699999V0202701N003019999999N9999999N1+00611-00151101691ADDMA1999999101631MD1710071+9999REMSYN060AAXX  12021 01037 46/// /2703 10061 21015 30163 40169 57007;
0101010370999992013011203004+69383+020267FM-12+000699999V0202701N004019999999N9999999N1+00591-00101101671ADDMA1999999101611MD1810041+9999REMSYN060AAXX  12031 01037 46/// /2704 10059 21010 30161 40167 58004;
0101010370999992013011204004+69383+020267FM-12+000699999V0202401N005019999999N9999999N1+00611-00111101651ADDMA1999999101601MD1710071+9999REMSYN060AAXX  12041 01037 46/// /2405 10061 21011 30160 40165 57007;
0101010370999992013011205004+69383+020267FM-12+000699999V0202601N005019999999N9999999N1+00581-00051101631ADDMA1999999101571MD1710061+9999REMSYN060AAXX  12051 01037 46/// /2605 10058 21005 30157 40163 57006;
0183010370999992013011206004+69383+020267FM-12+000699999V0202701N008019999999N9999999N1+00481+00041101631ADDAA112000091AA224000591KA1999N+00371MA1999999101571MD1510041+9999REMSYN088AAXX  12061 01037 16/// /2708 10048 20004 30157 40163 55004 60002 333 20037 70005 91112;EQDQ01  00002PRCP12
0101010370999992013011207004+69383+020267FM-12+000699999V0203201N006019999999N9999999N1+00441+00071101691ADDMA1999999101631MD1310041+9999REMSYN060AAXX  12071 01037 46/// /3206 10044 20007 30163 40169 53004;
0101010370999992013011208004+69383+020267FM-12+000699999V0203101N005019999999N9999999N1+00481+00081101731ADDMA1999999101671MD1310101+9999REMSYN060AAXX  12081 01037 46/// /3105 10048 20008 30167 40173 53010;
0101010370999992013011209004+69383+020267FM-12+000699999V0203001N005019999999N9999999N1+00441+00111101751ADDMA1999999101691MD1210121+9999REMSYN060AAXX  12091 01037 46/// /3005 10044 20011 30169 40175 52012;
0101010370999992013011210004+69383+020267FM-12+000699999V0203001N005019999999N9999999N1+00441+00091101771ADDMA1999999101711MD1210081+9999REMSYN060AAXX  12101 01037 46/// /3005 10044 20009 30171 40177 52008;
0101010370999992013011211004+69383+020267FM-12+000699999V0203101N004019999999N9999999N1+00421+00111101791ADDMA1999999101741MD1210061+9999REMSYN060AAXX  12111 01037 46/// /3104 10042 20011 30174 40179 52006;
0147010370999992013011212004+69383+020267FM-12+000699999V0203101N004019999999N9999999N1+00441+00091101801ADDAA106000091MA1999999101741MD1210051+9999REMSYN076AAXX  12121 01037 16/// /3104 10044 20009 30174 40180 52005 60001 333 91112;EQDQ01  00002PRCP06
0101010370999992013011213004+69383+020267FM-12+000699999V0203301N003019999999N9999999N1+00381+00021101801ADDMA1999999101741MD1210031+9999REMSYN060AAXX  12131 01037 46/// /3303 10038 20002 30174 40180 52003;
0101010370999992013011214004+69383+020267FM-12+000699999V0203501N003019999999N9999999N1+00411-00111101801ADDMA1999999101741MD1410001+9999REMSYN060AAXX  12141 01037 46/// /3503 10041 21011 30174 40180 54001;
0101010370999992013011215004+69383+020267FM-12+000699999V0203601N003019999999N9999999N1+00451-00111101811ADDMA1999999101751MD1410001+9999REMSYN060AAXX  12151 01037 46/// /3603 10045 21011 30175 40181 54001;
0101010370999992013011216004+69383+020267FM-12+000699999V0203101N005019999999N9999999N1+00461-00121101821ADDMA1999999101761MD1210021+9999REMSYN060AAXX  12161 01037 46/// /3105 10046 21012 30176 40182 52002;
0101010370999992013011217004+69383+020267FM-12+000699999V0203101N003019999999N9999999N1+00411-00251101821ADDMA1999999101761MD1210021+9999REMSYN060AAXX  12171 01037 46/// /3103 10041 21025 30176 40182 52002;
0166010370999992013011218004+69383+020267FM-12+000699999V0200901N001019999999N9999999N1+00261-00251101881ADDAA112000091KA1120M+00491MA1999999101821MD1310071+9999REMSYN082AAXX  12181 01037 16/// /0901 10026 21025 30182 40188 53007 60002 333 10049 91109;EQDQ01  00002PRCP12
0101010370999992013011219004+69383+020267FM-12+000699999V0201101N001019999999N9999999N1-00201-00381101901ADDMA1999999101841MD1310081+9999REMSYN060AAXX  12191 01037 46/// /1101 11020 21038 30184 40190 53008;
0101010370999992013011220004+69383+020267FM-12+000699999V0201501N001019999999N9999999N1-00211-00321101921ADDMA1999999101861MD1110091+9999REMSYN060AAXX  12201 01037 46/// /1501 11021 21032 30186 40192 51009;
0101010370999992013011221004+69383+020267FM-12+000699999V0201201N001019999999N9999999N1-00301-00401101941ADDMA1999999101881MD1210061+9999REMSYN060AAXX  12211 01037 46/// /1201 11030 21040 30188 40194 52006;
0101010370999992013011222004+69383+020267FM-12+000699999V0201301N001019999999N9999999N1-00281-00381101931ADDMA1999999101871MD1210031+9999REMSYN060AAXX  12221 01037 46/// /1301 11028 21038 30187 40193 52003;
0101010370999992013011223004+69383+020267FM-12+000699999V0201301N001019999999N9999999N1-00271-00391101911ADDMA1999999101851MD1810011+9999REMSYN060AAXX  12231 01037 46/// /1301 11027 21039 30185 40191 58001;
0147010370999992013011300004+69383+020267FM-12+000699999V0201401N002019999999N9999999N1-00321-00461101901ADDAA106000091MA1999999101841MD1710041+9999REMSYN076AAXX  13001 01037 16/// /1402 11032 21046 30184 40190 57004 60001 333 91103;EQDQ01  00002PRCP06
0101010370999992013011301004+69383+020267FM-12+000699999V0201301N002019999999N9999999N1-00341-00461101901ADDMA1999999101841MD1710041+9999REMSYN060AAXX  13011 01037 46/// /1302 11034 21046 30184 40190 57004;
0101010370999992013011302004+69383+020267FM-12+000699999V0201401N002019999999N9999999N1-00261-00421101871ADDMA1999999101811MD1710041+9999REMSYN060AAXX  13021 01037 46/// /1402 11026 21042 30181 40187 57004;
0101010370999992013011303004+69383+020267FM-12+000699999V0201301N002019999999N9999999N1-00221-00361101861ADDMA1999999101801MD1710041+9999REMSYN060AAXX  13031 01037 46/// /1302 11022 21036 30180 40186 57004;
0101010370999992013011304004+69383+020267FM-12+000699999V0201401N002019999999N9999999N1-00211-00301101841ADDMA1999999101781MD1710061+9999REMSYN060AAXX  13041 01037 46/// /1402 11021 21030 30178 40184 57006;
0101010370999992013011305004+69383+020267FM-12+000699999V0201501N002019999999N9999999N1-00191-00251101841ADDMA1999999101781MD1710031+9999REMSYN060AAXX  13051 01037 46/// /1502 11019 21025 30178 40184 57003;
0164010370999992013011306004+69383+020267FM-12+000699999V0201601N002019999999N9999999N1-00171-00221101821ADDAA112000591AA224000591KA1999N-00361MA1999999101761MD1710041+9999REMSYN088AAXX  13061 01037 16/// /1602 11017 21022 30176 40182 57004 69952 333 21036 70005 91103;
0101010370999992013011307004+69383+020267FM-12+000699999V0201401N001019999999N9999999N1-00171-00211101811ADDMA1999999101751MD1710031+9999REMSYN060AAXX  13071 01037 46/// /1401 11017 21021 30175 40181 57003;
0101010370999992013011308004+69383+020267FM-12+000699999V0201401N001019999999N9999999N1-00151-00191101821ADDMA1999999101761MD1510021+9999REMSYN060AAXX  13081 01037 46/// /1401 11015 21019 30176 40182 55002;
0101010370999992013011309004+69383+020267FM-12+000699999V0201401N001019999999N9999999N1-00151-00201101801ADDMA1999999101741MD1810021+9999REMSYN060AAXX  13091 01037 46/// /1401 11015 21020 30174 40180 58002;
0101010370999992013011310004+69383+020267FM-12+000699999V0201201N001019999999N9999999N1-00171-00221101761ADDMA1999999101701MD1810051+9999REMSYN060AAXX  13101 01037 46/// /1201 11017 21022 30170 40176 58005;
0101010370999992013011311004+69383+020267FM-12+000699999V0201401N002019999999N9999999N1-00161-00221101751ADDMA1999999101691MD1710071+9999REMSYN060AAXX  13111 01037 46/// /1402 11016 21022 30169 40175 57007;
0147010370999992013011312004+69383+020267FM-12+000699999V0201201N001019999999N9999999N1-00171-00231101751ADDAA106000091MA1999999101691MD1610051+9999REMSYN076AAXX  13121 01037 16/// /1201 11017 21023 30169 40175 56005 60001 333 91103;EQDQ01  00002PRCP06
0101010370999992013011313004+69383+020267FM-12+000699999V0201501N001019999999N9999999N1-00181-00241101701ADDMA1999999101641MD1810061+9999REMSYN060AAXX  13131 01037 46/// /1501 11018 21024 30164 40170 58006;
0101010370999992013011314004+69383+020267FM-12+000699999V0201301N001019999999N9999999N1-00181-00241101661ADDMA1999999101601MD1810091+9999REMSYN060AAXX  13141 01037 46/// /1301 11018 21024 30160 40166 58009;
0101010370999992013011315004+69383+020267FM-12+000699999V0201301N002019999999N9999999N1-00201-00271101651ADDMA1999999101591MD1710101+9999REMSYN060AAXX  13151 01037 46/// /1302 11020 21027 30159 40165 57010;
0101010370999992013011316004+69383+020267FM-12+000699999V0201701N001019999999N9999999N1-00201-00261101611ADDMA1999999101551MD1810091+9999REMSYN060AAXX  13161 01037 46/// /1701 11020 21026 30155 40161 58009;
0101010370999992013011317004+69383+020267FM-12+000699999V0201201N001019999999N9999999N1-00251-00301101581ADDMA1999999101521MD1810081+9999REMSYN060AAXX  13171 01037 46/// /1201 11025 21030 30152 40158 58008;
0166010370999992013011318004+69383+020267FM-12+000699999V0201501N002019999999N9999999N1-00221-00271101551ADDAA112000091KA1120M-00141MA1999999101491MD1710101+9999REMSYN082AAXX  13181 01037 16/// /1502 11022 21027 30149 40155 57010 60002 333 11014 91103;EQDQ01  00002PRCP12
0101010370999992013011319004+69383+020267FM-12+000699999V0201001N002019999999N9999999N1-00161-00221101501ADDMA1999999101441MD1710111+9999REMSYN060AAXX  13191 01037 46/// /1002 11016 21022 30144 40150 57011;
0101010370999992013011320004+69383+020267FM-12+000699999V0201301N002019999999N9999999N1-00081-00171101461ADDMA1999999101401MD1710121+9999REMSYN060AAXX  13201 01037 46/// /1302 11008 21017 30140 40146 57012;
0101010370999992013011321004+69383+020267FM-12+000699999V0202301N003019999999N9999999N1+00291-00131101441ADDMA1999999101381MD1710121+9999REMSYN060AAXX  13211 01037 46/// /2303 10029 21013 30138 40144 57012;
0101010370999992013011322004+69383+020267FM-12+000699999V0202401N004019999999N9999999N1+00351-00241101431ADDMA1999999101371MD1710071+9999REMSYN060AAXX  13221 01037 46/// /2404 10035 21024 30137 40143 57007;
0101010370999992013011323004+69383+020267FM-12+000699999V0202401N004019999999N9999999N1+00381-00321101391ADDMA1999999101331MD1810071+9999REMSYN060AAXX  13231 01037 46/// /2404 10038 21032 30133 40139 58007;
0128010370999992013011400004+69383+020267FM-12+000699999V0202401N004019999999N9999999N1+00371-00311101371ADDAA106000591MA1999999101311MD1810061+9999REMSYN076AAXX  14001 01037 16/// /2404 10037 21031 30131 40137 58006 69961 333 91111;
0101010370999992013011401004+69383+020267FM-12+000699999V0202501N003019999999N9999999N1+00351-00291101371ADDMA1999999101311MD1710061+9999REMSYN060AAXX  14011 01037 46/// /2503 10035 21029 30131 40137 57006;
0101010370999992013011402004+69383+020267FM-12+000699999V0202501N003019999999N9999999N1+00351-00331101321ADDMA1999999101261MD1810071+9999REMSYN060AAXX  14021 01037 46/// /2503 10035 21033 30126 40132 58007;
0101010370999992013011403004+69383+020267FM-12+000699999V0202701N002019999999N9999999N1+00361-00321101271ADDMA1999999101211MD1810101+9999REMSYN060AAXX  14031 01037 46/// /2702 10036 21032 30121 40127 58010;
0101010370999992013011404004+69383+020267FM-12+000699999V0202501N004019999999N9999999N1+00371-00311101251ADDMA1999999101191MD1710121+9999REMSYN060AAXX  14041 01037 46/// /2504 10037 21031 30119 40125 57012;
0101010370999992013011405004+69383+020267FM-12+000699999V0202301N006019999999N9999999N1+00341-00291101241ADDMA1999999101191MD1610081+9999REMSYN060AAXX  14051 01037 46/// /2306 10034 21029 30119 40124 56008;
0164010370999992013011406004+69383+020267FM-12+000699999V0202401N005019999999N9999999N1+00331-00261101231ADDAA112000591AA224000591KA1999N-00221MA1999999101171MD1710041+9999REMSYN088AAXX  14061 01037 16/// /2405 10033 21026 30117 40123 57004 69942 333 21022 70004 91111;
0101010370999992013011407004+69383+020267FM-12+000699999V0202401N005019999999N9999999N1+00341-00321101231ADDMA1999999101171MD1510021+9999REMSYN060AAXX  14071 01037 46/// /2405 10034 21032 30117 40123 55002;
0101010370999992013011408004+69383+020267FM-12+000699999V0202601N004019999999N9999999N1+00191-00081101291ADDMA1999999101231MD1310051+9999REMSYN060AAXX  14081 01037 46/// /2604 10019 21008 30123 40129 53005;
0101010370999992013011409004+69383+020267FM-12+000699999V0202501N004019999999N9999999N1+00311-00201101271ADDMA1999999101211MD1010041+9999REMSYN060AAXX  14091 01037 46/// /2504 10031 21020 30121 40127 50004;
0101010370999992013011410004+69383+020267FM-12+000699999V0202501N003019999999N9999999N1+00131-00021101341ADDMA1999999101281MD1310111+9999REMSYN060AAXX  14101 01037 46/// /2503 10013 21002 30128 40134 53011;
0101010370999992013011411004+69383+020267FM-12+000699999V0202901N003019999999N9999999N1+00131+00041101351ADDMA1999999101291MD1310061+9999REMSYN060AAXX  14111 01037 46/// /2903 10013 20004 30129 40135 53006;
0128010370999992013011412004+69383+020267FM-12+000699999V0202801N001019999999N9999999N1+00081+00011101371ADDAA106000591MA1999999101321MD1110101+9999REMSYN076AAXX  14121 01037 16/// /2801 10008 20001 30132 40137 51010 69961 333 91111;
0101010370999992013011413004+69383+020267FM-12+000699999V0202401N001019999999N9999999N1+00081+00021101411ADDMA1999999101351MD1310071+9999REMSYN060AAXX  14131 01037 46/// /2401 10008 20002 30135 40141 53007;
0101010370999992013011414004+69383+020267FM-12+000699999V0203401N003019999999N9999999N1+00071+00011101461ADDMA1999999101401MD1310111+9999REMSYN060AAXX  14141 01037 46/// /3403 10007 20001 30140 40146 53011;
0101010370999992013011415004+69383+020267FM-12+000699999V0203301N003019999999N9999999N1+00061+00001101501ADDMA1999999101451MD1210131+9999REMSYN060AAXX  14151 01037 46/// /3303 10006 20000 30145 40150 52013;
0101010370999992013011416004+69383+020267FM-12+000699999V0203301N003019999999N9999999N1+00071-00031101571ADDMA1999999101511MD1210161+9999REMSYN060AAXX  14161 01037 46/// /3303 10007 21003 30151 40157 52016;
0101010370999992013011417004+69383+020267FM-12+000699999V0203401N004019999999N9999999N1+00051-00121101611ADDMA1999999101551MD1210151+9999REMSYN060AAXX  14171 01037 46/// /3404 10005 21012 30155 40161 52015;
0147010370999992013011418004+69383+020267FM-12+000699999V0203401N002019999999N9999999N1+00021-00301101651ADDAA112001091KA1120M+00371MA1999999101591MD1210151+9999REMSYN082AAXX  14181 01037 16/// /3402 10002 21030 30159 40165 52015 60012 333 10037 91107;
0101010370999992013011419004+69383+020267FM-12+000699999V0209999C000019999999N9999999N1-00061-00231101681ADDMA1999999101621MD1210111+9999REMSYN060AAXX  14191 01037 46/// /0000 11006 21023 30162 40168 52011;
0101010370999992013011420004+69383+020267FM-12+000699999V0201201N002019999999N9999999N1-00121-00231101711ADDMA1999999101651MD1210101+9999REMSYN060AAXX  14201 01037 46/// /1202 11012 21023 30165 40171 52010;
0101010370999992013011421004+69383+020267FM-12+000699999V0200201N001019999999N9999999N1-00081-00261101731ADDMA1999999101671MD1210081+9999REMSYN060AAXX  14211 01037 46/// /0201 11008 21026 30167 40173 52008;
0101010370999992013011422004+69383+020267FM-12+000699999V0209999C000019999999N9999999N1-00151-00251101751ADDMA1999999101691MD1210071+9999REMSYN060AAXX  14221 01037 46/// /0000 11015 21025 30169 40175 52007;
0101010370999992013011423004+69383+020267FM-12+000699999V0209999C000019999999N9999999N1-00161-00231101781ADDMA1999999101721MD1210081+9999REMSYN060AAXX  14231 01037 46/// /0000 11016 21023 30172 40178 52008;
0147010370999992013011500004+69383+020267FM-12+000699999V0209999C000019999999N9999999N1-00181-00231101811ADDAA106000091MA1999999101751MD1210071+9999REMSYN076AAXX  15001 01037 16/// /0000 11018 21023 30175 40181 52007 60001 333 91103;EQDQ01  00002PRCP06
0101010370999992013011501004+69383+020267FM-12+000699999V0201301N002019999999N9999999N1-00171-00241101851ADDMA1999999101791MD1210101+9999REMSYN060AAXX  15011 01037 46/// /1302 11017 21024 30179 40185 52010;
0101010370999992013011502004+69383+020267FM-12+000699999V0201701N001019999999N9999999N1-00191-00321101871ADDMA1999999101811MD1210091+9999REMSYN060AAXX  15021 01037 46/// /1701 11019 21032 30181 40187 52009;
0101010370999992013011503004+69383+020267FM-12+000699999V0201401N002019999999N9999999N1-00211-00361101871ADDMA1999999101811MD1110061+9999REMSYN060AAXX  15031 01037 46/// /1402 11021 21036 30181 40187 51006;
0101010370999992013011504004+69383+020267FM-12+000699999V0201501N001019999999N9999999N1-00231-00401101891ADDMA1999999101831MD1210031+9999REMSYN060AAXX  15041 01037 46/// /1501 11023 21040 30183 40189 52003;
0101010370999992013011505004+69383+020267FM-12+000699999V0201501N002019999999N9999999N1-00231-00451101871ADDMA1999999101811MD1010001+9999REMSYN060AAXX  15051 01037 46/// /1502 11023 21045 30181 40187 50000;
0183010370999992013011506004+69383+020267FM-12+000699999V0201401N002019999999N9999999N1-00241-00521101911ADDAA112000091AA224000891KA1999N-00241MA1999999101851MD1310041+9999REMSYN088AAXX  15061 01037 16/// /1402 11024 21052 30185 40191 53004 60002 333 21024 70008 91106;EQDQ01  00002PRCP12
0101010370999992013011507004+69383+020267FM-12+000699999V0201401N002019999999N9999999N1-00351-00661101921ADDMA1999999101861MD1310031+9999REMSYN060AAXX  15071 01037 46/// /1402 11035 21066 30186 40192 53003;
0101010370999992013011508004+69383+020267FM-12+000699999V0201301N001019999999N9999999N1-00611-00771101961ADDMA1999999101901MD1310091+9999REMSYN060AAXX  15081 01037 46/// /1301 11061 21077 30190 40196 53009;
0101010370999992013011509004+69383+020267FM-12+000699999V0201301N002019999999N9999999N1-00661-00781101971ADDMA1999999101911MD1210071+9999REMSYN060AAXX  15091 01037 46/// /1302 11066 21078 30191 40197 52007;
0101010370999992013011510004+69383+020267FM-12+000699999V0201201N002019999999N9999999N1-00631-00781102001ADDMA1999999101941MD1210081+9999REMSYN060AAXX  15101 01037 46/// /1202 11063 21078 30194 40200 52008;
0101010370999992013011511004+69383+020267FM-12+000699999V0201101N002019999999N9999999N1-00691-00821102011ADDMA1999999101951MD1210051+9999REMSYN060AAXX  15111 01037 46/// /1102 11069 21082 30195 40201 52005;
0147010370999992013011512004+69383+020267FM-12+000699999V0201201N002019999999N9999999N1-00701-00851102001ADDAA106000091MA1999999101941MD1010021+9999REMSYN076AAXX  15121 01037 16/// /1202 11070 21085 30194 40200 50002 60001 333 91105;EQDQ01  00002PRCP06
0101010370999992013011513004+69383+020267FM-12+000699999V0201201N002019999999N9999999N1-00731-00861101971ADDMA1999999101911MD1810031+9999REMSYN060AAXX  15131 01037 46/// /1202 11073 21086 30191 40197 58003;
0101010370999992013011514004+69383+020267FM-12+000699999V0201201N001019999999N9999999N1-00881-00971101961ADDMA1999999101901MD1710051+9999REMSYN060AAXX  15141 01037 46/// /1201 11088 21097 30190 40196 57005;
0101010370999992013011515004+69383+020267FM-12+000699999V0201401N001019999999N9999999N1-01011-01081101971ADDMA1999999101911MD1710021+9999REMSYN060AAXX  15151 01037 46/// /1401 11101 21108 30191 40197 57002;
0101010370999992013011516004+69383+020267FM-12+000699999V0201101N001019999999N9999999N1-01091-01161101991ADDMA1999999101931MD1210021+9999REMSYN060AAXX  15161 01037 46/// /1101 11109 21116 30193 40199 52002;
0101010370999992013011517004+69383+020267FM-12+000699999V0201501N001019999999N9999999N1-01201-01291102011ADDMA1999999101951MD1210041+9999REMSYN060AAXX  15171 01037 46/// /1501 11120 21129 30195 40201 52004;
0166010370999992013011518004+69383+020267FM-12+000699999V0201301N002019999999N9999999N1-01091-01161102011ADDAA112000091KA1120M-00241MA1999999101951MD1210031+9999REMSYN082AAXX  15181 01037 16/// /1302 11109 21116 30195 40201 52003 60002 333 11024 91103;EQDQ01  00002PRCP12
0101010370999992013011519004+69383+020267FM-12+000699999V0201501N002019999999N9999999N1-01061-01121101991ADDMA1999999101931MD1010001+9999REMSYN060AAXX  15191 01037 46/// /1502 11106 21112 30193 40199 50000;
0101010370999992013011520004+69383+020267FM-12+000699999V0201501N002019999999N9999999N1-01151-01221101971ADDMA1999999101901MD1710041+9999REMSYN060AAXX  15201 01037 46/// /1502 11115 21122 30190 40197 57004;
0101010370999992013011521004+69383+020267FM-12+000699999V0201401N002019999999N9999999N1-01251-01351101971ADDMA1999999101911MD1710041+9999REMSYN060AAXX  15211 01037 46/// /1402 11125 21135 30191 40197 57004;
0101010370999992013011522004+69383+020267FM-12+000699999V0201301N001019999999N9999999N1-01271-01361101951ADDMA1999999101891MD1710041+9999REMSYN060AAXX  15221 01037 46/// /1301 11127 21136 30189 40195 57004;
0101010370999992013011523004+69383+020267FM-12+000699999V0201401N001019999999N9999999N1-01311-01411101941ADDMA1999999101881MD1710031+9999REMSYN060AAXX  15231 01037 46/// /1401 11131 21141 30188 40194 57003;
0128010370999992013011600004+69383+020267FM-12+000699999V0201601N002019999999N9999999N1-01011-01061101941ADDAA106000391MA1999999101881MD1710031+9999REMSYN076AAXX  16001 01037 16/// /1602 11101 21106 30188 40194 57003 69931 333 91103;
0101010370999992013011601004+69383+020267FM-12+000699999V0201501N002019999999N9999999N1-00631-00711101921ADDMA1999999101861MD1710031+9999REMSYN060AAXX  16011 01037 46/// /1502 11063 21071 30186 40192 57003;
0101010370999992013011602004+69383+020267FM-12+000699999V0201501N002019999999N9999999N1-00611-00731101911ADDMA1999999101851MD1710021+9999REMSYN060AAXX  16021 01037 46/// /1502 11061 21073 30185 40191 57002;
0101010370999992013011603004+69383+020267FM-12+000699999V0201601N003019999999N9999999N1-00641-00841101891ADDMA1999999101831MD1710051+9999REMSYN060AAXX  16031 01037 46/// /1603 11064 21084 30183 40189 57005;
0101010370999992013011604004+69383+020267FM-12+000699999V0201301N002019999999N9999999N1-00701-00891101881ADDMA1999999101821MD1710031+9999REMSYN060AAXX  16041 01037 46/// /1302 11070 21089 30182 40188 57003;
0101010370999992013011605004+69383+020267FM-12+000699999V0201401N003019999999N9999999N1-00751-00961101851ADDMA1999999101791MD1710061+9999REMSYN060AAXX  16051 01037 46/// /1403 11075 21096 30179 40185 57006;
0164010370999992013011606004+69383+020267FM-12+000699999V0201401N002019999999N9999999N1-00771-00951101831ADDAA112000591AA224000591KA1999N-01321MA1999999101771MD1710061+9999REMSYN088AAXX  16061 01037 16/// /1402 11077 21095 30177 40183 57006 69942 333 21132 70004 91106;
0101010370999992013011607004+69383+020267FM-12+000699999V0201601N003019999999N9999999N1-00661-00921101841ADDMA1999999101781MD1510041+9999REMSYN060AAXX  16071 01037 46/// /1603 11066 21092 30178 40184 55004;
0101010370999992013011608004+69383+020267FM-12+000699999V0201401N003019999999N9999999N1-00661-00931101861ADDMA1999999101801MD1510011+9999REMSYN060AAXX  16081 01037 46/// /1403 11066 21093 30180 40186 55001;
0101010370999992013011609004+69383+020267FM-12+000699999V0201801N002019999999N9999999N1-00691-00961101881ADDMA1999999101821MD1210051+9999REMSYN060AAXX  16091 01037 46/// /1802 11069 21096 30182 40188 52005;
0101010370999992013011610004+69383+020267FM-12+000699999V0201401N003019999999N9999999N1-00581-00881101891ADDMA1999999101831MD1210051+9999REMSYN060AAXX  16101 01037 46/// /1403 11058 21088 30183 40189 52005;
0101010370999992013011611004+69383+020267FM-12+000699999V0201601N002019999999N9999999N1-00571-00871101881ADDMA1999999101821MD1210021+9999REMSYN060AAXX  16111 01037 46/// /1602 11057 21087 30182 40188 52002;
0128010370999992013011612004+69383+020267FM-12+000699999V0201601N002019999999N9999999N1-00561-00861101901ADDAA106000591MA1999999101841MD1210021+9999REMSYN076AAXX  16121 01037 16/// /1602 11056 21086 30184 40190 52002 69941 333 91106;
0101010370999992013011613004+69383+020267FM-12+000699999V0201301N001019999999N9999999N1-00741-00951101911ADDMA1999999101841MD1210021+9999REMSYN060AAXX  16131 01037 46/// /1301 11074 21095 30184 40191 52002;
0101010370999992013011614004+69383+020267FM-12+000699999V0200801N001019999999N9999999N1-00791-00971101921ADDMA1999999101851MD1210031+9999REMSYN060AAXX  16141 01037 46/// /0801 11079 21097 30185 40192 52003;
0101010370999992013011615004+69383+020267FM-12+000699999V0201301N002019999999N9999999N1-00871-00951101901ADDMA1999999101841MD1410001+9999REMSYN060AAXX  16151 01037 46/// /1302 11087 21095 30184 40190 54000;
0101010370999992013011616004+69383+020267FM-12+000699999V0201501N001019999999N9999999N1-00841-00971101931ADDMA1999999101871MD1210021+9999REMSYN060AAXX  16161 01037 46/// /1501 11084 21097 30187 40193 52002;
0101010370999992013011617004+69383+020267FM-12+000699999V0201301N002019999999N9999999N1-00831-00961101911ADDMA1999999101851MD1410001+9999REMSYN060AAXX  16171 01037 46/// /1302 11083 21096 30185 40191 54000;
0166010370999992013011618004+69383+020267FM-12+000699999V0201501N002019999999N9999999N1-00801-00961101931ADDAA112000091KA1120M-00541MA1999999101871MD1210031+9999REMSYN082AAXX  16181 01037 16/// /1502 11080 21096 30187 40193 52003 60002 333 11054 91105;EQDQ01  00002PRCP12
0101010370999992013011619004+69383+020267FM-12+000699999V0201501N002019999999N9999999N1-00791-00941101941ADDMA1999999101881MD1210011+9999REMSYN060AAXX  16191 01037 46/// /1502 11079 21094 30188 40194 52001;
0101010370999992013011620004+69383+020267FM-12+000699999V0201301N002019999999N9999999N1-00811-00941101941ADDMA1999999101881MD1210021+9999REMSYN060AAXX  16201 01037 46/// /1302 11081 21094 30188 40194 52002;
0101010370999992013011621004+69383+020267FM-12+000699999V0201501N001019999999N9999999N1-00741-00911101931ADDMA1999999101861MD1410001+9999REMSYN060AAXX  16211 01037 46/// /1501 11074 21091 30186 40193 54001;
0101010370999992013011622004+69383+020267FM-12+000699999V0201201N002019999999N9999999N1-00781-00911101901ADDMA1999999101841MD1710031+9999REMSYN060AAXX  16221 01037 46/// /1202 11078 21091 30184 40190 57003;
0101010370999992013011623004+69383+020267FM-12+000699999V0201301N002019999999N9999999N1-00721-00881101911ADDMA1999999101851MD1710031+9999REMSYN060AAXX  16231 01037 46/// /1302 11072 21088 30185 40191 57003;
0128010370999992013011700004+69383+020267FM-12+000699999V0201301N002019999999N9999999N1-00671-00861101891ADDAA106000591MA1999999101831MD1710041+9999REMSYN076AAXX  17001 01037 16/// /1302 11067 21086 30183 40189 57004 69951 333 91104;
0101010370999992013011701004+69383+020267FM-12+000699999V0201401N002019999999N9999999N1-00701-00861101901ADDMA1999999101831MD1410001+9999REMSYN060AAXX  17011 01037 46/// /1402 11070 21086 30183 40190 54001;
0101010370999992013011702004+69383+020267FM-12+000699999V0201401N002019999999N9999999N1-00671-00831101871ADDMA1999999101811MD1810041+9999REMSYN060AAXX  17021 01037 46/// /1402 11067 21083 30181 40187 58004;
0101010370999992013011703004+69383+020267FM-12+000699999V0201201N001019999999N9999999N1-00681-00841101861ADDMA1999999101801MD1810031+9999REMSYN060AAXX  17031 01037 46/// /1201 11068 21084 30180 40186 58003;
0101010370999992013011704004+69383+020267FM-12+000699999V0201101N001019999999N9999999N1-00681-00811101811ADDMA1999999101751MD1810091+9999REMSYN060AAXX  17041 01037 46/// /1101 11068 21081 30175 40181 58009;
0101010370999992013011705004+69383+020267FM-12+000699999V0202501N001019999999N9999999N1-00611-00781101781ADDMA1999999101721MD1810091+9999REMSYN060AAXX  17051 01037 46/// /2501 11061 21078 30172 40178 58009;
0164010370999992013011706004+69383+020267FM-12+000699999V0201101N002019999999N9999999N1-00641-00791101741ADDAA112000891AA224000891KA1999N-00861MA1999999101681MD1710131+9999REMSYN088AAXX  17061 01037 16/// /1102 11064 21079 30168 40174 57013 69972 333 21086 70007 91104;
0101010370999992013011707004+69383+020267FM-12+000699999V0200801N002019999999N9999999N1-00611-00771101711ADDMA1999999101651MD1710091+9999REMSYN060AAXX  17071 01037 46/// /0802 11061 21077 30165 40171 57009;
0101010370999992013011708004+69383+020267FM-12+000699999V0201001N001019999999N9999999N1-00541-00761101701ADDMA1999999101641MD1710091+9999REMSYN060AAXX  17081 01037 46/// /1001 11054 21076 30164 40170 57009;
0101010370999992013011709004+69383+020267FM-12+000699999V0201501N002019999999N9999999N1-00531-00771101691ADDMA1999999101631MD1710041+9999REMSYN060AAXX  17091 01037 46/// /1502 11053 21077 30163 40169 57004;
0101010370999992013011710004+69383+020267FM-12+000699999V0201201N002019999999N9999999N1-00521-00781101681ADDMA1999999101621MD1710031+9999REMSYN060AAXX  17101 01037 46/// /1202 11052 21078 30162 40168 57003;
0101010370999992013011711004+69383+020267FM-12+000699999V0201401N002019999999N9999999N1-00411-00781101641ADDMA1999999101581MD1810061+9999REMSYN060AAXX  17111 01037 46/// /1402 11041 21078 30158 40164 58006;
0147010370999992013011712004+69383+020267FM-12+000699999V0201001N002019999999N9999999N1-00451-00801101621ADDAA106000091MA1999999101561MD1810071+9999REMSYN076AAXX  17121 01037 16/// /1002 11045 21080 30156 40162 58007 60001 333 91105;EQDQ01  00002PRCP06
0101010370999992013011713004+69383+020267FM-12+000699999V0202001N002019999999N9999999N1-00141-00841101591ADDMA1999999101531MD1710091+9999REMSYN060AAXX  17131 01037 46/// /2002 11014 21084 30153 40159 57009;
0101010370999992013011714004+69383+020267FM-12+000699999V0201001N002019999999N9999999N1-00351-00851101541ADDMA1999999101481MD1710091+9999REMSYN060AAXX  17141 01037 46/// /1002 11035 21085 30148 40154 57009;
0101010370999992013011715004+69383+020267FM-12+000699999V0200901N002019999999N9999999N1-00341-00861101551ADDMA1999999101491MD1610071+9999REMSYN060AAXX  17151 01037 46/// /0902 11034 21086 30149 40155 56007;
0101010370999992013011716004+69383+020267FM-12+000699999V0203501N002019999999N9999999N1+00011-00981101491ADDMA1999999101431MD1810101+9999REMSYN060AAXX  17161 01037 46/// /3502 10001 21098 30143 40149 58010;
0101010370999992013011717004+69383+020267FM-12+000699999V0201801N001019999999N9999999N1-00181-00821101391ADDMA1999999101331MD1810151+9999REMSYN060AAXX  17171 01037 46/// /1801 11018 21082 30133 40139 58015;
0166010370999992013011718004+69383+020267FM-12+000699999V0201201N002019999999N9999999N1-00251-00791101321ADDAA112000091KA1120M+00091MA1999999101261MD1810231+9999REMSYN082AAXX  17181 01037 16/// /1202 11025 21079 30126 40132 58023 60002 333 10009 91108;EQDQ01  00002PRCP12
0101010370999992013011719004+69383+020267FM-12+000699999V0201601N002019999999N9999999N1-00241-00741101261ADDMA1999999101201MD1610231+9999REMSYN060AAXX  17191 01037 46/// /1602 11024 21074 30120 40126 56023;
0101010370999992013011720004+69383+020267FM-12+000699999V0203401N001019999999N9999999N1-00251-00651101181ADDMA1999999101121MD1810211+9999REMSYN060AAXX  17201 01037 46/// /3401 11025 21065 30112 40118 58021;
0101010370999992013011721004+69383+020267FM-12+000699999V0201601N001019999999N9999999N1-00211-00601101071ADDMA1999999101011MD1810251+9999REMSYN060AAXX  17211 01037 46/// /1601 11021 21060 30101 40107 58025;
0101010370999992013011722004+69383+020267FM-12+000699999V0203301N002019999999N9999999N1+00041-00401100961ADDMA1999999100911MD1810291+9999REMSYN060AAXX  17221 01037 46/// /3302 10004 21040 30091 40096 58029;
0101010370999992013011723004+69383+020267FM-12+000699999V0201801N001019999999N9999999N1-00141-00531100861ADDMA1999999100801MD1810321+9999REMSYN060AAXX  17231 01037 46/// /1801 11014 21053 30080 40086 58032;
0128010370999992013011800004+69383+020267FM-12+000699999V0203501N002019999999N9999999N1-00021-00201100761ADDAA106000391MA1999999100701MD1810311+9999REMSYN076AAXX  18001 01037 16/// /3502 11002 21020 30070 40076 58031 69931 333 91106;
0101010370999992013011801004+69383+020267FM-12+000699999V0202801N004019999999N9999999N1+00231-00131100641ADDMA1999999100581MD1810331+9999REMSYN060AAXX  18011 01037 46/// /2804 10023 21013 30058 40064 58033;
0101010370999992013011802004+69383+020267FM-12+000699999V0200601N002019999999N9999999N1+00211-00131100541ADDMA1999999100491MD1710321+9999REMSYN060AAXX  18021 01037 46/// /0602 10021 21013 30049 40054 57032;
0101010370999992013011803004+69383+020267FM-12+000699999V0200101N002019999999N9999999N1+00241+00011100461ADDMA1999999100401MD1710301+9999REMSYN060AAXX  18031 01037 46/// /0102 10024 20001 30040 40046 57030;
0101010370999992013011804004+69383+020267FM-12+000699999V0202701N004019999999N9999999N1+00321+00011100401ADDMA1999999100341MD1510231+9999REMSYN060AAXX  18041 01037 46/// /2704 10032 20001 30034 40040 55023;
0101010370999992013011805004+69383+020267FM-12+000699999V0202401N005019999999N9999999N1+00311+00071100361ADDMA1999999100311MD1610181+9999REMSYN060AAXX  18051 01037 46/// /2405 10031 20007 30031 40036 56018;
0164010370999992013011806004+69383+020267FM-12+000699999V0202501N006019999999N9999999N1+00481+00021100281ADDAA112003092AA224002592KA1999N-00261MA1999999100221MD1810181+9999REMSYN088AAXX  18061 01037 16/// /2506 10048 20002 30022 40028 58018 60032 333 21026 70025 91116;
0101010370999992013011807004+69383+020267FM-12+000699999V0202401N006019999999N9999999N1+00491+00031100331ADDMA1999999100271MD1510081+9999REMSYN060AAXX  18071 01037 46/// /2406 10049 20003 30027 40033 55008;
0101010370999992013011808004+69383+020267FM-12+000699999V0202701N004019999999N9999999N1+00491+00051100351ADDMA1999999100291MD1510011+9999REMSYN060AAXX  18081 01037 46/// /2704 10049 20005 30029 40035 55001;
0101010370999992013011809004+69383+020267FM-12+000699999V0202801N002019999999N9999999N1+00511+00051100341ADDMA1999999100291MD1010061+9999REMSYN060AAXX  18091 01037 46/// /2802 10051 20005 30029 40034 50006;
0101010370999992013011810004+69383+020267FM-12+000699999V0202801N004019999999N9999999N1+00591+00011100391ADDMA1999999100331MD1310061+9999REMSYN060AAXX  18101 01037 46/// /2804 10059 20001 30033 40039 53006;
0101010370999992013011811004+69383+020267FM-12+000699999V0203201N003019999999N9999999N1+00551+00031100381ADDMA1999999100331MD1210031+9999REMSYN060AAXX  18111 01037 46/// /3203 10055 20003 30033 40038 52003;
0147010370999992013011812004+69383+020267FM-12+000699999V0203101N003019999999N9999999N1+00531+00051100361ADDAA106000091MA1999999100301MD1010021+9999REMSYN076AAXX  18121 01037 16/// /3103 10053 20005 30030 40036 50002 60001 333 91112;EQDQ01  00002PRCP06
0101010370999992013011813004+69383+020267FM-12+000699999V0203201N003019999999N9999999N1+00511+00091100321ADDMA1999999100261MD1810071+9999REMSYN060AAXX  18131 01037 46/// /3203 10051 20009 30026 40032 58007;
0101010370999992013011814004+69383+020267FM-12+000699999V0203101N004019999999N9999999N1+00581+00021100301ADDMA1999999100241MD1710091+9999REMSYN060AAXX  18141 01037 46/// /3104 10058 20002 30024 40030 57009;
0101010370999992013011815004+69383+020267FM-12+000699999V0202901N005019999999N9999999N1+00581+00081100241ADDMA1999999100181MD1810121+9999REMSYN060AAXX  18151 01037 46/// /2905 10058 20008 30018 40024 58012;
0101010370999992013011816004+69383+020267FM-12+000699999V0202801N005019999999N9999999N1+00511+00111100251ADDMA1999999100201MD1510071+9999REMSYN060AAXX  18161 01037 46/// /2805 10051 20011 30020 40025 55007;
0101010370999992013011817004+69383+020267FM-12+000699999V0202701N006019999999N9999999N1+00411+00111100261ADDMA1999999100211MD1510031+9999REMSYN060AAXX  18171 01037 46/// /2706 10041 20011 30021 40026 55003;
0147010370999992013011818004+69383+020267FM-12+000699999V0202601N004019999999N9999999N1+00391+00111100211ADDAA112001091KA1120M+00641MA1999999100151MD1810031+9999REMSYN082AAXX  18181 01037 16/// /2604 10039 20011 30015 40021 58003 60012 333 10064 91111;
0101010370999992013011819004+69383+020267FM-12+000699999V0202901N003019999999N9999999N1+00381+00101100211ADDMA1999999100151MD1810051+9999REMSYN060AAXX  18191 01037 46/// /2903 10038 20010 30015 40021 58005;
0101010370999992013011820004+69383+020267FM-12+000699999V0203301N004019999999N9999999N1+00311+00081100161ADDMA1999999100111MD1810101+9999REMSYN060AAXX  18201 01037 46/// /3304 10031 20008 30011 40016 58010;
0101010370999992013011821004+69383+020267FM-12+000699999V0203601N002019999999N9999999N1+00261+00051100081ADDMA1999999100021MD1810131+9999REMSYN060AAXX  18211 01037 46/// /3602 10026 20005 30002 40008 58013;
0101010370999992013011822004+69383+020267FM-12+000699999V0203001N005019999999N9999999N1+00401+00021100091ADDMA1999999100041MD1510111+9999REMSYN060AAXX  18221 01037 46/// /3005 10040 20002 30004 40009 55011;
0101010370999992013011823004+69383+020267FM-12+000699999V0203401N005019999999N9999999N1+00151+00001100161ADDMA1999999100101MD1510011+9999REMSYN060AAXX  18231 01037 46/// /3405 10015 20000 30010 40016 55001;
0128010370999992013011900004+69383+020267FM-12+000699999V0203501N006019999999N9999999N1+00091+00001100281ADDAA106002091MA1999999100221MD1310201+9999REMSYN076AAXX  19001 01037 16/// /3506 10009 20000 30022 40028 53020 60021 333 91112;
0101010370999992013011901004+69383+020267FM-12+000699999V0203101N002019999999N9999999N1+00121-00031100331ADDMA1999999100271MD1310231+9999REMSYN060AAXX  19011 01037 46/// /3102 10012 21003 30027 40033 53023;
0101010370999992013011902004+69383+020267FM-12+000699999V0203401N004019999999N9999999N1+00131-00031100331ADDMA1999999100281MD1110171+9999REMSYN060AAXX  19021 01037 46/// /3404 10013 21003 30028 40033 51017;
0101010370999992013011903004+69383+020267FM-12+000699999V0203501N006019999999N9999999N1+00121-00191100371ADDMA1999999100311MD1110091+9999REMSYN060AAXX  19031 01037 46/// /3506 10012 21019 30031 40037 51009;
0101010370999992013011904004+69383+020267FM-12+000699999V0203601N006019999999N9999999N1+00011-00231100441ADDMA1999999100381MD1310111+9999REMSYN060AAXX  19041 01037 46/// /3606 10001 21023 30038 40044 53011;
0101010370999992013011905004+69383+020267FM-12+000699999V0203201N005019999999N9999999N1+00101-00481100511ADDMA1999999100451MD1310181+9999REMSYN060AAXX  19051 01037 46/// /3205 10010 21048 30045 40051 53018;
0164010370999992013011906004+69383+020267FM-12+000699999V0203501N002019999999N9999999N1-00051-00411100561ADDAA112002091AA224003691KA1999N-00051MA1999999100501MD1110191+9999REMSYN088AAXX  19061 01037 16/// /3502 11005 21041 30050 40056 51019 60022 333 21005 70035 91112;
0101010370999992013011907004+69383+020267FM-12+000699999V0202801N003019999999N9999999N1+00071-00611100561ADDMA1999999100501MD1010121+9999REMSYN060AAXX  19071 01037 46/// /2803 10007 21061 30050 40056 50012;
0101010370999992013011908004+69383+020267FM-12+000699999V0203501N005019999999N9999999N1+00041-00561100601ADDMA1999999100541MD1310091+9999REMSYN060AAXX  19081 01037 46/// /3505 10004 21056 30054 40060 53009;
0101010370999992013011909004+69383+020267FM-12+000699999V0203601N003019999999N9999999N1+00061-00401100641ADDMA1999999100581MD1310081+9999REMSYN060AAXX  19091 01037 46/// /3603 10006 21040 30058 40064 53008;
0101010370999992013011910004+69383+020267FM-12+000699999V0203401N003019999999N9999999N1-00021-00191100721ADDMA1999999100661MD1310161+9999REMSYN060AAXX  19101 01037 46/// /3403 11002 21019 30066 40072 53016;
0101010370999992013011911004+69383+020267FM-12+000699999V0203001N003019999999N9999999N1-00041-00211100751ADDMA1999999100691MD1310151+9999REMSYN060AAXX  19111 01037 46/// /3003 11004 21021 30069 40075 53015;
0128010370999992013011912004+69383+020267FM-12+000699999V0202701N002019999999N9999999N1-00071-00121100851ADDAA106002091MA1999999100791MD1310201+9999REMSYN076AAXX  19121 01037 16/// /2702 11007 21012 30079 40085 53020 60021 333 91110;
0101010370999992013011913004+69383+020267FM-12+000699999V0202601N002019999999N9999999N1-00081-00141100891ADDMA1999999100831MD1310181+9999REMSYN060AAXX  19131 01037 46/// /2602 11008 21014 30083 40089 53018;
0101010370999992013011914004+69383+020267FM-12+000699999V0203301N003019999999N9999999N1-00061-00131100961ADDMA1999999100911MD1110211+9999REMSYN060AAXX  19141 01037 46/// /3303 11006 21013 30091 40096 51021;
0101010370999992013011915004+69383+020267FM-12+000699999V0203401N003019999999N9999999N1-00051-00201101011ADDMA1999999100951MD1210161+9999REMSYN060AAXX  19151 01037 46/// /3403 11005 21020 30095 40101 52016;
0101010370999992013011916004+69383+020267FM-12+000699999V0203401N005019999999N9999999N1-00011-00151101091ADDMA1999999101031MD1310191+9999REMSYN060AAXX  19161 01037 46/// /3405 11001 21015 30103 40109 53019;
0101010370999992013011917004+69383+020267FM-12+000699999V0203501N002019999999N9999999N1-00081-00351101131ADDMA1999999101071MD1210161+9999REMSYN060AAXX  19171 01037 46/// /3502 11008 21035 30107 40113 52016;
0147010370999992013011918004+69383+020267FM-12+000699999V0203601N002019999999N9999999N1-00141-00551101191ADDAA112003091KA1120M+00111MA1999999101131MD1110181+9999REMSYN082AAXX  19181 01037 16/// /3602 11014 21055 30113 40119 51018 60032 333 10011 91110;
0101010370999992013011919004+69383+020267FM-12+000699999V0200101N004019999999N9999999N1-00141-00531101251ADDMA1999999101191MD1210161+9999REMSYN060AAXX  19191 01037 46/// /0104 11014 21053 30119 40125 52016;
0101010370999992013011920004+69383+020267FM-12+000699999V0203401N004019999999N9999999N1-00151-00401101311ADDMA1999999101251MD1310181+9999REMSYN060AAXX  19201 01037 46/// /3404 11015 21040 30125 40131 53018;
0101010370999992013011921004+69383+020267FM-12+000699999V0203301N003019999999N9999999N1-00101-00341101361ADDMA1999999101301MD1210171+9999REMSYN060AAXX  19211 01037 46/// /3303 11010 21034 30130 40136 52017;
0101010370999992013011922004+69383+020267FM-12+000699999V0203401N004019999999N9999999N1-00161-00351101381ADDMA1999999101321MD1210141+9999REMSYN060AAXX  19221 01037 46/// /3404 11016 21035 30132 40138 52014;
0101010370999992013011923004+69383+020267FM-12+000699999V0202501N002019999999N9999999N1-00191-00341101431ADDMA1999999101371MD1210121+9999REMSYN060AAXX  19231 01037 46/// /2502 11019 21034 30137 40143 52012;
0147010370999992013012000004+69383+020267FM-12+000699999V0203401N002019999999N9999999N1-00191-00431101461ADDAA106000091MA1999999101401MD1210091+9999REMSYN076AAXX  20001 01037 16/// /3402 11019 21043 30140 40146 52009 69921 333 91110;EQDQ01  00002PRCP06
0101010370999992013012001004+69383+020267FM-12+000699999V0200101N002019999999N9999999N1-00151-00461101501ADDMA1999999101441MD1210111+9999REMSYN060AAXX  20011 01037 46/// /0102 11015 21046 30144 40150 52011;
0101010370999992013012002004+69383+020267FM-12+000699999V0203601N003019999999N9999999N1-00201-00521101531ADDMA1999999101471MD1210101+9999REMSYN060AAXX  20021 01037 46/// /3603 11020 21052 30147 40153 52010;
0101010370999992013012003004+69383+020267FM-12+000699999V0203301N002019999999N9999999N1-00201-00561101551ADDMA1999999101491MD1210101+9999REMSYN060AAXX  20031 01037 46/// /3302 11020 21056 30149 40155 52010;
0101010370999992013012004004+69383+020267FM-12+000699999V0203501N001019999999N9999999N1-00451-00721101591ADDMA1999999101531MD1210091+9999REMSYN060AAXX  20041 01037 46/// /3501 11045 21072 30153 40159 52009;
0101010370999992013012005004+69383+020267FM-12+000699999V0202401N001019999999N9999999N1-00301-00551101621ADDMA1999999101561MD1210091+9999REMSYN060AAXX  20051 01037 46/// /2401 11030 21055 30156 40162 52009;
0164010370999992013012006004+69383+020267FM-12+000699999V0200801N001019999999N9999999N1-00371-00551101651ADDAA112000391AA224003391KA1999N-00541MA1999999101591MD1210101+9999REMSYN088AAXX  20061 01037 16/// /0801 11037 21055 30159 40165 52010 69932 333 21054 70032 91107;
0101010370999992013012007004+69383+020267FM-12+000699999V0209999C000019999999N9999999N1-00411-00561101711ADDMA1999999101651MD1310121+9999REMSYN060AAXX  20071 01037 46/// /0000 11041 21056 30165 40171 53012;
0101010370999992013012008004+69383+020267FM-12+000699999V0209999C000019999999N9999999N1-00451-00591101791ADDMA1999999101731MD1310171+9999REMSYN060AAXX  20081 01037 46/// /0000 11045 21059 30173 40179 53017;
0101010370999992013012009004+69383+020267FM-12+000699999V0201301N002019999999N9999999N1-00561-00631101851ADDMA1999999101791MD1210191+9999REMSYN060AAXX  20091 01037 46/// /1302 11056 21063 30179 40185 52019;
0101010370999992013012010004+69383+020267FM-12+000699999V0201601N002019999999N9999999N1-00671-00751101891ADDMA1999999101831MD1110181+9999REMSYN060AAXX  20101 01037 46/// /1602 11067 21075 30183 40189 51018;
