0081010350999992013010100004+69559+020094FM-12+071099999V02099999999999999999N9999999N1-00241+99999999999ADDAJ100879199999999REMSYN052AAXX  01001 01035 46/// ///// 11024 2//// 333 4/087;
0081010350999992013010101004+69559+020094FM-12+071099999V02099999999999999999N9999999N1-00521+99999999999ADDAJ100889199999999REMSYN052AAXX  01011 01035 46/// ///// 11052 2//// 333 4/088;
0081010350999992013010102004+69559+020094FM-12+071099999V02099999999999999999N9999999N1-00361+99999999999ADDAJ100879199999999REMSYN052AAXX  01021 01035 46/// ///// 11036 2//// 333 4/087;
0081010350999992013010103004+69559+020094FM-12+071099999V02099999999999999999N9999999N1-00531+99999999999ADDAJ100889199999999REMSYN052AAXX  01031 01035 46/// ///// 11053 2//// 333 4/088;
0081010350999992013010104004+69559+020094FM-12+071099999V02099999999999999999N9999999N1-00351+99999999999ADDAJ100889199999999REMSYN052AAXX  01041 01035 46/// ///// 11035 2//// 333 4/088;
0081010350999992013010105004+69559+020094FM-12+071099999V02099999999999999999N9999999N1-00411+99999999999ADDAJ100879199999999REMSYN052AAXX  01051 01035 46/// ///// 11041 2//// 333 4/087;
0100010350999992013010106004+69559+020094FM-12+071099999V02099999999999999999N9999999N1-00501+99999999999ADDAJ100889199999999KA1999N-00651REMSYN058AAXX  01061 01035 46/// ///// 11050 2//// 333 21065 4/088;
0081010350999992013010107004+69559+020094FM-12+071099999V02099999999999999999N9999999N1-00461+99999999999ADDAJ100889199999999REMSYN052AAXX  01071 01035 46/// ///// 11046 2//// 333 4/088;
0081010350999992013010108004+69559+020094FM-12+071099999V02099999999999999999N9999999N1-00461+99999999999ADDAJ100889199999999REMSYN052AAXX  01081 01035 46/// ///// 11046 2//// 333 4/088;
0081010350999992013010109004+69559+020094FM-12+071099999V02099999999999999999N9999999N1-00501+99999999999ADDAJ100889199999999REMSYN052AAXX  01091 01035 46/// ///// 11050 2//// 333 4/088;
0081010350999992013010110004+69559+020094FM-12+071099999V02099999999999999999N9999999N1-00571+99999999999ADDAJ100879199999999REMSYN052AAXX  01101 01035 46/// ///// 11057 2//// 333 4/087;
0081010350999992013010111004+69559+020094FM-12+071099999V02099999999999999999N9999999N1-00751+99999999999ADDAJ100889199999999REMSYN052AAXX  01111 01035 46/// ///// 11075 2//// 333 4/088;
0081010350999992013010112004+69559+020094FM-12+071099999V02099999999999999999N9999999N1-00741+99999999999ADDAJ100889199999999REMSYN052AAXX  01121 01035 46/// ///// 11074 2//// 333 4/088;
0081010350999992013010113004+69559+020094FM-12+071099999V02099999999999999999N9999999N1-00701+99999999999ADDAJ100889199999999REMSYN052AAXX  01131 01035 46/// ///// 11070 2//// 333 4/088;
0081010350999992013010114004+69559+020094FM-12+071099999V02099999999999999999N9999999N1-00881+99999999999ADDAJ100889199999999REMSYN052AAXX  01141 01035 46/// ///// 11088 2//// 333 4/088;
0081010350999992013010115004+69559+020094FM-12+071099999V02099999999999999999N9999999N1-00461+99999999999ADDAJ100869199999999REMSYN052AAXX  01151 01035 46/// ///// 11046 2//// 333 4/086;
0081010350999992013010116004+69559+020094FM-12+071099999V02099999999999999999N9999999N1-00481+99999999999ADDAJ100889199999999REMSYN052AAXX  01161 01035 46/// ///// 11048 2//// 333 4/088;
0081010350999992013010117004+69559+020094FM-12+071099999V02099999999999999999N9999999N1-00561+99999999999ADDAJ100879199999999REMSYN052AAXX  01171 01035 46/// ///// 11056 2//// 333 4/087;
0100010350999992013010118004+69559+020094FM-12+071099999V02099999999999999999N9999999N1-00651+99999999999ADDAJ100889199999999KA1120M-00391REMSYN058AAXX  01181 01035 46/// ///// 11065 2//// 333 11039 4/088;
0081010350999992013010119004+69559+020094FM-12+071099999V02099999999999999999N9999999N1-00781+99999999999ADDAJ100899199999999REMSYN052AAXX  01191 01035 46/// ///// 11078 2//// 333 4/089;
0081010350999992013010120004+69559+020094FM-12+071099999V02099999999999999999N9999999N1-00721+99999999999ADDAJ100879199999999REMSYN052AAXX  01201 01035 46/// ///// 11072 2//// 333 4/087;
0081010350999992013010121004+69559+020094FM-12+071099999V02099999999999999999N9999999N1-00971+99999999999ADDAJ100879199999999REMSYN052AAXX  01211 01035 46/// ///// 11097 2//// 333 4/087;
0081010350999992013010122004+69559+020094FM-12+071099999V02099999999999999999N9999999N1-01011+99999999999ADDAJ100879199999999REMSYN052AAXX  01221 01035 46/// ///// 11101 2//// 333 4/087;
0081010350999992013010123004+69559+020094FM-12+071099999V02099999999999999999N9999999N1-01071+99999999999ADDAJ100889199999999REMSYN052AAXX  01231 01035 46/// ///// 11107 2//// 333 4/088;
0081010350999992013010200004+69559+020094FM-12+071099999V02099999999999999999N9999999N1-01041+99999999999ADDAJ100889199999999REMSYN052AAXX  02001 01035 46/// ///// 11104 2//// 333 4/088;
0081010350999992013010201004+69559+020094FM-12+071099999V02099999999999999999N9999999N1-01011+99999999999ADDAJ100889199999999REMSYN052AAXX  02011 01035 46/// ///// 11101 2//// 333 4/088;
0081010350999992013010202004+69559+020094FM-12+071099999V02099999999999999999N9999999N1-01101+99999999999ADDAJ100869199999999REMSYN052AAXX  02021 01035 46/// ///// 11110 2//// 333 4/086;
0081010350999992013010203004+69559+020094FM-12+071099999V02099999999999999999N9999999N1-01031+99999999999ADDAJ100889199999999REMSYN052AAXX  02031 01035 46/// ///// 11103 2//// 333 4/088;
0081010350999992013010204004+69559+020094FM-12+071099999V02099999999999999999N9999999N1-01131+99999999999ADDAJ100879199999999REMSYN052AAXX  02041 01035 46/// ///// 11113 2//// 333 4/087;
0081010350999992013010205004+69559+020094FM-12+071099999V02099999999999999999N9999999N1-01091+99999999999ADDAJ100879199999999REMSYN052AAXX  02051 01035 46/// ///// 11109 2//// 333 4/087;
0100010350999992013010206004+69559+020094FM-12+071099999V02099999999999999999N9999999N1-01001+99999999999ADDAJ100879199999999KA1999N-01131REMSYN058AAXX  02061 01035 46/// ///// 11100 2//// 333 21113 4/087;
0081010350999992013010207004+69559+020094FM-12+071099999V02099999999999999999N9999999N1-00921+99999999999ADDAJ100879199999999REMSYN052AAXX  02071 01035 46/// ///// 11092 2//// 333 4/087;
0081010350999992013010208004+69559+020094FM-12+071099999V02099999999999999999N9999999N1-01011+99999999999ADDAJ100889199999999REMSYN052AAXX  02081 01035 46/// ///// 11101 2//// 333 4/088;
0081010350999992013010209004+69559+020094FM-12+071099999V02099999999999999999N9999999N1-01081+99999999999ADDAJ100869199999999REMSYN052AAXX  02091 01035 46/// ///// 11108 2//// 333 4/086;
0081010350999992013010210004+69559+020094FM-12+071099999V02099999999999999999N9999999N1-01081+99999999999ADDAJ100889199999999REMSYN052AAXX  02101 01035 46/// ///// 11108 2//// 333 4/088;
0081010350999992013010211004+69559+020094FM-12+071099999V02099999999999999999N9999999N1-01071+99999999999ADDAJ100879199999999REMSYN052AAXX  02111 01035 46/// ///// 11107 2//// 333 4/087;
0081010350999992013010212004+69559+020094FM-12+071099999V02099999999999999999N9999999N1-01041+99999999999ADDAJ100879199999999REMSYN052AAXX  02121 01035 46/// ///// 11104 2//// 333 4/087;
0081010350999992013010213004+69559+020094FM-12+071099999V02099999999999999999N9999999N1-01141+99999999999ADDAJ100879199999999REMSYN052AAXX  02131 01035 46/// ///// 11114 2//// 333 4/087;
0081010350999992013010214004+69559+020094FM-12+071099999V02099999999999999999N9999999N1-01141+99999999999ADDAJ100889199999999REMSYN052AAXX  02141 01035 46/// ///// 11114 2//// 333 4/088;
0081010350999992013010215004+69559+020094FM-12+071099999V02099999999999999999N9999999N1-01021+99999999999ADDAJ100879199999999REMSYN052AAXX  02151 01035 46/// ///// 11102 2//// 333 4/087;
0081010350999992013010216004+69559+020094FM-12+071099999V02099999999999999999N9999999N1-01101+99999999999ADDAJ100879199999999REMSYN052AAXX  02161 01035 46/// ///// 11110 2//// 333 4/087;
0081010350999992013010217004+69559+020094FM-12+071099999V02099999999999999999N9999999N1-00781+99999999999ADDAJ100879199999999REMSYN052AAXX  02171 01035 46/// ///// 11078 2//// 333 4/087;
0100010350999992013010218004+69559+020094FM-12+071099999V02099999999999999999N9999999N1-00681+99999999999ADDAJ100879199999999KA1120M-00511REMSYN058AAXX  02181 01035 46/// ///// 11068 2//// 333 11051 4/087;
0081010350999992013010219004+69559+020094FM-12+071099999V02099999999999999999N9999999N1-00601+99999999999ADDAJ100879199999999REMSYN052AAXX  02191 01035 46/// ///// 11060 2//// 333 4/087;
0081010350999992013010220004+69559+020094FM-12+071099999V02099999999999999999N9999999N1-00651+99999999999ADDAJ100889199999999REMSYN052AAXX  02201 01035 46/// ///// 11065 2//// 333 4/088;
0081010350999992013010221004+69559+020094FM-12+071099999V02099999999999999999N9999999N1-00721+99999999999ADDAJ100879199999999REMSYN052AAXX  02211 01035 46/// ///// 11072 2//// 333 4/087;
0081010350999992013010222004+69559+020094FM-12+071099999V02099999999999999999N9999999N1-00591+99999999999ADDAJ100889199999999REMSYN052AAXX  02221 01035 46/// ///// 11059 2//// 333 4/088;
0081010350999992013010223004+69559+020094FM-12+071099999V02099999999999999999N9999999N1-00561+99999999999ADDAJ100879199999999REMSYN052AAXX  02231 01035 46/// ///// 11056 2//// 333 4/087;
0081010350999992013010300004+69559+020094FM-12+071099999V02099999999999999999N9999999N1-00651+99999999999ADDAJ100889199999999REMSYN052AAXX  03001 01035 46/// ///// 11065 2//// 333 4/088;
0081010350999992013010301004+69559+020094FM-12+071099999V02099999999999999999N9999999N1-00791+99999999999ADDAJ100889199999999REMSYN052AAXX  03011 01035 46/// ///// 11079 2//// 333 4/088;
0081010350999992013010302004+69559+020094FM-12+071099999V02099999999999999999N9999999N1-00651+99999999999ADDAJ100879199999999REMSYN052AAXX  03021 01035 46/// ///// 11065 2//// 333 4/087;
0081010350999992013010303004+69559+020094FM-12+071099999V02099999999999999999N9999999N1-00631+99999999999ADDAJ100889199999999REMSYN052AAXX  03031 01035 46/// ///// 11063 2//// 333 4/088;
0081010350999992013010304004+69559+020094FM-12+071099999V02099999999999999999N9999999N1-00731+99999999999ADDAJ100889199999999REMSYN052AAXX  03041 01035 46/// ///// 11073 2//// 333 4/088;
0081010350999992013010305004+69559+020094FM-12+071099999V02099999999999999999N9999999N1-00711+99999999999ADDAJ100879199999999REMSYN052AAXX  03051 01035 46/// ///// 11071 2//// 333 4/087;
0100010350999992013010306004+69559+020094FM-12+071099999V02099999999999999999N9999999N1-00731+99999999999ADDAJ100879199999999KA1999N-00871REMSYN058AAXX  03061 01035 46/// ///// 11073 2//// 333 21087 4/087;
0081010350999992013010308004+69559+020094FM-12+071099999V02099999999999999999N9999999N1-00741+99999999999ADDAJ100879199999999REMSYN052AAXX  03081 01035 46/// ///// 11074 2//// 333 4/087;
0081010350999992013010309004+69559+020094FM-12+071099999V02099999999999999999N9999999N1-00791+99999999999ADDAJ100879199999999REMSYN052AAXX  03091 01035 46/// ///// 11079 2//// 333 4/087;
0081010350999992013010310004+69559+020094FM-12+071099999V02099999999999999999N9999999N1-00901+99999999999ADDAJ100879199999999REMSYN052AAXX  03101 01035 46/// ///// 11090 2//// 333 4/087;
0081010350999992013010311004+69559+020094FM-12+071099999V02099999999999999999N9999999N1-00841+99999999999ADDAJ100869199999999REMSYN052AAXX  03111 01035 46/// ///// 11084 2//// 333 4/086;
0081010350999992013010312004+69559+020094FM-12+071099999V02099999999999999999N9999999N1-00961+99999999999ADDAJ100879199999999REMSYN052AAXX  03121 01035 46/// ///// 11096 2//// 333 4/087;
0081010350999992013010313004+69559+020094FM-12+071099999V02099999999999999999N9999999N1-00901+99999999999ADDAJ100869199999999REMSYN052AAXX  03131 01035 46/// ///// 11090 2//// 333 4/086;
0081010350999992013010314004+69559+020094FM-12+071099999V02099999999999999999N9999999N1-00991+99999999999ADDAJ100879199999999REMSYN052AAXX  03141 01035 46/// ///// 11099 2//// 333 4/087;
0081010350999992013010315004+69559+020094FM-12+071099999V02099999999999999999N9999999N1-00991+99999999999ADDAJ100889199999999REMSYN052AAXX  03151 01035 46/// ///// 11099 2//// 333 4/088;
0081010350999992013010316004+69559+020094FM-12+071099999V02099999999999999999N9999999N1-01011+99999999999ADDAJ100869199999999REMSYN052AAXX  03161 01035 46/// ///// 11101 2//// 333 4/086;
0081010350999992013010317004+69559+020094FM-12+071099999V02099999999999999999N9999999N1-01071+99999999999ADDAJ100869199999999REMSYN052AAXX  03171 01035 46/// ///// 11107 2//// 333 4/086;
0100010350999992013010318004+69559+020094FM-12+071099999V02099999999999999999N9999999N1-01081+99999999999ADDAJ100879199999999KA1120M-00551REMSYN058AAXX  03181 01035 46/// ///// 11108 2//// 333 11055 4/087;
0081010350999992013010319004+69559+020094FM-12+071099999V02099999999999999999N9999999N1-00981+99999999999ADDAJ100869199999999REMSYN052AAXX  03191 01035 46/// ///// 11098 2//// 333 4/086;
0081010350999992013010320004+69559+020094FM-12+071099999V02099999999999999999N9999999N1-00821+99999999999ADDAJ100859199999999REMSYN052AAXX  03201 01035 46/// ///// 11082 2//// 333 4/085;
0081010350999992013010321004+69559+020094FM-12+071099999V02099999999999999999N9999999N1-00821+99999999999ADDAJ100879199999999REMSYN052AAXX  03211 01035 46/// ///// 11082 2//// 333 4/087;
0081010350999992013010322004+69559+020094FM-12+071099999V02099999999999999999N9999999N1-00801+99999999999ADDAJ100859199999999REMSYN052AAXX  03221 01035 46/// ///// 11080 2//// 333 4/085;
0081010350999992013010323004+69559+020094FM-12+071099999V02099999999999999999N9999999N1-00831+99999999999ADDAJ100859199999999REMSYN052AAXX  03231 01035 46/// ///// 11083 2//// 333 4/085;
0081010350999992013010400004+69559+020094FM-12+071099999V02099999999999999999N9999999N1-00991+99999999999ADDAJ100879199999999REMSYN052AAXX  04001 01035 46/// ///// 11099 2//// 333 4/087;
0081010350999992013010401004+69559+020094FM-12+071099999V02099999999999999999N9999999N1-00741+99999999999ADDAJ100879199999999REMSYN052AAXX  04011 01035 46/// ///// 11074 2//// 333 4/087;
0081010350999992013010402004+69559+020094FM-12+071099999V02099999999999999999N9999999N1-00441+99999999999ADDAJ100869199999999REMSYN052AAXX  04021 01035 46/// ///// 11044 2//// 333 4/086;
0081010350999992013010403004+69559+020094FM-12+071099999V02099999999999999999N9999999N1-00431+99999999999ADDAJ100879199999999REMSYN052AAXX  04031 01035 46/// ///// 11043 2//// 333 4/087;
0081010350999992013010404004+69559+020094FM-12+071099999V02099999999999999999N9999999N1-00421+99999999999ADDAJ100879199999999REMSYN052AAXX  04041 01035 46/// ///// 11042 2//// 333 4/087;
0081010350999992013010405004+69559+020094FM-12+071099999V02099999999999999999N9999999N1-00401+99999999999ADDAJ100879199999999REMSYN052AAXX  04051 01035 46/// ///// 11040 2//// 333 4/087;
0100010350999992013010406004+69559+020094FM-12+071099999V02099999999999999999N9999999N1-00411+99999999999ADDAJ100879199999999KA1999N-01131REMSYN058AAXX  04061 01035 46/// ///// 11041 2//// 333 21113 4/087;
0081010350999992013010407004+69559+020094FM-12+071099999V02099999999999999999N9999999N1-00381+99999999999ADDAJ100879199999999REMSYN052AAXX  04071 01035 46/// ///// 11038 2//// 333 4/087;
0081010350999992013010408004+69559+020094FM-12+071099999V02099999999999999999N9999999N1-00351+99999999999ADDAJ100879199999999REMSYN052AAXX  04081 01035 46/// ///// 11035 2//// 333 4/087;
0081010350999992013010409004+69559+020094FM-12+071099999V02099999999999999999N9999999N1-00441+99999999999ADDAJ100889199999999REMSYN052AAXX  04091 01035 46/// ///// 11044 2//// 333 4/088;
0081010350999992013010410004+69559+020094FM-12+071099999V02099999999999999999N9999999N1-00331+99999999999ADDAJ100899199999999REMSYN052AAXX  04101 01035 46/// ///// 11033 2//// 333 4/089;
0081010350999992013010411004+69559+020094FM-12+071099999V02099999999999999999N9999999N1-00331+99999999999ADDAJ100909199999999REMSYN052AAXX  04111 01035 46/// ///// 11033 2//// 333 4/090;
0081010350999992013010412004+69559+020094FM-12+071099999V02099999999999999999N9999999N1-00371+99999999999ADDAJ100949199999999REMSYN052AAXX  04121 01035 46/// ///// 11037 2//// 333 4/094;
0081010350999992013010413004+69559+020094FM-12+071099999V02099999999999999999N9999999N1-00351+99999999999ADDAJ100949199999999REMSYN052AAXX  04131 01035 46/// ///// 11035 2//// 333 4/094;
0081010350999992013010414004+69559+020094FM-12+071099999V02099999999999999999N9999999N1-00311+99999999999ADDAJ100969199999999REMSYN052AAXX  04141 01035 46/// ///// 11031 2//// 333 4/096;
0081010350999992013010415004+69559+020094FM-12+071099999V02099999999999999999N9999999N1-00301+99999999999ADDAJ100979199999999REMSYN052AAXX  04151 01035 46/// ///// 11030 2//// 333 4/097;
0081010350999992013010416004+69559+020094FM-12+071099999V02099999999999999999N9999999N1-00331+99999999999ADDAJ100989199999999REMSYN052AAXX  04161 01035 46/// ///// 11033 2//// 333 4/098;
0081010350999992013010417004+69559+020094FM-12+071099999V02099999999999999999N9999999N1-00311+99999999999ADDAJ100999199999999REMSYN052AAXX  04171 01035 46/// ///// 11031 2//// 333 4/099;
0100010350999992013010418004+69559+020094FM-12+071099999V02099999999999999999N9999999N1-00341+99999999999ADDAJ100969199999999KA1120M-00281REMSYN058AAXX  04181 01035 46/// ///// 11034 2//// 333 11028 4/096;
0081010350999992013010419004+69559+020094FM-12+071099999V02099999999999999999N9999999N1-00311+99999999999ADDAJ100959199999999REMSYN052AAXX  04191 01035 46/// ///// 11031 2//// 333 4/095;
0081010350999992013010420004+69559+020094FM-12+071099999V02099999999999999999N9999999N1-00311+99999999999ADDAJ100969199999999REMSYN052AAXX  04201 01035 46/// ///// 11031 2//// 333 4/096;
0081010350999992013010421004+69559+020094FM-12+071099999V02099999999999999999N9999999N1-00321+99999999999ADDAJ100959199999999REMSYN052AAXX  04211 01035 46/// ///// 11032 2//// 333 4/095;
0081010350999992013010422004+69559+020094FM-12+071099999V02099999999999999999N9999999N1-00321+99999999999ADDAJ100969199999999REMSYN052AAXX  04221 01035 46/// ///// 11032 2//// 333 4/096;
0081010350999992013010500004+69559+020094FM-12+071099999V02099999999999999999N9999999N1-00241+99999999999ADDAJ100979199999999REMSYN052AAXX  05001 01035 46/// ///// 11024 2//// 333 4/097;
0081010350999992013010501004+69559+020094FM-12+071099999V02099999999999999999N9999999N1-00281+99999999999ADDAJ100979199999999REMSYN052AAXX  05011 01035 46/// ///// 11028 2//// 333 4/097;
0081010350999992013010502004+69559+020094FM-12+071099999V02099999999999999999N9999999N1-00271+99999999999ADDAJ100959199999999REMSYN052AAXX  05021 01035 46/// ///// 11027 2//// 333 4/095;
0081010350999992013010503004+69559+020094FM-12+071099999V02099999999999999999N9999999N1-00241+99999999999ADDAJ100989199999999REMSYN052AAXX  05031 01035 46/// ///// 11024 2//// 333 4/098;
0081010350999992013010504004+69559+020094FM-12+071099999V02099999999999999999N9999999N1-00221+99999999999ADDAJ100999199999999REMSYN052AAXX  05041 01035 46/// ///// 11022 2//// 333 4/099;
0081010350999992013010506004+69559+020094FM-12+071099999V02099999999999999999N9999999N1-00291+99999999999ADDAJ101009199999999REMSYN052AAXX  05061 01035 46/// ///// 11029 2//// 333 4/100;
0081010350999992013010507004+69559+020094FM-12+071099999V02099999999999999999N9999999N1-00291+99999999999ADDAJ100999199999999REMSYN052AAXX  05071 01035 46/// ///// 11029 2//// 333 4/099;
0081010350999992013010508004+69559+020094FM-12+071099999V02099999999999999999N9999999N1-00261+99999999999ADDAJ101009199999999REMSYN052AAXX  05081 01035 46/// ///// 11026 2//// 333 4/100;
0081010350999992013010509004+69559+020094FM-12+071099999V02099999999999999999N9999999N1-00281+99999999999ADDAJ101009199999999REMSYN052AAXX  05091 01035 46/// ///// 11028 2//// 333 4/100;
0081010350999992013010510004+69559+020094FM-12+071099999V02099999999999999999N9999999N1-00281+99999999999ADDAJ101019199999999REMSYN052AAXX  05101 01035 46/// ///// 11028 2//// 333 4/101;
0081010350999992013010511004+69559+020094FM-12+071099999V02099999999999999999N9999999N1-00201+99999999999ADDAJ101009199999999REMSYN052AAXX  05111 01035 46/// ///// 11020 2//// 333 4/100;
0081010350999992013010512004+69559+020094FM-12+071099999V02099999999999999999N9999999N1-00301+99999999999ADDAJ101009199999999REMSYN052AAXX  05121 01035 46/// ///// 11030 2//// 333 4/100;
0081010350999992013010513004+69559+020094FM-12+071099999V02099999999999999999N9999999N1-00261+99999999999ADDAJ101009199999999REMSYN052AAXX  05131 01035 46/// ///// 11026 2//// 333 4/100;
0081010350999992013010514004+69559+020094FM-12+071099999V02099999999999999999N9999999N1-00321+99999999999ADDAJ101009199999999REMSYN052AAXX  05141 01035 46/// ///// 11032 2//// 333 4/100;
0081010350999992013010515004+69559+020094FM-12+071099999V02099999999999999999N9999999N1-00281+99999999999ADDAJ101009199999999REMSYN052AAXX  05151 01035 46/// ///// 11028 2//// 333 4/100;
0081010350999992013010516004+69559+020094FM-12+071099999V02099999999999999999N9999999N1-00521+99999999999ADDAJ101009199999999REMSYN052AAXX  05161 01035 46/// ///// 11052 2//// 333 4/100;
0081010350999992013010517004+69559+020094FM-12+071099999V02099999999999999999N9999999N1-00601+99999999999ADDAJ101019199999999REMSYN052AAXX  05171 01035 46/// ///// 11060 2//// 333 4/101;
0100010350999992013010518004+69559+020094FM-12+071099999V02099999999999999999N9999999N1-00301+99999999999ADDAJ100999199999999KA1120M-00201REMSYN058AAXX  05181 01035 46/// ///// 11030 2//// 333 11020 4/099;
0081010350999992013010519004+69559+020094FM-12+071099999V02099999999999999999N9999999N1-00231+99999999999ADDAJ100999199999999REMSYN052AAXX  05191 01035 46/// ///// 11023 2//// 333 4/099;
0081010350999992013010520004+69559+020094FM-12+071099999V02099999999999999999N9999999N1-00241+99999999999ADDAJ100999199999999REMSYN052AAXX  05201 01035 46/// ///// 11024 2//// 333 4/099;
0081010350999992013010521004+69559+020094FM-12+071099999V02099999999999999999N9999999N1-00191+99999999999ADDAJ101009199999999REMSYN052AAXX  05211 01035 46/// ///// 11019 2//// 333 4/100;
0081010350999992013010522004+69559+020094FM-12+071099999V02099999999999999999N9999999N1-00091+99999999999ADDAJ101019199999999REMSYN052AAXX  05221 01035 46/// ///// 11009 2//// 333 4/101;
0081010350999992013010523004+69559+020094FM-12+071099999V02099999999999999999N9999999N1-00081+99999999999ADDAJ101009199999999REMSYN052AAXX  05231 01035 46/// ///// 11008 2//// 333 4/100;
0081010350999992013010600004+69559+020094FM-12+071099999V02099999999999999999N9999999N1-00031+99999999999ADDAJ101009199999999REMSYN052AAXX  06001 01035 46/// ///// 11003 2//// 333 4/100;
0081010350999992013010601004+69559+020094FM-12+071099999V02099999999999999999N9999999N1+00041+99999999999ADDAJ101009199999999REMSYN052AAXX  06011 01035 46/// ///// 10004 2//// 333 4/100;
0081010350999992013010602004+69559+020094FM-12+071099999V02099999999999999999N9999999N1-00091+99999999999ADDAJ101019199999999REMSYN052AAXX  06021 01035 46/// ///// 11009 2//// 333 4/101;
0081010350999992013010603004+69559+020094FM-12+071099999V02099999999999999999N9999999N1+00041+99999999999ADDAJ100999199999999REMSYN052AAXX  06031 01035 46/// ///// 10004 2//// 333 4/099;
0081010350999992013010604004+69559+020094FM-12+071099999V02099999999999999999N9999999N1+00101+99999999999ADDAJ101009199999999REMSYN052AAXX  06041 01035 46/// ///// 10010 2//// 333 4/100;
0081010350999992013010605004+69559+020094FM-12+071099999V02099999999999999999N9999999N1-00071+99999999999ADDAJ101009199999999REMSYN052AAXX  06051 01035 46/// ///// 11007 2//// 333 4/100;
0100010350999992013010606004+69559+020094FM-12+071099999V02099999999999999999N9999999N1-00051+99999999999ADDAJ101009199999999KA1999N-00351REMSYN058AAXX  06061 01035 46/// ///// 11005 2//// 333 21035 4/100;
0081010350999992013010607004+69559+020094FM-12+071099999V02099999999999999999N9999999N1+00041+99999999999ADDAJ100999199999999REMSYN052AAXX  06071 01035 46/// ///// 10004 2//// 333 4/099;
0081010350999992013010608004+69559+020094FM-12+071099999V02099999999999999999N9999999N1-00041+99999999999ADDAJ101009199999999REMSYN052AAXX  06081 01035 46/// ///// 11004 2//// 333 4/100;
0081010350999992013010609004+69559+020094FM-12+071099999V02099999999999999999N9999999N1-00131+99999999999ADDAJ101009199999999REMSYN052AAXX  06091 01035 46/// ///// 11013 2//// 333 4/100;
0081010350999992013010610004+69559+020094FM-12+071099999V02099999999999999999N9999999N1+00011+99999999999ADDAJ101009199999999REMSYN052AAXX  06101 01035 46/// ///// 10001 2//// 333 4/100;
0081010350999992013010611004+69559+020094FM-12+071099999V02099999999999999999N9999999N1+00141+99999999999ADDAJ100999199999999REMSYN052AAXX  06111 01035 46/// ///// 10014 2//// 333 4/099;
0081010350999992013010612004+69559+020094FM-12+071099999V02099999999999999999N9999999N1+00171+99999999999ADDAJ100999199999999REMSYN052AAXX  06121 01035 46/// ///// 10017 2//// 333 4/099;
0081010350999992013010613004+69559+020094FM-12+071099999V02099999999999999999N9999999N1+00171+99999999999ADDAJ100999199999999REMSYN052AAXX  06131 01035 46/// ///// 10017 2//// 333 4/099;
0081010350999992013010614004+69559+020094FM-12+071099999V02099999999999999999N9999999N1+00181+99999999999ADDAJ100999199999999REMSYN052AAXX  06141 01035 46/// ///// 10018 2//// 333 4/099;
0081010350999992013010615004+69559+020094FM-12+071099999V02099999999999999999N9999999N1+00161+99999999999ADDAJ100999199999999REMSYN052AAXX  06151 01035 46/// ///// 10016 2//// 333 4/099;
0081010350999992013010616004+69559+020094FM-12+071099999V02099999999999999999N9999999N1+00171+99999999999ADDAJ100999199999999REMSYN052AAXX  06161 01035 46/// ///// 10017 2//// 333 4/099;
0081010350999992013010617004+69559+020094FM-12+071099999V02099999999999999999N9999999N1+00181+99999999999ADDAJ100999199999999REMSYN052AAXX  06171 01035 46/// ///// 10018 2//// 333 4/099;
0100010350999992013010618004+69559+020094FM-12+071099999V02099999999999999999N9999999N1+00201+99999999999ADDAJ100999199999999KA1120M+00221REMSYN058AAXX  06181 01035 46/// ///// 10020 2//// 333 10022 4/099;
0081010350999992013010619004+69559+020094FM-12+071099999V02099999999999999999N9999999N1+00341+99999999999ADDAJ100999199999999REMSYN052AAXX  06191 01035 46/// ///// 10034 2//// 333 4/099;
0081010350999992013010620004+69559+020094FM-12+071099999V02099999999999999999N9999999N1+00301+99999999999ADDAJ100989199999999REMSYN052AAXX  06201 01035 46/// ///// 10030 2//// 333 4/098;
0081010350999992013010621004+69559+020094FM-12+071099999V02099999999999999999N9999999N1+00251+99999999999ADDAJ100999199999999REMSYN052AAXX  06211 01035 46/// ///// 10025 2//// 333 4/099;
0081010350999992013010622004+69559+020094FM-12+071099999V02099999999999999999N9999999N1+00131+99999999999ADDAJ100989199999999REMSYN052AAXX  06221 01035 46/// ///// 10013 2//// 333 4/098;
0081010350999992013010623004+69559+020094FM-12+071099999V02099999999999999999N9999999N1+00021+99999999999ADDAJ100989199999999REMSYN052AAXX  06231 01035 46/// ///// 10002 2//// 333 4/098;
0081010350999992013010700004+69559+020094FM-12+071099999V02099999999999999999N9999999N1-00031+99999999999ADDAJ100989199999999REMSYN052AAXX  07001 01035 46/// ///// 11003 2//// 333 4/098;
0081010350999992013010701004+69559+020094FM-12+071099999V02099999999999999999N9999999N1+00121+99999999999ADDAJ101009199999999REMSYN052AAXX  07011 01035 46/// ///// 10012 2//// 333 4/100;
0081010350999992013010702004+69559+020094FM-12+071099999V02099999999999999999N9999999N1+00101+99999999999ADDAJ101019199999999REMSYN052AAXX  07021 01035 46/// ///// 10010 2//// 333 4/101;
0081010350999992013010703004+69559+020094FM-12+071099999V02099999999999999999N9999999N1+00101+99999999999ADDAJ101019199999999REMSYN052AAXX  07031 01035 46/// ///// 10010 2//// 333 4/101;
0081010350999992013010704004+69559+020094FM-12+071099999V02099999999999999999N9999999N1+00111+99999999999ADDAJ101019199999999REMSYN052AAXX  07041 01035 46/// ///// 10011 2//// 333 4/101;
0081010350999992013010705004+69559+020094FM-12+071099999V02099999999999999999N9999999N1+00031+99999999999ADDAJ101019199999999REMSYN052AAXX  07051 01035 46/// ///// 10003 2//// 333 4/101;
0100010350999992013010706004+69559+020094FM-12+071099999V02099999999999999999N9999999N1+00071+99999999999ADDAJ101009199999999KA1999N-00111REMSYN058AAXX  07061 01035 46/// ///// 10007 2//// 333 21011 4/100;
0081010350999992013010707004+69559+020094FM-12+071099999V02099999999999999999N9999999N1+00021+99999999999ADDAJ100999199999999REMSYN052AAXX  07071 01035 46/// ///// 10002 2//// 333 4/099;
0081010350999992013010708004+69559+020094FM-12+071099999V02099999999999999999N9999999N1-00061+99999999999ADDAJ101009199999999REMSYN052AAXX  07081 01035 46/// ///// 11006 2//// 333 4/100;
0081010350999992013010709004+69559+020094FM-12+071099999V02099999999999999999N9999999N1-00081+99999999999ADDAJ101009199999999REMSYN052AAXX  07091 01035 46/// ///// 11008 2//// 333 4/100;
0081010350999992013010710004+69559+020094FM-12+071099999V02099999999999999999N9999999N1-00191+99999999999ADDAJ101009199999999REMSYN052AAXX  07101 01035 46/// ///// 11019 2//// 333 4/100;
0081010350999992013010711004+69559+020094FM-12+071099999V02099999999999999999N9999999N1-00071+99999999999ADDAJ101009199999999REMSYN052AAXX  07111 01035 46/// ///// 11007 2//// 333 4/100;
0081010350999992013010712004+69559+020094FM-12+071099999V02099999999999999999N9999999N1-00201+99999999999ADDAJ101009199999999REMSYN052AAXX  07121 01035 46/// ///// 11020 2//// 333 4/100;
0081010350999992013010713004+69559+020094FM-12+071099999V02099999999999999999N9999999N1-00391+99999999999ADDAJ100999199999999REMSYN052AAXX  07131 01035 46/// ///// 11039 2//// 333 4/099;
0081010350999992013010714004+69559+020094FM-12+071099999V02099999999999999999N9999999N1-00471+99999999999ADDAJ101009199999999REMSYN052AAXX  07141 01035 46/// ///// 11047 2//// 333 4/100;
0081010350999992013010715004+69559+020094FM-12+071099999V02099999999999999999N9999999N1-00481+99999999999ADDAJ100999199999999REMSYN052AAXX  07151 01035 46/// ///// 11048 2//// 333 4/099;
0081010350999992013010716004+69559+020094FM-12+071099999V02099999999999999999N9999999N1-00391+99999999999ADDAJ101019199999999REMSYN052AAXX  07161 01035 46/// ///// 11039 2//// 333 4/101;
0081010350999992013010717004+69559+020094FM-12+071099999V02099999999999999999N9999999N1-00091+99999999999ADDAJ101009199999999REMSYN052AAXX  07171 01035 46/// ///// 11009 2//// 333 4/100;
0100010350999992013010718004+69559+020094FM-12+071099999V02099999999999999999N9999999N1-00181+99999999999ADDAJ101009199999999KA1120M+00081REMSYN058AAXX  07181 01035 46/// ///// 11018 2//// 333 10008 4/100;
0081010350999992013010719004+69559+020094FM-12+071099999V02099999999999999999N9999999N1-00051+99999999999ADDAJ101009199999999REMSYN052AAXX  07191 01035 46/// ///// 11005 2//// 333 4/100;
0081010350999992013010720004+69559+020094FM-12+071099999V02099999999999999999N9999999N1+00061+99999999999ADDAJ100979199999999REMSYN052AAXX  07201 01035 46/// ///// 10006 2//// 333 4/097;
0081010350999992013010721004+69559+020094FM-12+071099999V02099999999999999999N9999999N1-00411+99999999999ADDAJ100999199999999REMSYN052AAXX  07211 01035 46/// ///// 11041 2//// 333 4/099;
0081010350999992013010722004+69559+020094FM-12+071099999V02099999999999999999N9999999N1-00431+99999999999ADDAJ101009199999999REMSYN052AAXX  07221 01035 46/// ///// 11043 2//// 333 4/100;
0081010350999992013010723004+69559+020094FM-12+071099999V02099999999999999999N9999999N1-00331+99999999999ADDAJ101019199999999REMSYN052AAXX  07231 01035 46/// ///// 11033 2//// 333 4/101;
0081010350999992013010800004+69559+020094FM-12+071099999V02099999999999999999N9999999N1-00381+99999999999ADDAJ101009199999999REMSYN052AAXX  08001 01035 46/// ///// 11038 2//// 333 4/100;
0081010350999992013010801004+69559+020094FM-12+071099999V02099999999999999999N9999999N1-00161+99999999999ADDAJ100989199999999REMSYN052AAXX  08011 01035 46/// ///// 11016 2//// 333 4/098;
0081010350999992013010802004+69559+020094FM-12+071099999V02099999999999999999N9999999N1-00171+99999999999ADDAJ100999199999999REMSYN052AAXX  08021 01035 46/// ///// 11017 2//// 333 4/099;
0081010350999992013010803004+69559+020094FM-12+071099999V02099999999999999999N9999999N1-00141+99999999999ADDAJ100999199999999REMSYN052AAXX  08031 01035 46/// ///// 11014 2//// 333 4/099;
0081010350999992013010804004+69559+020094FM-12+071099999V02099999999999999999N9999999N1-00551+99999999999ADDAJ100989199999999REMSYN052AAXX  08041 01035 46/// ///// 11055 2//// 333 4/098;
0081010350999992013010805004+69559+020094FM-12+071099999V02099999999999999999N9999999N1-00581+99999999999ADDAJ100999199999999REMSYN052AAXX  08051 01035 46/// ///// 11058 2//// 333 4/099;
0100010350999992013010806004+69559+020094FM-12+071099999V02099999999999999999N9999999N1-00551+99999999999ADDAJ100999199999999KA1999N-00691REMSYN058AAXX  08061 01035 46/// ///// 11055 2//// 333 21069 4/099;
0081010350999992013010807004+69559+020094FM-12+071099999V02099999999999999999N9999999N1-00341+99999999999ADDAJ100999199999999REMSYN052AAXX  08071 01035 46/// ///// 11034 2//// 333 4/099;
0081010350999992013010808004+69559+020094FM-12+071099999V02099999999999999999N9999999N1-00271+99999999999ADDAJ100999199999999REMSYN052AAXX  08081 01035 46/// ///// 11027 2//// 333 4/099;
0081010350999992013010809004+69559+020094FM-12+071099999V02099999999999999999N9999999N1-00171+99999999999ADDAJ100999199999999REMSYN052AAXX  08091 01035 46/// ///// 11017 2//// 333 4/099;
0081010350999992013010810004+69559+020094FM-12+071099999V02099999999999999999N9999999N1-00351+99999999999ADDAJ100999199999999REMSYN052AAXX  08101 01035 46/// ///// 11035 2//// 333 4/099;
0081010350999992013010811004+69559+020094FM-12+071099999V02099999999999999999N9999999N1-00281+99999999999ADDAJ100999199999999REMSYN052AAXX  08111 01035 46/// ///// 11028 2//// 333 4/099;
0081010350999992013010812004+69559+020094FM-12+071099999V02099999999999999999N9999999N1+00051+99999999999ADDAJ100999199999999REMSYN052AAXX  08121 01035 46/// ///// 10005 2//// 333 4/099;
0081010350999992013010813004+69559+020094FM-12+071099999V02099999999999999999N9999999N1+00061+99999999999ADDAJ100989199999999REMSYN052AAXX  08131 01035 46/// ///// 10006 2//// 333 4/098;
0081010350999992013010814004+69559+020094FM-12+071099999V02099999999999999999N9999999N1+00051+99999999999ADDAJ100989199999999REMSYN052AAXX  08141 01035 46/// ///// 10005 2//// 333 4/098;
0081010350999992013010815004+69559+020094FM-12+071099999V02099999999999999999N9999999N1-00131+99999999999ADDAJ100999199999999REMSYN052AAXX  08151 01035 46/// ///// 11013 2//// 333 4/099;
0081010350999992013010816004+69559+020094FM-12+071099999V02099999999999999999N9999999N1-00201+99999999999ADDAJ101009199999999REMSYN052AAXX  08161 01035 46/// ///// 11020 2//// 333 4/100;
0081010350999992013010817004+69559+020094FM-12+071099999V02099999999999999999N9999999N1-00321+99999999999ADDAJ101039199999999REMSYN052AAXX  08171 01035 46/// ///// 11032 2//// 333 4/103;
0100010350999992013010818004+69559+020094FM-12+071099999V02099999999999999999N9999999N1-00361+99999999999ADDAJ100999199999999KA1120M+00111REMSYN058AAXX  08181 01035 46/// ///// 11036 2//// 333 10011 4/099;
0081010350999992013010821004+69559+020094FM-12+071099999V02099999999999999999N9999999N1-00481+99999999999ADDAJ101029199999999REMSYN052AAXX  08211 01035 46/// ///// 11048 2//// 333 4/102;
0081010350999992013010823004+69559+020094FM-12+071099999V02099999999999999999N9999999N1-00491+99999999999ADDAJ101039199999999REMSYN052AAXX  08231 01035 46/// ///// 11049 2//// 333 4/103;
0081010350999992013010900004+69559+020094FM-12+071099999V02099999999999999999N9999999N1-00471+99999999999ADDAJ101089199999999REMSYN052AAXX  09001 01035 46/// ///// 11047 2//// 333 4/108;
0081010350999992013010901004+69559+020094FM-12+071099999V02099999999999999999N9999999N1-00471+99999999999ADDAJ101079199999999REMSYN052AAXX  09011 01035 46/// ///// 11047 2//// 333 4/107;
0081010350999992013010902004+69559+020094FM-12+071099999V02099999999999999999N9999999N1-00451+99999999999ADDAJ101049199999999REMSYN052AAXX  09021 01035 46/// ///// 11045 2//// 333 4/104;
0081010350999992013010903004+69559+020094FM-12+071099999V02099999999999999999N9999999N1-00371+99999999999ADDAJ101119199999999REMSYN052AAXX  09031 01035 46/// ///// 11037 2//// 333 4/111;
0081010350999992013010905004+69559+020094FM-12+071099999V02099999999999999999N9999999N1-00261+99999999999ADDAJ101199199999999REMSYN052AAXX  09051 01035 46/// ///// 11026 2//// 333 4/119;
0081010350999992013010907004+69559+020094FM-12+071099999V02099999999999999999N9999999N1-00241+99999999999ADDAJ101239199999999REMSYN052AAXX  09071 01035 46/// ///// 11024 2//// 333 4/123;
0081010350999992013010909004+69559+020094FM-12+071099999V02099999999999999999N9999999N1-00121+99999999999ADDAJ101239199999999REMSYN052AAXX  09091 01035 46/// ///// 11012 2//// 333 4/123;
0081010350999992013010910004+69559+020094FM-12+071099999V02099999999999999999N9999999N1-00101+99999999999ADDAJ101229199999999REMSYN052AAXX  09101 01035 46/// ///// 11010 2//// 333 4/122;
0081010350999992013010911004+69559+020094FM-12+071099999V02099999999999999999N9999999N1-00181+99999999999ADDAJ101219199999999REMSYN052AAXX  09111 01035 46/// ///// 11018 2//// 333 4/121;
0081010350999992013010912004+69559+020094FM-12+071099999V02099999999999999999N9999999N1-00151+99999999999ADDAJ101249199999999REMSYN052AAXX  09121 01035 46/// ///// 11015 2//// 333 4/124;
0081010350999992013010913004+69559+020094FM-12+071099999V02099999999999999999N9999999N1-00171+99999999999ADDAJ101239199999999REMSYN052AAXX  09131 01035 46/// ///// 11017 2//// 333 4/123;
0081010350999992013010914004+69559+020094FM-12+071099999V02099999999999999999N9999999N1-00131+99999999999ADDAJ101239199999999REMSYN052AAXX  09141 01035 46/// ///// 11013 2//// 333 4/123;
0081010350999992013010915004+69559+020094FM-12+071099999V02099999999999999999N9999999N1-00151+99999999999ADDAJ101239199999999REMSYN052AAXX  09151 01035 46/// ///// 11015 2//// 333 4/123;
0081010350999992013010916004+69559+020094FM-12+071099999V02099999999999999999N9999999N1-00141+99999999999ADDAJ101249199999999REMSYN052AAXX  09161 01035 46/// ///// 11014 2//// 333 4/124;
0081010350999992013010917004+69559+020094FM-12+071099999V02099999999999999999N9999999N1-00151+99999999999ADDAJ101249199999999REMSYN052AAXX  09171 01035 46/// ///// 11015 2//// 333 4/124;
0081010350999992013010918004+69559+020094FM-12+071099999V02099999999999999999N9999999N1-00161+99999999999ADDAJ101249199999999REMSYN052AAXX  09181 01035 46/// ///// 11016 2//// 333 4/124;
0081010350999992013010919004+69559+020094FM-12+071099999V02099999999999999999N9999999N1-00161+99999999999ADDAJ101239199999999REMSYN052AAXX  09191 01035 46/// ///// 11016 2//// 333 4/123;
0081010350999992013010920004+69559+020094FM-12+071099999V02099999999999999999N9999999N1-00161+99999999999ADDAJ101229199999999REMSYN052AAXX  09201 01035 46/// ///// 11016 2//// 333 4/122;
0081010350999992013010922004+69559+020094FM-12+071099999V02099999999999999999N9999999N1-00171+99999999999ADDAJ101259199999999REMSYN052AAXX  09221 01035 46/// ///// 11017 2//// 333 4/125;
0081010350999992013010923004+69559+020094FM-12+071099999V02099999999999999999N9999999N1-00181+99999999999ADDAJ101239199999999REMSYN052AAXX  09231 01035 46/// ///// 11018 2//// 333 4/123;
0081010350999992013011000004+69559+020094FM-12+071099999V02099999999999999999N9999999N1-00191+99999999999ADDAJ101249199999999REMSYN052AAXX  10001 01035 46/// ///// 11019 2//// 333 4/124;
0081010350999992013011001004+69559+020094FM-12+071099999V02099999999999999999N9999999N1-00381+99999999999ADDAJ101239199999999REMSYN052AAXX  10011 01035 46/// ///// 11038 2//// 333 4/123;
0081010350999992013011002004+69559+020094FM-12+071099999V02099999999999999999N9999999N1-00461+99999999999ADDAJ101229199999999REMSYN052AAXX  10021 01035 46/// ///// 11046 2//// 333 4/122;
0081010350999992013011003004+69559+020094FM-12+071099999V02099999999999999999N9999999N1-00591+99999999999ADDAJ101239199999999REMSYN052AAXX  10031 01035 46/// ///// 11059 2//// 333 4/123;
0081010350999992013011004004+69559+020094FM-12+071099999V02099999999999999999N9999999N1-00711+99999999999ADDAJ101229199999999REMSYN052AAXX  10041 01035 46/// ///// 11071 2//// 333 4/122;
0081010350999992013011005004+69559+020094FM-12+071099999V02099999999999999999N9999999N1-00701+99999999999ADDAJ101229199999999REMSYN052AAXX  10051 01035 46/// ///// 11070 2//// 333 4/122;
0081010350999992013011006004+69559+020094FM-12+071099999V02099999999999999999N9999999N1-00651+99999999999ADDAJ101229199999999REMSYN052AAXX  10061 01035 46/// ///// 11065 2//// 333 4/122;
0081010350999992013011007004+69559+020094FM-12+071099999V02099999999999999999N9999999N1-00621+99999999999ADDAJ101229199999999REMSYN052AAXX  10071 01035 46/// ///// 11062 2//// 333 4/122;
0081010350999992013011008004+69559+020094FM-12+071099999V02099999999999999999N9999999N1-00421+99999999999ADDAJ101229199999999REMSYN052AAXX  10081 01035 46/// ///// 11042 2//// 333 4/122;
0081010350999992013011009004+69559+020094FM-12+071099999V02099999999999999999N9999999N1-00501+99999999999ADDAJ101219199999999REMSYN052AAXX  10091 01035 46/// ///// 11050 2//// 333 4/121;
0081010350999992013011010004+69559+020094FM-12+071099999V02099999999999999999N9999999N1-00671+99999999999ADDAJ101219199999999REMSYN052AAXX  10101 01035 46/// ///// 11067 2//// 333 4/121;
0081010350999992013011011004+69559+020094FM-12+071099999V02099999999999999999N9999999N1-00511+99999999999ADDAJ101219199999999REMSYN052AAXX  10111 01035 46/// ///// 11051 2//// 333 4/121;
0081010350999992013011012004+69559+020094FM-12+071099999V02099999999999999999N9999999N1-00381+99999999999ADDAJ101229199999999REMSYN052AAXX  10121 01035 46/// ///// 11038 2//// 333 4/122;
0081010350999992013011013004+69559+020094FM-12+071099999V02099999999999999999N9999999N1-00231+99999999999ADDAJ101219199999999REMSYN052AAXX  10131 01035 46/// ///// 11023 2//// 333 4/121;
0081010350999992013011014004+69559+020094FM-12+071099999V02099999999999999999N9999999N1-00261+99999999999ADDAJ101219199999999REMSYN052AAXX  10141 01035 46/// ///// 11026 2//// 333 4/121;
0081010350999992013011015004+69559+020094FM-12+071099999V02099999999999999999N9999999N1-00491+99999999999ADDAJ101219199999999REMSYN052AAXX  10151 01035 46/// ///// 11049 2//// 333 4/121;
0081010350999992013011016004+69559+020094FM-12+071099999V02099999999999999999N9999999N1-00611+99999999999ADDAJ101219199999999REMSYN052AAXX  10161 01035 46/// ///// 11061 2//// 333 4/121;
0081010350999992013011017004+69559+020094FM-12+071099999V02099999999999999999N9999999N1-00771+99999999999ADDAJ101209199999999REMSYN052AAXX  10171 01035 46/// ///// 11077 2//// 333 4/120;
0100010350999992013011018004+69559+020094FM-12+071099999V02099999999999999999N9999999N1-00621+99999999999ADDAJ101219199999999KA1120M-00201REMSYN058AAXX  10181 01035 46/// ///// 11062 2//// 333 11020 4/121;
0081010350999992013011019004+69559+020094FM-12+071099999V02099999999999999999N9999999N1-00471+99999999999ADDAJ101189199999999REMSYN052AAXX  10191 01035 46/// ///// 11047 2//// 333 4/118;
0081010350999992013011020004+69559+020094FM-12+071099999V02099999999999999999N9999999N1-00421+99999999999ADDAJ101209199999999REMSYN052AAXX  10201 01035 46/// ///// 11042 2//// 333 4/120;
0081010350999992013011021004+69559+020094FM-12+071099999V02099999999999999999N9999999N1-00371+99999999999ADDAJ101219199999999REMSYN052AAXX  10211 01035 46/// ///// 11037 2//// 333 4/121;
0081010350999992013011022004+69559+020094FM-12+071099999V02099999999999999999N9999999N1-00501+99999999999ADDAJ101229199999999REMSYN052AAXX  10221 01035 46/// ///// 11050 2//// 333 4/122;
0081010350999992013011023004+69559+020094FM-12+071099999V02099999999999999999N9999999N1-00411+99999999999ADDAJ101219199999999REMSYN052AAXX  10231 01035 46/// ///// 11041 2//// 333 4/121;
0081010350999992013011100004+69559+020094FM-12+071099999V02099999999999999999N9999999N1-00431+99999999999ADDAJ101229199999999REMSYN052AAXX  11001 01035 46/// ///// 11043 2//// 333 4/122;
0081010350999992013011101004+69559+020094FM-12+071099999V02099999999999999999N9999999N1-00621+99999999999ADDAJ101219199999999REMSYN052AAXX  11011 01035 46/// ///// 11062 2//// 333 4/121;
0081010350999992013011102004+69559+020094FM-12+071099999V02099999999999999999N9999999N1-00381+99999999999ADDAJ101239199999999REMSYN052AAXX  11021 01035 46/// ///// 11038 2//// 333 4/123;
0081010350999992013011103004+69559+020094FM-12+071099999V02099999999999999999N9999999N1-00371+99999999999ADDAJ101219199999999REMSYN052AAXX  11031 01035 46/// ///// 11037 2//// 333 4/121;
0081010350999992013011104004+69559+020094FM-12+071099999V02099999999999999999N9999999N1-00291+99999999999ADDAJ101229199999999REMSYN052AAXX  11041 01035 46/// ///// 11029 2//// 333 4/122;
0081010350999992013011106004+69559+020094FM-12+071099999V02099999999999999999N9999999N1-00241+99999999999ADDAJ101209199999999REMSYN052AAXX  11061 01035 46/// ///// 11024 2//// 333 4/120;
0081010350999992013011107004+69559+020094FM-12+071099999V02099999999999999999N9999999N1-00191+99999999999ADDAJ101199199999999REMSYN052AAXX  11071 01035 46/// ///// 11019 2//// 333 4/119;
0081010350999992013011108004+69559+020094FM-12+071099999V02099999999999999999N9999999N1-00181+99999999999ADDAJ101189199999999REMSYN052AAXX  11081 01035 46/// ///// 11018 2//// 333 4/118;
0081010350999992013011109004+69559+020094FM-12+071099999V02099999999999999999N9999999N1-00201+99999999999ADDAJ101199199999999REMSYN052AAXX  11091 01035 46/// ///// 11020 2//// 333 4/119;
0081010350999992013011110004+69559+020094FM-12+071099999V02099999999999999999N9999999N1-00151+99999999999ADDAJ101199199999999REMSYN052AAXX  11101 01035 46/// ///// 11015 2//// 333 4/119;
0081010350999992013011111004+69559+020094FM-12+071099999V02099999999999999999N9999999N1-00141+99999999999ADDAJ101169199999999REMSYN052AAXX  11111 01035 46/// ///// 11014 2//// 333 4/116;
0081010350999992013011112004+69559+020094FM-12+071099999V02099999999999999999N9999999N1-00141+99999999999ADDAJ101159199999999REMSYN052AAXX  11121 01035 46/// ///// 11014 2//// 333 4/115;
0081010350999992013011113004+69559+020094FM-12+071099999V02099999999999999999N9999999N1-00121+99999999999ADDAJ101159199999999REMSYN052AAXX  11131 01035 46/// ///// 11012 2//// 333 4/115;
0081010350999992013011114004+69559+020094FM-12+071099999V02099999999999999999N9999999N1-00131+99999999999ADDAJ101139199999999REMSYN052AAXX  11141 01035 46/// ///// 11013 2//// 333 4/113;
0081010350999992013011115004+69559+020094FM-12+071099999V02099999999999999999N9999999N1-00061+99999999999ADDAJ101159199999999REMSYN052AAXX  11151 01035 46/// ///// 11006 2//// 333 4/115;
0081010350999992013011116004+69559+020094FM-12+071099999V02099999999999999999N9999999N1-00061+99999999999ADDAJ101119199999999REMSYN052AAXX  11161 01035 46/// ///// 11006 2//// 333 4/111;
0081010350999992013011117004+69559+020094FM-12+071099999V02099999999999999999N9999999N1-00011+99999999999ADDAJ101129199999999REMSYN052AAXX  11171 01035 46/// ///// 11001 2//// 333 4/112;
0100010350999992013011118004+69559+020094FM-12+071099999V02099999999999999999N9999999N1-00061+99999999999ADDAJ101169199999999KA1120M+00011REMSYN058AAXX  11181 01035 46/// ///// 11006 2//// 333 10001 4/116;
0081010350999992013011119004+69559+020094FM-12+071099999V02099999999999999999N9999999N1-00041+99999999999ADDAJ101189199999999REMSYN052AAXX  11191 01035 46/// ///// 11004 2//// 333 4/118;
0081010350999992013011120004+69559+020094FM-12+071099999V02099999999999999999N9999999N1-00021+99999999999ADDAJ101209199999999REMSYN052AAXX  11201 01035 46/// ///// 11002 2//// 333 4/120;
0081010350999992013011121004+69559+020094FM-12+071099999V02099999999999999999N9999999N1-00031+99999999999ADDAJ101219199999999REMSYN052AAXX  11211 01035 46/// ///// 11003 2//// 333 4/121;
0081010350999992013011122004+69559+020094FM-12+071099999V02099999999999999999N9999999N1-00031+99999999999ADDAJ101199199999999REMSYN052AAXX  11221 01035 46/// ///// 11003 2//// 333 4/119;
0081010350999992013011123004+69559+020094FM-12+071099999V02099999999999999999N9999999N1+00041+99999999999ADDAJ101189199999999REMSYN052AAXX  11231 01035 46/// ///// 10004 2//// 333 4/118;
0081010350999992013011200004+69559+020094FM-12+071099999V02099999999999999999N9999999N1+00021+99999999999ADDAJ101219199999999REMSYN052AAXX  12001 01035 46/// ///// 10002 2//// 333 4/121;
0081010350999992013011201004+69559+020094FM-12+071099999V02099999999999999999N9999999N1+00071+99999999999ADDAJ101229199999999REMSYN052AAXX  12011 01035 46/// ///// 10007 2//// 333 4/122;
0081010350999992013011202004+69559+020094FM-12+071099999V02099999999999999999N9999999N1+00061+99999999999ADDAJ101209199999999REMSYN052AAXX  12021 01035 46/// ///// 10006 2//// 333 4/120;
0081010350999992013011203004+69559+020094FM-12+071099999V02099999999999999999N9999999N1+00121+99999999999ADDAJ101199199999999REMSYN052AAXX  12031 01035 46/// ///// 10012 2//// 333 4/119;
0081010350999992013011204004+69559+020094FM-12+071099999V02099999999999999999N9999999N1+00151+99999999999ADDAJ101199199999999REMSYN052AAXX  12041 01035 46/// ///// 10015 2//// 333 4/119;
0081010350999992013011205004+69559+020094FM-12+071099999V02099999999999999999N9999999N1+00071+99999999999ADDAJ101199199999999REMSYN052AAXX  12051 01035 46/// ///// 10007 2//// 333 4/119;
0100010350999992013011206004+69559+020094FM-12+071099999V02099999999999999999N9999999N1-00031+99999999999ADDAJ101209199999999KA1999N-00061REMSYN058AAXX  12061 01035 46/// ///// 11003 2//// 333 21006 4/120;
0081010350999992013011207004+69559+020094FM-12+071099999V02099999999999999999N9999999N1+00051+99999999999ADDAJ101209199999999REMSYN052AAXX  12071 01035 46/// ///// 10005 2//// 333 4/120;
0081010350999992013011208004+69559+020094FM-12+071099999V02099999999999999999N9999999N1+00061+99999999999ADDAJ101209199999999REMSYN052AAXX  12081 01035 46/// ///// 10006 2//// 333 4/120;
0081010350999992013011209004+69559+020094FM-12+071099999V02099999999999999999N9999999N1+00041+99999999999ADDAJ101199199999999REMSYN052AAXX  12091 01035 46/// ///// 10004 2//// 333 4/119;
0081010350999992013011210004+69559+020094FM-12+071099999V02099999999999999999N9999999N1+00001+99999999999ADDAJ101199199999999REMSYN052AAXX  12101 01035 46/// ///// 10000 2//// 333 4/119;
0081010350999992013011211004+69559+020094FM-12+071099999V02099999999999999999N9999999N1-00021+99999999999ADDAJ101199199999999REMSYN052AAXX  12111 01035 46/// ///// 11002 2//// 333 4/119;
0081010350999992013011212004+69559+020094FM-12+071099999V02099999999999999999N9999999N1-00011+99999999999ADDAJ101189199999999REMSYN052AAXX  12121 01035 46/// ///// 11001 2//// 333 4/118;
0081010350999992013011213004+69559+020094FM-12+071099999V02099999999999999999N9999999N1-00021+99999999999ADDAJ101189199999999REMSYN052AAXX  12131 01035 46/// ///// 11002 2//// 333 4/118;
0081010350999992013011214004+69559+020094FM-12+071099999V02099999999999999999N9999999N1-00101+99999999999ADDAJ101189199999999REMSYN052AAXX  12141 01035 46/// ///// 11010 2//// 333 4/118;
0081010350999992013011215004+69559+020094FM-12+071099999V02099999999999999999N9999999N1-00131+99999999999ADDAJ101189199999999REMSYN052AAXX  12151 01035 46/// ///// 11013 2//// 333 4/118;
0081010350999992013011216004+69559+020094FM-12+071099999V02099999999999999999N9999999N1-00181+99999999999ADDAJ101189199999999REMSYN052AAXX  12161 01035 46/// ///// 11018 2//// 333 4/118;
0081010350999992013011217004+69559+020094FM-12+071099999V02099999999999999999N9999999N1-00161+99999999999ADDAJ101199199999999REMSYN052AAXX  12171 01035 46/// ///// 11016 2//// 333 4/119;
0100010350999992013011218004+69559+020094FM-12+071099999V02099999999999999999N9999999N1-00181+99999999999ADDAJ101199199999999KA1120M+00091REMSYN058AAXX  12181 01035 46/// ///// 11018 2//// 333 10009 4/119;
0081010350999992013011219004+69559+020094FM-12+071099999V02099999999999999999N9999999N1-00201+99999999999ADDAJ101199199999999REMSYN052AAXX  12191 01035 46/// ///// 11020 2//// 333 4/119;
0081010350999992013011220004+69559+020094FM-12+071099999V02099999999999999999N9999999N1-00231+99999999999ADDAJ101199199999999REMSYN052AAXX  12201 01035 46/// ///// 11023 2//// 333 4/119;
0081010350999992013011221004+69559+020094FM-12+071099999V02099999999999999999N9999999N1-00281+99999999999ADDAJ101199199999999REMSYN052AAXX  12211 01035 46/// ///// 11028 2//// 333 4/119;
0081010350999992013011222004+69559+020094FM-12+071099999V02099999999999999999N9999999N1-00171+99999999999ADDAJ101199199999999REMSYN052AAXX  12221 01035 46/// ///// 11017 2//// 333 4/119;
0081010350999992013011223004+69559+020094FM-12+071099999V02099999999999999999N9999999N1-00191+99999999999ADDAJ101199199999999REMSYN052AAXX  12231 01035 46/// ///// 11019 2//// 333 4/119;
0081010350999992013011300004+69559+020094FM-12+071099999V02099999999999999999N9999999N1-00091+99999999999ADDAJ101189199999999REMSYN052AAXX  13001 01035 46/// ///// 11009 2//// 333 4/118;
0081010350999992013011301004+69559+020094FM-12+071099999V02099999999999999999N9999999N1-00161+99999999999ADDAJ101189199999999REMSYN052AAXX  13011 01035 46/// ///// 11016 2//// 333 4/118;
0081010350999992013011302004+69559+020094FM-12+071099999V02099999999999999999N9999999N1-00111+99999999999ADDAJ101189199999999REMSYN052AAXX  13021 01035 46/// ///// 11011 2//// 333 4/118;
0081010350999992013011303004+69559+020094FM-12+071099999V02099999999999999999N9999999N1-00161+99999999999ADDAJ101189199999999REMSYN052AAXX  13031 01035 46/// ///// 11016 2//// 333 4/118;
0081010350999992013011304004+69559+020094FM-12+071099999V02099999999999999999N9999999N1-00241+99999999999ADDAJ101199199999999REMSYN052AAXX  13041 01035 46/// ///// 11024 2//// 333 4/119;
0081010350999992013011305004+69559+020094FM-12+071099999V02099999999999999999N9999999N1-00231+99999999999ADDAJ101189199999999REMSYN052AAXX  13051 01035 46/// ///// 11023 2//// 333 4/118;
0100010350999992013011306004+69559+020094FM-12+071099999V02099999999999999999N9999999N1-00281+99999999999ADDAJ101189199999999KA1999N-00391REMSYN058AAXX  13061 01035 46/// ///// 11028 2//// 333 21039 4/118;
0081010350999992013011307004+69559+020094FM-12+071099999V02099999999999999999N9999999N1-00311+99999999999ADDAJ101189199999999REMSYN052AAXX  13071 01035 46/// ///// 11031 2//// 333 4/118;
0081010350999992013011308004+69559+020094FM-12+071099999V02099999999999999999N9999999N1-00371+99999999999ADDAJ101189199999999REMSYN052AAXX  13081 01035 46/// ///// 11037 2//// 333 4/118;
0081010350999992013011309004+69559+020094FM-12+071099999V02099999999999999999N9999999N1-00301+99999999999ADDAJ101189199999999REMSYN052AAXX  13091 01035 46/// ///// 11030 2//// 333 4/118;
0081010350999992013011310004+69559+020094FM-12+071099999V02099999999999999999N9999999N1-00301+99999999999ADDAJ101189199999999REMSYN052AAXX  13101 01035 46/// ///// 11030 2//// 333 4/118;
0081010350999992013011311004+69559+020094FM-12+071099999V02099999999999999999N9999999N1-00281+99999999999ADDAJ101189199999999REMSYN052AAXX  13111 01035 46/// ///// 11028 2//// 333 4/118;
0081010350999992013011312004+69559+020094FM-12+071099999V02099999999999999999N9999999N1-00301+99999999999ADDAJ101189199999999REMSYN052AAXX  13121 01035 46/// ///// 11030 2//// 333 4/118;
0081010350999992013011313004+69559+020094FM-12+071099999V02099999999999999999N9999999N1-00311+99999999999ADDAJ101189199999999REMSYN052AAXX  13131 01035 46/// ///// 11031 2//// 333 4/118;
0081010350999992013011314004+69559+020094FM-12+071099999V02099999999999999999N9999999N1-00291+99999999999ADDAJ101189199999999REMSYN052AAXX  13141 01035 46/// ///// 11029 2//// 333 4/118;
0081010350999992013011315004+69559+020094FM-12+071099999V02099999999999999999N9999999N1-00281+99999999999ADDAJ101179199999999REMSYN052AAXX  13151 01035 46/// ///// 11028 2//// 333 4/117;
0081010350999992013011316004+69559+020094FM-12+071099999V02099999999999999999N9999999N1-00271+99999999999ADDAJ101199199999999REMSYN052AAXX  13161 01035 46/// ///// 11027 2//// 333 4/119;
0081010350999992013011317004+69559+020094FM-12+071099999V02099999999999999999N9999999N1-00251+99999999999ADDAJ101219199999999REMSYN052AAXX  13171 01035 46/// ///// 11025 2//// 333 4/121;
0100010350999992013011318004+69559+020094FM-12+071099999V02099999999999999999N9999999N1-00211+99999999999ADDAJ101219199999999KA1120M-00151REMSYN058AAXX  13181 01035 46/// ///// 11021 2//// 333 11015 4/121;
0081010350999992013011319004+69559+020094FM-12+071099999V02099999999999999999N9999999N1-00151+99999999999ADDAJ101219199999999REMSYN052AAXX  13191 01035 46/// ///// 11015 2//// 333 4/121;
0081010350999992013011321004+69559+020094FM-12+071099999V02099999999999999999N9999999N1-00151+99999999999ADDAJ101219199999999REMSYN052AAXX  13211 01035 46/// ///// 11015 2//// 333 4/121;
0081010350999992013011322004+69559+020094FM-12+071099999V02099999999999999999N9999999N1-00151+99999999999ADDAJ101229199999999REMSYN052AAXX  13221 01035 46/// ///// 11015 2//// 333 4/122;
0081010350999992013011323004+69559+020094FM-12+071099999V02099999999999999999N9999999N1-00161+99999999999ADDAJ101229199999999REMSYN052AAXX  13231 01035 46/// ///// 11016 2//// 333 4/122;
0081010350999992013011400004+69559+020094FM-12+071099999V02099999999999999999N9999999N1-00181+99999999999ADDAJ101209199999999REMSYN052AAXX  14001 01035 46/// ///// 11018 2//// 333 4/120;
0081010350999992013011401004+69559+020094FM-12+071099999V02099999999999999999N9999999N1-00211+99999999999ADDAJ101219199999999REMSYN052AAXX  14011 01035 46/// ///// 11021 2//// 333 4/121;
0081010350999992013011402004+69559+020094FM-12+071099999V02099999999999999999N9999999N1-00221+99999999999ADDAJ101219199999999REMSYN052AAXX  14021 01035 46/// ///// 11022 2//// 333 4/121;
0081010350999992013011403004+69559+020094FM-12+071099999V02099999999999999999N9999999N1-00221+99999999999ADDAJ101219199999999REMSYN052AAXX  14031 01035 46/// ///// 11022 2//// 333 4/121;
0081010350999992013011405004+69559+020094FM-12+071099999V02099999999999999999N9999999N1-00161+99999999999ADDAJ101229199999999REMSYN052AAXX  14051 01035 46/// ///// 11016 2//// 333 4/122;
0081010350999992013011406004+69559+020094FM-12+071099999V02099999999999999999N9999999N1-00141+99999999999ADDAJ101219199999999REMSYN052AAXX  14061 01035 46/// ///// 11014 2//// 333 4/121;
0081010350999992013011407004+69559+020094FM-12+071099999V02099999999999999999N9999999N1-00171+99999999999ADDAJ101219199999999REMSYN052AAXX  14071 01035 46/// ///// 11017 2//// 333 4/121;
0081010350999992013011408004+69559+020094FM-12+071099999V02099999999999999999N9999999N1-00241+99999999999ADDAJ101219199999999REMSYN052AAXX  14081 01035 46/// ///// 11024 2//// 333 4/121;
0081010350999992013011409004+69559+020094FM-12+071099999V02099999999999999999N9999999N1-00191+99999999999ADDAJ101229199999999REMSYN052AAXX  14091 01035 46/// ///// 11019 2//// 333 4/122;
0081010350999992013011410004+69559+020094FM-12+071099999V02099999999999999999N9999999N1-00211+99999999999ADDAJ101219199999999REMSYN052AAXX  14101 01035 46/// ///// 11021 2//// 333 4/121;
0081010350999992013011411004+69559+020094FM-12+071099999V02099999999999999999N9999999N1-00241+99999999999ADDAJ101229199999999REMSYN052AAXX  14111 01035 46/// ///// 11024 2//// 333 4/122;
0081010350999992013011412004+69559+020094FM-12+071099999V02099999999999999999N9999999N1-00251+99999999999ADDAJ101229199999999REMSYN052AAXX  14121 01035 46/// ///// 11025 2//// 333 4/122;
0081010350999992013011413004+69559+020094FM-12+071099999V02099999999999999999N9999999N1-00241+99999999999ADDAJ101239199999999REMSYN052AAXX  14131 01035 46/// ///// 11024 2//// 333 4/123;
0081010350999992013011414004+69559+020094FM-12+071099999V02099999999999999999N9999999N1-00321+99999999999ADDAJ101249199999999REMSYN052AAXX  14141 01035 46/// ///// 11032 2//// 333 4/124;
0081010350999992013011415004+69559+020094FM-12+071099999V02099999999999999999N9999999N1-00311+99999999999ADDAJ101259199999999REMSYN052AAXX  14151 01035 46/// ///// 11031 2//// 333 4/125;
0081010350999992013011416004+69559+020094FM-12+071099999V02099999999999999999N9999999N1-00371+99999999999ADDAJ101279199999999REMSYN052AAXX  14161 01035 46/// ///// 11037 2//// 333 4/127;
0081010350999992013011417004+69559+020094FM-12+071099999V02099999999999999999N9999999N1-00391+99999999999ADDAJ101269199999999REMSYN052AAXX  14171 01035 46/// ///// 11039 2//// 333 4/126;
0100010350999992013011418004+69559+020094FM-12+071099999V02099999999999999999N9999999N1-00381+99999999999ADDAJ101279199999999KA1120M-00141REMSYN058AAXX  14181 01035 46/// ///// 11038 2//// 333 11014 4/127;
0081010350999992013011419004+69559+020094FM-12+071099999V02099999999999999999N9999999N1-00551+99999999999ADDAJ101269199999999REMSYN052AAXX  14191 01035 46/// ///// 11055 2//// 333 4/126;
0081010350999992013011420004+69559+020094FM-12+071099999V02099999999999999999N9999999N1-00841+99999999999ADDAJ101259199999999REMSYN052AAXX  14201 01035 46/// ///// 11084 2//// 333 4/125;
0081010350999992013011421004+69559+020094FM-12+071099999V02099999999999999999N9999999N1-00961+99999999999ADDAJ101279199999999REMSYN052AAXX  14211 01035 46/// ///// 11096 2//// 333 4/127;
0081010350999992013011422004+69559+020094FM-12+071099999V02099999999999999999N9999999N1-00741+99999999999ADDAJ101269199999999REMSYN052AAXX  14221 01035 46/// ///// 11074 2//// 333 4/126;
0081010350999992013011500004+69559+020094FM-12+071099999V02099999999999999999N9999999N1-01061+99999999999ADDAJ101269199999999REMSYN052AAXX  15001 01035 46/// ///// 11106 2//// 333 4/126;
0081010350999992013011502004+69559+020094FM-12+071099999V02099999999999999999N9999999N1-00771+99999999999ADDAJ101269199999999REMSYN052AAXX  15021 01035 46/// ///// 11077 2//// 333 4/126;
0081010350999992013011503004+69559+020094FM-12+071099999V02099999999999999999N9999999N1-00851+99999999999ADDAJ101259199999999REMSYN052AAXX  15031 01035 46/// ///// 11085 2//// 333 4/125;
0081010350999992013011504004+69559+020094FM-12+071099999V02099999999999999999N9999999N1-01161+99999999999ADDAJ101249199999999REMSYN052AAXX  15041 01035 46/// ///// 11116 2//// 333 4/124;
0081010350999992013011505004+69559+020094FM-12+071099999V02099999999999999999N9999999N1-01131+99999999999ADDAJ101269199999999REMSYN052AAXX  15051 01035 46/// ///// 11113 2//// 333 4/126;
0081010350999992013011506004+69559+020094FM-12+071099999V02099999999999999999N9999999N1-00931+99999999999ADDAJ101269199999999REMSYN052AAXX  15061 01035 46/// ///// 11093 2//// 333 4/126;
0081010350999992013011507004+69559+020094FM-12+071099999V02099999999999999999N9999999N1-01191+99999999999ADDAJ101239199999999REMSYN052AAXX  15071 01035 46/// ///// 11119 2//// 333 4/123;
0081010350999992013011508004+69559+020094FM-12+071099999V02099999999999999999N9999999N1-01221+99999999999ADDAJ101249199999999REMSYN052AAXX  15081 01035 46/// ///// 11122 2//// 333 4/124;
0081010350999992013011509004+69559+020094FM-12+071099999V02099999999999999999N9999999N1-01341+99999999999ADDAJ101269199999999REMSYN052AAXX  15091 01035 46/// ///// 11134 2//// 333 4/126;
0081010350999992013011510004+69559+020094FM-12+071099999V02099999999999999999N9999999N1-01331+99999999999ADDAJ101239199999999REMSYN052AAXX  15101 01035 46/// ///// 11133 2//// 333 4/123;
0081010350999992013011511004+69559+020094FM-12+071099999V02099999999999999999N9999999N1-01331+99999999999ADDAJ101259199999999REMSYN052AAXX  15111 01035 46/// ///// 11133 2//// 333 4/125;
0081010350999992013011512004+69559+020094FM-12+071099999V02099999999999999999N9999999N1-01261+99999999999ADDAJ101249199999999REMSYN052AAXX  15121 01035 46/// ///// 11126 2//// 333 4/124;
0081010350999992013011513004+69559+020094FM-12+071099999V02099999999999999999N9999999N1-01331+99999999999ADDAJ101259199999999REMSYN052AAXX  15131 01035 46/// ///// 11133 2//// 333 4/125;
0081010350999992013011514004+69559+020094FM-12+071099999V02099999999999999999N9999999N1-01221+99999999999ADDAJ101259199999999REMSYN052AAXX  15141 01035 46/// ///// 11122 2//// 333 4/125;
0081010350999992013011516004+69559+020094FM-12+071099999V02099999999999999999N9999999N1-01131+99999999999ADDAJ101229199999999REMSYN052AAXX  15161 01035 46/// ///// 11113 2//// 333 4/122;
0081010350999992013011517004+69559+020094FM-12+071099999V02099999999999999999N9999999N1-01191+99999999999ADDAJ101249199999999REMSYN052AAXX  15171 01035 46/// ///// 11119 2//// 333 4/124;
0081010350999992013011518004+69559+020094FM-12+071099999V02099999999999999999N9999999N1-01221+99999999999ADDAJ101239199999999REMSYN052AAXX  15181 01035 46/// ///// 11122 2//// 333 4/123;
0081010350999992013011519004+69559+020094FM-12+071099999V02099999999999999999N9999999N1-01151+99999999999ADDAJ101239199999999REMSYN052AAXX  15191 01035 46/// ///// 11115 2//// 333 4/123;
0081010350999992013011520004+69559+020094FM-12+071099999V02099999999999999999N9999999N1-01071+99999999999ADDAJ101239199999999REMSYN052AAXX  15201 01035 46/// ///// 11107 2//// 333 4/123;
0081010350999992013011521004+69559+020094FM-12+071099999V02099999999999999999N9999999N1-00971+99999999999ADDAJ101239199999999REMSYN052AAXX  15211 01035 46/// ///// 11097 2//// 333 4/123;
0081010350999992013011522004+69559+020094FM-12+071099999V02099999999999999999N9999999N1-00771+99999999999ADDAJ101239199999999REMSYN052AAXX  15221 01035 46/// ///// 11077 2//// 333 4/123;
0081010350999992013011523004+69559+020094FM-12+071099999V02099999999999999999N9999999N1-00481+99999999999ADDAJ101239199999999REMSYN052AAXX  15231 01035 46/// ///// 11048 2//// 333 4/123;
0081010350999992013011600004+69559+020094FM-12+071099999V02099999999999999999N9999999N1-00441+99999999999ADDAJ101239199999999REMSYN052AAXX  16001 01035 46/// ///// 11044 2//// 333 4/123;
0081010350999992013011601004+69559+020094FM-12+071099999V02099999999999999999N9999999N1-00381+99999999999ADDAJ101239199999999REMSYN052AAXX  16011 01035 46/// ///// 11038 2//// 333 4/123;
0081010350999992013011602004+69559+020094FM-12+071099999V02099999999999999999N9999999N1-00291+99999999999ADDAJ101239199999999REMSYN052AAXX  16021 01035 46/// ///// 11029 2//// 333 4/123;
0081010350999992013011603004+69559+020094FM-12+071099999V02099999999999999999N9999999N1-00321+99999999999ADDAJ101239199999999REMSYN052AAXX  16031 01035 46/// ///// 11032 2//// 333 4/123;
0081010350999992013011604004+69559+020094FM-12+071099999V02099999999999999999N9999999N1-00271+99999999999ADDAJ101239199999999REMSYN052AAXX  16041 01035 46/// ///// 11027 2//// 333 4/123;
0081010350999992013011605004+69559+020094FM-12+071099999V02099999999999999999N9999999N1-00311+99999999999ADDAJ101229199999999REMSYN052AAXX  16051 01035 46/// ///// 11031 2//// 333 4/122;
0081010350999992013011607004+69559+020094FM-12+071099999V02099999999999999999N9999999N1-00421+99999999999ADDAJ101219199999999REMSYN052AAXX  16071 01035 46/// ///// 11042 2//// 333 4/121;
0081010350999992013011608004+69559+020094FM-12+071099999V02099999999999999999N9999999N1-00211+99999999999ADDAJ101229199999999REMSYN052AAXX  16081 01035 46/// ///// 11021 2//// 333 4/122;
0081010350999992013011609004+69559+020094FM-12+071099999V02099999999999999999N9999999N1-00251+99999999999ADDAJ101219199999999REMSYN052AAXX  16091 01035 46/// ///// 11025 2//// 333 4/121;
0081010350999992013011610004+69559+020094FM-12+071099999V02099999999999999999N9999999N1-00391+99999999999ADDAJ101229199999999REMSYN052AAXX  16101 01035 46/// ///// 11039 2//// 333 4/122;
0081010350999992013011611004+69559+020094FM-12+071099999V02099999999999999999N9999999N1-00541+99999999999ADDAJ101229199999999REMSYN052AAXX  16111 01035 46/// ///// 11054 2//// 333 4/122;
0081010350999992013011612004+69559+020094FM-12+071099999V02099999999999999999N9999999N1-00431+99999999999ADDAJ101229199999999REMSYN052AAXX  16121 01035 46/// ///// 11043 2//// 333 4/122;
0081010350999992013011613004+69559+020094FM-12+071099999V02099999999999999999N9999999N1-00351+99999999999ADDAJ101229199999999REMSYN052AAXX  16131 01035 46/// ///// 11035 2//// 333 4/122;
0081010350999992013011614004+69559+020094FM-12+071099999V02099999999999999999N9999999N1-00611+99999999999ADDAJ101219199999999REMSYN052AAXX  16141 01035 46/// ///// 11061 2//// 333 4/121;
0081010350999992013011615004+69559+020094FM-12+071099999V02099999999999999999N9999999N1-00701+99999999999ADDAJ101229199999999REMSYN052AAXX  16151 01035 46/// ///// 11070 2//// 333 4/122;
0081010350999992013011616004+69559+020094FM-12+071099999V02099999999999999999N9999999N1-00601+99999999999ADDAJ101219199999999REMSYN052AAXX  16161 01035 46/// ///// 11060 2//// 333 4/121;
0081010350999992013011617004+69559+020094FM-12+071099999V02099999999999999999N9999999N1-00561+99999999999ADDAJ101199199999999REMSYN052AAXX  16171 01035 46/// ///// 11056 2//// 333 4/119;
0100010350999992013011618004+69559+020094FM-12+071099999V02099999999999999999N9999999N1-00651+99999999999ADDAJ101219199999999KA1120M-00211REMSYN058AAXX  16181 01035 46/// ///// 11065 2//// 333 11021 4/121;
0081010350999992013011619004+69559+020094FM-12+071099999V02099999999999999999N9999999N1-00781+99999999999ADDAJ101219199999999REMSYN052AAXX  16191 01035 46/// ///// 11078 2//// 333 4/121;
0081010350999992013011620004+69559+020094FM-12+071099999V02099999999999999999N9999999N1-00581+99999999999ADDAJ101229199999999REMSYN052AAXX  16201 01035 46/// ///// 11058 2//// 333 4/122;
0081010350999992013011621004+69559+020094FM-12+071099999V02099999999999999999N9999999N1-00631+99999999999ADDAJ101219199999999REMSYN052AAXX  16211 01035 46/// ///// 11063 2//// 333 4/121;
0081010350999992013011622004+69559+020094FM-12+071099999V02099999999999999999N9999999N1-00721+99999999999ADDAJ101219199999999REMSYN052AAXX  16221 01035 46/// ///// 11072 2//// 333 4/121;
0081010350999992013011623004+69559+020094FM-12+071099999V02099999999999999999N9999999N1-00631+99999999999ADDAJ101219199999999REMSYN052AAXX  16231 01035 46/// ///// 11063 2//// 333 4/121;
0081010350999992013011700004+69559+020094FM-12+071099999V02099999999999999999N9999999N1-00611+99999999999ADDAJ101219199999999REMSYN052AAXX  17001 01035 46/// ///// 11061 2//// 333 4/121;
0081010350999992013011701004+69559+020094FM-12+071099999V02099999999999999999N9999999N1-00621+99999999999ADDAJ101209199999999REMSYN052AAXX  17011 01035 46/// ///// 11062 2//// 333 4/120;
0081010350999992013011702004+69559+020094FM-12+071099999V02099999999999999999N9999999N1-00631+99999999999ADDAJ101229199999999REMSYN052AAXX  17021 01035 46/// ///// 11063 2//// 333 4/122;
0081010350999992013011703004+69559+020094FM-12+071099999V02099999999999999999N9999999N1-00601+99999999999ADDAJ101229199999999REMSYN052AAXX  17031 01035 46/// ///// 11060 2//// 333 4/122;
0081010350999992013011704004+69559+020094FM-12+071099999V02099999999999999999N9999999N1-00231+99999999999ADDAJ101229199999999REMSYN052AAXX  17041 01035 46/// ///// 11023 2//// 333 4/122;
0081010350999992013011705004+69559+020094FM-12+071099999V02099999999999999999N9999999N1-00221+99999999999ADDAJ101219199999999REMSYN052AAXX  17051 01035 46/// ///// 11022 2//// 333 4/121;
0100010350999992013011706004+69559+020094FM-12+071099999V02099999999999999999N9999999N1-00241+99999999999ADDAJ101219199999999KA1999N-00821REMSYN058AAXX  17061 01035 46/// ///// 11024 2//// 333 21082 4/121;
0081010350999992013011707004+69559+020094FM-12+071099999V02099999999999999999N9999999N1-00351+99999999999ADDAJ101209199999999REMSYN052AAXX  17071 01035 46/// ///// 11035 2//// 333 4/120;
0081010350999992013011708004+69559+020094FM-12+071099999V02099999999999999999N9999999N1-00331+99999999999ADDAJ101209199999999REMSYN052AAXX  17081 01035 46/// ///// 11033 2//// 333 4/120;
0081010350999992013011709004+69559+020094FM-12+071099999V02099999999999999999N9999999N1-00411+99999999999ADDAJ101209199999999REMSYN052AAXX  17091 01035 46/// ///// 11041 2//// 333 4/120;
0081010350999992013011710004+69559+020094FM-12+071099999V02099999999999999999N9999999N1-00681+99999999999ADDAJ101199199999999REMSYN052AAXX  17101 01035 46/// ///// 11068 2//// 333 4/119;
0081010350999992013011711004+69559+020094FM-12+071099999V02099999999999999999N9999999N1-00721+99999999999ADDAJ101209199999999REMSYN052AAXX  17111 01035 46/// ///// 11072 2//// 333 4/120;
0081010350999992013011712004+69559+020094FM-12+071099999V02099999999999999999N9999999N1-00471+99999999999ADDAJ101219199999999REMSYN052AAXX  17121 01035 46/// ///// 11047 2//// 333 4/121;
0081010350999992013011713004+69559+020094FM-12+071099999V02099999999999999999N9999999N1-00531+99999999999ADDAJ101209199999999REMSYN052AAXX  17131 01035 46/// ///// 11053 2//// 333 4/120;
0081010350999992013011714004+69559+020094FM-12+071099999V02099999999999999999N9999999N1-00591+99999999999ADDAJ101219199999999REMSYN052AAXX  17141 01035 46/// ///// 11059 2//// 333 4/121;
0081010350999992013011715004+69559+020094FM-12+071099999V02099999999999999999N9999999N1-00381+99999999999ADDAJ101209199999999REMSYN052AAXX  17151 01035 46/// ///// 11038 2//// 333 4/120;
0081010350999992013011716004+69559+020094FM-12+071099999V02099999999999999999N9999999N1-00421+99999999999ADDAJ101209199999999REMSYN052AAXX  17161 01035 46/// ///// 11042 2//// 333 4/120;
0081010350999992013011717004+69559+020094FM-12+071099999V02099999999999999999N9999999N1-00361+99999999999ADDAJ101209199999999REMSYN052AAXX  17171 01035 46/// ///// 11036 2//// 333 4/120;
0100010350999992013011718004+69559+020094FM-12+071099999V02099999999999999999N9999999N1-00381+99999999999ADDAJ101209199999999KA1120M-00231REMSYN058AAXX  17181 01035 46/// ///// 11038 2//// 333 11023 4/120;
0081010350999992013011719004+69559+020094FM-12+071099999V02099999999999999999N9999999N1-00421+99999999999ADDAJ101209199999999REMSYN052AAXX  17191 01035 46/// ///// 11042 2//// 333 4/120;
0081010350999992013011720004+69559+020094FM-12+071099999V02099999999999999999N9999999N1-00401+99999999999ADDAJ101209199999999REMSYN052AAXX  17201 01035 46/// ///// 11040 2//// 333 4/120;
0081010350999992013011721004+69559+020094FM-12+071099999V02099999999999999999N9999999N1-00191+99999999999ADDAJ101209199999999REMSYN052AAXX  17211 01035 46/// ///// 11019 2//// 333 4/120;
0081010350999992013011722004+69559+020094FM-12+071099999V02099999999999999999N9999999N1-00301+99999999999ADDAJ101209199999999REMSYN052AAXX  17221 01035 46/// ///// 11030 2//// 333 4/120;
0081010350999992013011723004+69559+020094FM-12+071099999V02099999999999999999N9999999N1-00141+99999999999ADDAJ101189199999999REMSYN052AAXX  17231 01035 46/// ///// 11014 2//// 333 4/118;
0081010350999992013011800004+69559+020094FM-12+071099999V02099999999999999999N9999999N1+00061+99999999999ADDAJ101209199999999REMSYN052AAXX  18001 01035 46/// ///// 10006 2//// 333 4/120;
0081010350999992013011801004+69559+020094FM-12+071099999V02099999999999999999N9999999N1+00071+99999999999ADDAJ101209199999999REMSYN052AAXX  18011 01035 46/// ///// 10007 2//// 333 4/120;
0081010350999992013011802004+69559+020094FM-12+071099999V02099999999999999999N9999999N1+00141+99999999999ADDAJ101179199999999REMSYN052AAXX  18021 01035 46/// ///// 10014 2//// 333 4/117;
0081010350999992013011803004+69559+020094FM-12+071099999V02099999999999999999N9999999N1+00121+99999999999ADDAJ101169199999999REMSYN052AAXX  18031 01035 46/// ///// 10012 2//// 333 4/116;
0081010350999992013011804004+69559+020094FM-12+071099999V02099999999999999999N9999999N1+00041+99999999999ADDAJ101179199999999REMSYN052AAXX  18041 01035 46/// ///// 10004 2//// 333 4/117;
0081010350999992013011805004+69559+020094FM-12+071099999V02099999999999999999N9999999N1+00021+99999999999ADDAJ101179199999999REMSYN052AAXX  18051 01035 46/// ///// 10002 2//// 333 4/117;
0100010350999992013011806004+69559+020094FM-12+071099999V02099999999999999999N9999999N1-00031+99999999999ADDAJ101189199999999KA1999N-00461REMSYN058AAXX  18061 01035 46/// ///// 11003 2//// 333 21046 4/118;
0081010350999992013011807004+69559+020094FM-12+071099999V02099999999999999999N9999999N1+00001+99999999999ADDAJ101179199999999REMSYN052AAXX  18071 01035 46/// ///// 10000 2//// 333 4/117;
0081010350999992013011808004+69559+020094FM-12+071099999V02099999999999999999N9999999N1-00021+99999999999ADDAJ101189199999999REMSYN052AAXX  18081 01035 46/// ///// 11002 2//// 333 4/118;
0081010350999992013011810004+69559+020094FM-12+071099999V02099999999999999999N9999999N1+00011+99999999999ADDAJ101249199999999REMSYN052AAXX  18101 01035 46/// ///// 10001 2//// 333 4/124;
0081010350999992013011811004+69559+020094FM-12+071099999V02099999999999999999N9999999N1-00011+99999999999ADDAJ101229199999999REMSYN052AAXX  18111 01035 46/// ///// 11001 2//// 333 4/122;
0081010350999992013011812004+69559+020094FM-12+071099999V02099999999999999999N9999999N1+00061+99999999999ADDAJ101229199999999REMSYN052AAXX  18121 01035 46/// ///// 10006 2//// 333 4/122;
0081010350999992013011813004+69559+020094FM-12+071099999V02099999999999999999N9999999N1+00081+99999999999ADDAJ101249199999999REMSYN052AAXX  18131 01035 46/// ///// 10008 2//// 333 4/124;
0081010350999992013011814004+69559+020094FM-12+071099999V02099999999999999999N9999999N1+00071+99999999999ADDAJ101229199999999REMSYN052AAXX  18141 01035 46/// ///// 10007 2//// 333 4/122;
0081010350999992013011815004+69559+020094FM-12+071099999V02099999999999999999N9999999N1+00041+99999999999ADDAJ101229199999999REMSYN052AAXX  18151 01035 46/// ///// 10004 2//// 333 4/122;
0081010350999992013011816004+69559+020094FM-12+071099999V02099999999999999999N9999999N1+00011+99999999999ADDAJ101219199999999REMSYN052AAXX  18161 01035 46/// ///// 10001 2//// 333 4/121;
0081010350999992013011819004+69559+020094FM-12+071099999V02099999999999999999N9999999N1-00071+99999999999ADDAJ101219199999999REMSYN052AAXX  18191 01035 46/// ///// 11007 2//// 333 4/121;
0081010350999992013011821004+69559+020094FM-12+071099999V02099999999999999999N9999999N1-00101+99999999999ADDAJ101219199999999REMSYN052AAXX  18211 01035 46/// ///// 11010 2//// 333 4/121;
0081010350999992013011822004+69559+020094FM-12+071099999V02099999999999999999N9999999N1-00121+99999999999ADDAJ101199199999999REMSYN052AAXX  18221 01035 46/// ///// 11012 2//// 333 4/119;
0081010350999992013011823004+69559+020094FM-12+071099999V02099999999999999999N9999999N1-00201+99999999999ADDAJ101199199999999REMSYN052AAXX  18231 01035 46/// ///// 11020 2//// 333 4/119;
0081010350999992013011900004+69559+020094FM-12+071099999V02099999999999999999N9999999N1-00271+99999999999ADDAJ101209199999999REMSYN052AAXX  19001 01035 46/// ///// 11027 2//// 333 4/120;
0081010350999992013011901004+69559+020094FM-12+071099999V02099999999999999999N9999999N1-00311+99999999999ADDAJ101209199999999REMSYN052AAXX  19011 01035 46/// ///// 11031 2//// 333 4/120;
0081010350999992013011902004+69559+020094FM-12+071099999V02099999999999999999N9999999N1-00381+99999999999ADDAJ101229199999999REMSYN052AAXX  19021 01035 46/// ///// 11038 2//// 333 4/122;
0081010350999992013011903004+69559+020094FM-12+071099999V02099999999999999999N9999999N1-00441+99999999999ADDAJ101239199999999REMSYN052AAXX  19031 01035 46/// ///// 11044 2//// 333 4/123;
0081010350999992013011904004+69559+020094FM-12+071099999V02099999999999999999N9999999N1-00521+99999999999ADDAJ101239199999999REMSYN052AAXX  19041 01035 46/// ///// 11052 2//// 333 4/123;
0081010350999992013011905004+69559+020094FM-12+071099999V02099999999999999999N9999999N1-00571+99999999999ADDAJ101249199999999REMSYN052AAXX  19051 01035 46/// ///// 11057 2//// 333 4/124;
0081010350999992013011906004+69559+020094FM-12+071099999V02099999999999999999N9999999N1-00591+99999999999ADDAJ101249199999999REMSYN052AAXX  19061 01035 46/// ///// 11059 2//// 333 4/124;
0081010350999992013011907004+69559+020094FM-12+071099999V02099999999999999999N9999999N1-00601+99999999999ADDAJ101259199999999REMSYN052AAXX  19071 01035 46/// ///// 11060 2//// 333 4/125;
0081010350999992013011908004+69559+020094FM-12+071099999V02099999999999999999N9999999N1-00541+99999999999ADDAJ101269199999999REMSYN052AAXX  19081 01035 46/// ///// 11054 2//// 333 4/126;
0081010350999992013011909004+69559+020094FM-12+071099999V02099999999999999999N9999999N1-00471+99999999999ADDAJ101299199999999REMSYN052AAXX  19091 01035 46/// ///// 11047 2//// 333 4/129;
0081010350999992013011910004+69559+020094FM-12+071099999V02099999999999999999N9999999N1-00451+99999999999ADDAJ101299199999999REMSYN052AAXX  19101 01035 46/// ///// 11045 2//// 333 4/129;
0081010350999992013011911004+69559+020094FM-12+071099999V02099999999999999999N9999999N1-00521+99999999999ADDAJ101279199999999REMSYN052AAXX  19111 01035 46/// ///// 11052 2//// 333 4/127;
0081010350999992013011912004+69559+020094FM-12+071099999V02099999999999999999N9999999N1-00471+99999999999ADDAJ101339199999999REMSYN052AAXX  19121 01035 46/// ///// 11047 2//// 333 4/133;
0081010350999992013011913004+69559+020094FM-12+071099999V02099999999999999999N9999999N1-00541+99999999999ADDAJ101329199999999REMSYN052AAXX  19131 01035 46/// ///// 11054 2//// 333 4/132;
0081010350999992013011914004+69559+020094FM-12+071099999V02099999999999999999N9999999N1-00491+99999999999ADDAJ101349199999999REMSYN052AAXX  19141 01035 46/// ///// 11049 2//// 333 4/134;
0081010350999992013011915004+69559+020094FM-12+071099999V02099999999999999999N9999999N1-00501+99999999999ADDAJ101359199999999REMSYN052AAXX  19151 01035 46/// ///// 11050 2//// 333 4/135;
0081010350999992013011916004+69559+020094FM-12+071099999V02099999999999999999N9999999N1-00551+99999999999ADDAJ101349199999999REMSYN052AAXX  19161 01035 46/// ///// 11055 2//// 333 4/134;
0081010350999992013011917004+69559+020094FM-12+071099999V02099999999999999999N9999999N1-00601+99999999999ADDAJ101359199999999REMSYN052AAXX  19171 01035 46/// ///// 11060 2//// 333 4/135;
0100010350999992013011918004+69559+020094FM-12+071099999V02099999999999999999N9999999N1-00631+99999999999ADDAJ101349199999999KA1120M-00431REMSYN058AAXX  19181 01035 46/// ///// 11063 2//// 333 11043 4/134;
0081010350999992013011919004+69559+020094FM-12+071099999V02099999999999999999N9999999N1-00661+99999999999ADDAJ101349199999999REMSYN052AAXX  19191 01035 46/// ///// 11066 2//// 333 4/134;
0081010350999992013011920004+69559+020094FM-12+071099999V02099999999999999999N9999999N1-00661+99999999999ADDAJ101349199999999REMSYN052AAXX  19201 01035 46/// ///// 11066 2//// 333 4/134;
0081010350999992013011921004+69559+020094FM-12+071099999V02099999999999999999N9999999N1-00711+99999999999ADDAJ101359199999999REMSYN052AAXX  19211 01035 46/// ///// 11071 2//// 333 4/135;
0081010350999992013011922004+69559+020094FM-12+071099999V02099999999999999999N9999999N1-00691+99999999999ADDAJ101369199999999REMSYN052AAXX  19221 01035 46/// ///// 11069 2//// 333 4/136;
0081010350999992013011923004+69559+020094FM-12+071099999V02099999999999999999N9999999N1-00681+99999999999ADDAJ101379199999999REMSYN052AAXX  19231 01035 46/// ///// 11068 2//// 333 4/137;
0081010350999992013012000004+69559+020094FM-12+071099999V02099999999999999999N9999999N1-00701+99999999999ADDAJ101389199999999REMSYN052AAXX  20001 01035 46/// ///// 11070 2//// 333 4/138;
0081010350999992013012001004+69559+020094FM-12+071099999V02099999999999999999N9999999N1-00731+99999999999ADDAJ101419199999999REMSYN052AAXX  20011 01035 46/// ///// 11073 2//// 333 4/141;
0081010350999992013012002004+69559+020094FM-12+071099999V02099999999999999999N9999999N1-00751+99999999999ADDAJ101419199999999REMSYN052AAXX  20021 01035 46/// ///// 11075 2//// 333 4/141;
0081010350999992013012003004+69559+020094FM-12+071099999V02099999999999999999N9999999N1-00741+99999999999ADDAJ101409199999999REMSYN052AAXX  20031 01035 46/// ///// 11074 2//// 333 4/140;
0081010350999992013012004004+69559+020094FM-12+071099999V02099999999999999999N9999999N1-00731+99999999999ADDAJ101399199999999REMSYN052AAXX  20041 01035 46/// ///// 11073 2//// 333 4/139;
0081010350999992013012005004+69559+020094FM-12+071099999V02099999999999999999N9999999N1-00771+99999999999ADDAJ101389199999999REMSYN052AAXX  20051 01035 46/// ///// 11077 2//// 333 4/138;
0100010350999992013012006004+69559+020094FM-12+071099999V02099999999999999999N9999999N1-00901+99999999999ADDAJ101379199999999KA1999N-00951REMSYN058AAXX  20061 01035 46/// ///// 11090 2//// 333 21095 4/137;
0081010350999992013012007004+69559+020094FM-12+071099999V02099999999999999999N9999999N1-00921+99999999999ADDAJ101399199999999REMSYN052AAXX  20071 01035 46/// ///// 11092 2//// 333 4/139;
0081010350999992013012008004+69559+020094FM-12+071099999V02099999999999999999N9999999N1-00851+99999999999ADDAJ101389199999999REMSYN052AAXX  20081 01035 46/// ///// 11085 2//// 333 4/138;
0081010350999992013012009004+69559+020094FM-12+071099999V02099999999999999999N9999999N1-01081+99999999999ADDAJ101389199999999REMSYN052AAXX  20091 01035 46/// ///// 11108 2//// 333 4/138;
0081010350999992013012011004+69559+020094FM-12+071099999V02099999999999999999N9999999N1-00901+99999999999ADDAJ101379199999999REMSYN052AAXX  20111 01035 46/// ///// 11090 2//// 333 4/137;
0081010350999992013012012004+69559+020094FM-12+071099999V02099999999999999999N9999999N1-00701+99999999999ADDAJ101379199999999REMSYN052AAXX  20121 01035 46/// ///// 11070 2//// 333 4/137;
0081010350999992013012013004+69559+020094FM-12+071099999V02099999999999999999N9999999N1-00701+99999999999ADDAJ101379199999999REMSYN052AAXX  20131 01035 46/// ///// 11070 2//// 333 4/137;
0081010350999992013012014004+69559+020094FM-12+071099999V02099999999999999999N9999999N1-00641+99999999999ADDAJ101369199999999REMSYN052AAXX  20141 01035 46/// ///// 11064 2//// 333 4/136;
0081010350999992013012015004+69559+020094FM-12+071099999V02099999999999999999N9999999N1-00511+99999999999ADDAJ101359199999999REMSYN052AAXX  20151 01035 46/// ///// 11051 2//// 333 4/135;
0081010350999992013012016004+69559+020094FM-12+071099999V02099999999999999999N9999999N1-00491+99999999999ADDAJ101359199999999REMSYN052AAXX  20161 01035 46/// ///// 11049 2//// 333 4/135;
0081010350999992013012017004+69559+020094FM-12+071099999V02099999999999999999N9999999N1-00411+99999999999ADDAJ101359199999999REMSYN052AAXX  20171 01035 46/// ///// 11041 2//// 333 4/135;
0081010350999992013012018004+69559+020094FM-12+071099999V02099999999999999999N9999999N1-00421+99999999999ADDAJ101349199999999REMSYN052AAXX  20181 01035 46/// ///// 11042 2//// 333 4/134;
0081010350999992013012020004+69559+020094FM-12+071099999V02099999999999999999N9999999N1-00381+99999999999ADDAJ101349199999999REMSYN052AAXX  20201 01035 46/// ///// 11038 2//// 333 4/134;
0081010350999992013012021004+69559+020094FM-12+071099999V02099999999999999999N9999999N1-00371+99999999999ADDAJ101349199999999REMSYN052AAXX  20211 01035 46/// ///// 11037 2//// 333 4/134;
0081010350999992013012023004+69559+020094FM-12+071099999V02099999999999999999N9999999N1-00291+99999999999ADDAJ101329199999999REMSYN052AAXX  20231 01035 46/// ///// 11029 2//// 333 4/132;
0081010350999992013012100004+69559+020094FM-12+071099999V02099999999999999999N9999999N1-00251+99999999999ADDAJ101289199999999REMSYN052AAXX  21001 01035 46/// ///// 11025 2//// 333 4/128;
0081010350999992013012101004+69559+020094FM-12+071099999V02099999999999999999N9999999N1-00321+99999999999ADDAJ101269199999999REMSYN052AAXX  21011 01035 46/// ///// 11032 2//// 333 4/126;
0081010350999992013012102004+69559+020094FM-12+071099999V02099999999999999999N9999999N1-00221+99999999999ADDAJ101299199999999REMSYN052AAXX  21021 01035 46/// ///// 11022 2//// 333 4/129;
0081010350999992013012103004+69559+020094FM-12+071099999V02099999999999999999N9999999N1-00181+99999999999ADDAJ101279199999999REMSYN052AAXX  21031 01035 46/// ///// 11018 2//// 333 4/127;
0081010350999992013012104004+69559+020094FM-12+071099999V02099999999999999999N9999999N1-00161+99999999999ADDAJ101239199999999REMSYN052AAXX  21041 01035 46/// ///// 11016 2//// 333 4/123;
0081010350999992013012105004+69559+020094FM-12+071099999V02099999999999999999N9999999N1-00191+99999999999ADDAJ101229199999999REMSYN052AAXX  21051 01035 46/// ///// 11019 2//// 333 4/122;
0081010350999992013012106004+69559+020094FM-12+071099999V02099999999999999999N9999999N1-00181+99999999999ADDAJ101239199999999REMSYN052AAXX  21061 01035 46/// ///// 11018 2//// 333 4/123;
0081010350999992013012107004+69559+020094FM-12+071099999V02099999999999999999N9999999N1-00251+99999999999ADDAJ101249199999999REMSYN052AAXX  21071 01035 46/// ///// 11025 2//// 333 4/124;
0081010350999992013012108004+69559+020094FM-12+071099999V02099999999999999999N9999999N1-00201+99999999999ADDAJ101289199999999REMSYN052AAXX  21081 01035 46/// ///// 11020 2//// 333 4/128;
0081010350999992013012109004+69559+020094FM-12+071099999V02099999999999999999N9999999N1-00221+99999999999ADDAJ101259199999999REMSYN052AAXX  21091 01035 46/// ///// 11022 2//// 333 4/125;
0081010350999992013012110004+69559+020094FM-12+071099999V02099999999999999999N9999999N1-00291+99999999999ADDAJ101279199999999REMSYN052AAXX  21101 01035 46/// ///// 11029 2//// 333 4/127;
0081010350999992013012111004+69559+020094FM-12+071099999V02099999999999999999N9999999N1-00261+99999999999ADDAJ101259199999999REMSYN052AAXX  21111 01035 46/// ///// 11026 2//// 333 4/125;
0081010350999992013012113004+69559+020094FM-12+071099999V02099999999999999999N9999999N1-00241+99999999999ADDAJ101309199999999REMSYN052AAXX  21131 01035 46/// ///// 11024 2//// 333 4/130;
0081010350999992013012114004+69559+020094FM-12+071099999V02099999999999999999N9999999N1-00251+99999999999ADDAJ101359199999999REMSYN052AAXX  21141 01035 46/// ///// 11025 2//// 333 4/135;
0081010350999992013012116004+69559+020094FM-12+071099999V02099999999999999999N9999999N1-00361+99999999999ADDAJ101379199999999REMSYN052AAXX  21161 01035 46/// ///// 11036 2//// 333 4/137;
0081010350999992013012117004+69559+020094FM-12+071099999V02099999999999999999N9999999N1-00381+99999999999ADDAJ101419199999999REMSYN052AAXX  21171 01035 46/// ///// 11038 2//// 333 4/141;
0081010350999992013012118004+69559+020094FM-12+071099999V02099999999999999999N9999999N1-00411+99999999999ADDAJ101339199999999REMSYN052AAXX  21181 01035 46/// ///// 11041 2//// 333 4/133;
0081010350999992013012119004+69559+020094FM-12+071099999V02099999999999999999N9999999N1-00461+99999999999ADDAJ101399199999999REMSYN052AAXX  21191 01035 46/// ///// 11046 2//// 333 4/139;
0081010350999992013012120004+69559+020094FM-12+071099999V02099999999999999999N9999999N1-00481+99999999999ADDAJ101369199999999REMSYN052AAXX  21201 01035 46/// ///// 11048 2//// 333 4/136;
0081010350999992013012121004+69559+020094FM-12+071099999V02099999999999999999N9999999N1-00491+99999999999ADDAJ101339199999999REMSYN052AAXX  21211 01035 46/// ///// 11049 2//// 333 4/133;
0081010350999992013012122004+69559+020094FM-12+071099999V02099999999999999999N9999999N1-00531+99999999999ADDAJ101439199999999REMSYN052AAXX  21221 01035 46/// ///// 11053 2//// 333 4/143;
0081010350999992013012123004+69559+020094FM-12+071099999V02099999999999999999N9999999N1-00591+99999999999ADDAJ101459199999999REMSYN052AAXX  21231 01035 46/// ///// 11059 2//// 333 4/145;
0081010350999992013012200004+69559+020094FM-12+071099999V02099999999999999999N9999999N1-00621+99999999999ADDAJ101459199999999REMSYN052AAXX  22001 01035 46/// ///// 11062 2//// 333 4/145;
0081010350999992013012203004+69559+020094FM-12+071099999V02099999999999999999N9999999N1-00611+99999999999ADDAJ101459199999999REMSYN052AAXX  22031 01035 46/// ///// 11061 2//// 333 4/145;
0081010350999992013012204004+69559+020094FM-12+071099999V02099999999999999999N9999999N1-00611+99999999999ADDAJ101479199999999REMSYN052AAXX  22041 01035 46/// ///// 11061 2//// 333 4/147;
0081010350999992013012206004+69559+020094FM-12+071099999V02099999999999999999N9999999N1-00681+99999999999ADDAJ101499199999999REMSYN052AAXX  22061 01035 46/// ///// 11068 2//// 333 4/149;
0081010350999992013012207004+69559+020094FM-12+071099999V02099999999999999999N9999999N1-00711+99999999999ADDAJ101549199999999REMSYN052AAXX  22071 01035 46/// ///// 11071 2//// 333 4/154;
0081010350999992013012208004+69559+020094FM-12+071099999V02099999999999999999N9999999N1-00751+99999999999ADDAJ101529199999999REMSYN052AAXX  22081 01035 46/// ///// 11075 2//// 333 4/152;
0081010350999992013012209004+69559+020094FM-12+071099999V02099999999999999999N9999999N1-00781+99999999999ADDAJ101459199999999REMSYN052AAXX  22091 01035 46/// ///// 11078 2//// 333 4/145;
0081010350999992013012210004+69559+020094FM-12+071099999V02099999999999999999N9999999N1-00861+99999999999ADDAJ101509199999999REMSYN052AAXX  22101 01035 46/// ///// 11086 2//// 333 4/150;
0081010350999992013012212004+69559+020094FM-12+071099999V02099999999999999999N9999999N1-00941+99999999999ADDAJ101519199999999REMSYN052AAXX  22121 01035 46/// ///// 11094 2//// 333 4/151;
0081010350999992013012213004+69559+020094FM-12+071099999V02099999999999999999N9999999N1-01021+99999999999ADDAJ101559199999999REMSYN052AAXX  22131 01035 46/// ///// 11102 2//// 333 4/155;
0081010350999992013012214004+69559+020094FM-12+071099999V02099999999999999999N9999999N1-01061+99999999999ADDAJ101589199999999REMSYN052AAXX  22141 01035 46/// ///// 11106 2//// 333 4/158;
0081010350999992013012215004+69559+020094FM-12+071099999V02099999999999999999N9999999N1-01101+99999999999ADDAJ101589199999999REMSYN052AAXX  22151 01035 46/// ///// 11110 2//// 333 4/158;
0081010350999992013012216004+69559+020094FM-12+071099999V02099999999999999999N9999999N1-01101+99999999999ADDAJ101609199999999REMSYN052AAXX  22161 01035 46/// ///// 11110 2//// 333 4/160;
0081010350999992013012217004+69559+020094FM-12+071099999V02099999999999999999N9999999N1-01111+99999999999ADDAJ101609199999999REMSYN052AAXX  22171 01035 46/// ///// 11111 2//// 333 4/160;
0081010350999992013012218004+69559+020094FM-12+071099999V02099999999999999999N9999999N1-01111+99999999999ADDAJ101649199999999REMSYN052AAXX  22181 01035 46/// ///// 11111 2//// 333 4/164;
0081010350999992013012219004+69559+020094FM-12+071099999V02099999999999999999N9999999N1-01101+99999999999ADDAJ101659199999999REMSYN052AAXX  22191 01035 46/// ///// 11110 2//// 333 4/165;
0081010350999992013012220004+69559+020094FM-12+071099999V02099999999999999999N9999999N1-01101+99999999999ADDAJ101659199999999REMSYN052AAXX  22201 01035 46/// ///// 11110 2//// 333 4/165;
0081010350999992013012221004+69559+020094FM-12+071099999V02099999999999999999N9999999N1-01121+99999999999ADDAJ101629199999999REMSYN052AAXX  22211 01035 46/// ///// 11112 2//// 333 4/162;
0081010350999992013012222004+69559+020094FM-12+071099999V02099999999999999999N9999999N1-01121+99999999999ADDAJ101709199999999REMSYN052AAXX  22221 01035 46/// ///// 11112 2//// 333 4/170;
0081010350999992013012223004+69559+020094FM-12+071099999V02099999999999999999N9999999N1-01101+99999999999ADDAJ101739199999999REMSYN052AAXX  22231 01035 46/// ///// 11110 2//// 333 4/173;
0081010350999992013012300004+69559+020094FM-12+071099999V02099999999999999999N9999999N1-01111+99999999999ADDAJ101729199999999REMSYN052AAXX  23001 01035 46/// ///// 11111 2//// 333 4/172;
0081010350999992013012301004+69559+020094FM-12+071099999V02099999999999999999N9999999N1-01111+99999999999ADDAJ101759199999999REMSYN052AAXX  23011 01035 46/// ///// 11111 2//// 333 4/175;
0081010350999992013012302004+69559+020094FM-12+071099999V02099999999999999999N9999999N1-01101+99999999999ADDAJ101739199999999REMSYN052AAXX  23021 01035 46/// ///// 11110 2//// 333 4/173;
0081010350999992013012303004+69559+020094FM-12+071099999V02099999999999999999N9999999N1-01091+99999999999ADDAJ101799199999999REMSYN052AAXX  23031 01035 46/// ///// 11109 2//// 333 4/179;
0081010350999992013012304004+69559+020094FM-12+071099999V02099999999999999999N9999999N1-01071+99999999999ADDAJ101809199999999REMSYN052AAXX  23041 01035 46/// ///// 11107 2//// 333 4/180;
0081010350999992013012305004+69559+020094FM-12+071099999V02099999999999999999N9999999N1-01091+99999999999ADDAJ101829199999999REMSYN052AAXX  23051 01035 46/// ///// 11109 2//// 333 4/182;
0100010350999992013012306004+69559+020094FM-12+071099999V02099999999999999999N9999999N1-01071+99999999999ADDAJ101879199999999KA1999N-01141REMSYN058AAXX  23061 01035 46/// ///// 11107 2//// 333 21114 4/187;
0081010350999992013012307004+69559+020094FM-12+071099999V02099999999999999999N9999999N1-01071+99999999999ADDAJ101859199999999REMSYN052AAXX  23071 01035 46/// ///// 11107 2//// 333 4/185;
0081010350999992013012308004+69559+020094FM-12+071099999V02099999999999999999N9999999N1-01061+99999999999ADDAJ101849199999999REMSYN052AAXX  23081 01035 46/// ///// 11106 2//// 333 4/184;
0081010350999992013012309004+69559+020094FM-12+071099999V02099999999999999999N9999999N1-01051+99999999999ADDAJ101829199999999REMSYN052AAXX  23091 01035 46/// ///// 11105 2//// 333 4/182;
0081010350999992013012310004+69559+020094FM-12+071099999V02099999999999999999N9999999N1-01051+99999999999ADDAJ101839199999999REMSYN052AAXX  23101 01035 46/// ///// 11105 2//// 333 4/183;
0081010350999992013012311004+69559+020094FM-12+071099999V02099999999999999999N9999999N1-01011+99999999999ADDAJ101819199999999REMSYN052AAXX  23111 01035 46/// ///// 11101 2//// 333 4/181;
0081010350999992013012312004+69559+020094FM-12+071099999V02099999999999999999N9999999N1-00961+99999999999ADDAJ101809199999999REMSYN052AAXX  23121 01035 46/// ///// 11096 2//// 333 4/180;
0081010350999992013012313004+69559+020094FM-12+071099999V02099999999999999999N9999999N1-00901+99999999999ADDAJ101809199999999REMSYN052AAXX  23131 01035 46/// ///// 11090 2//// 333 4/180;
0081010350999992013012314004+69559+020094FM-12+071099999V02099999999999999999N9999999N1-00811+99999999999ADDAJ101839199999999REMSYN052AAXX  23141 01035 46/// ///// 11081 2//// 333 4/183;
0081010350999992013012315004+69559+020094FM-12+071099999V02099999999999999999N9999999N1-00721+99999999999ADDAJ101929199999999REMSYN052AAXX  23151 01035 46/// ///// 11072 2//// 333 4/192;
0081010350999992013012316004+69559+020094FM-12+071099999V02099999999999999999N9999999N1-00721+99999999999ADDAJ101889199999999REMSYN052AAXX  23161 01035 46/// ///// 11072 2//// 333 4/188;
0081010350999992013012317004+69559+020094FM-12+071099999V02099999999999999999N9999999N1-00721+99999999999ADDAJ101879199999999REMSYN052AAXX  23171 01035 46/// ///// 11072 2//// 333 4/187;
0100010350999992013012318004+69559+020094FM-12+071099999V02099999999999999999N9999999N1-00721+99999999999ADDAJ101859199999999KA1120M-00671REMSYN058AAXX  23181 01035 46/// ///// 11072 2//// 333 11067 4/185;
0081010350999992013012319004+69559+020094FM-12+071099999V02099999999999999999N9999999N1-00681+99999999999ADDAJ101879199999999REMSYN052AAXX  23191 01035 46/// ///// 11068 2//// 333 4/187;
0081010350999992013012320004+69559+020094FM-12+071099999V02099999999999999999N9999999N1-00691+99999999999ADDAJ101889199999999REMSYN052AAXX  23201 01035 46/// ///// 11069 2//// 333 4/188;
0081010350999992013012321004+69559+020094FM-12+071099999V02099999999999999999N9999999N1-00691+99999999999ADDAJ101889199999999REMSYN052AAXX  23211 01035 46/// ///// 11069 2//// 333 4/188;
0081010350999992013012323004+69559+020094FM-12+071099999V02099999999999999999N9999999N1-00681+99999999999ADDAJ101929199999999REMSYN052AAXX  23231 01035 46/// ///// 11068 2//// 333 4/192;
0081010350999992013012400004+69559+020094FM-12+071099999V02099999999999999999N9999999N1-00651+99999999999ADDAJ101939199999999REMSYN052AAXX  24001 01035 46/// ///// 11065 2//// 333 4/193;
0081010350999992013012401004+69559+020094FM-12+071099999V02099999999999999999N9999999N1-00681+99999999999ADDAJ101939199999999REMSYN052AAXX  24011 01035 46/// ///// 11068 2//// 333 4/193;
0081010350999992013012402004+69559+020094FM-12+071099999V02099999999999999999N9999999N1-00711+99999999999ADDAJ101949199999999REMSYN052AAXX  24021 01035 46/// ///// 11071 2//// 333 4/194;
0081010350999992013012403004+69559+020094FM-12+071099999V02099999999999999999N9999999N1-00681+99999999999ADDAJ101959199999999REMSYN052AAXX  24031 01035 46/// ///// 11068 2//// 333 4/195;
0081010350999992013012404004+69559+020094FM-12+071099999V02099999999999999999N9999999N1-00671+99999999999ADDAJ101939199999999REMSYN052AAXX  24041 01035 46/// ///// 11067 2//// 333 4/193;
0081010350999992013012405004+69559+020094FM-12+071099999V02099999999999999999N9999999N1-00701+99999999999ADDAJ101949199999999REMSYN052AAXX  24051 01035 46/// ///// 11070 2//// 333 4/194;
0081010350999992013012406004+69559+020094FM-12+071099999V02099999999999999999N9999999N1-00721+99999999999ADDAJ101949199999999REMSYN052AAXX  24061 01035 46/// ///// 11072 2//// 333 4/194;
0081010350999992013012407004+69559+020094FM-12+071099999V02099999999999999999N9999999N1-00721+99999999999ADDAJ101929199999999REMSYN052AAXX  24071 01035 46/// ///// 11072 2//// 333 4/192;
0081010350999992013012408004+69559+020094FM-12+071099999V02099999999999999999N9999999N1-00761+99999999999ADDAJ101939199999999REMSYN052AAXX  24081 01035 46/// ///// 11076 2//// 333 4/193;
0081010350999992013012409004+69559+020094FM-12+071099999V02099999999999999999N9999999N1-00741+99999999999ADDAJ101969199999999REMSYN052AAXX  24091 01035 46/// ///// 11074 2//// 333 4/196;
