0111010330999992013010100004+70250+019500FM-12+002499999V0202201N003019999999N9999999N1+00251-00231098641ADDMA1999999098331MD1710031+9999REMSYN070AAXX  01001 01033 46/// /2203 10025 21023 39833 49864 57003 333 91105;
0101010330999992013010101004+70250+019500FM-12+002499999V0202101N003019999999N9999999N1+00271-00231098641ADDMA1999999098331MD1710021+9999REMSYN060AAXX  01011 01033 46/// /2103 10027 21023 39833 49864 57002;
0101010330999992013010102004+70250+019500FM-12+002499999V0200401N001019999999N9999999N1+00241-00281098621ADDMA1999999098311MD1710041+9999REMSYN060AAXX  01021 01033 46/// /0401 10024 21028 39831 49862 57004;
0101010330999992013010103004+70250+019500FM-12+002499999V0201501N007019999999N9999999N1+00221-00331098611ADDMA1999999098301MD1710031+9999REMSYN060AAXX  01031 01033 46/// /1507 10022 21033 39830 49861 57003;
0101010330999992013010104004+70250+019500FM-12+002499999V0201601N006019999999N9999999N1+00191-00241098641ADDMA1999999098331MD1510001+9999REMSYN060AAXX  01041 01033 46/// /1606 10019 21024 39833 49864 55000;
0101010330999992013010105004+70250+019500FM-12+002499999V0201601N005019999999N9999999N1+00171-00281098641ADDMA1999999098331MD1210031+9999REMSYN060AAXX  01051 01033 46/// /1605 10017 21028 39833 49864 52003;
0130010330999992013010106004+70250+019500FM-12+002499999V0201601N003019999999N9999999N1+00161-00301098661ADDKA1999N+00141MA1999999098351MD1210041+9999REMSYN076AAXX  01061 01033 46/// /1603 10016 21030 39835 49866 52004 333 20014 91109;
0101010330999992013010107004+70250+019500FM-12+002499999V0201701N003019999999N9999999N1+00151-00401098661ADDMA1999999098351MD1210021+9999REMSYN060AAXX  01071 01033 46/// /1703 10015 21040 39835 49866 52002;
0101010330999992013010108004+70250+019500FM-12+002499999V0201501N007019999999N9999999N1+00191-00251098681ADDMA1999999098371MD1210041+9999REMSYN060AAXX  01081 01033 46/// /1507 10019 21025 39837 49868 52004;
0101010330999992013010109004+70250+019500FM-12+002499999V0201501N007019999999N9999999N1+00191-00331098731ADDMA1999999098421MD1310071+9999REMSYN060AAXX  01091 01033 46/// /1507 10019 21033 39842 49873 53007;
0101010330999992013010110004+70250+019500FM-12+002499999V0201601N004019999999N9999999N1+00171-00411098791ADDMA1999999098481MD1310121+9999REMSYN060AAXX  01101 01033 46/// /1604 10017 21041 39848 49879 53012;
0101010330999992013010111004+70250+019500FM-12+002499999V0201501N005019999999N9999999N1+00171-00511098821ADDMA1999999098511MD1210141+9999REMSYN060AAXX  01111 01033 46/// /1505 10017 21051 39851 49882 52014;
0111010330999992013010112004+70250+019500FM-12+002499999V0201701N003019999999N9999999N1+00171-00511098861ADDMA1999999098551MD1210141+9999REMSYN070AAXX  01121 01033 46/// /1703 10017 21051 39855 49886 52014 333 91109;
0101010330999992013010113004+70250+019500FM-12+002499999V0201501N003019999999N9999999N1+00151-00541098891ADDMA1999999098581MD1210111+9999REMSYN060AAXX  01131 01033 46/// /1503 10015 21054 39858 49889 52011;
0101010330999992013010114004+70250+019500FM-12+002499999V0201601N003019999999N9999999N1+00121-00571098951ADDMA1999999098641MD1210131+9999REMSYN060AAXX  01141 01033 46/// /1603 10012 21057 39864 49895 52013;
0101010330999992013010115004+70250+019500FM-12+002499999V0201501N003019999999N9999999N1+00131-00601098991ADDMA1999999098681MD1210121+9999REMSYN060AAXX  01151 01033 46/// /1503 10013 21060 39868 49899 52012;
0101010330999992013010116004+70250+019500FM-12+002499999V0201601N004019999999N9999999N1+00141-00541099031ADDMA1999999098721MD1210141+9999REMSYN060AAXX  01161 01033 46/// /1604 10014 21054 39872 49903 52014;
0101010330999992013010117004+70250+019500FM-12+002499999V0201701N003019999999N9999999N1+00111-00481099051ADDMA1999999098741MD1210101+9999REMSYN060AAXX  01171 01033 46/// /1703 10011 21048 39874 49905 52010;
0130010330999992013010118004+70250+019500FM-12+002499999V0201301N002019999999N9999999N1+00071-00521099101ADDKA1120M+00211MA1999999098791MD1210111+9999REMSYN076AAXX  01181 01033 46/// /1302 10007 21052 39879 49910 52011 333 10021 91107;
0101010330999992013010119004+70250+019500FM-12+002499999V0200901N001019999999N9999999N1+00011-00541099131ADDMA1999999098821MD1210101+9999REMSYN060AAXX  01191 01033 46/// /0901 10001 21054 39882 49913 52010;
0101010330999992013010120004+70250+019500FM-12+002499999V0201401N001019999999N9999999N1-00011-00441099181ADDMA1999999098871MD1210131+9999REMSYN060AAXX  01201 01033 46/// /1401 11001 21044 39887 49918 52013;
0101010330999992013010121004+70250+019500FM-12+002499999V0201401N002019999999N9999999N1+00041-00471099231ADDMA1999999098921MD1210131+9999REMSYN060AAXX  01211 01033 46/// /1402 10004 21047 39892 49923 52013;
0101010330999992013010122004+70250+019500FM-12+002499999V0201501N002019999999N9999999N1+00041-00431099251ADDMA1999999098941MD1210121+9999REMSYN060AAXX  01221 01033 46/// /1502 10004 21043 39894 49925 52012;
0101010330999992013010123004+70250+019500FM-12+002499999V0201501N002019999999N9999999N1+00011-00431099291ADDMA1999999098981MD1210111+9999REMSYN060AAXX  01231 01033 46/// /1502 10001 21043 39898 49929 52011;
0111010330999992013010200004+70250+019500FM-12+002499999V0201601N002019999999N9999999N1+00001-00391099331ADDMA1999999099021MD1210101+9999REMSYN070AAXX  02001 01033 46/// /1602 10000 21039 39902 49933 52010 333 91104;
0101010330999992013010201004+70250+019500FM-12+002499999V0201501N002019999999N9999999N1+00011-00451099371ADDMA1999999099061MD1210121+9999REMSYN060AAXX  02011 01033 46/// /1502 10001 21045 39906 49937 52012;
0101010330999992013010202004+70250+019500FM-12+002499999V0201501N002019999999N9999999N1+00011-00421099391ADDMA1999999099081MD1210101+9999REMSYN060AAXX  02021 01033 46/// /1502 10001 21042 39908 49939 52010;
0101010330999992013010203004+70250+019500FM-12+002499999V0201501N002019999999N9999999N1-00021-00391099431ADDMA1999999099121MD1310101+9999REMSYN060AAXX  02031 01033 46/// /1502 11002 21039 39912 49943 53010;
0101010330999992013010204004+70250+019500FM-12+002499999V0201401N002019999999N9999999N1+00011-00371099461ADDMA1999999099151MD1210091+9999REMSYN060AAXX  02041 01033 46/// /1402 10001 21037 39915 49946 52009;
0101010330999992013010205004+70250+019500FM-12+002499999V0201301N001019999999N9999999N1+00011-00371099471ADDMA1999999099161MD1110081+9999REMSYN060AAXX  02051 01033 46/// /1301 10001 21037 39916 49947 51008;
0130010330999992013010206004+70250+019500FM-12+002499999V0201501N003019999999N9999999N1+00001-00341099511ADDKA1999N-00031MA1999999099201MD1310081+9999REMSYN076AAXX  02061 01033 46/// /1503 10000 21034 39920 49951 53008 333 21003 91104;
0101010330999992013010207004+70250+019500FM-12+002499999V0201701N003019999999N9999999N1+00011-00381099571ADDMA1999999099261MD1310111+9999REMSYN060AAXX  02071 01033 46/// /1703 10001 21038 39926 49957 53011;
0101010330999992013010208004+70250+019500FM-12+002499999V0201701N003019999999N9999999N1+00031-00341099591ADDMA1999999099281MD1210121+9999REMSYN060AAXX  02081 01033 46/// /1703 10003 21034 39928 49959 52012;
0101010330999992013010209004+70250+019500FM-12+002499999V0201801N003019999999N9999999N1+00041-00331099611ADDMA1999999099301MD1110091+9999REMSYN060AAXX  02091 01033 46/// /1803 10004 21033 39930 49961 51009;
0101010330999992013010210004+70250+019500FM-12+002499999V0201701N004019999999N9999999N1+00061-00321099641ADDMA1999999099331MD1210081+9999REMSYN060AAXX  02101 01033 46/// /1704 10006 21032 39933 49964 52008;
0101010330999992013010211004+70250+019500FM-12+002499999V0201701N004019999999N9999999N1+00111-00281099671ADDMA1999999099361MD1210081+9999REMSYN060AAXX  02111 01033 46/// /1704 10011 21028 39936 49967 52008;
0111010330999992013010212004+70250+019500FM-12+002499999V0201801N004019999999N9999999N1+00121-00271099671ADDMA1999999099361MD1010061+9999REMSYN070AAXX  02121 01033 46/// /1804 10012 21027 39936 49967 50006 333 91107;
0101010330999992013010213004+70250+019500FM-12+002499999V0201601N006019999999N9999999N1+00141-00241099691ADDMA1999999099381MD1210041+9999REMSYN060AAXX  02131 01033 46/// /1606 10014 21024 39938 49969 52004;
0101010330999992013010214004+70250+019500FM-12+002499999V0201601N004019999999N9999999N1+00171-00241099731ADDMA1999999099421MD1310061+9999REMSYN060AAXX  02141 01033 46/// /1604 10017 21024 39942 49973 53006;
0101010330999992013010215004+70250+019500FM-12+002499999V0202001N005019999999N9999999N1+00161-00201099761ADDMA1999999099451MD1210091+9999REMSYN060AAXX  02151 01033 46/// /2005 10016 21020 39945 49976 52009;
0101010330999992013010216004+70250+019500FM-12+002499999V0202001N006019999999N9999999N1+00171-00201099771ADDMA1999999099461MD1110081+9999REMSYN060AAXX  02161 01033 46/// /2006 10017 21020 39946 49977 51008;
0101010330999992013010217004+70250+019500FM-12+002499999V0202001N006019999999N9999999N1+00171-00171099751ADDMA1999999099441MD1010021+9999REMSYN060AAXX  02171 01033 46/// /2006 10017 21017 39944 49975 50002;
0130010330999992013010218004+70250+019500FM-12+002499999V0202001N005019999999N9999999N1+00181-00191099711ADDKA1120M+00181MA1999999099401MD1810041+9999REMSYN076AAXX  02181 01033 46/// /2005 10018 21019 39940 49971 58004 333 10018 91108;
0101010330999992013010219004+70250+019500FM-12+002499999V0201601N005019999999N9999999N1+00181-00231099711ADDMA1999999099401MD1710061+9999REMSYN060AAXX  02191 01033 46/// /1605 10018 21023 39940 49971 57006;
0101010330999992013010220004+70250+019500FM-12+002499999V0201501N007019999999N9999999N1+00171-00251099691ADDMA1999999099381MD1710051+9999REMSYN060AAXX  02201 01033 46/// /1507 10017 21025 39938 49969 57005;
0101010330999992013010221004+70250+019500FM-12+002499999V0201301N008019999999N9999999N1+00191-00281099661ADDMA1999999099351MD1810051+9999REMSYN060AAXX  02211 01033 46/// /1308 10019 21028 39935 49966 58005;
0101010330999992013010222004+70250+019500FM-12+002499999V0201801N005019999999N9999999N1+00241-00281099661ADDMA1999999099351MD1710051+9999REMSYN060AAXX  02221 01033 46/// /1805 10024 21028 39935 49966 57005;
0101010330999992013010223004+70250+019500FM-12+002499999V0201701N004019999999N9999999N1+00231-00271099611ADDMA1999999099301MD1810081+9999REMSYN060AAXX  02231 01033 46/// /1704 10023 21027 39930 49961 58008;
0111010330999992013010300004+70250+019500FM-12+002499999V0201501N007019999999N9999999N1+00191-00301099581ADDMA1999999099271MD1810091+9999REMSYN070AAXX  03001 01033 46/// /1507 10019 21030 39927 49958 58009 333 91110;
0101010330999992013010301004+70250+019500FM-12+002499999V0201701N006019999999N9999999N1+00211-00301099531ADDMA1999999099221MD1710131+9999REMSYN060AAXX  03011 01033 46/// /1706 10021 21030 39922 49953 57013;
0101010330999992013010302004+70250+019500FM-12+002499999V0201501N006019999999N9999999N1+00191-00301099511ADDMA1999999099201MD1710101+9999REMSYN060AAXX  03021 01033 46/// /1506 10019 21030 39920 49951 57010;
0101010330999992013010303004+70250+019500FM-12+002499999V0201701N005019999999N9999999N1+00201-00271099481ADDMA1999999099171MD1710091+9999REMSYN060AAXX  03031 01033 46/// /1705 10020 21027 39917 49948 57009;
0101010330999992013010304004+70250+019500FM-12+002499999V0201501N007019999999N9999999N1+00211-00261099431ADDMA1999999099121MD1810101+9999REMSYN060AAXX  03041 01033 46/// /1507 10021 21026 39912 49943 58010;
0101010330999992013010305004+70250+019500FM-12+002499999V0201601N004019999999N9999999N1+00201-00271099411ADDMA1999999099101MD1710101+9999REMSYN060AAXX  03051 01033 46/// /1604 10020 21027 39910 49941 57010;
0130010330999992013010306004+70250+019500FM-12+002499999V0201601N005019999999N9999999N1+00241-00261099391ADDKA1999N+00161MA1999999099081MD1610091+9999REMSYN076AAXX  03061 01033 46/// /1605 10024 21026 39908 49939 56009 333 20016 91110;
0101010330999992013010308004+70250+019500FM-12+002499999V0201601N004019999999N9999999N1+00171-00181099391ADDMA1999999099081MD1710021+9999REMSYN060AAXX  03081 01033 46/// /1604 10017 21018 39908 49939 57002;
0101010330999992013010309004+70250+019500FM-12+002499999V0201601N003019999999N9999999N1+00151-00191099391ADDMA1999999099081MD1410001+9999REMSYN060AAXX  03091 01033 46/// /1603 10015 21019 39908 49939 54000;
0101010330999992013010310004+70250+019500FM-12+002499999V0201501N003019999999N9999999N1+00141-00201099401ADDMA1999999099091MD1210021+9999REMSYN060AAXX  03101 01033 46/// /1503 10014 21020 39909 49940 52002;
0101010330999992013010311004+70250+019500FM-12+002499999V0201901N001019999999N9999999N1+00151-00221099401ADDMA1999999099091MD1410001+9999REMSYN060AAXX  03111 01033 46/// /1901 10015 21022 39909 49940 54001;
0111010330999992013010312004+70250+019500FM-12+002499999V0202601N002019999999N9999999N1+00171-00201099411ADDMA1999999099101MD1210011+9999REMSYN070AAXX  03121 01033 46/// /2602 10017 21020 39910 49941 52001 333 91108;
0101010330999992013010313004+70250+019500FM-12+002499999V0203101N003019999999N9999999N1+00151-00071099411ADDMA1999999099101MD1410001+9999REMSYN060AAXX  03131 01033 46/// /3103 10015 21007 39910 49941 54001;
0101010330999992013010314004+70250+019500FM-12+002499999V0201101N002019999999N9999999N1+00111-00141099431ADDMA1999999099121MD1310041+9999REMSYN060AAXX  03141 01033 46/// /1102 10011 21014 39912 49943 53004;
0101010330999992013010315004+70250+019500FM-12+002499999V0201601N001019999999N9999999N1+00121-00151099451ADDMA1999999099141MD1310041+9999REMSYN060AAXX  03151 01033 46/// /1601 10012 21015 39914 49945 53004;
0101010330999992013010316004+70250+019500FM-12+002499999V0201101N001019999999N9999999N1+00071-00151099501ADDMA1999999099191MD1310091+9999REMSYN060AAXX  03161 01033 46/// /1101 10007 21015 39919 49950 53009;
0101010330999992013010317004+70250+019500FM-12+002499999V0201701N001019999999N9999999N1+00111-00151099511ADDMA1999999099201MD1210081+9999REMSYN060AAXX  03171 01033 46/// /1701 10011 21015 39920 49951 52008;
0130010330999992013010318004+70250+019500FM-12+002499999V0200101N003019999999N9999999N1+00111-00131099541ADDKA1120M+00251MA1999999099231MD1110101+9999REMSYN076AAXX  03181 01033 46/// /0103 10011 21013 39923 49954 51010 333 10025 91106;
0101010330999992013010319004+70250+019500FM-12+002499999V0200301N002019999999N9999999N1+00111-00121099601ADDMA1999999099291MD1310101+9999REMSYN060AAXX  03191 01033 46/// /0302 10011 21012 39929 49960 53010;
0101010330999992013010320004+70250+019500FM-12+002499999V0201501N002019999999N9999999N1+00071-00151099681ADDMA1999999099371MD1310171+9999REMSYN060AAXX  03201 01033 46/// /1502 10007 21015 39937 49968 53017;
0101010330999992013010321004+70250+019500FM-12+002499999V0200601N004019999999N9999999N1+00051-00131099761ADDMA1999999099451MD1310221+9999REMSYN060AAXX  03211 01033 46/// /0604 10005 21013 39945 49976 53022;
0101010330999992013010322004+70250+019500FM-12+002499999V0202701N001019999999N9999999N1+00071-00161099821ADDMA1999999099511MD1210221+9999REMSYN060AAXX  03221 01033 46/// /2701 10007 21016 39951 49982 52022;
0101010330999992013010323004+70250+019500FM-12+002499999V0201701N002019999999N9999999N1+00061-00171099921ADDMA1999999099611MD1310241+9999REMSYN060AAXX  03231 01033 46/// /1702 10006 21017 39961 49992 53024;
0111010330999992013010400004+70250+019500FM-12+002499999V0201601N003019999999N9999999N1+00121-00091099991ADDMA1999999099681MD1310231+9999REMSYN070AAXX  04001 01033 46/// /1603 10012 21009 39968 49999 53023 333 91107;
0101010330999992013010401004+70250+019500FM-12+002499999V0201601N002019999999N9999999N1+00111-00091100051ADDMA1999999099741MD1210231+9999REMSYN060AAXX  04011 01033 46/// /1602 10011 21009 39974 40005 52023;
0101010330999992013010402004+70250+019500FM-12+002499999V0201601N003019999999N9999999N1+00151-00061100141ADDMA1999999099831MD1310221+9999REMSYN060AAXX  04021 01033 46/// /1603 10015 21006 39983 40014 53022;
0101010330999992013010403004+70250+019500FM-12+002499999V0201601N003019999999N9999999N1+00201-00081100191ADDMA1999999099881MD1210211+9999REMSYN060AAXX  04031 01033 46/// /1603 10020 21008 39988 40019 52021;
0101010330999992013010404004+70250+019500FM-12+002499999V0202301N006019999999N9999999N1+00211-00151100231ADDMA1999999099921MD1110181+9999REMSYN060AAXX  04041 01033 46/// /2306 10021 21015 39992 40023 51018;
0101010330999992013010405004+70250+019500FM-12+002499999V0202601N006019999999N9999999N1+00111-00081100321ADDMA1999999100011MD1310181+9999REMSYN060AAXX  04051 01033 46/// /2606 10011 21008 30001 40032 53018;
0130010330999992013010406004+70250+019500FM-12+002499999V0202401N002019999999N9999999N1+00101-00041100381ADDKA1999N+00041MA1999999100071MD1310191+9999REMSYN076AAXX  04061 01033 46/// /2402 10010 21004 30007 40038 53019 333 20004 91111;
0101010330999992013010407004+70250+019500FM-12+002499999V0202701N005019999999N9999999N1+00171+00041100421ADDMA1999999100111MD1210191+9999REMSYN060AAXX  04071 01033 46/// /2705 10017 20004 30011 40042 52019;
0101010330999992013010408004+70250+019500FM-12+002499999V0202701N006019999999N9999999N1+00221+00031100481ADDMA1999999100171MD1210161+9999REMSYN060AAXX  04081 01033 46/// /2706 10022 20003 30017 40048 52016;
0101010330999992013010409004+70250+019500FM-12+002499999V0203101N009019999999N9999999N1+00271-00161100531ADDMA1999999100221MD1210151+9999REMSYN060AAXX  04091 01033 46/// /3109 10027 21016 30022 40053 52015;
0101010330999992013010410004+70250+019500FM-12+002499999V0202901N011019999999N9999999N1+00301-00211100591ADDMA1999999100281MD1210161+9999REMSYN060AAXX  04101 01033 46/// /2911 10030 21021 30028 40059 52016;
0101010330999992013010411004+70250+019500FM-12+002499999V0203101N010019999999N9999999N1+00261-00291100651ADDMA1999999100341MD1210171+9999REMSYN060AAXX  04111 01033 46/// /3110 10026 21029 30034 40065 52017;
0111010330999992013010412004+70250+019500FM-12+002499999V0203001N012019999999N9999999N1+00251-00381100731ADDMA1999999100421MD1310201+9999REMSYN070AAXX  04121 01033 46/// /3012 10025 21038 30042 40073 53020 333 91114;
0101010330999992013010413004+70250+019500FM-12+002499999V0203001N010019999999N9999999N1+00261-00251100791ADDMA1999999100481MD1210211+9999REMSYN060AAXX  04131 01033 46/// /3010 10026 21025 30048 40079 52021;
0101010330999992013010414004+70250+019500FM-12+002499999V0203101N010019999999N9999999N1+00251-00291100871ADDMA1999999100561MD1210221+9999REMSYN060AAXX  04141 01033 46/// /3110 10025 21029 30056 40087 52022;
0101010330999992013010415004+70250+019500FM-12+002499999V0202901N011019999999N9999999N1+00261-00311100961ADDMA1999999100661MD1310241+9999REMSYN060AAXX  04151 01033 46/// /2911 10026 21031 30066 40096 53024;
0101010330999992013010416004+70250+019500FM-12+002499999V0203101N010019999999N9999999N1+00251-00371101041ADDMA1999999100731MD1210251+9999REMSYN060AAXX  04161 01033 46/// /3110 10025 21037 30073 40104 52025;
0101010330999992013010417004+70250+019500FM-12+002499999V0203101N010019999999N9999999N1+00271-00321101111ADDMA1999999100801MD1210241+9999REMSYN060AAXX  04171 01033 46/// /3110 10027 21032 30080 40111 52024;
0130010330999992013010418004+70250+019500FM-12+002499999V0203101N009019999999N9999999N1+00281-00271101201ADDKA1120M+00301MA1999999100891MD1210241+9999REMSYN076AAXX  04181 01033 46/// /3109 10028 21027 30089 40120 52024 333 10030 91114;
0101010330999992013010419004+70250+019500FM-12+002499999V0203201N010019999999N9999999N1+00281-00321101291ADDMA1999999100981MD1310241+9999REMSYN060AAXX  04191 01033 46/// /3210 10028 21032 30098 40129 53024;
0101010330999992013010420004+70250+019500FM-12+002499999V0203001N009019999999N9999999N1+00301-00231101361ADDMA1999999101051MD1210251+9999REMSYN060AAXX  04201 01033 46/// /3009 10030 21023 30105 40136 52025;
0101010330999992013010421004+70250+019500FM-12+002499999V0203201N008019999999N9999999N1+00291-00251101461ADDMA1999999101151MD1210261+9999REMSYN060AAXX  04211 01033 46/// /3208 10029 21025 30115 40146 52026;
0101010330999992013010422004+70250+019500FM-12+002499999V0203201N007019999999N9999999N1+00301-00241101531ADDMA1999999101221MD1310241+9999REMSYN060AAXX  04221 01033 46/// /3207 10030 21024 30122 40153 53024;
0101010330999992013010423004+70250+019500FM-12+002499999V0203201N006019999999N9999999N1+00321-00161101571ADDMA1999999101261MD1110201+9999REMSYN060AAXX  04231 01033 46/// /3206 10032 21016 30126 40157 51020;
0111010330999992013010500004+70250+019500FM-12+002499999V0203301N005019999999N9999999N1+00321-00161101621ADDMA1999999101311MD1210171+9999REMSYN070AAXX  05001 01033 46/// /3305 10032 21016 30131 40162 52017 333 91113;
0101010330999992013010501004+70250+019500FM-12+002499999V0203001N006019999999N9999999N1+00351-00111101671ADDMA1999999101361MD1210141+9999REMSYN060AAXX  05011 01033 46/// /3006 10035 21011 30136 40167 52014;
0101010330999992013010502004+70250+019500FM-12+002499999V0202901N005019999999N9999999N1+00361-00081101731ADDMA1999999101421MD1310171+9999REMSYN060AAXX  05021 01033 46/// /2905 10036 21008 30142 40173 53017;
0101010330999992013010503004+70250+019500FM-12+002499999V0203001N004019999999N9999999N1+00351-00081101751ADDMA1999999101441MD1210131+9999REMSYN060AAXX  05031 01033 46/// /3004 10035 21008 30144 40175 52013;
0101010330999992013010504004+70250+019500FM-12+002499999V0202501N003019999999N9999999N1+00351-00061101761ADDMA1999999101451MD1110091+9999REMSYN060AAXX  05041 01033 46/// /2503 10035 21006 30145 40176 51009;
0101010330999992013010505004+70250+019500FM-12+002499999V0202401N004019999999N9999999N1+00291-00011101811ADDMA1999999101501MD1310081+9999REMSYN060AAXX  05051 01033 46/// /2404 10029 21001 30150 40181 53008;
0130010330999992013010506004+70250+019500FM-12+002499999V0202001N003019999999N9999999N1+00281-00011101821ADDKA1999N+00271MA1999999101511MD1210071+9999REMSYN076AAXX  05061 01033 46/// /2003 10028 21001 30151 40182 52007 333 20027 91107;
0101010330999992013010507004+70250+019500FM-12+002499999V0201901N004019999999N9999999N1+00311+00051101871ADDMA1999999101561MD1310101+9999REMSYN060AAXX  05071 01033 46/// /1904 10031 20005 30156 40187 53010;
0101010330999992013010508004+70250+019500FM-12+002499999V0201901N005019999999N9999999N1+00291+00061101881ADDMA1999999101571MD1310071+9999REMSYN060AAXX  05081 01033 46/// /1905 10029 20006 30157 40188 53007;
0101010330999992013010509004+70250+019500FM-12+002499999V0201901N005019999999N9999999N1+00301+00091101911ADDMA1999999101601MD1110081+9999REMSYN060AAXX  05091 01033 46/// /1905 10030 20009 30160 40191 51008;
0101010330999992013010510004+70250+019500FM-12+002499999V0202001N006019999999N9999999N1+00321+00131101951ADDMA1999999101641MD1310081+9999REMSYN060AAXX  05101 01033 46/// /2006 10032 20013 30164 40195 53008;
0101010330999992013010511004+70250+019500FM-12+002499999V0202001N006019999999N9999999N1+00321+00131101961ADDMA1999999101651MD1210081+9999REMSYN060AAXX  05111 01033 46/// /2006 10032 20013 30165 40196 52008;
0111010330999992013010512004+70250+019500FM-12+002499999V0202101N006019999999N9999999N1+00321+00111101961ADDMA1999999101651MD1110061+9999REMSYN070AAXX  05121 01033 46/// /2106 10032 20011 30165 40196 51006 333 91110;
0101010330999992013010513004+70250+019500FM-12+002499999V0201701N005019999999N9999999N1+00281+00091102011ADDMA1999999101691MD1310051+9999REMSYN060AAXX  05131 01033 46/// /1705 10028 20009 30169 40201 53005;
0101010330999992013010514004+70250+019500FM-12+002499999V0201601N006019999999N9999999N1+00291+00081101991ADDMA1999999101671MD1210021+9999REMSYN060AAXX  05141 01033 46/// /1606 10029 20008 30167 40199 52002;
0101010330999992013010515004+70250+019500FM-12+002499999V0201501N007019999999N9999999N1+00281+00071101991ADDMA1999999101671MD1010011+9999REMSYN060AAXX  05151 01033 46/// /1507 10028 20007 30167 40199 50001;
0101010330999992013010516004+70250+019500FM-12+002499999V0201401N005019999999N9999999N1+00331-00011101931ADDMA1999999101621MD1810061+9999REMSYN060AAXX  05161 01033 46/// /1405 10033 21001 30162 40193 58006;
0101010330999992013010517004+70250+019500FM-12+002499999V0201501N007019999999N9999999N1+00291-00071101901ADDMA1999999101591MD1810081+9999REMSYN060AAXX  05171 01033 46/// /1507 10029 21007 30159 40190 58008;
0130010330999992013010518004+70250+019500FM-12+002499999V0201501N006019999999N9999999N1+00291-00101101851ADDKA1120M+00341MA1999999101541MD1710121+9999REMSYN076AAXX  05181 01033 46/// /1506 10029 21010 30154 40185 57012 333 10034 91110;
0101010330999992013010519004+70250+019500FM-12+002499999V0201501N006019999999N9999999N1+00321-00081101851ADDMA1999999101541MD1710091+9999REMSYN060AAXX  05191 01033 46/// /1506 10032 21008 30154 40185 57009;
0101010330999992013010520004+70250+019500FM-12+002499999V0201601N005019999999N9999999N1+00301-00141101821ADDMA1999999101511MD1710071+9999REMSYN060AAXX  05201 01033 46/// /1605 10030 21014 30151 40182 57007;
0101010330999992013010521004+70250+019500FM-12+002499999V0201601N004019999999N9999999N1+00311-00151101741ADDMA1999999101431MD1810111+9999REMSYN060AAXX  05211 01033 46/// /1604 10031 21015 30143 40174 58011;
0101010330999992013010522004+70250+019500FM-12+002499999V0201501N005019999999N9999999N1+00361-00201101661ADDMA1999999101351MD1810181+9999REMSYN060AAXX  05221 01033 46/// /1505 10036 21020 30135 40166 58018;
0101010330999992013010523004+70250+019500FM-12+002499999V0201501N009019999999N9999999N1+00351-00251101561ADDMA1999999101251MD1810261+9999REMSYN060AAXX  05231 01033 46/// /1509 10035 21025 30125 40156 58026;
0111010330999992013010600004+70250+019500FM-12+002499999V0201601N008019999999N9999999N1+00391-00211101471ADDMA1999999101161MD1810261+9999REMSYN070AAXX  06001 01033 46/// /1608 10039 21021 30116 40147 58026 333 91111;
0101010330999992013010601004+70250+019500FM-12+002499999V0201701N008019999999N9999999N1+00421-00341101381ADDMA1999999101071MD1710281+9999REMSYN060AAXX  06011 01033 46/// /1708 10042 21034 30107 40138 57028;
0101010330999992013010602004+70250+019500FM-12+002499999V0201601N009019999999N9999999N1+00421-00361101321ADDMA1999999101011MD1710241+9999REMSYN060AAXX  06021 01033 46/// /1609 10042 21036 30101 40132 57024;
0101010330999992013010603004+70250+019500FM-12+002499999V0201601N009019999999N9999999N1+00441-00381101271ADDMA1999999100961MD1610201+9999REMSYN060AAXX  06031 01033 46/// /1609 10044 21038 30096 40127 56020;
0101010330999992013010604004+70250+019500FM-12+002499999V0201501N009019999999N9999999N1+00451-00471101211ADDMA1999999100901MD1810171+9999REMSYN060AAXX  06041 01033 46/// /1509 10045 21047 30090 40121 58017;
0101010330999992013010605004+70250+019500FM-12+002499999V0201501N008019999999N9999999N1+00421-00381101191ADDMA1999999100881MD1710141+9999REMSYN060AAXX  06051 01033 46/// /1508 10042 21038 30088 40119 57014;
0130010330999992013010606004+70250+019500FM-12+002499999V0201501N009019999999N9999999N1+00451-00391101151ADDKA1999N+00271MA1999999100841MD1710121+9999REMSYN076AAXX  06061 01033 46/// /1509 10045 21039 30084 40115 57012 333 20027 91113;
0101010330999992013010607004+70250+019500FM-12+002499999V0201601N009019999999N9999999N1+00421-00181101101ADDMA1999999100791MD1810111+9999REMSYN060AAXX  06071 01033 46/// /1609 10042 21018 30079 40110 58011;
0101010330999992013010608004+70250+019500FM-12+002499999V0201501N010019999999N9999999N1+00441-00201101081ADDMA1999999100771MD1510101+9999REMSYN060AAXX  06081 01033 46/// /1510 10044 21020 30077 40108 55010;
0101010330999992013010609004+70250+019500FM-12+002499999V0201401N009019999999N9999999N1+00441-00041101011ADDMA1999999100701MD1810131+9999REMSYN060AAXX  06091 01033 46/// /1409 10044 21004 30070 40101 58013;
0101010330999992013010610004+70250+019500FM-12+002499999V0201501N011019999999N9999999N1+00481+00051100961ADDMA1999999100651MD1810141+9999REMSYN060AAXX  06101 01033 46/// /1511 10048 20005 30065 40096 58014;
0101010330999992013010611004+70250+019500FM-12+002499999V0201501N011019999999N9999999N1+00501+00051100901ADDMA1999999100591MD1610191+9999REMSYN060AAXX  06111 01033 46/// /1511 10050 20005 30059 40090 56019;
0111010330999992013010612004+70250+019500FM-12+002499999V0201401N010019999999N9999999N1+00581+00071100811ADDMA1999999100501MD1810201+9999REMSYN070AAXX  06121 01033 46/// /1410 10058 20007 30050 40081 58020 333 91115;
0101010330999992013010613004+70250+019500FM-12+002499999V0201501N011019999999N9999999N1+00581+00121100791ADDMA1999999100481MD1610161+9999REMSYN060AAXX  06131 01033 46/// /1511 10058 20012 30048 40079 56016;
0101010330999992013010614004+70250+019500FM-12+002499999V0201501N011019999999N9999999N1+00651+00161100751ADDMA1999999100441MD1610151+9999REMSYN060AAXX  06141 01033 46/// /1511 10065 20016 30044 40075 56015;
0101010330999992013010615004+70250+019500FM-12+002499999V0201501N011019999999N9999999N1+00621+00211100721ADDMA1999999100411MD1810101+9999REMSYN060AAXX  06151 01033 46/// /1511 10062 20021 30041 40072 58010;
0101010330999992013010616004+70250+019500FM-12+002499999V0201801N007019999999N9999999N1+00611+00271100751ADDMA1999999100441MD1510051+9999REMSYN060AAXX  06161 01033 46/// /1807 10061 20027 30044 40075 55005;
0101010330999992013010617004+70250+019500FM-12+002499999V0201901N009019999999N9999999N1+00581+00261100801ADDMA1999999100491MD1310061+9999REMSYN060AAXX  06171 01033 46/// /1909 10058 20026 30049 40080 53006;
0130010330999992013010618004+70250+019500FM-12+002499999V0201901N010019999999N9999999N1+00561+00281100831ADDKA1120M+00671MA1999999100521MD1210121+9999REMSYN076AAXX  06181 01033 46/// /1910 10056 20028 30052 40083 52012 333 10067 91116;
0101010330999992013010619004+70250+019500FM-12+002499999V0202001N012019999999N9999999N1+00521+00331100871ADDMA1999999100561MD1210121+9999REMSYN060AAXX  06191 01033 46/// /2012 10052 20033 30056 40087 52012;
0101010330999992013010620004+70250+019500FM-12+002499999V0202101N014019999999N9999999N1+00521+00331100891ADDMA1999999100581MD1110091+9999REMSYN060AAXX  06201 01033 46/// /2114 10052 20033 30058 40089 51009;
0101010330999992013010621004+70250+019500FM-12+002499999V0202601N012019999999N9999999N1+00491+00321101071ADDMA1999999100761MD1310231+9999REMSYN060AAXX  06211 01033 46/// /2612 10049 20032 30076 40107 53023;
0101010330999992013010622004+70250+019500FM-12+002499999V0202601N011019999999N9999999N1+00531+00201101191ADDMA1999999100881MD1310321+9999REMSYN060AAXX  06221 01033 46/// /2611 10053 20020 30088 40119 53032;
0101010330999992013010623004+70250+019500FM-12+002499999V0202601N011019999999N9999999N1+00501+00201101331ADDMA1999999101021MD1210441+9999REMSYN060AAXX  06231 01033 46/// /2611 10050 20020 30102 40133 52044;
0111010330999992013010700004+70250+019500FM-12+002499999V0202501N008019999999N9999999N1+00561+00221101371ADDMA1999999101061MD1110311+9999REMSYN070AAXX  07001 01033 46/// /2508 10056 20022 30106 40137 51031 333 91119;
0101010330999992013010701004+70250+019500FM-12+002499999V0202501N007019999999N9999999N1+00531+00211101431ADDMA1999999101121MD1110251+9999REMSYN060AAXX  07011 01033 46/// /2507 10053 20021 30112 40143 51025;
0101010330999992013010702004+70250+019500FM-12+002499999V0202601N009019999999N9999999N1+00501+00221101531ADDMA1999999101221MD1310201+9999REMSYN060AAXX  07021 01033 46/// /2609 10050 20022 30122 40153 53020;
0101010330999992013010703004+70250+019500FM-12+002499999V0202501N008019999999N9999999N1+00521+00021101581ADDMA1999999101261MD1210211+9999REMSYN060AAXX  07031 01033 46/// /2508 10052 20002 30126 40158 52021;
0101010330999992013010704004+70250+019500FM-12+002499999V0202401N005019999999N9999999N1+00511+00031101581ADDMA1999999101271MD1110151+9999REMSYN060AAXX  07041 01033 46/// /2405 10051 20003 30127 40158 51015;
0101010330999992013010705004+70250+019500FM-12+002499999V0202301N006019999999N9999999N1+00491+00071101591ADDMA1999999101281MD1110061+9999REMSYN060AAXX  07051 01033 46/// /2306 10049 20007 30128 40159 51006;
0130010330999992013010706004+70250+019500FM-12+002499999V0201901N005019999999N9999999N1+00431+00151101601ADDKA1999N+00431MA1999999101291MD1210021+9999REMSYN076AAXX  07061 01033 46/// /1905 10043 20015 30129 40160 52002 333 20043 91116;
0101010330999992013010707004+70250+019500FM-12+002499999V0202001N006019999999N9999999N1+00421+00191101631ADDMA1999999101321MD1210051+9999REMSYN060AAXX  07071 01033 46/// /2006 10042 20019 30132 40163 52005;
0101010330999992013010708004+70250+019500FM-12+002499999V0202201N007019999999N9999999N1+00461+00221101671ADDMA1999999101361MD1310081+9999REMSYN060AAXX  07081 01033 46/// /2207 10046 20022 30136 40167 53008;
0101010330999992013010709004+70250+019500FM-12+002499999V0202401N006019999999N9999999N1+00461+00121101671ADDMA1999999101361MD1210071+9999REMSYN060AAXX  07091 01033 46/// /2406 10046 20012 30136 40167 52007;
0101010330999992013010710004+70250+019500FM-12+002499999V0201901N005019999999N9999999N1+00421+00121101661ADDMA1999999101351MD1010031+9999REMSYN060AAXX  07101 01033 46/// /1905 10042 20012 30135 40166 50003;
0101010330999992013010711004+70250+019500FM-12+002499999V0202001N008019999999N9999999N1+00421+00161101651ADDMA1999999101341MD1710021+9999REMSYN060AAXX  07111 01033 46/// /2008 10042 20016 30134 40165 57002;
0111010330999992013010712004+70250+019500FM-12+002499999V0202001N007019999999N9999999N1+00451+00111101591ADDMA1999999101281MD1810081+9999REMSYN070AAXX  07121 01033 46/// /2007 10045 20011 30128 40159 58008 333 91112;
0101010330999992013010713004+70250+019500FM-12+002499999V0201901N005019999999N9999999N1+00441+00091101571ADDMA1999999101261MD1810091+9999REMSYN060AAXX  07131 01033 46/// /1905 10044 20009 30126 40157 58009;
0101010330999992013010714004+70250+019500FM-12+002499999V0201901N004019999999N9999999N1+00431+00091101541ADDMA1999999101231MD1610111+9999REMSYN060AAXX  07141 01033 46/// /1904 10043 20009 30123 40154 56011;
0101010330999992013010715004+70250+019500FM-12+002499999V0201701N003019999999N9999999N1+00431+00071101491ADDMA1999999101181MD1810101+9999REMSYN060AAXX  07151 01033 46/// /1703 10043 20007 30118 40149 58010;
0101010330999992013010716004+70250+019500FM-12+002499999V0201701N004019999999N9999999N1+00431+00031101451ADDMA1999999101141MD1710121+9999REMSYN060AAXX  07161 01033 46/// /1704 10043 20003 30114 40145 57012;
0101010330999992013010717004+70250+019500FM-12+002499999V0201501N004019999999N9999999N1+00431+00031101431ADDMA1999999101121MD1710111+9999REMSYN060AAXX  07171 01033 46/// /1504 10043 20003 30112 40143 57011;
0130010330999992013010718004+70250+019500FM-12+002499999V0201301N003019999999N9999999N1+00411-00041101381ADDKA1120M+00481MA1999999101071MD1710111+9999REMSYN076AAXX  07181 01033 46/// /1303 10041 21004 30107 40138 57011 333 10048 91110;
0101010330999992013010719004+70250+019500FM-12+002499999V0200901N003019999999N9999999N1+00351-00111101301ADDMA1999999100991MD1810151+9999REMSYN060AAXX  07191 01033 46/// /0903 10035 21011 30099 40130 58015;
0101010330999992013010720004+70250+019500FM-12+002499999V0201501N002019999999N9999999N1+00321-00071101231ADDMA1999999100921MD1810201+9999REMSYN060AAXX  07201 01033 46/// /1502 10032 21007 30092 40123 58020;
0101010330999992013010721004+70250+019500FM-12+002499999V0201501N004019999999N9999999N1+00391-00091101121ADDMA1999999100811MD1810261+9999REMSYN060AAXX  07211 01033 46/// /1504 10039 21009 30081 40112 58026;
0101010330999992013010722004+70250+019500FM-12+002499999V0201401N003019999999N9999999N1+00341-00061101071ADDMA1999999100761MD1710241+9999REMSYN060AAXX  07221 01033 46/// /1403 10034 21006 30076 40107 57024;
0101010330999992013010723004+70250+019500FM-12+002499999V0201701N003019999999N9999999N1+00391-00151100991ADDMA1999999100681MD1610241+9999REMSYN060AAXX  07231 01033 46/// /1703 10039 21015 30068 40099 56024;
0111010330999992013010800004+70250+019500FM-12+002499999V0201801N005019999999N9999999N1+00371-00171100921ADDMA1999999100611MD1810201+9999REMSYN070AAXX  08001 01033 46/// /1805 10037 21017 30061 40092 58020 333 91109;
0101010330999992013010801004+70250+019500FM-12+002499999V0201901N005019999999N9999999N1+00381-00281100881ADDMA1999999100571MD1710191+9999REMSYN060AAXX  08011 01033 46/// /1905 10038 21028 30057 40088 57019;
0101010330999992013010802004+70250+019500FM-12+002499999V0202001N004019999999N9999999N1+00381-00311100841ADDMA1999999100531MD1610151+9999REMSYN060AAXX  08021 01033 46/// /2004 10038 21031 30053 40084 56015;
0101010330999992013010803004+70250+019500FM-12+002499999V0201801N003019999999N9999999N1+00361-00361100801ADDMA1999999100491MD1710121+9999REMSYN060AAXX  08031 01033 46/// /1803 10036 21036 30049 40080 57012;
0101010330999992013010804004+70250+019500FM-12+002499999V0201801N004019999999N9999999N1+00371-00401100701ADDMA1999999100391MD1810181+9999REMSYN060AAXX  08041 01033 46/// /1804 10037 21040 30039 40070 58018;
0101010330999992013010805004+70250+019500FM-12+002499999V0201801N004019999999N9999999N1+00361-00441100641ADDMA1999999100331MD1810201+9999REMSYN060AAXX  08051 01033 46/// /1804 10036 21044 30033 40064 58020;
0130010330999992013010806004+70250+019500FM-12+002499999V0201501N007019999999N9999999N1+00381-00501100551ADDKA1999N+00301MA1999999100241MD1710251+9999REMSYN076AAXX  08061 01033 46/// /1507 10038 21050 30024 40055 57025 333 20030 91110;
0101010330999992013010807004+70250+019500FM-12+002499999V0201601N006019999999N9999999N1+00331-00321100511ADDMA1999999100201MD1710181+9999REMSYN060AAXX  08071 01033 46/// /1606 10033 21032 30020 40051 57018;
0101010330999992013010808004+70250+019500FM-12+002499999V0201801N004019999999N9999999N1+00361-00371100451ADDMA1999999100141MD1610191+9999REMSYN060AAXX  08081 01033 46/// /1804 10036 21037 30014 40045 56019;
0101010330999992013010809004+70250+019500FM-12+002499999V0201501N009019999999N9999999N1+00331-00211100301ADDMA1999999099991MD1810251+9999REMSYN060AAXX  08091 01033 46/// /1509 10033 21021 39999 40030 58025;
0101010330999992013010810004+70250+019500FM-12+002499999V0201501N011019999999N9999999N1+00191-00031100201ADDMA1999999099891MD1810311+9999REMSYN060AAXX  08101 01033 46/// /1511 10019 21003 39989 40020 58031;
0101010330999992013010811004+70250+019500FM-12+002499999V0201501N012019999999N9999999N1+00221+00011100041ADDMA1999999099731MD1810411+9999REMSYN060AAXX  08111 01033 46/// /1512 10022 20001 39973 40004 58041;
0111010330999992013010812004+70250+019500FM-12+002499999V0201901N010019999999N9999999N1+00291+00021100041ADDMA1999999099731MD1610261+9999REMSYN070AAXX  08121 01033 46/// /1910 10029 20002 39973 40004 56026 333 91116;
0101010330999992013010813004+70250+019500FM-12+002499999V0202001N011019999999N9999999N1+00181+00001100061ADDMA1999999099751MD1510141+9999REMSYN060AAXX  08131 01033 46/// /2011 10018 21000 39975 40006 55014;
0101010330999992013010814004+70250+019500FM-12+002499999V0202401N007019999999N9999999N1+00361+00151100101ADDMA1999999099791MD1310061+9999REMSYN060AAXX  08141 01033 46/// /2407 10036 20015 39979 40010 53006;
0101010330999992013010815004+70250+019500FM-12+002499999V0202701N011019999999N9999999N1+00331+00101100121ADDMA1999999099811MD1310081+9999REMSYN060AAXX  08151 01033 46/// /2711 10033 20010 39981 40012 53008;
0101010330999992013010816004+70250+019500FM-12+002499999V0202801N014019999999N9999999N1+00301+00071100171ADDMA1999999099861MD1310111+9999REMSYN060AAXX  08161 01033 46/// /2814 10030 20007 39986 40017 53011;
0101010330999992013010817004+70250+019500FM-12+002499999V0202901N015019999999N9999999N1+00261+00001100191ADDMA1999999099881MD1310091+9999REMSYN060AAXX  08171 01033 46/// /2915 10026 20000 39988 40019 53009;
0130010330999992013010818004+70250+019500FM-12+002499999V0202701N015019999999N9999999N1+00211-00081100311ADDKA1120M+00421MA1999999100001MD1310191+9999REMSYN076AAXX  08181 01033 46/// /2715 10021 21008 30000 40031 53019 333 10042 91120;
0101010330999992013010819004+70250+019500FM-12+002499999V0202701N014019999999N9999999N1+00131-00071100341ADDMA1999999100031MD1310181+9999REMSYN060AAXX  08191 01033 46/// /2714 10013 21007 30003 40034 53018;
0101010330999992013010821004+70250+019500FM-12+002499999V02099999999999999999N9999999N1+00041-00051100361ADDMA1999999100051MD1010051+9999REMSYN060AAXX  08211 01033 46/// ///// 10004 21005 30005 40036 50005;
0101010330999992013010823004+70250+019500FM-12+002499999V02099999999999999999N9999999N1+00061-00011100301ADDMA1999999099991MD1810061+9999REMSYN060AAXX  08231 01033 46/// ///// 10006 21001 39999 40030 58006;
0111010330999992013010900004+70250+019500FM-12+002499999V0203001N014019999999N9999999N1+00201+00141100171ADDMA1999999099861MD1810191+9999REMSYN070AAXX  09001 01033 46/// /3014 10020 20014 39986 40017 58019 333 91120;
0101010330999992013010901004+70250+019500FM-12+002499999V0203301N014019999999N9999999N1+00351+00231100201ADDMA1999999099891MD1510181+9999REMSYN060AAXX  09011 01033 46/// /3314 10035 20023 39989 40020 55018;
0101010330999992013010902004+70250+019500FM-12+002499999V0203601N011019999999N9999999N1+00291+00181100291ADDMA1999999099981MD1510001+9999REMSYN060AAXX  09021 01033 46/// /3611 10029 20018 39998 40029 55000;
0101010330999992013010903004+70250+019500FM-12+002499999V0203401N011019999999N9999999N1+00311+00221100351ADDMA1999999100041MD1310181+9999REMSYN060AAXX  09031 01033 46/// /3411 10031 20022 30004 40035 53018;
0101010330999992013010904004+70250+019500FM-12+002499999V0203501N014019999999N9999999N1+00191+00071100391ADDMA1999999100081MD1210201+9999REMSYN060AAXX  09041 01033 46/// /3514 10019 20007 30008 40039 52020;
0101010330999992013010905004+70250+019500FM-12+002499999V0203401N013019999999N9999999N1+00321+00221100441ADDMA1999999100131MD1010151+9999REMSYN060AAXX  09051 01033 46/// /3413 10032 20022 30013 40044 50015;
0130010330999992013010906004+70250+019500FM-12+002499999V0203501N013019999999N9999999N1+00371+00241100511ADDKA1999N+00021MA1999999100201MD1110161+9999REMSYN076AAXX  09061 01033 46/// /3513 10037 20024 30020 40051 51016 333 20002 91118;
0101010330999992013010907004+70250+019500FM-12+002499999V0203601N012019999999N9999999N1+00291+00171100621ADDMA1999999100311MD1310221+9999REMSYN060AAXX  09071 01033 46/// /3612 10029 20017 30031 40062 53022;
0101010330999992013010908004+70250+019500FM-12+002499999V0200301N010019999999N9999999N1+00271+00141100731ADDMA1999999100421MD1310281+9999REMSYN060AAXX  09081 01033 46/// /0310 10027 20014 30042 40073 53028;
0101010330999992013010909004+70250+019500FM-12+002499999V0200201N012019999999N9999999N1+00351+00201100811ADDMA1999999100501MD1310301+9999REMSYN060AAXX  09091 01033 46/// /0212 10035 20020 30050 40081 53030;
0101010330999992013010910004+70250+019500FM-12+002499999V0200101N012019999999N9999999N1+00381+00161100921ADDMA1999999100611MD1210301+9999REMSYN060AAXX  09101 01033 46/// /0112 10038 20016 30061 40092 52030;
0101010330999992013010911004+70250+019500FM-12+002499999V0203601N012019999999N9999999N1+00361+00161100991ADDMA1999999100681MD1210261+9999REMSYN060AAXX  09111 01033 46/// /3612 10036 20016 30068 40099 52026;
0111010330999992013010912004+70250+019500FM-12+002499999V0203601N013019999999N9999999N1+00351+00171101071ADDMA1999999100761MD1310261+9999REMSYN070AAXX  09121 01033 46/// /3613 10035 20017 30076 40107 53026 333 91117;
0101010330999992013010913004+70250+019500FM-12+002499999V0200101N012019999999N9999999N1+00341+00101101171ADDMA1999999100861MD1310251+9999REMSYN060AAXX  09131 01033 46/// /0112 10034 20010 30086 40117 53025;
0101010330999992013010914004+70250+019500FM-12+002499999V0203601N012019999999N9999999N1+00321+00101101271ADDMA1999999100961MD1310281+9999REMSYN060AAXX  09141 01033 46/// /3612 10032 20010 30096 40127 53028;
0101010330999992013010915004+70250+019500FM-12+002499999V0203601N012019999999N9999999N1+00311+00081101331ADDMA1999999101021MD1210261+9999REMSYN060AAXX  09151 01033 46/// /3612 10031 20008 30102 40133 52026;
0101010330999992013010916004+70250+019500FM-12+002499999V0203601N013019999999N9999999N1+00301+00081101411ADDMA1999999101101MD1210251+9999REMSYN060AAXX  09161 01033 46/// /3613 10030 20008 30110 40141 52025;
0101010330999992013010917004+70250+019500FM-12+002499999V0203601N012019999999N9999999N1+00281+00101101501ADDMA1999999101191MD1310231+9999REMSYN060AAXX  09171 01033 46/// /3612 10028 20010 30119 40150 53023;
0130010330999992013010918004+70250+019500FM-12+002499999V0203601N010019999999N9999999N1+00291+00111101571ADDKA1120M+00401MA1999999101261MD1210241+9999REMSYN076AAXX  09181 01033 46/// /3610 10029 20011 30126 40157 52024 333 10040 91117;
0101010330999992013010919004+70250+019500FM-12+002499999V0203601N010019999999N9999999N1+00311+00091101641ADDMA1999999101331MD1210221+9999REMSYN060AAXX  09191 01033 46/// /3610 10031 20009 30133 40164 52022;
0101010330999992013010920004+70250+019500FM-12+002499999V0200101N010019999999N9999999N1+00291+00071101711ADDMA1999999101401MD1310211+9999REMSYN060AAXX  09201 01033 46/// /0110 10029 20007 30140 40171 53021;
0101010330999992013010921004+70250+019500FM-12+002499999V0203601N009019999999N9999999N1+00291+00101101751ADDMA1999999101441MD1210181+9999REMSYN060AAXX  09211 01033 46/// /3609 10029 20010 30144 40175 52018;
0101010330999992013010922004+70250+019500FM-12+002499999V0200101N009019999999N9999999N1+00301+00081101791ADDMA1999999101481MD1210151+9999REMSYN060AAXX  09221 01033 46/// /0109 10030 20008 30148 40179 52015;
0101010330999992013010923004+70250+019500FM-12+002499999V0200101N009019999999N9999999N1+00321+00091101841ADDMA1999999101531MD1310131+9999REMSYN060AAXX  09231 01033 46/// /0109 10032 20009 30153 40184 53013;
0111010330999992013011000004+70250+019500FM-12+002499999V0200101N009019999999N9999999N1+00341+00071101891ADDMA1999999101581MD1210141+9999REMSYN070AAXX  10001 01033 46/// /0109 10034 20007 30158 40189 52014 333 91114;
0101010330999992013011001004+70250+019500FM-12+002499999V0203601N008019999999N9999999N1+00301+00111101941ADDMA1999999101631MD1210141+9999REMSYN060AAXX  10011 01033 46/// /3608 10030 20011 30163 40194 52014;
0101010330999992013011002004+70250+019500FM-12+002499999V0200201N005019999999N9999999N1+00291+00111102001ADDMA1999999101681MD1210141+9999REMSYN060AAXX  10021 01033 46/// /0205 10029 20011 30168 40200 52014;
0101010330999992013011003004+70250+019500FM-12+002499999V0200101N008019999999N9999999N1+00311+00111102021ADDMA1999999101701MD1210111+9999REMSYN060AAXX  10031 01033 46/// /0108 10031 20011 30170 40202 52011;
0101010330999992013011004004+70250+019500FM-12+002499999V0200301N005019999999N9999999N1+00291+00111102071ADDMA1999999101751MD1210121+9999REMSYN060AAXX  10041 01033 46/// /0305 10029 20011 30175 40207 52012;
0101010330999992013011005004+70250+019500FM-12+002499999V0200101N008019999999N9999999N1+00251+00091102081ADDMA1999999101761MD1210081+9999REMSYN060AAXX  10051 01033 46/// /0108 10025 20009 30176 40208 52008;
0130010330999992013011006004+70250+019500FM-12+002499999V0200101N007019999999N9999999N1+00241+00071102141ADDKA1999N+00241MA1999999101821MD1310131+9999REMSYN076AAXX  10061 01033 46/// /0107 10024 20007 30182 40214 53013 333 20024 91111;
0101010330999992013011007004+70250+019500FM-12+002499999V0200301N006019999999N9999999N1+00241+00071102161ADDMA1999999101841MD1310101+9999REMSYN060AAXX  10071 01033 46/// /0306 10024 20007 30184 40216 53010;
0101010330999992013011008004+70250+019500FM-12+002499999V0200501N004019999999N9999999N1+00241+00061102221ADDMA1999999101901MD1310141+9999REMSYN060AAXX  10081 01033 46/// /0504 10024 20006 30190 40222 53014;
0101010330999992013011009004+70250+019500FM-12+002499999V0200101N006019999999N9999999N1+00231+00081102251ADDMA1999999101931MD1310111+9999REMSYN060AAXX  10091 01033 46/// /0106 10023 20008 30193 40225 53011;
0101010330999992013011010004+70250+019500FM-12+002499999V0200201N005019999999N9999999N1+00231+00051102261ADDMA1999999101941MD1110091+9999REMSYN060AAXX  10101 01033 46/// /0205 10023 20005 30194 40226 51009;
0101010330999992013011011004+70250+019500FM-12+002499999V0200401N003019999999N9999999N1+00241+00031102231ADDMA1999999101911MD1010021+9999REMSYN060AAXX  10111 01033 46/// /0403 10024 20003 30191 40223 50002;
0111010330999992013011012004+70250+019500FM-12+002499999V0203501N005019999999N9999999N1+00251+00001102241ADDMA1999999101921MD1410001+9999REMSYN070AAXX  10121 01033 46/// /3505 10025 20000 30192 40224 54000 333 91108;
0101010330999992013011013004+70250+019500FM-12+002499999V0203301N003019999999N9999999N1+00231-00051102251ADDMA1999999101931MD1510011+9999REMSYN060AAXX  10131 01033 46/// /3303 10023 21005 30193 40225 55001;
0101010330999992013011014004+70250+019500FM-12+002499999V0203301N002019999999N9999999N1+00191-00081102251ADDMA1999999101931MD1210021+9999REMSYN060AAXX  10141 01033 46/// /3302 10019 21008 30193 40225 52002;
0101010330999992013011015004+70250+019500FM-12+002499999V0202801N004019999999N9999999N1+00201-00171102241ADDMA1999999101921MD1410001+9999REMSYN060AAXX  10151 01033 46/// /2804 10020 21017 30192 40224 54000;
0101010330999992013011016004+70250+019500FM-12+002499999V0202901N004019999999N9999999N1+00201-00221102231ADDMA1999999101911MD1710011+9999REMSYN060AAXX  10161 01033 46/// /2904 10020 21022 30191 40223 57001;
0101010330999992013011017004+70250+019500FM-12+002499999V0202601N005019999999N9999999N1+00191-00201102221ADDMA1999999101901MD1710031+9999REMSYN060AAXX  10171 01033 46/// /2605 10019 21020 30190 40222 57003;
0130010330999992013011018004+70250+019500FM-12+002499999V0202401N004019999999N9999999N1+00161-00111102231ADDKA1120M+00271MA1999999101911MD1710011+9999REMSYN076AAXX  10181 01033 46/// /2404 10016 21011 30191 40223 57001 333 10027 91107;
0101010330999992013011019004+70250+019500FM-12+002499999V0202201N003019999999N9999999N1+00161-00091102221ADDMA1999999101901MD1710021+9999REMSYN060AAXX  10191 01033 46/// /2203 10016 21009 30190 40222 57002;
0101010330999992013011020004+70250+019500FM-12+002499999V0202001N005019999999N9999999N1+00151-00091102191ADDMA1999999101871MD1810041+9999REMSYN060AAXX  10201 01033 46/// /2005 10015 21009 30187 40219 58004;
0101010330999992013011021004+70250+019500FM-12+002499999V0202101N005019999999N9999999N1+00171-00101102181ADDMA1999999101861MD1710051+9999REMSYN060AAXX  10211 01033 46/// /2105 10017 21010 30186 40218 57005;
0101010330999992013011022004+70250+019500FM-12+002499999V0202101N005019999999N9999999N1+00191-00131102151ADDMA1999999101831MD1710071+9999REMSYN060AAXX  10221 01033 46/// /2105 10019 21013 30183 40215 57007;
0101010330999992013011023004+70250+019500FM-12+002499999V0202201N006019999999N9999999N1+00221-00141102151ADDMA1999999101831MD1710041+9999REMSYN060AAXX  10231 01033 46/// /2206 10022 21014 30183 40215 57004;
0111010330999992013011100004+70250+019500FM-12+002499999V0202101N005019999999N9999999N1+00241-00111102091ADDMA1999999101771MD1810091+9999REMSYN070AAXX  11001 01033 46/// /2105 10024 21011 30177 40209 58009 333 91109;
0101010330999992013011101004+70250+019500FM-12+002499999V0202101N007019999999N9999999N1+00271-00061102051ADDMA1999999101731MD1810091+9999REMSYN060AAXX  11011 01033 46/// /2107 10027 21006 30173 40205 58009;
0101010330999992013011102004+70250+019500FM-12+002499999V0202301N007019999999N9999999N1+00291-00091102021ADDMA1999999101701MD1610131+9999REMSYN060AAXX  11021 01033 46/// /2307 10029 21009 30170 40202 56013;
0101010330999992013011103004+70250+019500FM-12+002499999V0202201N006019999999N9999999N1+00291-00041102021ADDMA1999999101701MD1610071+9999REMSYN060AAXX  11031 01033 46/// /2206 10029 21004 30170 40202 56007;
0101010330999992013011104004+70250+019500FM-12+002499999V0202201N007019999999N9999999N1+00241+00041102001ADDMA1999999101681MD1710051+9999REMSYN060AAXX  11041 01033 46/// /2207 10024 20004 30168 40200 57005;
0101010330999992013011105004+70250+019500FM-12+002499999V0202501N009019999999N9999999N1+00271+00001101951ADDMA1999999101631MD1810071+9999REMSYN060AAXX  11051 01033 46/// /2509 10027 21000 30163 40195 58007;
0130010330999992013011106004+70250+019500FM-12+002499999V0202501N010019999999N9999999N1+00261-00021101931ADDKA1999N+00121MA1999999101611MD1710081+9999REMSYN076AAXX  11061 01033 46/// /2510 10026 21002 30161 40193 57008 333 20012 91116;
0101010330999992013011107004+70250+019500FM-12+002499999V0202401N009019999999N9999999N1+00291+00011101911ADDMA1999999101591MD1610091+9999REMSYN060AAXX  11071 01033 46/// /2409 10029 20001 30159 40191 56009;
0101010330999992013011108004+70250+019500FM-12+002499999V0202301N010019999999N9999999N1+00301+00071101901ADDMA1999999101591MD1610041+9999REMSYN060AAXX  11081 01033 46/// /2310 10030 20007 30159 40190 56004;
0101010330999992013011109004+70250+019500FM-12+002499999V0202501N008019999999N9999999N1+00281+00111101891ADDMA1999999101581MD1710041+9999REMSYN060AAXX  11091 01033 46/// /2508 10028 20011 30158 40189 57004;
0101010330999992013011110004+70250+019500FM-12+002499999V0202401N010019999999N9999999N1+00341+00111101871ADDMA1999999101561MD1710041+9999REMSYN060AAXX  11101 01033 46/// /2410 10034 20011 30156 40187 57004;
0101010330999992013011111004+70250+019500FM-12+002499999V0202401N009019999999N9999999N1+00361+00021101841ADDMA1999999101531MD1710061+9999REMSYN060AAXX  11111 01033 46/// /2409 10036 20002 30153 40184 57006;
0111010330999992013011112004+70250+019500FM-12+002499999V0202301N010019999999N9999999N1+00341+00111101821ADDMA1999999101511MD1710071+9999REMSYN070AAXX  11121 01033 46/// /2310 10034 20011 30151 40182 57007 333 91115;
0101010330999992013011113004+70250+019500FM-12+002499999V0202401N009019999999N9999999N1+00361+00181101791ADDMA1999999101481MD1710071+9999REMSYN060AAXX  11131 01033 46/// /2409 10036 20018 30148 40179 57007;
0101010330999992013011114004+70250+019500FM-12+002499999V0202401N009019999999N9999999N1+00381+00171101771ADDMA1999999101461MD1710061+9999REMSYN060AAXX  11141 01033 46/// /2409 10038 20017 30146 40177 57006;
0101010330999992013011115004+70250+019500FM-12+002499999V0202301N007019999999N9999999N1+00391+00171101771ADDMA1999999101461MD1510051+9999REMSYN060AAXX  11151 01033 46/// /2307 10039 20017 30146 40177 55005;
0101010330999992013011116004+70250+019500FM-12+002499999V0202401N008019999999N9999999N1+00421+00181101741ADDMA1999999101431MD1810061+9999REMSYN060AAXX  11161 01033 46/// /2408 10042 20018 30143 40174 58006;
0101010330999992013011117004+70250+019500FM-12+002499999V0202401N009019999999N9999999N1+00401+00211101711ADDMA1999999101401MD1810061+9999REMSYN060AAXX  11171 01033 46/// /2409 10040 20021 30140 40171 58006;
0130010330999992013011118004+70250+019500FM-12+002499999V0202301N009019999999N9999999N1+00421+00241101701ADDKA1120M+00421MA1999999101391MD1510061+9999REMSYN076AAXX  11181 01033 46/// /2309 10042 20024 30139 40170 55006 333 10042 91116;
0101010330999992013011119004+70250+019500FM-12+002499999V0202301N009019999999N9999999N1+00451+00231101711ADDMA1999999101401MD1510021+9999REMSYN060AAXX  11191 01033 46/// /2309 10045 20023 30140 40171 55002;
0101010330999992013011120004+70250+019500FM-12+002499999V0202401N009019999999N9999999N1+00471+00231101711ADDMA1999999101401MD1410001+9999REMSYN060AAXX  11201 01033 46/// /2409 10047 20023 30140 40171 54000;
0101010330999992013011121004+70250+019500FM-12+002499999V0202501N011019999999N9999999N1+00481+00261101711ADDMA1999999101401MD1410001+9999REMSYN060AAXX  11211 01033 46/// /2511 10048 20026 30140 40171 54000;
0101010330999992013011122004+70250+019500FM-12+002499999V0202501N010019999999N9999999N1+00461+00291101711ADDMA1999999101401MD1410001+9999REMSYN060AAXX  11221 01033 46/// /2510 10046 20029 30140 40171 54000;
0101010330999992013011123004+70250+019500FM-12+002499999V0202501N010019999999N9999999N1+00471+00301101711ADDMA1999999101401MD1410001+9999REMSYN060AAXX  11231 01033 46/// /2510 10047 20030 30140 40171 54001;
0111010330999992013011200004+70250+019500FM-12+002499999V0202401N010019999999N9999999N1+00471+00311101681ADDMA1999999101371MD1710031+9999REMSYN070AAXX  12001 01033 46/// /2410 10047 20031 30137 40168 57003 333 91116;
0101010330999992013011201004+70250+019500FM-12+002499999V0202401N010019999999N9999999N1+00461+00321101661ADDMA1999999101351MD1710051+9999REMSYN060AAXX  12011 01033 46/// /2410 10046 20032 30135 40166 57005;
0101010330999992013011202004+70250+019500FM-12+002499999V0202401N009019999999N9999999N1+00491+00371101661ADDMA1999999101351MD1710041+9999REMSYN060AAXX  12021 01033 46/// /2409 10049 20037 30135 40166 57004;
0101010330999992013011203004+70250+019500FM-12+002499999V0202801N009019999999N9999999N1+00471+00331101661ADDMA1999999101351MD1710021+9999REMSYN060AAXX  12031 01033 46/// /2809 10047 20033 30135 40166 57002;
0101010330999992013011204004+70250+019500FM-12+002499999V0202801N008019999999N9999999N1+00461+00201101691ADDMA1999999101381MD1210031+9999REMSYN060AAXX  12041 01033 46/// /2808 10046 20020 30138 40169 52003;
0101010330999992013011205004+70250+019500FM-12+002499999V0202901N008019999999N9999999N1+00431+00151101711ADDMA1999999101401MD1210051+9999REMSYN060AAXX  12051 01033 46/// /2908 10043 20015 30140 40171 52005;
0130010330999992013011206004+70250+019500FM-12+002499999V0202801N007019999999N9999999N1+00391+00121101731ADDKA1999N+00391MA1999999101421MD1210081+9999REMSYN076AAXX  12061 01033 46/// /2807 10039 20012 30142 40173 52008 333 20039 91114;
0101010330999992013011207004+70250+019500FM-12+002499999V0202801N008019999999N9999999N1+00381+00061101761ADDMA1999999101451MD1210081+9999REMSYN060AAXX  12071 01033 46/// /2808 10038 20006 30145 40176 52008;
0101010330999992013011208004+70250+019500FM-12+002499999V0202701N006019999999N9999999N1+00391+00011101801ADDMA1999999101491MD1210091+9999REMSYN060AAXX  12081 01033 46/// /2706 10039 20001 30149 40180 52009;
0101010330999992013011209004+70250+019500FM-12+002499999V0202801N007019999999N9999999N1+00391+00001101831ADDMA1999999101521MD1210101+9999REMSYN060AAXX  12091 01033 46/// /2807 10039 20000 30152 40183 52010;
0101010330999992013011210004+70250+019500FM-12+002499999V0202901N006019999999N9999999N1+00371-00031101851ADDMA1999999101541MD1210081+9999REMSYN060AAXX  12101 01033 46/// /2906 10037 21003 30154 40185 52008;
0101010330999992013011211004+70250+019500FM-12+002499999V0202901N007019999999N9999999N1+00361-00061101881ADDMA1999999101571MD1210081+9999REMSYN060AAXX  12111 01033 46/// /2907 10036 21006 30157 40188 52008;
0111010330999992013011212004+70250+019500FM-12+002499999V0202901N006019999999N9999999N1+00351-00061101881ADDMA1999999101571MD1210051+9999REMSYN070AAXX  12121 01033 46/// /2906 10035 21006 30157 40188 52005 333 91112;
0101010330999992013011213004+70250+019500FM-12+002499999V0203001N006019999999N9999999N1+00321-00101101891ADDMA1999999101581MD1210051+9999REMSYN060AAXX  12131 01033 46/// /3006 10032 21010 30158 40189 52005;
0101010330999992013011214004+70250+019500FM-12+002499999V0203001N005019999999N9999999N1+00311-00201101891ADDMA1999999101581MD1210021+9999REMSYN060AAXX  12141 01033 46/// /3005 10031 21020 30158 40189 52002;
0101010330999992013011215004+70250+019500FM-12+002499999V0202801N005019999999N9999999N1+00321-00181101911ADDMA1999999101601MD1210031+9999REMSYN060AAXX  12151 01033 46/// /2805 10032 21018 30160 40191 52003;
0101010330999992013011216004+70250+019500FM-12+002499999V0202601N004019999999N9999999N1+00321-00161101921ADDMA1999999101611MD1210031+9999REMSYN060AAXX  12161 01033 46/// /2604 10032 21016 30161 40192 52003;
0101010330999992013011217004+70250+019500FM-12+002499999V0202701N005019999999N9999999N1+00331-00171101911ADDMA1999999101601MD1210021+9999REMSYN060AAXX  12171 01033 46/// /2705 10033 21017 30160 40191 52002;
0130010330999992013011218004+70250+019500FM-12+002499999V0202901N005019999999N9999999N1+00341-00161101921ADDKA1120M+00401MA1999999101611MD1410001+9999REMSYN076AAXX  12181 01033 46/// /2905 10034 21016 30161 40192 54001 333 10040 91109;
0101010330999992013011219004+70250+019500FM-12+002499999V0202901N004019999999N9999999N1+00331-00191101911ADDMA1999999101601MD1410001+9999REMSYN060AAXX  12191 01033 46/// /2904 10033 21019 30160 40191 54001;
0101010330999992013011220004+70250+019500FM-12+002499999V0202901N005019999999N9999999N1+00321-00251101911ADDMA1999999101601MD1410001+9999REMSYN060AAXX  12201 01033 46/// /2905 10032 21025 30160 40191 54000;
0101010330999992013011221004+70250+019500FM-12+002499999V0202701N005019999999N9999999N1+00341-00221101921ADDMA1999999101611MD1410001+9999REMSYN060AAXX  12211 01033 46/// /2705 10034 21022 30161 40192 54000;
0101010330999992013011222004+70250+019500FM-12+002499999V0202901N004019999999N9999999N1+00331-00211101901ADDMA1999999101591MD1710011+9999REMSYN060AAXX  12221 01033 46/// /2904 10033 21021 30159 40190 57001;
0101010330999992013011223004+70250+019500FM-12+002499999V0203001N004019999999N9999999N1+00321-00251101881ADDMA1999999101571MD1810031+9999REMSYN060AAXX  12231 01033 46/// /3004 10032 21025 30157 40188 58003;
0111010330999992013011300004+70250+019500FM-12+002499999V0202801N003019999999N9999999N1+00311-00201101871ADDMA1999999101561MD1710051+9999REMSYN070AAXX  13001 01033 46/// /2803 10031 21020 30156 40187 57005 333 91108;
0101010330999992013011301004+70250+019500FM-12+002499999V0203001N004019999999N9999999N1+00311-00201101841ADDMA1999999101531MD1710061+9999REMSYN060AAXX  13011 01033 46/// /3004 10031 21020 30153 40184 57006;
0101010330999992013011302004+70250+019500FM-12+002499999V0202901N002019999999N9999999N1+00261-00171101841ADDMA1999999101521MD1710051+9999REMSYN060AAXX  13021 01033 46/// /2902 10026 21017 30152 40184 57005;
0101010330999992013011303004+70250+019500FM-12+002499999V0203001N004019999999N9999999N1+00311-00191101811ADDMA1999999101501MD1710051+9999REMSYN060AAXX  13031 01033 46/// /3004 10031 21019 30150 40181 57005;
0101010330999992013011304004+70250+019500FM-12+002499999V0203301N004019999999N9999999N1+00291-00271101771ADDMA1999999101461MD1710071+9999REMSYN060AAXX  13041 01033 46/// /3304 10029 21027 30146 40177 57007;
0101010330999992013011305004+70250+019500FM-12+002499999V0203101N002019999999N9999999N1+00281-00301101751ADDMA1999999101441MD1710071+9999REMSYN060AAXX  13051 01033 46/// /3102 10028 21030 30144 40175 57007;
0130010330999992013011306004+70250+019500FM-12+002499999V0203201N003019999999N9999999N1+00271-00331101731ADDKA1999N+00261MA1999999101421MD1710091+9999REMSYN076AAXX  13061 01033 46/// /3203 10027 21033 30142 40173 57009 333 20026 91107;
0101010330999992013011307004+70250+019500FM-12+002499999V0203001N003019999999N9999999N1+00271-00291101721ADDMA1999999101411MD1710051+9999REMSYN060AAXX  13071 01033 46/// /3003 10027 21029 30141 40172 57005;
0101010330999992013011308004+70250+019500FM-12+002499999V0203001N003019999999N9999999N1+00271-00301101751ADDMA1999999101441MD1510011+9999REMSYN060AAXX  13081 01033 46/// /3003 10027 21030 30144 40175 55001;
0101010330999992013011309004+70250+019500FM-12+002499999V0203401N001019999999N9999999N1+00251-00241101731ADDMA1999999101421MD1410001+9999REMSYN060AAXX  13091 01033 46/// /3401 10025 21024 30142 40173 54001;
0101010330999992013011310004+70250+019500FM-12+002499999V0209999C000019999999N9999999N1+00241-00241101701ADDMA1999999101391MD1810021+9999REMSYN060AAXX  13101 01033 46/// /0000 10024 21024 30139 40170 58002;
0101010330999992013011311004+70250+019500FM-12+002499999V0202101N003019999999N9999999N1+00261-00111101681ADDMA1999999101371MD1710061+9999REMSYN060AAXX  13111 01033 46/// /2103 10026 21011 30137 40168 57006;
0111010330999992013011312004+70250+019500FM-12+002499999V0200201N003019999999N9999999N1+00231-00091101661ADDMA1999999101351MD1710071+9999REMSYN070AAXX  13121 01033 46/// /0203 10023 21009 30135 40166 57007 333 91105;
0101010330999992013011313004+70250+019500FM-12+002499999V0201401N002019999999N9999999N1+00251-00031101631ADDMA1999999101321MD1710071+9999REMSYN060AAXX  13131 01033 46/// /1402 10025 21003 30132 40163 57007;
0101010330999992013011314004+70250+019500FM-12+002499999V0202101N002019999999N9999999N1+00251-00011101591ADDMA1999999101281MD1710091+9999REMSYN060AAXX  13141 01033 46/// /2102 10025 21001 30128 40159 57009;
0101010330999992013011315004+70250+019500FM-12+002499999V0201501N002019999999N9999999N1+00251+00031101571ADDMA1999999101261MD1710091+9999REMSYN060AAXX  13151 01033 46/// /1502 10025 20003 30126 40157 57009;
0101010330999992013011316004+70250+019500FM-12+002499999V0202001N003019999999N9999999N1+00231+00031101521ADDMA1999999101211MD1810101+9999REMSYN060AAXX  13161 01033 46/// /2003 10023 20003 30121 40152 58010;
0101010330999992013011317004+70250+019500FM-12+002499999V0201701N004019999999N9999999N1+00201+00011101481ADDMA1999999101171MD1810111+9999REMSYN060AAXX  13171 01033 46/// /1704 10020 20001 30117 40148 58011;
0130010330999992013011318004+70250+019500FM-12+002499999V0201801N003019999999N9999999N1+00171+00011101461ADDKA1120M+00281MA1999999101151MD1710111+9999REMSYN076AAXX  13181 01033 46/// /1803 10017 20001 30115 40146 57011 333 10028 91106;
0101010330999992013011319004+70250+019500FM-12+002499999V0201801N001019999999N9999999N1+00111-00031101441ADDMA1999999101121MD1710101+9999REMSYN060AAXX  13191 01033 46/// /1801 10011 21003 30112 40144 57010;
0101010330999992013011320004+70250+019500FM-12+002499999V0201801N002019999999N9999999N1+00081-00031101411ADDMA1999999101091MD1710081+9999REMSYN060AAXX  13201 01033 46/// /1802 10008 21003 30109 40141 57008;
0101010330999992013011321004+70250+019500FM-12+002499999V02099999999999999999N9999999N1+00061-00041101401ADDMA1999999101081MD1710071+9999REMSYN060AAXX  13211 01033 46/// ///// 10006 21004 30108 40140 57007;
0101010330999992013011322004+70250+019500FM-12+002499999V0201401N004019999999N9999999N1+00141+00041101371ADDMA1999999101051MD1710061+9999REMSYN060AAXX  13221 01033 46/// /1404 10014 20004 30105 40137 57006;
0101010330999992013011323004+70250+019500FM-12+002499999V0201601N002019999999N9999999N1+00151+00031101331ADDMA1999999101021MD1810071+9999REMSYN060AAXX  13231 01033 46/// /1602 10015 20003 30102 40133 58007;
0111010330999992013011400004+70250+019500FM-12+002499999V0202301N004019999999N9999999N1+00111-00021101321ADDMA1999999101001MD1710081+9999REMSYN070AAXX  14001 01033 46/// /2304 10011 21002 30100 40132 57008 333 91110;
0101010330999992013011401004+70250+019500FM-12+002499999V0201701N003019999999N9999999N1+00071-00031101291ADDMA1999999100971MD1710081+9999REMSYN060AAXX  14011 01033 46/// /1703 10007 21003 30097 40129 57008;
0101010330999992013011402004+70250+019500FM-12+002499999V0201801N006019999999N9999999N1+00161+00051101211ADDMA1999999100901MD1810121+9999REMSYN060AAXX  14021 01033 46/// /1806 10016 20005 30090 40121 58012;
0101010330999992013011403004+70250+019500FM-12+002499999V0202101N007019999999N9999999N1+00161+00051101191ADDMA1999999100881MD1710121+9999REMSYN060AAXX  14031 01033 46/// /2107 10016 20005 30088 40119 57012;
0101010330999992013011404004+70250+019500FM-12+002499999V0202001N006019999999N9999999N1+00151+00041101151ADDMA1999999100841MD1610131+9999REMSYN060AAXX  14041 01033 46/// /2006 10015 20004 30084 40115 56013;
0101010330999992013011405004+70250+019500FM-12+002499999V0202201N006019999999N9999999N1+00151+00041101141ADDMA1999999100831MD1710071+9999REMSYN060AAXX  14051 01033 46/// /2206 10015 20004 30083 40114 57007;
0130010330999992013011406004+70250+019500FM-12+002499999V0200301N002019999999N9999999N1+00151+00031101131ADDKA1999N+00061MA1999999100821MD1510061+9999REMSYN076AAXX  14061 01033 46/// /0302 10015 20003 30082 40113 55006 333 20006 91114;
0101010330999992013011407004+70250+019500FM-12+002499999V0200601N003019999999N9999999N1+00171+00031101151ADDMA1999999100841MD1510001+9999REMSYN060AAXX  14071 01033 46/// /0603 10017 20003 30084 40115 55000;
0101010330999992013011408004+70250+019500FM-12+002499999V0200901N005019999999N9999999N1+00151-00081101241ADDMA1999999100931MD1310101+9999REMSYN060AAXX  14081 01033 46/// /0905 10015 21008 30093 40124 53010;
0101010330999992013011409004+70250+019500FM-12+002499999V0200701N007019999999N9999999N1+00091-00171101301ADDMA1999999100981MD1310151+9999REMSYN060AAXX  14091 01033 46/// /0707 10009 21017 30098 40130 53015;
0101010330999992013011410004+70250+019500FM-12+002499999V0200701N008019999999N9999999N1+00091-00221101351ADDMA1999999101031MD1210181+9999REMSYN060AAXX  14101 01033 46/// /0708 10009 21022 30103 40135 52018;
0101010330999992013011411004+70250+019500FM-12+002499999V0200901N006019999999N9999999N1+00091-00281101391ADDMA1999999101071MD1210141+9999REMSYN060AAXX  14111 01033 46/// /0906 10009 21028 30107 40139 52014;
0111010330999992013011412004+70250+019500FM-12+002499999V0200701N005019999999N9999999N1+00061-00361101441ADDMA1999999101121MD1210151+9999REMSYN070AAXX  14121 01033 46/// /0705 10006 21036 30112 40144 52015 333 91112;
0101010330999992013011413004+70250+019500FM-12+002499999V0201001N006019999999N9999999N1+00041-00471101501ADDMA1999999101181MD1210151+9999REMSYN060AAXX  14131 01033 46/// /1006 10004 21047 30118 40150 52015;
0101010330999992013011414004+70250+019500FM-12+002499999V0201101N003019999999N9999999N1+00041-00551101541ADDMA1999999101221MD1210151+9999REMSYN060AAXX  14141 01033 46/// /1103 10004 21055 30122 40154 52015;
0101010330999992013011415004+70250+019500FM-12+002499999V0201301N002019999999N9999999N1+00061-00561101571ADDMA1999999101251MD1210131+9999REMSYN060AAXX  14151 01033 46/// /1302 10006 21056 30125 40157 52013;
0101010330999992013011416004+70250+019500FM-12+002499999V0200601N004019999999N9999999N1+00041-00601101621ADDMA1999999101301MD1210131+9999REMSYN060AAXX  14161 01033 46/// /0604 10004 21060 30130 40162 52013;
0101010330999992013011417004+70250+019500FM-12+002499999V0200701N003019999999N9999999N1-00011-00621101661ADDMA1999999101341MD1210131+9999REMSYN060AAXX  14171 01033 46/// /0703 11001 21062 30134 40166 52013;
0130010330999992013011418004+70250+019500FM-12+002499999V0200701N004019999999N9999999N1+00001-00551101691ADDKA1120M+00191MA1999999101371MD1210121+9999REMSYN076AAXX  14181 01033 46/// /0704 10000 21055 30137 40169 52012 333 10019 91111;
0101010330999992013011419004+70250+019500FM-12+002499999V0200401N005019999999N9999999N1-00041-00591101721ADDMA1999999101401MD1210101+9999REMSYN060AAXX  14191 01033 46/// /0405 11004 21059 30140 40172 52010;
0101010330999992013011420004+70250+019500FM-12+002499999V0200501N005019999999N9999999N1-00091-00631101731ADDMA1999999101411MD1210071+9999REMSYN060AAXX  14201 01033 46/// /0505 11009 21063 30141 40173 52007;
0101010330999992013011421004+70250+019500FM-12+002499999V0200801N003019999999N9999999N1-00071-00741101751ADDMA1999999101431MD1210061+9999REMSYN060AAXX  14211 01033 46/// /0803 11007 21074 30143 40175 52006;
0101010330999992013011422004+70250+019500FM-12+002499999V0201201N002019999999N9999999N1-00071-00801101761ADDMA1999999101441MD1210041+9999REMSYN060AAXX  14221 01033 46/// /1202 11007 21080 30144 40176 52004;
0101010330999992013011423004+70250+019500FM-12+002499999V0201001N002019999999N9999999N1-00101-00651101781ADDMA1999999101461MD1210051+9999REMSYN060AAXX  14231 01033 46/// /1002 11010 21065 30146 40178 52005;
0111010330999992013011500004+70250+019500FM-12+002499999V0200501N004019999999N9999999N1-00051-00491101801ADDMA1999999101481MD1210051+9999REMSYN070AAXX  15001 01033 46/// /0504 11005 21049 30148 40180 52005 333 91108;
0101010330999992013011501004+70250+019500FM-12+002499999V0200801N003019999999N9999999N1-00041-00521101831ADDMA1999999101511MD1210061+9999REMSYN060AAXX  15011 01033 46/// /0803 11004 21052 30151 40183 52006;
0101010330999992013011502004+70250+019500FM-12+002499999V0200901N002019999999N9999999N1-00041-00511101831ADDMA1999999101511MD1210041+9999REMSYN060AAXX  15021 01033 46/// /0902 11004 21051 30151 40183 52004;
0101010330999992013011503004+70250+019500FM-12+002499999V0201101N004019999999N9999999N1-00071-00521101801ADDMA1999999101481MD1010001+9999REMSYN060AAXX  15031 01033 46/// /1104 11007 21052 30148 40180 50000;
0101010330999992013011504004+70250+019500FM-12+002499999V0200501N005019999999N9999999N1-00041-00421101801ADDMA1999999101481MD1710021+9999REMSYN060AAXX  15041 01033 46/// /0505 11004 21042 30148 40180 57002;
0101010330999992013011505004+70250+019500FM-12+002499999V0201001N005019999999N9999999N1-00051-00421101781ADDMA1999999101461MD1810051+9999REMSYN060AAXX  15051 01033 46/// /1005 11005 21042 30146 40178 58005;
0130010330999992013011506004+70250+019500FM-12+002499999V0201101N004019999999N9999999N1-00021-00431101791ADDKA1999N-00131MA1999999101471MD1710021+9999REMSYN076AAXX  15061 01033 46/// /1104 11002 21043 30147 40179 57002 333 21013 91108;
0101010330999992013011507004+70250+019500FM-12+002499999V0201201N005019999999N9999999N1-00031-00481101781ADDMA1999999101461MD1710021+9999REMSYN060AAXX  15071 01033 46/// /1205 11003 21048 30146 40178 57002;
0101010330999992013011508004+70250+019500FM-12+002499999V0201001N005019999999N9999999N1-00031-00491101801ADDMA1999999101481MD1210021+9999REMSYN060AAXX  15081 01033 46/// /1005 11003 21049 30148 40180 52002;
0101010330999992013011509004+70250+019500FM-12+002499999V0201101N005019999999N9999999N1-00091-00591101811ADDMA1999999101491MD1210021+9999REMSYN060AAXX  15091 01033 46/// /1105 11009 21059 30149 40181 52002;
0101010330999992013011510004+70250+019500FM-12+002499999V0201001N006019999999N9999999N1-00101-00571101821ADDMA1999999101501MD1210041+9999REMSYN060AAXX  15101 01033 46/// /1006 11010 21057 30150 40182 52004;
0101010330999992013011511004+70250+019500FM-12+002499999V0201201N005019999999N9999999N1-00101-00681101821ADDMA1999999101501MD1210021+9999REMSYN060AAXX  15111 01033 46/// /1205 11010 21068 30150 40182 52002;
0111010330999992013011512004+70250+019500FM-12+002499999V0201201N004019999999N9999999N1-00111-00701101821ADDMA1999999101501MD1010011+9999REMSYN070AAXX  15121 01033 46/// /1204 11011 21070 30150 40182 50001 333 91107;
0101010330999992013011513004+70250+019500FM-12+002499999V0201401N002019999999N9999999N1-00121-00661101821ADDMA1999999101501MD1410001+9999REMSYN060AAXX  15131 01033 46/// /1402 11012 21066 30150 40182 54000;
0101010330999992013011514004+70250+019500FM-12+002499999V0202101N005019999999N9999999N1-00151-00741101811ADDMA1999999101491MD1710021+9999REMSYN060AAXX  15141 01033 46/// /2105 11015 21074 30149 40181 57002;
0101010330999992013011515004+70250+019500FM-12+002499999V0201401N003019999999N9999999N1-00141-00661101821ADDMA1999999101501MD1410001+9999REMSYN060AAXX  15151 01033 46/// /1403 11014 21066 30150 40182 54000;
0101010330999992013011516004+70250+019500FM-12+002499999V0201701N003019999999N9999999N1-00171-00731101821ADDMA1999999101501MD1410001+9999REMSYN060AAXX  15161 01033 46/// /1703 11017 21073 30150 40182 54000;
0101010330999992013011517004+70250+019500FM-12+002499999V0201501N004019999999N9999999N1-00161-00551101811ADDMA1999999101491MD1410001+9999REMSYN060AAXX  15171 01033 46/// /1504 11016 21055 30149 40181 54001;
0130010330999992013011518004+70250+019500FM-12+002499999V0201401N003019999999N9999999N1-00171-00531101821ADDKA1120M-00011MA1999999101501MD1410001+9999REMSYN076AAXX  15181 01033 46/// /1403 11017 21053 30150 40182 54000 333 11001 91107;
0101010330999992013011519004+70250+019500FM-12+002499999V0201501N006019999999N9999999N1-00181-00501101801ADDMA1999999101481MD1710021+9999REMSYN060AAXX  15191 01033 46/// /1506 11018 21050 30148 40180 57002;
0101010330999992013011520004+70250+019500FM-12+002499999V0201501N007019999999N9999999N1-00191-00501101781ADDMA1999999101461MD1810041+9999REMSYN060AAXX  15201 01033 46/// /1507 11019 21050 30146 40178 58004;
0101010330999992013011521004+70250+019500FM-12+002499999V0201501N007019999999N9999999N1-00181-00471101771ADDMA1999999101451MD1610051+9999REMSYN060AAXX  15211 01033 46/// /1507 11018 21047 30145 40177 56005;
0101010330999992013011522004+70250+019500FM-12+002499999V0201601N006019999999N9999999N1-00151-00451101741ADDMA1999999101421MD1710051+9999REMSYN060AAXX  15221 01033 46/// /1606 11015 21045 30142 40174 57005;
0101010330999992013011523004+70250+019500FM-12+002499999V0201501N005019999999N9999999N1-00151-00461101751ADDMA1999999101431MD1710031+9999REMSYN060AAXX  15231 01033 46/// /1505 11015 21046 30143 40175 57003;
0111010330999992013011600004+70250+019500FM-12+002499999V0201801N004019999999N9999999N1-00101-00391101741ADDMA1999999101421MD1510021+9999REMSYN070AAXX  16001 01033 46/// /1804 11010 21039 30142 40174 55002 333 91110;
0101010330999992013011601004+70250+019500FM-12+002499999V0201801N003019999999N9999999N1-00031-00301101721ADDMA1999999101401MD1710011+9999REMSYN060AAXX  16011 01033 46/// /1803 11003 21030 30140 40172 57001;
0101010330999992013011602004+70250+019500FM-12+002499999V0201601N005019999999N9999999N1+00021-00231101701ADDMA1999999101381MD1710051+9999REMSYN060AAXX  16021 01033 46/// /1605 10002 21023 30138 40170 57005;
0101010330999992013011603004+70250+019500FM-12+002499999V0201401N006019999999N9999999N1+00101-00131101661ADDMA1999999101341MD1710081+9999REMSYN060AAXX  16031 01033 46/// /1406 10010 21013 30134 40166 57008;
0101010330999992013011604004+70250+019500FM-12+002499999V0201601N008019999999N9999999N1+00101-00131101641ADDMA1999999101321MD1710081+9999REMSYN060AAXX  16041 01033 46/// /1608 10010 21013 30132 40164 57008;
0101010330999992013011605004+70250+019500FM-12+002499999V0201601N007019999999N9999999N1+00161-00091101601ADDMA1999999101281MD1710101+9999REMSYN060AAXX  16051 01033 46/// /1607 10016 21009 30128 40160 57010;
0130010330999992013011606004+70250+019500FM-12+002499999V0201801N005019999999N9999999N1+00181-00061101611ADDKA1999N-00191MA1999999101291MD1510051+9999REMSYN076AAXX  16061 01033 46/// /1805 10018 21006 30129 40161 55005 333 21019 91112;
0101010330999992013011607004+70250+019500FM-12+002499999V0202001N008019999999N9999999N1+00241-00041101591ADDMA1999999101281MD1510041+9999REMSYN060AAXX  16071 01033 46/// /2008 10024 21004 30128 40159 55004;
0101010330999992013011608004+70250+019500FM-12+002499999V0202001N008019999999N9999999N1+00251-00041101601ADDMA1999999101291MD1410001+9999REMSYN060AAXX  16081 01033 46/// /2008 10025 21004 30129 40160 54001;
0101010330999992013011609004+70250+019500FM-12+002499999V0202101N007019999999N9999999N1+00271-00041101641ADDMA1999999101331MD1310041+9999REMSYN060AAXX  16091 01033 46/// /2107 10027 21004 30133 40164 53004;
0101010330999992013011610004+70250+019500FM-12+002499999V0202101N008019999999N9999999N1+00271-00051101631ADDMA1999999101321MD1210051+9999REMSYN060AAXX  16101 01033 46/// /2108 10027 21005 30132 40163 52005;
0101010330999992013011611004+70250+019500FM-12+002499999V0202101N007019999999N9999999N1+00271-00061101651ADDMA1999999101341MD1210061+9999REMSYN060AAXX  16111 01033 46/// /2107 10027 21006 30134 40165 52006;
0111010330999992013011612004+70250+019500FM-12+002499999V0202001N009019999999N9999999N1+00261-00061101661ADDMA1999999101351MD1210021+9999REMSYN070AAXX  16121 01033 46/// /2009 10026 21006 30135 40166 52002 333 91112;
0101010330999992013011613004+70250+019500FM-12+002499999V0202101N007019999999N9999999N1+00261-00051101691ADDMA1999999101381MD1210061+9999REMSYN060AAXX  16131 01033 46/// /2107 10026 21005 30138 40169 52006;
0101010330999992013011614004+70250+019500FM-12+002499999V0202101N007019999999N9999999N1+00261-00061101711ADDMA1999999101401MD1210061+9999REMSYN060AAXX  16141 01033 46/// /2107 10026 21006 30140 40171 52006;
0101010330999992013011615004+70250+019500FM-12+002499999V0202001N007019999999N9999999N1+00261-00071101701ADDMA1999999101391MD1010041+9999REMSYN060AAXX  16151 01033 46/// /2007 10026 21007 30139 40170 50004;
0101010330999992013011616004+70250+019500FM-12+002499999V0202001N010019999999N9999999N1+00231-00051101691ADDMA1999999101381MD1410001+9999REMSYN060AAXX  16161 01033 46/// /2010 10023 21005 30138 40169 54001;
0101010330999992013011617004+70250+019500FM-12+002499999V0202201N008019999999N9999999N1+00261-00071101691ADDMA1999999101381MD1710011+9999REMSYN060AAXX  16171 01033 46/// /2208 10026 21007 30138 40169 57001;
0130010330999992013011618004+70250+019500FM-12+002499999V0202101N009019999999N9999999N1+00251-00101101691ADDKA1120M+00281MA1999999101381MD1410001+9999REMSYN076AAXX  16181 01033 46/// /2109 10025 21010 30138 40169 54000 333 10028 91113;
0101010330999992013011619004+70250+019500FM-12+002499999V0202101N009019999999N9999999N1+00251-00111101691ADDMA1999999101381MD1410001+9999REMSYN060AAXX  16191 01033 46/// /2109 10025 21011 30138 40169 54001;
0101010330999992013011620004+70250+019500FM-12+002499999V0202101N010019999999N9999999N1+00261-00101101701ADDMA1999999101391MD1410001+9999REMSYN060AAXX  16201 01033 46/// /2110 10026 21010 30139 40170 54001;
0101010330999992013011621004+70250+019500FM-12+002499999V0202101N008019999999N9999999N1+00241-00111101701ADDMA1999999101391MD1410001+9999REMSYN060AAXX  16211 01033 46/// /2108 10024 21011 30139 40170 54001;
0101010330999992013011622004+70250+019500FM-12+002499999V0202101N008019999999N9999999N1+00251-00121101681ADDMA1999999101371MD1810021+9999REMSYN060AAXX  16221 01033 46/// /2108 10025 21012 30137 40168 58002;
0101010330999992013011623004+70250+019500FM-12+002499999V0202101N009019999999N9999999N1+00221-00141101651ADDMA1999999101341MD1710051+9999REMSYN060AAXX  16231 01033 46/// /2109 10022 21014 30134 40165 57005;
0111010330999992013011700004+70250+019500FM-12+002499999V0202101N010019999999N9999999N1+00221-00191101671ADDMA1999999101361MD1510031+9999REMSYN070AAXX  17001 01033 46/// /2110 10022 21019 30136 40167 55003 333 91114;
0101010330999992013011701004+70250+019500FM-12+002499999V0202001N009019999999N9999999N1+00211-00211101681ADDMA1999999101361MD1510011+9999REMSYN060AAXX  17011 01033 46/// /2009 10021 21021 30136 40168 55001;
0101010330999992013011702004+70250+019500FM-12+002499999V0201901N008019999999N9999999N1+00201-00261101661ADDMA1999999101341MD1010001+9999REMSYN060AAXX  17021 01033 46/// /1908 10020 21026 30134 40166 50000;
0101010330999992013011703004+70250+019500FM-12+002499999V0201801N007019999999N9999999N1+00201-00271101621ADDMA1999999101301MD1810061+9999REMSYN060AAXX  17031 01033 46/// /1807 10020 21027 30130 40162 58006;
0101010330999992013011704004+70250+019500FM-12+002499999V0201901N009019999999N9999999N1+00211-00221101581ADDMA1999999101271MD1810081+9999REMSYN060AAXX  17041 01033 46/// /1909 10021 21022 30127 40158 58008;
0101010330999992013011705004+70250+019500FM-12+002499999V0202001N011019999999N9999999N1+00211-00221101531ADDMA1999999101221MD1810111+9999REMSYN060AAXX  17051 01033 46/// /2011 10021 21022 30122 40153 58011;
0130010330999992013011706004+70250+019500FM-12+002499999V0202001N009019999999N9999999N1+00191-00281101491ADDKA1999N+00191MA1999999101181MD1810121+9999REMSYN076AAXX  17061 01033 46/// /2009 10019 21028 30118 40149 58012 333 20019 91116;
0101010330999992013011707004+70250+019500FM-12+002499999V0202001N010019999999N9999999N1+00181-00291101471ADDMA1999999101161MD1710111+9999REMSYN060AAXX  17071 01033 46/// /2010 10018 21029 30116 40147 57011;
0101010330999992013011708004+70250+019500FM-12+002499999V0202001N010019999999N9999999N1+00181-00311101451ADDMA1999999101141MD1610081+9999REMSYN060AAXX  17081 01033 46/// /2010 10018 21031 30114 40145 56008;
0101010330999992013011709004+70250+019500FM-12+002499999V0202001N011019999999N9999999N1+00181-00271101431ADDMA1999999101121MD1710061+9999REMSYN060AAXX  17091 01033 46/// /2011 10018 21027 30112 40143 57006;
0101010330999992013011710004+70250+019500FM-12+002499999V0202101N012019999999N9999999N1+00181-00241101411ADDMA1999999101101MD1710061+9999REMSYN060AAXX  17101 01033 46/// /2112 10018 21024 30110 40141 57006;
0101010330999992013011711004+70250+019500FM-12+002499999V0202201N014019999999N9999999N1+00191-00261101381ADDMA1999999101071MD1710081+9999REMSYN060AAXX  17111 01033 46/// /2214 10019 21026 30107 40138 57008;
0111010330999992013011712004+70250+019500FM-12+002499999V0202101N014019999999N9999999N1+00171-00281101331ADDMA1999999101021MD1710101+9999REMSYN070AAXX  17121 01033 46/// /2114 10017 21028 30102 40133 57010 333 91120;
0101010330999992013011713004+70250+019500FM-12+002499999V0202001N012019999999N9999999N1+00171-00331101281ADDMA1999999100971MD1710131+9999REMSYN060AAXX  17131 01033 46/// /2012 10017 21033 30097 40128 57013;
0101010330999992013011714004+70250+019500FM-12+002499999V0202001N011019999999N9999999N1+00171-00341101231ADDMA1999999100921MD1710141+9999REMSYN060AAXX  17141 01033 46/// /2011 10017 21034 30092 40123 57014;
0101010330999992013011715004+70250+019500FM-12+002499999V0202001N011019999999N9999999N1+00181-00311101181ADDMA1999999100871MD1710141+9999REMSYN060AAXX  17151 01033 46/// /2011 10018 21031 30087 40118 57014;
0101010330999992013011716004+70250+019500FM-12+002499999V0201901N010019999999N9999999N1+00181-00311101111ADDMA1999999100801MD1810171+9999REMSYN060AAXX  17161 01033 46/// /1910 10018 21031 30080 40111 58017;
0101010330999992013011717004+70250+019500FM-12+002499999V0201701N008019999999N9999999N1+00181-00321101011ADDMA1999999100701MD1810211+9999REMSYN060AAXX  17171 01033 46/// /1708 10018 21032 30070 40101 58021;
0130010330999992013011718004+70250+019500FM-12+002499999V0201901N011019999999N9999999N1+00191-00301100931ADDKA1120M+00211MA1999999100621MD1810251+9999REMSYN076AAXX  17181 01033 46/// /1911 10019 21030 30062 40093 58025 333 10021 91119;
0101010330999992013011719004+70250+019500FM-12+002499999V0201901N011019999999N9999999N1+00241-00281100831ADDMA1999999100521MD1810281+9999REMSYN060AAXX  17191 01033 46/// /1911 10024 21028 30052 40083 58028;
0101010330999992013011720004+70250+019500FM-12+002499999V0201901N013019999999N9999999N1+00191-00151100751ADDMA1999999100441MD1810261+9999REMSYN060AAXX  17201 01033 46/// /1913 10019 21015 30044 40075 58026;
0101010330999992013011721004+70250+019500FM-12+002499999V02099999999999999999N9999999N1+00131-00101100661ADDMA1999999100351MD1810281+9999REMSYN060AAXX  17211 01033 46/// ///// 10013 21010 30035 40066 58028;
0101010330999992013011722004+70250+019500FM-12+002499999V0201901N011019999999N9999999N1+00191-00151100531ADDMA1999999100221MD1810311+9999REMSYN060AAXX  17221 01033 46/// /1911 10019 21015 30022 40053 58031;
0101010330999992013011723004+70250+019500FM-12+002499999V0201701N011019999999N9999999N1+00161-00111100391ADDMA1999999100081MD1810361+9999REMSYN060AAXX  17231 01033 46/// /1711 10016 21011 30008 40039 58036;
0111010330999992013011800004+70250+019500FM-12+002499999V0201901N012019999999N9999999N1+00291-00011100321ADDMA1999999100011MD1710331+9999REMSYN070AAXX  18001 01033 46/// /1912 10029 21001 30001 40032 57033 333 91118;
0101010330999992013011801004+70250+019500FM-12+002499999V0202101N016019999999N9999999N1+00321+00061100211ADDMA1999999099901MD1710301+9999REMSYN060AAXX  18011 01033 46/// /2116 10032 20006 39990 40021 57030;
0101010330999992013011802004+70250+019500FM-12+002499999V0202101N013019999999N9999999N1+00281+00101100191ADDMA1999999099881MD1610211+9999REMSYN060AAXX  18021 01033 46/// /2113 10028 20010 39988 40019 56021;
0101010330999992013011803004+70250+019500FM-12+002499999V0202301N011019999999N9999999N1+00351+00161100171ADDMA1999999099861MD1610151+9999REMSYN060AAXX  18031 01033 46/// /2311 10035 20016 39986 40017 56015;
0101010330999992013011804004+70250+019500FM-12+002499999V0202601N017019999999N9999999N1+00401+00141100171ADDMA1999999099861MD1510061+9999REMSYN060AAXX  18041 01033 46/// /2617 10040 20014 39986 40017 55006;
0101010330999992013011805004+70250+019500FM-12+002499999V0202601N016019999999N9999999N1+00461+00231100121ADDMA1999999099811MD1510051+9999REMSYN060AAXX  18051 01033 46/// /2616 10046 20023 39981 40012 55005;
0130010330999992013011806004+70250+019500FM-12+002499999V0202701N013019999999N9999999N1+00471+00221100211ADDKA1999N+00121MA1999999099901MD1310041+9999REMSYN076AAXX  18061 01033 46/// /2713 10047 20022 39990 40021 53004 333 20012 91123;
0101010330999992013011807004+70250+019500FM-12+002499999V0202701N011019999999N9999999N1+00451+00221100251ADDMA1999999099941MD1310081+9999REMSYN060AAXX  18071 01033 46/// /2711 10045 20022 39994 40025 53008;
0101010330999992013011808004+70250+019500FM-12+002499999V0202601N013019999999N9999999N1+00401+00201100311ADDMA1999999100001MD1310181+9999REMSYN060AAXX  18081 01033 46/// /2613 10040 20020 30000 40031 53018;
0101010330999992013011809004+70250+019500FM-12+002499999V0202801N011019999999N9999999N1+00401+00181100351ADDMA1999999100041MD1310151+9999REMSYN060AAXX  18091 01033 46/// /2811 10040 20018 30004 40035 53015;
0101010330999992013011810004+70250+019500FM-12+002499999V0202701N008019999999N9999999N1+00421+00181100361ADDMA1999999100051MD1110121+9999REMSYN060AAXX  18101 01033 46/// /2708 10042 20018 30005 40036 51012;
0101010330999992013011811004+70250+019500FM-12+002499999V0202601N009019999999N9999999N1+00371+00141100391ADDMA1999999100081MD1210081+9999REMSYN060AAXX  18111 01033 46/// /2609 10037 20014 30008 40039 52008;
0111010330999992013011812004+70250+019500FM-12+002499999V0202701N009019999999N9999999N1+00371+00131100371ADDMA1999999100061MD1010021+9999REMSYN070AAXX  18121 01033 46/// /2709 10037 20013 30006 40037 50002 333 91118;
0101010330999992013011813004+70250+019500FM-12+002499999V0202601N006019999999N9999999N1+00371+00141100351ADDMA1999999100041MD1810021+9999REMSYN060AAXX  18131 01033 46/// /2606 10037 20014 30004 40035 58002;
0101010330999992013011814004+70250+019500FM-12+002499999V0202601N005019999999N9999999N1+00321+00151100331ADDMA1999999100021MD1710061+9999REMSYN060AAXX  18141 01033 46/// /2605 10032 20015 30002 40033 57006;
0101010330999992013011815004+70250+019500FM-12+002499999V0202701N006019999999N9999999N1+00351+00181100311ADDMA1999999100001MD1710071+9999REMSYN060AAXX  18151 01033 46/// /2706 10035 20018 30000 40031 57007;
0101010330999992013011816004+70250+019500FM-12+002499999V0202801N008019999999N9999999N1+00341+00171100281ADDMA1999999099971MD1710071+9999REMSYN060AAXX  18161 01033 46/// /2808 10034 20017 39997 40028 57007;
0101010330999992013011817004+70250+019500FM-12+002499999V0203001N007019999999N9999999N1+00351+00181100251ADDMA1999999099941MD1710081+9999REMSYN060AAXX  18171 01033 46/// /3007 10035 20018 39994 40025 57008;
0130010330999992013011818004+70250+019500FM-12+002499999V0203001N008019999999N9999999N1+00341+00141100221ADDKA1120M+00471MA1999999099911MD1710081+9999REMSYN076AAXX  18181 01033 46/// /3008 10034 20014 39991 40022 57008 333 10047 91112;
0101010330999992013011819004+70250+019500FM-12+002499999V0202801N007019999999N9999999N1+00371+00181100201ADDMA1999999099891MD1710081+9999REMSYN060AAXX  18191 01033 46/// /2807 10037 20018 39989 40020 57008;
0101010330999992013011820004+70250+019500FM-12+002499999V0203101N007019999999N9999999N1+00341+00171100181ADDMA1999999099871MD1710081+9999REMSYN060AAXX  18201 01033 46/// /3107 10034 20017 39987 40018 57008;
0101010330999992013011821004+70250+019500FM-12+002499999V0200201N013019999999N9999999N1+00171+00041100181ADDMA1999999099871MD1510041+9999REMSYN060AAXX  18211 01033 46/// /0213 10017 20004 39987 40018 55004;
0101010330999992013011822004+70250+019500FM-12+002499999V0200201N008019999999N9999999N1+00141-00021100281ADDMA1999999099971MD1310081+9999REMSYN060AAXX  18221 01033 46/// /0208 10014 21002 39997 40028 53008;
0101010330999992013011823004+70250+019500FM-12+002499999V0203501N006019999999N9999999N1+00221-00021100321ADDMA1999999100011MD1310141+9999REMSYN060AAXX  18231 01033 46/// /3506 10022 21002 30001 40032 53014;
0111010330999992013011900004+70250+019500FM-12+002499999V0203501N013019999999N9999999N1+00211-00101100341ADDMA1999999100031MD1110151+9999REMSYN070AAXX  19001 01033 46/// /3513 10021 21010 30003 40034 51015 333 91118;
0101010330999992013011901004+70250+019500FM-12+002499999V0200101N010019999999N9999999N1+00111-00171100441ADDMA1999999100131MD1310171+9999REMSYN060AAXX  19011 01033 46/// /0110 10011 21017 30013 40044 53017;
0101010330999992013011902004+70250+019500FM-12+002499999V0203601N012019999999N9999999N1+00121-00391100481ADDMA1999999100171MD1310161+9999REMSYN060AAXX  19021 01033 46/// /3612 10012 21039 30017 40048 53016;
0101010330999992013011903004+70250+019500FM-12+002499999V0203501N012019999999N9999999N1+00081-00461100551ADDMA1999999100241MD1110221+9999REMSYN060AAXX  19031 01033 46/// /3512 10008 21046 30024 40055 51022;
0101010330999992013011904004+70250+019500FM-12+002499999V0203501N013019999999N9999999N1+00021-00581100611ADDMA1999999100301MD1310161+9999REMSYN060AAXX  19041 01033 46/// /3513 10002 21058 30030 40061 53016;
0101010330999992013011905004+70250+019500FM-12+002499999V0203301N011019999999N9999999N1+00101-00631100591ADDMA1999999100281MD1110111+9999REMSYN060AAXX  19051 01033 46/// /3311 10010 21063 30028 40059 51011;
0130010330999992013011906004+70250+019500FM-12+002499999V0203401N015019999999N9999999N1+00071-00271100571ADDKA1999N-00011MA1999999100261MD1010021+9999REMSYN076AAXX  19061 01033 46/// /3415 10007 21027 30026 40057 50002 333 21001 91119;
0101010330999992013011907004+70250+019500FM-12+002499999V0203501N013019999999N9999999N1+00161-00321100571ADDMA1999999100261MD1810031+9999REMSYN060AAXX  19071 01033 46/// /3513 10016 21032 30026 40057 58003;
0101010330999992013011908004+70250+019500FM-12+002499999V0203401N014019999999N9999999N1+00201-00271100621ADDMA1999999100311MD1310041+9999REMSYN060AAXX  19081 01033 46/// /3414 10020 21027 30031 40062 53004;
0101010330999992013011909004+70250+019500FM-12+002499999V0203301N010019999999N9999999N1+00231-00321100661ADDMA1999999100351MD1110091+9999REMSYN060AAXX  19091 01033 46/// /3310 10023 21032 30035 40066 51009;
0101010330999992013011910004+70250+019500FM-12+002499999V0200401N010019999999N9999999N1+00101-00131100711ADDMA1999999100401MD1310141+9999REMSYN060AAXX  19101 01033 46/// /0410 10010 21013 30040 40071 53014;
0101010330999992013011911004+70250+019500FM-12+002499999V0200401N005019999999N9999999N1+00101-00211100821ADDMA1999999100511MD1310191+9999REMSYN060AAXX  19111 01033 46/// /0405 10010 21021 30051 40082 53019;
0111010330999992013011912004+70250+019500FM-12+002499999V0200401N010019999999N9999999N1-00011-00151100921ADDMA1999999100601MD1310251+9999REMSYN070AAXX  19121 01033 46/// /0410 11001 21015 30060 40092 53025 333 91122;
0101010330999992013011913004+70250+019500FM-12+002499999V0200301N012019999999N9999999N1+00091-00301100971ADDMA1999999100661MD1310261+9999REMSYN060AAXX  19131 01033 46/// /0312 10009 21030 30066 40097 53026;
0101010330999992013011914004+70250+019500FM-12+002499999V0200301N013019999999N9999999N1+00091-00301101011ADDMA1999999100701MD1310191+9999REMSYN060AAXX  19141 01033 46/// /0313 10009 21030 30070 40101 53019;
0101010330999992013011915004+70250+019500FM-12+002499999V0200301N011019999999N9999999N1+00031-00341101101ADDMA1999999100781MD1010181+9999REMSYN060AAXX  19151 01033 46/// /0311 10003 21034 30078 40110 50018;
0101010330999992013011916004+70250+019500FM-12+002499999V0200301N012019999999N9999999N1-00031-00371101191ADDMA1999999100871MD1310221+9999REMSYN060AAXX  19161 01033 46/// /0312 11003 21037 30087 40119 53022;
0101010330999992013011917004+70250+019500FM-12+002499999V0200501N008019999999N9999999N1-00101-00391101281ADDMA1999999100961MD1110261+9999REMSYN060AAXX  19171 01033 46/// /0508 11010 21039 30096 40128 51026;
0130010330999992013011918004+70250+019500FM-12+002499999V0203601N012019999999N9999999N1+00001-00571101281ADDKA1120M+00241MA1999999100961MD1110181+9999REMSYN076AAXX  19181 01033 46/// /3612 10000 21057 30096 40128 51018 333 10024 91119;
0101010330999992013011919004+70250+019500FM-12+002499999V0200101N014019999999N9999999N1-00101-00461101321ADDMA1999999101001MD1110131+9999REMSYN060AAXX  19191 01033 46/// /0114 11010 21046 30100 40132 51013;
0101010330999992013011920004+70250+019500FM-12+002499999V0203501N012019999999N9999999N1-00081-00451101391ADDMA1999999101071MD1310111+9999REMSYN060AAXX  19201 01033 46/// /3512 11008 21045 30107 40139 53011;
0101010330999992013011921004+70250+019500FM-12+002499999V0203601N013019999999N9999999N1-00051-00551101411ADDMA1999999101091MD1210141+9999REMSYN060AAXX  19211 01033 46/// /3613 11005 21055 30109 40141 52014;
0101010330999992013011922004+70250+019500FM-12+002499999V0200101N010019999999N9999999N1-00051-00711101451ADDMA1999999101131MD1110131+9999REMSYN060AAXX  19221 01033 46/// /0110 11005 21071 30113 40145 51013;
0101010330999992013011923004+70250+019500FM-12+002499999V0203601N010019999999N9999999N1-00071-00501101501ADDMA1999999101181MD1210121+9999REMSYN060AAXX  19231 01033 46/// /3610 11007 21050 30118 40150 52012;
0111010330999992013012000004+70250+019500FM-12+002499999V0200101N011019999999N9999999N1-00041-00721101521ADDMA1999999101201MD1210111+9999REMSYN070AAXX  20001 01033 46/// /0111 11004 21072 30120 40152 52011 333 91119;
0101010330999992013012001004+70250+019500FM-12+002499999V0200301N010019999999N9999999N1-00071-00551101531ADDMA1999999101211MD1210081+9999REMSYN060AAXX  20011 01033 46/// /0310 11007 21055 30121 40153 52008;
0101010330999992013012002004+70250+019500FM-12+002499999V0200101N009019999999N9999999N1-00091-00751101571ADDMA1999999101251MD1310071+9999REMSYN060AAXX  20021 01033 46/// /0109 11009 21075 30125 40157 53007;
0101010330999992013012003004+70250+019500FM-12+002499999V0200201N011019999999N9999999N1-00071-00541101571ADDMA1999999101251MD1010061+9999REMSYN060AAXX  20031 01033 46/// /0211 11007 21054 30125 40157 50006;
0101010330999992013012004004+70250+019500FM-12+002499999V0200101N006019999999N9999999N1-00111-00531101621ADDMA1999999101301MD1210091+9999REMSYN060AAXX  20041 01033 46/// /0106 11011 21053 30130 40162 52009;
0101010330999992013012005004+70250+019500FM-12+002499999V0200301N008019999999N9999999N1-00051-00821101621ADDMA1999999101311MD1010061+9999REMSYN060AAXX  20051 01033 46/// /0308 11005 21082 30131 40162 50006;
0130010330999992013012006004+70250+019500FM-12+002499999V0200401N007019999999N9999999N1-00041-00711101651ADDKA1999N-00211MA1999999101331MD1110081+9999REMSYN076AAXX  20061 01033 46/// /0407 11004 21071 30133 40165 51008 333 21021 91116;
0101010330999992013012007004+70250+019500FM-12+002499999V0200301N004019999999N9999999N1-00071-00621101701ADDMA1999999101381MD1310081+9999REMSYN060AAXX  20071 01033 46/// /0304 11007 21062 30138 40170 53008;
0101010330999992013012008004+70250+019500FM-12+002499999V0200801N001019999999N9999999N1-00111-00641101731ADDMA1999999101411MD1210101+9999REMSYN060AAXX  20081 01033 46/// /0801 11011 21064 30141 40173 52010;
0101010330999992013012009004+70250+019500FM-12+002499999V0201701N001019999999N9999999N1-00131-00571101761ADDMA1999999101441MD1210111+9999REMSYN060AAXX  20091 01033 46/// /1701 11013 21057 30144 40176 52011;
0101010330999992013012010004+70250+019500FM-12+002499999V0202501N004019999999N9999999N1-00041-00611101781ADDMA1999999101461MD1210081+9999REMSYN060AAXX  20101 01033 46/// /2504 11004 21061 30146 40178 52008;
0101010330999992013012011004+70250+019500FM-12+002499999V0202201N004019999999N9999999N1-00011-00611101781ADDMA1999999101461MD1110061+9999REMSYN060AAXX  20111 01033 46/// /2204 11001 21061 30146 40178 51006;
0111010330999992013012012004+70250+019500FM-12+002499999V0202101N005019999999N9999999N1+00011-00661101751ADDMA1999999101431MD1810011+9999REMSYN070AAXX  20121 01033 46/// /2105 10001 21066 30143 40175 58001 333 91111;
0101010330999992013012013004+70250+019500FM-12+002499999V0202101N006019999999N9999999N1+00011-00631101741ADDMA1999999101421MD1710041+9999REMSYN060AAXX  20131 01033 46/// /2106 10001 21063 30142 40174 57004;
0101010330999992013012014004+70250+019500FM-12+002499999V0202201N008019999999N9999999N1+00021-00461101711ADDMA1999999101391MD1710071+9999REMSYN060AAXX  20141 01033 46/// /2208 10002 21046 30139 40171 57007;
0101010330999992013012015004+70250+019500FM-12+002499999V0202201N008019999999N9999999N1+00061-00471101691ADDMA1999999101371MD1710061+9999REMSYN060AAXX  20151 01033 46/// /2208 10006 21047 30137 40169 57006;
0101010330999992013012016004+70250+019500FM-12+002499999V0202201N007019999999N9999999N1+00121-00441101641ADDMA1999999101321MD1810101+9999REMSYN060AAXX  20161 01033 46/// /2207 10012 21044 30132 40164 58010;
0101010330999992013012017004+70250+019500FM-12+002499999V0202201N007019999999N9999999N1+00141-00371101571ADDMA1999999101251MD1810141+9999REMSYN060AAXX  20171 01033 46/// /2207 10014 21037 30125 40157 58014;
0130010330999992013012018004+70250+019500FM-12+002499999V0202301N009019999999N9999999N1+00171-00301101511ADDKA1120M+00171MA1999999101191MD1710191+9999REMSYN076AAXX  20181 01033 46/// /2309 10017 21030 30119 40151 57019 333 10017 91114;
0101010330999992013012019004+70250+019500FM-12+002499999V0202301N010019999999N9999999N1+00121-00161101501ADDMA1999999101181MD1610141+9999REMSYN060AAXX  20191 01033 46/// /2310 10012 21016 30118 40150 56014;
0101010330999992013012020004+70250+019500FM-12+002499999V0202301N008019999999N9999999N1+00111-00051101431ADDMA1999999101111MD1810151+9999REMSYN060AAXX  20201 01033 46/// /2308 10011 21005 30111 40143 58015;
0101010330999992013012021004+70250+019500FM-12+002499999V0202301N007019999999N9999999N1+00201+00061101361ADDMA1999999101051MD1810131+9999REMSYN060AAXX  20211 01033 46/// /2307 10020 20006 30105 40136 58013;
