0202010450999992013010106004+69833+021883FM-12+000699999V0201801N003012200019N0750001N1+00121-00461999999ADDAA124000091AJ100059199999999AY101061AY201061GF103991011021012501001081IA1289KA1999N-00351MW1021REMSYN076AAXX  01061 01045 31689 31803 10012 21046 70200 81208 333 21035 44005 70000;EQDQ01  00002PRCP24
0114010450999992013010112004+69833+021883FM-12+000699999V0201801N003012200019N0750001N1+00101-00381999999ADDAY101061AY201061GF102991011021012501071001MW1021REMSYN054AAXX  01121 01045 41689 21803 10010 21038 70200 81270;
0137010450999992013010118004+69833+021883FM-12+000699999V0201601N003012200019N0750001N1+00081-00461999999ADDAY101061AY201061GF102991011041012501001081KA1999M+00211MW1021REMSYN064AAXX  01181 01045 31689 21603 10008 21046 70200 81408 333 10021;
0212010450999992013010206004+69833+021883FM-12+000699999V0201601N003012200019N0750001N1-00461-00641999999ADDAA124000091AJ100059199999999AY101061AY201061GA1001+999999999GF100991001001999999001001IA1289KA1999N-00461MW1021REMSYN070AAXX  02061 01045 31989 01603 11046 21064 70200 333 21046 44005 70000;EQDQ01  00002PRCP24
0114010450999992013010212004+69833+021883FM-12+000699999V0201401N001010300019N0750001N1-00561-00701999999ADDAY121061AY211061GF106991021081012501071081MW1021REMSYN054AAXX  02121 01045 41689 61401 11056 21070 70221 82878;
0137010450999992013010218004+69833+021883FM-12+000699999V0201401N001010300019N0750001N1-00241-00501999999ADDAY121061AY221061GF107991041081008001071999KA1999M-00241MW1021REMSYN064AAXX  02181 01045 31589 71401 11024 21050 70222 8487/ 333 11024;
0202010450999992013010306004+69833+021883FM-12+000699999V0201401N003012200019N0750001N1-00221-00501999999ADDAA124000091AJ100059199999999AY111061AY201061GF103991011041012501031021IA1289KA1999N-00251MW1021REMSYN076AAXX  03061 01045 31689 31403 11022 21050 70210 81432 333 21025 44005 70000;EQDQ01  00002PRCP24
0114010450999992013010312004+69833+021883FM-12+000699999V0201601N003010300019N0750001N1-00461-00761999999ADDAY121061AY211061GF107991031081008001071999MW1021REMSYN054AAXX  03121 01045 41589 71603 11046 21076 70221 8387/;
0147010450999992013010318004+69833+021883FM-12+000699999V0201601N003012200019N0750001N1-00541-00861999999ADDAY111061AY201061GA1001+999999999GF100991001001999999001001KA1999M-00181MW1021REMSYN058AAXX  03181 01045 31989 01603 11054 21086 70210 333 11018;
0202010450999992013010406004+69833+021883FM-12+000699999V0201201N001010750019N0750001N1-00311-00601999999ADDAA124000091AJ100049199999999AY121061AY211061GF105991021041008001071081IA1289KA1999N-00581MW1021REMSYN076AAXX  04061 01045 31589 51201 11031 21060 70221 82478 333 21058 44004 70000;EQDQ01  00002PRCP24
0154010450999992013010418004+69833+021883FM-12+000699999V0202701N005010300019N0300001N1+00261-00431999999ADDAA112000891AY181061AY221061GF108991041091008001021999KA1999M+00261MW1151REMSYN070AAXX  04181 01045 11580 82705 10026 21043 69982 71582 8492/ 333 10026;
0200010450999992013010506004+69833+021883FM-12+000699999V0203001N003010042019N0600001N1+00281-00011999999ADDAA112000021AA224001091AJ100059199999999AY181061AY221061GF107991061091004501021001IA1279KA1999N+00101MW1801REMSYN082AAXX  05061 01045 11486 73003 10028 21001 69912 78082 86920 333 20010 43005 70009;
0114010450999992013010512004+69833+021883FM-12+000699999V0201601N001010042019N0550001N1+00081-00161999999ADDAY181061AY221061GF108991051091004501021999MW1151REMSYN054AAXX  05121 01045 41485 81601 10008 21016 71582 8592/;
0154010450999992013010518004+69833+021883FM-12+000699999V0201601N003012200019N0750001N1+00141-00151999999ADDAA112000021AY121061AY211061GF103991021081008001071001KA1999M+00301MW1021REMSYN070AAXX  05181 01045 11589 31603 10014 21015 69902 70221 82870 333 10030;
0183010450999992013010606004+69833+021883FM-12+000699999V0201801N005010300019N0750001N1+00241-00521999999ADDAA124000021AJ100049199999999AY121061AY211061GF107991041081012501071999IA1309KA1999N-00051MW1021REMSYN076AAXX  06061 01045 31689 71805 10024 21052 70221 8487/ 333 21005 42004 79999;
0183010450999992013010706004+69833+021883FM-12+000699999V0202701N003010300019N0400001N1+00481+00081999999ADDAA112000891AJ100039199999999AY181061AY221061GF108991041091008001021999IA1309KA1999N+00351MW1151REMSYN076AAXX  07061 01045 11582 82703 10048 20008 69982 71582 8492/ 333 20035 42003;
0114010450999992013010712004+69833+021883FM-12+000699999V0201801N001010300019N0750001N1+00201-00041999999ADDAY121061AY221061GF106991031061008001071001MW1021REMSYN054AAXX  07121 01045 41589 61801 10020 21004 70222 83670;
0137010450999992013010718004+69833+021883FM-12+000699999V0201401N003012200019N0750001N1+00141-00311999999ADDAY121061AY211061GF102991011081012501041001KA1999M+00481MW1021REMSYN064AAXX  07181 01045 31689 21403 10014 21031 70221 81840 333 10048;
0202010450999992013010806004+69833+021883FM-12+000699999V0201801N005012200019N0750001N1+00361-00391999999ADDAA124000091AJ100039199999999AY101061AY201061GF101991011021012501001001IA1309KA1999N-00321MW1021REMSYN076AAXX  08061 01045 31689 11805 10036 21039 70200 81200 333 21032 42003 70000;EQDQ01  00002PRCP24
0114010450999992013010812004+69833+021883FM-12+000699999V0201401N005010300019N0600001N1+00001-00501999999ADDAY181061AY221061GF108991041091008001021999MW1151REMSYN054AAXX  08121 01045 41586 81405 10000 21050 71582 8492/;
0173010450999992013010818004+69833+021883FM-12+000699999V0201601N003012200019N0650001N1-00161-00551999999ADDAA112000091AY121061AY211061GF103991021091008001001081KA1999M+00361MW1151REMSYN070AAXX  08181 01045 11587 31603 11016 21055 69902 71521 82908 333 10036;EQDQ01  00002PRCP12
0140010450999992013010906004+69833+021883FM-12+000699999V02099999999999999999N9999999N1+00011-00031999999ADDAA112003091AA224003391AJ100059199999999IA1279KA1999N-00131REMSYN070AAXX  09061 01045 13/// ///// 10001 21003 60032 333 21013 43005 70034;
0113010450999992013010918004+69833+021883FM-12+000699999V02099999999999999999N9999999N1+00301+00201999999ADDAA112000091KA1999M+00321REMSYN058AAXX  09181 01045 13/// ///// 10030 20020 69922 333 10032;EQDQ01  00002PRCP12
0106010450999992013011006004+69833+021883FM-12+000699999V02099999999999999999N9999999N1+00141-00201999999ADDAJ100039199999999IA1279KA1999N+00141REMSYN058AAXX  10061 01045 43/// ///// 10014 21020 333 20014 43003;
0114010450999992013011012004+69833+021883FM-12+000699999V0201201N001010300019N0650001N1+00021-00191999999ADDAY121061AY221061GF107991041051008001071999MW1021REMSYN054AAXX  10121 01045 41587 71201 10002 21019 70222 8457/;
0077010450999992013011018004+69833+021883FM-12+000699999V02099999999999999999N9999999N1+00081-00031999999ADDKA1999M+00281REMSYN052AAXX  10181 01045 43/// ///// 10008 21003 333 10028;
0106010450999992013011106004+69833+021883FM-12+000699999V02099999999999999999N9999999N1+00241-00291999999ADDAJ100039199999999IA1279KA1999N+00121REMSYN058AAXX  11061 01045 43/// ///// 10024 21029 333 20012 43003;
0077010450999992013011118004+69833+021883FM-12+000699999V02099999999999999999N9999999N1+00421-00041999999ADDKA1999M+00461REMSYN052AAXX  11181 01045 43/// ///// 10042 21004 333 10046;
0183010450999992013011206004+69833+021883FM-12+000699999V0203201N005010300019N0400001N1+00421+00171999999ADDAA112000021AJ100029199999999AY181061AY221061GF108991041091004501021999IA1259KA1999N+00381MW1801REMSYN076AAXX  12061 01045 11482 83205 10042 20017 69922 78082 8492/ 333 20038 41002;
0114010450999992013011212004+69833+021883FM-12+000699999V0203401N005010300019N0250001N1+00361-00061999999ADDAY181061AY221061GF108991041091004501021999MW1151REMSYN054AAXX  12121 01045 41475 83405 10036 21006 71582 8492/;
0154010450999992013011218004+69833+021883FM-12+000699999V0203001N003010300019N0550001N1+00321-00271999999ADDAA112000021AY121061AY221061GF108991031091008001021999KA1999M+00451MW1151REMSYN070AAXX  12181 01045 11585 83003 10032 21027 69902 71522 8392/ 333 10045;
0200010450999992013011306004+69833+021883FM-12+000699999V0203001N003010300019N0250001N1+00251-00161999999ADDAA112000021AA224000021AJ100029199999999AY181061AY221061GF108991041091004501021999IA1259KA1999N+00231MW1831REMSYN082AAXX  13061 01045 11475 83003 10025 21016 69902 78382 8492/ 333 20023 41002 79999;
0114010450999992013011312004+69833+021883FM-12+000699999V0203001N003010300019N0600001N1+00201-00251999999ADDAY181061AY221061GF108991041091004501071999MW1151REMSYN054AAXX  13121 01045 41486 83003 10020 21025 71582 8497/;
0154010450999992013011318004+69833+021883FM-12+000699999V0203201N001010300019N0600001N1+00181-00141999999ADDAA112000021AY121061AY221061GF108991041091008001021999KA1999M+00261MW1151REMSYN070AAXX  13181 01045 11586 83201 10018 21014 69902 71522 8492/ 333 10026;
0200010450999992013011406004+69833+021883FM-12+000699999V0201801N001010042019N0100001N1-00031-00071999999ADDAA112005192AA224004692AJ100109199999999AY181061AY221061GF108991061091004501021999IA1279KA1999N-00051MW1851REMSYN082AAXX  14061 01045 11460 81801 11003 21007 60052 78582 8692/ 333 21005 43010 70045;
0114010450999992013011412004+69833+021883FM-12+000699999V0203601N001010042019N0150001N1-00141-00421999999ADDAY181061AY221061GF108991051091004501021999MW1151REMSYN054AAXX  14121 01045 41465 83601 11014 21042 71582 8592/;
0154010450999992013011418004+69833+021883FM-12+000699999V0201201N001010120019N0650001N1-00221-00351999999ADDAA112007191AY121061AY221061GF108991051081008001071999KA1999M-00031MW1021REMSYN070AAXX  14181 01045 11587 81201 11022 21035 60072 70222 8587/ 333 11003;
0183010450999992013011506004+69833+021883FM-12+000699999V0201201N003012200019N0750001N1-00581-00821999999ADDAA124006691AJ100209199999999AY111061AY201061GF103991021081008001071081IA1239KA1999N-00661MW1021REMSYN076AAXX  15061 01045 31589 31203 11058 21082 70210 82878 333 21066 47020 70066;
0124010450999992013011512004+69833+021883FM-12+000699999V0201201N003012200019N0750001N1-00681-00991999999ADDAY101061AY201061GA1001+999999999GF100991001001999999001001MW1021REMSYN048AAXX  15121 01045 41989 01203 11068 21099 70200;
0137010450999992013011518004+69833+021883FM-12+000699999V0201201N003012200019N0750001N1-00721-00951999999ADDAY101061AY201061GF101991011011012501001081KA1999M-00561MW1021REMSYN064AAXX  15181 01045 31689 11203 11072 21095 70200 81108 333 11056;
0202010450999992013011606004+69833+021883FM-12+000699999V0201201N003012200019N0750001N1-00721-01001999999ADDAA124000091AJ100189199999999AY101061AY201061GF103991011011012501041001IA1239KA1999N-00801MW1021REMSYN076AAXX  16061 01045 31689 31203 11072 21100 70200 81140 333 21080 47018 70000;EQDQ01  00002PRCP24
0114010450999992013011612004+69833+021883FM-12+000699999V0201601N003010300019N0750001N1-00361-00701999999ADDAY121061AY211061GF106991041081008001041081MW1021REMSYN054AAXX  16121 01045 41589 61603 11036 21070 70221 84848;
0137010450999992013011618004+69833+021883FM-12+000699999V0201601N001010300019N0750001N1-00281-00601999999ADDAY121061AY221061GF106991021051008001011081KA1999M-00241MW1021REMSYN064AAXX  16181 01045 31589 61601 11028 21060 70222 82518 333 11024;
0202010450999992013011706004+69833+021883FM-12+000699999V0201401N001010120019N0750001N1-00211-00531999999ADDAA124000091AJ100169199999999AY121061AY211061GF108991051081008001071999IA1239KA1999N-00281MW1021REMSYN076AAXX  17061 01045 31589 81401 11021 21053 70221 8587/ 333 21028 47016 70000;EQDQ01  00002PRCP24
0114010450999992013011712004+69833+021883FM-12+000699999V0209999C000010300019N0650001N1-00161-00611999999ADDAY121061AY221061GF108991041061008001021999MW1021REMSYN054AAXX  17121 01045 41587 80000 11016 21061 70222 8462/;
0137010450999992013011718004+69833+021883FM-12+000699999V0201201N003010300019N0750001N1+00101-00701999999ADDAY121061AY221061GF108991041081008001021999KA1999M+00241MW1021REMSYN064AAXX  17181 01045 31589 81203 10010 21070 70222 8482/ 333 10024;
0200010450999992013011806004+69833+021883FM-12+000699999V0203001N003010042019N0060001N1+00281+00091999999ADDAA112003091AA224003091AJ100109199999999AY161061AY221061GF108991051071004501021999IA1279KA1999N+00041MW1621REMSYN082AAXX  18061 01045 11456 83003 10028 20009 60032 76262 8572/ 333 20004 43010 70030;
0114010450999992013011812004+69833+021883FM-12+000699999V0203001N007010042019N0070001N1+00401+00101999999ADDAY181061AY221061GF108991051091004501021999MW1801REMSYN054AAXX  18121 01045 41457 83007 10040 20010 78082 8592/;
0154010450999992013011818004+69833+021883FM-12+000699999V0202801N003010300019N0250001N1+00361+00151999999ADDAA112004191AY181061AY221061GF106991041091004501021001KA1999M+00421MW1801REMSYN070AAXX  18181 01045 11475 62803 10036 20015 60042 78082 84920 333 10042;
0154010450999992013011918004+69833+021883FM-12+000699999V0203001N005010300019N0100001N1-00101-00241999999ADDAA112004191AY181061AY221061GF106991041091004501021001KA1999M+00361MW1851REMSYN070AAXX  19181 01045 11460 63005 11010 21024 60042 78582 84920 333 10036;
0106010450999992013012006004+69833+021883FM-12+000699999V02099999999999999999N9999999N1-00261-00471999999ADDAJ100059199999999IA1239KA1999N-00261REMSYN058AAXX  20061 01045 43/// ///// 11026 21047 333 21026 47005;
0077010450999992013012018004+69833+021883FM-12+000699999V02099999999999999999N9999999N1+00061-00741999999ADDKA1999M+00081REMSYN052AAXX  20181 01045 43/// ///// 10006 21074 333 10008;
0123010450999992013012106004+69833+021883FM-12+000699999V02099999999999999999N9999999N1+00261+00051999999ADDAA112001091AJ100039199999999IA1309KA1999N+00021REMSYN064AAXX  21061 01045 13/// ///// 10026 20005 60012 333 20002 42003;
0094010450999992013012118004+69833+021883FM-12+000699999V02099999999999999999N9999999N1+00201-00231999999ADDAA112006191KA1999M+00361REMSYN058AAXX  21181 01045 13/// ///// 10020 21023 60062 333 10036;
0140010450999992013012206004+69833+021883FM-12+000699999V02099999999999999999N9999999N1-00281-00401999999ADDAA112004191AA224009491AJ100079199999999IA1249KA1999N-00281REMSYN070AAXX  22061 01045 13/// ///// 11028 21040 60042 333 21028 48007 70094;
0094010450999992013012218004+69833+021883FM-12+000699999V02099999999999999999N9999999N1-00391-01001999999ADDAA112002091KA1999M-00151REMSYN058AAXX  22181 01045 13/// ///// 11039 21100 60022 333 11015;
0140010450999992013012306004+69833+021883FM-12+000699999V02099999999999999999N9999999N1-00501-00521999999ADDAA112001091AA224002591AJ100109199999999IA1249KA1999N-00581REMSYN070AAXX  23061 01045 13/// ///// 11050 21052 60012 333 21058 48010 70025;
0094010450999992013012318004+69833+021883FM-12+000699999V02099999999999999999N9999999N1-00161-00171999999ADDAA112009991KA1999M-00081REMSYN058AAXX  23181 01045 13/// ///// 11016 21017 60102 333 11008;
0140010450999992013012406004+69833+021883FM-12+000699999V02099999999999999999N9999999N1-00181-00351999999ADDAA112010991AA224020191AJ100109199999999IA1289KA1999N-00361REMSYN070AAXX  24061 01045 13/// ///// 11018 21035 60112 333 21036 44010 70200;
0094010450999992013012418004+69833+021883FM-12+000699999V02099999999999999999N9999999N1-00251-00351999999ADDAA112002091KA1999M-00141REMSYN058AAXX  24181 01045 13/// ///// 11025 21035 60022 333 11014;
0140010450999992013012506004+69833+021883FM-12+000699999V02099999999999999999N9999999N1-00331-00611999999ADDAA112005191AA224007191AJ100109199999999IA1289KA1999N-00371REMSYN070AAXX  25061 01045 13/// ///// 11033 21061 60052 333 21037 44010 70071;
0114010450999992013012512004+69833+021883FM-12+000699999V0209999C000010042019N0070001N1-00471-00511999999ADDAY181061AY221061GF108991051091004501021999MW1861REMSYN054AAXX  25121 01045 41457 80000 11047 21051 78682 8592/;
0094010450999992013012518004+69833+021883FM-12+000699999V02099999999999999999N9999999N1-00821-01001999999ADDAA112014091KA1999M-00281REMSYN058AAXX  25181 01045 13/// ///// 11082 21100 60142 333 11028;
0183010450999992013012606004+69833+021883FM-12+000699999V0201401N001010300019N0650001N1-00781-01171999999ADDAA124014091AJ100469199999999AY121061AY221061GF108991041051008001071081IA1249KA1999N-00961MW1021REMSYN076AAXX  26061 01045 31587 81401 11078 21117 70222 84578 333 21096 48046 70140;
0114010450999992013012612004+69833+021883FM-12+000699999V0201401N001010300019N0750001N1-00741-01071999999ADDAY121061AY221061GF107991031051008001031081MW1021REMSYN054AAXX  26121 01045 41589 71401 11074 21107 70222 83538;
0137010450999992013012618004+69833+021883FM-12+000699999V0201601N003010300019N0750001N1-00581-00941999999ADDAY121061AY221061GF106991031081008001031081KA1999M-00481MW1021REMSYN064AAXX  26181 01045 31589 61603 11058 21094 70222 83838 333 11048;
0193010450999992013012706004+69833+021883FM-12+000699999V0201401N001012200019N0750001N1-01141-01281999999ADDAA124000091AJ100409199999999AY111061AY201061GA1001+999999999GF100991001001999999001001IA1249MW1021REMSYN064AAXX  27061 01045 31989 01401 11114 21128 70210 333 48040 70000;EQDQ01  00002PRCP24
0114010450999992013012712004+69833+021883FM-12+000699999V0201401N001012200019N0750001N1-01121-01221999999ADDAY101061AY201061GF103991011011012501071081MW1021REMSYN054AAXX  27121 01045 41689 31401 11112 21122 70200 81178;
0137010450999992013012718004+69833+021883FM-12+000699999V0201601N001010750019N0650001N1-00901-01301999999ADDAY111061AY201061GF106991021091008001001081KA1999M-00551MW1151REMSYN064AAXX  27181 01045 31587 61601 11090 21130 71510 82908 333 11055;
0106010450999992013012806004+69833+021883FM-12+000699999V02099999999999999999N9999999N1-00971-01401999999ADDAJ100409199999999IA1249KA1999N-01061REMSYN058AAXX  28061 01045 43/// ///// 11097 21140 333 21106 48040;
0114010450999992013012812004+69833+021883FM-12+000699999V0201601N005010075019N0750001N1-00561-01241999999ADDAY121061AY221061GF108991051061008001011999MW1021REMSYN054AAXX  28121 01045 41589 81605 11056 21124 70222 8561/;
0077010450999992013012818004+69833+021883FM-12+000699999V02099999999999999999N9999999N1-00641-00911999999ADDKA1999M-00501REMSYN052AAXX  28181 01045 43/// ///// 11064 21091 333 11050;
0106010450999992013012906004+69833+021883FM-12+000699999V02099999999999999999N9999999N1-00641-00941999999ADDAJ100309199999999IA1289KA1999N-00741REMSYN058AAXX  29061 01045 43/// ///// 11064 21094 333 21074 44030;
0114010450999992013012912004+69833+021883FM-12+000699999V0201601N001012200019N0750001N1-00761-01071999999ADDAY111061AY201061GF104991011041012501071011MW1021REMSYN054AAXX  29121 01045 41689 41601 11076 21107 70210 81471;
0077010450999992013012918004+69833+021883FM-12+000699999V02099999999999999999N9999999N1-00941-01191999999ADDKA1999M-00601REMSYN052AAXX  29181 01045 43/// ///// 11094 21119 333 11060;
0106010450999992013013006004+69833+021883FM-12+000699999V02099999999999999999N9999999N1-00261-00731999999ADDAJ100309199999999IA1289KA1999N-01061REMSYN058AAXX  30061 01045 43/// ///// 11026 21073 333 21106 44030;
0077010450999992013013018004+69833+021883FM-12+000699999V02099999999999999999N9999999N1-00301-00731999999ADDKA1999M-00241REMSYN052AAXX  30181 01045 43/// ///// 11030 21073 333 11024;
0183010450999992013013106004+69833+021883FM-12+000699999V0201801N003010300019N0750001N1-00051-00381999999ADDAA112000091AJ100289199999999AY181061AY221061GF107991031051008001011081IA1289MW1021REMSYN070AAXX  31061 01045 11589 71803 11005 21038 69902 70282 83518 333 44028;EQDQ01  00002PRCP12
0114010450999992013013112004+69833+021883FM-12+000699999V0201801N003010300019N0150001N1-00081-00421999999ADDAY181061AY221061GF108991041091004501021999MW1851REMSYN054AAXX  31121 01045 41465 81803 11008 21042 78582 8492/;
0154010450999992013013118004+69833+021883FM-12+000699999V0201601N001010300019N0650001N1-00241-00591999999ADDAA112000021AY181061AY221061GF107991041081008001021999KA1999M-00021MW1021REMSYN070AAXX  31181 01045 11587 71601 11024 21059 69902 70282 8482/ 333 11002;
0183010450999992013020106004+69833+021883FM-12+000699999V0209999C000010300019N0750001N1-00421-00601999999ADDAA124000021AJ100289199999999AY121061AY221061GF106991041051008001071081IA1289KA1999N-00551MW1021REMSYN076AAXX  01061 01045 31589 60000 11042 21060 70222 84578 333 21055 44028 79999;
0114010450999992013020112004+69833+021883FM-12+000699999V0201801N001010075019N0750001N1-00241-00451999999ADDAY121061AY221061GF107991051051008001071001MW1021REMSYN054AAXX  01121 01045 41589 71801 11024 21045 70222 85570;
0137010450999992013020118004+69833+021883FM-12+000699999V0201801N003010075019N0750001N1-00021-00271999999ADDAY121061AY221061GF108991051051008001071999KA1999M-00021MW1021REMSYN064AAXX  01181 01045 31589 81803 11002 21027 70222 8557/ 333 11002;
0202010450999992013020206004+69833+021883FM-12+000699999V0201801N003010300019N0750001N1-00181-00741999999ADDAA124000091AJ100279199999999AY121061AY221061GF106991041051008001031081IA1289KA1999N-00221MW1021REMSYN076AAXX  02061 01045 31589 61803 11018 21074 70222 84538 333 21022 44027 70000;EQDQ01  00002PRCP24
0114010450999992013020212004+69833+021883FM-12+000699999V0201401N003010042019N0060001N1-00321-00471999999ADDAY171061AY221061GF108991051071004501021999MW1711REMSYN054AAXX  02121 01045 41456 81403 11032 21047 77172 8572/;
0154010450999992013020218004+69833+021883FM-12+000699999V0201601N005012200019N0750001N1-00461-00921999999ADDAA112000021AY171061AY211061GF102991021051008001011001KA1999M-00141MW1021REMSYN070AAXX  02181 01045 11589 21605 11046 21092 69912 70271 82510 333 11014;
0183010450999992013020306004+69833+021883FM-12+000699999V0201801N003012200019N0750001N1-00421-00741999999ADDAA124000021AJ100279199999999AY111061AY201061GF103991011081008001041081IA1289KA1999N-00681MW1021REMSYN076AAXX  03061 01045 31589 31803 11042 21074 70210 81848 333 21068 44027 70001;
0114010450999992013020312004+69833+021883FM-12+000699999V0201801N003012200019N0750001N1-00501-00861999999ADDAY101061AY201061GF103991011011008001041081MW1021REMSYN054AAXX  03121 01045 41589 31803 11050 21086 70200 81148;
0137010450999992013020318004+69833+021883FM-12+000699999V0201801N005012200019N0750001N1-00521-00851999999ADDAY101061AY201061GF102991011011012501001081KA1999M-00361MW1021REMSYN064AAXX  03181 01045 31689 21805 11052 21085 70200 81108 333 11036;
0106010450999992013020406004+69833+021883FM-12+000699999V02099999999999999999N9999999N1-00511-00841999999ADDAJ100259199999999IA1289KA1999N-00711REMSYN058AAXX  04061 01045 43/// ///// 11051 21084 333 21071 44025;
0077010450999992013020418004+69833+021883FM-12+000699999V02099999999999999999N9999999N1-00421-00751999999ADDKA1999M-00381REMSYN052AAXX  04181 01045 43/// ///// 11042 21075 333 11038;
0106010450999992013020506004+69833+021883FM-12+000699999V02099999999999999999N9999999N1-00231-00581999999ADDAJ100209199999999IA1289KA1999N-00441REMSYN058AAXX  05061 01045 43/// ///// 11023 21058 333 21044 44020;
0077010450999992013020518004+69833+021883FM-12+000699999V02099999999999999999N9999999N1-00241-00641999999ADDKA1999M-00071REMSYN052AAXX  05181 01045 43/// ///// 11024 21064 333 11007;
0166010450999992013020606004+69833+021883FM-12+000699999V0201601N003012200019N0750001N1-00481-00981999999ADDAJ100179199999999AY111061AY201061GF102991001001999999001011IA1289KA1999N-00551MW1021REMSYN070AAXX  06061 01045 31989 21603 11048 21098 70210 80001 333 21055 44017;
0114010450999992013020612004+69833+021883FM-12+000699999V0201801N003012200019N0750001N1-00501-01121999999ADDAY101061AY201061GF103991001001999999001081MW1021REMSYN054AAXX  06121 01045 41989 31803 11050 21112 70200 80008;
0137010450999992013020618004+69833+021883FM-12+000699999V0201601N001012200019N0750001N1-00761-01301999999ADDAY101061AY201061GF103991011041012501001081KA1999M-00451MW1021REMSYN064AAXX  06181 01045 31689 31601 11076 21130 70200 81408 333 11045;
0212010450999992013020706004+69833+021883FM-12+000699999V0201601N003012200019N0750001N1-00961-01471999999ADDAA124000091AJ100179199999999AY101061AY201061GA1001+999999999GF100991001001999999001001IA1289KA1999N-01001MW1021REMSYN070AAXX  07061 01045 31989 01603 11096 21147 70200 333 21100 44017 70000;EQDQ01  00002PRCP24
0114010450999992013020712004+69833+021883FM-12+000699999V0201601N001012200019N0750001N1-00781-01181999999ADDAY101061AY201061GF103991011081012501051001MW1021REMSYN054AAXX  07121 01045 41689 31601 11078 21118 70200 81850;
0137010450999992013020718004+69833+021883FM-12+000699999V0201601N003012200019N0750001N1-00741-01131999999ADDAY101061AY201061GF103991021081008001001081KA1999M-00451MW1021REMSYN064AAXX  07181 01045 31589 31603 11074 21113 70200 82808 333 11045;
0235010450999992013020806004+69833+021883FM-12+000699999V0201401N003012200019N0750001N1-00531-00721999999ADDAA112000091AA224000091AJ100189199999999AY171061AY221061GF104991021051008001041001IA1289KA1999N-00761MW1021REMSYN082AAXX  08061 01045 11589 41403 11053 21072 69912 70272 82540 333 21076 44018 70001;EQDQ01  00002PRCP24Q02  00002PRCP12
0114010450999992013020812004+69833+021883FM-12+000699999V0201601N001012200019N0750001N1-00551-00741999999ADDAY101061AY201061GF102991011021012501001081MW1021REMSYN054AAXX  08121 01045 41689 21601 11055 21074 70200 81208;
0147010450999992013020818004+69833+021883FM-12+000699999V0201401N003012200019N0750001N1-00741-00931999999ADDAY101061AY201061GA1001+999999999GF100991001001999999001001KA1999M-00461MW1021REMSYN058AAXX  08181 01045 31989 01403 11074 21093 70200 333 11046;
0212010450999992013020906004+69833+021883FM-12+000699999V0201601N003012200019N0750001N1-00661-01051999999ADDAA124000091AJ100179199999999AY101061AY201061GA1001+999999999GF100991001001999999001001IA1289KA1999N-00781MW1021REMSYN070AAXX  09061 01045 31989 01603 11066 21105 70200 333 21078 44017 70000;EQDQ01  00002PRCP24
0114010450999992013020912004+69833+021883FM-12+000699999V0201601N005010300019N0750001N1-00441-00951999999ADDAY121061AY211061GF107991041051008001071001MW1021REMSYN054AAXX  09121 01045 41589 71605 11044 21095 70221 84570;
0137010450999992013020918004+69833+021883FM-12+000699999V0201401N003012200019N0750001N1-00321-00841999999ADDAY121061AY211061GF102991021051008001001081KA1999M-00281MW1021REMSYN064AAXX  09181 01045 31589 21403 11032 21084 70221 82508 333 11028;
0202010450999992013021006004+69833+021883FM-12+000699999V0201801N003010075019N0750001N1-00181-00571999999ADDAA124000091AJ100179199999999AY121061AY211061GF107991051051008001071001IA1289KA1999N-00351MW1021REMSYN076AAXX  10061 01045 31589 71803 11018 21057 70221 85570 333 21035 44017 70000;EQDQ01  00002PRCP24
0114010450999992013021012004+69833+021883FM-12+000699999V0201801N001012200019N0750001N1-00141-00531999999ADDAY111061AY201061GF103991021081008001041011MW1021REMSYN054AAXX  10121 01045 41589 31801 11014 21053 70210 82841;
0137010450999992013021018004+69833+021883FM-12+000699999V0201601N001012200019N0750001N1-00301-00581999999ADDAY101061AY201061GF102991021051008001001001KA1999M-00041MW1021REMSYN064AAXX  10181 01045 31589 21601 11030 21058 70200 82500 333 11004;
0202010450999992013021106004+69833+021883FM-12+000699999V0201601N001012200019N0750001N1-00581-00751999999ADDAA124000091AJ100179199999999AY101061AY201061GF102991011011012501071001IA1289KA1999N-00601MW1021REMSYN076AAXX  11061 01045 31689 21601 11058 21075 70200 81170 333 21060 44017 70000;EQDQ01  00002PRCP24
0114010450999992013021112004+69833+021883FM-12+000699999V0201601N001012200019N0750001N1-00421-00771999999ADDAY111061AY201061GF104991011041008001041011MW1021REMSYN054AAXX  11121 01045 41589 41601 11042 21077 70210 81441;
0137010450999992013021118004+69833+021883FM-12+000699999V0209999C000012200019N0750001N1-00401-00671999999ADDAY101061AY201061GF102991011041012501001011KA1999M-00351MW1021REMSYN064AAXX  11181 01045 31689 20000 11040 21067 70200 81401 333 11035;
0202010450999992013021206004+69833+021883FM-12+000699999V0201601N001010075019N0650001N1-00161-00401999999ADDAA124000091AJ100179199999999AY121061AY211061GF108991061051008001071999IA1289KA1999N-00451MW1021REMSYN076AAXX  12061 01045 31587 81601 11016 21040 70221 8657/ 333 21045 44017 70000;EQDQ01  00002PRCP24
0114010450999992013021212004+69833+021883FM-12+000699999V0201401N001012200019N0750001N1-00041-00251999999ADDAY111061AY201061GF103991021061008001071001MW1021REMSYN054AAXX  12121 01045 41589 31401 11004 21025 70210 82670;
0137010450999992013021218004+69833+021883FM-12+000699999V0201601N001012200019N0750001N1-00141-00361999999ADDAY101061AY201061GF102991021061008001001011KA1999M-00011MW1021REMSYN064AAXX  12181 01045 41589 21601 11014 21036 70200 82601 333 11001;
0166010450999992013021306004+69833+021883FM-12+000699999V0201801N005012200019N0750001N1+00001-00461999999ADDAJ100179199999999AY101061AY201061GF102991011041012501031001IA1289KA1999N-00281MW1021REMSYN070AAXX  13061 01045 31689 21805 10000 21046 70200 81430 333 21028 44017;
0114010450999992013021312004+69833+021883FM-12+000699999V0201801N007012200019N0750001N1-00061-00661999999ADDAY131061AY201061GF102991021021012501001001MW1021REMSYN054AAXX  13121 01045 41689 21807 11006 21066 70230 82200;
0137010450999992013021318004+69833+021883FM-12+000699999V0201801N005010300019N0750001N1-00011-00561999999ADDAY111061AY201061GF105991031051008001011011KA1999M+00061MW1021REMSYN064AAXX  13181 01045 31589 51805 11001 21056 70210 83511 333 10006;
0106010450999992013021406004+69833+021883FM-12+000699999V02099999999999999999N9999999N1-00181-00941999999ADDAJ100129199999999IA1289KA1999N-00341REMSYN058AAXX  14061 01045 43/// ///// 11018 21094 333 21034 44012;
0124010450999992013021412004+69833+021883FM-12+000699999V0201801N003012200019N0750001N1-00201-00921999999ADDAY101061AY201061GA1001+999999999GF100991001001999999001001MW1021REMSYN048AAXX  14121 01045 41989 01803 11020 21092 70200;
0077010450999992013021418004+69833+021883FM-12+000699999V02099999999999999999N9999999N1-00461-00921999999ADDKA1999M-00121REMSYN052AAXX  14181 01045 43/// ///// 11046 21092 333 11012;
0106010450999992013021506004+69833+021883FM-12+000699999V02099999999999999999N9999999N1-00321-00721999999ADDAJ100129199999999IA1289KA1999N-00491REMSYN058AAXX  15061 01045 43/// ///// 11032 21072 333 21049 44012;
0077010450999992013021518004+69833+021883FM-12+000699999V02099999999999999999N9999999N1-00421-00881999999ADDKA1999M-00181REMSYN052AAXX  15181 01045 43/// ///// 11042 21088 333 11018;
0147010450999992013021606004+69833+021883FM-12+000699999V0209999C000010300019N0650001N1-00541-00801999999ADDAJ100169199999999AY121061AY211061GF108991041051008001031081IA1289MW1021REMSYN064AAXX  16061 01045 31587 80000 11054 21080 70221 84538 333 44016;
0137010450999992013021618004+69833+021883FM-12+000699999V0201601N001010300019N0650001N1-00341-00711999999ADDAY121061AY211061GF108991041051008001071999KA1999M-00321MW1021REMSYN064AAXX  16181 01045 31587 81601 11034 21071 70221 8457/ 333 11032;
0235010450999992013021706004+69833+021883FM-12+000699999V0201801N003012200019N0750001N1-00261-00691999999ADDAA112000091AA224000091AJ100169199999999AY181061AY211061GF101991011081008001001001IA1289KA1999N-00381MW1021REMSYN082AAXX  17061 01045 11589 11803 11026 21069 69912 70281 81800 333 21038 44016 70001;EQDQ01  00002PRCP24Q02  00002PRCP12
0114010450999992013021712004+69833+021883FM-12+000699999V0201601N003012200019N0750001N1-00361-00861999999ADDAY101061AY201061GF102991001001999999001081MW1021REMSYN054AAXX  17121 01045 41989 21603 11036 21086 70200 80008;
0137010450999992013021718004+69833+021883FM-12+000699999V0201401N003010300019N0750001N1-00441-00761999999ADDAY121061AY211061GF106991031051012501071081KA1999M-00251MW1021REMSYN064AAXX  17181 01045 31689 61403 11044 21076 70221 83578 333 11025;
0202010450999992013021806004+69833+021883FM-12+000699999V0201401N001010075019N0750001N1-00221-00501999999ADDAA124000091AJ100169199999999AY121061AY211061GF108991051051008001071999IA1289KA1999N-00361MW1021REMSYN076AAXX  18061 01045 31589 81401 11022 21050 70221 8557/ 333 21036 44016 70000;EQDQ01  00002PRCP24
0114010450999992013021812004+69833+021883FM-12+000699999V0201601N001010300019N0750001N1-00051-00691999999ADDAY121061AY221061GF107991041051008001071001MW1021REMSYN054AAXX  18121 01045 41589 71601 11005 21069 70222 84570;
0147010450999992013021818004+69833+021883FM-12+000699999V0201801N003012200019N0750001N1-00481-00921999999ADDAY111061AY201061GA1001+999999999GF100991001001999999001001KA1999M-00031MW1021REMSYN058AAXX  18181 01045 31989 01803 11048 21092 70210 333 11003;
0202010450999992013021906004+69833+021883FM-12+000699999V0201601N003010120019N0750001N1-00601-00811999999ADDAA124000091AJ100169199999999AY121061AY211061GF107991061081008001071999IA1289KA1999N-00861MW1021REMSYN076AAXX  19061 01045 31589 71603 11060 21081 70221 8687/ 333 21086 44016 70000;EQDQ01  00002PRCP24
0114010450999992013021912004+69833+021883FM-12+000699999V0201601N001012200019N0750001N1-00321-00771999999ADDAY101061AY201061GF104991011051008001041081MW1021REMSYN054AAXX  19121 01045 41589 41601 11032 21077 70200 81548;
0137010450999992013021918004+69833+021883FM-12+000699999V0201601N001012200019N0750001N1-00551-00811999999ADDAY101061AY201061GF102991001001999999001081KA1999M-00281MW1021REMSYN064AAXX  19181 01045 31989 21601 11055 21081 70200 80008 333 11028;
0183010450999992013022006004+69833+021883FM-12+000699999V0201601N005012200019N0750001N1-00301-00751999999ADDAA124000091AJ100159199999999AY101061AY201061GF103991001001999999001081IA1289MW1021REMSYN070AAXX  20061 01045 31989 31605 11030 21075 70200 80008 333 44015 70000;EQDQ01  00002PRCP24
0114010450999992013022012004+69833+021883FM-12+000699999V0209999C000010300019N0750001N1-00021-00881999999ADDAY121061AY221061GF108991041081008001071081MW1021REMSYN054AAXX  20121 01045 41589 80000 11002 21088 70222 84878;
0077010450999992013022018004+69833+021883FM-12+000699999V02099999999999999999N9999999N1+00301-00661999999ADDKA1999M+00341REMSYN052AAXX  20181 01045 43/// ///// 10030 21066 333 10034;
0123010450999992013022106004+69833+021883FM-12+000699999V02099999999999999999N9999999N1-00121-00191999999ADDAA112004191AJ100169199999999IA1289KA1999N-00121REMSYN064AAXX  21061 01045 13/// ///// 11012 21019 60042 333 21012 44016;
0094010450999992013022118004+69833+021883FM-12+000699999V02099999999999999999N9999999N1-00371-00631999999ADDAA112000591KA1999M-00081REMSYN058AAXX  21181 01045 13/// ///// 11037 21063 69952 333 11008;
0200010450999992013022206004+69833+021883FM-12+000699999V0201801N005010300019N0300001N1-00481-00751999999ADDAA112002091AA224002591AJ100209199999999AY181061AY221061GF108991041091008001021999IA1289KA1999N-00481MW1151REMSYN082AAXX  22061 01045 11580 81805 11048 21075 60022 71582 8492/ 333 21048 44020 70025;
0114010450999992013022212004+69833+021883FM-12+000699999V0201601N003010300019N0400001N1-00161-00601999999ADDAY121061AY221061GF107991041091008001021999MW1151REMSYN054AAXX  22121 01045 41582 71603 11016 21060 71522 8492/;
0137010450999992013022218004+69833+021883FM-12+000699999V0201801N003010300019N0750001N1-00141-00581999999ADDAY121061AY221061GF108991041051008001071999KA1999M-00101MW1021REMSYN064AAXX  22181 01045 31589 81803 11014 21058 70222 8457/ 333 11010;
0181010450999992013022306004+69833+021883FM-12+000699999V0203001N005010042019N0060001N1+00121+00031999999ADDAA112002092AA224001892AJ100169199999999AY181061AY221061GF108991051091004501021999IA1289MW1831REMSYN076AAXX  23061 01045 11456 83005 10012 20003 60022 78382 8592/ 333 44016 70018;
0114010450999992013022312004+69833+021883FM-12+000699999V0203001N005010042019N0100001N1+00181-00061999999ADDAY181061AY221061GF107991061091004501021999MW1831REMSYN054AAXX  23121 01045 41460 73005 10018 21006 78382 8692/;
0154010450999992013022318004+69833+021883FM-12+000699999V0203001N005010300019N0060001N1+00121+00081999999ADDAA112004191AY181061AY221061GF108991041091004501021999KA1999M+00201MW1831REMSYN070AAXX  23181 01045 11456 83005 10012 20008 60042 78382 8492/ 333 10020;
0200010450999992013022406004+69833+021883FM-12+000699999V0203201N003010042019N0060001N1+00141+00131999999ADDAA112013091AA224017091AJ100169199999999AY181061AY221061GF108991051071004501021999IA1289KA1999N+00041MW1611REMSYN082AAXX  24061 01045 11456 83203 10014 20013 60132 76182 8572/ 333 20004 44016 70170;
0114010450999992013022412004+69833+021883FM-12+000699999V0203001N005010042019N0100001N1+00221+00001999999ADDAY181061AY221061GF108991051091004501021999MW1801REMSYN054AAXX  24121 01045 41460 83005 10022 21000 78082 8592/;
0154010450999992013022418004+69833+021883FM-12+000699999V0203001N005010300019N0250001N1+00181+00121999999ADDAA112007991AY181061AY221061GF106991031091004501021081KA1999M+00301MW1831REMSYN070AAXX  24181 01045 11475 63005 10018 20012 60082 78382 83928 333 10030;
0140010450999992013022506004+69833+021883FM-12+000699999V02099999999999999999N9999999N1+00211+00201999999ADDAA112000891AA224008991AJ100159199999999IA1289KA1999N+00081REMSYN070AAXX  25061 01045 13/// ///// 10021 20020 69982 333 20008 44015 70090;
0094010450999992013022518004+69833+021883FM-12+000699999V02099999999999999999N9999999N1+00421+00091999999ADDAA112000591KA1999M+00521REMSYN058AAXX  25181 01045 13/// ///// 10042 20009 69962 333 10052;
0121010450999992013022606004+69833+021883FM-12+000699999V02099999999999999999N9999999N1+00121-00031999999ADDAA112004191AA224004691AJ100099199999999IA1309REMSYN064AAXX  26061 01045 13/// ///// 10012 21003 60042 333 42009 70046;
0094010450999992013022618004+69833+021883FM-12+000699999V02099999999999999999N9999999N1-00061-00201999999ADDAA112000591KA1999M+00591REMSYN058AAXX  26181 01045 13/// ///// 11006 21020 69952 333 10059;
0140010450999992013022706004+69833+021883FM-12+000699999V02099999999999999999N9999999N1-00121-00251999999ADDAA112000591AA224001091AJ100159199999999IA1289KA1999N-00371REMSYN070AAXX  27061 01045 13/// ///// 11012 21025 69952 333 21037 44015 70010;
0094010450999992013022718004+69833+021883FM-12+000699999V02099999999999999999N9999999N1+00301+00071999999ADDAA112006191KA1999M+00481REMSYN058AAXX  27181 01045 13/// ///// 10030 20007 60062 333 10048;
0181010450999992013022806004+69833+021883FM-12+000699999V0201401N003010300019N0300001N1+00161+00011999999ADDAA112009991AA224015791AJ100109199999999AY181061AY221061GF108991041091004501021999IA1289MW1151REMSYN076AAXX  28061 01045 11480 81403 10016 20001 60102 71582 8492/ 333 44010 70157;
0114010450999992013022812004+69833+021883FM-12+000699999V0201601N005010042019N0200001N1-00421-00621999999ADDAY181061AY221061GF108991061091004501021999MW1851REMSYN054AAXX  28121 01045 41470 81605 11042 21062 78582 8692/;
0154010450999992013022818004+69833+021883FM-12+000699999V0201601N005010075019N0750001N1-00501-00891999999ADDAA112000021AY181061AY221061GF107991051051008001071999KA1999M+00161MW1021REMSYN070AAXX  28181 01045 11589 71605 11050 21089 69912 70282 8557/ 333 10016;
0183010450999992013030106004+69833+021883FM-12+000699999V0201401N003012200019N0750001N1-01121-01441999999ADDAA124000021AJ100109199999999AY111061AY201061GF104991001001999999001081IA1289KA1999N-01251MW1021REMSYN076AAXX  01061 01045 31989 41403 11112 21144 70210 80008 333 21125 44010 70001;
0114010450999992013030112004+69833+021883FM-12+000699999V0201601N001019999999N0750001N1-00721-01431999999ADDAY101061AY201061GF106991001001999999001011MW1021REMSYN054AAXX  01121 01045 41989 61601 11072 21143 70200 80001;
0137010450999992013030118004+69833+021883FM-12+000699999V0201401N003012200019N0750001N1-00741-01241999999ADDAY101061AY201061GF103991021051012501001011KA1999M-00581MW1021REMSYN064AAXX  01181 01045 31689 31403 11074 21124 70200 82501 333 11058;
0202010450999992013030206004+69833+021883FM-12+000699999V0201601N005012200019N0750001N1-00521-01121999999ADDAA124000091AJ100109199999999AY101061AY201061GF103991011011012501041011IA1289KA1999N-00901MW1021REMSYN076AAXX  02061 01045 31689 31605 11052 21112 70200 81141 333 21090 44010 70000;EQDQ01  00002PRCP24
0114010450999992013030212004+69833+021883FM-12+000699999V0201801N005010300019N0750001N1-00621-01221999999ADDAY121061AY211061GF107991031051012501071081MW1021REMSYN054AAXX  02121 01045 41689 71805 11062 21122 70221 83578;
0137010450999992013030218004+69833+021883FM-12+000699999V0201801N005010075019N0750001N1-00781-01171999999ADDAY121061AY221061GF108991051051008001071081KA1999M-00501MW1021REMSYN064AAXX  02181 01045 31589 81805 11078 21117 70222 85578 333 11050;
0183010450999992013030306004+69833+021883FM-12+000699999V0201801N005010075019N0600001N1-00641-01101999999ADDAA124000091AJ100109199999999AY121061AY221061GF108991051051008001011999IA1289MW1021REMSYN070AAXX  03061 01045 31586 81805 11064 21110 70222 8551/ 333 44010 70000;EQDQ01  00002PRCP24
0114010450999992013030312004+69833+021883FM-12+000699999V0201801N005010750019N0750001N1-00521-01181999999ADDAY121061AY211061GF105991021051008001071011MW1021REMSYN054AAXX  03121 01045 41589 51805 11052 21118 70221 82571;
0137010450999992013030318004+69833+021883FM-12+000699999V0201801N003012200019N0750001N1-00561-01261999999ADDAY111061AY201061GF102991011041012501041001KA1999M-00501MW1021REMSYN064AAXX  03181 01045 31689 21803 11056 21126 70210 81440 333 11050;
0181010450999992013030406004+69833+021883FM-12+000699999V0201601N003010300019N0100001N1-00981-01201999999ADDAA112000021AA224000021AJ100109199999999AY181061AY221061GF108991041091004501021999IA1289MW1851REMSYN076AAXX  04061 01045 11460 81603 11098 21120 69902 78582 8492/ 333 44010 79999;
0114010450999992013030412004+69833+021883FM-12+000699999V0203001N007012200019N0300001N1-00141-00351999999ADDAY181061AY221061GF104991031091004501021011MW1261REMSYN054AAXX  04121 01045 41480 43007 11014 21035 72682 83921;
0154010450999992013030418004+69833+021883FM-12+000699999V0203001N005010300019N0550001N1-00421-00521999999ADDAA112002091AY181061AY221061GF105991031091004501021081KA1999M-00141MW1151REMSYN070AAXX  04181 01045 11485 53005 11042 21052 60022 71582 83928 333 11014;
0140010450999992013030506004+69833+021883FM-12+000699999V02099999999999999999N9999999N1-00651-01071999999ADDAA112000091AA224001891AJ100159199999999IA1289REMSYN064AAXX  05061 01045 13/// ///// 11065 21107 69912 333 44015 70017;EQDQ01  00002PRCP12
0077010450999992013030518004+69833+021883FM-12+000699999V02099999999999999999N9999999N1-00701-01031999999ADDKA1999M-00501REMSYN052AAXX  05181 01045 43/// ///// 11070 21103 333 11050;
0147010450999992013030606004+69833+021883FM-12+000699999V0201401N003012200019N0650001N1-01021-01131999999ADDAJ100159199999999AY111061AY201061GF103991021091004501001011IA1289MW1151REMSYN064AAXX  06061 01045 31487 31403 11102 21113 71510 82901 333 44015;
0114010450999992013030612004+69833+021883FM-12+000699999V0202101N001010300019N0050001N1-00501-00911999999ADDAY181061AY221061GF108991041091004501021999MW1851REMSYN054AAXX  06121 01045 41450 82101 11050 21091 78582 8492/;
0154010450999992013030618004+69833+021883FM-12+000699999V0203001N003012200019N0750001N1-00561-00861999999ADDAA112004191AY181061AY221061GF102991021031008001001071KA1999M-00281MW1021REMSYN070AAXX  06181 01045 11589 23003 11056 21086 60042 70282 82307 333 11028;
0183010450999992013030706004+69833+021883FM-12+000699999V0201601N003010042019N0060001N1-00641-00751999999ADDAA124003691AJ100209199999999AY121061AY211061GF108991051091004501021999IA1289KA1999N-00861MW1151REMSYN076AAXX  07061 01045 31456 81603 11064 21075 71521 8592/ 333 21086 44020 70035;
0154010450999992013030718004+69833+021883FM-12+000699999V0201801N001010300019N0200001N1-00621-00681999999ADDAA112002091AY181061AY221061GF106991031091004501021001KA1999M-00451MW1151REMSYN070AAXX  07181 01045 11470 61801 11062 21068 60022 71582 83920 333 11045;
0200010450999992013030806004+69833+021883FM-12+000699999V0203201N005010300019N0600001N1-00661-00791999999ADDAA112004191AA224006191AJ100309199999999AY181061AY221061GF105991041091004501071001IA1249KA1999N-00721MW1151REMSYN082AAXX  08061 01045 11486 53205 11066 21079 60042 71582 84970 333 21072 48030 70062;
0114010450999992013030812004+69833+021883FM-12+000699999V0203001N007010300019N0250001N1-00481-00921999999ADDAY181061AY221061GF106991041091004501021001MW1851REMSYN054AAXX  08121 01045 41475 63007 11048 21092 78582 84920;
0154010450999992013030818004+69833+021883FM-12+000699999V0201401N001010750019N0750001N1-00841-00961999999ADDAA112001091AY181061AY221061GF105991021081008001071081KA1999M-00401MW1021REMSYN070AAXX  08181 01045 11589 51401 11084 21096 60012 70282 82878 333 11040;
0183010450999992013030906004+69833+021883FM-12+000699999V0201401N001010300019N0300001N1-00861-01101999999ADDAA124001391AJ100289199999999AY121061AY221061GF106991041091004501071001IA1289KA1999N-01041MW1151REMSYN076AAXX  09061 01045 31480 61401 11086 21110 71522 84970 333 21104 44028 70012;
0114010450999992013030912004+69833+021883FM-12+000699999V0203001N005010300019N0600001N1-00441-00991999999ADDAY181061AY221061GF106991031091004501021081MW1151REMSYN054AAXX  09121 01045 41486 63005 11044 21099 71582 83928;
0154010450999992013030918004+69833+021883FM-12+000699999V0203201N007010042019N0100001N1-00381-00521999999ADDAA112002091AY181061AY231061GF108991051091004501021999KA1999M-00261MW1851REMSYN070AAXX  09181 01045 11460 83207 11038 21052 60022 78583 8592/ 333 11026;
0200010450999992013031006004+69833+021883FM-12+000699999V0203201N007010300019N0500001N1-00361-00411999999ADDAA112000891AA224003091AJ100309199999999AY181061AY221061GF106991041091004501021081IA1289KA1999N-00421MW1151REMSYN082AAXX  10061 01045 11484 63207 11036 21041 69982 71582 84928 333 21042 44030 70030;
0114010450999992013031012004+69833+021883FM-12+000699999V0203201N005010042019N0060001N1-00421-00641999999ADDAY181061AY231061GF108991051091004501021999MW1851REMSYN054AAXX  10121 01045 41456 83205 11042 21064 78583 8592/;
0154010450999992013031018004+69833+021883FM-12+000699999V0203001N005010042019N0500001N1-00441-00581999999ADDAA112000021AY181061AY221061GF108991051091004501021999KA1999M-00301MW1151REMSYN070AAXX  10181 01045 11484 83005 11044 21058 69912 71582 8592/ 333 11030;
0159010450999992013031106004+69833+021883FM-12+000699999V02099999999999999999N9999999N1-00581-00821999999ADDAA112000091AA224000391AJ100309199999999IA1289KA1999N-00581REMSYN070AAXX  11061 01045 13/// ///// 11058 21082 69922 333 21058 44030 70003;EQDQ01  00002PRCP12
0077010450999992013031118004+69833+021883FM-12+000699999V02099999999999999999N9999999N1-00921-01241999999ADDKA1999M-00231REMSYN052AAXX  11181 01045 43/// ///// 11092 21124 333 11023;
0123010450999992013031206004+69833+021883FM-12+000699999V02099999999999999999N9999999N1-00781-00791999999ADDAA112004191AJ100349199999999IA1239KA1999N-01001REMSYN064AAXX  12061 01045 13/// ///// 11078 21079 60042 333 21100 47034;
0094010450999992013031218004+69833+021883FM-12+000699999V02099999999999999999N9999999N1-00651-00771999999ADDAA112002091KA1999M-00541REMSYN058AAXX  12181 01045 13/// ///// 11065 21077 60022 333 11054;
0140010450999992013031306004+69833+021883FM-12+000699999V02099999999999999999N9999999N1-00601-00911999999ADDAA112001091AA224003691AJ100389199999999IA1239KA1999N-00701REMSYN070AAXX  13061 01045 13/// ///// 11060 21091 60012 333 21070 47038 70035;
0077010450999992013031318004+69833+021883FM-12+000699999V02099999999999999999N9999999N1-00571-00961999999ADDKA1999M-00291REMSYN052AAXX  13181 01045 43/// ///// 11057 21096 333 11029;
0166010450999992013031406004+69833+021883FM-12+000699999V0201401N005012200019N0750001N1-01381-01801999999ADDAJ100369199999999AY101061AY201061GF102991001001999999001081IA1289KA1999N-01441MW1021REMSYN070AAXX  14061 01045 31989 21405 11138 21180 70200 80008 333 21144 44036;
0124010450999992013031412004+69833+021883FM-12+000699999V0201401N003012200019N0750001N1-00921-01681999999ADDAY101061AY201061GA1001+999999999GF100991001001999999001001MW1021REMSYN048AAXX  14121 01045 41989 01403 11092 21168 70200;
0137010450999992013031418004+69833+021883FM-12+000699999V0201401N005012200019N0750001N1-01321-01741999999ADDAY101061AY201061GF102991011041012501001081KA1999M-00801MW1021REMSYN064AAXX  14181 01045 31689 21405 11132 21174 70200 81408 333 11080;
0212010450999992013031506004+69833+021883FM-12+000699999V0201601N005012200019N0750001N1-01401-01711999999ADDAA124000091AJ100349199999999AY101061AY201061GA1001+999999999GF100991001001999999001001IA1289KA1999N-01541MW1021REMSYN070AAXX  15061 01045 31989 01605 11140 21171 70200 333 21154 44034 70000;EQDQ01  00002PRCP24
0124010450999992013031512004+69833+021883FM-12+000699999V0201601N005012200019N0750001N1-00881-01521999999ADDAY101061AY201061GA1001+999999999GF100991001001999999001001MW1021REMSYN048AAXX  15121 01045 41989 01605 11088 21152 70200;
0137010450999992013031518004+69833+021883FM-12+000699999V0201601N005012200019N0750001N1-01281-01621999999ADDAY131061AY201061GF102991001001999999001081KA1999M-00841MW1021REMSYN064AAXX  15181 01045 31989 21605 11128 21162 70230 80008 333 11084;
0166010450999992013031706004+69833+021883FM-12+000699999V0201801N005010075019N0650001N1-00501-00991999999ADDAJ100289199999999AY121061AY221061GF108991061051008001011999IA1289KA1999N-00881MW1021REMSYN070AAXX  17061 01045 31587 81805 11050 21099 70222 8651/ 333 21088 44028;
0114010450999992013031712004+69833+021883FM-12+000699999V0201601N007010120019N0650001N1-00221-00801999999ADDAY131061AY221061GF108991051081008001011999MW1021REMSYN054AAXX  17121 01045 41587 81607 11022 21080 70232 8581/;
0137010450999992013031718004+69833+021883FM-12+000699999V0201801N005010120019N0650001N1-00161-00611999999ADDAY121061AY221061GF108991051081008001071999KA1999M-00141MW1021REMSYN064AAXX  17181 01045 31587 81805 11016 21061 70222 8587/ 333 11014;
0202010450999992013031806004+69833+021883FM-12+000699999V0201801N005010120019N0750001N1-00141-00631999999ADDAA124000091AJ100189199999999AY121061AY221061GF108991051081008001071999IA1309KA1999N-00281MW1021REMSYN076AAXX  18061 01045 31589 81805 11014 21063 70222 8587/ 333 21028 42018 70000;EQDQ01  00002PRCP24
0114010450999992013031812004+69833+021883FM-12+000699999V0201801N005010300019N0750001N1+00141-00571999999ADDAY121061AY221061GF107991031051008001071081MW1021REMSYN054AAXX  18121 01045 41589 71805 10014 21057 70222 83578;
0137010450999992013031818004+69833+021883FM-12+000699999V0201801N003010300019N0750001N1-00061-00611999999ADDAY121061AY221061GF107991031081008001071081KA1999M+00181MW1021REMSYN064AAXX  18181 01045 31589 71803 11006 21061 70222 83878 333 10018;
0202010450999992013031906004+69833+021883FM-12+000699999V0201801N005010750019N0750001N1-00141-01251999999ADDAA124000091AJ100169199999999AY121061AY211061GF106991011041012501001081IA1309KA1999N-00461MW1021REMSYN076AAXX  19061 01045 31689 61805 11014 21125 70221 81408 333 21046 42016 70000;EQDQ01  00002PRCP24
0114010450999992013031912004+69833+021883FM-12+000699999V0201801N005010300019N0750001N1-00481-01341999999ADDAY121061AY221061GF107991031051012501071081MW1021REMSYN054AAXX  19121 01045 41689 71805 11048 21134 70222 83578;
0137010450999992013031918004+69833+021883FM-12+000699999V0201801N005010300019N0750001N1-00621-01321999999ADDAY121061AY221061GF107991031081008001071999KA1999M-00101MW1021REMSYN064AAXX  19181 01045 31589 71805 11062 21132 70222 8387/ 333 11010;
0202010450999992013032006004+69833+021883FM-12+000699999V0201601N003012200019N0750001N1-00401-01471999999ADDAA124000091AJ100169199999999AY111061AY201061GF102991001001999999001081IA1309KA1999N-00701MW1021REMSYN076AAXX  20061 01045 31989 21603 11040 21147 70210 80008 333 21070 42016 70000;EQDQ01  00002PRCP24
0147010450999992013032018004+69833+021883FM-12+000699999V0201801N003012200019N0750001N1-00421-01111999999ADDAY101061AY201061GA1001+999999999GF100991001001999999001001KA1999M-00151MW1021REMSYN058AAXX  20181 01045 31989 01803 11042 21111 70200 333 11015;
0106010450999992013032106004+69833+021883FM-12+000699999V02099999999999999999N9999999N1-00451-00711999999ADDAJ100109199999999IA1309KA1999N-00681REMSYN058AAXX  21061 01045 43/// ///// 11045 21071 333 21068 42010;
0077010450999992013032118004+69833+021883FM-12+000699999V02099999999999999999N9999999N1-00321-00841999999ADDKA1999M-00091REMSYN052AAXX  21181 01045 43/// ///// 11032 21084 333 11009;
0106010450999992013032206004+69833+021883FM-12+000699999V02099999999999999999N9999999N1+00041-00691999999ADDAJ100109199999999IA1309KA1999N-00321REMSYN058AAXX  22061 01045 43/// ///// 10004 21069 333 21032 42010;
0114010450999992013032212004+69833+021883FM-12+000699999V0203001N005010042019N0100001N1-00101-00291999999ADDAY181061AY221061GF108991051091004501021999MW1851REMSYN054AAXX  22121 01045 41460 83005 11010 21029 78582 8592/;
0154010450999992013032218004+69833+021883FM-12+000699999V0203001N005010042019N0100001N1-00081-00361999999ADDAA112000021AY181061AY221061GF108991051091004501021999KA1999M+00121MW1851REMSYN070AAXX  22181 01045 11460 83005 11008 21036 69902 78582 8592/ 333 10012;
0200010450999992013032306004+69833+021883FM-12+000699999V0203201N005010042019N0060001N1-00081-00291999999ADDAA112000021AA224000021AJ100109199999999AY181061AY221061GF108991051091004501021999IA1309KA1999N-00181MW1851REMSYN082AAXX  23061 01045 11456 83205 11008 21029 69912 78582 8592/ 333 21018 42010 70001;
0114010450999992013032312004+69833+021883FM-12+000699999V0203001N005010042019N0200001N1+00101-00201999999ADDAY181061AY221061GF107991051091004501021001MW1851REMSYN054AAXX  23121 01045 41470 73005 10010 21020 78582 85920;
0154010450999992013032318004+69833+021883FM-12+000699999V0203001N005010300019N0100001N1+00021-00281999999ADDAA112001091AY181061AY221061GF108991041091004501021081KA1999M+00161MW1831REMSYN070AAXX  23181 01045 11460 83005 10002 21028 60012 78382 84928 333 10016;
0200010450999992013032406004+69833+021883FM-12+000699999V0203001N005010042019N0150001N1+00061-00181999999ADDAA112001091AA224002591AJ100209199999999AY181061AY221061GF108991051091004501021999IA1289KA1999N-00041MW1851REMSYN082AAXX  24061 01045 11465 83005 10006 21018 60012 78582 8592/ 333 21004 44020 70026;
0114010450999992013032412004+69833+021883FM-12+000699999V0202801N005010042019N0080001N1+00041-00331999999ADDAY181061AY221061GF108991051091004501021999MW1851REMSYN054AAXX  24121 01045 41458 82805 10004 21033 78582 8592/;
0154010450999992013032418004+69833+021883FM-12+000699999V0202701N005010300019N0200001N1-00021-00451999999ADDAA112001091AY181061AY221061GF105991041091004501021001KA1999M+00141MW1851REMSYN070AAXX  24181 01045 11470 52705 11002 21045 60012 78582 84920 333 10014;
0200010450999992013032506004+69833+021883FM-12+000699999V0203001N005010042019N0250001N1-00141-00381999999ADDAA112000591AA224001591AJ100259199999999AY181061AY221061GF107991051091004501021999IA1289KA1999N-00201MW1851REMSYN082AAXX  25061 01045 11475 73005 11014 21038 69952 78582 8592/ 333 21020 44025 70015;
0114010450999992013032512004+69833+021883FM-12+000699999V0203001N005010300019N0400001N1-00041-00631999999ADDAY181061AY221061GF106991031091004501071001MW1151REMSYN054AAXX  25121 01045 41482 63005 11004 21063 71582 83970;
0154010450999992013032518004+69833+021883FM-12+000699999V0209999C000010300019N0600001N1-00101-00761999999ADDAA112000021AY121061AY221061GF107991021091008001071081KA1999M+00001MW1151REMSYN070AAXX  25181 01045 11586 70000 11010 21076 69912 71522 82978 333 10000;
0114010450999992013032612004+69833+021883FM-12+000699999V0201601N005010300019N0750001N1-00101-00891999999ADDAY121061AY221061GF106991021041012501071081MW1021REMSYN054AAXX  26121 01045 41689 61605 11010 21089 70222 82478;
0137010450999992013032618004+69833+021883FM-12+000699999V0201801N007010300019N0650001N1-00341-00881999999ADDAY121061AY221061GF108991031081008001071999KA1999M-00041MW1021REMSYN064AAXX  26181 01045 31587 81807 11034 21088 70222 8387/ 333 11004;
0200010450999992013032706004+69833+021883FM-12+000699999V0201801N005010042019N0015001N1-00421-00521999999ADDAA112000391AA224000391AJ100279199999999AY181061AY221061GF108991061091004501021999IA1289KA1999N-00441MW1861REMSYN082AAXX  27061 01045 11415 81805 11042 21052 69932 78682 8692/ 333 21044 44027 70003;
0114010450999992013032712004+69833+021883FM-12+000699999V0201801N003012200019N0750001N1-00021-01141999999ADDAY121061AY211061GF103991021081012501071011MW1021REMSYN054AAXX  27121 01045 41689 31803 11002 21114 70221 82871;
0154010450999992013032718004+69833+021883FM-12+000699999V0202001N003010042019N0200001N1-00101-00821999999ADDAA112000021AY121061AY221061GF108991051091004501021999KA1999M+00061MW1151REMSYN070AAXX  27181 01045 11470 82003 11010 21082 69922 71522 8592/ 333 10006;
0200010450999992013032806004+69833+021883FM-12+000699999V0202701N005010300019N0300001N1-00261-00541999999ADDAA112001091AA224001391AJ100289199999999AY181061AY221061GF107991031091004501071001IA1249KA1999N-00361MW1851REMSYN082AAXX  28061 01045 11480 72705 11026 21054 60012 78582 83970 333 21036 48028 70012;
0154010450999992013032818004+69833+021883FM-12+000699999V0201801N005010300019N0650001N1-00321-00931999999ADDAA112000021AY121061AY221061GF107991031091004501071999KA1999M+00021MW1151REMSYN070AAXX  28181 01045 11487 71805 11032 21093 69902 71522 8397/ 333 10002;
0219010450999992013032906004+69833+021883FM-12+000699999V0201601N003012200019N0750001N1-00681-01011999999ADDAA112000091AA224000021AJ100289199999999AY181061AY221061GF103991021091004501001081IA1249KA1999N-00751MW1151REMSYN082AAXX  29061 01045 11489 31603 11068 21101 69902 71582 82908 333 21075 48028 79999;EQDQ01  00002PRCP12
0114010450999992013032912004+69833+021883FM-12+000699999V0201801N005010750019N0750001N1-00141-00951999999ADDAY121061AY221061GF105991021081008001071081MW1021REMSYN054AAXX  29121 01045 41589 51805 11014 21095 70222 82878;
0137010450999992013032918004+69833+021883FM-12+000699999V0201801N003012200019N0750001N1-00281-00951999999ADDAY121061AY211061GF104991031081008001071081KA1999M-00041MW1021REMSYN064AAXX  29181 01045 31589 41803 11028 21095 70221 83878 333 11004;
0202010450999992013033006004+69833+021883FM-12+000699999V0201601N001010750019N0750001N1-00381-01091999999ADDAA124000091AJ100279199999999AY121061AY221061GF105991021081008001031081IA1289KA1999N-00421MW1021REMSYN076AAXX  30061 01045 31589 51601 11038 21109 70222 82838 333 21042 44027 70000;EQDQ01  00002PRCP24
0114010450999992013033012004+69833+021883FM-12+000699999V0202701N003012200019N0750001N1+00121-00591999999ADDAY121061AY211061GF104991021091008001071011MW1151REMSYN054AAXX  30121 01045 41589 42703 10012 21059 71521 82971;
0137010450999992013033018004+69833+021883FM-12+000699999V0201801N003010300019N0650001N1-00081-00661999999ADDAY121061AY221061GF108991031091008001071999KA1999M+00161MW1151REMSYN064AAXX  30181 01045 31587 81803 11008 21066 71522 8397/ 333 10016;
0200010450999992013033106004+69833+021883FM-12+000699999V0201601N003010300019N0600001N1-00401-00501999999ADDAA112000021AA224000391AJ100259199999999AY181061AY221061GF108991041091004501021999IA1289KA1999N-00401MW1261REMSYN082AAXX  31061 01045 11486 81603 11040 21050 69922 72682 8492/ 333 21040 44025 70002;
0114010450999992013033112004+69833+021883FM-12+000699999V0209999C000010300019N0050001N1-00121-00491999999ADDAY181061AY221061GF108991041091002501021999MW1851REMSYN054AAXX  31121 01045 41350 80000 11012 21049 78582 8492/;
0154010450999992013033118004+69833+021883FM-12+000699999V0201201N001010300019N0750001N1-00241-00501999999ADDAA112000021AY181061AY221061GF106991031081004501041011KA1999M-00041MW1021REMSYN070AAXX  31181 01045 11489 61201 11024 21050 69912 70282 83841 333 11004;
0200010450999992013040106004+69833+021883FM-12+000699999V0202601N005010042019N0050001N1-00241-00351999999ADDAA112001091AA224001391AJ100289199999999AY181061AY221061GF108991051091004501021999IA1249KA1999N-00481MW1851REMSYN082AAXX  01061 01045 11450 82605 11024 21035 60012 78582 8592/ 333 21048 48028 70013;
0114010450999992013040112004+69833+021883FM-12+000699999V0201801N003010750019N0750001N1+00101-00951999999ADDAY181061AY221061GF105991011021012501041011MW1021REMSYN054AAXX  01121 01045 41689 51803 10010 21095 70282 81241;
0154010450999992013040118004+69833+021883FM-12+000699999V0201801N003010300019N0750001N1+00011-00741999999ADDAA112000021AY131061AY221061GF108991041081008001071999KA1999M+00141MW1021REMSYN070AAXX  01181 01045 11589 81803 10001 21074 69902 70232 8487/ 333 10014;
0183010450999992013040206004+69833+021883FM-12+000699999V0201601N003010300019N0750001N1-00321-00501999999ADDAA124000021AJ100259199999999AY121061AY221061GF106991041091004501071011IA1289KA1999N-00321MW1151REMSYN076AAXX  02061 01045 31489 61603 11032 21050 71522 84971 333 21032 44025 79999;
0114010450999992013040212004+69833+021883FM-12+000699999V0203001N003010042019N0008001N1-00061-00401999999ADDAY171061AY221061GF108991061071004501021999MW1731REMSYN054AAXX  02121 01045 41408 83003 11006 21040 77372 8672/;
0154010450999992013040218004+69833+021883FM-12+000699999V0203001N007010300019N0300001N1+00001-00311999999ADDAA112003091AY181061AY231061GF108991031091004501021999KA1999M+00081MW1151REMSYN070AAXX  02181 01045 11480 83007 10000 21031 60032 71583 8392/ 333 10008;
0219010450999992013040306004+69833+021883FM-12+000699999V0203001N003010300019N0750001N1-00121-00721999999ADDAA112000091AA224002891AJ100289199999999AY181061AY221061GF106991021061004501041081IA1289KA1999N-00201MW1021REMSYN082AAXX  03061 01045 11489 63003 11012 21072 69912 70282 82648 333 21020 44028 70029;EQDQ01  00002PRCP12
0114010450999992013040312004+69833+021883FM-12+000699999V0201801N003010300019N0750001N1-00061-00921999999ADDAY121061AY221061GF108991031051008001071081MW1021REMSYN054AAXX  03121 01045 41589 81803 11006 21092 70222 83578;
0154010450999992013040318004+69833+021883FM-12+000699999V0203001N003010300019N0060001N1-00341-00521999999ADDAA112000021AY181061AY221061GF108991041091004501021999KA1999M-00021MW1851REMSYN070AAXX  03181 01045 11456 83003 11034 21052 69922 78582 8492/ 333 11002;
0200010450999992013040406004+69833+021883FM-12+000699999V0203001N005010042019N0150001N1-00161-00561999999ADDAA112002091AA224002391AJ100309199999999AY181061AY231061GF108991051091004501021999IA1289KA1999N-00361MW1851REMSYN082AAXX  04061 01045 11465 83005 11016 21056 60022 78583 8592/ 333 21036 44030 70024;
0114010450999992013040412004+69833+021883FM-12+000699999V0203001N005012200019N0750001N1+00001-00791999999ADDAY121061AY211061GF103991021021008001001011MW1021REMSYN054AAXX  04121 01045 41589 33005 10000 21079 70221 82201;
0154010450999992013040418004+69833+021883FM-12+000699999V0202801N005010120019N0650001N1-00201-00801999999ADDAA112000021AY111061AY201061GF108991061081008001071999KA1999M+00041MW1031REMSYN070AAXX  04181 01045 11587 82805 11020 21080 69912 70310 8687/ 333 10004;
0219010450999992013040506004+69833+021883FM-12+000699999V0201201N003012200019N0650001N1-00441-00591999999ADDAA112000091AA224000391AJ100309199999999AY181061AY221061GF104991031091004501071001IA1289KA1999N-00481MW1151REMSYN082AAXX  05061 01045 11487 41203 11044 21059 69912 71582 83970 333 21048 44030 70002;EQDQ01  00002PRCP12
0114010450999992013040512004+69833+021883FM-12+000699999V0203001N005010042019N0200001N1-00041-00501999999ADDAY181061AY221061GF108991051091004501021999MW1851REMSYN054AAXX  05121 01045 41470 83005 11004 21050 78582 8592/;
0154010450999992013040518004+69833+021883FM-12+000699999V0203001N005010042019N0050001N1-00161-00341999999ADDAA112000891AY181061AY271061GF108991051071004501021999KA1999M+00061MW1701REMSYN070AAXX  05181 01045 11450 83005 11016 21034 69982 77087 8572/ 333 10006;
0200010450999992013040606004+69833+021883FM-12+000699999V0203001N003010075019N0650001N1-00081-00541999999ADDAA112000591AA224001391AJ100289199999999AY181061AY221061GF107991051031008001071081IA1289KA1999N-00161MW1021REMSYN082AAXX  06061 01045 11587 73003 11008 21054 69942 70282 85378 333 21016 44028 70012;
0173010450999992013040618004+69833+021883FM-12+000699999V0203001N003010300019N0750001N1-00281-00711999999ADDAA112000091AY181061AY221061GF106991031091008001071001KA1999M-00041MW1151REMSYN070AAXX  06181 01045 11589 63003 11028 21071 69902 71582 83970 333 11004;EQDQ01  00002PRCP12
0200010450999992013040706004+69833+021883FM-12+000699999V0203001N005010042019N0030001N1-00521-00681999999ADDAA112002092AA224001892AJ100359199999999AY181061AY221061GF108991051091004501021999IA1289KA1999N-00661MW1851REMSYN082AAXX  07061 01045 11430 83005 11052 21068 60022 78582 8592/ 333 21066 44035 70018;
0114010450999992013040712004+69833+021883FM-12+000699999V0202101N001010300019N0300001N1-00261-01201999999ADDAY181061AY221061GF108991031091004501071081MW1151REMSYN054AAXX  07121 01045 41480 82101 11026 21120 71582 83978;
0154010450999992013040718004+69833+021883FM-12+000699999V0203001N003010042019N0200001N1-00281-00841999999ADDAA112000591AY181061AY221061GF108991051091004501021999KA1999M-00181MW1261REMSYN070AAXX  07181 01045 11470 83003 11028 21084 69952 72682 8592/ 333 11018;
0200010450999992013040806004+69833+021883FM-12+000699999V0203201N005010300019N0500001N1-00481-00811999999ADDAA112003091AA224003091AJ100409199999999AY181061AY231061GF106991041031004501071081IA1289KA1999N-00561MW1151REMSYN082AAXX  08061 01045 11484 63205 11048 21081 60032 71583 84378 333 21056 44040 70030;
0114010450999992013040812004+69833+021883FM-12+000699999V0203001N005010300019N0300001N1-00461-00811999999ADDAY181061AY221061GF106991031091004501071001MW1261REMSYN054AAXX  08121 01045 41480 63005 11046 21081 72682 83970;
0154010450999992013040818004+69833+021883FM-12+000699999V0202801N003010300019N0300001N1-00661-00921999999ADDAA112000391AY181061AY221061GF105991031091004501071001KA1999M-00401MW1261REMSYN070AAXX  08181 01045 11480 52803 11066 21092 69932 72682 83970 333 11040;
0200010450999992013040906004+69833+021883FM-12+000699999V0201601N003012200019N0750001N1-00681-01151999999ADDAA112000021AA224000391AJ100389199999999AY131061AY201061GF103991001001999999001011IA1289KA1999N-01151MW1021REMSYN082AAXX  09061 01045 11989 31603 11068 21115 69902 70230 80001 333 21115 44038 70003;
0114010450999992013040912004+69833+021883FM-12+000699999V0201801N003012200019N0750001N1-00401-01381999999ADDAY111061AY201061GF104991011041012501001081MW1021REMSYN054AAXX  09121 01045 41689 41803 11040 21138 70210 81408;
0137010450999992013040918004+69833+021883FM-12+000699999V0201601N005010300019N0750001N1-00521-01101999999ADDAY121061AY211061GF106991041051008001041081KA1999M-00341MW1021REMSYN064AAXX  09181 01045 31589 61605 11052 21110 70221 84548 333 11034;
0202010450999992013041006004+69833+021883FM-12+000699999V0201801N003010300019N0750001N1+00001-00511999999ADDAA124000091AJ100359199999999AY121061AY211061GF105991031031008001041001IA1289KA1999N-00721MW1151REMSYN076AAXX  10061 01045 31589 51803 10000 21051 71521 83340 333 21072 44035 70000;EQDQ01  00002PRCP24
0114010450999992013041012004+69833+021883FM-12+000699999V0201801N005010300019N0750001N1+00221-00961999999ADDAY121061AY221061GF107991031051008001041081MW1021REMSYN054AAXX  10121 01045 41589 71805 10022 21096 70222 83548;
0137010450999992013041018004+69833+021883FM-12+000699999V0201801N003010300019N0750001N1+00181-00651999999ADDAY121061AY221061GF108991041081008001071081KA1999M+00341MW1021REMSYN064AAXX  10181 01045 31589 81803 10018 21065 70222 84878 333 10034;
0202010450999992013041106004+69833+021883FM-12+000699999V0201801N003010120019N0750001N1+00321-00591999999ADDAA124000091AJ100339199999999AY121061AY221061GF108991051081008001071999IA1289KA1999N+00151MW1021REMSYN076AAXX  11061 01045 31589 81803 10032 21059 70222 8587/ 333 20015 44033 70000;EQDQ01  00002PRCP24
0114010450999992013041112004+69833+021883FM-12+000699999V0201601N003012200019N0750001N1+00341-00431999999ADDAY121061AY211061GF103991011041012501001081MW1021REMSYN054AAXX  11121 01045 41689 31603 10034 21043 70221 81408;
0137010450999992013041118004+69833+021883FM-12+000699999V0201801N003012200019N0750001N1+00221-00541999999ADDAY101061AY201061GF102991011011012501001081KA1999M+00621MW1021REMSYN064AAXX  11181 01045 31689 21803 10022 21054 70200 81108 333 10062;
0202010450999992013041206004+69833+021883FM-12+000699999V0201401N003012200019N0750001N1-00221-01021999999ADDAA124000091AJ100289199999999AY101061AY201061GF102991001001999999001081IA1289KA1999N-00401MW1021REMSYN076AAXX  12061 01045 31989 21403 11022 21102 70200 80008 333 21040 44028 70000;EQDQ01  00002PRCP24
0124010450999992013041212004+69833+021883FM-12+000699999V0201801N005012200019N0750001N1+00281-00791999999ADDAY101061AY201061GA1001+999999999GF100991001001999999001001MW1021REMSYN048AAXX  12121 01045 41989 01805 10028 21079 70200;
0147010450999992013041218004+69833+021883FM-12+000699999V0202001N005012200019N0750001N1+00121-00751999999ADDAY101061AY201061GA1001+999999999GF100991001001999999001001KA1999M+00351MW1021REMSYN058AAXX  12181 01045 31989 02005 10012 21075 70200 333 10035;
0202010450999992013041306004+69833+021883FM-12+000699999V0209999C000012200019N0750001N1+00161-00551999999ADDAA124000091AJ100269199999999AY101061AY201061GF102991001001999999001081IA1289KA1999N-00161MW1021REMSYN076AAXX  13061 01045 31989 20000 10016 21055 70200 80008 333 21016 44026 70000;EQDQ01  00002PRCP24
0114010450999992013041312004+69833+021883FM-12+000699999V0203201N001012200019N0750001N1+00361-00581999999ADDAY101061AY201061GF103991011021012501001081MW1021REMSYN054AAXX  13121 01045 41689 33201 10036 21058 70200 81208;
0137010450999992013041318004+69833+021883FM-12+000699999V0201801N003012200019N0750001N1+00221-00471999999ADDAY101061AY201061GF103991011021012501001081KA1999M+00521MW1021REMSYN064AAXX  13181 01045 31689 31803 10022 21047 70200 81208 333 10052;
0202010450999992013041406004+69833+021883FM-12+000699999V0201401N003012200019N0750001N1-00201-00621999999ADDAA124000091AJ100259199999999AY101061AY201061GF103991001001999999001081IA1289KA1999N-00381MW1021REMSYN076AAXX  14061 01045 31989 31403 11020 21062 70200 80008 333 21038 44025 70000;EQDQ01  00002PRCP24
0114010450999992013041412004+69833+021883FM-12+000699999V0209999C000012200019N0750001N1+00321-00471999999ADDAY101061AY201061GF103991021041012501001081MW1021REMSYN054AAXX  14121 01045 41689 30000 10032 21047 70200 82408;
0137010450999992013041418004+69833+021883FM-12+000699999V0201601N003010300019N0750001N1+00201-00471999999ADDAY121061AY211061GF108991031051008001071081KA1999M+00561MW1021REMSYN064AAXX  14181 01045 31589 81603 10020 21047 70221 83578 333 10056;
0202010450999992013041506004+69833+021883FM-12+000699999V0203201N001010120019N0750001N1+00321-00171999999ADDAA124000091AJ100249199999999AY121061AY221061GF107991051081008001071011IA1289KA1999N+00081MW1021REMSYN076AAXX  15061 01045 31589 73201 10032 21017 70222 85871 333 20008 44024 70000;EQDQ01  00002PRCP24
0137010450999992013041518004+69833+021883FM-12+000699999V0209999C000010300019N0750001N1+00401-00421999999ADDAY111061AY201061GF105991031081012501031011KA1999M+00841MW1021REMSYN064AAXX  15181 01045 31689 50000 10040 21042 70210 83831 333 10084;
0202010450999992013041606004+69833+021883FM-12+000699999V0201401N003010300019N0750001N1+00621+00211999999ADDAA124000091AJ100229199999999AY121061AY221061GF108991031051008001071999IA1309KA1999N+00161MW1021REMSYN076AAXX  16061 01045 31589 81403 10062 20021 70222 8357/ 333 20016 42022 70000;EQDQ01  00002PRCP24
0114010450999992013041612004+69833+021883FM-12+000699999V0201801N003012200019N0750001N1+01021+00211999999ADDAY121061AY211061GF104991021081012501071011MW1021REMSYN054AAXX  16121 01045 41689 41803 10102 20021 70221 82871;
0137010450999992013041618004+69833+021883FM-12+000699999V0201601N003010300019N0750001N1+00841+00021999999ADDAY121061AY211061GF106991031081008001071081KA1999M+01081MW1021REMSYN064AAXX  16181 01045 31589 61603 10084 20002 70221 83878 333 10108;
0137010450999992013041718004+69833+021883FM-12+000699999V0209999C000010300019N0750001N1+00461+00091999999ADDAY121061AY221061GF108991041051008001071999KA1999M+00641MW1021REMSYN064AAXX  17181 01045 31589 80000 10046 20009 70222 8457/ 333 10064;
0202010450999992013041806004+69833+021883FM-12+000699999V0201401N001010300019N0750001N1+00541+00481999999ADDAA124000091AJ100129199999999AY121061AY221061GF106991031051008001031011IA1309KA1999N+00161MW1021REMSYN076AAXX  18061 01045 31589 61401 10054 20048 70222 83531 333 20016 42012 70000;EQDQ01  00002PRCP24
0114010450999992013041812004+69833+021883FM-12+000699999V0201801N003010300019N0750001N1+00661+00191999999ADDAY121061AY221061GF108991041051008001071081MW1021REMSYN054AAXX  18121 01045 31589 81803 10066 20019 70222 84578;
0137010450999992013041818004+69833+021883FM-12+000699999V0201601N003010120019N0750001N1+00581+00101999999ADDAY121061AY221061GF108991051081008001071999KA1999M+00761MW1021REMSYN064AAXX  18181 01045 31589 81603 10058 20010 70222 8587/ 333 10076;
0200010450999992013041906004+69833+021883FM-12+000699999V0203001N005010120019N0650001N1+00281+00151999999ADDAA112002092AA224001592AJ100109199999999AY181061AY221061GF108991051081008001071999IA1259KA1999N+00221MW1021REMSYN082AAXX  19061 01045 11587 83005 10028 20015 60022 70282 8587/ 333 20022 41010 70016;
0114010450999992013041912004+69833+021883FM-12+000699999V0203201N003010042019N0100001N1+00381+00261999999ADDAY161061AY221061GF108991051071004501021999MW1601REMSYN054AAXX  19121 01045 41460 83203 10038 20026 76062 8572/;
0154010450999992013041918004+69833+021883FM-12+000699999V0203201N003010042019N0100001N1+00341+00151999999ADDAA112000591AY161061AY221061GF108991061071004501021999KA1999M+00401MW1601REMSYN070AAXX  19181 01045 11460 83203 10034 20015 69952 76062 8672/ 333 10040;
0200010450999992013042006004+69833+021883FM-12+000699999V0203201N005010042019N0200001N1+00321-00271999999ADDAA112000591AA224001091AJ100109199999999AY181061AY221061GF108991051091004501021999IA1259KA1999N+00241MW1151REMSYN082AAXX  20061 01045 11470 83205 10032 21027 69952 71582 8592/ 333 20024 41010 70010;
0114010450999992013042012004+69833+021883FM-12+000699999V0203601N005010120019N0750001N1+00461-00221999999ADDAY121061AY221061GF107991051081008001071011MW1021REMSYN054AAXX  20121 01045 41589 73605 10046 21022 70222 85871;
0137010450999992013042018004+69833+021883FM-12+000699999V0203601N001010042019N0300001N1+00321-00271999999ADDAY121061AY221061GF108991051091004501021999KA1999M+00601MW1151REMSYN064AAXX  20181 01045 31480 83601 10032 21027 71522 8592/ 333 10060;
0106010450999992013042106004+69833+021883FM-12+000699999V02099999999999999999N9999999N1+00281-00291999999ADDAJ100109199999999IA1259KA1999N+00081REMSYN058AAXX  21061 01045 43/// ///// 10028 21029 333 20008 41010;
0077010450999992013042118004+69833+021883FM-12+000699999V02099999999999999999N9999999N1+00641+00091999999ADDKA1999M+00721REMSYN052AAXX  21181 01045 43/// ///// 10064 20009 333 10072;
0166010450999992013042206004+69833+021883FM-12+000699999V0201801N005010750019N0750001N1+00521+00021999999ADDAJ100109199999999AY121061AY221061GF108991011041008001001081IA1259KA1999N+00451MW1021REMSYN070AAXX  22061 01045 31589 81805 10052 20002 70222 81408 333 20045 41010;
0114010450999992013042212004+69833+021883FM-12+000699999V0201801N007010300019N0750001N1+00701-00091999999ADDAY121061AY221061GF106991031081008001081081MW1021REMSYN054AAXX  22121 01045 41589 61807 10070 21009 70222 83888;
0137010450999992013042218004+69833+021883FM-12+000699999V0201801N010010300019N0750001N1+00681-00091999999ADDAY121061AY221061GF106991041081008001071011KA1999M+00821MW1021REMSYN064AAXX  22181 01045 31589 61810 10068 21009 70222 84871 333 10082;
0202010450999992013042306004+69833+021883FM-12+000699999V0201601N005010300019N0750001N1+00461-00081999999ADDAA124000091AJ100099199999999AY121061AY211061GF107991041081008001071081IA1259KA1999N+00321MW1021REMSYN076AAXX  23061 01045 31589 71605 10046 21008 70221 84878 333 20032 41009 70000;EQDQ01  00002PRCP24
0114010450999992013042312004+69833+021883FM-12+000699999V0201601N007010300019N0750001N1+00521+00001999999ADDAY121061AY221061GF107991031051008001071011MW1021REMSYN054AAXX  23121 01045 41589 71607 10052 21000 70222 83571;
0137010450999992013042318004+69833+021883FM-12+000699999V0201601N007012200019N0750001N1+00561-00061999999ADDAY121061AY211061GF104991031021008001071011KA1999M+00621MW1021REMSYN064AAXX  23181 01045 31589 41607 10056 21006 70221 83271 333 10062;
0202010450999992013042406004+69833+021883FM-12+000699999V0201401N003010300019N0750001N1+00581+00021999999ADDAA124000091AJ100089199999999AY121061AY211061GF105991031051008001031081IA1259KA1999N+00341MW1021REMSYN076AAXX  24061 01045 31589 51403 10058 20002 70221 83538 333 20034 41008 70000;EQDQ01  00002PRCP24
0114010450999992013042412004+69833+021883FM-12+000699999V0203001N001010075019N0750001N1+00781+00051999999ADDAY121061AY221061GF107991051051008001031011MW1021REMSYN054AAXX  24121 01045 41589 73001 10078 20005 70222 85531;
0137010450999992013042418004+69833+021883FM-12+000699999V0209999C000010300019N0750001N1+00541+00081999999ADDAY121061AY221061GF107991031051008001031081KA1999M+00861MW1021REMSYN064AAXX  24181 01045 31589 70000 10054 20008 70222 83538 333 10086;
0202010450999992013042506004+69833+021883FM-12+000699999V0201801N001010300019N0750001N1+00381-00041999999ADDAA124000091AJ100079199999999AY121061AY211061GF106991041021008001031011IA1259KA1999N+00101MW1021REMSYN076AAXX  25061 01045 31589 61801 10038 21004 70221 84231 333 20010 41007 70000;EQDQ01  00002PRCP24
0114010450999992013042512004+69833+021883FM-12+000699999V0203601N001010300019N0750001N1+00821-00391999999ADDAY111061AY201061GF105991011011002501031001MW1021REMSYN054AAXX  25121 01045 41389 53601 10082 21039 70210 81130;
0137010450999992013042518004+69833+021883FM-12+000699999V0203601N001012200019N0750001N1+00641-00221999999ADDAY111061AY201061GF103991011041012501031001KA1999M+00861MW1021REMSYN064AAXX  25181 01045 31689 33601 10064 21022 70210 81430 333 10086;
0202010450999992013042606004+69833+021883FM-12+000699999V0201601N003010300019N0750001N1+00201-00411999999ADDAA124000091AJ100079199999999AY121061AY211061GF107991041011008001071011IA1259KA1999N-00021MW1021REMSYN076AAXX  26061 01045 31589 71603 10020 21041 70221 84171 333 21002 41007 70000;EQDQ01  00002PRCP24
0114010450999992013042612004+69833+021883FM-12+000699999V0203201N003012200019N0750001N1+00641-00171999999ADDAY111061AY201061GF104991021021008001071011MW1021REMSYN054AAXX  26121 01045 41589 43203 10064 21017 70210 82271;
0137010450999992013042618004+69833+021883FM-12+000699999V0203201N003010300019N0750001N1+00441-00021999999ADDAY121061AY211061GF106991031081008001071011KA1999M+00651MW1021REMSYN064AAXX  26181 01045 31589 63203 10044 21002 70221 83871 333 10065;
0200010450999992013042706004+69833+021883FM-12+000699999V0203401N003010300019N0150001N1+00221+00121999999ADDAA112000591AA224000591AJ100079199999999AY181061AY221061GF108991041091004501021999IA1259KA1999N+00081MW1251REMSYN082AAXX  27061 01045 11465 83403 10022 20012 69952 72582 8492/ 333 20008 41007 70005;
0154010450999992013042718004+69833+021883FM-12+000699999V0203001N003010300019N0650001N1+00281-00291999999ADDAA112000021AY121061AY211061GF106991031091008001071011KA1999M+00461MW1151REMSYN070AAXX  27181 01045 11587 63003 10028 21029 69912 71521 83971 333 10046;
0183010450999992013042806004+69833+021883FM-12+000699999V0209999C000012200019N0750001N1+00241-00351999999ADDAA124000021AJ100079199999999AY121061AY211061GF103991031021008001001011IA1259KA1999N-00081MW1021REMSYN076AAXX  28061 01045 31589 30000 10024 21035 70221 83201 333 21008 41007 70001;
0114010450999992013042812004+69833+021883FM-12+000699999V0201801N003012200019N0750001N1+00481-00551999999ADDAY111061AY201061GF101991011021012501001011MW1021REMSYN054AAXX  28121 01045 41689 11803 10048 21055 70210 81201;
0137010450999992013042818004+69833+021883FM-12+000699999V0201601N005012200019N0750001N1+00341-00451999999ADDAY111061AY201061GF103991011011012501001081KA1999M+00521MW1021REMSYN064AAXX  28181 01045 31689 31605 10034 21045 70210 81108 333 10052;
0202010450999992013042906004+69833+021883FM-12+000699999V0201801N005010300019N0750001N1+00321-00331999999ADDAA124000091AJ100069199999999AY121061AY211061GF106991021021008001071081IA1259KA1999N+00081MW1021REMSYN076AAXX  29061 01045 31589 61805 10032 21033 70221 82278 333 20008 41006 70000;EQDQ01  00002PRCP24
0137010450999992013042918004+69833+021883FM-12+000699999V0201601N005010300019N0750001N1+00521-00041999999ADDAY121061AY211061GF106991031041008001031081KA1999M+00601MW1021REMSYN064AAXX  29181 01045 31589 61605 10052 21004 70221 83438 333 10060;
0202010450999992013043006004+69833+021883FM-12+000699999V0201601N001010300019N0750001N1+00461+00061999999ADDAA124000091AJ100069199999999AY121061AY221061GF107991011041012501011081IA1259KA1999N+00281MW1021REMSYN076AAXX  30061 01045 31689 71601 10046 20006 70222 81418 333 20028 41006 70000;EQDQ01  00002PRCP24
0114010450999992013043012004+69833+021883FM-12+000699999V0203201N001010300019N0750001N1+00641-00081999999ADDAY121061AY221061GF107991011041008001011011MW1021REMSYN054AAXX  30121 01045 41589 73201 10064 21008 70222 81411;
0137010450999992013043018004+69833+021883FM-12+000699999V0203201N003010750019N0750001N1+00581-00051999999ADDAY121061AY211061GF105991021041008001031081KA1999M+00761MW1021REMSYN064AAXX  30181 01045 31589 53203 10058 21005 70221 82438 333 10076;
0241010450999992013050106004+69833+021883FM-12+000699999V0202701N003019999999N070001199+00461-00411999999ADDAA124000091AJ100063100060094AY121021AY211021GA1011+999991081GA2991+999991031GA3991+999991001GE19MSL   +99999+99999GF105991999999999999999999IA1259KA1240N+00141MW1021REMSYN06401045 31689 52703 10046 21041 70221 81131 333 20014 41006 70000=
0156010450999992013050112004+69833+021883FM-12+000699999V0203001N003019999999N065000199+00521-00171999999ADDAY121021AY221021GA1041+999991091GA2991+999991051GE19MSL   +99999+99999GF107991999999999999999999MW1151REMSYN04201045 41587 73003 10052 21017 71522 84920=
0195010450999992013050118004+69833+021883FM-12+000699999V0203001N005019999999N065000199+00421-00201999999ADDAY121021AY221021GA1021+999991091GA2991+999991031GA3991+999991001GE19MSL   +99999+99999GF106991999999999999999999KA1120M+00721MW1151REMSYN05201045 31587 63005 10042 21020 71522 82971 333 10072=
0139010450999992013050206004+69833+021883FM-12+000699999V0201801N005019999999N070001199+00251-00511999999ADDAA124000091AJ100063100060094AY111021AY201021IA1259KA1240N-00111MW1021REMSYN05801045 31989 01805 10025 21051 70210 333 21011 41006 70000=
0159010450999992013050212004+69833+021883FM-12+000699999V0201801N005019999999N070001199+00521-00571999999ADDAY101021AY201021GA1999+999991021GE19MSL   +99999+99999GF103991999999999999999999MW1021REMSYN04201045 41989 31805 10052 21057 70200 80008=EQDQ01    003SCCGA1
0182010450999992013050218004+69833+021883FM-12+000699999V0209999C999999999999N070001199+00541-00471999999ADDAY101021AY201021GA1999+999991001GE19MSL   +99999+99999GF102991999999999999999999KA1120M+00761MW1021REMSYN05201045 31989 20000 10054 21047 70200 80001 333 10076=EQDQ01    003SCCGA1
0225010450999992013050306004+69833+021883FM-12+000699999V0203601N001019999999N070001199+00361-00341999999ADDAA124000091AJ100063100060094AY101021AY201021GA1011+999991081GA2991+999991031GE19MSL   +99999+99999GF102991999999999999999999IA1259KA1240N-00121MW1021REMSYN06401045 31689 23601 10036 21034 70200 81130 333 21012 41006 70000=
0156010450999992013050312004+69833+021883FM-12+000699999V0201601N003019999999N070001199+00721-00301999999ADDAY101021AY201021GA1011+999991081GA2991+999991021GE19MSL   +99999+99999GF103991999999999999999999MW1021REMSYN04201045 41689 31603 10072 21030 70200 81108=
0179010450999992013050318004+69833+021883FM-12+000699999V0209999C999999999999N070001199+00541-00081999999ADDAY121021AY211021GA1041+999991081GA2991+999991031GE19MSL   +99999+99999GF107991999999999999999999KA1120M+00781MW1021REMSYN05201045 31589 70000 10054 21008 70221 84830 333 10078=
0242010450999992013050406004+69833+021883FM-12+000699999V0201801N001019999999N020000199+00221-00041999999ADDAA112000021AA224000021AJ100063100060094AY181021AY221021GA1041+999991091GA2991+999991051GE19MSL   +99999+99999GF108991999999999999999999IA1259KA1240N+00181MW1251REMSYN07001045 11470 81801 10022 21004 69902 72582 8492/ 333 20018 41006 79999=
0156010450999992013050412004+69833+021883FM-12+000699999V0203001N003019999999N025000199+00281-00011999999ADDAY181021AY221021GA1041+999991091GA2991+999991051GE19MSL   +99999+99999GF107991999999999999999999MW1261REMSYN04201045 41475 73003 10028 21001 72682 84920=
0196010450999992013050418004+69833+021883FM-12+000699999V0203201N003019999999N065000199+00401-00111999999ADDAA112000131AY181021AY221021GA1041+999991091GA2991+999991051GE19MSL   +99999+99999GF107991999999999999999999KA1120M+00681MW1151REMSYN05801045 11587 73203 10040 21011 69912 71582 84920 333 10068=
0241010450999992013050506004+69833+021883FM-12+000699999V0201601N003019999999N070001199+00361+00131999999ADDAA124000131AJ100053100050094AY121021AY221021GA1031+999991081GA2991+999991031GA3991+999991001GE19MSL   +99999+99999GF105991999999999999999999IA1259KA1240N+00021MW1021REMSYN06401045 31589 51603 10036 20013 70222 83831 333 20002 41005 70001=
0156010450999992013050512004+69833+021883FM-12+000699999V0201801N003019999999N070001199+00721-00201999999ADDAY111021AY201021GA1011+999991081GA2991+999991001GE19MSL   +99999+99999GF102991999999999999999999MW1021REMSYN04201045 41689 21803 10072 21020 70210 81101=
0195010450999992013050518004+69833+021883FM-12+000699999V0201801N003019999999N070001199+00561-00221999999ADDAY111021AY201021GA1031+999991061GA2991+999991031GA3991+999991001GE19MSL   +99999+99999GF105991999999999999999999KA1120M+00781MW1021REMSYN05201045 31589 51803 10056 21022 70210 83541 333 10078=
0225010450999992013050606004+69833+021883FM-12+000699999V0201801N003019999999N065000199+00561-00061999999ADDAA124000091AJ100053100050094AY121021AY211021GA1051+999991061GA2991+999991031GE19MSL   +99999+99999GF108991999999999999999999IA1259KA1240N+00351MW1021REMSYN06401045 31587 81803 10056 21006 70221 8557/ 333 20035 41005 70000=
0195010450999992013050618004+69833+021883FM-12+000699999V0201801N001019999999N065000199+00841+00091999999ADDAY121021AY221021GA1041+999991091GA2991+999991031GA3991+999991001GE19MSL   +99999+99999GF107991999999999999999999KA1120M+01121MW1151REMSYN05201045 31587 71801 10084 20009 71522 84972 333 10112=
0225010450999992013050806004+69833+021883FM-12+000699999V0203001N005019999999N001500199+00121-00101999999ADDAA112004031AJ100043100040094AY181021AY221021GA1061+999991091GA2991+999991051GE19MSL   +99999+99999GF108991999999999999999999IA1259KA1240N+00081MW1861REMSYN06401045 11415 83005 10012 21010 60042 78682 8692/ 333 20008 41004=
0156010450999992013050812004+69833+021883FM-12+000699999V0203001N005019999999N001500199+00301-00011999999ADDAY181021AY221021GA1041+999991091GA2991+999991051GE19MSL   +99999+99999GF108991999999999999999999MW1861REMSYN04201045 41415 83005 10030 21001 78682 8492/=
0196010450999992013050818004+69833+021883FM-12+000699999V0203001N005019999999N015000199+00301-00151999999ADDAA112001031AY181021AY221021GA1051+999991091GA2991+999991051GE19MSL   +99999+99999GF108991999999999999999999KA1120M+00521MW1261REMSYN05801045 11465 83005 10030 21015 60012 72682 8592/ 333 10052=
0242010450999992013050906004+69833+021883FM-12+000699999V0203201N001019999999N070001199+00361-00281999999ADDAA112000131AA224001331AJ100033100030094AY121021AY221021GA1051+999991061GA2991+999991031GE19MSL   +99999+99999GF106991999999999999999999IA1259KA1240N+00081MW1021REMSYN07001045 11589 63201 10036 21028 69912 70222 85540 333 20008 41003 70013=
0156010450999992013050912004+69833+021883FM-12+000699999V0201401N003019999999N070001199+00521-00661999999ADDAY121021AY211021GA1011+999991081GA2991+999991031GE19MSL   +99999+99999GF102991999999999999999999MW1021REMSYN04201045 41589 21403 10052 21066 70221 81140=
0195010450999992013050918004+69833+021883FM-12+000699999V0201401N005019999999N070001199+00541-00441999999ADDAY111021AY201021GA1011+999991081GA2991+999991031GA3991+999991001GE19MSL   +99999+99999GF103991999999999999999999KA1120M+00621MW1021REMSYN05201045 31589 31405 10054 21044 70210 81141 333 10062=
0212010450999992013051006004+69833+021883FM-12+000699999V0201601N005019999999N070001199+00501-00231999999ADDAA124000091AY121021AY211021GA1041+999991081GA2991+999991031GA3991+999991001GE19MSL   +99999+99999GF106991999999999999999999KA1240N+00321MW1021REMSYN05801045 31589 61605 10050 21023 70221 84841 333 20032 70000=
0156010450999992013051012004+69833+021883FM-12+000699999V0201401N005019999999N070001199+00981-00091999999ADDAY111021AY201021GA1011+999991081GA2991+999991021GE19MSL   +99999+99999GF102991999999999999999999MW1021REMSYN04201045 41689 21405 10098 21009 70210 81108=
0163010450999992013051018004+69833+021883FM-12+000699999V0201801N003019999999N070001199+00681-00041999999ADDAY101021AY201021GA1011+999991081GE19MSL   +99999+99999GF101991999999999999999999KA1120M+01001MW1021REMSYN05201045 31689 11803 10068 21004 70200 81100 333 10100=
0212010450999992013051106004+69833+021883FM-12+000699999V0201601N005019999999N070001199+00721+00111999999ADDAA124000091AY111021AY201021GA1031+999991081GA2991+999991031GA3991+999991021GE19MSL   +99999+99999GF105991999999999999999999KA1240N+00541MW1021REMSYN05801045 31589 51605 10072 20011 70210 83148 333 20054 70000=
0172010450999992013051112004+69833+021883FM-12+000699999V0201401N005019999999N070001199+00921-00011999999ADDAY111021AY201021GA1011+999991081GA2991+999991031GA3991+999991001GE19MSL   +99999+99999GF105991999999999999999999MW1021REMSYN04201045 41689 51405 10092 21001 70210 81181=
0195010450999992013051118004+69833+021883FM-12+000699999V0201801N001019999999N065000199+00741+00041999999ADDAY121021AY211021GA1031+999991081GA2991+999991031GA3991+999991021GE19MSL   +99999+99999GF106991999999999999999999KA1120M+01021MW1031REMSYN05201045 31587 61801 10074 20004 70321 83838 333 10102=
0212010450999992013051206004+69833+021883FM-12+000699999V0209999C999999999999N070001199+00601+00301999999ADDAA124000091AY121021AY211021GA1021+999991081GA2991+999991031GA3991+999991011GE19MSL   +99999+99999GF104991999999999999999999KA1240N+00381MW1021REMSYN05801045 31589 40000 10060 20030 70221 82839 333 20038 70000=
0172010450999992013051212004+69833+021883FM-12+000699999V0203201N003019999999N070001199+00851+00171999999ADDAY111021AY201021GA1011+999991081GA2991+999991031GA3991+999991001GE19MSL   +99999+99999GF103991999999999999999999MW1021REMSYN04201045 41689 33203 10085 20017 70210 81131=
0195010450999992013051218004+69833+021883FM-12+000699999V0201601N003019999999N070001199+00761+00101999999ADDAY111021AY201021GA1021+999991081GA2991+999991031GA3991+999991001GE19MSL   +99999+99999GF104991999999999999999999KA1120M+00961MW1021REMSYN05201045 31589 41603 10076 20010 70210 82831 333 10096=
0213010450999992013051306004+69833+021883FM-12+000699999V0201601N005019999999N065000199+00451-00011999999ADDAA112000021AA224000021AY181021AY221021GA1051+999991091GA2991+999991051GE19MSL   +99999+99999GF108991999999999999999999KA1240N+00421MW1801REMSYN06401045 11587 81605 10045 21001 69902 78082 8592/ 333 20042 79999=
0156010450999992013051312004+69833+021883FM-12+000699999V0201401N005019999999N010000199+00461+00131999999ADDAY181021AY221021GA1051+999991091GA2991+999991051GE19MSL   +99999+99999GF108991999999999999999999MW1801REMSYN04201045 41460 81405 10046 20013 78082 8592/=
0196010450999992013051318004+69833+021883FM-12+000699999V0201601N005019999999N010000199+00501+00101999999ADDAA112000021AY181021AY221021GA1051+999991091GA2991+999991051GE19MSL   +99999+99999GF108991999999999999999999KA1120M+00641MW1151REMSYN05801045 11460 81605 10050 20010 69902 71582 8592/ 333 10064=
0212010450999992013051406004+69833+021883FM-12+000699999V0201401N005019999999N070001199+00601+00101999999ADDAA124000021AY121021AY221021GA1041+999991061GA2991+999991031GA3991+999991001GE19MSL   +99999+99999GF107991999999999999999999KA1240N+00451MW1021REMSYN05801045 31589 71405 10060 20010 70222 84571 333 20045 79999=
0156010450999992013051412004+69833+021883FM-12+000699999V0201601N005019999999N070001199+00681+00151999999ADDAY121021AY221021GA1051+999991081GA2991+999991031GE19MSL   +99999+99999GF107991999999999999999999MW1021REMSYN04201045 41589 71605 10068 20015 70222 85870=
0179010450999992013051418004+69833+021883FM-12+000699999V0201601N005019999999N070001199+00621+00191999999ADDAY121021AY221021GA1041+999991081GA2991+999991031GE19MSL   +99999+99999GF107991999999999999999999KA1120M+00801MW1021REMSYN05201045 31589 71605 10062 20019 70222 84870 333 10080=
0179010450999992013051606004+69833+021883FM-12+000699999V0201601N001019999999N070001199+00821+00201999999ADDAY121021AY221021GA1041+999991061GA2991+999991031GE19MSL   +99999+99999GF107991999999999999999999KA1240N+00501MW1021REMSYN05201045 31589 71601 10082 20020 70222 84570 333 20050=
0159010450999992013051612004+69833+021883FM-12+000699999V0201601N005019999999N070001199+01221+00211999999ADDAY111021AY201021GA1999+999991001GE19MSL   +99999+99999GF103991999999999999999999MW1021REMSYN04201045 41989 31605 10122 20021 70210 80001=EQDQ01    003SCCGA1
0195010450999992013051618004+69833+021883FM-12+000699999V0200901N003019999999N070001199+01241+00231999999ADDAY121021AY211021GA1031+999991081GA2991+999991031GA3991+999991021GE19MSL   +99999+99999GF106991999999999999999999KA1120M+01281MW1021REMSYN05201045 31689 60903 10124 20023 70221 83278 333 10128=
0199010450999992013051706004+69833+021883FM-12+000699999V0201801N001019999999N070001199+01261+00301999999ADDAA124000091AY111021AY201021GA1999+999991021GE19MSL   +99999+99999GF105991999999999999999999KA1240N+00561MW1021REMSYN05801045 31989 51801 10126 20030 70210 80008 333 20056 70000=EQDQ01    003SCCGA1
0159010450999992013051712004+69833+021883FM-12+000699999V0201601N003019999999N070001199+01361+00281999999ADDAY121021AY211021GA1999+999991001GE19MSL   +99999+99999GF106991999999999999999999MW1021REMSYN04201045 41989 61603 10136 20028 70221 80001=EQDQ01    003SCCGA1
0182010450999992013051718004+69833+021883FM-12+000699999V0201601N001019999999N070001199+01461+00151999999ADDAY121021AY221021GA1999+999991021GE19MSL   +99999+99999GF106991999999999999999999KA1120M+01721MW1021REMSYN05201045 31989 61601 10146 20015 70222 80008 333 10172=EQDQ01    003SCCGA1
0212010450999992013051806004+69833+021883FM-12+000699999V0203601N005019999999N070001199+00961+00461999999ADDAA124000091AY121021AY221021GA1021+999991061GA2991+999991031GA3991+999991021GE19MSL   +99999+99999GF107991999999999999999999KA1240N+00781MW1021REMSYN05801045 31689 73605 10096 20046 70222 82578 333 20078 70000=
0156010450999992013051812004+69833+021883FM-12+000699999V0203601N005019999999N065000199+00761+00511999999ADDAY121021AY221021GA1031+999991061GA2991+999991031GE19MSL   +99999+99999GF108991999999999999999999MW1021REMSYN04201045 41587 83605 10076 20051 70222 8357/=
0196010450999992013051818004+69833+021883FM-12+000699999V0203601N003019999999N010000199+00641+00471999999ADDAA112000021AY151021AY221021GA1051+999991071GA2991+999991051GE19MSL   +99999+99999GF108991999999999999999999KA1120M+01041MW1501REMSYN05801045 11460 83603 10064 20047 69902 75052 8562/ 333 10104=
0196010450999992013051906004+69833+021883FM-12+000699999V0203601N003019999999N070001199+00721+00271999999ADDAA124000021AY121021AY221021GA1051+999991081GA2991+999991031GE19MSL   +99999+99999GF108991999999999999999999KA1240N+00541MW1021REMSYN05801045 41589 83603 10072 20027 70222 8587/ 333 20054 79999=
0156010450999992013051912004+69833+021883FM-12+000699999V0203601N001019999999N070001199+00881+00361999999ADDAY121021AY221021GA1041+999991081GA2991+999991031GE19MSL   +99999+99999GF107991999999999999999999MW1021REMSYN04201045 41589 73601 10088 20036 70222 84870=
0195010450999992013051918004+69833+021883FM-12+000699999V0201601N005019999999N070001199+00821+00141999999ADDAY121021AY221021GA1021+999991081GA2991+999991031GA3991+999991001GE19MSL   +99999+99999GF105991999999999999999999KA1120M+01081MW1011REMSYN05201045 41589 51605 10082 20014 70122 82831 333 10108=
0179010450999992013052006004+69833+021883FM-12+000699999V0201801N005019999999N070001199+00781+00231999999ADDAY111021AY201021GA1011+999991081GA2991+999991031GE19MSL   +99999+99999GF102991999999999999999999KA1240N+00561MW1021REMSYN05201045 31689 21805 10078 20023 70210 81240 333 20056=
0140010450999992013052012004+69833+021883FM-12+000699999V0201801N005019999999N070001199+01021+00211999999ADDAY101021AY201021GA1021+999991081GE19MSL   +99999+99999GF102991999999999999999999MW1021REMSYN04201045 41689 21805 10102 20021 70200 82200=
0179010450999992013052018004+69833+021883FM-12+000699999V0201801N005019999999N070001199+01041+00371999999ADDAY101021AY201021GA1011+999991081GA2991+999991031GE19MSL   +99999+99999GF102991999999999999999999KA1120M+01161MW1021REMSYN05201045 31689 21805 10104 20037 70200 81230 333 10116=
0180010450999992013052106004+69833+021883FM-12+000699999V0201401N003019999999N070001199+01061+00521999999ADDAA124000091AY101021AY201021GA1011+999991081GE19MSL   +99999+99999GF101991999999999999999999KA1240N+00761MW1021REMSYN05801045 31689 11403 10106 20052 70200 81200 333 20076 70000=
0140010450999992013052112004+69833+021883FM-12+000699999V0201401N003019999999N070001199+01521+00601999999ADDAY101021AY201021GA1011+999991081GE19MSL   +99999+99999GF101991999999999999999999MW1021REMSYN04201045 41689 11403 10152 20060 70200 81100=
0163010450999992013052118004+69833+021883FM-12+000699999V0201401N005019999999N070001199+01681+00721999999ADDAY101021AY201021GA1011+999991081GE19MSL   +99999+99999GF101991999999999999999999KA1120M+01761MW1021REMSYN05201045 31689 11405 10168 20072 70200 81100 333 10176=
0212010450999992013052206004+69833+021883FM-12+000699999V0202101N003019999999N070001199+01421+00681999999ADDAA124000091AY121021AY211021GA1041+999991081GA2991+999991031GA3991+999991021GE19MSL   +99999+99999GF107991999999999999999999KA1240N+01301MW1021REMSYN05801045 31589 72103 10142 20068 70221 84878 333 20130 70000=
0140010450999992013052212004+69833+021883FM-12+000699999V0201801N005019999999N070001199+01551+00161999999ADDAY111021AY201021GA1011+999991081GE19MSL   +99999+99999GF101991999999999999999999MW1021REMSYN04201045 41689 11805 10155 20016 70210 81100=
0093010450999992013052218004+69833+021883FM-12+000699999V0201401N003019999999N070001199+01361+00311999999ADDAY101021AY201021KA1120M+01941MW1021REMSYN04601045 31989 01403 10136 20031 70200 333 10194=
0110010450999992013052306004+69833+021883FM-12+000699999V0201601N003019999999N070001199+01241+00441999999ADDAA124000091AY101021AY201021KA1240N+00981MW1021REMSYN05201045 31989 01603 10124 20044 70200 333 20098 70000=
0093010450999992013052318004+69833+021883FM-12+000699999V0201601N003019999999N070001199+01341-00061999999ADDAY101021AY201021KA1120M+01861MW1021REMSYN04601045 31989 01603 10134 21006 70200 333 10186=
0110010450999992013052406004+69833+021883FM-12+000699999V0201401N003019999999N070001199+01361+00191999999ADDAA124000091AY101021AY201021KA1240N+01121MW1021REMSYN05201045 31989 01403 10136 20019 70200 333 20112 70000=
0070010450999992013052412004+69833+021883FM-12+000699999V0201801N001019999999N070001199+01761+00241999999ADDAY101021AY201021MW1021REMSYN03601045 41989 01801 10176 20024 70200=
0179010450999992013052418004+69833+021883FM-12+000699999V0203201N001019999999N070001199+01451+00511999999ADDAY101021AY201021GA1011+999991081GA2991+999991031GE19MSL   +99999+99999GF101991999999999999999999KA1120M+01961MW1021REMSYN05201045 31689 13201 10145 20051 70200 81130 333 10196=
0213010450999992013052506004+69833+021883FM-12+000699999V0203001N005019999999N006000199+00681+00561999999ADDAA112000731AA224000731AY181021AY221021GA1051+999991091GA2991+999991051GE19MSL   +99999+99999GF108991999999999999999999KA1240N+00681MW1801REMSYN06401045 11456 83005 10068 20056 69972 78082 8592/ 333 20068 70007=
0156010450999992013052512004+69833+021883FM-12+000699999V0203201N005019999999N010000199+00621+00281999999ADDAY181021AY221021GA1041+999991091GA2991+999991051GE19MSL   +99999+99999GF108991999999999999999999MW1801REMSYN04201045 41460 83205 10062 20028 78082 8492/=
0212010450999992013052518004+69833+021883FM-12+000699999V0203201N005019999999N070001199+00651+00161999999ADDAA112000831AY181021AY221021GA1041+999991081GA2991+999991031GA3991+999991021GE19MSL   +99999+99999GF105991999999999999999999KA1120M+00781MW1011REMSYN05801045 11589 53205 10065 20016 69982 70182 84838 333 10078=
0195010450999992013052606004+69833+021883FM-12+000699999V0201401N003019999999N070001199+00821-00051999999ADDAY121021AY211021GA1011+999991081GA2991+999991031GA3991+999991021GE19MSL   +99999+99999GF105991999999999999999999KA1240N+00381MW1021REMSYN05201045 41689 51403 10082 21005 70221 81138 333 20038=
0195010450999992013052618004+69833+021883FM-12+000699999V0203601N001019999999N070001199+01161+00211999999ADDAY121021AY211021GA1011+999991081GA2991+999991031GA3991+999991001GE19MSL   +99999+99999GF106991999999999999999999KA1120M+01421MW1021REMSYN05201045 31689 63601 10116 20021 70221 81132 333 10142=
0212010450999992013052706004+69833+021883FM-12+000699999V0201601N003019999999N070001199+01401+00461999999ADDAA124000091AY121021AY211021GA1021+999991081GA2991+999991031GA3991+999991001GE19MSL   +99999+99999GF104991999999999999999999KA1240N+00981MW1021REMSYN05801045 31689 41603 10140 20046 70221 82231 333 20098 70000=
