0117010440999992013010100004+70483+022150FM-12+000699999V0201001N006019999999N9999999N1+00011-00381098801ADDMA1999999098711MD1810051+9999REMSYN076AAXX  01001 01044 16/// /1006 10001 21038 39871 49880 58005 6//// 333 91110;
0101010440999992013010101004+70483+022150FM-12+000699999V0201001N007019999999N9999999N1+00051-00341098801ADDMA1999999098721MD1610051+9999REMSYN060AAXX  01011 01044 46/// /1007 10005 21034 39872 49880 56005;
0101010440999992013010102004+70483+022150FM-12+000699999V0200901N005019999999N9999999N1+00021-00391098771ADDMA1999999098691MD1710051+9999REMSYN060AAXX  01021 01044 46/// /0905 10002 21039 39869 49877 57005;
0101010440999992013010103004+70483+022150FM-12+000699999V0201001N005019999999N9999999N1+00051-00381098771ADDMA1999999098681MD1710021+9999REMSYN060AAXX  01031 01044 46/// /1005 10005 21038 39868 49877 57002;
0101010440999992013010104004+70483+022150FM-12+000699999V0201601N003019999999N9999999N1+00051-00451098791ADDMA1999999098711MD1510001+9999REMSYN060AAXX  01041 01044 46/// /1603 10005 21045 39871 49879 55000;
0101010440999992013010105004+70483+022150FM-12+000699999V0201401N003019999999N9999999N1+00061-00351098811ADDMA1999999098731MD1310041+9999REMSYN060AAXX  01051 01044 46/// /1403 10006 21035 39873 49881 53004;
0136010440999992013010106004+70483+022150FM-12+000699999V0201001N004019999999N9999999N1+00041-00391098801ADDKA1999N-00061MA1999999098721MD1210041+9999REMSYN082AAXX  01061 01044 16/// /1004 10004 21039 39872 49880 52004 6//// 333 21006 91108;
0101010440999992013010107004+70483+022150FM-12+000699999V0200901N005019999999N9999999N1+00071-00341098811ADDMA1999999098721MD1210021+9999REMSYN060AAXX  01071 01044 46/// /0905 10007 21034 39872 49881 52002;
0101010440999992013010108004+70483+022150FM-12+000699999V0200901N006019999999N9999999N1+00121-00291098841ADDMA1999999098751MD1310021+9999REMSYN060AAXX  01081 01044 46/// /0906 10012 21029 39875 49884 53002;
0101010440999992013010109004+70483+022150FM-12+000699999V0201601N007019999999N9999999N1+00141-00511098871ADDMA1999999098791MD1310071+9999REMSYN060AAXX  01091 01044 46/// /1607 10014 21051 39879 49887 53007;
0101010440999992013010110004+70483+022150FM-12+000699999V0201101N006019999999N9999999N1+00171-00341098931ADDMA1999999098851MD1310121+9999REMSYN060AAXX  01101 01044 46/// /1106 10017 21034 39885 49893 53012;
0101010440999992013010111004+70483+022150FM-12+000699999V0201401N005019999999N9999999N1+00191-00481098971ADDMA1999999098891MD1210141+9999REMSYN060AAXX  01111 01044 46/// /1405 10019 21048 39889 49897 52014;
0117010440999992013010112004+70483+022150FM-12+000699999V0201701N004019999999N9999999N1+00131-00411099001ADDMA1999999098911MD1210131+9999REMSYN076AAXX  01121 01044 16/// /1704 10013 21041 39891 49900 52013 6//// 333 91109;
0073010440999992013010112204+70483+022150FM-15+0006ENHK V0201701N004619999999Y0099001N1+00101-00401999999ADDMA1098981999999REMMET046METAR ENHK 011220Z 17009KT CAVOK 01/M04 Q0990;
0073010440999992013010112504+70483+022150FM-15+0006ENHK V0201801N004619999999Y0099001N1+00201-00501999999ADDMA1098981999999REMMET046METAR ENHK 011250Z 18009KT CAVOK 02/M05 Q0990;
0101010440999992013010113004+70483+022150FM-12+000699999V0201701N005019999999N9999999N1+00141-00461099021ADDMA1999999098931MD1210091+9999REMSYN060AAXX  01131 01044 46/// /1705 10014 21046 39893 49902 52009;
0073010440999992013010113204+70483+022150FM-15+0006ENHK V0201701N005719999999Y0099001N1+00201-00501999999ADDMA1098981999999REMMET046METAR ENHK 011320Z 17011KT CAVOK 02/M05 Q0990;
0073010440999992013010113504+70483+022150FM-15+0006ENHK V0201701N005719999999Y0099001N1+00201-00501999999ADDMA1098981999999REMMET046METAR ENHK 011350Z 17011KT CAVOK 02/M05 Q0990;
0101010440999992013010114004+70483+022150FM-12+000699999V0201601N007019999999N9999999N1+00151-00471099041ADDMA1999999098951MD1210061+9999REMSYN060AAXX  01141 01044 46/// /1607 10015 21047 39895 49904 52006;
0073010440999992013010114204+70483+022150FM-15+0006ENHK V0201601N005719999999Y0099001N1+00101-00501999999ADDMA1098981999999REMMET046METAR ENHK 011420Z 16011KT CAVOK 01/M05 Q0990;
0073010440999992013010114504+70483+022150FM-15+0006ENHK V0201601N005119999999Y0099001N1+00101-00501999999ADDMA1098981999999REMMET046METAR ENHK 011450Z 16010KT CAVOK 01/M05 Q0990;
0101010440999992013010115004+70483+022150FM-12+000699999V0201601N005019999999N9999999N1+00151-00451099081ADDMA1999999098991MD1210081+9999REMSYN060AAXX  01151 01044 46/// /1605 10015 21045 39899 49908 52008;
0073010440999992013010115204+70483+022150FM-15+0006ENHK V0201701N005119999999Y0099001N1+00101-00501999999ADDMA1099091999999REMMET046METAR ENHK 011520Z 17010KT CAVOK 01/M05 Q0991;
0109010440999992013010115504+70483+022150FM-15+0006ENHK V0201601N005119999999Y0099001N1+99999-00401999999ADDMA1099091999999REMMET047METAR ENHK 011550Z 16010KT CAVOK 021/M04 Q0991;EQDQ01+002103ATOT  Q02 +02103ATOT  
0101010440999992013010116004+70483+022150FM-12+000699999V0201501N005019999999N9999999N1+00161-00421099141ADDMA1999999099061MD1310121+9999REMSYN060AAXX  01161 01044 46/// /1505 10016 21042 39906 49914 53012;
0101010440999992013010117004+70483+022150FM-12+000699999V0201601N004019999999N9999999N1+00091-00471099161ADDMA1999999099081MD1210131+9999REMSYN060AAXX  01171 01044 46/// /1604 10009 21047 39908 49916 52013;
0136010440999992013010118004+70483+022150FM-12+000699999V0201501N005019999999N9999999N1+00141-00481099201ADDKA1120M+00221MA1999999099121MD1110121+9999REMSYN082AAXX  01181 01044 16/// /1505 10014 21048 39912 49920 51012 6//// 333 10022 91108;
0101010440999992013010119004+70483+022150FM-12+000699999V0201701N004019999999N9999999N1+00061-00521099241ADDMA1999999099151MD1210101+9999REMSYN060AAXX  01191 01044 46/// /1704 10006 21052 39915 49924 52010;
0101010440999992013010120004+70483+022150FM-12+000699999V0201701N005019999999N9999999N1+00061-00461099261ADDMA1999999099181MD1210101+9999REMSYN060AAXX  01201 01044 46/// /1705 10006 21046 39918 49926 52010;
0101010440999992013010121004+70483+022150FM-12+000699999V0201701N004019999999N9999999N1+00111-00431099301ADDMA1999999099211MD1210091+9999REMSYN060AAXX  01211 01044 46/// /1704 10011 21043 39921 49930 52009;
0101010440999992013010122004+70483+022150FM-12+000699999V0201601N001019999999N9999999N1-00081-00451099331ADDMA1999999099241MD1210091+9999REMSYN060AAXX  01221 01044 46/// /1601 11008 21045 39924 49933 52009;
0101010440999992013010123004+70483+022150FM-12+000699999V0209999C000019999999N9999999N1-00411-00701099361ADDMA1999999099281MD1210101+9999REMSYN060AAXX  01231 01044 46/// /0000 11041 21070 39928 49936 52010;
0117010440999992013010200004+70483+022150FM-12+000699999V0209999C000019999999N9999999N1-00511-00751099401ADDMA1999999099311MD1210101+9999REMSYN076AAXX  02001 01044 16/// /0000 11051 21075 39931 49940 52010 6//// 333 91107;
0101010440999992013010201004+70483+022150FM-12+000699999V0209999C000019999999N9999999N1-00521-00661099421ADDMA1999999099331MD1210091+9999REMSYN060AAXX  02011 01044 46/// /0000 11052 21066 39933 49942 52009;
0101010440999992013010202004+70483+022150FM-12+000699999V0201501N001019999999N9999999N1-00471-00541099451ADDMA1999999099371MD1210091+9999REMSYN060AAXX  02021 01044 46/// /1501 11047 21054 39937 49945 52009;
0101010440999992013010203004+70483+022150FM-12+000699999V0201601N001019999999N9999999N1-00511-00631099471ADDMA1999999099381MD1210081+9999REMSYN060AAXX  02031 01044 46/// /1601 11051 21063 39938 49947 52008;
0101010440999992013010204004+70483+022150FM-12+000699999V0209999C000019999999N9999999N1-00361-00431099491ADDMA1999999099401MD1210071+9999REMSYN060AAXX  02041 01044 46/// /0000 11036 21043 39940 49949 52007;
0122010440999992013010204204+70483+022150FM-15+0006ENHK V0209999V000512200019N0112651N1-00301-00401999999ADDGA1041+008701999GF104991999999999999999999MA1099391999999REMMET053METAR ENHK 020420Z VRB01KT 9999 SCT029 M03/M04 Q0994;
0122010440999992013010204504+70483+022150FM-15+0006ENHK V0209999V000510090019N0112651N1-00401-00501999999ADDGA1071+009001999GF107991999999999999999999MA1099391999999REMMET053METAR ENHK 020450Z VRB01KT 9999 BKN030 M04/M05 Q0994;
0101010440999992013010205004+70483+022150FM-12+000699999V0209999C000019999999N9999999N1-00311-00401099501ADDMA1999999099411MD1210051+9999REMSYN060AAXX  02051 01044 46/// /0000 11031 21040 39941 49950 52005;
0122010440999992013010205204+70483+022150FM-15+0006ENHK V0209999V001010090019N0112651N1-00301-00501999999ADDGA1071+009001999GF107991999999999999999999MA1099491999999REMMET053METAR ENHK 020520Z VRB02KT 9999 BKN030 M03/M05 Q0995;
0122010440999992013010205504+70483+022150FM-15+0006ENHK V0209999V000510087019N0112651N1-00201-00301999999ADDGA1071+008701999GF107991999999999999999999MA1099491999999REMMET053METAR ENHK 020550Z VRB01KT 9999 BKN029 M02/M03 Q0995;
0159010440999992013010206004+70483+022150FM-12+000699999V0209999C000019999999N9999999N1-00241-00391099541ADDAJ100109199999999KA1999N-00631MA1999999099451MD1310061+9999REMSYN088AAXX  02061 01044 16/// /0000 11024 21039 39945 49954 53006 6//// 333 21063 4/010 91102;
0122010440999992013010206504+70483+022150FM-15+0006ENHK V0209999V000510090019N0112651N1-00201-00301999999ADDGA1071+009001999GF107991999999999999999999MA1099491999999REMMET053METAR ENHK 020650Z VRB01KT 9999 BKN030 M02/M03 Q0995;
0101010440999992013010207004+70483+022150FM-12+000699999V0201601N002019999999N9999999N1+00031-00211099571ADDMA1999999099481MD1210091+9999REMSYN060AAXX  02071 01044 46/// /1602 10003 21021 39948 49957 52009;
0101010440999992013010208004+70483+022150FM-12+000699999V0202301N003019999999N9999999N1+00091-00231099601ADDMA1999999099511MD1210101+9999REMSYN060AAXX  02081 01044 46/// /2303 10009 21023 39951 49960 52010;
0121010440999992013010208504+70483+022150FM-15+0006ENHK V0202601N003110096019N0112651N1+00101-00301999999ADDGA1071+009601999GF107991999999999999999999MA1099591999999REMMET052METAR ENHK 020850Z 26006KT 9999 BKN032 01/M03 Q0996;
0101010440999992013010209004+70483+022150FM-12+000699999V0202501N003019999999N9999999N1+00131-00281099621ADDMA1999999099541MD1210091+9999REMSYN060AAXX  02091 01044 46/// /2503 10013 21028 39954 49962 52009;
0144010440999992013010209504+70483+022150FM-15+0006ENHK V0202601N003110084019N0112651N1+00101-00201999999ADDGA1021+005701999GA2071+008401999GF107991999999999999999999MA1099591999999REMMET059METAR ENHK 020950Z 26006KT 9999 FEW019 BKN028 01/M02 Q0996;
0101010440999992013010210004+70483+022150FM-12+000699999V0202501N004019999999N9999999N1+00131-00241099641ADDMA1999999099551MD1210071+9999REMSYN060AAXX  02101 01044 46/// /2504 10013 21024 39955 49964 52007;
0101010440999992013010211004+70483+022150FM-12+000699999V0202501N004019999999N9999999N1+00131-00231099671ADDMA1999999099581MD1210071+9999REMSYN060AAXX  02111 01044 46/// /2504 10013 21023 39958 49967 52007;
0144010440999992013010211504+70483+022150FM-15+0006ENHK V0202601N004110078019N0112651N1+00101-00201999999ADDGA1041+005401999GA2081+007801999GF108991999999999999999999MA1099591999999REMMET059METAR ENHK 021150Z 26008KT 9999 SCT018 OVC026 01/M02 Q0996;
0117010440999992013010212004+70483+022150FM-12+000699999V0202601N005019999999N9999999N1+00121-00251099671ADDMA1999999099581MD1210051+9999REMSYN076AAXX  02121 01044 16/// /2605 10012 21025 39958 49967 52005 6//// 333 91107;
0144010440999992013010212504+70483+022150FM-15+0006ENHK V0202701N004110087019N0112651N1+00101-00201999999ADDGA1041+005701999GA2081+008701999GF108991999999999999999999MA1099591999999REMMET059METAR ENHK 021250Z 27008KT 9999 SCT019 OVC029 01/M02 Q0996;
0101010440999992013010213004+70483+022150FM-12+000699999V0202601N004019999999N9999999N1+00131-00241099701ADDMA1999999099621MD1210061+9999REMSYN060AAXX  02131 01044 46/// /2604 10013 21024 39962 49970 52006;
0144010440999992013010213504+70483+022150FM-15+0006ENHK V0202701N004110084019N0112651N1+00101-00301999999ADDGA1021+005401999GA2081+008401999GF108991999999999999999999MA1099701999999REMMET059METAR ENHK 021350Z 27008KT 9999 FEW018 OVC028 01/M03 Q0997;
0101010440999992013010214004+70483+022150FM-12+000699999V0202601N004019999999N9999999N1+00131-00281099721ADDMA1999999099631MD1210061+9999REMSYN060AAXX  02141 01044 46/// /2604 10013 21028 39963 49972 52006;
0144010440999992013010214204+70483+022150FM-15+0006ENHK V0202601N003610093019N0112651N1+00201-00301999999ADDGA1021+006001999GA2081+009301999GF108991999999999999999999MA1099701999999REMMET059METAR ENHK 021420Z 26007KT 9999 FEW020 OVC031 02/M03 Q0997;
0121010440999992013010214504+70483+022150FM-15+0006ENHK V0202601N003610096019N0112651N1+00201-00301999999ADDGA1071+009601999GF107991999999999999999999MA1099701999999REMMET052METAR ENHK 021450Z 26007KT 9999 BKN032 02/M03 Q0997;
0101010440999992013010215004+70483+022150FM-12+000699999V0202501N004019999999N9999999N1+00161-00311099721ADDMA1999999099631MD1210051+9999REMSYN060AAXX  02151 01044 46/// /2504 10016 21031 39963 49972 52005;
0129010440999992013010215204+70483+022150FM-15+0006ENHK V0202501N003110108019N0112651N1+00201-00301999999ADDGA1071+010801999GF107991999999999999999999MA1099701999999REMMET060METAR ENHK 021520Z 25006KT 220V280 9999 BKN036 02/M03 Q0997;
0101010440999992013010216004+70483+022150FM-12+000699999V0202201N003019999999N9999999N1+00191-00301099741ADDMA1999999099651MD1210041+9999REMSYN060AAXX  02161 01044 46/// /2203 10019 21030 39965 49974 52004;
0101010440999992013010217004+70483+022150FM-12+000699999V0202701N004019999999N9999999N1+00161-00291099741ADDMA1999999099651MD1210021+9999REMSYN060AAXX  02171 01044 46/// /2704 10016 21029 39965 49974 52002;
0136010440999992013010218004+70483+022150FM-12+000699999V0202601N006019999999N9999999N1+00161-00311099721ADDKA1120M+00191MA1999999099631MD1010001+9999REMSYN082AAXX  02181 01044 16/// /2606 10016 21031 39963 49972 50000 6//// 333 10019 91107;
0101010440999992013010219004+70483+022150FM-12+000699999V0202401N002019999999N9999999N1+00191-00241099711ADDMA1999999099631MD1710021+9999REMSYN060AAXX  02191 01044 46/// /2402 10019 21024 39963 49971 57002;
0101010440999992013010220004+70483+022150FM-12+000699999V0202701N002019999999N9999999N1+00171-00211099711ADDMA1999999099631MD1710011+9999REMSYN060AAXX  02201 01044 46/// /2702 10017 21021 39963 49971 57001;
0101010440999992013010221004+70483+022150FM-12+000699999V0202601N003019999999N9999999N1+00201-00211099711ADDMA1999999099631MD1410001+9999REMSYN060AAXX  02211 01044 46/// /2603 10020 21021 39963 49971 54000;
0101010440999992013010222004+70483+022150FM-12+000699999V0202801N003019999999N9999999N1+00201-00271099701ADDMA1999999099621MD1410001+9999REMSYN060AAXX  02221 01044 46/// /2803 10020 21027 39962 49970 54000;
0101010440999992013010223004+70483+022150FM-12+000699999V0202801N004019999999N9999999N1+00181-00251099671ADDMA1999999099581MD1810031+9999REMSYN060AAXX  02231 01044 46/// /2804 10018 21025 39958 49967 58003;
0117010440999992013010300004+70483+022150FM-12+000699999V0202501N002019999999N9999999N1+00141-00271099641ADDMA1999999099561MD1710061+9999REMSYN076AAXX  03001 01044 16/// /2502 10014 21027 39956 49964 57006 6//// 333 91107;
0101010440999992013010301004+70483+022150FM-12+000699999V0202001N002019999999N9999999N1+00131-00301099611ADDMA1999999099521MD1710091+9999REMSYN060AAXX  03011 01044 46/// /2002 10013 21030 39952 49961 57009;
0101010440999992013010302004+70483+022150FM-12+000699999V0202301N004019999999N9999999N1+00131-00391099581ADDMA1999999099491MD1710081+9999REMSYN060AAXX  03021 01044 46/// /2304 10013 21039 39949 49958 57008;
0101010440999992013010303004+70483+022150FM-12+000699999V0202201N005019999999N9999999N1+00131-00391099551ADDMA1999999099471MD1710081+9999REMSYN060AAXX  03031 01044 46/// /2205 10013 21039 39947 49955 57008;
0101010440999992013010304004+70483+022150FM-12+000699999V0201701N002019999999N9999999N1+00061-00371099521ADDMA1999999099431MD1710081+9999REMSYN060AAXX  03041 01044 46/// /1702 10006 21037 39943 49952 57008;
0121010440999992013010304204+70483+022150FM-15+0006ENHK V0201701N002612200019N0112651N1+00101-00401999999ADDGF100991999999999999999999MA1099491999999REMMET049METAR ENHK 030420Z 17005KT 9999 NSC 01/M04 Q0995;EQDQ01    003SCCGA1
0121010440999992013010304504+70483+022150FM-15+0006ENHK V0201701N003112200019N0112651N1+00101-00301999999ADDGF100991999999999999999999MA1099391999999REMMET049METAR ENHK 030450Z 17006KT 9999 NSC 01/M03 Q0994;EQDQ01    003SCCGA1
0101010440999992013010305004+70483+022150FM-12+000699999V0201701N003019999999N9999999N1+00071-00301099491ADDMA1999999099411MD1710081+9999REMSYN060AAXX  03051 01044 46/// /1703 10007 21030 39941 49949 57008;
0121010440999992013010305504+70483+022150FM-15+0006ENHK V0201701N002612200019N0112651N1+00101-00301999999ADDGF100991999999999999999999MA1099391999999REMMET049METAR ENHK 030550Z 17005KT 9999 NSC 01/M03 Q0994;EQDQ01    003SCCGA1
0195010440999992013010306004+70483+022150FM-12+000699999V0201701N003019999999N9999999N1+00081-00381099461ADDAA124000091AJ100109199999999KA1999N+00011MA1999999099381MD1710081+9999REMSYN094AAXX  03061 01044 16/// /1703 10008 21038 39938 49946 57008 60004 333 20001 4/010 70000 91106;EQDQ01  00002PRCP24
0121010440999992013010306504+70483+022150FM-15+0006ENHK V0201701N003112200019N0112651N1+00001-00401999999ADDGF100991999999999999999999MA1099391999999REMMET049METAR ENHK 030650Z 17006KT 9999 NSC 00/M04 Q0994;EQDQ01    003SCCGA1
0144010440999992013010307504+70483+022150FM-15+0006ENHK V0201701N003612200019N0112651N1+00101-00401999999ADDGA1021+007201999GA2041+013501999GF104991999999999999999999MA1099391999999REMMET059METAR ENHK 030750Z 17007KT 9999 FEW024 SCT045 01/M04 Q0994;
0101010440999992013010308004+70483+022150FM-12+000699999V0201601N003019999999N9999999N1+00131-00301099431ADDMA1999999099341MD1510061+9999REMSYN060AAXX  03081 01044 46/// /1603 10013 21030 39934 49943 55006;
0144010440999992013010308504+70483+022150FM-15+0006ENHK V0201701N004112200019N0112651N1+00101-00401999999ADDGA1021+007201999GA2041+013501999GF104991999999999999999999MA1099391999999REMMET059METAR ENHK 030850Z 17008KT 9999 FEW024 SCT045 01/M04 Q0994;
0144010440999992013010309504+70483+022150FM-15+0006ENHK V0201701N004112200019N0112651N1+00101-00301999999ADDGA1021+007501999GA2041+013201999GF104991999999999999999999MA1099391999999REMMET059METAR ENHK 030950Z 17008KT 9999 FEW025 SCT044 01/M03 Q0994;
0101010440999992013010310004+70483+022150FM-12+000699999V0201501N003019999999N9999999N1+00091-00341099421ADDMA1999999099341MD1410001+9999REMSYN060AAXX  03101 01044 46/// /1503 10009 21034 39934 49942 54001;
0101010440999992013010311004+70483+022150FM-12+000699999V0201401N003019999999N9999999N1+00061-00311099421ADDMA1999999099331MD1410001+9999REMSYN060AAXX  03111 01044 46/// /1403 10006 21031 39933 49942 54000;
0117010440999992013010312004+70483+022150FM-12+000699999V0201401N001019999999N9999999N1-00041-00291099441ADDMA1999999099351MD1210021+9999REMSYN076AAXX  03121 01044 16/// /1401 11004 21029 39935 49944 52002 6//// 333 91106;
0144010440999992013010312504+70483+022150FM-15+0006ENHK V0200901N003112200019N0112651N1+00001-00401999999ADDGA1021+009001999GA2041+013501999GF104991999999999999999999MA1099391999999REMMET059METAR ENHK 031250Z 09006KT 9999 FEW030 SCT045 00/M04 Q0994;
0101010440999992013010313004+70483+022150FM-12+000699999V0200901N002019999999N9999999N1-00021-00331099441ADDMA1999999099351MD1210021+9999REMSYN060AAXX  03131 01044 46/// /0902 11002 21033 39935 49944 52002;
0153010440999992013010313504+70483+022150FM-15+0006ENHK V0201201N002110135019N0112651N1+00001-00401999999ADDGA1021+008701999GA2071+013501999GF107991999999999999999999MA1099391999999REMMET068METAR ENHK 031350Z 12004KT 090V200 9999 FEW029 BKN045 M00/M04 Q0994;
0101010440999992013010314004+70483+022150FM-12+000699999V0201201N002019999999N9999999N1-00041-00321099461ADDMA1999999099371MD1210041+9999REMSYN060AAXX  03141 01044 46/// /1202 11004 21032 39937 49946 52004;
0144010440999992013010314504+70483+022150FM-15+0006ENHK V0201701N004610105019N0112651N1+00101-00401999999ADDGA1021+008401999GA2071+010501999GF107991999999999999999999MA1099391999999REMMET059METAR ENHK 031450Z 17009KT 9999 FEW028 BKN035 01/M04 Q0994;
0101010440999992013010315004+70483+022150FM-12+000699999V0201701N004019999999N9999999N1+00041-00371099471ADDMA1999999099391MD1210031+9999REMSYN060AAXX  03151 01044 46/// /1704 10004 21037 39939 49947 52003;
0152010440999992013010315204+70483+022150FM-15+0006ENHK V0201701N003610099019N0112651N1+00101-00301999999ADDGA1021+008101999GA2071+009901999GF107991999999999999999999MA1099391999999REMMET067METAR ENHK 031520Z 17007KT 100V180 9999 FEW027 BKN033 01/M03 Q0994;
0144010440999992013010315504+70483+022150FM-15+0006ENHK V0201701N003610090019N0112651N1+00101-00401999999ADDGA1021+007501999GA2071+009001999GF107991999999999999999999MA1099491999999REMMET059METAR ENHK 031550Z 17007KT 9999 FEW025 BKN030 01/M04 Q0995;
0101010440999992013010316004+70483+022150FM-12+000699999V0201801N004019999999N9999999N1+00061-00371099511ADDMA1999999099431MD1210071+9999REMSYN060AAXX  03161 01044 46/// /1804 10006 21037 39943 49951 52007;
0101010440999992013010317004+70483+022150FM-12+000699999V0201101N001019999999N9999999N1+00001-00241099551ADDMA1999999099461MD1210091+9999REMSYN060AAXX  03171 01044 46/// /1101 10000 21024 39946 49955 52009;
0136010440999992013010318004+70483+022150FM-12+000699999V0201901N001019999999N9999999N1+00001-00141099581ADDKA1120M+00151MA1999999099491MD1210101+9999REMSYN082AAXX  03181 01044 16/// /1901 10000 21014 39949 49958 52010 6//// 333 10015 91106;
0101010440999992013010319004+70483+022150FM-12+000699999V0200801N001019999999N9999999N1-00021-00161099611ADDMA1999999099531MD1210101+9999REMSYN060AAXX  03191 01044 46/// /0801 11002 21016 39953 49961 52010;
0101010440999992013010320004+70483+022150FM-12+000699999V0200801N002019999999N9999999N1+00001-00171099681ADDMA1999999099591MD1310141+9999REMSYN060AAXX  03201 01044 46/// /0802 10000 21017 39959 49968 53014;
0101010440999992013010321004+70483+022150FM-12+000699999V0200201N001019999999N9999999N1-00031-00101099741ADDMA1999999099661MD1310171+9999REMSYN060AAXX  03211 01044 46/// /0201 11003 21010 39966 49974 53017;
0101010440999992013010322004+70483+022150FM-12+000699999V0209999C000019999999N9999999N1-00021-00081099811ADDMA1999999099721MD1310201+9999REMSYN060AAXX  03221 01044 46/// /0000 11002 21008 39972 49981 53020;
0101010440999992013010323004+70483+022150FM-12+000699999V0201901N001019999999N9999999N1+00001-00051099891ADDMA1999999099801MD1310201+9999REMSYN060AAXX  03231 01044 46/// /1901 10000 21005 39980 49989 53020;
0117010440999992013010400004+70483+022150FM-12+000699999V0201901N002019999999N9999999N1+00001-00061099951ADDMA1999999099861MD1210201+9999REMSYN076AAXX  04001 01044 16/// /1902 10000 21006 39986 49995 52020 6//// 333 91104;
0101010440999992013010401004+70483+022150FM-12+000699999V0202501N005019999999N9999999N1+00111-00081099981ADDMA1999999099891MD1210171+9999REMSYN060AAXX  04011 01044 46/// /2505 10011 21008 39989 49998 52017;
0101010440999992013010402004+70483+022150FM-12+000699999V0202701N006019999999N9999999N1+00171-00121100031ADDMA1999999099941MD1210151+9999REMSYN060AAXX  04021 01044 46/// /2706 10017 21012 39994 40003 52015;
0101010440999992013010403004+70483+022150FM-12+000699999V0202601N006019999999N9999999N1+00171-00121100091ADDMA1999999100011MD1310151+9999REMSYN060AAXX  04031 01044 46/// /2606 10017 21012 30001 40009 53015;
0101010440999992013010404004+70483+022150FM-12+000699999V0202501N007019999999N9999999N1+00201-00141100111ADDMA1999999100031MD1110131+9999REMSYN060AAXX  04041 01044 46/// /2507 10020 21014 30003 40011 51013;
0179010440999992013010404204+70483+022150FM-15+0006ENHK V0202401N00721009901CN0112651N1+00201-00101999999ADDGA1021+004201999GA2041+009901999GA3071+011701999GF107991999999999999999999MA1100101999999MW1801REMMET072METAR ENHK 040420Z 24014KT 9999 -SHRA FEW014 SCT033 BKN039 02/M01 Q1001;
0181010440999992013010404504+70483+022150FM-15+0006ENHK V0203001N00621004201CN0050001N1+00101+00001999999ADDGA1021+003301999GA2041+004201999GA3071+007201999GF107991999999999999999999MA1100101999999MW1801REMMET074METAR ENHK 040450Z 30012KT 5000 -SHSNRA FEW011 SCT014 BKN024 01/M00 Q1001;
0101010440999992013010405004+70483+022150FM-12+000699999V0202701N005019999999N9999999N1+00131-00051100161ADDMA1999999100071MD1110131+9999REMSYN060AAXX  04051 01044 46/// /2705 10013 21005 30007 40016 51013;
0180010440999992013010405504+70483+022150FM-15+0006ENHK V0203101N00571003601CN0112651N1+00101+00001999999ADDGA1021+002401999GA2041+003601999GA3071+007201999GF107991999999999999999999MA1100201999999MW1801REMMET073METAR ENHK 040550Z 31011KT 9999 -SHSNRA FEW008 SCT012 BKN024 01/00 Q1002;
0176010440999992013010406004+70483+022150FM-12+000699999V0202901N006019999999N9999999N1+00171+00021100231ADDAA124005691AJ100139199999999KA1999N-00041MA1999999100141MD1310131+9999REMSYN094AAXX  04061 01044 16/// /2906 10017 20002 30014 40023 53013 60064 333 21004 4/013 70055 91111;
0184010440999992013010406504+70483+022150FM-15+0006ENHK V0202601N00721003301CN0112651N1+00201+00001999999ADDGA1021+002701999GA2041+003301999GA3071+005701999GF107991999999999999999999MA1100201999999MW1611MW2711REMMET071METAR ENHK 040650Z 26014KT 9999 -SNRA FEW009 SCT011 BKN019 02/00 Q1002;
0101010440999992013010407004+70483+022150FM-12+000699999V0202801N007019999999N9999999N1+00231+00021100231ADDMA1999999100151MD1110121+9999REMSYN060AAXX  04071 01044 46/// /2807 10023 20002 30015 40023 51012;
0167010440999992013010407504+70483+022150FM-15+0006ENHK V0203001N01031006001CN0112651N1+00301-00301999999ADDGA1021+003601999GA2041+006001999GA3071+009601999GF107991999999999999999999MA1100201999999REMMET066METAR ENHK 040750Z 30020KT 9999 FEW012 SCT020 BKN032 03/M03 Q1002;
0101010440999992013010408004+70483+022150FM-12+000699999V0203001N010019999999N9999999N1+00291-00381100281ADDMA1999999100201MD1110121+9999REMSYN060AAXX  04081 01044 46/// /3010 10029 21038 30020 40028 51012;
0167010440999992013010408504+70483+022150FM-15+0006ENHK V0203001N01031006001CN0112651N1+00301-00301999999ADDGA1021+003601999GA2041+006001999GA3071+008701999GF107991999999999999999999MA1100311999999REMMET066METAR ENHK 040850Z 30020KT 9999 FEW012 SCT020 BKN029 03/M03 Q1003;
0101010440999992013010409004+70483+022150FM-12+000699999V0203001N012019999999N9999999N1+00161-00161100341ADDMA1999999100251MD1310121+9999REMSYN060AAXX  04091 01044 46/// /3012 10016 21016 30025 40034 53012;
0178010440999992013010409504+70483+022150FM-15+0006ENHK V0203001N01181007501CN0112651N1+00301-00301999999ADDGA1021+003601999GA2041+007501999GA3071+009601999GF107991999999999999999999MA1100311999999MW1161REMMET071METAR ENHK 040950Z 30023KT 9999 VCSH FEW012 SCT025 BKN032 03/M03 Q1003;
0101010440999992013010410004+70483+022150FM-12+000699999V0203101N012019999999N9999999N1+00251-00361100371ADDMA1999999100291MD1110141+9999REMSYN060AAXX  04101 01044 46/// /3112 10025 21036 30029 40037 51014;
0178010440999992013010410504+70483+022150FM-15+0006ENHK V0203001N01131009601CN0112651N1+00301-00301999999ADDGA1021+004501999GA2041+009601999GA3071+011101999GF107991999999999999999999MA1100411999999MW1161REMMET071METAR ENHK 041050Z 30022KT 9999 VCSH FEW015 SCT032 BKN037 03/M03 Q1004;
0101010440999992013010411004+70483+022150FM-12+000699999V0202901N011019999999N9999999N1+00261-00351100431ADDMA1999999100341MD1110141+9999REMSYN060AAXX  04111 01044 46/// /2911 10026 21035 30034 40043 51014;
0167010440999992013010411504+70483+022150FM-15+0006ENHK V0203001N01181009901CN0112651N1+00301-00201999999ADDGA1021+004501999GA2041+009901999GA3071+013201999GF107991999999999999999999MA1100411999999REMMET066METAR ENHK 041150Z 30023KT 9999 FEW015 SCT033 BKN044 03/M02 Q1004;
0117010440999992013010412004+70483+022150FM-12+000699999V0202901N012019999999N9999999N1+00271-00241100451ADDMA1999999100371MD1210111+9999REMSYN076AAXX  04121 01044 16/// /2912 10027 21024 30037 40045 52011 6//// 333 91116;
0155010440999992013010412204+70483+022150FM-15+0006ENHK V0203001N012912200019N0112651N1+00201-00201999999ADDGA1021+007501999GA2041+014101999GF104991999999999999999999MA1100511999999MW1161REMMET064METAR ENHK 041220Z 30025KT 9999 VCSH FEW025 SCT047 02/M02 Q1005;
0155010440999992013010412504+70483+022150FM-15+0006ENHK V0203101N011810144019N0112651N1+00301-00101999999ADDGA1021+006301999GA2071+014401999GF107991999999999999999999MA1100511999999MW1161REMMET064METAR ENHK 041250Z 31023KT 9999 VCSH FEW021 BKN048 03/M01 Q1005;
0101010440999992013010413004+70483+022150FM-12+000699999V0203001N012019999999N9999999N1+00251-00111100531ADDMA1999999100451MD1210161+9999REMSYN060AAXX  04131 01044 46/// /3012 10025 21011 30045 40053 52016;
0167010440999992013010413504+70483+022150FM-15+0006ENHK V0203001N01291010501CN0112651N1+00301-00301999999ADDGA1021+006601999GA2041+010501999GA3071+012001999GF107991999999999999999999MA1100511999999REMMET066METAR ENHK 041350Z 30025KT 9999 FEW022 SCT035 BKN040 03/M03 Q1005;
0101010440999992013010414004+70483+022150FM-12+000699999V0203001N013019999999N9999999N1+00291-00261100571ADDMA1999999100491MD1210161+9999REMSYN060AAXX  04141 01044 46/// /3013 10029 21026 30049 40057 52016;
0181010440999992013010414204+70483+022150FM-15+0006ENHK V0203101N01291009601CN0112651N1+00201-00301999999ADDGA1021+006001999GA2041+009601999GA3071+012001999GF107991999999999999999999MA1100611999999MW1831REMMET074METAR ENHK 041420Z 31025KT 9999 -SHRASN FEW020 SCT032 BKN040 02/M03 Q1006;
0192010440999992013010414504+70483+022150FM-15+0006ENHK V0203301N01131006001CN0112651N1+00201+00001999999ADDGA1021+004501999GA2041+006001021GA3071+009001999GF107991999999999999999999MA1100611999999MW1831MW2881REMMET079METAR ENHK 041450Z 33022KT 9999 -SHRASNGS FEW015 SCT020TCU BKN030 02/M00 Q1006;
0101010440999992013010415004+70483+022150FM-12+000699999V0203101N012019999999N9999999N1+00221-00091100661ADDMA1999999100581MD1310201+9999REMSYN060AAXX  04151 01044 46/// /3112 10022 21009 30058 40066 53020;
0153010440999992013010415504+70483+022150FM-15+0006ENHK V0209999999999004501CN0020001N1+00201-00101999999ADDGA1041+002701999GA2071+004501999GF108991999999999999999999MA1100701999999REMMET068METAR ENHK 041550Z 3102G38KT 2000 SHSNRA SCT009 BKN015 02/M01 Q1007;
0101010440999992013010416004+70483+022150FM-12+000699999V0203101N013019999999N9999999N1+00151+00001100721ADDMA1999999100631MD1310191+9999REMSYN060AAXX  04161 01044 46/// /3113 10015 20000 30063 40072 53019;
0101010440999992013010417004+70483+022150FM-12+000699999V0203001N015019999999N9999999N1+00301-00171100761ADDMA1999999100671MD1110191+9999REMSYN060AAXX  04171 01044 46/// /3015 10030 21017 30067 40076 51019;
0136010440999992013010418004+70483+022150FM-12+000699999V0203001N012019999999N9999999N1+00191+00041100871ADDKA1120M+00321MA1999999100791MD1310211+9999REMSYN082AAXX  04181 01044 16/// /3012 10019 20004 30079 40087 53021 6//// 333 10032 91120;
0101010440999992013010419004+70483+022150FM-12+000699999V0203201N010019999999N9999999N1+00231+00051100981ADDMA1999999100891MD1310261+9999REMSYN060AAXX  04191 01044 46/// /3210 10023 20005 30089 40098 53026;
0101010440999992013010420004+70483+022150FM-12+000699999V0203101N011019999999N9999999N1+00231+00041101091ADDMA1999999101001MD1310331+9999REMSYN060AAXX  04201 01044 46/// /3111 10023 20004 30100 40109 53033;
0101010440999992013010421004+70483+022150FM-12+000699999V0203401N004019999999N9999999N1+00221-00141101221ADDMA1999999101141MD1310351+9999REMSYN060AAXX  04211 01044 46/// /3404 10022 21014 30114 40122 53035;
0101010440999992013010422004+70483+022150FM-12+000699999V0203301N005019999999N9999999N1+00171-00021101341ADDMA1999999101251MD1310371+9999REMSYN060AAXX  04221 01044 46/// /3305 10017 21002 30125 40134 53037;
0101010440999992013010423004+70483+022150FM-12+000699999V0203201N011019999999N9999999N1+00141-00011101421ADDMA1999999101331MD1110331+9999REMSYN060AAXX  04231 01044 46/// /3211 10014 21001 30133 40142 51033;
0117010440999992013010500004+70483+022150FM-12+000699999V0203301N005019999999N9999999N1+00251-00081101471ADDMA1999999101391MD1110251+9999REMSYN076AAXX  05001 01044 16/// /3305 10025 21008 30139 40147 51025 6//// 333 91119;
0101010440999992013010501004+70483+022150FM-12+000699999V0203301N005019999999N9999999N1+00251-00041101541ADDMA1999999101451MD1210191+9999REMSYN060AAXX  05011 01044 46/// /3305 10025 21004 30145 40154 52019;
0101010440999992013010502004+70483+022150FM-12+000699999V0203101N009019999999N9999999N1+00281-00101101601ADDMA1999999101511MD1310171+9999REMSYN060AAXX  05021 01044 46/// /3109 10028 21010 30151 40160 53017;
0101010440999992013010503004+70483+022150FM-12+000699999V0203101N009019999999N9999999N1+00101+00011101701ADDMA1999999101611MD1310221+9999REMSYN060AAXX  05031 01044 46/// /3109 10010 20001 30161 40170 53022;
0101010440999992013010504004+70483+022150FM-12+000699999V0203401N002019999999N9999999N1+00201-00071101721ADDMA1999999101631MD1110181+9999REMSYN060AAXX  05041 01044 46/// /3402 10020 21007 30163 40172 51018;
0101010440999992013010505004+70483+022150FM-12+000699999V0203301N004019999999N9999999N1+00271-00161101761ADDMA1999999101681MD1110171+9999REMSYN060AAXX  05051 01044 46/// /3304 10027 21016 30168 40176 51017;
0136010440999992013010506004+70483+022150FM-12+000699999V0203401N002019999999N9999999N1+00241-00161101811ADDKA1999N+00081MA1999999101721MD1310111+9999REMSYN082AAXX  05061 01044 16/// /3402 10024 21016 30172 40181 53011 6//// 333 20008 91112;
0101010440999992013010507004+70483+022150FM-12+000699999V0202801N001019999999N9999999N1+00141-00221101851ADDMA1999999101761MD1210141+9999REMSYN060AAXX  05071 01044 46/// /2801 10014 21022 30176 40185 52014;
0101010440999992013010508004+70483+022150FM-12+000699999V0209999C000019999999N9999999N1+00101-00201101901ADDMA1999999101811MD1210141+9999REMSYN060AAXX  05081 01044 46/// /0000 10010 21020 30181 40190 52014;
0101010440999992013010509004+70483+022150FM-12+000699999V0209999C000019999999N9999999N1-00061-00281101941ADDMA1999999101861MD1210131+9999REMSYN060AAXX  05091 01044 46/// /0000 11006 21028 30186 40194 52013;
0101010440999992013010510004+70483+022150FM-12+000699999V0201101N001019999999N9999999N1-00031-00201101971ADDMA1999999101881MD1210121+9999REMSYN060AAXX  05101 01044 46/// /1101 11003 21020 30188 40197 52012;
0101010440999992013010511004+70483+022150FM-12+000699999V0201101N001019999999N9999999N1+00101-00121102001ADDMA1999999101911MD1210101+9999REMSYN060AAXX  05111 01044 46/// /1101 10010 21012 30191 40200 52010;
0117010440999992013010512004+70483+022150FM-12+000699999V0200801N002019999999N9999999N1+00111-00131102041ADDMA1999999101951MD1210091+9999REMSYN076AAXX  05121 01044 16/// /0802 10011 21013 30195 40204 52009 6//// 333 91104;
0101010440999992013010513004+70483+022150FM-12+000699999V0209999C000019999999N9999999N1+00161+00011102071ADDMA1999999101981MD1210101+9999REMSYN060AAXX  05131 01044 46/// /0000 10016 20001 30198 40207 52010;
0101010440999992013010514004+70483+022150FM-12+000699999V0201601N002019999999N9999999N1+00151+00051102091ADDMA1999999102001MD1210091+9999REMSYN060AAXX  05141 01044 46/// /1602 10015 20005 30200 40209 52009;
0101010440999992013010515004+70483+022150FM-12+000699999V0200801N004019999999N9999999N1+00131+00041102091ADDMA1999999102011MD1110061+9999REMSYN060AAXX  05151 01044 46/// /0804 10013 20004 30201 40209 51006;
0101010440999992013010516004+70483+022150FM-12+000699999V0200901N004019999999N9999999N1+00171+00041102091ADDMA1999999102001MD1210021+9999REMSYN060AAXX  05161 01044 46/// /0904 10017 20004 30200 40209 52002;
0101010440999992013010517004+70483+022150FM-12+000699999V0201101N004019999999N9999999N1+00201+00051102091ADDMA1999999102001MD1410001+9999REMSYN060AAXX  05171 01044 46/// /1104 10020 20005 30200 40209 54000;
0136010440999992013010518004+70483+022150FM-12+000699999V0201101N003019999999N9999999N1+00191+00001102051ADDKA1120M+00251MA1999999101961MD1810031+9999REMSYN082AAXX  05181 01044 16/// /1103 10019 21000 30196 40205 58003 6//// 333 10025 91105;
0101010440999992013010519004+70483+022150FM-12+000699999V0201201N005019999999N9999999N1+00251-00021102051ADDMA1999999101971MD1710031+9999REMSYN060AAXX  05191 01044 46/// /1205 10025 21002 30197 40205 57003;
0101010440999992013010520004+70483+022150FM-12+000699999V0201001N006019999999N9999999N1+00211-00131102011ADDMA1999999101921MD1710071+9999REMSYN060AAXX  05201 01044 46/// /1006 10021 21013 30192 40201 57007;
0101010440999992013010521004+70483+022150FM-12+000699999V0201101N007019999999N9999999N1+00271-00111101951ADDMA1999999101861MD1810091+9999REMSYN060AAXX  05211 01044 46/// /1107 10027 21011 30186 40195 58009;
0101010440999992013010522004+70483+022150FM-12+000699999V0201101N008019999999N9999999N1+00321-00101101901ADDMA1999999101811MD1810151+9999REMSYN060AAXX  05221 01044 46/// /1108 10032 21010 30181 40190 58015;
0101010440999992013010523004+70483+022150FM-12+000699999V0201101N008019999999N9999999N1+00321-00121101831ADDMA1999999101741MD1810181+9999REMSYN060AAXX  05231 01044 46/// /1108 10032 21012 30174 40183 58018;
0117010440999992013010600004+70483+022150FM-12+000699999V0201001N009019999999N9999999N1+00281-00171101741ADDMA1999999101651MD1810211+9999REMSYN076AAXX  06001 01044 16/// /1009 10028 21017 30165 40174 58021 6//// 333 91111;
0101010440999992013010601004+70483+022150FM-12+000699999V0201301N008019999999N9999999N1+00331-00261101691ADDMA1999999101611MD1710201+9999REMSYN060AAXX  06011 01044 46/// /1308 10033 21026 30161 40169 57020;
0101010440999992013010602004+70483+022150FM-12+000699999V0201301N006019999999N9999999N1+00331-00261101621ADDMA1999999101531MD1810201+9999REMSYN060AAXX  06021 01044 46/// /1306 10033 21026 30153 40162 58020;
0101010440999992013010603004+70483+022150FM-12+000699999V0201101N008019999999N9999999N1+00331-00241101511ADDMA1999999101431MD1810211+9999REMSYN060AAXX  06031 01044 46/// /1108 10033 21024 30143 40151 58021;
0101010440999992013010604004+70483+022150FM-12+000699999V0201001N009019999999N9999999N1+00231-00201101451ADDMA1999999101361MD1810241+9999REMSYN060AAXX  06041 01044 46/// /1009 10023 21020 30136 40145 58024;
0101010440999992013010605004+70483+022150FM-12+000699999V0201001N008019999999N9999999N1+00221-00251101381ADDMA1999999101291MD1710231+9999REMSYN060AAXX  06051 01044 46/// /1008 10022 21025 30129 40138 57023;
0136010440999992013010606004+70483+022150FM-12+000699999V0201001N009019999999N9999999N1+00231-00321101341ADDKA1999N+00161MA1999999101251MD1710161+9999REMSYN082AAXX  06061 01044 16/// /1009 10023 21032 30125 40134 57016 6//// 333 20016 91111;
0101010440999992013010607004+70483+022150FM-12+000699999V0201001N008019999999N9999999N1+00211-00401101301ADDMA1999999101211MD1610131+9999REMSYN060AAXX  06071 01044 46/// /1008 10021 21040 30121 40130 56013;
0101010440999992013010608004+70483+022150FM-12+000699999V0201001N007019999999N9999999N1+00191-00441101261ADDMA1999999101171MD1810111+9999REMSYN060AAXX  06081 01044 46/// /1007 10019 21044 30117 40126 58011;
0101010440999992013010609004+70483+022150FM-12+000699999V0201001N008019999999N9999999N1+00201-00451101231ADDMA1999999101141MD1710101+9999REMSYN060AAXX  06091 01044 46/// /1008 10020 21045 30114 40123 57010;
0101010440999992013010610004+70483+022150FM-12+000699999V0201001N008019999999N9999999N1+00211-00461101201ADDMA1999999101111MD1710101+9999REMSYN060AAXX  06101 01044 46/// /1008 10021 21046 30111 40120 57010;
0101010440999992013010611004+70483+022150FM-12+000699999V0201001N008019999999N9999999N1+00181-00381101141ADDMA1999999101051MD1810111+9999REMSYN060AAXX  06111 01044 46/// /1008 10018 21038 30105 40114 58011;
0117010440999992013010612004+70483+022150FM-12+000699999V0201001N009019999999N9999999N1+00181-00361101071ADDMA1999999100981MD1810161+9999REMSYN076AAXX  06121 01044 16/// /1009 10018 21036 30098 40107 58016 6//// 333 91111;
0144010440999992013010612204+70483+022150FM-15+0006ENHK V0201101N009310180019N0112651N1+00201-00301999999ADDGA1021+010501999GA2071+018001999GF107991999999999999999999MA1101021999999REMMET059METAR ENHK 061220Z 11018KT 9999 FEW035 BKN065 02/M03 Q1010;
0144010440999992013010612504+70483+022150FM-15+0006ENHK V0201101N009312200019N0112651N1+00201-00301999999ADDGA1021+010501999GA2041+018001999GF104991999999999999999999MA1101021999999REMMET059METAR ENHK 061250Z 11018KT 9999 FEW035 SCT065 02/M03 Q1010;
0101010440999992013010613004+70483+022150FM-12+000699999V0201001N009019999999N9999999N1+00161-00341101001ADDMA1999999100911MD1810181+9999REMSYN060AAXX  06131 01044 46/// /1009 10016 21034 30091 40100 58018;
0179010440999992013010613204+70483+022150FM-15+0006ENHK V0201201N008712200019N0112651N1+00201-00301999999ADDGA1021+010501999GA2041+018001999GF104991999999999999999999MA1999999999999REMMET059METAR ENHK 061320Z 12017KT 9999 FEW035 SCT065 02/M03 Q1019;EQDQ01+101903APOA  Q02 101903APOA  
0155010440999992013010613504+70483+022150FM-15+0006ENHK V0201101N009310180019N0112651N1+00201-00301999999ADDGA1021+010501999GA2071+018001999GF107991999999999999999999MA1100911999999MW1161REMMET064METAR ENHK 061350Z 11018KT 9999 VCSH FEW035 BKN065 02/M03 Q1009;
0101010440999992013010614004+70483+022150FM-12+000699999V0201001N009019999999N9999999N1+00201-00251100931ADDMA1999999100851MD1810201+9999REMSYN060AAXX  06141 01044 46/// /1009 10020 21025 30085 40093 58020;
0155010440999992013010614504+70483+022150FM-15+0006ENHK V0201201N009310138019N0112651N1+00201-00201999999ADDGA1021+009901999GA2071+013801999GF107991999999999999999999MA1100911999999MW1811REMMET064METAR ENHK 061450Z 12018KT 9999 SHRA FEW033 BKN046 02/M02 Q1009;
0101010440999992013010615004+70483+022150FM-12+000699999V0201101N009019999999N9999999N1+00231-00151100891ADDMA1999999100801MD1810161+9999REMSYN060AAXX  06151 01044 46/// /1109 10023 21015 30080 40089 58016;
0101010440999992013010616004+70483+022150FM-12+000699999V0201001N009019999999N9999999N1+00241-00121100881ADDMA1999999100791MD1610121+9999REMSYN060AAXX  06161 01044 46/// /1009 10024 21012 30079 40088 56012;
0101010440999992013010617004+70483+022150FM-12+000699999V0201001N008019999999N9999999N1+00221-00051100851ADDMA1999999100771MD1710071+9999REMSYN060AAXX  06171 01044 46/// /1008 10022 21005 30077 40085 57007;
0136010440999992013010618004+70483+022150FM-12+000699999V0201101N006019999999N9999999N1+00251+00071100891ADDKA1120M+00281MA1999999100811MD1510001+9999REMSYN082AAXX  06181 01044 16/// /1106 10025 20007 30081 40089 55000 6//// 333 10028 91112;
0101010440999992013010619004+70483+022150FM-12+000699999V0201001N004019999999N9999999N1+00261+00111100921ADDMA1999999100831MD1310041+9999REMSYN060AAXX  06191 01044 46/// /1004 10026 20011 30083 40092 53004;
0101010440999992013010620004+70483+022150FM-12+000699999V0201001N003019999999N9999999N1+00291+00141100921ADDMA1999999100831MD1110071+9999REMSYN060AAXX  06201 01044 46/// /1003 10029 20014 30083 40092 51007;
0101010440999992013010621004+70483+022150FM-12+000699999V0201401N003019999999N9999999N1+00311+00151100941ADDMA1999999100861MD1210051+9999REMSYN060AAXX  06211 01044 46/// /1403 10031 20015 30086 40094 52005;
0101010440999992013010622004+70483+022150FM-12+000699999V0202601N010019999999N9999999N1+00551+00141101031ADDMA1999999100941MD1310121+9999REMSYN060AAXX  06221 01044 46/// /2610 10055 20014 30094 40103 53012;
0101010440999992013010623004+70483+022150FM-12+000699999V0202701N010019999999N9999999N1+00441+00231101131ADDMA1999999101051MD1310221+9999REMSYN060AAXX  06231 01044 46/// /2710 10044 20023 30105 40113 53022;
0117010440999992013010700004+70483+022150FM-12+000699999V0202901N010019999999N9999999N1+00461+00211101201ADDMA1999999101121MD1310261+9999REMSYN076AAXX  07001 01044 16/// /2910 10046 20021 30112 40120 53026 6//// 333 91117;
0101010440999992013010701004+70483+022150FM-12+000699999V0202801N008019999999N9999999N1+00491+00281101301ADDMA1999999101211MD1310261+9999REMSYN060AAXX  07011 01044 46/// /2808 10049 20028 30121 40130 53026;
0101010440999992013010702004+70483+022150FM-12+000699999V0202801N008019999999N9999999N1+00481+00271101351ADDMA1999999101271MD1210221+9999REMSYN060AAXX  07021 01044 46/// /2808 10048 20027 30127 40135 52022;
0101010440999992013010703004+70483+022150FM-12+000699999V0202801N009019999999N9999999N1+00471+00241101421ADDMA1999999101331MD1210211+9999REMSYN060AAXX  07031 01044 46/// /2809 10047 20024 30133 40142 52021;
0101010440999992013010704004+70483+022150FM-12+000699999V0202901N010019999999N9999999N1+00451+00221101471ADDMA1999999101381MD1210171+9999REMSYN060AAXX  07041 01044 46/// /2910 10045 20022 30138 40147 52017;
0178010440999992013010704204+70483+022150FM-15+0006ENHK V0202801N00721005401CN0112651N1+00501+00201999999ADDGA1021+003901999GA2041+005401999GA3071+007501999GF107991999999999999999999MA1101391999999MW1801REMMET071METAR ENHK 070420Z 28014KT 9999 -SHRA FEW013 SCT018 BKN025 05/02 Q1014;
0178010440999992013010704504+70483+022150FM-15+0006ENHK V0202901N01031005101CN0112651N1+00501+00101999999ADDGA1021+003901999GA2041+005101999GA3071+006901999GF107991999999999999999999MA1101491999999MW1801REMMET071METAR ENHK 070450Z 29020KT 9999 -SHRA FEW013 SCT017 BKN023 05/01 Q1015;
0101010440999992013010705004+70483+022150FM-12+000699999V0202901N008019999999N9999999N1+00461+00161101521ADDMA1999999101441MD1210171+9999REMSYN060AAXX  07051 01044 46/// /2908 10046 20016 30144 40152 52017;
0178010440999992013010705504+70483+022150FM-15+0006ENHK V0202901N00771007201CN0112651N1+00501+00101999999ADDGA1021+003901999GA2041+007201999GA3071+008401999GF107991999999999999999999MA1101491999999MW1801REMMET071METAR ENHK 070550Z 29015KT 9999 -SHRA FEW013 SCT024 BKN028 05/01 Q1015;
0159010440999992013010706004+70483+022150FM-12+000699999V0202801N007019999999N9999999N1+00501+00041101541ADDAJ100079199999999KA1999N+00221MA1999999101451MD1110121+9999REMSYN088AAXX  07061 01044 16/// /2807 10050 20004 30145 40154 51012 6//// 333 20022 4/007 91116;
0143010440999992013010706504+70483+022150FM-15+0006ENHK V0202801N007212200019N0112651N1+00501+00001999999ADDGA1021+005101999GA2041+008101999GF104991999999999999999999MA1101491999999REMMET058METAR ENHK 070650Z 28014KT 9999 FEW017 SCT027 05/00 Q1015;
0101010440999992013010707004+70483+022150FM-12+000699999V0202701N006019999999N9999999N1+00461+00041101571ADDMA1999999101481MD1210101+9999REMSYN060AAXX  07071 01044 46/// /2706 10046 20004 30148 40157 52010;
0166010440999992013010707504+70483+022150FM-15+0006ENHK V0202701N00671007801CN0112651N1+00401+00201999999ADDGA1021+005101999GA2041+007801999GA3071+009301999GF107991999999999999999999MA1101591999999REMMET065METAR ENHK 070750Z 27013KT 9999 FEW017 SCT026 BKN031 04/02 Q1016;
0101010440999992013010708004+70483+022150FM-12+000699999V0202601N006019999999N9999999N1+00441+00161101621ADDMA1999999101541MD1310101+9999REMSYN060AAXX  07081 01044 46/// /2606 10044 20016 30154 40162 53010;
0166010440999992013010708504+70483+022150FM-15+0006ENHK V0202701N00671007501CN0112651N1+00401+00101999999ADDGA1021+004801999GA2041+007501999GA3071+011701999GF107991999999999999999999MA1101591999999REMMET065METAR ENHK 070850Z 27013KT 9999 FEW016 SCT025 BKN039 04/01 Q1016;
0101010440999992013010709004+70483+022150FM-12+000699999V0202501N006019999999N9999999N1+00401+00141101661ADDMA1999999101571MD1210121+9999REMSYN060AAXX  07091 01044 46/// /2506 10040 20014 30157 40166 52012;
0101010440999992013010710004+70483+022150FM-12+000699999V0202601N005019999999N9999999N1+00361+00201101661ADDMA1999999101571MD1110081+9999REMSYN060AAXX  07101 01044 46/// /2605 10036 20020 30157 40166 51008;
0143010440999992013010710504+70483+022150FM-15+0006ENHK V0202701N004112200019N0112651N1+00401+00101999999ADDGA1021+005101999GA2041+007801999GF104991999999999999999999MA1101591999999REMMET058METAR ENHK 071050Z 27008KT 9999 FEW017 SCT026 04/01 Q1016;
0101010440999992013010711004+70483+022150FM-12+000699999V0202601N004019999999N9999999N1+00391+00111101641ADDMA1999999101551MD1010021+9999REMSYN060AAXX  07111 01044 46/// /2604 10039 20011 30155 40164 50002;
0143010440999992013010711504+70483+022150FM-15+0006ENHK V0202701N006210087019N0112651N1+00401+00101999999ADDGA1021+005101999GA2071+008701999GF107991999999999999999999MA1101591999999REMMET058METAR ENHK 071150Z 27012KT 9999 FEW017 BKN029 04/01 Q1016;
0117010440999992013010712004+70483+022150FM-12+000699999V0202601N006019999999N9999999N1+00391+00101101651ADDMA1999999101561MD1410001+9999REMSYN076AAXX  07121 01044 16/// /2606 10039 20010 30156 40165 54000 6//// 333 91111;
0143010440999992013010712504+70483+022150FM-15+0006ENHK V0202601N003612200019N0112651N1+00401+00101999999ADDGA1021+005101999GA2041+009001999GF104991999999999999999999MA1101591999999REMMET058METAR ENHK 071250Z 26007KT 9999 FEW017 SCT030 04/01 Q1016;
0101010440999992013010713004+70483+022150FM-12+000699999V0202601N004019999999N9999999N1+00391+00041101621ADDMA1999999101531MD1810031+9999REMSYN060AAXX  07131 01044 46/// /2604 10039 20004 30153 40162 58003;
0120010440999992013010713204+70483+022150FM-15+0006ENHK V0202701N004612200019N0112651N1+00501+00001999999ADDGA1041+009001999GF104991999999999999999999MA1101591999999REMMET051METAR ENHK 071320Z 27009KT 9999 SCT030 05/00 Q1016;
0120010440999992013010713504+70483+022150FM-15+0006ENHK V0202701N004112200019N0112651N1+00401+00101999999ADDGA1041+012001999GF104991999999999999999999MA1101491999999REMMET051METAR ENHK 071350Z 27008KT 9999 SCT040 04/01 Q1015;
0101010440999992013010714004+70483+022150FM-12+000699999V0202601N004019999999N9999999N1+00421+00041101591ADDMA1999999101501MD1810041+9999REMSYN060AAXX  07141 01044 46/// /2604 10042 20004 30150 40159 58004;
0121010440999992013010714204+70483+022150FM-15+0006ENHK V0202701N003112200019N0112651N1+00401+00001999999ADDGA1021+012001999GF102991999999999999999999MA1101491999999REMMET052METAR ENHK 071420Z 27006KT 9999 FEW040 04/M00 Q1015;
0121010440999992013010714504+70483+022150FM-15+0006ENHK V0202501N003112200019N0112651N1+00401+00001999999ADDGA1021+013501999GF102991999999999999999999MA1101491999999REMMET052METAR ENHK 071450Z 25006KT 9999 FEW045 04/M00 Q1015;
0101010440999992013010715004+70483+022150FM-12+000699999V0202501N003019999999N9999999N1+00391-00051101551ADDMA1999999101471MD1710091+9999REMSYN060AAXX  07151 01044 46/// /2503 10039 21005 30147 40155 57009;
0121010440999992013010715204+70483+022150FM-15+0006ENHK V0202401N002612200019N0112651N1+00401-00101999999ADDGA1021+013501999GF102991999999999999999999MA1101491999999REMMET052METAR ENHK 071520Z 24005KT 9999 FEW045 04/M01 Q1015;
0101010440999992013010716004+70483+022150FM-12+000699999V0202301N003019999999N9999999N1+00391-00031101521ADDMA1999999101431MD1710091+9999REMSYN060AAXX  07161 01044 46/// /2303 10039 21003 30143 40152 57009;
0101010440999992013010717004+70483+022150FM-12+000699999V0201701N002019999999N9999999N1+00191-00191101501ADDMA1999999101411MD1710081+9999REMSYN060AAXX  07171 01044 46/// /1702 10019 21019 30141 40150 57008;
0136010440999992013010718004+70483+022150FM-12+000699999V0201701N004019999999N9999999N1+00391+00041101501ADDKA1120M+00521MA1999999101411MD1710041+9999REMSYN082AAXX  07181 01044 16/// /1704 10039 20004 30141 40150 57004 6//// 333 10052 91107;
0101010440999992013010719004+70483+022150FM-12+000699999V0201701N004019999999N9999999N1+00391-00031101461ADDMA1999999101371MD1810061+9999REMSYN060AAXX  07191 01044 46/// /1704 10039 21003 30137 40146 58006;
0101010440999992013010720004+70483+022150FM-12+000699999V0200901N004019999999N9999999N1+00311-00091101381ADDMA1999999101301MD1810111+9999REMSYN060AAXX  07201 01044 46/// /0904 10031 21009 30130 40138 58011;
0101010440999992013010721004+70483+022150FM-12+000699999V0201201N006019999999N9999999N1+00351-00011101311ADDMA1999999101221MD1810181+9999REMSYN060AAXX  07211 01044 46/// /1206 10035 21001 30122 40131 58018;
0101010440999992013010722004+70483+022150FM-12+000699999V0201001N007019999999N9999999N1+00261-00081101191ADDMA1999999101101MD1810261+9999REMSYN060AAXX  07221 01044 46/// /1007 10026 21008 30110 40119 58026;
0101010440999992013010723004+70483+022150FM-12+000699999V0200901N007019999999N9999999N1+00211-00171101111ADDMA1999999101021MD1710271+9999REMSYN060AAXX  07231 01044 46/// /0907 10021 21017 30102 40111 57027;
0117010440999992013010800004+70483+022150FM-12+000699999V0201001N007019999999N9999999N1+00211-00181101041ADDMA1999999100951MD1610261+9999REMSYN076AAXX  08001 01044 16/// /1007 10021 21018 30095 40104 56026 6//// 333 91110;
0101010440999992013010801004+70483+022150FM-12+000699999V0201001N006019999999N9999999N1+00191-00221101021ADDMA1999999100931MD1610161+9999REMSYN060AAXX  08011 01044 46/// /1006 10019 21022 30093 40102 56016;
0101010440999992013010802004+70483+022150FM-12+000699999V0200801N004019999999N9999999N1+00141-00361100941ADDMA1999999100861MD1810151+9999REMSYN060AAXX  08021 01044 46/// /0804 10014 21036 30086 40094 58015;
0101010440999992013010803004+70483+022150FM-12+000699999V0201001N004019999999N9999999N1+00161-00251100871ADDMA1999999100791MD1810151+9999REMSYN060AAXX  08031 01044 46/// /1004 10016 21025 30079 40087 58015;
0101010440999992013010804004+70483+022150FM-12+000699999V0200901N004019999999N9999999N1+00101-00331100811ADDMA1999999100721MD1710201+9999REMSYN060AAXX  08041 01044 46/// /0904 10010 21033 30072 40081 57020;
0073010440999992013010804204+70483+022150FM-15+0006ENHK V0201001N003119999999Y0099001N1+00101-00301999999ADDMA1100711999999REMMET046METAR ENHK 080420Z 10006KT CAVOK 01/M03 Q1007;
0073010440999992013010804504+70483+022150FM-15+0006ENHK V0201001N004119999999Y0099001N1+00101-00401999999ADDMA1100711999999REMMET046METAR ENHK 080450Z 10008KT CAVOK 01/M04 Q1007;
0101010440999992013010805004+70483+022150FM-12+000699999V0200901N004019999999N9999999N1+00071-00391100721ADDMA1999999100631MD1810221+9999REMSYN060AAXX  08051 01044 46/// /0904 10007 21039 30063 40072 58022;
0073010440999992013010805204+70483+022150FM-15+0006ENHK V0201101N004119999999Y0099001N1+00101-00401999999ADDMA1100611999999REMMET046METAR ENHK 080520Z 11008KT CAVOK 01/M04 Q1006;
0073010440999992013010805504+70483+022150FM-15+0006ENHK V0201001N005119999999Y0099001N1+00201-00301999999ADDMA1100611999999REMMET046METAR ENHK 080550Z 10010KT CAVOK 02/M03 Q1006;
0195010440999992013010806004+70483+022150FM-12+000699999V0200901N005019999999N9999999N1+00191-00361100661ADDAA124000091AJ100059199999999KA1999N+00071MA1999999100571MD1810201+9999REMSYN094AAXX  08061 01044 16/// /0905 10019 21036 30057 40066 58020 60004 333 20007 4/005 70000 91110;EQDQ01  00002PRCP24
0073010440999992013010806204+70483+022150FM-15+0006ENHK V0201101N003619999999Y0099001N1+00201-00401999999ADDMA1100611999999REMMET046METAR ENHK 080620Z 11007KT CAVOK 02/M04 Q1006;
0073010440999992013010806504+70483+022150FM-15+0006ENHK V0201101N003119999999Y0099001N1+00201-00401999999ADDMA1100611999999REMMET046METAR ENHK 080650Z 11006KT CAVOK 02/M04 Q1006;
0101010440999992013010807004+70483+022150FM-12+000699999V0201001N004019999999N9999999N1+00181-00361100601ADDMA1999999100511MD1710211+9999REMSYN060AAXX  08071 01044 46/// /1004 10018 21036 30051 40060 57021;
0073010440999992013010807204+70483+022150FM-15+0006ENHK V0201101N003119999999Y0099001N1+00201-00401999999ADDMA1100511999999REMMET046METAR ENHK 080720Z 11006KT CAVOK 02/M04 Q1005;
0073010440999992013010807504+70483+022150FM-15+0006ENHK V0201001N004619999999Y0099001N1+00201-00201999999ADDMA1100411999999REMMET046METAR ENHK 080750Z 10009KT CAVOK 02/M02 Q1004;
0101010440999992013010808004+70483+022150FM-12+000699999V0200801N005019999999N9999999N1+00221-00251100511ADDMA1999999100421MD1810191+9999REMSYN060AAXX  08081 01044 46/// /0805 10022 21025 30042 40051 58019;
0121010440999992013010808504+70483+022150FM-15+0006ENHK V0201001N004612200019N0112651N1+00201-00201999999ADDGF100991999999999999999999MA1100411999999REMMET049METAR ENHK 080850Z 10009KT 9999 NSC 02/M02 Q1004;EQDQ01    003SCCGA1
0101010440999992013010809004+70483+022150FM-12+000699999V0201001N005019999999N9999999N1+00281-00151100441ADDMA1999999100351MD1810211+9999REMSYN060AAXX  08091 01044 46/// /1005 10028 21015 30035 40044 58021;
0121010440999992013010809204+70483+022150FM-15+0006ENHK V0201701N004612200019N0112651N1+00301-00201999999ADDGF100991999999999999999999MA1100411999999REMMET049METAR ENHK 080920Z 17009KT 9999 NSC 03/M02 Q1004;EQDQ01    003SCCGA1
0121010440999992013010809504+70483+022150FM-15+0006ENHK V0201001N003612200019N0112651N1+00201-00201999999ADDGF100991999999999999999999MA1100311999999REMMET049METAR ENHK 080950Z 10007KT 9999 NSC 02/M02 Q1003;EQDQ01    003SCCGA1
0101010440999992013010810004+70483+022150FM-12+000699999V0201001N005019999999N9999999N1+00221-00251100351ADDMA1999999100271MD1810231+9999REMSYN060AAXX  08101 01044 46/// /1005 10022 21025 30027 40035 58023;
0101010440999992013010811004+70483+022150FM-12+000699999V0201001N005019999999N9999999N1+00201-00251100301ADDMA1999999100211MD1710201+9999REMSYN060AAXX  08111 01044 46/// /1005 10020 21025 30021 40030 57020;
0144010440999992013010811204+70483+022150FM-15+0006ENHK V0201101N005110120019N0112651N1+00201-00301999999ADDGA1021+009001999GA2071+012001999GF107991999999999999999999MA1100201999999REMMET059METAR ENHK 081120Z 11010KT 9999 FEW030 BKN040 02/M03 Q1002;
0162010440999992013010811504+70483+022150FM-15+0006ENHK V0201001N004610075019N0112651N1+00201-00301999999ADDGA1021+006001999GA2071+007501999GF107991999999999999999999MA1100201999999MW1611MW2711REMMET065METAR ENHK 081150Z 10009KT 9999 -RASN FEW020 BKN025 02/M03 Q1002;
0117010440999992013010812004+70483+022150FM-12+000699999V0201001N006019999999N9999999N1+00141-00251100211ADDMA1999999100121MD1810221+9999REMSYN076AAXX  08121 01044 16/// /1006 10014 21025 30012 40021 58022 6//// 333 91108;
0138010440999992013010812504+70483+022150FM-15+0006ENHK V0201101N007710060019N0070001N1+00101-00201999999ADDGA1091+006001999GF109991999999000251999999MA1100101999999MW1611MW2711REMMET057METAR ENHK 081250Z 11015KT 7000 -SNRA VV020 01/M02 Q1001;
0101010440999992013010813004+70483+022150FM-12+000699999V0200901N006019999999N9999999N1+00091-00181100131ADDMA1999999100051MD1810211+9999REMSYN060AAXX  08131 01044 46/// /0906 10009 21018 30005 40013 58021;
0185010440999992013010813504+70483+022150FM-15+0006ENHK V0201101N00771007501CN0112651N1+00001-00201999999ADDGA1021+004501999GA2041+007501999GA3071+012001999GF107991999999999999999999MA1100001999999MW1161REMMET078METAR ENHK 081350Z 11015KT 9999 VCSH FEW015 SCT025 BKN040 00/M02 Q1000 RESNRA;
0101010440999992013010814004+70483+022150FM-12+000699999V0201101N007019999999N9999999N1+00071-00141100101ADDMA1999999100021MD1610191+9999REMSYN060AAXX  08141 01044 46/// /1107 10007 21014 30002 40010 56019;
0138010440999992013010814204+70483+022150FM-15+0006ENHK V0201101N007210051019N0080001N1+00001-00201999999ADDGA1091+005101999GF109991999999000251999999MA1100001999999MW1611MW2711REMMET057METAR ENHK 081420Z 11014KT 8000 -SNRA VV017 00/M02 Q1000;
0129010440999992013010814504+70483+022150FM-15+0006ENHK V0201101N006210042019N0040001N1+00001-00101999999ADDGA1091+004201999GF109991999999000251999999MA1100001999999MW1731REMMET054METAR ENHK 081450Z 11012KT 4000 SN VV014 00/M01 Q1000;
0101010440999992013010815004+70483+022150FM-12+000699999V0201001N006019999999N9999999N1+00021-00111100091ADDMA1999999100001MD1610111+9999REMSYN060AAXX  08151 01044 46/// /1006 10002 21011 30000 40009 56011;
0101010440999992013010816004+70483+022150FM-12+000699999V0200901N005019999999N9999999N1+00041-00061100051ADDMA1999999099961MD1810081+9999REMSYN060AAXX  08161 01044 46/// /0905 10004 21006 39996 40005 58008;
0101010440999992013010817004+70483+022150FM-12+000699999V0200801N002019999999N9999999N1+00041-00031100081ADDMA1999999099991MD1510011+9999REMSYN060AAXX  08171 01044 46/// /0802 10004 21003 39999 40008 55001;
0136010440999992013010818004+70483+022150FM-12+000699999V0202401N006019999999N9999999N1+00191+00071100091ADDKA1120M+00331MA1999999100001MD1510001+9999REMSYN082AAXX  08181 01044 16/// /2406 10019 20007 30000 40009 55000 6//// 333 10033 91110;
0101010440999992013010819004+70483+022150FM-12+000699999V0202701N012019999999N9999999N1+00251-00061100121ADDMA1999999100041MD1310081+9999REMSYN060AAXX  08191 01044 46/// /2712 10025 21006 30004 40012 53008;
0101010440999992013010823004+70483+022150FM-12+000699999V0202201N007019999999N9999999N1+00051+00011099961ADDMA1999999099881MD1810161+9999REMSYN060AAXX  08231 01044 46/// /2207 10005 20001 39988 49996 58016;
0117010440999992013010900004+70483+022150FM-12+000699999V0202301N007019999999N9999999N1+00071+00001099961ADDMA1999999099871MD1610141+9999REMSYN076AAXX  09001 01044 16/// /2307 10007 21000 39987 49996 56014 6//// 333 91117;
0101010440999992013010901004+70483+022150FM-12+000699999V0202201N007019999999N9999999N1+00131+00061099951ADDMA1999999099871MD1610081+9999REMSYN060AAXX  09011 01044 46/// /2207 10013 20006 39987 49995 56008;
0101010440999992013010902004+70483+022150FM-12+000699999V0202101N008019999999N9999999N1+00171+00101099981ADDMA1999999099891MD1310021+9999REMSYN060AAXX  09021 01044 46/// /2108 10017 20010 39989 49998 53002;
0101010440999992013010903004+70483+022150FM-12+000699999V0201501N006019999999N9999999N1+00141+00041100101ADDMA1999999100011MD1310151+9999REMSYN060AAXX  09031 01044 46/// /1506 10014 20004 30001 40010 53015;
0101010440999992013010904004+70483+022150FM-12+000699999V0201001N003019999999N9999999N1+00131+00031100251ADDMA1999999100161MD1310301+9999REMSYN060AAXX  09041 01044 46/// /1003 10013 20003 30016 40025 53030;
0166010440999992013010904204+70483+022150FM-15+0006ENHK V0201101N002610057019N0112651N1+00101+00001999999ADDGA1021+003901999GA2071+005701999GF107991999999999999999999MA1100201999999REMMET081METAR ENHK 090420Z 11005KT 9999 FEW013 BKN019 01/00 Q1002 RMK/WIND THR11 06004KT;
0121010440999992013010904504+70483+022150FM-15+0006ENHK V0209999V001012200019N0112651N1+00101+00001999999ADDGA1041+005701999GF104991999999999999999999MA1100311999999REMMET052METAR ENHK 090450Z VRB02KT 9999 SCT019 01/M00 Q1003;
0101010440999992013010905004+70483+022150FM-12+000699999V0202501N001019999999N9999999N1+00131-00031100371ADDMA1999999100281MD1310391+9999REMSYN060AAXX  09051 01044 46/// /2501 10013 21003 30028 40037 53039;
0152010440999992013010905204+70483+022150FM-15+0006ENHK V0201201N002612200019N0112651N1+00201-00101999999ADDGA1021+005101999GA2041+006301999GF104991999999999999999999MA1100411999999REMMET067METAR ENHK 090520Z 12005KT 090V150 9999 FEW017 SCT021 02/M01 Q1004;
0121010440999992013010905504+70483+022150FM-15+0006ENHK V0200101N001512200019N0112651N1+00201-00101999999ADDGA1021+006001999GF102991999999999999999999MA1100411999999REMMET052METAR ENHK 090550Z 01003KT 9999 FEW020 02/M01 Q1004;
0176010440999992013010906004+70483+022150FM-12+000699999V0203501N002019999999N9999999N1+00201-00141100481ADDAA124011491AJ100049199999999KA1999N+00041MA1999999100391MD1310381+9999REMSYN094AAXX  09061 01044 16/// /3502 10020 21014 30039 40048 53038 60114 333 20004 4/004 70114 91111;
0152010440999992013010906204+70483+022150FM-15+0006ENHK V0203401N002610210019N0112651N1+00201-00101999999ADDGA1021+006001999GA2071+021001999GF107991999999999999999999MA1100511999999REMMET067METAR ENHK 090620Z 34005KT 310V010 9999 FEW020 BKN078 02/M01 Q1005;
0167010440999992013010906504+70483+022150FM-15+0006ENHK V0209999V00051015001CN0112651N1+00101-00101999999ADDGA1021+011101999GA2041+015001999GA3071+024001999GF107991999999999999999999MA1100511999999REMMET066METAR ENHK 090650Z VRB01KT 9999 FEW037 SCT051 BKN086 01/M01 Q1005;
0101010440999992013010907004+70483+022150FM-12+000699999V0202301N001019999999N9999999N1+00171-00121100571ADDMA1999999100481MD1210321+9999REMSYN060AAXX  09071 01044 46/// /2301 10017 21012 30048 40057 52032;
0121010440999992013010907204+70483+022150FM-15+0006ENHK V0209999V002110123019N0112651N1+00201-00101999999ADDGA1071+012301999GF107991999999999999999999MA1100511999999REMMET052METAR ENHK 090720Z VRB04KT 9999 BKN041 02/M01 Q1005;
0101010440999992013010908004+70483+022150FM-12+000699999V0203201N002019999999N9999999N1+00161-00101100661ADDMA1999999100571MD1210291+9999REMSYN060AAXX  09081 01044 46/// /3202 10016 21010 30057 40066 52029;
0144010440999992013010908204+70483+022150FM-15+0006ENHK V0203101N002610240019N0112651N1+00201+00001999999ADDGA1041+009001999GA2071+024001999GF107991999999999999999999MA1100611999999REMMET059METAR ENHK 090820Z 31005KT 9999 SCT030 BKN080 02/M00 Q1006;
0101010440999992013010909004+70483+022150FM-12+000699999V0203301N002019999999N9999999N1+00151+00001100741ADDMA1999999100651MD1210261+9999REMSYN060AAXX  09091 01044 46/// /3302 10015 20000 30065 40074 52026;
0166010440999992013010909204+70483+022150FM-15+0006ENHK V0209999V00101005101CN0112651N1+00101+00001999999ADDGA1021+003601999GA2041+005101999GA3071+008101999GF107991999999999999999999MA1100711999999REMMET065METAR ENHK 090920Z VRB02KT 9999 FEW012 SCT017 BKN027 01/00 Q1007;
0101010440999992013010910004+70483+022150FM-12+000699999V0203501N002019999999N9999999N1+00201+00041100791ADDMA1999999100711MD1210221+9999REMSYN060AAXX  09101 01044 46/// /3502 10020 20004 30071 40079 52022;
0151010440999992013010910204+70483+022150FM-15+0006ENHK V0203301N002112200019N0112651N1+00201+00101999999ADDGA1021+003601999GA2041+011101999GF104991999999999999999999MA1100811999999REMMET066METAR ENHK 091020Z 33004KT 280V360 9999 FEW012 SCT037 02/01 Q1008;
0101010440999992013010911004+70483+022150FM-12+000699999V0203301N002019999999N9999999N1+00191+00041100861ADDMA1999999100771MD1210191+9999REMSYN060AAXX  09111 01044 46/// /3302 10019 20004 30077 40086 52019;
0130010440999992013010911204+70483+022150FM-15+0006ENHK V0203101N002110069019N0112651N1+00201+00001999999ADDGA1071+006901999GF107991999999999999999999MA1100811999999MW1611REMMET055METAR ENHK 091120Z 31004KT 9999 -RA BKN023 02/00 Q1008;
0184010440999992013010911504+70483+022150FM-15+0006ENHK V0203101N00151004201CN0112651N1+00201+00101999999ADDGA1021+003001999GA2041+004201999GA3071+006601999GF107991999999999999999999MA1100911999999MW1611REMMET077METAR ENHK 091150Z 31003KT 270V010 9999 -RA FEW010 SCT014 BKN022 02/01 Q1009;
0117010440999992013010912004+70483+022150FM-12+000699999V0203401N001019999999N9999999N1+00211+00081100911ADDMA1999999100821MD1210171+9999REMSYN076AAXX  09121 01044 16/// /3401 10021 20008 30082 40091 52017 6//// 333 91104;
0161010440999992013010912504+70483+022150FM-15+0006ENHK V0203501N002610063019N0112651N1+00301+00101999999ADDGA1041+003301999GA2071+006301999GF107991999999999999999999MA1101021999999MW1611REMMET070METAR ENHK 091250Z 35005KT 300V070 9999 -RA SCT011 BKN021 03/01 Q1010;
0101010440999992013010913004+70483+022150FM-12+000699999V0203601N002019999999N9999999N1+00271+00091101011ADDMA1999999100921MD1310211+9999REMSYN060AAXX  09131 01044 46/// /3602 10027 20009 30092 40101 53021;
0196010440999992013010913204+70483+022150FM-15+0006ENHK V0200201N00461006601CN0112651N1+00401+00001999999ADDGA1021+003001999GA2041+006601999GA3071+009901999GF107991999999999999999999MA1101021999999MW1611OC101031REMMET081METAR ENHK 091320Z 02009G20KT 300V070 9999 -RA FEW010 SCT022 BKN033 04/M00 Q1010;
0157010440999992013010913504+70483+022150FM-15+0006ENHK V0200201N005110072019N0112651N1+00401+00001999999ADDGA1021+003001999GA2071+007201999GF107991999999999999999999MA1101021999999REMMET072METAR ENHK 091350Z 02010KT 330V090 9999 FEW010 BKN024 04/M00 Q1010 RERA;
0101010440999992013010914004+70483+022150FM-12+000699999V0200201N004019999999N9999999N1+00341-00021101101ADDMA1999999101021MD1310241+9999REMSYN060AAXX  09141 01044 46/// /0204 10034 21002 30102 40110 53024;
0161010440999992013010914204+70483+022150FM-15+0006ENHK V0200201N005110063019N0112651N1+00301+00001999999ADDGA1041+003001999GA2071+006301999GF107991999999999999999999MA1101081999999MW1611REMMET070METAR ENHK 091420Z 02010KT 360V070 9999 -RA SCT010 BKN021 03/00 Q1011;
0195010440999992013010914504+70483+022150FM-15+0006ENHK V0200101N00311003301CN0112651N1+00301+00101999999ADDGA1021+002401999GA2041+003301999GA3071+005701999GF107991999999999999999999MA1101081999999MW1611OC100821REMMET080METAR ENHK 091450Z 01006G16KT 330V050 9999 -RA FEW008 SCT011 BKN019 03/01 Q1011;
0101010440999992013010915004+70483+022150FM-12+000699999V0200101N004019999999N9999999N1+00241+00061101171ADDMA1999999101081MD1210261+9999REMSYN060AAXX  09151 01044 46/// /0104 10024 20006 30108 40117 52026;
0101010440999992013010916004+70483+022150FM-12+000699999V0200101N004019999999N9999999N1+00301+00061101281ADDMA1999999101201MD1310281+9999REMSYN060AAXX  09161 01044 46/// /0104 10030 20006 30120 40128 53028;
0101010440999992013010917004+70483+022150FM-12+000699999V0200301N003019999999N9999999N1+00321-00041101371ADDMA1999999101281MD1310271+9999REMSYN060AAXX  09171 01044 46/// /0303 10032 21004 30128 40137 53027;
0136010440999992013010918004+70483+022150FM-12+000699999V0200401N004019999999N9999999N1+00271-00071101461ADDKA1120M+00391MA1999999101371MD1310291+9999REMSYN082AAXX  09181 01044 16/// /0404 10027 21007 30137 40146 53029 6//// 333 10039 91111;
0101010440999992013010919004+70483+022150FM-12+000699999V0200101N003019999999N9999999N1+00291-00071101521ADDMA1999999101431MD1210231+9999REMSYN060AAXX  09191 01044 46/// /0103 10029 21007 30143 40152 52023;
0101010440999992013010920004+70483+022150FM-12+000699999V0200201N003019999999N9999999N1+00291-00071101621ADDMA1999999101531MD1310251+9999REMSYN060AAXX  09201 01044 46/// /0203 10029 21007 30153 40162 53025;
0101010440999992013010921004+70483+022150FM-12+000699999V0200401N004019999999N9999999N1+00301-00131101661ADDMA1999999101571MD1210201+9999REMSYN060AAXX  09211 01044 46/// /0404 10030 21013 30157 40166 52020;
0101010440999992013010922004+70483+022150FM-12+000699999V0200101N004019999999N9999999N1+00241-00071101721ADDMA1999999101631MD1110201+9999REMSYN060AAXX  09221 01044 46/// /0104 10024 21007 30163 40172 51020;
0101010440999992013010923004+70483+022150FM-12+000699999V0200101N005019999999N9999999N1+00261-00121101761ADDMA1999999101681MD1210141+9999REMSYN060AAXX  09231 01044 46/// /0105 10026 21012 30168 40176 52014;
0117010440999992013011000004+70483+022150FM-12+000699999V0203401N002019999999N9999999N1+00231-00101101861ADDMA1999999101781MD1310211+9999REMSYN076AAXX  10001 01044 16/// /3402 10023 21010 30178 40186 53021 6//// 333 91109;
0101010440999992013011001004+70483+022150FM-12+000699999V0200401N003019999999N9999999N1+00231-00201101911ADDMA1999999101821MD1210191+9999REMSYN060AAXX  10011 01044 46/// /0403 10023 21020 30182 40191 52019;
0101010440999992013011002004+70483+022150FM-12+000699999V0200201N003019999999N9999999N1+00231-00241101981ADDMA1999999101891MD1310211+9999REMSYN060AAXX  10021 01044 46/// /0203 10023 21024 30189 40198 53021;
0101010440999992013011003004+70483+022150FM-12+000699999V0203101N001019999999N9999999N1-00071-00291101981ADDMA1999999101891MD1110121+9999REMSYN060AAXX  10031 01044 46/// /3101 11007 21029 30189 40198 51012;
0101010440999992013011004004+70483+022150FM-12+000699999V0201501N001019999999N9999999N1+00081-00211102051ADDMA1999999101961MD1310141+9999REMSYN060AAXX  10041 01044 46/// /1501 10008 21021 30196 40205 53014;
0122010440999992013011004204+70483+022150FM-15+0006ENHK V0209999V001010138019N0112651N1+00001-00301999999ADDGA1071+013801999GF107991999999999999999999MA1102001999999REMMET053METAR ENHK 100420Z VRB02KT 9999 BKN046 M00/M03 Q1020;
0156010440999992013011004504+70483+022150FM-15+0006ENHK V0203501N002110135019N0112651N1+00101-00101999999ADDGA1021+003601999GA2071+013501999GF107991999999999999999999MA1102001999999MW1801REMMET065METAR ENHK 100450Z 35004KT 9999 -SHRA FEW012 BKN045 01/M01 Q1020;
0101010440999992013011005004+70483+022150FM-12+000699999V0203401N002019999999N9999999N1+00111-00081102081ADDMA1999999102001MD1310111+9999REMSYN060AAXX  10051 01044 46/// /3402 10011 21008 30200 40208 53011;
0172010440999992013011005204+70483+022150FM-15+0006ENHK V0203301N002110117019N0112651N1+00101+00001999999ADDGA1021+004501999GA2071+011701999GF107991999999999999999999MA1102001999999MW1531MW2801REMMET075METAR ENHK 100520Z 33004KT 310V020 9999 -SHRADZ FEW015 BKN039 01/M00 Q1020;
0152010440999992013011005504+70483+022150FM-15+0006ENHK V0200301N004110111019N0112651N1+00301-00101999999ADDGA1071+011101999GF107991999999999999999999MA1102101999999REMMET083METAR ENHK 100550Z 03008KT 350V070 9999 BKN037 03/M01 Q1021 RMK/WIND THR11 34004KT;
0176010440999992013011006004+70483+022150FM-12+000699999V0200201N003019999999N9999999N1+00251-00201102111ADDAA124003391AJ100049199999999KA1999N-00121MA1999999102021MD1210131+9999REMSYN094AAXX  10061 01044 16/// /0203 10025 21020 30202 40211 52013 60034 333 21012 4/004 70034 91107;
0121010440999992013011006504+70483+022150FM-15+0006ENHK V0200201N003112200019N0112651N1+00201-00301999999ADDGA1041+012601999GF104991999999999999999999MA1102101999999REMMET052METAR ENHK 100650Z 02006KT 9999 SCT042 02/M03 Q1021;
0101010440999992013011007004+70483+022150FM-12+000699999V0200101N003019999999N9999999N1+00211-00281102141ADDMA1999999102051MD1310101+9999REMSYN060AAXX  10071 01044 46/// /0103 10021 21028 30205 40214 53010;
0129010440999992013011007504+70483+022150FM-15+0006ENHK V0200301N002612200019N0112651N1+00201-00301999999ADDGA1021+012601999GF102991999999999999999999MA1102101999999REMMET060METAR ENHK 100750Z 03005KT 340V070 9999 FEW042 02/M03 Q1021;
0101010440999992013011008004+70483+022150FM-12+000699999V0200201N003019999999N9999999N1+00221-00331102181ADDMA1999999102091MD1310101+9999REMSYN060AAXX  10081 01044 46/// /0203 10022 21033 30209 40218 53010;
0121010440999992013011008504+70483+022150FM-15+0006ENHK V0200101N001012200019N0112651N1+00201-00301999999ADDGA1041+009601999GF104991999999999999999999MA1102201999999REMMET052METAR ENHK 100850Z 01002KT 9999 SCT032 02/M03 Q1022;
0101010440999992013011009004+70483+022150FM-12+000699999V0209999C000019999999N9999999N1+00121-00331102251ADDMA1999999102161MD1310141+9999REMSYN060AAXX  10091 01044 46/// /0000 10012 21033 30216 40225 53014;
0101010440999992013011010004+70483+022150FM-12+000699999V0203001N001019999999N9999999N1+00111-00151102221ADDMA1999999102131MD1010071+9999REMSYN060AAXX  10101 01044 46/// /3001 10011 21015 30213 40222 50007;
0144010440999992013011010504+70483+022150FM-15+0006ENHK V0209999V000510066019N0112651N1+00101-00101999999ADDGA1041+003601999GA2071+006601999GF107991999999999999999999MA1102201999999REMMET059METAR ENHK 101050Z VRB01KT 9999 SCT012 BKN022 01/M01 Q1022;
0101010440999992013011011004+70483+022150FM-12+000699999V0202901N001019999999N9999999N1+00131-00031102211ADDMA1999999102121MD1010031+9999REMSYN060AAXX  10111 01044 46/// /2901 10013 21003 30212 40221 50003;
0158010440999992013011011504+70483+022150FM-15+0006ENHK V0209999V001010066019N0112651N1+00101+00001999999ADDGA1041+003601999GA2071+006601999GF107991999999999999999999MA1102201999999MW1831REMMET067METAR ENHK 101150Z VRB02KT 9999 -SHRASN SCT012 BKN022 01/M00 Q1022;
0117010440999992013011012004+70483+022150FM-12+000699999V0202901N001019999999N9999999N1+00131-00031102221ADDMA1999999102131MD1510021+9999REMSYN076AAXX  10121 01044 16/// /2901 10013 21003 30213 40222 55002 6//// 333 91105;
0158010440999992013011012504+70483+022150FM-15+0006ENHK V0209999V001010072019N0112651N1+00101-00101999999ADDGA1041+003601999GA2071+007201999GF107991999999999999999999MA1102101999999MW1831REMMET067METAR ENHK 101250Z VRB02KT 9999 -SHRASN SCT012 BKN024 01/M01 Q1021;
0101010440999992013011013004+70483+022150FM-12+000699999V0202601N001019999999N9999999N1+00121-00091102191ADDMA1999999102101MD1810021+9999REMSYN060AAXX  10131 01044 46/// /2601 10012 21009 30210 40219 58002;
0175010440999992013011013204+70483+022150FM-15+0006ENHK V0203101N00211008401CN0112651N1+00201+00001999999ADDGA1021+005101999GA2041+008401999GA3071+011401999GF107991999999999999999999MA1102101999999REMMET074METAR ENHK 101320Z 31004KT 260V340 9999 FEW017 SCT028 BKN038 02/M00 Q1021;
0144010440999992013011013504+70483+022150FM-15+0006ENHK V0203101N005112200019N0112651N1+00201-00201999999ADDGA1021+005101999GA2041+008701999GF104991999999999999999999MA1102101999999REMMET059METAR ENHK 101350Z 31010KT 9999 FEW017 SCT029 02/M02 Q1021;
0101010440999992013011014004+70483+022150FM-12+000699999V0203001N005019999999N9999999N1+00211-00241102181ADDMA1999999102091MD1710021+9999REMSYN060AAXX  10141 01044 46/// /3005 10021 21024 30209 40218 57002;
0144010440999992013011014504+70483+022150FM-15+0006ENHK V0203201N005112200019N0112651N1+00201-00201999999ADDGA1021+005101999GA2041+009001999GF104991999999999999999999MA1102101999999REMMET059METAR ENHK 101450Z 32010KT 9999 FEW017 SCT030 02/M02 Q1021;
0101010440999992013011015004+70483+022150FM-12+000699999V0203001N006019999999N9999999N1+00231-00181102181ADDMA1999999102091MD1710031+9999REMSYN060AAXX  10151 01044 46/// /3006 10023 21018 30209 40218 57003;
0120010440999992013011016004+70483+022150FM-12+000699999V0202801N005019999999N9999999N1+00191-00151102171ADDMA1999999102081MD1710021+9999REMSYN060AAXX  10161 01044 46/// /2805 10019 21015 30208 40217 57000;EQDQ01+000072APCTEN
0101010440999992013011017004+70483+022150FM-12+000699999V0202901N006019999999N9999999N1+00131-00061102181ADDMA1999999102091MD1410001+9999REMSYN060AAXX  10171 01044 46/// /2906 10013 21006 30209 40218 54000;
0136010440999992013011018004+70483+022150FM-12+000699999V0202801N005019999999N9999999N1+00181-00081102161ADDKA1120M+00251MA1999999102071MD1810011+9999REMSYN082AAXX  10181 01044 16/// /2805 10018 21008 30207 40216 58001 6//// 333 10025 91109;
0101010440999992013011019004+70483+022150FM-12+000699999V0202801N006019999999N9999999N1+00211-00111102131ADDMA1999999102041MD1810031+9999REMSYN060AAXX  10191 01044 46/// /2806 10021 21011 30204 40213 58003;
0101010440999992013011020004+70483+022150FM-12+000699999V0202801N006019999999N9999999N1+00141-00051102111ADDMA1999999102021MD1710061+9999REMSYN060AAXX  10201 01044 46/// /2806 10014 21005 30202 40211 57006;
0101010440999992013011021004+70483+022150FM-12+000699999V0202801N006019999999N9999999N1+00161+00001102081ADDMA1999999101991MD1710061+9999REMSYN060AAXX  10211 01044 46/// /2806 10016 21000 30199 40208 57006;
0101010440999992013011022004+70483+022150FM-12+000699999V0203001N008019999999N9999999N1+00191+00011102031ADDMA1999999101941MD1810091+9999REMSYN060AAXX  10221 01044 46/// /3008 10019 20001 30194 40203 58009;
0101010440999992013011023004+70483+022150FM-12+000699999V0202901N008019999999N9999999N1+00151+00021102051ADDMA1999999101961MD1510041+9999REMSYN060AAXX  10231 01044 46/// /2908 10015 20002 30196 40205 55004;
0117010440999992013011100004+70483+022150FM-12+000699999V0202801N008019999999N9999999N1+00201-00071101991ADDMA1999999101901MD1810081+9999REMSYN076AAXX  11001 01044 16/// /2808 10020 21007 30190 40199 58008 6//// 333 91113;
0101010440999992013011101004+70483+022150FM-12+000699999V0202801N008019999999N9999999N1+00261-00151101951ADDMA1999999101861MD1810071+9999REMSYN060AAXX  11011 01044 46/// /2808 10026 21015 30186 40195 58007;
0101010440999992013011102004+70483+022150FM-12+000699999V0202701N010019999999N9999999N1+00231-00101101921ADDMA1999999101841MD1610121+9999REMSYN060AAXX  11021 01044 46/// /2710 10023 21010 30184 40192 56012;
0101010440999992013011103004+70483+022150FM-12+000699999V0202701N009019999999N9999999N1+00241-00091101881ADDMA1999999101791MD1710101+9999REMSYN060AAXX  11031 01044 46/// /2709 10024 21009 30179 40188 57010;
0101010440999992013011104004+70483+022150FM-12+000699999V0202801N011019999999N9999999N1+00261-00051101831ADDMA1999999101741MD1810121+9999REMSYN060AAXX  11041 01044 46/// /2811 10026 21005 30174 40183 58012;
0144010440999992013011104204+70483+022150FM-15+0006ENHK V0202701N009310066019N0112651N1+00201+00001999999ADDGA1041+003901999GA2071+006601999GF107991999999999999999999MA1101691999999REMMET059METAR ENHK 110420Z 27018KT 9999 SCT013 BKN022 02/M00 Q1017;
0155010440999992013011104504+70483+022150FM-15+0006ENHK V0202801N010310060019N0112651N1+00201+00001999999ADDGA1041+004201999GA2071+006001999GF107991999999999999999999MA1101691999999MW1811REMMET064METAR ENHK 110450Z 28020KT 9999 SHRA SCT014 BKN020 02/M00 Q1017;
0101010440999992013011105004+70483+022150FM-12+000699999V0202801N011019999999N9999999N1+00241+00001101751ADDMA1999999101661MD1810161+9999REMSYN060AAXX  11051 01044 46/// /2811 10024 21000 30166 40175 58016;
0177010440999992013011105204+70483+022150FM-15+0006ENHK V0202801N01081003901CN0112651N1+00201+00001999999ADDGA1021+003001999GA2041+003901999GA3071+006001999GF107991999999999999999999MA1101691999999MW1811REMMET070METAR ENHK 110520Z 28021KT 9999 SHRA FEW010 SCT013 BKN020 02/00 Q1017;
0155010440999992013011105504+70483+022150FM-15+0006ENHK V0202801N009810045019N0070001N1+00201+00101999999ADDGA1041+002401999GA2071+004501999GF107991999999999999999999MA1101691999999MW1801REMMET064METAR ENHK 110550Z 28019KT 7000 -SHRA SCT008 BKN015 02/01 Q1017;
0176010440999992013011106004+70483+022150FM-12+000699999V0202701N010019999999N9999999N1+00231+00081101741ADDAA124000891AJ100039199999999KA1999N+00111MA1999999101651MD1610131+9999REMSYN094AAXX  11061 01044 16/// /2710 10023 20008 30165 40174 56013 69984 333 20011 4/003 70008 91115;
0155010440999992013011106504+70483+022150FM-15+0006ENHK V0202901N011810090019N0112651N1+00301+00001999999ADDGA1041+004501999GA2071+009001999GF107991999999999999999999MA1101691999999OC101701REMMET062METAR ENHK 110650Z 29023G33KT 9999 SCT015 BKN030 03/M00 Q1017;
0101010440999992013011107004+70483+022150FM-12+000699999V0202901N012019999999N9999999N1+00291-00021101711ADDMA1999999101621MD1610111+9999REMSYN060AAXX  11071 01044 46/// /2912 10029 21002 30162 40171 56011;
0155010440999992013011107204+70483+022150FM-15+0006ENHK V0202801N011810090019N0112651N1+00301+00001999999ADDGA1041+005401999GA2071+009001999GF107991999999999999999999MA1101691999999OC101701REMMET062METAR ENHK 110720Z 28023G33KT 9999 SCT018 BKN030 03/M00 Q1017;
0178010440999992013011107504+70483+022150FM-15+0006ENHK V0202801N01081005401CN0112651N1+00301+00001999999ADDGA1021+004501999GA2041+005401999GA3071+007201999GF107991999999999999999999MA1101691999999MW1161REMMET071METAR ENHK 110750Z 28021KT 9999 VCSH FEW015 SCT018 BKN024 03/M00 Q1017;
0101010440999992013011108004+70483+022150FM-12+000699999V0202801N011019999999N9999999N1+00311+00001101701ADDMA1999999101611MD1810051+9999REMSYN060AAXX  11081 01044 46/// /2811 10031 20000 30161 40170 58005;
0166010440999992013011108504+70483+022150FM-15+0006ENHK V0202801N012310102019N0112651N1+00401-00101999999ADDGA1041+007201999GA2071+010201999GF107991999999999999999999MA1101591999999MW1161OC101751REMMET067METAR ENHK 110850Z 28024G34KT 9999 VCSH SCT024 BKN034 04/M01 Q1016;
0101010440999992013011109004+70483+022150FM-12+000699999V0202701N013019999999N9999999N1+00351-00141101661ADDMA1999999101581MD1710061+9999REMSYN060AAXX  11091 01044 46/// /2713 10035 21014 30158 40166 57006;
0155010440999992013011109504+70483+022150FM-15+0006ENHK V0202901N011810102019N0112651N1+00401+00001999999ADDGA1041+007201999GA2071+010201999GF107991999999999999999999MA1101591999999OC101701REMMET062METAR ENHK 110950Z 29023G33KT 9999 SCT024 BKN034 04/M00 Q1016;
0101010440999992013011110004+70483+022150FM-12+000699999V0202801N012019999999N9999999N1+00381-00081101631ADDMA1999999101551MD1810071+9999REMSYN060AAXX  11101 01044 46/// /2812 10038 21008 30155 40163 58007;
0101010440999992013011111004+70483+022150FM-12+000699999V0202801N012019999999N9999999N1+00381+00021101611ADDMA1999999101521MD1710081+9999REMSYN060AAXX  11111 01044 46/// /2812 10038 20002 30152 40161 57008;
0165010440999992013011111504+70483+022150FM-15+0006ENHK V0202801N011310072019N0112651N1+00401+00101999999ADDGA1041+004801999GA2071+007201999GF107991999999999999999999MA1101591999999MW1161OC101651REMMET066METAR ENHK 111150Z 28022G32KT 9999 VCSH SCT016 BKN024 04/01 Q1016;
0117010440999992013011112004+70483+022150FM-12+000699999V0202701N012019999999N9999999N1+00391+00111101581ADDMA1999999101491MD1710071+9999REMSYN076AAXX  11121 01044 16/// /2712 10039 20011 30149 40158 57007 6//// 333 91118;
0155010440999992013011112504+70483+022150FM-15+0006ENHK V0202801N012910036019N0112651N1+00401+00201999999ADDGA1041+002701999GA2071+003601999GF107991999999999999999999MA1101491999999MW1801REMMET064METAR ENHK 111250Z 28025KT 9999 -SHRA SCT009 BKN012 04/02 Q1015;
0101010440999992013011113004+70483+022150FM-12+000699999V0202701N013019999999N9999999N1+00361+00181101581ADDMA1999999101491MD1710041+9999REMSYN060AAXX  11131 01044 46/// /2713 10036 20018 30149 40158 57004;
0154010440999992013011113504+70483+022150FM-15+0006ENHK V0202801N012310027019N0090001N1+00401+00201999999ADDGA1071+002701999GA2071+003301999GF107991999999999999999999MA1101491999999MW1811REMMET063METAR ENHK 111350Z 28024KT 9000 SHRA BKN009 BKN011 04/02 Q1015;
0101010440999992013011114004+70483+022150FM-12+000699999V0202801N012019999999N9999999N1+00391+00231101541ADDMA1999999101451MD1710061+9999REMSYN060AAXX  11141 01044 46/// /2812 10039 20023 30145 40154 57006;
0153010440999992013011114204+70483+022150FM-15+0006ENHK V0202801N012310033019N0112651N1+00301+00201999999ADDGA1021+002101999GA2071+003301999GF107991999999999999999999MA1101491999999MW1611REMMET062METAR ENHK 111420Z 28024KT 9999 -RA FEW007 BKN011 03/02 Q1015;
0176010440999992013011114504+70483+022150FM-15+0006ENHK V0202801N01131003001CN0090001N1+00401+00201999999ADDGA1021+002101999GA2041+003001999GA3071+005101999GF107991999999999999999999MA1101491999999MW1611REMMET069METAR ENHK 111450Z 28022KT 9000 -RA FEW007 SCT010 BKN017 04/02 Q1015;
0101010440999992013011115004+70483+022150FM-12+000699999V0202701N012019999999N9999999N1+00431+00221101521ADDMA1999999101431MD1710061+9999REMSYN060AAXX  11151 01044 46/// /2712 10043 20022 30143 40152 57006;
0101010440999992013011116004+70483+022150FM-12+000699999V0202701N012019999999N9999999N1+00421+00211101531ADDMA1999999101441MD1510041+9999REMSYN060AAXX  11161 01044 46/// /2712 10042 20021 30144 40153 55004;
0101010440999992013011117004+70483+022150FM-12+000699999V0202801N011019999999N9999999N1+00451+00241101481ADDMA1999999101401MD1810041+9999REMSYN060AAXX  11171 01044 46/// /2811 10045 20024 30140 40148 58004;
0136010440999992013011118004+70483+022150FM-12+000699999V0202701N013019999999N9999999N1+00451+00241101461ADDKA1120M+00461MA1999999101371MD1810041+9999REMSYN082AAXX  11181 01044 16/// /2713 10045 20024 30137 40146 58004 6//// 333 10046 91119;
0101010440999992013011119004+70483+022150FM-12+000699999V0202701N013019999999N9999999N1+00441+00261101441ADDMA1999999101361MD1710081+9999REMSYN060AAXX  11191 01044 46/// /2713 10044 20026 30136 40144 57008;
0101010440999992013011120004+70483+022150FM-12+000699999V0202701N014019999999N9999999N1+00421+00291101451ADDMA1999999101361MD1710031+9999REMSYN060AAXX  11201 01044 46/// /2714 10042 20029 30136 40145 57003;
0101010440999992013011121004+70483+022150FM-12+000699999V0202701N013019999999N9999999N1+00441+00371101411ADDMA1999999101321MD1710041+9999REMSYN060AAXX  11211 01044 46/// /2713 10044 20037 30132 40141 57004;
0101010440999992013011122004+70483+022150FM-12+000699999V0202701N014019999999N9999999N1+00471+00401101401ADDMA1999999101321MD1710031+9999REMSYN060AAXX  11221 01044 46/// /2714 10047 20040 30132 40140 57003;
0101010440999992013011123004+70483+022150FM-12+000699999V0202701N012019999999N9999999N1+00471+00411101381ADDMA1999999101291MD1710051+9999REMSYN060AAXX  11231 01044 46/// /2712 10047 20041 30129 40138 57005;
0117010440999992013011200004+70483+022150FM-12+000699999V0203001N012019999999N9999999N1+00431+00391101421ADDMA1999999101331MD1510011+9999REMSYN076AAXX  12001 01044 16/// /3012 10043 20039 30133 40142 55001 6//// 333 91120;
0101010440999992013011201004+70483+022150FM-12+000699999V0203001N011019999999N9999999N1+00461+00301101391ADDMA1999999101311MD1010001+9999REMSYN060AAXX  12011 01044 46/// /3011 10046 20030 30131 40139 50000;
0101010440999992013011202004+70483+022150FM-12+000699999V0203001N012019999999N9999999N1+00461+00261101421ADDMA1999999101331MD1010031+9999REMSYN060AAXX  12021 01044 46/// /3012 10046 20026 30133 40142 50003;
0101010440999992013011203004+70483+022150FM-12+000699999V0203001N013019999999N9999999N1+00451+00101101451ADDMA1999999101361MD1310031+9999REMSYN060AAXX  12031 01044 46/// /3013 10045 20010 30136 40145 53003;
0101010440999992013011204004+70483+022150FM-12+000699999V0203101N013019999999N9999999N1+00421+00051101471ADDMA1999999101391MD1210081+9999REMSYN060AAXX  12041 01044 46/// /3113 10042 20005 30139 40147 52008;
0101010440999992013011205004+70483+022150FM-12+000699999V0203101N012019999999N9999999N1+00391+00011101481ADDMA1999999101401MD1010071+9999REMSYN060AAXX  12051 01044 46/// /3112 10039 20001 30140 40148 50007;
0136010440999992013011206004+70483+022150FM-12+000699999V0203001N011019999999N9999999N1+00391+00011101521ADDKA1999N+00381MA1999999101431MD1210071+9999REMSYN082AAXX  12061 01044 16/// /3011 10039 20001 30143 40152 52007 6//// 333 20038 91117;
0101010440999992013011207004+70483+022150FM-12+000699999V0203001N010019999999N9999999N1+00371-00051101561ADDMA1999999101481MD1310091+9999REMSYN060AAXX  12071 01044 46/// /3010 10037 21005 30148 40156 53009;
0101010440999992013011208004+70483+022150FM-12+000699999V0203101N011019999999N9999999N1+00361-00111101601ADDMA1999999101511MD1210121+9999REMSYN060AAXX  12081 01044 46/// /3111 10036 21011 30151 40160 52012;
0101010440999992013011209004+70483+022150FM-12+000699999V0203001N010019999999N9999999N1+00391-00051101641ADDMA1999999101551MD1210121+9999REMSYN060AAXX  12091 01044 46/// /3010 10039 21005 30155 40164 52012;
0101010440999992013011210004+70483+022150FM-12+000699999V0203101N009019999999N9999999N1+00381-00131101651ADDMA1999999101571MD1210091+9999REMSYN060AAXX  12101 01044 46/// /3109 10038 21013 30157 40165 52009;
0101010440999992013011211004+70483+022150FM-12+000699999V0203001N010019999999N9999999N1+00391-00161101681ADDMA1999999101591MD1210081+9999REMSYN060AAXX  12111 01044 46/// /3010 10039 21016 30159 40168 52008;
0117010440999992013011212004+70483+022150FM-12+000699999V0203101N010019999999N9999999N1+00391-00161101681ADDMA1999999101591MD1210051+9999REMSYN076AAXX  12121 01044 16/// /3110 10039 21016 30159 40168 52005 6//// 333 91115;
0101010440999992013011213004+70483+022150FM-12+000699999V0203101N010019999999N9999999N1+00371-00201101721ADDMA1999999101631MD1210061+9999REMSYN060AAXX  12131 01044 46/// /3110 10037 21020 30163 40172 52006;
0101010440999992013011214004+70483+022150FM-12+000699999V0203101N009019999999N9999999N1+00361-00191101731ADDMA1999999101641MD1210051+9999REMSYN060AAXX  12141 01044 46/// /3109 10036 21019 30164 40173 52005;
0101010440999992013011215004+70483+022150FM-12+000699999V0203001N010019999999N9999999N1+00361-00231101751ADDMA1999999101661MD1210071+9999REMSYN060AAXX  12151 01044 46/// /3010 10036 21023 30166 40175 52007;
0101010440999992013011216004+70483+022150FM-12+000699999V0203201N009019999999N9999999N1+00331-00261101771ADDMA1999999101681MD1210051+9999REMSYN060AAXX  12161 01044 46/// /3209 10033 21026 30168 40177 52005;
0101010440999992013011217004+70483+022150FM-12+000699999V0203101N009019999999N9999999N1+00311-00281101781ADDMA1999999101691MD1210041+9999REMSYN060AAXX  12171 01044 46/// /3109 10031 21028 30169 40178 52004;
0136010440999992013011218004+70483+022150FM-12+000699999V0203101N009019999999N9999999N1+00311-00241101791ADDKA1120M+00411MA1999999101711MD1210051+9999REMSYN082AAXX  12181 01044 16/// /3109 10031 21024 30171 40179 52005 6//// 333 10041 91113;
0101010440999992013011219004+70483+022150FM-12+000699999V0203101N008019999999N9999999N1+00301-00291101801ADDMA1999999101711MD1210031+9999REMSYN060AAXX  12191 01044 46/// /3108 10030 21029 30171 40180 52003;
0101010440999992013011220004+70483+022150FM-12+000699999V0203101N009019999999N9999999N1+00301-00381101811ADDMA1999999101721MD1210031+9999REMSYN060AAXX  12201 01044 46/// /3109 10030 21038 30172 40181 52003;
0101010440999992013011221004+70483+022150FM-12+000699999V0203301N006019999999N9999999N1+00301-00311101821ADDMA1999999101731MD1210031+9999REMSYN060AAXX  12211 01044 46/// /3306 10030 21031 30173 40182 52003;
0101010440999992013011222004+70483+022150FM-12+000699999V0203201N007019999999N9999999N1+00281-00351101821ADDMA1999999101731MD1210021+9999REMSYN060AAXX  12221 01044 46/// /3207 10028 21035 30173 40182 52002;
0101010440999992013011223004+70483+022150FM-12+000699999V0203101N007019999999N9999999N1+00281-00371101801ADDMA1999999101711MD1010001+9999REMSYN060AAXX  12231 01044 46/// /3107 10028 21037 30171 40180 50000;
0117010440999992013011300004+70483+022150FM-12+000699999V0203201N007019999999N9999999N1+00271-00451101791ADDMA1999999101701MD1710021+9999REMSYN076AAXX  13001 01044 16/// /3207 10027 21045 30170 40179 57002 6//// 333 91111;
0101010440999992013011301004+70483+022150FM-12+000699999V0203301N006019999999N9999999N1+00271-00401101771ADDMA1999999101681MD1710041+9999REMSYN060AAXX  13011 01044 46/// /3306 10027 21040 30168 40177 57004;
0101010440999992013011302004+70483+022150FM-12+000699999V0203101N007019999999N9999999N1+00271-00491101751ADDMA1999999101671MD1710041+9999REMSYN060AAXX  13021 01044 46/// /3107 10027 21049 30167 40175 57004;
0101010440999992013011303004+70483+022150FM-12+000699999V0203201N007019999999N9999999N1+00261-00311101751ADDMA1999999101661MD1710031+9999REMSYN060AAXX  13031 01044 46/// /3207 10026 21031 30166 40175 57003;
0101010440999992013011304004+70483+022150FM-12+000699999V0203201N006019999999N9999999N1+00251-00401101721ADDMA1999999101631MD1710041+9999REMSYN060AAXX  13041 01044 46/// /3206 10025 21040 30163 40172 57004;
0101010440999992013011305004+70483+022150FM-12+000699999V0203201N006019999999N9999999N1+00251-00381101701ADDMA1999999101611MD1710041+9999REMSYN060AAXX  13051 01044 46/// /3206 10025 21038 30161 40170 57004;
0136010440999992013011306004+70483+022150FM-12+000699999V0203101N007019999999N9999999N1+00241-00501101691ADDKA1999N+00231MA1999999101601MD1710051+9999REMSYN082AAXX  13061 01044 16/// /3107 10024 21050 30160 40169 57005 6//// 333 20023 91111;
0101010440999992013011307004+70483+022150FM-12+000699999V0203201N006019999999N9999999N1+00231-00401101681ADDMA1999999101591MD1710031+9999REMSYN060AAXX  13071 01044 46/// /3206 10023 21040 30159 40168 57003;
0101010440999992013011308004+70483+022150FM-12+000699999V0203001N006019999999N9999999N1+00241-00411101691ADDMA1999999101611MD1410001+9999REMSYN060AAXX  13081 01044 46/// /3006 10024 21041 30161 40169 54000;
0101010440999992013011309004+70483+022150FM-12+000699999V0202901N006019999999N9999999N1+00231-00461101691ADDMA1999999101611MD1410001+9999REMSYN060AAXX  13091 01044 46/// /2906 10023 21046 30161 40169 54001;
0120010440999992013011310004+70483+022150FM-12+000699999V0203001N007019999999N9999999N1+00241-00521101671ADDMA1999999101581MD1710011+9999REMSYN060AAXX  13101 01044 46/// /3007 10024 21052 30158 40167 58000;EQDQ01+000082APCTEN
0101010440999992013011311004+70483+022150FM-12+000699999V0203201N004019999999N9999999N1+00221-00471101671ADDMA1999999101581MD1710021+9999REMSYN060AAXX  13111 01044 46/// /3204 10022 21047 30158 40167 57002;
0117010440999992013011312004+70483+022150FM-12+000699999V0202901N007019999999N9999999N1+00251-00441101641ADDMA1999999101551MD1710041+9999REMSYN076AAXX  13121 01044 16/// /2907 10025 21044 30155 40164 57004 6//// 333 91109;
0144010440999992013011312504+70483+022150FM-15+0006ENHK V0203201N007210105019N0112651N1+00201-00501999999ADDGA1021+008401999GA2071+010501999GF107991999999999999999999MA1101591999999REMMET059METAR ENHK 131250Z 32014KT 9999 FEW028 BKN035 02/M05 Q1016;
0101010440999992013011313004+70483+022150FM-12+000699999V0203201N006019999999N9999999N1+00211-00501101621ADDMA1999999101531MD1710041+9999REMSYN060AAXX  13131 01044 46/// /3206 10021 21050 30153 40162 57004;
0144010440999992013011313204+70483+022150FM-15+0006ENHK V0203301N005110120019N0112651N1+00201-00501999999ADDGA1021+009001999GA2071+012001999GF107991999999999999999999MA1101591999999REMMET059METAR ENHK 131320Z 33010KT 9999 FEW030 BKN040 02/M05 Q1016;
0101010440999992013011314004+70483+022150FM-12+000699999V0203101N006019999999N9999999N1+00211-00551101601ADDMA1999999101511MD1710061+9999REMSYN060AAXX  13141 01044 46/// /3106 10021 21055 30151 40160 57006;
0144010440999992013011314204+70483+022150FM-15+0006ENHK V0203201N005710129019N0112651N1+00201-00501999999ADDGA1021+009001999GA2071+012901999GF107991999999999999999999MA1101491999999REMMET059METAR ENHK 131420Z 32011KT 9999 FEW030 BKN043 02/M05 Q1015;
0144010440999992013011314504+70483+022150FM-15+0006ENHK V0203301N004110240019N0112651N1+00201-00601999999ADDGA1041+012601999GA2071+024001999GF107991999999999999999999MA1101491999999REMMET059METAR ENHK 131450Z 33008KT 9999 SCT042 BKN080 02/M06 Q1015;
0101010440999992013011315004+70483+022150FM-12+000699999V0203301N004019999999N9999999N1+00211-00571101591ADDMA1999999101511MD1710041+9999REMSYN060AAXX  13151 01044 46/// /3304 10021 21057 30151 40159 57004;
0101010440999992013011316004+70483+022150FM-12+000699999V0203401N002019999999N9999999N1+00171-00561101551ADDMA1999999101461MD1810061+9999REMSYN060AAXX  13161 01044 46/// /3402 10017 21056 30146 40155 58006;
0101010440999992013011317004+70483+022150FM-12+000699999V0200101N002019999999N9999999N1+00141-00311101521ADDMA1999999101431MD1810071+9999REMSYN060AAXX  13171 01044 46/// /0102 10014 21031 30143 40152 58007;
0136010440999992013011318004+70483+022150FM-12+000699999V0209999C000019999999N9999999N1+00091-00341101501ADDKA1120M+00261MA1999999101411MD1710081+9999REMSYN082AAXX  13181 01044 16/// /0000 10009 21034 30141 40150 57008 6//// 333 10026 91109;
0101010440999992013011319004+70483+022150FM-12+000699999V0209999C000019999999N9999999N1+00051-00321101471ADDMA1999999101381MD1710071+9999REMSYN060AAXX  13191 01044 46/// /0000 10005 21032 30138 40147 57007;
0101010440999992013011320004+70483+022150FM-12+000699999V0201201N001019999999N9999999N1+00061-00291101451ADDMA1999999101361MD1710061+9999REMSYN060AAXX  13201 01044 46/// /1201 10006 21029 30136 40145 57006;
0101010440999992013011321004+70483+022150FM-12+000699999V0209999C000019999999N9999999N1+00071-00371101431ADDMA1999999101341MD1710061+9999REMSYN060AAXX  13211 01044 46/// /0000 10007 21037 30134 40143 57006;
0101010440999992013011322004+70483+022150FM-12+000699999V0209999C000019999999N9999999N1+00051-00391101401ADDMA1999999101321MD1710061+9999REMSYN060AAXX  13221 01044 46/// /0000 10005 21039 30132 40140 57006;
0101010440999992013011323004+70483+022150FM-12+000699999V0201101N001019999999N9999999N1+00081-00401101391ADDMA1999999101301MD1710051+9999REMSYN060AAXX  13231 01044 46/// /1101 10008 21040 30130 40139 57005;
0117010440999992013011400004+70483+022150FM-12+000699999V0200901N001019999999N9999999N1+00051-00321101361ADDMA1999999101271MD1710061+9999REMSYN076AAXX  14001 01044 16/// /0901 10005 21032 30127 40136 57006 6//// 333 91105;
0101010440999992013011401004+70483+022150FM-12+000699999V0209999C000019999999N9999999N1-00041-00181101371ADDMA1999999101281MD1510031+9999REMSYN060AAXX  14011 01044 46/// /0000 11004 21018 30128 40137 55003;
0101010440999992013011402004+70483+022150FM-12+000699999V0200801N002019999999N9999999N1-00051-00121101321ADDMA1999999101231MD1810061+9999REMSYN060AAXX  14021 01044 46/// /0802 11005 21012 30123 40132 58006;
0101010440999992013011403004+70483+022150FM-12+000699999V0200801N002019999999N9999999N1-00061-00121101291ADDMA1999999101211MD1810061+9999REMSYN060AAXX  14031 01044 46/// /0802 11006 21012 30121 40129 58006;
0101010440999992013011404004+70483+022150FM-12+000699999V0200901N002019999999N9999999N1-00091-00141101291ADDMA1999999101201MD1610071+9999REMSYN060AAXX  14041 01044 46/// /0902 11009 21014 30120 40129 56007;
0156010440999992013011404204+70483+022150FM-15+0006ENHK V0200901N002110060019N0070001N1-00101-00201999999ADDGA1021+004501999GA2071+006001999GF107991999999999999999999MA1101191999999MW1861REMMET065METAR ENHK 140420Z 09004KT 7000 SHSN FEW015 BKN020 M01/M02 Q1012;
0154010440999992013011404504+70483+022150FM-15+0006ENHK V0201001N001510039019N0040001N1-00101-00201999999ADDGA1041+003001999GA2071+003901999GF107991999999999999999999MA1101191999999MW1731REMMET063METAR ENHK 140450Z 10003KT 4000 SN SCT010 BKN013 M01/M02 Q1012;
0101010440999992013011405004+70483+022150FM-12+000699999V0200801N002019999999N9999999N1-00111-00181101271ADDMA1999999101181MD1710041+9999REMSYN060AAXX  14051 01044 46/// /0802 11011 21018 30118 40127 57004;
0130010440999992013011405204+70483+022150FM-15+0006ENHK V0201001N001510039019N0030001N1-00101-00201999999ADDGA1091+003901999GF109991999999000251999999MA1101191999999MW1731REMMET055METAR ENHK 140520Z 10003KT 3000 SN VV013 M01/M02 Q1012;
