0161010470999992013010100004+69000+023033FM-12+0307ENKA V0201801N005010042019N0600001N1-00421-00531099031ADDAY171061AY221061GF108991081051004501999999MA1999999095321MD1710021+9999MW1021REMSYN072AAXX  01001 01047 41486 81805 11042 21053 39532 49903 57002 70272 885//;
0266010470999992013010106004+69000+023033FM-12+0307ENKA V0209999C000010075019N0650001N1-00481-00621099061ADDAA112000091AA224000391AJ100649199999999AY171061AY221061GF108991081051008001999999IA1249KA1999N-00531MA1999999095351MD1210031+9999MW1021REMSYN100AAXX  01061 01047 11587 80000 11048 21062 39535 49906 52003 69922 70272 885// 333 21053 48064 70002;EQDQ01  00002PRCP12
0161010470999992013010109004+69000+023033FM-12+0307ENKA V0209999C000010075019N0250001N1-00441-00581099111ADDAY171031AY221031GF108991081001008001021999MA1999999095401MD1210061+9999MW1701REMSYN072AAXX  01091 01047 41575 80000 11044 21058 39540 49911 52006 77072 8802/;
0161010470999992013010112004+69000+023033FM-12+0307ENKA V0201801N001010075019N0600001N1-00421-00531099161ADDAY171061AY221061GF108991081051008001999999MA1999999095451MD1010051+9999MW1021REMSYN072AAXX  01121 01047 41586 81801 11042 21053 39545 49916 50005 70272 885//;
0161010470999992013010115004+69000+023033FM-12+0307ENKA V0201801N003010042019N0700001N1-00221-00331099201ADDAY121031AY221031GF108991081051004501999999MA1999999095481MD1210041+9999MW1021REMSYN072AAXX  01151 01047 41488 81803 11022 21033 39548 49920 52004 70222 885//;
0201010470999992013010118004+69000+023033FM-12+0307ENKA V0201801N003010075019N0040001N1-00231-00341099221ADDAA112000021AY171061AY221061GF108991081001008001021999KA1999M-00201MA1999999095511MD1210031+9999MW1711REMSYN088AAXX  01181 01047 11540 81803 11023 21034 39551 49922 52003 69912 77172 8802/ 333 11020;
0161010470999992013010200004+69000+023033FM-12+0307ENKA V0200501N001010075019N0080001N1-00521-00631099351ADDAY171061AY221061GF108991081001008001021999MA1999999095621MD1310051+9999MW1711REMSYN072AAXX  02001 01047 41558 80501 11052 21063 39562 49935 53005 77172 8802/;
0247010470999992013010206004+69000+023033FM-12+0307ENKA V0203201N001010075019N0300001N1-00521-00631099531ADDAA112000891AA224000891AJ100659199999999AY171061AY221061GF108991081051008001999999IA1249KA1999N-00661MA1999999095801MD1310111+9999MW1021REMSYN100AAXX  02061 01047 11580 83201 11052 21063 39580 49953 53011 69972 70272 885// 333 21066 48065 70008;
0161010470999992013010209004+69000+023033FM-12+0307ENKA V0203201N005010012019N0020001N1-00741-00851099661ADDAY121031AY221031GF108991081061001501999999MA1999999095911MD1310111+9999MW1101REMSYN072AAXX  02091 01047 41220 83205 11074 21085 39591 49966 53011 71022 886//;
0161010470999992013010212004+69000+023033FM-12+0307ENKA V0202201N001010042019N0600001N1-01481-01641099791ADDAY121061AY221061GF106991061051004501001001MA1999999096011MD1210101+9999MW1011REMSYN072AAXX  02121 01047 41486 62201 11148 21164 39601 49979 52010 70122 86500;
0161010470999992013010215004+69000+023033FM-12+0307ENKA V0201401N005010012019N0600001N1-01511-01681099881ADDAY121031AY221031GF108991081061001501999999MA1999999096081MD1210071+9999MW1021REMSYN072AAXX  02151 01047 41286 81405 11151 21168 39608 49988 52007 70222 886//;
0184010470999992013010218004+69000+023033FM-12+0307ENKA V0201401N005010075019N0700001N1-01421-01601099901ADDAY121061AY221061GF108991081051008001999999KA1999M-00401MA1999999096111MD1210021+9999MW1021REMSYN082AAXX  02181 01047 31588 81405 11142 21160 39611 49990 52002 70222 885// 333 11040;
0161010470999992013010300004+69000+023033FM-12+0307ENKA V0201801N003010075019N0700001N1-00911-01091099831ADDAY121061AY221061GF108991081051008001999999MA1999999096071MD1710021+9999MW1021REMSYN072AAXX  03001 01047 41588 81803 11091 21109 39607 49983 57002 70222 885//;
0249010470999992013010306004+69000+023033FM-12+0307ENKA V0201801N003010075019N0700001N1-00761-00931099641ADDAA124000091AJ100659199999999AY121061AY221061GF108991081051008001999999IA1239KA1999N-01431MA1999999095881MD1710041+9999MW1021REMSYN094AAXX  03061 01047 31588 81803 11076 21093 39588 49964 57004 70222 885// 333 21143 47065 70000;EQDQ01  00002PRCP24
0161010470999992013010309004+69000+023033FM-12+0307ENKA V0202201N005010075019N0700001N1-00641-00761099601ADDAY121031AY221031GF108991081051008001999999MA1999999095861MD1510021+9999MW1021REMSYN072AAXX  03091 01047 41588 82205 11064 21076 39586 49960 55002 70222 885//;
0161010470999992013010312004+69000+023033FM-12+0307ENKA V0201801N005010075019N0015001N1-00861-00971099621ADDAY121061AY221061GF108991081001008001021999MA1999999095871MD1510001+9999MW1101REMSYN072AAXX  03121 01047 41515 81805 11086 21097 39587 49962 55000 71022 8802/;
0161010470999992013010315004+69000+023033FM-12+0307ENKA V0201801N005010012019N0600001N1-01041-01151099691ADDAY121031AY221031GF108991081061001501999999MA1999999095921MD1310061+9999MW1021REMSYN072AAXX  03151 01047 41286 81805 11104 21115 39592 49969 53006 70222 886//;
0184010470999992013010318004+69000+023033FM-12+0307ENKA V0201801N003010042019N0700001N1-01161-01281099711ADDAY121061AY221061GF108991081051004501999999KA1999M-00501MA1999999095931MD1210011+9999MW1021REMSYN082AAXX  03181 01047 31488 81803 11116 21128 39593 49971 52001 70222 885// 333 11050;
0161010470999992013010400004+69000+023033FM-12+0307ENKA V0203601N003012200019N0700001N1-01321-01471100061ADDAY121061AY201061GF102991021001017501041001MA1999999096271MD1310171+9999MW1021REMSYN072AAXX  04001 01047 41788 23603 11132 21147 39627 40006 53017 70220 82040;
0259010470999992013010406004+69000+023033FM-12+0307ENKA V0203601N001012200019N0700001N1-02141-02341100491ADDAA124000091AJ100659199999999AY121061AY201061GA1001+999999999GF100991001001999999001001IA1239KA1999N-02141MA1999999096651MD1210211+9999MW1021REMSYN088AAXX  04061 01047 31988 03601 11214 21234 39665 40049 52021 70220 333 21214 47065 70000;EQDQ01  00002PRCP24
0161010470999992013010409004+69000+023033FM-12+0307ENKA V0201801N005019999999N0700001N1-02081-02281100651ADDAY121031AY201031GF106991061001012501071001MA1999999096811MD1110151+9999MW1031REMSYN072AAXX  04091 01047 41688 61805 11208 21228 39681 40065 51015 70320 86070;
0161010470999992013010412004+69000+023033FM-12+0307ENKA V0201801N001012200019N0700001N1-02121-02321100811ADDAY121061AY221061GF103991031001012501071001MA1999999096961MD1310161+9999MW1011REMSYN072AAXX  04121 01047 41688 31801 11212 21232 39696 40081 53016 70122 83070;
0161010470999992013010415004+69000+023033FM-12+0307ENKA V0202201N003012200019N0700001N1-02041-02241100961ADDAY101031AY201031GF103991031001012501071001MA1999999097111MD1210151+9999MW1021REMSYN072AAXX  04151 01047 41688 32203 11204 21224 39711 40096 52015 70200 83070;
0184010470999992013010418004+69000+023033FM-12+0307ENKA V0203201N003012200019N0700001N1-02111-02311101081ADDAY101061AY201061GF103991031001012501071001KA1999M-01451MA1999999097221MD1110111+9999MW1031REMSYN082AAXX  04181 01047 31688 33203 11211 21231 39722 40108 51011 70300 83070 333 11145;
0190010470999992013010500004+69000+023033FM-12+0307ENKA V0203201N007012200019N0700001N1-00312-00731101441ADDAY101061AY201061GA1001+999999999GF100991001001999999001001MA1999999097631MD1310211+9999MW1021REMSYN066AAXX  05001 01047 41988 03207 11031 21073 39763 40144 53021 70200;EQDQ01-000313ATOT  
0259010470999992013010506004+69000+023033FM-12+0307ENKA V0203201N001012200019N0700001N1-01361-01541101871ADDAA124000091AJ100649199999999AY101061AY201061GA1001+999999999GF100991001001999999001001IA1239KA1999N-02121MA1999999098011MD1210161+9999MW1021REMSYN088AAXX  05061 01047 31988 03201 11136 21154 39801 40187 52016 70200 333 21212 47064 70000;EQDQ01  00002PRCP24
0161010470999992013010509004+69000+023033FM-12+0307ENKA V0201801N005012200019N0700001N1-01501-01631102101ADDAY101031AY201031GF102991021001017501041001MA1999999098221MD1310211+9999MW1021REMSYN072AAXX  05091 01047 41788 21805 11150 21163 39822 40210 53021 70200 82040;
0161010470999992013010512004+69000+023033FM-12+0307ENKA V0203601N003010150019N0700001N1-01701-01881102231ADDAY121061AY201061GF105991051001017501071001MA1999999098331MD1210111+9999MW1031REMSYN072AAXX  05121 01047 41788 53603 11170 21188 39833 40223 52011 70320 85070;
0161010470999992013010515004+69000+023033FM-12+0307ENKA V0203601N003010120019N0700001N1-01451-01641102301ADDAY121031AY221031GF108991081001012501021999MA1999999098421MD1210091+9999MW1021REMSYN072AAXX  05151 01047 41688 83603 11145 21164 39842 40230 52009 70222 8802/;
0184010470999992013010518004+69000+023033FM-12+0307ENKA V0203601N003019999999N0700001N1-01651-01821102331ADDAY121061AY211061GF106991061001012501071001KA1999M-00791MA1999999098431MD1310011+9999MW1021REMSYN082AAXX  05181 01047 31688 63603 11165 21182 39843 40233 53001 70221 86070 333 11079;
0171010470999992013010600004+69000+023033FM-12+0307ENKA V0201401N001010001519N0001001N1-01781-01981102301ADDAY171061AY241061GA1091+999999999GF109991091999999999999999MA1999999098411MD1810091+9999MW1441REMSYN066AAXX  06001 01047 41/01 91401 11178 21198 39841 40230 58009 74474;
0282010470999992013010606004+69000+023033FM-12+0307ENKA V0201401N001012200019N0300001N1-01821-02031102051ADDAA112000091AA224000091AJ100649199999999AY171061AY241061GF104991041001017501011001IA1239KA1999N-01981MA1999999098171MD1610141+9999MW1021REMSYN100AAXX  06061 01047 11780 41401 11182 21203 39817 40205 56014 69912 70274 84010 333 21198 47064 70001;EQDQ01  00002PRCP24Q02  00002PRCP12
0161010470999992013010609004+69000+023033FM-12+0307ENKA V0201801N007019999999N0600001N1-01001-01161101851ADDAY121031AY221031GF106991061001012501071001MA1999999098011MD1710161+9999MW1031REMSYN072AAXX  06091 01047 41686 61807 11100 21116 39801 40185 57016 70322 86070;
0161010470999992013010612004+69000+023033FM-12+0307ENKA V0202201N007010120019N0100001N1-00881-01001101671ADDAY171061AY221061GF108991081001012501021999MA1999999097831MD1810171+9999MW1711REMSYN072AAXX  06121 01047 41660 82207 11088 21100 39783 40167 58017 77172 8802/;
0161010470999992013010615004+69000+023033FM-12+0307ENKA V0201601N007010075019N0200001N1-00701-00821101531ADDAY171031AY271031GF108991081001008001021999MA1999999097711MD1710131+9999MW1711REMSYN072AAXX  06151 01047 41570 81607 11070 21082 39771 40153 57013 77177 8802/;
0201010470999992013010618004+69000+023033FM-12+0307ENKA V0201601N007010075019N0150001N1-00701-00821101391ADDAA112000891AY171061AY231061GF108991081001008001021999KA1999M-00621MA1999999097571MD1810141+9999MW1711REMSYN088AAXX  06181 01047 11565 81607 11070 21082 39757 40139 58014 69982 77173 8802/ 333 11062;
0171010470999992013010700004+69000+023033FM-12+0307ENKA V0201801N007012200019N0700001N1-00731-00921101521ADDAY171061AY231061GA1001+999999999GF100991001001999999001001MA1999999097701MD1310081+9999MW1011REMSYN066AAXX  07001 01047 41988 01807 11073 21092 39770 40152 53008 70173;
0257010470999992013010706004+69000+023033FM-12+0307ENKA V0201801N001012200019N0700001N1-01361-01541101871ADDAA112001091AA224002391AJ100629199999999AY171061AY231061GA1001+999999999GF100991001001999999001001IA1239KA1999N-01361MA1999999098011MD1310111+9999MW1021REMSYN094AAXX  07061 01047 11988 01801 11136 21154 39801 40187 53011 60012 70273 333 21136 47062 70022;
0161010470999992013010709004+69000+023033FM-12+0307ENKA V0203601N003012200019N0700001N1-01701-01881101951ADDAY101031AY201031GF104991041001017501071001MA1999999098071MD1010061+9999MW1031REMSYN072AAXX  07091 01047 41788 43603 11170 21188 39807 40195 50006 70300 84070;
0161010470999992013010712004+69000+023033FM-12+0307ENKA V0203601N003012200019N0700001N1-01651-01851101941ADDAY101061AY201061GF103991031001017501071001MA1999999098071MD1710011+9999MW1021REMSYN072AAXX  07121 01047 41788 33603 11165 21185 39807 40194 57001 70200 83070;
0161010470999992013010715004+69000+023033FM-12+0307ENKA V0200501N003012200019N0020001N1-01901-02091101921ADDAY101031AY201031GF103991031001017501071001MA1999999098031MD1810031+9999MW1101REMSYN072AAXX  07151 01047 41720 30503 11190 21209 39803 40192 58003 71000 83070;
0194010470999992013010718004+69000+023033FM-12+0307ENKA V0200501N003010006019N0008001N1-01721-01921101871ADDAY141061AY201061GA1091+999999999GF109991091999999999999999KA1999M-01181MA1999999098001MD1710051+9999MW1481REMSYN076AAXX  07181 01047 31/08 90503 11172 21192 39800 40187 57005 74840 333 11118;
0161010470999992013010800004+69000+023033FM-12+0307ENKA V0201801N001010006019N0015001N1-01721-01931101601ADDAY141061AY221061GF108991081061000751999999MA1999999097731MD1710161+9999MW1101REMSYN072AAXX  08001 01047 41115 81801 11172 21193 39773 40160 57016 71042 886//;
0249010470999992013010806004+69000+023033FM-12+0307ENKA V0201801N005010075019N0300001N1-01291-01481101231ADDAA124000091AJ100629199999999AY141061AY221061GF108991081001008001021999IA1239KA1999N-01831MA1999999097401MD1810201+9999MW1021REMSYN094AAXX  08061 01047 31580 81805 11129 21148 39740 40123 58020 70242 8802/ 333 21183 47062 70000;EQDQ01  00002PRCP24
0161010470999992013010809004+69000+023033FM-12+0307ENKA V0201801N007010075019N0030001N1-01261-01451101051ADDAY171031AY221031GF108991081001008001021999MA1999999097221MD1810151+9999MW1711REMSYN072AAXX  08091 01047 41530 81807 11126 21145 39722 40105 58015 77172 8802/;
0161010470999992013010812004+69000+023033FM-12+0307ENKA V0201601N007010075019N0020001N1-01121-01301100801ADDAY171061AY271061GF108991081001008001021999MA1999999096981MD1810241+9999MW1711REMSYN072AAXX  08121 01047 41520 81607 11112 21130 39698 40080 58024 77177 8802/;
0161010470999992013010815004+69000+023033FM-12+0307ENKA V0201601N007010075019N0200001N1-00981-01141100561ADDAY171031AY271031GF108991081001008001021999MA1999999096771MD1610221+9999MW1711REMSYN072AAXX  08151 01047 41570 81607 11098 21114 39677 40056 56022 77177 8802/;
0201010470999992013010818004+69000+023033FM-12+0307ENKA V0201601N005010075019N0700001N1-00941-01071100391ADDAA112001091AY171061AY221061GF108991081001008001021999KA1999M-00901MA1999999096611MD1610161+9999MW1021REMSYN088AAXX  08181 01047 11588 81605 11094 21107 39661 40039 56016 60012 70272 8802/ 333 11090;
0171010470999992013010900004+69000+023033FM-12+0307ENKA V0201801N003012200019N0700001N1-01861-02041100431ADDAY121061AY201061GA1001+999999999GF100991001001999999001001MA1999999096611MD1810021+9999MW1021REMSYN066AAXX  09001 01047 41988 01803 11186 21204 39661 40043 58002 70220;
0230010470999992013010906004+69000+023033FM-12+0307ENKA V0209999C000012200019N0700001N1-01731-01931100391ADDAA124001091AJ100619199999999AY121061AY201061GF104991041001017501071001IA1239KA1999N-01901MA1999999096571MD1510001+9999MW1021REMSYN094AAXX  09061 01047 31788 40000 11173 21193 39657 40039 55000 70220 84070 333 21190 47061 70010;
0161010470999992013010909004+69000+023033FM-12+0307ENKA V0203601N001012200019N0700001N1-01961-02141100761ADDAY101031AY201031GF104991041001017501071001MA1999999096921MD1310331+9999MW1021REMSYN072AAXX  09091 01047 41788 43601 11196 21214 39692 40076 53033 70200 84070;
0161010470999992013010912004+69000+023033FM-12+0307ENKA V0203601N001019999999N0700001N1-02081-02261100961ADDAY101061AY201061GF105991051001012501071001MA1999999097111MD1210191+9999MW1031REMSYN072AAXX  09121 01047 41688 53601 11208 21226 39711 40096 52019 70300 85070;
0161010470999992013010915004+69000+023033FM-12+0307ENKA V0203601N001010150019N0700001N1-01381-01561101061ADDAY121031AY211031GF106991061001017501071001MA1999999097221MD1210141+9999MW1021REMSYN072AAXX  09151 01047 41788 63601 11138 21156 39722 40106 52014 70221 86070;
0220010470999992013010918004+69000+023033FM-12+0307ENKA V0200501N001010300019N0650001N1-01301-01491101311ADDAA112000091AY171061AY221061GF108991041051004501021999KA1999M-01151MA1999999097471MD1310241+9999MW1021REMSYN088AAXX  09181 01047 11487 80501 11130 21149 39747 40131 53024 69912 70272 8452/ 333 11115;EQDQ01  00002PRCP12
0161010470999992013011000004+69000+023033FM-12+0307ENKA V0209999C000010075019N0700001N1-00821-00941101721ADDAY121061AY221061GF108991081051008001999999MA1999999097881MD1210191+9999MW1021REMSYN072AAXX  10001 01047 41588 80000 11082 21094 39788 40172 52019 70222 885//;
0249010470999992013011006004+69000+023033FM-12+0307ENKA V0209999C000010075019N0700001N1-00441-00511102001ADDAA124000091AJ100619199999999AY121061AY221061GF107991071051008001001001IA1239KA1999N-01301MA1999999098171MD1110151+9999MW1021REMSYN094AAXX  10061 01047 31588 70000 11044 21051 39817 40200 51015 70222 87500 333 21130 47061 70001;EQDQ01  00002PRCP24
0161010470999992013011009004+69000+023033FM-12+0307ENKA V0202201N003010075019N0600001N1-00381-00451102171ADDAY121031AY221031GF108991081051008001999999MA1999999098331MD1310151+9999MW1021REMSYN072AAXX  10091 01047 41586 82203 11038 21045 39833 40217 53015 70222 885//;
0161010470999992013011012004+69000+023033FM-12+0307ENKA V0209999C000010075019N0700001N1-00661-00741102161ADDAY121061AY221061GF108991081051008001999999MA1999999098321MD1710021+9999MW1021REMSYN072AAXX  10121 01047 41588 80000 11066 21074 39832 40216 57002 70222 885//;
0161010470999992013011015004+69000+023033FM-12+0307ENKA V0203601N003010075019N0700001N1-00531-00601102211ADDAY121031AY221031GF108991081051008001999999MA1999999098371MD1110061+9999MW1021REMSYN072AAXX  10151 01047 41588 83603 11053 21060 39837 40221 51006 70222 885//;
0184010470999992013011018004+69000+023033FM-12+0307ENKA V0201801N005010075019N0700001N1-00641-00721102201ADDAY121061AY221061GF108991081051008001999999KA1999M-00301MA1999999098361MD1710031+9999MW1021REMSYN082AAXX  10181 01047 31588 81805 11064 21072 39836 40220 57003 70222 885// 333 11030;
0161010470999992013011100004+69000+023033FM-12+0307ENKA V0201801N003010075019N0700001N1-01001-01081102181ADDAY121061AY221061GF106991061051008001001001MA1999999098321MD1810041+9999MW1011REMSYN072AAXX  11001 01047 41588 61803 11100 21108 39832 40218 58004 70122 86500;
0249010470999992013011106004+69000+023033FM-12+0307ENKA V0201801N003010075019N0700001N1-01521-01681102051ADDAA124000091AJ100619199999999AY121061AY221061GF107991071051008001001001IA1239KA1999N-01521MA1999999098171MD1810031+9999MW1021REMSYN094AAXX  11061 01047 31588 71803 11152 21168 39817 40205 58003 70222 87500 333 21152 47061 70000;EQDQ01  00002PRCP24
0161010470999992013011109004+69000+023033FM-12+0307ENKA V0201801N003019999999N0700001N1-01241-01421101971ADDAY121031AY221031GF108991081001012501071999MA1999999098111MD1710061+9999MW1021REMSYN072AAXX  11091 01047 41688 81803 11124 21142 39811 40197 57006 70222 8807/;
0161010470999992013011112004+69000+023033FM-12+0307ENKA V0202201N005019999999N0700001N1-01161-01341101851ADDAY121061AY221061GF107991071001012501071001MA1999999098001MD1710111+9999MW1021REMSYN072AAXX  11121 01047 41688 72205 11116 21134 39800 40185 57011 70222 87070;
0161010470999992013011115004+69000+023033FM-12+0307ENKA V0202201N005019999999N0700001N1-01201-01371101711ADDAY121031AY221031GF107991071001012501071001MA1999999097871MD1810121+9999MW1021REMSYN072AAXX  11151 01047 41688 72205 11120 21137 39787 40171 58012 70222 87070;
0184010470999992013011118004+69000+023033FM-12+0307ENKA V0202201N003019999999N0700001N1-00911-01041101681ADDAY121061AY221061GF105991051001012501071001KA1999M-00551MA1999999097851MD1510031+9999MW1011REMSYN082AAXX  11181 01047 31688 52203 11091 21104 39785 40168 55003 70122 85070 333 11055;
0171010470999992013011200004+69000+023033FM-12+0307ENKA V0202701N003012200019N0700001N1-00111-00551101521ADDAY121061AY201061GA1001+999999999GF100991001001999999001001MA1999999097721MD1810051+9999MW1021REMSYN066AAXX  12001 01047 41988 02703 11011 21055 39772 40152 58005 70220;
0249010470999992013011206004+69000+023033FM-12+0307ENKA V0202701N003012200019N0700001N1+00051-00431101501ADDAA124000091AJ100619199999999AY121061AY201061GF104991041051008001001001IA1239KA1999N-00911MA1999999097721MD1310041+9999MW1021REMSYN094AAXX  12061 01047 31588 42703 10005 21043 39772 40150 53004 70220 84500 333 21091 47061 70000;EQDQ01  00002PRCP24
0161010470999992013011209004+69000+023033FM-12+0307ENKA V0203201N005010300019N0700001N1+00121-00331101611ADDAY121031AY201031GF107991021041012501071001MA1999999097821MD1310111+9999MW1031REMSYN072AAXX  12091 01047 41688 73205 10012 21033 39782 40161 53011 70320 82470;
0161010470999992013011212004+69000+023033FM-12+0307ENKA V0203201N007010300019N0700001N1+00001-00441101671ADDAY121061AY221061GF106991011051008001071001MA1999999097871MD1310051+9999MW1021REMSYN072AAXX  12121 01047 41588 63207 10000 21044 39787 40167 53005 70222 81570;
0161010470999992013011215004+69000+023033FM-12+0307ENKA V0203201N005019999999N0700001N1-00351-00731101781ADDAY121031AY221031GF106991061001012501071001MA1999999097971MD1310091+9999MW1021REMSYN072AAXX  12151 01047 41688 63205 11035 21073 39797 40178 53009 70222 86070;
0184010470999992013011218004+69000+023033FM-12+0307ENKA V0202201N005019999999N0700001N1-00641-00901101871ADDAY121061AY221061GF106991061001012501071001KA1999M+00161MA1999999098031MD1310071+9999MW1021REMSYN082AAXX  12181 01047 31688 62205 11064 21090 39803 40187 53007 70222 86070 333 10016;
0161010470999992013011300004+69000+023033FM-12+0307ENKA V0203201N003019999999N0700001N1-00601-00801101851ADDAY121061AY221061GF107991071001012501011001MA1999999098021MD1710021+9999MW1021REMSYN072AAXX  13001 01047 41688 73203 11060 21080 39802 40185 57002 70222 87010;
0249010470999992013011306004+69000+023033FM-12+0307ENKA V0201801N003019999999N0700001N1-00901-01021101801ADDAA124000091AJ100609199999999AY121061AY211061GF106991061001012501011001IA1239KA1999N-01011MA1999999097971MD1710021+9999MW1021REMSYN094AAXX  13061 01047 31688 61803 11090 21102 39797 40180 57002 70221 86010 333 21101 47060 70000;EQDQ01  00002PRCP24
0161010470999992013011309004+69000+023033FM-12+0307ENKA V0201801N001019999999N0700001N1-01111-01231101801ADDAY121031AY221031GF108991081001012501071999MA1999999097961MD1410001+9999MW1021REMSYN072AAXX  13091 01047 41688 81801 11111 21123 39796 40180 54001 70222 8807/;
0161010470999992013011312004+69000+023033FM-12+0307ENKA V0201801N003010300019N0700001N1-00841-00961101731ADDAY121061AY221061GF107991031051008001071001MA1999999097901MD1710061+9999MW1021REMSYN072AAXX  13121 01047 41588 71803 11084 21096 39790 40173 57006 70222 83570;
0161010470999992013011315004+69000+023033FM-12+0307ENKA V0201801N003010075019N0700001N1-01201-01351101681ADDAY121031AY221031GF107991071051008001001001MA1999999097831MD1710071+9999MW1021REMSYN072AAXX  13151 01047 41588 71803 11120 21135 39783 40168 57007 70222 87500;
0220010470999992013011318004+69000+023033FM-12+0307ENKA V0203201N001010075019N0700001N1-00881-01001101601ADDAA112000091AY171061AY221061GF108991081001008001021999KA1999M-00781MA1999999097771MD1710071+9999MW1021REMSYN088AAXX  13181 01047 11588 83201 11088 21100 39777 40160 57007 69912 70272 8802/ 333 11078;EQDQ01  00002PRCP12
0161010470999992013011400004+69000+023033FM-12+0307ENKA V0209999C000010075019N0700001N1-00781-00901101361ADDAY171061AY221061GF108991081001008001021999MA1999999097551MD1710101+9999MW1021REMSYN072AAXX  14001 01047 41588 80000 11078 21090 39755 40136 57010 70272 8802/;
0247010470999992013011406004+69000+023033FM-12+0307ENKA V0209999C000010075019N0700001N1-01081-01201101251ADDAA112000391AA224000591AJ100619199999999AY171061AY221061GF107991071001008001021001IA1239KA1999N-01081MA1999999097421MD1710041+9999MW1021REMSYN100AAXX  14061 01047 11588 70000 11108 21120 39742 40125 57004 69932 70272 87020 333 21108 47061 70004;
0161010470999992013011409004+69000+023033FM-12+0307ENKA V0209999C000010075019N0600001N1-01051-01171101291ADDAY171031AY221031GF106991061051008001001001MA1999999097471MD1210041+9999MW1021REMSYN072AAXX  14091 01047 41586 60000 11105 21117 39747 40129 52004 70272 86500;
0161010470999992013011412004+69000+023033FM-12+0307ENKA V0203601N001010075019N0600001N1-01101-01221101391ADDAY171061AY221061GF108991081001008001021999MA1999999097561MD1210091+9999MW1021REMSYN072AAXX  14121 01047 41586 83601 11110 21122 39756 40139 52009 70272 8802/;
0161010470999992013011415004+69000+023033FM-12+0307ENKA V0203601N003010006019N0025001N1-00631-00741101551ADDAY121031AY221031GF108991081061000751999999MA1999999097731MD1310161+9999MW1101REMSYN072AAXX  14151 01047 41125 83603 11063 21074 39773 40155 53016 71022 886//;
0220010470999992013011418004+69000+023033FM-12+0307ENKA V0201801N003010075019N0700001N1-00801-00911101671ADDAA112000091AY121061AY221061GF108991081001008001021999KA1999M-00631MA1999999097831MD1210111+9999MW1021REMSYN088AAXX  14181 01047 11588 81803 11080 21091 39783 40167 52011 69912 70222 8802/ 333 11063;EQDQ01  00002PRCP12
0161010470999992013011500004+69000+023033FM-12+0307ENKA V0201801N001010075019N0700001N1-01111-01211101861ADDAY121061AY221061GF105991051051008001001001MA1999999098011MD1310081+9999MW1011REMSYN072AAXX  15001 01047 41588 51801 11111 21121 39801 40186 53008 70122 85500;
0259010470999992013011506004+69000+023033FM-12+0307ENKA V0209999C000010006019N0010001N1-01891-02101102011ADDAA124000091AJ100619199999999AY121061AY221061GA1091+999999999GF109991091999999999999999IA1239KA1999N-02041MA1999999098121MD1010031+9999MW1101REMSYN088AAXX  15061 01047 31/10 90000 11189 21210 39812 40201 50003 71022 333 21204 47061 70001;EQDQ01  00002PRCP24
0171010470999992013011509004+69000+023033FM-12+0307ENKA V0201801N003010003019N0002001N1-01901-02091102111ADDAY141031AY241031GA1091+999999999GF109991091999999999999999MA1999999098221MD1210091+9999MW1491REMSYN066AAXX  15091 01047 41/02 91803 11190 21209 39822 40211 52009 74944;
0171010470999992013011512004+69000+023033FM-12+0307ENKA V0201801N003010003019N0005001N1-02201-02401102191ADDAY141061AY241061GA1091+999999999GF109991091999999999999999MA1999999098271MD1210071+9999MW1421REMSYN066AAXX  15121 01047 41/05 91803 11220 21240 39827 40219 52007 74244;
0161010470999992013011515004+69000+023033FM-12+0307ENKA V0203201N001010012019N0020001N1-02341-02541102191ADDAY141031AY221031GF108991081061001501999999MA1999999098271MD1510001+9999MW1101REMSYN072AAXX  15151 01047 41220 83201 11234 21254 39827 40219 55000 71042 886//;
0201010470999992013011518004+69000+023033FM-12+0307ENKA V0209999C000010042019N0030001N1-02041-02241102201ADDAA112000021AY171061AY221061GF108991081001004501021999KA1999M-01151MA1999999098301MD1210021+9999MW1711REMSYN088AAXX  15181 01047 11430 80000 11204 21224 39830 40220 52002 69912 77172 8802/ 333 11115;
0161010470999992013011600004+69000+023033FM-12+0307ENKA V0200501N003010042019N0020001N1-01631-01831102041ADDAY171061AY221061GF108991081001004501021999MA1999999098161MD1710081+9999MW1711REMSYN072AAXX  16001 01047 41420 80503 11163 21183 39816 40204 57008 77172 8802/;
0247010470999992013011606004+69000+023033FM-12+0307ENKA V0209999C000010075019N0050001N1-01341-01561101931ADDAA112000021AA224000391AJ100629199999999AY171061AY221061GF108991081001008001021999IA1239KA1999N-02051MA1999999098061MD1710071+9999MW1101REMSYN100AAXX  16061 01047 11550 80000 11134 21156 39806 40193 57007 69922 71072 8802/ 333 21205 47062 70003;
0161010470999992013011609004+69000+023033FM-12+0307ENKA V0202201N003010042019N0300001N1-01141-01321101951ADDAY121031AY221031GF108991081051004501999999MA1999999098101MD1210041+9999MW1021REMSYN072AAXX  16091 01047 41480 82203 11114 21132 39810 40195 52004 70222 885//;
0161010470999992013011612004+69000+023033FM-12+0307ENKA V0201801N005019999999N0600001N1-01381-01561101981ADDAY121061AY221061GF106991061001012501011001MA1999999098121MD1210021+9999MW1021REMSYN072AAXX  16121 01047 41686 61805 11138 21156 39812 40198 52002 70222 86010;
0161010470999992013011615004+69000+023033FM-12+0307ENKA V0201801N003012200019N0600001N1-01621-01811102001ADDAY121031AY221031GF104991041001012501011001MA1999999098121MD1410001+9999MW1011REMSYN072AAXX  16151 01047 41686 41803 11162 21181 39812 40200 54001 70122 84010;
0194010470999992013011618004+69000+023033FM-12+0307ENKA V0201801N003012200019N0600001N1-01981-02201102021ADDAY101061AY201061GA1001+999999999GF100991001001999999001001KA1999M-01051MA1999999098121MD1510001+9999MW1021REMSYN076AAXX  16181 01047 31986 01803 11198 21220 39812 40202 55000 70200 333 11105;
0171010470999992013011700004+69000+023033FM-12+0307ENKA V0201401N003012200019N0700001N1-02061-02291102031ADDAY101061AY201061GA1001+999999999GF100991001001999999001001MA1999999098131MD1410001+9999MW1021REMSYN066AAXX  17001 01047 41988 01403 11206 21229 39813 40203 54001 70200;
0249010470999992013011706004+69000+023033FM-12+0307ENKA V0201401N001010150019N0700001N1-01861-02091101901ADDAA124000091AJ100629199999999AY111061AY201061GF105991051001017501011001IA1239KA1999N-02061MA1999999098021MD1710091+9999MW1021REMSYN094AAXX  17061 01047 31788 51401 11186 21209 39802 40190 57009 70210 85010 333 21206 47062 70000;EQDQ01  00002PRCP24
0161010470999992013011709004+69000+023033FM-12+0307ENKA V0201601N005010075019N0700001N1-01461-01661101801ADDAY121031AY221031GF107991071051008001001001MA1999999097931MD1710081+9999MW1031REMSYN072AAXX  17091 01047 41588 71605 11146 21166 39793 40180 57008 70322 87500;
0161010470999992013011712004+69000+023033FM-12+0307ENKA V0201601N003019999999N0700001N1-01501-01701101701ADDAY121061AY221061GF108991081001012501071999MA1999999097831MD1810101+9999MW1021REMSYN072AAXX  17121 01047 41688 81603 11150 21170 39783 40170 58010 70222 8807/;
0161010470999992013011715004+69000+023033FM-12+0307ENKA V0201601N005019999999N0700001N1-01481-01681101621ADDAY121031AY221031GF108991081001012501011999MA1999999097771MD1710071+9999MW1021REMSYN072AAXX  17151 01047 41688 81605 11148 21168 39777 40162 57007 70222 8801/;
0184010470999992013011718004+69000+023033FM-12+0307ENKA V0201601N005019999999N0700001N1-01461-01651101441ADDAY121061AY221061GF108991081001012501011999KA1999M-01351MA1999999097581MD1810171+9999MW1021REMSYN082AAXX  17181 01047 31688 81605 11146 21165 39758 40144 58017 70222 8801/ 333 11135;
0161010470999992013011800004+69000+023033FM-12+0307ENKA V0201801N007010075019N0040001N1-01131-01311100971ADDAY171061AY221061GF108991081001008001021999MA1999999097161MD1810231+9999MW1711REMSYN072AAXX  18001 01047 41540 81807 11113 21131 39716 40097 58023 77172 8802/;
0247010470999992013011806004+69000+023033FM-12+0307ENKA V0201801N007010120019N0700001N1-00471-00711100301ADDAA112000021AA224000021AJ100619199999999AY171061AY221061GF108991081001012501021999IA1239KA1999N-01461MA1999999096531MD1810281+9999MW1021REMSYN100AAXX  18061 01047 11688 81807 11047 21071 39653 40030 58028 69912 70272 8802/ 333 21146 47061 70001;
0161010470999992013011809004+69000+023033FM-12+0307ENKA V0201801N007019999999N0700001N1-00231-00411100281ADDAY121031AY221031GF108991081001012501071999MA1999999096521MD1710011+9999MW1021REMSYN072AAXX  18091 01047 41688 81807 11023 21041 39652 40028 57001 70222 8807/;
0161010470999992013011812004+69000+023033FM-12+0307ENKA V0201801N005012200019N0700001N1-00261-00611100321ADDAY121061AY221061GF104991011051008001071001MA1999999096571MD1210041+9999MW1011REMSYN072AAXX  18121 01047 41588 41805 11026 21061 39657 40032 52004 70122 81570;
0161010470999992013011815004+69000+023033FM-12+0307ENKA V0201601N005019999999N0700001N1-00741-01021100271ADDAY121031AY221031GF106991061001012501071001MA1999999096501MD1710061+9999MW1031REMSYN072AAXX  18151 01047 41688 61605 11074 21102 39650 40027 57006 70322 86070;
0184010470999992013011818004+69000+023033FM-12+0307ENKA V0201601N001019999999N0700001N1-00561-00681100151ADDAY121061AY221061GF108991081001012501071999KA1999M-00021MA1999999096381MD1710101+9999MW1021REMSYN082AAXX  18181 01047 31688 81601 11056 21068 39638 40015 57010 70222 8807/ 333 11002;
0161010470999992013011900004+69000+023033FM-12+0307ENKA V0203601N005010075019N0030001N1-00181-00311100061ADDAY171061AY221061GF108991081001008001021999MA1999999096321MD1310091+9999MW1711REMSYN072AAXX  19001 01047 41530 83605 11018 21031 39632 40006 53009 77172 8802/;
0247010470999992013011906004+69000+023033FM-12+0307ENKA V0203201N005012200019N0700001N1-00591-00951100251ADDAA112000591AA224000591AJ100629199999999AY171061AY221061GF103991031001017501071001IA1239KA1999N-00781MA1999999096481MD1310121+9999MW1021REMSYN100AAXX  19061 01047 11788 33205 11059 21095 39648 40025 53012 69942 70272 83070 333 21078 47062 70004;
0161010470999992013011909004+69000+023033FM-12+0307ENKA V0203201N005012200019N0700001N1-00441-00791100291ADDAY111031AY211031GF103991031001017501071001MA1999999096521MD1310051+9999MW1011REMSYN072AAXX  19091 01047 41788 33205 11044 21079 39652 40029 53005 70111 83070;
0161010470999992013011912004+69000+023033FM-12+0307ENKA V0203201N007010300019N0700001N1-00461-00811100541ADDAY111061AY211061GF105991021051008001071001MA1999999096771MD1210231+9999MW1031REMSYN072AAXX  19121 01047 41588 53207 11046 21081 39677 40054 52023 70311 82570;
0161010470999992013011915004+69000+023033FM-12+0307ENKA V0203201N007010300019N0700001N1-00621-00901100691ADDAY121031AY221031GF106991041051008001071001MA1999999096911MD1310161+9999MW1031REMSYN072AAXX  19151 01047 41588 63207 11062 21090 39691 40069 53016 70322 84570;
0230010470999992013011918004+69000+023033FM-12+0307ENKA V0203201N007012200019N0700001N1-00581-01001100891ADDAA112000091AY111061AY211061GA1001+999999999GF100991001001999999001001KA1999M-00351MA1999999097101MD1110151+9999MW1011REMSYN082AAXX  19181 01047 11988 03207 11058 21100 39710 40089 51015 69912 70111 333 11035;EQDQ01  00002PRCP12
0161010470999992013012000004+69000+023033FM-12+0307ENKA V0203201N007010075019N0700001N1-00681-01021101171ADDAY111061AY211061GF105991051051008001001001MA1999999097371MD1210111+9999MW1031REMSYN072AAXX  20001 01047 41588 53207 11068 21102 39737 40117 52011 70311 85500;
0247010470999992013012006004+69000+023033FM-12+0307ENKA V0203201N005010075019N0700001N1-00791-01071101421ADDAA112000591AA224000591AJ100639199999999AY171061AY211061GF106991061051008001001001IA1239KA1999N-00911MA1999999097601MD1210111+9999MW1021REMSYN100AAXX  20061 01047 11588 63205 11079 21107 39760 40142 52011 69952 70271 86500 333 21091 47063 70006;
0161010470999992013012009004+69000+023033FM-12+0307ENKA V0203201N005019999999N0700001N1-00821-01101101541ADDAY121031AY221031GF106991061001012501071001MA1999999097721MD1310131+9999MW1021REMSYN072AAXX  20091 01047 41688 63205 11082 21110 39772 40154 53013 70222 86070;
0161010470999992013012012004+69000+023033FM-12+0307ENKA V0203201N007012200019N0700001N1-00881-01301101641ADDAY121061AY221061GF104991041001012501071001MA1999999097811MD1010071+9999MW1011REMSYN072AAXX  20121 01047 41688 43207 11088 21130 39781 40164 50007 70122 84070;
0161010470999992013012015004+69000+023033FM-12+0307ENKA V0203201N007010075019N0700001N1-00611-01031101531ADDAY121031AY221031GF108991081051008001999999MA1999999097721MD1810081+9999MW1021REMSYN072AAXX  20151 01047 41588 83207 11061 21103 39772 40153 58008 70222 885//;
0184010470999992013012018004+69000+023033FM-12+0307ENKA V0203001N007010075019N0700001N1-00401-01111101361ADDAY121061AY221061GF108991081001008001021999KA1999M-00401MA1999999097561MD1810161+9999MW1021REMSYN082AAXX  20181 01047 31588 83007 11040 21111 39756 40136 58016 70222 8802/ 333 11040;
0161010470999992013012100004+69000+023033FM-12+0307ENKA V0203001N005010120019N0700001N1-00141-00721101141ADDAY121061AY221061GF108991081001012501021999MA1999999097361MD1810121+9999MW1021REMSYN072AAXX  21001 01047 41688 83005 11014 21072 39736 40114 58012 70222 8802/;
0249010470999992013012106004+69000+023033FM-12+0307ENKA V0203001N003010120019N0700001N1-00191-00661100611ADDAA124000091AJ100639199999999AY121061AY221061GF107991071001012501021001IA1239KA1999N-00401MA1999999096851MD1610291+9999MW1021REMSYN094AAXX  21061 01047 31688 73003 11019 21066 39685 40061 56029 70222 87020 333 21040 47063 70000;EQDQ01  00002PRCP24
0161010470999992013012109004+69000+023033FM-12+0307ENKA V0203201N003010075019N0700001N1-00081-00521100491ADDAY121031AY221031GF107991071051008001001001MA1999999096731MD1610101+9999MW1021REMSYN072AAXX  21091 01047 41588 73203 11008 21052 39673 40049 56010 70222 87500;
0161010470999992013012112004+69000+023033FM-12+0307ENKA V0202701N005012200019N0700001N1-00161-00561100341ADDAY121061AY221061GF104991031051008001041001MA1999999096581MD1810151+9999MW1011REMSYN072AAXX  21121 01047 41588 42705 11016 21056 39658 40034 58015 70122 83540;
0161010470999992013012115004+69000+023033FM-12+0307ENKA V0202701N005012200019N0700001N1-00111-00471100181ADDAY111031AY211031GF103991031051008001001001MA1999999096431MD1610161+9999MW1031REMSYN072AAXX  21151 01047 41588 32705 11011 21047 39643 40018 56016 70311 83500;
0194010470999992013012118004+69000+023033FM-12+0307ENKA V0203001N005012200019N0700001N1-00231-00581100151ADDAY101061AY201061GA1001+999999999GF100991001001999999001001KA1999M+00001MA1999999096411MD1710021+9999MW1011REMSYN076AAXX  21181 01047 31988 03005 11023 21058 39641 40015 57002 70100 333 10000;
0171010470999992013012200004+69000+023033FM-12+0307ENKA V0202201N005012200019N0700001N1-00441-00791100101ADDAY101061AY201061GA1001+999999999GF100991001001999999001001MA1999999096351MD1810061+9999MW1021REMSYN066AAXX  22001 01047 41988 02205 11044 21079 39635 40010 58006 70200;
0249010470999992013012206004+69000+023033FM-12+0307ENKA V0203201N005010075019N0700001N1-00531-00891100141ADDAA124000091AJ100619199999999AY121061AY211061GF106991061001008001021001IA1239KA1999N-00531MA1999999096371MD1010021+9999MW1021REMSYN094AAXX  22061 01047 31588 63205 11053 21089 39637 40014 50002 70221 86020 333 21053 47061 70000;EQDQ01  00002PRCP24
0161010470999992013012209004+69000+023033FM-12+0307ENKA V0202201N003010042019N0550001N1-00701-00951100011ADDAY121031AY221031GF107991071001004501021001MA1999999096251MD1710131+9999MW1031REMSYN072AAXX  22091 01047 41485 72203 11070 21095 39625 40001 57013 70322 87020;
0161010470999992013012212004+69000+023033FM-12+0307ENKA V0203401N007012200019N0600001N1-00861-01201100181ADDAY181061AY221061GF103991031001008001021001MA1999999096411MD1310161+9999MW1011REMSYN072AAXX  22121 01047 41586 33407 11086 21120 39641 40018 53016 70182 83020;
0161010470999992013012215004+69000+023033FM-12+0307ENKA V0203401N007010075019N0600001N1-00901-01241100291ADDAY111031AY211031GF106991061001008001021001MA1999999096511MD1210101+9999MW1031REMSYN072AAXX  22151 01047 41586 63407 11090 21124 39651 40029 52010 70311 86020;
0211010470999992013012218004+69000+023033FM-12+0307ENKA V0203401N005012200019N0700001N1-01021-01341100281ADDAA112000391AY111061AY211061GA1001+999999999GF100991001001999999001001KA1999M-00421MA1999999096501MD1810011+9999MW1011REMSYN082AAXX  22181 01047 11988 03405 11102 21134 39650 40028 58001 69932 70111 333 11042;
0161010470999992013012300004+69000+023033FM-12+0307ENKA V0203201N007012200019N0600001N1-01001-01291100211ADDAY181061AY221061GF103991031091004501001001MA1999999096421MD1710051+9999MW1011REMSYN072AAXX  23001 01047 41486 33207 11100 21129 39642 40021 57005 70182 83900;
0266010470999992013012306004+69000+023033FM-12+0307ENKA V0203201N005012200019N0700001N1-01021-01431100031ADDAA112000091AA224000591AJ100619199999999AY181061AY211061GF104991041041008001001001IA1239KA1999N-01131MA1999999096261MD1710111+9999MW1021REMSYN100AAXX  23061 01047 11588 43205 11102 21143 39626 40003 57011 69922 70281 84400 333 21113 47061 70005;EQDQ01  00002PRCP12
0161010470999992013012309004+69000+023033FM-12+0307ENKA V0202201N007012200019N0600001N1-00921-01331099881ADDAY111031AY211031GF104991031091004501041001MA1999999096121MD1810131+9999MW1031REMSYN072AAXX  23091 01047 41486 42207 11092 21133 39612 49988 58013 70311 83940;
0161010470999992013012312004+69000+023033FM-12+0307ENKA V0203201N010010042019N0500001N1-00721-01081099861ADDAY181061AY231061GF108991081001004501021999MA1999999096111MD1510021+9999MW1361REMSYN072AAXX  23121 01047 41484 83210 11072 21108 39611 49986 55002 73683 8802/;
0161010470999992013012315004+69000+023033FM-12+0307ENKA V0203201N010010042019N0500001N1-00641-00841099951ADDAY181031AY231031GF105991051091004501001001MA1999999096201MD1310091+9999MW1361REMSYN072AAXX  23151 01047 41484 53210 11064 21084 39620 49995 53009 73683 85900;
0201010470999992013012318004+69000+023033FM-12+0307ENKA V0203201N007010300019N0600001N1-00611-00901100111ADDAA112000891AY181061AY231061GF105991041041008001041001KA1999M-00551MA1999999096351MD1310151+9999MW1021REMSYN088AAXX  23181 01047 11586 53207 11061 21090 39635 40011 53015 69982 70283 84440 333 11055;
0161010470999992013012400004+69000+023033FM-12+0307ENKA V0203201N007012200019N0700001N1-00601-00861100411ADDAY111061AY211061GF104991021041008001041001MA1999999096631MD1310141+9999MW1021REMSYN072AAXX  24001 01047 41588 43207 11060 21086 39663 40041 53014 70211 82440;
0230010470999992013012406004+69000+023033FM-12+0307ENKA V0203201N001019999999N0700001N1-00921-01141100681ADDAA124000891AJ100589199999999AY121061AY211061GF105991051001012501071001IA1239KA1999N-00921MA1999999096881MD1310101+9999MW1021REMSYN094AAXX  24061 01047 31688 53201 11092 21114 39688 40068 53010 70221 85070 333 21092 47058 70008;
0161010470999992013012409004+69000+023033FM-12+0307ENKA V0202201N001010075019N0025001N1-01001-01221100721ADDAY171031AY221031GF108991081001008001021999MA1999999096921MD1010041+9999MW1711REMSYN072AAXX  24091 01047 41525 82201 11100 21122 39692 40072 50004 77172 8802/;
0161010470999992013012412004+69000+023033FM-12+0307ENKA V0202201N001010300019N0600001N1-01251-01431100721ADDAY171061AY221061GF106991021051004501021001MA1999999096911MD1410001+9999MW1011REMSYN072AAXX  24121 01047 41486 62201 11125 21143 39691 40072 54001 70172 82520;
0161010470999992013012415004+69000+023033FM-12+0307ENKA V0201401N005019999999N0700001N1-01511-01641100711ADDAY121031AY221031GF105991051001012501071001MA1999999096881MD1710031+9999MW1021REMSYN072AAXX  24151 01047 41688 51405 11151 21164 39688 40071 57003 70222 85070;
0201010470999992013012418004+69000+023033FM-12+0307ENKA V0202701N005019999999N0700001N1-01401-01611100661ADDAA112000021AY121061AY221061GF105991051001012501071001KA1999M-00801MA1999999096851MD1710041+9999MW1021REMSYN088AAXX  24181 01047 11688 52705 11140 21161 39685 40066 57004 69922 70222 85070 333 11080;
0161010470999992013012500004+69000+023033FM-12+0307ENKA V0201801N005012200019N0700001N1-02111-02301100521ADDAY121061AY221061GF102991021001017501071001MA1999999096671MD1810101+9999MW1011REMSYN072AAXX  25001 01047 41788 21805 11211 21230 39667 40052 58010 70122 82070;
0230010470999992013012506004+69000+023033FM-12+0307ENKA V0201801N003012200019N0700001N1-02191-02391100441ADDAA124000391AJ100589199999999AY121061AY211061GF103991031001017501071001IA1239KA1999N-02341MA1999999096601MD1810021+9999MW1021REMSYN094AAXX  25061 01047 31788 31803 11219 21239 39660 40044 58002 70221 83070 333 21234 47058 70002;
0161010470999992013012509004+69000+023033FM-12+0307ENKA V0202201N003012200019N0700001N1-02461-02671100471ADDAY101031AY201031GF103991031001012501071001MA1999999096621MD1210021+9999MW1021REMSYN072AAXX  25091 01047 41688 32203 11246 21267 39662 40047 52002 70200 83070;
0161010470999992013012512004+69000+023033FM-12+0307ENKA V0202201N003012200019N0600001N1-02481-02691100411ADDAY101061AY201061GF104991021051008001071001MA1999999096561MD1710051+9999MW1021REMSYN072AAXX  25121 01047 41586 42203 11248 21269 39656 40041 57005 70200 82570;
0161010470999992013012515004+69000+023033FM-12+0307ENKA V0202201N001012200019N0600001N1-02641-02831100391ADDAY101031AY201031GF103991031001012501071001MA1999999096521MD1710041+9999MW1011REMSYN072AAXX  25151 01047 41686 32201 11264 21283 39652 40039 57004 70100 83070;
0184010470999992013012518004+69000+023033FM-12+0307ENKA V0201801N005012200019N0700001N1-02901-03101100351ADDAY101061AY201061GF102991021001012501071001KA1999M-01441MA1999999096471MD1510051+9999MW1021REMSYN082AAXX  25181 01047 31688 21805 11290 21310 39647 40035 55005 70200 82070 333 11144;
0161010470999992013012600004+69000+023033FM-12+0307ENKA V0200501N001019999999N0600001N1-02981-03181100231ADDAY111061AY211061GF105991001001999999001081MA1999999096361MD1710071+9999MW1021REMSYN072AAXX  26001 01047 41986 50501 11298 21318 39636 40023 57007 70211 80008;
0249010470999992013012606004+69000+023033FM-12+0307ENKA V0209999C000010150019N0300001N1-02981-03181100131ADDAA124000091AJ100589199999999AY121061AY211061GF106991061001017501011001IA1239KA1999N-03111MA1999999096271MD1810061+9999MW1021REMSYN094AAXX  26061 01047 31780 60000 11298 21318 39627 40013 58006 70221 86010 333 21311 47058 70000;EQDQ01  00002PRCP24
0161010470999992013012609004+69000+023033FM-12+0307ENKA V0201801N001010075019N0500001N1-02981-03181100141ADDAY121031AY221031GF108991081001008001021999MA1999999096271MD1510011+9999MW1021REMSYN072AAXX  26091 01047 41584 81801 11298 21318 39627 40014 55001 70222 8802/;
0161010470999992013012612004+69000+023033FM-12+0307ENKA V0202201N001010075019N0300001N1-02561-02771100031ADDAY121061AY221061GF108991081001008001021999MA1999999096181MD1710091+9999MW1021REMSYN072AAXX  26121 01047 41580 82201 11256 21277 39618 40003 57009 70222 8802/;
0201010470999992013012618004+69000+023033FM-12+0307ENKA V0209999C000010075019N0200001N1-02081-02301099761ADDAA112002091AY171061AY271061GF108991081001008001021999KA1999M-02001MA1999999095951MD1710131+9999MW1711REMSYN088AAXX  26181 01047 11570 80000 11208 21230 39595 49976 57013 60022 77177 8802/ 333 11200;
0161010470999992013012700004+69000+023033FM-12+0307ENKA V0209999C000010042019N0600001N1-02041-02261099671ADDAY171061AY221061GF108991081051004501999999MA1999999095871MD1710041+9999MW1021REMSYN072AAXX  27001 01047 41486 80000 11204 21226 39587 49967 57004 70272 885//;
0247010470999992013012706004+69000+023033FM-12+0307ENKA V0209999C000010075019N0650001N1-01961-02181099641ADDAA112000391AA224002891AJ100619199999999AY171061AY221061GF108991081001008001021999IA1239KA1999N-02211MA1999999095831MD1810021+9999MW1021REMSYN100AAXX  27061 01047 11587 80000 11196 21218 39583 49964 58002 69932 70272 8802/ 333 21221 47061 70027;
0161010470999992013012709004+69000+023033FM-12+0307ENKA V0202201N001012200019N0650001N1-02621-02841099721ADDAY121031AY221031GF103991031051008001001001MA1999999095881MD1310051+9999MW1011REMSYN072AAXX  27091 01047 41587 32201 11262 21284 39588 49972 53005 70122 83500;
0161010470999992013012712004+69000+023033FM-12+0307ENKA V0201801N003012200019N0650001N1-02911-03151099791ADDAY101061AY201061GF101991011011012501001001MA1999999095931MD1010051+9999MW1021REMSYN072AAXX  27121 01047 41687 11803 11291 21315 39593 49979 50005 70200 81100;
0171010470999992013012715004+69000+023033FM-12+0307ENKA V0201801N003012200019N0600001N1-03311-03541099841ADDAY101031AY201031GA1001+999999999GF100991001001999999001001MA1999999095971MD1010031+9999MW1021REMSYN066AAXX  27151 01047 41986 01803 11331 21354 39597 49984 50003 70200;
0171010470999992013012800004+69000+023033FM-12+0307ENKA V0201801N003012200019N0600001N1-03681-03901099911ADDAY101061AY201061GA1001+999999999GF100991001001999999001001MA1999999096021MD1210031+9999MW1021REMSYN066AAXX  28001 01047 41986 01803 11368 21390 39602 49991 52003 70200;
0213010470999992013012806004+69000+023033FM-12+0307ENKA V0201801N001012200019N0600001N1-03681-03881099901ADDAJ100619199999999AY101061AY201061GF103991031001017501011001IA1239KA1999N-03681MA1999999096011MD1810021+9999MW1021REMSYN088AAXX  28061 01047 31786 31801 11368 21388 39601 49990 58002 70200 83010 333 21368 47061;
0161010470999992013012809004+69000+023033FM-12+0307ENKA V0201801N001010120019N0600001N1-03221-03431099821ADDAY121031AY201031GF107991071001012501021001MA1999999095961MD1710051+9999MW1031REMSYN072AAXX  28091 01047 41686 71801 11322 21343 39596 49982 57005 70320 87020;
0161010470999992013012812004+69000+023033FM-12+0307ENKA V0209999C000010075019N0600001N1-02761-03001099621ADDAY121061AY221061GF108991081001008001021999MA1999999095781MD1710171+9999MW1021REMSYN072AAXX  28121 01047 41586 80000 11276 21300 39578 49962 57017 70222 8802/;
0161010470999992013012815004+69000+023033FM-12+0307ENKA V0200501N001010075019N0015001N1-02211-02461099351ADDAY171031AY221031GF108991081001008001021999MA1999999095551MD1610251+9999MW1731REMSYN072AAXX  28151 01047 41515 80501 11221 21246 39555 49935 56025 77372 8802/;
0201010470999992013012818004+69000+023033FM-12+0307ENKA V0200901N003010075019N0007001N1-01241-01411099051ADDAA112003091AY171061AY271061GF108991081001008001021999KA1999M-01241MA1999999095301MD1710251+9999MW1731REMSYN088AAXX  28181 01047 11507 80903 11124 21141 39530 49905 57025 60032 77377 8802/ 333 11124;
0161010470999992013012900004+69000+023033FM-12+0307ENKA V0203601N003010075019N0040001N1-01231-01401098771ADDAY171061AY271061GF108991081001008001021999MA1999999095031MD1710091+9999MW1711REMSYN072AAXX  29001 01047 41540 83603 11123 21140 39503 49877 57009 77177 8802/;
0247010470999992013012906004+69000+023033FM-12+0307ENKA V0209999C000010075019N0600001N1-01131-01301098701ADDAA112003091AA224006191AJ100679199999999AY171061AY221061GF108991081001008001021999IA1239KA1999N-01251MA1999999094971MD1510021+9999MW1021REMSYN100AAXX  29061 01047 11586 80000 11113 21130 39497 49870 55002 60032 70272 8802/ 333 21125 47067 70061;
0161010470999992013012909004+69000+023033FM-12+0307ENKA V0203601N001010075019N0007001N1-01131-01301098701ADDAY171031AY221031GF108991081001008001021999MA1999999094971MD1210011+9999MW1731REMSYN072AAXX  29091 01047 41507 83601 11113 21130 39497 49870 52001 77372 8802/;
0161010470999992013012912004+69000+023033FM-12+0307ENKA V0203601N001010075019N0100001N1-01161-01311098731ADDAY171061AY271061GF108991081001008001021999MA1999999095001MD1210041+9999MW1711REMSYN072AAXX  29121 01047 41560 83601 11116 21131 39500 49873 52004 77177 8802/;
0161010470999992013012915004+69000+023033FM-12+0307ENKA V0209999C000010075019N0200001N1-01041-01201098751ADDAY171031AY271031GF108991081001008001021999MA1999999095021MD1210021+9999MW1711REMSYN072AAXX  29151 01047 41570 80000 11104 21120 39502 49875 52002 77177 8802/;
0201010470999992013012918004+69000+023033FM-12+0307ENKA V0201801N003010075019N0200001N1-01101-01251098851ADDAA112003091AY171061AY271061GF108991081001008001021999KA1999M-00921MA1999999095121MD1210091+9999MW1711REMSYN088AAXX  29181 01047 11570 81803 11110 21125 39512 49885 52009 60032 77177 8802/ 333 11092;
0161010470999992013013000004+69000+023033FM-12+0307ENKA V0201401N003012200019N0700001N1-02501-02751099061ADDAY171061AY211061GF103991031001008001041001MA1999999095261MD1110101+9999MW1021REMSYN072AAXX  30001 01047 41588 31403 11250 21275 39526 49906 51010 70271 83040;
0247010470999992013013006004+69000+023033FM-12+0307ENKA V0201401N003012200019N0700001N1-03001-03241098931ADDAA112000021AA224002591AJ100679199999999AY171061AY221061GF102991021001017501041001IA1239KA1999N-03021MA1999999095111MD1810111+9999MW1021REMSYN100AAXX  30061 01047 11788 21403 11300 21324 39511 49893 58011 69912 70272 82040 333 21302 47067 70026;
0161010470999992013013009004+69000+023033FM-12+0307ENKA V02099999999990012019N0300001N1-02701-02941098781ADDAY121031AY221031GF108991081061001501999999MA1999999094971MD1810111+9999MW1021REMSYN072AAXX  30091 01047 41280 8//// 11270 21294 39497 49878 58011 70222 886//;
0161010470999992013013012004+69000+023033FM-12+0307ENKA V0203601N003010042019N0020001N1-02061-02291098531ADDAY171061AY221061GF108991081001004501021999MA1999999094771MD1810201+9999MW1711REMSYN072AAXX  30121 01047 41420 83603 11206 21229 39477 49853 58020 77172 8802/;
0161010470999992013013015004+69000+023033FM-12+0307ENKA V0200501N001010042019N0080001N1-01721-01921098251ADDAY171031AY271031GF108991081001004501021999MA1999999094511MD1810261+9999MW1711REMSYN072AAXX  30151 01047 41458 80501 11172 21192 39451 49825 58026 77177 8802/;
0201010470999992013013018004+69000+023033FM-12+0307ENKA V0200501N003010042019N0020001N1-01381-01561097961ADDAA112002091AY171061AY271061GF108991081001004501021999KA1999M-01301MA1999999094251MD1710251+9999MW1711REMSYN088AAXX  30181 01047 11420 80503 11138 21156 39425 49796 57025 60022 77177 8802/ 333 11130;
0161010470999992013013100004+69000+023033FM-12+0307ENKA V0209999C000010042019N0008001N1-00921-01031097571ADDAY171061AY271061GF108991081001004501021999MA1999999093881MD1710151+9999MW1731REMSYN072AAXX  31001 01047 41408 80000 11092 21103 39388 49757 57015 77377 8802/;
0247010470999992013013106004+69000+023033FM-12+0307ENKA V0209999C000010075019N0700001N1-00441-00531097441ADDAA112004191AA224005891AJ100779199999999AY171061AY221061GF108991081001008001021999IA1239KA1999N-01381MA1999999093781MD1710051+9999MW1021REMSYN100AAXX  31061 01047 11588 80000 11044 21053 39378 49744 57005 60042 70272 8802/ 333 21138 47077 70058;
0161010470999992013013109004+69000+023033FM-12+0307ENKA V0209999C000010075019N0020001N1-00411-00481097451ADDAY171031AY271031GF108991081001008001021999MA1999999093801MD1310021+9999MW1711REMSYN072AAXX  31091 01047 41520 80000 11041 21048 39380 49745 53002 77177 8802/;
0161010470999992013013112004+69000+023033FM-12+0307ENKA V0200501N001010075019N0007001N1-00381-00491097461ADDAY171061AY271061GF108991081001008001021999MA1999999093811MD1210011+9999MW1731REMSYN072AAXX  31121 01047 41507 80501 11038 21049 39381 49746 52001 77377 8802/;
0161010470999992013013115004+69000+023033FM-12+0307ENKA V0203601N001010075019N0020001N1-00441-00551097501ADDAY171031AY271031GF108991081001008001021999MA1999999093851MD1210031+9999MW1711REMSYN072AAXX  31151 01047 41520 83601 11044 21055 39385 49750 52003 77177 8802/;
0201010470999992013013118004+69000+023033FM-12+0307ENKA V0203601N001010075019N0100001N1-00521-00631097561ADDAA112004191AY171061AY271061GF108991081001008001021999KA1999M-00341MA1999999093901MD1210051+9999MW1711REMSYN088AAXX  31181 01047 11560 83601 11052 21063 39390 49756 52005 60042 77177 8802/ 333 11034;
0161010470999992013020100004+69000+023033FM-12+0307ENKA V0209999C000010300019N0650001N1-01001-01111097731ADDAY171061AY221061GF108991031051004501021999MA1999999094031MD1210061+9999MW1021REMSYN072AAXX  01001 01047 41487 80000 11100 21111 39403 49773 52006 70272 8352/;
0247010470999992013020106004+69000+023033FM-12+0307ENKA V0209999C000010075019N0300001N1-00521-00631097771ADDAA112001091AA224005191AJ100789199999999AY171061AY221061GF108991081001008001021999IA1239KA1999N-01001MA1999999094101MD1210041+9999MW1701REMSYN100AAXX  01061 01047 11580 80000 11052 21063 39410 49777 52004 69992 77072 8802/ 333 21100 47078 70051;
0161010470999992013020109004+69000+023033FM-12+0307ENKA V0203601N003010075019N0250001N1-00451-00561097871ADDAY171031AY271031GF108991081001008001021999MA1999999094201MD1310101+9999MW1711REMSYN072AAXX  01091 01047 41575 83603 11045 21056 39420 49787 53010 77177 8802/;
0161010470999992013020112004+69000+023033FM-12+0307ENKA V0201401N005010075019N0600001N1-00261-00371098021ADDAY171061AY221061GF108991081001008001021999MA1999999094351MD1210151+9999MW1021REMSYN072AAXX  01121 01047 41586 81405 11026 21037 39435 49802 52015 70272 8802/;
0161010470999992013020115004+69000+023033FM-12+0307ENKA V0201401N001010075019N0650001N1-00511-00651098201ADDAY121031AY221031GF108991081001008001021999MA1999999094521MD1210171+9999MW1021REMSYN072AAXX  01151 01047 41587 81401 11051 21065 39452 49820 52017 70222 8802/;
0201010470999992013020118004+69000+023033FM-12+0307ENKA V0201801N001010075019N0650001N1-00501-00621098321ADDAA112000891AY171061AY221061GF108991081001008001021999KA1999M-00221MA1999999094621MD1310101+9999MW1021REMSYN088AAXX  01181 01047 11587 81801 11050 21062 39462 49832 53010 69972 70272 8802/ 333 11022;
0161010470999992013020200004+69000+023033FM-12+0307ENKA V0203601N003010042019N0700001N1-00761-00871098631ADDAY121061AY221061GF108991081051004501999999MA1999999094921MD1210131+9999MW1021REMSYN072AAXX  02001 01047 41488 83603 11076 21087 39492 49863 52013 70222 885//;
0230010470999992013020206004+69000+023033FM-12+0307ENKA V0209999C000010075019N0700001N1-01041-01161098891ADDAA124000891AJ100789199999999AY121061AY221061GF108991081051008001999999IA1239KA1999N-01041MA1999999095161MD1210121+9999MW1021REMSYN094AAXX  02061 01047 31588 80000 11104 21116 39516 49889 52012 70222 885// 333 21104 47078 70007;
0161010470999992013020209004+69000+023033FM-12+0307ENKA V0209999C000010075019N0080001N1-00961-01121099101ADDAY171031AY221031GF108991081001008001021999MA1999999095361MD1210191+9999MW1701REMSYN072AAXX  02091 01047 41558 80000 11096 21112 39536 49910 52019 77072 8802/;
0161010470999992013020212004+69000+023033FM-12+0307ENKA V0209999C000010075019N0200001N1-00971-01151099241ADDAY171061AY271061GF108991081001008001021999MA1999999095501MD1210141+9999MW1711REMSYN072AAXX  02121 01047 41570 80000 11097 21115 39550 49924 52014 77177 8802/;
0161010470999992013020215004+69000+023033FM-12+0307ENKA V0203601N001010075019N0600001N1-01401-01601099411ADDAY171031AY221031GF108991081051008001999999MA1999999095631MD1210141+9999MW1021REMSYN072AAXX  02151 01047 41586 83601 11140 21160 39563 49941 52014 70272 885//;
0201010470999992013020218004+69000+023033FM-12+0307ENKA V0209999C000010300019N0300001N1-01381-01531099501ADDAA112000591AY171061AY221061GF108991041051004501021999KA1999M-00901MA1999999095721MD1210091+9999MW1711REMSYN088AAXX  02181 01047 11480 80000 11138 21153 39572 49950 52009 69962 77172 8452/ 333 11090;
0161010470999992013020300004+69000+023033FM-12+0307ENKA V0203601N001010042019N0300001N1-01141-01291099541ADDAY171061AY221061GF108991061071004501021999MA1999999095771MD1410001+9999MW1701REMSYN072AAXX  03001 01047 41480 83601 11114 21129 39577 49954 54001 77072 8672/;
0247010470999992013020306004+69000+023033FM-12+0307ENKA V0209999C000010075019N0200001N1-00781-00961099441ADDAA112000591AA224001091AJ100809199999999AY171061AY221061GF108991051071008001021999IA1239KA1999N-01381MA1999999095701MD1710051+9999MW1701REMSYN100AAXX  03061 01047 11570 80000 11078 21096 39570 49944 57005 69942 77072 8572/ 333 21138 47080 70010;
0161010470999992013020309004+69000+023033FM-12+0307ENKA V0209999C000010075019N0070001N1-00811-00991099471ADDAY171031AY271031GF108991081001008001021999MA1999999095721MD1210021+9999MW1711REMSYN072AAXX  03091 01047 41557 80000 11081 21099 39572 49947 52002 77177 8802/;
0161010470999992013020312004+69000+023033FM-12+0307ENKA V0203401N001010075019N0030001N1-00961-01161099441ADDAY171061AY271061GF108991081001008001021999MA1999999095681MD1810041+9999MW1711REMSYN072AAXX  03121 01047 41530 83401 11096 21116 39568 49944 58004 77177 8802/;
0161010470999992013020315004+69000+023033FM-12+0307ENKA V0201401N003010075019N0020001N1-00921-01051099391ADDAY171031AY271031GF108991081001008001021999MA1999999095651MD1710041+9999MW1731REMSYN072AAXX  03151 01047 41520 81403 11092 21105 39565 49939 57004 77377 8802/;
0201010470999992013020318004+69000+023033FM-12+0307ENKA V0201401N003010075019N0030001N1-01161-01331099391ADDAA112002091AY171061AY271061GF108991081001008001021999KA1999M-00661MA1999999095631MD1710021+9999MW1711REMSYN088AAXX  03181 01047 11530 81403 11116 21133 39563 49939 57002 60022 77177 8802/ 333 11066;
0161010470999992013020400004+69000+023033FM-12+0307ENKA V0201801N003010075019N0035001N1-01101-01251099231ADDAY171061AY271061GF108991081001008001021999MA1999999095471MD1810121+9999MW1711REMSYN072AAXX  04001 01047 41535 81803 11110 21125 39547 49923 58012 77177 8802/;
0247010470999992013020406004+69000+023033FM-12+0307ENKA V0201801N003010075019N0600001N1-00831-00991099011ADDAA112001091AA224003691AJ100829199999999AY171061AY221061GF108991081001008001021999IA1239KA1999N-01201MA1999999095271MD1710111+9999MW1021REMSYN100AAXX  04061 01047 11586 81803 11083 21099 39527 49901 57011 60012 70272 8802/ 333 21120 47082 70036;
0161010470999992013020409004+69000+023033FM-12+0307ENKA V0201801N003010075019N0005001N1-00841-00971098921ADDAY171031AY221031GF108991081001008001021999MA1999999095201MD1710081+9999MW1731REMSYN072AAXX  04091 01047 41505 81803 11084 21097 39520 49892 57008 77372 8802/;
0161010470999992013020412004+69000+023033FM-12+0307ENKA V0201801N007010042019N0300001N1-00811-01031098851ADDAY171061AY231061GF108991071071004501021999MA1999999095121MD1710081+9999MW1361REMSYN072AAXX  04121 01047 41480 81807 11081 21103 39512 49885 57008 73673 8772/;
0161010470999992013020415004+69000+023033FM-12+0307ENKA V0201801N007010075019N0500001N1-00861-01071098891ADDAY171031AY231031GF108991081001008001021999MA1999999095171MD1010041+9999MW1021REMSYN072AAXX  04151 01047 41584 81807 11086 21107 39517 49889 50004 70273 8802/;
0201010470999992013020418004+69000+023033FM-12+0307ENKA V0201601N007010300019N0070001N1-00581-00771098771ADDAA112000891AY171061AY231061GF108991031071004501021999KA1999M-00581MA1999999095061MD1710111+9999MW1711REMSYN088AAXX  04181 01047 11457 81607 11058 21077 39506 49877 57011 69982 77173 8372/ 333 11058;
0161010470999992013020500004+69000+023033FM-12+0307ENKA V0201601N010010075019N0200001N1-00741-00991098801ADDAY171061AY231061GF106991061001008001021001MA1999999095081MD1210011+9999MW1381REMSYN072AAXX  05001 01047 41570 61610 11074 21099 39508 49880 52001 73873 86020;
0247010470999992013020506004+69000+023033FM-12+0307ENKA V0201601N007010075019N0600001N1-00681-00941099051ADDAA112000391AA224001091AJ100809199999999AY171061AY231061GF108991081001008001021999IA1249KA1999N-00761MA1999999095321MD1210141+9999MW1021REMSYN100AAXX  05061 01047 11586 81607 11068 21094 39532 49905 52014 69932 70273 8802/ 333 21076 48080 70011;
0161010470999992013020509004+69000+023033FM-12+0307ENKA V0201601N007010075019N0500001N1-00661-00921099281ADDAY121031AY221031GF108991081001008001021999MA1999999095551MD1210211+9999MW1021REMSYN072AAXX  05091 01047 41584 81607 11066 21092 39555 49928 52021 70222 8802/;
0161010470999992013020512004+69000+023033FM-12+0307ENKA V0201601N007010042019N0600001N1-00611-00871099481ADDAY121061AY221061GF108991081051004501999999MA1999999095751MD1210201+9999MW1021REMSYN072AAXX  05121 01047 41486 81607 11061 21087 39575 49948 52020 70222 885//;
0161010470999992013020515004+69000+023033FM-12+0307ENKA V0201601N005010300019N0600001N1-00641-00871099701ADDAY121031AY221031GF108991031051004501021999MA1999999095961MD1210241+9999MW1021REMSYN072AAXX  05151 01047 41486 81605 11064 21087 39596 49970 52024 70222 8352/;
0184010470999992013020518004+69000+023033FM-12+0307ENKA V0201601N003010042019N0650001N1-00681-00921099971ADDAY121061AY221061GF108991051051004501021999KA1999M-00551MA1999999096211MD1310231+9999MW1021REMSYN082AAXX  05181 01047 31487 81603 11068 21092 39621 49997 53023 70222 8552/ 333 11055;
0161010470999992013020600004+69000+023033FM-12+0307ENKA V0201601N005010042019N0600001N1-00911-01031100361ADDAY171061AY221061GF108991061071004501021999MA1999999096571MD1110201+9999MW1021REMSYN072AAXX  06001 01047 41486 81605 11091 21103 39657 40036 51020 70272 8672/;
0282010470999992013020606004+69000+023033FM-12+0307ENKA V0201601N005010075019N0650001N1-00931-01131100611ADDAA112000091AA224000091AJ100809199999999AY171061AY221061GF108991061051008001021999IA1249KA1999N-00931MA1999999096821MD1210111+9999MW1021REMSYN100AAXX  06061 01047 11587 81605 11093 21113 39682 40061 52011 69912 70272 8652/ 333 21093 48080 70001;EQDQ01  00002PRCP24Q02  00002PRCP12
0161010470999992013020609004+69000+023033FM-12+0307ENKA V0203201N003010075019N0060001N1-00981-01261100761ADDAY171031AY221031GF108991081001008001021999MA1999999096961MD1210141+9999MW1711REMSYN072AAXX  06091 01047 41556 83203 11098 21126 39696 40076 52014 77172 8802/;
0161010470999992013020612004+69000+023033FM-12+0307ENKA V0203201N001010042019N0500001N1-01021-01341100831ADDAY171061AY221061GF107991071051004501001001MA1999999097021MD1210061+9999MW1781REMSYN072AAXX  06121 01047 41484 73201 11102 21134 39702 40083 52006 77872 87500;
0161010470999992013020615004+69000+023033FM-12+0307ENKA V0209999C000012200019N0600001N1-02001-02311100991ADDAY171031AY221031GF102991021051004501001001MA1999999097131MD1210091+9999MW1011REMSYN072AAXX  06151 01047 41486 20000 11200 21231 39713 40099 52009 70172 82500;
0211010470999992013020618004+69000+023033FM-12+0307ENKA V0201801N003012200019N0600001N1-02681-02971101121ADDAA112000021AY171061AY201061GA1001+999999999GF100991001001999999001001KA1999M-00801MA1999999097221MD1210121+9999MW1021REMSYN082AAXX  06181 01047 11986 01803 11268 21297 39722 40112 52012 69912 70270 333 11080;
0075010470999992013020700004+69000+023033FM-12+0307ENKA V02099999999999999999N9999999N1-02561-02861999999REMSYN066AAXX  07001 01047 41X05 91803 11256 21286 39741 40130 52007 74740;
0230010470999992013020706004+69000+023033FM-12+0307ENKA V0201801N001012200019N0300001N1-02981-03271101411ADDAA124000021AJ100809199999999AY141061AY201061GF104991041001017501071001IA1249KA1999N-02981MA1999999097501MD1210051+9999MW1021REMSYN094AAXX  07061 01047 31780 41801 11298 21327 39750 40141 52005 70240 84070 333 21298 48080 70001;
0161010470999992013020709004+69000+023033FM-12+0307ENKA V0201801N003019999999N0400001N1-03061-03341101531ADDAY121031AY221031GF108991081001012501011999MA1999999097611MD1210101+9999MW1021REMSYN072AAXX  07091 01047 41682 81803 11306 21334 39761 40153 52010 70222 8801/;
0161010470999992013020712004+69000+023033FM-12+0307ENKA V0201801N001012200019N0600001N1-02921-03211101581ADDAY121061AY201061GF102991021001017501041001MA1999999097661MD1110061+9999MW1021REMSYN072AAXX  07121 01047 41786 21801 11292 21321 39766 40158 51006 70220 82040;
0171010470999992013020715004+69000+023033FM-12+0307ENKA V0201801N003012200019N0600001N1-03151-03431101651ADDAY101031AY201031GA1001+999999999GF100991001001999999001001MA1999999097721MD1310051+9999MW1021REMSYN066AAXX  07151 01047 41986 01803 11315 21343 39772 40165 53005 70200;
0194010470999992013020718004+69000+023033FM-12+0307ENKA V0201801N003012200019N0500001N1-03381-03661101751ADDAY101061AY201061GA1001+999999999GF100991001001999999001001KA1999M-02751MA1999999097811MD1210081+9999MW1021REMSYN076AAXX  07181 01047 31984 01803 11338 21366 39781 40175 52008 70200 333 11275;
0161010470999992013020800004+69000+023033FM-12+0307ENKA V0201801N003010012019N0500001N1-03381-03661101891ADDAY121061AY201061GF108991081061001501999999MA1999999097931MD1210041+9999MW1021REMSYN072AAXX  08001 01047 41284 81803 11338 21366 39793 40189 52004 70220 886//;
0249010470999992013020806004+69000+023033FM-12+0307ENKA V0201801N003010150019N0650001N1-02861-03151101961ADDAA124000091AJ100809199999999AY121061AY201061GF107991071001017501071001IA1249KA1999N-03421MA1999999098021MD1210051+9999MW1021REMSYN094AAXX  08061 01047 31787 71803 11286 21315 39802 40196 52005 70220 87070 333 21342 48080 70000;EQDQ01  00002PRCP24
0161010470999992013020809004+69000+023033FM-12+0307ENKA V0209999C000010300019N0650001N1-02541-02841102051ADDAY121031AY221031GF106991031051008001031001MA1999999098121MD1310101+9999MW1021REMSYN072AAXX  08091 01047 41587 60000 11254 21284 39812 40205 53010 70222 83530;
0161010470999992013020812004+69000+023033FM-12+0307ENKA V0201601N001012200019N0650001N1-02361-02661102111ADDAY121061AY221061GF103991031001017501031001MA1999999098201MD1210071+9999MW1011REMSYN072AAXX  08121 01047 41787 31601 11236 21266 39820 40211 52007 70122 83030;
0161010470999992013020815004+69000+023033FM-12+0307ENKA V0201601N005012200019N0650001N1-02681-02971102161ADDAY101031AY201031GF102991021051008001001001MA1999999098221MD1210131+9999MW1021REMSYN072AAXX  08151 01047 41587 21605 11268 21297 39822 40216 52013 70200 82500;
0194010470999992013020818004+69000+023033FM-12+0307ENKA V0201601N005012200019N0650001N1-03031-03321102401ADDAY101061AY201061GA1001+999999999GF100991001001999999001001KA1999M-02201MA1999999098451MD1210131+9999MW1021REMSYN076AAXX  08181 01047 31987 01605 11303 21332 39845 40240 52013 70200 333 11220;
0249010470999992013020906004+69000+023033FM-12+0307ENKA V0209999C000012200019N0650001N1-03341-03621102831ADDAA124000091AJ100809199999999AY101061AY201061GF103991031001017501071001IA1249KA1999N-03341MA1999999098851MD1210071+9999MW1021REMSYN094AAXX  09061 01047 31787 30000 11334 21362 39885 40283 52007 70200 83070 333 21334 48080 70000;EQDQ01  00002PRCP24
0161010470999992013020909004+69000+023033FM-12+0307ENKA V0201801N003019999999N0500001N1-03301-03581102991ADDAY121031AY221031GF108991081001012501011999MA1999999099001MD1210151+9999MW1021REMSYN072AAXX  09091 01047 41684 81803 11330 21358 39900 40299 52015 70222 8801/;
0161010470999992013020912004+69000+023033FM-12+0307ENKA V0201801N003012200019N0500001N1-02921-03211103021ADDAY121061AY221061GF104991041001012501011001MA1999999099051MD1010051+9999MW1011REMSYN072AAXX  09121 01047 41684 41803 11292 21321 39905 40302 50005 70122 84010;
0161010470999992013020915004+69000+023033FM-12+0307ENKA V0201801N003010021019N0500001N1-03001-03291103091ADDAY101031AY201031GF106991061061002501001001MA1999999099111MD1210061+9999MW1031REMSYN072AAXX  09151 01047 41384 61803 11300 21329 39911 40309 52006 70300 86600;
0184010470999992013020918004+69000+023033FM-12+0307ENKA V0201801N003010012019N0400001N1-03021-03311103101ADDAY121061AY221061GF106991061061001501001001KA1999M-02851MA1999999099121MD1010011+9999MW1021REMSYN082AAXX  09181 01047 31282 61803 11302 21331 39912 40310 50001 70222 86600 333 11285;
0161010470999992013021000004+69000+023033FM-12+0307ENKA V0201801N003012200019N0500001N1-02951-03241103031ADDAY121061AY221061GF104991041061002501001001MA1999999099061MD1710031+9999MW1011REMSYN072AAXX  10001 01047 41384 41803 11295 21324 39906 40303 57003 70122 84600;
0249010470999992013021006004+69000+023033FM-12+0307ENKA V0201801N001010150019N0650001N1-02881-03171102921ADDAA124000091AJ100809199999999AY121061AY221061GF106991061001017501071001IA1249KA1999N-03081MA1999999098951MD1710111+9999MW1021REMSYN094AAXX  10061 01047 31787 61801 11288 21317 39895 40292 57011 70222 86070 333 21308 48080 70000;EQDQ01  00002PRCP24
0161010470999992013021009004+69000+023033FM-12+0307ENKA V0201601N003010075019N0600001N1-02421-02721102911ADDAY121031AY221031GF107991071051008001001001MA1999999098971MD1210021+9999MW1031REMSYN072AAXX  10091 01047 41586 71603 11242 21272 39897 40291 52002 70322 87500;
0161010470999992013021012004+69000+023033FM-12+0307ENKA V0201801N001010075019N0650001N1-01841-02151102841ADDAY121061AY221061GF108991081051008001999999MA1999999098921MD1710051+9999MW1021REMSYN072AAXX  10121 01047 41587 81801 11184 21215 39892 40284 57005 70222 885//;
0161010470999992013021015004+69000+023033FM-12+0307ENKA V0209999C000010075019N0200001N1-01601-01921102771ADDAY171031AY221031GF108991081001008001021999MA1999999098871MD1810041+9999MW1711REMSYN072AAXX  10151 01047 41570 80000 11160 21192 39887 40277 58004 77172 8802/;
0201010470999992013021018004+69000+023033FM-12+0307ENKA V0209999C000010075019N0600001N1-01501-01731102761ADDAA112000021AY171061AY221061GF106991061051008001001001KA1999M-01451MA1999999098861MD1410001+9999MW1011REMSYN088AAXX  10181 01047 11586 60000 11150 21173 39886 40276 54000 69912 70172 86500 333 11145;
0171010470999992013021100004+69000+023033FM-12+0307ENKA V0203601N001012200019N0600001N1-02421-02671102811ADDAY101061AY201061GA1001+999999999GF100991001001999999001001MA1999999098871MD1210031+9999MW1021REMSYN066AAXX  11001 01047 41986 03601 11242 21267 39887 40281 52003 70200;
0230010470999992013021106004+69000+023033FM-12+0307ENKA V0203601N001010150019N0650001N1-02411-02661102831ADDAA124000021AJ100819199999999AY111061AY201061GF105991051001017501071001IA1249KA1999N-02591MA1999999098881MD1010031+9999MW1031REMSYN094AAXX  11061 01047 31787 53601 11241 21266 39888 40283 50003 70310 85070 333 21259 48081 70001;
0161010470999992013021109004+69000+023033FM-12+0307ENKA V0209999C000012200019N0650001N1-02521-02781102861ADDAY111031AY211031GF103991031001017501071001MA1999999098911MD1210031+9999MW1011REMSYN072AAXX  11091 01047 41787 30000 11252 21278 39891 40286 52003 70111 83070;
0161010470999992013021112004+69000+023033FM-12+0307ENKA V0202201N001012200019N0650001N1-02151-02421102841ADDAY101061AY201061GF103991031001017501071001MA1999999098911MD1410001+9999MW1021REMSYN072AAXX  11121 01047 41787 32201 11215 21242 39891 40284 54000 70200 83070;
0161010470999992013021115004+69000+023033FM-12+0307ENKA V0201801N003010150019N0650001N1-02361-02611102861ADDAY121031AY201031GF105991051001017501071001MA1999999098921MD1210011+9999MW1031REMSYN072AAXX  11151 01047 41787 51803 11236 21261 39892 40286 52001 70320 85070;
0184010470999992013021118004+69000+023033FM-12+0307ENKA V0201801N003010150019N0650001N1-02181-02451102871ADDAY121061AY221061GF106991061001017501071001KA1999M-01701MA1999999098931MD1210021+9999MW1021REMSYN082AAXX  11181 01047 31787 61803 11218 21245 39893 40287 52002 70222 86070 333 11170;
0161010470999992013021200004+69000+023033FM-12+0307ENKA V0203601N003010042019N0650001N1-01661-01921102941ADDAY121061AY221061GF108991081051004501999999MA1999999099021MD1210051+9999MW1021REMSYN072AAXX  12001 01047 41487 83603 11166 21192 39902 40294 52005 70222 885//;
0249010470999992013021206004+69000+023033FM-12+0307ENKA V0209999C000010075019N0700001N1-01231-01411102961ADDAA124000091AJ100819199999999AY121061AY221061GF107991071051008001001001IA1249KA1999N-02181MA1999999099071MD1210041+9999MW1021REMSYN094AAXX  12061 01047 31588 70000 11123 21141 39907 40296 52004 70222 87500 333 21218 48081 70000;EQDQ01  00002PRCP24
0161010470999992013021209004+69000+023033FM-12+0307ENKA V0201801N001010021019N0030001N1-01181-01371103051ADDAY121031AY221031GF108991081061002501999999MA1999999099161MD1210111+9999MW1101REMSYN072AAXX  12091 01047 41330 81801 11118 21137 39916 40305 52011 71022 886//;
0161010470999992013021212004+69000+023033FM-12+0307ENKA V0201801N001010042019N0025001N1-00781-00901103121ADDAY171061AY221061GF108991081001004501021999MA1999999099231MD1110081+9999MW1711REMSYN072AAXX  12121 01047 41425 81801 11078 21090 39923 40312 51008 77172 8802/;
0161010470999992013021215004+69000+023033FM-12+0307ENKA V0200901N003010042019N0300001N1-00641-00751103121ADDAY171031AY221031GF108991081001004501021999MA1999999099251MD1410001+9999MW1021REMSYN072AAXX  12151 01047 41480 80903 11064 21075 39925 40312 54001 70272 8802/;
0201010470999992013021218004+69000+023033FM-12+0307ENKA V0201601N005010012019N0100001N1-00681-00751103171ADDAA112000591AY171061AY221061GF108991081061001501999999KA1999M-00541MA1999999099281MD1210031+9999MW1711REMSYN088AAXX  12181 01047 11260 81605 11068 21075 39928 40317 52003 69942 77172 886// 333 11054;
0161010470999992013021300004+69000+023033FM-12+0307ENKA V0203401N003010021019N0600001N1-00641-00711103121ADDAY171061AY221061GF108991081061002501999999MA1999999099251MD1810041+9999MW1021REMSYN072AAXX  13001 01047 41386 83403 11064 21071 39925 40312 58004 70272 886//;
0247010470999992013021306004+69000+023033FM-12+0307ENKA V0201801N005010075019N0650001N1-00581-00691103121ADDAA112000021AA224000591AJ100789199999999AY171061AY221061GF108991081071008001999999IA1249KA1999N-00681MA1999999099251MD1210011+9999MW1021REMSYN100AAXX  13061 01047 11587 81805 11058 21069 39925 40312 52001 69912 70272 887// 333 21068 48078 70005;
0161010470999992013021309004+69000+023033FM-12+0307ENKA V0201601N005010042019N0650001N1-00751-00821103151ADDAY121031AY221031GF106991061051004501001001MA1999999099271MD1310041+9999MW1011REMSYN072AAXX  13091 01047 41487 61605 11075 21082 39927 40315 53004 70122 86500;
0161010470999992013021312004+69000+023033FM-12+0307ENKA V0201801N007010042019N0650001N1-00681-00881103111ADDAY121061AY221061GF108991081051004501999999MA1999999099231MD1810021+9999MW1021REMSYN072AAXX  13121 01047 41487 81807 11068 21088 39923 40311 58002 70222 885//;
0161010470999992013021315004+69000+023033FM-12+0307ENKA V0201801N005010075019N0300001N1-00701-00901103081ADDAY171031AY221031GF108991081001008001021999MA1999999099211MD1710041+9999MW1711REMSYN072AAXX  13151 01047 41580 81805 11070 21090 39921 40308 57004 77172 8802/;
0201010470999992013021318004+69000+023033FM-12+0307ENKA V0202201N005010042019N0300001N1-00701-00821102961ADDAA112000021AY171061AY221061GF108991081001004501021999KA1999M-00451MA1999999099081MD1710121+9999MW1701REMSYN088AAXX  13181 01047 11480 82205 11070 21082 39908 40296 57012 69912 77072 8802/ 333 11045;
0161010470999992013021400004+69000+023033FM-12+0307ENKA V0202201N007010021019N0600001N1-00561-00781102671ADDAY171061AY221061GF108991081061002501999999MA1999999098821MD1810171+9999MW1021REMSYN072AAXX  14001 01047 41386 82207 11056 21078 39882 40267 58017 70272 886//;
0247010470999992013021406004+69000+023033FM-12+0307ENKA V0202201N007010042019N0600001N1-00491-00781102421ADDAA112000391AA224000591AJ100799199999999AY171061AY221061GF108991081061004501999999IA1249KA1999N-00701MA1999999098571MD1810101+9999MW1021REMSYN100AAXX  14061 01047 11486 82207 11049 21078 39857 40242 58010 69932 70272 886// 333 21070 48079 70004;
0161010470999992013021409004+69000+023033FM-12+0307ENKA V0202201N007019999999N0700001N1-00471-00821102461ADDAY121031AY221031GF107991071001012501071001MA1999999098621MD1310041+9999MW1021REMSYN072AAXX  14091 01047 41688 72207 11047 21082 39862 40246 53004 70222 87070;
0161010470999992013021412004+69000+023033FM-12+0307ENKA V0202201N007010075019N0700001N1-00491-00921102421ADDAY121061AY221061GF106991061041008001001001MA1999999098571MD1510041+9999MW1021REMSYN072AAXX  14121 01047 41588 62207 11049 21092 39857 40242 55004 70222 86400;
0161010470999992013021415004+69000+023033FM-12+0307ENKA V0202201N003019999999N0700001N1-00571-00931102411ADDAY121031AY211031GF107991071001012501071001MA1999999098571MD1710021+9999MW1021REMSYN072AAXX  14151 01047 41688 72203 11057 21093 39857 40241 57002 70221 87070;
0184010470999992013021418004+69000+023033FM-12+0307ENKA V0202201N003019999999N0700001N1-00521-00911102361ADDAY121061AY221061GF108991081001008001071999KA1999M-00421MA1999999098521MD1710051+9999MW1021REMSYN082AAXX  14181 01047 31588 82203 11052 21091 39852 40236 57005 70222 8807/ 333 11042;
0161010470999992013021500004+69000+023033FM-12+0307ENKA V0203201N005010300019N0300001N1-00651-00861102241ADDAY171061AY221061GF108991031051004501021999MA1999999098401MD1710081+9999MW1701REMSYN072AAXX  15001 01047 41480 83205 11065 21086 39840 40224 57008 77072 8352/;
0247010470999992013021506004+69000+023033FM-12+0307ENKA V0209999C000010075019N0700001N1-00901-01141102131ADDAA112000021AA224000021AJ100809199999999AY171061AY221061GF108991081051008001999999IA1239KA1999N-00901MA1999999098271MD1810061+9999MW1021REMSYN100AAXX  15061 01047 11588 80000 11090 21114 39827 40213 58006 69912 70272 885// 333 21090 47080 70001;
0161010470999992013021509004+69000+023033FM-12+0307ENKA V0203401N003010075019N0600001N1-00741-00981102131ADDAY121031AY221031GF108991081001008001021999MA1999999098281MD1210011+9999MW1021REMSYN072AAXX  15091 01047 41586 83403 11074 21098 39828 40213 52001 70222 8802/;
0161010470999992013021512004+69000+023033FM-12+0307ENKA V0203401N003010075019N0300001N1-00751-01031102111ADDAY171061AY221061GF108991081001008001021999MA1999999098271MD1710021+9999MW1711REMSYN072AAXX  15121 01047 41580 83403 11075 21103 39827 40211 57002 77172 8802/;
0161010470999992013021515004+69000+023033FM-12+0307ENKA V0202201N001010075019N0300001N1-00581-00871102031ADDAY171031AY271031GF108991081001008001021999MA1999999098201MD1710081+9999MW1711REMSYN072AAXX  15151 01047 41580 82201 11058 21087 39820 40203 57008 77177 8802/;
0201010470999992013021518004+69000+023033FM-12+0307ENKA V0209999C000010075019N0300001N1-00681-00891101951ADDAA112000021AY171061AY271061GF108991081001008001021999KA1999M-00441MA1999999098121MD1710071+9999MW1711REMSYN088AAXX  15181 01047 11580 80000 11068 21089 39812 40195 57007 69912 77177 8802/ 333 11044;
0161010470999992013021600004+69000+023033FM-12+0307ENKA V0202201N003010075019N0600001N1-00501-00801101781ADDAY171061AY221061GF108991081001008001021999MA1999999097961MD1710101+9999MW1021REMSYN072AAXX  16001 01047 41586 82203 11050 21080 39796 40178 57010 70272 8802/;
0247010470999992013021606004+69000+023033FM-12+0307ENKA V0209999C000010075019N0650001N1-00591-00781101551ADDAA112000021AA224000391AJ100809199999999AY171061AY221061GF108991081001008001021999IA1239KA1999N-00681MA1999999097731MD1710101+9999MW1021REMSYN100AAXX  16061 01047 11587 80000 11059 21078 39773 40155 57010 69912 70272 8802/ 333 21068 47080 70002;
0161010470999992013021609004+69000+023033FM-12+0307ENKA V0209999C000010075019N0060001N1-00601-00801101521ADDAY171031AY221031GF108991081001008001021999MA1999999097711MD1710031+9999MW1711REMSYN072AAXX  16091 01047 41556 80000 11060 21080 39771 40152 57003 77172 8802/;
0161010470999992013021612004+69000+023033FM-12+0307ENKA V0201801N005010075019N0600001N1-00621-01041101491ADDAY171061AY221061GF105991051051008001001001MA1999999097671MD1710031+9999MW1011REMSYN072AAXX  16121 01047 41586 51805 11062 21104 39767 40149 57003 70172 85500;
0161010470999992013021615004+69000+023033FM-12+0307ENKA V0202201N005010075019N0200001N1-01231-01561101491ADDAY171031AY211031GF108991081001008001021999MA1999999097651MD1710031+9999MW1711REMSYN072AAXX  16151 01047 41570 82205 11123 21156 39765 40149 57003 77171 8802/;
0201010470999992013021618004+69000+023033FM-12+0307ENKA V0202201N003010075019N0600001N1-01231-01471101441ADDAA112000021AY171061AY221061GF108991081001008001021999KA1999M-00451MA1999999097601MD1710041+9999MW1021REMSYN088AAXX  16181 01047 11586 82203 11123 21147 39760 40144 57004 69912 70272 8802/ 333 11045;
0161010470999992013021700004+69000+023033FM-12+0307ENKA V0201801N003010042019N0600001N1-01061-01311101441ADDAY121061AY221061GF108991081051004501999999MA1999999097611MD1210011+9999MW1021REMSYN072AAXX  17001 01047 41486 81803 11106 21131 39761 40144 52001 70222 885//;
0230010470999992013021706004+69000+023033FM-12+0307ENKA V0201801N001010042019N0650001N1-00951-01171101481ADDAA124000021AJ100809199999999AY121061AY221061GF108991081051004501999999IA1239KA1999N-01301MA1999999097661MD1210031+9999MW1021REMSYN094AAXX  17061 01047 31487 81801 11095 21117 39766 40148 52003 70222 885// 333 21130 47080 70001;
0161010470999992013021709004+69000+023033FM-12+0307ENKA V0202701N001010300019N0650001N1-00921-01141101581ADDAY121031AY221031GF106991031051008001031001MA1999999097751MD1310101+9999MW1021REMSYN072AAXX  17091 01047 41587 62701 11092 21114 39775 40158 53010 70222 83530;
0161010470999992013021712004+69000+023033FM-12+0307ENKA V0200501N003010300019N0300001N1-00701-01041101641ADDAY171061AY221061GF108991031051008001021999MA1999999097821MD1210071+9999MW1711REMSYN072AAXX  17121 01047 41580 80503 11070 21104 39782 40164 52007 77172 8352/;
0161010470999992013021715004+69000+023033FM-12+0307ENKA V0203601N005010075019N0300001N1-00941-01231101691ADDAY171031AY221031GF106991061001008001021001MA1999999097861MD1210051+9999MW1701REMSYN072AAXX  17151 01047 41580 63605 11094 21123 39786 40169 52005 77072 86020;
0201010470999992013021718004+69000+023033FM-12+0307ENKA V0203601N003010300019N0600001N1-00781-01061101781ADDAA112000021AY171061AY221061GF108991031051008001021999KA1999M-00621MA1999999097951MD1110091+9999MW1021REMSYN088AAXX  17181 01047 11586 83603 11078 21106 39795 40178 51009 69912 70272 8352/ 333 11062;
0161010470999992013021800004+69000+023033FM-12+0307ENKA V0203601N005010300019N0600001N1-00481-00641101991ADDAY171061AY221061GF108991041051004501021999MA1999999098171MD1210111+9999MW1021REMSYN072AAXX  18001 01047 41486 83605 11048 21064 39817 40199 52011 70272 8452/;
0247010470999992013021806004+69000+023033FM-12+0307ENKA V0203601N003010075019N0650001N1-00341-00681102211ADDAA112000391AA224000591AJ100789199999999AY171061AY221061GF108991081001008001021999IA1239KA1999N-00781MA1999999098371MD1310131+9999MW1021REMSYN100AAXX  18061 01047 11587 83603 11034 21068 39837 40221 53013 69932 70272 8802/ 333 21078 47078 70004;
0161010470999992013021809004+69000+023033FM-12+0307ENKA V0203601N003010075019N0650001N1-00321-00671102401ADDAY121031AY221031GF108991081051008001999999MA1999999098571MD1210191+9999MW1021REMSYN072AAXX  18091 01047 41587 83603 11032 21067 39857 40240 52019 70222 885//;
0161010470999992013021812004+69000+023033FM-12+0307ENKA V0200501N003010075019N0650001N1-00331-00901102521ADDAY121061AY221061GF108991081051008001999999MA1999999098671MD1210121+9999MW1021REMSYN072AAXX  18121 01047 41587 80503 11033 21090 39867 40252 52012 70222 885//;
0161010470999992013021815004+69000+023033FM-12+0307ENKA V0203601N003010300019N0650001N1-00641-01061102621ADDAY121031AY221031GF106991041051008001031001MA1999999098771MD1210091+9999MW1021REMSYN072AAXX  18151 01047 41587 63603 11064 21106 39877 40262 52009 70222 84530;
0194010470999992013021818004+69000+023033FM-12+0307ENKA V0201801N003012200019N0650001N1-01631-01891102781ADDAY121061AY201061GA1001+999999999GF100991001001999999001001KA1999M-00251MA1999999098871MD1210111+9999MW1011REMSYN076AAXX  18181 01047 31987 01803 11163 21189 39887 40278 52011 70120 333 11025;
0171010470999992013021900004+69000+023033FM-12+0307ENKA V0202201N003012200019N0600001N1-02401-02621102971ADDAY101061AY201061GA1001+999999999GF100991001001999999001001MA1999999099021MD1110031+9999MW1021REMSYN066AAXX  19001 01047 41986 02203 11240 21262 39902 40297 51003 70200;
0249010470999992013021906004+69000+023033FM-12+0307ENKA V0209999C000012200019N0600001N1-02761-03001103051ADDAA124000091AJ100789199999999AY101061AY201061GF103991001001999999001081IA1239KA1999N-02761MA1999999099071MD1210041+9999MW1021REMSYN094AAXX  19061 01047 31986 30000 11276 21300 39907 40305 52004 70200 80008 333 21276 47078 70000;EQDQ01  00002PRCP24
0161010470999992013021909004+69000+023033FM-12+0307ENKA V0202201N003010150019N0600001N1-02361-02611103091ADDAY121031AY221031GF106991061001017501071001MA1999999099131MD1010071+9999MW1031REMSYN072AAXX  19091 01047 41786 62203 11236 21261 39913 40309 50007 70322 86070;
0161010470999992013021912004+69000+023033FM-12+0307ENKA V0201801N001012200019N0600001N1-01951-02211103121ADDAY111061AY211061GF103991031001022501041001MA1999999099181MD1010041+9999MW1021REMSYN072AAXX  19121 01047 41886 31801 11195 21221 39918 40312 50004 70211 83040;
0161010470999992013021915004+69000+023033FM-12+0307ENKA V0201801N001012200019N0650001N1-02031-02341103111ADDAY101031AY201031GF102991001001999999001011MA1999999099171MD1710011+9999MW1021REMSYN072AAXX  19151 01047 41987 21801 11203 21234 39917 40311 57001 70200 80001;
0194010470999992013021918004+69000+023033FM-12+0307ENKA V0201801N001012200019N0650001N1-02361-02651103151ADDAY101061AY201061GA1001+999999999GF100991001001999999001001KA1999M-01781MA1999999099201MD1210021+9999MW1021REMSYN076AAXX  19181 01047 31987 01801 11236 21265 39920 40315 52002 70200 333 11178;
0161010470999992013022000004+69000+023033FM-12+0307ENKA V0201801N001012200019N0600001N1-02221-02471103151ADDAY101061AY201061GF103991001001999999001081MA1999999099211MD1510021+9999MW1021REMSYN072AAXX  20001 01047 41986 31801 11222 21247 39921 40315 55002 70200 80008;
0249010470999992013022006004+69000+023033FM-12+0307ENKA V0209999C000019999999N0650001N1-02651-02891103021ADDAA124000091AJ100789199999999AY111061AY201061GF105991001001999999001081IA1239KA1999N-02651MA1999999099061MD1710081+9999MW1021REMSYN094AAXX  20061 01047 31987 50000 11265 21289 39906 40302 57008 70210 80008 333 21265 47078 70000;EQDQ01  00002PRCP24
0161010470999992013022009004+69000+023033FM-12+0307ENKA V0209999C000010150019N0650001N1-02461-02721102791ADDAY121031AY221031GF106991061001017501071001MA1999999098851MD1810211+9999MW1031REMSYN072AAXX  20091 01047 41787 60000 11246 21272 39885 40279 58021 70322 86070;
0161010470999992013022012004+69000+023033FM-12+0307ENKA V0202201N005010150019N0650001N1-01281-01611102391ADDAY121061AY221061GF108991081001017501071999MA1999999098521MD1810331+9999MW1021REMSYN072AAXX  20121 01047 41787 82205 11128 21161 39852 40239 58033 70222 8807/;
0161010470999992013022015004+69000+023033FM-12+0307ENKA V0202201N005019999999N0650001N1-00961-01511102021ADDAY121031AY221031GF108991081001012501071999MA1999999098171MD1810351+9999MW1021REMSYN072AAXX  20151 01047 41687 82205 11096 21151 39817 40202 58035 70222 8807/;
0184010470999992013022018004+69000+023033FM-12+0307ENKA V0202201N007019999999N0650001N1-00481-01221101681ADDAY121061AY221061GF108991081001012501071999KA1999M-00401MA1999999097871MD1610291+9999MW1021REMSYN082AAXX  20181 01047 31687 82207 11048 21122 39787 40168 56029 70222 8807/ 333 11040;
0161010470999992013022100004+69000+023033FM-12+0307ENKA V0202201N007010150019N0600001N1-00081-00491101281ADDAY131061AY201061GF106991061001017501071001MA1999999097501MD1610141+9999MW1021REMSYN072AAXX  21001 01047 41786 62207 11008 21049 39750 40128 56014 70230 86070;
0247010470999992013022106004+69000+023033FM-12+0307ENKA V0203601N003010075019N0050001N1-00161-00291101411ADDAA112001091AA224001091AJ100799199999999AY171061AY231061GF108991081001008001021999IA1249KA1999N-00481MA1999999097621MD1210091+9999MW1701REMSYN100AAXX  21061 01047 11550 83603 11016 21029 39762 40141 52009 69992 77073 8802/ 333 21048 48079 70009;
0161010470999992013022109004+69000+023033FM-12+0307ENKA V0203601N003010075019N0030001N1-00351-00491101541ADDAY171031AY271031GF108991081001008001021999MA1999999097731MD1110121+9999MW1711REMSYN072AAXX  21091 01047 41530 83603 11035 21049 39773 40154 51012 77177 8802/;
0161010470999992013022112004+69000+023033FM-12+0307ENKA V0203601N001010075019N0100001N1-00381-00631101631ADDAY171061AY271061GF108991081001008001021999MA1999999097821MD1210081+9999MW1711REMSYN072AAXX  21121 01047 41560 83601 11038 21063 39782 40163 52008 77177 8802/;
0161010470999992013022115004+69000+023033FM-12+0307ENKA V0209999C000010300019N0200001N1-00531-00751101721ADDAY171031AY271031GF108991031051004501021999MA1999999097901MD1210081+9999MW1711REMSYN072AAXX  21151 01047 41470 80000 11053 21075 39790 40172 52008 77177 8352/;
0201010470999992013022118004+69000+023033FM-12+0307ENKA V0209999C000010300019N0600001N1-00941-01121101881ADDAA112001091AY171061AY221061GF106991021051004501021001KA1999M-00151MA1999999098031MD1210141+9999MW1011REMSYN088AAXX  21181 01047 11486 60000 11094 21112 39803 40188 52014 60012 70172 82520 333 11015;
0161010470999992013022200004+69000+023033FM-12+0307ENKA V0209999C000010075019N0650001N1-01421-01621102021ADDAY111061AY211061GF106991061051008001001001MA1999999098151MD1310031+9999MW1021REMSYN072AAXX  22001 01047 41587 60000 11142 21162 39815 40202 53003 70211 86500;
0230010470999992013022206004+69000+023033FM-12+0307ENKA V0209999C000010075019N0650001N1-01141-01311102211ADDAA124001591AJ100809199999999AY121061AY211061GF108991081001008001021999IA1249KA1999N-01821MA1999999098351MD1110111+9999MW1021REMSYN094AAXX  22061 01047 31587 80000 11114 21131 39835 40221 51011 70221 8802/ 333 21182 48080 70014;
0161010470999992013022209004+69000+023033FM-12+0307ENKA V0201801N001010075019N0500001N1-00981-01141102281ADDAY171031AY221031GF108991081051008001999999MA1999999098421MD1310081+9999MW1781REMSYN072AAXX  22091 01047 41584 81801 11098 21114 39842 40228 53008 77872 885//;
0161010470999992013022212004+69000+023033FM-12+0307ENKA V0201801N003010075019N0400001N1-00821-01031102181ADDAY171061AY221061GF108991081001008001021999MA1999999098321MD1810091+9999MW1701REMSYN072AAXX  22121 01047 41582 81803 11082 21103 39832 40218 58009 77072 8802/;
0161010470999992013022215004+69000+023033FM-12+0307ENKA V0202201N005010075019N0650001N1-00881-01081102031ADDAY171031AY221031GF108991081051008001999999MA1999999098181MD1810141+9999MW1021REMSYN072AAXX  22151 01047 41587 82205 11088 21108 39818 40203 58014 70272 885//;
0201010470999992013022218004+69000+023033FM-12+0307ENKA V0202201N005010150019N0650001N1-01021-01141101861ADDAA112000021AY171061AY221061GF106991061001017501071001KA1999M-00751MA1999999098021MD1710171+9999MW1021REMSYN088AAXX  22181 01047 11787 62205 11102 21114 39802 40186 57017 69912 70272 86070 333 11075;
0161010470999992013022300004+69000+023033FM-12+0307ENKA V0202201N005010150019N0650001N1-00281-00651101361ADDAY121061AY221061GF106991061001017501071001MA1999999097571MD1610191+9999MW1021REMSYN072AAXX  23001 01047 41787 62205 11028 21065 39757 40136 56019 70222 86070;
0230010470999992013022306004+69000+023033FM-12+0307ENKA V0202201N003010150019N0650001N1-00031-00331101081ADDAA124000021AJ100799199999999AY121061AY221061GF107991071001017501071001IA1249KA1999N-01021MA1999999097311MD1610141+9999MW1021REMSYN094AAXX  23061 01047 31787 72203 11003 21033 39731 40108 56014 70222 87070 333 21102 48079 70001;
0161010470999992013022309004+69000+023033FM-12+0307ENKA V0203201N007010075019N0600001N1+00111-00301101151ADDAY121031AY221031GF108991081001008001021999MA1999999097371MD1310071+9999MW1021REMSYN072AAXX  23091 01047 41586 83207 10011 21030 39737 40115 53007 70222 8802/;
0161010470999992013022312004+69000+023033FM-12+0307ENKA V0203201N003010075019N0600001N1-00021-00431101421ADDAY121061AY221061GF107991071051008001001001MA1999999097631MD1310281+9999MW1021REMSYN072AAXX  23121 01047 41586 73203 11002 21043 39763 40142 53028 70222 87500;
0161010470999992013022315004+69000+023033FM-12+0307ENKA V0209999C000010075019N0650001N1-00091-00501101561ADDAY121031AY221031GF108991081051008001999999MA1999999097771MD1310111+9999MW1221REMSYN072AAXX  23151 01047 41587 80000 11009 21050 39777 40156 53011 72222 885//;
0201010470999992013022318004+69000+023033FM-12+0307ENKA V0203201N003010075019N0400001N1-00181-00431101601ADDAA112000021AY171061AY221061GF108991081001008001021999KA1999M+00151MA1999999097801MD1010041+9999MW1701REMSYN088AAXX  23181 01047 11582 83203 11018 21043 39780 40160 50004 69902 77072 8802/ 333 10015;
0161010470999992013022400004+69000+023033FM-12+0307ENKA V0202201N005010075019N0650001N1-00281-00531101441ADDAY171061AY221061GF106991061051008001001001MA1999999097651MD1810151+9999MW1021REMSYN072AAXX  24001 01047 41587 62205 11028 21053 39765 40144 58015 70272 86500;
0230010470999992013022406004+69000+023033FM-12+0307ENKA V0202201N003010075019N0650001N1+00141-00311101101ADDAA124000021AJ100799199999999AY121061AY221061GF107991051051008001021001IA1249KA1999N-00431MA1999999097331MD1610081+9999MW1021REMSYN094AAXX  24061 01047 31587 72203 10014 21031 39733 40110 56008 70222 85520 333 21043 48079 79999;
0161010470999992013022409004+69000+023033FM-12+0307ENKA V0202201N003010300019N0650001N1+00211-00301101161ADDAY121031AY221031GF106991021051008001071001MA1999999097401MD1310061+9999MW1021REMSYN072AAXX  24091 01047 41587 62203 10021 21030 39740 40116 53006 70222 82570;
0161010470999992013022412004+69000+023033FM-12+0307ENKA V0202201N003010075019N0650001N1+00281-00271101291ADDAY121061AY221061GF106991061051008001001001MA1999999097531MD1210141+9999MW1021REMSYN072AAXX  24121 01047 41587 62203 10028 21027 39753 40129 52014 70222 86500;
0161010470999992013022415004+69000+023033FM-12+0307ENKA V0203201N005010300019N0650001N1+00121-00381101491ADDAY121031AY221031GF105991041041008001071001MA1999999097711MD1310161+9999MW1021REMSYN072AAXX  24151 01047 41587 53205 10012 21038 39771 40149 53016 70222 84470;
0184010470999992013022418004+69000+023033FM-12+0307ENKA V0202701N005012200019N0650001N1-00061-00441101741ADDAY111061AY211061GF104991041051008001001001KA1999M+00351MA1999999097931MD1110221+9999MW1021REMSYN082AAXX  24181 01047 41587 42705 11006 21044 39793 40174 51022 70211 84500 333 10035;
0161010470999992013022500004+69000+023033FM-12+0307ENKA V0202201N005010150019N0650001N1-00781-00901101871ADDAY121061AY221061GF106991061001017501071001MA1999999098031MD1710051+9999MW1021REMSYN072AAXX  25001 01047 41787 62205 11078 21090 39803 40187 57005 70222 86070;
0213010470999992013022506004+69000+023033FM-12+0307ENKA V0202201N005010150019N0700001N1+00211-00201101721ADDAJ100779199999999AY121061AY221061GF107991051001017501071011IA1239KA1999N-00781MA1999999097931MD1810061+9999MW1021REMSYN088AAXX  25061 01047 31788 72205 10021 21020 39793 40172 58006 70222 85071 333 21078 47077;
0161010470999992013022509004+69000+023033FM-12+0307ENKA V0202201N007010150019N0700001N1+00151-00321101731ADDAY121031AY221031GF108991081001017501071999MA1999999097931MD1810011+9999MW1021REMSYN072AAXX  25091 01047 41788 82207 10015 21032 39793 40173 58001 70222 8807/;
0165010470999992013022512004+69000+023033FM-12+0307ENKA V0202201N007010150019N0700001N1+00181-00401999999ADDAY121061AY221061GF107991071001017501071001MD1810071+9999MW1021REMSYN072AAXX  25121 01047 41788 72207 10018 21040 39877 40258 58007 70222 87070;EQDQ01+098773APOSP 
0161010470999992013022515004+69000+023033FM-12+0307ENKA V0202201N007010150019N0700001N1+00021-00441101481ADDAY121031AY221031GF107991071001017501041001MA1999999097701MD1810161+9999MW1021REMSYN072AAXX  25151 01047 41788 72207 10002 21044 39770 40148 58016 70222 87040;
0184010470999992013022518004+69000+023033FM-12+0307ENKA V0201801N005010150019N0700001N1+00101-00361101261ADDAY121061AY221061GF106991061001017501071001KA1999M+00401MA1999999097481MD1810211+9999MW1021REMSYN082AAXX  25181 01047 31788 61805 10010 21036 39748 40126 58021 70222 86070 333 10040;
0180010470999992013022600004+69000+023033FM-12+0307ENKA V0202201N007010075019N0650001N1+00181-00331100272ADDAY121061AY221061GF108991081001008001021999MA1999999096532MD1810552+9999MW1021REMSYN072AAXX  26001 01047 41587 82207 10018 21033 39653 40027 58055 70222 8802/;EQDQ01+096533APOSP 
0249010470999992013022606004+69000+023033FM-12+0307ENKA V0202201N007010300019N0650001N1+00221-00271099951ADDAA124000091AJ100759199999999AY121061AY211061GF106991021041008001071001IA1279KA1999N+00101MA1999999096231MD1310081+9999MW1021REMSYN094AAXX  26061 01047 31587 62207 10022 21027 39623 49995 53008 70221 82470 333 20010 43075 70000;EQDQ01  00002PRCP24
0161010470999992013022609004+69000+023033FM-12+0307ENKA V0203201N007012200019N0700001N1-00151-00571100781ADDAY111031AY211031GF104991031041008001041001MA1999999097021MD1110771+9999MW1021REMSYN072AAXX  26091 01047 41588 43207 11015 21057 39702 40078 51077 70211 83440;
0161010470999992013022612004+69000+023033FM-12+0307ENKA V0203201N005010300019N0650001N1-00201-00641101351ADDAY111061AY211061GF105991021041008001041001MA1999999097561MD1310541+9999MW1021REMSYN072AAXX  26121 01047 41587 53205 11020 21064 39756 40135 53054 70211 82440;
0161010470999992013022615004+69000+023033FM-12+0307ENKA V0203201N007010300019N0650001N1-00301-00721101671ADDAY111031AY211031GF105991041051008001041001MA1999999097871MD1110311+9999MW1021REMSYN072AAXX  26151 01047 41587 53207 11030 21072 39787 40167 51031 70211 84540;
0184010470999992013022618004+69000+023033FM-12+0307ENKA V0203201N005012200019N0650001N1-00581-00961101891ADDAY111061AY211061GF104991041001017501071001KA1999M+00251MA1999999098071MD1310211+9999MW1021REMSYN082AAXX  26181 01047 31787 43205 11058 21096 39807 40189 53021 70211 84070 333 10025;
0161010470999992013022700004+69000+023033FM-12+0307ENKA V0201401N005010075019N0650001N1-00781-01081102011ADDAY121061AY221061GF108991081051008001999999MA1999999098171MD1810051+9999MW1021REMSYN072AAXX  27001 01047 41587 81405 11078 21108 39817 40201 58005 70222 885//;
0247010470999992013022706004+69000+023033FM-12+0307ENKA V0209999C000010075019N0030001N1-00721-00841101241ADDAA112002091AA224002391AJ100789199999999AY171061AY221061GF108991081001008001021999IA1239KA1999N-00901MA1999999097421MD1810441+9999MW1701REMSYN100AAXX  27061 01047 11530 80000 11072 21084 39742 40124 58044 60022 77072 8802/ 333 21090 47078 70024;
0161010470999992013022709004+69000+023033FM-12+0307ENKA V0201801N007010075019N0040001N1-00541-00661100711ADDAY171031AY271031GF108991081001008001021999MA1999999096921MD1810511+9999MW1711REMSYN072AAXX  27091 01047 41540 81807 11054 21066 39692 40071 58051 77177 8802/;
0161010470999992013022712004+69000+023033FM-12+0307ENKA V0201801N007010300019N0650001N1-00421-00711100271ADDAY171061AY221061GF106991041051008001071001MA1999999096511MD1810431+9999MW1021REMSYN072AAXX  27121 01047 41587 61807 11042 21071 39651 40027 58043 70272 84570;
0161010470999992013022715004+69000+023033FM-12+0307ENKA V0201601N005012200019N0650001N1-00461-00751100071ADDAY121031AY221031GF102991021051008001001001MA1999999096321MD1710201+9999MW1011REMSYN072AAXX  27151 01047 41587 21605 11046 21075 39632 40007 57020 70122 82500;
0201010470999992013022718004+69000+023033FM-12+0307ENKA V0202201N005010075019N0650001N1-00231-00341099961ADDAA112002091AY111061AY211061GF105991051051008001001001KA1999M-00231MA1999999096221MD1810101+9999MW1031REMSYN088AAXX  27181 01047 11587 52205 11023 21034 39622 49996 58010 60022 70311 85500 333 11023;
0230010470999992013022806004+69000+023033FM-12+0307ENKA V0209999C000010120019N0650001N1-00671-00751099641ADDAA124002091AJ100789199999999AY121061AY221061GF108991081001012501021999IA1239KA1999N-01301MA1999999095901MD1810141+9999MW1021REMSYN094AAXX  28061 01047 31687 80000 11067 21075 39590 49964 58014 70222 8802/ 333 21130 47078 70020;
0161010470999992013022809004+69000+023033FM-12+0307ENKA V0203201N005010075019N0030001N1-00601-00671099591ADDAY171031AY221031GF108991081001008001021999MA1999999095851MD1610051+9999MW1711REMSYN072AAXX  28091 01047 41530 83205 11060 21067 39585 49959 56005 77172 8802/;
