0171010460999992013010100004+69783+020950FM-12+0005ENSR V0201501N007012200019N0750001N1-00461-00811098881ADDAY101061AY201061GF103991001001999999001051MA1999999098811MD1710041+9999MW1031REMSYN082AAXX  01001 01046 41989 31507 11046 21081 39881 49888 57004 70300 80005 333 91112;
0101010460999992013010101004+69783+020950FM-12+0005ENSR V0201701N003019999999N9999999N1-00451-00851098851ADDMA1999999098771MD1810061+9999REMSYN060AAXX  01011 01046 46/// /1703 11045 21085 39877 49885 58006;
0101010460999992013010102004+69783+020950FM-12+0005ENSR V0201601N005019999999N9999999N1-00201-00641098801ADDMA1999999098731MD1810101+9999REMSYN060AAXX  01021 01046 46/// /1605 11020 21064 39873 49880 58010;
0101010460999992013010103004+69783+020950FM-12+0005ENSR V0201401N006019999999N9999999N1-00141-00601098791ADDMA1999999098721MD1710091+9999REMSYN060AAXX  01031 01046 46/// /1406 11014 21060 39872 49879 57009;
0101010460999992013010104004+69783+020950FM-12+0005ENSR V0201401N008019999999N9999999N1-00111-00531098791ADDMA1999999098721MD1510061+9999REMSYN060AAXX  01041 01046 46/// /1408 11011 21053 39872 49879 55006;
0101010460999992013010105004+69783+020950FM-12+0005ENSR V0200901N006019999999N9999999N1-00031-00471098821ADDMA1999999098751MD1310021+9999REMSYN060AAXX  01051 01046 46/// /0906 11003 21047 39875 49882 53002;
0288010460999992013010106004+69783+020950FM-12+0005ENSR V0201601N005012200019N0750001N1-00111-00551098861ADDAA112000091AA224000091AJ100109199999999AY121061AY211061GF105991031001022501041081IA1289KA1999N-00591MA1999999098791MD1310071+9999MW1031REMSYN106AAXX  01061 01046 11889 51605 11011 21055 39879 49886 53007 60002 70321 83048 333 21059 44010 70000 91112;EQDQ01  00002PRCP24Q02  00002PRCP12
0101010460999992013010107004+69783+020950FM-12+0005ENSR V0201501N005019999999N9999999N1-00061-00571098851ADDMA1999999098781MD1010071+9999REMSYN060AAXX  01071 01046 46/// /1505 11006 21057 39878 49885 50007;
0101010460999992013010108004+69783+020950FM-12+0005ENSR V0201401N006019999999N9999999N1+00001-00551098861ADDMA1999999098791MD1210041+9999REMSYN060AAXX  01081 01046 46/// /1406 10000 21055 39879 49886 52004;
0101010460999992013010109004+69783+020950FM-12+0005ENSR V0201601N006019999999N9999999N1-00011-00521098881ADDMA1999999098811MD1310031+9999REMSYN060AAXX  01091 01046 46/// /1606 11001 21052 39881 49888 53003;
0101010460999992013010110004+69783+020950FM-12+0005ENSR V0201301N007019999999N9999999N1-00041-00501098911ADDMA1999999098831MD1210051+9999REMSYN060AAXX  01101 01046 46/// /1307 11004 21050 39883 49891 52005;
0101010460999992013010111004+69783+020950FM-12+0005ENSR V0201801N003019999999N9999999N1-00131-00591098961ADDMA1999999098881MD1310091+9999REMSYN060AAXX  01111 01046 46/// /1803 11013 21059 39888 49896 53009;
0171010460999992013010112004+69783+020950FM-12+0005ENSR V0201701N004012200019N0750001N1-00091-00511098981ADDAY121061AY211061GF103991021001022501041021MA1999999098911MD1210091+9999MW1011REMSYN082AAXX  01121 01046 41889 31704 11009 21051 39891 49898 52009 70121 82042 333 91110;
0101010460999992013010113004+69783+020950FM-12+0005ENSR V0202001N002019999999N9999999N1-00151-00621099001ADDMA1999999098921MD1210091+9999REMSYN060AAXX  01131 01046 46/// /2002 11015 21062 39892 49900 52009;
0101010460999992013010114004+69783+020950FM-12+0005ENSR V0202101N003019999999N9999999N1-00221-00741099041ADDMA1999999098971MD1310091+9999REMSYN060AAXX  01141 01046 46/// /2103 11022 21074 39897 49904 53009;
0101010460999992013010115004+69783+020950FM-12+0005ENSR V0202001N002019999999N9999999N1-00211-00731099101ADDMA1999999099031MD1310121+9999REMSYN060AAXX  01151 01046 46/// /2002 11021 21073 39903 49910 53012;
0106010460999992013010115504+69783+020950FM-15+0005ENSR V0202101N002619999999Y0099001N1-00201-00801999999ADDMA1099091999999REMMET079METAR ENSR 011550Z 21005KT 170V250 CAVOK M02/M08 Q0991 RMK WIND 1119FT 15011KT;
0101010460999992013010116004+69783+020950FM-12+0005ENSR V0202001N003019999999N9999999N1-00181-00701099151ADDMA1999999099071MD1210151+9999REMSYN060AAXX  01161 01046 46/// /2003 11018 21070 39907 49915 52015;
0106010460999992013010116504+69783+020950FM-15+0005ENSR V0202101N002119999999Y0099001N1-00101-00701999999ADDMA1099091999999REMMET079METAR ENSR 011650Z 21004KT 140V250 CAVOK M01/M07 Q0991 RMK WIND 1119FT 15013KT;
0101010460999992013010117004+69783+020950FM-12+0005ENSR V0201801N002019999999N9999999N1-00191-00681099161ADDMA1999999099091MD1210121+9999REMSYN060AAXX  01171 01046 46/// /1802 11019 21068 39909 49916 52012;
0098010460999992013010117504+69783+020950FM-15+0005ENSR V0202001N002619999999Y0099001N1-00301-00801999999ADDMA1099091999999REMMET071METAR ENSR 011750Z 20005KT CAVOK M03/M08 Q0991 RMK WIND 1119FT 14010KT;
0226010460999992013010118004+69783+020950FM-12+0005ENSR V0202101N002012200019N0750001N1-00311-00781099201ADDAA112000091AY111061AY211061GF103991031001022501041001KA1120M+00021MA1999999099131MD1210101+9999MW1021REMSYN094AAXX  01181 01046 11889 32102 11031 21078 39913 49920 52010 60002 70211 83040 333 10002 91106;EQDQ01  00002PRCP12
0101010460999992013010119004+69783+020950FM-12+0005ENSR V0201901N002019999999N9999999N1-00301-00781099221ADDMA1999999099151MD1210071+9999REMSYN060AAXX  01191 01046 46/// /1902 11030 21078 39915 49922 52007;
0101010460999992013010120004+69783+020950FM-12+0005ENSR V0202001N002019999999N9999999N1-00341-00841099281ADDMA1999999099211MD1310131+9999REMSYN060AAXX  01201 01046 46/// /2002 11034 21084 39921 49928 53013;
0101010460999992013010121004+69783+020950FM-12+0005ENSR V0201901N001019999999N9999999N1-00371-00741099321ADDMA1999999099251MD1310121+9999REMSYN060AAXX  01211 01046 46/// /1901 11037 21074 39925 49932 53012;
0101010460999992013010122004+69783+020950FM-12+0005ENSR V0201601N001019999999N9999999N1-00371-00801099351ADDMA1999999099281MD1210141+9999REMSYN060AAXX  01221 01046 46/// /1601 11037 21080 39928 49935 52014;
0101010460999992013010123004+69783+020950FM-12+0005ENSR V0201401N002019999999N9999999N1-00401-00651099391ADDMA1999999099321MD1210101+9999REMSYN060AAXX  01231 01046 46/// /1402 11040 21065 39932 49939 52010;
0171010460999992013010200004+69783+020950FM-12+0005ENSR V0201301N001012200019N0750001N1-00721-00911099431ADDAY111061AY201061GF102991001001999999001021MA1999999099351MD1210101+9999MW1011REMSYN082AAXX  02001 01046 41989 21301 11072 21091 39935 49943 52010 70110 80002 333 91106;
0101010460999992013010201004+69783+020950FM-12+0005ENSR V0201301N002019999999N9999999N1-00831-00961099461ADDMA1999999099391MD1210111+9999REMSYN060AAXX  02011 01046 46/// /1302 11083 21096 39939 49946 52011;
0101010460999992013010202004+69783+020950FM-12+0005ENSR V0200801N001019999999N9999999N1-00931-01061099491ADDMA1999999099421MD1210101+9999REMSYN060AAXX  02021 01046 46/// /0801 11093 21106 39942 49949 52010;
0098010460999992013010202504+69783+020950FM-15+0005ENSR V0201501N002119999999Y0099001N1-00901-01001999999ADDMA1099491999999REMMET071METAR ENSR 020250Z 15004KT CAVOK M09/M10 Q0995 RMK WIND 1119FT 14007KT;
0101010460999992013010203004+69783+020950FM-12+0005ENSR V0209999C000019999999N9999999N1-00931-01071099521ADDMA1999999099451MD1210101+9999REMSYN060AAXX  02031 01046 46/// /0000 11093 21107 39945 49952 52010;
0098010460999992013010203504+69783+020950FM-15+0005ENSR V0209999V001019999999Y0099001N1-00801-00901999999ADDMA1099491999999REMMET071METAR ENSR 020350Z VRB02KT CAVOK M08/M09 Q0995 RMK WIND 1119FT 14007KT;
0101010460999992013010204004+69783+020950FM-12+0005ENSR V0200101N001019999999N9999999N1-00851-00961099541ADDMA1999999099471MD1210081+9999REMSYN060AAXX  02041 01046 46/// /0101 11085 21096 39947 49954 52008;
0101010460999992013010205004+69783+020950FM-12+0005ENSR V0209999C000019999999N9999999N1-00881-00971099571ADDMA1999999099501MD1210081+9999REMSYN060AAXX  02051 01046 46/// /0000 11088 21097 39950 49957 52008;
0098010460999992013010205504+69783+020950FM-15+0005ENSR V0202901N001019999999Y0099001N1-00801-00901999999ADDMA1099591999999REMMET071METAR ENSR 020550Z 29002KT CAVOK M08/M09 Q0996 RMK WIND 1119FT 13005KT;
0288010460999992013010206004+69783+020950FM-12+0005ENSR V0202901N001012200019N0750001N1-00771-00851099631ADDAA112000091AA224000091AJ100109199999999AY101061AY201061GF102991001001999999001021IA1289KA1999N-00991MA1999999099551MD1310101+9999MW1021REMSYN106AAXX  02061 01046 11989 22901 11077 21085 39955 49963 53010 60002 70200 80002 333 21099 44010 70000 91103;EQDQ01  00002PRCP24Q02  00002PRCP12
0098010460999992013010206504+69783+020950FM-15+0005ENSR V0209999V001019999999Y0099001N1-00701-00801999999ADDMA1099591999999REMMET071METAR ENSR 020650Z VRB02KT CAVOK M07/M08 Q0996 RMK WIND 1119FT 12004KT;
0101010460999992013010207004+69783+020950FM-12+0005ENSR V0202601N001019999999N9999999N1-00761-00891099671ADDMA1999999099601MD1210131+9999REMSYN060AAXX  02071 01046 46/// /2601 11076 21089 39960 49967 52013;
0098010460999992013010207504+69783+020950FM-15+0005ENSR V0202401N001019999999Y0099001N1-01001-01201999999ADDMA1099591999999REMMET071METAR ENSR 020750Z 24002KT CAVOK M10/M12 Q0996 RMK WIND 1119FT 12003KT;
0101010460999992013010208004+69783+020950FM-12+0005ENSR V0202701N001019999999N9999999N1-00981-01111099711ADDMA1999999099631MD1010131+9999REMSYN060AAXX  02081 01046 46/// /2701 11098 21111 39963 49971 50013;
0098010460999992013010208504+69783+020950FM-15+0005ENSR V0209999V000519999999Y0099001N1-00901-01101999999ADDMA1099701999999REMMET071METAR ENSR 020850Z VRB01KT CAVOK M09/M11 Q0997 RMK WIND 1119FT 24004KT;
0101010460999992013010209004+69783+020950FM-12+0005ENSR V0209999C000019999999N9999999N1-00981-01121099771ADDMA1999999099691MD1210141+9999REMSYN060AAXX  02091 01046 46/// /0000 11098 21112 39969 49977 52014;
0098010460999992013010209504+69783+020950FM-15+0005ENSR V0202701N001019999999Y0099001N1-01001-01101999999ADDMA1099701999999REMMET071METAR ENSR 020950Z 27002KT CAVOK M10/M11 Q0997 RMK WIND 1119FT VRB01KT;
0101010460999992013010210004+69783+020950FM-12+0005ENSR V0202701N001019999999N9999999N1-01011-01151099781ADDMA1999999099701MD1210101+9999REMSYN060AAXX  02101 01046 46/// /2701 11101 21115 39970 49978 52010;
0098010460999992013010210504+69783+020950FM-15+0005ENSR V0202601N001019999999Y0099001N1-00801-00801999999ADDMA1099801999999REMMET071METAR ENSR 021050Z 26002KT CAVOK M08/M08 Q0998 RMK WIND 1119FT VRB01KT;
0101010460999992013010211004+69783+020950FM-12+0005ENSR V0202701N001019999999N9999999N1-00951-01121099821ADDMA1999999099751MD1210111+9999REMSYN060AAXX  02111 01046 46/// /2701 11095 21112 39975 49982 52011;
0171010460999992013010212004+69783+020950FM-12+0005ENSR V0202801N001012200019N0750001N1-01071-01231099841ADDAY121061AY211061GF104991021001022501041021MA1999999099771MD1210081+9999MW1031REMSYN082AAXX  02121 01046 41889 42801 11107 21123 39977 49984 52008 70321 82042 333 91102;
0098010460999992013010212504+69783+020950FM-15+0005ENSR V0201501N001519999999Y0099001N1-01001-01101999999ADDMA1099801999999REMMET071METAR ENSR 021250Z 15003KT CAVOK M10/M11 Q0998 RMK WIND 1119FT VRB01KT;
0101010460999992013010213004+69783+020950FM-12+0005ENSR V0201601N001019999999N9999999N1-00961-01051099881ADDMA1999999099801MD1210101+9999REMSYN060AAXX  02131 01046 46/// /1601 11096 21105 39980 49988 52010;
0101010460999992013010214004+69783+020950FM-12+0005ENSR V0201501N001019999999N9999999N1-00971-01081099891ADDMA1999999099821MD1210071+9999REMSYN060AAXX  02141 01046 46/// /1501 11097 21108 39982 49989 52007;
0146010460999992013010214504+69783+020950FM-15+0005ENSR V0209999V001010096019N0112651N1-00801-00901999999ADDGA1071+009601999GF107991999999999999999999MA1099901999999REMMET077METAR ENSR 021450Z VRB02KT 9999 BKN032 M08/M09 Q0999 RMK WIND 1119FT 12007KT;
0101010460999992013010215004+69783+020950FM-12+0005ENSR V0202401N001019999999N9999999N1-00751-00851099911ADDMA1999999099831MD1210071+9999REMSYN060AAXX  02151 01046 46/// /2401 11075 21085 39983 49991 52007;
0146010460999992013010215504+69783+020950FM-15+0005ENSR V0201601N003610099019N0112651N1-00601-00901999999ADDGA1071+009901999GF107991999999999999999999MA1099901999999REMMET077METAR ENSR 021550Z 16007KT 9999 BKN033 M06/M09 Q0999 RMK WIND 1119FT 14004KT;
0101010460999992013010216004+69783+020950FM-12+0005ENSR V0201601N003019999999N9999999N1-00571-00831099911ADDMA1999999099831MD1210031+9999REMSYN060AAXX  02161 01046 46/// /1603 11057 21083 39983 49991 52003;
0146010460999992013010216504+69783+020950FM-15+0005ENSR V0209999V001510099019N0112651N1-00601-00901999999ADDGA1071+009901999GF107991999999999999999999MA1099801999999REMMET077METAR ENSR 021650Z VRB03KT 9999 BKN033 M06/M09 Q0998 RMK WIND 1119FT 12005KT;
0101010460999992013010217004+69783+020950FM-12+0005ENSR V0202201N001019999999N9999999N1-00551-00811099891ADDMA1999999099811MD1010011+9999REMSYN060AAXX  02171 01046 46/// /2201 11055 21081 39981 49989 50001;
0146010460999992013010217504+69783+020950FM-15+0005ENSR V0209999V002110102019N0112651N1-00401-00801999999ADDGA1071+010201999GF107991999999999999999999MA1099801999999REMMET077METAR ENSR 021750Z VRB04KT 9999 BKN034 M04/M08 Q0998 RMK WIND 1119FT 13007KT;
0136010460999992013010218004+69783+020950FM-12+0005ENSR V0201801N002019999999N9999999N1-00411-00761099871ADDKA1120M-00391MA1999999099801MD1710041+9999REMSYN082AAXX  02181 01046 16/// /1802 11041 21076 39980 49987 57004 6//// 333 11039 91106;
0101010460999992013010219004+69783+020950FM-12+0005ENSR V0201501N004019999999N9999999N1-00381-00761099881ADDMA1999999099801MD1710031+9999REMSYN060AAXX  02191 01046 46/// /1504 11038 21076 39980 49988 57003;
0101010460999992013010220004+69783+020950FM-12+0005ENSR V0201501N005019999999N9999999N1-00281-00731099861ADDMA1999999099791MD1710031+9999REMSYN060AAXX  02201 01046 46/// /1505 11028 21073 39979 49986 57003;
0101010460999992013010221004+69783+020950FM-12+0005ENSR V0201901N002019999999N9999999N1-00421-00741099881ADDMA1999999099801MD1410001+9999REMSYN060AAXX  02211 01046 46/// /1902 11042 21074 39980 49988 54001;
0101010460999992013010222004+69783+020950FM-12+0005ENSR V0201001N002019999999N9999999N1-00331-00701099851ADDMA1999999099781MD1710021+9999REMSYN060AAXX  02221 01046 46/// /1002 11033 21070 39978 49985 57002;
0101010460999992013010223004+69783+020950FM-12+0005ENSR V0201301N004019999999N9999999N1-00451-00721099821ADDMA1999999099741MD1810041+9999REMSYN060AAXX  02231 01046 46/// /1304 11045 21072 39974 49982 58004;
0171010460999992013010300004+69783+020950FM-12+0005ENSR V0201501N004010210019N0750001N1-00161-00581099761ADDAY121061AY221061GF108991081001022501011999MA1999999099691MD1810111+9999MW1021REMSYN082AAXX  03001 01046 41889 81504 11016 21058 39969 49976 58011 70222 8801/ 333 91107;
0101010460999992013010301004+69783+020950FM-12+0005ENSR V0201301N008019999999N9999999N1-00211-00611099711ADDMA1999999099641MD1710141+9999REMSYN060AAXX  03011 01046 46/// /1308 11021 21061 39964 49971 57014;
0101010460999992013010302004+69783+020950FM-12+0005ENSR V0201301N006019999999N9999999N1-00171-00571099681ADDMA1999999099611MD1710131+9999REMSYN060AAXX  03021 01046 46/// /1306 11017 21057 39961 49968 57013;
0101010460999992013010303004+69783+020950FM-12+0005ENSR V0201301N006019999999N9999999N1-00161-00581099641ADDMA1999999099571MD1710121+9999REMSYN060AAXX  03031 01046 46/// /1306 11016 21058 39957 49964 57012;
0101010460999992013010304004+69783+020950FM-12+0005ENSR V0201501N005019999999N9999999N1-00131-00551099621ADDMA1999999099551MD1710091+9999REMSYN060AAXX  03041 01046 46/// /1505 11013 21055 39955 49962 57009;
0101010460999992013010305004+69783+020950FM-12+0005ENSR V0201401N007019999999N9999999N1-00171-00591099561ADDMA1999999099491MD1810121+9999REMSYN060AAXX  03051 01046 46/// /1407 11017 21059 39949 49956 58012;
0288010460999992013010306004+69783+020950FM-12+0005ENSR V0201601N002010750019N0750001N1-00191-00631099521ADDAA112000091AA224000091AJ100109199999999AY121061AY221061GF105991041001022501041021IA1289KA1999N-00531MA1999999099451MD1810121+9999MW1011REMSYN106AAXX  03061 01046 11889 51602 11019 21063 39945 49952 58012 60002 70122 84042 333 21053 44010 70000 91110;EQDQ01  00002PRCP24Q02  00002PRCP12
0146010460999992013010306084+69783+020950FM-15+0005ENSR V0201701N003612200019N0112651N1-00201-00701999999ADDGA1041+015001999GF104991999999999999999999MA1099491999999REMMET077METAR ENSR 030608Z 17007KT 9999 SCT050 M02/M07 Q0995 RMK WIND 1119FT 15008KT;
0146010460999992013010306504+69783+020950FM-15+0005ENSR V0201801N003110141019N0112651N1-00201-00701999999ADDGA1071+014101999GF107991999999999999999999MA1099491999999REMMET077METAR ENSR 030650Z 18006KT 9999 BKN047 M02/M07 Q0995 RMK WIND 1119FT 14008KT;
0146010460999992013010307504+69783+020950FM-15+0005ENSR V0201501N006710138019N0112651N1-00201-00701999999ADDGA1071+013801999GF107991999999999999999999MA1099391999999REMMET077METAR ENSR 030750Z 15013KT 9999 BKN046 M02/M07 Q0994 RMK WIND 1119FT 13009KT;
0101010460999992013010308004+69783+020950FM-12+0005ENSR V0201401N007019999999N9999999N1-00241-00631099511ADDMA1999999099431MD1610061+9999REMSYN060AAXX  03081 01046 46/// /1407 11024 21063 39943 49951 56006;
0146010460999992013010308504+69783+020950FM-15+0005ENSR V0201601N004610144019N0112651N1-00201-00701999999ADDGA1071+014401999GF107991999999999999999999MA1099391999999REMMET077METAR ENSR 030850Z 16009KT 9999 BKN048 M02/M07 Q0994 RMK WIND 1119FT 14013KT;
0101010460999992013010309004+69783+020950FM-12+0005ENSR V0201501N005019999999N9999999N1-00191-00661099501ADDMA1999999099431MD1710021+9999REMSYN060AAXX  03091 01046 46/// /1505 11019 21066 39943 49950 57002;
0146010460999992013010309504+69783+020950FM-15+0005ENSR V0201501N007710144019N0112651N1-00301-00801999999ADDGA1071+014401999GF107991999999999999999999MA1099391999999REMMET077METAR ENSR 030950Z 15015KT 9999 BKN048 M03/M08 Q0994 RMK WIND 1119FT 13010KT;
0101010460999992013010310004+69783+020950FM-12+0005ENSR V0201401N008019999999N9999999N1-00331-00711099481ADDMA1999999099411MD1710041+9999REMSYN060AAXX  03101 01046 46/// /1408 11033 21071 39941 49948 57004;
0146010460999992013010310504+69783+020950FM-15+0005ENSR V0201501N006212200019N0112651N1-00401-00801999999ADDGA1041+014101999GF104991999999999999999999MA1099391999999REMMET077METAR ENSR 031050Z 15012KT 9999 SCT047 M04/M08 Q0994 RMK WIND 1119FT 14010KT;
0101010460999992013010311004+69783+020950FM-12+0005ENSR V0201601N005019999999N9999999N1-00361-00731099501ADDMA1999999099431MD1510001+9999REMSYN060AAXX  03111 01046 46/// /1605 11036 21073 39943 49950 55000;
0157010460999992013010311504+69783+020950FM-15+0005ENSR V0201701N004610141019N0112651N1-00401-00801999999ADDGA1071+014101999GF107991999999999999999999MA1099491999999OC100981REMMET080METAR ENSR 031150Z 17009G19KT 9999 BKN047 M04/M08 Q0995 RMK WIND 1119FT 14011KT;
0171010460999992013010312004+69783+020950FM-12+0005ENSR V0201401N008010210019N0750001N1-00351-00781099521ADDAY121061AY221061GF107991071001022501071001MA1999999099451MD1310021+9999MW1031REMSYN082AAXX  03121 01046 41889 71408 11035 21078 39945 49952 53002 70322 87070 333 91112;
0146010460999992013010312504+69783+020950FM-15+0005ENSR V0201501N007710135019N0112651N1-00401-00901999999ADDGA1071+013501999GF107991999999999999999999MA1099491999999REMMET077METAR ENSR 031250Z 15015KT 9999 BKN045 M04/M09 Q0995 RMK WIND 1119FT 14009KT;
0101010460999992013010313004+69783+020950FM-12+0005ENSR V0201501N007019999999N9999999N1-00431-00831099551ADDMA1999999099471MD1210061+9999REMSYN060AAXX  03131 01046 46/// /1507 11043 21083 39947 49955 52006;
0146010460999992013010313504+69783+020950FM-15+0005ENSR V0201501N008212200019N0112651N1-00501-00901999999ADDGA1041+012901999GF104991999999999999999999MA1099491999999REMMET077METAR ENSR 031350Z 15016KT 9999 SCT043 M05/M09 Q0995 RMK WIND 1119FT 13010KT;
0101010460999992013010314004+69783+020950FM-12+0005ENSR V0201401N009019999999N9999999N1-00511-00891099561ADDMA1999999099481MD1210051+9999REMSYN060AAXX  03141 01046 46/// /1409 11051 21089 39948 49956 52005;
0146010460999992013010314504+69783+020950FM-15+0005ENSR V0201501N008710135019N0112651N1-00501-01001999999ADDGA1071+013501999GF107991999999999999999999MA1099491999999REMMET077METAR ENSR 031450Z 15017KT 9999 BKN045 M05/M10 Q0995 RMK WIND 1119FT 14013KT;
0101010460999992013010315004+69783+020950FM-12+0005ENSR V0201401N009019999999N9999999N1-00561-00921099581ADDMA1999999099501MD1210061+9999REMSYN060AAXX  03151 01046 46/// /1409 11056 21092 39950 49958 52006;
0146010460999992013010315504+69783+020950FM-15+0005ENSR V0201501N008710129019N0112651N1-00601-01001999999ADDGA1071+012901999GF107991999999999999999999MA1099491999999REMMET077METAR ENSR 031550Z 15017KT 9999 BKN043 M06/M10 Q0995 RMK WIND 1119FT 14010KT;
0101010460999992013010316004+69783+020950FM-12+0005ENSR V0201401N010019999999N9999999N1-00561-00921099611ADDMA1999999099541MD1210061+9999REMSYN060AAXX  03161 01046 46/// /1410 11056 21092 39954 49961 52006;
0146010460999992013010316504+69783+020950FM-15+0005ENSR V0201501N008210129019N0112651N1-00601-01001999999ADDGA1071+012901999GF107991999999999999999999MA1099591999999REMMET077METAR ENSR 031650Z 15016KT 9999 BKN043 M06/M10 Q0996 RMK WIND 1119FT 13010KT;
0101010460999992013010317004+69783+020950FM-12+0005ENSR V0201401N008019999999N9999999N1-00651-00991099631ADDMA1999999099561MD1210071+9999REMSYN060AAXX  03171 01046 46/// /1408 11065 21099 39956 49963 52007;
0146010460999992013010317504+69783+020950FM-15+0005ENSR V0201501N006712200019N0112651N1-00701-01101999999ADDGA1021+012901999GF102991999999999999999999MA1099591999999REMMET077METAR ENSR 031750Z 15013KT 9999 FEW043 M07/M11 Q0996 RMK WIND 1119FT 13009KT;
0226010460999992013010318004+69783+020950FM-12+0005ENSR V0201601N002010750019N0750001N1-00651-00981099671ADDAA112000091AY121061AY221061GF105991031001022501061021KA1120M-00161MA1999999099601MD1210091+9999MW1011REMSYN094AAXX  03181 01046 11889 51602 11065 21098 39960 49967 52009 60002 70122 83062 333 11016 91112;EQDQ01  00002PRCP12
0146010460999992013010318504+69783+020950FM-15+0005ENSR V0201401N006212200019N0112651N1-00701-01101999999ADDGA1041+012901999GF104991999999999999999999MA1099701999999REMMET077METAR ENSR 031850Z 14012KT 9999 SCT043 M07/M11 Q0997 RMK WIND 1119FT 13008KT;
0101010460999992013010319004+69783+020950FM-12+0005ENSR V0201501N003019999999N9999999N1-00691-01031099711ADDMA1999999099641MD1310101+9999REMSYN060AAXX  03191 01046 46/// /1503 11069 21103 39964 49971 53010;
0101010460999992013010320004+69783+020950FM-12+0005ENSR V0201801N002019999999N9999999N1-00831-01081099781ADDMA1999999099711MD1310151+9999REMSYN060AAXX  03201 01046 46/// /1802 11083 21108 39971 49978 53015;
0101010460999992013010321004+69783+020950FM-12+0005ENSR V0202701N001019999999N9999999N1-00821-01091099861ADDMA1999999099791MD1310201+9999REMSYN060AAXX  03211 01046 46/// /2701 11082 21109 39979 49986 53020;
0101010460999992013010322004+69783+020950FM-12+0005ENSR V0201501N002019999999N9999999N1-00591-00921099921ADDMA1999999099841MD1210201+9999REMSYN060AAXX  03221 01046 46/// /1502 11059 21092 39984 49992 52020;
0101010460999992013010323004+69783+020950FM-12+0005ENSR V0201501N001019999999N9999999N1-00631-00961100001ADDMA1999999099931MD1310221+9999REMSYN060AAXX  03231 01046 46/// /1501 11063 21096 39993 40000 53022;
0171010460999992013010400004+69783+020950FM-12+0005ENSR V0203001N001012200019N0750001N1-00531-00851100081ADDAY121061AY211061GF104991041001022501041001MA1999999100011MD1310211+9999MW1011REMSYN082AAXX  04001 01046 41889 43001 11053 21085 30001 40008 53021 70121 84040 333 91109;
0101010460999992013010401004+69783+020950FM-12+0005ENSR V0203101N001019999999N9999999N1-00531-00881100151ADDMA1999999100081MD1210241+9999REMSYN060AAXX  04011 01046 46/// /3101 11053 21088 30008 40015 52024;
0101010460999992013010402004+69783+020950FM-12+0005ENSR V0201401N002019999999N9999999N1-00531-00791100231ADDMA1999999100161MD1310231+9999REMSYN060AAXX  04021 01046 46/// /1402 11053 21079 30016 40023 53023;
0101010460999992013010403004+69783+020950FM-12+0005ENSR V0202101N001019999999N9999999N1-00641-00881100281ADDMA1999999100211MD1210201+9999REMSYN060AAXX  04031 01046 46/// /2101 11064 21088 30021 40028 52020;
0101010460999992013010404004+69783+020950FM-12+0005ENSR V0201401N002019999999N9999999N1-00621-00811100351ADDMA1999999100281MD1210201+9999REMSYN060AAXX  04041 01046 46/// /1402 11062 21081 30028 40035 52020;
0101010460999992013010405004+69783+020950FM-12+0005ENSR V0202901N001019999999N9999999N1-00561-00761100391ADDMA1999999100311MD1210151+9999REMSYN060AAXX  04051 01046 46/// /2901 11056 21076 30031 40039 52015;
0146010460999992013010405504+69783+020950FM-15+0005ENSR V0201401N001512200019N0112651N1-00601-00801999999ADDGA1041+012601999GF104991999999999999999999MA1100411999999REMMET077METAR ENSR 040550Z 14003KT 9999 SCT042 M06/M08 Q1004 RMK WIND 1119FT 25015KT;
0288010460999992013010406004+69783+020950FM-12+0005ENSR V0201401N001012200019N0750001N1-00551-00721100431ADDAA112000091AA224000091AJ100109199999999AY111061AY211061GF104991041001022501031001IA1289KA1999N-00861MA1999999100361MD1210141+9999MW1021REMSYN106AAXX  04061 01046 11889 41401 11055 21072 30036 40043 52014 60002 70211 84030 333 21086 44010 70000 91105;EQDQ01  00002PRCP24Q02  00002PRCP12
0146010460999992013010406504+69783+020950FM-15+0005ENSR V0209999V001510147019N0112651N1-00401-00701999999ADDGA1071+014701999GF107991999999999999999999MA1100411999999REMMET077METAR ENSR 040650Z VRB03KT 9999 BKN049 M04/M07 Q1004 RMK WIND 1119FT 23016KT;
0101010460999992013010407004+69783+020950FM-12+0005ENSR V0201501N002019999999N9999999N1-00411-00671100441ADDMA1999999100371MD1210091+9999REMSYN060AAXX  04071 01046 46/// /1502 11041 21067 30037 40044 52009;
0179010460999992013010407504+69783+020950FM-15+0005ENSR V0201101N003610099019N0112651N1-00401-00701999999ADDGA1021+005701999GA2071+009901999GF107991999999999999999999MA1100511999999MW1711REMMET088METAR ENSR 040750Z 11007KT 9999 -SN FEW019 BKN033 M04/M07 Q1005 RMK WIND 1119FT 24019KT;
0101010460999992013010408004+69783+020950FM-12+0005ENSR V0201201N002019999999N9999999N1-00411-00641100531ADDMA1999999100461MD1310151+9999REMSYN060AAXX  04081 01046 46/// /1202 11041 21064 30046 40053 53015;
0179010460999992013010408504+69783+020950FM-15+0005ENSR V0201301N003610087019N0112651N1-00501-00801999999ADDGA1021+005701999GA2071+008701999GF107991999999999999999999MA1100511999999MW1711REMMET088METAR ENSR 040850Z 13007KT 9999 -SN FEW019 BKN029 M05/M08 Q1005 RMK WIND 1119FT 24015KT;
0101010460999992013010409004+69783+020950FM-12+0005ENSR V0201301N004019999999N9999999N1-00481-00671100581ADDMA1999999100511MD1310151+9999REMSYN060AAXX  04091 01046 46/// /1304 11048 21067 30051 40058 53015;
0157010460999992013010409504+69783+020950FM-15+0005ENSR V0200901N003612200019N0112651N1-00601-00801999999ADDGA1041+009901999GF104991999999999999999999MA1100611999999MW1161REMMET082METAR ENSR 040950Z 09007KT 9999 VCSH SCT033 M06/M08 Q1006 RMK WIND 1119FT 24016KT;
0101010460999992013010410004+69783+020950FM-12+0005ENSR V0200901N002019999999N9999999N1-00471-00651100621ADDMA1999999100551MD1110181+9999REMSYN060AAXX  04101 01046 46/// /0902 11047 21065 30055 40062 51018;
0157010460999992013010410504+69783+020950FM-15+0005ENSR V0201201N003112200019N0112651N1-00401-00601999999ADDGA1041+009901999GF104991999999999999999999MA1100611999999MW1161REMMET082METAR ENSR 041050Z 12006KT 9999 VCSH SCT033 M04/M06 Q1006 RMK WIND 1119FT 29015KT;
0101010460999992013010411004+69783+020950FM-12+0005ENSR V0201101N003019999999N9999999N1-00421-00541100671ADDMA1999999100591MD1210141+9999REMSYN060AAXX  04111 01046 46/// /1103 11042 21054 30059 40067 52014;
0155010460999992013010411504+69783+020950FM-15+0005ENSR V0201301N002110066019N0112651N1-00501-00601999999ADDGA1091+006601999GF109991999999000251999999MA1100711999999MW1711REMMET080METAR ENSR 041150Z 13004KT 9999 -SN VV022 M05/M06 Q1007 RMK WIND 1119FT 27016KT;
0171010460999992013010412004+69783+020950FM-12+0005ENSR V0201101N003010042019N0200001N1-00511-00631100741ADDAY171061AY221061GF108991081001004501021999MA1999999100671MD1310161+9999MW1701REMSYN082AAXX  04121 01046 41470 81103 11051 21063 30067 40074 53016 77072 8802/ 333 91108;
0154010460999992013010412504+69783+020950FM-15+0005ENSR V0202801N006210069019N0112651N1+00101-00101999999ADDGA1091+006901999GF109991999999000251999999MA1100711999999MW1711REMMET079METAR ENSR 041250Z 28012KT 9999 -SN VV023 01/M01 Q1007 RMK WIND 1119FT 28017KT;
0101010460999992013010413004+69783+020950FM-12+0005ENSR V0202801N004019999999N9999999N1+00191-00151100821ADDMA1999999100741MD1310201+9999REMSYN060AAXX  04131 01046 46/// /2804 10019 21015 30074 40082 53020;
0178010460999992013010413504+69783+020950FM-15+0005ENSR V0203001N004110105019N0112651N1+00201-00201999999ADDGA1021+007501999GA2071+010501999GF107991999999999999999999MA1100811999999MW1711REMMET087METAR ENSR 041350Z 30008KT 9999 -SN FEW025 BKN035 02/M02 Q1008 RMK WIND 1119FT 30023KT;
0101010460999992013010414004+69783+020950FM-12+0005ENSR V0202901N005019999999N9999999N1+00261-00211100861ADDMA1999999100791MD1210201+9999REMSYN060AAXX  04141 01046 46/// /2905 10026 21021 30079 40086 52020;
0178010460999992013010414504+69783+020950FM-15+0005ENSR V0203001N006210090019N0112651N1+00301-00301999999ADDGA1021+007501999GA2071+009001999GF107991999999999999999999MA1100911999999MW1711REMMET087METAR ENSR 041450Z 30012KT 9999 -SN FEW025 BKN030 03/M03 Q1009 RMK WIND 1119FT 30026KT;
0101010460999992013010415004+69783+020950FM-12+0005ENSR V0203001N006019999999N9999999N1+00271-00301100911ADDMA1999999100841MD1210171+9999REMSYN060AAXX  04151 01046 46/// /3006 10027 21030 30084 40091 52017;
0212010460999992013010415504+69783+020950FM-15+0005ENSR V0203001N00771006001CN0112651N1+00201-00201999999ADDGA1021+002701999GA2041+006001999GA3071+010501999GF107991999999999999999999MA1100911999999MW1711OC101291REMMET097METAR ENSR 041550Z 30015G25KT 9999 -SN FEW009 SCT020 BKN035 02/M02 Q1009 RMK WIND 1119FT 30026KT;
0101010460999992013010416004+69783+020950FM-12+0005ENSR V0203001N008019999999N9999999N1+00261-00151101001ADDMA1999999100931MD1310181+9999REMSYN060AAXX  04161 01046 46/// /3008 10026 21015 30093 40100 53018;
0101010460999992013010417004+69783+020950FM-12+0005ENSR V0202901N007019999999N9999999N1+00291-00361101061ADDMA1999999100991MD1310201+9999REMSYN060AAXX  04171 01046 46/// /2907 10029 21036 30099 40106 53020;
0167010460999992013010417504+69783+020950FM-15+0005ENSR V0202901N006712200019N0112651N1+00301-00401999999ADDGA1041+009901999GF104991999999999999999999MA1101081999999MW1161OC101181REMMET084METAR ENSR 041750Z 29013G23KT 9999 VCSH SCT033 03/M04 Q1011 RMK WIND 1119FT 30027KT;
0136010460999992013010418004+69783+020950FM-12+0005ENSR V0202801N007019999999N9999999N1+00271-00381101151ADDKA1120M+00301MA1999999101081MD1310231+9999REMSYN082AAXX  04181 01046 16/// /2807 10027 21038 30108 40115 53023 6//// 333 10030 91113;
0145010460999992013010418504+69783+020950FM-15+0005ENSR V0202901N005712200019N0112651N1+00301-00501999999ADDGA1021+013201999GF102991999999999999999999MA1101191999999REMMET076METAR ENSR 041850Z 29011KT 9999 FEW044 03/M05 Q1012 RMK WIND 1119FT 30028KT;
0101010460999992013010419004+69783+020950FM-12+0005ENSR V0202901N004019999999N9999999N1+00271-00431101261ADDMA1999999101181MD1310261+9999REMSYN060AAXX  04191 01046 46/// /2904 10027 21043 30118 40126 53026;
0101010460999992013010420004+69783+020950FM-12+0005ENSR V0202901N008019999999N9999999N1+00311-00461101331ADDMA1999999101261MD1310271+9999REMSYN060AAXX  04201 01046 46/// /2908 10031 21046 30126 40133 53027;
0101010460999992013010421004+69783+020950FM-12+0005ENSR V0202901N006019999999N9999999N1+00301-00331101431ADDMA1999999101351MD1210281+9999REMSYN060AAXX  04211 01046 46/// /2906 10030 21033 30135 40143 52028;
0101010460999992013010422004+69783+020950FM-12+0005ENSR V0203001N005019999999N9999999N1+00301-00311101511ADDMA1999999101441MD1210251+9999REMSYN060AAXX  04221 01046 46/// /3005 10030 21031 30144 40151 52025;
0101010460999992013010423004+69783+020950FM-12+0005ENSR V0202901N005019999999N9999999N1+00321-00251101581ADDMA1999999101501MD1210241+9999REMSYN060AAXX  04231 01046 46/// /2905 10032 21025 30150 40158 52024;
0171010460999992013010500004+69783+020950FM-12+0005ENSR V0202801N005010210019N0750001N1+00321-00251101621ADDAY121061AY221061GF105991051001022501061001MA1999999101551MD1110191+9999MW1021REMSYN082AAXX  05001 01046 41889 52805 10032 21025 30155 40162 51019 70222 85060 333 91113;
0101010460999992013010501004+69783+020950FM-12+0005ENSR V0202801N005019999999N9999999N1+00311-00161101661ADDMA1999999101581MD1210151+9999REMSYN060AAXX  05011 01046 46/// /2805 10031 21016 30158 40166 52015;
0101010460999992013010502004+69783+020950FM-12+0005ENSR V0202801N005019999999N9999999N1+00241-00051101721ADDMA1999999101651MD1210141+9999REMSYN060AAXX  05021 01046 46/// /2805 10024 21005 30165 40172 52014;
0101010460999992013010503004+69783+020950FM-12+0005ENSR V0202801N005019999999N9999999N1+00261-00051101791ADDMA1999999101711MD1310171+9999REMSYN060AAXX  05031 01046 46/// /2805 10026 21005 30171 40179 53017;
0101010460999992013010504004+69783+020950FM-12+0005ENSR V0203601N005019999999N9999999N1+00181+00031101821ADDMA1999999101751MD1210161+9999REMSYN060AAXX  05041 01046 46/// /3605 10018 20003 30175 40182 52016;
0101010460999992013010505004+69783+020950FM-12+0005ENSR V0203601N002019999999N9999999N1+00151+00051101851ADDMA1999999101771MD1110121+9999REMSYN060AAXX  05051 01046 46/// /3602 10015 20005 30177 40185 51012;
0136010460999992013010506004+69783+020950FM-12+0005ENSR V0201701N001019999999N9999999N1+00111+00011101881ADDKA1999N+00111MA1999999101811MD1210091+9999REMSYN082AAXX  05061 01046 16/// /1701 10011 20001 30181 40188 52009 6//// 333 20011 91108;
0101010460999992013010507004+69783+020950FM-12+0005ENSR V0201701N002019999999N9999999N1+00061+00001101911ADDMA1999999101841MD1210091+9999REMSYN060AAXX  05071 01046 46/// /1702 10006 20000 30184 40191 52009;
0101010460999992013010508004+69783+020950FM-12+0005ENSR V0209999C000019999999N9999999N1+00021-00041101971ADDMA1999999101901MD1310131+9999REMSYN060AAXX  05081 01046 46/// /0000 10002 21004 30190 40197 53013;
0101010460999992013010509004+69783+020950FM-12+0005ENSR V0202001N001019999999N9999999N1+00061+00021102001ADDMA1999999101931MD1210121+9999REMSYN060AAXX  05091 01046 46/// /2001 10006 20002 30193 40200 52012;
0179010460999992013010509504+69783+020950FM-15+0005ENSR V0209999V000510075019N0112651N1+00001+00001999999ADDGA1041+005701999GA2071+007501999GF107991999999999999999999MA1102001999999MW1161REMMET088METAR ENSR 050950Z VRB01KT 9999 VCSH SCT019 BKN025 00/M00 Q1020 RMK WIND 1119FT 23004KT;
0101010460999992013010510004+69783+020950FM-12+0005ENSR V0201801N001019999999N9999999N1+00051+00011102041ADDMA1999999101971MD1210131+9999REMSYN060AAXX  05101 01046 46/// /1801 10005 20001 30197 40204 52013;
0204010460999992013010510504+69783+020950FM-15+0005ENSR V0201701N00151005101CN0112651N1+00101+00001999999ADDGA1021+002701999GA2041+005101999GA3071+009001999GF107991999999999999999999MA1102001999999MW1801REMMET097METAR ENSR 051050Z 17003KT 9999 -SHSNRA FEW009 SCT017 BKN030 01/00 Q1020 RMK WIND 1119FT 15005KT;
0101010460999992013010511004+69783+020950FM-12+0005ENSR V0201401N002019999999N9999999N1+00091+00021102071ADDMA1999999102001MD1210101+9999REMSYN060AAXX  05111 01046 46/// /1402 10009 20002 30200 40207 52010;
0202010460999992013010511504+69783+020950FM-15+0005ENSR V0201501N00361004801CN0112651N1+00101+00001999999ADDGA1021+002101999GA2041+004801999GA3071+010501999GF107991999999999999999999MA1102001999999MW1161REMMET095METAR ENSR 051150Z 15007KT 9999 VCSH FEW007 SCT016 BKN035 01/M00 Q1020 RMK WIND 1119FT 14008KT;
0171010460999992013010512004+69783+020950FM-12+0005ENSR V0201401N003010090019N0550001N1+00061-00021102091ADDAY181061AY221061GF107991071081004501999999MA1999999102021MD1210091+9999MW1021REMSYN082AAXX  05121 01046 41485 71403 10006 21002 30202 40209 52009 70282 878// 333 91105;
0199010460999992013010512504+69783+020950FM-15+0005ENSR V0201701N00211006601CN0112651N1+00101+00001999999ADDGA1021+002101999GA2041+006601999GA3071+012001999GF107991999999999999999999MA1102001999999REMMET098METAR ENSR 051250Z 17004KT 120V210 9999 FEW007 SCT022 BKN040 01/M00 Q1020 RMK WIND 1119FT 14008KT;
0101010460999992013010513004+69783+020950FM-12+0005ENSR V0201701N002019999999N9999999N1+00081-00021102091ADDMA1999999102021MD1210051+9999REMSYN060AAXX  05131 01046 46/// /1702 10008 21002 30202 40209 52005;
0168010460999992013010513504+69783+020950FM-15+0005ENSR V0201501N004610144019N0112651N1+00101-00101999999ADDGA1041+007501999GA2071+014401999GF107991999999999999999999MA1102101999999REMMET083METAR ENSR 051350Z 15009KT 9999 SCT025 BKN048 01/M01 Q1021 RMK WIND 1119FT 14006KT;
0101010460999992013010514004+69783+020950FM-12+0005ENSR V0201601N003019999999N9999999N1+00111-00081102121ADDMA1999999102051MD1210051+9999REMSYN060AAXX  05141 01046 46/// /1603 10011 21008 30205 40212 52005;
0101010460999992013010515004+69783+020950FM-12+0005ENSR V0201601N003019999999N9999999N1+00081-00131102141ADDMA1999999102071MD1210051+9999REMSYN060AAXX  05151 01046 46/// /1603 10008 21013 30207 40214 52005;
0101010460999992013010516004+69783+020950FM-12+0005ENSR V0201501N003019999999N9999999N1+00091-00161102141ADDMA1999999102071MD1210051+9999REMSYN060AAXX  05161 01046 46/// /1503 10009 21016 30207 40214 52005;
0101010460999992013010517004+69783+020950FM-12+0005ENSR V0201501N003019999999N9999999N1-00041-00261102111ADDMA1999999102031MD1810021+9999REMSYN060AAXX  05171 01046 46/// /1503 11004 21026 30203 40211 58002;
0136010460999992013010518004+69783+020950FM-12+0005ENSR V0201501N005019999999N9999999N1-00111-00261102051ADDKA1120M+00121MA1999999101971MD1810091+9999REMSYN082AAXX  05181 01046 16/// /1505 11011 21026 30197 40205 58009 6//// 333 10012 91108;
0101010460999992013010519004+69783+020950FM-12+0005ENSR V0201501N006019999999N9999999N1-00071-00351102061ADDMA1999999101991MD1510081+9999REMSYN060AAXX  05191 01046 46/// /1506 11007 21035 30199 40206 55008;
0101010460999992013010520004+69783+020950FM-12+0005ENSR V0201401N006019999999N9999999N1-00141-00411102061ADDMA1999999101981MD1510051+9999REMSYN060AAXX  05201 01046 46/// /1406 11014 21041 30198 40206 55005;
0101010460999992013010521004+69783+020950FM-12+0005ENSR V0201601N004019999999N9999999N1+00081-00421101991ADDMA1999999101921MD1810061+9999REMSYN060AAXX  05211 01046 46/// /1604 10008 21042 30192 40199 58006;
0101010460999992013010522004+69783+020950FM-12+0005ENSR V0201401N008019999999N9999999N1+00041-00461101921ADDMA1999999101851MD1810141+9999REMSYN060AAXX  05221 01046 46/// /1408 10004 21046 30185 40192 58014;
0101010460999992013010523004+69783+020950FM-12+0005ENSR V0201501N008019999999N9999999N1+00081-00501101851ADDMA1999999101781MD1710201+9999REMSYN060AAXX  05231 01046 46/// /1508 10008 21050 30178 40185 57020;
0171010460999992013010600004+69783+020950FM-12+0005ENSR V0201501N009012200019N0750001N1+00071-00511101781ADDAY121061AY211061GF104991041001022501041001MA1999999101711MD1710201+9999MW1011REMSYN082AAXX  06001 01046 41889 41509 10007 21051 30171 40178 57020 70121 84040 333 91112;
0101010460999992013010601004+69783+020950FM-12+0005ENSR V0201401N010019999999N9999999N1-00021-00511101701ADDMA1999999101631MD1810221+9999REMSYN060AAXX  06011 01046 46/// /1410 11002 21051 30163 40170 58022;
0101010460999992013010602004+69783+020950FM-12+0005ENSR V0201701N005019999999N9999999N1+00051-00681101651ADDMA1999999101571MD1710201+9999REMSYN060AAXX  06021 01046 46/// /1705 10005 21068 30157 40165 57020;
0101010460999992013010603004+69783+020950FM-12+0005ENSR V0201601N006019999999N9999999N1+00131-00721101561ADDMA1999999101491MD1810231+9999REMSYN060AAXX  06031 01046 46/// /1606 10013 21072 30149 40156 58023;
0101010460999992013010604004+69783+020950FM-12+0005ENSR V0201501N007019999999N9999999N1+00131-00771101521ADDMA1999999101451MD1610181+9999REMSYN060AAXX  06041 01046 46/// /1507 10013 21077 30145 40152 56018;
0101010460999992013010605004+69783+020950FM-12+0005ENSR V0201401N008019999999N9999999N1+00101-00721101481ADDMA1999999101401MD1610171+9999REMSYN060AAXX  06051 01046 46/// /1408 10010 21072 30140 40148 56017;
0272010460999992013010606004+69783+020950FM-12+0005ENSR V0201301N007010120019N0750001N1+00121-00661101441ADDAA112000091AA224000891AJ100099199999999AY121061AY221061GF108991081051012501999999IA1289KA1999N-00191MA1999999101371MD1710121+9999MW1031REMSYN106AAXX  06061 01046 11689 81307 10012 21066 30137 40144 57012 60002 70322 885// 333 21019 44009 70008 91114;EQDQ01  00002PRCP12
0101010460999992013010607004+69783+020950FM-12+0005ENSR V0201401N007019999999N9999999N1+00111-00641101411ADDMA1999999101341MD1710101+9999REMSYN060AAXX  06071 01046 46/// /1407 10011 21064 30134 40141 57010;
0101010460999992013010608004+69783+020950FM-12+0005ENSR V0201401N006019999999N9999999N1+00101-00651101381ADDMA1999999101311MD1810101+9999REMSYN060AAXX  06081 01046 46/// /1406 10010 21065 30131 40138 58010;
0101010460999992013010609004+69783+020950FM-12+0005ENSR V0201401N006019999999N9999999N1+00051-00591101371ADDMA1999999101291MD1710081+9999REMSYN060AAXX  06091 01046 46/// /1406 10005 21059 30129 40137 57008;
0101010460999992013010610004+69783+020950FM-12+0005ENSR V0201301N007019999999N9999999N1+00011-00571101331ADDMA1999999101251MD1710091+9999REMSYN060AAXX  06101 01046 46/// /1307 10001 21057 30125 40133 57009;
0101010460999992013010611004+69783+020950FM-12+0005ENSR V0201401N009019999999N9999999N1-00091-00511101271ADDMA1999999101191MD1810111+9999REMSYN060AAXX  06111 01046 46/// /1409 11009 21051 30119 40127 58011;
0171010460999992013010612004+69783+020950FM-12+0005ENSR V0201501N008010210019N0750001N1-00131-00541101201ADDAY121061AY221061GF107991071001022501071001MA1999999101131MD1810171+9999MW1011REMSYN082AAXX  06121 01046 41889 71508 11013 21054 30113 40120 58017 70122 87070 333 91112;
0101010460999992013010613004+69783+020950FM-12+0005ENSR V0201501N009019999999N9999999N1-00091-00481101161ADDMA1999999101081MD1610171+9999REMSYN060AAXX  06131 01046 46/// /1509 11009 21048 30108 40116 56017;
0101010460999992013010614004+69783+020950FM-12+0005ENSR V0201401N009019999999N9999999N1-00051-00441101121ADDMA1999999101041MD1610151+9999REMSYN060AAXX  06141 01046 46/// /1409 11005 21044 30104 40112 56015;
0181010460999992013010614504+69783+020950FM-15+0005ENSR V0201501N009310144019N0112651N1+00001-00501999999ADDGA1041+007801999GA2071+014401999GF107991999999999999999999MA1101021999999MW1661REMMET090METAR ENSR 061450Z 15018KT 9999 -FZRA SCT026 BKN048 M00/M05 Q1010 RMK WIND 1119FT 15014KT;
0101010460999992013010615004+69783+020950FM-12+0005ENSR V0201501N006019999999N9999999N1-00041-00421101061ADDMA1999999100991MD1610141+9999REMSYN060AAXX  06151 01046 46/// /1506 11004 21042 30099 40106 56014;
0181010460999992013010615504+69783+020950FM-15+0005ENSR V0201601N008210123019N0112651N1+00001-00401999999ADDGA1041+006601999GA2071+012301999GF107991999999999999999999MA1101021999999MW1661REMMET090METAR ENSR 061550Z 16016KT 9999 -FZRA SCT022 BKN041 M00/M04 Q1010 RMK WIND 1119FT 16017KT;
0101010460999992013010616004+69783+020950FM-12+0005ENSR V0201501N007019999999N9999999N1+00011-00431101021ADDMA1999999100951MD1710141+9999REMSYN060AAXX  06161 01046 46/// /1507 10001 21043 30095 40102 57014;
0178010460999992013010616504+69783+020950FM-15+0005ENSR V0201601N007210105019N0112651N1+00001-00401999999ADDGA1041+005401999GA2071+010501999GF107991999999999999999999MA1101021999999MW1611REMMET087METAR ENSR 061650Z 16014KT 9999 -RA SCT018 BKN035 00/M04 Q1010 RMK WIND 1119FT 15013KT;
0101010460999992013010617004+69783+020950FM-12+0005ENSR V0201501N007019999999N9999999N1+00001-00311101011ADDMA1999999100941MD1610101+9999REMSYN060AAXX  06171 01046 46/// /1507 10000 21031 30094 40101 56010;
0207010460999992013010618004+69783+020950FM-12+0005ENSR V0201501N008010075019N0240001N1+00001-00271101051ADDAA112000891AY161061AY221061GF108991081071008001999999KA1120M+00121MA1999999100981MD1510011+9999MW1611REMSYN094AAXX  06181 01046 11574 81508 10000 21027 30098 40105 55001 69982 76162 887// 333 10012 91113;
0101010460999992013010619004+69783+020950FM-12+0005ENSR V0201501N006019999999N9999999N1+00041-00251101041ADDMA1999999100971MD1010021+9999REMSYN060AAXX  06191 01046 46/// /1506 10004 21025 30097 40104 50002;
0101010460999992013010620004+69783+020950FM-12+0005ENSR V0201701N002019999999N9999999N1+00001-00211101071ADDMA1999999100991MD1110051+9999REMSYN060AAXX  06201 01046 46/// /1702 10000 21021 30099 40107 51005;
0101010460999992013010621004+69783+020950FM-12+0005ENSR V0203601N001019999999N9999999N1+00111-00191101101ADDMA1999999101031MD1310051+9999REMSYN060AAXX  06211 01046 46/// /3601 10011 21019 30103 40110 53005;
0101010460999992013010622004+69783+020950FM-12+0005ENSR V0201101N004019999999N9999999N1+00091-00201101221ADDMA1999999101151MD1310181+9999REMSYN060AAXX  06221 01046 46/// /1104 10009 21020 30115 40122 53018;
0101010460999992013010623004+69783+020950FM-12+0005ENSR V0202901N004019999999N9999999N1+00441+00161101371ADDMA1999999101291MD1310301+9999REMSYN060AAXX  06231 01046 46/// /2904 10044 20016 30129 40137 53030;
0171010460999992013010700004+69783+020950FM-12+0005ENSR V0202901N003010120019N0550001N1+00461+00151101431ADDAY161061AY221061GF108991081051012501999999MA1999999101361MD1110331+9999MW1021REMSYN082AAXX  07001 01046 41685 82903 10046 20015 30136 40143 51033 70262 885// 333 91112;
0101010460999992013010701004+69783+020950FM-12+0005ENSR V0202701N005019999999N9999999N1+00541+00081101461ADDMA1999999101381MD1110241+9999REMSYN060AAXX  07011 01046 46/// /2705 10054 20008 30138 40146 51024;
0101010460999992013010702004+69783+020950FM-12+0005ENSR V0202801N004019999999N9999999N1+00551+00091101531ADDMA1999999101451MD1310161+9999REMSYN060AAXX  07021 01046 46/// /2804 10055 20009 30145 40153 53016;
0101010460999992013010703004+69783+020950FM-12+0005ENSR V0202701N004019999999N9999999N1+00541+00041101591ADDMA1999999101521MD1310151+9999REMSYN060AAXX  07031 01046 46/// /2704 10054 20004 30152 40159 53015;
0101010460999992013010704004+69783+020950FM-12+0005ENSR V0203001N002019999999N9999999N1+00431+00081101641ADDMA1999999101571MD1210181+9999REMSYN060AAXX  07041 01046 46/// /3002 10043 20008 30157 40164 52018;
0101010460999992013010705004+69783+020950FM-12+0005ENSR V0201601N002019999999N9999999N1+00201+00041101661ADDMA1999999101591MD1110141+9999REMSYN060AAXX  07051 01046 46/// /1602 10020 20004 30159 40166 51014;
0253010460999992013010706004+69783+020950FM-12+0005ENSR V0201501N002010120019N0700001N1+00111+00021101681ADDAA112000021AA224001091AJ100099199999999AY121061AY221061GF108991081051012501999999IA1289KA1999N-00021MA1999999101611MD1210091+9999MW1021REMSYN106AAXX  07061 01046 11688 81502 10011 20002 30161 40168 52009 69922 70222 885// 333 21002 44009 70010 91108;
0167010460999992013010706084+69783+020950FM-15+0005ENSR V0201501N001510105019N0112651N1+00101+00101999999ADDGA1041+006901999GA2071+010501999GF107991999999999999999999MA1101591999999REMMET082METAR ENSR 070608Z 15003KT 9999 SCT023 BKN035 01/01 Q1016 RMK WIND 1119FT 14004KT;
0167010460999992013010706504+69783+020950FM-15+0005ENSR V0201601N002110120019N0112651N1+00201+00101999999ADDGA1021+008401999GA2071+012001999GF107991999999999999999999MA1101691999999REMMET082METAR ENSR 070650Z 16004KT 9999 FEW028 BKN040 02/01 Q1017 RMK WIND 1119FT 23006KT;
0101010460999992013010707004+69783+020950FM-12+0005ENSR V0201501N002019999999N9999999N1+00241+00111101731ADDMA1999999101651MD1210091+9999REMSYN060AAXX  07071 01046 46/// /1502 10024 20011 30165 40173 52009;
0167010460999992013010707504+69783+020950FM-15+0005ENSR V0200601N002610090019N0112651N1+00201+00101999999ADDGA1021+006001999GA2071+009001999GF107991999999999999999999MA1101691999999REMMET082METAR ENSR 070750Z 06005KT 9999 FEW020 BKN030 02/01 Q1017 RMK WIND 1119FT VRB03KT;
0101010460999992013010708004+69783+020950FM-12+0005ENSR V0201001N002019999999N9999999N1+00251+00121101761ADDMA1999999101691MD1210101+9999REMSYN060AAXX  07081 01046 46/// /1002 10025 20012 30169 40176 52010;
0167010460999992013010708504+69783+020950FM-15+0005ENSR V0209999V001510114019N0112651N1+00301+00101999999ADDGA1021+006001999GA2071+011401999GF107991999999999999999999MA1101691999999REMMET082METAR ENSR 070850Z VRB03KT 9999 FEW020 BKN038 03/01 Q1017 RMK WIND 1119FT 21003KT;
0101010460999992013010709004+69783+020950FM-12+0005ENSR V0202201N001019999999N9999999N1+00211+00051101781ADDMA1999999101701MD1210091+9999REMSYN060AAXX  07091 01046 46/// /2201 10021 20005 30170 40178 52009;
0167010460999992013010709504+69783+020950FM-15+0005ENSR V0209999V001012200019N0112651N1+00101+00001999999ADDGA1021+006001999GA2041+015001999GF104991999999999999999999MA1101691999999REMMET082METAR ENSR 070950Z VRB02KT 9999 FEW020 SCT050 01/00 Q1017 RMK WIND 1119FT 25013KT;
0101010460999992013010710004+69783+020950FM-12+0005ENSR V0201801N001019999999N9999999N1+00111+00001101781ADDMA1999999101711MD1110061+9999REMSYN060AAXX  07101 01046 46/// /1801 10011 21000 30171 40178 51006;
0101010460999992013010711004+69783+020950FM-12+0005ENSR V0201201N001019999999N9999999N1+00091-00101101721ADDMA1999999101641MD1810041+9999REMSYN060AAXX  07111 01046 46/// /1201 10009 21010 30164 40172 58004;
0191010460999992013010711504+69783+020950FM-15+0005ENSR V0201501N00261015001CN0112651N1+00101-00101999999ADDGA1021+006001999GA2041+015001999GA3071+048001999GF107991999999999999999999MA1101691999999REMMET090METAR ENSR 071150Z 15005KT 9999 FEW020 SCT050 BKN160 01/M01 Q1017 RMK WIND 1119FT 24011KT;
0117010460999992013010712004+69783+020950FM-12+0005ENSR V0201701N003019999999N9999999N1+00111-00101101691ADDMA1999999101621MD1810091+9999REMSYN076AAXX  07121 01046 16/// /1703 10011 21010 30162 40169 58009 6//// 333 91107;
0101010460999992013010713004+69783+020950FM-12+0005ENSR V0201101N002019999999N9999999N1-00031-00231101661ADDMA1999999101581MD1610131+9999REMSYN060AAXX  07131 01046 46/// /1102 11003 21023 30158 40166 56013;
0098010460999992013010713504+69783+020950FM-15+0005ENSR V0201801N002119999999Y0099001N1+00001-00201999999ADDMA1101591999999REMMET071METAR ENSR 071350Z 18004KT CAVOK M00/M02 Q1016 RMK WIND 1119FT VRB03KT;
0101010460999992013010714004+69783+020950FM-12+0005ENSR V0203401N001019999999N9999999N1-00011-00151101651ADDMA1999999101581MD1710061+9999REMSYN060AAXX  07141 01046 46/// /3401 11001 21015 30158 40165 57006;
0097010460999992013010714504+69783+020950FM-15+0005ENSR V0209999V001019999999Y0099001N1+00101-00201999999ADDMA1101591999999REMMET070METAR ENSR 071450Z VRB02KT CAVOK 01/M02 Q1016 RMK WIND 1119FT 15004KT;
0101010460999992013010715004+69783+020950FM-12+0005ENSR V0202001N002019999999N9999999N1+00001-00221101631ADDMA1999999101561MD1710061+9999REMSYN060AAXX  07151 01046 46/// /2002 10000 21022 30156 40163 57006;
0097010460999992013010715504+69783+020950FM-15+0005ENSR V0201601N004619999999Y0099001N1+00101-00301999999ADDMA1101591999999REMMET070METAR ENSR 071550Z 16009KT CAVOK 01/M03 Q1016 RMK WIND 1119FT 15013KT;
0101010460999992013010716004+69783+020950FM-12+0005ENSR V0201501N006019999999N9999999N1+00051-00341101601ADDMA1999999101531MD1710061+9999REMSYN060AAXX  07161 01046 46/// /1506 10005 21034 30153 40160 57006;
0097010460999992013010716504+69783+020950FM-15+0005ENSR V0201501N006219999999Y0099001N1+00101-00301999999ADDMA1101491999999REMMET070METAR ENSR 071650Z 15012KT CAVOK 01/M03 Q1015 RMK WIND 1119FT 16013KT;
0101010460999992013010717004+69783+020950FM-12+0005ENSR V0201301N006019999999N9999999N1+00061-00381101571ADDMA1999999101501MD1710081+9999REMSYN060AAXX  07171 01046 46/// /1306 10006 21038 30150 40157 57008;
0098010460999992013010717504+69783+020950FM-15+0005ENSR V0201501N006719999999Y0099001N1-00101-00401999999ADDMA1101491999999REMMET071METAR ENSR 071750Z 15013KT CAVOK M01/M04 Q1015 RMK WIND 1119FT 14013KT;
0226010460999992013010718004+69783+020950FM-12+0005ENSR V0201501N004012200019N0750001N1-00031-00411101541ADDAA112000091AY121061AY211061GF104991041001022501041001KA1120M+00311MA1999999101461MD1710101+9999MW1011REMSYN094AAXX  07181 01046 11889 41504 11003 21041 30146 40154 57010 60002 70121 84040 333 10031 91109;EQDQ01  00002PRCP12
0101010460999992013010719004+69783+020950FM-12+0005ENSR V0201601N004019999999N9999999N1-00041-00431101481ADDMA1999999101411MD1710111+9999REMSYN060AAXX  07191 01046 46/// /1604 11004 21043 30141 40148 57011;
0101010460999992013010720004+69783+020950FM-12+0005ENSR V0201401N008019999999N9999999N1-00071-00441101401ADDMA1999999101331MD1810171+9999REMSYN060AAXX  07201 01046 46/// /1408 11007 21044 30133 40140 58017;
0101010460999992013010721004+69783+020950FM-12+0005ENSR V0201601N002019999999N9999999N1-00081-00471101321ADDMA1999999101251MD1810211+9999REMSYN060AAXX  07211 01046 46/// /1602 11008 21047 30125 40132 58021;
0101010460999992013010722004+69783+020950FM-12+0005ENSR V0201401N006019999999N9999999N1+00011-00511101201ADDMA1999999101131MD1810281+9999REMSYN060AAXX  07221 01046 46/// /1406 10001 21051 30113 40120 58028;
0101010460999992013010723004+69783+020950FM-12+0005ENSR V0201501N006019999999N9999999N1-00021-00481101181ADDMA1999999101101MD1610231+9999REMSYN060AAXX  07231 01046 46/// /1506 11002 21048 30110 40118 56023;
0171010460999992013010800004+69783+020950FM-12+0005ENSR V0201401N006012200019N0750001N1-00021-00531101151ADDAY111061AY211061GF104991041001022501041001MA1999999101071MD1610181+9999MW1021REMSYN082AAXX  08001 01046 41889 41406 11002 21053 30107 40115 56018 70211 84040 333 91110;
0101010460999992013010801004+69783+020950FM-12+0005ENSR V0201901N002019999999N9999999N1-00131-00571101061ADDMA1999999100991MD1810141+9999REMSYN060AAXX  08011 01046 46/// /1902 11013 21057 30099 40106 58014;
0101010460999992013010802004+69783+020950FM-12+0005ENSR V0201201N002019999999N9999999N1-00131-00491100991ADDMA1999999100911MD1810191+9999REMSYN060AAXX  08021 01046 46/// /1202 11013 21049 30091 40099 58019;
0101010460999992013010803004+69783+020950FM-12+0005ENSR V0202301N002019999999N9999999N1-00011-00491100931ADDMA1999999100861MD1710221+9999REMSYN060AAXX  08031 01046 46/// /2302 11001 21049 30086 40093 57022;
0101010460999992013010804004+69783+020950FM-12+0005ENSR V0201901N003019999999N9999999N1+00091-00571100811ADDMA1999999100741MD1810251+9999REMSYN060AAXX  08041 01046 46/// /1903 10009 21057 30074 40081 58025;
0101010460999992013010805004+69783+020950FM-12+0005ENSR V0202101N003019999999N9999999N1+00141-00641100751ADDMA1999999100681MD1810231+9999REMSYN060AAXX  08051 01046 46/// /2103 10014 21064 30068 40075 58023;
0288010460999992013010806004+69783+020950FM-12+0005ENSR V0202001N002012200019N0750001N1+00051-00701100711ADDAA112000091AA224000091AJ100099199999999AY111061AY211061GF103991021001022501041021IA1289KA1999N-00221MA1999999100641MD1610221+9999MW1011REMSYN106AAXX  08061 01046 11889 32002 10005 21070 30064 40071 56022 60002 70111 82042 333 21022 44009 70000 91106;EQDQ01  00002PRCP24Q02  00002PRCP12
0110010460999992013010806094+69783+020950FM-15+0005ENSR V0201601N004119999999Y0099001N1+00001-00601999999ADDKA1999M+00061MA1100711999999REMMET070METAR ENSR 080609Z 16008KT CAVOK 00/M06 Q1007 RMK WIND 1119FT 10006KT;
0098010460999992013010806504+69783+020950FM-15+0005ENSR V0201501N006219999999Y0099001N1+00001-00501999999ADDMA1100611999999REMMET071METAR ENSR 080650Z 15012KT CAVOK M00/M05 Q1006 RMK WIND 1119FT 14013KT;
0101010460999992013010807004+69783+020950FM-12+0005ENSR V0201401N007019999999N9999999N1+00021-00501100691ADDMA1999999100621MD1610121+9999REMSYN060AAXX  08071 01046 46/// /1407 10002 21050 30062 40069 56012;
0098010460999992013010807504+69783+020950FM-15+0005ENSR V0201501N009319999999Y0099001N1-00101-00601999999ADDMA1100611999999REMMET071METAR ENSR 080750Z 15018KT CAVOK M01/M06 Q1006 RMK WIND 1119FT 14014KT;
0101010460999992013010808004+69783+020950FM-12+0005ENSR V0201401N010019999999N9999999N1-00181-00621100651ADDMA1999999100581MD1710101+9999REMSYN060AAXX  08081 01046 46/// /1410 11018 21062 30058 40065 57010;
0169010460999992013010808504+69783+020950FM-15+0005ENSR V0201501N010310210019N0112651N1-00301-00801999999ADDGA1021+009001999GA2071+021001999GF107991999999999999999999MA1100511999999REMMET084METAR ENSR 080850Z 15020KT 9999 FEW030 BKN075 M03/M08 Q1005 RMK WIND 1119FT 14016KT;
0101010460999992013010809004+69783+020950FM-12+0005ENSR V0201401N011019999999N9999999N1-00311-00731100581ADDMA1999999100511MD1810131+9999REMSYN060AAXX  08091 01046 46/// /1411 11031 21073 30051 40058 58013;
0169010460999992013010809504+69783+020950FM-15+0005ENSR V0201601N008710120019N0112651N1-00301-00801999999ADDGA1021+009001999GA2071+012001999GF107991999999999999999999MA1100511999999REMMET084METAR ENSR 080950Z 16017KT 9999 FEW030 BKN040 M03/M08 Q1005 RMK WIND 1119FT 14012KT;
0101010460999992013010810004+69783+020950FM-12+0005ENSR V0201501N007019999999N9999999N1-00341-00771100521ADDMA1999999100441MD1810171+9999REMSYN060AAXX  08101 01046 46/// /1507 11034 21077 30044 40052 58017;
0101010460999992013010811004+69783+020950FM-12+0005ENSR V0201501N006019999999N9999999N1-00381-00791100431ADDMA1999999100351MD1810231+9999REMSYN060AAXX  08111 01046 46/// /1506 11038 21079 30035 40043 58023;
0169010460999992013010811504+69783+020950FM-15+0005ENSR V0201501N011810150019N0112651N1-00401-00901999999ADDGA1021+009001999GA2071+015001999GF107991999999999999999999MA1100201999999REMMET084METAR ENSR 081150Z 15023KT 9999 FEW030 BKN050 M04/M09 Q1002 RMK WIND 1119FT 14012KT;
0171010460999992013010812004+69783+020950FM-12+0005ENSR V0201301N012010210019N0750001N1-00431-00831100231ADDAY121061AY211061GF108991081001022501011999MA1999999100161MD1810351+9999MW1031REMSYN082AAXX  08121 01046 41889 81312 11043 21083 30016 40023 58035 70321 8801/ 333 91115;
0157010460999992013010812504+69783+020950FM-15+0005ENSR V0201501N007712200019N0112651N1-00401-00901999999ADDGA1041+013501999GF104991999999999999999999MA1100201999999MW1161REMMET082METAR ENSR 081250Z 15015KT 9999 VCSH SCT045 M04/M09 Q1002 RMK WIND 1119FT 12008KT;
0101010460999992013010813004+69783+020950FM-12+0005ENSR V0201501N007019999999N9999999N1-00421-00821100281ADDMA1999999100211MD1510241+9999REMSYN060AAXX  08131 01046 46/// /1507 11042 21082 30021 40028 55024;
0146010460999992013010813504+69783+020950FM-15+0005ENSR V0201501N008212200019N0112651N1-00501-00901999999ADDGA1041+015001999GF104991999999999999999999MA1100201999999REMMET077METAR ENSR 081350Z 15016KT 9999 SCT055 M05/M09 Q1002 RMK WIND 1119FT 14014KT;
0101010460999992013010814004+69783+020950FM-12+0005ENSR V0201401N009019999999N9999999N1-00461-00861100251ADDMA1999999100181MD1510171+9999REMSYN060AAXX  08141 01046 46/// /1409 11046 21086 30018 40025 55017;
0156010460999992013010814504+69783+020950FM-15+0005ENSR V0201501N004110045019N0050001N1-00401-00801999999ADDGA1071+004501999GF107991999999999999999999MA1100311999999MW1711REMMET081METAR ENSR 081450Z 15008KT 5000 -SN BKN015 M04/M08 Q1003 RMK WIND 1119FT 14009KT;
0101010460999992013010815004+69783+020950FM-12+0005ENSR V0201401N004019999999N9999999N1-00401-00781100321ADDMA1999999100241MD1310091+9999REMSYN060AAXX  08151 01046 46/// /1404 11040 21078 30024 40032 53009;
0166010460999992013010815504+69783+020950FM-15+0005ENSR V0201401N007710051019N0050001N1-00401-00701999999ADDGA1091+005101999GF109991999999000251999999MA1100311999999MW1361MW2711REMMET085METAR ENSR 081550Z 14015KT 5000 -SN DRSN VV017 M04/M07 Q1003 RMK WIND 1119FT 14011KT;
0101010460999992013010816004+69783+020950FM-12+0005ENSR V0201301N008019999999N9999999N1-00341-00601100281ADDMA1999999100211MD1010001+9999REMSYN060AAXX  08161 01046 46/// /1308 11034 21060 30021 40028 50000;
0166010460999992013010816504+69783+020950FM-15+0005ENSR V0201501N004610036019N0050001N1-00401-00601999999ADDGA1091+003601999GF109991999999000251999999MA1100311999999MW1361MW2711REMMET085METAR ENSR 081650Z 15009KT 5000 -SN DRSN VV012 M04/M06 Q1003 RMK WIND 1119FT 24010KT;
0101010460999992013010817004+69783+020950FM-12+0005ENSR V0201501N003019999999N9999999N1-00401-00581100311ADDMA1999999100241MD1010061+9999REMSYN060AAXX  08171 01046 46/// /1503 11040 21058 30024 40031 50006;
0155010460999992013010817504+69783+020950FM-15+0005ENSR V0201601N003110060019N0060001N1-00401-00601999999ADDGA1091+006001999GF109991999999000251999999MA1100311999999MW1711REMMET080METAR ENSR 081750Z 16006KT 6000 -SN VV020 M04/M06 Q1003 RMK WIND 1119FT 26013KT;
0207010460999992013010818004+69783+020950FM-12+0005ENSR V0201701N003010075019N0200001N1-00431-00551100381ADDAA112002091AY171061AY221061GF108991081071008001999999KA1120M+00081MA1999999100301MD1310061+9999MW1711REMSYN094AAXX  08181 01046 11570 81703 11043 21055 30030 40038 53006 60022 77172 887// 333 10008 91114;
0155010460999992013010818504+69783+020950FM-15+0005ENSR V0201501N004110024019N0040001N1-00501-00601999999ADDGA1091+002401999GF109991999999000251999999MA1100411999999MW1711REMMET080METAR ENSR 081850Z 15008KT 4000 -SN VV008 M05/M06 Q1004 RMK WIND 1119FT 30019KT;
0101010460999992013010819004+69783+020950FM-12+0005ENSR V0201601N002019999999N9999999N1-00431-00521100431ADDMA1999999100351MD1310141+9999REMSYN060AAXX  08191 01046 46/// /1602 11043 21052 30035 40043 53014;
0169010460999992013010819504+69783+020950FM-15+0005ENSR V0201601N003110132019N0112651N1-00501-00601999999ADDGA1041+005101999GA2071+013201999GF107991999999999999999999MA1100411999999REMMET084METAR ENSR 081950Z 16006KT 9999 SCT017 BKN044 M05/M06 Q1004 RMK WIND 1119FT 31018KT;
0101010460999992013010821004+69783+020950FM-12+0005ENSR V0201401N003019999999N9999999N1-00361-00561100421ADDMA1999999100351MD1010051+9999REMSYN060AAXX  08211 01046 46/// /1403 11036 21056 30035 40042 50005;
0101010460999992013010823004+69783+020950FM-12+0005ENSR V0200901N003019999999N9999999N1-00121-00421100371ADDMA1999999100301MD1810041+9999REMSYN060AAXX  08231 01046 46/// /0903 11012 21042 30030 40037 58004;
0171010460999992013010900004+69783+020950FM-12+0005ENSR V0201201N003010150019N0700001N1+00021-00331100311ADDAY121061AY221061GF106991061081012501001001MA1999999100241MD1810121+9999MW1011REMSYN082AAXX  09001 01046 41688 61203 10002 21033 30024 40031 58012 70122 86800 333 91112;
0101010460999992013010901004+69783+020950FM-12+0005ENSR V0202501N005019999999N9999999N1+00071-00231100271ADDMA1999999100201MD1710131+9999REMSYN060AAXX  09011 01046 46/// /2505 10007 21023 30020 40027 57013;
0101010460999992013010902004+69783+020950FM-12+0005ENSR V0202501N008019999999N9999999N1-00011-00101100211ADDMA1999999100141MD1810161+9999REMSYN060AAXX  09021 01046 46/// /2508 11001 21010 30014 40021 58016;
0101010460999992013010903004+69783+020950FM-12+0005ENSR V0202501N008019999999N9999999N1+00021-00081100271ADDMA1999999100201MD1510041+9999REMSYN060AAXX  09031 01046 46/// /2508 10002 21008 30020 40027 55004;
0101010460999992013010904004+69783+020950FM-12+0005ENSR V0202601N008019999999N9999999N1+00061-00021100291ADDMA1999999100221MD1310021+9999REMSYN060AAXX  09041 01046 46/// /2608 10006 21002 30022 40029 53002;
0101010460999992013010905004+69783+020950FM-12+0005ENSR V0202601N008019999999N9999999N1+00181-00011100321ADDMA1999999100251MD1110101+9999REMSYN060AAXX  09051 01046 46/// /2608 10018 21001 30025 40032 51010;
0144010460999992013010905504+69783+020950FM-15+0005ENSR V0202701N004610060019N0112651N1+00301+00001999999ADDGA1071+006001999GF107991999999999999999999MA1100411999999REMMET075METAR ENSR 090550Z 27009KT 9999 BKN020 03/00 Q1004 RMK WIND 1119FT 29018KT;
0136010460999992013010906004+69783+020950FM-12+0005ENSR V0202701N007019999999N9999999N1+00321+00041100441ADDKA1999N-00511MA1999999100371MD1310171+9999REMSYN082AAXX  09061 01046 16/// /2707 10032 20004 30037 40044 53017 6//// 333 21051 91115;
0144010460999992013010906504+69783+020950FM-15+0005ENSR V0203001N005710069019N0112651N1+00301+00001999999ADDGA1071+006901999GF107991999999999999999999MA1100511999999REMMET075METAR ENSR 090650Z 30011KT 9999 BKN023 03/00 Q1005 RMK WIND 1119FT 30014KT;
0101010460999992013010907004+69783+020950FM-12+0005ENSR V0203001N004019999999N9999999N1+00361+00011100591ADDMA1999999100521MD1310301+9999REMSYN060AAXX  09071 01046 46/// /3004 10036 20001 30052 40059 53030;
0145010460999992013010907504+69783+020950FM-15+0005ENSR V0202801N003612200019N0112651N1+00301+00001999999ADDGA1041+009001999GF104991999999999999999999MA1100611999999REMMET076METAR ENSR 090750Z 28007KT 9999 SCT030 03/M00 Q1006 RMK WIND 1119FT 31010KT;
0101010460999992013010908004+69783+020950FM-12+0005ENSR V0202901N003019999999N9999999N1+00321+00011100701ADDMA1999999100621MD1310381+9999REMSYN060AAXX  09081 01046 46/// /2903 10032 20001 30062 40070 53038;
0168010460999992013010908504+69783+020950FM-15+0005ENSR V0202901N001510129019N0112651N1+00301+00001999999ADDGA1041+008401999GA2071+012901999GF107991999999999999999999MA1100711999999REMMET083METAR ENSR 090850Z 29003KT 9999 SCT028 BKN043 03/M00 Q1007 RMK WIND 1119FT 30006KT;
0101010460999992013010909004+69783+020950FM-12+0005ENSR V0203001N002019999999N9999999N1+00351-00011100791ADDMA1999999100721MD1110351+9999REMSYN060AAXX  09091 01046 46/// /3002 10035 21001 30072 40079 51035;
0177010460999992013010909504+69783+020950FM-15+0005ENSR V0203101N002610066019N0112651N1+00301+00101999999ADDGA1041+005101999GA2071+006601999GF107991999999999999999999MA1100811999999MW1611REMMET086METAR ENSR 090950Z 31005KT 9999 -RA SCT017 BKN022 03/01 Q1008 RMK WIND 1119FT 30011KT;
0101010460999992013010910004+69783+020950FM-12+0005ENSR V0203001N003019999999N9999999N1+00331+00071100871ADDMA1999999100791MD1210271+9999REMSYN060AAXX  09101 01046 46/// /3003 10033 20007 30079 40087 52027;
0154010460999992013010910504+69783+020950FM-15+0005ENSR V0202901N003610051019N0112651N1+00301+00101999999ADDGA1071+005101999GF107991999999999999999999MA1100911999999MW1611REMMET079METAR ENSR 091050Z 29007KT 9999 -RA BKN017 03/01 Q1009 RMK WIND 1119FT 19011KT;
0101010460999992013010911004+69783+020950FM-12+0005ENSR V0202801N003019999999N9999999N1+00281+00101100921ADDMA1999999100851MD1210231+9999REMSYN060AAXX  09111 01046 46/// /2803 10028 20010 30085 40092 52023;
0178010460999992013010911504+69783+020950FM-15+0005ENSR V0202901N002610060019N0112651N1+00301+00101999999ADDGA1041+004801999GA2071+006001999GF107991999999999999999999MA1100911999999MW1161REMMET087METAR ENSR 091150Z 29005KT 9999 VCSH SCT016 BKN020 03/01 Q1009 RMK WIND 1119FT 30011KT;
0117010460999992013010912004+69783+020950FM-12+0005ENSR V0203001N002019999999N9999999N1+00311+00121101001ADDMA1999999100931MD1310211+9999REMSYN076AAXX  09121 01046 16/// /3002 10031 20012 30093 40100 53021 6//// 333 91109;
0101010460999992013010913004+69783+020950FM-12+0005ENSR V0203201N004019999999N9999999N1+00231+00101101091ADDMA1999999101021MD1310221+9999REMSYN060AAXX  09131 01046 46/// /3204 10023 20010 30102 40109 53022;
0101010460999992013010914004+69783+020950FM-12+0005ENSR V0202501N003019999999N9999999N1+00151+00061101181ADDMA1999999101111MD1310251+9999REMSYN060AAXX  09141 01046 46/// /2503 10015 20006 30111 40118 53025;
0155010460999992013010914504+69783+020950FM-15+0005ENSR V0203401N007210054019N0112651N1+00301+00101999999ADDGA1091+005401999GF109991999999000251999999MA1101191999999MW1801REMMET080METAR ENSR 091450Z 34014KT 9999 -SHRA VV018 03/01 Q1012 RMK WIND 1119FT 33007KT;
0101010460999992013010915004+69783+020950FM-12+0005ENSR V0203301N006019999999N9999999N1+00311+00131101241ADDMA1999999101171MD1310241+9999REMSYN060AAXX  09151 01046 46/// /3306 10031 20013 30117 40124 53024;
0101010460999992013010916004+69783+020950FM-12+0005ENSR V0203101N005019999999N9999999N1+00321+00091101301ADDMA1999999101231MD1110211+9999REMSYN060AAXX  09161 01046 46/// /3105 10032 20009 30123 40130 51021;
0155010460999992013010916504+69783+020950FM-15+0005ENSR V0203101N005110051019N0112651N1+00301+00101999999ADDGA1091+005101999GF109991999999000251999999MA1101291999999MW1801REMMET080METAR ENSR 091650Z 31010KT 9999 -SHRA VV017 03/01 Q1013 RMK WIND 1119FT 33013KT;
0101010460999992013010917004+69783+020950FM-12+0005ENSR V0203101N004019999999N9999999N1+00281+00101101401ADDMA1999999101321MD1310221+9999REMSYN060AAXX  09171 01046 46/// /3104 10028 20010 30132 40140 53022;
0153010460999992013010917504+69783+020950FM-15+0005ENSR V0203101N005110048019N0112651N1+00301+00101999999ADDGA1091+004801999GF109991999999000251999999MA1101391999999MW1611REMMET078METAR ENSR 091750Z 31010KT 9999 -RA VV016 03/01 Q1014 RMK WIND 1119FT 33010KT;
0207010460999992013010918004+69783+020950FM-12+0005ENSR V0203001N003010042019N0150001N1+00271+00091101481ADDAA112010991AY171061AY261061GF108991081071004501999999KA1120M+00401MA1999999101401MD1310231+9999MW1631REMSYN094AAXX  09181 01046 11465 83003 10027 20009 30140 40148 53023 60112 76376 887// 333 10040 91109;
0101010460999992013010919004+69783+020950FM-12+0005ENSR V0203001N003019999999N9999999N1+00291+00081101541ADDMA1999999101471MD1210241+9999REMSYN060AAXX  09191 01046 46/// /3003 10029 20008 30147 40154 52024;
0101010460999992013010920004+69783+020950FM-12+0005ENSR V0203301N004019999999N9999999N1+00301+00091101631ADDMA1999999101561MD1310231+9999REMSYN060AAXX  09201 01046 46/// /3304 10030 20009 30156 40163 53023;
0101010460999992013010921004+69783+020950FM-12+0005ENSR V0203201N005019999999N9999999N1+00361+00011101681ADDMA1999999101611MD1210201+9999REMSYN060AAXX  09211 01046 46/// /3205 10036 20001 30161 40168 52020;
0101010460999992013010922004+69783+020950FM-12+0005ENSR V0203301N005019999999N9999999N1+00331+00041101751ADDMA1999999101681MD1310211+9999REMSYN060AAXX  09221 01046 46/// /3305 10033 20004 30168 40175 53021;
0101010460999992013010923004+69783+020950FM-12+0005ENSR V0203001N003019999999N9999999N1+00311+00001101811ADDMA1999999101741MD1310191+9999REMSYN060AAXX  09231 01046 46/// /3003 10031 20000 30174 40181 53019;
0117010460999992013011000004+69783+020950FM-12+0005ENSR V0202801N001019999999N9999999N1+00271-00041101871ADDMA1999999101791MD1210191+9999REMSYN076AAXX  10001 01046 16/// /2801 10027 21004 30179 40187 52019 6//// 333 91109;
0101010460999992013011001004+69783+020950FM-12+0005ENSR V0203201N003019999999N9999999N1+00311-00031101931ADDMA1999999101851MD1210181+9999REMSYN060AAXX  10011 01046 46/// /3203 10031 21003 30185 40193 52018;
0101010460999992013011002004+69783+020950FM-12+0005ENSR V0202701N002019999999N9999999N1+00281-00081101961ADDMA1999999101881MD1210141+9999REMSYN060AAXX  10021 01046 46/// /2702 10028 21008 30188 40196 52014;
0101010460999992013011003004+69783+020950FM-12+0005ENSR V0201701N001019999999N9999999N1+00231-00081102011ADDMA1999999101941MD1210151+9999REMSYN060AAXX  10031 01046 46/// /1701 10023 21008 30194 40201 52015;
0101010460999992013011004004+69783+020950FM-12+0005ENSR V0202401N002019999999N9999999N1+00211-00051102051ADDMA1999999101971MD1210121+9999REMSYN060AAXX  10041 01046 46/// /2402 10021 21005 30197 40205 52012;
0101010460999992013011005004+69783+020950FM-12+0005ENSR V0202601N001019999999N9999999N1+00071-00141102091ADDMA1999999102021MD1310141+9999REMSYN060AAXX  10051 01046 46/// /2601 10007 21014 30202 40209 53014;
0253010460999992013011006004+69783+020950FM-12+0005ENSR V0202301N001010300019N0750001N1+00061-00111102121ADDAA112000021AA224010991AJ100129199999999AY121061AY221061GF107991041041012501061001IA1289KA1999N+00031MA1999999102041MD1210101+9999MW1021REMSYN106AAXX  10061 01046 11689 72301 10006 21011 30204 40212 52010 60002 70222 84460 333 20003 44012 70108 91105;
0168010460999992013011006504+69783+020950FM-15+0005ENSR V0209999V001010120019N0112651N1+00001-00101999999ADDGA1021+006001999GA2071+012001999GF107991999999999999999999MA1102101999999REMMET083METAR ENSR 100650Z VRB02KT 9999 FEW020 BKN040 00/M01 Q1021 RMK WIND 1119FT 27004KT;
0101010460999992013011007004+69783+020950FM-12+0005ENSR V0201801N002019999999N9999999N1+00041-00091102141ADDMA1999999102061MD1210091+9999REMSYN060AAXX  10071 01046 46/// /1802 10004 21009 30206 40214 52009;
0191010460999992013011007514+69783+020950FM-15+0005ENSR V0209999V00051005101CN0112651N1+00001-00101999999ADDGA1021+003001999GA2041+005101999GA3071+008401999GF107991999999999999999999MA1102201999999REMMET090METAR ENSR 100751Z VRB01KT 9999 FEW010 SCT017 BKN028 00/M01 Q1022 RMK WIND 1119FT 27003KT;
0101010460999992013011008004+69783+020950FM-12+0005ENSR V0209999C000019999999N9999999N1+00031-00101102231ADDMA1999999102161MD1310141+9999REMSYN060AAXX  10081 01046 46/// /0000 10003 21010 30216 40223 53014;
0191010460999992013011008504+69783+020950FM-15+0005ENSR V0209999V00051005101CN0112651N1+00001-00101999999ADDGA1021+003001999GA2041+005101999GA3071+008401999GF107991999999999999999999MA1102201999999REMMET090METAR ENSR 100850Z VRB01KT 9999 FEW010 SCT017 BKN028 00/M01 Q1022 RMK WIND 1119FT 24003KT;
0101010460999992013011009004+69783+020950FM-12+0005ENSR V0209999C000019999999N9999999N1+00031-00051102251ADDMA1999999102181MD1310141+9999REMSYN060AAXX  10091 01046 46/// /0000 10003 21005 30218 40225 53014;
0191010460999992013011009504+69783+020950FM-15+0005ENSR V0209999V00101005101CN0112651N1+00101+00001999999ADDGA1021+003001999GA2041+005101999GA3071+007501999GF107991999999999999999999MA1102201999999REMMET090METAR ENSR 100950Z VRB02KT 9999 FEW010 SCT017 BKN025 01/M00 Q1022 RMK WIND 1119FT 00000KT;
0101010460999992013011010004+69783+020950FM-12+0005ENSR V0203501N001019999999N9999999N1+00031-00071102271ADDMA1999999102201MD1110131+9999REMSYN060AAXX  10101 01046 46/// /3501 10003 21007 30220 40227 51013;
0101010460999992013011011004+69783+020950FM-12+0005ENSR V0201301N002019999999N9999999N1+00091-00041102231ADDMA1999999102161MD1010001+9999REMSYN060AAXX  10111 01046 46/// /1302 10009 21004 30216 40223 50000;
0202010460999992013011011504+69783+020950FM-15+0005ENSR V0209999V00101005101CN0112651N1+00101-00101999999ADDGA1021+003001999GA2041+005101999GA3071+007501999GF107991999999999999999999MA1102201999999MW1161REMMET095METAR ENSR 101150Z VRB02KT 9999 VCSH FEW010 SCT017 BKN025 01/M01 Q1022 RMK WIND 1119FT VRB01KT;
0171010460999992013011012004+69783+020950FM-12+0005ENSR V0202901N001010300019N0750001N1+00041-00031102241ADDAY181061AY221061GF108991021041012501011999MA1999999102171MD1810011+9999MW1031REMSYN082AAXX  10121 01046 41689 82901 10004 21003 30217 40224 58001 70382 8241/ 333 91103;
0101010460999992013011013004+69783+020950FM-12+0005ENSR V0202401N001019999999N9999999N1+00001-00051102261ADDMA1999999102191MD1510011+9999REMSYN060AAXX  10131 01046 46/// /2401 10000 21005 30219 40226 55001;
0101010460999992013011014004+69783+020950FM-12+0005ENSR V0202401N001019999999N9999999N1+00011-00051102261ADDMA1999999102191MD1210031+9999REMSYN060AAXX  10141 01046 46/// /2401 10001 21005 30219 40226 52003;
0101010460999992013011015004+69783+020950FM-12+0005ENSR V0201401N001019999999N9999999N1+00011-00051102261ADDMA1999999102181MD1210021+9999REMSYN060AAXX  10151 01046 46/// /1401 10001 21005 30218 40226 52002;
0177010460999992013011015124+69783+020950FM-15+0005ENSR V0209999V001010057019N0080001N1+00001+00001999999ADDGA1021+003601999GA2071+005701999GF107991999999999999999999MA1102201999999MW1711REMMET086METAR ENSR 101512Z VRB02KT 8000 -SN FEW012 BKN019 00/M00 Q1022 RMK WIND 1119FT 25009KT
0177010460999992013011015504+69783+020950FM-15+0005ENSR V0200901N001510066019N0112651N1+00001+00001999999ADDGA1041+003901999GA2071+006601999GF107991999999999999999999MA1102201999999MW1711REMMET086METAR ENSR 101550Z 09003KT 9999 -SN SCT013 BKN022 00/00 Q1022 RMK WIND 1119FT 25008KT;
0101010460999992013011016004+69783+020950FM-12+0005ENSR V0202001N001019999999N9999999N1+00001-00041102231ADDMA1999999102161MD1810031+9999REMSYN060AAXX  10161 01046 46/// /2001 10000 21004 30216 40223 58003;
0146010460999992013011016504+69783+020950FM-15+0005ENSR V0209999V000510054019N0112651N1-00101-00101999999ADDGA1071+005401999GF107991999999999999999999MA1102201999999REMMET077METAR ENSR 101650Z VRB01KT 9999 BKN018 M01/M01 Q1022 RMK WIND 1119FT 26010KT;
0101010460999992013011017004+69783+020950FM-12+0005ENSR V0203301N001019999999N9999999N1-00031-00051102261ADDMA1999999102191MD1510001+9999REMSYN060AAXX  10171 01046 46/// /3301 11003 21005 30219 40226 55000;
0192010460999992013011017504+69783+020950FM-15+0005ENSR V0209999V00101005401CN0070001N1+00001-00101999999ADDGA1021+000901999GA2041+005401999GA3071+011101999GF107991999999999999999999MA1102201999999REMMET091METAR ENSR 101750Z VRB02KT 7000 FEW003 SCT018 BKN037 M00/M01 Q1022 RMK WIND 1119FT 25009KT;
0136010460999992013011018004+69783+020950FM-12+0005ENSR V0202201N001019999999N9999999N1-00051-00071102251ADDKA1120M+00191MA1999999102171MD1510011+9999REMSYN082AAXX  10181 01046 16/// /2201 11005 21007 30217 40225 55001 6//// 333 10019 91102;
0101010460999992013011019004+69783+020950FM-12+0005ENSR V0200701N001019999999N9999999N1-00051-00071102231ADDMA1999999102161MD1010001+9999REMSYN060AAXX  10191 01046 46/// /0701 11005 21007 30216 40223 50000;
0101010460999992013011020004+69783+020950FM-12+0005ENSR V0203001N001019999999N9999999N1-00181-00221102231ADDMA1999999102161MD1710031+9999REMSYN060AAXX  10201 01046 46/// /3001 11018 21022 30216 40223 57003;
0101010460999992013011021004+69783+020950FM-12+0005ENSR V0203001N001019999999N9999999N1-00191-00261102221ADDMA1999999102151MD1710021+9999REMSYN060AAXX  10211 01046 46/// /3001 11019 21026 30215 40222 57002;
0101010460999992013011022004+69783+020950FM-12+0005ENSR V0201401N002019999999N9999999N1-00221-00271102201ADDMA1999999102131MD1710031+9999REMSYN060AAXX  10221 01046 46/// /1402 11022 21027 30213 40220 57003;
0101010460999992013011023004+69783+020950FM-12+0005ENSR V0201701N001019999999N9999999N1-00351-00441102211ADDMA1999999102141MD1710021+9999REMSYN060AAXX  10231 01046 46/// /1701 11035 21044 30214 40221 57002;
0117010460999992013011100004+69783+020950FM-12+0005ENSR V0201801N002019999999N9999999N1-00321-00381102181ADDMA1999999102101MD1810051+9999REMSYN076AAXX  11001 01046 16/// /1802 11032 21038 30210 40218 58005 6//// 333 91104;
0101010460999992013011101004+69783+020950FM-12+0005ENSR V0201701N001019999999N9999999N1-00331-00431102121ADDMA1999999102051MD1810081+9999REMSYN060AAXX  11011 01046 46/// /1701 11033 21043 30205 40212 58008;
0101010460999992013011102004+69783+020950FM-12+0005ENSR V0203001N001019999999N9999999N1-00341-00451102141ADDMA1999999102061MD1510081+9999REMSYN060AAXX  11021 01046 46/// /3001 11034 21045 30206 40214 55008;
0101010460999992013011103004+69783+020950FM-12+0005ENSR V0201301N002019999999N9999999N1-00351-00451102101ADDMA1999999102021MD1810081+9999REMSYN060AAXX  11031 01046 46/// /1302 11035 21045 30202 40210 58008;
0101010460999992013011104004+69783+020950FM-12+0005ENSR V0201601N001019999999N9999999N1-00531-00631102041ADDMA1999999101971MD1810081+9999REMSYN060AAXX  11041 01046 46/// /1601 11053 21063 30197 40204 58008;
0101010460999992013011105004+69783+020950FM-12+0005ENSR V0201401N003019999999N9999999N1-00401-00561101981ADDMA1999999101911MD1810161+9999REMSYN060AAXX  11051 01046 46/// /1403 11040 21056 30191 40198 58016;
0272010460999992013011106004+69783+020950FM-12+0005ENSR V0201301N003012200019N0750001N1-00361-00511101941ADDAA112000091AA224001091AJ100129199999999AY111061AY201061GF103991021001022501041021IA1289KA1999N-00531MA1999999101871MD1710151+9999MW1021REMSYN106AAXX  11061 01046 11889 31303 11036 21051 30187 40194 57015 60002 70210 82042 333 21053 44012 70009 91105;EQDQ01  00002PRCP12
0169010460999992013011106094+69783+020950FM-15+0005ENSR V0209999V001010360019N0112651N1-00401-00601999999ADDGA1021+014701999GA2071+036001999GF107991999999999999999999MA1101901999999REMMET084METAR ENSR 110609Z VRB02KT 9999 FEW049 BKN120 M04/M06 Q1019 RMK WIND 1119FT 26015KT;
0169010460999992013011106504+69783+020950FM-15+0005ENSR V0201301N002112200019N0112651N1-00401-00601999999ADDGA1021+012601999GA2041+048001999GF104991999999999999999999MA1101901999999REMMET084METAR ENSR 110650Z 13004KT 9999 FEW042 SCT167 M04/M06 Q1019 RMK WIND 1119FT 25015KT;
0101010460999992013011107004+69783+020950FM-12+0005ENSR V0201301N003019999999N9999999N1-00361-00521101921ADDMA1999999101851MD1610121+9999REMSYN060AAXX  11071 01046 46/// /1303 11036 21052 30185 40192 56012;
0098010460999992013011107504+69783+020950FM-15+0005ENSR V0201401N003119999999Y0099001N1-00401-00601999999ADDMA1101901999999REMMET071METAR ENSR 110750Z 14006KT CAVOK M04/M06 Q1019 RMK WIND 1119FT 25017KT;
0101010460999992013011108004+69783+020950FM-12+0005ENSR V0201201N002019999999N9999999N1-00391-00551101931ADDMA1999999101851MD1510061+9999REMSYN060AAXX  11081 01046 46/// /1202 11039 21055 30185 40193 55006;
0169010460999992013011108504+69783+020950FM-15+0005ENSR V0209999V002610480019N0112651N1-00401-00601999999ADDGA1021+007501999GA2071+048001999GF107991999999999999999999MA1101801999999REMMET084METAR ENSR 110850Z VRB05KT 9999 FEW025 BKN167 M04/M06 Q1018 RMK WIND 1119FT 26019KT;
0101010460999992013011109004+69783+020950FM-12+0005ENSR V0201301N002019999999N9999999N1-00371-00531101891ADDMA1999999101811MD1710051+9999REMSYN060AAXX  11091 01046 46/// /1302 11037 21053 30181 40189 57005;
0169010460999992013011109504+69783+020950FM-15+0005ENSR V0209999V002610480019N0112651N1-00501-00601999999ADDGA1021+007501999GA2071+048001999GF107991999999999999999999MA1101801999999REMMET084METAR ENSR 110950Z VRB05KT 9999 FEW025 BKN167 M05/M06 Q1018 RMK WIND 1119FT 25024KT;
0101010460999992013011110004+69783+020950FM-12+0005ENSR V0201401N002019999999N9999999N1-00501-00661101881ADDMA1999999101801MD1710051+9999REMSYN060AAXX  11101 01046 46/// /1402 11050 21066 30180 40188 57005;
0101010460999992013011111004+69783+020950FM-12+0005ENSR V0202801N006019999999N9999999N1+00341-00291101821ADDMA1999999101741MD1810111+9999REMSYN060AAXX  11111 01046 46/// /2806 10034 21029 30174 40182 58011;
0117010460999992013011112004+69783+020950FM-12+0005ENSR V0202801N006019999999N9999999N1+00411-00231101781ADDMA1999999101701MD1810111+9999REMSYN076AAXX  11121 01046 16/// /2806 10041 21023 30170 40178 58011 6//// 333 91111;
0168010460999992013011112504+69783+020950FM-15+0005ENSR V0202901N007210180019N0112651N1+00401-00301999999ADDGA1021+007501999GA2071+018001999GF107991999999999999999999MA1101691999999REMMET083METAR ENSR 111250Z 29014KT 9999 FEW025 BKN063 04/M03 Q1017 RMK WIND 1119FT 25023KT;
0101010460999992013011113004+69783+020950FM-12+0005ENSR V0202801N007019999999N9999999N1+00401-00261101781ADDMA1999999101711MD1510091+9999REMSYN060AAXX  11131 01046 46/// /2807 10040 21026 30171 40178 55009;
0101010460999992013011114004+69783+020950FM-12+0005ENSR V0202701N006019999999N9999999N1+00421-00261101721ADDMA1999999101651MD1810091+9999REMSYN060AAXX  11141 01046 46/// /2706 10042 21026 30165 40172 58009;
0101010460999992013011115004+69783+020950FM-12+0005ENSR V0202801N008019999999N9999999N1+00471-00211101711ADDMA1999999101641MD1810071+9999REMSYN060AAXX  11151 01046 46/// /2808 10047 21021 30164 40171 58007;
0101010460999992013011116004+69783+020950FM-12+0005ENSR V0202701N007019999999N9999999N1+00491-00201101711ADDMA1999999101641MD1610071+9999REMSYN060AAXX  11161 01046 46/// /2707 10049 21020 30164 40171 56007;
0171010460999992013011116504+69783+020950FM-15+0005ENSR V0202701N009310129019N0112651N1+00501-00201999999ADDGA1021+007501999GA2071+012901999GF107991999999999999999999MA1101591999999REMMET086METAR ENSR 111650Z 27018KT 9999 FEW025 BKN043 05/M02 Q1016 RMK WIND 1119FT 25022G34KT;
0101010460999992013011117004+69783+020950FM-12+0005ENSR V0202701N008019999999N9999999N1+00501-00161101671ADDMA1999999101591MD1810061+9999REMSYN060AAXX  11171 01046 46/// /2708 10050 21016 30159 40167 58006;
0168010460999992013011117504+69783+020950FM-15+0005ENSR V0202801N006710141019N0112651N1+00501-00201999999ADDGA1021+007501999GA2071+014101999GF107991999999999999999999MA1101591999999REMMET083METAR ENSR 111750Z 28013KT 9999 FEW025 BKN047 05/M02 Q1016 RMK WIND 1119FT 26028KT;
0136010460999992013011118004+69783+020950FM-12+0005ENSR V0202801N008019999999N9999999N1+00511-00111101661ADDKA1120M+00521MA1999999101591MD1710051+9999REMSYN082AAXX  11181 01046 16/// /2808 10051 21011 30159 40166 57005 6//// 333 10052 91113;
0101010460999992013011119004+69783+020950FM-12+0005ENSR V0202701N007019999999N9999999N1+00481-00101101661ADDMA1999999101591MD1510051+9999REMSYN060AAXX  11191 01046 46/// /2707 10048 21010 30159 40166 55005;
0101010460999992013011120004+69783+020950FM-12+0005ENSR V0202701N008019999999N9999999N1+00511-00091101621ADDMA1999999101541MD1810051+9999REMSYN060AAXX  11201 01046 46/// /2708 10051 21009 30154 40162 58005;
0101010460999992013011121004+69783+020950FM-12+0005ENSR V0202801N006019999999N9999999N1+00531-00091101681ADDMA1999999101611MD1310021+9999REMSYN060AAXX  11211 01046 46/// /2806 10053 21009 30161 40168 53002;
0101010460999992013011122004+69783+020950FM-12+0005ENSR V0202701N006019999999N9999999N1+00581-00111101671ADDMA1999999101591MD1510001+9999REMSYN060AAXX  11221 01046 46/// /2706 10058 21011 30159 40167 55000;
0101010460999992013011123004+69783+020950FM-12+0005ENSR V0202801N006019999999N9999999N1+00591-00101101631ADDMA1999999101561MD1010021+9999REMSYN060AAXX  11231 01046 46/// /2806 10059 21010 30156 40163 50002;
0171010460999992013011200004+69783+020950FM-12+0005ENSR V0202701N006010075019N0700001N1+00581-00071101591ADDAY161061AY221061GF108991081071008001999999MA1999999101521MD1810091+9999MW1021REMSYN082AAXX  12001 01046 41588 82706 10058 21007 30152 40159 58009 70262 887// 333 91114;
0101010460999992013011201004+69783+020950FM-12+0005ENSR V0202701N008019999999N9999999N1+00591-00061101551ADDMA1999999101481MD1810111+9999REMSYN060AAXX  12011 01046 46/// /2708 10059 21006 30148 40155 58011;
0101010460999992013011202004+69783+020950FM-12+0005ENSR V0202701N009019999999N9999999N1+00571-00031101531ADDMA1999999101461MD1710111+9999REMSYN060AAXX  12021 01046 46/// /2709 10057 21003 30146 40153 57011;
0101010460999992013011203004+69783+020950FM-12+0005ENSR V0202701N008019999999N9999999N1+00491+00071101571ADDMA1999999101491MD1510021+9999REMSYN060AAXX  12031 01046 46/// /2708 10049 20007 30149 40157 55002;
0101010460999992013011204004+69783+020950FM-12+0005ENSR V0202601N010019999999N9999999N1+00471+00121101561ADDMA1999999101491MD1510011+9999REMSYN060AAXX  12041 01046 46/// /2610 10047 20012 30149 40156 55001;
0101010460999992013011205004+69783+020950FM-12+0005ENSR V0202701N008019999999N9999999N1+00461+00131101571ADDMA1999999101501MD1210051+9999REMSYN060AAXX  12051 01046 46/// /2708 10046 20013 30150 40157 52005;
0253010460999992013011206004+69783+020950FM-12+0005ENSR V0202901N007010075019N0050001N1+00461+00211101621ADDAA112005191AA224005691AJ100089199999999AY161061AY221061GF108991081071008001999999IA1289KA1999N+00441MA1999999101541MD1310051+9999MW1601REMSYN106AAXX  12061 01046 11550 82907 10046 20021 30154 40162 53005 60052 76062 887// 333 20044 44008 70056 91114;
0101010460999992013011207004+69783+020950FM-12+0005ENSR V0202901N009019999999N9999999N1+00461+00181101641ADDMA1999999101571MD1210081+9999REMSYN060AAXX  12071 01046 46/// /2909 10046 20018 30157 40164 52008;
0101010460999992013011208004+69783+020950FM-12+0005ENSR V0203001N008019999999N9999999N1+00431+00061101711ADDMA1999999101631MD1310131+9999REMSYN060AAXX  12081 01046 46/// /3008 10043 20006 30163 40171 53013;
0101010460999992013011209004+69783+020950FM-12+0005ENSR V0203001N008019999999N9999999N1+00431+00031101741ADDMA1999999101671MD1310121+9999REMSYN060AAXX  12091 01046 46/// /3008 10043 20003 30167 40174 53012;
0145010460999992013011209504+69783+020950FM-15+0005ENSR V0202801N007712200019N0112651N1+00401+00001999999ADDGA1041+007501999GF104991999999999999999999MA1101691999999REMMET076METAR ENSR 120950Z 28015KT 9999 SCT025 04/M00 Q1017 RMK WIND 1119FT 30026KT;
0101010460999992013011210004+69783+020950FM-12+0005ENSR V0202901N008019999999N9999999N1+00421-00081101741ADDMA1999999101661MD1110101+9999REMSYN060AAXX  12101 01046 46/// /2908 10042 21008 30166 40174 51010;
0168010460999992013011210504+69783+020950FM-15+0005ENSR V0203001N008712200019N0112651N1+00401-00101999999ADDGA1021+006001999GA2041+009001999GF104991999999999999999999MA1101691999999REMMET083METAR ENSR 121050Z 30017KT 9999 FEW020 SCT030 04/M01 Q1017 RMK WIND 1119FT 30024KT;
0101010460999992013011211004+69783+020950FM-12+0005ENSR V0203001N007019999999N9999999N1+00401-00131101791ADDMA1999999101721MD1310081+9999REMSYN060AAXX  12111 01046 46/// /3007 10040 21013 30172 40179 53008;
0168010460999992013011211504+69783+020950FM-15+0005ENSR V0203001N006212200019N0112651N1+00401-00101999999ADDGA1041+006001999GA2041+009001999GF104991999999999999999999MA1101801999999REMMET083METAR ENSR 121150Z 30012KT 9999 SCT020 SCT030 04/M01 Q1018 RMK WIND 1119FT 30022KT;
0171010460999992013011212004+69783+020950FM-12+0005ENSR V0203001N008010075019N0100001N1+00411-00171101801ADDAY161061AY221061GF108991081071008001999999MA1999999101731MD1310071+9999MW1601REMSYN082AAXX  12121 01046 41560 83008 10041 21017 30173 40180 53007 76062 887// 333 91115;
0179010460999992013011212504+69783+020950FM-15+0005ENSR V0203001N006212200019N0112651N1+00401-00201999999ADDGA1041+006001999GA2041+009001999GF104991999999999999999999MA1101801999999MW1161REMMET088METAR ENSR 121250Z 30012KT 9999 VCSH SCT020 SCT030 04/M02 Q1018 RMK WIND 1119FT 30022KT;
0101010460999992013011213004+69783+020950FM-12+0005ENSR V0203101N008019999999N9999999N1+00401-00151101831ADDMA1999999101761MD1110091+9999REMSYN060AAXX  12131 01046 46/// /3108 10040 21015 30176 40183 51009;
0101010460999992013011214004+69783+020950FM-12+0005ENSR V0203201N007019999999N9999999N1+00381-00151101841ADDMA1999999101771MD1210061+9999REMSYN060AAXX  12141 01046 46/// /3207 10038 21015 30177 40184 52006;
0179010460999992013011214504+69783+020950FM-15+0005ENSR V0203301N006212200019N0112651N1+00401-00201999999ADDGA1041+006001999GA2041+009001999GF104991999999999999999999MA1101801999999MW1161REMMET088METAR ENSR 121450Z 33012KT 9999 VCSH SCT020 SCT030 04/M02 Q1018 RMK WIND 1119FT 30022KT;
0101010460999992013011215004+69783+020950FM-12+0005ENSR V0203201N007019999999N9999999N1+00341-00151101861ADDMA1999999101781MD1210051+9999REMSYN060AAXX  12151 01046 46/// /3207 10034 21015 30178 40186 52005;
0101010460999992013011216004+69783+020950FM-12+0005ENSR V0203001N006019999999N9999999N1+00281-00121101871ADDMA1999999101791MD1210041+9999REMSYN060AAXX  12161 01046 46/// /3006 10028 21012 30179 40187 52004;
0101010460999992013011217004+69783+020950FM-12+0005ENSR V0202901N005019999999N9999999N1+00301-00171101891ADDMA1999999101811MD1210041+9999REMSYN060AAXX  12171 01046 46/// /2905 10030 21017 30181 40189 52004;
0207010460999992013011218004+69783+020950FM-12+0005ENSR V0203101N004010120019N0700001N1+00271-00161101931ADDAA112001091AY121061AY221061GF105991051081008001001001KA1120M+00471MA1999999101861MD1310081+9999MW1011REMSYN094AAXX  12181 01046 11588 53104 10027 21016 30186 40193 53008 60012 70122 85800 333 10047 91112;
0101010460999992013011219004+69783+020950FM-12+0005ENSR V0203001N006019999999N9999999N1+00261-00171101931ADDMA1999999101861MD1010061+9999REMSYN060AAXX  12191 01046 46/// /3006 10026 21017 30186 40193 50006;
0101010460999992013011220004+69783+020950FM-12+0005ENSR V0203001N003019999999N9999999N1+00321-00311101931ADDMA1999999101861MD1010041+9999REMSYN060AAXX  12201 01046 46/// /3003 10032 21031 30186 40193 50004;
0101010460999992013011221004+69783+020950FM-12+0005ENSR V0202801N003019999999N9999999N1+00321-00381101931ADDMA1999999101851MD1410001+9999REMSYN060AAXX  12211 01046 46/// /2803 10032 21038 30185 40193 54001;
0101010460999992013011222004+69783+020950FM-12+0005ENSR V0202401N003019999999N9999999N1+00191-00401101931ADDMA1999999101851MD1410001+9999REMSYN060AAXX  12221 01046 46/// /2403 10019 21040 30185 40193 54000;
0101010460999992013011223004+69783+020950FM-12+0005ENSR V0202601N004019999999N9999999N1+00221-00411101911ADDMA1999999101841MD1710021+9999REMSYN060AAXX  12231 01046 46/// /2604 10022 21041 30184 40191 57002;
0171010460999992013011300004+69783+020950FM-12+0005ENSR V0202501N004010120019N0750001N1+00211-00421101891ADDAY121061AY221061GF105991051041012501001001MA1999999101821MD1710031+9999MW1021REMSYN082AAXX  13001 01046 41689 52504 10021 21042 30182 40189 57003 70222 85400 333 91109;
0101010460999992013011301004+69783+020950FM-12+0005ENSR V0202601N004019999999N9999999N1+00231-00421101871ADDMA1999999101801MD1710051+9999REMSYN060AAXX  13011 01046 46/// /2604 10023 21042 30180 40187 57005;
0101010460999992013011302004+69783+020950FM-12+0005ENSR V0202501N004019999999N9999999N1+00231-00421101851ADDMA1999999101771MD1710061+9999REMSYN060AAXX  13021 01046 46/// /2504 10023 21042 30177 40185 57006;
0101010460999992013011303004+69783+020950FM-12+0005ENSR V0202501N004019999999N9999999N1+00251-00421101841ADDMA1999999101761MD1710061+9999REMSYN060AAXX  13031 01046 46/// /2504 10025 21042 30176 40184 57006;
0101010460999992013011304004+69783+020950FM-12+0005ENSR V0201401N003019999999N9999999N1+00031-00491101821ADDMA1999999101751MD1710051+9999REMSYN060AAXX  13041 01046 46/// /1403 10003 21049 30175 40182 57005;
0101010460999992013011305004+69783+020950FM-12+0005ENSR V0201401N002019999999N9999999N1-00041-00421101801ADDMA1999999101731MD1710041+9999REMSYN060AAXX  13051 01046 46/// /1402 11004 21042 30173 40180 57004;
0272010460999992013011306004+69783+020950FM-12+0005ENSR V0201301N003012200019N0750001N1-00091-00421101791ADDAA112000091AA224001091AJ100089199999999AY121061AY211061GF104991031001022501041021IA1289KA1999N-00101MA1999999101711MD1710051+9999MW1011REMSYN106AAXX  13061 01046 11889 41303 11009 21042 30171 40179 57005 60002 70121 83042 333 21010 44008 70011 91106;EQDQ01  00002PRCP12
0101010460999992013011307004+69783+020950FM-12+0005ENSR V0201501N003019999999N9999999N1-00081-00451101781ADDMA1999999101711MD1710041+9999REMSYN060AAXX  13071 01046 46/// /1503 11008 21045 30171 40178 57004;
0101010460999992013011308004+69783+020950FM-12+0005ENSR V0201501N001019999999N9999999N1-00141-00441101791ADDMA1999999101721MD1710011+9999REMSYN060AAXX  13081 01046 46/// /1501 11014 21044 30172 40179 57001;
0101010460999992013011309004+69783+020950FM-12+0005ENSR V0202501N001019999999N9999999N1-00231-00461101791ADDMA1999999101721MD1410001+9999REMSYN060AAXX  13091 01046 46/// /2501 11023 21046 30172 40179 54001;
0101010460999992013011310004+69783+020950FM-12+0005ENSR V0202701N001019999999N9999999N1-00221-00441101761ADDMA1999999101691MD1810021+9999REMSYN060AAXX  13101 01046 46/// /2701 11022 21044 30169 40176 58002;
0101010460999992013011311004+69783+020950FM-12+0005ENSR V0201501N002019999999N9999999N1-00261-00511101751ADDMA1999999101681MD1710041+9999REMSYN060AAXX  13111 01046 46/// /1502 11026 21051 30168 40175 57004;
0117010460999992013011312004+69783+020950FM-12+0005ENSR V0203101N002019999999N9999999N1-00211-00401101731ADDMA1999999101661MD1710061+9999REMSYN076AAXX  13121 01046 16/// /3102 11021 21040 30166 40173 57006 6//// 333 91106;
0101010460999992013011313004+69783+020950FM-12+0005ENSR V0201301N001019999999N9999999N1-00141-00391101691ADDMA1999999101621MD1810071+9999REMSYN060AAXX  13131 01046 46/// /1301 11014 21039 30162 40169 58007;
0101010460999992013011314004+69783+020950FM-12+0005ENSR V0202901N001019999999N9999999N1-00141-00361101651ADDMA1999999101581MD1710101+9999REMSYN060AAXX  13141 01046 46/// /2901 11014 21036 30158 40165 57010;
0146010460999992013011314334+69783+020950FM-15+0005ENSR V0209999V001010105019N0112651N1-00101-00401999999ADDGA1071+010501999GF107991999999999999999999MA1101591999999REMMET077METAR ENSR 131433Z VRB02KT 9999 BKN035 M01/M04 Q1016 RMK WIND 1119FT 25005KT;
0101010460999992013011315004+69783+020950FM-12+0005ENSR V0201601N001019999999N9999999N1-00101-00351101651ADDMA1999999101571MD1710081+9999REMSYN060AAXX  13151 01046 46/// /1601 11010 21035 30157 40165 57008;
0157010460999992013011315504+69783+020950FM-15+0005ENSR V0209999V000510069019N0090001N1-00101-00301999999ADDGA1091+006901999GF109991999999000251999999MA1101591999999MW1851REMMET082METAR ENSR 131550Z VRB01KT 9000 -SHSN VV023 M01/M03 Q1016 RMK WIND 1119FT 15006KT;
0101010460999992013011316004+69783+020950FM-12+0005ENSR V0209999C000019999999N9999999N1-00111-00291101621ADDMA1999999101541MD1710071+9999REMSYN060AAXX  13161 01046 46/// /0000 11011 21029 30154 40162 57007;
0157010460999992013011316504+69783+020950FM-15+0005ENSR V0209999V000510066019N0040001N1-00101-00301999999ADDGA1091+006601999GF109991999999000251999999MA1101491999999MW1851REMMET082METAR ENSR 131650Z VRB01KT 4000 -SHSN VV022 M01/M03 Q1015 RMK WIND 1119FT 15005KT;
0101010460999992013011317004+69783+020950FM-12+0005ENSR V0202001N001019999999N9999999N1-00111-00261101581ADDMA1999999101511MD1810071+9999REMSYN060AAXX  13171 01046 46/// /2001 11011 21026 30151 40158 58007;
0207010460999992013011318004+69783+020950FM-12+0005ENSR V0201301N002010120019N0700001N1-00171-00271101571ADDAA112000021AY181061AY221061GF108991081081008001999999KA1120M-00071MA1999999101501MD1710081+9999MW1021REMSYN094AAXX  13181 01046 11588 81302 11017 21027 30150 40157 57008 69922 70282 888// 333 11007 91103;
0101010460999992013011319004+69783+020950FM-12+0005ENSR V0201601N002019999999N9999999N1-00151-00211101521ADDMA1999999101451MD1710091+9999REMSYN060AAXX  13191 01046 46/// /1602 11015 21021 30145 40152 57009;
0101010460999992013011320004+69783+020950FM-12+0005ENSR V0201701N001019999999N9999999N1-00101-00161101471ADDMA1999999101401MD1810111+9999REMSYN060AAXX  13201 01046 46/// /1701 11010 21016 30140 40147 58011;
0101010460999992013011321004+69783+020950FM-12+0005ENSR V0201101N002019999999N9999999N1-00131-00191101451ADDMA1999999101381MD1710121+9999REMSYN060AAXX  13211 01046 46/// /1102 11013 21019 30138 40145 57012;
0101010460999992013011322004+69783+020950FM-12+0005ENSR V0202301N001019999999N9999999N1-00161-00211101441ADDMA1999999101371MD1610081+9999REMSYN060AAXX  13221 01046 46/// /2301 11016 21021 30137 40144 56008;
0101010460999992013011323004+69783+020950FM-12+0005ENSR V0201401N001019999999N9999999N1-00151-00211101401ADDMA1999999101321MD1810071+9999REMSYN060AAXX  13231 01046 46/// /1401 11015 21021 30132 40140 58007;
0171010460999992013011400004+69783+020950FM-12+0005ENSR V0200101N001010075019N0100001N1-00141-00231101371ADDAY171061AY221061GF108991081071008001999999MA1999999101291MD1810081+9999MW1711REMSYN082AAXX  14001 01046 41560 80101 11014 21023 30129 40137 58008 77172 887// 333 91103;
0101010460999992013011401004+69783+020950FM-12+0005ENSR V0200901N002019999999N9999999N1-00081-00191101331ADDMA1999999101261MD1710111+9999REMSYN060AAXX  14011 01046 46/// /0902 11008 21019 30126 40133 57011;
0101010460999992013011402004+69783+020950FM-12+0005ENSR V0201901N001019999999N9999999N1-00121-00221101271ADDMA1999999101201MD1810121+9999REMSYN060AAXX  14021 01046 46/// /1901 11012 21022 30120 40127 58012;
0101010460999992013011403004+69783+020950FM-12+0005ENSR V0201201N003019999999N9999999N1-00101-00201101241ADDMA1999999101171MD1710131+9999REMSYN060AAXX  14031 01046 46/// /1203 11010 21020 30117 40124 57013;
0101010460999992013011404004+69783+020950FM-12+0005ENSR V0203001N001019999999N9999999N1-00131-00241101231ADDMA1999999101161MD1510101+9999REMSYN060AAXX  14041 01046 46/// /3001 11013 21024 30116 40123 55010;
0101010460999992013011405004+69783+020950FM-12+0005ENSR V0202001N001019999999N9999999N1-00121-00191101201ADDMA1999999101131MD1610081+9999REMSYN060AAXX  14051 01046 46/// /2001 11012 21019 30113 40120 56008;
0253010460999992013011406004+69783+020950FM-12+0005ENSR V0201401N002010075019N0050001N1-00161-00221101191ADDAA112005191AA224005691AJ100209199999999AY171061AY221061GF108991081071008001999999IA1289KA1999N-00181MA1999999101111MD1610051+9999MW1711REMSYN106AAXX  14061 01046 11550 81402 11016 21022 30111 40119 56005 60052 77172 887// 333 21018 44020 70055 91105;
0202010460999992013011406204+69783+020950FM-15+0005ENSR V0209999V00101009001CN0070001N1-00101-00201999999ADDGA1021+003001999GA2041+009001999GA3071+013501999GF107991999999999999999999MA1101081999999MW1711REMMET095METAR ENSR 140620Z VRB02KT 7000 -SN FEW010 SCT030 BKN045 M01/M02 Q1011 RMK WIND 1119FT 24015KT;
0157010460999992013011406504+69783+020950FM-15+0005ENSR V0201001N002110063019N0050001N1-00101-00201999999ADDGA1091+006301999GF109991999999000251999999MA1101081999999MW1851REMMET082METAR ENSR 140650Z 10004KT 5000 -SHSN VV021 M01/M02 Q1011 RMK WIND 1119FT 25011KT;
0101010460999992013011407004+69783+020950FM-12+0005ENSR V0201401N002019999999N9999999N1-00161-00221101201ADDMA1999999101121MD1610031+9999REMSYN060AAXX  14071 01046 46/// /1402 11016 21022 30112 40120 56003;
0157010460999992013011407504+69783+020950FM-15+0005ENSR V0209999V001010045019N0060001N1-00101-00101999999ADDGA1091+004501999GF109991999999000251999999MA1101191999999MW1851REMMET082METAR ENSR 140750Z VRB02KT 6000 -SHSN VV015 M01/M01 Q1012 RMK WIND 1119FT 27013KT;
