0061010430999992013010100004+70417+022817FM-12+001099999V0201401N010019999999N9999999N1-00121+99999999999REMSYN052AAXX  01001 01043 46/// /1410 11012 2//// 333 91115;
0083010430999992013010106004+70417+022817FM-12+001099999V0201301N010019999999N9999999N1-00051+99999999999ADDKA1999N-00191REMSYN058AAXX  01061 01043 46/// /1310 11005 2//// 333 21019 91115;
0061010430999992013010112004+70417+022817FM-12+001099999V0201301N009019999999N9999999N1-00061+99999999999REMSYN052AAXX  01121 01043 46/// /1309 11006 2//// 333 91115;
0051010430999992013010114004+70417+022817FM-12+001099999V0201201N008019999999N9999999N1+00011+99999999999REMSYN042AAXX  01141 01043 46/// /1208 10001 2////;
0051010430999992013010115004+70417+022817FM-12+001099999V0201301N007019999999N9999999N1+00021+99999999999REMSYN042AAXX  01151 01043 46/// /1307 10002 2////;
0051010430999992013010116004+70417+022817FM-12+001099999V0201301N008019999999N9999999N1+00051+99999999999REMSYN042AAXX  01161 01043 46/// /1308 10005 2////;
0051010430999992013010117004+70417+022817FM-12+001099999V0201201N008019999999N9999999N1+00051+99999999999REMSYN042AAXX  01171 01043 46/// /1208 10005 2////;
0083010430999992013010118004+70417+022817FM-12+001099999V0201301N007019999999N9999999N1+00021+99999999999ADDKA1120M+00061REMSYN058AAXX  01181 01043 46/// /1307 10002 2//// 333 10006 91113;
0051010430999992013010119004+70417+022817FM-12+001099999V0201301N007019999999N9999999N1+00031+99999999999REMSYN042AAXX  01191 01043 46/// /1307 10003 2////;
0051010430999992013010120004+70417+022817FM-12+001099999V0201301N007019999999N9999999N1+00021+99999999999REMSYN042AAXX  01201 01043 46/// /1307 10002 2////;
0051010430999992013010121004+70417+022817FM-12+001099999V0201301N007019999999N9999999N1+00031+99999999999REMSYN042AAXX  01211 01043 46/// /1307 10003 2////;
0051010430999992013010122004+70417+022817FM-12+001099999V0201301N007019999999N9999999N1+00021+99999999999REMSYN042AAXX  01221 01043 46/// /1307 10002 2////;
0061010430999992013010200004+70417+022817FM-12+001099999V0201101N005019999999N9999999N1+00011+99999999999REMSYN052AAXX  02001 01043 46/// /1105 10001 2//// 333 91112;
0083010430999992013010206004+70417+022817FM-12+001099999V0201501N002019999999N9999999N1-00051+99999999999ADDKA1999N-00131REMSYN058AAXX  02061 01043 46/// /1502 11005 2//// 333 21013 91108;
0051010430999992013010208004+70417+022817FM-12+001099999V0201601N003019999999N9999999N1+00001+99999999999REMSYN042AAXX  02081 01043 46/// /1603 10000 2////;
0051010430999992013010209004+70417+022817FM-12+001099999V0201501N003019999999N9999999N1+00001+99999999999REMSYN042AAXX  02091 01043 46/// /1503 10000 2////;
0051010430999992013010210004+70417+022817FM-12+001099999V0201501N004019999999N9999999N1+00021+99999999999REMSYN042AAXX  02101 01043 46/// /1504 10002 2////;
0051010430999992013010211004+70417+022817FM-12+001099999V0201501N004019999999N9999999N1+00011+99999999999REMSYN042AAXX  02111 01043 46/// /1504 10001 2////;
0061010430999992013010212004+70417+022817FM-12+001099999V0201101N002019999999N9999999N1-00031+99999999999REMSYN052AAXX  02121 01043 46/// /1102 11003 2//// 333 91105;
0051010430999992013010216004+70417+022817FM-12+001099999V0201501N005019999999N9999999N1+00001+99999999999REMSYN042AAXX  02161 01043 46/// /1505 10000 2////;
0051010430999992013010217004+70417+022817FM-12+001099999V0201601N005019999999N9999999N1+00021+99999999999REMSYN042AAXX  02171 01043 46/// /1605 10002 2////;
0083010430999992013010218004+70417+022817FM-12+001099999V0201601N004019999999N9999999N1+00031+99999999999ADDKA1120M+00051REMSYN058AAXX  02181 01043 46/// /1604 10003 2//// 333 10005 91107;
0051010430999992013010219004+70417+022817FM-12+001099999V0201501N004019999999N9999999N1+00061+99999999999REMSYN042AAXX  02191 01043 46/// /1504 10006 2////;
0051010430999992013010220004+70417+022817FM-12+001099999V0201501N003019999999N9999999N1+00071+99999999999REMSYN042AAXX  02201 01043 46/// /1503 10007 2////;
0051010430999992013010221004+70417+022817FM-12+001099999V0201501N002019999999N9999999N1+00081+99999999999REMSYN042AAXX  02211 01043 46/// /1502 10008 2////;
0051010430999992013010222004+70417+022817FM-12+001099999V0201501N002019999999N9999999N1+00101+99999999999REMSYN042AAXX  02221 01043 46/// /1502 10010 2////;
0051010430999992013010223004+70417+022817FM-12+001099999V0201601N003019999999N9999999N1+00111+99999999999REMSYN042AAXX  02231 01043 46/// /1603 10011 2////;
0061010430999992013010300004+70417+022817FM-12+001099999V0201501N004019999999N9999999N1+00121+99999999999REMSYN052AAXX  03001 01043 46/// /1504 10012 2//// 333 91105;
0051010430999992013010301004+70417+022817FM-12+001099999V0201601N005019999999N9999999N1+00121+99999999999REMSYN042AAXX  03011 01043 46/// /1605 10012 2////;
0051010430999992013010302004+70417+022817FM-12+001099999V0201501N005019999999N9999999N1+00111+99999999999REMSYN042AAXX  03021 01043 46/// /1505 10011 2////;
0051010430999992013010303004+70417+022817FM-12+001099999V0201501N005019999999N9999999N1+00071+99999999999REMSYN042AAXX  03031 01043 46/// /1505 10007 2////;
0051010430999992013010304004+70417+022817FM-12+001099999V0201501N006019999999N9999999N1+00061+99999999999REMSYN042AAXX  03041 01043 46/// /1506 10006 2////;
0051010430999992013010305004+70417+022817FM-12+001099999V0201601N006019999999N9999999N1+00081+99999999999REMSYN042AAXX  03051 01043 46/// /1606 10008 2////;
0083010430999992013010306004+70417+022817FM-12+001099999V0201501N006019999999N9999999N1+00101+99999999999ADDKA1999N+00031REMSYN058AAXX  03061 01043 46/// /1506 10010 2//// 333 20003 91109;
0051010430999992013010308004+70417+022817FM-12+001099999V0201601N010019999999N9999999N1+00001+99999999999REMSYN042AAXX  03081 01043 46/// /1610 10000 2////;
0061010430999992013010312004+70417+022817FM-12+001099999V0201501N010019999999N9999999N1-00101+99999999999REMSYN052AAXX  03121 01043 46/// /1510 11010 2//// 333 91113;
0083010430999992013010318004+70417+022817FM-12+001099999V0201601N009019999999N9999999N1-00311+99999999999ADDKA1120M+00111REMSYN058AAXX  03181 01043 46/// /1609 11031 2//// 333 10011 91115;
0061010430999992013010400004+70417+022817FM-12+001099999V0201601N007019999999N9999999N1-00311+99999999999REMSYN052AAXX  04001 01043 46/// /1607 11031 2//// 333 91112;
0051010430999992013010405004+70417+022817FM-12+001099999V0201701N005019999999N9999999N1+00021+99999999999REMSYN042AAXX  04051 01043 46/// /1705 10002 2////;
0083010430999992013010406004+70417+022817FM-12+001099999V0202301N010019999999N9999999N1+00041+99999999999ADDKA1999N-00331REMSYN058AAXX  04061 01043 46/// /2310 10004 2//// 333 21033 91113;
0051010430999992013010407004+70417+022817FM-12+001099999V0202501N010019999999N9999999N1+00111+99999999999REMSYN042AAXX  04071 01043 46/// /2510 10011 2////;
0051010430999992013010408004+70417+022817FM-12+001099999V0202601N009019999999N9999999N1+00161+99999999999REMSYN042AAXX  04081 01043 46/// /2609 10016 2////;
0051010430999992013010409004+70417+022817FM-12+001099999V0202901N009019999999N9999999N1+00251+99999999999REMSYN042AAXX  04091 01043 46/// /2909 10025 2////;
0051010430999992013010410004+70417+022817FM-12+001099999V0203301N008019999999N9999999N1+00151+99999999999REMSYN042AAXX  04101 01043 46/// /3308 10015 2////;
0051010430999992013010411004+70417+022817FM-12+001099999V0202901N014019999999N9999999N1+00251+99999999999REMSYN042AAXX  04111 01043 46/// /2914 10025 2////;
0061010430999992013010412004+70417+022817FM-12+001099999V0202701N014019999999N9999999N1+00281+99999999999REMSYN052AAXX  04121 01043 46/// /2714 10028 2//// 333 91119;
0051010430999992013010413004+70417+022817FM-12+001099999V0202701N016019999999N9999999N1+00281+99999999999REMSYN042AAXX  04131 01043 46/// /2716 10028 2////;
0051010430999992013010414004+70417+022817FM-12+001099999V0202701N016019999999N9999999N1+00241+99999999999REMSYN042AAXX  04141 01043 46/// /2716 10024 2////;
0051010430999992013010415004+70417+022817FM-12+001099999V0203001N011019999999N9999999N1+00331+99999999999REMSYN042AAXX  04151 01043 46/// /3011 10033 2////;
0051010430999992013010416004+70417+022817FM-12+001099999V0203001N013019999999N9999999N1+00171+99999999999REMSYN042AAXX  04161 01043 46/// /3013 10017 2////;
0051010430999992013010417004+70417+022817FM-12+001099999V0203101N012019999999N9999999N1+00211+99999999999REMSYN042AAXX  04171 01043 46/// /3112 10021 2////;
0083010430999992013010418004+70417+022817FM-12+001099999V0202901N011019999999N9999999N1+00111+99999999999ADDKA1120M+00341REMSYN058AAXX  04181 01043 46/// /2911 10011 2//// 333 10034 91120;
0051010430999992013010419004+70417+022817FM-12+001099999V0203301N009019999999N9999999N1+00291+99999999999REMSYN042AAXX  04191 01043 46/// /3309 10029 2////;
0051010430999992013010420004+70417+022817FM-12+001099999V0203401N004019999999N9999999N1+00221+99999999999REMSYN042AAXX  04201 01043 46/// /3404 10022 2////;
0051010430999992013010421004+70417+022817FM-12+001099999V0203601N005019999999N9999999N1+00291+99999999999REMSYN042AAXX  04211 01043 46/// /3605 10029 2////;
0051010430999992013010422004+70417+022817FM-12+001099999V0203501N010019999999N9999999N1+00171+99999999999REMSYN042AAXX  04221 01043 46/// /3510 10017 2////;
0051010430999992013010423004+70417+022817FM-12+001099999V0203001N008019999999N9999999N1+00291+99999999999REMSYN042AAXX  04231 01043 46/// /3008 10029 2////;
0061010430999992013010500004+70417+022817FM-12+001099999V0203201N009019999999N9999999N1+00241+99999999999REMSYN052AAXX  05001 01043 46/// /3209 10024 2//// 333 91117;
0051010430999992013010501004+70417+022817FM-12+001099999V0203401N007019999999N9999999N1+00261+99999999999REMSYN042AAXX  05011 01043 46/// /3407 10026 2////;
0051010430999992013010502004+70417+022817FM-12+001099999V0203601N012019999999N9999999N1+00171+99999999999REMSYN042AAXX  05021 01043 46/// /3612 10017 2////;
0051010430999992013010503004+70417+022817FM-12+001099999V0203301N006019999999N9999999N1+00191+99999999999REMSYN042AAXX  05031 01043 46/// /3306 10019 2////;
0051010430999992013010504004+70417+022817FM-12+001099999V0203201N006019999999N9999999N1+00231+99999999999REMSYN042AAXX  05041 01043 46/// /3206 10023 2////;
0051010430999992013010505004+70417+022817FM-12+001099999V0203601N010019999999N9999999N1+00051+99999999999REMSYN042AAXX  05051 01043 46/// /3610 10005 2////;
0083010430999992013010506004+70417+022817FM-12+001099999V0203501N005019999999N9999999N1+00161+99999999999ADDKA1999N+00051REMSYN058AAXX  05061 01043 46/// /3505 10016 2//// 333 20005 91115;
0051010430999992013010507004+70417+022817FM-12+001099999V0203601N004019999999N9999999N1+00181+99999999999REMSYN042AAXX  05071 01043 46/// /3604 10018 2////;
0051010430999992013010508004+70417+022817FM-12+001099999V0203301N003019999999N9999999N1+00221+99999999999REMSYN042AAXX  05081 01043 46/// /3303 10022 2////;
0051010430999992013010509004+70417+022817FM-12+001099999V0203201N002019999999N9999999N1+00201+99999999999REMSYN042AAXX  05091 01043 46/// /3202 10020 2////;
0051010430999992013010510004+70417+022817FM-12+001099999V0203401N002019999999N9999999N1+00241+99999999999REMSYN042AAXX  05101 01043 46/// /3402 10024 2////;
0051010430999992013010511004+70417+022817FM-12+001099999V0200601N002019999999N9999999N1+00201+99999999999REMSYN042AAXX  05111 01043 46/// /0602 10020 2////;
0061010430999992013010512004+70417+022817FM-12+001099999V0202101N002019999999N9999999N1+00231+99999999999REMSYN052AAXX  05121 01043 46/// /2102 10023 2//// 333 91106;
0051010430999992013010513004+70417+022817FM-12+001099999V0201501N003019999999N9999999N1+00181+99999999999REMSYN042AAXX  05131 01043 46/// /1503 10018 2////;
0051010430999992013010514004+70417+022817FM-12+001099999V0201501N004019999999N9999999N1+00161+99999999999REMSYN042AAXX  05141 01043 46/// /1504 10016 2////;
0051010430999992013010515004+70417+022817FM-12+001099999V0201401N005019999999N9999999N1+00101+99999999999REMSYN042AAXX  05151 01043 46/// /1405 10010 2////;
0051010430999992013010516004+70417+022817FM-12+001099999V0201401N007019999999N9999999N1+00101+99999999999REMSYN042AAXX  05161 01043 46/// /1407 10010 2////;
0051010430999992013010517004+70417+022817FM-12+001099999V0201401N006019999999N9999999N1+00111+99999999999REMSYN042AAXX  05171 01043 46/// /1406 10011 2////;
0083010430999992013010518004+70417+022817FM-12+001099999V0201401N007019999999N9999999N1+00081+99999999999ADDKA1120M+00251REMSYN058AAXX  05181 01043 46/// /1407 10008 2//// 333 10025 91110;
0051010430999992013010519004+70417+022817FM-12+001099999V0201401N007019999999N9999999N1+00081+99999999999REMSYN042AAXX  05191 01043 46/// /1407 10008 2////;
0051010430999992013010520004+70417+022817FM-12+001099999V0201401N007019999999N9999999N1+00081+99999999999REMSYN042AAXX  05201 01043 46/// /1407 10008 2////;
0051010430999992013010521004+70417+022817FM-12+001099999V0201401N008019999999N9999999N1+00051+99999999999REMSYN042AAXX  05211 01043 46/// /1408 10005 2////;
0051010430999992013010522004+70417+022817FM-12+001099999V0201401N009019999999N9999999N1+00031+99999999999REMSYN042AAXX  05221 01043 46/// /1409 10003 2////;
0061010430999992013010600004+70417+022817FM-12+001099999V0201401N011019999999N9999999N1+00011+99999999999REMSYN052AAXX  06001 01043 46/// /1411 10001 2//// 333 91115;
0083010430999992013010606004+70417+022817FM-12+001099999V0201401N011019999999N9999999N1-00071+99999999999ADDKA1999N-00081REMSYN058AAXX  06061 01043 46/// /1411 11007 2//// 333 21008 91118;
0061010430999992013010612004+70417+022817FM-12+001099999V0201501N013019999999N9999999N1-00141+99999999999REMSYN052AAXX  06121 01043 46/// /1513 11014 2//// 333 91120;
0083010430999992013010618004+70417+022817FM-12+001099999V0201601N015019999999N9999999N1-00021+99999999999ADDKA1120M-00021REMSYN058AAXX  06181 01043 46/// /1615 11002 2//// 333 11002 91120;
0051010430999992013010619004+70417+022817FM-12+001099999V0201601N013019999999N9999999N1+00001+99999999999REMSYN042AAXX  06191 01043 46/// /1613 10000 2////;
0051010430999992013010620004+70417+022817FM-12+001099999V0201601N013019999999N9999999N1+00061+99999999999REMSYN042AAXX  06201 01043 46/// /1613 10006 2////;
0051010430999992013010621004+70417+022817FM-12+001099999V0201601N012019999999N9999999N1+00091+99999999999REMSYN042AAXX  06211 01043 46/// /1612 10009 2////;
0051010430999992013010622004+70417+022817FM-12+001099999V0201601N011019999999N9999999N1+00161+99999999999REMSYN042AAXX  06221 01043 46/// /1611 10016 2////;
0051010430999992013010623004+70417+022817FM-12+001099999V0202501N010019999999N9999999N1+00461+99999999999REMSYN042AAXX  06231 01043 46/// /2510 10046 2////;
0061010430999992013010700004+70417+022817FM-12+001099999V0202701N013019999999N9999999N1+00511+99999999999REMSYN052AAXX  07001 01043 46/// /2713 10051 2//// 333 91118;
0051010430999992013010701004+70417+022817FM-12+001099999V0202701N014019999999N9999999N1+00521+99999999999REMSYN042AAXX  07011 01043 46/// /2714 10052 2////;
0051010430999992013010702004+70417+022817FM-12+001099999V0202801N011019999999N9999999N1+00521+99999999999REMSYN042AAXX  07021 01043 46/// /2811 10052 2////;
0051010430999992013010703004+70417+022817FM-12+001099999V0202701N012019999999N9999999N1+00531+99999999999REMSYN042AAXX  07031 01043 46/// /2712 10053 2////;
0051010430999992013010704004+70417+022817FM-12+001099999V0202801N011019999999N9999999N1+00471+99999999999REMSYN042AAXX  07041 01043 46/// /2811 10047 2////;
0051010430999992013010705004+70417+022817FM-12+001099999V0202601N013019999999N9999999N1+00511+99999999999REMSYN042AAXX  07051 01043 46/// /2613 10051 2////;
0083010430999992013010706004+70417+022817FM-12+001099999V0202801N010019999999N9999999N1+00511+99999999999ADDKA1999N-00021REMSYN058AAXX  07061 01043 46/// /2810 10051 2//// 333 21002 91120;
0051010430999992013010707004+70417+022817FM-12+001099999V0202601N011019999999N9999999N1+00541+99999999999REMSYN042AAXX  07071 01043 46/// /2611 10054 2////;
0051010430999992013010708004+70417+022817FM-12+001099999V0202701N007019999999N9999999N1+00531+99999999999REMSYN042AAXX  07081 01043 46/// /2707 10053 2////;
0051010430999992013010709004+70417+022817FM-12+001099999V0202501N007019999999N9999999N1+00491+99999999999REMSYN042AAXX  07091 01043 46/// /2507 10049 2////;
0051010430999992013010710004+70417+022817FM-12+001099999V0202501N004019999999N9999999N1+00381+99999999999REMSYN042AAXX  07101 01043 46/// /2504 10038 2////;
0051010430999992013010711004+70417+022817FM-12+001099999V0200501N001019999999N9999999N1+00321+99999999999REMSYN042AAXX  07111 01043 46/// /0501 10032 2////;
0061010430999992013010712004+70417+022817FM-12+001099999V0201101N004019999999N9999999N1+00381+99999999999REMSYN052AAXX  07121 01043 46/// /1104 10038 2//// 333 91115;
0051010430999992013010713004+70417+022817FM-12+001099999V0200701N004019999999N9999999N1+00311+99999999999REMSYN042AAXX  07131 01043 46/// /0704 10031 2////;
0051010430999992013010714004+70417+022817FM-12+001099999V0200201N002019999999N9999999N1+00451+99999999999REMSYN042AAXX  07141 01043 46/// /0202 10045 2////;
0051010430999992013010715004+70417+022817FM-12+001099999V0200201N001019999999N9999999N1+00411+99999999999REMSYN042AAXX  07151 01043 46/// /0201 10041 2////;
0051010430999992013010716004+70417+022817FM-12+001099999V0201601N005019999999N9999999N1+00371+99999999999REMSYN042AAXX  07161 01043 46/// /1605 10037 2////;
0051010430999992013010717004+70417+022817FM-12+001099999V0201401N008019999999N9999999N1+00221+99999999999REMSYN042AAXX  07171 01043 46/// /1408 10022 2////;
0083010430999992013010718004+70417+022817FM-12+001099999V0201401N007019999999N9999999N1+00171+99999999999ADDKA1120M+00551REMSYN058AAXX  07181 01043 46/// /1407 10017 2//// 333 10055 91112;
0051010430999992013010719004+70417+022817FM-12+001099999V0201501N010019999999N9999999N1+00171+99999999999REMSYN042AAXX  07191 01043 46/// /1510 10017 2////;
0051010430999992013010720004+70417+022817FM-12+001099999V0201501N009019999999N9999999N1+00171+99999999999REMSYN042AAXX  07201 01043 46/// /1509 10017 2////;
0051010430999992013010721004+70417+022817FM-12+001099999V0201601N010019999999N9999999N1+00111+99999999999REMSYN042AAXX  07211 01043 46/// /1610 10011 2////;
0051010430999992013010722004+70417+022817FM-12+001099999V0201501N010019999999N9999999N1+00061+99999999999REMSYN042AAXX  07221 01043 46/// /1510 10006 2////;
0051010430999992013010723004+70417+022817FM-12+001099999V0201501N012019999999N9999999N1+00041+99999999999REMSYN042AAXX  07231 01043 46/// /1512 10004 2////;
0061010430999992013010800004+70417+022817FM-12+001099999V0201501N011019999999N9999999N1+00021+99999999999REMSYN052AAXX  08001 01043 46/// /1511 10002 2//// 333 91115;
0051010430999992013010801004+70417+022817FM-12+001099999V0201501N011019999999N9999999N1+00061+99999999999REMSYN042AAXX  08011 01043 46/// /1511 10006 2////;
0051010430999992013010802004+70417+022817FM-12+001099999V0201501N009019999999N9999999N1+00021+99999999999REMSYN042AAXX  08021 01043 46/// /1509 10002 2////;
0051010430999992013010803004+70417+022817FM-12+001099999V0201601N011019999999N9999999N1+00061+99999999999REMSYN042AAXX  08031 01043 46/// /1611 10006 2////;
0051010430999992013010804004+70417+022817FM-12+001099999V0201501N010019999999N9999999N1+00141+99999999999REMSYN042AAXX  08041 01043 46/// /1510 10014 2////;
0051010430999992013010805004+70417+022817FM-12+001099999V0201501N008019999999N9999999N1+00171+99999999999REMSYN042AAXX  08051 01043 46/// /1508 10017 2////;
0083010430999992013010806004+70417+022817FM-12+001099999V0201401N007019999999N9999999N1+00201+99999999999ADDKA1999N+00011REMSYN058AAXX  08061 01043 46/// /1407 10020 2//// 333 20001 91115;
0051010430999992013010807004+70417+022817FM-12+001099999V0201301N008019999999N9999999N1+00231+99999999999REMSYN042AAXX  08071 01043 46/// /1308 10023 2////;
0051010430999992013010808004+70417+022817FM-12+001099999V0201401N009019999999N9999999N1+00161+99999999999REMSYN042AAXX  08081 01043 46/// /1409 10016 2////;
0051010430999992013010809004+70417+022817FM-12+001099999V0201501N012019999999N9999999N1+00021+99999999999REMSYN042AAXX  08091 01043 46/// /1512 10002 2////;
0061010430999992013010812004+70417+022817FM-12+001099999V0201501N013019999999N9999999N1-00171+99999999999REMSYN052AAXX  08121 01043 46/// /1513 11017 2//// 333 91117;
0083010430999992013010818004+70417+022817FM-12+001099999V0201601N010019999999N9999999N1-00171+99999999999ADDKA1120M+00251REMSYN058AAXX  08181 01043 46/// /1610 11017 2//// 333 10025 91118;
0051010430999992013010823004+70417+022817FM-12+001099999V0201401N006019999999N9999999N1+00041+99999999999REMSYN042AAXX  08231 01043 46/// /1406 10004 2////;
0061010430999992013010900004+70417+022817FM-12+001099999V0201301N005019999999N9999999N1+00101+99999999999REMSYN052AAXX  09001 01043 46/// /1305 10010 2//// 333 91118;
0051010430999992013010901004+70417+022817FM-12+001099999V0201201N005019999999N9999999N1+00121+99999999999REMSYN042AAXX  09011 01043 46/// /1205 10012 2////;
0051010430999992013010902004+70417+022817FM-12+001099999V0201401N005019999999N9999999N1+00131+99999999999REMSYN042AAXX  09021 01043 46/// /1405 10013 2////;
0051010430999992013010903004+70417+022817FM-12+001099999V0201401N005019999999N9999999N1+00141+99999999999REMSYN042AAXX  09031 01043 46/// /1405 10014 2////;
0051010430999992013010904004+70417+022817FM-12+001099999V0201601N006019999999N9999999N1+00081+99999999999REMSYN042AAXX  09041 01043 46/// /1606 10008 2////;
0051010430999992013010905004+70417+022817FM-12+001099999V0201601N004019999999N9999999N1+00091+99999999999REMSYN042AAXX  09051 01043 46/// /1604 10009 2////;
0083010430999992013010906004+70417+022817FM-12+001099999V0201701N002019999999N9999999N1+00081+99999999999ADDKA1999N-00231REMSYN058AAXX  09061 01043 46/// /1702 10008 2//// 333 21023 91109;
0051010430999992013010907004+70417+022817FM-12+001099999V0200601N002019999999N9999999N1+00081+99999999999REMSYN042AAXX  09071 01043 46/// /0602 10008 2////;
0051010430999992013010908004+70417+022817FM-12+001099999V0200501N002019999999N9999999N1+00161+99999999999REMSYN042AAXX  09081 01043 46/// /0502 10016 2////;
0051010430999992013010909004+70417+022817FM-12+001099999V0200301N001019999999N9999999N1+00191+99999999999REMSYN042AAXX  09091 01043 46/// /0301 10019 2////;
0051010430999992013010910004+70417+022817FM-12+001099999V0202501N008019999999N9999999N1+00261+99999999999REMSYN042AAXX  09101 01043 46/// /2508 10026 2////;
0051010430999992013010911004+70417+022817FM-12+001099999V0202601N008019999999N9999999N1+00321+99999999999REMSYN042AAXX  09111 01043 46/// /2608 10032 2////;
0061010430999992013010912004+70417+022817FM-12+001099999V0203001N006019999999N9999999N1+00271+99999999999REMSYN052AAXX  09121 01043 46/// /3006 10027 2//// 333 91111;
0051010430999992013010913004+70417+022817FM-12+001099999V0203501N007019999999N9999999N1+00311+99999999999REMSYN042AAXX  09131 01043 46/// /3507 10031 2////;
0051010430999992013010914004+70417+022817FM-12+001099999V0200101N010019999999N9999999N1+00351+99999999999REMSYN042AAXX  09141 01043 46/// /0110 10035 2////;
0051010430999992013010915004+70417+022817FM-12+001099999V0200101N007019999999N9999999N1+00311+99999999999REMSYN042AAXX  09151 01043 46/// /0107 10031 2////;
0051010430999992013010916004+70417+022817FM-12+001099999V0200101N006019999999N9999999N1+00301+99999999999REMSYN042AAXX  09161 01043 46/// /0106 10030 2////;
0051010430999992013010917004+70417+022817FM-12+001099999V0203601N008019999999N9999999N1+00261+99999999999REMSYN042AAXX  09171 01043 46/// /3608 10026 2////;
0083010430999992013010918004+70417+022817FM-12+001099999V0203501N004019999999N9999999N1+00261+99999999999ADDKA1120M+00361REMSYN058AAXX  09181 01043 46/// /3504 10026 2//// 333 10036 91113;
0051010430999992013010919004+70417+022817FM-12+001099999V0200101N006019999999N9999999N1+00221+99999999999REMSYN042AAXX  09191 01043 46/// /0106 10022 2////;
0051010430999992013010920004+70417+022817FM-12+001099999V0203501N004019999999N9999999N1+00261+99999999999REMSYN042AAXX  09201 01043 46/// /3504 10026 2////;
0051010430999992013010921004+70417+022817FM-12+001099999V0203301N006019999999N9999999N1+00301+99999999999REMSYN042AAXX  09211 01043 46/// /3306 10030 2////;
0051010430999992013010922004+70417+022817FM-12+001099999V0203501N008019999999N9999999N1+00291+99999999999REMSYN042AAXX  09221 01043 46/// /3508 10029 2////;
0051010430999992013010923004+70417+022817FM-12+001099999V0200201N006019999999N9999999N1+00291+99999999999REMSYN042AAXX  09231 01043 46/// /0206 10029 2////;
0061010430999992013011000004+70417+022817FM-12+001099999V0200101N007019999999N9999999N1+00281+99999999999REMSYN052AAXX  10001 01043 46/// /0107 10028 2//// 333 91113;
0051010430999992013011001004+70417+022817FM-12+001099999V0200201N010019999999N9999999N1+00221+99999999999REMSYN042AAXX  10011 01043 46/// /0210 10022 2////;
0051010430999992013011002004+70417+022817FM-12+001099999V0200201N007019999999N9999999N1+00271+99999999999REMSYN042AAXX  10021 01043 46/// /0207 10027 2////;
0051010430999992013011003004+70417+022817FM-12+001099999V0200101N006019999999N9999999N1+00261+99999999999REMSYN042AAXX  10031 01043 46/// /0106 10026 2////;
0051010430999992013011004004+70417+022817FM-12+001099999V0200101N006019999999N9999999N1+00281+99999999999REMSYN042AAXX  10041 01043 46/// /0106 10028 2////;
0051010430999992013011005004+70417+022817FM-12+001099999V0203301N005019999999N9999999N1+00271+99999999999REMSYN042AAXX  10051 01043 46/// /3305 10027 2////;
0083010430999992013011006004+70417+022817FM-12+001099999V0200101N005019999999N9999999N1+00201+99999999999ADDKA1999N+00201REMSYN058AAXX  10061 01043 46/// /0105 10020 2//// 333 20020 91112;
0051010430999992013011007004+70417+022817FM-12+001099999V0200101N004019999999N9999999N1+00201+99999999999REMSYN042AAXX  10071 01043 46/// /0104 10020 2////;
0051010430999992013011008004+70417+022817FM-12+001099999V0203601N004019999999N9999999N1+00241+99999999999REMSYN042AAXX  10081 01043 46/// /3604 10024 2////;
0051010430999992013011009004+70417+022817FM-12+001099999V0203401N004019999999N9999999N1+00261+99999999999REMSYN042AAXX  10091 01043 46/// /3404 10026 2////;
0051010430999992013011010004+70417+022817FM-12+001099999V0203201N004019999999N9999999N1+00251+99999999999REMSYN042AAXX  10101 01043 46/// /3204 10025 2////;
0051010430999992013011011004+70417+022817FM-12+001099999V0203501N006019999999N9999999N1+00231+99999999999REMSYN042AAXX  10111 01043 46/// /3506 10023 2////;
0061010430999992013011012004+70417+022817FM-12+001099999V0203301N005019999999N9999999N1+00201+99999999999REMSYN052AAXX  10121 01043 46/// /3305 10020 2//// 333 91109;
0051010430999992013011013004+70417+022817FM-12+001099999V0203401N006019999999N9999999N1+00201+99999999999REMSYN042AAXX  10131 01043 46/// /3406 10020 2////;
0051010430999992013011014004+70417+022817FM-12+001099999V0203101N004019999999N9999999N1+00221+99999999999REMSYN042AAXX  10141 01043 46/// /3104 10022 2////;
0051010430999992013011015004+70417+022817FM-12+001099999V0203001N005019999999N9999999N1+00221+99999999999REMSYN042AAXX  10151 01043 46/// /3005 10022 2////;
0051010430999992013011016004+70417+022817FM-12+001099999V0202901N006019999999N9999999N1+00261+99999999999REMSYN042AAXX  10161 01043 46/// /2906 10026 2////;
0051010430999992013011017004+70417+022817FM-12+001099999V0202901N007019999999N9999999N1+00251+99999999999REMSYN042AAXX  10171 01043 46/// /2907 10025 2////;
0083010430999992013011018004+70417+022817FM-12+001099999V0203401N006019999999N9999999N1+00171+99999999999ADDKA1120M+00281REMSYN058AAXX  10181 01043 46/// /3406 10017 2//// 333 10028 91111;
0051010430999992013011019004+70417+022817FM-12+001099999V0202901N008019999999N9999999N1+00241+99999999999REMSYN042AAXX  10191 01043 46/// /2908 10024 2////;
0051010430999992013011020004+70417+022817FM-12+001099999V0203101N008019999999N9999999N1+00211+99999999999REMSYN042AAXX  10201 01043 46/// /3108 10021 2////;
0051010430999992013011021004+70417+022817FM-12+001099999V0202901N007019999999N9999999N1+00171+99999999999REMSYN042AAXX  10211 01043 46/// /2907 10017 2////;
0051010430999992013011022004+70417+022817FM-12+001099999V0202701N010019999999N9999999N1+00181+99999999999REMSYN042AAXX  10221 01043 46/// /2710 10018 2////;
0051010430999992013011023004+70417+022817FM-12+001099999V0202701N011019999999N9999999N1+00211+99999999999REMSYN042AAXX  10231 01043 46/// /2711 10021 2////;
0061010430999992013011100004+70417+022817FM-12+001099999V0202801N011019999999N9999999N1+00221+99999999999REMSYN052AAXX  11001 01043 46/// /2811 10022 2//// 333 91115;
0051010430999992013011101004+70417+022817FM-12+001099999V0202701N010019999999N9999999N1+00281+99999999999REMSYN042AAXX  11011 01043 46/// /2710 10028 2////;
0051010430999992013011102004+70417+022817FM-12+001099999V0202701N010019999999N9999999N1+00311+99999999999REMSYN042AAXX  11021 01043 46/// /2710 10031 2////;
0051010430999992013011103004+70417+022817FM-12+001099999V0202701N010019999999N9999999N1+00301+99999999999REMSYN042AAXX  11031 01043 46/// /2710 10030 2////;
0051010430999992013011104004+70417+022817FM-12+001099999V0202701N011019999999N9999999N1+00341+99999999999REMSYN042AAXX  11041 01043 46/// /2711 10034 2////;
0051010430999992013011105004+70417+022817FM-12+001099999V0202601N011019999999N9999999N1+00351+99999999999REMSYN042AAXX  11051 01043 46/// /2611 10035 2////;
0083010430999992013011106004+70417+022817FM-12+001099999V0202801N013019999999N9999999N1+00281+99999999999ADDKA1999N+00091REMSYN058AAXX  11061 01043 46/// /2813 10028 2//// 333 20009 91117;
0051010430999992013011107004+70417+022817FM-12+001099999V0202701N014019999999N9999999N1+00321+99999999999REMSYN042AAXX  11071 01043 46/// /2714 10032 2////;
0051010430999992013011108004+70417+022817FM-12+001099999V0202701N017019999999N9999999N1+00261+99999999999REMSYN042AAXX  11081 01043 46/// /2717 10026 2////;
0051010430999992013011109004+70417+022817FM-12+001099999V0202601N016019999999N9999999N1+00371+99999999999REMSYN042AAXX  11091 01043 46/// /2616 10037 2////;
0051010430999992013011110004+70417+022817FM-12+001099999V0202701N014019999999N9999999N1+00371+99999999999REMSYN042AAXX  11101 01043 46/// /2714 10037 2////;
0051010430999992013011111004+70417+022817FM-12+001099999V0202701N016019999999N9999999N1+00391+99999999999REMSYN042AAXX  11111 01043 46/// /2716 10039 2////;
0061010430999992013011112004+70417+022817FM-12+001099999V0202601N018019999999N9999999N1+00381+99999999999REMSYN052AAXX  11121 01043 46/// /2618 10038 2//// 333 91123;
0051010430999992013011113004+70417+022817FM-12+001099999V0202701N018019999999N9999999N1+00351+99999999999REMSYN042AAXX  11131 01043 46/// /2718 10035 2////;
0051010430999992013011114004+70417+022817FM-12+001099999V0202601N014019999999N9999999N1+00351+99999999999REMSYN042AAXX  11141 01043 46/// /2614 10035 2////;
0051010430999992013011115004+70417+022817FM-12+001099999V0202601N014019999999N9999999N1+00371+99999999999REMSYN042AAXX  11151 01043 46/// /2614 10037 2////;
0051010430999992013011116004+70417+022817FM-12+001099999V0202601N015019999999N9999999N1+00431+99999999999REMSYN042AAXX  11161 01043 46/// /2615 10043 2////;
0051010430999992013011117004+70417+022817FM-12+001099999V0202601N014019999999N9999999N1+00441+99999999999REMSYN042AAXX  11171 01043 46/// /2614 10044 2////;
0083010430999992013011118004+70417+022817FM-12+001099999V0202601N016019999999N9999999N1+00441+99999999999ADDKA1120M+00451REMSYN058AAXX  11181 01043 46/// /2616 10044 2//// 333 10045 91122;
0051010430999992013011119004+70417+022817FM-12+001099999V0202501N014019999999N9999999N1+00431+99999999999REMSYN042AAXX  11191 01043 46/// /2514 10043 2////;
0051010430999992013011120004+70417+022817FM-12+001099999V0202601N015019999999N9999999N1+00421+99999999999REMSYN042AAXX  11201 01043 46/// /2615 10042 2////;
0051010430999992013011121004+70417+022817FM-12+001099999V0202601N016019999999N9999999N1+00411+99999999999REMSYN042AAXX  11211 01043 46/// /2616 10041 2////;
0051010430999992013011122004+70417+022817FM-12+001099999V0202601N018019999999N9999999N1+00441+99999999999REMSYN042AAXX  11221 01043 46/// /2618 10044 2////;
0051010430999992013011123004+70417+022817FM-12+001099999V0202601N021019999999N9999999N1+00461+99999999999REMSYN042AAXX  11231 01043 46/// /2621 10046 2////;
0061010430999992013011200004+70417+022817FM-12+001099999V0202901N013019999999N9999999N1+00451+99999999999REMSYN052AAXX  12001 01043 46/// /2913 10045 2//// 333 91126;
0051010430999992013011201004+70417+022817FM-12+001099999V0203001N015019999999N9999999N1+00481+99999999999REMSYN042AAXX  12011 01043 46/// /3015 10048 2////;
0051010430999992013011202004+70417+022817FM-12+001099999V0203001N016019999999N9999999N1+00491+99999999999REMSYN042AAXX  12021 01043 46/// /3016 10049 2////;
0051010430999992013011203004+70417+022817FM-12+001099999V0203001N015019999999N9999999N1+00471+99999999999REMSYN042AAXX  12031 01043 46/// /3015 10047 2////;
0051010430999992013011204004+70417+022817FM-12+001099999V0202901N016019999999N9999999N1+00451+99999999999REMSYN042AAXX  12041 01043 46/// /2916 10045 2////;
0051010430999992013011205004+70417+022817FM-12+001099999V0203001N014019999999N9999999N1+00431+99999999999REMSYN042AAXX  12051 01043 46/// /3014 10043 2////;
0083010430999992013011206004+70417+022817FM-12+001099999V0202901N013019999999N9999999N1+00411+99999999999ADDKA1999N+00391REMSYN058AAXX  12061 01043 46/// /2913 10041 2//// 333 20039 91121;
0051010430999992013011207004+70417+022817FM-12+001099999V0203101N011019999999N9999999N1+00411+99999999999REMSYN042AAXX  12071 01043 46/// /3111 10041 2////;
0051010430999992013011208004+70417+022817FM-12+001099999V0203001N012019999999N9999999N1+00401+99999999999REMSYN042AAXX  12081 01043 46/// /3012 10040 2////;
0051010430999992013011209004+70417+022817FM-12+001099999V0203001N011019999999N9999999N1+00401+99999999999REMSYN042AAXX  12091 01043 46/// /3011 10040 2////;
0051010430999992013011210004+70417+022817FM-12+001099999V0203001N010019999999N9999999N1+00401+99999999999REMSYN042AAXX  12101 01043 46/// /3010 10040 2////;
0051010430999992013011211004+70417+022817FM-12+001099999V0203101N010019999999N9999999N1+00411+99999999999REMSYN042AAXX  12111 01043 46/// /3110 10041 2////;
0061010430999992013011212004+70417+022817FM-12+001099999V0203101N011019999999N9999999N1+00421+99999999999REMSYN052AAXX  12121 01043 46/// /3111 10042 2//// 333 91117;
0051010430999992013011213004+70417+022817FM-12+001099999V0203201N010019999999N9999999N1+00411+99999999999REMSYN042AAXX  12131 01043 46/// /3210 10041 2////;
0051010430999992013011214004+70417+022817FM-12+001099999V0203201N010019999999N9999999N1+00391+99999999999REMSYN042AAXX  12141 01043 46/// /3210 10039 2////;
0051010430999992013011215004+70417+022817FM-12+001099999V0203301N009019999999N9999999N1+00381+99999999999REMSYN042AAXX  12151 01043 46/// /3309 10038 2////;
0051010430999992013011216004+70417+022817FM-12+001099999V0203201N011019999999N9999999N1+00371+99999999999REMSYN042AAXX  12161 01043 46/// /3211 10037 2////;
0051010430999992013011217004+70417+022817FM-12+001099999V0203201N009019999999N9999999N1+00361+99999999999REMSYN042AAXX  12171 01043 46/// /3209 10036 2////;
0083010430999992013011218004+70417+022817FM-12+001099999V0203101N008019999999N9999999N1+00341+99999999999ADDKA1120M+00431REMSYN058AAXX  12181 01043 46/// /3108 10034 2//// 333 10043 91114;
0051010430999992013011219004+70417+022817FM-12+001099999V0203201N009019999999N9999999N1+00341+99999999999REMSYN042AAXX  12191 01043 46/// /3209 10034 2////;
0051010430999992013011220004+70417+022817FM-12+001099999V0203201N008019999999N9999999N1+00331+99999999999REMSYN042AAXX  12201 01043 46/// /3208 10033 2////;
0051010430999992013011221004+70417+022817FM-12+001099999V0203201N009019999999N9999999N1+00301+99999999999REMSYN042AAXX  12211 01043 46/// /3209 10030 2////;
0051010430999992013011222004+70417+022817FM-12+001099999V0203301N011019999999N9999999N1+00311+99999999999REMSYN042AAXX  12221 01043 46/// /3311 10031 2////;
0051010430999992013011223004+70417+022817FM-12+001099999V0203401N010019999999N9999999N1+00311+99999999999REMSYN042AAXX  12231 01043 46/// /3410 10031 2////;
0061010430999992013011300004+70417+022817FM-12+001099999V0203401N011019999999N9999999N1+00291+99999999999REMSYN052AAXX  13001 01043 46/// /3411 10029 2//// 333 91114;
0051010430999992013011301004+70417+022817FM-12+001099999V0203301N010019999999N9999999N1+00291+99999999999REMSYN042AAXX  13011 01043 46/// /3310 10029 2////;
0051010430999992013011302004+70417+022817FM-12+001099999V0203301N009019999999N9999999N1+00291+99999999999REMSYN042AAXX  13021 01043 46/// /3309 10029 2////;
0051010430999992013011303004+70417+022817FM-12+001099999V0203401N011019999999N9999999N1+00281+99999999999REMSYN042AAXX  13031 01043 46/// /3411 10028 2////;
0051010430999992013011304004+70417+022817FM-12+001099999V0203301N009019999999N9999999N1+00261+99999999999REMSYN042AAXX  13041 01043 46/// /3309 10026 2////;
0051010430999992013011305004+70417+022817FM-12+001099999V0203401N007019999999N9999999N1+00261+99999999999REMSYN042AAXX  13051 01043 46/// /3407 10026 2////;
0083010430999992013011306004+70417+022817FM-12+001099999V0203201N007019999999N9999999N1+00251+99999999999ADDKA1999N+00241REMSYN058AAXX  13061 01043 46/// /3207 10025 2//// 333 20024 91113;
0051010430999992013011307004+70417+022817FM-12+001099999V0203501N008019999999N9999999N1+00231+99999999999REMSYN042AAXX  13071 01043 46/// /3508 10023 2////;
0051010430999992013011308004+70417+022817FM-12+001099999V0203001N007019999999N9999999N1+00261+99999999999REMSYN042AAXX  13081 01043 46/// /3007 10026 2////;
0051010430999992013011309004+70417+022817FM-12+001099999V0203201N007019999999N9999999N1+00221+99999999999REMSYN042AAXX  13091 01043 46/// /3207 10022 2////;
0051010430999992013011310004+70417+022817FM-12+001099999V0203001N006019999999N9999999N1+00181+99999999999REMSYN042AAXX  13101 01043 46/// /3006 10018 2////;
0051010430999992013011311004+70417+022817FM-12+001099999V0203101N007019999999N9999999N1+00241+99999999999REMSYN042AAXX  13111 01043 46/// /3107 10024 2////;
0061010430999992013011312004+70417+022817FM-12+001099999V0203001N008019999999N9999999N1+00251+99999999999REMSYN052AAXX  13121 01043 46/// /3008 10025 2//// 333 91113;
0051010430999992013011313004+70417+022817FM-12+001099999V0203101N007019999999N9999999N1+00241+99999999999REMSYN042AAXX  13131 01043 46/// /3107 10024 2////;
0051010430999992013011314004+70417+022817FM-12+001099999V0203101N006019999999N9999999N1+00251+99999999999REMSYN042AAXX  13141 01043 46/// /3106 10025 2////;
0051010430999992013011315004+70417+022817FM-12+001099999V0202901N006019999999N9999999N1+00251+99999999999REMSYN042AAXX  13151 01043 46/// /2906 10025 2////;
0051010430999992013011316004+70417+022817FM-12+001099999V0203401N008019999999N9999999N1+00191+99999999999REMSYN042AAXX  13161 01043 46/// /3408 10019 2////;
0051010430999992013011317004+70417+022817FM-12+001099999V0203601N007019999999N9999999N1+00181+99999999999REMSYN042AAXX  13171 01043 46/// /3607 10018 2////;
0083010430999992013011318004+70417+022817FM-12+001099999V0203601N005019999999N9999999N1+00181+99999999999ADDKA1120M+00281REMSYN058AAXX  13181 01043 46/// /3605 10018 2//// 333 10028 91111;
0051010430999992013011319004+70417+022817FM-12+001099999V0200201N006019999999N9999999N1+00151+99999999999REMSYN042AAXX  13191 01043 46/// /0206 10015 2////;
0051010430999992013011320004+70417+022817FM-12+001099999V0200201N005019999999N9999999N1+00141+99999999999REMSYN042AAXX  13201 01043 46/// /0205 10014 2////;
0051010430999992013011321004+70417+022817FM-12+001099999V0203501N002019999999N9999999N1+00121+99999999999REMSYN042AAXX  13211 01043 46/// /3502 10012 2////;
0051010430999992013011322004+70417+022817FM-12+001099999V0203301N003019999999N9999999N1+00131+99999999999REMSYN042AAXX  13221 01043 46/// /3303 10013 2////;
0051010430999992013011323004+70417+022817FM-12+001099999V0200401N003019999999N9999999N1+00121+99999999999REMSYN042AAXX  13231 01043 46/// /0403 10012 2////;
0061010430999992013011400004+70417+022817FM-12+001099999V0200201N005019999999N9999999N1+00111+99999999999REMSYN052AAXX  14001 01043 46/// /0205 10011 2//// 333 91109;
0051010430999992013011401004+70417+022817FM-12+001099999V0200101N004019999999N9999999N1+00071+99999999999REMSYN042AAXX  14011 01043 46/// /0104 10007 2////;
0083010430999992013011406004+70417+022817FM-12+001099999V0201201N002019999999N9999999N1-00191+99999999999ADDKA1999N-00191REMSYN058AAXX  14061 01043 46/// /1202 11019 2//// 333 21019 91107;
0061010430999992013011412004+70417+022817FM-12+001099999V0201601N002019999999N9999999N1-00171+99999999999REMSYN052AAXX  14121 01043 46/// /1602 11017 2//// 333 91104;
0083010430999992013011418004+70417+022817FM-12+001099999V0203101N006019999999N9999999N1-00091+99999999999ADDKA1120M-00011REMSYN058AAXX  14181 01043 46/// /3106 11009 2//// 333 11001 91109;
0061010430999992013011500004+70417+022817FM-12+001099999V0201101N002019999999N9999999N1-00121+99999999999REMSYN052AAXX  15001 01043 46/// /1102 11012 2//// 333 91109;
0083010430999992013011506004+70417+022817FM-12+001099999V0201501N006019999999N9999999N1-00261+99999999999ADDKA1999N-00271REMSYN058AAXX  15061 01043 46/// /1506 11026 2//// 333 21027 91108;
0061010430999992013011512004+70417+022817FM-12+001099999V0201401N007019999999N9999999N1-00371+99999999999REMSYN052AAXX  15121 01043 46/// /1407 11037 2//// 333 91109;
0083010430999992013011518004+70417+022817FM-12+001099999V0201501N010019999999N9999999N1-00491+99999999999ADDKA1120M-00261REMSYN058AAXX  15181 01043 46/// /1510 11049 2//// 333 11026 91112;
0061010430999992013011600004+70417+022817FM-12+001099999V0201501N012019999999N9999999N1-00601+99999999999REMSYN052AAXX  16001 01043 46/// /1512 11060 2//// 333 91114;
0083010430999992013011606004+70417+022817FM-12+001099999V0201601N012019999999N9999999N1-00581+99999999999ADDKA1999N-00621REMSYN058AAXX  16061 01043 46/// /1612 11058 2//// 333 21062 91116;
0061010430999992013011612004+70417+022817FM-12+001099999V0201601N010019999999N9999999N1-00371+99999999999REMSYN052AAXX  16121 01043 46/// /1610 11037 2//// 333 91117;
0051010430999992013011616004+70417+022817FM-12+001099999V0202501N012019999999N9999999N1+00381+99999999999REMSYN042AAXX  16161 01043 46/// /2512 10038 2////;
0051010430999992013011617004+70417+022817FM-12+001099999V0202501N014019999999N9999999N1+00381+99999999999REMSYN042AAXX  16171 01043 46/// /2514 10038 2////;
0083010430999992013011618004+70417+022817FM-12+001099999V0202601N012019999999N9999999N1+00391+99999999999ADDKA1120M+00391REMSYN058AAXX  16181 01043 46/// /2612 10039 2//// 333 10039 91117;
0051010430999992013011619004+70417+022817FM-12+001099999V0202601N011019999999N9999999N1+00391+99999999999REMSYN042AAXX  16191 01043 46/// /2611 10039 2////;
0051010430999992013011620004+70417+022817FM-12+001099999V0202601N011019999999N9999999N1+00381+99999999999REMSYN042AAXX  16201 01043 46/// /2611 10038 2////;
0051010430999992013011621004+70417+022817FM-12+001099999V0202501N012019999999N9999999N1+00381+99999999999REMSYN042AAXX  16211 01043 46/// /2512 10038 2////;
0051010430999992013011622004+70417+022817FM-12+001099999V0202601N012019999999N9999999N1+00381+99999999999REMSYN042AAXX  16221 01043 46/// /2612 10038 2////;
0051010430999992013011623004+70417+022817FM-12+001099999V0202601N011019999999N9999999N1+00381+99999999999REMSYN042AAXX  16231 01043 46/// /2611 10038 2////;
0061010430999992013011700004+70417+022817FM-12+001099999V0202601N012019999999N9999999N1+00361+99999999999REMSYN052AAXX  17001 01043 46/// /2612 10036 2//// 333 91117;
0051010430999992013011701004+70417+022817FM-12+001099999V0202601N012019999999N9999999N1+00371+99999999999REMSYN042AAXX  17011 01043 46/// /2612 10037 2////;
0051010430999992013011702004+70417+022817FM-12+001099999V0202701N011019999999N9999999N1+00371+99999999999REMSYN042AAXX  17021 01043 46/// /2711 10037 2////;
0051010430999992013011703004+70417+022817FM-12+001099999V0202701N011019999999N9999999N1+00351+99999999999REMSYN042AAXX  17031 01043 46/// /2711 10035 2////;
0051010430999992013011704004+70417+022817FM-12+001099999V0202601N010019999999N9999999N1+00341+99999999999REMSYN042AAXX  17041 01043 46/// /2610 10034 2////;
0051010430999992013011705004+70417+022817FM-12+001099999V0202501N010019999999N9999999N1+00331+99999999999REMSYN042AAXX  17051 01043 46/// /2510 10033 2////;
0083010430999992013011706004+70417+022817FM-12+001099999V0202501N010019999999N9999999N1+00341+99999999999ADDKA1999N+00331REMSYN058AAXX  17061 01043 46/// /2510 10034 2//// 333 20033 91116;
0051010430999992013011707004+70417+022817FM-12+001099999V0202501N010019999999N9999999N1+00361+99999999999REMSYN042AAXX  17071 01043 46/// /2510 10036 2////;
0051010430999992013011708004+70417+022817FM-12+001099999V0202601N010019999999N9999999N1+00361+99999999999REMSYN042AAXX  17081 01043 46/// /2610 10036 2////;
0051010430999992013011709004+70417+022817FM-12+001099999V0202501N012019999999N9999999N1+00351+99999999999REMSYN042AAXX  17091 01043 46/// /2512 10035 2////;
0051010430999992013011710004+70417+022817FM-12+001099999V0202401N012019999999N9999999N1+00341+99999999999REMSYN042AAXX  17101 01043 46/// /2412 10034 2////;
0051010430999992013011711004+70417+022817FM-12+001099999V0202501N010019999999N9999999N1+00351+99999999999REMSYN042AAXX  17111 01043 46/// /2510 10035 2////;
0061010430999992013011712004+70417+022817FM-12+001099999V0202401N007019999999N9999999N1+00331+99999999999REMSYN052AAXX  17121 01043 46/// /2407 10033 2//// 333 91118;
0051010430999992013011713004+70417+022817FM-12+001099999V0202501N010019999999N9999999N1+00311+99999999999REMSYN042AAXX  17131 01043 46/// /2510 10031 2////;
0051010430999992013011714004+70417+022817FM-12+001099999V0202501N008019999999N9999999N1+00321+99999999999REMSYN042AAXX  17141 01043 46/// /2508 10032 2////;
0051010430999992013011715004+70417+022817FM-12+001099999V0202501N006019999999N9999999N1+00321+99999999999REMSYN042AAXX  17151 01043 46/// /2506 10032 2////;
0051010430999992013011716004+70417+022817FM-12+001099999V0202501N007019999999N9999999N1+00311+99999999999REMSYN042AAXX  17161 01043 46/// /2507 10031 2////;
0051010430999992013011717004+70417+022817FM-12+001099999V0202701N005019999999N9999999N1+00341+99999999999REMSYN042AAXX  17171 01043 46/// /2705 10034 2////;
0083010430999992013011718004+70417+022817FM-12+001099999V0202401N003019999999N9999999N1+00341+99999999999ADDKA1120M+00381REMSYN058AAXX  17181 01043 46/// /2403 10034 2//// 333 10038 91113;
0051010430999992013011719004+70417+022817FM-12+001099999V0201201N003019999999N9999999N1+00271+99999999999REMSYN042AAXX  17191 01043 46/// /1203 10027 2////;
0051010430999992013011720004+70417+022817FM-12+001099999V0201301N005019999999N9999999N1+00161+99999999999REMSYN042AAXX  17201 01043 46/// /1305 10016 2////;
0051010430999992013011721004+70417+022817FM-12+001099999V0201201N005019999999N9999999N1+00161+99999999999REMSYN042AAXX  17211 01043 46/// /1205 10016 2////;
0051010430999992013011722004+70417+022817FM-12+001099999V0201301N007019999999N9999999N1+00191+99999999999REMSYN042AAXX  17221 01043 46/// /1307 10019 2////;
0051010430999992013011723004+70417+022817FM-12+001099999V0201301N008019999999N9999999N1+00061+99999999999REMSYN042AAXX  17231 01043 46/// /1308 10006 2////;
0061010430999992013011800004+70417+022817FM-12+001099999V0201301N009019999999N9999999N1+00061+99999999999REMSYN052AAXX  18001 01043 46/// /1309 10006 2//// 333 91114;
0051010430999992013011801004+70417+022817FM-12+001099999V0201401N008019999999N9999999N1+00111+99999999999REMSYN042AAXX  18011 01043 46/// /1408 10011 2////;
0051010430999992013011802004+70417+022817FM-12+001099999V0201301N008019999999N9999999N1+00191+99999999999REMSYN042AAXX  18021 01043 46/// /1308 10019 2////;
0051010430999992013011803004+70417+022817FM-12+001099999V0201701N003019999999N9999999N1+00361+99999999999REMSYN042AAXX  18031 01043 46/// /1703 10036 2////;
0051010430999992013011804004+70417+022817FM-12+001099999V0202601N012019999999N9999999N1+00461+99999999999REMSYN042AAXX  18041 01043 46/// /2612 10046 2////;
0051010430999992013011805004+70417+022817FM-12+001099999V0202501N014019999999N9999999N1+00401+99999999999REMSYN042AAXX  18051 01043 46/// /2514 10040 2////;
0083010430999992013011806004+70417+022817FM-12+001099999V0202501N015019999999N9999999N1+00341+99999999999ADDKA1999N+00031REMSYN058AAXX  18061 01043 46/// /2515 10034 2//// 333 20003 91119;
0051010430999992013011807004+70417+022817FM-12+001099999V0202601N019019999999N9999999N1+00461+99999999999REMSYN042AAXX  18071 01043 46/// /2619 10046 2////;
0051010430999992013011808004+70417+022817FM-12+001099999V0202701N017019999999N9999999N1+00471+99999999999REMSYN042AAXX  18081 01043 46/// /2717 10047 2////;
0051010430999992013011809004+70417+022817FM-12+001099999V0202801N017019999999N9999999N1+00471+99999999999REMSYN042AAXX  18091 01043 46/// /2817 10047 2////;
0051010430999992013011810004+70417+022817FM-12+001099999V0202701N016019999999N9999999N1+00421+99999999999REMSYN042AAXX  18101 01043 46/// /2716 10042 2////;
0051010430999992013011811004+70417+022817FM-12+001099999V0202901N013019999999N9999999N1+00421+99999999999REMSYN042AAXX  18111 01043 46/// /2913 10042 2////;
0061010430999992013011812004+70417+022817FM-12+001099999V0202801N015019999999N9999999N1+00441+99999999999REMSYN052AAXX  18121 01043 46/// /2815 10044 2//// 333 91124;
0051010430999992013011813004+70417+022817FM-12+001099999V0202701N014019999999N9999999N1+00411+99999999999REMSYN042AAXX  18131 01043 46/// /2714 10041 2////;
0051010430999992013011814004+70417+022817FM-12+001099999V0202601N014019999999N9999999N1+00381+99999999999REMSYN042AAXX  18141 01043 46/// /2614 10038 2////;
0051010430999992013011815004+70417+022817FM-12+001099999V0202601N014019999999N9999999N1+00391+99999999999REMSYN042AAXX  18151 01043 46/// /2614 10039 2////;
0051010430999992013011816004+70417+022817FM-12+001099999V0202701N013019999999N9999999N1+00371+99999999999REMSYN042AAXX  18161 01043 46/// /2713 10037 2////;
0051010430999992013011817004+70417+022817FM-12+001099999V0202701N013019999999N9999999N1+00321+99999999999REMSYN042AAXX  18171 01043 46/// /2713 10032 2////;
0083010430999992013011818004+70417+022817FM-12+001099999V0202801N010019999999N9999999N1+00381+99999999999ADDKA1120M+00511REMSYN058AAXX  18181 01043 46/// /2810 10038 2//// 333 10051 91120;
0051010430999992013011819004+70417+022817FM-12+001099999V0203201N008019999999N9999999N1+00211+99999999999REMSYN042AAXX  18191 01043 46/// /3208 10021 2////;
0051010430999992013011820004+70417+022817FM-12+001099999V0200201N015019999999N9999999N1+00121+99999999999REMSYN042AAXX  18201 01043 46/// /0215 10012 2////;
0051010430999992013011821004+70417+022817FM-12+001099999V0200101N010019999999N9999999N1+00031+99999999999REMSYN042AAXX  18211 01043 46/// /0110 10003 2////;
0051010430999992013011822004+70417+022817FM-12+001099999V0203301N004019999999N9999999N1+00021+99999999999REMSYN042AAXX  18221 01043 46/// /3304 10002 2////;
0051010430999992013011823004+70417+022817FM-12+001099999V0202601N007019999999N9999999N1+00071+99999999999REMSYN042AAXX  18231 01043 46/// /2607 10007 2////;
0061010430999992013011900004+70417+022817FM-12+001099999V0200201N011019999999N9999999N1+00051+99999999999REMSYN052AAXX  19001 01043 46/// /0211 10005 2//// 333 91117;
0051010430999992013011901004+70417+022817FM-12+001099999V0203601N013019999999N9999999N1+00031+99999999999REMSYN042AAXX  19011 01043 46/// /3613 10003 2////;
0051010430999992013011902004+70417+022817FM-12+001099999V0203601N014019999999N9999999N1+00051+99999999999REMSYN042AAXX  19021 01043 46/// /3614 10005 2////;
0083010430999992013011906004+70417+022817FM-12+001099999V0203401N005019999999N9999999N1-00121+99999999999ADDKA1999N-00161REMSYN058AAXX  19061 01043 46/// /3405 11012 2//// 333 21016 91120;
0051010430999992013011907004+70417+022817FM-12+001099999V0200101N005019999999N9999999N1+00081+99999999999REMSYN042AAXX  19071 01043 46/// /0105 10008 2////;
0051010430999992013011908004+70417+022817FM-12+001099999V0203501N006019999999N9999999N1+00031+99999999999REMSYN042AAXX  19081 01043 46/// /3506 10003 2////;
0051010430999992013011909004+70417+022817FM-12+001099999V0200301N009019999999N9999999N1+00001+99999999999REMSYN042AAXX  19091 01043 46/// /0309 10000 2////;
0051010430999992013011910004+70417+022817FM-12+001099999V0200301N012019999999N9999999N1+00061+99999999999REMSYN042AAXX  19101 01043 46/// /0312 10006 2////;
0051010430999992013011911004+70417+022817FM-12+001099999V0200101N012019999999N9999999N1+00151+99999999999REMSYN042AAXX  19111 01043 46/// /0112 10015 2////;
0061010430999992013011912004+70417+022817FM-12+001099999V0200101N013019999999N9999999N1-00041+99999999999REMSYN052AAXX  19121 01043 46/// /0113 11004 2//// 333 91120;
0051010430999992013011914004+70417+022817FM-12+001099999V0200101N014019999999N9999999N1+00021+99999999999REMSYN042AAXX  19141 01043 46/// /0114 10002 2////;
0083010430999992013011918004+70417+022817FM-12+001099999V0203601N012019999999N9999999N1-00011+99999999999ADDKA1120M+00181REMSYN058AAXX  19181 01043 46/// /3612 11001 2//// 333 10018 91123;
0061010430999992013012000004+70417+022817FM-12+001099999V0200201N010019999999N9999999N1-00201+99999999999REMSYN052AAXX  20001 01043 46/// /0210 11020 2//// 333 91118;
0083010430999992013012006004+70417+022817FM-12+001099999V0200101N007019999999N9999999N1-00071+99999999999ADDKA1999N-00271REMSYN058AAXX  20061 01043 46/// /0107 11007 2//// 333 21027 91116;
0051010430999992013012010004+70417+022817FM-12+001099999V0203101N007019999999N9999999N1+00001+99999999999REMSYN042AAXX  20101 01043 46/// /3107 10000 2////;
0051010430999992013012011004+70417+022817FM-12+001099999V0202801N011019999999N9999999N1+00071+99999999999REMSYN042AAXX  20111 01043 46/// /2811 10007 2////;
0061010430999992013012012004+70417+022817FM-12+001099999V0202801N012019999999N9999999N1+00091+99999999999REMSYN052AAXX  20121 01043 46/// /2812 10009 2//// 333 91116;
0051010430999992013012013004+70417+022817FM-12+001099999V0202701N014019999999N9999999N1+00091+99999999999REMSYN042AAXX  20131 01043 46/// /2714 10009 2////;
0051010430999992013012014004+70417+022817FM-12+001099999V0202601N016019999999N9999999N1+00081+99999999999REMSYN042AAXX  20141 01043 46/// /2616 10008 2////;
0051010430999992013012015004+70417+022817FM-12+001099999V0202601N017019999999N9999999N1+00081+99999999999REMSYN042AAXX  20151 01043 46/// /2617 10008 2////;
0051010430999992013012016004+70417+022817FM-12+001099999V0202601N017019999999N9999999N1+00071+99999999999REMSYN042AAXX  20161 01043 46/// /2617 10007 2////;
0051010430999992013012017004+70417+022817FM-12+001099999V0202601N018019999999N9999999N1+00071+99999999999REMSYN042AAXX  20171 01043 46/// /2618 10007 2////;
0083010430999992013012018004+70417+022817FM-12+001099999V0202601N016019999999N9999999N1+00101+99999999999ADDKA1120M+00131REMSYN058AAXX  20181 01043 46/// /2616 10010 2//// 333 10013 91123;
0051010430999992013012019004+70417+022817FM-12+001099999V0202601N016019999999N9999999N1+00111+99999999999REMSYN042AAXX  20191 01043 46/// /2616 10011 2////;
0051010430999992013012020004+70417+022817FM-12+001099999V0202601N018019999999N9999999N1+00121+99999999999REMSYN042AAXX  20201 01043 46/// /2618 10012 2////;
0051010430999992013012021004+70417+022817FM-12+001099999V0202501N020019999999N9999999N1+00141+99999999999REMSYN042AAXX  20211 01043 46/// /2520 10014 2////;
0051010430999992013012022004+70417+022817FM-12+001099999V0202601N019019999999N9999999N1+00221+99999999999REMSYN042AAXX  20221 01043 46/// /2619 10022 2////;
0051010430999992013012023004+70417+022817FM-12+001099999V0202601N017019999999N9999999N1+00181+99999999999REMSYN042AAXX  20231 01043 46/// /2617 10018 2////;
0061010430999992013012100004+70417+022817FM-12+001099999V0202701N015019999999N9999999N1+00161+99999999999REMSYN052AAXX  21001 01043 46/// /2715 10016 2//// 333 91125;
0051010430999992013012101004+70417+022817FM-12+001099999V0202901N014019999999N9999999N1+00291+99999999999REMSYN042AAXX  21011 01043 46/// /2914 10029 2////;
0051010430999992013012102004+70417+022817FM-12+001099999V0202901N015019999999N9999999N1+00311+99999999999REMSYN042AAXX  21021 01043 46/// /2915 10031 2////;
0051010430999992013012103004+70417+022817FM-12+001099999V0202801N017019999999N9999999N1+00361+99999999999REMSYN042AAXX  21031 01043 46/// /2817 10036 2////;
0051010430999992013012104004+70417+022817FM-12+001099999V0202701N018019999999N9999999N1+00381+99999999999REMSYN042AAXX  21041 01043 46/// /2718 10038 2////;
0051010430999992013012105004+70417+022817FM-12+001099999V0202701N014019999999N9999999N1+00381+99999999999REMSYN042AAXX  21051 01043 46/// /2714 10038 2////;
0083010430999992013012106004+70417+022817FM-12+001099999V0202801N013019999999N9999999N1+00291+99999999999ADDKA1999N+00061REMSYN058AAXX  21061 01043 46/// /2813 10029 2//// 333 20006 91124;
0051010430999992013012107004+70417+022817FM-12+001099999V0202701N017019999999N9999999N1+00411+99999999999REMSYN042AAXX  21071 01043 46/// /2717 10041 2////;
0051010430999992013012108004+70417+022817FM-12+001099999V0202801N016019999999N9999999N1+00241+99999999999REMSYN042AAXX  21081 01043 46/// /2816 10024 2////;
0051010430999992013012109004+70417+022817FM-12+001099999V0202701N016019999999N9999999N1+00301+99999999999REMSYN042AAXX  21091 01043 46/// /2716 10030 2////;
0051010430999992013012110004+70417+022817FM-12+001099999V0203101N013019999999N9999999N1+00381+99999999999REMSYN042AAXX  21101 01043 46/// /3113 10038 2////;
0051010430999992013012111004+70417+022817FM-12+001099999V0202901N014019999999N9999999N1+00371+99999999999REMSYN042AAXX  21111 01043 46/// /2914 10037 2////;
0061010430999992013012112004+70417+022817FM-12+001099999V0203401N014019999999N9999999N1+00311+99999999999REMSYN052AAXX  21121 01043 46/// /3414 10031 2//// 333 91124;
0051010430999992013012113004+70417+022817FM-12+001099999V0203501N015019999999N9999999N1+00261+99999999999REMSYN042AAXX  21131 01043 46/// /3515 10026 2////;
0051010430999992013012114004+70417+022817FM-12+001099999V0203301N014019999999N9999999N1+00311+99999999999REMSYN042AAXX  21141 01043 46/// /3314 10031 2////;
0051010430999992013012115004+70417+022817FM-12+001099999V0203101N011019999999N9999999N1+00181+99999999999REMSYN042AAXX  21151 01043 46/// /3111 10018 2////;
0051010430999992013012116004+70417+022817FM-12+001099999V0203301N015019999999N9999999N1+00171+99999999999REMSYN042AAXX  21161 01043 46/// /3315 10017 2////;
0051010430999992013012117004+70417+022817FM-12+001099999V0203301N014019999999N9999999N1+00121+99999999999REMSYN042AAXX  21171 01043 46/// /3314 10012 2////;
0083010430999992013012118004+70417+022817FM-12+001099999V0203001N012019999999N9999999N1+00081+99999999999ADDKA1120M+00421REMSYN058AAXX  21181 01043 46/// /3012 10008 2//// 333 10042 91122;
0051010430999992013012119004+70417+022817FM-12+001099999V0203001N014019999999N9999999N1+00121+99999999999REMSYN042AAXX  21191 01043 46/// /3014 10012 2////;
0061010430999992013012200004+70417+022817FM-12+001099999V0200201N014019999999N9999999N1-00131+99999999999REMSYN052AAXX  22001 01043 46/// /0214 11013 2//// 333 91124;
0083010430999992013012206004+70417+022817FM-12+001099999V0203201N006019999999N9999999N1-00201+99999999999ADDKA1999N-00211REMSYN058AAXX  22061 01043 46/// /3206 11020 2//// 333 21021 91117;
0061010430999992013012212004+70417+022817FM-12+001099999V0203501N012019999999N9999999N1-00531+99999999999REMSYN052AAXX  22121 01043 46/// /3512 11053 2//// 333 91124;
0083010430999992013012218004+70417+022817FM-12+001099999V0203301N012019999999N9999999N1-00531+99999999999ADDKA1120M-00181REMSYN058AAXX  22181 01043 46/// /3312 11053 2//// 333 11018 91125;
0061010430999992013012300004+70417+022817FM-12+001099999V0203501N014019999999N9999999N1-00531+99999999999REMSYN052AAXX  23001 01043 46/// /3514 11053 2//// 333 91125;
0083010430999992013012306004+70417+022817FM-12+001099999V0203401N010019999999N9999999N1-00391+99999999999ADDKA1999N-00611REMSYN058AAXX  23061 01043 46/// /3410 11039 2//// 333 21061 91123;
0061010430999992013012312004+70417+022817FM-12+001099999V0200201N012019999999N9999999N1-00161+99999999999REMSYN052AAXX  23121 01043 46/// /0212 11016 2//// 333 91124;
0051010430999992013012315004+70417+022817FM-12+001099999V0200101N014019999999N9999999N1+00021+99999999999REMSYN042AAXX  23151 01043 46/// /0114 10002 2////;
0083010430999992013012318004+70417+022817FM-12+001099999V0203601N010019999999N9999999N1-00151+99999999999ADDKA1120M+00021REMSYN058AAXX  23181 01043 46/// /3610 11015 2//// 333 10002 91119;
0061010430999992013012400004+70417+022817FM-12+001099999V0200701N001019999999N9999999N1-00261+99999999999REMSYN052AAXX  24001 01043 46/// /0701 11026 2//// 333 91122;
0083010430999992013012406004+70417+022817FM-12+001099999V0203201N006019999999N9999999N1-00191+99999999999ADDKA1999N-00281REMSYN058AAXX  24061 01043 46/// /3206 11019 2//// 333 21028 91114;
0061010430999992013012412004+70417+022817FM-12+001099999V0203101N004019999999N9999999N1-00311+99999999999REMSYN052AAXX  24121 01043 46/// /3104 11031 2//// 333 91110;
0083010430999992013012418004+70417+022817FM-12+001099999V0203101N002019999999N9999999N1-00291+99999999999ADDKA1120M-00171REMSYN058AAXX  24181 01043 46/// /3102 11029 2//// 333 11017 91108;
0061010430999992013012500004+70417+022817FM-12+001099999V0203001N004019999999N9999999N1-00291+99999999999REMSYN052AAXX  25001 01043 46/// /3004 11029 2//// 333 91107;
0083010430999992013012506004+70417+022817FM-12+001099999V0203401N008019999999N9999999N1-00291+99999999999ADDKA1999N-00391REMSYN058AAXX  25061 01043 46/// /3408 11029 2//// 333 21039 91113;
0061010430999992013012512004+70417+022817FM-12+001099999V0202901N004019999999N9999999N1-00251+99999999999REMSYN052AAXX  25121 01043 46/// /2904 11025 2//// 333 91113;
0083010430999992013012518004+70417+022817FM-12+001099999V0201801N004019999999N9999999N1-00361+99999999999ADDKA1120M-00181REMSYN058AAXX  25181 01043 46/// /1804 11036 2//// 333 11018 91113;
0061010430999992013012600004+70417+022817FM-12+001099999V0202701N007019999999N9999999N1-00271+99999999999REMSYN052AAXX  26001 01043 46/// /2707 11027 2//// 333 91115;
0083010430999992013012606004+70417+022817FM-12+001099999V0201101N004019999999N9999999N1-00411+99999999999ADDKA1999N-00431REMSYN058AAXX  26061 01043 46/// /1104 11041 2//// 333 21043 91110;
0061010430999992013012612004+70417+022817FM-12+001099999V0201501N008019999999N9999999N1-00561+99999999999REMSYN052AAXX  26121 01043 46/// /1508 11056 2//// 333 91110;
0083010430999992013012618004+70417+022817FM-12+001099999V0201501N008019999999N9999999N1-00621+99999999999ADDKA1120M-00381REMSYN058AAXX  26181 01043 46/// /1508 11062 2//// 333 11038 91112;
0061010430999992013012700004+70417+022817FM-12+001099999V0201501N009019999999N9999999N1-00721+99999999999REMSYN052AAXX  27001 01043 46/// /1509 11072 2//// 333 91111;
0083010430999992013012706004+70417+022817FM-12+001099999V0201501N008019999999N9999999N1-00821+99999999999ADDKA1999N-00831REMSYN058AAXX  27061 01043 46/// /1508 11082 2//// 333 21083 91112;
0061010430999992013012712004+70417+022817FM-12+001099999V0201501N009019999999N9999999N1-00821+99999999999REMSYN052AAXX  27121 01043 46/// /1509 11082 2//// 333 91111;
0083010430999992013012718004+70417+022817FM-12+001099999V0201601N010019999999N9999999N1-00761+99999999999ADDKA1120M-00691REMSYN058AAXX  27181 01043 46/// /1610 11076 2//// 333 11069 91113;
0061010430999992013012800004+70417+022817FM-12+001099999V0201601N009019999999N9999999N1-00701+99999999999REMSYN052AAXX  28001 01043 46/// /1609 11070 2//// 333 91112;
0083010430999992013012806004+70417+022817FM-12+001099999V0201501N010019999999N9999999N1-00771+99999999999ADDKA1999N-00781REMSYN058AAXX  28061 01043 46/// /1510 11077 2//// 333 21078 91113;
0061010430999992013012812004+70417+022817FM-12+001099999V0201501N012019999999N9999999N1-00761+99999999999REMSYN052AAXX  28121 01043 46/// /1512 11076 2//// 333 91115;
0083010430999992013012818004+70417+022817FM-12+001099999V0201501N009019999999N9999999N1-00581+99999999999ADDKA1120M-00551REMSYN058AAXX  28181 01043 46/// /1509 11058 2//// 333 11055 91114;
0061010430999992013012900004+70417+022817FM-12+001099999V0201401N010019999999N9999999N1-00651+99999999999REMSYN052AAXX  29001 01043 46/// /1410 11065 2//// 333 91114;
0083010430999992013012906004+70417+022817FM-12+001099999V0201401N011019999999N9999999N1-00811+99999999999ADDKA1999N-00811REMSYN058AAXX  29061 01043 46/// /1411 11081 2//// 333 21081 91116;
0061010430999992013012912004+70417+022817FM-12+001099999V0201301N009019999999N9999999N1-00791+99999999999REMSYN052AAXX  29121 01043 46/// /1309 11079 2//// 333 91115;
0083010430999992013012918004+70417+022817FM-12+001099999V0201501N007019999999N9999999N1-00711+99999999999ADDKA1120M-00701REMSYN058AAXX  29181 01043 46/// /1507 11071 2//// 333 11070 91114;
0061010430999992013013000004+70417+022817FM-12+001099999V0201601N012019999999N9999999N1-00731+99999999999REMSYN052AAXX  30001 01043 46/// /1612 11073 2//// 333 91114;
0083010430999992013013006004+70417+022817FM-12+001099999V0201601N013019999999N9999999N1-00641+99999999999ADDKA1999N-00741REMSYN058AAXX  30061 01043 46/// /1613 11064 2//// 333 21074 91117;
0061010430999992013013012004+70417+022817FM-12+001099999V0201601N014019999999N9999999N1-00541+99999999999REMSYN052AAXX  30121 01043 46/// /1614 11054 2//// 333 91117;
0083010430999992013013018004+70417+022817FM-12+001099999V0201401N011019999999N9999999N1-00391+99999999999ADDKA1120M-00371REMSYN058AAXX  30181 01043 46/// /1411 11039 2//// 333 11037 91117;
0061010430999992013013100004+70417+022817FM-12+001099999V0201501N008019999999N9999999N1-00201+99999999999REMSYN052AAXX  31001 01043 46/// /1508 11020 2//// 333 91115;
0083010430999992013013106004+70417+022817FM-12+001099999V0201301N008019999999N9999999N1-00091+99999999999ADDKA1999N-00431REMSYN058AAXX  31061 01043 46/// /1308 11009 2//// 333 21043 91112;
0061010430999992013013112004+70417+022817FM-12+001099999V0201301N007019999999N9999999N1-00161+99999999999REMSYN052AAXX  31121 01043 46/// /1307 11016 2//// 333 91114;
0083010430999992013013118004+70417+022817FM-12+001099999V0201301N006019999999N9999999N1-00121+99999999999ADDKA1120M-00081REMSYN058AAXX  31181 01043 46/// /1306 11012 2//// 333 11008 91111;
0061010430999992013020100004+70417+022817FM-12+001099999V0201201N005019999999N9999999N1-00151+99999999999REMSYN052AAXX  01001 01043 46/// /1205 11015 2//// 333 91109;
0083010430999992013020106004+70417+022817FM-12+001099999V0201201N006019999999N9999999N1-00201+99999999999ADDKA1999N-00211REMSYN058AAXX  01061 01043 46/// /1206 11020 2//// 333 21021 91109;
0061010430999992013020112004+70417+022817FM-12+001099999V0201501N006019999999N9999999N1-00101+99999999999REMSYN052AAXX  01121 01043 46/// /1506 11010 2//// 333 91109;
0083010430999992013020118004+70417+022817FM-12+001099999V0201401N006019999999N9999999N1-00051+99999999999ADDKA1120M-00021REMSYN058AAXX  01181 01043 46/// /1406 11005 2//// 333 11002 91110;
0051010430999992013020122004+70417+022817FM-12+001099999V0201501N006019999999N9999999N1+00011+99999999999REMSYN042AAXX  01221 01043 46/// /1506 10001 2////;
0061010430999992013020200004+70417+022817FM-12+001099999V0201501N005019999999N9999999N1-00011+99999999999REMSYN052AAXX  02001 01043 46/// /1505 11001 2//// 333 91111;
0051010430999992013020203004+70417+022817FM-12+001099999V0201501N009019999999N9999999N1+00001+99999999999REMSYN042AAXX  02031 01043 46/// /1509 10000 2////;
0083010430999992013020206004+70417+022817FM-12+001099999V0201501N007019999999N9999999N1-00051+99999999999ADDKA1999N-00061REMSYN058AAXX  02061 01043 46/// /1507 11005 2//// 333 21006 91111;
0061010430999992013020212004+70417+022817FM-12+001099999V0201301N007019999999N9999999N1-00261+99999999999REMSYN052AAXX  02121 01043 46/// /1307 11026 2//// 333 91114;
0083010430999992013020218004+70417+022817FM-12+001099999V0201401N008019999999N9999999N1-00401+99999999999ADDKA1120M-00051REMSYN058AAXX  02181 01043 46/// /1408 11040 2//// 333 11005 91112;
0061010430999992013020300004+70417+022817FM-12+001099999V0201401N010019999999N9999999N1-00441+99999999999REMSYN052AAXX  03001 01043 46/// /1410 11044 2//// 333 91114;
0083010430999992013020306004+70417+022817FM-12+001099999V0201301N008019999999N9999999N1-00481+99999999999ADDKA1999N-00531REMSYN058AAXX  03061 01043 46/// /1308 11048 2//// 333 21053 91116;
0061010430999992013020312004+70417+022817FM-12+001099999V0201401N008019999999N9999999N1-00571+99999999999REMSYN052AAXX  03121 01043 46/// /1408 11057 2//// 333 91114;
0083010430999992013020318004+70417+022817FM-12+001099999V0201301N006019999999N9999999N1-00511+99999999999ADDKA1120M-00481REMSYN058AAXX  03181 01043 46/// /1306 11051 2//// 333 11048 91113;
0061010430999992013020400004+70417+022817FM-12+001099999V0201401N010019999999N9999999N1-00521+99999999999REMSYN052AAXX  04001 01043 46/// /1410 11052 2//// 333 91114;
0083010430999992013020406004+70417+022817FM-12+001099999V0201301N007019999999N9999999N1-00641+99999999999ADDKA1999N-00651REMSYN058AAXX  04061 01043 46/// /1307 11064 2//// 333 21065 91114;
0061010430999992013020412004+70417+022817FM-12+001099999V0201301N008019999999N9999999N1-00611+99999999999REMSYN052AAXX  04121 01043 46/// /1308 11061 2//// 333 91117;
0083010430999992013020418004+70417+022817FM-12+001099999V0201301N010019999999N9999999N1-00441+99999999999ADDKA1120M-00441REMSYN058AAXX  04181 01043 46/// /1310 11044 2//// 333 11044 91122;
0061010430999992013020500004+70417+022817FM-12+001099999V0201301N011019999999N9999999N1-00391+99999999999REMSYN052AAXX  05001 01043 46/// /1311 11039 2//// 333 91117;
0083010430999992013020506004+70417+022817FM-12+001099999V0201301N011019999999N9999999N1-00451+99999999999ADDKA1999N-00471REMSYN058AAXX  05061 01043 46/// /1311 11045 2//// 333 21047 91121;
0061010430999992013020512004+70417+022817FM-12+001099999V0201401N012019999999N9999999N1-00441+99999999999REMSYN052AAXX  05121 01043 46/// /1412 11044 2//// 333 91119;
0083010430999992013020518004+70417+022817FM-12+001099999V0201401N009019999999N9999999N1-00401+99999999999ADDKA1120M-00391REMSYN058AAXX  05181 01043 46/// /1409 11040 2//// 333 11039 91119;
0061010430999992013020600004+70417+022817FM-12+001099999V0201301N009019999999N9999999N1-00521+99999999999REMSYN052AAXX  06001 01043 46/// /1309 11052 2//// 333 91117;
0083010430999992013020606004+70417+022817FM-12+001099999V0201401N011019999999N9999999N1-00681+99999999999ADDKA1999N-00691REMSYN058AAXX  06061 01043 46/// /1411 11068 2//// 333 21069 91117;
0061010430999992013020612004+70417+022817FM-12+001099999V0201601N014019999999N9999999N1-00621+99999999999REMSYN052AAXX  06121 01043 46/// /1614 11062 2//// 333 91119;
0083010430999992013020618004+70417+022817FM-12+001099999V0201701N012019999999N9999999N1-00561+99999999999ADDKA1120M-00541REMSYN058AAXX  06181 01043 46/// /1712 11056 2//// 333 11054 91117;
0061010430999992013020700004+70417+022817FM-12+001099999V0201601N010019999999N9999999N1-00671+99999999999REMSYN052AAXX  07001 01043 46/// /1610 11067 2//// 333 91114;
0083010430999992013020706004+70417+022817FM-12+001099999V0201601N010019999999N9999999N1-00711+99999999999ADDKA1999N-00711REMSYN058AAXX  07061 01043 46/// /1610 11071 2//// 333 21071 91112;
0061010430999992013020712004+70417+022817FM-12+001099999V0201601N010019999999N9999999N1-00671+99999999999REMSYN052AAXX  07121 01043 46/// /1610 11067 2//// 333 91113;
0083010430999992013020718004+70417+022817FM-12+001099999V0201601N010019999999N9999999N1-00651+99999999999ADDKA1120M-00631REMSYN058AAXX  07181 01043 46/// /1610 11065 2//// 333 11063 91113;
0061010430999992013020800004+70417+022817FM-12+001099999V0201601N011019999999N9999999N1-00611+99999999999REMSYN052AAXX  08001 01043 46/// /1611 11061 2//// 333 91113;
0083010430999992013020806004+70417+022817FM-12+001099999V0201601N008019999999N9999999N1-00541+99999999999ADDKA1999N-00661REMSYN058AAXX  08061 01043 46/// /1608 11054 2//// 333 21066 91112;
0061010430999992013020812004+70417+022817FM-12+001099999V0201501N008019999999N9999999N1-00471+99999999999REMSYN052AAXX  08121 01043 46/// /1508 11047 2//// 333 91110;
0083010430999992013020818004+70417+022817FM-12+001099999V0201601N010019999999N9999999N1-00451+99999999999ADDKA1120M-00441REMSYN058AAXX  08181 01043 46/// /1610 11045 2//// 333 11044 91111;
0061010430999992013020900004+70417+022817FM-12+001099999V0201601N011019999999N9999999N1-00441+99999999999REMSYN052AAXX  09001 01043 46/// /1611 11044 2//// 333 91113;
0083010430999992013020906004+70417+022817FM-12+001099999V0201601N010019999999N9999999N1-00461+99999999999ADDKA1999N-00471REMSYN058AAXX  09061 01043 46/// /1610 11046 2//// 333 21047 91114;
0061010430999992013020912004+70417+022817FM-12+001099999V0201601N012019999999N9999999N1-00421+99999999999REMSYN052AAXX  09121 01043 46/// /1612 11042 2//// 333 91116;
0083010430999992013020918004+70417+022817FM-12+001099999V0201601N012019999999N9999999N1-00351+99999999999ADDKA1120M-00321REMSYN058AAXX  09181 01043 46/// /1612 11035 2//// 333 11032 91115;
0061010430999992013021000004+70417+022817FM-12+001099999V0201601N010019999999N9999999N1-00181+99999999999REMSYN052AAXX  10001 01043 46/// /1610 11018 2//// 333 91115;
0083010430999992013021006004+70417+022817FM-12+001099999V0201501N007019999999N9999999N1-00171+99999999999ADDKA1999N-00361REMSYN058AAXX  10061 01043 46/// /1507 11017 2//// 333 21036 91112;
0061010430999992013021012004+70417+022817FM-12+001099999V0201601N005019999999N9999999N1-00131+99999999999REMSYN052AAXX  10121 01043 46/// /1605 11013 2//// 333 91109;
0083010430999992013021018004+70417+022817FM-12+001099999V0201601N007019999999N9999999N1-00161+99999999999ADDKA1120M-00041REMSYN058AAXX  10181 01043 46/// /1607 11016 2//// 333 11004 91108;
0061010430999992013021100004+70417+022817FM-12+001099999V0201601N008019999999N9999999N1-00191+99999999999REMSYN052AAXX  11001 01043 46/// /1608 11019 2//// 333 91110;
0083010430999992013021106004+70417+022817FM-12+001099999V0201601N008019999999N9999999N1-00221+99999999999ADDKA1999N-00231REMSYN058AAXX  11061 01043 46/// /1608 11022 2//// 333 21023 91111;
0061010430999992013021112004+70417+022817FM-12+001099999V0201501N006019999999N9999999N1-00161+99999999999REMSYN052AAXX  11121 01043 46/// /1506 11016 2//// 333 91111;
0083010430999992013021118004+70417+022817FM-12+001099999V0202601N006019999999N9999999N1+00161+99999999999ADDKA1120M+00161REMSYN058AAXX  11181 01043 46/// /2606 10016 2//// 333 10016 91107;
0051010430999992013021120004+70417+022817FM-12+001099999V0202901N006019999999N9999999N1+00161+99999999999REMSYN042AAXX  11201 01043 46/// /2906 10016 2////;
0051010430999992013021121004+70417+022817FM-12+001099999V0202901N006019999999N9999999N1+00161+99999999999REMSYN042AAXX  11211 01043 46/// /2906 10016 2////;
0061010430999992013021200004+70417+022817FM-12+001099999V0202801N007019999999N9999999N1+00171+99999999999REMSYN052AAXX  12001 01043 46/// /2807 10017 2//// 333 91109;
0051010430999992013021203004+70417+022817FM-12+001099999V0202801N006019999999N9999999N1+00211+99999999999REMSYN042AAXX  12031 01043 46/// /2806 10021 2////;
0051010430999992013021204004+70417+022817FM-12+001099999V0202701N006019999999N9999999N1+00221+99999999999REMSYN042AAXX  12041 01043 46/// /2706 10022 2////;
0083010430999992013021206004+70417+022817FM-12+001099999V0202801N005019999999N9999999N1+00231+99999999999ADDKA1999N+00151REMSYN058AAXX  12061 01043 46/// /2805 10023 2//// 333 20015 91108;
0051010430999992013021209004+70417+022817FM-12+001099999V0203001N003019999999N9999999N1+00241+99999999999REMSYN042AAXX  12091 01043 46/// /3003 10024 2////;
0061010430999992013021212004+70417+022817FM-12+001099999V0201601N003019999999N9999999N1+00161+99999999999REMSYN052AAXX  12121 01043 46/// /1603 10016 2//// 333 91106;
0051010430999992013021214004+70417+022817FM-12+001099999V0201501N005019999999N9999999N1+00111+99999999999REMSYN042AAXX  12141 01043 46/// /1505 10011 2////;
0051010430999992013021215004+70417+022817FM-12+001099999V0201501N005019999999N9999999N1+00101+99999999999REMSYN042AAXX  12151 01043 46/// /1505 10010 2////;
0051010430999992013021216004+70417+022817FM-12+001099999V0201401N005019999999N9999999N1+00091+99999999999REMSYN042AAXX  12161 01043 46/// /1405 10009 2////;
0083010430999992013021218004+70417+022817FM-12+001099999V0201301N004019999999N9999999N1+00071+99999999999ADDKA1120M+00261REMSYN058AAXX  12181 01043 46/// /1304 10007 2//// 333 10026 91108;
0051010430999992013021221004+70417+022817FM-12+001099999V0201301N006019999999N9999999N1+00041+99999999999REMSYN042AAXX  12211 01043 46/// /1306 10004 2////;
0061010430999992013021300004+70417+022817FM-12+001099999V0201401N008019999999N9999999N1-00051+99999999999REMSYN052AAXX  13001 01043 46/// /1408 11005 2//// 333 91114;
0083010430999992013021306004+70417+022817FM-12+001099999V0201301N012019999999N9999999N1-00031+99999999999ADDKA1999N-00061REMSYN058AAXX  13061 01043 46/// /1312 11003 2//// 333 21006 91118;
0061010430999992013021312004+70417+022817FM-12+001099999V0201401N011019999999N9999999N1-00251+99999999999REMSYN052AAXX  13121 01043 46/// /1411 11025 2//// 333 91124;
0083010430999992013021318004+70417+022817FM-12+001099999V0201301N009019999999N9999999N1-00181+99999999999ADDKA1120M-00021REMSYN058AAXX  13181 01043 46/// /1309 11018 2//// 333 11002 91119;
0061010430999992013021400004+70417+022817FM-12+001099999V0201401N012019999999N9999999N1-00291+99999999999REMSYN052AAXX  14001 01043 46/// /1412 11029 2//// 333 91122;
0083010430999992013021406004+70417+022817FM-12+001099999V0201301N004019999999N9999999N1-00221+99999999999ADDKA1999N-00341REMSYN058AAXX  14061 01043 46/// /1304 11022 2//// 333 21034 91120;
0061010430999992013021412004+70417+022817FM-12+001099999V0201401N009019999999N9999999N1-00241+99999999999REMSYN052AAXX  14121 01043 46/// /1409 11024 2//// 333 91112;
0083010430999992013021418004+70417+022817FM-12+001099999V0201501N013019999999N9999999N1-00331+99999999999ADDKA1120M-00191REMSYN058AAXX  14181 01043 46/// /1513 11033 2//// 333 11019 91116;
0061010430999992013021500004+70417+022817FM-12+001099999V0201601N012019999999N9999999N1-00371+99999999999REMSYN052AAXX  15001 01043 46/// /1612 11037 2//// 333 91116;
0083010430999992013021506004+70417+022817FM-12+001099999V0201601N011019999999N9999999N1-00281+99999999999ADDKA1999N-00401REMSYN058AAXX  15061 01043 46/// /1611 11028 2//// 333 21040 91116;
0061010430999992013021512004+70417+022817FM-12+001099999V0201601N011019999999N9999999N1-00201+99999999999REMSYN052AAXX  15121 01043 46/// /1611 11020 2//// 333 91115;
0083010430999992013021518004+70417+022817FM-12+001099999V0201501N013019999999N9999999N1-00301+99999999999ADDKA1120M-00171REMSYN058AAXX  15181 01043 46/// /1513 11030 2//// 333 11017 91116;
0061010430999992013021600004+70417+022817FM-12+001099999V0201501N009019999999N9999999N1-00371+99999999999REMSYN052AAXX  16001 01043 46/// /1509 11037 2//// 333 91117;
0083010430999992013021606004+70417+022817FM-12+001099999V0201501N007019999999N9999999N1-00351+99999999999ADDKA1999N-00401REMSYN058AAXX  16061 01043 46/// /1507 11035 2//// 333 21040 91111;
0061010430999992013021612004+70417+022817FM-12+001099999V0201501N006019999999N9999999N1-00321+99999999999REMSYN052AAXX  16121 01043 46/// /1506 11032 2//// 333 91109;
0083010430999992013021618004+70417+022817FM-12+001099999V0201501N008019999999N9999999N1-00301+99999999999ADDKA1120M-00291REMSYN058AAXX  16181 01043 46/// /1508 11030 2//// 333 11029 91109;
0061010430999992013021700004+70417+022817FM-12+001099999V0201601N005019999999N9999999N1-00311+99999999999REMSYN052AAXX  17001 01043 46/// /1605 11031 2//// 333 91109;
0083010430999992013021706004+70417+022817FM-12+001099999V0201601N006019999999N9999999N1-00321+99999999999ADDKA1999N-00331REMSYN058AAXX  17061 01043 46/// /1606 11032 2//// 333 21033 91108;
0061010430999992013021712004+70417+022817FM-12+001099999V0201501N006019999999N9999999N1-00261+99999999999REMSYN052AAXX  17121 01043 46/// /1506 11026 2//// 333 91109;
0083010430999992013021718004+70417+022817FM-12+001099999V0201501N002019999999N9999999N1-00201+99999999999ADDKA1120M-00191REMSYN058AAXX  17181 01043 46/// /1502 11020 2//// 333 11019 91107;
0061010430999992013021800004+70417+022817FM-12+001099999V0201601N002019999999N9999999N1-00051+99999999999REMSYN052AAXX  18001 01043 46/// /1602 11005 2//// 333 91104;
0051010430999992013021804004+70417+022817FM-12+001099999V0201101N001019999999N9999999N1+00011+99999999999REMSYN042AAXX  18041 01043 46/// /1101 10001 2////;
0051010430999992013021805004+70417+022817FM-12+001099999V0201601N003019999999N9999999N1+00021+99999999999REMSYN042AAXX  18051 01043 46/// /1603 10002 2////;
0083010430999992013021806004+70417+022817FM-12+001099999V0201501N002019999999N9999999N1+00031+99999999999ADDKA1999N-00201REMSYN058AAXX  18061 01043 46/// /1502 10003 2//// 333 21020 91104;
0051010430999992013021808004+70417+022817FM-12+001099999V0201501N002019999999N9999999N1+00041+99999999999REMSYN042AAXX  18081 01043 46/// /1502 10004 2////;
0051010430999992013021809004+70417+022817FM-12+001099999V0201401N002019999999N9999999N1+00061+99999999999REMSYN042AAXX  18091 01043 46/// /1402 10006 2////;
0061010430999992013021812004+70417+022817FM-12+001099999V0201601N003019999999N9999999N1+00021+99999999999REMSYN052AAXX  18121 01043 46/// /1603 10002 2//// 333 91104;
0083010430999992013021818004+70417+022817FM-12+001099999V0201601N004019999999N9999999N1-00131+99999999999ADDKA1120M+00081REMSYN058AAXX  18181 01043 46/// /1604 11013 2//// 333 10008 91105;
0061010430999992013021900004+70417+022817FM-12+001099999V0201501N006019999999N9999999N1-00301+99999999999REMSYN052AAXX  19001 01043 46/// /1506 11030 2//// 333 91108;
0083010430999992013021906004+70417+022817FM-12+001099999V0201601N004019999999N9999999N1-00271+99999999999ADDKA1999N-00311REMSYN058AAXX  19061 01043 46/// /1604 11027 2//// 333 21031 91108;
0061010430999992013021912004+70417+022817FM-12+001099999V0201501N007019999999N9999999N1-00191+99999999999REMSYN052AAXX  19121 01043 46/// /1507 11019 2//// 333 91109;
0083010430999992013021918004+70417+022817FM-12+001099999V0201701N005019999999N9999999N1-00011+99999999999ADDKA1120M+00181REMSYN058AAXX  19181 01043 46/// /1705 11001 2//// 333 10018 91110;
0051010430999992013021921004+70417+022817FM-12+001099999V0201901N004019999999N9999999N1+00011+99999999999REMSYN042AAXX  19211 01043 46/// /1904 10001 2////;
0051010430999992013021922004+70417+022817FM-12+001099999V0201301N003019999999N9999999N1+00011+99999999999REMSYN042AAXX  19221 01043 46/// /1303 10001 2////;
0061010430999992013022000004+70417+022817FM-12+001099999V0201601N006019999999N9999999N1+00031+99999999999REMSYN052AAXX  20001 01043 46/// /1606 10003 2//// 333 91109;
0051010430999992013022003004+70417+022817FM-12+001099999V0201001N003019999999N9999999N1+00201+99999999999REMSYN042AAXX  20031 01043 46/// /1003 10020 2////;
0051010430999992013022004004+70417+022817FM-12+001099999V0202601N008019999999N9999999N1+00331+99999999999REMSYN042AAXX  20041 01043 46/// /2608 10033 2////;
0051010430999992013022005004+70417+022817FM-12+001099999V0202401N007019999999N9999999N1+00331+99999999999REMSYN042AAXX  20051 01043 46/// /2407 10033 2////;
0083010430999992013022006004+70417+022817FM-12+001099999V0202501N002019999999N9999999N1+00281+99999999999ADDKA1999N-00031REMSYN058AAXX  20061 01043 46/// /2502 10028 2//// 333 21003 91113;
0051010430999992013022008004+70417+022817FM-12+001099999V0201401N005019999999N9999999N1+00131+99999999999REMSYN042AAXX  20081 01043 46/// /1405 10013 2////;
0051010430999992013022009004+70417+022817FM-12+001099999V0201501N004019999999N9999999N1+00121+99999999999REMSYN042AAXX  20091 01043 46/// /1504 10012 2////;
0051010430999992013022010004+70417+022817FM-12+001099999V0201501N007019999999N9999999N1+00091+99999999999REMSYN042AAXX  20101 01043 46/// /1507 10009 2////;
0061010430999992013022012004+70417+022817FM-12+001099999V0201501N005019999999N9999999N1+00181+99999999999REMSYN052AAXX  20121 01043 46/// /1505 10018 2//// 333 91111;
0051010430999992013022014004+70417+022817FM-12+001099999V0203201N002019999999N9999999N1+00301+99999999999REMSYN042AAXX  20141 01043 46/// /3202 10030 2////;
0051010430999992013022015004+70417+022817FM-12+001099999V0202401N011019999999N9999999N1+00311+99999999999REMSYN042AAXX  20151 01043 46/// /2411 10031 2////;
0051010430999992013022016004+70417+022817FM-12+001099999V0202501N011019999999N9999999N1+00341+99999999999REMSYN042AAXX  20161 01043 46/// /2511 10034 2////;
0051010430999992013022017004+70417+022817FM-12+001099999V0202401N011019999999N9999999N1+00381+99999999999REMSYN042AAXX  20171 01043 46/// /2411 10038 2////;
0083010430999992013022018004+70417+022817FM-12+001099999V0202501N015019999999N9999999N1+00411+99999999999ADDKA1120M+00421REMSYN058AAXX  20181 01043 46/// /2515 10041 2//// 333 10042 91123;
0051010430999992013022020004+70417+022817FM-12+001099999V0202601N017019999999N9999999N1+00421+99999999999REMSYN042AAXX  20201 01043 46/// /2617 10042 2////;
0051010430999992013022021004+70417+022817FM-12+001099999V0202601N018019999999N9999999N1+00441+99999999999REMSYN042AAXX  20211 01043 46/// /2618 10044 2////;
0051010430999992013022022004+70417+022817FM-12+001099999V0202701N019019999999N9999999N1+00291+99999999999REMSYN042AAXX  20221 01043 46/// /2719 10029 2////;
0051010430999992013022023004+70417+022817FM-12+001099999V0202801N013019999999N9999999N1+00141+99999999999REMSYN042AAXX  20231 01043 46/// /2813 10014 2////;
0061010430999992013022100004+70417+022817FM-12+001099999V0203501N014019999999N9999999N1+00151+99999999999REMSYN052AAXX  21001 01043 46/// /3514 10015 2//// 333 91126;
0083010430999992013022106004+70417+022817FM-12+001099999V0203401N007019999999N9999999N1-00131+99999999999ADDKA1999N-00131REMSYN058AAXX  21061 01043 46/// /3407 11013 2//// 333 21013 91119;
0061010430999992013022112004+70417+022817FM-12+001099999V0200201N008019999999N9999999N1-00301+99999999999REMSYN052AAXX  21121 01043 46/// /0208 11030 2//// 333 91112;
0083010430999992013022118004+70417+022817FM-12+001099999V0201001N002019999999N9999999N1-00411+99999999999ADDKA1120M-00111REMSYN058AAXX  21181 01043 46/// /1002 11041 2//// 333 11011 91108;
0061010430999992013022200004+70417+022817FM-12+001099999V0201201N002019999999N9999999N1-00471+99999999999REMSYN052AAXX  22001 01043 46/// /1202 11047 2//// 333 91106;
0083010430999992013022206004+70417+022817FM-12+001099999V0201301N008019999999N9999999N1-00621+99999999999ADDKA1999N-00641REMSYN058AAXX  22061 01043 46/// /1308 11062 2//// 333 21064 91112;
0061010430999992013022212004+70417+022817FM-12+001099999V0201301N009019999999N9999999N1-00511+99999999999REMSYN052AAXX  22121 01043 46/// /1309 11051 2//// 333 91115;
0051010430999992013022217004+70417+022817FM-12+001099999V0202501N009019999999N9999999N1+00171+99999999999REMSYN042AAXX  22171 01043 46/// /2509 10017 2////;
0083010430999992013022218004+70417+022817FM-12+001099999V0202501N013019999999N9999999N1+00221+99999999999ADDKA1120M+00231REMSYN058AAXX  22181 01043 46/// /2513 10022 2//// 333 10023 91117;
0051010430999992013022219004+70417+022817FM-12+001099999V0202501N012019999999N9999999N1+00271+99999999999REMSYN042AAXX  22191 01043 46/// /2512 10027 2////;
0051010430999992013022220004+70417+022817FM-12+001099999V0202501N013019999999N9999999N1+00231+99999999999REMSYN042AAXX  22201 01043 46/// /2513 10023 2////;
0051010430999992013022221004+70417+022817FM-12+001099999V0202501N015019999999N9999999N1+00191+99999999999REMSYN042AAXX  22211 01043 46/// /2515 10019 2////;
0051010430999992013022222004+70417+022817FM-12+001099999V0202701N018019999999N9999999N1+00231+99999999999REMSYN042AAXX  22221 01043 46/// /2718 10023 2////;
0051010430999992013022223004+70417+022817FM-12+001099999V0203001N015019999999N9999999N1+00211+99999999999REMSYN042AAXX  22231 01043 46/// /3015 10021 2////;
0061010430999992013022300004+70417+022817FM-12+001099999V0202901N014019999999N9999999N1+00181+99999999999REMSYN052AAXX  23001 01043 46/// /2914 10018 2//// 333 91122;
0051010430999992013022301004+70417+022817FM-12+001099999V0203001N014019999999N9999999N1+00201+99999999999REMSYN042AAXX  23011 01043 46/// /3014 10020 2////;
0051010430999992013022302004+70417+022817FM-12+001099999V0203101N011019999999N9999999N1+00171+99999999999REMSYN042AAXX  23021 01043 46/// /3111 10017 2////;
0051010430999992013022303004+70417+022817FM-12+001099999V0203301N007019999999N9999999N1+00111+99999999999REMSYN042AAXX  23031 01043 46/// /3307 10011 2////;
0051010430999992013022304004+70417+022817FM-12+001099999V0203201N006019999999N9999999N1+00071+99999999999REMSYN042AAXX  23041 01043 46/// /3206 10007 2////;
0051010430999992013022305004+70417+022817FM-12+001099999V0203201N005019999999N9999999N1+00061+99999999999REMSYN042AAXX  23051 01043 46/// /3205 10006 2////;
0083010430999992013022306004+70417+022817FM-12+001099999V0203601N012019999999N9999999N1+00041+99999999999ADDKA1999N+00041REMSYN058AAXX  23061 01043 46/// /3612 10004 2//// 333 20004 91118;
0051010430999992013022309004+70417+022817FM-12+001099999V0203201N012019999999N9999999N1+00121+99999999999REMSYN042AAXX  23091 01043 46/// /3212 10012 2////;
0061010430999992013022312004+70417+022817FM-12+001099999V0203301N008019999999N9999999N1+00111+99999999999REMSYN052AAXX  23121 01043 46/// /3308 10011 2//// 333 91115;
0051010430999992013022313004+70417+022817FM-12+001099999V0203001N010019999999N9999999N1+00101+99999999999REMSYN042AAXX  23131 01043 46/// /3010 10010 2////;
0051010430999992013022314004+70417+022817FM-12+001099999V0202801N013019999999N9999999N1+00081+99999999999REMSYN042AAXX  23141 01043 46/// /2813 10008 2////;
0051010430999992013022315004+70417+022817FM-12+001099999V0202901N009019999999N9999999N1+00011+99999999999REMSYN042AAXX  23151 01043 46/// /2909 10001 2////;
0051010430999992013022317004+70417+022817FM-12+001099999V0202801N012019999999N9999999N1+00031+99999999999REMSYN042AAXX  23171 01043 46/// /2812 10003 2////;
0083010430999992013022318004+70417+022817FM-12+001099999V0202801N013019999999N9999999N1+00051+99999999999ADDKA1120M+00171REMSYN058AAXX  23181 01043 46/// /2813 10005 2//// 333 10017 91117;
0051010430999992013022321004+70417+022817FM-12+001099999V0202901N012019999999N9999999N1+00071+99999999999REMSYN042AAXX  23211 01043 46/// /2912 10007 2////;
0061010430999992013022400004+70417+022817FM-12+001099999V0202701N005019999999N9999999N1+00041+99999999999REMSYN052AAXX  24001 01043 46/// /2705 10004 2//// 333 91118;
0051010430999992013022403004+70417+022817FM-12+001099999V0209999C000019999999N9999999N1+00011+99999999999REMSYN042AAXX  24031 01043 46/// /0000 10001 2////;
0083010430999992013022406004+70417+022817FM-12+001099999V0202501N010019999999N9999999N1+00121+99999999999ADDKA1999N-00011REMSYN058AAXX  24061 01043 46/// /2510 10012 2//// 333 21001 91111;
0051010430999992013022408004+70417+022817FM-12+001099999V0202701N012019999999N9999999N1+00311+99999999999REMSYN042AAXX  24081 01043 46/// /2712 10031 2////;
0051010430999992013022409004+70417+022817FM-12+001099999V0202801N013019999999N9999999N1+00191+99999999999REMSYN042AAXX  24091 01043 46/// /2813 10019 2////;
0061010430999992013022412004+70417+022817FM-12+001099999V0203001N014019999999N9999999N1+00131+99999999999REMSYN052AAXX  24121 01043 46/// /3014 10013 2//// 333 91118;
0051010430999992013022414004+70417+022817FM-12+001099999V0202801N013019999999N9999999N1+00151+99999999999REMSYN042AAXX  24141 01043 46/// /2813 10015 2////;
0051010430999992013022415004+70417+022817FM-12+001099999V0202601N014019999999N9999999N1+00151+99999999999REMSYN042AAXX  24151 01043 46/// /2614 10015 2////;
0051010430999992013022416004+70417+022817FM-12+001099999V0202701N013019999999N9999999N1+00141+99999999999REMSYN042AAXX  24161 01043 46/// /2713 10014 2////;
0051010430999992013022417004+70417+022817FM-12+001099999V0202801N013019999999N9999999N1+00231+99999999999REMSYN042AAXX  24171 01043 46/// /2813 10023 2////;
0083010430999992013022418004+70417+022817FM-12+001099999V0203101N011019999999N9999999N1+00201+99999999999ADDKA1120M+00321REMSYN058AAXX  24181 01043 46/// /3111 10020 2//// 333 10032 91120;
0051010430999992013022421004+70417+022817FM-12+001099999V0203101N008019999999N9999999N1+00061+99999999999REMSYN042AAXX  24211 01043 46/// /3108 10006 2////;
0051010430999992013022422004+70417+022817FM-12+001099999V0202801N007019999999N9999999N1+00061+99999999999REMSYN042AAXX  24221 01043 46/// /2807 10006 2////;
0061010430999992013022500004+70417+022817FM-12+001099999V0202701N007019999999N9999999N1+00101+99999999999REMSYN052AAXX  25001 01043 46/// /2707 10010 2//// 333 91113;
0051010430999992013022501004+70417+022817FM-12+001099999V0202701N007019999999N9999999N1+00071+99999999999REMSYN042AAXX  25011 01043 46/// /2707 10007 2////;
0051010430999992013022502004+70417+022817FM-12+001099999V0202701N005019999999N9999999N1+00081+99999999999REMSYN042AAXX  25021 01043 46/// /2705 10008 2////;
0051010430999992013022503004+70417+022817FM-12+001099999V0202801N006019999999N9999999N1+00111+99999999999REMSYN042AAXX  25031 01043 46/// /2806 10011 2////;
0083010430999992013022506004+70417+022817FM-12+001099999V0201301N002019999999N9999999N1+00161+99999999999ADDKA1999N+00051REMSYN058AAXX  25061 01043 46/// /1302 10016 2//// 333 20005 91110;
0051010430999992013022509004+70417+022817FM-12+001099999V0202701N007019999999N9999999N1+00311+99999999999REMSYN042AAXX  25091 01043 46/// /2707 10031 2////;
0061010430999992013022512004+70417+022817FM-12+001099999V0202601N007019999999N9999999N1+00511+99999999999REMSYN052AAXX  25121 01043 46/// /2607 10051 2//// 333 91124;
0051010430999992013022514004+70417+022817FM-12+001099999V0202601N015019999999N9999999N1+00481+99999999999REMSYN042AAXX  25141 01043 46/// /2615 10048 2////;
0051010430999992013022515004+70417+022817FM-12+001099999V0202501N014019999999N9999999N1+00481+99999999999REMSYN042AAXX  25151 01043 46/// /2514 10048 2////;
0051010430999992013022516004+70417+022817FM-12+001099999V0202601N014019999999N9999999N1+00481+99999999999REMSYN042AAXX  25161 01043 46/// /2614 10048 2////;
0051010430999992013022517004+70417+022817FM-12+001099999V0202601N012019999999N9999999N1+00411+99999999999REMSYN042AAXX  25171 01043 46/// /2612 10041 2////;
0083010430999992013022518004+70417+022817FM-12+001099999V0202601N011019999999N9999999N1+00481+99999999999ADDKA1120M+00561REMSYN058AAXX  25181 01043 46/// /2611 10048 2//// 333 10056 91121;
0051010430999992013022520004+70417+022817FM-12+001099999V0202601N015019999999N9999999N1+00581+99999999999REMSYN042AAXX  25201 01043 46/// /2615 10058 2////;
0051010430999992013022521004+70417+022817FM-12+001099999V0202501N014019999999N9999999N1+00571+99999999999REMSYN042AAXX  25211 01043 46/// /2514 10057 2////;
0051010430999992013022522004+70417+022817FM-12+001099999V0202501N014019999999N9999999N1+00511+99999999999REMSYN042AAXX  25221 01043 46/// /2514 10051 2////;
0051010430999992013022523004+70417+022817FM-12+001099999V0202601N012019999999N9999999N1+00471+99999999999REMSYN042AAXX  25231 01043 46/// /2612 10047 2////;
0061010430999992013022600004+70417+022817FM-12+001099999V0202701N012019999999N9999999N1+00391+99999999999REMSYN052AAXX  26001 01043 46/// /2712 10039 2//// 333 91123;
0051010430999992013022602004+70417+022817FM-12+001099999V0202601N014019999999N9999999N1+00371+99999999999REMSYN042AAXX  26021 01043 46/// /2614 10037 2////;
0051010430999992013022603004+70417+022817FM-12+001099999V0202601N016019999999N9999999N1+00321+99999999999REMSYN042AAXX  26031 01043 46/// /2616 10032 2////;
0051010430999992013022604004+70417+022817FM-12+001099999V0203401N014019999999N9999999N1+00151+99999999999REMSYN042AAXX  26041 01043 46/// /3414 10015 2////;
0051010430999992013022605004+70417+022817FM-12+001099999V0203401N013019999999N9999999N1+00041+99999999999REMSYN042AAXX  26051 01043 46/// /3413 10004 2////;
0051010430999992013022606004+70417+022817FM-12+001099999V0203401N017019999999N9999999N1+00101+99999999999REMSYN042AAXX  26061 01043 46/// /3417 10010 2////;
0051010430999992013022607004+70417+022817FM-12+001099999V0202901N014019999999N9999999N1+00081+99999999999REMSYN042AAXX  26071 01043 46/// /2914 10008 2////;
0051010430999992013022609004+70417+022817FM-12+001099999V0203501N012019999999N9999999N1+00091+99999999999REMSYN042AAXX  26091 01043 46/// /3512 10009 2////;
0051010430999992013022611004+70417+022817FM-12+001099999V0200101N008019999999N9999999N1+00011+99999999999REMSYN042AAXX  26111 01043 46/// /0108 10001 2////;
0061010430999992013022612004+70417+022817FM-12+001099999V0203601N009019999999N9999999N1-00071+99999999999REMSYN052AAXX  26121 01043 46/// /3609 11007 2//// 333 91121;
0083010430999992013022618004+70417+022817FM-12+001099999V0200101N006019999999N9999999N1-00201+99999999999ADDKA1120M+00121REMSYN058AAXX  26181 01043 46/// /0106 11020 2//// 333 10012 91115;
0061010430999992013022700004+70417+022817FM-12+001099999V0201401N004019999999N9999999N1-00331+99999999999REMSYN052AAXX  27001 01043 46/// /1404 11033 2//// 333 91111;
0083010430999992013022706004+70417+022817FM-12+001099999V0201201N007019999999N9999999N1-00391+99999999999ADDKA1999N-00411REMSYN058AAXX  27061 01043 46/// /1207 11039 2//// 333 21041 91111;
0061010430999992013022712004+70417+022817FM-12+001099999V0201501N012019999999N9999999N1-00261+99999999999REMSYN052AAXX  27121 01043 46/// /1512 11026 2//// 333 91120;
0051010430999992013022713004+70417+022817FM-12+001099999V0203501N004019999999N9999999N1+00061+99999999999REMSYN042AAXX  27131 01043 46/// /3504 10006 2////;
0051010430999992013022714004+70417+022817FM-12+001099999V0202701N014019999999N9999999N1+00451+99999999999REMSYN042AAXX  27141 01043 46/// /2714 10045 2////;
0051010430999992013022715004+70417+022817FM-12+001099999V0202601N011019999999N9999999N1+00381+99999999999REMSYN042AAXX  27151 01043 46/// /2611 10038 2////;
0051010430999992013022716004+70417+022817FM-12+001099999V0202601N013019999999N9999999N1+00461+99999999999REMSYN042AAXX  27161 01043 46/// /2613 10046 2////;
0051010430999992013022717004+70417+022817FM-12+001099999V0202901N012019999999N9999999N1+00301+99999999999REMSYN042AAXX  27171 01043 46/// /2912 10030 2////;
0083010430999992013022718004+70417+022817FM-12+001099999V0202801N013019999999N9999999N1+00311+99999999999ADDKA1120M+00491REMSYN058AAXX  27181 01043 46/// /2813 10031 2//// 333 10049 91122;
0051010430999992013022719004+70417+022817FM-12+001099999V0202701N010019999999N9999999N1+00351+99999999999REMSYN042AAXX  27191 01043 46/// /2710 10035 2////;
0051010430999992013022720004+70417+022817FM-12+001099999V0202701N010019999999N9999999N1+00341+99999999999REMSYN042AAXX  27201 01043 46/// /2710 10034 2////;
0051010430999992013022721004+70417+022817FM-12+001099999V0202701N012019999999N9999999N1+00331+99999999999REMSYN042AAXX  27211 01043 46/// /2712 10033 2////;
0051010430999992013022722004+70417+022817FM-12+001099999V0202601N013019999999N9999999N1+00241+99999999999REMSYN042AAXX  27221 01043 46/// /2613 10024 2////;
0051010430999992013022723004+70417+022817FM-12+001099999V0202801N010019999999N9999999N1+00161+99999999999REMSYN042AAXX  27231 01043 46/// /2810 10016 2////;
0061010430999992013022800004+70417+022817FM-12+001099999V0202601N012019999999N9999999N1+00131+99999999999REMSYN052AAXX  28001 01043 46/// /2612 10013 2//// 333 91117;
0051010430999992013022801004+70417+022817FM-12+001099999V0202701N012019999999N9999999N1+00191+99999999999REMSYN042AAXX  28011 01043 46/// /2712 10019 2////;
0051010430999992013022802004+70417+022817FM-12+001099999V0202901N010019999999N9999999N1+00121+99999999999REMSYN042AAXX  28021 01043 46/// /2910 10012 2////;
0051010430999992013022803004+70417+022817FM-12+001099999V0203001N007019999999N9999999N1+00191+99999999999REMSYN042AAXX  28031 01043 46/// /3007 10019 2////;
0051010430999992013022804004+70417+022817FM-12+001099999V0203301N005019999999N9999999N1+00121+99999999999REMSYN042AAXX  28041 01043 46/// /3305 10012 2////;
0051010430999992013022805004+70417+022817FM-12+001099999V0202801N002019999999N9999999N1+00161+99999999999REMSYN042AAXX  28051 01043 46/// /2802 10016 2////;
0083010430999992013022806004+70417+022817FM-12+001099999V0200901N003019999999N9999999N1+00071+99999999999ADDKA1999N+00071REMSYN058AAXX  28061 01043 46/// /0903 10007 2//// 333 20007 91116;
0061010430999992013022812004+70417+022817FM-12+001099999V0201401N009019999999N9999999N1-00441+99999999999REMSYN052AAXX  28121 01043 46/// /1409 11044 2//// 333 91122;
