0140008421999992015010100134+32900-117300FM-15+007099999V0209999C000019999999N009999199+01211-00681101911ADDMA1101861999999REMMET113MOBOB1 METAR XM26 //007 329173 010013Z AUTO 00000KT 9999 12/M07 A3008      RMK A02 SLP191 T01211068 PA084 DA-178=
0140008421999992015010100274+32900-117300FM-16+007099999V0209999C000019999999N009999199+01181-00641101911ADDMA1101861999999REMMET113MOBOB1 SPECI XM26 //007 329173 010027Z AUTO 00000KT 9999 12/M06 A3008      RMK A02 SLP191 T01181064 PA084 DA-212=
0140008421999992015010100424+32900-117300FM-16+007099999V0209999C000019999999N009999199+01111-00711101911ADDMA1101861999999REMMET113MOBOB1 SPECI XM26 //007 329173 010042Z AUTO 00000KT 9999 11/M07 A3008      RMK A02 SLP191 T01111071 PA084 DA-299=
0140008421999992015010101134+32900-117300FM-15+007099999V0201401N000519999999N009999199+00951-00701101951ADDMA1101901999999REMMET113MOBOB1 METAR XM26 //007 329173 010113Z AUTO 14001KT 9999 10/M07 A3009      RMK A02 SLP195 T00951070 PA075 DA-503=
0140008421999992015010101264+32900-117300FM-16+007099999V0201201N000519999999N009999199+00931-00781101951ADDMA1101901999999REMMET113MOBOB1 SPECI XM26 //007 329173 010126Z AUTO 12001KT 9999 09/M08 A3009      RMK A02 SLP195 T00931078 PA075 DA-530=
0140008421999992015010101414+32900-117300FM-16+007099999V0201201N000519999999N009999199+00901-00681101951ADDMA1101901999999REMMET113MOBOB1 SPECI XM26 //007 329173 010141Z AUTO 12001KT 9999 09/M07 A3009      RMK A02 SLP195 T00901068 PA075 DA-563=
0140008421999992015010102134+32900-117300FM-15+007099999V0201101N000519999999N009999199+00881-00701101981ADDMA1101931999999REMMET113MOBOB1 METAR XM26 //007 329173 010213Z AUTO 11001KT 9999 09/M07 A3010      RMK A02 SLP198 T00881070 PA066 DA-600=
0140008421999992015010102284+32900-117300FM-16+007099999V0201001N001019999999N009999199+00881-00661101981ADDMA1101931999999REMMET113MOBOB1 SPECI XM26 //007 329173 010228Z AUTO 10002KT 9999 09/M07 A3010      RMK A02 SLP198 T00881066 PA066 DA-598=
0140008421999992015010102414+32900-117300FM-16+007099999V0201001N001519999999N009999199+00851-00701102021ADDMA1101961999999REMMET113MOBOB1 SPECI XM26 //007 329173 010241Z AUTO 10003KT 9999 09/M07 A3011      RMK A02 SLP202 T00851070 PA057 DA-648=
0140008421999992015010103134+32900-117300FM-15+007099999V0201001N001519999999N009999199+00861-00701102021ADDMA1101961999999REMMET113MOBOB1 METAR XM26 //007 329173 010313Z AUTO 10003KT 9999 09/M07 A3011      RMK A02 SLP202 T00861070 PA057 DA-635=
0140008421999992015010103294+32900-117300FM-16+007099999V0201001N001519999999N009999199+00801-00641102021ADDMA1101961999999REMMET113MOBOB1 SPECI XM26 //007 329173 010329Z AUTO 10003KT 9999 08/M06 A3011      RMK A02 SLP202 T00801064 PA057 DA-706=
0140008421999992015010103424+32900-117300FM-16+007099999V0201001N002119999999N009999199+00791-00611102021ADDMA1101961999999REMMET113MOBOB1 SPECI XM26 //007 329173 010342Z AUTO 10004KT 9999 08/M06 A3011      RMK A02 SLP202 T00791061 PA057 DA-717=
0140008421999992015010104134+32900-117300FM-15+007099999V0201001N002119999999N009999199+00731-00591102021ADDMA1101961999999REMMET113MOBOB1 METAR XM26 //007 329173 010413Z AUTO 10004KT 9999 07/M06 A3011      RMK A02 SLP202 T00731059 PA057 DA-790=
0140008421999992015010104274+32900-117300FM-16+007099999V0201101N002119999999N009999199+00751-00681102021ADDMA1101961999999REMMET113MOBOB1 SPECI XM26 //007 329173 010427Z AUTO 11004KT 9999 08/M07 A3011      RMK A02 SLP202 T00751068 PA057 DA-769=
0140008421999992015010104414+32900-117300FM-16+007099999V0201001N001519999999N009999199+00791-00741102061ADDMA1102001999999REMMET113MOBOB1 SPECI XM26 //007 329173 010441Z AUTO 10003KT 9999 08/M07 A3012      RMK A02 SLP206 T00791074 PA047 DA-734=
0140008421999992015010105144+32900-117300FM-15+007099999V0201001N002619999999N009999199+00641-00541102061ADDMA1102001999999REMMET113MOBOB1 METAR XM26 //007 329173 010514Z AUTO 10005KT 9999 06/M05 A3012      RMK A02 SLP206 T00641054 PA047 DA-910=
0140008421999992015010105274+32900-117300FM-16+007099999V0201001N002119999999N009999199+00651-00511102061ADDMA1102001999999REMMET113MOBOB1 SPECI XM26 //007 329173 010527Z AUTO 10004KT 9999 07/M05 A3012      RMK A02 SLP206 T00651051 PA047 DA-897=
0140008421999992015010105404+32900-117300FM-16+007099999V0201201N002619999999N009999199+00631-00421102061ADDMA1102001999999REMMET113MOBOB1 SPECI XM26 //007 329173 010540Z AUTO 12005KT 9999 06/M04 A3012      RMK A02 SLP206 T00631042 PA047 DA-917=
0140008421999992015010106134+32900-117300FM-15+007099999V0201101N002119999999N009999199+00611-00351102061ADDMA1102001999999REMMET113MOBOB1 METAR XM26 //007 329173 010613Z AUTO 11004KT 9999 06/M04 A3012      RMK A02 SLP206 T00611035 PA047 DA-939=
0140008421999992015010106274+32900-117300FM-16+007099999V0201101N002619999999N009999199+00591-00411102061ADDMA1102001999999REMMET113MOBOB1 SPECI XM26 //007 329173 010627Z AUTO 11005KT 9999 06/M04 A3012      RMK A02 SLP206 T00591041 PA047 DA-966=
0140008421999992015010106404+32900-117300FM-16+007099999V0201101N002619999999N009999199+00611-00291102061ADDMA1102001999999REMMET113MOBOB1 SPECI XM26 //007 329173 010640Z AUTO 11005KT 9999 06/M03 A3012      RMK A02 SLP206 T00611029 PA047 DA-936=
0140008421999992015010107134+32900-117300FM-15+007099999V0201101N002619999999N009999199+00601-00251102061ADDMA1102001999999REMMET113MOBOB1 METAR XM26 //007 329173 010713Z AUTO 11005KT 9999 06/M03 A3012      RMK A02 SLP206 T00601025 PA047 DA-947=
0140008421999992015010107274+32900-117300FM-16+007099999V0201101N002119999999N009999199+00581-00251102061ADDMA1102001999999REMMET113MOBOB1 SPECI XM26 //007 329173 010727Z AUTO 11004KT 9999 06/M02 A3012      RMK A02 SLP206 T00581025 PA047 DA-971=
0141008421999992015010107404+32900-117300FM-16+007099999V0201101N002119999999N009999199+00551-00231102061ADDMA1102001999999REMMET114MOBOB1 SPECI XM26 //007 329173 010740Z AUTO 11004KT 9999 06/M02 A3012      RMK A02 SLP206 T00551023 PA047 DA-1007=
0141008421999992015010108124+32900-117300FM-15+007099999V0201201N002619999999N009999199+00491-00181102061ADDMA1102001999999REMMET114MOBOB1 METAR XM26 //007 329173 010812Z AUTO 12005KT 9999 05/M02 A3012      RMK A02 SLP206 T00491018 PA047 DA-1079=
0141008421999992015010108254+32900-117300FM-16+007099999V0201101N002619999999N009999199+00451-00171102061ADDMA1102001999999REMMET114MOBOB1 SPECI XM26 //007 329173 010825Z AUTO 11005KT 9999 05/M02 A3012      RMK A02 SLP206 T00451017 PA047 DA-1128=
0141008421999992015010108414+32900-117300FM-16+007099999V0201101N002619999999N009999199+00481-00161102061ADDMA1102001999999REMMET114MOBOB1 SPECI XM26 //007 329173 010841Z AUTO 11005KT 9999 05/M02 A3012      RMK A02 SLP206 T00481016 PA047 DA-1090=
0141008421999992015010109144+32900-117300FM-15+007099999V0201101N002619999999N009999199+00471-00161102091ADDMA1102031999999REMMET114MOBOB1 METAR XM26 //007 329173 010914Z AUTO 11005KT 9999 05/M02 A3013      RMK A02 SLP209 T00471016 PA038 DA-1114=
0141008421999992015010109274+32900-117300FM-16+007099999V0201101N003119999999N009999199+00471-00171102051ADDMA1102001999999REMMET114MOBOB1 SPECI XM26 //007 329173 010927Z AUTO 11006KT 9999 05/M02 A3012      RMK A02 SLP205 T00471017 PA047 DA-1103=
0141008421999992015010109404+32900-117300FM-16+007099999V0201101N002619999999N009999199+00461-00171102091ADDMA1102031999999REMMET114MOBOB1 SPECI XM26 //007 329173 010940Z AUTO 11005KT 9999 05/M02 A3013      RMK A02 SLP209 T00461017 PA038 DA-1127=
0141008421999992015010109544+32900-117300FM-15+007099999V0201101N003119999999N009999199+00461-00181102091ADDMA1102031999999REMMET114MOBOB1 METAR XM26 //007 329173 010954Z AUTO 11006KT 9999 05/M02 A3013      RMK A02 SLP209 T00461018 PA038 DA-1128=
0141008421999992015010110124+32900-117300FM-15+007099999V0201101N002619999999N009999199+00471-00181102081ADDMA1102031999999REMMET114MOBOB1 METAR XM26 //007 329173 011012Z AUTO 11005KT 9999 05/M02 A3013      RMK A02 SLP208 T00471018 PA038 DA-1115=
0141008421999992015010110264+32900-117300FM-16+007099999V0201101N002619999999N009999199+00481-00181102081ADDMA1102031999999REMMET114MOBOB1 SPECI XM26 //007 329173 011026Z AUTO 11005KT 9999 05/M02 A3013      RMK A02 SLP208 T00481018 PA038 DA-1103=
0141008421999992015010110394+32900-117300FM-16+007099999V0201101N002119999999N009999199+00471-00191102081ADDMA1102031999999REMMET114MOBOB1 SPECI XM26 //007 329173 011039Z AUTO 11004KT 9999 05/M02 A3013      RMK A02 SLP208 T00471019 PA038 DA-1116=
0141008421999992015010110524+32900-117300FM-15+007099999V0201101N002119999999N009999199+00461-00191102081ADDMA1102031999999REMMET114MOBOB1 METAR XM26 //007 329173 011052Z AUTO 11004KT 9999 05/M02 A3013      RMK A02 SLP208 T00461019 PA038 DA-1128=
0141008421999992015010111124+32900-117300FM-15+007099999V0201101N002619999999N009999199+00461-00191102121ADDMA1102071999999REMMET114MOBOB1 METAR XM26 //007 329173 011112Z AUTO 11005KT 9999 05/M02 A3014      RMK A02 SLP212 T00461019 PA029 DA-1139=
0141008421999992015010111254+32900-117300FM-16+007099999V0201001N003119999999N009999199+00471-00201102121ADDMA1102071999999REMMET114MOBOB1 SPECI XM26 //007 329173 011125Z AUTO 10006KT 9999 05/M02 A3014      RMK A02 SLP212 T00471020 PA029 DA-1128=
0141008421999992015010111384+32900-117300FM-16+007099999V0201001N003119999999N009999199+00481-00201102121ADDMA1102071999999REMMET114MOBOB1 SPECI XM26 //007 329173 011138Z AUTO 10006KT 9999 05/M02 A3014      RMK A02 SLP212 T00481020 PA029 DA-1116=
0141008421999992015010111524+32900-117300FM-15+007099999V0201101N003119999999N009999199+00461-00221102121ADDMA1102071999999REMMET114MOBOB1 METAR XM26 //007 329173 011152Z AUTO 11006KT 9999 05/M02 A3014      RMK A02 SLP212 T00461022 PA029 DA-1141=
0141008421999992015010112124+32900-117300FM-15+007099999V0201101N002619999999N009999199+00481-00221102121ADDMA1102071999999REMMET114MOBOB1 METAR XM26 //007 329173 011212Z AUTO 11005KT 9999 05/M02 A3014      RMK A02 SLP212 T00481022 PA029 DA-1117=
0141008421999992015010112454+32900-117300FM-15+007099999V0201101N003119999999N009999199+00461-00231102121ADDMA1102071999999REMMET114MOBOB1 METAR XM26 //007 329173 011245Z AUTO 11006KT 9999 05/M02 A3014      RMK A02 SLP212 T00461023 PA029 DA-1142=
0141008421999992015010113124+32900-117300FM-15+007099999V0201001N003119999999N009999199+00441-00231102161ADDMA1102101999999REMMET114MOBOB1 METAR XM26 //007 329173 011312Z AUTO 10006KT 9999 04/M02 A3015      RMK A02 SLP216 T00441023 PA020 DA-1178=
0141008421999992015010113264+32900-117300FM-16+007099999V0201101N002619999999N009999199+00451-00241102161ADDMA1102101999999REMMET114MOBOB1 SPECI XM26 //007 329173 011326Z AUTO 11005KT 9999 05/M02 A3015      RMK A02 SLP216 T00451024 PA020 DA-1166=
0141008421999992015010113434+32900-117300FM-16+007099999V0201101N002619999999N009999199+00431-00241102191ADDMA1102131999999REMMET114MOBOB1 SPECI XM26 //007 329173 011343Z AUTO 11005KT 9999 04/M02 A3016      RMK A02 SLP219 T00431024 PA010 DA-1202=
0141008421999992015010114134+32900-117300FM-15+007099999V0201101N003119999999N009999199+00441-00261102191ADDMA1102131999999REMMET114MOBOB1 METAR XM26 //007 329173 011413Z AUTO 11006KT 9999 04/M03 A3016      RMK A02 SLP219 T00441026 PA010 DA-1191=
0141008421999992015010114284+32900-117300FM-16+007099999V0201001N003119999999N009999199+00431-00261102191ADDMA1102131999999REMMET114MOBOB1 SPECI XM26 //007 329173 011428Z AUTO 10006KT 9999 04/M03 A3016      RMK A02 SLP219 T00431026 PA010 DA-1204=
0141008421999992015010114424+32900-117300FM-16+007099999V0201001N003119999999N009999199+00441-00271102231ADDMA1102171999999REMMET114MOBOB1 SPECI XM26 //007 329173 011442Z AUTO 10006KT 9999 04/M03 A3017      RMK A02 SLP223 T00441027 PA001 DA-1203=
0141008421999992015010115134+32900-117300FM-15+007099999V0201101N002619999999N009999199+00491-00311102261ADDMA1102201999999REMMET114MOBOB1 METAR XM26 //007 329173 011513Z AUTO 11005KT 9999 05/M03 A3018      RMK A02 SLP226 T00491031 PA-08 DA-1155=
0141008421999992015010115274+32900-117300FM-16+007099999V0201101N003119999999N009999199+00491-00321102301ADDMA1102231999999REMMET114MOBOB1 SPECI XM26 //007 329173 011527Z AUTO 11006KT 9999 05/M03 A3019      RMK A02 SLP230 T00491032 PA-17 DA-1167=
0141008421999992015010115414+32900-117300FM-16+007099999V0201101N003119999999N009999199+00501-00331102301ADDMA1102231999999REMMET114MOBOB1 SPECI XM26 //007 329173 011541Z AUTO 11006KT 9999 05/M03 A3019      RMK A02 SLP230 T00501033 PA-17 DA-1155=
0141008421999992015010116134+32900-117300FM-15+007099999V0201101N002619999999N009999199+00631-00321102331ADDMA1102271999999REMMET114MOBOB1 METAR XM26 //007 329173 011613Z AUTO 11005KT 9999 06/M03 A3020      RMK A02 SLP233 T00631032 PA-27 DA-1005=
0140008421999992015010116274+32900-117300FM-16+007099999V0201001N002619999999N009999199+00691-00281102331ADDMA1102271999999REMMET113MOBOB1 SPECI XM26 //007 329173 011627Z AUTO 10005KT 9999 07/M03 A3020      RMK A02 SLP233 T00691028 PA-27 DA-930=
0140008421999992015010116404+32900-117300FM-16+007099999V0201001N002619999999N009999199+00741-00241102331ADDMA1102271999999REMMET113MOBOB1 SPECI XM26 //007 329173 011640Z AUTO 10005KT 9999 07/M02 A3020      RMK A02 SLP233 T00741024 PA-27 DA-866=
0140008421999992015010116534+32900-117300FM-15+007099999V0200901N002619999999N009999199+00811-00221102361ADDMA1102301999999REMMET113MOBOB1 METAR XM26 //007 329173 011653Z AUTO 09005KT 9999 08/M02 A3021      RMK A02 SLP236 T00811022 PA-36 DA-791=
0140008421999992015010117114+32900-117300FM-15+007099999V0201001N002119999999N009999199+00911-00171102361ADDMA1102301999999REMMET113MOBOB1 METAR XM26 //007 329173 011711Z AUTO 10004KT 9999 09/M02 A3021      RMK A02 SLP236 T00911017 PA-36 DA-667=
0140008421999992015010117254+32900-117300FM-16+007099999V0201001N002119999999N009999199+00991-00151102361ADDMA1102301999999REMMET113MOBOB1 SPECI XM26 //007 329173 011725Z AUTO 10004KT 9999 10/M02 A3021      RMK A02 SLP236 T00991015 PA-36 DA-569=
0140008421999992015010117424+32900-117300FM-16+007099999V0201001N001519999999N009999199+01091-00151102391ADDMA1102341999999REMMET113MOBOB1 SPECI XM26 //007 329173 011742Z AUTO 10003KT 9999 11/M01 A3022      RMK A02 SLP239 T01091015 PA-45 DA-459=
0140008421999992015010118134+32900-117300FM-15+007099999V0201401N001019999999N009999199+01211-00141102391ADDMA1102341999999REMMET113MOBOB1 METAR XM26 //007 329173 011813Z AUTO 14002KT 9999 12/M01 A3022      RMK A02 SLP239 T01211014 PA-45 DA-314=
0140008421999992015010118284+32900-117300FM-16+007099999V0201601N001019999999N009999199+01271-00081102351ADDMA1102301999999REMMET113MOBOB1 SPECI XM26 //007 329173 011828Z AUTO 16002KT 9999 13/M01 A3021      RMK A02 SLP235 T01271008 PA-36 DA-228=
0140008421999992015010118424+32900-117300FM-16+007099999V0201101N001019999999N009999199+01271-00101102351ADDMA1102301999999REMMET113MOBOB1 SPECI XM26 //007 329173 011842Z AUTO 11002KT 9999 13/M01 A3021      RMK A02 SLP235 T01271010 PA-36 DA-229=
0140008421999992015010119134+32900-117300FM-15+007099999V0201801N000519999999N009999199+01411-00071102321ADDMA1102271999999REMMET113MOBOB1 METAR XM26 //007 329173 011913Z AUTO 18001KT 9999 14/M01 A3020      RMK A02 SLP232 T01411007 PA-27 DA-049=
0140008421999992015010119264+32900-117300FM-16+007099999V0202601N000519999999N009999199+01491-00071102321ADDMA1102271999999REMMET113MOBOB1 SPECI XM26 //007 329173 011926Z AUTO 26001KT 9999 15/M01 A3020      RMK A02 SLP232 T01491007 PA-27 DA0046=
0139008421999992015010119414+32900-117300FM-16+007099999V0202601N000519999999N009999199+01601+00021102281ADDMA1102231999999REMMET112MOBOB1 SPECI XM26 //007 329173 011941Z AUTO 26001KT 9999 16/00 A3019      RMK A02 SLP228 T01600002 PA-17 DA0193=
0140008421999992015010119544+32900-117300FM-15+007099999V0202501N000519999999N009999199+01631-00011102281ADDMA1102231999999REMMET113MOBOB1 METAR XM26 //007 329173 011954Z AUTO 25001KT 9999 16/M00 A3019      RMK A02 SLP228 T01631001 PA-17 DA0226=
0139008421999992015010120124+32900-117300FM-15+007099999V0202601N000519999999N009999199+01651+00041102251ADDMA1102201999999REMMET112MOBOB1 METAR XM26 //007 329173 012012Z AUTO 26001KT 9999 17/00 A3018      RMK A02 SLP225 T01650004 PA-08 DA0264=
0139008421999992015010120254+32900-117300FM-16+007099999V0202601N000519999999N009999199+01721+00051102211ADDMA1102171999999REMMET112MOBOB1 SPECI XM26 //007 329173 012025Z AUTO 26001KT 9999 17/00 A3017      RMK A02 SLP221 T01720005 PA001 DA0358=
0139008421999992015010120384+32900-117300FM-16+007099999V0202601N000519999999N009999199+01701+00041102211ADDMA1102171999999REMMET112MOBOB1 SPECI XM26 //007 329173 012038Z AUTO 26001KT 9999 17/00 A3017      RMK A02 SLP221 T01700004 PA001 DA0335=
0139008421999992015010120524+32900-117300FM-15+007099999V0209999C000019999999N009999199+01761+00051102181ADDMA1102131999999REMMET112MOBOB1 METAR XM26 //007 329173 012052Z AUTO 00000KT 9999 18/01 A3016      RMK A02 SLP218 T01760005 PA010 DA0417=
0139008421999992015010121124+32900-117300FM-15+007099999V0209999C000019999999N009999199+01701+00041102181ADDMA1102131999999REMMET112MOBOB1 METAR XM26 //007 329173 012112Z AUTO 00000KT 9999 17/00 A3016      RMK A02 SLP218 T01700004 PA010 DA0346=
0139008421999992015010121264+32900-117300FM-16+007099999V0209999C000019999999N009999199+01691+00091102181ADDMA1102131999999REMMET112MOBOB1 SPECI XM26 //007 329173 012126Z AUTO 00000KT 9999 17/01 A3016      RMK A02 SLP218 T01690009 PA010 DA0337=
0139008421999992015010121394+32900-117300FM-16+007099999V0209999C000019999999N009999199+01701+00091102181ADDMA1102131999999REMMET112MOBOB1 SPECI XM26 //007 329173 012139Z AUTO 00000KT 9999 17/01 A3016      RMK A02 SLP218 T01700009 PA010 DA0349=
0139008421999992015010122144+32900-117300FM-15+007099999V0201601N000519999999N009999199+01551+00051102181ADDMA1102131999999REMMET112MOBOB1 METAR XM26 //007 329173 012214Z AUTO 16001KT 9999 16/01 A3016      RMK A02 SLP218 T01550005 PA010 DA0170=
0139008421999992015010122274+32900-117300FM-16+007099999V0201801N000519999999N009999199+01571+00051102181ADDMA1102131999999REMMET112MOBOB1 SPECI XM26 //007 329173 012227Z AUTO 18001KT 9999 16/01 A3016      RMK A02 SLP218 T01570005 PA010 DA0194=
0139008421999992015010122404+32900-117300FM-16+007099999V0201501N000519999999N009999199+01551+00081102181ADDMA1102131999999REMMET112MOBOB1 SPECI XM26 //007 329173 012240Z AUTO 15001KT 9999 16/01 A3016      RMK A02 SLP218 T01550008 PA010 DA0172=
0139008421999992015010123134+32900-117300FM-15+007099999V0209999C000019999999N009999199+01571+00171102181ADDMA1102131999999REMMET112MOBOB1 METAR XM26 //007 329173 012313Z AUTO 00000KT 9999 16/02 A3016      RMK A02 SLP218 T01570017 PA010 DA0201=
0139008421999992015010123274+32900-117300FM-16+007099999V0201601N000519999999N009999199+01511+00131102181ADDMA1102131999999REMMET112MOBOB1 SPECI XM26 //007 329173 012327Z AUTO 16001KT 9999 15/01 A3016      RMK A02 SLP218 T01510013 PA010 DA0127=
0139008421999992015010123404+32900-117300FM-16+007099999V0201101N000519999999N009999199+01481+00151102181ADDMA1102131999999REMMET112MOBOB1 SPECI XM26 //007 329173 012340Z AUTO 11001KT 9999 15/02 A3016      RMK A02 SLP218 T01480015 PA010 DA0093=
0139008421999992015010200124+32900-117300FM-15+007099999V0200901N000519999999N009999199+01431+00211102181ADDMA1102131999999REMMET112MOBOB1 METAR XM26 //007 329173 020012Z AUTO 09001KT 9999 14/02 A3016      RMK A02 SLP218 T01430021 PA010 DA0037=
0139008421999992015010200264+32900-117300FM-16+007099999V0202001N000519999999N009999199+01411+00241102181ADDMA1102131999999REMMET112MOBOB1 SPECI XM26 //007 329173 020026Z AUTO 20001KT 9999 14/02 A3016      RMK A02 SLP218 T01410024 PA010 DA0016=
0139008421999992015010200394+32900-117300FM-16+007099999V0201701N000519999999N009999199+01341+00271102181ADDMA1102131999999REMMET112MOBOB1 SPECI XM26 //007 329173 020039Z AUTO 17001KT 9999 13/03 A3016      RMK A02 SLP218 T01340027 PA010 DA-066=
0139008421999992015010200534+32900-117300FM-15+007099999V0201601N000519999999N009999199+01281+00271102191ADDMA1102131999999REMMET112MOBOB1 METAR XM26 //007 329173 020053Z AUTO 16001KT 9999 13/03 A3016      RMK A02 SLP219 T01280027 PA010 DA-137=
0139008421999992015010201114+32900-117300FM-15+007099999V0202001N000519999999N009999199+01231+00301102191ADDMA1102131999999REMMET112MOBOB1 METAR XM26 //007 329173 020111Z AUTO 20001KT 9999 12/03 A3016      RMK A02 SLP219 T01230030 PA010 DA-195=
0139008421999992015010201274+32900-117300FM-16+007099999V0201501N000519999999N009999199+01221+00281102221ADDMA1102171999999REMMET112MOBOB1 SPECI XM26 //007 329173 020127Z AUTO 15001KT 9999 12/03 A3017      RMK A02 SLP222 T01220028 PA001 DA-220=
0139008421999992015010201404+32900-117300FM-16+007099999V0209999C000019999999N009999199+01221+00351102221ADDMA1102171999999REMMET112MOBOB1 SPECI XM26 //007 329173 020140Z AUTO 00000KT 9999 12/03 A3017      RMK A02 SLP222 T01220035 PA001 DA-215=
0139008421999992015010202134+32900-117300FM-15+007099999V0209999C000019999999N009999199+01211+00381102261ADDMA1102201999999REMMET112MOBOB1 METAR XM26 //007 329173 020213Z AUTO 00000KT 9999 12/04 A3018      RMK A02 SLP226 T01210038 PA-08 DA-236=
0139008421999992015010202264+32900-117300FM-16+007099999V0201801N000519999999N009999199+01211+00341102261ADDMA1102201999999REMMET112MOBOB1 SPECI XM26 //007 329173 020226Z AUTO 18001KT 9999 12/03 A3018      RMK A02 SLP226 T01210034 PA-08 DA-239=
0139008421999992015010202404+32900-117300FM-16+007099999V0209999C000019999999N009999199+01201+00321102221ADDMA1102171999999REMMET112MOBOB1 SPECI XM26 //007 329173 020240Z AUTO 00000KT 9999 12/03 A3017      RMK A02 SLP222 T01200032 PA001 DA-241=
0139008421999992015010203134+32900-117300FM-15+007099999V0200701N000519999999N009999199+01181+00341102261ADDMA1102201999999REMMET112MOBOB1 METAR XM26 //007 329173 020313Z AUTO 07001KT 9999 12/03 A3018      RMK A02 SLP226 T01180034 PA-08 DA-275=
0139008421999992015010203274+32900-117300FM-16+007099999V0201001N000519999999N009999199+01141+00311102261ADDMA1102201999999REMMET112MOBOB1 SPECI XM26 //007 329173 020327Z AUTO 10001KT 9999 11/03 A3018      RMK A02 SLP226 T01140031 PA-08 DA-326=
0139008421999992015010203404+32900-117300FM-16+007099999V0200901N000519999999N009999199+01131+00281102291ADDMA1102231999999REMMET112MOBOB1 SPECI XM26 //007 329173 020340Z AUTO 09001KT 9999 11/03 A3019      RMK A02 SLP229 T01130028 PA-17 DA-351=
0139008421999992015010203534+32900-117300FM-15+007099999V0201201N000519999999N009999199+01101+00251102291ADDMA1102231999999REMMET112MOBOB1 METAR XM26 //007 329173 020353Z AUTO 12001KT 9999 11/03 A3019      RMK A02 SLP229 T01100025 PA-17 DA-389=
0139008421999992015010204114+32900-117300FM-15+007099999V0201201N000519999999N009999199+01051+00261102291ADDMA1102231999999REMMET112MOBOB1 METAR XM26 //007 329173 020411Z AUTO 12001KT 9999 11/03 A3019      RMK A02 SLP229 T01050026 PA-17 DA-449=
0139008421999992015010204264+32900-117300FM-16+007099999V0201601N000519999999N009999199+01031+00251102291ADDMA1102231999999REMMET112MOBOB1 SPECI XM26 //007 329173 020426Z AUTO 16001KT 9999 10/03 A3019      RMK A02 SLP229 T01030025 PA-17 DA-474=
0139008421999992015010204394+32900-117300FM-16+007099999V0201201N001019999999N009999199+01021+00251102291ADDMA1102231999999REMMET112MOBOB1 SPECI XM26 //007 329173 020439Z AUTO 12002KT 9999 10/03 A3019      RMK A02 SLP229 T01020025 PA-17 DA-486=
0139008421999992015010204524+32900-117300FM-15+007099999V0201201N001519999999N009999199+01031+00251102291ADDMA1102231999999REMMET112MOBOB1 METAR XM26 //007 329173 020452Z AUTO 12003KT 9999 10/02 A3019      RMK A02 SLP229 T01030025 PA-17 DA-474=
0139008421999992015010205124+32900-117300FM-15+007099999V0201101N001519999999N009999199+01021+00241102291ADDMA1102231999999REMMET112MOBOB1 METAR XM26 //007 329173 020512Z AUTO 11003KT 9999 10/02 A3019      RMK A02 SLP229 T01020024 PA-17 DA-486=
0139008421999992015010205254+32900-117300FM-16+007099999V0201001N001519999999N009999199+01001+00261102291ADDMA1102231999999REMMET112MOBOB1 SPECI XM26 //007 329173 020525Z AUTO 10003KT 9999 10/03 A3019      RMK A02 SLP229 T01000026 PA-17 DA-510=
0139008421999992015010205404+32900-117300FM-16+007099999V0201001N002119999999N009999199+00851+00221102291ADDMA1102231999999REMMET112MOBOB1 SPECI XM26 //007 329173 020540Z AUTO 10004KT 9999 09/02 A3019      RMK A02 SLP229 T00850022 PA-17 DA-694=
0139008421999992015010205544+32900-117300FM-15+007099999V0201101N001019999999N009999199+00901+00241102291ADDMA1102231999999REMMET112MOBOB1 METAR XM26 //007 329173 020554Z AUTO 11002KT 9999 09/02 A3019      RMK A02 SLP229 T00900024 PA-17 DA-632=
0139008421999992015010206124+32900-117300FM-15+007099999V0201101N002619999999N009999199+00911+00211102281ADDMA1102231999999REMMET112MOBOB1 METAR XM26 //007 329173 020612Z AUTO 11005KT 9999 09/02 A3019      RMK A02 SLP228 T00910021 PA-17 DA-622=
0139008421999992015010206254+32900-117300FM-16+007099999V0201101N001519999999N009999199+00911+00211102281ADDMA1102231999999REMMET112MOBOB1 SPECI XM26 //007 329173 020625Z AUTO 11003KT 9999 09/02 A3019      RMK A02 SLP228 T00910021 PA-17 DA-622=
0139008421999992015010206384+32900-117300FM-16+007099999V0201001N001519999999N009999199+00921+00221102281ADDMA1102231999999REMMET112MOBOB1 SPECI XM26 //007 329173 020638Z AUTO 10003KT 9999 09/02 A3019      RMK A02 SLP228 T00920022 PA-17 DA-609=
0139008421999992015010206524+32900-117300FM-15+007099999V0201001N001519999999N009999199+00931+00201102281ADDMA1102231999999REMMET112MOBOB1 METAR XM26 //007 329173 020652Z AUTO 10003KT 9999 09/02 A3019      RMK A02 SLP228 T00930020 PA-17 DA-598=
0139008421999992015010207124+32900-117300FM-15+007099999V0201101N002119999999N009999199+00841+00191102281ADDMA1102231999999REMMET112MOBOB1 METAR XM26 //007 329173 020712Z AUTO 11004KT 9999 08/02 A3019      RMK A02 SLP228 T00840019 PA-17 DA-708=
0139008421999992015010207264+32900-117300FM-16+007099999V0201101N002119999999N009999199+00791+00191102251ADDMA1102201999999REMMET112MOBOB1 SPECI XM26 //007 329173 020726Z AUTO 11004KT 9999 08/02 A3018      RMK A02 SLP225 T00790019 PA-08 DA-758=
0139008421999992015010207414+32900-117300FM-16+007099999V0201001N002619999999N009999199+00751+00161102251ADDMA1102201999999REMMET112MOBOB1 SPECI XM26 //007 329173 020741Z AUTO 10005KT 9999 08/02 A3018      RMK A02 SLP225 T00750016 PA-08 DA-809=
0139008421999992015010208484+32900-117300FM-15+007099999V0201001N002119999999N009999199+00701+00131102211ADDMA1102171999999REMMET112MOBOB1 METAR XM26 //007 329173 020848Z AUTO 10004KT 9999 07/01 A3017      RMK A02 SLP221 T00700013 PA001 DA-860=
0139008421999992015010209134+32900-117300FM-15+007099999V0201001N002619999999N009999199+00701+00111102211ADDMA1102171999999REMMET112MOBOB1 METAR XM26 //007 329173 020913Z AUTO 10005KT 9999 07/01 A3017      RMK A02 SLP221 T00700011 PA001 DA-861=
0139008421999992015010209274+32900-117300FM-16+007099999V0201001N002119999999N009999199+00721+00101102211ADDMA1102171999999REMMET112MOBOB1 SPECI XM26 //007 329173 020927Z AUTO 10004KT 9999 07/01 A3017      RMK A02 SLP221 T00720010 PA001 DA-838=
0139008421999992015010209404+32900-117300FM-16+007099999V0201001N002119999999N009999199+00741+00081102211ADDMA1102171999999REMMET112MOBOB1 SPECI XM26 //007 329173 020940Z AUTO 10004KT 9999 07/01 A3017      RMK A02 SLP221 T00740008 PA001 DA-815=
0139008421999992015010210134+32900-117300FM-15+007099999V0201001N001519999999N009999199+00791+00121102211ADDMA1102171999999REMMET112MOBOB1 METAR XM26 //007 329173 021013Z AUTO 10003KT 9999 08/01 A3017      RMK A02 SLP221 T00790012 PA001 DA-751=
0139008421999992015010210294+32900-117300FM-16+007099999V0201001N002119999999N009999199+00731+00011102181ADDMA1102131999999REMMET112MOBOB1 SPECI XM26 //007 329173 021029Z AUTO 10004KT 9999 07/00 A3016      RMK A02 SLP218 T00730001 PA010 DA-819=
0139008421999992015010210424+32900-117300FM-16+007099999V0201001N002119999999N009999199+00681+00021102181ADDMA1102131999999REMMET112MOBOB1 SPECI XM26 //007 329173 021042Z AUTO 10004KT 9999 07/00 A3016      RMK A02 SLP218 T00680002 PA010 DA-880=
0139008421999992015010211134+32900-117300FM-15+007099999V0201001N002119999999N009999199+00661+00011102181ADDMA1102131999999REMMET112MOBOB1 METAR XM26 //007 329173 021113Z AUTO 10004KT 9999 07/00 A3016      RMK A02 SLP218 T00660001 PA010 DA-905=
0140008421999992015010211264+32900-117300FM-16+007099999V0200901N002119999999N009999199+00651-00021102181ADDMA1102131999999REMMET113MOBOB1 SPECI XM26 //007 329173 021126Z AUTO 09004KT 9999 07/M00 A3016      RMK A02 SLP218 T00651002 PA010 DA-919=
0140008421999992015010211394+32900-117300FM-16+007099999V0201001N002119999999N009999199+00671-00061102181ADDMA1102131999999REMMET113MOBOB1 SPECI XM26 //007 329173 021139Z AUTO 10004KT 9999 07/M01 A3016      RMK A02 SLP218 T00671006 PA010 DA-897=
0140008421999992015010211534+32900-117300FM-15+007099999V0201001N002119999999N009999199+00691-00071102181ADDMA1102131999999REMMET113MOBOB1 METAR XM26 //007 329173 021153Z AUTO 10004KT 9999 07/M01 A3016      RMK A02 SLP218 T00691007 PA010 DA-873=
0140008421999992015010212134+32900-117300FM-15+007099999V0201001N002119999999N009999199+00701-00051102181ADDMA1102131999999REMMET113MOBOB1 METAR XM26 //007 329173 021213Z AUTO 10004KT 9999 07/M01 A3016      RMK A02 SLP218 T00701005 PA010 DA-860=
0140008421999992015010212264+32900-117300FM-16+007099999V0201001N002119999999N009999199+00661-00051102181ADDMA1102131999999REMMET113MOBOB1 SPECI XM26 //007 329173 021226Z AUTO 10004KT 9999 07/M01 A3016      RMK A02 SLP218 T00661005 PA010 DA-909=
0140008421999992015010212414+32900-117300FM-16+007099999V0201001N002119999999N009999199+00651-00041102181ADDMA1102131999999REMMET113MOBOB1 SPECI XM26 //007 329173 021241Z AUTO 10004KT 9999 07/M00 A3016      RMK A02 SLP218 T00651004 PA010 DA-920=
0140008421999992015010213134+32900-117300FM-15+007099999V0201101N001519999999N009999199+00641-00021102181ADDMA1102131999999REMMET113MOBOB1 METAR XM26 //007 329173 021313Z AUTO 11003KT 9999 06/M00 A3016      RMK A02 SLP218 T00641002 PA010 DA-932=
0140008421999992015010213264+32900-117300FM-16+007099999V0201001N002619999999N009999199+00671-00041102221ADDMA1102171999999REMMET113MOBOB1 SPECI XM26 //007 329173 021326Z AUTO 10005KT 9999 07/M00 A3017      RMK A02 SLP222 T00671004 PA001 DA-907=
0140008421999992015010213414+32900-117300FM-16+007099999V0201001N002619999999N009999199+00691-00091102221ADDMA1102171999999REMMET113MOBOB1 SPECI XM26 //007 329173 021341Z AUTO 10005KT 9999 07/M01 A3017      RMK A02 SLP222 T00691009 PA001 DA-885=
0140008421999992015010213544+32900-117300FM-15+007099999V0201101N002619999999N009999199+00701-00131102221ADDMA1102171999999REMMET113MOBOB1 METAR XM26 //007 329173 021354Z AUTO 11005KT 9999 07/M01 A3017      RMK A02 SLP222 T00701013 PA001 DA-875=
0140008421999992015010214124+32900-117300FM-15+007099999V0201001N002119999999N009999199+00671-00141102251ADDMA1102201999999REMMET113MOBOB1 METAR XM26 //007 329173 021412Z AUTO 10004KT 9999 07/M01 A3018      RMK A02 SLP225 T00671014 PA-08 DA-924=
0140008421999992015010214254+32900-117300FM-16+007099999V0201001N002619999999N009999199+00681-00191102251ADDMA1102201999999REMMET113MOBOB1 SPECI XM26 //007 329173 021425Z AUTO 10005KT 9999 07/M02 A3018      RMK A02 SLP225 T00681019 PA-08 DA-915=
0140008421999992015010214384+32900-117300FM-16+007099999V0201001N002619999999N009999199+00621-00181102291ADDMA1102231999999REMMET113MOBOB1 SPECI XM26 //007 329173 021438Z AUTO 10005KT 9999 06/M02 A3019      RMK A02 SLP229 T00621018 PA-17 DA-999=
0140008421999992015010214544+32900-117300FM-15+007099999V0201001N002619999999N009999199+00621-00171102291ADDMA1102231999999REMMET113MOBOB1 METAR XM26 //007 329173 021454Z AUTO 10005KT 9999 06/M02 A3019      RMK A02 SLP229 T00621017 PA-17 DA-999=
0141008421999992015010215124+32900-117300FM-15+007099999V0201001N002619999999N009999199+00571-00201102321ADDMA1102271999999REMMET114MOBOB1 METAR XM26 //007 329173 021512Z AUTO 10005KT 9999 06/M02 A3020      RMK A02 SLP232 T00571020 PA-27 DA-1073=
0141008421999992015010215254+32900-117300FM-16+007099999V0201101N002619999999N009999199+00601-00191102321ADDMA1102271999999REMMET114MOBOB1 SPECI XM26 //007 329173 021525Z AUTO 11005KT 9999 06/M02 A3020      RMK A02 SLP232 T00601019 PA-27 DA-1036=
0141008421999992015010215394+32900-117300FM-16+007099999V0201101N001519999999N009999199+00631-00181102361ADDMA1102301999999REMMET114MOBOB1 SPECI XM26 //007 329173 021539Z AUTO 11003KT 9999 06/M02 A3021      RMK A02 SLP236 T00631018 PA-36 DA-1010=
0140008421999992015010215544+32900-117300FM-15+007099999V0201001N002119999999N009999199+00681-00161102361ADDMA1102301999999REMMET113MOBOB1 METAR XM26 //007 329173 021554Z AUTO 10004KT 9999 07/M02 A3021      RMK A02 SLP236 T00681016 PA-36 DA-947=
0140008421999992015010216124+32900-117300FM-15+007099999V0201001N002119999999N009999199+00741-00151102361ADDMA1102301999999REMMET113MOBOB1 METAR XM26 //007 329173 021612Z AUTO 10004KT 9999 07/M01 A3021      RMK A02 SLP236 T00741015 PA-36 DA-873=
0140008421999992015010216254+32900-117300FM-16+007099999V0200901N002119999999N009999199+00781-00131102361ADDMA1102301999999REMMET113MOBOB1 SPECI XM26 //007 329173 021625Z AUTO 09004KT 9999 08/M01 A3021      RMK A02 SLP236 T00781013 PA-36 DA-823=
0140008421999992015010216394+32900-117300FM-16+007099999V0200901N002119999999N009999199+00841-00111102391ADDMA1102341999999REMMET113MOBOB1 SPECI XM26 //007 329173 021639Z AUTO 09004KT 9999 08/M01 A3022      RMK A02 SLP239 T00841011 PA-45 DA-761=
0140008421999992015010216534+32900-117300FM-15+007099999V0200901N001519999999N009999199+00961-00061102391ADDMA1102341999999REMMET113MOBOB1 METAR XM26 //007 329173 021653Z AUTO 09003KT 9999 10/M01 A3022      RMK A02 SLP239 T00961006 PA-45 DA-612=
0140008421999992015010217114+32900-117300FM-15+007099999V0201101N001519999999N009999199+01051+00001102421ADDMA1102401999999REMMET113MOBOB1 METAR XM26 //007 329173 021711Z AUTO 11003KT 9999 11/M00 A3024      RMK A02 SLP242 T01051000 PA-54 DA-511=
0139008421999992015010217254+32900-117300FM-16+007099999V0201101N000519999999N009999199+01151+00031102421ADDMA1102401999999REMMET112MOBOB1 SPECI XM26 //007 329173 021725Z AUTO 11001KT 9999 12/00 A3024      RMK A02 SLP242 T01150003 PA-54 DA-388=
0139008421999992015010217384+32900-117300FM-16+007099999V0209999C000019999999N009999199+01301+00091102421ADDMA1102401999999REMMET112MOBOB1 SPECI XM26 //007 329173 021738Z AUTO 00000KT 9999 13/01 A3024      RMK A02 SLP242 T01300009 PA-54 DA-205=
0139008421999992015010217524+32900-117300FM-15+007099999V0202501N000519999999N009999199+01441+00211102411ADDMA1102401999999REMMET112MOBOB1 METAR XM26 //007 329173 021752Z AUTO 25001KT 9999 14/02 A3024      RMK A02 SLP241 T01440021 PA-54 DA-031=
0139008421999992015010218124+32900-117300FM-15+007099999V0209999C000019999999N009999199+01551+00241102381ADDMA1102341999999REMMET112MOBOB1 METAR XM26 //007 329173 021812Z AUTO 00000KT 9999 16/02 A3022      RMK A02 SLP238 T01550024 PA-45 DA0113=
0139008421999992015010218264+32900-117300FM-16+007099999V0209999C000019999999N009999199+01591+00251102341ADDMA1102301999999REMMET112MOBOB1 SPECI XM26 //007 329173 021826Z AUTO 00000KT 9999 16/03 A3021      RMK A02 SLP234 T01590025 PA-36 DA0172=
0139008421999992015010218434+32900-117300FM-16+007099999V0209999C000019999999N009999199+01621+00321102341ADDMA1102301999999REMMET112MOBOB1 SPECI XM26 //007 329173 021843Z AUTO 00000KT 9999 16/03 A3021      RMK A02 SLP234 T01620032 PA-36 DA0212=
0139008421999992015010219134+32900-117300FM-15+007099999V0209999C000019999999N009999199+01671+00321102281ADDMA1102231999999REMMET112MOBOB1 METAR XM26 //007 329173 021913Z AUTO 00000KT 9999 17/03 A3019      RMK A02 SLP228 T01670032 PA-17 DA0294=
0139008421999992015010219274+32900-117300FM-16+007099999V0209999C000019999999N009999199+01661+00321102281ADDMA1102231999999REMMET112MOBOB1 SPECI XM26 //007 329173 021927Z AUTO 00000KT 9999 17/03 A3019      RMK A02 SLP228 T01660032 PA-17 DA0282=
0139008421999992015010219404+32900-117300FM-16+007099999V0209999C000019999999N009999199+01651+00361102241ADDMA1102201999999REMMET112MOBOB1 SPECI XM26 //007 329173 021940Z AUTO 00000KT 9999 17/04 A3018      RMK A02 SLP224 T01650036 PA-08 DA0285=
0139008421999992015010219534+32900-117300FM-15+007099999V0209999C000019999999N009999199+01671+00361102241ADDMA1102201999999REMMET112MOBOB1 METAR XM26 //007 329173 021953Z AUTO 00000KT 9999 17/04 A3018      RMK A02 SLP224 T01670036 PA-08 DA0308=
0139008421999992015010220124+32900-117300FM-15+007099999V0209999C000019999999N009999199+01661+00371102211ADDMA1102171999999REMMET112MOBOB1 METAR XM26 //007 329173 022012Z AUTO 00000KT 9999 17/04 A3017      RMK A02 SLP221 T01660037 PA001 DA0309=
0139008421999992015010220254+32900-117300FM-16+007099999V0209999C000019999999N009999199+01671+00381102181ADDMA1102131999999REMMET112MOBOB1 SPECI XM26 //007 329173 022025Z AUTO 00000KT 9999 17/04 A3016      RMK A02 SLP218 T01670038 PA010 DA0333=
0139008421999992015010220384+32900-117300FM-16+007099999V0209999C000019999999N009999199+01651+00421102181ADDMA1102131999999REMMET112MOBOB1 SPECI XM26 //007 329173 022038Z AUTO 00000KT 9999 17/04 A3016      RMK A02 SLP218 T01650042 PA010 DA0312=
0139008421999992015010220524+32900-117300FM-15+007099999V0209999C000019999999N009999199+01681+00441102181ADDMA1102131999999REMMET112MOBOB1 METAR XM26 //007 329173 022052Z AUTO 00000KT 9999 17/04 A3016      RMK A02 SLP218 T01680044 PA010 DA0349=
0139008421999992015010221124+32900-117300FM-15+007099999V0209999C000019999999N009999199+01691+00471102141ADDMA1102101999999REMMET112MOBOB1 METAR XM26 //007 329173 022112Z AUTO 00000KT 9999 17/05 A3015      RMK A02 SLP214 T01690047 PA020 DA0374=
0139008421999992015010221254+32900-117300FM-16+007099999V0209999C000019999999N009999199+01691+00481102141ADDMA1102101999999REMMET112MOBOB1 SPECI XM26 //007 329173 022125Z AUTO 00000KT 9999 17/05 A3015      RMK A02 SLP214 T01690048 PA020 DA0376=
0139008421999992015010221404+32900-117300FM-16+007099999V0209999C000019999999N009999199+01701+00501102111ADDMA1102071999999REMMET112MOBOB1 SPECI XM26 //007 329173 022140Z AUTO 00000KT 9999 17/05 A3014      RMK A02 SLP211 T01700050 PA029 DA0400=
0139008421999992015010221534+32900-117300FM-15+007099999V0201901N000519999999N009999199+01611+00511102111ADDMA1102071999999REMMET112MOBOB1 METAR XM26 //007 329173 022153Z AUTO 19001KT 9999 16/05 A3014      RMK A02 SLP211 T01610051 PA029 DA0295=
0139008421999992015010222114+32900-117300FM-15+007099999V0209999C000019999999N009999199+01701+00551102101ADDMA1102071999999REMMET112MOBOB1 METAR XM26 //007 329173 022211Z AUTO 00000KT 9999 17/05 A3014      RMK A02 SLP210 T01700055 PA029 DA0404=
0139008421999992015010222254+32900-117300FM-16+007099999V0201901N000519999999N009999199+01621+00521102111ADDMA1102071999999REMMET112MOBOB1 SPECI XM26 //007 329173 022225Z AUTO 19001KT 9999 16/05 A3014      RMK A02 SLP211 T01620052 PA029 DA0307=
0139008421999992015010222384+32900-117300FM-16+007099999V0209999C000019999999N009999199+01601+00521102111ADDMA1102071999999REMMET112MOBOB1 SPECI XM26 //007 329173 022238Z AUTO 00000KT 9999 16/05 A3014      RMK A02 SLP211 T01600052 PA029 DA0284=
0139008421999992015010222514+32900-117300FM-15+007099999V0209999C000019999999N009999199+01671+00551102111ADDMA1102071999999REMMET112MOBOB1 METAR XM26 //007 329173 022251Z AUTO 00000KT 9999 17/06 A3014      RMK A02 SLP211 T01670055 PA029 DA0369=
0139008421999992015010223124+32900-117300FM-15+007099999V0209999C000019999999N009999199+01621+00581102111ADDMA1102071999999REMMET112MOBOB1 METAR XM26 //007 329173 022312Z AUTO 00000KT 9999 16/06 A3014      RMK A02 SLP211 T01620058 PA029 DA0312=
0139008421999992015010223264+32900-117300FM-16+007099999V0202001N000519999999N009999199+01601+00541102111ADDMA1102071999999REMMET112MOBOB1 SPECI XM26 //007 329173 022326Z AUTO 20001KT 9999 16/05 A3014      RMK A02 SLP211 T01600054 PA029 DA0286=
0139008421999992015010223404+32900-117300FM-16+007099999V0202201N000519999999N009999199+01551+00541102081ADDMA1102031999999REMMET112MOBOB1 SPECI XM26 //007 329173 022340Z AUTO 22001KT 9999 16/05 A3013      RMK A02 SLP208 T01550054 PA038 DA0238=
0139008421999992015010300124+32900-117300FM-15+007099999V0209999C000019999999N009999199+01531+00621102111ADDMA1102071999999REMMET112MOBOB1 METAR XM26 //007 329173 030012Z AUTO 00000KT 9999 15/06 A3014      RMK A02 SLP211 T01530062 PA029 DA0210=
0139008421999992015010300254+32900-117300FM-16+007099999V0202201N000519999999N009999199+01451+00591102111ADDMA1102071999999REMMET112MOBOB1 SPECI XM26 //007 329173 030025Z AUTO 22001KT 9999 15/06 A3014      RMK A02 SLP211 T01450059 PA029 DA0112=
0139008421999992015010300394+32900-117300FM-16+007099999V0201701N000519999999N009999199+01401+00511102111ADDMA1102071999999REMMET112MOBOB1 SPECI XM26 //007 329173 030039Z AUTO 17001KT 9999 14/05 A3014      RMK A02 SLP211 T01400051 PA029 DA0047=
0139008421999992015010301124+32900-117300FM-15+007099999V0201901N000519999999N009999199+01301+00631102111ADDMA1102071999999REMMET112MOBOB1 METAR XM26 //007 329173 030112Z AUTO 19001KT 9999 13/06 A3014      RMK A02 SLP211 T01300063 PA029 DA-063=
0139008421999992015010301264+32900-117300FM-16+007099999V0201901N000519999999N009999199+01281+00631102111ADDMA1102071999999REMMET112MOBOB1 SPECI XM26 //007 329173 030126Z AUTO 19001KT 9999 13/06 A3014      RMK A02 SLP211 T01280063 PA029 DA-087=
0139008421999992015010301404+32900-117300FM-16+007099999V0201601N000519999999N009999199+01271+00611102151ADDMA1102101999999REMMET112MOBOB1 SPECI XM26 //007 329173 030140Z AUTO 16001KT 9999 13/06 A3015      RMK A02 SLP215 T01270061 PA020 DA-112=
0139008421999992015010301534+32900-117300FM-15+007099999V0201901N000519999999N009999199+01261+00621102151ADDMA1102101999999REMMET112MOBOB1 METAR XM26 //007 329173 030153Z AUTO 19001KT 9999 13/06 A3015      RMK A02 SLP215 T01260062 PA020 DA-123=
0139008421999992015010302124+32900-117300FM-15+007099999V0209999C000019999999N009999199+01231+00611102151ADDMA1102101999999REMMET112MOBOB1 METAR XM26 //007 329173 030212Z AUTO 00000KT 9999 12/06 A3015      RMK A02 SLP215 T01230061 PA020 DA-160=
0139008421999992015010302254+32900-117300FM-16+007099999V0209999C000019999999N009999199+01231+00571102181ADDMA1102131999999REMMET112MOBOB1 SPECI XM26 //007 329173 030225Z AUTO 00000KT 9999 12/06 A3016      RMK A02 SLP218 T01230057 PA010 DA-175=
0139008421999992015010302384+32900-117300FM-16+007099999V0209999C000019999999N009999199+01221+00601102181ADDMA1102131999999REMMET112MOBOB1 SPECI XM26 //007 329173 030238Z AUTO 00000KT 9999 12/06 A3016      RMK A02 SLP218 T01220060 PA010 DA-185=
0139008421999992015010302524+32900-117300FM-15+007099999V0200901N000519999999N009999199+01211+00601102181ADDMA1102131999999REMMET112MOBOB1 METAR XM26 //007 329173 030252Z AUTO 09001KT 9999 12/06 A3016      RMK A02 SLP218 T01210060 PA010 DA-196=
0139008421999992015010303124+32900-117300FM-15+007099999V0209999C000019999999N009999199+01191+00611102221ADDMA1102171999999REMMET112MOBOB1 METAR XM26 //007 329173 030312Z AUTO 00000KT 9999 12/06 A3017      RMK A02 SLP222 T01190061 PA001 DA-231=
0139008421999992015010303254+32900-117300FM-16+007099999V0200901N000519999999N009999199+01191+00601102221ADDMA1102171999999REMMET112MOBOB1 SPECI XM26 //007 329173 030325Z AUTO 09001KT 9999 12/06 A3017      RMK A02 SLP222 T01190060 PA001 DA-232=
0139008421999992015010303384+32900-117300FM-16+007099999V0201001N000519999999N009999199+01191+00611102251ADDMA1102201999999REMMET112MOBOB1 SPECI XM26 //007 329173 030338Z AUTO 10001KT 9999 12/06 A3018      RMK A02 SLP225 T01190061 PA-08 DA-243=
0139008421999992015010303524+32900-117300FM-15+007099999V0201101N001019999999N009999199+01131+00591102291ADDMA1102231999999REMMET112MOBOB1 METAR XM26 //007 329173 030352Z AUTO 11002KT 9999 11/06 A3019      RMK A02 SLP229 T01130059 PA-17 DA-328=
0139008421999992015010304124+32900-117300FM-15+007099999V0201101N001019999999N009999199+01091+00581102291ADDMA1102231999999REMMET112MOBOB1 METAR XM26 //007 329173 030412Z AUTO 11002KT 9999 11/06 A3019      RMK A02 SLP229 T01090058 PA-17 DA-377=
0139008421999992015010304254+32900-117300FM-16+007099999V0201001N001519999999N009999199+01101+00571102321ADDMA1102271999999REMMET112MOBOB1 SPECI XM26 //007 329173 030425Z AUTO 10003KT 9999 11/06 A3020      RMK A02 SLP232 T01100057 PA-27 DA-377=
0139008421999992015010304394+32900-117300FM-16+007099999V0201101N001519999999N009999199+01041+00531102321ADDMA1102271999999REMMET112MOBOB1 SPECI XM26 //007 329173 030439Z AUTO 11003KT 9999 10/05 A3020      RMK A02 SLP232 T01040053 PA-27 DA-453=
0139008421999992015010304524+32900-117300FM-15+007099999V0201001N001519999999N009999199+01031+00531102321ADDMA1102271999999REMMET112MOBOB1 METAR XM26 //007 329173 030452Z AUTO 10003KT 9999 10/05 A3020      RMK A02 SLP232 T01030053 PA-27 DA-465=
0139008421999992015010305124+32900-117300FM-15+007099999V0201101N002119999999N009999199+01041+00531102351ADDMA1102301999999REMMET112MOBOB1 METAR XM26 //007 329173 030512Z AUTO 11004KT 9999 10/05 A3021      RMK A02 SLP235 T01040053 PA-36 DA-464=
0139008421999992015010305254+32900-117300FM-16+007099999V0201101N001519999999N009999199+01031+00531102351ADDMA1102301999999REMMET112MOBOB1 SPECI XM26 //007 329173 030525Z AUTO 11003KT 9999 10/05 A3021      RMK A02 SLP235 T01030053 PA-36 DA-477=
0139008421999992015010305384+32900-117300FM-16+007099999V0201001N001519999999N009999199+01021+00521102351ADDMA1102301999999REMMET112MOBOB1 SPECI XM26 //007 329173 030538Z AUTO 10003KT 9999 10/05 A3021      RMK A02 SLP235 T01020052 PA-36 DA-489=
0139008421999992015010305524+32900-117300FM-15+007099999V0201101N001519999999N009999199+00981+00511102351ADDMA1102301999999REMMET112MOBOB1 METAR XM26 //007 329173 030552Z AUTO 11003KT 9999 10/05 A3021      RMK A02 SLP235 T00980051 PA-36 DA-538=
0139008421999992015010306124+32900-117300FM-15+007099999V0201101N001519999999N009999199+01001+00521102341ADDMA1102301999999REMMET112MOBOB1 METAR XM26 //007 329173 030612Z AUTO 11003KT 9999 10/05 A3021      RMK A02 SLP234 T01000052 PA-36 DA-513=
0139008421999992015010306254+32900-117300FM-16+007099999V0201001N001519999999N009999199+01001+00541102341ADDMA1102301999999REMMET112MOBOB1 SPECI XM26 //007 329173 030625Z AUTO 10003KT 9999 10/05 A3021      RMK A02 SLP234 T01000054 PA-36 DA-512=
0139008421999992015010306384+32900-117300FM-16+007099999V0201101N002119999999N009999199+01001+00531102341ADDMA1102301999999REMMET112MOBOB1 SPECI XM26 //007 329173 030638Z AUTO 11004KT 9999 10/05 A3021      RMK A02 SLP234 T01000053 PA-36 DA-513=
0139008421999992015010307124+32900-117300FM-15+007099999V0201101N002119999999N009999199+00961+00511102341ADDMA1102301999999REMMET112MOBOB1 METAR XM26 //007 329173 030712Z AUTO 11004KT 9999 10/05 A3021      RMK A02 SLP234 T00960051 PA-36 DA-563=
0139008421999992015010307254+32900-117300FM-16+007099999V0201101N002119999999N009999199+00921+00481102341ADDMA1102301999999REMMET112MOBOB1 SPECI XM26 //007 329173 030725Z AUTO 11004KT 9999 09/05 A3021      RMK A02 SLP234 T00920048 PA-36 DA-613=
0139008421999992015010307384+32900-117300FM-16+007099999V0201101N002119999999N009999199+00871+00451102341ADDMA1102301999999REMMET112MOBOB1 SPECI XM26 //007 329173 030738Z AUTO 11004KT 9999 09/05 A3021      RMK A02 SLP234 T00870045 PA-36 DA-676=
0139008421999992015010307524+32900-117300FM-15+007099999V0201101N001519999999N009999199+00861+00431102341ADDMA1102301999999REMMET112MOBOB1 METAR XM26 //007 329173 030752Z AUTO 11003KT 9999 09/04 A3021      RMK A02 SLP234 T00860043 PA-36 DA-690=
0139008421999992015010308124+32900-117300FM-15+007099999V0201101N001519999999N009999199+00871+00441102311ADDMA1102271999999REMMET112MOBOB1 METAR XM26 //007 329173 030812Z AUTO 11003KT 9999 09/04 A3020      RMK A02 SLP231 T00870044 PA-27 DA-666=
0139008421999992015010308294+32900-117300FM-16+007099999V0201101N002119999999N009999199+00891+00441102311ADDMA1102271999999REMMET112MOBOB1 SPECI XM26 //007 329173 030829Z AUTO 11004KT 9999 09/04 A3020      RMK A02 SLP231 T00890044 PA-27 DA-642=
0139008421999992015010308424+32900-117300FM-16+007099999V0201201N002119999999N009999199+00861+00431102311ADDMA1102271999999REMMET112MOBOB1 SPECI XM26 //007 329173 030842Z AUTO 12004KT 9999 09/04 A3020      RMK A02 SLP231 T00860043 PA-27 DA-679=
0139008421999992015010309134+32900-117300FM-15+007099999V0201101N001519999999N009999199+00861+00451102341ADDMA1102301999999REMMET112MOBOB1 METAR XM26 //007 329173 030913Z AUTO 11003KT 9999 09/05 A3021      RMK A02 SLP234 T00860045 PA-36 DA-689=
0139008421999992015010309264+32900-117300FM-16+007099999V0201001N002119999999N009999199+00861+00451102341ADDMA1102301999999REMMET112MOBOB1 SPECI XM26 //007 329173 030926Z AUTO 10004KT 9999 09/05 A3021      RMK A02 SLP234 T00860045 PA-36 DA-688=
0139008421999992015010309394+32900-117300FM-16+007099999V0201101N002119999999N009999199+00871+00461102341ADDMA1102301999999REMMET112MOBOB1 SPECI XM26 //007 329173 030939Z AUTO 11004KT 9999 09/05 A3021      RMK A02 SLP234 T00870046 PA-36 DA-676=
0139008421999992015010310134+32900-117300FM-15+007099999V0201201N002119999999N009999199+00851+00441102341ADDMA1102301999999REMMET112MOBOB1 METAR XM26 //007 329173 031013Z AUTO 12004KT 9999 09/04 A3021      RMK A02 SLP234 T00850044 PA-36 DA-702=
0139008421999992015010310274+32900-117300FM-16+007099999V0201101N001519999999N009999199+00811+00421102341ADDMA1102301999999REMMET112MOBOB1 SPECI XM26 //007 329173 031027Z AUTO 11003KT 9999 08/04 A3021      RMK A02 SLP234 T00810042 PA-36 DA-752=
0139008421999992015010310404+32900-117300FM-16+007099999V0201101N002119999999N009999199+00821+00421102341ADDMA1102301999999REMMET112MOBOB1 SPECI XM26 //007 329173 031040Z AUTO 11004KT 9999 08/04 A3021      RMK A02 SLP234 T00820042 PA-36 DA-739=
0139008421999992015010311114+32900-117300FM-15+007099999V0201101N002119999999N009999199+00801+00381102311ADDMA1102271999999REMMET112MOBOB1 METAR XM26 //007 329173 031111Z AUTO 11004KT 9999 08/04 A3020      RMK A02 SLP231 T00800038 PA-27 DA-756=
0139008421999992015010311264+32900-117300FM-16+007099999V0201101N002119999999N009999199+00791+00371102311ADDMA1102271999999REMMET112MOBOB1 SPECI XM26 //007 329173 031126Z AUTO 11004KT 9999 08/04 A3020      RMK A02 SLP231 T00790037 PA-27 DA-769=
0139008421999992015010311394+32900-117300FM-16+007099999V0201001N002619999999N009999199+00791+00361102351ADDMA1102301999999REMMET112MOBOB1 SPECI XM26 //007 329173 031139Z AUTO 10005KT 9999 08/04 A3021      RMK A02 SLP235 T00790036 PA-36 DA-781=
0139008421999992015010311544+32900-117300FM-15+007099999V0201101N002119999999N009999199+00781+00361102351ADDMA1102301999999REMMET112MOBOB1 METAR XM26 //007 329173 031154Z AUTO 11004KT 9999 08/04 A3021      RMK A02 SLP235 T00780036 PA-36 DA-793=
0139008421999992015010312124+32900-117300FM-15+007099999V0201101N002619999999N009999199+00771+00341102351ADDMA1102301999999REMMET112MOBOB1 METAR XM26 //007 329173 031212Z AUTO 11005KT 9999 08/03 A3021      RMK A02 SLP235 T00770034 PA-36 DA-807=
0139008421999992015010312254+32900-117300FM-16+007099999V0201101N002119999999N009999199+00761+00331102351ADDMA1102301999999REMMET112MOBOB1 SPECI XM26 //007 329173 031225Z AUTO 11004KT 9999 08/03 A3021      RMK A02 SLP235 T00760033 PA-36 DA-820=
0139008421999992015010312384+32900-117300FM-16+007099999V0201101N002619999999N009999199+00761+00311102351ADDMA1102301999999REMMET112MOBOB1 SPECI XM26 //007 329173 031238Z AUTO 11005KT 9999 08/03 A3021      RMK A02 SLP235 T00760031 PA-36 DA-821=
0139008421999992015010313124+32900-117300FM-15+007099999V0201001N002119999999N009999199+00771+00301102351ADDMA1102301999999REMMET112MOBOB1 METAR XM26 //007 329173 031312Z AUTO 10004KT 9999 08/03 A3021      RMK A02 SLP235 T00770030 PA-36 DA-810=
0139008421999992015010313254+32900-117300FM-16+007099999V0201101N002119999999N009999199+00801+00301102381ADDMA1102341999999REMMET112MOBOB1 SPECI XM26 //007 329173 031325Z AUTO 11004KT 9999 08/03 A3022      RMK A02 SLP238 T00800030 PA-45 DA-784=
0139008421999992015010313384+32900-117300FM-16+007099999V0201101N002119999999N009999199+00801+00311102421ADDMA1102401999999REMMET112MOBOB1 SPECI XM26 //007 329173 031338Z AUTO 11004KT 9999 08/03 A3024      RMK A02 SLP242 T00800031 PA-54 DA-795=
0139008421999992015010313524+32900-117300FM-15+007099999V0201101N002119999999N009999199+00771+00301102421ADDMA1102401999999REMMET112MOBOB1 METAR XM26 //007 329173 031352Z AUTO 11004KT 9999 08/03 A3024      RMK A02 SLP242 T00770030 PA-54 DA-833=
0139008421999992015010314124+32900-117300FM-15+007099999V0201101N002119999999N009999199+00731+00291102461ADDMA1102441999999REMMET112MOBOB1 METAR XM26 //007 329173 031412Z AUTO 11004KT 9999 07/03 A3025      RMK A02 SLP246 T00730029 PA-64 DA-894=
0139008421999992015010314254+32900-117300FM-16+007099999V0201101N002119999999N009999199+00721+00281102491ADDMA1102471999999REMMET112MOBOB1 SPECI XM26 //007 329173 031425Z AUTO 11004KT 9999 07/03 A3026      RMK A02 SLP249 T00720028 PA-73 DA-918=
0139008421999992015010314384+32900-117300FM-16+007099999V0201101N002119999999N009999199+00731+00281102491ADDMA1102471999999REMMET112MOBOB1 SPECI XM26 //007 329173 031438Z AUTO 11004KT 9999 07/03 A3026      RMK A02 SLP249 T00730028 PA-73 DA-905=
0139008421999992015010314524+32900-117300FM-15+007099999V0201101N002119999999N009999199+00711+00271102491ADDMA1102471999999REMMET112MOBOB1 METAR XM26 //007 329173 031452Z AUTO 11004KT 9999 07/03 A3026      RMK A02 SLP249 T00710027 PA-73 DA-931=
0139008421999992015010315124+32900-117300FM-15+007099999V0201101N002119999999N009999199+00721+00261102521ADDMA1102511999999REMMET112MOBOB1 METAR XM26 //007 329173 031512Z AUTO 11004KT 9999 07/03 A3027      RMK A02 SLP252 T00720026 PA-82 DA-931=
0139008421999992015010315254+32900-117300FM-16+007099999V0201101N002119999999N009999199+00771+00271102561ADDMA1102541999999REMMET112MOBOB1 SPECI XM26 //007 329173 031525Z AUTO 11004KT 9999 08/03 A3028      RMK A02 SLP256 T00770027 PA-91 DA-881=
0139008421999992015010315384+32900-117300FM-16+007099999V0201101N002119999999N009999199+00791+00281102561ADDMA1102541999999REMMET112MOBOB1 SPECI XM26 //007 329173 031538Z AUTO 11004KT 9999 08/03 A3028      RMK A02 SLP256 T00790028 PA-91 DA-855=
0140008421999992015010315524+32900-117300FM-15+007099999V0201101N002119999999N009999199+00831+00291102591ADDMA1102571999999REMMET113MOBOB1 METAR XM26 //007 329173 031552Z AUTO 11004KT 9999 08/03 A3029      RMK A02 SLP259 T00830029 PA-100 DA-817=
0140008421999992015010316124+32900-117300FM-15+007099999V0201101N002119999999N009999199+00911+00301102631ADDMA1102611999999REMMET113MOBOB1 METAR XM26 //007 329173 031612Z AUTO 11004KT 9999 09/03 A3030      RMK A02 SLP263 T00910030 PA-110 DA-731=
0140008421999992015010316254+32900-117300FM-16+007099999V0201001N002119999999N009999199+00971+00331102621ADDMA1102611999999REMMET113MOBOB1 SPECI XM26 //007 329173 031625Z AUTO 10004KT 9999 10/03 A3030      RMK A02 SLP262 T00970033 PA-110 DA-656=
0140008421999992015010316384+32900-117300FM-16+007099999V0201101N001519999999N009999199+01021+00331102661ADDMA1102641999999REMMET113MOBOB1 SPECI XM26 //007 329173 031638Z AUTO 11003KT 9999 10/03 A3031      RMK A02 SLP266 T01020033 PA-119 DA-606=
0140008421999992015010316524+32900-117300FM-15+007099999V0201001N001519999999N009999199+01101+00381102661ADDMA1102641999999REMMET113MOBOB1 METAR XM26 //007 329173 031652Z AUTO 10003KT 9999 11/04 A3031      RMK A02 SLP266 T01100038 PA-119 DA-506=
0140008421999992015010317124+32900-117300FM-15+007099999V0201001N001019999999N009999199+01231+00441102691ADDMA1102671999999REMMET113MOBOB1 METAR XM26 //007 329173 031712Z AUTO 10002KT 9999 12/04 A3032      RMK A02 SLP269 T01230044 PA-128 DA-357=
0140008421999992015010317274+32900-117300FM-16+007099999V0201501N000519999999N009999199+01331+00491102691ADDMA1102671999999REMMET113MOBOB1 SPECI XM26 //007 329173 031727Z AUTO 15001KT 9999 13/05 A3032      RMK A02 SLP269 T01330049 PA-128 DA-233=
0140008421999992015010317454+32900-117300FM-15+007099999V0209999C000019999999N009999199+01531+00551102681ADDMA1102671999999REMMET113MOBOB1 METAR XM26 //007 329173 031745Z AUTO 00000KT 9999 15/06 A3032      RMK A02 SLP268 T01530055 PA-128 DA0009=
0140008421999992015010318134+32900-117300FM-15+007099999V0209999C000019999999N009999199+01661+00541102651ADDMA1102641999999REMMET113MOBOB1 METAR XM26 //007 329173 031813Z AUTO 00000KT 9999 17/05 A3031      RMK A02 SLP265 T01660054 PA-119 DA0174=
0140008421999992015010318274+32900-117300FM-16+007099999V0209999C000019999999N009999199+01591+00541102651ADDMA1102641999999REMMET113MOBOB1 SPECI XM26 //007 329173 031827Z AUTO 00000KT 9999 16/05 A3031      RMK A02 SLP265 T01590054 PA-119 DA0091=
0140008421999992015010318414+32900-117300FM-16+007099999V0209999C000019999999N009999199+01621+00531102651ADDMA1102641999999REMMET113MOBOB1 SPECI XM26 //007 329173 031841Z AUTO 00000KT 9999 16/05 A3031      RMK A02 SLP265 T01620053 PA-119 DA0126=
0140008421999992015010319134+32900-117300FM-15+007099999V0209999C000019999999N009999199+01671+00571102581ADDMA1102571999999REMMET113MOBOB1 METAR XM26 //007 329173 031913Z AUTO 00000KT 9999 17/06 A3029      RMK A02 SLP258 T01670057 PA-100 DA0210=
0139008421999992015010319434+32900-117300FM-16+007099999V0209999C000019999999N009999199+01711+00621102551ADDMA1102541999999REMMET112MOBOB1 SPECI XM26 //007 329173 031943Z AUTO 00000KT 9999 17/06 A3028      RMK A02 SLP255 T01710062 PA-91 DA0273=
0139008421999992015010320134+32900-117300FM-15+007099999V0201901N000519999999N009999199+01661+00571102551ADDMA1102541999999REMMET112MOBOB1 METAR XM26 //007 329173 032013Z AUTO 19001KT 9999 17/06 A3028      RMK A02 SLP255 T01660057 PA-91 DA0210=
0139008421999992015010320264+32900-117300FM-16+007099999V0201901N000519999999N009999199+01641+00601102511ADDMA1102511999999REMMET112MOBOB1 SPECI XM26 //007 329173 032026Z AUTO 19001KT 9999 16/06 A3027      RMK A02 SLP251 T01640060 PA-82 DA0201=
0139008421999992015010320404+32900-117300FM-16+007099999V0209999C000019999999N009999199+01681+00621102511ADDMA1102511999999REMMET112MOBOB1 SPECI XM26 //007 329173 032040Z AUTO 00000KT 9999 17/06 A3027      RMK A02 SLP251 T01680062 PA-82 DA0249=
0139008421999992015010321124+32900-117300FM-15+007099999V0201801N000519999999N009999199+01651+00561102511ADDMA1102511999999REMMET112MOBOB1 METAR XM26 //007 329173 032112Z AUTO 18001KT 9999 17/06 A3027      RMK A02 SLP251 T01650056 PA-82 DA0209=
0139008421999992015010321264+32900-117300FM-16+007099999V0201601N000519999999N009999199+01661+00551102511ADDMA1102511999999REMMET112MOBOB1 SPECI XM26 //007 329173 032126Z AUTO 16001KT 9999 17/06 A3027      RMK A02 SLP251 T01660055 PA-82 DA0220=
0139008421999992015010321404+32900-117300FM-16+007099999V0201701N000519999999N009999199+01641+00581102481ADDMA1102471999999REMMET112MOBOB1 SPECI XM26 //007 329173 032140Z AUTO 17001KT 9999 16/06 A3026      RMK A02 SLP248 T01640058 PA-73 DA0210=
0139008421999992015010322124+32900-117300FM-15+007099999V0201301N000519999999N009999199+01641+00551102481ADDMA1102471999999REMMET112MOBOB1 METAR XM26 //007 329173 032212Z AUTO 13001KT 9999 16/06 A3026      RMK A02 SLP248 T01640055 PA-73 DA0208=
0139008421999992015010322294+32900-117300FM-16+007099999V0201501N000519999999N009999199+01641+00621102481ADDMA1102471999999REMMET112MOBOB1 SPECI XM26 //007 329173 032229Z AUTO 15001KT 9999 16/06 A3026      RMK A02 SLP248 T01640062 PA-73 DA0213=
0139008421999992015010322444+32900-117300FM-16+007099999V0201401N000519999999N009999199+01631+00661102511ADDMA1102511999999REMMET112MOBOB1 SPECI XM26 //007 329173 032244Z AUTO 14001KT 9999 16/07 A3027      RMK A02 SLP251 T01630066 PA-82 DA0193=
0139008421999992015010323134+32900-117300FM-15+007099999V0201301N000519999999N009999199+01611+00681102521ADDMA1102511999999REMMET112MOBOB1 METAR XM26 //007 329173 032313Z AUTO 13001KT 9999 16/07 A3027      RMK A02 SLP252 T01610068 PA-82 DA0172=
0139008421999992015010323294+32900-117300FM-16+007099999V0201601N000519999999N009999199+01581+00691102551ADDMA1102541999999REMMET112MOBOB1 SPECI XM26 //007 329173 032329Z AUTO 16001KT 9999 16/07 A3028      RMK A02 SLP255 T01580069 PA-91 DA0126=
0139008421999992015010323434+32900-117300FM-16+007099999V0201701N000519999999N009999199+01561+00691102551ADDMA1102541999999REMMET112MOBOB1 SPECI XM26 //007 329173 032343Z AUTO 17001KT 9999 16/07 A3028      RMK A02 SLP255 T01560069 PA-91 DA0103=
0139008421999992015010400134+32900-117300FM-15+007099999V0201501N000519999999N009999199+01511+00691102551ADDMA1102541999999REMMET112MOBOB1 METAR XM26 //007 329173 040013Z AUTO 15001KT 9999 15/07 A3028      RMK A02 SLP255 T01510069 PA-91 DA0043=
0139008421999992015010400274+32900-117300FM-16+007099999V0201401N000519999999N009999199+01481+00701102551ADDMA1102541999999REMMET112MOBOB1 SPECI XM26 //007 329173 040027Z AUTO 14001KT 9999 15/07 A3028      RMK A02 SLP255 T01480070 PA-91 DA0008=
0139008421999992015010400404+32900-117300FM-16+007099999V0201601N000519999999N009999199+01441+00691102551ADDMA1102541999999REMMET112MOBOB1 SPECI XM26 //007 329173 040040Z AUTO 16001KT 9999 14/07 A3028      RMK A02 SLP255 T01440069 PA-91 DA-040=
0140008421999992015010401134+32900-117300FM-15+007099999V0201601N000519999999N009999199+01381+00701102621ADDMA1102611999999REMMET113MOBOB1 METAR XM26 //007 329173 040113Z AUTO 16001KT 9999 14/07 A3030      RMK A02 SLP262 T01380070 PA-110 DA-134=
0140008421999992015010401264+32900-117300FM-16+007099999V0201601N000519999999N009999199+01361+00711102621ADDMA1102611999999REMMET113MOBOB1 SPECI XM26 //007 329173 040126Z AUTO 16001KT 9999 14/07 A3030      RMK A02 SLP262 T01360071 PA-110 DA-156=
0140008421999992015010401404+32900-117300FM-16+007099999V0209999C000019999999N009999199+01361+00681102621ADDMA1102611999999REMMET113MOBOB1 SPECI XM26 //007 329173 040140Z AUTO 00000KT 9999 14/07 A3030      RMK A02 SLP262 T01360068 PA-110 DA-159=
0140008421999992015010401534+32900-117300FM-15+007099999V0209999C000019999999N009999199+01361+00721102621ADDMA1102611999999REMMET113MOBOB1 METAR XM26 //007 329173 040153Z AUTO 00000KT 9999 14/07 A3030      RMK A02 SLP262 T01360072 PA-110 DA-155=
0140008421999992015010402124+32900-117300FM-15+007099999V0209999C000019999999N009999199+01351+00721102661ADDMA1102641999999REMMET113MOBOB1 METAR XM26 //007 329173 040212Z AUTO 00000KT 9999 14/07 A3031      RMK A02 SLP266 T01350072 PA-119 DA-179=
0140008421999992015010402254+32900-117300FM-16+007099999V0200801N000519999999N009999199+01341+00721102661ADDMA1102641999999REMMET113MOBOB1 SPECI XM26 //007 329173 040225Z AUTO 08001KT 9999 13/07 A3031      RMK A02 SLP266 T01340072 PA-119 DA-191=
0140008421999992015010402384+32900-117300FM-16+007099999V0209999C000019999999N009999199+01301+00691102661ADDMA1102641999999REMMET113MOBOB1 SPECI XM26 //007 329173 040238Z AUTO 00000KT 9999 13/07 A3031      RMK A02 SLP266 T01300069 PA-119 DA-241=
0140008421999992015010402524+32900-117300FM-15+007099999V0201101N000519999999N009999199+01291+00681102661ADDMA1102641999999REMMET113MOBOB1 METAR XM26 //007 329173 040252Z AUTO 11001KT 9999 13/07 A3031      RMK A02 SLP266 T01290068 PA-119 DA-254=
0140008421999992015010403124+32900-117300FM-15+007099999V0201201N000519999999N009999199+01261+00681102691ADDMA1102671999999REMMET113MOBOB1 METAR XM26 //007 329173 040312Z AUTO 12001KT 9999 13/07 A3032      RMK A02 SLP269 T01260068 PA-128 DA-301=
0140008421999992015010403264+32900-117300FM-16+007099999V0201101N000519999999N009999199+01261+00701102731ADDMA1102711999999REMMET113MOBOB1 SPECI XM26 //007 329173 040326Z AUTO 11001KT 9999 13/07 A3033      RMK A02 SLP273 T01260070 PA-137 DA-311=
0140008421999992015010403404+32900-117300FM-16+007099999V0201001N000519999999N009999199+01261+00701102731ADDMA1102711999999REMMET113MOBOB1 SPECI XM26 //007 329173 040340Z AUTO 10001KT 9999 13/07 A3033      RMK A02 SLP273 T01260070 PA-137 DA-311=
0140008421999992015010403534+32900-117300FM-15+007099999V0201101N000519999999N009999199+01241+00691102731ADDMA1102711999999REMMET113MOBOB1 METAR XM26 //007 329173 040353Z AUTO 11001KT 9999 12/07 A3033      RMK A02 SLP273 T01240069 PA-137 DA-336=
0140008421999992015010404124+32900-117300FM-15+007099999V0201101N000519999999N009999199+01231+00701102721ADDMA1102711999999REMMET113MOBOB1 METAR XM26 //007 329173 040412Z AUTO 11001KT 9999 12/07 A3033      RMK A02 SLP272 T01230070 PA-137 DA-347=
0140008421999992015010404254+32900-117300FM-16+007099999V0201001N000519999999N009999199+01211+00701102731ADDMA1102711999999REMMET113MOBOB1 SPECI XM26 //007 329173 040425Z AUTO 10001KT 9999 12/07 A3033      RMK A02 SLP273 T01210070 PA-137 DA-371=
0140008421999992015010404384+32900-117300FM-16+007099999V0201101N000519999999N009999199+01191+00691102761ADDMA1102741999999REMMET113MOBOB1 SPECI XM26 //007 329173 040438Z AUTO 11001KT 9999 12/07 A3034      RMK A02 SLP276 T01190069 PA-146 DA-407=
0140008421999992015010404524+32900-117300FM-15+007099999V0201001N000519999999N009999199+01191+00691102761ADDMA1102741999999REMMET113MOBOB1 METAR XM26 //007 329173 040452Z AUTO 10001KT 9999 12/07 A3034      RMK A02 SLP276 T01190069 PA-146 DA-407=
0140008421999992015010405124+32900-117300FM-15+007099999V0200901N000519999999N009999199+01191+00701102751ADDMA1102741999999REMMET113MOBOB1 METAR XM26 //007 329173 040512Z AUTO 09001KT 9999 12/07 A3034      RMK A02 SLP275 T01190070 PA-146 DA-406=
0140008421999992015010405254+32900-117300FM-16+007099999V0201201N000519999999N009999199+01191+00711102751ADDMA1102741999999REMMET113MOBOB1 SPECI XM26 //007 329173 040525Z AUTO 12001KT 9999 12/07 A3034      RMK A02 SLP275 T01190071 PA-146 DA-405=
0140008421999992015010405394+32900-117300FM-16+007099999V0209999C000019999999N009999199+01171+00701102751ADDMA1102741999999REMMET113MOBOB1 SPECI XM26 //007 329173 040539Z AUTO 00000KT 9999 12/07 A3034      RMK A02 SLP275 T01170070 PA-146 DA-431=
0140008421999992015010405524+32900-117300FM-15+007099999V0201201N001019999999N009999199+01161+00671102761ADDMA1102741999999REMMET113MOBOB1 METAR XM26 //007 329173 040552Z AUTO 12002KT 9999 12/07 A3034      RMK A02 SLP276 T01160067 PA-146 DA-446=
0140008421999992015010406124+32900-117300FM-15+007099999V0209999C000019999999N009999199+01161+00681102751ADDMA1102741999999REMMET113MOBOB1 METAR XM26 //007 329173 040612Z AUTO 00000KT 9999 12/07 A3034      RMK A02 SLP275 T01160068 PA-146 DA-444=
0140008421999992015010406274+32900-117300FM-16+007099999V0209999C000019999999N009999199+01141+00671102751ADDMA1102741999999REMMET113MOBOB1 SPECI XM26 //007 329173 040627Z AUTO 00000KT 9999 11/07 A3034      RMK A02 SLP275 T01140067 PA-146 DA-469=
0140008421999992015010406404+32900-117300FM-16+007099999V0201001N000519999999N009999199+01141+00671102751ADDMA1102741999999REMMET113MOBOB1 SPECI XM26 //007 329173 040640Z AUTO 10001KT 9999 11/07 A3034      RMK A02 SLP275 T01140067 PA-146 DA-469=
0140008421999992015010407134+32900-117300FM-15+007099999V0201001N001519999999N009999199+01071+00641102721ADDMA1102711999999REMMET113MOBOB1 METAR XM26 //007 329173 040713Z AUTO 10003KT 9999 11/06 A3033      RMK A02 SLP272 T01070064 PA-137 DA-545=
0140008421999992015010407274+32900-117300FM-16+007099999V0201001N001519999999N009999199+01011+00611102721ADDMA1102711999999REMMET113MOBOB1 SPECI XM26 //007 329173 040727Z AUTO 10003KT 9999 10/06 A3033      RMK A02 SLP272 T01010061 PA-137 DA-620=
0140008421999992015010407414+32900-117300FM-16+007099999V0201101N001519999999N009999199+01011+00601102721ADDMA1102711999999REMMET113MOBOB1 SPECI XM26 //007 329173 040741Z AUTO 11003KT 9999 10/06 A3033      RMK A02 SLP272 T01010060 PA-137 DA-621=
0140008421999992015010408144+32900-117300FM-15+007099999V0201101N002119999999N009999199+00991+00591102721ADDMA1102711999999REMMET113MOBOB1 METAR XM26 //007 329173 040814Z AUTO 11004KT 9999 10/06 A3033      RMK A02 SLP272 T00990059 PA-137 DA-646=
0140008421999992015010408274+32900-117300FM-16+007099999V0201001N002119999999N009999199+00991+00581102721ADDMA1102711999999REMMET113MOBOB1 SPECI XM26 //007 329173 040827Z AUTO 10004KT 9999 10/06 A3033      RMK A02 SLP272 T00990058 PA-137 DA-647=
0140008421999992015010408404+32900-117300FM-16+007099999V0201001N001519999999N009999199+00991+00571102721ADDMA1102711999999REMMET113MOBOB1 SPECI XM26 //007 329173 040840Z AUTO 10003KT 9999 10/06 A3033      RMK A02 SLP272 T00990057 PA-137 DA-647=
0140008421999992015010408544+32900-117300FM-15+007099999V0201001N002119999999N009999199+00981+00561102721ADDMA1102711999999REMMET113MOBOB1 METAR XM26 //007 329173 040854Z AUTO 10004KT 9999 10/06 A3033      RMK A02 SLP272 T00980056 PA-137 DA-661=
0140008421999992015010409124+32900-117300FM-15+007099999V0201001N002119999999N009999199+00971+00551102751ADDMA1102741999999REMMET113MOBOB1 METAR XM26 //007 329173 040912Z AUTO 10004KT 9999 10/05 A3034      RMK A02 SLP275 T00970055 PA-146 DA-685=
0140008421999992015010409254+32900-117300FM-16+007099999V0201001N002119999999N009999199+00981+00551102791ADDMA1102781999999REMMET113MOBOB1 SPECI XM26 //007 329173 040925Z AUTO 10004KT 9999 10/05 A3035      RMK A02 SLP279 T00980055 PA-156 DA-685=
0140008421999992015010409394+32900-117300FM-16+007099999V0201001N001519999999N009999199+00981+00561102791ADDMA1102781999999REMMET113MOBOB1 SPECI XM26 //007 329173 040939Z AUTO 10003KT 9999 10/06 A3035      RMK A02 SLP279 T00980056 PA-156 DA-684=
0140008421999992015010410144+32900-117300FM-15+007099999V0201001N002119999999N009999199+00941+00541102751ADDMA1102741999999REMMET113MOBOB1 METAR XM26 //007 329173 041014Z AUTO 10004KT 9999 09/05 A3034      RMK A02 SLP275 T00940054 PA-146 DA-722=
0140008421999992015010410274+32900-117300FM-16+007099999V0201001N002119999999N009999199+00941+00541102751ADDMA1102741999999REMMET113MOBOB1 SPECI XM26 //007 329173 041027Z AUTO 10004KT 9999 09/05 A3034      RMK A02 SLP275 T00940054 PA-146 DA-722=
0140008421999992015010410404+32900-117300FM-16+007099999V0201001N001519999999N009999199+00971+00561102751ADDMA1102741999999REMMET113MOBOB1 SPECI XM26 //007 329173 041040Z AUTO 10003KT 9999 10/06 A3034      RMK A02 SLP275 T00970056 PA-146 DA-684=
0140008421999992015010410544+32900-117300FM-15+007099999V0201001N001519999999N009999199+00951+00561102751ADDMA1102741999999REMMET113MOBOB1 METAR XM26 //007 329173 041054Z AUTO 10003KT 9999 10/06 A3034      RMK A02 SLP275 T00950056 PA-146 DA-708=
0140008421999992015010411124+32900-117300FM-15+007099999V0201201N001019999999N009999199+00981+00581102751ADDMA1102741999999REMMET113MOBOB1 METAR XM26 //007 329173 041112Z AUTO 12002KT 9999 10/06 A3034      RMK A02 SLP275 T00980058 PA-146 DA-670=
0140008421999992015010411254+32900-117300FM-16+007099999V0201501N000519999999N009999199+00981+00581102751ADDMA1102741999999REMMET113MOBOB1 SPECI XM26 //007 329173 041125Z AUTO 15001KT 9999 10/06 A3034      RMK A02 SLP275 T00980058 PA-146 DA-670=
0140008421999992015010411384+32900-117300FM-16+007099999V0202001N000519999999N009999199+00991+00591102751ADDMA1102741999999REMMET113MOBOB1 SPECI XM26 //007 329173 041138Z AUTO 20001KT 9999 10/06 A3034      RMK A02 SLP275 T00990059 PA-146 DA-658=
0140008421999992015010411524+32900-117300FM-15+007099999V0201101N001019999999N009999199+01011+00571102721ADDMA1102711999999REMMET113MOBOB1 METAR XM26 //007 329173 041152Z AUTO 11002KT 9999 10/06 A3033      RMK A02 SLP272 T01010057 PA-137 DA-623=
0140008421999992015010412124+32900-117300FM-15+007099999V0201001N001519999999N009999199+01001+00541102721ADDMA1102711999999REMMET113MOBOB1 METAR XM26 //007 329173 041212Z AUTO 10003KT 9999 10/05 A3033      RMK A02 SLP272 T01000054 PA-137 DA-638=
0140008421999992015010412254+32900-117300FM-16+007099999V0201201N001019999999N009999199+01011+00501102691ADDMA1102671999999REMMET113MOBOB1 SPECI XM26 //007 329173 041225Z AUTO 12002KT 9999 10/05 A3032      RMK A02 SLP269 T01010050 PA-128 DA-617=
0140008421999992015010412394+32900-117300FM-16+007099999V0201601N000519999999N009999199+00991+00521102691ADDMA1102671999999REMMET113MOBOB1 SPECI XM26 //007 329173 041239Z AUTO 16001KT 9999 10/05 A3032      RMK A02 SLP269 T00990052 PA-128 DA-640=
0140008421999992015010412524+32900-117300FM-15+007099999V0201001N000519999999N009999199+00991+00501102721ADDMA1102711999999REMMET113MOBOB1 METAR XM26 //007 329173 041252Z AUTO 10001KT 9999 10/05 A3033      RMK A02 SLP272 T00990050 PA-137 DA-653=
0140008421999992015010413124+32900-117300FM-15+007099999V0200901N000519999999N009999199+01021+00481102721ADDMA1102711999999REMMET113MOBOB1 METAR XM26 //007 329173 041312Z AUTO 09001KT 9999 10/05 A3033      RMK A02 SLP272 T01020048 PA-137 DA-618=
0140008421999992015010413254+32900-117300FM-16+007099999V0201001N001019999999N009999199+01031+00491102721ADDMA1102711999999REMMET113MOBOB1 SPECI XM26 //007 329173 041325Z AUTO 10002KT 9999 10/05 A3033      RMK A02 SLP272 T01030049 PA-137 DA-605=
0140008421999992015010413384+32900-117300FM-16+007099999V0201001N001019999999N009999199+01031+00491102721ADDMA1102711999999REMMET113MOBOB1 SPECI XM26 //007 329173 041338Z AUTO 10002KT 9999 10/05 A3033      RMK A02 SLP272 T01030049 PA-137 DA-606=
0140008421999992015010413524+32900-117300FM-15+007099999V0200901N001019999999N009999199+01031+00521102761ADDMA1102741999999REMMET113MOBOB1 METAR XM26 //007 329173 041352Z AUTO 09002KT 9999 10/05 A3034      RMK A02 SLP276 T01030052 PA-146 DA-615=
0140008421999992015010414124+32900-117300FM-15+007099999V0200901N001019999999N009999199+01041+00571102761ADDMA1102741999999REMMET113MOBOB1 METAR XM26 //007 329173 041412Z AUTO 09002KT 9999 10/06 A3034      RMK A02 SLP276 T01040057 PA-146 DA-599=
0140008421999992015010414264+32900-117300FM-16+007099999V0200901N001019999999N009999199+01031+00551102761ADDMA1102741999999REMMET113MOBOB1 SPECI XM26 //007 329173 041426Z AUTO 09002KT 9999 10/05 A3034      RMK A02 SLP276 T01030055 PA-146 DA-612=
0140008421999992015010414424+32900-117300FM-16+007099999V0201001N001519999999N009999199+00941+00501102761ADDMA1102741999999REMMET113MOBOB1 SPECI XM26 //007 329173 041442Z AUTO 10003KT 9999 09/05 A3034      RMK A02 SLP276 T00940050 PA-146 DA-725=
0140008421999992015010415134+32900-117300FM-15+007099999V0201001N000519999999N009999199+00991+00451102831ADDMA1102811999999REMMET113MOBOB1 METAR XM26 //007 329173 041513Z AUTO 10001KT 9999 10/05 A3036      RMK A02 SLP283 T00990045 PA-165 DA-691=
0140008421999992015010415274+32900-117300FM-16+007099999V0201001N000519999999N009999199+00971+00431102861ADDMA1102841999999REMMET113MOBOB1 SPECI XM26 //007 329173 041527Z AUTO 10001KT 9999 10/04 A3037      RMK A02 SLP286 T00970043 PA-174 DA-729=
0140008421999992015010415404+32900-117300FM-16+007099999V0200901N000519999999N009999199+00991+00411102891ADDMA1102881999999REMMET113MOBOB1 SPECI XM26 //007 329173 041540Z AUTO 09001KT 9999 10/04 A3038      RMK A02 SLP289 T00990041 PA-183 DA-717=
0140008421999992015010415534+32900-117300FM-15+007099999V0201001N000519999999N009999199+01031+00411102891ADDMA1102881999999REMMET113MOBOB1 METAR XM26 //007 329173 041553Z AUTO 10001KT 9999 10/04 A3038      RMK A02 SLP289 T01030041 PA-183 DA-669=
0140008421999992015010416124+32900-117300FM-15+007099999V0201001N000519999999N009999199+01091+00401102931ADDMA1102911999999REMMET113MOBOB1 METAR XM26 //007 329173 041612Z AUTO 10001KT 9999 11/04 A3039      RMK A02 SLP293 T01090040 PA-192 DA-609=
0140008421999992015010416254+32900-117300FM-16+007099999V0201101N000519999999N009999199+01181+00391102961ADDMA1102951999999REMMET113MOBOB1 SPECI XM26 //007 329173 041625Z AUTO 11001KT 9999 12/04 A3040      RMK A02 SLP296 T01180039 PA-202 DA-512=
0140008421999992015010416384+32900-117300FM-16+007099999V0209999C000019999999N009999199+01291+00281102961ADDMA1102951999999REMMET113MOBOB1 SPECI XM26 //007 329173 041638Z AUTO 00000KT 9999 13/03 A3040      RMK A02 SLP296 T01290028 PA-202 DA-387=
0140008421999992015010416534+32900-117300FM-15+007099999V0209999C000019999999N009999199+01461+00381102991ADDMA1102981999999REMMET113MOBOB1 METAR XM26 //007 329173 041653Z AUTO 00000KT 9999 15/04 A3041      RMK A02 SLP299 T01460038 PA-211 DA-189=
0140008421999992015010417124+32900-117300FM-15+007099999V0209999C000019999999N009999199+01521+00341102961ADDMA1102951999999REMMET113MOBOB1 METAR XM26 //007 329173 041712Z AUTO 00000KT 9999 15/03 A3040      RMK A02 SLP296 T01520034 PA-202 DA-109=
0140008421999992015010417254+32900-117300FM-16+007099999V0209999C000019999999N009999199+01581+00411102991ADDMA1102981999999REMMET113MOBOB1 SPECI XM26 //007 329173 041725Z AUTO 00000KT 9999 16/04 A3041      RMK A02 SLP299 T01580041 PA-211 DA-045=
0140008421999992015010417394+32900-117300FM-16+007099999V0209999C000019999999N009999199+01651+00551102951ADDMA1102951999999REMMET113MOBOB1 SPECI XM26 //007 329173 041739Z AUTO 00000KT 9999 17/06 A3040      RMK A02 SLP295 T01650055 PA-202 DA0060=
0140008421999992015010417524+32900-117300FM-15+007099999V0209999C000019999999N009999199+01611+00531102951ADDMA1102951999999REMMET113MOBOB1 METAR XM26 //007 329173 041752Z AUTO 00000KT 9999 16/05 A3040      RMK A02 SLP295 T01610053 PA-202 DA0011=
0140008421999992015010418124+32900-117300FM-15+007099999V0209999C000019999999N009999199+01651+00551102921ADDMA1102911999999REMMET113MOBOB1 METAR XM26 //007 329173 041812Z AUTO 00000KT 9999 17/05 A3039      RMK A02 SLP292 T01650055 PA-192 DA0071=
0140008421999992015010418264+32900-117300FM-16+007099999V0209999C000019999999N009999199+01671+00551102891ADDMA1102881999999REMMET113MOBOB1 SPECI XM26 //007 329173 041826Z AUTO 00000KT 9999 17/06 A3038      RMK A02 SLP289 T01670055 PA-183 DA0106=
0140008421999992015010418394+32900-117300FM-16+007099999V0209999C000019999999N009999199+01721+00531102881ADDMA1102881999999REMMET113MOBOB1 SPECI XM26 //007 329173 041839Z AUTO 00000KT 9999 17/05 A3038      RMK A02 SLP288 T01720053 PA-183 DA0164=
0140008421999992015010419124+32900-117300FM-15+007099999V0209999C000019999999N009999199+01781+00581102821ADDMA1102811999999REMMET113MOBOB1 METAR XM26 //007 329173 041912Z AUTO 00000KT 9999 18/06 A3036      RMK A02 SLP282 T01780058 PA-165 DA0261=
0140008421999992015010419264+32900-117300FM-16+007099999V0209999C000019999999N009999199+01731+00631102821ADDMA1102811999999REMMET113MOBOB1 SPECI XM26 //007 329173 041926Z AUTO 00000KT 9999 17/06 A3036      RMK A02 SLP282 T01730063 PA-165 DA0206=
0140008421999992015010419394+32900-117300FM-16+007099999V0209999C000019999999N009999199+01761+00641102781ADDMA1102781999999REMMET113MOBOB1 SPECI XM26 //007 329173 041939Z AUTO 00000KT 9999 18/06 A3035      RMK A02 SLP278 T01760064 PA-156 DA0253=
0140008421999992015010420134+32900-117300FM-15+007099999V0209999C000019999999N009999199+01711+00711102751ADDMA1102741999999REMMET113MOBOB1 METAR XM26 //007 329173 042013Z AUTO 00000KT 9999 17/07 A3034      RMK A02 SLP275 T01710071 PA-146 DA0213=
0140008421999992015010420294+32900-117300FM-16+007099999V0209999C000019999999N009999199+01761+00731102721ADDMA1102711999999REMMET113MOBOB1 SPECI XM26 //007 329173 042029Z AUTO 00000KT 9999 18/07 A3033      RMK A02 SLP272 T01760073 PA-137 DA0284=
0140008421999992015010420434+32900-117300FM-16+007099999V0209999C000019999999N009999199+01771+00801102711ADDMA1102711999999REMMET113MOBOB1 SPECI XM26 //007 329173 042043Z AUTO 00000KT 9999 18/08 A3033      RMK A02 SLP271 T01770080 PA-137 DA0302=
0140008421999992015010421134+32900-117300FM-15+007099999V0201401N000519999999N009999199+01761+00881102681ADDMA1102671999999REMMET113MOBOB1 METAR XM26 //007 329173 042113Z AUTO 14001KT 9999 18/09 A3032      RMK A02 SLP268 T01760088 PA-128 DA0309=
0140008421999992015010421304+32900-117300FM-16+007099999V0209999C000019999999N009999199+01801+00911102681ADDMA1102671999999REMMET113MOBOB1 SPECI XM26 //007 329173 042130Z AUTO 00000KT 9999 18/09 A3032      RMK A02 SLP268 T01800091 PA-128 DA0359=
0140008421999992015010421434+32900-117300FM-16+007099999V0201401N000519999999N009999199+01791+00861102681ADDMA1102671999999REMMET113MOBOB1 SPECI XM26 //007 329173 042143Z AUTO 14001KT 9999 18/09 A3032      RMK A02 SLP268 T01790086 PA-128 DA0343=
0140008421999992015010422134+32900-117300FM-15+007099999V0201201N000519999999N009999199+01841+00771102681ADDMA1102671999999REMMET113MOBOB1 METAR XM26 //007 329173 042213Z AUTO 12001KT 9999 18/08 A3032      RMK A02 SLP268 T01840077 PA-128 DA0392=
0149008421999992015010422264+32900-117300FM-16+007099999V0201401N000519999999N009000199+01771+00821102681ADDAW1051MA1102671999999REMMET116MOBOB1 SPECI XM26 //007 329173 042226Z AUTO 14001KT 9000 HZ 18/08 A3032      RMK A02 SLP268 T01770082 PA-128 DA0315=
0140008421999992015010422404+32900-117300FM-16+007099999V0201301N000519999999N009999199+01831+00861102681ADDMA1102671999999REMMET113MOBOB1 SPECI XM26 //007 329173 042240Z AUTO 13001KT 9999 18/09 A3032      RMK A02 SLP268 T01830086 PA-128 DA0389=
0149008421999992015010423144+32900-117300FM-15+007099999V0209999C000019999999N009000199+01751+00881102651ADDAW1051MA1102641999999REMMET116MOBOB1 METAR XM26 //007 329173 042314Z AUTO 00000KT 9000 HZ 18/09 A3031      RMK A02 SLP265 T01750088 PA-119 DA0309=
0149008421999992015010423274+32900-117300FM-16+007099999V0209999C000019999999N007000199+01751+00911102651ADDAW1051MA1102641999999REMMET116MOBOB1 SPECI XM26 //007 329173 042327Z AUTO 00000KT 7000 HZ 18/09 A3031      RMK A02 SLP265 T01750091 PA-119 DA0312=
0140008421999992015010423404+32900-117300FM-16+007099999V0201301N000519999999N009999199+01691+00911102651ADDMA1102641999999REMMET113MOBOB1 SPECI XM26 //007 329173 042340Z AUTO 13001KT 9999 17/09 A3031      RMK A02 SLP265 T01690091 PA-119 DA0241=
0149008421999992015010423534+32900-117300FM-15+007099999V0209999C000019999999N009000199+01671+00931102651ADDAW1051MA1102641999999REMMET116MOBOB1 METAR XM26 //007 329173 042353Z AUTO 00000KT 9000 HZ 17/09 A3031      RMK A02 SLP265 T01670093 PA-119 DA0220=
0149008421999992015010500124+32900-117300FM-15+007099999V0209999C000019999999N009000199+01711+00941102681ADDAW1051MA1102671999999REMMET116MOBOB1 METAR XM26 //007 329173 050012Z AUTO 00000KT 9000 HZ 17/09 A3032      RMK A02 SLP268 T01710094 PA-128 DA0257=
0140008421999992015010500264+32900-117300FM-16+007099999V0209999C000019999999N009999199+01681+00921102681ADDMA1102671999999REMMET113MOBOB1 SPECI XM26 //007 329173 050026Z AUTO 00000KT 9999 17/09 A3032      RMK A02 SLP268 T01680092 PA-128 DA0220=
0140008421999992015010500414+32900-117300FM-16+007099999V0209999C000019999999N009999199+01641+00941102681ADDMA1102671999999REMMET113MOBOB1 SPECI XM26 //007 329173 050041Z AUTO 00000KT 9999 16/09 A3032      RMK A02 SLP268 T01640094 PA-128 DA0174=
0140008421999992015010501134+32900-117300FM-15+007099999V0209999C000019999999N009999199+01561+00981102721ADDMA1102711999999REMMET113MOBOB1 METAR XM26 //007 329173 050113Z AUTO 00000KT 9999 16/10 A3033      RMK A02 SLP272 T01560098 PA-137 DA0073=
0140008421999992015010501264+32900-117300FM-16+007099999V0209999C000019999999N009999199+01541+01001102681ADDMA1102671999999REMMET113MOBOB1 SPECI XM26 //007 329173 050126Z AUTO 00000KT 9999 15/10 A3032      RMK A02 SLP268 T01540100 PA-128 DA0062=
0149008421999992015010501404+32900-117300FM-16+007099999V0209999C000019999999N009000199+01501+00961102721ADDAW1051MA1102711999999REMMET116MOBOB1 SPECI XM26 //007 329173 050140Z AUTO 00000KT 9000 HZ 15/10 A3033      RMK A02 SLP272 T01500096 PA-137 DA-001=
0149008421999992015010502144+32900-117300FM-15+007099999V0209999C000019999999N009000199+01471+00991102721ADDAW1051MA1102711999999REMMET116MOBOB1 METAR XM26 //007 329173 050214Z AUTO 00000KT 9000 HZ 15/10 A3033      RMK A02 SLP272 T01470099 PA-137 DA-033=
0149008421999992015010502274+32900-117300FM-16+007099999V0209999C000019999999N009000199+01461+01011102721ADDAW1051MA1102711999999REMMET116MOBOB1 SPECI XM26 //007 329173 050227Z AUTO 00000KT 9000 HZ 15/10 A3033      RMK A02 SLP272 T01460101 PA-137 DA-043=
0149008421999992015010502404+32900-117300FM-16+007099999V0200901N000519999999N009000199+01441+01021102721ADDAW1051MA1102711999999REMMET116MOBOB1 SPECI XM26 //007 329173 050240Z AUTO 09001KT 9000 HZ 14/10 A3033      RMK A02 SLP272 T01440102 PA-137 DA-066=
0149008421999992015010503124+32900-117300FM-15+007099999V0201001N000519999999N009000199+01421+01021102691ADDAW1051MA1102671999999REMMET116MOBOB1 METAR XM26 //007 329173 050312Z AUTO 10001KT 9000 HZ 14/10 A3032      RMK A02 SLP269 T01420102 PA-128 DA-078=
0149008421999992015010503254+32900-117300FM-16+007099999V0209999C000019999999N009000199+01401+01031102721ADDAW1051MA1102711999999REMMET116MOBOB1 SPECI XM26 //007 329173 050325Z AUTO 00000KT 9000 HZ 14/10 A3033      RMK A02 SLP272 T01400103 PA-137 DA-112=
0140008421999992015010503384+32900-117300FM-16+007099999V0209999C000019999999N009999199+01401+01051102721ADDMA1102711999999REMMET113MOBOB1 SPECI XM26 //007 329173 050338Z AUTO 00000KT 9999 14/10 A3033      RMK A02 SLP272 T01400105 PA-137 DA-110=
0140008421999992015010503524+32900-117300FM-15+007099999V0200901N000519999999N009999199+01411+01061102691ADDMA1102671999999REMMET113MOBOB1 METAR XM26 //007 329173 050352Z AUTO 09001KT 9999 14/11 A3032      RMK A02 SLP269 T01410106 PA-128 DA-085=
0149008421999992015010504124+32900-117300FM-15+007099999V0201001N000519999999N009000199+01381+01081102681ADDAW1051MA1102671999999REMMET116MOBOB1 METAR XM26 //007 329173 050412Z AUTO 10001KT 9000 HZ 14/11 A3032      RMK A02 SLP268 T01380108 PA-128 DA-119=
0140008421999992015010504254+32900-117300FM-16+007099999V0201001N000519999999N009999199+01381+01081102681ADDMA1102671999999REMMET113MOBOB1 SPECI XM26 //007 329173 050425Z AUTO 10001KT 9999 14/11 A3032      RMK A02 SLP268 T01380108 PA-128 DA-119=
0140008421999992015010504384+32900-117300FM-16+007099999V0200701N000519999999N009999199+01381+01101102681ADDMA1102671999999REMMET113MOBOB1 SPECI XM26 //007 329173 050438Z AUTO 07001KT 9999 14/11 A3032      RMK A02 SLP268 T01380110 PA-128 DA-117=
0140008421999992015010504524+32900-117300FM-15+007099999V0209999C000019999999N009999199+01371+01101102721ADDMA1102711999999REMMET113MOBOB1 METAR XM26 //007 329173 050452Z AUTO 00000KT 9999 14/11 A3033      RMK A02 SLP272 T01370110 PA-137 DA-140=
0140008421999992015010505124+32900-117300FM-15+007099999V0209999C000019999999N009999199+01361+01091102711ADDMA1102711999999REMMET113MOBOB1 METAR XM26 //007 329173 050512Z AUTO 00000KT 9999 14/11 A3033      RMK A02 SLP271 T01360109 PA-137 DA-153=
0140008421999992015010505274+32900-117300FM-16+007099999V0201101N000519999999N009999199+01381+01101102711ADDMA1102711999999REMMET113MOBOB1 SPECI XM26 //007 329173 050527Z AUTO 11001KT 9999 14/11 A3033      RMK A02 SLP271 T01380110 PA-137 DA-128=
0140008421999992015010505404+32900-117300FM-16+007099999V0201101N000519999999N009999199+01391+01121102711ADDMA1102711999999REMMET113MOBOB1 SPECI XM26 //007 329173 050540Z AUTO 11001KT 9999 14/11 A3033      RMK A02 SLP271 T01390112 PA-137 DA-114=
0140008421999992015010505534+32900-117300FM-15+007099999V0201001N000519999999N009999199+01391+01121102681ADDMA1102671999999REMMET113MOBOB1 METAR XM26 //007 329173 050553Z AUTO 10001KT 9999 14/11 A3032      RMK A02 SLP268 T01390112 PA-128 DA-103=
0140008421999992015010506124+32900-117300FM-15+007099999V0201101N000519999999N009999199+01361+01091102681ADDMA1102671999999REMMET113MOBOB1 METAR XM26 //007 329173 050612Z AUTO 11001KT 9999 14/11 A3032      RMK A02 SLP268 T01360109 PA-128 DA-142=
0140008421999992015010506254+32900-117300FM-16+007099999V0200901N000519999999N009999199+01331+01081102641ADDMA1102641999999REMMET113MOBOB1 SPECI XM26 //007 329173 050625Z AUTO 09001KT 9999 13/11 A3031      RMK A02 SLP264 T01330108 PA-119 DA-167=
0140008421999992015010506384+32900-117300FM-16+007099999V0201001N001519999999N009999199+01261+01021102641ADDMA1102641999999REMMET113MOBOB1 SPECI XM26 //007 329173 050638Z AUTO 10003KT 9999 13/10 A3031      RMK A02 SLP264 T01260102 PA-119 DA-257=
0149008421999992015010506524+32900-117300FM-15+007099999V0201101N001019999999N007000199+01251+01041102611ADDAW1101MA1102611999999REMMET116MOBOB1 METAR XM26 //007 329173 050652Z AUTO 11002KT 7000 BR 13/10 A3030      RMK A02 SLP261 T01250104 PA-110 DA-255=
0149008421999992015010507124+32900-117300FM-15+007099999V0201101N001019999999N009000199+01321+01071102611ADDAW1051MA1102611999999REMMET116MOBOB1 METAR XM26 //007 329173 050712Z AUTO 11002KT 9000 HZ 13/11 A3030      RMK A02 SLP261 T01320107 PA-110 DA-169=
0140008421999992015010507254+32900-117300FM-16+007099999V0201001N000519999999N009999199+01301+01021102611ADDMA1102611999999REMMET113MOBOB1 SPECI XM26 //007 329173 050725Z AUTO 10001KT 9999 13/10 A3030      RMK A02 SLP261 T01300102 PA-110 DA-197=
0140008421999992015010507384+32900-117300FM-16+007099999V0200901N001019999999N009999199+01281+00971102611ADDMA1102611999999REMMET113MOBOB1 SPECI XM26 //007 329173 050738Z AUTO 09002KT 9999 13/10 A3030      RMK A02 SLP261 T01280097 PA-110 DA-227=
0140008421999992015010508124+32900-117300FM-15+007099999V0209999C000019999999N009999199+01221+00731102581ADDMA1102571999999REMMET113MOBOB1 METAR XM26 //007 329173 050812Z AUTO 00000KT 9999 12/07 A3029      RMK A02 SLP258 T01220073 PA-100 DA-311=
0140008421999992015010508254+32900-117300FM-16+007099999V0200901N001519999999N009999199+01201+00701102581ADDMA1102571999999REMMET113MOBOB1 SPECI XM26 //007 329173 050825Z AUTO 09003KT 9999 12/07 A3029      RMK A02 SLP258 T01200070 PA-100 DA-337=
0139008421999992015010508394+32900-117300FM-16+007099999V0201401N000519999999N009999199+01171+00691102541ADDMA1102541999999REMMET112MOBOB1 SPECI XM26 //007 329173 050839Z AUTO 14001KT 9999 12/07 A3028      RMK A02 SLP254 T01170069 PA-91 DA-363=
0139008421999992015010508524+32900-117300FM-15+007099999V0201201N001519999999N009999199+01231+00651102541ADDMA1102541999999REMMET112MOBOB1 METAR XM26 //007 329173 050852Z AUTO 12003KT 9999 12/07 A3028      RMK A02 SLP254 T01230065 PA-91 DA-294=
0139008421999992015010509124+32900-117300FM-15+007099999V0200901N000519999999N009999199+01241+00541102541ADDMA1102541999999REMMET112MOBOB1 METAR XM26 //007 329173 050912Z AUTO 09001KT 9999 12/05 A3028      RMK A02 SLP254 T01240054 PA-91 DA-291=
0140008421999992015010509254+32900-117300FM-16+007099999V0200901N001019999999N009999199+01241+00521102581ADDMA1102571999999REMMET113MOBOB1 SPECI XM26 //007 329173 050925Z AUTO 09002KT 9999 12/05 A3029      RMK A02 SLP258 T01240052 PA-100 DA-304=
0140008421999992015010509394+32900-117300FM-16+007099999V0200901N001019999999N009999199+01231+00591102581ADDMA1102571999999REMMET113MOBOB1 SPECI XM26 //007 329173 050939Z AUTO 09002KT 9999 12/06 A3029      RMK A02 SLP258 T01230059 PA-100 DA-310=
0140008421999992015010509524+32900-117300FM-15+007099999V0200901N001019999999N009999199+01221+00731102571ADDMA1102571999999REMMET113MOBOB1 METAR XM26 //007 329173 050952Z AUTO 09002KT 9999 12/07 A3029      RMK A02 SLP257 T01220073 PA-100 DA-310=
0139008421999992015010510124+32900-117300FM-15+007099999V0200901N001519999999N009999199+01231+00861102541ADDMA1102541999999REMMET112MOBOB1 METAR XM26 //007 329173 051012Z AUTO 09003KT 9999 12/09 A3028      RMK A02 SLP254 T01230086 PA-91 DA-275=
0139008421999992015010510254+32900-117300FM-16+007099999V0200901N000519999999N009999199+01241+00931102541ADDMA1102541999999REMMET112MOBOB1 SPECI XM26 //007 329173 051025Z AUTO 09001KT 9999 12/09 A3028      RMK A02 SLP254 T01240093 PA-91 DA-256=
0139008421999992015010510394+32900-117300FM-16+007099999V0200901N001019999999N009999199+01271+01021102541ADDMA1102541999999REMMET112MOBOB1 SPECI XM26 //007 329173 051039Z AUTO 09002KT 9999 13/10 A3028      RMK A02 SLP254 T01270102 PA-91 DA-211=
0139008421999992015010510524+32900-117300FM-15+007099999V0200901N000519999999N009999199+01241+01001102541ADDMA1102541999999REMMET112MOBOB1 METAR XM26 //007 329173 051052Z AUTO 09001KT 9999 12/10 A3028      RMK A02 SLP254 T01240100 PA-91 DA-249=
0140008421999992015010511124+32900-117300FM-15+007099999V0200801N000519999999N009999199+01201+00881102581ADDMA1102571999999REMMET113MOBOB1 METAR XM26 //007 329173 051112Z AUTO 08001KT 9999 12/09 A3029      RMK A02 SLP258 T01200088 PA-100 DA-320=
0140008421999992015010511254+32900-117300FM-16+007099999V0201001N000519999999N009999199+01201+00881102581ADDMA1102571999999REMMET113MOBOB1 SPECI XM26 //007 329173 051125Z AUTO 10001KT 9999 12/09 A3029      RMK A02 SLP258 T01200088 PA-100 DA-320=
0140008421999992015010511384+32900-117300FM-16+007099999V0201101N000519999999N009999199+01191+00801102581ADDMA1102571999999REMMET113MOBOB1 SPECI XM26 //007 329173 051138Z AUTO 11001KT 9999 12/08 A3029      RMK A02 SLP258 T01190080 PA-100 DA-340=
0139008421999992015010511524+32900-117300FM-15+007099999V0201001N000519999999N009999199+01201+00831102541ADDMA1102541999999REMMET112MOBOB1 METAR XM26 //007 329173 051152Z AUTO 10001KT 9999 12/08 A3028      RMK A02 SLP254 T01200083 PA-91 DA-314=
0139008421999992015010512124+32900-117300FM-15+007099999V0200901N000519999999N009999199+01191+00821102541ADDMA1102541999999REMMET112MOBOB1 METAR XM26 //007 329173 051212Z AUTO 09001KT 9999 12/08 A3028      RMK A02 SLP254 T01190082 PA-91 DA-327=
0139008421999992015010512264+32900-117300FM-16+007099999V0201001N001019999999N009999199+01181+00841102541ADDMA1102541999999REMMET112MOBOB1 SPECI XM26 //007 329173 051226Z AUTO 10002KT 9999 12/08 A3028      RMK A02 SLP254 T01180084 PA-91 DA-337=
0139008421999992015010512414+32900-117300FM-16+007099999V0201001N000519999999N009999199+01161+00761102541ADDMA1102541999999REMMET112MOBOB1 SPECI XM26 //007 329173 051241Z AUTO 10001KT 9999 12/08 A3028      RMK A02 SLP254 T01160076 PA-91 DA-369=
0139008421999992015010513134+32900-117300FM-15+007099999V0201001N001519999999N009999199+01101+00681102511ADDMA1102511999999REMMET112MOBOB1 METAR XM26 //007 329173 051313Z AUTO 10003KT 9999 11/07 A3027      RMK A02 SLP251 T01100068 PA-82 DA-436=
0139008421999992015010513264+32900-117300FM-16+007099999V0201001N001519999999N009999199+01101+00691102511ADDMA1102511999999REMMET112MOBOB1 SPECI XM26 //007 329173 051326Z AUTO 10003KT 9999 11/07 A3027      RMK A02 SLP251 T01100069 PA-82 DA-435=
0139008421999992015010513404+32900-117300FM-16+007099999V0200901N001019999999N009999199+01141+00591102481ADDMA1102471999999REMMET112MOBOB1 SPECI XM26 //007 329173 051340Z AUTO 09002KT 9999 11/06 A3026      RMK A02 SLP248 T01140059 PA-73 DA-385=
0139008421999992015010514134+32900-117300FM-15+007099999V0200901N001019999999N009999199+01141+00541102511ADDMA1102511999999REMMET112MOBOB1 METAR XM26 //007 329173 051413Z AUTO 09002KT 9999 11/05 A3027      RMK A02 SLP251 T01140054 PA-82 DA-400=
0139008421999992015010514274+32900-117300FM-16+007099999V0200901N001519999999N009999199+01171+00431102511ADDMA1102511999999REMMET112MOBOB1 SPECI XM26 //007 329173 051427Z AUTO 09003KT 9999 12/04 A3027      RMK A02 SLP251 T01170043 PA-82 DA-373=
0139008421999992015010514404+32900-117300FM-16+007099999V0200901N001519999999N009999199+01161+00291102511ADDMA1102511999999REMMET112MOBOB1 SPECI XM26 //007 329173 051440Z AUTO 09003KT 9999 12/03 A3027      RMK A02 SLP251 T01160029 PA-82 DA-394=
0139008421999992015010515134+32900-117300FM-15+007099999V0200801N001019999999N009999199+01201+00271102551ADDMA1102541999999REMMET112MOBOB1 METAR XM26 //007 329173 051513Z AUTO 08002KT 9999 12/03 A3028      RMK A02 SLP255 T01200027 PA-91 DA-359=
0139008421999992015010515274+32900-117300FM-16+007099999V0200901N000519999999N009999199+01221+00301102551ADDMA1102541999999REMMET112MOBOB1 SPECI XM26 //007 329173 051527Z AUTO 09001KT 9999 12/03 A3028      RMK A02 SLP255 T01220030 PA-91 DA-333=
0139008421999992015010515404+32900-117300FM-16+007099999V0200901N000519999999N009999199+01221+00321102551ADDMA1102541999999REMMET112MOBOB1 SPECI XM26 //007 329173 051540Z AUTO 09001KT 9999 12/03 A3028      RMK A02 SLP255 T01220032 PA-91 DA-332=
0140008421999992015010515534+32900-117300FM-15+007099999V0200901N000519999999N009999199+01251+00371102581ADDMA1102571999999REMMET113MOBOB1 METAR XM26 //007 329173 051553Z AUTO 09001KT 9999 13/04 A3029      RMK A02 SLP258 T01250037 PA-100 DA-304=
0140008421999992015010516124+32900-117300FM-15+007099999V0209999C000019999999N009999199+01321+00601102581ADDMA1102571999999REMMET113MOBOB1 METAR XM26 //007 329173 051612Z AUTO 00000KT 9999 13/06 A3029      RMK A02 SLP258 T01320060 PA-100 DA-202=
0140008421999992015010516254+32900-117300FM-16+007099999V0209999C000019999999N009999199+01461+00611102611ADDMA1102611999999REMMET113MOBOB1 SPECI XM26 //007 329173 051625Z AUTO 00000KT 9999 15/06 A3030      RMK A02 SLP261 T01460061 PA-110 DA-046=
0140008421999992015010516384+32900-117300FM-16+007099999V0209999C000019999999N009999199+01561+00701102611ADDMA1102611999999REMMET113MOBOB1 SPECI XM26 //007 329173 051638Z AUTO 00000KT 9999 16/07 A3030      RMK A02 SLP261 T01560070 PA-110 DA0080=
0140008421999992015010517124+32900-117300FM-15+007099999V0209999C000019999999N009999199+01811+00761102611ADDMA1102611999999REMMET113MOBOB1 METAR XM26 //007 329173 051712Z AUTO 00000KT 9999 18/08 A3030      RMK A02 SLP261 T01810076 PA-110 DA0380=
0140008421999992015010517254+32900-117300FM-16+007099999V0209999C000019999999N009999199+01801+00861102611ADDMA1102611999999REMMET113MOBOB1 SPECI XM26 //007 329173 051725Z AUTO 00000KT 9999 18/09 A3030      RMK A02 SLP261 T01800086 PA-110 DA0377=
0140008421999992015010517394+32900-117300FM-16+007099999V0209999C000019999999N009999199+01821+00651102611ADDMA1102611999999REMMET113MOBOB1 SPECI XM26 //007 329173 051739Z AUTO 00000KT 9999 18/07 A3030      RMK A02 SLP261 T01820065 PA-110 DA0382=
0140008421999992015010517524+32900-117300FM-15+007099999V0209999C000019999999N009999199+01881+00621102611ADDMA1102611999999REMMET113MOBOB1 METAR XM26 //007 329173 051752Z AUTO 00000KT 9999 19/06 A3030      RMK A02 SLP261 T01880062 PA-110 DA0449=
0140008421999992015010518124+32900-117300FM-15+007099999V0202801N000519999999N009999199+01931+00551102571ADDMA1102571999999REMMET113MOBOB1 METAR XM26 //007 329173 051812Z AUTO 28001KT 9999 19/06 A3029      RMK A02 SLP257 T01930055 PA-100 DA0513=
0140008421999992015010518254+32900-117300FM-16+007099999V0209999C000019999999N009999199+02001+00491102571ADDMA1102571999999REMMET113MOBOB1 SPECI XM26 //007 329173 051825Z AUTO 00000KT 9999 20/05 A3029      RMK A02 SLP257 T02000049 PA-100 DA0590=
0139008421999992015010518394+32900-117300FM-16+007099999V0209999C000019999999N009999199+02071+00401102531ADDMA1102541999999REMMET112MOBOB1 SPECI XM26 //007 329173 051839Z AUTO 00000KT 9999 21/04 A3028      RMK A02 SLP253 T02070040 PA-91 DA0676=
0139008421999992015010518524+32900-117300FM-15+007099999V0202801N000519999999N009999199+02041+00451102501ADDMA1102511999999REMMET112MOBOB1 METAR XM26 //007 329173 051852Z AUTO 28001KT 9999 20/04 A3027      RMK A02 SLP250 T02040045 PA-82 DA0656=
0139008421999992015010519124+32900-117300FM-15+007099999V0209999C000019999999N009999199+02141+00521102471ADDMA1102471999999REMMET112MOBOB1 METAR XM26 //007 329173 051912Z AUTO 00000KT 9999 21/05 A3026      RMK A02 SLP247 T02140052 PA-73 DA0788=
0139008421999992015010519274+32900-117300FM-16+007099999V0202701N000519999999N009999199+02181+00281102471ADDMA1102471999999REMMET112MOBOB1 SPECI XM26 //007 329173 051927Z AUTO 27001KT 9999 22/03 A3026      RMK A02 SLP247 T02180028 PA-73 DA0817=
0140008421999992015010519404+32900-117300FM-16+007099999V0209999C000019999999N009999199+02281-00071102431ADDMA1102441999999REMMET113MOBOB1 SPECI XM26 //007 329173 051940Z AUTO 00000KT 9999 23/M01 A3025      RMK A02 SLP243 T02281007 PA-64 DA0922=
0139008421999992015010520144+32900-117300FM-15+007099999V0209999C000019999999N009999199+02451+00011102361ADDMA1102341999999REMMET112MOBOB1 METAR XM26 //007 329173 052014Z AUTO 00000KT 9999 25/00 A3022      RMK A02 SLP236 T02450001 PA-45 DA1143=
0139008421999992015010520284+32900-117300FM-16+007099999V0209999C000019999999N009999199+02361+00441102331ADDMA1102301999999REMMET112MOBOB1 SPECI XM26 //007 329173 052028Z AUTO 00000KT 9999 24/04 A3021      RMK A02 SLP233 T02360044 PA-36 DA1080=
0139008421999992015010520414+32900-117300FM-16+007099999V0209999C000019999999N009999199+02331+00131102331ADDMA1102301999999REMMET112MOBOB1 SPECI XM26 //007 329173 052041Z AUTO 00000KT 9999 23/01 A3021      RMK A02 SLP233 T02330013 PA-36 DA1025=
0139008421999992015010521144+32900-117300FM-15+007099999V0209999C000019999999N009999199+02211+00891102291ADDMA1102271999999REMMET112MOBOB1 METAR XM26 //007 329173 052114Z AUTO 00000KT 9999 22/09 A3020      RMK A02 SLP229 T02210089 PA-27 DA0958=
0139008421999992015010521274+32900-117300FM-16+007099999V0209999C000019999999N009999199+02231+01071102291ADDMA1102271999999REMMET112MOBOB1 SPECI XM26 //007 329173 052127Z AUTO 00000KT 9999 22/11 A3020      RMK A02 SLP229 T02230107 PA-27 DA1000=
