0134008418999992015010100534+03000+131800FM-15+000099999V0200201N002619999999N999999999+02961+02371100871ADDMA1100851999999REMMET107MOBOB2 METAR XM24 //000 030318 010053Z AUTO 02005KT 30/24 A2978 RMK      A02 SLP087 T02960237 PA131 DA2228=
0134008418999992015010101534+03000+131800FM-15+000099999V0203601N001519999999N999999999+03001+02381100801ADDMA1100781999999REMMET107MOBOB2 METAR XM24 //000 030318 010153Z AUTO 36003KT 30/24 A2976 RMK      A02 SLP080 T03000238 PA149 DA2297=
0134008418999992015010102534+03000+131800FM-15+000099999V0200201N002119999999N999999999+02981+02351100731ADDMA1100711999999REMMET107MOBOB2 METAR XM24 //000 030318 010253Z AUTO 02004KT 30/24 A2974 RMK      A02 SLP073 T02980235 PA168 DA2291=
0134008418999992015010103534+03000+131800FM-15+000099999V0200201N001519999999N999999999+03021+02341100631ADDMA1100611999999REMMET107MOBOB2 METAR XM24 //000 030318 010353Z AUTO 02003KT 30/23 A2971 RMK      A02 SLP063 T03020234 PA196 DA2367=
0134008418999992015010104534+03000+131800FM-15+000099999V0203401N001519999999N999999999+02921+02361100601ADDMA1100581999999REMMET107MOBOB2 METAR XM24 //000 030318 010453Z AUTO 34003KT 29/24 A2970 RMK      A02 SLP060 T02920236 PA205 DA2273=
0161008418999992015010105534+03000+131800FM-15+000099999V0209999C000019999999N999999999+02891+02441100561ADDAA101000021AW1611MA1100541999999REMMET117MOBOB2 METAR XM24 //000 030318 010553Z AUTO 00000KT -RA 29/24 A2969      RMK A02 SLP056 P0000 T02890244 PA214 DA2269=
0161008418999992015010106534+03000+131800FM-15+000099999V0200901N002619999999N999999999+02831+02421100531ADDAA101000021AW1611MA1100511999999REMMET117MOBOB2 METAR XM24 //000 030318 010653Z AUTO 09005KT -RA 28/24 A2968      RMK A02 SLP053 P0000 T02830242 PA224 DA2209=
0134008418999992015010107534+03000+131800FM-15+000099999V0200701N001019999999N999999999+02901+02421100561ADDMA1100541999999REMMET107MOBOB2 METAR XM24 //000 030318 010753Z AUTO 07002KT 29/24 A2969 RMK      A02 SLP056 T02900242 PA214 DA2276=
0134008418999992015010108534+03000+131800FM-15+000099999V0200401N002119999999N999999999+02881+02411100631ADDMA1100611999999REMMET107MOBOB2 METAR XM24 //000 030318 010853Z AUTO 04004KT 29/24 A2971 RMK      A02 SLP063 T02880241 PA196 DA2227=
0134008418999992015010109534+03000+131800FM-15+000099999V0200101N002119999999N999999999+02841+02361100701ADDMA1100681999999REMMET107MOBOB2 METAR XM24 //000 030318 010953Z AUTO 01004KT 28/24 A2973 RMK      A02 SLP070 T02840236 PA177 DA2149=
0134008418999992015010110544+03000+131800FM-15+000099999V0200201N002619999999N999999999+02841+02361100771ADDMA1100741999999REMMET107MOBOB2 METAR XM24 //000 030318 011054Z AUTO 02005KT 28/24 A2975 RMK      A02 SLP077 T02840236 PA159 DA2127=
0134008418999992015010111534+03000+131800FM-15+000099999V0203601N001019999999N999999999+02801+02331100801ADDMA1100781999999REMMET107MOBOB2 METAR XM24 //000 030318 011153Z AUTO 36002KT 28/23 A2976 RMK      A02 SLP080 T02800233 PA149 DA2064=
0134008418999992015010112534+03000+131800FM-15+000099999V0203601N001519999999N999999999+02781+02371100841ADDMA1100811999999REMMET107MOBOB2 METAR XM24 //000 030318 011253Z AUTO 36003KT 28/24 A2977 RMK      A02 SLP084 T02780237 PA140 DA2038=
0139008418999992015010113534+03000+131800FM-15+000099999V0203601N001519999999N009999199+02781+02401100871ADDMA1100851999999REMMET112MOBOB2 METAR XM24 //000 030318 011353Z AUTO 36003KT 9999 28/24 A2978      RMK A02 SLP087 T02780240 PA131 DA2032=
0134008418999992015010114534+03000+131800FM-15+000099999V0203601N001019999999N999999999+02771+02391100871ADDMA1100851999999REMMET107MOBOB2 METAR XM24 //000 030318 011453Z AUTO 36002KT 28/24 A2978 RMK      A02 SLP087 T02770239 PA131 DA2019=
0139008418999992015010116534+03000+131800FM-15+000099999V0203401N001519999999N009999199+02751+02411100771ADDMA1100741999999REMMET112MOBOB2 METAR XM24 //000 030318 011653Z AUTO 34003KT 9999 28/24 A2975      RMK A02 SLP077 T02750241 PA159 DA2036=
0139008418999992015010117534+03000+131800FM-15+000099999V0203401N001519999999N009999199+02771+02431100701ADDMA1100681999999REMMET112MOBOB2 METAR XM24 //000 030318 011753Z AUTO 34003KT 9999 28/24 A2973      RMK A02 SLP070 T02770243 PA177 DA2086=
0139008418999992015010118534+03000+131800FM-15+000099999V0203501N002119999999N009999199+02701+02311100701ADDMA1100681999999REMMET112MOBOB2 METAR XM24 //000 030318 011853Z AUTO 35004KT 9999 27/23 A2973      RMK A02 SLP070 T02700231 PA177 DA1982=
0139008418999992015010119534+03000+131800FM-15+000099999V0203301N002119999999N009999199+02771+02451100731ADDMA1100711999999REMMET112MOBOB2 METAR XM24 //000 030318 011953Z AUTO 33004KT 9999 28/24 A2974      RMK A02 SLP073 T02770245 PA168 DA2079=
0139008418999992015010120544+03000+131800FM-15+000099999V0203501N001519999999N009999199+02761+02381100771ADDMA1100741999999REMMET112MOBOB2 METAR XM24 //000 030318 012054Z AUTO 35003KT 9999 28/24 A2975      RMK A02 SLP077 T02760238 PA159 DA2040=
0134008418999992015010121534+03000+131800FM-15+000099999V0203401N001519999999N999999999+02781+02421100801ADDMA1100781999999REMMET107MOBOB2 METAR XM24 //000 030318 012153Z AUTO 34003KT 28/24 A2976 RMK      A02 SLP080 T02780242 PA149 DA2061=
0134008418999992015010122534+03000+131800FM-15+000099999V0200101N002119999999N999999999+02861+02421100871ADDMA1100851999999REMMET107MOBOB2 METAR XM24 //000 030318 012253Z AUTO 01004KT 29/24 A2978 RMK      A02 SLP087 T02860242 PA131 DA2128=
0134008418999992015010123534+03000+131800FM-15+000099999V0200101N003119999999N999999999+02901+02411100871ADDMA1100851999999REMMET107MOBOB2 METAR XM24 //000 030318 012353Z AUTO 01006KT 29/24 A2978 RMK      A02 SLP087 T02900241 PA131 DA2169=
0134008418999992015010200534+03000+131800FM-15+000099999V0200101N003619999999N999999999+02921+02401100871ADDMA1100851999999REMMET107MOBOB2 METAR XM24 //000 030318 020053Z AUTO 01007KT 29/24 A2978 RMK      A02 SLP087 T02920240 PA131 DA2190=
0134008418999992015010201544+03000+131800FM-15+000099999V0200101N003119999999N999999999+02961+02391100871ADDMA1100851999999REMMET107MOBOB2 METAR XM24 //000 030318 020154Z AUTO 01006KT 30/24 A2978 RMK      A02 SLP087 T02960239 PA131 DA2232=
0134008418999992015010202534+03000+131800FM-15+000099999V0200201N003119999999N999999999+02961+02401100841ADDMA1100811999999REMMET107MOBOB2 METAR XM24 //000 030318 020253Z AUTO 02006KT 30/24 A2977 RMK      A02 SLP084 T02960240 PA140 DA2245=
0144008418999992015010203534+03000+131800FM-15+000099999V0200201N003619999999N999999999+02951+02401999999ADDMA1100741999999OC100621REMMET109MOBOB2 METAR XM24 //000 030318 020353Z AUTO 02007G12KT 30/24 A2975      RMK A02 SLPNO T02950240 PA159 DA2256=
0134008418999992015010204534+03000+131800FM-15+000099999V0200101N003119999999N999999999+02941+02371100701ADDMA1100681999999REMMET107MOBOB2 METAR XM24 //000 030318 020453Z AUTO 01006KT 29/24 A2973 RMK      A02 SLP070 T02940237 PA177 DA2262=
0134008418999992015010205534+03000+131800FM-15+000099999V0200101N003119999999N999999999+02941+02371100631ADDMA1100611999999REMMET107MOBOB2 METAR XM24 //000 030318 020553Z AUTO 01006KT 29/24 A2971 RMK      A02 SLP063 T02940237 PA196 DA2285=
0134008418999992015010206534+03000+131800FM-15+000099999V0200201N003619999999N999999999+02911+02391100601ADDMA1100581999999REMMET107MOBOB2 METAR XM24 //000 030318 020653Z AUTO 02007KT 29/24 A2970 RMK      A02 SLP060 T02910239 PA205 DA2267=
0134008418999992015010207534+03000+131800FM-15+000099999V0200101N002619999999N999999999+02901+02371100631ADDMA1100611999999REMMET107MOBOB2 METAR XM24 //000 030318 020753Z AUTO 01005KT 29/24 A2971 RMK      A02 SLP063 T02900237 PA196 DA2240=
0134008418999992015010208534+03000+131800FM-15+000099999V0203601N002119999999N999999999+02851+02371100731ADDMA1100711999999REMMET107MOBOB2 METAR XM24 //000 030318 020853Z AUTO 36004KT 29/24 A2974 RMK      A02 SLP073 T02850237 PA168 DA2150=
0134008418999992015010209534+03000+131800FM-15+000099999V0203601N002119999999N999999999+02821+02381100771ADDMA1100741999999REMMET107MOBOB2 METAR XM24 //000 030318 020953Z AUTO 36004KT 28/24 A2975 RMK      A02 SLP077 T02820238 PA159 DA2107=
0134008418999992015010210534+03000+131800FM-15+000099999V0203501N002119999999N999999999+02821+02371100841ADDMA1100811999999REMMET107MOBOB2 METAR XM24 //000 030318 021053Z AUTO 35004KT 28/24 A2977 RMK      A02 SLP084 T02820237 PA140 DA2083=
0134008418999992015010211534+03000+131800FM-15+000099999V0203601N002119999999N999999999+02821+02371100941ADDMA1100911999999REMMET107MOBOB2 METAR XM24 //000 030318 021153Z AUTO 36004KT 28/24 A2980 RMK      A02 SLP094 T02820237 PA112 DA2049=
0134008418999992015010212544+03000+131800FM-15+000099999V0203601N002619999999N999999999+02831+02381100941ADDMA1100911999999REMMET107MOBOB2 METAR XM24 //000 030318 021254Z AUTO 36005KT 28/24 A2980 RMK      A02 SLP094 T02830238 PA112 DA2062=
0139008418999992015010213534+03000+131800FM-15+000099999V0200101N002619999999N009999199+02821+02401100901ADDMA1100881999999REMMET112MOBOB2 METAR XM24 //000 030318 021353Z AUTO 01005KT 9999 28/24 A2979      RMK A02 SLP090 T02820240 PA122 DA2067=
0139008418999992015010214534+03000+131800FM-15+000099999V0200101N003119999999N009999199+02811+02441100871ADDMA1100851999999REMMET112MOBOB2 METAR XM24 //000 030318 021453Z AUTO 01006KT 9999 28/24 A2978      RMK A02 SLP087 T02810244 PA131 DA2076=
0139008418999992015010215534+03000+131800FM-15+000099999V0203601N002119999999N009999199+02801+02431100801ADDMA1100781999999REMMET112MOBOB2 METAR XM24 //000 030318 021553Z AUTO 36004KT 9999 28/24 A2976      RMK A02 SLP080 T02800243 PA149 DA2085=
0166008418999992015010216534+03000+131800FM-15+000099999V0203601N002119999999N009000199+02781+02381100771ADDAA101000021AW1611MA1100741999999REMMET122MOBOB2 METAR XM24 //000 030318 021653Z AUTO 36004KT 9000 -RA 28/24      A2975 RMK A02 SLP077 P0000 T02780238 PA159 DA2064=
0166008418999992015010217534+03000+131800FM-15+000099999V0203501N002619999999N009000199+02761+02411100701ADDAA101000021AW1611MA1100681999999REMMET122MOBOB2 METAR XM24 //000 030318 021753Z AUTO 35005KT 9000 -RA 28/24      A2973 RMK A02 SLP070 P0000 T02760241 PA177 DA2070=
0139008418999992015010218534+03000+131800FM-15+000099999V0203601N002619999999N009999199+02781+02421100631ADDMA1100611999999REMMET112MOBOB2 METAR XM24 //000 030318 021853Z AUTO 36005KT 9999 28/24 A2971      RMK A02 SLP063 T02780242 PA196 DA2119=
0139008418999992015010219534+03000+131800FM-15+000099999V0200101N003119999999N009999199+02801+02411100701ADDMA1100681999999REMMET112MOBOB2 METAR XM24 //000 030318 021953Z AUTO 01006KT 9999 28/24 A2973      RMK A02 SLP070 T02800241 PA177 DA2115=
0139008418999992015010220534+03000+131800FM-15+000099999V0200101N002619999999N009999199+02821+02411100801ADDMA1100781999999REMMET112MOBOB2 METAR XM24 //000 030318 022053Z AUTO 01005KT 9999 28/24 A2976      RMK A02 SLP080 T02820241 PA149 DA2103=
0134008418999992015010221534+03000+131800FM-15+000099999V0200101N002619999999N999999999+02831+02431100871ADDMA1100851999999REMMET107MOBOB2 METAR XM24 //000 030318 022153Z AUTO 01005KT 28/24 A2978 RMK      A02 SLP087 T02830243 PA131 DA2097=
0134008418999992015010222534+03000+131800FM-15+000099999V0200201N003619999999N999999999+02861+02431100941ADDMA1100911999999REMMET107MOBOB2 METAR XM24 //000 030318 022253Z AUTO 02007KT 29/24 A2980 RMK      A02 SLP094 T02860243 PA112 DA2106=
0134008418999992015010223534+03000+131800FM-15+000099999V0200301N002119999999N999999999+02861+02411100971ADDMA1100951999999REMMET107MOBOB2 METAR XM24 //000 030318 022353Z AUTO 03004KT 29/24 A2981 RMK      A02 SLP097 T02860241 PA103 DA2090=
0134008418999992015010300534+03000+131800FM-15+000099999V0200501N003119999999N999999999+02911+02361100941ADDMA1100911999999REMMET107MOBOB2 METAR XM24 //000 030318 030053Z AUTO 05006KT 29/24 A2980 RMK      A02 SLP094 T02910236 PA112 DA2146=
0134008418999992015010301534+03000+131800FM-15+000099999V0200501N003119999999N999999999+02891+02391100871ADDMA1100851999999REMMET107MOBOB2 METAR XM24 //000 030318 030153Z AUTO 05006KT 29/24 A2978 RMK      A02 SLP087 T02890239 PA131 DA2153=
0134008418999992015010302534+03000+131800FM-15+000099999V0200401N003119999999N999999999+02951+02441100801ADDMA1100781999999REMMET107MOBOB2 METAR XM24 //000 030318 030253Z AUTO 04006KT 30/24 A2976 RMK      A02 SLP080 T02950244 PA149 DA2254=
0161008418999992015010303534+03000+131800FM-15+000099999V0200301N002119999999N999999999+02941+02441100801ADDAA101000021AW1611MA1100781999999REMMET117MOBOB2 METAR XM24 //000 030318 030353Z AUTO 03004KT -RA 29/24 A2976      RMK A02 SLP080 P0000 T02940244 PA149 DA2244=
0134008418999992015010304544+03000+131800FM-15+000099999V0200501N003119999999N999999999+02921+02331100731ADDMA1100711999999REMMET107MOBOB2 METAR XM24 //000 030318 030454Z AUTO 05006KT 29/23 A2974 RMK      A02 SLP073 T02920233 PA168 DA2220=
0134008418999992015010305534+03000+131800FM-15+000099999V0200201N001519999999N999999999+02911+02351100701ADDMA1100681999999REMMET107MOBOB2 METAR XM24 //000 030318 030553Z AUTO 02003KT 29/24 A2973 RMK      A02 SLP070 T02910235 PA177 DA2225=
0161008418999992015010306534+03000+131800FM-15+000099999V0200101N001019999999N999999999+02691+02261100701ADDAA101000021AW1611MA1100681999999REMMET117MOBOB2 METAR XM24 //000 030318 030653Z AUTO 01002KT -RA 27/23 A2973      RMK A02 SLP070 P0000 T02690226 PA177 DA1958=
0134008418999992015010307534+03000+131800FM-15+000099999V0200101N001019999999N999999999+02811+02251100701ADDMA1100681999999REMMET107MOBOB2 METAR XM24 //000 030318 030753Z AUTO 01002KT 28/23 A2973 RMK      A02 SLP070 T02810225 PA177 DA2092=
0134008418999992015010308534+03000+131800FM-15+000099999V0203601N001019999999N999999999+02811+02391100731ADDMA1100711999999REMMET107MOBOB2 METAR XM24 //000 030318 030853Z AUTO 36002KT 28/24 A2974 RMK      A02 SLP073 T02810239 PA168 DA2110=
0139008418999992015010309534+03000+131800FM-15+000099999V0203601N001519999999N009999199+02801+02361100771ADDMA1100741999999REMMET112MOBOB2 METAR XM24 //000 030318 030953Z AUTO 36003KT 9999 28/24 A2975      RMK A02 SLP077 T02800236 PA159 DA2081=
0139008418999992015010310534+03000+131800FM-15+000099999V0203401N001519999999N009999199+02791+02401100771ADDMA1100741999999REMMET112MOBOB2 METAR XM24 //000 030318 031053Z AUTO 34003KT 9999 28/24 A2975      RMK A02 SLP077 T02790240 PA159 DA2080=
0139008418999992015010311534+03000+131800FM-15+000099999V0203501N001519999999N009999199+02771+02391100841ADDMA1100811999999REMMET112MOBOB2 METAR XM24 //000 030318 031153Z AUTO 35003KT 9999 28/24 A2977      RMK A02 SLP084 T02770239 PA140 DA2031=
0139008418999992015010312534+03000+131800FM-15+000099999V0203501N001519999999N009999199+02781+02381100871ADDMA1100851999999REMMET112MOBOB2 METAR XM24 //000 030318 031253Z AUTO 35003KT 9999 28/24 A2978      RMK A02 SLP087 T02780238 PA131 DA2029=
0139008418999992015010313534+03000+131800FM-15+000099999V0203401N002619999999N009999199+02771+02421100841ADDMA1100811999999REMMET112MOBOB2 METAR XM24 //000 030318 031353Z AUTO 34005KT 9999 28/24 A2977      RMK A02 SLP084 T02770242 PA140 DA2038=
0139008418999992015010314534+03000+131800FM-15+000099999V0203501N001019999999N009999199+02761+02421100801ADDMA1100781999999REMMET112MOBOB2 METAR XM24 //000 030318 031453Z AUTO 35002KT 9999 28/24 A2976      RMK A02 SLP080 T02760242 PA149 DA2037=
0139008418999992015010315534+03000+131800FM-15+000099999V0203201N001519999999N009999199+02771+02421100731ADDMA1100711999999REMMET112MOBOB2 METAR XM24 //000 030318 031553Z AUTO 32003KT 9999 28/24 A2974      RMK A02 SLP073 T02770242 PA168 DA2073=
0139008418999992015010316534+03000+131800FM-15+000099999V0203301N002119999999N009999199+02741+02411100671ADDMA1100641999999REMMET112MOBOB2 METAR XM24 //000 030318 031653Z AUTO 33004KT 9999 27/24 A2972      RMK A02 SLP067 T02740241 PA187 DA2059=
0139008418999992015010317534+03000+131800FM-15+000099999V0203301N002119999999N009999199+02751+02421100631ADDMA1100611999999REMMET112MOBOB2 METAR XM24 //000 030318 031753Z AUTO 33004KT 9999 28/24 A2971      RMK A02 SLP063 T02750242 PA196 DA2085=
0166008418999992015010318534+03000+131800FM-15+000099999V0202901N002119999999N009000199+02751+02401100631ADDAA101001531AW1611MA1100611999999REMMET122MOBOB2 METAR XM24 //000 030318 031853Z AUTO 29004KT 9000 -RA 28/24      A2971 RMK A02 SLP063 P0006 T02750240 PA196 DA2080=
0139008418999992015010319534+03000+131800FM-15+000099999V0203401N002619999999N009999199+02731+02391100631ADDMA1100611999999REMMET112MOBOB2 METAR XM24 //000 030318 031953Z AUTO 34005KT 9999 27/24 A2971      RMK A02 SLP063 T02730239 PA196 DA2055=
0134008418999992015010320534+03000+131800FM-15+000099999V0203301N002619999999N999999999+02741+02401100701ADDMA1100681999999REMMET107MOBOB2 METAR XM24 //000 030318 032053Z AUTO 33005KT 27/24 A2973 RMK      A02 SLP070 T02740240 PA177 DA2045=
0161008418999992015010321534+03000+131800FM-15+000099999V0203301N002619999999N999999999+02761+02461100731ADDAA101000021AW1611MA1100711999999REMMET117MOBOB2 METAR XM24 //000 030318 032153Z AUTO 33005KT -RA 28/25 A2974      RMK A02 SLP073 P0000 T02760246 PA168 DA2071=
0134008418999992015010322534+03000+131800FM-15+000099999V0203301N002119999999N999999999+02771+02441100801ADDMA1100781999999REMMET107MOBOB2 METAR XM24 //000 030318 032253Z AUTO 33004KT 28/24 A2976 RMK      A02 SLP080 T02770244 PA149 DA2054=
0134008418999992015010323534+03000+131800FM-15+000099999V0203401N002619999999N999999999+02811+02441100801ADDMA1100781999999REMMET107MOBOB2 METAR XM24 //000 030318 032353Z AUTO 34005KT 28/24 A2976 RMK      A02 SLP080 T02810244 PA149 DA2098=
0134008418999992015010400534+03000+131800FM-15+000099999V0203401N003119999999N999999999+02861+02461100731ADDMA1100711999999REMMET107MOBOB2 METAR XM24 //000 030318 040053Z AUTO 34006KT 29/25 A2974 RMK      A02 SLP073 T02860246 PA168 DA2182=
0134008418999992015010401534+03000+131800FM-15+000099999V0203401N002619999999N999999999+02891+02441100771ADDMA1100741999999REMMET107MOBOB2 METAR XM24 //000 030318 040153Z AUTO 34005KT 29/24 A2975 RMK      A02 SLP077 T02890244 PA159 DA2200=
0134008418999992015010402534+03000+131800FM-15+000099999V0203501N001519999999N999999999+02981+02391100701ADDMA1100681999999REMMET107MOBOB2 METAR XM24 //000 030318 040253Z AUTO 35003KT 30/24 A2973 RMK      A02 SLP070 T02980239 PA177 DA2311=
0134008418999992015010403534+03000+131800FM-15+000099999V0203401N001519999999N999999999+03011+02431100631ADDMA1100611999999REMMET107MOBOB2 METAR XM24 //000 030318 040353Z AUTO 34003KT 30/24 A2971 RMK      A02 SLP063 T03010243 PA196 DA2376=
0134008418999992015010404534+03000+131800FM-15+000099999V0200201N001519999999N999999999+02961+02381100531ADDMA1100511999999REMMET107MOBOB2 METAR XM24 //000 030318 040453Z AUTO 02003KT 30/24 A2968 RMK      A02 SLP053 T02960238 PA224 DA2344=
0134008418999992015010405534+03000+131800FM-15+000099999V0200101N001519999999N999999999+02911+02351100531ADDMA1100511999999REMMET107MOBOB2 METAR XM24 //000 030318 040553Z AUTO 01003KT 29/24 A2968 RMK      A02 SLP053 T02910235 PA224 DA2282=
0134008418999992015010406534+03000+131800FM-15+000099999V0200201N001519999999N999999999+02901+02421100531ADDMA1100511999999REMMET107MOBOB2 METAR XM24 //000 030318 040653Z AUTO 02003KT 29/24 A2968 RMK      A02 SLP053 T02900242 PA224 DA2287=
0134008418999992015010407534+03000+131800FM-15+000099999V0200501N002119999999N999999999+02871+02391100531ADDMA1100511999999REMMET107MOBOB2 METAR XM24 //000 030318 040753Z AUTO 05004KT 29/24 A2968 RMK      A02 SLP053 T02870239 PA224 DA2247=
0134008418999992015010408534+03000+131800FM-15+000099999V0200701N002619999999N999999999+02841+02391100601ADDMA1100581999999REMMET107MOBOB2 METAR XM24 //000 030318 040853Z AUTO 07005KT 28/24 A2970 RMK      A02 SLP060 T02840239 PA205 DA2190=
0134008418999992015010409534+03000+131800FM-15+000099999V0200501N002619999999N999999999+02831+02381100671ADDMA1100641999999REMMET107MOBOB2 METAR XM24 //000 030318 040953Z AUTO 05005KT 28/24 A2972 RMK      A02 SLP067 T02830238 PA187 DA2153=
0134008418999992015010410534+03000+131800FM-15+000099999V0200701N002119999999N999999999+02841+02371100701ADDMA1100681999999REMMET107MOBOB2 METAR XM24 //000 030318 041053Z AUTO 07004KT 28/24 A2973 RMK      A02 SLP070 T02840237 PA177 DA2151=
0139008418999992015010411534+03000+131800FM-15+000099999V0200401N002619999999N009999199+02761+02301100731ADDMA1100711999999REMMET112MOBOB2 METAR XM24 //000 030318 041153Z AUTO 04005KT 9999 28/23 A2974      RMK A02 SLP073 T02760230 PA168 DA2033=
0139008418999992015010412534+03000+131800FM-15+000099999V0200501N001019999999N009999199+02771+02401100771ADDMA1100741999999REMMET112MOBOB2 METAR XM24 //000 030318 041253Z AUTO 05002KT 9999 28/24 A2975      RMK A02 SLP077 T02770240 PA159 DA2057=
0139008418999992015010413534+03000+131800FM-15+000099999V0200501N002619999999N009999199+02801+02391100731ADDMA1100711999999REMMET112MOBOB2 METAR XM24 //000 030318 041353Z AUTO 05005KT 9999 28/24 A2974      RMK A02 SLP073 T02800239 PA168 DA2100=
0139008418999992015010414534+03000+131800FM-15+000099999V0200501N002119999999N009999199+02811+02411100701ADDMA1100681999999REMMET112MOBOB2 METAR XM24 //000 030318 041453Z AUTO 05004KT 9999 28/24 A2973      RMK A02 SLP070 T02810241 PA177 DA2127=
0166008418999992015010416534+03000+131800FM-15+000099999V0200201N003119999999N009000199+02761+02411100631ADDAA101000531AW1611MA1100611999999REMMET122MOBOB2 METAR XM24 //000 030318 041653Z AUTO 02006KT 9000 -RA 28/24      A2971 RMK A02 SLP063 P0002 T02760241 PA196 DA2094=
0139008418999992015010417534+03000+131800FM-15+000099999V0200201N002119999999N009999199+02741+02371100601ADDMA1100581999999REMMET112MOBOB2 METAR XM24 //000 030318 041753Z AUTO 02004KT 9999 27/24 A2970      RMK A02 SLP060 T02740237 PA205 DA2073=
0139008418999992015010418534+03000+131800FM-15+000099999V0203601N001019999999N009999199+02711+02341100601ADDMA1100581999999REMMET112MOBOB2 METAR XM24 //000 030318 041853Z AUTO 36002KT 9999 27/23 A2970      RMK A02 SLP060 T02710234 PA205 DA2033=
0139008418999992015010419544+03000+131800FM-15+000099999V0203601N001019999999N009999199+02711+02321100631ADDMA1100611999999REMMET112MOBOB2 METAR XM24 //000 030318 041954Z AUTO 36002KT 9999 27/23 A2971      RMK A02 SLP063 T02710232 PA196 DA2017=
0139008418999992015010420534+03000+131800FM-15+000099999V0203501N001019999999N009999199+02721+02331100701ADDMA1100681999999REMMET112MOBOB2 METAR XM24 //000 030318 042053Z AUTO 35002KT 9999 27/23 A2973      RMK A02 SLP070 T02720233 PA177 DA2007=
0134008418999992015010421534+03000+131800FM-15+000099999V0203601N001019999999N999999999+02741+02321100771ADDMA1100741999999REMMET107MOBOB2 METAR XM24 //000 030318 042153Z AUTO 36002KT 27/23 A2975 RMK      A02 SLP077 T02740232 PA159 DA2005=
0134008418999992015010422534+03000+131800FM-15+000099999V0203501N001019999999N999999999+02751+02301100841ADDMA1100811999999REMMET107MOBOB2 METAR XM24 //000 030318 042253Z AUTO 35002KT 28/23 A2977 RMK      A02 SLP084 T02750230 PA140 DA1990=
0134008418999992015010423534+03000+131800FM-15+000099999V0202701N001519999999N999999999+02801+02371100871ADDMA1100851999999REMMET107MOBOB2 METAR XM24 //000 030318 042353Z AUTO 27003KT 28/24 A2978 RMK      A02 SLP087 T02800237 PA131 DA2049=
0134008418999992015010500534+03000+131800FM-15+000099999V0203001N001019999999N999999999+02811+02351100841ADDMA1100811999999REMMET107MOBOB2 METAR XM24 //000 030318 050053Z AUTO 30002KT 28/23 A2977 RMK      A02 SLP084 T02810235 PA140 DA2067=
0134008418999992015010501534+03000+131800FM-15+000099999V0202901N001519999999N999999999+02821+02331100801ADDMA1100781999999REMMET107MOBOB2 METAR XM24 //000 030318 050153Z AUTO 29003KT 28/23 A2976 RMK      A02 SLP080 T02820233 PA149 DA2084=
0134008418999992015010502534+03000+131800FM-15+000099999V0202901N001019999999N999999999+02841+02351100771ADDMA1100741999999REMMET107MOBOB2 METAR XM24 //000 030318 050253Z AUTO 29002KT 28/24 A2975 RMK      A02 SLP077 T02840235 PA159 DA2124=
0133008418999992015010503534+03000+131800FM-15+000099999V0201001N003119999999N999999999+02751+02331999999ADDMA1100641999999REMMET106MOBOB2 METAR XM24 //000 030318 050353Z AUTO 10006KT 28/23 A2972 RMK      A02 SLPNO T02750233 PA187 DA2053=
0161008418999992015010504534+03000+131800FM-15+000099999V0200801N001019999999N999999999+02741+02391100531ADDAA101000021AW1611MA1100511999999REMMET117MOBOB2 METAR XM24 //000 030318 050453Z AUTO 08002KT -RA 27/24 A2968      RMK A02 SLP053 P0000 T02740239 PA224 DA2100=
0161008418999992015010505534+03000+131800FM-15+000099999V0203601N001519999999N999999999+02791+02421100501ADDAA101000021AW1611MA1100471999999REMMET117MOBOB2 METAR XM24 //000 030318 050553Z AUTO 36003KT -RA 28/24 A2967      RMK A02 SLP050 P0000 T02790242 PA233 DA2174=
0134008418999992015010506534+03000+131800FM-15+000099999V0200101N002119999999N999999999+02801+02361100531ADDMA1100511999999REMMET107MOBOB2 METAR XM24 //000 030318 050653Z AUTO 01004KT 28/24 A2968 RMK      A02 SLP053 T02800236 PA224 DA2160=
0134008418999992015010507534+03000+131800FM-15+000099999V0203601N001519999999N999999999+02771+02371100561ADDMA1100541999999REMMET107MOBOB2 METAR XM24 //000 030318 050753Z AUTO 36003KT 28/24 A2969 RMK      A02 SLP056 T02770237 PA214 DA2118=
0139008418999992015010508534+03000+131800FM-15+000099999V0203501N001519999999N009999199+02771+02371100601ADDMA1100581999999REMMET112MOBOB2 METAR XM24 //000 030318 050853Z AUTO 35003KT 9999 28/24 A2970      RMK A02 SLP060 T02770237 PA205 DA2107=
0139008418999992015010509534+03000+131800FM-15+000099999V0203501N002119999999N009999199+02761+02351100631ADDMA1100611999999REMMET112MOBOB2 METAR XM24 //000 030318 050953Z AUTO 35004KT 9999 28/23 A2971      RMK A02 SLP063 T02760235 PA196 DA2080=
0139008418999992015010510534+03000+131800FM-15+000099999V0203501N002119999999N009999199+02761+02361100701ADDMA1100681999999REMMET112MOBOB2 METAR XM24 //000 030318 051053Z AUTO 35004KT 9999 28/24 A2973      RMK A02 SLP070 T02760236 PA177 DA2058=
0139008418999992015010512544+03000+131800FM-15+000099999V0203601N002119999999N009999199+02771+02341100801ADDMA1100781999999REMMET112MOBOB2 METAR XM24 //000 030318 051254Z AUTO 36004KT 9999 28/23 A2976      RMK A02 SLP080 T02770234 PA149 DA2031=
0139008418999992015010513534+03000+131800FM-15+000099999V0203401N002119999999N009999199+02771+02351100771ADDMA1100741999999REMMET112MOBOB2 METAR XM24 //000 030318 051353Z AUTO 34004KT 9999 28/23 A2975      RMK A02 SLP077 T02770235 PA159 DA2044=
0139008418999992015010514534+03000+131800FM-15+000099999V0203401N002619999999N009999199+02761+02331100731ADDMA1100711999999REMMET112MOBOB2 METAR XM24 //000 030318 051453Z AUTO 34005KT 9999 28/23 A2974      RMK A02 SLP073 T02760233 PA168 DA2041=
0139008418999992015010515534+03000+131800FM-15+000099999V0203401N002619999999N009999199+02731+02321100731ADDMA1100711999999REMMET112MOBOB2 METAR XM24 //000 030318 051553Z AUTO 34005KT 9999 27/23 A2974      RMK A02 SLP073 T02730232 PA168 DA2006=
0139008418999992015010516534+03000+131800FM-15+000099999V0203301N002119999999N009999199+02701+02321100631ADDMA1100611999999REMMET112MOBOB2 METAR XM24 //000 030318 051653Z AUTO 33004KT 9999 27/23 A2971      RMK A02 SLP063 T02700232 PA196 DA2005=
0139008418999992015010517534+03000+131800FM-15+000099999V0203401N002619999999N009999199+02691+02311100601ADDMA1100581999999REMMET112MOBOB2 METAR XM24 //000 030318 051753Z AUTO 34005KT 9999 27/23 A2970      RMK A02 SLP060 T02690231 PA205 DA2005=
0139008418999992015010518534+03000+131800FM-15+000099999V0203401N002619999999N009999199+02681+02321100601ADDMA1100581999999REMMET112MOBOB2 METAR XM24 //000 030318 051853Z AUTO 34005KT 9999 27/23 A2970      RMK A02 SLP060 T02680232 PA205 DA1995=
0139008418999992015010519534+03000+131800FM-15+000099999V0203301N002119999999N009999199+02701+02331100631ADDMA1100611999999REMMET112MOBOB2 METAR XM24 //000 030318 051953Z AUTO 33004KT 9999 27/23 A2971      RMK A02 SLP063 T02700233 PA196 DA2007=
0139008418999992015010520534+03000+131800FM-15+000099999V0203201N002119999999N009999199+02711+02331100671ADDMA1100641999999REMMET112MOBOB2 METAR XM24 //000 030318 052053Z AUTO 32004KT 9999 27/23 A2972      RMK A02 SLP067 T02710233 PA187 DA2008=
0134008418999992015010521534+03000+131800FM-15+000099999V0203201N002619999999N999999999+02751+02361100701ADDMA1100681999999REMMET107MOBOB2 METAR XM24 //000 030318 052153Z AUTO 32005KT 28/24 A2973 RMK      A02 SLP070 T02750236 PA177 DA2048=
0134008418999992015010522534+03000+131800FM-15+000099999V0203201N002119999999N999999999+02811+02361100731ADDMA1100711999999REMMET107MOBOB2 METAR XM24 //000 030318 052253Z AUTO 32004KT 28/24 A2974 RMK      A02 SLP073 T02810236 PA168 DA2102=
0133008418999992015010523534+03000+131800FM-15+000099999V0203201N002619999999N999999999+02891+02361999999ADDMA1100741999999REMMET106MOBOB2 METAR XM24 //000 030318 052353Z AUTO 32005KT 29/24 A2975 RMK      A02 SLPNO T02890236 PA159 DA2181=
0134008418999992015010600534+03000+131800FM-15+000099999V0203401N003619999999N999999999+02891+02401100771ADDMA1100741999999REMMET107MOBOB2 METAR XM24 //000 030318 060053Z AUTO 34007KT 29/24 A2975 RMK      A02 SLP077 T02890240 PA159 DA2191=
0134008418999992015010601534+03000+131800FM-15+000099999V0203501N003119999999N999999999+02961+02351100701ADDMA1100681999999REMMET107MOBOB2 METAR XM24 //000 030318 060153Z AUTO 35006KT 30/24 A2973 RMK      A02 SLP070 T02960235 PA177 DA2281=
0134008418999992015010602534+03000+131800FM-15+000099999V0203401N003119999999N999999999+02891+02371100671ADDMA1100641999999REMMET107MOBOB2 METAR XM24 //000 030318 060253Z AUTO 34006KT 29/24 A2972 RMK      A02 SLP067 T02890237 PA187 DA2218=
0134008418999992015010604534+03000+131800FM-15+000099999V0203301N002619999999N999999999+02931+02391100501ADDMA1100471999999REMMET107MOBOB2 METAR XM24 //000 030318 060453Z AUTO 33005KT 29/24 A2967 RMK      A02 SLP050 T02930239 PA233 DA2325=
0134008418999992015010605534+03000+131800FM-15+000099999V0203401N003119999999N999999999+02881+02371100531ADDMA1100511999999REMMET107MOBOB2 METAR XM24 //000 030318 060553Z AUTO 34006KT 29/24 A2968 RMK      A02 SLP053 T02880237 PA224 DA2252=
0134008418999992015010606534+03000+131800FM-15+000099999V0203301N002619999999N999999999+02891+02421100461ADDMA1100441999999REMMET107MOBOB2 METAR XM24 //000 030318 060653Z AUTO 33005KT 29/24 A2966 RMK      A02 SLP046 T02890242 PA242 DA2298=
0134008418999992015010607534+03000+131800FM-15+000099999V0203401N003119999999N999999999+02821+02361100531ADDMA1100511999999REMMET107MOBOB2 METAR XM24 //000 030318 060753Z AUTO 34006KT 28/24 A2968 RMK      A02 SLP053 T02820236 PA224 DA2183=
0134008418999992015010608534+03000+131800FM-15+000099999V0203401N003619999999N999999999+02811+02291100601ADDMA1100581999999REMMET107MOBOB2 METAR XM24 //000 030318 060853Z AUTO 34007KT 28/23 A2970 RMK      A02 SLP060 T02810229 PA205 DA2134=
0139008418999992015010609534+03000+131800FM-15+000099999V0203401N002619999999N009999199+02781+02291100671ADDMA1100641999999REMMET112MOBOB2 METAR XM24 //000 030318 060953Z AUTO 34005KT 9999 28/23 A2972      RMK A02 SLP067 T02780229 PA187 DA2078=
0139008418999992015010610534+03000+131800FM-15+000099999V0203401N003119999999N009999199+02801+02351100701ADDMA1100681999999REMMET112MOBOB2 METAR XM24 //000 030318 061053Z AUTO 34006KT 9999 28/24 A2973      RMK A02 SLP070 T02800235 PA177 DA2102=
0139008418999992015010611534+03000+131800FM-15+000099999V0203301N003119999999N009999199+02791+02341100731ADDMA1100711999999REMMET112MOBOB2 METAR XM24 //000 030318 061153Z AUTO 33006KT 9999 28/23 A2974      RMK A02 SLP073 T02790234 PA168 DA2077=
0139008418999992015010612534+03000+131800FM-15+000099999V0203301N002619999999N009999199+02791+02331100701ADDMA1100681999999REMMET112MOBOB2 METAR XM24 //000 030318 061253Z AUTO 33005KT 9999 28/23 A2973      RMK A02 SLP070 T02790233 PA177 DA2086=
0139008418999992015010613534+03000+131800FM-15+000099999V0203301N002619999999N009999199+02781+02321100701ADDMA1100681999999REMMET112MOBOB2 METAR XM24 //000 030318 061353Z AUTO 33005KT 9999 28/23 A2973      RMK A02 SLP070 T02780232 PA177 DA2071=
0139008418999992015010614534+03000+131800FM-15+000099999V0203301N002119999999N009999199+02761+02321100701ADDMA1100681999999REMMET112MOBOB2 METAR XM24 //000 030318 061453Z AUTO 33004KT 9999 28/23 A2973      RMK A02 SLP070 T02760232 PA177 DA2051=
0138008418999992015010615534+03000+131800FM-15+000099999V0203201N001519999999N009999199+02751+02311999999ADDMA1100611999999REMMET111MOBOB2 METAR XM24 //000 030318 061553Z AUTO 32003KT 9999 28/23 A2971      RMK A02 SLPNO T02750231 PA196 DA2059=
0139008418999992015010616534+03000+131800FM-15+000099999V0203101N002119999999N009999199+02741+02291100601ADDMA1100581999999REMMET112MOBOB2 METAR XM24 //000 030318 061653Z AUTO 31004KT 9999 27/23 A2970      RMK A02 SLP060 T02740229 PA205 DA2056=
0139008418999992015010617534+03000+131800FM-15+000099999V0203201N001519999999N009999199+02711+02281100561ADDMA1100541999999REMMET112MOBOB2 METAR XM24 //000 030318 061753Z AUTO 32003KT 9999 27/23 A2969      RMK A02 SLP056 T02710228 PA214 DA2031=
0139008418999992015010618534+03000+131800FM-15+000099999V0203301N002119999999N009999199+02681+02251100561ADDMA1100541999999REMMET112MOBOB2 METAR XM24 //000 030318 061853Z AUTO 33004KT 9999 27/22 A2969      RMK A02 SLP056 T02680225 PA214 DA1991=
0139008418999992015010619534+03000+131800FM-15+000099999V0203301N001519999999N009999199+02711+02301100601ADDMA1100581999999REMMET112MOBOB2 METAR XM24 //000 030318 061953Z AUTO 33003KT 9999 27/23 A2970      RMK A02 SLP060 T02710230 PA205 DA2025=
0139008418999992015010620534+03000+131800FM-15+000099999V0203301N001519999999N009999199+02751+02371100631ADDMA1100611999999REMMET112MOBOB2 METAR XM24 //000 030318 062053Z AUTO 33003KT 9999 28/24 A2971      RMK A02 SLP063 T02750237 PA196 DA2073=
0134008418999992015010621534+03000+131800FM-15+000099999V0203201N001019999999N999999999+02741+02371100701ADDMA1100681999999REMMET107MOBOB2 METAR XM24 //000 030318 062153Z AUTO 32002KT 27/24 A2973 RMK      A02 SLP070 T02740237 PA177 DA2038=
0134008418999992015010622534+03000+131800FM-15+000099999V0203101N001519999999N999999999+02801+02321100771ADDMA1100741999999REMMET107MOBOB2 METAR XM24 //000 030318 062253Z AUTO 31003KT 28/23 A2975 RMK      A02 SLP077 T02800232 PA159 DA2072=
0134008418999992015010623534+03000+131800FM-15+000099999V0203101N001519999999N999999999+02941+02341100801ADDMA1100781999999REMMET107MOBOB2 METAR XM24 //000 030318 062353Z AUTO 31003KT 29/23 A2976 RMK      A02 SLP080 T02940234 PA149 DA2221=
0134008418999992015010700534+03000+131800FM-15+000099999V0203101N001519999999N999999999+02981+02251100801ADDMA1100781999999REMMET107MOBOB2 METAR XM24 //000 030318 070053Z AUTO 31003KT 30/23 A2976 RMK      A02 SLP080 T02980225 PA149 DA2246=
0134008418999992015010701534+03000+131800FM-15+000099999V0203201N001019999999N999999999+03081+02291100771ADDMA1100741999999REMMET107MOBOB2 METAR XM24 //000 030318 070153Z AUTO 32002KT 31/23 A2975 RMK      A02 SLP077 T03080229 PA159 DA2377=
0134008418999992015010702534+03000+131800FM-15+000099999V0203101N002119999999N999999999+03021+02271100701ADDMA1100681999999REMMET107MOBOB2 METAR XM24 //000 030318 070253Z AUTO 31004KT 30/23 A2973 RMK      A02 SLP070 T03020227 PA177 DA2329=
0134008418999992015010703534+03000+131800FM-15+000099999V0203201N002119999999N999999999+03061+02301100601ADDMA1100581999999REMMET107MOBOB2 METAR XM24 //000 030318 070353Z AUTO 32004KT 31/23 A2970 RMK      A02 SLP060 T03060230 PA205 DA2414=
0134008418999992015010704534+03000+131800FM-15+000099999V0203001N002119999999N999999999+03031+02301100531ADDMA1100511999999REMMET107MOBOB2 METAR XM24 //000 030318 070453Z AUTO 30004KT 30/23 A2968 RMK      A02 SLP053 T03030230 PA224 DA2403=
0134008418999992015010705544+03000+131800FM-15+000099999V0203001N002119999999N999999999+03041+02401100531ADDMA1100511999999REMMET107MOBOB2 METAR XM24 //000 030318 070554Z AUTO 30004KT 30/24 A2968 RMK      A02 SLP053 T03040240 PA224 DA2437=
0134008418999992015010706534+03000+131800FM-15+000099999V0202801N002619999999N999999999+02981+02331100531ADDMA1100511999999REMMET107MOBOB2 METAR XM24 //000 030318 070653Z AUTO 28005KT 30/23 A2968 RMK      A02 SLP053 T02980233 PA224 DA2355=
0134008418999992015010707534+03000+131800FM-15+000099999V0203101N003119999999N999999999+02961+02331100561ADDMA1100541999999REMMET107MOBOB2 METAR XM24 //000 030318 070753Z AUTO 31006KT 30/23 A2969 RMK      A02 SLP056 T02960233 PA214 DA2322=
0134008418999992015010708534+03000+131800FM-15+000099999V0203101N002619999999N999999999+02901+02411100631ADDMA1100611999999REMMET107MOBOB2 METAR XM24 //000 030318 070853Z AUTO 31005KT 29/24 A2971 RMK      A02 SLP063 T02900241 PA196 DA2250=
0134008418999992015010709534+03000+131800FM-15+000099999V0203001N002119999999N999999999+02851+02391100701ADDMA1100681999999REMMET107MOBOB2 METAR XM24 //000 030318 070953Z AUTO 30004KT 29/24 A2973 RMK      A02 SLP070 T02850239 PA177 DA2167=
0134008418999992015010710534+03000+131800FM-15+000099999V0203001N002119999999N999999999+02851+02371100801ADDMA1100781999999REMMET107MOBOB2 METAR XM24 //000 030318 071053Z AUTO 30004KT 29/24 A2976 RMK      A02 SLP080 T02850237 PA149 DA2128=
0161008418999992015010711534+03000+131800FM-15+000099999V0203201N002619999999N999999999+02811+02421100841ADDAA101000531AW1611MA1100811999999REMMET117MOBOB2 METAR XM24 //000 030318 071153Z AUTO 32005KT -RA 28/24 A2977      RMK A02 SLP084 P0002 T02810242 PA140 DA2083=
0139008418999992015010712534+03000+131800FM-15+000099999V0203201N001519999999N009999199+02831+02441100871ADDMA1100851999999REMMET112MOBOB2 METAR XM24 //000 030318 071253Z AUTO 32003KT 9999 28/24 A2978      RMK A02 SLP087 T02830244 PA131 DA2099=
0139008418999992015010713534+03000+131800FM-15+000099999V0203201N001519999999N009999199+02811+02431100831ADDMA1100811999999REMMET112MOBOB2 METAR XM24 //000 030318 071353Z AUTO 32003KT 9999 28/24 A2977      RMK A02 SLP083 T02810243 PA140 DA2086=
0139008418999992015010714534+03000+131800FM-15+000099999V0203601N002119999999N009999199+02701+02401100841ADDMA1100811999999REMMET112MOBOB2 METAR XM24 //000 030318 071453Z AUTO 36004KT 9999 27/24 A2977      RMK A02 SLP084 T02700240 PA140 DA1955=
0139008418999992015010716534+03000+131800FM-15+000099999V0203101N002119999999N009999199+02751+02401100731ADDMA1100711999999REMMET112MOBOB2 METAR XM24 //000 030318 071653Z AUTO 31004KT 9999 28/24 A2974      RMK A02 SLP073 T02750240 PA168 DA2046=
0139008418999992015010717534+03000+131800FM-15+000099999V0203101N002619999999N009999199+02771+02351100701ADDMA1100681999999REMMET112MOBOB2 METAR XM24 //000 030318 071753Z AUTO 31005KT 9999 28/24 A2973      RMK A02 SLP070 T02770235 PA177 DA2068=
0166008418999992015010718534+03000+131800FM-15+000099999V0203201N003119999999N009000199+02731+02381100701ADDAA101000021AW1631MA1100681999999REMMET122MOBOB2 METAR XM24 //000 030318 071853Z AUTO 32006KT 9000 +RA 27/24      A2973 RMK A02 SLP070 P0000 T02730238 PA177 DA2030=
0139008418999992015010719534+03000+131800FM-15+000099999V0203301N002619999999N009999199+02701+02381100731ADDMA1100711999999REMMET112MOBOB2 METAR XM24 //000 030318 071953Z AUTO 33005KT 9999 27/24 A2974      RMK A02 SLP073 T02700238 PA168 DA1986=
0134008418999992015010720534+03000+131800FM-15+000099999V0203301N002119999999N999999999+02731+02351100801ADDMA1100781999999REMMET107MOBOB2 METAR XM24 //000 030318 072053Z AUTO 33004KT 27/24 A2976 RMK      A02 SLP080 T02730235 PA149 DA1990=
0134008418999992015010721534+03000+131800FM-15+000099999V0203201N002119999999N999999999+02771+02401100841ADDMA1100811999999REMMET107MOBOB2 METAR XM24 //000 030318 072153Z AUTO 32004KT 28/24 A2977 RMK      A02 SLP084 T02770240 PA140 DA2032=
0134008418999992015010722534+03000+131800FM-15+000099999V0203301N003119999999N999999999+02831+02431100871ADDMA1100851999999REMMET107MOBOB2 METAR XM24 //000 030318 072253Z AUTO 33006KT 28/24 A2978 RMK      A02 SLP087 T02830243 PA131 DA2096=
0134008418999992015010723534+03000+131800FM-15+000099999V0203201N002619999999N999999999+02891+02461100871ADDMA1100851999999REMMET107MOBOB2 METAR XM24 //000 030318 072353Z AUTO 32005KT 29/25 A2978 RMK      A02 SLP087 T02890246 PA131 DA2169=
0134008418999992015010800534+03000+131800FM-15+000099999V0203201N002119999999N999999999+02941+02441100901ADDMA1100881999999REMMET107MOBOB2 METAR XM24 //000 030318 080053Z AUTO 32004KT 29/24 A2979 RMK      A02 SLP090 T02940244 PA122 DA2209=
0134008418999992015010801534+03000+131800FM-15+000099999V0203201N002619999999N999999999+02971+02421100871ADDMA1100851999999REMMET107MOBOB2 METAR XM24 //000 030318 080153Z AUTO 32005KT 30/24 A2978 RMK      A02 SLP087 T02970242 PA131 DA2250=
0134008418999992015010802534+03000+131800FM-15+000099999V0203301N002619999999N999999999+03021+02441100801ADDMA1100781999999REMMET107MOBOB2 METAR XM24 //000 030318 080253Z AUTO 33005KT 30/24 A2976 RMK      A02 SLP080 T03020244 PA149 DA2333=
0133008418999992015010803534+03000+131800FM-15+000099999V0203301N002619999999N999999999+03041+02421999999ADDMA1100711999999REMMET106MOBOB2 METAR XM24 //000 030318 080353Z AUTO 33005KT 30/24 A2974 RMK      A02 SLPNO T03040242 PA168 DA2372=
0134008418999992015010804534+03000+131800FM-15+000099999V0203401N003619999999N999999999+03041+02441100671ADDMA1100641999999REMMET107MOBOB2 METAR XM24 //000 030318 080453Z AUTO 34007KT 30/24 A2972 RMK      A02 SLP067 T03040244 PA187 DA2399=
0134008418999992015010805534+03000+131800FM-15+000099999V0203401N003119999999N999999999+03041+02401100631ADDMA1100611999999REMMET107MOBOB2 METAR XM24 //000 030318 080553Z AUTO 34006KT 30/24 A2971 RMK      A02 SLP063 T03040240 PA196 DA2402=
0134008418999992015010806534+03000+131800FM-15+000099999V0203401N003119999999N999999999+03021+02421100601ADDMA1100581999999REMMET107MOBOB2 METAR XM24 //000 030318 080653Z AUTO 34006KT 30/24 A2970 RMK      A02 SLP060 T03020242 PA205 DA2397=
0134008418999992015010807534+03000+131800FM-15+000099999V0203501N002619999999N999999999+02971+02401100631ADDMA1100611999999REMMET107MOBOB2 METAR XM24 //000 030318 080753Z AUTO 35005KT 30/24 A2971 RMK      A02 SLP063 T02970240 PA196 DA2324=
0134008418999992015010808534+03000+131800FM-15+000099999V0203501N002119999999N999999999+02841+02341100701ADDMA1100681999999REMMET107MOBOB2 METAR XM24 //000 030318 080853Z AUTO 35004KT 28/23 A2973 RMK      A02 SLP070 T02840234 PA177 DA2145=
0134008418999992015010809534+03000+131800FM-15+000099999V0203601N002119999999N999999999+02801+02361100771ADDMA1100741999999REMMET107MOBOB2 METAR XM24 //000 030318 080953Z AUTO 36004KT 28/24 A2975 RMK      A02 SLP077 T02800236 PA159 DA2080=
0134008418999992015010810534+03000+131800FM-15+000099999V0203501N001519999999N999999999+02801+02371100801ADDMA1100781999999REMMET107MOBOB2 METAR XM24 //000 030318 081053Z AUTO 35003KT 28/24 A2976 RMK      A02 SLP080 T02800237 PA149 DA2072=
0134008418999992015010811534+03000+131800FM-15+000099999V0203601N002119999999N999999999+02801+02361100871ADDMA1100851999999REMMET107MOBOB2 METAR XM24 //000 030318 081153Z AUTO 36004KT 28/24 A2978 RMK      A02 SLP087 T02800236 PA131 DA2046=
0139008418999992015010812534+03000+131800FM-15+000099999V0203601N001519999999N009999199+02791+02351100901ADDMA1100881999999REMMET112MOBOB2 METAR XM24 //000 030318 081253Z AUTO 36003KT 9999 28/23 A2979      RMK A02 SLP090 T02790235 PA122 DA2021=
0139008418999992015010813544+03000+131800FM-15+000099999V0203601N001519999999N009999199+02781+02361100871ADDMA1100851999999REMMET112MOBOB2 METAR XM24 //000 030318 081354Z AUTO 36003KT 9999 28/24 A2978      RMK A02 SLP087 T02780236 PA131 DA2025=
0134008418999992015010814534+03000+131800FM-15+000099999V0203601N001519999999N999999999+02791+02341100841ADDMA1100811999999REMMET107MOBOB2 METAR XM24 //000 030318 081453Z AUTO 36003KT 28/23 A2977 RMK      A02 SLP084 T02790234 PA140 DA2043=
0134008418999992015010815534+03000+131800FM-15+000099999V0203401N002619999999N999999999+02781+02391100801ADDMA1100781999999REMMET107MOBOB2 METAR XM24 //000 030318 081553Z AUTO 34005KT 28/24 A2976 RMK      A02 SLP080 T02780239 PA149 DA2055=
0134008418999992015010816534+03000+131800FM-15+000099999V0203401N002119999999N999999999+02761+02381100701ADDMA1100681999999REMMET107MOBOB2 METAR XM24 //000 030318 081653Z AUTO 34004KT 28/24 A2973 RMK      A02 SLP070 T02760238 PA177 DA2063=
0134008418999992015010817534+03000+131800FM-15+000099999V0203501N002119999999N999999999+02741+02341100671ADDMA1100641999999REMMET107MOBOB2 METAR XM24 //000 030318 081753Z AUTO 35004KT 27/23 A2972 RMK      A02 SLP067 T02740234 PA187 DA2044=
0134008418999992015010818534+03000+131800FM-15+000099999V0203501N002119999999N999999999+02751+02381100701ADDMA1100681999999REMMET107MOBOB2 METAR XM24 //000 030318 081853Z AUTO 35004KT 28/24 A2973 RMK      A02 SLP070 T02750238 PA177 DA2053=
0134008418999992015010819534+03000+131800FM-15+000099999V0203501N002619999999N999999999+02731+02321100701ADDMA1100681999999REMMET107MOBOB2 METAR XM24 //000 030318 081953Z AUTO 35005KT 27/23 A2973 RMK      A02 SLP070 T02730232 PA177 DA2017=
0134008418999992015010820534+03000+131800FM-15+000099999V0203501N002119999999N999999999+02761+02341100801ADDMA1100781999999REMMET107MOBOB2 METAR XM24 //000 030318 082053Z AUTO 35004KT 28/23 A2976 RMK      A02 SLP080 T02760234 PA149 DA2020=
0134008418999992015010821534+03000+131800FM-15+000099999V0203501N002619999999N999999999+02771+02341100871ADDMA1100851999999REMMET107MOBOB2 METAR XM24 //000 030318 082153Z AUTO 35005KT 28/23 A2978 RMK      A02 SLP087 T02770234 PA131 DA2008=
0134008418999992015010822534+03000+131800FM-15+000099999V0203401N002119999999N999999999+02851+02391100941ADDMA1100911999999REMMET107MOBOB2 METAR XM24 //000 030318 082253Z AUTO 34004KT 29/24 A2980 RMK      A02 SLP094 T02850239 PA112 DA2085=
0134008418999992015010823534+03000+131800FM-15+000099999V0203501N002119999999N999999999+02981+02391100941ADDMA1100911999999REMMET107MOBOB2 METAR XM24 //000 030318 082353Z AUTO 35004KT 30/24 A2980 RMK      A02 SLP094 T02980239 PA112 DA2230=
0134008418999992015010900534+03000+131800FM-15+000099999V0203401N003119999999N999999999+02981+02391100901ADDMA1100881999999REMMET107MOBOB2 METAR XM24 //000 030318 090053Z AUTO 34006KT 30/24 A2979 RMK      A02 SLP090 T02980239 PA122 DA2242=
0134008418999992015010901534+03000+131800FM-15+000099999V0203401N003119999999N999999999+02961+02371100841ADDMA1100811999999REMMET107MOBOB2 METAR XM24 //000 030318 090153Z AUTO 34006KT 30/24 A2977 RMK      A02 SLP084 T02960237 PA140 DA2239=
0134008418999992015010902534+03000+131800FM-15+000099999V0203401N003119999999N999999999+03021+02401100801ADDMA1100781999999REMMET107MOBOB2 METAR XM24 //000 030318 090253Z AUTO 34006KT 30/24 A2976 RMK      A02 SLP080 T03020240 PA149 DA2323=
0134008418999992015010904534+03000+131800FM-15+000099999V0203401N003119999999N999999999+02991+02401100671ADDMA1100641999999REMMET107MOBOB2 METAR XM24 //000 030318 090453Z AUTO 34006KT 30/24 A2972 RMK      A02 SLP067 T02990240 PA187 DA2337=
0134008418999992015010905534+03000+131800FM-15+000099999V0203301N002619999999N999999999+02971+02431100631ADDMA1100611999999REMMET107MOBOB2 METAR XM24 //000 030318 090553Z AUTO 33005KT 30/24 A2971 RMK      A02 SLP063 T02970243 PA196 DA2333=
0134008418999992015010906534+03000+131800FM-15+000099999V0203301N003119999999N999999999+02991+02421100671ADDMA1100641999999REMMET107MOBOB2 METAR XM24 //000 030318 090653Z AUTO 33006KT 30/24 A2972 RMK      A02 SLP067 T02990242 PA187 DA2339=
0134008418999992015010907534+03000+131800FM-15+000099999V0203301N002619999999N999999999+02941+02411100701ADDMA1100681999999REMMET107MOBOB2 METAR XM24 //000 030318 090753Z AUTO 33005KT 29/24 A2973 RMK      A02 SLP070 T02940241 PA177 DA2271=
0161008418999992015010908534+03000+131800FM-15+000099999V0203101N002619999999N999999999+02731+02231100731ADDAA101000531AW1611MA1100711999999REMMET117MOBOB2 METAR XM24 //000 030318 090853Z AUTO 31005KT -RA 27/22 A2974      RMK A02 SLP073 P0002 T02730223 PA168 DA1985=
0134008418999992015010909534+03000+131800FM-15+000099999V0203401N002119999999N999999999+02801+02391100801ADDMA1100781999999REMMET107MOBOB2 METAR XM24 //000 030318 090953Z AUTO 34004KT 28/24 A2976 RMK      A02 SLP080 T02800239 PA149 DA2077=
0134008418999992015010910534+03000+131800FM-15+000099999V0203401N002119999999N999999999+02791+02321100801ADDMA1100781999999REMMET107MOBOB2 METAR XM24 //000 030318 091053Z AUTO 34004KT 28/23 A2976 RMK      A02 SLP080 T02790232 PA149 DA2050=
0134008418999992015010911534+03000+131800FM-15+000099999V0203401N002119999999N999999999+02811+02381100871ADDMA1100851999999REMMET107MOBOB2 METAR XM24 //000 030318 091153Z AUTO 34004KT 28/24 A2978 RMK      A02 SLP087 T02810238 PA131 DA2062=
0134008418999992015010912534+03000+131800FM-15+000099999V0203501N001519999999N999999999+02791+02411100871ADDMA1100851999999REMMET107MOBOB2 METAR XM24 //000 030318 091253Z AUTO 35003KT 28/24 A2978 RMK      A02 SLP087 T02790241 PA131 DA2048=
0134008418999992015010913544+03000+131800FM-15+000099999V0203401N002119999999N999999999+02761+02371100841ADDMA1100811999999REMMET107MOBOB2 METAR XM24 //000 030318 091354Z AUTO 34004KT 28/24 A2977 RMK      A02 SLP084 T02760237 PA140 DA2017=
0134008418999992015010914534+03000+131800FM-15+000099999V0203401N002619999999N999999999+02751+02371100771ADDMA1100741999999REMMET107MOBOB2 METAR XM24 //000 030318 091453Z AUTO 34005KT 28/24 A2975 RMK      A02 SLP077 T02750237 PA159 DA2027=
0133008418999992015010915534+03000+131800FM-15+000099999V0203301N002119999999N999999999+02761+02321999999ADDMA1100711999999REMMET106MOBOB2 METAR XM24 //000 030318 091553Z AUTO 33004KT 28/23 A2974 RMK      A02 SLPNO T02760232 PA168 DA2040=
0134008418999992015010916534+03000+131800FM-15+000099999V0203601N001519999999N999999999+02741+02391100701ADDMA1100681999999REMMET107MOBOB2 METAR XM24 //000 030318 091653Z AUTO 36003KT 27/24 A2973 RMK      A02 SLP070 T02740239 PA177 DA2043=
0161008418999992015010917534+03000+131800FM-15+000099999V0200701N003119999999N999999999+02691+02391100671ADDAA101000021AW1611MA1100641999999REMMET117MOBOB2 METAR XM24 //000 030318 091753Z AUTO 07006KT -RA 27/24 A2972      RMK A02 SLP067 P0000 T02690239 PA187 DA1998=
0134008418999992015010918534+03000+131800FM-15+000099999V0200901N001519999999N999999999+02711+02371100671ADDMA1100641999999REMMET107MOBOB2 METAR XM24 //000 030318 091853Z AUTO 09003KT 27/24 A2972 RMK      A02 SLP067 T02710237 PA187 DA2017=
0134008418999992015010919534+03000+131800FM-15+000099999V0201001N001519999999N999999999+02721+02351100701ADDMA1100681999999REMMET107MOBOB2 METAR XM24 //000 030318 091953Z AUTO 10003KT 27/24 A2973 RMK      A02 SLP070 T02720235 PA177 DA2013=
0134008418999992015010920534+03000+131800FM-15+000099999V0200401N001519999999N999999999+02741+02251100771ADDMA1100741999999REMMET107MOBOB2 METAR XM24 //000 030318 092053Z AUTO 04003KT 27/23 A2975 RMK      A02 SLP077 T02740225 PA159 DA1990=
0134008418999992015010921534+03000+131800FM-15+000099999V0200301N001519999999N999999999+02771+02351100871ADDMA1100851999999REMMET107MOBOB2 METAR XM24 //000 030318 092153Z AUTO 03003KT 28/24 A2978 RMK      A02 SLP087 T02770235 PA131 DA2011=
0134008418999992015010922534+03000+131800FM-15+000099999V0200601N002119999999N999999999+02791+02311100871ADDMA1100851999999REMMET107MOBOB2 METAR XM24 //000 030318 092253Z AUTO 06004KT 28/23 A2978 RMK      A02 SLP087 T02790231 PA131 DA2025=
0134008418999992015010923534+03000+131800FM-15+000099999V0200401N002119999999N999999999+02851+02391100901ADDMA1100881999999REMMET107MOBOB2 METAR XM24 //000 030318 092353Z AUTO 04004KT 29/24 A2979 RMK      A02 SLP090 T02850239 PA122 DA2099=
0134008418999992015011000534+03000+131800FM-15+000099999V0200301N002119999999N999999999+02881+02421100841ADDMA1100811999999REMMET107MOBOB2 METAR XM24 //000 030318 100053Z AUTO 03004KT 29/24 A2977 RMK      A02 SLP084 T02880242 PA140 DA2160=
0134008418999992015011001534+03000+131800FM-15+000099999V0200301N002119999999N999999999+02871+02351100801ADDMA1100781999999REMMET107MOBOB2 METAR XM24 //000 030318 100153Z AUTO 03004KT 29/24 A2976 RMK      A02 SLP080 T02870235 PA149 DA2146=
0134008418999992015011002544+03000+131800FM-15+000099999V0200201N003119999999N999999999+02931+02381100771ADDMA1100741999999REMMET107MOBOB2 METAR XM24 //000 030318 100254Z AUTO 02006KT 29/24 A2975 RMK      A02 SLP077 T02930238 PA159 DA2231=
0134008418999992015011003534+03000+131800FM-15+000099999V0203601N002619999999N999999999+03061+02381100701ADDMA1100681999999REMMET107MOBOB2 METAR XM24 //000 030318 100353Z AUTO 36005KT 31/24 A2973 RMK      A02 SLP070 T03060238 PA177 DA2398=
0134008418999992015011004544+03000+131800FM-15+000099999V0203601N003119999999N999999999+03011+02411100601ADDMA1100581999999REMMET107MOBOB2 METAR XM24 //000 030318 100454Z AUTO 36006KT 30/24 A2970 RMK      A02 SLP060 T03010241 PA205 DA2383=
0145008418999992015011005534+03000+131800FM-15+000099999V0200101N004119999999N999999999+02871+02361100531ADDMA1100511999999OC100621REMMET110MOBOB2 METAR XM24 //000 030318 100553Z AUTO 01008G12KT 29/24 A2968      RMK A02 SLP053 T02870236 PA224 DA2240=
0134008418999992015011006534+03000+131800FM-15+000099999V0200301N002119999999N999999999+02861+02391100561ADDMA1100541999999REMMET107MOBOB2 METAR XM24 //000 030318 100653Z AUTO 03004KT 29/24 A2969 RMK      A02 SLP056 T02860239 PA214 DA2222=
0134008418999992015011007534+03000+131800FM-15+000099999V0200301N003119999999N999999999+02831+02441100631ADDMA1100611999999REMMET107MOBOB2 METAR XM24 //000 030318 100753Z AUTO 03006KT 28/24 A2971 RMK      A02 SLP063 T02830244 PA196 DA2178=
0145008418999992015011008534+03000+131800FM-15+000099999V0200201N004619999999N999999999+02771+02381100701ADDMA1100681999999OC100671REMMET110MOBOB2 METAR XM24 //000 030318 100853Z AUTO 02009G13KT 28/24 A2973      RMK A02 SLP070 T02770238 PA177 DA2075=
0134008418999992015011009534+03000+131800FM-15+000099999V0200301N002119999999N999999999+02731+02331100771ADDMA1100741999999REMMET107MOBOB2 METAR XM24 //000 030318 100953Z AUTO 03004KT 27/23 A2975 RMK      A02 SLP077 T02730233 PA159 DA1997=
0145008418999992015011010534+03000+131800FM-15+000099999V0200501N003619999999N999999999+02781+02381100841ADDMA1100811999999OC100621REMMET110MOBOB2 METAR XM24 //000 030318 101053Z AUTO 05007G12KT 28/24 A2977      RMK A02 SLP084 T02780238 PA140 DA2039=
0134008418999992015011011534+03000+131800FM-15+000099999V0200401N002619999999N999999999+02771+02401100871ADDMA1100851999999REMMET107MOBOB2 METAR XM24 //000 030318 101153Z AUTO 04005KT 28/24 A2978 RMK      A02 SLP087 T02770240 PA131 DA2021=
0134008418999992015011012534+03000+131800FM-15+000099999V0200401N002119999999N999999999+02791+02361100941ADDMA1100911999999REMMET107MOBOB2 METAR XM24 //000 030318 101253Z AUTO 04004KT 28/24 A2980 RMK      A02 SLP094 T02790236 PA112 DA2012=
0134008418999992015011013534+03000+131800FM-15+000099999V0200401N002619999999N999999999+02791+02381100871ADDMA1100851999999REMMET107MOBOB2 METAR XM24 //000 030318 101353Z AUTO 04005KT 28/24 A2978 RMK      A02 SLP087 T02790238 PA131 DA2040=
0134008418999992015011014534+03000+131800FM-15+000099999V0200301N001019999999N999999999+02781+02331100841ADDMA1100811999999REMMET107MOBOB2 METAR XM24 //000 030318 101453Z AUTO 03002KT 28/23 A2977 RMK      A02 SLP084 T02780233 PA140 DA2030=
0145008418999992015011016534+03000+131800FM-15+000099999V0200701N005119999999N999999999+02641+02361100731ADDMA1100711999999OC100771REMMET110MOBOB2 METAR XM24 //000 030318 101653Z AUTO 07010G15KT 26/24 A2974      RMK A02 SLP073 T02640236 PA168 DA1913=
0145008418999992015011017544+03000+131800FM-15+000099999V0200501N007219999999N999999999+02571+02331100701ADDMA1100681999999OC101081REMMET110MOBOB2 METAR XM24 //000 030318 101754Z AUTO 05014G21KT 26/23 A2973      RMK A02 SLP070 T02570233 PA177 DA1839=
0145008418999992015011018534+03000+131800FM-15+000099999V0200601N005719999999N999999999+02611+02311100671ADDMA1100641999999OC100881REMMET110MOBOB2 METAR XM24 //000 030318 101853Z AUTO 06011G17KT 26/23 A2972      RMK A02 SLP067 T02610231 PA187 DA1892=
0145008418999992015011019534+03000+131800FM-15+000099999V0200201N005719999999N999999999+02651+02331100731ADDMA1100711999999OC100821REMMET110MOBOB2 METAR XM24 //000 030318 101953Z AUTO 02011G16KT 27/23 A2974      RMK A02 SLP073 T02650233 PA168 DA1918=
0145008418999992015011020534+03000+131800FM-15+000099999V0200201N003619999999N999999999+02711+02391100771ADDMA1100741999999OC100671REMMET110MOBOB2 METAR XM24 //000 030318 102053Z AUTO 02007G13KT 27/24 A2975      RMK A02 SLP077 T02710239 PA159 DA1986=
0172008418999992015011021534+03000+131800FM-15+000099999V0200401N004619999999N999999999+02621+02381100801ADDAA101003531AW1611MA1100781999999OC100771REMMET120MOBOB2 METAR XM24 //000 030318 102153Z AUTO 04009G15KT -RA 26/24 A2976      RMK A02 SLP080 P0014 T02620238 PA149 DA1871=
0172008418999992015011022534+03000+131800FM-15+000099999V0200501N004619999999N999999999+02771+02311100841ADDAA101000021AW1611MA1100811999999OC100821REMMET120MOBOB2 METAR XM24 //000 030318 102253Z AUTO 05009G16KT -RA 28/23 A2977      RMK A02 SLP084 P0000 T02770231 PA140 DA2014=
0145008418999992015011023534+03000+131800FM-15+000099999V0200501N004119999999N999999999+02821+02381100871ADDMA1100851999999OC100671REMMET110MOBOB2 METAR XM24 //000 030318 102353Z AUTO 05008G13KT 28/24 A2978      RMK A02 SLP087 T02820238 PA131 DA2073=
0145008418999992015011100534+03000+131800FM-15+000099999V0200501N004619999999N999999999+02851+02381100801ADDMA1100781999999OC100721REMMET110MOBOB2 METAR XM24 //000 030318 110053Z AUTO 05009G14KT 29/24 A2976      RMK A02 SLP080 T02850238 PA149 DA2129=
0134008418999992015011101534+03000+131800FM-15+000099999V0200501N003619999999N999999999+02861+02371100801ADDMA1100781999999REMMET107MOBOB2 METAR XM24 //000 030318 110153Z AUTO 05007KT 29/24 A2976 RMK      A02 SLP080 T02860237 PA149 DA2139=
0134008418999992015011102534+03000+131800FM-15+000099999V0200401N002619999999N999999999+02911+02341100771ADDMA1100741999999REMMET107MOBOB2 METAR XM24 //000 030318 110253Z AUTO 04005KT 29/23 A2975 RMK      A02 SLP077 T02910234 PA159 DA2200=
0133008418999992015011103534+03000+131800FM-15+000099999V0200501N003119999999N999999999+02921+02311999999ADDMA1100681999999REMMET106MOBOB2 METAR XM24 //000 030318 110353Z AUTO 05006KT 29/23 A2973 RMK      A02 SLPNO T02920231 PA177 DA2227=
0134008418999992015011104544+03000+131800FM-15+000099999V0200601N002119999999N999999999+02921+02291100561ADDMA1100541999999REMMET107MOBOB2 METAR XM24 //000 030318 110454Z AUTO 06004KT 29/23 A2969 RMK      A02 SLP056 T02920229 PA214 DA2267=
0172008418999992015011105534+03000+131800FM-15+000099999V0200501N006219999999N999999999+02631+02351100561ADDAA101001531AW1631MA1100541999999OC101131REMMET120MOBOB2 METAR XM24 //000 030318 110553Z AUTO 05012G22KT +RA 26/24 A2969      RMK A02 SLP056 P0006 T02630235 PA214 DA1957=
0161008418999992015011106534+03000+131800FM-15+000099999V0203601N001519999999N999999999+02601+02261100601ADDAA101000021AW1611MA1100581999999REMMET117MOBOB2 METAR XM24 //000 030318 110653Z AUTO 36003KT -RA 26/23 A2970      RMK A02 SLP060 P0000 T02600226 PA205 DA1892=
0161008418999992015011107534+03000+131800FM-15+000099999V0200701N003619999999N999999999+02641+02341100671ADDAA101000021AW1611MA1100641999999REMMET117MOBOB2 METAR XM24 //000 030318 110753Z AUTO 07007KT -RA 26/23 A2972      RMK A02 SLP067 P0000 T02640234 PA187 DA1931=
0134008418999992015011108534+03000+131800FM-15+000099999V0203501N001019999999N999999999+02641+02291100701ADDMA1100681999999REMMET107MOBOB2 METAR XM24 //000 030318 110853Z AUTO 35002KT 26/23 A2973 RMK      A02 SLP070 T02640229 PA177 DA1909=
0134008418999992015011109534+03000+131800FM-15+000099999V0203301N001519999999N999999999+02681+02321100801ADDMA1100781999999REMMET107MOBOB2 METAR XM24 //000 030318 110953Z AUTO 33003KT 27/23 A2976 RMK      A02 SLP080 T02680232 PA149 DA1926=
0134008418999992015011110534+03000+131800FM-15+000099999V0202901N001519999999N999999999+02701+02341100901ADDMA1100881999999REMMET107MOBOB2 METAR XM24 //000 030318 111053Z AUTO 29003KT 27/23 A2979 RMK      A02 SLP090 T02700234 PA122 DA1918=
0134008418999992015011111534+03000+131800FM-15+000099999V0202801N002619999999N999999999+02731+02381100941ADDMA1100911999999REMMET107MOBOB2 METAR XM24 //000 030318 111153Z AUTO 28005KT 27/24 A2980 RMK      A02 SLP094 T02730238 PA112 DA1950=
0134008418999992015011112544+03000+131800FM-15+000099999V0202601N004119999999N999999999+02761+02401100971ADDMA1100951999999REMMET107MOBOB2 METAR XM24 //000 030318 111254Z AUTO 26008KT 28/24 A2981 RMK      A02 SLP097 T02760240 PA103 DA1976=
0134008418999992015011113534+03000+131800FM-15+000099999V0202601N004619999999N999999999+02711+02411100941ADDMA1100911999999REMMET107MOBOB2 METAR XM24 //000 030318 111353Z AUTO 26009KT 27/24 A2980 RMK      A02 SLP094 T02710241 PA112 DA1934=
0171008418999992015011114534+03000+131800FM-15+000099999V0202601N005119999999N999999999+02701+02381100871ADDAA101003831AW1621MA1100851999999OC100671REMMET119MOBOB2 METAR XM24 //000 030318 111453Z AUTO 26010G13KT RA 27/24 A2978      RMK A02 SLP087 P0015 T02700238 PA131 DA1940=
0171008418999992015011115534+03000+131800FM-15+000099999V0202501N007219999999N999999999+02681+02401100841ADDAA101000531AW1621MA1100811999999OC100881REMMET119MOBOB2 METAR XM24 //000 030318 111553Z AUTO 25014G17KT RA 27/24 A2977      RMK A02 SLP084 P0002 T02680240 PA140 DA1933=
0172008418999992015011116534+03000+131800FM-15+000099999V0202601N005119999999N999999999+02561+02331100771ADDAA101005831AW1631MA1100741999999OC100671REMMET120MOBOB2 METAR XM24 //000 030318 111653Z AUTO 26010G13KT +RA 26/23 A2975      RMK A02 SLP077 P0023 T02560233 PA159 DA1805=
0161008418999992015011117534+03000+131800FM-15+000099999V0203401N002619999999N999999999+02481+02291100771ADDAA101009631AW1631MA1100741999999REMMET117MOBOB2 METAR XM24 //000 030318 111753Z AUTO 34005KT +RA 25/23 A2975      RMK A02 SLP077 P0038 T02480229 PA159 DA1704=
0160008418999992015011118534+03000+131800FM-15+000099999V0203601N002119999999N999999999+02411+02241100801ADDAA101004831AW1621MA1100781999999REMMET116MOBOB2 METAR XM24 //000 030318 111853Z AUTO 36004KT RA 24/22 A2976      RMK A02 SLP080 P0019 T02410224 PA149 DA1604=
0160008418999992015011119534+03000+131800FM-15+000099999V0203501N002119999999N999999999+02461+02301100841ADDAA101005831AW1621MA1100811999999REMMET116MOBOB2 METAR XM24 //000 030318 111953Z AUTO 35004KT RA 25/23 A2977      RMK A02 SLP084 P0023 T02460230 PA140 DA1662=
0172008418999992015011120534+03000+131800FM-15+000099999V0203401N004119999999N999999999+02481+02271100841ADDAA101000731AW1611MA1100811999999OC100821REMMET120MOBOB2 METAR XM24 //000 030318 112053Z AUTO 34008G16KT -RA 25/23 A2977      RMK A02 SLP084 P0003 T02480227 PA140 DA1679=
0145008418999992015011121534+03000+131800FM-15+000099999V0203401N003619999999N999999999+02571+02341100901ADDMA1100881999999OC100821REMMET110MOBOB2 METAR XM24 //000 030318 112153Z AUTO 34007G16KT 26/23 A2979      RMK A02 SLP090 T02570234 PA122 DA1771=
0161008418999992015011122534+03000+131800FM-15+000099999V0203401N003619999999N999999999+02591+02311101001ADDAA101000021AW1611MA1100981999999REMMET117MOBOB2 METAR XM24 //000 030318 112253Z AUTO 34007KT -RA 26/23 A2982      RMK A02 SLP100 P0000 T02590231 PA094 DA1753=
0134008418999992015011123534+03000+131800FM-15+000099999V0203501N002619999999N999999999+02641+02301100971ADDMA1100951999999REMMET107MOBOB2 METAR XM24 //000 030318 112353Z AUTO 35005KT 26/23 A2981 RMK      A02 SLP097 T02640230 PA103 DA1819=
0134008418999992015011200534+03000+131800FM-15+000099999V0203401N003619999999N999999999+02751+02391100941ADDMA1100911999999REMMET107MOBOB2 METAR XM24 //000 030318 120053Z AUTO 34007KT 28/24 A2980 RMK      A02 SLP094 T02750239 PA112 DA1974=
0134008418999992015011201534+03000+131800FM-15+000099999V0203401N003119999999N999999999+02801+02411100871ADDMA1100851999999REMMET107MOBOB2 METAR XM24 //000 030318 120153Z AUTO 34006KT 28/24 A2978 RMK      A02 SLP087 T02800241 PA131 DA2059=
0134008418999992015011202534+03000+131800FM-15+000099999V0200101N002619999999N999999999+02791+02331100771ADDMA1100741999999REMMET107MOBOB2 METAR XM24 //000 030318 120253Z AUTO 01005KT 28/23 A2975 RMK      A02 SLP077 T02790233 PA159 DA2064=
0134008418999992015011204534+03000+131800FM-15+000099999V0200101N001519999999N999999999+02901+02301100631ADDMA1100611999999REMMET107MOBOB2 METAR XM24 //000 030318 120453Z AUTO 01003KT 29/23 A2971 RMK      A02 SLP063 T02900230 PA196 DA2225=
0134008418999992015011205534+03000+131800FM-15+000099999V0200101N001519999999N999999999+02881+02261100561ADDMA1100541999999REMMET107MOBOB2 METAR XM24 //000 030318 120553Z AUTO 01003KT 29/23 A2969 RMK      A02 SLP056 T02880226 PA214 DA2216=
0134008418999992015011206534+03000+131800FM-15+000099999V0202901N001019999999N999999999+02881+02281100631ADDMA1100611999999REMMET107MOBOB2 METAR XM24 //000 030318 120653Z AUTO 29002KT 29/23 A2971 RMK      A02 SLP063 T02880228 PA196 DA2198=
0134008418999992015011207534+03000+131800FM-15+000099999V0202801N002119999999N999999999+02821+02361100701ADDMA1100681999999REMMET107MOBOB2 METAR XM24 //000 030318 120753Z AUTO 28004KT 28/24 A2973 RMK      A02 SLP070 T02820236 PA177 DA2127=
0134008418999992015011208534+03000+131800FM-15+000099999V0202701N002619999999N999999999+02791+02311100771ADDMA1100741999999REMMET107MOBOB2 METAR XM24 //000 030318 120853Z AUTO 27005KT 28/23 A2975 RMK      A02 SLP077 T02790231 PA159 DA2058=
0134008418999992015011209534+03000+131800FM-15+000099999V0203001N002119999999N999999999+02791+02301100841ADDMA1100811999999REMMET107MOBOB2 METAR XM24 //000 030318 120953Z AUTO 30004KT 28/23 A2977 RMK      A02 SLP084 T02790230 PA140 DA2033=
0161008418999992015011210534+03000+131800FM-15+000099999V0200601N001519999999N999999999+02631+02321100941ADDAA101000021AW1611MA1100911999999REMMET117MOBOB2 METAR XM24 //000 030318 121053Z AUTO 06003KT -RA 26/23 A2980      RMK A02 SLP094 P0000 T02630232 PA112 DA1824=
0134008418999992015011211534+03000+131800FM-15+000099999V0203501N001019999999N999999999+02641+02221100971ADDMA1100951999999REMMET107MOBOB2 METAR XM24 //000 030318 121153Z AUTO 35002KT 26/22 A2981 RMK      A02 SLP097 T02640222 PA103 DA1804=
0134008418999992015011212534+03000+131800FM-15+000099999V0203001N002619999999N999999999+02761+02341100971ADDMA1100951999999REMMET107MOBOB2 METAR XM24 //000 030318 121253Z AUTO 30005KT 28/23 A2981 RMK      A02 SLP097 T02760234 PA103 DA1963=
0134008418999992015011213534+03000+131800FM-15+000099999V0203101N001519999999N999999999+02771+02411100941ADDMA1100911999999REMMET107MOBOB2 METAR XM24 //000 030318 121353Z AUTO 31003KT 28/24 A2980 RMK      A02 SLP094 T02770241 PA112 DA2000=
0134008418999992015011214534+03000+131800FM-15+000099999V0203201N002119999999N999999999+02771+02361100871ADDMA1100851999999REMMET107MOBOB2 METAR XM24 //000 030318 121453Z AUTO 32004KT 28/24 A2978 RMK      A02 SLP087 T02770236 PA131 DA2014=
0133008418999992015011215534+03000+131800FM-15+000099999V0203301N002119999999N999999999+02771+02411999999ADDMA1100811999999REMMET106MOBOB2 METAR XM24 //000 030318 121553Z AUTO 33004KT 28/24 A2977 RMK      A02 SLPNO T02770241 PA140 DA2035=
0134008418999992015011216534+03000+131800FM-15+000099999V0203301N002119999999N999999999+02741+02411100771ADDMA1100741999999REMMET107MOBOB2 METAR XM24 //000 030318 121653Z AUTO 33004KT 27/24 A2975 RMK      A02 SLP077 T02740241 PA159 DA2025=
0161008418999992015011217534+03000+131800FM-15+000099999V0202801N003119999999N999999999+02601+02371100731ADDAA101001531AW1611MA1100711999999REMMET117MOBOB2 METAR XM24 //000 030318 121753Z AUTO 28006KT -RA 26/24 A2974      RMK A02 SLP073 P0006 T02600237 PA168 DA1869=
0161008418999992015011218534+03000+131800FM-15+000099999V0200101N002619999999N999999999+02651+02381100771ADDAA101000021AW1611MA1100741999999REMMET117MOBOB2 METAR XM24 //000 030318 121853Z AUTO 01005KT -RA 27/24 A2975      RMK A02 SLP077 P0000 T02650238 PA159 DA1917=
0134008418999992015011219534+03000+131800FM-15+000099999V0203501N002619999999N999999999+02611+02351100801ADDMA1100781999999REMMET107MOBOB2 METAR XM24 //000 030318 121953Z AUTO 35005KT 26/24 A2976 RMK      A02 SLP080 T02610235 PA149 DA1855=
0134008418999992015011220534+03000+131800FM-15+000099999V0200101N002619999999N999999999+02611+02261100841ADDMA1100811999999REMMET107MOBOB2 METAR XM24 //000 030318 122053Z AUTO 01005KT 26/23 A2977 RMK      A02 SLP084 T02610226 PA140 DA1823=
0134008418999992015011221534+03000+131800FM-15+000099999V0203501N001519999999N999999999+02631+02271100901ADDMA1100881999999REMMET107MOBOB2 METAR XM24 //000 030318 122153Z AUTO 35003KT 26/23 A2979 RMK      A02 SLP090 T02630227 PA122 DA1824=
0134008418999992015011222534+03000+131800FM-15+000099999V0203401N002619999999N999999999+02791+02301101001ADDMA1100981999999REMMET107MOBOB2 METAR XM24 //000 030318 122253Z AUTO 34005KT 28/23 A2982 RMK      A02 SLP100 T02790230 PA094 DA1977=
0134008418999992015011223534+03000+131800FM-15+000099999V0203401N003119999999N999999999+02861+02391101001ADDMA1100981999999REMMET107MOBOB2 METAR XM24 //000 030318 122353Z AUTO 34006KT 29/24 A2982 RMK      A02 SLP100 T02860239 PA094 DA2075=
0134008418999992015011300534+03000+131800FM-15+000099999V0203301N002619999999N999999999+02931+02421101001ADDMA1100981999999REMMET107MOBOB2 METAR XM24 //000 030318 130053Z AUTO 33005KT 29/24 A2982 RMK      A02 SLP100 T02930242 PA094 DA2159=
0161008418999992015011301534+03000+131800FM-15+000099999V0203401N003619999999N999999999+02881+02451100971ADDAA101000231AW1611MA1100951999999REMMET117MOBOB2 METAR XM24 //000 030318 130153Z AUTO 34007KT -RA 29/25 A2981      RMK A02 SLP097 P0001 T02880245 PA103 DA2123=
0172008418999992015011302534+03000+131800FM-15+000099999V0203501N003619999999N999999999+02731+02411100941ADDAA101000021AW1611MA1100911999999OC100671REMMET120MOBOB2 METAR XM24 //000 030318 130253Z AUTO 35007G13KT -RA 27/24 A2980      RMK A02 SLP094 P0000 T02730241 PA112 DA1956=
0161008418999992015011303534+03000+131800FM-15+000099999V0200101N003119999999N999999999+02601+02361100871ADDAA101000231AW1611MA1100851999999REMMET117MOBOB2 METAR XM24 //000 030318 130353Z AUTO 01006KT -RA 26/24 A2978      RMK A02 SLP087 P0001 T02600236 PA131 DA1821=
0161008418999992015011304534+03000+131800FM-15+000099999V0200801N001019999999N999999999+02651+02271100731ADDAA101000021AW1611MA1100711999999REMMET117MOBOB2 METAR XM24 //000 030318 130453Z AUTO 08002KT -RA 27/23 A2974      RMK A02 SLP073 P0000 T02650227 PA168 DA1905=
0161008418999992015011305534+03000+131800FM-15+000099999V0202901N001019999999N999999999+02801+02371100701ADDAA101000021AW1611MA1100681999999REMMET117MOBOB2 METAR XM24 //000 030318 130553Z AUTO 29002KT -RA 28/24 A2973      RMK A02 SLP070 P0000 T02800237 PA177 DA2106=
0134008418999992015011306534+03000+131800FM-15+000099999V0200301N000519999999N999999999+02751+02371100701ADDMA1100681999999REMMET107MOBOB2 METAR XM24 //000 030318 130653Z AUTO 03001KT 28/24 A2973 RMK      A02 SLP070 T02750237 PA177 DA2049=
0134008418999992015011307534+03000+131800FM-15+000099999V0203501N001019999999N999999999+02801+02421100701ADDMA1100681999999REMMET107MOBOB2 METAR XM24 //000 030318 130753Z AUTO 35002KT 28/24 A2973 RMK      A02 SLP070 T02800242 PA177 DA2117=
0134008418999992015011308534+03000+131800FM-15+000099999V0200201N002619999999N999999999+02781+02381100771ADDMA1100741999999REMMET107MOBOB2 METAR XM24 //000 030318 130853Z AUTO 02005KT 28/24 A2975 RMK      A02 SLP077 T02780238 PA159 DA2063=
0134008418999992015011309534+03000+131800FM-15+000099999V0203601N002119999999N999999999+02741+02311100871ADDMA1100851999999REMMET107MOBOB2 METAR XM24 //000 030318 130953Z AUTO 36004KT 27/23 A2978 RMK      A02 SLP087 T02740231 PA131 DA1968=
0134008418999992015011310534+03000+131800FM-15+000099999V0203501N002119999999N999999999+02741+02301100901ADDMA1100881999999REMMET107MOBOB2 METAR XM24 //000 030318 131053Z AUTO 35004KT 27/23 A2979 RMK      A02 SLP090 T02740230 PA122 DA1956=
0134008418999992015011311534+03000+131800FM-15+000099999V0203401N002119999999N999999999+02741+02291101001ADDMA1100981999999REMMET107MOBOB2 METAR XM24 //000 030318 131153Z AUTO 34004KT 27/23 A2982 RMK      A02 SLP100 T02740229 PA094 DA1919=
0134008418999992015011312534+03000+131800FM-15+000099999V0203401N002619999999N999999999+02771+02341101041ADDMA1101021999999REMMET107MOBOB2 METAR XM24 //000 030318 131253Z AUTO 34005KT 28/23 A2983 RMK      A02 SLP104 T02770234 PA084 DA1950=
0134008418999992015011313534+03000+131800FM-15+000099999V0203301N002119999999N999999999+02761+02351101041ADDMA1101021999999REMMET107MOBOB2 METAR XM24 //000 030318 131353Z AUTO 33004KT 28/23 A2983 RMK      A02 SLP104 T02760235 PA084 DA1941=
0134008418999992015011314534+03000+131800FM-15+000099999V0203401N002619999999N999999999+02771+02331101001ADDMA1100981999999REMMET107MOBOB2 METAR XM24 //000 030318 131453Z AUTO 34005KT 28/23 A2982 RMK      A02 SLP100 T02770233 PA094 DA1960=
0134008418999992015011316534+03000+131800FM-15+000099999V0203401N002619999999N999999999+02751+02321100801ADDMA1100781999999REMMET107MOBOB2 METAR XM24 //000 030318 131653Z AUTO 34005KT 28/23 A2976 RMK      A02 SLP080 T02750232 PA149 DA2005=
0134008418999992015011317534+03000+131800FM-15+000099999V0203401N002119999999N999999999+02731+02321100771ADDMA1100741999999REMMET107MOBOB2 METAR XM24 //000 030318 131753Z AUTO 34004KT 27/23 A2975 RMK      A02 SLP077 T02730232 PA159 DA1994=
0134008418999992015011318534+03000+131800FM-15+000099999V0203401N001519999999N999999999+02711+02321100771ADDMA1100741999999REMMET107MOBOB2 METAR XM24 //000 030318 131853Z AUTO 34003KT 27/23 A2975 RMK      A02 SLP077 T02710232 PA159 DA1972=
0134008418999992015011319534+03000+131800FM-15+000099999V0203301N001519999999N999999999+02731+02361100801ADDMA1100781999999REMMET107MOBOB2 METAR XM24 //000 030318 131953Z AUTO 33003KT 27/24 A2976 RMK      A02 SLP080 T02730236 PA149 DA1992=
0134008418999992015011320534+03000+131800FM-15+000099999V0203301N001519999999N999999999+02721+02341100801ADDMA1100781999999REMMET107MOBOB2 METAR XM24 //000 030318 132053Z AUTO 33003KT 27/23 A2976 RMK      A02 SLP080 T02720234 PA149 DA1976=
0134008418999992015011321534+03000+131800FM-15+000099999V0203401N002619999999N999999999+02731+02331100901ADDMA1100881999999REMMET107MOBOB2 METAR XM24 //000 030318 132153Z AUTO 34005KT 27/23 A2979 RMK      A02 SLP090 T02730233 PA122 DA1950=
0134008418999992015011322534+03000+131800FM-15+000099999V0203301N002119999999N999999999+02841+02381100971ADDMA1100951999999REMMET107MOBOB2 METAR XM24 //000 030318 132253Z AUTO 33004KT 28/24 A2981 RMK      A02 SLP097 T02840238 PA103 DA2062=
0134008418999992015011323534+03000+131800FM-15+000099999V0203301N002119999999N999999999+02881+02341101041ADDMA1101021999999REMMET107MOBOB2 METAR XM24 //000 030318 132353Z AUTO 33004KT 29/23 A2983 RMK      A02 SLP104 T02880234 PA084 DA2075=
0134008418999992015011400534+03000+131800FM-15+000099999V0203301N002119999999N999999999+02941+02391101041ADDMA1101021999999REMMET107MOBOB2 METAR XM24 //000 030318 140053Z AUTO 33004KT 29/24 A2983 RMK      A02 SLP104 T02940239 PA084 DA2152=
0134008418999992015011401534+03000+131800FM-15+000099999V0203301N002119999999N999999999+03001+02421101001ADDMA1100981999999REMMET107MOBOB2 METAR XM24 //000 030318 140153Z AUTO 33004KT 30/24 A2982 RMK      A02 SLP100 T03000242 PA094 DA2237=
0134008418999992015011402534+03000+131800FM-15+000099999V0203201N002619999999N999999999+03001+02401100941ADDMA1100911999999REMMET107MOBOB2 METAR XM24 //000 030318 140253Z AUTO 32005KT 30/24 A2980 RMK      A02 SLP094 T03000240 PA112 DA2255=
0133008418999992015011403544+03000+131800FM-15+000099999V0203301N002119999999N999999999+03021+02371999999ADDMA1100811999999REMMET106MOBOB2 METAR XM24 //000 030318 140354Z AUTO 33004KT 30/24 A2977 RMK      A02 SLPNO T03020237 PA140 DA2306=
0134008418999992015011404534+03000+131800FM-15+000099999V0203201N002619999999N999999999+02991+02341100731ADDMA1100711999999REMMET107MOBOB2 METAR XM24 //000 030318 140453Z AUTO 32005KT 30/23 A2974 RMK      A02 SLP073 T02990234 PA168 DA2299=
0134008418999992015011405544+03000+131800FM-15+000099999V0203101N002619999999N999999999+02991+02371100701ADDMA1100681999999REMMET107MOBOB2 METAR XM24 //000 030318 140554Z AUTO 31005KT 30/24 A2973 RMK      A02 SLP070 T02990237 PA177 DA2318=
0134008418999992015011406534+03000+131800FM-15+000099999V0203301N003119999999N999999999+02921+02371100701ADDMA1100681999999REMMET107MOBOB2 METAR XM24 //000 030318 140653Z AUTO 33006KT 29/24 A2973 RMK      A02 SLP070 T02920237 PA177 DA2240=
0134008418999992015011407534+03000+131800FM-15+000099999V0203301N002619999999N999999999+02921+02381100701ADDMA1100681999999REMMET107MOBOB2 METAR XM24 //000 030318 140753Z AUTO 33005KT 29/24 A2973 RMK      A02 SLP070 T02920238 PA177 DA2242=
0134008418999992015011408534+03000+131800FM-15+000099999V0203301N002619999999N999999999+02851+02341100701ADDMA1100681999999REMMET107MOBOB2 METAR XM24 //000 030318 140853Z AUTO 33005KT 29/23 A2973 RMK      A02 SLP070 T02850234 PA177 DA2155=
0134008418999992015011409534+03000+131800FM-15+000099999V0203301N002119999999N999999999+02781+02301100771ADDMA1100741999999REMMET107MOBOB2 METAR XM24 //000 030318 140953Z AUTO 33004KT 28/23 A2975 RMK      A02 SLP077 T02780230 PA159 DA2045=
0134008418999992015011410534+03000+131800FM-15+000099999V0203201N001519999999N999999999+02791+02341100871ADDMA1100851999999REMMET107MOBOB2 METAR XM24 //000 030318 141053Z AUTO 32003KT 28/23 A2978 RMK      A02 SLP087 T02790234 PA131 DA2031=
0161008418999992015011411534+03000+131800FM-15+000099999V0202701N001019999999N999999999+02691+02411100971ADDAA101001531AW1611MA1100951999999REMMET117MOBOB2 METAR XM24 //000 030318 141153Z AUTO 27002KT -RA 27/24 A2981      RMK A02 SLP097 P0006 T02690241 PA103 DA1900=
0134008418999992015011412534+03000+131800FM-15+000099999V0203301N001519999999N999999999+02751+02381100941ADDMA1100911999999REMMET107MOBOB2 METAR XM24 //000 030318 141253Z AUTO 33003KT 28/24 A2980 RMK      A02 SLP094 T02750238 PA112 DA1971=
0134008418999992015011413534+03000+131800FM-15+000099999V0203501N001019999999N999999999+02651+02281100941ADDMA1100911999999REMMET107MOBOB2 METAR XM24 //000 030318 141353Z AUTO 35002KT 27/23 A2980 RMK      A02 SLP094 T02650228 PA112 DA1838=
0134008418999992015011414534+03000+131800FM-15+000099999V0203101N002119999999N999999999+02791+02371100941ADDMA1100911999999REMMET107MOBOB2 METAR XM24 //000 030318 141453Z AUTO 31004KT 28/24 A2980 RMK      A02 SLP094 T02790237 PA112 DA2016=
0134008418999992015011415534+03000+131800FM-15+000099999V0203301N002119999999N999999999+02781+02371100871ADDMA1100851999999REMMET107MOBOB2 METAR XM24 //000 030318 141553Z AUTO 33004KT 28/24 A2978 RMK      A02 SLP087 T02780237 PA131 DA2026=
0134008418999992015011416534+03000+131800FM-15+000099999V0203301N002119999999N999999999+02781+02381100801ADDMA1100781999999REMMET107MOBOB2 METAR XM24 //000 030318 141653Z AUTO 33004KT 28/24 A2976 RMK      A02 SLP080 T02780238 PA149 DA2051=
0134008418999992015011417534+03000+131800FM-15+000099999V0203201N002119999999N999999999+02771+02381100731ADDMA1100711999999REMMET107MOBOB2 METAR XM24 //000 030318 141753Z AUTO 32004KT 28/24 A2974 RMK      A02 SLP073 T02770238 PA168 DA2062=
0134008418999992015011418534+03000+131800FM-15+000099999V0203101N002619999999N999999999+02801+02421100731ADDMA1100711999999REMMET107MOBOB2 METAR XM24 //000 030318 141853Z AUTO 31005KT 28/24 A2974 RMK      A02 SLP073 T02800242 PA168 DA2105=
0134008418999992015011419534+03000+131800FM-15+000099999V0202901N003119999999N999999999+02811+02351100731ADDMA1100711999999REMMET107MOBOB2 METAR XM24 //000 030318 141953Z AUTO 29006KT 28/23 A2974 RMK      A02 SLP073 T02810235 PA168 DA2100=
0134008418999992015011420534+03000+131800FM-15+000099999V0202901N003119999999N999999999+02811+02371100801ADDMA1100781999999REMMET107MOBOB2 METAR XM24 //000 030318 142053Z AUTO 29006KT 28/24 A2976 RMK      A02 SLP080 T02810237 PA149 DA2082=
0134008418999992015011421534+03000+131800FM-15+000099999V0202901N003119999999N999999999+02821+02361100871ADDMA1100851999999REMMET107MOBOB2 METAR XM24 //000 030318 142153Z AUTO 29006KT 28/24 A2978 RMK      A02 SLP087 T02820236 PA131 DA2070=
0134008418999992015011422534+03000+131800FM-15+000099999V0203101N003119999999N999999999+02861+02411100941ADDMA1100911999999REMMET107MOBOB2 METAR XM24 //000 030318 142253Z AUTO 31006KT 29/24 A2980 RMK      A02 SLP094 T02860241 PA112 DA2103=
0134008418999992015011423534+03000+131800FM-15+000099999V0202801N003119999999N999999999+02901+02381100971ADDMA1100951999999REMMET107MOBOB2 METAR XM24 //000 030318 142353Z AUTO 28006KT 29/24 A2981 RMK      A02 SLP097 T02900238 PA103 DA2128=
0145008418999992015011500534+03000+131800FM-15+000099999V0202701N004119999999N999999999+02911+02401100941ADDMA1100911999999OC100621REMMET110MOBOB2 METAR XM24 //000 030318 150053Z AUTO 27008G12KT 29/24 A2980      RMK A02 SLP094 T02910240 PA112 DA2155=
0145008418999992015011501534+03000+131800FM-15+000099999V0202701N004619999999N999999999+02941+02421100871ADDMA1100851999999OC100671REMMET110MOBOB2 METAR XM24 //000 030318 150153Z AUTO 27009G13KT 29/24 A2978      RMK A02 SLP087 T02940242 PA131 DA2216=
0134008418999992015011502534+03000+131800FM-15+000099999V0202901N002619999999N999999999+02991+02391100841ADDMA1100811999999REMMET107MOBOB2 METAR XM24 //000 030318 150253Z AUTO 29005KT 30/24 A2977 RMK      A02 SLP084 T02990239 PA140 DA2276=
0161008418999992015011504534+03000+131800FM-15+000099999V0202601N003619999999N999999999+02861+02391100701ADDAA101001531AW1611MA1100681999999REMMET117MOBOB2 METAR XM24 //000 030318 150453Z AUTO 26007KT -RA 29/24 A2973      RMK A02 SLP070 P0006 T02860239 PA177 DA2177=
0145008418999992015011505534+03000+131800FM-15+000099999V0202901N003619999999N999999999+02951+02441100631ADDMA1100611999999OC100671REMMET110MOBOB2 METAR XM24 //000 030318 150553Z AUTO 29007G13KT 30/24 A2971      RMK A02 SLP063 T02950244 PA196 DA2312=
0145008418999992015011506534+03000+131800FM-15+000099999V0203001N003619999999N999999999+02941+02451100631ADDMA1100611999999OC100721REMMET110MOBOB2 METAR XM24 //000 030318 150653Z AUTO 30007G14KT 29/24 A2971      RMK A02 SLP063 T02940245 PA196 DA2302=
0145008418999992015011507534+03000+131800FM-15+000099999V0203101N003619999999N999999999+02921+02391100631ADDMA1100611999999OC100721REMMET110MOBOB2 METAR XM24 //000 030318 150753Z AUTO 31007G14KT 29/24 A2971      RMK A02 SLP063 T02920239 PA196 DA2267=
0145008418999992015011508534+03000+131800FM-15+000099999V0203101N004119999999N999999999+02881+02401100671ADDMA1100641999999OC100721REMMET110MOBOB2 METAR XM24 //000 030318 150853Z AUTO 31008G14KT 29/24 A2972      RMK A02 SLP067 T02880240 PA187 DA2213=
0145008418999992015011509534+03000+131800FM-15+000099999V0203001N004119999999N999999999+02861+02391100731ADDMA1100711999999OC100671REMMET110MOBOB2 METAR XM24 //000 030318 150953Z AUTO 30008G13KT 29/24 A2974      RMK A02 SLP073 T02860239 PA168 DA2166=
0145008418999992015011510534+03000+131800FM-15+000099999V0203101N004119999999N999999999+02851+02361100801ADDMA1100781999999OC100721REMMET110MOBOB2 METAR XM24 //000 030318 151053Z AUTO 31008G14KT 29/24 A2976      RMK A02 SLP080 T02850236 PA149 DA2125=
0134008418999992015011511534+03000+131800FM-15+000099999V0203001N003619999999N999999999+02851+02351100901ADDMA1100881999999REMMET107MOBOB2 METAR XM24 //000 030318 151153Z AUTO 30007KT 29/24 A2979 RMK      A02 SLP090 T02850235 PA122 DA2090=
0134008418999992015011512534+03000+131800FM-15+000099999V0203101N004119999999N999999999+02851+02341100901ADDMA1100881999999REMMET107MOBOB2 METAR XM24 //000 030318 151253Z AUTO 31008KT 29/23 A2979 RMK      A02 SLP090 T02850234 PA122 DA2086=
0134008418999992015011513534+03000+131800FM-15+000099999V0203101N003619999999N999999999+02831+02331100901ADDMA1100881999999REMMET107MOBOB2 METAR XM24 //000 030318 151353Z AUTO 31007KT 28/23 A2979 RMK      A02 SLP090 T02830233 PA122 DA2063=
0145008418999992015011514534+03000+131800FM-15+000099999V0203201N003619999999N999999999+02761+02301100901ADDMA1100881999999OC100771REMMET110MOBOB2 METAR XM24 //000 030318 151453Z AUTO 32007G15KT 28/23 A2979      RMK A02 SLP090 T02760230 PA122 DA1978=
0144008418999992015011515534+03000+131800FM-15+000099999V0203201N003619999999N999999999+02811+02401999999ADDMA1100811999999OC100671REMMET109MOBOB2 METAR XM24 //000 030318 151553Z AUTO 32007G13KT 28/24 A2977      RMK A02 SLPNO T02810240 PA140 DA2077=
0134008418999992015011516534+03000+131800FM-15+000099999V0203301N003119999999N999999999+02821+02381100771ADDMA1100741999999REMMET107MOBOB2 METAR XM24 //000 030318 151653Z AUTO 33006KT 28/24 A2975 RMK      A02 SLP077 T02820238 PA159 DA2107=
0145008418999992015011517534+03000+131800FM-15+000099999V0203201N003619999999N999999999+02831+02371100701ADDMA1100681999999OC100821REMMET110MOBOB2 METAR XM24 //000 030318 151753Z AUTO 32007G16KT 28/24 A2973      RMK A02 SLP070 T02830237 PA177 DA2140=
0134008418999992015011518534+03000+131800FM-15+000099999V0203301N003119999999N999999999+02821+02361100701ADDMA1100681999999REMMET107MOBOB2 METAR XM24 //000 030318 151853Z AUTO 33006KT 28/24 A2973 RMK      A02 SLP070 T02820236 PA177 DA2127=
0134008418999992015011519534+03000+131800FM-15+000099999V0203301N003119999999N999999999+02811+02351100731ADDMA1100711999999REMMET107MOBOB2 METAR XM24 //000 030318 151953Z AUTO 33006KT 28/24 A2974 RMK      A02 SLP073 T02810235 PA168 DA2102=
0134008418999992015011520534+03000+131800FM-15+000099999V0203201N002619999999N999999999+02801+02361100801ADDMA1100781999999REMMET107MOBOB2 METAR XM24 //000 030318 152053Z AUTO 32005KT 28/24 A2976 RMK      A02 SLP080 T02800236 PA149 DA2069=
0134008418999992015011521534+03000+131800FM-15+000099999V0203001N003619999999N999999999+02821+02311100871ADDMA1100851999999REMMET107MOBOB2 METAR XM24 //000 030318 152153Z AUTO 30007KT 28/23 A2978 RMK      A02 SLP087 T02820231 PA131 DA2059=
0145008418999992015011522534+03000+131800FM-15+000099999V0203101N004119999999N999999999+02871+02361100941ADDMA1100911999999OC100821REMMET110MOBOB2 METAR XM24 //000 030318 152253Z AUTO 31008G16KT 29/24 A2980      RMK A02 SLP094 T02870236 PA112 DA2102=
0145008418999992015011523534+03000+131800FM-15+000099999V0203101N005719999999N999999999+02911+02321100941ADDMA1100911999999OC100821REMMET110MOBOB2 METAR XM24 //000 030318 152353Z AUTO 31011G16KT 29/23 A2980      RMK A02 SLP094 T02910232 PA112 DA2138=
0145008418999992015011600534+03000+131800FM-15+000099999V0203101N004619999999N999999999+02941+02321100941ADDMA1100911999999OC100771REMMET110MOBOB2 METAR XM24 //000 030318 160053Z AUTO 31009G15KT 29/23 A2980      RMK A02 SLP094 T02940232 PA112 DA2170=
0134008418999992015011601534+03000+131800FM-15+000099999V0202901N003619999999N999999999+02971+02331100901ADDMA1100881999999REMMET107MOBOB2 METAR XM24 //000 030318 160153Z AUTO 29007KT 30/23 A2979 RMK      A02 SLP090 T02970233 PA122 DA2218=
0134008418999992015011602534+03000+131800FM-15+000099999V0203001N003619999999N999999999+02981+02321100871ADDMA1100851999999REMMET107MOBOB2 METAR XM24 //000 030318 160253Z AUTO 30007KT 30/23 A2978 RMK      A02 SLP087 T02980232 PA131 DA2237=
0134008418999992015011603534+03000+131800FM-15+000099999V0202801N003619999999N999999999+02991+02311100801ADDMA1100781999999REMMET107MOBOB2 METAR XM24 //000 030318 160353Z AUTO 28007KT 30/23 A2976 RMK      A02 SLP080 T02990231 PA149 DA2270=
0145008418999992015011604544+03000+131800FM-15+000099999V0202701N004619999999N999999999+02971+02331100731ADDMA1100711999999OC100671REMMET110MOBOB2 METAR XM24 //000 030318 160454Z AUTO 27009G13KT 30/23 A2974      RMK A02 SLP073 T02970233 PA168 DA2276=
0134008418999992015011605544+03000+131800FM-15+000099999V0202801N003619999999N999999999+02961+02321100701ADDMA1100681999999REMMET107MOBOB2 METAR XM24 //000 030318 160554Z AUTO 28007KT 30/23 A2973 RMK      A02 SLP070 T02960232 PA177 DA2273=
0134008418999992015011606534+03000+131800FM-15+000099999V0202701N003119999999N999999999+02951+02341100631ADDMA1100611999999REMMET107MOBOB2 METAR XM24 //000 030318 160653Z AUTO 27006KT 30/23 A2971 RMK      A02 SLP063 T02950234 PA196 DA2290=
0134008418999992015011607534+03000+131800FM-15+000099999V0202701N004119999999N999999999+02921+02391100671ADDMA1100641999999REMMET107MOBOB2 METAR XM24 //000 030318 160753Z AUTO 27008KT 29/24 A2972 RMK      A02 SLP067 T02920239 PA187 DA2256=
0134008418999992015011608534+03000+131800FM-15+000099999V0202701N003619999999N999999999+02901+02421100731ADDMA1100711999999REMMET107MOBOB2 METAR XM24 //000 030318 160853Z AUTO 27007KT 29/24 A2974 RMK      A02 SLP073 T02900242 PA168 DA2217=
0161008418999992015011609534+03000+131800FM-15+000099999V0202901N002119999999N999999999+02751+02441100801ADDAA101002531AW1611MA1100781999999REMMET117MOBOB2 METAR XM24 //000 030318 160953Z AUTO 29004KT -RA 28/24 A2976      RMK A02 SLP080 P0010 T02750244 PA149 DA2032=
0145008418999992015011610534+03000+131800FM-15+000099999V0202701N004619999999N999999999+02871+02431100801ADDMA1100781999999OC100671REMMET110MOBOB2 METAR XM24 //000 030318 161053Z AUTO 27009G13KT 29/24 A2976      RMK A02 SLP080 T02870243 PA149 DA2163=
0134008418999992015011611534+03000+131800FM-15+000099999V0202701N004619999999N999999999+02851+02401100871ADDMA1100851999999REMMET107MOBOB2 METAR XM24 //000 030318 161153Z AUTO 27009KT 29/24 A2978 RMK      A02 SLP087 T02850240 PA131 DA2112=
0134008418999992015011612534+03000+131800FM-15+000099999V0202701N003619999999N999999999+02831+02391100901ADDMA1100881999999REMMET107MOBOB2 METAR XM24 //000 030318 161253Z AUTO 27007KT 28/24 A2979 RMK      A02 SLP090 T02830239 PA122 DA2075=
0134008418999992015011613534+03000+131800FM-15+000099999V0202701N004119999999N999999999+02831+02411100901ADDMA1100881999999REMMET107MOBOB2 METAR XM24 //000 030318 161353Z AUTO 27008KT 28/24 A2979 RMK      A02 SLP090 T02830241 PA122 DA2081=
0134008418999992015011614534+03000+131800FM-15+000099999V0202701N004119999999N999999999+02841+02361100901ADDMA1100881999999REMMET107MOBOB2 METAR XM24 //000 030318 161453Z AUTO 27008KT 28/24 A2979 RMK      A02 SLP090 T02840236 PA122 DA2080=
0134008418999992015011615534+03000+131800FM-15+000099999V0202601N004119999999N999999999+02831+02391100871ADDMA1100851999999REMMET107MOBOB2 METAR XM24 //000 030318 161553Z AUTO 26008KT 28/24 A2978 RMK      A02 SLP087 T02830239 PA131 DA2088=
0134008418999992015011616534+03000+131800FM-15+000099999V0202601N004119999999N999999999+02841+02411100841ADDMA1100811999999REMMET107MOBOB2 METAR XM24 //000 030318 161653Z AUTO 26008KT 28/24 A2977 RMK      A02 SLP084 T02840241 PA140 DA2114=
0134008418999992015011617534+03000+131800FM-15+000099999V0202601N003119999999N999999999+02831+02411100801ADDMA1100781999999REMMET107MOBOB2 METAR XM24 //000 030318 161753Z AUTO 26006KT 28/24 A2976 RMK      A02 SLP080 T02830241 PA149 DA2114=
0134008418999992015011618534+03000+131800FM-15+000099999V0202501N003619999999N999999999+02831+02381100771ADDMA1100741999999REMMET107MOBOB2 METAR XM24 //000 030318 161853Z AUTO 25007KT 28/24 A2975 RMK      A02 SLP077 T02830238 PA159 DA2120=
0134008418999992015011619534+03000+131800FM-15+000099999V0202601N003619999999N999999999+02851+02441100841ADDMA1100811999999REMMET107MOBOB2 METAR XM24 //000 030318 161953Z AUTO 26007KT 29/24 A2977 RMK      A02 SLP084 T02850244 PA140 DA2133=
0172008418999992015011620534+03000+131800FM-15+000099999V0202301N004119999999N999999999+02691+02351100871ADDAA101004531AW1611MA1100851999999OC100621REMMET120MOBOB2 METAR XM24 //000 030318 162053Z AUTO 23008G12KT -RA 27/23 A2978      RMK A02 SLP087 P0018 T02690235 PA131 DA1921=
0134008418999992015011621534+03000+131800FM-15+000099999V0202301N003619999999N999999999+02791+02431100941ADDMA1100911999999REMMET107MOBOB2 METAR XM24 //000 030318 162153Z AUTO 23007KT 28/24 A2980 RMK      A02 SLP094 T02790243 PA112 DA2028=
0134008418999992015011622534+03000+131800FM-15+000099999V0202501N003619999999N999999999+02851+02371101001ADDMA1100981999999REMMET107MOBOB2 METAR XM24 //000 030318 162253Z AUTO 25007KT 29/24 A2982 RMK      A02 SLP100 T02850237 PA094 DA2059=
0134008418999992015011623534+03000+131800FM-15+000099999V0202501N002619999999N999999999+02931+02321101071ADDMA1101051999999REMMET107MOBOB2 METAR XM24 //000 030318 162353Z AUTO 25005KT 29/23 A2984 RMK      A02 SLP107 T02930232 PA075 DA2115=
0134008418999992015011700534+03000+131800FM-15+000099999V0201901N001519999999N999999999+03031+02431101041ADDMA1101021999999REMMET107MOBOB2 METAR XM24 //000 030318 170053Z AUTO 19003KT 30/24 A2983 RMK      A02 SLP104 T03030243 PA084 DA2261=
0134008418999992015011701534+03000+131800FM-15+000099999V0201901N002619999999N999999999+02991+02391101041ADDMA1101021999999REMMET107MOBOB2 METAR XM24 //000 030318 170153Z AUTO 19005KT 30/24 A2983 RMK      A02 SLP104 T02990239 PA084 DA2209=
0134008418999992015011702534+03000+131800FM-15+000099999V0201901N002619999999N999999999+03001+02471100971ADDMA1100951999999REMMET107MOBOB2 METAR XM24 //000 030318 170253Z AUTO 19005KT 30/25 A2981 RMK      A02 SLP097 T03000247 PA103 DA2260=
0134008418999992015011703534+03000+131800FM-15+000099999V0201901N003619999999N999999999+03021+02351100871ADDMA1100851999999REMMET107MOBOB2 METAR XM24 //000 030318 170353Z AUTO 19007KT 30/24 A2978 RMK      A02 SLP087 T03020235 PA131 DA2290=
0134008418999992015011704534+03000+131800FM-15+000099999V0202101N002619999999N999999999+03021+02351100841ADDMA1100811999999REMMET107MOBOB2 METAR XM24 //000 030318 170453Z AUTO 21005KT 30/24 A2977 RMK      A02 SLP084 T03020235 PA140 DA2301=
0134008418999992015011705534+03000+131800FM-15+000099999V0202101N001519999999N999999999+03051+02281100731ADDMA1100711999999REMMET107MOBOB2 METAR XM24 //000 030318 170553Z AUTO 21003KT 31/23 A2974 RMK      A02 SLP073 T03050228 PA168 DA2352=
0134008418999992015011706534+03000+131800FM-15+000099999V0201701N001019999999N999999999+03071+02341100771ADDMA1100741999999REMMET107MOBOB2 METAR XM24 //000 030318 170653Z AUTO 17002KT 31/23 A2975 RMK      A02 SLP077 T03070234 PA159 DA2376=
0134008418999992015011707534+03000+131800FM-15+000099999V0201801N001019999999N999999999+03031+02341100801ADDMA1100781999999REMMET107MOBOB2 METAR XM24 //000 030318 170753Z AUTO 18002KT 30/23 A2976 RMK      A02 SLP080 T03030234 PA149 DA2321=
0134008418999992015011708534+03000+131800FM-15+000099999V0201201N001019999999N999999999+02961+02381100901ADDMA1100881999999REMMET107MOBOB2 METAR XM24 //000 030318 170853Z AUTO 12002KT 30/24 A2979 RMK      A02 SLP090 T02960238 PA122 DA2219=
0134008418999992015011709534+03000+131800FM-15+000099999V0201301N001019999999N999999999+02901+02391100971ADDMA1100951999999REMMET107MOBOB2 METAR XM24 //000 030318 170953Z AUTO 13002KT 29/24 A2981 RMK      A02 SLP097 T02900239 PA103 DA2131=
0134008418999992015011710534+03000+131800FM-15+000099999V0201201N001519999999N999999999+02901+02411101071ADDMA1101051999999REMMET107MOBOB2 METAR XM24 //000 030318 171053Z AUTO 12003KT 29/24 A2984 RMK      A02 SLP107 T02900241 PA075 DA2102=
0134008418999992015011711544+03000+131800FM-15+000099999V0201101N001519999999N999999999+02901+02451101141ADDMA1101121999999REMMET107MOBOB2 METAR XM24 //000 030318 171154Z AUTO 11003KT 29/24 A2986 RMK      A02 SLP114 T02900245 PA057 DA2087=
0134008418999992015011712534+03000+131800FM-15+000099999V0201101N002119999999N999999999+02911+02431101141ADDMA1101121999999REMMET107MOBOB2 METAR XM24 //000 030318 171253Z AUTO 11004KT 29/24 A2986 RMK      A02 SLP114 T02910243 PA057 DA2095=
0134008418999992015011713534+03000+131800FM-15+000099999V0201201N002119999999N999999999+02891+02441101141ADDMA1101121999999REMMET107MOBOB2 METAR XM24 //000 030318 171353Z AUTO 12004KT 29/24 A2986 RMK      A02 SLP114 T02890244 PA057 DA2073=
0134008418999992015011714534+03000+131800FM-15+000099999V0201101N002119999999N999999999+02891+02441101141ADDMA1101121999999REMMET107MOBOB2 METAR XM24 //000 030318 171453Z AUTO 11004KT 29/24 A2986 RMK      A02 SLP114 T02890244 PA057 DA2073=
0134008418999992015011715534+03000+131800FM-15+000099999V0201101N002619999999N999999999+02871+02431101041ADDMA1101021999999REMMET107MOBOB2 METAR XM24 //000 030318 171553Z AUTO 11005KT 29/24 A2983 RMK      A02 SLP104 T02870243 PA084 DA2083=
0134008418999992015011716534+03000+131800FM-15+000099999V0201101N002119999999N999999999+02871+02441100941ADDMA1100911999999REMMET107MOBOB2 METAR XM24 //000 030318 171653Z AUTO 11004KT 29/24 A2980 RMK      A02 SLP094 T02870244 PA112 DA2119=
0134008418999992015011717534+03000+131800FM-15+000099999V0200801N001019999999N999999999+02831+02391100871ADDMA1100851999999REMMET107MOBOB2 METAR XM24 //000 030318 171753Z AUTO 08002KT 28/24 A2978 RMK      A02 SLP087 T02830239 PA131 DA2087=
0134008418999992015011718534+03000+131800FM-15+000099999V0200801N002119999999N999999999+02851+02461100831ADDMA1100811999999REMMET107MOBOB2 METAR XM24 //000 030318 171853Z AUTO 08004KT 29/25 A2977 RMK      A02 SLP083 T02850246 PA140 DA2136=
0134008418999992015011719534+03000+131800FM-15+000099999V0200701N003119999999N999999999+02851+02481100831ADDMA1100811999999REMMET107MOBOB2 METAR XM24 //000 030318 171953Z AUTO 07006KT 29/25 A2977 RMK      A02 SLP083 T02850248 PA140 DA2142=
0134008418999992015011720534+03000+131800FM-15+000099999V0200801N002619999999N999999999+02851+02471100871ADDMA1100851999999REMMET107MOBOB2 METAR XM24 //000 030318 172053Z AUTO 08005KT 29/25 A2978 RMK      A02 SLP087 T02850247 PA131 DA2127=
0134008418999992015011721534+03000+131800FM-15+000099999V0200901N002619999999N999999999+02861+02441100971ADDMA1100951999999REMMET107MOBOB2 METAR XM24 //000 030318 172153Z AUTO 09005KT 29/24 A2981 RMK      A02 SLP097 T02860244 PA103 DA2098=
0134008418999992015011722534+03000+131800FM-15+000099999V0201001N002119999999N999999999+02911+02451101071ADDMA1101051999999REMMET107MOBOB2 METAR XM24 //000 030318 172253Z AUTO 10004KT 29/25 A2984 RMK      A02 SLP107 T02910245 PA075 DA2122=
0134008418999992015011723534+03000+131800FM-15+000099999V0200801N002619999999N999999999+02931+02471101111ADDMA1101081999999REMMET107MOBOB2 METAR XM24 //000 030318 172353Z AUTO 08005KT 29/25 A2985 RMK      A02 SLP111 T02930247 PA066 DA2136=
0134008418999992015011801534+03000+131800FM-15+000099999V0200901N002619999999N999999999+02971+02441101071ADDMA1101051999999REMMET107MOBOB2 METAR XM24 //000 030318 180153Z AUTO 09005KT 30/24 A2984 RMK      A02 SLP107 T02970244 PA075 DA2185=
0134008418999992015011802534+03000+131800FM-15+000099999V0200901N003119999999N999999999+03001+02481100971ADDMA1100951999999REMMET107MOBOB2 METAR XM24 //000 030318 180253Z AUTO 09006KT 30/25 A2981 RMK      A02 SLP097 T03000248 PA103 DA2262=
0134008418999992015011804534+03000+131800FM-15+000099999V0200501N003119999999N999999999+02971+02421100901ADDMA1100881999999REMMET107MOBOB2 METAR XM24 //000 030318 180453Z AUTO 05006KT 30/24 A2979 RMK      A02 SLP090 T02970242 PA122 DA2239=
0134008418999992015011805534+03000+131800FM-15+000099999V0200201N001519999999N999999999+03011+02381100841ADDMA1100811999999REMMET107MOBOB2 METAR XM24 //000 030318 180553Z AUTO 02003KT 30/24 A2977 RMK      A02 SLP084 T03010238 PA140 DA2295=
0134008418999992015011806534+03000+131800FM-15+000099999V0200101N003119999999N999999999+02711+02321100871ADDMA1100851999999REMMET107MOBOB2 METAR XM24 //000 030318 180653Z AUTO 01006KT 27/23 A2978 RMK      A02 SLP087 T02710232 PA131 DA1937=
0134008418999992015011807534+03000+131800FM-15+000099999V0203101N002119999999N999999999+02771+02271100871ADDMA1100851999999REMMET107MOBOB2 METAR XM24 //000 030318 180753Z AUTO 31004KT 28/23 A2978 RMK      A02 SLP087 T02770227 PA131 DA1993=
0134008418999992015011808534+03000+131800FM-15+000099999V0203401N003619999999N999999999+02731+02401100941ADDMA1100911999999REMMET107MOBOB2 METAR XM24 //000 030318 180853Z AUTO 34007KT 27/24 A2980 RMK      A02 SLP094 T02730240 PA112 DA1955=
0134008418999992015011809534+03000+131800FM-15+000099999V0203501N002119999999N999999999+02701+02331100971ADDMA1100951999999REMMET107MOBOB2 METAR XM24 //000 030318 180953Z AUTO 35004KT 27/23 A2981 RMK      A02 SLP097 T02700233 PA103 DA1894=
0134008418999992015011810534+03000+131800FM-15+000099999V0200601N003619999999N999999999+02831+02431100971ADDMA1100951999999REMMET107MOBOB2 METAR XM24 //000 030318 181053Z AUTO 06007KT 28/24 A2981 RMK      A02 SLP097 T02830243 PA103 DA2061=
0134008418999992015011811534+03000+131800FM-15+000099999V0200401N002619999999N999999999+02831+02501101071ADDMA1101051999999REMMET107MOBOB2 METAR XM24 //000 030318 181153Z AUTO 04005KT 28/25 A2984 RMK      A02 SLP107 T02830250 PA075 DA2043=
0133008418999992015011812534+03000+131800FM-15+000099999V0200601N002119999999N999999999+02851+02511999999ADDMA1101121999999REMMET106MOBOB2 METAR XM24 //000 030318 181253Z AUTO 06004KT 29/25 A2986 RMK      A02 SLPNO T02850251 PA057 DA2045=
