0140008416999992015010100534+32900-117300FM-15+007099999V0209999C000019999999N009999199+01061-00681101851ADDMA1101831999999REMMET113MOBOB1 METAR XM22 //007 329173 010053Z AUTO 00000KT 9999 11/M07 A3007      RMK A02 SLP185 T01061068 PA094 DA-346=
0140008416999992015010101534+32900-117300FM-15+007099999V0200901N001019999999N009999199+00891-00621101891ADDMA1101861999999REMMET113MOBOB1 METAR XM22 //007 329173 010153Z AUTO 09002KT 9999 09/M06 A3008      RMK A02 SLP189 T00891062 PA084 DA-562=
0140008416999992015010102534+32900-117300FM-15+007099999V0201001N000519999999N009999199+00881-00661101961ADDMA1101931999999REMMET113MOBOB1 METAR XM22 //007 329173 010253Z AUTO 10001KT 9999 09/M07 A3010      RMK A02 SLP196 T00881066 PA066 DA-598=
0140008416999992015010103534+32900-117300FM-15+007099999V0200901N002119999999N009999199+00781-00581101961ADDMA1101931999999REMMET113MOBOB1 METAR XM22 //007 329173 010353Z AUTO 09004KT 9999 08/M06 A3010      RMK A02 SLP196 T00781058 PA066 DA-717=
0140008416999992015010104534+32900-117300FM-15+007099999V0200901N002119999999N009999199+00761-00621102001ADDMA1101961999999REMMET113MOBOB1 METAR XM22 //007 329173 010453Z AUTO 09004KT 9999 08/M06 A3011      RMK A02 SLP200 T00761062 PA057 DA-755=
0140008416999992015010105534+32900-117300FM-15+007099999V0201001N002619999999N009999199+00621-00261102001ADDMA1101961999999REMMET113MOBOB1 METAR XM22 //007 329173 010553Z AUTO 10005KT 9999 06/M03 A3011      RMK A02 SLP200 T00621026 PA057 DA-911=
0140008416999992015010106534+32900-117300FM-15+007099999V0201001N002619999999N009999199+00621-00251102001ADDMA1101961999999REMMET113MOBOB1 METAR XM22 //007 329173 010653Z AUTO 10005KT 9999 06/M03 A3011      RMK A02 SLP200 T00621025 PA057 DA-911=
0141008416999992015010107534+32900-117300FM-15+007099999V0201001N003119999999N009999199+00541-00171102001ADDMA1101961999999REMMET114MOBOB1 METAR XM22 //007 329173 010753Z AUTO 10006KT 9999 05/M02 A3011      RMK A02 SLP200 T00541017 PA057 DA-1005=
0141008416999992015010108534+32900-117300FM-15+007099999V0201001N003119999999N009999199+00491-00141102001ADDMA1101961999999REMMET114MOBOB1 METAR XM22 //007 329173 010853Z AUTO 10006KT 9999 05/M01 A3011      RMK A02 SLP200 T00491014 PA057 DA-1065=
0141008416999992015010109534+32900-117300FM-15+007099999V0201001N003119999999N009999199+00471-00151102031ADDMA1102001999999REMMET114MOBOB1 METAR XM22 //007 329173 010953Z AUTO 10006KT 9999 05/M02 A3012      RMK A02 SLP203 T00471015 PA047 DA-1102=
0141008416999992015010110544+32900-117300FM-15+007099999V0201001N002619999999N009999199+00471-00171102061ADDMA1102031999999REMMET114MOBOB1 METAR XM22 //007 329173 011054Z AUTO 10005KT 9999 05/M02 A3013      RMK A02 SLP206 T00471017 PA038 DA-1114=
0141008416999992015010111534+32900-117300FM-15+007099999V0201001N003119999999N009999199+00481-00211102061ADDMA1102031999999REMMET114MOBOB1 METAR XM22 //007 329173 011153Z AUTO 10006KT 9999 05/M02 A3013      RMK A02 SLP206 T00481021 PA038 DA-1104=
0141008416999992015010112534+32900-117300FM-15+007099999V0201001N003619999999N009999199+00451-00211102101ADDMA1102071999999REMMET114MOBOB1 METAR XM22 //007 329173 011253Z AUTO 10007KT 9999 05/M02 A3014      RMK A02 SLP210 T00451021 PA029 DA-1153=
0152008416999992015010113534+32900-117300FM-15+007099999V0201001N003619999999N009999199+00461-00241102171ADDMA1102131999999OC100671REMMET117MOBOB1 METAR XM22 //007 329173 011353Z AUTO 10007G13KT 9999 05/M02      A3016 RMK A02 SLP217 T00461024 PA010 DA-1165=
0141008416999992015010114534+32900-117300FM-15+007099999V0201001N003619999999N009999199+00491-00281102201ADDMA1102171999999REMMET114MOBOB1 METAR XM22 //007 329173 011453Z AUTO 10007KT 9999 05/M03 A3017      RMK A02 SLP220 T00491028 PA001 DA-1141=
0141008416999992015010115534+32900-117300FM-15+007099999V0201001N003119999999N009999199+00571-00321102241ADDMA1102201999999REMMET114MOBOB1 METAR XM22 //007 329173 011553Z AUTO 10006KT 9999 06/M03 A3018      RMK A02 SLP224 T00571032 PA-08 DA-1056=
0140008416999992015010117534+32900-117300FM-15+007099999V0201001N002119999999N009999199+01151-00121102331ADDMA1102301999999REMMET113MOBOB1 METAR XM22 //007 329173 011753Z AUTO 10004KT 9999 12/M01 A3021      RMK A02 SLP233 T01151012 PA-36 DA-374=
0140008416999992015010118534+32900-117300FM-15+007099999V0201201N001019999999N009999199+01381-00041102291ADDMA1102271999999REMMET113MOBOB1 METAR XM22 //007 329173 011853Z AUTO 12002KT 9999 14/M00 A3020      RMK A02 SLP229 T01381004 PA-27 DA-083=
0139008416999992015010119534+32900-117300FM-15+007099999V0202401N000519999999N009999199+01621+00031102191ADDMA1102171999999REMMET112MOBOB1 METAR XM22 //007 329173 011953Z AUTO 24001KT 9999 16/00 A3017      RMK A02 SLP219 T01620003 PA001 DA0240=
0139008416999992015010120534+32900-117300FM-15+007099999V0202501N000519999999N009999199+01701+00061102121ADDMA1102101999999REMMET112MOBOB1 METAR XM22 //007 329173 012053Z AUTO 25001KT 9999 17/01 A3015      RMK A02 SLP212 T01700006 PA020 DA0359=
0139008416999992015010122534+32900-117300FM-15+007099999V0209999C000019999999N009999199+01711+00171102091ADDMA1102071999999REMMET112MOBOB1 METAR XM22 //007 329173 012253Z AUTO 00000KT 9999 17/02 A3014      RMK A02 SLP209 T01710017 PA029 DA0388=
0139008416999992015010123534+32900-117300FM-15+007099999V0209999C000019999999N009999199+01561+00241102121ADDMA1102101999999REMMET112MOBOB1 METAR XM22 //007 329173 012353Z AUTO 00000KT 9999 16/02 A3015      RMK A02 SLP212 T01560024 PA020 DA0205=
0139008416999992015010201534+32900-117300FM-15+007099999V0209999C000019999999N009999199+01211+00361102201ADDMA1102171999999REMMET112MOBOB1 METAR XM22 //007 329173 020153Z AUTO 00000KT 9999 12/04 A3017      RMK A02 SLP220 T01210036 PA001 DA-226=
0139008416999992015010202534+32900-117300FM-15+007099999V0209999C000019999999N009999199+01191+00321102201ADDMA1102171999999REMMET112MOBOB1 METAR XM22 //007 329173 020253Z AUTO 00000KT 9999 12/03 A3017      RMK A02 SLP220 T01190032 PA001 DA-253=
0139008416999992015010204534+32900-117300FM-15+007099999V0201001N001519999999N009999199+01041+00271102231ADDMA1102201999999REMMET112MOBOB1 METAR XM22 //007 329173 020453Z AUTO 10003KT 9999 10/03 A3018      RMK A02 SLP223 T01040027 PA-08 DA-449=
0139008416999992015010205534+32900-117300FM-15+007099999V0200901N001519999999N009999199+00911+00261102221ADDMA1102201999999REMMET112MOBOB1 METAR XM22 //007 329173 020553Z AUTO 09003KT 9999 09/03 A3018      RMK A02 SLP222 T00910026 PA-08 DA-607=
0139008416999992015010206534+32900-117300FM-15+007099999V0200901N002119999999N009999199+00951+00221102221ADDMA1102201999999REMMET112MOBOB1 METAR XM22 //007 329173 020653Z AUTO 09004KT 9999 10/02 A3018      RMK A02 SLP222 T00950022 PA-08 DA-561=
0139008416999992015010207544+32900-117300FM-15+007099999V0200901N002119999999N009999199+00761+00191102191ADDMA1102171999999REMMET112MOBOB1 METAR XM22 //007 329173 020754Z AUTO 09004KT 9999 08/02 A3017      RMK A02 SLP219 T00760019 PA001 DA-783=
0139008416999992015010208534+32900-117300FM-15+007099999V0200901N002119999999N009999199+00711+00141102151ADDMA1102131999999REMMET112MOBOB1 METAR XM22 //007 329173 020853Z AUTO 09004KT 9999 07/01 A3016      RMK A02 SLP215 T00710014 PA010 DA-836=
0138008416999992015010209534+32900-117300FM-15+007099999V0200901N002119999999N009999199+00761+00081999999ADDMA1102131999999REMMET111MOBOB1 METAR XM22 //007 329173 020953Z AUTO 09004KT 9999 08/01 A3016      RMK A02 SLPNO T00760008 PA010 DA-778=
0139008416999992015010210534+32900-117300FM-15+007099999V0200901N002119999999N009999199+00691+00041102151ADDMA1102131999999REMMET112MOBOB1 METAR XM22 //007 329173 021053Z AUTO 09004KT 9999 07/00 A3016      RMK A02 SLP215 T00690004 PA010 DA-866=
0140008416999992015010212534+32900-117300FM-15+007099999V0200901N002619999999N009999199+00701-00031102161ADDMA1102131999999REMMET113MOBOB1 METAR XM22 //007 329173 021253Z AUTO 09005KT 9999 07/M00 A3016      RMK A02 SLP216 T00701003 PA010 DA-858=
0140008416999992015010213534+32900-117300FM-15+007099999V0200901N002619999999N009999199+00701-00121102161ADDMA1102131999999REMMET113MOBOB1 METAR XM22 //007 329173 021353Z AUTO 09005KT 9999 07/M01 A3016      RMK A02 SLP216 T00701012 PA010 DA-863=
0140008416999992015010214534+32900-117300FM-15+007099999V0200901N002619999999N009999199+00641-00151102261ADDMA1102231999999REMMET113MOBOB1 METAR XM22 //007 329173 021453Z AUTO 09005KT 9999 06/M02 A3019      RMK A02 SLP226 T00641015 PA-17 DA-973=
0140008416999992015010215534+32900-117300FM-15+007099999V0200901N002619999999N009999199+00711-00131102301ADDMA1102271999999REMMET113MOBOB1 METAR XM22 //007 329173 021553Z AUTO 09005KT 9999 07/M01 A3020      RMK A02 SLP230 T00711013 PA-27 DA-898=
0139008416999992015010217534+32900-117300FM-15+007099999V0202501N000519999999N009999199+01501+00191102361ADDMA1102341999999REMMET112MOBOB1 METAR XM22 //007 329173 021753Z AUTO 25001KT 9999 15/02 A3022      RMK A02 SLP236 T01500019 PA-45 DA0051=
0139008416999992015010218534+32900-117300FM-15+007099999V0202501N000519999999N009999199+01621+00341102251ADDMA1102231999999REMMET112MOBOB1 METAR XM22 //007 329173 021853Z AUTO 25001KT 9999 16/03 A3019      RMK A02 SLP225 T01620034 PA-17 DA0237=
0139008416999992015010220534+32900-117300FM-15+007099999V0209999C000019999999N009999199+01761+00501102081ADDMA1102071999999REMMET112MOBOB1 METAR XM22 //007 329173 022053Z AUTO 00000KT 9999 18/05 A3014      RMK A02 SLP208 T01760050 PA029 DA0470=
0139008416999992015010222534+32900-117300FM-15+007099999V0202401N000519999999N009999199+01731+00621102051ADDMA1102031999999REMMET112MOBOB1 METAR XM22 //007 329173 022253Z AUTO 24001KT 9999 17/06 A3013      RMK A02 SLP205 T01730062 PA038 DA0456=
0139008416999992015010223534+32900-117300FM-15+007099999V0209999C000019999999N009999199+01621+00641102011ADDMA1102001999999REMMET112MOBOB1 METAR XM22 //007 329173 022353Z AUTO 00000KT 9999 16/06 A3012      RMK A02 SLP201 T01620064 PA047 DA0340=
0139008416999992015010300534+32900-117300FM-15+007099999V0209999C000019999999N009999199+01391+00551102051ADDMA1102031999999REMMET112MOBOB1 METAR XM22 //007 329173 030053Z AUTO 00000KT 9999 14/05 A3013      RMK A02 SLP205 T01390055 PA038 DA0049=
0139008416999992015010302534+32900-117300FM-15+007099999V0209999C000019999999N009999199+01201+00621102121ADDMA1102101999999REMMET112MOBOB1 METAR XM22 //007 329173 030253Z AUTO 00000KT 9999 12/06 A3015      RMK A02 SLP212 T01200062 PA020 DA-195=
0139008416999992015010303534+32900-117300FM-15+007099999V0200901N001019999999N009999199+01141+00601102231ADDMA1102201999999REMMET112MOBOB1 METAR XM22 //007 329173 030353Z AUTO 09002KT 9999 11/06 A3018      RMK A02 SLP223 T01140060 PA-08 DA-303=
0139008416999992015010304534+32900-117300FM-15+007099999V0200901N001519999999N009999199+01041+00541102291ADDMA1102271999999REMMET112MOBOB1 METAR XM22 //007 329173 030453Z AUTO 09003KT 9999 10/05 A3020      RMK A02 SLP229 T01040054 PA-27 DA-452=
0139008416999992015010305534+32900-117300FM-15+007099999V0201001N002119999999N009999199+00981+00521102321ADDMA1102301999999REMMET112MOBOB1 METAR XM22 //007 329173 030553Z AUTO 10004KT 9999 10/05 A3021      RMK A02 SLP232 T00980052 PA-36 DA-537=
0139008416999992015010306534+32900-117300FM-15+007099999V0200901N002119999999N009999199+01001+00551102321ADDMA1102301999999REMMET112MOBOB1 METAR XM22 //007 329173 030653Z AUTO 09004KT 9999 10/05 A3021      RMK A02 SLP232 T01000055 PA-36 DA-511=
0139008416999992015010307534+32900-117300FM-15+007099999V0201001N002619999999N009999199+00871+00451102281ADDMA1102271999999REMMET112MOBOB1 METAR XM22 //007 329173 030753Z AUTO 10005KT 9999 09/05 A3020      RMK A02 SLP228 T00870045 PA-27 DA-665=
0139008416999992015010308534+32900-117300FM-15+007099999V0201001N002619999999N009999199+00871+00451102251ADDMA1102231999999REMMET112MOBOB1 METAR XM22 //007 329173 030853Z AUTO 10005KT 9999 09/05 A3019      RMK A02 SLP225 T00870045 PA-17 DA-653=
0139008416999992015010309534+32900-117300FM-15+007099999V0201001N002119999999N009999199+00871+00461102321ADDMA1102301999999REMMET112MOBOB1 METAR XM22 //007 329173 030953Z AUTO 10004KT 9999 09/05 A3021      RMK A02 SLP232 T00870046 PA-36 DA-676=
0139008416999992015010310534+32900-117300FM-15+007099999V0201001N002619999999N009999199+00821+00431102281ADDMA1102271999999REMMET112MOBOB1 METAR XM22 //007 329173 031053Z AUTO 10005KT 9999 08/04 A3020      RMK A02 SLP228 T00820043 PA-27 DA-728=
0139008416999992015010311534+32900-117300FM-15+007099999V0201001N002619999999N009999199+00791+00381102291ADDMA1102271999999REMMET112MOBOB1 METAR XM22 //007 329173 031153Z AUTO 10005KT 9999 08/04 A3020      RMK A02 SLP229 T00790038 PA-27 DA-768=
0139008416999992015010312534+32900-117300FM-15+007099999V0201001N002619999999N009999199+00771+00311102291ADDMA1102271999999REMMET112MOBOB1 METAR XM22 //007 329173 031253Z AUTO 10005KT 9999 08/03 A3020      RMK A02 SLP229 T00770031 PA-27 DA-797=
0139008416999992015010313534+32900-117300FM-15+007099999V0201001N002119999999N009999199+00771+00311102401ADDMA1102371999999REMMET112MOBOB1 METAR XM22 //007 329173 031353Z AUTO 10004KT 9999 08/03 A3023      RMK A02 SLP240 T00770031 PA-54 DA-832=
0139008416999992015010314534+32900-117300FM-15+007099999V0201001N002619999999N009999199+00711+00281102471ADDMA1102441999999REMMET112MOBOB1 METAR XM22 //007 329173 031453Z AUTO 10005KT 9999 07/03 A3025      RMK A02 SLP247 T00710028 PA-73 DA-930=
0139008416999992015010315534+32900-117300FM-15+007099999V0200901N002119999999N009999199+00851+00311102531ADDMA1102511999999REMMET112MOBOB1 METAR XM22 //007 329173 031553Z AUTO 09004KT 9999 09/03 A3027      RMK A02 SLP253 T00850031 PA-91 DA-780=
0140008416999992015010316534+32900-117300FM-15+007099999V0200901N001519999999N009999199+01141+00391102601ADDMA1102571999999REMMET113MOBOB1 METAR XM22 //007 329173 031653Z AUTO 09003KT 9999 11/04 A3029      RMK A02 SLP260 T01140039 PA-110 DA-445=
0140008416999992015010317534+32900-117300FM-15+007099999V0202601N000519999999N009999199+01561+00561102631ADDMA1102611999999REMMET113MOBOB1 METAR XM22 //007 329173 031753Z AUTO 26001KT 9999 16/06 A3030      RMK A02 SLP263 T01560056 PA-119 DA0057=
0140008416999992015010318534+32900-117300FM-15+007099999V0202501N000519999999N009999199+01701+00601102561ADDMA1102541999999REMMET113MOBOB1 METAR XM22 //007 329173 031853Z AUTO 25001KT 9999 17/06 A3028      RMK A02 SLP256 T01700060 PA-100 DA0248=
0139008416999992015010319534+32900-117300FM-15+007099999V0202601N000519999999N009999199+01801+00641102491ADDMA1102471999999REMMET112MOBOB1 METAR XM22 //007 329173 031953Z AUTO 26001KT 9999 18/06 A3026      RMK A02 SLP249 T01800064 PA-82 DA0391=
0139008416999992015010320534+32900-117300FM-15+007099999V0209999C000019999999N009999199+01841+00621102451ADDMA1102441999999REMMET112MOBOB1 METAR XM22 //007 329173 032053Z AUTO 00000KT 9999 18/06 A3025      RMK A02 SLP245 T01840062 PA-73 DA0448=
0139008416999992015010321534+32900-117300FM-15+007099999V0209999C000019999999N009999199+01861+00621102421ADDMA1102401999999REMMET112MOBOB1 METAR XM22 //007 329173 032153Z AUTO 00000KT 9999 19/06 A3024      RMK A02 SLP242 T01860062 PA-64 DA0482=
0139008416999992015010322534+32900-117300FM-15+007099999V0209999C000019999999N009999199+01751+00671102451ADDMA1102441999999REMMET112MOBOB1 METAR XM22 //007 329173 032253Z AUTO 00000KT 9999 18/07 A3025      RMK A02 SLP245 T01750067 PA-73 DA0347=
0139008416999992015010323534+32900-117300FM-15+007099999V0209999C000019999999N009999199+01641+00751102491ADDMA1102471999999REMMET112MOBOB1 METAR XM22 //007 329173 032353Z AUTO 00000KT 9999 16/07 A3026      RMK A02 SLP249 T01640075 PA-82 DA0213=
0139008416999992015010400534+32900-117300FM-15+007099999V0201401N000519999999N009999199+01451+00731102531ADDMA1102511999999REMMET112MOBOB1 METAR XM22 //007 329173 040053Z AUTO 14001KT 9999 15/07 A3027      RMK A02 SLP253 T01450073 PA-91 DA-025=
0140008416999992015010402534+32900-117300FM-15+007099999V0209999C000019999999N009999199+01281+00701102631ADDMA1102611999999REMMET113MOBOB1 METAR XM22 //007 329173 040253Z AUTO 00000KT 9999 13/07 A3030      RMK A02 SLP263 T01280070 PA-119 DA-264=
0140008416999992015010404534+32900-117300FM-15+007099999V0200901N000519999999N009999199+01201+00711102701ADDMA1102671999999REMMET113MOBOB1 METAR XM22 //007 329173 040453Z AUTO 09001KT 9999 12/07 A3032      RMK A02 SLP270 T01200071 PA-137 DA-383=
0140008416999992015010405534+32900-117300FM-15+007099999V0200901N001519999999N009999199+01181+00691102691ADDMA1102671999999REMMET113MOBOB1 METAR XM22 //007 329173 040553Z AUTO 09003KT 9999 12/07 A3032      RMK A02 SLP269 T01180069 PA-137 DA-408=
0140008416999992015010406534+32900-117300FM-15+007099999V0200901N001019999999N009999199+01131+00671102691ADDMA1102671999999REMMET113MOBOB1 METAR XM22 //007 329173 040653Z AUTO 09002KT 9999 11/07 A3032      RMK A02 SLP269 T01130067 PA-137 DA-470=
0140008416999992015010407534+32900-117300FM-15+007099999V0200901N002119999999N009999199+01011+00611102691ADDMA1102671999999REMMET113MOBOB1 METAR XM22 //007 329173 040753Z AUTO 09004KT 9999 10/06 A3032      RMK A02 SLP269 T01010061 PA-137 DA-620=
0140008416999992015010408534+32900-117300FM-15+007099999V0200901N002119999999N009999199+01001+00571102691ADDMA1102671999999REMMET113MOBOB1 METAR XM22 //007 329173 040853Z AUTO 09004KT 9999 10/06 A3032      RMK A02 SLP269 T01000057 PA-137 DA-635=
0140008416999992015010409534+32900-117300FM-15+007099999V0200901N002119999999N009999199+01021+00581102691ADDMA1102671999999REMMET113MOBOB1 METAR XM22 //007 329173 040953Z AUTO 09004KT 9999 10/06 A3032      RMK A02 SLP269 T01020058 PA-137 DA-610=
0140008416999992015010410534+32900-117300FM-15+007099999V0200901N002119999999N009999199+01001+00591102691ADDMA1102671999999REMMET113MOBOB1 METAR XM22 //007 329173 041053Z AUTO 09004KT 9999 10/06 A3032      RMK A02 SLP269 T01000059 PA-137 DA-634=
0140008416999992015010411534+32900-117300FM-15+007099999V0200901N001019999999N009999199+01031+00571102661ADDMA1102641999999REMMET113MOBOB1 METAR XM22 //007 329173 041153Z AUTO 09002KT 9999 10/06 A3031      RMK A02 SLP266 T01030057 PA-128 DA-587=
0140008416999992015010412534+32900-117300FM-15+007099999V0200901N000519999999N009999199+00991+00501102661ADDMA1102641999999REMMET113MOBOB1 METAR XM22 //007 329173 041253Z AUTO 09001KT 9999 10/05 A3031      RMK A02 SLP266 T00990050 PA-128 DA-642=
0140008416999992015010413534+32900-117300FM-15+007099999V0200901N000519999999N009999199+01011+00521102701ADDMA1102671999999REMMET113MOBOB1 METAR XM22 //007 329173 041353Z AUTO 09001KT 9999 10/05 A3032      RMK A02 SLP270 T01010052 PA-137 DA-627=
0140008416999992015010414534+32900-117300FM-15+007099999V0201001N000519999999N009999199+00971+00461102731ADDMA1102711999999REMMET113MOBOB1 METAR XM22 //007 329173 041453Z AUTO 10001KT 9999 10/05 A3033      RMK A02 SLP273 T00970046 PA-146 DA-692=
0140008416999992015010417534+32900-117300FM-15+007099999V0202301N000519999999N009999199+01711+00571102891ADDMA1102881999999REMMET113MOBOB1 METAR XM22 //007 329173 041753Z AUTO 23001KT 9999 17/06 A3038      RMK A02 SLP289 T01710057 PA-192 DA0143=
0140008416999992015010419534+32900-117300FM-15+007099999V0202401N000519999999N009999199+01831+00691102721ADDMA1102711999999REMMET113MOBOB1 METAR XM22 //007 329173 041953Z AUTO 24001KT 9999 18/07 A3033      RMK A02 SLP272 T01830069 PA-146 DA0351=
0140008416999992015010420534+32900-117300FM-15+007099999V0202201N000519999999N009999199+01851+00831102651ADDMA1102641999999REMMET113MOBOB1 METAR XM22 //007 329173 042053Z AUTO 22001KT 9999 19/08 A3031      RMK A02 SLP265 T01850083 PA-128 DA0410=
0149008416999992015010422534+32900-117300FM-15+007099999V0202301N000519999999N009000199+01851+00881102591ADDAW1051MA1102571999999REMMET116MOBOB1 METAR XM22 //007 329173 042253Z AUTO 23001KT 9000 HZ 19/09 A3029      RMK A02 SLP259 T01850088 PA-110 DA0438=
0140008416999992015010500534+32900-117300FM-15+007099999V0202301N000519999999N009999199+01611+00961102621ADDMA1102611999999REMMET113MOBOB1 METAR XM22 //007 329173 050053Z AUTO 23001KT 9999 16/10 A3030      RMK A02 SLP262 T01610096 PA-119 DA0152=
0149008416999992015010501534+32900-117300FM-15+007099999V0202001N000519999999N009000199+01481+01001102661ADDAW1051MA1102641999999REMMET116MOBOB1 METAR XM22 //007 329173 050153Z AUTO 20001KT 9000 HZ 15/10 A3031      RMK A02 SLP266 T01480100 PA-128 DA-009=
0140008416999992015010502534+32900-117300FM-15+007099999V0209999C000019999999N009999199+01421+01021102661ADDMA1102641999999REMMET113MOBOB1 METAR XM22 //007 329173 050253Z AUTO 00000KT 9999 14/10 A3031      RMK A02 SLP266 T01420102 PA-128 DA-077=
0140008416999992015010503534+32900-117300FM-15+007099999V0209999C000019999999N009999199+01391+01071102631ADDMA1102611999999REMMET113MOBOB1 METAR XM22 //007 329173 050353Z AUTO 00000KT 9999 14/11 A3030      RMK A02 SLP263 T01390107 PA-119 DA-097=
0140008416999992015010504534+32900-117300FM-15+007099999V0209999C000019999999N009999199+01361+01101102651ADDMA1102641999999REMMET113MOBOB1 METAR XM22 //007 329173 050453Z AUTO 00000KT 9999 14/11 A3031      RMK A02 SLP265 T01360110 PA-128 DA-140=
0148008416999992015010506534+32900-117300FM-15+007099999V0200901N001019999999N007000199+01281+01061999999ADDAW1051MA1102571999999REMMET115MOBOB1 METAR XM22 //007 329173 050653Z AUTO 09002KT 7000 HZ 13/11 A3029      RMK A02 SLPNO T01280106 PA-110 DA-218=
0139008416999992015010507534+32900-117300FM-15+007099999V0209999C000019999999N009999199+01261+00971102511ADDMA1102511999999REMMET112MOBOB1 METAR XM22 //007 329173 050753Z AUTO 00000KT 9999 13/10 A3027      RMK A02 SLP251 T01260097 PA-91 DA-228=
0139008416999992015010508534+32900-117300FM-15+007099999V0201001N002119999999N009999199+01241+00621102481ADDMA1102471999999REMMET112MOBOB1 METAR XM22 //007 329173 050853Z AUTO 10004KT 9999 12/06 A3026      RMK A02 SLP248 T01240062 PA-82 DA-273=
0138008416999992015010509534+32900-117300FM-15+007099999V0200901N001019999999N009999199+01241+00741999999ADDMA1102511999999REMMET111MOBOB1 METAR XM22 //007 329173 050953Z AUTO 09002KT 9999 12/07 A3027      RMK A02 SLPNO T01240074 PA-91 DA-274=
0139008416999992015010510534+32900-117300FM-15+007099999V0209999C000019999999N009999199+01221+01001102511ADDMA1102511999999REMMET112MOBOB1 METAR XM22 //007 329173 051053Z AUTO 00000KT 9999 12/10 A3027      RMK A02 SLP251 T01220100 PA-91 DA-273=
0139008416999992015010512534+32900-117300FM-15+007099999V0200901N001019999999N009999199+01161+00691102491ADDMA1102471999999REMMET112MOBOB1 METAR XM22 //007 329173 051253Z AUTO 09002KT 9999 12/07 A3026      RMK A02 SLP249 T01160069 PA-82 DA-363=
0139008416999992015010513534+32900-117300FM-15+007099999V0200901N001019999999N009999199+01151+00571102451ADDMA1102441999999REMMET112MOBOB1 METAR XM22 //007 329173 051353Z AUTO 09002KT 9999 12/06 A3025      RMK A02 SLP245 T01150057 PA-73 DA-374=
0139008416999992015010514534+32900-117300FM-15+007099999V0200801N000519999999N009999199+01171+00281102491ADDMA1102471999999REMMET112MOBOB1 METAR XM22 //007 329173 051453Z AUTO 08001KT 9999 12/03 A3026      RMK A02 SLP249 T01170028 PA-82 DA-383=
0140008416999992015010516534+32900-117300FM-15+007099999V0209999C000019999999N009999199+01781+00661102551ADDMA1102541999999REMMET113MOBOB1 METAR XM22 //007 329173 051653Z AUTO 00000KT 9999 18/07 A3028      RMK A02 SLP255 T01780066 PA-100 DA0347=
0140008416999992015010517534+32900-117300FM-15+007099999V0202501N000519999999N009999199+01911+00631102551ADDMA1102541999999REMMET113MOBOB1 METAR XM22 //007 329173 051753Z AUTO 25001KT 9999 19/06 A3028      RMK A02 SLP255 T01910063 PA-100 DA0496=
0139008416999992015010518534+32900-117300FM-15+007099999V0202601N000519999999N009999199+01971+00591102441ADDMA1102441999999REMMET112MOBOB1 METAR XM22 //007 329173 051853Z AUTO 26001KT 9999 20/06 A3025      RMK A02 SLP244 T01970059 PA-73 DA0597=
0140008416999992015010519534+32900-117300FM-15+007099999V0202601N000519999999N009999199+02281-00051102341ADDMA1102341999999REMMET113MOBOB1 METAR XM22 //007 329173 051953Z AUTO 26001KT 9999 23/M01 A3022      RMK A02 SLP234 T02281005 PA-45 DA0946=
0139008416999992015010520534+32900-117300FM-15+007099999V0202501N000519999999N009999199+02301+00661102241ADDMA1102231999999REMMET112MOBOB1 METAR XM22 //007 329173 052053Z AUTO 25001KT 9999 23/07 A3019      RMK A02 SLP224 T02300066 PA-17 DA1052=
0148008416999992015010521534+32900-117300FM-15+007099999V0202601N000519999999N006000199+02191+01222102201ADDAW1051MA1102201999999REMMET115MOBOB1 METAR XM22 //007 329173 052153Z AUTO 26001KT 6000 HZ 22/12 A3018      RMK A02 SLP220 T02190122 PA-08 DA0993=
0139008416999992015010522534+32900-117300FM-15+007099999V0202401N000519999999N009999199+02281+00571102201ADDMA1102201999999REMMET112MOBOB1 METAR XM22 //007 329173 052253Z AUTO 24001KT 9999 23/06 A3018      RMK A02 SLP220 T02280057 PA-08 DA1032=
0138008416999992015010523534+32900-117300FM-15+007099999V0202201N000519999999N009999199+02171+00951999999ADDMA1102201999999REMMET111MOBOB1 METAR XM22 //007 329173 052353Z AUTO 22001KT 9999 22/10 A3018      RMK A02 SLPNO T02170095 PA-08 DA0941=
0139008416999992015010600534+32900-117300FM-15+007099999V0202701N000519999999N009999199+01971+00821102211ADDMA1102201999999REMMET112MOBOB1 METAR XM22 //007 329173 060053Z AUTO 27001KT 9999 20/08 A3018      RMK A02 SLP221 T01970082 PA-08 DA0697=
0139008416999992015010601534+32900-117300FM-15+007099999V0200901N001019999999N009999199+01921+00081102171ADDMA1102171999999REMMET112MOBOB1 METAR XM22 //007 329173 060153Z AUTO 09002KT 9999 19/01 A3017      RMK A02 SLP217 T01920008 PA001 DA0594=
0139008416999992015010602534+32900-117300FM-15+007099999V0200901N002119999999N009999199+02031+00241102211ADDMA1102201999999REMMET112MOBOB1 METAR XM22 //007 329173 060253Z AUTO 09004KT 9999 20/02 A3018      RMK A02 SLP221 T02030024 PA-08 DA0720=
0140008416999992015010603534+32900-117300FM-15+007099999V0200901N001019999999N009999199+02021+00001102241ADDMA1102231999999REMMET113MOBOB1 METAR XM22 //007 329173 060353Z AUTO 09002KT 9999 20/M00 A3019      RMK A02 SLP224 T02021000 PA-17 DA0683=
0140008416999992015010604534+32900-117300FM-15+007099999V0200901N000519999999N009999199+01751-00071102241ADDMA1102231999999REMMET113MOBOB1 METAR XM22 //007 329173 060453Z AUTO 09001KT 9999 18/M01 A3019      RMK A02 SLP224 T01751007 PA-17 DA0364=
0140008416999992015010605534+32900-117300FM-15+007099999V0200901N000519999999N009999199+01841-00311102271ADDMA1102271999999REMMET113MOBOB1 METAR XM22 //007 329173 060553Z AUTO 09001KT 9999 18/M03 A3020      RMK A02 SLP227 T01841031 PA-27 DA0446=
0140008416999992015010607534+32900-117300FM-15+007099999V0200801N001019999999N009999199+01731-00051102261ADDMA1102271999999REMMET113MOBOB1 METAR XM22 //007 329173 060753Z AUTO 08002KT 9999 17/M01 A3020      RMK A02 SLP226 T01731005 PA-27 DA0330=
0139008416999992015010608534+32900-117300FM-15+007099999V0200901N001019999999N009999199+01861+00031102301ADDMA1102301999999REMMET112MOBOB1 METAR XM22 //007 329173 060853Z AUTO 09002KT 9999 19/00 A3021      RMK A02 SLP230 T01860003 PA-36 DA0476=
0140008416999992015010609534+32900-117300FM-15+007099999V0200901N001019999999N009999199+01841-00171102301ADDMA1102301999999REMMET113MOBOB1 METAR XM22 //007 329173 060953Z AUTO 09002KT 9999 18/M02 A3021      RMK A02 SLP230 T01841017 PA-36 DA0442=
0140008416999992015010610534+32900-117300FM-15+007099999V0200901N001519999999N009999199+01881-00271102301ADDMA1102301999999REMMET113MOBOB1 METAR XM22 //007 329173 061053Z AUTO 09003KT 9999 19/M03 A3021      RMK A02 SLP230 T01881027 PA-36 DA0483=
0140008416999992015010611534+32900-117300FM-15+007099999V0200901N001019999999N009999199+01821-00431102261ADDMA1102271999999REMMET113MOBOB1 METAR XM22 //007 329173 061153Z AUTO 09002KT 9999 18/M04 A3020      RMK A02 SLP226 T01821043 PA-27 DA0417=
0140008416999992015010612534+32900-117300FM-15+007099999V0200901N001519999999N009999199+01771-00351102231ADDMA1102231999999REMMET113MOBOB1 METAR XM22 //007 329173 061253Z AUTO 09003KT 9999 18/M04 A3019      RMK A02 SLP223 T01771035 PA-17 DA0374=
0140008416999992015010613534+32900-117300FM-15+007099999V0200901N002119999999N009999199+01731-00411102271ADDMA1102271999999REMMET113MOBOB1 METAR XM22 //007 329173 061353Z AUTO 09004KT 9999 17/M04 A3020      RMK A02 SLP227 T01731041 PA-27 DA0313=
0140008416999992015010614534+32900-117300FM-15+007099999V0200901N002619999999N009999199+01731-00501102301ADDMA1102301999999REMMET113MOBOB1 METAR XM22 //007 329173 061453Z AUTO 09005KT 9999 17/M05 A3021      RMK A02 SLP230 T01731050 PA-36 DA0298=
0140008416999992015010615534+32900-117300FM-15+007099999V0200901N001019999999N009999199+01921-00381102371ADDMA1102371999999REMMET113MOBOB1 METAR XM22 //007 329173 061553Z AUTO 09002KT 9999 19/M04 A3023      RMK A02 SLP237 T01921038 PA-54 DA0502=
0140008416999992015010616534+32900-117300FM-15+007099999V0201101N000519999999N009999199+02191-00091102401ADDMA1102401999999REMMET113MOBOB1 METAR XM22 //007 329173 061653Z AUTO 11001KT 9999 22/M01 A3024      RMK A02 SLP240 T02191009 PA-64 DA0818=
0140008416999992015010617534+32900-117300FM-15+007099999V0202601N000519999999N009999199+02491-00101102361ADDMA1102371999999REMMET113MOBOB1 METAR XM22 //007 329173 061753Z AUTO 26001KT 9999 25/M01 A3023      RMK A02 SLP236 T02491010 PA-54 DA1172=
0140008416999992015010618534+32900-117300FM-15+007099999V0202801N000519999999N009999199+02661-00301102261ADDMA1102271999999REMMET113MOBOB1 METAR XM22 //007 329173 061853Z AUTO 28001KT 9999 27/M03 A3020      RMK A02 SLP226 T02661030 PA-27 DA1388=
0139008416999992015010619534+32900-117300FM-15+007099999V0202601N000519999999N009999199+02471+00111102121ADDMA1102131999999REMMET112MOBOB1 METAR XM22 //007 329173 061953Z AUTO 26001KT 9999 25/01 A3016      RMK A02 SLP212 T02470011 PA010 DA1240=
0139008416999992015010621534+32900-117300FM-15+007099999V0202501N000519999999N009999199+02601+00391102021ADDMA1102031999999REMMET112MOBOB1 METAR XM22 //007 329173 062153Z AUTO 25001KT 9999 26/04 A3013      RMK A02 SLP202 T02600039 PA038 DA1440=
0139008416999992015010623534+32900-117300FM-15+007099999V0202101N000519999999N009999199+02421+00011102061ADDMA1102071999999REMMET112MOBOB1 METAR XM22 //007 329173 062353Z AUTO 21001KT 9999 24/00 A3014      RMK A02 SLP206 T02420001 PA029 DA1200=
0140008416999992015010700534+32900-117300FM-15+007099999V0202501N000519999999N009999199+02331-00451102091ADDMA1102101999999REMMET113MOBOB1 METAR XM22 //007 329173 070053Z AUTO 25001KT 9999 23/M05 A3015      RMK A02 SLP209 T02331045 PA020 DA1063=
0140008416999992015010701534+32900-117300FM-15+007099999V0201001N001019999999N009999199+02071-00421102101ADDMA1102101999999REMMET113MOBOB1 METAR XM22 //007 329173 070153Z AUTO 10002KT 9999 21/M04 A3015      RMK A02 SLP210 T02071042 PA020 DA0766=
0140008416999992015010702534+32900-117300FM-15+007099999V0201001N000519999999N009999199+02001-00381102131ADDMA1102131999999REMMET113MOBOB1 METAR XM22 //007 329173 070253Z AUTO 10001KT 9999 20/M04 A3016      RMK A02 SLP213 T02001038 PA010 DA0675=
0140008416999992015010703534+32900-117300FM-15+007099999V0200901N002119999999N009999199+01891-00331102161ADDMA1102171999999REMMET113MOBOB1 METAR XM22 //007 329173 070353Z AUTO 09004KT 9999 19/M03 A3017      RMK A02 SLP216 T01891033 PA001 DA0538=
0139008416999992015010704534+32900-117300FM-15+007099999V0201101N001019999999N009999199+01621+00591102161ADDMA1102171999999REMMET112MOBOB1 METAR XM22 //007 329173 070453Z AUTO 11002KT 9999 16/06 A3017      RMK A02 SLP216 T01620059 PA001 DA0279=
0139008416999992015010705534+32900-117300FM-15+007099999V0200901N002119999999N009999199+01631+00782102161ADDMA1102171999999REMMET112MOBOB1 METAR XM22 //007 329173 070553Z AUTO 09004KT 9999 16/08 A3017      RMK A02 SLP216 T01630078 PA001 DA0307=
0139008416999992015010706534+32900-117300FM-15+007099999V0200901N001019999999N009999199+01671+00461102161ADDMA1102171999999REMMET112MOBOB1 METAR XM22 //007 329173 070653Z AUTO 09002KT 9999 17/05 A3017      RMK A02 SLP216 T01670046 PA001 DA0327=
0139008416999992015010707534+32900-117300FM-15+007099999V0200901N001519999999N009999199+01711+00291102161ADDMA1102171999999REMMET112MOBOB1 METAR XM22 //007 329173 070753Z AUTO 09003KT 9999 17/03 A3017      RMK A02 SLP216 T01710029 PA001 DA0362=
0139008416999992015010708534+32900-117300FM-15+007099999V0200901N001019999999N009999199+01661+00121102121ADDMA1102131999999REMMET112MOBOB1 METAR XM22 //007 329173 070853Z AUTO 09002KT 9999 17/01 A3016      RMK A02 SLP212 T01660012 PA010 DA0304=
0140008416999992015010709534+32900-117300FM-15+007099999V0200901N000519999999N009999199+01731-00061102161ADDMA1102171999999REMMET113MOBOB1 METAR XM22 //007 329173 070953Z AUTO 09001KT 9999 17/M01 A3017      RMK A02 SLP216 T01731006 PA001 DA0364=
0140008416999992015010711534+32900-117300FM-15+007099999V0200801N000519999999N009999199+01631-00021102061ADDMA1102071999999REMMET113MOBOB1 METAR XM22 //007 329173 071153Z AUTO 08001KT 9999 16/M00 A3014      RMK A02 SLP206 T01631002 PA029 DA0283=
0140008416999992015010712534+32900-117300FM-15+007099999V0209999C000019999999N009999199+01601-00161102061ADDMA1102071999999REMMET113MOBOB1 METAR XM22 //007 329173 071253Z AUTO 00000KT 9999 16/M02 A3014      RMK A02 SLP206 T01601016 PA029 DA0240=
0140008416999992015010713534+32900-117300FM-15+007099999V0200801N000519999999N009999199+01531-00231102061ADDMA1102071999999REMMET113MOBOB1 METAR XM22 //007 329173 071353Z AUTO 08001KT 9999 15/M02 A3014      RMK A02 SLP206 T01531023 PA029 DA0154=
0140008416999992015010714534+32900-117300FM-15+007099999V0200801N000519999999N009999199+01511-00161102101ADDMA1102101999999REMMET113MOBOB1 METAR XM22 //007 329173 071453Z AUTO 08001KT 9999 15/M02 A3015      RMK A02 SLP210 T01511016 PA020 DA0122=
0140008416999992015010715534+32900-117300FM-15+007099999V0200801N000519999999N009999199+01531-00111102101ADDMA1102101999999REMMET113MOBOB1 METAR XM22 //007 329173 071553Z AUTO 08001KT 9999 15/M01 A3015      RMK A02 SLP210 T01531011 PA020 DA0149=
0139008416999992015010716534+32900-117300FM-15+007099999V0201301N000519999999N009999199+02091+00021102171ADDMA1102171999999REMMET112MOBOB1 METAR XM22 //007 329173 071653Z AUTO 13001KT 9999 21/00 A3017      RMK A02 SLP217 T02090002 PA001 DA0787=
0139008416999992015010717534+32900-117300FM-15+007099999V0202501N000519999999N009999199+02291+00271102161ADDMA1102171999999REMMET112MOBOB1 METAR XM22 //007 329173 071753Z AUTO 25001KT 9999 23/03 A3017      RMK A02 SLP216 T02290027 PA001 DA1034=
0139008416999992015010718534+32900-117300FM-15+007099999V0202601N000519999999N009999199+02231+00001102131ADDMA1102131999999REMMET112MOBOB1 METAR XM22 //007 329173 071853Z AUTO 26001KT 9999 22/00 A3016      RMK A02 SLP213 T02230000 PA010 DA0959=
0139008416999992015010719534+32900-117300FM-15+007099999V0202701N000519999999N009999199+02341+00461102061ADDMA1102071999999REMMET112MOBOB1 METAR XM22 //007 329173 071953Z AUTO 27001KT 9999 23/05 A3014      RMK A02 SLP206 T02340046 PA029 DA1138=
0140008416999992015010720534+32900-117300FM-15+007099999V0202701N001019999999N009999199+02271-00071102031ADDMA1102031999999REMMET113MOBOB1 METAR XM22 //007 329173 072053Z AUTO 27002KT 9999 23/M01 A3013      RMK A02 SLP203 T02271007 PA038 DA1036=
0139008416999992015010722534+32900-117300FM-15+007099999V0202601N000519999999N009999199+02281+00141101991ADDMA1102001999999REMMET112MOBOB1 METAR XM22 //007 329173 072253Z AUTO 26001KT 9999 23/01 A3012      RMK A02 SLP199 T02280014 PA047 DA1070=
0139008416999992015010723534+32900-117300FM-15+007099999V0201401N000519999999N009999199+02191+00141101991ADDMA1102001999999REMMET112MOBOB1 METAR XM22 //007 329173 072353Z AUTO 14001KT 9999 22/01 A3012      RMK A02 SLP199 T02190014 PA047 DA0967=
0139008416999992015010800534+32900-117300FM-15+007099999V0201201N000519999999N009999199+01991+00441101961ADDMA1101961999999REMMET112MOBOB1 METAR XM22 //007 329173 080053Z AUTO 12001KT 9999 20/04 A3011      RMK A02 SLP196 T01990044 PA057 DA0768=
0139008416999992015010801534+32900-117300FM-15+007099999V0209999C000019999999N009999199+01941+00401102001ADDMA1102001999999REMMET112MOBOB1 METAR XM22 //007 329173 080153Z AUTO 00000KT 9999 19/04 A3012      RMK A02 SLP200 T01940040 PA047 DA0696=
0139008416999992015010802534+32900-117300FM-15+007099999V0200901N000519999999N009999199+01671+00641101971ADDMA1101961999999REMMET112MOBOB1 METAR XM22 //007 329173 080253Z AUTO 09001KT 9999 17/06 A3011      RMK A02 SLP197 T01670064 PA057 DA0411=
0139008416999992015010803534+32900-117300FM-15+007099999V0209999C000019999999N009999199+01631+00471102001ADDMA1102001999999REMMET112MOBOB1 METAR XM22 //007 329173 080353Z AUTO 00000KT 9999 16/05 A3012      RMK A02 SLP200 T01630047 PA047 DA0338=
0139008416999992015010804534+32900-117300FM-15+007099999V0209999C000019999999N009999199+01641+00771101961ADDMA1101961999999REMMET112MOBOB1 METAR XM22 //007 329173 080453Z AUTO 00000KT 9999 16/08 A3011      RMK A02 SLP196 T01640077 PA057 DA0387=
0139008416999992015010805534+32900-117300FM-15+007099999V0200901N001519999999N009999199+01571+00671101961ADDMA1101961999999REMMET112MOBOB1 METAR XM22 //007 329173 080553Z AUTO 09003KT 9999 16/07 A3011      RMK A02 SLP196 T01570067 PA057 DA0295=
0139008416999992015010807534+32900-117300FM-15+007099999V0201001N000519999999N009999199+01551+00581101891ADDMA1101901999999REMMET112MOBOB1 METAR XM22 //007 329173 080753Z AUTO 10001KT 9999 16/06 A3009      RMK A02 SLP189 T01550058 PA075 DA0287=
0139008416999992015010808534+32900-117300FM-15+007099999V0200801N000519999999N009999199+01541+00781101921ADDMA1101931999999REMMET112MOBOB1 METAR XM22 //007 329173 080853Z AUTO 08001KT 9999 15/08 A3010      RMK A02 SLP192 T01540078 PA066 DA0281=
0138008416999992015010809534+32900-117300FM-15+007099999V0200901N001019999999N009999199+01501+00651999999ADDMA1101931999999REMMET111MOBOB1 METAR XM22 //007 329173 080953Z AUTO 09002KT 9999 15/07 A3010      RMK A02 SLPNO T01500065 PA066 DA0223=
0139008416999992015010810534+32900-117300FM-15+007099999V0200901N001019999999N009999199+01581+00601101891ADDMA1101901999999REMMET112MOBOB1 METAR XM22 //007 329173 081053Z AUTO 09002KT 9999 16/06 A3009      RMK A02 SLP189 T01580060 PA075 DA0324=
0139008416999992015010812534+32900-117300FM-15+007099999V0200901N002119999999N009999199+01631+00141101831ADDMA1101831999999REMMET112MOBOB1 METAR XM22 //007 329173 081253Z AUTO 09004KT 9999 16/01 A3007      RMK A02 SLP183 T01630014 PA094 DA0373=
0139008416999992015010813534+32900-117300FM-15+007099999V0200901N000519999999N009999199+01601+00071101891ADDMA1101901999999REMMET112MOBOB1 METAR XM22 //007 329173 081353Z AUTO 09001KT 9999 16/01 A3009      RMK A02 SLP189 T01600007 PA075 DA0310=
0139008416999992015010815534+32900-117300FM-15+007099999V0201001N001019999999N009999199+01611+00201102041ADDMA1102031999999REMMET112MOBOB1 METAR XM22 //007 329173 081553Z AUTO 10002KT 9999 16/02 A3013      RMK A02 SLP204 T01610020 PA038 DA0284=
0139008416999992015010816534+32900-117300FM-15+007099999V0201001N001519999999N009999199+01621+00311102071ADDMA1102071999999REMMET112MOBOB1 METAR XM22 //007 329173 081653Z AUTO 10003KT 9999 16/03 A3014      RMK A02 SLP207 T01620031 PA029 DA0292=
0139008416999992015010817534+32900-117300FM-15+007099999V0201601N000519999999N009999199+01971+00421102031ADDMA1102031999999REMMET112MOBOB1 METAR XM22 //007 329173 081753Z AUTO 16001KT 9999 20/04 A3013      RMK A02 SLP203 T01970042 PA038 DA0720=
0139008416999992015010818534+32900-117300FM-15+007099999V0201801N000519999999N009999199+02251+00131101921ADDMA1101931999999REMMET112MOBOB1 METAR XM22 //007 329173 081853Z AUTO 18001KT 9999 23/01 A3010      RMK A02 SLP192 T02250013 PA066 DA1058=
0139008416999992015010819534+32900-117300FM-15+007099999V0201301N000519999999N009999199+02101+00971101821ADDMA1101831999999REMMET112MOBOB1 METAR XM22 //007 329173 081953Z AUTO 13001KT 9999 21/10 A3007      RMK A02 SLP182 T02100097 PA094 DA0988=
0139008416999992015010820534+32900-117300FM-15+007099999V0202601N000519999999N009999199+02161+01141101751ADDMA1101761999999REMMET112MOBOB1 METAR XM22 //007 329173 082053Z AUTO 26001KT 9999 22/11 A3005      RMK A02 SLP175 T02160114 PA112 DA1098=
0138008416999992015010823534+32900-117300FM-15+007099999V0202401N000519999999N009999199+02021+01341999999ADDMA1101861999999REMMET111MOBOB1 METAR XM22 //007 329173 082353Z AUTO 24001KT 9999 20/13 A3008      RMK A02 SLPNO T02020134 PA084 DA0926=
0139008416999992015010901534+32900-117300FM-15+007099999V0201001N000519999999N009999199+01621+01331101791ADDMA1101791999999REMMET112MOBOB1 METAR XM22 //007 329173 090153Z AUTO 10001KT 9999 16/13 A3006      RMK A02 SLP179 T01620133 PA103 DA0481=
0139008416999992015010902534+32900-117300FM-15+007099999V0201001N001019999999N009999199+01611+01231101791ADDMA1101791999999REMMET112MOBOB1 METAR XM22 //007 329173 090253Z AUTO 10002KT 9999 16/12 A3006      RMK A02 SLP179 T01610123 PA103 DA0457=
0139008416999992015010903534+32900-117300FM-15+007099999V0209999C000019999999N009999199+01571+01261101831ADDMA1101831999999REMMET112MOBOB1 METAR XM22 //007 329173 090353Z AUTO 00000KT 9999 16/13 A3007      RMK A02 SLP183 T01570126 PA094 DA0402=
0139008416999992015010905534+32900-117300FM-15+007099999V0209999C000019999999N009999199+01551+01341101761ADDMA1101761999999REMMET112MOBOB1 METAR XM22 //007 329173 090553Z AUTO 00000KT 9999 16/13 A3005      RMK A02 SLP176 T01550134 PA112 DA0411=
0139008416999992015010906534+32900-117300FM-15+007099999V0209999C000019999999N009999199+01541+01351101751ADDMA1101761999999REMMET112MOBOB1 METAR XM22 //007 329173 090653Z AUTO 00000KT 9999 15/14 A3005      RMK A02 SLP175 T01540135 PA112 DA0401=
0139008416999992015010907534+32900-117300FM-15+007099999V0201001N000519999999N009999199+01551+01371101721ADDMA1101731999999REMMET112MOBOB1 METAR XM22 //007 329173 090753Z AUTO 10001KT 9999 16/14 A3004      RMK A02 SLP172 T01550137 PA122 DA0427=
0148008416999992015010908544+32900-117300FM-15+007099999V0200901N001019999999N006000199+01501+01291101721ADDAW1101MA1101731999999REMMET115MOBOB1 METAR XM22 //007 329173 090854Z AUTO 09002KT 6000 BR 15/13 A3004      RMK A02 SLP172 T01500129 PA122 DA0358=
0139008416999992015010909534+32900-117300FM-15+007099999V0209999C000019999999N009999199+01501+01211101721ADDMA1101731999999REMMET112MOBOB1 METAR XM22 //007 329173 090953Z AUTO 00000KT 9999 15/12 A3004      RMK A02 SLP172 T01500121 PA122 DA0348=
0148008416999992015010910534+32900-117300FM-15+007099999V0200901N001019999999N009000199+01501+01281101691ADDAW1101MA1101691999999REMMET115MOBOB1 METAR XM22 //007 329173 091053Z AUTO 09002KT 9000 BR 15/13 A3003      RMK A02 SLP169 T01500128 PA131 DA0368=
0139008416999992015010911534+32900-117300FM-15+007099999V0201001N000519999999N009999199+01501+01271101691ADDMA1101691999999REMMET112MOBOB1 METAR XM22 //007 329173 091153Z AUTO 10001KT 9999 15/13 A3003      RMK A02 SLP169 T01500127 PA131 DA0366=
0139008416999992015010912534+32900-117300FM-15+007099999V0200901N000519999999N009999199+01501+01301101691ADDMA1101691999999REMMET112MOBOB1 METAR XM22 //007 329173 091253Z AUTO 09001KT 9999 15/13 A3003      RMK A02 SLP169 T01500130 PA131 DA0371=
0166008416999992015010913534+32900-117300FM-15+007099999V0200801N000519999999N009000199+01481+01061101731ADDAA101000021AW1611MA1101731999999REMMET122MOBOB1 METAR XM22 //007 329173 091353Z AUTO 08001KT 9000 -RA 15/11      A3004 RMK A02 SLP173 P0000 T01480106 PA122 DA0307=
0139008416999992015010915534+32900-117300FM-15+007099999V0209999C000019999999N009999199+01511+01141101871ADDMA1101861999999REMMET112MOBOB1 METAR XM22 //007 329173 091553Z AUTO 00000KT 9999 15/11 A3008      RMK A02 SLP187 T01510114 PA084 DA0306=
0139008416999992015010916534+32900-117300FM-15+007099999V0209999C000019999999N009999199+01611+01331101931ADDMA1101931999999REMMET112MOBOB1 METAR XM22 //007 329173 091653Z AUTO 00000KT 9999 16/13 A3010      RMK A02 SLP193 T01610133 PA066 DA0423=
0148008416999992015010917534+32900-117300FM-15+007099999V0202501N000519999999N009000199+01761+01331101931ADDAW1051MA1101931999999REMMET115MOBOB1 METAR XM22 //007 329173 091753Z AUTO 25001KT 9000 HZ 18/13 A3010      RMK A02 SLP193 T01760133 PA066 DA0600=
0139008416999992015010918534+32900-117300FM-15+007099999V0209999C000019999999N009999199+01751+01391101861ADDMA1101861999999REMMET112MOBOB1 METAR XM22 //007 329173 091853Z AUTO 00000KT 9999 18/14 A3008      RMK A02 SLP186 T01750139 PA084 DA0619=
0139008416999992015010919534+32900-117300FM-15+007099999V0209999C000019999999N009999199+01751+01381101761ADDMA1101761999999REMMET112MOBOB1 METAR XM22 //007 329173 091953Z AUTO 00000KT 9999 18/14 A3005      RMK A02 SLP176 T01750138 PA112 DA0652=
0139008416999992015010920534+32900-117300FM-15+007099999V0202501N000519999999N009999199+01771+01381101721ADDMA1101731999999REMMET112MOBOB1 METAR XM22 //007 329173 092053Z AUTO 25001KT 9999 18/14 A3004      RMK A02 SLP172 T01770138 PA122 DA0687=
0139008416999992015010921534+32900-117300FM-15+007099999V0202501N000519999999N009999199+01711+01381101691ADDMA1101691999999REMMET112MOBOB1 METAR XM22 //007 329173 092153Z AUTO 25001KT 9999 17/14 A3003      RMK A02 SLP169 T01710138 PA131 DA0628=
0139008416999992015010922534+32900-117300FM-15+007099999V0209999C000019999999N009999199+01811+01391101721ADDMA1101731999999REMMET112MOBOB1 METAR XM22 //007 329173 092253Z AUTO 00000KT 9999 18/14 A3004      RMK A02 SLP172 T01810139 PA122 DA0734=
0139008416999992015010923534+32900-117300FM-15+007099999V0202601N000519999999N009999199+01791+01321101691ADDMA1101691999999REMMET112MOBOB1 METAR XM22 //007 329173 092353Z AUTO 26001KT 9999 18/13 A3003      RMK A02 SLP169 T01790132 PA131 DA0713=
0139008416999992015011000534+32900-117300FM-15+007099999V0209999C000019999999N009999199+01751+01381101761ADDMA1101761999999REMMET112MOBOB1 METAR XM22 //007 329173 100053Z AUTO 00000KT 9999 18/14 A3005      RMK A02 SLP176 T01750138 PA112 DA0652=
0139008416999992015011001534+32900-117300FM-15+007099999V0209999C000019999999N009999199+01551+01341101761ADDMA1101761999999REMMET112MOBOB1 METAR XM22 //007 329173 100153Z AUTO 00000KT 9999 16/13 A3005      RMK A02 SLP176 T01550134 PA112 DA0412=
0148008416999992015011002534+32900-117300FM-15+007099999V0200801N000519999999N009000199+01471+01301101801ADDAW1101MA1101791999999REMMET115MOBOB1 METAR XM22 //007 329173 100253Z AUTO 08001KT 9000 BR 15/13 A3006      RMK A02 SLP180 T01470130 PA103 DA0301=
0148008416999992015011003534+32900-117300FM-15+007099999V0200901N000519999999N007000199+01451+01291101801ADDAW1101MA1101791999999REMMET115MOBOB1 METAR XM22 //007 329173 100353Z AUTO 09001KT 7000 BR 15/13 A3006      RMK A02 SLP180 T01450129 PA103 DA0275=
0148008416999992015011005534+32900-117300FM-15+007099999V0200901N001019999999N008000199+01401+01231101801ADDAW1101MA1101791999999REMMET115MOBOB1 METAR XM22 //007 329173 100553Z AUTO 09002KT 8000 BR 14/12 A3006      RMK A02 SLP180 T01400123 PA103 DA0209=
0148008416999992015011006534+32900-117300FM-15+007099999V0209999C000019999999N005000199+01411+01261101801ADDAW1101MA1101791999999REMMET115MOBOB1 METAR XM22 //007 329173 100653Z AUTO 00000KT 5000 BR 14/13 A3006      RMK A02 SLP180 T01410126 PA103 DA0225=
0148008416999992015011007534+32900-117300FM-15+007099999V0200901N001519999999N000800199+01301+01171101761ADDAW1301MA1101761999999REMMET115MOBOB1 METAR XM22 //007 329173 100753Z AUTO 09003KT 0800 FG 13/12 A3005      RMK A02 SLP176 T01300117 PA112 DA0094=
0148008416999992015011008534+32900-117300FM-15+007099999V0201001N003119999999N000800199+01251+01141101701ADDAW1301MA1101691999999REMMET115MOBOB1 METAR XM22 //007 329173 100853Z AUTO 10006KT 0800 FG 13/11 A3003      RMK A02 SLP170 T01250114 PA131 DA0054=
0139008416999992015011010534+32900-117300FM-15+007099999V0201201N001019999999N009999199+01291+01061101731ADDMA1101731999999REMMET112MOBOB1 METAR XM22 //007 329173 101053Z AUTO 12002KT 9999 13/11 A3004      RMK A02 SLP173 T01290106 PA122 DA0082=
0139008416999992015011011534+32900-117300FM-15+007099999V0200901N000519999999N009999199+01261+00981101701ADDMA1101691999999REMMET112MOBOB1 METAR XM22 //007 329173 101153Z AUTO 09001KT 9999 13/10 A3003      RMK A02 SLP170 T01260098 PA131 DA0049=
0139008416999992015011014534+32900-117300FM-15+007099999V0201001N001519999999N009999199+01301+00641101701ADDMA1101691999999REMMET112MOBOB1 METAR XM22 //007 329173 101453Z AUTO 10003KT 9999 13/06 A3003      RMK A02 SLP170 T01300064 PA131 DA0064=
0139008416999992015011015534+32900-117300FM-15+007099999V0209999C000019999999N009999199+01411+00791101771ADDMA1101761999999REMMET112MOBOB1 METAR XM22 //007 329173 101553Z AUTO 00000KT 9999 14/08 A3005      RMK A02 SLP177 T01410079 PA112 DA0186=
0139008416999992015011016534+32900-117300FM-15+007099999V0202601N000519999999N009999199+01671+00841101871ADDMA1101861999999REMMET112MOBOB1 METAR XM22 //007 329173 101653Z AUTO 26001KT 9999 17/08 A3008      RMK A02 SLP187 T01670084 PA084 DA0463=
0139008416999992015011019534+32900-117300FM-15+007099999V0202601N000519999999N009999199+01981+01031101691ADDMA1101691999999REMMET112MOBOB1 METAR XM22 //007 329173 101953Z AUTO 26001KT 9999 20/10 A3003      RMK A02 SLP169 T01980103 PA131 DA0901=
0139008416999992015011020534+32900-117300FM-15+007099999V0202601N000519999999N009999199+01971+00911101621ADDMA1101631999999REMMET112MOBOB1 METAR XM22 //007 329173 102053Z AUTO 26001KT 9999 20/09 A3001      RMK A02 SLP162 T01970091 PA149 DA0900=
0148008416999992015011022534+32900-117300FM-15+007099999V0202401N000519999999N009000199+01911+01251101591ADDAW1051MA1101591999999REMMET115MOBOB1 METAR XM22 //007 329173 102253Z AUTO 24001KT 9000 HZ 19/12 A3000      RMK A02 SLP159 T01910125 PA159 DA0879=
0139008416999992015011023534+32900-117300FM-15+007099999V0202601N000519999999N009999199+01771+01081101631ADDMA1101631999999REMMET112MOBOB1 METAR XM22 //007 329173 102353Z AUTO 26001KT 9999 18/11 A3001      RMK A02 SLP163 T01770108 PA149 DA0684=
0139008416999992015011100534+32900-117300FM-15+007099999V0202701N000519999999N009999199+01681+01131101631ADDMA1101631999999REMMET112MOBOB1 METAR XM22 //007 329173 110053Z AUTO 27001KT 9999 17/11 A3001      RMK A02 SLP163 T01680113 PA149 DA0585=
0139008416999992015011102534+32900-117300FM-15+007099999V0209999C000019999999N009999199+01611+01171101701ADDMA1101691999999REMMET112MOBOB1 METAR XM22 //007 329173 110253Z AUTO 00000KT 9999 16/12 A3003      RMK A02 SLP170 T01610117 PA131 DA0484=
0139008416999992015011103534+32900-117300FM-15+007099999V0209999C000019999999N009999199+01591+01131101701ADDMA1101691999999REMMET112MOBOB1 METAR XM22 //007 329173 110353Z AUTO 00000KT 9999 16/11 A3003      RMK A02 SLP170 T01590113 PA131 DA0456=
0139008416999992015011104534+32900-117300FM-15+007099999V0201101N000519999999N009999199+01581+01081101761ADDMA1101761999999REMMET112MOBOB1 METAR XM22 //007 329173 110453Z AUTO 11001KT 9999 16/11 A3005      RMK A02 SLP176 T01580108 PA112 DA0416=
0139008416999992015011106534+32900-117300FM-15+007099999V0201201N000519999999N009999199+01551+01211101721ADDMA1101731999999REMMET112MOBOB1 METAR XM22 //007 329173 110653Z AUTO 12001KT 9999 16/12 A3004      RMK A02 SLP172 T01550121 PA122 DA0408=
0139008416999992015011107534+32900-117300FM-15+007099999V0201201N000519999999N009999199+01581+01221101721ADDMA1101731999999REMMET112MOBOB1 METAR XM22 //007 329173 110753Z AUTO 12001KT 9999 16/12 A3004      RMK A02 SLP172 T01580122 PA122 DA0443=
0139008416999992015011108534+32900-117300FM-15+007099999V0201001N000519999999N009999199+01581+00861101691ADDMA1101691999999REMMET112MOBOB1 METAR XM22 //007 329173 110853Z AUTO 10001KT 9999 16/09 A3003      RMK A02 SLP169 T01580086 PA131 DA0416=
0139008416999992015011109534+32900-117300FM-15+007099999V0209999C000019999999N009999199+01511+01231101721ADDMA1101731999999REMMET112MOBOB1 METAR XM22 //007 329173 110953Z AUTO 00000KT 9999 15/12 A3004      RMK A02 SLP172 T01510123 PA122 DA0362=
0166008416999992015011110534+32900-117300FM-15+007099999V0201201N000519999999N006000199+01421+01191101691ADDAA101000021AW1611MA1101691999999REMMET122MOBOB1 METAR XM22 //007 329173 111053Z AUTO 12001KT 6000 -RA 14/12      A3003 RMK A02 SLP169 P0000 T01420119 PA131 DA0263=
0139008416999992015011111534+32900-117300FM-15+007099999V0201201N001019999999N009999199+01481+01221101661ADDMA1101661999999REMMET112MOBOB1 METAR XM22 //007 329173 111153Z AUTO 12002KT 9999 15/12 A3002      RMK A02 SLP166 T01480122 PA140 DA0349=
0139008416999992015011112534+32900-117300FM-15+007099999V0209999C000019999999N009999199+01501+01221101661ADDMA1101661999999REMMET112MOBOB1 METAR XM22 //007 329173 111253Z AUTO 00000KT 9999 15/12 A3002      RMK A02 SLP166 T01500122 PA140 DA0372=
0148008416999992015011113534+32900-117300FM-15+007099999V0201601N001019999999N007000199+01431+01221101731ADDAW1101MA1101731999999REMMET115MOBOB1 METAR XM22 //007 329173 111353Z AUTO 16002KT 7000 BR 14/12 A3004      RMK A02 SLP173 T01430122 PA122 DA0266=
0148008416999992015011114534+32900-117300FM-15+007099999V0201101N000519999999N002800199+01351+01191101761ADDAW1101MA1101761999999REMMET115MOBOB1 METAR XM22 //007 329173 111453Z AUTO 11001KT 2800 BR 14/12 A3005      RMK A02 SLP176 T01350119 PA112 DA0156=
0139008416999992015011115534+32900-117300FM-15+007099999V0200801N002119999999N009999199+01351+01171101831ADDMA1101831999999REMMET112MOBOB1 METAR XM22 //007 329173 111553Z AUTO 08004KT 9999 14/12 A3007      RMK A02 SLP183 T01350117 PA094 DA0131=
0139008416999992015011116534+32900-117300FM-15+007099999V0200901N001519999999N009999199+01401+01211101901ADDMA1101901999999REMMET112MOBOB1 METAR XM22 //007 329173 111653Z AUTO 09003KT 9999 14/12 A3009      RMK A02 SLP190 T01400121 PA075 DA0172=
0139008416999992015011117534+32900-117300FM-15+007099999V0200901N001519999999N009999199+01441+01251101931ADDMA1101931999999REMMET112MOBOB1 METAR XM22 //007 329173 111753Z AUTO 09003KT 9999 14/12 A3010      RMK A02 SLP193 T01440125 PA066 DA0213=
0148008416999992015011118534+32900-117300FM-15+007099999V0202701N000519999999N001600199+01491+01321101901ADDAW1101MA1101901999999REMMET115MOBOB1 METAR XM22 //007 329173 111853Z AUTO 27001KT 1600 BR 15/13 A3009      RMK A02 SLP190 T01490132 PA075 DA0292=
0175008416999992015011119534+32900-117300FM-15+007099999V0200301N001019999999N001600199+01471+01321101831ADDAA101000021AW1101AW2611MA1101831999999REMMET125MOBOB1 METAR XM22 //007 329173 111953Z AUTO 03002KT 1600 -RA BR 15/13      A3007 RMK A02 SLP183 P0000 T01470132 PA094 DA0292=
0148008416999992015011120534+32900-117300FM-15+007099999V0202601N000519999999N003200199+01511+01371101761ADDAW1101MA1101761999999REMMET115MOBOB1 METAR XM22 //007 329173 112053Z AUTO 26001KT 3200 BR 15/14 A3005      RMK A02 SLP176 T01510137 PA112 DA0368=
0148008416999992015011121534+32900-117300FM-15+007099999V0209999C000019999999N006000199+01511+01351101761ADDAW1101MA1101761999999REMMET115MOBOB1 METAR XM22 //007 329173 112153Z AUTO 00000KT 6000 BR 15/13 A3005      RMK A02 SLP176 T01510135 PA112 DA0366=
0148008416999992015011122534+32900-117300FM-15+007099999V0202501N000519999999N003200199+01521+01371101761ADDAW1101MA1101761999999REMMET115MOBOB1 METAR XM22 //007 329173 112253Z AUTO 25001KT 3200 BR 15/14 A3005      RMK A02 SLP176 T01520137 PA112 DA0380=
0139008416999992015011200534+32900-117300FM-15+007099999V0202801N000519999999N009999199+01531+01351101831ADDMA1101831999999REMMET112MOBOB1 METAR XM22 //007 329173 120053Z AUTO 28001KT 9999 15/13 A3007      RMK A02 SLP183 T01530135 PA094 DA0366=
0139008416999992015011201534+32900-117300FM-15+007099999V0209999C000019999999N009999199+01491+01301101901ADDMA1101901999999REMMET112MOBOB1 METAR XM22 //007 329173 120153Z AUTO 00000KT 9999 15/13 A3009      RMK A02 SLP190 T01490130 PA075 DA0290=
0148008416999992015011202534+32900-117300FM-15+007099999V0209999C000019999999N009000199+01481+01321101901ADDAW1101MA1101901999999REMMET115MOBOB1 METAR XM22 //007 329173 120253Z AUTO 00000KT 9000 BR 15/13 A3009      RMK A02 SLP190 T01480132 PA075 DA0280=
0139008416999992015011203534+32900-117300FM-15+007099999V0209999C000019999999N009999199+01471+01311101971ADDMA1101961999999REMMET112MOBOB1 METAR XM22 //007 329173 120353Z AUTO 00000KT 9999 15/13 A3011      RMK A02 SLP197 T01470131 PA057 DA0245=
0139008416999992015011205534+32900-117300FM-15+007099999V0200901N000519999999N009999199+01491+01331102111ADDMA1102101999999REMMET112MOBOB1 METAR XM22 //007 329173 120553Z AUTO 09001KT 9999 15/13 A3015      RMK A02 SLP211 T01490133 PA020 DA0225=
0139008416999992015011206534+32900-117300FM-15+007099999V0200901N000519999999N009999199+01511+01331102101ADDMA1102101999999REMMET112MOBOB1 METAR XM22 //007 329173 120653Z AUTO 09001KT 9999 15/13 A3015      RMK A02 SLP210 T01510133 PA020 DA0249=
0139008416999992015011207534+32900-117300FM-15+007099999V0201001N000519999999N009999199+01521+01341102101ADDMA1102101999999REMMET112MOBOB1 METAR XM22 //007 329173 120753Z AUTO 10001KT 9999 15/13 A3015      RMK A02 SLP210 T01520134 PA020 DA0261=
0139008416999992015011208534+32900-117300FM-15+007099999V0201501N000519999999N009999199+01511+01371102101ADDMA1102101999999REMMET112MOBOB1 METAR XM22 //007 329173 120853Z AUTO 15001KT 9999 15/14 A3015      RMK A02 SLP210 T01510137 PA020 DA0253=
0175008416999992015011209534+32900-117300FM-15+007099999V0209999C000019999999N004000199+01471+01341102171ADDAA101000021AW1101AW2611MA1102171999999REMMET125MOBOB1 METAR XM22 //007 329173 120953Z AUTO 00000KT 4000 -RA BR 15/13      A3017 RMK A02 SLP217 P0000 T01470134 PA001 DA0180=
0148008416999992015011210534+32900-117300FM-15+007099999V0209999C000019999999N002400199+01481+01361102171ADDAW1101MA1102171999999REMMET115MOBOB1 METAR XM22 //007 329173 121053Z AUTO 00000KT 2400 BR 15/14 A3017      RMK A02 SLP217 T01480136 PA001 DA0193=
0148008416999992015011211534+32900-117300FM-15+007099999V0200901N000519999999N009000199+01451+01311102141ADDAW1101MA1102131999999REMMET115MOBOB1 METAR XM22 //007 329173 121153Z AUTO 09001KT 9000 BR 15/13 A3016      RMK A02 SLP214 T01450131 PA010 DA0164=
0139008416999992015011213534+32900-117300FM-15+007099999V0201001N000519999999N009999199+01441+01301102211ADDMA1102201999999REMMET112MOBOB1 METAR XM22 //007 329173 121353Z AUTO 10001KT 9999 14/13 A3018      RMK A02 SLP221 T01440130 PA-08 DA0127=
0148008416999992015011214534+32900-117300FM-15+007099999V0200901N001019999999N009000199+01421+01291102241ADDAW1101MA1102231999999REMMET115MOBOB1 METAR XM22 //007 329173 121453Z AUTO 09002KT 9000 BR 14/13 A3019      RMK A02 SLP224 T01420129 PA-17 DA0091=
0148008416999992015011215534+32900-117300FM-15+007099999V0201001N001019999999N001200199+01411+01291102281ADDAW1101MA1102271999999REMMET115MOBOB1 METAR XM22 //007 329173 121553Z AUTO 10002KT 1200 BR 14/13 A3020      RMK A02 SLP228 T01410129 PA-27 DA0068=
0148008416999992015011216534+32900-117300FM-15+007099999V0201001N000519999999N009000199+01491+01331102341ADDAW1101MA1102341999999REMMET115MOBOB1 METAR XM22 //007 329173 121653Z AUTO 10001KT 9000 BR 15/13 A3022      RMK A02 SLP234 T01490133 PA-45 DA0144=
0139008416999992015011223064+32900-117300FM-15+007099999V0209999C000019999999N009999199+01911+01271102071ADDMA1102071999999REMMET112MOBOB1 METAR XM22 //007 329173 122306Z AUTO 00000KT 9999 19/13 A3014      RMK A02 SLP207 T01910127 PA029 DA0722=
0139008416999992015011223524+32900-117300FM-15+007099999V0209999C000019999999N009999199+01811+01281102101ADDMA1102101999999REMMET112MOBOB1 METAR XM22 //007 329173 122352Z AUTO 00000KT 9999 18/13 A3015      RMK A02 SLP210 T01810128 PA020 DA0595=
0138008416999992015061910064+11500+043200FM-15+003099999V0200801N001019999999N009999199+03941+02081999999ADDMA1100411999999REMMET111MOBOB3 METAR XM22 //003 115432 191006Z AUTO 08002KT 9999 39/21 A2965      RMK A02 SLPNO T03940208 PA345 DA3497=
0138008416999992015061910554+11500+043200FM-15+003099999V0200901N000519999999N009999199+03971+02121999999ADDMA1100301999999REMMET111MOBOB3 METAR XM22 //003 115432 191055Z AUTO 09001KT 9999 40/21 A2962      RMK A02 SLPNO T03970212 PA364 DA3558=
0138008416999992015061911524+11500+043200FM-15+003099999V0200701N000519999999N009999199+03741+02431999999ADDMA1100171999999REMMET111MOBOB3 METAR XM22 //003 115432 191152Z AUTO 07001KT 9999 37/24 A2958      RMK A02 SLPNO T03740243 PA392 DA3413=
0147008416999992015061912524+11500+043200FM-15+002099999V0200801N001019999999N009000199+03571+02471999999ADDAW1051MA1100201999999REMMET114MOBOB3 METAR XM22 //002 115432 191252Z AUTO 08002KT 9000 HZ 36/25 A2959      RMK A02 SLPNO T03570247 PA382 DA3228=
0138008416999992015061913524+11500+043200FM-15+002099999V0200701N001019999999N009999199+03571+02241999999ADDMA1100241999999REMMET111MOBOB3 METAR XM22 //002 115432 191352Z AUTO 07002KT 9999 36/22 A2960      RMK A02 SLPNO T03570224 PA373 DA3166=
0138008416999992015061914524+11500+043200FM-15+002099999V0200701N000519999999N009999199+03521+02301999999ADDMA1100301999999REMMET111MOBOB3 METAR XM22 //002 115432 191452Z AUTO 07001KT 9999 35/23 A2962      RMK A02 SLPNO T03520230 PA354 DA3100=
0138008416999992015062115044-02200+040900FM-15+002099999V0201801N003619999999N009999199+02641+02041999999ADDMA1101661999999REMMET111MOBOB8 METAR XM22 //002 022409 211504Z AUTO 18007KT 9999 26/20 A3002      RMK A02 SLPNO T02640204 PA-17 DA1618=
0138008416999992015062115524-02200+040900FM-15+002099999V0201701N003119999999N009999199+02611+02081999999ADDMA1101661999999REMMET111MOBOB8 METAR XM22 //002 022409 211552Z AUTO 17006KT 9999 26/21 A3002      RMK A02 SLPNO T02610208 PA-17 DA1592=
0149008416999992015062116524-02200+040900FM-15+002099999V0201801N003619999999N009999199+02611+02081999999ADDMA1101691999999OC100721REMMET114MOBOB8 METAR XM22 //002 022409 211652Z AUTO 18007G14KT 9999 26/21 A3003      RMK A02 SLPNO T02610208 PA-27 DA1580=
0149008416999992015062117524-02200+040900FM-15+002099999V0201701N004119999999N009999199+02621+02091999999ADDMA1101731999999OC100821REMMET114MOBOB8 METAR XM22 //002 022409 211752Z AUTO 17008G16KT 9999 26/21 A3004      RMK A02 SLPNO T02620209 PA-36 DA1582=
0138008416999992015062118524-02200+040900FM-15+002099999V0201801N003619999999N009999199+02621+02111999999ADDMA1101761999999REMMET111MOBOB8 METAR XM22 //002 022409 211852Z AUTO 18007KT 9999 26/21 A3005      RMK A02 SLPNO T02620211 PA-45 DA1575=
0138008416999992015062119524-02200+040900FM-15+002099999V0201701N003119999999N009999199+02621+02171999999ADDMA1101761999999REMMET111MOBOB8 METAR XM22 //002 022409 211952Z AUTO 17006KT 9999 26/22 A3005      RMK A02 SLPNO T02620217 PA-45 DA1587=
0149008416999992015062120524-02200+040900FM-15+002099999V0201701N004119999999N009999199+02621+02111999999ADDMA1101691999999OC100881REMMET114MOBOB8 METAR XM22 //002 022409 212052Z AUTO 17008G17KT 9999 26/21 A3003      RMK A02 SLPNO T02620211 PA-27 DA1598=
0138008416999992015062121524-02200+040900FM-15+002099999V0201801N003119999999N009999199+02611+02131999999ADDMA1101661999999REMMET111MOBOB8 METAR XM22 //002 022409 212152Z AUTO 18006KT 9999 26/21 A3002      RMK A02 SLPNO T02610213 PA-17 DA1602=
0138008416999992015062122524-02200+040900FM-15+002099999V0201701N002619999999N009999199+02541+02051999999ADDMA1101591999999REMMET111MOBOB8 METAR XM22 //002 022409 212252Z AUTO 17005KT 9999 25/21 A3000      RMK A02 SLPNO T02540205 PA001 DA1531=
0138008416999992015062123524-02200+040900FM-15+002099999V0201801N003119999999N009999199+02561+02211999999ADDMA1101631999999REMMET111MOBOB8 METAR XM22 //002 022409 212352Z AUTO 18006KT 9999 26/22 A3001      RMK A02 SLPNO T02560221 PA-08 DA1572=
0138008416999992015062200524-02200+040900FM-15+002099999V0201801N002119999999N009999199+02541+02251999999ADDMA1101661999999REMMET111MOBOB8 METAR XM22 //002 022409 220052Z AUTO 18004KT 9999 25/22 A3002      RMK A02 SLPNO T02540225 PA-17 DA1547=
0138008416999992015062201524-02200+040900FM-15+002099999V0201801N002619999999N009999199+02571+02201999999ADDMA1101691999999REMMET111MOBOB8 METAR XM22 //002 022409 220152Z AUTO 18005KT 9999 26/22 A3003      RMK A02 SLPNO T02570220 PA-27 DA1559=
0138008416999992015062202524-02200+040900FM-15+002099999V0201801N002119999999N009999199+02531+02181999999ADDMA1101731999999REMMET111MOBOB8 METAR XM22 //002 022409 220252Z AUTO 18004KT 9999 25/22 A3004      RMK A02 SLPNO T02530218 PA-36 DA1498=
0139008416999992015062203524-02200+040900FM-15+002099999V0201801N002619999999N009999199+02601+02181101761ADDMA1101761999999REMMET112MOBOB8 METAR XM22 //002 022409 220352Z AUTO 18005KT 9999 26/22 A3005      RMK A02 SLP176 T02600218 PA-45 DA1566=
0139008416999992015062204524-02200+040900FM-15+002099999V0201801N003619999999N009999199+02671+02101101861ADDMA1101861999999REMMET112MOBOB8 METAR XM22 //002 022409 220452Z AUTO 18007KT 9999 27/21 A3008      RMK A02 SLP186 T02670210 PA-73 DA1596=
0166008416999992015062205524-02200+040900FM-15+002099999V0201701N002119999999N009000199+02441+02271101891ADDAA101003031AW1611MA1101901999999REMMET122MOBOB8 METAR XM22 //002 022409 220552Z AUTO 17004KT 9000 -RA 24/23      A3009 RMK A02 SLP189 P0012 T02440227 PA-82 DA1359=
0166008416999992015062206524-02200+040900FM-15+002099999V0201801N002619999999N009000199+02481+02181101931ADDAA101000731AW1611MA1101931999999REMMET122MOBOB8 METAR XM22 //002 022409 220652Z AUTO 18005KT 9000 -RA 25/22      A3010 RMK A02 SLP193 P0003 T02480218 PA-91 DA1374=
0150008416999992015062207524-02200+040900FM-15+002099999V0201701N003619999999N009999199+02671+02291101891ADDMA1101901999999OC100621REMMET115MOBOB8 METAR XM22 //002 022409 220752Z AUTO 17007G12KT 9999 27/23 A3009      RMK A02 SLP189 T02670229 PA-82 DA1622=
0166008416999992015062208524-02200+040900FM-15+002099999V0201701N002619999999N007000199+02491+02251101821ADDAA101000731AW1611MA1101831999999REMMET122MOBOB8 METAR XM22 //002 022409 220852Z AUTO 17005KT 7000 -RA 25/22      A3007 RMK A02 SLP182 P0003 T02490225 PA-64 DA1433=
0150008416999992015062209524-02200+040900FM-15+002099999V0201701N004619999999N009999199+02801+02321101761ADDMA1101761999999OC100881REMMET115MOBOB8 METAR XM22 //002 022409 220952Z AUTO 17009G17KT 9999 28/23 A3005      RMK A02 SLP176 T02800232 PA-45 DA1822=
0166008416999992015062210524-02200+040900FM-15+002099999V0201701N003619999999N009000199+02461+02051101761ADDAA101000021AW1611MA1101761999999REMMET122MOBOB8 METAR XM22 //002 022409 221052Z AUTO 17007KT 9000 -RA 25/21      A3005 RMK A02 SLP176 P0000 T02460205 PA-45 DA1383=
0166008416999992015062211524-02200+040900FM-15+002099999V0201701N002119999999N009000199+02511+02131101621ADDAA101000021AW1611MA1101631999999REMMET122MOBOB8 METAR XM22 //002 022409 221152Z AUTO 17004KT 9000 -RA 25/21      A3001 RMK A02 SLP162 P0000 T02510213 PA-08 DA1500=
0150008416999992015062212524-02200+040900FM-15+002099999V0201701N004119999999N009999199+02651+02141101591ADDMA1101591999999OC100721REMMET115MOBOB8 METAR XM22 //002 022409 221252Z AUTO 17008G14KT 9999 27/21 A3000      RMK A02 SLP159 T02650214 PA001 DA1671=
0139008416999992015062213524-02200+040900FM-15+002099999V0201701N003619999999N009999199+02681+02241101591ADDMA1101591999999REMMET112MOBOB8 METAR XM22 //002 022409 221352Z AUTO 17007KT 9999 27/22 A3000      RMK A02 SLP159 T02680224 PA001 DA1726=
0139008416999992015062214524-02200+040900FM-15+002099999V0201801N002619999999N009999199+02611+02221101621ADDMA1101631999999REMMET112MOBOB8 METAR XM22 //002 022409 221452Z AUTO 18005KT 9999 26/22 A3001      RMK A02 SLP162 T02610222 PA-08 DA1632=
0139008416999992015062215524-02200+040900FM-15+002099999V0201801N002119999999N009999199+02481+02171101661ADDMA1101661999999REMMET112MOBOB8 METAR XM22 //002 022409 221552Z AUTO 18004KT 9999 25/22 A3002      RMK A02 SLP166 T02480217 PA-17 DA1463=
0139008416999992015062216524-02200+040900FM-15+001099999V0201801N002619999999N009999199+02471+02191101471ADDMA1101461999999REMMET112MOBOB8 METAR XM22 //001 022409 221652Z AUTO 18005KT 9999 25/22 A2996      RMK A02 SLP147 T02470219 PA-27 DA1445=
0139008416999992015062217524-02200+040900FM-15+001099999V0201801N002119999999N009999199+02451+02131101511ADDMA1101491999999REMMET112MOBOB8 METAR XM22 //001 022409 221752Z AUTO 18004KT 9999 25/21 A2997      RMK A02 SLP151 T02450213 PA-36 DA1397=
0139008416999992015062218524-02200+040900FM-15+001099999V0201801N001519999999N009999199+02431+02131101511ADDMA1101491999999REMMET112MOBOB8 METAR XM22 //001 022409 221852Z AUTO 18003KT 9999 24/21 A2997      RMK A02 SLP151 T02430213 PA-36 DA1375=
0139008416999992015062219524-02200+040900FM-15+001099999V0201801N001019999999N009999199+02431+02181101541ADDMA1101521999999REMMET112MOBOB8 METAR XM22 //001 022409 221952Z AUTO 18002KT 9999 24/22 A2998      RMK A02 SLP154 T02430218 PA-45 DA1375=
0139008416999992015062220524-02200+040900FM-15+001099999V0209999C000019999999N009999199+02371+02151101511ADDMA1101491999999REMMET112MOBOB8 METAR XM22 //001 022409 222052Z AUTO 00000KT 9999 24/21 A2997      RMK A02 SLP151 T02370215 PA-36 DA1311=
0139008416999992015062221524-02200+040900FM-15+001099999V0209999C000019999999N009999199+02281+02121101471ADDMA1101461999999REMMET112MOBOB8 METAR XM22 //001 022409 222152Z AUTO 00000KT 9999 23/21 A2996      RMK A02 SLP147 T02280212 PA-27 DA1214=
0139008416999992015062222524-02200+040900FM-15+001099999V0209999C000019999999N009999199+02281+02131101441ADDMA1101421999999REMMET112MOBOB8 METAR XM22 //001 022409 222252Z AUTO 00000KT 9999 23/21 A2995      RMK A02 SLP144 T02280213 PA-17 DA1227=
0139008416999992015062223524-02200+040900FM-15+001099999V0201901N001019999999N009999199+02331+02191101401ADDMA1101391999999REMMET112MOBOB8 METAR XM22 //001 022409 222352Z AUTO 19002KT 9999 23/22 A2994      RMK A02 SLP140 T02330219 PA-08 DA1307=
0166008416999992015062300524-02200+040900FM-15+001099999V0201801N001019999999N009000199+02341+02181101441ADDAA101000021AW1611MA1101421999999REMMET122MOBOB8 METAR XM22 //001 022409 230052Z AUTO 18002KT 9000 -RA 23/22      A2995 RMK A02 SLP144 P0000 T02340218 PA-17 DA1307=
0139008416999992015062301524-02200+040900FM-15+001099999V0201801N001019999999N009999199+02321+02161101441ADDMA1101421999999REMMET112MOBOB8 METAR XM22 //001 022409 230152Z AUTO 18002KT 9999 23/22 A2995      RMK A02 SLP144 T02320216 PA-17 DA1280=
0175008416999992015062302524-02200+040900FM-15+001099999V0201701N002119999999N001000199+02331+02191101541ADDAA101001031AW1101AW2631MA1101521999999REMMET125MOBOB8 METAR XM22 //001 022409 230252Z AUTO 17004KT 1000 +RA BR 23/22      A2998 RMK A02 SLP154 P0004 T02330219 PA-45 DA1262=
0139008416999992015062303524-02200+040900FM-15+001099999V0201901N001519999999N009999199+02311+02141101571ADDMA1101561999999REMMET112MOBOB8 METAR XM22 //001 022409 230352Z AUTO 19003KT 9999 23/21 A2999      RMK A02 SLP157 T02310214 PA-54 DA1217=
0175008416999992015062304524-02200+040900FM-15+001099999V0201901N001019999999N006000199+02361+02211101641ADDAA101001731AW1101AW2611MA1101631999999REMMET125MOBOB8 METAR XM22 //001 022409 230452Z AUTO 19002KT 6000 -RA BR 24/22      A3001 RMK A02 SLP164 P0007 T02360221 PA-73 DA1266=
0175008416999992015062305524-02200+040900FM-15+001099999V0201801N001019999999N009000199+02371+02231101711ADDAA101006631AW1101AW2611MA1101691999999REMMET125MOBOB8 METAR XM22 //001 022409 230552Z AUTO 18002KT 9000 -RA BR 24/22      A3003 RMK A02 SLP171 P0026 T02370223 PA-91 DA1259=
0166008416999992015062306524-02200+040900FM-15+001099999V0201701N002619999999N009000199+02611+02211101711ADDAA101000021AW1611MA1101691999999REMMET122MOBOB8 METAR XM22 //001 022409 230652Z AUTO 17005KT 9000 -RA 26/22      A3003 RMK A02 SLP171 P0000 T02610221 PA-91 DA1527=
0139008416999992015062307524-02200+040900FM-15+001099999V0201801N002619999999N009999199+02711+02261101711ADDMA1101691999999REMMET112MOBOB8 METAR XM22 //001 022409 230752Z AUTO 18005KT 9999 27/23 A3003      RMK A02 SLP171 T02710226 PA-91 DA1651=
0166008416999992015062308524-02200+040900FM-15+001099999V0201801N002619999999N009000199+02771+02241101641ADDAA101000021AW1611MA1101631999999REMMET122MOBOB8 METAR XM22 //001 022409 230852Z AUTO 18005KT 9000 -RA 28/22      A3001 RMK A02 SLP164 P0000 T02770224 PA-73 DA1736=
0150008416999992015062309524-02200+040900FM-15+001099999V0201701N003619999999N009999199+02751+02271101571ADDMA1101561999999OC100671REMMET115MOBOB8 METAR XM22 //001 022409 230952Z AUTO 17007G13KT 9999 28/23 A2999      RMK A02 SLP157 T02750227 PA-54 DA1744=
0177008416999992015062310524-02200+040900FM-15+001099999V0201701N006219999999N009000199+02711+02041101541ADDAA101000021AW1631MA1101521999999OC101131REMMET125MOBOB8 METAR XM22 //001 022409 231052Z AUTO 17012G22KT 9000 +RA 27/20      A2998 RMK A02 SLP154 P0000 T02710204 PA-45 DA1663=
0150008416999992015062311524-02200+040900FM-15+001099999V0201701N003619999999N009999199+02711+02201101441ADDMA1101421999999OC100771REMMET115MOBOB8 METAR XM22 //001 022409 231152Z AUTO 17007G15KT 9999 27/22 A2995      RMK A02 SLP144 T02710220 PA-17 DA1729=
0150008416999992015062312524-02200+040900FM-15+001099999V0201701N004119999999N009999199+02751+02191101401ADDMA1101391999999OC100821REMMET115MOBOB8 METAR XM22 //001 022409 231252Z AUTO 17008G16KT 9999 28/22 A2994      RMK A02 SLP140 T02750219 PA-08 DA1783=
0150008416999992015062313524-02200+040900FM-15+001099999V0201701N005119999999N009999199+02711+02171101401ADDMA1101391999999OC100821REMMET115MOBOB8 METAR XM22 //001 022409 231352Z AUTO 17010G16KT 9999 27/22 A2994      RMK A02 SLP140 T02710217 PA-08 DA1734=
0150008416999992015062314524-02200+040900FM-15+001099999V0201701N003619999999N009999199+02631+02201101441ADDMA1101421999999OC100671REMMET115MOBOB8 METAR XM22 //001 022409 231452Z AUTO 17007G13KT 9999 26/22 A2995      RMK A02 SLP144 T02630220 PA-17 DA1638=
0139008416999992015062315524-02200+040900FM-15+001099999V0201701N003119999999N009999199+02561+02201101511ADDMA1101491999999REMMET112MOBOB8 METAR XM22 //001 022409 231552Z AUTO 17006KT 9999 26/22 A2997      RMK A02 SLP151 T02560220 PA-36 DA1536=
0139008416999992015062316524-02200+040900FM-15+001099999V0201801N001019999999N009999199+02451+02211101511ADDMA1101491999999REMMET112MOBOB8 METAR XM22 //001 022409 231652Z AUTO 18002KT 9999 25/22 A2997      RMK A02 SLP151 T02450221 PA-36 DA1413=
0166008416999992015062317524-02200+040900FM-15+001099999V0201701N002619999999N009000199+02481+02241101571ADDAA101000021AW1611MA1101561999999REMMET122MOBOB8 METAR XM22 //001 022409 231752Z AUTO 17005KT 9000 -RA 25/22      A2999 RMK A02 SLP157 P0000 T02480224 PA-54 DA1433=
0139008416999992015062318524-02200+040900FM-15+001099999V0201701N003119999999N009999199+02501+02211101611ADDMA1101591999999REMMET112MOBOB8 METAR XM22 //001 022409 231852Z AUTO 17006KT 9999 25/22 A3000      RMK A02 SLP161 T02500221 PA-64 DA1436=
0139008416999992015062319524-02200+040900FM-15+001099999V0201701N002619999999N009999199+02501+02231101611ADDMA1101591999999REMMET112MOBOB8 METAR XM22 //001 022409 231952Z AUTO 17005KT 9999 25/22 A3000      RMK A02 SLP161 T02500223 PA-64 DA1441=
0139008416999992015062320524-02200+040900FM-15+001099999V0201701N003119999999N009999199+02551+02221101571ADDMA1101561999999REMMET112MOBOB8 METAR XM22 //001 022409 232052Z AUTO 17006KT 9999 26/22 A2999      RMK A02 SLP157 T02550222 PA-54 DA1506=
0139008416999992015062321524-02200+040900FM-15+001099999V0201701N002119999999N009999199+02511+02191101571ADDMA1101561999999REMMET112MOBOB8 METAR XM22 //001 022409 232152Z AUTO 17004KT 9999 25/22 A2999      RMK A02 SLP157 T02510219 PA-54 DA1456=
0139008416999992015062322524-02200+040900FM-15+001099999V0201601N002119999999N009999199+02511+02221101511ADDMA1101491999999REMMET112MOBOB8 METAR XM22 //001 022409 232252Z AUTO 16004KT 9999 25/22 A2997      RMK A02 SLP151 T02510222 PA-36 DA1484=
0139008416999992015062323524-02200+040900FM-15+001099999V0201701N002119999999N009999199+02451+02151101511ADDMA1101491999999REMMET112MOBOB8 METAR XM22 //001 022409 232352Z AUTO 17004KT 9999 25/21 A2997      RMK A02 SLP151 T02450215 PA-36 DA1401=
0139008416999992015062400524-02200+040900FM-15+001099999V0201801N000519999999N009999199+02371+02151101541ADDMA1101521999999REMMET112MOBOB8 METAR XM22 //001 022409 240052Z AUTO 18001KT 9999 24/21 A2998      RMK A02 SLP154 T02370215 PA-45 DA1299=
0139008416999992015062401524-02200+040900FM-15+001099999V0201601N001519999999N009999199+02451+02191101571ADDMA1101561999999REMMET112MOBOB8 METAR XM22 //001 022409 240152Z AUTO 16003KT 9999 25/22 A2999      RMK A02 SLP157 T02450219 PA-54 DA1388=
0139008416999992015062402524-02200+040900FM-15+001099999V0201801N001519999999N009999199+02411+02121101611ADDMA1101591999999REMMET112MOBOB8 METAR XM22 //001 022409 240252Z AUTO 18003KT 9999 24/21 A3000      RMK A02 SLP161 T02410212 PA-64 DA1316=
0139008416999992015062403524-02200+040900FM-15+001099999V0201601N001519999999N009999199+02431+02111101681ADDMA1101661999999REMMET112MOBOB8 METAR XM22 //001 022409 240352Z AUTO 16003KT 9999 24/21 A3002      RMK A02 SLP168 T02430211 PA-82 DA1314=
0139008416999992015062404524-02200+040900FM-15+001099999V0201601N003619999999N009999199+02651+02161101711ADDMA1101691999999REMMET112MOBOB8 METAR XM22 //001 022409 240452Z AUTO 16007KT 9999 27/22 A3003      RMK A02 SLP171 T02650216 PA-91 DA1562=
0151008416999992015062405524-02200+040900FM-15+001099999V0201601N005119999999N009999199+02761+02141101781ADDMA1101761999999OC100721REMMET116MOBOB8 METAR XM22 //001 022409 240552Z AUTO 16010G14KT 9999 28/21 A3005      RMK A02 SLP178 T02760214 PA-110 DA1659=
0151008416999992015062406524-02200+040900FM-15+001099999V0201701N004619999999N009999199+02811+02111101781ADDMA1101761999999OC100931REMMET116MOBOB8 METAR XM22 //001 022409 240652Z AUTO 17009G18KT 9999 28/21 A3005      RMK A02 SLP178 T02810211 PA-110 DA1709=
0151008416999992015062407524-02200+040900FM-15+001099999V0201601N005719999999N009999199+02831+02081101781ADDMA1101761999999OC100931REMMET116MOBOB8 METAR XM22 //001 022409 240752Z AUTO 16011G18KT 9999 28/21 A3005      RMK A02 SLP178 T02830208 PA-110 DA1726=
0150008416999992015062408524-02200+040900FM-15+001099999V0201601N006219999999N009999199+02841+02091101671ADDMA1101661999999OC101081REMMET115MOBOB8 METAR XM22 //001 022409 240852Z AUTO 16012G21KT 9999 28/21 A3002      RMK A02 SLP167 T02840209 PA-82 DA1774=
0150008416999992015062409524-02200+040900FM-15+001099999V0201601N005719999999N009999199+02851+02131101611ADDMA1101591999999OC101081REMMET115MOBOB8 METAR XM22 //001 022409 240952Z AUTO 16011G21KT 9999 29/21 A3000      RMK A02 SLP161 T02850213 PA-64 DA1814=
0177008416999992015062410524-02200+040900FM-15+001099999V0201601N006219999999N009000199+02861+02101101541ADDAA101000021AW1611MA1101521999999OC100981REMMET125MOBOB8 METAR XM22 //001 022409 241052Z AUTO 16012G19KT 9000 -RA 29/21      A2998 RMK A02 SLP154 P0000 T02860210 PA-45 DA1842=
0150008416999992015062411524-02200+040900FM-15+001099999V0201701N005119999999N009999199+02791+02091101471ADDMA1101461999999OC100821REMMET115MOBOB8 METAR XM22 //001 022409 241152Z AUTO 17010G16KT 9999 28/21 A2996      RMK A02 SLP147 T02790209 PA-27 DA1786=
0150008416999992015062412524-02200+040900FM-15+001099999V0201701N004619999999N009999199+02791+02081101511ADDMA1101491999999OC100771REMMET115MOBOB8 METAR XM22 //001 022409 241252Z AUTO 17009G15KT 9999 28/21 A2997      RMK A02 SLP151 T02790208 PA-36 DA1771=
0177008416999992015062413524-02200+040900FM-15+001099999V0201701N005119999999N009000199+02721+02051101511ADDAA101000021AW1611MA1101491999999OC100931REMMET125MOBOB8 METAR XM22 //001 022409 241352Z AUTO 17010G18KT 9000 -RA 27/21      A2997 RMK A02 SLP151 P0000 T02720205 PA-36 DA1688=
0139008416999992015062414524-02200+040900FM-15+001099999V0201701N003619999999N009999199+02641+02041101541ADDMA1101521999999REMMET112MOBOB8 METAR XM22 //001 022409 241452Z AUTO 17007KT 9999 26/20 A2998      RMK A02 SLP154 T02640204 PA-45 DA1585=
0139008416999992015062415524-02200+040900FM-15+001099999V0201701N002119999999N009999199+02531+02061101541ADDMA1101521999999REMMET112MOBOB8 METAR XM22 //001 022409 241552Z AUTO 17004KT 9999 25/21 A2998      RMK A02 SLP154 T02530206 PA-45 DA1464=
0139008416999992015062416524-02200+040900FM-15+001099999V0201701N002119999999N009999199+02501+02111101611ADDMA1101591999999REMMET112MOBOB8 METAR XM22 //001 022409 241652Z AUTO 17004KT 9999 25/21 A3000      RMK A02 SLP161 T02500211 PA-64 DA1416=
0139008416999992015062417524-02200+040900FM-15+001099999V0201701N002619999999N009999199+02531+02091101671ADDMA1101661999999REMMET112MOBOB8 METAR XM22 //001 022409 241752Z AUTO 17005KT 9999 25/21 A3002      RMK A02 SLP167 T02530209 PA-82 DA1424=
0139008416999992015062418524-02200+040900FM-15+001099999V0201701N001519999999N009999199+02491+02121101671ADDMA1101661999999REMMET112MOBOB8 METAR XM22 //001 022409 241852Z AUTO 17003KT 9999 25/21 A3002      RMK A02 SLP167 T02490212 PA-82 DA1386=
0139008416999992015062419524-02200+040900FM-15+001099999V0201701N001519999999N009999199+02501+02121101671ADDMA1101661999999REMMET112MOBOB8 METAR XM22 //001 022409 241952Z AUTO 17003KT 9999 25/21 A3002      RMK A02 SLP167 T02500212 PA-82 DA1396=
0139008416999992015062420524-02200+040900FM-15+001099999V0201701N001519999999N009999199+02461+02131101671ADDMA1101661999999REMMET112MOBOB8 METAR XM22 //001 022409 242052Z AUTO 17003KT 9999 25/21 A3002      RMK A02 SLP167 T02460213 PA-82 DA1352=
0139008416999992015062421524-02200+040900FM-15+001099999V0201701N003119999999N009999199+02511+02161101611ADDMA1101591999999REMMET112MOBOB8 METAR XM22 //001 022409 242152Z AUTO 17006KT 9999 25/22 A3000      RMK A02 SLP161 T02510216 PA-64 DA1438=
0139008416999992015062422524-02200+040900FM-15+001099999V0201601N002119999999N009999199+02471+02151101571ADDMA1101561999999REMMET112MOBOB8 METAR XM22 //001 022409 242252Z AUTO 16004KT 9999 25/22 A2999      RMK A02 SLP157 T02470215 PA-54 DA1402=
0139008416999992015062423524-02200+040900FM-15+001099999V0201701N002619999999N009999199+02451+02061101511ADDMA1101491999999REMMET112MOBOB8 METAR XM22 //001 022409 242352Z AUTO 17005KT 9999 25/21 A2997      RMK A02 SLP151 T02450206 PA-36 DA1384=
0139008416999992015062500524-02200+040900FM-15+001099999V0201701N003619999999N009999199+02521+02041101511ADDMA1101491999999REMMET112MOBOB8 METAR XM22 //001 022409 250052Z AUTO 17007KT 9999 25/20 A2997      RMK A02 SLP151 T02520204 PA-36 DA1460=
0139008416999992015062501524-02200+040900FM-15+001099999V0201601N003119999999N009999199+02481+01981101571ADDMA1101561999999REMMET112MOBOB8 METAR XM22 //001 022409 250152Z AUTO 16006KT 9999 25/20 A2999      RMK A02 SLP157 T02480198 PA-54 DA1381=
0139008416999992015062502524-02200+040900FM-15+001099999V0201701N002119999999N009999199+02431+01991101641ADDMA1101631999999REMMET112MOBOB8 METAR XM22 //001 022409 250252Z AUTO 17004KT 9999 24/20 A3001      RMK A02 SLP164 T02430199 PA-73 DA1303=
0139008416999992015062503524-02200+040900FM-15+001099999V0201701N002119999999N009999199+02441+02001101681ADDMA1101661999999REMMET112MOBOB8 METAR XM22 //001 022409 250352Z AUTO 17004KT 9999 24/20 A3002      RMK A02 SLP168 T02440200 PA-82 DA1305=
0140008416999992015062504524-02200+040900FM-15+001099999V0201701N003619999999N009999199+02661+02031101781ADDMA1101761999999REMMET113MOBOB8 METAR XM22 //001 022409 250452Z AUTO 17007KT 9999 27/20 A3005      RMK A02 SLP178 T02660203 PA-110 DA1526=
0151008416999992015062505524-02200+040900FM-15+001099999V0201601N005119999999N009999199+02741+02051101781ADDMA1101761999999OC100821REMMET116MOBOB8 METAR XM22 //001 022409 250552Z AUTO 16010G16KT 9999 27/21 A3005      RMK A02 SLP178 T02740205 PA-110 DA1620=
0178008416999992015062506524-02200+040900FM-15+001099999V0201701N005119999999N009000199+02791+02081101811ADDAA101000021AW1611MA1101791999999OC100931REMMET126MOBOB8 METAR XM22 //001 022409 250652Z AUTO 17010G18KT 9000 -RA 28/21      A3006 RMK A02 SLP181 P0000 T02790208 PA-119 DA1669=
0151008416999992015062507524-02200+040900FM-15+001099999V0201701N004619999999N009999199+02871+02051101781ADDMA1101761999999OC100771REMMET116MOBOB8 METAR XM22 //001 022409 250752Z AUTO 17009G15KT 9999 29/21 A3005      RMK A02 SLP178 T02870205 PA-110 DA1766=
0150008416999992015062508524-02200+040900FM-15+001099999V0201701N004119999999N009999199+02901+02061101711ADDMA1101691999999OC100771REMMET115MOBOB8 METAR XM22 //001 022409 250852Z AUTO 17008G15KT 9999 29/21 A3003      RMK A02 SLP171 T02900206 PA-91 DA1824=
0150008416999992015062509524-02200+040900FM-15+001099999V0201701N004619999999N009999199+02871+02101101641ADDMA1101631999999OC100821REMMET115MOBOB8 METAR XM22 //001 022409 250952Z AUTO 17009G16KT 9999 29/21 A3001      RMK A02 SLP164 T02870210 PA-73 DA1819=
0150008416999992015062510524-02200+040900FM-15+001099999V0201701N004119999999N009999199+02891+02121101571ADDMA1101561999999OC100771REMMET115MOBOB8 METAR XM22 //001 022409 251052Z AUTO 17008G15KT 9999 29/21 A2999      RMK A02 SLP157 T02890212 PA-54 DA1869=
0150008416999992015062511524-02200+040900FM-15+001099999V0201701N005119999999N009999199+02841+02091101511ADDMA1101491999999OC100881REMMET115MOBOB8 METAR XM22 //001 022409 251152Z AUTO 17010G17KT 9999 28/21 A2997      RMK A02 SLP151 T02840209 PA-36 DA1830=
0150008416999992015062512524-02200+040900FM-15+001099999V0201701N003619999999N009999199+02781+02121101511ADDMA1101491999999OC100721REMMET115MOBOB8 METAR XM22 //001 022409 251252Z AUTO 17007G14KT 9999 28/21 A2997      RMK A02 SLP151 T02780212 PA-36 DA1770=
0150008416999992015062513524-02200+040900FM-15+001099999V0201701N004119999999N009999199+02711+02101101511ADDMA1101491999999OC100771REMMET115MOBOB8 METAR XM22 //001 022409 251352Z AUTO 17008G15KT 9999 27/21 A2997      RMK A02 SLP151 T02710210 PA-36 DA1687=
0139008416999992015062514524-02200+040900FM-15+001099999V0201701N003619999999N009999199+02631+02101101511ADDMA1101491999999REMMET112MOBOB8 METAR XM22 //001 022409 251452Z AUTO 17007KT 9999 26/21 A2997      RMK A02 SLP151 T02630210 PA-36 DA1596=
0139008416999992015062515524-02200+040900FM-15+001099999V0201701N003119999999N009999199+02591+02111101571ADDMA1101561999999REMMET112MOBOB8 METAR XM22 //001 022409 251552Z AUTO 17006KT 9999 26/21 A2999      RMK A02 SLP157 T02590211 PA-54 DA1530=
0139008416999992015062516524-02200+040900FM-15+001099999V0201701N003119999999N009999199+02581+02121101611ADDMA1101591999999REMMET112MOBOB8 METAR XM22 //001 022409 251652Z AUTO 17006KT 9999 26/21 A3000      RMK A02 SLP161 T02580212 PA-64 DA1509=
0139008416999992015062517524-02200+040900FM-15+001099999V0201701N002619999999N009999199+02551+02121101641ADDMA1101631999999REMMET112MOBOB8 METAR XM22 //001 022409 251752Z AUTO 17005KT 9999 26/21 A3001      RMK A02 SLP164 T02550212 PA-73 DA1465=
0139008416999992015062518524-02200+040900FM-15+001099999V0201701N003119999999N009999199+02551+02121101671ADDMA1101661999999REMMET112MOBOB8 METAR XM22 //001 022409 251852Z AUTO 17006KT 9999 26/21 A3002      RMK A02 SLP167 T02550212 PA-82 DA1452=
0139008416999992015062519524-02200+040900FM-15+001099999V0201801N002619999999N009999199+02551+02111101671ADDMA1101661999999REMMET112MOBOB8 METAR XM22 //001 022409 251952Z AUTO 18005KT 9999 26/21 A3002      RMK A02 SLP167 T02550211 PA-82 DA1451=
0139008416999992015062520524-02200+040900FM-15+001099999V0201701N002619999999N009999199+02541+02101101611ADDMA1101591999999REMMET112MOBOB8 METAR XM22 //001 022409 252052Z AUTO 17005KT 9999 25/21 A3000      RMK A02 SLP161 T02540210 PA-64 DA1460=
0139008416999992015062521524-02200+040900FM-15+001099999V0201701N003119999999N009999199+02561+02111101571ADDMA1101561999999REMMET112MOBOB8 METAR XM22 //001 022409 252152Z AUTO 17006KT 9999 26/21 A2999      RMK A02 SLP157 T02560211 PA-54 DA1497=
0139008416999992015062522524-02200+040900FM-15+001099999V0201701N003119999999N009999199+02541+02131101511ADDMA1101491999999REMMET112MOBOB8 METAR XM22 //001 022409 252252Z AUTO 17006KT 9999 25/21 A2997      RMK A02 SLP151 T02540213 PA-36 DA1501=
0139008416999992015062523524-02200+040900FM-15+001099999V0201701N002619999999N009999199+02541+02111101511ADDMA1101491999999REMMET112MOBOB8 METAR XM22 //001 022409 252352Z AUTO 17005KT 9999 25/21 A2997      RMK A02 SLP151 T02540211 PA-36 DA1496=
0150008416999992015062600524-02200+040900FM-15+001099999V0201701N003619999999N009999199+02551+02071101511ADDMA1101491999999OC100671REMMET115MOBOB8 METAR XM22 //001 022409 260052Z AUTO 17007G13KT 9999 26/21 A2997      RMK A02 SLP151 T02550207 PA-36 DA1500=
0139008416999992015062601524-02200+040900FM-15+001099999V0201701N003619999999N009999199+02541+02121101571ADDMA1101561999999REMMET112MOBOB8 METAR XM22 //001 022409 260152Z AUTO 17007KT 9999 25/21 A2999      RMK A02 SLP157 T02540212 PA-54 DA1475=
0139008416999992015062602524-02200+040900FM-15+001099999V0201801N003119999999N009999199+02531+02101101611ADDMA1101591999999REMMET112MOBOB8 METAR XM22 //001 022409 260252Z AUTO 18006KT 9999 25/21 A3000      RMK A02 SLP161 T02530210 PA-64 DA1450=
0139008416999992015062603524-02200+040900FM-15+001099999V0201701N001519999999N009999199+02531+02131101671ADDMA1101661999999REMMET112MOBOB8 METAR XM22 //001 022409 260352Z AUTO 17003KT 9999 25/21 A3002      RMK A02 SLP167 T02530213 PA-82 DA1431=
0140008416999992015062604524-02200+040900FM-15+001099999V0201701N003119999999N009999199+02661+02161101741ADDMA1101731999999REMMET113MOBOB8 METAR XM22 //001 022409 260452Z AUTO 17006KT 9999 27/22 A3004      RMK A02 SLP174 T02660216 PA-100 DA1562=
0151008416999992015062605524-02200+040900FM-15+001099999V0201601N004619999999N009999199+02761+02171101781ADDMA1101761999999OC100881REMMET116MOBOB8 METAR XM22 //001 022409 260552Z AUTO 16009G17KT 9999 28/22 A3005      RMK A02 SLP178 T02760217 PA-110 DA1665=
0151008416999992015062606524-02200+040900FM-15+001099999V0201701N005119999999N009999199+02841+02161101811ADDMA1101791999999OC100981REMMET116MOBOB8 METAR XM22 //001 022409 260652Z AUTO 17010G19KT 9999 28/22 A3006      RMK A02 SLP181 T02840216 PA-119 DA1743=
0151008416999992015062607524-02200+040900FM-15+001099999V0201701N005719999999N009999199+02821+02131101781ADDMA1101761999999OC100981REMMET116MOBOB8 METAR XM22 //001 022409 260752Z AUTO 17011G19KT 9999 28/21 A3005      RMK A02 SLP178 T02820213 PA-110 DA1725=
0151008416999992015062608524-02200+040900FM-15+001099999V0201701N005119999999N009999199+02871+02071101741ADDMA1101731999999OC101031REMMET116MOBOB8 METAR XM22 //001 022409 260852Z AUTO 17010G20KT 9999 29/21 A3004      RMK A02 SLP174 T02870207 PA-100 DA1780=
0150008416999992015062609524-02200+040900FM-15+001099999V0201701N004619999999N009999199+02911+02001101671ADDMA1101661999999OC100881REMMET115MOBOB8 METAR XM22 //001 022409 260952Z AUTO 17009G17KT 9999 29/20 A3002      RMK A02 SLP167 T02910200 PA-82 DA1834=
0150008416999992015062610524-02200+040900FM-15+001099999V0201701N004619999999N009999199+02891+02091101611ADDMA1101591999999OC100881REMMET115MOBOB8 METAR XM22 //001 022409 261052Z AUTO 17009G17KT 9999 29/21 A3000      RMK A02 SLP161 T02890209 PA-64 DA1852=
0150008416999992015062611524-02200+040900FM-15+001099999V0201701N004119999999N009999199+02871+02051101541ADDMA1101521999999OC100771REMMET115MOBOB8 METAR XM22 //001 022409 261152Z AUTO 17008G15KT 9999 29/21 A2998      RMK A02 SLP154 T02870205 PA-45 DA1845=
0150008416999992015062612524-02200+040900FM-15+001099999V0201701N004119999999N009999199+02821+02051101471ADDMA1101461999999OC100771REMMET115MOBOB8 METAR XM22 //001 022409 261252Z AUTO 17008G15KT 9999 28/21 A2996      RMK A02 SLP147 T02820205 PA-27 DA1812=
0150008416999992015062613524-02200+040900FM-15+001099999V0201701N003619999999N009999199+02711+02051101471ADDMA1101461999999OC100671REMMET115MOBOB8 METAR XM22 //001 022409 261352Z AUTO 17007G13KT 9999 27/21 A2996      RMK A02 SLP147 T02710205 PA-27 DA1688=
0166008416999992015062614524-02200+040900FM-15+001099999V0201701N003119999999N009000199+02621+02041101511ADDAA101000021AW1611MA1101491999999REMMET122MOBOB8 METAR XM22 //001 022409 261452Z AUTO 17006KT 9000 -RA 26/20      A2997 RMK A02 SLP151 P0000 T02620204 PA-36 DA1573=
0139008416999992015062615524-02200+040900FM-15+001099999V0201701N002619999999N009999199+02561+02091101541ADDMA1101521999999REMMET112MOBOB8 METAR XM22 //001 022409 261552Z AUTO 17005KT 9999 26/21 A2998      RMK A02 SLP154 T02560209 PA-45 DA1503=
0139008416999992015062616524-02200+040900FM-15+001099999V0201701N002619999999N009999199+02561+02111101571ADDMA1101561999999REMMET112MOBOB8 METAR XM22 //001 022409 261652Z AUTO 17005KT 9999 26/21 A2999      RMK A02 SLP157 T02560211 PA-54 DA1496=
0139008416999992015062617524-02200+040900FM-15+001099999V0201701N003119999999N009999199+02541+02081101611ADDMA1101591999999REMMET112MOBOB8 METAR XM22 //001 022409 261752Z AUTO 17006KT 9999 25/21 A3000      RMK A02 SLP161 T02540208 PA-64 DA1457=
0139008416999992015062618524-02200+040900FM-15+001099999V0201701N003119999999N009999199+02551+02071101611ADDMA1101591999999REMMET112MOBOB8 METAR XM22 //001 022409 261852Z AUTO 17006KT 9999 26/21 A3000      RMK A02 SLP161 T02550207 PA-64 DA1466=
0139008416999992015062619524-02200+040900FM-15+001099999V0201701N003119999999N009999199+02551+02051101571ADDMA1101561999999REMMET112MOBOB8 METAR XM22 //001 022409 261952Z AUTO 17006KT 9999 26/21 A2999      RMK A02 SLP157 T02550205 PA-54 DA1474=
0139008416999992015062620524-02200+040900FM-15+001099999V0201701N002619999999N009999199+02551+02051101571ADDMA1101561999999REMMET112MOBOB8 METAR XM22 //001 022409 262052Z AUTO 17005KT 9999 26/20 A2999      RMK A02 SLP157 T02550205 PA-54 DA1473=
0139008416999992015062621524-02200+040900FM-15+001099999V0201801N002119999999N009999199+02531+02041101541ADDMA1101521999999REMMET112MOBOB8 METAR XM22 //001 022409 262152Z AUTO 18004KT 9999 25/20 A2998      RMK A02 SLP154 T02530204 PA-45 DA1461=
0139008416999992015062622524-02200+040900FM-15+001099999V0201701N002619999999N009999199+02521+02041101511ADDMA1101491999999REMMET112MOBOB8 METAR XM22 //001 022409 262252Z AUTO 17005KT 9999 25/20 A2997      RMK A02 SLP151 T02520204 PA-36 DA1460=
0139008416999992015062623524-02200+040900FM-15+001099999V0201701N002619999999N009999199+02511+02021101471ADDMA1101461999999REMMET112MOBOB8 METAR XM22 //001 022409 262352Z AUTO 17005KT 9999 25/20 A2996      RMK A02 SLP147 T02510202 PA-27 DA1457=
0139008416999992015062700524-02200+040900FM-15+001099999V0201801N002119999999N009999199+02481+02041101471ADDMA1101461999999REMMET112MOBOB8 METAR XM22 //001 022409 270052Z AUTO 18004KT 9999 25/20 A2996      RMK A02 SLP147 T02480204 PA-27 DA1426=
0139008416999992015062701524-02200+040900FM-15+001099999V0201701N002619999999N009999199+02501+02031101511ADDMA1101491999999REMMET112MOBOB8 METAR XM22 //001 022409 270152Z AUTO 17005KT 9999 25/20 A2997      RMK A02 SLP151 T02500203 PA-36 DA1436=
0139008416999992015062702524-02200+040900FM-15+001099999V0201701N002619999999N009999199+02521+02081101541ADDMA1101521999999REMMET112MOBOB8 METAR XM22 //001 022409 270252Z AUTO 17005KT 9999 25/21 A2998      RMK A02 SLP154 T02520208 PA-45 DA1457=
0139008416999992015062703524-02200+040900FM-15+001099999V0201701N003619999999N009999199+02531+02041101571ADDMA1101561999999REMMET112MOBOB8 METAR XM22 //001 022409 270352Z AUTO 17007KT 9999 25/20 A2999      RMK A02 SLP157 T02530204 PA-54 DA1449=
0139008416999992015062704524-02200+040900FM-15+001099999V0201701N003619999999N009999199+02651+02081101641ADDMA1101631999999REMMET112MOBOB8 METAR XM22 //001 022409 270452Z AUTO 17007KT 9999 27/21 A3001      RMK A02 SLP164 T02650208 PA-73 DA1568=
0151008416999992015062705524-02200+040900FM-15+001099999V0201701N005119999999N009999199+02751+02121101741ADDMA1101731999999OC100931REMMET116MOBOB8 METAR XM22 //001 022409 270552Z AUTO 17010G18KT 9999 28/21 A3004      RMK A02 SLP174 T02750212 PA-100 DA1655=
0151008416999992015062706524-02200+040900FM-15+001099999V0201701N005119999999N009999199+02821+02031101781ADDMA1101761999999OC100881REMMET116MOBOB8 METAR XM22 //001 022409 270652Z AUTO 17010G17KT 9999 28/20 A3005      RMK A02 SLP178 T02820203 PA-110 DA1705=
0151008416999992015062707524-02200+040900FM-15+001099999V0201801N004119999999N009999199+02831+02101101781ADDMA1101761999999OC100721REMMET116MOBOB8 METAR XM22 //001 022409 270752Z AUTO 18008G14KT 9999 28/21 A3005      RMK A02 SLP178 T02830210 PA-110 DA1731=
0166008416999992015062708524-02200+040900FM-15+001099999V0201701N003119999999N006000199+02571+02311101711ADDAA101003031AW1611MA1101691999999REMMET122MOBOB8 METAR XM22 //001 022409 270852Z AUTO 17006KT 6000 -RA 26/23      A3003 RMK A02 SLP171 P0012 T02570231 PA-91 DA1503=
0150008416999992015062709524-02200+040900FM-15+001099999V0201701N005119999999N009999199+02711+02091101641ADDMA1101631999999OC100881REMMET115MOBOB8 METAR XM22 //001 022409 270952Z AUTO 17010G17KT 9999 27/21 A3001      RMK A02 SLP164 T02710209 PA-73 DA1639=
0150008416999992015062710524-02200+040900FM-15+001099999V0201701N004619999999N009999199+02831+02021101571ADDMA1101561999999OC100881REMMET115MOBOB8 METAR XM22 //001 022409 271052Z AUTO 17009G17KT 9999 28/20 A2999      RMK A02 SLP157 T02830202 PA-54 DA1783=
0150008416999992015062711524-02200+040900FM-15+001099999V0201701N004619999999N009999199+02811+02091101511ADDMA1101491999999OC100931REMMET115MOBOB8 METAR XM22 //001 022409 271152Z AUTO 17009G18KT 9999 28/21 A2997      RMK A02 SLP151 T02810209 PA-36 DA1797=
0150008416999992015062712524-02200+040900FM-15+001099999V0201801N004119999999N009999199+02751+02071101511ADDMA1101491999999OC100771REMMET115MOBOB8 METAR XM22 //001 022409 271252Z AUTO 18008G15KT 9999 28/21 A2997      RMK A02 SLP151 T02750207 PA-36 DA1726=
0150008416999992015062713524-02200+040900FM-15+001099999V0201701N004119999999N009999199+02711+02091101511ADDMA1101491999999OC100771REMMET115MOBOB8 METAR XM22 //001 022409 271352Z AUTO 17008G15KT 9999 27/21 A2997      RMK A02 SLP151 T02710209 PA-36 DA1684=
0139008416999992015062714524-02200+040900FM-15+001099999V0201701N003619999999N009999199+02641+02061101511ADDMA1101491999999REMMET112MOBOB8 METAR XM22 //001 022409 271452Z AUTO 17007KT 9999 26/21 A2997      RMK A02 SLP151 T02640206 PA-36 DA1599=
0139008416999992015062715524-02200+040900FM-15+001099999V0201701N002619999999N009999199+02561+02071101511ADDMA1101491999999REMMET112MOBOB8 METAR XM22 //001 022409 271552Z AUTO 17005KT 9999 26/21 A2997      RMK A02 SLP151 T02560207 PA-36 DA1512=
0139008416999992015062716524-02200+040900FM-15+001099999V0201701N003119999999N009999199+02551+02151101571ADDMA1101561999999REMMET112MOBOB8 METAR XM22 //001 022409 271652Z AUTO 17006KT 9999 26/22 A2999      RMK A02 SLP157 T02550215 PA-54 DA1493=
0139008416999992015062717524-02200+040900FM-15+001099999V0201701N002619999999N009999199+02561+02161101611ADDMA1101591999999REMMET112MOBOB8 METAR XM22 //001 022409 271752Z AUTO 17005KT 9999 26/22 A3000      RMK A02 SLP161 T02560216 PA-64 DA1495=
0139008416999992015062718524-02200+040900FM-15+001099999V0201701N003119999999N009999199+02561+02151101611ADDMA1101591999999REMMET112MOBOB8 METAR XM22 //001 022409 271852Z AUTO 17006KT 9999 26/21 A3000      RMK A02 SLP161 T02560215 PA-64 DA1492=
0139008416999992015062719524-02200+040900FM-15+001099999V0201701N003119999999N009999199+02561+02161101611ADDMA1101591999999REMMET112MOBOB8 METAR XM22 //001 022409 271952Z AUTO 17006KT 9999 26/22 A3000      RMK A02 SLP161 T02560216 PA-64 DA1495=
0139008416999992015062720524-02200+040900FM-15+001099999V0201701N003619999999N009999199+02561+02181101571ADDMA1101561999999REMMET112MOBOB8 METAR XM22 //001 022409 272052Z AUTO 17007KT 9999 26/22 A2999      RMK A02 SLP157 T02560218 PA-54 DA1510=
0139008416999992015062721524-02200+040900FM-15+001099999V0201701N003619999999N009999199+02571+02151101541ADDMA1101521999999REMMET112MOBOB8 METAR XM22 //001 022409 272152Z AUTO 17007KT 9999 26/22 A2998      RMK A02 SLP154 T02570215 PA-45 DA1527=
0139008416999992015062722524-02200+040900FM-15+001099999V0201701N003619999999N009999199+02561+02141101471ADDMA1101461999999REMMET112MOBOB8 METAR XM22 //001 022409 272252Z AUTO 17007KT 9999 26/21 A2996      RMK A02 SLP147 T02560214 PA-27 DA1536=
0139008416999992015062723524-02200+040900FM-15+001099999V0201701N003119999999N009999199+02541+02171101441ADDMA1101421999999REMMET112MOBOB8 METAR XM22 //001 022409 272352Z AUTO 17006KT 9999 25/22 A2995      RMK A02 SLP144 T02540217 PA-17 DA1531=
0139008416999992015062800524-02200+040900FM-15+001099999V0201701N003119999999N009999199+02551+02151101441ADDMA1101421999999REMMET112MOBOB8 METAR XM22 //001 022409 280052Z AUTO 17006KT 9999 26/22 A2995      RMK A02 SLP144 T02550215 PA-17 DA1539=
0139008416999992015062801524-02200+040900FM-15+001099999V0201701N002619999999N009999199+02531+02131101441ADDMA1101421999999REMMET112MOBOB8 METAR XM22 //001 022409 280152Z AUTO 17005KT 9999 25/21 A2995      RMK A02 SLP144 T02530213 PA-17 DA1511=
0139008416999992015062802524-02200+040900FM-15+001099999V0201701N002619999999N009999199+02511+02151101541ADDMA1101521999999REMMET112MOBOB8 METAR XM22 //001 022409 280252Z AUTO 17005KT 9999 25/22 A2998      RMK A02 SLP154 T02510215 PA-45 DA1459=
