0089010020999992015010103004+80050+016250FM-12+000899999V0201001N007019999999N999999999-00291-00391098791ADDMA1999999098691MD1710081+9999REMSYN04801002 46/// /1007 11029 21039 39869 49879 57008=
0113010020999992015010106004+80050+016250FM-12+000899999V0201101N007019999999N999999999-00271-00341098711ADDMA1999999098601MD1810081+9999OD139901001999REMSYN05801002 46/// /1107 11027 21034 39860 49871 58008 333 91110=
0089010020999992015010109004+80050+016250FM-12+000899999V0201101N009019999999N999999999-00261-00321098641ADDMA1999999098531MD1710071+9999REMSYN04801002 46/// /1109 11026 21032 39853 49864 57007=
0132010020999992015010112004+80050+016250FM-12+000899999V0201101N007019999999N999999999-00221-00311098611ADDMA1999999098511MD1790039+9999OD139901201999REMSYN05801002 46/// /1107 11022 21031 39851 49861 54002 333 91112=EQDQ01.2    3APC3  
0089010020999992015010115004+80050+016250FM-12+000899999V0201201N009019999999N999999999-00211-00311098511ADDMA1999999098401MD1610101+9999REMSYN04801002 46/// /1209 11021 21031 39840 49851 56010=
0132010020999992015010118004+80050+016250FM-12+000899999V0201201N010019999999N999999999-00271-00381098431ADDKA1120M-00211MA1999999098331MD1710081+9999OD139901201999REMSYN06401002 46/// /1210 11027 21038 39833 49843 57008 333 11021 91112=
0089010020999992015010200004+80050+016250FM-12+000899999V0201401N004019999999N999999999-00501-00621098171ADDMA1999999098061MD1710161+9999REMSYN04801002 46/// /1404 11050 21062 39806 49817 57016=
0089010020999992015010203004+80050+016250FM-12+000899999V0201301N004019999999N999999999-00381-00531098101ADDMA1999999097991MD1710071+9999REMSYN04801002 46/// /1304 11038 21053 39799 49810 57007=
0113010020999992015010206004+80050+016250FM-12+000899999V0201201N008019999999N999999999-00421-00561098041ADDMA1999999097931MD1710061+9999OD139901001999REMSYN05801002 46/// /1208 11042 21056 39793 49804 57006 333 91110=
0089010020999992015010209004+80050+016250FM-12+000899999V0201101N008019999999N999999999-00281-00391098091ADDMA1999999097981MD1210051+9999REMSYN04801002 46/// /1108 11028 21039 39798 49809 52005=
0113010020999992015010212004+80050+016250FM-12+000899999V0200901N007019999999N999999999-00231-00341098121ADDMA1999999098021MD1310031+9999OD139901401999REMSYN05801002 46/// /0907 11023 21034 39802 49812 53003 333 91114=
0089010020999992015010215004+80050+016250FM-12+000899999V0200901N006019999999N999999999-00171-00281098121ADDMA1999999098011MD1410001+9999REMSYN04801002 46/// /0906 11017 21028 39801 49812 54000=
0132010020999992015010218004+80050+016250FM-12+000899999V0201301N014019999999N999999999-00241-00331098111ADDKA1120M-00161MA1999999098001MD1990011+9999OD139901801999REMSYN06401002 46/// /1314 11024 21033 39800 49811 50001 333 11016 91118=
0089010020999992015010221004+80050+016250FM-12+000899999V0201201N014019999999N999999999-00211-00281098291ADDMA1999999098181MD1310181+9999REMSYN04801002 46/// /1214 11021 21028 39818 49829 53018=
0113010020999992015010300004+80050+016250FM-12+000899999V0201201N011019999999N999999999-00161-00221098351ADDMA1999999098251MD1210071+9999OD139901801999REMSYN05801002 46/// /1211 11016 21022 39825 49835 52007 333 91118=
0089010020999992015010303004+80050+016250FM-12+000899999V0202101N004019999999N999999999-00221-00311098491ADDMA1999999098381MD1110141+9999REMSYN04801002 46/// /2104 11022 21031 39838 49849 51014=
0132010020999992015010306004+80050+016250FM-12+000899999V0202301N002019999999N999999999-00211-00281098761ADDKA1240N-00261MA1999999098651MD1210271+9999OD139901201999REMSYN06401002 46/// /2302 11021 21028 39865 49876 52027 333 21026 91112=
0089010020999992015010309004+80050+016250FM-12+000899999V0201501N007019999999N999999999-00061-00121099101ADDMA1999999098991MD1310341+9999REMSYN04801002 46/// /1507 11006 21012 39899 49910 53034=
0113010020999992015010312004+80050+016250FM-12+000899999V0201501N015019999999N999999999-00141-00291099341ADDMA1999999099241MD1310241+9999OD139901701999REMSYN05801002 46/// /1515 11014 21029 39924 49934 53024 333 91117=
0089010020999992015010315004+80050+016250FM-12+000899999V0201401N015019999999N999999999-00211-00361099611ADDMA1999999099501MD1310271+9999REMSYN04801002 46/// /1415 11021 21036 39950 49961 53027=
0132010020999992015010318004+80050+016250FM-12+000899999V0201401N013019999999N999999999-00341-00541099881ADDKA1120M-00051MA1999999099771MD1210271+9999OD139901701999REMSYN06401002 46/// /1413 11034 21054 39977 49988 52027 333 11005 91117=
0089010020999992015010321004+80050+016250FM-12+000899999V0201401N013019999999N999999999-00411-00681100171ADDMA1999999100061MD1210281+9999REMSYN04801002 46/// /1413 11041 21068 30006 40017 52028=
0113010020999992015010400004+80050+016250FM-12+000899999V0201401N009019999999N999999999-00531-00941100441ADDMA1999999100331MD1210271+9999OD139901601999REMSYN05801002 46/// /1409 11053 21094 30033 40044 52027 333 91116=
0089010020999992015010403004+80050+016250FM-12+000899999V0201501N007019999999N999999999-00551-00981100671ADDMA1999999100561MD1210231+9999REMSYN04801002 46/// /1507 11055 21098 30056 40067 52023=
0132010020999992015010406004+80050+016250FM-12+000899999V0201601N006019999999N999999999-00621-01161100831ADDKA1240N-00681MA1999999100731MD1210171+9999OD139901001999REMSYN06401002 46/// /1606 11062 21116 30073 40083 52017 333 21068 91110=
0089010020999992015010409004+80050+016250FM-12+000899999V0201401N003019999999N999999999-00471-01151101051ADDMA1999999100941MD1210211+9999REMSYN04801002 46/// /1403 11047 21115 30094 40105 52021=
0113010020999992015010412004+80050+016250FM-12+000899999V0201501N004019999999N999999999-00441-01141101191ADDMA1999999101091MD1210151+9999OD139900801999REMSYN05801002 46/// /1504 11044 21114 30109 40119 52015 333 91108=
0089010020999992015010415004+80050+016250FM-12+000899999V0201601N005019999999N999999999-00441-01121101321ADDMA1999999101211MD1210131+9999REMSYN04801002 46/// /1605 11044 21112 30121 40132 52013=
0132010020999992015010418004+80050+016250FM-12+000899999V0202001N007019999999N999999999-00411-00891101431ADDKA1120M-00331MA1999999101321MD1210111+9999OD139900801999REMSYN06401002 46/// /2007 11041 21089 30132 40143 52011 333 11033 91108=
0089010020999992015010421004+80050+016250FM-12+000899999V0202101N007019999999N999999999-00451-00751101531ADDMA1999999101421MD1210101+9999REMSYN04801002 46/// /2107 11045 21075 30142 40153 52010=
0113010020999992015010500004+80050+016250FM-12+000899999V0202001N009019999999N999999999-00391-00771101591ADDMA1999999101481MD1310061+9999OD139900901999REMSYN05801002 46/// /2009 11039 21077 30148 40159 53006 333 91109=
0089010020999992015010503004+80050+016250FM-12+000899999V0202901N006019999999N999999999-00381-00581101721ADDMA1999999101611MD1310141+9999REMSYN04801002 46/// /2906 11038 21058 30161 40172 53014=
0089010020999992015010506004+80050+016250FM-12+000899999V0203001N007019999999N999999999-00521-00641101781ADDMA1999999101671MD1210051+9999REMSYN04801002 46/// /3007 11052 21064 30167 40178 52005=
0089010020999992015010509004+80050+016250FM-12+000899999V0203001N006019999999N999999999-00611-00761101931ADDMA1999999101821MD1310151+9999REMSYN04801002 46/// /3006 11061 21076 30182 40193 53015=
0113010020999992015010512004+80050+016250FM-12+000899999V0202801N005019999999N999999999-00571-00761102001ADDMA1999999101891MD1210071+9999OD139900901999REMSYN05801002 46/// /2805 11057 21076 30189 40200 52007 333 91109=
0108010020999992015010515004+80050+016250FM-12+000899999V0203001N002019999999N999999999-00591-00951101991ADDMA1999999101881MD1790019+9999REMSYN04801002 46/// /3002 11059 21095 30188 40199 54001=EQDQ01.1    3APC3  
0132010020999992015010518004+80050+016250FM-12+000899999V0201401N001019999999N999999999-00631-00931101871ADDKA1120M-00511MA1999999101761MD1710121+9999OD139900701999REMSYN06401002 46/// /1401 11063 21093 30176 40187 57012 333 11051 91107=
0089010020999992015010521004+80050+016250FM-12+000899999V0201501N003019999999N999999999-00621-00851101761ADDMA1999999101651MD1710111+9999REMSYN04801002 46/// /1503 11062 21085 30165 40176 57011=
0113010020999992015010600004+80050+016250FM-12+000899999V0201501N005019999999N999999999-00581-00771101581ADDMA1999999101471MD1710181+9999OD139900501999REMSYN05801002 46/// /1505 11058 21077 30147 40158 57018 333 91105=
0089010020999992015010601004+80050+016250FM-12+000899999V0201301N004019999999N999999999-00591-00791101511ADDMA1999999101401MD1610161+9999REMSYN04801002 46/// /1304 11059 21079 30140 40151 56016=
0089010020999992015010602004+80050+016250FM-12+000899999V0201401N004019999999N999999999-00521-00701101451ADDMA1999999101341MD1710201+9999REMSYN04801002 46/// /1404 11052 21070 30134 40145 57020=
0089010020999992015010603004+80050+016250FM-12+000899999V0201401N003019999999N999999999-00481-00711101391ADDMA1999999101281MD1710191+9999REMSYN04801002 46/// /1403 11048 21071 30128 40139 57019=
0089010020999992015010604004+80050+016250FM-12+000899999V0201401N004019999999N999999999-00581-00841101291ADDMA1999999101181MD1610221+9999REMSYN04801002 46/// /1404 11058 21084 30118 40129 56022=
0089010020999992015010605004+80050+016250FM-12+000899999V0201401N005019999999N999999999-00601-00871101191ADDMA1999999101081MD1610261+9999REMSYN04801002 46/// /1405 11060 21087 30108 40119 56026=
0132010020999992015010606004+80050+016250FM-12+000899999V0201301N007019999999N999999999-00941-01111101081ADDKA1240N-00951MA1999999100971MD1710311+9999OD139900701999REMSYN06401002 46/// /1307 11094 21111 30097 40108 57031 333 21095 91107=
0089010020999992015010607004+80050+016250FM-12+000899999V0201301N007019999999N999999999-00951-01131101021ADDMA1999999100911MD1810271+9999REMSYN04801002 46/// /1307 11095 21113 30091 40102 58027=
0089010020999992015010608004+80050+016250FM-12+000899999V0201301N008019999999N999999999-00931-01221100931ADDMA1999999100821MD1710261+9999REMSYN04801002 46/// /1308 11093 21122 30082 40093 57026=
0089010020999992015010609004+80050+016250FM-12+000899999V0201301N009019999999N999999999-00651-00861100841ADDMA1999999100731MD1610241+9999REMSYN04801002 46/// /1309 11065 21086 30073 40084 56024=
0089010020999992015010610004+80050+016250FM-12+000899999V0201301N010019999999N999999999-00691-00881100761ADDMA1999999100651MD1710261+9999REMSYN04801002 46/// /1310 11069 21088 30065 40076 57026=
0089010020999992015010611004+80050+016250FM-12+000899999V0201301N012019999999N999999999-00741-00911100611ADDMA1999999100511MD1610321+9999REMSYN04801002 46/// /1312 11074 21091 30051 40061 56032=
0113010020999992015010612004+80050+016250FM-12+000899999V0201201N015019999999N999999999-00751-00881100521ADDMA1999999100411MD1710321+9999OD139901601999REMSYN05801002 46/// /1215 11075 21088 30041 40052 57032 333 91116=
0089010020999992015010613004+80050+016250FM-12+000899999V0201201N012019999999N999999999-00731-00861100421ADDMA1999999100311MD1810341+9999REMSYN04801002 46/// /1212 11073 21086 30031 40042 58034=
0089010020999992015010614004+80050+016250FM-12+000899999V0201301N010019999999N999999999-00791-01021100331ADDMA1999999100221MD1710281+9999REMSYN04801002 46/// /1310 11079 21102 30022 40033 57028=
0089010020999992015010615004+80050+016250FM-12+000899999V0201401N012019999999N999999999-00811-01081100201ADDMA1999999100091MD1610321+9999REMSYN04801002 46/// /1412 11081 21108 30009 40020 56032=
0089010020999992015010616004+80050+016250FM-12+000899999V0201301N011019999999N999999999-00771-01001100121ADDMA1999999100021MD1710301+9999REMSYN04801002 46/// /1311 11077 21100 30002 40012 57030=
0089010020999992015010617004+80050+016250FM-12+000899999V0201301N014019999999N999999999-00741-00931099971ADDMA1999999099861MD1710361+9999REMSYN04801002 46/// /1314 11074 21093 39986 49997 57036=
0132010020999992015010618004+80050+016250FM-12+000899999V0201301N013019999999N999999999-00651-00861099891ADDKA1120M-00531MA1999999099781MD1710311+9999OD139901601999REMSYN06401002 46/// /1313 11065 21086 39978 49989 57031 333 11053 91116=
0089010020999992015010619004+80050+016250FM-12+000899999V0201301N013019999999N999999999-00551-00821099821ADDMA1999999099711MD1810301+9999REMSYN04801002 46/// /1313 11055 21082 39971 49982 58030=
0089010020999992015010620004+80050+016250FM-12+000899999V0201301N011019999999N999999999-00521-00741099761ADDMA1999999099661MD1710211+9999REMSYN04801002 46/// /1311 11052 21074 39966 49976 57021=
0089010020999992015010621004+80050+016250FM-12+000899999V0201201N010019999999N999999999-00381-00721099741ADDMA1999999099631MD1810151+9999REMSYN04801002 46/// /1210 11038 21072 39963 49974 58015=
0089010020999992015010622004+80050+016250FM-12+000899999V0201401N010019999999N999999999-00361-00621099691ADDMA1999999099581MD1710131+9999REMSYN04801002 46/// /1410 11036 21062 39958 49969 57013=
0089010020999992015010623004+80050+016250FM-12+000899999V0201301N013019999999N999999999-00411-00631099631ADDMA1999999099531MD1710131+9999REMSYN04801002 46/// /1313 11041 21063 39953 49963 57013=
0113010020999992015010700004+80050+016250FM-12+000899999V0201301N014019999999N999999999-00391-00641099561ADDMA1999999099461MD1710181+9999OD139901601999REMSYN05801002 46/// /1314 11039 21064 39946 49956 57018 333 91116=
0089010020999992015010701004+80050+016250FM-12+000899999V0201301N013019999999N999999999-00401-00651099501ADDMA1999999099391MD1710191+9999REMSYN04801002 46/// /1313 11040 21065 39939 49950 57019=
0089010020999992015010702004+80050+016250FM-12+000899999V0201401N015019999999N999999999-00381-00601099451ADDMA1999999099341MD1710191+9999REMSYN04801002 46/// /1415 11038 21060 39934 49945 57019=
0089010020999992015010703004+80050+016250FM-12+000899999V0201201N011019999999N999999999-00301-00551099471ADDMA1999999099361MD1810101+9999REMSYN04801002 46/// /1211 11030 21055 39936 49947 58010=
0089010020999992015010704004+80050+016250FM-12+000899999V0201501N014019999999N999999999-00321-00511099401ADDMA1999999099291MD1710101+9999REMSYN04801002 46/// /1514 11032 21051 39929 49940 57010=
0108010020999992015010705004+80050+016250FM-12+000899999V0201401N010019999999N999999999-00341-00561099441ADDMA1999999099331MD1790019+9999REMSYN04801002 46/// /1410 11034 21056 39933 49944 54001=EQDQ01.1    3APC3  
0132010020999992015010706004+80050+016250FM-12+000899999V0201301N009019999999N999999999-00251-00531099401ADDKA1240N-00671MA1999999099291MD1710071+9999OD139901701999REMSYN06401002 46/// /1309 11025 21053 39929 49940 57007 333 21067 91117=
0089010020999992015010707004+80050+016250FM-12+000899999V0201301N012019999999N999999999-00161-00411099331ADDMA1999999099231MD1510061+9999REMSYN04801002 46/// /1312 11016 21041 39923 49933 55006=
0089010020999992015010708004+80050+016250FM-12+000899999V0201401N012019999999N999999999-00081-00421099301ADDMA1999999099201MD1710141+9999REMSYN04801002 46/// /1412 11008 21042 39920 49930 57014=
0089010020999992015010709004+80050+016250FM-12+000899999V0201301N013019999999N999999999-00171-00321099291ADDMA1999999099191MD1810111+9999REMSYN04801002 46/// /1313 11017 21032 39919 49929 58011=
0089010020999992015010710004+80050+016250FM-12+000899999V0201301N015019999999N999999999-00191-00341099201ADDMA1999999099091MD1610131+9999REMSYN04801002 46/// /1315 11019 21034 39909 49920 56013=
0089010020999992015010711004+80050+016250FM-12+000899999V0201301N014019999999N999999999-00181-00291099261ADDMA1999999099161MD1810041+9999REMSYN04801002 46/// /1314 11018 21029 39916 49926 58004=
0113010020999992015010712004+80050+016250FM-12+000899999V0201401N012019999999N999999999-00161-00371099211ADDMA1999999099111MD1810081+9999OD139901701999REMSYN05801002 46/// /1412 11016 21037 39911 49921 58008 333 91117=
0089010020999992015010713004+80050+016250FM-12+000899999V0201401N016019999999N999999999-00181-00331099131ADDMA1999999099021MD1510071+9999REMSYN04801002 46/// /1416 11018 21033 39902 49913 55007=
0089010020999992015010714004+80050+016250FM-12+000899999V0201301N013019999999N999999999-00201-00341099141ADDMA1999999099031MD1810131+9999REMSYN04801002 46/// /1313 11020 21034 39903 49914 58013=
0089010020999992015010715004+80050+016250FM-12+000899999V0201401N010019999999N999999999-00151-00391099101ADDMA1999999099001MD1810111+9999REMSYN04801002 46/// /1410 11015 21039 39900 49910 58011=
0108010020999992015010716004+80050+016250FM-12+000899999V0201501N009019999999N999999999-00181-00331099121ADDMA1999999099011MD1790019+9999REMSYN04801002 46/// /1509 11018 21033 39901 49912 54001=EQDQ01.1    3APC3  
0089010020999992015010717004+80050+016250FM-12+000899999V0201501N006019999999N999999999-00221-00291099091ADDMA1999999098991MD1710051+9999REMSYN04801002 46/// /1506 11022 21029 39899 49909 57005=
0132010020999992015010718004+80050+016250FM-12+000899999V0201201N005019999999N999999999-00201-00241099071ADDKA1120M-00071MA1999999098961MD1610031+9999OD139901801999REMSYN06401002 46/// /1205 11020 21024 39896 49907 56003 333 11007 91118=
0089010020999992015010719004+80050+016250FM-12+000899999V0201401N005019999999N999999999-00211-00251099041ADDMA1999999098941MD1710081+9999REMSYN04801002 46/// /1405 11021 21025 39894 49904 57008=
0089010020999992015010720004+80050+016250FM-12+000899999V0201501N004019999999N999999999-00211-00251099031ADDMA1999999098921MD1710071+9999REMSYN04801002 46/// /1504 11021 21025 39892 49903 57007=
0089010020999992015010721004+80050+016250FM-12+000899999V0202101N005019999999N999999999-00161-00181099011ADDMA1999999098901MD1710061+9999REMSYN04801002 46/// /2105 11016 21018 39890 49901 57006=
0089010020999992015010722004+80050+016250FM-12+000899999V0202301N009019999999N999999999-00071-00091099041ADDMA1999999098941MD1990001+9999REMSYN04801002 46/// /2309 11007 21009 39894 49904 50000=
0089010020999992015010723004+80050+016250FM-12+000899999V0202401N009019999999N999999999-00051-00071099091ADDMA1999999098991MD1110071+9999REMSYN04801002 46/// /2409 11005 21007 39899 49909 51007=
0113010020999992015010800004+80050+016250FM-12+000899999V0202701N009019999999N999999999-00071-00131099181ADDMA1999999099081MD1110181+9999OD139901201999REMSYN05801002 46/// /2709 11007 21013 39908 49918 51018 333 91112=
0089010020999992015010801004+80050+016250FM-12+000899999V0202701N009019999999N999999999-00111-00221099231ADDMA1999999099131MD1210191+9999REMSYN04801002 46/// /2709 11011 21022 39913 49923 52019=
0089010020999992015010802004+80050+016250FM-12+000899999V0202801N008019999999N999999999-00131-00301099251ADDMA1999999099141MD1310151+9999REMSYN04801002 46/// /2808 11013 21030 39914 49925 53015=
0089010020999992015010803004+80050+016250FM-12+000899999V0202801N009019999999N999999999-00131-00301099311ADDMA1999999099201MD1210121+9999REMSYN04801002 46/// /2809 11013 21030 39920 49931 52012=
0089010020999992015010804004+80050+016250FM-12+000899999V0202901N007019999999N999999999-00091-00311099401ADDMA1999999099301MD1110171+9999REMSYN04801002 46/// /2907 11009 21031 39930 49940 51017=
0089010020999992015010805004+80050+016250FM-12+000899999V0202801N005019999999N999999999-00091-00361099491ADDMA1999999099381MD1110241+9999REMSYN04801002 46/// /2805 11009 21036 39938 49949 51024=
0132010020999992015010806004+80050+016250FM-12+000899999V0202801N004019999999N999999999-00081-00301099551ADDKA1240N-00221MA1999999099441MD1310251+9999OD139901101999REMSYN06401002 46/// /2804 11008 21030 39944 49955 53025 333 21022 91111=
0089010020999992015010807004+80050+016250FM-12+000899999V0202801N003019999999N999999999-00081-00321099601ADDMA1999999099501MD1310201+9999REMSYN04801002 46/// /2803 11008 21032 39950 49960 53020=
0089010020999992015010808004+80050+016250FM-12+000899999V0201901N003019999999N999999999-00201-00451099661ADDMA1999999099551MD1210161+9999REMSYN04801002 46/// /1903 11020 21045 39955 49966 52016=
0089010020999992015010809004+80050+016250FM-12+000899999V0201501N006019999999N999999999-00361-00551099661ADDMA1999999099551MD1310111+9999REMSYN04801002 46/// /1506 11036 21055 39955 49966 53011=
0089010020999992015010810004+80050+016250FM-12+000899999V0201401N007019999999N999999999-00401-00581099671ADDMA1999999099571MD1310071+9999REMSYN04801002 46/// /1407 11040 21058 39957 49967 53007=
0089010020999992015010811004+80050+016250FM-12+000899999V0201201N008019999999N999999999-00211-00341099691ADDMA1999999099591MD1210041+9999REMSYN04801002 46/// /1208 11021 21034 39959 49969 52004=
0113010020999992015010812004+80050+016250FM-12+000899999V0201101N009019999999N999999999-00181-00311099671ADDMA1999999099571MD1510011+9999OD139901001999REMSYN05801002 46/// /1109 11018 21031 39957 49967 55001 333 91110=
0089010020999992015010813004+80050+016250FM-12+000899999V0201201N010019999999N999999999-00271-00381099661ADDMA1999999099551MD1510011+9999REMSYN04801002 46/// /1210 11027 21038 39955 49966 55001=
0089010020999992015010814004+80050+016250FM-12+000899999V0201201N009019999999N999999999-00271-00381099661ADDMA1999999099551MD1710041+9999REMSYN04801002 46/// /1209 11027 21038 39955 49966 57004=
0108010020999992015010815004+80050+016250FM-12+000899999V0201301N009019999999N999999999-00261-00401099651ADDMA1999999099541MD1790029+9999REMSYN04801002 46/// /1309 11026 21040 39954 49965 54002=EQDQ01.2    3APC3  
0089010020999992015010816004+80050+016250FM-12+000899999V0201301N011019999999N999999999-00271-00421099631ADDMA1999999099521MD1710031+9999REMSYN04801002 46/// /1311 11027 21042 39952 49963 57003=
0108010020999992015010817004+80050+016250FM-12+000899999V0201401N011019999999N999999999-00201-00461099631ADDMA1999999099521MD1790039+9999REMSYN04801002 46/// /1411 11020 21046 39952 49963 54003=EQDQ01.3    3APC3  
0132010020999992015010818004+80050+016250FM-12+000899999V0201201N013019999999N999999999-00261-00401099611ADDKA1120M-00071MA1999999099501MD1710041+9999OD139901501999REMSYN06401002 46/// /1213 11026 21040 39950 49961 57004 333 11007 91115=
0108010020999992015010819004+80050+016250FM-12+000899999V0201301N013019999999N999999999-00141-00451099641ADDMA1999999099531MD1290019+9999REMSYN04801002 46/// /1313 11014 21045 39953 49964 54001=EQDQ01.1    3APC3  
0089010020999992015010820004+80050+016250FM-12+000899999V0201201N013019999999N999999999-00301-00461099621ADDMA1999999099521MD1410001+9999REMSYN04801002 46/// /1213 11030 21046 39952 49962 54000=
0089010020999992015010821004+80050+016250FM-12+000899999V0201301N012019999999N999999999-00291-00501099621ADDMA1999999099511MD1510011+9999REMSYN04801002 46/// /1312 11029 21050 39951 49962 55001=
0089010020999992015010822004+80050+016250FM-12+000899999V0201301N013019999999N999999999-00381-00561099571ADDMA1999999099471MD1710061+9999REMSYN04801002 46/// /1313 11038 21056 39947 49957 57006=
0089010020999992015010823004+80050+016250FM-12+000899999V0201501N019019999999N999999999-00441-00531099601ADDMA1999999099491MD1990021+9999REMSYN04801002 46/// /1519 11044 21053 39949 49960 50002=
0113010020999992015010900004+80050+016250FM-12+000899999V0201201N010019999999N999999999-00371-00471099731ADDMA1999999099631MD1990121+9999OD139902201999REMSYN05801002 46/// /1210 11037 21047 39963 49973 50012 333 91122=
0089010020999992015010901004+80050+016250FM-12+000899999V0201201N014019999999N999999999-00381-00501099601ADDMA1999999099491MD1510031+9999REMSYN04801002 46/// /1214 11038 21050 39949 49960 55003=
0089010020999992015010902004+80050+016250FM-12+000899999V0201301N012019999999N999999999-00361-00471099611ADDMA1999999099501MD1510011+9999REMSYN04801002 46/// /1312 11036 21047 39950 49961 55001=
0089010020999992015010903004+80050+016250FM-12+000899999V0201201N015019999999N999999999-00271-00391099521ADDMA1999999099411MD1810221+9999REMSYN04801002 46/// /1215 11027 21039 39941 49952 58022=
0089010020999992015010904004+80050+016250FM-12+000899999V0201301N017019999999N999999999-00221-00331099431ADDMA1999999099321MD1610171+9999REMSYN04801002 46/// /1317 11022 21033 39932 49943 56017=
0089010020999992015010905004+80050+016250FM-12+000899999V0201201N016019999999N999999999-00181-00291099411ADDMA1999999099301MD1810201+9999REMSYN04801002 46/// /1216 11018 21029 39930 49941 58020=
0132010020999992015010906004+80050+016250FM-12+000899999V0201301N015019999999N999999999-00191-00291099441ADDKA1240N-00461MA1999999099341MD1810071+9999OD139902001999REMSYN06401002 46/// /1315 11019 21029 39934 49944 58007 333 21046 91120=
0089010020999992015010907004+80050+016250FM-12+000899999V0201401N012019999999N999999999-00191-00321099531ADDMA1999999099431MD1110101+9999REMSYN04801002 46/// /1412 11019 21032 39943 49953 51010=
0089010020999992015010908004+80050+016250FM-12+000899999V0201401N012019999999N999999999-00111-00351099591ADDMA1999999099491MD1210191+9999REMSYN04801002 46/// /1412 11011 21035 39949 49959 52019=
0089010020999992015010909004+80050+016250FM-12+000899999V0201401N012019999999N999999999-00081-00321099661ADDMA1999999099561MD1210221+9999REMSYN04801002 46/// /1412 11008 21032 39956 49966 52022=
0089010020999992015010910004+80050+016250FM-12+000899999V0201501N013019999999N999999999-00101-00291099671ADDMA1999999099571MD1310141+9999REMSYN04801002 46/// /1513 11010 21029 39957 49967 53014=
0089010020999992015010911004+80050+016250FM-12+000899999V0201401N013019999999N999999999-00111-00321099741ADDMA1999999099631MD1210151+9999REMSYN04801002 46/// /1413 11011 21032 39963 49974 52015=
0113010020999992015010912004+80050+016250FM-12+000899999V0201301N012019999999N999999999-00101-00251099811ADDMA1999999099701MD1110151+9999OD139901601999REMSYN05801002 46/// /1312 11010 21025 39970 49981 51015 333 91116=
0089010020999992015010913004+80050+016250FM-12+000899999V0201401N014019999999N999999999-00141-00281099791ADDMA1999999099691MD1310121+9999REMSYN04801002 46/// /1414 11014 21028 39969 49979 53012=
0089010020999992015010914004+80050+016250FM-12+000899999V0201401N010019999999N999999999-00211-00461099861ADDMA1999999099751MD1210121+9999REMSYN04801002 46/// /1410 11021 21046 39975 49986 52012=
0089010020999992015010915004+80050+016250FM-12+000899999V0201501N008019999999N999999999-00261-00551099931ADDMA1999999099821MD1110121+9999REMSYN04801002 46/// /1508 11026 21055 39982 49993 51012=
0089010020999992015010916004+80050+016250FM-12+000899999V0201301N005019999999N999999999-00261-00571099961ADDMA1999999099851MD1310171+9999REMSYN04801002 46/// /1305 11026 21057 39985 49996 53017=
0089010020999992015010917004+80050+016250FM-12+000899999V0201401N006019999999N999999999-00271-00591100031ADDMA1999999099921MD1210171+9999REMSYN04801002 46/// /1406 11027 21059 39992 40003 52017=
0132010020999992015010918004+80050+016250FM-12+000899999V0201401N007019999999N999999999-00341-00651100071ADDKA1120M-00041MA1999999099961MD1210141+9999OD139901601999REMSYN06401002 46/// /1407 11034 21065 39996 40007 52014 333 11004 91116=
0089010020999992015010919004+80050+016250FM-12+000899999V0201401N004019999999N999999999-00291-00571100141ADDMA1999999100031MD1210181+9999REMSYN04801002 46/// /1404 11029 21057 30003 40014 52018=
0089010020999992015010920004+80050+016250FM-12+000899999V0201301N004019999999N999999999-00211-00571100181ADDMA1999999100071MD1210151+9999REMSYN04801002 46/// /1304 11021 21057 30007 40018 52015=
0089010020999992015010921004+80050+016250FM-12+000899999V0201401N004019999999N999999999-00251-00571100211ADDMA1999999100101MD1310141+9999REMSYN04801002 46/// /1404 11025 21057 30010 40021 53014=
0089010020999992015010922004+80050+016250FM-12+000899999V0201401N004019999999N999999999-00331-00591100261ADDMA1999999100151MD1210121+9999REMSYN04801002 46/// /1404 11033 21059 30015 40026 52012=
0089010020999992015010923004+80050+016250FM-12+000899999V0201601N004019999999N999999999-00121-00651100291ADDMA1999999100181MD1210111+9999REMSYN04801002 46/// /1604 11012 21065 30018 40029 52011=
0113010020999992015011000004+80050+016250FM-12+000899999V0201501N004019999999N999999999-00281-00681100321ADDMA1999999100221MD1210111+9999OD139900601999REMSYN05801002 46/// /1504 11028 21068 30022 40032 52011 333 91106=
0089010020999992015011001004+80050+016250FM-12+000899999V0202101N008019999999N999999999-00141-00511100311ADDMA1999999100201MD1310051+9999REMSYN04801002 46/// /2108 11014 21051 30020 40031 53005=
0089010020999992015011002004+80050+016250FM-12+000899999V0202101N010019999999N999999999-00151-00491100341ADDMA1999999100231MD1210051+9999REMSYN04801002 46/// /2110 11015 21049 30023 40034 52005=
0089010020999992015011003004+80050+016250FM-12+000899999V0202201N010019999999N999999999-00161-00411100371ADDMA1999999100261MD1110041+9999REMSYN04801002 46/// /2210 11016 21041 30026 40037 51004=
0089010020999992015011004004+80050+016250FM-12+000899999V0202201N009019999999N999999999-00031-00251100421ADDMA1999999100311MD1210111+9999REMSYN04801002 46/// /2209 11003 21025 30031 40042 52011=
0089010020999992015011005004+80050+016250FM-12+000899999V0202401N007019999999N999999999+00061-00021100441ADDMA1999999100331MD1210101+9999REMSYN04801002 46/// /2407 10006 21002 30033 40044 52010=
0132010020999992015011006004+80050+016250FM-12+000899999V0202401N008019999999N999999999+00041-00061100471ADDKA1240N-00401MA1999999100361MD1210101+9999OD139901101999REMSYN06401002 46/// /2408 10004 21006 30036 40047 52010 333 21040 91111=
0089010020999992015011007004+80050+016250FM-12+000899999V0202401N008019999999N999999999+00021-00081100511ADDMA1999999100401MD1210091+9999REMSYN04801002 46/// /2408 10002 21008 30040 40051 52009=
0089010020999992015011008004+80050+016250FM-12+000899999V0202301N008019999999N999999999-00081-00171100511ADDMA1999999100411MD1210071+9999REMSYN04801002 46/// /2308 11008 21017 30041 40051 52007=
0089010020999992015011009004+80050+016250FM-12+000899999V0202201N010019999999N999999999-00141-00231100491ADDMA1999999100391MD1510021+9999REMSYN04801002 46/// /2210 11014 21023 30039 40049 55002=
0089010020999992015011010004+80050+016250FM-12+000899999V0202101N008019999999N999999999-00161-00231100561ADDMA1999999100451MD1110051+9999REMSYN04801002 46/// /2108 11016 21023 30045 40056 51005=
0089010020999992015011011004+80050+016250FM-12+000899999V0202101N008019999999N999999999-00171-00241100551ADDMA1999999100451MD1210041+9999REMSYN04801002 46/// /2108 11017 21024 30045 40055 52004=
0113010020999992015011012004+80050+016250FM-12+000899999V0202101N006019999999N999999999-00171-00231100551ADDMA1999999100441MD1310061+9999OD139901201999REMSYN05801002 46/// /2106 11017 21023 30044 40055 53006 333 91112=
0089010020999992015011013004+80050+016250FM-12+000899999V0200801N003019999999N999999999-00111-00291100601ADDMA1999999100491MD1110041+9999REMSYN04801002 46/// /0803 11011 21029 30049 40060 51004=
0089010020999992015011014004+80050+016250FM-12+000899999V0200601N004019999999N999999999-00081-00321100601ADDMA1999999100491MD1210041+9999REMSYN04801002 46/// /0604 11008 21032 30049 40060 52004=
0089010020999992015011015004+80050+016250FM-12+000899999V0200501N004019999999N999999999-00091-00241100601ADDMA1999999100491MD1310051+9999REMSYN04801002 46/// /0504 11009 21024 30049 40060 53005=
0108010020999992015011016004+80050+016250FM-12+000899999V0200601N003019999999N999999999-00101-00241100591ADDMA1999999100481MD1790019+9999REMSYN04801002 46/// /0603 11010 21024 30048 40059 54001=EQDQ01.1    3APC3  
0089010020999992015011017004+80050+016250FM-12+000899999V0200801N004019999999N999999999-00131-00281100591ADDMA1999999100491MD1410001+9999REMSYN04801002 46/// /0804 11013 21028 30049 40059 54000=
0151010020999992015011018004+80050+016250FM-12+000899999V0200801N005019999999N999999999-00161-00301100591ADDKA1120M+00041MA1999999100481MD1790019+9999OD139900601999REMSYN06401002 46/// /0805 11016 21030 30048 40059 54001 333 10004 91106=EQDQ01.1    3APC3  
0089010020999992015011019004+80050+016250FM-12+000899999V0201201N008019999999N999999999-00251-00411100591ADDMA1999999100481MD1410001+9999REMSYN04801002 46/// /1208 11025 21041 30048 40059 54000=
0108010020999992015011020004+80050+016250FM-12+000899999V0201101N009019999999N999999999-00241-00451100611ADDMA1999999100501MD1290029+9999REMSYN04801002 46/// /1109 11024 21045 30050 40061 54002=EQDQ01.2    3APC3  
0089010020999992015011021004+80050+016250FM-12+000899999V0201101N008019999999N999999999-00221-00471100641ADDMA1999999100531MD1110051+9999REMSYN04801002 46/// /1108 11022 21047 30053 40064 51005=
0089010020999992015011022004+80050+016250FM-12+000899999V0201101N011019999999N999999999-00231-00551100641ADDMA1999999100541MD1210051+9999REMSYN04801002 46/// /1111 11023 21055 30054 40064 52005=
0089010020999992015011023004+80050+016250FM-12+000899999V0201201N009019999999N999999999-00301-00581100681ADDMA1999999100571MD1210071+9999REMSYN04801002 46/// /1209 11030 21058 30057 40068 52007=
0113010020999992015011100004+80050+016250FM-12+000899999V0201301N009019999999N999999999-00401-00601100721ADDMA1999999100611MD1110081+9999OD139901201999REMSYN05801002 46/// /1309 11040 21060 30061 40072 51008 333 91112=
0089010020999992015011101004+80050+016250FM-12+000899999V0201301N008019999999N999999999-00421-00611100741ADDMA1999999100631MD1210101+9999REMSYN04801002 46/// /1308 11042 21061 30063 40074 52010=
0089010020999992015011102004+80050+016250FM-12+000899999V0201301N009019999999N999999999-00471-00651100751ADDMA1999999100641MD1310071+9999REMSYN04801002 46/// /1309 11047 21065 30064 40075 53007=
0089010020999992015011103004+80050+016250FM-12+000899999V0201401N007019999999N999999999-00631-00871100761ADDMA1999999100651MD1210041+9999REMSYN04801002 46/// /1407 11063 21087 30065 40076 52004=
0108010020999992015011104004+80050+016250FM-12+000899999V0201201N007019999999N999999999-00481-00781100741ADDMA1999999100631MD1410009+9999REMSYN04801002 46/// /1207 11048 21078 30063 40074 54001=EQDQ01.1    3APC3  
0108010020999992015011105004+80050+016250FM-12+000899999V0201401N009019999999N999999999-00761-00991100731ADDMA1999999100621MD1790029+9999REMSYN04801002 46/// /1409 11076 21099 30062 40073 54002=EQDQ01.2    3APC3  
0132010020999992015011106004+80050+016250FM-12+000899999V0201401N012019999999N999999999-00751-00981100711ADDKA1240N-00821MA1999999100601MD1710051+9999OD139901301999REMSYN06401002 46/// /1412 11075 21098 30060 40071 57005 333 21082 91113=
0089010020999992015011107004+80050+016250FM-12+000899999V0201401N010019999999N999999999-00851-01091100741ADDMA1999999100631MD1990011+9999REMSYN04801002 46/// /1410 11085 21109 30063 40074 50001=
0089010020999992015011108004+80050+016250FM-12+000899999V0201201N013019999999N999999999-00691-00891100731ADDMA1999999100621MD1410001+9999REMSYN04801002 46/// /1213 11069 21089 30062 40073 54000=
0089010020999992015011109004+80050+016250FM-12+000899999V0201201N009019999999N999999999-00741-00951100781ADDMA1999999100671MD1210081+9999REMSYN04801002 46/// /1209 11074 21095 30067 40078 52008=
0108010020999992015011110004+80050+016250FM-12+000899999V0201401N010019999999N999999999-00751-00991100761ADDMA1999999100651MD1290029+9999REMSYN04801002 46/// /1410 11075 21099 30065 40076 54002=EQDQ01.2    3APC3  
0089010020999992015011111004+80050+016250FM-12+000899999V0201301N009019999999N999999999-00731-00971100781ADDMA1999999100671MD1210051+9999REMSYN04801002 46/// /1309 11073 21097 30067 40078 52005=
0113010020999992015011112004+80050+016250FM-12+000899999V0201401N008019999999N999999999-00731-01001100801ADDMA1999999100691MD1990021+9999OD139901401999REMSYN05801002 46/// /1408 11073 21100 30069 40080 50002 333 91114=
0089010020999992015011113004+80050+016250FM-12+000899999V0201401N009019999999N999999999-00751-00981100831ADDMA1999999100721MD1210071+9999REMSYN04801002 46/// /1409 11075 21098 30072 40083 52007=
0089010020999992015011114004+80050+016250FM-12+000899999V0201401N008019999999N999999999-00741-00991100821ADDMA1999999100711MD1210041+9999REMSYN04801002 46/// /1408 11074 21099 30071 40082 52004=
0089010020999992015011115004+80050+016250FM-12+000899999V0201401N008019999999N999999999-00811-01121100841ADDMA1999999100731MD1210041+9999REMSYN04801002 46/// /1408 11081 21112 30073 40084 52004=
0108010020999992015011116004+80050+016250FM-12+000899999V0201401N007019999999N999999999-00811-01281100821ADDMA1999999100711MD1790019+9999REMSYN04801002 46/// /1407 11081 21128 30071 40082 54001=EQDQ01.1    3APC3  
0089010020999992015011117004+80050+016250FM-12+000899999V0201401N008019999999N999999999-00711-01101100821ADDMA1999999100711MD1410001+9999REMSYN04801002 46/// /1408 11071 21110 30071 40082 54000=
0132010020999992015011118004+80050+016250FM-12+000899999V0201401N008019999999N999999999-00761-01001100871ADDKA1120M-00631MA1999999100761MD1110031+9999OD139901201999REMSYN06401002 46/// /1408 11076 21100 30076 40087 51003 333 11063 91112=
0089010020999992015011119004+80050+016250FM-12+000899999V0201301N007019999999N999999999-00731-00981100921ADDMA1999999100811MD1110101+9999REMSYN04801002 46/// /1307 11073 21098 30081 40092 51010=
0089010020999992015011120004+80050+016250FM-12+000899999V0201301N006019999999N999999999-00821-01131100921ADDMA1999999100811MD1310091+9999REMSYN04801002 46/// /1306 11082 21113 30081 40092 53009=
0089010020999992015011121004+80050+016250FM-12+000899999V0201301N005019999999N999999999-00821-01131100921ADDMA1999999100811MD1310051+9999REMSYN04801002 46/// /1305 11082 21113 30081 40092 53005=
0108010020999992015011122004+80050+016250FM-12+000899999V0201401N006019999999N999999999-00831-01171100941ADDMA1999999100831MD1290029+9999REMSYN04801002 46/// /1406 11083 21117 30083 40094 54002=EQDQ01.2    3APC3  
0089010020999992015011123004+80050+016250FM-12+000899999V0201401N006019999999N999999999-00831-01141100951ADDMA1999999100841MD1210041+9999REMSYN04801002 46/// /1406 11083 21114 30084 40095 52004=
0113010020999992015011200004+80050+016250FM-12+000899999V0201401N005019999999N999999999-00781-01061100971ADDMA1999999100861MD1210041+9999OD139900901999REMSYN05801002 46/// /1405 11078 21106 30086 40097 52004 333 91109=
0089010020999992015011201004+80050+016250FM-12+000899999V0201401N004019999999N999999999-00721-01111100971ADDMA1999999100861MD1210041+9999REMSYN04801002 46/// /1404 11072 21111 30086 40097 52004=
0108010020999992015011202004+80050+016250FM-12+000899999V0201301N004019999999N999999999-00731-01061100971ADDMA1999999100861MD1290029+9999REMSYN04801002 46/// /1304 11073 21106 30086 40097 54002=EQDQ01.2    3APC3  
0108010020999992015011203004+80050+016250FM-12+000899999V0201401N005019999999N999999999-00831-01101100961ADDMA1999999100841MD1790019+9999REMSYN04801002 46/// /1405 11083 21110 30084 40096 54001=EQDQ01.1    3APC3  
0089010020999992015011204004+80050+016250FM-12+000899999V0201401N005019999999N999999999-00841-01181100921ADDMA1999999100801MD1610061+9999REMSYN04801002 46/// /1405 11084 21118 30080 40092 56006=
0089010020999992015011205004+80050+016250FM-12+000899999V0201401N005019999999N999999999-00831-01141100901ADDMA1999999100791MD1710071+9999REMSYN04801002 46/// /1405 11083 21114 30079 40090 57007=
0132010020999992015011206004+80050+016250FM-12+000899999V0201401N007019999999N999999999-00981-01421100881ADDKA1240N-01031MA1999999100771MD1710081+9999OD139900801999REMSYN06401002 46/// /1407 11098 21142 30077 40088 57008 333 21103 91108=
0089010020999992015011207004+80050+016250FM-12+000899999V0201401N005019999999N999999999-00901-01361100911ADDMA1999999100801MD1990011+9999REMSYN04801002 46/// /1405 11090 21136 30080 40091 50001=
0108010020999992015011208004+80050+016250FM-12+000899999V0201301N004019999999N999999999-00791-01261100911ADDMA1999999100801MD1290019+9999REMSYN04801002 46/// /1304 11079 21126 30080 40091 54002=EQDQ01.2    3APC3  
0089010020999992015011209004+80050+016250FM-12+000899999V0201401N004019999999N999999999-00631-00931100931ADDMA1999999100821MD1210051+9999REMSYN04801002 46/// /1404 11063 21093 30082 40093 52005=
0108010020999992015011210004+80050+016250FM-12+000899999V0201401N004019999999N999999999-00691-00971100941ADDMA1999999100831MD1290039+9999REMSYN04801002 46/// /1404 11069 21097 30083 40094 54003=EQDQ01.3    3APC3  
0089010020999992015011211004+80050+016250FM-12+000899999V0201401N004019999999N999999999-00641-01001100891ADDMA1999999100781MD1510021+9999REMSYN04801002 46/// /1404 11064 21100 30078 40089 55002=
0113010020999992015011212004+80050+016250FM-12+000899999V0201401N003019999999N999999999-00571-01061100901ADDMA1999999100791MD1710031+9999OD139900801999REMSYN05801002 46/// /1403 11057 21106 30079 40090 57003 333 91108=
0089010020999992015011213004+80050+016250FM-12+000899999V0201401N003019999999N999999999-00491-00921100881ADDMA1999999100771MD1710061+9999REMSYN04801002 46/// /1403 11049 21092 30077 40088 57006=
0089010020999992015011214004+80050+016250FM-12+000899999V0201801N003019999999N999999999-00391-01211100821ADDMA1999999100711MD1610081+9999REMSYN04801002 46/// /1803 11039 21121 30071 40082 56008=
0089010020999992015011215004+80050+016250FM-12+000899999V0202201N004019999999N999999999-00471-01191100811ADDMA1999999100701MD1710091+9999REMSYN04801002 46/// /2204 11047 21119 30070 40081 57009=
0089010020999992015011216004+80050+016250FM-12+000899999V0202001N005019999999N999999999-00541-01071100781ADDMA1999999100671MD1810101+9999REMSYN04801002 46/// /2005 11054 21107 30067 40078 58010=
0089010020999992015011217004+80050+016250FM-12+000899999V0202101N006019999999N999999999-00491-00951100771ADDMA1999999100661MD1710051+9999REMSYN04801002 46/// /2106 11049 21095 30066 40077 57005=
0132010020999992015011218004+80050+016250FM-12+000899999V0202101N006019999999N999999999-00491-01001100731ADDKA1120M-00391MA1999999100621MD1710081+9999OD139900601999REMSYN06401002 46/// /2106 11049 21100 30062 40073 57008 333 11039 91106=
0089010020999992015011219004+80050+016250FM-12+000899999V0202101N006019999999N999999999-00461-00991100711ADDMA1999999100601MD1710071+9999REMSYN04801002 46/// /2106 11046 21099 30060 40071 57007=
0089010020999992015011220004+80050+016250FM-12+000899999V0201901N003019999999N999999999-00491-00681100741ADDMA1999999100631MD1990031+9999REMSYN04801002 46/// /1903 11049 21068 30063 40074 50003=
0108010020999992015011221004+80050+016250FM-12+000899999V0202201N005019999999N999999999-00581-00691100721ADDMA1999999100611MD1790019+9999REMSYN04801002 46/// /2205 11058 21069 30061 40072 54001=EQDQ01.1    3APC3  
0089010020999992015011222004+80050+016250FM-12+000899999V0202001N005019999999N999999999-00521-00701100671ADDMA1999999100561MD1610041+9999REMSYN04801002 46/// /2005 11052 21070 30056 40067 56004=
0089010020999992015011223004+80050+016250FM-12+000899999V0202301N002019999999N999999999-00401-00591100661ADDMA1999999100551MD1710081+9999REMSYN04801002 46/// /2302 11040 21059 30055 40066 57008=
0113010020999992015011300004+80050+016250FM-12+000899999V0200301N005019999999N999999999-00241-00491100651ADDMA1999999100541MD1810061+9999OD139900701999REMSYN05801002 46/// /0305 11024 21049 30054 40065 58006 333 91107=
0089010020999992015011301004+80050+016250FM-12+000899999V0200401N004019999999N999999999-00281-00541100641ADDMA1999999100531MD1710041+9999REMSYN04801002 46/// /0404 11028 21054 30053 40064 57004=
0089010020999992015011302004+80050+016250FM-12+000899999V0200501N005019999999N999999999-00341-00571100621ADDMA1999999100521MD1710031+9999REMSYN04801002 46/// /0505 11034 21057 30052 40062 57003=
0089010020999992015011303004+80050+016250FM-12+000899999V0200401N007019999999N999999999-00381-00581100601ADDMA1999999100491MD1710051+9999REMSYN04801002 46/// /0407 11038 21058 30049 40060 57005=
0089010020999992015011304004+80050+016250FM-12+000899999V0200501N007019999999N999999999-00511-00631100591ADDMA1999999100481MD1710051+9999REMSYN04801002 46/// /0507 11051 21063 30048 40059 57005=
0089010020999992015011305004+80050+016250FM-12+000899999V0200501N007019999999N999999999-00501-00741100571ADDMA1999999100461MD1710061+9999REMSYN04801002 46/// /0507 11050 21074 30046 40057 57006=
0151010020999992015011306004+80050+016250FM-12+000899999V0200601N008019999999N999999999-00521-00791100581ADDKA1240N-00681MA1999999100471MD1790029+9999OD139901001999REMSYN06401002 46/// /0608 11052 21079 30047 40058 54002 333 21068 91110=EQDQ01.2    3APC3  
0089010020999992015011307004+80050+016250FM-12+000899999V0200801N007019999999N999999999-00591-00741100591ADDMA1999999100481MD1990001+9999REMSYN04801002 46/// /0807 11059 21074 30048 40059 50000=
0108010020999992015011308004+80050+016250FM-12+000899999V0200701N007019999999N999999999-00641-00831100591ADDMA1999999100481MD1290029+9999REMSYN04801002 46/// /0707 11064 21083 30048 40059 54002=EQDQ01.2    3APC3  
0108010020999992015011309004+80050+016250FM-12+000899999V0200701N007019999999N999999999-00691-00941100601ADDMA1999999100491MD1290029+9999REMSYN04801002 46/// /0707 11069 21094 30049 40060 54002=EQDQ01.2    3APC3  
0108010020999992015011310004+80050+016250FM-12+000899999V0201201N006019999999N999999999-00721-00921100571ADDMA1999999100461MD1790029+9999REMSYN04801002 46/// /1206 11072 21092 30046 40057 54002=EQDQ01.2    3APC3  
0108010020999992015011311004+80050+016250FM-12+000899999V0201201N010019999999N999999999-00891-01101100581ADDMA1999999100471MD1790019+9999REMSYN04801002 46/// /1210 11089 21110 30047 40058 54001=EQDQ01.1    3APC3  
0113010020999992015011312004+80050+016250FM-12+000899999V0201201N011019999999N999999999-00891-01051100581ADDMA1999999100471MD1990021+9999OD139901201999REMSYN05801002 46/// /1211 11089 21105 30047 40058 50002 333 91112=
0089010020999992015011313004+80050+016250FM-12+000899999V0201201N011019999999N999999999-00931-01091100571ADDMA1999999100461MD1410001+9999REMSYN04801002 46/// /1211 11093 21109 30046 40057 54000=
0089010020999992015011314004+80050+016250FM-12+000899999V0201201N012019999999N999999999-00951-01131100531ADDMA1999999100421MD1610051+9999REMSYN04801002 46/// /1212 11095 21113 30042 40053 56005=
0089010020999992015011315004+80050+016250FM-12+000899999V0201201N012019999999N999999999-00871-01111100501ADDMA1999999100391MD1710081+9999REMSYN04801002 46/// /1212 11087 21111 30039 40050 57008=
0089010020999992015011316004+80050+016250FM-12+000899999V0201201N014019999999N999999999-00881-01201100501ADDMA1999999100391MD1710071+9999REMSYN04801002 46/// /1214 11088 21120 30039 40050 57007=
0089010020999992015011317004+80050+016250FM-12+000899999V0201201N011019999999N999999999-00871-01221100541ADDMA1999999100431MD1990011+9999REMSYN04801002 46/// /1211 11087 21122 30043 40054 50001=
0132010020999992015011318004+80050+016250FM-12+000899999V0201301N012019999999N999999999-00981-01321100541ADDKA1120M-00521MA1999999100431MD1210041+9999OD139901601999REMSYN06401002 46/// /1312 11098 21132 30043 40054 52004 333 11052 91116=
0089010020999992015011319004+80050+016250FM-12+000899999V0201301N011019999999N999999999-00991-01341100541ADDMA1999999100431MD1310041+9999REMSYN04801002 46/// /1311 11099 21134 30043 40054 53004=
0108010020999992015011320004+80050+016250FM-12+000899999V0201301N010019999999N999999999-01051-01381100561ADDMA1999999100451MD1290029+9999REMSYN04801002 46/// /1310 11105 21138 30045 40056 54002=EQDQ01.2    3APC3  
0089010020999992015011321004+80050+016250FM-12+000899999V0201201N013019999999N999999999-01001-01211100581ADDMA1999999100471MD1210031+9999REMSYN04801002 46/// /1213 11100 21121 30047 40058 52003=
0089010020999992015011322004+80050+016250FM-12+000899999V0201201N014019999999N999999999-01001-01281100591ADDMA1999999100481MD1210051+9999REMSYN04801002 46/// /1214 11100 21128 30048 40059 52005=
0089010020999992015011323004+80050+016250FM-12+000899999V0201201N013019999999N999999999-01021-01311100591ADDMA1999999100481MD1210031+9999REMSYN04801002 46/// /1213 11102 21131 30048 40059 52003=
0132010020999992015011400004+80050+016250FM-12+000899999V0201201N011019999999N999999999-00991-01271100591ADDMA1999999100481MD1290019+9999OD139901601999REMSYN05801002 46/// /1211 11099 21127 30048 40059 54001 333 91116=EQDQ01.1    3APC3  
0089010020999992015011401004+80050+016250FM-12+000899999V0201201N010019999999N999999999-00931-01251100591ADDMA1999999100481MD1410001+9999REMSYN04801002 46/// /1210 11093 21125 30048 40059 54000=
0108010020999992015011402004+80050+016250FM-12+000899999V0201201N013019999999N999999999-00941-01251100561ADDMA1999999100451MD1790039+9999REMSYN04801002 46/// /1213 11094 21125 30045 40056 54003=EQDQ01.3    3APC3  
0108010020999992015011403004+80050+016250FM-12+000899999V0201201N012019999999N999999999-00991-01251100561ADDMA1999999100451MD1790039+9999REMSYN04801002 46/// /1212 11099 21125 30045 40056 54003=EQDQ01.3    3APC3  
0089010020999992015011404004+80050+016250FM-12+000899999V0201201N013019999999N999999999-00971-01291100531ADDMA1999999100421MD1710061+9999REMSYN04801002 46/// /1213 11097 21129 30042 40053 57006=
0089010020999992015011405004+80050+016250FM-12+000899999V0201201N012019999999N999999999-01031-01261100571ADDMA1999999100461MD1990001+9999REMSYN04801002 46/// /1212 11103 21126 30046 40057 50000=
0132010020999992015011406004+80050+016250FM-12+000899999V0201201N012019999999N999999999-01101-01361100591ADDKA1240N-01281MA1999999100481MD1990021+9999OD139901501999REMSYN06401002 46/// /1212 11110 21136 30048 40059 50002 333 21128 91115=
0089010020999992015011407004+80050+016250FM-12+000899999V0201201N013019999999N999999999-01111-01361100591ADDMA1999999100481MD1310061+9999REMSYN04801002 46/// /1213 11111 21136 30048 40059 53006=
0089010020999992015011408004+80050+016250FM-12+000899999V0201201N013019999999N999999999-01081-01331100621ADDMA1999999100511MD1210051+9999REMSYN04801002 46/// /1213 11108 21133 30051 40062 52005=
0108010020999992015011409004+80050+016250FM-12+000899999V0201201N014019999999N999999999-01101-01401100611ADDMA1999999100501MD1290029+9999REMSYN04801002 46/// /1214 11110 21140 30050 40061 54003=EQDQ01.3    3APC3  
0089010020999992015011410004+80050+016250FM-12+000899999V0201201N013019999999N999999999-01121-01351100641ADDMA1999999100531MD1210051+9999REMSYN04801002 46/// /1213 11112 21135 30053 40064 52005=
0108010020999992015011411004+80050+016250FM-12+000899999V0201201N013019999999N999999999-01151-01401100651ADDMA1999999100541MD1290039+9999REMSYN04801002 46/// /1213 11115 21140 30054 40065 54003=EQDQ01.3    3APC3  
0113010020999992015011412004+80050+016250FM-12+000899999V0201201N013019999999N999999999-01181-01451100651ADDMA1999999100541MD1210031+9999OD139901601999REMSYN05801002 46/// /1213 11118 21145 30054 40065 52003 333 91116=
0108010020999992015011413004+80050+016250FM-12+000899999V0201201N012019999999N999999999-01141-01521100671ADDMA1999999100561MD1290039+9999REMSYN04801002 46/// /1212 11114 21152 30056 40067 54003=EQDQ01.3    3APC3  
0089010020999992015011414004+80050+016250FM-12+000899999V0201201N013019999999N999999999-01151-01471100651ADDMA1999999100541MD1410001+9999REMSYN04801002 46/// /1213 11115 21147 30054 40065 54000=
0089010020999992015011415004+80050+016250FM-12+000899999V0201201N013019999999N999999999-01141-01521100621ADDMA1999999100501MD1610031+9999REMSYN04801002 46/// /1213 11114 21152 30050 40062 56003=
0089010020999992015011416004+80050+016250FM-12+000899999V0201301N012019999999N999999999-01241-01511100641ADDMA1999999100531MD1810031+9999REMSYN04801002 46/// /1312 11124 21151 30053 40064 58003=
0108010020999992015011417004+80050+016250FM-12+000899999V0201301N012019999999N999999999-01241-01441100631ADDMA1999999100521MD1790029+9999REMSYN04801002 46/// /1312 11124 21144 30052 40063 54002=EQDQ01.2    3APC3  
0132010020999992015011418004+80050+016250FM-12+000899999V0201201N012019999999N999999999-01201-01411100611ADDKA1120M-01051MA1999999100501MD1510001+9999OD139901501999REMSYN06401002 46/// /1212 11120 21141 30050 40061 55000 333 11105 91115=
0108010020999992015011419004+80050+016250FM-12+000899999V0201201N013019999999N999999999-01221-01401100621ADDMA1999999100511MD1790029+9999REMSYN04801002 46/// /1213 11122 21140 30051 40062 54002=EQDQ01.2    3APC3  
0108010020999992015011420004+80050+016250FM-12+000899999V0201301N013019999999N999999999-01301-01501100621ADDMA1999999100501MD1790019+9999REMSYN04801002 46/// /1313 11130 21150 30050 40062 54001=EQDQ01.1    3APC3  
0108010020999992015011421004+80050+016250FM-12+000899999V0201301N012019999999N999999999-01281-01571100601ADDMA1999999100491MD1790019+9999REMSYN04801002 46/// /1312 11128 21157 30049 40060 54002=EQDQ01.2    3APC3  
0089010020999992015011422004+80050+016250FM-12+000899999V0201301N010019999999N999999999-01281-01611100621ADDMA1999999100511MD1410001+9999REMSYN04801002 46/// /1310 11128 21161 30051 40062 54000=
0108010020999992015011423004+80050+016250FM-12+000899999V0201301N009019999999N999999999-01251-01541100601ADDMA1999999100491MD1790029+9999REMSYN04801002 46/// /1309 11125 21154 30049 40060 54002=EQDQ01.2    3APC3  
0113010020999992015011500004+80050+016250FM-12+000899999V0201301N005019999999N999999999-01271-01701100581ADDMA1999999100471MD1510021+9999OD139901501999REMSYN05801002 46/// /1305 11127 21170 30047 40058 55002 333 91115=
0089010020999992015011501004+80050+016250FM-12+000899999V0201301N006019999999N999999999-01351-01651100571ADDMA1999999100461MD1710051+9999REMSYN04801002 46/// /1306 11135 21165 30046 40057 57005=
0089010020999992015011502004+80050+016250FM-12+000899999V0201301N008019999999N999999999-01311-01571100561ADDMA1999999100451MD1710041+9999REMSYN04801002 46/// /1308 11131 21157 30045 40056 57004=
0089010020999992015011503004+80050+016250FM-12+000899999V0201201N007019999999N999999999-01121-01371100551ADDMA1999999100431MD1710041+9999REMSYN04801002 46/// /1207 11112 21137 30043 40055 57004=
0108010020999992015011504004+80050+016250FM-12+000899999V0201201N007019999999N999999999-01091-01351100551ADDMA1999999100441MD1790029+9999REMSYN04801002 46/// /1207 11109 21135 30044 40055 54002=EQDQ01.2    3APC3  
0089010020999992015011505004+80050+016250FM-12+000899999V0201201N010019999999N999999999-01221-01401100521ADDMA1999999100411MD1710041+9999REMSYN04801002 46/// /1210 11122 21140 30041 40052 57004=
0151010020999992015011506004+80050+016250FM-12+000899999V0201301N009019999999N999999999-01371-01561100541ADDKA1240N-01411MA1999999100421MD1790019+9999OD139901101999REMSYN06401002 46/// /1309 11137 21156 30042 40054 54001 333 21141 91111=EQDQ01.1    3APC3  
0089010020999992015011507004+80050+016250FM-12+000899999V0201201N008019999999N999999999-01281-01451100541ADDMA1999999100431MD1990011+9999REMSYN04801002 46/// /1208 11128 21145 30043 40054 50001=
0089010020999992015011508004+80050+016250FM-12+000899999V0201201N010019999999N999999999-01281-01461100561ADDMA1999999100441MD1210031+9999REMSYN04801002 46/// /1210 11128 21146 30044 40056 52003=
0108010020999992015011509004+80050+016250FM-12+000899999V0201201N010019999999N999999999-01271-01451100551ADDMA1999999100441MD1290019+9999REMSYN04801002 46/// /1210 11127 21145 30044 40055 54001=EQDQ01.1    3APC3  
0108010020999992015011510004+80050+016250FM-12+000899999V0201201N011019999999N999999999-01341-01521100571ADDMA1999999100461MD1290039+9999REMSYN04801002 46/// /1211 11134 21152 30046 40057 54003=EQDQ01.3    3APC3  
0089010020999992015011511004+80050+016250FM-12+000899999V0201201N010019999999N999999999-01351-01541100621ADDMA1999999100501MD1110061+9999REMSYN04801002 46/// /1210 11135 21154 30050 40062 51006=
0113010020999992015011512004+80050+016250FM-12+000899999V0201301N011019999999N999999999-01501-01701100651ADDMA1999999100541MD1210101+9999OD139901301999REMSYN05801002 46/// /1311 11150 21170 30054 40065 52010 333 91113=
0089010020999992015011513004+80050+016250FM-12+000899999V0201201N013019999999N999999999-01491-01681100641ADDMA1999999100531MD1310071+9999REMSYN04801002 46/// /1213 11149 21168 30053 40064 53007=
0089010020999992015011514004+80050+016250FM-12+000899999V0201301N015019999999N999999999-01521-01721100631ADDMA1999999100511MD1510011+9999REMSYN04801002 46/// /1315 11152 21172 30051 40063 55001=
0089010020999992015011515004+80050+016250FM-12+000899999V0201201N015019999999N999999999-01521-01721100651ADDMA1999999100541MD1990001+9999REMSYN04801002 46/// /1215 11152 21172 30054 40065 50000=
0108010020999992015011516004+80050+016250FM-12+000899999V0201301N015019999999N999999999-01471-01701100671ADDMA1999999100551MD1290039+9999REMSYN04801002 46/// /1315 11147 21170 30055 40067 54003=EQDQ01.3    3APC3  
0089010020999992015011517004+80050+016250FM-12+000899999V0201201N015019999999N999999999-01431-01661100711ADDMA1999999100601MD1210081+9999REMSYN04801002 46/// /1215 11143 21166 30060 40071 52008=
0132010020999992015011518004+80050+016250FM-12+000899999V0201201N016019999999N999999999-01441-01681100731ADDKA1120M-01241MA1999999100621MD1210081+9999OD139901801999REMSYN06401002 46/// /1216 11144 21168 30062 40073 52008 333 11124 91118=
0089010020999992015011519004+80050+016250FM-12+000899999V0201201N016019999999N999999999-01461-01701100781ADDMA1999999100671MD1210121+9999REMSYN04801002 46/// /1216 11146 21170 30067 40078 52012=
0089010020999992015011520004+80050+016250FM-12+000899999V0201201N016019999999N999999999-01411-01611100871ADDMA1999999100761MD1110161+9999REMSYN04801002 46/// /1216 11141 21161 30076 40087 51016=
0089010020999992015011521004+80050+016250FM-12+000899999V0201201N015019999999N999999999-01401-01641100921ADDMA1999999100801MD1210191+9999REMSYN04801002 46/// /1215 11140 21164 30080 40092 52019=
0089010020999992015011522004+80050+016250FM-12+000899999V0201101N014019999999N999999999-01381-01621100971ADDMA1999999100861MD1210191+9999REMSYN04801002 46/// /1114 11138 21162 30086 40097 52019=
0089010020999992015011523004+80050+016250FM-12+000899999V0201101N013019999999N999999999-01331-01591101021ADDMA1999999100901MD1210151+9999REMSYN04801002 46/// /1113 11133 21159 30090 40102 52015=
0113010020999992015011600004+80050+016250FM-12+000899999V0201101N012019999999N999999999-01271-01541101071ADDMA1999999100951MD1210151+9999OD139901801999REMSYN05801002 46/// /1112 11127 21154 30095 40107 52015 333 91118=
0089010020999992015011601004+80050+016250FM-12+000899999V0201101N012019999999N999999999-01291-01471101101ADDMA1999999100991MD1210131+9999REMSYN04801002 46/// /1112 11129 21147 30099 40110 52013=
0089010020999992015011602004+80050+016250FM-12+000899999V0201201N010019999999N999999999-01291-01491101131ADDMA1999999101021MD1210121+9999REMSYN04801002 46/// /1210 11129 21149 30102 40113 52012=
0089010020999992015011603004+80050+016250FM-12+000899999V0201201N009019999999N999999999-01241-01481101141ADDMA1999999101021MD1310071+9999REMSYN04801002 46/// /1209 11124 21148 30102 40114 53007=
0089010020999992015011604004+80050+016250FM-12+000899999V0201101N009019999999N999999999-01201-01501101161ADDMA1999999101051MD1210061+9999REMSYN04801002 46/// /1109 11120 21150 30105 40116 52006=
0089010020999992015011605004+80050+016250FM-12+000899999V0201301N008019999999N999999999-01311-01571101171ADDMA1999999101061MD1210041+9999REMSYN04801002 46/// /1308 11131 21157 30106 40117 52004=
0132010020999992015011606004+80050+016250FM-12+000899999V0201001N008019999999N999999999-01151-01641101191ADDKA1240N-01471MA1999999101081MD1210061+9999OD139901401999REMSYN06401002 46/// /1008 11115 21164 30108 40119 52006 333 21147 91114=
0089010020999992015011607004+80050+016250FM-12+000899999V0200801N009019999999N999999999-01141-01641101231ADDMA1999999101121MD1210061+9999REMSYN04801002 46/// /0809 11114 21164 30112 40123 52006=
0089010020999992015011608004+80050+016250FM-12+000899999V0200901N009019999999N999999999-01181-01631101261ADDMA1999999101151MD1210091+9999REMSYN04801002 46/// /0909 11118 21163 30115 40126 52009=
0089010020999992015011609004+80050+016250FM-12+000899999V0200801N009019999999N999999999-01211-01751101301ADDMA1999999101191MD1210111+9999REMSYN04801002 46/// /0809 11121 21175 30119 40130 52011=
0089010020999992015011610004+80050+016250FM-12+000899999V0200901N008019999999N999999999-01221-01691101321ADDMA1999999101211MD1210091+9999REMSYN04801002 46/// /0908 11122 21169 30121 40132 52009=
0089010020999992015011611004+80050+016250FM-12+000899999V0200901N007019999999N999999999-01221-01671101311ADDMA1999999101191MD1310041+9999REMSYN04801002 46/// /0907 11122 21167 30119 40131 53004=
0113010020999992015011612004+80050+016250FM-12+000899999V0201101N007019999999N999999999-01241-01681101291ADDMA1999999101181MD1510011+9999OD139901301999REMSYN05801002 46/// /1107 11124 21168 30118 40129 55001 333 91113=
0108010020999992015011614004+80050+016250FM-12+000899999V0200901N008019999999N999999999-01221-01611101301ADDMA1999999101181MD1790019+9999REMSYN04801002 46/// /0908 11122 21161 30118 40130 54001=EQDQ01.1    3APC3  
0089010020999992015011615004+80050+016250FM-12+000899999V0200801N007019999999N999999999-01211-01581101291ADDMA1999999101181MD1410001+9999REMSYN04801002 46/// /0807 11121 21158 30118 40129 54000=
0094010020999992015011616004+80050+016250FM-12+000899999V0201001N007019999999N999999999-01251-01591101321ADDMA1999999101201REMSYN04801002 46/// /1007 11125 21159 30120 40132 54002=EQDQ014     3APCTEN
0108010020999992015011617004+80050+016250FM-12+000899999V0201001N006019999999N999999999-01261-01621101311ADDMA1999999101201MD1290019+9999REMSYN04801002 46/// /1006 11126 21162 30120 40131 54001=EQDQ01.1    3APC3  
0089010020999992015011618004+80050+016250FM-12+000899999V0200901N006019999999N999999999-01271-01671101301ADDMA1999999101191MD1510011+9999REMSYN04801002 46/// /0906 11127 21167 30119 40130 55001=
0089010020999992015011620004+80050+016250FM-12+000899999V0200801N007019999999N999999999-01351-01751101361ADDMA1999999101241MD1110051+9999REMSYN04801002 46/// /0807 11135 21175 30124 40136 51005=
0089010020999992015011621004+80050+016250FM-12+000899999V0200801N008019999999N999999999-01391-01761101361ADDMA1999999101251MD1210061+9999REMSYN04801002 46/// /0808 11139 21176 30125 40136 52006=
0089010020999992015011622004+80050+016250FM-12+000899999V0200801N008019999999N999999999-01401-01751101371ADDMA1999999101261MD1210051+9999REMSYN04801002 46/// /0808 11140 21175 30126 40137 52005=
0108010020999992015011623004+80050+016250FM-12+000899999V0201001N008019999999N999999999-01401-01771101381ADDMA1999999101271MD1290029+9999REMSYN04801002 46/// /1008 11140 21177 30127 40138 54002=EQDQ01.2    3APC3  
0089010020999992015011700004+80050+016250FM-12+000899999V0201001N008019999999N999999999-01421-01741101371ADDMA1999999101251MD1410001+9999REMSYN04801002 46/// /1008 11142 21174 30125 40137 54000=
0108010020999992015011701004+80050+016250FM-12+000899999V0201301N006019999999N999999999-01571-01851101401ADDMA1999999101281MD1290039+9999REMSYN04801002 46/// /1306 11157 21185 30128 40140 54002=EQDQ01.2    3APC3  
0089010020999992015011702004+80050+016250FM-12+000899999V0201301N007019999999N999999999-01611-01861101381ADDMA1999999101271MD1410001+9999REMSYN04801002 46/// /1307 11161 21186 30127 40138 54000=
0108010020999992015011703004+80050+016250FM-12+000899999V0201201N006019999999N999999999-01501-01691101381ADDMA1999999101271MD1290019+9999REMSYN04801002 46/// /1206 11150 21169 30127 40138 54001=EQDQ01.1    3APC3  
0089010020999992015011704004+80050+016250FM-12+000899999V0201201N008019999999N999999999-01451-01611101331ADDMA1999999101221MD1610061+9999REMSYN04801002 46/// /1208 11145 21161 30122 40133 56006=
0089010020999992015011705004+80050+016250FM-12+000899999V0201101N007019999999N999999999-01401-01601101341ADDMA1999999101231MD1710041+9999REMSYN04801002 46/// /1107 11140 21160 30123 40134 57004=
0113010020999992015011706004+80050+016250FM-12+000899999V0201001N006019999999N999999999-01361-01591101361ADDMA1999999101251MD1990021+9999OD139901101999REMSYN05801002 46/// /1006 11136 21159 30125 40136 50002 333 91111=
0089010020999992015011707004+80050+016250FM-12+000899999V0201301N008019999999N999999999-01501-01661101361ADDMA1999999101251MD1210031+9999REMSYN04801002 46/// /1308 11150 21166 30125 40136 52003=
0089010020999992015011708004+80050+016250FM-12+000899999V0201201N007019999999N999999999-01461-01641101381ADDMA1999999101271MD1210041+9999REMSYN04801002 46/// /1207 11146 21164 30127 40138 52004=
0089010020999992015011709004+80050+016250FM-12+000899999V0201201N008019999999N999999999-01471-01671101411ADDMA1999999101291MD1210041+9999REMSYN04801002 46/// /1208 11147 21167 30129 40141 52004=
0089010020999992015011710004+80050+016250FM-12+000899999V0201301N007019999999N999999999-01681-02001101441ADDMA1999999101331MD1210081+9999REMSYN04801002 46/// /1307 11168 21200 30133 40144 52008=
0089010020999992015011711004+80050+016250FM-12+000899999V0201301N006019999999N999999999-01801-02141101441ADDMA1999999101331MD1210061+9999REMSYN04801002 46/// /1306 11180 21214 30133 40144 52006=
0113010020999992015011712004+80050+016250FM-12+000899999V0201401N005019999999N999999999-01601-02021101441ADDMA1999999101321MD1510031+9999OD139900901999REMSYN05801002 46/// /1405 11160 21202 30132 40144 55003 333 91109=
0089010020999992015011713004+80050+016250FM-12+000899999V0201301N005019999999N999999999-01551-02121101471ADDMA1999999101351MD1990021+9999REMSYN04801002 46/// /1305 11155 21212 30135 40147 50002=
0089010020999992015011714004+80050+016250FM-12+000899999V0201401N004019999999N999999999-01561-02021101471ADDMA1999999101361MD1210031+9999REMSYN04801002 46/// /1404 11156 21202 30136 40147 52003=
0089010020999992015011715004+80050+016250FM-12+000899999V0201401N005019999999N999999999-01521-01871101461ADDMA1999999101341MD1510021+9999REMSYN04801002 46/// /1405 11152 21187 30134 40146 55002=
0108010020999992015011716004+80050+016250FM-12+000899999V0201601N004019999999N999999999-01371-01671101461ADDMA1999999101341MD1790019+9999REMSYN04801002 46/// /1604 11137 21167 30134 40146 54001=EQDQ014     3APCTEN
0089010020999992015011717004+80050+016250FM-12+000899999V0202001N006019999999N999999999-01371-01551101431ADDMA1999999101321MD1710041+9999REMSYN04801002 46/// /2006 11137 21155 30132 40143 57004=
0132010020999992015011718004+80050+016250FM-12+000899999V0202001N007019999999N999999999-01161-01411101391ADDKA1120M-01011MA1999999101281MD1610071+9999OD139901001999REMSYN06401002 46/// /2007 11116 21141 30128 40139 56007 333 11101 91110=
0089010020999992015011719004+80050+016250FM-12+000899999V0202101N008019999999N999999999-01151-01341101431ADDMA1999999101321MD1990021+9999REMSYN04801002 46/// /2108 11115 21134 30132 40143 50002=
0089010020999992015011720004+80050+016250FM-12+000899999V0203001N008019999999N999999999-00841-01081101431ADDMA1999999101321MD1990001+9999REMSYN04801002 46/// /3008 11084 21108 30132 40143 50000=
0089010020999992015011721004+80050+016250FM-12+000899999V0202801N009019999999N999999999-00781-01111101451ADDMA1999999101341MD1210061+9999REMSYN04801002 46/// /2809 11078 21111 30134 40145 52006=
0089010020999992015011722004+80050+016250FM-12+000899999V0202801N010019999999N999999999-00871-01111101471ADDMA1999999101361MD1210041+9999REMSYN04801002 46/// /2810 11087 21111 30136 40147 52004=
0089010020999992015011723004+80050+016250FM-12+000899999V0202801N011019999999N999999999-00901-01181101471ADDMA1999999101361MD1210041+9999REMSYN04801002 46/// /2811 11090 21118 30136 40147 52004=
0113010020999992015011800004+80050+016250FM-12+000899999V0202801N012019999999N999999999-00901-01121101431ADDMA1999999101321MD1510021+9999OD139901501999REMSYN05801002 46/// /2812 11090 21112 30132 40143 55002 333 91115=
0089010020999992015011801004+80050+016250FM-12+000899999V0202801N012019999999N999999999-00871-01051101441ADDMA1999999101321MD1710041+9999REMSYN04801002 46/// /2812 11087 21105 30132 40144 57004=
0089010020999992015011802004+80050+016250FM-12+000899999V0202701N012019999999N999999999-00831-01111101421ADDMA1999999101311MD1710051+9999REMSYN04801002 46/// /2712 11083 21111 30131 40142 57005=
0089010020999992015011803004+80050+016250FM-12+000899999V0202901N012019999999N999999999-00781-00951101381ADDMA1999999101271MD1610051+9999REMSYN04801002 46/// /2912 11078 21095 30127 40138 56005=
0089010020999992015011804004+80050+016250FM-12+000899999V0202801N012019999999N999999999-00721-00911101331ADDMA1999999101221MD1710101+9999REMSYN04801002 46/// /2812 11072 21091 30122 40133 57010=
0089010020999992015011805004+80050+016250FM-12+000899999V0202901N015019999999N999999999-00781-00951101281ADDMA1999999101171MD1710141+9999REMSYN04801002 46/// /2915 11078 21095 30117 40128 57014=
0132010020999992015011806004+80050+016250FM-12+000899999V0203001N015019999999N999999999-00741-00991101241ADDKA1240N-01191MA1999999101131MD1710131+9999OD139901801999REMSYN06401002 46/// /3015 11074 21099 30113 40124 57013 333 21119 91118=
0089010020999992015011807004+80050+016250FM-12+000899999V0202901N013019999999N999999999-00791-01031101251ADDMA1999999101141MD1810091+9999REMSYN04801002 46/// /2913 11079 21103 30114 40125 58009=
0089010020999992015011808004+80050+016250FM-12+000899999V0203101N010019999999N999999999-00911-01081101231ADDMA1999999101121MD1710051+9999REMSYN04801002 46/// /3110 11091 21108 30112 40123 57005=
0108010020999992015011809004+80050+016250FM-12+000899999V0203201N007019999999N999999999-00951-01091101221ADDMA1999999101111MD1790029+9999REMSYN04801002 46/// /3207 11095 21109 30111 40122 54002=EQDQ01.2    3APC3  
0089010020999992015011810004+80050+016250FM-12+000899999V0203401N005019999999N999999999-00941-01111101211ADDMA1999999101101MD1710041+9999REMSYN04801002 46/// /3405 11094 21111 30110 40121 57004=
0089010020999992015011811004+80050+016250FM-12+000899999V0209999C999999999999N999999999-00941-01141101071ADDMA1999999100961MD1610161+9999REMSYN04801002 46/// /0000 11094 21114 30096 40107 56016=
0113010020999992015011812004+80050+016250FM-12+000899999V0201501N001019999999N999999999-00991-01131100961ADDMA1999999100851MD1610261+9999OD139901801999REMSYN05801002 46/// /1501 11099 21113 30085 40096 56026 333 91118=
0089010020999992015011813004+80050+016250FM-12+000899999V0201501N002019999999N999999999-01001-01161100931ADDMA1999999100821MD1810281+9999REMSYN04801002 46/// /1502 11100 21116 30082 40093 58028=
0089010020999992015011814004+80050+016250FM-12+000899999V0203201N007019999999N999999999-00881-01091100941ADDMA1999999100831MD1810131+9999REMSYN04801002 46/// /3207 11088 21109 30083 40094 58013=
0089010020999992015011815004+80050+016250FM-12+000899999V0203101N008019999999N999999999-01051-01261100991ADDMA1999999100881MD1990031+9999REMSYN04801002 46/// /3108 11105 21126 30088 40099 50003=
0089010020999992015011816004+80050+016250FM-12+000899999V0203101N012019999999N999999999-01151-01301100991ADDMA1999999100881MD1210061+9999REMSYN04801002 46/// /3112 11115 21130 30088 40099 52006=
0089010020999992015011817004+80050+016250FM-12+000899999V0203001N013019999999N999999999-01191-01341101021ADDMA1999999100901MD1210071+9999REMSYN04801002 46/// /3013 11119 21134 30090 40102 52007=
0132010020999992015011818004+80050+016250FM-12+000899999V0203001N013019999999N999999999-01371-01551101101ADDKA1120M-00701MA1999999100991MD1110111+9999OD139901601999REMSYN06401002 46/// /3013 11137 21155 30099 40110 51011 333 11070 91116=
0089010020999992015011819004+80050+016250FM-12+000899999V0203001N010019999999N999999999-01471-01721101271ADDMA1999999101161MD1110281+9999REMSYN04801002 46/// /3010 11147 21172 30116 40127 51028=
0089010020999992015011820004+80050+016250FM-12+000899999V0203101N006019999999N999999999-01471-01791101341ADDMA1999999101231MD1210331+9999REMSYN04801002 46/// /3106 11147 21179 30123 40134 52033=
0089010020999992015011821004+80050+016250FM-12+000899999V0203001N006019999999N999999999-01461-01781101421ADDMA1999999101311MD1310321+9999REMSYN04801002 46/// /3006 11146 21178 30131 40142 53032=
0089010020999992015011822004+80050+016250FM-12+000899999V0202701N006019999999N999999999-01441-01721101411ADDMA1999999101301MD1310141+9999REMSYN04801002 46/// /2706 11144 21172 30130 40141 53014=
0089010020999992015011823004+80050+016250FM-12+000899999V0202901N001019999999N999999999-01481-01771101391ADDMA1999999101281MD1310051+9999REMSYN04801002 46/// /2901 11148 21177 30128 40139 53005=
0113010020999992015011900004+80050+016250FM-12+000899999V0203001N002019999999N999999999-01401-01671101341ADDMA1999999101231MD1610081+9999OD139901501999REMSYN05801002 46/// /3002 11140 21167 30123 40134 56008 333 91115=
0089010020999992015011901004+80050+016250FM-12+000899999V0202701N004019999999N999999999-01281-01521101241ADDMA1999999101131MD1610171+9999REMSYN04801002 46/// /2704 11128 21152 30113 40124 56017=
0089010020999992015011902004+80050+016250FM-12+000899999V0201501N007019999999N999999999-01461-01671101191ADDMA1999999101081MD1710201+9999REMSYN04801002 46/// /1507 11146 21167 30108 40119 57020=
0089010020999992015011903004+80050+016250FM-12+000899999V0201501N004019999999N999999999-01551-01911101101ADDMA1999999100991MD1710241+9999REMSYN04801002 46/// /1504 11155 21191 30099 40110 57024=
0089010020999992015011904004+80050+016250FM-12+000899999V0201501N007019999999N999999999-01391-01661101041ADDMA1999999100931MD1710201+9999REMSYN04801002 46/// /1507 11139 21166 30093 40104 57020=
0089010020999992015011905004+80050+016250FM-12+000899999V0201501N008019999999N999999999-01441-01761100931ADDMA1999999100811MD1710261+9999REMSYN04801002 46/// /1508 11144 21176 30081 40093 57026=
0132010020999992015011906004+80050+016250FM-12+000899999V0201501N009019999999N999999999-01361-01821100711ADDKA1240N-01551MA1999999100601MD1610391+9999OD139901001999REMSYN06401002 46/// /1509 11136 21182 30060 40071 56039 333 21155 91110=
0089010020999992015011907004+80050+016250FM-12+000899999V0201401N008019999999N999999999-01181-01681100491ADDMA1999999100381MD1610551+9999REMSYN04801002 46/// /1408 11118 21168 30038 40049 56055=
0089010020999992015011908004+80050+016250FM-12+000899999V0201401N006019999999N999999999-01021-01531100381ADDMA1999999100271MD1810541+9999REMSYN04801002 46/// /1406 11102 21153 30027 40038 58054=
0089010020999992015011909004+80050+016250FM-12+000899999V0201401N010019999999N999999999-00931-01131100201ADDMA1999999100091MD1810511+9999REMSYN04801002 46/// /1410 11093 21113 30009 40020 58051=
0089010020999992015011910004+80050+016250FM-12+000899999V0201801N005019999999N999999999-00821-01161100131ADDMA1999999100021MD1810361+9999REMSYN04801002 46/// /1805 11082 21116 30002 40013 58036=
0089010020999992015011911004+80050+016250FM-12+000899999V0201901N007019999999N999999999-00731-01091100031ADDMA1999999099921MD1810351+9999REMSYN04801002 46/// /1907 11073 21109 39992 40003 58035=
0113010020999992015011912004+80050+016250FM-12+000899999V0202001N007019999999N999999999-00561-00891099921ADDMA1999999099811MD1610281+9999OD139901501999REMSYN05801002 46/// /2007 11056 21089 39981 49992 56028 333 91115=
0089010020999992015011913004+80050+016250FM-12+000899999V0202001N007019999999N999999999-00491-00781099881ADDMA1999999099771MD1810251+9999REMSYN04801002 46/// /2007 11049 21078 39977 49988 58025=
0089010020999992015011914004+80050+016250FM-12+000899999V0202001N010019999999N999999999-00471-00581099801ADDMA1999999099701MD1710221+9999REMSYN04801002 46/// /2010 11047 21058 39970 49980 57022=
0089010020999992015011915004+80050+016250FM-12+000899999V0202501N006019999999N999999999-00301-00441099841ADDMA1999999099731MD1810081+9999REMSYN04801002 46/// /2506 11030 21044 39973 49984 58008=
0089010020999992015011916004+80050+016250FM-12+000899999V0202501N005019999999N999999999-00251-00531099821ADDMA1999999099721MD1810061+9999REMSYN04801002 46/// /2505 11025 21053 39972 49982 58006=
0089010020999992015011917004+80050+016250FM-12+000899999V0202401N007019999999N999999999-00221-00641099741ADDMA1999999099631MD1510071+9999REMSYN04801002 46/// /2407 11022 21064 39963 49974 55007=
0132010020999992015011918004+80050+016250FM-12+000899999V0202501N009019999999N999999999-00211-00681099661ADDKA1120M-00201MA1999999099551MD1610181+9999OD139901201999REMSYN06401002 46/// /2509 11021 21068 39955 49966 56018 333 11020 91112=
0089010020999992015011919004+80050+016250FM-12+000899999V0203001N008019999999N999999999-00361-00591099761ADDMA1999999099661MD1810061+9999REMSYN04801002 46/// /3008 11036 21059 39966 49976 58006=
0089010020999992015011920004+80050+016250FM-12+000899999V0203001N007019999999N999999999-00481-00681099861ADDMA1999999099751MD1990121+9999REMSYN04801002 46/// /3007 11048 21068 39975 49986 50012=
0089010020999992015011921004+80050+016250FM-12+000899999V0202901N008019999999N999999999-00521-00741099891ADDMA1999999099781MD1310231+9999REMSYN04801002 46/// /2908 11052 21074 39978 49989 53023=
0089010020999992015011922004+80050+016250FM-12+000899999V0202901N007019999999N999999999-00571-00841099971ADDMA1999999099861MD1210211+9999REMSYN04801002 46/// /2907 11057 21084 39986 49997 52021=
0089010020999992015011923004+80050+016250FM-12+000899999V0203201N005019999999N999999999-00681-00921100031ADDMA1999999099921MD1210161+9999REMSYN04801002 46/// /3205 11068 21092 39992 40003 52016=
0113010020999992015012000004+80050+016250FM-12+000899999V0203201N006019999999N999999999-00741-00971100021ADDMA1999999099921MD1310131+9999OD139901101999REMSYN05801002 46/// /3206 11074 21097 39992 40002 53013 333 91111=
0089010020999992015012001004+80050+016250FM-12+000899999V0203101N005019999999N999999999-00791-01021100121ADDMA1999999100011MD1110141+9999REMSYN04801002 46/// /3105 11079 21102 30001 40012 51014=
0089010020999992015012002004+80050+016250FM-12+000899999V0203201N004019999999N999999999-00851-01091100191ADDMA1999999100081MD1110161+9999REMSYN04801002 46/// /3204 11085 21109 30008 40019 51016=
0089010020999992015012003004+80050+016250FM-12+000899999V0203101N005019999999N999999999-00801-01001100251ADDMA1999999100141MD1310221+9999REMSYN04801002 46/// /3105 11080 21100 30014 40025 53022=
0089010020999992015012004004+80050+016250FM-12+000899999V0203001N006019999999N999999999-00821-01001100271ADDMA1999999100161MD1310151+9999REMSYN04801002 46/// /3006 11082 21100 30016 40027 53015=
0089010020999992015012005004+80050+016250FM-12+000899999V0203001N007019999999N999999999-00851-01031100341ADDMA1999999100231MD1210151+9999REMSYN04801002 46/// /3007 11085 21103 30023 40034 52015=
0132010020999992015012006004+80050+016250FM-12+000899999V0203001N007019999999N999999999-00891-01071100421ADDKA1240N-00911MA1999999100311MD1110171+9999OD139900901999REMSYN06401002 46/// /3007 11089 21107 30031 40042 51017 333 21091 91109=
0089010020999992015012007004+80050+016250FM-12+000899999V0203001N007019999999N999999999-00891-01091100551ADDMA1999999100441MD1110281+9999REMSYN04801002 46/// /3007 11089 21109 30044 40055 51028=
0089010020999992015012008004+80050+016250FM-12+000899999V0203101N006019999999N999999999-00941-01141100631ADDMA1999999100521MD1210291+9999REMSYN04801002 46/// /3106 11094 21114 30052 40063 52029=
0089010020999992015012009004+80050+016250FM-12+000899999V0203101N006019999999N999999999-00951-01151100721ADDMA1999999100611MD1310301+9999REMSYN04801002 46/// /3106 11095 21115 30061 40072 53030=
0089010020999992015012010004+80050+016250FM-12+000899999V0203001N006019999999N999999999-00951-01171100851ADDMA1999999100741MD1110301+9999REMSYN04801002 46/// /3006 11095 21117 30074 40085 51030=
0089010020999992015012011004+80050+016250FM-12+000899999V0203001N005019999999N999999999-00931-01191100941ADDMA1999999100831MD1210311+9999REMSYN04801002 46/// /3005 11093 21119 30083 40094 52031=
0113010020999992015012012004+80050+016250FM-12+000899999V0203001N004019999999N999999999-00891-01111101021ADDMA1999999100911MD1310311+9999OD139900901999REMSYN05801002 46/// /3004 11089 21111 30091 40102 53031 333 91109=
0089010020999992015012013004+80050+016250FM-12+000899999V0202901N003019999999N999999999-00871-01151101101ADDMA1999999100991MD1210261+9999REMSYN04801002 46/// /2903 11087 21115 30099 40110 52026=
0089010020999992015012014004+80050+016250FM-12+000899999V0202901N003019999999N999999999-00851-01171101191ADDMA1999999101081MD1210251+9999REMSYN04801002 46/// /2903 11085 21117 30108 40119 52025=
0089010020999992015012015004+80050+016250FM-12+000899999V0202801N003019999999N999999999-00851-01191101271ADDMA1999999101161MD1210241+9999REMSYN04801002 46/// /2803 11085 21119 30116 40127 52024=
0089010020999992015012016004+80050+016250FM-12+000899999V0202301N001019999999N999999999-00851-01221101281ADDMA1999999101171MD1310181+9999REMSYN04801002 46/// /2301 11085 21122 30117 40128 53018=
0089010020999992015012017004+80050+016250FM-12+000899999V0201301N001019999999N999999999-00871-01181101401ADDMA1999999101291MD1110211+9999REMSYN04801002 46/// /1301 11087 21118 30129 40140 51021=
0132010020999992015012018004+80050+016250FM-12+000899999V0201601N003019999999N999999999-00901-01191101451ADDKA1120M-00831MA1999999101341MD1110191+9999OD139900701999REMSYN06401002 46/// /1603 11090 21119 30134 40145 51019 333 11083 91107=
0089010020999992015012019004+80050+016250FM-12+000899999V0201501N003019999999N999999999-00931-01281101481ADDMA1999999101371MD1310191+9999REMSYN04801002 46/// /1503 11093 21128 30137 40148 53019=
0089010020999992015012020004+80050+016250FM-12+000899999V0201601N005019999999N999999999-01081-01361101531ADDMA1999999101421MD1210131+9999REMSYN04801002 46/// /1605 11108 21136 30142 40153 52013=
0089010020999992015012021004+80050+016250FM-12+000899999V0201501N007019999999N999999999-01001-01321101581ADDMA1999999101471MD1210131+9999REMSYN04801002 46/// /1507 11100 21132 30147 40158 52013=
0089010020999992015012022004+80050+016250FM-12+000899999V0201501N007019999999N999999999-00961-01271101611ADDMA1999999101501MD1210131+9999REMSYN04801002 46/// /1507 11096 21127 30150 40161 52013=
0089010020999992015012023004+80050+016250FM-12+000899999V0201601N004019999999N999999999-00821-01121101671ADDMA1999999101551MD1210141+9999REMSYN04801002 46/// /1604 11082 21112 30155 40167 52014=
0113010020999992015012100004+80050+016250FM-12+000899999V0201501N005019999999N999999999-00941-01181101691ADDMA1999999101581MD1210121+9999OD139900801999REMSYN05801002 46/// /1505 11094 21118 30158 40169 52012 333 91108=
0089010020999992015012101004+80050+016250FM-12+000899999V0201601N005019999999N999999999-00951-01201101721ADDMA1999999101611MD1210101+9999REMSYN04801002 46/// /1605 11095 21120 30161 40172 52010=
0089010020999992015012102004+80050+016250FM-12+000899999V0201801N006019999999N999999999-00861-01101101741ADDMA1999999101631MD1210071+9999REMSYN04801002 46/// /1806 11086 21110 30163 40174 52007=
0089010020999992015012103004+80050+016250FM-12+000899999V0201801N008019999999N999999999-00801-01101101741ADDMA1999999101631MD1210041+9999REMSYN04801002 46/// /1808 11080 21110 30163 40174 52004=
0089010020999992015012104004+80050+016250FM-12+000899999V0201901N008019999999N999999999-00861-01171101751ADDMA1999999101641MD1210031+9999REMSYN04801002 46/// /1908 11086 21117 30164 40175 52003=
0089010020999992015012105004+80050+016250FM-12+000899999V0201901N008019999999N999999999-00841-01181101771ADDMA1999999101661MD1210041+9999REMSYN04801002 46/// /1908 11084 21118 30166 40177 52004=
0132010020999992015012106004+80050+016250FM-12+000899999V0201901N007019999999N999999999-00661-01051101801ADDKA1240N-01111MA1999999101691MD1210071+9999OD139901001999REMSYN06401002 46/// /1907 11066 21105 30169 40180 52007 333 21111 91110=
0089010020999992015012107004+80050+016250FM-12+000899999V0202201N007019999999N999999999-00551-00931101811ADDMA1999999101701MD1210061+9999REMSYN04801002 46/// /2207 11055 21093 30170 40181 52006=
0089010020999992015012108004+80050+016250FM-12+000899999V0202001N008019999999N999999999-00671-01061101821ADDMA1999999101711MD1210041+9999REMSYN04801002 46/// /2008 11067 21106 30171 40182 52004=
0089010020999992015012109004+80050+016250FM-12+000899999V0201401N005019999999N999999999-00851-01091101831ADDMA1999999101721MD1210031+9999REMSYN04801002 46/// /1405 11085 21109 30172 40183 52003=
0089010020999992015012110004+80050+016250FM-12+000899999V0201401N008019999999N999999999-00911-01091101801ADDMA1999999101691MD1510011+9999REMSYN04801002 46/// /1408 11091 21109 30169 40180 55001=
0089010020999992015012111004+80050+016250FM-12+000899999V0201301N009019999999N999999999-00911-01081101751ADDMA1999999101641MD1610071+9999REMSYN04801002 46/// /1309 11091 21108 30164 40175 56007=
0113010020999992015012112004+80050+016250FM-12+000899999V0201301N009019999999N999999999-00891-01061101691ADDMA1999999101581MD1610141+9999OD139901101999REMSYN05801002 46/// /1309 11089 21106 30158 40169 56014 333 91111=
0089010020999992015012113004+80050+016250FM-12+000899999V0201401N009019999999N999999999-00871-01051101601ADDMA1999999101491MD1610201+9999REMSYN04801002 46/// /1409 11087 21105 30149 40160 56020=
0089010020999992015012114004+80050+016250FM-12+000899999V0201301N010019999999N999999999-00821-01001101521ADDMA1999999101411MD1710231+9999REMSYN04801002 46/// /1310 11082 21100 30141 40152 57023=
0089010020999992015012115004+80050+016250FM-12+000899999V0201301N012019999999N999999999-00861-01021101431ADDMA1999999101321MD1710261+9999REMSYN04801002 46/// /1312 11086 21102 30132 40143 57026=
0089010020999992015012116004+80050+016250FM-12+000899999V0201301N011019999999N999999999-00771-00941101361ADDMA1999999101241MD1710251+9999REMSYN04801002 46/// /1311 11077 21094 30124 40136 57025=
0089010020999992015012117004+80050+016250FM-12+000899999V0201301N012019999999N999999999-00801-00951101191ADDMA1999999101081MD1610331+9999REMSYN04801002 46/// /1312 11080 21095 30108 40119 56033=
0132010020999992015012118004+80050+016250FM-12+000899999V0201401N011019999999N999999999-00691-00851101061ADDKA1120M-00541MA1999999100951MD1610371+9999OD139901501999REMSYN06401002 46/// /1411 11069 21085 30095 40106 56037 333 11054 91115=
0089010020999992015012119004+80050+016250FM-12+000899999V0201301N014019999999N999999999-00901-01031100931ADDMA1999999100821MD1710431+9999REMSYN04801002 46/// /1314 11090 21103 30082 40093 57043=
0089010020999992015012120004+80050+016250FM-12+000899999V0201301N015019999999N999999999-00851-00961100801ADDMA1999999100691MD1710401+9999REMSYN04801002 46/// /1315 11085 21096 30069 40080 57040=
0089010020999992015012121004+80050+016250FM-12+000899999V0201301N013019999999N999999999-00681-00801100601ADDMA1999999100491MD1610461+9999REMSYN04801002 46/// /1313 11068 21080 30049 40060 56046=
0089010020999992015012122004+80050+016250FM-12+000899999V0201201N015019999999N999999999-00681-00791100511ADDMA1999999100401MD1810411+9999REMSYN04801002 46/// /1215 11068 21079 30040 40051 58041=
0089010020999992015012123004+80050+016250FM-12+000899999V0201301N013019999999N999999999-00681-00791100381ADDMA1999999100271MD1810421+9999REMSYN04801002 46/// /1313 11068 21079 30027 40038 58042=
0113010020999992015012200004+80050+016250FM-12+000899999V0201301N007019999999N999999999-00601-00761100291ADDMA1999999100181MD1710311+9999OD139901801999REMSYN05801002 46/// /1307 11060 21076 30018 40029 57031 333 91118=
0089010020999992015012201004+80050+016250FM-12+000899999V0201401N003019999999N999999999-00391-00681100211ADDMA1999999100101MD1810301+9999REMSYN04801002 46/// /1403 11039 21068 30010 40021 58030=
0089010020999992015012202004+80050+016250FM-12+000899999V0201601N005019999999N999999999-00461-00751100131ADDMA1999999100021MD1710251+9999REMSYN04801002 46/// /1605 11046 21075 30002 40013 57025=
0089010020999992015012203004+80050+016250FM-12+000899999V0201501N005019999999N999999999-00291-00521100021ADDMA1999999099911MD1710271+9999REMSYN04801002 46/// /1505 11029 21052 39991 40002 57027=
0089010020999992015012204004+80050+016250FM-12+000899999V0201801N005019999999N999999999-00041-00481099951ADDMA1999999099841MD1710261+9999REMSYN04801002 46/// /1805 11004 21048 39984 49995 57026=
0089010020999992015012205004+80050+016250FM-12+000899999V0201701N004019999999N999999999-00061-00471099861ADDMA1999999099751MD1710271+9999REMSYN04801002 46/// /1704 11006 21047 39975 49986 57027=
0132010020999992015012206004+80050+016250FM-12+000899999V0201901N003019999999N999999999-00131-00441099841ADDKA1240N-00941MA1999999099731MD1810181+9999OD139900701999REMSYN06401002 46/// /1903 11013 21044 39973 49984 58018 333 21094 91107=
0089010020999992015012207004+80050+016250FM-12+000899999V0202101N008019999999N999999999-00021-00291099771ADDMA1999999099671MD1710171+9999REMSYN04801002 46/// /2108 11002 21029 39967 49977 57017=
0089010020999992015012208004+80050+016250FM-12+000899999V0202101N010019999999N999999999+00071-00181099751ADDMA1999999099641MD1710111+9999REMSYN04801002 46/// /2110 10007 21018 39964 49975 57011=
0089010020999992015012209004+80050+016250FM-12+000899999V0202101N008019999999N999999999+00051-00241099751ADDMA1999999099641MD1810091+9999REMSYN04801002 46/// /2108 10005 21024 39964 49975 58009=
0108010020999992015012210004+80050+016250FM-12+000899999V0202101N010019999999N999999999+00131-00161099751ADDMA1999999099651MD1790029+9999REMSYN04801002 46/// /2110 10013 21016 39965 49975 54002=EQDQ01.2    3APC3  
0108010020999992015012211004+80050+016250FM-12+000899999V0202001N008019999999N999999999+00031-00261099771ADDMA1999999099661MD1290029+9999REMSYN04801002 46/// /2008 10003 21026 39966 49977 54002=EQDQ01.2    3APC3  
0113010020999992015012212004+80050+016250FM-12+000899999V0202101N011019999999N999999999+00131-00181099741ADDMA1999999099631MD1510011+9999OD139901301999REMSYN05801002 46/// /2111 10013 21018 39963 49974 55001 333 91113=
0108010020999992015012213004+80050+016250FM-12+000899999V0202301N010019999999N999999999+00151-00161099781ADDMA1999999099671MD1290039+9999REMSYN04801002 46/// /2310 10015 21016 39967 49978 54002=EQDQ01.2    3APC3  
0089010020999992015012214004+80050+016250FM-12+000899999V0202201N007019999999N999999999+00091-00101099791ADDMA1999999099681MD1990021+9999REMSYN04801002 46/// /2207 10009 21010 39968 49979 50002=
0089010020999992015012215004+80050+016250FM-12+000899999V0202101N008019999999N999999999+00091-00071099781ADDMA1999999099671MD1310041+9999REMSYN04801002 46/// /2108 10009 21007 39967 49978 53004=
0108010020999992015012216004+80050+016250FM-12+000899999V0202401N010019999999N999999999+00131-00141099801ADDMA1999999099691MD1290029+9999REMSYN04801002 46/// /2410 10013 21014 39969 49980 54002=EQDQ01.2    3APC3  
0089010020999992015012217004+80050+016250FM-12+000899999V0201901N005019999999N999999999+00021-00231099821ADDMA1999999099711MD1210031+9999REMSYN04801002 46/// /1905 10002 21023 39971 49982 52003=
0132010020999992015012218004+80050+016250FM-12+000899999V0202201N007019999999N999999999+00071-00121099761ADDKA1120M+00181MA1999999099661MD1510021+9999OD139901301999REMSYN06401002 46/// /2207 10007 21012 39966 49976 55002 333 10018 91113=
0089010020999992015012220004+80050+016250FM-12+000899999V0202001N009019999999N999999999+00171-00141099631ADDMA1999999099531MD1710191+9999REMSYN04801002 46/// /2009 10017 21014 39953 49963 57019=
0089010020999992015012221004+80050+016250FM-12+000899999V0202101N010019999999N999999999+00171-00171099611ADDMA1999999099501MD1810151+9999REMSYN04801002 46/// /2110 10017 21017 39950 49961 58015=
0089010020999992015012222004+80050+016250FM-12+000899999V0202101N011019999999N999999999+00211-00111099601ADDMA1999999099501MD1810091+9999REMSYN04801002 46/// /2111 10021 21011 39950 49960 58009=
0089010020999992015012223004+80050+016250FM-12+000899999V0202101N011019999999N999999999+00171-00051099611ADDMA1999999099511MD1990021+9999REMSYN04801002 46/// /2111 10017 21005 39951 49961 50002=
0089010020999992015012300004+80050+016250FM-12+000899999V0202001N010019999999N999999999+00181-00091099611ADDMA1999999099501MD1410001+9999REMSYN04801002 46/// /2010 10018 21009 39950 49961 54000=
0089010020999992015012301004+80050+016250FM-12+000899999V0202001N010019999999N999999999+00201-00111099581ADDMA1999999099481MD1510021+9999REMSYN04801002 46/// /2010 10020 21011 39948 49958 55002=
0089010020999992015012302004+80050+016250FM-12+000899999V0202101N010019999999N999999999+00181-00081099621ADDMA1999999099521MD1990011+9999REMSYN04801002 46/// /2110 10018 21008 39952 49962 50001=
0108010020999992015012303004+80050+016250FM-12+000899999V0202101N012019999999N999999999+00211-00081099581ADDMA1999999099481MD1790039+9999REMSYN04801002 46/// /2112 10021 21008 39948 49958 54003=EQDQ01.3    3APC3  
0108010020999992015012304004+80050+016250FM-12+000899999V0202201N011019999999N999999999+00231-00111099601ADDMA1999999099501MD1290029+9999REMSYN04801002 46/// /2211 10023 21011 39950 49960 54002=EQDQ01.2    3APC3  
0089010020999992015012305004+80050+016250FM-12+000899999V0202201N012019999999N999999999+00211-00111099611ADDMA1999999099511MD1990011+9999REMSYN04801002 46/// /2212 10021 21011 39951 49961 50001=
0113010020999992015012306004+80050+016250FM-12+000899999V0202101N011019999999N999999999+00211-00101099661ADDMA1999999099561MD1210081+9999OD139901501999REMSYN05801002 46/// /2111 10021 21010 39956 49966 52008 333 91115=
0089010020999992015012307004+80050+016250FM-12+000899999V0202101N011019999999N999999999+00231-00131099701ADDMA1999999099591MD1110091+9999REMSYN04801002 46/// /2111 10023 21013 39959 49970 51009=
0089010020999992015012308004+80050+016250FM-12+000899999V0202101N011019999999N999999999+00211-00131099731ADDMA1999999099631MD1210121+9999REMSYN04801002 46/// /2111 10021 21013 39963 49973 52012=
0089010020999992015012309004+80050+016250FM-12+000899999V0202201N012019999999N999999999+00201-00161099731ADDMA1999999099621MD1310071+9999REMSYN04801002 46/// /2212 10020 21016 39962 49973 53007=
0089010020999992015012310004+80050+016250FM-12+000899999V0202201N014019999999N999999999+00221-00211099721ADDMA1999999099621MD1510021+9999REMSYN04801002 46/// /2214 10022 21021 39962 49972 55002=
0089010020999992015012311004+80050+016250FM-12+000899999V0202301N013019999999N999999999+00241-00211099801ADDMA1999999099691MD1110071+9999REMSYN04801002 46/// /2313 10024 21021 39969 49980 51007=
0113010020999992015012312004+80050+016250FM-12+000899999V0202301N011019999999N999999999+00221-00121099891ADDMA1999999099791MD1110161+9999OD139901701999REMSYN05801002 46/// /2311 10022 21012 39979 49989 51016 333 91117=
0089010020999992015012313004+80050+016250FM-12+000899999V0203201N005019999999N999999999+00071-00221099931ADDMA1999999099821MD1310211+9999REMSYN04801002 46/// /3205 10007 21022 39982 49993 53021=
0089010020999992015012314004+80050+016250FM-12+000899999V0202101N002019999999N999999999+00121-00201099971ADDMA1999999099871MD1310181+9999REMSYN04801002 46/// /2102 10012 21020 39987 49997 53018=
0089010020999992015012315004+80050+016250FM-12+000899999V0202401N004019999999N999999999+00161-00131100021ADDMA1999999099921MD1210131+9999REMSYN04801002 46/// /2404 10016 21013 39992 40002 52013=
0089010020999992015012316004+80050+016250FM-12+000899999V0201701N003019999999N999999999+00161-00221100051ADDMA1999999099941MD1210121+9999REMSYN04801002 46/// /1703 10016 21022 39994 40005 52012=
0089010020999992015012317004+80050+016250FM-12+000899999V0201901N005019999999N999999999+00091-00301100051ADDMA1999999099941MD1310071+9999REMSYN04801002 46/// /1905 10009 21030 39994 40005 53007=
0151010020999992015012318004+80050+016250FM-12+000899999V0202101N008019999999N999999999+00061-00381100041ADDKA1120M+00251MA1999999099941MD1290029+9999OD139901401999REMSYN06401002 46/// /2108 10006 21038 39994 40004 54002 333 10025 91114=EQDQ01.2    3APC3  
0108010020999992015012319004+80050+016250FM-12+000899999V0202101N007019999999N999999999-00031-00441100051ADDMA1999999099951MD1410009+9999REMSYN04801002 46/// /2107 11003 21044 39995 40005 54001=EQDQ01.1    3APC3  
0108010020999992015012320004+80050+016250FM-12+000899999V0202101N008019999999N999999999-00121-00581100071ADDMA1999999099971MD1290029+9999REMSYN04801002 46/// /2108 11012 21058 39997 40007 54003=EQDQ01.3    3APC3  
0089010020999992015012321004+80050+016250FM-12+000899999V0202001N008019999999N999999999-00031-00491100081ADDMA1999999099971MD1210031+9999REMSYN04801002 46/// /2008 11003 21049 39997 40008 52003=
0089010020999992015012322004+80050+016250FM-12+000899999V0202001N007019999999N999999999-00141-00561100111ADDMA1999999100001MD1210051+9999REMSYN04801002 46/// /2007 11014 21056 30000 40011 52005=
0089010020999992015012323004+80050+016250FM-12+000899999V0201401N002019999999N999999999-00051-00301100181ADDMA1999999100071MD1110101+9999REMSYN04801002 46/// /1402 11005 21030 30007 40018 51010=
0113010020999992015012400004+80050+016250FM-12+000899999V0201401N004019999999N999999999-00121-00481100161ADDMA1999999100051MD1310081+9999OD139900901999REMSYN05801002 46/// /1404 11012 21048 30005 40016 53008 333 91109=
0089010020999992015012401004+80050+016250FM-12+000899999V0200901N003019999999N999999999-00131-00311100151ADDMA1999999100041MD1310041+9999REMSYN04801002 46/// /0903 11013 21031 30004 40015 53004=
0089010020999992015012402004+80050+016250FM-12+000899999V0201101N002019999999N999999999-00131-00371100141ADDMA1999999100041MD1710031+9999REMSYN04801002 46/// /1102 11013 21037 30004 40014 57003=
0108010020999992015012403004+80050+016250FM-12+000899999V0201101N009019999999N999999999-00151-00321100151ADDMA1999999100041MD1790019+9999REMSYN04801002 46/// /1109 11015 21032 30004 40015 54001=EQDQ01.1    3APC3  
0108010020999992015012404004+80050+016250FM-12+000899999V0200901N008019999999N999999999-00181-00291100161ADDMA1999999100051MD1290019+9999REMSYN04801002 46/// /0908 11018 21029 30005 40016 54001=EQDQ01.1    3APC3  
0108010020999992015012405004+80050+016250FM-12+000899999V0201101N011019999999N999999999-00231-00371100171ADDMA1999999100061MD1290039+9999REMSYN04801002 46/// /1111 11023 21037 30006 40017 54003=EQDQ01.3    3APC3  
0132010020999992015012406004+80050+016250FM-12+000899999V0201101N010019999999N999999999-00241-00371100181ADDKA1240N-00381MA1999999100081MD1210041+9999OD139901201999REMSYN06401002 46/// /1110 11024 21037 30008 40018 52004 333 21038 91112=
0108010020999992015012407004+80050+016250FM-12+000899999V0201101N010019999999N999999999-00221-00361100181ADDMA1999999100081MD1290029+9999REMSYN04801002 46/// /1110 11022 21036 30008 40018 54002=EQDQ01.2    3APC3  
0089010020999992015012408004+80050+016250FM-12+000899999V0201101N010019999999N999999999-00221-00361100221ADDMA1999999100121MD1210061+9999REMSYN04801002 46/// /1110 11022 21036 30012 40022 52006=
0089010020999992015012409004+80050+016250FM-12+000899999V0201101N010019999999N999999999-00241-00391100261ADDMA1999999100151MD1110071+9999REMSYN04801002 46/// /1110 11024 21039 30015 40026 51007=
0089010020999992015012410004+80050+016250FM-12+000899999V0201001N010019999999N999999999-00241-00381100301ADDMA1999999100201MD1210121+9999REMSYN04801002 46/// /1010 11024 21038 30020 40030 52012=
0089010020999992015012411004+80050+016250FM-12+000899999V0201101N010019999999N999999999-00271-00381100311ADDMA1999999100201MD1210091+9999REMSYN04801002 46/// /1110 11027 21038 30020 40031 52009=
0113010020999992015012412004+80050+016250FM-12+000899999V0201101N011019999999N999999999-00301-00401100321ADDMA1999999100211MD1310061+9999OD139901301999REMSYN05801002 46/// /1111 11030 21040 30021 40032 53006 333 91113=
0089010020999992015012413004+80050+016250FM-12+000899999V0201101N011019999999N999999999-00311-00411100361ADDMA1999999100251MD1210051+9999REMSYN04801002 46/// /1111 11031 21041 30025 40036 52005=
0089010020999992015012414004+80050+016250FM-12+000899999V0201101N012019999999N999999999-00321-00441100381ADDMA1999999100281MD1210071+9999REMSYN04801002 46/// /1112 11032 21044 30028 40038 52007=
0089010020999992015012415004+80050+016250FM-12+000899999V0201101N011019999999N999999999-00311-00431100441ADDMA1999999100331MD1210111+9999REMSYN04801002 46/// /1111 11031 21043 30033 40044 52011=
0089010020999992015012416004+80050+016250FM-12+000899999V0201101N012019999999N999999999-00341-00451100471ADDMA1999999100361MD1210111+9999REMSYN04801002 46/// /1112 11034 21045 30036 40047 52011=
0089010020999992015012417004+80050+016250FM-12+000899999V0201201N011019999999N999999999-00361-00461100491ADDMA1999999100381MD1310111+9999REMSYN04801002 46/// /1211 11036 21046 30038 40049 53011=
0132010020999992015012418004+80050+016250FM-12+000899999V0201001N011019999999N999999999-00341-00451100561ADDKA1120M-00211MA1999999100451MD1110131+9999OD139901401999REMSYN06401002 46/// /1011 11034 21045 30045 40056 51013 333 11021 91114=
0089010020999992015012419004+80050+016250FM-12+000899999V0201101N012019999999N999999999-00411-00551100601ADDMA1999999100491MD1210131+9999REMSYN04801002 46/// /1112 11041 21055 30049 40060 52013=
0089010020999992015012420004+80050+016250FM-12+000899999V0201101N013019999999N999999999-00441-00581100641ADDMA1999999100531MD1310151+9999REMSYN04801002 46/// /1113 11044 21058 30053 40064 53015=
0089010020999992015012421004+80050+016250FM-12+000899999V0201101N014019999999N999999999-00491-00631100611ADDMA1999999100501MD1310041+9999REMSYN04801002 46/// /1114 11049 21063 30050 40061 53004=
0089010020999992015012422004+80050+016250FM-12+000899999V0201101N014019999999N999999999-00521-00661100651ADDMA1999999100541MD1210051+9999REMSYN04801002 46/// /1114 11052 21066 30054 40065 52005=
0089010020999992015012423004+80050+016250FM-12+000899999V0201101N015019999999N999999999-00511-00691100661ADDMA1999999100551MD1990021+9999REMSYN04801002 46/// /1115 11051 21069 30055 40066 50002=
