0228010030999992015010100004+77000+015500FM-12+001299999V0200801N002019999999N024000199-00541-00761098641ADDAA106000091AY101021AY201021GA1011+012501061GE19MSL   +99999+99999GF101991011999012501999999MA1999999098501MD1210041+9999MW1021OD139900401999REMSYN07601003 11674 10802 11054 21076 39850 49864 52004 60001 70200 81500 333 91104=
0187010030999992015010103004+77000+015500FM-12+001299999V0200701N002019999999N025000199-00651-00841098601ADDAY101021AY201021GA1011+012501061GE19MSL   +99999+99999GF101991011999012501999999MA1999999098461MD1810041+9999MW1021REMSYN06001003 41675 10702 11065 21084 39846 49860 58004 70200 81500=
0309010030999992015010106004+77000+015500FM-12+001299999V0200801N002019999999N025000199-00571-00801098551ADDAA112000091AA224000091AJ100043100040099AY111021AY211021GA1021+008001061GA2999+999999031GE19MSL   +99999+99999GF107991021999008001999999IA1289KA1240N-00721MA1999999098411MD1510061+9999MW1031OD139900501999REMSYN09401003 11575 70802 11057 21080 39841 49855 55006 60002 70311 8253/ 333 21072 48004 70000 91105=
0203010030999992015010109004+77000+015500FM-12+001299999V0200701N006019999999N025000199-00371-00631098471ADDAY111021AY211021GA1011+008001061GA2999+999999001GE19MSL   +99999+99999GF101991011999008001999999MA1999999098331MD1710081+9999MW1011REMSYN06001003 41575 10706 11037 21063 39833 49847 57008 70111 81501=
0260010030999992015010112004+77000+015500FM-12+001299999V0200701N002019999999N025000199-00601-00801098401ADDAA106000091AY111021AY211021GA1011+004501061GA2999+999999031GA3999+999999001GE19MSL   +99999+99999GF101991011999004501999999MA1999999098261MD1810071+9999MW1021OD139900701999REMSYN07601003 11475 10702 11060 21080 39826 49840 58007 60001 70211 81531 333 91107=
0219010030999992015010115004+77000+015500FM-12+001299999V0200401N003019999999N025000199-00601-00801098331ADDAY101021AY201021GA1011+008001061GA2999+999999051GA3999+999999001GE19MSL   +99999+99999GF102991011999008001999999MA1999999098191MD1710081+9999MW1031REMSYN06001003 41575 20403 11060 21080 39819 49833 57008 70300 81521=
0279010030999992015010118004+77000+015500FM-12+001299999V0202901N001019999999N025000199-00481-00701098211ADDAA112000091AY101021AY201021GA1011+008001061GA2999+999999031GA3999+999999001GE19MSL   +99999+99999GF102991011999008001999999KA1120M-00361MA1999999098071MD1710111+9999MW1021OD139900501999REMSYN08201003 11575 22901 11048 21070 39807 49821 57011 60002 70200 81531 333 11036 91105=
0219010030999992015010121004+77000+015500FM-12+001299999V0200901N003019999999N025000199-00341-00491098111ADDAY111021AY211021GA1011+008001061GA2999+999999031GA3999+999999021GE19MSL   +99999+99999GF107991011999008001999999MA1999999097971MD1710101+9999MW1031REMSYN06001003 41575 70903 11034 21049 39797 49811 57010 70311 81536=
0260010030999992015010200004+77000+015500FM-12+001299999V0200801N007019999999N025000199-00271-00421097981ADDAA106000091AY121021AY221021GA1011+008001061GA2999+999999031GA3999+999999021GE19MSL   +99999+99999GF107991011999008001999999MA1999999097841MD1710121+9999MW1021OD139901101999REMSYN07601003 11575 70807 11027 21042 39784 49798 57012 60001 70222 81536 333 91111=
0219010030999992015010203004+77000+015500FM-12+001299999V0200801N007019999999N018000199-00231-00571097861ADDAY121021AY221021GA1011+008001061GA2999+999999031GA3999+999999021GE19MSL   +99999+99999GF107991011999008001999999MA1999999097721MD1710111+9999MW1021REMSYN06001003 41568 70807 11023 21057 39772 49786 57011 70222 81536=
0309010030999992015010206004+77000+015500FM-12+001299999V0200801N007019999999N018000199-00221-00541097731ADDAA112000091AA224000091AJ100043100040099AY121021AY221021GA1041+008001061GA2999+999999021GE19MSL   +99999+99999GF108991041999008001999999IA1289KA1240N-00651MA1999999097591MD1610121+9999MW1031OD139901201999REMSYN09401003 11568 80807 11022 21054 39759 49773 56012 60002 70322 84506 333 21065 48004 70000 91112=
0187010030999992015010209004+77000+015500FM-12+001299999V0200501N007019999999N012000199-00181-00621097681ADDAY121021AY221021GA1081+008001061GE19MSL   +99999+99999GF108991081999008001999999MA1999999097541MD1510021+9999MW1031REMSYN06001003 41562 80507 11018 21062 39754 49768 55002 70322 885//=
0244010030999992015010212004+77000+015500FM-12+001299999V0200801N007019999999N012000199-00231-00511097681ADDAA106000091AY121021AY221021GA1041+008001061GA2999+999999031GE19MSL   +99999+99999GF107991041999008001999999MA1999999097541MD1990011+9999MW1011OD139901501999REMSYN07601003 11562 70807 11023 21051 39754 49768 50001 60001 70122 8457/ 333 91115=
0203010030999992015010215004+77000+015500FM-12+001299999V0200901N007019999999N012000199-00191-00411097681ADDAY121021AY221021GA1041+008001061GA2999+999999031GE19MSL   +99999+99999GF107991041999008001999999MA1999999097541MD1510001+9999MW1021REMSYN06001003 41562 70907 11019 21041 39754 49768 55000 70222 8457/=
0247010030999992015010218004+77000+015500FM-12+001299999V0200801N006019999999N012000199-00161-00371097751ADDAA112000021AY171021AY221021GA1081+008001061GE19MSL   +99999+99999GF108991081999008001999999KA1120M-00131MA1999999097611MD1210071+9999MW1701OD139901101999REMSYN08201003 11562 80806 11016 21037 39761 49775 52007 69902 77072 885// 333 11013 91111=
0187010030999992015010221004+77000+015500FM-12+001299999V0200601N005019999999N002000199-00071-00241097911ADDAY181021AY271021GA1081+004501081GE19MSL   +99999+99999GF108991081999004501999999MA1999999097771MD1210161+9999MW1861REMSYN06001003 41420 80605 11007 21024 39777 49791 52016 78687 882//=
0228010030999992015010300004+77000+015500FM-12+001299999V0200901N006019999999N010000199-00031-00231098111ADDAA106000631AY181021AY271021GA1071+008001061GE19MSL   +99999+99999GF107991071999008001999999MA1999999097971MD1210201+9999MW1031OD139901201999REMSYN07601003 11560 70906 11003 21023 39797 49811 52020 69961 70387 875// 333 91112=
0187010030999992015010303004+77000+015500FM-12+001299999V0200801N007019999999N010000199+00151-00161098371ADDAY171021AY221021GA1071+008001061GE19MSL   +99999+99999GF107991071999008001999999MA1999999098231MD1310261+9999MW1021REMSYN06001003 41560 70807 10015 21016 39823 49837 53026 70272 875//=
0309010030999992015010306004+77000+015500FM-12+001299999V0200801N009019999999N008000199+00091-00161098601ADDAA112000021AA224000021AJ100053100050099AY171021AY231021GA1031+008001061GA2999+999999031GE19MSL   +99999+99999GF107991031999008001999999IA1249KA1240N-00191MA1999999098461MD1310241+9999MW1701OD139901601999REMSYN09401003 11558 70809 10009 21016 39846 49860 53024 69902 77073 8357/ 333 21019 44005 79999 91116=
0187010030999992015010309004+77000+015500FM-12+001299999V0200701N011019999999N006000199+00011-00181098871ADDAY171021AY231021GA1081+008001061GE19MSL   +99999+99999GF108991081999008001999999MA1999999098731MD1210271+9999MW1731REMSYN06001003 41556 80711 10001 21018 39873 49887 52027 77373 885//=
0228010030999992015010312004+77000+015500FM-12+001299999V0200701N010019999999N008000199+00001-00221099111ADDAA106000021AY171021AY231021GA1081+008001061GE19MSL   +99999+99999GF108991081999008001999999MA1999999098971MD1110241+9999MW1711OD139901901999REMSYN07601003 11558 80710 10000 21022 39897 49911 51024 69901 77173 885// 333 91119=
0187010030999992015010315004+77000+015500FM-12+001299999V0200801N015019999999N005000199-00151-00341099421ADDAY171021AY231021GA1081+008001061GE19MSL   +99999+99999GF108991081999008001999999MA1999999099281MD1110301+9999MW1731REMSYN06001003 41550 80815 11015 21034 39928 49942 51030 77373 885//=
0247010030999992015010318004+77000+015500FM-12+001299999V0200701N013019999999N008000199-00151-00481099701ADDAA112000131AY171021AY231021GA1071+008001061GE19MSL   +99999+99999GF107991071999008001999999KA1120M+00091MA1999999099561MD1110291+9999MW1711OD139902101999REMSYN08201003 11558 70713 11015 21048 39956 49970 51029 69912 77173 875// 333 10009 91121=
0203010030999992015010321004+77000+015500FM-12+001299999V0200801N013019999999N010000199-00181-00541099961ADDAY171021AY231021GA1041+008001061GA2999+999999021GE19MSL   +99999+99999GF106991041999008001999999MA1999999099821MD1110281+9999MW1381REMSYN06001003 41560 60813 11018 21054 39982 49996 51028 73873 84506=
0244010030999992015010400004+77000+015500FM-12+001299999V0200701N014019999999N018000199-00231-00541100181ADDAA106000021AY131021AY231021GA1031+008001061GA2999+999999021GE19MSL   +99999+99999GF106991031999008001999999MA1999999100041MD1310231+9999MW1381OD139902101999REMSYN07601003 11568 60714 11023 21054 30004 40018 53023 69901 73833 83506 333 91121=
0203010030999992015010403004+77000+015500FM-12+001299999V0200601N009019999999N018000199-00291-00611100471ADDAY131021AY231021GA1031+008001061GA2999+999999021GE19MSL   +99999+99999GF106991031999008001999999MA1999999100331MD1310301+9999MW1381REMSYN06001003 41568 60609 11029 21061 30033 40047 53030 73833 83506=
0309010030999992015010406004+77000+015500FM-12+001299999V0200701N010019999999N018000199-00291-00611100651ADDAA112000091AA224000131AJ100053100050099AY131021AY231021GA1021+008001061GA2999+999999001GE19MSL   +99999+99999GF104991021999008001999999IA1289KA1240N-00311MA1999999100511MD1210181+9999MW1381OD139902101999REMSYN09401003 11568 40710 11029 21061 30051 40065 52018 60002 73833 82501 333 21031 48005 70001 91121=
0203010030999992015010409004+77000+015500FM-12+001299999V0200601N008019999999N018000199-00311-00691100951ADDAY131021AY231021GA1011+008001061GA2999+999999001GE19MSL   +99999+99999GF103991011999008001999999MA1999999100811MD1210281+9999MW1381REMSYN06001003 41568 30608 11031 21069 30081 40095 52028 73833 81501=
0244010030999992015010412004+77000+015500FM-12+001299999V0200501N007019999999N018000199-00311-00681101161ADDAA106000091AY131021AY231021GA1041+008001061GA2999+999999001GE19MSL   +99999+99999GF106991041999008001999999MA1999999101021MD1310201+9999MW1381OD139901501999REMSYN07601003 11568 60507 11031 21068 30102 40116 53020 60001 73833 84501 333 91115=
0187010030999992015010415004+77000+015500FM-12+001299999V0200501N006019999999N018000199-00271-00661101351ADDAY131021AY221021GA1071+008001061GE19MSL   +99999+99999GF107991071999008001999999MA1999999101211MD1110201+9999MW1361REMSYN06001003 41568 70506 11027 21066 30121 40135 51020 73632 875//=
0223010030999992015010418004+77000+015500FM-12+001299999V0200501N006019999999N018000199-00311-00651101491ADDAA112000091AY181021AY231021GA1051+008001061GE19MSL   +99999+99999GF105991051999008001999999MA1999999101351MD1210151+9999MW1361REMSYN06601003 11568 50506 11031 21065 30135 40149 52015 69902 73683 85500=EQDQ01  00002PRCP12
0219010030999992015010421004+77000+015500FM-12+001299999V0200601N005019999999N018000199-00331-00731101651ADDAY131021AY221021GA1021+008001061GA2999+999999031GA3999+999999001GE19MSL   +99999+99999GF105991021999008001999999MA1999999101511MD1110161+9999MW1011REMSYN06001003 41568 50605 11033 21073 30151 40165 51016 70132 82531=
0244010030999992015010500004+77000+015500FM-12+001299999V0200701N005019999999N025000199-00371-00651101791ADDAA106000091AY101021AY201021GA1011+008001061GA2999+999999021GE19MSL   +99999+99999GF104991011999008001999999MA1999999101651MD1210141+9999MW1011OD139901101999REMSYN07601003 11575 40705 11037 21065 30165 40179 52014 60001 70100 81505 333 91111=
0203010030999992015010503004+77000+015500FM-12+001299999V0200601N006019999999N025000199-00611-00881101901ADDAY101021AY201021GA1011+012501061GA2999+999999021GE19MSL   +99999+99999GF104991011999012501999999MA1999999101761MD1210111+9999MW1021REMSYN06001003 41675 40606 11061 21088 30176 40190 52011 70200 81505=
0328010030999992015010506004+77000+015500FM-12+001299999V0200601N004019999999N025000199-00681-00981101971ADDAA112000091AA224000091AJ100053100050099AY101021AY201021GA1011+012501061GA2999+999999021GE19MSL   +99999+99999GF103991011999012501999999IA1289KA1240N-00711MA1999999101831MD1210061+9999MW1021OD139900801999REMSYN09401003 11675 30604 11068 21098 30183 40197 52006 60002 70200 81505 333 21071 48005 79999 91108=EQDQ01  00002PRCP24
0219010030999992015010509004+77000+015500FM-12+001299999V0200901N005019999999N025000199-00471-00731102031ADDAY111021AY211021GA1021+012501061GA2999+999999031GA3999+999999021GE19MSL   +99999+99999GF105991021999012501999999MA1999999101891MD1110061+9999MW1031REMSYN06001003 41675 50905 11047 21073 30189 40203 51006 70311 82535=
0228010030999992015010512004+77000+015500FM-12+001299999V0200901N003019999999N018000199-00441-00601102061ADDAA106000091AY111021AY211021GA1071+008001061GE19MSL   +99999+99999GF107991071999008001999999MA1999999101921MD1210021+9999MW1031OD139900801999REMSYN07601003 11568 70903 11044 21060 30192 40206 52002 60001 70311 875// 333 91108=
0187010030999992015010515004+77000+015500FM-12+001299999V0200801N002019999999N010000199-00421-00581102051ADDAY121021AY221021GA1081+008001061GE19MSL   +99999+99999GF108991081999008001999999MA1999999101911MD1990001+9999MW1711REMSYN06001003 41560 80802 11042 21058 30191 40205 50000 77122 885//=
0247010030999992015010518004+77000+015500FM-12+001299999V0201101N004019999999N010000199-00331-00441101971ADDAA112000021AY171021AY271021GA1071+008001061GE19MSL   +99999+99999GF107991071999008001999999KA1120M-00271MA1999999101831MD1810081+9999MW1701OD139900501999REMSYN08201003 11560 71104 11033 21044 30183 40197 58008 69902 77077 875// 333 11027 91105=
0219010030999992015010521004+77000+015500FM-12+001299999V0200901N004019999999N018000199-00371-00491101881ADDAY171021AY211021GA1011+004501061GA2999+999999031GA3999+999999001GE19MSL   +99999+99999GF102991011999004501999999MA1999999101741MD1710091+9999MW1011REMSYN06001003 41468 20904 11037 21049 30174 40188 57009 70171 81531=
0089010030999992015010522004+77000+015500FM-12+001299999V0200701N004019999999N999999999-00471-00621101791ADDMA1999999101651MD1810141+9999REMSYN04801003 46/// /0704 11047 21062 30165 40179 58014=
0089010030999992015010523004+77000+015500FM-12+001299999V0200901N005019999999N999999999-00381-00561101731ADDMA1999999101591MD1810181+9999REMSYN04801003 46/// /0905 11038 21056 30159 40173 58018=
0244010030999992015010600004+77000+015500FM-12+001299999V0200801N004019999999N025000199-00301-00641101661ADDAA106000021AY171021AY211021GA1011+008001061GA2999+999999031GE19MSL   +99999+99999GF101991011999008001999999MA1999999101521MD1710221+9999MW1011OD139900701999REMSYN07601003 11575 10804 11030 21064 30152 40166 57022 69901 70171 81530 333 91107=
0089010030999992015010601004+77000+015500FM-12+001299999V0200701N004019999999N999999999-00331-00651101591ADDMA1999999101451MD1710201+9999REMSYN04801003 46/// /0704 11033 21065 30145 40159 57020=
0089010030999992015010602004+77000+015500FM-12+001299999V0200901N007019999999N999999999-00371-00551101501ADDMA1999999101361MD1710231+9999REMSYN04801003 46/// /0907 11037 21055 30136 40150 57023=
0203010030999992015010603004+77000+015500FM-12+001299999V0200901N007019999999N025000199-00381-00571101361ADDAY101021AY201021GA1011+012501061GA2999+999999031GE19MSL   +99999+99999GF101991011999012501999999MA1999999101221MD1810301+9999MW1021REMSYN06001003 41675 10907 11038 21057 30122 40136 58030 70200 81530=
0089010030999992015010604004+77000+015500FM-12+001299999V0200801N007019999999N999999999-00271-00531101251ADDMA1999999101111MD1810331+9999REMSYN04801003 46/// /0807 11027 21053 30111 40125 58033=
0089010030999992015010605004+77000+015500FM-12+001299999V0200801N007019999999N999999999-00201-00571101131ADDMA1999999100991MD1610381+9999REMSYN04801003 46/// /0807 11020 21057 30099 40113 56038=
0293010030999992015010606004+77000+015500FM-12+001299999V0200801N008019999999N010000199-00181-00541101021ADDAA112000091AA224000021AJ100053100050099AY111021AY211021GA1081+008001061GE19MSL   +99999+99999GF108991081999008001999999IA1289KA1240N-00531MA1999999100881MD1710341+9999MW1031OD139901001999REMSYN09401003 11560 80808 11018 21054 30088 40102 57034 60002 70311 885// 333 21053 48005 79999 91110=
0089010030999992015010607004+77000+015500FM-12+001299999V0200801N007019999999N999999999-00131-00541100951ADDMA1999999100811MD1610301+9999REMSYN04801003 46/// /0807 11013 21054 30081 40095 56030=
0089010030999992015010608004+77000+015500FM-12+001299999V0200801N009019999999N999999999-00161-00581100841ADDMA1999999100701MD1710291+9999REMSYN04801003 46/// /0809 11016 21058 30070 40084 57029=
0187010030999992015010609004+77000+015500FM-12+001299999V0200801N009019999999N010000199-00171-00541100741ADDAY121021AY221021GA1081+008001061GE19MSL   +99999+99999GF108991081999008001999999MA1999999100601MD1810271+9999MW1021REMSYN06001003 41560 80809 11017 21054 30060 40074 58027 70222 885//=
0089010030999992015010610004+77000+015500FM-12+001299999V0200801N008019999999N999999999-00131-00491100671ADDMA1999999100531MD1610281+9999REMSYN04801003 46/// /0808 11013 21049 30053 40067 56028=
0089010030999992015010611004+77000+015500FM-12+001299999V0200801N009019999999N999999999-00091-00481100561ADDMA1999999100421MD1710271+9999REMSYN04801003 46/// /0809 11009 21048 30042 40056 57027=
0228010030999992015010612004+77000+015500FM-12+001299999V0200901N007019999999N010000199-00101-00471100461ADDAA106000091AY121021AY221021GA1081+008001061GE19MSL   +99999+99999GF108991081999008001999999MA1999999100321MD1810281+9999MW1021OD139901301999REMSYN07601003 11560 80907 11010 21047 30032 40046 58028 60001 70222 885// 333 91113=
0089010030999992015010613004+77000+015500FM-12+001299999V0200801N008019999999N999999999-00111-00451100351ADDMA1999999100211MD1810331+9999REMSYN04801003 46/// /0808 11011 21045 30021 40035 58033=
0089010030999992015010614004+77000+015500FM-12+001299999V0200801N009019999999N999999999-00061-00371100221ADDMA1999999100081MD1810331+9999REMSYN04801003 46/// /0809 11006 21037 30008 40022 58033=
0187010030999992015010615004+77000+015500FM-12+001299999V0200801N009019999999N010000199-00051-00321100101ADDAY171021AY221021GA1081+008001061GE19MSL   +99999+99999GF108991081999008001999999MA1999999099961MD1810361+9999MW1711REMSYN06001003 41560 80809 11005 21032 39996 40010 58036 77172 885//=
0089010030999992015010616004+77000+015500FM-12+001299999V0200801N008019999999N999999999-00031-00181100021ADDMA1999999099881MD1610321+9999REMSYN04801003 46/// /0808 11003 21018 39988 40002 56032=
0089010030999992015010617004+77000+015500FM-12+001299999V0200701N009019999999N999999999-00011-00121099911ADDMA1999999099771MD1610301+9999REMSYN04801003 46/// /0709 11001 21012 39977 49991 56030=
0247010030999992015010618004+77000+015500FM-12+001299999V0200801N008019999999N001000199+00001-00111099871ADDAA112000131AY171021AY231021GA1081+008001061GE19MSL   +99999+99999GF108991081999008001999999KA1120M+00001MA1999999099731MD1610211+9999MW1731OD139901501999REMSYN08201003 11510 80808 10000 21011 39973 49987 56021 69912 77373 885// 333 10000 91115=
0089010030999992015010619004+77000+015500FM-12+001299999V0200701N007019999999N999999999+00021-00111099871ADDMA1999999099731MD1610161+9999REMSYN04801003 46/// /0707 10002 21011 39973 49987 56016=
0089010030999992015010620004+77000+015500FM-12+001299999V0200701N005019999999N999999999+00061-00111099831ADDMA1999999099691MD1710081+9999REMSYN04801003 46/// /0705 10006 21011 39969 49983 57008=
0187010030999992015010621004+77000+015500FM-12+001299999V0200801N006019999999N010000199+00051-00091099791ADDAY171021AY231021GA1081+008001061GE19MSL   +99999+99999GF108991081999008001999999MA1999999099651MD1710101+9999MW1711REMSYN06001003 41560 80806 10005 21009 39965 49979 57010 77173 885//=
0089010030999992015010622004+77000+015500FM-12+001299999V0200701N004019999999N999999999+00051-00061099731ADDMA1999999099591MD1710141+9999REMSYN04801003 46/// /0704 10005 21006 39959 49973 57014=
0089010030999992015010623004+77000+015500FM-12+001299999V0200701N005019999999N999999999+00061-00071099681ADDMA1999999099541MD1710141+9999REMSYN04801003 46/// /0705 10006 21007 39954 49968 57014=
0228010030999992015010700004+77000+015500FM-12+001299999V0200801N006019999999N010000199+00071-00091099631ADDAA106000931AY171021AY251021GA1081+004501071GE19MSL   +99999+99999GF108991081999004501999999MA1999999099491MD1710161+9999MW1511OD139901001999REMSYN07601003 11460 80806 10007 21009 39949 49963 57016 69991 75175 886// 333 91110=
0089010030999992015010701004+77000+015500FM-12+001299999V0200801N006019999999N999999999+00101-00061099611ADDMA1999999099471MD1610121+9999REMSYN04801003 46/// /0806 10010 21006 39947 49961 56012=
0089010030999992015010702004+77000+015500FM-12+001299999V0200801N006019999999N999999999+00041-00121099571ADDMA1999999099431MD1610111+9999REMSYN04801003 46/// /0806 10004 21012 39943 49957 56011=
0187010030999992015010703004+77000+015500FM-12+001299999V0200801N006019999999N010000199+00061-00101099531ADDAY171021AY251021GA1081+004501061GE19MSL   +99999+99999GF108991081999004501999999MA1999999099391MD1710101+9999MW1681REMSYN06001003 41460 80806 10006 21010 39939 49953 57010 76875 885//=
0089010030999992015010704004+77000+015500FM-12+001299999V0200801N007019999999N999999999+00051-00091099441ADDMA1999999099301MD1810171+9999REMSYN04801003 46/// /0807 10005 21009 39930 49944 58017=
0089010030999992015010705004+77000+015500FM-12+001299999V0200801N007019999999N999999999+00061-00101099381ADDMA1999999099241MD1710181+9999REMSYN04801003 46/// /0807 10006 21010 39924 49938 57018=
0293010030999992015010706004+77000+015500FM-12+001299999V0200801N007019999999N010000199+00051-00061099331ADDAA112000231AA224000331AJ100043100040099AY171021AY271021GA1081+004501061GE19MSL   +99999+99999GF108991081999004501999999IA1249KA1240N-00011MA1999999099191MD1610191+9999MW1711OD139901001999REMSYN09401003 11460 80807 10005 21006 39919 49933 56019 69922 77177 885// 333 21001 44004 70003 91110=
0089010030999992015010707004+77000+015500FM-12+001299999V0200701N007019999999N999999999+00041-00071099251ADDMA1999999099111MD1810191+9999REMSYN04801003 46/// /0707 10004 21007 39911 49925 58019=
0089010030999992015010708004+77000+015500FM-12+001299999V0200801N008019999999N999999999+00021-00121099191ADDMA1999999099051MD1710181+9999REMSYN04801003 46/// /0808 10002 21012 39905 49919 57018=
0187010030999992015010709004+77000+015500FM-12+001299999V0200801N009019999999N010000199+00021-00121099121ADDAY171021AY231021GA1081+004501061GE19MSL   +99999+99999GF108991081999004501999999MA1999999098981MD1710221+9999MW1711REMSYN06001003 41460 80809 10002 21012 39898 49912 57022 77173 885//=
0089010030999992015010710004+77000+015500FM-12+001299999V0200801N011019999999N999999999+00021-00121099021ADDMA1999999098881MD1810221+9999REMSYN04801003 46/// /0811 10002 21012 39888 49902 58022=
0089010030999992015010711004+77000+015500FM-12+001299999V0209999C999999999999N999999999-00021-00081098991ADDMA1999999098851MD1610201+9999REMSYN04801003 46/// ///// 11002 21008 39885 49899 56020=
0244010030999992015010712004+77000+015500FM-12+001299999V0209999C999999999999N000600199-00021-00071098911ADDAA106003031AY171021AY231021GA1071+001501071GA2999+999999051GE19MSL   +99999+99999GF108991071999001501999999MA1999999098771MD1710201+9999MW1731OD139901601999REMSYN07601003 11206 8//// 11002 21007 39877 49891 57020 60031 77373 8762/ 333 91116=
0089010030999992015010713004+77000+015500FM-12+001299999V0200401N007019999999N999999999-00021-00061098851ADDMA1999999098711MD1810171+9999REMSYN04801003 46/// /0407 11002 21006 39871 49885 58017=
0089010030999992015010714004+77000+015500FM-12+001299999V0200401N005019999999N999999999-00011-00051098811ADDMA1999999098671MD1710181+9999REMSYN04801003 46/// /0405 11001 21005 39867 49881 57018=
0203010030999992015010715004+77000+015500FM-12+001299999V0202801N003019999999N010000199+00011-00031098891ADDAY171021AY231021GA1071+001501071GA2999+999999051GE19MSL   +99999+99999GF108991071999001501999999MA1999999098751MD1510021+9999MW1711REMSYN06001003 41260 82803 10001 21003 39875 49889 55002 77173 8762/=
0089010030999992015010716004+77000+015500FM-12+001299999V0202701N007019999999N999999999-00061-00111098981ADDMA1999999098841MD1310131+9999REMSYN04801003 46/// /2707 11006 21011 39884 49898 53013=
0089010030999992015010717004+77000+015500FM-12+001299999V0202801N006019999999N999999999-00021-00071099091ADDMA1999999098951MD1310281+9999REMSYN04801003 46/// /2806 11002 21007 39895 49909 53028=
0247010030999992015010718004+77000+015500FM-12+001299999V0202801N005019999999N010000199-00011-00111099161ADDAA112007031AY171021AY261021GA1081+004501061GE19MSL   +99999+99999GF108991081999004501999999KA1120M+00061MA1999999099021MD1210261+9999MW1661OD139901301999REMSYN08201003 11460 82805 11001 21011 39902 49916 52026 60072 76676 885// 333 10006 91113=
0089010030999992015010719004+77000+015500FM-12+001299999V0203001N006019999999N999999999+00061-00131099201ADDMA1999999099061MD1110211+9999REMSYN04801003 46/// /3006 10006 21013 39906 49920 51021=
0089010030999992015010720004+77000+015500FM-12+001299999V0202501N007019999999N999999999-00091-00191099291ADDMA1999999099151MD1310201+9999REMSYN04801003 46/// /2507 11009 21019 39915 49929 53020=
0187010030999992015010721004+77000+015500FM-12+001299999V0202501N006019999999N010000199-00111-00251099381ADDAY161021AY221021GA1061+008001061GE19MSL   +99999+99999GF106991061999008001999999MA1999999099241MD1310231+9999MW1011REMSYN06001003 41560 62506 11011 21025 39924 49938 53023 70162 86500=
0089010030999992015010722004+77000+015500FM-12+001299999V0202701N004019999999N999999999-00021-00301099461ADDMA1999999099321MD1110261+9999REMSYN04801003 46/// /2704 11002 21030 39932 49946 51026=
0089010030999992015010723004+77000+015500FM-12+001299999V0201801N002019999999N999999999-00181-00331099491ADDMA1999999099351MD1110191+9999REMSYN04801003 46/// /1802 11018 21033 39935 49949 51019=
0244010030999992015010800004+77000+015500FM-12+001299999V0200501N002019999999N010000199-00361-00501099501ADDAA106000021AY161021AY211021GA1011+008001061GA2999+999999001GE19MSL   +99999+99999GF107991011999008001999999MA1999999099361MD1110121+9999MW1011OD139901101999REMSYN07601003 11560 70502 11036 21050 39936 49950 51012 69901 70161 81501 333 91111=
0089010030999992015010801004+77000+015500FM-12+001299999V0200501N001019999999N999999999-00421-00621099521ADDMA1999999099381MD1210061+9999REMSYN04801003 46/// /0501 11042 21062 39938 49952 52006=
0089010030999992015010802004+77000+015500FM-12+001299999V0200501N003019999999N999999999-00361-00581099541ADDMA1999999099401MD1210061+9999REMSYN04801003 46/// /0503 11036 21058 39940 49954 52006=
0203010030999992015010803004+77000+015500FM-12+001299999V0200601N002019999999N010000199-00371-00561099541ADDAY121021AY221021GA1011+008001061GA2999+999999041GE19MSL   +99999+99999GF108991011999008001999999MA1999999099401MD1990041+9999MW1021REMSYN06001003 41560 80602 11037 21056 39940 49954 50004 70222 8151/=
0089010030999992015010804004+77000+015500FM-12+001299999V0200801N003019999999N999999999-00321-00511099571ADDMA1999999099431MD1210051+9999REMSYN04801003 46/// /0803 11032 21051 39943 49957 52005=
0089010030999992015010805004+77000+015500FM-12+001299999V0200801N004019999999N999999999-00251-00411099561ADDMA1999999099421MD1210021+9999REMSYN04801003 46/// /0804 11025 21041 39942 49956 52002=
0292010030999992015010806004+77000+015500FM-12+001299999V0200601N004019999999N010000199-00331-00521099541ADDAA199999919AJ100133100130099AY121021AY221021GA1011+008001061GA2999+999999041GE19MSL   +99999+99999GF108991011999008001999999IA1249KA1240N-00481MA1999999099401MD1990001+9999MW1021OD139900601999REMSYN08801003 11560 80604 11033 21052 39940 49954 50000 6//// 70222 8151/ 333 21048 44013 91106=
0089010030999992015010807004+77000+015500FM-12+001299999V0200701N005019999999N999999999-00321-00531099551ADDMA1999999099411MD1710011+9999REMSYN04801003 46/// /0705 11032 21053 39941 49955 57001=
0089010030999992015010808004+77000+015500FM-12+001299999V0200801N005019999999N999999999-00071-00401099541ADDMA1999999099401MD1710021+9999REMSYN04801003 46/// /0805 11007 21040 39940 49954 57002=
0203010030999992015010809004+77000+015500FM-12+001299999V0200901N006019999999N010000199-00061-00391099541ADDAY121021AY221021GA1011+008001061GA2999+999999031GE19MSL   +99999+99999GF107991011999008001999999MA1999999099401MD1410001+9999MW1021REMSYN06001003 41560 70906 11006 21039 39940 49954 54000 70222 8153/=
0089010030999992015010810004+77000+015500FM-12+001299999V0200801N008019999999N999999999+00001-00361099541ADDMA1999999099401MD1410001+9999REMSYN04801003 46/// /0808 10000 21036 39940 49954 54000=
0089010030999992015010811004+77000+015500FM-12+001299999V0200801N006019999999N999999999+00031-00381099561ADDMA1999999099421MD1310021+9999REMSYN04801003 46/// /0806 10003 21038 39942 49956 53002=
0244010030999992015010812004+77000+015500FM-12+001299999V0200801N009019999999N010000199+00031-00341099501ADDAA106000091AY121021AY221021GA1011+008001061GA2999+999999051GE19MSL   +99999+99999GF108991011999008001999999MA1999999099361MD1810031+9999MW1031OD139901301999REMSYN07601003 11560 80809 10003 21034 39936 49950 58003 60001 70322 8152/ 333 91113=
0089010030999992015010813004+77000+015500FM-12+001299999V0200801N009019999999N999999999+00031-00311099461ADDMA1999999099321MD1810091+9999REMSYN04801003 46/// /0809 10003 21031 39932 49946 58009=
0089010030999992015010814004+77000+015500FM-12+001299999V0200801N011019999999N999999999+00021-00281099431ADDMA1999999099291MD1610131+9999REMSYN04801003 46/// /0811 10002 21028 39929 49943 56013=
0203010030999992015010815004+77000+015500FM-12+001299999V0200701N011019999999N010000199+00021-00321099411ADDAY121021AY221021GA1041+008001061GA2999+999999051GE19MSL   +99999+99999GF108991041999008001999999MA1999999099271MD1710121+9999MW1681REMSYN06001003 41560 80711 10002 21032 39927 49941 57012 76822 8452/=
0089010030999992015010816004+77000+015500FM-12+001299999V0200701N012019999999N999999999-00011-00351099341ADDMA1999999099201MD1510101+9999REMSYN04801003 46/// /0712 11001 21035 39920 49934 55010=
0089010030999992015010817004+77000+015500FM-12+001299999V0200701N013019999999N999999999-00011-00291099271ADDMA1999999099131MD1510111+9999REMSYN04801003 46/// /0713 11001 21029 39913 49927 55011=
0247010030999992015010818004+77000+015500FM-12+001299999V0200801N013019999999N002000199-00031-00241099201ADDAA112000231AY171021AY231021GA1081+008001061GE19MSL   +99999+99999GF108991081999008001999999KA1120M+00091MA1999999099061MD1810231+9999MW1711OD139902401999REMSYN08201003 11520 80813 11003 21024 39906 49920 58023 69922 77173 885// 333 10009 91124=
0089010030999992015010819004+77000+015500FM-12+001299999V0200801N013019999999N999999999+00001-00151099081ADDMA1999999098941MD1810271+9999REMSYN04801003 46/// /0813 10000 21015 39894 49908 58027=
0089010030999992015010820004+77000+015500FM-12+001299999V0200801N016019999999N999999999-00011-00151099041ADDMA1999999098901MD1510251+9999REMSYN04801003 46/// /0816 11001 21015 39890 49904 55025=
0187010030999992015010821004+77000+015500FM-12+001299999V0200801N016019999999N002000199+00101-00141098971ADDAY171021AY231021GA1081+008001061GE19MSL   +99999+99999GF108991081999008001999999MA1999999098831MD1510231+9999MW1711REMSYN06001003 41520 80816 10010 21014 39883 49897 55023 77173 885//=
0089010030999992015010822004+77000+015500FM-12+001299999V0200801N014019999999N999999999+00061-00101098971ADDMA1999999098831MD1510101+9999REMSYN04801003 46/// /0814 10006 21010 39883 49897 55010=
0089010030999992015010823004+77000+015500FM-12+001299999V0200801N013019999999N999999999+00091-00131099001ADDMA1999999098861MD1610071+9999REMSYN04801003 46/// /0813 10009 21013 39886 49900 56007=
0228010030999992015010900004+77000+015500FM-12+001299999V0201001N009019999999N010000199+00111-00191099051ADDAA106000021AY171021AY231021GA1081+008001061GE19MSL   +99999+99999GF108991081999008001999999MA1999999098911MD1310111+9999MW1381OD139902401999REMSYN07601003 11560 81009 10011 21019 39891 49905 53011 69901 73873 885// 333 91124=
0089010030999992015010901004+77000+015500FM-12+001299999V0200901N005019999999N999999999+00111-00211099091ADDMA1999999098951MD1990101+9999REMSYN04801003 46/// /0905 10011 21021 39895 49909 50010=
0089010030999992015010902004+77000+015500FM-12+001299999V0200801N006019999999N999999999+00061-00161099111ADDMA1999999098971MD1110101+9999REMSYN04801003 46/// /0806 10006 21016 39897 49911 51010=
0187010030999992015010903004+77000+015500FM-12+001299999V0200901N009019999999N010000199+00071-00181099141ADDAY171021AY231021GA1071+008001061GE19MSL   +99999+99999GF107991071999008001999999MA1999999099001MD1210071+9999MW1701REMSYN06001003 41560 70909 10007 21018 39900 49914 52007 77073 875//=
0089010030999992015010904004+77000+015500FM-12+001299999V0200801N010019999999N999999999+00121-00241099191ADDMA1999999099051MD1210081+9999REMSYN04801003 46/// /0810 10012 21024 39905 49919 52008=
0089010030999992015010905004+77000+015500FM-12+001299999V0200801N010019999999N999999999+00091-00211099221ADDMA1999999099081MD1310121+9999REMSYN04801003 46/// /0810 10009 21021 39908 49922 53012=
0293010030999992015010906004+77000+015500FM-12+001299999V0200801N010019999999N010000199+00061-00181099301ADDAA112000021AA224000231AJ100123100120099AY171021AY231021GA1081+008001061GE19MSL   +99999+99999GF108991081999008001999999IA1249KA1240N-00101MA1999999099161MD1310151+9999MW1701OD139901701999REMSYN09401003 11560 80810 10006 21018 39916 49930 53015 69902 77073 885// 333 21010 44012 70002 91117=
0089010030999992015010907004+77000+015500FM-12+001299999V0200901N011019999999N999999999+00021-00141099361ADDMA1999999099221MD1310171+9999REMSYN04801003 46/// /0911 10002 21014 39922 49936 53017=
0089010030999992015010908004+77000+015500FM-12+001299999V0200801N010019999999N999999999+00031-00141099411ADDMA1999999099271MD1210181+9999REMSYN04801003 46/// /0810 10003 21014 39927 49941 52018=
0187010030999992015010909004+77000+015500FM-12+001299999V0200901N010019999999N010000199+00011-00181099481ADDAY171021AY231021GA1081+008001061GE19MSL   +99999+99999GF108991081999008001999999MA1999999099341MD1210191+9999MW1711REMSYN06001003 41560 80910 10001 21018 39934 49948 52019 77173 885//=
0089010030999992015010910004+77000+015500FM-12+001299999V0200901N010019999999N999999999+00061-00131099541ADDMA1999999099401MD1210191+9999REMSYN04801003 46/// /0910 10006 21013 39940 49954 52019=
0089010030999992015010911004+77000+015500FM-12+001299999V0200801N010019999999N999999999+00021-00151099581ADDMA1999999099441MD1210181+9999REMSYN04801003 46/// /0810 10002 21015 39944 49958 52018=
0228010030999992015010912004+77000+015500FM-12+001299999V0200801N010019999999N010000199+00001-00101099661ADDAA106000021AY171021AY231021GA1081+008001061GE19MSL   +99999+99999GF108991081999008001999999MA1999999099521MD1210181+9999MW1701OD139901401999REMSYN07601003 11560 80810 10000 21010 39952 49966 52018 69901 77073 885// 333 91114=
0089010030999992015010913004+77000+015500FM-12+001299999V0200901N009019999999N999999999-00011-00111099721ADDMA1999999099581MD1210201+9999REMSYN04801003 46/// /0909 11001 21011 39958 49972 52020=
0089010030999992015010914004+77000+015500FM-12+001299999V0200801N007019999999N999999999+00051-00121099781ADDMA1999999099641MD1210201+9999REMSYN04801003 46/// /0807 10005 21012 39964 49978 52020=
0187010030999992015010915004+77000+015500FM-12+001299999V0200901N007019999999N010000199+00021-00121099831ADDAY171021AY231021GA1081+004501061GE19MSL   +99999+99999GF108991081999004501999999MA1999999099691MD1210171+9999MW1711REMSYN06001003 41460 80907 10002 21012 39969 49983 52017 77173 885//=
0089010030999992015010916004+77000+015500FM-12+001299999V0201401N007019999999N999999999+00041-00231099911ADDMA1999999099771MD1310181+9999REMSYN04801003 46/// /1407 10004 21023 39977 49991 53018=
0089010030999992015010917004+77000+015500FM-12+001299999V0200901N007019999999N999999999-00011-00221099971ADDMA1999999099831MD1310201+9999REMSYN04801003 46/// /0907 11001 21022 39983 49997 53020=
0247010030999992015010918004+77000+015500FM-12+001299999V0201201N006019999999N010000199+00011-00331100071ADDAA112000021AY171021AY231021GA1081+004501061GE19MSL   +99999+99999GF108991081999004501999999KA1120M+00091MA1999999099931MD1210231+9999MW1711OD139901301999REMSYN08201003 11460 81206 10001 21033 39993 40007 52023 69902 77173 885// 333 10009 91113=
0089010030999992015010919004+77000+015500FM-12+001299999V0201301N005019999999N999999999+00011-00381100121ADDMA1999999099981MD1210221+9999REMSYN04801003 46/// /1305 10001 21038 39998 40012 52022=
0089010030999992015010920004+77000+015500FM-12+001299999V0201301N007019999999N999999999+00011-00511100141ADDMA1999999100001MD1110171+9999REMSYN04801003 46/// /1307 10001 21051 30000 40014 51017=
0187010030999992015010921004+77000+015500FM-12+001299999V0201301N008019999999N010000199-00031-00521100231ADDAY171021AY211021GA1031+008001061GE19MSL   +99999+99999GF103991031999008001999999MA1999999100091MD1310161+9999MW1011REMSYN06001003 41560 31308 11003 21052 30009 40023 53016 70171 83500=
0089010030999992015010922004+77000+015500FM-12+001299999V0201101N006019999999N999999999-00031-00521100301ADDMA1999999100161MD1310181+9999REMSYN04801003 46/// /1106 11003 21052 30016 40030 53018=
0089010030999992015010923004+77000+015500FM-12+001299999V0201001N005019999999N999999999-00031-00521100341ADDMA1999999100201MD1110191+9999REMSYN04801003 46/// /1005 11003 21052 30020 40034 51019=
0228010030999992015011000004+77000+015500FM-12+001299999V0201101N004019999999N010000199-00031-00461100391ADDAA106000021AY171021AY211021GA1071+008001061GE19MSL   +99999+99999GF107991071999008001999999MA1999999100251MD1210171+9999MW1031OD139901101999REMSYN07601003 11560 71104 11003 21046 30025 40039 52017 69901 70371 875// 333 91111=
0089010030999992015011001004+77000+015500FM-12+001299999V0201001N004019999999N999999999-00071-00461100441ADDMA1999999100301MD1210131+9999REMSYN04801003 46/// /1004 11007 21046 30030 40044 52013=
0089010030999992015011002004+77000+015500FM-12+001299999V0201201N004019999999N999999999-00041-00481100451ADDMA1999999100311MD1110111+9999REMSYN04801003 46/// /1204 11004 21048 30031 40045 51011=
0187010030999992015011003004+77000+015500FM-12+001299999V0201001N004019999999N010000199-00031-00521100461ADDAY121021AY221021GA1081+008001061GE19MSL   +99999+99999GF108991081999008001999999MA1999999100321MD1110071+9999MW1021REMSYN06001003 41560 81004 11003 21052 30032 40046 51007 70222 885//=
0089010030999992015011004004+77000+015500FM-12+001299999V0200901N003019999999N999999999-00091-00481100471ADDMA1999999100331MD1210031+9999REMSYN04801003 46/// /0903 11009 21048 30033 40047 52003=
0089010030999992015011005004+77000+015500FM-12+001299999V0200701N004019999999N999999999-00101-00511100481ADDMA1999999100341MD1210021+9999REMSYN04801003 46/// /0704 11010 21051 30034 40048 52002=
0293010030999992015011006004+77000+015500FM-12+001299999V0200801N006019999999N010000199-00061-00501100481ADDAA112000091AA224000021AJ100113100110099AY121021AY221021GA1081+008001061GE19MSL   +99999+99999GF108991081999008001999999IA1249KA1240N-00121MA1999999100341MD1210021+9999MW1021OD139900801999REMSYN09401003 11560 80806 11006 21050 30034 40048 52002 60002 70222 885// 333 21012 44011 79999 91108=
0089010030999992015011007004+77000+015500FM-12+001299999V0200801N005019999999N999999999-00081-00421100501ADDMA1999999100361MD1210031+9999REMSYN04801003 46/// /0805 11008 21042 30036 40050 52003=
0089010030999992015011008004+77000+015500FM-12+001299999V0200801N006019999999N999999999-00081-00421100491ADDMA1999999100351MD1210021+9999REMSYN04801003 46/// /0806 11008 21042 30035 40049 52002=
0187010030999992015011009004+77000+015500FM-12+001299999V0200801N004019999999N010000199-00061-00521100481ADDAY121021AY221021GA1071+008001061GE19MSL   +99999+99999GF107991071999008001999999MA1999999100341MD1990001+9999MW1011REMSYN06001003 41560 70804 11006 21052 30034 40048 50000 70122 875//=
0089010030999992015011010004+77000+015500FM-12+001299999V0200601N005019999999N999999999-00101-00461100501ADDMA1999999100361MD1410001+9999REMSYN04801003 46/// /0605 11010 21046 30036 40050 54000=
0108010030999992015011011004+77000+015500FM-12+001299999V0200701N006019999999N999999999-00091-00451100491ADDMA1999999100351MD1410009+9999REMSYN04801003 46/// /0706 11009 21045 30035 40049 54001=EQDQ01.1    3APC3  
0228010030999992015011012004+77000+015500FM-12+001299999V0200601N006019999999N010000199-00081-00491100451ADDAA106000091AY121021AY221021GA1071+008001061GE19MSL   +99999+99999GF107991071999008001999999MA1999999100311MD1810031+9999MW1021OD139901001999REMSYN07601003 11560 70606 11008 21049 30031 40045 58003 60001 70222 875// 333 91110=
0089010030999992015011013004+77000+015500FM-12+001299999V0200701N005019999999N999999999-00091-00581100431ADDMA1999999100291MD1710061+9999REMSYN04801003 46/// /0705 11009 21058 30029 40043 57006=
0089010030999992015011014004+77000+015500FM-12+001299999V0200901N007019999999N999999999-00101-00651100421ADDMA1999999100281MD1710061+9999REMSYN04801003 46/// /0907 11010 21065 30028 40042 57006=
0203010030999992015011015004+77000+015500FM-12+001299999V0200801N006019999999N010000199-00141-00531100411ADDAY121021AY221021GA1021+008001061GA2999+999999001GE19MSL   +99999+99999GF107991021999008001999999MA1999999100271MD1510041+9999MW1011REMSYN06001003 41560 70806 11014 21053 30027 40041 55004 70122 82501=
0089010030999992015011016004+77000+015500FM-12+001299999V0200701N006019999999N999999999-00151-00571100401ADDMA1999999100261MD1710041+9999REMSYN04801003 46/// /0706 11015 21057 30026 40040 57004=
0089010030999992015011017004+77000+015500FM-12+001299999V0200701N006019999999N999999999-00161-00631100421ADDMA1999999100281MD1510021+9999REMSYN04801003 46/// /0706 11016 21063 30028 40042 55002=
0279010030999992015011018004+77000+015500FM-12+001299999V0200601N006019999999N010000199-00231-00701100411ADDAA112000091AY121021AY221021GA1021+008001061GA2999+999999031GA3999+999999021GE19MSL   +99999+99999GF108991021999008001999999KA1120M-00021MA1999999100271MD1210011+9999MW1031OD139901101999REMSYN08201003 11560 80606 11023 21070 30027 40041 52001 60002 70322 82536 333 11002 91111=
0089010030999992015011019004+77000+015500FM-12+001299999V0200401N005019999999N999999999-00251-00741100431ADDMA1999999100291MD1210031+9999REMSYN04801003 46/// /0405 11025 21074 30029 40043 52003=
0089010030999992015011020004+77000+015500FM-12+001299999V0200401N005019999999N999999999-00251-00741100431ADDMA1999999100291MD1210021+9999REMSYN04801003 46/// /0405 11025 21074 30029 40043 52002=
0219010030999992015011021004+77000+015500FM-12+001299999V0200501N004019999999N010000199-00251-00751100441ADDAY121021AY221021GA1041+008001061GA2999+999999031GA3999+999999021GE19MSL   +99999+99999GF108991041999008001999999MA1999999100301MD1110031+9999MW1031REMSYN06001003 41560 80504 11025 21075 30030 40044 51003 70322 84536=
0089010030999992015011022004+77000+015500FM-12+001299999V0200601N006019999999N999999999-00211-00771100411ADDMA1999999100271MD1810021+9999REMSYN04801003 46/// /0606 11021 21077 30027 40041 58002=
0089010030999992015011023004+77000+015500FM-12+001299999V0200501N006019999999N999999999-00291-00761100411ADDMA1999999100271MD1710031+9999REMSYN04801003 46/// /0506 11029 21076 30027 40041 57003=
0089010030999992015011101004+77000+015500FM-12+001299999V0200801N007019999999N999999999-00311-00571100441ADDMA1999999100301MD1210021+9999REMSYN04801003 46/// /0807 11031 21057 30030 40044 52002=
0089010030999992015011102004+77000+015500FM-12+001299999V0200801N007019999999N999999999-00341-00591100441ADDMA1999999100301MD1210011+9999REMSYN04801003 46/// /0807 11034 21059 30030 40044 52001=
0192010030999992015011103004+77000+015500FM-12+001299999V0200701N006019999999N010000199-00331-00611100441ADDAY121021AY221021GA1071+008001061GE19MSL   +99999+99999GF107991071999008001999999MA1999999100301MW1031REMSYN06001003 41560 70706 11033 21061 30030 40044 54001 70322 875//=EQDQ014     3APCTEN
0108010030999992015011104004+77000+015500FM-12+001299999V0200701N009019999999N999999999-00341-00651100431ADDMA1999999100291MD1790019+9999REMSYN04801003 46/// /0709 11034 21065 30029 40043 54001=EQDQ01.1    3APC3  
0089010030999992015011105004+77000+015500FM-12+001299999V0200801N010019999999N999999999-00361-00701100461ADDMA1999999100321MD1310021+9999REMSYN04801003 46/// /0810 11036 21070 30032 40046 53002=
0274010030999992015011106004+77000+015500FM-12+001299999V0200701N008019999999N010000199-00361-00701100471ADDAA112000091AA224000091AJ100103100100099AY121021AY221021GA1071+008001061GE19MSL   +99999+99999GF107991071999008001999999IA1249MA1999999100331MD1310041+9999MW1021OD139901401999REMSYN08801003 11560 70708 11036 21070 30033 40047 53004 60002 70222 875// 333 44010 70000 91114=
0089010030999992015011107004+77000+015500FM-12+001299999V0200801N007019999999N999999999-00331-00651100501ADDMA1999999100361MD1210081+9999REMSYN04801003 46/// /0807 11033 21065 30036 40050 52008=
0089010030999992015011108004+77000+015500FM-12+001299999V0200701N006019999999N999999999-00251-00651100531ADDMA1999999100391MD1210091+9999REMSYN04801003 46/// /0706 11025 21065 30039 40053 52009=
0187010030999992015011109004+77000+015500FM-12+001299999V0200701N008019999999N010000199-00281-00591100561ADDAY121021AY221021GA1071+008001061GE19MSL   +99999+99999GF107991071999008001999999MA1999999100421MD1210081+9999MW1021REMSYN06001003 41560 70708 11028 21059 30042 40056 52008 70222 875//=
0089010030999992015011110004+77000+015500FM-12+001299999V0200701N009019999999N999999999-00281-00601100581ADDMA1999999100441MD1210081+9999REMSYN04801003 46/// /0709 11028 21060 30044 40058 52008=
0089010030999992015011111004+77000+015500FM-12+001299999V0200601N009019999999N999999999-00291-00631100631ADDMA1999999100491MD1210081+9999REMSYN04801003 46/// /0609 11029 21063 30049 40063 52008=
0260010030999992015011112004+77000+015500FM-12+001299999V0200701N009019999999N018000199-00291-00601100631ADDAA106000091AY131021AY221021GA1031+008001061GA2999+999999031GA3999+999999001GE19MSL   +99999+99999GF105991031999008001999999MA1999999100491MD1210061+9999MW1361OD139901501999REMSYN07601003 11568 50709 11029 21060 30049 40063 52006 60001 73632 83531 333 91115=
0089010030999992015011113004+77000+015500FM-12+001299999V0200601N009019999999N999999999-00231-00651100671ADDMA1999999100531MD1210071+9999REMSYN04801003 46/// /0609 11023 21065 30053 40067 52007=
0089010030999992015011114004+77000+015500FM-12+001299999V0200801N007019999999N999999999-00291-00521100691ADDMA1999999100551MD1210071+9999REMSYN04801003 46/// /0807 11029 21052 30055 40069 52007=
0187010030999992015011115004+77000+015500FM-12+001299999V0200701N009019999999N010000199-00291-00571100701ADDAY171021AY231021GA1081+008001061GE19MSL   +99999+99999GF108991081999008001999999MA1999999100561MD1210081+9999MW1711REMSYN06001003 41560 80709 11029 21057 30056 40070 52008 77173 885//=
0089010030999992015011116004+77000+015500FM-12+001299999V0200701N011019999999N999999999-00301-00591100741ADDMA1999999100601MD1310051+9999REMSYN04801003 46/// /0711 11030 21059 30060 40074 53005=
0089010030999992015011117004+77000+015500FM-12+001299999V0200801N011019999999N999999999-00351-00691100791ADDMA1999999100651MD1310101+9999REMSYN04801003 46/// /0811 11035 21069 30065 40079 53010=
0247010030999992015011118004+77000+015500FM-12+001299999V0200801N012019999999N010000199-00401-00781100841ADDAA112000021AY171021AY231021GA1081+008001061GE19MSL   +99999+99999GF108991081999008001999999KA1120M-00221MA1999999100701MD1110131+9999MW1711OD139901901999REMSYN08201003 11560 80812 11040 21078 30070 40084 51013 69902 77173 885// 333 11022 91119=
0089010030999992015011119004+77000+015500FM-12+001299999V0200701N012019999999N999999999-00461-00861100831ADDMA1999999100691MD1210101+9999REMSYN04801003 46/// /0712 11046 21086 30069 40083 52010=
0089010030999992015011120004+77000+015500FM-12+001299999V0200701N013019999999N999999999-00471-00911100841ADDMA1999999100701MD1990071+9999REMSYN04801003 46/// /0713 11047 21091 30070 40084 50007=
0187010030999992015011121004+77000+015500FM-12+001299999V0200701N011019999999N010000199-00511-00871100891ADDAY171021AY231021GA1051+008001061GE19MSL   +99999+99999GF105991051999008001999999MA1999999100751MD1310051+9999MW1381REMSYN06001003 41560 50711 11051 21087 30075 40089 53005 73873 85500=
0089010030999992015011122004+77000+015500FM-12+001299999V0200501N010019999999N999999999-00501-00991100911ADDMA1999999100771MD1110061+9999REMSYN04801003 46/// /0510 11050 21099 30077 40091 51006=
0089010030999992015011123004+77000+015500FM-12+001299999V0200601N010019999999N999999999-00541-01031100931ADDMA1999999100791MD1110111+9999REMSYN04801003 46/// /0610 11054 21103 30079 40093 51011=
0228010030999992015011200004+77000+015500FM-12+001299999V0200701N009019999999N015000199-00521-00961100931ADDAA106000021AY171021AY231021GA1011+008001061GE19MSL   +99999+99999GF101991011999008001999999MA1999999100791MD1110051+9999MW1381OD139902001999REMSYN07601003 11565 10709 11052 21096 30079 40093 51005 69901 73873 81500 333 91120=
0089010030999992015011201004+77000+015500FM-12+001299999V0200801N007019999999N999999999-00531-00881100951ADDMA1999999100811MD1210031+9999REMSYN04801003 46/// /0807 11053 21088 30081 40095 52003=
0089010030999992015011202004+77000+015500FM-12+001299999V0200701N008019999999N999999999-00501-00861100931ADDMA1999999100791MD1810021+9999REMSYN04801003 46/// /0708 11050 21086 30079 40093 58002=
0187010030999992015011203004+77000+015500FM-12+001299999V0200801N008019999999N018000199-00511-00841100901ADDAY131021AY201021GA1011+008001061GE19MSL   +99999+99999GF101991011999008001999999MA1999999100761MD1810041+9999MW1021REMSYN06001003 41568 10808 11051 21084 30076 40090 58004 70230 81500=
0089010030999992015011204004+77000+015500FM-12+001299999V0200601N008019999999N999999999-00501-00861100891ADDMA1999999100751MD1510061+9999REMSYN04801003 46/// /0608 11050 21086 30075 40089 55006=
0089010030999992015011205004+77000+015500FM-12+001299999V0200601N008019999999N999999999-00521-00881100881ADDMA1999999100741MD1510051+9999REMSYN04801003 46/// /0608 11052 21088 30074 40088 55005=
0293010030999992015011206004+77000+015500FM-12+001299999V0200701N008019999999N018000199-00491-00841100881ADDAA112000091AA224000021AJ100103100100099AY131021AY201021GA1011+008001061GE19MSL   +99999+99999GF101991011999008001999999IA1289KA1240N-00561MA1999999100741MD1710031+9999MW1021OD139901501999REMSYN09401003 11568 10708 11049 21084 30074 40088 57003 60002 70230 81500 333 21056 48010 79999 91115=
0089010030999992015011207004+77000+015500FM-12+001299999V0200601N007019999999N999999999-00521-00881100891ADDMA1999999100751MD1510001+9999REMSYN04801003 46/// /0607 11052 21088 30075 40089 55000=
0089010030999992015011208004+77000+015500FM-12+001299999V0200701N006019999999N999999999-00481-00891100881ADDMA1999999100741MD1210021+9999REMSYN04801003 46/// /0706 11048 21089 30074 40088 52002=
0187010030999992015011209004+77000+015500FM-12+001299999V0200801N006019999999N018000199-00491-00921100871ADDAY131021AY201021GA1021+008001061GE19MSL   +99999+99999GF102991021999008001999999MA1999999100731MD1810011+9999MW1361REMSYN06001003 41568 20806 11049 21092 30073 40087 58001 73630 82500=
0089010030999992015011210004+77000+015500FM-12+001299999V0200801N006019999999N999999999-00511-00941100871ADDMA1999999100731MD1710011+9999REMSYN04801003 46/// /0806 11051 21094 30073 40087 57001=
0089010030999992015011211004+77000+015500FM-12+001299999V0200601N005019999999N999999999-00621-01061100861ADDMA1999999100721MD1710021+9999REMSYN04801003 46/// /0605 11062 21106 30072 40086 57002=
0228010030999992015011212004+77000+015500FM-12+001299999V0200401N005019999999N018000199-00621-01091100831ADDAA106000091AY131021AY201021GA1011+008001061GE19MSL   +99999+99999GF101991011999008001999999MA1999999100691MD1710041+9999MW1011OD139901301999REMSYN07601003 11568 10405 11062 21109 30069 40083 57004 60001 70130 81500 333 91113=
0089010030999992015011213004+77000+015500FM-12+001299999V0200501N006019999999N999999999-00631-01121100781ADDMA1999999100641MD1810091+9999REMSYN04801003 46/// /0506 11063 21112 30064 40078 58009=
0089010030999992015011214004+77000+015500FM-12+001299999V0200401N006019999999N999999999-00611-01051100771ADDMA1999999100631MD1610091+9999REMSYN04801003 46/// /0406 11061 21105 30063 40077 56009=
0187010030999992015011215004+77000+015500FM-12+001299999V0200501N006019999999N018000199-00621-01061100721ADDAY101021AY201021GA1011+008001061GE19MSL   +99999+99999GF101991011999008001999999MA1999999100581MD1710111+9999MW1021REMSYN06001003 41568 10506 11062 21106 30058 40072 57011 70200 81500=
0089010030999992015011216004+77000+015500FM-12+001299999V0200501N006019999999N999999999-00651-01111100681ADDMA1999999100541MD1810101+9999REMSYN04801003 46/// /0506 11065 21111 30054 40068 58010=
0089010030999992015011217004+77000+015500FM-12+001299999V0200401N005019999999N999999999-00571-01041100651ADDMA1999999100511MD1610121+9999REMSYN04801003 46/// /0405 11057 21104 30051 40065 56012=
0247010030999992015011218004+77000+015500FM-12+001299999V0200401N005019999999N018000199-00541-01021100641ADDAA112000091AY111021AY211021GA1071+008001061GE19MSL   +99999+99999GF107991071999008001999999KA1120M-00451MA1999999100501MD1710081+9999MW1031OD139901001999REMSYN08201003 11568 70405 11054 21102 30050 40064 57008 60002 70311 875// 333 11045 91110=
0089010030999992015011219004+77000+015500FM-12+001299999V0200401N006019999999N999999999-00611-01081100631ADDMA1999999100491MD1710071+9999REMSYN04801003 46/// /0406 11061 21108 30049 40063 57007=
0089010030999992015011220004+77000+015500FM-12+001299999V0200501N005019999999N999999999-00661-01151100571ADDMA1999999100431MD1710081+9999REMSYN04801003 46/// /0505 11066 21115 30043 40057 57008=
0187010030999992015011221004+77000+015500FM-12+001299999V0200401N003019999999N018000199-00721-01211100551ADDAY111021AY211021GA1011+008001061GE19MSL   +99999+99999GF101991011999008001999999MA1999999100411MD1710091+9999MW1011REMSYN06001003 41568 10403 11072 21121 30041 40055 57009 70111 81500=
0089010030999992015011222004+77000+015500FM-12+001299999V0200701N005019999999N999999999-00651-01191100481ADDMA1999999100341MD1710141+9999REMSYN04801003 46/// /0705 11065 21119 30034 40048 57014=
0089010030999992015011223004+77000+015500FM-12+001299999V0200401N005019999999N999999999-00891-01401100451ADDMA1999999100311MD1710121+9999REMSYN04801003 46/// /0405 11089 21140 30031 40045 57012=
0228010030999992015011300004+77000+015500FM-12+001299999V0200601N004019999999N018000199-00871-01351100381ADDAA106000091AY101021AY201021GA1011+008001061GE19MSL   +99999+99999GF101991011999008001999999MA1999999100241MD1710171+9999MW1021OD139900901999REMSYN07601003 11568 10604 11087 21135 30024 40038 57017 60001 70200 81500 333 91109=
0089010030999992015011301004+77000+015500FM-12+001299999V0200901N008019999999N999999999-00701-01151100301ADDMA1999999100161MD1810191+9999REMSYN04801003 46/// /0908 11070 21115 30016 40030 58019=
0089010030999992015011302004+77000+015500FM-12+001299999V0201101N006019999999N999999999-00631-01091100261ADDMA1999999100121MD1610191+9999REMSYN04801003 46/// /1106 11063 21109 30012 40026 56019=
0187010030999992015011303004+77000+015500FM-12+001299999V0201201N004019999999N018000199-00531-01011100211ADDAY101021AY201021GA1031+008001061GE19MSL   +99999+99999GF103991031999008001999999MA1999999100071MD1610161+9999MW1031REMSYN06001003 41568 31204 11053 21101 30007 40021 56016 70300 83500=
0089010030999992015011304004+77000+015500FM-12+001299999V0201001N004019999999N999999999-00511-01001100151ADDMA1999999100011MD1710151+9999REMSYN04801003 46/// /1004 11051 21100 30001 40015 57015=
0089010030999992015011305004+77000+015500FM-12+001299999V0201201N004019999999N999999999-00521-00931100111ADDMA1999999099971MD1710151+9999REMSYN04801003 46/// /1204 11052 21093 39997 40011 57015=
0293010030999992015011306004+77000+015500FM-12+001299999V0200401N004019999999N010000199-00451-00931100061ADDAA112000021AA224000021AJ100103100100099AY111021AY211021GA1081+008001061GE19MSL   +99999+99999GF108991081999008001999999IA1289KA1240N-00891MA1999999099921MD1710151+9999MW1711OD139901001999REMSYN09401003 11560 80404 11045 21093 39992 40006 57015 69902 77111 885// 333 21089 48010 79999 91110=
0089010030999992015011307004+77000+015500FM-12+001299999V0200601N007019999999N999999999-00501-00991100031ADDMA1999999099891MD1710131+9999REMSYN04801003 46/// /0607 11050 21099 39989 40003 57013=
0089010030999992015011308004+77000+015500FM-12+001299999V0200501N005019999999N999999999-00581-01121100061ADDMA1999999099921MD1510051+9999REMSYN04801003 46/// /0505 11058 21112 39992 40006 55005=
0187010030999992015011309004+77000+015500FM-12+001299999V0200501N007019999999N010000199-00671-01211100051ADDAY181021AY271021GA1061+004501081GE19MSL   +99999+99999GF106991061999004501999999MA1999999099911MD1310021+9999MW1851REMSYN06001003 41460 60507 11067 21121 39991 40005 53002 78587 86200=
0089010030999992015011310004+77000+015500FM-12+001299999V0200501N006019999999N999999999-00751-01381100091ADDMA1999999099951MD1990061+9999REMSYN04801003 46/// /0506 11075 21138 39995 40009 50006=
0089010030999992015011311004+77000+015500FM-12+001299999V0200501N008019999999N999999999-00851-01401100131ADDMA1999999099991MD1990051+9999REMSYN04801003 46/// /0508 11085 21140 39999 40013 50005=
0228010030999992015011312004+77000+015500FM-12+001299999V0200701N008019999999N018000199-00791-01361100101ADDAA106000021AY181021AY271021GA1041+004501081GE19MSL   +99999+99999GF104991041999004501999999MA1999999099961MD1990051+9999MW1011OD139901501999REMSYN07601003 11468 40708 11079 21136 39996 40010 50005 69901 70187 84200 333 91115=
0089010030999992015011313004+77000+015500FM-12+001299999V0200701N007019999999N999999999-00751-01251100101ADDMA1999999099961MD1310011+9999REMSYN04801003 46/// /0707 11075 21125 39996 40010 53001=
0089010030999992015011314004+77000+015500FM-12+001299999V0200601N009019999999N999999999-00691-01191100051ADDMA1999999099911MD1610051+9999REMSYN04801003 46/// /0609 11069 21119 39991 40005 56005=
0187010030999992015011315004+77000+015500FM-12+001299999V0200701N012019999999N010000199-00621-01091099991ADDAY181021AY231021GA1061+004501081GE19MSL   +99999+99999GF106991061999004501999999MA1999999099851MD1810101+9999MW1851REMSYN06001003 41460 60712 11062 21109 39985 49999 58010 78583 86200=
0089010030999992015011316004+77000+015500FM-12+001299999V0200501N013019999999N999999999-00621-01061100021ADDMA1999999099881MD1610121+9999REMSYN04801003 46/// /0513 11062 21106 39988 40002 56012=
0089010030999992015011317004+77000+015500FM-12+001299999V0200601N012019999999N999999999-00581-01071099961ADDMA1999999099821MD1510051+9999REMSYN04801003 46/// /0612 11058 21107 39982 49996 55005=
0247010030999992015011318004+77000+015500FM-12+001299999V0200601N011019999999N010000199-00631-01121100031ADDAA112000021AY181021AY231021GA1071+004501081GE19MSL   +99999+99999GF107991071999004501999999KA1120M-00431MA1999999099891MD1990031+9999MW1851OD139902201999REMSYN08201003 11460 70611 11063 21112 39989 40003 50003 69902 78583 872// 333 11043 91122=
0089010030999992015011319004+77000+015500FM-12+001299999V0200501N010019999999N999999999-00611-01151100021ADDMA1999999099881MD1310011+9999REMSYN04801003 46/// /0510 11061 21115 39988 40002 53001=
0089010030999992015011320004+77000+015500FM-12+001299999V0200501N010019999999N999999999-00681-01261100041ADDMA1999999099901MD1110121+9999REMSYN04801003 46/// /0510 11068 21126 39990 40004 51012=
0187010030999992015011321004+77000+015500FM-12+001299999V0200601N011019999999N010000199-00711-01271100041ADDAY181021AY231021GA1031+008001081GE19MSL   +99999+99999GF103991031999008001999999MA1999999099901MD1990011+9999MW1381REMSYN06001003 41560 30611 11071 21127 39990 40004 50001 73883 83200=
0089010030999992015011322004+77000+015500FM-12+001299999V0200601N012019999999N999999999-00721-01141100051ADDMA1999999099911MD1810021+9999REMSYN04801003 46/// /0612 11072 21114 39991 40005 58002=
0089010030999992015011323004+77000+015500FM-12+001299999V0200601N014019999999N999999999-00681-01201099901ADDMA1999999099761MD1810131+9999REMSYN04801003 46/// /0614 11068 21120 39976 49990 58013=
0228010030999992015011400004+77000+015500FM-12+001299999V0200601N016019999999N008000199-00711-01271099951ADDAA106000021AY181021AY271021GA1031+008001061GE19MSL   +99999+99999GF103991031999008001999999MA1999999099811MD1610131+9999MW1381OD139902201999REMSYN07601003 11558 30616 11071 21127 39981 49995 56013 69901 73887 83500 333 91122=
0089010030999992015011401004+77000+015500FM-12+001299999V0200701N014019999999N999999999-00681-01131099921ADDMA1999999099781MD1610111+9999REMSYN04801003 46/// /0714 11068 21113 39978 49992 56011=
0089010030999992015011402004+77000+015500FM-12+001299999V0200701N010019999999N999999999-00671-01211099991ADDMA1999999099851MD1310111+9999REMSYN04801003 46/// /0710 11067 21121 39985 49999 53011=
0187010030999992015011403004+77000+015500FM-12+001299999V0200201N009019999999N010000199-00761-01281100071ADDAY171021AY231021GA1071+008001061GE19MSL   +99999+99999GF107991071999008001999999MA1999999099931MD1310111+9999MW1381REMSYN06001003 41560 70209 11076 21128 39993 40007 53011 73873 875//=
0089010030999992015011404004+77000+015500FM-12+001299999V0200501N010019999999N999999999-00791-01341100021ADDMA1999999099881MD1990091+9999REMSYN04801003 46/// /0510 11079 21134 39988 40002 50009=
0089010030999992015011405004+77000+015500FM-12+001299999V0200501N012019999999N999999999-00841-01341099981ADDMA1999999099841MD1990021+9999REMSYN04801003 46/// /0512 11084 21134 39984 49998 50002=
0309010030999992015011406004+77000+015500FM-12+001299999V0200601N009019999999N010000199-00881-01391100011ADDAA112000131AA224000131AJ100103100100099AY171021AY231021GA1031+008001061GA2999+999999041GE19MSL   +99999+99999GF108991031999008001999999IA1289KA1240N-00881MA1999999099871MD1610071+9999MW1711OD139902501999REMSYN09401003 11560 80609 11088 21139 39987 40001 56007 69912 77173 8351/ 333 21088 48010 70001 91125=
0089010030999992015011407004+77000+015500FM-12+001299999V0200501N014019999999N999999999-00961-01421100001ADDMA1999999099861MD1610021+9999REMSYN04801003 46/// /0514 11096 21142 39986 40000 56002=
0089010030999992015011408004+77000+015500FM-12+001299999V0200501N012019999999N999999999-00931-01391099991ADDMA1999999099851MD1810011+9999REMSYN04801003 46/// /0512 11093 21139 39985 49999 58001=
0187010030999992015011409004+77000+015500FM-12+001299999V0200701N014019999999N008000199-00871-01321099911ADDAY171021AY231021GA1041+008001061GE19MSL   +99999+99999GF104991041999008001999999MA1999999099771MD1810091+9999MW1711REMSYN06001003 41558 40714 11087 21132 39977 49991 58009 77173 84500=
0089010030999992015011410004+77000+015500FM-12+001299999V0200501N012019999999N999999999-00911-01341100031ADDMA1999999099891MD1310031+9999REMSYN04801003 46/// /0512 11091 21134 39989 40003 53003=
0089010030999992015011411004+77000+015500FM-12+001299999V0200601N016019999999N999999999-00861-01241099871ADDMA1999999099731MD1810121+9999REMSYN04801003 46/// /0616 11086 21124 39973 49987 58012=
0228010030999992015011412004+77000+015500FM-12+001299999V0200701N018019999999N001500199-00841-01191099871ADDAA106000021AY171021AY231021GA1041+008001061GE19MSL   +99999+99999GF104991041999008001999999MA1999999099731MD1810071+9999MW1711OD139902501999REMSYN07601003 11515 40718 11084 21119 39973 49987 58007 69901 77173 84500 333 91125=
0089010030999992015011413004+77000+015500FM-12+001299999V0200701N015019999999N999999999-00801-01161099951ADDMA1999999099811MD1510091+9999REMSYN04801003 46/// /0715 11080 21116 39981 49995 55009=
0089010030999992015011414004+77000+015500FM-12+001299999V0200601N013019999999N999999999-00811-01131100051ADDMA1999999099911MD1310141+9999REMSYN04801003 46/// /0613 11081 21113 39991 40005 53014=
0187010030999992015011415004+77000+015500FM-12+001299999V0200501N008019999999N001000199-00801-01121100131ADDAY171021AY231021GA1081+008001061GE19MSL   +99999+99999GF108991081999008001999999MA1999999099991MD1310251+9999MW1731REMSYN06001003 41510 80508 11080 21112 39999 40013 53025 77373 885//=
0089010030999992015011416004+77000+015500FM-12+001299999V0200601N009019999999N999999999-00801-01141100161ADDMA1999999100021MD1110201+9999REMSYN04801003 46/// /0609 11080 21114 30002 40016 51020=
0089010030999992015011417004+77000+015500FM-12+001299999V0200801N010019999999N999999999-00791-01091100151ADDMA1999999100011MD1990101+9999REMSYN04801003 46/// /0810 11079 21109 30001 40015 50010=
0247010030999992015011418004+77000+015500FM-12+001299999V0200701N013019999999N000600199-00831-01111100141ADDAA112000131AY171021AY231021GA1081+008001061GE19MSL   +99999+99999GF108991081999008001999999KA1120M-00771MA1999999100001MD1810021+9999MW1731OD139902301999REMSYN08201003 11506 80713 11083 21111 30000 40014 58002 69912 77373 885// 333 11077 91123=
0089010030999992015011419004+77000+015500FM-12+001299999V0200901N017019999999N999999999-00901-01141100111ADDMA1999999099971MD1510031+9999REMSYN04801003 46/// /0917 11090 21114 39997 40011 55003=
0089010030999992015011420004+77000+015500FM-12+001299999V0200501N012019999999N999999999-00791-01161100201ADDMA1999999100061MD1310071+9999REMSYN04801003 46/// /0512 11079 21116 30006 40020 53007=
0187010030999992015011421004+77000+015500FM-12+001299999V0200901N015019999999N002500199-00901-01211100201ADDAY171021AY231021GA1021+008001061GE19MSL   +99999+99999GF102991021999008001999999MA1999999100061MD1990061+9999MW1391REMSYN06001003 41525 20915 11090 21121 30006 40020 50006 73973 82500=
0089010030999992015011422004+77000+015500FM-12+001299999V0200801N015019999999N999999999-00921-01291100181ADDMA1999999100041MD1990061+9999REMSYN04801003 46/// /0815 11092 21129 30004 40018 50006=
0089010030999992015011423004+77000+015500FM-12+001299999V0200901N013019999999N999999999-00901-01251100261ADDMA1999999100121MD1310041+9999REMSYN04801003 46/// /0913 11090 21125 30012 40026 53004=
0228010030999992015011500004+77000+015500FM-12+001299999V0200901N008019999999N010000199-00891-01271100361ADDAA106000021AY131021AY231021GA1021+008001061GE19MSL   +99999+99999GF102991021999008001999999MA1999999100221MD1310161+9999MW1381OD139902101999REMSYN07601003 11560 20908 11089 21127 30022 40036 53016 69901 73833 82500 333 91121=
0089010030999992015011501004+77000+015500FM-12+001299999V0200601N011019999999N999999999-00921-01331100381ADDMA1999999100241MD1990181+9999REMSYN04801003 46/// /0611 11092 21133 30024 40038 50018=
0089010030999992015011502004+77000+015500FM-12+001299999V0200401N010019999999N999999999-00931-01281100371ADDMA1999999100231MD1310131+9999REMSYN04801003 46/// /0410 11093 21128 30023 40037 53013=
0187010030999992015011503004+77000+015500FM-12+001299999V0200701N012019999999N010000199-00971-01321100301ADDAY131021AY231021GA1021+008001061GE19MSL   +99999+99999GF102991021999008001999999MA1999999100161MD1510061+9999MW1381REMSYN06001003 41560 20712 11097 21132 30016 40030 55006 73833 82500=
0089010030999992015011504004+77000+015500FM-12+001299999V0200601N009019999999N999999999-00921-01371100341ADDMA1999999100201MD1510041+9999REMSYN04801003 46/// /0609 11092 21137 30020 40034 55004=
0089010030999992015011505004+77000+015500FM-12+001299999V0200701N011019999999N999999999-00971-01411100311ADDMA1999999100171MD1610081+9999REMSYN04801003 46/// /0711 11097 21141 30017 40031 56008=
0276010030999992015011506004+77000+015500FM-12+001299999V0200601N009019999999N010000199-00961-01441100321ADDAA199999919AJ100103100100099AY131021AY231021GA1021+008001061GE19MSL   +99999+99999GF102991021999008001999999IA1289KA1240N-01041MA1999999100181MD1310041+9999MW1361OD139901801999REMSYN08801003 11560 20609 11096 21144 30018 40032 53004 6//// 73633 82500 333 21104 48010 91118=
0089010030999992015011507004+77000+015500FM-12+001299999V0200601N009019999999N999999999-01001-01481100361ADDMA1999999100221MD1510011+9999REMSYN04801003 46/// /0609 11100 21148 30022 40036 55001=
0089010030999992015011508004+77000+015500FM-12+001299999V0200501N008019999999N999999999-01071-01611100391ADDMA1999999100251MD1310091+9999REMSYN04801003 46/// /0508 11107 21161 30025 40039 53009=
0117010030999992015011509004+77000+015500FM-12+001299999V0200701N008019999999N010000199-01041-01601100391ADDAY131021AY231021MA1999999100251MD1110081+9999MW1361REMSYN05401003 41960 00708 11104 21160 30025 40039 51008 73633=
0089010030999992015011510004+77000+015500FM-12+001299999V0200801N009019999999N999999999-01031-01471100401ADDMA1999999100261MD1990041+9999REMSYN04801003 46/// /0809 11103 21147 30026 40040 50004=
0089010030999992015011511004+77000+015500FM-12+001299999V0200601N008019999999N999999999-01101-01561100421ADDMA1999999100281MD1310031+9999REMSYN04801003 46/// /0608 11110 21156 30028 40042 53003=
0228010030999992015011512004+77000+015500FM-12+001299999V0200501N008019999999N018000199-01091-01561100461ADDAA106000091AY131021AY231021GA1011+008001061GE19MSL   +99999+99999GF101991011999008001999999MA1999999100321MD1310071+9999MW1031OD139901501999REMSYN07601003 11568 10508 11109 21156 30032 40046 53007 60001 70333 81500 333 91115=
0089010030999992015011513004+77000+015500FM-12+001299999V0200501N008019999999N999999999-01061-01571100451ADDMA1999999100311MD1990051+9999REMSYN04801003 46/// /0508 11106 21157 30031 40045 50005=
0089010030999992015011514004+77000+015500FM-12+001299999V0200501N008019999999N999999999-01111-01601100471ADDMA1999999100331MD1310051+9999REMSYN04801003 46/// /0508 11111 21160 30033 40047 53005=
0187010030999992015011515004+77000+015500FM-12+001299999V0200501N008019999999N018000199-01201-01641100451ADDAY101021AY201021GA1011+008001061GE19MSL   +99999+99999GF101991011999008001999999MA1999999100311MD1510011+9999MW1021REMSYN06001003 41568 10508 11120 21164 30031 40045 55001 70200 81500=
0089010030999992015011516004+77000+015500FM-12+001299999V0200501N007019999999N999999999-01161-01651100491ADDMA1999999100351MD1310031+9999REMSYN04801003 46/// /0507 11116 21165 30035 40049 53003=
0089010030999992015011517004+77000+015500FM-12+001299999V0200701N009019999999N999999999-01161-01631100471ADDMA1999999100331MD1510001+9999REMSYN04801003 46/// /0709 11116 21163 30033 40047 55000=
0247010030999992015011518004+77000+015500FM-12+001299999V0200501N009019999999N010000199-01211-01751100501ADDAA112000091AY101021AY201021GA1041+008001061GE19MSL   +99999+99999GF104991041999008001999999KA1120M-00921MA1999999100351MD1310071+9999MW1031OD139901501999REMSYN08201003 11560 40509 11121 21175 30035 40050 53007 60002 70300 84500 333 11092 91115=
0089010030999992015011519004+77000+015500FM-12+001299999V0200801N011019999999N999999999-01201-01671100531ADDMA1999999100381MD1310041+9999REMSYN04801003 46/// /0811 11120 21167 30038 40053 53004=
0089010030999992015011520004+77000+015500FM-12+001299999V0200801N009019999999N999999999-01231-01701100611ADDMA1999999100461MD1310121+9999REMSYN04801003 46/// /0809 11123 21170 30046 40061 53012=
0187010030999992015011521004+77000+015500FM-12+001299999V0200601N008019999999N010000199-01231-01751100611ADDAY101021AY201021GA1021+008001061GE19MSL   +99999+99999GF102991021999008001999999MA1999999100461MD1110101+9999MW1011REMSYN06001003 41560 20608 11123 21175 30046 40061 51010 70100 82500=
0089010030999992015011522004+77000+015500FM-12+001299999V0200601N008019999999N999999999-01171-01641100621ADDMA1999999100471MD1110101+9999REMSYN04801003 46/// /0608 11117 21164 30047 40062 51010=
0089010030999992015011523004+77000+015500FM-12+001299999V0200601N010019999999N999999999-01181-01601100651ADDMA1999999100501MD1310041+9999REMSYN04801003 46/// /0610 11118 21160 30050 40065 53004=
0089010030999992015011601004+77000+015500FM-12+001299999V0200701N012019999999N999999999-01211-01631100641ADDMA1999999100491MD1210031+9999REMSYN04801003 46/// /0712 11121 21163 30049 40064 52003=
0089010030999992015011602004+77000+015500FM-12+001299999V0200801N012019999999N999999999-01231-01681100681ADDMA1999999100531MD1310041+9999REMSYN04801003 46/// /0812 11123 21168 30053 40068 53004=
0187010030999992015011603004+77000+015500FM-12+001299999V0200901N011019999999N010000199-01271-01671100691ADDAY131021AY231021GA1011+008001061GE19MSL   +99999+99999GF101991011999008001999999MA1999999100541MD1990041+9999MW1381REMSYN06001003 41560 10911 11127 21167 30054 40069 50004 73833 81500=
0089010030999992015011604004+77000+015500FM-12+001299999V0200601N009019999999N999999999-01291-01811100731ADDMA1999999100581MD1990061+9999REMSYN04801003 46/// /0609 11129 21181 30058 40073 50006=
0089010030999992015011605004+77000+015500FM-12+001299999V0200801N009019999999N999999999-01281-01781100701ADDMA1999999100551MD1210031+9999REMSYN04801003 46/// /0809 11128 21178 30055 40070 52003=
0274010030999992015011606004+77000+015500FM-12+001299999V0200601N012019999999N018000199-01361-01891100701ADDAA112000091AA224000091AJ100103100100099AY131021AY201021GA1011+008001061GE19MSL   +99999+99999GF101991011999008001999999IA1289MA1999999100551MD1990001+9999MW1021OD139902201999REMSYN08801003 11568 10612 11136 21189 30055 40070 50000 60002 70230 81500 333 48010 70000 91122=
0089010030999992015011607004+77000+015500FM-12+001299999V0200501N011019999999N999999999-01371-01941100781ADDMA1999999100631MD1510011+9999REMSYN04801003 46/// /0511 11137 21194 30063 40078 55001=
0089010030999992015011608004+77000+015500FM-12+001299999V0200501N010019999999N999999999-01351-01931100741ADDMA1999999100591MD1990061+9999REMSYN04801003 46/// /0510 11135 21193 30059 40074 50006=
0187010030999992015011609004+77000+015500FM-12+001299999V0200601N009019999999N018000199-01361-01871100751ADDAY131021AY201021GA1011+008001061GE19MSL   +99999+99999GF101991011999008001999999MA1999999100601MD1990031+9999MW1021REMSYN06001003 41568 10609 11136 21187 30060 40075 50003 70230 81500=
0089010030999992015011610004+77000+015500FM-12+001299999V0200801N010019999999N999999999-01321-01911100761ADDMA1999999100611MD1510021+9999REMSYN04801003 46/// /0810 11132 21191 30061 40076 55002=
0089010030999992015011611004+77000+015500FM-12+001299999V0200801N012019999999N999999999-01341-01891100701ADDMA1999999100551MD1810071+9999REMSYN04801003 46/// /0812 11134 21189 30055 40070 58007=
0228010030999992015011612004+77000+015500FM-12+001299999V0200801N011019999999N018000199-01351-01971100691ADDAA106000091AY131021AY201021GA1011+004501061GE19MSL   +99999+99999GF101991011999004501999999MA1999999100541MD1810081+9999MW1381OD139901901999REMSYN07601003 11468 10811 11135 21197 30054 40069 58008 60001 73830 81500 333 91119=
0089010030999992015011613004+77000+015500FM-12+001299999V0200801N012019999999N999999999-01331-01931100661ADDMA1999999100511MD1610101+9999REMSYN04801003 46/// /0812 11133 21193 30051 40066 56010=
0089010030999992015011614004+77000+015500FM-12+001299999V0200701N011019999999N999999999-01331-01931100671ADDMA1999999100521MD1710021+9999REMSYN04801003 46/// /0711 11133 21193 30052 40067 57002=
0187010030999992015011615004+77000+015500FM-12+001299999V0200701N014019999999N018000199-01371-01951100601ADDAY131021AY231021GA1011+008001061GE19MSL   +99999+99999GF101991011999008001999999MA1999999100451MD1810101+9999MW1381REMSYN06001003 41568 10714 11137 21195 30045 40060 58010 73833 81500=
0089010030999992015011616004+77000+015500FM-12+001299999V0200501N015019999999N999999999-01501-02011100731ADDMA1999999100581MD1310041+9999REMSYN04801003 46/// /0515 11150 21201 30058 40073 53004=
0089010030999992015011617004+77000+015500FM-12+001299999V0200601N012019999999N999999999-01511-01951100721ADDMA1999999100571MD1310061+9999REMSYN04801003 46/// /0612 11151 21195 30057 40072 53006=
0247010030999992015011618004+77000+015500FM-12+001299999V0200601N011019999999N018000199-01561-02071100731ADDAA112000091AY131021AY231021GA1011+008001061GE19MSL   +99999+99999GF101991011999008001999999KA1120M-01291MA1999999100581MD1990121+9999MW1381OD139902101999REMSYN08201003 11568 10611 11156 21207 30058 40073 50012 60002 73833 81500 333 11129 91121=
0089010030999992015011619004+77000+015500FM-12+001299999V0200501N011019999999N999999999-01641-02161100771ADDMA1999999100621MD1310121+9999REMSYN04801003 46/// /0511 11164 21216 30062 40077 53012=
0089010030999992015011620004+77000+015500FM-12+001299999V0200601N009019999999N999999999-01641-02191100831ADDMA1999999100681MD1310091+9999REMSYN04801003 46/// /0609 11164 21219 30068 40083 53009=
0187010030999992015011621004+77000+015500FM-12+001299999V0200501N011019999999N015000199-01621-02231100841ADDAY131021AY231021GA1011+008001061GE19MSL   +99999+99999GF101991011999008001999999MA1999999100691MD1110181+9999MW1381REMSYN06001003 41565 10511 11162 21223 30069 40084 51018 73833 81500=
0089010030999992015011622004+77000+015500FM-12+001299999V0200601N009019999999N999999999-01571-02131100851ADDMA1999999100701MD1990021+9999REMSYN04801003 46/// /0609 11157 21213 30070 40085 50002=
0089010030999992015011623004+77000+015500FM-12+001299999V0200601N012019999999N999999999-01521-02151100801ADDMA1999999100651MD1990021+9999REMSYN04801003 46/// /0612 11152 21215 30065 40080 50002=
0206010030999992015011700004+77000+015500FM-12+001299999V0200401N010019999999N015000199-01561-02211100871ADDAA106000091AY131021AY231021GE19MSL   +99999+99999GF101991999999999999999999MA1999999100721MD1310021+9999MW1381OD139901801999REMSYN07001003 11965 10410 11156 21221 30072 40087 53002 60001 73833 333 91118=
0089010030999992015011701004+77000+015500FM-12+001299999V0200401N012019999999N999999999-01601-02211100881ADDMA1999999100731MD1310041+9999REMSYN04801003 46/// /0412 11160 21221 30073 40088 53004=
0089010030999992015011702004+77000+015500FM-12+001299999V0200501N009019999999N999999999-01571-02201100951ADDMA1999999100801MD1310141+9999REMSYN04801003 46/// /0509 11157 21220 30080 40095 53014=
0117010030999992015011703004+77000+015500FM-12+001299999V0200601N007019999999N015000199-01521-02191100951ADDAY131021AY231021MA1999999100801MD1310071+9999MW1381REMSYN05401003 41965 00607 11152 21219 30080 40095 53007 73833=
0089010030999992015011704004+77000+015500FM-12+001299999V0200501N009019999999N999999999-01521-02191100931ADDMA1999999100781MD1990051+9999REMSYN04801003 46/// /0509 11152 21219 30078 40093 50005=
0089010030999992015011705004+77000+015500FM-12+001299999V0200601N008019999999N999999999-01531-02161101001ADDMA1999999100851MD1310051+9999REMSYN04801003 46/// /0608 11153 21216 30085 40100 53005=
0293010030999992015011706004+77000+015500FM-12+001299999V0200801N010019999999N015000199-01571-02081101041ADDAA112000091AA224000091AJ100103100100099AY131021AY231021GA1021+008001061GE19MSL   +99999+99999GF102991021999008001999999IA1289KA1240N-01671MA1999999100891MD1310071+9999MW1381OD139902001999REMSYN09401003 11565 20810 11157 21208 30089 40104 53007 60002 73833 82500 333 21167 48010 70000 91120=
0089010030999992015011707004+77000+015500FM-12+001299999V0200801N008019999999N999999999-01511-02001101071ADDMA1999999100921MD1110131+9999REMSYN04801003 46/// /0808 11151 21200 30092 40107 51013=
0089010030999992015011708004+77000+015500FM-12+001299999V0200701N007019999999N999999999-01441-02261101131ADDMA1999999100981MD1310111+9999REMSYN04801003 46/// /0707 11144 21226 30098 40113 53011=
0187010030999992015011709004+77000+015500FM-12+001299999V0200701N008019999999N015000199-01381-02271101201ADDAY131021AY231021GA1011+008001061GE19MSL   +99999+99999GF101991011999008001999999MA1999999101051MD1310131+9999MW1381REMSYN06001003 41565 10708 11138 21227 30105 40120 53013 73833 81500=
0089010030999992015011710004+77000+015500FM-12+001299999V0201101N011019999999N999999999-01521-02081101211ADDMA1999999101061MD1990151+9999REMSYN04801003 46/// /1111 11152 21208 30106 40121 50015=
0089010030999992015011711004+77000+015500FM-12+001299999V0200901N014019999999N999999999-01451-02031101181ADDMA1999999101031MD1990071+9999REMSYN04801003 46/// /0914 11145 21203 30103 40118 50007=
0228010030999992015011712004+77000+015500FM-12+001299999V0200801N009019999999N018000199-01411-02071101301ADDAA106000091AY131021AY231021GA1011+008001061GE19MSL   +99999+99999GF101991011999008001999999MA1999999101151MD1310121+9999MW1381OD139902101999REMSYN07601003 11568 10809 11141 21207 30115 40130 53012 60001 73833 81500 333 91121=
0089010030999992015011713004+77000+015500FM-12+001299999V0200801N008019999999N999999999-01401-02001101361ADDMA1999999101211MD1310151+9999REMSYN04801003 46/// /0808 11140 21200 30121 40136 53015=
0089010030999992015011714004+77000+015500FM-12+001299999V0200901N009019999999N999999999-01431-01971101411ADDMA1999999101261MD1110231+9999REMSYN04801003 46/// /0909 11143 21197 30126 40141 51023=
0187010030999992015011715004+77000+015500FM-12+001299999V0200701N005019999999N018000199-01441-02021101481ADDAY131021AY231021GA1011+008001061GE19MSL   +99999+99999GF101991011999008001999999MA1999999101331MD1210191+9999MW1021REMSYN06001003 41568 10705 11144 21202 30133 40148 52019 70233 81500=
0089010030999992015011716004+77000+015500FM-12+001299999V0200501N005019999999N999999999-01481-02191101521ADDMA1999999101371MD1110171+9999REMSYN04801003 46/// /0505 11148 21219 30137 40152 51017=
0089010030999992015011717004+77000+015500FM-12+001299999V0200601N004019999999N999999999-01521-02191101561ADDMA1999999101411MD1110141+9999REMSYN04801003 46/// /0604 11152 21219 30141 40156 51014=
0247010030999992015011718004+77000+015500FM-12+001299999V0200601N004019999999N010000199-01471-02121101601ADDAA112000091AY131021AY201021GA1031+008001061GE19MSL   +99999+99999GF103991031999008001999999KA1120M-01291MA1999999101451MD1210111+9999MW1031OD139901401999REMSYN08201003 11560 30604 11147 21212 30145 40160 52011 60002 70330 83500 333 11129 91114=
0089010030999992015011719004+77000+015500FM-12+001299999V0200601N004019999999N999999999-01631-02311101651ADDMA1999999101501MD1310131+9999REMSYN04801003 46/// /0604 11163 21231 30150 40165 53013=
0089010030999992015011720004+77000+015500FM-12+001299999V0200601N004019999999N999999999-01651-02291101681ADDMA1999999101531MD1210121+9999REMSYN04801003 46/// /0604 11165 21229 30153 40168 52012=
0187010030999992015011721004+77000+015500FM-12+001299999V0200601N003019999999N010000199-01611-02241101741ADDAY101021AY201021GA1021+008001061GE19MSL   +99999+99999GF102991021999008001999999MA1999999101591MD1210141+9999MW1011REMSYN06001003 41560 20603 11161 21224 30159 40174 52014 70100 82500=
0089010030999992015011722004+77000+015500FM-12+001299999V0200501N002019999999N999999999-01481-02171101791ADDMA1999999101641MD1210131+9999REMSYN04801003 46/// /0502 11148 21217 30164 40179 52013=
0089010030999992015011723004+77000+015500FM-12+001299999V0200601N002019999999N999999999-01521-02081101801ADDMA1999999101651MD1110121+9999REMSYN04801003 46/// /0602 11152 21208 30165 40180 51012=
0228010030999992015011800004+77000+015500FM-12+001299999V0200401N002019999999N018000199-01531-02071101821ADDAA106000091AY101021AY201021GA1011+008001061GE19MSL   +99999+99999GF101991011999008001999999MA1999999101671MD1210091+9999MW1011OD139900501999REMSYN07601003 11568 10402 11153 21207 30167 40182 52009 60001 70100 81500 333 91105=
0089010030999992015011801004+77000+015500FM-12+001299999V0200601N002019999999N999999999-01391-02011101811ADDMA1999999101661MD1210031+9999REMSYN04801003 46/// /0602 11139 21201 30166 40181 52003=
0089010030999992015011802004+77000+015500FM-12+001299999V0203601N001019999999N999999999-01381-01781101821ADDMA1999999101671MD1310031+9999REMSYN04801003 46/// /3601 11138 21178 30167 40182 53003=
0187010030999992015011803004+77000+015500FM-12+001299999V0200301N001019999999N018000199-01351-01581101821ADDAY101021AY201021GA1011+008001061GE19MSL   +99999+99999GF101991011999008001999999MA1999999101671MD1510001+9999MW1021REMSYN06001003 41568 10301 11135 21158 30167 40182 55000 70200 81500=
0089010030999992015011804004+77000+015500FM-12+001299999V0203201N001019999999N999999999-01291-01591101831ADDMA1999999101681MD1310021+9999REMSYN04801003 46/// /3201 11129 21159 30168 40183 53002=
0089010030999992015011805004+77000+015500FM-12+001299999V0200501N002019999999N999999999-01181-01441101781ADDMA1999999101631MD1810041+9999REMSYN04801003 46/// /0502 11118 21144 30163 40178 58004=
0293010030999992015011806004+77000+015500FM-12+001299999V0202801N001019999999N010000199-01151-01381101771ADDAA112000021AA224000021AJ100103100100099AY171021AY211021GA1081+008001061GE19MSL   +99999+99999GF108991081999008001999999IA1289KA1240N-01671MA1999999101621MD1810051+9999MW1701OD139900301999REMSYN09401003 11560 82801 11115 21138 30162 40177 58005 69902 77071 885// 333 21167 48010 79999 91103=
0089010030999992015011807004+77000+015500FM-12+001299999V0203001N002019999999N999999999-01131-01361101771ADDMA1999999101621MD1610061+9999REMSYN04801003 46/// /3002 11113 21136 30162 40177 56006=
0089010030999992015011808004+77000+015500FM-12+001299999V0200501N002019999999N999999999-01121-01371101741ADDMA1999999101591MD1710041+9999REMSYN04801003 46/// /0502 11112 21137 30159 40174 57004=
0203010030999992015011809004+77000+015500FM-12+001299999V0203001N003019999999N015000199-01011-01271101741ADDAY171021AY221021GA1041+008001061GA2999+999999031GE19MSL   +99999+99999GF107991041999008001999999MA1999999101591MD1710031+9999MW1011REMSYN06001003 41565 73003 11101 21127 30159 40174 57003 70172 8453/=
0089010030999992015011810004+77000+015500FM-12+001299999V0209999C999999999999N999999999-00981-01221101731ADDMA1999999101581MD1610041+9999REMSYN04801003 46/// /0000 11098 21122 30158 40173 56004=
0089010030999992015011811004+77000+015500FM-12+001299999V0202901N002019999999N999999999-00881-01081101671ADDMA1999999101531MD1810061+9999REMSYN04801003 46/// /2902 11088 21108 30153 40167 58006=
0228010030999992015011812004+77000+015500FM-12+001299999V0202501N002019999999N018000199-00841-01021101611ADDAA106000231AY171021AY221021GA1071+004501061GE19MSL   +99999+99999GF107991071999004501999999MA1999999101471MD1810121+9999MW1011OD139900401999REMSYN07601003 11468 72502 11084 21102 30147 40161 58012 69921 70172 875// 333 91104=
0089010030999992015011813004+77000+015500FM-12+001299999V0201801N002019999999N999999999-00761-00911101551ADDMA1999999101411MD1610171+9999REMSYN04801003 46/// /1802 11076 21091 30141 40155 56017=
0089010030999992015011814004+77000+015500FM-12+001299999V0202901N007019999999N999999999-00451-00631101431ADDMA1999999101291MD1810231+9999REMSYN04801003 46/// /2907 11045 21063 30129 40143 58023=
0187010030999992015011815004+77000+015500FM-12+001299999V0202901N013019999999N000400199-00451-00721101321ADDAY171021AY231021GA1081+008001081GE19MSL   +99999+99999GF108991081999008001999999MA1999999101181MD1810291+9999MW1861REMSYN06001003 41504 82913 11045 21072 30118 40132 58029 78673 882//=
0089010030999992015011816004+77000+015500FM-12+001299999V0202901N013019999999N999999999-00471-00821101301ADDMA1999999101161MD1610231+9999REMSYN04801003 46/// /2913 11047 21082 30116 40130 56023=
0089010030999992015011817004+77000+015500FM-12+001299999V0203001N011019999999N999999999-00541-00921101361ADDMA1999999101221MD1510101+9999REMSYN04801003 46/// /3011 11054 21092 30122 40136 55010=
0247010030999992015011818004+77000+015500FM-12+001299999V0202901N012019999999N000200199-00551-00961101321ADDAA112000231AY181021AY271021GA1081+008001061GE19MSL   +99999+99999GF108991081999008001999999KA1120M-00401MA1999999101181MD1990011+9999MW1711OD139902201999REMSYN08201003 11502 82912 11055 21096 30118 40132 50001 69922 77187 885// 333 11040 91122=
0089010030999992015011819004+77000+015500FM-12+001299999V0202901N013019999999N999999999-00611-00901101291ADDMA1999999101151MD1810031+9999REMSYN04801003 46/// /2913 11061 21090 30115 40129 58003=
0089010030999992015011820004+77000+015500FM-12+001299999V0203101N010019999999N999999999-00641-00941101371ADDMA1999999101231MD1510011+9999REMSYN04801003 46/// /3110 11064 21094 30123 40137 55001=
0187010030999992015011821004+77000+015500FM-12+001299999V0203201N005019999999N003500199-00641-01031101471ADDAY171021AY231021GA1081+008001061GE19MSL   +99999+99999GF108991081999008001999999MA1999999101331MD1310161+9999MW1711REMSYN06001003 41535 83205 11064 21103 30133 40147 53016 77173 885//=
0089010030999992015011822004+77000+015500FM-12+001299999V0203101N006019999999N999999999-00641-01031101511ADDMA1999999101371MD1110241+9999REMSYN04801003 46/// /3106 11064 21103 30137 40151 51024=
0089010030999992015011823004+77000+015500FM-12+001299999V0203101N009019999999N999999999-00651-01021101561ADDMA1999999101421MD1110211+9999REMSYN04801003 46/// /3109 11065 21102 30142 40156 51021=
0228010030999992015011900004+77000+015500FM-12+001299999V0203001N006019999999N010000199-00661-01071101611ADDAA106000021AY171021AY231021GA1081+008001061GE19MSL   +99999+99999GF108991081999008001999999MA1999999101471MD1210151+9999MW1711OD139902101999REMSYN07601003 11560 83006 11066 21107 30147 40161 52015 69901 77173 885// 333 91121=
0089010030999992015011901004+77000+015500FM-12+001299999V0203101N004019999999N999999999-00621-01131101621ADDMA1999999101481MD1110101+9999REMSYN04801003 46/// /3104 11062 21113 30148 40162 51010=
0089010030999992015011902004+77000+015500FM-12+001299999V0202901N002019999999N999999999-00631-01121101571ADDMA1999999101431MD1990011+9999REMSYN04801003 46/// /2902 11063 21112 30143 40157 50001=
0187010030999992015011903004+77000+015500FM-12+001299999V0201301N002019999999N010000199-00561-00971101481ADDAY171021AY271021GA1081+008001061GE19MSL   +99999+99999GF108991081999008001999999MA1999999101341MD1810151+9999MW1701REMSYN06001003 41560 81302 11056 21097 30134 40148 58015 77077 885//=
0089010030999992015011904004+77000+015500FM-12+001299999V0201901N002019999999N999999999-00531-00941101421ADDMA1999999101281MD1810201+9999REMSYN04801003 46/// /1902 11053 21094 30128 40142 58020=
0089010030999992015011905004+77000+015500FM-12+001299999V0201901N005019999999N999999999-00591-00711101381ADDMA1999999101241MD1610191+9999REMSYN04801003 46/// /1905 11059 21071 30124 40138 56019=
0293010030999992015011906004+77000+015500FM-12+001299999V0203201N004019999999N000400199-00591-00711101321ADDAA112000131AA224000331AJ100113100110099AY181021AY271021GA1081+008001081GE19MSL   +99999+99999GF108991081999008001999999IA1289KA1240N-00691MA1999999101181MD1810161+9999MW1881OD139901101999REMSYN09401003 11504 83204 11059 21071 30118 40132 58016 69912 78887 882// 333 21069 48011 70003 91111=
0089010030999992015011907004+77000+015500FM-12+001299999V0202601N006019999999N999999999-00341-00481101191ADDMA1999999101051MD1810221+9999REMSYN04801003 46/// /2606 11034 21048 30105 40119 58022=
0089010030999992015011908004+77000+015500FM-12+001299999V0202701N007019999999N999999999-00301-00481101101ADDMA1999999100961MD1810271+9999REMSYN04801003 46/// /2707 11030 21048 30096 40110 58027=
0187010030999992015011909004+77000+015500FM-12+001299999V0202601N011019999999N010000199-00251-00501101021ADDAY181021AY271021GA1081+008001061GE19MSL   +99999+99999GF108991081999008001999999MA1999999100881MD1610281+9999MW1701REMSYN06001003 41560 82611 11025 21050 30088 40102 56028 77087 885//=
0089010030999992015011910004+77000+015500FM-12+001299999V0202701N009019999999N999999999-00181-00541100941ADDMA1999999100801MD1710221+9999REMSYN04801003 46/// /2709 11018 21054 30080 40094 57022=
0089010030999992015011911004+77000+015500FM-12+001299999V0202701N012019999999N999999999-00191-00471100811ADDMA1999999100671MD1810261+9999REMSYN04801003 46/// /2712 11019 21047 30067 40081 58026=
0228010030999992015011912004+77000+015500FM-12+001299999V0202701N012019999999N010000199-00191-00441100751ADDAA106001031AY171021AY271021GA1081+008001061GE19MSL   +99999+99999GF108991081999008001999999MA1999999100611MD1810271+9999MW1701OD139901801999REMSYN07601003 11560 82712 11019 21044 30061 40075 58027 60011 77077 885// 333 91118=
0089010030999992015011913004+77000+015500FM-12+001299999V0202701N012019999999N999999999-00191-00441100691ADDMA1999999100551MD1610231+9999REMSYN04801003 46/// /2712 11019 21044 30055 40069 56023=
0089010030999992015011914004+77000+015500FM-12+001299999V0202801N011019999999N999999999-00181-00441100661ADDMA1999999100521MD1710171+9999REMSYN04801003 46/// /2811 11018 21044 30052 40066 57017=
0187010030999992015011915004+77000+015500FM-12+001299999V0202901N013019999999N010000199-00161-00451100571ADDAY171021AY231021GA1081+008001061GE19MSL   +99999+99999GF108991081999008001999999MA1999999100431MD1810201+9999MW1701REMSYN06001003 41560 82913 11016 21045 30043 40057 58020 77073 885//=
0089010030999992015011916004+77000+015500FM-12+001299999V0202801N010019999999N999999999-00171-00391100591ADDMA1999999100451MD1510111+9999REMSYN04801003 46/// /2810 11017 21039 30045 40059 55011=
0089010030999992015011917004+77000+015500FM-12+001299999V0202801N010019999999N999999999-00151-00371100541ADDMA1999999100401MD1610131+9999REMSYN04801003 46/// /2810 11015 21037 30040 40054 56013=
0247010030999992015011918004+77000+015500FM-12+001299999V0202901N014019999999N010000199-00151-00421100511ADDAA112000021AY171021AY231021GA1081+008001061GE19MSL   +99999+99999GF108991081999008001999999KA1120M-00111MA1999999100371MD1810091+9999MW1701OD139901901999REMSYN08201003 11560 82914 11015 21042 30037 40051 58009 69902 77073 885// 333 11011 91119=
0089010030999992015011919004+77000+015500FM-12+001299999V0202901N014019999999N999999999-00181-00371100451ADDMA1999999100311MD1610121+9999REMSYN04801003 46/// /2914 11018 21037 30031 40045 56012=
0089010030999992015011920004+77000+015500FM-12+001299999V0202901N012019999999N999999999-00171-00321100491ADDMA1999999100351MD1510021+9999REMSYN04801003 46/// /2912 11017 21032 30035 40049 55002=
0187010030999992015011921004+77000+015500FM-12+001299999V0202801N011019999999N010000199-00131-00351100541ADDAY171021AY231021GA1081+004501061GE19MSL   +99999+99999GF108991081999004501999999MA1999999100401MD1310051+9999MW1711REMSYN06001003 41460 82811 11013 21035 30040 40054 53005 77173 885//=
0089010030999992015011922004+77000+015500FM-12+001299999V0202901N012019999999N999999999-00131-00381100541ADDMA1999999100401MD1110091+9999REMSYN04801003 46/// /2912 11013 21038 30040 40054 51009=
0089010030999992015011923004+77000+015500FM-12+001299999V0202901N012019999999N999999999-00101-00381100581ADDMA1999999100441MD1110081+9999REMSYN04801003 46/// /2912 11010 21038 30044 40058 51008=
0228010030999992015012000004+77000+015500FM-12+001299999V0202801N011019999999N010000199-00111-00321100581ADDAA106000021AY171021AY231021GA1081+004501061GE19MSL   +99999+99999GF108991081999004501999999MA1999999100441MD1210041+9999MW1711OD139902201999REMSYN07601003 11460 82811 11011 21032 30044 40058 52004 69901 77173 885// 333 91122=
0089010030999992015012001004+77000+015500FM-12+001299999V0202801N010019999999N999999999-00151-00321100571ADDMA1999999100431MD1990021+9999REMSYN04801003 46/// /2810 11015 21032 30043 40057 50002=
0089010030999992015012002004+77000+015500FM-12+001299999V0202901N013019999999N999999999-00131-00261100541ADDMA1999999100401MD1510031+9999REMSYN04801003 46/// /2913 11013 21026 30040 40054 55003=
0187010030999992015012003004+77000+015500FM-12+001299999V0202901N015019999999N010000199-00111-00261100521ADDAY171021AY231021GA1081+004501061GE19MSL   +99999+99999GF108991081999004501999999MA1999999100381MD1610061+9999MW1711REMSYN06001003 41460 82915 11011 21026 30038 40052 56006 77173 885//=
0089010030999992015012004004+77000+015500FM-12+001299999V0202901N010019999999N999999999-00121-00291100591ADDMA1999999100451MD1310021+9999REMSYN04801003 46/// /2910 11012 21029 30045 40059 53002=
0089010030999992015012005004+77000+015500FM-12+001299999V0203001N013019999999N999999999-00151-00391100621ADDMA1999999100481MD1310071+9999REMSYN04801003 46/// /3013 11015 21039 30048 40062 53007=
0276010030999992015012006004+77000+015500FM-12+001299999V0203101N011019999999N010000199-00191-00441100681ADDAA112000021AJ100123100120099AY171021AY231021GA1081+004501061GE19MSL   +99999+99999GF108991081999004501999999IA1289KA1240N-00201MA1999999100541MD1310151+9999MW1711OD139902201999REMSYN08801003 11460 83111 11019 21044 30054 40068 53015 69902 77173 885// 333 21020 48012 91122=
0089010030999992015012007004+77000+015500FM-12+001299999V0202901N013019999999N999999999-00201-00451100681ADDMA1999999100541MD1990081+9999REMSYN04801003 46/// /2913 11020 21045 30054 40068 50008=
0089010030999992015012008004+77000+015500FM-12+001299999V0202901N011019999999N999999999-00201-00441100731ADDMA1999999100591MD1110111+9999REMSYN04801003 46/// /2911 11020 21044 30059 40073 51011=
0187010030999992015012009004+77000+015500FM-12+001299999V0203001N012019999999N010000199-00181-00441100731ADDAY171021AY231021GA1081+004501061GE19MSL   +99999+99999GF108991081999004501999999MA1999999100591MD1990061+9999MW1711REMSYN06001003 41460 83012 11018 21044 30059 40073 50006 77173 885//=
0089010030999992015012010004+77000+015500FM-12+001299999V0203001N011019999999N999999999-00141-00421100861ADDMA1999999100721MD1310161+9999REMSYN04801003 46/// /3011 11014 21042 30072 40086 53016=
0089010030999992015012011004+77000+015500FM-12+001299999V0203001N011019999999N999999999-00181-00461100961ADDMA1999999100821MD1310231+9999REMSYN04801003 46/// /3011 11018 21046 30082 40096 53023=
0228010030999992015012012004+77000+015500FM-12+001299999V0203001N009019999999N010000199-00131-00551101031ADDAA106000331AY171021AY231021GA1081+008001061GE19MSL   +99999+99999GF108991081999008001999999MA1999999100891MD1110301+9999MW1701OD139902101999REMSYN07601003 11560 83009 11013 21055 30089 40103 51030 69931 77073 885// 333 91121=
0089010030999992015012013004+77000+015500FM-12+001299999V0203201N007019999999N999999999-00161-00551101101ADDMA1999999100961MD1110241+9999REMSYN04801003 46/// /3207 11016 21055 30096 40110 51024=
0089010030999992015012014004+77000+015500FM-12+001299999V0203001N006019999999N999999999-00181-00571101201ADDMA1999999101061MD1310251+9999REMSYN04801003 46/// /3006 11018 21057 30106 40120 53025=
0187010030999992015012015004+77000+015500FM-12+001299999V0203101N005019999999N010000199-00201-00591101271ADDAY171021AY231021GA1071+008001061GE19MSL   +99999+99999GF107991071999008001999999MA1999999101131MD1310231+9999MW1701REMSYN06001003 41560 73105 11020 21059 30113 40127 53023 77073 875//=
0089010030999992015012016004+77000+015500FM-12+001299999V0203201N002019999999N999999999-00241-00641101311ADDMA1999999101171MD1110211+9999REMSYN04801003 46/// /3202 11024 21064 30117 40131 51021=
0089010030999992015012017004+77000+015500FM-12+001299999V0203001N003019999999N999999999-00271-00621101361ADDMA1999999101221MD1210161+9999REMSYN04801003 46/// /3003 11027 21062 30122 40136 52016=
0247010030999992015012018004+77000+015500FM-12+001299999V0203101N002019999999N015000199-00321-00671101421ADDAA112000021AY171021AY231021GA1051+008001061GE19MSL   +99999+99999GF105991051999008001999999KA1120M-00121MA1999999101281MD1310141+9999MW1011OD139901301999REMSYN08201003 11565 53102 11032 21067 30128 40142 53014 69902 70173 85500 333 11012 91113=
0089010030999992015012019004+77000+015500FM-12+001299999V0202901N002019999999N999999999-00301-00751101521ADDMA1999999101381MD1310211+9999REMSYN04801003 46/// /2902 11030 21075 30138 40152 53021=
0089010030999992015012020004+77000+015500FM-12+001299999V0203001N002019999999N999999999-00321-00701101611ADDMA1999999101471MD1310251+9999REMSYN04801003 46/// /3002 11032 21070 30147 40161 53025=
0187010030999992015012021004+77000+015500FM-12+001299999V0202601N004019999999N015000199-00361-00561101681ADDAY121021AY221021GA1071+008001061GE19MSL   +99999+99999GF107991071999008001999999MA1999999101541MD1110261+9999MW1031REMSYN06001003 41565 72604 11036 21056 30154 40168 51026 70322 875//=
0089010030999992015012022004+77000+015500FM-12+001299999V0203101N003019999999N999999999-00321-00671101771ADDMA1999999101631MD1310251+9999REMSYN04801003 46/// /3103 11032 21067 30163 40177 53025=
0089010030999992015012023004+77000+015500FM-12+001299999V0202901N002019999999N999999999-00321-00751101841ADDMA1999999101701MD1310231+9999REMSYN04801003 46/// /2902 11032 21075 30170 40184 53023=
0263010030999992015012100004+77000+015500FM-12+001299999V0203301N002019999999N015000199-00281-00701101871ADDAA106000091AY171021AY221021GA1011+008001061GA2999+999999031GE19MSL   +99999+99999GF105991011999008001999999MA1999999101731MD1110191+9999MW1011OD139900701999REMSYN07601003 11565 53302 11028 21070 30173 40187 51019 69901 70172 81530 333 91107=EQDQ01  00002PRCP06
0089010030999992015012101004+77000+015500FM-12+001299999V0201701N003019999999N999999999-00311-00691101911ADDMA1999999101771MD1110141+9999REMSYN04801003 46/// /1703 11031 21069 30177 40191 51014=
0089010030999992015012102004+77000+015500FM-12+001299999V0200601N002019999999N999999999-00491-00851101941ADDMA1999999101801MD1210101+9999REMSYN04801003 46/// /0602 11049 21085 30180 40194 52010=
