0138010014999992015010414204+59792+005341FM-15+004999999V0203101V003119999999N009999199+99999+99999999999ADDMA1102305999999MW1685MW2835REMMET080METAR ENSO 041420Z 31006KT 260V350 9999 6000SSE -SHRASN OVC012 02/01      Q1023=EQDD01      0ADE735
0173010014999992015010414504+59792+005341FM-15+004999999V0203101V001510045719N009999199+00201+00101999999ADDGA1041+003661999GA2071+004571999GE19MSL   +99999+99999GF199999041999003661999999MA1102301999999REMMET066METAR ENSO 041450Z 31003KT 170V010 9999 SCT012 BKN015 02/01 Q1023=
0200010014999992015010415204+59792+005341FM-15+004999999V0200801N001510045719N009999199+00201+00101999999ADDGA1041+003051999GA2071+004571999GA3071+004571999GE19MSL   +99999+99999GF199999041999003051999999MA1102301999999MW1801REMMET071METAR ENSO 041520Z 08003KT 9999 -SHRA SCT010 BKN015 BKN015 02/01 Q1023=
0175010014999992015010415504+59792+005341FM-15+004999999V0201101N002110048819N009999199+00101+00101999999ADDGA1041+003661999GA2081+004881999GE19MSL   +99999+99999GF199999041999003661999999MA1102301999999MW1611REMMET062METAR ENSO 041550Z 11004KT 9999 -RA SCT012 OVC016 01/01 Q1023=
0175010014999992015010416204+59792+005341FM-15+004999999V0201301N003610030519N009999199+00101+00101999999ADDGA1041+002441999GA2081+003051999GE19MSL   +99999+99999GF199999041999002441999999MA1102201999999MW1611REMMET062METAR ENSO 041620Z 13007KT 9999 -RA SCT008 OVC010 01/01 Q1022=
0177010014999992015010416504+59792+005341FM-15+004999999V0201301N003610048819N009999199+00101+00101999999ADDGA1041+003661999GA2081+004881999GE19MSL   +99999+99999GF199999041999003661999999MA1102201999999MW1681REMMET064METAR ENSO 041650Z 13007KT 9999 -RASN SCT012 OVC016 01/01 Q1022=
0177010014999992015010417204+59792+005341FM-15+004999999V0201301N004110039619N009000199+00101+00101999999ADDGA1041+002741999GA2081+003961999GE19MSL   +99999+99999GF199999041999002741999999MA1102201999999MW1681REMMET064METAR ENSO 041720Z 13008KT 9000 -RASN SCT009 OVC013 01/01 Q1022=
0165010014999992015010417504+59792+005341FM-15+004999999V0201301N003610030519N009999199+00101+00101999999ADDGA1021+001521999GA2071+003051999GE19MSL   +99999+99999GF199999021999001521999999MA1102201999999REMMET058METAR ENSO 041750Z 13007KT 9999 FEW005 BKN010 01/01 Q1022=
0165010014999992015010503504+59792+005341FM-15+004999999V0201201N004110045719N009999199+00301+00201999999ADDGA1021+003051999GA2071+004571999GE19MSL   +99999+99999GF199999021999003051999999MA1102201999999REMMET058METAR ENSO 050350Z 12008KT 9999 FEW010 BKN015 03/02 Q1022=
0165010014999992015010504204+59792+005341FM-15+004999999V0201301N004110045719N009999199+00301+00201999999ADDGA1021+003051999GA2071+004571999GE19MSL   +99999+99999GF199999021999003051999999MA1102201999999REMMET058METAR ENSO 050420Z 13008KT 9999 FEW010 BKN015 03/02 Q1022=
0142010014999992015010504504+59792+005341FM-15+004999999V0201201N005110030519N009999199+00301+00201999999ADDGA1071+003051999GE19MSL   +99999+99999GF199999071999003051999999MA1102201999999REMMET051METAR ENSO 050450Z 12010KT 9999 BKN010 03/02 Q1022=
0142010014999992015010505204+59792+005341FM-15+004999999V0201201N005110024419N009999199+00301+00201999999ADDGA1071+002441999GE19MSL   +99999+99999GF199999071999002441999999MA1102201999999REMMET051METAR ENSO 050520Z 12010KT 9999 BKN008 03/02 Q1022=
0142010014999992015010505504+59792+005341FM-15+004999999V0201301N005710021319N009999199+00301+00201999999ADDGA1071+002131999GE19MSL   +99999+99999GF199999071999002131999999MA1102201999999REMMET051METAR ENSO 050550Z 13011KT 9999 BKN007 03/02 Q1022=
0165010014999992015010506204+59792+005341FM-15+004999999V0201201N006210024419N009999199+00301+00201999999ADDGA1021+001831999GA2071+002441999GE19MSL   +99999+99999GF199999021999001831999999MA1102201999999REMMET058METAR ENSO 050620Z 12012KT 9999 FEW006 BKN008 03/02 Q1022=
0174010014999992015010506504+59792+005341FM-15+004999999V0201201N005710018319N003500199+00301+00201999999ADDGA1021+001521999GA2071+001831999GE19MSL   +99999+99999GF199999021999001521999999MA1102101999999MW1531REMMET061METAR ENSO 050650Z 12011KT 3500 DZ FEW005 BKN006 03/02 Q1021=
0175010014999992015010507204+59792+005341FM-15+004999999V0201101N006710024419N006000199+00301+00301999999ADDGA1021+001831999GA2071+002441999GE19MSL   +99999+99999GF199999021999001831999999MA1102101999999MW1611REMMET062METAR ENSO 050720Z 11013KT 6000 -RA FEW006 BKN008 03/03 Q1021=
0197010014999992015010507504+59792+005341FM-15+004999999V0201101N00571002441CN003500199+00301+00301999999ADDGA1021+001831999GA2041+002441999GA3071+003051999GE19MSL   +99999+99999GF199999021999001831999999MA1102101999999MW1531REMMET068METAR ENSO 050750Z 11011KT 3500 DZ FEW006 SCT008 BKN010 03/03 Q1021=
0174010014999992015010508204+59792+005341FM-15+004999999V0201201N005110021319N003000199+00301+00301999999ADDGA1021+001521999GA2071+002131999GE19MSL   +99999+99999GF199999021999001521999999MA1102101999999MW1531REMMET061METAR ENSO 050820Z 12010KT 3000 DZ FEW005 BKN007 03/03 Q1021=
0174010014999992015010508504+59792+005341FM-15+004999999V0201201N006210021319N003000199+00401+00301999999ADDGA1021+001521999GA2071+002131999GE19MSL   +99999+99999GF199999021999001521999999MA1102101999999MW1531REMMET061METAR ENSO 050850Z 12012KT 3000 DZ FEW005 BKN007 04/03 Q1021=
0175010014999992015010509204+59792+005341FM-15+004999999V0201201N005710021319N008000199+00401+00301999999ADDGA1021+001521999GA2071+002131999GE19MSL   +99999+99999GF199999021999001521999999MA1102101999999MW1611REMMET062METAR ENSO 050920Z 12011KT 8000 -RA FEW005 BKN007 04/03 Q1021=
0188010014999992015010509504+59792+005341FM-15+004999999V0201201N00461002131CN009999199+00401+00301999999ADDGA1021+001521999GA2041+002131999GA3071+003351999GE19MSL   +99999+99999GF199999021999001521999999MA1102101999999REMMET065METAR ENSO 050950Z 12009KT 9999 FEW005 SCT007 BKN011 04/03 Q1021=
0188010014999992015010510204+59792+005341FM-15+004999999V0201301N00411002131CN009999199+00401+00301999999ADDGA1021+001521999GA2041+002131999GA3071+003351999GE19MSL   +99999+99999GF199999021999001521999999MA1102101999999REMMET065METAR ENSO 051020Z 13008KT 9999 FEW005 SCT007 BKN011 04/03 Q1021=
0188010014999992015010510504+59792+005341FM-15+004999999V0201301N00461002441CN009999199+00401+00301999999ADDGA1021+001521999GA2041+002441999GA3071+003661999GE19MSL   +99999+99999GF199999021999001521999999MA1102101999999REMMET065METAR ENSO 051050Z 13009KT 9999 FEW005 SCT008 BKN012 04/03 Q1021=
0188010014999992015010511204+59792+005341FM-15+004999999V0201301N00361002441CN009999199+00401+00401999999ADDGA1021+001521999GA2041+002441999GA3071+003661999GE19MSL   +99999+99999GF199999021999001521999999MA1102101999999REMMET065METAR ENSO 051120Z 13007KT 9999 FEW005 SCT008 BKN012 04/04 Q1021=
0171010014999992015010512204+59792+005341FM-15+004999999V0201401N004110030519N009999199+00501+00401999999ADDGA1041+002441999GA2071+003051999GE19MSL   +99999+99999GF199999041999002441999999MA1102101999999REMMET064METAR ENSO 051220Z 14008KT 9999 5000E SCT008 BKN010 05/04 Q1021=
0165010014999992015010512504+59792+005341FM-15+004999999V0201401N006210036619N009999199+00501+00401999999ADDGA1041+002441999GA2071+003661999GE19MSL   +99999+99999GF199999041999002441999999MA1102001999999REMMET058METAR ENSO 051250Z 14012KT 9999 SCT008 BKN012 05/04 Q1020=
0165010014999992015010513204+59792+005341FM-15+004999999V0201401N006210054919N009999199+00501+00401999999ADDGA1041+002441999GA2071+005491999GE19MSL   +99999+99999GF199999041999002441999999MA1102001999999REMMET058METAR ENSO 051320Z 14012KT 9999 SCT008 BKN018 05/04 Q1020=
0165010014999992015010513504+59792+005341FM-15+004999999V0201301N004610045719N009999199+00501+00501999999ADDGA1041+002441999GA2071+004571999GE19MSL   +99999+99999GF199999041999002441999999MA1102101999999REMMET058METAR ENSO 051350Z 13009KT 9999 SCT008 BKN015 05/05 Q1021=
0165010014999992015010514204+59792+005341FM-15+004999999V0201301N005710036619N009999199+00601+00501999999ADDGA1041+002441999GA2071+003661999GE19MSL   +99999+99999GF199999041999002441999999MA1102001999999REMMET058METAR ENSO 051420Z 13011KT 9999 SCT008 BKN012 06/05 Q1020=
0148010014999992015010514504+59792+005341FM-15+004999999V0201201N004110024419N009999199+00501+00501999999ADDGA1071+002441999GE19MSL   +99999+99999GF199999071999002441999999MA1102001999999REMMET057METAR ENSO 051450Z 12008KT 9999 3000E BKN008 05/05 Q1020=
0148010014999992015010515204+59792+005341FM-15+004999999V0201201N005110021319N005000199+00501+00501999999ADDGA1071+002131999GE19MSL   +99999+99999GF199999071999002131999999MA1102001999999REMMET057METAR ENSO 051520Z 12010KT 5000 2000E BKN007 05/05 Q1020=
0160010014999992015010515504+59792+005341FM-15+004999999V0201201N006210018319N005000199+00501+00501999999ADDGA1071+001831999GE19MSL   +99999+99999GF199999071999001831999999MA1102001999999MW1801REMMET063METAR ENSO 051550Z 12012KT 5000 2000E -SHRA BKN006 05/05 Q1020=
0159010014999992015010516204+59792+005341FM-15+004999999V0201201N007210030519N007000199+00501+00501999999ADDGA1071+003051999GE19MSL   +99999+99999GF199999071999003051999999MA1102001999999MW1161REMMET062METAR ENSO 051620Z 12014KT 7000 3000E VCSH BKN010 05/05 Q1020=
0187010014999992015010610204+59792+005341FM-15+004999999V0201601N008810030519N009000199+00601+00501999999ADDGA1071+003051999GA2081+004881999GE19MSL   +99999+99999GF199999071999003051999999MA1101101999999MW1591OC101391REMMET066METAR ENSO 061020Z 16017G27KT 9000 RADZ BKN010 OVC016 06/05 Q1011=
0188010014999992015010610504+59792+005341FM-15+004999999V0201601N009810027419N009999199+00601+00501999999ADDGA1071+002741999GA2081+004571999GE19MSL   +99999+99999GF199999071999002741999999MA1101101999999MW1581OC101541REMMET067METAR ENSO 061050Z 16019G30KT 9999 -RADZ BKN009 OVC015 06/05 Q1011=
0193010014999992015010611204+59792+005341FM-15+004999999V0201601V009310027419N009999199+00601+00501999999ADDGA1071+002741999GA2081+003051999GE19MSL   +99999+99999GF199999071999002741999999MA1101001999999MW1531OC101441REMMET072METAR ENSO 061120Z 16018G28KT 120V240 9999 DZ BKN009 OVC010 06/05 Q1010=
0196010014999992015010611504+59792+005341FM-15+004999999V0201601V009310027419N009999199+00601+00601999999ADDGA1041+002131999GA2071+002741999GE19MSL   +99999+99999GF199999041999002131999999MA1101001999999OC101491REMMET081METAR ENSO 061150Z 16018G29KT 130V200 9999 6000NW SCT007 BKN009 06/06      Q1010=
0188010014999992015010612204+59792+005341FM-15+004999999V0201601N009810036619N007000199+00701+00501999999ADDGA1041+002441999GA2071+003661999GE19MSL   +99999+99999GF199999041999002441999999MA1100901999999MW1581OC101601REMMET067METAR ENSO 061220Z 16019G31KT 7000 -RADZ SCT008 BKN012 07/05 Q1009=
0216010014999992015010612504+59792+005341FM-15+004999999V0201601N01081003051CN006000199+00601+00501999999ADDGA1021+001831999GA2041+003051999GA3071+004271999GE19MSL   +99999+99999GF199999021999001831999999MA1100901999999MW1581OC101601REMMET079METAR ENSO 061250Z 16021G31KT 6000 -RADZ FEW006 SCT010 BKN014 06/05      Q1009=
0197010014999992015010613204+59792+005341FM-15+004999999V0201601N010310027419N004500199+00601+00501999999ADDGA1041+001831999GA2071+002741999GE19MSL   +99999+99999GF199999041999001831999999MA1100801999999MW1101MW2581OC101751REMMET070METAR ENSO 061320Z 16020G34KT 4500 -RADZ BR SCT006 BKN009 06/05 Q1008=
0210010014999992015010613504+59792+005341FM-15+004999999V0201601V008810015219N004500199+00601+00501999999ADDGA1071+001521999GA2071+003051999GE19MSL   +99999+99999GF199999071999001521999999MA1100801999999MW1101MW2581OC101491REMMET083METAR ENSO 061350Z 16017G29KT 130V200 4500 -RADZ BR BKN005 BKN010 06/05      Q1008=
0201010014999992015010614204+59792+005341FM-15+004999999V0201601V009310021319N006000199+00601+00501999999ADDGA1071+002131999GA2071+003351999GE19MSL   +99999+99999GF199999071999002131999999MA1100701999999MW1581OC101441REMMET080METAR ENSO 061420Z 16018G28KT 140V200 6000 -RADZ BKN007 BKN011 06/05      Q1007=
0184010014999992015010614504+59792+005341FM-15+004999999V0201601V010310045719N009999199+00701+00501999999ADDGA1041+002131999GA2071+004571999GE19MSL   +99999+99999GF199999041999002131999999MA1100701999999OC101601REMMET069METAR ENSO 061450Z 16020G31KT 140V200 9999 SCT007 BKN015 07/05 Q1007=
0176010014999992015010615204+59792+005341FM-15+004999999V0201601N009810048819N009999199+00701+00501999999ADDGA1041+003661999GA2071+004881999GE19MSL   +99999+99999GF199999041999003661999999MA1100701999999OC101701REMMET061METAR ENSO 061520Z 16019G33KT 9999 SCT012 BKN016 07/05 Q1007=
0185010014999992015010615504+59792+005341FM-15+004999999V0201601N008810030519N009999199+00601+00501999999ADDGA1071+003051999GA2071+004271999GE19MSL   +99999+99999GF199999071999003051999999MA1100601999999MW1631OC101441REMMET064METAR ENSO 061550Z 16017G28KT 9999 RA BKN010 BKN014 06/05 Q1006=
0181010014999992015010616204+59792+005341FM-15+004999999V0201601N009310045719N009999199+00601+00501999999ADDGA1041+003051999GA2071+004571999GE19MSL   +99999+99999GF199999041999003051999999MA1100601999999OC101541REMMET066METAR ENSO 061620Z 16018G30KT 9999 SCT010 BKN015 06/05 Q1006 RERA=
0138010014999992015010616504+59792+005341FM-15+004999999V0201601V008819999999N999999999+99999+99999999999ADDMA1100505999999MW1611OC101541REMMET078METAR ENSO 061650Z 16017G30KT 130V190 -RA 9999 SCT009 BKN015 06/05      Q1005=EQDD01      0ADE693
0184010014999992015010617204+59792+005341FM-15+004999999V0201501V008210027419N009999199+00601+00601999999ADDGA1071+002741999GA2071+003961999GE19MSL   +99999+99999GF199999071999002741999999MA1100501999999OC101441REMMET069METAR ENSO 061720Z 15016G28KT 130V190 9999 BKN009 BKN013 06/06 Q1005=
0186010014999992015010617504+59792+005341FM-15+004999999V0201501N009810027419N009999199+00701+00601999999ADDGA1071+002741999GA2081+010061999GE19MSL   +99999+99999GF199999071999002741999999MA1100401999999MW1611OC101541REMMET065METAR ENSO 061750Z 15019G30KT 9999 -RA BKN009 OVC033 07/06 Q1004=
0199010014999992015010618204+59792+005341FM-15+004999999V0201601V008810027419N009999199+00701+00601999999ADDGA1021+000911999GA2071+002741999GE19MSL   +99999+99999GF199999021999000911999999MA1100401999999MW1611OC101441REMMET078METAR ENSO 061820Z 16017G28KT 130V190 9999 -RA FEW003 BKN009 07/06      Q1004=
0142010014999992015010704504+59792+005341FM-15+004999999V0201401N001519999999N009999199+00401+00301999999ADDGA1041+007921999GE19MSL   +99999+99999GF199999041999007921999999MA1101201999999REMMET051METAR ENSO 070450Z 14003KT 9999 SCT026 04/03 Q1012=
0165010014999992015010705204+59792+005341FM-15+004999999V0201201N00361008231CN009999199+00301+00301999999ADDGA1041+006101999GA2041+008231999GE19MSL   +99999+99999GF199999041999006101999999MA1101201999999REMMET058METAR ENSO 070520Z 12007KT 9999 SCT020 SCT027 03/03 Q1012=
0176010014999992015010706504+59792+005341FM-15+004999999V0201401N005110137219N009999199+00401+00301999999ADDGA1041+006101999GA2071+013721999GE19MSL   +99999+99999GF199999041999006101999999MA1101201999999MW1811REMMET063METAR ENSO 070650Z 14010KT 9999 SHRA SCT020 BKN045 04/03 Q1012=
0175010014999992015010707204+59792+005341FM-15+004999999V0201401N00461007321CN009999199+00401+00301999999ADDGA1041+006101999GA2041+007321999GE19MSL   +99999+99999GF199999041999006101999999MA1101201999999MW1611REMMET062METAR ENSO 070720Z 14009KT 9999 -RA SCT020 SCT024 04/03 Q1012=
0145010014999992015010707504+59792+005341FM-15+004999999V0201501N004619999999N009999199+00401+00301999999ADDGA1041+007921081GE19MSL   +99999+99999GF199999041999007921999999MA1101201999999REMMET054METAR ENSO 070750Z 15009KT 9999 SCT026TCU 04/03 Q1012=
0168010014999992015010708204+59792+005341FM-15+004999999V0201601N00511006101CN009999199+00401+00301999999ADDGA1021+004571999GA2041+006101081GE19MSL   +99999+99999GF199999021999004571999999MA1101201999999REMMET061METAR ENSO 070820Z 16010KT 9999 FEW015 SCT020TCU 04/03 Q1012=
0179010014999992015010708504+59792+005341FM-15+004999999V0201601N005110061019N009999199+00401+00301999999ADDGA1021+004571999GA2071+006101081GE19MSL   +99999+99999GF199999021999004571999999MA1101201999999MW1811REMMET066METAR ENSO 070850Z 16010KT 9999 SHRA FEW015 BKN020TCU 04/03 Q1012=
0179010014999992015010709204+59792+005341FM-15+004999999V0201701N00571007621CN009999199+00401+00301999999ADDGA1041+005181999GA2041+007621081GE19MSL   +99999+99999GF199999041999005181999999MA1101201999999MW1161REMMET066METAR ENSO 070920Z 17011KT 9999 VCSH SCT017 SCT025TCU 04/03 Q1012=
0168010014999992015010709504+59792+005341FM-15+004999999V0201601N00511007011CN009999199+00401+00301999999ADDGA1021+004271999GA2041+007011081GE19MSL   +99999+99999GF199999021999004271999999MA1101201999999REMMET061METAR ENSO 070950Z 16010KT 9999 FEW014 SCT023TCU 04/03 Q1012=
0165010014999992015010710504+59792+005341FM-15+004999999V0201501N00721011281CN009999199+00501+00301999999ADDGA1021+008531999GA2041+011281999GE19MSL   +99999+99999GF199999021999008531999999MA1101101999999REMMET058METAR ENSO 071050Z 15014KT 9999 FEW028 SCT037 05/03 Q1011=
0165010014999992015010711204+59792+005341FM-15+004999999V0201401N00771013111CN009999199+00501+00301999999ADDGA1021+004571999GA2041+013111999GE19MSL   +99999+99999GF199999021999004571999999MA1101001999999REMMET058METAR ENSO 071120Z 14015KT 9999 FEW015 SCT043 05/03 Q1010=
0165010014999992015010711504+59792+005341FM-15+004999999V0201401N00931015241CN009999199+00501+00301999999ADDGA1021+003661999GA2041+015241999GE19MSL   +99999+99999GF199999021999003661999999MA1101001999999REMMET058METAR ENSO 071150Z 14018KT 9999 FEW012 SCT050 05/03 Q1010=
0165010014999992015010712204+59792+005341FM-15+004999999V0201401N00881010671CN009999199+00501+00201999999ADDGA1021+003661999GA2041+010671999GE19MSL   +99999+99999GF199999021999003661999999MA1100901999999REMMET058METAR ENSO 071220Z 14017KT 9999 FEW012 SCT035 05/02 Q1009=
0199010014999992015010712504+59792+005341FM-15+004999999V0201501N00771008531CN009999199+00501+00301999999ADDGA1021+003661999GA2021+006101999GA3041+008531999GE19MSL   +99999+99999GF199999021999003661999999MA1100901999999OC101341REMMET068METAR ENSO 071250Z 15015G26KT 9999 FEW012 FEW020 SCT028 05/03 Q1009=
0176010014999992015010713504+59792+005341FM-15+004999999V0201501N007710054919N009999199+00601+00301999999ADDGA1021+003961999GA2071+005491999GE19MSL   +99999+99999GF199999021999003961999999MA1100701999999OC101441REMMET061METAR ENSO 071350Z 15015G28KT 9999 FEW013 BKN018 06/03 Q1007=
0184010014999992015010714204+59792+005341FM-15+004999999V0201501V010810048819N009999199+00601+00301999999ADDGA1021+003961999GA2071+004881999GE19MSL   +99999+99999GF199999021999003961999999MA1100701999999OC101601REMMET069METAR ENSO 071420Z 15021G31KT 120V180 9999 FEW013 BKN016 06/03 Q1007=
0184010014999992015010714504+59792+005341FM-15+004999999V0201501V009810048819N009999199+00601+00301999999ADDGA1021+003661999GA2071+004881999GE19MSL   +99999+99999GF199999021999003661999999MA1100601999999OC101491REMMET069METAR ENSO 071450Z 15019G29KT 130V190 9999 FEW012 BKN016 06/03 Q1006=
0176010014999992015010715204+59792+005341FM-15+004999999V0201501N010310048819N009999199+00601+00301999999ADDGA1021+003661999GA2071+004881999GE19MSL   +99999+99999GF199999021999003661999999MA1100501999999OC101751REMMET061METAR ENSO 071520Z 15020G34KT 9999 FEW012 BKN016 06/03 Q1005=
0176010014999992015010715504+59792+005341FM-15+004999999V0201501N010310042719N009999199+00601+00301999999ADDGA1021+003051999GA2071+004271999GE19MSL   +99999+99999GF199999021999003051999999MA1100501999999OC101701REMMET061METAR ENSO 071550Z 15020G33KT 9999 FEW010 BKN014 06/03 Q1005=
0188010014999992015010716204+59792+005341FM-15+004999999V0201501N010310039619N009999199+00601+00401999999ADDGA1021+002441999GA2071+003961999GE19MSL   +99999+99999GF199999021999002441999999MA1100401999999MW1581OC101651REMMET067METAR ENSO 071620Z 15020G32KT 9999 -RADZ FEW008 BKN013 06/04 Q1004=
0188010014999992015010716504+59792+005341FM-15+004999999V0201501N010310042719N009000199+00601+00401999999ADDGA1021+002131999GA2071+004271999GE19MSL   +99999+99999GF199999021999002131999999MA1100301999999MW1581OC101801REMMET067METAR ENSO 071650Z 15020G35KT 9000 -RADZ FEW007 BKN014 06/04 Q1003=
0188010014999992015010717504+59792+005341FM-15+004999999V0201501N010310024419N009000199+00601+00501999999ADDGA1021+001831999GA2071+002441999GE19MSL   +99999+99999GF199999021999001831999999MA1100201999999MW1581OC101601REMMET067METAR ENSO 071750Z 15020G31KT 9000 -RADZ FEW006 BKN008 06/05 Q1002=
0165010014999992015010804504+59792+005341FM-15+004999999V0202401N00411016761CN009999199+00601+00301999999ADDGA1041+008531999GA2041+016761999GE19MSL   +99999+99999GF199999041999008531999999MA1099801999999REMMET058METAR ENSO 080450Z 24008KT 9999 SCT028 SCT055 06/03 Q0998=
0173010014999992015010805204+59792+005341FM-15+004999999V0202401V00411016151CN009999199+00601+00301999999ADDGA1041+009141999GA2041+016151999GE19MSL   +99999+99999GF199999041999009141999999MA1099901999999REMMET066METAR ENSO 080520Z 24008KT 200V260 9999 SCT030 SCT053 06/03 Q0999=
0165010014999992015010805504+59792+005341FM-15+004999999V0202501N00671014631CN009999199+00601+00301999999ADDGA1041+009141999GA2041+014631999GE19MSL   +99999+99999GF199999041999009141999999MA1099901999999REMMET058METAR ENSO 080550Z 25013KT 9999 SCT030 SCT048 06/03 Q0999=
0165010014999992015010806204+59792+005341FM-15+004999999V0202501N00511014631CN009999199+00601+00301999999ADDGA1041+008231999GA2041+014631999GE19MSL   +99999+99999GF199999041999008231999999MA1099901999999REMMET058METAR ENSO 080620Z 25010KT 9999 SCT027 SCT048 06/03 Q0999=
0165010014999992015010806504+59792+005341FM-15+004999999V0202301N00411012801CN009999199+00601+00201999999ADDGA1041+008531999GA2041+012801999GE19MSL   +99999+99999GF199999041999008531999999MA1099901999999REMMET058METAR ENSO 080650Z 23008KT 9999 SCT028 SCT042 06/02 Q0999=
0142010014999992015010807204+59792+005341FM-15+004999999V0202201N003619999999N009999199+00601+00301999999ADDGA1041+008841999GE19MSL   +99999+99999GF199999041999008841999999MA1099901999999REMMET051METAR ENSO 080720Z 22007KT 9999 SCT029 06/03 Q0999=
0153010014999992015010808204+59792+005341FM-15+004999999V0202201V004119999999N009999199+00601+00301999999ADDGA1041+007621081GE19MSL   +99999+99999GF199999041999007621999999MA1100001999999REMMET062METAR ENSO 080820Z 22008KT 160V270 9999 SCT025TCU 06/03 Q1000=
0145010014999992015010808504+59792+005341FM-15+004999999V0202201N005119999999N009999199+00601+00301999999ADDGA1041+015241081GE19MSL   +99999+99999GF199999041999015241999999MA1100001999999REMMET054METAR ENSO 080850Z 22010KT 9999 SCT050TCU 06/03 Q1000=
0145010014999992015010809204+59792+005341FM-15+004999999V0202101N005719999999N009999199+00601+00301999999ADDGA1041+012191081GE19MSL   +99999+99999GF199999041999012191999999MA1100001999999REMMET054METAR ENSO 080920Z 21011KT 9999 SCT040TCU 06/03 Q1000=
0156010014999992015010809504+59792+005341FM-15+004999999V0202101N005719999999N009999199+00601+00401999999ADDGA1041+007621081GE19MSL   +99999+99999GF199999041999007621999999MA1100001999999MW1161REMMET059METAR ENSO 080950Z 21011KT 9999 VCSH SCT025TCU 06/04 Q1000=
0179010014999992015010810204+59792+005341FM-15+004999999V0202301N00411009451CN009999199+00601+00401999999ADDGA1041+007011999GA2041+009451081GE19MSL   +99999+99999GF199999041999007011999999MA1100001999999MW1161REMMET066METAR ENSO 081020Z 23008KT 9999 VCSH SCT023 SCT031TCU 06/04 Q1000=
0192010014999992015010810504+59792+005341FM-15+004999999V0202301N005719999999N009999199+99999+99999999999ADDGA1041+007621999GE19AGL   +99999+99999GF199999041999007621999999MA1100005999999MW1811OC101651REMMET068METAR ENSO 081050Z 23011G32KT 9999 SHRA SCT025TS BKN063 07/03 Q1000=EQDD01      0ADE693
0200010014999992015010811204+59792+005341FM-15+004999999V0202501N00411005791CN009999199+00401+00301999999ADDGA1041+004271999GA2041+005791091GA3071+007921999GE19MSL   +99999+99999GF199999041999004271999999MA1100001999999MW1511REMMET071METAR ENSO 081120Z 25008KT 9999 -DZ SCT014 SCT019CB BKN026 04/03 Q1000=
0214010014999992015010811504+59792+005341FM-15+004999999V0202301V00411005491CN009999199+00401+00301999999ADDGA1041+004271999GA2041+005491091GA3071+007921999GE19MSL   +99999+99999GF199999041999004271999999MA1100001999999MW1161REMMET085METAR ENSO 081150Z 23008KT 200V270 9999 VCSH SCT014 SCT018CB BKN026      04/03 Q1000=
0201010014999992015010812204+59792+005341FM-15+004999999V0202401N00571005491CN009999199+00501+00401999999ADDGA1041+004271999GA2041+005491091GA3071+009141999GE19MSL   +99999+99999GF199999041999004271999999MA1100001999999MW1161REMMET072METAR ENSO 081220Z 24011KT 9999 VCSH SCT014 SCT018CB BKN030 05/04 Q1000=
0201010014999992015010812504+59792+005341FM-15+004999999V0202501N00571005491CN009999199+00501+00301999999ADDGA1041+004271999GA2041+005491091GA3071+009141999GE19MSL   +99999+99999GF199999041999004271999999MA1100001999999MW1161REMMET072METAR ENSO 081250Z 25011KT 9999 VCSH SCT014 SCT018CB BKN030 05/03 Q1000=
0201010014999992015010813204+59792+005341FM-15+004999999V0202601N00671006101CN009999199+00501+00401999999ADDGA1041+003661999GA2041+006101091GA3071+013721999GE19MSL   +99999+99999GF199999041999003661999999MA1100001999999MW1161REMMET072METAR ENSO 081320Z 26013KT 9999 VCSH SCT012 SCT020CB BKN045 05/04 Q1000=
0225010014999992015010813504+59792+005341FM-15+004999999V0202401V00621006101CN009999199+00501+00301999999ADDGA1041+003661999GA2041+006101091GA3071+013721999GE19MSL   +99999+99999GF199999041999003661999999MA1100001999999MW1161OC101241REMMET088METAR ENSO 081350Z 24012G24KT 210V280 9999 VCSH SCT012 SCT020CB BKN045      05/03 Q1000=
0202010014999992015010814204+59792+005341FM-15+004999999V0202501V008810076219N009999199+00501+00301999999ADDGA1021+004881999GA2071+007621091GE19MSL   +99999+99999GF199999021999004881999999MA1100101999999MW1161OC101801REMMET081METAR ENSO 081420Z 25017G35KT 220V300 9999 VCSH FEW016 BKN025CB 05/03      Q1001=
0203010014999992015010814504+59792+005341FM-15+004999999V0202301V00211006101CN009999199+00401+00301999999ADDGA1021+003961999GA2041+006101091GA3071+012191999GE19MSL   +99999+99999GF199999021999003961999999MA1100101999999REMMET080METAR ENSO 081450Z 23004KT 190V300 9999 FEW013 SCT020CB BKN040 04/03      Q1001=
0194010014999992015010815204+59792+005341FM-15+004999999V0202501N00461006101CN009999199+00401+00301999999ADDGA1021+003961999GA2041+006101091GA3041+012191999GE19MSL   +99999+99999GF199999021999003961999999MA1100101999999REMMET071METAR COR ENSO 081520Z 25009KT 9999 FEW013 SCT020CB SCT040 04/03 Q1001=
0190010014999992015010815304+59792+005341FM-15+004999999V0202501N00461006101CN009999199+00401+00301999999ADDGA1021+003961999GA2041+006101091GA3041+012191999GE19MSL   +99999+99999GF199999021999003961999999MA1100101999999REMMET067METAR ENSO 081530Z 25009KT 9999 FEW013 SCT020CB SCT040 04/03 Q1001=
0203010014999992015010815504+59792+005341FM-15+004999999V0202501V00411006101CN009999199+00401+00201999999ADDGA1021+004271999GA2041+006101091GA3041+009141999GE19MSL   +99999+99999GF199999021999004271999999MA1100101999999REMMET080METAR ENSO 081550Z 25008KT 210V280 9999 FEW014 SCT020CB SCT030 04/02      Q1001=
0203010014999992015010816204+59792+005341FM-15+004999999V0202501V00511006101CN009999199+00501+00301999999ADDGA1021+003661999GA2041+006101091GA3041+010671999GE19MSL   +99999+99999GF199999021999003661999999MA1100101999999REMMET080METAR ENSO 081620Z 25010KT 230V290 9999 FEW012 SCT020CB SCT035 05/03      Q1001=
0190010014999992015010816504+59792+005341FM-15+004999999V0202501N00571007321CN009999199+00501+00201999999ADDGA1021+004271999GA2041+007321091GA3041+012191999GE19MSL   +99999+99999GF199999021999004271999999MA1100101999999REMMET067METAR ENSO 081650Z 25011KT 9999 FEW014 SCT024CB SCT040 05/02 Q1001=
0140010014999992015010817204+59792+005341FM-15+004999999V0202801N003119999999N009999199+99999+99999999999ADDMA1100105999999REMMET094METAR ENSO 081720Z 28006KT 9999 -SRHA FEW012 SCT018CB SCT030 BKN070      04/02 Q1001 RESHRAGS=EQDD01      0ADE693
0139010014999992015010817504+59792+005341FM-15+004999999V0202801V003119999999N009999199+99999+99999999999ADDMA1100105999999REMMET093METAR ENSO 081750Z 28006KT 230V320 9999 -SRHA FEW012 SCT018CB SCT028      BKN044 04/03 Q1001=EQDD01      0ADE693
0140010014999992015010818204+59792+005341FM-15+004999999V0202601N007219999999N009999199+99999+99999999999ADDMA1100105999999REMMET094METAR ENSO 081820Z 26014KT 9999 -SRHA FEW006 SCT014CB SCT022 BKN035      04/03 Q1001 RESHRAGS=EQDD01      0ADE693
0177010014999992015010907504+59792+005341FM-15+004999999V0201101N009810149419N009999199+00401+00001999999ADDGA1041+011581999GA2071+014941999GE19MSL   +99999+99999GF199999041999011581999999MA1098301999999OC101491REMMET062METAR ENSO 090750Z 11019G29KT 9999 SCT038 BKN049 04/M00 Q0983=
0143010014999992015010908204+59792+005341FM-15+004999999V0201101N010319999999N009999199+00401-00101999999ADDGA1041+012801999GE19MSL   +99999+99999GF199999041999012801999999MA1098201999999REMMET052METAR ENSO 090820Z 11020KT 9999 SCT042 04/M01 Q0982=
0143010014999992015010908504+59792+005341FM-15+004999999V0201101N009319999999N009999199+00401-00101999999ADDGA1041+011281999GE19MSL   +99999+99999GF199999041999011281999999MA1098201999999REMMET052METAR ENSO 090850Z 11018KT 9999 SCT037 04/M01 Q0982=
0143010014999992015010909204+59792+005341FM-15+004999999V0201201N008210091419N009999199+00401+00001999999ADDGA1071+009141999GE19MSL   +99999+99999GF199999071999009141999999MA1098101999999REMMET052METAR ENSO 090920Z 12016KT 9999 BKN030 04/M00 Q0981=
0166010014999992015010910204+59792+005341FM-15+004999999V0201101N009810131119N009999199+00401+00001999999ADDGA1041+008531999GA2071+013111999GE19MSL   +99999+99999GF199999041999008531999999MA1097901999999REMMET059METAR ENSO 091020Z 11019KT 9999 SCT028 BKN043 04/M00 Q0979=
0189010014999992015010911204+59792+005341FM-15+004999999V0201101N01181007011CN009999199+00401+00001999999ADDGA1021+004571999GA2041+007011999GE19MSL   +99999+99999GF199999021999004571999999MA1097901999999MW1801OC101701REMMET068METAR ENSO 091120Z 11023G33KT 9999 -SHRA FEW015 SCT023 04/M00 Q0979=
0165010014999992015010912204+59792+005341FM-15+004999999V0201101N010310048819N009999199+00401+00001999999ADDGA1071+004881999GE19MSL   +99999+99999GF199999071999004881999999MA1098001999999MW1581OC101601REMMET060METAR ENSO 091220Z 11020G31KT 9999 -RADZ BKN016 04/00 Q0980=
0160010014999992015010912504+59792+005341FM-15+004999999V0201001V007210048819N009999199+00401+00001999999ADDGA1071+004881999GE19MSL   +99999+99999GF199999071999004881999999MA1098101999999MW1611REMMET063METAR ENSO 091250Z 10014KT 060V130 9999 -RA BKN016 04/00 Q0981=
0150010014999992015010913204+59792+005341FM-15+004999999V0200401V002619999999N009999199+00401+00001999999ADDGA1041+015241999GE19MSL   +99999+99999GF199999041999015241999999MA1098301999999REMMET059METAR ENSO 091320Z 04005KT 340V100 9999 SCT050 04/00 Q0983=
0165010014999992015010913504+59792+005341FM-15+004999999V0203501N00361015241CN009999199+00401+00001999999ADDGA1041+007621999GA2041+015241999GE19MSL   +99999+99999GF199999041999007621999999MA1098501999999REMMET058METAR ENSO 091350Z 35007KT 9999 SCT025 SCT050 04/00 Q0985=
0166010014999992015010914204+59792+005341FM-15+004999999V0200101N003610167619N009999199+00501+00001999999ADDGA1041+007621999GA2071+016761999GE19MSL   +99999+99999GF199999041999007621999999MA1098601999999REMMET059METAR ENSO 091420Z 01007KT 9999 SCT025 BKN055 05/M00 Q0986=
0165010014999992015010915504+59792+005341FM-15+004999999V0209999V000510213419N009999199+00401+00001999999ADDGA1041+013721999GA2071+021341999GE19MSL   +99999+99999GF199999041999013721999999MA1099101999999REMMET058METAR ENSO 091550Z VRB01KT 9999 SCT045 BKN070 04/00 Q0991=
0142010014999992015010916504+59792+005341FM-15+004999999V0209999V000510152419N009999199+00401+00101999999ADDGA1071+015241999GE19MSL   +99999+99999GF199999071999015241999999MA1099101999999REMMET051METAR ENSO 091650Z VRB01KT 9999 BKN050 04/01 Q0991=
0165010014999992015010917504+59792+005341FM-15+004999999V0201601N002610152419N009999199+00501+00101999999ADDGA1021+009141999GA2071+015241999GE19MSL   +99999+99999GF199999021999009141999999MA1099101999999REMMET058METAR ENSO 091750Z 16005KT 9999 FEW030 BKN050 05/01 Q0991=
0165010014999992015010918204+59792+005341FM-15+004999999V0209999V002610121919N009999199+00501+00301999999ADDGA1021+008531999GA2071+012191999GE19MSL   +99999+99999GF199999021999008531999999MA1099202999999REMMET058METAR ENSO 091820Z VRB05KT 9999 FEW028 BKN040 05/03 Q0992=
0185010014999992015010918504+59792+005341FM-15+004999999V0202301V003110106719N009999199+00501+00301999999ADDGA1041+005791999GA2071+010671999GE19MSL   +99999+99999GF199999041999005791999999MA1099201999999MW1801REMMET072METAR ENSO 091850Z 23006KT 180V280 9999 -SHRA SCT019 BKN035 05/03 Q0992=
0156010014999992015011111504+59792+005341FM-15+004999999V0202901V010319999999N009999199+99999+99999999999ADDMA1099105999999MW1805MW2875OC101901REMMET090METAR ENSO 111150Z 29020G37KT 250V320 9999 -SHRAGS FEW018 SCT02CB BKN045      04/00 Q0991=EQDD01      0ADE735
0214010014999992015011112504+59792+005341FM-15+004999999V0203101V00461007621CN009999199+00501+00101999999ADDGA1021+005491999GA2041+007621091GA3071+016761999GE19MSL   +99999+99999GF199999021999005491999999MA1099201999999OC101491REMMET083METAR ENSO 111250Z 31009G29KT 290V350 9999 FEW018 SCT025CB BKN055 05/01      Q0992=
0215010014999992015011113204+59792+005341FM-15+004999999V0203401V00771006711CN009999199+00501+00001999999ADDGA1021+005491999GA2041+006711091GA3071+011581999GE19MSL   +99999+99999GF199999021999005491999999MA1099201999999MW1161REMMET086METAR ENSO 111320Z 34015KT 330V010 9999 VCSH FEW018 SCT022CB BKN038      05/M00 Q0992=
0185010014999992015011113504+59792+005341FM-15+004999999V0203401N005110137219N009999199+00401+00001999999ADDGA1041+006711091GA2071+013721999GE19MSL   +99999+99999GF199999041999006711999999MA1099301999999MW1161REMMET072METAR ENSO 111350Z 34010KT 9999 VCSH SCT022CB BKN045 04/00 Q0993 RESHGR=
0185010014999992015011114204+59792+005341FM-15+004999999V0203101N008810121919N009999199+00501+00001999999ADDGA1041+006711091GA2071+012191999GE19MSL   +99999+99999GF199999041999006711999999MA1099301999999MW1161REMMET072METAR ENSO 111420Z 31017KT 9999 VCSH SCT022CB BKN040 05/00 Q0993 RESHGR=
0198010014999992015011114504+59792+005341FM-15+004999999V0202901V007710115819N009999199+00501+00001999999ADDGA1041+006711091GA2071+011581999GE19MSL   +99999+99999GF199999041999006711999999MA1099401999999MW1161REMMET085METAR ENSO 111450Z 29015KT 240V330 9999 VCSH SCT022CB BKN038 05/00      Q0994 RESHGR=
0146010014999992015011115204+59792+005341FM-15+004999999V0203101V005719999999N009999199+99999+99999999999ADDMA1099405999999MW1805MW2875REMMET088METAR ENSO 111520Z 31011KT 270V340 9999 -SHRAGS FEW022CB SCT027 BKN036      04/01 Q0994=EQDD01      0ADE735
0203010014999992015011115504+59792+005341FM-15+004999999V0202801V00511010361CN009999199+00401+00101999999ADDGA1021+007321091GA2041+010361999GA3041+018291999GE19MSL   +99999+99999GF199999021999007321999999MA1099501999999REMMET080METAR ENSO 111550Z 28010KT 250V320 9999 FEW024CB SCT034 SCT060 04/01      Q0995=
0203010014999992015011116204+59792+005341FM-15+004999999V0202801V00511010671CN009999199+00401+00101999999ADDGA1021+007321091GA2041+010671999GA3041+024381999GE19MSL   +99999+99999GF199999021999007321999999MA1099501999999REMMET080METAR ENSO 111620Z 28010KT 250V320 9999 FEW024CB SCT035 SCT080 04/01      Q0995=
0167010014999992015011117204+59792+005341FM-15+004999999V0202601N002610106719N009999199+00301+00101999999ADDGA1041+006101091GA2071+010671999GE19MSL   +99999+99999GF199999041999006101999999MA1099501999999REMMET060METAR ENSO 111720Z 26005KT 9999 SCT020CB BKN035 03/01 Q0995=
0167010014999992015011117504+59792+005341FM-15+004999999V0209999V001510137219N009999199+00301+00001999999ADDGA1041+006711091GA2071+013721999GE19MSL   +99999+99999GF199999041999006711999999MA1099501999999REMMET060METAR ENSO 111750Z VRB03KT 9999 SCT022CB BKN045 03/00 Q0995=
0168010014999992015011118204+59792+005341FM-15+004999999V0209999V001010121919N009999199+00301+00001999999ADDGA1041+006711091GA2071+012191999GE19MSL   +99999+99999GF199999041999006711999999MA1099501999999REMMET061METAR ENSO 111820Z VRB02KT 9999 SCT022CB BKN040 03/M00 Q0995=
0167010014999992015011118504+59792+005341FM-15+004999999V0201501N002610121919N009999199+00301+00001999999ADDGA1021+006711091GA2071+012191999GE19MSL   +99999+99999GF199999021999006711999999MA1099501999999REMMET060METAR ENSO 111850Z 15005KT 9999 FEW022CB BKN040 03/00 Q0995=
0221010014999992015011203504+59792+005341FM-15+004999999V0202401V00721003051CN009999199+00601+00601999999ADDGA1021+002441999GA2041+003051999GA3071+003661999GE19MSL   +99999+99999GF199999021999002441999999MA1098501999999MW1631OC101341REMMET084METAR ENSO 120350Z 24014G26KT 190V260 9999 RA FEW008 SCT010 BKN012      06/06 Q0985=
0210010014999992015011204204+59792+005341FM-15+004999999V0202301V00721003051CN009999199+00601+00601999999ADDGA1021+002441999GA2041+003051999GA3071+003661999GE19MSL   +99999+99999GF199999021999002441999999MA1098501999999MW1631REMMET081METAR ENSO 120420Z 23014KT 190V260 9999 RA FEW008 SCT010 BKN012 06/06      Q0985=
0197010014999992015011204504+59792+005341FM-15+004999999V0202301N00721003051CN009999199+00701+00601999999ADDGA1021+002441999GA2041+003051999GA3071+003961999GE19MSL   +99999+99999GF199999021999002441999999MA1098501999999MW1631REMMET068METAR ENSO 120450Z 23014KT 9999 RA FEW008 SCT010 BKN013 07/06 Q0985=
0221010014999992015011205204+59792+005341FM-15+004999999V0202301V00721003051CN007000199+00701+00601999999ADDGA1021+002441999GA2041+003051999GA3071+003961999GE19MSL   +99999+99999GF199999021999002441999999MA1098401999999MW1631OC101391REMMET084METAR ENSO 120520Z 23014G27KT 200V270 7000 RA FEW008 SCT010 BKN013      07/06 Q0984=
0221010014999992015011205504+59792+005341FM-15+004999999V0202201V00721003051CN009999199+00701+00601999999ADDGA1021+002441999GA2041+003051999GA3071+003661999GE19MSL   +99999+99999GF199999021999002441999999MA1098401999999MW1631OC101341REMMET084METAR ENSO 120550Z 22014G26KT 170V270 9999 RA FEW008 SCT010 BKN012      07/06 Q0984=
0176010014999992015011206204+59792+005341FM-15+004999999V0202201N007210045719N009999199+00701+00601999999ADDGA1041+003051999GA2071+004571999GE19MSL   +99999+99999GF199999041999003051999999MA1098301999999OC101291REMMET061METAR ENSO 120620Z 22014G25KT 9999 SCT010 BKN015 07/06 Q0983=
0185010014999992015011206504+59792+005341FM-15+004999999V0202101N006710039619N009999199+00701+00601999999ADDGA1021+003051999GA2071+003961999GE19MSL   +99999+99999GF199999021999003051999999MA1098201999999MW1631OC101181REMMET064METAR ENSO 120650Z 21013G23KT 9999 RA FEW010 BKN013 07/06 Q0982=
0185010014999992015011207204+59792+005341FM-15+004999999V0202101N008210039619N009999199+00701+00601999999ADDGA1021+003051999GA2071+003961999GE19MSL   +99999+99999GF199999021999003051999999MA1098201999999MW1631OC101291REMMET064METAR ENSO 120720Z 21016G25KT 9999 RA FEW010 BKN013 07/06 Q0982=
0193010014999992015011207504+59792+005341FM-15+004999999V0202201V008210039619N009999199+00701+00601999999ADDGA1021+003051999GA2071+003961999GE19MSL   +99999+99999GF199999021999003051999999MA1098101999999MW1631OC101751REMMET072METAR ENSO 120750Z 22016G34KT 190V260 9999 RA FEW010 BKN013 07/06 Q0981=
0193010014999992015011208204+59792+005341FM-15+004999999V0202101V009310061019N009999199+00701+00601999999ADDGA1021+004271999GA2071+006101999GE19MSL   +99999+99999GF199999021999004271999999MA1098101999999MW1631OC101541REMMET072METAR ENSO 120820Z 21018G30KT 160V240 9999 RA FEW014 BKN020 07/06 Q0981=
0193010014999992015011208504+59792+005341FM-15+004999999V0202001V010310061019N009999199+00701+00601999999ADDGA1021+004271999GA2071+006101999GE19MSL   +99999+99999GF199999021999004271999999MA1098001999999MW1631OC102061REMMET072METAR ENSO 120850Z 20020G40KT 150V240 9999 RA FEW014 BKN020 07/06 Q0980=
0193010014999992015011209204+59792+005341FM-15+004999999V0202001V009810061019N009999199+00701+00601999999ADDGA1021+004271999GA2071+006101999GE19MSL   +99999+99999GF199999021999004271999999MA1097901999999MW1631OC101651REMMET072METAR ENSO 120920Z 20019G32KT 150V240 9999 RA FEW014 BKN020 07/06 Q0979=
0184010014999992015011209504+59792+005341FM-15+004999999V0202101V010310061019N009999199+00701+00601999999ADDGA1021+004571999GA2071+006101999GE19MSL   +99999+99999GF199999021999004571999999MA1097801999999OC101901REMMET069METAR ENSO 120950Z 21020G37KT 150V240 9999 FEW015 BKN020 07/06 Q0978=
0184010014999992015011210204+59792+005341FM-15+004999999V0202101V009810045719N009999199+00701+00601999999ADDGA1021+003661999GA2071+004571999GE19MSL   +99999+99999GF199999021999003661999999MA1097701999999OC101961REMMET069METAR ENSO 121020Z 21019G38KT 170V240 9999 FEW012 BKN015 07/06 Q0977=
0184010014999992015011210504+59792+005341FM-15+004999999V0202201V009810045719N009999199+00801+00601999999ADDGA1021+003661999GA2071+004571999GE19MSL   +99999+99999GF199999021999003661999999MA1097701999999OC101801REMMET069METAR ENSO 121050Z 22019G35KT 180V270 9999 FEW012 BKN015 08/06 Q0977=
0184010014999992015011211204+59792+005341FM-15+004999999V0202601V009310061019N009999199+00601+00501999999ADDGA1021+004571999GA2071+006101999GE19MSL   +99999+99999GF199999021999004571999999MA1097701999999OC101441REMMET069METAR ENSO 121120Z 26018G28KT 230V300 9999 FEW015 BKN020 06/05 Q0977=
0186010014999992015011211504+59792+005341FM-15+004999999V0202501N008210088419N009999199+00701+00501999999ADDGA1041+006101999GA2071+008841999GE19MSL   +99999+99999GF199999041999006101999999MA1097701999999MW1511OC101341REMMET065METAR ENSO 121150Z 25016G26KT 9999 -DZ SCT020 BKN029 07/05 Q0977=
0191010014999992015011212504+59792+005341FM-15+004999999V0202501N01241009141CN005000199+00501+00201999999ADDGA1041+004571091GA2041+009141999GE19MSL   +99999+99999GF199999041999004571999999MA1097901999999MW1841OC102991REMMET070METAR ENSO 121250Z 25024G58KT 5000 SHRASN SCT015CB SCT030 05/02 Q0979=
0179010014999992015011213204+59792+005341FM-15+004999999V0202501N00721009141CN009999199+00401+00301999999ADDGA1021+004571999GA2041+009141081GE19MSL   +99999+99999GF199999021999004571999999MA1097901999999MW1161REMMET066METAR ENSO 121320Z 25014KT 9999 VCSH FEW015 SCT030TCU 04/03 Q0979=
0190010014999992015011213504+59792+005341FM-15+004999999V0202401N00721010671CN009999199+00601+00301999999ADDGA1021+006101999GA2041+010671081GE19MSL   +99999+99999GF199999021999006101999999MA1097901999999MW1161OC101341REMMET069METAR ENSO 121350Z 24014G26KT 9999 VCSH FEW020 SCT035TCU 06/03 Q0979=
0156010014999992015011214204+59792+005341FM-15+004999999V0202501N009819999999N009999199+00501+00201999999ADDGA1041+010061081GE19MSL   +99999+99999GF199999041999010061999999MA1097901999999OC101651REMMET057METAR ENSO 121420Z 25019G32KT 9999 SCT033TCU 05/02 Q0979=
0156010014999992015011214504+59792+005341FM-15+004999999V0202501N010819999999N009999199+00601+00101999999ADDGA1041+011581081GE19MSL   +99999+99999GF199999041999011581999999MA1097901999999OC101601REMMET057METAR ENSO 121450Z 25021G31KT 9999 SCT038TCU 06/01 Q0979=
0178010014999992015011215204+59792+005341FM-15+004999999V0202501N010310155419N009999199+00501+00101999999ADDGA1041+006101091GA2071+015541999GE19MSL   +99999+99999GF199999041999006101999999MA1098001999999OC101901REMMET063METAR ENSO 121520Z 25020G37KT 9999 SCT020CB BKN051 05/01 Q0980=
0178010014999992015011216204+59792+005341FM-15+004999999V0202401N01291010671CN009999199+00301+00101999999ADDGA1041+006101091GA2041+010671999GE19MSL   +99999+99999GF199999041999006101999999MA1098001999999OC102161REMMET063METAR ENSO 121620Z 24025G42KT 9999 SCT020CB SCT035 03/01 Q0980=
0151010014999992015011304204+59792+005341FM-15+004999999V0202201N013019999999N009999199+00501+00201999999ADDGA1041+007921999GE19MSL   +99999+99999GF199999041999007921999999MA1098401999999OC102401REMMET052METAR ENSO 130420Z 22013G24 9999 SCT026 05/02 Q0984=
0151010014999992015011304504+59792+005341FM-15+004999999V0202201N012019999999N009999199+00501+00201999999ADDGA1041+008531999GE19MSL   +99999+99999GF199999041999008531999999MA1098401999999OC102501REMMET052METAR ENSO 130450Z 22012G25 9999 SCT028 05/02 Q0984=
0154010014999992015011305204+59792+005341FM-15+004999999V0202301N013019999999N009999199+00501+00201999999ADDGA1041+007011081GE19MSL   +99999+99999GF199999041999007011999999MA1098401999999OC102501REMMET055METAR ENSO 130520Z 23013G25 9999 SCT023TCU 05/02 Q0984=
0168010014999992015011305504+59792+005341FM-15+004999999V0202101N00511007011CN009999199+00501+00301999999ADDGA1021+005491999GA2041+007011081GE19MSL   +99999+99999GF199999021999005491999999MA1098401999999REMMET061METAR ENSO 130550Z 21010KT 9999 FEW018 SCT023TCU 05/03 Q0984=
0180010014999992015011306204+59792+005341FM-15+004999999V0202201N00511007921CN009999199+00501+00301999999ADDGA1021+005791999GA2041+007921081GE19MSL   +99999+99999GF199999021999005791999999MA1098401999999MW1801REMMET067METAR ENSO 130620Z 22010KT 9999 -SHRA FEW019 SCT026TCU 05/03 Q0984=
0172010014999992015011306504+59792+005341FM-15+004999999V0202501N006719999999N009999199+00501+00101999999ADDGA1041+008531091GE19MSL   +99999+99999GF199999041999008531999999MA1098401999999MW1631MW2921OC101851REMMET061METAR ENSO 130650Z 25013G36KT 9999 RAGS SCT028CB 05/01 Q0984=
0172010014999992015011307204+59792+005341FM-15+004999999V0202501N007710048819N009999199+00301+00101999999ADDGA1071+004881091GE19MSL   +99999+99999GF199999071999004881999999MA1098401999999MW1631MW2921OC101291REMMET061METAR ENSO 130720Z 25015G25KT 9999 RAGS BKN016CB 03/01 Q0984=
0163010014999992015011307504+59792+005341FM-15+004999999V0202801V001019999999N009999199+00301+00101999999ADDGA1041+012191091GE19MSL   +99999+99999GF199999041999012191999999MA1098301999999MW1161REMMET066METAR ENSO 130750Z 28002KT 200V350 9999 VCSH SCT040CB 03/01 Q0983=
0191010014999992015011308204+59792+005341FM-15+004999999V0201901V00151021341CN009999199+00301+00101999999ADDGA1041+009451091GA2041+021341999GE19MSL   +99999+99999GF199999041999009451999999MA1098301999999MW1811REMMET078METAR ENSO 130820Z 19003KT 110V280 9999 SHRA SCT031CB SCT070 03/01      Q0983=
0129010014999992015011308504+59792+005341FM-15+004999999V0202301V007219999999N999999999+99999+99999999999ADDMA1098405999999MW1161OC101291REMMET069METAR ENSO 130850Z 23014G25KT 200V260 VCSH 9999 SCT035CB 03/01 Q0984=EQDD01      0ADE693
0130010014999992015011309204+59792+005341FM-15+004999999V0202001V002619999999N999999999+99999+99999999999ADDMA1098405999999MW1811REMMET078METAR ENSO 130920Z 20005KT 160V240 SHRA 9999 SCT015CB SCT030 03/01      Q0984=EQDD01      0ADE693
0131010014999992015011309504+59792+005341FM-15+004999999V0202601V005119999999N999999999+99999+99999999999ADDMA1098405999999MW1161REMMET079METAR ENSO 130950Z 26010KT 230V300 VCSH 9999 SCT018TCU SCT070 03/02      Q0984=EQDD01      0ADE693
0137010014999992015011310504+59792+005341FM-15+004999999V0202501V007219999999N999999999+99999+99999999999ADDMA1098405999999MW1815MW2885OC101391REMMET071METAR ENSO 131050Z 25014G27KT 210V270 SHRAGS 9999 SCT035CB 04/00 Q0984=EQDD01      0ADE735
0119010014999992015011311204+59792+005341FM-15+004999999V0202301V005119999999N999999999+99999+99999999999ADDMA1098405999999MW1811REMMET067METAR ENSO 131120Z 23010KT 160V260 SHRA 9999 SCT032CB 04/M00 Q0984=EQDD01      0ADE693
0189010014999992015011311504+59792+005341FM-15+004999999V0202401N00931009141CN009999199+00301+00001999999ADDGA1021+004881999GA2041+009141091GE19MSL   +99999+99999GF199999021999004881999999MA1098401999999MW1881OC101541REMMET068METAR ENSO 131150Z 24018G30KT 9999 SHGS FEW016 SCT030CB 03/00 Q0984=
0189010014999992015011312204+59792+005341FM-15+004999999V0202401N00771009141CN009999199+00401+00001999999ADDGA1021+004881999GA2041+009141091GE19MSL   +99999+99999GF199999021999004881999999MA1098401999999MW1161OC101341REMMET068METAR ENSO 131220Z 24015G26KT 9999 VCSH FEW016 SCT030CB 04/00 Q0984=
0156010014999992015011313504+59792+005341FM-15+004999999V0202201N004619999999N009999199+00401+00001999999ADDGA1041+009141081GE19MSL   +99999+99999GF199999041999009141999999MA1098501999999MW1161REMMET059METAR ENSO 131350Z 22009KT 9999 VCSH SCT030TCU 04/00 Q0985=
0157010014999992015011314204+59792+005341FM-15+004999999V0202501N006719999999N009999199+00501-00101999999ADDGA1041+010671081GE19MSL   +99999+99999GF199999041999010671999999MA1098501999999OC101181REMMET058METAR ENSO 131420Z 25013G23KT 9999 SCT035TCU 05/M01 Q0985=
0157010014999992015011314504+59792+005341FM-15+004999999V0202401N007219999999N009999199+00401-00201999999ADDGA1041+010671081GE19MSL   +99999+99999GF199999041999010671999999MA1098501999999OC101241REMMET058METAR ENSO 131450Z 24014G24KT 9999 SCT035TCU 04/M02 Q0985=
0169010014999992015011315204+59792+005341FM-15+004999999V0202201N00571018291CN009999199+00401-00101999999ADDGA1041+010671081GA2041+018291999GE19MSL   +99999+99999GF199999041999010671999999MA1098501999999REMMET062METAR ENSO 131520Z 22011KT 9999 SCT035TCU SCT060 04/M01 Q0985=
0179010014999992015011316504+59792+005341FM-15+004999999V0202201N00461012191CN009999199+00401+00001999999ADDGA1021+009141999GA2041+012191081GE19MSL   +99999+99999GF199999021999009141999999MA1098401999999OC100981REMMET064METAR ENSO 131650Z 22009G19KT 9999 FEW030 SCT040TCU 04/00 Q0984=
0203010014999992015011317204+59792+005341FM-15+004999999V0202201N00461012191CN009999199+00401-00101999999ADDGA1021+009141999GA2041+012191081GA3041+018291999GE19MSL   +99999+99999GF199999021999009141999999MA1098401999999OC101131REMMET072METAR ENSO 131720Z 22009G22KT 9999 FEW030 SCT040TCU SCT060 04/M01 Q0984=
0203010014999992015011317504+59792+005341FM-15+004999999V0202201N00771010671CN009999199+00401+00001999999ADDGA1021+007621999GA2041+010671081GA3041+018291999GE19MSL   +99999+99999GF199999021999007621999999MA1098401999999OC101291REMMET072METAR ENSO 131750Z 22015G25KT 9999 FEW025 SCT035TCU SCT060 04/M00 Q0984=
0143010014999992015011404504+59792+005341FM-15+004999999V0202301N005119999999N009999199+00401-00101999999ADDGA1041+011581999GE19MSL   +99999+99999GF199999041999011581999999MA1098301999999REMMET052METAR ENSO 140450Z 23010KT 9999 SCT038 04/M01 Q0983=
0142010014999992015011405204+59792+005341FM-15+004999999V0202201N005719999999N009999199+00401+00001999999ADDGA1041+008841999GE19MSL   +99999+99999GF199999041999008841999999MA1098301999999REMMET051METAR ENSO 140520Z 22011KT 9999 SCT029 04/00 Q0983=
0147010014999992015011405504+59792+005341FM-15+004999999V0202301N005719999999N009999199+99999+99999999999ADDMA1098305999999MW1845MW2885OC101131REMMET081METAR COR ENSO 140550Z 23011G22KT 9999 SHRAGSSN SCT012 SCT029CB 04/00      Q0983=EQDD01      0ADE735
0180010014999992015011406204+59792+005341FM-15+004999999V0202301N00511010361CN009999199+00401+00001999999ADDGA1041+005491999GA2041+010361081GE19MSL   +99999+99999GF199999041999005491999999MA1098301999999OC101031REMMET065METAR ENSO 140620Z 23010G20KT 9999 SCT018 SCT034TCU 04/M00 Q0983=
0169010014999992015011406504+59792+005341FM-15+004999999V0202201N00571019811CN009999199+00501-00101999999ADDGA1041+011581081GA2041+019811999GE19MSL   +99999+99999GF199999041999011581999999MA1098401999999REMMET062METAR ENSO 140650Z 22011KT 9999 SCT038TCU SCT065 05/M01 Q0984=
0146010014999992015011407204+59792+005341FM-15+004999999V0202201N006219999999N009999199+00501-00101999999ADDGA1041+010361081GE19MSL   +99999+99999GF199999041999010361999999MA1098401999999REMMET055METAR ENSO 140720Z 22012KT 9999 SCT034TCU 05/M01 Q0984=
0154010014999992015011407504+59792+005341FM-15+004999999V0202101V006219999999N009999199+00401-00101999999ADDGA1041+009141081GE19MSL   +99999+99999GF199999041999009141999999MA1098401999999REMMET063METAR ENSO 140750Z 21012KT 130V280 9999 SCT030TCU 04/M01 Q0984=
0193010014999992015011408204+59792+005341FM-15+004999999V0202101V00511015241CN009999199+00401+00001999999ADDGA1041+011581081GA2041+015241999GE19MSL   +99999+99999GF199999041999011581999999MA1098401999999OC101031REMMET078METAR ENSO 140820Z 21010G20KT 170V250 9999 SCT038TCU SCT050 04/M00      Q0984=
0180010014999992015011408504+59792+005341FM-15+004999999V0202301N00621015241CN009999199+00501+00001999999ADDGA1041+010671081GA2041+015241999GE19MSL   +99999+99999GF199999041999010671999999MA1098501999999OC101131REMMET065METAR ENSO 140850Z 23012G22KT 9999 SCT035TCU SCT050 05/M00 Q0985=
0191010014999992015011409504+59792+005341FM-15+004999999V0202401N00671007621CN009999199+00301+00101999999ADDGA1021+004571999GA2041+007621081GE19MSL   +99999+99999GF199999021999004571999999MA1098501999999MW1801OC101241REMMET070METAR ENSO 140950Z 24013G24KT 9999 -SHRA FEW015 SCT025TCU 03/01 Q0985=
0155010014999992015011410204+59792+005341FM-15+004999999V0202201N006219999999N009999199+00501+00101999999ADDGA1041+008531091GE19MSL   +99999+99999GF199999041999008531999999MA1098601999999OC101441REMMET056METAR ENSO 141020Z 22012G28KT 9999 SCT028CB 05/01 Q0986=
0180010014999992015011410504+59792+005341FM-15+004999999V0202301N00671010061CN009999199+00501+00001999999ADDGA1021+006711999GA2041+010061081GE19MSL   +99999+99999GF199999021999006711999999MA1098601999999OC101291REMMET065METAR ENSO 141050Z 23013G25KT 9999 FEW022 SCT033TCU 05/M00 Q0986=
0203010014999992015011411504+59792+005341FM-15+004999999V0202401N00821009141CN009999199+00501-00101999999ADDGA1021+006711999GA2041+009141081GA3041+018291999GE19MSL   +99999+99999GF199999021999006711999999MA1098601999999OC101441REMMET072METAR ENSO 141150Z 24016G28KT 9999 FEW022 SCT030TCU SCT060 05/M01 Q0986=
0219010014999992015011412504+59792+005341FM-15+004999999V0202401N00671008531CN009999199+00501+00001999999ADDGA1021+006101999GA2041+008531081GA3041+012191999GE19MSL   +99999+99999GF199999021999006101999999MA1098701999999MW1161OC101341REMMET082METAR ENSO 141250Z 24013G26KT 9999 VCSH FEW020 SCT028TCU SCT040 05/M00      Q0987=
0203010014999992015011413204+59792+005341FM-15+004999999V0202401N00721009141CN009999199+00501+00001999999ADDGA1021+006101999GA2041+009141081GA3041+015241999GE19MSL   +99999+99999GF199999021999006101999999MA1098701999999OC101341REMMET072METAR ENSO 141320Z 24014G26KT 9999 FEW020 SCT030TCU SCT050 05/M00 Q0987=
0179010014999992015011415204+59792+005341FM-15+004999999V0202301N00621015241CN009999199+00501-00101999999ADDGA1041+009141091GA2041+015241999GE19MSL   +99999+99999GF199999041999009141999999MA1098901999999OC101241REMMET064METAR ENSO 141520Z 23012G24KT 9999 SCT030CB SCT050 05/M01 Q0989=
0179010014999992015011416204+59792+005341FM-15+004999999V0202301N00621015241CN009999199+00501-00101999999ADDGA1041+009141091GA2041+015241999GE19MSL   +99999+99999GF199999041999009141999999MA1098901999999OC101291REMMET064METAR ENSO 141620Z 23012G25KT 9999 SCT030CB SCT050 05/M01 Q0989=
0179010014999992015011417204+59792+005341FM-15+004999999V0202101N00721015241CN009999199+00501-00101999999ADDGA1041+009141091GA2041+015241999GE19MSL   +99999+99999GF199999041999009141999999MA1099001999999OC101241REMMET064METAR ENSO 141720Z 21014G24KT 9999 SCT030CB SCT050 05/M01 Q0990=
0176010014999992015011504504+59792+005341FM-15+004999999V0201201N01181007011CN009999199+00401+00101999999ADDGA1021+002131999GA2041+007011999GE19MSL   +99999+99999GF199999021999002131999999MA1098001999999OC101701REMMET061METAR ENSO 150450Z 12023G33KT 9999 FEW007 SCT023 04/01 Q0980=
0199010014999992015011505204+59792+005341FM-15+004999999V0201301N01181005181CN009999199+00401+00101999999ADDGA1041+002131999GA2041+005181999GA3071+007321999GE19MSL   +99999+99999GF199999041999002131999999MA1097801999999OC101701REMMET068METAR ENSO 150520Z 13023G33KT 9999 SCT007 SCT017 BKN024 04/01 Q0978=
0176010014999992015011505504+59792+005341FM-15+004999999V0201301N011810070119N009999199+00401+00201999999ADDGA1041+002441999GA2071+007011999GE19MSL   +99999+99999GF199999041999002441999999MA1097701999999OC101751REMMET061METAR ENSO 150550Z 13023G34KT 9999 SCT008 BKN023 04/02 Q0977=
0164010014999992015011506204+59792+005341FM-15+004999999V0201301N010810061019N009999199+00401+00201999999ADDGA1071+006101999GE19MSL   +99999+99999GF199999071999006101999999MA1097601999999MW1811OC101801REMMET059METAR ENSO 150620Z 13021G35KT 9999 SHRA BKN020 04/02 Q0976=
0185010014999992015011506504+59792+005341FM-15+004999999V0201401N011310061019N009999199+00501+00201999999ADDGA1041+002441999GA2071+006101999GE19MSL   +99999+99999GF199999041999002441999999MA1097501999999MW1631OC101701REMMET064METAR ENSO 150650Z 14022G33KT 9999 RA SCT008 BKN020 05/02 Q0975=
0185010014999992015011507204+59792+005341FM-15+004999999V0201401N012410067119N009999199+00401+00301999999ADDGA1041+005181999GA2071+006711999GE19MSL   +99999+99999GF199999041999005181999999MA1097501999999MW1631OC101801REMMET064METAR ENSO 150720Z 14024G35KT 9999 RA SCT017 BKN022 04/03 Q0975=
0185010014999992015011507504+59792+005341FM-15+004999999V0201401N012910048819N009999199+00401+00201999999ADDGA1071+004881999GA2081+999999999GE19MSL   +99999+99999GF199999071999004881999999MA1097401999999MW1631OC102111REMMET064METAR ENSO 150750Z 14025G41KT 9999 RA BKN016 OVC02O 04/02 Q0974=
0185010014999992015011508204+59792+005341FM-15+004999999V0201501N012410045719N009000199+00401+00201999999ADDGA1071+004571999GA2081+999999999GE19MSL   +99999+99999GF199999071999004571999999MA1097401999999MW1631OC101851REMMET064METAR ENSO 150820Z 15024G36KT 9000 RA BKN015 OVC02O 04/02 Q0974=
0186010014999992015011509204+59792+005341FM-15+004999999V0201401N009810048819N009000199+00501+00301999999ADDGA1071+004881999GA2081+008841999GE19MSL   +99999+99999GF199999071999004881999999MA1097201999999MW1611OC101491REMMET065METAR ENSO 150920Z 14019G29KT 9000 -RA BKN016 OVC029 05/03 Q0972=
0208010014999992015011509504+59792+005341FM-15+004999999V0201501N011310067119N009000199+00501+00301999999ADDGA1041+004571999GA2071+006711999GA3081+008841999GE19MSL   +99999+99999GF199999041999004571999999MA1097201999999MW1631OC101801REMMET071METAR ENSO 150950Z 15022G35KT 9000 RA SCT015 BKN022 OVC029 05/03 Q0972=
0202010014999992015011511204+59792+005341FM-15+004999999V0201501N00981007321CN009999199+00601+00401999999ADDGA1021+004571999GA2041+007321081GA3071+008841999GE19MSL   +99999+99999GF199999021999004571999999MA1097301999999OC101601REMMET071METAR ENSO 151120Z 15019G31KT 9999 FEW015 SCT024TCU BKN029 06/04 Q0973=
0202010014999992015011511504+59792+005341FM-15+004999999V0201601N00771007011CN009999199+00601+00401999999ADDGA1021+004571999GA2041+007011081GA3071+017371999GE19MSL   +99999+99999GF199999021999004571999999MA1097301999999OC101291REMMET071METAR ENSO 151150Z 16015G25KT 9999 FEW015 SCT023TCU BKN057 06/04 Q0973=
0179010014999992015011512204+59792+005341FM-15+004999999V0201601N00671017371CN009999199+00601+00401999999ADDGA1041+009141081GA2041+017371999GE19MSL   +99999+99999GF199999041999009141999999MA1097301999999OC101181REMMET064METAR ENSO 151220Z 16013G23KT 9999 SCT030TCU SCT057 06/04 Q0973=
0202010014999992015011513204+59792+005341FM-15+004999999V0209999V99999009141CN009999199+00601+00301999999ADDGA1021+004271999GA2041+009141999GA3071+015241999GE19MSL   +99999+99999GF199999021999004271999999MA1097301999999REMMET079METAR ENSO 151320Z 165014KT 130V190 9999 FEW014 SCT030 BKN050 06/03      Q0973=
0156010014999992015011513504+59792+005341FM-15+004999999V0201601V007219999999N009999199+99999+99999999999ADDMA1097205999999MW1815MW2905OC101391REMMET090METAR ENSO 151350Z 16014G27KT 130V210 9999 SHGRRA FEW012 SCT018CB BKN025      06/04 Q0972=EQDD01      0ADE735
0225010014999992015011514204+59792+005341FM-15+004999999V0201701V00981005491CN009999199+00601+00201999999ADDGA1021+004571999GA2041+005491091GA3071+009751999GE19MSL   +99999+99999GF199999021999004571999999MA1097301999999MW1161OC101541REMMET088METAR ENSO 151420Z 17019G30KT 140V200 9999 VCSH FEW015 SCT018CB BKN032      06/02 Q0973=
0157010014999992015011515204+59792+005341FM-15+004999999V0201601V007219999999N009999199+99999+99999999999ADDMA1097205999999MW1805MW2875OC101491REMMET091METAR ENSO 151520Z 16014G29KT 130V190 9999 -SHRAGS FEW014 SCT020CB      BKN030 06/02 Q0972=EQDD01      0ADE735
0214010014999992015011515504+59792+005341FM-15+004999999V0201701V008210082319N009999199+00601+00201999999ADDGA1021+004881999GA2021+006101091GA3071+008231999GE19MSL   +99999+99999GF199999021999004881999999MA1097301999999OC101341REMMET083METAR ENSO 151550Z 17016G26KT 140V210 9999 FEW016 FEW020CB BKN027 06/02      Q0973=
0204010014999992015011516204+59792+005341FM-15+004999999V0201701V008810054919N008000199+00601+00201999999ADDGA1021+003661999GA2071+005491091GE19MSL   +99999+99999GF199999021999003661999999MA1097301999999MW1841OC101441REMMET083METAR ENSO 151620Z 17017G28KT 110V200 8000 SHSNRA FEW012 BKN018CB 06/02      Q0973=
0219010014999992015011517204+59792+005341FM-15+004999999V0201801V008210106719N009999199+00601+00101999999ADDGA1021+006101999GA2021+007621091GA3071+010671999GE19MSL   +99999+99999GF199999021999006101999999MA1097201999999OC101391REMMET088METAR ENSO 151720Z 18016G27KT 140V220 9999 FEW020 FEW025CB BKN035 06/01      Q0972 RETS=
0237010014999992015011518204+59792+005341FM-15+004999999V0201701V00821010671CN009999199+00601+00201999999ADDGA1021+006101999GA2021+008531091GA3041+010671999GA4071+019811999GE19MSL   +99999+99999GF199999021999006101999999MA1097201999999OC101491REMMET090METAR ENSO 151820Z 17016G29KT 140V210 9999 FEW020 FEW028CB SCT035 BKN065      06/02 Q0972=
0223010014999992015011518504+59792+005341FM-15+004999999V0201701V00881006711CN009999199+00601+00201999999ADDGA1021+005491999GA2041+006711091GA3071+012191999GE19MSL   +99999+99999GF199999021999005491999999MA1097201999999OC101491REMMET092METAR ENSO 151850Z 17017G29KT 140V210 9999 FEW018 SCT022CB BKN040 06/02      Q0972 RETSRAGR=
0179010014999992015011607504+59792+005341FM-15+004999999V0202101N00571006101CN009999199+00601+00401999999ADDGA1041+004271999GA2041+006101081GE19MSL   +99999+99999GF199999041999004271999999MA1097001999999OC101081REMMET064METAR ENSO 160750Z 21011G21KT 9999 SCT014 SCT020TCU 06/04 Q0970=
0189010014999992015011608504+59792+005341FM-15+004999999V0202201N00571005491CN009999199+00601+00501999999ADDGA1021+003661999GA2041+005491091GE19MSL   +99999+99999GF199999021999003661999999MA1097101999999MW1811OC101391REMMET068METAR ENSO 160850Z 22011G27KT 9999 SHRA FEW012 SCT018CB 06/05 Q0971=
0190010014999992015011609504+59792+005341FM-15+004999999V0202301N00881005491CN009999199+00601+00401999999ADDGA1021+003661999GA2041+005491091GE19MSL   +99999+99999GF199999021999003661999999MA1097301999999MW1801OC101441REMMET069METAR ENSO 160950Z 23017G28KT 9999 -SHRA FEW012 SCT018CB 06/04 Q0973=
0190010014999992015011610504+59792+005341FM-15+004999999V0202401N00981005491CN009999199+00601+00401999999ADDGA1021+002441999GA2041+005491091GE19MSL   +99999+99999GF199999021999002441999999MA1097501999999MW1801OC101601REMMET069METAR ENSO 161050Z 24019G31KT 9999 -SHRA FEW008 SCT018CB 06/04 Q0975=
0218010014999992015011611504+59792+005341FM-15+004999999V0202401N01081006101CN009999199+00601+00301999999ADDGA1021+003051999GA2041+006101081GA3071+009141999GE19MSL   +99999+99999GF199999021999003051999999MA1097701999999MW1161OC101851REMMET081METAR ENSO 161150Z 24021G36KT 9999 VCSH FEW010 SCT020TCU BKN030 06/03      Q0977=
0225010014999992015011613204+59792+005341FM-15+004999999V0202501N01241006101CN009999199+00501+00301999999ADDGA1041+002441999GA2041+006101091GA3071+008531999GE19MSL   +99999+99999GF199999041999002441999999MA1097901999999MW1801OC101961REMMET088METAR ENSO 161320Z 25024G38KT 9999 -SHRA SCT008 SCT020CB BKN028 05/03      Q0979 RESHRA=
0199010014999992015011613504+59792+005341FM-15+004999999V0202501N010310140219N009999199+00501+00301999999ADDGA1041+006711091GA2071+014021999GE19MSL   +99999+99999GF199999041999006711999999MA1098001999999MW1611OC101651REMMET078METAR ENSO 161350Z 25020G32KT 9999 2000S -RA SCT022CB BKN046 05/03      Q0980=
0218010014999992015011614204+59792+005341FM-15+004999999V0202301N01291008231CN009999199+00501+00201999999ADDGA1041+006401081GA2041+008231999GA3071+029871999GE19MSL   +99999+99999GF199999041999006401999999MA1098101999999MW1161OC102111REMMET081METAR ENSO 161420Z 23025G41KT 9999 VCSH SCT021TCU SCT027 BKN098 05/02      Q0981=
0218010014999992015011614504+59792+005341FM-15+004999999V0202401N01131008231CN009999199+00501+00101999999ADDGA1041+005491999GA2041+008231081GA3071+010971999GE19MSL   +99999+99999GF199999041999005491999999MA1098201999999MW1161OC102061REMMET081METAR ENSO 161450Z 24022G40KT 9999 VCSH SCT018 SCT027TCU BKN036 05/01      Q0982=
0166010014999992015011615204+59792+005341FM-15+004999999V0202301N009310088419N009999199+00501+00101999999ADDGA1071+008841091GE19MSL   +99999+99999GF199999071999008841999999MA1098201999999MW1161OC101701REMMET061METAR ENSO 161520Z 23018G33KT 9999 VCSH BKN029CB 05/01 Q0982=
0189010014999992015011616204+59792+005341FM-15+004999999V0202301N008210061019N009000199+00401+00201999999ADDGA1041+004571999GA2071+006101091GE19MSL   +99999+99999GF199999041999004571999999MA1098401999999MW1811OC101541REMMET068METAR ENSO 161620Z 23016G30KT 9000 SHRA SCT015 BKN020CB 04/02 Q0984=
0191010014999992015011616504+59792+005341FM-15+004999999V0202401N010310036619N008000199+00201+00101999999ADDGA1041+002441999GA2071+003661091GE19MSL   +99999+99999GF199999041999002441999999MA1098501999999MW1841OC101961REMMET070METAR ENSO 161650Z 24020G38KT 8000 SHRASN SCT008 BKN012CB 02/01 Q0985=
0190010014999992015011617204+59792+005341FM-15+004999999V0202301N00981007011CN009999199+00301+00101999999ADDGA1041+002441999GA2041+007011081GE19MSL   +99999+99999GF199999041999002441999999MA1098501999999MW1811OC102011REMMET069METAR ENSO 161720Z 23019G39KT 9999 SHRA SCT008 SCT023TCU 03/01 Q0985=
0168010014999992015011618204+59792+005341FM-15+004999999V0202401N010319999999N009999199+00401+00001999999ADDGA1041+009141081GE19MSL   +99999+99999GF199999041999009141999999MA1098601999999MW1801OC101851REMMET063METAR ENSO 161820Z 24020G36KT 9999 -SHRA SCT030TCU 04/00 Q0986=
0176010014999992015011619204+59792+005341FM-15+004999999V0202101V007219999999N009999199+00301+00101999999ADDGA1041+006101081GE19MSL   +99999+99999GF199999041999006101999999MA1098701999999MW1801OC101291REMMET071METAR ENSO 161920Z 21014G25KT 150V260 9999 -SHRA SCT020TCU 03/01 Q0987=
0174010014999992015011620204+59792+005341FM-15+004999999V0202201V008210042719N009999199+00201+00101999999ADDGA1071+004271091GE19MSL   +99999+99999GF199999071999004271999999MA1098701999999MW1811OC101701REMMET069METAR ENSO 162020Z 22016G33KT 180V250 9999 SHRA BKN014CB 02/01 Q0987=
0164010014999992015011620504+59792+005341FM-15+004999999V0202101V008219999999N009999199+00301+00101999999ADDGA1041+004271081GE19MSL   +99999+99999GF199999041999004271999999MA1098701999999OC101491REMMET065METAR ENSO 162050Z 21016G29KT 170V250 9999 SCT014TCU 03/01 Q0987=
0187010014999992015011621204+59792+005341FM-15+004999999V0202101V00721015241CN009999199+00401+00001999999ADDGA1041+008841081GA2041+015241999GE19MSL   +99999+99999GF199999041999008841999999MA1098801999999OC101491REMMET072METAR ENSO 162120Z 21014G29KT 140V250 9999 SCT029TCU SCT050 04/00 Q0988=
0176010014999992015011621504+59792+005341FM-15+004999999V0202101V006710051819N009000199+00301+00201999999ADDGA1071+005181081GE19MSL   +99999+99999GF199999071999005181999999MA1098801999999MW1801OC101341REMMET071METAR ENSO 162150Z 21013G26KT 170V260 9000 -SHRA BKN017TCU 03/02 Q0988=
0176010014999992015011622204+59792+005341FM-15+004999999V0202101V008819999999N009000199+00401+00201999999ADDGA1041+005491081GE19MSL   +99999+99999GF199999041999005491999999MA1098801999999MW1801OC101541REMMET071METAR ENSO 162220Z 21017G30KT 170V260 9000 -SHRA SCT018TCU 04/02 Q0988=
0142010014999992015011810504+59792+005341FM-15+004999999V0201301N003619999999N009999199+00301+00201999999ADDGA1041+009141999GE19MSL   +99999+99999GF199999041999009141999999MA1100801999999REMMET051METAR ENSO 181050Z 13007KT 9999 SCT030 03/02 Q1008=
0165010014999992015011811204+59792+005341FM-15+004999999V0201301N00311009141CN009999199+00301+00201999999ADDGA1021+004571999GA2041+009141999GE19MSL   +99999+99999GF199999021999004571999999MA1100801999999REMMET058METAR ENSO 181120Z 13006KT 9999 FEW015 SCT030 03/02 Q1008=
0165010014999992015011811504+59792+005341FM-15+004999999V0201101N00311016761CN009999199+00301+00201999999ADDGA1021+004571999GA2041+016761999GE19MSL   +99999+99999GF199999021999004571999999MA1100801999999REMMET058METAR ENSO 181150Z 11006KT 9999 FEW015 SCT055 03/02 Q1008=
0165010014999992015011812204+59792+005341FM-15+004999999V0201301N00311013111CN009999199+00301+00201999999ADDGA1021+004571999GA2041+013111999GE19MSL   +99999+99999GF199999021999004571999999MA1100801999999REMMET058METAR ENSO 181220Z 13006KT 9999 FEW015 SCT043 03/02 Q1008=
0165010014999992015011812504+59792+005341FM-15+004999999V0201201N00411009141CN009999199+00301+00201999999ADDGA1021+004571999GA2041+009141999GE19MSL   +99999+99999GF199999021999004571999999MA1100801999999REMMET058METAR ENSO 181250Z 12008KT 9999 FEW015 SCT030 03/02 Q1008=
0165010014999992015011813204+59792+005341FM-15+004999999V0201201N00361016151CN009999199+00301+00201999999ADDGA1021+004571999GA2041+016151999GE19MSL   +99999+99999GF199999021999004571999999MA1100801999999REMMET058METAR ENSO 181320Z 12007KT 9999 FEW015 SCT053 03/02 Q1008=
0165010014999992015011813504+59792+005341FM-15+004999999V0201201N00361030481CN009999199+00301+00201999999ADDGA1021+004571999GA2041+030481999GE19MSL   +99999+99999GF199999021999004571999999MA1100901999999REMMET058METAR ENSO 181350Z 12007KT 9999 FEW015 SCT100 03/02 Q1009=
0199010014999992015011814204+59792+005341FM-15+004999999V0201301N00311009141CN009999199+00301+00201999999ADDGA1041+007011999GA2041+009141999GA3071+026211999GE19MSL   +99999+99999GF199999041999007011999999MA1100901999999MW1161REMMET070METAR ENSO 181420Z 13006KT 9999 VCSH SCT023 SCT030 BKN086 03/02 Q1009=
0183010014999992015011815204+59792+005341FM-15+004999999V0201101N002110036619N009999199+00201+00101999999ADDGA1041+001831999GA2071+003661999GE19MSL   +99999+99999GF199999041999001831999999MA1101001999999MW1581REMMET070METAR ENSO 181520Z 11004KT 9999 2000E -RADZ SCT006 BKN012 02/01 Q1010=
0200010014999992015011815504+59792+005341FM-15+004999999V0200401N001010054919N009999199+00101+00101999999ADDGA1041+002741999GA2071+005491999GA3081+007011999GE19MSL   +99999+99999GF199999041999002741999999MA1101001999999MW1581REMMET071METAR ENSO 181550Z 04002KT 9999 -RADZ SCT009 BKN018 OVC023 01/01 Q1010=
0142010014999992015011817204+59792+005341FM-15+004999999V0201401N002119999999N009999199+00101+00101999999ADDGA1041+015241999GE19MSL   +99999+99999GF199999041999015241999999MA1101001999999REMMET051METAR ENSO 181720Z 14004KT 9999 SCT050 01/01 Q1010=
0073010014999992015011903504+59792+005341FM-15+004999999V0201001N002619999999Y999999999+00101-00101999999ADDMA1101301999999REMMET046METAR ENSO 190350Z 10005KT CAVOK 01/M01 Q1013=
0073010014999992015011904204+59792+005341FM-15+004999999V0201101N002619999999Y999999999+00101-00101999999ADDMA1101301999999REMMET046METAR ENSO 190420Z 11005KT CAVOK 01/M01 Q1013=
0073010014999992015011904504+59792+005341FM-15+004999999V0200901N003119999999Y999999999+00101-00101999999ADDMA1101301999999REMMET046METAR ENSO 190450Z 09006KT CAVOK 01/M01 Q1013=
0073010014999992015011905204+59792+005341FM-15+004999999V0209999V002119999999Y999999999+00001-00101999999ADDMA1101301999999REMMET046METAR ENSO 190520Z VRB04KT CAVOK 00/M01 Q1013=
0073010014999992015011905504+59792+005341FM-15+004999999V0200301N000519999999Y999999999+00001-00101999999ADDMA1101301999999REMMET046METAR ENSO 190550Z 03001KT CAVOK 00/M01 Q1013=
0074010014999992015011906204+59792+005341FM-15+004999999V0201101N001519999999Y999999999+00001-00201999999ADDMA1101301999999REMMET047METAR ENSO 190620Z 11003KT CAVOK M00/M02 Q1013=
0073010014999992015011906504+59792+005341FM-15+004999999V0201101N002619999999Y999999999+00001-00101999999ADDMA1101301999999REMMET046METAR ENSO 190650Z 11005KT CAVOK 00/M01 Q1013=
0073010014999992015011907204+59792+005341FM-15+004999999V0200901N003619999999Y999999999+00101-00101999999ADDMA1101301999999REMMET046METAR ENSO 190720Z 09007KT CAVOK 01/M01 Q1013=
0143010014999992015011907504+59792+005341FM-15+004999999V0200901N004119999999N009999199+00101-00101999999ADDGA1021+004571999GE19MSL   +99999+99999GF199999021999004571999999MA1101301999999REMMET052METAR ENSO 190750Z 09008KT 9999 FEW015 01/M01 Q1013=
0073010014999992015011908204+59792+005341FM-15+004999999V0201001N004619999999Y999999999+00101-00101999999ADDMA1101401999999REMMET046METAR ENSO 190820Z 10009KT CAVOK 01/M01 Q1014=
0073010014999992015011908504+59792+005341FM-15+004999999V0201101N004619999999Y999999999+00101-00101999999ADDMA1101401999999REMMET046METAR ENSO 190850Z 11009KT CAVOK 01/M01 Q1014=
0073010014999992015011909204+59792+005341FM-15+004999999V0201001N005119999999Y999999999+00101-00101999999ADDMA1101401999999REMMET046METAR ENSO 190920Z 10010KT CAVOK 01/M01 Q1014=
0073010014999992015011909504+59792+005341FM-15+004999999V0201001N004119999999Y999999999+00101-00101999999ADDMA1101401999999REMMET046METAR ENSO 190950Z 10008KT CAVOK 01/M01 Q1014=
0143010014999992015011910204+59792+005341FM-15+004999999V0201101N003619999999N009999199+00101-00101999999ADDGA1021+006101999GE19MSL   +99999+99999GF199999021999006101999999MA1101401999999REMMET052METAR ENSO 191020Z 11007KT 9999 FEW020 01/M01 Q1014=
0145010014999992015011910504+59792+005341FM-15+004999999V0201401N002119999999N009999199+00101-00201999999ADDGA1021+006101091GE19MSL   +99999+99999GF199999021999006101999999MA1101401999999REMMET054METAR ENSO 191050Z 14004KT 9999 FEW020CB 01/M02 Q1014=
0145010014999992015011911204+59792+005341FM-15+004999999V0201201N003119999999N009999199+00201-00201999999ADDGA1021+006101091GE19MSL   +99999+99999GF199999021999006101999999MA1101401999999REMMET054METAR ENSO 191120Z 12006KT 9999 FEW020CB 02/M02 Q1014=
0151010014999992015011912204+59792+005341FM-15+004999999V0201201V002119999999N009999199+00201-00201999999ADDGA1021+009141999GE19MSL   +99999+99999GF199999021999009141999999MA1101401999999REMMET060METAR ENSO 191220Z 12004KT 070V160 9999 FEW030 02/M02 Q1014=
0143010014999992015011912504+59792+005341FM-15+004999999V0201001N003619999999N009999199+00201-00201999999ADDGA1021+009141999GE19MSL   +99999+99999GF199999021999009141999999MA1101401999999REMMET052METAR ENSO 191250Z 10007KT 9999 FEW030 02/M02 Q1014=
0151010014999992015011913504+59792+005341FM-15+004999999V0201001V002619999999N009999199+00201-00301999999ADDGA1021+012191999GE19MSL   +99999+99999GF199999021999012191999999MA1101401999999REMMET060METAR ENSO 191350Z 10005KT 060V140 9999 FEW040 02/M03 Q1014=
0151010014999992015011914504+59792+005341FM-15+004999999V0201001V003119999999N009999199+00201-00301999999ADDGA1021+012191999GE19MSL   +99999+99999GF199999021999012191999999MA1101401999999REMMET060METAR ENSO 191450Z 10006KT 070V130 9999 FEW040 02/M03 Q1014=
0155010014999992015011915504+59792+005341FM-15+004999999V0201101V002119999999N009999199+00101-00301999999ADDGA1021+012191999GE19MSL   +99999+99999GF199999021999012191999999MA1101501999999REMMET064METAR COR ENSO 191550Z 11004KT 080V140 9999 FEW040 01/M03 Q1015=
0151010014999992015011916204+59792+005341FM-15+004999999V0201101V002619999999N009999199+00101-00301999999ADDGA1021+012191999GE19MSL   +99999+99999GF199999021999012191999999MA1101501999999REMMET060METAR ENSO 191620Z 11005KT 070V140 9999 FEW040 01/M03 Q1015=
0151010014999992015011916504+59792+005341FM-15+004999999V0201101V002119999999N009999199+00101-00301999999ADDGA1021+012191999GE19MSL   +99999+99999GF199999021999012191999999MA1101501999999REMMET060METAR ENSO 191650Z 11004KT 070V140 9999 FEW040 01/M03 Q1015=
0143010014999992015011917504+59792+005341FM-15+004999999V0201001N005119999999N009999199+00101-00401999999ADDGA1021+012191999GE19MSL   +99999+99999GF199999021999012191999999MA1101501999999REMMET052METAR ENSO 191750Z 10010KT 9999 FEW040 01/M04 Q1015=
0143010014999992015011918204+59792+005341FM-15+004999999V0201101N004119999999N009999199+00101-00401999999ADDGA1021+012191999GE19MSL   +99999+99999GF199999021999012191999999MA1101501999999REMMET052METAR ENSO 191820Z 11008KT 9999 FEW040 01/M04 Q1015=
0081010014999992015012004504+59792+005341FM-15+004999999V0201101V003619999999Y999999999+00101-00701999999ADDMA1101401999999REMMET054METAR ENSO 200450Z 11007KT 080V140 CAVOK 01/M07 Q1014=
0081010014999992015012005204+59792+005341FM-15+004999999V0201001V003619999999Y999999999+00101-00701999999ADDMA1101401999999REMMET054METAR ENSO 200520Z 10007KT 070V140 CAVOK 01/M07 Q1014=
0081010014999992015012005504+59792+005341FM-15+004999999V0201201V003119999999Y999999999+00101-00701999999ADDMA1101401999999REMMET054METAR ENSO 200550Z 12006KT 080V170 CAVOK 01/M07 Q1014=
0073010014999992015012006204+59792+005341FM-15+004999999V0209999V001519999999Y999999999+00101-00701999999ADDMA1101401999999REMMET046METAR ENSO 200620Z VRB03KT CAVOK 01/M07 Q1014=
0081010014999992015012006504+59792+005341FM-15+004999999V0201701V001519999999Y999999999+00101-00601999999ADDMA1101401999999REMMET054METAR ENSO 200650Z 17003KT 110V230 CAVOK 01/M06 Q1014=
0073010014999992015012007204+59792+005341FM-15+004999999V0201201N005119999999Y999999999+00101-00701999999ADDMA1101401999999REMMET046METAR ENSO 200720Z 12010KT CAVOK 01/M07 Q1014=
0073010014999992015012007504+59792+005341FM-15+004999999V0201001N004619999999Y999999999+00101-00701999999ADDMA1101401999999REMMET046METAR ENSO 200750Z 10009KT CAVOK 01/M07 Q1014=
0073010014999992015012008204+59792+005341FM-15+004999999V0201201N003119999999Y999999999+00101-00601999999ADDMA1101401999999REMMET046METAR ENSO 200820Z 12006KT CAVOK 01/M06 Q1014=
0073010014999992015012008504+59792+005341FM-15+004999999V0200901N003119999999Y999999999+00101-00701999999ADDMA1101401999999REMMET046METAR ENSO 200850Z 09006KT CAVOK 01/M07 Q1014=
0081010014999992015012009204+59792+005341FM-15+004999999V0201201V002119999999Y999999999+00101-00701999999ADDMA1101401999999REMMET054METAR ENSO 200920Z 12004KT 070V160 CAVOK 01/M07 Q1014=
0073010014999992015012009504+59792+005341FM-15+004999999V0201101N003619999999Y999999999+00201-00601999999ADDMA1101401999999REMMET046METAR ENSO 200950Z 11007KT CAVOK 02/M06 Q1014=
0174010014999992015012010204+59792+005341FM-15+004999999V0201101V00311021341CN009999199+00201-00601999999ADDGA1021+015241999GA2041+021341999GE19MSL   +99999+99999GF199999021999015241999999MA1101501999999REMMET067METAR ENSO 201020Z 11006KT 080V160 9999 FEW050 SCT070 02/M06 Q1015=
0174010014999992015012011204+59792+005341FM-15+004999999V0201101V00311021341CN009999199+00201-00601999999ADDGA1021+015241999GA2041+021341999GE19MSL   +99999+99999GF199999021999015241999999MA1101501999999REMMET067METAR ENSO 201120Z 11006KT 050V160 9999 FEW050 SCT070 02/M06 Q1015=
0166010014999992015012011504+59792+005341FM-15+004999999V0201001N00571021341CN009999199+00301-00601999999ADDGA1021+009141999GA2041+021341999GE19MSL   +99999+99999GF199999021999009141999999MA1101401999999REMMET059METAR ENSO 201150Z 10011KT 9999 FEW030 SCT070 03/M06 Q1014=
0143010014999992015012012204+59792+005341FM-15+004999999V0201101N005719999999N009999199+00201-00601999999ADDGA1041+018291999GE19MSL   +99999+99999GF199999041999018291999999MA1101401999999REMMET052METAR ENSO 201220Z 11011KT 9999 SCT060 02/M06 Q1014=
0166010014999992015012013204+59792+005341FM-15+004999999V0201201N00671021341CN009999199+00301-00601999999ADDGA1021+012191999GA2041+021341999GE19MSL   +99999+99999GF199999021999012191999999MA1101401999999REMMET059METAR ENSO 201320Z 12013KT 9999 FEW040 SCT070 03/M06 Q1014=
0166010014999992015012013504+59792+005341FM-15+004999999V0201201N00461021341CN009999199+00301-00601999999ADDGA1021+012191999GA2041+021341999GE19MSL   +99999+99999GF199999021999012191999999MA1101301999999REMMET059METAR ENSO 201350Z 12009KT 9999 FEW040 SCT070 03/M06 Q1013=
0166010014999992015012014204+59792+005341FM-15+004999999V0201101N00571021341CN009999199+00301-00501999999ADDGA1021+015241999GA2041+021341999GE19MSL   +99999+99999GF199999021999015241999999MA1101301999999REMMET059METAR ENSO 201420Z 11011KT 9999 FEW050 SCT070 03/M05 Q1013=
0166010014999992015012014504+59792+005341FM-15+004999999V0201101N00571021341CN009999199+00401-00501999999ADDGA1021+015241999GA2041+021341999GE19MSL   +99999+99999GF199999021999015241999999MA1101301999999REMMET059METAR ENSO 201450Z 11011KT 9999 FEW050 SCT070 04/M05 Q1013=
0166010014999992015012015204+59792+005341FM-15+004999999V0201101N00721018291CN009999199+00401-00501999999ADDGA1021+015241999GA2041+018291999GE19MSL   +99999+99999GF199999021999015241999999MA1101301999999REMMET059METAR ENSO 201520Z 11014KT 9999 FEW050 SCT060 04/M05 Q1013=
0166010014999992015012015504+59792+005341FM-15+004999999V0201201N00771030481CN009999199+00301-00601999999ADDGA1041+016761999GA2041+030481999GE19MSL   +99999+99999GF199999041999016761999999MA1101301999999REMMET059METAR ENSO 201550Z 12015KT 9999 SCT055 SCT100 03/M06 Q1013=
0166010014999992015012016204+59792+005341FM-15+004999999V0201201N00621027431CN009999199+00301-00601999999ADDGA1041+016761999GA2041+027431999GE19MSL   +99999+99999GF199999041999016761999999MA1101401999999REMMET059METAR ENSO 201620Z 12012KT 9999 SCT055 SCT090 03/M06 Q1014=
0166010014999992015012017504+59792+005341FM-15+004999999V0201101N00671027431CN009999199+00301-00601999999ADDGA1021+016761999GA2041+027431999GE19MSL   +99999+99999GF199999021999016761999999MA1101401999999REMMET059METAR ENSO 201750Z 11013KT 9999 FEW055 SCT090 03/M06 Q1014=
0166010014999992015012018204+59792+005341FM-15+004999999V0201201N00721027431CN009999199+00201-00601999999ADDGA1021+016761999GA2041+027431999GE19MSL   +99999+99999GF199999021999016761999999MA1101401999999REMMET059METAR ENSO 201820Z 12014KT 9999 FEW055 SCT090 02/M06 Q1014=
0143010014999992015012104504+59792+005341FM-15+004999999V0201101N008219999999N009999199+00301-00701999999ADDGA1021+015241999GE19MSL   +99999+99999GF199999021999015241999999MA1101401999999REMMET052METAR ENSO 210450Z 11016KT 9999 FEW050 03/M07 Q1014=
0081010014999992015012105204+59792+005341FM-15+004999999V0201101V007219999999Y999999999+00301-00701999999ADDMA1101401999999REMMET054METAR ENSO 210520Z 11014KT 080V140 CAVOK 03/M07 Q1014=
0073010014999992015012105504+59792+005341FM-15+004999999V0201101N007719999999Y999999999+00301-00701999999ADDMA1101501999999REMMET046METAR ENSO 210550Z 11015KT CAVOK 03/M07 Q1015=
0073010014999992015012106204+59792+005341FM-15+004999999V0201101N008219999999Y999999999+00301-00701999999ADDMA1101501999999REMMET046METAR ENSO 210620Z 11016KT CAVOK 03/M07 Q1015=
0073010014999992015012106504+59792+005341FM-15+004999999V0201101N007219999999Y999999999+00301-00701999999ADDMA1101501999999REMMET046METAR ENSO 210650Z 11014KT CAVOK 03/M07 Q1015=
0073010014999992015012107204+59792+005341FM-15+004999999V0201001N007719999999Y999999999+00301-00701999999ADDMA1101501999999REMMET046METAR ENSO 210720Z 10015KT CAVOK 03/M07 Q1015=
0073010014999992015012107504+59792+005341FM-15+004999999V0201001N006719999999Y999999999+00301-00701999999ADDMA1101601999999REMMET046METAR ENSO 210750Z 10013KT CAVOK 03/M07 Q1016=
0189010014999992015012108204+59792+005341FM-15+004999999V0201001N00571012191CN009999199+00301-00701999999ADDGA1021+007621999GA2041+012191999GA3071+024381999GE19MSL   +99999+99999GF199999021999007621999999MA1101601999999REMMET066METAR ENSO 210820Z 10011KT 9999 FEW025 SCT040 BKN080 03/M07 Q1016=
0189010014999992015012108504+59792+005341FM-15+004999999V0201001N00571018291CN009999199+00301-00701999999ADDGA1021+010671999GA2041+018291999GA3071+027431999GE19MSL   +99999+99999GF199999021999010671999999MA1101601999999REMMET066METAR ENSO 210850Z 10011KT 9999 FEW035 SCT060 BKN090 03/M07 Q1016=
0189010014999992015012109204+59792+005341FM-15+004999999V0201001N00571018291CN009999199+00301-00701999999ADDGA1021+009141999GA2041+018291999GA3071+027431999GE19MSL   +99999+99999GF199999021999009141999999MA1101601999999REMMET066METAR ENSO 210920Z 10011KT 9999 FEW030 SCT060 BKN090 03/M07 Q1016=
0189010014999992015012109504+59792+005341FM-15+004999999V0201001N00621018291CN009999199+00301-00701999999ADDGA1021+012191999GA2041+018291999GA3071+030481999GE19MSL   +99999+99999GF199999021999012191999999MA1101701999999REMMET066METAR ENSO 210950Z 10012KT 9999 FEW040 SCT060 BKN100 03/M07 Q1017=
0166010014999992015012110204+59792+005341FM-15+004999999V0201001N00571027431CN009999199+00301-00701999999ADDGA1021+015241999GA2041+027431999GE19MSL   +99999+99999GF199999021999015241999999MA1101701999999REMMET059METAR ENSO 211020Z 10011KT 9999 FEW050 SCT090 03/M07 Q1017=
0166010014999992015012110504+59792+005341FM-15+004999999V0201001N00511036581CN009999199+00301-00701999999ADDGA1021+015241999GA2041+036581999GE19MSL   +99999+99999GF199999021999015241999999MA1101701999999REMMET059METAR ENSO 211050Z 10010KT 9999 FEW050 SCT120 03/M07 Q1017=
0073010014999992015012111204+59792+005341FM-15+004999999V0201001N006719999999Y999999999+00301-00701999999ADDMA1101701999999REMMET046METAR ENSO 211120Z 10013KT CAVOK 03/M07 Q1017=
0166010014999992015012111504+59792+005341FM-15+004999999V0201101N00771021341CN009999199+00301-00701999999ADDGA1021+015241999GA2041+021341999GE19MSL   +99999+99999GF199999021999015241999999MA1101701999999REMMET059METAR ENSO 211150Z 11015KT 9999 FEW050 SCT070 03/M07 Q1017=
0166010014999992015012112204+59792+005341FM-15+004999999V0201101N00671021341CN009999199+00301-00701999999ADDGA1021+015241999GA2041+021341999GE19MSL   +99999+99999GF199999021999015241999999MA1101701999999REMMET059METAR ENSO 211220Z 11013KT 9999 FEW050 SCT070 03/M07 Q1017=
0166010014999992015012113204+59792+005341FM-15+004999999V0201001N00671018291CN009999199+00301-00801999999ADDGA1021+015241999GA2041+018291999GE19MSL   +99999+99999GF199999021999015241999999MA1101701999999REMMET059METAR ENSO 211320Z 10013KT 9999 FEW050 SCT060 03/M08 Q1017=
0166010014999992015012113504+59792+005341FM-15+004999999V0201101N00771018291CN009999199+00301-00801999999ADDGA1021+015241999GA2041+018291999GE19MSL   +99999+99999GF199999021999015241999999MA1101701999999REMMET059METAR ENSO 211350Z 11015KT 9999 FEW050 SCT060 03/M08 Q1017=
0174010014999992015012114204+59792+005341FM-15+004999999V0201101V00361021341CN009999199+00301-00801999999ADDGA1021+016761999GA2041+021341999GE19MSL   +99999+99999GF199999021999016761999999MA1101801999999REMMET067METAR ENSO 211420Z 11007KT 070V230 9999 FEW055 SCT070 03/M08 Q1018=
0166010014999992015012114504+59792+005341FM-15+004999999V0209999V00261024381CN009999199+00301-00801999999ADDGA1021+016761999GA2041+024381999GE19MSL   +99999+99999GF199999021999016761999999MA1101801999999REMMET059METAR ENSO 211450Z VRB05KT 9999 FEW055 SCT080 03/M08 Q1018=
0166010014999992015012115204+59792+005341FM-15+004999999V0209999V00211021341CN009999199+00201-00801999999ADDGA1021+015241999GA2041+021341999GE19MSL   +99999+99999GF199999021999015241999999MA1101801999999REMMET059METAR ENSO 211520Z VRB04KT 9999 FEW050 SCT070 02/M08 Q1018=
0166010014999992015012115504+59792+005341FM-15+004999999V0209999V00101024381CN009999199+00201-00801999999ADDGA1021+015241999GA2041+024381999GE19MSL   +99999+99999GF199999021999015241999999MA1101801999999REMMET059METAR ENSO 211550Z VRB02KT 9999 FEW050 SCT080 02/M08 Q1018=
0166010014999992015012116504+59792+005341FM-15+004999999V0209999V00151021341CN009999199+00201-00801999999ADDGA1021+015241999GA2041+021341999GE19MSL   +99999+99999GF199999021999015241999999MA1101901999999REMMET059METAR ENSO 211650Z VRB03KT 9999 FEW050 SCT070 02/M08 Q1019=
0166010014999992015012117204+59792+005341FM-15+004999999V0209999V00101022861CN009999199+00201-00701999999ADDGA1021+015241999GA2041+022861999GE19MSL   +99999+99999GF199999021999015241999999MA1101901999999REMMET059METAR ENSO 211720Z VRB02KT 9999 FEW050 SCT075 02/M07 Q1019=
0166010014999992015012117504+59792+005341FM-15+004999999V0209999V00101024381CN009999199+00101-00701999999ADDGA1021+015241999GA2041+024381999GE19MSL   +99999+99999GF199999021999015241999999MA1101901999999REMMET059METAR ENSO 211750Z VRB02KT 9999 FEW050 SCT080 01/M07 Q1019=
0074010014999992015012204504+59792+005341FM-15+004999999V0201101N002619999999Y999999999-00101-00701999999ADDMA1102201999999REMMET047METAR ENSO 220450Z 11005KT CAVOK M01/M07 Q1022=
0074010014999992015012205204+59792+005341FM-15+004999999V0201001N002619999999Y999999999-00101-00701999999ADDMA1102201999999REMMET047METAR ENSO 220520Z 10005KT CAVOK M01/M07 Q1022=
0074010014999992015012205504+59792+005341FM-15+004999999V0201101N003619999999Y999999999-00101-00701999999ADDMA1102201999999REMMET047METAR ENSO 220550Z 11007KT CAVOK M01/M07 Q1022=
0074010014999992015012206204+59792+005341FM-15+004999999V0201101N003119999999Y999999999-00101-00701999999ADDMA1102201999999REMMET047METAR ENSO 220620Z 11006KT CAVOK M01/M07 Q1022=
0082010014999992015012206504+59792+005341FM-15+004999999V0201001V002119999999Y999999999-00101-00701999999ADDMA1102201999999REMMET055METAR ENSO 220650Z 10004KT 060V120 CAVOK M01/M07 Q1022=
0082010014999992015012207204+59792+005341FM-15+004999999V0201001V002119999999Y999999999-00101-00701999999ADDMA1102201999999REMMET055METAR ENSO 220720Z 10004KT 040V170 CAVOK M01/M07 Q1022=
0082010014999992015012207504+59792+005341FM-15+004999999V0201001V003119999999Y999999999-00101-00701999999ADDMA1102301999999REMMET055METAR ENSO 220750Z 10006KT 070V130 CAVOK M01/M07 Q1023=
0082010014999992015012208204+59792+005341FM-15+004999999V0201001V002619999999Y999999999-00101-00701999999ADDMA1102301999999REMMET055METAR ENSO 220820Z 10005KT 050V130 CAVOK M01/M07 Q1023=
0074010014999992015012208504+59792+005341FM-15+004999999V0201001N002119999999Y999999999-00101-00701999999ADDMA1102301999999REMMET047METAR ENSO 220850Z 10004KT CAVOK M01/M07 Q1023=
0082010014999992015012209204+59792+005341FM-15+004999999V0201001V001519999999Y999999999+00001-00701999999ADDMA1102301999999REMMET055METAR ENSO 220920Z 10003KT 060V150 CAVOK M00/M07 Q1023=
0081010014999992015012209504+59792+005341FM-15+004999999V0201401V001519999999Y999999999+00001-00701999999ADDMA1102301999999REMMET054METAR ENSO 220950Z 14003KT 050V210 CAVOK 00/M07 Q1023=
0081010014999992015012210204+59792+005341FM-15+004999999V0201501V002119999999Y999999999+00101-00701999999ADDMA1102301999999REMMET054METAR ENSO 221020Z 15004KT 100V200 CAVOK 01/M07 Q1023=
0073010014999992015012210504+59792+005341FM-15+004999999V0201301N003619999999Y999999999+00101-00701999999ADDMA1102301999999REMMET046METAR ENSO 221050Z 13007KT CAVOK 01/M07 Q1023=
0073010014999992015012211204+59792+005341FM-15+004999999V0201201N003619999999Y999999999+00101-00601999999ADDMA1102301999999REMMET046METAR ENSO 221120Z 12007KT CAVOK 01/M06 Q1023=
0073010014999992015012211504+59792+005341FM-15+004999999V0201201N003619999999Y999999999+00101-00701999999ADDMA1102301999999REMMET046METAR ENSO 221150Z 12007KT CAVOK 01/M07 Q1023=
0073010014999992015012212204+59792+005341FM-15+004999999V0201001N004119999999Y999999999+00101-00701999999ADDMA1102301999999REMMET046METAR ENSO 221220Z 10008KT CAVOK 01/M07 Q1023=
0073010014999992015012212504+59792+005341FM-15+004999999V0201201N003619999999Y999999999+00101-00701999999ADDMA1102301999999REMMET046METAR ENSO 221250Z 12007KT CAVOK 01/M07 Q1023=
0073010014999992015012213204+59792+005341FM-15+004999999V0201201N003119999999Y999999999+00101-00801999999ADDMA1102301999999REMMET046METAR ENSO 221320Z 12006KT CAVOK 01/M08 Q1023=
0073010014999992015012214204+59792+005341FM-15+004999999V0201301N004119999999Y999999999+00101-00801999999ADDMA1102301999999REMMET046METAR ENSO 221420Z 13008KT CAVOK 01/M08 Q1023=
0073010014999992015012215204+59792+005341FM-15+004999999V0201201N003119999999Y999999999+00001-00801999999ADDMA1102301999999REMMET046METAR ENSO 221520Z 12006KT CAVOK 00/M08 Q1023=
0074010014999992015012215504+59792+005341FM-15+004999999V0201201N002619999999Y999999999-00101-00801999999ADDMA1102301999999REMMET047METAR ENSO 221550Z 12005KT CAVOK M01/M08 Q1023=
0074010014999992015012216204+59792+005341FM-15+004999999V0201201N002619999999Y999999999-00101-00801999999ADDMA1102301999999REMMET047METAR ENSO 221620Z 12005KT CAVOK M01/M08 Q1023=
0074010014999992015012216504+59792+005341FM-15+004999999V0201201N003619999999Y999999999-00101-00801999999ADDMA1102301999999REMMET047METAR ENSO 221650Z 12007KT CAVOK M01/M08 Q1023=
0074010014999992015012217204+59792+005341FM-15+004999999V0201101N003119999999Y999999999-00101-00801999999ADDMA1102301999999REMMET047METAR ENSO 221720Z 11006KT CAVOK M01/M08 Q1023=
0074010014999992015012217504+59792+005341FM-15+004999999V0201101N003619999999Y999999999-00101-00701999999ADDMA1102301999999REMMET047METAR ENSO 221750Z 11007KT CAVOK M01/M07 Q1023=
0074010014999992015012218204+59792+005341FM-15+004999999V0201101N004119999999Y999999999-00101-00701999999ADDMA1102301999999REMMET047METAR ENSO 221820Z 11008KT CAVOK M01/M07 Q1023=
0167010014999992015012307204+59792+005341FM-15+004999999V0201601N007210015219N006000199+00101+00001999999ADDGA1071+001521999GE19MSL   +99999+99999GF199999071999001521999999MA1101701999999MW1831OC101291REMMET062METAR ENSO 230720Z 16014G25KT 6000 -SHSNRA BKN005 01/00 Q1017=
0184010014999992015012307504+59792+005341FM-15+004999999V0201501V007210021319N009999199+00101+00101999999ADDGA1041+001521999GA2071+002131999GE19MSL   +99999+99999GF199999041999001521999999MA1101601999999OC101241REMMET069METAR ENSO 230750Z 15014G24KT 120V200 9999 SCT005 BKN007 01/01 Q1016=
0173010014999992015012308204+59792+005341FM-15+004999999V0201601V007210027419N009999199+00201+00101999999ADDGA1041+001831999GA2071+002741999GE19MSL   +99999+99999GF199999041999001831999999MA1101601999999REMMET066METAR ENSO 230820Z 16014KT 120V200 9999 SCT006 BKN009 02/01 Q1016=
0173010014999992015012308504+59792+005341FM-15+004999999V0201601V007210027419N009999199+00201+00101999999ADDGA1041+001831999GA2071+002741999GE19MSL   +99999+99999GF199999041999001831999999MA1101601999999REMMET066METAR ENSO 230850Z 16014KT 120V200 9999 SCT006 BKN009 02/01 Q1016=
0192010014999992015012309204+59792+005341FM-15+004999999V0201501V007710024419N009999199+00201+00101999999ADDGA1041+001521999GA2071+002441999GE19MSL   +99999+99999GF199999041999001521999999MA1101501999999MW1831REMMET079METAR ENSO 230920Z 15015KT 120V190 9999 -SHRASN SCT005 BKN008 02/01      Q1015=
0150010014999992015012309504+59792+005341FM-15+004999999V0201701V006710021319N009999199+00201+00201999999ADDGA1071+002131999GE19MSL   +99999+99999GF199999071999002131999999MA1101501999999REMMET059METAR ENSO 230950Z 17013KT 140V200 9999 BKN007 02/02 Q1015=
0173010014999992015012310204+59792+005341FM-15+004999999V0201601V008210024419N009999199+00201+00201999999ADDGA1071+002441999GE19MSL   +99999+99999GF199999071999002441999999MA1101501999999MW1801OC101441REMMET068METAR ENSO 231020Z 16016G28KT 130V200 9999 -SHRA BKN008 02/02 Q1015=
0137010014999992015012310504+59792+005341FM-15+004999999V0201701V007719999999N009999199+99999+99999999999ADDMA1101405999999MW1615MW2805REMMET079METAR ENSO 231050Z 17015KT 140V210 9999 -SHRASG SCT007 BKN012 03/02      Q1014=EQDD01      0ADE735
0188010014999992015012311204+59792+005341FM-15+004999999V0201601N007710045719N009999199+00301+00201999999ADDGA1041+003051999GA2071+004571999GE19MSL   +99999+99999GF199999041999003051999999MA1101401999999MW1801OC101441REMMET067METAR ENSO 231120Z 16015G28KT 9999 -SHRA SCT010 BKN015 03/02 Q1014=
0165010014999992015012311504+59792+005341FM-15+004999999V0201601N008810067119N009999199+00401+00101999999ADDGA1041+004571999GA2071+006711999GE19MSL   +99999+99999GF199999041999004571999999MA1101301999999REMMET058METAR ENSO 231150Z 16017KT 9999 SCT015 BKN022 04/01 Q1013=
0176010014999992015012312204+59792+005341FM-15+004999999V0201601N008810061019N009999199+00401+00101999999ADDGA1041+004571999GA2071+006101999GE19MSL   +99999+99999GF199999041999004571999999MA1101301999999OC101391REMMET061METAR ENSO 231220Z 16017G27KT 9999 SCT015 BKN020 04/01 Q1013=
0216010014999992015012313204+59792+005341FM-15+004999999V0201601N00771003661CN009999199+00301+00201999999ADDGA1021+002441999GA2041+003661999GA3071+006101999GE19MSL   +99999+99999GF199999021999002441999999MA1101201999999MW1801OC101291REMMET079METAR ENSO 231320Z 16015G25KT 9999 -SHRA FEW008 SCT012 BKN020 03/02      Q1012=
0199010014999992015012313504+59792+005341FM-15+004999999V0201601N00931003661CN009999199+00301+00201999999ADDGA1021+002441999GA2041+003661999GA3071+006711999GE19MSL   +99999+99999GF199999021999002441999999MA1101101999999MW1161REMMET070METAR ENSO 231350Z 16018KT 9999 VCSH FEW008 SCT012 BKN022 03/02 Q1011=
0215010014999992015012314504+59792+005341FM-15+004999999V0201601N00931006101CN009999199+00401+00201999999ADDGA1021+002441999GA2041+006101999GA3071+015241999GE19MSL   +99999+99999GF199999021999002441999999MA1101001999999MW1161OC101441REMMET078METAR ENSO 231450Z 16018G28KT 9999 VCSH FEW008 SCT020 BKN050 04/02      Q1010=
0199010014999992015012315204+59792+005341FM-15+004999999V0201601N00931006101CN009999199+00401+00201999999ADDGA1021+002441999GA2041+006101999GA3071+013721999GE19MSL   +99999+99999GF199999021999002441999999MA1101001999999OC101441REMMET068METAR ENSO 231520Z 16018G28KT 9999 FEW008 SCT020 BKN045 04/02 Q1010=
0199010014999992015012315504+59792+005341FM-15+004999999V0201601N00931007321CN009999199+00401+00101999999ADDGA1021+003051999GA2041+007321999GA3071+013721999GE19MSL   +99999+99999GF199999021999003051999999MA1100901999999OC101441REMMET068METAR ENSO 231550Z 16018G28KT 9999 FEW010 SCT024 BKN045 04/01 Q1009=
0199010014999992015012316204+59792+005341FM-15+004999999V0201601N00771006101CN009999199+00401+00101999999ADDGA1021+003051999GA2041+006101999GA3071+013721999GE19MSL   +99999+99999GF199999021999003051999999MA1100901999999OC101541REMMET068METAR ENSO 231620Z 16015G30KT 9999 FEW010 SCT020 BKN045 04/01 Q1009=
0185010014999992015012317204+59792+005341FM-15+004999999V0201601N009810045719N009999199+00301+00201999999ADDGA1041+003051999GA2071+004571999GE19MSL   +99999+99999GF199999041999003051999999MA1100701999999MW1631OC101541REMMET064METAR ENSO 231720Z 16019G30KT 9999 RA SCT010 BKN015 03/02 Q1007=
0185010014999992015012317504+59792+005341FM-15+004999999V0201601N009310036619N006000199+00301+00201999999ADDGA1041+002441999GA2071+003661999GE19MSL   +99999+99999GF199999041999002441999999MA1100701999999MW1631OC101491REMMET064METAR ENSO 231750Z 16018G29KT 6000 RA SCT008 BKN012 03/02 Q1007=
0187010014999992015012318204+59792+005341FM-15+004999999V0201601N008810030519N006000199+00301+00201999999ADDGA1021+001521999GA2071+003051999GE19MSL   +99999+99999GF199999021999001521999999MA1100701999999MW1591OC101391REMMET066METAR ENSO 231820Z 16017G27KT 6000 RADZ FEW005 BKN010 03/02 Q1007=
0187010014999992015012318504+59792+005341FM-15+004999999V0201601N009310030519N009000199+00201+00101999999ADDGA1041+001831999GA2071+003051999GE19MSL   +99999+99999GF199999041999001831999999MA1100601999999MW1691OC101601REMMET066METAR ENSO 231850Z 16018G31KT 9000 RASN SCT006 BKN010 02/01 Q1006=
0187010014999992015012319204+59792+005341FM-15+004999999V0201601N009310027419N009000199+00201+00101999999ADDGA1041+001831999GA2071+002741999GE19MSL   +99999+99999GF199999041999001831999999MA1100601999999MW1691OC101491REMMET066METAR ENSO 231920Z 16018G29KT 9000 RASN SCT006 BKN009 02/01 Q1006=
0188010014999992015012319504+59792+005341FM-15+004999999V0201501N009810027419N009999199+00201+00201999999ADDGA1041+001831999GA2071+002741999GE19MSL   +99999+99999GF199999041999001831999999MA1100501999999MW1681OC101491REMMET067METAR ENSO 231950Z 15019G29KT 9999 -RASN SCT006 BKN009 02/02 Q1005=
0185010014999992015012320504+59792+005341FM-15+004999999V0201601N010310027419N009999199+00201+00201999999ADDGA1041+001831999GA2071+002741999GE19MSL   +99999+99999GF199999041999001831999999MA1100401999999MW1631OC101541REMMET064METAR ENSO 232050Z 16020G30KT 9999 RA SCT006 BKN009 02/02 Q1004=
0188010014999992015012321504+59792+005341FM-15+004999999V0201701N009810027419N009000199+00201+00201999999ADDGA1021+001831999GA2071+002741999GE19MSL   +99999+99999GF199999021999001831999999MA1100301999999MW1581OC101491REMMET067METAR ENSO 232150Z 17019G29KT 9000 -RADZ FEW006 BKN009 02/02 Q1003=
0177010014999992015012511504+59792+005341FM-15+004999999V0201501N008810057919N009999199+00301+00201999999ADDGA1041+002441999GA2071+005791999GE19MSL   +99999+99999GF199999041999002441999999MA1101701999999MW1581REMMET064METAR ENSO 251150Z 15017KT 9999 -RADZ SCT008 BKN019 03/02 Q1017=
0177010014999992015012512204+59792+005341FM-15+004999999V0201601N006710054919N009999199+00301+00201999999ADDGA1041+002741999GA2071+005491999GE19MSL   +99999+99999GF199999041999002741999999MA1101701999999MW1581REMMET064METAR ENSO 251220Z 16013KT 9999 -RADZ SCT009 BKN018 03/02 Q1017=
