0094010060999992015010103004+78250+022817FM-12+001499999V0200801N002019999999N999999999-00231-00251098751ADDMA1999999098601REMSYN04801006 46/// /0802 11023 21025 39860 49875 54002=EQDQ014     3APCTEN
0113010060999992015010106004+78250+022817FM-12+001499999V0201101N002019999999N999999999-00191-00211098681ADDMA1999999098531MD1710071+9999OD139900501999REMSYN05801006 46/// /1102 11019 21021 39853 49868 57007 333 91105=
0089010060999992015010109004+78250+022817FM-12+001499999V0201301N002019999999N999999999-00191-00201098651ADDMA1999999098501MD1710031+9999REMSYN04801006 46/// /1302 11019 21020 39850 49865 57003=
0113010060999992015010112004+78250+022817FM-12+001499999V0201101N003019999999N999999999-00251-00291098591ADDMA1999999098431MD1710061+9999OD139900701999REMSYN05801006 46/// /1103 11025 21029 39843 49859 57006 333 91107=
0089010060999992015010115004+78250+022817FM-12+001499999V0200401N003019999999N999999999-00281-00301098431ADDMA1999999098281MD1710161+9999REMSYN04801006 46/// /0403 11028 21030 39828 49843 57016=
0132010060999992015010118004+78250+022817FM-12+001499999V0203301N002019999999N999999999-00291-00311098301ADDKA1120M-00141MA1999999098151MD1710131+9999OD139900601999REMSYN06401006 46/// /3302 11029 21031 39815 49830 57013 333 11014 91106=
0108010060999992015010121004+78250+022817FM-12+001499999V0202101N002019999999N999999999-00291-00311098321ADDMA1999999098171MD1290029+9999REMSYN04801006 46/// /2102 11029 21031 39817 49832 54002=EQDQ01.2    3APC3  
0113010060999992015010200004+78250+022817FM-12+001499999V0201501N002019999999N999999999-00551-00671098261ADDMA1999999098111MD1710061+9999OD139900401999REMSYN05801006 46/// /1502 11055 21067 39811 49826 57006 333 91104=
0089010060999992015010203004+78250+022817FM-12+001499999V0201101N001019999999N999999999-00501-00541098221ADDMA1999999098061MD1710041+9999REMSYN04801006 46/// /1101 11050 21054 39806 49822 57004=
0132010060999992015010206004+78250+022817FM-12+001499999V0201301N002019999999N999999999-00591-00641098131ADDKA1240N-00761MA1999999097971MD1710091+9999OD139900401999REMSYN06401006 46/// /1302 11059 21064 39797 49813 57009 333 21076 91104=
0089010060999992015010209004+78250+022817FM-12+001499999V0203501N002019999999N999999999-00371-00411098031ADDMA1999999097881MD1710101+9999REMSYN04801006 46/// /3502 11037 21041 39788 49803 57010=
0132010060999992015010212004+78250+022817FM-12+001499999V0201301N006019999999N999999999-00201-00221098021ADDMA1999999097861MD1790019+9999OD139900601999REMSYN05801006 46/// /1306 11020 21022 39786 49802 54001 333 91106=EQDQ01.1    3APC3  
0089010060999992015010215004+78250+022817FM-12+001499999V0201201N008019999999N999999999-00141-00161098031ADDMA1999999097881MD1510011+9999REMSYN04801006 46/// /1208 11014 21016 39788 49803 55001=
0132010060999992015010218004+78250+022817FM-12+001499999V0201301N006019999999N999999999-00041-00051098031ADDKA1120M-00041MA1999999097881MD1990001+9999OD139901101999REMSYN06401006 46/// /1306 11004 21005 39788 49803 50000 333 11004 91111=
0089010060999992015010221004+78250+022817FM-12+001499999V0201501N010019999999N999999999+00041+00031098211ADDMA1999999098061MD1210181+9999REMSYN04801006 46/// /1510 10004 20003 39806 49821 52018=
0113010060999992015010300004+78250+022817FM-12+001499999V0201601N013019999999N999999999+00071+00001098491ADDMA1999999098331MD1210271+9999OD139901401999REMSYN05801006 46/// /1613 10007 21000 39833 49849 52027 333 91114=
0089010060999992015010303004+78250+022817FM-12+001499999V0201501N012019999999N999999999-00091-00151098911ADDMA1999999098751MD1210421+9999REMSYN04801006 46/// /1512 11009 21015 39875 49891 52042=
0132010060999992015010306004+78250+022817FM-12+001499999V0201601N014019999999N999999999-00121-00291099221ADDKA1240N-00141MA1999999099071MD1110311+9999OD139901901999REMSYN06401006 46/// /1614 11012 21029 39907 49922 51031 333 21014 91119=
0089010060999992015010309004+78250+022817FM-12+001499999V0201401N010019999999N999999999-00211-00311099591ADDMA1999999099441MD1210371+9999REMSYN04801006 46/// /1410 11021 21031 39944 49959 52037=
0113010060999992015010312004+78250+022817FM-12+001499999V0201301N007019999999N999999999-00341-00481099891ADDMA1999999099741MD1310301+9999OD139901601999REMSYN05801006 46/// /1307 11034 21048 39974 49989 53030 333 91116=
0089010060999992015010315004+78250+022817FM-12+001499999V0201401N003019999999N999999999-00471-00591100191ADDMA1999999100031MD1210291+9999REMSYN04801006 46/// /1403 11047 21059 30003 40019 52029=
0132010060999992015010318004+78250+022817FM-12+001499999V0201501N003019999999N999999999-00511-00671100421ADDKA1120M-00121MA1999999100261MD1210231+9999OD139900701999REMSYN06401006 46/// /1503 11051 21067 30026 40042 52023 333 11012 91107=
0089010060999992015010321004+78250+022817FM-12+001499999V0201401N004019999999N999999999-00491-00681100651ADDMA1999999100491MD1210231+9999REMSYN04801006 46/// /1404 11049 21068 30049 40065 52023=
0113010060999992015010400004+78250+022817FM-12+001499999V0201401N006019999999N999999999-00511-00671100841ADDMA1999999100681MD1210191+9999OD139900601999REMSYN05801006 46/// /1406 11051 21067 30068 40084 52019 333 91106=
0089010060999992015010403004+78250+022817FM-12+001499999V0201301N006019999999N999999999-00591-00751101011ADDMA1999999100851MD1210161+9999REMSYN04801006 46/// /1306 11059 21075 30085 40101 52016=
0132010060999992015010406004+78250+022817FM-12+001499999V0201201N005019999999N999999999-00901-01011101171ADDKA1240N-01011MA1999999101011MD1210161+9999OD139900801999REMSYN06401006 46/// /1205 11090 21101 30101 40117 52016 333 21101 91108=
0089010060999992015010409004+78250+022817FM-12+001499999V0200201N001019999999N999999999-01181-01251101401ADDMA1999999101231MD1210221+9999REMSYN04801006 46/// /0201 11118 21125 30123 40140 52022=
0113010060999992015010412004+78250+022817FM-12+001499999V0201201N001019999999N999999999-01561-01701101541ADDMA1999999101371MD1210141+9999OD139900701999REMSYN05801006 46/// /1201 11156 21170 30137 40154 52014 333 91107=
0089010060999992015010415004+78250+022817FM-12+001499999V0209999C999999999999N999999999-01021-01101101681ADDMA1999999101511MD1210141+9999REMSYN04801006 46/// /0000 11102 21110 30151 40168 52014=
0132010060999992015010418004+78250+022817FM-12+001499999V0201801N002019999999N999999999-00641-00711101751ADDKA1120M-00641MA1999999101591MD1210081+9999OD139900401999REMSYN06401006 46/// /1802 11064 21071 30159 40175 52008 333 11064 91104=
0089010060999992015010421004+78250+022817FM-12+001499999V0201901N006019999999N999999999-00541-00871101801ADDMA1999999101641MD1210051+9999REMSYN04801006 46/// /1906 11054 21087 30164 40180 52005=
0113010060999992015010500004+78250+022817FM-12+001499999V0202101N003019999999N999999999-00471-01001101881ADDMA1999999101721MD1310081+9999OD139900701999REMSYN05801006 46/// /2103 11047 21100 30172 40188 53008 333 91107=
0089010060999992015010503004+78250+022817FM-12+001499999V0202301N006019999999N999999999-00931-01271101921ADDMA1999999101761MD1210041+9999REMSYN04801006 46/// /2306 11093 21127 30176 40192 52004=
0108010060999992015010506004+78250+022817FM-12+001499999V0202501N005019999999N999999999-00771-00951101901ADDMA1999999101731MD1790029+9999REMSYN04801006 46/// /2505 11077 21095 30173 40190 54002=EQDQ01.2    3APC3  
0089010060999992015010509004+78250+022817FM-12+001499999V0202601N006019999999N999999999-00751-00881101981ADDMA1999999101821MD1210081+9999REMSYN04801006 46/// /2606 11075 21088 30182 40198 52008=
0132010060999992015010512004+78250+022817FM-12+001499999V0202401N007019999999N999999999-00691-00901101991ADDMA1999999101831MD1290019+9999OD139900801999REMSYN05801006 46/// /2407 11069 21090 30183 40199 54001 333 91108=EQDQ01.1    3APC3  
0089010060999992015010515004+78250+022817FM-12+001499999V0202401N001019999999N999999999-00711-00951102061ADDMA1999999101891MD1310071+9999REMSYN04801006 46/// /2401 11071 21095 30189 40206 53007=
0132010060999992015010518004+78250+022817FM-12+001499999V0209999C999999999999N999999999-00721-00881102051ADDKA1120M-00571MA1999999101891MD1410001+9999OD139900701999REMSYN06401006 46/// /0000 11072 21088 30189 40205 54000 333 11057 91107=
0089010060999992015010521004+78250+022817FM-12+001499999V0201501N001019999999N999999999-00771-00871101961ADDMA1999999101801MD1710091+9999REMSYN04801006 46/// /1501 11077 21087 30180 40196 57009=
0113010060999992015010600004+78250+022817FM-12+001499999V0202201N004019999999N999999999-00811-01061101841ADDMA1999999101681MD1710121+9999OD139900501999REMSYN05801006 46/// /2204 11081 21106 30168 40184 57012 333 91105=
0089010060999992015010601004+78250+022817FM-12+001499999V0201501N002019999999N999999999-01071-01431101791ADDMA1999999101621MD1610141+9999REMSYN04801006 46/// /1502 11107 21143 30162 40179 56014=
0089010060999992015010602004+78250+022817FM-12+001499999V0201801N001019999999N999999999-01061-01281101741ADDMA1999999101571MD1710171+9999REMSYN04801006 46/// /1801 11106 21128 30157 40174 57017=
0089010060999992015010603004+78250+022817FM-12+001499999V0202301N002019999999N999999999-00691-01111101681ADDMA1999999101511MD1710171+9999REMSYN04801006 46/// /2302 11069 21111 30151 40168 57017=
0089010060999992015010604004+78250+022817FM-12+001499999V0202301N003019999999N999999999-00811-01131101591ADDMA1999999101431MD1610201+9999REMSYN04801006 46/// /2303 11081 21113 30143 40159 56020=
0089010060999992015010605004+78250+022817FM-12+001499999V0202301N003019999999N999999999-00801-00971101521ADDMA1999999101361MD1710211+9999REMSYN04801006 46/// /2303 11080 21097 30136 40152 57021=
0132010060999992015010606004+78250+022817FM-12+001499999V0202301N003019999999N999999999-00751-00851101431ADDKA1240N-01491MA1999999101271MD1710241+9999OD139900501999REMSYN06401006 46/// /2303 11075 21085 30127 40143 57024 333 21149 91105=
0089010060999992015010607004+78250+022817FM-12+001499999V0202201N003019999999N999999999-00671-00861101381ADDMA1999999101211MD1710211+9999REMSYN04801006 46/// /2203 11067 21086 30121 40138 57021=
0089010060999992015010608004+78250+022817FM-12+001499999V0209999C999999999999N999999999-01151-01291101351ADDMA1999999101181MD1810181+9999REMSYN04801006 46/// /0000 11115 21129 30118 40135 58018=
0089010060999992015010609004+78250+022817FM-12+001499999V0209999C999999999999N999999999-01761-01921101321ADDMA1999999101151MD1710121+9999REMSYN04801006 46/// /0000 11176 21192 30115 40132 57012=
0089010060999992015010610004+78250+022817FM-12+001499999V0202801N002019999999N999999999-01291-01361101251ADDMA1999999101081MD1610131+9999REMSYN04801006 46/// /2802 11129 21136 30108 40125 56013=
0089010060999992015010611004+78250+022817FM-12+001499999V0209999C999999999999N999999999-01341-01421101171ADDMA1999999101001MD1610181+9999REMSYN04801006 46/// /0000 11134 21142 30100 40117 56018=
0113010060999992015010612004+78250+022817FM-12+001499999V0201701N006019999999N999999999-00811-00921101081ADDMA1999999100911MD1710231+9999OD139900701999REMSYN05801006 46/// /1706 11081 21092 30091 40108 57023 333 91107=
0089010060999992015010613004+78250+022817FM-12+001499999V0201501N004019999999N999999999-00951-01211101001ADDMA1999999100831MD1710251+9999REMSYN04801006 46/// /1504 11095 21121 30083 40100 57025=
0089010060999992015010614004+78250+022817FM-12+001499999V0201701N004019999999N999999999-00731-01031100911ADDMA1999999100741MD1710261+9999REMSYN04801006 46/// /1704 11073 21103 30074 40091 57026=
0089010060999992015010615004+78250+022817FM-12+001499999V0201401N004019999999N999999999-01231-01401100841ADDMA1999999100671MD1710241+9999REMSYN04801006 46/// /1404 11123 21140 30067 40084 57024=
0089010060999992015010616004+78250+022817FM-12+001499999V0201701N006019999999N999999999-00821-01041100751ADDMA1999999100581MD1710251+9999REMSYN04801006 46/// /1706 11082 21104 30058 40075 57025=
0089010060999992015010617004+78250+022817FM-12+001499999V0201701N006019999999N999999999-00711-00941100641ADDMA1999999100481MD1610261+9999REMSYN04801006 46/// /1706 11071 21094 30048 40064 56026=
0132010060999992015010618004+78250+022817FM-12+001499999V0201801N005019999999N999999999-00641-00901100601ADDKA1120M-00521MA1999999100441MD1810241+9999OD139900701999REMSYN06401006 46/// /1805 11064 21090 30044 40060 58024 333 11052 91107=
0089010060999992015010619004+78250+022817FM-12+001499999V0201201N002019999999N999999999-00811-00921100561ADDMA1999999100401MD1810191+9999REMSYN04801006 46/// /1202 11081 21092 30040 40056 58019=
0089010060999992015010620004+78250+022817FM-12+001499999V0201501N006019999999N999999999-00541-00761100451ADDMA1999999100281MD1610201+9999REMSYN04801006 46/// /1506 11054 21076 30028 40045 56020=
0089010060999992015010621004+78250+022817FM-12+001499999V0201701N010019999999N999999999-00461-00641100341ADDMA1999999100181MD1610261+9999REMSYN04801006 46/// /1710 11046 21064 30018 40034 56026=
0089010060999992015010622004+78250+022817FM-12+001499999V0201701N011019999999N999999999-00361-00551100311ADDMA1999999100151MD1810251+9999REMSYN04801006 46/// /1711 11036 21055 30015 40031 58025=
0089010060999992015010623004+78250+022817FM-12+001499999V0201701N008019999999N999999999-00371-00561100271ADDMA1999999100111MD1810171+9999REMSYN04801006 46/// /1708 11037 21056 30011 40027 58017=
0113010060999992015010700004+78250+022817FM-12+001499999V0201701N009019999999N999999999-00341-00521100211ADDMA1999999100061MD1710121+9999OD139901701999REMSYN05801006 46/// /1709 11034 21052 30006 40021 57012 333 91117=
0089010060999992015010701004+78250+022817FM-12+001499999V0201801N011019999999N999999999-00231-00461100151ADDMA1999999099991MD1610161+9999REMSYN04801006 46/// /1811 11023 21046 39999 40015 56016=
0089010060999992015010702004+78250+022817FM-12+001499999V0201701N011019999999N999999999-00241-00431100081ADDMA1999999099921MD1710191+9999REMSYN04801006 46/// /1711 11024 21043 39992 40008 57019=
0089010060999992015010703004+78250+022817FM-12+001499999V0201701N012019999999N999999999-00271-00431100011ADDMA1999999099851MD1710201+9999REMSYN04801006 46/// /1712 11027 21043 39985 40001 57020=
0089010060999992015010704004+78250+022817FM-12+001499999V0201701N011019999999N999999999-00271-00381099971ADDMA1999999099821MD1810171+9999REMSYN04801006 46/// /1711 11027 21038 39982 49997 58017=
0089010060999992015010705004+78250+022817FM-12+001499999V0201701N012019999999N999999999-00221-00401099921ADDMA1999999099761MD1710161+9999REMSYN04801006 46/// /1712 11022 21040 39976 49992 57016=
0132010060999992015010706004+78250+022817FM-12+001499999V0201701N011019999999N999999999-00231-00401099891ADDKA1240N-00961MA1999999099731MD1710121+9999OD139901401999REMSYN06401006 46/// /1711 11023 21040 39973 49989 57012 333 21096 91114=
0089010060999992015010707004+78250+022817FM-12+001499999V0201601N010019999999N999999999-00241-00411099931ADDMA1999999099771MD1810051+9999REMSYN04801006 46/// /1610 11024 21041 39977 49993 58005=
0108010060999992015010708004+78250+022817FM-12+001499999V0201501N010019999999N999999999-00221-00391099931ADDMA1999999099771MD1290019+9999REMSYN04801006 46/// /1510 11022 21039 39977 49993 54001=EQDQ01.1    3APC3  
0089010060999992015010709004+78250+022817FM-12+001499999V0201601N012019999999N999999999-00181-00351099891ADDMA1999999099731MD1510001+9999REMSYN04801006 46/// /1612 11018 21035 39973 49989 55000=
0089010060999992015010710004+78250+022817FM-12+001499999V0201501N009019999999N999999999-00221-00311099881ADDMA1999999099731MD1710041+9999REMSYN04801006 46/// /1509 11022 21031 39973 49988 57004=
0089010060999992015010711004+78250+022817FM-12+001499999V0201401N009019999999N999999999-00221-00291099821ADDMA1999999099661MD1710111+9999REMSYN04801006 46/// /1409 11022 21029 39966 49982 57011=
0113010060999992015010712004+78250+022817FM-12+001499999V0201501N009019999999N999999999-00201-00261099771ADDMA1999999099611MD1610121+9999OD139901401999REMSYN05801006 46/// /1509 11020 21026 39961 49977 56012 333 91114=
0089010060999992015010713004+78250+022817FM-12+001499999V0201501N008019999999N999999999-00151-00241099681ADDMA1999999099531MD1710201+9999REMSYN04801006 46/// /1508 11015 21024 39953 49968 57020=
0089010060999992015010714004+78250+022817FM-12+001499999V0201501N011019999999N999999999-00121-00191099571ADDMA1999999099421MD1610241+9999REMSYN04801006 46/// /1511 11012 21019 39942 49957 56024=
0089010060999992015010715004+78250+022817FM-12+001499999V0201501N012019999999N999999999-00111-00161099481ADDMA1999999099321MD1710291+9999REMSYN04801006 46/// /1512 11011 21016 39932 49948 57029=
0089010060999992015010716004+78250+022817FM-12+001499999V0201501N013019999999N999999999-00111-00131099361ADDMA1999999099201MD1710331+9999REMSYN04801006 46/// /1513 11011 21013 39920 49936 57033=
0089010060999992015010717004+78250+022817FM-12+001499999V0201601N016019999999N999999999-00101-00121099261ADDMA1999999099111MD1710311+9999REMSYN04801006 46/// /1616 11010 21012 39911 49926 57031=
0132010060999992015010718004+78250+022817FM-12+001499999V0201501N014019999999N999999999-00091-00131099251ADDKA1120M-00091MA1999999099101MD1810221+9999OD139901801999REMSYN06401006 46/// /1514 11009 21013 39910 49925 58022 333 11009 91118=
0089010060999992015010719004+78250+022817FM-12+001499999V0201601N007019999999N999999999-00081-00131099311ADDMA1999999099161MD1810051+9999REMSYN04801006 46/// /1607 11008 21013 39916 49931 58005=
0089010060999992015010720004+78250+022817FM-12+001499999V0201601N007019999999N999999999-00071-00121099201ADDMA1999999099051MD1610061+9999REMSYN04801006 46/// /1607 11007 21012 39905 49920 56006=
0089010060999992015010721004+78250+022817FM-12+001499999V0201701N012019999999N999999999-00081-00141099151ADDMA1999999099001MD1510101+9999REMSYN04801006 46/// /1712 11008 21014 39900 49915 55010=
0089010060999992015010722004+78250+022817FM-12+001499999V0201801N010019999999N999999999-00041-00111099181ADDMA1999999099031MD1810131+9999REMSYN04801006 46/// /1810 11004 21011 39903 49918 58013=
0089010060999992015010723004+78250+022817FM-12+001499999V0202201N006019999999N999999999-00091-00191099261ADDMA1999999099101MD1990051+9999REMSYN04801006 46/// /2206 11009 21019 39910 49926 50005=
0113010060999992015010800004+78250+022817FM-12+001499999V0202701N007019999999N999999999-00141-00191099351ADDMA1999999099201MD1110201+9999OD139901501999REMSYN05801006 46/// /2707 11014 21019 39920 49935 51020 333 91115=
0089010060999992015010801004+78250+022817FM-12+001499999V0202801N009019999999N999999999-00361-00451099381ADDMA1999999099221MD1310191+9999REMSYN04801006 46/// /2809 11036 21045 39922 49938 53019=
0089010060999992015010802004+78250+022817FM-12+001499999V0202601N009019999999N999999999-00371-00481099421ADDMA1999999099261MD1310161+9999REMSYN04801006 46/// /2609 11037 21048 39926 49942 53016=
0089010060999992015010803004+78250+022817FM-12+001499999V0202301N005019999999N999999999-00261-00471099531ADDMA1999999099371MD1110181+9999REMSYN04801006 46/// /2305 11026 21047 39937 49953 51018=
0089010060999992015010804004+78250+022817FM-12+001499999V0202401N006019999999N999999999-00341-00541099591ADDMA1999999099431MD1210211+9999REMSYN04801006 46/// /2406 11034 21054 39943 49959 52021=
0089010060999992015010805004+78250+022817FM-12+001499999V0202201N006019999999N999999999-00371-00561099661ADDMA1999999099501MD1310241+9999REMSYN04801006 46/// /2206 11037 21056 39950 49966 53024=
0132010060999992015010806004+78250+022817FM-12+001499999V0202301N006019999999N999999999-00411-00591099701ADDKA1240N-00581MA1999999099541MD1210171+9999OD139901101999REMSYN06401006 46/// /2306 11041 21059 39954 49970 52017 333 21058 91111=
0089010060999992015010807004+78250+022817FM-12+001499999V0202301N005019999999N999999999-00331-00531099761ADDMA1999999099601MD1210171+9999REMSYN04801006 46/// /2305 11033 21053 39960 49976 52017=
0089010060999992015010808004+78250+022817FM-12+001499999V0202301N006019999999N999999999-00431-00631099791ADDMA1999999099631MD1210131+9999REMSYN04801006 46/// /2306 11043 21063 39963 49979 52013=
0089010060999992015010809004+78250+022817FM-12+001499999V0202301N004019999999N999999999-00321-00531099821ADDMA1999999099661MD1210121+9999REMSYN04801006 46/// /2304 11032 21053 39966 49982 52012=
0089010060999992015010810004+78250+022817FM-12+001499999V0201501N003019999999N999999999-00771-00981099871ADDMA1999999099711MD1210111+9999REMSYN04801006 46/// /1503 11077 21098 39971 49987 52011=
0089010060999992015010811004+78250+022817FM-12+001499999V0201501N003019999999N999999999-00661-00771099921ADDMA1999999099761MD1210121+9999REMSYN04801006 46/// /1503 11066 21077 39976 49992 52012=
0113010060999992015010812004+78250+022817FM-12+001499999V0201001N001019999999N999999999-00891-01111099961ADDMA1999999099801MD1210131+9999OD139900601999REMSYN05801006 46/// /1001 11089 21111 39980 49996 52013 333 91106=
0089010060999992015010813004+78250+022817FM-12+001499999V0201201N003019999999N999999999-00431-00631099981ADDMA1999999099821MD1210111+9999REMSYN04801006 46/// /1203 11043 21063 39982 49998 52011=
0089010060999992015010814004+78250+022817FM-12+001499999V0201701N001019999999N999999999-00701-00751100001ADDMA1999999099841MD1210091+9999REMSYN04801006 46/// /1701 11070 21075 39984 40000 52009=
0089010060999992015010815004+78250+022817FM-12+001499999V0201301N002019999999N999999999-00881-01021100001ADDMA1999999099841MD1210041+9999REMSYN04801006 46/// /1302 11088 21102 39984 40000 52004=
0108010060999992015010816004+78250+022817FM-12+001499999V0201501N005019999999N999999999-01041-01111100001ADDMA1999999099841MD1290029+9999REMSYN04801006 46/// /1505 11104 21111 39984 40000 54002=EQDQ01.2    3APC3  
0108010060999992015010817004+78250+022817FM-12+001499999V0201401N005019999999N999999999-00831-00911100021ADDMA1999999099851MD1290029+9999REMSYN04801006 46/// /1405 11083 21091 39985 40002 54001=EQDQ01.1    3APC3  
0132010060999992015010818004+78250+022817FM-12+001499999V0200801N003019999999N999999999-01171-01261100011ADDKA1120M-00281MA1999999099841MD1410001+9999OD139900501999REMSYN06401006 46/// /0803 11117 21126 39984 40001 54000 333 11028 91105=
0089010060999992015010819004+78250+022817FM-12+001499999V0201001N002019999999N999999999-00961-01031100031ADDMA1999999099871MD1210031+9999REMSYN04801006 46/// /1002 11096 21103 39987 40003 52003=
0089010060999992015010820004+78250+022817FM-12+001499999V0201101N002019999999N999999999-00821-00881100051ADDMA1999999099891MD1110041+9999REMSYN04801006 46/// /1102 11082 21088 39989 40005 51004=
0089010060999992015010821004+78250+022817FM-12+001499999V0201301N005019999999N999999999-00591-00651100051ADDMA1999999099891MD1310041+9999REMSYN04801006 46/// /1305 11059 21065 39989 40005 53004=
0089010060999992015010822004+78250+022817FM-12+001499999V0200901N005019999999N999999999-00471-00541100011ADDMA1999999099851MD1510021+9999REMSYN04801006 46/// /0905 11047 21054 39985 40001 55002=
0089010060999992015010823004+78250+022817FM-12+001499999V0201501N010019999999N999999999-00201-00331099951ADDMA1999999099791MD1610101+9999REMSYN04801006 46/// /1510 11020 21033 39979 49995 56010=
0113010060999992015010900004+78250+022817FM-12+001499999V0201401N009019999999N999999999-00161-00271099981ADDMA1999999099821MD1810071+9999OD139901201999REMSYN05801006 46/// /1409 11016 21027 39982 49998 58007 333 91112=
0089010060999992015010901004+78250+022817FM-12+001499999V0201501N012019999999N999999999-00141-00281099941ADDMA1999999099781MD1710071+9999REMSYN04801006 46/// /1512 11014 21028 39978 49994 57007=
0089010060999992015010902004+78250+022817FM-12+001499999V0201501N012019999999N999999999-00131-00301099931ADDMA1999999099771MD1510021+9999REMSYN04801006 46/// /1512 11013 21030 39977 49993 55002=
0089010060999992015010903004+78250+022817FM-12+001499999V0201501N012019999999N999999999-00141-00311099931ADDMA1999999099771MD1810051+9999REMSYN04801006 46/// /1512 11014 21031 39977 49993 58005=
0089010060999992015010904004+78250+022817FM-12+001499999V0201601N012019999999N999999999-00131-00311099971ADDMA1999999099811MD1110031+9999REMSYN04801006 46/// /1612 11013 21031 39981 49997 51003=
0089010060999992015010905004+78250+022817FM-12+001499999V0201501N011019999999N999999999-00131-00311100041ADDMA1999999099891MD1110111+9999REMSYN04801006 46/// /1511 11013 21031 39989 40004 51011=
0132010060999992015010906004+78250+022817FM-12+001499999V0201501N009019999999N999999999-00151-00321100091ADDKA1240N-01201MA1999999099941MD1210171+9999OD139901501999REMSYN06401006 46/// /1509 11015 21032 39994 40009 52017 333 21120 91115=
0089010060999992015010907004+78250+022817FM-12+001499999V0201601N010019999999N999999999-00151-00341100131ADDMA1999999099971MD1310161+9999REMSYN04801006 46/// /1610 11015 21034 39997 40013 53016=
0089010060999992015010908004+78250+022817FM-12+001499999V0201601N012019999999N999999999-00151-00331100121ADDMA1999999099961MD1310081+9999REMSYN04801006 46/// /1612 11015 21033 39996 40012 53008=
0089010060999992015010909004+78250+022817FM-12+001499999V0201601N010019999999N999999999-00171-00341100191ADDMA1999999100031MD1110091+9999REMSYN04801006 46/// /1610 11017 21034 30003 40019 51009=
0089010060999992015010910004+78250+022817FM-12+001499999V0201601N008019999999N999999999-00181-00351100281ADDMA1999999100121MD1110151+9999REMSYN04801006 46/// /1608 11018 21035 30012 40028 51015=
0089010060999992015010911004+78250+022817FM-12+001499999V0201601N006019999999N999999999-00191-00361100331ADDMA1999999100171MD1210201+9999REMSYN04801006 46/// /1606 11019 21036 30017 40033 52020=
0113010060999992015010912004+78250+022817FM-12+001499999V0201601N006019999999N999999999-00191-00371100351ADDMA1999999100191MD1310161+9999OD139901301999REMSYN05801006 46/// /1606 11019 21037 30019 40035 53016 333 91113=
0089010060999992015010913004+78250+022817FM-12+001499999V0201601N010019999999N999999999-00171-00461100351ADDMA1999999100191MD1310071+9999REMSYN04801006 46/// /1610 11017 21046 30019 40035 53007=
0089010060999992015010914004+78250+022817FM-12+001499999V0201601N009019999999N999999999-00241-00471100391ADDMA1999999100231MD1210071+9999REMSYN04801006 46/// /1609 11024 21047 30023 40039 52007=
0089010060999992015010915004+78250+022817FM-12+001499999V0201701N010019999999N999999999-00221-00501100391ADDMA1999999100231MD1210041+9999REMSYN04801006 46/// /1710 11022 21050 30023 40039 52004=
0089010060999992015010916004+78250+022817FM-12+001499999V0201701N010019999999N999999999-00231-00541100421ADDMA1999999100261MD1210071+9999REMSYN04801006 46/// /1710 11023 21054 30026 40042 52007=
0089010060999992015010917004+78250+022817FM-12+001499999V0201701N011019999999N999999999-00221-00571100431ADDMA1999999100271MD1210041+9999REMSYN04801006 46/// /1711 11022 21057 30027 40043 52004=
0132010060999992015010918004+78250+022817FM-12+001499999V0201801N012019999999N999999999-00161-00651100491ADDKA1120M-00131MA1999999100331MD1210101+9999OD139901301999REMSYN06401006 46/// /1812 11016 21065 30033 40049 52010 333 11013 91113=
0089010060999992015010919004+78250+022817FM-12+001499999V0202001N011019999999N999999999-00181-00721100581ADDMA1999999100421MD1110151+9999REMSYN04801006 46/// /2011 11018 21072 30042 40058 51015=
0089010060999992015010920004+78250+022817FM-12+001499999V0201701N006019999999N999999999-00341-00651100661ADDMA1999999100501MD1210221+9999REMSYN04801006 46/// /1706 11034 21065 30050 40066 52022=
0089010060999992015010921004+78250+022817FM-12+001499999V0201601N005019999999N999999999-00291-00521100681ADDMA1999999100521MD1310191+9999REMSYN04801006 46/// /1605 11029 21052 30052 40068 53019=
0089010060999992015010922004+78250+022817FM-12+001499999V0201701N005019999999N999999999-00261-00481100681ADDMA1999999100521MD1310101+9999REMSYN04801006 46/// /1705 11026 21048 30052 40068 53010=
0089010060999992015010923004+78250+022817FM-12+001499999V0201801N006019999999N999999999-00301-00521100731ADDMA1999999100571MD1210071+9999REMSYN04801006 46/// /1806 11030 21052 30057 40073 52007=
0113010060999992015011000004+78250+022817FM-12+001499999V0201801N005019999999N999999999-00301-00521100731ADDMA1999999100571MD1210051+9999OD139901301999REMSYN05801006 46/// /1805 11030 21052 30057 40073 52005 333 91113=
0089010060999992015011001004+78250+022817FM-12+001499999V0201901N006019999999N999999999-00171-00541100731ADDMA1999999100571MD1310051+9999REMSYN04801006 46/// /1906 11017 21054 30057 40073 53005=
0108010060999992015011003004+78250+022817FM-12+001499999V0202101N004019999999N999999999-00201-00541100741ADDMA1999999100591MD1290019+9999REMSYN04801006 46/// /2104 11020 21054 30059 40074 54001=EQDQ01.1    3APC3  
0108010060999992015011004004+78250+022817FM-12+001499999V0201801N005019999999N999999999-00281-00531100741ADDMA1999999100581MD1290019+9999REMSYN04801006 46/// /1805 11028 21053 30058 40074 54001=EQDQ01.1    3APC3  
0094010060999992015011005004+78250+022817FM-12+001499999V0201901N006019999999N999999999-00291-00501100731ADDMA1999999100571REMSYN04801006 46/// /1906 11029 21050 30057 40073 54002=EQDQ014     3APCTEN
0089010060999992015011006004+78250+022817FM-12+001499999V0202101N005019999999N999999999-00291-00581100701ADDMA1999999100541MD1710041+9999REMSYN04801006 46/// /2105 11029 21058 30054 40070 57004=
0089010060999992015011007004+78250+022817FM-12+001499999V0202101N005019999999N999999999-00241-00611100701ADDMA1999999100541MD1710041+9999REMSYN04801006 46/// /2105 11024 21061 30054 40070 57004=
0089010060999992015011008004+78250+022817FM-12+001499999V0202501N004019999999N999999999-00271-00561100691ADDMA1999999100531MD1710041+9999REMSYN04801006 46/// /2504 11027 21056 30053 40069 57004=
0089010060999992015011009004+78250+022817FM-12+001499999V0202401N005019999999N999999999-00461-00701100661ADDMA1999999100501MD1710041+9999REMSYN04801006 46/// /2405 11046 21070 30050 40066 57004=
0089010060999992015011010004+78250+022817FM-12+001499999V0202301N008019999999N999999999-00271-00501100611ADDMA1999999100451MD1610091+9999REMSYN04801006 46/// /2308 11027 21050 30045 40061 56009=
0089010060999992015011011004+78250+022817FM-12+001499999V0202501N005019999999N999999999-00321-00501100591ADDMA1999999100431MD1710101+9999REMSYN04801006 46/// /2505 11032 21050 30043 40059 57010=
0113010060999992015011012004+78250+022817FM-12+001499999V0202501N005019999999N999999999-00271-00421100571ADDMA1999999100411MD1810101+9999OD139900901999REMSYN05801006 46/// /2505 11027 21042 30041 40057 58010 333 91109=
0108010060999992015011013004+78250+022817FM-12+001499999V0202601N005019999999N999999999-00211-00451100581ADDMA1999999100421MD1790039+9999REMSYN04801006 46/// /2605 11021 21045 30042 40058 54003=EQDQ01.3    3APC3  
0089010060999992015011014004+78250+022817FM-12+001499999V0202601N001019999999N999999999-00321-00571100561ADDMA1999999100401MD1710031+9999REMSYN04801006 46/// /2601 11032 21057 30040 40056 57003=
0089010060999992015011015004+78250+022817FM-12+001499999V0202801N004019999999N999999999-00321-00481100541ADDMA1999999100381MD1510031+9999REMSYN04801006 46/// /2804 11032 21048 30038 40054 55003=
0089010060999992015011016004+78250+022817FM-12+001499999V0203501N003019999999N999999999-00341-00541100541ADDMA1999999100381MD1710041+9999REMSYN04801006 46/// /3503 11034 21054 30038 40054 57004=
0089010060999992015011017004+78250+022817FM-12+001499999V0203501N003019999999N999999999-00501-00661100551ADDMA1999999100391MD1990011+9999REMSYN04801006 46/// /3503 11050 21066 30039 40055 50001=
0132010060999992015011018004+78250+022817FM-12+001499999V0203501N005019999999N999999999-00621-00701100541ADDKA1120M-00181MA1999999100381MD1410001+9999OD139900701999REMSYN06401006 46/// /3505 11062 21070 30038 40054 54000 333 11018 91107=
0089010060999992015011019004+78250+022817FM-12+001499999V0203401N003019999999N999999999-00561-00631100541ADDMA1999999100381MD1410001+9999REMSYN04801006 46/// /3403 11056 21063 30038 40054 54000=
0108010060999992015011020004+78250+022817FM-12+001499999V0202401N002019999999N999999999-00541-00601100531ADDMA1999999100371MD1790029+9999REMSYN04801006 46/// /2402 11054 21060 30037 40053 54003=EQDQ01.3    3APC3  
0089010060999992015011021004+78250+022817FM-12+001499999V0202001N001019999999N999999999-00511-00571100541ADDMA1999999100381MD1410001+9999REMSYN04801006 46/// /2001 11051 21057 30038 40054 54000=
0089010060999992015011022004+78250+022817FM-12+001499999V0201401N001019999999N999999999-00511-00571100581ADDMA1999999100421MD1110041+9999REMSYN04801006 46/// /1401 11051 21057 30042 40058 51004=
0089010060999992015011023004+78250+022817FM-12+001499999V0201001N003019999999N999999999-00581-00631100621ADDMA1999999100461MD1210091+9999REMSYN04801006 46/// /1003 11058 21063 30046 40062 52009=
0113010060999992015011100004+78250+022817FM-12+001499999V0201001N004019999999N999999999-00631-00691100671ADDMA1999999100511MD1210121+9999OD139900501999REMSYN05801006 46/// /1004 11063 21069 30051 40067 52012 333 91105=
0089010060999992015011101004+78250+022817FM-12+001499999V0201001N003019999999N999999999-00691-00751100711ADDMA1999999100551MD1210131+9999REMSYN04801006 46/// /1003 11069 21075 30055 40071 52013=
0089010060999992015011102004+78250+022817FM-12+001499999V0200701N001019999999N999999999-00731-00801100771ADDMA1999999100611MD1210151+9999REMSYN04801006 46/// /0701 11073 21080 30061 40077 52015=
0089010060999992015011103004+78250+022817FM-12+001499999V0209999C999999999999N999999999-00751-00821100791ADDMA1999999100631MD1210121+9999REMSYN04801006 46/// /0000 11075 21082 30063 40079 52012=
0089010060999992015011104004+78250+022817FM-12+001499999V0203401N001019999999N999999999-00661-00721100801ADDMA1999999100641MD1310091+9999REMSYN04801006 46/// /3401 11066 21072 30064 40080 53009=
0089010060999992015011105004+78250+022817FM-12+001499999V0202901N001019999999N999999999-00581-00631100831ADDMA1999999100671MD1210061+9999REMSYN04801006 46/// /2901 11058 21063 30067 40083 52006=
0132010060999992015011106004+78250+022817FM-12+001499999V0201101N005019999999N999999999-00491-00551100861ADDKA1240N-00751MA1999999100701MD1210071+9999OD139900601999REMSYN06401006 46/// /1105 11049 21055 30070 40086 52007 333 21075 91106=
0089010060999992015011107004+78250+022817FM-12+001499999V0201201N009019999999N999999999-00551-00661100901ADDMA1999999100741MD1210101+9999REMSYN04801006 46/// /1209 11055 21066 30074 40090 52010=
0089010060999992015011108004+78250+022817FM-12+001499999V0201201N010019999999N999999999-00661-00741100931ADDMA1999999100771MD1210101+9999REMSYN04801006 46/// /1210 11066 21074 30077 40093 52010=
0089010060999992015011109004+78250+022817FM-12+001499999V0201201N009019999999N999999999-00701-00821100991ADDMA1999999100831MD1210131+9999REMSYN04801006 46/// /1209 11070 21082 30083 40099 52013=
0089010060999992015011110004+78250+022817FM-12+001499999V0209999C999999999999N999999999-00731-00851101091ADDMA1999999100931MD1110181+9999REMSYN04801006 46/// /0000 11073 21085 30093 40109 51018=
0089010060999992015011111004+78250+022817FM-12+001499999V0201301N002019999999N999999999-00741-00901101121ADDMA1999999100951MD1310191+9999REMSYN04801006 46/// /1302 11074 21090 30095 40112 53019=
0113010060999992015011112004+78250+022817FM-12+001499999V0201501N002019999999N999999999-00901-01061101181ADDMA1999999101021MD1310191+9999OD139901101999REMSYN05801006 46/// /1502 11090 21106 30102 40118 53019 333 91111=
0089010060999992015011113004+78250+022817FM-12+001499999V0201001N003019999999N999999999-00981-01141101191ADDMA1999999101031MD1210101+9999REMSYN04801006 46/// /1003 11098 21114 30103 40119 52010=
0089010060999992015011114004+78250+022817FM-12+001499999V0201101N003019999999N999999999-01041-01201101211ADDMA1999999101041MD1310091+9999REMSYN04801006 46/// /1103 11104 21120 30104 40121 53009=
0089010060999992015011115004+78250+022817FM-12+001499999V0200901N002019999999N999999999-01191-01371101221ADDMA1999999101061MD1210041+9999REMSYN04801006 46/// /0902 11119 21137 30106 40122 52004=
0089010060999992015011116004+78250+022817FM-12+001499999V0201001N003019999999N999999999-01251-01341101261ADDMA1999999101091MD1210061+9999REMSYN04801006 46/// /1003 11125 21134 30109 40126 52006=
0089010060999992015011117004+78250+022817FM-12+001499999V0201101N003019999999N999999999-01201-01281101271ADDMA1999999101111MD1210071+9999REMSYN04801006 46/// /1103 11120 21128 30111 40127 52007=
0132010060999992015011118004+78250+022817FM-12+001499999V0201001N001019999999N999999999-01231-01351101301ADDKA1120M-00491MA1999999101141MD1210081+9999OD139900501999REMSYN06401006 46/// /1001 11123 21135 30114 40130 52008 333 11049 91105=
0089010060999992015011119004+78250+022817FM-12+001499999V0209999C999999999999N999999999-01201-01321101331ADDMA1999999101161MD1210071+9999REMSYN04801006 46/// /0000 11120 21132 30116 40133 52007=
0089010060999992015011120004+78250+022817FM-12+001499999V0209999C999999999999N999999999-01091-01221101311ADDMA1999999101151MD1310041+9999REMSYN04801006 46/// /0000 11109 21122 30115 40131 53004=
0108010060999992015011121004+78250+022817FM-12+001499999V0202901N001019999999N999999999-01101-01221101311ADDMA1999999101151MD1290019+9999REMSYN04801006 46/// /2901 11110 21122 30115 40131 54001=EQDQ01.1    3APC3  
0108010060999992015011122004+78250+022817FM-12+001499999V0203201N001019999999N999999999-01131-01251101321ADDMA1999999101151MD1790019+9999REMSYN04801006 46/// /3201 11113 21125 30115 40132 54001=EQDQ01.1    3APC3  
0108010060999992015011123004+78250+022817FM-12+001499999V0201801N002019999999N999999999-01031-01111101301ADDMA1999999101131MD1790019+9999REMSYN04801006 46/// /1802 11103 21111 30113 40130 54001=EQDQ01.1    3APC3  
0113010060999992015011200004+78250+022817FM-12+001499999V0203501N001019999999N999999999-01181-01251101281ADDMA1999999101111MD1710031+9999OD139900301999REMSYN05801006 46/// /3501 11118 21125 30111 40128 57003 333 91103=
0089010060999992015011201004+78250+022817FM-12+001499999V0202101N004019999999N999999999-01141-01271101271ADDMA1999999101111MD1710051+9999REMSYN04801006 46/// /2104 11114 21127 30111 40127 57005=
0089010060999992015011202004+78250+022817FM-12+001499999V0202201N003019999999N999999999-01361-01631101261ADDMA1999999101101MD1710041+9999REMSYN04801006 46/// /2203 11136 21163 30110 40126 57004=
0089010060999992015011203004+78250+022817FM-12+001499999V0202001N003019999999N999999999-01361-01641101241ADDMA1999999101071MD1710041+9999REMSYN04801006 46/// /2003 11136 21164 30107 40124 57004=
0089010060999992015011204004+78250+022817FM-12+001499999V0203601N001019999999N999999999-01411-01681101211ADDMA1999999101041MD1710061+9999REMSYN04801006 46/// /3601 11141 21168 30104 40121 57006=
0089010060999992015011205004+78250+022817FM-12+001499999V0202201N005019999999N999999999-01251-01521101151ADDMA1999999100991MD1710111+9999REMSYN04801006 46/// /2205 11125 21152 30099 40115 57011=
0132010060999992015011206004+78250+022817FM-12+001499999V0202201N005019999999N999999999-01231-01531101131ADDKA1240N-01661MA1999999100961MD1710111+9999OD139900601999REMSYN06401006 46/// /2205 11123 21153 30096 40113 57011 333 21166 91106=
0089010060999992015011207004+78250+022817FM-12+001499999V0202301N005019999999N999999999-01391-01671101131ADDMA1999999100961MD1810081+9999REMSYN04801006 46/// /2305 11139 21167 30096 40113 58008=
0089010060999992015011208004+78250+022817FM-12+001499999V0202301N006019999999N999999999-01271-01541101121ADDMA1999999100961MD1710031+9999REMSYN04801006 46/// /2306 11127 21154 30096 40112 57003=
0108010060999992015011209004+78250+022817FM-12+001499999V0202301N005019999999N999999999-01371-01611101121ADDMA1999999100951MD1790019+9999REMSYN04801006 46/// /2305 11137 21161 30095 40112 54001=EQDQ01.1    3APC3  
0089010060999992015011210004+78250+022817FM-12+001499999V0202401N006019999999N999999999-01361-01551101101ADDMA1999999100931MD1710031+9999REMSYN04801006 46/// /2406 11136 21155 30093 40110 57003=
0089010060999992015011211004+78250+022817FM-12+001499999V0202301N006019999999N999999999-01251-01391101061ADDMA1999999100891MD1610071+9999REMSYN04801006 46/// /2306 11125 21139 30089 40106 56007=
0113010060999992015011212004+78250+022817FM-12+001499999V0202401N006019999999N999999999-01231-01431101021ADDMA1999999100861MD1710091+9999OD139900601999REMSYN05801006 46/// /2406 11123 21143 30086 40102 57009 333 91106=
0089010060999992015011213004+78250+022817FM-12+001499999V0203601N001019999999N999999999-01631-01771101011ADDMA1999999100841MD1710091+9999REMSYN04801006 46/// /3601 11163 21177 30084 40101 57009=
0089010060999992015011214004+78250+022817FM-12+001499999V0209999C999999999999N999999999-01611-01711100981ADDMA1999999100821MD1710081+9999REMSYN04801006 46/// /0000 11161 21171 30082 40098 57008=
0089010060999992015011215004+78250+022817FM-12+001499999V0209999C999999999999N999999999-01611-01721100951ADDMA1999999100781MD1710081+9999REMSYN04801006 46/// /0000 11161 21172 30078 40095 57008=
0089010060999992015011216004+78250+022817FM-12+001499999V0202601N001019999999N999999999-01621-01731100881ADDMA1999999100721MD1610131+9999REMSYN04801006 46/// /2601 11162 21173 30072 40088 56013=
0089010060999992015011217004+78250+022817FM-12+001499999V0202301N006019999999N999999999-01371-01481100811ADDMA1999999100641MD1610181+9999REMSYN04801006 46/// /2306 11137 21148 30064 40081 56018=
0132010060999992015011218004+78250+022817FM-12+001499999V0202401N005019999999N999999999-01291-01421100771ADDKA1120M-01141MA1999999100601MD1710171+9999OD139900601999REMSYN06401006 46/// /2405 11129 21142 30060 40077 57017 333 11114 91106=
0089010060999992015011219004+78250+022817FM-12+001499999V0202401N005019999999N999999999-01171-01291100741ADDMA1999999100571MD1810141+9999REMSYN04801006 46/// /2405 11117 21129 30057 40074 58014=
0089010060999992015011220004+78250+022817FM-12+001499999V0202301N004019999999N999999999-01111-01211100671ADDMA1999999100511MD1610131+9999REMSYN04801006 46/// /2304 11111 21121 30051 40067 56013=
0089010060999992015011221004+78250+022817FM-12+001499999V0202401N006019999999N999999999-01071-01191100621ADDMA1999999100461MD1710141+9999REMSYN04801006 46/// /2406 11107 21119 30046 40062 57014=
0089010060999992015011222004+78250+022817FM-12+001499999V0202301N005019999999N999999999-01021-01141100561ADDMA1999999100401MD1710181+9999REMSYN04801006 46/// /2305 11102 21114 30040 40056 57018=
0089010060999992015011223004+78250+022817FM-12+001499999V0202301N004019999999N999999999-00921-01061100501ADDMA1999999100341MD1710161+9999REMSYN04801006 46/// /2304 11092 21106 30034 40050 57016=
0113010060999992015011300004+78250+022817FM-12+001499999V0200101N007019999999N999999999-00681-00831100431ADDMA1999999100271MD1710201+9999OD139900801999REMSYN05801006 46/// /0107 11068 21083 30027 40043 57020 333 91108=
0089010060999992015011301004+78250+022817FM-12+001499999V0200201N006019999999N999999999-00741-00891100421ADDMA1999999100261MD1810141+9999REMSYN04801006 46/// /0206 11074 21089 30026 40042 58014=
0089010060999992015011302004+78250+022817FM-12+001499999V0200401N005019999999N999999999-00781-00891100411ADDMA1999999100251MD1810091+9999REMSYN04801006 46/// /0405 11078 21089 30025 40041 58009=
0089010060999992015011303004+78250+022817FM-12+001499999V0200501N005019999999N999999999-00861-00951100401ADDMA1999999100231MD1710031+9999REMSYN04801006 46/// /0505 11086 21095 30023 40040 57003=
0089010060999992015011304004+78250+022817FM-12+001499999V0200501N007019999999N999999999-01281-01431100421ADDMA1999999100251MD1410001+9999REMSYN04801006 46/// /0507 11128 21143 30025 40042 54000=
0089010060999992015011305004+78250+022817FM-12+001499999V0200401N006019999999N999999999-01321-01451100481ADDMA1999999100321MD1110061+9999REMSYN04801006 46/// /0406 11132 21145 30032 40048 51006=
0132010060999992015011306004+78250+022817FM-12+001499999V0200301N006019999999N999999999-01321-01451100491ADDKA1240N-01331MA1999999100331MD1210091+9999OD139901001999REMSYN06401006 46/// /0306 11132 21145 30033 40049 52009 333 21133 91110=
0089010060999992015011307004+78250+022817FM-12+001499999V0200401N006019999999N999999999-01231-01361100491ADDMA1999999100331MD1310071+9999REMSYN04801006 46/// /0406 11123 21136 30033 40049 53007=
0108010060999992015011308004+78250+022817FM-12+001499999V0200401N006019999999N999999999-01141-01271100511ADDMA1999999100341MD1290039+9999REMSYN04801006 46/// /0406 11114 21127 30034 40051 54003=EQDQ01.3    3APC3  
0089010060999992015011309004+78250+022817FM-12+001499999V0200301N004019999999N999999999-01111-01241100551ADDMA1999999100391MD1110061+9999REMSYN04801006 46/// /0304 11111 21124 30039 40055 51006=
0089010060999992015011310004+78250+022817FM-12+001499999V0200201N004019999999N999999999-01041-01161100561ADDMA1999999100401MD1210071+9999REMSYN04801006 46/// /0204 11104 21116 30040 40056 52007=
0089010060999992015011311004+78250+022817FM-12+001499999V0200701N004019999999N999999999-01001-01121100601ADDMA1999999100441MD1210091+9999REMSYN04801006 46/// /0704 11100 21112 30044 40060 52009=
0113010060999992015011312004+78250+022817FM-12+001499999V0200601N005019999999N999999999-01121-01251100651ADDMA1999999100491MD1110101+9999OD139900801999REMSYN05801006 46/// /0605 11112 21125 30049 40065 51010 333 91108=
0089010060999992015011313004+78250+022817FM-12+001499999V0200401N006019999999N999999999-01251-01381100651ADDMA1999999100491MD1310091+9999REMSYN04801006 46/// /0406 11125 21138 30049 40065 53009=
0089010060999992015011314004+78250+022817FM-12+001499999V0200201N007019999999N999999999-01341-01471100691ADDMA1999999100521MD1210081+9999REMSYN04801006 46/// /0207 11134 21147 30052 40069 52008=
0089010060999992015011315004+78250+022817FM-12+001499999V0200201N007019999999N999999999-01491-01631100681ADDMA1999999100521MD1210031+9999REMSYN04801006 46/// /0207 11149 21163 30052 40068 52003=
0108010060999992015011316004+78250+022817FM-12+001499999V0200201N005019999999N999999999-01401-01531100681ADDMA1999999100521MD1290039+9999REMSYN04801006 46/// /0205 11140 21153 30052 40068 54003=EQDQ01.3    3APC3  
0089010060999992015011317004+78250+022817FM-12+001499999V0200201N006019999999N999999999-01341-01471100651ADDMA1999999100491MD1710031+9999REMSYN04801006 46/// /0206 11134 21147 30049 40065 57003=
0132010060999992015011318004+78250+022817FM-12+001499999V0200201N001019999999N999999999-01301-01431100681ADDKA1120M-00991MA1999999100521MD1410001+9999OD139900901999REMSYN06401006 46/// /0201 11130 21143 30052 40068 54000 333 11099 91109=
0108010060999992015011319004+78250+022817FM-12+001499999V0200201N002019999999N999999999-01221-01341100671ADDMA1999999100511MD1790019+9999REMSYN04801006 46/// /0202 11122 21134 30051 40067 54001=EQDQ01.1    3APC3  
0089010060999992015011320004+78250+022817FM-12+001499999V0200201N001019999999N999999999-01161-01281100651ADDMA1999999100491MD1510001+9999REMSYN04801006 46/// /0201 11116 21128 30049 40065 55000=
0089010060999992015011321004+78250+022817FM-12+001499999V0200501N001019999999N999999999-01081-01191100651ADDMA1999999100481MD1710031+9999REMSYN04801006 46/// /0501 11108 21119 30048 40065 57003=
0089010060999992015011322004+78250+022817FM-12+001499999V0200601N007019999999N999999999-00981-01101100611ADDMA1999999100451MD1710061+9999REMSYN04801006 46/// /0607 11098 21110 30045 40061 57006=
0108010060999992015011323004+78250+022817FM-12+001499999V0200701N008019999999N999999999-01061-01201100621ADDMA1999999100461MD1790039+9999REMSYN04801006 46/// /0708 11106 21120 30046 40062 54003=EQDQ01.3    3APC3  
0113010060999992015011400004+78250+022817FM-12+001499999V0200701N008019999999N999999999-01121-01271100641ADDMA1999999100471MD1990011+9999OD139901101999REMSYN05801006 46/// /0708 11112 21127 30047 40064 50001 333 91111=
0089010060999992015011401004+78250+022817FM-12+001499999V0200601N007019999999N999999999-01261-01431100671ADDMA1999999100511MD1210061+9999REMSYN04801006 46/// /0607 11126 21143 30051 40067 52006=
0089010060999992015011402004+78250+022817FM-12+001499999V0200701N005019999999N999999999-01441-01581100711ADDMA1999999100541MD1210081+9999REMSYN04801006 46/// /0705 11144 21158 30054 40071 52008=
0089010060999992015011403004+78250+022817FM-12+001499999V0200801N005019999999N999999999-01721-01881100751ADDMA1999999100581MD1210111+9999REMSYN04801006 46/// /0805 11172 21188 30058 40075 52011=
0089010060999992015011404004+78250+022817FM-12+001499999V0200801N003019999999N999999999-01961-02101100761ADDMA1999999100591MD1210091+9999REMSYN04801006 46/// /0803 11196 21210 30059 40076 52009=
0089010060999992015011405004+78250+022817FM-12+001499999V0200401N004019999999N999999999-01771-01871100731ADDMA1999999100561MD1510021+9999REMSYN04801006 46/// /0404 11177 21187 30056 40073 55002=
0151010060999992015011406004+78250+022817FM-12+001499999V0200301N004019999999N999999999-01751-01901100741ADDKA1240N-02021MA1999999100571MD1790019+9999OD139901001999REMSYN06401006 46/// /0304 11175 21190 30057 40074 54001 333 21202 91110=EQDQ01.1    3APC3  
0089010060999992015011407004+78250+022817FM-12+001499999V0200401N006019999999N999999999-01831-02001100761ADDMA1999999100591MD1990011+9999REMSYN04801006 46/// /0406 11183 21200 30059 40076 50001=
0089010060999992015011408004+78250+022817FM-12+001499999V0200401N007019999999N999999999-01951-02131100781ADDMA1999999100611MD1210041+9999REMSYN04801006 46/// /0407 11195 21213 30061 40078 52004=
0089010060999992015011409004+78250+022817FM-12+001499999V0200301N005019999999N999999999-01991-02171100801ADDMA1999999100631MD1210061+9999REMSYN04801006 46/// /0305 11199 21217 30063 40080 52006=
0089010060999992015011410004+78250+022817FM-12+001499999V0200201N005019999999N999999999-01951-02121100801ADDMA1999999100631MD1210041+9999REMSYN04801006 46/// /0205 11195 21212 30063 40080 52004=
0089010060999992015011411004+78250+022817FM-12+001499999V0200301N001019999999N999999999-01881-02051100871ADDMA1999999100701MD1110091+9999REMSYN04801006 46/// /0301 11188 21205 30070 40087 51009=
0113010060999992015011412004+78250+022817FM-12+001499999V0200201N003019999999N999999999-01891-02061100891ADDMA1999999100721MD1210091+9999OD139900801999REMSYN05801006 46/// /0203 11189 21206 30072 40089 52009 333 91108=
0089010060999992015011413004+78250+022817FM-12+001499999V0200201N002019999999N999999999-01831-02001100891ADDMA1999999100731MD1310091+9999REMSYN04801006 46/// /0202 11183 21200 30073 40089 53009=
0089010060999992015011414004+78250+022817FM-12+001499999V0200201N004019999999N999999999-01801-01971100911ADDMA1999999100741MD1210051+9999REMSYN04801006 46/// /0204 11180 21197 30074 40091 52005=
0089010060999992015011415004+78250+022817FM-12+001499999V0200401N003019999999N999999999-01861-02041100921ADDMA1999999100751MD1210031+9999REMSYN04801006 46/// /0403 11186 21204 30075 40092 52003=
0089010060999992015011416004+78250+022817FM-12+001499999V0200501N001019999999N999999999-02151-02351100931ADDMA1999999100761MD1210031+9999REMSYN04801006 46/// /0501 11215 21235 30076 40093 52003=
0108010060999992015011417004+78250+022817FM-12+001499999V0200401N003019999999N999999999-02111-02301100931ADDMA1999999100761MD1290029+9999REMSYN04801006 46/// /0403 11211 21230 30076 40093 54002=EQDQ01.2    3APC3  
0151010060999992015011418004+78250+022817FM-12+001499999V0200301N004019999999N999999999-02071-02261100931ADDKA1120M-01731MA1999999100761MD1290019+9999OD139900501999REMSYN06401006 46/// /0304 11207 21226 30076 40093 54001 333 11173 91105=EQDQ01.1    3APC3  
0108010060999992015011419004+78250+022817FM-12+001499999V0200301N004019999999N999999999-02141-02341100961ADDMA1999999100781MD1290039+9999REMSYN04801006 46/// /0304 11214 21234 30078 40096 54003=EQDQ01.3    3APC3  
0089010060999992015011420004+78250+022817FM-12+001499999V0201001N002019999999N999999999-02211-02411100991ADDMA1999999100821MD1210061+9999REMSYN04801006 46/// /1002 11221 21241 30082 40099 52006=
0089010060999992015011421004+78250+022817FM-12+001499999V0200301N004019999999N999999999-02171-02361100961ADDMA1999999100791MD1510031+9999REMSYN04801006 46/// /0304 11217 21236 30079 40096 55003=
0108010060999992015011422004+78250+022817FM-12+001499999V0200501N001019999999N999999999-02261-02461100971ADDMA1999999100801MD1290019+9999REMSYN04801006 46/// /0501 11226 21246 30080 40097 54001=EQDQ01.1    3APC3  
0089010060999992015011423004+78250+022817FM-12+001499999V0201301N001019999999N999999999-02331-02541100981ADDMA1999999100811MD1990011+9999REMSYN04801006 46/// /1301 11233 21254 30081 40098 50001=
0132010060999992015011500004+78250+022817FM-12+001499999V0201001N001019999999N999999999-02341-02551100981ADDMA1999999100811MD1290029+9999OD139900501999REMSYN05801006 46/// /1001 11234 21255 30081 40098 54002 333 91105=EQDQ01.2    3APC3  
0108010060999992015011501004+78250+022817FM-12+001499999V0209999C999999999999N999999999-02351-02551100981ADDMA1999999100811MD1290019+9999REMSYN04801006 46/// /0000 11235 21255 30081 40098 54001=EQDQ01.1    3APC3  
0089010060999992015011502004+78250+022817FM-12+001499999V0209999C999999999999N999999999-02281-02481100951ADDMA1999999100781MD1510031+9999REMSYN04801006 46/// /0000 11228 21248 30078 40095 55003=
0089010060999992015011503004+78250+022817FM-12+001499999V0202801N001019999999N999999999-02241-02431100931ADDMA1999999100751MD1710061+9999REMSYN04801006 46/// /2801 11224 21243 30075 40093 57006=
0089010060999992015011504004+78250+022817FM-12+001499999V0202501N002019999999N999999999-02231-02411100911ADDMA1999999100741MD1710071+9999REMSYN04801006 46/// /2502 11223 21241 30074 40091 57007=
0089010060999992015011505004+78250+022817FM-12+001499999V0200601N001019999999N999999999-02501-02721100891ADDMA1999999100721MD1710061+9999REMSYN04801006 46/// /0601 11250 21272 30072 40089 57006=
0132010060999992015011506004+78250+022817FM-12+001499999V0201201N001019999999N999999999-02501-02721100871ADDKA1240N-02501MA1999999100691MD1710061+9999OD139900301999REMSYN06401006 46/// /1201 11250 21272 30069 40087 57006 333 21250 91103=
0089010060999992015011507004+78250+022817FM-12+001499999V0209999C999999999999N999999999-02441-02661100871ADDMA1999999100701MD1710041+9999REMSYN04801006 46/// /0000 11244 21266 30070 40087 57004=
0108010060999992015011508004+78250+022817FM-12+001499999V0202501N001019999999N999999999-02291-02491100871ADDMA1999999100701MD1790029+9999REMSYN04801006 46/// /2501 11229 21249 30070 40087 54002=EQDQ01.2    3APC3  
0108010060999992015011509004+78250+022817FM-12+001499999V0209999C999999999999N999999999-02361-02571100881ADDMA1999999100701MD1290019+9999REMSYN04801006 46/// /0000 11236 21257 30070 40088 54001=EQDQ01.1    3APC3  
0108010060999992015011510004+78250+022817FM-12+001499999V0202301N001019999999N999999999-02371-02581100891ADDMA1999999100721MD1290029+9999REMSYN04801006 46/// /2301 11237 21258 30072 40089 54002=EQDQ01.2    3APC3  
0089010060999992015011511004+78250+022817FM-12+001499999V0202601N001019999999N999999999-02451-02671100901ADDMA1999999100731MD1210031+9999REMSYN04801006 46/// /2601 11245 21267 30073 40090 52003=
0113010060999992015011512004+78250+022817FM-12+001499999V0209999C999999999999N999999999-02461-02681100921ADDMA1999999100751MD1210041+9999OD139900101999REMSYN05801006 46/// /0000 11246 21268 30075 40092 52004 333 91101=
0089010060999992015011513004+78250+022817FM-12+001499999V0209999C999999999999N999999999-02381-02591100951ADDMA1999999100771MD1210051+9999REMSYN04801006 46/// /0000 11238 21259 30077 40095 52005=
0089010060999992015011514004+78250+022817FM-12+001499999V0209999C999999999999N999999999-02411-02631100991ADDMA1999999100821MD1210091+9999REMSYN04801006 46/// /0000 11241 21263 30082 40099 52009=
0089010060999992015011515004+78250+022817FM-12+001499999V0209999C999999999999N999999999-02291-02501101001ADDMA1999999100831MD1210091+9999REMSYN04801006 46/// /0000 11229 21250 30083 40100 52009=
0089010060999992015011516004+78250+022817FM-12+001499999V0209999C999999999999N999999999-02161-02361101011ADDMA1999999100831MD1310061+9999REMSYN04801006 46/// /0000 11216 21236 30083 40101 53006=
0089010060999992015011517004+78250+022817FM-12+001499999V0203401N001019999999N999999999-02061-02251101031ADDMA1999999100861MD1210041+9999REMSYN04801006 46/// /3401 11206 21225 30086 40103 52004=
0132010060999992015011518004+78250+022817FM-12+001499999V0209999C999999999999N999999999-02081-02271101081ADDKA1120M-02051MA1999999100911MD1110071+9999OD139900101999REMSYN06401006 46/// /0000 11208 21227 30091 40108 51007 333 11205 91101=
0089010060999992015011519004+78250+022817FM-12+001499999V0200901N001019999999N999999999-02191-02391101131ADDMA1999999100961MD1210121+9999REMSYN04801006 46/// /0901 11219 21239 30096 40113 52012=
0089010060999992015011520004+78250+022817FM-12+001499999V0209999C999999999999N999999999-02221-02421101161ADDMA1999999100991MD1210131+9999REMSYN04801006 46/// /0000 11222 21242 30099 40116 52013=
0089010060999992015011521004+78250+022817FM-12+001499999V0209999C999999999999N999999999-02031-02221101191ADDMA1999999101021MD1210121+9999REMSYN04801006 46/// /0000 11203 21222 30102 40119 52012=
0089010060999992015011522004+78250+022817FM-12+001499999V0209999C999999999999N999999999-02091-02281101211ADDMA1999999101031MD1210081+9999REMSYN04801006 46/// /0000 11209 21228 30103 40121 52008=
0089010060999992015011523004+78250+022817FM-12+001499999V0209999C999999999999N999999999-02081-02271101221ADDMA1999999101051MD1210061+9999REMSYN04801006 46/// /0000 11208 21227 30105 40122 52006=
0113010060999992015011600004+78250+022817FM-12+001499999V0203601N001019999999N999999999-01961-02141101241ADDMA1999999101071MD1210051+9999OD139900101999REMSYN05801006 46/// /3601 11196 21214 30107 40124 52005 333 91101=
0108010060999992015011601004+78250+022817FM-12+001499999V0200101N001019999999N999999999-01911-02091101231ADDMA1999999101061MD1290029+9999REMSYN04801006 46/// /0101 11191 21209 30106 40123 54003=EQDQ014     3APCTEN
0108010060999992015011602004+78250+022817FM-12+001499999V0200101N001019999999N999999999-01861-02031101231ADDMA1999999101061MD1290019+9999REMSYN04801006 46/// /0101 11186 21203 30106 40123 54001=EQDQ01.1    3APC3  
0089010060999992015011603004+78250+022817FM-12+001499999V0200101N001019999999N999999999-01831-02001101211ADDMA1999999101041MD1710031+9999REMSYN04801006 46/// /0101 11183 21200 30104 40121 57003=
0089010060999992015011604004+78250+022817FM-12+001499999V0200301N001019999999N999999999-01841-02011101181ADDMA1999999101021MD1710051+9999REMSYN04801006 46/// /0301 11184 21201 30102 40118 57005=
0089010060999992015011605004+78250+022817FM-12+001499999V0200301N001019999999N999999999-01811-01981101171ADDMA1999999101001MD1710061+9999REMSYN04801006 46/// /0301 11181 21198 30100 40117 57006=
0132010060999992015011606004+78250+022817FM-12+001499999V0200201N002019999999N999999999-01791-01961101161ADDKA1240N-02261MA1999999100991MD1710051+9999OD139900201999REMSYN06401006 46/// /0202 11179 21196 30099 40116 57005 333 21226 91102=
0089010060999992015011607004+78250+022817FM-12+001499999V0200301N001019999999N999999999-01761-01931101201ADDMA1999999101031MD1990011+9999REMSYN04801006 46/// /0301 11176 21193 30103 40120 50001=
0089010060999992015011608004+78250+022817FM-12+001499999V0200301N001019999999N999999999-01761-01931101201ADDMA1999999101031MD1210031+9999REMSYN04801006 46/// /0301 11176 21193 30103 40120 52003=
0089010060999992015011609004+78250+022817FM-12+001499999V0200401N001019999999N999999999-01751-01911101221ADDMA1999999101061MD1210071+9999REMSYN04801006 46/// /0401 11175 21191 30106 40122 52007=
0089010060999992015011610004+78250+022817FM-12+001499999V0200401N001019999999N999999999-01731-01891101231ADDMA1999999101061MD1210031+9999REMSYN04801006 46/// /0401 11173 21189 30106 40123 52003=
0089010060999992015011611004+78250+022817FM-12+001499999V0200401N001019999999N999999999-01741-01901101211ADDMA1999999101041MD1510011+9999REMSYN04801006 46/// /0401 11174 21190 30104 40121 55001=
0113010060999992015011612004+78250+022817FM-12+001499999V0200501N003019999999N999999999-01771-01941101191ADDMA1999999101021MD1710031+9999OD139900301999REMSYN05801006 46/// /0503 11177 21194 30102 40119 57003 333 91103=
0089010060999992015011613004+78250+022817FM-12+001499999V0200401N004019999999N999999999-02021-02211101231ADDMA1999999101061MD1990001+9999REMSYN04801006 46/// /0404 11202 21221 30106 40123 50000=
0108010060999992015011614004+78250+022817FM-12+001499999V0200301N004019999999N999999999-02021-02201101231ADDMA1999999101061MD1290029+9999REMSYN04801006 46/// /0304 11202 21220 30106 40123 54002=EQDQ01.2    3APC3  
0089010060999992015011615004+78250+022817FM-12+001499999V0200501N005019999999N999999999-01901-02081101261ADDMA1999999101091MD1210071+9999REMSYN04801006 46/// /0505 11190 21208 30109 40126 52007=
0089010060999992015011616004+78250+022817FM-12+001499999V0200501N007019999999N999999999-01911-02091101261ADDMA1999999101091MD1210031+9999REMSYN04801006 46/// /0507 11191 21209 30109 40126 52003=
0089010060999992015011617004+78250+022817FM-12+001499999V0200501N007019999999N999999999-01981-02171101301ADDMA1999999101131MD1210071+9999REMSYN04801006 46/// /0507 11198 21217 30113 40130 52007=
0132010060999992015011618004+78250+022817FM-12+001499999V0200401N003019999999N999999999-02241-02451101361ADDKA1120M-01721MA1999999101181MD1110101+9999OD139900901999REMSYN06401006 46/// /0403 11224 21245 30118 40136 51010 333 11172 91109=
0089010060999992015011619004+78250+022817FM-12+001499999V0200301N004019999999N999999999-02331-02541101361ADDMA1999999101181MD1310101+9999REMSYN04801006 46/// /0304 11233 21254 30118 40136 53010=
0089010060999992015011620004+78250+022817FM-12+001499999V0200301N006019999999N999999999-02381-02591101381ADDMA1999999101201MD1310071+9999REMSYN04801006 46/// /0306 11238 21259 30120 40138 53007=
0089010060999992015011621004+78250+022817FM-12+001499999V0200301N005019999999N999999999-02491-02721101401ADDMA1999999101231MD1210041+9999REMSYN04801006 46/// /0305 11249 21272 30123 40140 52004=
0089010060999992015011622004+78250+022817FM-12+001499999V0200201N006019999999N999999999-02591-02821101441ADDMA1999999101271MD1210091+9999REMSYN04801006 46/// /0206 11259 21282 30127 40144 52009=
0089010060999992015011623004+78250+022817FM-12+001499999V0200201N005019999999N999999999-02631-02861101451ADDMA1999999101281MD1210071+9999REMSYN04801006 46/// /0205 11263 21286 30128 40145 52007=
0113010060999992015011700004+78250+022817FM-12+001499999V0200301N003019999999N999999999-02711-02951101471ADDMA1999999101291MD1210071+9999OD139900801999REMSYN05801006 46/// /0303 11271 21295 30129 40147 52007 333 91108=
0089010060999992015011701004+78250+022817FM-12+001499999V0200201N001019999999N999999999-02761-03001101481ADDMA1999999101311MD1210041+9999REMSYN04801006 46/// /0201 11276 21300 30131 40148 52004=
0089010060999992015011702004+78250+022817FM-12+001499999V0200201N001019999999N999999999-02841-03091101491ADDMA1999999101311MD1210041+9999REMSYN04801006 46/// /0201 11284 21309 30131 40149 52004=
0089010060999992015011703004+78250+022817FM-12+001499999V0200101N003019999999N999999999-02791-03031101541ADDMA1999999101361MD1110071+9999REMSYN04801006 46/// /0103 11279 21303 30136 40154 51007=
0089010060999992015011704004+78250+022817FM-12+001499999V0200201N003019999999N999999999-02801-03041101531ADDMA1999999101351MD1210051+9999REMSYN04801006 46/// /0203 11280 21304 30135 40153 52005=
0089010060999992015011705004+78250+022817FM-12+001499999V0203601N002019999999N999999999-02761-03001101531ADDMA1999999101361MD1310041+9999REMSYN04801006 46/// /3602 11276 21300 30136 40153 53004=
0151010060999992015011706004+78250+022817FM-12+001499999V0209999C999999999999N999999999-02791-03041101551ADDKA1240N-02861MA1999999101371MD1290019+9999OD139900401999REMSYN06401006 46/// /0000 11279 21304 30137 40155 54001 333 21286 91104=EQDQ01.1    3APC3  
0089010060999992015011707004+78250+022817FM-12+001499999V0200201N001019999999N999999999-02671-02911101581ADDMA1999999101401MD1110051+9999REMSYN04801006 46/// /0201 11267 21291 30140 40158 51005=
0089010060999992015011708004+78250+022817FM-12+001499999V0200401N001019999999N999999999-02701-02941101591ADDMA1999999101411MD1210061+9999REMSYN04801006 46/// /0401 11270 21294 30141 40159 52006=
0089010060999992015011709004+78250+022817FM-12+001499999V0209999C999999999999N999999999-02751-02991101631ADDMA1999999101451MD1210081+9999REMSYN04801006 46/// /0000 11275 21299 30145 40163 52008=
0089010060999992015011710004+78250+022817FM-12+001499999V0202501N001019999999N999999999-02611-02841101661ADDMA1999999101491MD1210081+9999REMSYN04801006 46/// /2501 11261 21284 30149 40166 52008=
0089010060999992015011711004+78250+022817FM-12+001499999V0202301N003019999999N999999999-02561-02791101671ADDMA1999999101501MD1210081+9999REMSYN04801006 46/// /2303 11256 21279 30150 40167 52008=
0113010060999992015011712004+78250+022817FM-12+001499999V0202201N004019999999N999999999-02551-02781101681ADDMA1999999101501MD1210051+9999OD139900401999REMSYN05801006 46/// /2204 11255 21278 30150 40168 52005 333 91104=
0108010060999992015011713004+78250+022817FM-12+001499999V0202201N004019999999N999999999-02411-02631101671ADDMA1999999101501MD1290019+9999REMSYN04801006 46/// /2204 11241 21263 30150 40167 54001=EQDQ01.1    3APC3  
0089010060999992015011714004+78250+022817FM-12+001499999V0202201N003019999999N999999999-02311-02521101701ADDMA1999999101531MD1210031+9999REMSYN04801006 46/// /2203 11231 21252 30153 40170 52003=
0089010060999992015011715004+78250+022817FM-12+001499999V0202201N003019999999N999999999-02281-02491101711ADDMA1999999101531MD1210031+9999REMSYN04801006 46/// /2203 11228 21249 30153 40171 52003=
0089010060999992015011716004+78250+022817FM-12+001499999V0202201N003019999999N999999999-02231-02431101711ADDMA1999999101541MD1210041+9999REMSYN04801006 46/// /2203 11223 21243 30154 40171 52004=
0089010060999992015011717004+78250+022817FM-12+001499999V0202201N003019999999N999999999-02261-02471101731ADDMA1999999101561MD1210031+9999REMSYN04801006 46/// /2203 11226 21247 30156 40173 52003=
0132010060999992015011718004+78250+022817FM-12+001499999V0202201N003019999999N999999999-02241-02451101761ADDKA1120M-02201MA1999999101591MD1210061+9999OD139900501999REMSYN06401006 46/// /2203 11224 21245 30159 40176 52006 333 11220 91105=
0089010060999992015011719004+78250+022817FM-12+001499999V0202201N004019999999N999999999-02211-02411101791ADDMA1999999101621MD1210081+9999REMSYN04801006 46/// /2204 11221 21241 30162 40179 52008=
0089010060999992015011720004+78250+022817FM-12+001499999V0202201N004019999999N999999999-02151-02351101791ADDMA1999999101621MD1310061+9999REMSYN04801006 46/// /2204 11215 21235 30162 40179 53006=
0089010060999992015011721004+78250+022817FM-12+001499999V0202301N004019999999N999999999-02191-02391101831ADDMA1999999101651MD1210061+9999REMSYN04801006 46/// /2304 11219 21239 30165 40183 52006=
0089010060999992015011722004+78250+022817FM-12+001499999V0202301N005019999999N999999999-02351-02571101831ADDMA1999999101651MD1210031+9999REMSYN04801006 46/// /2305 11235 21257 30165 40183 52003=
0089010060999992015011723004+78250+022817FM-12+001499999V0202201N004019999999N999999999-02041-02241101831ADDMA1999999101661MD1310041+9999REMSYN04801006 46/// /2204 11204 21224 30166 40183 53004=
0113010060999992015011800004+78250+022817FM-12+001499999V0202201N004019999999N999999999-02111-02331101821ADDMA1999999101651MD1410001+9999OD139900601999REMSYN05801006 46/// /2204 11211 21233 30165 40182 54000 333 91106=
0089010060999992015011801004+78250+022817FM-12+001499999V0202201N005019999999N999999999-02301-02551101781ADDMA1999999101611MD1610041+9999REMSYN04801006 46/// /2205 11230 21255 30161 40178 56004=
0089010060999992015011802004+78250+022817FM-12+001499999V0202301N008019999999N999999999-02101-02441101731ADDMA1999999101561MD1610101+9999REMSYN04801006 46/// /2308 11210 21244 30156 40173 56010=
0089010060999992015011803004+78250+022817FM-12+001499999V0202301N008019999999N999999999-02061-02371101751ADDMA1999999101581MD1810071+9999REMSYN04801006 46/// /2308 11206 21237 30158 40175 58007=
0089010060999992015011804004+78250+022817FM-12+001499999V0202301N008019999999N999999999-01991-02251101721ADDMA1999999101551MD1710061+9999REMSYN04801006 46/// /2308 11199 21225 30155 40172 57006=
0108010060999992015011805004+78250+022817FM-12+001499999V0202401N008019999999N999999999-01941-02201101721ADDMA1999999101551MD1790019+9999REMSYN04801006 46/// /2408 11194 21220 30155 40172 54001=EQDQ01.1    3APC3  
0132010060999992015011806004+78250+022817FM-12+001499999V0202301N008019999999N999999999-01971-02151101691ADDKA1240N-02421MA1999999101521MD1710061+9999OD139900901999REMSYN06401006 46/// /2308 11197 21215 30152 40169 57006 333 21242 91109=
0089010060999992015011807004+78250+022817FM-12+001499999V0202401N007019999999N999999999-01931-02121101681ADDMA1999999101511MD1710041+9999REMSYN04801006 46/// /2407 11193 21212 30151 40168 57004=
0089010060999992015011808004+78250+022817FM-12+001499999V0202401N008019999999N999999999-01901-02091101671ADDMA1999999101501MD1710051+9999REMSYN04801006 46/// /2408 11190 21209 30150 40167 57005=
0089010060999992015011809004+78250+022817FM-12+001499999V0202401N007019999999N999999999-01911-02181101621ADDMA1999999101451MD1610071+9999REMSYN04801006 46/// /2407 11191 21218 30145 40162 56007=
0089010060999992015011810004+78250+022817FM-12+001499999V0202301N007019999999N999999999-02001-02271101571ADDMA1999999101401MD1610111+9999REMSYN04801006 46/// /2307 11200 21227 30140 40157 56011=
0089010060999992015011811004+78250+022817FM-12+001499999V0202301N008019999999N999999999-01841-02051101491ADDMA1999999101321MD1610181+9999REMSYN04801006 46/// /2308 11184 21205 30132 40149 56018=
0113010060999992015011812004+78250+022817FM-12+001499999V0202301N008019999999N999999999-01791-02051101411ADDMA1999999101241MD1610221+9999OD139900901999REMSYN05801006 46/// /2308 11179 21205 30124 40141 56022 333 91109=
0089010060999992015011813004+78250+022817FM-12+001499999V0202301N007019999999N999999999-01611-01821101291ADDMA1999999101121MD1610281+9999REMSYN04801006 46/// /2307 11161 21182 30112 40129 56028=
0089010060999992015011814004+78250+022817FM-12+001499999V0202301N010019999999N999999999-01591-01871101171ADDMA1999999101001MD1610321+9999REMSYN04801006 46/// /2310 11159 21187 30100 40117 56032=
0089010060999992015011815004+78250+022817FM-12+001499999V0202201N003019999999N999999999-01391-01671101101ADDMA1999999100931MD1810311+9999REMSYN04801006 46/// /2203 11139 21167 30093 40110 58031=
0089010060999992015011816004+78250+022817FM-12+001499999V0202601N007019999999N999999999-01131-01401101021ADDMA1999999100861MD1810261+9999REMSYN04801006 46/// /2607 11113 21140 30086 40102 58026=
0089010060999992015011817004+78250+022817FM-12+001499999V0202601N008019999999N999999999-01111-01321100931ADDMA1999999100761MD1710241+9999REMSYN04801006 46/// /2608 11111 21132 30076 40093 57024=
0132010060999992015011818004+78250+022817FM-12+001499999V0202801N008019999999N999999999-01201-01331100881ADDKA1120M-01071MA1999999100721MD1710211+9999OD139901001999REMSYN06401006 46/// /2808 11120 21133 30072 40088 57021 333 11107 91110=
0089010060999992015011819004+78250+022817FM-12+001499999V0203301N002019999999N999999999-01051-01171101031ADDMA1999999100861MD1990001+9999REMSYN04801006 46/// /3302 11105 21117 30086 40103 50000=
0089010060999992015011820004+78250+022817FM-12+001499999V0203401N006019999999N999999999-01091-01391101111ADDMA1999999100941MD1990181+9999REMSYN04801006 46/// /3406 11109 21139 30094 40111 50018=
0089010060999992015011821004+78250+022817FM-12+001499999V0203501N006019999999N999999999-01221-01491101191ADDMA1999999101021MD1310301+9999REMSYN04801006 46/// /3506 11122 21149 30102 40119 53030=
0089010060999992015011822004+78250+022817FM-12+001499999V0203401N006019999999N999999999-01321-01521101271ADDMA1999999101111MD1210241+9999REMSYN04801006 46/// /3406 11132 21152 30111 40127 52024=
0089010060999992015011823004+78250+022817FM-12+001499999V0203601N010019999999N999999999-01411-01641101351ADDMA1999999101181MD1210241+9999REMSYN04801006 46/// /3610 11141 21164 30118 40135 52024=
0113010060999992015011900004+78250+022817FM-12+001499999V0203601N010019999999N999999999-01481-01771101371ADDMA1999999101201MD1310181+9999OD139901301999REMSYN05801006 46/// /3610 11148 21177 30120 40137 53018 333 91113=
0089010060999992015011901004+78250+022817FM-12+001499999V0200101N006019999999N999999999-01571-01881101481ADDMA1999999101311MD1110211+9999REMSYN04801006 46/// /0106 11157 21188 30131 40148 51021=
0089010060999992015011902004+78250+022817FM-12+001499999V0203101N003019999999N999999999-01581-01841101541ADDMA1999999101371MD1110191+9999REMSYN04801006 46/// /3103 11158 21184 30137 40154 51019=
0089010060999992015011903004+78250+022817FM-12+001499999V0202001N002019999999N999999999-01491-01831101551ADDMA1999999101381MD1310181+9999REMSYN04801006 46/// /2002 11149 21183 30138 40155 53018=
0089010060999992015011904004+78250+022817FM-12+001499999V0202101N004019999999N999999999-01531-01871101541ADDMA1999999101371MD1310061+9999REMSYN04801006 46/// /2104 11153 21187 30137 40154 53006=
0089010060999992015011905004+78250+022817FM-12+001499999V0201801N004019999999N999999999-01731-02101101441ADDMA1999999101271MD1610101+9999REMSYN04801006 46/// /1804 11173 21210 30127 40144 56010=
0132010060999992015011906004+78250+022817FM-12+001499999V0201401N004019999999N999999999-01601-02011101371ADDKA1240N-01771MA1999999101201MD1610181+9999OD139901001999REMSYN06401006 46/// /1404 11160 21201 30120 40137 56018 333 21177 91110=
0089010060999992015011907004+78250+022817FM-12+001499999V0201801N008019999999N999999999-01601-01921101231ADDMA1999999101061MD1610311+9999REMSYN04801006 46/// /1808 11160 21192 30106 40123 56031=
0089010060999992015011908004+78250+022817FM-12+001499999V0201701N005019999999N999999999-01581-01901101231ADDMA1999999101061MD1810211+9999REMSYN04801006 46/// /1705 11158 21190 30106 40123 58021=
0089010060999992015011909004+78250+022817FM-12+001499999V0201301N004019999999N999999999-01591-01801101091ADDMA1999999100921MD1710281+9999REMSYN04801006 46/// /1304 11159 21180 30092 40109 57028=
0089010060999992015011910004+78250+022817FM-12+001499999V0201901N008019999999N999999999-01191-01451100931ADDMA1999999100761MD1610301+9999REMSYN04801006 46/// /1908 11119 21145 30076 40093 56030=
0089010060999992015011911004+78250+022817FM-12+001499999V0202201N006019999999N999999999-00861-01081100771ADDMA1999999100611MD1710451+9999REMSYN04801006 46/// /2206 11086 21108 30061 40077 57045=
0113010060999992015011912004+78250+022817FM-12+001499999V0202201N009019999999N999999999-00771-01011100631ADDMA1999999100471MD1710451+9999OD139901001999REMSYN05801006 46/// /2209 11077 21101 30047 40063 57045 333 91110=
0089010060999992015011913004+78250+022817FM-12+001499999V0202101N010019999999N999999999-00641-00881100451ADDMA1999999100291MD1710471+9999REMSYN04801006 46/// /2110 11064 21088 30029 40045 57047=
0089010060999992015011914004+78250+022817FM-12+001499999V0202001N010019999999N999999999-00641-00811100351ADDMA1999999100191MD1810421+9999REMSYN04801006 46/// /2010 11064 21081 30019 40035 58042=
0089010060999992015011915004+78250+022817FM-12+001499999V0202401N010019999999N999999999-00421-00621100271ADDMA1999999100111MD1810361+9999REMSYN04801006 46/// /2410 11042 21062 30011 40027 58036=
0089010060999992015011916004+78250+022817FM-12+001499999V0202301N010019999999N999999999-00421-00601100211ADDMA1999999100051MD1810241+9999REMSYN04801006 46/// /2310 11042 21060 30005 40021 58024=
0089010060999992015011917004+78250+022817FM-12+001499999V0202401N010019999999N999999999-00401-00591100161ADDMA1999999100001MD1710181+9999REMSYN04801006 46/// /2410 11040 21059 30000 40016 57018=
0132010060999992015011918004+78250+022817FM-12+001499999V0202401N008019999999N999999999-00421-00601100111ADDKA1120M-00381MA1999999099951MD1710161+9999OD139901301999REMSYN06401006 46/// /2408 11042 21060 39995 40011 57016 333 11038 91113=
0089010060999992015011919004+78250+022817FM-12+001499999V0202401N007019999999N999999999-00411-00601100091ADDMA1999999099941MD1810121+9999REMSYN04801006 46/// /2407 11041 21060 39994 40009 58012=
0089010060999992015011920004+78250+022817FM-12+001499999V0202401N006019999999N999999999-00361-00551100111ADDMA1999999099951MD1810061+9999REMSYN04801006 46/// /2406 11036 21055 39995 40011 58006=
0089010060999992015011921004+78250+022817FM-12+001499999V0202601N006019999999N999999999-00331-00531100111ADDMA1999999099951MD1410001+9999REMSYN04801006 46/// /2606 11033 21053 39995 40011 54000=
0089010060999992015011922004+78250+022817FM-12+001499999V0202701N007019999999N999999999-00431-00661100131ADDMA1999999099971MD1210031+9999REMSYN04801006 46/// /2707 11043 21066 39997 40013 52003=
0108010060999992015011923004+78250+022817FM-12+001499999V0202701N008019999999N999999999-00531-00751100131ADDMA1999999099981MD1290029+9999REMSYN04801006 46/// /2708 11053 21075 39998 40013 54003=EQDQ01.3    3APC3  
0132010060999992015012000004+78250+022817FM-12+001499999V0202801N009019999999N999999999-00601-00791100141ADDMA1999999099981MD1290039+9999OD139901001999REMSYN05801006 46/// /2809 11060 21079 39998 40014 54003 333 91110=EQDQ01.3    3APC3  
0089010060999992015012001004+78250+022817FM-12+001499999V0202801N009019999999N999999999-00451-00651100131ADDMA1999999099971MD1410001+9999REMSYN04801006 46/// /2809 11045 21065 39997 40013 54000=
0108010060999992015012002004+78250+022817FM-12+001499999V0202801N010019999999N999999999-00341-00591100121ADDMA1999999099961MD1790019+9999REMSYN04801006 46/// /2810 11034 21059 39996 40012 54002=EQDQ01.2    3APC3  
0089010060999992015012003004+78250+022817FM-12+001499999V0202901N007019999999N999999999-00491-00691100151ADDMA1999999099991MD1990011+9999REMSYN04801006 46/// /2907 11049 21069 39999 40015 50001=
0089010060999992015012004004+78250+022817FM-12+001499999V0202701N006019999999N999999999-00511-00731100181ADDMA1999999100031MD1110061+9999REMSYN04801006 46/// /2706 11051 21073 30003 40018 51006=
0089010060999992015012005004+78250+022817FM-12+001499999V0202501N004019999999N999999999-00621-00791100251ADDMA1999999100091MD1110131+9999REMSYN04801006 46/// /2504 11062 21079 30009 40025 51013=
0132010060999992015012006004+78250+022817FM-12+001499999V0203101N003019999999N999999999-00551-00851100361ADDKA1240N-00681MA1999999100201MD1110211+9999OD139901201999REMSYN06401006 46/// /3103 11055 21085 30020 40036 51021 333 21068 91112=
0089010060999992015012007004+78250+022817FM-12+001499999V0203201N002019999999N999999999-01311-01401100441ADDMA1999999100271MD1210251+9999REMSYN04801006 46/// /3202 11131 21140 30027 40044 52025=
0089010060999992015012008004+78250+022817FM-12+001499999V0201101N003019999999N999999999-01351-01441100591ADDMA1999999100431MD1110341+9999REMSYN04801006 46/// /1103 11135 21144 30043 40059 51034=
0089010060999992015012009004+78250+022817FM-12+001499999V0209999C999999999999N999999999-01131-01251100681ADDMA1999999100521MD1210321+9999REMSYN04801006 46/// /0000 11113 21125 30052 40068 52032=
0089010060999992015012010004+78250+022817FM-12+001499999V0209999C999999999999N999999999-01091-01211100801ADDMA1999999100631MD1310361+9999REMSYN04801006 46/// /0000 11109 21121 30063 40080 53036=
0089010060999992015012011004+78250+022817FM-12+001499999V0203001N001019999999N999999999-00961-01081100921ADDMA1999999100761MD1110331+9999REMSYN04801006 46/// /3001 11096 21108 30076 40092 51033=
0113010060999992015012012004+78250+022817FM-12+001499999V0203101N001019999999N999999999-00931-01061100991ADDMA1999999100831MD1310321+9999OD139900601999REMSYN05801006 46/// /3101 11093 21106 30083 40099 53032 333 91106=
0089010060999992015012013004+78250+022817FM-12+001499999V0203001N002019999999N999999999-00921-01051101081ADDMA1999999100921MD1310291+9999REMSYN04801006 46/// /3002 11092 21105 30092 40108 53029=
0089010060999992015012014004+78250+022817FM-12+001499999V0203501N002019999999N999999999-00871-01041101211ADDMA1999999101051MD1110291+9999REMSYN04801006 46/// /3502 11087 21104 30105 40121 51029=
0089010060999992015012015004+78250+022817FM-12+001499999V0203601N001019999999N999999999-00891-01091101311ADDMA1999999101151MD1210321+9999REMSYN04801006 46/// /3601 11089 21109 30115 40131 52032=
0089010060999992015012016004+78250+022817FM-12+001499999V0209999C999999999999N999999999-00881-01101101391ADDMA1999999101221MD1310301+9999REMSYN04801006 46/// /0000 11088 21110 30122 40139 53030=
0089010060999992015012017004+78250+022817FM-12+001499999V0202501N001019999999N999999999-00901-01121101491ADDMA1999999101321MD1210281+9999REMSYN04801006 46/// /2501 11090 21112 30132 40149 52028=
0132010060999992015012018004+78250+022817FM-12+001499999V0200601N002019999999N999999999-00921-01161101551ADDKA1120M-00571MA1999999101391MD1210241+9999OD139900301999REMSYN06401006 46/// /0602 11092 21116 30139 40155 52024 333 11057 91103=
0089010060999992015012019004+78250+022817FM-12+001499999V0200601N001019999999N999999999-01041-01211101671ADDMA1999999101511MD1210291+9999REMSYN04801006 46/// /0601 11104 21121 30151 40167 52029=
0089010060999992015012020004+78250+022817FM-12+001499999V0202801N001019999999N999999999-01081-01211101761ADDMA1999999101591MD1210271+9999REMSYN04801006 46/// /2801 11108 21121 30159 40176 52027=
0089010060999992015012021004+78250+022817FM-12+001499999V0209999C999999999999N999999999-01061-01191101841ADDMA1999999101671MD1310281+9999REMSYN04801006 46/// /0000 11106 21119 30167 40184 53028=
0089010060999992015012022004+78250+022817FM-12+001499999V0209999C999999999999N999999999-01121-01251101921ADDMA1999999101751MD1210241+9999REMSYN04801006 46/// /0000 11112 21125 30175 40192 52024=
0089010060999992015012023004+78250+022817FM-12+001499999V0201201N002019999999N999999999-01181-01301101991ADDMA1999999101831MD1210231+9999REMSYN04801006 46/// /1202 11118 21130 30183 40199 52023=
0113010060999992015012100004+78250+022817FM-12+001499999V0201301N004019999999N999999999-01141-01261102021ADDMA1999999101851MD1310181+9999OD139900401999REMSYN05801006 46/// /1304 11114 21126 30185 40202 53018 333 91104=
0089010060999992015012101004+78250+022817FM-12+001499999V0201201N003019999999N999999999-01131-01231102071ADDMA1999999101911MD1210151+9999REMSYN04801006 46/// /1203 11113 21123 30191 40207 52015=
0089010060999992015012102004+78250+022817FM-12+001499999V0201301N006019999999N999999999-01151-01301102081ADDMA1999999101911MD1210081+9999REMSYN04801006 46/// /1306 11115 21130 30191 40208 52008=
0089010060999992015012103004+78250+022817FM-12+001499999V0201201N006019999999N999999999-01171-01321102121ADDMA1999999101951MD1210101+9999REMSYN04801006 46/// /1206 11117 21132 30195 40212 52010=
0089010060999992015012104004+78250+022817FM-12+001499999V0201201N005019999999N999999999-01131-01261102121ADDMA1999999101951MD1210051+9999REMSYN04801006 46/// /1205 11113 21126 30195 40212 52005=
0089010060999992015012105004+78250+022817FM-12+001499999V0201101N006019999999N999999999-01011-01151102161ADDMA1999999101991MD1210081+9999REMSYN04801006 46/// /1106 11101 21115 30199 40216 52008=
0132010060999992015012106004+78250+022817FM-12+001499999V0201701N007019999999N999999999-00911-01081102111ADDKA1240N-01201MA1999999101951MD1510001+9999OD139900901999REMSYN06401006 46/// /1707 11091 21108 30195 40211 55000 333 21120 91109=
0089010060999992015012107004+78250+022817FM-12+001499999V0201501N003019999999N999999999-00921-01081102161ADDMA1999999102001MD1210051+9999REMSYN04801006 46/// /1503 11092 21108 30200 40216 52005=
0089010060999992015012108004+78250+022817FM-12+001499999V0202501N001019999999N999999999-01021-01161102211ADDMA1999999102051MD1990061+9999REMSYN04801006 46/// /2501 11102 21116 30205 40221 50006=
0089010060999992015012109004+78250+022817FM-12+001499999V0200901N001019999999N999999999-01071-01211102241ADDMA1999999102071MD1210131+9999REMSYN04801006 46/// /0901 11107 21121 30207 40224 52013=
0089010060999992015012110004+78250+022817FM-12+001499999V0201501N001019999999N999999999-00971-01111102241ADDMA1999999102081MD1310081+9999REMSYN04801006 46/// /1501 11097 21111 30208 40224 53008=
0089010060999992015012111004+78250+022817FM-12+001499999V0203301N002019999999N999999999-01061-01171102271ADDMA1999999102101MD1210061+9999REMSYN04801006 46/// /3302 11106 21117 30210 40227 52006=
0132010060999992015012112004+78250+022817FM-12+001499999V0203501N002019999999N999999999-01151-01251102251ADDMA1999999102091MD1290019+9999OD139900801999REMSYN05801006 46/// /3502 11115 21125 30209 40225 54001 333 91108=EQDQ01.1    3APC3  
0089010060999992015012113004+78250+022817FM-12+001499999V0209999C999999999999N999999999-01201-01321102211ADDMA1999999102041MD1610041+9999REMSYN04801006 46/// /0000 11120 21132 30204 40221 56004=
0089010060999992015012114004+78250+022817FM-12+001499999V0202901N001019999999N999999999-01271-01361102151ADDMA1999999101981MD1610121+9999REMSYN04801006 46/// /2901 11127 21136 30198 40215 56012=
0089010060999992015012115004+78250+022817FM-12+001499999V0209999C999999999999N999999999-01281-01381102091ADDMA1999999101921MD1710171+9999REMSYN04801006 46/// /0000 11128 21138 30192 40209 57017=
0089010060999992015012116004+78250+022817FM-12+001499999V0209999C999999999999N999999999-01361-01461102041ADDMA1999999101871MD1710171+9999REMSYN04801006 46/// /0000 11136 21146 30187 40204 57017=
0089010060999992015012117004+78250+022817FM-12+001499999V0202501N001019999999N999999999-01331-01451101971ADDMA1999999101811MD1710171+9999REMSYN04801006 46/// /2501 11133 21145 30181 40197 57017=
0132010060999992015012118004+78250+022817FM-12+001499999V0201401N002019999999N999999999-01361-01471101841ADDKA1120M-00881MA1999999101681MD1610251+9999OD139900401999REMSYN06401006 46/// /1402 11136 21147 30168 40184 56025 333 11088 91104=
0089010060999992015012119004+78250+022817FM-12+001499999V0200601N002019999999N999999999-00931-00951101731ADDMA1999999101561MD1610311+9999REMSYN04801006 46/// /0602 11093 21095 30156 40173 56031=
0089010060999992015012120004+78250+022817FM-12+001499999V0201901N005019999999N999999999-00631-00891101611ADDMA1999999101451MD1710361+9999REMSYN04801006 46/// /1905 11063 21089 30145 40161 57036=
0089010060999992015012121004+78250+022817FM-12+001499999V0201701N007019999999N999999999-00441-00641101471ADDMA1999999101311MD1710371+9999REMSYN04801006 46/// /1707 11044 21064 30131 40147 57037=
0089010060999992015012122004+78250+022817FM-12+001499999V0201901N014019999999N999999999-00431-00591101251ADDMA1999999101091MD1610471+9999REMSYN04801006 46/// /1914 11043 21059 30109 40125 56047=
0089010060999992015012123004+78250+022817FM-12+001499999V0201901N015019999999N999999999-00341-00411100971ADDMA1999999100811MD1610631+9999REMSYN04801006 46/// /1915 11034 21041 30081 40097 56063=
0113010060999992015012200004+78250+022817FM-12+001499999V0201901N016019999999N999999999-00271-00381100811ADDMA1999999100661MD1810651+9999OD139902001999REMSYN05801006 46/// /1916 11027 21038 30066 40081 58065 333 91120=
0089010060999992015012201004+78250+022817FM-12+001499999V0202001N015019999999N999999999-00141-00251100721ADDMA1999999100561MD1810531+9999REMSYN04801006 46/// /2015 11014 21025 30056 40072 58053=
0089010060999992015012202004+78250+022817FM-12+001499999V0202301N015019999999N999999999+00151+00001100701ADDMA1999999100541MD1810271+9999REMSYN04801006 46/// /2315 10015 20000 30054 40070 58027=
0089010060999992015012203004+78250+022817FM-12+001499999V0202301N016019999999N999999999+00181-00011100611ADDMA1999999100451MD1710201+9999REMSYN04801006 46/// /2316 10018 21001 30045 40061 57020=
0089010060999992015012204004+78250+022817FM-12+001499999V0202301N020019999999N999999999+00181-00061100451ADDMA1999999100301MD1610261+9999REMSYN04801006 46/// /2320 10018 21006 30030 40045 56026=
0089010060999992015012205004+78250+022817FM-12+001499999V0202301N019019999999N999999999+00211-00051100431ADDMA1999999100281MD1810271+9999REMSYN04801006 46/// /2319 10021 21005 30028 40043 58027=
0132010060999992015012206004+78250+022817FM-12+001499999V0202301N018019999999N999999999+00191-00051100431ADDKA1240N-01831MA1999999100271MD1810181+9999OD139902301999REMSYN06401006 46/// /2318 10019 21005 30027 40043 58018 333 21183 91123=
0089010060999992015012207004+78250+022817FM-12+001499999V0202301N017019999999N999999999+00151-00071100451ADDMA1999999100291MD1990011+9999REMSYN04801006 46/// /2317 10015 21007 30029 40045 50001=
0108010060999992015012208004+78250+022817FM-12+001499999V0202301N015019999999N999999999+00131-00081100461ADDMA1999999100311MD1290039+9999REMSYN04801006 46/// /2315 10013 21008 30031 40046 54003=EQDQ01.3    3APC3  
0089010060999992015012209004+78250+022817FM-12+001499999V0202401N016019999999N999999999+00111-00071100441ADDMA1999999100281MD1510011+9999REMSYN04801006 46/// /2416 10011 21007 30028 40044 55001=
0089010060999992015012210004+78250+022817FM-12+001499999V0202401N019019999999N999999999+00091-00051100421ADDMA1999999100261MD1510031+9999REMSYN04801006 46/// /2419 10009 21005 30026 40042 55003=
0089010060999992015012211004+78250+022817FM-12+001499999V0202401N017019999999N999999999+00091-00051100441ADDMA1999999100281MD1990021+9999REMSYN04801006 46/// /2417 10009 21005 30028 40044 50002=
0132010060999992015012212004+78250+022817FM-12+001499999V0202401N018019999999N999999999+00111-00031100421ADDMA1999999100261MD1790029+9999OD139902101999REMSYN05801006 46/// /2418 10011 21003 30026 40042 54002 333 91121=EQDQ01.2    3APC3  
0108010060999992015012213004+78250+022817FM-12+001499999V0202401N018019999999N999999999+00101-00041100421ADDMA1999999100271MD1410009+9999REMSYN04801006 46/// /2418 10010 21004 30027 40042 54001=EQDQ01.1    3APC3  
0089010060999992015012214004+78250+022817FM-12+001499999V0202401N019019999999N999999999+00141-00071100361ADDMA1999999100211MD1610081+9999REMSYN04801006 46/// /2419 10014 21007 30021 40036 56008=
0089010060999992015012215004+78250+022817FM-12+001499999V0202401N020019999999N999999999+00081-00101100341ADDMA1999999100181MD1710081+9999REMSYN04801006 46/// /2420 10008 21010 30018 40034 57008=
0089010060999992015012216004+78250+022817FM-12+001499999V0202401N016019999999N999999999+00081-00141100461ADDMA1999999100301MD1990041+9999REMSYN04801006 46/// /2416 10008 21014 30030 40046 50004=
0089010060999992015012217004+78250+022817FM-12+001499999V0202401N017019999999N999999999+00091-00161100481ADDMA1999999100321MD1110121+9999REMSYN04801006 46/// /2417 10009 21016 30032 40048 51012=
0132010060999992015012218004+78250+022817FM-12+001499999V0202401N017019999999N999999999+00111-00211100471ADDKA1120M+00181MA1999999100311MD1310131+9999OD139902301999REMSYN06401006 46/// /2417 10011 21021 30031 40047 53013 333 10018 91123=
0089010060999992015012219004+78250+022817FM-12+001499999V0202401N014019999999N999999999+00021-00251100421ADDMA1999999100271MD1610041+9999REMSYN04801006 46/// /2414 10002 21025 30027 40042 56004=
0089010060999992015012220004+78250+022817FM-12+001499999V0202301N014019999999N999999999+00041-00181100421ADDMA1999999100261MD1710061+9999REMSYN04801006 46/// /2314 10004 21018 30026 40042 57006=
0089010060999992015012221004+78250+022817FM-12+001499999V0202401N015019999999N999999999+00081-00141100401ADDMA1999999100251MD1810071+9999REMSYN04801006 46/// /2415 10008 21014 30025 40040 58007=
0089010060999992015012222004+78250+022817FM-12+001499999V0202501N018019999999N999999999+00101-00121100321ADDMA1999999100171MD1610101+9999REMSYN04801006 46/// /2518 10010 21012 30017 40032 56010=
0089010060999992015012223004+78250+022817FM-12+001499999V0202401N021019999999N999999999+00031-00141100291ADDMA1999999100141MD1710131+9999REMSYN04801006 46/// /2421 10003 21014 30014 40029 57013=
0113010060999992015012300004+78250+022817FM-12+001499999V0202401N021019999999N999999999+00041-00121100321ADDMA1999999100161MD1810081+9999OD139902501999REMSYN05801006 46/// /2421 10004 21012 30016 40032 58008 333 91125=
0089010060999992015012301004+78250+022817FM-12+001499999V0202401N019019999999N999999999+00081-00111100341ADDMA1999999100181MD1990021+9999REMSYN04801006 46/// /2419 10008 21011 30018 40034 50002=
0089010060999992015012302004+78250+022817FM-12+001499999V0202401N021019999999N999999999+00011-00091100261ADDMA1999999100101MD1610041+9999REMSYN04801006 46/// /2421 10001 21009 30010 40026 56004=
0089010060999992015012303004+78250+022817FM-12+001499999V0202401N019019999999N999999999+00001-00091100221ADDMA1999999100061MD1610101+9999REMSYN04801006 46/// /2419 10000 21009 30006 40022 56010=
0089010060999992015012304004+78250+022817FM-12+001499999V0202401N014019999999N999999999+00011-00101100261ADDMA1999999100111MD1810081+9999REMSYN04801006 46/// /2414 10001 21010 30011 40026 58008=
0089010060999992015012305004+78250+022817FM-12+001499999V0202501N018019999999N999999999+00051-00091100221ADDMA1999999100061MD1710041+9999REMSYN04801006 46/// /2518 10005 21009 30006 40022 57004=
0132010060999992015012306004+78250+022817FM-12+001499999V0202501N020019999999N999999999+00031-00131100151ADDKA1240N-00021MA1999999100001MD1510071+9999OD139902501999REMSYN06401006 46/// /2520 10003 21013 30000 40015 55007 333 21002 91125=
0089010060999992015012307004+78250+022817FM-12+001499999V0202301N012019999999N999999999+00031-00211100371ADDMA1999999100221MD1990111+9999REMSYN04801006 46/// /2312 10003 21021 30022 40037 50011=
0089010060999992015012308004+78250+022817FM-12+001499999V0202201N010019999999N999999999+00091-00301100471ADDMA1999999100311MD1990251+9999REMSYN04801006 46/// /2210 10009 21030 30031 40047 50025=
0089010060999992015012309004+78250+022817FM-12+001499999V0202001N009019999999N999999999-00061-00341100491ADDMA1999999100331MD1310341+9999REMSYN04801006 46/// /2009 11006 21034 30033 40049 53034=
0089010060999992015012310004+78250+022817FM-12+001499999V0202201N016019999999N999999999+00031-00321100481ADDMA1999999100321MD1310101+9999REMSYN04801006 46/// /2216 10003 21032 30032 40048 53010=
0089010060999992015012311004+78250+022817FM-12+001499999V0202301N009019999999N999999999-00091-00361100571ADDMA1999999100411MD1110091+9999REMSYN04801006 46/// /2309 11009 21036 30041 40057 51009=
0113010060999992015012312004+78250+022817FM-12+001499999V0202601N007019999999N999999999-00151-00361100571ADDMA1999999100421MD1210081+9999OD139902101999REMSYN05801006 46/// /2607 11015 21036 30042 40057 52008 333 91121=
0089010060999992015012313004+78250+022817FM-12+001499999V0202301N010019999999N999999999-00041-00261100571ADDMA1999999100411MD1310091+9999REMSYN04801006 46/// /2310 11004 21026 30041 40057 53009=
0108010060999992015012314004+78250+022817FM-12+001499999V0202301N008019999999N999999999-00091-00271100591ADDMA1999999100431MD1290029+9999REMSYN04801006 46/// /2308 11009 21027 30043 40059 54002=EQDQ01.2    3APC3  
0108010060999992015012315004+78250+022817FM-12+001499999V0202301N008019999999N999999999+00001-00131100561ADDMA1999999100401MD1790019+9999REMSYN04801006 46/// /2308 10000 21013 30040 40056 54002=EQDQ01.2    3APC3  
0089010060999992015012316004+78250+022817FM-12+001499999V0202301N011019999999N999999999+00041-00171100521ADDMA1999999100361MD1610051+9999REMSYN04801006 46/// /2311 10004 21017 30036 40052 56005=
0089010060999992015012317004+78250+022817FM-12+001499999V0202101N009019999999N999999999-00101-00281100521ADDMA1999999100361MD1710071+9999REMSYN04801006 46/// /2109 11010 21028 30036 40052 57007=
0132010060999992015012318004+78250+022817FM-12+001499999V0202201N007019999999N999999999-00311-00491100531ADDKA1120M+00161MA1999999100381MD1990021+9999OD139901301999REMSYN06401006 46/// /2207 11031 21049 30038 40053 50002 333 10016 91113=
0108010060999992015012319004+78250+022817FM-12+001499999V0202101N001019999999N999999999-00121-00301100541ADDMA1999999100381MD1290029+9999REMSYN04801006 46/// /2101 11012 21030 30038 40054 54002=EQDQ01.2    3APC3  
0089010060999992015012320004+78250+022817FM-12+001499999V0202101N005019999999N999999999-00301-00461100521ADDMA1999999100361MD1510001+9999REMSYN04801006 46/// /2105 11030 21046 30036 40052 55000=
0089010060999992015012321004+78250+022817FM-12+001499999V0202101N008019999999N999999999-00231-00441100501ADDMA1999999100341MD1710031+9999REMSYN04801006 46/// /2108 11023 21044 30034 40050 57003=
0089010060999992015012322004+78250+022817FM-12+001499999V0202301N007019999999N999999999-00121-00371100501ADDMA1999999100341MD1710051+9999REMSYN04801006 46/// /2307 11012 21037 30034 40050 57005=
0089010060999992015012323004+78250+022817FM-12+001499999V0201901N008019999999N999999999-00221-00441100461ADDMA1999999100311MD1710061+9999REMSYN04801006 46/// /1908 11022 21044 30031 40046 57006=
0113010060999992015012400004+78250+022817FM-12+001499999V0201801N008019999999N999999999-00201-00371100441ADDMA1999999100281MD1710061+9999OD139901001999REMSYN05801006 46/// /1808 11020 21037 30028 40044 57006 333 91110=
0089010060999992015012401004+78250+022817FM-12+001499999V0201601N006019999999N999999999-00261-00381100431ADDMA1999999100271MD1710071+9999REMSYN04801006 46/// /1606 11026 21038 30027 40043 57007=
0089010060999992015012402004+78250+022817FM-12+001499999V0201801N008019999999N999999999-00221-00391100371ADDMA1999999100211MD1610101+9999REMSYN04801006 46/// /1808 11022 21039 30021 40037 56010=
0089010060999992015012403004+78250+022817FM-12+001499999V0201801N008019999999N999999999-00211-00351100351ADDMA1999999100191MD1710091+9999REMSYN04801006 46/// /1808 11021 21035 30019 40035 57009=
0089010060999992015012404004+78250+022817FM-12+001499999V0201901N009019999999N999999999-00171-00301100311ADDMA1999999100151MD1710121+9999REMSYN04801006 46/// /1909 11017 21030 30015 40031 57012=
0089010060999992015012405004+78250+022817FM-12+001499999V0201801N006019999999N999999999-00321-00431100341ADDMA1999999100181MD1990021+9999REMSYN04801006 46/// /1806 11032 21043 30018 40034 50002=
0132010060999992015012406004+78250+022817FM-12+001499999V0201401N004019999999N999999999-00341-00481100361ADDKA1240N-00381MA1999999100201MD1990011+9999OD139901001999REMSYN06401006 46/// /1404 11034 21048 30020 40036 50001 333 21038 91110=
0089010060999992015012407004+78250+022817FM-12+001499999V0201401N003019999999N999999999-00231-00331100361ADDMA1999999100201MD1210051+9999REMSYN04801006 46/// /1403 11023 21033 30020 40036 52005=
0108010060999992015012408004+78250+022817FM-12+001499999V0201301N004019999999N999999999-00261-00321100361ADDMA1999999100201MD1290029+9999REMSYN04801006 46/// /1304 11026 21032 30020 40036 54002=EQDQ01.2    3APC3  
0108010060999992015012409004+78250+022817FM-12+001499999V0201401N004019999999N999999999-00271-00321100371ADDMA1999999100211MD1290019+9999REMSYN04801006 46/// /1404 11027 21032 30021 40037 54001=EQDQ01.1    3APC3  
0108010060999992015012410004+78250+022817FM-12+001499999V0201301N003019999999N999999999-00261-00301100391ADDMA1999999100231MD1290039+9999REMSYN04801006 46/// /1303 11026 21030 30023 40039 54003=EQDQ01.3    3APC3  
0089010060999992015012411004+78250+022817FM-12+001499999V0201701N001019999999N999999999-00241-00281100411ADDMA1999999100251MD1210051+9999REMSYN04801006 46/// /1701 11024 21028 30025 40041 52005=
0113010060999992015012412004+78250+022817FM-12+001499999V0200501N001019999999N999999999-00261-00281100421ADDMA1999999100261MD1210051+9999OD139900501999REMSYN05801006 46/// /0501 11026 21028 30026 40042 52005 333 91105=
0089010060999992015012413004+78250+022817FM-12+001499999V0200701N004019999999N999999999-00321-00341100441ADDMA1999999100281MD1210051+9999REMSYN04801006 46/// /0704 11032 21034 30028 40044 52005=
0089010060999992015012414004+78250+022817FM-12+001499999V0200801N004019999999N999999999-00301-00321100451ADDMA1999999100291MD1210041+9999REMSYN04801006 46/// /0804 11030 21032 30029 40045 52004=
0089010060999992015012415004+78250+022817FM-12+001499999V0200801N003019999999N999999999-00371-00411100481ADDMA1999999100331MD1210071+9999REMSYN04801006 46/// /0803 11037 21041 30033 40048 52007=
0089010060999992015012416004+78250+022817FM-12+001499999V0200701N004019999999N999999999-00351-00391100531ADDMA1999999100371MD1110091+9999REMSYN04801006 46/// /0704 11035 21039 30037 40053 51009=
0089010060999992015012417004+78250+022817FM-12+001499999V0200501N006019999999N999999999-00481-00531100561ADDMA1999999100401MD1210111+9999REMSYN04801006 46/// /0506 11048 21053 30040 40056 52011=
0132010060999992015012418004+78250+022817FM-12+001499999V0200301N002019999999N999999999-00631-00691100661ADDKA1120M-00221MA1999999100501MD1110181+9999OD139900701999REMSYN06401006 46/// /0302 11063 21069 30050 40066 51018 333 11022 91107=
0089010060999992015012419004+78250+022817FM-12+001499999V0200201N004019999999N999999999-00741-00821100681ADDMA1999999100521MD1210151+9999REMSYN04801006 46/// /0204 11074 21082 30052 40068 52015=
0089010060999992015012420004+78250+022817FM-12+001499999V0203601N007019999999N999999999-00861-00951100731ADDMA1999999100571MD1310171+9999REMSYN04801006 46/// /3607 11086 21095 30057 40073 53017=
0089010060999992015012421004+78250+022817FM-12+001499999V0200101N006019999999N999999999-00911-01021100801ADDMA1999999100641MD1110141+9999REMSYN04801006 46/// /0106 11091 21102 30064 40080 51014=
