0130010070999992015010100004+78917+011933FM-12+000899999V0202601N001019999999N999999999-00481-01031098691ADDAA106000091MA1999999098591MD1710021+9999OD139900301999REMSYN06401007 16/// /2601 11048 21103 39859 49869 57002 60001 333 91103=
0089010070999992015010103004+78917+011933FM-12+000899999V0202401N002019999999N999999999-00511-01081098661ADDMA1999999098571MD1810021+9999REMSYN04801007 46/// /2402 11051 21108 39857 49866 58002=
0293010070999992015010106004+78917+011933FM-12+000899999V0202101N001019999999N070001199-00471-00981098601ADDAA112000091AA224000091AJ199991999999999AY121021AY221021GA1071+999999031GE19MSL   +99999+99999GF107991071999999999999999IA1269KA1240N-00751MA1999999098501MD1610071+9999MW1021OD139900301999REMSYN09401007 11989 72101 11047 21098 39850 49860 56007 60002 70222 8703/ 333 21075 42/// 70000 91103=
0089010070999992015010109004+78917+011933FM-12+000899999V0201401N001019999999N999999999-00381-00911098581ADDMA1999999098481MD1710021+9999REMSYN04801007 46/// /1401 11038 21091 39848 49858 57002=
0247010070999992015010112004+78917+011933FM-12+000899999V0202501N002019999999N070000199-00471-00791098521ADDAA106999999AY181021AY221021GA1081+012501081GE19MSL   +99999+99999GF108991081999012501999999MA1999999098431MD1710061+9999MW1851OD139900201999REMSYN07601007 11688 82502 11047 21079 39843 49852 57006 60001 78582 888// 333 91102=EQDQ01  00002PRCP06
0089010070999992015010115004+78917+011933FM-12+000899999V0201601N001019999999N999999999-00421-00721098431ADDMA1999999098331MD1710101+9999REMSYN04801007 46/// /1601 11042 21072 39833 49843 57010=
0263010070999992015010118004+78917+011933FM-12+000899999V0202601N002019999999N070001199-00551-00871098321ADDAA112000091AY181021AY221021GA1011+012501061GA2999+999999031GE19MSL   +99999+99999GF107991011999012501999999KA1120M-00291MA1999999098221MD1710111+9999MW1021OD139900301999REMSYN08201007 11689 72602 11055 21087 39822 49832 57011 60002 70282 8153/ 333 11029 91103=
0089010070999992015010121004+78917+011933FM-12+000899999V0202301N001019999999N999999999-00491-00841098241ADDMA1999999098141MD1710081+9999REMSYN04801007 46/// /2301 11049 21084 39814 49824 57008=
0130010070999992015010200004+78917+011933FM-12+000899999V0202501N002019999999N999999999-00421-00791098111ADDAA106000091MA1999999098021MD1710131+9999OD139900201999REMSYN06401007 16/// /2502 11042 21079 39802 49811 57013 60001 333 91102=
0089010070999992015010203004+78917+011933FM-12+000899999V0209999C999999999999N999999999-00521-00851098041ADDMA1999999097951MD1710071+9999REMSYN04801007 46/// /0000 11052 21085 39795 49804 57007=
0293010070999992015010206004+78917+011933FM-12+000899999V0201601N003019999999N070001199-00531-00921097971ADDAA112000091AA224000091AJ100033100030099AY121021AY221021GA1061+012501081GE19MSL   +99999+99999GF106991061999012501999999IA1239KA1240N-00671MA1999999097881MD1710071+9999MW1021OD139900401999REMSYN09401007 11689 61603 11053 21092 39788 49797 57007 60002 70222 86800 333 21067 47003 70000 91104=
0089010070999992015010209004+78917+011933FM-12+000899999V0201501N001019999999N999999999-00541-00971097971ADDMA1999999097871MD1410001+9999REMSYN04801007 46/// /1501 11054 21097 39787 49797 54000=
0244010070999992015010212004+78917+011933FM-12+000899999V0209999C999999999999N070001199-00461-00901097961ADDAA106000091AY121021AY221021GA1041+012501061GA2999+999999021GE19MSL   +99999+99999GF107991041999012501999999MA1999999097861MD1810011+9999MW1021OD139900501999REMSYN07601007 11689 70000 11046 21090 39786 49796 58001 60001 70222 84508 333 91105=
0089010070999992015010215004+78917+011933FM-12+000899999V0209999C999999999999N999999999-00471-00881097971ADDMA1999999097871MD1310011+9999REMSYN04801007 46/// /0000 11047 21088 39787 49797 53001=
0263010070999992015010218004+78917+011933FM-12+000899999V0209999C999999999999N070001199-00451-00881098001ADDAA112000091AY121021AY201021GA1021+008001061GA2999+999999031GE19MSL   +99999+99999GF106991021999008001999999KA1120M-00371MA1999999097901MD1210031+9999MW1031OD139900201999REMSYN08201007 11589 60000 11045 21088 39790 49800 52003 60002 70320 82530 333 11037 91102=
0089010070999992015010221004+78917+011933FM-12+000899999V0202401N002019999999N999999999-00411-00761098121ADDMA1999999098021MD1110121+9999REMSYN04801007 46/// /2402 11041 21076 39802 49812 51012=
0130010070999992015010300004+78917+011933FM-12+000899999V0202401N001019999999N999999999-00291-00551098291ADDAA106000331MA1999999098191MD1210171+9999OD139900301999REMSYN06401007 16/// /2401 11029 21055 39819 49829 52017 69931 333 91103=
0089010070999992015010303004+78917+011933FM-12+000899999V0201201N001019999999N999999999-00261-00601098501ADDMA1999999098401MD1210211+9999REMSYN04801007 46/// /1201 11026 21060 39840 49850 52021=
0293010070999992015010306004+78917+011933FM-12+000899999V0202301N001019999999N070001199-00201-00571098771ADDAA112000531AA224000531AJ100033100030099AY121021AY221021GA1081+012501061GE19MSL   +99999+99999GF108991081999012501999999IA1239KA1240N-00611MA1999999098681MD1210271+9999MW1021OD139900301999REMSYN09401007 11689 82301 11020 21057 39868 49877 52027 69952 70222 885// 333 21061 47003 70005 91103=
0089010070999992015010309004+78917+011933FM-12+000899999V0202401N001019999999N999999999-00151-00301099081ADDMA1999999098981MD1210301+9999REMSYN04801007 46/// /2401 11015 21030 39898 49908 52030=
0244010070999992015010312004+78917+011933FM-12+000899999V0201301N008019999999N065000199-00081-00441099331ADDAA106000831AY181021AY231021GA1041+012501081GA2999+999999021GE19MSL   +99999+99999GF106991041999012501999999MA1999999099231MD1210251+9999MW1361OD139901301999REMSYN07601007 11687 61308 11008 21044 39923 49933 52025 69981 73683 84808 333 91113=
0089010070999992015010315004+78917+011933FM-12+000899999V0201201N008019999999N999999999-00011-00491099611ADDMA1999999099511MD1210281+9999REMSYN04801007 46/// /1208 11001 21049 39951 49961 52028=
0263010070999992015010318004+78917+011933FM-12+000899999V0201101N007019999999N070001199-00051-00691099851ADDAA112000831AY131021AY211021GA1011+017501061GA2999+999999021GE19MSL   +99999+99999GF105991011999017501999999KA1120M+00101MA1999999099761MD1210251+9999MW1021OD139901401999REMSYN08201007 11789 51107 11005 21069 39976 49985 52025 69982 70231 81508 333 10010 91114=
0089010070999992015010321004+78917+011933FM-12+000899999V0201101N010019999999N999999999-00161-00701100201ADDMA1999999100101MD1110351+9999REMSYN04801007 46/// /1110 11016 21070 30010 40020 51035=
0130010070999992015010400004+78917+011933FM-12+000899999V0201501N001019999999N999999999-00461-01081100461ADDAA106000091MA1999999100361MD1210261+9999OD139901601999REMSYN06401007 16/// /1501 11046 21108 30036 40046 52026 60001 333 91116=
0089010070999992015010403004+78917+011933FM-12+000899999V0201901N001019999999N999999999-00501-01081100701ADDMA1999999100601MD1210241+9999REMSYN04801007 46/// /1901 11050 21108 30060 40070 52024=
0312010070999992015010406004+78917+011933FM-12+000899999V0202601N001019999999N070001199-00591-01231100891ADDAA112000091AA224000431AJ199991999999999AY121021AY201021GA1999+999999021GE19MSL   +99999+99999GF106991001999999999999999IA1269KA1240N-00681MA1999999100791MD1310191+9999MW1021OD139900401999REMSYN09401007 11989 62601 11059 21123 30079 40089 53019 60002 70220 80008 333 21068 42/// 70004 91104=EQDQ01    003SCCGA1
0089010070999992015010409004+78917+011933FM-12+000899999V0202501N002019999999N999999999-00521-01121101091ADDMA1999999100991MD1210201+9999REMSYN04801007 46/// /2502 11052 21112 30099 40109 52020=
0244010070999992015010412004+78917+011933FM-12+000899999V0209999C999999999999N070001199-00491-01191101271ADDAA106000091AY121021AY221021GA1011+017501061GA2999+999999021GE19MSL   +99999+99999GF106991011999017501999999MA1999999101171MD1210181+9999MW1021OD139900301999REMSYN07601007 11789 60000 11049 21119 30117 40127 52018 60001 70222 81508 333 91103=
0089010070999992015010415004+78917+011933FM-12+000899999V0200901N001019999999N999999999-00481-01221101441ADDMA1999999101341MD1210161+9999REMSYN04801007 46/// /0901 11048 21122 30134 40144 52016=
0279010070999992015010418004+78917+011933FM-12+000899999V0202401N001019999999N070001199-00511-01231101561ADDAA112000091AY121021AY221021GA1021+017501061GA2999+999999031GA3999+999999021GE19MSL   +99999+99999GF107991021999017501999999KA1120M-00431MA1999999101461MD1210131+9999MW1021OD139900301999REMSYN08201007 11789 72401 11051 21123 30146 40156 52013 60002 70222 82538 333 11043 91103=
0089010070999992015010421004+78917+011933FM-12+000899999V0201201N003019999999N999999999-00521-01181101691ADDMA1999999101591MD1210131+9999REMSYN04801007 46/// /1203 11052 21118 30159 40169 52013=
0130010070999992015010500004+78917+011933FM-12+000899999V0201401N004019999999N999999999-00491-01111101791ADDAA106000231MA1999999101691MD1210101+9999OD139900601999REMSYN06401007 16/// /1404 11049 21111 30169 40179 52010 69921 333 91106=
0089010070999992015010503004+78917+011933FM-12+000899999V0201501N003019999999N999999999-00451-01021101851ADDMA1999999101751MD1990061+9999REMSYN04801007 46/// /1503 11045 21102 30175 40185 50006=
0309010070999992015010506004+78917+011933FM-12+000899999V0201701N002019999999N070001199-00331-00901101901ADDAA112000531AA224000631AJ199991999999999AY121021AY221021GA1071+008001061GA2999+999999001GE19MSL   +99999+99999GF108991071999008001999999IA1269KA1240N-00621MA1999999101801MD1310051+9999MW1021OD139900601999REMSYN09401007 11589 81702 11033 21090 30180 40190 53005 69952 70222 87501 333 21062 42/// 70006 91106=
0089010070999992015010509004+78917+011933FM-12+000899999V0201601N003019999999N999999999-00421-00751101941ADDMA1999999101841MD1210041+9999REMSYN04801007 46/// /1603 11042 21075 30184 40194 52004=
0228010070999992015010512004+78917+011933FM-12+000899999V0201601N003019999999N020000199-00371-00651101961ADDAA106000331AY121021AY221021GA1081+008001061GE19MSL   +99999+99999GF108991081999008001999999MA1999999101861MD1210021+9999MW1701OD139900401999REMSYN07601007 11570 81603 11037 21065 30186 40196 52002 69931 77022 885// 333 91104=
0089010070999992015010515004+78917+011933FM-12+000899999V0201701N002019999999N999999999-00301-00551101941ADDMA1999999101841MD1710021+9999REMSYN04801007 46/// /1702 11030 21055 30184 40194 57002=
0247010070999992015010518004+78917+011933FM-12+000899999V0201101N002019999999N070001199-00351-00801101851ADDAA112000331AY121021AY221021GA1061+004501061GE19MSL   +99999+99999GF106991061999004501999999KA1120M-00261MA1999999101751MD1610091+9999MW1011OD139900301999REMSYN08201007 11489 61102 11035 21080 30175 40185 56009 69932 70122 86500 333 11026 91103=
0089010070999992015010521004+78917+011933FM-12+000899999V0201201N004019999999N999999999-00391-00771101751ADDMA1999999101651MD1710101+9999REMSYN04801007 46/// /1204 11039 21077 30165 40175 57010=
0089010070999992015010522004+78917+011933FM-12+000899999V0201501N004019999999N999999999-00431-00781101711ADDMA1999999101611MD1710111+9999REMSYN04801007 46/// /1504 11043 21078 30161 40171 57011=
0089010070999992015010523004+78917+011933FM-12+000899999V0201501N005019999999N999999999-00441-00821101651ADDMA1999999101561MD1810121+9999REMSYN04801007 46/// /1505 11044 21082 30156 40165 58012=
0130010070999992015010600004+78917+011933FM-12+000899999V0201501N005019999999N999999999-00481-00881101591ADDAA106000091MA1999999101491MD1810161+9999OD139900801999REMSYN06401007 16/// /1505 11048 21088 30149 40159 58016 60001 333 91108=
0089010070999992015010601004+78917+011933FM-12+000899999V0201501N005019999999N999999999-00561-00921101511ADDMA1999999101411MD1810201+9999REMSYN04801007 46/// /1505 11056 21092 30141 40151 58020=
0089010070999992015010602004+78917+011933FM-12+000899999V0201501N003019999999N999999999-00481-00831101421ADDMA1999999101321MD1810231+9999REMSYN04801007 46/// /1503 11048 21083 30132 40142 58023=
0089010070999992015010603004+78917+011933FM-12+000899999V0201401N005019999999N999999999-00481-00841101301ADDMA1999999101211MD1810291+9999REMSYN04801007 46/// /1405 11048 21084 30121 40130 58029=
0089010070999992015010604004+78917+011933FM-12+000899999V0201201N009019999999N999999999-00471-00851101151ADDMA1999999101051MD1810361+9999REMSYN04801007 46/// /1209 11047 21085 30105 40115 58036=
0089010070999992015010605004+78917+011933FM-12+000899999V0201001N012019999999N999999999-00391-00731101011ADDMA1999999100911MD1810411+9999REMSYN04801007 46/// /1012 11039 21073 30091 40101 58041=
0293010070999992015010606004+78917+011933FM-12+000899999V0201101N014019999999N030000199-00351-00731100891ADDAA112000091AA224000091AJ199991999999999AY131021AY221021GA1071+012501061GE19MSL   +99999+99999GF107991071999012501999999IA1269KA1240N-00621MA1999999100791MD1610411+9999MW1361OD139901701999REMSYN09401007 11680 71114 11035 21073 30079 40089 56041 60002 73632 875// 333 21062 42/// 70000 91117=
0089010070999992015010607004+78917+011933FM-12+000899999V0201201N013019999999N999999999-00351-00781100811ADDMA1999999100711MD1610331+9999REMSYN04801007 46/// /1213 11035 21078 30071 40081 56033=
0089010070999992015010608004+78917+011933FM-12+000899999V0201201N013019999999N999999999-00351-00771100741ADDMA1999999100641MD1610281+9999REMSYN04801007 46/// /1213 11035 21077 30064 40074 56028=
0089010070999992015010609004+78917+011933FM-12+000899999V0201201N012019999999N999999999-00371-00801100651ADDMA1999999100551MD1710241+9999REMSYN04801007 46/// /1212 11037 21080 30055 40065 57024=
0089010070999992015010610004+78917+011933FM-12+000899999V0201201N012019999999N999999999-00361-00811100581ADDMA1999999100491MD1710231+9999REMSYN04801007 46/// /1212 11036 21081 30049 40058 57023=
0089010070999992015010611004+78917+011933FM-12+000899999V0201201N013019999999N999999999-00431-00841100471ADDMA1999999100371MD1810271+9999REMSYN04801007 46/// /1213 11043 21084 30037 40047 58027=
0228010070999992015010612004+78917+011933FM-12+000899999V0201201N013019999999N030000199-00351-00831100351ADDAA106000091AY121021AY221021GA1061+012501061GE19MSL   +99999+99999GF106991061999012501999999MA1999999100251MD1810301+9999MW1021OD139901701999REMSYN07601007 11680 61213 11035 21083 30025 40035 58030 60001 70222 86500 333 91117=
0089010070999992015010613004+78917+011933FM-12+000899999V0201201N014019999999N999999999-00361-00861100211ADDMA1999999100111MD1710381+9999REMSYN04801007 46/// /1214 11036 21086 30011 40021 57038=
0089010070999992015010614004+78917+011933FM-12+000899999V0201201N014019999999N999999999-00261-00751100101ADDMA1999999100011MD1610361+9999REMSYN04801007 46/// /1214 11026 21075 30001 40010 56036=
0089010070999992015010615004+78917+011933FM-12+000899999V0201101N015019999999N999999999-00241-00731099961ADDMA1999999099861MD1610391+9999REMSYN04801007 46/// /1115 11024 21073 39986 49996 56039=
0089010070999992015010616004+78917+011933FM-12+000899999V0201101N015019999999N999999999-00251-00741099851ADDMA1999999099751MD1610361+9999REMSYN04801007 46/// /1115 11025 21074 39975 49985 56036=
0089010070999992015010617004+78917+011933FM-12+000899999V0201101N017019999999N999999999-00231-00601099741ADDMA1999999099651MD1610361+9999REMSYN04801007 46/// /1117 11023 21060 39965 49974 56036=
0247010070999992015010618004+78917+011933FM-12+000899999V0201101N016019999999N030000199-00251-00601099691ADDAA112000091AY121021AY221021GA1081+012501061GE19MSL   +99999+99999GF108991081999012501999999KA1120M-00191MA1999999099591MD1610271+9999MW1361OD139902101999REMSYN08201007 11680 81116 11025 21060 39959 49969 56027 60002 73622 885// 333 11019 91121=
0089010070999992015010619004+78917+011933FM-12+000899999V0201101N016019999999N999999999-00171-00571099631ADDMA1999999099531MD1610221+9999REMSYN04801007 46/// /1116 11017 21057 39953 49963 56022=
0089010070999992015010620004+78917+011933FM-12+000899999V0201101N016019999999N999999999-00121-00511099591ADDMA1999999099501MD1610151+9999REMSYN04801007 46/// /1116 11012 21051 39950 49959 56015=
0089010070999992015010621004+78917+011933FM-12+000899999V0201101N015019999999N999999999-00071-00481099571ADDMA1999999099471MD1610121+9999REMSYN04801007 46/// /1115 11007 21048 39947 49957 56012=
0089010070999992015010622004+78917+011933FM-12+000899999V0201101N016019999999N999999999-00121-00511099531ADDMA1999999099431MD1710101+9999REMSYN04801007 46/// /1116 11012 21051 39943 49953 57010=
0089010070999992015010623004+78917+011933FM-12+000899999V0201101N014019999999N999999999-00021-00481099501ADDMA1999999099401MD1710091+9999REMSYN04801007 46/// /1114 11002 21048 39940 49950 57009=
0130010070999992015010700004+78917+011933FM-12+000899999V0201101N013019999999N999999999+00071-00451099491ADDAA106000331MA1999999099391MD1710081+9999OD139902201999REMSYN06401007 16/// /1113 10007 21045 39939 49949 57008 69931 333 91122=
0089010070999992015010701004+78917+011933FM-12+000899999V0201101N013019999999N999999999-00031-00461099451ADDMA1999999099361MD1610081+9999REMSYN04801007 46/// /1113 11003 21046 39936 49945 56008=
0089010070999992015010702004+78917+011933FM-12+000899999V0201101N013019999999N999999999-00041-00421099431ADDMA1999999099341MD1710071+9999REMSYN04801007 46/// /1113 11004 21042 39934 49943 57007=
0089010070999992015010703004+78917+011933FM-12+000899999V0201201N013019999999N999999999-00011-00401099401ADDMA1999999099301MD1710091+9999REMSYN04801007 46/// /1213 11001 21040 39930 49940 57009=
0089010070999992015010704004+78917+011933FM-12+000899999V0201201N014019999999N999999999-00011-00421099351ADDMA1999999099251MD1810111+9999REMSYN04801007 46/// /1214 11001 21042 39925 49935 58011=
0089010070999992015010705004+78917+011933FM-12+000899999V0201201N012019999999N999999999-00021-00451099301ADDMA1999999099211MD1710131+9999REMSYN04801007 46/// /1212 11002 21045 39921 49930 57013=
0280010070999992015010706004+78917+011933FM-12+000899999V0201201N011019999999N025000199-00031-00411099281ADDAA112000091AA224000091AY121021AY221021GA1041+012501081GA2999+999999031GE19MSL   +99999+99999GF108991041999012501999999KA1240N-00271MA1999999099191MD1610121+9999MW1021OD139901801999REMSYN08801007 11675 81211 11003 21041 39919 49928 56012 60002 70222 8487/ 333 21027 70000 91118=
0089010070999992015010707004+78917+011933FM-12+000899999V0201401N006019999999N999999999-00031-00341099281ADDMA1999999099191MD1610071+9999REMSYN04801007 46/// /1406 11003 21034 39919 49928 56007=
0089010070999992015010708004+78917+011933FM-12+000899999V0201301N006019999999N999999999-00051-00301099271ADDMA1999999099171MD1710041+9999REMSYN04801007 46/// /1306 11005 21030 39917 49927 57004=
0089010070999992015010709004+78917+011933FM-12+000899999V0201501N001019999999N999999999-00061-00311099271ADDMA1999999099171MD1710021+9999REMSYN04801007 46/// /1501 11006 21031 39917 49927 57002=
0089010070999992015010710004+78917+011933FM-12+000899999V0201301N004019999999N999999999-00081-00271099251ADDMA1999999099151MD1710031+9999REMSYN04801007 46/// /1304 11008 21027 39915 49925 57003=
0089010070999992015010711004+78917+011933FM-12+000899999V0201001N007019999999N999999999-00091-00271099201ADDMA1999999099101MD1810071+9999REMSYN04801007 46/// /1007 11009 21027 39910 49920 58007=
0228010070999992015010712004+78917+011933FM-12+000899999V0201101N008019999999N005000199-00111-00291099181ADDAA106000331AY121021AY221021GA1081+008001081GE19MSL   +99999+99999GF108991081999008001999999MA1999999099081MD1710091+9999MW1851OD139901401999REMSYN07601007 11550 81108 11011 21029 39908 49918 57009 69931 78522 888// 333 91114=
0089010070999992015010713004+78917+011933FM-12+000899999V0201301N004019999999N999999999-00161-00331099131ADDMA1999999099031MD1710121+9999REMSYN04801007 46/// /1304 11016 21033 39903 49913 57012=
0089010070999992015010714004+78917+011933FM-12+000899999V0201301N003019999999N999999999-00141-00291099111ADDMA1999999099011MD1710091+9999REMSYN04801007 46/// /1303 11014 21029 39901 49911 57009=
0089010070999992015010715004+78917+011933FM-12+000899999V0201301N003019999999N999999999-00161-00301099101ADDMA1999999099011MD1610071+9999REMSYN04801007 46/// /1303 11016 21030 39901 49910 56007=
0089010070999992015010716004+78917+011933FM-12+000899999V0201401N003019999999N999999999-00191-00321099101ADDMA1999999099011MD1710021+9999REMSYN04801007 46/// /1403 11019 21032 39901 49910 57002=
0089010070999992015010717004+78917+011933FM-12+000899999V0201501N002019999999N999999999-00201-00331099101ADDMA1999999099011MD1410001+9999REMSYN04801007 46/// /1502 11020 21033 39901 49910 54000=
0247010070999992015010718004+78917+011933FM-12+000899999V0201501N002019999999N005000199-00221-00351099111ADDAA112002031AY171021AY221021GA1081+004501081GE19MSL   +99999+99999GF108991081999004501999999KA1120M-00021MA1999999099011MD1210011+9999MW1711OD139901001999REMSYN08201007 11450 81502 11022 21035 39901 49911 52001 60022 77172 888// 333 11002 91110=
0089010070999992015010719004+78917+011933FM-12+000899999V0201401N001019999999N999999999-00231-00361099131ADDMA1999999099031MD1210021+9999REMSYN04801007 46/// /1401 11023 21036 39903 49913 52002=
0089010070999992015010720004+78917+011933FM-12+000899999V0201401N001019999999N999999999-00221-00351099161ADDMA1999999099071MD1210061+9999REMSYN04801007 46/// /1401 11022 21035 39907 49916 52006=
0089010070999992015010721004+78917+011933FM-12+000899999V0201301N001019999999N999999999-00231-00361099231ADDMA1999999099131MD1310121+9999REMSYN04801007 46/// /1301 11023 21036 39913 49923 53012=
0089010070999992015010722004+78917+011933FM-12+000899999V0201401N001019999999N999999999-00281-00401099321ADDMA1999999099221MD1310191+9999REMSYN04801007 46/// /1401 11028 21040 39922 49932 53019=
0089010070999992015010723004+78917+011933FM-12+000899999V0201101N002019999999N999999999-00221-00351099361ADDMA1999999099261MD1110191+9999REMSYN04801007 46/// /1102 11022 21035 39926 49936 51019=
0130010070999992015010800004+78917+011933FM-12+000899999V0201301N001019999999N999999999-00281-00421099391ADDAA106000331MA1999999099291MD1110161+9999OD139900301999REMSYN06401007 16/// /1301 11028 21042 39929 49939 51016 69931 333 91103=
0089010070999992015010801004+78917+011933FM-12+000899999V0201501N002019999999N999999999-00291-00431099401ADDMA1999999099301MD1210081+9999REMSYN04801007 46/// /1502 11029 21043 39930 49940 52008=
0089010070999992015010802004+78917+011933FM-12+000899999V0201301N003019999999N999999999-00291-00451099421ADDMA1999999099331MD1210061+9999REMSYN04801007 46/// /1303 11029 21045 39933 49942 52006=
0089010070999992015010803004+78917+011933FM-12+000899999V0201601N002019999999N999999999-00241-00451099451ADDMA1999999099351MD1310061+9999REMSYN04801007 46/// /1602 11024 21045 39935 49945 53006=
0089010070999992015010804004+78917+011933FM-12+000899999V0201401N001019999999N999999999-00241-00461099471ADDMA1999999099371MD1210071+9999REMSYN04801007 46/// /1401 11024 21046 39937 49947 52007=
0089010070999992015010805004+78917+011933FM-12+000899999V0209999C999999999999N999999999-00251-00501099501ADDMA1999999099401MD1210081+9999REMSYN04801007 46/// /0000 11025 21050 39940 49950 52008=
0277010070999992015010806004+78917+011933FM-12+000899999V0201201N002019999999N070001199-00301-00581099481ADDAA112000091AA224002431AJ100113100110099GA1081+999999041GE19MSL   +99999+99999GF108991081999999999999999IA1239KA1240N-00341MA1999999099381MD1990031+9999MW1021OD139900401999REMSYN09401007 11989 81202 11030 21058 39938 49948 50003 60002 702// 8801/ 333 21034 47011 70024 91104=
0089010070999992015010807004+78917+011933FM-12+000899999V0201201N007019999999N999999999-00161-00441099491ADDMA1999999099401MD1990021+9999REMSYN04801007 46/// /1207 11016 21044 39940 49949 50002=
0089010070999992015010808004+78917+011933FM-12+000899999V0201301N004019999999N999999999-00151-00541099501ADDMA1999999099411MD1410001+9999REMSYN04801007 46/// /1304 11015 21054 39941 49950 54000=
0089010070999992015010809004+78917+011933FM-12+000899999V0201201N007019999999N999999999-00151-00541099511ADDMA1999999099421MD1210031+9999REMSYN04801007 46/// /1207 11015 21054 39942 49951 52003=
0089010070999992015010810004+78917+011933FM-12+000899999V0201301N005019999999N999999999-00111-00621099541ADDMA1999999099441MD1210051+9999REMSYN04801007 46/// /1305 11011 21062 39944 49954 52005=
0089010070999992015010811004+78917+011933FM-12+000899999V0201301N007019999999N999999999-00161-00551099521ADDMA1999999099431MD1990021+9999REMSYN04801007 46/// /1307 11016 21055 39943 49952 50002=
0244010070999992015010812004+78917+011933FM-12+000899999V0201301N004019999999N025000199-00101-00631099521ADDAA106000531AY121021AY221021GA1011+004501071GA2999+999999031GE19MSL   +99999+99999GF108991011999004501999999MA1999999099431MD1990011+9999MW1021OD139900901999REMSYN07601007 11475 81304 11010 21063 39943 49952 50001 69951 70222 8167/ 333 91109=
0089010070999992015010813004+78917+011933FM-12+000899999V0201301N007019999999N999999999-00131-00541099511ADDMA1999999099421MD1710021+9999REMSYN04801007 46/// /1307 11013 21054 39942 49951 57002=
0089010070999992015010814004+78917+011933FM-12+000899999V0200901N008019999999N999999999-00031-00491099521ADDMA1999999099431MD1410001+9999REMSYN04801007 46/// /0908 11003 21049 39943 49952 54000=
0089010070999992015010815004+78917+011933FM-12+000899999V0201001N008019999999N999999999-00021-00551099491ADDMA1999999099391MD1810031+9999REMSYN04801007 46/// /1008 11002 21055 39939 49949 58003=
0089010070999992015010816004+78917+011933FM-12+000899999V0201101N009019999999N999999999+00041-00621099481ADDMA1999999099381MD1810041+9999REMSYN04801007 46/// /1109 10004 21062 39938 49948 58004=
0089010070999992015010817004+78917+011933FM-12+000899999V0201201N011019999999N999999999-00021-00611099451ADDMA1999999099361MD1710071+9999REMSYN04801007 46/// /1211 11002 21061 39936 49945 57007=
0263010070999992015010818004+78917+011933FM-12+000899999V0201201N013019999999N025000199-00031-00621099441ADDAA112000631AY131021AY221021GA1061+999999031GA2999+999999021GE19MSL   +99999+99999GF108991061999999999999999KA1120M+00061MA1999999099341MD1710051+9999MW1361OD139901601999REMSYN08201007 11975 81213 11003 21062 39934 49944 57005 69962 73632 86077 333 10006 91116=
0089010070999992015010819004+78917+011933FM-12+000899999V0201101N012019999999N999999999-00031-00521099441ADDMA1999999099341MD1710041+9999REMSYN04801007 46/// /1112 11003 21052 39934 49944 57004=
0089010070999992015010820004+78917+011933FM-12+000899999V0201201N015019999999N999999999-00091-00561099401ADDMA1999999099301MD1810061+9999REMSYN04801007 46/// /1215 11009 21056 39930 49940 58006=
0089010070999992015010821004+78917+011933FM-12+000899999V0201101N014019999999N999999999-00051-00601099341ADDMA1999999099251MD1810091+9999REMSYN04801007 46/// /1114 11005 21060 39925 49934 58009=
0089010070999992015010822004+78917+011933FM-12+000899999V0201101N009019999999N999999999-00041-00521099321ADDMA1999999099231MD1610121+9999REMSYN04801007 46/// /1109 11004 21052 39923 49932 56012=
0089010070999992015010823004+78917+011933FM-12+000899999V0201301N013019999999N999999999+00001-00511099271ADDMA1999999099181MD1610121+9999REMSYN04801007 46/// /1313 10000 21051 39918 49927 56012=
0130010070999992015010900004+78917+011933FM-12+000899999V0201201N014019999999N999999999+00021-00461099191ADDAA106000091MA1999999099091MD1810151+9999OD139902001999REMSYN06401007 16/// /1214 10002 21046 39909 49919 58015 60001 333 91120=
0089010070999992015010901004+78917+011933FM-12+000899999V0201201N017019999999N999999999+00101-00461099101ADDMA1999999099011MD1610221+9999REMSYN04801007 46/// /1217 10010 21046 39901 49910 56022=
0089010070999992015010902004+78917+011933FM-12+000899999V0201101N016019999999N999999999+00121-00481099091ADDMA1999999099001MD1610181+9999REMSYN04801007 46/// /1116 10012 21048 39900 49909 56018=
0089010070999992015010903004+78917+011933FM-12+000899999V0201201N015019999999N999999999+00081-00501099111ADDMA1999999099021MD1610071+9999REMSYN04801007 46/// /1215 10008 21050 39902 49911 56007=
0089010070999992015010904004+78917+011933FM-12+000899999V0201201N013019999999N999999999+00101-00481099191ADDMA1999999099101MD1310091+9999REMSYN04801007 46/// /1213 10010 21048 39910 49919 53009=
0089010070999992015010905004+78917+011933FM-12+000899999V0201101N016019999999N999999999+00111-00411099201ADDMA1999999099101MD1110111+9999REMSYN04801007 46/// /1116 10011 21041 39910 49920 51011=
0309010070999992015010906004+78917+011933FM-12+000899999V0201201N013019999999N070001199+00121-00481099271ADDAA112000091AA224000331AJ199991999999999AY111021AY211021GA1021+017501081GA2999+999999021GE19MSL   +99999+99999GF106991021999017501999999IA1269KA1240N-00141MA1999999099181MD1310161+9999MW1021OD139902401999REMSYN09401007 11789 61213 10012 21048 39918 49927 53016 60002 70211 82108 333 21014 42/// 70003 91124=
0089010070999992015010907004+78917+011933FM-12+000899999V0201101N015019999999N999999999+00071-00471099301ADDMA1999999099201MD1310101+9999REMSYN04801007 46/// /1115 10007 21047 39920 49930 53010=
0089010070999992015010908004+78917+011933FM-12+000899999V0201101N013019999999N999999999+00111-00451099391ADDMA1999999099291MD1310191+9999REMSYN04801007 46/// /1113 10011 21045 39929 49939 53019=
0089010070999992015010909004+78917+011933FM-12+000899999V0201101N010019999999N999999999+00111-00451099481ADDMA1999999099381MD1310201+9999REMSYN04801007 46/// /1110 10011 21045 39938 49948 53020=
0089010070999992015010910004+78917+011933FM-12+000899999V0201001N010019999999N999999999+00101-00441099551ADDMA1999999099451MD1210251+9999REMSYN04801007 46/// /1010 10010 21044 39945 49955 52025=
0089010070999992015010911004+78917+011933FM-12+000899999V0201101N011019999999N999999999+00111-00451099601ADDMA1999999099511MD1210221+9999REMSYN04801007 46/// /1111 10011 21045 39951 49960 52022=
0244010070999992015010912004+78917+011933FM-12+000899999V0201101N012019999999N070001199+00021-00461099671ADDAA106000091AY121021AY221021GA1041+017501061GA2999+999999031GE19MSL   +99999+99999GF105991041999017501999999MA1999999099571MD1210191+9999MW1021OD139902001999REMSYN07601007 11789 51112 10002 21046 39957 49967 52019 60001 70222 84530 333 91120=
0089010070999992015010913004+78917+011933FM-12+000899999V0201201N011019999999N999999999-00011-00401099741ADDMA1999999099641MD1310191+9999REMSYN04801007 46/// /1211 11001 21040 39964 49974 53019=
0089010070999992015010914004+78917+011933FM-12+000899999V0201201N011019999999N999999999-00021-00461099791ADDMA1999999099691MD1210181+9999REMSYN04801007 46/// /1211 11002 21046 39969 49979 52018=
0089010070999992015010915004+78917+011933FM-12+000899999V0201201N010019999999N999999999+00011-00491099821ADDMA1999999099721MD1990151+9999REMSYN04801007 46/// /1210 10001 21049 39972 49982 50015=
0089010070999992015010916004+78917+011933FM-12+000899999V0201301N008019999999N999999999-00071-00531099911ADDMA1999999099811MD1310171+9999REMSYN04801007 46/// /1308 11007 21053 39981 49991 53017=
0089010070999992015010917004+78917+011933FM-12+000899999V0201101N009019999999N999999999+00001-00431099961ADDMA1999999099861MD1310171+9999REMSYN04801007 46/// /1109 10000 21043 39986 49996 53017=
0247010070999992015010918004+78917+011933FM-12+000899999V0201101N011019999999N070001199+00021-00441100021ADDAA112000091AY121021AY221021GA1081+012501061GE19MSL   +99999+99999GF108991081999012501999999KA1120M+00151MA1999999099931MD1110211+9999MW1021OD139901601999REMSYN08201007 11689 81111 10002 21044 39993 40002 51021 60002 70222 885// 333 10015 91116=
0089010070999992015010919004+78917+011933FM-12+000899999V0201201N011019999999N999999999+00011-00431100081ADDMA1999999099991MD1110181+9999REMSYN04801007 46/// /1211 10001 21043 39999 40008 51018=
0089010070999992015010920004+78917+011933FM-12+000899999V0201201N010019999999N999999999+00001-00411100161ADDMA1999999100061MD1110201+9999REMSYN04801007 46/// /1210 10000 21041 30006 40016 51020=
0089010070999992015010921004+78917+011933FM-12+000899999V0201101N010019999999N999999999+00021-00441100201ADDMA1999999100111MD1210181+9999REMSYN04801007 46/// /1110 10002 21044 30011 40020 52018=
0089010070999992015010922004+78917+011933FM-12+000899999V0201101N010019999999N999999999+00021-00401100261ADDMA1999999100161MD1110171+9999REMSYN04801007 46/// /1110 10002 21040 30016 40026 51017=
0089010070999992015010923004+78917+011933FM-12+000899999V0201201N010019999999N999999999-00031-00411100321ADDMA1999999100221MD1210161+9999REMSYN04801007 46/// /1210 11003 21041 30022 40032 52016=
0130010070999992015011000004+78917+011933FM-12+000899999V0201201N008019999999N999999999-00081-00451100371ADDAA106000091MA1999999100271MD1210161+9999OD139901401999REMSYN06401007 16/// /1208 11008 21045 30027 40037 52016 60001 333 91114=
0089010070999992015011001004+78917+011933FM-12+000899999V0201201N008019999999N999999999-00091-00481100441ADDMA1999999100341MD1210181+9999REMSYN04801007 46/// /1208 11009 21048 30034 40044 52018=
0089010070999992015011002004+78917+011933FM-12+000899999V0201201N007019999999N999999999-00061-00541100481ADDMA1999999100391MD1210161+9999REMSYN04801007 46/// /1207 11006 21054 30039 40048 52016=
0089010070999992015011003004+78917+011933FM-12+000899999V0201101N007019999999N999999999-00081-00521100521ADDMA1999999100431MD1110151+9999REMSYN04801007 46/// /1107 11008 21052 30043 40052 51015=
0089010070999992015011004004+78917+011933FM-12+000899999V0201101N006019999999N999999999-00051-00511100561ADDMA1999999100461MD1990121+9999REMSYN04801007 46/// /1106 11005 21051 30046 40056 50012=
0089010070999992015011005004+78917+011933FM-12+000899999V0201201N005019999999N999999999-00101-00561100581ADDMA1999999100481MD1110091+9999REMSYN04801007 46/// /1205 11010 21056 30048 40058 51009=
0309010070999992015011006004+78917+011933FM-12+000899999V0201401N005019999999N070001199-00101-00701100611ADDAA112000231AA224000331AJ199991999999999AY121021AY221021GA1051+017501061GA2999+999999041GE19MSL   +99999+99999GF108991051999017501999999IA1269KA1240N-00231MA1999999100511MD1110091+9999MW1021OD139901101999REMSYN09401007 11789 81405 11010 21070 30051 40061 51009 69922 70222 8551/ 333 21023 42/// 70003 91111=
0089010070999992015011007004+78917+011933FM-12+000899999V0201801N001019999999N999999999-00091-00861100601ADDMA1999999100501MD1990041+9999REMSYN04801007 46/// /1801 11009 21086 30050 40060 50004=
0089010070999992015011008004+78917+011933FM-12+000899999V0201201N002019999999N999999999-00181-00801100621ADDMA1999999100531MD1990051+9999REMSYN04801007 46/// /1202 11018 21080 30053 40062 50005=
0089010070999992015011009004+78917+011933FM-12+000899999V0201201N004019999999N999999999-00211-00791100631ADDMA1999999100531MD1210021+9999REMSYN04801007 46/// /1204 11021 21079 30053 40063 52002=
0089010070999992015011010004+78917+011933FM-12+000899999V0201401N002019999999N999999999-00211-00891100661ADDMA1999999100561MD1210061+9999REMSYN04801007 46/// /1402 11021 21089 30056 40066 52006=
0089010070999992015011011004+78917+011933FM-12+000899999V0201901N001019999999N999999999-00231-00851100651ADDMA1999999100551MD1990021+9999REMSYN04801007 46/// /1901 11023 21085 30055 40065 50002=
0228010070999992015011012004+78917+011933FM-12+000899999V0202601N003019999999N070001199-00261-00781100631ADDAA106000091AY121021AY221021GA1081+012501061GE19MSL   +99999+99999GF108991081999012501999999MA1999999100541MD1990001+9999MW1021OD139900601999REMSYN07601007 11689 82603 11026 21078 30054 40063 50000 60001 70222 885// 333 91106=
0089010070999992015011013004+78917+011933FM-12+000899999V0202701N001019999999N999999999-00291-00811100631ADDMA1999999100531MD1710031+9999REMSYN04801007 46/// /2701 11029 21081 30053 40063 57003=
0089010070999992015011014004+78917+011933FM-12+000899999V0209999C999999999999N999999999-00211-00891100611ADDMA1999999100521MD1710031+9999REMSYN04801007 46/// /0000 11021 21089 30052 40061 57003=
0089010070999992015011015004+78917+011933FM-12+000899999V0209999C999999999999N999999999-00271-00791100581ADDMA1999999100481MD1710051+9999REMSYN04801007 46/// /0000 11027 21079 30048 40058 57005=
0089010070999992015011016004+78917+011933FM-12+000899999V0209999C999999999999N999999999-00231-00701100561ADDMA1999999100461MD1710071+9999REMSYN04801007 46/// /0000 11023 21070 30046 40056 57007=
0089010070999992015011017004+78917+011933FM-12+000899999V0201301N003019999999N999999999-00321-00791100541ADDMA1999999100451MD1710071+9999REMSYN04801007 46/// /1303 11032 21079 30045 40054 57007=
0247010070999992015011018004+78917+011933FM-12+000899999V0201401N001019999999N070001199-00271-00701100531ADDAA112000091AY121021AY221021GA1081+017501081GE19MSL   +99999+99999GF108991081999017501999999KA1120M-00081MA1999999100431MD1710051+9999MW1021OD139900401999REMSYN08201007 11789 81401 11027 21070 30043 40053 57005 60002 70222 888// 333 11008 91104=
0089010070999992015011019004+78917+011933FM-12+000899999V0201401N002019999999N999999999-00361-00741100531ADDMA1999999100431MD1710041+9999REMSYN04801007 46/// /1402 11036 21074 30043 40053 57004=
0089010070999992015011020004+78917+011933FM-12+000899999V0201201N001019999999N999999999-00341-00741100511ADDMA1999999100411MD1710031+9999REMSYN04801007 46/// /1201 11034 21074 30041 40051 57003=
0089010070999992015011021004+78917+011933FM-12+000899999V0201901N001019999999N999999999-00341-00711100521ADDMA1999999100431MD1710011+9999REMSYN04801007 46/// /1901 11034 21071 30043 40052 57001=
0089010070999992015011022004+78917+011933FM-12+000899999V0209999C999999999999N999999999-00341-00691100541ADDMA1999999100441MD1210011+9999REMSYN04801007 46/// /0000 11034 21069 30044 40054 52001=
0089010070999992015011023004+78917+011933FM-12+000899999V0201601N001019999999N999999999-00281-00651100521ADDMA1999999100431MD1210011+9999REMSYN04801007 46/// /1601 11028 21065 30043 40052 52001=
0130010070999992015011100004+78917+011933FM-12+000899999V0202501N003019999999N999999999-00371-00721100521ADDAA106000091MA1999999100431MD1410001+9999OD139900401999REMSYN06401007 16/// /2503 11037 21072 30043 40052 54000 60001 333 91104=
0108010070999992015011101004+78917+011933FM-12+000899999V0202601N003019999999N999999999-00381-00751100541ADDMA1999999100451MD1490001+9999REMSYN04801007 46/// /2603 11038 21075 30045 40054 53000=EQDQ013     3APCTEN
0089010070999992015011102004+78917+011933FM-12+000899999V0202901N001019999999N999999999-00331-00711100561ADDMA1999999100461MD1210031+9999REMSYN04801007 46/// /2901 11033 21071 30046 40056 52003=
0089010070999992015011103004+78917+011933FM-12+000899999V0201401N002019999999N999999999-00291-00711100551ADDMA1999999100451MD1990031+9999REMSYN04801007 46/// /1402 11029 21071 30045 40055 50003=
0089010070999992015011104004+78917+011933FM-12+000899999V0201501N004019999999N999999999-00251-00831100541ADDMA1999999100441MD1410001+9999REMSYN04801007 46/// /1504 11025 21083 30044 40054 54000=
0089010070999992015011105004+78917+011933FM-12+000899999V0201501N002019999999N999999999-00281-00891100551ADDMA1999999100461MD1410001+9999REMSYN04801007 46/// /1502 11028 21089 30046 40055 54000=
0309010070999992015011106004+78917+011933FM-12+000899999V0201301N002019999999N070001199-00291-00941100591ADDAA112000091AA224000091AJ199991999999999AY121021AY221021GA1061+017501061GA2999+999999031GE19MSL   +99999+99999GF106991061999017501999999IA1269KA1240N-00411MA1999999100491MD1310041+9999MW1021OD139900801999REMSYN09401007 11789 61302 11029 21094 30049 40059 53004 60002 70222 86530 333 21041 42/// 70000 91108=
0089010070999992015011107004+78917+011933FM-12+000899999V0201301N006019999999N999999999-00431-00761100611ADDMA1999999100511MD1210071+9999REMSYN04801007 46/// /1306 11043 21076 30051 40061 52007=
0089010070999992015011108004+78917+011933FM-12+000899999V0201101N007019999999N999999999-00291-00791100621ADDMA1999999100531MD1210071+9999REMSYN04801007 46/// /1107 11029 21079 30053 40062 52007=
0089010070999992015011109004+78917+011933FM-12+000899999V0201201N009019999999N999999999-00381-00791100661ADDMA1999999100561MD1210071+9999REMSYN04801007 46/// /1209 11038 21079 30056 40066 52007=
0089010070999992015011110004+78917+011933FM-12+000899999V0201201N007019999999N999999999-00411-00871100691ADDMA1999999100591MD1210081+9999REMSYN04801007 46/// /1207 11041 21087 30059 40069 52008=
0089010070999992015011111004+78917+011933FM-12+000899999V0201401N004019999999N999999999-00381-00931100741ADDMA1999999100641MD1210121+9999REMSYN04801007 46/// /1404 11038 21093 30064 40074 52012=
0228010070999992015011112004+78917+011933FM-12+000899999V0202601N001019999999N070001199-00441-01031100771ADDAA106000091AY121021AY211021GA1081+017501061GE19MSL   +99999+99999GF108991081999017501999999MA1999999100671MD1210111+9999MW1031OD139901201999REMSYN07601007 11789 82601 11044 21103 30067 40077 52011 60001 70321 885// 333 91112=
0089010070999992015011113004+78917+011933FM-12+000899999V0201501N003019999999N999999999-00391-00891100791ADDMA1999999100691MD1210101+9999REMSYN04801007 46/// /1503 11039 21089 30069 40079 52010=
0089010070999992015011114004+78917+011933FM-12+000899999V0202601N002019999999N999999999-00431-01021100801ADDMA1999999100701MD1210051+9999REMSYN04801007 46/// /2602 11043 21102 30070 40080 52005=
0089010070999992015011115004+78917+011933FM-12+000899999V0201301N002019999999N999999999-00381-00971100801ADDMA1999999100701MD1210031+9999REMSYN04801007 46/// /1302 11038 21097 30070 40080 52003=
0089010070999992015011116004+78917+011933FM-12+000899999V0201301N006019999999N999999999-00371-00831100801ADDMA1999999100701MD1210011+9999REMSYN04801007 46/// /1306 11037 21083 30070 40080 52001=
0089010070999992015011117004+78917+011933FM-12+000899999V0201401N006019999999N999999999-00411-00891100831ADDMA1999999100741MD1310041+9999REMSYN04801007 46/// /1406 11041 21089 30074 40083 53004=
0247010070999992015011118004+78917+011933FM-12+000899999V0201401N007019999999N070001199-00461-00871100871ADDAA112000091AY121021AY221021GA1061+022501031GE19MSL   +99999+99999GF106991061999022501999999KA1120M-00221MA1999999100771MD1310071+9999MW1021OD139901001999REMSYN08201007 11889 61407 11046 21087 30077 40087 53007 60002 70222 86070 333 11022 91110=
0089010070999992015011119004+78917+011933FM-12+000899999V0202601N001019999999N999999999-00451-01061100901ADDMA1999999100801MD1210101+9999REMSYN04801007 46/// /2601 11045 21106 30080 40090 52010=
0089010070999992015011120004+78917+011933FM-12+000899999V0202701N002019999999N999999999-00501-01121100941ADDMA1999999100841MD1210101+9999REMSYN04801007 46/// /2702 11050 21112 30084 40094 52010=
0089010070999992015011121004+78917+011933FM-12+000899999V0201201N002019999999N999999999-00531-01111100961ADDMA1999999100861MD1210091+9999REMSYN04801007 46/// /1202 11053 21111 30086 40096 52009=
0089010070999992015011122004+78917+011933FM-12+000899999V0201601N002019999999N999999999-00531-01061100971ADDMA1999999100871MD1210071+9999REMSYN04801007 46/// /1602 11053 21106 30087 40097 52007=
0089010070999992015011123004+78917+011933FM-12+000899999V0201501N002019999999N999999999-00521-01071100981ADDMA1999999100881MD1210041+9999REMSYN04801007 46/// /1502 11052 21107 30088 40098 52004=
0130010070999992015011200004+78917+011933FM-12+000899999V0201301N002019999999N999999999-00571-01151100991ADDAA106000091MA1999999100891MD1210031+9999OD139900601999REMSYN06401007 16/// /1302 11057 21115 30089 40099 52003 60001 333 91106=
0089010070999992015011201004+78917+011933FM-12+000899999V0201401N003019999999N999999999-00511-01061100981ADDMA1999999100881MD1210011+9999REMSYN04801007 46/// /1403 11051 21106 30088 40098 52001=
0089010070999992015011202004+78917+011933FM-12+000899999V0201601N001019999999N999999999-00511-01021100971ADDMA1999999100871MD1710011+9999REMSYN04801007 46/// /1601 11051 21102 30087 40097 57001=
0089010070999992015011203004+78917+011933FM-12+000899999V0201401N003019999999N999999999-00491-01001100961ADDMA1999999100861MD1710031+9999REMSYN04801007 46/// /1403 11049 21100 30086 40096 57003=
0089010070999992015011204004+78917+011933FM-12+000899999V0202001N001019999999N999999999-00551-01081100931ADDMA1999999100831MD1710051+9999REMSYN04801007 46/// /2001 11055 21108 30083 40093 57005=
0089010070999992015011205004+78917+011933FM-12+000899999V0202301N001019999999N999999999-00491-00981100931ADDMA1999999100831MD1710031+9999REMSYN04801007 46/// /2301 11049 21098 30083 40093 57003=
0309010070999992015011206004+78917+011933FM-12+000899999V0201701N001019999999N070001199-00411-00961100931ADDAA112000091AA224000091AJ199991999999999AY121021AY211021GA1031+022501031GA2999+999999001GE19MSL   +99999+99999GF104991031999022501999999IA1259KA1240N-00651MA1999999100831MD1710031+9999MW1021OD139900601999REMSYN09401007 11889 41701 11041 21096 30083 40093 57003 60002 70221 83031 333 21065 41/// 70000 91106=
0089010070999992015011207004+78917+011933FM-12+000899999V0202001N001019999999N999999999-00441-00971100931ADDMA1999999100841MD1410001+9999REMSYN04801007 46/// /2001 11044 21097 30084 40093 54000=
0108010070999992015011208004+78917+011933FM-12+000899999V0202201N001019999999N999999999-00421-00921100941ADDMA1999999100841MD1290019+9999REMSYN04801007 46/// /2201 11042 21092 30084 40094 52000=EQDQ010     3APC3  
0089010070999992015011209004+78917+011933FM-12+000899999V0201901N002019999999N999999999-00411-00891100951ADDMA1999999100851MD1210021+9999REMSYN04801007 46/// /1902 11041 21089 30085 40095 52002=
0089010070999992015011210004+78917+011933FM-12+000899999V0201501N001019999999N999999999-00531-00991100951ADDMA1999999100851MD1210011+9999REMSYN04801007 46/// /1501 11053 21099 30085 40095 52001=
0089010070999992015011211004+78917+011933FM-12+000899999V0209999C999999999999N999999999-00511-00971100921ADDMA1999999100821MD1810021+9999REMSYN04801007 46/// /0000 11051 21097 30082 40092 58002=
0228010070999992015011212004+78917+011933FM-12+000899999V0202601N001019999999N070001199-00631-01021100891ADDAA106000091AY121021AY201021GA1071+017501061GE19MSL   +99999+99999GF107991071999017501999999MA1999999100791MD1810071+9999MW1021OD139900601999REMSYN07601007 11789 72601 11063 21102 30079 40089 58007 60001 70220 875// 333 91106=
0089010070999992015011213004+78917+011933FM-12+000899999V0201201N001019999999N999999999-00661-01081100881ADDMA1999999100781MD1710071+9999REMSYN04801007 46/// /1201 11066 21108 30078 40088 57007=
0089010070999992015011214004+78917+011933FM-12+000899999V0203001N001019999999N999999999-00851-01231100861ADDMA1999999100761MD1710061+9999REMSYN04801007 46/// /3001 11085 21123 30076 40086 57006=
0089010070999992015011215004+78917+011933FM-12+000899999V0202801N001019999999N999999999-00871-01221100841ADDMA1999999100741MD1710051+9999REMSYN04801007 46/// /2801 11087 21122 30074 40084 57005=
0089010070999992015011216004+78917+011933FM-12+000899999V0209999C999999999999N999999999-00861-01261100811ADDMA1999999100711MD1710061+9999REMSYN04801007 46/// /0000 11086 21126 30071 40081 57006=
0089010070999992015011217004+78917+011933FM-12+000899999V0201301N001019999999N999999999-00771-01161100811ADDMA1999999100711MD1710051+9999REMSYN04801007 46/// /1301 11077 21116 30071 40081 57005=
0247010070999992015011218004+78917+011933FM-12+000899999V0209999C999999999999N070001199-00801-01141100791ADDAA112000091AY121021AY201021GA1081+017501061GE19MSL   +99999+99999GF108991081999017501999999KA1120M-00401MA1999999100691MD1710041+9999MW1031OD139900201999REMSYN08201007 11789 80000 11080 21114 30069 40079 57004 60002 70320 885// 333 11040 91102=
0089010070999992015011219004+78917+011933FM-12+000899999V0209999C999999999999N999999999-00741-01111100781ADDMA1999999100681MD1710041+9999REMSYN04801007 46/// /0000 11074 21111 30068 40078 57004=
0089010070999992015011220004+78917+011933FM-12+000899999V0201701N001019999999N999999999-00721-01081100751ADDMA1999999100651MD1710051+9999REMSYN04801007 46/// /1701 11072 21108 30065 40075 57005=
0089010070999992015011221004+78917+011933FM-12+000899999V0209999C999999999999N999999999-00681-01071100721ADDMA1999999100621MD1710071+9999REMSYN04801007 46/// /0000 11068 21107 30062 40072 57007=
0089010070999992015011222004+78917+011933FM-12+000899999V0201601N002019999999N999999999-00621-01091100671ADDMA1999999100571MD1710101+9999REMSYN04801007 46/// /1602 11062 21109 30057 40067 57010=
0089010070999992015011223004+78917+011933FM-12+000899999V0209999C999999999999N999999999-00601-01041100631ADDMA1999999100531MD1710131+9999REMSYN04801007 46/// /0000 11060 21104 30053 40063 57013=
0130010070999992015011300004+78917+011933FM-12+000899999V0202201N002019999999N999999999-00651-01071100571ADDAA106000331MA1999999100481MD1710151+9999OD139900301999REMSYN06401007 16/// /2202 11065 21107 30048 40057 57015 69931 333 91103=
0089010070999992015011301004+78917+011933FM-12+000899999V0201601N002019999999N999999999-00581-01111100561ADDMA1999999100461MD1610121+9999REMSYN04801007 46/// /1602 11058 21111 30046 40056 56012=
0089010070999992015011302004+78917+011933FM-12+000899999V0201601N001019999999N999999999-00641-01101100521ADDMA1999999100421MD1710101+9999REMSYN04801007 46/// /1601 11064 21110 30042 40052 57010=
0089010070999992015011303004+78917+011933FM-12+000899999V0202501N001019999999N999999999-00661-01051100481ADDMA1999999100381MD1710101+9999REMSYN04801007 46/// /2501 11066 21105 30038 40048 57010=
0089010070999992015011304004+78917+011933FM-12+000899999V0202401N002019999999N999999999-00651-01061100411ADDMA1999999100311MD1810151+9999REMSYN04801007 46/// /2402 11065 21106 30031 40041 58015=
0089010070999992015011305004+78917+011933FM-12+000899999V0209999C999999999999N999999999-00731-01101100371ADDMA1999999100281MD1710151+9999REMSYN04801007 46/// /0000 11073 21110 30028 40037 57015=
0312010070999992015011306004+78917+011933FM-12+000899999V0202401N001019999999N070001199-00651-01161100331ADDAA112000091AA224000091AJ199991999999999AY101021AY201021GA1999+999999021GE19MSL   +99999+99999GF101991001999999999999999IA1269KA1240N-00891MA1999999100231MD1710151+9999MW1021OD139900401999REMSYN09401007 11989 12401 11065 21116 30023 40033 57015 60002 70200 80008 333 21089 42/// 70000 91104=EQDQ01    003SCCGA1
0089010070999992015011307004+78917+011933FM-12+000899999V0201801N001019999999N999999999-00591-01011100301ADDMA1999999100211MD1710101+9999REMSYN04801007 46/// /1801 11059 21101 30021 40030 57010=
0089010070999992015011308004+78917+011933FM-12+000899999V0202501N002019999999N999999999-00701-01221100271ADDMA1999999100171MD1710101+9999REMSYN04801007 46/// /2502 11070 21122 30017 40027 57010=
0089010070999992015011309004+78917+011933FM-12+000899999V0201501N002019999999N999999999-00521-01261100241ADDMA1999999100151MD1710081+9999REMSYN04801007 46/// /1502 11052 21126 30015 40024 57008=
0089010070999992015011310004+78917+011933FM-12+000899999V0201501N007019999999N999999999-00561-01321100231ADDMA1999999100131MD1710081+9999REMSYN04801007 46/// /1507 11056 21132 30013 40023 57008=
0089010070999992015011311004+78917+011933FM-12+000899999V0201201N008019999999N999999999-00661-01261100231ADDMA1999999100141MD1610041+9999REMSYN04801007 46/// /1208 11066 21126 30014 40023 56004=
0158010070999992015011312004+78917+011933FM-12+000899999V0201401N007019999999N070001199-00611-01291100281ADDAA106000331AY101021AY201021MA1999999100181MD1310031+9999MW1021OD139901101999REMSYN07001007 11989 01407 11061 21129 30018 40028 53003 69931 70200 333 91111=
0089010070999992015011313004+78917+011933FM-12+000899999V0201301N007019999999N999999999-00551-01331100281ADDMA1999999100181MD1310051+9999REMSYN04801007 46/// /1307 11055 21133 30018 40028 53005=
0089010070999992015011314004+78917+011933FM-12+000899999V0201301N007019999999N999999999-00741-01411100301ADDMA1999999100201MD1210061+9999REMSYN04801007 46/// /1307 11074 21141 30020 40030 52006=
0089010070999992015011315004+78917+011933FM-12+000899999V0201301N010019999999N999999999-00721-01161100311ADDMA1999999100211MD1210031+9999REMSYN04801007 46/// /1310 11072 21116 30021 40031 52003=
0089010070999992015011316004+78917+011933FM-12+000899999V0201301N005019999999N999999999-00931-01411100351ADDMA1999999100251MD1310071+9999REMSYN04801007 46/// /1305 11093 21141 30025 40035 53007=
0089010070999992015011317004+78917+011933FM-12+000899999V0201401N004019999999N999999999-00761-01491100351ADDMA1999999100251MD1110051+9999REMSYN04801007 46/// /1404 11076 21149 30025 40035 51005=
0177010070999992015011318004+78917+011933FM-12+000899999V0201001N006019999999N070001199-00781-01301100351ADDAA112000431AY101021AY201021KA1120M-00431MA1999999100251MD1990041+9999MW1021OD139901301999REMSYN07601007 11989 01006 11078 21130 30025 40035 50004 69942 70200 333 11043 91113=
0089010070999992015011319004+78917+011933FM-12+000899999V0201001N007019999999N999999999-00781-01281100371ADDMA1999999100271MD1310021+9999REMSYN04801007 46/// /1007 11078 21128 30027 40037 53002=
0089010070999992015011320004+78917+011933FM-12+000899999V0201101N006019999999N999999999-00851-01491100401ADDMA1999999100301MD1310051+9999REMSYN04801007 46/// /1106 11085 21149 30030 40040 53005=
0089010070999992015011321004+78917+011933FM-12+000899999V0201501N005019999999N999999999-01011-01551100411ADDMA1999999100311MD1310061+9999REMSYN04801007 46/// /1505 11101 21155 30031 40041 53006=
0089010070999992015011322004+78917+011933FM-12+000899999V0201601N004019999999N999999999-00961-01561100411ADDMA1999999100311MD1990031+9999REMSYN04801007 46/// /1604 11096 21156 30031 40041 50003=
0089010070999992015011323004+78917+011933FM-12+000899999V0201501N003019999999N999999999-00941-01601100421ADDMA1999999100321MD1210021+9999REMSYN04801007 46/// /1503 11094 21160 30032 40042 52002=
0130010070999992015011400004+78917+011933FM-12+000899999V0201201N005019999999N999999999-00921-01581100391ADDAA106000091MA1999999100291MD1810011+9999OD139901201999REMSYN06401007 16/// /1205 11092 21158 30029 40039 58001 60001 333 91112=
0108010070999992015011401004+78917+011933FM-12+000899999V0201301N007019999999N999999999-00941-01491100401ADDMA1999999100301MD1810019+9999REMSYN04801007 46/// /1307 11094 21149 30030 40040 58000=EQDQ010     3APC3  
0089010070999992015011402004+78917+011933FM-12+000899999V0201201N009019999999N999999999-00821-01411100381ADDMA1999999100281MD1710041+9999REMSYN04801007 46/// /1209 11082 21141 30028 40038 57004=
0089010070999992015011403004+78917+011933FM-12+000899999V0201401N005019999999N999999999-01001-01641100391ADDMA1999999100291MD1410001+9999REMSYN04801007 46/// /1405 11100 21164 30029 40039 54000=
0089010070999992015011404004+78917+011933FM-12+000899999V0201001N010019999999N999999999-00891-01421100351ADDMA1999999100251MD1810051+9999REMSYN04801007 46/// /1010 11089 21142 30025 40035 58005=
0089010070999992015011405004+78917+011933FM-12+000899999V0201401N007019999999N999999999-00971-01551100331ADDMA1999999100231MD1810041+9999REMSYN04801007 46/// /1407 11097 21155 30023 40033 58004=
0223010070999992015011406004+78917+011933FM-12+000899999V0201401N006019999999N070001199-01071-01691100331ADDAA112000091AA224000091AJ199991999999999AY101021AY201021IA1269KA1240N-01101MA1999999100221MD1710071+9999MW1021OD139901301999REMSYN08801007 11989 01406 11107 21169 30022 40033 57007 60002 70200 333 21110 42/// 70000 91113=
0089010070999992015011407004+78917+011933FM-12+000899999V0201401N007019999999N999999999-01071-01721100331ADDMA1999999100231MD1610021+9999REMSYN04801007 46/// /1407 11107 21172 30023 40033 56002=
0089010070999992015011408004+78917+011933FM-12+000899999V0201301N005019999999N999999999-00981-01781100351ADDMA1999999100251MD1210011+9999REMSYN04801007 46/// /1305 11098 21178 30025 40035 52001=
0089010070999992015011409004+78917+011933FM-12+000899999V0201301N008019999999N999999999-00851-01571100391ADDMA1999999100291MD1310061+9999REMSYN04801007 46/// /1308 11085 21157 30029 40039 53006=
0089010070999992015011410004+78917+011933FM-12+000899999V0201401N006019999999N999999999-00911-01741100411ADDMA1999999100311MD1210081+9999REMSYN04801007 46/// /1406 11091 21174 30031 40041 52008=
0089010070999992015011411004+78917+011933FM-12+000899999V0201501N006019999999N999999999-00951-01781100431ADDMA1999999100331MD1210081+9999REMSYN04801007 46/// /1506 11095 21178 30033 40043 52008=
0158010070999992015011412004+78917+011933FM-12+000899999V0201401N005019999999N070001199-00911-01811100431ADDAA106000231AY101021AY201021MA1999999100331MD1210041+9999MW1021OD139901001999REMSYN07001007 11989 01405 11091 21181 30033 40043 52004 69921 70200 333 91110=
0089010070999992015011413004+78917+011933FM-12+000899999V0201501N005019999999N999999999-00861-01741100451ADDMA1999999100351MD1210041+9999REMSYN04801007 46/// /1505 11086 21174 30035 40045 52004=
0089010070999992015011414004+78917+011933FM-12+000899999V0201201N006019999999N999999999-00861-01691100461ADDMA1999999100361MD1210031+9999REMSYN04801007 46/// /1206 11086 21169 30036 40046 52003=
0089010070999992015011415004+78917+011933FM-12+000899999V0201501N006019999999N999999999-00971-01771100451ADDMA1999999100351MD1210021+9999REMSYN04801007 46/// /1506 11097 21177 30035 40045 52002=
0089010070999992015011416004+78917+011933FM-12+000899999V0201401N005019999999N999999999-01001-01801100461ADDMA1999999100361MD1210011+9999REMSYN04801007 46/// /1405 11100 21180 30036 40046 52001=
0089010070999992015011417004+78917+011933FM-12+000899999V0201301N006019999999N999999999-01071-01891100421ADDMA1999999100321MD1810041+9999REMSYN04801007 46/// /1306 11107 21189 30032 40042 58004=
0177010070999992015011418004+78917+011933FM-12+000899999V0201301N004019999999N070001199-01021-01761100461ADDAA112000231AY101021AY201021KA1120M-00811MA1999999100361MD1310011+9999MW1021OD139900901999REMSYN07601007 11989 01304 11102 21176 30036 40046 53001 69922 70200 333 11081 91109=
0089010070999992015011419004+78917+011933FM-12+000899999V0201501N005019999999N999999999-00961-01741100491ADDMA1999999100391MD1310031+9999REMSYN04801007 46/// /1505 11096 21174 30039 40049 53003=
0089010070999992015011420004+78917+011933FM-12+000899999V0201601N005019999999N999999999-01011-01931100511ADDMA1999999100411MD1210091+9999REMSYN04801007 46/// /1605 11101 21193 30041 40051 52009=
0089010070999992015011421004+78917+011933FM-12+000899999V0201501N005019999999N999999999-00941-01891100521ADDMA1999999100421MD1210061+9999REMSYN04801007 46/// /1505 11094 21189 30042 40052 52006=
0089010070999992015011422004+78917+011933FM-12+000899999V0201201N004019999999N999999999-00911-01831100491ADDMA1999999100391MD1990001+9999REMSYN04801007 46/// /1204 11091 21183 30039 40049 50000=
0089010070999992015011423004+78917+011933FM-12+000899999V0202301N001019999999N999999999-01001-02021100501ADDMA1999999100401MD1990001+9999REMSYN04801007 46/// /2301 11100 21202 30040 40050 50000=
0130010070999992015011500004+78917+011933FM-12+000899999V0201901N001019999999N999999999-00871-01851100521ADDAA106000091MA1999999100421MD1510001+9999OD139900901999REMSYN06401007 16/// /1901 11087 21185 30042 40052 55000 60001 333 91109=
0089010070999992015011501004+78917+011933FM-12+000899999V0202601N001019999999N999999999-00951-01871100531ADDMA1999999100431MD1210041+9999REMSYN04801007 46/// /2601 11095 21187 30043 40053 52004=
0089010070999992015011502004+78917+011933FM-12+000899999V0201701N001019999999N999999999-00901-01951100521ADDMA1999999100421MD1210021+9999REMSYN04801007 46/// /1701 11090 21195 30042 40052 52002=
0089010070999992015011503004+78917+011933FM-12+000899999V0202301N001019999999N999999999-00881-01991100501ADDMA1999999100401MD1810021+9999REMSYN04801007 46/// /2301 11088 21199 30040 40050 58002=
0089010070999992015011504004+78917+011933FM-12+000899999V0202601N001019999999N999999999-01121-01981100501ADDMA1999999100401MD1710031+9999REMSYN04801007 46/// /2601 11112 21198 30040 40050 57003=
0089010070999992015011505004+78917+011933FM-12+000899999V0209999C999999999999N999999999-01041-02061100491ADDMA1999999100391MD1710031+9999REMSYN04801007 46/// /0000 11104 21206 30039 40049 57003=
0223010070999992015011506004+78917+011933FM-12+000899999V0201201N001019999999N070001199-00991-02011100481ADDAA112000091AA224000091AJ199991999999999AY101021AY201021IA1269KA1240N-01271MA1999999100381MD1710021+9999MW1021OD139900301999REMSYN08801007 11989 01201 11099 21201 30038 40048 57002 60002 70200 333 21127 42/// 70000 91103=
0089010070999992015011507004+78917+011933FM-12+000899999V0209999C999999999999N999999999-01331-02271100471ADDMA1999999100371MD1710031+9999REMSYN04801007 46/// /0000 11133 21227 30037 40047 57003=
0089010070999992015011508004+78917+011933FM-12+000899999V0209999C999999999999N999999999-01151-02131100491ADDMA1999999100391MD1410001+9999REMSYN04801007 46/// /0000 11115 21213 30039 40049 54000=
0089010070999992015011509004+78917+011933FM-12+000899999V0201401N002019999999N999999999-01121-02101100491ADDMA1999999100391MD1210011+9999REMSYN04801007 46/// /1402 11112 21210 30039 40049 52001=
0089010070999992015011510004+78917+011933FM-12+000899999V0209999C999999999999N999999999-01121-02131100501ADDMA1999999100401MD1210021+9999REMSYN04801007 46/// /0000 11112 21213 30040 40050 52002=
0089010070999992015011511004+78917+011933FM-12+000899999V0202001N001019999999N999999999-01161-01971100471ADDMA1999999100371MD1810021+9999REMSYN04801007 46/// /2001 11116 21197 30037 40047 58002=
0228010070999992015011512004+78917+011933FM-12+000899999V0201401N005019999999N070001199-01131-01971100471ADDAA106000231AY121021AY201021GA1071+008001061GE19MSL   +99999+99999GF107991071999008001999999MA1999999100371MD1710021+9999MW1031OD139900601999REMSYN07601007 11589 71405 11113 21197 30037 40047 57002 69921 70320 875// 333 91106=
0089010070999992015011513004+78917+011933FM-12+000899999V0201301N003019999999N999999999-01031-01791100461ADDMA1999999100361MD1710041+9999REMSYN04801007 46/// /1303 11103 21179 30036 40046 57004=
0089010070999992015011514004+78917+011933FM-12+000899999V0201401N003019999999N999999999-01021-01601100461ADDMA1999999100361MD1710021+9999REMSYN04801007 46/// /1403 11102 21160 30036 40046 57002=
0089010070999992015011515004+78917+011933FM-12+000899999V0201301N003019999999N999999999-00951-01501100461ADDMA1999999100361MD1710021+9999REMSYN04801007 46/// /1303 11095 21150 30036 40046 57002=
0089010070999992015011516004+78917+011933FM-12+000899999V0201201N005019999999N999999999-00981-01531100461ADDMA1999999100361MD1210011+9999REMSYN04801007 46/// /1205 11098 21153 30036 40046 52001=
0089010070999992015011517004+78917+011933FM-12+000899999V0201401N004019999999N999999999-00991-01861100481ADDMA1999999100381MD1210021+9999REMSYN04801007 46/// /1404 11099 21186 30038 40048 52002=
0247010070999992015011518004+78917+011933FM-12+000899999V0201401N005019999999N070001199-01081-01881100521ADDAA112000091AY101021AY201021GA1011+008001061GE19MSL   +99999+99999GF101991011999008001999999KA1120M-00921MA1999999100421MD1310061+9999MW1021OD139900701999REMSYN08201007 11589 11405 11108 21188 30042 40052 53006 60002 70200 81500 333 11092 91107=
0089010070999992015011519004+78917+011933FM-12+000899999V0201401N004019999999N999999999-01141-02051100561ADDMA1999999100461MD1310101+9999REMSYN04801007 46/// /1404 11114 21205 30046 40056 53010=
0089010070999992015011520004+78917+011933FM-12+000899999V0201201N007019999999N999999999-01101-01901100591ADDMA1999999100491MD1210121+9999REMSYN04801007 46/// /1207 11110 21190 30049 40059 52012=
0089010070999992015011521004+78917+011933FM-12+000899999V0201401N004019999999N999999999-01141-02001100641ADDMA1999999100541MD1210121+9999REMSYN04801007 46/// /1404 11114 21200 30054 40064 52012=
0089010070999992015011522004+78917+011933FM-12+000899999V0201501N002019999999N999999999-01171-01941100711ADDMA1999999100601MD1310141+9999REMSYN04801007 46/// /1502 11117 21194 30060 40071 53014=
0089010070999992015011523004+78917+011933FM-12+000899999V0202301N002019999999N999999999-01271-02031100731ADDMA1999999100631MD1110141+9999REMSYN04801007 46/// /2302 11127 21203 30063 40073 51014=
0130010070999992015011600004+78917+011933FM-12+000899999V0201301N004019999999N999999999-01161-01911100761ADDAA106000091MA1999999100661MD1110121+9999OD139901001999REMSYN06401007 16/// /1304 11116 21191 30066 40076 51012 60001 333 91110=
0089010070999992015011601004+78917+011933FM-12+000899999V0202201N002019999999N999999999-01231-01931100781ADDMA1999999100671MD1310071+9999REMSYN04801007 46/// /2202 11123 21193 30067 40078 53007=
0089010070999992015011602004+78917+011933FM-12+000899999V0201301N003019999999N999999999-01151-01821100801ADDMA1999999100701MD1210081+9999REMSYN04801007 46/// /1303 11115 21182 30070 40080 52008=
0089010070999992015011603004+78917+011933FM-12+000899999V0201501N002019999999N999999999-01251-02021100831ADDMA1999999100731MD1210071+9999REMSYN04801007 46/// /1502 11125 21202 30073 40083 52007=
0089010070999992015011604004+78917+011933FM-12+000899999V0201201N007019999999N999999999-01241-01761100851ADDMA1999999100751MD1210081+9999REMSYN04801007 46/// /1207 11124 21176 30075 40085 52008=
0089010070999992015011605004+78917+011933FM-12+000899999V0202001N002019999999N999999999-01311-01971100871ADDMA1999999100771MD1210071+9999REMSYN04801007 46/// /2002 11131 21197 30077 40087 52007=
0223010070999992015011606004+78917+011933FM-12+000899999V0201101N006019999999N070001199-01211-01801100881ADDAA112000091AA224000091AJ199991999999999AY101021AY201021IA1269KA1240N-01381MA1999999100781MD1210051+9999MW1021OD139901101999REMSYN08801007 11989 01106 11121 21180 30078 40088 52005 60002 70200 333 21138 42/// 70000 91111=
0089010070999992015011607004+78917+011933FM-12+000899999V0202101N002019999999N999999999-01341-01961100941ADDMA1999999100841MD1310091+9999REMSYN04801007 46/// /2102 11134 21196 30084 40094 53009=
0089010070999992015011608004+78917+011933FM-12+000899999V0201501N007019999999N999999999-01451-01931100971ADDMA1999999100871MD1310101+9999REMSYN04801007 46/// /1507 11145 21193 30087 40097 53010=
0089010070999992015011609004+78917+011933FM-12+000899999V0201401N006019999999N999999999-01381-02041100991ADDMA1999999100891MD1990111+9999REMSYN04801007 46/// /1406 11138 21204 30089 40099 50011=
0089010070999992015011610004+78917+011933FM-12+000899999V0201301N005019999999N999999999-01321-02061101021ADDMA1999999100921MD1210081+9999REMSYN04801007 46/// /1305 11132 21206 30092 40102 52008=
0089010070999992015011611004+78917+011933FM-12+000899999V0201401N005019999999N999999999-01361-02061101031ADDMA1999999100931MD1210061+9999REMSYN04801007 46/// /1405 11136 21206 30093 40103 52006=
0158010070999992015011612004+78917+011933FM-12+000899999V0201401N004019999999N070001199-01391-02091101011ADDAA106000091AY101021AY201021MA1999999100911MD1990021+9999MW1021OD139901201999REMSYN07001007 11989 01404 11139 21209 30091 40101 50002 60001 70200 333 91112=
0089010070999992015011613004+78917+011933FM-12+000899999V0201501N004019999999N999999999-01441-02111101021ADDMA1999999100921MD1410001+9999REMSYN04801007 46/// /1504 11144 21211 30092 40102 54000=
0089010070999992015011614004+78917+011933FM-12+000899999V0201401N004019999999N999999999-01451-02081101021ADDMA1999999100921MD1710011+9999REMSYN04801007 46/// /1404 11145 21208 30092 40102 57001=
0089010070999992015011615004+78917+011933FM-12+000899999V0201501N004019999999N999999999-01411-02031101031ADDMA1999999100921MD1210021+9999REMSYN04801007 46/// /1504 11141 21203 30092 40103 52002=
0089010070999992015011616004+78917+011933FM-12+000899999V0201501N002019999999N999999999-01431-02141101021ADDMA1999999100921MD1410001+9999REMSYN04801007 46/// /1502 11143 21214 30092 40102 54000=
0089010070999992015011617004+78917+011933FM-12+000899999V0201401N003019999999N999999999-01321-01961101051ADDMA1999999100941MD1210031+9999REMSYN04801007 46/// /1403 11132 21196 30094 40105 52003=
0177010070999992015011618004+78917+011933FM-12+000899999V0202201N002019999999N070001199-01441-02091101061ADDAA112000091AY101021AY201021KA1120M-01181MA1999999100961MD1210031+9999MW1021OD139900701999REMSYN07601007 11989 02202 11144 21209 30096 40106 52003 60002 70200 333 11118 91107=
0089010070999992015011619004+78917+011933FM-12+000899999V0201801N001019999999N999999999-01391-02151101061ADDMA1999999100961MD1210041+9999REMSYN04801007 46/// /1801 11139 21215 30096 40106 52004=
0089010070999992015011620004+78917+011933FM-12+000899999V0201601N002019999999N999999999-01391-02091101081ADDMA1999999100981MD1210041+9999REMSYN04801007 46/// /1602 11139 21209 30098 40108 52004=
0089010070999992015011621004+78917+011933FM-12+000899999V0201501N002019999999N999999999-01381-02121101101ADDMA1999999101001MD1210041+9999REMSYN04801007 46/// /1502 11138 21212 30100 40110 52004=
0089010070999992015011622004+78917+011933FM-12+000899999V0201601N003019999999N999999999-01371-02151101111ADDMA1999999101011MD1210051+9999REMSYN04801007 46/// /1603 11137 21215 30101 40111 52005=
0089010070999992015011623004+78917+011933FM-12+000899999V0201501N002019999999N999999999-01381-02231101121ADDMA1999999101021MD1210041+9999REMSYN04801007 46/// /1502 11138 21223 30102 40112 52004=
0130010070999992015011700004+78917+011933FM-12+000899999V0201801N001019999999N999999999-01411-02251101141ADDAA106000091MA1999999101031MD1210031+9999OD139900501999REMSYN06401007 16/// /1801 11141 21225 30103 40114 52003 60001 333 91105=
0089010070999992015011701004+78917+011933FM-12+000899999V0201501N001019999999N999999999-01351-02241101151ADDMA1999999101051MD1210041+9999REMSYN04801007 46/// /1501 11135 21224 30105 40115 52004=
0089010070999992015011702004+78917+011933FM-12+000899999V0201401N002019999999N999999999-01371-02391101141ADDMA1999999101041MD1210021+9999REMSYN04801007 46/// /1402 11137 21239 30104 40114 52002=
0089010070999992015011703004+78917+011933FM-12+000899999V0201501N002019999999N999999999-01401-02291101141ADDMA1999999101041MD1210011+9999REMSYN04801007 46/// /1502 11140 21229 30104 40114 52001=
0089010070999992015011704004+78917+011933FM-12+000899999V0201601N002019999999N999999999-01351-02341101141ADDMA1999999101041MD1710011+9999REMSYN04801007 46/// /1602 11135 21234 30104 40114 57001=
0089010070999992015011705004+78917+011933FM-12+000899999V0202401N001019999999N999999999-01371-02471101181ADDMA1999999101071MD1310031+9999REMSYN04801007 46/// /2401 11137 21247 30107 40118 53003=
0223010070999992015011706004+78917+011933FM-12+000899999V0201701N001019999999N070001199-01381-02541101181ADDAA112000091AA224000091AJ199991999999999AY101021AY201021IA1269KA1240N-01491MA1999999101081MD1210041+9999MW1021OD139900401999REMSYN08801007 11989 01701 11138 21254 30108 40118 52004 60002 70200 333 21149 42/// 70000 91104=
0089010070999992015011707004+78917+011933FM-12+000899999V0201901N001019999999N999999999-01461-02551101231ADDMA1999999101131MD1310091+9999REMSYN04801007 46/// /1901 11146 21255 30113 40123 53009=
0089010070999992015011708004+78917+011933FM-12+000899999V0201501N001019999999N999999999-01361-02581101261ADDMA1999999101161MD1310091+9999REMSYN04801007 46/// /1501 11136 21258 30116 40126 53009=
0089010070999992015011709004+78917+011933FM-12+000899999V0201601N001019999999N999999999-01381-02571101331ADDMA1999999101221MD1210141+9999REMSYN04801007 46/// /1601 11138 21257 30122 40133 52014=
0089010070999992015011710004+78917+011933FM-12+000899999V0201301N001019999999N999999999-01361-02461101361ADDMA1999999101261MD1210131+9999REMSYN04801007 46/// /1301 11136 21246 30126 40136 52013=
0089010070999992015011711004+78917+011933FM-12+000899999V0201301N001019999999N999999999-01451-02391101401ADDMA1999999101301MD1210131+9999REMSYN04801007 46/// /1301 11145 21239 30130 40140 52013=
0158010070999992015011712004+78917+011933FM-12+000899999V0201401N001019999999N070001199-01431-02441101441ADDAA106000091AY101021AY201021MA1999999101341MD1210111+9999MW1021OD139900301999REMSYN07001007 11989 01401 11143 21244 30134 40144 52011 60001 70200 333 91103=
0089010070999992015011713004+78917+011933FM-12+000899999V0209999C999999999999N999999999-01551-02361101471ADDMA1999999101371MD1210111+9999REMSYN04801007 46/// /0000 11155 21236 30137 40147 52011=
0089010070999992015011714004+78917+011933FM-12+000899999V0209999C999999999999N999999999-01571-02381101501ADDMA1999999101401MD1210101+9999REMSYN04801007 46/// /0000 11157 21238 30140 40150 52010=
0089010070999992015011715004+78917+011933FM-12+000899999V0201301N001019999999N999999999-01441-02281101521ADDMA1999999101421MD1210091+9999REMSYN04801007 46/// /1301 11144 21228 30142 40152 52009=
0089010070999992015011716004+78917+011933FM-12+000899999V0201401N001019999999N999999999-01381-02181101551ADDMA1999999101451MD1210081+9999REMSYN04801007 46/// /1401 11138 21218 30145 40155 52008=
0089010070999992015011717004+78917+011933FM-12+000899999V0201401N002019999999N999999999-01381-02061101581ADDMA1999999101471MD1210071+9999REMSYN04801007 46/// /1402 11138 21206 30147 40158 52007=
0247010070999992015011718004+78917+011933FM-12+000899999V0201501N003019999999N070000199-01381-01911101601ADDAA112000231AY181021AY211021GA1081+008001081GE19MSL   +99999+99999GF108991081999008001999999KA1120M-01291MA1999999101501MD1210081+9999MW1851OD139900401999REMSYN08201007 11588 81503 11138 21191 30150 40160 52008 69922 78581 888// 333 11129 91104=
0089010070999992015011719004+78917+011933FM-12+000899999V0209999C999999999999N999999999-01261-01811101631ADDMA1999999101521MD1210071+9999REMSYN04801007 46/// /0000 11126 21181 30152 40163 52007=
0089010070999992015011720004+78917+011933FM-12+000899999V0201501N002019999999N999999999-01271-01751101641ADDMA1999999101541MD1210071+9999REMSYN04801007 46/// /1502 11127 21175 30154 40164 52007=
0089010070999992015011721004+78917+011933FM-12+000899999V0201601N001019999999N999999999-01141-01581101701ADDMA1999999101591MD1310101+9999REMSYN04801007 46/// /1601 11114 21158 30159 40170 53010=
0089010070999992015011722004+78917+011933FM-12+000899999V0202501N002019999999N999999999-01181-01531101731ADDMA1999999101631MD1210111+9999REMSYN04801007 46/// /2502 11118 21153 30163 40173 52011=
0089010070999992015011723004+78917+011933FM-12+000899999V0201301N001019999999N999999999-01161-01451101731ADDMA1999999101631MD1990091+9999REMSYN04801007 46/// /1301 11116 21145 30163 40173 50009=
0130010070999992015011800004+78917+011933FM-12+000899999V0201401N001019999999N999999999-01111-01341101721ADDAA106000931MA1999999101621MD1990031+9999OD139900301999REMSYN06401007 16/// /1401 11111 21134 30162 40172 50003 69991 333 91103=
0089010070999992015011801004+78917+011933FM-12+000899999V0202001N001019999999N999999999-01051-01261101721ADDMA1999999101621MD1710011+9999REMSYN04801007 46/// /2001 11105 21126 30162 40172 57001=
0089010070999992015011802004+78917+011933FM-12+000899999V0201601N001019999999N999999999-00971-01181101741ADDMA1999999101641MD1510001+9999REMSYN04801007 46/// /1601 11097 21118 30164 40174 55000=
0089010070999992015011803004+78917+011933FM-12+000899999V0201801N002019999999N999999999-00861-01151101691ADDMA1999999101591MD1810031+9999REMSYN04801007 46/// /1802 11086 21115 30159 40169 58003=
0089010070999992015011804004+78917+011933FM-12+000899999V0201401N001019999999N999999999-00841-01221101651ADDMA1999999101551MD1810071+9999REMSYN04801007 46/// /1401 11084 21122 30155 40165 58007=
0089010070999992015011805004+78917+011933FM-12+000899999V0209999C999999999999N999999999-00821-01121101601ADDMA1999999101501MD1810141+9999REMSYN04801007 46/// /0000 11082 21112 30150 40160 58014=
0293010070999992015011806004+78917+011933FM-12+000899999V0202501N004019999999N002000199-00681-01021101581ADDAA112001031AA224001431AJ100083100080099AY181021AY221021GA1081+008001091GE19MSL   +99999+99999GF108991081999008001999999IA1239KA1240N-01371MA1999999101481MD1510111+9999MW1861OD139900701999REMSYN09401007 11520 82504 11068 21102 30148 40158 55011 60012 78682 883// 333 21137 47008 70014 91107=
0089010070999992015011807004+78917+011933FM-12+000899999V0202401N003019999999N999999999-00631-01071101501ADDMA1999999101401MD1810141+9999REMSYN04801007 46/// /2403 11063 21107 30140 40150 58014=
0089010070999992015011808004+78917+011933FM-12+000899999V0202401N003019999999N999999999-00711-00911101451ADDMA1999999101351MD1810151+9999REMSYN04801007 46/// /2403 11071 21091 30135 40145 58015=
0089010070999992015011809004+78917+011933FM-12+000899999V0202301N005019999999N999999999-00621-00931101391ADDMA1999999101291MD1710191+9999REMSYN04801007 46/// /2305 11062 21093 30129 40139 57019=
0089010070999992015011810004+78917+011933FM-12+000899999V0202401N006019999999N999999999-00561-00831101351ADDMA1999999101261MD1710151+9999REMSYN04801007 46/// /2406 11056 21083 30126 40135 57015=
0089010070999992015011811004+78917+011933FM-12+000899999V0202801N008019999999N999999999-00631-00931101291ADDMA1999999101191MD1710151+9999REMSYN04801007 46/// /2808 11063 21093 30119 40129 57015=
0228010070999992015011812004+78917+011933FM-12+000899999V0202501N008019999999N030000199-00641-01131101271ADDAA106002031AY181021AY231021GA1071+008001091GE19MSL   +99999+99999GF107991071999008001999999MA1999999101171MD1610121+9999MW1361OD139901401999REMSYN07601007 11580 72508 11064 21113 30117 40127 56012 60021 73683 87300 333 91114=
0089010070999992015011813004+78917+011933FM-12+000899999V0202601N008019999999N999999999-00721-01061101231ADDMA1999999101131MD1610121+9999REMSYN04801007 46/// /2608 11072 21106 30113 40123 56012=
0089010070999992015011814004+78917+011933FM-12+000899999V0202901N008019999999N999999999-00841-01211101271ADDMA1999999101171MD1610031+9999REMSYN04801007 46/// /2908 11084 21121 30117 40127 56003=
0089010070999992015011815004+78917+011933FM-12+000899999V0203001N008019999999N999999999-00981-01261101251ADDMA1999999101151MD1610021+9999REMSYN04801007 46/// /3008 11098 21126 30115 40125 56002=
0089010070999992015011816004+78917+011933FM-12+000899999V0203001N009019999999N999999999-01131-01491101341ADDMA1999999101231MD1310101+9999REMSYN04801007 46/// /3009 11113 21149 30123 40134 53010=
0089010070999992015011817004+78917+011933FM-12+000899999V0202801N007019999999N999999999-01161-01551101361ADDMA1999999101261MD1310091+9999REMSYN04801007 46/// /2807 11116 21155 30126 40136 53009=
0247010070999992015011818004+78917+011933FM-12+000899999V0202901N005019999999N040000199-01121-01501101381ADDAA112002031AY181021AY231021GA1081+008001091GE19MSL   +99999+99999GF108991081999008001999999KA1120M-00541MA1999999101271MD1990121+9999MW1851OD139901401999REMSYN08201007 11582 82905 11112 21150 30127 40138 50012 60022 78583 883// 333 11054 91114=
0089010070999992015011819004+78917+011933FM-12+000899999V0202901N006019999999N999999999-01131-01461101401ADDMA1999999101301MD1310061+9999REMSYN04801007 46/// /2906 11113 21146 30130 40140 53006=
0089010070999992015011820004+78917+011933FM-12+000899999V0202801N004019999999N999999999-01101-01481101481ADDMA1999999101371MD1310111+9999REMSYN04801007 46/// /2804 11110 21148 30137 40148 53011=
0089010070999992015011821004+78917+011933FM-12+000899999V0202901N005019999999N999999999-01091-01551101511ADDMA1999999101411MD1310141+9999REMSYN04801007 46/// /2905 11109 21155 30141 40151 53014=
0089010070999992015011822004+78917+011933FM-12+000899999V0202501N003019999999N999999999-01081-01551101501ADDMA1999999101401MD1990111+9999REMSYN04801007 46/// /2503 11108 21155 30140 40150 50011=
0089010070999992015011823004+78917+011933FM-12+000899999V0201901N001019999999N999999999-01121-01561101461ADDMA1999999101361MD1810011+9999REMSYN04801007 46/// /1901 11112 21156 30136 40146 58001=
0130010070999992015011900004+78917+011933FM-12+000899999V0201401N002019999999N999999999-01081-01551101461ADDAA106000091MA1999999101361MD1710051+9999OD139901001999REMSYN06401007 16/// /1402 11108 21155 30136 40146 57005 60001 333 91110=
0089010070999992015011901004+78917+011933FM-12+000899999V0201501N003019999999N999999999-01111-01501101391ADDMA1999999101291MD1810111+9999REMSYN04801007 46/// /1503 11111 21150 30129 40139 58011=
0089010070999992015011902004+78917+011933FM-12+000899999V0201201N005019999999N999999999-00991-01421101321ADDMA1999999101221MD1810141+9999REMSYN04801007 46/// /1205 11099 21142 30122 40132 58014=
0089010070999992015011903004+78917+011933FM-12+000899999V0201501N005019999999N999999999-01011-01521101221ADDMA1999999101121MD1810241+9999REMSYN04801007 46/// /1505 11101 21152 30112 40122 58024=
0089010070999992015011904004+78917+011933FM-12+000899999V0201501N004019999999N999999999-00931-01391101091ADDMA1999999100991MD1810301+9999REMSYN04801007 46/// /1504 11093 21139 30099 40109 58030=
0089010070999992015011905004+78917+011933FM-12+000899999V0201501N004019999999N999999999-00851-01231100931ADDMA1999999100831MD1810391+9999REMSYN04801007 46/// /1504 11085 21123 30083 40093 58039=
0293010070999992015011906004+78917+011933FM-12+000899999V0201001N004019999999N004000199-00691-01021100751ADDAA112000231AA224002331AJ100153100150099AY181021AY231021GA1081+004501081GE19MSL   +99999+99999GF108991081999004501999999IA1239KA1240N-01221MA1999999100651MD1810471+9999MW1851OD139900701999REMSYN09401007 11440 81004 11069 21102 30065 40075 58047 69922 78583 888// 333 21122 47015 70023 91107=
0089010070999992015011907004+78917+011933FM-12+000899999V0200801N005019999999N999999999-00561-00781100601ADDMA1999999100501MD1610491+9999REMSYN04801007 46/// /0805 11056 21078 30050 40060 56049=
0089010070999992015011908004+78917+011933FM-12+000899999V0201001N006019999999N999999999-00531-00691100511ADDMA1999999100411MD1610421+9999REMSYN04801007 46/// /1006 11053 21069 30041 40051 56042=
0089010070999992015011909004+78917+011933FM-12+000899999V0202101N006019999999N999999999-00341-00601100431ADDMA1999999100331MD1610321+9999REMSYN04801007 46/// /2106 11034 21060 30033 40043 56032=
0089010070999992015011910004+78917+011933FM-12+000899999V0202301N009019999999N999999999-00361-00541100361ADDMA1999999100261MD1610241+9999REMSYN04801007 46/// /2309 11036 21054 30026 40036 56024=
0089010070999992015011911004+78917+011933FM-12+000899999V0202401N010019999999N999999999-00311-00621100261ADDMA1999999100161MD1810251+9999REMSYN04801007 46/// /2410 11031 21062 30016 40026 58025=
0228010070999992015011912004+78917+011933FM-12+000899999V0202401N009019999999N004000199-00351-00541100221ADDAA106002031AY181021AY231021GA1081+004501081GE19MSL   +99999+99999GF108991081999004501999999MA1999999100121MD1610211+9999MW1851OD139901601999REMSYN07601007 11440 82409 11035 21054 30012 40022 56021 60021 78583 888// 333 91116=
0089010070999992015011913004+78917+011933FM-12+000899999V0202501N009019999999N999999999-00291-00661100151ADDMA1999999100061MD1610201+9999REMSYN04801007 46/// /2509 11029 21066 30006 40015 56020=
0089010070999992015011914004+78917+011933FM-12+000899999V0202501N008019999999N999999999-00331-00731100131ADDMA1999999100031MD1610141+9999REMSYN04801007 46/// /2508 11033 21073 30003 40013 56014=
0089010070999992015011915004+78917+011933FM-12+000899999V0202601N006019999999N999999999-00271-00641100131ADDMA1999999100031MD1610091+9999REMSYN04801007 46/// /2606 11027 21064 30003 40013 56009=
0089010070999992015011916004+78917+011933FM-12+000899999V0202501N007019999999N999999999-00271-00691100091ADDMA1999999100001MD1610061+9999REMSYN04801007 46/// /2507 11027 21069 30000 40009 56006=
0089010070999992015011917004+78917+011933FM-12+000899999V0202601N007019999999N999999999-00311-00691100111ADDMA1999999100011MD1610021+9999REMSYN04801007 46/// /2607 11031 21069 30001 40011 56002=
0247010070999992015011918004+78917+011933FM-12+000899999V0202601N006019999999N020000199-00341-00761100111ADDAA112003031AY121021AY221021GA1081+008001081GE19MSL   +99999+99999GF108991081999008001999999KA1120M-00251MA1999999100011MD1610021+9999MW1021OD139901701999REMSYN08201007 11570 82606 11034 21076 30001 40011 56002 60032 70222 888// 333 11025 91117=
0089010070999992015011919004+78917+011933FM-12+000899999V0202501N007019999999N999999999-00361-00791100141ADDMA1999999100051MD1310051+9999REMSYN04801007 46/// /2507 11036 21079 30005 40014 53005=
0089010070999992015011920004+78917+011933FM-12+000899999V0202701N005019999999N999999999-00341-00711100161ADDMA1999999100061MD1310051+9999REMSYN04801007 46/// /2705 11034 21071 30006 40016 53005=
0089010070999992015011921004+78917+011933FM-12+000899999V0202701N004019999999N999999999-00371-00661100211ADDMA1999999100121MD1210111+9999REMSYN04801007 46/// /2704 11037 21066 30012 40021 52011=
0089010070999992015011922004+78917+011933FM-12+000899999V0202601N005019999999N999999999-00351-00691100251ADDMA1999999100151MD1210111+9999REMSYN04801007 46/// /2605 11035 21069 30015 40025 52011=
0089010070999992015011923004+78917+011933FM-12+000899999V0202601N003019999999N999999999-00371-00711100251ADDMA1999999100151MD1110091+9999REMSYN04801007 46/// /2603 11037 21071 30015 40025 51009=
0130010070999992015012000004+78917+011933FM-12+000899999V0202501N005019999999N999999999-00331-00781100251ADDAA106000431MA1999999100161MD1990041+9999OD139901101999REMSYN06401007 16/// /2505 11033 21078 30016 40025 50004 69941 333 91111=
0089010070999992015012001004+78917+011933FM-12+000899999V0202601N004019999999N999999999-00331-00751100261ADDMA1999999100161MD1210011+9999REMSYN04801007 46/// /2604 11033 21075 30016 40026 52001=
0089010070999992015012002004+78917+011933FM-12+000899999V0202701N005019999999N999999999-00391-00741100321ADDMA1999999100231MD1310081+9999REMSYN04801007 46/// /2705 11039 21074 30023 40032 53008=
0089010070999992015012003004+78917+011933FM-12+000899999V0203101N006019999999N999999999-00441-00741100371ADDMA1999999100271MD1310121+9999REMSYN04801007 46/// /3106 11044 21074 30027 40037 53012=
0089010070999992015012004004+78917+011933FM-12+000899999V0203101N006019999999N999999999-00531-00801100431ADDMA1999999100331MD1210171+9999REMSYN04801007 46/// /3106 11053 21080 30033 40043 52017=
0089010070999992015012005004+78917+011933FM-12+000899999V0203101N005019999999N999999999-00531-00801100481ADDMA1999999100381MD1210161+9999REMSYN04801007 46/// /3105 11053 21080 30038 40048 52016=
0293010070999992015012006004+78917+011933FM-12+000899999V0203101N005019999999N060000199-00511-00811100531ADDAA112000531AA224003531AJ100233100230099AY181021AY231021GA1081+008001081GE19MSL   +99999+99999GF108991081999008001999999IA1289KA1240N-00581MA1999999100431MD1210161+9999MW1851OD139901001999REMSYN09401007 11586 83105 11051 21081 30043 40053 52016 69952 78583 888// 333 21058 48023 70035 91110=
0089010070999992015012007004+78917+011933FM-12+000899999V0203101N006019999999N999999999-00611-00911100601ADDMA1999999100501MD1210171+9999REMSYN04801007 46/// /3106 11061 21091 30050 40060 52017=
0089010070999992015012008004+78917+011933FM-12+000899999V0203101N005019999999N999999999-00631-00991100691ADDMA1999999100591MD1310201+9999REMSYN04801007 46/// /3105 11063 21099 30059 40069 53020=
0089010070999992015012009004+78917+011933FM-12+000899999V0202901N004019999999N999999999-00721-01091100791ADDMA1999999100691MD1210251+9999REMSYN04801007 46/// /2904 11072 21109 30069 40079 52025=
0089010070999992015012010004+78917+011933FM-12+000899999V0202601N004019999999N999999999-00751-01171100881ADDMA1999999100781MD1210281+9999REMSYN04801007 46/// /2604 11075 21117 30078 40088 52028=
0089010070999992015012011004+78917+011933FM-12+000899999V0202701N003019999999N999999999-00671-01031100981ADDMA1999999100881MD1210291+9999REMSYN04801007 46/// /2703 11067 21103 30088 40098 52029=
0247010070999992015012012004+78917+011933FM-12+000899999V0202601N002019999999N020000199-00721-01081101051ADDAA106999999AY121021AY221021GA1081+008001081GE19MSL   +99999+99999GF108991081999008001999999MA1999999100951MD1110261+9999MW1851OD139900801999REMSYN07601007 11570 82602 11072 21108 30095 40105 51026 60001 78522 888// 333 91108=EQDQ01  00002PRCP06
0089010070999992015012013004+78917+011933FM-12+000899999V0203001N003019999999N999999999-00781-01091101111ADDMA1999999101011MD1110231+9999REMSYN04801007 46/// /3003 11078 21109 30101 40111 51023=
0089010070999992015012014004+78917+011933FM-12+000899999V0203001N002019999999N999999999-00791-01101101171ADDMA1999999101071MD1110191+9999REMSYN04801007 46/// /3002 11079 21110 30107 40117 51019=
0089010070999992015012015004+78917+011933FM-12+000899999V0202001N001019999999N999999999-00781-01091101221ADDMA1999999101121MD1210171+9999REMSYN04801007 46/// /2001 11078 21109 30112 40122 52017=
0089010070999992015012016004+78917+011933FM-12+000899999V0202001N001019999999N999999999-00751-01081101291ADDMA1999999101191MD1210181+9999REMSYN04801007 46/// /2001 11075 21108 30119 40129 52018=
0089010070999992015012017004+78917+011933FM-12+000899999V0202301N001019999999N999999999-00751-01171101351ADDMA1999999101251MD1210181+9999REMSYN04801007 46/// /2301 11075 21117 30125 40135 52018=
0247010070999992015012018004+78917+011933FM-12+000899999V0202501N002019999999N070001199-00861-01171101401ADDAA112000091AY181021AY221021GA1081+008001061GE19MSL   +99999+99999GF108991081999008001999999KA1120M-00511MA1999999101301MD1210171+9999MW1021OD139900501999REMSYN08201007 11589 82502 11086 21117 30130 40140 52017 60002 70282 885// 333 11051 91105=
0089010070999992015012019004+78917+011933FM-12+000899999V0209999C999999999999N999999999-00811-01161101481ADDMA1999999101381MD1310191+9999REMSYN04801007 46/// /0000 11081 21116 30138 40148 53019=
0089010070999992015012020004+78917+011933FM-12+000899999V0201301N003019999999N999999999-00921-01241101571ADDMA1999999101471MD1310221+9999REMSYN04801007 46/// /1303 11092 21124 30147 40157 53022=
0089010070999992015012021004+78917+011933FM-12+000899999V0209999C999999999999N999999999-00811-01151101621ADDMA1999999101521MD1110231+9999REMSYN04801007 46/// /0000 11081 21115 30152 40162 51023=
0089010070999992015012022004+78917+011933FM-12+000899999V0202501N001019999999N999999999-00811-01151101691ADDMA1999999101591MD1110211+9999REMSYN04801007 46/// /2501 11081 21115 30159 40169 51021=
0089010070999992015012023004+78917+011933FM-12+000899999V0201601N002019999999N999999999-00791-01181101751ADDMA1999999101651MD1210181+9999REMSYN04801007 46/// /1602 11079 21118 30165 40175 52018=
0130010070999992015012100004+78917+011933FM-12+000899999V0201901N001019999999N999999999-00711-01051101791ADDAA106000231MA1999999101691MD1110171+9999OD139900601999REMSYN06401007 16/// /1901 11071 21105 30169 40179 51017 69921 333 91106=
0089010070999992015012101004+78917+011933FM-12+000899999V0201601N003019999999N999999999-00741-01081101821ADDMA1999999101721MD1110141+9999REMSYN04801007 46/// /1603 11074 21108 30172 40182 51014=
0089010070999992015012102004+78917+011933FM-12+000899999V0201601N003019999999N999999999-00711-01081101851ADDMA1999999101751MD1210101+9999REMSYN04801007 46/// /1603 11071 21108 30175 40185 52010=
0089010070999992015012103004+78917+011933FM-12+000899999V0201501N003019999999N999999999-00781-01141101891ADDMA1999999101791MD1210091+9999REMSYN04801007 46/// /1503 11078 21114 30179 40189 52009=
0089010070999992015012104004+78917+011933FM-12+000899999V0201601N002019999999N999999999-00681-01121101901ADDMA1999999101801MD1210071+9999REMSYN04801007 46/// /1602 11068 21112 30180 40190 52007=
0089010070999992015012105004+78917+011933FM-12+000899999V0201401N003019999999N999999999-00711-01101101941ADDMA1999999101841MD1210081+9999REMSYN04801007 46/// /1403 11071 21110 30184 40194 52008=
0293010070999992015012106004+78917+011933FM-12+000899999V0201301N003019999999N070001199-00651-01041101921ADDAA112000091AA224000091AJ100223100220099AY181021AY221021GA1081+012501061GE19MSL   +99999+99999GF108991081999012501999999IA1239KA1240N-00941MA1999999101821MD1990041+9999MW1021OD139900401999REMSYN09401007 11689 81303 11065 21104 30182 40192 50004 60002 70282 885// 333 21094 47022 70000 91104=
0089010070999992015012107004+78917+011933FM-12+000899999V0201501N003019999999N999999999-00681-01051101901ADDMA1999999101801MD1990001+9999REMSYN04801007 46/// /1503 11068 21105 30180 40190 50000=
0089010070999992015012108004+78917+011933FM-12+000899999V0201401N003019999999N999999999-00631-01071101911ADDMA1999999101811MD1610021+9999REMSYN04801007 46/// /1403 11063 21107 30181 40191 56002=
0089010070999992015012109004+78917+011933FM-12+000899999V0201401N005019999999N999999999-00601-01011101891ADDMA1999999101791MD1710031+9999REMSYN04801007 46/// /1405 11060 21101 30179 40189 57003=
0089010070999992015012110004+78917+011933FM-12+000899999V0201201N004019999999N999999999-00401-00831101841ADDMA1999999101741MD1810061+9999REMSYN04801007 46/// /1204 11040 21083 30174 40184 58006=
0089010070999992015012111004+78917+011933FM-12+000899999V0201601N002019999999N999999999-00401-00851101801ADDMA1999999101711MD1810111+9999REMSYN04801007 46/// /1602 11040 21085 30171 40180 58011=
0228010070999992015012112004+78917+011933FM-12+000899999V0201201N008019999999N070001199-00341-00681101701ADDAA106000091AY121021AY211021GA1071+008001061GE19MSL   +99999+99999GF107991071999008001999999MA1999999101601MD1810191+9999MW1021OD139901101999REMSYN07601007 11589 71208 11034 21068 30160 40170 58019 60001 70221 875// 333 91111=
0089010070999992015012113004+78917+011933FM-12+000899999V0201201N010019999999N999999999-00251-00601101591ADDMA1999999101491MD1810261+9999REMSYN04801007 46/// /1210 11025 21060 30149 40159 58026=
0089010070999992015012114004+78917+011933FM-12+000899999V0201101N010019999999N999999999-00271-00661101501ADDMA1999999101401MD1710311+9999REMSYN04801007 46/// /1110 11027 21066 30140 40150 57031=
0089010070999992015012115004+78917+011933FM-12+000899999V0201101N011019999999N999999999-00361-00581101401ADDMA1999999101301MD1710301+9999REMSYN04801007 46/// /1111 11036 21058 30130 40140 57030=
0089010070999992015012116004+78917+011933FM-12+000899999V0201201N010019999999N999999999-00331-00621101281ADDMA1999999101181MD1810311+9999REMSYN04801007 46/// /1210 11033 21062 30118 40128 58031=
0089010070999992015012117004+78917+011933FM-12+000899999V0201101N013019999999N999999999-00351-00691101141ADDMA1999999101041MD1610361+9999REMSYN04801007 46/// /1113 11035 21069 30104 40114 56036=
0247010070999992015012118004+78917+011933FM-12+000899999V0201101N015019999999N023000199-00281-00621100961ADDAA112000091AY131021AY221021GA1081+008001061GE19MSL   +99999+99999GF108991081999008001999999KA1120M-00181MA1999999100861MD1810441+9999MW1381OD139901701999REMSYN08201007 11573 81115 11028 21062 30086 40096 58044 60002 73832 885// 333 11018 91117=
0089010070999992015012119004+78917+011933FM-12+000899999V0201101N016019999999N999999999-00461-00621100741ADDMA1999999100641MD1810541+9999REMSYN04801007 46/// /1116 11046 21062 30064 40074 58054=
0089010070999992015012120004+78917+011933FM-12+000899999V0201201N013019999999N999999999-00411-00561100611ADDMA1999999100511MD1610521+9999REMSYN04801007 46/// /1213 11041 21056 30051 40061 56052=
0089010070999992015012121004+78917+011933FM-12+000899999V0201201N008019999999N999999999-00251-00401100571ADDMA1999999100471MD1610391+9999REMSYN04801007 46/// /1208 11025 21040 30047 40057 56039=
0089010070999992015012122004+78917+011933FM-12+000899999V0201301N004019999999N999999999-00261-00401100521ADDMA1999999100421MD1610211+9999REMSYN04801007 46/// /1304 11026 21040 30042 40052 56021=
0089010070999992015012123004+78917+011933FM-12+000899999V0201201N006019999999N999999999-00121-00301100461ADDMA1999999100361MD1710151+9999REMSYN04801007 46/// /1206 11012 21030 30036 40046 57015=
0130010070999992015012200004+78917+011933FM-12+000899999V0201001N003019999999N999999999-00041-00261100411ADDAA106002031MA1999999100311MD1710161+9999OD139902001999REMSYN06401007 16/// /1003 11004 21026 30031 40041 57016 60021 333 91120=
0089010070999992015012201004+78917+011933FM-12+000899999V0200801N003019999999N999999999+00021-00231100321ADDMA1999999100221MD1810201+9999REMSYN04801007 46/// /0803 10002 21023 30022 40032 58020=
0089010070999992015012202004+78917+011933FM-12+000899999V0201401N003019999999N999999999-00071-00221100251ADDMA1999999100161MD1810201+9999REMSYN04801007 46/// /1403 11007 21022 30016 40025 58020=
0089010070999992015012203004+78917+011933FM-12+000899999V0201001N001019999999N999999999+00021-00121100171ADDMA1999999100081MD1610241+9999REMSYN04801007 46/// /1001 10002 21012 30008 40017 56024=
0089010070999992015012204004+78917+011933FM-12+000899999V0202001N005019999999N999999999+00141-00171100121ADDMA1999999100021MD1710201+9999REMSYN04801007 46/// /2005 10014 21017 30002 40012 57020=
0089010070999992015012205004+78917+011933FM-12+000899999V0202101N005019999999N999999999+00171-00151100091ADDMA1999999099991MD1610171+9999REMSYN04801007 46/// /2105 10017 21015 39999 40009 56017=
0249010070999992015012206004+78917+011933FM-12+000899999V0202201N00601002401CN013000199+00141-00201100101ADDAA112010032AA224009532AJ100243100240099AY181021AY281021GF109991999999999999999999IA1279KA1240N-00511MA1999999100001MD1610081+9999MW1811OD139901601999REMSYN08801007 11/63 92206 10014 21020 30000 40010 56008 60102 78188 333 21051 43024 70095 91116=
0089010070999992015012207004+78917+011933FM-12+000899999V0202201N006019999999N999999999+00091-00231100111ADDMA1999999100011MD1610011+9999REMSYN04801007 46/// /2206 10009 21023 30001 40011 56001=
0089010070999992015012208004+78917+011933FM-12+000899999V0202301N005019999999N999999999+00111+99999100131ADDMA1999999100031MD1990041+9999REMSYN04801007 46/// /2305 10011 2//// 30003 40013 50004=
0089010070999992015012209004+78917+011933FM-12+000899999V0202301N010019999999N999999999+00121-00221100141ADDMA1999999100051MD1210051+9999REMSYN04801007 46/// /2310 10012 21022 30005 40014 52005=
0089010070999992015012210004+78917+011933FM-12+000899999V0202401N007019999999N999999999+00071-00231100161ADDMA1999999100061MD1990051+9999REMSYN04801007 46/// /2407 10007 21023 30006 40016 50005=
0089010070999992015012211004+78917+011933FM-12+000899999V0202301N006019999999N999999999+00061-00231100191ADDMA1999999100091MD1110061+9999REMSYN04801007 46/// /2306 10006 21023 30009 40019 51006=
0244010070999992015012212004+78917+011933FM-12+000899999V0202201N007019999999N005000199+00081-00211100141ADDAA106005031AY181021AY271021GA1061+001501071GA2999+999999051GE19MSL   +99999+99999GF108991061999001501999999MA1999999100041MD1990001+9999MW1731OD139901701999REMSYN07601007 11250 82207 10008 21021 30004 40014 50000 60051 77387 8672/ 333 91117=
0089010070999992015012213004+78917+011933FM-12+000899999V0202301N010019999999N999999999+00061-00191100141ADDMA1999999100041MD1810011+9999REMSYN04801007 46/// /2310 10006 21019 30004 40014 58001=
0089010070999992015012214004+78917+011933FM-12+000899999V0202301N010019999999N999999999+00061-00291100131ADDMA1999999100041MD1610051+9999REMSYN04801007 46/// /2310 10006 21029 30004 40013 56005=
0089010070999992015012215004+78917+011933FM-12+000899999V0202301N006019999999N999999999+00091-00271100101ADDMA1999999100001MD1810041+9999REMSYN04801007 46/// /2306 10009 21027 30000 40010 58004=
0089010070999992015012216004+78917+011933FM-12+000899999V0202101N008019999999N999999999+00181-00201100061ADDMA1999999099961MD1810081+9999REMSYN04801007 46/// /2108 10018 21020 39996 40006 58008=
0089010070999992015012217004+78917+011933FM-12+000899999V0202201N008019999999N999999999+00171-00241100051ADDMA1999999099961MD1610081+9999REMSYN04801007 46/// /2208 10017 21024 39996 40005 56008=
0263010070999992015012218004+78917+011933FM-12+000899999V0202201N010019999999N005000199+00191-00201100041ADDAA112008031AY171021AY261021GA1071+002501071GA2999+999999051GE19MSL   +99999+99999GF108991071999002501999999KA1120M+00231MA1999999099951MD1610061+9999MW1631OD139901901999REMSYN08201007 11350 82210 10019 21020 39995 40004 56006 60082 76376 8772/ 333 10023 91119=
0089010070999992015012219004+78917+011933FM-12+000899999V0202201N009019999999N999999999+00191-00201100001ADDMA1999999099911MD1810061+9999REMSYN04801007 46/// /2209 10019 21020 39991 40000 58006=
0089010070999992015012220004+78917+011933FM-12+000899999V0202301N010019999999N999999999+00221-00161099971ADDMA1999999099871MD1810081+9999REMSYN04801007 46/// /2310 10022 21016 39987 49997 58008=
0089010070999992015012221004+78917+011933FM-12+000899999V0202201N011019999999N999999999+00191-00191099991ADDMA1999999099891MD1610051+9999REMSYN04801007 46/// /2211 10019 21019 39989 49999 56005=
0089010070999992015012222004+78917+011933FM-12+000899999V0202301N008019999999N999999999+00221-00161100001ADDMA1999999099901MD1510001+9999REMSYN04801007 46/// /2308 10022 21016 39990 40000 55000=
0089010070999992015012223004+78917+011933FM-12+000899999V0202201N008019999999N999999999+00191-00171099981ADDMA1999999099881MD1990011+9999REMSYN04801007 46/// /2208 10019 21017 39988 49998 50001=
0130010070999992015012300004+78917+011933FM-12+000899999V0202301N008019999999N999999999+00161-00201099971ADDAA106028031MA1999999099881MD1810021+9999OD139902001999REMSYN06401007 16/// /2308 10016 21020 39988 49997 58002 60281 333 91120=
0089010070999992015012301004+78917+011933FM-12+000899999V0202201N008019999999N999999999+00171-00171099981ADDMA1999999099881MD1610021+9999REMSYN04801007 46/// /2208 10017 21017 39988 49998 56002=
0108010070999992015012302004+78917+011933FM-12+000899999V0202201N008019999999N999999999+00231-00151099971ADDMA1999999099881MD1710019+9999REMSYN04801007 46/// /2208 10023 21015 39988 49997 57000=EQDQ010     3APC3  
