0089010090999992015010103004+80650+025000FM-12+000599999V0201001N009019999999N999999999-00351+99999099181ADDMA1999999099071MD1710071+9999REMSYN04801009 46/// /1009 11035 2//// 39907 49918 57007=
0113010090999992015010106004+80650+025000FM-12+000599999V0201101N008019999999N999999999-00331+99999099101ADDMA1999999099001MD1710071+9999OD139901201999REMSYN05801009 46/// /1108 11033 2//// 39900 49910 57007 333 91112=
0108010090999992015010109004+80650+025000FM-12+000599999V0201201N008019999999N999999999-00261+99999099091ADDMA1999999098991MD1790019+9999REMSYN04801009 46/// /1208 11026 2//// 39899 49909 54001=EQDQ01.1    3APC3  
0113010090999992015010112004+80650+025000FM-12+000599999V0201201N010019999999N999999999-00251+99999099041ADDMA1999999098931MD1710061+9999OD139901301999REMSYN05801009 46/// /1210 11025 2//// 39893 49904 57006 333 91113=
0089010090999992015010115004+80650+025000FM-12+000599999V0201201N012019999999N999999999-00291+99999098941ADDMA1999999098841MD1610091+9999REMSYN04801009 46/// /1212 11029 2//// 39884 49894 56009=
0132010090999992015010118004+80650+025000FM-12+000599999V0201101N011019999999N999999999-00281+99999098791ADDKA1120M-00231MA1999999098681MD1610161+9999OD139901501999REMSYN06401009 46/// /1111 11028 2//// 39868 49879 56016 333 11023 91115=
0089010090999992015010121004+80650+025000FM-12+000599999V0201201N011019999999N999999999-00251+99999098641ADDMA1999999098541MD1710151+9999REMSYN04801009 46/// /1211 11025 2//// 39854 49864 57015=
0113010090999992015010200004+80650+025000FM-12+000599999V0201101N010019999999N999999999-00221+99999098491ADDMA1999999098391MD1710151+9999OD139901501999REMSYN05801009 46/// /1110 11022 2//// 39839 49849 57015 333 91115=
0089010090999992015010203004+80650+025000FM-12+000599999V0201201N011019999999N999999999-00211+99999098461ADDMA1999999098351MD1710041+9999REMSYN04801009 46/// /1211 11021 2//// 39835 49846 57004=
0151010090999992015010206004+80650+025000FM-12+000599999V0201301N010019999999N999999999-00201+99999098441ADDKA1240N-00291MA1999999098331MD1790029+9999OD139901501999REMSYN06401009 46/// /1310 11020 2//// 39833 49844 54002 333 21029 91115=EQDQ01.2    3APC3  
0089010090999992015010209004+80650+025000FM-12+000599999V0201101N009019999999N999999999-00231+99999098481ADDMA1999999098371MD1210041+9999REMSYN04801009 46/// /1109 11023 2//// 39837 49848 52004=
0113010090999992015010212004+80650+025000FM-12+000599999V0201301N012019999999N999999999-00161+99999098551ADDMA1999999098441MD1110071+9999OD139901601999REMSYN05801009 46/// /1312 11016 2//// 39844 49855 51007 333 91116=
0089010090999992015010215004+80650+025000FM-12+000599999V0201301N014019999999N999999999-00241+99999098681ADDMA1999999098581MD1210131+9999REMSYN04801009 46/// /1314 11024 2//// 39858 49868 52013=
0132010090999992015010218004+80650+025000FM-12+000599999V0201301N014019999999N999999999-00261+99999098851ADDKA1120M-00131MA1999999098741MD1310171+9999OD139902001999REMSYN06401009 46/// /1314 11026 2//// 39874 49885 53017 333 11013 91120=
0089010090999992015010221004+80650+025000FM-12+000599999V0201101N015019999999N999999999-00321+99999098971ADDMA1999999098871MD1210121+9999REMSYN04801009 46/// /1115 11032 2//// 39887 49897 52012=
0113010090999992015010300004+80650+025000FM-12+000599999V0201101N016019999999N999999999-00291+99999099051ADDMA1999999098941MD1210081+9999OD139902001999REMSYN05801009 46/// /1116 11029 2//// 39894 49905 52008 333 91120=
0089010090999992015010303004+80650+025000FM-12+000599999V0201301N017019999999N999999999-00241+99999099191ADDMA1999999099081MD1110141+9999REMSYN04801009 46/// /1317 11024 2//// 39908 49919 51014=
0132010090999992015010306004+80650+025000FM-12+000599999V0201301N017019999999N999999999-00281+99999099401ADDKA1240N-00331MA1999999099291MD1210211+9999OD139902401999REMSYN06401009 46/// /1317 11028 2//// 39929 49940 52021 333 21033 91124=
0089010090999992015010309004+80650+025000FM-12+000599999V0201401N016019999999N999999999-00241+99999099811ADDMA1999999099701MD1210411+9999REMSYN04801009 46/// /1416 11024 2//// 39970 49981 52041=
0113010090999992015010312004+80650+025000FM-12+000599999V0201401N016019999999N999999999-00261+99999100071ADDMA1999999099961MD1310261+9999OD139902001999REMSYN05801009 46/// /1416 11026 2//// 39996 40007 53026 333 91120=
0089010090999992015010315004+80650+025000FM-12+000599999V0201401N016019999999N999999999-00271+99999100311ADDMA1999999100201MD1210241+9999REMSYN04801009 46/// /1416 11027 2//// 30020 40031 52024=
0132010090999992015010318004+80650+025000FM-12+000599999V0201401N013019999999N999999999-00271+99999100531ADDKA1120M-00241MA1999999100421MD1210221+9999OD139902001999REMSYN06401009 46/// /1413 11027 2//// 30042 40053 52022 333 11024 91120=
0089010090999992015010321004+80650+025000FM-12+000599999V0201501N013019999999N999999999-00311+99999100751ADDMA1999999100641MD1210221+9999REMSYN04801009 46/// /1513 11031 2//// 30064 40075 52022=
0113010090999992015010400004+80650+025000FM-12+000599999V0201501N011019999999N999999999-00321+99999100961ADDMA1999999100851MD1210211+9999OD139901701999REMSYN05801009 46/// /1511 11032 2//// 30085 40096 52021 333 91117=
0089010090999992015010403004+80650+025000FM-12+000599999V0201501N011019999999N999999999-00351+99999101131ADDMA1999999101021MD1310171+9999REMSYN04801009 46/// /1511 11035 2//// 30102 40113 53017=
0132010090999992015010406004+80650+025000FM-12+000599999V0201401N010019999999N999999999-00391+99999101261ADDKA1240N-00401MA1999999101161MD1210131+9999OD139901301999REMSYN06401009 46/// /1410 11039 2//// 30116 40126 52013 333 21040 91113=
0089010090999992015010409004+80650+025000FM-12+000599999V0201401N009019999999N999999999-00451+99999101441ADDMA1999999101331MD1210171+9999REMSYN04801009 46/// /1409 11045 2//// 30133 40144 52017=
0113010090999992015010412004+80650+025000FM-12+000599999V0201401N009019999999N999999999-00351+99999101531ADDMA1999999101421MD1210091+9999OD139901201999REMSYN05801009 46/// /1409 11035 2//// 30142 40153 52009 333 91112=
0089010090999992015010415004+80650+025000FM-12+000599999V0201501N010019999999N999999999-00291+99999101581ADDMA1999999101471MD1210051+9999REMSYN04801009 46/// /1510 11029 2//// 30147 40158 52005=
0132010090999992015010418004+80650+025000FM-12+000599999V0201501N008019999999N999999999-00331+99999101631ADDKA1120M-00291MA1999999101521MD1210051+9999OD139901201999REMSYN06401009 46/// /1508 11033 2//// 30152 40163 52005 333 11029 91112=
0108010090999992015010421004+80650+025000FM-12+000599999V0202201N006019999999N999999999-00321+99999101641ADDMA1999999101531MD1290019+9999REMSYN04801009 46/// /2206 11032 2//// 30153 40164 54001=EQDQ01.1    3APC3  
0113010090999992015010500004+80650+025000FM-12+000599999V0202601N006019999999N999999999-00291+99999101671ADDMA1999999101561MD1210031+9999OD139900901999REMSYN05801009 46/// /2606 11029 2//// 30156 40167 52003 333 91109=
0089010090999992015010503004+80650+025000FM-12+000599999V0202301N005019999999N999999999-00351+99999101711ADDMA1999999101601MD1210041+9999REMSYN04801009 46/// /2305 11035 2//// 30160 40171 52004=
0089010090999992015010506004+80650+025000FM-12+000599999V0202801N007019999999N999999999-00321+99999101691ADDMA1999999101581MD1990021+9999REMSYN04801009 46/// /2807 11032 2//// 30158 40169 50002=
0089010090999992015010509004+80650+025000FM-12+000599999V0202801N009019999999N999999999-00541+99999101791ADDMA1999999101681MD1210101+9999REMSYN04801009 46/// /2809 11054 2//// 30168 40179 52010=
0113010090999992015010512004+80650+025000FM-12+000599999V0202901N011019999999N999999999-00611+99999101841ADDMA1999999101731MD1210051+9999OD139901301999REMSYN05801009 46/// /2911 11061 2//// 30173 40184 52005 333 91113=
0089010090999992015010515004+80650+025000FM-12+000599999V0203101N010019999999N999999999-00701+99999101861ADDMA1999999101751MD1510021+9999REMSYN04801009 46/// /3110 11070 2//// 30175 40186 55002=
0132010090999992015010518004+80650+025000FM-12+000599999V0203001N009019999999N999999999-00731+99999101861ADDKA1120M-00321MA1999999101751MD1510001+9999OD139901201999REMSYN06401009 46/// /3009 11073 2//// 30175 40186 55000 333 11032 91112=
0089010090999992015010521004+80650+025000FM-12+000599999V0203001N007019999999N999999999-00701+99999101791ADDMA1999999101681MD1710071+9999REMSYN04801009 46/// /3007 11070 2//// 30168 40179 57007=
0113010090999992015010600004+80650+025000FM-12+000599999V0203201N004019999999N999999999-00701+99999101691ADDMA1999999101581MD1610101+9999OD139901101999REMSYN05801009 46/// /3204 11070 2//// 30158 40169 56010 333 91111=
0089010090999992015010601004+80650+025000FM-12+000599999V0203101N004019999999N999999999-00681+99999101671ADDMA1999999101561MD1710111+9999REMSYN04801009 46/// /3104 11068 2//// 30156 40167 57011=
0089010090999992015010602004+80650+025000FM-12+000599999V0203001N004019999999N999999999-00651+99999101631ADDMA1999999101521MD1810131+9999REMSYN04801009 46/// /3004 11065 2//// 30152 40163 58013=
0089010090999992015010603004+80650+025000FM-12+000599999V0203001N003019999999N999999999-00641+99999101541ADDMA1999999101431MD1610151+9999REMSYN04801009 46/// /3003 11064 2//// 30143 40154 56015=
0089010090999992015010604004+80650+025000FM-12+000599999V0202901N002019999999N999999999-00631+99999101471ADDMA1999999101361MD1610201+9999REMSYN04801009 46/// /2902 11063 2//// 30136 40147 56020=
0089010090999992015010605004+80650+025000FM-12+000599999V0202701N002019999999N999999999-00621+99999101421ADDMA1999999101311MD1810211+9999REMSYN04801009 46/// /2702 11062 2//// 30131 40142 58021=
0132010090999992015010606004+80650+025000FM-12+000599999V0202301N001019999999N999999999-00591+99999101371ADDKA1240N-00761MA1999999101261MD1710171+9999OD139900601999REMSYN06401009 46/// /2301 11059 2//// 30126 40137 57017 333 21076 91106=
0089010090999992015010607004+80650+025000FM-12+000599999V0200601N003019999999N999999999-00561+99999101311ADDMA1999999101201MD1710161+9999REMSYN04801009 46/// /0603 11056 2//// 30120 40131 57016=
0089010090999992015010608004+80650+025000FM-12+000599999V0200701N007019999999N999999999-00651+99999101271ADDMA1999999101161MD1710141+9999REMSYN04801009 46/// /0707 11065 2//// 30116 40127 57014=
0089010090999992015010609004+80650+025000FM-12+000599999V0200901N007019999999N999999999-00671+99999101241ADDMA1999999101131MD1710131+9999REMSYN04801009 46/// /0907 11067 2//// 30113 40124 57013=
0089010090999992015010610004+80650+025000FM-12+000599999V0201101N006019999999N999999999-00591+99999101171ADDMA1999999101061MD1610141+9999REMSYN04801009 46/// /1106 11059 2//// 30106 40117 56014=
0089010090999992015010611004+80650+025000FM-12+000599999V0201001N007019999999N999999999-00541+99999101111ADDMA1999999101001MD1710161+9999REMSYN04801009 46/// /1007 11054 2//// 30100 40111 57016=
0113010090999992015010612004+80650+025000FM-12+000599999V0201301N006019999999N999999999-00491+99999101071ADDMA1999999100961MD1710161+9999OD139900801999REMSYN05801009 46/// /1306 11049 2//// 30096 40107 57016 333 91108=
0089010090999992015010613004+80650+025000FM-12+000599999V0201201N005019999999N999999999-00451+99999100981ADDMA1999999100871MD1610191+9999REMSYN04801009 46/// /1205 11045 2//// 30087 40098 56019=
0089010090999992015010614004+80650+025000FM-12+000599999V0201201N005019999999N999999999-00411+99999100871ADDMA1999999100771MD1610241+9999REMSYN04801009 46/// /1205 11041 2//// 30077 40087 56024=
0089010090999992015010615004+80650+025000FM-12+000599999V0201301N008019999999N999999999-00351+99999100781ADDMA1999999100671MD1710291+9999REMSYN04801009 46/// /1308 11035 2//// 30067 40078 57029=
0089010090999992015010616004+80650+025000FM-12+000599999V0201301N009019999999N999999999-00401+99999100721ADDMA1999999100621MD1810261+9999REMSYN04801009 46/// /1309 11040 2//// 30062 40072 58026=
0089010090999992015010617004+80650+025000FM-12+000599999V0201501N007019999999N999999999-00341+99999100671ADDMA1999999100561MD1810201+9999REMSYN04801009 46/// /1507 11034 2//// 30056 40067 58020=
0132010090999992015010618004+80650+025000FM-12+000599999V0201301N008019999999N999999999-00291+99999100561ADDKA1120M-00291MA1999999100451MD1610221+9999OD139901001999REMSYN06401009 46/// /1308 11029 2//// 30045 40056 56022 333 11029 91110=
0089010090999992015010619004+80650+025000FM-12+000599999V0201301N012019999999N999999999-00421+99999100471ADDMA1999999100361MD1610261+9999REMSYN04801009 46/// /1312 11042 2//// 30036 40047 56026=
0089010090999992015010620004+80650+025000FM-12+000599999V0201401N012019999999N999999999-00411+99999100411ADDMA1999999100311MD1810261+9999REMSYN04801009 46/// /1412 11041 2//// 30031 40041 58026=
0089010090999992015010621004+80650+025000FM-12+000599999V0201401N012019999999N999999999-00341+99999100331ADDMA1999999100231MD1710231+9999REMSYN04801009 46/// /1412 11034 2//// 30023 40033 57023=
0089010090999992015010622004+80650+025000FM-12+000599999V0201401N012019999999N999999999-00321+99999100251ADDMA1999999100141MD1710221+9999REMSYN04801009 46/// /1412 11032 2//// 30014 40025 57022=
0089010090999992015010623004+80650+025000FM-12+000599999V0201301N012019999999N999999999-00351+99999100201ADDMA1999999100091MD1710221+9999REMSYN04801009 46/// /1312 11035 2//// 30009 40020 57022=
0113010090999992015010700004+80650+025000FM-12+000599999V0201401N011019999999N999999999-00221+99999100161ADDMA1999999100051MD1810181+9999OD139901501999REMSYN05801009 46/// /1411 11022 2//// 30005 40016 58018 333 91115=
0089010090999992015010701004+80650+025000FM-12+000599999V0201501N010019999999N999999999-00141+99999100081ADDMA1999999099981MD1710161+9999REMSYN04801009 46/// /1510 11014 2//// 39998 40008 57016=
0089010090999992015010702004+80650+025000FM-12+000599999V0201501N009019999999N999999999-00121+99999100021ADDMA1999999099911MD1710171+9999REMSYN04801009 46/// /1509 11012 2//// 39991 40002 57017=
0089010090999992015010703004+80650+025000FM-12+000599999V0201401N011019999999N999999999-00141+99999099951ADDMA1999999099841MD1710211+9999REMSYN04801009 46/// /1411 11014 2//// 39984 49995 57021=
0089010090999992015010704004+80650+025000FM-12+000599999V0201801N009019999999N999999999-00121+99999099851ADDMA1999999099741MD1610231+9999REMSYN04801009 46/// /1809 11012 2//// 39974 49985 56023=
0089010090999992015010705004+80650+025000FM-12+000599999V0201701N009019999999N999999999-00111+99999099881ADDMA1999999099781MD1810141+9999REMSYN04801009 46/// /1709 11011 2//// 39978 49988 58014=
0132010090999992015010706004+80650+025000FM-12+000599999V0201601N007019999999N999999999-00071+99999099871ADDKA1240N-00461MA1999999099761MD1810081+9999OD139901501999REMSYN06401009 46/// /1607 11007 2//// 39976 49987 58008 333 21046 91115=
0089010090999992015010707004+80650+025000FM-12+000599999V0201501N008019999999N999999999-00031+99999099861ADDMA1999999099751MD1510011+9999REMSYN04801009 46/// /1508 11003 2//// 39975 49986 55001=
0089010090999992015010708004+80650+025000FM-12+000599999V0201601N010019999999N999999999-00031+99999099841ADDMA1999999099731MD1710041+9999REMSYN04801009 46/// /1610 11003 2//// 39973 49984 57004=
0089010090999992015010709004+80650+025000FM-12+000599999V0201601N010019999999N999999999-00041+99999099821ADDMA1999999099721MD1710051+9999REMSYN04801009 46/// /1610 11004 2//// 39972 49982 57005=
0108010090999992015010710004+80650+025000FM-12+000599999V0201701N011019999999N999999999-00021+99999099831ADDMA1999999099731MD1790039+9999REMSYN04801009 46/// /1711 11002 2//// 39973 49983 54002=EQDQ01.2    3APC3  
0108010090999992015010711004+80650+025000FM-12+000599999V0201501N012019999999N999999999-00071+99999099831ADDMA1999999099721MD1790019+9999REMSYN04801009 46/// /1512 11007 2//// 39972 49983 54001=EQDQ01.1    3APC3  
0113010090999992015010712004+80650+025000FM-12+000599999V0201501N013019999999N999999999-00061+99999099791ADDMA1999999099681MD1610041+9999OD139901501999REMSYN05801009 46/// /1513 11006 2//// 39968 49979 56004 333 91115=
0089010090999992015010713004+80650+025000FM-12+000599999V0201601N012019999999N999999999-00081+99999099751ADDMA1999999099641MD1610091+9999REMSYN04801009 46/// /1612 11008 2//// 39964 49975 56009=
0089010090999992015010714004+80650+025000FM-12+000599999V0201601N011019999999N999999999-00051+99999099721ADDMA1999999099611MD1710111+9999REMSYN04801009 46/// /1611 11005 2//// 39961 49972 57011=
0089010090999992015010715004+80650+025000FM-12+000599999V0201501N013019999999N999999999-00071+99999099671ADDMA1999999099571MD1710111+9999REMSYN04801009 46/// /1513 11007 2//// 39957 49967 57011=
0089010090999992015010716004+80650+025000FM-12+000599999V0201501N013019999999N999999999-00111+99999099621ADDMA1999999099511MD1710131+9999REMSYN04801009 46/// /1513 11011 2//// 39951 49962 57013=
0089010090999992015010717004+80650+025000FM-12+000599999V0201501N014019999999N999999999-00161+99999099581ADDMA1999999099481MD1710141+9999REMSYN04801009 46/// /1514 11016 2//// 39948 49958 57014=
0132010090999992015010718004+80650+025000FM-12+000599999V0201501N015019999999N999999999-00131+99999099531ADDKA1120M-00011MA1999999099431MD1710141+9999OD139901801999REMSYN06401009 46/// /1515 11013 2//// 39943 49953 57014 333 11001 91118=
0089010090999992015010719004+80650+025000FM-12+000599999V0201501N014019999999N999999999-00121+99999099491ADDMA1999999099381MD1710131+9999REMSYN04801009 46/// /1514 11012 2//// 39938 49949 57013=
0089010090999992015010720004+80650+025000FM-12+000599999V0201501N016019999999N999999999-00111+99999099401ADDMA1999999099301MD1610181+9999REMSYN04801009 46/// /1516 11011 2//// 39930 49940 56018=
0089010090999992015010721004+80650+025000FM-12+000599999V0201501N016019999999N999999999-00111+99999099321ADDMA1999999099221MD1610211+9999REMSYN04801009 46/// /1516 11011 2//// 39922 49932 56021=
0089010090999992015010722004+80650+025000FM-12+000599999V0201501N016019999999N999999999-00111+99999099291ADDMA1999999099191MD1810191+9999REMSYN04801009 46/// /1516 11011 2//// 39919 49929 58019=
0089010090999992015010723004+80650+025000FM-12+000599999V0201501N015019999999N999999999-00111+99999099211ADDMA1999999099111MD1710191+9999REMSYN04801009 46/// /1515 11011 2//// 39911 49921 57019=
0113010090999992015010800004+80650+025000FM-12+000599999V0201501N015019999999N999999999-00151+99999099211ADDMA1999999099101MD1710121+9999OD139902001999REMSYN05801009 46/// /1515 11015 2//// 39910 49921 57012 333 91120=
0089010090999992015010801004+80650+025000FM-12+000599999V0201501N013019999999N999999999-00141+99999099201ADDMA1999999099091MD1810101+9999REMSYN04801009 46/// /1513 11014 2//// 39909 49920 58010=
0108010090999992015010802004+80650+025000FM-12+000599999V0201701N007019999999N999999999-00071+99999099201ADDMA1999999099091MD1790019+9999REMSYN04801009 46/// /1707 11007 2//// 39909 49920 54002=EQDQ01.2    3APC3  
0089010090999992015010803004+80650+025000FM-12+000599999V0202401N008019999999N999999999-00061+99999099211ADDMA1999999099101MD1410001+9999REMSYN04801009 46/// /2408 11006 2//// 39910 49921 54000=
0089010090999992015010804004+80650+025000FM-12+000599999V0202801N008019999999N999999999-00071+99999099281ADDMA1999999099181MD1110091+9999REMSYN04801009 46/// /2808 11007 2//// 39918 49928 51009=
0089010090999992015010805004+80650+025000FM-12+000599999V0202801N008019999999N999999999-00151+99999099401ADDMA1999999099291MD1110201+9999REMSYN04801009 46/// /2808 11015 2//// 39929 49940 51020=
0132010090999992015010806004+80650+025000FM-12+000599999V0202601N009019999999N999999999-00211+99999099511ADDKA1240N-00221MA1999999099401MD1110301+9999OD139901701999REMSYN06401009 46/// /2609 11021 2//// 39940 49951 51030 333 21022 91117=
0089010090999992015010807004+80650+025000FM-12+000599999V0202701N009019999999N999999999-00241+99999099601ADDMA1999999099491MD1210321+9999REMSYN04801009 46/// /2709 11024 2//// 39949 49960 52032=
0089010090999992015010808004+80650+025000FM-12+000599999V0202801N011019999999N999999999-00231+99999099641ADDMA1999999099531MD1310241+9999REMSYN04801009 46/// /2811 11023 2//// 39953 49964 53024=
0089010090999992015010809004+80650+025000FM-12+000599999V0202701N007019999999N999999999-00221+99999099761ADDMA1999999099661MD1110251+9999REMSYN04801009 46/// /2707 11022 2//// 39966 49976 51025=
0089010090999992015010810004+80650+025000FM-12+000599999V0202601N007019999999N999999999-00221+99999099841ADDMA1999999099731MD1110241+9999REMSYN04801009 46/// /2607 11022 2//// 39973 49984 51024=
0089010090999992015010811004+80650+025000FM-12+000599999V0202501N005019999999N999999999-00191+99999099921ADDMA1999999099811MD1310281+9999REMSYN04801009 46/// /2505 11019 2//// 39981 49992 53028=
0113010090999992015010812004+80650+025000FM-12+000599999V0202801N004019999999N999999999-00191+99999099951ADDMA1999999099841MD1310181+9999OD139901301999REMSYN05801009 46/// /2804 11019 2//// 39984 49995 53018 333 91113=
0089010090999992015010813004+80650+025000FM-12+000599999V0202801N001019999999N999999999-00191+99999100001ADDMA1999999099891MD1310161+9999REMSYN04801009 46/// /2801 11019 2//// 39989 40000 53016=
0089010090999992015010814004+80650+025000FM-12+000599999V0203501N001019999999N999999999-00231+99999100031ADDMA1999999099921MD1210111+9999REMSYN04801009 46/// /3501 11023 2//// 39992 40003 52011=
0089010090999992015010815004+80650+025000FM-12+000599999V0200901N003019999999N999999999-00191+99999100041ADDMA1999999099931MD1310091+9999REMSYN04801009 46/// /0903 11019 2//// 39993 40004 53009=
0089010090999992015010816004+80650+025000FM-12+000599999V0201101N005019999999N999999999-00181+99999100081ADDMA1999999099981MD1210081+9999REMSYN04801009 46/// /1105 11018 2//// 39998 40008 52008=
0089010090999992015010817004+80650+025000FM-12+000599999V0201301N006019999999N999999999-00141+99999100091ADDMA1999999099981MD1210061+9999REMSYN04801009 46/// /1306 11014 2//// 39998 40009 52006=
0132010090999992015010818004+80650+025000FM-12+000599999V0201301N007019999999N999999999-00121+99999100101ADDKA1120M-00111MA1999999100001MD1210061+9999OD139900801999REMSYN06401009 46/// /1307 11012 2//// 30000 40010 52006 333 11011 91108=
0089010090999992015010819004+80650+025000FM-12+000599999V0201301N007019999999N999999999-00141+99999100121ADDMA1999999100011MD1210041+9999REMSYN04801009 46/// /1307 11014 2//// 30001 40012 52004=
0089010090999992015010820004+80650+025000FM-12+000599999V0201201N008019999999N999999999-00191+99999100131ADDMA1999999100031MD1210051+9999REMSYN04801009 46/// /1208 11019 2//// 30003 40013 52005=
0089010090999992015010821004+80650+025000FM-12+000599999V0201101N010019999999N999999999-00211+99999100121ADDMA1999999100011MD1510011+9999REMSYN04801009 46/// /1110 11021 2//// 30001 40012 55001=
0108010090999992015010822004+80650+025000FM-12+000599999V0201201N011019999999N999999999-00261+99999100111ADDMA1999999100001MD1790019+9999REMSYN04801009 46/// /1211 11026 2//// 30000 40011 54001=EQDQ01.1    3APC3  
0108010090999992015010823004+80650+025000FM-12+000599999V0201301N009019999999N999999999-00181+99999100121ADDMA1999999100011MD1790019+9999REMSYN04801009 46/// /1309 11018 2//// 30001 40012 54002=EQDQ01.2    3APC3  
0132010090999992015010900004+80650+025000FM-12+000599999V0201401N008019999999N999999999-00101+99999100141ADDMA1999999100031MD1290029+9999OD139901301999REMSYN05801009 46/// /1408 11010 2//// 30003 40014 54002 333 91113=EQDQ01.2    3APC3  
0089010090999992015010901004+80650+025000FM-12+000599999V0201401N009019999999N999999999-00111+99999100161ADDMA1999999100051MD1210051+9999REMSYN04801009 46/// /1409 11011 2//// 30005 40016 52005=
0089010090999992015010902004+80650+025000FM-12+000599999V0201401N009019999999N999999999-00121+99999100181ADDMA1999999100081MD1210071+9999REMSYN04801009 46/// /1409 11012 2//// 30008 40018 52007=
0089010090999992015010903004+80650+025000FM-12+000599999V0201401N010019999999N999999999-00101+99999100211ADDMA1999999100101MD1210071+9999REMSYN04801009 46/// /1410 11010 2//// 30010 40021 52007=
0089010090999992015010904004+80650+025000FM-12+000599999V0201501N011019999999N999999999-00071+99999100201ADDMA1999999100101MD1310041+9999REMSYN04801009 46/// /1511 11007 2//// 30010 40020 53004=
0089010090999992015010905004+80650+025000FM-12+000599999V0201401N010019999999N999999999-00081+99999100251ADDMA1999999100151MD1210071+9999REMSYN04801009 46/// /1410 11008 2//// 30015 40025 52007=
0132010090999992015010906004+80650+025000FM-12+000599999V0201501N014019999999N999999999-00101+99999100211ADDKA1240N-00271MA1999999100101MD1510001+9999OD139901501999REMSYN06401009 46/// /1514 11010 2//// 30010 40021 55000 333 21027 91115=
0108010090999992015010907004+80650+025000FM-12+000599999V0201401N011019999999N999999999-00101+99999100221ADDMA1999999100121MD1290029+9999REMSYN04801009 46/// /1411 11010 2//// 30012 40022 54002=EQDQ01.2    3APC3  
0089010090999992015010908004+80650+025000FM-12+000599999V0201501N014019999999N999999999-00101+99999100181ADDMA1999999100071MD1710081+9999REMSYN04801009 46/// /1514 11010 2//// 30007 40018 57008=
0108010090999992015010909004+80650+025000FM-12+000599999V0201501N013019999999N999999999-00111+99999100211ADDMA1999999100111MD1410009+9999REMSYN04801009 46/// /1513 11011 2//// 30011 40021 54001=EQDQ01.1    3APC3  
0089010090999992015010910004+80650+025000FM-12+000599999V0201501N012019999999N999999999-00121+99999100271ADDMA1999999100161MD1990041+9999REMSYN04801009 46/// /1512 11012 2//// 30016 40027 50004=
0089010090999992015010911004+80650+025000FM-12+000599999V0201501N010019999999N999999999-00091+99999100291ADDMA1999999100181MD1210111+9999REMSYN04801009 46/// /1510 11009 2//// 30018 40029 52011=
0113010090999992015010912004+80650+025000FM-12+000599999V0201601N009019999999N999999999-00071+99999100351ADDMA1999999100251MD1210141+9999OD139901701999REMSYN05801009 46/// /1609 11007 2//// 30025 40035 52014 333 91117=
0089010090999992015010913004+80650+025000FM-12+000599999V0201501N008019999999N999999999-00081+99999100391ADDMA1999999100281MD1210121+9999REMSYN04801009 46/// /1508 11008 2//// 30028 40039 52012=
0089010090999992015010914004+80650+025000FM-12+000599999V0201501N006019999999N999999999-00061+99999100401ADDMA1999999100291MD1310111+9999REMSYN04801009 46/// /1506 11006 2//// 30029 40040 53011=
0089010090999992015010915004+80650+025000FM-12+000599999V0201801N007019999999N999999999-00061+99999100421ADDMA1999999100311MD1210071+9999REMSYN04801009 46/// /1807 11006 2//// 30031 40042 52007=
0089010090999992015010916004+80650+025000FM-12+000599999V0201701N007019999999N999999999-00061+99999100441ADDMA1999999100331MD1210051+9999REMSYN04801009 46/// /1707 11006 2//// 30033 40044 52005=
0089010090999992015010917004+80650+025000FM-12+000599999V0201901N006019999999N999999999-00071+99999100481ADDMA1999999100371MD1210081+9999REMSYN04801009 46/// /1906 11007 2//// 30037 40048 52008=
0132010090999992015010918004+80650+025000FM-12+000599999V0201701N005019999999N999999999-00101+99999100501ADDKA1120M-00041MA1999999100391MD1210081+9999OD139901101999REMSYN06401009 46/// /1705 11010 2//// 30039 40050 52008 333 11004 91111=
0089010090999992015010919004+80650+025000FM-12+000599999V0201701N006019999999N999999999-00071+99999100521ADDMA1999999100411MD1210081+9999REMSYN04801009 46/// /1706 11007 2//// 30041 40052 52008=
0089010090999992015010920004+80650+025000FM-12+000599999V0201801N006019999999N999999999-00081+99999100521ADDMA1999999100421MD1210051+9999REMSYN04801009 46/// /1806 11008 2//// 30042 40052 52005=
0108010090999992015010921004+80650+025000FM-12+000599999V0201801N006019999999N999999999-00101+99999100521ADDMA1999999100411MD1290029+9999REMSYN04801009 46/// /1806 11010 2//// 30041 40052 54002=EQDQ01.2    3APC3  
0108010090999992015010922004+80650+025000FM-12+000599999V0201801N005019999999N999999999-00101+99999100541ADDMA1999999100431MD1290029+9999REMSYN04801009 46/// /1805 11010 2//// 30043 40054 54002=EQDQ01.2    3APC3  
0089010090999992015010923004+80650+025000FM-12+000599999V0202001N003019999999N999999999-00091+99999100581ADDMA1999999100471MD1110051+9999REMSYN04801009 46/// /2003 11009 2//// 30047 40058 51005=
0113010090999992015011000004+80650+025000FM-12+000599999V0202101N006019999999N999999999-00091+99999100581ADDMA1999999100471MD1210061+9999OD139900801999REMSYN05801009 46/// /2106 11009 2//// 30047 40058 52006 333 91108=
0089010090999992015011001004+80650+025000FM-12+000599999V0202001N005019999999N999999999-00111+99999100581ADDMA1999999100481MD1210051+9999REMSYN04801009 46/// /2005 11011 2//// 30048 40058 52005=
0089010090999992015011002004+80650+025000FM-12+000599999V0202101N004019999999N999999999-00121+99999100581ADDMA1999999100471MD1410001+9999REMSYN04801009 46/// /2104 11012 2//// 30047 40058 54000=
0089010090999992015011003004+80650+025000FM-12+000599999V0202001N005019999999N999999999-00121+99999100561ADDMA1999999100451MD1510021+9999REMSYN04801009 46/// /2005 11012 2//// 30045 40056 55002=
0089010090999992015011004004+80650+025000FM-12+000599999V0202101N004019999999N999999999-00131+99999100591ADDMA1999999100481MD1990001+9999REMSYN04801009 46/// /2104 11013 2//// 30048 40059 50000=
0089010090999992015011005004+80650+025000FM-12+000599999V0202101N002019999999N999999999-00141+99999100581ADDMA1999999100481MD1410001+9999REMSYN04801009 46/// /2102 11014 2//// 30048 40058 54000=
0132010090999992015011006004+80650+025000FM-12+000599999V0209999C999999999999N999999999-00161+99999100601ADDKA1240N-00161MA1999999100491MD1210041+9999OD139900701999REMSYN06401009 46/// /0000 11016 2//// 30049 40060 52004 333 21016 91107=
0108010090999992015011007004+80650+025000FM-12+000599999V0209999C999999999999N999999999-00171+99999100601ADDMA1999999100491MD1290019+9999REMSYN04801009 46/// /0000 11017 2//// 30049 40060 54001=EQDQ01.1    3APC3  
0089010090999992015011008004+80650+025000FM-12+000599999V0200701N003019999999N999999999-00141+99999100621ADDMA1999999100511MD1210031+9999REMSYN04801009 46/// /0703 11014 2//// 30051 40062 52003=
0089010090999992015011009004+80650+025000FM-12+000599999V0200901N004019999999N999999999-00101+99999100651ADDMA1999999100541MD1210051+9999REMSYN04801009 46/// /0904 11010 2//// 30054 40065 52005=
0089010090999992015011010004+80650+025000FM-12+000599999V0200801N009019999999N999999999-00201+99999100661ADDMA1999999100551MD1210061+9999REMSYN04801009 46/// /0809 11020 2//// 30055 40066 52006=
0089010090999992015011011004+80650+025000FM-12+000599999V0200801N009019999999N999999999-00231+99999100681ADDMA1999999100571MD1210061+9999REMSYN04801009 46/// /0809 11023 2//// 30057 40068 52006=
0113010090999992015011012004+80650+025000FM-12+000599999V0200901N010019999999N999999999-00261+99999100711ADDMA1999999100601MD1210071+9999OD139901101999REMSYN05801009 46/// /0910 11026 2//// 30060 40071 52007 333 91111=
0089010090999992015011013004+80650+025000FM-12+000599999V0200901N011019999999N999999999-00361+99999100761ADDMA1999999100651MD1210101+9999REMSYN04801009 46/// /0911 11036 2//// 30065 40076 52010=
0089010090999992015011014004+80650+025000FM-12+000599999V0200801N011019999999N999999999-00411+99999100791ADDMA1999999100681MD1210111+9999REMSYN04801009 46/// /0811 11041 2//// 30068 40079 52011=
0089010090999992015011015004+80650+025000FM-12+000599999V0200901N010019999999N999999999-00461+99999100841ADDMA1999999100741MD1210131+9999REMSYN04801009 46/// /0910 11046 2//// 30074 40084 52013=
0089010090999992015011016004+80650+025000FM-12+000599999V0200901N010019999999N999999999-00531+99999100871ADDMA1999999100761MD1210111+9999REMSYN04801009 46/// /0910 11053 2//// 30076 40087 52011=
0089010090999992015011017004+80650+025000FM-12+000599999V0200901N009019999999N999999999-00601+99999100921ADDMA1999999100811MD1210131+9999REMSYN04801009 46/// /0909 11060 2//// 30081 40092 52013=
0132010090999992015011018004+80650+025000FM-12+000599999V0200901N009019999999N999999999-00681+99999100941ADDKA1120M-00091MA1999999100831MD1210101+9999OD139901201999REMSYN06401009 46/// /0909 11068 2//// 30083 40094 52010 333 11009 91112=
0089010090999992015011019004+80650+025000FM-12+000599999V0201101N008019999999N999999999-00681+99999100981ADDMA1999999100871MD1210111+9999REMSYN04801009 46/// /1108 11068 2//// 30087 40098 52011=
0089010090999992015011020004+80650+025000FM-12+000599999V0201001N008019999999N999999999-00741+99999101011ADDMA1999999100901MD1210091+9999REMSYN04801009 46/// /1008 11074 2//// 30090 40101 52009=
0089010090999992015011021004+80650+025000FM-12+000599999V0201101N008019999999N999999999-00741+99999101051ADDMA1999999100941MD1210101+9999REMSYN04801009 46/// /1108 11074 2//// 30094 40105 52010=
0089010090999992015011022004+80650+025000FM-12+000599999V0201201N006019999999N999999999-00771+99999101081ADDMA1999999100971MD1210101+9999REMSYN04801009 46/// /1206 11077 2//// 30097 40108 52010=
0089010090999992015011023004+80650+025000FM-12+000599999V0201201N007019999999N999999999-00751+99999101091ADDMA1999999100981MD1210081+9999REMSYN04801009 46/// /1207 11075 2//// 30098 40109 52008=
0113010090999992015011100004+80650+025000FM-12+000599999V0201301N008019999999N999999999-00841+99999101101ADDMA1999999100991MD1210051+9999OD139901101999REMSYN05801009 46/// /1308 11084 2//// 30099 40110 52005 333 91111=
0089010090999992015011101004+80650+025000FM-12+000599999V0201301N009019999999N999999999-00821+99999101081ADDMA1999999100971MD1510001+9999REMSYN04801009 46/// /1309 11082 2//// 30097 40108 55000=
0108010090999992015011102004+80650+025000FM-12+000599999V0201201N009019999999N999999999-00831+99999101071ADDMA1999999100961MD1790029+9999REMSYN04801009 46/// /1209 11083 2//// 30096 40107 54001=EQDQ01.1    3APC3  
0089010090999992015011103004+80650+025000FM-12+000599999V0201201N010019999999N999999999-00831+99999101051ADDMA1999999100941MD1710051+9999REMSYN04801009 46/// /1210 11083 2//// 30094 40105 57005=
0089010090999992015011104004+80650+025000FM-12+000599999V0201301N010019999999N999999999-00841+99999101021ADDMA1999999100911MD1710061+9999REMSYN04801009 46/// /1310 11084 2//// 30091 40102 57006=
0089010090999992015011105004+80650+025000FM-12+000599999V0201401N009019999999N999999999-00831+99999101041ADDMA1999999100931MD1810041+9999REMSYN04801009 46/// /1409 11083 2//// 30093 40104 58004=
0151010090999992015011106004+80650+025000FM-12+000599999V0201301N010019999999N999999999-00771+99999101031ADDKA1240N-00871MA1999999100921MD1790029+9999OD139901201999REMSYN06401009 46/// /1310 11077 2//// 30092 40103 54002 333 21087 91112=EQDQ01.2    3APC3  
0108010090999992015011107004+80650+025000FM-12+000599999V0201401N009019999999N999999999-00721+99999101041ADDMA1999999100931MD1290029+9999REMSYN04801009 46/// /1409 11072 2//// 30093 40104 54002=EQDQ01.2    3APC3  
0108010090999992015011108004+80650+025000FM-12+000599999V0201401N008019999999N999999999-00641+99999101051ADDMA1999999100941MD1290019+9999REMSYN04801009 46/// /1408 11064 2//// 30094 40105 54001=EQDQ01.1    3APC3  
0089010090999992015011109004+80650+025000FM-12+000599999V0201401N007019999999N999999999-00561+99999101061ADDMA1999999100951MD1210031+9999REMSYN04801009 46/// /1407 11056 2//// 30095 40106 52003=
0108010090999992015011110004+80650+025000FM-12+000599999V0201601N005019999999N999999999-00511+99999101061ADDMA1999999100951MD1290029+9999REMSYN04801009 46/// /1605 11051 2//// 30095 40106 54003=EQDQ01.3    3APC3  
0089010090999992015011111004+80650+025000FM-12+000599999V0201701N003019999999N999999999-00521+99999101081ADDMA1999999100971MD1210041+9999REMSYN04801009 46/// /1703 11052 2//// 30097 40108 52004=
0132010090999992015011112004+80650+025000FM-12+000599999V0201801N003019999999N999999999-00551+99999101091ADDMA1999999100981MD1290039+9999OD139901101999REMSYN05801009 46/// /1803 11055 2//// 30098 40109 54003 333 91111=EQDQ01.3    3APC3  
0089010090999992015011113004+80650+025000FM-12+000599999V0202301N004019999999N999999999-00491+99999101091ADDMA1999999100991MD1210031+9999REMSYN04801009 46/// /2304 11049 2//// 30099 40109 52003=
0108010090999992015011114004+80650+025000FM-12+000599999V0202201N004019999999N999999999-00501+99999101091ADDMA1999999100981MD1290019+9999REMSYN04801009 46/// /2204 11050 2//// 30098 40109 54001=EQDQ01.1    3APC3  
0108010090999992015011115004+80650+025000FM-12+000599999V0202301N006019999999N999999999-00501+99999101071ADDMA1999999100961MD1790029+9999REMSYN04801009 46/// /2306 11050 2//// 30096 40107 54002=EQDQ01.2    3APC3  
0108010090999992015011116004+80650+025000FM-12+000599999V0202201N005019999999N999999999-00501+99999101081ADDMA1999999100971MD1790019+9999REMSYN04801009 46/// /2205 11050 2//// 30097 40108 54002=EQDQ01.2    3APC3  
0108010090999992015011117004+80650+025000FM-12+000599999V0202101N004019999999N999999999-00511+99999101071ADDMA1999999100961MD1790029+9999REMSYN04801009 46/// /2104 11051 2//// 30096 40107 54002=EQDQ01.2    3APC3  
0151010090999992015011118004+80650+025000FM-12+000599999V0202201N005019999999N999999999-00501+99999101091ADDKA1120M-00471MA1999999100981MD1290029+9999OD139900801999REMSYN06401009 46/// /2205 11050 2//// 30098 40109 54003 333 11047 91108=EQDQ01.3    3APC3  
0089010090999992015011119004+80650+025000FM-12+000599999V0202101N006019999999N999999999-00551+99999101081ADDMA1999999100971MD1410001+9999REMSYN04801009 46/// /2106 11055 2//// 30097 40108 54000=
0089010090999992015011120004+80650+025000FM-12+000599999V0202201N006019999999N999999999-00531+99999101061ADDMA1999999100961MD1510001+9999REMSYN04801009 46/// /2206 11053 2//// 30096 40106 55000=
0089010090999992015011121004+80650+025000FM-12+000599999V0202201N006019999999N999999999-00541+99999101051ADDMA1999999100951MD1710041+9999REMSYN04801009 46/// /2206 11054 2//// 30095 40105 57004=
0089010090999992015011122004+80650+025000FM-12+000599999V0202301N005019999999N999999999-00521+99999101071ADDMA1999999100961MD1410001+9999REMSYN04801009 46/// /2305 11052 2//// 30096 40107 54000=
0108010090999992015011123004+80650+025000FM-12+000599999V0202301N005019999999N999999999-00591+99999101081ADDMA1999999100971MD1290029+9999REMSYN04801009 46/// /2305 11059 2//// 30097 40108 54001=EQDQ01.1    3APC3  
0113010090999992015011200004+80650+025000FM-12+000599999V0202401N004019999999N999999999-00571+99999101061ADDMA1999999100951MD1510011+9999OD139900801999REMSYN05801009 46/// /2404 11057 2//// 30095 40106 55001 333 91108=
0108010090999992015011201004+80650+025000FM-12+000599999V0202601N004019999999N999999999-00511+99999101051ADDMA1999999100941MD1790029+9999REMSYN04801009 46/// /2604 11051 2//// 30094 40105 54002=EQDQ01.2    3APC3  
0089010090999992015011202004+80650+025000FM-12+000599999V0202401N004019999999N999999999-00521+99999101021ADDMA1999999100911MD1710051+9999REMSYN04801009 46/// /2404 11052 2//// 30091 40102 57005=
0089010090999992015011203004+80650+025000FM-12+000599999V0202301N004019999999N999999999-00521+99999101011ADDMA1999999100901MD1710051+9999REMSYN04801009 46/// /2304 11052 2//// 30090 40101 57005=
0089010090999992015011204004+80650+025000FM-12+000599999V0202301N004019999999N999999999-00501+99999100981ADDMA1999999100871MD1710071+9999REMSYN04801009 46/// /2304 11050 2//// 30087 40098 57007=
0089010090999992015011205004+80650+025000FM-12+000599999V0202401N004019999999N999999999-00461+99999100961ADDMA1999999100851MD1710061+9999REMSYN04801009 46/// /2404 11046 2//// 30085 40096 57006=
0132010090999992015011206004+80650+025000FM-12+000599999V0202401N005019999999N999999999-00431+99999100921ADDKA1240N-00591MA1999999100821MD1710081+9999OD139900601999REMSYN06401009 46/// /2405 11043 2//// 30082 40092 57008 333 21059 91106=
0089010090999992015011207004+80650+025000FM-12+000599999V0202501N005019999999N999999999-00411+99999100921ADDMA1999999100811MD1710061+9999REMSYN04801009 46/// /2505 11041 2//// 30081 40092 57006=
0089010090999992015011208004+80650+025000FM-12+000599999V0202601N005019999999N999999999-00361+99999100921ADDMA1999999100811MD1810041+9999REMSYN04801009 46/// /2605 11036 2//// 30081 40092 58004=
0108010090999992015011209004+80650+025000FM-12+000599999V0202501N006019999999N999999999-00341+99999100911ADDMA1999999100801MD1790019+9999REMSYN04801009 46/// /2506 11034 2//// 30080 40091 54002=EQDQ01.2    3APC3  
0108010090999992015011210004+80650+025000FM-12+000599999V0202601N007019999999N999999999-00301+99999100911ADDMA1999999100801MD1790019+9999REMSYN04801009 46/// /2607 11030 2//// 30080 40091 54001=EQDQ01.1    3APC3  
0089010090999992015011211004+80650+025000FM-12+000599999V0202801N007019999999N999999999-00281+99999100881ADDMA1999999100771MD1710051+9999REMSYN04801009 46/// /2807 11028 2//// 30077 40088 57005=
0113010090999992015011212004+80650+025000FM-12+000599999V0202801N008019999999N999999999-00311+99999100841ADDMA1999999100731MD1610071+9999OD139900901999REMSYN05801009 46/// /2808 11031 2//// 30073 40084 56007 333 91109=
0089010090999992015011213004+80650+025000FM-12+000599999V0202801N007019999999N999999999-00261+99999100791ADDMA1999999100681MD1710121+9999REMSYN04801009 46/// /2807 11026 2//// 30068 40079 57012=
0089010090999992015011214004+80650+025000FM-12+000599999V0203001N006019999999N999999999-00231+99999100781ADDMA1999999100671MD1810101+9999REMSYN04801009 46/// /3006 11023 2//// 30067 40078 58010=
0089010090999992015011215004+80650+025000FM-12+000599999V0203001N007019999999N999999999-00241+99999100751ADDMA1999999100641MD1710091+9999REMSYN04801009 46/// /3007 11024 2//// 30064 40075 57009=
0089010090999992015011216004+80650+025000FM-12+000599999V0203401N006019999999N999999999-00271+99999100721ADDMA1999999100621MD1710061+9999REMSYN04801009 46/// /3406 11027 2//// 30062 40072 57006=
0089010090999992015011217004+80650+025000FM-12+000599999V0203601N006019999999N999999999-00311+99999100701ADDMA1999999100591MD1710081+9999REMSYN04801009 46/// /3606 11031 2//// 30059 40070 57008=
0132010090999992015011218004+80650+025000FM-12+000599999V0203601N007019999999N999999999-00401+99999100711ADDKA1120M-00211MA1999999100601MD1710041+9999OD139900901999REMSYN06401009 46/// /3607 11040 2//// 30060 40071 57004 333 11021 91109=
0108010090999992015011219004+80650+025000FM-12+000599999V0203601N006019999999N999999999-00461+99999100701ADDMA1999999100591MD1790029+9999REMSYN04801009 46/// /3606 11046 2//// 30059 40070 54002=EQDQ01.2    3APC3  
0108010090999992015011220004+80650+025000FM-12+000599999V0200301N005019999999N999999999-00631+99999100731ADDMA1999999100621MD1290039+9999REMSYN04801009 46/// /0305 11063 2//// 30062 40073 54003=EQDQ01.3    3APC3  
0108010090999992015011221004+80650+025000FM-12+000599999V0200501N005019999999N999999999-00561+99999100721ADDMA1999999100611MD1290019+9999REMSYN04801009 46/// /0505 11056 2//// 30061 40072 54001=EQDQ01.1    3APC3  
0089010090999992015011222004+80650+025000FM-12+000599999V0200401N006019999999N999999999-00561+99999100711ADDMA1999999100601MD1510011+9999REMSYN04801009 46/// /0406 11056 2//// 30060 40071 55001=
0089010090999992015011300004+80650+025000FM-12+000599999V0200501N007019999999N999999999-00761+99999100721ADDMA1999999100611MD1410001+9999REMSYN04801009 46/// /0507 11076 2//// 30061 40072 54000=
0089010090999992015011301004+80650+025000FM-12+000599999V0200601N006019999999N999999999-00941+99999100761ADDMA1999999100651MD1110051+9999REMSYN04801009 46/// /0606 11094 2//// 30065 40076 51005=
0089010090999992015011302004+80650+025000FM-12+000599999V0200601N004019999999N999999999-00981+99999100761ADDMA1999999100651MD1210051+9999REMSYN04801009 46/// /0604 11098 2//// 30065 40076 52005=
0089010090999992015011303004+80650+025000FM-12+000599999V0200801N005019999999N999999999-01041+99999100751ADDMA1999999100641MD1310031+9999REMSYN04801009 46/// /0805 11104 2//// 30064 40075 53003=
0108010090999992015011304004+80650+025000FM-12+000599999V0201001N004019999999N999999999-01021+99999100771ADDMA1999999100661MD1290019+9999REMSYN04801009 46/// /1004 11102 2//// 30066 40077 54001=EQDQ01.1    3APC3  
0089010090999992015011305004+80650+025000FM-12+000599999V0201001N005019999999N999999999-01051+99999100791ADDMA1999999100681MD1210031+9999REMSYN04801009 46/// /1005 11105 2//// 30068 40079 52003=
0113010090999992015011306004+80650+025000FM-12+000599999V0201101N006019999999N999999999-01081+99999100801ADDMA1999999100681MD1210041+9999OD139901001999REMSYN05801009 46/// /1106 11108 2//// 30068 40080 52004 333 91110=
0089010090999992015011307004+80650+025000FM-12+000599999V0201101N004019999999N999999999-01041+99999100821ADDMA1999999100711MD1210051+9999REMSYN04801009 46/// /1104 11104 2//// 30071 40082 52005=
0089010090999992015011308004+80650+025000FM-12+000599999V0201101N005019999999N999999999-00981+99999100841ADDMA1999999100731MD1210051+9999REMSYN04801009 46/// /1105 11098 2//// 30073 40084 52005=
0089010090999992015011309004+80650+025000FM-12+000599999V0201101N005019999999N999999999-00941+99999100861ADDMA1999999100751MD1210061+9999REMSYN04801009 46/// /1105 11094 2//// 30075 40086 52006=
0089010090999992015011310004+80650+025000FM-12+000599999V0201201N005019999999N999999999-00971+99999100891ADDMA1999999100781MD1210061+9999REMSYN04801009 46/// /1205 11097 2//// 30078 40089 52006=
0089010090999992015011311004+80650+025000FM-12+000599999V0201101N005019999999N999999999-01001+99999100901ADDMA1999999100791MD1210071+9999REMSYN04801009 46/// /1105 11100 2//// 30079 40090 52007=
0113010090999992015011312004+80650+025000FM-12+000599999V0201101N005019999999N999999999-01041+99999100911ADDMA1999999100801MD1210061+9999OD139900801999REMSYN05801009 46/// /1105 11104 2//// 30080 40091 52006 333 91108=
0108010090999992015011313004+80650+025000FM-12+000599999V0201101N006019999999N999999999-01051+99999100921ADDMA1999999100801MD1290039+9999REMSYN04801009 46/// /1106 11105 2//// 30080 40092 54003=EQDQ01.3    3APC3  
0089010090999992015011314004+80650+025000FM-12+000599999V0201201N004019999999N999999999-01011+99999100901ADDMA1999999100791MD1410001+9999REMSYN04801009 46/// /1204 11101 2//// 30079 40090 54000=
0108010090999992015011315004+80650+025000FM-12+000599999V0201301N004019999999N999999999-00961+99999100901ADDMA1999999100791MD1790019+9999REMSYN04801009 46/// /1304 11096 2//// 30079 40090 54002=EQDQ01.2    3APC3  
0089010090999992015011316004+80650+025000FM-12+000599999V0201301N004019999999N999999999-00961+99999100911ADDMA1999999100801MD1990001+9999REMSYN04801009 46/// /1304 11096 2//// 30080 40091 50000=
0108010090999992015011317004+80650+025000FM-12+000599999V0201201N005019999999N999999999-01001+99999100931ADDMA1999999100821MD1290039+9999REMSYN04801009 46/// /1205 11100 2//// 30082 40093 54003=EQDQ01.3    3APC3  
0151010090999992015011318004+80650+025000FM-12+000599999V0201201N005019999999N999999999-00951+99999100921ADDKA1120M-00911MA1999999100811MD1290029+9999OD139900801999REMSYN06401009 46/// /1205 11095 2//// 30081 40092 54003 333 11091 91108=EQDQ01.3    3APC3  
0089010090999992015011319004+80650+025000FM-12+000599999V0201001N005019999999N999999999-00921+99999100911ADDMA1999999100801MD1410001+9999REMSYN04801009 46/// /1005 11092 2//// 30080 40091 54000=
0108010090999992015011320004+80650+025000FM-12+000599999V0201201N005019999999N999999999-00921+99999100921ADDMA1999999100801MD1790019+9999REMSYN04801009 46/// /1205 11092 2//// 30080 40092 54001=EQDQ01.1    3APC3  
0089010090999992015011321004+80650+025000FM-12+000599999V0201101N007019999999N999999999-00891+99999100921ADDMA1999999100811MD1410001+9999REMSYN04801009 46/// /1107 11089 2//// 30081 40092 54000=
0089010090999992015011322004+80650+025000FM-12+000599999V0201201N007019999999N999999999-00941+99999100941ADDMA1999999100831MD1210041+9999REMSYN04801009 46/// /1207 11094 2//// 30083 40094 52004=
0108010090999992015011323004+80650+025000FM-12+000599999V0201201N006019999999N999999999-00931+99999100941ADDMA1999999100831MD1290029+9999REMSYN04801009 46/// /1206 11093 2//// 30083 40094 54002=EQDQ01.2    3APC3  
0132010090999992015011400004+80650+025000FM-12+000599999V0201201N005019999999N999999999-00941+99999100941ADDMA1999999100831MD1290029+9999OD139900901999REMSYN05801009 46/// /1205 11094 2//// 30083 40094 54003 333 91109=EQDQ01.3    3APC3  
0108010090999992015011401004+80650+025000FM-12+000599999V0201101N006019999999N999999999-00951+99999100951ADDMA1999999100841MD1290019+9999REMSYN04801009 46/// /1106 11095 2//// 30084 40095 54001=EQDQ01.1    3APC3  
0108010090999992015011402004+80650+025000FM-12+000599999V0201301N006019999999N999999999-01021+99999100951ADDMA1999999100841MD1290019+9999REMSYN04801009 46/// /1306 11102 2//// 30084 40095 54001=EQDQ01.1    3APC3  
0108010090999992015011403004+80650+025000FM-12+000599999V0201301N007019999999N999999999-01051+99999100931ADDMA1999999100821MD1790019+9999REMSYN04801009 46/// /1307 11105 2//// 30082 40093 54001=EQDQ01.1    3APC3  
0108010090999992015011404004+80650+025000FM-12+000599999V0201201N006019999999N999999999-01131+99999100951ADDMA1999999100841MD1410009+9999REMSYN04801009 46/// /1206 11113 2//// 30084 40095 54001=EQDQ01.1    3APC3  
0108010090999992015011405004+80650+025000FM-12+000599999V0201301N006019999999N999999999-01111+99999100941ADDMA1999999100831MD1790019+9999REMSYN04801009 46/// /1306 11111 2//// 30083 40094 54001=EQDQ01.1    3APC3  
0132010090999992015011406004+80650+025000FM-12+000599999V0201301N007019999999N999999999-01121+99999100931ADDKA1240N-01151MA1999999100821MD1410001+9999OD139900901999REMSYN06401009 46/// /1307 11112 2//// 30082 40093 54000 333 21115 91109=
0089010090999992015011407004+80650+025000FM-12+000599999V0201301N008019999999N999999999-01131+99999100951ADDMA1999999100841MD1410001+9999REMSYN04801009 46/// /1308 11113 2//// 30084 40095 54000=
0108010090999992015011408004+80650+025000FM-12+000599999V0201301N009019999999N999999999-01131+99999100961ADDMA1999999100851MD1290029+9999REMSYN04801009 46/// /1309 11113 2//// 30085 40096 54002=EQDQ01.2    3APC3  
0089010090999992015011409004+80650+025000FM-12+000599999V0201301N009019999999N999999999-01071+99999100961ADDMA1999999100851MD1210031+9999REMSYN04801009 46/// /1309 11107 2//// 30085 40096 52003=
0108010090999992015011410004+80650+025000FM-12+000599999V0201401N008019999999N999999999-01091+99999100971ADDMA1999999100861MD1290029+9999REMSYN04801009 46/// /1408 11109 2//// 30086 40097 54002=EQDQ01.2    3APC3  
0108010090999992015011411004+80650+025000FM-12+000599999V0201401N008019999999N999999999-01121+99999100991ADDMA1999999100881MD1290039+9999REMSYN04801009 46/// /1408 11112 2//// 30088 40099 54003=EQDQ01.3    3APC3  
0132010090999992015011412004+80650+025000FM-12+000599999V0201301N008019999999N999999999-01111+99999100981ADDMA1999999100871MD1290029+9999OD139901101999REMSYN05801009 46/// /1308 11111 2//// 30087 40098 54002 333 91111=EQDQ01.2    3APC3  
0089010090999992015011413004+80650+025000FM-12+000599999V0201401N009019999999N999999999-01091+99999100941ADDMA1999999100831MD1510031+9999REMSYN04801009 46/// /1409 11109 2//// 30083 40094 55003=
0089010090999992015011414004+80650+025000FM-12+000599999V0201301N009019999999N999999999-01101+99999100951ADDMA1999999100841MD1710031+9999REMSYN04801009 46/// /1309 11110 2//// 30084 40095 57003=
0089010090999992015011415004+80650+025000FM-12+000599999V0201401N009019999999N999999999-01061+99999100931ADDMA1999999100811MD1710061+9999REMSYN04801009 46/// /1409 11106 2//// 30081 40093 57006=
0089010090999992015011416004+80650+025000FM-12+000599999V0201401N009019999999N999999999-01071+99999100911ADDMA1999999100801MD1710031+9999REMSYN04801009 46/// /1409 11107 2//// 30080 40091 57003=
0089010090999992015011417004+80650+025000FM-12+000599999V0201401N009019999999N999999999-01071+99999100891ADDMA1999999100781MD1710061+9999REMSYN04801009 46/// /1409 11107 2//// 30078 40089 57006=
0132010090999992015011418004+80650+025000FM-12+000599999V0201401N010019999999N999999999-01061+99999100891ADDKA1120M-01041MA1999999100781MD1710031+9999OD139901101999REMSYN06401009 46/// /1410 11106 2//// 30078 40089 57003 333 11104 91111=
0108010090999992015011419004+80650+025000FM-12+000599999V0201501N010019999999N999999999-01051+99999100891ADDMA1999999100781MD1790029+9999REMSYN04801009 46/// /1510 11105 2//// 30078 40089 54002=EQDQ01.2    3APC3  
0108010090999992015011420004+80650+025000FM-12+000599999V0201501N009019999999N999999999-01011+99999100871ADDMA1999999100761MD1790029+9999REMSYN04801009 46/// /1509 11101 2//// 30076 40087 54002=EQDQ01.2    3APC3  
0089010090999992015011421004+80650+025000FM-12+000599999V0201501N009019999999N999999999-00961+99999100831ADDMA1999999100711MD1610071+9999REMSYN04801009 46/// /1509 11096 2//// 30071 40083 56007=
0089010090999992015011422004+80650+025000FM-12+000599999V0201501N005019999999N999999999-01011+99999100861ADDMA1999999100751MD1990021+9999REMSYN04801009 46/// /1505 11101 2//// 30075 40086 50002=
0089010090999992015011423004+80650+025000FM-12+000599999V0201501N005019999999N999999999-01021+99999100861ADDMA1999999100751MD1990011+9999REMSYN04801009 46/// /1505 11102 2//// 30075 40086 50001=
0113010090999992015011500004+80650+025000FM-12+000599999V0201301N008019999999N999999999-01031+99999100841ADDMA1999999100731MD1510011+9999OD139901201999REMSYN05801009 46/// /1308 11103 2//// 30073 40084 55001 333 91112=
0108010090999992015011501004+80650+025000FM-12+000599999V0201201N007019999999N999999999-01081+99999100841ADDMA1999999100721MD1790029+9999REMSYN04801009 46/// /1207 11108 2//// 30072 40084 54003=EQDQ01.3    3APC3  
0089010090999992015011502004+80650+025000FM-12+000599999V0201201N007019999999N999999999-01071+99999100821ADDMA1999999100711MD1710041+9999REMSYN04801009 46/// /1207 11107 2//// 30071 40082 57004=
0089010090999992015011503004+80650+025000FM-12+000599999V0201101N009019999999N999999999-01061+99999100771ADDMA1999999100661MD1610061+9999REMSYN04801009 46/// /1109 11106 2//// 30066 40077 56006=
0089010090999992015011504004+80650+025000FM-12+000599999V0201101N009019999999N999999999-01081+99999100771ADDMA1999999100661MD1710071+9999REMSYN04801009 46/// /1109 11108 2//// 30066 40077 57007=
0089010090999992015011505004+80650+025000FM-12+000599999V0201101N010019999999N999999999-01161+99999100771ADDMA1999999100651MD1810061+9999REMSYN04801009 46/// /1110 11116 2//// 30065 40077 58006=
0151010090999992015011506004+80650+025000FM-12+000599999V0201101N009019999999N999999999-01171+99999100781ADDKA1240N-01201MA1999999100671MD1290019+9999OD139901201999REMSYN06401009 46/// /1109 11117 2//// 30067 40078 54001 333 21120 91112=EQDQ01.1    3APC3  
0108010090999992015011507004+80650+025000FM-12+000599999V0201101N009019999999N999999999-01141+99999100781ADDMA1999999100671MD1290019+9999REMSYN04801009 46/// /1109 11114 2//// 30067 40078 54001=EQDQ01.1    3APC3  
0108010090999992015011508004+80650+025000FM-12+000599999V0201101N009019999999N999999999-01141+99999100791ADDMA1999999100681MD1290029+9999REMSYN04801009 46/// /1109 11114 2//// 30068 40079 54002=EQDQ01.2    3APC3  
0089010090999992015011509004+80650+025000FM-12+000599999V0201001N009019999999N999999999-01191+99999100831ADDMA1999999100721MD1110051+9999REMSYN04801009 46/// /1009 11119 2//// 30072 40083 51005=
0089010090999992015011510004+80650+025000FM-12+000599999V0201101N010019999999N999999999-01171+99999100851ADDMA1999999100741MD1210071+9999REMSYN04801009 46/// /1110 11117 2//// 30074 40085 52007=
0089010090999992015011511004+80650+025000FM-12+000599999V0201101N011019999999N999999999-01151+99999100881ADDMA1999999100771MD1210091+9999REMSYN04801009 46/// /1111 11115 2//// 30077 40088 52009=
0113010090999992015011512004+80650+025000FM-12+000599999V0201101N010019999999N999999999-01101+99999100911ADDMA1999999100801MD1210081+9999OD139901201999REMSYN05801009 46/// /1110 11110 2//// 30080 40091 52008 333 91112=
0089010090999992015011513004+80650+025000FM-12+000599999V0201001N010019999999N999999999-01141+99999100961ADDMA1999999100841MD1210101+9999REMSYN04801009 46/// /1010 11114 2//// 30084 40096 52010=
0089010090999992015011514004+80650+025000FM-12+000599999V0201101N010019999999N999999999-01161+99999101011ADDMA1999999100901MD1210131+9999REMSYN04801009 46/// /1110 11116 2//// 30090 40101 52013=
0089010090999992015011515004+80650+025000FM-12+000599999V0201101N009019999999N999999999-01131+99999101051ADDMA1999999100941MD1210141+9999REMSYN04801009 46/// /1109 11113 2//// 30094 40105 52014=
0089010090999992015011516004+80650+025000FM-12+000599999V0200901N008019999999N999999999-01171+99999101081ADDMA1999999100971MD1210131+9999REMSYN04801009 46/// /0908 11117 2//// 30097 40108 52013=
0089010090999992015011517004+80650+025000FM-12+000599999V0201001N007019999999N999999999-01171+99999101141ADDMA1999999101031MD1210131+9999REMSYN04801009 46/// /1007 11117 2//// 30103 40114 52013=
0132010090999992015011518004+80650+025000FM-12+000599999V0200901N007019999999N999999999-01201+99999101191ADDKA1120M-01081MA1999999101081MD1210141+9999OD139901301999REMSYN06401009 46/// /0907 11120 2//// 30108 40119 52014 333 11108 91113=
0089010090999992015011519004+80650+025000FM-12+000599999V0200801N006019999999N999999999-01181+99999101231ADDMA1999999101111MD1210141+9999REMSYN04801009 46/// /0806 11118 2//// 30111 40123 52014=
0089010090999992015011520004+80650+025000FM-12+000599999V0200701N007019999999N999999999-01151+99999101261ADDMA1999999101151MD1210121+9999REMSYN04801009 46/// /0707 11115 2//// 30115 40126 52012=
0089010090999992015011521004+80650+025000FM-12+000599999V0200701N008019999999N999999999-01131+99999101271ADDMA1999999101151MD1210081+9999REMSYN04801009 46/// /0708 11113 2//// 30115 40127 52008=
0089010090999992015011522004+80650+025000FM-12+000599999V0200701N008019999999N999999999-01231+99999101301ADDMA1999999101191MD1210071+9999REMSYN04801009 46/// /0708 11123 2//// 30119 40130 52007=
0089010090999992015011523004+80650+025000FM-12+000599999V0200801N008019999999N999999999-01261+99999101341ADDMA1999999101231MD1110081+9999REMSYN04801009 46/// /0808 11126 2//// 30123 40134 51008=
0113010090999992015011600004+80650+025000FM-12+000599999V0200701N008019999999N999999999-01291+99999101371ADDMA1999999101251MD1210101+9999OD139901001999REMSYN05801009 46/// /0708 11129 2//// 30125 40137 52010 333 91110=
0089010090999992015011601004+80650+025000FM-12+000599999V0200701N008019999999N999999999-01271+99999101371ADDMA1999999101261MD1310071+9999REMSYN04801009 46/// /0708 11127 2//// 30126 40137 53007=
0108010090999992015011602004+80650+025000FM-12+000599999V0200601N010019999999N999999999-01301+99999101371ADDMA1999999101261MD1290039+9999REMSYN04801009 46/// /0610 11130 2//// 30126 40137 54003=EQDQ01.3    3APC3  
0089010090999992015011603004+80650+025000FM-12+000599999V0200601N008019999999N999999999-01371+99999101411ADDMA1999999101291MD1110041+9999REMSYN04801009 46/// /0608 11137 2//// 30129 40141 51004=
0108010090999992015011604004+80650+025000FM-12+000599999V0200601N008019999999N999999999-01401+99999101401ADDMA1999999101291MD1290039+9999REMSYN04801009 46/// /0608 11140 2//// 30129 40140 54003=EQDQ01.3    3APC3  
0089010090999992015011605004+80650+025000FM-12+000599999V0200601N007019999999N999999999-01411+99999101411ADDMA1999999101301MD1210041+9999REMSYN04801009 46/// /0607 11141 2//// 30130 40141 52004=
0151010090999992015011606004+80650+025000FM-12+000599999V0200501N006019999999N999999999-01421+99999101411ADDKA1240N-01451MA1999999101301MD1410009+9999OD139901201999REMSYN06401009 46/// /0506 11142 2//// 30130 40141 54001 333 21145 91112=EQDQ01.1    3APC3  
0108010090999992015011607004+80650+025000FM-12+000599999V0200501N006019999999N999999999-01451+99999101431ADDMA1999999101321MD1290039+9999REMSYN04801009 46/// /0506 11145 2//// 30132 40143 54003=EQDQ01.3    3APC3  
0108010090999992015011608004+80650+025000FM-12+000599999V0200701N006019999999N999999999-01491+99999101441ADDMA1999999101321MD1290039+9999REMSYN04801009 46/// /0706 11149 2//// 30132 40144 54002=EQDQ01.2    3APC3  
0089010090999992015011609004+80650+025000FM-12+000599999V0200701N005019999999N999999999-01541+99999101501ADDMA1999999101391MD1110091+9999REMSYN04801009 46/// /0705 11154 2//// 30139 40150 51009=
0089010090999992015011610004+80650+025000FM-12+000599999V0200701N007019999999N999999999-01511+99999101481ADDMA1999999101361MD1210041+9999REMSYN04801009 46/// /0707 11151 2//// 30136 40148 52004=
0089010090999992015011611004+80650+025000FM-12+000599999V0200701N007019999999N999999999-01581+99999101491ADDMA1999999101381MD1310051+9999REMSYN04801009 46/// /0707 11158 2//// 30138 40149 53005=
0113010090999992015011612004+80650+025000FM-12+000599999V0200701N006019999999N999999999-01721+99999101521ADDMA1999999101411MD1990021+9999OD139900901999REMSYN05801009 46/// /0706 11172 2//// 30141 40152 50002 333 91109=
0089010090999992015011613004+80650+025000FM-12+000599999V0200601N006019999999N999999999-01791+99999101541ADDMA1999999101431MD1210061+9999REMSYN04801009 46/// /0606 11179 2//// 30143 40154 52006=
0089010090999992015011614004+80650+025000FM-12+000599999V0200701N006019999999N999999999-01871+99999101541ADDMA1999999101431MD1210051+9999REMSYN04801009 46/// /0706 11187 2//// 30143 40154 52005=
0108010090999992015011615004+80650+025000FM-12+000599999V0200701N007019999999N999999999-01911+99999101551ADDMA1999999101441MD1290039+9999REMSYN04801009 46/// /0707 11191 2//// 30144 40155 54003=EQDQ01.3    3APC3  
0108010090999992015011616004+80650+025000FM-12+000599999V0200701N006019999999N999999999-01891+99999101551ADDMA1999999101431MD1290019+9999REMSYN04801009 46/// /0706 11189 2//// 30143 40155 54001=EQDQ01.1    3APC3  
0108010090999992015011617004+80650+025000FM-12+000599999V0200601N006019999999N999999999-01921+99999101571ADDMA1999999101451MD1290039+9999REMSYN04801009 46/// /0606 11192 2//// 30145 40157 54002=EQDQ01.2    3APC3  
0108010090999992015011619004+80650+025000FM-12+000599999V0200601N006019999999N999999999-01941+99999101561ADDMA1999999101451MD1290019+9999REMSYN04801009 46/// /0606 11194 2//// 30145 40156 54001=EQDQ01.1    3APC3  
0089010090999992015011620004+80650+025000FM-12+000599999V0200701N005019999999N999999999-01991+99999101601ADDMA1999999101491MD1110031+9999REMSYN04801009 46/// /0705 11199 2//// 30149 40160 51003=
0089010090999992015011621004+80650+025000FM-12+000599999V0200501N006019999999N999999999-01981+99999101591ADDMA1999999101481MD1210031+9999REMSYN04801009 46/// /0506 11198 2//// 30148 40159 52003=
0089010090999992015011622004+80650+025000FM-12+000599999V0200701N005019999999N999999999-02001+99999101601ADDMA1999999101481MD1310031+9999REMSYN04801009 46/// /0705 11200 2//// 30148 40160 53003=
0108010090999992015011623004+80650+025000FM-12+000599999V0200701N005019999999N999999999-01951+99999101591ADDMA1999999101471MD1790019+9999REMSYN04801009 46/// /0705 11195 2//// 30147 40159 54001=EQDQ01.1    3APC3  
0113010090999992015011700004+80650+025000FM-12+000599999V0200801N004019999999N999999999-02031+99999101591ADDMA1999999101481MD1410001+9999OD139900701999REMSYN05801009 46/// /0804 11203 2//// 30148 40159 54000 333 91107=
0089010090999992015011701004+80650+025000FM-12+000599999V0200701N004019999999N999999999-02001+99999101621ADDMA1999999101501MD1990021+9999REMSYN04801009 46/// /0704 11200 2//// 30150 40162 50002=
0108010090999992015011702004+80650+025000FM-12+000599999V0200701N003019999999N999999999-02001+99999101601ADDMA1999999101491MD1290019+9999REMSYN04801009 46/// /0703 11200 2//// 30149 40160 54001=EQDQ01.1    3APC3  
0089010090999992015011703004+80650+025000FM-12+000599999V0200801N004019999999N999999999-01981+99999101591ADDMA1999999101481MD1510001+9999REMSYN04801009 46/// /0804 11198 2//// 30148 40159 55000=
0108010090999992015011704004+80650+025000FM-12+000599999V0200701N003019999999N999999999-01981+99999101601ADDMA1999999101481MD1790029+9999REMSYN04801009 46/// /0703 11198 2//// 30148 40160 54002=EQDQ01.2    3APC3  
0089010090999992015011705004+80650+025000FM-12+000599999V0200701N002019999999N999999999-01941+99999101571ADDMA1999999101451MD1710031+9999REMSYN04801009 46/// /0702 11194 2//// 30145 40157 57003=
0113010090999992015011706004+80650+025000FM-12+000599999V0200501N003019999999N999999999-01911+99999101561ADDMA1999999101451MD1710031+9999OD139900601999REMSYN05801009 46/// /0503 11191 2//// 30145 40156 57003 333 91106=
0089010090999992015011707004+80650+025000FM-12+000599999V0200601N003019999999N999999999-01891+99999101581ADDMA1999999101461MD1990021+9999REMSYN04801009 46/// /0603 11189 2//// 30146 40158 50002=
0108010090999992015011708004+80650+025000FM-12+000599999V0200401N003019999999N999999999-01911+99999101591ADDMA1999999101481MD1290029+9999REMSYN04801009 46/// /0403 11191 2//// 30148 40159 54003=EQDQ01.3    3APC3  
0089010090999992015011709004+80650+025000FM-12+000599999V0200301N003019999999N999999999-01911+99999101611ADDMA1999999101491MD1210041+9999REMSYN04801009 46/// /0303 11191 2//// 30149 40161 52004=
0089010090999992015011710004+80650+025000FM-12+000599999V0200601N002019999999N999999999-01901+99999101621ADDMA1999999101501MD1210041+9999REMSYN04801009 46/// /0602 11190 2//// 30150 40162 52004=
0108010090999992015011711004+80650+025000FM-12+000599999V0200601N002019999999N999999999-01871+99999101611ADDMA1999999101501MD1290029+9999REMSYN04801009 46/// /0602 11187 2//// 30150 40161 54002=EQDQ01.2    3APC3  
0113010090999992015011712004+80650+025000FM-12+000599999V0200701N002019999999N999999999-01851+99999101611ADDMA1999999101491MD1410001+9999OD139900401999REMSYN05801009 46/// /0702 11185 2//// 30149 40161 54000 333 91104=
0108010090999992015011713004+80650+025000FM-12+000599999V0201001N002019999999N999999999-01801+99999101611ADDMA1999999101491MD1790019+9999REMSYN04801009 46/// /1002 11180 2//// 30149 40161 54001=EQDQ01.1    3APC3  
0089010090999992015011714004+80650+025000FM-12+000599999V0201201N003019999999N999999999-01701+99999101561ADDMA1999999101451MD1610051+9999REMSYN04801009 46/// /1203 11170 2//// 30145 40156 56005=
0108010090999992015011715004+80650+025000FM-12+000599999V0201201N002019999999N999999999-01631+99999101591ADDMA1999999101471MD1790029+9999REMSYN04801009 46/// /1202 11163 2//// 30147 40159 54002=EQDQ01.2    3APC3  
0089010090999992015011716004+80650+025000FM-12+000599999V0201601N004019999999N999999999-01541+99999101531ADDMA1999999101411MD1710081+9999REMSYN04801009 46/// /1604 11154 2//// 30141 40153 57008=
0089010090999992015011717004+80650+025000FM-12+000599999V0202001N003019999999N999999999-01481+99999101511ADDMA1999999101401MD1610051+9999REMSYN04801009 46/// /2003 11148 2//// 30140 40151 56005=
0132010090999992015011718004+80650+025000FM-12+000599999V0201901N004019999999N999999999-01461+99999101501ADDKA1120M-01431MA1999999101381MD1810091+9999OD139900601999REMSYN06401009 46/// /1904 11146 2//// 30138 40150 58009 333 11143 91106=
0089010090999992015011719004+80650+025000FM-12+000599999V0201901N005019999999N999999999-01411+99999101481ADDMA1999999101371MD1710051+9999REMSYN04801009 46/// /1905 11141 2//// 30137 40148 57005=
0089010090999992015011720004+80650+025000FM-12+000599999V0202001N006019999999N999999999-01341+99999101461ADDMA1999999101351MD1710051+9999REMSYN04801009 46/// /2006 11134 2//// 30135 40146 57005=
0089010090999992015011721004+80650+025000FM-12+000599999V0202001N006019999999N999999999-01271+99999101431ADDMA1999999101321MD1710071+9999REMSYN04801009 46/// /2006 11127 2//// 30132 40143 57007=
0089010090999992015011722004+80650+025000FM-12+000599999V0202101N007019999999N999999999-01151+99999101401ADDMA1999999101291MD1710081+9999REMSYN04801009 46/// /2107 11115 2//// 30129 40140 57008=
0089010090999992015011723004+80650+025000FM-12+000599999V0202801N010019999999N999999999-00901+99999101311ADDMA1999999101201MD1610151+9999REMSYN04801009 46/// /2810 11090 2//// 30120 40131 56015=
0113010090999992015011800004+80650+025000FM-12+000599999V0203001N009019999999N999999999-00951+99999101321ADDMA1999999101211MD1810111+9999OD139901101999REMSYN05801009 46/// /3009 11095 2//// 30121 40132 58011 333 91111=
0089010090999992015011801004+80650+025000FM-12+000599999V0202801N008019999999N999999999-00981+99999101321ADDMA1999999101211MD1810071+9999REMSYN04801009 46/// /2808 11098 2//// 30121 40132 58007=
0089010090999992015011802004+80650+025000FM-12+000599999V0202901N009019999999N999999999-01101+99999101351ADDMA1999999101241MD1210031+9999REMSYN04801009 46/// /2909 11110 2//// 30124 40135 52003=
0089010090999992015011803004+80650+025000FM-12+000599999V0203001N008019999999N999999999-01081+99999101321ADDMA1999999101211MD1510001+9999REMSYN04801009 46/// /3008 11108 2//// 30121 40132 55000=
0089010090999992015011804004+80650+025000FM-12+000599999V0202801N011019999999N999999999-01061+99999101301ADDMA1999999101191MD1510021+9999REMSYN04801009 46/// /2811 11106 2//// 30119 40130 55002=
0089010090999992015011805004+80650+025000FM-12+000599999V0202901N010019999999N999999999-01061+99999101261ADDMA1999999101151MD1710091+9999REMSYN04801009 46/// /2910 11106 2//// 30115 40126 57009=
0132010090999992015011806004+80650+025000FM-12+000599999V0202801N011019999999N999999999-01061+99999101221ADDKA1240N-01461MA1999999101101MD1710111+9999OD139901301999REMSYN06401009 46/// /2811 11106 2//// 30110 40122 57011 333 21146 91113=
0089010090999992015011807004+80650+025000FM-12+000599999V0202901N011019999999N999999999-01141+99999101211ADDMA1999999101091MD1710101+9999REMSYN04801009 46/// /2911 11114 2//// 30109 40121 57010=
0089010090999992015011808004+80650+025000FM-12+000599999V0203001N010019999999N999999999-01161+99999101181ADDMA1999999101071MD1710081+9999REMSYN04801009 46/// /3010 11116 2//// 30107 40118 57008=
0089010090999992015011809004+80650+025000FM-12+000599999V0203001N008019999999N999999999-01171+99999101141ADDMA1999999101031MD1710071+9999REMSYN04801009 46/// /3008 11117 2//// 30103 40114 57007=
0089010090999992015011810004+80650+025000FM-12+000599999V0203101N008019999999N999999999-01221+99999101131ADDMA1999999101021MD1710071+9999REMSYN04801009 46/// /3108 11122 2//// 30102 40113 57007=
0089010090999992015011811004+80650+025000FM-12+000599999V0203301N007019999999N999999999-01321+99999101111ADDMA1999999101001MD1710071+9999REMSYN04801009 46/// /3307 11132 2//// 30100 40111 57007=
0113010090999992015011812004+80650+025000FM-12+000599999V0200101N005019999999N999999999-01381+99999101031ADDMA1999999100921MD1610111+9999OD139901401999REMSYN05801009 46/// /0105 11138 2//// 30092 40103 56011 333 91114=
0089010090999992015011813004+80650+025000FM-12+000599999V0203501N004019999999N999999999-01471+99999101011ADDMA1999999100901MD1710121+9999REMSYN04801009 46/// /3504 11147 2//// 30090 40101 57012=
0089010090999992015011814004+80650+025000FM-12+000599999V0200101N003019999999N999999999-01461+99999100971ADDMA1999999100861MD1810141+9999REMSYN04801009 46/// /0103 11146 2//// 30086 40097 58014=
0089010090999992015011815004+80650+025000FM-12+000599999V0200301N005019999999N999999999-01461+99999100961ADDMA1999999100851MD1710071+9999REMSYN04801009 46/// /0305 11146 2//// 30085 40096 57007=
0089010090999992015011816004+80650+025000FM-12+000599999V0200201N005019999999N999999999-01441+99999100931ADDMA1999999100811MD1710091+9999REMSYN04801009 46/// /0205 11144 2//// 30081 40093 57009=
0089010090999992015011817004+80650+025000FM-12+000599999V0200301N006019999999N999999999-01481+99999100921ADDMA1999999100811MD1710051+9999REMSYN04801009 46/// /0306 11148 2//// 30081 40092 57005=
0132010090999992015011818004+80650+025000FM-12+000599999V0200301N007019999999N999999999-01581+99999100961ADDKA1120M-01041MA1999999100851MD1990001+9999OD139900901999REMSYN06401009 46/// /0307 11158 2//// 30085 40096 50000 333 11104 91109=
0089010090999992015011819004+80650+025000FM-12+000599999V0200401N007019999999N999999999-01631+99999101031ADDMA1999999100921MD1110101+9999REMSYN04801009 46/// /0407 11163 2//// 30092 40103 51010=
0089010090999992015011820004+80650+025000FM-12+000599999V0200201N006019999999N999999999-01661+99999101131ADDMA1999999101011MD1110201+9999REMSYN04801009 46/// /0206 11166 2//// 30101 40113 51020=
0089010090999992015011821004+80650+025000FM-12+000599999V0203601N005019999999N999999999-01691+99999101261ADDMA1999999101141MD1110301+9999REMSYN04801009 46/// /3605 11169 2//// 30114 40126 51030=
0089010090999992015011822004+80650+025000FM-12+000599999V0203601N005019999999N999999999-01801+99999101291ADDMA1999999101181MD1310261+9999REMSYN04801009 46/// /3605 11180 2//// 30118 40129 53026=
0089010090999992015011823004+80650+025000FM-12+000599999V0200101N004019999999N999999999-01861+99999101381ADDMA1999999101261MD1310251+9999REMSYN04801009 46/// /0104 11186 2//// 30126 40138 53025=
0113010090999992015011900004+80650+025000FM-12+000599999V0200501N004019999999N999999999-01891+99999101361ADDMA1999999101251MD1310101+9999OD139900801999REMSYN05801009 46/// /0504 11189 2//// 30125 40136 53010 333 91108=
0089010090999992015011901004+80650+025000FM-12+000599999V0200801N002019999999N999999999-01951+99999101361ADDMA1999999101241MD1310061+9999REMSYN04801009 46/// /0802 11195 2//// 30124 40136 53006=
0089010090999992015011902004+80650+025000FM-12+000599999V0201001N001019999999N999999999-01891+99999101411ADDMA1999999101301MD1110031+9999REMSYN04801009 46/// /1001 11189 2//// 30130 40141 51003=
0089010090999992015011903004+80650+025000FM-12+000599999V0201101N003019999999N999999999-01821+99999101321ADDMA1999999101211MD1610041+9999REMSYN04801009 46/// /1103 11182 2//// 30121 40132 56004=
0089010090999992015011904004+80650+025000FM-12+000599999V0201201N006019999999N999999999-01781+99999101231ADDMA1999999101121MD1510121+9999REMSYN04801009 46/// /1206 11178 2//// 30112 40123 55012=
0089010090999992015011905004+80650+025000FM-12+000599999V0201201N007019999999N999999999-01671+99999101211ADDMA1999999101101MD1810201+9999REMSYN04801009 46/// /1207 11167 2//// 30110 40121 58020=
0132010090999992015011906004+80650+025000FM-12+000599999V0201301N007019999999N999999999-01491+99999101051ADDKA1240N-01961MA1999999100931MD1610281+9999OD139900801999REMSYN06401009 46/// /1307 11149 2//// 30093 40105 56028 333 21196 91108=
0089010090999992015011907004+80650+025000FM-12+000599999V0202101N006019999999N999999999-01341+99999101001ADDMA1999999100891MD1710231+9999REMSYN04801009 46/// /2106 11134 2//// 30089 40100 57023=
0089010090999992015011908004+80650+025000FM-12+000599999V0201601N006019999999N999999999-01301+99999100871ADDMA1999999100761MD1810341+9999REMSYN04801009 46/// /1606 11130 2//// 30076 40087 58034=
0089010090999992015011909004+80650+025000FM-12+000599999V0201501N007019999999N999999999-01211+99999100671ADDMA1999999100551MD1610381+9999REMSYN04801009 46/// /1507 11121 2//// 30055 40067 56038=
0089010090999992015011910004+80650+025000FM-12+000599999V0201501N008019999999N999999999-01151+99999100531ADDMA1999999100421MD1710471+9999REMSYN04801009 46/// /1508 11115 2//// 30042 40053 57047=
0089010090999992015011911004+80650+025000FM-12+000599999V0201401N008019999999N999999999-01051+99999100411ADDMA1999999100301MD1810461+9999REMSYN04801009 46/// /1408 11105 2//// 30030 40041 58046=
0113010090999992015011912004+80650+025000FM-12+000599999V0201601N006019999999N999999999-00901+99999100301ADDMA1999999100191MD1710361+9999OD139901001999REMSYN05801009 46/// /1606 11090 2//// 30019 40030 57036 333 91110=
0089010090999992015011913004+80650+025000FM-12+000599999V0201701N005019999999N999999999-00851+99999100191ADDMA1999999100081MD1710341+9999REMSYN04801009 46/// /1705 11085 2//// 30008 40019 57034=
0089010090999992015011914004+80650+025000FM-12+000599999V0201701N003019999999N999999999-00781+99999100141ADDMA1999999100031MD1810271+9999REMSYN04801009 46/// /1703 11078 2//// 30003 40014 58027=
0089010090999992015011915004+80650+025000FM-12+000599999V0201901N004019999999N999999999-00731+99999100071ADDMA1999999099961MD1810231+9999REMSYN04801009 46/// /1904 11073 2//// 39996 40007 58023=
0089010090999992015011916004+80650+025000FM-12+000599999V0201501N003019999999N999999999-00681+99999100031ADDMA1999999099921MD1710161+9999REMSYN04801009 46/// /1503 11068 2//// 39992 40003 57016=
0089010090999992015011917004+80650+025000FM-12+000599999V0201501N004019999999N999999999-00631+99999099941ADDMA1999999099841MD1710201+9999REMSYN04801009 46/// /1504 11063 2//// 39984 49994 57020=
0132010090999992015011918004+80650+025000FM-12+000599999V0201601N004019999999N999999999-00601+99999099881ADDKA1120M-00591MA1999999099771MD1710191+9999OD139900701999REMSYN06401009 46/// /1604 11060 2//// 39977 49988 57019 333 11059 91107=
0089010090999992015011919004+80650+025000FM-12+000599999V0201601N003019999999N999999999-00561+99999099931ADDMA1999999099821MD1810101+9999REMSYN04801009 46/// /1603 11056 2//// 39982 49993 58010=
0089010090999992015011920004+80650+025000FM-12+000599999V0201801N004019999999N999999999-00551+99999099891ADDMA1999999099781MD1710051+9999REMSYN04801009 46/// /1804 11055 2//// 39978 49989 57005=
0089010090999992015011921004+80650+025000FM-12+000599999V0201901N003019999999N999999999-00511+99999099941ADDMA1999999099831MD1210061+9999REMSYN04801009 46/// /1903 11051 2//// 39983 49994 52006=
0108010090999992015011922004+80650+025000FM-12+000599999V0201801N003019999999N999999999-00531+99999099921ADDMA1999999099811MD1790019+9999REMSYN04801009 46/// /1803 11053 2//// 39981 49992 54001=EQDQ01.1    3APC3  
0089010090999992015011923004+80650+025000FM-12+000599999V0202101N004019999999N999999999-00491+99999099981ADDMA1999999099871MD1210091+9999REMSYN04801009 46/// /2104 11049 2//// 39987 49998 52009=
0113010090999992015012000004+80650+025000FM-12+000599999V0203101N012019999999N999999999-00501+99999099981ADDMA1999999099871MD1210041+9999OD139901401999REMSYN05801009 46/// /3112 11050 2//// 39987 49998 52004 333 91114=
0089010090999992015012001004+80650+025000FM-12+000599999V0203401N006019999999N999999999-00541+99999100021ADDMA1999999099911MD1210101+9999REMSYN04801009 46/// /3406 11054 2//// 39991 40002 52010=
0089010090999992015012002004+80650+025000FM-12+000599999V0203101N008019999999N999999999-00521+99999100111ADDMA1999999100011MD1110141+9999REMSYN04801009 46/// /3108 11052 2//// 30001 40011 51014=
0089010090999992015012003004+80650+025000FM-12+000599999V0202901N006019999999N999999999-00611+99999100151ADDMA1999999100041MD1210171+9999REMSYN04801009 46/// /2906 11061 2//// 30004 40015 52017=
0089010090999992015012004004+80650+025000FM-12+000599999V0202801N012019999999N999999999-00631+99999100191ADDMA1999999100081MD1310181+9999REMSYN04801009 46/// /2812 11063 2//// 30008 40019 53018=
0089010090999992015012005004+80650+025000FM-12+000599999V0202701N010019999999N999999999-00751+99999100251ADDMA1999999100141MD1210141+9999REMSYN04801009 46/// /2710 11075 2//// 30014 40025 52014=
0132010090999992015012006004+80650+025000FM-12+000599999V0202801N010019999999N999999999-00791+99999100311ADDKA1240N-00791MA1999999100211MD1210161+9999OD139901501999REMSYN06401009 46/// /2810 11079 2//// 30021 40031 52016 333 21079 91115=
0089010090999992015012007004+80650+025000FM-12+000599999V0202801N008019999999N999999999-00781+99999100411ADDMA1999999100301MD1110211+9999REMSYN04801009 46/// /2808 11078 2//// 30030 40041 51021=
0089010090999992015012008004+80650+025000FM-12+000599999V0202801N009019999999N999999999-00751+99999100511ADDMA1999999100401MD1110251+9999REMSYN04801009 46/// /2809 11075 2//// 30040 40051 51025=
0089010090999992015012009004+80650+025000FM-12+000599999V0203001N007019999999N999999999-00741+99999100601ADDMA1999999100491MD1210291+9999REMSYN04801009 46/// /3007 11074 2//// 30049 40060 52029=
0089010090999992015012010004+80650+025000FM-12+000599999V0203001N006019999999N999999999-00741+99999100721ADDMA1999999100611MD1210311+9999REMSYN04801009 46/// /3006 11074 2//// 30061 40072 52031=
0089010090999992015012011004+80650+025000FM-12+000599999V0203201N005019999999N999999999-00751+99999100801ADDMA1999999100691MD1210291+9999REMSYN04801009 46/// /3205 11075 2//// 30069 40080 52029=
0113010090999992015012012004+80650+025000FM-12+000599999V0200401N006019999999N999999999-00791+99999100921ADDMA1999999100811MD1210321+9999OD139901201999REMSYN05801009 46/// /0406 11079 2//// 30081 40092 52032 333 91112=
0089010090999992015012013004+80650+025000FM-12+000599999V0200601N006019999999N999999999-01011+99999101051ADDMA1999999100941MD1110321+9999REMSYN04801009 46/// /0606 11101 2//// 30094 40105 51032=
0089010090999992015012014004+80650+025000FM-12+000599999V0200701N008019999999N999999999-01041+99999101151ADDMA1999999101041MD1210351+9999REMSYN04801009 46/// /0708 11104 2//// 30104 40115 52035=
0089010090999992015012015004+80650+025000FM-12+000599999V0200801N009019999999N999999999-01131+99999101271ADDMA1999999101161MD1210351+9999REMSYN04801009 46/// /0809 11113 2//// 30116 40127 52035=
0089010090999992015012016004+80650+025000FM-12+000599999V0200901N008019999999N999999999-01171+99999101401ADDMA1999999101281MD1210351+9999REMSYN04801009 46/// /0908 11117 2//// 30128 40140 52035=
0089010090999992015012017004+80650+025000FM-12+000599999V0201001N008019999999N999999999-01131+99999101481ADDMA1999999101371MD1210331+9999REMSYN04801009 46/// /1008 11113 2//// 30137 40148 52033=
0132010090999992015012018004+80650+025000FM-12+000599999V0201001N007019999999N999999999-01071+99999101591ADDKA1120M-00701MA1999999101481MD1210321+9999OD139901001999REMSYN06401009 46/// /1007 11107 2//// 30148 40159 52032 333 11070 91110=
0089010090999992015012019004+80650+025000FM-12+000599999V0201201N008019999999N999999999-01001+99999101641ADDMA1999999101531MD1310241+9999REMSYN04801009 46/// /1208 11100 2//// 30153 40164 53024=
0089010090999992015012020004+80650+025000FM-12+000599999V0201201N010019999999N999999999-01021+99999101701ADDMA1999999101591MD1310221+9999REMSYN04801009 46/// /1210 11102 2//// 30159 40170 53022=
0089010090999992015012021004+80650+025000FM-12+000599999V0201401N010019999999N999999999-01081+99999101801ADDMA1999999101691MD1110211+9999REMSYN04801009 46/// /1410 11108 2//// 30169 40180 51021=
0089010090999992015012022004+80650+025000FM-12+000599999V0201301N012019999999N999999999-01051+99999101811ADDMA1999999101701MD1310171+9999REMSYN04801009 46/// /1312 11105 2//// 30170 40181 53017=
0089010090999992015012023004+80650+025000FM-12+000599999V0201401N011019999999N999999999-00961+99999101931ADDMA1999999101821MD1210231+9999REMSYN04801009 46/// /1411 11096 2//// 30182 40193 52023=
0113010090999992015012100004+80650+025000FM-12+000599999V0201401N012019999999N999999999-00991+99999101961ADDMA1999999101851MD1210161+9999OD139901501999REMSYN05801009 46/// /1412 11099 2//// 30185 40196 52016 333 91115=
0089010090999992015012101004+80650+025000FM-12+000599999V0201401N013019999999N999999999-00971+99999101951ADDMA1999999101841MD1310141+9999REMSYN04801009 46/// /1413 11097 2//// 30184 40195 53014=
0089010090999992015012102004+80650+025000FM-12+000599999V0201401N013019999999N999999999-01041+99999101951ADDMA1999999101841MD1510021+9999REMSYN04801009 46/// /1413 11104 2//// 30184 40195 55002=
0089010090999992015012103004+80650+025000FM-12+000599999V0201401N012019999999N999999999-00941+99999102001ADDMA1999999101891MD1110041+9999REMSYN04801009 46/// /1412 11094 2//// 30189 40200 51004=
0089010090999992015012104004+80650+025000FM-12+000599999V0201801N006019999999N999999999-00941+99999102051ADDMA1999999101931MD1110091+9999REMSYN04801009 46/// /1806 11094 2//// 30193 40205 51009=
0089010090999992015012105004+80650+025000FM-12+000599999V0201801N005019999999N999999999-00941+99999102031ADDMA1999999101911MD1310071+9999REMSYN04801009 46/// /1805 11094 2//// 30191 40203 53007=
0132010090999992015012106004+80650+025000FM-12+000599999V0202001N007019999999N999999999-00891+99999102031ADDKA1240N-01101MA1999999101911MD1510021+9999OD139901501999REMSYN06401009 46/// /2007 11089 2//// 30191 40203 55002 333 21110 91115=
0089010090999992015012107004+80650+025000FM-12+000599999V0202001N008019999999N999999999-00861+99999102011ADDMA1999999101901MD1710041+9999REMSYN04801009 46/// /2008 11086 2//// 30190 40201 57004=
0108010090999992015012108004+80650+025000FM-12+000599999V0202001N009019999999N999999999-00881+99999102011ADDMA1999999101891MD1790029+9999REMSYN04801009 46/// /2009 11088 2//// 30189 40201 54002=EQDQ01.2    3APC3  
0089010090999992015012109004+80650+025000FM-12+000599999V0202001N007019999999N999999999-00811+99999101971ADDMA1999999101851MD1710061+9999REMSYN04801009 46/// /2007 11081 2//// 30185 40197 57006=
0089010090999992015012110004+80650+025000FM-12+000599999V0202301N007019999999N999999999-00711+99999101981ADDMA1999999101861MD1710031+9999REMSYN04801009 46/// /2307 11071 2//// 30186 40198 57003=
0089010090999992015012111004+80650+025000FM-12+000599999V0202201N007019999999N999999999-00711+99999101961ADDMA1999999101851MD1710051+9999REMSYN04801009 46/// /2207 11071 2//// 30185 40196 57005=
0113010090999992015012112004+80650+025000FM-12+000599999V0202101N007019999999N999999999-00651+99999101921ADDMA1999999101811MD1610041+9999OD139901001999REMSYN05801009 46/// /2107 11065 2//// 30181 40192 56004 333 91110=
0089010090999992015012113004+80650+025000FM-12+000599999V0202001N006019999999N999999999-00641+99999101841ADDMA1999999101731MD1610131+9999REMSYN04801009 46/// /2006 11064 2//// 30173 40184 56013=
0089010090999992015012114004+80650+025000FM-12+000599999V0201901N005019999999N999999999-00601+99999101801ADDMA1999999101691MD1710161+9999REMSYN04801009 46/// /1905 11060 2//// 30169 40180 57016=
0089010090999992015012115004+80650+025000FM-12+000599999V0201701N005019999999N999999999-00561+99999101701ADDMA1999999101591MD1710221+9999REMSYN04801009 46/// /1705 11056 2//// 30159 40170 57022=
0089010090999992015012116004+80650+025000FM-12+000599999V0201801N006019999999N999999999-00531+99999101631ADDMA1999999101521MD1710211+9999REMSYN04801009 46/// /1806 11053 2//// 30152 40163 57021=
0089010090999992015012117004+80650+025000FM-12+000599999V0202001N006019999999N999999999-00551+99999101581ADDMA1999999101471MD1810221+9999REMSYN04801009 46/// /2006 11055 2//// 30147 40158 58022=
0132010090999992015012118004+80650+025000FM-12+000599999V0201701N004019999999N999999999-00551+99999101451ADDKA1120M-00501MA1999999101341MD1610251+9999OD139900801999REMSYN06401009 46/// /1704 11055 2//// 30134 40145 56025 333 11050 91108=
0089010090999992015012119004+80650+025000FM-12+000599999V0201701N006019999999N999999999-00421+99999101341ADDMA1999999101231MD1610301+9999REMSYN04801009 46/// /1706 11042 2//// 30123 40134 56030=
0089010090999992015012120004+80650+025000FM-12+000599999V0201601N008019999999N999999999-00381+99999101181ADDMA1999999101081MD1610391+9999REMSYN04801009 46/// /1608 11038 2//// 30108 40118 56039=
0089010090999992015012121004+80650+025000FM-12+000599999V0201801N009019999999N999999999-00331+99999101071ADDMA1999999100961MD1710391+9999REMSYN04801009 46/// /1809 11033 2//// 30096 40107 57039=
0089010090999992015012122004+80650+025000FM-12+000599999V0202001N010019999999N999999999-00301+99999100911ADDMA1999999100801MD1710431+9999REMSYN04801009 46/// /2010 11030 2//// 30080 40091 57043=
0089010090999992015012123004+80650+025000FM-12+000599999V0201901N009019999999N999999999-00271+99999100721ADDMA1999999100611MD1610471+9999REMSYN04801009 46/// /1909 11027 2//// 30061 40072 56047=
0113010090999992015012200004+80650+025000FM-12+000599999V0201801N006019999999N999999999-00261+99999100631ADDMA1999999100531MD1810431+9999OD139901301999REMSYN05801009 46/// /1806 11026 2//// 30053 40063 58043 333 91113=
0089010090999992015012201004+80650+025000FM-12+000599999V0201801N010019999999N999999999-00281+99999100471ADDMA1999999100361MD1710441+9999REMSYN04801009 46/// /1810 11028 2//// 30036 40047 57044=
0089010090999992015012202004+80650+025000FM-12+000599999V0202101N007019999999N999999999-00231+99999100331ADDMA1999999100221MD1610391+9999REMSYN04801009 46/// /2107 11023 2//// 30022 40033 56039=
0089010090999992015012203004+80650+025000FM-12+000599999V0202201N009019999999N999999999-00231+99999100201ADDMA1999999100101MD1810431+9999REMSYN04801009 46/// /2209 11023 2//// 30010 40020 58043=
0089010090999992015012204004+80650+025000FM-12+000599999V0202301N008019999999N999999999-00191+99999100141ADDMA1999999100031MD1810331+9999REMSYN04801009 46/// /2308 11019 2//// 30003 40014 58033=
0089010090999992015012205004+80650+025000FM-12+000599999V0202101N006019999999N999999999-00191+99999100081ADDMA1999999099981MD1810251+9999REMSYN04801009 46/// /2106 11019 2//// 39998 40008 58025=
0132010090999992015012206004+80650+025000FM-12+000599999V0202301N006019999999N999999999-00171+99999100031ADDKA1240N-00561MA1999999099921MD1710171+9999OD139901401999REMSYN06401009 46/// /2306 11017 2//// 39992 40003 57017 333 21056 91114=
0089010090999992015012207004+80650+025000FM-12+000599999V0202101N006019999999N999999999-00131+99999099981ADDMA1999999099871MD1710161+9999REMSYN04801009 46/// /2106 11013 2//// 39987 49998 57016=
0089010090999992015012208004+80650+025000FM-12+000599999V0202001N006019999999N999999999-00071+99999099941ADDMA1999999099831MD1710141+9999REMSYN04801009 46/// /2006 11007 2//// 39983 49994 57014=
0089010090999992015012209004+80650+025000FM-12+000599999V0201801N004019999999N999999999-00071+99999099911ADDMA1999999099801MD1710121+9999REMSYN04801009 46/// /1804 11007 2//// 39980 49991 57012=
0089010090999992015012210004+80650+025000FM-12+000599999V0202201N010019999999N999999999+00021+99999099861ADDMA1999999099761MD1710121+9999REMSYN04801009 46/// /2210 10002 2//// 39976 49986 57012=
0089010090999992015012211004+80650+025000FM-12+000599999V0202201N010019999999N999999999+00021+99999099841ADDMA1999999099731MD1710101+9999REMSYN04801009 46/// /2210 10002 2//// 39973 49984 57010=
0113010090999992015012212004+80650+025000FM-12+000599999V0202201N011019999999N999999999+00051+99999099811ADDMA1999999099711MD1710101+9999OD139901201999REMSYN05801009 46/// /2211 10005 2//// 39971 49981 57010 333 91112=
0089010090999992015012213004+80650+025000FM-12+000599999V0202201N010019999999N999999999+00011+99999099821ADDMA1999999099711MD1810051+9999REMSYN04801009 46/// /2210 10001 2//// 39971 49982 58005=
0108010090999992015012214004+80650+025000FM-12+000599999V0202201N008019999999N999999999+00001+99999099811ADDMA1999999099711MD1790039+9999REMSYN04801009 46/// /2208 10000 2//// 39971 49981 54002=EQDQ01.2    3APC3  
0108010090999992015012215004+80650+025000FM-12+000599999V0202301N008019999999N999999999+00071+99999099831ADDMA1999999099721MD1290029+9999REMSYN04801009 46/// /2308 10007 2//// 39972 49983 54002=EQDQ01.2    3APC3  
0089010090999992015012216004+80650+025000FM-12+000599999V0202401N007019999999N999999999-00011+99999099881ADDMA1999999099771MD1110061+9999REMSYN04801009 46/// /2407 11001 2//// 39977 49988 51006=
0089010090999992015012217004+80650+025000FM-12+000599999V0202401N005019999999N999999999+00001+99999099871ADDMA1999999099761MD1210051+9999REMSYN04801009 46/// /2405 10000 2//// 39976 49987 52005=
0132010090999992015012218004+80650+025000FM-12+000599999V0202401N004019999999N999999999+00001+99999099891ADDKA1120M+00081MA1999999099781MD1210061+9999OD139901301999REMSYN06401009 46/// /2404 10000 2//// 39978 49989 52006 333 10008 91113=
0108010090999992015012220004+80650+025000FM-12+000599999V0202601N001019999999N999999999-00071+99999099861ADDMA1999999099761MD1790019+9999REMSYN04801009 46/// /2601 11007 2//// 39976 49986 54001=EQDQ01.1    3APC3  
0089010090999992015012221004+80650+025000FM-12+000599999V0209999C999999999999N999999999-00101+99999099841ADDMA1999999099731MD1710051+9999REMSYN04801009 46/// /0000 11010 2//// 39973 49984 57005=
0089010090999992015012222004+80650+025000FM-12+000599999V0202301N006019999999N999999999+00011+99999099801ADDMA1999999099701MD1710061+9999REMSYN04801009 46/// /2306 10001 2//// 39970 49980 57006=
0089010090999992015012223004+80650+025000FM-12+000599999V0202301N008019999999N999999999+00041+99999099751ADDMA1999999099651MD1710111+9999REMSYN04801009 46/// /2308 10004 2//// 39965 49975 57011=
0089010090999992015012300004+80650+025000FM-12+000599999V0202301N008019999999N999999999+00051+99999099741ADDMA1999999099631MD1710101+9999REMSYN04801009 46/// /2308 10005 2//// 39963 49974 57010=
0089010090999992015012301004+80650+025000FM-12+000599999V0202401N007019999999N999999999+00071+99999099731ADDMA1999999099621MD1810081+9999REMSYN04801009 46/// /2407 10007 2//// 39962 49973 58008=
0108010090999992015012302004+80650+025000FM-12+000599999V0202401N007019999999N999999999+00061+99999099731ADDMA1999999099621MD1790029+9999REMSYN04801009 46/// /2407 10006 2//// 39962 49973 54002=EQDQ01.2    3APC3  
0089010090999992015012303004+80650+025000FM-12+000599999V0202601N004019999999N999999999+00051+99999099741ADDMA1999999099631MD1410001+9999REMSYN04801009 46/// /2604 10005 2//// 39963 49974 54000=
0089010090999992015012304004+80650+025000FM-12+000599999V0200401N006019999999N999999999-00321+99999099781ADDMA1999999099671MD1110051+9999REMSYN04801009 46/// /0406 11032 2//// 39967 49978 51005=
0089010090999992015012305004+80650+025000FM-12+000599999V0200401N007019999999N999999999-00441+99999099811ADDMA1999999099701MD1210081+9999REMSYN04801009 46/// /0407 11044 2//// 39970 49981 52008=
0113010090999992015012306004+80650+025000FM-12+000599999V0200401N008019999999N999999999-00651+99999099871ADDMA1999999099771MD1210131+9999OD139900901999REMSYN05801009 46/// /0408 11065 2//// 39977 49987 52013 333 91109=
0089010090999992015012307004+80650+025000FM-12+000599999V0200501N009019999999N999999999-00721+99999099941ADDMA1999999099831MD1110161+9999REMSYN04801009 46/// /0509 11072 2//// 39983 49994 51016=
0089010090999992015012308004+80650+025000FM-12+000599999V0200601N009019999999N999999999-00851+99999100001ADDMA1999999099891MD1210191+9999REMSYN04801009 46/// /0609 11085 2//// 39989 40000 52019=
0089010090999992015012309004+80650+025000FM-12+000599999V0200501N008019999999N999999999-00931+99999100101ADDMA1999999099991MD1210221+9999REMSYN04801009 46/// /0508 11093 2//// 39999 40010 52022=
0089010090999992015012310004+80650+025000FM-12+000599999V0200601N008019999999N999999999-00991+99999100171ADDMA1999999100061MD1210221+9999REMSYN04801009 46/// /0608 11099 2//// 30006 40017 52022=
0089010090999992015012311004+80650+025000FM-12+000599999V0200501N008019999999N999999999-01021+99999100241ADDMA1999999100131MD1210231+9999REMSYN04801009 46/// /0508 11102 2//// 30013 40024 52023=
0113010090999992015012312004+80650+025000FM-12+000599999V0200601N008019999999N999999999-01081+99999100271ADDMA1999999100161MD1310171+9999OD139901001999REMSYN05801009 46/// /0608 11108 2//// 30016 40027 53017 333 91110=
0089010090999992015012313004+80650+025000FM-12+000599999V0200601N007019999999N999999999-01121+99999100341ADDMA1999999100231MD1210171+9999REMSYN04801009 46/// /0607 11112 2//// 30023 40034 52017=
0089010090999992015012314004+80650+025000FM-12+000599999V0200601N007019999999N999999999-01161+99999100391ADDMA1999999100271MD1210151+9999REMSYN04801009 46/// /0607 11116 2//// 30027 40039 52015=
0089010090999992015012315004+80650+025000FM-12+000599999V0200701N007019999999N999999999-01161+99999100401ADDMA1999999100291MD1310131+9999REMSYN04801009 46/// /0707 11116 2//// 30029 40040 53013=
0089010090999992015012316004+80650+025000FM-12+000599999V0200601N007019999999N999999999-01141+99999100441ADDMA1999999100331MD1210101+9999REMSYN04801009 46/// /0607 11114 2//// 30033 40044 52010=
0089010090999992015012317004+80650+025000FM-12+000599999V0200701N007019999999N999999999-01151+99999100471ADDMA1999999100361MD1210081+9999REMSYN04801009 46/// /0707 11115 2//// 30036 40047 52008=
0132010090999992015012318004+80650+025000FM-12+000599999V0200801N007019999999N999999999-01211+99999100491ADDKA1120M-00621MA1999999100381MD1210091+9999OD139900901999REMSYN06401009 46/// /0807 11121 2//// 30038 40049 52009 333 11062 91109=
0089010090999992015012319004+80650+025000FM-12+000599999V0200801N008019999999N999999999-01161+99999100521ADDMA1999999100401MD1210081+9999REMSYN04801009 46/// /0808 11116 2//// 30040 40052 52008=
0089010090999992015012320004+80650+025000FM-12+000599999V0200701N007019999999N999999999-01201+99999100591ADDMA1999999100481MD1110121+9999REMSYN04801009 46/// /0707 11120 2//// 30048 40059 51012=
0089010090999992015012321004+80650+025000FM-12+000599999V0200601N007019999999N999999999-01231+99999100611ADDMA1999999100501MD1210121+9999REMSYN04801009 46/// /0607 11123 2//// 30050 40061 52012=
0089010090999992015012322004+80650+025000FM-12+000599999V0200701N008019999999N999999999-01221+99999100651ADDMA1999999100541MD1310141+9999REMSYN04801009 46/// /0708 11122 2//// 30054 40065 53014=
0089010090999992015012323004+80650+025000FM-12+000599999V0200801N008019999999N999999999-01221+99999100671ADDMA1999999100561MD1210081+9999REMSYN04801009 46/// /0808 11122 2//// 30056 40067 52008=
0113010090999992015012400004+80650+025000FM-12+000599999V0200801N008019999999N999999999-01201+99999100671ADDMA1999999100551MD1310051+9999OD139901001999REMSYN05801009 46/// /0808 11120 2//// 30055 40067 53005 333 91110=
0108010090999992015012401004+80650+025000FM-12+000599999V0200801N009019999999N999999999-01231+99999100671ADDMA1999999100561MD1290029+9999REMSYN04801009 46/// /0809 11123 2//// 30056 40067 54002=EQDQ01.2    3APC3  
0089010090999992015012402004+80650+025000FM-12+000599999V0200701N009019999999N999999999-01231+99999100671ADDMA1999999100561MD1410001+9999REMSYN04801009 46/// /0709 11123 2//// 30056 40067 54000=
0108010090999992015012403004+80650+025000FM-12+000599999V0200701N009019999999N999999999-01251+99999100681ADDMA1999999100571MD1290019+9999REMSYN04801009 46/// /0709 11125 2//// 30057 40068 54002=EQDQ01.2    3APC3  
0089010090999992015012404004+80650+025000FM-12+000599999V0200701N009019999999N999999999-01271+99999100731ADDMA1999999100621MD1110061+9999REMSYN04801009 46/// /0709 11127 2//// 30062 40073 51006=
0089010090999992015012405004+80650+025000FM-12+000599999V0200701N010019999999N999999999-01241+99999100731ADDMA1999999100621MD1210061+9999REMSYN04801009 46/// /0710 11124 2//// 30062 40073 52006=
0132010090999992015012406004+80650+025000FM-12+000599999V0200701N010019999999N999999999-01271+99999100721ADDKA1240N-01301MA1999999100611MD1310041+9999OD139901201999REMSYN06401009 46/// /0710 11127 2//// 30061 40072 53004 333 21130 91112=
0089010090999992015012407004+80650+025000FM-12+000599999V0200801N010019999999N999999999-01271+99999100781ADDMA1999999100671MD1110051+9999REMSYN04801009 46/// /0810 11127 2//// 30067 40078 51005=
0089010090999992015012408004+80650+025000FM-12+000599999V0200801N011019999999N999999999-01301+99999100781ADDMA1999999100661MD1210041+9999REMSYN04801009 46/// /0811 11130 2//// 30066 40078 52004=
0089010090999992015012409004+80650+025000FM-12+000599999V0200701N010019999999N999999999-01351+99999100861ADDMA1999999100751MD1210131+9999REMSYN04801009 46/// /0710 11135 2//// 30075 40086 52013=
0089010090999992015012410004+80650+025000FM-12+000599999V0200701N010019999999N999999999-01401+99999100901ADDMA1999999100781MD1110121+9999REMSYN04801009 46/// /0710 11140 2//// 30078 40090 51012=
0089010090999992015012411004+80650+025000FM-12+000599999V0200801N010019999999N999999999-01441+99999100921ADDMA1999999100811MD1310141+9999REMSYN04801009 46/// /0810 11144 2//// 30081 40092 53014=
0113010090999992015012412004+80650+025000FM-12+000599999V0200801N010019999999N999999999-01461+99999100941ADDMA1999999100821MD1210081+9999OD139901201999REMSYN05801009 46/// /0810 11146 2//// 30082 40094 52008 333 91112=
0089010090999992015012413004+80650+025000FM-12+000599999V0200701N010019999999N999999999-01511+99999100971ADDMA1999999100861MD1210071+9999REMSYN04801009 46/// /0710 11151 2//// 30086 40097 52007=
0089010090999992015012414004+80650+025000FM-12+000599999V0200701N010019999999N999999999-01531+99999101021ADDMA1999999100901MD1210101+9999REMSYN04801009 46/// /0710 11153 2//// 30090 40102 52010=
0089010090999992015012415004+80650+025000FM-12+000599999V0200701N010019999999N999999999-01551+99999101071ADDMA1999999100961MD1210131+9999REMSYN04801009 46/// /0710 11155 2//// 30096 40107 52013=
0089010090999992015012416004+80650+025000FM-12+000599999V0200801N010019999999N999999999-01561+99999101101ADDMA1999999100981MD1210131+9999REMSYN04801009 46/// /0810 11156 2//// 30098 40110 52013=
0089010090999992015012417004+80650+025000FM-12+000599999V0200801N010019999999N999999999-01581+99999101151ADDMA1999999101041MD1210131+9999REMSYN04801009 46/// /0810 11158 2//// 30104 40115 52013=
0132010090999992015012418004+80650+025000FM-12+000599999V0200801N010019999999N999999999-01621+99999101211ADDKA1120M-01221MA1999999101091MD1110141+9999OD139901301999REMSYN06401009 46/// /0810 11162 2//// 30109 40121 51014 333 11122 91113=
0089010090999992015012419004+80650+025000FM-12+000599999V0200801N010019999999N999999999-01621+99999101221ADDMA1999999101111MD1310131+9999REMSYN04801009 46/// /0810 11162 2//// 30111 40122 53013=
0089010090999992015012420004+80650+025000FM-12+000599999V0200701N010019999999N999999999-01651+99999101251ADDMA1999999101141MD1210101+9999REMSYN04801009 46/// /0710 11165 2//// 30114 40125 52010=
