0089010110999992015010103004+80067+031500FM-12+001099999V0200801N016019999999N999999999-00371-00441099151ADDMA1999999099051MD1990001+9999REMSYN04801011 46/// /0816 11037 21044 39905 49915 50000=
0132010110999992015010106004+80067+031500FM-12+001099999V0200901N015019999999N999999999-00331-00401099131ADDMA1999999099021MD1790029+9999OD139902101999REMSYN05801011 46/// /0915 11033 21040 39902 49913 54002 333 91121=EQDQ01.2    3APC3  
0089010110999992015010109004+80067+031500FM-12+001099999V0201001N014019999999N999999999-00331-00401099191ADDMA1999999099091MD1210071+9999REMSYN04801011 46/// /1014 11033 21040 39909 49919 52007=
0113010110999992015010112004+80067+031500FM-12+001099999V0200901N014019999999N999999999-00351-00421099131ADDMA1999999099031MD1710061+9999OD139901801999REMSYN05801011 46/// /0914 11035 21042 39903 49913 57006 333 91118=
0089010110999992015010115004+80067+031500FM-12+001099999V0200901N017019999999N999999999-00361-00431098941ADDMA1999999098831MD1810191+9999REMSYN04801011 46/// /0917 11036 21043 39883 49894 58019=
0132010110999992015010118004+80067+031500FM-12+001099999V0200801N017019999999N999999999-00341-00431098861ADDKA1120M-00321MA1999999098751MD1810081+9999OD139902201999REMSYN06401011 46/// /0817 11034 21043 39875 49886 58008 333 11032 91122=
0089010110999992015010121004+80067+031500FM-12+001099999V0200901N017019999999N999999999-00321-00391098791ADDMA1999999098681MD1810071+9999REMSYN04801011 46/// /0917 11032 21039 39868 49879 58007=
0113010110999992015010200004+80067+031500FM-12+001099999V0200901N017019999999N999999999-00321-00391098671ADDMA1999999098571MD1710111+9999OD139902001999REMSYN05801011 46/// /0917 11032 21039 39857 49867 57011 333 91120=
0089010110999992015010203004+80067+031500FM-12+001099999V0200901N018019999999N999999999-00331-00401098591ADDMA1999999098481MD1710081+9999REMSYN04801011 46/// /0918 11033 21040 39848 49859 57008=
0151010110999992015010206004+80067+031500FM-12+001099999V0200801N016019999999N999999999-00341-00431098601ADDKA1240N-00361MA1999999098501MD1290019+9999OD139902001999REMSYN06401011 46/// /0816 11034 21043 39850 49860 54002 333 21036 91120=EQDQ01.2    3APC3  
0089010110999992015010209004+80067+031500FM-12+001099999V0201001N017019999999N999999999-00271-00331098641ADDMA1999999098531MD1990031+9999REMSYN04801011 46/// /1017 11027 21033 39853 49864 50003=
0113010110999992015010212004+80067+031500FM-12+001099999V0201001N018019999999N999999999-00371-00461098831ADDMA1999999098721MD1310191+9999OD139902001999REMSYN05801011 46/// /1018 11037 21046 39872 49883 53019 333 91120=
0089010110999992015010215004+80067+031500FM-12+001099999V0200901N017019999999N999999999-00421-00511098931ADDMA1999999098821MD1110101+9999REMSYN04801011 46/// /0917 11042 21051 39882 49893 51010=
0132010110999992015010218004+80067+031500FM-12+001099999V0200901N018019999999N999999999-00461-00561099021ADDKA1120M-00261MA1999999098911MD1210091+9999OD139902101999REMSYN06401011 46/// /0918 11046 21056 39891 49902 52009 333 11026 91121=
0089010110999992015010221004+80067+031500FM-12+001099999V0200901N019019999999N999999999-00471-00571099151ADDMA1999999099051MD1310131+9999REMSYN04801011 46/// /0919 11047 21057 39905 49915 53013=
0113010110999992015010300004+80067+031500FM-12+001099999V0200901N021019999999N999999999-00461-00561099241ADDMA1999999099131MD1110091+9999OD139902401999REMSYN05801011 46/// /0921 11046 21056 39913 49924 51009 333 91124=
0089010110999992015010303004+80067+031500FM-12+001099999V0200901N019019999999N999999999-00521-00641099571ADDMA1999999099461MD1210331+9999REMSYN04801011 46/// /0919 11052 21064 39946 49957 52033=
0132010110999992015010306004+80067+031500FM-12+001099999V0200901N017019999999N999999999-00511-00631099791ADDKA1240N-00531MA1999999099681MD1210221+9999OD139902301999REMSYN06401011 46/// /0917 11051 21063 39968 49979 52022 333 21053 91123=
0089010110999992015010309004+80067+031500FM-12+001099999V0201001N016019999999N999999999-00471-00591100141ADDMA1999999100031MD1210351+9999REMSYN04801011 46/// /1016 11047 21059 30003 40014 52035=
0113010110999992015010312004+80067+031500FM-12+001099999V0201001N013019999999N999999999-00501-00681100411ADDMA1999999100301MD1310271+9999OD139902001999REMSYN05801011 46/// /1013 11050 21068 30030 40041 53027 333 91120=
0089010110999992015010315004+80067+031500FM-12+001099999V0200901N012019999999N999999999-00561-00721100591ADDMA1999999100481MD1210181+9999REMSYN04801011 46/// /0912 11056 21072 30048 40059 52018=
0132010110999992015010318004+80067+031500FM-12+001099999V0200901N010019999999N999999999-00581-00741100781ADDKA1120M-00451MA1999999100671MD1210191+9999OD139901501999REMSYN06401011 46/// /0910 11058 21074 30067 40078 52019 333 11045 91115=
0089010110999992015010321004+80067+031500FM-12+001099999V0200901N010019999999N999999999-00591-00781100981ADDMA1999999100871MD1210201+9999REMSYN04801011 46/// /0910 11059 21078 30087 40098 52020=
0113010110999992015010400004+80067+031500FM-12+001099999V0200701N010019999999N999999999-00681-00921101191ADDMA1999999101081MD1210221+9999OD139901301999REMSYN05801011 46/// /0710 11068 21092 30108 40119 52022 333 91113=
0089010110999992015010403004+80067+031500FM-12+001099999V0200601N009019999999N999999999-00821-01021101351ADDMA1999999101241MD1210151+9999REMSYN04801011 46/// /0609 11082 21102 30124 40135 52015=
0132010110999992015010406004+80067+031500FM-12+001099999V0200601N011019999999N999999999-00971-01151101411ADDKA1240N-00971MA1999999101301MD1210061+9999OD139901201999REMSYN06401011 46/// /0611 11097 21115 30130 40141 52006 333 21097 91112=
0089010110999992015010409004+80067+031500FM-12+001099999V0200601N010019999999N999999999-00841-01041101571ADDMA1999999101461MD1210161+9999REMSYN04801011 46/// /0610 11084 21104 30146 40157 52016=
0113010110999992015010412004+80067+031500FM-12+001099999V0200601N010019999999N999999999-00841-01021101691ADDMA1999999101581MD1210121+9999OD139901201999REMSYN05801011 46/// /0610 11084 21102 30158 40169 52012 333 91112=
0089010110999992015010415004+80067+031500FM-12+001099999V0200701N011019999999N999999999-00851-00991101751ADDMA1999999101641MD1210061+9999REMSYN04801011 46/// /0711 11085 21099 30164 40175 52006=
0132010110999992015010418004+80067+031500FM-12+001099999V0200801N012019999999N999999999-00831-00991101801ADDKA1120M-00721MA1999999101691MD1210051+9999OD139901401999REMSYN06401011 46/// /0812 11083 21099 30169 40180 52005 333 11072 91114=
0089010110999992015010421004+80067+031500FM-12+001099999V0200801N011019999999N999999999-00861-01071101841ADDMA1999999101731MD1310041+9999REMSYN04801011 46/// /0811 11086 21107 30173 40184 53004=
0113010110999992015010500004+80067+031500FM-12+001099999V0201101N009019999999N999999999-00781-00961101861ADDMA1999999101751MD1510021+9999OD139901401999REMSYN05801011 46/// /1109 11078 21096 30175 40186 55002 333 91114=
0089010110999992015010503004+80067+031500FM-12+001099999V0201201N008019999999N999999999-00731-00901101821ADDMA1999999101711MD1710031+9999REMSYN04801011 46/// /1208 11073 21090 30171 40182 57003=
0089010110999992015010506004+80067+031500FM-12+001099999V0201201N007019999999N999999999-00731-00841101751ADDMA1999999101641MD1810071+9999REMSYN04801011 46/// /1207 11073 21084 30164 40175 58007=
0089010110999992015010509004+80067+031500FM-12+001099999V0201301N002019999999N999999999-00711-00791101761ADDMA1999999101651MD1410001+9999REMSYN04801011 46/// /1302 11071 21079 30165 40176 54000=
0113010110999992015010512004+80067+031500FM-12+001099999V0203201N003019999999N999999999-00631-00731101721ADDMA1999999101611MD1710041+9999OD139900801999REMSYN05801011 46/// /3203 11063 21073 30161 40172 57004 333 91108=
0108010110999992015010515004+80067+031500FM-12+001099999V0202901N008019999999N999999999-00681-00871101731ADDMA1999999101621MD1290019+9999REMSYN04801011 46/// /2908 11068 21087 30162 40173 54001=EQDQ01.1    3APC3  
0132010110999992015010518004+80067+031500FM-12+001099999V0202901N007019999999N999999999-01041-01171101721ADDKA1120M-00581MA1999999101611MD1510011+9999OD139901001999REMSYN06401011 46/// /2907 11104 21117 30161 40172 55001 333 11058 91110=
0089010110999992015010521004+80067+031500FM-12+001099999V0203301N008019999999N999999999-01051-01261101691ADDMA1999999101571MD1610031+9999REMSYN04801011 46/// /3308 11105 21126 30157 40169 56003=
0113010110999992015010600004+80067+031500FM-12+001099999V0203201N004019999999N999999999-00981-01161101641ADDMA1999999101531MD1610041+9999OD139901001999REMSYN05801011 46/// /3204 11098 21116 30153 40164 56004 333 91110=
0089010110999992015010601004+80067+031500FM-12+001099999V0203101N003019999999N999999999-01041-01231101591ADDMA1999999101481MD1610101+9999REMSYN04801011 46/// /3103 11104 21123 30148 40159 56010=
0089010110999992015010603004+80067+031500FM-12+001099999V0203001N004019999999N999999999-01001-01181101541ADDMA1999999101421MD1710111+9999REMSYN04801011 46/// /3004 11100 21118 30142 40154 57011=
0089010110999992015010604004+80067+031500FM-12+001099999V0203101N004019999999N999999999-01031-01211101491ADDMA1999999101381MD1710101+9999REMSYN04801011 46/// /3104 11103 21121 30138 40149 57010=
0089010110999992015010605004+80067+031500FM-12+001099999V0203601N005019999999N999999999-01091-01351101421ADDMA1999999101311MD1610151+9999REMSYN04801011 46/// /3605 11109 21135 30131 40142 56015=
0089010110999992015010606004+80067+031500FM-12+001099999V0200101N004019999999N999999999-01061-01361101411ADDMA1999999101291MD1810131+9999REMSYN04801011 46/// /0104 11106 21136 30129 40141 58013=
0089010110999992015010607004+80067+031500FM-12+001099999V0200101N002019999999N999999999-00941-01181101381ADDMA1999999101261MD1810111+9999REMSYN04801011 46/// /0102 11094 21118 30126 40138 58011=
0089010110999992015010608004+80067+031500FM-12+001099999V0201201N003019999999N999999999-01081-01261101321ADDMA1999999101211MD1610101+9999REMSYN04801011 46/// /1203 11108 21126 30121 40132 56010=
0089010110999992015010609004+80067+031500FM-12+001099999V0201001N005019999999N999999999-01051-01221101291ADDMA1999999101181MD1710121+9999REMSYN04801011 46/// /1005 11105 21122 30118 40129 57012=
0089010110999992015010610004+80067+031500FM-12+001099999V0201001N005019999999N999999999-00981-01181101251ADDMA1999999101141MD1710131+9999REMSYN04801011 46/// /1005 11098 21118 30114 40125 57013=
0089010110999992015010611004+80067+031500FM-12+001099999V0201001N005019999999N999999999-00941-01151101211ADDMA1999999101091MD1710121+9999REMSYN04801011 46/// /1005 11094 21115 30109 40121 57012=
0113010110999992015010612004+80067+031500FM-12+001099999V0200901N006019999999N999999999-00971-01171101191ADDMA1999999101071MD1710101+9999OD139900701999REMSYN05801011 46/// /0906 11097 21117 30107 40119 57010 333 91107=
0089010110999992015010613004+80067+031500FM-12+001099999V0200901N006019999999N999999999-00971-01171101131ADDMA1999999101021MD1710121+9999REMSYN04801011 46/// /0906 11097 21117 30102 40113 57012=
0089010110999992015010614004+80067+031500FM-12+001099999V0200901N008019999999N999999999-00921-01131101041ADDMA1999999100931MD1610171+9999REMSYN04801011 46/// /0908 11092 21113 30093 40104 56017=
0089010110999992015010615004+80067+031500FM-12+001099999V0200801N009019999999N999999999-00951-01131100991ADDMA1999999100881MD1710201+9999REMSYN04801011 46/// /0809 11095 21113 30088 40099 57020=
0089010110999992015010616004+80067+031500FM-12+001099999V0200901N010019999999N999999999-00961-01141100951ADDMA1999999100841MD1810181+9999REMSYN04801011 46/// /0910 11096 21114 30084 40095 58018=
0089010110999992015010617004+80067+031500FM-12+001099999V0200801N012019999999N999999999-01031-01191100891ADDMA1999999100781MD1710151+9999REMSYN04801011 46/// /0812 11103 21119 30078 40089 57015=
0132010110999992015010618004+80067+031500FM-12+001099999V0200801N013019999999N999999999-01111-01231100811ADDKA1120M-00911MA1999999100701MD1610181+9999OD139901401999REMSYN06401011 46/// /0813 11111 21123 30070 40081 56018 333 11091 91114=
0089010110999992015010619004+80067+031500FM-12+001099999V0200801N013019999999N999999999-01081-01201100771ADDMA1999999100661MD1710181+9999REMSYN04801011 46/// /0813 11108 21120 30066 40077 57018=
0089010110999992015010620004+80067+031500FM-12+001099999V0200901N012019999999N999999999-01011-01101100751ADDMA1999999100641MD1810131+9999REMSYN04801011 46/// /0912 11101 21110 30064 40075 58013=
0089010110999992015010621004+80067+031500FM-12+001099999V0200701N014019999999N999999999-01001-01091100691ADDMA1999999100581MD1710121+9999REMSYN04801011 46/// /0714 11100 21109 30058 40069 57012=
0089010110999992015010622004+80067+031500FM-12+001099999V0200801N015019999999N999999999-00921-01001100611ADDMA1999999100501MD1610161+9999REMSYN04801011 46/// /0815 11092 21100 30050 40061 56016=
0089010110999992015010623004+80067+031500FM-12+001099999V0200801N015019999999N999999999-00841-00921100561ADDMA1999999100451MD1710191+9999REMSYN04801011 46/// /0815 11084 21092 30045 40056 57019=
0113010110999992015010700004+80067+031500FM-12+001099999V0200901N015019999999N999999999-00791-00891100531ADDMA1999999100421MD1810161+9999OD139901801999REMSYN05801011 46/// /0915 11079 21089 30042 40053 58016 333 91118=
0089010110999992015010701004+80067+031500FM-12+001099999V0201001N014019999999N999999999-00701-00801100471ADDMA1999999100361MD1710141+9999REMSYN04801011 46/// /1014 11070 21080 30036 40047 57014=
0089010110999992015010702004+80067+031500FM-12+001099999V0201001N016019999999N999999999-00591-00661100401ADDMA1999999100291MD1610161+9999REMSYN04801011 46/// /1016 11059 21066 30029 40040 56016=
0089010110999992015010703004+80067+031500FM-12+001099999V0201001N016019999999N999999999-00521-00601100331ADDMA1999999100221MD1710201+9999REMSYN04801011 46/// /1016 11052 21060 30022 40033 57020=
0089010110999992015010704004+80067+031500FM-12+001099999V0201101N015019999999N999999999-00491-00561100311ADDMA1999999100201MD1810161+9999REMSYN04801011 46/// /1115 11049 21056 30020 40031 58016=
0089010110999992015010705004+80067+031500FM-12+001099999V0201101N015019999999N999999999-00421-00511100281ADDMA1999999100171MD1810121+9999REMSYN04801011 46/// /1115 11042 21051 30017 40028 58012=
0132010110999992015010706004+80067+031500FM-12+001099999V0201101N014019999999N999999999-00401-00491100261ADDKA1240N-01101MA1999999100151MD1710071+9999OD139901901999REMSYN06401011 46/// /1114 11040 21049 30015 40026 57007 333 21110 91119=
0089010110999992015010707004+80067+031500FM-12+001099999V0201101N014019999999N999999999-00381-00471100251ADDMA1999999100151MD1810061+9999REMSYN04801011 46/// /1114 11038 21047 30015 40025 58006=
0089010110999992015010708004+80067+031500FM-12+001099999V0201201N013019999999N999999999-00361-00451100271ADDMA1999999100161MD1990011+9999REMSYN04801011 46/// /1213 11036 21045 30016 40027 50001=
0108010110999992015010709004+80067+031500FM-12+001099999V0201201N013019999999N999999999-00351-00451100251ADDMA1999999100141MD1790019+9999REMSYN04801011 46/// /1213 11035 21045 30014 40025 54001=EQDQ01.1    3APC3  
0108010110999992015010710004+80067+031500FM-12+001099999V0201201N014019999999N999999999-00341-00451100231ADDMA1999999100131MD1790029+9999REMSYN04801011 46/// /1214 11034 21045 30013 40023 54002=EQDQ01.2    3APC3  
0089010110999992015010711004+80067+031500FM-12+001099999V0201101N015019999999N999999999-00351-00451100211ADDMA1999999100111MD1710051+9999REMSYN04801011 46/// /1115 11035 21045 30011 40021 57005=
0113010110999992015010712004+80067+031500FM-12+001099999V0201201N014019999999N999999999-00371-00481100181ADDMA1999999100081MD1710061+9999OD139901601999REMSYN05801011 46/// /1214 11037 21048 30008 40018 57006 333 91116=
0089010110999992015010713004+80067+031500FM-12+001099999V0201201N014019999999N999999999-00381-00491100151ADDMA1999999100041MD1710081+9999REMSYN04801011 46/// /1214 11038 21049 30004 40015 57008=
0089010110999992015010714004+80067+031500FM-12+001099999V0201201N015019999999N999999999-00381-00491100091ADDMA1999999099981MD1610131+9999REMSYN04801011 46/// /1215 11038 21049 39998 40009 56013=
0089010110999992015010715004+80067+031500FM-12+001099999V0201201N016019999999N999999999-00431-00541100051ADDMA1999999099941MD1710141+9999REMSYN04801011 46/// /1216 11043 21054 39994 40005 57014=
0089010110999992015010716004+80067+031500FM-12+001099999V0201201N016019999999N999999999-00421-00541100031ADDMA1999999099921MD1810121+9999REMSYN04801011 46/// /1216 11042 21054 39992 40003 58012=
0089010110999992015010717004+80067+031500FM-12+001099999V0201201N017019999999N999999999-00411-00531099971ADDMA1999999099861MD1710121+9999REMSYN04801011 46/// /1217 11041 21053 39986 49997 57012=
0132010110999992015010718004+80067+031500FM-12+001099999V0201201N017019999999N999999999-00391-00511099931ADDKA1120M-00331MA1999999099831MD1710111+9999OD139901901999REMSYN06401011 46/// /1217 11039 21051 39983 49993 57011 333 11033 91119=
0089010110999992015010719004+80067+031500FM-12+001099999V0201201N016019999999N999999999-00371-00531099911ADDMA1999999099811MD1810111+9999REMSYN04801011 46/// /1216 11037 21053 39981 49991 58011=
0089010110999992015010720004+80067+031500FM-12+001099999V0201101N019019999999N999999999-00351-00541099821ADDMA1999999099711MD1610151+9999REMSYN04801011 46/// /1119 11035 21054 39971 49982 56015=
0089010110999992015010721004+80067+031500FM-12+001099999V0201101N019019999999N999999999-00321-00531099751ADDMA1999999099641MD1610191+9999REMSYN04801011 46/// /1119 11032 21053 39964 49975 56019=
0089010110999992015010722004+80067+031500FM-12+001099999V0201101N018019999999N999999999-00311-00501099701ADDMA1999999099601MD1810211+9999REMSYN04801011 46/// /1118 11031 21050 39960 49970 58021=
0089010110999992015010723004+80067+031500FM-12+001099999V0201101N019019999999N999999999-00271-00481099641ADDMA1999999099531MD1710181+9999REMSYN04801011 46/// /1119 11027 21048 39953 49964 57018=
0113010110999992015010800004+80067+031500FM-12+001099999V0201101N019019999999N999999999-00301-00421099591ADDMA1999999099481MD1710161+9999OD139902201999REMSYN05801011 46/// /1119 11030 21042 39948 49959 57016 333 91122=
0089010110999992015010801004+80067+031500FM-12+001099999V0201101N019019999999N999999999-00291-00411099541ADDMA1999999099431MD1710171+9999REMSYN04801011 46/// /1119 11029 21041 39943 49954 57017=
0089010110999992015010802004+80067+031500FM-12+001099999V0201101N018019999999N999999999-00301-00351099451ADDMA1999999099351MD1610181+9999REMSYN04801011 46/// /1118 11030 21035 39935 49945 56018=
0089010110999992015010803004+80067+031500FM-12+001099999V0201201N017019999999N999999999-00261-00301099421ADDMA1999999099311MD1710171+9999REMSYN04801011 46/// /1217 11026 21030 39931 49942 57017=
0089010110999992015010804004+80067+031500FM-12+001099999V0201201N015019999999N999999999-00201-00221099401ADDMA1999999099291MD1810141+9999REMSYN04801011 46/// /1215 11020 21022 39929 49940 58014=
0089010110999992015010805004+80067+031500FM-12+001099999V0201401N013019999999N999999999-00151-00171099451ADDMA1999999099351MD1990001+9999REMSYN04801011 46/// /1413 11015 21017 39935 49945 50000=
0132010110999992015010806004+80067+031500FM-12+001099999V0201601N008019999999N999999999-00171-00191099521ADDKA1240N-00411MA1999999099411MD1110101+9999OD139902201999REMSYN06401011 46/// /1608 11017 21019 39941 49952 51010 333 21041 91122=
0089010110999992015010807004+80067+031500FM-12+001099999V0201701N006019999999N999999999-00201-00221099621ADDMA1999999099521MD1110231+9999REMSYN04801011 46/// /1706 11020 21022 39952 49962 51023=
0089010110999992015010808004+80067+031500FM-12+001099999V0201701N004019999999N999999999-00241-00251099731ADDMA1999999099621MD1110281+9999REMSYN04801011 46/// /1704 11024 21025 39962 49973 51028=
0089010110999992015010809004+80067+031500FM-12+001099999V0201001N004019999999N999999999-00271-00281099801ADDMA1999999099701MD1310281+9999REMSYN04801011 46/// /1004 11027 21028 39970 49980 53028=
0089010110999992015010810004+80067+031500FM-12+001099999V0201101N004019999999N999999999-00361-00381099871ADDMA1999999099771MD1310251+9999REMSYN04801011 46/// /1104 11036 21038 39977 49987 53025=
0089010110999992015010811004+80067+031500FM-12+001099999V0201201N002019999999N999999999-00361-00381099931ADDMA1999999099821MD1210201+9999REMSYN04801011 46/// /1202 11036 21038 39982 49993 52020=
0113010110999992015010812004+80067+031500FM-12+001099999V0201301N001019999999N999999999-00391-00411099981ADDMA1999999099881MD1210181+9999OD139901001999REMSYN05801011 46/// /1301 11039 21041 39988 49998 52018 333 91110=
0089010110999992015010813004+80067+031500FM-12+001099999V0209999C999999999999N999999999-00411-00451100051ADDMA1999999099941MD1210171+9999REMSYN04801011 46/// /0000 11041 21045 39994 40005 52017=
0089010110999992015010814004+80067+031500FM-12+001099999V0203501N002019999999N999999999-00461-00501100051ADDMA1999999099941MD1310121+9999REMSYN04801011 46/// /3502 11046 21050 39994 40005 53012=
0089010110999992015010815004+80067+031500FM-12+001099999V0202801N001019999999N999999999-00531-00571100071ADDMA1999999099961MD1310081+9999REMSYN04801011 46/// /2801 11053 21057 39996 40007 53008=
0089010110999992015010816004+80067+031500FM-12+001099999V0201401N002019999999N999999999-00671-00731100091ADDMA1999999099981MD1210041+9999REMSYN04801011 46/// /1402 11067 21073 39998 40009 52004=
0089010110999992015010817004+80067+031500FM-12+001099999V0203001N001019999999N999999999-00691-00751100151ADDMA1999999100041MD1110111+9999REMSYN04801011 46/// /3001 11069 21075 30004 40015 51011=
0132010110999992015010818004+80067+031500FM-12+001099999V0203401N001019999999N999999999-00621-00671100191ADDKA1120M-00171MA1999999100081MD1210121+9999OD139900301999REMSYN06401011 46/// /3401 11062 21067 30008 40019 52012 333 11017 91103=
0089010110999992015010819004+80067+031500FM-12+001099999V0200901N005019999999N999999999-00411-00471100231ADDMA1999999100121MD1210141+9999REMSYN04801011 46/// /0905 11041 21047 30012 40023 52014=
0089010110999992015010820004+80067+031500FM-12+001099999V0201001N006019999999N999999999-00431-00491100291ADDMA1999999100181MD1210131+9999REMSYN04801011 46/// /1006 11043 21049 30018 40029 52013=
0089010110999992015010821004+80067+031500FM-12+001099999V0201001N007019999999N999999999-00441-00501100321ADDMA1999999100211MD1210131+9999REMSYN04801011 46/// /1007 11044 21050 30021 40032 52013=
0089010110999992015010822004+80067+031500FM-12+001099999V0201201N008019999999N999999999-00521-00571100351ADDMA1999999100241MD1210121+9999REMSYN04801011 46/// /1208 11052 21057 30024 40035 52012=
0089010110999992015010823004+80067+031500FM-12+001099999V0201201N007019999999N999999999-00481-00551100381ADDMA1999999100271MD1210101+9999REMSYN04801011 46/// /1207 11048 21055 30027 40038 52010=
0113010110999992015010900004+80067+031500FM-12+001099999V0201201N009019999999N999999999-00351-00401100391ADDMA1999999100281MD1210071+9999OD139901001999REMSYN05801011 46/// /1209 11035 21040 30028 40039 52007 333 91110=
0089010110999992015010901004+80067+031500FM-12+001099999V0201201N008019999999N999999999-00261-00351100411ADDMA1999999100301MD1210051+9999REMSYN04801011 46/// /1208 11026 21035 30030 40041 52005=
0089010110999992015010902004+80067+031500FM-12+001099999V0201201N008019999999N999999999-00271-00391100451ADDMA1999999100341MD1110071+9999REMSYN04801011 46/// /1208 11027 21039 30034 40045 51007=
0089010110999992015010903004+80067+031500FM-12+001099999V0201101N009019999999N999999999-00311-00461100451ADDMA1999999100341MD1210061+9999REMSYN04801011 46/// /1109 11031 21046 30034 40045 52006=
0089010110999992015010904004+80067+031500FM-12+001099999V0201201N008019999999N999999999-00361-00501100491ADDMA1999999100381MD1210091+9999REMSYN04801011 46/// /1208 11036 21050 30038 40049 52009=
0089010110999992015010905004+80067+031500FM-12+001099999V0201201N008019999999N999999999-00371-00511100521ADDMA1999999100411MD1210071+9999REMSYN04801011 46/// /1208 11037 21051 30041 40052 52007=
0132010110999992015010906004+80067+031500FM-12+001099999V0201301N009019999999N999999999-00371-00531100531ADDKA1240N-00631MA1999999100421MD1310081+9999OD139901101999REMSYN06401011 46/// /1309 11037 21053 30042 40053 53008 333 21063 91111=
0089010110999992015010907004+80067+031500FM-12+001099999V0201101N009019999999N999999999-00381-00531100531ADDMA1999999100431MD1210041+9999REMSYN04801011 46/// /1109 11038 21053 30043 40053 52004=
0108010110999992015010908004+80067+031500FM-12+001099999V0201101N010019999999N999999999-00411-00551100541ADDMA1999999100441MD1290029+9999REMSYN04801011 46/// /1110 11041 21055 30044 40054 54003=EQDQ01.3    3APC3  
0108010110999992015010909004+80067+031500FM-12+001099999V0201101N010019999999N999999999-00421-00531100551ADDMA1999999100451MD1290029+9999REMSYN04801011 46/// /1110 11042 21053 30045 40055 54003=EQDQ01.3    3APC3  
0108010110999992015010910004+80067+031500FM-12+001099999V0201101N011019999999N999999999-00401-00521100561ADDMA1999999100451MD1290039+9999REMSYN04801011 46/// /1111 11040 21052 30045 40056 54002=EQDQ01.2    3APC3  
0089010110999992015010911004+80067+031500FM-12+001099999V0201201N008019999999N999999999-00431-00541100611ADDMA1999999100501MD1110061+9999REMSYN04801011 46/// /1208 11043 21054 30050 40061 51006=
0113010110999992015010912004+80067+031500FM-12+001099999V0201201N009019999999N999999999-00361-00471100621ADDMA1999999100511MD1210061+9999OD139901201999REMSYN05801011 46/// /1209 11036 21047 30051 40062 52006 333 91112=
0089010110999992015010913004+80067+031500FM-12+001099999V0201201N009019999999N999999999-00341-00461100631ADDMA1999999100521MD1310081+9999REMSYN04801011 46/// /1209 11034 21046 30052 40063 53008=
0108010110999992015010914004+80067+031500FM-12+001099999V0201301N009019999999N999999999-00361-00461100631ADDMA1999999100521MD1290029+9999REMSYN04801011 46/// /1309 11036 21046 30052 40063 54003=EQDQ01.3    3APC3  
0089010110999992015010915004+80067+031500FM-12+001099999V0201201N008019999999N999999999-00331-00401100661ADDMA1999999100551MD1210041+9999REMSYN04801011 46/// /1208 11033 21040 30055 40066 52004=
0108010110999992015010916004+80067+031500FM-12+001099999V0201201N008019999999N999999999-00321-00411100651ADDMA1999999100541MD1290029+9999REMSYN04801011 46/// /1208 11032 21041 30054 40065 54002=EQDQ01.2    3APC3  
0089010110999992015010917004+80067+031500FM-12+001099999V0201201N007019999999N999999999-00341-00431100701ADDMA1999999100591MD1210071+9999REMSYN04801011 46/// /1207 11034 21043 30059 40070 52007=
0132010110999992015010918004+80067+031500FM-12+001099999V0201201N007019999999N999999999-00321-00391100721ADDKA1120M-00311MA1999999100611MD1110061+9999OD139901101999REMSYN06401011 46/// /1207 11032 21039 30061 40072 51006 333 11031 91111=
0089010110999992015010919004+80067+031500FM-12+001099999V0201201N007019999999N999999999-00351-00441100721ADDMA1999999100611MD1310071+9999REMSYN04801011 46/// /1207 11035 21044 30061 40072 53007=
0089010110999992015010920004+80067+031500FM-12+001099999V0201201N006019999999N999999999-00341-00431100741ADDMA1999999100641MD1210051+9999REMSYN04801011 46/// /1206 11034 21043 30064 40074 52005=
0108010110999992015010921004+80067+031500FM-12+001099999V0201201N006019999999N999999999-00331-00421100731ADDMA1999999100621MD1290019+9999REMSYN04801011 46/// /1206 11033 21042 30062 40073 54001=EQDQ01.1    3APC3  
0108010110999992015010922004+80067+031500FM-12+001099999V0201201N005019999999N999999999-00351-00421100731ADDMA1999999100631MD1290019+9999REMSYN04801011 46/// /1205 11035 21042 30063 40073 54001=EQDQ01.1    3APC3  
0089010110999992015010923004+80067+031500FM-12+001099999V0201101N005019999999N999999999-00351-00441100741ADDMA1999999100631MD1410001+9999REMSYN04801011 46/// /1105 11035 21044 30063 40074 54000=
0132010110999992015011000004+80067+031500FM-12+001099999V0201101N005019999999N999999999-00331-00431100741ADDMA1999999100631MD1290019+9999OD139900801999REMSYN05801011 46/// /1105 11033 21043 30063 40074 54001 333 91108=EQDQ01.1    3APC3  
0108010110999992015011001004+80067+031500FM-12+001099999V0201401N005019999999N999999999-00331-00441100721ADDMA1999999100621MD1790019+9999REMSYN04801011 46/// /1405 11033 21044 30062 40072 54001=EQDQ01.1    3APC3  
0089010110999992015011002004+80067+031500FM-12+001099999V0201301N004019999999N999999999-00351-00461100691ADDMA1999999100591MD1710051+9999REMSYN04801011 46/// /1304 11035 21046 30059 40069 57005=
0089010110999992015011003004+80067+031500FM-12+001099999V0201201N004019999999N999999999-00331-00441100671ADDMA1999999100561MD1710061+9999REMSYN04801011 46/// /1204 11033 21044 30056 40067 57006=
0089010110999992015011004004+80067+031500FM-12+001099999V0201001N003019999999N999999999-00331-00451100661ADDMA1999999100551MD1710071+9999REMSYN04801011 46/// /1003 11033 21045 30055 40066 57007=
0089010110999992015011005004+80067+031500FM-12+001099999V0201201N005019999999N999999999-00381-00491100621ADDMA1999999100521MD1710071+9999REMSYN04801011 46/// /1205 11038 21049 30052 40062 57007=
0132010110999992015011006004+80067+031500FM-12+001099999V0201001N003019999999N999999999-00341-00461100621ADDKA1240N-00421MA1999999100511MD1710051+9999OD139900601999REMSYN06401011 46/// /1003 11034 21046 30051 40062 57005 333 21042 91106=
0089010110999992015011007004+80067+031500FM-12+001099999V0200901N002019999999N999999999-00381-00521100611ADDMA1999999100501MD1710041+9999REMSYN04801011 46/// /0902 11038 21052 30050 40061 57004=
0108010110999992015011008004+80067+031500FM-12+001099999V0201201N002019999999N999999999-00351-00501100621ADDMA1999999100511MD1410009+9999REMSYN04801011 46/// /1202 11035 21050 30051 40062 54001=EQDQ01.1    3APC3  
0108010110999992015011009004+80067+031500FM-12+001099999V0200601N004019999999N999999999-00381-00571100611ADDMA1999999100501MD1790019+9999REMSYN04801011 46/// /0604 11038 21057 30050 40061 54001=EQDQ01.1    3APC3  
0108010110999992015011010004+80067+031500FM-12+001099999V0200501N007019999999N999999999-00361-00581100611ADDMA1999999100501MD1410009+9999REMSYN04801011 46/// /0507 11036 21058 30050 40061 54001=EQDQ01.1    3APC3  
0108010110999992015011011004+80067+031500FM-12+001099999V0200501N010019999999N999999999-00411-00521100591ADDMA1999999100481MD1790039+9999REMSYN04801011 46/// /0510 11041 21052 30048 40059 54003=EQDQ01.3    3APC3  
0113010110999992015011012004+80067+031500FM-12+001099999V0200501N014019999999N999999999-00571-00671100581ADDMA1999999100471MD1710031+9999OD139901601999REMSYN05801011 46/// /0514 11057 21067 30047 40058 57003 333 91116=
0108010110999992015011013004+80067+031500FM-12+001099999V0200601N016019999999N999999999-00671-00821100591ADDMA1999999100491MD1790029+9999REMSYN04801011 46/// /0616 11067 21082 30049 40059 54001=EQDQ01.1    3APC3  
0089010110999992015011014004+80067+031500FM-12+001099999V0200501N016019999999N999999999-00781-00911100631ADDMA1999999100521MD1110041+9999REMSYN04801011 46/// /0516 11078 21091 30052 40063 51004=
0089010110999992015011015004+80067+031500FM-12+001099999V0200501N016019999999N999999999-00891-01061100661ADDMA1999999100551MD1210081+9999REMSYN04801011 46/// /0516 11089 21106 30055 40066 52008=
0089010110999992015011016004+80067+031500FM-12+001099999V0200501N017019999999N999999999-01011-01151100681ADDMA1999999100571MD1210081+9999REMSYN04801011 46/// /0517 11101 21115 30057 40068 52008=
0089010110999992015011017004+80067+031500FM-12+001099999V0200501N017019999999N999999999-01101-01241100691ADDMA1999999100581MD1210061+9999REMSYN04801011 46/// /0517 11110 21124 30058 40069 52006=
0132010110999992015011018004+80067+031500FM-12+001099999V0200501N018019999999N999999999-01181-01321100731ADDKA1120M-00311MA1999999100621MD1210071+9999OD139902001999REMSYN06401011 46/// /0518 11118 21132 30062 40073 52007 333 11031 91120=
0089010110999992015011020004+80067+031500FM-12+001099999V0200601N017019999999N999999999-01271-01411100851ADDMA1999999100741MD1210151+9999REMSYN04801011 46/// /0617 11127 21141 30074 40085 52015=
0089010110999992015011021004+80067+031500FM-12+001099999V0200601N016019999999N999999999-01301-01441100911ADDMA1999999100791MD1210171+9999REMSYN04801011 46/// /0616 11130 21144 30079 40091 52017=
0089010110999992015011022004+80067+031500FM-12+001099999V0200701N014019999999N999999999-01501-01701100981ADDMA1999999100871MD1210191+9999REMSYN04801011 46/// /0714 11150 21170 30087 40098 52019=
0089010110999992015011023004+80067+031500FM-12+001099999V0200501N014019999999N999999999-01591-01761101031ADDMA1999999100921MD1210181+9999REMSYN04801011 46/// /0514 11159 21176 30092 40103 52018=
0089010110999992015011100004+80067+031500FM-12+001099999V0200601N015019999999N999999999-01611-01801101061ADDMA1999999100951MD1310161+9999REMSYN04801011 46/// /0615 11161 21180 30095 40106 53016=
0089010110999992015011101004+80067+031500FM-12+001099999V0200601N015019999999N999999999-01631-01851101061ADDMA1999999100951MD1310081+9999REMSYN04801011 46/// /0615 11163 21185 30095 40106 53008=
0089010110999992015011102004+80067+031500FM-12+001099999V0200601N012019999999N999999999-01671-01961101151ADDMA1999999101041MD1110121+9999REMSYN04801011 46/// /0612 11167 21196 30104 40115 51012=
0089010110999992015011103004+80067+031500FM-12+001099999V0200601N012019999999N999999999-01691-01931101151ADDMA1999999101041MD1210091+9999REMSYN04801011 46/// /0612 11169 21193 30104 40115 52009=
0089010110999992015011104004+80067+031500FM-12+001099999V0200601N012019999999N999999999-01711-01921101151ADDMA1999999101031MD1310081+9999REMSYN04801011 46/// /0612 11171 21192 30103 40115 53008=
0089010110999992015011105004+80067+031500FM-12+001099999V0200601N011019999999N999999999-01661-01881101161ADDMA1999999101041MD1410001+9999REMSYN04801011 46/// /0611 11166 21188 30104 40116 54000=
0132010110999992015011106004+80067+031500FM-12+001099999V0200701N014019999999N999999999-01651-01871101131ADDMA1999999101011MD1790029+9999OD139901601999REMSYN05801011 46/// /0714 11165 21187 30101 40113 54002 333 91116=EQDQ01.2    3APC3  
0089010110999992015011107004+80067+031500FM-12+001099999V0200701N013019999999N999999999-01721-01961101181ADDMA1999999101061MD1110031+9999REMSYN04801011 46/// /0713 11172 21196 30106 40118 51003=
0089010110999992015011108004+80067+031500FM-12+001099999V0200801N011019999999N999999999-01661-01921101221ADDMA1999999101101MD1110061+9999REMSYN04801011 46/// /0811 11166 21192 30110 40122 51006=
0089010110999992015011109004+80067+031500FM-12+001099999V0200801N010019999999N999999999-01661-01961101251ADDMA1999999101141MD1210131+9999REMSYN04801011 46/// /0810 11166 21196 30114 40125 52013=
0089010110999992015011110004+80067+031500FM-12+001099999V0200901N009019999999N999999999-01671-02001101261ADDMA1999999101151MD1310081+9999REMSYN04801011 46/// /0909 11167 21200 30115 40126 53008=
0089010110999992015011111004+80067+031500FM-12+001099999V0201201N006019999999N999999999-01751-02091101311ADDMA1999999101201MD1210101+9999REMSYN04801011 46/// /1206 11175 21209 30120 40131 52010=
0113010110999992015011112004+80067+031500FM-12+001099999V0201001N007019999999N999999999-01441-01641101271ADDMA1999999101161MD1510011+9999OD139901501999REMSYN05801011 46/// /1007 11144 21164 30116 40127 55001 333 91115=
0089010110999992015011113004+80067+031500FM-12+001099999V0201101N008019999999N999999999-01351-01501101281ADDMA1999999101171MD1510021+9999REMSYN04801011 46/// /1108 11135 21150 30117 40128 55002=
0089010110999992015011114004+80067+031500FM-12+001099999V0201201N008019999999N999999999-01361-01511101271ADDMA1999999101161MD1810041+9999REMSYN04801011 46/// /1208 11136 21151 30116 40127 58004=
0089010110999992015011115004+80067+031500FM-12+001099999V0201201N007019999999N999999999-01341-01501101261ADDMA1999999101151MD1410001+9999REMSYN04801011 46/// /1207 11134 21150 30115 40126 54000=
0108010110999992015011116004+80067+031500FM-12+001099999V0201201N007019999999N999999999-01331-01511101261ADDMA1999999101151MD1790029+9999REMSYN04801011 46/// /1207 11133 21151 30115 40126 54002=EQDQ01.2    3APC3  
0108010110999992015011117004+80067+031500FM-12+001099999V0201201N006019999999N999999999-01261-01451101261ADDMA1999999101151MD1790019+9999REMSYN04801011 46/// /1206 11126 21145 30115 40126 54001=EQDQ01.1    3APC3  
0132010110999992015011118004+80067+031500FM-12+001099999V0201201N006019999999N999999999-01241-01431101261ADDKA1120M-01231MA1999999101151MD1410001+9999OD139901001999REMSYN06401011 46/// /1206 11124 21143 30115 40126 54000 333 11123 91110=
0108010110999992015011119004+80067+031500FM-12+001099999V0201201N006019999999N999999999-01161-01371101241ADDMA1999999101131MD1790029+9999REMSYN04801011 46/// /1206 11116 21137 30113 40124 54002=EQDQ01.2    3APC3  
0108010110999992015011120004+80067+031500FM-12+001099999V0201301N005019999999N999999999-01201-01371101241ADDMA1999999101131MD1790029+9999REMSYN04801011 46/// /1305 11120 21137 30113 40124 54002=EQDQ01.2    3APC3  
0089010110999992015011121004+80067+031500FM-12+001099999V0201301N005019999999N999999999-01181-01391101221ADDMA1999999101111MD1710041+9999REMSYN04801011 46/// /1305 11118 21139 30111 40122 57004=
0089010110999992015011122004+80067+031500FM-12+001099999V0201201N005019999999N999999999-01191-01401101201ADDMA1999999101091MD1710041+9999REMSYN04801011 46/// /1205 11119 21140 30109 40120 57004=
0089010110999992015011123004+80067+031500FM-12+001099999V0201201N005019999999N999999999-01181-01391101191ADDMA1999999101081MD1710051+9999REMSYN04801011 46/// /1205 11118 21139 30108 40119 57005=
0113010110999992015011200004+80067+031500FM-12+001099999V0201201N005019999999N999999999-01231-01411101161ADDMA1999999101051MD1710061+9999OD139900701999REMSYN05801011 46/// /1205 11123 21141 30105 40116 57006 333 91107=
0089010110999992015011201004+80067+031500FM-12+001099999V0201101N004019999999N999999999-01211-01401101121ADDMA1999999101011MD1610081+9999REMSYN04801011 46/// /1104 11121 21140 30101 40112 56008=
0089010110999992015011202004+80067+031500FM-12+001099999V0201201N004019999999N999999999-01211-01411101081ADDMA1999999100971MD1710111+9999REMSYN04801011 46/// /1204 11121 21141 30097 40108 57011=
0089010110999992015011203004+80067+031500FM-12+001099999V0201101N003019999999N999999999-01221-01401101051ADDMA1999999100941MD1710121+9999REMSYN04801011 46/// /1103 11122 21140 30094 40105 57012=
0089010110999992015011204004+80067+031500FM-12+001099999V0201101N002019999999N999999999-01241-01431101011ADDMA1999999100891MD1710121+9999REMSYN04801011 46/// /1102 11124 21143 30089 40101 57012=
0089010110999992015011205004+80067+031500FM-12+001099999V0200901N002019999999N999999999-01281-01461100961ADDMA1999999100851MD1710121+9999REMSYN04801011 46/// /0902 11128 21146 30085 40096 57012=
0132010110999992015011206004+80067+031500FM-12+001099999V0201301N002019999999N999999999-01351-01511100931ADDKA1240N-01361MA1999999100821MD1710121+9999OD139900601999REMSYN06401011 46/// /1302 11135 21151 30082 40093 57012 333 21136 91106=
0089010110999992015011207004+80067+031500FM-12+001099999V0209999C999999999999N999999999-01351-01481100901ADDMA1999999100791MD1710101+9999REMSYN04801011 46/// /0000 11135 21148 30079 40090 57010=
0089010110999992015011208004+80067+031500FM-12+001099999V0209999C999999999999N999999999-01321-01421100911ADDMA1999999100801MD1810061+9999REMSYN04801011 46/// /0000 11132 21142 30080 40091 58006=
0089010110999992015011209004+80067+031500FM-12+001099999V0202901N002019999999N999999999-01281-01401100891ADDMA1999999100781MD1710041+9999REMSYN04801011 46/// /2902 11128 21140 30078 40089 57004=
0089010110999992015011210004+80067+031500FM-12+001099999V0201201N001019999999N999999999-01251-01391100831ADDMA1999999100721MD1610071+9999REMSYN04801011 46/// /1201 11125 21139 30072 40083 56007=
0089010110999992015011211004+80067+031500FM-12+001099999V0201101N001019999999N999999999-01161-01251100801ADDMA1999999100681MD1710111+9999REMSYN04801011 46/// /1101 11116 21125 30068 40080 57011=
0113010110999992015011212004+80067+031500FM-12+001099999V0209999C999999999999N999999999-01051-01131100741ADDMA1999999100631MD1710151+9999OD139900201999REMSYN05801011 46/// /0000 11105 21113 30063 40074 57015 333 91102=
0089010110999992015011213004+80067+031500FM-12+001099999V0203201N002019999999N999999999-00871-00961100661ADDMA1999999100551MD1610171+9999REMSYN04801011 46/// /3202 11087 21096 30055 40066 56017=
0089010110999992015011214004+80067+031500FM-12+001099999V0203201N004019999999N999999999-00831-00921100591ADDMA1999999100481MD1710201+9999REMSYN04801011 46/// /3204 11083 21092 30048 40059 57020=
0089010110999992015011215004+80067+031500FM-12+001099999V0203201N005019999999N999999999-00861-00951100541ADDMA1999999100431MD1710201+9999REMSYN04801011 46/// /3205 11086 21095 30043 40054 57020=
0089010110999992015011216004+80067+031500FM-12+001099999V0203101N004019999999N999999999-00771-00841100541ADDMA1999999100431MD1810121+9999REMSYN04801011 46/// /3104 11077 21084 30043 40054 58012=
0089010110999992015011217004+80067+031500FM-12+001099999V0203101N005019999999N999999999-00761-00831100501ADDMA1999999100391MD1710091+9999REMSYN04801011 46/// /3105 11076 21083 30039 40050 57009=
0132010110999992015011218004+80067+031500FM-12+001099999V0203401N006019999999N999999999-00741-00841100511ADDKA1120M-00701MA1999999100401MD1710031+9999OD139900701999REMSYN06401011 46/// /3406 11074 21084 30040 40051 57003 333 11070 91107=
0089010110999992015011219004+80067+031500FM-12+001099999V0203601N008019999999N999999999-00921-01061100501ADDMA1999999100391MD1710041+9999REMSYN04801011 46/// /3608 11092 21106 30039 40050 57004=
0108010110999992015011220004+80067+031500FM-12+001099999V0203401N008019999999N999999999-01241-01411100521ADDMA1999999100401MD1290029+9999REMSYN04801011 46/// /3408 11124 21141 30040 40052 54001=EQDQ01.1    3APC3  
0089010110999992015011221004+80067+031500FM-12+001099999V0200901N003019999999N999999999-01301-01581100541ADDMA1999999100431MD1990031+9999REMSYN04801011 46/// /0903 11130 21158 30043 40054 50003=
0089010110999992015011222004+80067+031500FM-12+001099999V0203101N003019999999N999999999-01421-01691100581ADDMA1999999100471MD1210071+9999REMSYN04801011 46/// /3103 11142 21169 30047 40058 52007=
0089010110999992015011223004+80067+031500FM-12+001099999V0200501N009019999999N999999999-01271-01401100521ADDMA1999999100411MD1510011+9999REMSYN04801011 46/// /0509 11127 21140 30041 40052 55001=
0113010110999992015011300004+80067+031500FM-12+001099999V0203401N004019999999N999999999-01281-01501100601ADDMA1999999100491MD1110051+9999OD139901101999REMSYN05801011 46/// /3404 11128 21150 30049 40060 51005 333 91111=
0108010110999992015011301004+80067+031500FM-12+001099999V0200601N011019999999N999999999-01301-01441100551ADDMA1999999100441MD1790039+9999REMSYN04801011 46/// /0611 11130 21144 30044 40055 54002=EQDQ01.2    3APC3  
0089010110999992015011302004+80067+031500FM-12+001099999V0200501N011019999999N999999999-01191-01361100581ADDMA1999999100471MD1310061+9999REMSYN04801011 46/// /0511 11119 21136 30047 40058 53006=
0089010110999992015011303004+80067+031500FM-12+001099999V0200401N011019999999N999999999-01281-01471100621ADDMA1999999100511MD1990031+9999REMSYN04801011 46/// /0411 11128 21147 30051 40062 50003=
0089010110999992015011304004+80067+031500FM-12+001099999V0200401N013019999999N999999999-01371-01571100621ADDMA1999999100511MD1310071+9999REMSYN04801011 46/// /0413 11137 21157 30051 40062 53007=
0089010110999992015011305004+80067+031500FM-12+001099999V0200501N014019999999N999999999-01441-01641100621ADDMA1999999100511MD1310051+9999REMSYN04801011 46/// /0514 11144 21164 30051 40062 53005=
0132010110999992015011306004+80067+031500FM-12+001099999V0200501N013019999999N999999999-01531-01701100661ADDKA1240N-01551MA1999999100551MD1110041+9999OD139901501999REMSYN06401011 46/// /0513 11153 21170 30055 40066 51004 333 21155 91115=
0089010110999992015011307004+80067+031500FM-12+001099999V0200401N011019999999N999999999-01441-01651100711ADDMA1999999100601MD1110091+9999REMSYN04801011 46/// /0411 11144 21165 30060 40071 51009=
0089010110999992015011308004+80067+031500FM-12+001099999V0200501N010019999999N999999999-01341-01491100741ADDMA1999999100631MD1210121+9999REMSYN04801011 46/// /0510 11134 21149 30063 40074 52012=
0089010110999992015011309004+80067+031500FM-12+001099999V0202001N003019999999N999999999-01271-01471100851ADDMA1999999100741MD1110181+9999REMSYN04801011 46/// /2003 11127 21147 30074 40085 51018=
0089010110999992015011310004+80067+031500FM-12+001099999V0200501N010019999999N999999999-01311-01451100781ADDMA1999999100661MD1310071+9999REMSYN04801011 46/// /0510 11131 21145 30066 40078 53007=
0089010110999992015011311004+80067+031500FM-12+001099999V0200701N006019999999N999999999-01271-01451100861ADDMA1999999100751MD1210131+9999REMSYN04801011 46/// /0706 11127 21145 30075 40086 52013=
0113010110999992015011312004+80067+031500FM-12+001099999V0200501N006019999999N999999999-01301-01491100881ADDMA1999999100771MD1990031+9999OD139901501999REMSYN05801011 46/// /0506 11130 21149 30077 40088 50003 333 91115=
0089010110999992015011313004+80067+031500FM-12+001099999V0200501N009019999999N999999999-01381-01541100861ADDMA1999999100751MD1310081+9999REMSYN04801011 46/// /0509 11138 21154 30075 40086 53008=
0108010110999992015011314004+80067+031500FM-12+001099999V0200501N010019999999N999999999-01431-01611100851ADDMA1999999100741MD1790019+9999REMSYN04801011 46/// /0510 11143 21161 30074 40085 54002=EQDQ01.2    3APC3  
0089010110999992015011315004+80067+031500FM-12+001099999V0200601N010019999999N999999999-01461-01611100851ADDMA1999999100741MD1710031+9999REMSYN04801011 46/// /0610 11146 21161 30074 40085 57003=
0089010110999992015011316004+80067+031500FM-12+001099999V0200601N010019999999N999999999-01501-01671100891ADDMA1999999100781MD1990031+9999REMSYN04801011 46/// /0610 11150 21167 30078 40089 50003=
0089010110999992015011317004+80067+031500FM-12+001099999V0200701N009019999999N999999999-01521-01751100911ADDMA1999999100791MD1210061+9999REMSYN04801011 46/// /0709 11152 21175 30079 40091 52006=
0132010110999992015011318004+80067+031500FM-12+001099999V0200501N009019999999N999999999-01581-01781100901ADDKA1120M-01221MA1999999100791MD1310051+9999OD139901201999REMSYN06401011 46/// /0509 11158 21178 30079 40090 53005 333 11122 91112=
0089010110999992015011319004+80067+031500FM-12+001099999V0200601N009019999999N999999999-01541-01701100931ADDMA1999999100821MD1210041+9999REMSYN04801011 46/// /0609 11154 21170 30082 40093 52004=
0089010110999992015011320004+80067+031500FM-12+001099999V0201601N001019999999N999999999-01601-01761100981ADDMA1999999100871MD1110071+9999REMSYN04801011 46/// /1601 11160 21176 30087 40098 51007=
0089010110999992015011321004+80067+031500FM-12+001099999V0203601N004019999999N999999999-01621-02211101001ADDMA1999999100881MD1210101+9999REMSYN04801011 46/// /3604 11162 21221 30088 40100 52010=
0089010110999992015011322004+80067+031500FM-12+001099999V0201401N002019999999N999999999-01541-02251100971ADDMA1999999100861MD1310041+9999REMSYN04801011 46/// /1402 11154 21225 30086 40097 53004=
0108010110999992015011323004+80067+031500FM-12+001099999V0201301N002019999999N999999999-01561-02031100991ADDMA1999999100871MD1290019+9999REMSYN04801011 46/// /1302 11156 21203 30087 40099 54001=EQDQ01.1    3APC3  
0132010110999992015011400004+80067+031500FM-12+001099999V0200601N007019999999N999999999-01481-01971100971ADDMA1999999100861MD1790039+9999OD139901001999REMSYN05801011 46/// /0607 11148 21197 30086 40097 54002 333 91110=EQDQ01.2    3APC3  
0108010110999992015011401004+80067+031500FM-12+001099999V0200101N004019999999N999999999-01451-01981101001ADDMA1999999100881MD1290039+9999REMSYN04801011 46/// /0104 11145 21198 30088 40100 54002=EQDQ01.2    3APC3  
0108010110999992015011402004+80067+031500FM-12+001099999V0203201N002019999999N999999999-01561-02021101001ADDMA1999999100891MD1290019+9999REMSYN04801011 46/// /3202 11156 21202 30089 40100 54001=EQDQ01.1    3APC3  
0089010110999992015011403004+80067+031500FM-12+001099999V0200601N010019999999N999999999-01701-02001100921ADDMA1999999100811MD1610051+9999REMSYN04801011 46/// /0610 11170 21200 30081 40092 56005=
0089010110999992015011404004+80067+031500FM-12+001099999V0200601N011019999999N999999999-01721-02021100891ADDMA1999999100781MD1610101+9999REMSYN04801011 46/// /0611 11172 21202 30078 40089 56010=
0089010110999992015011405004+80067+031500FM-12+001099999V0200601N010019999999N999999999-01701-02051100941ADDMA1999999100821MD1810061+9999REMSYN04801011 46/// /0610 11170 21205 30082 40094 58006=
0132010110999992015011406004+80067+031500FM-12+001099999V0200601N007019999999N999999999-01731-02081100981ADDKA1240N-01761MA1999999100861MD1110051+9999OD139901301999REMSYN06401011 46/// /0607 11173 21208 30086 40098 51005 333 21176 91113=
0089010110999992015011407004+80067+031500FM-12+001099999V0200601N008019999999N999999999-01761-02061101001ADDMA1999999100881MD1210101+9999REMSYN04801011 46/// /0608 11176 21206 30088 40100 52010=
0089010110999992015011408004+80067+031500FM-12+001099999V0200601N006019999999N999999999-01771-02111101021ADDMA1999999100911MD1210091+9999REMSYN04801011 46/// /0606 11177 21211 30091 40102 52009=
0089010110999992015011409004+80067+031500FM-12+001099999V0200601N009019999999N999999999-01781-02121101001ADDMA1999999100881MD1510021+9999REMSYN04801011 46/// /0609 11178 21212 30088 40100 55002=
0108010110999992015011410004+80067+031500FM-12+001099999V0200601N008019999999N999999999-01771-02141101011ADDMA1999999100901MD1290019+9999REMSYN04801011 46/// /0608 11177 21214 30090 40101 54001=EQDQ01.1    3APC3  
0089010110999992015011411004+80067+031500FM-12+001099999V0200501N009019999999N999999999-01781-02181101031ADDMA1999999100921MD1990011+9999REMSYN04801011 46/// /0509 11178 21218 30092 40103 50001=
0132010110999992015011412004+80067+031500FM-12+001099999V0200601N009019999999N999999999-01761-02161101021ADDMA1999999100901MD1290029+9999OD139900901999REMSYN05801011 46/// /0609 11176 21216 30090 40102 54002 333 91109=EQDQ01.2    3APC3  
0089010110999992015011413004+80067+031500FM-12+001099999V0200601N010019999999N999999999-01801-02171101011ADDMA1999999100891MD1410001+9999REMSYN04801011 46/// /0610 11180 21217 30089 40101 54000=
0108010110999992015011415004+80067+031500FM-12+001099999V0200501N009019999999N999999999-01771-02141100991ADDMA1999999100881MD1790039+9999REMSYN04801011 46/// /0509 11177 21214 30088 40099 54002=EQDQ01.2    3APC3  
0089010110999992015011416004+80067+031500FM-12+001099999V0203601N001019999999N999999999-01711-02071101021ADDMA1999999100901MD1990011+9999REMSYN04801011 46/// /3601 11171 21207 30090 40102 50001=
0094010110999992015011417004+80067+031500FM-12+001099999V0209999C999999999999N999999999-01791-02091101011ADDMA1999999100901REMSYN04801011 46/// /0000 11179 21209 30090 40101 54001=EQDQ014     3APCTEN
0108010110999992015011418004+80067+031500FM-12+001099999V0200501N001019999999N999999999-01811-02141101011ADDMA1999999100901MD1290029+9999REMSYN04801011 46/// /0501 11181 21214 30090 40101 54002=EQDQ01.2    3APC3  
0089010110999992015011419004+80067+031500FM-12+001099999V0201001N001019999999N999999999-01861-02081101021ADDMA1999999100911MD1410001+9999REMSYN04801011 46/// /1001 11186 21208 30091 40102 54000=
0108010110999992015011420004+80067+031500FM-12+001099999V0209999C999999999999N999999999-02071-02271101021ADDMA1999999100911MD1290019+9999REMSYN04801011 46/// /0000 11207 21227 30091 40102 54001=EQDQ01.1    3APC3  
0089010110999992015011421004+80067+031500FM-12+001099999V0200601N001019999999N999999999-01911-02191101011ADDMA1999999100891MD1410001+9999REMSYN04801011 46/// /0601 11191 21219 30089 40101 54000=
0108010110999992015011422004+80067+031500FM-12+001099999V0209999C999999999999N999999999-02011-02231101001ADDMA1999999100881MD1790029+9999REMSYN04801011 46/// /0000 11201 21223 30088 40100 54003=EQDQ01.3    3APC3  
0089010110999992015011423004+80067+031500FM-12+001099999V0200301N001019999999N999999999-01911-02211100981ADDMA1999999100861MD1710051+9999REMSYN04801011 46/// /0301 11191 21221 30086 40098 57005=
0113010110999992015011500004+80067+031500FM-12+001099999V0200701N001019999999N999999999-01941-02181100971ADDMA1999999100861MD1710041+9999OD139900301999REMSYN05801011 46/// /0701 11194 21218 30086 40097 57004 333 91103=
0108010110999992015011501004+80067+031500FM-12+001099999V0209999C999999999999N999999999-02031-02331100971ADDMA1999999100851MD1790039+9999REMSYN04801011 46/// /0000 11203 21233 30085 40097 54003=EQDQ01.3    3APC3  
0089010110999992015011502004+80067+031500FM-12+001099999V0203001N002019999999N999999999-01971-02241100941ADDMA1999999100831MD1710031+9999REMSYN04801011 46/// /3002 11197 21224 30083 40094 57003=
0089010110999992015011503004+80067+031500FM-12+001099999V0203201N001019999999N999999999-02021-02211100931ADDMA1999999100811MD1710041+9999REMSYN04801011 46/// /3201 11202 21221 30081 40093 57004=
0089010110999992015011504004+80067+031500FM-12+001099999V0203601N002019999999N999999999-01971-02231100941ADDMA1999999100831MD1990021+9999REMSYN04801011 46/// /3602 11197 21223 30083 40094 50002=
0089010110999992015011505004+80067+031500FM-12+001099999V0203001N001019999999N999999999-01941-02121100911ADDMA1999999100801MD1710031+9999REMSYN04801011 46/// /3001 11194 21212 30080 40091 57003=
0151010110999992015011506004+80067+031500FM-12+001099999V0203001N002019999999N999999999-02101-02211100911ADDKA1240N-02161MA1999999100801MD1790029+9999OD139900601999REMSYN06401011 46/// /3002 11210 21221 30080 40091 54002 333 21216 91106=EQDQ01.2    3APC3  
0089010110999992015011507004+80067+031500FM-12+001099999V0202001N001019999999N999999999-02191-02331100941ADDMA1999999100821MD1990001+9999REMSYN04801011 46/// /2001 11219 21233 30082 40094 50000=
0108010110999992015011508004+80067+031500FM-12+001099999V0203201N001019999999N999999999-01961-02141100941ADDMA1999999100821MD1290039+9999REMSYN04801011 46/// /3201 11196 21214 30082 40094 54003=EQDQ01.3    3APC3  
0089010110999992015011509004+80067+031500FM-12+001099999V0203201N002019999999N999999999-01921-02041100991ADDMA1999999100871MD1210081+9999REMSYN04801011 46/// /3202 11192 21204 30087 40099 52008=
0089010110999992015011510004+80067+031500FM-12+001099999V0209999C999999999999N999999999-01981-02141101001ADDMA1999999100891MD1210071+9999REMSYN04801011 46/// /0000 11198 21214 30089 40100 52007=
0089010110999992015011511004+80067+031500FM-12+001099999V0209999C999999999999N999999999-01971-02151101031ADDMA1999999100911MD1210091+9999REMSYN04801011 46/// /0000 11197 21215 30091 40103 52009=
0113010110999992015011512004+80067+031500FM-12+001099999V0201301N001019999999N999999999-01911-02081101061ADDMA1999999100941MD1210071+9999OD139900301999REMSYN05801011 46/// /1301 11191 21208 30094 40106 52007 333 91103=
0089010110999992015011513004+80067+031500FM-12+001099999V0200701N001019999999N999999999-01891-02071101081ADDMA1999999100971MD1210081+9999REMSYN04801011 46/// /0701 11189 21207 30097 40108 52008=
0089010110999992015011514004+80067+031500FM-12+001099999V0203201N001019999999N999999999-01741-01911101071ADDMA1999999100961MD1310041+9999REMSYN04801011 46/// /3201 11174 21191 30096 40107 53004=
0108010110999992015011515004+80067+031500FM-12+001099999V0203601N001019999999N999999999-01771-01931101081ADDMA1999999100971MD1290029+9999REMSYN04801011 46/// /3601 11177 21193 30097 40108 54003=EQDQ01.3    3APC3  
0089010110999992015011516004+80067+031500FM-12+001099999V0203501N002019999999N999999999-01651-01811101081ADDMA1999999100961MD1410001+9999REMSYN04801011 46/// /3502 11165 21181 30096 40108 54000=
0108010110999992015011517004+80067+031500FM-12+001099999V0203601N002019999999N999999999-01611-01771101081ADDMA1999999100971MD1290019+9999REMSYN04801011 46/// /3602 11161 21177 30097 40108 54001=EQDQ01.1    3APC3  
0132010110999992015011518004+80067+031500FM-12+001099999V0209999C999999999999N999999999-01661-01831101111ADDKA1120M-01591MA1999999101001MD1110031+9999OD139900301999REMSYN06401011 46/// /0000 11166 21183 30100 40111 51003 333 11159 91103=
0089010110999992015011519004+80067+031500FM-12+001099999V0200201N005019999999N999999999-01581-01791101131ADDMA1999999101011MD1210051+9999REMSYN04801011 46/// /0205 11158 21179 30101 40113 52005=
0089010110999992015011520004+80067+031500FM-12+001099999V0201301N002019999999N999999999-01721-01931101161ADDMA1999999101051MD1210081+9999REMSYN04801011 46/// /1302 11172 21193 30105 40116 52008=
0089010110999992015011521004+80067+031500FM-12+001099999V0201201N002019999999N999999999-01701-01881101161ADDMA1999999101051MD1210051+9999REMSYN04801011 46/// /1202 11170 21188 30105 40116 52005=
0089010110999992015011522004+80067+031500FM-12+001099999V0200501N004019999999N999999999-01661-01921101201ADDMA1999999101081MD1210071+9999REMSYN04801011 46/// /0504 11166 21192 30108 40120 52007=
0089010110999992015011523004+80067+031500FM-12+001099999V0200401N005019999999N999999999-01671-01961101231ADDMA1999999101121MD1110071+9999REMSYN04801011 46/// /0405 11167 21196 30112 40123 51007=
0113010110999992015011600004+80067+031500FM-12+001099999V0200501N005019999999N999999999-01641-01971101251ADDMA1999999101131MD1210081+9999OD139900601999REMSYN05801011 46/// /0505 11164 21197 30113 40125 52008 333 91106=
0089010110999992015011601004+80067+031500FM-12+001099999V0200401N002019999999N999999999-01611-01991101251ADDMA1999999101141MD1210061+9999REMSYN04801011 46/// /0402 11161 21199 30114 40125 52006=
0089010110999992015011602004+80067+031500FM-12+001099999V0203101N003019999999N999999999-01721-02041101271ADDMA1999999101161MD1210041+9999REMSYN04801011 46/// /3103 11172 21204 30116 40127 52004=
0108010110999992015011603004+80067+031500FM-12+001099999V0200101N007019999999N999999999-01901-02171101271ADDMA1999999101151MD1290029+9999REMSYN04801011 46/// /0107 11190 21217 30115 40127 54002=EQDQ01.2    3APC3  
0089010110999992015011604004+80067+031500FM-12+001099999V0200101N005019999999N999999999-02081-02401101291ADDMA1999999101181MD1210041+9999REMSYN04801011 46/// /0105 11208 21240 30118 40129 52004=
0089010110999992015011605004+80067+031500FM-12+001099999V0200301N005019999999N999999999-01961-02231101311ADDMA1999999101191MD1210031+9999REMSYN04801011 46/// /0305 11196 21223 30119 40131 52003=
0132010110999992015011606004+80067+031500FM-12+001099999V0200301N006019999999N999999999-01981-02321101311ADDKA1240N-02091MA1999999101191MD1210041+9999OD139901101999REMSYN06401011 46/// /0306 11198 21232 30119 40131 52004 333 21209 91111=
0089010110999992015011607004+80067+031500FM-12+001099999V0200301N004019999999N999999999-02091-02431101341ADDMA1999999101221MD1210051+9999REMSYN04801011 46/// /0304 11209 21243 30122 40134 52005=
0089010110999992015011608004+80067+031500FM-12+001099999V0200201N004019999999N999999999-02111-02391101381ADDMA1999999101261MD1110071+9999REMSYN04801011 46/// /0204 11211 21239 30126 40138 51007=
0089010110999992015011609004+80067+031500FM-12+001099999V0200501N006019999999N999999999-02141-02461101381ADDMA1999999101261MD1310071+9999REMSYN04801011 46/// /0506 11214 21246 30126 40138 53007=
0089010110999992015011610004+80067+031500FM-12+001099999V0200301N007019999999N999999999-02191-02521101391ADDMA1999999101271MD1310051+9999REMSYN04801011 46/// /0307 11219 21252 30127 40139 53005=
0108010110999992015011611004+80067+031500FM-12+001099999V0200201N008019999999N999999999-02341-02621101371ADDMA1999999101251MD1790019+9999REMSYN04801011 46/// /0208 11234 21262 30125 40137 54001=EQDQ01.1    3APC3  
0132010110999992015011612004+80067+031500FM-12+001099999V0200301N008019999999N999999999-02361-02731101371ADDMA1999999101251MD1790019+9999OD139901001999REMSYN05801011 46/// /0308 11236 21273 30125 40137 54001 333 91110=EQDQ01.1    3APC3  
0108010110999992015011613004+80067+031500FM-12+001099999V0202301N003019999999N999999999-02181-02631101371ADDMA1999999101251MD1790029+9999REMSYN04801011 46/// /2303 11218 21263 30125 40137 54002=EQDQ01.2    3APC3  
0108010110999992015011614004+80067+031500FM-12+001099999V0203101N002019999999N999999999-02411-02761101391ADDMA1999999101271MD1290029+9999REMSYN04801011 46/// /3102 11241 21276 30127 40139 54002=EQDQ01.2    3APC3  
0089010110999992015011615004+80067+031500FM-12+001099999V0203601N003019999999N999999999-02401-02751101421ADDMA1999999101301MD1210051+9999REMSYN04801011 46/// /3603 11240 21275 30130 40142 52005=
0089010110999992015011616004+80067+031500FM-12+001099999V0203601N008019999999N999999999-02461-02801101381ADDMA1999999101261MD1510011+9999REMSYN04801011 46/// /3608 11246 21280 30126 40138 55001=
0108010110999992015011617004+80067+031500FM-12+001099999V0200101N003019999999N999999999-02551-02911101401ADDMA1999999101281MD1290019+9999REMSYN04801011 46/// /0103 11255 21291 30128 40140 54001=EQDQ01.1    3APC3  
0132010110999992015011618004+80067+031500FM-12+001099999V0200301N007019999999N999999999-02561-02911101391ADDKA1120M-01981MA1999999101271MD1990021+9999OD139901001999REMSYN06401011 46/// /0307 11256 21291 30127 40139 50002 333 11198 91110=
0089010110999992015011619004+80067+031500FM-12+001099999V0200201N007019999999N999999999-02551-02961101371ADDMA1999999101251MD1510011+9999REMSYN04801011 46/// /0207 11255 21296 30125 40137 55001=
0108010110999992015011620004+80067+031500FM-12+001099999V0203301N007019999999N999999999-02561-02921101381ADDMA1999999101261MD1790029+9999REMSYN04801011 46/// /3307 11256 21292 30126 40138 54002=EQDQ01.2    3APC3  
0089010110999992015011621004+80067+031500FM-12+001099999V0201001N002019999999N999999999-02441-02931101451ADDMA1999999101331MD1110061+9999REMSYN04801011 46/// /1002 11244 21293 30133 40145 51006=
0089010110999992015011622004+80067+031500FM-12+001099999V0200201N002019999999N999999999-02441-02901101441ADDMA1999999101321MD1210071+9999REMSYN04801011 46/// /0202 11244 21290 30132 40144 52007=
0089010110999992015011623004+80067+031500FM-12+001099999V0203101N004019999999N999999999-02461-02871101411ADDMA1999999101291MD1310031+9999REMSYN04801011 46/// /3104 11246 21287 30129 40141 53003=
0113010110999992015011700004+80067+031500FM-12+001099999V0200301N004019999999N999999999-02281-02811101411ADDMA1999999101291MD1710041+9999OD139901101999REMSYN05801011 46/// /0304 11228 21281 30129 40141 57004 333 91111=
0089010110999992015011701004+80067+031500FM-12+001099999V0200201N007019999999N999999999-02591-02871101451ADDMA1999999101331MD1990011+9999REMSYN04801011 46/// /0207 11259 21287 30133 40145 50001=
0108010110999992015011702004+80067+031500FM-12+001099999V0203601N004019999999N999999999-02631-02891101421ADDMA1999999101301MD1290019+9999REMSYN04801011 46/// /3604 11263 21289 30130 40142 54001=EQDQ01.1    3APC3  
0089010110999992015011703004+80067+031500FM-12+001099999V0203501N006019999999N999999999-02561-02821101391ADDMA1999999101271MD1510021+9999REMSYN04801011 46/// /3506 11256 21282 30127 40139 55002=
0089010110999992015011704004+80067+031500FM-12+001099999V0203501N009019999999N999999999-02551-02831101361ADDMA1999999101241MD1710091+9999REMSYN04801011 46/// /3509 11255 21283 30124 40136 57009=
0089010110999992015011705004+80067+031500FM-12+001099999V0203501N009019999999N999999999-02561-02841101341ADDMA1999999101221MD1710081+9999REMSYN04801011 46/// /3509 11256 21284 30122 40134 57008=
0132010110999992015011706004+80067+031500FM-12+001099999V0203501N009019999999N999999999-02591-02891101371ADDKA1240N-02701MA1999999101251MD1990021+9999OD139901001999REMSYN06401011 46/// /3509 11259 21289 30125 40137 50002 333 21270 91110=
0089010110999992015011707004+80067+031500FM-12+001099999V0203601N008019999999N999999999-02631-02911101391ADDMA1999999101271MD1110031+9999REMSYN04801011 46/// /3608 11263 21291 30127 40139 51003=
0089010110999992015011708004+80067+031500FM-12+001099999V0203501N006019999999N999999999-02641-02921101431ADDMA1999999101311MD1210091+9999REMSYN04801011 46/// /3506 11264 21292 30131 40143 52009=
0089010110999992015011709004+80067+031500FM-12+001099999V0203501N005019999999N999999999-02641-02911101421ADDMA1999999101301MD1310061+9999REMSYN04801011 46/// /3505 11264 21291 30130 40142 53006=
0089010110999992015011710004+80067+031500FM-12+001099999V0203501N005019999999N999999999-02661-02931101461ADDMA1999999101341MD1210061+9999REMSYN04801011 46/// /3505 11266 21293 30134 40146 52006=
0089010110999992015011711004+80067+031500FM-12+001099999V0203601N007019999999N999999999-02681-02971101471ADDMA1999999101351MD1210041+9999REMSYN04801011 46/// /3607 11268 21297 30135 40147 52004=
0113010110999992015011712004+80067+031500FM-12+001099999V0203501N008019999999N999999999-02621-02901101461ADDMA1999999101341MD1310041+9999OD139900901999REMSYN05801011 46/// /3508 11262 21290 30134 40146 53004 333 91109=
0089010110999992015011713004+80067+031500FM-12+001099999V0203601N007019999999N999999999-02641-02911101501ADDMA1999999101381MD1210041+9999REMSYN04801011 46/// /3607 11264 21291 30138 40150 52004=
0089010110999992015011714004+80067+031500FM-12+001099999V0203601N005019999999N999999999-02631-02871101521ADDMA1999999101411MD1110051+9999REMSYN04801011 46/// /3605 11263 21287 30141 40152 51005=
0089010110999992015011715004+80067+031500FM-12+001099999V0200101N005019999999N999999999-02721-02961101531ADDMA1999999101411MD1210071+9999REMSYN04801011 46/// /0105 11272 21296 30141 40153 52007=
0089010110999992015011716004+80067+031500FM-12+001099999V0200101N005019999999N999999999-02671-02911101551ADDMA1999999101431MD1210051+9999REMSYN04801011 46/// /0105 11267 21291 30143 40155 52005=
0089010110999992015011717004+80067+031500FM-12+001099999V0203601N003019999999N999999999-02631-02911101561ADDMA1999999101441MD1210031+9999REMSYN04801011 46/// /3603 11263 21291 30144 40156 52003=
0151010110999992015011718004+80067+031500FM-12+001099999V0203601N003019999999N999999999-02551-02861101561ADDKA1120M-02551MA1999999101441MD1290039+9999OD139900901999REMSYN06401011 46/// /3603 11255 21286 30144 40156 54003 333 11255 91109=EQDQ01.3    3APC3  
0089010110999992015011719004+80067+031500FM-12+001099999V0203501N002019999999N999999999-02501-02851101561ADDMA1999999101441MD1410001+9999REMSYN04801011 46/// /3502 11250 21285 30144 40156 54000=
0089010110999992015011720004+80067+031500FM-12+001099999V0200101N003019999999N999999999-02451-02701101591ADDMA1999999101471MD1210031+9999REMSYN04801011 46/// /0103 11245 21270 30147 40159 52003=
0089010110999992015011721004+80067+031500FM-12+001099999V0203401N003019999999N999999999-02441-02711101601ADDMA1999999101491MD1210051+9999REMSYN04801011 46/// /3403 11244 21271 30149 40160 52005=
0089010110999992015011722004+80067+031500FM-12+001099999V0203101N001019999999N999999999-02431-02651101601ADDMA1999999101481MD1310041+9999REMSYN04801011 46/// /3101 11243 21265 30148 40160 53004=
0089010110999992015011723004+80067+031500FM-12+001099999V0200201N001019999999N999999999-02381-02571101561ADDMA1999999101441MD1510021+9999REMSYN04801011 46/// /0201 11238 21257 30144 40156 55002=
0113010110999992015011800004+80067+031500FM-12+001099999V0200901N002019999999N999999999-02311-02551101531ADDMA1999999101411MD1710071+9999OD139900401999REMSYN05801011 46/// /0902 11231 21255 30141 40153 57007 333 91104=
0089010110999992015011801004+80067+031500FM-12+001099999V0201201N003019999999N999999999-02251-02451101481ADDMA1999999101361MD1710121+9999REMSYN04801011 46/// /1203 11225 21245 30136 40148 57012=
0089010110999992015011802004+80067+031500FM-12+001099999V0201401N004019999999N999999999-02281-02511101441ADDMA1999999101321MD1710121+9999REMSYN04801011 46/// /1404 11228 21251 30132 40144 57012=
0089010110999992015011803004+80067+031500FM-12+001099999V0201201N005019999999N999999999-02121-02341101401ADDMA1999999101281MD1710131+9999REMSYN04801011 46/// /1205 11212 21234 30128 40140 57013=
0089010110999992015011804004+80067+031500FM-12+001099999V0201101N005019999999N999999999-01701-02021101291ADDMA1999999101171MD1610191+9999REMSYN04801011 46/// /1105 11170 21202 30117 40129 56019=
0089010110999992015011805004+80067+031500FM-12+001099999V0201401N006019999999N999999999-01991-02231101291ADDMA1999999101171MD1810151+9999REMSYN04801011 46/// /1406 11199 21223 30117 40129 58015=
0132010110999992015011806004+80067+031500FM-12+001099999V0201401N007019999999N999999999-02131-02361101241ADDKA1240N-02561MA1999999101131MD1810151+9999OD139900801999REMSYN06401011 46/// /1407 11213 21236 30113 40124 58015 333 21256 91108=
0089010110999992015011807004+80067+031500FM-12+001099999V0201401N005019999999N999999999-01951-02171101181ADDMA1999999101061MD1610111+9999REMSYN04801011 46/// /1405 11195 21217 30106 40118 56011=
0089010110999992015011808004+80067+031500FM-12+001099999V0201401N004019999999N999999999-01951-02161101151ADDMA1999999101031MD1710141+9999REMSYN04801011 46/// /1404 11195 21216 30103 40115 57014=
0089010110999992015011809004+80067+031500FM-12+001099999V0201301N008019999999N999999999-02061-02251101121ADDMA1999999101011MD1810121+9999REMSYN04801011 46/// /1308 11206 21225 30101 40112 58012=
0089010110999992015011810004+80067+031500FM-12+001099999V0201101N006019999999N999999999-01771-01921101081ADDMA1999999100961MD1710101+9999REMSYN04801011 46/// /1106 11177 21192 30096 40108 57010=
0089010110999992015011811004+80067+031500FM-12+001099999V0201201N003019999999N999999999-01731-01931101041ADDMA1999999100931MD1710101+9999REMSYN04801011 46/// /1203 11173 21193 30093 40104 57010=
0113010110999992015011812004+80067+031500FM-12+001099999V0201301N004019999999N999999999-01861-02051100971ADDMA1999999100861MD1710151+9999OD139900901999REMSYN05801011 46/// /1304 11186 21205 30086 40097 57015 333 91109=
0089010110999992015011813004+80067+031500FM-12+001099999V0201401N003019999999N999999999-01841-02041100911ADDMA1999999100791MD1610171+9999REMSYN04801011 46/// /1403 11184 21204 30079 40091 56017=
0089010110999992015011814004+80067+031500FM-12+001099999V0201201N003019999999N999999999-01851-02021100881ADDMA1999999100761MD1810171+9999REMSYN04801011 46/// /1203 11185 21202 30076 40088 58017=
0089010110999992015011815004+80067+031500FM-12+001099999V0201101N003019999999N999999999-01941-02151100841ADDMA1999999100731MD1710131+9999REMSYN04801011 46/// /1103 11194 21215 30073 40084 57013=
0089010110999992015011816004+80067+031500FM-12+001099999V0202701N004019999999N999999999-01711-01851100821ADDMA1999999100701MD1710091+9999REMSYN04801011 46/// /2704 11171 21185 30070 40082 57009=
0089010110999992015011817004+80067+031500FM-12+001099999V0202801N004019999999N999999999-01801-02001100781ADDMA1999999100671MD1710101+9999REMSYN04801011 46/// /2804 11180 21200 30067 40078 57010=
0132010110999992015011818004+80067+031500FM-12+001099999V0203301N004019999999N999999999-01811-01961100761ADDKA1120M-01541MA1999999100651MD1710071+9999OD139900601999REMSYN06401011 46/// /3304 11181 21196 30065 40076 57007 333 11154 91106=
0089010110999992015011819004+80067+031500FM-12+001099999V0203101N007019999999N999999999-01831-02001100781ADDMA1999999100661MD1810041+9999REMSYN04801011 46/// /3107 11183 21200 30066 40078 58004=
0089010110999992015011820004+80067+031500FM-12+001099999V0203501N006019999999N999999999-01981-02171100811ADDMA1999999100701MD1110031+9999REMSYN04801011 46/// /3506 11198 21217 30070 40081 51003=
0089010110999992015011821004+80067+031500FM-12+001099999V0200101N009019999999N999999999-02111-02341100911ADDMA1999999100791MD1110141+9999REMSYN04801011 46/// /0109 11211 21234 30079 40091 51014=
0089010110999992015011822004+80067+031500FM-12+001099999V0200201N009019999999N999999999-02201-02451101021ADDMA1999999100901MD1110241+9999REMSYN04801011 46/// /0209 11220 21245 30090 40102 51024=
0089010110999992015011823004+80067+031500FM-12+001099999V0203501N009019999999N999999999-02281-02521101081ADDMA1999999100971MD1210271+9999REMSYN04801011 46/// /3509 11228 21252 30097 40108 52027=
0113010110999992015011900004+80067+031500FM-12+001099999V0203501N008019999999N999999999-02361-02611101161ADDMA1999999101041MD1310251+9999OD139901101999REMSYN05801011 46/// /3508 11236 21261 30104 40116 53025 333 91111=
0089010110999992015011901004+80067+031500FM-12+001099999V0203601N007019999999N999999999-02461-02761101251ADDMA1999999101131MD1210231+9999REMSYN04801011 46/// /3607 11246 21276 30113 40125 52023=
0089010110999992015011902004+80067+031500FM-12+001099999V0203601N006019999999N999999999-02441-02741101231ADDMA1999999101111MD1310151+9999REMSYN04801011 46/// /3606 11244 21274 30111 40123 53015=
0089010110999992015011903004+80067+031500FM-12+001099999V0203301N005019999999N999999999-02491-02861101341ADDMA1999999101231MD1210191+9999REMSYN04801011 46/// /3305 11249 21286 30123 40134 52019=
0089010110999992015011904004+80067+031500FM-12+001099999V0203201N003019999999N999999999-02481-02851101361ADDMA1999999101241MD1110111+9999REMSYN04801011 46/// /3203 11248 21285 30124 40136 51011=
0089010110999992015011905004+80067+031500FM-12+001099999V0203401N003019999999N999999999-02371-02801101271ADDMA1999999101151MD1310041+9999REMSYN04801011 46/// /3403 11237 21280 30115 40127 53004=
0132010110999992015011906004+80067+031500FM-12+001099999V0203501N002019999999N999999999-02331-02631101331ADDKA1240N-02651MA1999999101211MD1990021+9999OD139900801999REMSYN06401011 46/// /3502 11233 21263 30121 40133 50002 333 21265 91108=
0089010110999992015011907004+80067+031500FM-12+001099999V0201101N003019999999N999999999-02311-02821101251ADDMA1999999101141MD1710101+9999REMSYN04801011 46/// /1103 11231 21282 30114 40125 57010=
0089010110999992015011908004+80067+031500FM-12+001099999V0201001N006019999999N999999999-02161-02671101141ADDMA1999999101021MD1510131+9999REMSYN04801011 46/// /1006 11216 21267 30102 40114 55013=
0089010110999992015011909004+80067+031500FM-12+001099999V0201001N009019999999N999999999-02471-02691101151ADDMA1999999101041MD1810171+9999REMSYN04801011 46/// /1009 11247 21269 30104 40115 58017=
0089010110999992015011910004+80067+031500FM-12+001099999V0201001N010019999999N999999999-02461-02681101031ADDMA1999999100921MD1710221+9999REMSYN04801011 46/// /1010 11246 21268 30092 40103 57022=
0089010110999992015011911004+80067+031500FM-12+001099999V0201001N011019999999N999999999-02421-02661100951ADDMA1999999100831MD1610191+9999REMSYN04801011 46/// /1011 11242 21266 30083 40095 56019=
0113010110999992015011912004+80067+031500FM-12+001099999V0201201N012019999999N999999999-02261-02471100831ADDMA1999999100711MD1710321+9999OD139901301999REMSYN05801011 46/// /1212 11226 21247 30071 40083 57032 333 91113=
0089010110999992015011913004+80067+031500FM-12+001099999V0201101N012019999999N999999999-02111-02311100671ADDMA1999999100561MD1610361+9999REMSYN04801011 46/// /1112 11211 21231 30056 40067 56036=
0089010110999992015011914004+80067+031500FM-12+001099999V0201101N013019999999N999999999-01971-02181100531ADDMA1999999100421MD1710421+9999REMSYN04801011 46/// /1113 11197 21218 30042 40053 57042=
0089010110999992015011915004+80067+031500FM-12+001099999V0201101N013019999999N999999999-01951-02171100421ADDMA1999999100311MD1810401+9999REMSYN04801011 46/// /1113 11195 21217 30031 40042 58040=
0089010110999992015011916004+80067+031500FM-12+001099999V0201101N013019999999N999999999-01861-02081100351ADDMA1999999100241MD1810321+9999REMSYN04801011 46/// /1113 11186 21208 30024 40035 58032=
0089010110999992015011917004+80067+031500FM-12+001099999V0201101N013019999999N999999999-01811-02021100261ADDMA1999999100151MD1710271+9999REMSYN04801011 46/// /1113 11181 21202 30015 40026 57027=
0132010110999992015011918004+80067+031500FM-12+001099999V0201001N014019999999N999999999-01691-01891100111ADDKA1120M-01681MA1999999100001MD1610311+9999OD139901801999REMSYN06401011 46/// /1014 11169 21189 30000 40011 56031 333 11168 91118=
0089010110999992015011919004+80067+031500FM-12+001099999V0201001N012019999999N999999999-01631-01831100071ADDMA1999999099961MD1810281+9999REMSYN04801011 46/// /1012 11163 21183 39996 40007 58028=
0089010110999992015011920004+80067+031500FM-12+001099999V0201001N012019999999N999999999-01561-01731100061ADDMA1999999099941MD1810211+9999REMSYN04801011 46/// /1012 11156 21173 39994 40006 58021=
0089010110999992015011921004+80067+031500FM-12+001099999V0200901N013019999999N999999999-01681-01881100071ADDMA1999999099951MD1810041+9999REMSYN04801011 46/// /0913 11168 21188 39995 40007 58004=
0089010110999992015011922004+80067+031500FM-12+001099999V0200701N014019999999N999999999-01711-01911100061ADDMA1999999099951MD1410001+9999REMSYN04801011 46/// /0714 11171 21191 39995 40006 54000=
0089010110999992015011923004+80067+031500FM-12+001099999V0200701N014019999999N999999999-01721-01921100011ADDMA1999999099901MD1610051+9999REMSYN04801011 46/// /0714 11172 21192 39990 40001 56005=
0113010110999992015012000004+80067+031500FM-12+001099999V0200701N012019999999N999999999-01651-01851100121ADDMA1999999100011MD1110061+9999OD139901601999REMSYN05801011 46/// /0712 11165 21185 30001 40012 51006 333 91116=
0089010110999992015012001004+80067+031500FM-12+001099999V0200701N012019999999N999999999-01581-01751100061ADDMA1999999099951MD1410001+9999REMSYN04801011 46/// /0712 11158 21175 39995 40006 54000=
0089010110999992015012002004+80067+031500FM-12+001099999V0200701N010019999999N999999999-01531-01721100111ADDMA1999999100001MD1310101+9999REMSYN04801011 46/// /0710 11153 21172 30000 40011 53010=
0089010110999992015012003004+80067+031500FM-12+001099999V0200701N004019999999N999999999-01351-01541100211ADDMA1999999100101MD1990091+9999REMSYN04801011 46/// /0704 11135 21154 30010 40021 50009=
0089010110999992015012004004+80067+031500FM-12+001099999V0200501N006019999999N999999999-01341-01531100221ADDMA1999999100111MD1310151+9999REMSYN04801011 46/// /0506 11134 21153 30011 40022 53015=
0089010110999992015012005004+80067+031500FM-12+001099999V0200401N004019999999N999999999-01311-01511100251ADDMA1999999100141MD1310151+9999REMSYN04801011 46/// /0404 11131 21151 30014 40025 53015=
0132010110999992015012006004+80067+031500FM-12+001099999V0200301N001019999999N999999999-01301-01451100321ADDKA1240N-01741MA1999999100211MD1110111+9999OD139901401999REMSYN06401011 46/// /0301 11130 21145 30021 40032 51011 333 21174 91114=
0089010110999992015012007004+80067+031500FM-12+001099999V0203001N002019999999N999999999-01381-01531100461ADDMA1999999100351MD1110251+9999REMSYN04801011 46/// /3002 11138 21153 30035 40046 51025=
0089010110999992015012008004+80067+031500FM-12+001099999V0203101N004019999999N999999999-01381-01561100521ADDMA1999999100411MD1210271+9999REMSYN04801011 46/// /3104 11138 21156 30041 40052 52027=
0089010110999992015012009004+80067+031500FM-12+001099999V0200901N001019999999N999999999-01491-01641100601ADDMA1999999100481MD1310271+9999REMSYN04801011 46/// /0901 11149 21164 30048 40060 53027=
0089010110999992015012010004+80067+031500FM-12+001099999V0200401N003019999999N999999999-01471-01681100751ADDMA1999999100641MD1110281+9999REMSYN04801011 46/// /0403 11147 21168 30064 40075 51028=
0089010110999992015012011004+80067+031500FM-12+001099999V0209999C999999999999N999999999-01581-01751100851ADDMA1999999100731MD1210321+9999REMSYN04801011 46/// /0000 11158 21175 30073 40085 52032=
0113010110999992015012012004+80067+031500FM-12+001099999V0200601N004019999999N999999999-01591-01811100921ADDMA1999999100811MD1310321+9999OD139900801999REMSYN05801011 46/// /0604 11159 21181 30081 40092 53032 333 91108=
0089010110999992015012013004+80067+031500FM-12+001099999V0200401N004019999999N999999999-01521-01731101051ADDMA1999999100941MD1110301+9999REMSYN04801011 46/// /0404 11152 21173 30094 40105 51030=
0089010110999992015012014004+80067+031500FM-12+001099999V0200501N009019999999N999999999-01721-01941101151ADDMA1999999101041MD1110311+9999REMSYN04801011 46/// /0509 11172 21194 30104 40115 51031=
0089010110999992015012015004+80067+031500FM-12+001099999V0200501N011019999999N999999999-01761-01981101271ADDMA1999999101151MD1210351+9999REMSYN04801011 46/// /0511 11176 21198 30115 40127 52035=
0089010110999992015012016004+80067+031500FM-12+001099999V0200601N011019999999N999999999-01801-02021101411ADDMA1999999101301MD1110361+9999REMSYN04801011 46/// /0611 11180 21202 30130 40141 51036=
0089010110999992015012017004+80067+031500FM-12+001099999V0200501N014019999999N999999999-01921-02111101461ADDMA1999999101351MD1310311+9999REMSYN04801011 46/// /0514 11192 21211 30135 40146 53031=
0132010110999992015012018004+80067+031500FM-12+001099999V0200501N013019999999N999999999-01831-02061101561ADDKA1120M-01301MA1999999101441MD1310291+9999OD139901701999REMSYN06401011 46/// /0513 11183 21206 30144 40156 53029 333 11130 91117=
0089010110999992015012019004+80067+031500FM-12+001099999V0200501N011019999999N999999999-01801-02061101771ADDMA1999999101651MD1110361+9999REMSYN04801011 46/// /0511 11180 21206 30165 40177 51036=
0089010110999992015012020004+80067+031500FM-12+001099999V0203601N002019999999N999999999-01701-02021101921ADDMA1999999101801MD1110461+9999REMSYN04801011 46/// /3602 11170 21202 30180 40192 51046=
0089010110999992015012021004+80067+031500FM-12+001099999V0201001N003019999999N999999999-01841-02151101991ADDMA1999999101881MD1310441+9999REMSYN04801011 46/// /1003 11184 21215 30188 40199 53044=
0089010110999992015012022004+80067+031500FM-12+001099999V0200101N004019999999N999999999-01771-02111102051ADDMA1999999101931MD1310281+9999REMSYN04801011 46/// /0104 11177 21211 30193 40205 53028=
0089010110999992015012023004+80067+031500FM-12+001099999V0200501N012019999999N999999999-01941-02401102121ADDMA1999999102001MD1210191+9999REMSYN04801011 46/// /0512 11194 21240 30200 40212 52019=
0113010110999992015012100004+80067+031500FM-12+001099999V0202801N002019999999N999999999-01821-02211102201ADDMA1999999102081MD1110211+9999OD139901601999REMSYN05801011 46/// /2802 11182 21221 30208 40220 51021 333 91116=
0089010110999992015012101004+80067+031500FM-12+001099999V0200401N006019999999N999999999-01991-02561102261ADDMA1999999102141MD1210211+9999REMSYN04801011 46/// /0406 11199 21256 30214 40226 52021=
0089010110999992015012102004+80067+031500FM-12+001099999V0200901N009019999999N999999999-02151-02541102341ADDMA1999999102231MD1210231+9999REMSYN04801011 46/// /0909 11215 21254 30223 40234 52023=
0089010110999992015012103004+80067+031500FM-12+001099999V0200801N012019999999N999999999-02121-02571102301ADDMA1999999102181MD1310101+9999REMSYN04801011 46/// /0812 11212 21257 30218 40230 53010=
0089010110999992015012104004+80067+031500FM-12+001099999V0200901N011019999999N999999999-02101-02651102361ADDMA1999999102241MD1210101+9999REMSYN04801011 46/// /0911 11210 21265 30224 40236 52010=
0089010110999992015012105004+80067+031500FM-12+001099999V0200901N011019999999N999999999-02051-02601102371ADDMA1999999102261MD1990031+9999REMSYN04801011 46/// /0911 11205 21260 30226 40237 50003=
0089010110999992015012107004+80067+031500FM-12+001099999V0201101N012019999999N999999999-02111-02631102401ADDMA1999999102281MD1210041+9999REMSYN04801011 46/// /1112 11211 21263 30228 40240 52004=
0108010110999992015012108004+80067+031500FM-12+001099999V0201001N012019999999N999999999-02121-02651102371ADDMA1999999102251MD1410009+9999REMSYN04801011 46/// /1012 11212 21265 30225 40237 54001=EQDQ01.1    3APC3  
0089010110999992015012109004+80067+031500FM-12+001099999V0201101N012019999999N999999999-02041-02591102401ADDMA1999999102281MD1210031+9999REMSYN04801011 46/// /1112 11204 21259 30228 40240 52003=
0089010110999992015012110004+80067+031500FM-12+001099999V0201101N012019999999N999999999-02011-02441102351ADDMA1999999102241MD1710041+9999REMSYN04801011 46/// /1112 11201 21244 30224 40235 57004=
0089010110999992015012111004+80067+031500FM-12+001099999V0201201N012019999999N999999999-01921-02271102321ADDMA1999999102211MD1610041+9999REMSYN04801011 46/// /1212 11192 21227 30221 40232 56004=
0113010110999992015012112004+80067+031500FM-12+001099999V0201101N013019999999N999999999-01831-02091102221ADDMA1999999102101MD1610181+9999OD139901501999REMSYN05801011 46/// /1113 11183 21209 30210 40222 56018 333 91115=
0089010110999992015012113004+80067+031500FM-12+001099999V0201101N013019999999N999999999-01821-02051102151ADDMA1999999102031MD1610201+9999REMSYN04801011 46/// /1113 11182 21205 30203 40215 56020=
0089010110999992015012114004+80067+031500FM-12+001099999V0201101N013019999999N999999999-01801-02031102091ADDMA1999999101981MD1810231+9999REMSYN04801011 46/// /1113 11180 21203 30198 40209 58023=
0089010110999992015012115004+80067+031500FM-12+001099999V0201101N012019999999N999999999-01721-01941102051ADDMA1999999101931MD1710171+9999REMSYN04801011 46/// /1112 11172 21194 30193 40205 57017=
0089010110999992015012116004+80067+031500FM-12+001099999V0201101N012019999999N999999999-01641-01841101951ADDMA1999999101841MD1610201+9999REMSYN04801011 46/// /1112 11164 21184 30184 40195 56020=
0089010110999992015012117004+80067+031500FM-12+001099999V0201101N013019999999N999999999-01531-01701101891ADDMA1999999101771MD1710211+9999REMSYN04801011 46/// /1113 11153 21170 30177 40189 57021=
0132010110999992015012118004+80067+031500FM-12+001099999V0201101N012019999999N999999999-01451-01591101821ADDKA1120M-01451MA1999999101701MD1710231+9999OD139901701999REMSYN06401011 46/// /1112 11145 21159 30170 40182 57023 333 11145 91117=
0089010110999992015012119004+80067+031500FM-12+001099999V0201101N012019999999N999999999-01361-01501101721ADDMA1999999101601MD1610241+9999REMSYN04801011 46/// /1112 11136 21150 30160 40172 56024=
0089010110999992015012120004+80067+031500FM-12+001099999V0201101N013019999999N999999999-01231-01351101601ADDMA1999999101491MD1610291+9999REMSYN04801011 46/// /1113 11123 21135 30149 40160 56029=
0089010110999992015012121004+80067+031500FM-12+001099999V0201101N012019999999N999999999-01181-01301101541ADDMA1999999101431MD1810281+9999REMSYN04801011 46/// /1112 11118 21130 30143 40154 58028=
0089010110999992015012122004+80067+031500FM-12+001099999V0201101N012019999999N999999999-01011-01101101411ADDMA1999999101301MD1710301+9999REMSYN04801011 46/// /1112 11101 21110 30130 40141 57030=
0089010110999992015012123004+80067+031500FM-12+001099999V0201201N011019999999N999999999-00961-01051101291ADDMA1999999101181MD1610311+9999REMSYN04801011 46/// /1211 11096 21105 30118 40129 56031=
0113010110999992015012200004+80067+031500FM-12+001099999V0201101N012019999999N999999999-00961-01051101131ADDMA1999999101021MD1610411+9999OD139901401999REMSYN05801011 46/// /1112 11096 21105 30102 40113 56041 333 91114=
0089010110999992015012201004+80067+031500FM-12+001099999V0201201N014019999999N999999999-00831-00911100931ADDMA1999999100811MD1610491+9999REMSYN04801011 46/// /1214 11083 21091 30081 40093 56049=
0089010110999992015012202004+80067+031500FM-12+001099999V0201201N013019999999N999999999-00791-00891100761ADDMA1999999100651MD1710521+9999REMSYN04801011 46/// /1213 11079 21089 30065 40076 57052=
0089010110999992015012203004+80067+031500FM-12+001099999V0201101N015019999999N999999999-00671-00781100521ADDMA1999999100411MD1610601+9999REMSYN04801011 46/// /1115 11067 21078 30041 40052 56060=
0089010110999992015012204004+80067+031500FM-12+001099999V0201201N012019999999N999999999-00621-00721100421ADDMA1999999100311MD1810511+9999REMSYN04801011 46/// /1212 11062 21072 30031 40042 58051=
0089010110999992015012205004+80067+031500FM-12+001099999V0201201N009019999999N999999999-00541-00621100291ADDMA1999999100181MD1810481+9999REMSYN04801011 46/// /1209 11054 21062 30018 40029 58048=
0132010110999992015012206004+80067+031500FM-12+001099999V0201201N005019999999N999999999-00461-00521100231ADDKA1240N-01461MA1999999100121MD1810291+9999OD139901701999REMSYN06401011 46/// /1205 11046 21052 30012 40023 58029 333 21146 91117=
0089010110999992015012207004+80067+031500FM-12+001099999V0201101N003019999999N999999999-00471-00521100191ADDMA1999999100081MD1810231+9999REMSYN04801011 46/// /1103 11047 21052 30008 40019 58023=
0089010110999992015012208004+80067+031500FM-12+001099999V0201101N005019999999N999999999-00531-00581100151ADDMA1999999100051MD1710131+9999REMSYN04801011 46/// /1105 11053 21058 30005 40015 57013=
0089010110999992015012209004+80067+031500FM-12+001099999V0201201N004019999999N999999999-00481-00501100121ADDMA1999999100021MD1710111+9999REMSYN04801011 46/// /1204 11048 21050 30002 40012 57011=
0089010110999992015012210004+80067+031500FM-12+001099999V0201301N006019999999N999999999-00291-00301100051ADDMA1999999099941MD1610141+9999REMSYN04801011 46/// /1306 11029 21030 39994 40005 56014=
0089010110999992015012211004+80067+031500FM-12+001099999V0201301N004019999999N999999999-00281-00301100021ADDMA1999999099921MD1710131+9999REMSYN04801011 46/// /1304 11028 21030 39992 40002 57013=
0113010110999992015012212004+80067+031500FM-12+001099999V0201201N003019999999N999999999-00341-00381100021ADDMA1999999099911MD1810111+9999OD139900701999REMSYN05801011 46/// /1203 11034 21038 39991 40002 58011 333 91107=
0089010110999992015012213004+80067+031500FM-12+001099999V0201401N004019999999N999999999-00271-00331099971ADDMA1999999099861MD1710071+9999REMSYN04801011 46/// /1404 11027 21033 39986 49997 57007=
0089010110999992015012214004+80067+031500FM-12+001099999V0201501N003019999999N999999999-00211-00281100001ADDMA1999999099891MD1990021+9999REMSYN04801011 46/// /1503 11021 21028 39989 40000 50002=
0089010110999992015012215004+80067+031500FM-12+001099999V0201001N003019999999N999999999-00241-00331100021ADDMA1999999099911MD1990001+9999REMSYN04801011 46/// /1003 11024 21033 39991 40002 50000=
0089010110999992015012216004+80067+031500FM-12+001099999V0201101N004019999999N999999999-00231-00301100031ADDMA1999999099931MD1210061+9999REMSYN04801011 46/// /1104 11023 21030 39993 40003 52006=
0089010110999992015012217004+80067+031500FM-12+001099999V0201901N006019999999N999999999-00191-00281100001ADDMA1999999099891MD1510001+9999REMSYN04801011 46/// /1906 11019 21028 39989 40000 55000=
0132010110999992015012218004+80067+031500FM-12+001099999V0201901N007019999999N999999999-00231-00301100021ADDKA1120M-00171MA1999999099911MD1410001+9999OD139901101999REMSYN06401011 46/// /1907 11023 21030 39991 40002 54000 333 11017 91111=
0108010110999992015012219004+80067+031500FM-12+001099999V0201801N007019999999N999999999-00211-00271100011ADDMA1999999099901MD1790029+9999REMSYN04801011 46/// /1807 11021 21027 39990 40001 54003=EQDQ01.3    3APC3  
0108010110999992015012220004+80067+031500FM-12+001099999V0201201N004019999999N999999999-00251-00311100031ADDMA1999999099921MD1290039+9999REMSYN04801011 46/// /1204 11025 21031 39992 40003 54003=EQDQ01.3    3APC3  
0108010110999992015012221004+80067+031500FM-12+001099999V0201101N004019999999N999999999-00181-00271100031ADDMA1999999099921MD1290019+9999REMSYN04801011 46/// /1104 11018 21027 39992 40003 54001=EQDQ01.1    3APC3  
0108010110999992015012222004+80067+031500FM-12+001099999V0201101N006019999999N999999999-00191-00301100031ADDMA1999999099921MD1290029+9999REMSYN04801011 46/// /1106 11019 21030 39992 40003 54002=EQDQ01.2    3APC3  
0108010110999992015012223004+80067+031500FM-12+001099999V0201201N005019999999N999999999-00181-00281100011ADDMA1999999099901MD1790029+9999REMSYN04801011 46/// /1205 11018 21028 39990 40001 54002=EQDQ01.2    3APC3  
0113010110999992015012300004+80067+031500FM-12+001099999V0201701N008019999999N999999999-00131-00241099951ADDMA1999999099851MD1610071+9999OD139900901999REMSYN05801011 46/// /1708 11013 21024 39985 49995 56007 333 91109=
0089010110999992015012301004+80067+031500FM-12+001099999V0201601N005019999999N999999999-00141-00251099951ADDMA1999999099841MD1710071+9999REMSYN04801011 46/// /1605 11014 21025 39984 49995 57007=
0089010110999992015012303004+80067+031500FM-12+001099999V0201901N008019999999N999999999-00091-00221099911ADDMA1999999099801MD1710041+9999REMSYN04801011 46/// /1908 11009 21022 39980 49991 57004=
0089010110999992015012304004+80067+031500FM-12+001099999V0201801N007019999999N999999999-00131-00261099911ADDMA1999999099801MD1810041+9999REMSYN04801011 46/// /1807 11013 21026 39980 49991 58004=
0089010110999992015012305004+80067+031500FM-12+001099999V0201901N008019999999N999999999-00101-00241099921ADDMA1999999099811MD1410001+9999REMSYN04801011 46/// /1908 11010 21024 39981 49992 54000=
0108010110999992015012306004+80067+031500FM-12+001099999V0201901N009019999999N999999999-00091-00231099931ADDMA1999999099831MD1290029+9999REMSYN04801011 46/// /1909 11009 21023 39983 49993 54002=EQDQ01.2    3APC3  
0089010110999992015012307004+80067+031500FM-12+001099999V0201801N008019999999N999999999-00101-00231099961ADDMA1999999099851MD1210051+9999REMSYN04801011 46/// /1808 11010 21023 39985 49996 52005=
0089010110999992015012308004+80067+031500FM-12+001099999V0201701N005019999999N999999999-00141-00251100001ADDMA1999999099901MD1210081+9999REMSYN04801011 46/// /1705 11014 21025 39990 40000 52008=
0089010110999992015012309004+80067+031500FM-12+001099999V0201701N004019999999N999999999-00121-00261100071ADDMA1999999099961MD1110131+9999REMSYN04801011 46/// /1704 11012 21026 39996 40007 51013=
0089010110999992015012310004+80067+031500FM-12+001099999V0201801N005019999999N999999999-00101-00251100111ADDMA1999999100001MD1210151+9999REMSYN04801011 46/// /1805 11010 21025 30000 40011 52015=
0089010110999992015012311004+80067+031500FM-12+001099999V0201601N004019999999N999999999-00091-00241100141ADDMA1999999100041MD1210141+9999REMSYN04801011 46/// /1604 11009 21024 30004 40014 52014=
0113010110999992015012312004+80067+031500FM-12+001099999V0201301N002019999999N999999999-00081-00231100181ADDMA1999999100081MD1210121+9999OD139901001999REMSYN05801011 46/// /1302 11008 21023 30008 40018 52012 333 91110=
0089010110999992015012313004+80067+031500FM-12+001099999V0201201N001019999999N999999999-00091-00241100211ADDMA1999999100111MD1210101+9999REMSYN04801011 46/// /1201 11009 21024 30011 40021 52010=
0089010110999992015012314004+80067+031500FM-12+001099999V0201401N003019999999N999999999-00091-00261100241ADDMA1999999100131MD1210091+9999REMSYN04801011 46/// /1403 11009 21026 30013 40024 52009=
0089010110999992015012315004+80067+031500FM-12+001099999V0201301N002019999999N999999999-00121-00291100261ADDMA1999999100161MD1210081+9999REMSYN04801011 46/// /1302 11012 21029 30016 40026 52008=
0089010110999992015012316004+80067+031500FM-12+001099999V0201001N001019999999N999999999-00161-00301100251ADDMA1999999100141MD1310031+9999REMSYN04801011 46/// /1001 11016 21030 30014 40025 53003=
0108010110999992015012317004+80067+031500FM-12+001099999V0200401N001019999999N999999999-00641-00711100271ADDMA1999999100161MD1290039+9999REMSYN04801011 46/// /0401 11064 21071 30016 40027 54003=EQDQ01.3    3APC3  
0132010110999992015012318004+80067+031500FM-12+001099999V0201201N004019999999N999999999-00391-00451100311ADDKA1120M-00071MA1999999100201MD1110041+9999OD139900601999REMSYN06401011 46/// /1204 11039 21045 30020 40031 51004 333 11007 91106=
0089010110999992015012319004+80067+031500FM-12+001099999V0201101N006019999999N999999999-00381-00521100321ADDMA1999999100211MD1210071+9999REMSYN04801011 46/// /1106 11038 21052 30021 40032 52007=
0089010110999992015012320004+80067+031500FM-12+001099999V0203001N002019999999N999999999-00661-00791100381ADDMA1999999100281MD1210121+9999REMSYN04801011 46/// /3002 11066 21079 30028 40038 52012=
0089010110999992015012321004+80067+031500FM-12+001099999V0203201N003019999999N999999999-00761-00841100401ADDMA1999999100291MD1210101+9999REMSYN04801011 46/// /3203 11076 21084 30029 40040 52010=
0089010110999992015012322004+80067+031500FM-12+001099999V0202601N001019999999N999999999-00711-00781100461ADDMA1999999100351MD1210141+9999REMSYN04801011 46/// /2601 11071 21078 30035 40046 52014=
0089010110999992015012323004+80067+031500FM-12+001099999V0203301N001019999999N999999999-00771-00831100471ADDMA1999999100361MD1210091+9999REMSYN04801011 46/// /3301 11077 21083 30036 40047 52009=
0113010110999992015012400004+80067+031500FM-12+001099999V0203301N002019999999N999999999-00811-00871100511ADDMA1999999100401MD1210111+9999OD139900701999REMSYN05801011 46/// /3302 11081 21087 30040 40051 52011 333 91107=
0089010110999992015012401004+80067+031500FM-12+001099999V0200901N003019999999N999999999-00831-00901100521ADDMA1999999100411MD1210061+9999REMSYN04801011 46/// /0903 11083 21090 30041 40052 52006=
0089010110999992015012402004+80067+031500FM-12+001099999V0200501N004019999999N999999999-00911-00961100541ADDMA1999999100431MD1210071+9999REMSYN04801011 46/// /0504 11091 21096 30043 40054 52007=
0089010110999992015012403004+80067+031500FM-12+001099999V0200601N005019999999N999999999-00981-01061100551ADDMA1999999100441MD1210041+9999REMSYN04801011 46/// /0605 11098 21106 30044 40055 52004=
0089010110999992015012404004+80067+031500FM-12+001099999V0200601N005019999999N999999999-01011-01131100571ADDMA1999999100461MD1210051+9999REMSYN04801011 46/// /0605 11101 21113 30046 40057 52005=
0089010110999992015012405004+80067+031500FM-12+001099999V0200501N008019999999N999999999-01141-01261100591ADDMA1999999100481MD1210051+9999REMSYN04801011 46/// /0508 11114 21126 30048 40059 52005=
0132010110999992015012406004+80067+031500FM-12+001099999V0200501N009019999999N999999999-01151-01251100601ADDKA1240N-01171MA1999999100491MD1210051+9999OD139901001999REMSYN06401011 46/// /0509 11115 21125 30049 40060 52005 333 21117 91110=
0089010110999992015012407004+80067+031500FM-12+001099999V0200501N006019999999N999999999-01101-01241100631ADDMA1999999100521MD1210051+9999REMSYN04801011 46/// /0506 11110 21124 30052 40063 52005=
0089010110999992015012408004+80067+031500FM-12+001099999V0200501N007019999999N999999999-01171-01301100661ADDMA1999999100551MD1210071+9999REMSYN04801011 46/// /0507 11117 21130 30055 40066 52007=
0089010110999992015012409004+80067+031500FM-12+001099999V0200401N008019999999N999999999-01171-01301100701ADDMA1999999100591MD1210101+9999REMSYN04801011 46/// /0408 11117 21130 30059 40070 52010=
0089010110999992015012410004+80067+031500FM-12+001099999V0200501N007019999999N999999999-01161-01341100751ADDMA1999999100641MD1210121+9999REMSYN04801011 46/// /0507 11116 21134 30064 40075 52012=
0089010110999992015012411004+80067+031500FM-12+001099999V0200501N009019999999N999999999-01221-01451100791ADDMA1999999100681MD1210131+9999REMSYN04801011 46/// /0509 11122 21145 30068 40079 52013=
0113010110999992015012412004+80067+031500FM-12+001099999V0200501N009019999999N999999999-01301-01611100821ADDMA1999999100701MD1210111+9999OD139901001999REMSYN05801011 46/// /0509 11130 21161 30070 40082 52011 333 91110=
0089010110999992015012413004+80067+031500FM-12+001099999V0200401N006019999999N999999999-01271-01601100841ADDMA1999999100721MD1210081+9999REMSYN04801011 46/// /0406 11127 21160 30072 40084 52008=
0089010110999992015012414004+80067+031500FM-12+001099999V0200301N005019999999N999999999-01151-01421100881ADDMA1999999100771MD1210081+9999REMSYN04801011 46/// /0305 11115 21142 30077 40088 52008=
0089010110999992015012415004+80067+031500FM-12+001099999V0200501N005019999999N999999999-01291-01651100931ADDMA1999999100821MD1110121+9999REMSYN04801011 46/// /0505 11129 21165 30082 40093 51012=
0089010110999992015012416004+80067+031500FM-12+001099999V0203101N001019999999N999999999-01251-01561101001ADDMA1999999100891MD1210161+9999REMSYN04801011 46/// /3101 11125 21156 30089 40100 52016=
0089010110999992015012417004+80067+031500FM-12+001099999V0201001N002019999999N999999999-01281-01551101011ADDMA1999999100901MD1310131+9999REMSYN04801011 46/// /1002 11128 21155 30090 40101 53013=
0132010110999992015012418004+80067+031500FM-12+001099999V0200201N003019999999N999999999-01341-01621101051ADDKA1120M-01021MA1999999100941MD1210121+9999OD139901101999REMSYN06401011 46/// /0203 11134 21162 30094 40105 52012 333 11102 91111=
0089010110999992015012419004+80067+031500FM-12+001099999V0202501N001019999999N999999999-01361-01521101081ADDMA1999999100971MD1210081+9999REMSYN04801011 46/// /2501 11136 21152 30097 40108 52008=
0089010110999992015012420004+80067+031500FM-12+001099999V0209999C999999999999N999999999-01371-01531101131ADDMA1999999101021MD1210121+9999REMSYN04801011 46/// /0000 11137 21153 30102 40113 52012=
0089010110999992015012421004+80067+031500FM-12+001099999V0200301N003019999999N999999999-01451-01801101161ADDMA1999999101051MD1210111+9999REMSYN04801011 46/// /0303 11145 21180 30105 40116 52011=
0089010110999992015012422004+80067+031500FM-12+001099999V0200201N003019999999N999999999-01461-01871101211ADDMA1999999101101MD1210131+9999REMSYN04801011 46/// /0203 11146 21187 30110 40121 52013=
0089010110999992015012423004+80067+031500FM-12+001099999V0200301N001019999999N999999999-01561-01981101261ADDMA1999999101151MD1210131+9999REMSYN04801011 46/// /0301 11156 21198 30115 40126 52013=
0113010110999992015012500004+80067+031500FM-12+001099999V0200301N004019999999N999999999-01651-02101101301ADDMA1999999101191MD1210131+9999OD139900901999REMSYN05801011 46/// /0304 11165 21210 30119 40130 52013 333 91109=
