0089010160999992015010103004+78933+028900FM-12+002099999V0201101N007019999999N999999999-00231-00271098961ADDMA1999999098811MD1210061+9999REMSYN04801016 46/// /1107 11023 21027 39881 49896 52006=
0113010160999992015010106004+78933+028900FM-12+002099999V0201201N010019999999N999999999-00221-00261098921ADDMA1999999098761MD1710051+9999OD139901101999REMSYN05801016 46/// /1210 11022 21026 39876 49892 57005 333 91111=
0089010160999992015010109004+78933+028900FM-12+002099999V0201201N010019999999N999999999-00251-00291098951ADDMA1999999098791MD1210031+9999REMSYN04801016 46/// /1210 11025 21029 39879 49895 52003=
0113010160999992015010112004+78933+028900FM-12+002099999V0201101N011019999999N999999999-00281-00331098791ADDMA1999999098641MD1610161+9999OD139901301999REMSYN05801016 46/// /1111 11028 21033 39864 49879 56016 333 91113=
0089010160999992015010115004+78933+028900FM-12+002099999V0201201N011019999999N999999999-00231-00271098591ADDMA1999999098441MD1810201+9999REMSYN04801016 46/// /1211 11023 21027 39844 49859 58020=
0132010160999992015010118004+78933+028900FM-12+002099999V0201401N012019999999N999999999-00181-00221098441ADDKA1120M-00181MA1999999098291MD1810151+9999OD139901501999REMSYN06401016 46/// /1412 11018 21022 39829 49844 58015 333 11018 91115=
0089010160999992015010121004+78933+028900FM-12+002099999V0201601N006019999999N999999999-00131-00141098461ADDMA1999999098301MD1990011+9999REMSYN04801016 46/// /1606 11013 21014 39830 49846 50001=
0113010160999992015010200004+78933+028900FM-12+002099999V0201401N007019999999N999999999-00161-00181098411ADDMA1999999098261MD1710051+9999OD139901401999REMSYN05801016 46/// /1407 11016 21018 39826 49841 57005 333 91114=
0089010160999992015010203004+78933+028900FM-12+002099999V0201401N006019999999N999999999-00161-00171098371ADDMA1999999098221MD1710041+9999REMSYN04801016 46/// /1406 11016 21017 39822 49837 57004=
0132010160999992015010206004+78933+028900FM-12+002099999V0201401N006019999999N999999999-00141-00161098311ADDKA1240N-00201MA1999999098161MD1710061+9999OD139900701999REMSYN06401016 46/// /1406 11014 21016 39816 49831 57006 333 21020 91107=
0089010160999992015010209004+78933+028900FM-12+002099999V0201501N012019999999N999999999-00201-00221098391ADDMA1999999098241MD1210081+9999REMSYN04801016 46/// /1512 11020 21022 39824 49839 52008=
0113010160999992015010212004+78933+028900FM-12+002099999V0201401N013019999999N999999999-00261-00301098521ADDMA1999999098361MD1210131+9999OD139901501999REMSYN05801016 46/// /1413 11026 21030 39836 49852 52013 333 91115=
0089010160999992015010215004+78933+028900FM-12+002099999V0201301N013019999999N999999999-00291-00341098561ADDMA1999999098401MD1210041+9999REMSYN04801016 46/// /1313 11029 21034 39840 49856 52004=
0132010160999992015010218004+78933+028900FM-12+002099999V0201301N016019999999N999999999-00291-00331098591ADDKA1120M-00091MA1999999098441MD1210031+9999OD139901801999REMSYN06401016 46/// /1316 11029 21033 39844 49859 52003 333 11009 91118=
0089010160999992015010221004+78933+028900FM-12+002099999V0201401N017019999999N999999999-00281-00301098741ADDMA1999999098581MD1110151+9999REMSYN04801016 46/// /1417 11028 21030 39858 49874 51015=
0113010160999992015010300004+78933+028900FM-12+002099999V0201401N017019999999N999999999-00281-00301098991ADDMA1999999098841MD1110261+9999OD139902101999REMSYN05801016 46/// /1417 11028 21030 39884 49899 51026 333 91121=
0089010160999992015010303004+78933+028900FM-12+002099999V0201501N014019999999N999999999-00311-00331099361ADDMA1999999099201MD1210361+9999REMSYN04801016 46/// /1514 11031 21033 39920 49936 52036=
0132010160999992015010306004+78933+028900FM-12+002099999V0201501N011019999999N999999999-00391-00441099691ADDKA1240N-00391MA1999999099531MD1210331+9999OD139901801999REMSYN06401016 46/// /1511 11039 21044 39953 49969 52033 333 21039 91118=
0089010160999992015010309004+78933+028900FM-12+002099999V0201401N009019999999N999999999-00471-00541100001ADDMA1999999099841MD1210311+9999REMSYN04801016 46/// /1409 11047 21054 39984 40000 52031=
0113010160999992015010312004+78933+028900FM-12+002099999V0201401N009019999999N999999999-00481-00561100231ADDMA1999999100071MD1310231+9999OD139901301999REMSYN05801016 46/// /1409 11048 21056 30007 40023 53023 333 91113=
0089010160999992015010315004+78933+028900FM-12+002099999V0201301N007019999999N999999999-00501-00581100461ADDMA1999999100301MD1210231+9999REMSYN04801016 46/// /1307 11050 21058 30030 40046 52023=
0132010160999992015010318004+78933+028900FM-12+002099999V0201301N008019999999N999999999-00521-00601100641ADDKA1120M-00391MA1999999100481MD1210181+9999OD139901101999REMSYN06401016 46/// /1308 11052 21060 30048 40064 52018 333 11039 91111=
0089010160999992015010321004+78933+028900FM-12+002099999V0201301N007019999999N999999999-00611-00711100861ADDMA1999999100701MD1210221+9999REMSYN04801016 46/// /1307 11061 21071 30070 40086 52022=
0113010160999992015010400004+78933+028900FM-12+002099999V0201301N007019999999N999999999-00701-00811101031ADDMA1999999100871MD1210181+9999OD139900901999REMSYN05801016 46/// /1307 11070 21081 30087 40103 52018 333 91109=
0089010160999992015010403004+78933+028900FM-12+002099999V0201201N008019999999N999999999-00861-00951101181ADDMA1999999101021MD1210141+9999REMSYN04801016 46/// /1208 11086 21095 30102 40118 52014=
0132010160999992015010406004+78933+028900FM-12+002099999V0201301N006019999999N999999999-00841-00951101321ADDKA1240N-00871MA1999999101161MD1210141+9999OD139900901999REMSYN06401016 46/// /1306 11084 21095 30116 40132 52014 333 21087 91109=
0089010160999992015010409004+78933+028900FM-12+002099999V0201301N007019999999N999999999-00711-00811101471ADDMA1999999101311MD1210151+9999REMSYN04801016 46/// /1307 11071 21081 30131 40147 52015=
0113010160999992015010412004+78933+028900FM-12+002099999V0201401N005019999999N999999999-00681-00831101621ADDMA1999999101461MD1210151+9999OD139900801999REMSYN05801016 46/// /1405 11068 21083 30146 40162 52015 333 91108=
0089010160999992015010415004+78933+028900FM-12+002099999V0201301N005019999999N999999999-00671-00821101721ADDMA1999999101561MD1210101+9999REMSYN04801016 46/// /1305 11067 21082 30156 40172 52010=
0132010160999992015010418004+78933+028900FM-12+002099999V0201301N007019999999N999999999-00641-00761101761ADDKA1120M-00631MA1999999101601MD1210041+9999OD139900801999REMSYN06401016 46/// /1307 11064 21076 30160 40176 52004 333 11063 91108=
0089010160999992015010421004+78933+028900FM-12+002099999V0201501N005019999999N999999999-00731-00801101841ADDMA1999999101671MD1310071+9999REMSYN04801016 46/// /1505 11073 21080 30167 40184 53007=
0113010160999992015010500004+78933+028900FM-12+002099999V0201501N005019999999N999999999-00711-00791101891ADDMA1999999101731MD1310061+9999OD139900701999REMSYN05801016 46/// /1505 11071 21079 30173 40189 53006 333 91107=
0089010160999992015010503004+78933+028900FM-12+002099999V0201701N003019999999N999999999-00861-00941101891ADDMA1999999101731MD1410001+9999REMSYN04801016 46/// /1703 11086 21094 30173 40189 54000=
0089010160999992015010506004+78933+028900FM-12+002099999V0201601N005019999999N999999999-00811-00891101851ADDMA1999999101681MD1710051+9999REMSYN04801016 46/// /1605 11081 21089 30168 40185 57005=
0108010160999992015010509004+78933+028900FM-12+002099999V0201901N002019999999N999999999-00971-01051101851ADDMA1999999101691MD1410009+9999REMSYN04801016 46/// /1902 11097 21105 30169 40185 54001=EQDQ01.1    3APC3  
0113010160999992015010512004+78933+028900FM-12+002099999V0202301N001019999999N999999999-00971-01061101861ADDMA1999999101691MD1410001+9999OD139900501999REMSYN05801016 46/// /2301 11097 21106 30169 40186 54000 333 91105=
0108010160999992015010515004+78933+028900FM-12+002099999V0203201N006019999999N999999999-00791-00891101881ADDMA1999999101721MD1290029+9999REMSYN04801016 46/// /3206 11079 21089 30172 40188 54003=EQDQ01.3    3APC3  
0151010160999992015010518004+78933+028900FM-12+002099999V0203401N005019999999N999999999-01051-01221101891ADDKA1120M-00721MA1999999101731MD1290019+9999OD139900901999REMSYN06401016 46/// /3405 11105 21122 30173 40189 54001 333 11072 91109=EQDQ01.1    3APC3  
0089010160999992015010521004+78933+028900FM-12+002099999V0203001N004019999999N999999999-01241-01411101861ADDMA1999999101701MD1710031+9999REMSYN04801016 46/// /3004 11124 21141 30170 40186 57003=
0113010160999992015010600004+78933+028900FM-12+002099999V0201801N001019999999N999999999-01301-01431101801ADDMA1999999101631MD1710071+9999OD139900601999REMSYN05801016 46/// /1801 11130 21143 30163 40180 57007 333 91106=
0089010160999992015010601004+78933+028900FM-12+002099999V0201901N001019999999N999999999-01431-01561101771ADDMA1999999101601MD1610081+9999REMSYN04801016 46/// /1901 11143 21156 30160 40177 56008=
0089010160999992015010602004+78933+028900FM-12+002099999V0201401N001019999999N999999999-01601-01721101711ADDMA1999999101541MD1710141+9999REMSYN04801016 46/// /1401 11160 21172 30154 40171 57014=
0089010160999992015010603004+78933+028900FM-12+002099999V0201801N002019999999N999999999-01451-01561101641ADDMA1999999101471MD1610161+9999REMSYN04801016 46/// /1802 11145 21156 30147 40164 56016=
0089010160999992015010604004+78933+028900FM-12+002099999V0201901N001019999999N999999999-01341-01461101571ADDMA1999999101411MD1710191+9999REMSYN04801016 46/// /1901 11134 21146 30141 40157 57019=
0089010160999992015010605004+78933+028900FM-12+002099999V0201901N003019999999N999999999-01141-01261101491ADDMA1999999101331MD1710211+9999REMSYN04801016 46/// /1903 11114 21126 30133 40149 57021=
0132010160999992015010606004+78933+028900FM-12+002099999V0201801N003019999999N999999999-01091-01201101431ADDKA1240N-01641MA1999999101271MD1710211+9999OD139900501999REMSYN06401016 46/// /1803 11109 21120 30127 40143 57021 333 21164 91105=
0089010160999992015010607004+78933+028900FM-12+002099999V0201901N002019999999N999999999-01061-01151101411ADDMA1999999101251MD1810161+9999REMSYN04801016 46/// /1902 11106 21115 30125 40141 58016=
0089010160999992015010608004+78933+028900FM-12+002099999V0201801N003019999999N999999999-01171-01271101361ADDMA1999999101201MD1710131+9999REMSYN04801016 46/// /1803 11117 21127 30120 40136 57013=
0089010160999992015010609004+78933+028900FM-12+002099999V0201701N003019999999N999999999-01201-01321101341ADDMA1999999101181MD1710091+9999REMSYN04801016 46/// /1703 11120 21132 30118 40134 57009=
0089010160999992015010610004+78933+028900FM-12+002099999V0201701N001019999999N999999999-01451-01581101311ADDMA1999999101141MD1710101+9999REMSYN04801016 46/// /1701 11145 21158 30114 40131 57010=
0089010160999992015010611004+78933+028900FM-12+002099999V0201801N001019999999N999999999-01451-01591101261ADDMA1999999101091MD1610111+9999REMSYN04801016 46/// /1801 11145 21159 30109 40126 56011=
0113010160999992015010612004+78933+028900FM-12+002099999V0201701N001019999999N999999999-01341-01471101211ADDMA1999999101041MD1710141+9999OD139900501999REMSYN05801016 46/// /1701 11134 21147 30104 40121 57014 333 91105=
0089010160999992015010613004+78933+028900FM-12+002099999V0209999C999999999999N999999999-01351-01491101151ADDMA1999999100981MD1710161+9999REMSYN04801016 46/// /0000 11135 21149 30098 40115 57016=
0089010160999992015010614004+78933+028900FM-12+002099999V0209999C999999999999N999999999-01311-01431101071ADDMA1999999100911MD1710181+9999REMSYN04801016 46/// /0000 11131 21143 30091 40107 57018=
0089010160999992015010615004+78933+028900FM-12+002099999V0209999C999999999999N999999999-01381-01521101021ADDMA1999999100861MD1710181+9999REMSYN04801016 46/// /0000 11138 21152 30086 40102 57018=
0089010160999992015010616004+78933+028900FM-12+002099999V0209999C999999999999N999999999-01441-01581100981ADDMA1999999100821MD1810161+9999REMSYN04801016 46/// /0000 11144 21158 30082 40098 58016=
0089010160999992015010617004+78933+028900FM-12+002099999V0209999C999999999999N999999999-01371-01501100921ADDMA1999999100761MD1710151+9999REMSYN04801016 46/// /0000 11137 21150 30076 40092 57015=
0132010160999992015010618004+78933+028900FM-12+002099999V0209999C999999999999N999999999-01351-01481100871ADDKA1120M-01051MA1999999100711MD1710151+9999OD139900101999REMSYN06401016 46/// /0000 11135 21148 30071 40087 57015 333 11105 91101=
0089010160999992015010619004+78933+028900FM-12+002099999V0209999C999999999999N999999999-01031-01121100811ADDMA1999999100651MD1710171+9999REMSYN04801016 46/// /0000 11103 21112 30065 40081 57017=
0089010160999992015010620004+78933+028900FM-12+002099999V0209999C999999999999N999999999-00901-00991100751ADDMA1999999100591MD1710171+9999REMSYN04801016 46/// /0000 11090 21099 30059 40075 57017=
0089010160999992015010621004+78933+028900FM-12+002099999V0209999C999999999999N999999999-00841-00921100711ADDMA1999999100541MD1710171+9999REMSYN04801016 46/// /0000 11084 21092 30054 40071 57017=
0089010160999992015010622004+78933+028900FM-12+002099999V0209999C999999999999N999999999-00791-00871100631ADDMA1999999100471MD1710181+9999REMSYN04801016 46/// /0000 11079 21087 30047 40063 57018=
0089010160999992015010623004+78933+028900FM-12+002099999V0209999C999999999999N999999999-00671-00741100611ADDMA1999999100451MD1710141+9999REMSYN04801016 46/// /0000 11067 21074 30045 40061 57014=
0113010160999992015010700004+78933+028900FM-12+002099999V0201601N009019999999N999999999-00491-00551100541ADDMA1999999100381MD1710161+9999OD139900901999REMSYN05801016 46/// /1609 11049 21055 30038 40054 57016 333 91109=
0089010160999992015010701004+78933+028900FM-12+002099999V0201601N010019999999N999999999-00441-00511100491ADDMA1999999100331MD1710141+9999REMSYN04801016 46/// /1610 11044 21051 30033 40049 57014=
0089010160999992015010702004+78933+028900FM-12+002099999V0201601N010019999999N999999999-00381-00471100441ADDMA1999999100281MD1710161+9999REMSYN04801016 46/// /1610 11038 21047 30028 40044 57016=
0089010160999992015010703004+78933+028900FM-12+002099999V0201601N010019999999N999999999-00401-00491100391ADDMA1999999100231MD1710151+9999REMSYN04801016 46/// /1610 11040 21049 30023 40039 57015=
0089010160999992015010704004+78933+028900FM-12+002099999V0201601N009019999999N999999999-00371-00441100341ADDMA1999999100181MD1710151+9999REMSYN04801016 46/// /1609 11037 21044 30018 40034 57015=
0089010160999992015010705004+78933+028900FM-12+002099999V0201701N010019999999N999999999-00351-00451100311ADDMA1999999100151MD1710141+9999REMSYN04801016 46/// /1710 11035 21045 30015 40031 57014=
0132010160999992015010706004+78933+028900FM-12+002099999V0201701N011019999999N999999999-00311-00411100281ADDKA1240N-01361MA1999999100121MD1710111+9999OD139901201999REMSYN06401016 46/// /1711 11031 21041 30012 40028 57011 333 21136 91112=
0089010160999992015010707004+78933+028900FM-12+002099999V0201601N010019999999N999999999-00301-00401100271ADDMA1999999100121MD1810071+9999REMSYN04801016 46/// /1610 11030 21040 30012 40027 58007=
0089010160999992015010708004+78933+028900FM-12+002099999V0201601N011019999999N999999999-00281-00371100261ADDMA1999999100101MD1710051+9999REMSYN04801016 46/// /1611 11028 21037 30010 40026 57005=
0108010160999992015010709004+78933+028900FM-12+002099999V0201601N011019999999N999999999-00261-00331100251ADDMA1999999100091MD1790039+9999REMSYN04801016 46/// /1611 11026 21033 30009 40025 54003=EQDQ01.3    3APC3  
0089010160999992015010710004+78933+028900FM-12+002099999V0201601N011019999999N999999999-00251-00341100231ADDMA1999999100071MD1710051+9999REMSYN04801016 46/// /1611 11025 21034 30007 40023 57005=
0089010160999992015010711004+78933+028900FM-12+002099999V0201601N012019999999N999999999-00261-00351100191ADDMA1999999100031MD1710061+9999REMSYN04801016 46/// /1612 11026 21035 30003 40019 57006=
0113010160999992015010712004+78933+028900FM-12+002099999V0201601N011019999999N999999999-00271-00371100151ADDMA1999999099991MD1710101+9999OD139901401999REMSYN05801016 46/// /1611 11027 21037 39999 40015 57010 333 91114=
0089010160999992015010713004+78933+028900FM-12+002099999V0201601N012019999999N999999999-00281-00381100091ADDMA1999999099931MD1710141+9999REMSYN04801016 46/// /1612 11028 21038 39993 40009 57014=
0089010160999992015010714004+78933+028900FM-12+002099999V0201601N013019999999N999999999-00281-00371100031ADDMA1999999099871MD1710161+9999REMSYN04801016 46/// /1613 11028 21037 39987 40003 57016=
0089010160999992015010715004+78933+028900FM-12+002099999V0201601N013019999999N999999999-00261-00361100001ADDMA1999999099841MD1710151+9999REMSYN04801016 46/// /1613 11026 21036 39984 40000 57015=
0089010160999992015010716004+78933+028900FM-12+002099999V0201601N013019999999N999999999-00251-00351099951ADDMA1999999099801MD1710131+9999REMSYN04801016 46/// /1613 11025 21035 39980 49995 57013=
0089010160999992015010717004+78933+028900FM-12+002099999V0201501N014019999999N999999999-00231-00341099861ADDMA1999999099701MD1610171+9999REMSYN04801016 46/// /1514 11023 21034 39970 49986 56017=
0132010160999992015010718004+78933+028900FM-12+002099999V0201501N014019999999N999999999-00211-00341099801ADDKA1120M-00211MA1999999099651MD1710191+9999OD139901701999REMSYN06401016 46/// /1514 11021 21034 39965 49980 57019 333 11021 91117=
0089010160999992015010719004+78933+028900FM-12+002099999V0201501N014019999999N999999999-00201-00351099751ADDMA1999999099591MD1810211+9999REMSYN04801016 46/// /1514 11020 21035 39959 49975 58021=
0089010160999992015010720004+78933+028900FM-12+002099999V0201501N015019999999N999999999-00191-00381099681ADDMA1999999099531MD1710171+9999REMSYN04801016 46/// /1515 11019 21038 39953 49968 57017=
0089010160999992015010721004+78933+028900FM-12+002099999V0201501N016019999999N999999999-00181-00391099611ADDMA1999999099451MD1710191+9999REMSYN04801016 46/// /1516 11018 21039 39945 49961 57019=
0089010160999992015010722004+78933+028900FM-12+002099999V0201601N016019999999N999999999-00181-00331099561ADDMA1999999099401MD1710191+9999REMSYN04801016 46/// /1616 11018 21033 39940 49956 57019=
0089010160999992015010723004+78933+028900FM-12+002099999V0201601N017019999999N999999999-00161-00271099471ADDMA1999999099321MD1710211+9999REMSYN04801016 46/// /1617 11016 21027 39932 49947 57021=
0113010160999992015010800004+78933+028900FM-12+002099999V0201601N017019999999N999999999-00141-00211099451ADDMA1999999099291MD1710161+9999OD139902001999REMSYN05801016 46/// /1617 11014 21021 39929 49945 57016 333 91120=
0089010160999992015010801004+78933+028900FM-12+002099999V0201701N016019999999N999999999-00111-00161099411ADDMA1999999099251MD1810151+9999REMSYN04801016 46/// /1716 11011 21016 39925 49941 58015=
0089010160999992015010802004+78933+028900FM-12+002099999V0201701N014019999999N999999999-00091-00111099381ADDMA1999999099231MD1710091+9999REMSYN04801016 46/// /1714 11009 21011 39923 49938 57009=
0089010160999992015010803004+78933+028900FM-12+002099999V0202001N013019999999N999999999-00051-00091099421ADDMA1999999099261MD1990031+9999REMSYN04801016 46/// /2013 11005 21009 39926 49942 50003=
0089010160999992015010804004+78933+028900FM-12+002099999V0202101N013019999999N999999999-00141-00191099491ADDMA1999999099341MD1110081+9999REMSYN04801016 46/// /2113 11014 21019 39934 49949 51008=
0089010160999992015010805004+78933+028900FM-12+002099999V0202001N009019999999N999999999-00241-00281099591ADDMA1999999099431MD1110211+9999REMSYN04801016 46/// /2009 11024 21028 39943 49959 51021=
0132010160999992015010806004+78933+028900FM-12+002099999V0202101N006019999999N999999999-00331-00341099681ADDKA1240N-00331MA1999999099521MD1210261+9999OD139901901999REMSYN06401016 46/// /2106 11033 21034 39952 49968 52026 333 21033 91119=
0089010160999992015010807004+78933+028900FM-12+002099999V0202201N005019999999N999999999-00421-00431099721ADDMA1999999099561MD1310221+9999REMSYN04801016 46/// /2205 11042 21043 39956 49972 53022=
0089010160999992015010808004+78933+028900FM-12+002099999V0202301N002019999999N999999999-00521-00541099811ADDMA1999999099651MD1210211+9999REMSYN04801016 46/// /2302 11052 21054 39965 49981 52021=
0089010160999992015010809004+78933+028900FM-12+002099999V0201801N003019999999N999999999-00581-00621099831ADDMA1999999099671MD1210151+9999REMSYN04801016 46/// /1803 11058 21062 39967 49983 52015=
0089010160999992015010810004+78933+028900FM-12+002099999V0201701N003019999999N999999999-00621-00671099871ADDMA1999999099711MD1310151+9999REMSYN04801016 46/// /1703 11062 21067 39971 49987 53015=
0089010160999992015010811004+78933+028900FM-12+002099999V0201701N002019999999N999999999-00671-00731099911ADDMA1999999099751MD1210101+9999REMSYN04801016 46/// /1702 11067 21073 39975 49991 52010=
0113010160999992015010812004+78933+028900FM-12+002099999V0201801N001019999999N999999999-00831-00911099971ADDMA1999999099811MD1210141+9999OD139900701999REMSYN05801016 46/// /1801 11083 21091 39981 49997 52014 333 91107=
0089010160999992015010813004+78933+028900FM-12+002099999V0201601N001019999999N999999999-00671-00731099981ADDMA1999999099821MD1210111+9999REMSYN04801016 46/// /1601 11067 21073 39982 49998 52011=
0089010160999992015010814004+78933+028900FM-12+002099999V0201701N001019999999N999999999-00771-00841100021ADDMA1999999099861MD1210111+9999REMSYN04801016 46/// /1701 11077 21084 39986 40002 52011=
0089010160999992015010815004+78933+028900FM-12+002099999V0201801N001019999999N999999999-00981-01091100061ADDMA1999999099901MD1210081+9999REMSYN04801016 46/// /1801 11098 21109 39990 40006 52008=
0089010160999992015010816004+78933+028900FM-12+002099999V0201601N001019999999N999999999-00941-01021100131ADDMA1999999099971MD1110151+9999REMSYN04801016 46/// /1601 11094 21102 39997 40013 51015=
0089010160999992015010817004+78933+028900FM-12+002099999V0201701N001019999999N999999999-00871-00951100191ADDMA1999999100031MD1210171+9999REMSYN04801016 46/// /1701 11087 21095 30003 40019 52017=
0132010160999992015010818004+78933+028900FM-12+002099999V0201601N001019999999N999999999-00781-00851100231ADDKA1120M-00321MA1999999100071MD1310171+9999OD139900101999REMSYN06401016 46/// /1601 11078 21085 30007 40023 53017 333 11032 91101=
0089010160999992015010819004+78933+028900FM-12+002099999V0201801N001019999999N999999999-00761-00831100281ADDMA1999999100121MD1210151+9999REMSYN04801016 46/// /1801 11076 21083 30012 40028 52015=
0089010160999992015010820004+78933+028900FM-12+002099999V0201601N001019999999N999999999-00551-00601100281ADDMA1999999100121MD1310091+9999REMSYN04801016 46/// /1601 11055 21060 30012 40028 53009=
0089010160999992015010821004+78933+028900FM-12+002099999V0201501N001019999999N999999999-00351-00391100301ADDMA1999999100141MD1210071+9999REMSYN04801016 46/// /1501 11035 21039 30014 40030 52007=
0089010160999992015010822004+78933+028900FM-12+002099999V0201501N002019999999N999999999-00261-00281100331ADDMA1999999100171MD1210051+9999REMSYN04801016 46/// /1502 11026 21028 30017 40033 52005=
0089010160999992015010823004+78933+028900FM-12+002099999V0201801N005019999999N999999999-00211-00231100331ADDMA1999999100181MD1210051+9999REMSYN04801016 46/// /1805 11021 21023 30018 40033 52005=
0113010160999992015010900004+78933+028900FM-12+002099999V0201701N010019999999N999999999-00281-00351100341ADDMA1999999100181MD1210041+9999OD139901101999REMSYN05801016 46/// /1710 11028 21035 30018 40034 52004 333 91111=
0089010160999992015010901004+78933+028900FM-12+002099999V0201601N011019999999N999999999-00251-00411100361ADDMA1999999100211MD1210041+9999REMSYN04801016 46/// /1611 11025 21041 30021 40036 52004=
0108010160999992015010902004+78933+028900FM-12+002099999V0201601N011019999999N999999999-00291-00441100361ADDMA1999999100201MD1290039+9999REMSYN04801016 46/// /1611 11029 21044 30020 40036 54002=EQDQ01.2    3APC3  
0108010160999992015010903004+78933+028900FM-12+002099999V0201501N010019999999N999999999-00301-00461100371ADDMA1999999100211MD1290039+9999REMSYN04801016 46/// /1510 11030 21046 30021 40037 54003=EQDQ01.3    3APC3  
0108010160999992015010904004+78933+028900FM-12+002099999V0201501N010019999999N999999999-00291-00451100391ADDMA1999999100231MD1290039+9999REMSYN04801016 46/// /1510 11029 21045 30023 40039 54002=EQDQ01.2    3APC3  
0089010160999992015010905004+78933+028900FM-12+002099999V0201601N010019999999N999999999-00291-00481100391ADDMA1999999100231MD1210031+9999REMSYN04801016 46/// /1610 11029 21048 30023 40039 52003=
0132010160999992015010906004+78933+028900FM-12+002099999V0201601N010019999999N999999999-00281-00441100411ADDKA1240N-00831MA1999999100251MD1210041+9999OD139901301999REMSYN06401016 46/// /1610 11028 21044 30025 40041 52004 333 21083 91113=
0089010160999992015010907004+78933+028900FM-12+002099999V0201601N010019999999N999999999-00271-00421100451ADDMA1999999100291MD1210061+9999REMSYN04801016 46/// /1610 11027 21042 30029 40045 52006=
0089010160999992015010908004+78933+028900FM-12+002099999V0201601N009019999999N999999999-00291-00401100501ADDMA1999999100341MD1110111+9999REMSYN04801016 46/// /1609 11029 21040 30034 40050 51011=
0089010160999992015010909004+78933+028900FM-12+002099999V0201601N009019999999N999999999-00291-00391100511ADDMA1999999100361MD1210101+9999REMSYN04801016 46/// /1609 11029 21039 30036 40051 52010=
0089010160999992015010910004+78933+028900FM-12+002099999V0201601N009019999999N999999999-00271-00371100551ADDMA1999999100391MD1210101+9999REMSYN04801016 46/// /1609 11027 21037 30039 40055 52010=
0089010160999992015010911004+78933+028900FM-12+002099999V0201701N008019999999N999999999-00261-00381100571ADDMA1999999100411MD1210071+9999REMSYN04801016 46/// /1708 11026 21038 30041 40057 52007=
0113010160999992015010912004+78933+028900FM-12+002099999V0201601N008019999999N999999999-00291-00381100591ADDMA1999999100431MD1210081+9999OD139901101999REMSYN05801016 46/// /1608 11029 21038 30043 40059 52008 333 91111=
0089010160999992015010913004+78933+028900FM-12+002099999V0201601N008019999999N999999999-00281-00381100601ADDMA1999999100441MD1210051+9999REMSYN04801016 46/// /1608 11028 21038 30044 40060 52005=
0089010160999992015010914004+78933+028900FM-12+002099999V0201701N008019999999N999999999-00311-00401100611ADDMA1999999100451MD1210041+9999REMSYN04801016 46/// /1708 11031 21040 30045 40061 52004=
0089010160999992015010915004+78933+028900FM-12+002099999V0201601N008019999999N999999999-00301-00391100641ADDMA1999999100481MD1210051+9999REMSYN04801016 46/// /1608 11030 21039 30048 40064 52005=
0089010160999992015010916004+78933+028900FM-12+002099999V0201701N007019999999N999999999-00351-00441100641ADDMA1999999100491MD1210051+9999REMSYN04801016 46/// /1707 11035 21044 30049 40064 52005=
0089010160999992015010917004+78933+028900FM-12+002099999V0201701N007019999999N999999999-00331-00421100681ADDMA1999999100521MD1210071+9999REMSYN04801016 46/// /1707 11033 21042 30052 40068 52007=
0132010160999992015010918004+78933+028900FM-12+002099999V0201701N007019999999N999999999-00361-00451100701ADDKA1120M-00251MA1999999100541MD1210061+9999OD139900901999REMSYN06401016 46/// /1707 11036 21045 30054 40070 52006 333 11025 91109=
0089010160999992015010919004+78933+028900FM-12+002099999V0201801N007019999999N999999999-00341-00441100711ADDMA1999999100551MD1210071+9999REMSYN04801016 46/// /1807 11034 21044 30055 40071 52007=
0089010160999992015010920004+78933+028900FM-12+002099999V0201801N007019999999N999999999-00341-00451100731ADDMA1999999100571MD1210051+9999REMSYN04801016 46/// /1807 11034 21045 30057 40073 52005=
0089010160999992015010921004+78933+028900FM-12+002099999V0201901N006019999999N999999999-00321-00431100741ADDMA1999999100581MD1210041+9999REMSYN04801016 46/// /1906 11032 21043 30058 40074 52004=
0089010160999992015010922004+78933+028900FM-12+002099999V0202601N001019999999N999999999-00321-00441100791ADDMA1999999100631MD1110081+9999REMSYN04801016 46/// /2601 11032 21044 30063 40079 51008=
0089010160999992015010923004+78933+028900FM-12+002099999V0202101N004019999999N999999999-00281-00441100791ADDMA1999999100631MD1210061+9999REMSYN04801016 46/// /2104 11028 21044 30063 40079 52006=
0113010160999992015011000004+78933+028900FM-12+002099999V0202101N004019999999N999999999-00311-00461100801ADDMA1999999100651MD1310071+9999OD139900801999REMSYN05801016 46/// /2104 11031 21046 30065 40080 53007 333 91108=
0089010160999992015011001004+78933+028900FM-12+002099999V0202001N003019999999N999999999-00311-00491100791ADDMA1999999100631MD1410001+9999REMSYN04801016 46/// /2003 11031 21049 30063 40079 54000=
0089010160999992015011002004+78933+028900FM-12+002099999V0202101N004019999999N999999999-00351-00501100761ADDMA1999999100601MD1510021+9999REMSYN04801016 46/// /2104 11035 21050 30060 40076 55002=
0089010160999992015011003004+78933+028900FM-12+002099999V0202201N004019999999N999999999-00351-00471100741ADDMA1999999100581MD1710071+9999REMSYN04801016 46/// /2204 11035 21047 30058 40074 57007=
0089010160999992015011004004+78933+028900FM-12+002099999V0202201N004019999999N999999999-00371-00481100731ADDMA1999999100571MD1710061+9999REMSYN04801016 46/// /2204 11037 21048 30057 40073 57006=
0089010160999992015011005004+78933+028900FM-12+002099999V0202201N003019999999N999999999-00391-00491100711ADDMA1999999100551MD1710051+9999REMSYN04801016 46/// /2203 11039 21049 30055 40071 57005=
0132010160999992015011006004+78933+028900FM-12+002099999V0202101N004019999999N999999999-00381-00481100681ADDKA1240N-00391MA1999999100521MD1710061+9999OD139900501999REMSYN06401016 46/// /2104 11038 21048 30052 40068 57006 333 21039 91105=
0089010160999992015011007004+78933+028900FM-12+002099999V0202001N004019999999N999999999-00441-00511100671ADDMA1999999100511MD1710061+9999REMSYN04801016 46/// /2004 11044 21051 30051 40067 57006=
0089010160999992015011008004+78933+028900FM-12+002099999V0201601N003019999999N999999999-00461-00531100661ADDMA1999999100501MD1710051+9999REMSYN04801016 46/// /1603 11046 21053 30050 40066 57005=
0089010160999992015011009004+78933+028900FM-12+002099999V0201801N003019999999N999999999-00481-00541100621ADDMA1999999100461MD1710061+9999REMSYN04801016 46/// /1803 11048 21054 30046 40062 57006=
0089010160999992015011010004+78933+028900FM-12+002099999V0201501N004019999999N999999999-00441-00501100601ADDMA1999999100451MD1710071+9999REMSYN04801016 46/// /1504 11044 21050 30045 40060 57007=
0089010160999992015011011004+78933+028900FM-12+002099999V0201601N003019999999N999999999-00451-00511100561ADDMA1999999100401MD1710101+9999REMSYN04801016 46/// /1603 11045 21051 30040 40056 57010=
0113010160999992015011012004+78933+028900FM-12+002099999V0201501N004019999999N999999999-00411-00471100551ADDMA1999999100391MD1710071+9999OD139900501999REMSYN05801016 46/// /1504 11041 21047 30039 40055 57007 333 91105=
0089010160999992015011013004+78933+028900FM-12+002099999V0201401N004019999999N999999999-00411-00481100521ADDMA1999999100361MD1710091+9999REMSYN04801016 46/// /1404 11041 21048 30036 40052 57009=
0089010160999992015011014004+78933+028900FM-12+002099999V0201301N004019999999N999999999-00401-00501100501ADDMA1999999100351MD1710061+9999REMSYN04801016 46/// /1304 11040 21050 30035 40050 57006=
0089010160999992015011015004+78933+028900FM-12+002099999V0201201N005019999999N999999999-00381-00481100521ADDMA1999999100361MD1990031+9999REMSYN04801016 46/// /1205 11038 21048 30036 40052 50003=
0108010160999992015011016004+78933+028900FM-12+002099999V0200701N005019999999N999999999-00411-00501100521ADDMA1999999100371MD1410009+9999REMSYN04801016 46/// /0705 11041 21050 30037 40052 54001=EQDQ01.1    3APC3  
0089010160999992015011017004+78933+028900FM-12+002099999V0200801N005019999999N999999999-00451-00501100541ADDMA1999999100381MD1210041+9999REMSYN04801016 46/// /0805 11045 21050 30038 40054 52004=
0132010160999992015011018004+78933+028900FM-12+002099999V0200801N008019999999N999999999-00441-00501100591ADDKA1120M-00341MA1999999100441MD1110081+9999OD139900901999REMSYN06401016 46/// /0808 11044 21050 30044 40059 51008 333 11034 91109=
0089010160999992015011019004+78933+028900FM-12+002099999V0200801N008019999999N999999999-00541-00611100641ADDMA1999999100481MD1210111+9999REMSYN04801016 46/// /0808 11054 21061 30048 40064 52011=
0089010160999992015011020004+78933+028900FM-12+002099999V0200801N010019999999N999999999-00701-00781100681ADDMA1999999100521MD1210141+9999REMSYN04801016 46/// /0810 11070 21078 30052 40068 52014=
0089010160999992015011021004+78933+028900FM-12+002099999V0200801N011019999999N999999999-00751-00831100731ADDMA1999999100571MD1210131+9999REMSYN04801016 46/// /0811 11075 21083 30057 40073 52013=
0089010160999992015011022004+78933+028900FM-12+002099999V0200901N010019999999N999999999-00771-00851100791ADDMA1999999100631MD1210151+9999REMSYN04801016 46/// /0910 11077 21085 30063 40079 52015=
0089010160999992015011023004+78933+028900FM-12+002099999V0200901N009019999999N999999999-00771-00871100821ADDMA1999999100661MD1210141+9999REMSYN04801016 46/// /0909 11077 21087 30066 40082 52014=
0113010160999992015011100004+78933+028900FM-12+002099999V0200801N007019999999N999999999-00731-00841100891ADDMA1999999100731MD1210161+9999OD139901301999REMSYN05801016 46/// /0807 11073 21084 30073 40089 52016 333 91113=
0089010160999992015011101004+78933+028900FM-12+002099999V0200801N009019999999N999999999-00831-00951100921ADDMA1999999100761MD1210131+9999REMSYN04801016 46/// /0809 11083 21095 30076 40092 52013=
0089010160999992015011102004+78933+028900FM-12+002099999V0200701N008019999999N999999999-00901-01021100971ADDMA1999999100811MD1210151+9999REMSYN04801016 46/// /0708 11090 21102 30081 40097 52015=
0089010160999992015011103004+78933+028900FM-12+002099999V0200801N009019999999N999999999-01011-01131100981ADDMA1999999100821MD1210091+9999REMSYN04801016 46/// /0809 11101 21113 30082 40098 52009=
0089010160999992015011104004+78933+028900FM-12+002099999V0200701N006019999999N999999999-01141-01261101041ADDMA1999999100871MD1210111+9999REMSYN04801016 46/// /0706 11114 21126 30087 40104 52011=
0089010160999992015011105004+78933+028900FM-12+002099999V0200801N005019999999N999999999-01151-01281101091ADDMA1999999100931MD1110121+9999REMSYN04801016 46/// /0805 11115 21128 30093 40109 51012=
0132010160999992015011106004+78933+028900FM-12+002099999V0200801N005019999999N999999999-01181-01311101121ADDKA1240N-01191MA1999999100961MD1210141+9999OD139901101999REMSYN06401016 46/// /0805 11118 21131 30096 40112 52014 333 21119 91111=
0089010160999992015011107004+78933+028900FM-12+002099999V0200901N005019999999N999999999-01191-01321101151ADDMA1999999100981MD1310111+9999REMSYN04801016 46/// /0905 11119 21132 30098 40115 53011=
0089010160999992015011108004+78933+028900FM-12+002099999V0200801N005019999999N999999999-01281-01411101181ADDMA1999999101021MD1210091+9999REMSYN04801016 46/// /0805 11128 21141 30102 40118 52009=
0089010160999992015011109004+78933+028900FM-12+002099999V0200801N006019999999N999999999-01341-01471101221ADDMA1999999101061MD1210101+9999REMSYN04801016 46/// /0806 11134 21147 30106 40122 52010=
0089010160999992015011110004+78933+028900FM-12+002099999V0200901N005019999999N999999999-01331-01471101221ADDMA1999999101051MD1310071+9999REMSYN04801016 46/// /0905 11133 21147 30105 40122 53007=
0089010160999992015011111004+78933+028900FM-12+002099999V0201101N003019999999N999999999-01331-01521101251ADDMA1999999101081MD1210061+9999REMSYN04801016 46/// /1103 11133 21152 30108 40125 52006=
0113010160999992015011112004+78933+028900FM-12+002099999V0200801N003019999999N999999999-01371-01531101281ADDMA1999999101111MD1110061+9999OD139900601999REMSYN05801016 46/// /0803 11137 21153 30111 40128 51006 333 91106=
0089010160999992015011113004+78933+028900FM-12+002099999V0200701N003019999999N999999999-01331-01471101311ADDMA1999999101141MD1210091+9999REMSYN04801016 46/// /0703 11133 21147 30114 40131 52009=
0089010160999992015011114004+78933+028900FM-12+002099999V0200901N002019999999N999999999-01241-01391101311ADDMA1999999101141MD1210061+9999REMSYN04801016 46/// /0902 11124 21139 30114 40131 52006=
0108010160999992015011115004+78933+028900FM-12+002099999V0200801N002019999999N999999999-01231-01381101311ADDMA1999999101141MD1290039+9999REMSYN04801016 46/// /0802 11123 21138 30114 40131 54003=EQDQ01.3    3APC3  
0108010160999992015011116004+78933+028900FM-12+002099999V0201001N001019999999N999999999-01181-01331101331ADDMA1999999101161MD1290029+9999REMSYN04801016 46/// /1001 11118 21133 30116 40133 54002=EQDQ01.2    3APC3  
0089010160999992015011117004+78933+028900FM-12+002099999V0201501N001019999999N999999999-01071-01231101341ADDMA1999999101171MD1210031+9999REMSYN04801016 46/// /1501 11107 21123 30117 40134 52003=
0132010160999992015011118004+78933+028900FM-12+002099999V0202001N001019999999N999999999-01051-01231101341ADDKA1120M-00991MA1999999101171MD1210031+9999OD139900401999REMSYN06401016 46/// /2001 11105 21123 30117 40134 52003 333 11099 91104=
0108010160999992015011119004+78933+028900FM-12+002099999V0202201N003019999999N999999999-01131-01311101331ADDMA1999999101171MD1410009+9999REMSYN04801016 46/// /2203 11113 21131 30117 40133 54001=EQDQ01.1    3APC3  
0108010160999992015011120004+78933+028900FM-12+002099999V0202001N003019999999N999999999-01111-01321101331ADDMA1999999101171MD1790019+9999REMSYN04801016 46/// /2003 11111 21132 30117 40133 54001=EQDQ01.1    3APC3  
0108010160999992015011121004+78933+028900FM-12+002099999V0202001N003019999999N999999999-01301-01521101311ADDMA1999999101141MD1790039+9999REMSYN04801016 46/// /2003 11130 21152 30114 40131 54003=EQDQ01.3    3APC3  
0108010160999992015011122004+78933+028900FM-12+002099999V0202301N002019999999N999999999-01151-01381101311ADDMA1999999101151MD1790029+9999REMSYN04801016 46/// /2302 11115 21138 30115 40131 54002=EQDQ01.2    3APC3  
0108010160999992015011123004+78933+028900FM-12+002099999V0202401N003019999999N999999999-01091-01311101311ADDMA1999999101141MD1790029+9999REMSYN04801016 46/// /2403 11109 21131 30114 40131 54002=EQDQ01.2    3APC3  
0132010160999992015011200004+78933+028900FM-12+002099999V0202101N004019999999N999999999-01021-01211101301ADDMA1999999101141MD1790019+9999OD139900501999REMSYN05801016 46/// /2104 11102 21121 30114 40130 54001 333 91105=EQDQ01.1    3APC3  
0089010160999992015011201004+78933+028900FM-12+002099999V0202001N005019999999N999999999-01221-01391101251ADDMA1999999101081MD1610061+9999REMSYN04801016 46/// /2005 11122 21139 30108 40125 56006=
0089010160999992015011202004+78933+028900FM-12+002099999V0202301N002019999999N999999999-01511-01621101241ADDMA1999999101071MD1710071+9999REMSYN04801016 46/// /2302 11151 21162 30107 40124 57007=
0089010160999992015011203004+78933+028900FM-12+002099999V0202301N003019999999N999999999-01531-01631101181ADDMA1999999101011MD1710121+9999REMSYN04801016 46/// /2303 11153 21163 30101 40118 57012=
0089010160999992015011204004+78933+028900FM-12+002099999V0202201N001019999999N999999999-01481-01611101151ADDMA1999999100981MD1710101+9999REMSYN04801016 46/// /2201 11148 21161 30098 40115 57010=
0089010160999992015011205004+78933+028900FM-12+002099999V0202201N001019999999N999999999-01501-01641101121ADDMA1999999100961MD1810111+9999REMSYN04801016 46/// /2201 11150 21164 30096 40112 58011=
0132010160999992015011206004+78933+028900FM-12+002099999V0202101N001019999999N999999999-01641-01811101081ADDKA1240N-01641MA1999999100911MD1710101+9999OD139900501999REMSYN06401016 46/// /2101 11164 21181 30091 40108 57010 333 21164 91105=
0089010160999992015011207004+78933+028900FM-12+002099999V0209999C999999999999N999999999-01731-01901101061ADDMA1999999100901MD1710081+9999REMSYN04801016 46/// /0000 11173 21190 30090 40106 57008=
0089010160999992015011208004+78933+028900FM-12+002099999V0209999C999999999999N999999999-01591-01741101041ADDMA1999999100881MD1710081+9999REMSYN04801016 46/// /0000 11159 21174 30088 40104 57008=
0089010160999992015011209004+78933+028900FM-12+002099999V0201801N002019999999N999999999-01611-01761101001ADDMA1999999100831MD1710081+9999REMSYN04801016 46/// /1802 11161 21176 30083 40100 57008=
0089010160999992015011210004+78933+028900FM-12+002099999V0209999C999999999999N999999999-01641-01801100961ADDMA1999999100791MD1710101+9999REMSYN04801016 46/// /0000 11164 21180 30079 40096 57010=
0089010160999992015011211004+78933+028900FM-12+002099999V0209999C999999999999N999999999-01681-01801100941ADDMA1999999100771MD1710111+9999REMSYN04801016 46/// /0000 11168 21180 30077 40094 57011=
0113010160999992015011212004+78933+028900FM-12+002099999V0209999C999999999999N999999999-01441-01571100871ADDMA1999999100701MD1710131+9999OD139900301999REMSYN05801016 46/// /0000 11144 21157 30070 40087 57013 333 91103=
0089010160999992015011213004+78933+028900FM-12+002099999V0202901N003019999999N999999999-01391-01521100801ADDMA1999999100641MD1610151+9999REMSYN04801016 46/// /2903 11139 21152 30064 40080 56015=
0089010160999992015011214004+78933+028900FM-12+002099999V0203101N002019999999N999999999-01391-01501100731ADDMA1999999100561MD1710211+9999REMSYN04801016 46/// /3102 11139 21150 30056 40073 57021=
0089010160999992015011215004+78933+028900FM-12+002099999V0202701N002019999999N999999999-01251-01381100711ADDMA1999999100551MD1810161+9999REMSYN04801016 46/// /2702 11125 21138 30055 40071 58016=
0089010160999992015011216004+78933+028900FM-12+002099999V0203301N003019999999N999999999-01251-01391100641ADDMA1999999100481MD1710161+9999REMSYN04801016 46/// /3303 11125 21139 30048 40064 57016=
0089010160999992015011217004+78933+028900FM-12+002099999V0203001N007019999999N999999999-01171-01311100531ADDMA1999999100371MD1610191+9999REMSYN04801016 46/// /3007 11117 21131 30037 40053 56019=
0132010160999992015011218004+78933+028900FM-12+002099999V0203101N007019999999N999999999-01121-01251100521ADDKA1120M-01101MA1999999100361MD1810191+9999OD139900801999REMSYN06401016 46/// /3107 11112 21125 30036 40052 58019 333 11110 91108=
0089010160999992015011219004+78933+028900FM-12+002099999V0203201N007019999999N999999999-01301-01431100481ADDMA1999999100311MD1810161+9999REMSYN04801016 46/// /3207 11130 21143 30031 40048 58016=
0089010160999992015011220004+78933+028900FM-12+002099999V0203201N006019999999N999999999-01241-01361100441ADDMA1999999100281MD1710091+9999REMSYN04801016 46/// /3206 11124 21136 30028 40044 57009=
0089010160999992015011221004+78933+028900FM-12+002099999V0200201N004019999999N999999999-00831-00911100421ADDMA1999999100261MD1710101+9999REMSYN04801016 46/// /0204 11083 21091 30026 40042 57010=
0089010160999992015011222004+78933+028900FM-12+002099999V0200501N004019999999N999999999-00821-00901100401ADDMA1999999100241MD1710081+9999REMSYN04801016 46/// /0504 11082 21090 30024 40040 57008=
0089010160999992015011223004+78933+028900FM-12+002099999V0200601N008019999999N999999999-00911-01001100381ADDMA1999999100221MD1710061+9999REMSYN04801016 46/// /0608 11091 21100 30022 40038 57006=
0113010160999992015011300004+78933+028900FM-12+002099999V0200501N007019999999N999999999-01131-01231100411ADDMA1999999100251MD1990011+9999OD139901001999REMSYN05801016 46/// /0507 11113 21123 30025 40041 50001 333 91110=
0089010160999992015011301004+78933+028900FM-12+002099999V0200401N005019999999N999999999-01231-01351100431ADDMA1999999100271MD1110031+9999REMSYN04801016 46/// /0405 11123 21135 30027 40043 51003=
0089010160999992015011302004+78933+028900FM-12+002099999V0200501N006019999999N999999999-01211-01331100441ADDMA1999999100281MD1210061+9999REMSYN04801016 46/// /0506 11121 21133 30028 40044 52006=
0089010160999992015011303004+78933+028900FM-12+002099999V0200601N007019999999N999999999-01221-01341100451ADDMA1999999100291MD1210041+9999REMSYN04801016 46/// /0607 11122 21134 30029 40045 52004=
0089010160999992015011304004+78933+028900FM-12+002099999V0200401N005019999999N999999999-01071-01181100431ADDMA1999999100271MD1410001+9999REMSYN04801016 46/// /0405 11107 21118 30027 40043 54000=
0089010160999992015011305004+78933+028900FM-12+002099999V0200601N006019999999N999999999-01011-01121100471ADDMA1999999100311MD1210031+9999REMSYN04801016 46/// /0606 11101 21112 30031 40047 52003=
0132010160999992015011306004+78933+028900FM-12+002099999V0200701N006019999999N999999999-01101-01211100521ADDKA1240N-01331MA1999999100361MD1110071+9999OD139900901999REMSYN06401016 46/// /0706 11110 21121 30036 40052 51007 333 21133 91109=
0089010160999992015011307004+78933+028900FM-12+002099999V0200501N008019999999N999999999-01421-01561100541ADDMA1999999100381MD1210101+9999REMSYN04801016 46/// /0508 11142 21156 30038 40054 52010=
0089010160999992015011308004+78933+028900FM-12+002099999V0200601N007019999999N999999999-01531-01661100601ADDMA1999999100431MD1210131+9999REMSYN04801016 46/// /0607 11153 21166 30043 40060 52013=
0089010160999992015011309004+78933+028900FM-12+002099999V0200601N005019999999N999999999-01551-01691100621ADDMA1999999100451MD1210091+9999REMSYN04801016 46/// /0605 11155 21169 30045 40062 52009=
0089010160999992015011310004+78933+028900FM-12+002099999V0200701N002019999999N999999999-01411-01551100641ADDMA1999999100481MD1210101+9999REMSYN04801016 46/// /0702 11141 21155 30048 40064 52010=
0089010160999992015011311004+78933+028900FM-12+002099999V0200501N001019999999N999999999-01451-01591100681ADDMA1999999100521MD1210091+9999REMSYN04801016 46/// /0501 11145 21159 30052 40068 52009=
0113010160999992015011312004+78933+028900FM-12+002099999V0209999C999999999999N999999999-01291-01421100681ADDMA1999999100521MD1210071+9999OD139900901999REMSYN05801016 46/// /0000 11129 21142 30052 40068 52007 333 91109=
0089010160999992015011313004+78933+028900FM-12+002099999V0200601N001019999999N999999999-01201-01321100681ADDMA1999999100511MD1310031+9999REMSYN04801016 46/// /0601 11120 21132 30051 40068 53003=
0089010160999992015011314004+78933+028900FM-12+002099999V0200501N001019999999N999999999-01171-01291100681ADDMA1999999100511MD1410001+9999REMSYN04801016 46/// /0501 11117 21129 30051 40068 54000=
0108010160999992015011315004+78933+028900FM-12+002099999V0200501N001019999999N999999999-01151-01271100671ADDMA1999999100501MD1790019+9999REMSYN04801016 46/// /0501 11115 21127 30050 40067 54001=EQDQ01.1    3APC3  
0089010160999992015011316004+78933+028900FM-12+002099999V0200701N001019999999N999999999-01011-01121100671ADDMA1999999100511MD1410001+9999REMSYN04801016 46/// /0701 11101 21112 30051 40067 54000=
0089010160999992015011317004+78933+028900FM-12+002099999V0200901N001019999999N999999999-01061-01171100681ADDMA1999999100521MD1410001+9999REMSYN04801016 46/// /0901 11106 21117 30052 40068 54000=
0132010160999992015011318004+78933+028900FM-12+002099999V0200801N001019999999N999999999-01141-01261100711ADDKA1120M-01011MA1999999100541MD1210041+9999OD139900201999REMSYN06401016 46/// /0801 11114 21126 30054 40071 52004 333 11101 91102=
0089010160999992015011319004+78933+028900FM-12+002099999V0200801N002019999999N999999999-01281-01411100731ADDMA1999999100571MD1210061+9999REMSYN04801016 46/// /0802 11128 21141 30057 40073 52006=
0089010160999992015011320004+78933+028900FM-12+002099999V0200601N006019999999N999999999-01641-01801100771ADDMA1999999100601MD1210081+9999REMSYN04801016 46/// /0606 11164 21180 30060 40077 52008=
0089010160999992015011321004+78933+028900FM-12+002099999V0200701N006019999999N999999999-01921-02101100791ADDMA1999999100621MD1210081+9999REMSYN04801016 46/// /0706 11192 21210 30062 40079 52008=
0089010160999992015011322004+78933+028900FM-12+002099999V0200601N005019999999N999999999-01921-02091100811ADDMA1999999100641MD1210071+9999REMSYN04801016 46/// /0605 11192 21209 30064 40081 52007=
0089010160999992015011323004+78933+028900FM-12+002099999V0200701N004019999999N999999999-01751-01911100821ADDMA1999999100651MD1210051+9999REMSYN04801016 46/// /0704 11175 21191 30065 40082 52005=
0132010160999992015011400004+78933+028900FM-12+002099999V0200601N004019999999N999999999-01791-01961100811ADDMA1999999100641MD1290029+9999OD139900701999REMSYN05801016 46/// /0604 11179 21196 30064 40081 54002 333 91107=EQDQ01.2    3APC3  
0108010160999992015011401004+78933+028900FM-12+002099999V0200501N003019999999N999999999-02031-02211100791ADDMA1999999100621MD1790029+9999REMSYN04801016 46/// /0503 11203 21221 30062 40079 54001=EQDQ01.1    3APC3  
0089010160999992015011402004+78933+028900FM-12+002099999V0200501N002019999999N999999999-02341-02541100781ADDMA1999999100601MD1710051+9999REMSYN04801016 46/// /0502 11234 21254 30060 40078 57005=
0089010160999992015011403004+78933+028900FM-12+002099999V0200401N002019999999N999999999-02361-02561100781ADDMA1999999100611MD1710031+9999REMSYN04801016 46/// /0402 11236 21256 30061 40078 57003=
0108010160999992015011404004+78933+028900FM-12+002099999V0200401N002019999999N999999999-02451-02661100771ADDMA1999999100601MD1790029+9999REMSYN04801016 46/// /0402 11245 21266 30060 40077 54002=EQDQ01.2    3APC3  
0108010160999992015011405004+78933+028900FM-12+002099999V0200401N002019999999N999999999-02341-02541100801ADDMA1999999100621MD1290029+9999REMSYN04801016 46/// /0402 11234 21254 30062 40080 54002=EQDQ01.2    3APC3  
0151010160999992015011406004+78933+028900FM-12+002099999V0200501N001019999999N999999999-01951-02121100791ADDKA1240N-02451MA1999999100621MD1290019+9999OD139900401999REMSYN06401016 46/// /0501 11195 21212 30062 40079 54001 333 21245 91104=EQDQ01.1    3APC3  
0108010160999992015011407004+78933+028900FM-12+002099999V0200601N001019999999N999999999-01681-01831100791ADDMA1999999100621MD1290029+9999REMSYN04801016 46/// /0601 11168 21183 30062 40079 54002=EQDQ01.2    3APC3  
0089010160999992015011408004+78933+028900FM-12+002099999V0200601N002019999999N999999999-01731-01891100801ADDMA1999999100631MD1410001+9999REMSYN04801016 46/// /0602 11173 21189 30063 40080 54000=
0089010160999992015011409004+78933+028900FM-12+002099999V0200401N001019999999N999999999-02041-02231100821ADDMA1999999100651MD1210041+9999REMSYN04801016 46/// /0401 11204 21223 30065 40082 52004=
0089010160999992015011410004+78933+028900FM-12+002099999V0200401N001019999999N999999999-02191-02391100831ADDMA1999999100661MD1210041+9999REMSYN04801016 46/// /0401 11219 21239 30066 40083 52004=
0089010160999992015011411004+78933+028900FM-12+002099999V0200501N001019999999N999999999-02281-02481100841ADDMA1999999100671MD1210041+9999REMSYN04801016 46/// /0501 11228 21248 30067 40084 52004=
0113010160999992015011412004+78933+028900FM-12+002099999V0200501N001019999999N999999999-02261-02461100821ADDMA1999999100651MD1510011+9999OD139900201999REMSYN05801016 46/// /0501 11226 21246 30065 40082 55001 333 91102=
0108010160999992015011413004+78933+028900FM-12+002099999V0200501N001019999999N999999999-02361-02571100841ADDMA1999999100671MD1290019+9999REMSYN04801016 46/// /0501 11236 21257 30067 40084 54001=EQDQ014     3APCTEN
0089010160999992015011414004+78933+028900FM-12+002099999V0200601N001019999999N999999999-02461-02671100871ADDMA1999999100701MD1990031+9999REMSYN04801016 46/// /0601 11246 21267 30070 40087 50003=
0089010160999992015011415004+78933+028900FM-12+002099999V0200601N001019999999N999999999-02391-02601100851ADDMA1999999100681MD1510031+9999REMSYN04801016 46/// /0601 11239 21260 30068 40085 55003=
0108010160999992015011416004+78933+028900FM-12+002099999V0200501N001019999999N999999999-02591-02811100851ADDMA1999999100681MD1290019+9999REMSYN04801016 46/// /0501 11259 21281 30068 40085 54001=EQDQ01.1    3APC3  
0089010160999992015011417004+78933+028900FM-12+002099999V0200601N001019999999N999999999-02621-02841100861ADDMA1999999100691MD1990011+9999REMSYN04801016 46/// /0601 11262 21284 30069 40086 50001=
0132010160999992015011418004+78933+028900FM-12+002099999V0200301N001019999999N999999999-02571-02791100891ADDKA1120M-01631MA1999999100711MD1210041+9999OD139900201999REMSYN06401016 46/// /0301 11257 21279 30071 40089 52004 333 11163 91102=
0089010160999992015011419004+78933+028900FM-12+002099999V0200301N001019999999N999999999-02511-02731100911ADDMA1999999100741MD1210061+9999REMSYN04801016 46/// /0301 11251 21273 30074 40091 52006=
0089010160999992015011420004+78933+028900FM-12+002099999V0200301N001019999999N999999999-02441-02651100901ADDMA1999999100731MD1310041+9999REMSYN04801016 46/// /0301 11244 21265 30073 40090 53004=
0089010160999992015011421004+78933+028900FM-12+002099999V0200301N001019999999N999999999-02561-02781100891ADDMA1999999100711MD1510001+9999REMSYN04801016 46/// /0301 11256 21278 30071 40089 55000=
0108010160999992015011422004+78933+028900FM-12+002099999V0200401N001019999999N999999999-02531-02751100881ADDMA1999999100711MD1790039+9999REMSYN04801016 46/// /0401 11253 21275 30071 40088 54003=EQDQ01.3    3APC3  
0108010160999992015011423004+78933+028900FM-12+002099999V0200501N001019999999N999999999-02681-02911100881ADDMA1999999100701MD1790029+9999REMSYN04801016 46/// /0501 11268 21291 30070 40088 54002=EQDQ01.2    3APC3  
0113010160999992015011500004+78933+028900FM-12+002099999V0200401N001019999999N999999999-02721-02961100891ADDMA1999999100721MD1410001+9999OD139900101999REMSYN05801016 46/// /0401 11272 21296 30072 40089 54000 333 91101=
0089010160999992015011501004+78933+028900FM-12+002099999V0209999C999999999999N999999999-02771-03011100881ADDMA1999999100711MD1410001+9999REMSYN04801016 46/// /0000 11277 21301 30071 40088 54000=
0089010160999992015011502004+78933+028900FM-12+002099999V0209999C999999999999N999999999-02721-02951100861ADDMA1999999100691MD1510011+9999REMSYN04801016 46/// /0000 11272 21295 30069 40086 55001=
0089010160999992015011503004+78933+028900FM-12+002099999V0200501N001019999999N999999999-02671-02901100851ADDMA1999999100681MD1710041+9999REMSYN04801016 46/// /0501 11267 21290 30068 40085 57004=
0089010160999992015011504004+78933+028900FM-12+002099999V0200501N001019999999N999999999-02771-03011100831ADDMA1999999100651MD1710051+9999REMSYN04801016 46/// /0501 11277 21301 30065 40083 57005=
0089010160999992015011505004+78933+028900FM-12+002099999V0200501N001019999999N999999999-02721-02961100811ADDMA1999999100631MD1710051+9999REMSYN04801016 46/// /0501 11272 21296 30063 40081 57005=
0132010160999992015011506004+78933+028900FM-12+002099999V0200601N001019999999N999999999-02671-02901100821ADDKA1240N-02771MA1999999100651MD1810031+9999OD139900101999REMSYN06401016 46/// /0601 11267 21290 30065 40082 58003 333 21277 91101=
0108010160999992015011507004+78933+028900FM-12+002099999V0209999C999999999999N999999999-02631-02861100821ADDMA1999999100651MD1790019+9999REMSYN04801016 46/// /0000 11263 21286 30065 40082 54001=EQDQ01.1    3APC3  
0108010160999992015011508004+78933+028900FM-12+002099999V0209999C999999999999N999999999-02541-02761100821ADDMA1999999100651MD1290019+9999REMSYN04801016 46/// /0000 11254 21276 30065 40082 54001=EQDQ01.1    3APC3  
0108010160999992015011509004+78933+028900FM-12+002099999V0209999C999999999999N999999999-02591-02821100851ADDMA1999999100671MD1290039+9999REMSYN04801016 46/// /0000 11259 21282 30067 40085 54003=EQDQ01.3    3APC3  
0089010160999992015011510004+78933+028900FM-12+002099999V0209999C999999999999N999999999-02491-02711100871ADDMA1999999100701MD1210051+9999REMSYN04801016 46/// /0000 11249 21271 30070 40087 52005=
0089010160999992015011511004+78933+028900FM-12+002099999V0209999C999999999999N999999999-02431-02651100911ADDMA1999999100741MD1210091+9999REMSYN04801016 46/// /0000 11243 21265 30074 40091 52009=
0113010160999992015011512004+78933+028900FM-12+002099999V0209999C999999999999N999999999-02351-02561100921ADDMA1999999100751MD1210081+9999OD139900101999REMSYN05801016 46/// /0000 11235 21256 30075 40092 52008 333 91101=
0089010160999992015011513004+78933+028900FM-12+002099999V0209999C999999999999N999999999-02361-02571100951ADDMA1999999100781MD1210081+9999REMSYN04801016 46/// /0000 11236 21257 30078 40095 52008=
0089010160999992015011514004+78933+028900FM-12+002099999V0209999C999999999999N999999999-02141-02331100961ADDMA1999999100791MD1210051+9999REMSYN04801016 46/// /0000 11214 21233 30079 40096 52005=
0089010160999992015011515004+78933+028900FM-12+002099999V0209999C999999999999N999999999-02081-02271100981ADDMA1999999100811MD1210051+9999REMSYN04801016 46/// /0000 11208 21227 30081 40098 52005=
0089010160999992015011516004+78933+028900FM-12+002099999V0209999C999999999999N999999999-02041-02231100991ADDMA1999999100821MD1210041+9999REMSYN04801016 46/// /0000 11204 21223 30082 40099 52004=
0089010160999992015011517004+78933+028900FM-12+002099999V0209999C999999999999N999999999-02041-02231101011ADDMA1999999100841MD1210061+9999REMSYN04801016 46/// /0000 11204 21223 30084 40101 52006=
0132010160999992015011518004+78933+028900FM-12+002099999V0209999C999999999999N999999999-01921-02101101031ADDKA1120M-01921MA1999999100861MD1210061+9999OD139900001999REMSYN06401016 46/// /0000 11192 21210 30086 40103 52006 333 11192 91100=
0089010160999992015011519004+78933+028900FM-12+002099999V0209999C999999999999N999999999-01801-01971101081ADDMA1999999100911MD1210091+9999REMSYN04801016 46/// /0000 11180 21197 30091 40108 52009=
0089010160999992015011520004+78933+028900FM-12+002099999V0209999C999999999999N999999999-01771-01941101091ADDMA1999999100921MD1210081+9999REMSYN04801016 46/// /0000 11177 21194 30092 40109 52008=
0089010160999992015011521004+78933+028900FM-12+002099999V0209999C999999999999N999999999-01761-01931101101ADDMA1999999100931MD1310071+9999REMSYN04801016 46/// /0000 11176 21193 30093 40110 53007=
0089010160999992015011522004+78933+028900FM-12+002099999V0209999C999999999999N999999999-01761-01931101121ADDMA1999999100951MD1210041+9999REMSYN04801016 46/// /0000 11176 21193 30095 40112 52004=
0089010160999992015011523004+78933+028900FM-12+002099999V0209999C999999999999N999999999-01761-01931101141ADDMA1999999100971MD1210051+9999REMSYN04801016 46/// /0000 11176 21193 30097 40114 52005=
0113010160999992015011600004+78933+028900FM-12+002099999V0209999C999999999999N999999999-01751-01921101131ADDMA1999999100961MD1210031+9999OD139900001999REMSYN05801016 46/// /0000 11175 21192 30096 40113 52003 333 91100=
0108010160999992015011601004+78933+028900FM-12+002099999V0209999C999999999999N999999999-01741-01911101141ADDMA1999999100971MD1290029+9999REMSYN04801016 46/// /0000 11174 21191 30097 40114 54002=EQDQ01.2    3APC3  
0089010160999992015011602004+78933+028900FM-12+002099999V0209999C999999999999N999999999-01731-01901101141ADDMA1999999100971MD1410001+9999REMSYN04801016 46/// /0000 11173 21190 30097 40114 54000=
0089010160999992015011603004+78933+028900FM-12+002099999V0209999C999999999999N999999999-01751-01921101141ADDMA1999999100971MD1410001+9999REMSYN04801016 46/// /0000 11175 21192 30097 40114 54000=
0108010160999992015011604004+78933+028900FM-12+002099999V0209999C999999999999N999999999-01771-01941101151ADDMA1999999100981MD1290019+9999REMSYN04801016 46/// /0000 11177 21194 30098 40115 54001=EQDQ01.1    3APC3  
0089010160999992015011605004+78933+028900FM-12+002099999V0209999C999999999999N999999999-01781-01951101141ADDMA1999999100971MD1410001+9999REMSYN04801016 46/// /0000 11178 21195 30097 40114 54000=
0151010160999992015011606004+78933+028900FM-12+002099999V0209999C999999999999N999999999-01811-01981101151ADDKA1240N-01911MA1999999100981MD1290019+9999OD139900001999REMSYN06401016 46/// /0000 11181 21198 30098 40115 54001 333 21191 91100=EQDQ01.1    3APC3  
0108010160999992015011607004+78933+028900FM-12+002099999V0209999C999999999999N999999999-01861-02041101161ADDMA1999999101001MD1290019+9999REMSYN04801016 46/// /0000 11186 21204 30100 40116 54001=EQDQ01.1    3APC3  
0089010160999992015011608004+78933+028900FM-12+002099999V0209999C999999999999N999999999-01901-02081101201ADDMA1999999101031MD1210061+9999REMSYN04801016 46/// /0000 11190 21208 30103 40120 52006=
0089010160999992015011609004+78933+028900FM-12+002099999V0209999C999999999999N999999999-01861-02031101211ADDMA1999999101041MD1210071+9999REMSYN04801016 46/// /0000 11186 21203 30104 40121 52007=
0089010160999992015011610004+78933+028900FM-12+002099999V0200301N001019999999N999999999-01871-02051101221ADDMA1999999101051MD1210051+9999REMSYN04801016 46/// /0301 11187 21205 30105 40122 52005=
0108010160999992015011611004+78933+028900FM-12+002099999V0200501N001019999999N999999999-01881-02061101211ADDMA1999999101041MD1290019+9999REMSYN04801016 46/// /0501 11188 21206 30104 40121 54001=EQDQ01.1    3APC3  
0113010160999992015011612004+78933+028900FM-12+002099999V0200501N001019999999N999999999-01951-02131101211ADDMA1999999101041MD1410001+9999OD139900101999REMSYN05801016 46/// /0501 11195 21213 30104 40121 54000 333 91101=
0108010160999992015011613004+78933+028900FM-12+002099999V0200501N001019999999N999999999-02021-02211101201ADDMA1999999101031MD1790029+9999REMSYN04801016 46/// /0501 11202 21221 30103 40120 54002=EQDQ01.2    3APC3  
0108010160999992015011614004+78933+028900FM-12+002099999V0200401N001019999999N999999999-02271-02481101221ADDMA1999999101051MD1290019+9999REMSYN04801016 46/// /0401 11227 21248 30105 40122 54001=EQDQ01.1    3APC3  
0089010160999992015011615004+78933+028900FM-12+002099999V0200401N001019999999N999999999-02471-02691101241ADDMA1999999101071MD1990021+9999REMSYN04801016 46/// /0401 11247 21269 30107 40124 50002=
0089010160999992015011616004+78933+028900FM-12+002099999V0200401N001019999999N999999999-02591-02821101251ADDMA1999999101071MD1210041+9999REMSYN04801016 46/// /0401 11259 21282 30107 40125 52004=
0089010160999992015011617004+78933+028900FM-12+002099999V0200401N001019999999N999999999-02691-02921101231ADDMA1999999101051MD1510001+9999REMSYN04801016 46/// /0401 11269 21292 30105 40123 55000=
0132010160999992015011618004+78933+028900FM-12+002099999V0200401N001019999999N999999999-02761-03001101261ADDKA1120M-01811MA1999999101091MD1990021+9999OD139900101999REMSYN06401016 46/// /0401 11276 21300 30109 40126 50002 333 11181 91101=
0108010160999992015011619004+78933+028900FM-12+002099999V0200401N001019999999N999999999-02771-03011101261ADDMA1999999101091MD1290019+9999REMSYN04801016 46/// /0401 11277 21301 30109 40126 54001=EQDQ01.1    3APC3  
0089010160999992015011620004+78933+028900FM-12+002099999V0200401N001019999999N999999999-02801-03041101301ADDMA1999999101121MD1210071+9999REMSYN04801016 46/// /0401 11280 21304 30112 40130 52007=
0089010160999992015011621004+78933+028900FM-12+002099999V0200401N001019999999N999999999-02861-03101101311ADDMA1999999101141MD1210051+9999REMSYN04801016 46/// /0401 11286 21310 30114 40131 52005=
0089010160999992015011622004+78933+028900FM-12+002099999V0200301N001019999999N999999999-02881-03131101321ADDMA1999999101141MD1310051+9999REMSYN04801016 46/// /0301 11288 21313 30114 40132 53005=
0089010160999992015011623004+78933+028900FM-12+002099999V0200301N001019999999N999999999-02911-03161101301ADDMA1999999101131MD1510001+9999REMSYN04801016 46/// /0301 11291 21316 30113 40130 55000=
0132010160999992015011700004+78933+028900FM-12+002099999V0200301N001019999999N999999999-02951-03201101331ADDMA1999999101161MD1290029+9999OD139900101999REMSYN05801016 46/// /0301 11295 21320 30116 40133 54002 333 91101=EQDQ01.2    3APC3  
0108010160999992015011701004+78933+028900FM-12+002099999V0200301N001019999999N999999999-02991-03241101341ADDMA1999999101161MD1290029+9999REMSYN04801016 46/// /0301 11299 21324 30116 40134 54002=EQDQ01.2    3APC3  
0089010160999992015011702004+78933+028900FM-12+002099999V0200301N001019999999N999999999-03001-03251101361ADDMA1999999101181MD1210051+9999REMSYN04801016 46/// /0301 11300 21325 30118 40136 52005=
0108010160999992015011703004+78933+028900FM-12+002099999V0200301N001019999999N999999999-02931-03181101351ADDMA1999999101171MD1290029+9999REMSYN04801016 46/// /0301 11293 21318 30117 40135 54002=EQDQ01.2    3APC3  
0089010160999992015011704004+78933+028900FM-12+002099999V0200301N001019999999N999999999-02911-03161101341ADDMA1999999101161MD1410001+9999REMSYN04801016 46/// /0301 11291 21316 30116 40134 54000=
0108010160999992015011705004+78933+028900FM-12+002099999V0200301N001019999999N999999999-02971-03231101351ADDMA1999999101171MD1790019+9999REMSYN04801016 46/// /0301 11297 21323 30117 40135 54001=EQDQ01.1    3APC3  
0132010160999992015011706004+78933+028900FM-12+002099999V0200301N001019999999N999999999-03001-03251101371ADDKA1240N-03071MA1999999101201MD1990021+9999OD139900101999REMSYN06401016 46/// /0301 11300 21325 30120 40137 50002 333 21307 91101=
0089010160999992015011707004+78933+028900FM-12+002099999V0200201N001019999999N999999999-02911-03161101371ADDMA1999999101191MD1210031+9999REMSYN04801016 46/// /0201 11291 21316 30119 40137 52003=
0089010160999992015011708004+78933+028900FM-12+002099999V0200201N001019999999N999999999-02951-03201101401ADDMA1999999101221MD1210051+9999REMSYN04801016 46/// /0201 11295 21320 30122 40140 52005=
0089010160999992015011709004+78933+028900FM-12+002099999V0209999C999999999999N999999999-02841-03091101431ADDMA1999999101251MD1210051+9999REMSYN04801016 46/// /0000 11284 21309 30125 40143 52005=
0089010160999992015011710004+78933+028900FM-12+002099999V0209999C999999999999N999999999-02881-03131101451ADDMA1999999101271MD1210081+9999REMSYN04801016 46/// /0000 11288 21313 30127 40145 52008=
0089010160999992015011711004+78933+028900FM-12+002099999V0209999C999999999999N999999999-02901-03151101471ADDMA1999999101291MD1210071+9999REMSYN04801016 46/// /0000 11290 21315 30129 40147 52007=
0113010160999992015011712004+78933+028900FM-12+002099999V0209999C999999999999N999999999-02981-03231101501ADDMA1999999101321MD1210071+9999OD139900101999REMSYN05801016 46/// /0000 11298 21323 30132 40150 52007 333 91101=
0089010160999992015011713004+78933+028900FM-12+002099999V0209999C999999999999N999999999-02801-03041101501ADDMA1999999101321MD1210051+9999REMSYN04801016 46/// /0000 11280 21304 30132 40150 52005=
0089010160999992015011714004+78933+028900FM-12+002099999V0209999C999999999999N999999999-02861-03111101541ADDMA1999999101371MD1210071+9999REMSYN04801016 46/// /0000 11286 21311 30137 40154 52007=
0089010160999992015011715004+78933+028900FM-12+002099999V0209999C999999999999N999999999-02781-03021101561ADDMA1999999101381MD1210061+9999REMSYN04801016 46/// /0000 11278 21302 30138 40156 52006=
0089010160999992015011716004+78933+028900FM-12+002099999V0209999C999999999999N999999999-02811-03051101601ADDMA1999999101421MD1210101+9999REMSYN04801016 46/// /0000 11281 21305 30142 40160 52010=
0089010160999992015011717004+78933+028900FM-12+002099999V0209999C999999999999N999999999-02831-03081101611ADDMA1999999101431MD1210061+9999REMSYN04801016 46/// /0000 11283 21308 30143 40161 52006=
0132010160999992015011718004+78933+028900FM-12+002099999V0209999C999999999999N999999999-02861-03101101631ADDKA1120M-02751MA1999999101451MD1210071+9999OD139900001999REMSYN06401016 46/// /0000 11286 21310 30145 40163 52007 333 11275 91100=
0089010160999992015011719004+78933+028900FM-12+002099999V0209999C999999999999N999999999-02901-03151101641ADDMA1999999101471MD1210041+9999REMSYN04801016 46/// /0000 11290 21315 30147 40164 52004=
0089010160999992015011720004+78933+028900FM-12+002099999V0209999C999999999999N999999999-02981-03241101681ADDMA1999999101501MD1210071+9999REMSYN04801016 46/// /0000 11298 21324 30150 40168 52007=
0089010160999992015011721004+78933+028900FM-12+002099999V0209999C999999999999N999999999-02861-03111101711ADDMA1999999101531MD1210081+9999REMSYN04801016 46/// /0000 11286 21311 30153 40171 52008=
0089010160999992015011722004+78933+028900FM-12+002099999V0209999C999999999999N999999999-02881-03131101711ADDMA1999999101541MD1210071+9999REMSYN04801016 46/// /0000 11288 21313 30154 40171 52007=
0089010160999992015011723004+78933+028900FM-12+002099999V0209999C999999999999N999999999-02921-03171101711ADDMA1999999101531MD1510031+9999REMSYN04801016 46/// /0000 11292 21317 30153 40171 55003=
0113010160999992015011800004+78933+028900FM-12+002099999V0209999C999999999999N999999999-02981-03241101681ADDMA1999999101511MD1510021+9999OD139900001999REMSYN05801016 46/// /0000 11298 21324 30151 40168 55002 333 91100=
0089010160999992015011801004+78933+028900FM-12+002099999V0209999C999999999999N999999999-02981-03241101641ADDMA1999999101461MD1610071+9999REMSYN04801016 46/// /0000 11298 21324 30146 40164 56007=
0089010160999992015011802004+78933+028900FM-12+002099999V0209999C999999999999N999999999-02791-03031101621ADDMA1999999101451MD1710081+9999REMSYN04801016 46/// /0000 11279 21303 30145 40162 57008=
0089010160999992015011803004+78933+028900FM-12+002099999V0209999C999999999999N999999999-02661-02891101581ADDMA1999999101411MD1710101+9999REMSYN04801016 46/// /0000 11266 21289 30141 40158 57010=
0089010160999992015011804004+78933+028900FM-12+002099999V0209999C999999999999N999999999-02581-02811101561ADDMA1999999101381MD1710081+9999REMSYN04801016 46/// /0000 11258 21281 30138 40156 57008=
0089010160999992015011805004+78933+028900FM-12+002099999V0209999C999999999999N999999999-02321-02531101501ADDMA1999999101331MD1710121+9999REMSYN04801016 46/// /0000 11232 21253 30133 40150 57012=
0132010160999992015011806004+78933+028900FM-12+002099999V0209999C999999999999N999999999-02021-02211101451ADDKA1240N-03031MA1999999101281MD1710131+9999OD139900001999REMSYN06401016 46/// /0000 11202 21221 30128 40145 57013 333 21303 91100=
0089010160999992015011807004+78933+028900FM-12+002099999V0209999C999999999999N999999999-02031-02231101441ADDMA1999999101271MD1810111+9999REMSYN04801016 46/// /0000 11203 21223 30127 40144 58011=
0089010160999992015011808004+78933+028900FM-12+002099999V0209999C999999999999N999999999-02151-02351101411ADDMA1999999101231MD1710091+9999REMSYN04801016 46/// /0000 11215 21235 30123 40141 57009=
0089010160999992015011809004+78933+028900FM-12+002099999V0209999C999999999999N999999999-02041-02231101391ADDMA1999999101211MD1710071+9999REMSYN04801016 46/// /0000 11204 21223 30121 40139 57007=
0089010160999992015011810004+78933+028900FM-12+002099999V0209999C999999999999N999999999-01951-02131101341ADDMA1999999101171MD1710101+9999REMSYN04801016 46/// /0000 11195 21213 30117 40134 57010=
0089010160999992015011811004+78933+028900FM-12+002099999V0202801N001019999999N999999999-01571-01731101231ADDMA1999999101061MD1610171+9999REMSYN04801016 46/// /2801 11157 21173 30106 40123 56017=
0113010160999992015011812004+78933+028900FM-12+002099999V0202801N001019999999N999999999-01591-01761101181ADDMA1999999101021MD1710201+9999OD139900101999REMSYN05801016 46/// /2801 11159 21176 30102 40118 57020 333 91101=
0089010160999992015011813004+78933+028900FM-12+002099999V0202301N001019999999N999999999-01631-01801101091ADDMA1999999100921MD1710251+9999REMSYN04801016 46/// /2301 11163 21180 30092 40109 57025=
0089010160999992015011814004+78933+028900FM-12+002099999V0202401N001019999999N999999999-01651-01821101051ADDMA1999999100881MD1710181+9999REMSYN04801016 46/// /2401 11165 21182 30088 40105 57018=
0089010160999992015011815004+78933+028900FM-12+002099999V0202701N001019999999N999999999-01391-01571100981ADDMA1999999100811MD1710201+9999REMSYN04801016 46/// /2701 11139 21157 30081 40098 57020=
0089010160999992015011816004+78933+028900FM-12+002099999V0202701N001019999999N999999999-01461-01651100951ADDMA1999999100781MD1710141+9999REMSYN04801016 46/// /2701 11146 21165 30078 40095 57014=
0089010160999992015011817004+78933+028900FM-12+002099999V0202401N001019999999N999999999-01451-01651100831ADDMA1999999100671MD1610221+9999REMSYN04801016 46/// /2401 11145 21165 30067 40083 56022=
0132010160999992015011818004+78933+028900FM-12+002099999V0202201N001019999999N999999999-01481-01681100701ADDKA1120M-01361MA1999999100531MD1610281+9999OD139900101999REMSYN06401016 46/// /2201 11148 21168 30053 40070 56028 333 11136 91101=
0089010160999992015011819004+78933+028900FM-12+002099999V0203001N001019999999N999999999-01341-01531100791ADDMA1999999100631MD1810151+9999REMSYN04801016 46/// /3001 11134 21153 30063 40079 58015=
0089010160999992015011820004+78933+028900FM-12+002099999V0203101N001019999999N999999999-01651-01841100781ADDMA1999999100621MD1810051+9999REMSYN04801016 46/// /3101 11165 21184 30062 40078 58005=
0089010160999992015011821004+78933+028900FM-12+002099999V0203401N001019999999N999999999-01851-02021100881ADDMA1999999100721MD1210181+9999REMSYN04801016 46/// /3401 11185 21202 30072 40088 52018=
0089010160999992015011822004+78933+028900FM-12+002099999V0203601N001019999999N999999999-01741-01911100971ADDMA1999999100801MD1110171+9999REMSYN04801016 46/// /3601 11174 21191 30080 40097 51017=
0089010160999992015011823004+78933+028900FM-12+002099999V0203601N001019999999N999999999-01791-01991101051ADDMA1999999100881MD1210261+9999REMSYN04801016 46/// /3601 11179 21199 30088 40105 52026=
0113010160999992015011900004+78933+028900FM-12+002099999V0203601N001019999999N999999999-01991-02181101211ADDMA1999999101041MD1110321+9999OD139900101999REMSYN05801016 46/// /3601 11199 21218 30104 40121 51032 333 91101=
0089010160999992015011901004+78933+028900FM-12+002099999V0200101N001019999999N999999999-02281-02481101251ADDMA1999999101081MD1310281+9999REMSYN04801016 46/// /0101 11228 21248 30108 40125 53028=
0089010160999992015011902004+78933+028900FM-12+002099999V0209999C999999999999N999999999-02381-02581101341ADDMA1999999101171MD1310291+9999REMSYN04801016 46/// /0000 11238 21258 30117 40134 53029=
0089010160999992015011903004+78933+028900FM-12+002099999V0200101N001019999999N999999999-02351-02551101411ADDMA1999999101241MD1210201+9999REMSYN04801016 46/// /0101 11235 21255 30124 40141 52020=
0089010160999992015011904004+78933+028900FM-12+002099999V0200101N001019999999N999999999-02451-02651101401ADDMA1999999101231MD1310151+9999REMSYN04801016 46/// /0101 11245 21265 30123 40140 53015=
0089010160999992015011905004+78933+028900FM-12+002099999V0209999C999999999999N999999999-02461-02671101391ADDMA1999999101221MD1310051+9999REMSYN04801016 46/// /0000 11246 21267 30122 40139 53005=
0132010160999992015011906004+78933+028900FM-12+002099999V0209999C999999999999N999999999-02551-02751101471ADDKA1240N-02651MA1999999101301MD1110061+9999OD139900101999REMSYN06401016 46/// /0000 11255 21275 30130 40147 51006 333 21265 91101=
0089010160999992015011907004+78933+028900FM-12+002099999V0209999C999999999999N999999999-02101-02281101331ADDMA1999999101161MD1610061+9999REMSYN04801016 46/// /0000 11210 21228 30116 40133 56006=
0089010160999992015011908004+78933+028900FM-12+002099999V0209999C999999999999N999999999-02371-02591101261ADDMA1999999101081MD1510131+9999REMSYN04801016 46/// /0000 11237 21259 30108 40126 55013=
0089010160999992015011909004+78933+028900FM-12+002099999V0209999C999999999999N999999999-02441-02661101231ADDMA1999999101061MD1810241+9999REMSYN04801016 46/// /0000 11244 21266 30106 40123 58024=
0089010160999992015011910004+78933+028900FM-12+002099999V0201601N001019999999N999999999-02031-02211101231ADDMA1999999101061MD1810111+9999REMSYN04801016 46/// /1601 11203 21221 30106 40123 58011=
0089010160999992015011911004+78933+028900FM-12+002099999V0201801N001019999999N999999999-01951-02131101031ADDMA1999999100861MD1610221+9999REMSYN04801016 46/// /1801 11195 21213 30086 40103 56022=
0113010160999992015011912004+78933+028900FM-12+002099999V0201801N001019999999N999999999-01821-02001100861ADDMA1999999100691MD1610361+9999OD139900101999REMSYN05801016 46/// /1801 11182 21200 30069 40086 56036 333 91101=
0089010160999992015011913004+78933+028900FM-12+002099999V0201801N001019999999N999999999-01671-01841100721ADDMA1999999100551MD1810501+9999REMSYN04801016 46/// /1801 11167 21184 30055 40072 58050=
0089010160999992015011914004+78933+028900FM-12+002099999V0201801N002019999999N999999999-01521-01681100571ADDMA1999999100401MD1710461+9999REMSYN04801016 46/// /1802 11152 21168 30040 40057 57046=
0089010160999992015011915004+78933+028900FM-12+002099999V0201701N001019999999N999999999-01421-01571100451ADDMA1999999100291MD1710411+9999REMSYN04801016 46/// /1701 11142 21157 30029 40045 57041=
0089010160999992015011916004+78933+028900FM-12+002099999V0201701N001019999999N999999999-01311-01451100321ADDMA1999999100161MD1710391+9999REMSYN04801016 46/// /1701 11131 21145 30016 40032 57039=
0089010160999992015011917004+78933+028900FM-12+002099999V0201601N002019999999N999999999-01201-01331100211ADDMA1999999100051MD1710351+9999REMSYN04801016 46/// /1602 11120 21133 30005 40021 57035=
0132010160999992015011918004+78933+028900FM-12+002099999V0201501N001019999999N999999999-01221-01351100091ADDKA1120M-01161MA1999999099931MD1710361+9999OD139900201999REMSYN06401016 46/// /1501 11122 21135 39993 40009 57036 333 11116 91102=
0089010160999992015011919004+78933+028900FM-12+002099999V0201501N001019999999N999999999-01101-01221099991ADDMA1999999099831MD1710331+9999REMSYN04801016 46/// /1501 11110 21122 39983 49999 57033=
0089010160999992015011920004+78933+028900FM-12+002099999V0201601N001019999999N999999999-01031-01141100001ADDMA1999999099841MD1810211+9999REMSYN04801016 46/// /1601 11103 21114 39984 40000 58021=
0089010160999992015011921004+78933+028900FM-12+002099999V0201501N001019999999N999999999-01001-01111100031ADDMA1999999099871MD1810061+9999REMSYN04801016 46/// /1501 11100 21111 39987 40003 58006=
0089010160999992015011922004+78933+028900FM-12+002099999V0201501N001019999999N999999999-00961-01051100031ADDMA1999999099871MD1210051+9999REMSYN04801016 46/// /1501 11096 21105 39987 40003 52005=
0089010160999992015011923004+78933+028900FM-12+002099999V0209999C999999999999N999999999-00921-01011100041ADDMA1999999099881MD1210031+9999REMSYN04801016 46/// /0000 11092 21101 39988 40004 52003=
0113010160999992015012000004+78933+028900FM-12+002099999V0209999C999999999999N999999999-00931-01011100091ADDMA1999999099931MD1110061+9999OD139900201999REMSYN05801016 46/// /0000 11093 21101 39993 40009 51006 333 91102=
0089010160999992015012001004+78933+028900FM-12+002099999V0209999C999999999999N999999999-00961-01041100061ADDMA1999999099901MD1510021+9999REMSYN04801016 46/// /0000 11096 21104 39990 40006 55002=
0089010160999992015012002004+78933+028900FM-12+002099999V0209999C999999999999N999999999-00961-01041100051ADDMA1999999099891MD1510021+9999REMSYN04801016 46/// /0000 11096 21104 39989 40005 55002=
0089010160999992015012003004+78933+028900FM-12+002099999V0209999C999999999999N999999999-01051-01141100131ADDMA1999999099971MD1990041+9999REMSYN04801016 46/// /0000 11105 21114 39997 40013 50004=
0089010160999992015012004004+78933+028900FM-12+002099999V0209999C999999999999N999999999-01051-01141100151ADDMA1999999099991MD1210091+9999REMSYN04801016 46/// /0000 11105 21114 39999 40015 52009=
0089010160999992015012005004+78933+028900FM-12+002099999V0209999C999999999999N999999999-01021-01111100221ADDMA1999999100061MD1210161+9999REMSYN04801016 46/// /0000 11102 21111 30006 40022 52016=
0132010160999992015012006004+78933+028900FM-12+002099999V0209999C999999999999N999999999-01031-01121100231ADDKA1240N-01231MA1999999100071MD1210101+9999OD139900001999REMSYN06401016 46/// /0000 11103 21112 30007 40023 52010 333 21123 91100=
0089010160999992015012007004+78933+028900FM-12+002099999V0209999C999999999999N999999999-01071-01161100351ADDMA1999999100181MD1110201+9999REMSYN04801016 46/// /0000 11107 21116 30018 40035 51020=
0089010160999992015012008004+78933+028900FM-12+002099999V0209999C999999999999N999999999-01061-01151100431ADDMA1999999100271MD1110211+9999REMSYN04801016 46/// /0000 11106 21115 30027 40043 51021=
0089010160999992015012009004+78933+028900FM-12+002099999V0209999C999999999999N999999999-01071-01161100541ADDMA1999999100381MD1210311+9999REMSYN04801016 46/// /0000 11107 21116 30038 40054 52031=
0089010160999992015012010004+78933+028900FM-12+002099999V0209999C999999999999N999999999-01121-01221100661ADDMA1999999100501MD1110311+9999REMSYN04801016 46/// /0000 11112 21122 30050 40066 51031=
0089010160999992015012011004+78933+028900FM-12+002099999V0209999C999999999999N999999999-01281-01411100761ADDMA1999999100601MD1210331+9999REMSYN04801016 46/// /0000 11128 21141 30060 40076 52033=
0113010160999992015012012004+78933+028900FM-12+002099999V0209999C999999999999N999999999-01391-01531100851ADDMA1999999100681MD1310301+9999OD139900001999REMSYN05801016 46/// /0000 11139 21153 30068 40085 53030 333 91100=
0089010160999992015012013004+78933+028900FM-12+002099999V0209999C999999999999N999999999-01561-01711100991ADDMA1999999100831MD1110331+9999REMSYN04801016 46/// /0000 11156 21171 30083 40099 51033=
0089010160999992015012014004+78933+028900FM-12+002099999V0209999C999999999999N999999999-01511-01651101111ADDMA1999999100951MD1110351+9999REMSYN04801016 46/// /0000 11151 21165 30095 40111 51035=
0089010160999992015012015004+78933+028900FM-12+002099999V0209999C999999999999N999999999-01731-01901101201ADDMA1999999101041MD1310361+9999REMSYN04801016 46/// /0000 11173 21190 30104 40120 53036=
0089010160999992015012016004+78933+028900FM-12+002099999V0209999C999999999999N999999999-01681-01841101341ADDMA1999999101171MD1210341+9999REMSYN04801016 46/// /0000 11168 21184 30117 40134 52034=
0089010160999992015012017004+78933+028900FM-12+002099999V0209999C999999999999N999999999-01661-01811101441ADDMA1999999101271MD1210331+9999REMSYN04801016 46/// /0000 11166 21181 30127 40144 52033=
0132010160999992015012018004+78933+028900FM-12+002099999V0209999C999999999999N999999999-01601-01761101561ADDKA1120M-01021MA1999999101391MD1210361+9999OD139900001999REMSYN06401016 46/// /0000 11160 21176 30139 40156 52036 333 11102 91100=
0089010160999992015012019004+78933+028900FM-12+002099999V0209999C999999999999N999999999-01771-01941101711ADDMA1999999101541MD1110381+9999REMSYN04801016 46/// /0000 11177 21194 30154 40171 51038=
0089010160999992015012020004+78933+028900FM-12+002099999V0209999C999999999999N999999999-01881-02061101811ADDMA1999999101641MD1210371+9999REMSYN04801016 46/// /0000 11188 21206 30164 40181 52037=
0089010160999992015012021004+78933+028900FM-12+002099999V0209999C999999999999N999999999-01991-02171101921ADDMA1999999101751MD1310351+9999REMSYN04801016 46/// /0000 11199 21217 30175 40192 53035=
0089010160999992015012022004+78933+028900FM-12+002099999V0209999C999999999999N999999999-02021-02211102001ADDMA1999999101831MD1210291+9999REMSYN04801016 46/// /0000 11202 21221 30183 40200 52029=
0089010160999992015012023004+78933+028900FM-12+002099999V0209999C999999999999N999999999-01941-02121102131ADDMA1999999101951MD1210311+9999REMSYN04801016 46/// /0000 11194 21212 30195 40213 52031=
0113010160999992015012100004+78933+028900FM-12+002099999V0209999C999999999999N999999999-02121-02321102181ADDMA1999999102011MD1210271+9999OD139900001999REMSYN05801016 46/// /0000 11212 21232 30201 40218 52027 333 91100=
0089010160999992015012101004+78933+028900FM-12+002099999V0209999C999999999999N999999999-02131-02321102241ADDMA1999999102071MD1310241+9999REMSYN04801016 46/// /0000 11213 21232 30207 40224 53024=
0089010160999992015012102004+78933+028900FM-12+002099999V0209999C999999999999N999999999-02201-02401102321ADDMA1999999102151MD1210201+9999REMSYN04801016 46/// /0000 11220 21240 30215 40232 52020=
0089010160999992015012103004+78933+028900FM-12+002099999V0209999C999999999999N999999999-02051-02241102321ADDMA1999999102151MD1310141+9999REMSYN04801016 46/// /0000 11205 21224 30215 40232 53014=
0089010160999992015012104004+78933+028900FM-12+002099999V0209999C999999999999N999999999-02131-02331102371ADDMA1999999102201MD1310131+9999REMSYN04801016 46/// /0000 11213 21233 30220 40237 53013=
0089010160999992015012105004+78933+028900FM-12+002099999V0209999C999999999999N999999999-02171-02361102381ADDMA1999999102211MD1210061+9999REMSYN04801016 46/// /0000 11217 21236 30221 40238 52006=
0108010160999992015012108004+78933+028900FM-12+002099999V0201501N001019999999N999999999-01921-02111102351ADDMA1999999102181MD1790039+9999REMSYN04801016 46/// /1501 11192 21211 30218 40235 54003=EQDQ01.3    3APC3  
0094010160999992015012109004+78933+028900FM-12+002099999V0201501N001019999999N999999999-01851-02031102371ADDMA1999999102201REMSYN04801016 46/// /1501 11185 21203 30220 40237 54001=EQDQ014     3APCTEN
0089010160999992015012110004+78933+028900FM-12+002099999V0201601N002019999999N999999999-01721-01891102341ADDMA1999999102171MD1510011+9999REMSYN04801016 46/// /1602 11172 21189 30217 40234 55001=
0089010160999992015012111004+78933+028900FM-12+002099999V0201501N001019999999N999999999-01631-01791102321ADDMA1999999102151MD1610041+9999REMSYN04801016 46/// /1501 11163 21179 30215 40232 56004=
0089010160999992015012112004+78933+028900FM-12+002099999V0201701N001019999999N999999999-01541-01701102311ADDMA1999999102141MD1710061+9999REMSYN04801016 46/// /1701 11154 21170 30214 40231 57006=
0089010160999992015012113004+78933+028900FM-12+002099999V0201601N001019999999N999999999-01481-01631102251ADDMA1999999102081MD1610081+9999REMSYN04801016 46/// /1601 11148 21163 30208 40225 56008=
0089010160999992015012114004+78933+028900FM-12+002099999V0201601N001019999999N999999999-01371-01511102201ADDMA1999999102031MD1610121+9999REMSYN04801016 46/// /1601 11137 21151 30203 40220 56012=
0089010160999992015012115004+78933+028900FM-12+002099999V0201701N001019999999N999999999-01221-01351102131ADDMA1999999101961MD1710181+9999REMSYN04801016 46/// /1701 11122 21135 30196 40213 57018=
0089010160999992015012116004+78933+028900FM-12+002099999V0201701N001019999999N999999999-01121-01241102031ADDMA1999999101871MD1610221+9999REMSYN04801016 46/// /1701 11112 21124 30187 40203 56022=
0089010160999992015012117004+78933+028900FM-12+002099999V0201701N001019999999N999999999-01021-01131101961ADDMA1999999101801MD1710231+9999REMSYN04801016 46/// /1701 11102 21113 30180 40196 57023=
0113010160999992015012118004+78933+028900FM-12+002099999V0201801N001019999999N999999999-00891-00981101891ADDMA1999999101731MD1710231+9999OD139900101999REMSYN05801016 46/// /1801 11089 21098 30173 40189 57023 333 91101=
0089010160999992015012119004+78933+028900FM-12+002099999V0201801N001019999999N999999999-00841-00931101821ADDMA1999999101651MD1710211+9999REMSYN04801016 46/// /1801 11084 21093 30165 40182 57021=
0089010160999992015012120004+78933+028900FM-12+002099999V0201901N001019999999N999999999-00841-00931101771ADDMA1999999101601MD1710191+9999REMSYN04801016 46/// /1901 11084 21093 30160 40177 57019=
0089010160999992015012121004+78933+028900FM-12+002099999V0209999C999999999999N999999999-00971-01081101691ADDMA1999999101531MD1710201+9999REMSYN04801016 46/// /0000 11097 21108 30153 40169 57020=
0089010160999992015012122004+78933+028900FM-12+002099999V0201901N001019999999N999999999-01051-01161101531ADDMA1999999101371MD1610281+9999REMSYN04801016 46/// /1901 11105 21116 30137 40153 56028=
0089010160999992015012123004+78933+028900FM-12+002099999V0201901N002019999999N999999999-00961-01051101391ADDMA1999999101221MD1610381+9999REMSYN04801016 46/// /1902 11096 21105 30122 40139 56038=
0113010160999992015012200004+78933+028900FM-12+002099999V0201801N002019999999N999999999-00831-00911101221ADDMA1999999101051MD1710471+9999OD139900201999REMSYN05801016 46/// /1802 11083 21091 30105 40122 57047 333 91102=
0089010160999992015012201004+78933+028900FM-12+002099999V0201801N006019999999N999999999-00631-00701100981ADDMA1999999100821MD1610551+9999REMSYN04801016 46/// /1806 11063 21070 30082 40098 56055=
0089010160999992015012202004+78933+028900FM-12+002099999V0201801N014019999999N999999999-00511-00571100701ADDMA1999999100541MD1610681+9999REMSYN04801016 46/// /1814 11051 21057 30054 40070 56068=
0089010160999992015012203004+78933+028900FM-12+002099999V0202101N012019999999N999999999-00391-00441100611ADDMA1999999100451MD1810611+9999REMSYN04801016 46/// /2112 11039 21044 30045 40061 58061=
0089010160999992015012204004+78933+028900FM-12+002099999V0202201N013019999999N999999999-00151-00171100461ADDMA1999999100301MD1810511+9999REMSYN04801016 46/// /2213 11015 21017 30030 40046 58051=
0089010160999992015012205004+78933+028900FM-12+002099999V0202301N009019999999N999999999-00211-00251100431ADDMA1999999100271MD1810271+9999REMSYN04801016 46/// /2309 11021 21025 30027 40043 58027=
0132010160999992015012206004+78933+028900FM-12+002099999V0202101N007019999999N999999999-00211-00261100401ADDKA1240N-01121MA1999999100241MD1810211+9999OD139901701999REMSYN06401016 46/// /2107 11021 21026 30024 40040 58021 333 21112 91117=
0089010160999992015012207004+78933+028900FM-12+002099999V0202301N009019999999N999999999-00121-00191100351ADDMA1999999100191MD1710111+9999REMSYN04801016 46/// /2309 11012 21019 30019 40035 57011=
0089010160999992015012208004+78933+028900FM-12+002099999V0202201N009019999999N999999999-00121-00191100321ADDMA1999999100161MD1710111+9999REMSYN04801016 46/// /2209 11012 21019 30016 40032 57011=
0089010160999992015012209004+78933+028900FM-12+002099999V0202301N010019999999N999999999-00051-00121100311ADDMA1999999100151MD1810091+9999REMSYN04801016 46/// /2310 11005 21012 30015 40031 58009=
0089010160999992015012210004+78933+028900FM-12+002099999V0202301N010019999999N999999999-00071-00141100281ADDMA1999999100131MD1710071+9999REMSYN04801016 46/// /2310 11007 21014 30013 40028 57007=
0108010160999992015012211004+78933+028900FM-12+002099999V0202401N010019999999N999999999-00051-00111100291ADDMA1999999100131MD1790039+9999REMSYN04801016 46/// /2410 11005 21011 30013 40029 54003=EQDQ01.3    3APC3  
0132010160999992015012212004+78933+028900FM-12+002099999V0202301N009019999999N999999999-00031-00101100281ADDMA1999999100121MD1790039+9999OD139901201999REMSYN05801016 46/// /2309 11003 21010 30012 40028 54003 333 91112=EQDQ01.3    3APC3  
0108010160999992015012213004+78933+028900FM-12+002099999V0202401N011019999999N999999999-00031-00121100261ADDMA1999999100101MD1790029+9999REMSYN04801016 46/// /2411 11003 21012 30010 40026 54002=EQDQ01.2    3APC3  
0089010160999992015012214004+78933+028900FM-12+002099999V0202301N012019999999N999999999-00041-00111100241ADDMA1999999100091MD1710041+9999REMSYN04801016 46/// /2312 11004 21011 30009 40024 57004=
0089010160999992015012215004+78933+028900FM-12+002099999V0202401N013019999999N999999999-00031-00101100261ADDMA1999999100111MD1990021+9999REMSYN04801016 46/// /2413 11003 21010 30011 40026 50002=
0108010160999992015012216004+78933+028900FM-12+002099999V0202301N013019999999N999999999-00071-00161100271ADDMA1999999100121MD1290019+9999REMSYN04801016 46/// /2313 11007 21016 30012 40027 54001=EQDQ01.1    3APC3  
0089010160999992015012217004+78933+028900FM-12+002099999V0202301N012019999999N999999999-00151-00241100301ADDMA1999999100141MD1210051+9999REMSYN04801016 46/// /2312 11015 21024 30014 40030 52005=
0132010160999992015012218004+78933+028900FM-12+002099999V0202301N012019999999N999999999-00141-00241100321ADDKA1120M-00021MA1999999100161MD1210051+9999OD139901601999REMSYN06401016 46/// /2312 11014 21024 30016 40032 52005 333 11002 91116=
0089010160999992015012219004+78933+028900FM-12+002099999V0202301N010019999999N999999999-00181-00281100321ADDMA1999999100171MD1210051+9999REMSYN04801016 46/// /2310 11018 21028 30017 40032 52005=
0108010160999992015012220004+78933+028900FM-12+002099999V0202301N010019999999N999999999-00201-00311100321ADDMA1999999100161MD1290029+9999REMSYN04801016 46/// /2310 11020 21031 30016 40032 54002=EQDQ01.2    3APC3  
0089010160999992015012221004+78933+028900FM-12+002099999V0202301N013019999999N999999999-00141-00281100291ADDMA1999999100141MD1510021+9999REMSYN04801016 46/// /2313 11014 21028 30014 40029 55002=
0108010160999992015012222004+78933+028900FM-12+002099999V0202301N013019999999N999999999-00121-00251100301ADDMA1999999100141MD1790029+9999REMSYN04801016 46/// /2313 11012 21025 30014 40030 54002=EQDQ01.2    3APC3  
0089010160999992015012223004+78933+028900FM-12+002099999V0202301N012019999999N999999999-00141-00251100281ADDMA1999999100121MD1710041+9999REMSYN04801016 46/// /2312 11014 21025 30012 40028 57004=
0132010160999992015012300004+78933+028900FM-12+002099999V0202301N011019999999N999999999-00111-00241100271ADDMA1999999100121MD1790029+9999OD139901501999REMSYN05801016 46/// /2311 11011 21024 30012 40027 54002 333 91115=EQDQ01.2    3APC3  
0108010160999992015012301004+78933+028900FM-12+002099999V0202301N010019999999N999999999-00101-00211100271ADDMA1999999100111MD1790039+9999REMSYN04801016 46/// /2310 11010 21021 30011 40027 54003=EQDQ01.3    3APC3  
0108010160999992015012302004+78933+028900FM-12+002099999V0202301N011019999999N999999999-00111-00221100271ADDMA1999999100111MD1790019+9999REMSYN04801016 46/// /2311 11011 21022 30011 40027 54001=EQDQ01.1    3APC3  
0089010160999992015012303004+78933+028900FM-12+002099999V0202301N013019999999N999999999-00051-00161100221ADDMA1999999100071MD1610051+9999REMSYN04801016 46/// /2313 11005 21016 30007 40022 56005=
0108010160999992015012304004+78933+028900FM-12+002099999V0202301N011019999999N999999999-00091-00191100251ADDMA1999999100091MD1790029+9999REMSYN04801016 46/// /2311 11009 21019 30009 40025 54002=EQDQ01.2    3APC3  
0089010160999992015012305004+78933+028900FM-12+002099999V0202301N012019999999N999999999-00141-00241100221ADDMA1999999100061MD1710051+9999REMSYN04801016 46/// /2312 11014 21024 30006 40022 57005=
0151010160999992015012306004+78933+028900FM-12+002099999V0202301N012019999999N999999999-00161-00261100251ADDKA1240N-00231MA1999999100091MD1290039+9999OD139901501999REMSYN06401016 46/// /2312 11016 21026 30009 40025 54002 333 21023 91115=EQDQ01.2    3APC3  
0089010160999992015012307004+78933+028900FM-12+002099999V0202201N011019999999N999999999-00131-00231100261ADDMA1999999100101MD1990011+9999REMSYN04801016 46/// /2211 11013 21023 30010 40026 50001=
0089010160999992015012308004+78933+028900FM-12+002099999V0202201N012019999999N999999999-00161-00271100261ADDMA1999999100101MD1210051+9999REMSYN04801016 46/// /2212 11016 21027 30010 40026 52005=
0089010160999992015012309004+78933+028900FM-12+002099999V0202301N010019999999N999999999-00211-00321100291ADDMA1999999100131MD1210041+9999REMSYN04801016 46/// /2310 11021 21032 30013 40029 52004=
0089010160999992015012310004+78933+028900FM-12+002099999V0202301N011019999999N999999999-00241-00371100371ADDMA1999999100211MD1110111+9999REMSYN04801016 46/// /2311 11024 21037 30021 40037 51011=
0089010160999992015012311004+78933+028900FM-12+002099999V0202301N009019999999N999999999-00271-00411100401ADDMA1999999100251MD1210141+9999REMSYN04801016 46/// /2309 11027 21041 30025 40040 52014=
0113010160999992015012312004+78933+028900FM-12+002099999V0202301N009019999999N999999999-00311-00431100411ADDMA1999999100251MD1310121+9999OD139901401999REMSYN05801016 46/// /2309 11031 21043 30025 40041 53012 333 91114=
0089010160999992015012313004+78933+028900FM-12+002099999V0202301N009019999999N999999999-00381-00481100401ADDMA1999999100241MD1510031+9999REMSYN04801016 46/// /2309 11038 21048 30024 40040 55003=
0108010160999992015012314004+78933+028900FM-12+002099999V0202401N010019999999N999999999-00301-00421100371ADDMA1999999100221MD1790039+9999REMSYN04801016 46/// /2410 11030 21042 30022 40037 54003=EQDQ01.3    3APC3  
0089010160999992015012315004+78933+028900FM-12+002099999V0201601N005019999999N999999999-00411-00511100471ADDMA1999999100311MD1110061+9999REMSYN04801016 46/// /1605 11041 21051 30031 40047 51006=
0089010160999992015012316004+78933+028900FM-12+002099999V0202301N007019999999N999999999-00361-00431100491ADDMA1999999100331MD1110091+9999REMSYN04801016 46/// /2307 11036 21043 30033 40049 51009=
0089010160999992015012317004+78933+028900FM-12+002099999V0202101N005019999999N999999999-00471-00521100491ADDMA1999999100331MD1310121+9999REMSYN04801016 46/// /2105 11047 21052 30033 40049 53012=
0151010160999992015012318004+78933+028900FM-12+002099999V0202201N005019999999N999999999-00471-00521100491ADDKA1120M-00121MA1999999100331MD1290029+9999OD139901201999REMSYN06401016 46/// /2205 11047 21052 30033 40049 54002 333 11012 91112=EQDQ01.2    3APC3  
0108010160999992015012319004+78933+028900FM-12+002099999V0202301N006019999999N999999999-00471-00521100501ADDMA1999999100341MD1290019+9999REMSYN04801016 46/// /2306 11047 21052 30034 40050 54001=EQDQ01.1    3APC3  
0089010160999992015012320004+78933+028900FM-12+002099999V0202901N001019999999N999999999-00491-00531100551ADDMA1999999100391MD1110061+9999REMSYN04801016 46/// /2901 11049 21053 30039 40055 51006=
0089010160999992015012321004+78933+028900FM-12+002099999V0202101N006019999999N999999999-00361-00381100521ADDMA1999999100361MD1310031+9999REMSYN04801016 46/// /2106 11036 21038 30036 40052 53003=
0089010160999992015012322004+78933+028900FM-12+002099999V0202101N006019999999N999999999-00351-00371100541ADDMA1999999100381MD1310041+9999REMSYN04801016 46/// /2106 11035 21037 30038 40054 53004=
0108010160999992015012323004+78933+028900FM-12+002099999V0201901N005019999999N999999999-00381-00401100531ADDMA1999999100371MD1790029+9999REMSYN04801016 46/// /1905 11038 21040 30037 40053 54002=EQDQ01.2    3APC3  
0113010160999992015012400004+78933+028900FM-12+002099999V0201901N005019999999N999999999-00531-00571100521ADDMA1999999100361MD1510011+9999OD139900801999REMSYN05801016 46/// /1905 11053 21057 30036 40052 55001 333 91108=
0089010160999992015012401004+78933+028900FM-12+002099999V0201901N005019999999N999999999-00701-00761100501ADDMA1999999100341MD1710041+9999REMSYN04801016 46/// /1905 11070 21076 30034 40050 57004=
0089010160999992015012402004+78933+028900FM-12+002099999V0201901N002019999999N999999999-00721-00791100521ADDMA1999999100351MD1990021+9999REMSYN04801016 46/// /1902 11072 21079 30035 40052 50002=
0089010160999992015012403004+78933+028900FM-12+002099999V0201901N001019999999N999999999-00701-00761100521ADDMA1999999100361MD1410001+9999REMSYN04801016 46/// /1901 11070 21076 30036 40052 54000=
0108010160999992015012404004+78933+028900FM-12+002099999V0202301N003019999999N999999999-00661-00721100511ADDMA1999999100351MD1290019+9999REMSYN04801016 46/// /2303 11066 21072 30035 40051 54001=EQDQ01.1    3APC3  
0089010160999992015012405004+78933+028900FM-12+002099999V0201901N002019999999N999999999-00661-00721100511ADDMA1999999100351MD1410001+9999REMSYN04801016 46/// /1902 11066 21072 30035 40051 54000=
0151010160999992015012406004+78933+028900FM-12+002099999V0201701N002019999999N999999999-00601-00661100501ADDKA1240N-00741MA1999999100341MD1790029+9999OD139900601999REMSYN06401016 46/// /1702 11060 21066 30034 40050 54002 333 21074 91106=EQDQ01.2    3APC3  
0108010160999992015012407004+78933+028900FM-12+002099999V0201501N001019999999N999999999-00561-00621100491ADDMA1999999100331MD1790029+9999REMSYN04801016 46/// /1501 11056 21062 30033 40049 54001=EQDQ01.1    3APC3  
0089010160999992015012408004+78933+028900FM-12+002099999V0209999C999999999999N999999999-00451-00501100511ADDMA1999999100351MD1410001+9999REMSYN04801016 46/// /0000 11045 21050 30035 40051 54000=
0089010160999992015012409004+78933+028900FM-12+002099999V0209999C999999999999N999999999-00461-00511100551ADDMA1999999100391MD1110051+9999REMSYN04801016 46/// /0000 11046 21051 30039 40055 51005=
0089010160999992015012410004+78933+028900FM-12+002099999V0209999C999999999999N999999999-00611-00671100551ADDMA1999999100391MD1210051+9999REMSYN04801016 46/// /0000 11061 21067 30039 40055 52005=
0089010160999992015012411004+78933+028900FM-12+002099999V0200601N003019999999N999999999-00541-00591100561ADDMA1999999100401MD1210061+9999REMSYN04801016 46/// /0603 11054 21059 30040 40056 52006=
0132010160999992015012412004+78933+028900FM-12+002099999V0200601N002019999999N999999999-00451-00491100561ADDMA1999999100401MD1290019+9999OD139900301999REMSYN05801016 46/// /0602 11045 21049 30040 40056 54001 333 91103=EQDQ01.1    3APC3  
0108010160999992015012413004+78933+028900FM-12+002099999V0200501N003019999999N999999999-00471-00521100571ADDMA1999999100411MD1290029+9999REMSYN04801016 46/// /0503 11047 21052 30041 40057 54003=EQDQ01.3    3APC3  
0108010160999992015012414004+78933+028900FM-12+002099999V0200601N003019999999N999999999-00531-00581100591ADDMA1999999100431MD1290039+9999REMSYN04801016 46/// /0603 11053 21058 30043 40059 54003=EQDQ01.3    3APC3  
0089010160999992015012415004+78933+028900FM-12+002099999V0200601N004019999999N999999999-00701-00761100621ADDMA1999999100451MD1210061+9999REMSYN04801016 46/// /0604 11070 21076 30045 40062 52006=
0089010160999992015012416004+78933+028900FM-12+002099999V0200601N005019999999N999999999-00801-00871100651ADDMA1999999100491MD1210081+9999REMSYN04801016 46/// /0605 11080 21087 30049 40065 52008=
0089010160999992015012417004+78933+028900FM-12+002099999V0200601N009019999999N999999999-00951-01041100731ADDMA1999999100571MD1110141+9999REMSYN04801016 46/// /0609 11095 21104 30057 40073 51014=
0132010160999992015012418004+78933+028900FM-12+002099999V0200601N010019999999N999999999-01021-01131100741ADDKA1120M-00431MA1999999100581MD1310121+9999OD139901101999REMSYN06401016 46/// /0610 11102 21113 30058 40074 53012 333 11043 91111=
0089010160999992015012419004+78933+028900FM-12+002099999V0200601N011019999999N999999999-01101-01211100771ADDMA1999999100611MD1310121+9999REMSYN04801016 46/// /0611 11110 21121 30061 40077 53012=
0089010160999992015012420004+78933+028900FM-12+002099999V0200601N013019999999N999999999-01131-01251100791ADDMA1999999100631MD1210061+9999REMSYN04801016 46/// /0613 11113 21125 30063 40079 52006=
