0039010150999992015010215004+69600+017833FM-12+001499999V0200801N009019999999N999999999+00331-00321999999REMSYN03001015 46/// /0809 10033 21032=
0055010150999992015010218004+69600+017833FM-12+001499999V020999999999999999999999999999+99999+99999999999REMSYN04601015 46/// /0808 10024 21042 333 10047 91114=
0039010150999992015010221004+69600+017833FM-12+001499999V0200901N009019999999N999999999+00211-00261999999REMSYN03001015 46/// /0909 10021 21026=
0049010150999992015010300004+69600+017833FM-12+001499999V020999999999999999999999999999+99999+99999999999REMSYN04001015 46/// /2903 10026 21008 333 91111=
0039010150999992015010303004+69600+017833FM-12+001499999V0200501N004019999999N999999999+00271-00161999999REMSYN03001015 46/// /0504 10027 21016=
0055010150999992015010306004+69600+017833FM-12+001499999V020999999999999999999999999999+99999+99999999999REMSYN04601015 46/// /1003 10025 21038 333 20020 91111=
0039010150999992015010309004+69600+017833FM-12+001499999V0200901N002019999999N999999999+00271-00311999999REMSYN03001015 46/// /0902 10027 21031=
0049010150999992015010312004+69600+017833FM-12+001499999V020999999999999999999999999999+99999+99999999999REMSYN04001015 46/// /2803 10022 21016 333 91107=
0039010150999992015010315004+69600+017833FM-12+001499999V0202801N002019999999N999999999+00161-00051999999REMSYN03001015 46/// /2802 10016 21005=
0055010150999992015010318004+69600+017833FM-12+001499999V020999999999999999999999999999+99999+99999999999REMSYN04601015 46/// /2804 10019 21018 333 10027 91109=
0039010150999992015010321004+69600+017833FM-12+001499999V0202801N004019999999N999999999+00151-00441999999REMSYN03001015 46/// /2804 10015 21044=
0049010150999992015010400004+69600+017833FM-12+001499999V020999999999999999999999999999+99999+99999999999REMSYN04001015 46/// /0804 10011 21035 333 91108=
0039010150999992015010403004+69600+017833FM-12+001499999V0202901N003019999999N999999999+00131-00511999999REMSYN03001015 46/// /2903 10013 21051=
0055010150999992015010406004+69600+017833FM-12+001499999V020999999999999999999999999999+99999+99999999999REMSYN04601015 46/// /0710 10006 21043 333 20003 91113=
0039010150999992015010409004+69600+017833FM-12+001499999V0201001N009019999999N999999999+00071-00281999999REMSYN03001015 46/// /1009 10007 21028=
0049010150999992015010412004+69600+017833FM-12+001499999V020999999999999999999999999999+99999+99999999999REMSYN04001015 46/// /1212 11002 21021 333 91115=
0039010150999992015010415004+69600+017833FM-12+001499999V0200801N011019999999N999999999-00121-00431999999REMSYN03001015 46/// /0811 11012 21043=
0055010150999992015010418004+69600+017833FM-12+001499999V020999999999999999999999999999+99999+99999999999REMSYN04601015 46/// /0812 11011 21055 333 10008 91116=
0039010150999992015010421004+69600+017833FM-12+001499999V0201001N011019999999N999999999-00121-00581999999REMSYN03001015 46/// /1011 11012 21058=
0049010150999992015010500004+69600+017833FM-12+001499999V020999999999999999999999999999+99999+99999999999REMSYN04001015 46/// /0613 11018 21066 333 91120=
0039010150999992015010503004+69600+017833FM-12+001499999V0200801N013019999999N999999999-00231-00631999999REMSYN03001015 46/// /0813 11023 21063=
0055010150999992015010506004+69600+017833FM-12+001499999V020999999999999999999999999999+99999+99999999999REMSYN04601015 46/// /1610 11033 21090 333 21033 91119=
0039010150999992015010509004+69600+017833FM-12+001499999V0201701N009019999999N999999999-00351-00921999999REMSYN03001015 46/// /1709 11035 21092=
0049010150999992015010512004+69600+017833FM-12+001499999V020999999999999999999999999999+99999+99999999999REMSYN04001015 46/// /1710 11043 21098 333 91115=
0039010150999992015010515004+69600+017833FM-12+001499999V0201701N011019999999N999999999-00451-01051999999REMSYN03001015 46/// /1711 11045 21105=
0055010150999992015010518004+69600+017833FM-12+001499999V020999999999999999999999999999+99999+99999999999REMSYN04601015 46/// /1609 11046 21109 333 11033 91114=
0039010150999992015010521004+69600+017833FM-12+001499999V0201701N009019999999N999999999-00441-01101999999REMSYN03001015 46/// /1709 11044 21110=
0049010150999992015010600004+69600+017833FM-12+001499999V020999999999999999999999999999+99999+99999999999REMSYN04001015 46/// /1710 11046 21108 333 91116=
0039010150999992015010601004+69600+017833FM-12+001499999V0201701N009019999999N999999999-00421-01071999999REMSYN03001015 46/// /1709 11042 21107=
0039010150999992015010602004+69600+017833FM-12+001499999V0201601N014019999999N999999999-00391-01011999999REMSYN03001015 46/// /1614 11039 21101=
0039010150999992015010603004+69600+017833FM-12+001499999V0201701N013019999999N999999999-00381-01061999999REMSYN03001015 46/// /1713 11038 21106=
0039010150999992015010604004+69600+017833FM-12+001499999V0201701N013019999999N999999999-00351-01081999999REMSYN03001015 46/// /1713 11035 21108=
0039010150999992015010605004+69600+017833FM-12+001499999V0201601N013019999999N999999999-00321-01031999999REMSYN03001015 46/// /1613 11032 21103=
0055010150999992015010606004+69600+017833FM-12+001499999V020999999999999999999999999999+99999+99999999999REMSYN04601015 46/// /1613 11031 21104 333 21053 91119=
0039010150999992015010607004+69600+017833FM-12+001499999V0201601N011019999999N999999999-00211-00921999999REMSYN03001015 46/// /1611 11021 21092=
0039010150999992015010608004+69600+017833FM-12+001499999V0201601N014019999999N999999999-00231-01011999999REMSYN03001015 46/// /1614 11023 21101=
0039010150999992015010609004+69600+017833FM-12+001499999V0201601N013019999999N999999999-00261-00951999999REMSYN03001015 46/// /1613 11026 21095=
0039010150999992015010610004+69600+017833FM-12+001499999V0201601N013019999999N999999999-00221-00881999999REMSYN03001015 46/// /1613 11022 21088=
0039010150999992015010611004+69600+017833FM-12+001499999V0201701N012019999999N999999999-00211-00771999999REMSYN03001015 46/// /1712 11021 21077=
0049010150999992015010612004+69600+017833FM-12+001499999V020999999999999999999999999999+99999+99999999999REMSYN04001015 46/// /1614 11018 21065 333 91120=
0039010150999992015010613004+69600+017833FM-12+001499999V0201601N012019999999N999999999-00161-00641999999REMSYN03001015 46/// /1612 11016 21064=
0039010150999992015010614004+69600+017833FM-12+001499999V0201601N013019999999N999999999-00281-00461999999REMSYN03001015 46/// /1613 11028 21046=
0039010150999992015010615004+69600+017833FM-12+001499999V0201601N013019999999N999999999-00261-00421999999REMSYN03001015 46/// /1613 11026 21042=
0039010150999992015010616004+69600+017833FM-12+001499999V0201601N013019999999N999999999-00241-00381999999REMSYN03001015 46/// /1613 11024 21038=
0039010150999992015010617004+69600+017833FM-12+001499999V0201601N013019999999N999999999-00201-00331999999REMSYN03001015 46/// /1613 11020 21033=
0055010150999992015010618004+69600+017833FM-12+001499999V020999999999999999999999999999+99999+99999999999REMSYN04601015 46/// /1613 11015 21028 333 11014 91119=
0039010150999992015010619004+69600+017833FM-12+001499999V0201601N010019999999N999999999-00111-00241999999REMSYN03001015 46/// /1610 11011 21024=
0039010150999992015010620004+69600+017833FM-12+001499999V0200801N007019999999N999999999-00071-00201999999REMSYN03001015 46/// /0807 11007 21020=
0039010150999992015010621004+69600+017833FM-12+001499999V0200801N007019999999N999999999-00031-00201999999REMSYN03001015 46/// /0807 11003 21020=
0039010150999992015010622004+69600+017833FM-12+001499999V0200801N008019999999N999999999+00011-00191999999REMSYN03001015 46/// /0808 10001 21019=
0039010150999992015010623004+69600+017833FM-12+001499999V0200801N007019999999N999999999+00011-00241999999REMSYN03001015 46/// /0807 10001 21024=
0049010150999992015010700004+69600+017833FM-12+001499999V020999999999999999999999999999+99999+99999999999REMSYN04001015 46/// /0707 10006 21025 333 91114=
0039010150999992015010701004+69600+017833FM-12+001499999V0200901N009019999999N999999999+00111-00221999999REMSYN03001015 46/// /0909 10011 21022=
0039010150999992015010702004+69600+017833FM-12+001499999V0200801N011019999999N999999999+00141-00261999999REMSYN03001015 46/// /0811 10014 21026=
0039010150999992015010703004+69600+017833FM-12+001499999V0200801N011019999999N999999999+00151-00241999999REMSYN03001015 46/// /0811 10015 21024=
0039010150999992015010704004+69600+017833FM-12+001499999V0200801N011019999999N999999999+00181-00231999999REMSYN03001015 46/// /0811 10018 21023=
0039010150999992015010705004+69600+017833FM-12+001499999V0200801N011019999999N999999999+00191-00241999999REMSYN03001015 46/// /0811 10019 21024=
0055010150999992015010706004+69600+017833FM-12+001499999V020999999999999999999999999999+99999+99999999999REMSYN04601015 46/// /0613 10015 21010 333 21015 91116=
0039010150999992015010707004+69600+017833FM-12+001499999V0200901N013019999999N999999999+00161-00011999999REMSYN03001015 46/// /0913 10016 21001=
0039010150999992015010708004+69600+017833FM-12+001499999V0200901N013019999999N999999999+00131-00011999999REMSYN03001015 46/// /0913 10013 21001=
0039010150999992015010709004+69600+017833FM-12+001499999V0200601N011019999999N999999999+00141-00021999999REMSYN03001015 46/// /0611 10014 21002=
0039010150999992015010710004+69600+017833FM-12+001499999V0200901N010019999999N999999999+00171+00011999999REMSYN03001015 46/// /0910 10017 20001=
0039010150999992015010711004+69600+017833FM-12+001499999V0200601N008019999999N999999999+00171+00031999999REMSYN03001015 46/// /0608 10017 20003=
0049010150999992015010712004+69600+017833FM-12+001499999V020999999999999999999999999999+99999+99999999999REMSYN04001015 46/// /0905 10018 20004 333 91117=
0039010150999992015010713004+69600+017833FM-12+001499999V0201201N006019999999N999999999+00191+00051999999REMSYN03001015 46/// /1206 10019 20005=
0039010150999992015010714004+69600+017833FM-12+001499999V0200901N006019999999N999999999+00191+00041999999REMSYN03001015 46/// /0906 10019 20004=
0039010150999992015010715004+69600+017833FM-12+001499999V0200901N004019999999N999999999+00181+00031999999REMSYN03001015 46/// /0904 10018 20003=
0039010150999992015010716004+69600+017833FM-12+001499999V0200801N006019999999N999999999+00191+00051999999REMSYN03001015 46/// /0806 10019 20005=
0039010150999992015010717004+69600+017833FM-12+001499999V0200801N007019999999N999999999+00191+00061999999REMSYN03001015 46/// /0807 10019 20006=
0055010150999992015010718004+69600+017833FM-12+001499999V020999999999999999999999999999+99999+99999999999REMSYN04601015 46/// /0608 10018 20006 333 10022 91110=
0039010150999992015010719004+69600+017833FM-12+001499999V0200701N008019999999N999999999+00121+00011999999REMSYN03001015 46/// /0708 10012 20001=
0039010150999992015010720004+69600+017833FM-12+001499999V0200901N009019999999N999999999+00091-00011999999REMSYN03001015 46/// /0909 10009 21001=
0039010150999992015010721004+69600+017833FM-12+001499999V0201001N010019999999N999999999+00091-00021999999REMSYN03001015 46/// /1010 10009 21002=
0039010150999992015010722004+69600+017833FM-12+001499999V0200901N007019999999N999999999+00071-00041999999REMSYN03001015 46/// /0907 10007 21004=
0039010150999992015010723004+69600+017833FM-12+001499999V0200901N007019999999N999999999+00091-00011999999REMSYN03001015 46/// /0907 10009 21001=
0049010150999992015010800004+69600+017833FM-12+001499999V020999999999999999999999999999+99999+99999999999REMSYN04001015 46/// /0711 10015 20001 333 91113=
0039010150999992015010801004+69600+017833FM-12+001499999V0200801N010019999999N999999999+00141-00021999999REMSYN03001015 46/// /0810 10014 21002=
0039010150999992015010802004+69600+017833FM-12+001499999V0201301N004019999999N999999999+00171-00121999999REMSYN03001015 46/// /1304 10017 21012=
0039010150999992015010803004+69600+017833FM-12+001499999V0200801N007019999999N999999999+00231-00111999999REMSYN03001015 46/// /0807 10023 21011=
0039010150999992015010804004+69600+017833FM-12+001499999V0200901N007019999999N999999999+00311-00171999999REMSYN03001015 46/// /0907 10031 21017=
0039010150999992015010805004+69600+017833FM-12+001499999V0201101N009019999999N999999999+00371-00101999999REMSYN03001015 46/// /1109 10037 21010=
0055010150999992015010806004+69600+017833FM-12+001499999V020999999999999999999999999999+99999+99999999999REMSYN04601015 46/// /0912 10039 21013 333 20006 91117=
0039010150999992015010807004+69600+017833FM-12+001499999V0200801N018019999999N999999999+00441-00061999999REMSYN03001015 46/// /0818 10044 21006=
0039010150999992015010808004+69600+017833FM-12+001499999V0200801N013019999999N999999999+00441-00051999999REMSYN03001015 46/// /0813 10044 21005=
0039010150999992015010809004+69600+017833FM-12+001499999V0200801N014019999999N999999999+00421-00051999999REMSYN03001015 46/// /0814 10042 21005=
0039010150999992015010810004+69600+017833FM-12+001499999V0200801N014019999999N999999999+00391-00121999999REMSYN03001015 46/// /0814 10039 21012=
0039010150999992015010811004+69600+017833FM-12+001499999V0200801N014019999999N999999999+00361-00221999999REMSYN03001015 46/// /0814 10036 21022=
0049010150999992015010812004+69600+017833FM-12+001499999V020999999999999999999999999999+99999+99999999999REMSYN04001015 46/// /0708 10039 21055 333 91121=
0039010150999992015010813004+69600+017833FM-12+001499999V0200601N010019999999N999999999+00331-00361999999REMSYN03001015 46/// /0610 10033 21036=
0039010150999992015010814004+69600+017833FM-12+001499999V0200601N011019999999N999999999+00261-00181999999REMSYN03001015 46/// /0611 10026 21018=
0039010150999992015010815004+69600+017833FM-12+001499999V0200601N010019999999N999999999+00191-00101999999REMSYN03001015 46/// /0610 10019 21010=
0039010150999992015010816004+69600+017833FM-12+001499999V0200601N013019999999N999999999+00191-00081999999REMSYN03001015 46/// /0613 10019 21008=
0039010150999992015010817004+69600+017833FM-12+001499999V0200701N013019999999N999999999+00171-00091999999REMSYN03001015 46/// /0713 10017 21009=
0055010150999992015010818004+69600+017833FM-12+001499999V020999999999999999999999999999+99999+99999999999REMSYN04601015 46/// /0712 10014 21011 333 10045 91118=
0039010150999992015010819004+69600+017833FM-12+001499999V0200901N014019999999N999999999+00131-00091999999REMSYN03001015 46/// /0914 10013 21009=
0039010150999992015010820004+69600+017833FM-12+001499999V0200701N012019999999N999999999+00091-00141999999REMSYN03001015 46/// /0712 10009 21014=
0039010150999992015010821004+69600+017833FM-12+001499999V0200701N011019999999N999999999+00071-00181999999REMSYN03001015 46/// /0711 10007 21018=
0039010150999992015010822004+69600+017833FM-12+001499999V0200801N011019999999N999999999+00061-00211999999REMSYN03001015 46/// /0811 10006 21021=
0039010150999992015010823004+69600+017833FM-12+001499999V0200701N011019999999N999999999+00061-00251999999REMSYN03001015 46/// /0711 10006 21025=
0049010150999992015010900004+69600+017833FM-12+001499999V020999999999999999999999999999+99999+99999999999REMSYN04001015 46/// /0810 10010 21026 333 91117=
0039010150999992015010901004+69600+017833FM-12+001499999V0200701N010019999999N999999999+00151-00251999999REMSYN03001015 46/// /0710 10015 21025=
0039010150999992015010902004+69600+017833FM-12+001499999V0200601N010019999999N999999999+00111-00281999999REMSYN03001015 46/// /0610 10011 21028=
0039010150999992015010903004+69600+017833FM-12+001499999V0200801N011019999999N999999999+00111-00261999999REMSYN03001015 46/// /0811 10011 21026=
0039010150999992015010904004+69600+017833FM-12+001499999V0200701N010019999999N999999999+00101-00241999999REMSYN03001015 46/// /0710 10010 21024=
0039010150999992015010905004+69600+017833FM-12+001499999V0200501N010019999999N999999999+00101-00261999999REMSYN03001015 46/// /0510 10010 21026=
0055010150999992015010906004+69600+017833FM-12+001499999V020999999999999999999999999999+99999+99999999999REMSYN04601015 46/// /0809 10011 21026 333 20005 91115=
0039010150999992015010907004+69600+017833FM-12+001499999V0200701N009019999999N999999999+00101-00241999999REMSYN03001015 46/// /0709 10010 21024=
0039010150999992015010908004+69600+017833FM-12+001499999V0200501N010019999999N999999999+00101-00121999999REMSYN03001015 46/// /0510 10010 21012=
0039010150999992015010909004+69600+017833FM-12+001499999V0200601N009019999999N999999999+00081-00201999999REMSYN03001015 46/// /0609 10008 21020=
0039010150999992015010910004+69600+017833FM-12+001499999V0200801N008019999999N999999999+00041-00171999999REMSYN03001015 46/// /0808 10004 21017=
0039010150999992015010911004+69600+017833FM-12+001499999V0200801N008019999999N999999999+00021-00161999999REMSYN03001015 46/// /0808 10002 21016=
0049010150999992015010912004+69600+017833FM-12+001499999V020999999999999999999999999999+99999+99999999999REMSYN04001015 46/// /1008 10000 21016 333 91113=
0039010150999992015010913004+69600+017833FM-12+001499999V0201001N008019999999N999999999-00011-00131999999REMSYN03001015 46/// /1008 11001 21013=
0039010150999992015010914004+69600+017833FM-12+001499999V0201101N009019999999N999999999-00041-00141999999REMSYN03001015 46/// /1109 11004 21014=
0039010150999992015010915004+69600+017833FM-12+001499999V0201501N008019999999N999999999-00051-00161999999REMSYN03001015 46/// /1508 11005 21016=
0039010150999992015010916004+69600+017833FM-12+001499999V0200801N008019999999N999999999-00081-00181999999REMSYN03001015 46/// /0808 11008 21018=
0039010150999992015010917004+69600+017833FM-12+001499999V0200801N009019999999N999999999-00081-00201999999REMSYN03001015 46/// /0809 11008 21020=
0055010150999992015010918004+69600+017833FM-12+001499999V020999999999999999999999999999+99999+99999999999REMSYN04601015 46/// /0710 11010 21020 333 10013 91112=
0039010150999992015010919004+69600+017833FM-12+001499999V0200701N011019999999N999999999-00121-00211999999REMSYN03001015 46/// /0711 11012 21021=
0039010150999992015010920004+69600+017833FM-12+001499999V0200701N012019999999N999999999-00171-00261999999REMSYN03001015 46/// /0712 11017 21026=
0039010150999992015010921004+69600+017833FM-12+001499999V0200901N011019999999N999999999-00211-00291999999REMSYN03001015 46/// /0911 11021 21029=
0039010150999992015010922004+69600+017833FM-12+001499999V0201501N012019999999N999999999-00251-00331999999REMSYN03001015 46/// /1512 11025 21033=
0039010150999992015010923004+69600+017833FM-12+001499999V0201501N012019999999N999999999-00281-00361999999REMSYN03001015 46/// /1512 11028 21036=
0049010150999992015011000004+69600+017833FM-12+001499999V020999999999999999999999999999+99999+99999999999REMSYN04001015 46/// /1512 11026 21033 333 91118=
0039010150999992015011001004+69600+017833FM-12+001499999V0201501N018019999999N999999999-00251-00331999999REMSYN03001015 46/// /1518 11025 21033=
0039010150999992015011002004+69600+017833FM-12+001499999V0201501N016019999999N999999999-00311-00391999999REMSYN03001015 46/// /1516 11031 21039=
0039010150999992015011003004+69600+017833FM-12+001499999V0201601N015019999999N999999999-00361-00451999999REMSYN03001015 46/// /1615 11036 21045=
0039010150999992015011004004+69600+017833FM-12+001499999V0201701N015019999999N999999999-00391-00471999999REMSYN03001015 46/// /1715 11039 21047=
0039010150999992015011005004+69600+017833FM-12+001499999V0201601N015019999999N999999999-00391-00471999999REMSYN03001015 46/// /1615 11039 21047=
0055010150999992015011006004+69600+017833FM-12+001499999V020999999999999999999999999999+99999+99999999999REMSYN04601015 46/// /1616 11039 21049 333 21042 91123=
0039010150999992015011007004+69600+017833FM-12+001499999V0201601N016019999999N999999999-00391-00501999999REMSYN03001015 46/// /1616 11039 21050=
0039010150999992015011008004+69600+017833FM-12+001499999V0201601N017019999999N999999999-00441-00541999999REMSYN03001015 46/// /1617 11044 21054=
0039010150999992015011009004+69600+017833FM-12+001499999V0201601N019019999999N999999999-00411-00581999999REMSYN03001015 46/// /1619 11041 21058=
0039010150999992015011010004+69600+017833FM-12+001499999V0201601N017019999999N999999999-00391-00581999999REMSYN03001015 46/// /1617 11039 21058=
0039010150999992015011011004+69600+017833FM-12+001499999V0201601N019019999999N999999999-00421-00681999999REMSYN03001015 46/// /1619 11042 21068=
0049010150999992015011012004+69600+017833FM-12+001499999V020999999999999999999999999999+99999+99999999999REMSYN04001015 46/// /1618 11046 21081 333 91125=
0039010150999992015011013004+69600+017833FM-12+001499999V0201601N019019999999N999999999-00491-00801999999REMSYN03001015 46/// /1619 11049 21080=
0039010150999992015011014004+69600+017833FM-12+001499999V0201601N020019999999N999999999-00551-00831999999REMSYN03001015 46/// /1620 11055 21083=
0039010150999992015011015004+69600+017833FM-12+001499999V0201601N019019999999N999999999-00571-00871999999REMSYN03001015 46/// /1619 11057 21087=
0039010150999992015011016004+69600+017833FM-12+001499999V0201601N017019999999N999999999-00641-00961999999REMSYN03001015 46/// /1617 11064 21096=
0039010150999992015011017004+69600+017833FM-12+001499999V0201601N017019999999N999999999-00611-00951999999REMSYN03001015 46/// /1617 11061 21095=
0055010150999992015011018004+69600+017833FM-12+001499999V020999999999999999999999999999+99999+99999999999REMSYN04601015 46/// /1617 11070 21109 333 11038 91126=
0039010150999992015011019004+69600+017833FM-12+001499999V0201601N019019999999N999999999-00681-01021999999REMSYN03001015 46/// /1619 11068 21102=
0039010150999992015011020004+69600+017833FM-12+001499999V0201701N013019999999N999999999-00771-01221999999REMSYN03001015 46/// /1713 11077 21122=
0039010150999992015011021004+69600+017833FM-12+001499999V0201701N015019999999N999999999-00761-01201999999REMSYN03001015 46/// /1715 11076 21120=
0039010150999992015011022004+69600+017833FM-12+001499999V0201601N017019999999N999999999-00731-01241999999REMSYN03001015 46/// /1617 11073 21124=
0039010150999992015011023004+69600+017833FM-12+001499999V0201601N016019999999N999999999-00761-01231999999REMSYN03001015 46/// /1616 11076 21123=
0049010150999992015011100004+69600+017833FM-12+001499999V020999999999999999999999999999+99999+99999999999REMSYN04001015 46/// /1615 11078 21126 333 91122=
0039010150999992015011101004+69600+017833FM-12+001499999V0201701N012019999999N999999999-00791-01301999999REMSYN03001015 46/// /1712 11079 21130=
0039010150999992015011102004+69600+017833FM-12+001499999V0201701N012019999999N999999999-00821-01291999999REMSYN03001015 46/// /1712 11082 21129=
0039010150999992015011103004+69600+017833FM-12+001499999V0201601N015019999999N999999999-00771-01191999999REMSYN03001015 46/// /1615 11077 21119=
0039010150999992015011104004+69600+017833FM-12+001499999V0201601N016019999999N999999999-00751-01231999999REMSYN03001015 46/// /1616 11075 21123=
0039010150999992015011105004+69600+017833FM-12+001499999V0201701N009019999999N999999999-00821-01391999999REMSYN03001015 46/// /1709 11082 21139=
0055010150999992015011106004+69600+017833FM-12+001499999V020999999999999999999999999999+99999+99999999999REMSYN04601015 46/// /1710 11079 21144 333 21082 91121=
0039010150999992015011107004+69600+017833FM-12+001499999V0201701N010019999999N999999999-00791-01531999999REMSYN03001015 46/// /1710 11079 21153=
0039010150999992015011108004+69600+017833FM-12+001499999V0201601N012019999999N999999999-00771-01171999999REMSYN03001015 46/// /1612 11077 21117=
0039010150999992015011109004+69600+017833FM-12+001499999V0201701N009019999999N999999999-00851-01451999999REMSYN03001015 46/// /1709 11085 21145=
0039010150999992015011110004+69600+017833FM-12+001499999V0201601N013019999999N999999999-00901-01381999999REMSYN03001015 46/// /1613 11090 21138=
0039010150999992015011111004+69600+017833FM-12+001499999V0201601N011019999999N999999999-00891-01291999999REMSYN03001015 46/// /1611 11089 21129=
0049010150999992015011112004+69600+017833FM-12+001499999V020999999999999999999999999999+99999+99999999999REMSYN04001015 46/// /1709 11089 21146 333 91122=
0039010150999992015011113004+69600+017833FM-12+001499999V0201701N012019999999N999999999-00931-01521999999REMSYN03001015 46/// /1712 11093 21152=
0039010150999992015011114004+69600+017833FM-12+001499999V0201701N009019999999N999999999-00931-01481999999REMSYN03001015 46/// /1709 11093 21148=
0039010150999992015011115004+69600+017833FM-12+001499999V0201701N009019999999N999999999-00901-01541999999REMSYN03001015 46/// /1709 11090 21154=
0039010150999992015011116004+69600+017833FM-12+001499999V0201701N008019999999N999999999-00931-01541999999REMSYN03001015 46/// /1708 11093 21154=
0039010150999992015011117004+69600+017833FM-12+001499999V0201701N009019999999N999999999-00941-01531999999REMSYN03001015 46/// /1709 11094 21153=
0055010150999992015011118004+69600+017833FM-12+001499999V020999999999999999999999999999+99999+99999999999REMSYN04601015 46/// /1708 11093 21139 333 11072 91115=
0039010150999992015011119004+69600+017833FM-12+001499999V0201701N005019999999N999999999-00991-01521999999REMSYN03001015 46/// /1705 11099 21152=
0039010150999992015011120004+69600+017833FM-12+001499999V0201701N005019999999N999999999-00981-01471999999REMSYN03001015 46/// /1705 11098 21147=
0039010150999992015011121004+69600+017833FM-12+001499999V0201701N007019999999N999999999-00941-01451999999REMSYN03001015 46/// /1707 11094 21145=
0039010150999992015011122004+69600+017833FM-12+001499999V0201701N007019999999N999999999-00941-01441999999REMSYN03001015 46/// /1707 11094 21144=
0039010150999992015011123004+69600+017833FM-12+001499999V0201701N006019999999N999999999-00921-01461999999REMSYN03001015 46/// /1706 11092 21146=
0049010150999992015011200004+69600+017833FM-12+001499999V020999999999999999999999999999+99999+99999999999REMSYN04001015 46/// /1707 11092 21149 333 91116=
0039010150999992015011201004+69600+017833FM-12+001499999V0201701N009019999999N999999999-00941-01491999999REMSYN03001015 46/// /1709 11094 21149=
0039010150999992015011202004+69600+017833FM-12+001499999V0201701N011019999999N999999999-00901-01421999999REMSYN03001015 46/// /1711 11090 21142=
0039010150999992015011203004+69600+017833FM-12+001499999V0201701N009019999999N999999999-00881-01411999999REMSYN03001015 46/// /1709 11088 21141=
0039010150999992015011204004+69600+017833FM-12+001499999V0201701N009019999999N999999999-00911-01501999999REMSYN03001015 46/// /1709 11091 21150=
0039010150999992015011205004+69600+017833FM-12+001499999V0201701N009019999999N999999999-00891-01461999999REMSYN03001015 46/// /1709 11089 21146=
0055010150999992015011206004+69600+017833FM-12+001499999V020999999999999999999999999999+99999+99999999999REMSYN04601015 46/// /1709 11091 21145 333 21099 91116=
0039010150999992015011207004+69600+017833FM-12+001499999V0201601N011019999999N999999999-00861-01341999999REMSYN03001015 46/// /1611 11086 21134=
0039010150999992015011208004+69600+017833FM-12+001499999V0201601N013019999999N999999999-00841-01231999999REMSYN03001015 46/// /1613 11084 21123=
0039010150999992015011209004+69600+017833FM-12+001499999V0201601N014019999999N999999999-00851-01221999999REMSYN03001015 46/// /1614 11085 21122=
0039010150999992015011210004+69600+017833FM-12+001499999V0201701N008019999999N999999999-00901-01401999999REMSYN03001015 46/// /1708 11090 21140=
0039010150999992015011211004+69600+017833FM-12+001499999V0201701N009019999999N999999999-00891-01451999999REMSYN03001015 46/// /1709 11089 21145=
0049010150999992015011212004+69600+017833FM-12+001499999V020999999999999999999999999999+99999+99999999999REMSYN04001015 46/// /1713 11087 21144 333 91119=
0039010150999992015011213004+69600+017833FM-12+001499999V0201701N013019999999N999999999-00851-01421999999REMSYN03001015 46/// /1713 11085 21142=
0039010150999992015011214004+69600+017833FM-12+001499999V0201701N014019999999N999999999-00841-01521999999REMSYN03001015 46/// /1714 11084 21152=
0039010150999992015011215004+69600+017833FM-12+001499999V0201601N013019999999N999999999-00801-01401999999REMSYN03001015 46/// /1613 11080 21140=
0039010150999992015011216004+69600+017833FM-12+001499999V0201701N016019999999N999999999-00831-01511999999REMSYN03001015 46/// /1716 11083 21151=
0039010150999992015011217004+69600+017833FM-12+001499999V0201601N018019999999N999999999-00801-01361999999REMSYN03001015 46/// /1618 11080 21136=
0039010150999992015011219004+69600+017833FM-12+001499999V0201601N021019999999N999999999-00821-01271999999REMSYN03001015 46/// /1621 11082 21127=
0039010150999992015011220004+69600+017833FM-12+001499999V0201601N023019999999N999999999-00861-01381999999REMSYN03001015 46/// /1623 11086 21138=
0039010150999992015011221004+69600+017833FM-12+001499999V0201601N023019999999N999999999-00871-01351999999REMSYN03001015 46/// /1623 11087 21135=
0039010150999992015011222004+69600+017833FM-12+001499999V0201601N019019999999N999999999-00891-01391999999REMSYN03001015 46/// /1619 11089 21139=
0039010150999992015011223004+69600+017833FM-12+001499999V0201601N022019999999N999999999-00921-01351999999REMSYN03001015 46/// /1622 11092 21135=
0049010150999992015011300004+69600+017833FM-12+001499999V020999999999999999999999999999+99999+99999999999REMSYN04001015 46/// /1619 11095 21140 333 91129=
0039010150999992015011301004+69600+017833FM-12+001499999V0201601N020019999999N999999999-00941-01281999999REMSYN03001015 46/// /1620 11094 21128=
0039010150999992015011302004+69600+017833FM-12+001499999V0201601N020019999999N999999999-00931-01291999999REMSYN03001015 46/// /1620 11093 21129=
0039010150999992015011303004+69600+017833FM-12+001499999V0201601N018019999999N999999999-00901-01191999999REMSYN03001015 46/// /1618 11090 21119=
0039010150999992015011304004+69600+017833FM-12+001499999V0201601N019019999999N999999999-00871-01201999999REMSYN03001015 46/// /1619 11087 21120=
0039010150999992015011305004+69600+017833FM-12+001499999V0201601N022019999999N999999999-00881-01201999999REMSYN03001015 46/// /1622 11088 21120=
0049010150999992015011306004+69600+017833FM-12+001499999V020999999999999999999999999999+99999+99999999999REMSYN04001015 46/// /1520 11084 21117 333 91126=
0039010150999992015011307004+69600+017833FM-12+001499999V0201601N018019999999N999999999-00861-01241999999REMSYN03001015 46/// /1618 11086 21124=
0039010150999992015011308004+69600+017833FM-12+001499999V0201701N014019999999N999999999-00851-01341999999REMSYN03001015 46/// /1714 11085 21134=
0039010150999992015011309004+69600+017833FM-12+001499999V0201601N017019999999N999999999-00751-01131999999REMSYN03001015 46/// /1617 11075 21113=
0039010150999992015011310004+69600+017833FM-12+001499999V0201701N011019999999N999999999-00751-01201999999REMSYN03001015 46/// /1711 11075 21120=
0039010150999992015011311004+69600+017833FM-12+001499999V0201601N015019999999N999999999-00631-01031999999REMSYN03001015 46/// /1615 11063 21103=
0049010150999992015011312004+69600+017833FM-12+001499999V020999999999999999999999999999+99999+99999999999REMSYN04001015 46/// /1614 11065 21111 333 91125=
0039010150999992015011313004+69600+017833FM-12+001499999V0201601N013019999999N999999999-00631-01081999999REMSYN03001015 46/// /1613 11063 21108=
0039010150999992015011314004+69600+017833FM-12+001499999V0201501N018019999999N999999999-00641-00951999999REMSYN03001015 46/// /1518 11064 21095=
0039010150999992015011315004+69600+017833FM-12+001499999V0201601N019019999999N999999999-00631-00891999999REMSYN03001015 46/// /1619 11063 21089=
0039010150999992015011316004+69600+017833FM-12+001499999V0201601N021019999999N999999999-00601-00911999999REMSYN03001015 46/// /1621 11060 21091=
0039010150999992015011317004+69600+017833FM-12+001499999V0201601N018019999999N999999999-00571-00931999999REMSYN03001015 46/// /1618 11057 21093=
0055010150999992015011318004+69600+017833FM-12+001499999V020999999999999999999999999999+99999+99999999999REMSYN04601015 46/// /1616 11053 21090 333 11051 91128=
0039010150999992015011319004+69600+017833FM-12+001499999V0201601N016019999999N999999999-00481-00791999999REMSYN03001015 46/// /1616 11048 21079=
0039010150999992015011320004+69600+017833FM-12+001499999V0201601N018019999999N999999999-00531-00961999999REMSYN03001015 46/// /1618 11053 21096=
0039010150999992015011321004+69600+017833FM-12+001499999V0201601N021019999999N999999999-00421-00791999999REMSYN03001015 46/// /1621 11042 21079=
0039010150999992015011322004+69600+017833FM-12+001499999V0201601N016019999999N999999999-00361-00761999999REMSYN03001015 46/// /1616 11036 21076=
0039010150999992015011323004+69600+017833FM-12+001499999V0201601N018019999999N999999999-00321-00691999999REMSYN03001015 46/// /1618 11032 21069=
0049010150999992015011400004+69600+017833FM-12+001499999V020999999999999999999999999999+99999+99999999999REMSYN04001015 46/// /1621 11026 21065 333 91125=
0039010150999992015011401004+69600+017833FM-12+001499999V0201601N020019999999N999999999-00221-00621999999REMSYN03001015 46/// /1620 11022 21062=
0039010150999992015011402004+69600+017833FM-12+001499999V0201601N018019999999N999999999-00201-00551999999REMSYN03001015 46/// /1618 11020 21055=
0039010150999992015011403004+69600+017833FM-12+001499999V0201601N017019999999N999999999-00171-00561999999REMSYN03001015 46/// /1617 11017 21056=
0039010150999992015011404004+69600+017833FM-12+001499999V0201501N016019999999N999999999-00151-00571999999REMSYN03001015 46/// /1516 11015 21057=
0039010150999992015011405004+69600+017833FM-12+001499999V0201601N016019999999N999999999-00171-00531999999REMSYN03001015 46/// /1616 11017 21053=
0055010150999992015011406004+69600+017833FM-12+001499999V020999999999999999999999999999+99999+99999999999REMSYN04601015 46/// /1713 11016 21057 333 21054 91125=
0039010150999992015011407004+69600+017833FM-12+001499999V0201601N012019999999N999999999-00221-00801999999REMSYN03001015 46/// /1612 11022 21080=
0039010150999992015011408004+69600+017833FM-12+001499999V0201701N009019999999N999999999-00251-00861999999REMSYN03001015 46/// /1709 11025 21086=
0039010150999992015011409004+69600+017833FM-12+001499999V0201601N014019999999N999999999-00251-00851999999REMSYN03001015 46/// /1614 11025 21085=
0039010150999992015011410004+69600+017833FM-12+001499999V0201601N013019999999N999999999-00231-00801999999REMSYN03001015 46/// /1613 11023 21080=
0039010150999992015011411004+69600+017833FM-12+001499999V0201601N013019999999N999999999-00251-00841999999REMSYN03001015 46/// /1613 11025 21084=
0049010150999992015011412004+69600+017833FM-12+001499999V020999999999999999999999999999+99999+99999999999REMSYN04001015 46/// /1613 11023 21083 333 91119=
0039010150999992015011413004+69600+017833FM-12+001499999V0201601N013019999999N999999999-00251-00861999999REMSYN03001015 46/// /1613 11025 21086=
0039010150999992015011414004+69600+017833FM-12+001499999V0201601N012019999999N999999999-00231-00891999999REMSYN03001015 46/// /1612 11023 21089=
0039010150999992015011415004+69600+017833FM-12+001499999V0201601N013019999999N999999999-00221-00791999999REMSYN03001015 46/// /1613 11022 21079=
0039010150999992015011416004+69600+017833FM-12+001499999V0201601N010019999999N999999999-00251-00891999999REMSYN03001015 46/// /1610 11025 21089=
0039010150999992015011417004+69600+017833FM-12+001499999V0201701N008019999999N999999999-00281-00901999999REMSYN03001015 46/// /1708 11028 21090=
0055010150999992015011418004+69600+017833FM-12+001499999V020999999999999999999999999999+99999+99999999999REMSYN04601015 46/// /1709 11029 21083 333 11014 91116=
0039010150999992015011419004+69600+017833FM-12+001499999V0201701N009019999999N999999999-00281-00781999999REMSYN03001015 46/// /1709 11028 21078=
0039010150999992015011420004+69600+017833FM-12+001499999V0201701N010019999999N999999999-00291-00851999999REMSYN03001015 46/// /1710 11029 21085=
0039010150999992015011421004+69600+017833FM-12+001499999V0201601N010019999999N999999999-00301-00841999999REMSYN03001015 46/// /1610 11030 21084=
0039010150999992015011422004+69600+017833FM-12+001499999V0201601N011019999999N999999999-00291-00821999999REMSYN03001015 46/// /1611 11029 21082=
0039010150999992015011423004+69600+017833FM-12+001499999V0201701N009019999999N999999999-00301-00831999999REMSYN03001015 46/// /1709 11030 21083=
0049010150999992015011500004+69600+017833FM-12+001499999V020999999999999999999999999999+99999+99999999999REMSYN04001015 46/// /1709 11031 21081 333 91114=
0039010150999992015011501004+69600+017833FM-12+001499999V0201601N012019999999N999999999-00301-00891999999REMSYN03001015 46/// /1612 11030 21089=
0039010150999992015011502004+69600+017833FM-12+001499999V0201601N011019999999N999999999-00291-00821999999REMSYN03001015 46/// /1611 11029 21082=
0039010150999992015011503004+69600+017833FM-12+001499999V0201601N011019999999N999999999-00321-00921999999REMSYN03001015 46/// /1611 11032 21092=
0039010150999992015011504004+69600+017833FM-12+001499999V0201601N011019999999N999999999-00331-00911999999REMSYN03001015 46/// /1611 11033 21091=
0039010150999992015011505004+69600+017833FM-12+001499999V0201601N011019999999N999999999-00361-00971999999REMSYN03001015 46/// /1611 11036 21097=
0055010150999992015011506004+69600+017833FM-12+001499999V020999999999999999999999999999+99999+99999999999REMSYN04601015 46/// /1611 11037 21093 333 21038 91115=
0039010150999992015011507004+69600+017833FM-12+001499999V0201601N011019999999N999999999-00391-00921999999REMSYN03001015 46/// /1611 11039 21092=
0039010150999992015011508004+69600+017833FM-12+001499999V0201601N012019999999N999999999-00401-00931999999REMSYN03001015 46/// /1612 11040 21093=
0039010150999992015011509004+69600+017833FM-12+001499999V0201601N013019999999N999999999-00391-00901999999REMSYN03001015 46/// /1613 11039 21090=
0039010150999992015011510004+69600+017833FM-12+001499999V0201601N012019999999N999999999-00411-00891999999REMSYN03001015 46/// /1612 11041 21089=
0039010150999992015011511004+69600+017833FM-12+001499999V0201601N012019999999N999999999-00431-00931999999REMSYN03001015 46/// /1612 11043 21093=
0049010150999992015011512004+69600+017833FM-12+001499999V020999999999999999999999999999+99999+99999999999REMSYN04001015 46/// /1612 11043 21092 333 91116=
0039010150999992015011513004+69600+017833FM-12+001499999V0201601N011019999999N999999999-00441-00931999999REMSYN03001015 46/// /1611 11044 21093=
0039010150999992015011514004+69600+017833FM-12+001499999V0201601N013019999999N999999999-00431-00891999999REMSYN03001015 46/// /1613 11043 21089=
0039010150999992015011515004+69600+017833FM-12+001499999V0201601N012019999999N999999999-00441-00841999999REMSYN03001015 46/// /1612 11044 21084=
0039010150999992015011516004+69600+017833FM-12+001499999V0201601N012019999999N999999999-00431-00811999999REMSYN03001015 46/// /1612 11043 21081=
0039010150999992015011517004+69600+017833FM-12+001499999V0201601N013019999999N999999999-00431-00771999999REMSYN03001015 46/// /1613 11043 21077=
0055010150999992015011518004+69600+017833FM-12+001499999V020999999999999999999999999999+99999+99999999999REMSYN04601015 46/// /1612 11045 21078 333 11036 91116=
0039010150999992015011519004+69600+017833FM-12+001499999V0201601N010019999999N999999999-00461-00791999999REMSYN03001015 46/// /1610 11046 21079=
0039010150999992015011520004+69600+017833FM-12+001499999V0201601N010019999999N999999999-00421-00741999999REMSYN03001015 46/// /1610 11042 21074=
0039010150999992015011521004+69600+017833FM-12+001499999V0201701N010019999999N999999999-00421-00751999999REMSYN03001015 46/// /1710 11042 21075=
0039010150999992015011522004+69600+017833FM-12+001499999V0201701N009019999999N999999999-00461-00771999999REMSYN03001015 46/// /1709 11046 21077=
0039010150999992015011523004+69600+017833FM-12+001499999V0201701N010019999999N999999999-00341-00711999999REMSYN03001015 46/// /1710 11034 21071=
0049010150999992015011600004+69600+017833FM-12+001499999V020999999999999999999999999999+99999+99999999999REMSYN04001015 46/// /1612 11033 21067 333 91115=
0039010150999992015011601004+69600+017833FM-12+001499999V0201601N011019999999N999999999-00241-00621999999REMSYN03001015 46/// /1611 11024 21062=
0039010150999992015011602004+69600+017833FM-12+001499999V0201601N013019999999N999999999-00141-00591999999REMSYN03001015 46/// /1613 11014 21059=
0039010150999992015011603004+69600+017833FM-12+001499999V0201601N012019999999N999999999-00131-00581999999REMSYN03001015 46/// /1612 11013 21058=
0039010150999992015011604004+69600+017833FM-12+001499999V0201701N008019999999N999999999-00181-00671999999REMSYN03001015 46/// /1708 11018 21067=
0039010150999992015011605004+69600+017833FM-12+001499999V0201701N008019999999N999999999-00141-00631999999REMSYN03001015 46/// /1708 11014 21063=
0055010150999992015011606004+69600+017833FM-12+001499999V020999999999999999999999999999+99999+99999999999REMSYN04601015 46/// /1707 11012 21045 333 21047 91116=
0039010150999992015011607004+69600+017833FM-12+001499999V0201701N010019999999N999999999-00071-00541999999REMSYN03001015 46/// /1710 11007 21054=
0039010150999992015011608004+69600+017833FM-12+001499999V0201701N007019999999N999999999-00071-00571999999REMSYN03001015 46/// /1707 11007 21057=
0039010150999992015011609004+69600+017833FM-12+001499999V0201701N007019999999N999999999-00141-00411999999REMSYN03001015 46/// /1707 11014 21041=
0039010150999992015011610004+69600+017833FM-12+001499999V0201601N007019999999N999999999-00171-00331999999REMSYN03001015 46/// /1607 11017 21033=
0039010150999992015011611004+69600+017833FM-12+001499999V0201701N006019999999N999999999-00121-00451999999REMSYN03001015 46/// /1706 11012 21045=
0049010150999992015011612004+69600+017833FM-12+001499999V020999999999999999999999999999+99999+99999999999REMSYN04001015 46/// /1705 11008 21048 333 91116=
0039010150999992015011613004+69600+017833FM-12+001499999V0201701N006019999999N999999999-00061-00501999999REMSYN03001015 46/// /1706 11006 21050=
0039010150999992015011614004+69600+017833FM-12+001499999V0201701N006019999999N999999999-00061-00501999999REMSYN03001015 46/// /1706 11006 21050=
0039010150999992015011615004+69600+017833FM-12+001499999V0201601N006019999999N999999999-00051-00461999999REMSYN03001015 46/// /1606 11005 21046=
0039010150999992015011616004+69600+017833FM-12+001499999V0201701N007019999999N999999999-00031-00481999999REMSYN03001015 46/// /1707 11003 21048=
0039010150999992015011617004+69600+017833FM-12+001499999V0201701N007019999999N999999999-00021-00461999999REMSYN03001015 46/// /1707 11002 21046=
0055010150999992015011618004+69600+017833FM-12+001499999V020999999999999999999999999999+99999+99999999999REMSYN04601015 46/// /1606 10000 21056 333 10000 91110=
0039010150999992015011619004+69600+017833FM-12+001499999V0201601N006019999999N999999999+00041-00481999999REMSYN03001015 46/// /1606 10004 21048=
0039010150999992015011620004+69600+017833FM-12+001499999V0201601N005019999999N999999999+00041-00471999999REMSYN03001015 46/// /1605 10004 21047=
0039010150999992015011621004+69600+017833FM-12+001499999V0201601N006019999999N999999999+00081-00411999999REMSYN03001015 46/// /1606 10008 21041=
0039010150999992015011622004+69600+017833FM-12+001499999V0201701N004019999999N999999999+00061-00441999999REMSYN03001015 46/// /1704 10006 21044=
0039010150999992015011623004+69600+017833FM-12+001499999V0201701N004019999999N999999999+00061-00431999999REMSYN03001015 46/// /1704 10006 21043=
0049010150999992015011700004+69600+017833FM-12+001499999V020999999999999999999999999999+99999+99999999999REMSYN04001015 46/// /1804 10005 21046 333 91109=
0039010150999992015011701004+69600+017833FM-12+001499999V0201801N004019999999N999999999+00051-00441999999REMSYN03001015 46/// /1804 10005 21044=
0039010150999992015011702004+69600+017833FM-12+001499999V0201701N004019999999N999999999+00061-00471999999REMSYN03001015 46/// /1704 10006 21047=
0039010150999992015011703004+69600+017833FM-12+001499999V0201701N004019999999N999999999+00071-00501999999REMSYN03001015 46/// /1704 10007 21050=
0039010150999992015011704004+69600+017833FM-12+001499999V0201601N004019999999N999999999+00061-00401999999REMSYN03001015 46/// /1604 10006 21040=
0039010150999992015011705004+69600+017833FM-12+001499999V0201601N005019999999N999999999+00071-00371999999REMSYN03001015 46/// /1605 10007 21037=
0055010150999992015011706004+69600+017833FM-12+001499999V020999999999999999999999999999+99999+99999999999REMSYN04601015 46/// /1704 10001 21037 333 20000 91107=
0039010150999992015011707004+69600+017833FM-12+001499999V0201601N005019999999N999999999-00011-00421999999REMSYN03001015 46/// /1605 11001 21042=
0039010150999992015011708004+69600+017833FM-12+001499999V0201601N005019999999N999999999-00011-00361999999REMSYN03001015 46/// /1605 11001 21036=
0039010150999992015011709004+69600+017833FM-12+001499999V0201801N005019999999N999999999-00031-00421999999REMSYN03001015 46/// /1805 11003 21042=
0039010150999992015011710004+69600+017833FM-12+001499999V0201601N004019999999N999999999-00031-00401999999REMSYN03001015 46/// /1604 11003 21040=
0039010150999992015011711004+69600+017833FM-12+001499999V0201601N004019999999N999999999-00021-00371999999REMSYN03001015 46/// /1604 11002 21037=
0049010150999992015011712004+69600+017833FM-12+001499999V020999999999999999999999999999+99999+99999999999REMSYN04001015 46/// /1704 11002 21042 333 91107=
0039010150999992015011713004+69600+017833FM-12+001499999V0201701N003019999999N999999999-00041-00451999999REMSYN03001015 46/// /1703 11004 21045=
0039010150999992015011714004+69600+017833FM-12+001499999V0201401N006019999999N999999999+00071-00451999999REMSYN03001015 46/// /1406 10007 21045=
0039010150999992015011715004+69600+017833FM-12+001499999V0201501N005019999999N999999999+00071-00421999999REMSYN03001015 46/// /1505 10007 21042=
0039010150999992015011716004+69600+017833FM-12+001499999V0201401N005019999999N999999999+00121-00431999999REMSYN03001015 46/// /1405 10012 21043=
0039010150999992015011717004+69600+017833FM-12+001499999V0200301N003019999999N999999999+00121-00471999999REMSYN03001015 46/// /0303 10012 21047=
0055010150999992015011718004+69600+017833FM-12+001499999V020999999999999999999999999999+99999+99999999999REMSYN04601015 46/// /1604 10007 21044 333 10013 91109=
0039010150999992015011719004+69600+017833FM-12+001499999V0201701N003019999999N999999999+00031-00521999999REMSYN03001015 46/// /1703 10003 21052=
0039010150999992015011720004+69600+017833FM-12+001499999V0201401N003019999999N999999999+00091-00511999999REMSYN03001015 46/// /1403 10009 21051=
0039010150999992015011721004+69600+017833FM-12+001499999V0201001N002019999999N999999999+00131-00471999999REMSYN03001015 46/// /1002 10013 21047=
0039010150999992015011722004+69600+017833FM-12+001499999V0200201N008019999999N999999999+00211-00181999999REMSYN03001015 46/// /0208 10021 21018=
0039010150999992015011723004+69600+017833FM-12+001499999V0200801N009019999999N999999999+00151-00091999999REMSYN03001015 46/// /0809 10015 21009=
0049010150999992015011800004+69600+017833FM-12+001499999V020999999999999999999999999999+99999+99999999999REMSYN04001015 46/// /0811 10013 21004 333 91113=
0039010150999992015011801004+69600+017833FM-12+001499999V0200901N006019999999N999999999+00111-00111999999REMSYN03001015 46/// /0906 10011 21011=
0039010150999992015011802004+69600+017833FM-12+001499999V0201001N004019999999N999999999+00111-00151999999REMSYN03001015 46/// /1004 10011 21015=
0039010150999992015011803004+69600+017833FM-12+001499999V0201401N003019999999N999999999+00051-00171999999REMSYN03001015 46/// /1403 10005 21017=
0039010150999992015011804004+69600+017833FM-12+001499999V0200801N005019999999N999999999+00101-00311999999REMSYN03001015 46/// /0805 10010 21031=
0039010150999992015011805004+69600+017833FM-12+001499999V0200801N008019999999N999999999+00141-00361999999REMSYN03001015 46/// /0808 10014 21036=
0055010150999992015011806004+69600+017833FM-12+001499999V020999999999999999999999999999+99999+99999999999REMSYN04601015 46/// /0709 10011 21040 333 20003 91113=
0039010150999992015011807004+69600+017833FM-12+001499999V0200901N008019999999N999999999+00101-00471999999REMSYN03001015 46/// /0908 10010 21047=
0039010150999992015011808004+69600+017833FM-12+001499999V0200801N010019999999N999999999+00071-00471999999REMSYN03001015 46/// /0810 10007 21047=
0039010150999992015011809004+69600+017833FM-12+001499999V0200801N007019999999N999999999+00011-00571999999REMSYN03001015 46/// /0807 10001 21057=
0039010150999992015011810004+69600+017833FM-12+001499999V0200901N008019999999N999999999-00021-00541999999REMSYN03001015 46/// /0908 11002 21054=
0039010150999992015011811004+69600+017833FM-12+001499999V0200801N009019999999N999999999-00061-00611999999REMSYN03001015 46/// /0809 11006 21061=
0049010150999992015011812004+69600+017833FM-12+001499999V020999999999999999999999999999+99999+99999999999REMSYN04001015 46/// /0907 11008 21069 333 91114=
0039010150999992015011813004+69600+017833FM-12+001499999V0200901N010019999999N999999999-00081-00651999999REMSYN03001015 46/// /0910 11008 21065=
0039010150999992015011814004+69600+017833FM-12+001499999V0200801N009019999999N999999999-00081-00581999999REMSYN03001015 46/// /0809 11008 21058=
0039010150999992015011815004+69600+017833FM-12+001499999V0200901N006019999999N999999999-00101-00611999999REMSYN03001015 46/// /0906 11010 21061=
0039010150999992015011816004+69600+017833FM-12+001499999V0200901N003019999999N999999999-00151-00701999999REMSYN03001015 46/// /0903 11015 21070=
0039010150999992015011817004+69600+017833FM-12+001499999V0200901N007019999999N999999999-00141-00641999999REMSYN03001015 46/// /0907 11014 21064=
0055010150999992015011818004+69600+017833FM-12+001499999V020999999999999999999999999999+99999+99999999999REMSYN04601015 46/// /0906 11021 21068 333 10012 91112=
0039010150999992015011819004+69600+017833FM-12+001499999V0201601N006019999999N999999999-00281-00871999999REMSYN03001015 46/// /1606 11028 21087=
0039010150999992015011820004+69600+017833FM-12+001499999V0201701N007019999999N999999999-00361-01001999999REMSYN03001015 46/// /1707 11036 21100=
0039010150999992015011821004+69600+017833FM-12+001499999V0201701N008019999999N999999999-00421-01131999999REMSYN03001015 46/// /1708 11042 21113=
0039010150999992015011822004+69600+017833FM-12+001499999V0201701N007019999999N999999999-00441-01071999999REMSYN03001015 46/// /1707 11044 21107=
0039010150999992015011823004+69600+017833FM-12+001499999V0201701N006019999999N999999999-00431-01061999999REMSYN03001015 46/// /1706 11043 21106=
0049010150999992015011900004+69600+017833FM-12+001499999V020999999999999999999999999999+99999+99999999999REMSYN04001015 46/// /1706 11045 21109 333 91111=
0039010150999992015011901004+69600+017833FM-12+001499999V0201701N006019999999N999999999-00481-01071999999REMSYN03001015 46/// /1706 11048 21107=
0039010150999992015011902004+69600+017833FM-12+001499999V0201601N007019999999N999999999-00511-01211999999REMSYN03001015 46/// /1607 11051 21121=
0039010150999992015011903004+69600+017833FM-12+001499999V0201601N006019999999N999999999-00501-01211999999REMSYN03001015 46/// /1606 11050 21121=
0039010150999992015011904004+69600+017833FM-12+001499999V0201601N006019999999N999999999-00511-01231999999REMSYN03001015 46/// /1606 11051 21123=
0039010150999992015011905004+69600+017833FM-12+001499999V0201601N006019999999N999999999-00521-01211999999REMSYN03001015 46/// /1606 11052 21121=
0055010150999992015011906004+69600+017833FM-12+001499999V020999999999999999999999999999+99999+99999999999REMSYN04601015 46/// /1706 11054 21129 333 21055 91110=
0039010150999992015011907004+69600+017833FM-12+001499999V0201601N008019999999N999999999-00511-01211999999REMSYN03001015 46/// /1608 11051 21121=
0039010150999992015011908004+69600+017833FM-12+001499999V0201701N006019999999N999999999-00561-01201999999REMSYN03001015 46/// /1706 11056 21120=
0039010150999992015011909004+69600+017833FM-12+001499999V0201701N008019999999N999999999-00551-01231999999REMSYN03001015 46/// /1708 11055 21123=
0039010150999992015011910004+69600+017833FM-12+001499999V0201601N009019999999N999999999-00561-01291999999REMSYN03001015 46/// /1609 11056 21129=
0039010150999992015011911004+69600+017833FM-12+001499999V0201601N008019999999N999999999-00571-01201999999REMSYN03001015 46/// /1608 11057 21120=
0049010150999992015011912004+69600+017833FM-12+001499999V020999999999999999999999999999+99999+99999999999REMSYN04001015 46/// /1607 11059 21121 333 91112=
0039010150999992015011913004+69600+017833FM-12+001499999V0201601N008019999999N999999999-00601-01141999999REMSYN03001015 46/// /1608 11060 21114=
0039010150999992015011914004+69600+017833FM-12+001499999V0201601N008019999999N999999999-00591-01251999999REMSYN03001015 46/// /1608 11059 21125=
0039010150999992015011915004+69600+017833FM-12+001499999V0201601N009019999999N999999999-00611-01171999999REMSYN03001015 46/// /1609 11061 21117=
0039010150999992015011916004+69600+017833FM-12+001499999V0201601N010019999999N999999999-00641-01121999999REMSYN03001015 46/// /1610 11064 21112=
0039010150999992015011917004+69600+017833FM-12+001499999V0201601N010019999999N999999999-00661-01061999999REMSYN03001015 46/// /1610 11066 21106=
0055010150999992015011918004+69600+017833FM-12+001499999V020999999999999999999999999999+99999+99999999999REMSYN04601015 46/// /1610 11068 21121 333 11051 91113=
0039010150999992015011919004+69600+017833FM-12+001499999V0201601N008019999999N999999999-00651-01361999999REMSYN03001015 46/// /1608 11065 21136=
0039010150999992015011920004+69600+017833FM-12+001499999V0201601N009019999999N999999999-00691-01341999999REMSYN03001015 46/// /1609 11069 21134=
0039010150999992015011921004+69600+017833FM-12+001499999V0201601N010019999999N999999999-00691-01101999999REMSYN03001015 46/// /1610 11069 21110=
0039010150999992015011922004+69600+017833FM-12+001499999V0201601N010019999999N999999999-00711-01251999999REMSYN03001015 46/// /1610 11071 21125=
0039010150999992015011923004+69600+017833FM-12+001499999V0201601N007019999999N999999999-00661-01321999999REMSYN03001015 46/// /1607 11066 21132=
0049010150999992015012000004+69600+017833FM-12+001499999V020999999999999999999999999999+99999+99999999999REMSYN04001015 46/// /1609 11068 21107 333 91113=
0039010150999992015012001004+69600+017833FM-12+001499999V0201601N009019999999N999999999-00641-00971999999REMSYN03001015 46/// /1609 11064 21097=
0039010150999992015012002004+69600+017833FM-12+001499999V0201601N007019999999N999999999-00641-01271999999REMSYN03001015 46/// /1607 11064 21127=
0039010150999992015012003004+69600+017833FM-12+001499999V0201601N008019999999N999999999-00611-01121999999REMSYN03001015 46/// /1608 11061 21112=
0039010150999992015012004004+69600+017833FM-12+001499999V0201601N008019999999N999999999-00571-01091999999REMSYN03001015 46/// /1608 11057 21109=
0039010150999992015012005004+69600+017833FM-12+001499999V0201601N008019999999N999999999-00561-01071999999REMSYN03001015 46/// /1608 11056 21107=
0055010150999992015012006004+69600+017833FM-12+001499999V020999999999999999999999999999+99999+99999999999REMSYN04601015 46/// /1609 11059 21101 333 21074 91113=
0039010150999992015012007004+69600+017833FM-12+001499999V0201601N009019999999N999999999-00561-00951999999REMSYN03001015 46/// /1609 11056 21095=
0039010150999992015012008004+69600+017833FM-12+001499999V0201601N009019999999N999999999-00561-01081999999REMSYN03001015 46/// /1609 11056 21108=
0039010150999992015012009004+69600+017833FM-12+001499999V0201601N011019999999N999999999-00571-00951999999REMSYN03001015 46/// /1611 11057 21095=
0039010150999992015012010004+69600+017833FM-12+001499999V0201601N010019999999N999999999-00551-00861999999REMSYN03001015 46/// /1610 11055 21086=
0039010150999992015012011004+69600+017833FM-12+001499999V0201601N009019999999N999999999-00551-01091999999REMSYN03001015 46/// /1609 11055 21109=
0049010150999992015012012004+69600+017833FM-12+001499999V020999999999999999999999999999+99999+99999999999REMSYN04001015 46/// /1610 11057 21098 333 91114=
0039010150999992015012013004+69600+017833FM-12+001499999V0201601N009019999999N999999999-00521-00961999999REMSYN03001015 46/// /1609 11052 21096=
0039010150999992015012014004+69600+017833FM-12+001499999V0201601N009019999999N999999999-00511-00961999999REMSYN03001015 46/// /1609 11051 21096=
0039010150999992015012015004+69600+017833FM-12+001499999V0201601N009019999999N999999999-00521-01041999999REMSYN03001015 46/// /1609 11052 21104=
0039010150999992015012016004+69600+017833FM-12+001499999V0201601N008019999999N999999999-00511-01031999999REMSYN03001015 46/// /1608 11051 21103=
0039010150999992015012017004+69600+017833FM-12+001499999V0201601N007019999999N999999999-00481-00911999999REMSYN03001015 46/// /1607 11048 21091=
0055010150999992015012018004+69600+017833FM-12+001499999V020999999999999999999999999999+99999+99999999999REMSYN04601015 46/// /1608 11051 21097 333 11047 91113=
0039010150999992015012019004+69600+017833FM-12+001499999V0201601N008019999999N999999999-00511-00871999999REMSYN03001015 46/// /1608 11051 21087=
0039010150999992015012020004+69600+017833FM-12+001499999V0201601N008019999999N999999999-00511-01001999999REMSYN03001015 46/// /1608 11051 21100=
0039010150999992015012021004+69600+017833FM-12+001499999V0201601N009019999999N999999999-00511-00931999999REMSYN03001015 46/// /1609 11051 21093=
0039010150999992015012022004+69600+017833FM-12+001499999V0201601N008019999999N999999999-00521-00961999999REMSYN03001015 46/// /1608 11052 21096=
0039010150999992015012023004+69600+017833FM-12+001499999V0201601N010019999999N999999999-00521-01041999999REMSYN03001015 46/// /1610 11052 21104=
0049010150999992015012100004+69600+017833FM-12+001499999V020999999999999999999999999999+99999+99999999999REMSYN04001015 46/// /1611 11051 21092 333 91113=
0039010150999992015012101004+69600+017833FM-12+001499999V0201601N010019999999N999999999-00501-01041999999REMSYN03001015 46/// /1610 11050 21104=
0039010150999992015012102004+69600+017833FM-12+001499999V0201601N011019999999N999999999-00481-00921999999REMSYN03001015 46/// /1611 11048 21092=
0039010150999992015012103004+69600+017833FM-12+001499999V0201601N010019999999N999999999-00481-00961999999REMSYN03001015 46/// /1610 11048 21096=
0039010150999992015012104004+69600+017833FM-12+001499999V0201601N010019999999N999999999-00521-01021999999REMSYN03001015 46/// /1610 11052 21102=
0039010150999992015012105004+69600+017833FM-12+001499999V0201601N009019999999N999999999-00501-00921999999REMSYN03001015 46/// /1609 11050 21092=
0055010150999992015012106004+69600+017833FM-12+001499999V020999999999999999999999999999+99999+99999999999REMSYN04601015 46/// /1608 11048 21095 333 21053 91113=
0039010150999992015012107004+69600+017833FM-12+001499999V0201601N008019999999N999999999-00461-00971999999REMSYN03001015 46/// /1608 11046 21097=
0039010150999992015012108004+69600+017833FM-12+001499999V0201601N011019999999N999999999-00461-00881999999REMSYN03001015 46/// /1611 11046 21088=
0039010150999992015012109004+69600+017833FM-12+001499999V0201601N010019999999N999999999-00481-00881999999REMSYN03001015 46/// /1610 11048 21088=
0039010150999992015012110004+69600+017833FM-12+001499999V0201601N008019999999N999999999-00441-00911999999REMSYN03001015 46/// /1608 11044 21091=
0039010150999992015012111004+69600+017833FM-12+001499999V0201601N008019999999N999999999-00431-00901999999REMSYN03001015 46/// /1608 11043 21090=
0049010150999992015012112004+69600+017833FM-12+001499999V020999999999999999999999999999+99999+99999999999REMSYN04001015 46/// /1608 11041 21084 333 91113=
0039010150999992015012113004+69600+017833FM-12+001499999V0201601N010019999999N999999999-00421-00871999999REMSYN03001015 46/// /1610 11042 21087=
0039010150999992015012114004+69600+017833FM-12+001499999V0201601N010019999999N999999999-00421-00861999999REMSYN03001015 46/// /1610 11042 21086=
0039010150999992015012115004+69600+017833FM-12+001499999V0201601N009019999999N999999999-00421-00801999999REMSYN03001015 46/// /1609 11042 21080=
0039010150999992015012116004+69600+017833FM-12+001499999V0201601N009019999999N999999999-00401-00831999999REMSYN03001015 46/// /1609 11040 21083=
0039010150999992015012117004+69600+017833FM-12+001499999V0201601N008019999999N999999999-00381-00791999999REMSYN03001015 46/// /1608 11038 21079=
0055010150999992015012118004+69600+017833FM-12+001499999V020999999999999999999999999999+99999+99999999999REMSYN04601015 46/// /1608 11036 21087 333 11035 91112=
0039010150999992015012119004+69600+017833FM-12+001499999V0201601N009019999999N999999999-00381-00781999999REMSYN03001015 46/// /1609 11038 21078=
0039010150999992015012120004+69600+017833FM-12+001499999V0201601N009019999999N999999999-00391-00801999999REMSYN03001015 46/// /1609 11039 21080=
0039010150999992015012121004+69600+017833FM-12+001499999V0201601N010019999999N999999999-00381-00721999999REMSYN03001015 46/// /1610 11038 21072=
0039010150999992015012122004+69600+017833FM-12+001499999V0201601N009019999999N999999999-00391-00731999999REMSYN03001015 46/// /1609 11039 21073=
0039010150999992015012123004+69600+017833FM-12+001499999V0201601N010019999999N999999999-00391-00741999999REMSYN03001015 46/// /1610 11039 21074=
0049010150999992015012200004+69600+017833FM-12+001499999V020999999999999999999999999999+99999+99999999999REMSYN04001015 46/// /1610 11037 21064 333 91112=
0039010150999992015012201004+69600+017833FM-12+001499999V0201601N009019999999N999999999-00411-00741999999REMSYN03001015 46/// /1609 11041 21074=
0039010150999992015012202004+69600+017833FM-12+001499999V0201601N009019999999N999999999-00391-00751999999REMSYN03001015 46/// /1609 11039 21075=
0039010150999992015012203004+69600+017833FM-12+001499999V0201601N010019999999N999999999-00411-00721999999REMSYN03001015 46/// /1610 11041 21072=
0039010150999992015012204004+69600+017833FM-12+001499999V0201601N008019999999N999999999-00401-00761999999REMSYN03001015 46/// /1608 11040 21076=
0039010150999992015012205004+69600+017833FM-12+001499999V0201601N009019999999N999999999-00401-00741999999REMSYN03001015 46/// /1609 11040 21074=
0055010150999992015012206004+69600+017833FM-12+001499999V020999999999999999999999999999+99999+99999999999REMSYN04601015 46/// /1609 11042 21079 333 21044 91112=
0039010150999992015012207004+69600+017833FM-12+001499999V0201601N009019999999N999999999-00431-00781999999REMSYN03001015 46/// /1609 11043 21078=
0039010150999992015012208004+69600+017833FM-12+001499999V0201601N010019999999N999999999-00441-00791999999REMSYN03001015 46/// /1610 11044 21079=
0039010150999992015012209004+69600+017833FM-12+001499999V0201601N010019999999N999999999-00441-00801999999REMSYN03001015 46/// /1610 11044 21080=
0039010150999992015012210004+69600+017833FM-12+001499999V0201601N011019999999N999999999-00441-00831999999REMSYN03001015 46/// /1611 11044 21083=
0039010150999992015012211004+69600+017833FM-12+001499999V0201601N012019999999N999999999-00431-00831999999REMSYN03001015 46/// /1612 11043 21083=
0049010150999992015012212004+69600+017833FM-12+001499999V020999999999999999999999999999+99999+99999999999REMSYN04001015 46/// /1611 11042 21088 333 91114=
0039010150999992015012213004+69600+017833FM-12+001499999V0201601N010019999999N999999999-00411-00861999999REMSYN03001015 46/// /1610 11041 21086=
0039010150999992015012214004+69600+017833FM-12+001499999V0201601N010019999999N999999999-00411-00891999999REMSYN03001015 46/// /1610 11041 21089=
0039010150999992015012215004+69600+017833FM-12+001499999V0201601N011019999999N999999999-00441-00901999999REMSYN03001015 46/// /1611 11044 21090=
0039010150999992015012216004+69600+017833FM-12+001499999V0201601N010019999999N999999999-00451-00951999999REMSYN03001015 46/// /1610 11045 21095=
0039010150999992015012217004+69600+017833FM-12+001499999V0201601N012019999999N999999999-00451-00991999999REMSYN03001015 46/// /1612 11045 21099=
0055010150999992015012218004+69600+017833FM-12+001499999V020999999999999999999999999999+99999+99999999999REMSYN04601015 46/// /1612 11047 21093 333 11039 91114=
0039010150999992015012219004+69600+017833FM-12+001499999V0201601N011019999999N999999999-00491-01091999999REMSYN03001015 46/// /1611 11049 21109=
0039010150999992015012220004+69600+017833FM-12+001499999V0201601N010019999999N999999999-00491-01131999999REMSYN03001015 46/// /1610 11049 21113=
0039010150999992015012221004+69600+017833FM-12+001499999V0201601N012019999999N999999999-00541-01011999999REMSYN03001015 46/// /1612 11054 21101=
0039010150999992015012222004+69600+017833FM-12+001499999V0201601N010019999999N999999999-00541-01171999999REMSYN03001015 46/// /1610 11054 21117=
0039010150999992015012223004+69600+017833FM-12+001499999V0201601N010019999999N999999999-00511-01041999999REMSYN03001015 46/// /1610 11051 21104=
0049010150999992015012300004+69600+017833FM-12+001499999V020999999999999999999999999999+99999+99999999999REMSYN04001015 46/// /1610 11054 21105 333 91114=
0039010150999992015012301004+69600+017833FM-12+001499999V0201601N011019999999N999999999-00571-01021999999REMSYN03001015 46/// /1611 11057 21102=
0039010150999992015012302004+69600+017833FM-12+001499999V0201601N011019999999N999999999-00561-00971999999REMSYN03001015 46/// /1611 11056 21097=
0039010150999992015012303004+69600+017833FM-12+001499999V0201601N011019999999N999999999-00581-00991999999REMSYN03001015 46/// /1611 11058 21099=
0039010150999992015012304004+69600+017833FM-12+001499999V0201601N012019999999N999999999-00581-01051999999REMSYN03001015 46/// /1612 11058 21105=
0039010150999992015012305004+69600+017833FM-12+001499999V0201601N012019999999N999999999-00611-01071999999REMSYN03001015 46/// /1612 11061 21107=
0055010150999992015012306004+69600+017833FM-12+001499999V020999999999999999999999999999+99999+99999999999REMSYN04601015 46/// /1612 11061 21104 333 21062 91115=
0039010150999992015012307004+69600+017833FM-12+001499999V0201601N012019999999N999999999-00621-01011999999REMSYN03001015 46/// /1612 11062 21101=
0039010150999992015012308004+69600+017833FM-12+001499999V0201601N012019999999N999999999-00571-00971999999REMSYN03001015 46/// /1612 11057 21097=
0039010150999992015012309004+69600+017833FM-12+001499999V0201601N011019999999N999999999-00561-01071999999REMSYN03001015 46/// /1611 11056 21107=
0039010150999992015012310004+69600+017833FM-12+001499999V0201601N013019999999N999999999-00591-01131999999REMSYN03001015 46/// /1613 11059 21113=
0039010150999992015012311004+69600+017833FM-12+001499999V0201601N012019999999N999999999-00571-00921999999REMSYN03001015 46/// /1612 11057 21092=
0049010150999992015012312004+69600+017833FM-12+001499999V020999999999999999999999999999+99999+99999999999REMSYN04001015 46/// /1613 11055 21098 333 91116=
0039010150999992015012313004+69600+017833FM-12+001499999V0201601N011019999999N999999999-00531-00951999999REMSYN03001015 46/// /1611 11053 21095=
0039010150999992015012314004+69600+017833FM-12+001499999V0201601N011019999999N999999999-00521-01001999999REMSYN03001015 46/// /1611 11052 21100=
0039010150999992015012315004+69600+017833FM-12+001499999V0201601N012019999999N999999999-00491-01051999999REMSYN03001015 46/// /1612 11049 21105=
0039010150999992015012316004+69600+017833FM-12+001499999V0201601N011019999999N999999999-00451-01241999999REMSYN03001015 46/// /1611 11045 21124=
0039010150999992015012317004+69600+017833FM-12+001499999V0201601N009019999999N999999999-00431-01181999999REMSYN03001015 46/// /1609 11043 21118=
0055010150999992015012318004+69600+017833FM-12+001499999V020999999999999999999999999999+99999+99999999999REMSYN04601015 46/// /1608 11041 21144 333 11038 91114=
0039010150999992015012319004+69600+017833FM-12+001499999V0201601N007019999999N999999999-00401-01561999999REMSYN03001015 46/// /1607 11040 21156=
0039010150999992015012320004+69600+017833FM-12+001499999V0201601N010019999999N999999999-00361-01371999999REMSYN03001015 46/// /1610 11036 21137=
0039010150999992015012321004+69600+017833FM-12+001499999V0201601N008019999999N999999999-00351-01491999999REMSYN03001015 46/// /1608 11035 21149=
0039010150999992015012322004+69600+017833FM-12+001499999V0201601N009019999999N999999999-00351-01501999999REMSYN03001015 46/// /1609 11035 21150=
0039010150999992015012323004+69600+017833FM-12+001499999V0201601N008019999999N999999999-00401-01451999999REMSYN03001015 46/// /1608 11040 21145=
0049010150999992015012400004+69600+017833FM-12+001499999V020999999999999999999999999999+99999+99999999999REMSYN04001015 46/// /1611 11039 21135 333 91115=
0039010150999992015012401004+69600+017833FM-12+001499999V0201701N011019999999N999999999-00371-01401999999REMSYN03001015 46/// /1711 11037 21140=
0039010150999992015012402004+69600+017833FM-12+001499999V0201601N011019999999N999999999-00421-01311999999REMSYN03001015 46/// /1611 11042 21131=
0039010150999992015012403004+69600+017833FM-12+001499999V0201601N010019999999N999999999-00391-01261999999REMSYN03001015 46/// /1610 11039 21126=
0039010150999992015012404004+69600+017833FM-12+001499999V0201601N011019999999N999999999-00441-01271999999REMSYN03001015 46/// /1611 11044 21127=
0039010150999992015012405004+69600+017833FM-12+001499999V0201601N013019999999N999999999-00511-01201999999REMSYN03001015 46/// /1613 11051 21120=
0055010150999992015012406004+69600+017833FM-12+001499999V020999999999999999999999999999+99999+99999999999REMSYN04601015 46/// /1612 11051 21123 333 21052 91116=
0039010150999992015012407004+69600+017833FM-12+001499999V0201601N012019999999N999999999-00491-01231999999REMSYN03001015 46/// /1612 11049 21123=
0039010150999992015012408004+69600+017833FM-12+001499999V0201601N012019999999N999999999-00511-01251999999REMSYN03001015 46/// /1612 11051 21125=
0039010150999992015012409004+69600+017833FM-12+001499999V0201701N009019999999N999999999-00521-01171999999REMSYN03001015 46/// /1709 11052 21117=
0039010150999992015012410004+69600+017833FM-12+001499999V0201601N013019999999N999999999-00481-01191999999REMSYN03001015 46/// /1613 11048 21119=
0039010150999992015012411004+69600+017833FM-12+001499999V0201601N014019999999N999999999-00511-01271999999REMSYN03001015 46/// /1614 11051 21127=
0049010150999992015012412004+69600+017833FM-12+001499999V020999999999999999999999999999+99999+99999999999REMSYN04001015 46/// /1613 11049 21117 333 91117=
0039010150999992015012413004+69600+017833FM-12+001499999V0201701N010019999999N999999999-00471-01211999999REMSYN03001015 46/// /1710 11047 21121=
0039010150999992015012414004+69600+017833FM-12+001499999V0201601N011019999999N999999999-00451-01171999999REMSYN03001015 46/// /1611 11045 21117=
0039010150999992015012415004+69600+017833FM-12+001499999V0201601N011019999999N999999999-00441-01181999999REMSYN03001015 46/// /1611 11044 21118=
0039010150999992015012416004+69600+017833FM-12+001499999V0201601N012019999999N999999999-00461-01201999999REMSYN03001015 46/// /1612 11046 21120=
0039010150999992015012417004+69600+017833FM-12+001499999V0201601N012019999999N999999999-00481-00981999999REMSYN03001015 46/// /1612 11048 21098=
0055010150999992015012418004+69600+017833FM-12+001499999V020999999999999999999999999999+99999+99999999999REMSYN04601015 46/// /1612 11045 21099 333 11042 91117=
0039010150999992015012419004+69600+017833FM-12+001499999V0201601N012019999999N999999999-00451-00801999999REMSYN03001015 46/// /1612 11045 21080=
0039010150999992015012420004+69600+017833FM-12+001499999V0201601N012019999999N999999999-00381-00751999999REMSYN03001015 46/// /1612 11038 21075=
0039010150999992015012421004+69600+017833FM-12+001499999V0201601N013019999999N999999999-00451-00591999999REMSYN03001015 46/// /1613 11045 21059=
0039010150999992015012422004+69600+017833FM-12+001499999V0201601N012019999999N999999999-00421-00541999999REMSYN03001015 46/// /1612 11042 21054=
0039010150999992015012423004+69600+017833FM-12+001499999V0201601N013019999999N999999999-00351-00481999999REMSYN03001015 46/// /1613 11035 21048=
0049010150999992015012500004+69600+017833FM-12+001499999V020999999999999999999999999999+99999+99999999999REMSYN04001015 46/// /1613 11030 21045 333 91116=
0039010150999992015012501004+69600+017833FM-12+001499999V0201601N012019999999N999999999-00201-00361999999REMSYN03001015 46/// /1612 11020 21036=
0039010150999992015012502004+69600+017833FM-12+001499999V0201601N011019999999N999999999-00091-00271999999REMSYN03001015 46/// /1611 11009 21027=
0039010150999992015012503004+69600+017833FM-12+001499999V0201601N010019999999N999999999-00021-00151999999REMSYN03001015 46/// /1610 11002 21015=
0039010150999992015012504004+69600+017833FM-12+001499999V0201301N009019999999N999999999+00011-00151999999REMSYN03001015 46/// /1309 10001 21015=
0039010150999992015012505004+69600+017833FM-12+001499999V0201601N007019999999N999999999+00081-00071999999REMSYN03001015 46/// /1607 10008 21007=
0055010150999992015012506004+69600+017833FM-12+001499999V020999999999999999999999999999+99999+99999999999REMSYN04601015 46/// /1608 10009 21006 333 21047 91116=
0039010150999992015012507004+69600+017833FM-12+001499999V0201601N007019999999N999999999+00171+00021999999REMSYN03001015 46/// /1607 10017 20002=
0039010150999992015012508004+69600+017833FM-12+001499999V0201601N002019999999N999999999+00271-00011999999REMSYN03001015 46/// /1602 10027 21001=
0039010150999992015012509004+69600+017833FM-12+001499999V0202001N004019999999N999999999+00281-00091999999REMSYN03001015 46/// /2004 10028 21009=
0039010150999992015012510004+69600+017833FM-12+001499999V0201301N002019999999N999999999+00301-00081999999REMSYN03001015 46/// /1302 10030 21008=
0039010150999992015012511004+69600+017833FM-12+001499999V0202501N004019999999N999999999+00321-00161999999REMSYN03001015 46/// /2504 10032 21016=
0049010150999992015012512004+69600+017833FM-12+001499999V020999999999999999999999999999+99999+99999999999REMSYN04001015 46/// /2704 10034 21015 333 91112=
0039010150999992015012513004+69600+017833FM-12+001499999V0202701N003019999999N999999999+00311-00091999999REMSYN03001015 46/// /2703 10031 21009=
0039010150999992015012514004+69600+017833FM-12+001499999V0202801N001019999999N999999999+00271-00081999999REMSYN03001015 46/// /2801 10027 21008=
0039010150999992015012515004+69600+017833FM-12+001499999V0200901N005019999999N999999999+00251-00011999999REMSYN03001015 46/// /0905 10025 21001=
0039010150999992015012516004+69600+017833FM-12+001499999V0201101N004019999999N999999999+00281-00091999999REMSYN03001015 46/// /1104 10028 21009=
0039010150999992015012517004+69600+017833FM-12+001499999V0201001N007019999999N999999999+00261-00171999999REMSYN03001015 46/// /1007 10026 21017=
0055010150999992015012518004+69600+017833FM-12+001499999V020999999999999999999999999999+99999+99999999999REMSYN04601015 46/// /0909 10026 21018 333 10036 91111=
0039010150999992015012519004+69600+017833FM-12+001499999V0201001N009019999999N999999999+00221-00211999999REMSYN03001015 46/// /1009 10022 21021=
0039010150999992015012520004+69600+017833FM-12+001499999V0201201N008019999999N999999999+00211-00301999999REMSYN03001015 46/// /1208 10021 21030=
0039010150999992015012521004+69600+017833FM-12+001499999V0201601N010019999999N999999999+00241-00361999999REMSYN03001015 46/// /1610 10024 21036=
0039010150999992015012522004+69600+017833FM-12+001499999V0201601N014019999999N999999999+00251-00341999999REMSYN03001015 46/// /1614 10025 21034=
0039010150999992015012523004+69600+017833FM-12+001499999V0201601N014019999999N999999999+00271-00471999999REMSYN03001015 46/// /1614 10027 21047=
0049010150999992015012600004+69600+017833FM-12+001499999V020999999999999999999999999999+99999+99999999999REMSYN04001015 46/// /1714 10029 21068 333 91119=
0039010150999992015012601004+69600+017833FM-12+001499999V0201701N012019999999N999999999+00231-00271999999REMSYN03001015 46/// /1712 10023 21027=
0039010150999992015012602004+69600+017833FM-12+001499999V0201601N015019999999N999999999+00061-00121999999REMSYN03001015 46/// /1615 10006 21012=
0039010150999992015012603004+69600+017833FM-12+001499999V0201701N011019999999N999999999+00071-00081999999REMSYN03001015 46/// /1711 10007 21008=
0039010150999992015012604004+69600+017833FM-12+001499999V0201601N016019999999N999999999+00121-00021999999REMSYN03001015 46/// /1616 10012 21002=
0039010150999992015012605004+69600+017833FM-12+001499999V0201601N015019999999N999999999+00171-00021999999REMSYN03001015 46/// /1615 10017 21002=
0055010150999992015012606004+69600+017833FM-12+001499999V020999999999999999999999999999+99999+99999999999REMSYN04601015 46/// /1609 10034 21005 333 20006 91123=
0039010150999992015012607004+69600+017833FM-12+001499999V0202001N005019999999N999999999+00481-00041999999REMSYN03001015 46/// /2005 10048 21004=
0039010150999992015012608004+69600+017833FM-12+001499999V0201601N007019999999N999999999+00471-00031999999REMSYN03001015 46/// /1607 10047 21003=
0039010150999992015012609004+69600+017833FM-12+001499999V0201701N009019999999N999999999+00461+00021999999REMSYN03001015 46/// /1709 10046 20002=
0039010150999992015012610004+69600+017833FM-12+001499999V0201701N012019999999N999999999+00481+00011999999REMSYN03001015 46/// /1712 10048 20001=
0039010150999992015012611004+69600+017833FM-12+001499999V0201401N007019999999N999999999+00511-00071999999REMSYN03001015 46/// /1407 10051 21007=
0049010150999992015012612004+69600+017833FM-12+001499999V020999999999999999999999999999+99999+99999999999REMSYN04001015 46/// /1408 10049 21008 333 91121=
0039010150999992015012613004+69600+017833FM-12+001499999V0201101N011019999999N999999999+00491-00081999999REMSYN03001015 46/// /1111 10049 21008=
0039010150999992015012614004+69600+017833FM-12+001499999V0202101N003019999999N999999999+00481-00071999999REMSYN03001015 46/// /2103 10048 21007=
0039010150999992015012615004+69600+017833FM-12+001499999V0202401N004019999999N999999999+00461-00201999999REMSYN03001015 46/// /2404 10046 21020=
0039010150999992015012616004+69600+017833FM-12+001499999V0201501N004019999999N999999999+00441-00291999999REMSYN03001015 46/// /1504 10044 21029=
0039010150999992015012617004+69600+017833FM-12+001499999V0201301N006019999999N999999999+00441-00281999999REMSYN03001015 46/// /1306 10044 21028=
0055010150999992015012618004+69600+017833FM-12+001499999V020999999999999999999999999999+99999+99999999999REMSYN04601015 46/// /0610 10041 21030 333 10053 91119=
0039010150999992015012619004+69600+017833FM-12+001499999V0200701N012019999999N999999999+00401-00271999999REMSYN03001015 46/// /0712 10040 21027=
0039010150999992015012620004+69600+017833FM-12+001499999V0201201N013019999999N999999999+00351-00211999999REMSYN03001015 46/// /1213 10035 21021=
0039010150999992015012621004+69600+017833FM-12+001499999V0200901N011019999999N999999999+00321-00201999999REMSYN03001015 46/// /0911 10032 21020=
0039010150999992015012622004+69600+017833FM-12+001499999V0201001N008019999999N999999999+00311-00201999999REMSYN03001015 46/// /1008 10031 21020=
0039010150999992015012623004+69600+017833FM-12+001499999V0201301N006019999999N999999999+00351-00281999999REMSYN03001015 46/// /1306 10035 21028=
0049010150999992015012700004+69600+017833FM-12+001499999V020999999999999999999999999999+99999+99999999999REMSYN04001015 46/// /0807 10031 21023 333 91122=
0039010150999992015012701004+69600+017833FM-12+001499999V0202601N007019999999N999999999+00331-00351999999REMSYN03001015 46/// /2607 10033 21035=
0039010150999992015012702004+69600+017833FM-12+001499999V0200801N008019999999N999999999+00271-00201999999REMSYN03001015 46/// /0808 10027 21020=
0039010150999992015012703004+69600+017833FM-12+001499999V0202601N006019999999N999999999+00351-00341999999REMSYN03001015 46/// /2606 10035 21034=
0039010150999992015012704004+69600+017833FM-12+001499999V0201301N010019999999N999999999+00311-00261999999REMSYN03001015 46/// /1310 10031 21026=
0039010150999992015012705004+69600+017833FM-12+001499999V0200801N008019999999N999999999+00271-00181999999REMSYN03001015 46/// /0808 10027 21018=
0055010150999992015012706004+69600+017833FM-12+001499999V020999999999999999999999999999+99999+99999999999REMSYN04601015 46/// /0805 10028 21019 333 20025 91117=
0039010150999992015012707004+69600+017833FM-12+001499999V0202801N005019999999N999999999+00331-00271999999REMSYN03001015 46/// /2805 10033 21027=
0039010150999992015012708004+69600+017833FM-12+001499999V0202701N006019999999N999999999+00351-00231999999REMSYN03001015 46/// /2706 10035 21023=
0039010150999992015012709004+69600+017833FM-12+001499999V0201001N004019999999N999999999+00221-00101999999REMSYN03001015 46/// /1004 10022 21010=
0039010150999992015012710004+69600+017833FM-12+001499999V0202701N005019999999N999999999+00251-00131999999REMSYN03001015 46/// /2705 10025 21013=
0039010150999992015012711004+69600+017833FM-12+001499999V0202001N003019999999N999999999+00251-00151999999REMSYN03001015 46/// /2003 10025 21015=
0049010150999992015012712004+69600+017833FM-12+001499999V020999999999999999999999999999+99999+99999999999REMSYN04001015 46/// /1202 10026 21016 333 91115=
0039010150999992015012713004+69600+017833FM-12+001499999V0201101N004019999999N999999999+00241-00121999999REMSYN03001015 46/// /1104 10024 21012=
0039010150999992015012714004+69600+017833FM-12+001499999V0201201N004019999999N999999999+00251-00141999999REMSYN03001015 46/// /1204 10025 21014=
0039010150999992015012715004+69600+017833FM-12+001499999V0202601N005019999999N999999999+00231-00201999999REMSYN03001015 46/// /2605 10023 21020=
0039010150999992015012716004+69600+017833FM-12+001499999V0201101N005019999999N999999999+00211-00211999999REMSYN03001015 46/// /1105 10021 21021=
0039010150999992015012717004+69600+017833FM-12+001499999V0202401N005019999999N999999999+00201-00201999999REMSYN03001015 46/// /2405 10020 21020=
0055010150999992015012718004+69600+017833FM-12+001499999V020999999999999999999999999999+99999+99999999999REMSYN04601015 46/// /0804 10022 21019 333 10037 91114=
0039010150999992015012719004+69600+017833FM-12+001499999V0201201N004019999999N999999999+00241-00291999999REMSYN03001015 46/// /1204 10024 21029=
0039010150999992015012720004+69600+017833FM-12+001499999V0201501N003019999999N999999999+00241-00301999999REMSYN03001015 46/// /1503 10024 21030=
0039010150999992015012721004+69600+017833FM-12+001499999V0201001N005019999999N999999999+00211-00311999999REMSYN03001015 46/// /1005 10021 21031=
0039010150999992015012722004+69600+017833FM-12+001499999V0201001N004019999999N999999999+00201-00301999999REMSYN03001015 46/// /1004 10020 21030=
0039010150999992015012723004+69600+017833FM-12+001499999V0203401N004019999999N999999999+00151-00431999999REMSYN03001015 46/// /3404 10015 21043=
0049010150999992015012800004+69600+017833FM-12+001499999V020999999999999999999999999999+99999+99999999999REMSYN04001015 46/// /0802 10011 21044 333 91108=
0039010150999992015012801004+69600+017833FM-12+001499999V0200601N007019999999N999999999+00101-00361999999REMSYN03001015 46/// /0607 10010 21036=
0039010150999992015012802004+69600+017833FM-12+001499999V0200601N005019999999N999999999+00061-00401999999REMSYN03001015 46/// /0605 10006 21040=
0039010150999992015012803004+69600+017833FM-12+001499999V0201201N004019999999N999999999+00061-00401999999REMSYN03001015 46/// /1204 10006 21040=
0039010150999992015012804004+69600+017833FM-12+001499999V0200901N005019999999N999999999+00031-00461999999REMSYN03001015 46/// /0905 10003 21046=
0039010150999992015012805004+69600+017833FM-12+001499999V0200801N004019999999N999999999+00021-00521999999REMSYN03001015 46/// /0804 10002 21052=
0055010150999992015012806004+69600+017833FM-12+001499999V020999999999999999999999999999+99999+99999999999REMSYN04601015 46/// /0904 10001 21047 333 20001 91110=
0039010150999992015012807004+69600+017833FM-12+001499999V0201001N005019999999N999999999+00001-00411999999REMSYN03001015 46/// /1005 11000 21041=
0039010150999992015012808004+69600+017833FM-12+001499999V0200501N003019999999N999999999-00021-00491999999REMSYN03001015 46/// /0503 11002 21049=
0039010150999992015012809004+69600+017833FM-12+001499999V0200901N005019999999N999999999-00021-00401999999REMSYN03001015 46/// /0905 11002 21040=
0039010150999992015012810004+69600+017833FM-12+001499999V0201101N007019999999N999999999-00031-00391999999REMSYN03001015 46/// /1107 11003 21039=
0039010150999992015012811004+69600+017833FM-12+001499999V0200901N005019999999N999999999-00071-00451999999REMSYN03001015 46/// /0905 11007 21045=
0049010150999992015012812004+69600+017833FM-12+001499999V020999999999999999999999999999+99999+99999999999REMSYN04001015 46/// /1405 11007 21046 333 91109=
0039010150999992015012813004+69600+017833FM-12+001499999V0201201N006019999999N999999999-00091-00401999999REMSYN03001015 46/// /1206 11009 21040=
0039010150999992015012814004+69600+017833FM-12+001499999V0200601N007019999999N999999999-00091-00381999999REMSYN03001015 46/// /0607 11009 21038=
0039010150999992015012815004+69600+017833FM-12+001499999V0201001N005019999999N999999999-00141-00441999999REMSYN03001015 46/// /1005 11014 21044=
0039010150999992015012816004+69600+017833FM-12+001499999V0201701N006019999999N999999999-00141-00471999999REMSYN03001015 46/// /1706 11014 21047=
0039010150999992015012817004+69600+017833FM-12+001499999V0201701N007019999999N999999999-00151-00441999999REMSYN03001015 46/// /1707 11015 21044=
0055010150999992015012818004+69600+017833FM-12+001499999V020999999999999999999999999999+99999+99999999999REMSYN04601015 46/// /1708 11014 21050 333 10002 91111=
0039010150999992015012819004+69600+017833FM-12+001499999V0201701N007019999999N999999999-00121-00531999999REMSYN03001015 46/// /1707 11012 21053=
0039010150999992015012820004+69600+017833FM-12+001499999V0201701N006019999999N999999999-00141-00531999999REMSYN03001015 46/// /1706 11014 21053=
0039010150999992015012821004+69600+017833FM-12+001499999V0201601N007019999999N999999999-00061-00551999999REMSYN03001015 46/// /1607 11006 21055=
0039010150999992015012822004+69600+017833FM-12+001499999V0201701N005019999999N999999999-00131-00591999999REMSYN03001015 46/// /1705 11013 21059=
0039010150999992015012823004+69600+017833FM-12+001499999V0200901N011019999999N999999999-00051-00661999999REMSYN03001015 46/// /0911 11005 21066=
0049010150999992015012900004+69600+017833FM-12+001499999V020999999999999999999999999999+99999+99999999999REMSYN04001015 46/// /0915 11008 21063 333 91118=
0039010150999992015012901004+69600+017833FM-12+001499999V0200901N016019999999N999999999-00071-00591999999REMSYN03001015 46/// /0916 11007 21059=
0039010150999992015012902004+69600+017833FM-12+001499999V0201001N014019999999N999999999-00061-00671999999REMSYN03001015 46/// /1014 11006 21067=
0039010150999992015012903004+69600+017833FM-12+001499999V0200901N015019999999N999999999-00081-00751999999REMSYN03001015 46/// /0915 11008 21075=
0039010150999992015012904004+69600+017833FM-12+001499999V0200801N014019999999N999999999-00111-00791999999REMSYN03001015 46/// /0814 11011 21079=
0039010150999992015012905004+69600+017833FM-12+001499999V0200901N014019999999N999999999-00151-00791999999REMSYN03001015 46/// /0914 11015 21079=
0055010150999992015012906004+69600+017833FM-12+001499999V020999999999999999999999999999+99999+99999999999REMSYN04601015 46/// /0913 11019 21077 333 21019 91118=
0039010150999992015012907004+69600+017833FM-12+001499999V0201101N013019999999N999999999-00211-00831999999REMSYN03001015 46/// /1113 11021 21083=
0039010150999992015012908004+69600+017833FM-12+001499999V0201101N014019999999N999999999-00241-00841999999REMSYN03001015 46/// /1114 11024 21084=
0039010150999992015012909004+69600+017833FM-12+001499999V0200701N015019999999N999999999-00251-00831999999REMSYN03001015 46/// /0715 11025 21083=
0039010150999992015012910004+69600+017833FM-12+001499999V0201201N015019999999N999999999-00251-00861999999REMSYN03001015 46/// /1215 11025 21086=
0039010150999992015012911004+69600+017833FM-12+001499999V0201301N014019999999N999999999-00271-00871999999REMSYN03001015 46/// /1314 11027 21087=
0049010150999992015012912004+69600+017833FM-12+001499999V020999999999999999999999999999+99999+99999999999REMSYN04001015 46/// /0914 11030 21100 333 91120=
0039010150999992015012913004+69600+017833FM-12+001499999V0200701N014019999999N999999999-00301-01081999999REMSYN03001015 46/// /0714 11030 21108=
0039010150999992015012914004+69600+017833FM-12+001499999V0201001N012019999999N999999999-00321-00981999999REMSYN03001015 46/// /1012 11032 21098=
0039010150999992015012915004+69600+017833FM-12+001499999V0201001N013019999999N999999999-00301-00981999999REMSYN03001015 46/// /1013 11030 21098=
0039010150999992015012916004+69600+017833FM-12+001499999V0201001N015019999999N999999999-00291-01011999999REMSYN03001015 46/// /1015 11029 21101=
0039010150999992015012917004+69600+017833FM-12+001499999V0201101N014019999999N999999999-00321-01091999999REMSYN03001015 46/// /1114 11032 21109=
0055010150999992015012918004+69600+017833FM-12+001499999V020999999999999999999999999999+99999+99999999999REMSYN04601015 46/// /1012 11034 21105 333 11019 91119=
0039010150999992015012919004+69600+017833FM-12+001499999V0201001N013019999999N999999999-00321-01131999999REMSYN03001015 46/// /1013 11032 21113=
0039010150999992015012920004+69600+017833FM-12+001499999V0201201N012019999999N999999999-00331-01131999999REMSYN03001015 46/// /1212 11033 21113=
0039010150999992015012921004+69600+017833FM-12+001499999V0201101N011019999999N999999999-00361-01161999999REMSYN03001015 46/// /1111 11036 21116=
0039010150999992015012922004+69600+017833FM-12+001499999V0200601N012019999999N999999999-00351-01031999999REMSYN03001015 46/// /0612 11035 21103=
0039010150999992015012923004+69600+017833FM-12+001499999V0200601N010019999999N999999999-00371-01101999999REMSYN03001015 46/// /0610 11037 21110=
0049010150999992015013000004+69600+017833FM-12+001499999V020999999999999999999999999999+99999+99999999999REMSYN04001015 46/// /0910 11037 21105 333 91116=
0039010150999992015013001004+69600+017833FM-12+001499999V0201401N008019999999N999999999-00391-01051999999REMSYN03001015 46/// /1408 11039 21105=
0039010150999992015013002004+69600+017833FM-12+001499999V0201501N011019999999N999999999-00381-00901999999REMSYN03001015 46/// /1511 11038 21090=
0039010150999992015013003004+69600+017833FM-12+001499999V0201501N011019999999N999999999-00401-00871999999REMSYN03001015 46/// /1511 11040 21087=
0039010150999992015013004004+69600+017833FM-12+001499999V0201401N010019999999N999999999-00481-00881999999REMSYN03001015 46/// /1410 11048 21088=
0039010150999992015013005004+69600+017833FM-12+001499999V0201401N010019999999N999999999-00511-00761999999REMSYN03001015 46/// /1410 11051 21076=
0055010150999992015013006004+69600+017833FM-12+001499999V020999999999999999999999999999+99999+99999999999REMSYN04601015 46/// /1310 11048 21084 333 21052 91116=
0039010150999992015013007004+69600+017833FM-12+001499999V0201401N010019999999N999999999-00401-00981999999REMSYN03001015 46/// /1410 11040 21098=
0039010150999992015013008004+69600+017833FM-12+001499999V0201501N014019999999N999999999-00341-00861999999REMSYN03001015 46/// /1514 11034 21086=
0039010150999992015013012004+69600+017833FM-12+001499999V0201601N015019999999N999999999-00421-00941999999REMSYN03001015 46/// /1615 11042 21094=
0039010150999992015013013004+69600+017833FM-12+001499999V0201601N016019999999N999999999-00431-00941999999REMSYN03001015 46/// /1616 11043 21094=
0039010150999992015013014004+69600+017833FM-12+001499999V0201601N014019999999N999999999-00441-00941999999REMSYN03001015 46/// /1614 11044 21094=
0039010150999992015013015004+69600+017833FM-12+001499999V0201601N013019999999N999999999-00461-00991999999REMSYN03001015 46/// /1613 11046 21099=
0039010150999992015013016004+69600+017833FM-12+001499999V0201601N010019999999N999999999-00501-01041999999REMSYN03001015 46/// /1610 11050 21104=
0039010150999992015013017004+69600+017833FM-12+001499999V0201601N012019999999N999999999-00461-00931999999REMSYN03001015 46/// /1612 11046 21093=
0049010150999992015013018004+69600+017833FM-12+001499999V020999999999999999999999999999+99999+99999999999REMSYN04001015 46/// /1709 11047 21101 333 91120=
0039010150999992015013019004+69600+017833FM-12+001499999V0201601N011019999999N999999999-00431-00931999999REMSYN03001015 46/// /1611 11043 21093=
0039010150999992015013020004+69600+017833FM-12+001499999V0201701N009019999999N999999999-00471-00961999999REMSYN03001015 46/// /1709 11047 21096=
0039010150999992015013021004+69600+017833FM-12+001499999V0201601N010019999999N999999999-00451-00961999999REMSYN03001015 46/// /1610 11045 21096=
0039010150999992015013022004+69600+017833FM-12+001499999V0201701N010019999999N999999999-00441-00971999999REMSYN03001015 46/// /1710 11044 21097=
0039010150999992015013023004+69600+017833FM-12+001499999V0201601N012019999999N999999999-00391-00831999999REMSYN03001015 46/// /1612 11039 21083=
0049010150999992015013100004+69600+017833FM-12+001499999V020999999999999999999999999999+99999+99999999999REMSYN04001015 46/// /1707 11041 21092 333 91116=
0039010150999992015013101004+69600+017833FM-12+001499999V0201701N008019999999N999999999-00461-01001999999REMSYN03001015 46/// /1708 11046 21100=
0039010150999992015013102004+69600+017833FM-12+001499999V0201601N009019999999N999999999-00441-00951999999REMSYN03001015 46/// /1609 11044 21095=
0039010150999992015013103004+69600+017833FM-12+001499999V0201701N009019999999N999999999-00421-00961999999REMSYN03001015 46/// /1709 11042 21096=
0039010150999992015013104004+69600+017833FM-12+001499999V0201601N007019999999N999999999-00431-00961999999REMSYN03001015 46/// /1607 11043 21096=
0039010150999992015013105004+69600+017833FM-12+001499999V0201701N009019999999N999999999-00491-01001999999REMSYN03001015 46/// /1709 11049 21100=
0055010150999992015013106004+69600+017833FM-12+001499999V020999999999999999999999999999+99999+99999999999REMSYN04601015 46/// /1610 11048 21097 333 21049 91117=
0039010150999992015013107004+69600+017833FM-12+001499999V0201601N008019999999N999999999-00481-00981999999REMSYN03001015 46/// /1608 11048 21098=
0039010150999992015013108004+69600+017833FM-12+001499999V0201701N008019999999N999999999-00471-00991999999REMSYN03001015 46/// /1708 11047 21099=
0039010150999992015013109004+69600+017833FM-12+001499999V0201601N009019999999N999999999-00451-00941999999REMSYN03001015 46/// /1609 11045 21094=
0039010150999992015013110004+69600+017833FM-12+001499999V0201701N008019999999N999999999-00441-01031999999REMSYN03001015 46/// /1708 11044 21103=
0039010150999992015013111004+69600+017833FM-12+001499999V0201701N009019999999N999999999-00441-00981999999REMSYN03001015 46/// /1709 11044 21098=
0049010150999992015013112004+69600+017833FM-12+001499999V020999999999999999999999999999+99999+99999999999REMSYN04001015 46/// /1709 11042 21092 333 91114=
0039010150999992015013113004+69600+017833FM-12+001499999V0201701N009019999999N999999999-00411-00911999999REMSYN03001015 46/// /1709 11041 21091=
0039010150999992015013114004+69600+017833FM-12+001499999V0201701N010019999999N999999999-00371-00891999999REMSYN03001015 46/// /1710 11037 21089=
0039010150999992015013115004+69600+017833FM-12+001499999V0201701N008019999999N999999999-00361-00911999999REMSYN03001015 46/// /1708 11036 21091=
0039010150999992015013116004+69600+017833FM-12+001499999V0201701N010019999999N999999999-00331-00851999999REMSYN03001015 46/// /1710 11033 21085=
0039010150999992015013117004+69600+017833FM-12+001499999V0201601N012019999999N999999999-00321-00821999999REMSYN03001015 46/// /1612 11032 21082=
0055010150999992015013118004+69600+017833FM-12+001499999V020999999999999999999999999999+99999+99999999999REMSYN04601015 46/// /1615 11027 21082 333 11024 91119=
0039010150999992015013119004+69600+017833FM-12+001499999V0201701N011019999999N999999999-00281-00811999999REMSYN03001015 46/// /1711 11028 21081=
0039010150999992015013120004+69600+017833FM-12+001499999V0201601N013019999999N999999999-00271-00741999999REMSYN03001015 46/// /1613 11027 21074=
0039010150999992015013121004+69600+017833FM-12+001499999V0201601N010019999999N999999999-00281-00801999999REMSYN03001015 46/// /1610 11028 21080=
0039010150999992015013122004+69600+017833FM-12+001499999V0201601N011019999999N999999999-00271-00761999999REMSYN03001015 46/// /1611 11027 21076=
0039010150999992015013123004+69600+017833FM-12+001499999V0201601N013019999999N999999999-00261-00771999999REMSYN03001015 46/// /1613 11026 21077=
0049010150999992015020100004+69600+017833FM-12+001499999V020999999999999999999999999999+99999+99999999999REMSYN04001015 46/// /1614 11024 21070 333 91118=
0039010150999992015020101004+69600+017833FM-12+001499999V0201601N016019999999N999999999-00271-00871999999REMSYN03001015 46/// /1616 11027 21087=
0039010150999992015020102004+69600+017833FM-12+001499999V0201701N009019999999N999999999-00311-00871999999REMSYN03001015 46/// /1709 11031 21087=
0039010150999992015020103004+69600+017833FM-12+001499999V0201701N012019999999N999999999-00321-00911999999REMSYN03001015 46/// /1712 11032 21091=
0039010150999992015020104004+69600+017833FM-12+001499999V0201701N011019999999N999999999-00341-00941999999REMSYN03001015 46/// /1711 11034 21094=
0039010150999992015020105004+69600+017833FM-12+001499999V0201601N014019999999N999999999-00331-00981999999REMSYN03001015 46/// /1614 11033 21098=
0055010150999992015020106004+69600+017833FM-12+001499999V020999999999999999999999999999+99999+99999999999REMSYN04601015 46/// /1708 11038 21110 333 21038 91120=
0039010150999992015020107004+69600+017833FM-12+001499999V0201601N010019999999N999999999-00411-01131999999REMSYN03001015 46/// /1610 11041 21113=
0039010150999992015020108004+69600+017833FM-12+001499999V0201601N007019999999N999999999-00401-01191999999REMSYN03001015 46/// /1607 11040 21119=
0039010150999992015020109004+69600+017833FM-12+001499999V0201701N007019999999N999999999-00401-01141999999REMSYN03001015 46/// /1707 11040 21114=
0039010150999992015020110004+69600+017833FM-12+001499999V0201601N007019999999N999999999-00351-01171999999REMSYN03001015 46/// /1607 11035 21117=
0039010150999992015020111004+69600+017833FM-12+001499999V0201701N007019999999N999999999-00371-01131999999REMSYN03001015 46/// /1707 11037 21113=
0049010150999992015020112004+69600+017833FM-12+001499999V020999999999999999999999999999+99999+99999999999REMSYN04001015 46/// /1610 11033 21112 333 91115=
0039010150999992015020113004+69600+017833FM-12+001499999V0201701N008019999999N999999999-00351-01051999999REMSYN03001015 46/// /1708 11035 21105=
0039010150999992015020114004+69600+017833FM-12+001499999V0201601N008019999999N999999999-00321-01031999999REMSYN03001015 46/// /1608 11032 21103=
0039010150999992015020115004+69600+017833FM-12+001499999V0201701N008019999999N999999999-00351-01081999999REMSYN03001015 46/// /1708 11035 21108=
0039010150999992015020116004+69600+017833FM-12+001499999V0201601N009019999999N999999999-00321-00981999999REMSYN03001015 46/// /1609 11032 21098=
0039010150999992015020117004+69600+017833FM-12+001499999V0201601N010019999999N999999999-00321-01041999999REMSYN03001015 46/// /1610 11032 21104=
0055010150999992015020118004+69600+017833FM-12+001499999V020999999999999999999999999999+99999+99999999999REMSYN04601015 46/// /1708 11041 21115 333 11029 91114=
0039010150999992015020119004+69600+017833FM-12+001499999V0201601N011019999999N999999999-00391-01111999999REMSYN03001015 46/// /1611 11039 21111=
0039010150999992015020120004+69600+017833FM-12+001499999V0201701N010019999999N999999999-00441-01191999999REMSYN03001015 46/// /1710 11044 21119=
0039010150999992015020121004+69600+017833FM-12+001499999V0201601N012019999999N999999999-00511-01311999999REMSYN03001015 46/// /1612 11051 21131=
0039010150999992015020122004+69600+017833FM-12+001499999V0201701N010019999999N999999999-00521-01261999999REMSYN03001015 46/// /1710 11052 21126=
0039010150999992015020123004+69600+017833FM-12+001499999V0201601N013019999999N999999999-00491-01161999999REMSYN03001015 46/// /1613 11049 21116=
0049010150999992015020200004+69600+017833FM-12+001499999V020999999999999999999999999999+99999+99999999999REMSYN04001015 46/// /1711 11056 21125 333 91117=
0039010150999992015020201004+69600+017833FM-12+001499999V0201601N013019999999N999999999-00511-01101999999REMSYN03001015 46/// /1613 11051 21110=
0039010150999992015020202004+69600+017833FM-12+001499999V0201601N014019999999N999999999-00521-01181999999REMSYN03001015 46/// /1614 11052 21118=
0039010150999992015020203004+69600+017833FM-12+001499999V0201601N016019999999N999999999-00591-01181999999REMSYN03001015 46/// /1616 11059 21118=
0039010150999992015020204004+69600+017833FM-12+001499999V0201601N016019999999N999999999-00581-01201999999REMSYN03001015 46/// /1616 11058 21120=
0039010150999992015020205004+69600+017833FM-12+001499999V0201701N014019999999N999999999-00631-01371999999REMSYN03001015 46/// /1714 11063 21137=
0055010150999992015020206004+69600+017833FM-12+001499999V020999999999999999999999999999+99999+99999999999REMSYN04601015 46/// /1715 11066 21139 333 21067 91120=
