0089010170999992015010103004+77683+014783FM-12+000699999V0200601N003019999999N999999999-00341+99999098631ADDMA1999999098551MD1610031+9999REMSYN04801017 46/// /0603 11034 2//// 39855 49863 56003=
0113010170999992015010106004+77683+014783FM-12+000699999V0200501N003019999999N999999999-00281+99999098581ADDMA1999999098491MD1710051+9999OD139900501999REMSYN05801017 46/// /0503 11028 2//// 39849 49858 57005 333 91105=
0089010170999992015010109004+77683+014783FM-12+000699999V0200501N005019999999N999999999-00291+99999098541ADDMA1999999098461MD1710031+9999REMSYN04801017 46/// /0505 11029 2//// 39846 49854 57003=
0113010170999992015010112004+77683+014783FM-12+000699999V0200601N004019999999N999999999-00331+99999098481ADDMA1999999098401MD1710061+9999OD139900501999REMSYN05801017 46/// /0604 11033 2//// 39840 49848 57006 333 91105=
0089010170999992015010115004+77683+014783FM-12+000699999V0200601N003019999999N999999999-00361+99999098391ADDMA1999999098311MD1710091+9999REMSYN04801017 46/// /0603 11036 2//// 39831 49839 57009=
0132010170999992015010118004+77683+014783FM-12+000699999V0200801N001019999999N999999999-00361+99999098291ADDKA1120M-00241MA1999999098211MD1710111+9999OD139900501999REMSYN06401017 46/// /0801 11036 2//// 39821 49829 57011 333 11024 91105=
0089010170999992015010121004+77683+014783FM-12+000699999V0200801N002019999999N999999999-00341+99999098191ADDMA1999999098111MD1710091+9999REMSYN04801017 46/// /0802 11034 2//// 39811 49819 57009=
0113010170999992015010200004+77683+014783FM-12+000699999V0200501N005019999999N999999999-00281+99999098061ADDMA1999999097981MD1710131+9999OD139900601999REMSYN05801017 46/// /0505 11028 2//// 39798 49806 57013 333 91106=
0089010170999992015010203004+77683+014783FM-12+000699999V0200501N007019999999N999999999-00241+99999097971ADDMA1999999097891MD1710091+9999REMSYN04801017 46/// /0507 11024 2//// 39789 49797 57009=
0132010170999992015010206004+77683+014783FM-12+000699999V0200501N007019999999N999999999-00301+99999097871ADDKA1240N-00361MA1999999097791MD1710101+9999OD139900901999REMSYN06401017 46/// /0507 11030 2//// 39779 49787 57010 333 21036 91109=
0089010170999992015010209004+77683+014783FM-12+000699999V0200601N008019999999N999999999-00311+99999097831ADDMA1999999097751MD1710041+9999REMSYN04801017 46/// /0608 11031 2//// 39775 49783 57004=
0132010170999992015010212004+77683+014783FM-12+000699999V0200301N007019999999N999999999-00301+99999097821ADDMA1999999097741MD1790019+9999OD139901001999REMSYN05801017 46/// /0307 11030 2//// 39774 49782 54001 333 91110=EQDQ01.1    3APC3  
0089010170999992015010215004+77683+014783FM-12+000699999V0200401N007019999999N999999999-00241+99999097801ADDMA1999999097721MD1990031+9999REMSYN04801017 46/// /0407 11024 2//// 39772 49780 50003=
0132010170999992015010218004+77683+014783FM-12+000699999V0200401N007019999999N999999999-00231+99999097871ADDKA1120M-00191MA1999999097791MD1210071+9999OD139901001999REMSYN06401017 46/// /0407 11023 2//// 39779 49787 52007 333 11019 91110=
0089010170999992015010221004+77683+014783FM-12+000699999V0200401N006019999999N999999999-00211+99999098051ADDMA1999999097971MD1210181+9999REMSYN04801017 46/// /0406 11021 2//// 39797 49805 52018=
0113010170999992015010300004+77683+014783FM-12+000699999V0200501N006019999999N999999999-00191+99999098241ADDMA1999999098161MD1210201+9999OD139900801999REMSYN05801017 46/// /0506 11019 2//// 39816 49824 52020 333 91108=
0089010170999992015010303004+77683+014783FM-12+000699999V0200601N004019999999N999999999-00151+99999098501ADDMA1999999098421MD1210251+9999REMSYN04801017 46/// /0604 11015 2//// 39842 49850 52025=
0132010170999992015010306004+77683+014783FM-12+000699999V0201201N004019999999N999999999+00151+99999098751ADDKA1240N-00241MA1999999098671MD1210251+9999OD139901001999REMSYN06401017 46/// /1204 10015 2//// 39867 49875 52025 333 21024 91110=
0089010170999992015010309004+77683+014783FM-12+000699999V0200501N004019999999N999999999-00031+99999099081ADDMA1999999099001MD1210331+9999REMSYN04801017 46/// /0504 11003 2//// 39900 49908 52033=
0113010170999992015010312004+77683+014783FM-12+000699999V0201301N008019999999N999999999+00061+99999099311ADDMA1999999099231MD1210231+9999OD139900901999REMSYN05801017 46/// /1308 10006 2//// 39923 49931 52023 333 91109=
0089010170999992015010315004+77683+014783FM-12+000699999V0201101N007019999999N999999999-00051+99999099641ADDMA1999999099561MD1310331+9999REMSYN04801017 46/// /1107 11005 2//// 39956 49964 53033=
0132010170999992015010318004+77683+014783FM-12+000699999V0201101N008019999999N999999999-00111+99999099881ADDKA1120M+00151MA1999999099801MD1210241+9999OD139901401999REMSYN06401017 46/// /1108 11011 2//// 39980 49988 52024 333 10015 91114=
0089010170999992015010321004+77683+014783FM-12+000699999V0201201N008019999999N999999999-00141+99999100141ADDMA1999999100061MD1110261+9999REMSYN04801017 46/// /1208 11014 2//// 30006 40014 51026=
0113010170999992015010400004+77683+014783FM-12+000699999V0201401N007019999999N999999999-00201+99999100361ADDMA1999999100281MD1210221+9999OD139901301999REMSYN05801017 46/// /1407 11020 2//// 30028 40036 52022 333 91113=
0089010170999992015010403004+77683+014783FM-12+000699999V0201301N005019999999N999999999-00291+99999100691ADDMA1999999100601MD1210331+9999REMSYN04801017 46/// /1305 11029 2//// 30060 40069 52033=
0132010170999992015010406004+77683+014783FM-12+000699999V0200901N003019999999N999999999-00321+99999100861ADDKA1240N-00321MA1999999100781MD1210181+9999OD139901101999REMSYN06401017 46/// /0903 11032 2//// 30078 40086 52018 333 21032 91111=
0089010170999992015010409004+77683+014783FM-12+000699999V0201101N003019999999N999999999-00331+99999101111ADDMA1999999101031MD1210251+9999REMSYN04801017 46/// /1103 11033 2//// 30103 40111 52025=
0113010170999992015010412004+77683+014783FM-12+000699999V0200901N002019999999N999999999-00331+99999101291ADDMA1999999101211MD1210181+9999OD139900501999REMSYN05801017 46/// /0902 11033 2//// 30121 40129 52018 333 91105=
0089010170999992015010415004+77683+014783FM-12+000699999V0201301N004019999999N999999999-00361+99999101471ADDMA1999999101391MD1210181+9999REMSYN04801017 46/// /1304 11036 2//// 30139 40147 52018=
0132010170999992015010418004+77683+014783FM-12+000699999V0200401N007019999999N999999999-00381+99999101571ADDKA1120M-00251MA1999999101491MD1210101+9999OD139900901999REMSYN06401017 46/// /0407 11038 2//// 30149 40157 52010 333 11025 91109=
0089010170999992015010421004+77683+014783FM-12+000699999V0200401N006019999999N999999999-00431+99999101741ADDMA1999999101661MD1310171+9999REMSYN04801017 46/// /0406 11043 2//// 30166 40174 53017=
0089010170999992015010500004+77683+014783FM-12+000699999V0200501N005019999999N999999999-00471+99999101861ADDMA1999999101781MD1210121+9999REMSYN04801017 46/// /0505 11047 2//// 30178 40186 52012=
0089010170999992015010503004+77683+014783FM-12+000699999V0200401N004019999999N999999999-00511+99999101981ADDMA1999999101891MD1210121+9999REMSYN04801017 46/// /0404 11051 2//// 30189 40198 52012=
0113010170999992015010506004+77683+014783FM-12+000699999V0200501N004019999999N999999999-00531+99999102011ADDMA1999999101931MD1210041+9999OD139900601999REMSYN05801017 46/// /0504 11053 2//// 30193 40201 52004 333 91106=
0089010170999992015010509004+77683+014783FM-12+000699999V0200501N004019999999N999999999-00531+99999102061ADDMA1999999101981MD1210051+9999REMSYN04801017 46/// /0504 11053 2//// 30198 40206 52005=
0113010170999992015010512004+77683+014783FM-12+000699999V0200401N004019999999N999999999-00531+99999102091ADDMA1999999102011MD1210031+9999OD139900501999REMSYN05801017 46/// /0404 11053 2//// 30201 40209 52003 333 91105=
0108010170999992015010515004+77683+014783FM-12+000699999V0200501N005019999999N999999999-00541+99999102081ADDMA1999999101991MD1790019+9999REMSYN04801017 46/// /0505 11054 2//// 30199 40208 54002=EQDQ01.2    3APC3  
0132010170999992015010518004+77683+014783FM-12+000699999V0200501N005019999999N999999999-00541+99999101971ADDKA1120M-00521MA1999999101891MD1610101+9999OD139900601999REMSYN06401017 46/// /0505 11054 2//// 30189 40197 56010 333 11052 91106=
0089010170999992015010521004+77683+014783FM-12+000699999V0200501N006019999999N999999999-00561+99999101871ADDMA1999999101791MD1610101+9999REMSYN04801017 46/// /0506 11056 2//// 30179 40187 56010=
0113010170999992015010600004+77683+014783FM-12+000699999V0200601N007019999999N999999999-00581+99999101701ADDMA1999999101611MD1710171+9999OD139900901999REMSYN05801017 46/// /0607 11058 2//// 30161 40170 57017 333 91109=
0089010170999992015010601004+77683+014783FM-12+000699999V0200601N007019999999N999999999-00571+99999101631ADDMA1999999101551MD1710191+9999REMSYN04801017 46/// /0607 11057 2//// 30155 40163 57019=
0089010170999992015010602004+77683+014783FM-12+000699999V0200601N008019999999N999999999-00541+99999101521ADDMA1999999101441MD1610241+9999REMSYN04801017 46/// /0608 11054 2//// 30144 40152 56024=
0089010170999992015010603004+77683+014783FM-12+000699999V0200501N008019999999N999999999-00511+99999101401ADDMA1999999101321MD1610301+9999REMSYN04801017 46/// /0508 11051 2//// 30132 40140 56030=
0089010170999992015010604004+77683+014783FM-12+000699999V0200601N009019999999N999999999-00531+99999101251ADDMA1999999101171MD1610381+9999REMSYN04801017 46/// /0609 11053 2//// 30117 40125 56038=
0089010170999992015010605004+77683+014783FM-12+000699999V0200701N007019999999N999999999-00371+99999101161ADDMA1999999101081MD1810361+9999REMSYN04801017 46/// /0707 11037 2//// 30108 40116 58036=
0132010170999992015010606004+77683+014783FM-12+000699999V0200501N008019999999N999999999-00361+99999101041ADDKA1240N-00611MA1999999100951MD1710361+9999OD139901201999REMSYN06401017 46/// /0508 11036 2//// 30095 40104 57036 333 21061 91112=
0089010170999992015010607004+77683+014783FM-12+000699999V0201301N007019999999N999999999-00101+99999100951ADDMA1999999100861MD1710311+9999REMSYN04801017 46/// /1307 11010 2//// 30086 40095 57031=
0089010170999992015010608004+77683+014783FM-12+000699999V0201101N008019999999N999999999-00111+99999100841ADDMA1999999100751MD1710331+9999REMSYN04801017 46/// /1108 11011 2//// 30075 40084 57033=
0089010170999992015010609004+77683+014783FM-12+000699999V0201201N008019999999N999999999-00121+99999100771ADDMA1999999100681MD1710271+9999REMSYN04801017 46/// /1208 11012 2//// 30068 40077 57027=
0089010170999992015010610004+77683+014783FM-12+000699999V0201301N009019999999N999999999-00111+99999100641ADDMA1999999100551MD1710311+9999REMSYN04801017 46/// /1309 11011 2//// 30055 40064 57031=
0089010170999992015010611004+77683+014783FM-12+000699999V0201301N009019999999N999999999-00081+99999100551ADDMA1999999100471MD1710291+9999REMSYN04801017 46/// /1309 11008 2//// 30047 40055 57029=
0113010170999992015010612004+77683+014783FM-12+000699999V0201201N010019999999N999999999-00071+99999100421ADDMA1999999100341MD1710341+9999OD139901801999REMSYN05801017 46/// /1210 11007 2//// 30034 40042 57034 333 91118=
0089010170999992015010613004+77683+014783FM-12+000699999V0201301N011019999999N999999999-00061+99999100301ADDMA1999999100221MD1610331+9999REMSYN04801017 46/// /1311 11006 2//// 30022 40030 56033=
0089010170999992015010614004+77683+014783FM-12+000699999V0201301N011019999999N999999999-00051+99999100171ADDMA1999999100091MD1710381+9999REMSYN04801017 46/// /1311 11005 2//// 30009 40017 57038=
0089010170999992015010615004+77683+014783FM-12+000699999V0201401N012019999999N999999999-00041+99999100021ADDMA1999999099941MD1710401+9999REMSYN04801017 46/// /1412 11004 2//// 39994 40002 57040=
0089010170999992015010616004+77683+014783FM-12+000699999V0201401N012019999999N999999999-00031+99999099971ADDMA1999999099881MD1810341+9999REMSYN04801017 46/// /1412 11003 2//// 39988 49997 58034=
0089010170999992015010617004+77683+014783FM-12+000699999V0201501N011019999999N999999999+00011+99999099871ADDMA1999999099791MD1810301+9999REMSYN04801017 46/// /1511 10001 2//// 39979 49987 58030=
0132010170999992015010618004+77683+014783FM-12+000699999V0201501N011019999999N999999999+00041+99999099811ADDKA1120M+00051MA1999999099731MD1710211+9999OD139901701999REMSYN06401017 46/// /1511 10004 2//// 39973 49981 57021 333 10005 91117=
0089010170999992015010619004+77683+014783FM-12+000699999V0201301N010019999999N999999999+00101+99999099781ADDMA1999999099701MD1810181+9999REMSYN04801017 46/// /1310 10010 2//// 39970 49978 58018=
0089010170999992015010620004+77683+014783FM-12+000699999V0201401N008019999999N999999999+00111+99999099801ADDMA1999999099721MD1810071+9999REMSYN04801017 46/// /1408 10011 2//// 39972 49980 58007=
0089010170999992015010621004+77683+014783FM-12+000699999V0201501N009019999999N999999999+00181+99999099731ADDMA1999999099651MD1610081+9999REMSYN04801017 46/// /1509 10018 2//// 39965 49973 56008=
0089010170999992015010622004+77683+014783FM-12+000699999V0201401N007019999999N999999999+00191+99999099691ADDMA1999999099611MD1610091+9999REMSYN04801017 46/// /1407 10019 2//// 39961 49969 56009=
0089010170999992015010623004+77683+014783FM-12+000699999V0201501N009019999999N999999999+00211+99999099621ADDMA1999999099541MD1710181+9999REMSYN04801017 46/// /1509 10021 2//// 39954 49962 57018=
0113010170999992015010700004+77683+014783FM-12+000699999V0201301N008019999999N999999999+00151+99999099591ADDMA1999999099511MD1710131+9999OD139901601999REMSYN05801017 46/// /1308 10015 2//// 39951 49959 57013 333 91116=
0089010170999992015010701004+77683+014783FM-12+000699999V0201401N008019999999N999999999+00211+99999099561ADDMA1999999099481MD1810121+9999REMSYN04801017 46/// /1408 10021 2//// 39948 49956 58012=
0089010170999992015010702004+77683+014783FM-12+000699999V0201301N007019999999N999999999+00201+99999099541ADDMA1999999099461MD1710081+9999REMSYN04801017 46/// /1307 10020 2//// 39946 49954 57008=
0089010170999992015010703004+77683+014783FM-12+000699999V0201401N006019999999N999999999+00211+99999099501ADDMA1999999099421MD1710091+9999REMSYN04801017 46/// /1406 10021 2//// 39942 49950 57009=
0089010170999992015010704004+77683+014783FM-12+000699999V0200601N006019999999N999999999+00071+99999099481ADDMA1999999099401MD1710091+9999REMSYN04801017 46/// /0606 10007 2//// 39940 49948 57009=
0089010170999992015010705004+77683+014783FM-12+000699999V0200401N006019999999N999999999+00111+99999099411ADDMA1999999099331MD1610131+9999REMSYN04801017 46/// /0406 10011 2//// 39933 49941 56013=
0132010170999992015010706004+77683+014783FM-12+000699999V0201001N006019999999N999999999+00061+99999099381ADDKA1240N+00031MA1999999099301MD1710121+9999OD139901201999REMSYN06401017 46/// /1006 10006 2//// 39930 49938 57012 333 20003 91112=
0089010170999992015010707004+77683+014783FM-12+000699999V0201301N008019999999N999999999+00071+99999099291ADDMA1999999099211MD1710181+9999REMSYN04801017 46/// /1308 10007 2//// 39921 49929 57018=
0089010170999992015010708004+77683+014783FM-12+000699999V0201301N010019999999N999999999+00081+99999099251ADDMA1999999099171MD1710161+9999REMSYN04801017 46/// /1310 10008 2//// 39917 49925 57016=
0089010170999992015010709004+77683+014783FM-12+000699999V0201201N009019999999N999999999+00041+99999099231ADDMA1999999099151MD1810151+9999REMSYN04801017 46/// /1209 10004 2//// 39915 49923 58015=
0089010170999992015010710004+77683+014783FM-12+000699999V0201201N009019999999N999999999+00061+99999099181ADDMA1999999099101MD1710121+9999REMSYN04801017 46/// /1209 10006 2//// 39910 49918 57012=
0089010170999992015010711004+77683+014783FM-12+000699999V0201001N006019999999N999999999+00041+99999099151ADDMA1999999099071MD1710091+9999REMSYN04801017 46/// /1006 10004 2//// 39907 49915 57009=
0113010170999992015010712004+77683+014783FM-12+000699999V0200901N004019999999N999999999-00021+99999099121ADDMA1999999099041MD1710111+9999OD139901301999REMSYN05801017 46/// /0904 11002 2//// 39904 49912 57011 333 91113=
0089010170999992015010713004+77683+014783FM-12+000699999V0200501N007019999999N999999999-00121+99999099051ADDMA1999999098971MD1610131+9999REMSYN04801017 46/// /0507 11012 2//// 39897 49905 56013=
0089010170999992015010714004+77683+014783FM-12+000699999V0200401N008019999999N999999999-00141+99999099021ADDMA1999999098941MD1710131+9999REMSYN04801017 46/// /0408 11014 2//// 39894 49902 57013=
0089010170999992015010715004+77683+014783FM-12+000699999V0200401N007019999999N999999999-00141+99999099011ADDMA1999999098931MD1810111+9999REMSYN04801017 46/// /0407 11014 2//// 39893 49901 58011=
0089010170999992015010716004+77683+014783FM-12+000699999V0200501N006019999999N999999999-00141+99999099051ADDMA1999999098961MD1990011+9999REMSYN04801017 46/// /0506 11014 2//// 39896 49905 50001=
0089010170999992015010717004+77683+014783FM-12+000699999V0200701N002019999999N999999999-00141+99999099091ADDMA1999999099011MD1110071+9999REMSYN04801017 46/// /0702 11014 2//// 39901 49909 51007=
0132010170999992015010718004+77683+014783FM-12+000699999V0202601N001019999999N999999999-00111+99999099151ADDKA1120M+00111MA1999999099071MD1210141+9999OD139901001999REMSYN06401017 46/// /2601 11011 2//// 39907 49915 52014 333 10011 91110=
0089010170999992015010719004+77683+014783FM-12+000699999V0202201N002019999999N999999999-00121+99999099191ADDMA1999999099111MD1210151+9999REMSYN04801017 46/// /2202 11012 2//// 39911 49919 52015=
0089010170999992015010720004+77683+014783FM-12+000699999V0202101N003019999999N999999999-00071+99999099231ADDMA1999999099151MD1210141+9999REMSYN04801017 46/// /2103 11007 2//// 39915 49923 52014=
0089010170999992015010721004+77683+014783FM-12+000699999V0202001N005019999999N999999999-00081+99999099331ADDMA1999999099251MD1110181+9999REMSYN04801017 46/// /2005 11008 2//// 39925 49933 51018=
0089010170999992015010722004+77683+014783FM-12+000699999V0202101N004019999999N999999999-00071+99999099401ADDMA1999999099321MD1110211+9999REMSYN04801017 46/// /2104 11007 2//// 39932 49940 51021=
0089010170999992015010723004+77683+014783FM-12+000699999V0202101N003019999999N999999999-00101+99999099451ADDMA1999999099361MD1310211+9999REMSYN04801017 46/// /2103 11010 2//// 39936 49945 53021=
0113010170999992015010800004+77683+014783FM-12+000699999V0202201N002019999999N999999999-00101+99999099471ADDMA1999999099391MD1310141+9999OD139900601999REMSYN05801017 46/// /2202 11010 2//// 39939 49947 53014 333 91106=
0089010170999992015010801004+77683+014783FM-12+000699999V0202601N002019999999N999999999-00131+99999099481ADDMA1999999099401MD1310081+9999REMSYN04801017 46/// /2602 11013 2//// 39940 49948 53008=
0089010170999992015010802004+77683+014783FM-12+000699999V0202001N004019999999N999999999-00081+99999099491ADDMA1999999099411MD1210041+9999REMSYN04801017 46/// /2004 11008 2//// 39941 49949 52004=
0089010170999992015010803004+77683+014783FM-12+000699999V0202001N003019999999N999999999-00071+99999099511ADDMA1999999099431MD1210041+9999REMSYN04801017 46/// /2003 11007 2//// 39943 49951 52004=
0089010170999992015010804004+77683+014783FM-12+000699999V0200501N001019999999N999999999-00131+99999099541ADDMA1999999099461MD1210061+9999REMSYN04801017 46/// /0501 11013 2//// 39946 49954 52006=
0089010170999992015010805004+77683+014783FM-12+000699999V0200501N004019999999N999999999-00171+99999099561ADDMA1999999099481MD1210081+9999REMSYN04801017 46/// /0504 11017 2//// 39948 49956 52008=
0132010170999992015010806004+77683+014783FM-12+000699999V0200501N006019999999N999999999-00251+99999099561ADDKA1240N-00271MA1999999099481MD1310051+9999OD139900801999REMSYN06401017 46/// /0506 11025 2//// 39948 49956 53005 333 21027 91108=
0108010170999992015010807004+77683+014783FM-12+000699999V0200501N006019999999N999999999-00221+99999099571ADDMA1999999099491MD1290039+9999REMSYN04801017 46/// /0506 11022 2//// 39949 49957 54002=EQDQ01.2    3APC3  
0108010170999992015010808004+77683+014783FM-12+000699999V0200501N006019999999N999999999-00251+99999099581ADDMA1999999099501MD1290029+9999REMSYN04801017 46/// /0506 11025 2//// 39950 49958 54002=EQDQ01.2    3APC3  
0108010170999992015010809004+77683+014783FM-12+000699999V0200501N006019999999N999999999-00231+99999099581ADDMA1999999099501MD1290029+9999REMSYN04801017 46/// /0506 11023 2//// 39950 49958 54002=EQDQ01.2    3APC3  
0108010170999992015010810004+77683+014783FM-12+000699999V0200601N005019999999N999999999-00141+99999099591ADDMA1999999099511MD1290029+9999REMSYN04801017 46/// /0605 11014 2//// 39951 49959 54002=EQDQ01.2    3APC3  
0108010170999992015010811004+77683+014783FM-12+000699999V0200401N007019999999N999999999-00121+99999099571ADDMA1999999099491MD1790019+9999REMSYN04801017 46/// /0407 11012 2//// 39949 49957 54001=EQDQ01.1    3APC3  
0132010170999992015010812004+77683+014783FM-12+000699999V0201001N007019999999N999999999-00011+99999099581ADDMA1999999099491MD1410009+9999OD139901001999REMSYN05801017 46/// /1007 11001 2//// 39949 49958 54001 333 91110=EQDQ01.1    3APC3  
0089010170999992015010813004+77683+014783FM-12+000699999V0200701N004019999999N999999999+00081+99999099551ADDMA1999999099471MD1710031+9999REMSYN04801017 46/// /0704 10008 2//// 39947 49955 57003=
0108010170999992015010814004+77683+014783FM-12+000699999V0200901N005019999999N999999999+00071+99999099561ADDMA1999999099481MD1790019+9999REMSYN04801017 46/// /0905 10007 2//// 39948 49956 54002=EQDQ01.2    3APC3  
0089010170999992015010815004+77683+014783FM-12+000699999V0201101N008019999999N999999999+00071+99999099521ADDMA1999999099441MD1710051+9999REMSYN04801017 46/// /1108 10007 2//// 39944 49952 57005=
0089010170999992015010816004+77683+014783FM-12+000699999V0201001N009019999999N999999999+00051+99999099481ADDMA1999999099401MD1610071+9999REMSYN04801017 46/// /1009 10005 2//// 39940 49948 56007=
0089010170999992015010817004+77683+014783FM-12+000699999V0200801N007019999999N999999999+00031+99999099511ADDMA1999999099431MD1810051+9999REMSYN04801017 46/// /0807 10003 2//// 39943 49951 58005=
0132010170999992015010818004+77683+014783FM-12+000699999V0201001N007019999999N999999999+00041+99999099441ADDKA1120M+00101MA1999999099361MD1710081+9999OD139901201999REMSYN06401017 46/// /1007 10004 2//// 39936 49944 57008 333 10010 91112=
0089010170999992015010819004+77683+014783FM-12+000699999V0200601N009019999999N999999999-00041+99999099331ADDMA1999999099251MD1610151+9999REMSYN04801017 46/// /0609 11004 2//// 39925 49933 56015=
0089010170999992015010820004+77683+014783FM-12+000699999V0200601N009019999999N999999999-00091+99999099271ADDMA1999999099191MD1710241+9999REMSYN04801017 46/// /0609 11009 2//// 39919 49927 57024=
0089010170999992015010821004+77683+014783FM-12+000699999V0200601N012019999999N999999999-00091+99999099141ADDMA1999999099061MD1710301+9999REMSYN04801017 46/// /0612 11009 2//// 39906 49914 57030=
0089010170999992015010822004+77683+014783FM-12+000699999V0201201N011019999999N999999999+00121+99999099151ADDMA1999999099071MD1810171+9999REMSYN04801017 46/// /1211 10012 2//// 39907 49915 58017=
0089010170999992015010823004+77683+014783FM-12+000699999V0201201N014019999999N999999999+00131+99999099011ADDMA1999999098931MD1710251+9999REMSYN04801017 46/// /1214 10013 2//// 39893 49901 57025=
0113010170999992015010900004+77683+014783FM-12+000699999V0201201N016019999999N999999999+00131+99999099001ADDMA1999999098921MD1710141+9999OD139902001999REMSYN05801017 46/// /1216 10013 2//// 39892 49900 57014 333 91120=
0089010170999992015010901004+77683+014783FM-12+000699999V0201201N013019999999N999999999+00151+99999099081ADDMA1999999099001MD1810071+9999REMSYN04801017 46/// /1213 10015 2//// 39900 49908 58007=
0089010170999992015010902004+77683+014783FM-12+000699999V0201301N009019999999N999999999+00161+99999099141ADDMA1999999099061MD1110121+9999REMSYN04801017 46/// /1309 10016 2//// 39906 49914 51012=
0089010170999992015010903004+77683+014783FM-12+000699999V0201301N011019999999N999999999+00131+99999099161ADDMA1999999099081MD1310161+9999REMSYN04801017 46/// /1311 10013 2//// 39908 49916 53016=
0089010170999992015010904004+77683+014783FM-12+000699999V0201401N012019999999N999999999+00131+99999099141ADDMA1999999099061MD1310061+9999REMSYN04801017 46/// /1412 10013 2//// 39906 49914 53006=
0089010170999992015010905004+77683+014783FM-12+000699999V0201501N014019999999N999999999+00151+99999099121ADDMA1999999099041MD1510021+9999REMSYN04801017 46/// /1514 10015 2//// 39904 49912 55002=
0132010170999992015010906004+77683+014783FM-12+000699999V0201401N015019999999N999999999+00151+99999099131ADDKA1240N-00131MA1999999099051MD1810031+9999OD139901801999REMSYN06401017 46/// /1415 10015 2//// 39905 49913 58003 333 21013 91118=
0089010170999992015010907004+77683+014783FM-12+000699999V0201501N014019999999N999999999+00131+99999099271ADDMA1999999099191MD1110131+9999REMSYN04801017 46/// /1514 10013 2//// 39919 49927 51013=
0089010170999992015010908004+77683+014783FM-12+000699999V0201401N011019999999N999999999+00151+99999099381ADDMA1999999099301MD1110271+9999REMSYN04801017 46/// /1411 10015 2//// 39930 49938 51027=
0089010170999992015010909004+77683+014783FM-12+000699999V0201501N013019999999N999999999+00151+99999099391ADDMA1999999099311MD1310261+9999REMSYN04801017 46/// /1513 10015 2//// 39931 49939 53026=
0089010170999992015010910004+77683+014783FM-12+000699999V0201401N012019999999N999999999+00131+99999099471ADDMA1999999099391MD1210201+9999REMSYN04801017 46/// /1412 10013 2//// 39939 49947 52020=
0089010170999992015010911004+77683+014783FM-12+000699999V0201301N010019999999N999999999+00121+99999099601ADDMA1999999099521MD1110221+9999REMSYN04801017 46/// /1310 10012 2//// 39952 49960 51022=
0113010170999992015010912004+77683+014783FM-12+000699999V0201301N009019999999N999999999+00131+99999099681ADDMA1999999099601MD1210301+9999OD139901801999REMSYN05801017 46/// /1309 10013 2//// 39960 49968 52030 333 91118=
0089010170999992015010913004+77683+014783FM-12+000699999V0201301N009019999999N999999999+00141+99999099751ADDMA1999999099671MD1310271+9999REMSYN04801017 46/// /1309 10014 2//// 39967 49975 53027=
0089010170999992015010914004+77683+014783FM-12+000699999V0201201N008019999999N999999999+00141+99999099811ADDMA1999999099731MD1210211+9999REMSYN04801017 46/// /1208 10014 2//// 39973 49981 52021=
0089010170999992015010915004+77683+014783FM-12+000699999V0201201N009019999999N999999999+00161+99999099821ADDMA1999999099741MD1310141+9999REMSYN04801017 46/// /1209 10016 2//// 39974 49982 53014=
0089010170999992015010916004+77683+014783FM-12+000699999V0201201N008019999999N999999999+00171+99999099891ADDMA1999999099811MD1210141+9999REMSYN04801017 46/// /1208 10017 2//// 39981 49989 52014=
0089010170999992015010917004+77683+014783FM-12+000699999V0201001N006019999999N999999999+00171+99999099961ADDMA1999999099881MD1110151+9999REMSYN04801017 46/// /1006 10017 2//// 39988 49996 51015=
0132010170999992015010918004+77683+014783FM-12+000699999V0201501N008019999999N999999999+00111+99999100031ADDKA1120M+00181MA1999999099951MD1210201+9999OD139901601999REMSYN06401017 46/// /1508 10011 2//// 39995 40003 52020 333 10018 91116=
0089010170999992015010919004+77683+014783FM-12+000699999V0201301N008019999999N999999999+00081+99999100121ADDMA1999999100041MD1210231+9999REMSYN04801017 46/// /1308 10008 2//// 30004 40012 52023=
0089010170999992015010920004+77683+014783FM-12+000699999V0201401N009019999999N999999999+00071+99999100141ADDMA1999999100061MD1310181+9999REMSYN04801017 46/// /1409 10007 2//// 30006 40014 53018=
0089010170999992015010921004+77683+014783FM-12+000699999V0201301N008019999999N999999999+00041+99999100241ADDMA1999999100161MD1210221+9999REMSYN04801017 46/// /1308 10004 2//// 30016 40024 52022=
0089010170999992015010922004+77683+014783FM-12+000699999V0201201N007019999999N999999999+00011+99999100321ADDMA1999999100241MD1110201+9999REMSYN04801017 46/// /1207 10001 2//// 30024 40032 51020=
0089010170999992015010923004+77683+014783FM-12+000699999V0201101N006019999999N999999999-00021+99999100391ADDMA1999999100311MD1310251+9999REMSYN04801017 46/// /1106 11002 2//// 30031 40039 53025=
0113010170999992015011000004+77683+014783FM-12+000699999V0201101N005019999999N999999999+00001+99999100451ADDMA1999999100371MD1210201+9999OD139901601999REMSYN05801017 46/// /1105 10000 2//// 30037 40045 52020 333 91116=
0089010170999992015011001004+77683+014783FM-12+000699999V0201101N004019999999N999999999+00021+99999100481ADDMA1999999100401MD1310161+9999REMSYN04801017 46/// /1104 10002 2//// 30040 40048 53016=
0089010170999992015011002004+77683+014783FM-12+000699999V0201301N005019999999N999999999+00001+99999100501ADDMA1999999100421MD1310101+9999REMSYN04801017 46/// /1305 10000 2//// 30042 40050 53010=
0089010170999992015011003004+77683+014783FM-12+000699999V0201301N005019999999N999999999-00021+99999100511ADDMA1999999100431MD1210071+9999REMSYN04801017 46/// /1305 11002 2//// 30043 40051 52007=
0089010170999992015011004004+77683+014783FM-12+000699999V0201301N004019999999N999999999-00021+99999100551ADDMA1999999100461MD1210071+9999REMSYN04801017 46/// /1304 11002 2//// 30046 40055 52007=
0089010170999992015011005004+77683+014783FM-12+000699999V0201101N003019999999N999999999-00051+99999100571ADDMA1999999100481MD1210071+9999REMSYN04801017 46/// /1103 11005 2//// 30048 40057 52007=
0132010170999992015011006004+77683+014783FM-12+000699999V0201201N003019999999N999999999-00041+99999100601ADDKA1240N-00061MA1999999100521MD1210081+9999OD139901001999REMSYN06401017 46/// /1203 11004 2//// 30052 40060 52008 333 21006 91110=
0089010170999992015011007004+77683+014783FM-12+000699999V0200501N004019999999N999999999-00131+99999100611ADDMA1999999100521MD1210061+9999REMSYN04801017 46/// /0504 11013 2//// 30052 40061 52006=
0089010170999992015011008004+77683+014783FM-12+000699999V0200401N004019999999N999999999-00141+99999100621ADDMA1999999100531MD1210051+9999REMSYN04801017 46/// /0404 11014 2//// 30053 40062 52005=
0108010170999992015011009004+77683+014783FM-12+000699999V0200601N005019999999N999999999-00141+99999100601ADDMA1999999100521MD1410009+9999REMSYN04801017 46/// /0605 11014 2//// 30052 40060 54001=EQDQ01.1    3APC3  
0108010170999992015011010004+77683+014783FM-12+000699999V0200401N005019999999N999999999-00131+99999100601ADDMA1999999100521MD1790019+9999REMSYN04801017 46/// /0405 11013 2//// 30052 40060 54001=EQDQ01.1    3APC3  
0108010170999992015011011004+77683+014783FM-12+000699999V0200401N005019999999N999999999-00151+99999100591ADDMA1999999100511MD1790039+9999REMSYN04801017 46/// /0405 11015 2//// 30051 40059 54003=EQDQ01.3    3APC3  
0132010170999992015011012004+77683+014783FM-12+000699999V0200401N004019999999N999999999-00151+99999100581ADDMA1999999100501MD1790029+9999OD139900801999REMSYN05801017 46/// /0404 11015 2//// 30050 40058 54002 333 91108=EQDQ01.2    3APC3  
0089010170999992015011013004+77683+014783FM-12+000699999V0200601N004019999999N999999999-00181+99999100561ADDMA1999999100481MD1710041+9999REMSYN04801017 46/// /0604 11018 2//// 30048 40056 57004=
0089010170999992015011014004+77683+014783FM-12+000699999V0200601N004019999999N999999999-00201+99999100561ADDMA1999999100471MD1710031+9999REMSYN04801017 46/// /0604 11020 2//// 30047 40056 57003=
0089010170999992015011015004+77683+014783FM-12+000699999V0200601N003019999999N999999999-00211+99999100531ADDMA1999999100451MD1710051+9999REMSYN04801017 46/// /0603 11021 2//// 30045 40053 57005=
0089010170999992015011016004+77683+014783FM-12+000699999V0200501N001019999999N999999999-00251+99999100501ADDMA1999999100421MD1710061+9999REMSYN04801017 46/// /0501 11025 2//// 30042 40050 57006=
0089010170999992015011017004+77683+014783FM-12+000699999V0200701N004019999999N999999999-00231+99999100521ADDMA1999999100431MD1810041+9999REMSYN04801017 46/// /0704 11023 2//// 30043 40052 58004=
0132010170999992015011018004+77683+014783FM-12+000699999V0200501N003019999999N999999999-00231+99999100531ADDKA1120M-00021MA1999999100451MD1990001+9999OD139900601999REMSYN06401017 46/// /0503 11023 2//// 30045 40053 50000 333 11002 91106=
0089010170999992015011019004+77683+014783FM-12+000699999V0200201N002019999999N999999999-00241+99999100511ADDMA1999999100421MD1510011+9999REMSYN04801017 46/// /0202 11024 2//// 30042 40051 55001=
0089010170999992015011020004+77683+014783FM-12+000699999V0200401N003019999999N999999999-00251+99999100511ADDMA1999999100431MD1410001+9999REMSYN04801017 46/// /0403 11025 2//// 30043 40051 54000=
0108010170999992015011021004+77683+014783FM-12+000699999V0200601N002019999999N999999999-00261+99999100521ADDMA1999999100441MD1790019+9999REMSYN04801017 46/// /0602 11026 2//// 30044 40052 54001=EQDQ01.1    3APC3  
0108010170999992015011022004+77683+014783FM-12+000699999V0200601N004019999999N999999999-00261+99999100531ADDMA1999999100451MD1290029+9999REMSYN04801017 46/// /0604 11026 2//// 30045 40053 54003=EQDQ01.3    3APC3  
0089010170999992015011023004+77683+014783FM-12+000699999V0200501N005019999999N999999999-00271+99999100511ADDMA1999999100431MD1410001+9999REMSYN04801017 46/// /0505 11027 2//// 30043 40051 54000=
0113010170999992015011100004+77683+014783FM-12+000699999V0200701N004019999999N999999999-00251+99999100521ADDMA1999999100441MD1410001+9999OD139900701999REMSYN05801017 46/// /0704 11025 2//// 30044 40052 54000 333 91107=
0108010170999992015011101004+77683+014783FM-12+000699999V0200501N004019999999N999999999-00271+99999100521ADDMA1999999100441MD1790019+9999REMSYN04801017 46/// /0504 11027 2//// 30044 40052 54002=EQDQ01.2    3APC3  
0108010170999992015011102004+77683+014783FM-12+000699999V0200501N006019999999N999999999-00271+99999100521ADDMA1999999100441MD1290019+9999REMSYN04801017 46/// /0506 11027 2//// 30044 40052 54001=EQDQ01.1    3APC3  
0108010170999992015011103004+77683+014783FM-12+000699999V0200501N007019999999N999999999-00311+99999100511ADDMA1999999100421MD1790019+9999REMSYN04801017 46/// /0507 11031 2//// 30042 40051 54002=EQDQ01.2    3APC3  
0108010170999992015011104004+77683+014783FM-12+000699999V0200501N009019999999N999999999-00361+99999100491ADDMA1999999100411MD1790039+9999REMSYN04801017 46/// /0509 11036 2//// 30041 40049 54003=EQDQ01.3    3APC3  
0089010170999992015011105004+77683+014783FM-12+000699999V0200501N009019999999N999999999-00371+99999100521ADDMA1999999100441MD1990011+9999REMSYN04801017 46/// /0509 11037 2//// 30044 40052 50001=
0132010170999992015011106004+77683+014783FM-12+000699999V0200901N006019999999N999999999-00321+99999100561ADDKA1240N-00381MA1999999100481MD1110061+9999OD139901201999REMSYN06401017 46/// /0906 11032 2//// 30048 40056 51006 333 21038 91112=
0089010170999992015011107004+77683+014783FM-12+000699999V0200901N005019999999N999999999-00321+99999100611ADDMA1999999100531MD1210121+9999REMSYN04801017 46/// /0905 11032 2//// 30053 40061 52012=
0089010170999992015011108004+77683+014783FM-12+000699999V0200901N005019999999N999999999-00301+99999100631ADDMA1999999100551MD1210121+9999REMSYN04801017 46/// /0905 11030 2//// 30055 40063 52012=
0089010170999992015011109004+77683+014783FM-12+000699999V0200601N007019999999N999999999-00311+99999100661ADDMA1999999100581MD1210101+9999REMSYN04801017 46/// /0607 11031 2//// 30058 40066 52010=
0089010170999992015011110004+77683+014783FM-12+000699999V0200601N007019999999N999999999-00271+99999100681ADDMA1999999100601MD1210081+9999REMSYN04801017 46/// /0607 11027 2//// 30060 40068 52008=
0089010170999992015011111004+77683+014783FM-12+000699999V0201001N003019999999N999999999-00251+99999100741ADDMA1999999100661MD1110111+9999REMSYN04801017 46/// /1003 11025 2//// 30066 40074 51011=
0113010170999992015011112004+77683+014783FM-12+000699999V0201101N003019999999N999999999-00241+99999100771ADDMA1999999100681MD1210111+9999OD139901001999REMSYN05801017 46/// /1103 11024 2//// 30068 40077 52011 333 91110=
0089010170999992015011113004+77683+014783FM-12+000699999V0201201N007019999999N999999999-00271+99999100761ADDMA1999999100681MD1310071+9999REMSYN04801017 46/// /1207 11027 2//// 30068 40076 53007=
0089010170999992015011114004+77683+014783FM-12+000699999V0200601N003019999999N999999999-00311+99999100831ADDMA1999999100741MD1110081+9999REMSYN04801017 46/// /0603 11031 2//// 30074 40083 51008=
0089010170999992015011115004+77683+014783FM-12+000699999V0201101N006019999999N999999999-00271+99999100841ADDMA1999999100751MD1210071+9999REMSYN04801017 46/// /1106 11027 2//// 30075 40084 52007=
0089010170999992015011116004+77683+014783FM-12+000699999V0201301N008019999999N999999999-00291+99999100821ADDMA1999999100741MD1310061+9999REMSYN04801017 46/// /1308 11029 2//// 30074 40082 53006=
0089010170999992015011117004+77683+014783FM-12+000699999V0201001N008019999999N999999999-00351+99999100871ADDMA1999999100791MD1110051+9999REMSYN04801017 46/// /1008 11035 2//// 30079 40087 51005=
0132010170999992015011118004+77683+014783FM-12+000699999V0200601N007019999999N999999999-00371+99999100961ADDKA1120M-00221MA1999999100871MD1110121+9999OD139901201999REMSYN06401017 46/// /0607 11037 2//// 30087 40096 51012 333 11022 91112=
0089010170999992015011119004+77683+014783FM-12+000699999V0201601N005019999999N999999999-00391+99999100971ADDMA1999999100891MD1310151+9999REMSYN04801017 46/// /1605 11039 2//// 30089 40097 53015=
0089010170999992015011120004+77683+014783FM-12+000699999V0201301N005019999999N999999999-00451+99999100971ADDMA1999999100881MD1310091+9999REMSYN04801017 46/// /1305 11045 2//// 30088 40097 53009=
0089010170999992015011121004+77683+014783FM-12+000699999V0201401N007019999999N999999999-00461+99999101011ADDMA1999999100921MD1210051+9999REMSYN04801017 46/// /1407 11046 2//// 30092 40101 52005=
0089010170999992015011122004+77683+014783FM-12+000699999V0201201N006019999999N999999999-00491+99999101041ADDMA1999999100951MD1110071+9999REMSYN04801017 46/// /1206 11049 2//// 30095 40104 51007=
0089010170999992015011123004+77683+014783FM-12+000699999V0201201N004019999999N999999999-00531+99999101041ADDMA1999999100951MD1310071+9999REMSYN04801017 46/// /1204 11053 2//// 30095 40104 53007=
0113010170999992015011200004+77683+014783FM-12+000699999V0200901N005019999999N999999999-00491+99999101051ADDMA1999999100961MD1210041+9999OD139901201999REMSYN05801017 46/// /0905 11049 2//// 30096 40105 52004 333 91112=
0108010170999992015011201004+77683+014783FM-12+000699999V0200501N007019999999N999999999-00571+99999101061ADDMA1999999100971MD1290029+9999REMSYN04801017 46/// /0507 11057 2//// 30097 40106 54002=EQDQ01.2    3APC3  
0089010170999992015011202004+77683+014783FM-12+000699999V0200901N004019999999N999999999-00591+99999101081ADDMA1999999100991MD1210041+9999REMSYN04801017 46/// /0904 11059 2//// 30099 40108 52004=
0089010170999992015011203004+77683+014783FM-12+000699999V0200801N005019999999N999999999-00581+99999101041ADDMA1999999100951MD1510011+9999REMSYN04801017 46/// /0805 11058 2//// 30095 40104 55001=
0108010170999992015011204004+77683+014783FM-12+000699999V0200501N007019999999N999999999-00611+99999101031ADDMA1999999100951MD1790039+9999REMSYN04801017 46/// /0507 11061 2//// 30095 40103 54003=EQDQ01.3    3APC3  
0089010170999992015011205004+77683+014783FM-12+000699999V0200601N007019999999N999999999-00621+99999101011ADDMA1999999100931MD1710071+9999REMSYN04801017 46/// /0607 11062 2//// 30093 40101 57007=
0151010170999992015011206004+77683+014783FM-12+000699999V0200501N008019999999N999999999-00621+99999101021ADDKA1240N-00651MA1999999100931MD1790029+9999OD139901101999REMSYN06401017 46/// /0508 11062 2//// 30093 40102 54002 333 21065 91111=EQDQ01.2    3APC3  
0108010170999992015011207004+77683+014783FM-12+000699999V0200401N007019999999N999999999-00661+99999101011ADDMA1999999100921MD1790029+9999REMSYN04801017 46/// /0407 11066 2//// 30092 40101 54002=EQDQ01.2    3APC3  
0108010170999992015011208004+77683+014783FM-12+000699999V0200501N006019999999N999999999-00691+99999101031ADDMA1999999100941MD1290029+9999REMSYN04801017 46/// /0506 11069 2//// 30094 40103 54001=EQDQ01.1    3APC3  
0108010170999992015011209004+77683+014783FM-12+000699999V0200601N006019999999N999999999-00681+99999101001ADDMA1999999100921MD1790029+9999REMSYN04801017 46/// /0606 11068 2//// 30092 40100 54002=EQDQ01.2    3APC3  
0089010170999992015011210004+77683+014783FM-12+000699999V0200401N007019999999N999999999-00681+99999100971ADDMA1999999100891MD1610031+9999REMSYN04801017 46/// /0407 11068 2//// 30089 40097 56003=
0089010170999992015011211004+77683+014783FM-12+000699999V0200501N007019999999N999999999-00651+99999100941ADDMA1999999100861MD1710081+9999REMSYN04801017 46/// /0507 11065 2//// 30086 40094 57008=
0113010170999992015011212004+77683+014783FM-12+000699999V0200501N006019999999N999999999-00671+99999100911ADDMA1999999100821MD1710091+9999OD139900901999REMSYN05801017 46/// /0506 11067 2//// 30082 40091 57009 333 91109=
0089010170999992015011213004+77683+014783FM-12+000699999V0200501N007019999999N999999999-00671+99999100871ADDMA1999999100791MD1710101+9999REMSYN04801017 46/// /0507 11067 2//// 30079 40087 57010=
0089010170999992015011214004+77683+014783FM-12+000699999V0200501N006019999999N999999999-00691+99999100871ADDMA1999999100781MD1710081+9999REMSYN04801017 46/// /0506 11069 2//// 30078 40087 57008=
0089010170999992015011215004+77683+014783FM-12+000699999V0200401N008019999999N999999999-00731+99999100811ADDMA1999999100721MD1710101+9999REMSYN04801017 46/// /0408 11073 2//// 30072 40081 57010=
0089010170999992015011216004+77683+014783FM-12+000699999V0200401N007019999999N999999999-00741+99999100801ADDMA1999999100711MD1710081+9999REMSYN04801017 46/// /0407 11074 2//// 30071 40080 57008=
0089010170999992015011217004+77683+014783FM-12+000699999V0200501N008019999999N999999999-00761+99999100771ADDMA1999999100691MD1810091+9999REMSYN04801017 46/// /0508 11076 2//// 30069 40077 58009=
0132010170999992015011218004+77683+014783FM-12+000699999V0200501N007019999999N999999999-00781+99999100751ADDKA1120M-00611MA1999999100671MD1710061+9999OD139901001999REMSYN06401017 46/// /0507 11078 2//// 30067 40075 57006 333 11061 91110=
0089010170999992015011219004+77683+014783FM-12+000699999V0200501N008019999999N999999999-00801+99999100741ADDMA1999999100651MD1710061+9999REMSYN04801017 46/// /0508 11080 2//// 30065 40074 57006=
0089010170999992015011220004+77683+014783FM-12+000699999V0200601N007019999999N999999999-00831+99999100711ADDMA1999999100631MD1710061+9999REMSYN04801017 46/// /0607 11083 2//// 30063 40071 57006=
0089010170999992015011221004+77683+014783FM-12+000699999V0200501N007019999999N999999999-00841+99999100671ADDMA1999999100581MD1610081+9999REMSYN04801017 46/// /0507 11084 2//// 30058 40067 56008=
0089010170999992015011222004+77683+014783FM-12+000699999V0200601N006019999999N999999999-00861+99999100611ADDMA1999999100531MD1610131+9999REMSYN04801017 46/// /0606 11086 2//// 30053 40061 56013=
0089010170999992015011223004+77683+014783FM-12+000699999V0200601N005019999999N999999999-00861+99999100561ADDMA1999999100481MD1710151+9999REMSYN04801017 46/// /0605 11086 2//// 30048 40056 57015=
0113010170999992015011300004+77683+014783FM-12+000699999V0200501N003019999999N999999999-00811+99999100501ADDMA1999999100411MD1710171+9999OD139900901999REMSYN05801017 46/// /0503 11081 2//// 30041 40050 57017 333 91109=
0089010170999992015011301004+77683+014783FM-12+000699999V0200601N002019999999N999999999-00761+99999100451ADDMA1999999100361MD1710161+9999REMSYN04801017 46/// /0602 11076 2//// 30036 40045 57016=
0089010170999992015011302004+77683+014783FM-12+000699999V0200501N004019999999N999999999-00721+99999100411ADDMA1999999100331MD1710151+9999REMSYN04801017 46/// /0504 11072 2//// 30033 40041 57015=
0089010170999992015011303004+77683+014783FM-12+000699999V0200601N002019999999N999999999-00721+99999100351ADDMA1999999100261MD1710151+9999REMSYN04801017 46/// /0602 11072 2//// 30026 40035 57015=
0089010170999992015011304004+77683+014783FM-12+000699999V0200401N003019999999N999999999-00681+99999100281ADDMA1999999100201MD1710161+9999REMSYN04801017 46/// /0403 11068 2//// 30020 40028 57016=
0089010170999992015011305004+77683+014783FM-12+000699999V0200501N003019999999N999999999-00661+99999100251ADDMA1999999100161MD1710161+9999REMSYN04801017 46/// /0503 11066 2//// 30016 40025 57016=
0132010170999992015011306004+77683+014783FM-12+000699999V0200401N004019999999N999999999-00591+99999100191ADDKA1240N-00861MA1999999100111MD1710161+9999OD139900501999REMSYN06401017 46/// /0404 11059 2//// 30011 40019 57016 333 21086 91105=
0089010170999992015011307004+77683+014783FM-12+000699999V0200401N010019999999N999999999-00541+99999100141ADDMA1999999100061MD1710141+9999REMSYN04801017 46/// /0410 11054 2//// 30006 40014 57014=
0089010170999992015011308004+77683+014783FM-12+000699999V0200501N013019999999N999999999-00561+99999100121ADDMA1999999100041MD1810131+9999REMSYN04801017 46/// /0513 11056 2//// 30004 40012 58013=
0089010170999992015011309004+77683+014783FM-12+000699999V0200601N014019999999N999999999-00691+99999100171ADDMA1999999100091MD1990021+9999REMSYN04801017 46/// /0614 11069 2//// 30009 40017 50002=
0089010170999992015011310004+77683+014783FM-12+000699999V0200501N014019999999N999999999-00821+99999100201ADDMA1999999100111MD1110061+9999REMSYN04801017 46/// /0514 11082 2//// 30011 40020 51006=
0089010170999992015011311004+77683+014783FM-12+000699999V0200501N014019999999N999999999-00871+99999100231ADDMA1999999100141MD1210111+9999REMSYN04801017 46/// /0514 11087 2//// 30014 40023 52011=
0113010170999992015011312004+77683+014783FM-12+000699999V0200601N011019999999N999999999-00861+99999100281ADDMA1999999100191MD1210101+9999OD139901801999REMSYN05801017 46/// /0611 11086 2//// 30019 40028 52010 333 91118=
0089010170999992015011313004+77683+014783FM-12+000699999V0200601N012019999999N999999999-00871+99999100291ADDMA1999999100211MD1210091+9999REMSYN04801017 46/// /0612 11087 2//// 30021 40029 52009=
0089010170999992015011314004+77683+014783FM-12+000699999V0200601N012019999999N999999999-00841+99999100291ADDMA1999999100211MD1310061+9999REMSYN04801017 46/// /0612 11084 2//// 30021 40029 53006=
0089010170999992015011315004+77683+014783FM-12+000699999V0200601N013019999999N999999999-00811+99999100261ADDMA1999999100171MD1510021+9999REMSYN04801017 46/// /0613 11081 2//// 30017 40026 55002=
0108010170999992015011316004+77683+014783FM-12+000699999V0200601N013019999999N999999999-00791+99999100271ADDMA1999999100181MD1790029+9999REMSYN04801017 46/// /0613 11079 2//// 30018 40027 54002=EQDQ01.2    3APC3  
0089010170999992015011317004+77683+014783FM-12+000699999V0200601N014019999999N999999999-00791+99999100231ADDMA1999999100151MD1710061+9999REMSYN04801017 46/// /0614 11079 2//// 30015 40023 57006=
0132010170999992015011318004+77683+014783FM-12+000699999V0200601N014019999999N999999999-00761+99999100211ADDKA1120M-00501MA1999999100131MD1710051+9999OD139901701999REMSYN06401017 46/// /0614 11076 2//// 30013 40021 57005 333 11050 91117=
0089010170999992015011319004+77683+014783FM-12+000699999V0200601N014019999999N999999999-00801+99999100231ADDMA1999999100141MD1810041+9999REMSYN04801017 46/// /0614 11080 2//// 30014 40023 58004=
0089010170999992015011320004+77683+014783FM-12+000699999V0200601N013019999999N999999999-00851+99999100261ADDMA1999999100171MD1990031+9999REMSYN04801017 46/// /0613 11085 2//// 30017 40026 50003=
0089010170999992015011321004+77683+014783FM-12+000699999V0200601N014019999999N999999999-00941+99999100271ADDMA1999999100181MD1210061+9999REMSYN04801017 46/// /0614 11094 2//// 30018 40027 52006=
0089010170999992015011322004+77683+014783FM-12+000699999V0200601N012019999999N999999999-00911+99999100281ADDMA1999999100201MD1210051+9999REMSYN04801017 46/// /0612 11091 2//// 30020 40028 52005=
0089010170999992015011323004+77683+014783FM-12+000699999V0200601N012019999999N999999999-00911+99999100301ADDMA1999999100221MD1210041+9999REMSYN04801017 46/// /0612 11091 2//// 30022 40030 52004=
0113010170999992015011400004+77683+014783FM-12+000699999V0200601N013019999999N999999999-00871+99999100261ADDMA1999999100181MD1510001+9999OD139901601999REMSYN05801017 46/// /0613 11087 2//// 30018 40026 55000 333 91116=
0089010170999992015011401004+77683+014783FM-12+000699999V0200501N014019999999N999999999-00861+99999100231ADDMA1999999100151MD1610051+9999REMSYN04801017 46/// /0514 11086 2//// 30015 40023 56005=
0089010170999992015011402004+77683+014783FM-12+000699999V0200501N014019999999N999999999-00841+99999100221ADDMA1999999100141MD1710081+9999REMSYN04801017 46/// /0514 11084 2//// 30014 40022 57008=
0089010170999992015011403004+77683+014783FM-12+000699999V0200601N014019999999N999999999-00831+99999100211ADDMA1999999100131MD1710051+9999REMSYN04801017 46/// /0614 11083 2//// 30013 40021 57005=
0108010170999992015011404004+77683+014783FM-12+000699999V0200501N013019999999N999999999-00851+99999100211ADDMA1999999100121MD1790029+9999REMSYN04801017 46/// /0513 11085 2//// 30012 40021 54003=EQDQ01.3    3APC3  
0108010170999992015011405004+77683+014783FM-12+000699999V0200601N013019999999N999999999-00881+99999100211ADDMA1999999100131MD1790019+9999REMSYN04801017 46/// /0613 11088 2//// 30013 40021 54001=EQDQ01.1    3APC3  
0151010170999992015011406004+77683+014783FM-12+000699999V0200501N014019999999N999999999-00951+99999100201ADDKA1240N-00951MA1999999100121MD1790019+9999OD139901801999REMSYN06401017 46/// /0514 11095 2//// 30012 40020 54001 333 21095 91118=EQDQ01.1    3APC3  
0089010170999992015011407004+77683+014783FM-12+000699999V0200501N014019999999N999999999-00981+99999100241ADDMA1999999100151MD1110031+9999REMSYN04801017 46/// /0514 11098 2//// 30015 40024 51003=
0089010170999992015011408004+77683+014783FM-12+000699999V0200601N012019999999N999999999-01031+99999100251ADDMA1999999100171MD1210051+9999REMSYN04801017 46/// /0612 11103 2//// 30017 40025 52005=
0089010170999992015011409004+77683+014783FM-12+000699999V0200701N013019999999N999999999-01051+99999100291ADDMA1999999100201MD1210091+9999REMSYN04801017 46/// /0713 11105 2//// 30020 40029 52009=
0089010170999992015011410004+77683+014783FM-12+000699999V0200601N014019999999N999999999-01091+99999100251ADDMA1999999100171MD1510011+9999REMSYN04801017 46/// /0614 11109 2//// 30017 40025 55001=
0108010170999992015011411004+77683+014783FM-12+000699999V0200601N013019999999N999999999-01101+99999100271ADDMA1999999100191MD1290029+9999REMSYN04801017 46/// /0613 11110 2//// 30019 40027 54002=EQDQ01.2    3APC3  
0113010170999992015011412004+77683+014783FM-12+000699999V0200601N013019999999N999999999-01021+99999100281ADDMA1999999100201MD1990001+9999OD139901801999REMSYN05801017 46/// /0613 11102 2//// 30020 40028 50000 333 91118=
0089010170999992015011413004+77683+014783FM-12+000699999V0200601N014019999999N999999999-00981+99999100241ADDMA1999999100161MD1510011+9999REMSYN04801017 46/// /0614 11098 2//// 30016 40024 55001=
0089010170999992015011414004+77683+014783FM-12+000699999V0200501N013019999999N999999999-00981+99999100311ADDMA1999999100231MD1110041+9999REMSYN04801017 46/// /0513 11098 2//// 30023 40031 51004=
0089010170999992015011415004+77683+014783FM-12+000699999V0200601N013019999999N999999999-01001+99999100331ADDMA1999999100251MD1990051+9999REMSYN04801017 46/// /0613 11100 2//// 30025 40033 50005=
0089010170999992015011416004+77683+014783FM-12+000699999V0200601N015019999999N999999999-01011+99999100301ADDMA1999999100221MD1310061+9999REMSYN04801017 46/// /0615 11101 2//// 30022 40030 53006=
0089010170999992015011417004+77683+014783FM-12+000699999V0200601N014019999999N999999999-01001+99999100351ADDMA1999999100271MD1210041+9999REMSYN04801017 46/// /0614 11100 2//// 30027 40035 52004=
0132010170999992015011418004+77683+014783FM-12+000699999V0200601N012019999999N999999999-01011+99999100391ADDKA1120M-00941MA1999999100301MD1110061+9999OD139901801999REMSYN06401017 46/// /0612 11101 2//// 30030 40039 51006 333 11094 91118=
0089010170999992015011419004+77683+014783FM-12+000699999V0200601N013019999999N999999999-01021+99999100401ADDMA1999999100321MD1310101+9999REMSYN04801017 46/// /0613 11102 2//// 30032 40040 53010=
0089010170999992015011420004+77683+014783FM-12+000699999V0200501N012019999999N999999999-01051+99999100401ADDMA1999999100311MD1310051+9999REMSYN04801017 46/// /0512 11105 2//// 30031 40040 53005=
0108010170999992015011421004+77683+014783FM-12+000699999V0200501N013019999999N999999999-01071+99999100411ADDMA1999999100321MD1290029+9999REMSYN04801017 46/// /0513 11107 2//// 30032 40041 54002=EQDQ01.2    3APC3  
0089010170999992015011422004+77683+014783FM-12+000699999V0200501N013019999999N999999999-01131+99999100451ADDMA1999999100371MD1110051+9999REMSYN04801017 46/// /0513 11113 2//// 30037 40045 51005=
0089010170999992015011423004+77683+014783FM-12+000699999V0200501N012019999999N999999999-01101+99999100481ADDMA1999999100391MD1210081+9999REMSYN04801017 46/// /0512 11110 2//// 30039 40048 52008=
0113010170999992015011500004+77683+014783FM-12+000699999V0200501N012019999999N999999999-01071+99999100511ADDMA1999999100421MD1210101+9999OD139901601999REMSYN05801017 46/// /0512 11107 2//// 30042 40051 52010 333 91116=
0089010170999992015011501004+77683+014783FM-12+000699999V0200501N012019999999N999999999-01071+99999100501ADDMA1999999100411MD1310051+9999REMSYN04801017 46/// /0512 11107 2//// 30041 40050 53005=
0089010170999992015011502004+77683+014783FM-12+000699999V0200601N011019999999N999999999-01051+99999100511ADDMA1999999100431MD1210031+9999REMSYN04801017 46/// /0611 11105 2//// 30043 40051 52003=
0089010170999992015011503004+77683+014783FM-12+000699999V0200501N009019999999N999999999-01041+99999100511ADDMA1999999100421MD1410001+9999REMSYN04801017 46/// /0509 11104 2//// 30042 40051 54000=
0108010170999992015011504004+77683+014783FM-12+000699999V0200401N010019999999N999999999-01091+99999100511ADDMA1999999100421MD1290019+9999REMSYN04801017 46/// /0410 11109 2//// 30042 40051 54001=EQDQ01.1    3APC3  
0108010170999992015011505004+77683+014783FM-12+000699999V0200401N010019999999N999999999-01111+99999100501ADDMA1999999100421MD1790019+9999REMSYN04801017 46/// /0410 11111 2//// 30042 40050 54001=EQDQ01.1    3APC3  
0151010170999992015011506004+77683+014783FM-12+000699999V0200501N008019999999N999999999-01111+99999100501ADDKA1240N-01141MA1999999100411MD1790019+9999OD139901401999REMSYN06401017 46/// /0508 11111 2//// 30041 40050 54001 333 21114 91114=EQDQ01.1    3APC3  
0089010170999992015011507004+77683+014783FM-12+000699999V0200501N008019999999N999999999-01111+99999100501ADDMA1999999100421MD1410001+9999REMSYN04801017 46/// /0508 11111 2//// 30042 40050 54000=
0089010170999992015011508004+77683+014783FM-12+000699999V0200501N008019999999N999999999-01121+99999100541ADDMA1999999100451MD1110031+9999REMSYN04801017 46/// /0508 11112 2//// 30045 40054 51003=
0089010170999992015011509004+77683+014783FM-12+000699999V0200501N008019999999N999999999-01151+99999100511ADDMA1999999100421MD1510011+9999REMSYN04801017 46/// /0508 11115 2//// 30042 40051 55001=
0089010170999992015011510004+77683+014783FM-12+000699999V0200401N008019999999N999999999-01151+99999100511ADDMA1999999100421MD1510011+9999REMSYN04801017 46/// /0408 11115 2//// 30042 40051 55001=
0089010170999992015011511004+77683+014783FM-12+000699999V0200501N008019999999N999999999-01151+99999100521ADDMA1999999100441MD1990021+9999REMSYN04801017 46/// /0508 11115 2//// 30044 40052 50002=
0113010170999992015011512004+77683+014783FM-12+000699999V0200401N008019999999N999999999-01171+99999100511ADDMA1999999100421MD1410001+9999OD139901001999REMSYN05801017 46/// /0408 11117 2//// 30042 40051 54000 333 91110=
0108010170999992015011513004+77683+014783FM-12+000699999V0200401N008019999999N999999999-01181+99999100521ADDMA1999999100431MD1290019+9999REMSYN04801017 46/// /0408 11118 2//// 30043 40052 54001=EQDQ01.1    3APC3  
0089010170999992015011514004+77683+014783FM-12+000699999V0200501N008019999999N999999999-01171+99999100521ADDMA1999999100431MD1410001+9999REMSYN04801017 46/// /0508 11117 2//// 30043 40052 54000=
0108010170999992015011515004+77683+014783FM-12+000699999V0200401N007019999999N999999999-01191+99999100531ADDMA1999999100441MD1290029+9999REMSYN04801017 46/// /0407 11119 2//// 30044 40053 54002=EQDQ01.2    3APC3  
0108010170999992015011516004+77683+014783FM-12+000699999V0200501N008019999999N999999999-01191+99999100541ADDMA1999999100451MD1290029+9999REMSYN04801017 46/// /0508 11119 2//// 30045 40054 54002=EQDQ01.2    3APC3  
0089010170999992015011517004+77683+014783FM-12+000699999V0200501N007019999999N999999999-01221+99999100561ADDMA1999999100481MD1210051+9999REMSYN04801017 46/// /0507 11122 2//// 30048 40056 52005=
0132010170999992015011518004+77683+014783FM-12+000699999V0200601N008019999999N999999999-01261+99999100611ADDKA1120M-01091MA1999999100521MD1110081+9999OD139901101999REMSYN06401017 46/// /0608 11126 2//// 30052 40061 51008 333 11109 91111=
0089010170999992015011519004+77683+014783FM-12+000699999V0200501N008019999999N999999999-01221+99999100631ADDMA1999999100541MD1210091+9999REMSYN04801017 46/// /0508 11122 2//// 30054 40063 52009=
0089010170999992015011520004+77683+014783FM-12+000699999V0200501N007019999999N999999999-01181+99999100671ADDMA1999999100591MD1210111+9999REMSYN04801017 46/// /0507 11118 2//// 30059 40067 52011=
0089010170999992015011521004+77683+014783FM-12+000699999V0200501N008019999999N999999999-01241+99999100711ADDMA1999999100631MD1210111+9999REMSYN04801017 46/// /0508 11124 2//// 30063 40071 52011=
0089010170999992015011522004+77683+014783FM-12+000699999V0200601N009019999999N999999999-01291+99999100751ADDMA1999999100661MD1210121+9999REMSYN04801017 46/// /0609 11129 2//// 30066 40075 52012=
0089010170999992015011523004+77683+014783FM-12+000699999V0200501N008019999999N999999999-01301+99999100781ADDMA1999999100701MD1210111+9999REMSYN04801017 46/// /0508 11130 2//// 30070 40078 52011=
0113010170999992015011600004+77683+014783FM-12+000699999V0200501N008019999999N999999999-01251+99999100821ADDMA1999999100731MD1210101+9999OD139901101999REMSYN05801017 46/// /0508 11125 2//// 30073 40082 52010 333 91111=
0089010170999992015011601004+77683+014783FM-12+000699999V0200601N009019999999N999999999-01321+99999100831ADDMA1999999100751MD1210091+9999REMSYN04801017 46/// /0609 11132 2//// 30075 40083 52009=
0089010170999992015011602004+77683+014783FM-12+000699999V0200601N010019999999N999999999-01341+99999100841ADDMA1999999100751MD1210061+9999REMSYN04801017 46/// /0610 11134 2//// 30075 40084 52006=
0089010170999992015011603004+77683+014783FM-12+000699999V0200601N011019999999N999999999-01351+99999100851ADDMA1999999100761MD1210031+9999REMSYN04801017 46/// /0611 11135 2//// 30076 40085 52003=
0089010170999992015011604004+77683+014783FM-12+000699999V0200601N009019999999N999999999-01371+99999100891ADDMA1999999100801MD1110061+9999REMSYN04801017 46/// /0609 11137 2//// 30080 40089 51006=
0089010170999992015011605004+77683+014783FM-12+000699999V0200701N007019999999N999999999-01361+99999100881ADDMA1999999100801MD1210041+9999REMSYN04801017 46/// /0707 11136 2//// 30080 40088 52004=
0132010170999992015011606004+77683+014783FM-12+000699999V0200701N008019999999N999999999-01371+99999100881ADDKA1240N-01411MA1999999100801MD1310031+9999OD139901301999REMSYN06401017 46/// /0708 11137 2//// 30080 40088 53003 333 21141 91113=
0089010170999992015011608004+77683+014783FM-12+000699999V0200701N008019999999N999999999-01361+99999100931ADDMA1999999100841MD1210041+9999REMSYN04801017 46/// /0708 11136 2//// 30084 40093 52004=
0089010170999992015011609004+77683+014783FM-12+000699999V0200701N006019999999N999999999-01351+99999100951ADDMA1999999100861MD1210061+9999REMSYN04801017 46/// /0706 11135 2//// 30086 40095 52006=
0089010170999992015011610004+77683+014783FM-12+000699999V0200601N011019999999N999999999-01391+99999100921ADDMA1999999100841MD1510011+9999REMSYN04801017 46/// /0611 11139 2//// 30084 40092 55001=
0108010170999992015011611004+77683+014783FM-12+000699999V0200601N011019999999N999999999-01401+99999100921ADDMA1999999100831MD1790019+9999REMSYN04801017 46/// /0611 11140 2//// 30083 40092 54001=EQDQ01.1    3APC3  
0089010170999992015011612004+77683+014783FM-12+000699999V0200601N011019999999N999999999-01381+99999100911ADDMA1999999100821MD1710041+9999REMSYN04801017 46/// /0611 11138 2//// 30082 40091 57004=
0108010170999992015011613004+77683+014783FM-12+000699999V0200601N011019999999N999999999-01411+99999100911ADDMA1999999100831MD1790019+9999REMSYN04801017 46/// /0611 11141 2//// 30083 40091 54001=EQDQ01.1    3APC3  
0108010170999992015011614004+77683+014783FM-12+000699999V0200601N010019999999N999999999-01411+99999100931ADDMA1999999100841MD1290019+9999REMSYN04801017 46/// /0610 11141 2//// 30084 40093 54001=EQDQ01.1    3APC3  
0089010170999992015011615004+77683+014783FM-12+000699999V0200501N011019999999N999999999-01431+99999100911ADDMA1999999100821MD1410001+9999REMSYN04801017 46/// /0511 11143 2//// 30082 40091 54000=
0089010170999992015011616004+77683+014783FM-12+000699999V0200601N012019999999N999999999-01481+99999100911ADDMA1999999100821MD1410001+9999REMSYN04801017 46/// /0612 11148 2//// 30082 40091 54000=
0089010170999992015011617004+77683+014783FM-12+000699999V0200601N013019999999N999999999-01561+99999100931ADDMA1999999100841MD1990001+9999REMSYN04801017 46/// /0613 11156 2//// 30084 40093 50000=
0113010170999992015011618004+77683+014783FM-12+000699999V0200601N012019999999N999999999-01601+99999100941ADDMA1999999100861MD1210031+9999OD139901601999REMSYN05801017 46/// /0612 11160 2//// 30086 40094 52003 333 91116=
0089010170999992015011619004+77683+014783FM-12+000699999V0200501N011019999999N999999999-01621+99999100961ADDMA1999999100871MD1210051+9999REMSYN04801017 46/// /0511 11162 2//// 30087 40096 52005=
0089010170999992015011620004+77683+014783FM-12+000699999V0200601N012019999999N999999999-01631+99999100981ADDMA1999999100891MD1210051+9999REMSYN04801017 46/// /0612 11163 2//// 30089 40098 52005=
0089010170999992015011621004+77683+014783FM-12+000699999V0200601N012019999999N999999999-01651+99999101011ADDMA1999999100921MD1210071+9999REMSYN04801017 46/// /0612 11165 2//// 30092 40101 52007=
0089010170999992015011622004+77683+014783FM-12+000699999V0200501N010019999999N999999999-01631+99999101041ADDMA1999999100961MD1210091+9999REMSYN04801017 46/// /0510 11163 2//// 30096 40104 52009=
0089010170999992015011623004+77683+014783FM-12+000699999V0200401N012019999999N999999999-01681+99999101041ADDMA1999999100951MD1310061+9999REMSYN04801017 46/// /0412 11168 2//// 30095 40104 53006=
0113010170999992015011700004+77683+014783FM-12+000699999V0200501N012019999999N999999999-01681+99999101031ADDMA1999999100941MD1510021+9999OD139901501999REMSYN05801017 46/// /0512 11168 2//// 30094 40103 55002 333 91115=
0089010170999992015011701004+77683+014783FM-12+000699999V0200401N012019999999N999999999-01661+99999101081ADDMA1999999100991MD1110031+9999REMSYN04801017 46/// /0412 11166 2//// 30099 40108 51003=
0089010170999992015011702004+77683+014783FM-12+000699999V0200401N012019999999N999999999-01691+99999101111ADDMA1999999101021MD1110081+9999REMSYN04801017 46/// /0412 11169 2//// 30102 40111 51008=
0089010170999992015011703004+77683+014783FM-12+000699999V0200301N010019999999N999999999-01651+99999101141ADDMA1999999101051MD1210111+9999REMSYN04801017 46/// /0310 11165 2//// 30105 40114 52011=
0089010170999992015011704004+77683+014783FM-12+000699999V0200301N011019999999N999999999-01641+99999101141ADDMA1999999101051MD1310061+9999REMSYN04801017 46/// /0311 11164 2//// 30105 40114 53006=
0089010170999992015011705004+77683+014783FM-12+000699999V0200301N011019999999N999999999-01651+99999101121ADDMA1999999101031MD1510011+9999REMSYN04801017 46/// /0311 11165 2//// 30103 40112 55001=
0132010170999992015011706004+77683+014783FM-12+000699999V0200401N008019999999N999999999-01641+99999101221ADDKA1240N-01721MA1999999101141MD1110091+9999OD139901401999REMSYN06401017 46/// /0408 11164 2//// 30114 40122 51009 333 21172 91114=
0089010170999992015011707004+77683+014783FM-12+000699999V0200401N011019999999N999999999-01631+99999101221ADDMA1999999101131MD1210081+9999REMSYN04801017 46/// /0411 11163 2//// 30113 40122 52008=
0089010170999992015011708004+77683+014783FM-12+000699999V0200401N010019999999N999999999-01651+99999101241ADDMA1999999101151MD1310121+9999REMSYN04801017 46/// /0410 11165 2//// 30115 40124 53012=
0089010170999992015011709004+77683+014783FM-12+000699999V0200601N007019999999N999999999-01641+99999101371ADDMA1999999101281MD1110151+9999REMSYN04801017 46/// /0607 11164 2//// 30128 40137 51015=
0089010170999992015011710004+77683+014783FM-12+000699999V0200501N007019999999N999999999-01661+99999101421ADDMA1999999101331MD1210201+9999REMSYN04801017 46/// /0507 11166 2//// 30133 40142 52020=
0089010170999992015011711004+77683+014783FM-12+000699999V0200701N007019999999N999999999-01671+99999101471ADDMA1999999101381MD1310231+9999REMSYN04801017 46/// /0707 11167 2//// 30138 40147 53023=
0113010170999992015011712004+77683+014783FM-12+000699999V0200601N007019999999N999999999-01641+99999101481ADDMA1999999101391MD1310111+9999OD139901301999REMSYN05801017 46/// /0607 11164 2//// 30139 40148 53011 333 91113=
0089010170999992015011713004+77683+014783FM-12+000699999V0200501N007019999999N999999999-01651+99999101501ADDMA1999999101411MD1210081+9999REMSYN04801017 46/// /0507 11165 2//// 30141 40150 52008=
0089010170999992015011714004+77683+014783FM-12+000699999V0200601N006019999999N999999999-01641+99999101541ADDMA1999999101451MD1210071+9999REMSYN04801017 46/// /0606 11164 2//// 30145 40154 52007=
0089010170999992015011715004+77683+014783FM-12+000699999V0200601N004019999999N999999999-01631+99999101591ADDMA1999999101501MD1210111+9999REMSYN04801017 46/// /0604 11163 2//// 30150 40159 52011=
0089010170999992015011716004+77683+014783FM-12+000699999V0200601N004019999999N999999999-01651+99999101601ADDMA1999999101511MD1210101+9999REMSYN04801017 46/// /0604 11165 2//// 30151 40160 52010=
0089010170999992015011717004+77683+014783FM-12+000699999V0200401N003019999999N999999999-01681+99999101651ADDMA1999999101561MD1210111+9999REMSYN04801017 46/// /0403 11168 2//// 30156 40165 52011=
0132010170999992015011718004+77683+014783FM-12+000699999V0200501N003019999999N999999999-01671+99999101661ADDKA1120M-01621MA1999999101571MD1210071+9999OD139900901999REMSYN06401017 46/// /0503 11167 2//// 30157 40166 52007 333 11162 91109=
0089010170999992015011719004+77683+014783FM-12+000699999V0200401N003019999999N999999999-01681+99999101701ADDMA1999999101611MD1210101+9999REMSYN04801017 46/// /0403 11168 2//// 30161 40170 52010=
0089010170999992015011720004+77683+014783FM-12+000699999V0200501N003019999999N999999999-01661+99999101741ADDMA1999999101651MD1110091+9999REMSYN04801017 46/// /0503 11166 2//// 30165 40174 51009=
0089010170999992015011721004+77683+014783FM-12+000699999V0200301N003019999999N999999999-01691+99999101791ADDMA1999999101701MD1210131+9999REMSYN04801017 46/// /0303 11169 2//// 30170 40179 52013=
0089010170999992015011722004+77683+014783FM-12+000699999V0200401N003019999999N999999999-01671+99999101811ADDMA1999999101721MD1210111+9999REMSYN04801017 46/// /0403 11167 2//// 30172 40181 52011=
0089010170999992015011723004+77683+014783FM-12+000699999V0200401N003019999999N999999999-01651+99999101821ADDMA1999999101731MD1310081+9999REMSYN04801017 46/// /0403 11165 2//// 30173 40182 53008=
0113010170999992015011800004+77683+014783FM-12+000699999V0200301N003019999999N999999999-01641+99999101841ADDMA1999999101751MD1210051+9999OD139900501999REMSYN05801017 46/// /0303 11164 2//// 30175 40184 52005 333 91105=
0089010170999992015011801004+77683+014783FM-12+000699999V0200401N003019999999N999999999-01611+99999101851ADDMA1999999101761MD1210031+9999REMSYN04801017 46/// /0403 11161 2//// 30176 40185 52003=
0108010170999992015011802004+77683+014783FM-12+000699999V0200401N003019999999N999999999-01571+99999101841ADDMA1999999101761MD1290029+9999REMSYN04801017 46/// /0403 11157 2//// 30176 40184 54002=EQDQ01.2    3APC3  
0108010170999992015011803004+77683+014783FM-12+000699999V0200301N003019999999N999999999-01571+99999101861ADDMA1999999101771MD1290029+9999REMSYN04801017 46/// /0303 11157 2//// 30177 40186 54002=EQDQ01.2    3APC3  
0108010170999992015011804004+77683+014783FM-12+000699999V0200501N003019999999N999999999-01511+99999101841ADDMA1999999101751MD1790019+9999REMSYN04801017 46/// /0503 11151 2//// 30175 40184 54001=EQDQ01.1    3APC3  
0089010170999992015011805004+77683+014783FM-12+000699999V0200201N003019999999N999999999-01531+99999101821ADDMA1999999101731MD1510021+9999REMSYN04801017 46/// /0203 11153 2//// 30173 40182 55002=
0132010170999992015011806004+77683+014783FM-12+000699999V0200201N003019999999N999999999-01521+99999101791ADDKA1240N-01711MA1999999101701MD1710071+9999OD139900401999REMSYN06401017 46/// /0203 11152 2//// 30170 40179 57007 333 21171 91104=
0089010170999992015011807004+77683+014783FM-12+000699999V0200501N003019999999N999999999-01451+99999101731ADDMA1999999101651MD1610101+9999REMSYN04801017 46/// /0503 11145 2//// 30165 40173 56010=
0089010170999992015011808004+77683+014783FM-12+000699999V0200701N003019999999N999999999-01421+99999101741ADDMA1999999101661MD1810071+9999REMSYN04801017 46/// /0703 11142 2//// 30166 40174 58007=
0089010170999992015011809004+77683+014783FM-12+000699999V0203501N002019999999N999999999-01311+99999101711ADDMA1999999101621MD1710081+9999REMSYN04801017 46/// /3502 11131 2//// 30162 40171 57008=
0089010170999992015011810004+77683+014783FM-12+000699999V0209999C999999999999N999999999-01241+99999101601ADDMA1999999101511MD1610131+9999REMSYN04801017 46/// /0000 11124 2//// 30151 40160 56013=
0089010170999992015011811004+77683+014783FM-12+000699999V0200301N003019999999N999999999-01271+99999101551ADDMA1999999101461MD1710201+9999REMSYN04801017 46/// /0303 11127 2//// 30146 40155 57020=
0113010170999992015011812004+77683+014783FM-12+000699999V0203001N001019999999N999999999-00681+99999101491ADDMA1999999101411MD1810221+9999OD139900601999REMSYN05801017 46/// /3001 11068 2//// 30141 40149 58022 333 91106=
0089010170999992015011813004+77683+014783FM-12+000699999V0202801N009019999999N999999999-00481+99999101471ADDMA1999999101381MD1810131+9999REMSYN04801017 46/// /2809 11048 2//// 30138 40147 58013=
0089010170999992015011814004+77683+014783FM-12+000699999V0202901N008019999999N999999999-00491+99999101421ADDMA1999999101341MD1710121+9999REMSYN04801017 46/// /2908 11049 2//// 30134 40142 57012=
0089010170999992015011815004+77683+014783FM-12+000699999V0202801N010019999999N999999999-00451+99999101371ADDMA1999999101291MD1710111+9999REMSYN04801017 46/// /2810 11045 2//// 30129 40137 57011=
0089010170999992015011816004+77683+014783FM-12+000699999V0202701N010019999999N999999999-00491+99999101351ADDMA1999999101271MD1710111+9999REMSYN04801017 46/// /2710 11049 2//// 30127 40135 57011=
0089010170999992015011817004+77683+014783FM-12+000699999V0202801N010019999999N999999999-00551+99999101361ADDMA1999999101271MD1810061+9999REMSYN04801017 46/// /2810 11055 2//// 30127 40136 58006=
0132010170999992015011818004+77683+014783FM-12+000699999V0203101N009019999999N999999999-00711+99999101421ADDKA1120M-00431MA1999999101331MD1110041+9999OD139901301999REMSYN06401017 46/// /3109 11071 2//// 30133 40142 51004 333 11043 91113=
0089010170999992015011819004+77683+014783FM-12+000699999V0202901N009019999999N999999999-00751+99999101421ADDMA1999999101341MD1210071+9999REMSYN04801017 46/// /2909 11075 2//// 30134 40142 52007=
0089010170999992015011820004+77683+014783FM-12+000699999V0202901N011019999999N999999999-00761+99999101421ADDMA1999999101331MD1310061+9999REMSYN04801017 46/// /2911 11076 2//// 30133 40142 53006=
0089010170999992015011821004+77683+014783FM-12+000699999V0202901N007019999999N999999999-00781+99999101491ADDMA1999999101401MD1110071+9999REMSYN04801017 46/// /2907 11078 2//// 30140 40149 51007=
0089010170999992015011822004+77683+014783FM-12+000699999V0203101N005019999999N999999999-00761+99999101561ADDMA1999999101471MD1110131+9999REMSYN04801017 46/// /3105 11076 2//// 30147 40156 51013=
0089010170999992015011823004+77683+014783FM-12+000699999V0202901N004019999999N999999999-00751+99999101601ADDMA1999999101521MD1210191+9999REMSYN04801017 46/// /2904 11075 2//// 30152 40160 52019=
0113010170999992015011900004+77683+014783FM-12+000699999V0202901N004019999999N999999999-00741+99999101601ADDMA1999999101521MD1310111+9999OD139901301999REMSYN05801017 46/// /2904 11074 2//// 30152 40160 53011 333 91113=
0089010170999992015011901004+77683+014783FM-12+000699999V0202501N003019999999N999999999-00741+99999101591ADDMA1999999101511MD1310031+9999REMSYN04801017 46/// /2503 11074 2//// 30151 40159 53003=
0089010170999992015011902004+77683+014783FM-12+000699999V0202101N002019999999N999999999-00701+99999101481ADDMA1999999101401MD1610121+9999REMSYN04801017 46/// /2102 11070 2//// 30140 40148 56012=
0089010170999992015011903004+77683+014783FM-12+000699999V0202001N004019999999N999999999-00601+99999101401ADDMA1999999101321MD1610201+9999REMSYN04801017 46/// /2004 11060 2//// 30132 40140 56020=
0089010170999992015011904004+77683+014783FM-12+000699999V0203501N003019999999N999999999-00891+99999101341ADDMA1999999101261MD1810251+9999REMSYN04801017 46/// /3503 11089 2//// 30126 40134 58025=
0089010170999992015011905004+77683+014783FM-12+000699999V0200101N003019999999N999999999-00911+99999101281ADDMA1999999101201MD1710201+9999REMSYN04801017 46/// /0103 11091 2//// 30120 40128 57020=
0132010170999992015011906004+77683+014783FM-12+000699999V0203501N003019999999N999999999-00911+99999101151ADDKA1240N-00941MA1999999101061MD1610261+9999OD139900601999REMSYN06401017 46/// /3503 11091 2//// 30106 40115 56026 333 21094 91106=
0089010170999992015011907004+77683+014783FM-12+000699999V0203301N003019999999N999999999-00731+99999101041ADDMA1999999100961MD1610301+9999REMSYN04801017 46/// /3303 11073 2//// 30096 40104 56030=
0089010170999992015011908004+77683+014783FM-12+000699999V0202001N009019999999N999999999-00311+99999100901ADDMA1999999100821MD1710381+9999REMSYN04801017 46/// /2009 11031 2//// 30082 40090 57038=
0089010170999992015011909004+77683+014783FM-12+000699999V0202001N009019999999N999999999-00351+99999100871ADDMA1999999100791MD1810271+9999REMSYN04801017 46/// /2009 11035 2//// 30079 40087 58027=
0089010170999992015011910004+77683+014783FM-12+000699999V0202301N009019999999N999999999-00211+99999100781ADDMA1999999100701MD1810261+9999REMSYN04801017 46/// /2309 11021 2//// 30070 40078 58026=
0089010170999992015011911004+77683+014783FM-12+000699999V0202301N009019999999N999999999-00181+99999100681ADDMA1999999100601MD1610221+9999REMSYN04801017 46/// /2309 11018 2//// 30060 40068 56022=
0113010170999992015011912004+77683+014783FM-12+000699999V0202301N012019999999N999999999-00251+99999100571ADDMA1999999100491MD1710301+9999OD139901501999REMSYN05801017 46/// /2312 11025 2//// 30049 40057 57030 333 91115=
0089010170999992015011913004+77683+014783FM-12+000699999V0202501N012019999999N999999999-00221+99999100531ADDMA1999999100451MD1810251+9999REMSYN04801017 46/// /2512 11022 2//// 30045 40053 58025=
0089010170999992015011914004+77683+014783FM-12+000699999V0202401N011019999999N999999999-00171+99999100491ADDMA1999999100411MD1810191+9999REMSYN04801017 46/// /2411 11017 2//// 30041 40049 58019=
0089010170999992015011915004+77683+014783FM-12+000699999V0202301N010019999999N999999999-00191+99999100441ADDMA1999999100351MD1710141+9999REMSYN04801017 46/// /2310 11019 2//// 30035 40044 57014=
0089010170999992015011916004+77683+014783FM-12+000699999V0202301N009019999999N999999999-00191+99999100411ADDMA1999999100331MD1710121+9999REMSYN04801017 46/// /2309 11019 2//// 30033 40041 57012=
0089010170999992015011917004+77683+014783FM-12+000699999V0202301N008019999999N999999999-00151+99999100401ADDMA1999999100311MD1810101+9999REMSYN04801017 46/// /2308 11015 2//// 30031 40040 58010=
0132010170999992015011918004+77683+014783FM-12+000699999V0202401N007019999999N999999999-00171+99999100391ADDKA1120M-00151MA1999999100311MD1710041+9999OD139901401999REMSYN06401017 46/// /2407 11017 2//// 30031 40039 57004 333 11015 91114=
0089010170999992015011919004+77683+014783FM-12+000699999V0202401N007019999999N999999999-00161+99999100411ADDMA1999999100321MD1410001+9999REMSYN04801017 46/// /2407 11016 2//// 30032 40041 54000=
0108010170999992015011920004+77683+014783FM-12+000699999V0202601N009019999999N999999999-00171+99999100381ADDMA1999999100301MD1790029+9999REMSYN04801017 46/// /2609 11017 2//// 30030 40038 54002=EQDQ01.2    3APC3  
0108010170999992015011921004+77683+014783FM-12+000699999V0202601N009019999999N999999999-00181+99999100371ADDMA1999999100291MD1790029+9999REMSYN04801017 46/// /2609 11018 2//// 30029 40037 54002=EQDQ01.2    3APC3  
0089010170999992015011922004+77683+014783FM-12+000699999V0202701N007019999999N999999999-00191+99999100471ADDMA1999999100381MD1110061+9999REMSYN04801017 46/// /2707 11019 2//// 30038 40047 51006=
0089010170999992015011923004+77683+014783FM-12+000699999V0202601N004019999999N999999999-00181+99999100501ADDMA1999999100421MD1110121+9999REMSYN04801017 46/// /2604 11018 2//// 30042 40050 51012=
0113010170999992015012000004+77683+014783FM-12+000699999V0202701N007019999999N999999999-00181+99999100501ADDMA1999999100421MD1310131+9999OD139901201999REMSYN05801017 46/// /2707 11018 2//// 30042 40050 53013 333 91112=
0089010170999992015012001004+77683+014783FM-12+000699999V0202401N006019999999N999999999-00171+99999100501ADDMA1999999100411MD1510031+9999REMSYN04801017 46/// /2406 11017 2//// 30041 40050 55003=
0108010170999992015012002004+77683+014783FM-12+000699999V0202601N006019999999N999999999-00151+99999100521ADDMA1999999100441MD1290029+9999REMSYN04801017 46/// /2606 11015 2//// 30044 40052 54001=EQDQ01.1    3APC3  
0089010170999992015012003004+77683+014783FM-12+000699999V0202501N006019999999N999999999-00151+99999100571ADDMA1999999100491MD1110071+9999REMSYN04801017 46/// /2506 11015 2//// 30049 40057 51007=
0089010170999992015012004004+77683+014783FM-12+000699999V0202701N006019999999N999999999-00181+99999100581ADDMA1999999100501MD1210091+9999REMSYN04801017 46/// /2706 11018 2//// 30050 40058 52009=
0089010170999992015012005004+77683+014783FM-12+000699999V0202601N008019999999N999999999-00191+99999100601ADDMA1999999100521MD1310081+9999REMSYN04801017 46/// /2608 11019 2//// 30052 40060 53008=
0132010170999992015012006004+77683+014783FM-12+000699999V0202601N007019999999N999999999-00211+99999100631ADDKA1240N-00221MA1999999100551MD1210061+9999OD139901001999REMSYN06401017 46/// /2607 11021 2//// 30055 40063 52006 333 21022 91110=
0089010170999992015012007004+77683+014783FM-12+000699999V0202801N007019999999N999999999-00221+99999100691ADDMA1999999100601MD1110101+9999REMSYN04801017 46/// /2807 11022 2//// 30060 40069 51010=
0089010170999992015012008004+77683+014783FM-12+000699999V0202401N005019999999N999999999-00211+99999100761ADDMA1999999100671MD1110161+9999REMSYN04801017 46/// /2405 11021 2//// 30067 40076 51016=
0089010170999992015012009004+77683+014783FM-12+000699999V0202601N005019999999N999999999-00241+99999100841ADDMA1999999100761MD1210211+9999REMSYN04801017 46/// /2605 11024 2//// 30076 40084 52021=
0089010170999992015012010004+77683+014783FM-12+000699999V0202701N004019999999N999999999-00301+99999100941ADDMA1999999100861MD1110261+9999REMSYN04801017 46/// /2704 11030 2//// 30086 40094 51026=
0089010170999992015012011004+77683+014783FM-12+000699999V0202801N006019999999N999999999-00241+99999101001ADDMA1999999100921MD1210241+9999REMSYN04801017 46/// /2806 11024 2//// 30092 40100 52024=
0113010170999992015012012004+77683+014783FM-12+000699999V0202901N005019999999N999999999-00271+99999101041ADDMA1999999100951MD1310201+9999OD139900901999REMSYN05801017 46/// /2905 11027 2//// 30095 40104 53020 333 91109=
0089010170999992015012013004+77683+014783FM-12+000699999V0202901N005019999999N999999999-00281+99999101121ADDMA1999999101041MD1210181+9999REMSYN04801017 46/// /2905 11028 2//// 30104 40112 52018=
0089010170999992015012014004+77683+014783FM-12+000699999V0202801N006019999999N999999999-00291+99999101211ADDMA1999999101131MD1110211+9999REMSYN04801017 46/// /2806 11029 2//// 30113 40121 51021=
0089010170999992015012015004+77683+014783FM-12+000699999V0202201N002019999999N999999999-00331+99999101271ADDMA1999999101191MD1210231+9999REMSYN04801017 46/// /2202 11033 2//// 30119 40127 52023=
0089010170999992015012016004+77683+014783FM-12+000699999V0202401N001019999999N999999999-00341+99999101361ADDMA1999999101271MD1210241+9999REMSYN04801017 46/// /2401 11034 2//// 30127 40136 52024=
0089010170999992015012017004+77683+014783FM-12+000699999V0202201N002019999999N999999999-00361+99999101421ADDMA1999999101331MD1210211+9999REMSYN04801017 46/// /2202 11036 2//// 30133 40142 52021=
0132010170999992015012018004+77683+014783FM-12+000699999V0202201N001019999999N999999999-00361+99999101471ADDKA1120M-00211MA1999999101391MD1310201+9999OD139900701999REMSYN06401017 46/// /2201 11036 2//// 30139 40147 53020 333 11021 91107=
0089010170999992015012019004+77683+014783FM-12+000699999V0202001N002019999999N999999999-00371+99999101551ADDMA1999999101471MD1210191+9999REMSYN04801017 46/// /2002 11037 2//// 30147 40155 52019=
0089010170999992015012020004+77683+014783FM-12+000699999V0202101N004019999999N999999999-00341+99999101581ADDMA1999999101501MD1210171+9999REMSYN04801017 46/// /2104 11034 2//// 30150 40158 52017=
0089010170999992015012021004+77683+014783FM-12+000699999V0202601N004019999999N999999999-00301+99999101701ADDMA1999999101611MD1110231+9999REMSYN04801017 46/// /2604 11030 2//// 30161 40170 51023=
0089010170999992015012022004+77683+014783FM-12+000699999V0203001N004019999999N999999999-00371+99999101791ADDMA1999999101701MD1110241+9999REMSYN04801017 46/// /3004 11037 2//// 30170 40179 51024=
0089010170999992015012023004+77683+014783FM-12+000699999V0202001N002019999999N999999999-00391+99999101861ADDMA1999999101771MD1310271+9999REMSYN04801017 46/// /2002 11039 2//// 30177 40186 53027=
0113010170999992015012100004+77683+014783FM-12+000699999V0202401N001019999999N999999999-00421+99999101911ADDMA1999999101821MD1310211+9999OD139900701999REMSYN05801017 46/// /2401 11042 2//// 30182 40191 53021 333 91107=
0089010170999992015012101004+77683+014783FM-12+000699999V0209999C999999999999N999999999-00481+99999101931ADDMA1999999101841MD1310141+9999REMSYN04801017 46/// /0000 11048 2//// 30184 40193 53014=
0089010170999992015012102004+77683+014783FM-12+000699999V0203301N001019999999N999999999-00451+99999101961ADDMA1999999101881MD1210101+9999REMSYN04801017 46/// /3301 11045 2//// 30188 40196 52010=
0089010170999992015012103004+77683+014783FM-12+000699999V0203601N001019999999N999999999-00771+99999102001ADDMA1999999101911MD1210091+9999REMSYN04801017 46/// /3601 11077 2//// 30191 40200 52009=
0089010170999992015012104004+77683+014783FM-12+000699999V0203401N002019999999N999999999-00761+99999102011ADDMA1999999101931MD1210081+9999REMSYN04801017 46/// /3402 11076 2//// 30193 40201 52008=
0089010170999992015012105004+77683+014783FM-12+000699999V0200101N001019999999N999999999-00771+99999102041ADDMA1999999101951MD1210081+9999REMSYN04801017 46/// /0101 11077 2//// 30195 40204 52008=
0132010170999992015012106004+77683+014783FM-12+000699999V0200701N001019999999N999999999-00741+99999102051ADDKA1240N-00831MA1999999101971MD1210061+9999OD139900301999REMSYN06401017 46/// /0701 11074 2//// 30197 40205 52006 333 21083 91103=
0089010170999992015012107004+77683+014783FM-12+000699999V0203601N002019999999N999999999-00771+99999102061ADDMA1999999101971MD1210041+9999REMSYN04801017 46/// /3602 11077 2//// 30197 40206 52004=
0089010170999992015012108004+77683+014783FM-12+000699999V0209999C999999999999N999999999-00811+99999102091ADDMA1999999102001MD1210051+9999REMSYN04801017 46/// /0000 11081 2//// 30200 40209 52005=
0089010170999992015012109004+77683+014783FM-12+000699999V0203401N002019999999N999999999-00771+99999102091ADDMA1999999102011MD1210041+9999REMSYN04801017 46/// /3402 11077 2//// 30201 40209 52004=
0089010170999992015012110004+77683+014783FM-12+000699999V0200401N005019999999N999999999-00791+99999102061ADDMA1999999101981MD1510011+9999REMSYN04801017 46/// /0405 11079 2//// 30198 40206 55001=
0089010170999992015012111004+77683+014783FM-12+000699999V0200501N006019999999N999999999-00731+99999102041ADDMA1999999101961MD1710041+9999REMSYN04801017 46/// /0506 11073 2//// 30196 40204 57004=
0113010170999992015012112004+77683+014783FM-12+000699999V0200601N006019999999N999999999-00641+99999101981ADDMA1999999101891MD1610111+9999OD139900801999REMSYN05801017 46/// /0606 11064 2//// 30189 40198 56011 333 91108=
0089010170999992015012113004+77683+014783FM-12+000699999V0200601N007019999999N999999999-00681+99999101881ADDMA1999999101801MD1610181+9999REMSYN04801017 46/// /0607 11068 2//// 30180 40188 56018=
0089010170999992015012114004+77683+014783FM-12+000699999V0200501N006019999999N999999999-00641+99999101791ADDMA1999999101711MD1710251+9999REMSYN04801017 46/// /0506 11064 2//// 30171 40179 57025=
0089010170999992015012115004+77683+014783FM-12+000699999V0200901N005019999999N999999999-00271+99999101681ADDMA1999999101591MD1710301+9999REMSYN04801017 46/// /0905 11027 2//// 30159 40168 57030=
0089010170999992015012116004+77683+014783FM-12+000699999V0201401N006019999999N999999999-00071+99999101571ADDMA1999999101481MD1710311+9999REMSYN04801017 46/// /1406 11007 2//// 30148 40157 57031=
0089010170999992015012117004+77683+014783FM-12+000699999V0201401N009019999999N999999999-00121+99999101381ADDMA1999999101301MD1610411+9999REMSYN04801017 46/// /1409 11012 2//// 30130 40138 56041=
0132010170999992015012118004+77683+014783FM-12+000699999V0201501N010019999999N999999999-00041+99999101221ADDKA1120M+00021MA1999999101141MD1610451+9999OD139901501999REMSYN06401017 46/// /1510 11004 2//// 30114 40122 56045 333 10002 91115=
0089010170999992015012119004+77683+014783FM-12+000699999V0201601N008019999999N999999999-00051+99999101021ADDMA1999999100941MD1710551+9999REMSYN04801017 46/// /1608 11005 2//// 30094 40102 57055=
0089010170999992015012120004+77683+014783FM-12+000699999V0201701N009019999999N999999999+00101+99999100951ADDMA1999999100871MD1810431+9999REMSYN04801017 46/// /1709 10010 2//// 30087 40095 58043=
0089010170999992015012121004+77683+014783FM-12+000699999V0201901N009019999999N999999999+00201+99999100851ADDMA1999999100771MD1810371+9999REMSYN04801017 46/// /1909 10020 2//// 30077 40085 58037=
0089010170999992015012122004+77683+014783FM-12+000699999V0201901N010019999999N999999999+00251+99999100771ADDMA1999999100691MD1710251+9999REMSYN04801017 46/// /1910 10025 2//// 30069 40077 57025=
0089010170999992015012123004+77683+014783FM-12+000699999V0202001N010019999999N999999999+00211+99999100771ADDMA1999999100691MD1810181+9999REMSYN04801017 46/// /2010 10021 2//// 30069 40077 58018=
0113010170999992015012200004+77683+014783FM-12+000699999V0202201N009019999999N999999999+00191+99999100761ADDMA1999999100671MD1810091+9999OD139901501999REMSYN05801017 46/// /2209 10019 2//// 30067 40076 58009 333 91115=
0089010170999992015012201004+77683+014783FM-12+000699999V0202101N009019999999N999999999+00221+99999100721ADDMA1999999100631MD1610051+9999REMSYN04801017 46/// /2109 10022 2//// 30063 40072 56005=
0089010170999992015012202004+77683+014783FM-12+000699999V0202001N010019999999N999999999+00211+99999100621ADDMA1999999100541MD1610151+9999REMSYN04801017 46/// /2010 10021 2//// 30054 40062 56015=
0089010170999992015012203004+77683+014783FM-12+000699999V0202001N011019999999N999999999+00191+99999100581ADDMA1999999100501MD1710181+9999REMSYN04801017 46/// /2011 10019 2//// 30050 40058 57018=
0089010170999992015012204004+77683+014783FM-12+000699999V0202101N009019999999N999999999+00151+99999100561ADDMA1999999100481MD1810151+9999REMSYN04801017 46/// /2109 10015 2//// 30048 40056 58015=
0089010170999992015012205004+77683+014783FM-12+000699999V0202101N009019999999N999999999+00141+99999100531ADDMA1999999100451MD1710091+9999REMSYN04801017 46/// /2109 10014 2//// 30045 40053 57009=
0132010170999992015012206004+77683+014783FM-12+000699999V0202101N008019999999N999999999+00161+99999100521ADDKA1240N-00111MA1999999100441MD1710051+9999OD139901701999REMSYN06401017 46/// /2108 10016 2//// 30044 40052 57005 333 21011 91117=
0089010170999992015012207004+77683+014783FM-12+000699999V0202201N009019999999N999999999+00151+99999100541ADDMA1999999100461MD1990021+9999REMSYN04801017 46/// /2209 10015 2//// 30046 40054 50002=
0089010170999992015012208004+77683+014783FM-12+000699999V0202201N011019999999N999999999+00181+99999100561ADDMA1999999100481MD1210031+9999REMSYN04801017 46/// /2211 10018 2//// 30048 40056 52003=
0089010170999992015012209004+77683+014783FM-12+000699999V0202201N011019999999N999999999+00201+99999100581ADDMA1999999100501MD1210051+9999REMSYN04801017 46/// /2211 10020 2//// 30050 40058 52005=
0089010170999992015012210004+77683+014783FM-12+000699999V0202201N009019999999N999999999+00201+99999100601ADDMA1999999100521MD1210061+9999REMSYN04801017 46/// /2209 10020 2//// 30052 40060 52006=
0089010170999992015012211004+77683+014783FM-12+000699999V0202301N010019999999N999999999+00191+99999100571ADDMA1999999100491MD1510011+9999REMSYN04801017 46/// /2310 10019 2//// 30049 40057 55001=
0113010170999992015012212004+77683+014783FM-12+000699999V0202201N011019999999N999999999+00261+99999100551ADDMA1999999100471MD1510031+9999OD139901701999REMSYN05801017 46/// /2211 10026 2//// 30047 40055 55003 333 91117=
0089010170999992015012213004+77683+014783FM-12+000699999V0202201N011019999999N999999999+00231+99999100561ADDMA1999999100481MD1810041+9999REMSYN04801017 46/// /2211 10023 2//// 30048 40056 58004=
0089010170999992015012214004+77683+014783FM-12+000699999V0202201N010019999999N999999999+00261+99999100541ADDMA1999999100461MD1710031+9999REMSYN04801017 46/// /2210 10026 2//// 30046 40054 57003=
0108010170999992015012215004+77683+014783FM-12+000699999V0202201N009019999999N999999999+00211+99999100531ADDMA1999999100451MD1790029+9999REMSYN04801017 46/// /2209 10021 2//// 30045 40053 54002=EQDQ01.2    3APC3  
0089010170999992015012216004+77683+014783FM-12+000699999V0202101N009019999999N999999999+00141+99999100551ADDMA1999999100471MD1990011+9999REMSYN04801017 46/// /2109 10014 2//// 30047 40055 50001=
0089010170999992015012217004+77683+014783FM-12+000699999V0202201N008019999999N999999999+00151+99999100541ADDMA1999999100461MD1410001+9999REMSYN04801017 46/// /2208 10015 2//// 30046 40054 54000=
0132010170999992015012218004+77683+014783FM-12+000699999V0202101N010019999999N999999999+00281+99999100501ADDKA1120M+00311MA1999999100411MD1610041+9999OD139901501999REMSYN06401017 46/// /2110 10028 2//// 30041 40050 56004 333 10031 91115=
0089010170999992015012219004+77683+014783FM-12+000699999V0202101N009019999999N999999999+00271+99999100471ADDMA1999999100391MD1710081+9999REMSYN04801017 46/// /2109 10027 2//// 30039 40047 57008=
0089010170999992015012220004+77683+014783FM-12+000699999V0202001N010019999999N999999999+00211+99999100451ADDMA1999999100371MD1710101+9999REMSYN04801017 46/// /2010 10021 2//// 30037 40045 57010=
0089010170999992015012221004+77683+014783FM-12+000699999V0202101N010019999999N999999999+00231+99999100441ADDMA1999999100351MD1710061+9999REMSYN04801017 46/// /2110 10023 2//// 30035 40044 57006=
0089010170999992015012222004+77683+014783FM-12+000699999V0202201N008019999999N999999999+00211+99999100461ADDMA1999999100381MD1990011+9999REMSYN04801017 46/// /2208 10021 2//// 30038 40046 50001=
0089010170999992015012223004+77683+014783FM-12+000699999V0202101N009019999999N999999999+00201+99999100451ADDMA1999999100371MD1410001+9999REMSYN04801017 46/// /2109 10020 2//// 30037 40045 54000=
0113010170999992015012300004+77683+014783FM-12+000699999V0202101N009019999999N999999999+00161+99999100481ADDMA1999999100401MD1210051+9999OD139901301999REMSYN05801017 46/// /2109 10016 2//// 30040 40048 52005 333 91113=
0108010170999992015012301004+77683+014783FM-12+000699999V0202101N008019999999N999999999+00181+99999100471ADDMA1999999100391MD1290019+9999REMSYN04801017 46/// /2108 10018 2//// 30039 40047 54001=EQDQ01.1    3APC3  
0089010170999992015012302004+77683+014783FM-12+000699999V0202101N008019999999N999999999+00191+99999100451ADDMA1999999100371MD1510001+9999REMSYN04801017 46/// /2108 10019 2//// 30037 40045 55000=
0089010170999992015012303004+77683+014783FM-12+000699999V0202101N009019999999N999999999+00211+99999100451ADDMA1999999100361MD1710041+9999REMSYN04801017 46/// /2109 10021 2//// 30036 40045 57004=
0089010170999992015012304004+77683+014783FM-12+000699999V0202001N009019999999N999999999+00191+99999100421ADDMA1999999100341MD1710051+9999REMSYN04801017 46/// /2009 10019 2//// 30034 40042 57005=
0108010170999992015012305004+77683+014783FM-12+000699999V0202001N008019999999N999999999+00221+99999100431ADDMA1999999100351MD1790029+9999REMSYN04801017 46/// /2008 10022 2//// 30035 40043 54002=EQDQ01.2    3APC3  
0132010170999992015012306004+77683+014783FM-12+000699999V0202001N008019999999N999999999+00211+99999100471ADDKA1240N+00131MA1999999100391MD1990031+9999OD139901301999REMSYN06401017 46/// /2008 10021 2//// 30039 40047 50003 333 20013 91113=
0089010170999992015012307004+77683+014783FM-12+000699999V0202001N008019999999N999999999+00191+99999100461ADDMA1999999100371MD1310031+9999REMSYN04801017 46/// /2008 10019 2//// 30037 40046 53003=
0089010170999992015012308004+77683+014783FM-12+000699999V0201901N008019999999N999999999+00271+99999100421ADDMA1999999100341MD1510011+9999REMSYN04801017 46/// /1908 10027 2//// 30034 40042 55001=
0089010170999992015012309004+77683+014783FM-12+000699999V0201801N005019999999N999999999+00301+99999100471ADDMA1999999100391MD1990011+9999REMSYN04801017 46/// /1805 10030 2//// 30039 40047 50001=
0108010170999992015012310004+77683+014783FM-12+000699999V0201901N007019999999N999999999+00271+99999100431ADDMA1999999100351MD1790039+9999REMSYN04801017 46/// /1907 10027 2//// 30035 40043 54002=EQDQ01.2    3APC3  
0089010170999992015012311004+77683+014783FM-12+000699999V0201901N007019999999N999999999+00261+99999100411ADDMA1999999100331MD1510011+9999REMSYN04801017 46/// /1907 10026 2//// 30033 40041 55001=
0113010170999992015012312004+77683+014783FM-12+000699999V0201801N007019999999N999999999+00261+99999100401ADDMA1999999100321MD1710061+9999OD139901101999REMSYN05801017 46/// /1807 10026 2//// 30032 40040 57006 333 91111=
0089010170999992015012313004+77683+014783FM-12+000699999V0201801N006019999999N999999999+00101+99999100371ADDMA1999999100291MD1710061+9999REMSYN04801017 46/// /1806 10010 2//// 30029 40037 57006=
0108010170999992015012314004+77683+014783FM-12+000699999V0202501N004019999999N999999999+00041+99999100381ADDMA1999999100301MD1790039+9999REMSYN04801017 46/// /2504 10004 2//// 30030 40038 54003=EQDQ01.3    3APC3  
0089010170999992015012315004+77683+014783FM-12+000699999V0201801N004019999999N999999999+00261+99999100321ADDMA1999999100241MD1710081+9999REMSYN04801017 46/// /1804 10026 2//// 30024 40032 57008=
0089010170999992015012316004+77683+014783FM-12+000699999V0201801N004019999999N999999999+00271+99999100291ADDMA1999999100211MD1610081+9999REMSYN04801017 46/// /1804 10027 2//// 30021 40029 56008=
0089010170999992015012317004+77683+014783FM-12+000699999V0201101N002019999999N999999999+00171+99999100301ADDMA1999999100211MD1810081+9999REMSYN04801017 46/// /1102 10017 2//// 30021 40030 58008=
0132010170999992015012318004+77683+014783FM-12+000699999V0201401N004019999999N999999999+00221+99999100261ADDKA1120M+00311MA1999999100181MD1710061+9999OD139900901999REMSYN06401017 46/// /1404 10022 2//// 30018 40026 57006 333 10031 91109=
0089010170999992015012319004+77683+014783FM-12+000699999V0201401N005019999999N999999999+00211+99999100221ADDMA1999999100141MD1610071+9999REMSYN04801017 46/// /1405 10021 2//// 30014 40022 56007=
0089010170999992015012320004+77683+014783FM-12+000699999V0201501N006019999999N999999999+00161+99999100191ADDMA1999999100111MD1710101+9999REMSYN04801017 46/// /1506 10016 2//// 30011 40019 57010=
0089010170999992015012321004+77683+014783FM-12+000699999V0201401N005019999999N999999999+00191+99999100191ADDMA1999999100111MD1810071+9999REMSYN04801017 46/// /1405 10019 2//// 30011 40019 58007=
0089010170999992015012322004+77683+014783FM-12+000699999V0201501N005019999999N999999999+00181+99999100151ADDMA1999999100071MD1710061+9999REMSYN04801017 46/// /1505 10018 2//// 30007 40015 57006=
0089010170999992015012323004+77683+014783FM-12+000699999V0201401N004019999999N999999999+00181+99999100131ADDMA1999999100051MD1710061+9999REMSYN04801017 46/// /1404 10018 2//// 30005 40013 57006=
0113010170999992015012400004+77683+014783FM-12+000699999V0201601N004019999999N999999999+00141+99999100091ADDMA1999999100011MD1710101+9999OD139900801999REMSYN05801017 46/// /1604 10014 2//// 30001 40009 57010 333 91108=
0089010170999992015012401004+77683+014783FM-12+000699999V0201301N002019999999N999999999+00151+99999100061ADDMA1999999099981MD1710091+9999REMSYN04801017 46/// /1302 10015 2//// 39998 40006 57009=
0089010170999992015012402004+77683+014783FM-12+000699999V0200501N004019999999N999999999+00091+99999100041ADDMA1999999099961MD1710091+9999REMSYN04801017 46/// /0504 10009 2//// 39996 40004 57009=
0089010170999992015012403004+77683+014783FM-12+000699999V0200801N004019999999N999999999+00071+99999100011ADDMA1999999099931MD1710081+9999REMSYN04801017 46/// /0804 10007 2//// 39993 40001 57008=
0089010170999992015012405004+77683+014783FM-12+000699999V0200401N005019999999N999999999-00071+99999100011ADDMA1999999099931MD1810031+9999REMSYN04801017 46/// /0405 11007 2//// 39993 40001 58003=
0108010170999992015012406004+77683+014783FM-12+000699999V0200701N004019999999N999999999+00061+99999100001ADDMA1999999099921MD1790019+9999REMSYN04801017 46/// /0704 10006 2//// 39992 40000 54002=EQDQ01.2    3APC3  
0089010170999992015012407004+77683+014783FM-12+000699999V0200801N004019999999N999999999-00031+99999100031ADDMA1999999099951MD1210041+9999REMSYN04801017 46/// /0804 11003 2//// 39995 40003 52004=
0089010170999992015012408004+77683+014783FM-12+000699999V0200501N005019999999N999999999-00011+99999100051ADDMA1999999099971MD1110041+9999REMSYN04801017 46/// /0505 11001 2//// 39997 40005 51004=
0089010170999992015012409004+77683+014783FM-12+000699999V0200701N004019999999N999999999-00011+99999100091ADDMA1999999100011MD1210091+9999REMSYN04801017 46/// /0704 11001 2//// 30001 40009 52009=
0089010170999992015012410004+77683+014783FM-12+000699999V0200601N006019999999N999999999-00051+99999100101ADDMA1999999100021MD1210071+9999REMSYN04801017 46/// /0606 11005 2//// 30002 40010 52007=
0089010170999992015012411004+77683+014783FM-12+000699999V0201001N002019999999N999999999-00071+99999100141ADDMA1999999100061MD1210101+9999REMSYN04801017 46/// /1002 11007 2//// 30006 40014 52010=
0113010170999992015012412004+77683+014783FM-12+000699999V0200901N004019999999N999999999-00061+99999100141ADDMA1999999100061MD1210051+9999OD139900801999REMSYN05801017 46/// /0904 11006 2//// 30006 40014 52005 333 91108=
0089010170999992015012413004+77683+014783FM-12+000699999V0201001N005019999999N999999999-00021+99999100151ADDMA1999999100071MD1310061+9999REMSYN04801017 46/// /1005 11002 2//// 30007 40015 53006=
0089010170999992015012414004+77683+014783FM-12+000699999V0200501N006019999999N999999999-00091+99999100181ADDMA1999999100101MD1210031+9999REMSYN04801017 46/// /0506 11009 2//// 30010 40018 52003=
0089010170999992015012415004+77683+014783FM-12+000699999V0200601N006019999999N999999999-00071+99999100231ADDMA1999999100151MD1110091+9999REMSYN04801017 46/// /0606 11007 2//// 30015 40023 51009=
0089010170999992015012416004+77683+014783FM-12+000699999V0200801N004019999999N999999999+00001+99999100271ADDMA1999999100191MD1210121+9999REMSYN04801017 46/// /0804 10000 2//// 30019 40027 52012=
0089010170999992015012417004+77683+014783FM-12+000699999V0200701N005019999999N999999999-00041+99999100291ADDMA1999999100211MD1210121+9999REMSYN04801017 46/// /0705 11004 2//// 30021 40029 52012=
0132010170999992015012418004+77683+014783FM-12+000699999V0200701N006019999999N999999999-00021+99999100321ADDKA1120M+00061MA1999999100241MD1210091+9999OD139901001999REMSYN06401017 46/// /0706 11002 2//// 30024 40032 52009 333 10006 91110=
0089010170999992015012419004+77683+014783FM-12+000699999V0201101N005019999999N999999999-00041+99999100371ADDMA1999999100291MD1110101+9999REMSYN04801017 46/// /1105 11004 2//// 30029 40037 51010=
0089010170999992015012420004+77683+014783FM-12+000699999V0200801N004019999999N999999999-00151+99999100381ADDMA1999999100301MD1210091+9999REMSYN04801017 46/// /0804 11015 2//// 30030 40038 52009=
0089010170999992015012421004+77683+014783FM-12+000699999V0200601N004019999999N999999999-00221+99999100411ADDMA1999999100331MD1210091+9999REMSYN04801017 46/// /0604 11022 2//// 30033 40041 52009=
0089010170999992015012422004+77683+014783FM-12+000699999V0200601N007019999999N999999999-00281+99999100421ADDMA1999999100341MD1210051+9999REMSYN04801017 46/// /0607 11028 2//// 30034 40042 52005=
