0089010200999992015010103004+76483+016550FM-12+001099999V0200601N006019999999N999999999-00501-00551098591ADDMA1999999098491MD1710031+9999REMSYN04801020 46/// /0606 11050 21055 39849 49859 57003=
0113010200999992015010106004+76483+016550FM-12+001099999V0200601N006019999999N999999999-00351-00411098531ADDMA1999999098421MD1810071+9999OD139900901999REMSYN05801020 46/// /0606 11035 21041 39842 49853 58007 333 91109=
0089010200999992015010109004+76483+016550FM-12+001099999V0200401N005019999999N999999999-00361-00411098471ADDMA1999999098371MD1710061+9999REMSYN04801020 46/// /0405 11036 21041 39837 49847 57006=
0113010200999992015010112004+76483+016550FM-12+001099999V0200501N004019999999N999999999-00441-00461098391ADDMA1999999098281MD1710081+9999OD139900801999REMSYN05801020 46/// /0504 11044 21046 39828 49839 57008 333 91108=
0089010200999992015010115004+76483+016550FM-12+001099999V0200601N003019999999N999999999-00401-00421098321ADDMA1999999098211MD1710071+9999REMSYN04801020 46/// /0603 11040 21042 39821 49832 57007=
0132010200999992015010118004+76483+016550FM-12+001099999V0200501N003019999999N999999999-00501-00541098191ADDKA1120M-00331MA1999999098081MD1710131+9999OD139900501999REMSYN06401020 46/// /0503 11050 21054 39808 49819 57013 333 11033 91105=
0089010200999992015010121004+76483+016550FM-12+001099999V0200401N002019999999N999999999-00591-00651098081ADDMA1999999097981MD1710111+9999REMSYN04801020 46/// /0402 11059 21065 39798 49808 57011=
0113010200999992015010200004+76483+016550FM-12+001099999V0200401N003019999999N999999999-00371-00411097921ADDMA1999999097821MD1710161+9999OD139900301999REMSYN05801020 46/// /0403 11037 21041 39782 49792 57016 333 91103=
0089010200999992015010203004+76483+016550FM-12+001099999V0200501N004019999999N999999999-00361-00401097821ADDMA1999999097711MD1710101+9999REMSYN04801020 46/// /0504 11036 21040 39771 49782 57010=
0132010200999992015010206004+76483+016550FM-12+001099999V0200501N009019999999N999999999-00381-00421097681ADDKA1240N-00591MA1999999097581MD1710131+9999OD139901001999REMSYN06401020 46/// /0509 11038 21042 39758 49768 57013 333 21059 91110=
0089010200999992015010209004+76483+016550FM-12+001099999V0200401N012019999999N999999999-00421-00471097591ADDMA1999999097481MD1810101+9999REMSYN04801020 46/// /0412 11042 21047 39748 49759 58010=
0113010200999992015010212004+76483+016550FM-12+001099999V0200401N015019999999N999999999-00331-00431097511ADDMA1999999097401MD1610081+9999OD139901801999REMSYN05801020 46/// /0415 11033 21043 39740 49751 56008 333 91118=
0089010200999992015010215004+76483+016550FM-12+001099999V0200401N012019999999N999999999-00251-00361097561ADDMA1999999097461MD1210061+9999REMSYN04801020 46/// /0412 11025 21036 39746 49756 52006=
0132010200999992015010218004+76483+016550FM-12+001099999V0200401N011019999999N999999999-00191-00241097661ADDKA1120M-00191MA1999999097561MD1210101+9999OD139901801999REMSYN06401020 46/// /0411 11019 21024 39756 49766 52010 333 11019 91118=
0089010200999992015010221004+76483+016550FM-12+001099999V0200501N012019999999N999999999-00141-00201097801ADDMA1999999097701MD1210141+9999REMSYN04801020 46/// /0512 11014 21020 39770 49780 52014=
0113010200999992015010300004+76483+016550FM-12+001099999V0200501N009019999999N999999999-00091-00101098061ADDMA1999999097951MD1110261+9999OD139901501999REMSYN05801020 46/// /0509 11009 21010 39795 49806 51026 333 91115=
0089010200999992015010303004+76483+016550FM-12+001099999V0200901N009019999999N999999999+00111+00011098311ADDMA1999999098201MD1210251+9999REMSYN04801020 46/// /0909 10011 20001 39820 49831 52025=
0132010200999992015010306004+76483+016550FM-12+001099999V0200901N010019999999N999999999+00061-00081098541ADDKA1240N-00221MA1999999098431MD1210231+9999OD139901301999REMSYN06401020 46/// /0910 10006 21008 39843 49854 52023 333 21022 91113=
0089010200999992015010309004+76483+016550FM-12+001099999V0201001N011019999999N999999999+00081-00081098821ADDMA1999999098721MD1210281+9999REMSYN04801020 46/// /1011 10008 21008 39872 49882 52028=
0113010200999992015010312004+76483+016550FM-12+001099999V0201001N012019999999N999999999+00021-00201099071ADDMA1999999098971MD1310251+9999OD139901501999REMSYN05801020 46/// /1012 10002 21020 39897 49907 53025 333 91115=
0089010200999992015010315004+76483+016550FM-12+001099999V0200901N012019999999N999999999-00031-00271099381ADDMA1999999099271MD1210301+9999REMSYN04801020 46/// /0912 11003 21027 39927 49938 52030=
0132010200999992015010318004+76483+016550FM-12+001099999V0200901N011019999999N999999999-00061-00371099651ADDKA1120M+00091MA1999999099551MD1210281+9999OD139901501999REMSYN06401020 46/// /0911 11006 21037 39955 49965 52028 333 10009 91115=
0089010200999992015010321004+76483+016550FM-12+001099999V0200801N011019999999N999999999-00111-00411099931ADDMA1999999099821MD1210271+9999REMSYN04801020 46/// /0811 11011 21041 39982 49993 52027=
0113010200999992015010400004+76483+016550FM-12+001099999V0200801N009019999999N999999999-00161-00471100211ADDMA1999999100101MD1210281+9999OD139901401999REMSYN05801020 46/// /0809 11016 21047 30010 40021 52028 333 91114=
0089010200999992015010403004+76483+016550FM-12+001099999V0200901N008019999999N999999999-00181-00551100421ADDMA1999999100321MD1210221+9999REMSYN04801020 46/// /0908 11018 21055 30032 40042 52022=
0132010200999992015010406004+76483+016550FM-12+001099999V0200901N008019999999N999999999-00231-00571100601ADDKA1240N-00241MA1999999100491MD1210181+9999OD139901101999REMSYN06401020 46/// /0908 11023 21057 30049 40060 52018 333 21024 91111=
0089010200999992015010409004+76483+016550FM-12+001099999V0200801N008019999999N999999999-00251-00561100841ADDMA1999999100731MD1210241+9999REMSYN04801020 46/// /0808 11025 21056 30073 40084 52024=
0113010200999992015010412004+76483+016550FM-12+001099999V0200901N008019999999N999999999-00211-00501101041ADDMA1999999100941MD1210201+9999OD139901101999REMSYN05801020 46/// /0908 11021 21050 30094 40104 52020 333 91111=
0089010200999992015010415004+76483+016550FM-12+001099999V0200901N006019999999N999999999-00271-00491101241ADDMA1999999101131MD1210191+9999REMSYN04801020 46/// /0906 11027 21049 30113 40124 52019=
0132010200999992015010418004+76483+016550FM-12+001099999V0200501N007019999999N999999999-00501-00641101421ADDKA1120M-00191MA1999999101311MD1210181+9999OD139900901999REMSYN06401020 46/// /0507 11050 21064 30131 40142 52018 333 11019 91109=
0089010200999992015010421004+76483+016550FM-12+001099999V0200501N006019999999N999999999-00591-00711101611ADDMA1999999101501MD1210191+9999REMSYN04801020 46/// /0506 11059 21071 30150 40161 52019=
0089010200999992015010500004+76483+016550FM-12+001099999V0200501N006019999999N999999999-00551-00661101771ADDMA1999999101661MD1210151+9999REMSYN04801020 46/// /0506 11055 21066 30166 40177 52015=
0089010200999992015010503004+76483+016550FM-12+001099999V0200601N006019999999N999999999-00571-00651101891ADDMA1999999101781MD1210121+9999REMSYN04801020 46/// /0606 11057 21065 30178 40189 52012=
0113010200999992015010506004+76483+016550FM-12+001099999V0200701N005019999999N999999999-00631-00711101951ADDMA1999999101841MD1210071+9999OD139900801999REMSYN05801020 46/// /0705 11063 21071 30184 40195 52007 333 91108=
0089010200999992015010509004+76483+016550FM-12+001099999V0200801N004019999999N999999999-00621-00681102041ADDMA1999999101931MD1210091+9999REMSYN04801020 46/// /0804 11062 21068 30193 40204 52009=
0113010200999992015010512004+76483+016550FM-12+001099999V0200701N003019999999N999999999-00691-00761102071ADDMA1999999101961MD1210031+9999OD139900701999REMSYN05801020 46/// /0703 11069 21076 30196 40207 52003 333 91107=
0108010200999992015010515004+76483+016550FM-12+001099999V0202301N007019999999N999999999-00131-00171102051ADDMA1999999101941MD1790029+9999REMSYN04801020 46/// /2307 11013 21017 30194 40205 54002=EQDQ01.2    3APC3  
0132010200999992015010518004+76483+016550FM-12+001099999V0200701N001019999999N999999999-00261-00281102011ADDKA1120M-00121MA1999999101901MD1710041+9999OD139900801999REMSYN06401020 46/// /0701 11026 21028 30190 40201 57004 333 11012 91108=
0089010200999992015010521004+76483+016550FM-12+001099999V0201701N003019999999N999999999-00391-00481101901ADDMA1999999101791MD1710121+9999REMSYN04801020 46/// /1703 11039 21048 30179 40190 57012=
0113010200999992015010600004+76483+016550FM-12+001099999V0201101N003019999999N999999999-00851-01021101661ADDMA1999999101551MD1710231+9999OD139900601999REMSYN05801020 46/// /1103 11085 21102 30155 40166 57023 333 91106=
0089010200999992015010601004+76483+016550FM-12+001099999V0201401N005019999999N999999999-00151-00451101611ADDMA1999999101501MD1710211+9999REMSYN04801020 46/// /1405 11015 21045 30150 40161 57021=
0089010200999992015010602004+76483+016550FM-12+001099999V0201401N006019999999N999999999-00101-00471101521ADDMA1999999101411MD1710231+9999REMSYN04801020 46/// /1406 11010 21047 30141 40152 57023=
0089010200999992015010603004+76483+016550FM-12+001099999V0201301N006019999999N999999999-00111-00481101381ADDMA1999999101271MD1610281+9999REMSYN04801020 46/// /1306 11011 21048 30127 40138 56028=
0089010200999992015010604004+76483+016550FM-12+001099999V0201301N007019999999N999999999-00031-00461101271ADDMA1999999101161MD1710331+9999REMSYN04801020 46/// /1307 11003 21046 30116 40127 57033=
0089010200999992015010605004+76483+016550FM-12+001099999V0201301N008019999999N999999999-00051-00381101141ADDMA1999999101031MD1710371+9999REMSYN04801020 46/// /1308 11005 21038 30103 40114 57037=
0132010200999992015010606004+76483+016550FM-12+001099999V0201301N009019999999N999999999-00051-00431101041ADDKA1240N-00861MA1999999100931MD1710341+9999OD139901101999REMSYN06401020 46/// /1309 11005 21043 30093 40104 57034 333 21086 91111=
0089010200999992015010607004+76483+016550FM-12+001099999V0201201N009019999999N999999999-00051-00381100951ADDMA1999999100841MD1810321+9999REMSYN04801020 46/// /1209 11005 21038 30084 40095 58032=
0089010200999992015010608004+76483+016550FM-12+001099999V0201201N009019999999N999999999-00041-00341100841ADDMA1999999100731MD1710301+9999REMSYN04801020 46/// /1209 11004 21034 30073 40084 57030=
0089010200999992015010609004+76483+016550FM-12+001099999V0201201N010019999999N999999999-00011-00321100761ADDMA1999999100651MD1710281+9999REMSYN04801020 46/// /1210 11001 21032 30065 40076 57028=
0089010200999992015010610004+76483+016550FM-12+001099999V0201301N009019999999N999999999+00021-00351100661ADDMA1999999100551MD1710291+9999REMSYN04801020 46/// /1309 10002 21035 30055 40066 57029=
0089010200999992015010611004+76483+016550FM-12+001099999V0201301N009019999999N999999999+00011-00311100561ADDMA1999999100451MD1710281+9999REMSYN04801020 46/// /1309 10001 21031 30045 40056 57028=
0113010200999992015010612004+76483+016550FM-12+001099999V0201401N010019999999N999999999+00041-00301100431ADDMA1999999100331MD1710321+9999OD139901201999REMSYN05801020 46/// /1410 10004 21030 30033 40043 57032 333 91112=
0089010200999992015010614004+76483+016550FM-12+001099999V0201301N010019999999N999999999+00031-00181100221ADDMA1999999100121MD1710331+9999REMSYN04801020 46/// /1310 10003 21018 30012 40022 57033=
0089010200999992015010615004+76483+016550FM-12+001099999V0201401N010019999999N999999999+00011-00101100121ADDMA1999999100011MD1710321+9999REMSYN04801020 46/// /1410 10001 21010 30001 40012 57032=
0089010200999992015010616004+76483+016550FM-12+001099999V0201301N010019999999N999999999+00001-00051100031ADDMA1999999099921MD1710301+9999REMSYN04801020 46/// /1310 10000 21005 39992 40003 57030=
0089010200999992015010617004+76483+016550FM-12+001099999V0201301N010019999999N999999999+00001-00041099951ADDMA1999999099851MD1810271+9999REMSYN04801020 46/// /1310 10000 21004 39985 49995 58027=
0089010200999992015010618004+76483+016550FM-12+001099999V0201301N010019999999N999999999+00011-00021099881ADDMA1999999099781MD1710231+9999REMSYN04801020 46/// /1310 10001 21002 39978 49988 57023=
0089010200999992015010619004+76483+016550FM-12+001099999V0201301N009019999999N999999999+00031-00011099851ADDMA1999999099741MD1810181+9999REMSYN04801020 46/// /1309 10003 21001 39974 49985 58018=
0089010200999992015010620004+76483+016550FM-12+001099999V0201401N009019999999N999999999+00051-00011099811ADDMA1999999099701MD1710141+9999REMSYN04801020 46/// /1409 10005 21001 39970 49981 57014=
0089010200999992015010621004+76483+016550FM-12+001099999V0201401N010019999999N999999999+00071+00011099771ADDMA1999999099661MD1710121+9999REMSYN04801020 46/// /1410 10007 20001 39966 49977 57012=
0089010200999992015010622004+76483+016550FM-12+001099999V0201401N009019999999N999999999+00061+00021099711ADDMA1999999099611MD1710131+9999REMSYN04801020 46/// /1409 10006 20002 39961 49971 57013=
0089010200999992015010623004+76483+016550FM-12+001099999V0201401N009019999999N999999999+00071+00041099671ADDMA1999999099571MD1710141+9999REMSYN04801020 46/// /1409 10007 20004 39957 49967 57014=
0113010200999992015010700004+76483+016550FM-12+001099999V0201401N009019999999N999999999+00051+00021099621ADDMA1999999099511MD1710151+9999OD139901201999REMSYN05801020 46/// /1409 10005 20002 39951 49962 57015 333 91112=
0089010200999992015010701004+76483+016550FM-12+001099999V0201401N009019999999N999999999+00041+00001099601ADDMA1999999099491MD1710121+9999REMSYN04801020 46/// /1409 10004 21000 39949 49960 57012=
0089010200999992015010702004+76483+016550FM-12+001099999V0201401N009019999999N999999999+00031-00011099551ADDMA1999999099441MD1710121+9999REMSYN04801020 46/// /1409 10003 21001 39944 49955 57012=
0089010200999992015010703004+76483+016550FM-12+001099999V0201301N009019999999N999999999+00021-00011099491ADDMA1999999099391MD1610131+9999REMSYN04801020 46/// /1309 10002 21001 39939 49949 56013=
0089010200999992015010704004+76483+016550FM-12+001099999V0201301N010019999999N999999999+00021-00011099411ADDMA1999999099301MD1610191+9999REMSYN04801020 46/// /1310 10002 21001 39930 49941 56019=
0089010200999992015010705004+76483+016550FM-12+001099999V0201301N010019999999N999999999+00011+00001099341ADDMA1999999099241MD1710201+9999REMSYN04801020 46/// /1310 10001 21000 39924 49934 57020=
0132010200999992015010706004+76483+016550FM-12+001099999V0201201N010019999999N999999999+00001-00011099281ADDKA1240N+00001MA1999999099181MD1710211+9999OD139901201999REMSYN06401020 46/// /1210 10000 21001 39918 49928 57021 333 20000 91112=
0089010200999992015010707004+76483+016550FM-12+001099999V0201201N010019999999N999999999-00011-00011099231ADDMA1999999099121MD1710181+9999REMSYN04801020 46/// /1210 11001 21001 39912 49923 57018=
0089010200999992015010708004+76483+016550FM-12+001099999V0201101N010019999999N999999999-00011-00021099151ADDMA1999999099051MD1710191+9999REMSYN04801020 46/// /1110 11001 21002 39905 49915 57019=
0089010200999992015010709004+76483+016550FM-12+001099999V0201101N011019999999N999999999-00011-00021099061ADDMA1999999098961MD1610221+9999REMSYN04801020 46/// /1111 11001 21002 39896 49906 56022=
0089010200999992015010710004+76483+016550FM-12+001099999V0201101N012019999999N999999999+00001-00011098951ADDMA1999999098841MD1610281+9999REMSYN04801020 46/// /1112 10000 21001 39884 49895 56028=
0089010200999992015010711004+76483+016550FM-12+001099999V0201301N012019999999N999999999+00011+00011098881ADDMA1999999098781MD1710271+9999REMSYN04801020 46/// /1312 10001 20001 39878 49888 57027=
0113010200999992015010712004+76483+016550FM-12+001099999V0201301N013019999999N999999999+00011+00011098811ADDMA1999999098701MD1810261+9999OD139901401999REMSYN05801020 46/// /1313 10001 20001 39870 49881 58026 333 91114=
0089010200999992015010713004+76483+016550FM-12+001099999V0201301N012019999999N999999999+00071+00071098661ADDMA1999999098551MD1610291+9999REMSYN04801020 46/// /1312 10007 20007 39855 49866 56029=
0089010200999992015010714004+76483+016550FM-12+001099999V0202501N011019999999N999999999+00001-00011098691ADDMA1999999098591MD1810191+9999REMSYN04801020 46/// /2511 10000 21001 39859 49869 58019=
0089010200999992015010715004+76483+016550FM-12+001099999V0202501N011019999999N999999999+00001-00061098841ADDMA1999999098741MD1990031+9999REMSYN04801020 46/// /2511 10000 21006 39874 49884 50003=
0089010200999992015010716004+76483+016550FM-12+001099999V0202801N011019999999N999999999-00071-00111099021ADDMA1999999098911MD1110361+9999REMSYN04801020 46/// /2811 11007 21011 39891 49902 51036=
0089010200999992015010717004+76483+016550FM-12+001099999V0202701N008019999999N999999999-00051-00091099131ADDMA1999999099021MD1310441+9999REMSYN04801020 46/// /2708 11005 21009 39902 49913 53044=
0132010200999992015010718004+76483+016550FM-12+001099999V0202901N006019999999N999999999-00101-00121099231ADDKA1120M+00101MA1999999099131MD1310391+9999OD139901701999REMSYN06401020 46/// /2906 11010 21012 39913 49923 53039 333 10010 91117=
0089010200999992015010720004+76483+016550FM-12+001099999V0202701N007019999999N999999999-00051-00191099361ADDMA1999999099261MD1310231+9999REMSYN04801020 46/// /2707 11005 21019 39926 49936 53023=
0089010200999992015010721004+76483+016550FM-12+001099999V0202801N007019999999N999999999-00041-00191099441ADDMA1999999099341MD1210211+9999REMSYN04801020 46/// /2807 11004 21019 39934 49944 52021=
0089010200999992015010722004+76483+016550FM-12+001099999V0202701N005019999999N999999999-00081-00221099501ADDMA1999999099391MD1210201+9999REMSYN04801020 46/// /2705 11008 21022 39939 49950 52020=
0089010200999992015010723004+76483+016550FM-12+001099999V0202601N004019999999N999999999-00091-00221099521ADDMA1999999099421MD1310161+9999REMSYN04801020 46/// /2604 11009 21022 39942 49952 53016=
0089010200999992015010800004+76483+016550FM-12+001099999V0202601N004019999999N999999999+00011-00291099551ADDMA1999999099441MD1210111+9999REMSYN04801020 46/// /2604 10001 21029 39944 49955 52011=
0089010200999992015010801004+76483+016550FM-12+001099999V0202101N002019999999N999999999-00111-00221099571ADDMA1999999099461MD1210071+9999REMSYN04801020 46/// /2102 11011 21022 39946 49957 52007=
0089010200999992015010802004+76483+016550FM-12+001099999V0201501N002019999999N999999999-00081-00231099581ADDMA1999999099471MD1210061+9999REMSYN04801020 46/// /1502 11008 21023 39947 49958 52006=
0089010200999992015010803004+76483+016550FM-12+001099999V0200801N003019999999N999999999-00371-00441099561ADDMA1999999099451MD1510001+9999REMSYN04801020 46/// /0803 11037 21044 39945 49956 55000=
0108010200999992015010804004+76483+016550FM-12+001099999V0200601N003019999999N999999999-00571-00631099581ADDMA1999999099471MD1290019+9999REMSYN04801020 46/// /0603 11057 21063 39947 49958 54001=EQDQ01.1    3APC3  
0108010200999992015010805004+76483+016550FM-12+001099999V0200601N005019999999N999999999-00501-00551099571ADDMA1999999099461MD1790019+9999REMSYN04801020 46/// /0605 11050 21055 39946 49957 54001=EQDQ01.1    3APC3  
0132010200999992015010806004+76483+016550FM-12+001099999V0200601N005019999999N999999999-00451-00521099571ADDMA1999999099461MD1290019+9999OD139900601999REMSYN05801020 46/// /0605 11045 21052 39946 49957 54001 333 91106=EQDQ01.1    3APC3  
0108010200999992015010807004+76483+016550FM-12+001099999V0200601N005019999999N999999999-00281-00381099571ADDMA1999999099461MD1790019+9999REMSYN04801020 46/// /0605 11028 21038 39946 49957 54001=EQDQ01.1    3APC3  
0108010200999992015010808004+76483+016550FM-12+001099999V0200601N005019999999N999999999-00231-00341099561ADDMA1999999099451MD1790019+9999REMSYN04801020 46/// /0605 11023 21034 39945 49956 54001=EQDQ01.1    3APC3  
0108010200999992015010809004+76483+016550FM-12+001099999V0200701N005019999999N999999999-00141-00241099551ADDMA1999999099441MD1790029+9999REMSYN04801020 46/// /0705 11014 21024 39944 49955 54002=EQDQ01.2    3APC3  
0108010200999992015010810004+76483+016550FM-12+001099999V0200601N006019999999N999999999-00151-00251099561ADDMA1999999099451MD1790019+9999REMSYN04801020 46/// /0606 11015 21025 39945 49956 54001=EQDQ01.1    3APC3  
0108010200999992015010811004+76483+016550FM-12+001099999V0200901N006019999999N999999999-00081-00191099551ADDMA1999999099441MD1790019+9999REMSYN04801020 46/// /0906 11008 21019 39944 49955 54001=EQDQ01.1    3APC3  
0113010200999992015010812004+76483+016550FM-12+001099999V0200901N007019999999N999999999-00081-00191099501ADDMA1999999099401MD1610041+9999OD139900701999REMSYN05801020 46/// /0907 11008 21019 39940 49950 56004 333 91107=
0089010200999992015010813004+76483+016550FM-12+001099999V0200901N007019999999N999999999-00071-00171099481ADDMA1999999099371MD1710081+9999REMSYN04801020 46/// /0907 11007 21017 39937 49948 57008=
0089010200999992015010814004+76483+016550FM-12+001099999V0200901N007019999999N999999999-00071-00181099471ADDMA1999999099361MD1710081+9999REMSYN04801020 46/// /0907 11007 21018 39936 49947 57008=
0089010200999992015010815004+76483+016550FM-12+001099999V0201001N008019999999N999999999-00021-00221099451ADDMA1999999099341MD1710061+9999REMSYN04801020 46/// /1008 11002 21022 39934 49945 57006=
0089010200999992015010816004+76483+016550FM-12+001099999V0200901N010019999999N999999999+00021-00201099351ADDMA1999999099251MD1610131+9999REMSYN04801020 46/// /0910 10002 21020 39925 49935 56013=
0089010200999992015010817004+76483+016550FM-12+001099999V0200801N011019999999N999999999-00021-00081099261ADDMA1999999099161MD1610201+9999REMSYN04801020 46/// /0811 11002 21008 39916 49926 56020=
0132010200999992015010818004+76483+016550FM-12+001099999V0201001N012019999999N999999999+00051-00081099171ADDKA1120M+00081MA1999999099061MD1710281+9999OD139901401999REMSYN06401020 46/// /1012 10005 21008 39906 49917 57028 333 10008 91114=
0089010200999992015010819004+76483+016550FM-12+001099999V0200901N013019999999N999999999+00061-00101099081ADDMA1999999098981MD1710271+9999REMSYN04801020 46/// /0913 10006 21010 39898 49908 57027=
0089010200999992015010820004+76483+016550FM-12+001099999V0201001N013019999999N999999999+00071-00091099071ADDMA1999999098961MD1810201+9999REMSYN04801020 46/// /1013 10007 21009 39896 49907 58020=
0089010200999992015010821004+76483+016550FM-12+001099999V0201101N014019999999N999999999+00071-00071099021ADDMA1999999098911MD1810151+9999REMSYN04801020 46/// /1114 10007 21007 39891 49902 58015=
0089010200999992015010822004+76483+016550FM-12+001099999V0201001N013019999999N999999999+00061-00051099001ADDMA1999999098891MD1710081+9999REMSYN04801020 46/// /1013 10006 21005 39889 49900 57008=
0089010200999992015010823004+76483+016550FM-12+001099999V0201101N013019999999N999999999+00081-00081099011ADDMA1999999098911MD1810051+9999REMSYN04801020 46/// /1113 10008 21008 39891 49901 58005=
0113010200999992015010900004+76483+016550FM-12+001099999V0201201N013019999999N999999999+00081-00081099041ADDMA1999999098931MD1990021+9999OD139901601999REMSYN05801020 46/// /1213 10008 21008 39893 49904 50002 333 91116=
0089010200999992015010901004+76483+016550FM-12+001099999V0201201N012019999999N999999999+00091-00071099041ADDMA1999999098941MD1210051+9999REMSYN04801020 46/// /1212 10009 21007 39894 49904 52005=
0089010200999992015010902004+76483+016550FM-12+001099999V0201201N012019999999N999999999+00071-00091099071ADDMA1999999098971MD1210061+9999REMSYN04801020 46/// /1212 10007 21009 39897 49907 52006=
0089010200999992015010903004+76483+016550FM-12+001099999V0201101N010019999999N999999999+00051-00091099101ADDMA1999999099001MD1210061+9999REMSYN04801020 46/// /1110 10005 21009 39900 49910 52006=
0089010200999992015010904004+76483+016550FM-12+001099999V0201201N011019999999N999999999+00071-00091099151ADDMA1999999099041MD1210101+9999REMSYN04801020 46/// /1211 10007 21009 39904 49915 52010=
0089010200999992015010905004+76483+016550FM-12+001099999V0201101N011019999999N999999999+00061-00101099211ADDMA1999999099101MD1210131+9999REMSYN04801020 46/// /1111 10006 21010 39910 49921 52013=
0132010200999992015010906004+76483+016550FM-12+001099999V0201201N010019999999N999999999+00061-00101099281ADDKA1240N+00031MA1999999099181MD1210181+9999OD139901501999REMSYN06401020 46/// /1210 10006 21010 39918 49928 52018 333 20003 91115=
0089010200999992015010907004+76483+016550FM-12+001099999V0201201N010019999999N999999999+00051-00121099341ADDMA1999999099241MD1210191+9999REMSYN04801020 46/// /1210 10005 21012 39924 49934 52019=
0089010200999992015010908004+76483+016550FM-12+001099999V0201101N009019999999N999999999+00041-00101099391ADDMA1999999099281MD1210181+9999REMSYN04801020 46/// /1109 10004 21010 39928 49939 52018=
0089010200999992015010909004+76483+016550FM-12+001099999V0201101N009019999999N999999999+00031-00101099451ADDMA1999999099351MD1210171+9999REMSYN04801020 46/// /1109 10003 21010 39935 49945 52017=
0089010200999992015010910004+76483+016550FM-12+001099999V0201001N009019999999N999999999+00031-00071099531ADDMA1999999099431MD1210191+9999REMSYN04801020 46/// /1009 10003 21007 39943 49953 52019=
0089010200999992015010911004+76483+016550FM-12+001099999V0201001N010019999999N999999999+00031-00071099581ADDMA1999999099471MD1210191+9999REMSYN04801020 46/// /1010 10003 21007 39947 49958 52019=
0113010200999992015010912004+76483+016550FM-12+001099999V0201101N009019999999N999999999+00041-00071099661ADDMA1999999099551MD1210201+9999OD139901201999REMSYN05801020 46/// /1109 10004 21007 39955 49966 52020 333 91112=
0089010200999992015010913004+76483+016550FM-12+001099999V0201101N010019999999N999999999+00031-00041099711ADDMA1999999099601MD1210181+9999REMSYN04801020 46/// /1110 10003 21004 39960 49971 52018=
0089010200999992015010914004+76483+016550FM-12+001099999V0201201N011019999999N999999999+00061-00071099761ADDMA1999999099661MD1210181+9999REMSYN04801020 46/// /1211 10006 21007 39966 49976 52018=
0089010200999992015010915004+76483+016550FM-12+001099999V0201201N011019999999N999999999+00061-00131099811ADDMA1999999099701MD1210151+9999REMSYN04801020 46/// /1211 10006 21013 39970 49981 52015=
0089010200999992015010916004+76483+016550FM-12+001099999V0201301N011019999999N999999999+00051-00201099871ADDMA1999999099771MD1210161+9999REMSYN04801020 46/// /1311 10005 21020 39977 49987 52016=
0089010200999992015010917004+76483+016550FM-12+001099999V0201301N012019999999N999999999+00041-00261099931ADDMA1999999099821MD1210171+9999REMSYN04801020 46/// /1312 10004 21026 39982 49993 52017=
0132010200999992015010918004+76483+016550FM-12+001099999V0201201N010019999999N999999999+00031-00271100021ADDKA1120M+00061MA1999999099921MD1110211+9999OD139901401999REMSYN06401020 46/// /1210 10003 21027 39992 40002 51021 333 10006 91114=
0089010200999992015010919004+76483+016550FM-12+001099999V0201301N011019999999N999999999+00021-00371100071ADDMA1999999099971MD1210201+9999REMSYN04801020 46/// /1311 10002 21037 39997 40007 52020=
0089010200999992015010920004+76483+016550FM-12+001099999V0201301N011019999999N999999999-00011-00491100151ADDMA1999999100041MD1210221+9999REMSYN04801020 46/// /1311 11001 21049 30004 40015 52022=
0089010200999992015010921004+76483+016550FM-12+001099999V0201301N009019999999N999999999-00011-00391100201ADDMA1999999100091MD1210181+9999REMSYN04801020 46/// /1309 11001 21039 30009 40020 52018=
0089010200999992015010922004+76483+016550FM-12+001099999V0201301N010019999999N999999999+00031-00531100261ADDMA1999999100151MD1210181+9999REMSYN04801020 46/// /1310 10003 21053 30015 40026 52018=
0089010200999992015010923004+76483+016550FM-12+001099999V0201301N009019999999N999999999+00011-00491100301ADDMA1999999100201MD1210151+9999REMSYN04801020 46/// /1309 10001 21049 30020 40030 52015=
0113010200999992015011000004+76483+016550FM-12+001099999V0201301N008019999999N999999999-00031-00371100361ADDMA1999999100251MD1210161+9999OD139901401999REMSYN05801020 46/// /1308 11003 21037 30025 40036 52016 333 91114=
0089010200999992015011001004+76483+016550FM-12+001099999V0201301N009019999999N999999999-00011-00421100381ADDMA1999999100271MD1210121+9999REMSYN04801020 46/// /1309 11001 21042 30027 40038 52012=
0089010200999992015011002004+76483+016550FM-12+001099999V0201401N006019999999N999999999-00051-00391100411ADDMA1999999100301MD1210101+9999REMSYN04801020 46/// /1406 11005 21039 30030 40041 52010=
0089010200999992015011003004+76483+016550FM-12+001099999V0201301N007019999999N999999999-00031-00441100421ADDMA1999999100311MD1210061+9999REMSYN04801020 46/// /1307 11003 21044 30031 40042 52006=
0108010200999992015011005004+76483+016550FM-12+001099999V0201101N007019999999N999999999-00051-00301100421ADDMA1999999100311MD1290019+9999REMSYN04801020 46/// /1107 11005 21030 30031 40042 54001=EQDQ01.1    3APC3  
0108010200999992015011006004+76483+016550FM-12+001099999V0201101N006019999999N999999999-00061-00331100441ADDMA1999999100341MD1290029+9999REMSYN04801020 46/// /1106 11006 21033 30034 40044 54003=EQDQ01.3    3APC3  
0094010200999992015011007004+76483+016550FM-12+001099999V0201101N006019999999N999999999-00071-00321100451ADDMA1999999100341REMSYN04801020 46/// /1106 11007 21032 30034 40045 54003=EQDQ014     3APCTEN
0089010200999992015011008004+76483+016550FM-12+001099999V0201001N006019999999N999999999-00171-00361100451ADDMA1999999100351MD1210041+9999REMSYN04801020 46/// /1006 11017 21036 30035 40045 52004=
0089010200999992015011009004+76483+016550FM-12+001099999V0201001N006019999999N999999999-00201-00421100441ADDMA1999999100341MD1410001+9999REMSYN04801020 46/// /1006 11020 21042 30034 40044 54000=
0089010200999992015011010004+76483+016550FM-12+001099999V0200901N005019999999N999999999-00211-00431100441ADDMA1999999100341MD1410001+9999REMSYN04801020 46/// /0905 11021 21043 30034 40044 54000=
0108010200999992015011011004+76483+016550FM-12+001099999V0200901N005019999999N999999999-00221-00451100431ADDMA1999999100321MD1790029+9999REMSYN04801020 46/// /0905 11022 21045 30032 40043 54002=EQDQ01.2    3APC3  
0132010200999992015011012004+76483+016550FM-12+001099999V0200701N005019999999N999999999-00391-00571100421ADDMA1999999100311MD1790029+9999OD139900701999REMSYN05801020 46/// /0705 11039 21057 30031 40042 54002 333 91107=EQDQ01.2    3APC3  
0089010200999992015011013004+76483+016550FM-12+001099999V0200701N005019999999N999999999-00521-00741100401ADDMA1999999100291MD1710051+9999REMSYN04801020 46/// /0705 11052 21074 30029 40040 57005=
0089010200999992015011014004+76483+016550FM-12+001099999V0200501N005019999999N999999999-00561-00681100381ADDMA1999999100271MD1710051+9999REMSYN04801020 46/// /0505 11056 21068 30027 40038 57005=
0089010200999992015011015004+76483+016550FM-12+001099999V0200501N006019999999N999999999-00431-00571100361ADDMA1999999100261MD1710061+9999REMSYN04801020 46/// /0506 11043 21057 30026 40036 57006=
0089010200999992015011016004+76483+016550FM-12+001099999V0200401N006019999999N999999999-00431-00521100361ADDMA1999999100251MD1710041+9999REMSYN04801020 46/// /0406 11043 21052 30025 40036 57004=
0108010200999992015011017004+76483+016550FM-12+001099999V0200501N005019999999N999999999-00381-00441100361ADDMA1999999100251MD1790029+9999REMSYN04801020 46/// /0505 11038 21044 30025 40036 54002=EQDQ01.2    3APC3  
0132010200999992015011018004+76483+016550FM-12+001099999V0200401N006019999999N999999999-00361-00421100361ADDKA1120M-00061MA1999999100251MD1410001+9999OD139900801999REMSYN06401020 46/// /0406 11036 21042 30025 40036 54000 333 11006 91108=
0108010200999992015011019004+76483+016550FM-12+001099999V0200501N006019999999N999999999-00351-00411100371ADDMA1999999100261MD1290019+9999REMSYN04801020 46/// /0506 11035 21041 30026 40037 54001=EQDQ01.1    3APC3  
0089010200999992015011020004+76483+016550FM-12+001099999V0200401N007019999999N999999999-00321-00371100361ADDMA1999999100251MD1410001+9999REMSYN04801020 46/// /0407 11032 21037 30025 40036 54000=
0108010200999992015011021004+76483+016550FM-12+001099999V0200401N007019999999N999999999-00311-00351100381ADDMA1999999100271MD1290029+9999REMSYN04801020 46/// /0407 11031 21035 30027 40038 54002=EQDQ01.2    3APC3  
0108010200999992015011022004+76483+016550FM-12+001099999V0200501N005019999999N999999999-00341-00381100381ADDMA1999999100271MD1290019+9999REMSYN04801020 46/// /0505 11034 21038 30027 40038 54002=EQDQ01.2    3APC3  
0089010200999992015011023004+76483+016550FM-12+001099999V0200401N007019999999N999999999-00321-00361100371ADDMA1999999100261MD1510011+9999REMSYN04801020 46/// /0407 11032 21036 30026 40037 55001=
0113010200999992015011100004+76483+016550FM-12+001099999V0200401N007019999999N999999999-00351-00421100381ADDMA1999999100271MD1410001+9999OD139900901999REMSYN05801020 46/// /0407 11035 21042 30027 40038 54000 333 91109=
0108010200999992015011101004+76483+016550FM-12+001099999V0200401N010019999999N999999999-00431-00551100371ADDMA1999999100271MD1790019+9999REMSYN04801020 46/// /0410 11043 21055 30027 40037 54001=EQDQ01.1    3APC3  
0108010200999992015011102004+76483+016550FM-12+001099999V0200401N011019999999N999999999-00471-00581100391ADDMA1999999100281MD1290029+9999REMSYN04801020 46/// /0411 11047 21058 30028 40039 54002=EQDQ01.2    3APC3  
0089010200999992015011103004+76483+016550FM-12+001099999V0200401N011019999999N999999999-00471-00571100381ADDMA1999999100271MD1410001+9999REMSYN04801020 46/// /0411 11047 21057 30027 40038 54000=
0089010200999992015011104004+76483+016550FM-12+001099999V0200401N012019999999N999999999-00471-00551100381ADDMA1999999100271MD1410001+9999REMSYN04801020 46/// /0412 11047 21055 30027 40038 54000=
0108010200999992015011105004+76483+016550FM-12+001099999V0200401N011019999999N999999999-00461-00571100401ADDMA1999999100291MD1290019+9999REMSYN04801020 46/// /0411 11046 21057 30029 40040 54001=EQDQ01.1    3APC3  
0132010200999992015011106004+76483+016550FM-12+001099999V0200401N011019999999N999999999-00481-00561100421ADDKA1240N-00491MA1999999100311MD1210031+9999OD139901301999REMSYN06401020 46/// /0411 11048 21056 30031 40042 52003 333 21049 91113=
0089010200999992015011107004+76483+016550FM-12+001099999V0200401N009019999999N999999999-00491-00571100461ADDMA1999999100351MD1210081+9999REMSYN04801020 46/// /0409 11049 21057 30035 40046 52008=
0089010200999992015011108004+76483+016550FM-12+001099999V0200501N008019999999N999999999-00501-00571100501ADDMA1999999100391MD1210101+9999REMSYN04801020 46/// /0508 11050 21057 30039 40050 52010=
0089010200999992015011109004+76483+016550FM-12+001099999V0200501N008019999999N999999999-00491-00571100521ADDMA1999999100411MD1210111+9999REMSYN04801020 46/// /0508 11049 21057 30041 40052 52011=
0089010200999992015011110004+76483+016550FM-12+001099999V0200401N009019999999N999999999-00461-00531100531ADDMA1999999100421MD1310071+9999REMSYN04801020 46/// /0409 11046 21053 30042 40053 53007=
0089010200999992015011111004+76483+016550FM-12+001099999V0200401N010019999999N999999999-00401-00471100571ADDMA1999999100461MD1210071+9999REMSYN04801020 46/// /0410 11040 21047 30046 40057 52007=
0113010200999992015011112004+76483+016550FM-12+001099999V0200401N010019999999N999999999-00381-00431100591ADDMA1999999100481MD1210061+9999OD139901301999REMSYN05801020 46/// /0410 11038 21043 30048 40059 52006 333 91113=
0089010200999992015011113004+76483+016550FM-12+001099999V0200401N008019999999N999999999-00391-00461100611ADDMA1999999100511MD1210081+9999REMSYN04801020 46/// /0408 11039 21046 30051 40061 52008=
0089010200999992015011114004+76483+016550FM-12+001099999V0200501N006019999999N999999999-00571-00671100641ADDMA1999999100531MD1210071+9999REMSYN04801020 46/// /0506 11057 21067 30053 40064 52007=
0089010200999992015011115004+76483+016550FM-12+001099999V0200701N005019999999N999999999-00441-00621100661ADDMA1999999100551MD1210081+9999REMSYN04801020 46/// /0705 11044 21062 30055 40066 52008=
0089010200999992015011116004+76483+016550FM-12+001099999V0201101N009019999999N999999999-00211-00361100691ADDMA1999999100591MD1210081+9999REMSYN04801020 46/// /1109 11021 21036 30059 40069 52008=
0089010200999992015011117004+76483+016550FM-12+001099999V0200901N010019999999N999999999-00241-00531100721ADDMA1999999100611MD1210081+9999REMSYN04801020 46/// /0910 11024 21053 30061 40072 52008=
0132010200999992015011118004+76483+016550FM-12+001099999V0200601N007019999999N999999999-00451-00701100791ADDKA1120M-00191MA1999999100681MD1110131+9999OD139901201999REMSYN06401020 46/// /0607 11045 21070 30068 40079 51013 333 11019 91112=
0089010200999992015011119004+76483+016550FM-12+001099999V0200301N009019999999N999999999-00441-00591100841ADDMA1999999100731MD1210151+9999REMSYN04801020 46/// /0309 11044 21059 30073 40084 52015=
0089010200999992015011121004+76483+016550FM-12+001099999V0200401N012019999999N999999999-00541-00691100851ADDMA1999999100741MD1210061+9999REMSYN04801020 46/// /0412 11054 21069 30074 40085 52006=
0108010200999992015011122004+76483+016550FM-12+001099999V0200501N012019999999N999999999-00591-00691100861ADDMA1999999100751MD1290029+9999REMSYN04801020 46/// /0512 11059 21069 30075 40086 54002=EQDQ01.2    3APC3  
0089010200999992015011123004+76483+016550FM-12+001099999V0200401N012019999999N999999999-00621-00741100871ADDMA1999999100761MD1210041+9999REMSYN04801020 46/// /0412 11062 21074 30076 40087 52004=
0108010200999992015011200004+76483+016550FM-12+001099999V0200401N010019999999N999999999-00611-00721100871ADDMA1999999100761MD1290029+9999REMSYN04801020 46/// /0410 11061 21072 30076 40087 54002=EQDQ01.2    3APC3  
0108010200999992015011201004+76483+016550FM-12+001099999V0200401N011019999999N999999999-00631-00761100871ADDMA1999999100761MD1290019+9999REMSYN04801020 46/// /0411 11063 21076 30076 40087 54001=EQDQ01.1    3APC3  
0089010200999992015011202004+76483+016550FM-12+001099999V0200401N010019999999N999999999-00661-00781100871ADDMA1999999100761MD1410001+9999REMSYN04801020 46/// /0410 11066 21078 30076 40087 54000=
0108010200999992015011203004+76483+016550FM-12+001099999V0200401N010019999999N999999999-00671-00751100851ADDMA1999999100741MD1790029+9999REMSYN04801020 46/// /0410 11067 21075 30074 40085 54003=EQDQ01.3    3APC3  
0089010200999992015011204004+76483+016550FM-12+001099999V0200401N010019999999N999999999-00671-00751100831ADDMA1999999100721MD1710041+9999REMSYN04801020 46/// /0410 11067 21075 30072 40083 57004=
0089010200999992015011205004+76483+016550FM-12+001099999V0200401N009019999999N999999999-00651-00751100801ADDMA1999999100691MD1710071+9999REMSYN04801020 46/// /0409 11065 21075 30069 40080 57007=
0113010200999992015011206004+76483+016550FM-12+001099999V0200901N007019999999N999999999-00341-00711100791ADDMA1999999100681MD1710061+9999OD139901201999REMSYN05801020 46/// /0907 11034 21071 30068 40079 57006 333 91112=
0089010200999992015011207004+76483+016550FM-12+001099999V0200501N007019999999N999999999-00571-00741100801ADDMA1999999100691MD1810031+9999REMSYN04801020 46/// /0507 11057 21074 30069 40080 58003=
0089010200999992015011208004+76483+016550FM-12+001099999V0200801N009019999999N999999999-00461-00581100801ADDMA1999999100691MD1410001+9999REMSYN04801020 46/// /0809 11046 21058 30069 40080 54000=
0089010200999992015011209004+76483+016550FM-12+001099999V0200601N009019999999N999999999-00431-00581100761ADDMA1999999100661MD1510021+9999REMSYN04801020 46/// /0609 11043 21058 30066 40076 55002=
0089010200999992015011210004+76483+016550FM-12+001099999V0200401N009019999999N999999999-00621-00751100761ADDMA1999999100651MD1710041+9999REMSYN04801020 46/// /0409 11062 21075 30065 40076 57004=
0089010200999992015011211004+76483+016550FM-12+001099999V0200401N010019999999N999999999-00641-00751100721ADDMA1999999100611MD1710081+9999REMSYN04801020 46/// /0410 11064 21075 30061 40072 57008=
0113010200999992015011212004+76483+016550FM-12+001099999V0200401N010019999999N999999999-00631-00751100701ADDMA1999999100591MD1710071+9999OD139901201999REMSYN05801020 46/// /0410 11063 21075 30059 40070 57007 333 91112=
0089010200999992015011213004+76483+016550FM-12+001099999V0200401N009019999999N999999999-00641-00791100681ADDMA1999999100571MD1710081+9999REMSYN04801020 46/// /0409 11064 21079 30057 40068 57008=
0089010200999992015011214004+76483+016550FM-12+001099999V0200401N010019999999N999999999-00641-00791100651ADDMA1999999100541MD1710071+9999REMSYN04801020 46/// /0410 11064 21079 30054 40065 57007=
0089010200999992015011215004+76483+016550FM-12+001099999V0200401N009019999999N999999999-00621-00811100601ADDMA1999999100491MD1710091+9999REMSYN04801020 46/// /0409 11062 21081 30049 40060 57009=
0089010200999992015011216004+76483+016550FM-12+001099999V0200401N009019999999N999999999-00641-00831100581ADDMA1999999100471MD1710101+9999REMSYN04801020 46/// /0409 11064 21083 30047 40058 57010=
0089010200999992015011217004+76483+016550FM-12+001099999V0200401N010019999999N999999999-00661-00831100541ADDMA1999999100441MD1710101+9999REMSYN04801020 46/// /0410 11066 21083 30044 40054 57010=
0132010200999992015011218004+76483+016550FM-12+001099999V0200401N009019999999N999999999-00671-00861100541ADDKA1120M-00331MA1999999100431MD1710061+9999OD139901101999REMSYN06401020 46/// /0409 11067 21086 30043 40054 57006 333 11033 91111=
0089010200999992015011219004+76483+016550FM-12+001099999V0200401N010019999999N999999999-00691-00881100501ADDMA1999999100391MD1710081+9999REMSYN04801020 46/// /0410 11069 21088 30039 40050 57008=
0089010200999992015011220004+76483+016550FM-12+001099999V0200401N010019999999N999999999-00711-00941100471ADDMA1999999100361MD1710071+9999REMSYN04801020 46/// /0410 11071 21094 30036 40047 57007=
0089010200999992015011221004+76483+016550FM-12+001099999V0200401N009019999999N999999999-00691-00961100461ADDMA1999999100351MD1810081+9999REMSYN04801020 46/// /0409 11069 21096 30035 40046 58008=
0089010200999992015011222004+76483+016550FM-12+001099999V0200301N010019999999N999999999-00761-01001100401ADDMA1999999100291MD1610101+9999REMSYN04801020 46/// /0310 11076 21100 30029 40040 56010=
0089010200999992015011223004+76483+016550FM-12+001099999V0200301N010019999999N999999999-00811-01061100381ADDMA1999999100271MD1710091+9999REMSYN04801020 46/// /0310 11081 21106 30027 40038 57009=
0113010200999992015011300004+76483+016550FM-12+001099999V0200301N009019999999N999999999-00741-01021100311ADDMA1999999100201MD1710151+9999OD139901201999REMSYN05801020 46/// /0309 11074 21102 30020 40031 57015 333 91112=
0089010200999992015011301004+76483+016550FM-12+001099999V0200401N007019999999N999999999-00871-01141100301ADDMA1999999100191MD1710101+9999REMSYN04801020 46/// /0407 11087 21114 30019 40030 57010=
0089010200999992015011302004+76483+016550FM-12+001099999V0200401N006019999999N999999999-01121-01351100271ADDMA1999999100161MD1810111+9999REMSYN04801020 46/// /0406 11112 21135 30016 40027 58011=
0089010200999992015011303004+76483+016550FM-12+001099999V0200601N004019999999N999999999-01141-01331100171ADDMA1999999100061MD1610141+9999REMSYN04801020 46/// /0604 11114 21133 30006 40017 56014=
0089010200999992015011304004+76483+016550FM-12+001099999V0200401N007019999999N999999999-00791-01191100091ADDMA1999999099981MD1610221+9999REMSYN04801020 46/// /0407 11079 21119 39998 40009 56022=
0089010200999992015011305004+76483+016550FM-12+001099999V0200301N008019999999N999999999-00751-00951100051ADDMA1999999099941MD1810221+9999REMSYN04801020 46/// /0308 11075 21095 39994 40005 58022=
0132010200999992015011306004+76483+016550FM-12+001099999V0200401N010019999999N999999999-00731-00861099981ADDKA1240N-01281MA1999999099881MD1710181+9999OD139901201999REMSYN06401020 46/// /0410 11073 21086 39988 49998 57018 333 21128 91112=
0089010200999992015011307004+76483+016550FM-12+001099999V0200301N011019999999N999999999-00761-00871099931ADDMA1999999099821MD1710151+9999REMSYN04801020 46/// /0311 11076 21087 39982 49993 57015=
0089010200999992015011308004+76483+016550FM-12+001099999V0200301N014019999999N999999999-00741-00851099921ADDMA1999999099811MD1810131+9999REMSYN04801020 46/// /0314 11074 21085 39981 49992 58013=
0089010200999992015011309004+76483+016550FM-12+001099999V0200301N015019999999N999999999-00851-01031099901ADDMA1999999099791MD1810081+9999REMSYN04801020 46/// /0315 11085 21103 39979 49990 58008=
0089010200999992015011310004+76483+016550FM-12+001099999V0200301N017019999999N999999999-00921-01051099871ADDMA1999999099761MD1710061+9999REMSYN04801020 46/// /0317 11092 21105 39976 49987 57006=
0089010200999992015011311004+76483+016550FM-12+001099999V0200401N015019999999N999999999-01021-01181099891ADDMA1999999099781MD1990021+9999REMSYN04801020 46/// /0415 11102 21118 39978 49989 50002=
0113010200999992015011312004+76483+016550FM-12+001099999V0200401N017019999999N999999999-01061-01251099861ADDMA1999999099751MD1710041+9999OD139901901999REMSYN05801020 46/// /0417 11106 21125 39975 49986 57004 333 91119=
0089010200999992015011313004+76483+016550FM-12+001099999V0200401N018019999999N999999999-01011-01151099821ADDMA1999999099711MD1610051+9999REMSYN04801020 46/// /0418 11101 21115 39971 49982 56005=
0089010200999992015011314004+76483+016550FM-12+001099999V0200401N019019999999N999999999-00981-01121099771ADDMA1999999099661MD1710131+9999REMSYN04801020 46/// /0419 11098 21112 39966 49977 57013=
0089010200999992015011315004+76483+016550FM-12+001099999V0200401N020019999999N999999999-00881-01001099761ADDMA1999999099651MD1810091+9999REMSYN04801020 46/// /0420 11088 21100 39965 49976 58009=
0089010200999992015011316004+76483+016550FM-12+001099999V0200301N019019999999N999999999-00811-00941099771ADDMA1999999099661MD1810051+9999REMSYN04801020 46/// /0319 11081 21094 39966 49977 58005=
0089010200999992015011317004+76483+016550FM-12+001099999V0200301N019019999999N999999999-00731-00831099801ADDMA1999999099691MD1990031+9999REMSYN04801020 46/// /0319 11073 21083 39969 49980 50003=
0132010200999992015011318004+76483+016550FM-12+001099999V0200301N020019999999N999999999-00791-00891099771ADDKA1120M-00721MA1999999099661MD1510001+9999OD139902301999REMSYN06401020 46/// /0320 11079 21089 39966 49977 55000 333 11072 91123=
0089010200999992015011319004+76483+016550FM-12+001099999V0200301N019019999999N999999999-00841-00931099811ADDMA1999999099701MD1210041+9999REMSYN04801020 46/// /0319 11084 21093 39970 49981 52004=
0089010200999992015011320004+76483+016550FM-12+001099999V0200401N021019999999N999999999-00961-01081099751ADDMA1999999099641MD1610051+9999REMSYN04801020 46/// /0421 11096 21108 39964 49975 56005=
0108010200999992015011321004+76483+016550FM-12+001099999V0200401N021019999999N999999999-01021-01141099781ADDMA1999999099671MD1290019+9999REMSYN04801020 46/// /0421 11102 21114 39967 49978 54002=EQDQ01.2    3APC3  
0089010200999992015011322004+76483+016550FM-12+001099999V0200401N021019999999N999999999-01061-01191099721ADDMA1999999099611MD1710091+9999REMSYN04801020 46/// /0421 11106 21119 39961 49972 57009=
0108010200999992015011323004+76483+016550FM-12+001099999V0200401N020019999999N999999999-01081-01221099771ADDMA1999999099661MD1290029+9999REMSYN04801020 46/// /0420 11108 21122 39966 49977 54002=EQDQ01.2    3APC3  
0113010200999992015011400004+76483+016550FM-12+001099999V0200301N020019999999N999999999-01021-01151099751ADDMA1999999099641MD1810031+9999OD139902401999REMSYN05801020 46/// /0320 11102 21115 39964 49975 58003 333 91124=
0089010200999992015011401004+76483+016550FM-12+001099999V0200301N020019999999N999999999-00941-01081099721ADDMA1999999099611MD1510001+9999REMSYN04801020 46/// /0320 11094 21108 39961 49972 55000=
0089010200999992015011402004+76483+016550FM-12+001099999V0200401N020019999999N999999999-00881-00991099651ADDMA1999999099541MD1610111+9999REMSYN04801020 46/// /0420 11088 21099 39954 49965 56011=
0089010200999992015011403004+76483+016550FM-12+001099999V0200401N019019999999N999999999-00771-01001099711ADDMA1999999099601MD1810041+9999REMSYN04801020 46/// /0419 11077 21100 39960 49971 58004=
0089010200999992015011404004+76483+016550FM-12+001099999V0200401N019019999999N999999999-00701-00951099701ADDMA1999999099591MD1990021+9999REMSYN04801020 46/// /0419 11070 21095 39959 49970 50002=
0089010200999992015011405004+76483+016550FM-12+001099999V0200401N018019999999N999999999-00841-00971099691ADDMA1999999099581MD1310041+9999REMSYN04801020 46/// /0418 11084 21097 39958 49969 53004=
0151010200999992015011406004+76483+016550FM-12+001099999V0200401N020019999999N999999999-00921-01081099691ADDKA1240N-01091MA1999999099581MD1790029+9999OD139902401999REMSYN06401020 46/// /0420 11092 21108 39958 49969 54002 333 21109 91124=EQDQ01.2    3APC3  
0089010200999992015011407004+76483+016550FM-12+001099999V0200301N021019999999N999999999-01021-01181099701ADDMA1999999099591MD1410001+9999REMSYN04801020 46/// /0321 11102 21118 39959 49970 54000=
0089010200999992015011408004+76483+016550FM-12+001099999V0200301N023019999999N999999999-01111-01361099641ADDMA1999999099531MD1610051+9999REMSYN04801020 46/// /0323 11111 21136 39953 49964 56005=
0089010200999992015011409004+76483+016550FM-12+001099999V0200401N022019999999N999999999-01201-01351099631ADDMA1999999099521MD1710061+9999REMSYN04801020 46/// /0422 11120 21135 39952 49963 57006=
0089010200999992015011410004+76483+016550FM-12+001099999V0200401N024019999999N999999999-01231-01381099621ADDMA1999999099511MD1810081+9999REMSYN04801020 46/// /0424 11123 21138 39951 49962 58008=
0108010200999992015011411004+76483+016550FM-12+001099999V0200401N022019999999N999999999-01241-01391099631ADDMA1999999099521MD1790019+9999REMSYN04801020 46/// /0422 11124 21139 39952 49963 54001=EQDQ01.1    3APC3  
0113010200999992015011412004+76483+016550FM-12+001099999V0200401N023019999999N999999999-01221-01371099661ADDMA1999999099551MD1990031+9999OD139902701999REMSYN05801020 46/// /0423 11122 21137 39955 49966 50003 333 91127=
0108010200999992015011413004+76483+016550FM-12+001099999V0200401N024019999999N999999999-01231-01381099641ADDMA1999999099531MD1290029+9999REMSYN04801020 46/// /0424 11123 21138 39953 49964 54002=EQDQ01.2    3APC3  
0089010200999992015011414004+76483+016550FM-12+001099999V0200301N023019999999N999999999-01211-01381099711ADDMA1999999099601MD1110081+9999REMSYN04801020 46/// /0323 11121 21138 39960 49971 51008=
0089010200999992015011415004+76483+016550FM-12+001099999V0200401N023019999999N999999999-01191-01331099661ADDMA1999999099551MD1410001+9999REMSYN04801020 46/// /0423 11119 21133 39955 49966 54000=
0089010200999992015011416004+76483+016550FM-12+001099999V0200401N024019999999N999999999-01221-01401099741ADDMA1999999099631MD1210101+9999REMSYN04801020 46/// /0424 11122 21140 39963 49974 52010=
0089010200999992015011417004+76483+016550FM-12+001099999V0200401N024019999999N999999999-01251-01401099781ADDMA1999999099671MD1990081+9999REMSYN04801020 46/// /0424 11125 21140 39967 49978 50008=
0132010200999992015011418004+76483+016550FM-12+001099999V0200401N024019999999N999999999-01241-01421099831ADDKA1120M-00921MA1999999099721MD1310171+9999OD139902801999REMSYN06401020 46/// /0424 11124 21142 39972 49983 53017 333 11092 91128=
0089010200999992015011419004+76483+016550FM-12+001099999V0200401N024019999999N999999999-01241-01431099851ADDMA1999999099741MD1210111+9999REMSYN04801020 46/// /0424 11124 21143 39974 49985 52011=
0089010200999992015011420004+76483+016550FM-12+001099999V0200401N023019999999N999999999-01261-01451099921ADDMA1999999099811MD1210141+9999REMSYN04801020 46/// /0423 11126 21145 39981 49992 52014=
0089010200999992015011421004+76483+016550FM-12+001099999V0200401N023019999999N999999999-01281-01501099971ADDMA1999999099861MD1210151+9999REMSYN04801020 46/// /0423 11128 21150 39986 49997 52015=
0089010200999992015011422004+76483+016550FM-12+001099999V0200401N022019999999N999999999-01331-01561100041ADDMA1999999099931MD1210191+9999REMSYN04801020 46/// /0422 11133 21156 39993 40004 52019=
0089010200999992015011423004+76483+016550FM-12+001099999V0200401N021019999999N999999999-01191-01411100061ADDMA1999999099951MD1310141+9999REMSYN04801020 46/// /0421 11119 21141 39995 40006 53014=
0113010200999992015011500004+76483+016550FM-12+001099999V0200401N020019999999N999999999-01301-01541100121ADDMA1999999100001MD1210141+9999OD139902701999REMSYN05801020 46/// /0420 11130 21154 30000 40012 52014 333 91127=
0089010200999992015011501004+76483+016550FM-12+001099999V0200501N022019999999N999999999-01301-01571100071ADDMA1999999099961MD1510031+9999REMSYN04801020 46/// /0522 11130 21157 39996 40007 55003=
0089010200999992015011502004+76483+016550FM-12+001099999V0200401N018019999999N999999999-01281-01571100201ADDMA1999999100091MD1110141+9999REMSYN04801020 46/// /0418 11128 21157 30009 40020 51014=
0089010200999992015011503004+76483+016550FM-12+001099999V0200301N017019999999N999999999-01261-01561100261ADDMA1999999100151MD1990141+9999REMSYN04801020 46/// /0317 11126 21156 30015 40026 50014=
0089010200999992015011504004+76483+016550FM-12+001099999V0200301N017019999999N999999999-01151-01381100251ADDMA1999999100141MD1310181+9999REMSYN04801020 46/// /0317 11115 21138 30014 40025 53018=
0089010200999992015011505004+76483+016550FM-12+001099999V0200301N015019999999N999999999-01181-01371100231ADDMA1999999100121MD1510031+9999REMSYN04801020 46/// /0315 11118 21137 30012 40023 55003=
0151010200999992015011506004+76483+016550FM-12+001099999V0200401N015019999999N999999999-01161-01341100251ADDKA1240N-01341MA1999999100141MD1790019+9999OD139902401999REMSYN06401020 46/// /0415 11116 21134 30014 40025 54001 333 21134 91124=EQDQ01.1    3APC3  
0089010200999992015011507004+76483+016550FM-12+001099999V0200501N016019999999N999999999-01121-01291100221ADDMA1999999100111MD1710031+9999REMSYN04801020 46/// /0516 11112 21129 30011 40022 57003=
0108010200999992015011508004+76483+016550FM-12+001099999V0200501N016019999999N999999999-01261-01461100251ADDMA1999999100141MD1290029+9999REMSYN04801020 46/// /0516 11126 21146 30014 40025 54003=EQDQ01.3    3APC3  
0089010200999992015011509004+76483+016550FM-12+001099999V0200401N015019999999N999999999-01201-01411100271ADDMA1999999100161MD1990021+9999REMSYN04801020 46/// /0415 11120 21141 30016 40027 50002=
0089010200999992015011510004+76483+016550FM-12+001099999V0200401N014019999999N999999999-01221-01421100301ADDMA1999999100191MD1210081+9999REMSYN04801020 46/// /0414 11122 21142 30019 40030 52008=
0089010200999992015011511004+76483+016550FM-12+001099999V0200401N013019999999N999999999-01241-01431100331ADDMA1999999100221MD1210081+9999REMSYN04801020 46/// /0413 11124 21143 30022 40033 52008=
0113010200999992015011512004+76483+016550FM-12+001099999V0200401N012019999999N999999999-01191-01381100351ADDMA1999999100241MD1210081+9999OD139901901999REMSYN05801020 46/// /0412 11119 21138 30024 40035 52008 333 91119=
0089010200999992015011513004+76483+016550FM-12+001099999V0200301N012019999999N999999999-01171-01361100351ADDMA1999999100241MD1210051+9999REMSYN04801020 46/// /0312 11117 21136 30024 40035 52005=
0089010200999992015011514004+76483+016550FM-12+001099999V0200301N011019999999N999999999-01151-01341100391ADDMA1999999100281MD1210051+9999REMSYN04801020 46/// /0311 11115 21134 30028 40039 52005=
0089010200999992015011515004+76483+016550FM-12+001099999V0200301N010019999999N999999999-01161-01421100391ADDMA1999999100281MD1210041+9999REMSYN04801020 46/// /0310 11116 21142 30028 40039 52004=
0089010200999992015011516004+76483+016550FM-12+001099999V0200401N011019999999N999999999-01181-01401100401ADDMA1999999100291MD1310051+9999REMSYN04801020 46/// /0411 11118 21140 30029 40040 53005=
0089010200999992015011517004+76483+016550FM-12+001099999V0200401N013019999999N999999999-01211-01441100361ADDMA1999999100251MD1510031+9999REMSYN04801020 46/// /0413 11121 21144 30025 40036 55003=
0132010200999992015011518004+76483+016550FM-12+001099999V0200401N015019999999N999999999-01251-01431100341ADDKA1120M-01101MA1999999100231MD1710051+9999OD139901701999REMSYN06401020 46/// /0415 11125 21143 30023 40034 57005 333 11110 91117=
0089010200999992015011519004+76483+016550FM-12+001099999V0200401N016019999999N999999999-01271-01451100371ADDMA1999999100261MD1990021+9999REMSYN04801020 46/// /0416 11127 21145 30026 40037 50002=
0089010200999992015011520004+76483+016550FM-12+001099999V0200401N014019999999N999999999-01241-01411100431ADDMA1999999100321MD1110081+9999REMSYN04801020 46/// /0414 11124 21141 30032 40043 51008=
0089010200999992015011522004+76483+016550FM-12+001099999V0200401N017019999999N999999999-01221-01411100441ADDMA1999999100331MD1310071+9999REMSYN04801020 46/// /0417 11122 21141 30033 40044 53007=
0089010200999992015011523004+76483+016550FM-12+001099999V0200401N018019999999N999999999-01301-01491100481ADDMA1999999100361MD1110041+9999REMSYN04801020 46/// /0418 11130 21149 30036 40048 51004=
0089010200999992015011600004+76483+016550FM-12+001099999V0200401N017019999999N999999999-01331-01481100491ADDMA1999999100381MD1210061+9999REMSYN04801020 46/// /0417 11133 21148 30038 40049 52006=
0089010200999992015011601004+76483+016550FM-12+001099999V0200401N016019999999N999999999-01371-01561100541ADDMA1999999100431MD1210101+9999REMSYN04801020 46/// /0416 11137 21156 30043 40054 52010=
0089010200999992015011602004+76483+016550FM-12+001099999V0200401N018019999999N999999999-01461-01671100531ADDMA1999999100421MD1210051+9999REMSYN04801020 46/// /0418 11146 21167 30042 40053 52005=
0089010200999992015011603004+76483+016550FM-12+001099999V0200401N017019999999N999999999-01501-01701100561ADDMA1999999100451MD1210071+9999REMSYN04801020 46/// /0417 11150 21170 30045 40056 52007=
0089010200999992015011604004+76483+016550FM-12+001099999V0200401N015019999999N999999999-01541-01771100611ADDMA1999999100501MD1110071+9999REMSYN04801020 46/// /0415 11154 21177 30050 40061 51007=
0089010200999992015011605004+76483+016550FM-12+001099999V0200301N017019999999N999999999-01411-01651100511ADDMA1999999100401MD1510011+9999REMSYN04801020 46/// /0317 11141 21165 30040 40051 55001=
0113010200999992015011606004+76483+016550FM-12+001099999V0200301N017019999999N999999999-01431-01681100561ADDMA1999999100451MD1410001+9999OD139902101999REMSYN05801020 46/// /0317 11143 21168 30045 40056 54000 333 91121=
0089010200999992015011607004+76483+016550FM-12+001099999V0200401N017019999999N999999999-01481-01761100571ADDMA1999999100451MD1810051+9999REMSYN04801020 46/// /0417 11148 21176 30045 40057 58005=
0089010200999992015011608004+76483+016550FM-12+001099999V0200401N019019999999N999999999-01481-01711100531ADDMA1999999100421MD1510011+9999REMSYN04801020 46/// /0419 11148 21171 30042 40053 55001=
0089010200999992015011609004+76483+016550FM-12+001099999V0200301N017019999999N999999999-01481-01711100641ADDMA1999999100531MD1110071+9999REMSYN04801020 46/// /0317 11148 21171 30053 40064 51007=
0108010200999992015011610004+76483+016550FM-12+001099999V0200301N018019999999N999999999-01511-01721100591ADDMA1999999100481MD1290029+9999REMSYN04801020 46/// /0318 11151 21172 30048 40059 54002=EQDQ01.2    3APC3  
0089010200999992015011611004+76483+016550FM-12+001099999V0200401N019019999999N999999999-01531-01761100551ADDMA1999999100441MD1510021+9999REMSYN04801020 46/// /0419 11153 21176 30044 40055 55002=
0113010200999992015011612004+76483+016550FM-12+001099999V0200401N018019999999N999999999-01521-01761100511ADDMA1999999100401MD1710131+9999OD139902101999REMSYN05801020 46/// /0418 11152 21176 30040 40051 57013 333 91121=
0089010200999992015011613004+76483+016550FM-12+001099999V0200301N016019999999N999999999-01531-01771100571ADDMA1999999100461MD1990021+9999REMSYN04801020 46/// /0316 11153 21177 30046 40057 50002=
0108010200999992015011614004+76483+016550FM-12+001099999V0200301N016019999999N999999999-01531-01761100561ADDMA1999999100451MD1290019+9999REMSYN04801020 46/// /0316 11153 21176 30045 40056 54001=EQDQ01.1    3APC3  
0089010200999992015011615004+76483+016550FM-12+001099999V0200401N017019999999N999999999-01571-01841100581ADDMA1999999100471MD1310071+9999REMSYN04801020 46/// /0417 11157 21184 30047 40058 53007=
0108010200999992015011616004+76483+016550FM-12+001099999V0200401N017019999999N999999999-01591-01851100581ADDMA1999999100471MD1290019+9999REMSYN04801020 46/// /0417 11159 21185 30047 40058 54001=EQDQ01.1    3APC3  
0089010200999992015011617004+76483+016550FM-12+001099999V0200401N014019999999N999999999-01631-01881100641ADDMA1999999100531MD1110081+9999REMSYN04801020 46/// /0414 11163 21188 30053 40064 51008=
0132010200999992015011618004+76483+016550FM-12+001099999V0200401N019019999999N999999999-01661-01981100591ADDKA1120M-01431MA1999999100481MD1510011+9999OD139902201999REMSYN06401020 46/// /0419 11166 21198 30048 40059 55001 333 11143 91122=
0089010200999992015011619004+76483+016550FM-12+001099999V0200401N017019999999N999999999-01721-01981100671ADDMA1999999100551MD1210081+9999REMSYN04801020 46/// /0417 11172 21198 30055 40067 52008=
0089010200999992015011620004+76483+016550FM-12+001099999V0200301N018019999999N999999999-01751-02021100701ADDMA1999999100591MD1990061+9999REMSYN04801020 46/// /0318 11175 21202 30059 40070 50006=
0089010200999992015011621004+76483+016550FM-12+001099999V0200401N018019999999N999999999-01781-02051100671ADDMA1999999100561MD1310081+9999REMSYN04801020 46/// /0418 11178 21205 30056 40067 53008=
0089010200999992015011622004+76483+016550FM-12+001099999V0200301N016019999999N999999999-01831-02081100751ADDMA1999999100641MD1110081+9999REMSYN04801020 46/// /0316 11183 21208 30064 40075 51008=
0089010200999992015011623004+76483+016550FM-12+001099999V0200301N017019999999N999999999-01871-02121100751ADDMA1999999100641MD1990051+9999REMSYN04801020 46/// /0317 11187 21212 30064 40075 50005=
0113010200999992015011700004+76483+016550FM-12+001099999V0200301N018019999999N999999999-01881-02171100701ADDMA1999999100591MD1310031+9999OD139902301999REMSYN05801020 46/// /0318 11188 21217 30059 40070 53003 333 91123=
0089010200999992015011701004+76483+016550FM-12+001099999V0200401N019019999999N999999999-01901-02171100721ADDMA1999999100601MD1710031+9999REMSYN04801020 46/// /0419 11190 21217 30060 40072 57003=
0089010200999992015011702004+76483+016550FM-12+001099999V0200401N021019999999N999999999-01891-02181100661ADDMA1999999100551MD1710091+9999REMSYN04801020 46/// /0421 11189 21218 30055 40066 57009=
0089010200999992015011703004+76483+016550FM-12+001099999V0200401N019019999999N999999999-01911-02221100761ADDMA1999999100651MD1110061+9999REMSYN04801020 46/// /0419 11191 21222 30065 40076 51006=
0089010200999992015011704004+76483+016550FM-12+001099999V0200301N017019999999N999999999-01901-02211100831ADDMA1999999100721MD1990121+9999REMSYN04801020 46/// /0317 11190 21221 30072 40083 50012=
0089010200999992015011705004+76483+016550FM-12+001099999V0200301N017019999999N999999999-01921-02271100851ADDMA1999999100731MD1310191+9999REMSYN04801020 46/// /0317 11192 21227 30073 40085 53019=
0132010200999992015011706004+76483+016550FM-12+001099999V0200301N016019999999N999999999-01941-02271100921ADDKA1240N-01951MA1999999100811MD1210161+9999OD139902401999REMSYN06401020 46/// /0316 11194 21227 30081 40092 52016 333 21195 91124=
0089010200999992015011707004+76483+016550FM-12+001099999V0200301N017019999999N999999999-01921-02301101011ADDMA1999999100891MD1110171+9999REMSYN04801020 46/// /0317 11192 21230 30089 40101 51017=
0089010200999992015011708004+76483+016550FM-12+001099999V0200301N012019999999N999999999-01931-02331101131ADDMA1999999101021MD1110281+9999REMSYN04801020 46/// /0312 11193 21233 30102 40113 51028=
0089010200999992015011709004+76483+016550FM-12+001099999V0200401N015019999999N999999999-01901-02311101071ADDMA1999999100951MD1310151+9999REMSYN04801020 46/// /0415 11190 21231 30095 40107 53015=
0089010200999992015011710004+76483+016550FM-12+001099999V0200401N016019999999N999999999-01901-02311101101ADDMA1999999100981MD1310091+9999REMSYN04801020 46/// /0416 11190 21231 30098 40110 53009=
0089010200999992015011711004+76483+016550FM-12+001099999V0200401N015019999999N999999999-01921-02361101201ADDMA1999999101091MD1990071+9999REMSYN04801020 46/// /0415 11192 21236 30109 40120 50007=
0113010200999992015011712004+76483+016550FM-12+001099999V0200301N010019999999N999999999-01891-02351101351ADDMA1999999101241MD1110291+9999OD139901901999REMSYN05801020 46/// /0310 11189 21235 30124 40135 51029 333 91119=
0089010200999992015011713004+76483+016550FM-12+001099999V0200401N015019999999N999999999-01891-02371101261ADDMA1999999101141MD1310161+9999REMSYN04801020 46/// /0415 11189 21237 30114 40126 53016=
0089010200999992015011714004+76483+016550FM-12+001099999V0200501N014019999999N999999999-01881-02361101401ADDMA1999999101281MD1210201+9999REMSYN04801020 46/// /0514 11188 21236 30128 40140 52020=
0089010200999992015011715004+76483+016550FM-12+001099999V0200401N011019999999N999999999-01871-02361101451ADDMA1999999101341MD1990101+9999REMSYN04801020 46/// /0411 11187 21236 30134 40145 50010=
0089010200999992015011716004+76483+016550FM-12+001099999V0200401N010019999999N999999999-01881-02411101521ADDMA1999999101411MD1310271+9999REMSYN04801020 46/// /0410 11188 21241 30141 40152 53027=
0089010200999992015011717004+76483+016550FM-12+001099999V0200501N009019999999N999999999-01921-02381101551ADDMA1999999101431MD1310151+9999REMSYN04801020 46/// /0509 11192 21238 30143 40155 53015=
0132010200999992015011718004+76483+016550FM-12+001099999V0200601N011019999999N999999999-01881-02291101551ADDKA1120M-01851MA1999999101441MD1310101+9999OD139901901999REMSYN06401020 46/// /0611 11188 21229 30144 40155 53010 333 11185 91119=
0089010200999992015011719004+76483+016550FM-12+001099999V0200601N007019999999N999999999-01891-02191101661ADDMA1999999101541MD1110131+9999REMSYN04801020 46/// /0607 11189 21219 30154 40166 51013=
0089010200999992015011720004+76483+016550FM-12+001099999V0200601N008019999999N999999999-01931-02271101691ADDMA1999999101571MD1210141+9999REMSYN04801020 46/// /0608 11193 21227 30157 40169 52014=
0089010200999992015011721004+76483+016550FM-12+001099999V0200601N007019999999N999999999-01871-02171101761ADDMA1999999101641MD1310211+9999REMSYN04801020 46/// /0607 11187 21217 30164 40176 53021=
0089010200999992015011722004+76483+016550FM-12+001099999V0200601N006019999999N999999999-01931-02201101801ADDMA1999999101681MD1210141+9999REMSYN04801020 46/// /0606 11193 21220 30168 40180 52014=
0089010200999992015011723004+76483+016550FM-12+001099999V0200701N005019999999N999999999-01801-02011101821ADDMA1999999101711MD1310141+9999REMSYN04801020 46/// /0705 11180 21201 30171 40182 53014=
0113010200999992015011800004+76483+016550FM-12+001099999V0200601N004019999999N999999999-01821-02071101811ADDMA1999999101701MD1310051+9999OD139901201999REMSYN05801020 46/// /0604 11182 21207 30170 40181 53005 333 91112=
0089010200999992015011801004+76483+016550FM-12+001099999V0200501N004019999999N999999999-01981-02241101841ADDMA1999999101721MD1210041+9999REMSYN04801020 46/// /0504 11198 21224 30172 40184 52004=
0108010200999992015011802004+76483+016550FM-12+001099999V0200601N003019999999N999999999-01821-02051101851ADDMA1999999101731MD1290039+9999REMSYN04801020 46/// /0603 11182 21205 30173 40185 54002=EQDQ01.2    3APC3  
0089010200999992015011803004+76483+016550FM-12+001099999V0200501N002019999999N999999999-01881-02041101841ADDMA1999999101721MD1510021+9999REMSYN04801020 46/// /0502 11188 21204 30172 40184 55002=
0089010200999992015011804004+76483+016550FM-12+001099999V0200501N002019999999N999999999-01911-02081101831ADDMA1999999101721MD1410001+9999REMSYN04801020 46/// /0502 11191 21208 30172 40183 54000=
0089010200999992015011805004+76483+016550FM-12+001099999V0200601N002019999999N999999999-01821-02051101801ADDMA1999999101691MD1710051+9999REMSYN04801020 46/// /0602 11182 21205 30169 40180 57005=
0132010200999992015011806004+76483+016550FM-12+001099999V0200801N002019999999N999999999-01401-01481101761ADDKA1240N-02041MA1999999101651MD1610071+9999OD139900401999REMSYN06401020 46/// /0802 11140 21148 30165 40176 56007 333 21204 91104=
0089010200999992015011807004+76483+016550FM-12+001099999V0200401N001019999999N999999999-01561-01711101741ADDMA1999999101621MD1710091+9999REMSYN04801020 46/// /0401 11156 21171 30162 40174 57009=
0089010200999992015011808004+76483+016550FM-12+001099999V0203401N003019999999N999999999-01451-01601101761ADDMA1999999101641MD1810041+9999REMSYN04801020 46/// /3403 11145 21160 30164 40176 58004=
0108010200999992015011809004+76483+016550FM-12+001099999V0202401N003019999999N999999999-01131-01211101741ADDMA1999999101621MD1790029+9999REMSYN04801020 46/// /2403 11113 21121 30162 40174 54002=EQDQ01.2    3APC3  
0108010200999992015011810004+76483+016550FM-12+001099999V0209999C999999999999N999999999-01111-01201101731ADDMA1999999101621MD1790019+9999REMSYN04801020 46/// /0000 11111 21120 30162 40173 54001=EQDQ01.1    3APC3  
0089010200999992015011811004+76483+016550FM-12+001099999V0202301N002019999999N999999999-00841-00931101681ADDMA1999999101571MD1710071+9999REMSYN04801020 46/// /2302 11084 21093 30157 40168 57007=
0113010200999992015011812004+76483+016550FM-12+001099999V0202101N001019999999N999999999-00741-00841101621ADDMA1999999101511MD1610121+9999OD139900301999REMSYN05801020 46/// /2101 11074 21084 30151 40162 56012 333 91103=
0089010200999992015011813004+76483+016550FM-12+001099999V0203401N002019999999N999999999-00941-01071101571ADDMA1999999101461MD1710161+9999REMSYN04801020 46/// /3402 11094 21107 30146 40157 57016=
0089010200999992015011814004+76483+016550FM-12+001099999V0203001N012019999999N999999999-00421-00571101501ADDMA1999999101391MD1710181+9999REMSYN04801020 46/// /3012 11042 21057 30139 40150 57018=
0089010200999992015011815004+76483+016550FM-12+001099999V0202801N008019999999N999999999-00391-00581101461ADDMA1999999101351MD1710151+9999REMSYN04801020 46/// /2808 11039 21058 30135 40146 57015=
0089010200999992015011816004+76483+016550FM-12+001099999V0202801N012019999999N999999999-00351-00661101441ADDMA1999999101331MD1810131+9999REMSYN04801020 46/// /2812 11035 21066 30133 40144 58013=
0089010200999992015011817004+76483+016550FM-12+001099999V0202801N013019999999N999999999-00361-00701101381ADDMA1999999101271MD1710121+9999REMSYN04801020 46/// /2813 11036 21070 30127 40138 57012=
0089010200999992015011819004+76483+016550FM-12+001099999V0202801N014019999999N999999999-00431-00811101341ADDMA1999999101231MD1710101+9999REMSYN04801020 46/// /2814 11043 21081 30123 40134 57010=
0089010200999992015011820004+76483+016550FM-12+001099999V0202901N013019999999N999999999-00431-00831101381ADDMA1999999101271MD1990001+9999REMSYN04801020 46/// /2913 11043 21083 30127 40138 50000=
0089010200999992015011821004+76483+016550FM-12+001099999V0203001N012019999999N999999999-00481-00771101431ADDMA1999999101321MD1110061+9999REMSYN04801020 46/// /3012 11048 21077 30132 40143 51006=
0089010200999992015011822004+76483+016550FM-12+001099999V0202901N013019999999N999999999-00501-00881101461ADDMA1999999101351MD1210121+9999REMSYN04801020 46/// /2913 11050 21088 30135 40146 52012=
0089010200999992015011823004+76483+016550FM-12+001099999V0203001N012019999999N999999999-00491-00951101501ADDMA1999999101391MD1210121+9999REMSYN04801020 46/// /3012 11049 21095 30139 40150 52012=
0113010200999992015011900004+76483+016550FM-12+001099999V0203201N009019999999N999999999-00551-00791101611ADDMA1999999101501MD1110191+9999OD139901801999REMSYN05801020 46/// /3209 11055 21079 30150 40161 51019 333 91118=
0089010200999992015011901004+76483+016550FM-12+001099999V0203201N007019999999N999999999-00581-00811101631ADDMA1999999101521MD1210171+9999REMSYN04801020 46/// /3207 11058 21081 30152 40163 52017=
0089010200999992015011902004+76483+016550FM-12+001099999V0203001N007019999999N999999999-00581-00851101591ADDMA1999999101481MD1310091+9999REMSYN04801020 46/// /3007 11058 21085 30148 40159 53009=
0089010200999992015011903004+76483+016550FM-12+001099999V0202901N005019999999N999999999-00561-00831101561ADDMA1999999101451MD1610051+9999REMSYN04801020 46/// /2905 11056 21083 30145 40156 56005=
0089010200999992015011904004+76483+016550FM-12+001099999V0202301N003019999999N999999999-00531-00721101511ADDMA1999999101401MD1710121+9999REMSYN04801020 46/// /2303 11053 21072 30140 40151 57012=
0089010200999992015011905004+76483+016550FM-12+001099999V0202101N003019999999N999999999-00561-00621101461ADDMA1999999101351MD1710121+9999REMSYN04801020 46/// /2103 11056 21062 30135 40146 57012=
0113010200999992015011906004+76483+016550FM-12+001099999V0201901N004019999999N999999999-00531-00591101421ADDMA1999999101311MD1710141+9999OD139901401999REMSYN05801020 46/// /1904 11053 21059 30131 40142 57014 333 91114=
0089010200999992015011907004+76483+016550FM-12+001099999V0202601N007019999999N999999999-00351-00461101351ADDMA1999999101241MD1710161+9999REMSYN04801020 46/// /2607 11035 21046 30124 40135 57016=
0089010200999992015011908004+76483+016550FM-12+001099999V0202401N010019999999N999999999-00221-00571101211ADDMA1999999101101MD1610261+9999REMSYN04801020 46/// /2410 11022 21057 30110 40121 56026=
0089010200999992015011909004+76483+016550FM-12+001099999V0202501N009019999999N999999999-00221-00451101151ADDMA1999999101041MD1710271+9999REMSYN04801020 46/// /2509 11022 21045 30104 40115 57027=
0089010200999992015011910004+76483+016550FM-12+001099999V0202601N011019999999N999999999-00181-00361101111ADDMA1999999101001MD1810241+9999REMSYN04801020 46/// /2611 11018 21036 30100 40111 58024=
0089010200999992015011911004+76483+016550FM-12+001099999V0202601N012019999999N999999999-00111-00451100981ADDMA1999999100881MD1610221+9999REMSYN04801020 46/// /2612 11011 21045 30088 40098 56022=
0113010200999992015011912004+76483+016550FM-12+001099999V0202501N012019999999N999999999-00111-00381100861ADDMA1999999100751MD1610281+9999OD139901501999REMSYN05801020 46/// /2512 11011 21038 30075 40086 56028 333 91115=
0089010200999992015011913004+76483+016550FM-12+001099999V0202601N014019999999N999999999-00111-00391100761ADDMA1999999100661MD1710341+9999REMSYN04801020 46/// /2614 11011 21039 30066 40076 57034=
0089010200999992015011914004+76483+016550FM-12+001099999V0202601N013019999999N999999999-00131-00401100741ADDMA1999999100631MD1810251+9999REMSYN04801020 46/// /2613 11013 21040 30063 40074 58025=
0089010200999992015011915004+76483+016550FM-12+001099999V0202601N014019999999N999999999-00101-00431100681ADDMA1999999100581MD1810181+9999REMSYN04801020 46/// /2614 11010 21043 30058 40068 58018=
0089010200999992015011916004+76483+016550FM-12+001099999V0202601N013019999999N999999999-00081-00391100681ADDMA1999999100571MD1710091+9999REMSYN04801020 46/// /2613 11008 21039 30057 40068 57009=
0089010200999992015011917004+76483+016550FM-12+001099999V0202701N010019999999N999999999-00081-00411100671ADDMA1999999100571MD1810061+9999REMSYN04801020 46/// /2710 11008 21041 30057 40067 58006=
0151010200999992015011918004+76483+016550FM-12+001099999V0202601N011019999999N999999999-00091-00421100661ADDKA1120M-00061MA1999999100551MD1790029+9999OD139901801999REMSYN06401020 46/// /2611 11009 21042 30055 40066 54003 333 11006 91118=EQDQ01.3    3APC3  
0108010200999992015011919004+76483+016550FM-12+001099999V0202601N011019999999N999999999-00091-00401100661ADDMA1999999100551MD1790029+9999REMSYN04801020 46/// /2611 11009 21040 30055 40066 54002=EQDQ01.2    3APC3  
0089010200999992015011920004+76483+016550FM-12+001099999V0202601N012019999999N999999999-00101-00351100681ADDMA1999999100571MD1990001+9999REMSYN04801020 46/// /2612 11010 21035 30057 40068 50000=
0089010200999992015011921004+76483+016550FM-12+001099999V0202701N010019999999N999999999-00131-00321100711ADDMA1999999100601MD1110061+9999REMSYN04801020 46/// /2710 11013 21032 30060 40071 51006=
0089010200999992015011922004+76483+016550FM-12+001099999V0202601N011019999999N999999999-00141-00311100721ADDMA1999999100611MD1210061+9999REMSYN04801020 46/// /2611 11014 21031 30061 40072 52006=
0089010200999992015011923004+76483+016550FM-12+001099999V0202701N009019999999N999999999-00121-00331100741ADDMA1999999100641MD1210071+9999REMSYN04801020 46/// /2709 11012 21033 30064 40074 52007=
0113010200999992015012000004+76483+016550FM-12+001099999V0202601N012019999999N999999999-00141-00271100701ADDMA1999999100601MD1510011+9999OD139901501999REMSYN05801020 46/// /2612 11014 21027 30060 40070 55001 333 91115=
0089010200999992015012001004+76483+016550FM-12+001099999V0202601N013019999999N999999999-00091-00341100651ADDMA1999999100541MD1610071+9999REMSYN04801020 46/// /2613 11009 21034 30054 40065 56007=
0089010200999992015012002004+76483+016550FM-12+001099999V0202601N012019999999N999999999-00091-00341100661ADDMA1999999100551MD1810091+9999REMSYN04801020 46/// /2612 11009 21034 30055 40066 58009=
0089010200999992015012003004+76483+016550FM-12+001099999V0202601N012019999999N999999999-00091-00331100641ADDMA1999999100541MD1810061+9999REMSYN04801020 46/// /2612 11009 21033 30054 40064 58006=
0108010200999992015012004004+76483+016550FM-12+001099999V0202701N011019999999N999999999-00091-00361100661ADDMA1999999100551MD1290019+9999REMSYN04801020 46/// /2711 11009 21036 30055 40066 54001=EQDQ01.1    3APC3  
0108010200999992015012005004+76483+016550FM-12+001099999V0202701N010019999999N999999999-00061-00371100671ADDMA1999999100561MD1290019+9999REMSYN04801020 46/// /2710 11006 21037 30056 40067 54001=EQDQ01.1    3APC3  
0151010200999992015012006004+76483+016550FM-12+001099999V0202701N013019999999N999999999-00031-00461100671ADDKA1240N-00161MA1999999100561MD1290039+9999OD139901501999REMSYN06401020 46/// /2713 11003 21046 30056 40067 54003 333 21016 91115=EQDQ01.3    3APC3  
0089010200999992015012007004+76483+016550FM-12+001099999V0202801N010019999999N999999999-00121-00251100751ADDMA1999999100651MD1110101+9999REMSYN04801020 46/// /2810 11012 21025 30065 40075 51010=
0089010200999992015012008004+76483+016550FM-12+001099999V0202801N010019999999N999999999-00091-00361100821ADDMA1999999100721MD1110161+9999REMSYN04801020 46/// /2810 11009 21036 30072 40082 51016=
0089010200999992015012009004+76483+016550FM-12+001099999V0202801N012019999999N999999999-00091-00421100861ADDMA1999999100751MD1310191+9999REMSYN04801020 46/// /2812 11009 21042 30075 40086 53019=
0089010200999992015012010004+76483+016550FM-12+001099999V0202801N013019999999N999999999-00091-00371100851ADDMA1999999100741MD1310091+9999REMSYN04801020 46/// /2813 11009 21037 30074 40085 53009=
0089010200999992015012011004+76483+016550FM-12+001099999V0202901N012019999999N999999999-00091-00361100931ADDMA1999999100821MD1110111+9999REMSYN04801020 46/// /2912 11009 21036 30082 40093 51011=
0113010200999992015012012004+76483+016550FM-12+001099999V0202901N009019999999N999999999-00101-00321101071ADDMA1999999100961MD1110211+9999OD139901601999REMSYN05801020 46/// /2909 11010 21032 30096 40107 51021 333 91116=
0089010200999992015012013004+76483+016550FM-12+001099999V0203001N007019999999N999999999-00151-00301101151ADDMA1999999101041MD1210301+9999REMSYN04801020 46/// /3007 11015 21030 30104 40115 52030=
0089010200999992015012014004+76483+016550FM-12+001099999V0203001N007019999999N999999999-00181-00331101211ADDMA1999999101101MD1310271+9999REMSYN04801020 46/// /3007 11018 21033 30110 40121 53027=
0089010200999992015012015004+76483+016550FM-12+001099999V0203101N008019999999N999999999-00261-00381101241ADDMA1999999101131MD1310161+9999REMSYN04801020 46/// /3108 11026 21038 30113 40124 53016=
0089010200999992015012016004+76483+016550FM-12+001099999V0202901N005019999999N999999999-00261-00381101331ADDMA1999999101221MD1110181+9999REMSYN04801020 46/// /2905 11026 21038 30122 40133 51018=
0089010200999992015012017004+76483+016550FM-12+001099999V0202901N005019999999N999999999-00251-00431101381ADDMA1999999101271MD1210181+9999REMSYN04801020 46/// /2905 11025 21043 30127 40138 52018=
0132010200999992015012018004+76483+016550FM-12+001099999V0202801N004019999999N999999999-00261-00381101441ADDKA1120M-00031MA1999999101331MD1310211+9999OD139901001999REMSYN06401020 46/// /2804 11026 21038 30133 40144 53021 333 11003 91110=
0089010200999992015012019004+76483+016550FM-12+001099999V0203001N003019999999N999999999-00241-00341101541ADDMA1999999101431MD1110201+9999REMSYN04801020 46/// /3003 11024 21034 30143 40154 51020=
0089010200999992015012020004+76483+016550FM-12+001099999V0203001N005019999999N999999999-00241-00351101611ADDMA1999999101501MD1210231+9999REMSYN04801020 46/// /3005 11024 21035 30150 40161 52023=
0089010200999992015012021004+76483+016550FM-12+001099999V0202901N004019999999N999999999-00221-00401101711ADDMA1999999101601MD1210271+9999REMSYN04801020 46/// /2904 11022 21040 30160 40171 52027=
0089010200999992015012022004+76483+016550FM-12+001099999V0202801N002019999999N999999999-00231-00411101781ADDMA1999999101681MD1210251+9999REMSYN04801020 46/// /2802 11023 21041 30168 40178 52025=
0089010200999992015012023004+76483+016550FM-12+001099999V0202901N004019999999N999999999-00231-00401101851ADDMA1999999101741MD1310241+9999REMSYN04801020 46/// /2904 11023 21040 30174 40185 53024=
0113010200999992015012100004+76483+016550FM-12+001099999V0202701N003019999999N999999999-00251-00401101901ADDMA1999999101801MD1210191+9999OD139900601999REMSYN05801020 46/// /2703 11025 21040 30180 40190 52019 333 91106=
0089010200999992015012101004+76483+016550FM-12+001099999V0202801N003019999999N999999999-00261-00401101941ADDMA1999999101831MD1310161+9999REMSYN04801020 46/// /2803 11026 21040 30183 40194 53016=
0089010200999992015012102004+76483+016550FM-12+001099999V0203301N002019999999N999999999-00311-00461101981ADDMA1999999101881MD1210131+9999REMSYN04801020 46/// /3302 11031 21046 30188 40198 52013=
0089010200999992015012103004+76483+016550FM-12+001099999V0203101N002019999999N999999999-00301-00511102031ADDMA1999999101921MD1210131+9999REMSYN04801020 46/// /3102 11030 21051 30192 40203 52013=
0089010200999992015012104004+76483+016550FM-12+001099999V0209999C999999999999N999999999-00381-00561102061ADDMA1999999101951MD1210121+9999REMSYN04801020 46/// /0000 11038 21056 30195 40206 52012=
0089010200999992015012105004+76483+016550FM-12+001099999V0209999C999999999999N999999999-00411-00531102071ADDMA1999999101961MD1210091+9999REMSYN04801020 46/// /0000 11041 21053 30196 40207 52009=
0132010200999992015012106004+76483+016550FM-12+001099999V0200301N001019999999N999999999-00451-00561102081ADDKA1240N-00531MA1999999101971MD1210051+9999OD139900501999REMSYN06401020 46/// /0301 11045 21056 30197 40208 52005 333 21053 91105=
0089010200999992015012107004+76483+016550FM-12+001099999V0200601N002019999999N999999999-00461-00541102091ADDMA1999999101981MD1210031+9999REMSYN04801020 46/// /0602 11046 21054 30198 40209 52003=
0089010200999992015012108004+76483+016550FM-12+001099999V0201001N002019999999N999999999-00281-00491102121ADDMA1999999102011MD1210051+9999REMSYN04801020 46/// /1002 11028 21049 30201 40212 52005=
0089010200999992015012109004+76483+016550FM-12+001099999V0200801N002019999999N999999999-00291-00451102141ADDMA1999999102031MD1210061+9999REMSYN04801020 46/// /0802 11029 21045 30203 40214 52006=
0089010200999992015012110004+76483+016550FM-12+001099999V0200801N004019999999N999999999-00301-00441102111ADDMA1999999102001MD1510031+9999REMSYN04801020 46/// /0804 11030 21044 30200 40211 55003=
0089010200999992015012111004+76483+016550FM-12+001099999V0200701N005019999999N999999999-00271-00381102091ADDMA1999999101981MD1610031+9999REMSYN04801020 46/// /0705 11027 21038 30198 40209 56003=
0113010200999992015012112004+76483+016550FM-12+001099999V0200701N006019999999N999999999-00221-00371102041ADDMA1999999101931MD1710101+9999OD139900701999REMSYN05801020 46/// /0706 11022 21037 30193 40204 57010 333 91107=
0089010200999992015012113004+76483+016550FM-12+001099999V0201201N005019999999N999999999-00121-00291101971ADDMA1999999101861MD1610141+9999REMSYN04801020 46/// /1205 11012 21029 30186 40197 56014=
0089010200999992015012114004+76483+016550FM-12+001099999V0201301N006019999999N999999999-00101-00281101881ADDMA1999999101771MD1610211+9999REMSYN04801020 46/// /1306 11010 21028 30177 40188 56021=
0089010200999992015012115004+76483+016550FM-12+001099999V0201501N009019999999N999999999-00061-00281101811ADDMA1999999101701MD1710231+9999REMSYN04801020 46/// /1509 11006 21028 30170 40181 57023=
0089010200999992015012116004+76483+016550FM-12+001099999V0201501N009019999999N999999999-00071-00201101731ADDMA1999999101621MD1710241+9999REMSYN04801020 46/// /1509 11007 21020 30162 40173 57024=
0089010200999992015012117004+76483+016550FM-12+001099999V0201501N010019999999N999999999-00031-00131101631ADDMA1999999101521MD1610251+9999REMSYN04801020 46/// /1510 11003 21013 30152 40163 56025=
0132010200999992015012118004+76483+016550FM-12+001099999V0201501N011019999999N999999999+00001-00051101501ADDKA1120M+00001MA1999999101391MD1610311+9999OD139901201999REMSYN06401020 46/// /1511 10000 21005 30139 40150 56031 333 10000 91112=
0089010200999992015012119004+76483+016550FM-12+001099999V0201601N011019999999N999999999+00051+00011101451ADDMA1999999101341MD1810281+9999REMSYN04801020 46/// /1611 10005 20001 30134 40145 58028=
0089010200999992015012120004+76483+016550FM-12+001099999V0201801N009019999999N999999999+00121+00021101391ADDMA1999999101281MD1810241+9999REMSYN04801020 46/// /1809 10012 20002 30128 40139 58024=
0089010200999992015012121004+76483+016550FM-12+001099999V0201801N009019999999N999999999+00111+00041101321ADDMA1999999101221MD1710171+9999REMSYN04801020 46/// /1809 10011 20004 30122 40132 57017=
0089010200999992015012122004+76483+016550FM-12+001099999V0202101N011019999999N999999999+00171+00041101251ADDMA1999999101141MD1710201+9999REMSYN04801020 46/// /2111 10017 20004 30114 40125 57020=
0089010200999992015012123004+76483+016550FM-12+001099999V0202101N009019999999N999999999+00161+00041101241ADDMA1999999101131MD1810151+9999REMSYN04801020 46/// /2109 10016 20004 30113 40124 58015=
0113010200999992015012200004+76483+016550FM-12+001099999V0202101N010019999999N999999999+00201+00051101201ADDMA1999999101091MD1810121+9999OD139901301999REMSYN05801020 46/// /2110 10020 20005 30109 40120 58012 333 91113=
0089010200999992015012201004+76483+016550FM-12+001099999V0202201N012019999999N999999999+00211+00051101141ADDMA1999999101041MD1610101+9999REMSYN04801020 46/// /2212 10021 20005 30104 40114 56010=
0089010200999992015012202004+76483+016550FM-12+001099999V0202201N011019999999N999999999+00191-00021101141ADDMA1999999101031MD1810101+9999REMSYN04801020 46/// /2211 10019 21002 30103 40114 58010=
0089010200999992015012203004+76483+016550FM-12+001099999V0202201N011019999999N999999999+00181-00031101101ADDMA1999999100991MD1710101+9999REMSYN04801020 46/// /2211 10018 21003 30099 40110 57010=
0089010200999992015012204004+76483+016550FM-12+001099999V0202201N012019999999N999999999+00221-00021101041ADDMA1999999100931MD1610111+9999REMSYN04801020 46/// /2212 10022 21002 30093 40104 56011=
0089010200999992015012205004+76483+016550FM-12+001099999V0202201N012019999999N999999999+00211+00001101001ADDMA1999999100891MD1710141+9999REMSYN04801020 46/// /2212 10021 20000 30089 40100 57014=
0132010200999992015012206004+76483+016550FM-12+001099999V0202201N013019999999N999999999+00231+00001100961ADDKA1240N+00001MA1999999100851MD1710141+9999OD139901601999REMSYN06401020 46/// /2213 10023 20000 30085 40096 57014 333 20000 91116=
0089010200999992015012207004+76483+016550FM-12+001099999V0202201N013019999999N999999999+00211+00001100961ADDMA1999999100851MD1810081+9999REMSYN04801020 46/// /2213 10021 20000 30085 40096 58008=
0089010200999992015012208004+76483+016550FM-12+001099999V0202201N014019999999N999999999+00251-00011100951ADDMA1999999100851MD1810041+9999REMSYN04801020 46/// /2214 10025 21001 30085 40095 58004=
0089010200999992015012209004+76483+016550FM-12+001099999V0202201N012019999999N999999999+00201-00011101001ADDMA1999999100891MD1110041+9999REMSYN04801020 46/// /2212 10020 21001 30089 40100 51004=
0089010200999992015012210004+76483+016550FM-12+001099999V0202201N010019999999N999999999+00171-00041101021ADDMA1999999100911MD1210061+9999REMSYN04801020 46/// /2210 10017 21004 30091 40102 52006=
0089010200999992015012211004+76483+016550FM-12+001099999V0202201N010019999999N999999999+00151-00031101011ADDMA1999999100911MD1310061+9999REMSYN04801020 46/// /2210 10015 21003 30091 40101 53006=
0113010200999992015012212004+76483+016550FM-12+001099999V0202201N010019999999N999999999+00151-00011100991ADDMA1999999100881MD1510011+9999OD139901601999REMSYN05801020 46/// /2210 10015 21001 30088 40099 55001 333 91116=
0089010200999992015012213004+76483+016550FM-12+001099999V0202201N008019999999N999999999+00121-00041100981ADDMA1999999100871MD1710041+9999REMSYN04801020 46/// /2208 10012 21004 30087 40098 57004=
0089010200999992015012214004+76483+016550FM-12+001099999V0202301N009019999999N999999999+00151-00031100951ADDMA1999999100851MD1710061+9999REMSYN04801020 46/// /2309 10015 21003 30085 40095 57006=
0089010200999992015012215004+76483+016550FM-12+001099999V0202401N007019999999N999999999+00091-00041100951ADDMA1999999100851MD1710041+9999REMSYN04801020 46/// /2407 10009 21004 30085 40095 57004=
0089010200999992015012216004+76483+016550FM-12+001099999V0202201N009019999999N999999999+00171-00051100941ADDMA1999999100841MD1710041+9999REMSYN04801020 46/// /2209 10017 21005 30084 40094 57004=
0108010200999992015012217004+76483+016550FM-12+001099999V0202201N009019999999N999999999+00141-00071100931ADDMA1999999100831MD1790029+9999REMSYN04801020 46/// /2209 10014 21007 30083 40093 54002=EQDQ01.2    3APC3  
0151010200999992015012218004+76483+016550FM-12+001099999V0202201N007019999999N999999999+00091-00091100931ADDKA1120M+00261MA1999999100831MD1790029+9999OD139901101999REMSYN06401020 46/// /2207 10009 21009 30083 40093 54002 333 10026 91111=EQDQ01.2    3APC3  
0089010200999992015012219004+76483+016550FM-12+001099999V0202201N010019999999N999999999+00151+00001100871ADDMA1999999100771MD1610071+9999REMSYN04801020 46/// /2210 10015 20000 30077 40087 56007=
0089010200999992015012220004+76483+016550FM-12+001099999V0202101N010019999999N999999999+00111-00031100881ADDMA1999999100771MD1710051+9999REMSYN04801020 46/// /2110 10011 21003 30077 40088 57005=
0089010200999992015012221004+76483+016550FM-12+001099999V0202101N010019999999N999999999+00121-00061100861ADDMA1999999100751MD1810081+9999REMSYN04801020 46/// /2110 10012 21006 30075 40086 58008=
0108010200999992015012222004+76483+016550FM-12+001099999V0202201N013019999999N999999999+00191-00121100861ADDMA1999999100751MD1790019+9999REMSYN04801020 46/// /2213 10019 21012 30075 40086 54002=EQDQ01.2    3APC3  
0089010200999992015012223004+76483+016550FM-12+001099999V0202201N009019999999N999999999+00131-00111100881ADDMA1999999100771MD1990001+9999REMSYN04801020 46/// /2209 10013 21011 30077 40088 50000=
0132010200999992015012300004+76483+016550FM-12+001099999V0202201N009019999999N999999999+00161-00101100871ADDMA1999999100761MD1290019+9999OD139901701999REMSYN05801020 46/// /2209 10016 21010 30076 40087 54001 333 91117=EQDQ01.1    3APC3  
0089010200999992015012301004+76483+016550FM-12+001099999V0202101N008019999999N999999999+00101-00111100861ADDMA1999999100751MD1410001+9999REMSYN04801020 46/// /2108 10010 21011 30075 40086 54000=
0089010200999992015012302004+76483+016550FM-12+001099999V0202101N007019999999N999999999+00111-00131100841ADDMA1999999100741MD1710031+9999REMSYN04801020 46/// /2107 10011 21013 30074 40084 57003=
0089010200999992015012303004+76483+016550FM-12+001099999V0202101N007019999999N999999999+00091-00151100831ADDMA1999999100721MD1710041+9999REMSYN04801020 46/// /2107 10009 21015 30072 40083 57004=
0089010200999992015012304004+76483+016550FM-12+001099999V0202001N007019999999N999999999+00111-00151100801ADDMA1999999100701MD1710061+9999REMSYN04801020 46/// /2007 10011 21015 30070 40080 57006=
0089010200999992015012305004+76483+016550FM-12+001099999V0202001N008019999999N999999999+00131-00161100761ADDMA1999999100651MD1710081+9999REMSYN04801020 46/// /2008 10013 21016 30065 40076 57008=
0132010200999992015012306004+76483+016550FM-12+001099999V0202201N007019999999N999999999+00101-00151100741ADDKA1240N+00081MA1999999100631MD1710091+9999OD139901101999REMSYN06401020 46/// /2207 10010 21015 30063 40074 57009 333 20008 91111=
0089010200999992015012307004+76483+016550FM-12+001099999V0202001N006019999999N999999999+00081-00141100701ADDMA1999999100591MD1710101+9999REMSYN04801020 46/// /2006 10008 21014 30059 40070 57010=
0089010200999992015012308004+76483+016550FM-12+001099999V0202101N008019999999N999999999+00121-00151100681ADDMA1999999100571MD1710081+9999REMSYN04801020 46/// /2108 10012 21015 30057 40068 57008=
0089010200999992015012309004+76483+016550FM-12+001099999V0202001N008019999999N999999999+00091-00201100681ADDMA1999999100571MD1810061+9999REMSYN04801020 46/// /2008 10009 21020 30057 40068 58006=
0089010200999992015012310004+76483+016550FM-12+001099999V0201901N006019999999N999999999+00041-00151100661ADDMA1999999100561MD1710041+9999REMSYN04801020 46/// /1906 10004 21015 30056 40066 57004=
0089010200999992015012311004+76483+016550FM-12+001099999V0201801N005019999999N999999999+00031-00141100631ADDMA1999999100531MD1610051+9999REMSYN04801020 46/// /1805 10003 21014 30053 40063 56005=
0113010200999992015012312004+76483+016550FM-12+001099999V0201801N005019999999N999999999+00021-00121100591ADDMA1999999100481MD1710091+9999OD139901201999REMSYN05801020 46/// /1805 10002 21012 30048 40059 57009 333 91112=
0089010200999992015012313004+76483+016550FM-12+001099999V0201501N006019999999N999999999+00011-00131100531ADDMA1999999100431MD1710131+9999REMSYN04801020 46/// /1506 10001 21013 30043 40053 57013=
0089010200999992015012314004+76483+016550FM-12+001099999V0201701N006019999999N999999999+00021-00091100481ADDMA1999999100371MD1710151+9999REMSYN04801020 46/// /1706 10002 21009 30037 40048 57015=
0089010200999992015012315004+76483+016550FM-12+001099999V0201401N006019999999N999999999-00021-00091100451ADDMA1999999100341MD1710141+9999REMSYN04801020 46/// /1406 11002 21009 30034 40045 57014=
0089010200999992015012316004+76483+016550FM-12+001099999V0201501N007019999999N999999999-00031-00101100391ADDMA1999999100291MD1710141+9999REMSYN04801020 46/// /1507 11003 21010 30029 40039 57014=
0089010200999992015012317004+76483+016550FM-12+001099999V0201501N006019999999N999999999-00041-00081100371ADDMA1999999100261MD1710111+9999REMSYN04801020 46/// /1506 11004 21008 30026 40037 57011=
0132010200999992015012318004+76483+016550FM-12+001099999V0201501N006019999999N999999999+00021-00021100321ADDKA1120M+00151MA1999999100211MD1710131+9999OD139901001999REMSYN06401020 46/// /1506 10002 21002 30021 40032 57013 333 10015 91110=
0089010200999992015012319004+76483+016550FM-12+001099999V0201501N006019999999N999999999-00021-00041100261ADDMA1999999100161MD1610131+9999REMSYN04801020 46/// /1506 11002 21004 30016 40026 56013=
0089010200999992015012320004+76483+016550FM-12+001099999V0201301N004019999999N999999999+00001-00021100231ADDMA1999999100121MD1710141+9999REMSYN04801020 46/// /1304 10000 21002 30012 40023 57014=
0089010200999992015012321004+76483+016550FM-12+001099999V0201401N005019999999N999999999+00031-00011100201ADDMA1999999100101MD1810121+9999REMSYN04801020 46/// /1405 10003 21001 30010 40020 58012=
0089010200999992015012322004+76483+016550FM-12+001099999V0201401N006019999999N999999999+00041-00031100181ADDMA1999999100071MD1710091+9999REMSYN04801020 46/// /1406 10004 21003 30007 40018 57009=
0089010200999992015012323004+76483+016550FM-12+001099999V0201201N004019999999N999999999-00021-00071100141ADDMA1999999100041MD1710091+9999REMSYN04801020 46/// /1204 11002 21007 30004 40014 57009=
0113010200999992015012400004+76483+016550FM-12+001099999V0201201N005019999999N999999999-00061-00081100131ADDMA1999999100031MD1710071+9999OD139900801999REMSYN05801020 46/// /1205 11006 21008 30003 40013 57007 333 91108=
0089010200999992015012401004+76483+016550FM-12+001099999V0201101N005019999999N999999999-00031-00051100071ADDMA1999999099971MD1710101+9999REMSYN04801020 46/// /1105 11003 21005 39997 40007 57010=
0089010200999992015012403004+76483+016550FM-12+001099999V0201201N003019999999N999999999+00041-00021100041ADDMA1999999099931MD1810101+9999REMSYN04801020 46/// /1203 10004 21002 39993 40004 58010=
0089010200999992015012404004+76483+016550FM-12+001099999V0201601N004019999999N999999999+00011-00061100021ADDMA1999999099921MD1710051+9999REMSYN04801020 46/// /1604 10001 21006 39992 40002 57005=
0089010200999992015012405004+76483+016550FM-12+001099999V0201401N003019999999N999999999+00001-00101100011ADDMA1999999099901MD1710051+9999REMSYN04801020 46/// /1403 10000 21010 39990 40001 57005=
0108010200999992015012406004+76483+016550FM-12+001099999V0201201N004019999999N999999999-00051-00151100011ADDMA1999999099911MD1790039+9999REMSYN04801020 46/// /1204 11005 21015 39991 40001 54002=EQDQ01.2    3APC3  
0089010200999992015012407004+76483+016550FM-12+001099999V0201401N005019999999N999999999-00021-00131100021ADDMA1999999099921MD1410001+9999REMSYN04801020 46/// /1405 11002 21013 39992 40002 54000=
0089010200999992015012408004+76483+016550FM-12+001099999V0201301N005019999999N999999999-00011-00151100051ADDMA1999999099941MD1210041+9999REMSYN04801020 46/// /1305 11001 21015 39994 40005 52004=
0089010200999992015012409004+76483+016550FM-12+001099999V0201201N005019999999N999999999-00081-00231100071ADDMA1999999099971MD1210061+9999REMSYN04801020 46/// /1205 11008 21023 39997 40007 52006=
0089010200999992015012410004+76483+016550FM-12+001099999V0201101N005019999999N999999999-00111-00221100091ADDMA1999999099981MD1210061+9999REMSYN04801020 46/// /1105 11011 21022 39998 40009 52006=
0089010200999992015012411004+76483+016550FM-12+001099999V0201001N005019999999N999999999-00121-00231100121ADDMA1999999100011MD1210071+9999REMSYN04801020 46/// /1005 11012 21023 30001 40012 52007=
0113010200999992015012412004+76483+016550FM-12+001099999V0201001N006019999999N999999999-00141-00241100121ADDMA1999999100011MD1210051+9999OD139900701999REMSYN05801020 46/// /1006 11014 21024 30001 40012 52005 333 91107=
0089010200999992015012413004+76483+016550FM-12+001099999V0200901N005019999999N999999999-00191-00281100121ADDMA1999999100011MD1510031+9999REMSYN04801020 46/// /0905 11019 21028 30001 40012 55003=
0089010200999992015012414004+76483+016550FM-12+001099999V0200901N005019999999N999999999-00171-00241100151ADDMA1999999100041MD1990031+9999REMSYN04801020 46/// /0905 11017 21024 30004 40015 50003=
0089010200999992015012415004+76483+016550FM-12+001099999V0200601N005019999999N999999999-00271-00311100151ADDMA1999999100041MD1210031+9999REMSYN04801020 46/// /0605 11027 21031 30004 40015 52003=
0089010200999992015012416004+76483+016550FM-12+001099999V0200501N007019999999N999999999-00231-00271100191ADDMA1999999100081MD1210071+9999REMSYN04801020 46/// /0507 11023 21027 30008 40019 52007=
0089010200999992015012417004+76483+016550FM-12+001099999V0200901N007019999999N999999999-00121-00261100191ADDMA1999999100081MD1210041+9999REMSYN04801020 46/// /0907 11012 21026 30008 40019 52004=
0132010200999992015012418004+76483+016550FM-12+001099999V0200701N007019999999N999999999-00221-00291100211ADDKA1120M+00001MA1999999100111MD1210061+9999OD139900801999REMSYN06401020 46/// /0707 11022 21029 30011 40021 52006 333 10000 91108=
0089010200999992015012419004+76483+016550FM-12+001099999V0200901N007019999999N999999999-00211-00311100261ADDMA1999999100151MD1110081+9999REMSYN04801020 46/// /0907 11021 21031 30015 40026 51008=
0089010200999992015012420004+76483+016550FM-12+001099999V0200801N008019999999N999999999-00231-00381100271ADDMA1999999100161MD1210081+9999REMSYN04801020 46/// /0808 11023 21038 30016 40027 52008=
0089010200999992015012421004+76483+016550FM-12+001099999V0200601N008019999999N999999999-00191-00411100261ADDMA1999999100161MD1310051+9999REMSYN04801020 46/// /0608 11019 21041 30016 40026 53005=
0108010200999992015012422004+76483+016550FM-12+001099999V0200501N010019999999N999999999-00161-00331100281ADDMA1999999100171MD1290029+9999REMSYN04801020 46/// /0510 11016 21033 30017 40028 54002=EQDQ01.2    3APC3  
0089010200999992015012423004+76483+016550FM-12+001099999V0200601N010019999999N999999999-00151-00321100301ADDMA1999999100191MD1210031+9999REMSYN04801020 46/// /0610 11015 21032 30019 40030 52003=
0113010200999992015012500004+76483+016550FM-12+001099999V0200501N011019999999N999999999-00211-00281100321ADDMA1999999100211MD1210051+9999OD139901301999REMSYN05801020 46/// /0511 11021 21028 30021 40032 52005 333 91113=
0089010200999992015012501004+76483+016550FM-12+001099999V0200401N011019999999N999999999-00241-00301100371ADDMA1999999100261MD1210091+9999REMSYN04801020 46/// /0411 11024 21030 30026 40037 52009=
0089010200999992015012502004+76483+016550FM-12+001099999V0200401N012019999999N999999999-00271-00331100391ADDMA1999999100281MD1210091+9999REMSYN04801020 46/// /0412 11027 21033 30028 40039 52009=
0089010200999992015012503004+76483+016550FM-12+001099999V0200401N013019999999N999999999-00311-00361100401ADDMA1999999100291MD1310081+9999REMSYN04801020 46/// /0413 11031 21036 30029 40040 53008=
0089010200999992015012504004+76483+016550FM-12+001099999V0200401N013019999999N999999999-00351-00401100451ADDMA1999999100341MD1110081+9999REMSYN04801020 46/// /0413 11035 21040 30034 40045 51008=
