0094010240999992015010103004+78650+016367FM-12+002099999V0203001N002019999999N999999999-00291-00501098651ADDMA1999999098521REMSYN04801024 46/// /3002 11029 21050 39852 49865 54002=EQDQ014     3APCTEN
0113010240999992015010106004+78650+016367FM-12+002099999V0203301N001019999999N999999999-00341-00361098581ADDMA1999999098451MD1710071+9999OD139900401999REMSYN05801024 46/// /3301 11034 21036 39845 49858 57007 333 91104=
0089010240999992015010112004+78650+016367FM-12+002099999V0209999C999999999999N999999999-00321-00331098491ADDMA1999999098361MD1710081+9999REMSYN04801024 46/// /0000 11032 21033 39836 49849 57008=
0089010240999992015010115004+78650+016367FM-12+002099999V0209999C999999999999N999999999-00351-00361098391ADDMA1999999098261MD1710101+9999REMSYN04801024 46/// /0000 11035 21036 39826 49839 57010=
0113010240999992015010118004+78650+016367FM-12+002099999V0200201N001019999999N999999999-00321-00461098281ADDMA1999999098151MD1710111+9999OD139900201999REMSYN05801024 46/// /0201 11032 21046 39815 49828 57011 333 91102=
0089010240999992015010121004+78650+016367FM-12+002099999V0203101N001019999999N999999999-00411-00641098191ADDMA1999999098061MD1710091+9999REMSYN04801024 46/// /3101 11041 21064 39806 49819 57009=
0089010240999992015010200004+78650+016367FM-12+002099999V0200701N001019999999N999999999-00331-00561098091ADDMA1999999097961MD1710101+9999REMSYN04801024 46/// /0701 11033 21056 39796 49809 57010=
0089010240999992015010203004+78650+016367FM-12+002099999V0203201N001019999999N999999999-00411-00681098031ADDMA1999999097901MD1710061+9999REMSYN04801024 46/// /3201 11041 21068 39790 49803 57006=
0113010240999992015010206004+78650+016367FM-12+002099999V0203301N001019999999N999999999-00281-00571097941ADDMA1999999097811MD1710101+9999OD139900201999REMSYN05801024 46/// /3301 11028 21057 39781 49794 57010 333 91102=
0089010240999992015010209004+78650+016367FM-12+002099999V0203301N001019999999N999999999-00311-00451097941ADDMA1999999097811MD1410001+9999REMSYN04801024 46/// /3301 11031 21045 39781 49794 54000=
0132010240999992015010212004+78650+016367FM-12+002099999V0209999C999999999999N999999999-00411-00661097911ADDMA1999999097781MD1790039+9999OD139900401999REMSYN05801024 46/// /0000 11041 21066 39778 49791 54002 333 91104=EQDQ01.2    3APC3  
0089010240999992015010215004+78650+016367FM-12+002099999V0209999C999999999999N999999999-00361-00591097911ADDMA1999999097781MD1990001+9999REMSYN04801024 46/// /0000 11036 21059 39778 49791 50000=
0132010240999992015010218004+78650+016367FM-12+002099999V0200801N003019999999N999999999+00111-00551097951ADDKA1120M+00121MA1999999097821MD1210041+9999OD139900601999REMSYN06401024 46/// /0803 10011 21055 39782 49795 52004 333 10012 91106=
0089010240999992015010221004+78650+016367FM-12+002099999V0201401N001019999999N999999999-00091-00391098101ADDMA1999999097971MD1110151+9999REMSYN04801024 46/// /1401 11009 21039 39797 49810 51015=
0113010240999992015010300004+78650+016367FM-12+002099999V0209999C999999999999N999999999-00211-00211098311ADDMA1999999098181MD1210211+9999OD139900501999REMSYN05801024 46/// /0000 11021 21021 39818 49831 52021 333 91105=
0089010240999992015010303004+78650+016367FM-12+002099999V0209999C999999999999N999999999-00191-00201098531ADDMA1999999098401MD1210221+9999REMSYN04801024 46/// /0000 11019 21020 39840 49853 52022=
0132010240999992015010306004+78650+016367FM-12+002099999V0209999C999999999999N999999999-00061-00071098851ADDKA1240N-00211MA1999999098721MD1210321+9999OD139900201999REMSYN06401024 46/// /0000 11006 21007 39872 49885 52032 333 21021 91102=
0089010240999992015010309004+78650+016367FM-12+002099999V0209999C999999999999N999999999+00011-00031099251ADDMA1999999099121MD1210401+9999REMSYN04801024 46/// /0000 10001 21003 39912 49925 52040=
0113010240999992015010312004+78650+016367FM-12+002099999V0201101N003019999999N999999999+00011-00161099541ADDMA1999999099411MD1210291+9999OD139900601999REMSYN05801024 46/// /1103 10001 21016 39941 49954 52029 333 91106=
0089010240999992015010315004+78650+016367FM-12+002099999V0201001N002019999999N999999999-00091-00191099851ADDMA1999999099721MD1210311+9999REMSYN04801024 46/// /1002 11009 21019 39972 49985 52031=
0132010240999992015010318004+78650+016367FM-12+002099999V0200901N007019999999N999999999-00201-00521100071ADDKA1120M+00101MA1999999099941MD1210221+9999OD139900901999REMSYN06401024 46/// /0907 11020 21052 39994 40007 52022 333 10010 91109=
0089010240999992015010321004+78650+016367FM-12+002099999V0200801N005019999999N999999999-00191-00711100331ADDMA1999999100191MD1210251+9999REMSYN04801024 46/// /0805 11019 21071 30019 40033 52025=
0113010240999992015010400004+78650+016367FM-12+002099999V0200801N003019999999N999999999-00281-00771100551ADDMA1999999100411MD1210221+9999OD139900901999REMSYN05801024 46/// /0803 11028 21077 30041 40055 52022 333 91109=
0089010240999992015010403004+78650+016367FM-12+002099999V0200801N005019999999N999999999-00331-00811100781ADDMA1999999100651MD1210231+9999REMSYN04801024 46/// /0805 11033 21081 30065 40078 52023=
0132010240999992015010406004+78650+016367FM-12+002099999V0200501N001019999999N999999999-00461-00811100971ADDKA1240N-00541MA1999999100841MD1210191+9999OD139900801999REMSYN06401024 46/// /0501 11046 21081 30084 40097 52019 333 21054 91108=
0089010240999992015010412004+78650+016367FM-12+002099999V0209999C999999999999N999999999-00711-01071101341ADDMA1999999101211MD1210151+9999REMSYN04801024 46/// /0000 11071 21107 30121 40134 52015=
0089010240999992015010415004+78650+016367FM-12+002099999V0203101N003019999999N999999999-00711-01081101481ADDMA1999999101351MD1210141+9999REMSYN04801024 46/// /3103 11071 21108 30135 40148 52014=
0113010240999992015010418004+78650+016367FM-12+002099999V0203301N001019999999N999999999-00641-00971101611ADDMA1999999101471MD1210131+9999OD139900401999REMSYN05801024 46/// /3301 11064 21097 30147 40161 52013 333 91104=
0089010240999992015010421004+78650+016367FM-12+002099999V0200301N001019999999N999999999-00781-00911101741ADDMA1999999101601MD1210131+9999REMSYN04801024 46/// /0301 11078 21091 30160 40174 52013=
0113010240999992015010500004+78650+016367FM-12+002099999V0209999C999999999999N999999999-00921-01231101861ADDMA1999999101721MD1210121+9999OD139900201999REMSYN05801024 46/// /0000 11092 21123 30172 40186 52012 333 91102=
0089010240999992015010503004+78650+016367FM-12+002099999V0200601N001019999999N999999999-00741-01041101931ADDMA1999999101791MD1210071+9999REMSYN04801024 46/// /0601 11074 21104 30179 40193 52007=
0132010240999992015010506004+78650+016367FM-12+002099999V0209999C999999999999N999999999-00921-01141101971ADDKA1240N-00991MA1999999101831MD1210041+9999OD139900201999REMSYN06401024 46/// /0000 11092 21114 30183 40197 52004 333 21099 91102=
0089010240999992015010509004+78650+016367FM-12+002099999V0203101N001019999999N999999999-00801-00981102021ADDMA1999999101891MD1310051+9999REMSYN04801024 46/// /3101 11080 21098 30189 40202 53005=
0132010240999992015010512004+78650+016367FM-12+002099999V0209999C999999999999N999999999-00691-00821102051ADDMA1999999101911MD1290039+9999OD139900201999REMSYN05801024 46/// /0000 11069 21082 30191 40205 54002 333 91102=EQDQ01.2    3APC3  
0108010240999992015010515004+78650+016367FM-12+002099999V0209999C999999999999N999999999-00701-00821102021ADDMA1999999101881MD1790039+9999REMSYN04801024 46/// /0000 11070 21082 30188 40202 54003=EQDQ01.3    3APC3  
0132010240999992015010518004+78650+016367FM-12+002099999V0203101N001019999999N999999999-00751-00951101951ADDKA1120M-00591MA1999999101811MD1610071+9999OD139900201999REMSYN06401024 46/// /3101 11075 21095 30181 40195 56007 333 11059 91102=
0089010240999992015010521004+78650+016367FM-12+002099999V0203101N002019999999N999999999-00541-00681101871ADDMA1999999101741MD1610071+9999REMSYN04801024 46/// /3102 11054 21068 30174 40187 56007=
0113010240999992015010600004+78650+016367FM-12+002099999V0202601N001019999999N999999999-00451-00561101741ADDMA1999999101601MD1610131+9999OD139900401999REMSYN05801024 46/// /2601 11045 21056 30160 40174 56013 333 91104=
0089010240999992015010601004+78650+016367FM-12+002099999V0203001N002019999999N999999999-00501-00611101681ADDMA1999999101541MD1610161+9999REMSYN04801024 46/// /3002 11050 21061 30154 40168 56016=
0089010240999992015010602004+78650+016367FM-12+002099999V0209999C999999999999N999999999-00591-00641101611ADDMA1999999101481MD1710201+9999REMSYN04801024 46/// /0000 11059 21064 30148 40161 57020=
0089010240999992015010603004+78650+016367FM-12+002099999V0203101N001019999999N999999999-00741-00751101501ADDMA1999999101371MD1610231+9999REMSYN04801024 46/// /3101 11074 21075 30137 40150 56023=
0089010240999992015010604004+78650+016367FM-12+002099999V0203101N003019999999N999999999-00791-00811101421ADDMA1999999101291MD1710261+9999REMSYN04801024 46/// /3103 11079 21081 30129 40142 57026=
0089010240999992015010605004+78650+016367FM-12+002099999V0203301N001019999999N999999999-00821-00831101291ADDMA1999999101151MD1710321+9999REMSYN04801024 46/// /3301 11082 21083 30115 40129 57032=
0132010240999992015010606004+78650+016367FM-12+002099999V0200401N001019999999N999999999-00791-00801101171ADDKA1240N-00861MA1999999101031MD1610341+9999OD139900501999REMSYN06401024 46/// /0401 11079 21080 30103 40117 56034 333 21086 91105=
0089010240999992015010607004+78650+016367FM-12+002099999V0200901N001019999999N999999999-00771-00941101101ADDMA1999999100961MD1810321+9999REMSYN04801024 46/// /0901 11077 21094 30096 40110 58032=
0089010240999992015010608004+78650+016367FM-12+002099999V0203201N001019999999N999999999-00711-00781101021ADDMA1999999100881MD1810271+9999REMSYN04801024 46/// /3201 11071 21078 30088 40102 58027=
0089010240999992015010609004+78650+016367FM-12+002099999V0203301N001019999999N999999999-00551-00781100921ADDMA1999999100781MD1710251+9999REMSYN04801024 46/// /3301 11055 21078 30078 40092 57025=
0089010240999992015010610004+78650+016367FM-12+002099999V0203201N001019999999N999999999-00691-00971100821ADDMA1999999100681MD1710281+9999REMSYN04801024 46/// /3201 11069 21097 30068 40082 57028=
0089010240999992015010612004+78650+016367FM-12+002099999V0203501N001019999999N999999999-00631-01021100651ADDMA1999999100511MD1710271+9999REMSYN04801024 46/// /3501 11063 21102 30051 40065 57027=
0089010240999992015010613004+78650+016367FM-12+002099999V0209999C999999999999N999999999-00741-01081100531ADDMA1999999100401MD1610291+9999REMSYN04801024 46/// /0000 11074 21108 30040 40053 56029=
0089010240999992015010614004+78650+016367FM-12+002099999V0203201N001019999999N999999999-00571-00931100421ADDMA1999999100281MD1710321+9999REMSYN04801024 46/// /3201 11057 21093 30028 40042 57032=
0089010240999992015010615004+78650+016367FM-12+002099999V0203601N001019999999N999999999-00461-00961100311ADDMA1999999100181MD1710331+9999REMSYN04801024 46/// /3601 11046 21096 30018 40031 57033=
0089010240999992015010616004+78650+016367FM-12+002099999V0203201N002019999999N999999999-00561-00911100251ADDMA1999999100121MD1810281+9999REMSYN04801024 46/// /3202 11056 21091 30012 40025 58028=
0089010240999992015010617004+78650+016367FM-12+002099999V0203101N002019999999N999999999-00491-00841100161ADDMA1999999100031MD1710251+9999REMSYN04801024 46/// /3102 11049 21084 30003 40016 57025=
0113010240999992015010618004+78650+016367FM-12+002099999V0202901N001019999999N999999999-00351-00731100081ADDMA1999999099951MD1710231+9999OD139900301999REMSYN05801024 46/// /2901 11035 21073 39995 40008 57023 333 91103=
0089010240999992015010619004+78650+016367FM-12+002099999V0209999C999999999999N999999999-00301-00311100051ADDMA1999999099921MD1810201+9999REMSYN04801024 46/// /0000 11030 21031 39992 40005 58020=
0089010240999992015010620004+78650+016367FM-12+002099999V0209999C999999999999N999999999-00351-00361100001ADDMA1999999099871MD1710161+9999REMSYN04801024 46/// /0000 11035 21036 39987 40000 57016=
0089010240999992015010621004+78650+016367FM-12+002099999V0200601N005019999999N999999999-00111-00111099931ADDMA1999999099801MD1610151+9999REMSYN04801024 46/// /0605 11011 21011 39980 49993 56015=
0089010240999992015010622004+78650+016367FM-12+002099999V0200701N004019999999N999999999-00021-00331099871ADDMA1999999099741MD1710171+9999REMSYN04801024 46/// /0704 11002 21033 39974 49987 57017=
0089010240999992015010623004+78650+016367FM-12+002099999V0200601N004019999999N999999999+00031-00411099821ADDMA1999999099691MD1710181+9999REMSYN04801024 46/// /0604 10003 21041 39969 49982 57018=
0113010240999992015010700004+78650+016367FM-12+002099999V0203601N001019999999N999999999+00011-00361099761ADDMA1999999099631MD1710171+9999OD139900701999REMSYN05801024 46/// /3601 10001 21036 39963 49976 57017 333 91107=
0089010240999992015010701004+78650+016367FM-12+002099999V0200801N002019999999N999999999+00061-00351099721ADDMA1999999099591MD1710161+9999REMSYN04801024 46/// /0802 10006 21035 39959 49972 57016=
0089010240999992015010702004+78650+016367FM-12+002099999V0201001N001019999999N999999999+00061-00381099671ADDMA1999999099541MD1710151+9999REMSYN04801024 46/// /1001 10006 21038 39954 49967 57015=
0089010240999992015010703004+78650+016367FM-12+002099999V0200401N001019999999N999999999+00081-00381099641ADDMA1999999099511MD1710121+9999REMSYN04801024 46/// /0401 10008 21038 39951 49964 57012=
0089010240999992015010704004+78650+016367FM-12+002099999V0200201N002019999999N999999999+00081-00351099581ADDMA1999999099451MD1710131+9999REMSYN04801024 46/// /0202 10008 21035 39945 49958 57013=
0089010240999992015010705004+78650+016367FM-12+002099999V0201701N001019999999N999999999+00001-00151099541ADDMA1999999099411MD1710131+9999REMSYN04801024 46/// /1701 10000 21015 39941 49954 57013=
0132010240999992015010706004+78650+016367FM-12+002099999V0200901N005019999999N999999999+00051-00361099511ADDKA1240N-00411MA1999999099381MD1710131+9999OD139900801999REMSYN06401024 46/// /0905 10005 21036 39938 49951 57013 333 21041 91108=
0089010240999992015010707004+78650+016367FM-12+002099999V0201101N004019999999N999999999+00071-00321099491ADDMA1999999099361MD1710091+9999REMSYN04801024 46/// /1104 10007 21032 39936 49949 57009=
0089010240999992015010708004+78650+016367FM-12+002099999V0200701N006019999999N999999999+00071-00371099441ADDMA1999999099311MD1710101+9999REMSYN04801024 46/// /0706 10007 21037 39931 49944 57010=
0089010240999992015010710004+78650+016367FM-12+002099999V0201101N002019999999N999999999+00001-00271099431ADDMA1999999099301MD1810061+9999REMSYN04801024 46/// /1102 10000 21027 39930 49943 58006=
0089010240999992015010711004+78650+016367FM-12+002099999V0200801N006019999999N999999999-00051-00191099371ADDMA1999999099241MD1610071+9999REMSYN04801024 46/// /0806 11005 21019 39924 49937 56007=
0089010240999992015010712004+78650+016367FM-12+002099999V0200801N006019999999N999999999-00071-00071099341ADDMA1999999099211MD1710101+9999REMSYN04801024 46/// /0806 11007 21007 39921 49934 57010=
0089010240999992015010713004+78650+016367FM-12+002099999V0200901N005019999999N999999999-00091-00091099271ADDMA1999999099141MD1710171+9999REMSYN04801024 46/// /0905 11009 21009 39914 49927 57017=
0089010240999992015010714004+78650+016367FM-12+002099999V0200701N005019999999N999999999-00031-00051099181ADDMA1999999099051MD1610201+9999REMSYN04801024 46/// /0705 11003 21005 39905 49918 56020=
0089010240999992015010715004+78650+016367FM-12+002099999V0200901N007019999999N999999999+00021-00221099101ADDMA1999999098971MD1710241+9999REMSYN04801024 46/// /0907 10002 21022 39897 49910 57024=
0089010240999992015010716004+78650+016367FM-12+002099999V0200901N005019999999N999999999-00091-00101099081ADDMA1999999098951MD1810191+9999REMSYN04801024 46/// /0905 11009 21010 39895 49908 58019=
0089010240999992015010717004+78650+016367FM-12+002099999V0200801N005019999999N999999999-00091-00101099051ADDMA1999999098921MD1810131+9999REMSYN04801024 46/// /0805 11009 21010 39892 49905 58013=
0113010240999992015010718004+78650+016367FM-12+002099999V0200601N003019999999N999999999-00091-00101099051ADDMA1999999098921MD1710051+9999OD139900801999REMSYN05801024 46/// /0603 11009 21010 39892 49905 57005 333 91108=
0089010240999992015010719004+78650+016367FM-12+002099999V0203101N002019999999N999999999-00131-00141099071ADDMA1999999098941MD1990001+9999REMSYN04801024 46/// /3102 11013 21014 39894 49907 50000=
0089010240999992015010720004+78650+016367FM-12+002099999V0203101N002019999999N999999999-00171-00171099111ADDMA1999999098981MD1110051+9999REMSYN04801024 46/// /3102 11017 21017 39898 49911 51005=
0089010240999992015010721004+78650+016367FM-12+002099999V0203001N002019999999N999999999-00141-00141099161ADDMA1999999099031MD1210111+9999REMSYN04801024 46/// /3002 11014 21014 39903 49916 52011=
0089010240999992015010722004+78650+016367FM-12+002099999V0209999C999999999999N999999999-00281-00291099251ADDMA1999999099121MD1110181+9999REMSYN04801024 46/// /0000 11028 21029 39912 49925 51018=
0089010240999992015010723004+78650+016367FM-12+002099999V0203101N002019999999N999999999-00231-00241099331ADDMA1999999099201MD1210221+9999REMSYN04801024 46/// /3102 11023 21024 39920 49933 52022=
0113010240999992015010800004+78650+016367FM-12+002099999V0200801N001019999999N999999999-00301-00311099361ADDMA1999999099221MD1310201+9999OD139900301999REMSYN05801024 46/// /0801 11030 21031 39922 49936 53020 333 91103=
0089010240999992015010801004+78650+016367FM-12+002099999V0202801N001019999999N999999999-00291-00301099411ADDMA1999999099281MD1210161+9999REMSYN04801024 46/// /2801 11029 21030 39928 49941 52016=
0089010240999992015010802004+78650+016367FM-12+002099999V0203301N001019999999N999999999-00271-00281099431ADDMA1999999099301MD1210101+9999REMSYN04801024 46/// /3301 11027 21028 39930 49943 52010=
0089010240999992015010803004+78650+016367FM-12+002099999V0203401N001019999999N999999999-00231-00241099491ADDMA1999999099361MD1210131+9999REMSYN04801024 46/// /3401 11023 21024 39936 49949 52013=
0089010240999992015010804004+78650+016367FM-12+002099999V0200901N001019999999N999999999-00221-00231099531ADDMA1999999099401MD1210131+9999REMSYN04801024 46/// /0901 11022 21023 39940 49953 52013=
0089010240999992015010805004+78650+016367FM-12+002099999V0202901N001019999999N999999999-00191-00201099561ADDMA1999999099431MD1310121+9999REMSYN04801024 46/// /2901 11019 21020 39943 49956 53012=
0132010240999992015010806004+78650+016367FM-12+002099999V0202801N002019999999N999999999-00221-00221099611ADDKA1240N-00341MA1999999099471MD1210121+9999OD139900301999REMSYN06401024 46/// /2802 11022 21022 39947 49961 52012 333 21034 91103=
0089010240999992015010807004+78650+016367FM-12+002099999V0203601N001019999999N999999999-00211-00211099621ADDMA1999999099491MD1210091+9999REMSYN04801024 46/// /3601 11021 21021 39949 49962 52009=
0089010240999992015010808004+78650+016367FM-12+002099999V0203101N002019999999N999999999-00241-00241099601ADDMA1999999099471MD1310051+9999REMSYN04801024 46/// /3102 11024 21024 39947 49960 53005=
0108010240999992015010809004+78650+016367FM-12+002099999V0203301N001019999999N999999999-00221-00261099631ADDMA1999999099501MD1290029+9999REMSYN04801024 46/// /3301 11022 21026 39950 49963 54003=EQDQ01.3    3APC3  
0089010240999992015010810004+78650+016367FM-12+002099999V0200401N001019999999N999999999-00231-00231099661ADDMA1999999099531MD1110041+9999REMSYN04801024 46/// /0401 11023 21023 39953 49966 51004=
0089010240999992015010811004+78650+016367FM-12+002099999V0203201N001019999999N999999999-00201-00291099651ADDMA1999999099521MD1310051+9999REMSYN04801024 46/// /3201 11020 21029 39952 49965 53005=
0132010240999992015010812004+78650+016367FM-12+002099999V0209999C999999999999N999999999-00241-00411099641ADDMA1999999099511MD1290019+9999OD139900201999REMSYN05801024 46/// /0000 11024 21041 39951 49964 54001 333 91102=EQDQ01.1    3APC3  
0108010240999992015010813004+78650+016367FM-12+002099999V0209999C999999999999N999999999-00301-00551099671ADDMA1999999099541MD1290019+9999REMSYN04801024 46/// /0000 11030 21055 39954 49967 54001=EQDQ01.1    3APC3  
0089010240999992015010814004+78650+016367FM-12+002099999V0203501N001019999999N999999999-00361-00671099691ADDMA1999999099561MD1110041+9999REMSYN04801024 46/// /3501 11036 21067 39956 49969 51004=
0089010240999992015010815004+78650+016367FM-12+002099999V0200701N006019999999N999999999+00021-00521099671ADDMA1999999099541MD1510031+9999REMSYN04801024 46/// /0706 10002 21052 39954 49967 55003=
0108010240999992015010816004+78650+016367FM-12+002099999V0201001N004019999999N999999999-00091-00421099681ADDMA1999999099551MD1290019+9999REMSYN04801024 46/// /1004 11009 21042 39955 49968 54002=EQDQ01.2    3APC3  
0089010240999992015010817004+78650+016367FM-12+002099999V0200801N006019999999N999999999-00081-00501099691ADDMA1999999099561MD1990001+9999REMSYN04801024 46/// /0806 11008 21050 39956 49969 50000=
0132010240999992015010818004+78650+016367FM-12+002099999V0200901N006019999999N999999999-00051-00471099681ADDKA1120M+00021MA1999999099551MD1510011+9999OD139900901999REMSYN06401024 46/// /0906 11005 21047 39955 49968 55001 333 10002 91109=
0108010240999992015010819004+78650+016367FM-12+002099999V0200901N007019999999N999999999-00051-00441099671ADDMA1999999099541MD1790019+9999REMSYN04801024 46/// /0907 11005 21044 39954 49967 54001=EQDQ01.1    3APC3  
0089010240999992015010820004+78650+016367FM-12+002099999V0200701N007019999999N999999999-00031-00461099611ADDMA1999999099481MD1610091+9999REMSYN04801024 46/// /0707 11003 21046 39948 49961 56009=
0089010240999992015010821004+78650+016367FM-12+002099999V0200901N009019999999N999999999+00021-00371099541ADDMA1999999099411MD1610131+9999REMSYN04801024 46/// /0909 10002 21037 39941 49954 56013=
0089010240999992015010822004+78650+016367FM-12+002099999V0200901N008019999999N999999999-00021-00331099541ADDMA1999999099411MD1810131+9999REMSYN04801024 46/// /0908 11002 21033 39941 49954 58013=
0089010240999992015010823004+78650+016367FM-12+002099999V0200901N008019999999N999999999-00011-00291099541ADDMA1999999099411MD1810071+9999REMSYN04801024 46/// /0908 11001 21029 39941 49954 58007=
0113010240999992015010900004+78650+016367FM-12+002099999V0200801N008019999999N999999999+00001-00281099511ADDMA1999999099381MD1710031+9999OD139901201999REMSYN05801024 46/// /0808 10000 21028 39938 49951 57003 333 91112=
0089010240999992015010901004+78650+016367FM-12+002099999V0201001N007019999999N999999999+00081-00311099471ADDMA1999999099341MD1610081+9999REMSYN04801024 46/// /1007 10008 21031 39934 49947 56008=
0089010240999992015010902004+78650+016367FM-12+002099999V0201101N007019999999N999999999+00091-00301099451ADDMA1999999099321MD1710081+9999REMSYN04801024 46/// /1107 10009 21030 39932 49945 57008=
0089010240999992015010903004+78650+016367FM-12+002099999V0200901N007019999999N999999999+00091-00301099451ADDMA1999999099321MD1810061+9999REMSYN04801024 46/// /0907 10009 21030 39932 49945 58006=
0089010240999992015010904004+78650+016367FM-12+002099999V0200801N009019999999N999999999+00101-00311099411ADDMA1999999099281MD1610061+9999REMSYN04801024 46/// /0809 10010 21031 39928 49941 56006=
0089010240999992015010905004+78650+016367FM-12+002099999V0200801N002019999999N999999999+00161-00341099521ADDMA1999999099391MD1110061+9999REMSYN04801024 46/// /0802 10016 21034 39939 49952 51006=
0132010240999992015010906004+78650+016367FM-12+002099999V0201401N004019999999N999999999+00121-00251099591ADDKA1240N-00091MA1999999099461MD1990141+9999OD139901201999REMSYN06401024 46/// /1404 10012 21025 39946 49959 50014 333 21009 91112=
0089010240999992015010907004+78650+016367FM-12+002099999V0200701N006019999999N999999999+00101-00221099641ADDMA1999999099511MD1310231+9999REMSYN04801024 46/// /0706 10010 21022 39951 49964 53023=
0089010240999992015010908004+78650+016367FM-12+002099999V0200701N006019999999N999999999+00061-00181099681ADDMA1999999099551MD1310171+9999REMSYN04801024 46/// /0706 10006 21018 39955 49968 53017=
0089010240999992015010909004+78650+016367FM-12+002099999V0200801N006019999999N999999999+00111-00251099761ADDMA1999999099631MD1210171+9999REMSYN04801024 46/// /0806 10011 21025 39963 49976 52017=
0089010240999992015010912004+78650+016367FM-12+002099999V0200601N005019999999N999999999+00121-00251099911ADDMA1999999099781MD1210151+9999REMSYN04801024 46/// /0605 10012 21025 39978 49991 52015=
0089010240999992015010913004+78650+016367FM-12+002099999V0200701N005019999999N999999999+00091-00231099971ADDMA1999999099841MD1210151+9999REMSYN04801024 46/// /0705 10009 21023 39984 49997 52015=
0089010240999992015010914004+78650+016367FM-12+002099999V0200601N006019999999N999999999+00101-00291099991ADDMA1999999099861MD1210141+9999REMSYN04801024 46/// /0606 10010 21029 39986 49999 52014=
0089010240999992015010915004+78650+016367FM-12+002099999V0200901N006019999999N999999999+00081-00311100011ADDMA1999999099881MD1310101+9999REMSYN04801024 46/// /0906 10008 21031 39988 40001 53010=
0089010240999992015010916004+78650+016367FM-12+002099999V0200601N005019999999N999999999+00071-00341100051ADDMA1999999099921MD1210081+9999REMSYN04801024 46/// /0605 10007 21034 39992 40005 52008=
0089010240999992015010917004+78650+016367FM-12+002099999V0200701N005019999999N999999999+00041-00281100101ADDMA1999999099971MD1110111+9999REMSYN04801024 46/// /0705 10004 21028 39997 40010 51011=
0113010240999992015010918004+78650+016367FM-12+002099999V0200601N004019999999N999999999+00061-00351100181ADDMA1999999100051MD1110171+9999OD139900801999REMSYN05801024 46/// /0604 10006 21035 30005 40018 51017 333 91108=
0089010240999992015010919004+78650+016367FM-12+002099999V0200601N005019999999N999999999+00011-00381100211ADDMA1999999100081MD1210161+9999REMSYN04801024 46/// /0605 10001 21038 30008 40021 52016=
0089010240999992015010920004+78650+016367FM-12+002099999V0209999C999999999999N999999999+00001-00331100291ADDMA1999999100161MD1210191+9999REMSYN04801024 46/// /0000 10000 21033 30016 40029 52019=
0089010240999992015010921004+78650+016367FM-12+002099999V0200501N001019999999N999999999-00021-00351100341ADDMA1999999100211MD1210161+9999REMSYN04801024 46/// /0501 11002 21035 30021 40034 52016=
0089010240999992015010922004+78650+016367FM-12+002099999V0200501N001019999999N999999999-00011-00401100391ADDMA1999999100261MD1310181+9999REMSYN04801024 46/// /0501 11001 21040 30026 40039 53018=
0089010240999992015010923004+78650+016367FM-12+002099999V0200501N001019999999N999999999-00041-00451100451ADDMA1999999100321MD1210151+9999REMSYN04801024 46/// /0501 11004 21045 30032 40045 52015=
0113010240999992015011000004+78650+016367FM-12+002099999V0209999C999999999999N999999999-00021-00501100471ADDMA1999999100341MD1210131+9999OD139900601999REMSYN05801024 46/// /0000 11002 21050 30034 40047 52013 333 91106=
0089010240999992015011001004+78650+016367FM-12+002099999V0203301N002019999999N999999999-00101-00461100511ADDMA1999999100381MD1210131+9999REMSYN04801024 46/// /3302 11010 21046 30038 40051 52013=
0089010240999992015011002004+78650+016367FM-12+002099999V0203101N001019999999N999999999-00211-00611100551ADDMA1999999100421MD1210101+9999REMSYN04801024 46/// /3101 11021 21061 30042 40055 52010=
0089010240999992015011003004+78650+016367FM-12+002099999V0203101N002019999999N999999999-00261-00581100571ADDMA1999999100441MD1210101+9999REMSYN04801024 46/// /3102 11026 21058 30044 40057 52010=
0089010240999992015011004004+78650+016367FM-12+002099999V0202901N002019999999N999999999-00181-00601100591ADDMA1999999100461MD1210081+9999REMSYN04801024 46/// /2902 11018 21060 30046 40059 52008=
0089010240999992015011005004+78650+016367FM-12+002099999V0200601N001019999999N999999999-00181-00571100621ADDMA1999999100481MD1210071+9999REMSYN04801024 46/// /0601 11018 21057 30048 40062 52007=
0132010240999992015011006004+78650+016367FM-12+002099999V0209999C999999999999N999999999-00241-00561100641ADDKA1240N-00281MA1999999100501MD1210071+9999OD139900401999REMSYN06401024 46/// /0000 11024 21056 30050 40064 52007 333 21028 91104=
0089010240999992015011007004+78650+016367FM-12+002099999V0209999C999999999999N999999999-00271-00581100641ADDMA1999999100511MD1210051+9999REMSYN04801024 46/// /0000 11027 21058 30051 40064 52005=
0089010240999992015011008004+78650+016367FM-12+002099999V0209999C999999999999N999999999-00301-00521100651ADDMA1999999100521MD1210041+9999REMSYN04801024 46/// /0000 11030 21052 30052 40065 52004=
0089010240999992015011009004+78650+016367FM-12+002099999V0202801N003019999999N999999999-00271-00581100621ADDMA1999999100491MD1510021+9999REMSYN04801024 46/// /2803 11027 21058 30049 40062 55002=
0108010240999992015011010004+78650+016367FM-12+002099999V0200501N001019999999N999999999-00291-00581100631ADDMA1999999100501MD1790019+9999REMSYN04801024 46/// /0501 11029 21058 30050 40063 54001=EQDQ014     3APCTEN
0108010240999992015011012004+78650+016367FM-12+002099999V0203201N001019999999N999999999-00301-00521100591ADDMA1999999100461MD1790039+9999REMSYN04801024 46/// /3201 11030 21052 30046 40059 54003=EQDQ01.3    3APC3  
0089010240999992015011013004+78650+016367FM-12+002099999V0209999C999999999999N999999999-00351-00601100581ADDMA1999999100451MD1710051+9999REMSYN04801024 46/// /0000 11035 21060 30045 40058 57005=
0089010240999992015011014004+78650+016367FM-12+002099999V0209999C999999999999N999999999-00341-00591100551ADDMA1999999100421MD1710061+9999REMSYN04801024 46/// /0000 11034 21059 30042 40055 57006=
0089010240999992015011015004+78650+016367FM-12+002099999V0200801N001019999999N999999999-00351-00641100541ADDMA1999999100411MD1710051+9999REMSYN04801024 46/// /0801 11035 21064 30041 40054 57005=
0089010240999992015011016004+78650+016367FM-12+002099999V0209999C999999999999N999999999-00451-00711100541ADDMA1999999100411MD1810041+9999REMSYN04801024 46/// /0000 11045 21071 30041 40054 58004=
0108010240999992015011017004+78650+016367FM-12+002099999V0203301N001019999999N999999999-00401-00661100541ADDMA1999999100411MD1790019+9999REMSYN04801024 46/// /3301 11040 21066 30041 40054 54001=EQDQ01.1    3APC3  
0132010240999992015011018004+78650+016367FM-12+002099999V0200401N001019999999N999999999-00361-00651100521ADDMA1999999100391MD1790029+9999OD139900301999REMSYN05801024 46/// /0401 11036 21065 30039 40052 54002 333 91103=EQDQ01.2    3APC3  
0108010240999992015011019004+78650+016367FM-12+002099999V0209999C999999999999N999999999-00351-00631100531ADDMA1999999100391MD1790019+9999REMSYN04801024 46/// /0000 11035 21063 30039 40053 54001=EQDQ01.1    3APC3  
0089010240999992015011020004+78650+016367FM-12+002099999V0203201N002019999999N999999999-00401-00621100541ADDMA1999999100411MD1990001+9999REMSYN04801024 46/// /3202 11040 21062 30041 40054 50000=
0089010240999992015011021004+78650+016367FM-12+002099999V0200601N001019999999N999999999-00271-00591100551ADDMA1999999100421MD1210031+9999REMSYN04801024 46/// /0601 11027 21059 30042 40055 52003=
0089010240999992015011022004+78650+016367FM-12+002099999V0200401N001019999999N999999999-00251-00621100581ADDMA1999999100451MD1210051+9999REMSYN04801024 46/// /0401 11025 21062 30045 40058 52005=
0108010240999992015011023004+78650+016367FM-12+002099999V0200601N004019999999N999999999-00131-00791100561ADDMA1999999100431MD1290029+9999REMSYN04801024 46/// /0604 11013 21079 30043 40056 54002=EQDQ01.2    3APC3  
0113010240999992015011100004+78650+016367FM-12+002099999V0200801N003019999999N999999999-00191-00811100561ADDMA1999999100431MD1510001+9999OD139900601999REMSYN05801024 46/// /0803 11019 21081 30043 40056 55000 333 91106=
0089010240999992015011101004+78650+016367FM-12+002099999V0201201N005019999999N999999999-00291-00691100591ADDMA1999999100461MD1990011+9999REMSYN04801024 46/// /1205 11029 21069 30046 40059 50001=
0089010240999992015011102004+78650+016367FM-12+002099999V0201101N005019999999N999999999-00321-00771100601ADDMA1999999100461MD1210031+9999REMSYN04801024 46/// /1105 11032 21077 30046 40060 52003=
0089010240999992015011103004+78650+016367FM-12+002099999V0201001N007019999999N999999999-00351-00801100601ADDMA1999999100471MD1310041+9999REMSYN04801024 46/// /1007 11035 21080 30047 40060 53004=
0108010240999992015011104004+78650+016367FM-12+002099999V0201001N005019999999N999999999-00371-00771100611ADDMA1999999100481MD1290029+9999REMSYN04801024 46/// /1005 11037 21077 30048 40061 54002=EQDQ01.2    3APC3  
0108010240999992015011105004+78650+016367FM-12+002099999V0200901N009019999999N999999999-00391-00731100621ADDMA1999999100491MD1290029+9999REMSYN04801024 46/// /0909 11039 21073 30049 40062 54002=EQDQ01.2    3APC3  
0132010240999992015011106004+78650+016367FM-12+002099999V0200701N004019999999N999999999-00361-00701100681ADDKA1240N-00491MA1999999100551MD1110081+9999OD139901101999REMSYN06401024 46/// /0704 11036 21070 30055 40068 51008 333 21049 91111=
0089010240999992015011107004+78650+016367FM-12+002099999V0201101N005019999999N999999999-00381-00661100711ADDMA1999999100581MD1210101+9999REMSYN04801024 46/// /1105 11038 21066 30058 40071 52010=
0089010240999992015011108004+78650+016367FM-12+002099999V0201001N006019999999N999999999-00341-00721100731ADDMA1999999100601MD1310111+9999REMSYN04801024 46/// /1006 11034 21072 30060 40073 53011=
0089010240999992015011109004+78650+016367FM-12+002099999V0201001N004019999999N999999999-00321-00821100761ADDMA1999999100631MD1210081+9999REMSYN04801024 46/// /1004 11032 21082 30063 40076 52008=
0089010240999992015011110004+78650+016367FM-12+002099999V0200901N006019999999N999999999-00331-00871100781ADDMA1999999100641MD1210071+9999REMSYN04801024 46/// /0906 11033 21087 30064 40078 52007=
0089010240999992015011111004+78650+016367FM-12+002099999V0200701N005019999999N999999999-00321-00881100821ADDMA1999999100691MD1210091+9999REMSYN04801024 46/// /0705 11032 21088 30069 40082 52009=
0113010240999992015011112004+78650+016367FM-12+002099999V0200601N004019999999N999999999-00301-00931100841ADDMA1999999100701MD1210071+9999OD139900801999REMSYN05801024 46/// /0604 11030 21093 30070 40084 52007 333 91108=
0089010240999992015011113004+78650+016367FM-12+002099999V0200601N004019999999N999999999-00321-00951100861ADDMA1999999100721MD1210081+9999REMSYN04801024 46/// /0604 11032 21095 30072 40086 52008=
0089010240999992015011114004+78650+016367FM-12+002099999V0200601N004019999999N999999999-00301-00911100881ADDMA1999999100751MD1210061+9999REMSYN04801024 46/// /0604 11030 21091 30075 40088 52006=
0089010240999992015011115004+78650+016367FM-12+002099999V0200701N003019999999N999999999-00341-00931100901ADDMA1999999100761MD1210061+9999REMSYN04801024 46/// /0703 11034 21093 30076 40090 52006=
0089010240999992015011116004+78650+016367FM-12+002099999V0200901N001019999999N999999999-00461-00961100921ADDMA1999999100791MD1210071+9999REMSYN04801024 46/// /0901 11046 21096 30079 40092 52007=
0089010240999992015011117004+78650+016367FM-12+002099999V0203501N001019999999N999999999-00401-00881100961ADDMA1999999100821MD1210071+9999REMSYN04801024 46/// /3501 11040 21088 30082 40096 52007=
0132010240999992015011118004+78650+016367FM-12+002099999V0202801N002019999999N999999999-00521-00931100971ADDKA1120M-00291MA1999999100841MD1210071+9999OD139900601999REMSYN06401024 46/// /2802 11052 21093 30084 40097 52007 333 11029 91106=
0089010240999992015011119004+78650+016367FM-12+002099999V0203001N001019999999N999999999-00511-00921100991ADDMA1999999100861MD1210071+9999REMSYN04801024 46/// /3001 11051 21092 30086 40099 52007=
0089010240999992015011120004+78650+016367FM-12+002099999V0203001N003019999999N999999999-00471-00871100991ADDMA1999999100861MD1210041+9999REMSYN04801024 46/// /3003 11047 21087 30086 40099 52004=
0089010240999992015011121004+78650+016367FM-12+002099999V0203001N003019999999N999999999-00501-00881101001ADDMA1999999100871MD1210031+9999REMSYN04801024 46/// /3003 11050 21088 30087 40100 52003=
0089010240999992015011122004+78650+016367FM-12+002099999V0203201N002019999999N999999999-00721-01081101031ADDMA1999999100891MD1210031+9999REMSYN04801024 46/// /3202 11072 21108 30089 40103 52003=
0089010240999992015011123004+78650+016367FM-12+002099999V0203001N003019999999N999999999-00811-01161101051ADDMA1999999100921MD1210061+9999REMSYN04801024 46/// /3003 11081 21116 30092 40105 52006=
0113010240999992015011200004+78650+016367FM-12+002099999V0203301N002019999999N999999999-00831-01171101061ADDMA1999999100921MD1210061+9999OD139900501999REMSYN05801024 46/// /3302 11083 21117 30092 40106 52006 333 91105=
0089010240999992015011201004+78650+016367FM-12+002099999V0209999C999999999999N999999999-00881-01191101081ADDMA1999999100941MD1210051+9999REMSYN04801024 46/// /0000 11088 21119 30094 40108 52005=
0108010240999992015011202004+78650+016367FM-12+002099999V0209999C999999999999N999999999-00961-01101101081ADDMA1999999100941MD1290039+9999REMSYN04801024 46/// /0000 11096 21110 30094 40108 54002=EQDQ01.2    3APC3  
0089010240999992015011203004+78650+016367FM-12+002099999V0209999C999999999999N999999999-00951-01091101061ADDMA1999999100921MD1510001+9999REMSYN04801024 46/// /0000 11095 21109 30092 40106 55000=
0089010240999992015011204004+78650+016367FM-12+002099999V0203201N001019999999N999999999-00941-01161101031ADDMA1999999100891MD1710051+9999REMSYN04801024 46/// /3201 11094 21116 30089 40103 57005=
0089010240999992015011205004+78650+016367FM-12+002099999V0209999C999999999999N999999999-01001-01171101031ADDMA1999999100891MD1710051+9999REMSYN04801024 46/// /0000 11100 21117 30089 40103 57005=
0132010240999992015011206004+78650+016367FM-12+002099999V0209999C999999999999N999999999-00961-01171101021ADDKA1240N-01081MA1999999100881MD1710031+9999OD139900201999REMSYN06401024 46/// /0000 11096 21117 30088 40102 57003 333 21108 91102=
0089010240999992015011207004+78650+016367FM-12+002099999V0209999C999999999999N999999999-01151-01381101031ADDMA1999999100891MD1410001+9999REMSYN04801024 46/// /0000 11115 21138 30089 40103 54000=
0108010240999992015011208004+78650+016367FM-12+002099999V0203001N001019999999N999999999-01171-01351101031ADDMA1999999100891MD1410009+9999REMSYN04801024 46/// /3001 11117 21135 30089 40103 54001=EQDQ01.1    3APC3  
0108010240999992015011209004+78650+016367FM-12+002099999V0203201N001019999999N999999999-01211-01471101041ADDMA1999999100901MD1290029+9999REMSYN04801024 46/// /3201 11121 21147 30090 40104 54002=EQDQ01.2    3APC3  
0089010240999992015011210004+78650+016367FM-12+002099999V0209999C999999999999N999999999-01121-01301101031ADDMA1999999100891MD1410001+9999REMSYN04801024 46/// /0000 11112 21130 30089 40103 54000=
0089010240999992015011211004+78650+016367FM-12+002099999V0209999C999999999999N999999999-01101-01291101001ADDMA1999999100861MD1610031+9999REMSYN04801024 46/// /0000 11110 21129 30086 40100 56003=
0113010240999992015011212004+78650+016367FM-12+002099999V0209999C999999999999N999999999-01291-01491100971ADDMA1999999100831MD1710071+9999OD139900201999REMSYN05801024 46/// /0000 11129 21149 30083 40097 57007 333 91102=
0089010240999992015011213004+78650+016367FM-12+002099999V0200401N001019999999N999999999-01131-01341100931ADDMA1999999100791MD1710101+9999REMSYN04801024 46/// /0401 11113 21134 30079 40093 57010=
0089010240999992015011214004+78650+016367FM-12+002099999V0203301N001019999999N999999999-01101-01251100901ADDMA1999999100761MD1710101+9999REMSYN04801024 46/// /3301 11110 21125 30076 40090 57010=
0089010240999992015011215004+78650+016367FM-12+002099999V0209999C999999999999N999999999-01251-01511100871ADDMA1999999100741MD1710091+9999REMSYN04801024 46/// /0000 11125 21151 30074 40087 57009=
0089010240999992015011217004+78650+016367FM-12+002099999V0209999C999999999999N999999999-01171-01441100821ADDMA1999999100691MD1710081+9999REMSYN04801024 46/// /0000 11117 21144 30069 40082 57008=
0089010240999992015011218004+78650+016367FM-12+002099999V0200701N001019999999N999999999-01231-01471100801ADDMA1999999100671MD1710071+9999REMSYN04801024 46/// /0701 11123 21147 30067 40080 57007=
0089010240999992015011219004+78650+016367FM-12+002099999V0200201N001019999999N999999999-01221-01491100781ADDMA1999999100641MD1710091+9999REMSYN04801024 46/// /0201 11122 21149 30064 40078 57009=
0089010240999992015011220004+78650+016367FM-12+002099999V0203101N001019999999N999999999-01211-01481100731ADDMA1999999100601MD1710091+9999REMSYN04801024 46/// /3101 11121 21148 30060 40073 57009=
0089010240999992015011221004+78650+016367FM-12+002099999V0209999C999999999999N999999999-01091-01341100701ADDMA1999999100561MD1710101+9999REMSYN04801024 46/// /0000 11109 21134 30056 40070 57010=
0089010240999992015011222004+78650+016367FM-12+002099999V0203301N001019999999N999999999-01101-01361100651ADDMA1999999100511MD1710131+9999REMSYN04801024 46/// /3301 11110 21136 30051 40065 57013=
0089010240999992015011223004+78650+016367FM-12+002099999V0203201N001019999999N999999999-01031-01311100591ADDMA1999999100461MD1710141+9999REMSYN04801024 46/// /3201 11103 21131 30046 40059 57014=
0113010240999992015011300004+78650+016367FM-12+002099999V0203201N001019999999N999999999-01061-01291100541ADDMA1999999100401MD1710161+9999OD139900201999REMSYN05801024 46/// /3201 11106 21129 30040 40054 57016 333 91102=
0089010240999992015011301004+78650+016367FM-12+002099999V0203601N001019999999N999999999-00991-01251100501ADDMA1999999100361MD1710151+9999REMSYN04801024 46/// /3601 11099 21125 30036 40050 57015=
0089010240999992015011303004+78650+016367FM-12+002099999V0209999C999999999999N999999999-00981-01331100371ADDMA1999999100241MD1610171+9999REMSYN04801024 46/// /0000 11098 21133 30024 40037 56017=
0089010240999992015011304004+78650+016367FM-12+002099999V0203201N001019999999N999999999-00971-01321100341ADDMA1999999100201MD1710161+9999REMSYN04801024 46/// /3201 11097 21132 30020 40034 57016=
0089010240999992015011305004+78650+016367FM-12+002099999V0200101N004019999999N999999999-00361-00841100301ADDMA1999999100161MD1810141+9999REMSYN04801024 46/// /0104 11036 21084 30016 40030 58014=
0089010240999992015011306004+78650+016367FM-12+002099999V0200101N004019999999N999999999-00331-00901100261ADDMA1999999100131MD1710111+9999REMSYN04801024 46/// /0104 11033 21090 30013 40026 57011=
0089010240999992015011307004+78650+016367FM-12+002099999V0200101N001019999999N999999999-00721-01111100261ADDMA1999999100131MD1810071+9999REMSYN04801024 46/// /0101 11072 21111 30013 40026 58007=
0089010240999992015011308004+78650+016367FM-12+002099999V0201001N003019999999N999999999-00591-01131100291ADDMA1999999100161MD1990001+9999REMSYN04801024 46/// /1003 11059 21113 30016 40029 50000=
0089010240999992015011309004+78650+016367FM-12+002099999V0200701N003019999999N999999999-00671-01251100331ADDMA1999999100201MD1110071+9999REMSYN04801024 46/// /0703 11067 21125 30020 40033 51007=
0089010240999992015011310004+78650+016367FM-12+002099999V0201201N005019999999N999999999-00811-01281100351ADDMA1999999100221MD1210091+9999REMSYN04801024 46/// /1205 11081 21128 30022 40035 52009=
0089010240999992015011312004+78650+016367FM-12+002099999V0201101N007019999999N999999999-00891-01421100471ADDMA1999999100331MD1110131+9999REMSYN04801024 46/// /1107 11089 21142 30033 40047 51013=
0089010240999992015011313004+78650+016367FM-12+002099999V0201101N008019999999N999999999-00861-01411100491ADDMA1999999100361MD1210141+9999REMSYN04801024 46/// /1108 11086 21141 30036 40049 52014=
0089010240999992015011314004+78650+016367FM-12+002099999V0200601N006019999999N999999999-00851-01421100541ADDMA1999999100411MD1210151+9999REMSYN04801024 46/// /0606 11085 21142 30041 40054 52015=
0089010240999992015011315004+78650+016367FM-12+002099999V0200601N005019999999N999999999-00801-01391100531ADDMA1999999100391MD1310071+9999REMSYN04801024 46/// /0605 11080 21139 30039 40053 53007=
0089010240999992015011316004+78650+016367FM-12+002099999V0200801N004019999999N999999999-00821-01391100531ADDMA1999999100401MD1310041+9999REMSYN04801024 46/// /0804 11082 21139 30040 40053 53004=
0089010240999992015011317004+78650+016367FM-12+002099999V0200801N003019999999N999999999-00861-01431100501ADDMA1999999100361MD1710041+9999REMSYN04801024 46/// /0803 11086 21143 30036 40050 57004=
0132010240999992015011318004+78650+016367FM-12+002099999V0200701N002019999999N999999999-00891-01531100501ADDMA1999999100361MD1790039+9999OD139901201999REMSYN05801024 46/// /0702 11089 21153 30036 40050 54003 333 91112=EQDQ01.3    3APC3  
0089010240999992015011319004+78650+016367FM-12+002099999V0203301N001019999999N999999999-01111-01601100491ADDMA1999999100351MD1710041+9999REMSYN04801024 46/// /3301 11111 21160 30035 40049 57004=
0089010240999992015011320004+78650+016367FM-12+002099999V0203201N003019999999N999999999-01131-01651100501ADDMA1999999100371MD1410001+9999REMSYN04801024 46/// /3203 11113 21165 30037 40050 54000=
0108010240999992015011321004+78650+016367FM-12+002099999V0203201N002019999999N999999999-01061-01601100511ADDMA1999999100371MD1290019+9999REMSYN04801024 46/// /3202 11106 21160 30037 40051 54001=EQDQ01.1    3APC3  
0089010240999992015011322004+78650+016367FM-12+002099999V0200701N008019999999N999999999-00951-01531100531ADDMA1999999100391MD1210041+9999REMSYN04801024 46/// /0708 11095 21153 30039 40053 52004=
0089010240999992015011323004+78650+016367FM-12+002099999V0200801N006019999999N999999999-00851-01421100551ADDMA1999999100411MD1210041+9999REMSYN04801024 46/// /0806 11085 21142 30041 40055 52004=
0113010240999992015011400004+78650+016367FM-12+002099999V0200801N005019999999N999999999-00841-01391100531ADDMA1999999100391MD1510021+9999OD139901101999REMSYN05801024 46/// /0805 11084 21139 30039 40053 55002 333 91111=
0089010240999992015011401004+78650+016367FM-12+002099999V0200801N005019999999N999999999-00831-01421100531ADDMA1999999100391MD1410001+9999REMSYN04801024 46/// /0805 11083 21142 30039 40053 54000=
0108010240999992015011402004+78650+016367FM-12+002099999V0200801N006019999999N999999999-00861-01451100521ADDMA1999999100381MD1790039+9999REMSYN04801024 46/// /0806 11086 21145 30038 40052 54003=EQDQ01.3    3APC3  
0108010240999992015011403004+78650+016367FM-12+002099999V0200601N005019999999N999999999-00921-01521100511ADDMA1999999100371MD1790029+9999REMSYN04801024 46/// /0605 11092 21152 30037 40051 54002=EQDQ01.2    3APC3  
0108010240999992015011404004+78650+016367FM-12+002099999V0200701N005019999999N999999999-00971-01571100501ADDMA1999999100371MD1790039+9999REMSYN04801024 46/// /0705 11097 21157 30037 40050 54002=EQDQ01.2    3APC3  
0089010240999992015011405004+78650+016367FM-12+002099999V0200701N004019999999N999999999-00991-01631100461ADDMA1999999100321MD1610061+9999REMSYN04801024 46/// /0704 11099 21163 30032 40046 56006=
0132010240999992015011406004+78650+016367FM-12+002099999V0200901N004019999999N999999999-00971-01691100441ADDKA1240N-01411MA1999999100301MD1710071+9999OD139901101999REMSYN06401024 46/// /0904 11097 21169 30030 40044 57007 333 21141 91111=
0089010240999992015011407004+78650+016367FM-12+002099999V0201101N001019999999N999999999-00981-01781100471ADDMA1999999100331MD1810041+9999REMSYN04801024 46/// /1101 11098 21178 30033 40047 58004=
0089010240999992015011408004+78650+016367FM-12+002099999V0200801N002019999999N999999999-01081-01851100531ADDMA1999999100401MD1110071+9999REMSYN04801024 46/// /0802 11108 21185 30040 40053 51007=
0089010240999992015011409004+78650+016367FM-12+002099999V0201001N004019999999N999999999-00971-01801100511ADDMA1999999100371MD1310071+9999REMSYN04801024 46/// /1004 11097 21180 30037 40051 53007=
0089010240999992015011410004+78650+016367FM-12+002099999V0202901N002019999999N999999999-01021-01961100521ADDMA1999999100381MD1310051+9999REMSYN04801024 46/// /2902 11102 21196 30038 40052 53005=
0089010240999992015011411004+78650+016367FM-12+002099999V0203301N002019999999N999999999-01041-01951100541ADDMA1999999100411MD1990011+9999REMSYN04801024 46/// /3302 11104 21195 30041 40054 50001=
0113010240999992015011412004+78650+016367FM-12+002099999V0203401N002019999999N999999999-01101-01961100551ADDMA1999999100411MD1210041+9999OD139900901999REMSYN05801024 46/// /3402 11110 21196 30041 40055 52004 333 91109=
0089010240999992015011413004+78650+016367FM-12+002099999V0203101N001019999999N999999999-01341-02001100561ADDMA1999999100431MD1210051+9999REMSYN04801024 46/// /3101 11134 21200 30043 40056 52005=
0089010240999992015011414004+78650+016367FM-12+002099999V0202901N002019999999N999999999-01431-02161100591ADDMA1999999100451MD1210041+9999REMSYN04801024 46/// /2902 11143 21216 30045 40059 52004=
0089010240999992015011415004+78650+016367FM-12+002099999V0203301N002019999999N999999999-01231-01841100591ADDMA1999999100461MD1210041+9999REMSYN04801024 46/// /3302 11123 21184 30046 40059 52004=
0108010240999992015011416004+78650+016367FM-12+002099999V0200301N001019999999N999999999-01191-02021100591ADDMA1999999100451MD1290039+9999REMSYN04801024 46/// /0301 11119 21202 30045 40059 54002=EQDQ01.2    3APC3  
0108010240999992015011417004+78650+016367FM-12+002099999V0203201N001019999999N999999999-01271-02031100581ADDMA1999999100441MD1790019+9999REMSYN04801024 46/// /3201 11127 21203 30044 40058 54001=EQDQ01.1    3APC3  
0151010240999992015011418004+78650+016367FM-12+002099999V0203301N001019999999N999999999-01261-01941100581ADDKA1120M-00911MA1999999100441MD1790019+9999OD139900401999REMSYN06401024 46/// /3301 11126 21194 30044 40058 54001 333 11091 91104=EQDQ01.1    3APC3  
0089010240999992015011419004+78650+016367FM-12+002099999V0202901N001019999999N999999999-01331-02091100581ADDMA1999999100451MD1410001+9999REMSYN04801024 46/// /2901 11133 21209 30045 40058 54000=
0108010240999992015011420004+78650+016367FM-12+002099999V0203301N001019999999N999999999-01221-01991100601ADDMA1999999100461MD1290029+9999REMSYN04801024 46/// /3301 11122 21199 30046 40060 54002=EQDQ01.2    3APC3  
0108010240999992015011421004+78650+016367FM-12+002099999V0203201N001019999999N999999999-01271-02061100601ADDMA1999999100461MD1290029+9999REMSYN04801024 46/// /3201 11127 21206 30046 40060 54002=EQDQ01.2    3APC3  
0108010240999992015011422004+78650+016367FM-12+002099999V0203201N002019999999N999999999-01281-01941100611ADDMA1999999100471MD1290039+9999REMSYN04801024 46/// /3202 11128 21194 30047 40061 54002=EQDQ01.2    3APC3  
0108010240999992015011423004+78650+016367FM-12+002099999V0203301N001019999999N999999999-01271-02011100611ADDMA1999999100471MD1290019+9999REMSYN04801024 46/// /3301 11127 21201 30047 40061 54001=EQDQ01.1    3APC3  
0132010240999992015011500004+78650+016367FM-12+002099999V0203201N001019999999N999999999-01281-01961100621ADDMA1999999100481MD1290029+9999OD139900301999REMSYN05801024 46/// /3201 11128 21196 30048 40062 54002 333 91103=EQDQ01.2    3APC3  
0108010240999992015011501004+78650+016367FM-12+002099999V0203001N001019999999N999999999-01371-01941100631ADDMA1999999100491MD1290029+9999REMSYN04801024 46/// /3001 11137 21194 30049 40063 54002=EQDQ01.2    3APC3  
0108010240999992015011502004+78650+016367FM-12+002099999V0203301N001019999999N999999999-01401-01951100621ADDMA1999999100481MD1290019+9999REMSYN04801024 46/// /3301 11140 21195 30048 40062 54001=EQDQ01.1    3APC3  
0089010240999992015011503004+78650+016367FM-12+002099999V0209999C999999999999N999999999-01381-01861100621ADDMA1999999100481MD1410001+9999REMSYN04801024 46/// /0000 11138 21186 30048 40062 54000=
0089010240999992015011504004+78650+016367FM-12+002099999V0209999C999999999999N999999999-01481-01941100601ADDMA1999999100461MD1710031+9999REMSYN04801024 46/// /0000 11148 21194 30046 40060 57003=
0089010240999992015011505004+78650+016367FM-12+002099999V0203001N001019999999N999999999-01531-02041100581ADDMA1999999100441MD1710041+9999REMSYN04801024 46/// /3001 11153 21204 30044 40058 57004=
0132010240999992015011506004+78650+016367FM-12+002099999V0209999C999999999999N999999999-01531-02001100591ADDKA1240N-01611MA1999999100451MD1710031+9999OD139900201999REMSYN06401024 46/// /0000 11153 21200 30045 40059 57003 333 21161 91102=
0108010240999992015011507004+78650+016367FM-12+002099999V0209999C999999999999N999999999-01521-01991100571ADDMA1999999100431MD1790039+9999REMSYN04801024 46/// /0000 11152 21199 30043 40057 54003=EQDQ01.3    3APC3  
0089010240999992015011508004+78650+016367FM-12+002099999V0209999C999999999999N999999999-01471-01931100581ADDMA1999999100441MD1410001+9999REMSYN04801024 46/// /0000 11147 21193 30044 40058 54000=
0108010240999992015011509004+78650+016367FM-12+002099999V0203201N001019999999N999999999-01481-01941100571ADDMA1999999100431MD1790029+9999REMSYN04801024 46/// /3201 11148 21194 30043 40057 54002=EQDQ01.2    3APC3  
0108010240999992015011510004+78650+016367FM-12+002099999V0203201N001019999999N999999999-01531-02051100551ADDMA1999999100411MD1790029+9999REMSYN04801024 46/// /3201 11153 21205 30041 40055 54002=EQDQ01.2    3APC3  
0108010240999992015011511004+78650+016367FM-12+002099999V0209999C999999999999N999999999-01441-01971100551ADDMA1999999100411MD1790039+9999REMSYN04801024 46/// /0000 11144 21197 30041 40055 54003=EQDQ01.3    3APC3  
0132010240999992015011512004+78650+016367FM-12+002099999V0203201N001019999999N999999999-01481-01991100551ADDMA1999999100421MD1790029+9999OD139900101999REMSYN05801024 46/// /3201 11148 21199 30042 40055 54001 333 91101=EQDQ01.1    3APC3  
0108010240999992015011513004+78650+016367FM-12+002099999V0209999C999999999999N999999999-01461-02001100541ADDMA1999999100401MD1790019+9999REMSYN04801024 46/// /0000 11146 21200 30040 40054 54001=EQDQ01.1    3APC3  
0089010240999992015011514004+78650+016367FM-12+002099999V0203201N001019999999N999999999-01501-02021100551ADDMA1999999100411MD1410001+9999REMSYN04801024 46/// /3201 11150 21202 30041 40055 54000=
0089010240999992015011515004+78650+016367FM-12+002099999V0209999C999999999999N999999999-01481-02021100571ADDMA1999999100431MD1990021+9999REMSYN04801024 46/// /0000 11148 21202 30043 40057 50002=
0089010240999992015011517004+78650+016367FM-12+002099999V0203001N001019999999N999999999-01571-02201100601ADDMA1999999100461MD1210051+9999REMSYN04801024 46/// /3001 11157 21220 30046 40060 52005=
0089010240999992015011518004+78650+016367FM-12+002099999V0203101N001019999999N999999999-01401-02201100661ADDMA1999999100521MD1110091+9999REMSYN04801024 46/// /3101 11140 21220 30052 40066 51009=
0089010240999992015011519004+78650+016367FM-12+002099999V0203101N001019999999N999999999-01311-02051100711ADDMA1999999100571MD1210131+9999REMSYN04801024 46/// /3101 11131 21205 30057 40071 52013=
0089010240999992015011520004+78650+016367FM-12+002099999V0203101N001019999999N999999999-01381-02201100751ADDMA1999999100621MD1210151+9999REMSYN04801024 46/// /3101 11138 21220 30062 40075 52015=
0089010240999992015011521004+78650+016367FM-12+002099999V0203201N002019999999N999999999-01341-02141100801ADDMA1999999100671MD1210151+9999REMSYN04801024 46/// /3202 11134 21214 30067 40080 52015=
0089010240999992015011522004+78650+016367FM-12+002099999V0203201N002019999999N999999999-01351-02131100851ADDMA1999999100711MD1210141+9999REMSYN04801024 46/// /3202 11135 21213 30071 40085 52014=
0089010240999992015011523004+78650+016367FM-12+002099999V0203301N002019999999N999999999-01321-02061100881ADDMA1999999100741MD1210121+9999REMSYN04801024 46/// /3302 11132 21206 30074 40088 52012=
0113010240999992015011600004+78650+016367FM-12+002099999V0203101N001019999999N999999999-01391-02111100931ADDMA1999999100791MD1210131+9999OD139900301999REMSYN05801024 46/// /3101 11139 21211 30079 40093 52013 333 91103=
0089010240999992015011601004+78650+016367FM-12+002099999V0200901N003019999999N999999999-01281-01981100941ADDMA1999999100801MD1210091+9999REMSYN04801024 46/// /0903 11128 21198 30080 40094 52009=
0089010240999992015011602004+78650+016367FM-12+002099999V0200901N008019999999N999999999-01321-01891100961ADDMA1999999100821MD1310081+9999REMSYN04801024 46/// /0908 11132 21189 30082 40096 53008=
0089010240999992015011603004+78650+016367FM-12+002099999V0200901N006019999999N999999999-01291-01911100971ADDMA1999999100831MD1210041+9999REMSYN04801024 46/// /0906 11129 21191 30083 40097 52004=
0089010240999992015011604004+78650+016367FM-12+002099999V0200801N005019999999N999999999-01301-01921100981ADDMA1999999100841MD1210041+9999REMSYN04801024 46/// /0805 11130 21192 30084 40098 52004=
0108010240999992015011605004+78650+016367FM-12+002099999V0201101N004019999999N999999999-01281-01921100981ADDMA1999999100841MD1290029+9999REMSYN04801024 46/// /1104 11128 21192 30084 40098 54002=EQDQ014     3APCTEN
0151010240999992015011606004+78650+016367FM-12+002099999V0200301N002019999999N999999999-01301-01941101001ADDKA1240N-01541MA1999999100861MD1290039+9999OD139901101999REMSYN06401024 46/// /0302 11130 21194 30086 40100 54003 333 21154 91111=EQDQ01.3    3APC3  
0089010240999992015011607004+78650+016367FM-12+002099999V0200801N004019999999N999999999-01261-02001101041ADDMA1999999100901MD1110061+9999REMSYN04801024 46/// /0804 11126 21200 30090 40104 51006=
0089010240999992015011608004+78650+016367FM-12+002099999V0200701N004019999999N999999999-01291-02031101061ADDMA1999999100931MD1210091+9999REMSYN04801024 46/// /0704 11129 21203 30093 40106 52009=
0089010240999992015011609004+78650+016367FM-12+002099999V0201001N005019999999N999999999-01331-01861101091ADDMA1999999100951MD1210091+9999REMSYN04801024 46/// /1005 11133 21186 30095 40109 52009=
0089010240999992015011610004+78650+016367FM-12+002099999V0200801N003019999999N999999999-01431-02071101111ADDMA1999999100971MD1210071+9999REMSYN04801024 46/// /0803 11143 21207 30097 40111 52007=
0089010240999992015011611004+78650+016367FM-12+002099999V0203101N002019999999N999999999-01631-02151101121ADDMA1999999100981MD1210051+9999REMSYN04801024 46/// /3102 11163 21215 30098 40112 52005=
0113010240999992015011612004+78650+016367FM-12+002099999V0202801N001019999999N999999999-01831-02361101111ADDMA1999999100971MD1510021+9999OD139900801999REMSYN05801024 46/// /2801 11183 21236 30097 40111 55002 333 91108=
0108010240999992015011613004+78650+016367FM-12+002099999V0209999C999999999999N999999999-01871-02351101091ADDMA1999999100951MD1790029+9999REMSYN04801024 46/// /0000 11187 21235 30095 40109 54002=EQDQ01.2    3APC3  
0089010240999992015011614004+78650+016367FM-12+002099999V0203001N001019999999N999999999-01881-02371101111ADDMA1999999100971MD1990011+9999REMSYN04801024 46/// /3001 11188 21237 30097 40111 50001=
0089010240999992015011615004+78650+016367FM-12+002099999V0202801N002019999999N999999999-01841-02351101111ADDMA1999999100961MD1410001+9999REMSYN04801024 46/// /2802 11184 21235 30096 40111 54000=
0089010240999992015011616004+78650+016367FM-12+002099999V0203401N002019999999N999999999-01761-02191101091ADDMA1999999100951MD1510001+9999REMSYN04801024 46/// /3402 11176 21219 30095 40109 55000=
0108010240999992015011617004+78650+016367FM-12+002099999V0202901N002019999999N999999999-01871-02321101101ADDMA1999999100961MD1790019+9999REMSYN04801024 46/// /2902 11187 21232 30096 40110 54001=EQDQ01.1    3APC3  
0132010240999992015011618004+78650+016367FM-12+002099999V0203101N001019999999N999999999-01831-02311101131ADDKA1120M-01251MA1999999100991MD1990031+9999OD139900501999REMSYN06401024 46/// /3101 11183 21231 30099 40113 50003 333 11125 91105=
0089010240999992015011619004+78650+016367FM-12+002099999V0203201N001019999999N999999999-01671-02081101091ADDMA1999999100951MD1510011+9999REMSYN04801024 46/// /3201 11167 21208 30095 40109 55001=
0108010240999992015011620004+78650+016367FM-12+002099999V0203201N001019999999N999999999-01731-02181101111ADDMA1999999100971MD1290019+9999REMSYN04801024 46/// /3201 11173 21218 30097 40111 54001=EQDQ01.1    3APC3  
0089010240999992015011621004+78650+016367FM-12+002099999V0203501N001019999999N999999999-01691-02101101131ADDMA1999999100991MD1990001+9999REMSYN04801024 46/// /3501 11169 21210 30099 40113 50000=
0089010240999992015011622004+78650+016367FM-12+002099999V0202901N003019999999N999999999-01781-02281101151ADDMA1999999101011MD1210061+9999REMSYN04801024 46/// /2903 11178 21228 30101 40115 52006=
0089010240999992015011623004+78650+016367FM-12+002099999V0209999C999999999999N999999999-01751-02171101171ADDMA1999999101031MD1210061+9999REMSYN04801024 46/// /0000 11175 21217 30103 40117 52006=
0113010240999992015011700004+78650+016367FM-12+002099999V0203301N001019999999N999999999-01681-02061101191ADDMA1999999101041MD1210051+9999OD139900601999REMSYN05801024 46/// /3301 11168 21206 30104 40119 52005 333 91106=
0089010240999992015011701004+78650+016367FM-12+002099999V0202901N002019999999N999999999-01751-02081101201ADDMA1999999101061MD1210051+9999REMSYN04801024 46/// /2902 11175 21208 30106 40120 52005=
0089010240999992015011702004+78650+016367FM-12+002099999V0203101N001019999999N999999999-01761-02091101231ADDMA1999999101091MD1210061+9999REMSYN04801024 46/// /3101 11176 21209 30109 40123 52006=
0089010240999992015011703004+78650+016367FM-12+002099999V0202901N001019999999N999999999-01951-02261101251ADDMA1999999101101MD1210061+9999REMSYN04801024 46/// /2901 11195 21226 30110 40125 52006=
0089010240999992015011704004+78650+016367FM-12+002099999V0203301N001019999999N999999999-01731-02021101241ADDMA1999999101101MD1310051+9999REMSYN04801024 46/// /3301 11173 21202 30110 40124 53005=
0089010240999992015011705004+78650+016367FM-12+002099999V0203201N001019999999N999999999-01831-02091101261ADDMA1999999101121MD1210031+9999REMSYN04801024 46/// /3201 11183 21209 30112 40126 52003=
0132010240999992015011706004+78650+016367FM-12+002099999V0203201N002019999999N999999999-01811-02041101291ADDKA1240N-01971MA1999999101141MD1210041+9999OD139900201999REMSYN06401024 46/// /3202 11181 21204 30114 40129 52004 333 21197 91102=
0089010240999992015011708004+78650+016367FM-12+002099999V0203201N001019999999N999999999-01751-02001101371ADDMA1999999101221MD1210101+9999REMSYN04801024 46/// /3201 11175 21200 30122 40137 52010=
0089010240999992015011709004+78650+016367FM-12+002099999V0203101N001019999999N999999999-01811-02041101411ADDMA1999999101271MD1210131+9999REMSYN04801024 46/// /3101 11181 21204 30127 40141 52013=
0089010240999992015011711004+78650+016367FM-12+002099999V0209999C999999999999N999999999-01851-02071101471ADDMA1999999101331MD1210101+9999REMSYN04801024 46/// /0000 11185 21207 30133 40147 52010=
0089010240999992015011712004+78650+016367FM-12+002099999V0209999C999999999999N999999999-01851-02081101501ADDMA1999999101361MD1210091+9999REMSYN04801024 46/// /0000 11185 21208 30136 40150 52009=
0089010240999992015011713004+78650+016367FM-12+002099999V0209999C999999999999N999999999-01911-02131101521ADDMA1999999101371MD1210071+9999REMSYN04801024 46/// /0000 11191 21213 30137 40152 52007=
0089010240999992015011714004+78650+016367FM-12+002099999V0203101N001019999999N999999999-01841-02091101531ADDMA1999999101391MD1210061+9999REMSYN04801024 46/// /3101 11184 21209 30139 40153 52006=
0089010240999992015011715004+78650+016367FM-12+002099999V0209999C999999999999N999999999-01891-02181101561ADDMA1999999101411MD1210061+9999REMSYN04801024 46/// /0000 11189 21218 30141 40156 52006=
0089010240999992015011716004+78650+016367FM-12+002099999V0203401N001019999999N999999999-01881-02151101581ADDMA1999999101431MD1210061+9999REMSYN04801024 46/// /3401 11188 21215 30143 40158 52006=
0089010240999992015011717004+78650+016367FM-12+002099999V0203201N001019999999N999999999-01951-02251101611ADDMA1999999101461MD1210081+9999REMSYN04801024 46/// /3201 11195 21225 30146 40161 52008=
0113010240999992015011718004+78650+016367FM-12+002099999V0209999C999999999999N999999999-01951-02261101621ADDMA1999999101471MD1210061+9999OD139900101999REMSYN05801024 46/// /0000 11195 21226 30147 40162 52006 333 91101=
0089010240999992015011719004+78650+016367FM-12+002099999V0209999C999999999999N999999999-01891-02221101651ADDMA1999999101511MD1210081+9999REMSYN04801024 46/// /0000 11189 21222 30151 40165 52008=
0089010240999992015011720004+78650+016367FM-12+002099999V0209999C999999999999N999999999-01951-02331101701ADDMA1999999101561MD1110091+9999REMSYN04801024 46/// /0000 11195 21233 30156 40170 51009=
0089010240999992015011721004+78650+016367FM-12+002099999V0209999C999999999999N999999999-01851-02191101751ADDMA1999999101601MD1210131+9999REMSYN04801024 46/// /0000 11185 21219 30160 40175 52013=
0089010240999992015011722004+78650+016367FM-12+002099999V0209999C999999999999N999999999-02001-02351101791ADDMA1999999101651MD1210141+9999REMSYN04801024 46/// /0000 11200 21235 30165 40179 52014=
0089010240999992015011723004+78650+016367FM-12+002099999V0200101N001019999999N999999999-01801-02171101801ADDMA1999999101661MD1310101+9999REMSYN04801024 46/// /0101 11180 21217 30166 40180 53010=
0113010240999992015011800004+78650+016367FM-12+002099999V0209999C999999999999N999999999-01881-02261101811ADDMA1999999101661MD1310061+9999OD139900201999REMSYN05801024 46/// /0000 11188 21226 30166 40181 53006 333 91102=
0108010240999992015011801004+78650+016367FM-12+002099999V0203001N001019999999N999999999-02061-02451101811ADDMA1999999101661MD1290029+9999REMSYN04801024 46/// /3001 11206 21245 30166 40181 54001=EQDQ01.1    3APC3  
0108010240999992015011802004+78650+016367FM-12+002099999V0203101N001019999999N999999999-01921-02261101821ADDMA1999999101681MD1290029+9999REMSYN04801024 46/// /3101 11192 21226 30168 40182 54002=EQDQ01.2    3APC3  
0108010240999992015011803004+78650+016367FM-12+002099999V0209999C999999999999N999999999-01791-02211101821ADDMA1999999101671MD1290019+9999REMSYN04801024 46/// /0000 11179 21221 30167 40182 54001=EQDQ01.1    3APC3  
0089010240999992015011804004+78650+016367FM-12+002099999V0203001N001019999999N999999999-01981-02361101791ADDMA1999999101651MD1510011+9999REMSYN04801024 46/// /3001 11198 21236 30165 40179 55001=
0089010240999992015011805004+78650+016367FM-12+002099999V0203201N001019999999N999999999-01871-02251101781ADDMA1999999101631MD1710051+9999REMSYN04801024 46/// /3201 11187 21225 30163 40178 57005=
0132010240999992015011806004+78650+016367FM-12+002099999V0200501N001019999999N999999999-01841-02151101771ADDKA1240N-02201MA1999999101621MD1710051+9999OD139900201999REMSYN06401024 46/// /0501 11184 21215 30162 40177 57005 333 21220 91102=
0089010240999992015011807004+78650+016367FM-12+002099999V0203201N001019999999N999999999-01681-02011101731ADDMA1999999101591MD1710071+9999REMSYN04801024 46/// /3201 11168 21201 30159 40173 57007=
0089010240999992015011808004+78650+016367FM-12+002099999V0200701N001019999999N999999999-01601-01921101671ADDMA1999999101531MD1610101+9999REMSYN04801024 46/// /0701 11160 21192 30153 40167 56010=
0089010240999992015011809004+78650+016367FM-12+002099999V0202901N001019999999N999999999-01611-01931101621ADDMA1999999101481MD1710141+9999REMSYN04801024 46/// /2901 11161 21193 30148 40162 57014=
0089010240999992015011810004+78650+016367FM-12+002099999V0203501N001019999999N999999999-01481-01711101521ADDMA1999999101381MD1610201+9999REMSYN04801024 46/// /3501 11148 21171 30138 40152 56020=
0089010240999992015011811004+78650+016367FM-12+002099999V0200901N001019999999N999999999-01401-01561101461ADDMA1999999101321MD1710221+9999REMSYN04801024 46/// /0901 11140 21156 30132 40146 57022=
0113010240999992015011812004+78650+016367FM-12+002099999V0209999C999999999999N999999999-01411-01521101341ADDMA1999999101201MD1710281+9999OD139900201999REMSYN05801024 46/// /0000 11141 21152 30120 40134 57028 333 91102=
0089010240999992015011813004+78650+016367FM-12+002099999V0203301N001019999999N999999999-01391-01491101221ADDMA1999999101081MD1610301+9999REMSYN04801024 46/// /3301 11139 21149 30108 40122 56030=
0089010240999992015011814004+78650+016367FM-12+002099999V0209999C999999999999N999999999-01351-01421101151ADDMA1999999101011MD1810301+9999REMSYN04801024 46/// /0000 11135 21142 30101 40115 58030=
0089010240999992015011815004+78650+016367FM-12+002099999V0209999C999999999999N999999999-01301-01361101101ADDMA1999999100961MD1810241+9999REMSYN04801024 46/// /0000 11130 21136 30096 40110 58024=
0089010240999992015011816004+78650+016367FM-12+002099999V0201301N001019999999N999999999-01321-01401101051ADDMA1999999100911MD1710171+9999REMSYN04801024 46/// /1301 11132 21140 30091 40105 57017=
0089010240999992015011817004+78650+016367FM-12+002099999V0209999C999999999999N999999999-01311-01401101041ADDMA1999999100901MD1810121+9999REMSYN04801024 46/// /0000 11131 21140 30090 40104 58012=
0132010240999992015011818004+78650+016367FM-12+002099999V0202901N005019999999N999999999-00991-01331101051ADDKA1120M-00971MA1999999100911MD1810051+9999OD139900601999REMSYN06401024 46/// /2905 11099 21133 30091 40105 58005 333 11097 91106=
0089010240999992015011819004+78650+016367FM-12+002099999V0203201N004019999999N999999999-01111-01491101111ADDMA1999999100971MD1110071+9999REMSYN04801024 46/// /3204 11111 21149 30097 40111 51007=
0089010240999992015011820004+78650+016367FM-12+002099999V0203001N006019999999N999999999-01111-01631101191ADDMA1999999101051MD1110151+9999REMSYN04801024 46/// /3006 11111 21163 30105 40119 51015=
0089010240999992015011821004+78650+016367FM-12+002099999V0203101N006019999999N999999999-01211-01681101321ADDMA1999999101181MD1110271+9999REMSYN04801024 46/// /3106 11121 21168 30118 40132 51027=
0089010240999992015011822004+78650+016367FM-12+002099999V0203101N005019999999N999999999-01271-01751101331ADDMA1999999101191MD1310221+9999REMSYN04801024 46/// /3105 11127 21175 30119 40133 53022=
0089010240999992015011823004+78650+016367FM-12+002099999V0203101N002019999999N999999999-01271-01861101441ADDMA1999999101301MD1210251+9999REMSYN04801024 46/// /3102 11127 21186 30130 40144 52025=
0113010240999992015011900004+78650+016367FM-12+002099999V0203101N003019999999N999999999-01281-01871101471ADDMA1999999101331MD1210151+9999OD139900801999REMSYN05801024 46/// /3103 11128 21187 30133 40147 52015 333 91108=
0089010240999992015011901004+78650+016367FM-12+002099999V0209999C999999999999N999999999-01251-01821101491ADDMA1999999101351MD1310161+9999REMSYN04801024 46/// /0000 11125 21182 30135 40149 53016=
0089010240999992015011902004+78650+016367FM-12+002099999V0200601N001019999999N999999999-01281-01781101441ADDMA1999999101301MD1510001+9999REMSYN04801024 46/// /0601 11128 21178 30130 40144 55000=
0089010240999992015011903004+78650+016367FM-12+002099999V0209999C999999999999N999999999-01351-01801101401ADDMA1999999101261MD1610071+9999REMSYN04801024 46/// /0000 11135 21180 30126 40140 56007=
0089010240999992015011904004+78650+016367FM-12+002099999V0203101N001019999999N999999999-01391-01791101331ADDMA1999999101191MD1710161+9999REMSYN04801024 46/// /3101 11139 21179 30119 40133 57016=
0089010240999992015011905004+78650+016367FM-12+002099999V0203001N001019999999N999999999-01281-01701101231ADDMA1999999101091MD1610211+9999REMSYN04801024 46/// /3001 11128 21170 30109 40123 56021=
0132010240999992015011906004+78650+016367FM-12+002099999V0203201N002019999999N999999999-01231-01621101101ADDKA1240N-01511MA1999999100961MD1610301+9999OD139900401999REMSYN06401024 46/// /3202 11123 21162 30096 40110 56030 333 21151 91104=
0089010240999992015011907004+78650+016367FM-12+002099999V0203001N003019999999N999999999-01201-01521100991ADDMA1999999100851MD1710341+9999REMSYN04801024 46/// /3003 11120 21152 30085 40099 57034=
0089010240999992015011908004+78650+016367FM-12+002099999V0202901N003019999999N999999999-01171-01381100871ADDMA1999999100731MD1710361+9999REMSYN04801024 46/// /2903 11117 21138 30073 40087 57036=
0089010240999992015011909004+78650+016367FM-12+002099999V0203101N002019999999N999999999-01101-01191100731ADDMA1999999100591MD1710371+9999REMSYN04801024 46/// /3102 11110 21119 30059 40073 57037=
0089010240999992015011911004+78650+016367FM-12+002099999V0201001N001019999999N999999999-01081-01091100471ADDMA1999999100331MD1710401+9999REMSYN04801024 46/// /1001 11108 21109 30033 40047 57040=
0089010240999992015011912004+78650+016367FM-12+002099999V0209999C999999999999N999999999-01081-01091100351ADDMA1999999100221MD1710381+9999REMSYN04801024 46/// /0000 11108 21109 30022 40035 57038=
0089010240999992015011914004+78650+016367FM-12+002099999V0200101N001019999999N999999999-00601-00611100141ADDMA1999999100001MD1710331+9999REMSYN04801024 46/// /0101 11060 21061 30000 40014 57033=
0089010240999992015011915004+78650+016367FM-12+002099999V0203001N007019999999N999999999-00301-00401100051ADDMA1999999099911MD1710301+9999REMSYN04801024 46/// /3007 11030 21040 39991 40005 57030=
0089010240999992015011916004+78650+016367FM-12+002099999V0202901N005019999999N999999999-00261-00511100051ADDMA1999999099921MD1810191+9999REMSYN04801024 46/// /2905 11026 21051 39992 40005 58019=
0089010240999992015011917004+78650+016367FM-12+002099999V0202901N005019999999N999999999-00261-00451100001ADDMA1999999099871MD1810131+9999REMSYN04801024 46/// /2905 11026 21045 39987 40000 58013=
0089010240999992015011918004+78650+016367FM-12+002099999V0202901N006019999999N999999999-00271-00491100001ADDMA1999999099861MD1710051+9999REMSYN04801024 46/// /2906 11027 21049 39986 40000 57005=
0089010240999992015011919004+78650+016367FM-12+002099999V0203001N004019999999N999999999-00311-00461100021ADDMA1999999099891MD1990021+9999REMSYN04801024 46/// /3004 11031 21046 39989 40002 50002=
0089010240999992015011920004+78650+016367FM-12+002099999V0202801N005019999999N999999999-00241-00471100081ADDMA1999999099941MD1110071+9999REMSYN04801024 46/// /2805 11024 21047 39994 40008 51007=
0089010240999992015011921004+78650+016367FM-12+002099999V0202901N005019999999N999999999-00281-00511100101ADDMA1999999099971MD1210101+9999REMSYN04801024 46/// /2905 11028 21051 39997 40010 52010=
0089010240999992015011922004+78650+016367FM-12+002099999V0203001N004019999999N999999999-00351-00571100151ADDMA1999999100021MD1210131+9999REMSYN04801024 46/// /3004 11035 21057 30002 40015 52013=
0089010240999992015011923004+78650+016367FM-12+002099999V0203201N003019999999N999999999-00351-00581100191ADDMA1999999100061MD1210121+9999REMSYN04801024 46/// /3203 11035 21058 30006 40019 52012=
0113010240999992015012000004+78650+016367FM-12+002099999V0203101N004019999999N999999999-00351-00541100181ADDMA1999999100041MD1310081+9999OD139900701999REMSYN05801024 46/// /3104 11035 21054 30004 40018 53008 333 91107=
0089010240999992015012001004+78650+016367FM-12+002099999V0203101N004019999999N999999999-00311-00571100191ADDMA1999999100061MD1210041+9999REMSYN04801024 46/// /3104 11031 21057 30006 40019 52004=
0089010240999992015012003004+78650+016367FM-12+002099999V0202801N003019999999N999999999-00291-00581100251ADDMA1999999100111MD1210071+9999REMSYN04801024 46/// /2803 11029 21058 30011 40025 52007=
0089010240999992015012004004+78650+016367FM-12+002099999V0203101N003019999999N999999999-00321-00551100281ADDMA1999999100151MD1210091+9999REMSYN04801024 46/// /3103 11032 21055 30015 40028 52009=
0089010240999992015012005004+78650+016367FM-12+002099999V0202901N006019999999N999999999-00281-00531100231ADDMA1999999100101MD1510011+9999REMSYN04801024 46/// /2906 11028 21053 30010 40023 55001=
0089010240999992015012006004+78650+016367FM-12+002099999V0202901N004019999999N999999999-00361-00671100371ADDMA1999999100241MD1110131+9999REMSYN04801024 46/// /2904 11036 21067 30024 40037 51013=
0089010240999992015012007004+78650+016367FM-12+002099999V0203001N004019999999N999999999-00361-00701100471ADDMA1999999100341MD1990191+9999REMSYN04801024 46/// /3004 11036 21070 30034 40047 50019=
0089010240999992015012008004+78650+016367FM-12+002099999V0203101N003019999999N999999999-00441-00661100541ADDMA1999999100401MD1310311+9999REMSYN04801024 46/// /3103 11044 21066 30040 40054 53031=
0089010240999992015012009004+78650+016367FM-12+002099999V0203201N003019999999N999999999-00491-00821100631ADDMA1999999100491MD1210251+9999REMSYN04801024 46/// /3203 11049 21082 30049 40063 52025=
0089010240999992015012011004+78650+016367FM-12+002099999V0203001N002019999999N999999999-00531-00891100821ADDMA1999999100681MD1210281+9999REMSYN04801024 46/// /3002 11053 21089 30068 40082 52028=
0089010240999992015012012004+78650+016367FM-12+002099999V0203201N003019999999N999999999-00461-00901100911ADDMA1999999100781MD1210281+9999REMSYN04801024 46/// /3203 11046 21090 30078 40091 52028=
0089010240999992015012013004+78650+016367FM-12+002099999V0203301N003019999999N999999999-00501-00931100981ADDMA1999999100841MD1210251+9999REMSYN04801024 46/// /3303 11050 21093 30084 40098 52025=
0089010240999992015012014004+78650+016367FM-12+002099999V0203201N002019999999N999999999-00731-01121101041ADDMA1999999100911MD1210231+9999REMSYN04801024 46/// /3202 11073 21112 30091 40104 52023=
0089010240999992015012015004+78650+016367FM-12+002099999V0201101N001019999999N999999999-00791-01191101161ADDMA1999999101031MD1110251+9999REMSYN04801024 46/// /1101 11079 21119 30103 40116 51025=
0089010240999992015012016004+78650+016367FM-12+002099999V0209999C999999999999N999999999-00731-01131101241ADDMA1999999101111MD1210261+9999REMSYN04801024 46/// /0000 11073 21113 30111 40124 52026=
0089010240999992015012017004+78650+016367FM-12+002099999V0203001N001019999999N999999999-00911-01261101311ADDMA1999999101181MD1310271+9999REMSYN04801024 46/// /3001 11091 21126 30118 40131 53027=
0113010240999992015012018004+78650+016367FM-12+002099999V0209999C999999999999N999999999-00911-01281101391ADDMA1999999101251MD1210231+9999OD139900401999REMSYN05801024 46/// /0000 11091 21128 30125 40139 52023 333 91104=
0089010240999992015012019004+78650+016367FM-12+002099999V0209999C999999999999N999999999-00821-01131101471ADDMA1999999101331MD1210221+9999REMSYN04801024 46/// /0000 11082 21113 30133 40147 52022=
0089010240999992015012020004+78650+016367FM-12+002099999V0203201N003019999999N999999999-00841-01151101541ADDMA1999999101401MD1210221+9999REMSYN04801024 46/// /3203 11084 21115 30140 40154 52022=
0089010240999992015012021004+78650+016367FM-12+002099999V0209999C999999999999N999999999-00771-01051101601ADDMA1999999101461MD1210211+9999REMSYN04801024 46/// /0000 11077 21105 30146 40160 52021=
0089010240999992015012022004+78650+016367FM-12+002099999V0209999C999999999999N999999999-00731-00971101671ADDMA1999999101531MD1210201+9999REMSYN04801024 46/// /0000 11073 21097 30153 40167 52020=
0089010240999992015012023004+78650+016367FM-12+002099999V0200601N001019999999N999999999-00771-00921101741ADDMA1999999101601MD1210201+9999REMSYN04801024 46/// /0601 11077 21092 30160 40174 52020=
0113010240999992015012100004+78650+016367FM-12+002099999V0209999C999999999999N999999999-00761-00921101791ADDMA1999999101651MD1210191+9999OD139900401999REMSYN05801024 46/// /0000 11076 21092 30165 40179 52019 333 91104=
0089010240999992015012101004+78650+016367FM-12+002099999V0209999C999999999999N999999999-00791-00911101831ADDMA1999999101701MD1210171+9999REMSYN04801024 46/// /0000 11079 21091 30170 40183 52017=
0089010240999992015012102004+78650+016367FM-12+002099999V0209999C999999999999N999999999-00761-00781101851ADDMA1999999101721MD1310121+9999REMSYN04801024 46/// /0000 11076 21078 30172 40185 53012=
0089010240999992015012103004+78650+016367FM-12+002099999V0203101N002019999999N999999999-00931-01181101921ADDMA1999999101781MD1210131+9999REMSYN04801024 46/// /3102 11093 21118 30178 40192 52013=
0089010240999992015012104004+78650+016367FM-12+002099999V0203201N001019999999N999999999-00981-01141101951ADDMA1999999101811MD1210111+9999REMSYN04801024 46/// /3201 11098 21114 30181 40195 52011=
0089010240999992015012105004+78650+016367FM-12+002099999V0203301N001019999999N999999999-00971-01081101991ADDMA1999999101861MD1210141+9999REMSYN04801024 46/// /3301 11097 21108 30186 40199 52014=
0089010240999992015012107004+78650+016367FM-12+002099999V0203201N001019999999N999999999-01081-01251102081ADDMA1999999101941MD1210131+9999REMSYN04801024 46/// /3201 11108 21125 30194 40208 52013=
0089010240999992015012108004+78650+016367FM-12+002099999V0200701N001019999999N999999999-01051-01181102091ADDMA1999999101951MD1210101+9999REMSYN04801024 46/// /0701 11105 21118 30195 40209 52010=
0089010240999992015012109004+78650+016367FM-12+002099999V0203101N001019999999N999999999-00961-01161102091ADDMA1999999101951MD1310051+9999REMSYN04801024 46/// /3101 11096 21116 30195 40209 53005=
0108010240999992015012110004+78650+016367FM-12+002099999V0203201N002019999999N999999999-00931-01181102091ADDMA1999999101951MD1290019+9999REMSYN04801024 46/// /3202 11093 21118 30195 40209 54002=EQDQ01.2    3APC3  
0108010240999992015012111004+78650+016367FM-12+002099999V0200901N001019999999N999999999-00981-01191102081ADDMA1999999101941MD1790019+9999REMSYN04801024 46/// /0901 11098 21119 30194 40208 54001=EQDQ01.1    3APC3  
0113010240999992015012112004+78650+016367FM-12+002099999V0203401N002019999999N999999999-01011-01151102021ADDMA1999999101881MD1610071+9999OD139900301999REMSYN05801024 46/// /3402 11101 21115 30188 40202 56007 333 91103=
0089010240999992015012113004+78650+016367FM-12+002099999V0203101N001019999999N999999999-00791-00961101961ADDMA1999999101821MD1610131+9999REMSYN04801024 46/// /3101 11079 21096 30182 40196 56013=
0089010240999992015012114004+78650+016367FM-12+002099999V0200901N001019999999N999999999-00911-01071101861ADDMA1999999101721MD1610221+9999REMSYN04801024 46/// /0901 11091 21107 30172 40186 56022=
0089010240999992015012115004+78650+016367FM-12+002099999V0201101N001019999999N999999999-00891-01051101751ADDMA1999999101611MD1610271+9999REMSYN04801024 46/// /1101 11089 21105 30161 40175 56027=
0089010240999992015012116004+78650+016367FM-12+002099999V0203001N002019999999N999999999-00581-00791101621ADDMA1999999101491MD1710331+9999REMSYN04801024 46/// /3002 11058 21079 30149 40162 57033=
0089010240999992015012117004+78650+016367FM-12+002099999V0203501N001019999999N999999999-00521-00711101531ADDMA1999999101401MD1710321+9999REMSYN04801024 46/// /3501 11052 21071 30140 40153 57032=
0132010240999992015012118004+78650+016367FM-12+002099999V0200601N001019999999N999999999-00651-00761101391ADDKA1120M-00441MA1999999101261MD1710351+9999OD139900301999REMSYN06401024 46/// /0601 11065 21076 30126 40139 57035 333 11044 91103=
0089010240999992015012119004+78650+016367FM-12+002099999V0203201N002019999999N999999999-00471-00581101221ADDMA1999999101081MD1610401+9999REMSYN04801024 46/// /3202 11047 21058 30108 40122 56040=
0089010240999992015012120004+78650+016367FM-12+002099999V0209999C999999999999N999999999-00561-00581101041ADDMA1999999100901MD1610501+9999REMSYN04801024 46/// /0000 11056 21058 30090 40104 56050=
0089010240999992015012121004+78650+016367FM-12+002099999V0202901N001019999999N999999999-00481-00491100861ADDMA1999999100721MD1710531+9999REMSYN04801024 46/// /2901 11048 21049 30072 40086 57053=
0089010240999992015012123004+78650+016367FM-12+002099999V0203001N003019999999N999999999-00331-00341100701ADDMA1999999100571MD1810341+9999REMSYN04801024 46/// /3003 11033 21034 30057 40070 58034=
0089010240999992015012200004+78650+016367FM-12+002099999V0203001N002019999999N999999999-00301-00311100611ADDMA1999999100481MD1710251+9999REMSYN04801024 46/// /3002 11030 21031 30048 40061 57025=
0089010240999992015012201004+78650+016367FM-12+002099999V0200801N001019999999N999999999-00281-00291100571ADDMA1999999100441MD1710181+9999REMSYN04801024 46/// /0801 11028 21029 30044 40057 57018=
0089010240999992015012202004+78650+016367FM-12+002099999V0209999C999999999999N999999999-00321-00331100511ADDMA1999999100381MD1810181+9999REMSYN04801024 46/// /0000 11032 21033 30038 40051 58018=
0089010240999992015012203004+78650+016367FM-12+002099999V0209999C999999999999N999999999-00301-00311100411ADDMA1999999100281MD1610201+9999REMSYN04801024 46/// /0000 11030 21031 30028 40041 56020=
0089010240999992015012204004+78650+016367FM-12+002099999V0209999C999999999999N999999999-00271-00281100351ADDMA1999999100221MD1710221+9999REMSYN04801024 46/// /0000 11027 21028 30022 40035 57022=
0089010240999992015012205004+78650+016367FM-12+002099999V0202801N007019999999N999999999+00251+00241100261ADDMA1999999100131MD1710251+9999REMSYN04801024 46/// /2807 10025 20024 30013 40026 57025=
0113010240999992015012206004+78650+016367FM-12+002099999V0202701N009019999999N999999999+00281+00131100201ADDMA1999999100071MD1710211+9999OD139901201999REMSYN05801024 46/// /2709 10028 20013 30007 40020 57021 333 91112=
0089010240999992015012207004+78650+016367FM-12+002099999V0202701N008019999999N999999999+00251+00161100241ADDMA1999999100111MD1810111+9999REMSYN04801024 46/// /2708 10025 20016 30011 40024 58011=
0089010240999992015012208004+78650+016367FM-12+002099999V0202701N007019999999N999999999+00221+00131100251ADDMA1999999100121MD1990011+9999REMSYN04801024 46/// /2707 10022 20013 30012 40025 50001=
0089010240999992015012209004+78650+016367FM-12+002099999V0202701N008019999999N999999999+00221+00151100301ADDMA1999999100171MD1210091+9999REMSYN04801024 46/// /2708 10022 20015 30017 40030 52009=
0089010240999992015012210004+78650+016367FM-12+002099999V0202701N009019999999N999999999+00241+00051100301ADDMA1999999100171MD1210061+9999REMSYN04801024 46/// /2709 10024 20005 30017 40030 52006=
0089010240999992015012211004+78650+016367FM-12+002099999V0202701N008019999999N999999999+00191+00131100311ADDMA1999999100181MD1310051+9999REMSYN04801024 46/// /2708 10019 20013 30018 40031 53005=
0113010240999992015012212004+78650+016367FM-12+002099999V0202801N008019999999N999999999+00151+00141100271ADDMA1999999100141MD1510021+9999OD139901301999REMSYN05801024 46/// /2808 10015 20014 30014 40027 55002 333 91113=
0089010240999992015012214004+78650+016367FM-12+002099999V0202801N007019999999N999999999+00211+00171100211ADDMA1999999100081MD1710091+9999REMSYN04801024 46/// /2807 10021 20017 30008 40021 57009=
0089010240999992015012215004+78650+016367FM-12+002099999V0202801N008019999999N999999999+00181+00171100231ADDMA1999999100101MD1810051+9999REMSYN04801024 46/// /2808 10018 20017 30010 40023 58005=
0094010240999992015012216004+78650+016367FM-12+002099999V0202601N010019999999N999999999+00261+00201100211ADDMA1999999100081REMSYN04801024 46/// /2610 10026 20020 30008 40021 54002=EQDQ014     3APCTEN
0108010240999992015012217004+78650+016367FM-12+002099999V0202601N010019999999N999999999+00261+00081100241ADDMA1999999100111MD1290039+9999REMSYN04801024 46/// /2610 10026 20008 30011 40024 54003=EQDQ01.3    3APC3  
0108010240999992015012218004+78650+016367FM-12+002099999V0202701N008019999999N999999999+00251+00021100241ADDMA1999999100111MD1290019+9999REMSYN04801024 46/// /2708 10025 20002 30011 40024 54001=EQDQ01.1    3APC3  
0089010240999992015012220004+78650+016367FM-12+002099999V0202601N011019999999N999999999+00281+00151100181ADDMA1999999100051MD1710061+9999REMSYN04801024 46/// /2611 10028 20015 30005 40018 57006=
0089010240999992015012221004+78650+016367FM-12+002099999V0202701N010019999999N999999999+00261+00161100201ADDMA1999999100071MD1810041+9999REMSYN04801024 46/// /2710 10026 20016 30007 40020 58004=
0094010240999992015012222004+78650+016367FM-12+002099999V0202601N012019999999N999999999+00291+00051100171ADDMA1999999100041REMSYN04801024 46/// /2612 10029 20005 30004 40017 54001=EQDQ014     3APCTEN
0089010240999992015012223004+78650+016367FM-12+002099999V0202601N011019999999N999999999+00281+00071100171ADDMA1999999100041MD1410001+9999REMSYN04801024 46/// /2611 10028 20007 30004 40017 54000=
0108010240999992015012300004+78650+016367FM-12+002099999V0202701N009019999999N999999999+00241+00081100171ADDMA1999999100041MD1790039+9999REMSYN04801024 46/// /2709 10024 20008 30004 40017 54002=EQDQ01.2    3APC3  
0108010240999992015012301004+78650+016367FM-12+002099999V0202601N012019999999N999999999+00291+00171100161ADDMA1999999100031MD1790019+9999REMSYN04801024 46/// /2612 10029 20017 30003 40016 54002=EQDQ01.2    3APC3  
0089010240999992015012302004+78650+016367FM-12+002099999V0202801N005019999999N999999999+00181+00171100201ADDMA1999999100071MD1990021+9999REMSYN04801024 46/// /2805 10018 20017 30007 40020 50002=
0108010240999992015012303004+78650+016367FM-12+002099999V0202601N007019999999N999999999+00231+00161100191ADDMA1999999100061MD1290029+9999REMSYN04801024 46/// /2607 10023 20016 30006 40019 54002=EQDQ01.2    3APC3  
0089010240999992015012304004+78650+016367FM-12+002099999V0202701N010019999999N999999999+00341+00051100201ADDMA1999999100071MD1210041+9999REMSYN04801024 46/// /2710 10034 20005 30007 40020 52004=
0089010240999992015012305004+78650+016367FM-12+002099999V0202601N009019999999N999999999+00271+00121100241ADDMA1999999100111MD1110041+9999REMSYN04801024 46/// /2609 10027 20012 30011 40024 51004=
0113010240999992015012306004+78650+016367FM-12+002099999V0202701N008019999999N999999999+00321-00101100261ADDMA1999999100131MD1210071+9999OD139901601999REMSYN05801024 46/// /2708 10032 21010 30013 40026 52007 333 91116=
0089010240999992015012307004+78650+016367FM-12+002099999V0202601N007019999999N999999999+00291+00051100271ADDMA1999999100141MD1210081+9999REMSYN04801024 46/// /2607 10029 20005 30014 40027 52008=
0089010240999992015012308004+78650+016367FM-12+002099999V0202701N007019999999N999999999+00251+00011100281ADDMA1999999100151MD1210041+9999REMSYN04801024 46/// /2707 10025 20001 30015 40028 52004=
0089010240999992015012309004+78650+016367FM-12+002099999V0202701N006019999999N999999999+00271+00011100301ADDMA1999999100171MD1210041+9999REMSYN04801024 46/// /2706 10027 20001 30017 40030 52004=
0089010240999992015012311004+78650+016367FM-12+002099999V0202401N004019999999N999999999+00291-00241100381ADDMA1999999100251MD1210101+9999REMSYN04801024 46/// /2404 10029 21024 30025 40038 52010=
0089010240999992015012312004+78650+016367FM-12+002099999V0202901N006019999999N999999999+00221-00231100261ADDMA1999999100131MD1510041+9999REMSYN04801024 46/// /2906 10022 21023 30013 40026 55004=
0089010240999992015012313004+78650+016367FM-12+002099999V0203001N005019999999N999999999+00131-00211100251ADDMA1999999100121MD1510091+9999REMSYN04801024 46/// /3005 10013 21021 30012 40025 55009=
0089010240999992015012314004+78650+016367FM-12+002099999V0202801N005019999999N999999999+00121-00251100261ADDMA1999999100131MD1810121+9999REMSYN04801024 46/// /2805 10012 21025 30013 40026 58012=
0089010240999992015012315004+78650+016367FM-12+002099999V0203101N003019999999N999999999+00151-00171100291ADDMA1999999100161MD1110041+9999REMSYN04801024 46/// /3103 10015 21017 30016 40029 51004=
0089010240999992015012316004+78650+016367FM-12+002099999V0202801N002019999999N999999999+00111-00181100301ADDMA1999999100171MD1210061+9999REMSYN04801024 46/// /2802 10011 21018 30017 40030 52006=
0089010240999992015012317004+78650+016367FM-12+002099999V0203101N002019999999N999999999+00141-00151100291ADDMA1999999100161MD1310041+9999REMSYN04801024 46/// /3102 10014 21015 30016 40029 53004=
0113010240999992015012318004+78650+016367FM-12+002099999V0200501N002019999999N999999999+00131-00261100271ADDMA1999999100141MD1510031+9999OD139900801999REMSYN05801024 46/// /0502 10013 21026 30014 40027 55003 333 91108=
0089010240999992015012319004+78650+016367FM-12+002099999V0203401N001019999999N999999999+00061-00241100261ADDMA1999999100131MD1710041+9999REMSYN04801024 46/// /3401 10006 21024 30013 40026 57004=
0089010240999992015012320004+78650+016367FM-12+002099999V0203401N001019999999N999999999+00001-00251100261ADDMA1999999100121MD1710041+9999REMSYN04801024 46/// /3401 10000 21025 30012 40026 57004=
0089010240999992015012321004+78650+016367FM-12+002099999V0200601N001019999999N999999999-00091-00301100221ADDMA1999999100091MD1610051+9999REMSYN04801024 46/// /0601 11009 21030 30009 40022 56005=
0089010240999992015012322004+78650+016367FM-12+002099999V0203201N002019999999N999999999-00161-00471100221ADDMA1999999100081MD1710051+9999REMSYN04801024 46/// /3202 11016 21047 30008 40022 57005=
0089010240999992015012323004+78650+016367FM-12+002099999V0200301N001019999999N999999999-00271-00551100211ADDMA1999999100081MD1810051+9999REMSYN04801024 46/// /0301 11027 21055 30008 40021 58005=
0113010240999992015012400004+78650+016367FM-12+002099999V0200501N001019999999N999999999-00191-00471100171ADDMA1999999100041MD1610051+9999OD139900401999REMSYN05801024 46/// /0501 11019 21047 30004 40017 56005 333 91104=
0089010240999992015012401004+78650+016367FM-12+002099999V0203501N001019999999N999999999-00181-00471100131ADDMA1999999100001MD1610091+9999REMSYN04801024 46/// /3501 11018 21047 30000 40013 56009=
0089010240999992015012402004+78650+016367FM-12+002099999V0200301N001019999999N999999999-00271-00491100111ADDMA1999999099981MD1710101+9999REMSYN04801024 46/// /0301 11027 21049 39998 40011 57010=
0089010240999992015012403004+78650+016367FM-12+002099999V0203301N001019999999N999999999-00261-00521100091ADDMA1999999099961MD1710081+9999REMSYN04801024 46/// /3301 11026 21052 39996 40009 57008=
0089010240999992015012404004+78650+016367FM-12+002099999V0200601N001019999999N999999999-00421-00541100091ADDMA1999999099951MD1710051+9999REMSYN04801024 46/// /0601 11042 21054 39995 40009 57005=
0089010240999992015012405004+78650+016367FM-12+002099999V0200401N001019999999N999999999-00231-00571100101ADDMA1999999099971MD1990011+9999REMSYN04801024 46/// /0401 11023 21057 39997 40010 50001=
0151010240999992015012406004+78650+016367FM-12+002099999V0202901N001019999999N999999999-00531-00761100101ADDKA1240N-00531MA1999999099971MD1290019+9999OD139900301999REMSYN06401024 46/// /2901 11053 21076 39997 40010 54001 333 21053 91103=EQDQ01.1    3APC3  
0108010240999992015012408004+78650+016367FM-12+002099999V0200601N001019999999N999999999-00291-00611100121ADDMA1999999099991MD1290029+9999REMSYN04801024 46/// /0601 11029 21061 39999 40012 54002=EQDQ01.2    3APC3  
0089010240999992015012409004+78650+016367FM-12+002099999V0203401N001019999999N999999999-00101-00461100141ADDMA1999999100011MD1110041+9999REMSYN04801024 46/// /3401 11010 21046 30001 40014 51004=
0089010240999992015012410004+78650+016367FM-12+002099999V0209999C999999999999N999999999-00211-00461100191ADDMA1999999100061MD1210101+9999REMSYN04801024 46/// /0000 11021 21046 30006 40019 52010=
0089010240999992015012411004+78650+016367FM-12+002099999V0209999C999999999999N999999999-00191-00471100221ADDMA1999999100091MD1210101+9999REMSYN04801024 46/// /0000 11019 21047 30009 40022 52010=
0089010240999992015012412004+78650+016367FM-12+002099999V0202901N002019999999N999999999-00161-00411100231ADDMA1999999100101MD1310091+9999REMSYN04801024 46/// /2902 11016 21041 30010 40023 53009=
0089010240999992015012413004+78650+016367FM-12+002099999V0203101N001019999999N999999999-00131-00311100221ADDMA1999999100091MD1310031+9999REMSYN04801024 46/// /3101 11013 21031 30009 40022 53003=
0089010240999992015012414004+78650+016367FM-12+002099999V0203201N001019999999N999999999-00141-00231100261ADDMA1999999100121MD1210041+9999REMSYN04801024 46/// /3201 11014 21023 30012 40026 52004=
0089010240999992015012415004+78650+016367FM-12+002099999V0200801N001019999999N999999999-00161-00301100291ADDMA1999999100161MD1110061+9999REMSYN04801024 46/// /0801 11016 21030 30016 40029 51006=
0089010240999992015012416004+78650+016367FM-12+002099999V0200101N001019999999N999999999-00051-00321100331ADDMA1999999100191MD1210101+9999REMSYN04801024 46/// /0101 11005 21032 30019 40033 52010=
0089010240999992015012417004+78650+016367FM-12+002099999V0203201N001019999999N999999999-00051-00331100341ADDMA1999999100211MD1210091+9999REMSYN04801024 46/// /3201 11005 21033 30021 40034 52009=
0113010240999992015012418004+78650+016367FM-12+002099999V0203401N001019999999N999999999-00101-00351100391ADDMA1999999100261MD1210101+9999OD139900301999REMSYN05801024 46/// /3401 11010 21035 30026 40039 52010 333 91103=
0089010240999992015012419004+78650+016367FM-12+002099999V0202301N002019999999N999999999-00171-00261100431ADDMA1999999100301MD1210101+9999REMSYN04801024 46/// /2302 11017 21026 30030 40043 52010=
0089010240999992015012420004+78650+016367FM-12+002099999V0200401N002019999999N999999999-00091-00391100451ADDMA1999999100321MD1210111+9999REMSYN04801024 46/// /0402 11009 21039 30032 40045 52011=
0089010240999992015012421004+78650+016367FM-12+002099999V0200901N003019999999N999999999-00151-00481100491ADDMA1999999100351MD1210101+9999REMSYN04801024 46/// /0903 11015 21048 30035 40049 52010=
0089010240999992015012422004+78650+016367FM-12+002099999V0200801N002019999999N999999999-00161-00501100521ADDMA1999999100391MD1210091+9999REMSYN04801024 46/// /0802 11016 21050 30039 40052 52009=
0089010240999992015012423004+78650+016367FM-12+002099999V0200901N001019999999N999999999-00181-00461100551ADDMA1999999100421MD1210091+9999REMSYN04801024 46/// /0901 11018 21046 30042 40055 52009=
0113010240999992015012500004+78650+016367FM-12+002099999V0201101N003019999999N999999999-00191-00411100581ADDMA1999999100441MD1210091+9999OD139900601999REMSYN05801024 46/// /1103 11019 21041 30044 40058 52009 333 91106=
0089010240999992015012501004+78650+016367FM-12+002099999V0200901N004019999999N999999999-00161-00451100601ADDMA1999999100471MD1210091+9999REMSYN04801024 46/// /0904 11016 21045 30047 40060 52009=
0089010240999992015012502004+78650+016367FM-12+002099999V0200801N003019999999N999999999-00151-00521100621ADDMA1999999100491MD1210071+9999REMSYN04801024 46/// /0803 11015 21052 30049 40062 52007=
0089010240999992015012503004+78650+016367FM-12+002099999V0200801N003019999999N999999999-00181-00551100631ADDMA1999999100501MD1210061+9999REMSYN04801024 46/// /0803 11018 21055 30050 40063 52006=
0089010240999992015012504004+78650+016367FM-12+002099999V0200901N002019999999N999999999-00251-00531100671ADDMA1999999100541MD1210061+9999REMSYN04801024 46/// /0902 11025 21053 30054 40067 52006=
0089010240999992015012505004+78650+016367FM-12+002099999V0203201N001019999999N999999999-00271-00591100691ADDMA1999999100561MD1210071+9999REMSYN04801024 46/// /3201 11027 21059 30056 40069 52007=
0132010240999992015012506004+78650+016367FM-12+002099999V0200901N002019999999N999999999-00291-00631100731ADDKA1240N-00311MA1999999100591MD1210091+9999OD139900501999REMSYN06401024 46/// /0902 11029 21063 30059 40073 52009 333 21031 91105=
0089010240999992015012507004+78650+016367FM-12+002099999V0200601N004019999999N999999999-00281-00651100771ADDMA1999999100631MD1210101+9999REMSYN04801024 46/// /0604 11028 21065 30063 40077 52010=
0089010240999992015012508004+78650+016367FM-12+002099999V0200701N003019999999N999999999-00311-00681100821ADDMA1999999100691MD1210131+9999REMSYN04801024 46/// /0703 11031 21068 30069 40082 52013=
0089010240999992015012509004+78650+016367FM-12+002099999V0201301N001019999999N999999999-00431-00661100851ADDMA1999999100721MD1210131+9999REMSYN04801024 46/// /1301 11043 21066 30072 40085 52013=
0089010240999992015012510004+78650+016367FM-12+002099999V0203201N001019999999N999999999-00441-00501100871ADDMA1999999100741MD1310101+9999REMSYN04801024 46/// /3201 11044 21050 30074 40087 53010=
0089010240999992015012511004+78650+016367FM-12+002099999V0200501N002019999999N999999999-00551-00691100911ADDMA1999999100771MD1210091+9999REMSYN04801024 46/// /0502 11055 21069 30077 40091 52009=
0113010240999992015012512004+78650+016367FM-12+002099999V0202101N001019999999N999999999-00541-00731100911ADDMA1999999100781MD1210061+9999OD139900501999REMSYN05801024 46/// /2101 11054 21073 30078 40091 52006 333 91105=
0089010240999992015012513004+78650+016367FM-12+002099999V0209999C999999999999N999999999-00541-00611100941ADDMA1999999100811MD1210071+9999REMSYN04801024 46/// /0000 11054 21061 30081 40094 52007=
0089010240999992015012514004+78650+016367FM-12+002099999V0203501N001019999999N999999999-00531-00611100941ADDMA1999999100811MD1210031+9999REMSYN04801024 46/// /3501 11053 21061 30081 40094 52003=
0089010240999992015012515004+78650+016367FM-12+002099999V0209999C999999999999N999999999-00581-00651100941ADDMA1999999100811MD1510031+9999REMSYN04801024 46/// /0000 11058 21065 30081 40094 55003=
0089010240999992015012516004+78650+016367FM-12+002099999V0203501N001019999999N999999999-00461-00691100901ADDMA1999999100771MD1610041+9999REMSYN04801024 46/// /3501 11046 21069 30077 40090 56004=
0108010240999992015012517004+78650+016367FM-12+002099999V0209999C999999999999N999999999-00591-00801100921ADDMA1999999100791MD1790029+9999REMSYN04801024 46/// /0000 11059 21080 30079 40092 54002=EQDQ01.2    3APC3  
0151010240999992015012518004+78650+016367FM-12+002099999V0209999C999999999999N999999999-00481-00781100911ADDKA1120M-00281MA1999999100781MD1790039+9999OD139900401999REMSYN06401024 46/// /0000 11048 21078 30078 40091 54002 333 11028 91104=EQDQ01.2    3APC3  
0089010240999992015012519004+78650+016367FM-12+002099999V0203201N001019999999N999999999-00531-00721100911ADDMA1999999100771MD1410001+9999REMSYN04801024 46/// /3201 11053 21072 30077 40091 54000=
0108010240999992015012520004+78650+016367FM-12+002099999V0200601N001019999999N999999999-00561-00661100891ADDMA1999999100761MD1790039+9999REMSYN04801024 46/// /0601 11056 21066 30076 40089 54003=EQDQ01.3    3APC3  
0089010240999992015012521004+78650+016367FM-12+002099999V0200201N001019999999N999999999-00501-00741100871ADDMA1999999100731MD1710051+9999REMSYN04801024 46/// /0201 11050 21074 30073 40087 57005=
