0071010231999992015010100204+64350+007800FM-15+000099999V0202201N021119999999N999999999+00801+00701999999ADDMA1100401999999REMMET044METAR ENDR 010020Z AUTO 22041KT 08/07 Q1004=
0071010231999992015010100504+64350+007800FM-15+000099999V0202201N020619999999N999999999+00801+00701999999ADDMA1100301999999REMMET044METAR ENDR 010050Z AUTO 22040KT 08/07 Q1003=
0071010231999992015010101204+64350+007800FM-15+000099999V0202201N020619999999N999999999+00801+00701999999ADDMA1100301999999REMMET044METAR ENDR 010120Z AUTO 22040KT 08/07 Q1003=
0071010231999992015010101504+64350+007800FM-15+000099999V0202201N019019999999N999999999+00801+00701999999ADDMA1100301999999REMMET044METAR ENDR 010150Z AUTO 22037KT 08/07 Q1003=
0071010231999992015010102204+64350+007800FM-15+000099999V0202201N017519999999N999999999+00801+00801999999ADDMA1100301999999REMMET044METAR ENDR 010220Z AUTO 22034KT 08/08 Q1003=
0071010231999992015010102504+64350+007800FM-15+000099999V0202201N017519999999N999999999+00801+00701999999ADDMA1100201999999REMMET044METAR ENDR 010250Z AUTO 22034KT 08/07 Q1002=
0071010231999992015010103204+64350+007800FM-15+000099999V0202201N016519999999N999999999+00801+00701999999ADDMA1100201999999REMMET044METAR ENDR 010320Z AUTO 22032KT 08/07 Q1002=
0071010231999992015010103504+64350+007800FM-15+000099999V0202201N016519999999N999999999+00801+00701999999ADDMA1100101999999REMMET044METAR ENDR 010350Z AUTO 22032KT 08/07 Q1001=
0071010231999992015010104204+64350+007800FM-15+000099999V0202101N016519999999N999999999+00801+00801999999ADDMA1100101999999REMMET044METAR ENDR 010420Z AUTO 21032KT 08/08 Q1001=
0071010231999992015010104504+64350+007800FM-15+000099999V0202101N016519999999N999999999+00801+00801999999ADDMA1100001999999REMMET044METAR ENDR 010450Z AUTO 21032KT 08/08 Q1000=
0071010231999992015010105204+64350+007800FM-15+000099999V0202201N016519999999N999999999+00801+00801999999ADDMA1100001999999REMMET044METAR ENDR 010520Z AUTO 22032KT 08/08 Q1000=
0071010231999992015010105504+64350+007800FM-15+000099999V0202201N017019999999N999999999+00801+00701999999ADDMA1099901999999REMMET044METAR ENDR 010550Z AUTO 22033KT 08/07 Q0999=
0071010231999992015010106204+64350+007800FM-15+000099999V0202101N015419999999N999999999+00801+00601999999ADDMA1099901999999REMMET044METAR ENDR 010620Z AUTO 21030KT 08/06 Q0999=
0071010231999992015010106504+64350+007800FM-15+000099999V0202101N016019999999N999999999+00801+00601999999ADDMA1099801999999REMMET044METAR ENDR 010650Z AUTO 21031KT 08/06 Q0998=
0071010231999992015010107204+64350+007800FM-15+000099999V0202001N018019999999N999999999+00901+00601999999ADDMA1099701999999REMMET044METAR ENDR 010720Z AUTO 20035KT 09/06 Q0997=
0071010231999992015010107504+64350+007800FM-15+000099999V0201901N018519999999N999999999+00701+00501999999ADDMA1099701999999REMMET044METAR ENDR 010750Z AUTO 19036KT 07/05 Q0997=
0071010231999992015010108204+64350+007800FM-15+000099999V0201901N018019999999N999999999+00801+00601999999ADDMA1099601999999REMMET044METAR ENDR 010820Z AUTO 19035KT 08/06 Q0996=
0071010231999992015010108504+64350+007800FM-15+000099999V0201901N017019999999N999999999+00801+00601999999ADDMA1099601999999REMMET044METAR ENDR 010850Z AUTO 19033KT 08/06 Q0996=
0153010231999992015010109104+64350+007800FM-15+000099999V0202001N018510039619N009999199+00801+00601999999ADDGA1081+003961999GE19MSL   +99999+99999GF199999081999003961999999MA1099501999999MW1161REMMET056METAR ENDR 010910Z 20036KT 9999 VCSH OVC013 08/06 Q0995=
0071010231999992015010109504+64350+007800FM-15+000099999V0202001N020119999999N999999999+00801+00601999999ADDMA1099401999999REMMET044METAR ENDR 010950Z AUTO 20039KT 08/06 Q0994=
0071010231999992015010110204+64350+007800FM-15+000099999V0202101N018519999999N999999999+00801+00601999999ADDMA1099401999999REMMET044METAR ENDR 011020Z AUTO 21036KT 08/06 Q0994=
0071010231999992015010110504+64350+007800FM-15+000099999V0202101N019619999999N999999999+00801+00601999999ADDMA1099401999999REMMET044METAR ENDR 011050Z AUTO 21038KT 08/06 Q0994=
0071010231999992015010111204+64350+007800FM-15+000099999V0202201N019019999999N999999999+00801+00601999999ADDMA1099401999999REMMET044METAR ENDR 011120Z AUTO 22037KT 08/06 Q0994=
0071010231999992015010111504+64350+007800FM-15+000099999V0202201N020619999999N999999999+00901+00401999999ADDMA1099301999999REMMET044METAR ENDR 011150Z AUTO 22040KT 09/04 Q0993=
0178010231999992015010112104+64350+007800FM-15+000099999V0202201N020110609619N009999199+00801+00401999999ADDGA1041+000911091GA2071+060961999GE19MSL   +99999+99999GF199999041999000911999999MA1099301999999MW1161REMMET065METAR ENDR 011210Z 22039KT 9999 VCSH SCT003CB BKN200 08/04 Q0993=
0201010231999992015010112404+64350+007800FM-15+000099999V0202301N01901008531CN009999199+00801+00401999999ADDGA1021+007011091GA2041+008531999GA3071+060961999GE19MSL   +99999+99999GF199999021999007011999999MA1099301999999MW1161REMMET072METAR ENDR 011240Z 23037KT 9999 VCSH FEW023CB SCT028 BKN200 08/04 Q0993=
0071010231999992015010113204+64350+007800FM-15+000099999V0202301N019619999999N999999999+00801+00201999999ADDMA1099201999999REMMET044METAR ENDR 011320Z AUTO 23038KT 08/02 Q0992=
0082010231999992015010113504+64350+007800FM-15+000099999V0202301N023719999999N999999999+00501+00301999999ADDMA1099201999999OC103291REMMET047METAR ENDR 011350Z AUTO 23046G64KT 05/03 Q0992=
0071010231999992015010114204+64350+007800FM-15+000099999V0202301N021619999999N999999999+00701+00301999999ADDMA1099201999999REMMET044METAR ENDR 011420Z AUTO 23042KT 07/03 Q0992=
0071010231999992015010114504+64350+007800FM-15+000099999V0202301N022719999999N999999999+00701+00201999999ADDMA1099201999999REMMET044METAR ENDR 011450Z AUTO 23044KT 07/02 Q0992=
0155010231999992015010115204+64350+007800FM-15+000099999V0202301N024210091419N009000199+00801+00101999999ADDGA1071+009141091GE19MSL   +99999+99999GF199999071999009141999999MA1099101999999MW1161REMMET058METAR ENDR 011520Z 23047KT 9000 VCSH BKN030CB 08/01 Q0991=
0071010231999992015010115504+64350+007800FM-15+000099999V0202301N022719999999N999999999+00701+00201999999ADDMA1099101999999REMMET044METAR ENDR 011550Z AUTO 23044KT 07/02 Q0991=
0082010231999992015010116204+64350+007800FM-15+000099999V0202401N023219999999N999999999+00501+00201999999ADDMA1099101999999OC103241REMMET047METAR ENDR 011620Z AUTO 24045G63KT 05/02 Q0991=
0071010231999992015010116504+64350+007800FM-15+000099999V0202301N021619999999N999999999+00701+00301999999ADDMA1099001999999REMMET044METAR ENDR 011650Z AUTO 23042KT 07/03 Q0990=
0072010231999992015010117204+64350+007800FM-15+000099999V0202301N021619999999N999999999+00701+00001999999ADDMA1098901999999REMMET045METAR ENDR 011720Z AUTO 23042KT 07/M00 Q0989=
0071010231999992015010117504+64350+007800FM-15+000099999V0202301N020619999999N999999999+00601+00201999999ADDMA1098901999999REMMET044METAR ENDR 011750Z AUTO 23040KT 06/02 Q0989=
0071010231999992015010118204+64350+007800FM-15+000099999V0202301N019619999999N999999999+00701+00201999999ADDMA1098901999999REMMET044METAR ENDR 011820Z AUTO 23038KT 07/02 Q0989=
0071010231999992015010118504+64350+007800FM-15+000099999V0202301N018019999999N999999999+00701+00301999999ADDMA1098801999999REMMET044METAR ENDR 011850Z AUTO 23035KT 07/03 Q0988=
0071010231999992015010119204+64350+007800FM-15+000099999V0202401N017019999999N999999999+00701+00101999999ADDMA1098701999999REMMET044METAR ENDR 011920Z AUTO 24033KT 07/01 Q0987=
0072010231999992015010119504+64350+007800FM-15+000099999V0202301N018519999999N999999999+00701+00001999999ADDMA1098701999999REMMET045METAR ENDR 011950Z AUTO 23036KT 07/M00 Q0987=
0071010231999992015010120204+64350+007800FM-15+000099999V0202201N017519999999N999999999+00701+00101999999ADDMA1098601999999REMMET044METAR ENDR 012020Z AUTO 22034KT 07/01 Q0986=
0071010231999992015010120504+64350+007800FM-15+000099999V0202401N016019999999N999999999+00601+00201999999ADDMA1098501999999REMMET044METAR ENDR 012050Z AUTO 24031KT 06/02 Q0985=
0071010231999992015010121204+64350+007800FM-15+000099999V0202301N015419999999N999999999+00601+00201999999ADDMA1098401999999REMMET044METAR ENDR 012120Z AUTO 23030KT 06/02 Q0984=
0071010231999992015010121504+64350+007800FM-15+000099999V0202201N013419999999N999999999+00601+00201999999ADDMA1098401999999REMMET044METAR ENDR 012150Z AUTO 22026KT 06/02 Q0984=
0071010231999992015010122204+64350+007800FM-15+000099999V0202301N012919999999N999999999+00601+00101999999ADDMA1098301999999REMMET044METAR ENDR 012220Z AUTO 23025KT 06/01 Q0983=
0071010231999992015010122504+64350+007800FM-15+000099999V0202401N012919999999N999999999+00501+00201999999ADDMA1098201999999REMMET044METAR ENDR 012250Z AUTO 24025KT 05/02 Q0982=
0071010231999992015010123204+64350+007800FM-15+000099999V0202301N009819999999N999999999+00501+00201999999ADDMA1098201999999REMMET044METAR ENDR 012320Z AUTO 23019KT 05/02 Q0982=
0071010231999992015010123504+64350+007800FM-15+000099999V0202301N008819999999N999999999+00501+00201999999ADDMA1098201999999REMMET044METAR ENDR 012350Z AUTO 23017KT 05/02 Q0982=
0071010231999992015010200204+64350+007800FM-15+000099999V0202401N011319999999N999999999+00501+00201999999ADDMA1098101999999REMMET044METAR ENDR 020020Z AUTO 24022KT 05/02 Q0981=
0071010231999992015010200504+64350+007800FM-15+000099999V0202401N009319999999N999999999+00401+00201999999ADDMA1098001999999REMMET044METAR ENDR 020050Z AUTO 24018KT 04/02 Q0980=
0071010231999992015010201204+64350+007800FM-15+000099999V0202501N007719999999N999999999+00501+00201999999ADDMA1098001999999REMMET044METAR ENDR 020120Z AUTO 25015KT 05/02 Q0980=
0071010231999992015010201504+64350+007800FM-15+000099999V0202701N009819999999N999999999+00601+00101999999ADDMA1097901999999REMMET044METAR ENDR 020150Z AUTO 27019KT 06/01 Q0979=
0072010231999992015010202204+64350+007800FM-15+000099999V0202701N010819999999N999999999+00601-00101999999ADDMA1097901999999REMMET045METAR ENDR 020220Z AUTO 27021KT 06/M01 Q0979=
0072010231999992015010202504+64350+007800FM-15+000099999V0202801N013419999999N999999999+00601-00101999999ADDMA1097901999999REMMET045METAR ENDR 020250Z AUTO 28026KT 06/M01 Q0979=
0072010231999992015010203204+64350+007800FM-15+000099999V0202801N012919999999N999999999+00601-00101999999ADDMA1097901999999REMMET045METAR ENDR 020320Z AUTO 28025KT 06/M01 Q0979=
0072010231999992015010203504+64350+007800FM-15+000099999V0202701N012919999999N999999999+00601-00201999999ADDMA1097901999999REMMET045METAR ENDR 020350Z AUTO 27025KT 06/M02 Q0979=
0071010231999992015010204204+64350+007800FM-15+000099999V0202701N010819999999N999999999+00401+00001999999ADDMA1097901999999REMMET044METAR ENDR 020420Z AUTO 27021KT 04/00 Q0979=
0072010231999992015010204504+64350+007800FM-15+000099999V0202701N013419999999N999999999+00501+00001999999ADDMA1097801999999REMMET045METAR ENDR 020450Z AUTO 27026KT 05/M00 Q0978=
0072010231999992015010205204+64350+007800FM-15+000099999V0202801N013919999999N999999999+00601-00101999999ADDMA1097801999999REMMET045METAR ENDR 020520Z AUTO 28027KT 06/M01 Q0978=
0072010231999992015010205504+64350+007800FM-15+000099999V0202601N015419999999N999999999+00601-00201999999ADDMA1097801999999REMMET045METAR ENDR 020550Z AUTO 26030KT 06/M02 Q0978=
0143010231999992015010206104+64350+007800FM-15+000099999V0202701N016019999999N009999199+00601+00001999999ADDGA1041+010671999GE19MSL   +99999+99999GF199999041999010671999999MA1097801999999REMMET052METAR ENDR 020610Z 27031KT 9999 SCT035 06/M00 Q0978=
0072010231999992015010206504+64350+007800FM-15+000099999V0202801N017019999999N999999999+00601-00201999999ADDMA1097701999999REMMET045METAR ENDR 020650Z AUTO 28033KT 06/M02 Q0977=
0072010231999992015010207204+64350+007800FM-15+000099999V0202701N017519999999N999999999+00501-00301999999ADDMA1097701999999REMMET045METAR ENDR 020720Z AUTO 27034KT 05/M03 Q0977=
0071010231999992015010207504+64350+007800FM-15+000099999V0202601N015419999999N999999999+00501+00001999999ADDMA1097701999999REMMET044METAR ENDR 020750Z AUTO 26030KT 05/00 Q0977=
0071010231999992015010208204+64350+007800FM-15+000099999V0202701N016019999999N999999999+00501+00001999999ADDMA1097701999999REMMET044METAR ENDR 020820Z AUTO 27031KT 05/00 Q0977=
0072010231999992015010208504+64350+007800FM-15+000099999V0202801N017519999999N999999999+00601-00101999999ADDMA1097701999999REMMET045METAR ENDR 020850Z AUTO 28034KT 06/M01 Q0977=
0166010231999992015010209104+64350+007800FM-15+000099999V0202701N018510121919N009999199+00501-00201999999ADDGA1041+009141999GA2071+012191999GE19MSL   +99999+99999GF199999041999009141999999MA1097701999999REMMET059METAR ENDR 020910Z 27036KT 9999 SCT030 BKN040 05/M02 Q0977=
0071010231999992015010209504+64350+007800FM-15+000099999V0202901N018519999999N999999999+00501+00001999999ADDMA1097801999999REMMET044METAR ENDR 020950Z AUTO 29036KT 05/00 Q0978=
0072010231999992015010210204+64350+007800FM-15+000099999V0202701N019019999999N999999999+00501+00001999999ADDMA1097801999999REMMET045METAR ENDR 021020Z AUTO 27037KT 05/M00 Q0978=
0071010231999992015010210504+64350+007800FM-15+000099999V0202701N017519999999N999999999+00501+00101999999ADDMA1097801999999REMMET044METAR ENDR 021050Z AUTO 27034KT 05/01 Q0978=
0072010231999992015010211204+64350+007800FM-15+000099999V0202701N020619999999N999999999+00501+00001999999ADDMA1097801999999REMMET045METAR ENDR 021120Z AUTO 27040KT 05/M00 Q0978=
0072010231999992015010211504+64350+007800FM-15+000099999V0202701N020119999999N999999999+00501+00001999999ADDMA1097801999999REMMET045METAR ENDR 021150Z AUTO 27039KT 05/M00 Q0978=
0143010231999992015010212104+64350+007800FM-15+000099999V0202701N019610091419N009999199+00501-00201999999ADDGA1071+009141999GE19MSL   +99999+99999GF199999071999009141999999MA1097801999999REMMET052METAR ENDR 021210Z 27038KT 9999 BKN030 05/M02 Q0978=
0072010231999992015010212504+64350+007800FM-15+000099999V0202701N020619999999N999999999+00501-00301999999ADDMA1097801999999REMMET045METAR ENDR 021250Z AUTO 27040KT 05/M03 Q0978=
0072010231999992015010213204+64350+007800FM-15+000099999V0202601N019619999999N999999999+00501+00001999999ADDMA1097901999999REMMET045METAR ENDR 021320Z AUTO 26038KT 05/M00 Q0979=
0072010231999992015010213504+64350+007800FM-15+000099999V0202601N018019999999N999999999+00501+00001999999ADDMA1097901999999REMMET045METAR ENDR 021350Z AUTO 26035KT 05/M00 Q0979=
0072010231999992015010214204+64350+007800FM-15+000099999V0202801N020119999999N999999999+00501-00201999999ADDMA1097901999999REMMET045METAR ENDR 021420Z AUTO 28039KT 05/M02 Q0979=
0072010231999992015010214504+64350+007800FM-15+000099999V0202701N018519999999N999999999+00501+00001999999ADDMA1097901999999REMMET045METAR ENDR 021450Z AUTO 27036KT 05/M00 Q0979=
0153010231999992015010215104+64350+007800FM-15+000099999V0202801N017510076219N009999199+00501+00101999999ADDGA1071+007621999GE19MSL   +99999+99999GF199999071999007621999999MA1098001999999MW1161REMMET056METAR ENDR 021510Z 28034KT 9999 VCSH BKN025 05/01 Q0980=
0072010231999992015010215504+64350+007800FM-15+000099999V0202801N018019999999N999999999+00501-00101999999ADDMA1098001999999REMMET045METAR ENDR 021550Z AUTO 28035KT 05/M01 Q0980=
0071010231999992015010216204+64350+007800FM-15+000099999V0203101N017019999999N999999999+00601+00001999999ADDMA1098001999999REMMET044METAR ENDR 021620Z AUTO 31033KT 06/00 Q0980=
0071010231999992015010216504+64350+007800FM-15+000099999V0203001N014919999999N999999999+00501+00101999999ADDMA1098101999999REMMET044METAR ENDR 021650Z AUTO 30029KT 05/01 Q0981=
0079010231999992015010217204+64350+007800FM-15+000099999V0203101V014419999999N999999999+00401+00101999999ADDMA1098101999999REMMET052METAR ENDR 021720Z AUTO 31028KT 290V360 04/01 Q0981=
0071010231999992015010217504+64350+007800FM-15+000099999V0202701N012419999999N999999999+00201+00101999999ADDMA1098201999999REMMET044METAR ENDR 021750Z AUTO 27024KT 02/01 Q0982=
0071010231999992015010218204+64350+007800FM-15+000099999V0203101N010819999999N999999999+00501+00001999999ADDMA1098201999999REMMET044METAR ENDR 021820Z AUTO 31021KT 05/00 Q0982=
0072010231999992015010218504+64350+007800FM-15+000099999V0203001N011319999999N999999999+00401+00001999999ADDMA1098201999999REMMET045METAR ENDR 021850Z AUTO 30022KT 04/M00 Q0982=
0072010231999992015010219204+64350+007800FM-15+000099999V0203201N012919999999N999999999+00501-00201999999ADDMA1098301999999REMMET045METAR ENDR 021920Z AUTO 32025KT 05/M02 Q0983=
0071010231999992015010219504+64350+007800FM-15+000099999V0203101N013419999999N999999999+00601+00101999999ADDMA1098301999999REMMET044METAR ENDR 021950Z AUTO 31026KT 06/01 Q0983=
0072010231999992015010220204+64350+007800FM-15+000099999V0203201N014419999999N999999999+00501+00001999999ADDMA1098401999999REMMET045METAR ENDR 022020Z AUTO 32028KT 05/M00 Q0984=
0071010231999992015010220504+64350+007800FM-15+000099999V0203201N013419999999N999999999+00401+00001999999ADDMA1098401999999REMMET044METAR ENDR 022050Z AUTO 32026KT 04/00 Q0984=
0072010231999992015010221204+64350+007800FM-15+000099999V0203101N016519999999N999999999+00301+00001999999ADDMA1098601999999REMMET045METAR ENDR 022120Z AUTO 31032KT 03/M00 Q0986=
0082010231999992015010221504+64350+007800FM-15+000099999V0203101N012419999999N999999999+00401+00001999999ADDMA1098501999999OC101851REMMET047METAR ENDR 022150Z AUTO 31024G36KT 04/00 Q0985=
0072010231999992015010222204+64350+007800FM-15+000099999V0203101N014919999999N999999999+00501-00101999999ADDMA1098601999999REMMET045METAR ENDR 022220Z AUTO 31029KT 05/M01 Q0986=
0072010231999992015010222504+64350+007800FM-15+000099999V0203201N015419999999N999999999+00501-00101999999ADDMA1098601999999REMMET045METAR ENDR 022250Z AUTO 32030KT 05/M01 Q0986=
0072010231999992015010223204+64350+007800FM-15+000099999V0203101N017019999999N999999999+00501+00001999999ADDMA1098701999999REMMET045METAR ENDR 022320Z AUTO 31033KT 05/M00 Q0987=
0072010231999992015010223504+64350+007800FM-15+000099999V0203101N014419999999N999999999+00501+00001999999ADDMA1098701999999REMMET045METAR ENDR 022350Z AUTO 31028KT 05/M00 Q0987=
0072010231999992015010300204+64350+007800FM-15+000099999V0203001N014919999999N999999999+00501-00101999999ADDMA1098801999999REMMET045METAR ENDR 030020Z AUTO 30029KT 05/M01 Q0988=
0072010231999992015010300504+64350+007800FM-15+000099999V0203101N015419999999N999999999+00401-00401999999ADDMA1098801999999REMMET045METAR ENDR 030050Z AUTO 31030KT 04/M04 Q0988=
0083010231999992015010301204+64350+007800FM-15+000099999V0203101N013419999999N999999999+00201-00101999999ADDMA1098901999999OC102011REMMET048METAR ENDR 030120Z AUTO 31026G39KT 02/M01 Q0989=
0071010231999992015010301504+64350+007800FM-15+000099999V0203001N016019999999N999999999+00401+00001999999ADDMA1098901999999REMMET044METAR ENDR 030150Z AUTO 30031KT 04/00 Q0989=
0072010231999992015010302204+64350+007800FM-15+000099999V0203101N012919999999N999999999+00401-00101999999ADDMA1098901999999REMMET045METAR ENDR 030220Z AUTO 31025KT 04/M01 Q0989=
0072010231999992015010302504+64350+007800FM-15+000099999V0202801N016519999999N999999999+00401-00201999999ADDMA1099001999999REMMET045METAR ENDR 030250Z AUTO 28032KT 04/M02 Q0990=
0072010231999992015010303204+64350+007800FM-15+000099999V0203001N014919999999N999999999+00401-00101999999ADDMA1099001999999REMMET045METAR ENDR 030320Z AUTO 30029KT 04/M01 Q0990=
0072010231999992015010303504+64350+007800FM-15+000099999V0202801N016019999999N999999999+00401-00201999999ADDMA1099001999999REMMET045METAR ENDR 030350Z AUTO 28031KT 04/M02 Q0990=
0072010231999992015010304204+64350+007800FM-15+000099999V0202901N015419999999N999999999+00401-00401999999ADDMA1099001999999REMMET045METAR ENDR 030420Z AUTO 29030KT 04/M04 Q0990=
0072010231999992015010304504+64350+007800FM-15+000099999V0202801N014419999999N999999999+00401-00401999999ADDMA1099001999999REMMET045METAR ENDR 030450Z AUTO 28028KT 04/M04 Q0990=
0072010231999992015010305204+64350+007800FM-15+000099999V0202701N017519999999N999999999+00301-00101999999ADDMA1099001999999REMMET045METAR ENDR 030520Z AUTO 27034KT 03/M01 Q0990=
0072010231999992015010305504+64350+007800FM-15+000099999V0202901N016019999999N999999999+00401-00101999999ADDMA1099101999999REMMET045METAR ENDR 030550Z AUTO 29031KT 04/M01 Q0991=
0143010231999992015010306104+64350+007800FM-15+000099999V0203001N016010045719N009999199+00301-00101999999ADDGA1071+004571999GE19MSL   +99999+99999GF199999071999004571999999MA1099101999999REMMET052METAR ENDR 030610Z 30031KT 9999 BKN015 03/M01 Q0991=
0072010231999992015010306504+64350+007800FM-15+000099999V0202801N010819999999N999999999+00201-00101999999ADDMA1099101999999REMMET045METAR ENDR 030650Z AUTO 28021KT 02/M01 Q0991=
0071010231999992015010307204+64350+007800FM-15+000099999V0203101N015419999999N999999999+00201+00001999999ADDMA1099101999999REMMET044METAR ENDR 030720Z AUTO 31030KT 02/00 Q0991=
0072010231999992015010307504+64350+007800FM-15+000099999V0203101N011819999999N999999999+00201+00001999999ADDMA1099201999999REMMET045METAR ENDR 030750Z AUTO 31023KT 02/M00 Q0992=
0072010231999992015010308204+64350+007800FM-15+000099999V0202901N013919999999N999999999+00301+00001999999ADDMA1099201999999REMMET045METAR ENDR 030820Z AUTO 29027KT 03/M00 Q0992=
0079010231999992015010308504+64350+007800FM-15+000099999V0203101V009819999999N999999999+00101+00001999999ADDMA1099301999999REMMET052METAR ENDR 030850Z AUTO 31019KT 290V360 01/00 Q0993=
0162010231999992015010309104+64350+007800FM-15+000099999V0203001V009310061019N005000199+00101+00001999999ADDGA1071+006101999GE19MSL   +99999+99999GF199999071999006101999999MA1099301999999MW1861REMMET065METAR ENDR 030910Z 30018KT 280V360 5000 +SHSN BKN020 01/00 Q0993=
0071010231999992015010309504+64350+007800FM-15+000099999V0203101N018519999999N999999999+00301+00001999999ADDMA1099301999999REMMET044METAR ENDR 030950Z AUTO 31036KT 03/00 Q0993=
0072010231999992015010310204+64350+007800FM-15+000099999V0203201N011319999999N999999999+00101-00101999999ADDMA1099401999999REMMET045METAR ENDR 031020Z AUTO 32022KT 01/M01 Q0994=
0072010231999992015010310504+64350+007800FM-15+000099999V0203201N014919999999N999999999+00001+00001999999ADDMA1099401999999REMMET045METAR ENDR 031050Z AUTO 32029KT 00/M00 Q0994=
0083010231999992015010311204+64350+007800FM-15+000099999V0203101N013919999999N999999999+00201-00101999999ADDMA1099301999999OC102111REMMET048METAR ENDR 031120Z AUTO 31027G41KT 02/M01 Q0993=
0083010231999992015010311504+64350+007800FM-15+000099999V0203101N013419999999N999999999+00301-00401999999ADDMA1099401999999OC101901REMMET048METAR ENDR 031150Z AUTO 31026G37KT 03/M04 Q0994=
0154010231999992015010312104+64350+007800FM-15+000099999V0203001N018010061019N009999199+00301-00401999999ADDGA1071+006101999GE19MSL   +99999+99999GF199999071999006101999999MA1099401999999MW1161REMMET057METAR ENDR 031210Z 30035KT 9999 VCSH BKN020 03/M04 Q0994=
0072010231999992015010312504+64350+007800FM-15+000099999V0203201N014919999999N999999999+00301-00301999999ADDMA1099501999999REMMET045METAR ENDR 031250Z AUTO 32029KT 03/M03 Q0995=
0072010231999992015010313204+64350+007800FM-15+000099999V0203001N017019999999N999999999+00201-00301999999ADDMA1099501999999REMMET045METAR ENDR 031320Z AUTO 30033KT 02/M03 Q0995=
0072010231999992015010313504+64350+007800FM-15+000099999V0203101N021619999999N999999999+00101-00201999999ADDMA1099501999999REMMET045METAR ENDR 031350Z AUTO 31042KT 01/M02 Q0995=
0072010231999992015010314204+64350+007800FM-15+000099999V0202901N014919999999N999999999+00201-00301999999ADDMA1099501999999REMMET045METAR ENDR 031420Z AUTO 29029KT 02/M03 Q0995=
0072010231999992015010314504+64350+007800FM-15+000099999V0203101N017519999999N999999999+00201-00301999999ADDMA1099601999999REMMET045METAR ENDR 031450Z AUTO 31034KT 02/M03 Q0996=
0177010231999992015010315104+64350+007800FM-15+000099999V0203101N014910106719N009999199+00101-00301999999ADDGA1041+006101999GA2071+010671999GE19MSL   +99999+99999GF199999041999006101999999MA1099601999999MW1161REMMET064METAR ENDR 031510Z 31029KT 9999 VCSH SCT020 BKN035 01/M03 Q0996=
0072010231999992015010315504+64350+007800FM-15+000099999V0203201N012419999999N999999999+00201-00201999999ADDMA1099701999999REMMET045METAR ENDR 031550Z AUTO 32024KT 02/M02 Q0997=
0072010231999992015010316204+64350+007800FM-15+000099999V0203101N019019999999N999999999+00301-00201999999ADDMA1099601999999REMMET045METAR ENDR 031620Z AUTO 31037KT 03/M02 Q0996=
0072010231999992015010316504+64350+007800FM-15+000099999V0203101N015419999999N999999999+00201-00201999999ADDMA1099701999999REMMET045METAR ENDR 031650Z AUTO 31030KT 02/M02 Q0997=
0083010231999992015010317204+64350+007800FM-15+000099999V0203001N014419999999N999999999+00201-00301999999ADDMA1099701999999OC102211REMMET048METAR ENDR 031720Z AUTO 30028G43KT 02/M03 Q0997=
0072010231999992015010317504+64350+007800FM-15+000099999V0202801N015419999999N999999999+00201-00201999999ADDMA1099701999999REMMET045METAR ENDR 031750Z AUTO 28030KT 02/M02 Q0997=
0072010231999992015010318204+64350+007800FM-15+000099999V0203001N019019999999N999999999+00201-00201999999ADDMA1099801999999REMMET045METAR ENDR 031820Z AUTO 30037KT 02/M02 Q0998=
0072010231999992015010318504+64350+007800FM-15+000099999V0203001N014419999999N999999999+00201-00201999999ADDMA1099801999999REMMET045METAR ENDR 031850Z AUTO 30028KT 02/M02 Q0998=
0072010231999992015010319204+64350+007800FM-15+000099999V0202801N018519999999N999999999+00101-00101999999ADDMA1099901999999REMMET045METAR ENDR 031920Z AUTO 28036KT 01/M01 Q0999=
0072010231999992015010319504+64350+007800FM-15+000099999V0202801N019619999999N999999999+00101-00101999999ADDMA1099901999999REMMET045METAR ENDR 031950Z AUTO 28038KT 01/M01 Q0999=
0072010231999992015010320204+64350+007800FM-15+000099999V0203001N019019999999N999999999+00101-00101999999ADDMA1100001999999REMMET045METAR ENDR 032020Z AUTO 30037KT 01/M01 Q1000=
0072010231999992015010320504+64350+007800FM-15+000099999V0203201N011819999999N999999999+00101-00101999999ADDMA1100001999999REMMET045METAR ENDR 032050Z AUTO 32023KT 01/M01 Q1000=
0072010231999992015010321204+64350+007800FM-15+000099999V0203101N019019999999N999999999+00301-00601999999ADDMA1100001999999REMMET045METAR ENDR 032120Z AUTO 31037KT 03/M06 Q1000=
0072010231999992015010321504+64350+007800FM-15+000099999V0203101N018519999999N999999999+00201-00401999999ADDMA1100101999999REMMET045METAR ENDR 032150Z AUTO 31036KT 02/M04 Q1001=
0072010231999992015010322204+64350+007800FM-15+000099999V0203001N021119999999N999999999+00201-00301999999ADDMA1100101999999REMMET045METAR ENDR 032220Z AUTO 30041KT 02/M03 Q1001=
0072010231999992015010322504+64350+007800FM-15+000099999V0203101N015419999999N999999999+00201-00301999999ADDMA1100201999999REMMET045METAR ENDR 032250Z AUTO 31030KT 02/M03 Q1002=
0072010231999992015010323204+64350+007800FM-15+000099999V0202801N018019999999N999999999+00101-00301999999ADDMA1100201999999REMMET045METAR ENDR 032320Z AUTO 28035KT 01/M03 Q1002=
0072010231999992015010323504+64350+007800FM-15+000099999V0203001N019019999999N999999999+00301-00501999999ADDMA1100201999999REMMET045METAR ENDR 032350Z AUTO 30037KT 03/M05 Q1002=
0083010231999992015010400204+64350+007800FM-15+000099999V0203101N018019999999N999999999+00201-00401999999ADDMA1100301999999OC102421REMMET048METAR ENDR 040020Z AUTO 31035G47KT 02/M04 Q1003=
0072010231999992015010400504+64350+007800FM-15+000099999V0202901N021119999999N999999999+00301-00201999999ADDMA1100301999999REMMET045METAR ENDR 040050Z AUTO 29041KT 03/M02 Q1003=
0072010231999992015010401204+64350+007800FM-15+000099999V0203001N019019999999N999999999+00301-00401999999ADDMA1100401999999REMMET045METAR ENDR 040120Z AUTO 30037KT 03/M04 Q1004=
0072010231999992015010401504+64350+007800FM-15+000099999V0203101N016519999999N999999999+00101-00201999999ADDMA1100401999999REMMET045METAR ENDR 040150Z AUTO 31032KT 01/M02 Q1004=
0072010231999992015010402204+64350+007800FM-15+000099999V0203001N018519999999N999999999+00301-00301999999ADDMA1100501999999REMMET045METAR ENDR 040220Z AUTO 30036KT 03/M03 Q1005=
0072010231999992015010402504+64350+007800FM-15+000099999V0203101N016519999999N999999999+00201-00501999999ADDMA1100501999999REMMET045METAR ENDR 040250Z AUTO 31032KT 02/M05 Q1005=
0072010231999992015010403204+64350+007800FM-15+000099999V0203001N019019999999N999999999+00301-00501999999ADDMA1100501999999REMMET045METAR ENDR 040320Z AUTO 30037KT 03/M05 Q1005=
0072010231999992015010403504+64350+007800FM-15+000099999V0202901N017519999999N999999999+00301-00301999999ADDMA1100601999999REMMET045METAR ENDR 040350Z AUTO 29034KT 03/M03 Q1006=
0072010231999992015010404204+64350+007800FM-15+000099999V0202801N017519999999N999999999+00201-00201999999ADDMA1100601999999REMMET045METAR ENDR 040420Z AUTO 28034KT 02/M02 Q1006=
0072010231999992015010404504+64350+007800FM-15+000099999V0202901N017519999999N999999999+00301-00401999999ADDMA1100601999999REMMET045METAR ENDR 040450Z AUTO 29034KT 03/M04 Q1006=
0072010231999992015010405204+64350+007800FM-15+000099999V0203001N018519999999N999999999+00401-00401999999ADDMA1100601999999REMMET045METAR ENDR 040520Z AUTO 30036KT 04/M04 Q1006=
0072010231999992015010405504+64350+007800FM-15+000099999V0203101N018519999999N999999999+00301-00301999999ADDMA1100601999999REMMET045METAR ENDR 040550Z AUTO 31036KT 03/M03 Q1006=
0177010231999992015010406104+64350+007800FM-15+000099999V0202901N018510091419N004000199+00201-00101999999ADDGA1021+003051999GA2071+009141999GE19MSL   +99999+99999GF199999021999003051999999MA1100701999999MW1861REMMET064METAR ENDR 040610Z 29036KT 4000 SHSN FEW010 BKN030 02/M01 Q1007=
0072010231999992015010406504+64350+007800FM-15+000099999V0203001N016019999999N999999999+00301-00201999999ADDMA1100701999999REMMET045METAR ENDR 040650Z AUTO 30031KT 03/M02 Q1007=
0072010231999992015010407204+64350+007800FM-15+000099999V0203201N017519999999N999999999+00201-00201999999ADDMA1100701999999REMMET045METAR ENDR 040720Z AUTO 32034KT 02/M02 Q1007=
0072010231999992015010407504+64350+007800FM-15+000099999V0203101N013419999999N999999999+00201-00101999999ADDMA1100801999999REMMET045METAR ENDR 040750Z AUTO 31026KT 02/M01 Q1008=
0072010231999992015010408204+64350+007800FM-15+000099999V0202901N018019999999N999999999+00201-00101999999ADDMA1100801999999REMMET045METAR ENDR 040820Z AUTO 29035KT 02/M01 Q1008=
0072010231999992015010408504+64350+007800FM-15+000099999V0202901N016019999999N999999999+00301-00101999999ADDMA1100901999999REMMET045METAR ENDR 040850Z AUTO 29031KT 03/M01 Q1009=
0072010231999992015010409204+64350+007800FM-15+000099999V0202901N020119999999N999999999+00301-00101999999ADDMA1100801999999REMMET045METAR ENDR 040920Z AUTO 29039KT 03/M01 Q1008=
0072010231999992015010409504+64350+007800FM-15+000099999V0202801N020119999999N999999999+00201-00101999999ADDMA1101001999999REMMET045METAR ENDR 040950Z AUTO 28039KT 02/M01 Q1010=
0072010231999992015010410204+64350+007800FM-15+000099999V0202901N016019999999N999999999+00301-00101999999ADDMA1101001999999REMMET045METAR ENDR 041020Z AUTO 29031KT 03/M01 Q1010=
0072010231999992015010410504+64350+007800FM-15+000099999V0202801N016019999999N999999999+00201-00101999999ADDMA1101001999999REMMET045METAR ENDR 041050Z AUTO 28031KT 02/M01 Q1010=
0072010231999992015010411204+64350+007800FM-15+000099999V0203001N021619999999N999999999+00201-00101999999ADDMA1100901999999REMMET045METAR ENDR 041120Z AUTO 30042KT 02/M01 Q1009=
0072010231999992015010411504+64350+007800FM-15+000099999V0202701N014419999999N999999999+00201+00001999999ADDMA1101001999999REMMET045METAR ENDR 041150Z AUTO 27028KT 02/M00 Q1010=
0179010231999992015010412104+64350+007800FM-15+000099999V0202801N019610061019N006000199+00301+00001999999ADDGA1041+004571999GA2071+006101091GE19MSL   +99999+99999GF199999041999004571999999MA1101001999999MW1161REMMET066METAR ENDR 041210Z 28038KT 6000 VCSH SCT015 BKN020CB 03/M00 Q1010=
0072010231999992015010412504+64350+007800FM-15+000099999V0202901N018019999999N999999999+00301-00101999999ADDMA1101001999999REMMET045METAR ENDR 041250Z AUTO 29035KT 03/M01 Q1010=
0083010231999992015010413204+64350+007800FM-15+000099999V0202901N019619999999N999999999+00301+00001999999ADDMA1101101999999OC102571REMMET048METAR ENDR 041320Z AUTO 29038G50KT 03/M00 Q1011=
0072010231999992015010413504+64350+007800FM-15+000099999V0202901N018019999999N999999999+00401-00301999999ADDMA1101101999999REMMET045METAR ENDR 041350Z AUTO 29035KT 04/M03 Q1011=
0072010231999992015010414204+64350+007800FM-15+000099999V0202901N020619999999N999999999+00501-00501999999ADDMA1101101999999REMMET045METAR ENDR 041420Z AUTO 29040KT 05/M05 Q1011=
0072010231999992015010414504+64350+007800FM-15+000099999V0202901N019019999999N999999999+00501-00501999999ADDMA1101101999999REMMET045METAR ENDR 041450Z AUTO 29037KT 05/M05 Q1011=
0177010231999992015010415104+64350+007800FM-15+000099999V0202901N019610121919N009999199+00501-00401999999ADDGA1041+007621999GA2071+012191999GE19MSL   +99999+99999GF199999041999007621999999MA1101101999999MW1161REMMET064METAR ENDR 041510Z 29038KT 9999 VCSH SCT025 BKN040 05/M04 Q1011=
0072010231999992015010415504+64350+007800FM-15+000099999V0202801N016519999999N999999999+00401-00201999999ADDMA1101201999999REMMET045METAR ENDR 041550Z AUTO 28032KT 04/M02 Q1012=
0072010231999992015010416204+64350+007800FM-15+000099999V0203001N018519999999N999999999+00501-00301999999ADDMA1101201999999REMMET045METAR ENDR 041620Z AUTO 30036KT 05/M03 Q1012=
0080010231999992015010416504+64350+007800FM-15+000099999V0202901V019019999999N999999999+00201-00301999999ADDMA1101301999999REMMET053METAR ENDR 041650Z AUTO 29037KT 270V360 02/M03 Q1013=
0072010231999992015010417204+64350+007800FM-15+000099999V0202801N019619999999N999999999+00301-00201999999ADDMA1101301999999REMMET045METAR ENDR 041720Z AUTO 28038KT 03/M02 Q1013=
0080010231999992015010417504+64350+007800FM-15+000099999V0203001V019019999999N999999999+00301-00101999999ADDMA1101301999999REMMET053METAR ENDR 041750Z AUTO 30037KT 270V360 03/M01 Q1013=
0072010231999992015010418204+64350+007800FM-15+000099999V0203001N020119999999N999999999+00301-00101999999ADDMA1101401999999REMMET045METAR ENDR 041820Z AUTO 30039KT 03/M01 Q1014=
0072010231999992015010418504+64350+007800FM-15+000099999V0203001N017519999999N999999999+00401-00201999999ADDMA1101401999999REMMET045METAR ENDR 041850Z AUTO 30034KT 04/M02 Q1014=
0072010231999992015010419204+64350+007800FM-15+000099999V0203101N013419999999N999999999+00401-00101999999ADDMA1101401999999REMMET045METAR ENDR 041920Z AUTO 31026KT 04/M01 Q1014=
0072010231999992015010419504+64350+007800FM-15+000099999V0203001N014419999999N999999999+00401-00301999999ADDMA1101401999999REMMET045METAR ENDR 041950Z AUTO 30028KT 04/M03 Q1014=
0072010231999992015010420204+64350+007800FM-15+000099999V0202901N016519999999N999999999+00401-00301999999ADDMA1101401999999REMMET045METAR ENDR 042020Z AUTO 29032KT 04/M03 Q1014=
0072010231999992015010420504+64350+007800FM-15+000099999V0202801N012419999999N999999999+00401-00101999999ADDMA1101501999999REMMET045METAR ENDR 042050Z AUTO 28024KT 04/M01 Q1015=
0072010231999992015010421204+64350+007800FM-15+000099999V0202901N017019999999N999999999+00401-00101999999ADDMA1101501999999REMMET045METAR ENDR 042120Z AUTO 29033KT 04/M01 Q1015=
0072010231999992015010421504+64350+007800FM-15+000099999V0202901N014919999999N999999999+00501-00301999999ADDMA1101501999999REMMET045METAR ENDR 042150Z AUTO 29029KT 05/M03 Q1015=
0072010231999992015010422204+64350+007800FM-15+000099999V0203101N013419999999N999999999+00401-00101999999ADDMA1101501999999REMMET045METAR ENDR 042220Z AUTO 31026KT 04/M01 Q1015=
0072010231999992015010422504+64350+007800FM-15+000099999V0202801N013919999999N999999999+00401-00401999999ADDMA1101501999999REMMET045METAR ENDR 042250Z AUTO 28027KT 04/M04 Q1015=
0072010231999992015010423204+64350+007800FM-15+000099999V0202701N013419999999N999999999+00401-00201999999ADDMA1101601999999REMMET045METAR ENDR 042320Z AUTO 27026KT 04/M02 Q1016=
0072010231999992015010423504+64350+007800FM-15+000099999V0202701N013419999999N999999999+00401-00401999999ADDMA1101601999999REMMET045METAR ENDR 042350Z AUTO 27026KT 04/M04 Q1016=
0072010231999992015010500204+64350+007800FM-15+000099999V0202801N013419999999N999999999+00401-00401999999ADDMA1101601999999REMMET045METAR ENDR 050020Z AUTO 28026KT 04/M04 Q1016=
0072010231999992015010500504+64350+007800FM-15+000099999V0202801N013919999999N999999999+00501-00401999999ADDMA1101601999999REMMET045METAR ENDR 050050Z AUTO 28027KT 05/M04 Q1016=
0072010231999992015010501204+64350+007800FM-15+000099999V0202901N010819999999N999999999+00501-00401999999ADDMA1101601999999REMMET045METAR ENDR 050120Z AUTO 29021KT 05/M04 Q1016=
0072010231999992015010501504+64350+007800FM-15+000099999V0202901N011319999999N999999999+00501-00401999999ADDMA1101701999999REMMET045METAR ENDR 050150Z AUTO 29022KT 05/M04 Q1017=
0072010231999992015010502204+64350+007800FM-15+000099999V0202901N009319999999N999999999+00501-00301999999ADDMA1101701999999REMMET045METAR ENDR 050220Z AUTO 29018KT 05/M03 Q1017=
0072010231999992015010502504+64350+007800FM-15+000099999V0202801N009319999999N999999999+00501-00401999999ADDMA1101701999999REMMET045METAR ENDR 050250Z AUTO 28018KT 05/M04 Q1017=
0072010231999992015010503204+64350+007800FM-15+000099999V0202801N008819999999N999999999+00501-00301999999ADDMA1101701999999REMMET045METAR ENDR 050320Z AUTO 28017KT 05/M03 Q1017=
0072010231999992015010503504+64350+007800FM-15+000099999V0202901N008819999999N999999999+00501-00301999999ADDMA1101701999999REMMET045METAR ENDR 050350Z AUTO 29017KT 05/M03 Q1017=
0072010231999992015010504204+64350+007800FM-15+000099999V0202901N008219999999N999999999+00501-00301999999ADDMA1101701999999REMMET045METAR ENDR 050420Z AUTO 29016KT 05/M03 Q1017=
0072010231999992015010504504+64350+007800FM-15+000099999V0202701N007219999999N999999999+00501-00201999999ADDMA1101701999999REMMET045METAR ENDR 050450Z AUTO 27014KT 05/M02 Q1017=
0072010231999992015010505204+64350+007800FM-15+000099999V0202701N007219999999N999999999+00501-00301999999ADDMA1101701999999REMMET045METAR ENDR 050520Z AUTO 27014KT 05/M03 Q1017=
0072010231999992015010505504+64350+007800FM-15+000099999V0202501N006719999999N999999999+00501-00301999999ADDMA1101701999999REMMET045METAR ENDR 050550Z AUTO 25013KT 05/M03 Q1017=
0143010231999992015010506104+64350+007800FM-15+000099999V0202601N006219999999N009999199+00501-00201999999ADDGA1021+012191999GE19MSL   +99999+99999GF199999021999012191999999MA1101701999999REMMET052METAR ENDR 050610Z 26012KT 9999 FEW040 05/M02 Q1017=
0072010231999992015010506504+64350+007800FM-15+000099999V0202401N004619999999N999999999+00501-00101999999ADDMA1101701999999REMMET045METAR ENDR 050650Z AUTO 24009KT 05/M01 Q1017=
0072010231999992015010507204+64350+007800FM-15+000099999V0202201N003619999999N999999999+00501-00101999999ADDMA1101701999999REMMET045METAR ENDR 050720Z AUTO 22007KT 05/M01 Q1017=
0072010231999992015010507504+64350+007800FM-15+000099999V0202101N003619999999N999999999+00501-00101999999ADDMA1101701999999REMMET045METAR ENDR 050750Z AUTO 21007KT 05/M01 Q1017=
0072010231999992015010508204+64350+007800FM-15+000099999V0202001N004619999999N999999999+00601+00001999999ADDMA1101701999999REMMET045METAR ENDR 050820Z AUTO 20009KT 06/M00 Q1017=
0071010231999992015010508504+64350+007800FM-15+000099999V0202001N005719999999N999999999+00601+00101999999ADDMA1101701999999REMMET044METAR ENDR 050850Z AUTO 20011KT 06/01 Q1017=
0142010231999992015010509104+64350+007800FM-15+000099999V0201901N007710061019N009999199+00501+00201999999ADDGA1071+006101999GE19MSL   +99999+99999GF199999071999006101999999MA1101701999999REMMET051METAR ENDR 050910Z 19015KT 9999 BKN020 05/02 Q1017=
0071010231999992015010509504+64350+007800FM-15+000099999V0201701N006719999999N999999999+00501+00301999999ADDMA1101701999999REMMET044METAR ENDR 050950Z AUTO 17013KT 05/03 Q1017=
0071010231999992015010510204+64350+007800FM-15+000099999V0201601N007719999999N999999999+00401+00301999999ADDMA1101601999999REMMET044METAR ENDR 051020Z AUTO 16015KT 04/03 Q1016=
0071010231999992015010510504+64350+007800FM-15+000099999V0201701N010319999999N999999999+00501+00401999999ADDMA1101601999999REMMET044METAR ENDR 051050Z AUTO 17020KT 05/04 Q1016=
0071010231999992015010511204+64350+007800FM-15+000099999V0201701N010319999999N999999999+00501+00401999999ADDMA1101601999999REMMET044METAR ENDR 051120Z AUTO 17020KT 05/04 Q1016=
0071010231999992015010511504+64350+007800FM-15+000099999V0201801N010819999999N999999999+00501+00301999999ADDMA1101601999999REMMET044METAR ENDR 051150Z AUTO 18021KT 05/03 Q1016=
0152010231999992015010512104+64350+007800FM-15+000099999V0201701N010810027419N009999199+00501+00401999999ADDGA1071+002741999GE19MSL   +99999+99999GF199999071999002741999999MA1101501999999MW1611REMMET055METAR ENDR 051210Z 17021KT 9999 -RA BKN009 05/04 Q1015=
0071010231999992015010512504+64350+007800FM-15+000099999V0201701N010819999999N999999999+00501+00401999999ADDMA1101501999999REMMET044METAR ENDR 051250Z AUTO 17021KT 05/04 Q1015=
0071010231999992015010513204+64350+007800FM-15+000099999V0201701N010819999999N999999999+00501+00401999999ADDMA1101501999999REMMET044METAR ENDR 051320Z AUTO 17021KT 05/04 Q1015=
0071010231999992015010513504+64350+007800FM-15+000099999V0201701N011819999999N999999999+00501+00401999999ADDMA1101501999999REMMET044METAR ENDR 051350Z AUTO 17023KT 05/04 Q1015=
0071010231999992015010514204+64350+007800FM-15+000099999V0201801N011319999999N999999999+00501+00501999999ADDMA1101501999999REMMET044METAR ENDR 051420Z AUTO 18022KT 05/05 Q1015=
0071010231999992015010514504+64350+007800FM-15+000099999V0201801N011319999999N999999999+00501+00501999999ADDMA1101501999999REMMET044METAR ENDR 051450Z AUTO 18022KT 05/05 Q1015=
0151010231999992015010515104+64350+007800FM-15+000099999V0201801N011310027419N009999199+00601+00501999999ADDGA1071+002741999GE19MSL   +99999+99999GF199999071999002741999999MA1101501999999MW1631REMMET054METAR ENDR 051510Z 18022KT 9999 RA BKN009 06/05 Q1015=
0071010231999992015010515504+64350+007800FM-15+000099999V0201801N010819999999N999999999+00601+00501999999ADDMA1101401999999REMMET044METAR ENDR 051550Z AUTO 18021KT 06/05 Q1014=
0071010231999992015010516204+64350+007800FM-15+000099999V0201901N010319999999N999999999+00601+00501999999ADDMA1101401999999REMMET044METAR ENDR 051620Z AUTO 19020KT 06/05 Q1014=
0071010231999992015010516504+64350+007800FM-15+000099999V0201901N011319999999N999999999+00601+00501999999ADDMA1101401999999REMMET044METAR ENDR 051650Z AUTO 19022KT 06/05 Q1014=
0071010231999992015010517204+64350+007800FM-15+000099999V0201901N011319999999N999999999+00601+00501999999ADDMA1101401999999REMMET044METAR ENDR 051720Z AUTO 19022KT 06/05 Q1014=
0071010231999992015010517504+64350+007800FM-15+000099999V0201801N011319999999N999999999+00601+00501999999ADDMA1101301999999REMMET044METAR ENDR 051750Z AUTO 18022KT 06/05 Q1013=
0071010231999992015010518204+64350+007800FM-15+000099999V0201701N012419999999N999999999+00601+00501999999ADDMA1101301999999REMMET044METAR ENDR 051820Z AUTO 17024KT 06/05 Q1013=
0071010231999992015010518504+64350+007800FM-15+000099999V0201601N013419999999N999999999+00501+00501999999ADDMA1101301999999REMMET044METAR ENDR 051850Z AUTO 16026KT 05/05 Q1013=
0071010231999992015010519204+64350+007800FM-15+000099999V0201601N013419999999N999999999+00501+00501999999ADDMA1101301999999REMMET044METAR ENDR 051920Z AUTO 16026KT 05/05 Q1013=
0071010231999992015010519504+64350+007800FM-15+000099999V0201601N013919999999N999999999+00501+00501999999ADDMA1101301999999REMMET044METAR ENDR 051950Z AUTO 16027KT 05/05 Q1013=
0071010231999992015010520204+64350+007800FM-15+000099999V0201601N013919999999N999999999+00501+00501999999ADDMA1101301999999REMMET044METAR ENDR 052020Z AUTO 16027KT 05/05 Q1013=
0071010231999992015010520504+64350+007800FM-15+000099999V0201701N013419999999N999999999+00601+00501999999ADDMA1101201999999REMMET044METAR ENDR 052050Z AUTO 17026KT 06/05 Q1012=
0071010231999992015010521204+64350+007800FM-15+000099999V0201701N013419999999N999999999+00601+00501999999ADDMA1101201999999REMMET044METAR ENDR 052120Z AUTO 17026KT 06/05 Q1012=
0071010231999992015010521504+64350+007800FM-15+000099999V0201701N012919999999N999999999+00601+00601999999ADDMA1101201999999REMMET044METAR ENDR 052150Z AUTO 17025KT 06/06 Q1012=
0071010231999992015010522204+64350+007800FM-15+000099999V0201801N012419999999N999999999+00601+00601999999ADDMA1101201999999REMMET044METAR ENDR 052220Z AUTO 18024KT 06/06 Q1012=
0071010231999992015010522504+64350+007800FM-15+000099999V0201801N011819999999N999999999+00601+00601999999ADDMA1101201999999REMMET044METAR ENDR 052250Z AUTO 18023KT 06/06 Q1012=
0071010231999992015010523204+64350+007800FM-15+000099999V0201801N011319999999N999999999+00701+00601999999ADDMA1101201999999REMMET044METAR ENDR 052320Z AUTO 18022KT 07/06 Q1012=
0071010231999992015010523504+64350+007800FM-15+000099999V0201901N011319999999N999999999+00701+00701999999ADDMA1101201999999REMMET044METAR ENDR 052350Z AUTO 19022KT 07/07 Q1012=
0071010231999992015010600204+64350+007800FM-15+000099999V0202001N012419999999N999999999+00701+00701999999ADDMA1101101999999REMMET044METAR ENDR 060020Z AUTO 20024KT 07/07 Q1011=
0071010231999992015010600504+64350+007800FM-15+000099999V0201901N011819999999N999999999+00701+00601999999ADDMA1101101999999REMMET044METAR ENDR 060050Z AUTO 19023KT 07/06 Q1011=
0071010231999992015010601204+64350+007800FM-15+000099999V0201901N011319999999N999999999+00701+00701999999ADDMA1101101999999REMMET044METAR ENDR 060120Z AUTO 19022KT 07/07 Q1011=
0071010231999992015010601504+64350+007800FM-15+000099999V0201901N011319999999N999999999+00701+00701999999ADDMA1101101999999REMMET044METAR ENDR 060150Z AUTO 19022KT 07/07 Q1011=
0071010231999992015010602204+64350+007800FM-15+000099999V0201901N010819999999N999999999+00701+00701999999ADDMA1101101999999REMMET044METAR ENDR 060220Z AUTO 19021KT 07/07 Q1011=
0071010231999992015010602504+64350+007800FM-15+000099999V0201801N010819999999N999999999+00701+00601999999ADDMA1101001999999REMMET044METAR ENDR 060250Z AUTO 18021KT 07/06 Q1010=
0071010231999992015010603204+64350+007800FM-15+000099999V0201901N010319999999N999999999+00701+00701999999ADDMA1101001999999REMMET044METAR ENDR 060320Z AUTO 19020KT 07/07 Q1010=
0071010231999992015010603504+64350+007800FM-15+000099999V0201801N010319999999N999999999+00701+00601999999ADDMA1101001999999REMMET044METAR ENDR 060350Z AUTO 18020KT 07/06 Q1010=
0071010231999992015010604204+64350+007800FM-15+000099999V0201701N010319999999N999999999+00701+00601999999ADDMA1100901999999REMMET044METAR ENDR 060420Z AUTO 17020KT 07/06 Q1009=
0071010231999992015010604504+64350+007800FM-15+000099999V0201701N010319999999N999999999+00701+00601999999ADDMA1100901999999REMMET044METAR ENDR 060450Z AUTO 17020KT 07/06 Q1009=
0071010231999992015010605204+64350+007800FM-15+000099999V0201601N009819999999N999999999+00701+00601999999ADDMA1100901999999REMMET044METAR ENDR 060520Z AUTO 16019KT 07/06 Q1009=
0071010231999992015010605504+64350+007800FM-15+000099999V0201601N009819999999N999999999+00701+00601999999ADDMA1100801999999REMMET044METAR ENDR 060550Z AUTO 16019KT 07/06 Q1008=
0165010231999992015010606104+64350+007800FM-15+000099999V0201601N009310076219N009999199+00701+00601999999ADDGA1071+007621999GA2071+018291999GE19MSL   +99999+99999GF199999071999007621999999MA1100801999999REMMET058METAR ENDR 060610Z 16018KT 9999 BKN025 BKN060 07/06 Q1008=
0071010231999992015010606504+64350+007800FM-15+000099999V0201501N009819999999N999999999+00701+00601999999ADDMA1100801999999REMMET044METAR ENDR 060650Z AUTO 15019KT 07/06 Q1008=
0071010231999992015010607204+64350+007800FM-15+000099999V0201501N010319999999N999999999+00701+00601999999ADDMA1100701999999REMMET044METAR ENDR 060720Z AUTO 15020KT 07/06 Q1007=
0071010231999992015010607504+64350+007800FM-15+000099999V0201501N010319999999N999999999+00701+00601999999ADDMA1100701999999REMMET044METAR ENDR 060750Z AUTO 15020KT 07/06 Q1007=
0071010231999992015010608204+64350+007800FM-15+000099999V0201501N010819999999N999999999+00701+00601999999ADDMA1100701999999REMMET044METAR ENDR 060820Z AUTO 15021KT 07/06 Q1007=
0071010231999992015010608504+64350+007800FM-15+000099999V0201501N011319999999N999999999+00701+00601999999ADDMA1100601999999REMMET044METAR ENDR 060850Z AUTO 15022KT 07/06 Q1006=
0071010231999992015010609204+64350+007800FM-15+000099999V0201501N010819999999N999999999+00701+00601999999ADDMA1100601999999REMMET044METAR ENDR 060920Z AUTO 15021KT 07/06 Q1006=
0071010231999992015010609504+64350+007800FM-15+000099999V0201501N010819999999N999999999+00701+00601999999ADDMA1100501999999REMMET044METAR ENDR 060950Z AUTO 15021KT 07/06 Q1005=
0071010231999992015010610204+64350+007800FM-15+000099999V0201601N012919999999N999999999+00701+00501999999ADDMA1100501999999REMMET044METAR ENDR 061020Z AUTO 16025KT 07/05 Q1005=
0071010231999992015010610504+64350+007800FM-15+000099999V0201601N010819999999N999999999+00701+00501999999ADDMA1100501999999REMMET044METAR ENDR 061050Z AUTO 16021KT 07/05 Q1005=
0071010231999992015010611204+64350+007800FM-15+000099999V0201501N010819999999N999999999+00701+00501999999ADDMA1100401999999REMMET044METAR ENDR 061120Z AUTO 15021KT 07/05 Q1004=
0071010231999992015010611504+64350+007800FM-15+000099999V0201501N010319999999N999999999+00701+00501999999ADDMA1100401999999REMMET044METAR ENDR 061150Z AUTO 15020KT 07/05 Q1004=
0142010231999992015010612104+64350+007800FM-15+000099999V0201701N010810091419N009999199+00701+00501999999ADDGA1081+009141999GE19MSL   +99999+99999GF199999081999009141999999MA1100301999999REMMET051METAR ENDR 061210Z 17021KT 9999 OVC030 07/05 Q1003=
0071010231999992015010612504+64350+007800FM-15+000099999V0201601N010819999999N999999999+00701+00501999999ADDMA1100301999999REMMET044METAR ENDR 061250Z AUTO 16021KT 07/05 Q1003=
0071010231999992015010613204+64350+007800FM-15+000099999V0201601N010819999999N999999999+00701+00601999999ADDMA1100301999999REMMET044METAR ENDR 061320Z AUTO 16021KT 07/06 Q1003=
0071010231999992015010613504+64350+007800FM-15+000099999V0201501N011319999999N999999999+00701+00601999999ADDMA1100201999999REMMET044METAR ENDR 061350Z AUTO 15022KT 07/06 Q1002=
0071010231999992015010614204+64350+007800FM-15+000099999V0201501N010819999999N999999999+00701+00601999999ADDMA1100201999999REMMET044METAR ENDR 061420Z AUTO 15021KT 07/06 Q1002=
0071010231999992015010614504+64350+007800FM-15+000099999V0201501N010319999999N999999999+00601+00501999999ADDMA1100201999999REMMET044METAR ENDR 061450Z AUTO 15020KT 06/05 Q1002=
0151010231999992015010615104+64350+007800FM-15+000099999V0201501N009810085319N008000199+00601+00501999999ADDGA1081+008531999GE19MSL   +99999+99999GF199999081999008531999999MA1100101999999MW1631REMMET054METAR ENDR 061510Z 15019KT 8000 RA OVC028 06/05 Q1001=
0071010231999992015010615504+64350+007800FM-15+000099999V0201401N010319999999N999999999+00601+00501999999ADDMA1100101999999REMMET044METAR ENDR 061550Z AUTO 14020KT 06/05 Q1001=
0071010231999992015010616204+64350+007800FM-15+000099999V0201501N009819999999N999999999+00601+00601999999ADDMA1100001999999REMMET044METAR ENDR 061620Z AUTO 15019KT 06/06 Q1000=
0071010231999992015010616504+64350+007800FM-15+000099999V0201501N010819999999N999999999+00601+00501999999ADDMA1100001999999REMMET044METAR ENDR 061650Z AUTO 15021KT 06/05 Q1000=
0071010231999992015010617204+64350+007800FM-15+000099999V0201501N010819999999N999999999+00601+00501999999ADDMA1100001999999REMMET044METAR ENDR 061720Z AUTO 15021KT 06/05 Q1000=
0071010231999992015010617504+64350+007800FM-15+000099999V0201501N011319999999N999999999+00601+00501999999ADDMA1099901999999REMMET044METAR ENDR 061750Z AUTO 15022KT 06/05 Q0999=
0071010231999992015010618204+64350+007800FM-15+000099999V0201401N010319999999N999999999+00701+00501999999ADDMA1099901999999REMMET044METAR ENDR 061820Z AUTO 14020KT 07/05 Q0999=
0071010231999992015010618504+64350+007800FM-15+000099999V0201401N010819999999N999999999+00701+00601999999ADDMA1099801999999REMMET044METAR ENDR 061850Z AUTO 14021KT 07/06 Q0998=
0071010231999992015010619204+64350+007800FM-15+000099999V0201401N010819999999N999999999+00701+00501999999ADDMA1099801999999REMMET044METAR ENDR 061920Z AUTO 14021KT 07/05 Q0998=
0071010231999992015010619504+64350+007800FM-15+000099999V0201501N011319999999N999999999+00801+00401999999ADDMA1099801999999REMMET044METAR ENDR 061950Z AUTO 15022KT 08/04 Q0998=
0071010231999992015010620204+64350+007800FM-15+000099999V0201701N011319999999N999999999+00801+00501999999ADDMA1099801999999REMMET044METAR ENDR 062020Z AUTO 17022KT 08/05 Q0998=
0071010231999992015010620504+64350+007800FM-15+000099999V0201701N011819999999N999999999+00801+00401999999ADDMA1099801999999REMMET044METAR ENDR 062050Z AUTO 17023KT 08/04 Q0998=
0071010231999992015010621204+64350+007800FM-15+000099999V0201901N012419999999N999999999+00701+00501999999ADDMA1099801999999REMMET044METAR ENDR 062120Z AUTO 19024KT 07/05 Q0998=
0071010231999992015010621504+64350+007800FM-15+000099999V0202101N017019999999N999999999+00701+00401999999ADDMA1099701999999REMMET044METAR ENDR 062150Z AUTO 21033KT 07/04 Q0997=
0071010231999992015010622204+64350+007800FM-15+000099999V0202101N013419999999N999999999+00701+00401999999ADDMA1099801999999REMMET044METAR ENDR 062220Z AUTO 21026KT 07/04 Q0998=
0071010231999992015010622504+64350+007800FM-15+000099999V0202801N013919999999N999999999+00601+00501999999ADDMA1099801999999REMMET044METAR ENDR 062250Z AUTO 28027KT 06/05 Q0998=
0071010231999992015010623204+64350+007800FM-15+000099999V0203001N016519999999N999999999+00601+00401999999ADDMA1099801999999REMMET044METAR ENDR 062320Z AUTO 30032KT 06/04 Q0998=
0071010231999992015010623504+64350+007800FM-15+000099999V0203101N016519999999N999999999+00601+00401999999ADDMA1099901999999REMMET044METAR ENDR 062350Z AUTO 31032KT 06/04 Q0999=
0071010231999992015010700204+64350+007800FM-15+000099999V0203101N016019999999N999999999+00601+00301999999ADDMA1100101999999REMMET044METAR ENDR 070020Z AUTO 31031KT 06/03 Q1001=
0071010231999992015010700504+64350+007800FM-15+000099999V0203101N016019999999N999999999+00601+00301999999ADDMA1100101999999REMMET044METAR ENDR 070050Z AUTO 31031KT 06/03 Q1001=
0071010231999992015010701204+64350+007800FM-15+000099999V0203101N014419999999N999999999+00601+00201999999ADDMA1100201999999REMMET044METAR ENDR 070120Z AUTO 31028KT 06/02 Q1002=
0071010231999992015010701504+64350+007800FM-15+000099999V0203001N013419999999N999999999+00501+00201999999ADDMA1100301999999REMMET044METAR ENDR 070150Z AUTO 30026KT 05/02 Q1003=
0071010231999992015010702204+64350+007800FM-15+000099999V0203101N008219999999N999999999+00501+00301999999ADDMA1100401999999REMMET044METAR ENDR 070220Z AUTO 31016KT 05/03 Q1004=
0071010231999992015010702504+64350+007800FM-15+000099999V0202901N010319999999N999999999+00601+00201999999ADDMA1100501999999REMMET044METAR ENDR 070250Z AUTO 29020KT 06/02 Q1005=
0071010231999992015010703204+64350+007800FM-15+000099999V0202901N007719999999N999999999+00601+00301999999ADDMA1100501999999REMMET044METAR ENDR 070320Z AUTO 29015KT 06/03 Q1005=
0071010231999992015010703504+64350+007800FM-15+000099999V0202701N009319999999N999999999+00601+00101999999ADDMA1100501999999REMMET044METAR ENDR 070350Z AUTO 27018KT 06/01 Q1005=
0071010231999992015010704204+64350+007800FM-15+000099999V0202701N009319999999N999999999+00601+00101999999ADDMA1100601999999REMMET044METAR ENDR 070420Z AUTO 27018KT 06/01 Q1006=
0071010231999992015010704504+64350+007800FM-15+000099999V0202501N008819999999N999999999+00601+00101999999ADDMA1100601999999REMMET044METAR ENDR 070450Z AUTO 25017KT 06/01 Q1006=
0071010231999992015010705204+64350+007800FM-15+000099999V0202501N006719999999N999999999+00601+00101999999ADDMA1100601999999REMMET044METAR ENDR 070520Z AUTO 25013KT 06/01 Q1006=
0071010231999992015010705504+64350+007800FM-15+000099999V0202501N008819999999N999999999+00601+00101999999ADDMA1100501999999REMMET044METAR ENDR 070550Z AUTO 25017KT 06/01 Q1005=
0142010231999992015010706104+64350+007800FM-15+000099999V0202401N007219999999N009999199+00601+00101999999ADDGA1021+009141999GE19MSL   +99999+99999GF199999021999009141999999MA1100601999999REMMET051METAR ENDR 070610Z 24014KT 9999 FEW030 06/01 Q1006=
0072010231999992015010706504+64350+007800FM-15+000099999V0202201N008819999999N999999999+00601-00101999999ADDMA1100601999999REMMET045METAR ENDR 070650Z AUTO 22017KT 06/M01 Q1006=
0072010231999992015010707204+64350+007800FM-15+000099999V0202201N008219999999N999999999+00601+00001999999ADDMA1100601999999REMMET045METAR ENDR 070720Z AUTO 22016KT 06/M00 Q1006=
0071010231999992015010707504+64350+007800FM-15+000099999V0202101N008219999999N999999999+00601+00101999999ADDMA1100601999999REMMET044METAR ENDR 070750Z AUTO 21016KT 06/01 Q1006=
0071010231999992015010708204+64350+007800FM-15+000099999V0201801N008819999999N999999999+00501+00101999999ADDMA1100601999999REMMET044METAR ENDR 070820Z AUTO 18017KT 05/01 Q1006=
0071010231999992015010708504+64350+007800FM-15+000099999V0202001N010819999999N999999999+00601+00101999999ADDMA1100501999999REMMET044METAR ENDR 070850Z AUTO 20021KT 06/01 Q1005=
0142010231999992015010709204+64350+007800FM-15+000099999V0201901N008819999999N009999199+00601+00101999999ADDGA1021+007621999GE19MSL   +99999+99999GF199999021999007621999999MA1100501999999REMMET051METAR ENDR 070920Z 19017KT 9999 FEW025 06/01 Q1005=
0165010231999992015010709404+64350+007800FM-15+000099999V0202001N01291010671CN009999199+00501+00101999999ADDGA1021+004881999GA2041+010671999GE19MSL   +99999+99999GF199999021999004881999999MA1100501999999REMMET058METAR ENDR 070940Z 20025KT 9999 FEW016 SCT035 05/01 Q1005=
0071010231999992015010710204+64350+007800FM-15+000099999V0202101N009819999999N999999999+00601+00201999999ADDMA1100501999999REMMET044METAR ENDR 071020Z AUTO 21019KT 06/02 Q1005=
0071010231999992015010710504+64350+007800FM-15+000099999V0201901N011319999999N999999999+00601+00101999999ADDMA1100401999999REMMET044METAR ENDR 071050Z AUTO 19022KT 06/01 Q1004=
0071010231999992015010711204+64350+007800FM-15+000099999V0201901N011819999999N999999999+00601+00101999999ADDMA1100401999999REMMET044METAR ENDR 071120Z AUTO 19023KT 06/01 Q1004=
0071010231999992015010711504+64350+007800FM-15+000099999V0201701N010819999999N999999999+00601+00201999999ADDMA1100301999999REMMET044METAR ENDR 071150Z AUTO 17021KT 06/02 Q1003=
0160010231999992015010712104+64350+007800FM-15+000099999V0201701N01181018291CN999999999+00601+00001999999ADDGA1021+006101999GA2041+018291999GE19MSL   +99999+99999GF199999021999006101999999MA1100301999999REMMET053METAR ENDR 071210Z 17023KT FEW020 SCT060 06/00 Q1003=
0072010231999992015010712504+64350+007800FM-15+000099999V0201701N011319999999N999999999+00601+00001999999ADDMA1100201999999REMMET045METAR ENDR 071250Z AUTO 17022KT 06/M00 Q1002=
0072010231999992015010713204+64350+007800FM-15+000099999V0201701N011819999999N999999999+00601-00101999999ADDMA1100201999999REMMET045METAR ENDR 071320Z AUTO 17023KT 06/M01 Q1002=
0071010231999992015010713504+64350+007800FM-15+000099999V0201501N010819999999N999999999+00601+00101999999ADDMA1100101999999REMMET044METAR ENDR 071350Z AUTO 15021KT 06/01 Q1001=
0071010231999992015010714204+64350+007800FM-15+000099999V0201401N011819999999N999999999+00601+00101999999ADDMA1100101999999REMMET044METAR ENDR 071420Z AUTO 14023KT 06/01 Q1001=
0071010231999992015010714504+64350+007800FM-15+000099999V0201401N012919999999N999999999+00601+00101999999ADDMA1100001999999REMMET044METAR ENDR 071450Z AUTO 14025KT 06/01 Q1000=
0072010231999992015010715104+64350+007800FM-15+000099999V0201401N013419999999Y999999999+00601+00101999999ADDMA1099901999999REMMET045METAR ENDR 071510Z 14026KT CAVOK 06/01 Q0999=
0071010231999992015010715504+64350+007800FM-15+000099999V0201401N013419999999N999999999+00601+00201999999ADDMA1099901999999REMMET044METAR ENDR 071550Z AUTO 14026KT 06/02 Q0999=
0071010231999992015010716204+64350+007800FM-15+000099999V0201401N013919999999N999999999+00501+00201999999ADDMA1099801999999REMMET044METAR ENDR 071620Z AUTO 14027KT 05/02 Q0998=
0071010231999992015010716504+64350+007800FM-15+000099999V0201401N013419999999N999999999+00501+00201999999ADDMA1099701999999REMMET044METAR ENDR 071650Z AUTO 14026KT 05/02 Q0997=
0071010231999992015010717204+64350+007800FM-15+000099999V0201401N012419999999N999999999+00501+00101999999ADDMA1099601999999REMMET044METAR ENDR 071720Z AUTO 14024KT 05/01 Q0996=
0071010231999992015010717504+64350+007800FM-15+000099999V0201401N011319999999N999999999+00601+00101999999ADDMA1099601999999REMMET044METAR ENDR 071750Z AUTO 14022KT 06/01 Q0996=
0071010231999992015010718204+64350+007800FM-15+000099999V0201401N011319999999N999999999+00601+00001999999ADDMA1099501999999REMMET044METAR ENDR 071820Z AUTO 14022KT 06/00 Q0995=
0071010231999992015010718504+64350+007800FM-15+000099999V0201501N011319999999N999999999+00601+00101999999ADDMA1099401999999REMMET044METAR ENDR 071850Z AUTO 15022KT 06/01 Q0994=
0071010231999992015010719204+64350+007800FM-15+000099999V0201401N010819999999N999999999+00601+00001999999ADDMA1099301999999REMMET044METAR ENDR 071920Z AUTO 14021KT 06/00 Q0993=
0071010231999992015010719504+64350+007800FM-15+000099999V0201401N010319999999N999999999+00601+00001999999ADDMA1099201999999REMMET044METAR ENDR 071950Z AUTO 14020KT 06/00 Q0992=
0072010231999992015010720204+64350+007800FM-15+000099999V0201401N011319999999N999999999+00601+00001999999ADDMA1099201999999REMMET045METAR ENDR 072020Z AUTO 14022KT 06/M00 Q0992=
0071010231999992015010720504+64350+007800FM-15+000099999V0201401N012419999999N999999999+00601+00101999999ADDMA1099101999999REMMET044METAR ENDR 072050Z AUTO 14024KT 06/01 Q0991=
0071010231999992015010721204+64350+007800FM-15+000099999V0201301N013419999999N999999999+00601+00201999999ADDMA1099001999999REMMET044METAR ENDR 072120Z AUTO 13026KT 06/02 Q0990=
0071010231999992015010721504+64350+007800FM-15+000099999V0201501N013919999999N999999999+00601+00201999999ADDMA1098901999999REMMET044METAR ENDR 072150Z AUTO 15027KT 06/02 Q0989=
0071010231999992015010722204+64350+007800FM-15+000099999V0201401N012419999999N999999999+00601+00201999999ADDMA1098801999999REMMET044METAR ENDR 072220Z AUTO 14024KT 06/02 Q0988=
0071010231999992015010722504+64350+007800FM-15+000099999V0201401N013919999999N999999999+00601+00301999999ADDMA1098801999999REMMET044METAR ENDR 072250Z AUTO 14027KT 06/03 Q0988=
0071010231999992015010723204+64350+007800FM-15+000099999V0201601N014419999999N999999999+00601+00301999999ADDMA1098701999999REMMET044METAR ENDR 072320Z AUTO 16028KT 06/03 Q0987=
0071010231999992015010723504+64350+007800FM-15+000099999V0201501N016019999999N999999999+00601+00301999999ADDMA1098601999999REMMET044METAR ENDR 072350Z AUTO 15031KT 06/03 Q0986=
0071010231999992015010800204+64350+007800FM-15+000099999V0201401N012919999999N999999999+00601+00301999999ADDMA1098501999999REMMET044METAR ENDR 080020Z AUTO 14025KT 06/03 Q0985=
0071010231999992015010800504+64350+007800FM-15+000099999V0201401N011819999999N999999999+00601+00301999999ADDMA1098401999999REMMET044METAR ENDR 080050Z AUTO 14023KT 06/03 Q0984=
0071010231999992015010801204+64350+007800FM-15+000099999V0201401N014419999999N999999999+00601+00301999999ADDMA1098301999999REMMET044METAR ENDR 080120Z AUTO 14028KT 06/03 Q0983=
0071010231999992015010801504+64350+007800FM-15+000099999V0201401N014919999999N999999999+00601+00401999999ADDMA1098301999999REMMET044METAR ENDR 080150Z AUTO 14029KT 06/04 Q0983=
0071010231999992015010802204+64350+007800FM-15+000099999V0201601N013919999999N999999999+00601+00501999999ADDMA1098301999999REMMET044METAR ENDR 080220Z AUTO 16027KT 06/05 Q0983=
0071010231999992015010802504+64350+007800FM-15+000099999V0201801N013419999999N999999999+00601+00401999999ADDMA1098301999999REMMET044METAR ENDR 080250Z AUTO 18026KT 06/04 Q0983=
0071010231999992015010803204+64350+007800FM-15+000099999V0201801N013419999999N999999999+00601+00401999999ADDMA1098301999999REMMET044METAR ENDR 080320Z AUTO 18026KT 06/04 Q0983=
0071010231999992015010803504+64350+007800FM-15+000099999V0202001N016019999999N999999999+00701+00501999999ADDMA1098301999999REMMET044METAR ENDR 080350Z AUTO 20031KT 07/05 Q0983=
0071010231999992015010804204+64350+007800FM-15+000099999V0202401N017519999999N999999999+00701+00401999999ADDMA1098301999999REMMET044METAR ENDR 080420Z AUTO 24034KT 07/04 Q0983=
0071010231999992015010804504+64350+007800FM-15+000099999V0202301N017019999999N999999999+00701+00301999999ADDMA1098401999999REMMET044METAR ENDR 080450Z AUTO 23033KT 07/03 Q0984=
0071010231999992015010805204+64350+007800FM-15+000099999V0202301N017019999999N999999999+00701+00201999999ADDMA1098401999999REMMET044METAR ENDR 080520Z AUTO 23033KT 07/02 Q0984=
0071010231999992015010805504+64350+007800FM-15+000099999V0202301N017519999999N999999999+00701+00301999999ADDMA1098401999999REMMET044METAR ENDR 080550Z AUTO 23034KT 07/03 Q0984=
0142010231999992015010806104+64350+007800FM-15+000099999V0202301N017019999999N009999199+00701+00201999999ADDGA1021+009141999GE19MSL   +99999+99999GF199999021999009141999999MA1098501999999REMMET051METAR ENDR 080610Z 23033KT 9999 FEW030 07/02 Q0985=
0071010231999992015010806504+64350+007800FM-15+000099999V0202301N016019999999N999999999+00701+00101999999ADDMA1098501999999REMMET044METAR ENDR 080650Z AUTO 23031KT 07/01 Q0985=
0071010231999992015010807204+64350+007800FM-15+000099999V0202301N016519999999N999999999+00601+00301999999ADDMA1098601999999REMMET044METAR ENDR 080720Z AUTO 23032KT 06/03 Q0986=
0071010231999992015010807504+64350+007800FM-15+000099999V0202201N016519999999N999999999+00701+00201999999ADDMA1098601999999REMMET044METAR ENDR 080750Z AUTO 22032KT 07/02 Q0986=
0071010231999992015010808204+64350+007800FM-15+000099999V0202301N017519999999N999999999+00701+00201999999ADDMA1098601999999REMMET044METAR ENDR 080820Z AUTO 23034KT 07/02 Q0986=
0071010231999992015010808504+64350+007800FM-15+000099999V0202201N016019999999N999999999+00701+00201999999ADDMA1098601999999REMMET044METAR ENDR 080850Z AUTO 22031KT 07/02 Q0986=
0082010231999992015010809204+64350+007800FM-15+000099999V0202301N013919999999N999999999+00501+00101999999ADDMA1098701999999OC102211REMMET047METAR ENDR 080920Z AUTO 23027G43KT 05/01 Q0987=
0071010231999992015010809504+64350+007800FM-15+000099999V0202101N014419999999N999999999+00601+00301999999ADDMA1098701999999REMMET044METAR ENDR 080950Z AUTO 21028KT 06/03 Q0987=
0071010231999992015010810204+64350+007800FM-15+000099999V0202101N017519999999N999999999+00601+00301999999ADDMA1098701999999REMMET044METAR ENDR 081020Z AUTO 21034KT 06/03 Q0987=
0071010231999992015010810504+64350+007800FM-15+000099999V0202101N018519999999N999999999+00701+00301999999ADDMA1098701999999REMMET044METAR ENDR 081050Z AUTO 21036KT 07/03 Q0987=
0071010231999992015010811204+64350+007800FM-15+000099999V0202301N020619999999N999999999+00501+00301999999ADDMA1098701999999REMMET044METAR ENDR 081120Z AUTO 23040KT 05/03 Q0987=
0071010231999992015010811504+64350+007800FM-15+000099999V0202201N013919999999N999999999+00501+00301999999ADDMA1098701999999REMMET044METAR ENDR 081150Z AUTO 22027KT 05/03 Q0987=
0178010231999992015010812104+64350+007800FM-15+000099999V0202201N014410061019N009000199+00601+00301999999ADDGA1071+006101091GA2071+018291999GE19MSL   +99999+99999GF199999071999006101999999MA1098701999999MW1161REMMET065METAR ENDR 081210Z 22028KT 9000 VCSH BKN020CB BKN060 06/03 Q0987=
0071010231999992015010812504+64350+007800FM-15+000099999V0202201N011819999999N999999999+00701+00301999999ADDMA1098701999999REMMET044METAR ENDR 081250Z AUTO 22023KT 07/03 Q0987=
0071010231999992015010813204+64350+007800FM-15+000099999V0202301N013919999999N999999999+00601+00101999999ADDMA1098701999999REMMET044METAR ENDR 081320Z AUTO 23027KT 06/01 Q0987=
0082010231999992015010813504+64350+007800FM-15+000099999V0202401N016519999999N999999999+00401+00001999999ADDMA1098801999999OC102271REMMET047METAR ENDR 081350Z AUTO 24032G44KT 04/00 Q0988=
0071010231999992015010814204+64350+007800FM-15+000099999V0202301N013919999999N999999999+00601+00101999999ADDMA1098801999999REMMET044METAR ENDR 081420Z AUTO 23027KT 06/01 Q0988=
0071010231999992015010814504+64350+007800FM-15+000099999V0202201N015419999999N999999999+00601+00101999999ADDMA1098801999999REMMET044METAR ENDR 081450Z AUTO 22030KT 06/01 Q0988=
0201010231999992015010815104+64350+007800FM-15+000099999V0202201N012910182919N009999199+00601+00201999999ADDGA1041+006101091GA2071+018291999GA3071+045721999GE19MSL   +99999+99999GF199999041999006101999999MA1098801999999MW1161REMMET072METAR ENDR 081510Z 22025KT 9999 VCSH SCT020CB BKN060 BKN150 06/02 Q0988=
0071010231999992015010815504+64350+007800FM-15+000099999V0202401N013419999999N999999999+00601+00201999999ADDMA1098801999999REMMET044METAR ENDR 081550Z AUTO 24026KT 06/02 Q0988=
0071010231999992015010816204+64350+007800FM-15+000099999V0202501N016019999999N999999999+00601+00201999999ADDMA1098801999999REMMET044METAR ENDR 081620Z AUTO 25031KT 06/02 Q0988=
0071010231999992015010816504+64350+007800FM-15+000099999V0202501N014419999999N999999999+00601+00001999999ADDMA1098901999999REMMET044METAR ENDR 081650Z AUTO 25028KT 06/00 Q0989=
0071010231999992015010817204+64350+007800FM-15+000099999V0202501N017019999999N999999999+00501+00001999999ADDMA1098801999999REMMET044METAR ENDR 081720Z AUTO 25033KT 05/00 Q0988=
0071010231999992015010817504+64350+007800FM-15+000099999V0202401N012919999999N999999999+00601+00101999999ADDMA1098901999999REMMET044METAR ENDR 081750Z AUTO 24025KT 06/01 Q0989=
0071010231999992015010818204+64350+007800FM-15+000099999V0202401N014419999999N999999999+00701+00101999999ADDMA1098901999999REMMET044METAR ENDR 081820Z AUTO 24028KT 07/01 Q0989=
0071010231999992015010818504+64350+007800FM-15+000099999V0202501N013919999999N999999999+00701+00101999999ADDMA1098901999999REMMET044METAR ENDR 081850Z AUTO 25027KT 07/01 Q0989=
0071010231999992015010819204+64350+007800FM-15+000099999V0202501N014919999999N999999999+00701+00201999999ADDMA1099001999999REMMET044METAR ENDR 081920Z AUTO 25029KT 07/02 Q0990=
0071010231999992015010819504+64350+007800FM-15+000099999V0202401N012919999999N999999999+00601+00001999999ADDMA1099001999999REMMET044METAR ENDR 081950Z AUTO 24025KT 06/00 Q0990=
0071010231999992015010820204+64350+007800FM-15+000099999V0202501N015419999999N999999999+00501+00101999999ADDMA1099001999999REMMET044METAR ENDR 082020Z AUTO 25030KT 05/01 Q0990=
0072010231999992015010820504+64350+007800FM-15+000099999V0202501N012419999999N999999999+00601+00001999999ADDMA1099001999999REMMET045METAR ENDR 082050Z AUTO 25024KT 06/M00 Q0990=
0072010231999992015010821204+64350+007800FM-15+000099999V0202601N014919999999N999999999+00601+00001999999ADDMA1099001999999REMMET045METAR ENDR 082120Z AUTO 26029KT 06/M00 Q0990=
0071010231999992015010821504+64350+007800FM-15+000099999V0202601N014919999999N999999999+00601+00001999999ADDMA1099001999999REMMET044METAR ENDR 082150Z AUTO 26029KT 06/00 Q0990=
0072010231999992015010822204+64350+007800FM-15+000099999V0202601N014919999999N999999999+00501-00101999999ADDMA1099101999999REMMET045METAR ENDR 082220Z AUTO 26029KT 05/M01 Q0991=
0071010231999992015010822504+64350+007800FM-15+000099999V0202601N011819999999N999999999+00501+00001999999ADDMA1099101999999REMMET044METAR ENDR 082250Z AUTO 26023KT 05/00 Q0991=
0071010231999992015010823204+64350+007800FM-15+000099999V0202401N011319999999N999999999+00501+00001999999ADDMA1099101999999REMMET044METAR ENDR 082320Z AUTO 24022KT 05/00 Q0991=
0072010231999992015010823504+64350+007800FM-15+000099999V0202501N010319999999N999999999+00601+00001999999ADDMA1099101999999REMMET045METAR ENDR 082350Z AUTO 25020KT 06/M00 Q0991=
0072010231999992015010900204+64350+007800FM-15+000099999V0202501N010319999999N999999999+00601-00201999999ADDMA1099101999999REMMET045METAR ENDR 090020Z AUTO 25020KT 06/M02 Q0991=
0071010231999992015010900504+64350+007800FM-15+000099999V0202701N015419999999N999999999+00401+00001999999ADDMA1099101999999REMMET044METAR ENDR 090050Z AUTO 27030KT 04/00 Q0991=
0071010231999992015010901204+64350+007800FM-15+000099999V0202501N006719999999N999999999+00401+00001999999ADDMA1099101999999REMMET044METAR ENDR 090120Z AUTO 25013KT 04/00 Q0991=
0072010231999992015010901504+64350+007800FM-15+000099999V0202501N010319999999N999999999+00601-00301999999ADDMA1099001999999REMMET045METAR ENDR 090150Z AUTO 25020KT 06/M03 Q0990=
0072010231999992015010902204+64350+007800FM-15+000099999V0202501N010319999999N999999999+00501-00101999999ADDMA1099001999999REMMET045METAR ENDR 090220Z AUTO 25020KT 05/M01 Q0990=
0072010231999992015010902504+64350+007800FM-15+000099999V0202401N007719999999N999999999+00501-00201999999ADDMA1099001999999REMMET045METAR ENDR 090250Z AUTO 24015KT 05/M02 Q0990=
0072010231999992015010903204+64350+007800FM-15+000099999V0202501N009319999999N999999999+00401-00101999999ADDMA1099001999999REMMET045METAR ENDR 090320Z AUTO 25018KT 04/M01 Q0990=
0071010231999992015010903504+64350+007800FM-15+000099999V0202201N006219999999N999999999+00501+00101999999ADDMA1099001999999REMMET044METAR ENDR 090350Z AUTO 22012KT 05/01 Q0990=
0072010231999992015010904204+64350+007800FM-15+000099999V0202301N005719999999N999999999+00501-00101999999ADDMA1099001999999REMMET045METAR ENDR 090420Z AUTO 23011KT 05/M01 Q0990=
0072010231999992015010904504+64350+007800FM-15+000099999V0202101N005719999999N999999999+00501-00101999999ADDMA1099001999999REMMET045METAR ENDR 090450Z AUTO 21011KT 05/M01 Q0990=
0072010231999992015010905204+64350+007800FM-15+000099999V0202101N007719999999N999999999+00501+00001999999ADDMA1098901999999REMMET045METAR ENDR 090520Z AUTO 21015KT 05/M00 Q0989=
0072010231999992015010905504+64350+007800FM-15+000099999V0201901N005119999999N999999999+00501+00001999999ADDMA1098901999999REMMET045METAR ENDR 090550Z AUTO 19010KT 05/M00 Q0989=
0072010231999992015010906204+64350+007800FM-15+000099999V0201701N004619999999N999999999+00501+00001999999ADDMA1098901999999REMMET045METAR ENDR 090620Z AUTO 17009KT 05/M00 Q0989=
0071010231999992015010906504+64350+007800FM-15+000099999V0201601N004119999999N999999999+00501+00101999999ADDMA1098901999999REMMET044METAR ENDR 090650Z AUTO 16008KT 05/01 Q0989=
0071010231999992015010907204+64350+007800FM-15+000099999V0201401N005119999999N999999999+00501+00101999999ADDMA1098901999999REMMET044METAR ENDR 090720Z AUTO 14010KT 05/01 Q0989=
0071010231999992015010907504+64350+007800FM-15+000099999V0202101N006719999999N999999999+00501+00101999999ADDMA1098801999999REMMET044METAR ENDR 090750Z AUTO 21013KT 05/01 Q0988=
0071010231999992015010908204+64350+007800FM-15+000099999V0202101N008219999999N999999999+00401+00001999999ADDMA1098801999999REMMET044METAR ENDR 090820Z AUTO 21016KT 04/00 Q0988=
0071010231999992015010908504+64350+007800FM-15+000099999V0202101N006219999999N999999999+00401+00101999999ADDMA1098901999999REMMET044METAR ENDR 090850Z AUTO 21012KT 04/01 Q0989=
0176010231999992015010909104+64350+007800FM-15+000099999V0202001N005710091419N009999199+00401+00101999999ADDGA1041+004571999GA2071+009141999GE19MSL   +99999+99999GF199999041999004571999999MA1098801999999MW1161REMMET063METAR ENDR 090910Z 20011KT 9999 VCSH SCT015 BKN030 04/01 Q0988=
0071010231999992015010909504+64350+007800FM-15+000099999V0202101N005719999999N999999999+00301+00101999999ADDMA1098901999999REMMET044METAR ENDR 090950Z AUTO 21011KT 03/01 Q0989=
0071010231999992015010910204+64350+007800FM-15+000099999V0202101N004119999999N999999999+00301+00101999999ADDMA1098901999999REMMET044METAR ENDR 091020Z AUTO 21008KT 03/01 Q0989=
0071010231999992015010910504+64350+007800FM-15+000099999V0201901N003619999999N999999999+00401+00101999999ADDMA1098901999999REMMET044METAR ENDR 091050Z AUTO 19007KT 04/01 Q0989=
0080010231999992015010911204+64350+007800FM-15+000099999V0201901V001519999999N999999999+00501-00101999999ADDMA1098901999999REMMET053METAR ENDR 091120Z AUTO 19003KT 160V250 05/M01 Q0989=
0033010231999992015010911504+64350+007800FM-15+000099999V0209999N999999999999N999999999+99999+99999999999REMMET024METAR ENDR 091150Z AUTO=
0033010231999992015010912504+64350+007800FM-15+000099999V0209999N999999999999N999999999+99999+99999999999REMMET024METAR ENDR 091250Z AUTO=
0033010231999992015010913204+64350+007800FM-15+000099999V0209999N999999999999N999999999+99999+99999999999REMMET024METAR ENDR 091320Z AUTO=
0033010231999992015010913504+64350+007800FM-15+000099999V0209999N999999999999N999999999+99999+99999999999REMMET024METAR ENDR 091350Z AUTO=
0071010231999992015010914204+64350+007800FM-15+000099999V0201501N004119999999N999999999+00501+00201999999ADDMA1099001999999REMMET044METAR ENDR 091420Z AUTO 15008KT 05/02 Q0990=
0071010231999992015010914504+64350+007800FM-15+000099999V0201501N003619999999N999999999+00501+00101999999ADDMA1099001999999REMMET044METAR ENDR 091450Z AUTO 15007KT 05/01 Q0990=
0142010231999992015010915104+64350+007800FM-15+000099999V0201501N004119999999N009999199+00501+00101999999ADDGA1021+007621999GE19MSL   +99999+99999GF199999021999007621999999MA1099001999999REMMET051METAR ENDR 091510Z 15008KT 9999 FEW025 05/01 Q0990=
0071010231999992015010915504+64350+007800FM-15+000099999V0201401N003619999999N999999999+00501+00001999999ADDMA1099001999999REMMET044METAR ENDR 091550Z AUTO 14007KT 05/00 Q0990=
0071010231999992015010916204+64350+007800FM-15+000099999V0201301N004619999999N999999999+00501+00101999999ADDMA1099001999999REMMET044METAR ENDR 091620Z AUTO 13009KT 05/01 Q0990=
0071010231999992015010916504+64350+007800FM-15+000099999V0201301N005719999999N999999999+00501+00101999999ADDMA1098901999999REMMET044METAR ENDR 091650Z AUTO 13011KT 05/01 Q0989=
0071010231999992015010917204+64350+007800FM-15+000099999V0201301N006719999999N999999999+00501+00001999999ADDMA1098901999999REMMET044METAR ENDR 091720Z AUTO 13013KT 05/00 Q0989=
0071010231999992015010917504+64350+007800FM-15+000099999V0201301N007219999999N999999999+00401+00001999999ADDMA1098901999999REMMET044METAR ENDR 091750Z AUTO 13014KT 04/00 Q0989=
0072010231999992015010918204+64350+007800FM-15+000099999V0201401N007219999999N999999999+00401+00001999999ADDMA1098901999999REMMET045METAR ENDR 091820Z AUTO 14014KT 04/M00 Q0989=
0072010231999992015010918504+64350+007800FM-15+000099999V0201401N007719999999N999999999+00401-00101999999ADDMA1098901999999REMMET045METAR ENDR 091850Z AUTO 14015KT 04/M01 Q0989=
0071010231999992015010919204+64350+007800FM-15+000099999V0201401N008819999999N999999999+00401+00001999999ADDMA1098801999999REMMET044METAR ENDR 091920Z AUTO 14017KT 04/00 Q0988=
0072010231999992015010919504+64350+007800FM-15+000099999V0201401N009319999999N999999999+00401-00101999999ADDMA1098801999999REMMET045METAR ENDR 091950Z AUTO 14018KT 04/M01 Q0988=
0072010231999992015010920204+64350+007800FM-15+000099999V0201301N009819999999N999999999+00401-00101999999ADDMA1098801999999REMMET045METAR ENDR 092020Z AUTO 13019KT 04/M01 Q0988=
0072010231999992015010920504+64350+007800FM-15+000099999V0201301N011319999999N999999999+00501-00101999999ADDMA1098801999999REMMET045METAR ENDR 092050Z AUTO 13022KT 05/M01 Q0988=
0072010231999992015010921204+64350+007800FM-15+000099999V0201301N011319999999N999999999+00501-00201999999ADDMA1098701999999REMMET045METAR ENDR 092120Z AUTO 13022KT 05/M02 Q0987=
0072010231999992015010921504+64350+007800FM-15+000099999V0201301N011819999999N999999999+00401+00001999999ADDMA1098701999999REMMET045METAR ENDR 092150Z AUTO 13023KT 04/M00 Q0987=
0072010231999992015010922204+64350+007800FM-15+000099999V0201301N011819999999N999999999+00401-00101999999ADDMA1098601999999REMMET045METAR ENDR 092220Z AUTO 13023KT 04/M01 Q0986=
0072010231999992015010922504+64350+007800FM-15+000099999V0201401N011819999999N999999999+00401+00001999999ADDMA1098601999999REMMET045METAR ENDR 092250Z AUTO 14023KT 04/M00 Q0986=
0072010231999992015010923204+64350+007800FM-15+000099999V0201401N011819999999N999999999+00401+00001999999ADDMA1098601999999REMMET045METAR ENDR 092320Z AUTO 14023KT 04/M00 Q0986=
0071010231999992015010923504+64350+007800FM-15+000099999V0201501N010319999999N999999999+00301+00001999999ADDMA1098601999999REMMET044METAR ENDR 092350Z AUTO 15020KT 03/00 Q0986=
0072010231999992015011000204+64350+007800FM-15+000099999V0201601N009319999999N999999999+00401-00201999999ADDMA1098601999999REMMET045METAR ENDR 100020Z AUTO 16018KT 04/M02 Q0986=
0072010231999992015011000504+64350+007800FM-15+000099999V0201501N007719999999N999999999+00401-00301999999ADDMA1098501999999REMMET045METAR ENDR 100050Z AUTO 15015KT 04/M03 Q0985=
0072010231999992015011001204+64350+007800FM-15+000099999V0201401N007719999999N999999999+00401-00201999999ADDMA1098401999999REMMET045METAR ENDR 100120Z AUTO 14015KT 04/M02 Q0984=
0072010231999992015011001504+64350+007800FM-15+000099999V0201401N008219999999N999999999+00401-00201999999ADDMA1098401999999REMMET045METAR ENDR 100150Z AUTO 14016KT 04/M02 Q0984=
0072010231999992015011002204+64350+007800FM-15+000099999V0201401N007219999999N999999999+00401-00201999999ADDMA1098301999999REMMET045METAR ENDR 100220Z AUTO 14014KT 04/M02 Q0983=
0072010231999992015011002504+64350+007800FM-15+000099999V0201401N007719999999N999999999+00401-00101999999ADDMA1098201999999REMMET045METAR ENDR 100250Z AUTO 14015KT 04/M01 Q0982=
0072010231999992015011003204+64350+007800FM-15+000099999V0201401N008819999999N999999999+00301-00101999999ADDMA1098101999999REMMET045METAR ENDR 100320Z AUTO 14017KT 03/M01 Q0981=
0072010231999992015011003504+64350+007800FM-15+000099999V0201401N009319999999N999999999+00301-00201999999ADDMA1098001999999REMMET045METAR ENDR 100350Z AUTO 14018KT 03/M02 Q0980=
0072010231999992015011004204+64350+007800FM-15+000099999V0201301N009819999999N999999999+00301-00301999999ADDMA1097901999999REMMET045METAR ENDR 100420Z AUTO 13019KT 03/M03 Q0979=
0072010231999992015011004504+64350+007800FM-15+000099999V0201301N010319999999N999999999+00301-00201999999ADDMA1097801999999REMMET045METAR ENDR 100450Z AUTO 13020KT 03/M02 Q0978=
0072010231999992015011005204+64350+007800FM-15+000099999V0201301N010819999999N999999999+00301-00201999999ADDMA1097701999999REMMET045METAR ENDR 100520Z AUTO 13021KT 03/M02 Q0977=
0072010231999992015011005504+64350+007800FM-15+000099999V0201201N010319999999N999999999+00301-00201999999ADDMA1097601999999REMMET045METAR ENDR 100550Z AUTO 12020KT 03/M02 Q0976=
0072010231999992015011006504+64350+007800FM-15+000099999V0201101N012919999999N999999999+00201-00301999999ADDMA1097401999999REMMET045METAR ENDR 100650Z AUTO 11025KT 02/M03 Q0974=
0072010231999992015011007204+64350+007800FM-15+000099999V0201101N013919999999N999999999+00201-00201999999ADDMA1097201999999REMMET045METAR ENDR 100720Z AUTO 11027KT 02/M02 Q0972=
0072010231999992015011007504+64350+007800FM-15+000099999V0201001N016519999999N999999999+00201-00301999999ADDMA1097101999999REMMET045METAR ENDR 100750Z AUTO 10032KT 02/M03 Q0971=
0072010231999992015011008204+64350+007800FM-15+000099999V0201101N017519999999N999999999+00201-00401999999ADDMA1096901999999REMMET045METAR ENDR 100820Z AUTO 11034KT 02/M04 Q0969=
0072010231999992015011008504+64350+007800FM-15+000099999V0201001N020119999999N999999999+00201-00401999999ADDMA1096701999999REMMET045METAR ENDR 100850Z AUTO 10039KT 02/M04 Q0967=
0161010231999992015011009104+64350+007800FM-15+000099999V0201001N021110213419N999999999+00201-00301999999ADDGA1021+007621999GA2071+021341999GE19MSL   +99999+99999GF199999021999007621999999MA1096601999999REMMET054METAR ENDR 100910Z 10041KT FEW025 BKN070 02/M03 Q0966=
0072010231999992015011009504+64350+007800FM-15+000099999V0201001N021119999999N999999999+00201-00301999999ADDMA1096501999999REMMET045METAR ENDR 100950Z AUTO 10041KT 02/M03 Q0965=
0072010231999992015011010204+64350+007800FM-15+000099999V0201001N020119999999N999999999+00201-00201999999ADDMA1096401999999REMMET045METAR ENDR 101020Z AUTO 10039KT 02/M02 Q0964=
0072010231999992015011010504+64350+007800FM-15+000099999V0200901N021619999999N999999999+00201-00301999999ADDMA1096301999999REMMET045METAR ENDR 101050Z AUTO 09042KT 02/M03 Q0963=
0072010231999992015011011204+64350+007800FM-15+000099999V0201001N022719999999N999999999+00201-00201999999ADDMA1096201999999REMMET045METAR ENDR 101120Z AUTO 10044KT 02/M02 Q0962=
0072010231999992015011011504+64350+007800FM-15+000099999V0201001N023219999999N999999999+00201-00301999999ADDMA1096101999999REMMET045METAR ENDR 101150Z AUTO 10045KT 02/M03 Q0961=
0166010231999992015011012104+64350+007800FM-15+000099999V0201001N024710076219N009999199+00201-00201999999ADDGA1071+007621999GA2081+021341999GE19MSL   +99999+99999GF199999071999007621999999MA1096101999999REMMET059METAR ENDR 101210Z 10048KT 9999 BKN025 OVC070 02/M02 Q0961=
0072010231999992015011012504+64350+007800FM-15+000099999V0201001N025719999999N999999999+00201-00201999999ADDMA1096002999999REMMET045METAR ENDR 101250Z AUTO 10050KT 02/M02 Q0960=
0072010231999992015011013204+64350+007800FM-15+000099999V0201001N024719999999N999999999+00201-00201999999ADDMA1096002999999REMMET045METAR ENDR 101320Z AUTO 10048KT 02/M02 Q0960=
0072010231999992015011013504+64350+007800FM-15+000099999V0201001N024219999999N999999999+00101-00101999999ADDMA1096002999999REMMET045METAR ENDR 101350Z AUTO 10047KT 01/M01 Q0960=
0091010231999992015011014204+64350+007800FM-15+000099999V0200601V011819999999N999999999+00101-00101999999ADDMA1096002999999OC102881REMMET056METAR ENDR 101420Z AUTO 06023G56KT 360V100 01/M01 Q0960=
0071010231999992015011014504+64350+007800FM-15+000099999V0201001N024219999999N999999999+00101+00001999999ADDMA1096002999999REMMET044METAR ENDR 101450Z AUTO 10047KT 01/00 Q0960=
0175010231999992015011015104+64350+007800FM-15+000099999V0201001N026810030519N008000199+00101-00101999999ADDGA1071+003051999GA2081+012191999GE19MSL   +99999+99999GF199999071999003051999999MA1096002999999MW1731REMMET062METAR ENDR 101510Z 10052KT 8000 SN BKN010 OVC040 01/M01 Q0960=
0072010231999992015011015504+64350+007800FM-15+000099999V0201001N026319999999N999999999+00101-00201999999ADDMA1096101999999REMMET045METAR ENDR 101550Z AUTO 10051KT 01/M02 Q0961=
0072010231999992015011016204+64350+007800FM-15+000099999V0201001N027819999999N999999999+00101-00201999999ADDMA1096101999999REMMET045METAR ENDR 101620Z AUTO 10054KT 01/M02 Q0961=
0072010231999992015011016504+64350+007800FM-15+000099999V0201001N027319999999N999999999+00101-00301999999ADDMA1096301999999REMMET045METAR ENDR 101650Z AUTO 10053KT 01/M03 Q0963=
0072010231999992015011017204+64350+007800FM-15+000099999V0201001N025719999999N999999999+00101-00401999999ADDMA1096301999999REMMET045METAR ENDR 101720Z AUTO 10050KT 01/M04 Q0963=
0072010231999992015011017504+64350+007800FM-15+000099999V0200901N024719999999N999999999+00101-00401999999ADDMA1096501999999REMMET045METAR ENDR 101750Z AUTO 09048KT 01/M04 Q0965=
0072010231999992015011018204+64350+007800FM-15+000099999V0200901N024219999999N999999999+00101-00501999999ADDMA1096601999999REMMET045METAR ENDR 101820Z AUTO 09047KT 01/M05 Q0966=
0072010231999992015011018504+64350+007800FM-15+000099999V0201001N022719999999N999999999+00101-00601999999ADDMA1096701999999REMMET045METAR ENDR 101850Z AUTO 10044KT 01/M06 Q0967=
0072010231999992015011019204+64350+007800FM-15+000099999V0200901N022719999999N999999999+00101-00401999999ADDMA1096801999999REMMET045METAR ENDR 101920Z AUTO 09044KT 01/M04 Q0968=
0072010231999992015011019504+64350+007800FM-15+000099999V0200801N022719999999N999999999+00001-00401999999ADDMA1096901999999REMMET045METAR ENDR 101950Z AUTO 08044KT 00/M04 Q0969=
0072010231999992015011020204+64350+007800FM-15+000099999V0200801N022119999999N999999999+00001-00401999999ADDMA1097001999999REMMET045METAR ENDR 102020Z AUTO 08043KT 00/M04 Q0970=
0073010231999992015011020504+64350+007800FM-15+000099999V0200801N022119999999N999999999+00001-00501999999ADDMA1097001999999REMMET046METAR ENDR 102050Z AUTO 08043KT M00/M05 Q0970=
0073010231999992015011021204+64350+007800FM-15+000099999V0200801N022119999999N999999999+00001-00501999999ADDMA1097101999999REMMET046METAR ENDR 102120Z AUTO 08043KT M00/M05 Q0971=
0073010231999992015011021504+64350+007800FM-15+000099999V0200801N022119999999N999999999+00001-00601999999ADDMA1097101999999REMMET046METAR ENDR 102150Z AUTO 08043KT M00/M06 Q0971=
0073010231999992015011022204+64350+007800FM-15+000099999V0200901N020119999999N999999999+00001-00601999999ADDMA1097301999999REMMET046METAR ENDR 102220Z AUTO 09039KT M00/M06 Q0973=
0073010231999992015011022504+64350+007800FM-15+000099999V0200901N019019999999N999999999+00001-00601999999ADDMA1097301999999REMMET046METAR ENDR 102250Z AUTO 09037KT M00/M06 Q0973=
0073010231999992015011023204+64350+007800FM-15+000099999V0200801N018519999999N999999999+00001-00601999999ADDMA1097401999999REMMET046METAR ENDR 102320Z AUTO 08036KT M00/M06 Q0974=
0073010231999992015011023504+64350+007800FM-15+000099999V0200801N018019999999N999999999+00001-00501999999ADDMA1097401999999REMMET046METAR ENDR 102350Z AUTO 08035KT M00/M05 Q0974=
0073010231999992015011100204+64350+007800FM-15+000099999V0200801N016519999999N999999999+00001-00501999999ADDMA1097501999999REMMET046METAR ENDR 110020Z AUTO 08032KT M00/M05 Q0975=
0073010231999992015011100504+64350+007800FM-15+000099999V0200701N017519999999N999999999-00101-00601999999ADDMA1097601999999REMMET046METAR ENDR 110050Z AUTO 07034KT M01/M06 Q0976=
0073010231999992015011101204+64350+007800FM-15+000099999V0200701N017019999999N999999999+00001-00501999999ADDMA1097601999999REMMET046METAR ENDR 110120Z AUTO 07033KT M00/M05 Q0976=
0073010231999992015011101504+64350+007800FM-15+000099999V0200801N016519999999N999999999+00001-00601999999ADDMA1097701999999REMMET046METAR ENDR 110150Z AUTO 08032KT M00/M06 Q0977=
0073010231999992015011102204+64350+007800FM-15+000099999V0200801N014419999999N999999999-00101-00601999999ADDMA1097801999999REMMET046METAR ENDR 110220Z AUTO 08028KT M01/M06 Q0978=
0073010231999992015011102504+64350+007800FM-15+000099999V0200901N013919999999N999999999-00101-00601999999ADDMA1097801999999REMMET046METAR ENDR 110250Z AUTO 09027KT M01/M06 Q0978=
0073010231999992015011103204+64350+007800FM-15+000099999V0200901N012419999999N999999999+00001-00501999999ADDMA1097901999999REMMET046METAR ENDR 110320Z AUTO 09024KT M00/M05 Q0979=
0073010231999992015011103504+64350+007800FM-15+000099999V0200801N011819999999N999999999+00001-00501999999ADDMA1097901999999REMMET046METAR ENDR 110350Z AUTO 08023KT M00/M05 Q0979=
0073010231999992015011104204+64350+007800FM-15+000099999V0200801N011319999999N999999999-00101-00601999999ADDMA1098001999999REMMET046METAR ENDR 110420Z AUTO 08022KT M01/M06 Q0980=
0073010231999992015011104504+64350+007800FM-15+000099999V0200801N011319999999N999999999-00101-00501999999ADDMA1098001999999REMMET046METAR ENDR 110450Z AUTO 08022KT M01/M05 Q0980=
0073010231999992015011105204+64350+007800FM-15+000099999V0200701N011319999999N999999999-00101-00601999999ADDMA1098101999999REMMET046METAR ENDR 110520Z AUTO 07022KT M01/M06 Q0981=
0073010231999992015011105504+64350+007800FM-15+000099999V0200701N010819999999N999999999+00001-00501999999ADDMA1098201999999REMMET046METAR ENDR 110550Z AUTO 07021KT M00/M05 Q0982=
0152010231999992015011106104+64350+007800FM-15+000099999V0200601V010810061019N009999199+00001-00501999999ADDGA1071+006101999GE19MSL   +99999+99999GF199999071999006101999999MA1098201999999REMMET061METAR ENDR 110610Z 06021KT 040V100 9999 BKN020 M00/M05 Q0982=
0073010231999992015011106504+64350+007800FM-15+000099999V0200601N010819999999N999999999-00101-00501999999ADDMA1098301999999REMMET046METAR ENDR 110650Z AUTO 06021KT M01/M05 Q0983=
0073010231999992015011107204+64350+007800FM-15+000099999V0200501N011819999999N999999999-00101-00501999999ADDMA1098301999999REMMET046METAR ENDR 110720Z AUTO 05023KT M01/M05 Q0983=
0073010231999992015011107504+64350+007800FM-15+000099999V0200501N011819999999N999999999-00101-00501999999ADDMA1098301999999REMMET046METAR ENDR 110750Z AUTO 05023KT M01/M05 Q0983=
0073010231999992015011108204+64350+007800FM-15+000099999V0200501N010819999999N999999999-00101-00501999999ADDMA1098401999999REMMET046METAR ENDR 110820Z AUTO 05021KT M01/M05 Q0984=
0073010231999992015011108504+64350+007800FM-15+000099999V0200601N009819999999N999999999-00101-00601999999ADDMA1098401999999REMMET046METAR ENDR 110850Z AUTO 06019KT M01/M06 Q0984=
0144010231999992015011109104+64350+007800FM-15+000099999V0200601N008819999999N009999199-00101-00601999999ADDGA1041+005491999GE19MSL   +99999+99999GF199999041999005491999999MA1098501999999REMMET053METAR ENDR 110910Z 06017KT 9999 SCT018 M01/M06 Q0985=
0073010231999992015011109504+64350+007800FM-15+000099999V0200501N008819999999N999999999-00101-00601999999ADDMA1098501999999REMMET046METAR ENDR 110950Z AUTO 05017KT M01/M06 Q0985=
0073010231999992015011110204+64350+007800FM-15+000099999V0200701N007219999999N999999999-00101-00601999999ADDMA1098601999999REMMET046METAR ENDR 111020Z AUTO 07014KT M01/M06 Q0986=
0073010231999992015011110504+64350+007800FM-15+000099999V0200701N007719999999N999999999-00101-00601999999ADDMA1098601999999REMMET046METAR ENDR 111050Z AUTO 07015KT M01/M06 Q0986=
0081010231999992015011111204+64350+007800FM-15+000099999V0200601V005119999999N999999999-00101-00601999999ADDMA1098601999999REMMET054METAR ENDR 111120Z AUTO 06010KT 360V090 M01/M06 Q0986=
0073010231999992015011111504+64350+007800FM-15+000099999V0200501N004119999999N999999999+00001-00601999999ADDMA1098701999999REMMET046METAR ENDR 111150Z AUTO 05008KT M00/M06 Q0987=
0144010231999992015011112104+64350+007800FM-15+000099999V0200501N004119999999N009999199+00001-00501999999ADDGA1041+006101999GE19MSL   +99999+99999GF199999041999006101999999MA1098701999999REMMET053METAR ENDR 111210Z 05008KT 9999 SCT020 M00/M05 Q0987=
0081010231999992015011112504+64350+007800FM-15+000099999V0200601V003619999999N999999999+00001-00501999999ADDMA1098801999999REMMET054METAR ENDR 111250Z AUTO 06007KT 040V100 M00/M05 Q0988=
0073010231999992015011113204+64350+007800FM-15+000099999V0200701N003619999999N999999999+00001-00601999999ADDMA1098801999999REMMET046METAR ENDR 111320Z AUTO 07007KT M00/M06 Q0988=
0073010231999992015011113504+64350+007800FM-15+000099999V0200701N003119999999N999999999+00001-00601999999ADDMA1098801999999REMMET046METAR ENDR 111350Z AUTO 07006KT M00/M06 Q0988=
0073010231999992015011114204+64350+007800FM-15+000099999V0200801N003119999999N999999999-00101-00501999999ADDMA1098901999999REMMET046METAR ENDR 111420Z AUTO 08006KT M01/M05 Q0989=
0081010231999992015011114504+64350+007800FM-15+000099999V0200901V002619999999N999999999-00101-00501999999ADDMA1098901999999REMMET054METAR ENDR 111450Z AUTO 09005KT 050V140 M01/M05 Q0989=
0073010231999992015011115204+64350+007800FM-15+000099999V0201201N003619999999N999999999-00101-00501999999ADDMA1098901999999REMMET046METAR ENDR 111520Z AUTO 12007KT M01/M05 Q0989=
0073010231999992015011115504+64350+007800FM-15+000099999V0201201N002619999999N999999999-00101-00601999999ADDMA1099001999999REMMET046METAR ENDR 111550Z AUTO 12005KT M01/M06 Q0990=
0073010231999992015011116204+64350+007800FM-15+000099999V0201101N002619999999N999999999-00101-00501999999ADDMA1099001999999REMMET046METAR ENDR 111620Z AUTO 11005KT M01/M05 Q0990=
0073010231999992015011116504+64350+007800FM-15+000099999V0201301N003119999999N999999999-00101-00601999999ADDMA1098901999999REMMET046METAR ENDR 111650Z AUTO 13006KT M01/M06 Q0989=
0073010231999992015011117204+64350+007800FM-15+000099999V0201301N003119999999N999999999-00101-00501999999ADDMA1098901999999REMMET046METAR ENDR 111720Z AUTO 13006KT M01/M05 Q0989=
0073010231999992015011117504+64350+007800FM-15+000099999V0201501N003119999999N999999999+00001-00501999999ADDMA1099001999999REMMET046METAR ENDR 111750Z AUTO 15006KT M00/M05 Q0990=
0072010231999992015011118204+64350+007800FM-15+000099999V0201701N004119999999N999999999+00001-00401999999ADDMA1098901999999REMMET045METAR ENDR 111820Z AUTO 17008KT 00/M04 Q0989=
0072010231999992015011118504+64350+007800FM-15+000099999V0201501N005719999999N999999999+00001-00301999999ADDMA1098901999999REMMET045METAR ENDR 111850Z AUTO 15011KT 00/M03 Q0989=
0072010231999992015011119204+64350+007800FM-15+000099999V0201401N006219999999N999999999+00001-00401999999ADDMA1098901999999REMMET045METAR ENDR 111920Z AUTO 14012KT 00/M04 Q0989=
0072010231999992015011119504+64350+007800FM-15+000099999V0201301N006719999999N999999999+00001-00401999999ADDMA1098901999999REMMET045METAR ENDR 111950Z AUTO 13013KT 00/M04 Q0989=
0072010231999992015011120204+64350+007800FM-15+000099999V0201301N006719999999N999999999+00001-00401999999ADDMA1098901999999REMMET045METAR ENDR 112020Z AUTO 13013KT 00/M04 Q0989=
0072010231999992015011120504+64350+007800FM-15+000099999V0201301N006719999999N999999999+00001-00401999999ADDMA1098901999999REMMET045METAR ENDR 112050Z AUTO 13013KT 00/M04 Q0989=
0072010231999992015011121204+64350+007800FM-15+000099999V0201401N007219999999N999999999+00001-00401999999ADDMA1098901999999REMMET045METAR ENDR 112120Z AUTO 14014KT 00/M04 Q0989=
0072010231999992015011121504+64350+007800FM-15+000099999V0201401N007219999999N999999999+00001-00301999999ADDMA1098901999999REMMET045METAR ENDR 112150Z AUTO 14014KT 00/M03 Q0989=
0072010231999992015011122204+64350+007800FM-15+000099999V0201301N008219999999N999999999+00001-00401999999ADDMA1098801999999REMMET045METAR ENDR 112220Z AUTO 13016KT 00/M04 Q0988=
0072010231999992015011122504+64350+007800FM-15+000099999V0201301N008819999999N999999999+00001-00301999999ADDMA1098801999999REMMET045METAR ENDR 112250Z AUTO 13017KT 00/M03 Q0988=
0072010231999992015011123204+64350+007800FM-15+000099999V0201201N008819999999N999999999+00001-00401999999ADDMA1098801999999REMMET045METAR ENDR 112320Z AUTO 12017KT 00/M04 Q0988=
0072010231999992015011123504+64350+007800FM-15+000099999V0201301N008819999999N999999999+00001-00301999999ADDMA1098701999999REMMET045METAR ENDR 112350Z AUTO 13017KT 00/M03 Q0987=
0072010231999992015011200204+64350+007800FM-15+000099999V0201201N008819999999N999999999+00001-00301999999ADDMA1098701999999REMMET045METAR ENDR 120020Z AUTO 12017KT 00/M03 Q0987=
0072010231999992015011200504+64350+007800FM-15+000099999V0201201N009819999999N999999999+00101-00201999999ADDMA1098601999999REMMET045METAR ENDR 120050Z AUTO 12019KT 01/M02 Q0986=
0072010231999992015011201204+64350+007800FM-15+000099999V0201201N011819999999N999999999+00001-00301999999ADDMA1098501999999REMMET045METAR ENDR 120120Z AUTO 12023KT 00/M03 Q0985=
0073010231999992015011201504+64350+007800FM-15+000099999V0201101N013919999999N999999999+00001-00301999999ADDMA1098501999999REMMET046METAR ENDR 120150Z AUTO 11027KT M00/M03 Q0985=
0072010231999992015011202204+64350+007800FM-15+000099999V0201101N013919999999N999999999+00001-00201999999ADDMA1098401999999REMMET045METAR ENDR 120220Z AUTO 11027KT 00/M02 Q0984=
0072010231999992015011202504+64350+007800FM-15+000099999V0201101N014419999999N999999999+00001-00301999999ADDMA1098301999999REMMET045METAR ENDR 120250Z AUTO 11028KT 00/M03 Q0983=
0072010231999992015011203204+64350+007800FM-15+000099999V0201101N013919999999N999999999+00001-00101999999ADDMA1098201999999REMMET045METAR ENDR 120320Z AUTO 11027KT 00/M01 Q0982=
0072010231999992015011203504+64350+007800FM-15+000099999V0201301N013419999999N999999999+00101-00101999999ADDMA1098201999999REMMET045METAR ENDR 120350Z AUTO 13026KT 01/M01 Q0982=
0072010231999992015011204204+64350+007800FM-15+000099999V0201301N013419999999N999999999+00201-00101999999ADDMA1098101999999REMMET045METAR ENDR 120420Z AUTO 13026KT 02/M01 Q0981=
0072010231999992015011204504+64350+007800FM-15+000099999V0201301N015419999999N999999999+00101-00101999999ADDMA1098101999999REMMET045METAR ENDR 120450Z AUTO 13030KT 01/M01 Q0981=
0072010231999992015011205204+64350+007800FM-15+000099999V0201301N015419999999N999999999+00101-00201999999ADDMA1098001999999REMMET045METAR ENDR 120520Z AUTO 13030KT 01/M02 Q0980=
0041010231999992015011205504+64350+007800FM-15+000099999V0209999N999999999999N999999999+99999+99999999999REMMET032METAR ENDR 120550Z AUTO 12032KT=
0073010231999992015011206204+64350+007800FM-15+000099999V0201301N017019999999Y999999999+00001-00301999999ADDMA1097801999999REMMET046METAR ENDR 120620Z 13033KT CAVOK 00/M03 Q0978=
0072010231999992015011206504+64350+007800FM-15+000099999V0201201N016019999999N999999999+00001-00401999999ADDMA1097801999999REMMET045METAR ENDR 120650Z AUTO 12031KT 00/M04 Q0978=
0072010231999992015011207204+64350+007800FM-15+000099999V0201201N015419999999N999999999+00001-00301999999ADDMA1097701999999REMMET045METAR ENDR 120720Z AUTO 12030KT 00/M03 Q0977=
0072010231999992015011207504+64350+007800FM-15+000099999V0201201N014419999999N999999999+00001-00301999999ADDMA1097601999999REMMET045METAR ENDR 120750Z AUTO 12028KT 00/M03 Q0976=
0072010231999992015011208204+64350+007800FM-15+000099999V0201201N015419999999N999999999+00101-00201999999ADDMA1097501999999REMMET045METAR ENDR 120820Z AUTO 12030KT 01/M02 Q0975=
0072010231999992015011208504+64350+007800FM-15+000099999V0201201N015419999999N999999999+00101-00201999999ADDMA1097401999999REMMET045METAR ENDR 120850Z AUTO 12030KT 01/M02 Q0974=
