0244010260999992015010100004+69650+018933FM-12+011599999V0202001N006019999999N010000199+00321+00221099061ADDAA101002031AY161021AY221021GA1071+004501061GA2999+999999031GE19MSL   +99999+99999GF108991071999004501999999MA1999999097671MD1710221+9999MW1611OD139901101999REMSYN07601026 21460 82006 10032 20022 39767 49906 57022 76162 8757/ 333 60025 91111=
0224010260999992015010103004+69650+018933FM-12+011599999V0202001N005019999999N010000199+00491+00391098911ADDAA101000831AY161021AY221021GA1031+004501071GA2999+999999031GE19MSL   +99999+99999GF108991031999004501999999MA1999999097531MD1810141+9999MW1611REMSYN07001026 21460 82005 10049 20039 39753 49891 58014 76162 8377/ 333 69985=
0309010260999992015010106004+69650+018933FM-12+011599999V0202101N003019999999N015000199+00451+00341098841ADDAA112016031AA224017531AJ100363100360099AY181021AY261021GA1061+004501091GA2999+999999031GE19MSL   +99999+99999GF108991061999004501999999IA1279KA1240N+00141MA1999999097461MD1510071+9999MW1801OD139901101999REMSYN09401026 11465 82103 10045 20034 39746 49884 55007 60162 78086 8637/ 333 20014 43036 70175 91111=
0208010260999992015010109004+69650+018933FM-12+011599999V0202101N006019999999N020000199+00451+00351098931ADDAA101000931AY181021AY281021GA1081+004501091GE19MSL   +99999+99999GF108991081999004501999999MA1999999097551MD1310091+9999MW1801REMSYN07001026 21470 82106 10045 20035 39755 49893 53009 78088 883// 333 69995=
0228010260999992015010112004+69650+018933FM-12+011599999V0202101N006019999999N065000199+00501+00091098971ADDAA101000091AY181021AY221021GA1071+008001071GE19MSL   +99999+99999GF107991071999008001999999MA1999999097591MD1990041+9999MW1011OD139901201999REMSYN07601026 21587 72106 10050 20009 39759 49897 50004 70182 87700 333 60005 91112=
0224010260999992015010115004+69650+018933FM-12+011599999V0202101N005019999999N065000199+00481+00031098811ADDAA101000091AY121021AY221021GA1051+008001081GA2999+999999031GE19MSL   +99999+99999GF105991051999008001999999MA1999999097431MD1710161+9999MW1011REMSYN07001026 21587 52105 10048 20003 39743 49881 57016 70122 85860 333 60005=
0279010260999992015010118004+69650+018933FM-12+011599999V0202001N005019999999N065000199+00481-00021098431ADDAA112006031AY121021AY221021GA1051+008001081GA2999+999999031GA3999+999999001GE19MSL   +99999+99999GF107991051999008001999999KA1120M+00531MA1999999097061MD1810371+9999MW1031OD139901101999REMSYN08201026 11587 72005 10048 21002 39706 49843 58037 60062 70322 85871 333 10053 91111=
0224010260999992015010121004+69650+018933FM-12+011599999V0201901N005019999999N065000199+00481-00031098081ADDAA101000091AY121021AY221021GA1061+008001081GA2999+999999031GE19MSL   +99999+99999GF107991061999008001999999MA1999999096711MD1610351+9999MW1021REMSYN07001026 21587 71905 10048 21003 39671 49808 56035 70222 8687/ 333 60005=
0244010260999992015010200004+69650+018933FM-12+011599999V0201901N005019999999N020000199+00381+00081097791ADDAA101000091AY161021AY221021GA1061+008001081GA2999+999999031GE19MSL   +99999+99999GF108991061999008001999999MA1999999096421MD1810281+9999MW1611OD139901101999REMSYN07601026 21570 81905 10038 20008 39642 49779 58028 76162 8687/ 333 60005 91111=
0224010260999992015010203004+69650+018933FM-12+011599999V0201901N006019999999N065000199+00331+00021097511ADDAA101000091AY161021AY221021GA1041+008001081GA2999+999999031GE19MSL   +99999+99999GF107991041999008001999999MA1999999096141MD1710281+9999MW1011REMSYN07001026 21587 71906 10033 20002 39614 49751 57028 70162 8487/ 333 60005=
0309010260999992015010206004+69650+018933FM-12+011599999V0201901N005019999999N070000199+00341-00091097321ADDAA112000131AA224006531AJ100263100260099AY161021AY221021GA1031+008001061GA2999+999999031GE19MSL   +99999+99999GF106991031999008001999999IA1279KA1240N+00301MA1999999095961MD1610181+9999MW1011OD139901001999REMSYN09401026 11588 61905 10034 21009 39596 49732 56018 69912 70162 83530 333 20030 43026 70065 91110=
0240010260999992015010209004+69650+018933FM-12+011599999V0202001N005019999999N070000199+00261-00161097191ADDAA101000091AY121021AY211021GA1011+012501061GA2999+999999031GA3999+999999001GE19MSL   +99999+99999GF103991011999012501999999MA1999999095821MD1610131+9999MW1011REMSYN07001026 21688 32005 10026 21016 39582 49719 56013 70121 81541 333 60005=
0260010260999992015010212004+69650+018933FM-12+011599999V0209999C999999999999N070000199+00091-00201097051ADDAA101000091AY101021AY201021GA1011+012501061GA2999+999999031GA3999+999999001GE19MSL   +99999+99999GF104991011999012501999999MA1999999095681MD1610141+9999MW1021OD139900901999REMSYN07601026 21688 40000 10009 21020 39568 49705 56014 70200 81542 333 60005 91109=
0240010260999992015010215004+69650+018933FM-12+011599999V0203001N001019999999N070000199-00021-00271097051ADDAA101000091AY121021AY201021GA1021+012501061GA2999+999999031GA3999+999999001GE19MSL   +99999+99999GF105991021999012501999999MA1999999095671MD1510011+9999MW1031REMSYN07001026 21688 53001 11002 21027 39567 49705 55001 70320 82572 333 60005=
0279010260999992015010218004+69650+018933FM-12+011599999V0202801N002019999999N070001199+00001-00251097081ADDAA112000091AY121021AY201021GA1021+012501061GA2999+999999031GA3999+999999001GE19MSL   +99999+99999GF105991021999012501999999KA1120M+00341MA1999999095701MD1310031+9999MW1021OD139900401999REMSYN08201026 11689 52802 10000 21025 39570 49708 53003 60002 70220 82572 333 10034 91104=
0240010260999992015010221004+69650+018933FM-12+011599999V0201901N005019999999N070001199+00011-00321097211ADDAA101000091AY121021AY201021GA1011+012501061GA2999+999999031GA3999+999999001GE19MSL   +99999+99999GF104991011999012501999999MA1999999095831MD1210131+9999MW1011REMSYN07001026 21689 41905 10001 21032 39583 49721 52013 70120 81572 333 60005=
0244010260999992015010300004+69650+018933FM-12+011599999V0202001N005019999999N070001199+00131-00341097451ADDAA101000131AY121021AY201021GA1051+012501061GA2999+999999031GE19MSL   +99999+99999GF107991051999012501999999MA1999999096071MD1310241+9999MW1021OD139900901999REMSYN07601026 21689 72005 10013 21034 39607 49745 53024 70220 85570 333 69915 91109=
0224010260999992015010303004+69650+018933FM-12+011599999V0201901N005019999999N070001199+00061-00071097671ADDAA101000091AY171021AY221021GA1071+012501061GA2999+999999031GE19MSL   +99999+99999GF107991071999012501999999MA1999999096291MD1210221+9999MW1261REMSYN07001026 21689 71905 10006 21007 39629 49767 52022 72672 87570 333 60005=
0309010260999992015010306004+69650+018933FM-12+011599999V0201901N006019999999N070000199+00121-00261097831ADDAA112000431AA224000431AJ100263100260099AY171021AY221021GA1031+012501081GA2999+999999031GE19MSL   +99999+99999GF105991031999012501999999IA1279KA1240N-00131MA1999999096451MD1210161+9999MW1011OD139900901999REMSYN09401026 11688 51906 10012 21026 39645 49783 52016 69942 70172 83130 333 21013 43026 70004 91109=
0240010260999992015010309004+69650+018933FM-12+011599999V0201901N004019999999N070000199+00091-00361098051ADDAA101000091AY111021AY201021GA1011+012501081GA2999+999999031GA3999+999999001GE19MSL   +99999+99999GF102991011999012501999999MA1999999096661MD1210211+9999MW1011REMSYN07001026 21688 21904 10009 21036 39666 49805 52021 70110 81841 333 60005=
0260010260999992015010312004+69650+018933FM-12+011599999V0201901N004019999999N020000199+00111-00321098221ADDAA101000091AY121021AY201021GA1051+004501081GA2999+999999031GA3999+999999001GE19MSL   +99999+99999GF107991051999004501999999MA1999999096831MD1210161+9999MW1151OD139900901999REMSYN07601026 21470 71904 10011 21032 39683 49822 52016 71520 85871 333 60005 91109=
0224010260999992015010315004+69650+018933FM-12+011599999V0201901N003019999999N012000199+00061-00071098441ADDAA101000731AY181021AY221021GA1051+004501081GA2999+999999031GE19MSL   +99999+99999GF107991051999004501999999MA1999999097051MD1210221+9999MW1851REMSYN07001026 21462 71903 10006 21007 39705 49844 52022 78582 8587/ 333 69975=
0263010260999992015010318004+69650+018933FM-12+011599999V0201901N003019999999N018000199-00011-00051098641ADDAA112004031AY181021AY221021GA1061+004501081GA2999+999999031GE19MSL   +99999+99999GF107991061999004501999999KA1120M+00151MA1999999097241MD1210191+9999MW1261OD139900601999REMSYN08201026 11468 71903 11001 21005 39724 49864 52019 60042 72682 8686/ 333 10015 91106=
0224010260999992015010321004+69650+018933FM-12+011599999V0202001N004019999999N040000199+00001-00081098851ADDAA101000091AY181021AY221021GA1021+004501081GA2999+999999031GE19MSL   +99999+99999GF106991021999004501999999MA1999999097451MD1210211+9999MW1021REMSYN07001026 21482 62004 10000 21008 39745 49885 52021 70282 82830 333 60005=
0260010260999992015010400004+69650+018933FM-12+011599999V0202101N005019999999N065000199-00041-00171099081ADDAA101000091AY181021AY221021GA1031+004501081GA2999+999999031GA3999+999999021GE19MSL   +99999+99999GF104991031999004501999999MA1999999097671MD1210231+9999MW1011OD139900701999REMSYN07601026 21487 42105 11004 21017 39767 49908 52023 70182 83278 333 60005 91107=
0240010260999992015010403004+69650+018933FM-12+011599999V0202001N004019999999N065000199-00051-00331099281ADDAA101000091AY121021AY221021GA1041+004501081GA2999+999999031GA3999+999999021GE19MSL   +99999+99999GF105991041999004501999999MA1999999097871MD1210191+9999MW1031REMSYN07001026 21487 52004 11005 21033 39787 49928 52019 70322 84178 333 60005=
0309010260999992015010406004+69650+018933FM-12+011599999V0201801N004019999999N070000199-00091-00481099451ADDAA112000091AA224003631AJ100293100290099AY121021AY211021GA1021+012501081GA2999+999999031GE19MSL   +99999+99999GF104991021999012501999999IA1289KA1240N-00111MA1999999098031MD1210171+9999MW1021OD139900801999REMSYN09401026 11688 41804 11009 21048 39803 49945 52017 60002 70221 82870 333 21011 48029 70036 91108=
0224010260999992015010409004+69650+018933FM-12+011599999V0201901N004019999999N065000199-00051-00401099711ADDAA101000091AY121021AY211021GA1061+008001061GA2999+999999031GE19MSL   +99999+99999GF107991061999008001999999MA1999999098291MD1210261+9999MW1031REMSYN07001026 21587 71904 11005 21040 39829 49971 52026 70321 8657/ 333 60005=
0260010260999992015010412004+69650+018933FM-12+011599999V0201901N007019999999N030000199-00121-00541099961ADDAA101000091AY121021AY221021GA1061+008001061GA2999+999999031GA3999+999999021GE19MSL   +99999+99999GF107991061999008001999999MA1999999098541MD1210251+9999MW1151OD139901101999REMSYN07601026 21580 71907 11012 21054 39854 49996 52025 71522 86578 333 60005 91111=
0224010260999992015010415004+69650+018933FM-12+011599999V0202001N006019999999N070000199-00251-00581100271ADDAA101000091AY121021AY221021GA1051+008001061GA2999+999999031GE19MSL   +99999+99999GF107991051999008001999999MA1999999098831MD1210291+9999MW1021REMSYN07001026 21588 72006 11025 21058 39883 40027 52029 70222 8557/ 333 60005=
0263010260999992015010418004+69650+018933FM-12+011599999V0201901N006019999999N070001199-00231-00641100501ADDAA112000091AY121021AY221021GA1051+008001061GA2999+999999031GE19MSL   +99999+99999GF107991051999008001999999KA1120M-00041MA1999999099061MD1210231+9999MW1021OD139901301999REMSYN08201026 11589 71906 11023 21064 39906 40050 52023 60002 70222 8554/ 333 11004 91113=
0224010260999992015010421004+69650+018933FM-12+011599999V0202001N006019999999N070001199-00241-00691100691ADDAA101000091AY121021AY221021GA1051+008001061GA2999+999999031GE19MSL   +99999+99999GF107991051999008001999999MA1999999099251MD1210191+9999MW1021REMSYN07001026 21589 72006 11024 21069 39925 40069 52019 70222 8554/ 333 60005=
0244010260999992015010500004+69650+018933FM-12+011599999V0201701N003019999999N070001199-00231-00801100881ADDAA101000091AY121021AY201021GA1011+012501061GA2999+999999031GE19MSL   +99999+99999GF101991011999012501999999MA1999999099441MD1210191+9999MW1011OD139901201999REMSYN07601026 21689 11703 11023 21080 39944 40088 52019 70120 81540 333 60005 91112=
0208010260999992015010503004+69650+018933FM-12+011599999V0202001N005019999999N070001199-00371-00871101061ADDAA101000091AY101021AY201021GA1011+022501031GE19MSL   +99999+99999GF101991011999022501999999MA1999999099611MD1210171+9999MW1021REMSYN07001026 21889 12005 11037 21087 39961 40106 52017 70200 81040 333 60005=
0223010260999992015010506004+69650+018933FM-12+011599999V0201901N005019999999N070001199-00461-00981101291ADDAA112000091AA224000091AJ100273100270099AY101021AY201021IA1239KA1240N-00461MA1999999099831MD1310221+9999MW1021OD139901101999REMSYN08801026 11989 01905 11046 21098 39983 40129 53022 60002 70200 333 21046 47027 70000 91111=
0224010260999992015010509004+69650+018933FM-12+011599999V0201901N003019999999N070001199-00511-01031101591ADDAA101000091AY101021AY201021GA1011+022501031GA2999+999999001GE19MSL   +99999+99999GF101991011999022501999999MA1999999100121MD1210291+9999MW1021REMSYN07001026 21889 11903 11051 21103 30012 40159 52029 70200 81061 333 60005=
0158010260999992015010512004+69650+018933FM-12+011599999V0201901N004019999999N070001199-00561-01081101761ADDAA101000091AY101021AY201021MA1999999100291MD1210181+9999MW1021OD139901101999REMSYN07001026 21989 01904 11056 21108 30029 40176 52018 70200 333 60005 91111=
0138010260999992015010515004+69650+018933FM-12+011599999V0201901N004019999999N070001199-00551-01051101941ADDAA101000091AY101021AY201021MA1999999100461MD1210161+9999MW1021REMSYN06401026 21989 01904 11055 21105 30046 40194 52016 70200 333 60005=
0177010260999992015010518004+69650+018933FM-12+011599999V0201801N003019999999N070001199-00681-01081101971ADDAA112000091AY101021AY201021KA1120M-00451MA1999999100491MD1210041+9999MW1021OD139900901999REMSYN07601026 11989 01803 11068 21108 30049 40197 52004 60002 70200 333 11045 91109=
0138010260999992015010521004+69650+018933FM-12+011599999V0201601N001019999999N070001199-00661-01111101971ADDAA101000091AY101021AY201021MA1999999100491MD1990011+9999MW1021REMSYN06401026 21989 01601 11066 21111 30049 40197 50001 70200 333 60005=
0110010260999992015010522004+69650+018933FM-12+011599999V0200901N001019999999N999999999-00761-01051101961ADDAA101000091MA1999999100471MD1710061+9999REMSYN05801026 26/// /0901 11076 21105 30047 40196 57006 333 60005=
0110010260999992015010523004+69650+018933FM-12+011599999V0202001N008019999999N999999999-00471-01091101921ADDAA101000091MA1999999100451MD1710051+9999REMSYN05801026 26/// /2008 11047 21109 30045 40192 57005 333 60005=
0158010260999992015010600004+69650+018933FM-12+011599999V0201901N007019999999N070001199-00541-01021101821ADDAA101000091AY101021AY201021MA1999999100351MD1810141+9999MW1021OD139901301999REMSYN07001026 21989 01907 11054 21102 30035 40182 58014 70200 333 60005 91113=
0110010260999992015010601004+69650+018933FM-12+011599999V0201801N004019999999N999999999-00561-01121101751ADDAA101000091MA1999999100281MD1810191+9999REMSYN05801026 26/// /1804 11056 21112 30028 40175 58019 333 60005=
0110010260999992015010602004+69650+018933FM-12+011599999V0202001N004019999999N999999999-00491-01021101701ADDAA101000091MA1999999100231MD1610221+9999REMSYN05801026 26/// /2004 11049 21102 30023 40170 56022 333 60005=
0227010260999992015010603004+69650+018933FM-12+011599999V0201901N002019999999N070001199-00441-01071101621ADDAA101000091AY101021AY201021GA1999+999999021GE19MSL   +99999+99999GF103991001999999999999999MA1999999100151MD1710201+9999MW1031REMSYN07001026 21989 31902 11044 21107 30015 40162 57020 70300 80005 333 60005=EQDQ01    003SCCGA1
0110010260999992015010604004+69650+018933FM-12+011599999V0202101N005019999999N999999999-00441-01041101511ADDAA101000091MA1999999100051MD1810221+9999REMSYN05801026 26/// /2105 11044 21104 30005 40151 58022 333 60005=
0110010260999992015010605004+69650+018933FM-12+011599999V0201901N007019999999N999999999-00361-01121101401ADDAA101000091MA1999999099941MD1710291+9999REMSYN05801026 26/// /1907 11036 21112 39994 40140 57029 333 60005=
0312010260999992015010606004+69650+018933FM-12+011599999V0201801N007019999999N070001199-00291-01171101321ADDAA112000091AA224000091AJ100263100260099AY121021AY201021GA1999+999999021GE19MSL   +99999+99999GF107991001999999999999999IA1239KA1240N-00781MA1999999099871MD1710281+9999MW1031OD139901201999REMSYN09401026 11989 71807 11029 21117 39987 40132 57028 60002 70320 80007 333 21078 47026 70000 91112=EQDQ01    003SCCGA1
0110010260999992015010607004+69650+018933FM-12+011599999V0202101N007019999999N999999999-00371-01031101231ADDAA101000091MA1999999099771MD1810281+9999REMSYN05801026 26/// /2107 11037 21103 39977 40123 58028 333 60005=
0110010260999992015010608004+69650+018933FM-12+011599999V0202101N006019999999N999999999-00341-00951101191ADDAA101000091MA1999999099741MD1610201+9999REMSYN05801026 26/// /2106 11034 21095 39974 40119 56020 333 60005=
0224010260999992015010609004+69650+018933FM-12+011599999V0202001N006019999999N070000199-00351-01001101101ADDAA101000091AY121021AY221021GA1021+999999041GA2999+999999021GE19MSL   +99999+99999GF108991021999999999999999MA1999999099651MD1610211+9999MW1031REMSYN07001026 21988 82006 11035 21100 39965 40110 56021 70322 82017 333 60005=
0110010260999992015010610004+69650+018933FM-12+011599999V0202001N007019999999N999999999-00321-01021101001ADDAA101000091MA1999999099551MD1810221+9999REMSYN05801026 26/// /2007 11032 21102 39955 40100 58022 333 60005=
0110010260999992015010611004+69650+018933FM-12+011599999V0202001N007019999999N999999999-00301-00971100971ADDAA101000091MA1999999099521MD1610231+9999REMSYN05801026 26/// /2007 11030 21097 39952 40097 56023 333 60005=
0244010260999992015010612004+69650+018933FM-12+011599999V0202001N008019999999N040000199-00231-01001100871ADDAA101000091AY121021AY221021GA1071+008001061GA2999+999999031GE19MSL   +99999+99999GF108991071999008001999999MA1999999099431MD1610221+9999MW1151OD139901401999REMSYN07601026 21582 82008 11023 21100 39943 40087 56022 71522 8757/ 333 60005 91114=
0110010260999992015010613004+69650+018933FM-12+011599999V0202101N007019999999N999999999-00261-00921100791ADDAA101000091MA1999999099351MD1810201+9999REMSYN05801026 26/// /2107 11026 21092 39935 40079 58020 333 60005=
0110010260999992015010614004+69650+018933FM-12+011599999V0202001N009019999999N999999999-00291-00771100721ADDAA101000091MA1999999099281MD1710241+9999REMSYN05801026 26/// /2009 11029 21077 39928 40072 57024 333 60005=
0224010260999992015010615004+69650+018933FM-12+011599999V0202101N008019999999N030000199-00281-00711100641ADDAA101000091AY121021AY221021GA1061+008001061GA2999+999999031GE19MSL   +99999+99999GF108991061999008001999999MA1999999099201MD1610221+9999MW1021REMSYN07001026 21580 82108 11028 21071 39920 40064 56022 70222 8657/ 333 60005=
0110010260999992015010616004+69650+018933FM-12+011599999V0202001N008019999999N999999999-00251-00611100561ADDAA101000091MA1999999099121MD1710221+9999REMSYN05801026 26/// /2008 11025 21061 39912 40056 57022 333 60005=
0110010260999992015010617004+69650+018933FM-12+011599999V0201901N007019999999N999999999-00221-00581100491ADDAA101000091MA1999999099051MD1710231+9999REMSYN05801026 26/// /1907 11022 21058 39905 40049 57023 333 60005=
0263010260999992015010618004+69650+018933FM-12+011599999V0202101N006019999999N045000199-00181-00541100411ADDAA112000091AY121021AY221021GA1041+008001061GA2999+999999031GE19MSL   +99999+99999GF108991041999008001999999KA1120M-00181MA1999999098981MD1710221+9999MW1021OD139901401999REMSYN08201026 11583 82106 11018 21054 39898 40041 57022 60002 70222 8457/ 333 11018 91114=
0110010260999992015010619004+69650+018933FM-12+011599999V0202001N008019999999N999999999-00161-00471100351ADDAA101000091MA1999999098921MD1710201+9999REMSYN05801026 26/// /2008 11016 21047 39892 40035 57020 333 60005=
0110010260999992015010620004+69650+018933FM-12+011599999V0202101N006019999999N999999999-00151-00421100291ADDAA101000091MA1999999098861MD1710181+9999REMSYN05801026 26/// /2106 11015 21042 39886 40029 57018 333 60005=
0224010260999992015010621004+69650+018933FM-12+011599999V0202201N006019999999N025000199-00131-00321100221ADDAA101000091AY121021AY221021GA1061+004501061GA2999+999999031GE19MSL   +99999+99999GF108991061999004501999999MA1999999098791MD1710201+9999MW1151REMSYN07001026 21475 82206 11013 21032 39879 40022 57020 71522 8657/ 333 60005=
0110010260999992015010622004+69650+018933FM-12+011599999V0202101N006019999999N999999999-00101-00281100161ADDAA101000091MA1999999098731MD1710191+9999REMSYN05801026 26/// /2106 11010 21028 39873 40016 57019 333 60005=
0110010260999992015010623004+69650+018933FM-12+011599999V0202201N006019999999N999999999-00071-00251100081ADDAA101000091MA1999999098661MD1710201+9999REMSYN05801026 26/// /2206 11007 21025 39866 40008 57020 333 60005=
0244010260999992015010700004+69650+018933FM-12+011599999V0202201N004019999999N020000199-00061-00261100001ADDAA101000091AY121021AY221021GA1061+008001061GA2999+999999031GE19MSL   +99999+99999GF108991061999008001999999MA1999999098581MD1710201+9999MW1151OD139901201999REMSYN07601026 21570 82204 11006 21026 39858 40000 57020 71522 8657/ 333 60005 91112=
0110010260999992015010701004+69650+018933FM-12+011599999V0201901N002019999999N999999999-00031-00301099961ADDAA101000091MA1999999098541MD1610181+9999REMSYN05801026 26/// /1902 11003 21030 39854 49996 56018 333 60005=
0110010260999992015010702004+69650+018933FM-12+011599999V0202001N003019999999N999999999-00031-00261099921ADDAA101000091MA1999999098501MD1710161+9999REMSYN05801026 26/// /2003 11003 21026 39850 49992 57016 333 60005=
0224010260999992015010703004+69650+018933FM-12+011599999V0202101N004019999999N070001199+00011-00291099851ADDAA101000091AY121021AY221021GA1051+999999031GA2999+999999021GE19MSL   +99999+99999GF106991051999999999999999MA1999999098431MD1710151+9999MW1021REMSYN07001026 21/89 62104 10001 21029 39843 49985 57015 70222 85077 333 60005=
0110010260999992015010704004+69650+018933FM-12+011599999V0202201N004019999999N999999999+00041-00301099801ADDAA101000091MA1999999098391MD1710161+9999REMSYN05801026 26/// /2204 10004 21030 39839 49980 57016 333 60005=
0110010260999992015010705004+69650+018933FM-12+011599999V0202201N005019999999N999999999+00071-00261099791ADDAA101000091MA1999999098381MD1610121+9999REMSYN05801026 26/// /2205 10007 21026 39838 49979 56012 333 60005=
0309010260999992015010706004+69650+018933FM-12+011599999V0202101N006019999999N070000199+00091-00211099831ADDAA112000091AA224000091AJ100253100250099AY121021AY221021GA1051+008001071GA2999+999999031GE19MSL   +99999+99999GF108991051999008001999999IA1239KA1240N-00181MA1999999098421MD1510021+9999MW1021OD139901001999REMSYN09401026 11588 82106 10009 21021 39842 49983 55002 60002 70222 8567/ 333 21018 47025 70000 91110=
0110010260999992015010707004+69650+018933FM-12+011599999V0202101N006019999999N999999999+00001-00071099881ADDAA101000531MA1999999098461MD1310071+9999REMSYN05801026 26/// /2106 10000 21007 39846 49988 53007 333 69955=
0110010260999992015010708004+69650+018933FM-12+011599999V0202001N006019999999N999999999-00011-00051099921ADDAA101000231MA1999999098501MD1210121+9999REMSYN05801026 26/// /2006 11001 21005 39850 49992 52012 333 69925=
0224010260999992015010709004+69650+018933FM-12+011599999V0202001N006019999999N020000199+00001-00041099961ADDAA101000091AY171021AY221021GA1031+002501071GA2999+999999051GE19MSL   +99999+99999GF108991031999002501999999MA1999999098541MD1210121+9999MW1701REMSYN07001026 21370 82006 10000 21004 39854 49996 52012 77072 8372/ 333 60005=
0110010260999992015010710004+69650+018933FM-12+011599999V0202001N005019999999N999999999+00011-00041100021ADDAA101000091MA1999999098601MD1210131+9999REMSYN05801026 26/// /2005 10001 21004 39860 40002 52013 333 60005=
0110010260999992015010711004+69650+018933FM-12+011599999V0202001N005019999999N999999999+00021-00031100071ADDAA101000131MA1999999098651MD1210151+9999REMSYN05801026 26/// /2005 10002 21003 39865 40007 52015 333 69915=
0244010260999992015010712004+69650+018933FM-12+011599999V0202001N005019999999N025000199+00061+00011100121ADDAA101000131AY171021AY221021GA1041+002501071GA2999+999999051GE19MSL   +99999+99999GF108991041999002501999999MA1999999098701MD1210151+9999MW1601OD139901001999REMSYN07601026 21375 82005 10006 20001 39870 40012 52015 76072 8472/ 333 69915 91110=
0110010260999992015010713004+69650+018933FM-12+011599999V0202001N004019999999N999999999+00061+00001100141ADDAA101000331MA1999999098721MD1210131+9999REMSYN05801026 26/// /2004 10006 21000 39872 40014 52013 333 69935=
0110010260999992015010714004+69650+018933FM-12+011599999V0201901N003019999999N999999999+00081+00031100161ADDAA101000091MA1999999098741MD1210091+9999REMSYN05801026 26/// /1903 10008 20003 39874 40016 52009 333 60005=
0224010260999992015010715004+69650+018933FM-12+011599999V0202001N003019999999N050000199+00081+00021100191ADDAA101000091AY161021AY221021GA1051+004501071GA2999+999999031GE19MSL   +99999+99999GF107991051999004501999999MA1999999098771MD1210071+9999MW1211REMSYN07001026 21484 72003 10008 20002 39877 40019 52007 72162 8573/ 333 60005=
0110010260999992015010716004+69650+018933FM-12+011599999V0202101N003019999999N999999999+00061+00011100231ADDAA101000091MA1999999098811MD1310091+9999REMSYN05801026 26/// /2103 10006 20001 39881 40023 53009 333 60005=
0110010260999992015010717004+69650+018933FM-12+011599999V0202001N002019999999N999999999+00071+00021100221ADDAA101000131MA1999999098801MD1990061+9999REMSYN05801026 26/// /2002 10007 20002 39880 40022 50006 333 69915=
0247010260999992015010718004+69650+018933FM-12+011599999V0202001N003019999999N030000199+00071+00031100251ADDAA112002031AY161021AY221021GA1071+001501071GE19MSL   +99999+99999GF107991071999001501999999KA1120M+00101MA1999999098831MD1110051+9999MW1021OD139900701999REMSYN08201026 11280 72003 10007 20003 39883 40025 51005 60022 70262 876// 333 10010 91107=
0110010260999992015010719004+69650+018933FM-12+011599999V0202101N003019999999N999999999+00051+00011100221ADDAA101000091MA1999999098801MD1810011+9999REMSYN05801026 26/// /2103 10005 20001 39880 40022 58001 333 60005=
0110010260999992015010720004+69650+018933FM-12+011599999V0202001N002019999999N999999999+00041+00001100161ADDAA101000091MA1999999098741MD1810061+9999REMSYN05801026 26/// /2002 10004 21000 39874 40016 58006 333 60005=
0208010260999992015010721004+69650+018933FM-12+011599999V0202001N002019999999N020000199+00011-00031100161ADDAA101000091AY121021AY221021GA1071+001501071GE19MSL   +99999+99999GF107991071999001501999999MA1999999098741MD1610081+9999MW1021REMSYN07001026 21270 72002 10001 21003 39874 40016 56008 70222 876// 333 60005=
0110010260999992015010722004+69650+018933FM-12+011599999V0202601N001019999999N999999999-00031-00071100091ADDAA101000091MA1999999098671MD1810121+9999REMSYN05801026 26/// /2601 11003 21007 39867 40009 58012 333 60005=
0110010260999992015010723004+69650+018933FM-12+011599999V0200501N001019999999N999999999-00041-00071100011ADDAA101000091MA1999999098591MD1810151+9999REMSYN05801026 26/// /0501 11004 21007 39859 40001 58015 333 60005=
0222010260999992015010800004+69650+018933FM-12+011599999V0200301N00201002401CN000900199-00061-00091099891ADDAA101000091AY141021AY221021GA1999+000251999GE19MSL   +99999+99999GF109991999999000251999999MA1999999098471MD1810271+9999MW1491OD139900501999REMSYN07001026 21009 90302 11006 21009 39847 49989 58027 74942 333 60005 91105=
0110010260999992015010801004+69650+018933FM-12+011599999V0200101N001019999999N999999999-00101-00131099741ADDAA101000091MA1999999098321MD1810351+9999REMSYN05801026 26/// /0101 11010 21013 39832 49974 58035 333 60005=
0110010260999992015010802004+69650+018933FM-12+011599999V0203001N001019999999N999999999-00151-00181099581ADDAA101000091MA1999999098161MD1810421+9999REMSYN05801026 26/// /3001 11015 21018 39816 49958 58042 333 60005=
0158010260999992015010803004+69650+018933FM-12+011599999V0200501N00201001201CN000500199-00231-00251099441ADDAA101000091AY141021AY221021GF109991999999999999999999MA1999999098021MD1710451+9999REMSYN06401026 21/05 90502 11023 21025 39802 49944 57045 7//42 333 60005=
0110010260999992015010804004+69650+018933FM-12+011599999V0202301N003019999999N999999999-00051-00121099281ADDAA101000091MA1999999097871MD1710451+9999REMSYN05801026 26/// /2303 11005 21012 39787 49928 57045 333 60005=
0110010260999992015010805004+69650+018933FM-12+011599999V0202501N001019999999N999999999-00091-00171099131ADDAA101000091MA1999999097721MD1810431+9999REMSYN05801026 26/// /2501 11009 21017 39772 49913 58043 333 60005=
0325010260999992015010806004+69650+018933FM-12+011599999V0201701N001019999999N065000199+00111-00251099001ADDAA112000091AA224001531AJ100263100260099AY141021AY221021GA1031+012501061GA2999+999999031GA3999+999999021GE19MSL   +99999+99999GF105991031999012501999999IA1239KA1240N-00231MA1999999097601MD1610411+9999MW1021OD139900601999REMSYN09401026 11687 51701 10011 21025 39760 49900 56041 60002 70242 83536 333 21023 47026 70015 91106=
0110010260999992015010807004+69650+018933FM-12+011599999V0201601N004019999999N999999999+00301-00271098891ADDAA101000091MA1999999097501MD1610371+9999REMSYN05801026 26/// /1604 10030 21027 39750 49889 56037 333 60005=
0110010260999992015010808004+69650+018933FM-12+011599999V0201701N007019999999N999999999+00361-00231098771ADDAA101000091MA1999999097391MD1710331+9999REMSYN05801026 26/// /1707 10036 21023 39739 49877 57033 333 60005=
0240010260999992015010809004+69650+018933FM-12+011599999V0201801N004019999999N070000199+00371-00251098701ADDAA101000091AY121021AY221021GA1011+012501081GA2999+999999031GA3999+999999021GE19MSL   +99999+99999GF107991011999012501999999MA1999999097321MD1610271+9999MW1031REMSYN07001026 21688 71804 10037 21025 39732 49870 56027 70322 81176 333 60005=
0110010260999992015010810004+69650+018933FM-12+011599999V0201801N012019999999N999999999+00301-00271098631ADDAA101000091MA1999999097251MD1610261+9999REMSYN05801026 26/// /1812 10030 21027 39725 49863 56026 333 60005=
0110010260999992015010811004+69650+018933FM-12+011599999V0202001N007019999999N999999999+00291-00401098591ADDAA101000091MA1999999097211MD1610181+9999REMSYN05801026 26/// /2007 10029 21040 39721 49859 56018 333 60005=
0260010260999992015010812004+69650+018933FM-12+011599999V0202001N007019999999N055000199+00341-00551098571ADDAA101000091AY121021AY221021GA1031+004501061GA2999+999999031GA3999+999999021GE19MSL   +99999+99999GF108991031999004501999999MA1999999097191MD1610141+9999MW1151OD139901901999REMSYN07601026 21485 82007 10034 21055 39719 49857 56014 71522 83546 333 60005 91119=
0110010260999992015010813004+69650+018933FM-12+011599999V0202001N007019999999N999999999+00301-00461098571ADDAA101000091MA1999999097191MD1510051+9999REMSYN05801026 26/// /2007 10030 21046 39719 49857 55005 333 60005=
0110010260999992015010814004+69650+018933FM-12+011599999V0201801N009019999999N999999999+00161-00341098631ADDAA101000091MA1999999097241MD1310031+9999REMSYN05801026 26/// /1809 10016 21034 39724 49863 53003 333 60005=
0224010260999992015010815004+69650+018933FM-12+011599999V0202001N009019999999N005000199+00081-00231098721ADDAA101000131AY171021AY221021GA1071+004501071GA2999+999999051GE19MSL   +99999+99999GF108991071999004501999999MA1999999097321MD1310131+9999MW1711REMSYN07001026 21450 82009 10008 21023 39732 49872 53013 77172 8772/ 333 69915=
0110010260999992015010816004+69650+018933FM-12+011599999V0202001N009019999999N999999999+00001-00161098701ADDAA101000131MA1999999097301MD1110111+9999REMSYN05801026 26/// /2009 10000 21016 39730 49870 51011 333 69915=
0110010260999992015010817004+69650+018933FM-12+011599999V0202001N008019999999N999999999-00041-00221098761ADDAA101000131MA1999999097361MD1210121+9999REMSYN05801026 26/// /2008 11004 21022 39736 49876 52012 333 69915=
0263010260999992015010818004+69650+018933FM-12+011599999V0202001N007019999999N009000199-00061-00201098791ADDAA112000131AY171021AY221021GA1041+004501071GA2999+999999051GE19MSL   +99999+99999GF108991041999004501999999KA1120M+00411MA1999999097391MD1310081+9999MW1221OD139901801999REMSYN08201026 11459 82007 11006 21020 39739 49879 53008 69912 72272 8472/ 333 10041 91118=
0110010260999992015010819004+69650+018933FM-12+011599999V0202001N008019999999N999999999-00051-00211098831ADDAA101000091MA1999999097431MD1110131+9999REMSYN05801026 26/// /2008 11005 21021 39743 49883 51013 333 60005=
0110010260999992015010820004+69650+018933FM-12+011599999V0202001N007019999999N999999999-00071-00231098851ADDAA101000091MA1999999097441MD1210081+9999REMSYN05801026 26/// /2007 11007 21023 39744 49885 52008 333 60005=
0224010260999992015010821004+69650+018933FM-12+011599999V0202101N007019999999N010000199-00081-00181098891ADDAA101000091AY121021AY221021GA1021+004501071GA2999+999999031GE19MSL   +99999+99999GF108991021999004501999999MA1999999097481MD1210091+9999MW1151REMSYN07001026 21460 82107 11008 21018 39748 49889 52009 71522 8267/ 333 60005=
0110010260999992015010822004+69650+018933FM-12+011599999V0202001N006019999999N999999999-00091-00211098901ADDAA101000091MA1999999097491MD1210061+9999REMSYN05801026 26/// /2006 11009 21021 39749 49890 52006 333 60005=
0110010260999992015010823004+69650+018933FM-12+011599999V0202001N005019999999N999999999-00071-00241098911ADDAA101000091MA1999999097501MD1210061+9999REMSYN05801026 26/// /2005 11007 21024 39750 49891 52006 333 60005=
0244010260999992015010900004+69650+018933FM-12+011599999V0201901N006019999999N030000199-00051-00261098891ADDAA101000091AY121021AY221021GA1021+008001071GA2999+999999031GE19MSL   +99999+99999GF108991021999008001999999MA1999999097481MD1410001+9999MW1021OD139901201999REMSYN07601026 21580 81906 11005 21026 39748 49889 54000 70222 8267/ 333 60005 91112=
0110010260999992015010901004+69650+018933FM-12+011599999V0201901N005019999999N999999999-00031-00231098871ADDAA101000091MA1999999097471MD1710021+9999REMSYN05801026 26/// /1905 11003 21023 39747 49887 57002 333 60005=
0110010260999992015010902004+69650+018933FM-12+011599999V0201901N004019999999N999999999-00041-00241098861ADDAA101000091MA1999999097461MD1710041+9999REMSYN05801026 26/// /1904 11004 21024 39746 49886 57004 333 60005=
0224010260999992015010903004+69650+018933FM-12+011599999V0201901N004019999999N030000199-00021-00261098861ADDAA101000091AY121021AY221021GA1011+008001071GA2999+999999031GE19MSL   +99999+99999GF108991011999008001999999MA1999999097461MD1710011+9999MW1021REMSYN07001026 21580 81904 11002 21026 39746 49886 57001 70222 8167/ 333 60005=
0110010260999992015010904004+69650+018933FM-12+011599999V0202001N004019999999N999999999-00051-00221098861ADDAA101000091MA1999999097451MD1710021+9999REMSYN05801026 26/// /2004 11005 21022 39745 49886 57002 333 60005=
0110010260999992015010905004+69650+018933FM-12+011599999V0202001N003019999999N999999999-00081-00201098861ADDAA101000091MA1999999097451MD1710011+9999REMSYN05801026 26/// /2003 11008 21020 39745 49886 57001 333 60005=
0328010260999992015010906004+69650+018933FM-12+011599999V0201701N002019999999N060000199-00061-00191098861ADDAA112999999AA224000131AJ100263100260099AY181021AY221021GA1061+004501081GA2999+999999031GE19MSL   +99999+99999GF108991061999004501999999IA1239KA1240N-00091MA1999999097451MD1710021+9999MW1851OD139900901999REMSYN09401026 11486 81702 11006 21019 39745 49886 57002 60002 78582 8687/ 333 21009 47026 70001 91109=EQDQ01  00002PRCP12
0129010260999992015010907004+69650+018933FM-12+011599999V0202001N004019999999N999999999-00081-00161098861ADDAA101000531MA1999999097451MD1410009+9999REMSYN05801026 26/// /2004 11008 21016 39745 49886 54001 333 69955=EQDQ01.1    3APC3  
0110010260999992015010908004+69650+018933FM-12+011599999V0201901N005019999999N999999999-00111-00161098861ADDAA101000731MA1999999097451MD1410001+9999REMSYN05801026 26/// /1905 11011 21016 39745 49886 54000 333 69975=
0110010260999992015010909004+69650+018933FM-12+011599999V0202101N004019999999N999999999-00101-00141098871ADDAA101000731MA1999999097461MD1210011+9999REMSYN05801026 26/// /2104 11010 21014 39746 49887 52001 333 69975=
0110010260999992015010910004+69650+018933FM-12+011599999V0201901N003019999999N999999999-00111-00151098861ADDAA101000431MA1999999097451MD1410001+9999REMSYN05801026 26/// /1903 11011 21015 39745 49886 54000 333 69945=
0110010260999992015010911004+69650+018933FM-12+011599999V0201901N003019999999N999999999-00111-00151098861ADDAA101000231MA1999999097451MD1410001+9999REMSYN05801026 26/// /1903 11011 21015 39745 49886 54000 333 69925=
0184010260999992015010912004+69650+018933FM-12+011599999V0201801N00401002401CN000800199-00141-00181098871ADDAA101000831AY181021AY271021GF109991999999999999999999MA1999999097461MD1410001+9999MW1731OD139900801999REMSYN07001026 21/08 91804 11014 21018 39746 49887 54000 77387 333 69985 91108=
0110010260999992015010913004+69650+018933FM-12+011599999V0201901N005019999999N999999999-00161-00191098901ADDAA101000631MA1999999097491MD1210031+9999REMSYN05801026 26/// /1905 11016 21019 39749 49890 52003 333 69965=
0110010260999992015010914004+69650+018933FM-12+011599999V0202001N005019999999N999999999-00171-00221098881ADDAA101000131MA1999999097471MD1990021+9999REMSYN05801026 26/// /2005 11017 21022 39747 49888 50002 333 69915=
0224010260999992015010915004+69650+018933FM-12+011599999V0202001N005019999999N025000199-00201-00271098901ADDAA101000131AY181021AY221021GA1061+004501081GA2999+999999031GE19MSL   +99999+99999GF107991061999004501999999MA1999999097491MD1210031+9999MW1151REMSYN07001026 21475 72005 11020 21027 39749 49890 52003 71582 8687/ 333 69915=
0110010260999992015010916004+69650+018933FM-12+011599999V0201901N004019999999N999999999-00181-00321098891ADDAA101000091MA1999999097481MD1410001+9999REMSYN05801026 26/// /1904 11018 21032 39748 49889 54000 333 60005=
0129010260999992015010917004+69650+018933FM-12+011599999V0201901N005019999999N999999999-00211-00371098891ADDAA101000131MA1999999097481MD1290019+9999REMSYN05801026 26/// /1905 11021 21037 39748 49889 54001 333 69915=EQDQ01.1    3APC3  
0263010260999992015010918004+69650+018933FM-12+011599999V0202001N005019999999N045000199-00211-00421098901ADDAA112004031AY181021AY221021GA1051+008001081GA2999+999999031GE19MSL   +99999+99999GF107991051999008001999999KA1120M-00061MA1999999097491MD1410001+9999MW1021OD139901001999REMSYN08201026 11583 72005 11021 21042 39749 49890 54000 60042 70282 8587/ 333 11006 91110=
0110010260999992015010919004+69650+018933FM-12+011599999V0202001N004019999999N999999999-00211-00451098891ADDAA101000091MA1999999097481MD1410001+9999REMSYN05801026 26/// /2004 11021 21045 39748 49889 54000 333 60005=
0110010260999992015010920004+69650+018933FM-12+011599999V0202001N005019999999N999999999-00231-00501098871ADDAA101000091MA1999999097461MD1810021+9999REMSYN05801026 26/// /2005 11023 21050 39746 49887 58002 333 60005=
0224010260999992015010921004+69650+018933FM-12+011599999V0202001N007019999999N045000199-00261-00511098871ADDAA101000091AY121021AY221021GA1051+008001081GA2999+999999031GE19MSL   +99999+99999GF107991051999008001999999MA1999999097451MD1710041+9999MW1151REMSYN07001026 21583 72007 11026 21051 39745 49887 57004 71522 8587/ 333 60005=
0110010260999992015010922004+69650+018933FM-12+011599999V0201901N008019999999N999999999-00311-00621098881ADDAA101000091MA1999999097461MD1510021+9999REMSYN05801026 26/// /1908 11031 21062 39746 49888 55002 333 60005=
0129010260999992015010923004+69650+018933FM-12+011599999V0201901N007019999999N999999999-00341-00611098861ADDAA101000131MA1999999097441MD1790019+9999REMSYN05801026 26/// /1907 11034 21061 39744 49886 54001 333 69915=EQDQ01.1    3APC3  
0263010260999992015011000004+69650+018933FM-12+011599999V0202001N008019999999N006000199-00411-00551098871ADDAA101000131AY171021AY221021GA1071+008001081GA2999+999999031GE19MSL   +99999+99999GF108991071999008001999999MA1999999097451MD1410009+9999MW1701OD139901301999REMSYN07601026 21556 82008 11041 21055 39745 49887 54001 77072 8787/ 333 69915 91113=EQDQ01.1    3APC3  
0110010260999992015011001004+69650+018933FM-12+011599999V0201901N008019999999N999999999-00471-00561098891ADDAA101000131MA1999999097461MD1510001+9999REMSYN05801026 26/// /1908 11047 21056 39746 49889 55000 333 69915=
0110010260999992015011002004+69650+018933FM-12+011599999V0202001N008019999999N999999999-00461-00561098881ADDAA101000231MA1999999097451MD1210011+9999REMSYN05801026 26/// /2008 11046 21056 39745 49888 52001 333 69925=
0224010260999992015011003004+69650+018933FM-12+011599999V0201901N010019999999N003500199-00481-00621098881ADDAA101000331AY171021AY221021GA1061+008001061GA2999+999999031GE19MSL   +99999+99999GF108991061999008001999999MA1999999097451MD1410001+9999MW1711REMSYN07001026 21535 81910 11048 21062 39745 49888 54000 77172 8657/ 333 69935=
0110010260999992015011004004+69650+018933FM-12+011599999V0201901N009019999999N999999999-00471-00661098851ADDAA101000131MA1999999097421MD1810041+9999REMSYN05801026 26/// /1909 11047 21066 39742 49885 58004 333 69915=
0110010260999992015011005004+69650+018933FM-12+011599999V0201901N010019999999N999999999-00421-00741098841ADDAA101000091MA1999999097421MD1710031+9999REMSYN05801026 26/// /1910 11042 21074 39742 49884 57003 333 60005=
0249010260999992015011006004+69650+018933FM-12+011599999V0201901N01001002401CN000800199-00501-00691098891ADDAA112000531AA224004231AJ100303100300099AY171021AY221021GF109991999999999999999999IA1239KA1240N-00501MA1999999097461MD1510011+9999MW1731OD139901701999REMSYN08801026 11/08 91910 11050 21069 39746 49889 55001 69952 77372 333 21050 47030 70042 91117=
0110010260999992015011007004+69650+018933FM-12+011599999V0201901N009019999999N999999999-00521-00731098901ADDAA101000231MA1999999097471MD1310051+9999REMSYN05801026 26/// /1909 11052 21073 39747 49890 53005 333 69925=
0110010260999992015011008004+69650+018933FM-12+011599999V0201901N010019999999N999999999-00591-00701098901ADDAA101000231MA1999999097471MD1210061+9999REMSYN05801026 26/// /1910 11059 21070 39747 49890 52006 333 69925=
0183010260999992015011009004+69650+018933FM-12+011599999V0201901N00901002401CN001000199-00541-00751098891ADDAA101000431AY171021AY271021GF109991999999999999999999MA1999999097461MD1410009+9999MW1731REMSYN06401026 21/10 91909 11054 21075 39746 49889 54001 77377 333 69945=EQDQ01.1    3APC3  
0110010260999992015011010004+69650+018933FM-12+011599999V0201901N009019999999N999999999-00541-00931098881ADDAA101000131MA1999999097451MD1710021+9999REMSYN05801026 26/// /1909 11054 21093 39745 49888 57002 333 69915=
0110010260999992015011011004+69650+018933FM-12+011599999V0202001N009019999999N999999999-00581-01011098871ADDAA101000131MA1999999097441MD1710041+9999REMSYN05801026 26/// /2009 11058 21101 39744 49887 57004 333 69915=
0260010260999992015011012004+69650+018933FM-12+011599999V0202001N008019999999N065000199-00631-01061098861ADDAA101000091AY171021AY231021GA1021+012501061GA2999+999999031GA3999+999999021GE19MSL   +99999+99999GF107991021999012501999999MA1999999097421MD1710041+9999MW1021OD139901701999REMSYN07601026 21687 72008 11063 21106 39742 49886 57004 70273 82578 333 60005 91117=
0110010260999992015011013004+69650+018933FM-12+011599999V0202001N009019999999N999999999-00711-01101098841ADDAA101000091MA1999999097401MD1710051+9999REMSYN05801026 26/// /2009 11071 21110 39740 49884 57005 333 60005=
0110010260999992015011014004+69650+018933FM-12+011599999V0202101N009019999999N999999999-00811-01221098881ADDAA101000091MA1999999097431MD1510001+9999REMSYN05801026 26/// /2109 11081 21122 39743 49888 55000 333 60005=
0259010260999992015011015004+69650+018933FM-12+011599999V0202101N009019999999N065000199-00781-01161098871ADDAA101000091AY121021AY211021GA1011+012501061GA2999+999999031GA3999+999999021GE19MSL   +99999+99999GF102991011999012501999999MA1999999097431MD1290019+9999MW1021REMSYN07001026 21687 22109 11078 21116 39743 49887 54001 70221 81548 333 60005=EQDQ01.1    3APC3  
0110010260999992015011016004+69650+018933FM-12+011599999V0201901N008019999999N999999999-00821-01151098881ADDAA101000091MA1999999097431MD1990031+9999REMSYN05801026 26/// /1908 11082 21115 39743 49888 50003 333 60005=
0110010260999992015011017004+69650+018933FM-12+011599999V0201801N006019999999N999999999-00801-01171098941ADDAA101000091MA1999999097491MD1310051+9999REMSYN05801026 26/// /1806 11080 21117 39749 49894 53005 333 60005=
0263010260999992015011018004+69650+018933FM-12+011599999V0201901N006019999999N070000199-00801-01161098971ADDAA112000331AY121021AY201021GA1011+012501061GA2999+999999031GE19MSL   +99999+99999GF101991011999012501999999KA1120M-00501MA1999999097521MD1310101+9999MW1021OD139901701999REMSYN08201026 11688 11906 11080 21116 39752 49897 53010 69932 70220 81540 333 11050 91117=
0110010260999992015011019004+69650+018933FM-12+011599999V0202001N006019999999N999999999-00791-01211099001ADDAA101000091MA1999999097551MD1110121+9999REMSYN05801026 26/// /2006 11079 21121 39755 49900 51012 333 60005=
0110010260999992015011020004+69650+018933FM-12+011599999V0201901N005019999999N999999999-00771-01251099041ADDAA101000091MA1999999097591MD1210091+9999REMSYN05801026 26/// /1905 11077 21125 39759 49904 52009 333 60005=
0224010260999992015011021004+69650+018933FM-12+011599999V0202001N005019999999N070000199-00791-01291099081ADDAA101000091AY101021AY201021GA1011+012501061GA2999+999999031GE19MSL   +99999+99999GF101991011999012501999999MA1999999097631MD1310101+9999MW1021REMSYN07001026 21688 12005 11079 21129 39763 49908 53010 70200 81540 333 60005=
0110010260999992015011022004+69650+018933FM-12+011599999V0202101N004019999999N999999999-00811-01361099111ADDAA101000091MA1999999097661MD1210121+9999REMSYN05801026 26/// /2104 11081 21136 39766 49911 52012 333 60005=
0110010260999992015011023004+69650+018933FM-12+011599999V0201901N005019999999N999999999-00841-01351099151ADDAA101000091MA1999999097701MD1210111+9999REMSYN05801026 26/// /1905 11084 21135 39770 49915 52011 333 60005=
0244010260999992015011100004+69650+018933FM-12+011599999V0201901N006019999999N070001199-00891-01411099161ADDAA101000091AY101021AY201021GA1011+012501061GA2999+999999031GE19MSL   +99999+99999GF101991011999012501999999MA1999999097711MD1210071+9999MW1021OD139901001999REMSYN07601026 21689 11906 11089 21141 39771 49916 52007 70200 81540 333 60005 91110=
0110010260999992015011101004+69650+018933FM-12+011599999V0201901N006019999999N999999999-00871-01371099221ADDAA101000091MA1999999097771MD1310111+9999REMSYN05801026 26/// /1906 11087 21137 39777 49922 53011 333 60005=
0110010260999992015011102004+69650+018933FM-12+011599999V0202001N005019999999N999999999-00881-01421099241ADDAA101000091MA1999999097791MD1310081+9999REMSYN05801026 26/// /2005 11088 21142 39779 49924 53008 333 60005=
0224010260999992015011103004+69650+018933FM-12+011599999V0201801N004019999999N070001199-00871-01391099231ADDAA101000091AY101021AY201021GA1011+022501031GA2999+999999021GE19MSL   +99999+99999GF102991011999022501999999MA1999999097781MD1110071+9999MW1021REMSYN07001026 21889 21804 11087 21139 39778 49923 51007 70200 81048 333 60005=
0110010260999992015011104004+69650+018933FM-12+011599999V0202001N004019999999N999999999-00871-01401099261ADDAA101000091MA1999999097811MD1310051+9999REMSYN05801026 26/// /2004 11087 21140 39781 49926 53005 333 60005=
0110010260999992015011105004+69650+018933FM-12+011599999V0202101N007019999999N999999999-00871-01371099261ADDAA101000091MA1999999097811MD1990021+9999REMSYN05801026 26/// /2107 11087 21137 39781 49926 50002 333 60005=
0309010260999992015011106004+69650+018933FM-12+011599999V0202001N005019999999N070000199-00901-01471099291ADDAA112000091AA224000331AJ100253100250099AY101021AY201021GA1011+022501031GA2999+999999021GE19MSL   +99999+99999GF101991011999022501999999IA1239KA1240N-00991MA1999999097831MD1110051+9999MW1021OD139901101999REMSYN09401026 11888 12005 11090 21147 39783 49929 51005 60002 70200 81048 333 21099 47025 70003 91111=
0110010260999992015011107004+69650+018933FM-12+011599999V0201801N003019999999N999999999-00861-01451099321ADDAA101000091MA1999999097871MD1310061+9999REMSYN05801026 26/// /1803 11086 21145 39787 49932 53006 333 60005=
0110010260999992015011108004+69650+018933FM-12+011599999V0201801N002019999999N999999999-00911-01471099361ADDAA101000091MA1999999097901MD1210091+9999REMSYN05801026 26/// /1802 11091 21147 39790 49936 52009 333 60005=
0224010260999992015011109004+69650+018933FM-12+011599999V0201901N004019999999N070001199-00911-01501099391ADDAA101000091AY101021AY201021GA1011+022501031GA2999+999999021GE19MSL   +99999+99999GF101991011999022501999999MA1999999097931MD1210101+9999MW1021REMSYN07001026 21889 11904 11091 21150 39793 49939 52010 70200 81048 333 60005=
0110010260999992015011110004+69650+018933FM-12+011599999V0201901N005019999999N999999999-00931-01561099451ADDAA101000091MA1999999097991MD1210121+9999REMSYN05801026 26/// /1905 11093 21156 39799 49945 52012 333 60005=
0110010260999992015011111004+69650+018933FM-12+011599999V0201901N004019999999N999999999-00971-01551099471ADDAA101000091MA1999999098011MD1110111+9999REMSYN05801026 26/// /1904 11097 21155 39801 49947 51011 333 60005=
0247010260999992015011112004+69650+018933FM-12+011599999V0202101N003019999999N070001199-00971-01601099511ADDAA101000091AY101021AY201021GA1999+999999021GE19MSL   +99999+99999GF101991001999999999999999MA1999999098051MD1210121+9999MW1021OD139900901999REMSYN07601026 21989 12103 11097 21160 39805 49951 52012 70200 80008 333 60005 91109=EQDQ01    003SCCGA1
0110010260999992015011113004+69650+018933FM-12+011599999V0201901N004019999999N999999999-01011-01601099561ADDAA101000091MA1999999098091MD1310101+9999REMSYN05801026 26/// /1904 11101 21160 39809 49956 53010 333 60005=
0110010260999992015011114004+69650+018933FM-12+011599999V0202001N003019999999N999999999-01001-01641099611ADDAA101000091MA1999999098141MD1210141+9999REMSYN05801026 26/// /2003 11100 21164 39814 49961 52014 333 60005=
0227010260999992015011115004+69650+018933FM-12+011599999V0201901N004019999999N070000199-01031-01641099631ADDAA101000091AY101021AY201021GA1999+999999021GE19MSL   +99999+99999GF101991001999999999999999MA1999999098161MD1210111+9999MW1021REMSYN07001026 21988 11904 11103 21164 39816 49963 52011 70200 80008 333 60005=EQDQ01    003SCCGA1
0110010260999992015011116004+69650+018933FM-12+011599999V0201801N004019999999N999999999-01041-01671099671ADDAA101000091MA1999999098201MD1210101+9999REMSYN05801026 26/// /1804 11104 21167 39820 49967 52010 333 60005=
0110010260999992015011117004+69650+018933FM-12+011599999V0201801N003019999999N999999999-01071-01731099691ADDAA101000091MA1999999098221MD1210081+9999REMSYN05801026 26/// /1803 11107 21173 39822 49969 52008 333 60005=
0177010260999992015011118004+69650+018933FM-12+011599999V0201601N002019999999N070000199-01171-01691099731ADDAA112000091AY101021AY201021KA1120M-00841MA1999999098251MD1210091+9999MW1021OD139900901999REMSYN07601026 11988 01602 11117 21169 39825 49973 52009 60002 70200 333 11084 91109=
0110010260999992015011119004+69650+018933FM-12+011599999V0200401N001019999999N999999999-01181-01721099731ADDAA101000091MA1999999098251MD1210061+9999REMSYN05801026 26/// /0401 11118 21172 39825 49973 52006 333 60005=
0110010260999992015011120004+69650+018933FM-12+011599999V0200901N002019999999N999999999-01211-01651099741ADDAA101000091MA1999999098261MD1210041+9999REMSYN05801026 26/// /0902 11121 21165 39826 49974 52004 333 60005=
0138010260999992015011121004+69650+018933FM-12+011599999V0200801N002019999999N070000199-01111-01551099751ADDAA101000091AY101021AY201021MA1999999098281MD1210031+9999MW1021REMSYN06401026 21988 00802 11111 21155 39828 49975 52003 70200 333 60005=
0110010260999992015011122004+69650+018933FM-12+011599999V0200501N001019999999N999999999-01161-01511099791ADDAA101000091MA1999999098311MD1210051+9999REMSYN05801026 26/// /0501 11116 21151 39831 49979 52005 333 60005=
0110010260999992015011123004+69650+018933FM-12+011599999V0200701N002019999999N999999999-01161-01641099811ADDAA101000091MA1999999098331MD1210071+9999REMSYN05801026 26/// /0702 11116 21164 39833 49981 52007 333 60005=
0158010260999992015011200004+69650+018933FM-12+011599999V0200701N002019999999N070001199-01141-01741099801ADDAA101000091AY101021AY201021MA1999999098321MD1990041+9999MW1021OD139900301999REMSYN07001026 21989 00702 11114 21174 39832 49980 50004 70200 333 60005 91103=
0110010260999992015011201004+69650+018933FM-12+011599999V0200101N002019999999N999999999-01231-01641099791ADDAA101000091MA1999999098311MD1410001+9999REMSYN05801026 26/// /0102 11123 21164 39831 49979 54000 333 60005=
0110010260999992015011202004+69650+018933FM-12+011599999V0200901N001019999999N999999999-01111-01681099761ADDAA101000091MA1999999098291MD1710031+9999REMSYN05801026 26/// /0901 11111 21168 39829 49976 57003 333 60005=
0138010260999992015011203004+69650+018933FM-12+011599999V0201901N003019999999N070001199-01161-01701099751ADDAA101000091AY101021AY201021MA1999999098271MD1710051+9999MW1021REMSYN06401026 21989 01903 11116 21170 39827 49975 57005 70200 333 60005=
0110010260999992015011204004+69650+018933FM-12+011599999V0200801N002019999999N999999999-01141-01641099731ADDAA101000091MA1999999098251MD1710061+9999REMSYN05801026 26/// /0802 11114 21164 39825 49973 57006 333 60005=
0110010260999992015011205004+69650+018933FM-12+011599999V0200701N001019999999N999999999-01201-01631099691ADDAA101000091MA1999999098211MD1710091+9999REMSYN05801026 26/// /0701 11120 21163 39821 49969 57009 333 60005=
0223010260999992015011206004+69650+018933FM-12+011599999V0202201N002019999999N070001199-01141-01661099651ADDAA112000091AA224000091AJ100253100250099AY101021AY201021IA1239KA1240N-01291MA1999999098181MD1710081+9999MW1021OD139900401999REMSYN08801026 11989 02202 11114 21166 39818 49965 57008 60002 70200 333 21129 47025 70000 91104=
0110010260999992015011207004+69650+018933FM-12+011599999V0202001N001019999999N999999999-01171-01661099621ADDAA101000091MA1999999098141MD1710101+9999REMSYN05801026 26/// /2001 11117 21166 39814 49962 57010 333 60005=
0110010260999992015011208004+69650+018933FM-12+011599999V0201501N001019999999N999999999-01081-02021099601ADDAA101000091MA1999999098131MD1710081+9999REMSYN05801026 26/// /1501 11108 21202 39813 49960 57008 333 60005=
0224010260999992015011209004+69650+018933FM-12+011599999V0201901N003019999999N070001199-01031-01871099591ADDAA101000091AY101021AY201021GA1011+012501081GA2999+999999001GE19MSL   +99999+99999GF101991011999012501999999MA1999999098121MD1610071+9999MW1021REMSYN07001026 21689 11903 11103 21187 39812 49959 56007 70200 81101 333 60005=
0110010260999992015011210004+69650+018933FM-12+011599999V0201901N002019999999N999999999-01101-01781099541ADDAA101000091MA1999999098071MD1810071+9999REMSYN05801026 26/// /1902 11110 21178 39807 49954 58007 333 60005=
0110010260999992015011211004+69650+018933FM-12+011599999V0201701N001019999999N999999999-01131-01801099471ADDAA101000091MA1999999098001MD1810131+9999REMSYN05801026 26/// /1701 11113 21180 39800 49947 58013 333 60005=
0244010260999992015011212004+69650+018933FM-12+011599999V0200801N002019999999N070001199-01101-01751099411ADDAA101000091AY101021AY201021GA1011+012501081GA2999+999999031GE19MSL   +99999+99999GF101991011999012501999999MA1999999097941MD1710171+9999MW1021OD139900501999REMSYN07601026 21689 10802 11110 21175 39794 49941 57017 70200 81140 333 60005 91105=
0110010260999992015011213004+69650+018933FM-12+011599999V0200801N002019999999N999999999-01241-01661099381ADDAA101000091MA1999999097901MD1610171+9999REMSYN05801026 26/// /0802 11124 21166 39790 49938 56017 333 60005=
0110010260999992015011214004+69650+018933FM-12+011599999V0200401N002019999999N999999999-01101-01601099271ADDAA101000091MA1999999097801MD1810191+9999REMSYN05801026 26/// /0402 11110 21160 39780 49927 58019 333 60005=
0138010260999992015011215004+69650+018933FM-12+011599999V0201101N002019999999N070001199-01131-01611099211ADDAA101000091AY101021AY201021MA1999999097741MD1810211+9999MW1021REMSYN06401026 21989 01102 11113 21161 39774 49921 58021 70200 333 60005=
0110010260999992015011216004+69650+018933FM-12+011599999V0201801N002019999999N999999999-00981-01871099121ADDAA101000091MA1999999097661MD1710241+9999REMSYN05801026 26/// /1802 11098 21187 39766 49912 57024 333 60005=
0110010260999992015011217004+69650+018933FM-12+011599999V0201601N004019999999N999999999-00821-02011099011ADDAA101000091MA1999999097561MD1710251+9999REMSYN05801026 26/// /1604 11082 21201 39756 49901 57025 333 60005=
0177010260999992015011218004+69650+018933FM-12+011599999V0201901N005019999999N070001199-00881-01691098971ADDAA112000091AY101021AY201021KA1120M-00771MA1999999097521MD1610211+9999MW1021OD139901101999REMSYN07601026 11989 01905 11088 21169 39752 49897 56021 60002 70200 333 11077 91111=
0110010260999992015011219004+69650+018933FM-12+011599999V0201901N005019999999N999999999-00921-01631098921ADDAA101000091MA1999999097471MD1610181+9999REMSYN05801026 26/// /1905 11092 21163 39747 49892 56018 333 60005=
0110010260999992015011220004+69650+018933FM-12+011599999V0200801N002019999999N999999999-00981-01881098881ADDAA101000091MA1999999097431MD1710121+9999REMSYN05801026 26/// /0802 11098 21188 39743 49888 57012 333 60005=
0138010260999992015011221004+69650+018933FM-12+011599999V0201801N003019999999N070001199-01001-01891098851ADDAA101000091AY101021AY201021MA1999999097391MD1710131+9999MW1021REMSYN06401026 21989 01803 11100 21189 39739 49885 57013 70200 333 60005=
0110010260999992015011222004+69650+018933FM-12+011599999V0202001N004019999999N999999999-01041-01691098771ADDAA101000091MA1999999097311MD1810151+9999REMSYN05801026 26/// /2004 11104 21169 39731 49877 58015 333 60005=
0110010260999992015011223004+69650+018933FM-12+011599999V0201601N001019999999N999999999-01111-01831098741ADDAA101000091MA1999999097281MD1810161+9999REMSYN05801026 26/// /1601 11111 21183 39728 49874 58016 333 60005=
0158010260999992015011300004+69650+018933FM-12+011599999V0200301N002019999999N070001199-01291-01891098661ADDAA101000091AY101021AY201021MA1999999097191MD1710201+9999MW1021OD139901201999REMSYN07001026 21989 00302 11129 21189 39719 49866 57020 70200 333 60005 91112=
0110010260999992015011301004+69650+018933FM-12+011599999V0201901N001019999999N999999999-01171-01971098571ADDAA101000091MA1999999097111MD1810201+9999REMSYN05801026 26/// /1901 11117 21197 39711 49857 58020 333 60005=
0110010260999992015011302004+69650+018933FM-12+011599999V0201801N003019999999N999999999-01071-01711098491ADDAA101000091MA1999999097041MD1710241+9999REMSYN05801026 26/// /1803 11107 21171 39704 49849 57024 333 60005=
0224010260999992015011303004+69650+018933FM-12+011599999V0202001N006019999999N070001199-01041-01571098411ADDAA101000091AY101021AY201021GA1011+017501081GA2999+999999031GE19MSL   +99999+99999GF102991011999017501999999MA1999999096961MD1710221+9999MW1031REMSYN07001026 21789 22006 11104 21157 39696 49841 57022 70300 81140 333 60005=
0110010260999992015011304004+69650+018933FM-12+011599999V0201901N006019999999N999999999-01021-01571098341ADDAA101000091MA1999999096891MD1710221+9999REMSYN05801026 26/// /1906 11102 21157 39689 49834 57022 333 60005=
0110010260999992015011305004+69650+018933FM-12+011599999V0202101N007019999999N999999999-00961-01521098251ADDAA101000091MA1999999096811MD1810231+9999REMSYN05801026 26/// /2107 11096 21152 39681 49825 58023 333 60005=
0309010260999992015011306004+69650+018933FM-12+011599999V0201901N008019999999N070001199-01051-01471098161ADDAA112000091AA224000091AJ100253100250099AY101021AY201021GA1011+008001081GA2999+999999031GE19MSL   +99999+99999GF103991011999008001999999IA1239KA1240N-01321MA1999999096711MD1810241+9999MW1031OD139901401999REMSYN09401026 11589 31908 11105 21147 39671 49816 58024 60002 70300 8114/ 333 21132 47025 70000 91114=
0110010260999992015011307004+69650+018933FM-12+011599999V0201601N003019999999N999999999-00901-01481098051ADDAA101000091MA1999999096611MD1810271+9999REMSYN05801026 26/// /1603 11090 21148 39661 49805 58027 333 60005=
0110010260999992015011308004+69650+018933FM-12+011599999V0201801N006019999999N999999999-00861-01331097981ADDAA101000091MA1999999096551MD1710261+9999REMSYN05801026 26/// /1806 11086 21133 39655 49798 57026 333 60005=
0240010260999992015011309004+69650+018933FM-12+011599999V0201901N007019999999N070000199-00871-01311097891ADDAA101000091AY111021AY201021GA1011+008001081GA2999+999999031GA3999+999999021GE19MSL   +99999+99999GF104991011999008001999999MA1999999096461MD1810251+9999MW1021REMSYN07001026 21588 41907 11087 21131 39646 49789 58025 70210 81147 333 60005=
0110010260999992015011310004+69650+018933FM-12+011599999V0201901N005019999999N999999999-00741-01191097801ADDAA101000091MA1999999096371MD1810251+9999REMSYN05801026 26/// /1905 11074 21119 39637 49780 58025 333 60005=
0110010260999992015011311004+69650+018933FM-12+011599999V0201601N004019999999N999999999-00591-01361097701ADDAA101000091MA1999999096281MD1810271+9999REMSYN05801026 26/// /1604 11059 21136 39628 49770 58027 333 60005=
0244010260999992015011312004+69650+018933FM-12+011599999V0201901N006019999999N070000199-00631-01141097621ADDAA101000091AY121021AY211021GA1061+012501061GA2999+999999031GE19MSL   +99999+99999GF107991061999012501999999MA1999999096201MD1710251+9999MW1031OD139901301999REMSYN07601026 21688 71906 11063 21114 39620 49762 57025 70321 8657/ 333 60005 91113=
0110010260999992015011313004+69650+018933FM-12+011599999V0201901N004019999999N999999999-00621-01201097561ADDAA101000091MA1999999096141MD1710221+9999REMSYN05801026 26/// /1904 11062 21120 39614 49756 57022 333 60005=
0110010260999992015011314004+69650+018933FM-12+011599999V0201901N009019999999N999999999-00781-01211097481ADDAA101000091MA1999999096061MD1710221+9999REMSYN05801026 26/// /1909 11078 21121 39606 49748 57022 333 60005=
0208010260999992015011315004+69650+018933FM-12+011599999V0201901N008019999999N070000199-00741-01201097451ADDAA101000091AY121021AY201021GA1041+012501061GE19MSL   +99999+99999GF104991041999012501999999MA1999999096031MD1610181+9999MW1021REMSYN07001026 21688 41908 11074 21120 39603 49745 56018 70220 84500 333 60005=
0110010260999992015011316004+69650+018933FM-12+011599999V0201901N008019999999N999999999-00711-01091097351ADDAA101000091MA1999999095931MD1810201+9999REMSYN05801026 26/// /1908 11071 21109 39593 49735 58020 333 60005=
0110010260999992015011317004+69650+018933FM-12+011599999V0202001N006019999999N999999999-00591-01131097231ADDAA101000091MA1999999095821MD1810251+9999REMSYN05801026 26/// /2006 11059 21113 39582 49723 58025 333 60005=
0247010260999992015011318004+69650+018933FM-12+011599999V0201901N010019999999N060000199-00661-01071097201ADDAA112000091AY171021AY211021GA1081+012501061GE19MSL   +99999+99999GF108991081999012501999999KA1120M-00561MA1999999095791MD1610251+9999MW1021OD139901701999REMSYN08201026 11686 81910 11066 21107 39579 49720 56025 60002 70271 885// 333 11056 91117=
0110010260999992015011319004+69650+018933FM-12+011599999V0201901N010019999999N999999999-00611-01021097211ADDAA101000091MA1999999095801MD1610141+9999REMSYN05801026 26/// /1910 11061 21102 39580 49721 56014 333 60005=
0110010260999992015011320004+69650+018933FM-12+011599999V0201901N007019999999N999999999-00561-01061097191ADDAA101000091MA1999999095781MD1710041+9999REMSYN05801026 26/// /1907 11056 21106 39578 49719 57004 333 60005=
0224010260999992015011321004+69650+018933FM-12+011599999V0201901N010019999999N070000199-00571-01031097191ADDAA101000091AY121021AY221021GA1061+012501061GA2999+999999031GE19MSL   +99999+99999GF108991061999012501999999MA1999999095781MD1510011+9999MW1021REMSYN07001026 21688 81910 11057 21103 39578 49719 55001 70222 8657/ 333 60005=
0110010260999992015011322004+69650+018933FM-12+011599999V0202001N006019999999N999999999-00511-00971097231ADDAA101000091MA1999999095821MD1310021+9999REMSYN05801026 26/// /2006 11051 21097 39582 49723 53002 333 60005=
0110010260999992015011323004+69650+018933FM-12+011599999V0201901N005019999999N999999999-00451-00951097251ADDAA101000091MA1999999095851MD1310081+9999REMSYN05801026 26/// /1905 11045 21095 39585 49725 53008 333 60005=
0244010260999992015011400004+69650+018933FM-12+011599999V0202001N007019999999N070000199-00461-00961097311ADDAA101000091AY121021AY221021GA1071+022501031GA2999+999999021GE19MSL   +99999+99999GF108991071999022501999999MA1999999095911MD1210121+9999MW1021OD139901801999REMSYN07601026 21888 82007 11046 21096 39591 49731 52012 70222 87077 333 60005 91118=
0110010260999992015011401004+69650+018933FM-12+011599999V0202001N009019999999N999999999-00451-00961097301ADDAA101000091MA1999999095901MD1990081+9999REMSYN05801026 26/// /2009 11045 21096 39590 49730 50008 333 60005=
0110010260999992015011402004+69650+018933FM-12+011599999V0201901N008019999999N999999999-00391-00821097381ADDAA101000091MA1999999095981MD1310121+9999REMSYN05801026 26/// /1908 11039 21082 39598 49738 53012 333 60005=
0224010260999992015011403004+69650+018933FM-12+011599999V0202001N008019999999N070000199-00301-00831097411ADDAA101000091AY121021AY221021GA1061+022501031GA2999+999999021GE19MSL   +99999+99999GF107991061999022501999999MA1999999096011MD1310101+9999MW1021REMSYN07001026 21888 72008 11030 21083 39601 49741 53010 70222 86077 333 60005=
0110010260999992015011404004+69650+018933FM-12+011599999V0201901N008019999999N999999999-00271-00821097401ADDAA101000091MA1999999096001MD1990101+9999REMSYN05801026 26/// /1908 11027 21082 39600 49740 50010 333 60005=
0110010260999992015011405004+69650+018933FM-12+011599999V0201901N007019999999N999999999-00291-00811097501ADDAA101000091MA1999999096101MD1310121+9999REMSYN05801026 26/// /1907 11029 21081 39610 49750 53012 333 60005=
0309010260999992015011406004+69650+018933FM-12+011599999V0202001N008019999999N070001199-00341-00811097571ADDAA112000091AA224000091AJ100253100250099AY121021AY221021GA1061+022501031GA2999+999999001GE19MSL   +99999+99999GF106991061999022501999999IA1239KA1240N-00691MA1999999096171MD1310151+9999MW1021OD139901501999REMSYN09401026 11889 62008 11034 21081 39617 49757 53015 60002 70222 86041 333 21069 47025 70000 91115=
0110010260999992015011407004+69650+018933FM-12+011599999V0201901N009019999999N999999999-00381-00881097581ADDAA101000091MA1999999096181MD1110181+9999REMSYN05801026 26/// /1909 11038 21088 39618 49758 51018 333 60005=
0110010260999992015011408004+69650+018933FM-12+011599999V0201901N009019999999N999999999-00401-00911097671ADDAA101000091MA1999999096261MD1310171+9999REMSYN05801026 26/// /1909 11040 21091 39626 49767 53017 333 60005=
0240010260999992015011409004+69650+018933FM-12+011599999V0201901N008019999999N070001199-00381-00891097771ADDAA101000091AY121021AY211021GA1021+012501061GA2999+999999031GA3999+999999001GE19MSL   +99999+99999GF104991021999012501999999MA1999999096361MD1310191+9999MW1011REMSYN07001026 21689 41908 11038 21089 39636 49777 53019 70121 82541 333 60005=
0110010260999992015011410004+69650+018933FM-12+011599999V0202001N005019999999N999999999-00411-00971097851ADDAA101000091MA1999999096441MD1110261+9999REMSYN05801026 26/// /2005 11041 21097 39644 49785 51026 333 60005=
0110010260999992015011411004+69650+018933FM-12+011599999V0202101N005019999999N999999999-00351-00921097911ADDAA101000091MA1999999096501MD1110241+9999REMSYN05801026 26/// /2105 11035 21092 39650 49791 51024 333 60005=
0260010260999992015011412004+69650+018933FM-12+011599999V0201901N006019999999N070001199-00371-00911097981ADDAA101000091AY121021AY211021GA1031+012501061GA2999+999999031GA3999+999999021GE19MSL   +99999+99999GF105991031999012501999999MA1999999096571MD1110201+9999MW1021OD139901601999REMSYN07601026 21689 51906 11037 21091 39657 49798 51020 70221 83578 333 60005 91116=
0110010260999992015011413004+69650+018933FM-12+011599999V0201901N007019999999N999999999-00381-00921098011ADDAA101000091MA1999999096601MD1110171+9999REMSYN05801026 26/// /1907 11038 21092 39660 49801 51017 333 60005=
0110010260999992015011414004+69650+018933FM-12+011599999V0202001N006019999999N999999999-00391-00971098061ADDAA101000091MA1999999096651MD1210141+9999REMSYN05801026 26/// /2006 11039 21097 39665 49806 52014 333 60005=
0224010260999992015011415004+69650+018933FM-12+011599999V0202001N005019999999N070001199-00391-00941098081ADDAA101000091AY111021AY201021GA1011+012501061GA2999+999999031GE19MSL   +99999+99999GF106991011999012501999999MA1999999096671MD1210111+9999MW1021REMSYN07001026 21689 62005 11039 21094 39667 49808 52011 70210 81540 333 60005=
0110010260999992015011416004+69650+018933FM-12+011599999V0201801N001019999999N999999999-00501-00931098111ADDAA101000091MA1999999096691MD1110081+9999REMSYN05801026 26/// /1801 11050 21093 39669 49811 51008 333 60005=
0110010260999992015011417004+69650+018933FM-12+011599999V0201801N001019999999N999999999-00571-00991098141ADDAA101000091MA1999999096721MD1210081+9999REMSYN05801026 26/// /1801 11057 21099 39672 49814 52008 333 60005=
0177010260999992015011418004+69650+018933FM-12+011599999V0200901N001019999999N070000199-00541-00971098181ADDAA112000091AY101021AY201021KA1120M-00331MA1999999096761MD1210081+9999MW1021OD139901101999REMSYN07601026 11988 00901 11054 21097 39676 49818 52008 60002 70200 333 11033 91111=
0110010260999992015011419004+69650+018933FM-12+011599999V0201801N005019999999N999999999-00411-00951098231ADDAA101000091MA1999999096821MD1310131+9999REMSYN05801026 26/// /1805 11041 21095 39682 49823 53013 333 60005=
0110010260999992015011420004+69650+018933FM-12+011599999V0201801N005019999999N999999999-00391-00931098281ADDAA101000091MA1999999096871MD1310141+9999REMSYN05801026 26/// /1805 11039 21093 39687 49828 53014 333 60005=
0138010260999992015011421004+69650+018933FM-12+011599999V0201701N003019999999N070000199-00451-00831098331ADDAA101000091AY101021AY201021MA1999999096911MD1210151+9999MW1021REMSYN06401026 21988 01703 11045 21083 39691 49833 52015 70200 333 60005=
0110010260999992015011422004+69650+018933FM-12+011599999V0202001N005019999999N999999999-00401-00891098391ADDAA101000091MA1999999096971MD1210151+9999REMSYN05801026 26/// /2005 11040 21089 39697 49839 52015 333 60005=
0110010260999992015011423004+69650+018933FM-12+011599999V0202001N006019999999N999999999-00331-00931098431ADDAA101000091MA1999999097021MD1210151+9999REMSYN05801026 26/// /2006 11033 21093 39702 49843 52015 333 60005=
0247010260999992015011500004+69650+018933FM-12+011599999V0202001N005019999999N070000199-00421-00931098501ADDAA101000091AY101021AY201021GA1999+999999001GE19MSL   +99999+99999GF102991001999999999999999MA1999999097081MD1210161+9999MW1021OD139901101999REMSYN07601026 21988 22005 11042 21093 39708 49850 52016 70200 80001 333 60005 91111=EQDQ01    003SCCGA1
0110010260999992015011501004+69650+018933FM-12+011599999V0201901N005019999999N999999999-00421-00931098531ADDAA101000091MA1999999097111MD1210141+9999REMSYN05801026 26/// /1905 11042 21093 39711 49853 52014 333 60005=
0110010260999992015011502004+69650+018933FM-12+011599999V0202001N006019999999N999999999-00431-00961098591ADDAA101000091MA1999999097171MD1210151+9999REMSYN05801026 26/// /2006 11043 21096 39717 49859 52015 333 60005=
0138010260999992015011503004+69650+018933FM-12+011599999V0202001N005019999999N070000199-00451-00971098621ADDAA101000091AY101021AY201021MA1999999097201MD1210121+9999MW1021REMSYN06401026 21988 02005 11045 21097 39720 49862 52012 70200 333 60005=
0110010260999992015011504004+69650+018933FM-12+011599999V0202001N006019999999N999999999-00481-01011098651ADDAA101000091MA1999999097231MD1210111+9999REMSYN05801026 26/// /2006 11048 21101 39723 49865 52011 333 60005=
0110010260999992015011505004+69650+018933FM-12+011599999V0202001N005019999999N999999999-00531-01001098681ADDAA101000091MA1999999097251MD1210081+9999REMSYN05801026 26/// /2005 11053 21100 39725 49868 52008 333 60005=
0223010260999992015011506004+69650+018933FM-12+011599999V0202001N006019999999N070001199-00531-01001098741ADDAA112000091AA224000091AJ100253100250099AY101021AY201021IA1239KA1240N-00591MA1999999097311MD1210101+9999MW1021OD139901101999REMSYN08801026 11989 02006 11053 21100 39731 49874 52010 60002 70200 333 21059 47025 70000 91111=
0110010260999992015011507004+69650+018933FM-12+011599999V0202001N005019999999N999999999-00531-00991098771ADDAA101000091MA1999999097341MD1210121+9999REMSYN05801026 26/// /2005 11053 21099 39734 49877 52012 333 60005=
0110010260999992015011508004+69650+018933FM-12+011599999V0202001N005019999999N999999999-00551-01011098811ADDAA101000091MA1999999097381MD1210121+9999REMSYN05801026 26/// /2005 11055 21101 39738 49881 52012 333 60005=
0208010260999992015011509004+69650+018933FM-12+011599999V0202001N005019999999N070001199-00551-00971098851ADDAA101000091AY101021AY201021GA1011+012501081GE19MSL   +99999+99999GF101991011999012501999999MA1999999097421MD1210121+9999MW1021REMSYN07001026 21689 12005 11055 21097 39742 49885 52012 70200 81100 333 60005=
0110010260999992015011510004+69650+018933FM-12+011599999V0202001N005019999999N999999999-00561-00961098891ADDAA101000091MA1999999097461MD1210121+9999REMSYN05801026 26/// /2005 11056 21096 39746 49889 52012 333 60005=
0110010260999992015011511004+69650+018933FM-12+011599999V0202001N005019999999N999999999-00581-00981098931ADDAA101000091MA1999999097501MD1210121+9999REMSYN05801026 26/// /2005 11058 21098 39750 49893 52012 333 60005=
0228010260999992015011512004+69650+018933FM-12+011599999V0202001N005019999999N070001199-00581-00961098951ADDAA101000091AY101021AY201021GA1011+022501031GE19MSL   +99999+99999GF101991011999022501999999MA1999999097521MD1210091+9999MW1021OD139901001999REMSYN07601026 21889 12005 11058 21096 39752 49895 52009 70200 81030 333 60005 91110=
0110010260999992015011513004+69650+018933FM-12+011599999V0202001N004019999999N999999999-00601-00951098981ADDAA101000091MA1999999097541MD1210081+9999REMSYN05801026 26/// /2004 11060 21095 39754 49898 52008 333 60005=
0110010260999992015011514004+69650+018933FM-12+011599999V0202001N004019999999N999999999-00611-00931098981ADDAA101000091MA1999999097541MD1210041+9999REMSYN05801026 26/// /2004 11061 21093 39754 49898 52004 333 60005=
0227010260999992015011515004+69650+018933FM-12+011599999V0202001N003019999999N070001199-00691-01011098961ADDAA101000091AY101021AY201021GA1999+999999021GE19MSL   +99999+99999GF101991001999999999999999MA1999999097521MD1990011+9999MW1021REMSYN07001026 21989 12003 11069 21101 39752 49896 50001 70200 80008 333 60005=EQDQ01    003SCCGA1
0110010260999992015011516004+69650+018933FM-12+011599999V0202001N003019999999N999999999-00731-00981098951ADDAA101000091MA1999999097511MD1710031+9999REMSYN05801026 26/// /2003 11073 21098 39751 49895 57003 333 60005=
0110010260999992015011517004+69650+018933FM-12+011599999V0201801N002019999999N999999999-00801-00971098951ADDAA101000091MA1999999097501MD1710041+9999REMSYN05801026 26/// /1802 11080 21097 39750 49895 57004 333 60005=
0266010260999992015011518004+69650+018933FM-12+011599999V0202401N002019999999N070001199-00791-00931098911ADDAA112000091AY101021AY201021GA1999+999999021GE19MSL   +99999+99999GF101991001999999999999999KA1120M-00521MA1999999097471MD1710051+9999MW1021OD139900901999REMSYN08201026 11989 12402 11079 21093 39747 49891 57005 60002 70200 80008 333 11052 91109=EQDQ01    003SCCGA1
0110010260999992015011519004+69650+018933FM-12+011599999V0200201N001019999999N999999999-00881-01011098901ADDAA101000091MA1999999097451MD1710061+9999REMSYN05801026 26/// /0201 11088 21101 39745 49890 57006 333 60005=
0110010260999992015011520004+69650+018933FM-12+011599999V0200401N003019999999N999999999-00881-01061098831ADDAA101000091MA1999999097381MD1810121+9999REMSYN05801026 26/// /0403 11088 21106 39738 49883 58012 333 60005=
0227010260999992015011521004+69650+018933FM-12+011599999V0202401N002019999999N070000199-00841-00911098801ADDAA101000091AY101021AY201021GA1999+999999021GE19MSL   +99999+99999GF101991001999999999999999MA1999999097351MD1810121+9999MW1021REMSYN07001026 21988 12402 11084 21091 39735 49880 58012 70200 80008 333 60005=EQDQ01    003SCCGA1
0110010260999992015011522004+69650+018933FM-12+011599999V0200601N002019999999N999999999-00801-00901098701ADDAA101000091MA1999999097261MD1810191+9999REMSYN05801026 26/// /0602 11080 21090 39726 49870 58019 333 60005=
0110010260999992015011523004+69650+018933FM-12+011599999V0202701N002019999999N999999999-00771-00831098631ADDAA101000091MA1999999097191MD1810181+9999REMSYN05801026 26/// /2702 11077 21083 39719 49863 58018 333 60005=
0247010260999992015011600004+69650+018933FM-12+011599999V0200901N001019999999N070001199-00761-00851098531ADDAA101000091AY111021AY201021GA1999+999999021GE19MSL   +99999+99999GF106991001999999999999999MA1999999097091MD1810251+9999MW1021OD139900301999REMSYN07601026 21989 60901 11076 21085 39709 49853 58025 70210 80008 333 60005 91103=EQDQ01    003SCCGA1
0110010260999992015011601004+69650+018933FM-12+011599999V0202301N002019999999N999999999-00771-00871098441ADDAA101000091MA1999999097001MD1810251+9999REMSYN05801026 26/// /2302 11077 21087 39700 49844 58025 333 60005=
0110010260999992015011602004+69650+018933FM-12+011599999V0202101N001019999999N999999999-00681-00761098361ADDAA101000091MA1999999096931MD1710261+9999REMSYN05801026 26/// /2101 11068 21076 39693 49836 57026 333 60005=
0224010260999992015011603004+69650+018933FM-12+011599999V0203301N001019999999N070001199-00661-00791098251ADDAA101000091AY121021AY221021GA1011+022501031GA2999+999999021GE19MSL   +99999+99999GF107991011999022501999999MA1999999096821MD1710271+9999MW1031REMSYN07001026 21889 73301 11066 21079 39682 49825 57027 70322 81077 333 60005=
0110010260999992015011604004+69650+018933FM-12+011599999V0200501N002019999999N999999999-00611-00751098141ADDAA101000091MA1999999096721MD1810281+9999REMSYN05801026 26/// /0502 11061 21075 39672 49814 58028 333 60005=
0110010260999992015011605004+69650+018933FM-12+011599999V0200301N001019999999N999999999-00531-00731098061ADDAA101000091MA1999999096641MD1610291+9999REMSYN05801026 26/// /0301 11053 21073 39664 49806 56029 333 60005=
0325010260999992015011606004+69650+018933FM-12+011599999V0202201N002019999999N070001199-00401-00701097981ADDAA112000091AA224000091AJ100243100240099AY121021AY221021GA1021+017501061GA2999+999999031GA3999+999999021GE19MSL   +99999+99999GF108991021999017501999999IA1239KA1240N-00931MA1999999096571MD1610251+9999MW1021OD139900301999REMSYN09401026 11789 82202 11040 21070 39657 49798 56025 60002 70222 82578 333 21093 47024 70000 91103=
0110010260999992015011607004+69650+018933FM-12+011599999V0201201N002019999999N999999999-00371-00671097921ADDAA101000091MA1999999096511MD1710211+9999REMSYN05801026 26/// /1202 11037 21067 39651 49792 57021 333 60005=
0110010260999992015011608004+69650+018933FM-12+011599999V0201801N003019999999N999999999-00201-00591097891ADDAA101000091MA1999999096491MD1610151+9999REMSYN05801026 26/// /1803 11020 21059 39649 49789 56015 333 60005=
0224010260999992015011609004+69650+018933FM-12+011599999V0202001N004019999999N007000199-00231-00401097891ADDAA101000091AY171021AY221021GA1051+008001061GA2999+999999051GE19MSL   +99999+99999GF108991051999008001999999MA1999999096491MD1610081+9999MW1701REMSYN07001026 21557 82004 11023 21040 39649 49789 56008 77072 8552/ 333 60005=
0110010260999992015011610004+69650+018933FM-12+011599999V0202001N003019999999N999999999-00171-00491097821ADDAA101000091MA1999999096421MD1810091+9999REMSYN05801026 26/// /2003 11017 21049 39642 49782 58009 333 60005=
0110010260999992015011611004+69650+018933FM-12+011599999V0201701N001019999999N999999999-00141-00511097751ADDAA101000091MA1999999096361MD1810131+9999REMSYN05801026 26/// /1701 11014 21051 39636 49775 58013 333 60005=
0260010260999992015011612004+69650+018933FM-12+011599999V0200401N002019999999N070000199-00201-00411097731ADDAA101000091AY171021AY221021GA1031+012501061GA2999+999999031GA3999+999999021GE19MSL   +99999+99999GF106991031999012501999999MA1999999096331MD1710151+9999MW1021OD139901001999REMSYN07601026 21688 60402 11020 21041 39633 49773 57015 70272 83538 333 60005 91110=
0110010260999992015011613004+69650+018933FM-12+011599999V0200401N002019999999N999999999-00221-00441097691ADDAA101000091MA1999999096291MD1710131+9999REMSYN05801026 26/// /0402 11022 21044 39629 49769 57013 333 60005=
0110010260999992015011614004+69650+018933FM-12+011599999V0200801N001019999999N999999999-00391-00601097681ADDAA101000091MA1999999096271MD1710091+9999REMSYN05801026 26/// /0801 11039 21060 39627 49768 57009 333 60005=
0240010260999992015011615004+69650+018933FM-12+011599999V0200701N001019999999N070000199-00251-00501097701ADDAA101000091AY121021AY221021GA1041+012501061GA2999+999999031GA3999+999999021GE19MSL   +99999+99999GF105991041999012501999999MA1999999096301MD1510031+9999MW1021REMSYN07001026 21688 50701 11025 21050 39630 49770 55003 70222 84538 333 60005=
0110010260999992015011616004+69650+018933FM-12+011599999V0200401N002019999999N999999999-00331-00601097681ADDAA101000091MA1999999096281MD1410001+9999REMSYN05801026 26/// /0402 11033 21060 39628 49768 54000 333 60005=
0110010260999992015011617004+69650+018933FM-12+011599999V0200401N002019999999N999999999-00281-00591097671ADDAA101000091MA1999999096271MD1990001+9999REMSYN05801026 26/// /0402 11028 21059 39627 49767 50000 333 60005=
0279010260999992015011618004+69650+018933FM-12+011599999V0200401N003019999999N070000199-00221-00491097671ADDAA112000091AY121021AY221021GA1041+012501061GA2999+999999031GA3999+999999021GE19MSL   +99999+99999GF105991041999012501999999KA1120M-00141MA1999999096271MD1710031+9999MW1021OD139900401999REMSYN08201026 11688 50403 11022 21049 39627 49767 57003 60002 70222 84538 333 11014 91104=
0129010260999992015011619004+69650+018933FM-12+011599999V0200401N002019999999N999999999-00251-00511097671ADDAA101000091MA1999999096271MD1790019+9999REMSYN05801026 26/// /0402 11025 21051 39627 49767 54001 333 60005=EQDQ01.1    3APC3  
0110010260999992015011620004+69650+018933FM-12+011599999V0200401N002019999999N999999999-00221-00541097681ADDAA101000091MA1999999096281MD1210011+9999REMSYN05801026 26/// /0402 11022 21054 39628 49768 52001 333 60005=
0208010260999992015011621004+69650+018933FM-12+011599999V0200501N001019999999N070000199-00271-00561097721ADDAA101000091AY121021AY221021GA1061+008001061GE19MSL   +99999+99999GF106991061999008001999999MA1999999096321MD1310061+9999MW1021REMSYN07001026 21588 60501 11027 21056 39632 49772 53006 70222 86500 333 60005=
0110010260999992015011622004+69650+018933FM-12+011599999V0202201N001019999999N999999999-00261-00561097751ADDAA101000091MA1999999096351MD1210071+9999REMSYN05801026 26/// /2201 11026 21056 39635 49775 52007 333 60005=
0110010260999992015011623004+69650+018933FM-12+011599999V0200601N001019999999N999999999-00231-00561097771ADDAA101000091MA1999999096371MD1210091+9999REMSYN05801026 26/// /0601 11023 21056 39637 49777 52009 333 60005=
0228010260999992015011700004+69650+018933FM-12+011599999V0201801N001019999999N070000199-00241-00511097811ADDAA101000091AY121021AY221021GA1071+017501061GE19MSL   +99999+99999GF107991071999017501999999MA1999999096411MD1210091+9999MW1021OD139900401999REMSYN07601026 21788 71801 11024 21051 39641 49781 52009 70222 87500 333 60005 91104=
0110010260999992015011701004+69650+018933FM-12+011599999V0200501N001019999999N999999999-00231-00471097851ADDAA101000091MA1999999096451MD1210111+9999REMSYN05801026 26/// /0501 11023 21047 39645 49785 52011 333 60005=
0110010260999992015011702004+69650+018933FM-12+011599999V0200601N002019999999N999999999-00241-00591097891ADDAA101000091MA1999999096491MD1210121+9999REMSYN05801026 26/// /0602 11024 21059 39649 49789 52012 333 60005=
0208010260999992015011703004+69650+018933FM-12+011599999V0200501N002019999999N070000199-00241-00521097931ADDAA101000091AY121021AY221021GA1071+017501061GE19MSL   +99999+99999GF107991071999017501999999MA1999999096531MD1210131+9999MW1021REMSYN07001026 21788 70502 11024 21052 39653 49793 52013 70222 87500 333 60005=
0110010260999992015011704004+69650+018933FM-12+011599999V0200501N002019999999N999999999-00281-00501097981ADDAA101000091MA1999999096581MD1210131+9999REMSYN05801026 26/// /0502 11028 21050 39658 49798 52013 333 60005=
0110010260999992015011705004+69650+018933FM-12+011599999V0209999C999999999999N999999999-00241-00461098061ADDAA101000091MA1999999096661MD1210171+9999REMSYN05801026 26/// /0000 11024 21046 39666 49806 52017 333 60005=
0309010260999992015011706004+69650+018933FM-12+011599999V0201601N001019999999N070001199-00191-00501098131ADDAA112000091AA224000091AJ100243100240099AY121021AY221021GA1041+012501061GA2999+999999031GE19MSL   +99999+99999GF107991041999012501999999IA1239KA1240N-00311MA1999999096731MD1310201+9999MW1021OD139900301999REMSYN09401026 11689 71601 11019 21050 39673 49813 53020 60002 70222 8453/ 333 21031 47024 70000 91103=
0110010260999992015011707004+69650+018933FM-12+011599999V0201601N001019999999N999999999-00201-00421098221ADDAA101000091MA1999999096821MD1210231+9999REMSYN05801026 26/// /1601 11020 21042 39682 49822 52023 333 60005=
0110010260999992015011708004+69650+018933FM-12+011599999V0202301N002019999999N999999999-00351-00471098311ADDAA101000091MA1999999096901MD1210241+9999REMSYN05801026 26/// /2302 11035 21047 39690 49831 52024 333 60005=
0208010260999992015011709004+69650+018933FM-12+011599999V0202301N001019999999N070001199-00341-00431098421ADDAA101000091AY121021AY201021GA1011+012501061GE19MSL   +99999+99999GF101991011999012501999999MA1999999097011MD1210271+9999MW1011REMSYN07001026 21689 12301 11034 21043 39701 49842 52027 70120 81500 333 60005=
0110010260999992015011710004+69650+018933FM-12+011599999V0201401N001019999999N999999999-00361-00461098521ADDAA101000091MA1999999097101MD1210271+9999REMSYN05801026 26/// /1401 11036 21046 39710 49852 52027 333 60005=
0110010260999992015011711004+69650+018933FM-12+011599999V0200601N002019999999N999999999-00301-00601098621ADDAA101000091MA1999999097211MD1210311+9999REMSYN05801026 26/// /0602 11030 21060 39721 49862 52031 333 60005=
0244010260999992015011712004+69650+018933FM-12+011599999V0200401N003019999999N070001199-00241-00581098721ADDAA101000091AY121021AY201021GA1011+012501061GA2999+999999031GE19MSL   +99999+99999GF101991011999012501999999MA1999999097311MD1210301+9999MW1021OD139900601999REMSYN07601026 21689 10403 11024 21058 39731 49872 52030 70220 81570 333 60005 91106=
0110010260999992015011713004+69650+018933FM-12+011599999V0200601N003019999999N999999999-00091-00461098821ADDAA101000091MA1999999097411MD1210321+9999REMSYN05801026 26/// /0603 11009 21046 39741 49882 52032 333 60005=
0110010260999992015011714004+69650+018933FM-12+011599999V0200601N001019999999N999999999-00031-00541098921ADDAA101000091MA1999999097511MD1210291+9999REMSYN05801026 26/// /0601 11003 21054 39751 49892 52029 333 60005=
0208010260999992015011715004+69650+018933FM-12+011599999V0200601N003019999999N070001199-00121-00451099021ADDAA101000091AY101021AY201021GA1011+022501031GE19MSL   +99999+99999GF101991011999022501999999MA1999999097611MD1210301+9999MW1021REMSYN07001026 21889 10603 11012 21045 39761 49902 52030 70200 81030 333 60005=
0110010260999992015011716004+69650+018933FM-12+011599999V0200401N005019999999N999999999-00121-00401099111ADDAA101000091MA1999999097701MD1210281+9999REMSYN05801026 26/// /0405 11012 21040 39770 49911 52028 333 60005=
0110010260999992015011717004+69650+018933FM-12+011599999V0200401N004019999999N999999999-00161-00491099221ADDAA101000091MA1999999097801MD1210291+9999REMSYN05801026 26/// /0404 11016 21049 39780 49922 52029 333 60005=
0247010260999992015011718004+69650+018933FM-12+011599999V0200301N004019999999N070001199-00171-00511099311ADDAA112000091AY101021AY201021GA1011+022501031GE19MSL   +99999+99999GF101991011999022501999999KA1120M-00031MA1999999097891MD1210281+9999MW1021OD139900801999REMSYN08201026 11889 10304 11017 21051 39789 49931 52028 60002 70200 81030 333 11003 91108=
0110010260999992015011719004+69650+018933FM-12+011599999V0200201N004019999999N999999999-00191-00481099441ADDAA101000091MA1999999098021MD1210311+9999REMSYN05801026 26/// /0204 11019 21048 39802 49944 52031 333 60005=
0110010260999992015011720004+69650+018933FM-12+011599999V0200401N003019999999N999999999-00101-00501099551ADDAA101000091MA1999999098131MD1210331+9999REMSYN05801026 26/// /0403 11010 21050 39813 49955 52033 333 60005=
0224010260999992015011721004+69650+018933FM-12+011599999V0200301N003019999999N070001199-00061-00541099671ADDAA101000091AY121021AY211021GA1061+012501081GA2999+999999031GE19MSL   +99999+99999GF106991061999012501999999MA1999999098251MD1210361+9999MW1031REMSYN07001026 21689 60303 11006 21054 39825 49967 52036 70321 86830 333 60005=
0110010260999992015011722004+69650+018933FM-12+011599999V0200301N002019999999N999999999-00171-00501099781ADDAA101000091MA1999999098361MD1210331+9999REMSYN05801026 26/// /0302 11017 21050 39836 49978 52033 333 60005=
0110010260999992015011723004+69650+018933FM-12+011599999V0200401N003019999999N999999999-00051-00231099871ADDAA101000091MA1999999098451MD1210321+9999REMSYN05801026 26/// /0403 11005 21023 39845 49987 52032 333 60005=
0184010260999992015011800004+69650+018933FM-12+011599999V0200401N00601002401CN002000199-00021-00081099961ADDAA101000631AY171021AY211021GF109991999999999999999999MA1999999098541MD1210281+9999MW1851OD139901001999REMSYN07001026 21/20 90406 11002 21008 39854 49996 52028 78571 333 69965 91110=
0110010260999992015011801004+69650+018933FM-12+011599999V0200601N003019999999N999999999-00071-00121100091ADDAA101002031MA1999999098671MD1310311+9999REMSYN05801026 26/// /0603 11007 21012 39867 40009 53031 333 60025=
0110010260999992015011802004+69650+018933FM-12+011599999V0200401N007019999999N999999999-00081-00141100191ADDAA101000331MA1999999098761MD1310301+9999REMSYN05801026 26/// /0407 11008 21014 39876 40019 53030 333 69935=
0208010260999992015011803004+69650+018933FM-12+011599999V0200401N007019999999N005000199-00081-00161100361ADDAA101000131AY171021AY221021GA1061+004501081GE19MSL   +99999+99999GF106991061999004501999999MA1999999098931MD1310391+9999MW1851REMSYN07001026 21450 60407 11008 21016 39893 40036 53039 78572 86800 333 69915=
0110010260999992015011804004+69650+018933FM-12+011599999V0200401N005019999999N999999999-00101-00221100501ADDAA101000131MA1999999099071MD1310401+9999REMSYN05801026 26/// /0405 11010 21022 39907 40050 53040 333 69915=
0110010260999992015011805004+69650+018933FM-12+011599999V0200401N008019999999N999999999-00111-00371100581ADDAA101000231MA1999999099151MD1110391+9999REMSYN05801026 26/// /0408 11011 21037 39915 40058 51039 333 69925=
0325010260999992015011806004+69650+018933FM-12+011599999V0200401N007019999999N065000199-00141-00461100701ADDAA112002031AA224002031AJ100283100280099AY181021AY221021GA1011+008001081GA2999+999999031GA3999+999999001GE19MSL   +99999+99999GF105991011999008001999999IA1239KA1240N-00251MA1999999099261MD1110321+9999MW1021OD139901701999REMSYN09401026 11587 50407 11014 21046 39926 40070 51032 60022 70282 81261 333 21025 47028 70020 91117=
0110010260999992015011807004+69650+018933FM-12+011599999V0200401N007019999999N999999999-00171-00521100841ADDAA101000091MA1999999099401MD1310331+9999REMSYN05801026 26/// /0407 11017 21052 39940 40084 53033 333 60005=
0110010260999992015011808004+69650+018933FM-12+011599999V0200401N008019999999N999999999-00201-00621101001ADDAA101000091MA1999999099561MD1310401+9999REMSYN05801026 26/// /0408 11020 21062 39956 40100 53040 333 60005=
0224010260999992015011809004+69650+018933FM-12+011599999V0200401N007019999999N070001199-00231-00671101141ADDAA101000091AY111021AY211021GA1021+012501061GA2999+999999031GE19MSL   +99999+99999GF105991021999012501999999MA1999999099691MD1110431+9999MW1021REMSYN07001026 21689 50407 11023 21067 39969 40114 51043 70211 82560 333 60005=
0110010260999992015011810004+69650+018933FM-12+011599999V0200401N005019999999N999999999-00281-00741101271ADDAA101000091MA1999999099821MD1110421+9999REMSYN05801026 26/// /0405 11028 21074 39982 40127 51042 333 60005=
0110010260999992015011811004+69650+018933FM-12+011599999V0200401N004019999999N999999999-00311-00751101361ADDAA101000091MA1999999099911MD1110361+9999REMSYN05801026 26/// /0404 11031 21075 39991 40136 51036 333 60005=
0244010260999992015011812004+69650+018933FM-12+011599999V0200501N004019999999N070001199-00311-00771101461ADDAA101000091AY111021AY211021GA1021+012501061GA2999+999999031GE19MSL   +99999+99999GF104991021999012501999999MA1999999100001MD1110311+9999MW1021OD139901501999REMSYN07601026 21689 40504 11031 21077 30000 40146 51031 70211 82560 333 60005 91115=
0110010260999992015011813004+69650+018933FM-12+011599999V0200501N003019999999N999999999-00291-00701101571ADDAA101000091MA1999999100111MD1210281+9999REMSYN05801026 26/// /0503 11029 21070 30011 40157 52028 333 60005=
0110010260999992015011814004+69650+018933FM-12+011599999V0200501N003019999999N999999999-00311-00851101681ADDAA101000091MA1999999100221MD1210291+9999REMSYN05801026 26/// /0503 11031 21085 30022 40168 52029 333 60005=
0224010260999992015011815004+69650+018933FM-12+011599999V0200201N004019999999N070001199-00361-00971101751ADDAA101000091AY101021AY201021GA1021+012501061GA2999+999999031GE19MSL   +99999+99999GF103991021999012501999999MA1999999100291MD1110281+9999MW1011REMSYN07001026 21689 30204 11036 21097 30029 40175 51028 70100 82560 333 60005=
0110010260999992015011816004+69650+018933FM-12+011599999V0200701N003019999999N999999999-00381-01091101861ADDAA101000091MA1999999100391MD1210271+9999REMSYN05801026 26/// /0703 11038 21109 30039 40186 52027 333 60005=
0110010260999992015011817004+69650+018933FM-12+011599999V0200701N002019999999N999999999-00431-01151101941ADDAA101000091MA1999999100471MD1210251+9999REMSYN05801026 26/// /0702 11043 21115 30047 40194 52025 333 60005=
0263010260999992015011818004+69650+018933FM-12+011599999V0201001N002019999999N070001199-00491-01191102021ADDAA112000091AY101021AY201021GA1011+012501061GA2999+999999031GE19MSL   +99999+99999GF102991011999012501999999KA1120M-00141MA1999999100551MD1110261+9999MW1011OD139900801999REMSYN08201026 11689 21002 11049 21119 30055 40202 51026 60002 70100 81560 333 11014 91108=
0110010260999992015011819004+69650+018933FM-12+011599999V0202901N001019999999N999999999-00511-01061102141ADDAA101000091MA1999999100661MD1310271+9999REMSYN05801026 26/// /2901 11051 21106 30066 40214 53027 333 60005=
0110010260999992015011820004+69650+018933FM-12+011599999V0200301N002019999999N999999999-00641-01131102211ADDAA101000091MA1999999100731MD1210261+9999REMSYN05801026 26/// /0302 11064 21113 30073 40221 52026 333 60005=
0138010260999992015011821004+69650+018933FM-12+011599999V0200501N001019999999N070001199-00681-01251102311ADDAA101000091AY101021AY201021MA1999999100821MD1110261+9999MW1011REMSYN06401026 21989 00501 11068 21125 30082 40231 51026 70100 333 60005=
0110010260999992015011822004+69650+018933FM-12+011599999V0201801N002019999999N999999999-00701-01171102371ADDAA101000091MA1999999100881MD1210221+9999REMSYN05801026 26/// /1802 11070 21117 30088 40237 52022 333 60005=
0110010260999992015011823004+69650+018933FM-12+011599999V0201901N002019999999N999999999-00781-01261102421ADDAA101000091MA1999999100921MD1110191+9999REMSYN05801026 26/// /1902 11078 21126 30092 40242 51019 333 60005=
0158010260999992015011900004+69650+018933FM-12+011599999V0201901N002019999999N070001199-00721-01271102421ADDAA101000091AY101021AY201021MA1999999100931MD1990111+9999MW1021OD139900401999REMSYN07001026 21989 01902 11072 21127 30093 40242 50011 70200 333 60005 91104=
0110010260999992015011901004+69650+018933FM-12+011599999V0201901N003019999999N999999999-00701-01281102421ADDAA101000091MA1999999100931MD1990051+9999REMSYN05801026 26/// /1903 11070 21128 30093 40242 50005 333 60005=
0110010260999992015011902004+69650+018933FM-12+011599999V0201801N003019999999N999999999-00651-01241102461ADDAA101000091MA1999999100971MD1310051+9999REMSYN05801026 26/// /1803 11065 21124 30097 40246 53005 333 60005=
0138010260999992015011903004+69650+018933FM-12+011599999V0200901N002019999999N070001199-00691-01371102471ADDAA101000091AY101021AY201021MA1999999100981MD1210051+9999MW1021REMSYN06401026 21989 00902 11069 21137 30098 40247 52005 70200 333 60005=
0110010260999992015011904004+69650+018933FM-12+011599999V0200601N002019999999N999999999-00871-01351102491ADDAA101000091MA1999999100991MD1210061+9999REMSYN05801026 26/// /0602 11087 21135 30099 40249 52006 333 60005=
0110010260999992015011905004+69650+018933FM-12+011599999V0202201N001019999999N999999999-00891-01381102481ADDAA101000091MA1999999100981MD1990011+9999REMSYN05801026 26/// /2201 11089 21138 30098 40248 50001 333 60005=
0223010260999992015011906004+69650+018933FM-12+011599999V0200401N003019999999N070001199-00881-01231102511ADDAA112000091AA224000091AJ100283100280099AY101021AY201021IA1239KA1240N-00921MA1999999101011MD1310041+9999MW1021OD139900601999REMSYN08801026 11989 00403 11088 21123 30101 40251 53004 60002 70200 333 21092 47028 70000 91106=
0110010260999992015011907004+69650+018933FM-12+011599999V0200601N002019999999N999999999-01001-01401102551ADDAA101000091MA1999999101041MD1310051+9999REMSYN05801026 26/// /0602 11100 21140 30104 40255 53005 333 60005=
0110010260999992015011908004+69650+018933FM-12+011599999V0203501N002019999999N999999999-00981-01371102601ADDAA101000091MA1999999101091MD1210111+9999REMSYN05801026 26/// /3502 11098 21137 30109 40260 52011 333 60005=
0227010260999992015011909004+69650+018933FM-12+011599999V0202201N002019999999N070001199-00941-01171102541ADDAA101000091AY101021AY201021GA1999+999999001GE19MSL   +99999+99999GF101991001999999999999999MA1999999101031MD1990011+9999MW1021REMSYN07001026 21989 12202 11094 21117 30103 40254 50001 70200 80001 333 60005=EQDQ01    003SCCGA1
0110010260999992015011910004+69650+018933FM-12+011599999V0201801N003019999999N999999999-00851-01251102551ADDAA101000091MA1999999101051MD1990011+9999REMSYN05801026 26/// /1803 11085 21125 30105 40255 50001 333 60005=
0110010260999992015011911004+69650+018933FM-12+011599999V0202001N003019999999N999999999-00781-01191102551ADDAA101000091MA1999999101051MD1510041+9999REMSYN05801026 26/// /2003 11078 21119 30105 40255 55004 333 60005=
0247010260999992015011912004+69650+018933FM-12+011599999V0202001N002019999999N070001199-00931-01231102571ADDAA101000091AY101021AY201021GA1999+999999021GE19MSL   +99999+99999GF101991001999999999999999MA1999999101061MD1990031+9999MW1021OD139900701999REMSYN07601026 21989 12002 11093 21123 30106 40257 50003 70200 80008 333 60005 91107=EQDQ01    003SCCGA1
0110010260999992015011913004+69650+018933FM-12+011599999V0202401N002019999999N999999999-00931-01121102581ADDAA101000091MA1999999101071MD1990021+9999REMSYN05801026 26/// /2402 11093 21112 30107 40258 50002 333 60005=
0110010260999992015011914004+69650+018933FM-12+011599999V0201701N001019999999N999999999-01041-01261102581ADDAA101000091MA1999999101071MD1990031+9999REMSYN05801026 26/// /1701 11104 21126 30107 40258 50003 333 60005=
0227010260999992015011915004+69650+018933FM-12+011599999V0202001N003019999999N070001199-00951-01161102591ADDAA101000091AY101021AY201021GA1999+999999001GE19MSL   +99999+99999GF101991001999999999999999MA1999999101081MD1210021+9999MW1021REMSYN07001026 21989 12003 11095 21116 30108 40259 52002 70200 80001 333 60005=EQDQ01    003SCCGA1
0110010260999992015011916004+69650+018933FM-12+011599999V0202001N003019999999N999999999-00951-01171102551ADDAA101000091MA1999999101041MD1810021+9999REMSYN05801026 26/// /2003 11095 21117 30104 40255 58002 333 60005=
0110010260999992015011917004+69650+018933FM-12+011599999V0202101N004019999999N999999999-00881-01171102511ADDAA101000091MA1999999101011MD1810061+9999REMSYN05801026 26/// /2104 11088 21117 30101 40251 58006 333 60005=
0177010260999992015011918004+69650+018933FM-12+011599999V0202101N004019999999N070001199-00861-01171102481ADDAA112000091AY101021AY201021KA1120M-00761MA1999999100981MD1510091+9999MW1021OD139900801999REMSYN07601026 11989 02104 11086 21117 30098 40248 55009 60002 70200 333 11076 91108=
0110010260999992015011919004+69650+018933FM-12+011599999V0202201N003019999999N999999999-00921-01161102501ADDAA101000091MA1999999101001MD1510041+9999REMSYN05801026 26/// /2203 11092 21116 30100 40250 55004 333 60005=
0110010260999992015011920004+69650+018933FM-12+011599999V0202101N003019999999N999999999-00921-01151102531ADDAA101000091MA1999999101031MD1310021+9999REMSYN05801026 26/// /2103 11092 21115 30103 40253 53002 333 60005=
0138010260999992015011921004+69650+018933FM-12+011599999V0202301N003019999999N070001199-00921-01081102531ADDAA101000091AY101021AY201021MA1999999101021MD1990031+9999MW1021REMSYN06401026 21989 02303 11092 21108 30102 40253 50003 70200 333 60005=
0110010260999992015011922004+69650+018933FM-12+011599999V0202101N002019999999N999999999-00891-01181102561ADDAA101000091MA1999999101061MD1310061+9999REMSYN05801026 26/// /2102 11089 21118 30106 40256 53006 333 60005=
0110010260999992015011923004+69650+018933FM-12+011599999V0202101N005019999999N999999999-00821-01141102501ADDAA101000091MA1999999101001MD1810031+9999REMSYN05801026 26/// /2105 11082 21114 30100 40250 58003 333 60005=
