0059010270999992015010100004+69650+018900FM-12+002099999V0209999C999999999999N999999999+00371+00231999999ADDAA106007031REMSYN03601027 16/// ///// 10037 20023 60071=
0049010270999992015010103004+69650+018900FM-12+002099999V020999999999999999999999999999+99999+99999999999REMSYN04001027 26/// ///// 10054 20041 333 69995=
0099010270999992015010106004+69650+018900FM-12+002099999V0209999C999999999999N999999999+00491+00351999999ADDAA112018031AA224020631KA1240N+00201REMSYN05201027 16/// ///// 10049 20035 60182 333 20020 70206=
0049010270999992015010109004+69650+018900FM-12+002099999V020999999999999999999999999999+99999+99999999999REMSYN04001027 26/// ///// 10051 20036 333 60015=
0059010270999992015010112004+69650+018900FM-12+002099999V0209999C999999999999N999999999+00581+00101999999ADDAA106005031REMSYN03601027 16/// ///// 10058 20010 60051=
0049010270999992015010115004+69650+018900FM-12+002099999V020999999999999999999999999999+99999+99999999999REMSYN04001027 26/// ///// 10057 20003 333 60005=
0082010270999992015010118004+69650+018900FM-12+002099999V0209999C999999999999N999999999+00561-00011999999ADDAA112005031KA1120M+00621REMSYN04601027 16/// ///// 10056 21001 60052 333 10062=
0049010270999992015010121004+69650+018900FM-12+002099999V020999999999999999999999999999+99999+99999999999REMSYN04001027 26/// ///// 10059 21002 333 60005=
0059010270999992015010200004+69650+018900FM-12+002099999V0209999C999999999999N999999999+00451+00081999999ADDAA106000331REMSYN03601027 16/// ///// 10045 20008 69931=
0049010270999992015010203004+69650+018900FM-12+002099999V020999999999999999999999999999+99999+99999999999REMSYN04001027 26/// ///// 10041 20003 333 60005=
0099010270999992015010206004+69650+018900FM-12+002099999V0209999C999999999999N999999999+00411-00051999999ADDAA112000331AA224005531KA1240N+00361REMSYN05201027 16/// ///// 10041 21005 69932 333 20036 70055=
0049010270999992015010209004+69650+018900FM-12+002099999V020999999999999999999999999999+99999+99999999999REMSYN04001027 26/// ///// 10035 21013 333 60005=
0059010270999992015010212004+69650+018900FM-12+002099999V0209999C999999999999N999999999+00111-00241999999ADDAA106000091REMSYN03601027 16/// ///// 10011 21024 60001=
0049010270999992015010215004+69650+018900FM-12+002099999V020999999999999999999999999999+99999+99999999999REMSYN04001027 26/// ///// 10000 21023 333 60005=
0082010270999992015010218004+69650+018900FM-12+002099999V0209999C999999999999N999999999+00071-00241999999ADDAA112000091KA1120M+00421REMSYN04601027 16/// ///// 10007 21024 60002 333 10042=
0049010270999992015010221004+69650+018900FM-12+002099999V020999999999999999999999999999+99999+99999999999REMSYN04001027 26/// ///// 10011 21032 333 60005=
0059010270999992015010300004+69650+018900FM-12+002099999V0209999C999999999999N999999999+00201-00221999999ADDAA106000131REMSYN03601027 16/// ///// 10020 21022 69911=
0049010270999992015010303004+69650+018900FM-12+002099999V020999999999999999999999999999+99999+99999999999REMSYN04001027 26/// ///// 10015 21008 333 60005=
0099010270999992015010306004+69650+018900FM-12+002099999V0209999C999999999999N999999999+00221-00201999999ADDAA112000531AA224000531KA1240N-00061REMSYN05201027 16/// ///// 10022 21020 69952 333 21006 70005=
0049010270999992015010309004+69650+018900FM-12+002099999V020999999999999999999999999999+99999+99999999999REMSYN04001027 26/// ///// 10020 21035 333 60005=
0059010270999992015010312004+69650+018900FM-12+002099999V0209999C999999999999N999999999+00201-00291999999ADDAA106000091REMSYN03601027 16/// ///// 10020 21029 60001=
0049010270999992015010315004+69650+018900FM-12+002099999V020999999999999999999999999999+99999+99999999999REMSYN04001027 26/// ///// 10015 21007 333 69945=
0082010270999992015010318004+69650+018900FM-12+002099999V0209999C999999999999N999999999+00061-00031999999ADDAA112002031KA1120M+00241REMSYN04601027 16/// ///// 10006 21003 60022 333 10024=
0049010270999992015010321004+69650+018900FM-12+002099999V020999999999999999999999999999+99999+99999999999REMSYN04001027 26/// ///// 10011 21009 333 60005=
0059010270999992015010400004+69650+018900FM-12+002099999V0209999C999999999999N999999999+00081-00231999999ADDAA106000091REMSYN03601027 16/// ///// 10008 21023 60001=
0049010270999992015010403004+69650+018900FM-12+002099999V020999999999999999999999999999+99999+99999999999REMSYN04001027 26/// ///// 10007 21037 333 60005=
0099010270999992015010406004+69650+018900FM-12+002099999V0209999C999999999999N999999999-00011-00411999999ADDAA112000091AA224002031KA1240N-00021REMSYN05201027 16/// ///// 11001 21041 60002 333 21002 70020=
0049010270999992015010409004+69650+018900FM-12+002099999V020999999999999999999999999999+99999+99999999999REMSYN04001027 26/// ///// 10005 21043 333 60005=
0059010270999992015010412004+69650+018900FM-12+002099999V0209999C999999999999N999999999-00041-00561999999ADDAA106000091REMSYN03601027 16/// ///// 11004 21056 60001=
0049010270999992015010415004+69650+018900FM-12+002099999V020999999999999999999999999999+99999+99999999999REMSYN04001027 26/// ///// 11017 21059 333 60005=
0082010270999992015010418004+69650+018900FM-12+002099999V0209999C999999999999N999999999-00151-00671999999ADDAA112000231KA1120M+00061REMSYN04601027 16/// ///// 11015 21067 69922 333 10006=
0049010270999992015010421004+69650+018900FM-12+002099999V020999999999999999999999999999+99999+99999999999REMSYN04001027 26/// ///// 11016 21070 333 60005=
0059010270999992015010500004+69650+018900FM-12+002099999V0209999C999999999999N999999999-00221-00781999999ADDAA106000091REMSYN03601027 16/// ///// 11022 21078 60001=
0049010270999992015010503004+69650+018900FM-12+002099999V020999999999999999999999999999+99999+99999999999REMSYN04001027 26/// ///// 11030 21088 333 60005=
0099010270999992015010506004+69650+018900FM-12+002099999V0209999C999999999999N999999999-00371-00981999999ADDAA112000091AA224000231KA1240N-00371REMSYN05201027 16/// ///// 11037 21098 60002 333 21037 70002=
0049010270999992015010509004+69650+018900FM-12+002099999V020999999999999999999999999999+99999+99999999999REMSYN04001027 26/// ///// 11042 21102 333 60005=
0059010270999992015010512004+69650+018900FM-12+002099999V0209999C999999999999N999999999-00481-01071999999ADDAA106000091REMSYN03601027 16/// ///// 11048 21107 60001=
0049010270999992015010515004+69650+018900FM-12+002099999V020999999999999999999999999999+99999+99999999999REMSYN04001027 26/// ///// 11045 21104 333 60005=
0082010270999992015010518004+69650+018900FM-12+002099999V0209999C999999999999N999999999-00541-01101999999ADDAA112000091KA1120M-00361REMSYN04601027 16/// ///// 11054 21110 60002 333 11036=
0049010270999992015010521004+69650+018900FM-12+002099999V020999999999999999999999999999+99999+99999999999REMSYN04001027 26/// ///// 11048 21114 333 60005=
0059010270999992015010600004+69650+018900FM-12+002099999V0209999C999999999999N999999999-00451-01031999999ADDAA106000091REMSYN03601027 16/// ///// 11045 21103 60001=
0049010270999992015010601004+69650+018900FM-12+002099999V020999999999999999999999999999+99999+99999999999REMSYN04001027 26/// ///// 11046 21113 333 60005=
0049010270999992015010602004+69650+018900FM-12+002099999V020999999999999999999999999999+99999+99999999999REMSYN04001027 26/// ///// 11035 21094 333 60005=
0049010270999992015010603004+69650+018900FM-12+002099999V020999999999999999999999999999+99999+99999999999REMSYN04001027 26/// ///// 11037 21101 333 60005=
0049010270999992015010604004+69650+018900FM-12+002099999V020999999999999999999999999999+99999+99999999999REMSYN04001027 26/// ///// 11032 21094 333 60005=
0049010270999992015010605004+69650+018900FM-12+002099999V020999999999999999999999999999+99999+99999999999REMSYN04001027 26/// ///// 11028 21106 333 60005=
0099010270999992015010606004+69650+018900FM-12+002099999V0209999C999999999999N999999999-00261-01131999999ADDAA112000091AA224000091KA1240N-00621REMSYN05201027 16/// ///// 11026 21113 60002 333 21062 70000=
0049010270999992015010607004+69650+018900FM-12+002099999V020999999999999999999999999999+99999+99999999999REMSYN04001027 26/// ///// 11029 21097 333 60005=
0049010270999992015010608004+69650+018900FM-12+002099999V020999999999999999999999999999+99999+99999999999REMSYN04001027 26/// ///// 11028 21096 333 60005=
0049010270999992015010609004+69650+018900FM-12+002099999V020999999999999999999999999999+99999+99999999999REMSYN04001027 26/// ///// 11028 21100 333 60005=
0049010270999992015010610004+69650+018900FM-12+002099999V020999999999999999999999999999+99999+99999999999REMSYN04001027 26/// ///// 11026 21100 333 60005=
0049010270999992015010611004+69650+018900FM-12+002099999V020999999999999999999999999999+99999+99999999999REMSYN04001027 26/// ///// 11023 21093 333 60005=
0059010270999992015010612004+69650+018900FM-12+002099999V0209999C999999999999N999999999-00191-00971999999ADDAA106000091REMSYN03601027 16/// ///// 11019 21097 60001=
0049010270999992015010613004+69650+018900FM-12+002099999V020999999999999999999999999999+99999+99999999999REMSYN04001027 26/// ///// 11019 21088 333 60005=
0049010270999992015010614004+69650+018900FM-12+002099999V020999999999999999999999999999+99999+99999999999REMSYN04001027 26/// ///// 11020 21077 333 60005=
0049010270999992015010615004+69650+018900FM-12+002099999V020999999999999999999999999999+99999+99999999999REMSYN04001027 26/// ///// 11018 21068 333 60005=
0049010270999992015010616004+69650+018900FM-12+002099999V020999999999999999999999999999+99999+99999999999REMSYN04001027 26/// ///// 11016 21060 333 60005=
0049010270999992015010617004+69650+018900FM-12+002099999V020999999999999999999999999999+99999+99999999999REMSYN04001027 26/// ///// 11014 21054 333 60005=
0082010270999992015010618004+69650+018900FM-12+002099999V0209999C999999999999N999999999-00101-00531999999ADDAA112000091KA1120M-00091REMSYN04601027 16/// ///// 11010 21053 60002 333 11009=
0049010270999992015010619004+69650+018900FM-12+002099999V020999999999999999999999999999+99999+99999999999REMSYN04001027 26/// ///// 11008 21039 333 60005=
0049010270999992015010620004+69650+018900FM-12+002099999V020999999999999999999999999999+99999+99999999999REMSYN04001027 26/// ///// 11007 21041 333 60005=
0049010270999992015010621004+69650+018900FM-12+002099999V020999999999999999999999999999+99999+99999999999REMSYN04001027 26/// ///// 11006 21031 333 60005=
0049010270999992015010622004+69650+018900FM-12+002099999V020999999999999999999999999999+99999+99999999999REMSYN04001027 26/// ///// 11003 21025 333 60005=
0049010270999992015010623004+69650+018900FM-12+002099999V020999999999999999999999999999+99999+99999999999REMSYN04001027 26/// ///// 10001 21026 333 60005=
0059010270999992015010700004+69650+018900FM-12+002099999V0209999C999999999999N999999999+00021-00271999999ADDAA106000091REMSYN03601027 16/// ///// 10002 21027 60001=
0049010270999992015010701004+69650+018900FM-12+002099999V020999999999999999999999999999+99999+99999999999REMSYN04001027 26/// ///// 10007 21027 333 60005=
0049010270999992015010702004+69650+018900FM-12+002099999V020999999999999999999999999999+99999+99999999999REMSYN04001027 26/// ///// 10006 21028 333 60005=
0049010270999992015010703004+69650+018900FM-12+002099999V020999999999999999999999999999+99999+99999999999REMSYN04001027 26/// ///// 10010 21027 333 60005=
0049010270999992015010704004+69650+018900FM-12+002099999V020999999999999999999999999999+99999+99999999999REMSYN04001027 26/// ///// 10012 21025 333 60005=
0049010270999992015010705004+69650+018900FM-12+002099999V020999999999999999999999999999+99999+99999999999REMSYN04001027 26/// ///// 10017 21023 333 60005=
0099010270999992015010706004+69650+018900FM-12+002099999V0209999C999999999999N999999999+00161-00241999999ADDAA112000091AA224000091KA1240N-00111REMSYN05201027 16/// ///// 10016 21024 60002 333 21011 70000=
0049010270999992015010707004+69650+018900FM-12+002099999V020999999999999999999999999999+99999+99999999999REMSYN04001027 26/// ///// 10007 21008 333 69955=
0049010270999992015010708004+69650+018900FM-12+002099999V020999999999999999999999999999+99999+99999999999REMSYN04001027 26/// ///// 10006 21006 333 69935=
0049010270999992015010709004+69650+018900FM-12+002099999V020999999999999999999999999999+99999+99999999999REMSYN04001027 26/// ///// 10006 21005 333 60005=
0049010270999992015010710004+69650+018900FM-12+002099999V020999999999999999999999999999+99999+99999999999REMSYN04001027 26/// ///// 10009 21003 333 60005=
0049010270999992015010711004+69650+018900FM-12+002099999V020999999999999999999999999999+99999+99999999999REMSYN04001027 26/// ///// 10008 21004 333 60005=
0059010270999992015010712004+69650+018900FM-12+002099999V0209999C999999999999N999999999+00111-00011999999ADDAA106000931REMSYN03601027 16/// ///// 10011 21001 69991=
0049010270999992015010713004+69650+018900FM-12+002099999V020999999999999999999999999999+99999+99999999999REMSYN04001027 26/// ///// 10012 21000 333 69915=
0049010270999992015010714004+69650+018900FM-12+002099999V020999999999999999999999999999+99999+99999999999REMSYN04001027 26/// ///// 10014 20004 333 69915=
0049010270999992015010715004+69650+018900FM-12+002099999V020999999999999999999999999999+99999+99999999999REMSYN04001027 26/// ///// 10015 20004 333 60005=
0049010270999992015010716004+69650+018900FM-12+002099999V020999999999999999999999999999+99999+99999999999REMSYN04001027 26/// ///// 10014 20004 333 60005=
0049010270999992015010717004+69650+018900FM-12+002099999V020999999999999999999999999999+99999+99999999999REMSYN04001027 26/// ///// 10013 20003 333 60005=
0082010270999992015010718004+69650+018900FM-12+002099999V0209999C999999999999N999999999+00131+00041999999ADDAA112001031KA1120M+00161REMSYN04601027 16/// ///// 10013 20004 60012 333 10016=
0049010270999992015010719004+69650+018900FM-12+002099999V020999999999999999999999999999+99999+99999999999REMSYN04001027 26/// ///// 10012 20003 333 60005=
0049010270999992015010720004+69650+018900FM-12+002099999V020999999999999999999999999999+99999+99999999999REMSYN04001027 26/// ///// 10011 20001 333 60005=
0049010270999992015010721004+69650+018900FM-12+002099999V020999999999999999999999999999+99999+99999999999REMSYN04001027 26/// ///// 10009 21001 333 60005=
0049010270999992015010722004+69650+018900FM-12+002099999V020999999999999999999999999999+99999+99999999999REMSYN04001027 26/// ///// 10004 21005 333 60005=
0049010270999992015010723004+69650+018900FM-12+002099999V020999999999999999999999999999+99999+99999999999REMSYN04001027 26/// ///// 10003 21005 333 60005=
0059010270999992015010800004+69650+018900FM-12+002099999V0209999C999999999999N999999999+00011-00071999999ADDAA106000091REMSYN03601027 16/// ///// 10001 21007 60001=
0049010270999992015010801004+69650+018900FM-12+002099999V020999999999999999999999999999+99999+99999999999REMSYN04001027 26/// ///// 11002 21009 333 60005=
0049010270999992015010802004+69650+018900FM-12+002099999V020999999999999999999999999999+99999+99999999999REMSYN04001027 26/// ///// 11008 21015 333 60005=
0049010270999992015010803004+69650+018900FM-12+002099999V020999999999999999999999999999+99999+99999999999REMSYN04001027 26/// ///// 11018 21025 333 60005=
0049010270999992015010804004+69650+018900FM-12+002099999V020999999999999999999999999999+99999+99999999999REMSYN04001027 26/// ///// 11013 21020 333 60005=
0049010270999992015010805004+69650+018900FM-12+002099999V020999999999999999999999999999+99999+99999999999REMSYN04001027 26/// ///// 10002 21014 333 60005=
0099010270999992015010806004+69650+018900FM-12+002099999V0209999C999999999999N999999999+00121-00191999999ADDAA112000091AA224001131KA1240N-00191REMSYN05201027 16/// ///// 10012 21019 60002 333 21019 70011=
0049010270999992015010807004+69650+018900FM-12+002099999V020999999999999999999999999999+99999+99999999999REMSYN04001027 26/// ///// 10040 21015 333 60005=
0049010270999992015010808004+69650+018900FM-12+002099999V020999999999999999999999999999+99999+99999999999REMSYN04001027 26/// ///// 10042 21021 333 60005=
0049010270999992015010809004+69650+018900FM-12+002099999V020999999999999999999999999999+99999+99999999999REMSYN04001027 26/// ///// 10042 21022 333 60005=
0049010270999992015010810004+69650+018900FM-12+002099999V020999999999999999999999999999+99999+99999999999REMSYN04001027 26/// ///// 10038 21028 333 60005=
0049010270999992015010811004+69650+018900FM-12+002099999V020999999999999999999999999999+99999+99999999999REMSYN04001027 26/// ///// 10037 21037 333 60005=
0059010270999992015010812004+69650+018900FM-12+002099999V0209999C999999999999N999999999+00391-00461999999ADDAA106000091REMSYN03601027 16/// ///// 10039 21046 60001=
0049010270999992015010813004+69650+018900FM-12+002099999V020999999999999999999999999999+99999+99999999999REMSYN04001027 26/// ///// 10037 21036 333 60005=
0049010270999992015010814004+69650+018900FM-12+002099999V020999999999999999999999999999+99999+99999999999REMSYN04001027 26/// ///// 10024 21032 333 60005=
0049010270999992015010815004+69650+018900FM-12+002099999V020999999999999999999999999999+99999+99999999999REMSYN04001027 26/// ///// 10015 21026 333 69915=
0049010270999992015010816004+69650+018900FM-12+002099999V020999999999999999999999999999+99999+99999999999REMSYN04001027 26/// ///// 10006 21018 333 69915=
0049010270999992015010817004+69650+018900FM-12+002099999V020999999999999999999999999999+99999+99999999999REMSYN04001027 26/// ///// 10003 21025 333 60005=
0082010270999992015010818004+69650+018900FM-12+002099999V0209999C999999999999N999999999+00021-00231999999ADDAA112000231KA1120M+00481REMSYN04601027 16/// ///// 10002 21023 69922 333 10048=
0049010270999992015010819004+69650+018900FM-12+002099999V020999999999999999999999999999+99999+99999999999REMSYN04001027 26/// ///// 10003 21023 333 60005=
0049010270999992015010820004+69650+018900FM-12+002099999V020999999999999999999999999999+99999+99999999999REMSYN04001027 26/// ///// 10001 21025 333 60005=
0049010270999992015010821004+69650+018900FM-12+002099999V020999999999999999999999999999+99999+99999999999REMSYN04001027 26/// ///// 11002 21018 333 60005=
0049010270999992015010822004+69650+018900FM-12+002099999V020999999999999999999999999999+99999+99999999999REMSYN04001027 26/// ///// 10000 21017 333 60005=
0049010270999992015010823004+69650+018900FM-12+002099999V020999999999999999999999999999+99999+99999999999REMSYN04001027 26/// ///// 10002 21024 333 60005=
0059010270999992015010900004+69650+018900FM-12+002099999V0209999C999999999999N999999999+00031-00271999999ADDAA106000091REMSYN03601027 16/// ///// 10003 21027 60001=
0049010270999992015010901004+69650+018900FM-12+002099999V020999999999999999999999999999+99999+99999999999REMSYN04001027 26/// ///// 10005 21026 333 60005=
0049010270999992015010902004+69650+018900FM-12+002099999V020999999999999999999999999999+99999+99999999999REMSYN04001027 26/// ///// 10005 21028 333 60005=
0049010270999992015010903004+69650+018900FM-12+002099999V020999999999999999999999999999+99999+99999999999REMSYN04001027 26/// ///// 10006 21030 333 60005=
0049010270999992015010904004+69650+018900FM-12+002099999V020999999999999999999999999999+99999+99999999999REMSYN04001027 26/// ///// 10002 21026 333 60005=
0049010270999992015010905004+69650+018900FM-12+002099999V020999999999999999999999999999+99999+99999999999REMSYN04001027 26/// ///// 10000 21020 333 60005=
0099010270999992015010906004+69650+018900FM-12+002099999V0209999C999999999999N999999999+00031-00251999999ADDAA112000091AA224000231KA1240N-00021REMSYN05201027 16/// ///// 10003 21025 60002 333 21002 70002=
0049010270999992015010907004+69650+018900FM-12+002099999V020999999999999999999999999999+99999+99999999999REMSYN04001027 26/// ///// 11002 21016 333 69945=
0049010270999992015010908004+69650+018900FM-12+002099999V020999999999999999999999999999+99999+99999999999REMSYN04001027 26/// ///// 11005 21015 333 69955=
0049010270999992015010909004+69650+018900FM-12+002099999V020999999999999999999999999999+99999+99999999999REMSYN04001027 26/// ///// 11006 21015 333 69955=
0049010270999992015010910004+69650+018900FM-12+002099999V020999999999999999999999999999+99999+99999999999REMSYN04001027 26/// ///// 11005 21014 333 69945=
0049010270999992015010911004+69650+018900FM-12+002099999V020999999999999999999999999999+99999+99999999999REMSYN04001027 26/// ///// 11005 21015 333 69915=
0059010270999992015010912004+69650+018900FM-12+002099999V0209999C999999999999N999999999-00101-00181999999ADDAA106002031REMSYN03601027 16/// ///// 11010 21018 60021=
0049010270999992015010913004+69650+018900FM-12+002099999V020999999999999999999999999999+99999+99999999999REMSYN04001027 26/// ///// 11010 21018 333 69955=
0049010270999992015010914004+69650+018900FM-12+002099999V020999999999999999999999999999+99999+99999999999REMSYN04001027 26/// ///// 11011 21022 333 69915=
0049010270999992015010915004+69650+018900FM-12+002099999V020999999999999999999999999999+99999+99999999999REMSYN04001027 26/// ///// 11013 21025 333 69915=
0049010270999992015010916004+69650+018900FM-12+002099999V020999999999999999999999999999+99999+99999999999REMSYN04001027 26/// ///// 11011 21031 333 60005=
0049010270999992015010917004+69650+018900FM-12+002099999V020999999999999999999999999999+99999+99999999999REMSYN04001027 26/// ///// 11013 21035 333 69915=
0082010270999992015010918004+69650+018900FM-12+002099999V0209999C999999999999N999999999-00131-00391999999ADDAA112003031KA1120M+00041REMSYN04601027 16/// ///// 11013 21039 60032 333 10004=
0049010270999992015010919004+69650+018900FM-12+002099999V020999999999999999999999999999+99999+99999999999REMSYN04001027 26/// ///// 11014 21044 333 60005=
0049010270999992015010920004+69650+018900FM-12+002099999V020999999999999999999999999999+99999+99999999999REMSYN04001027 26/// ///// 11017 21049 333 60005=
0049010270999992015010921004+69650+018900FM-12+002099999V020999999999999999999999999999+99999+99999999999REMSYN04001027 26/// ///// 11018 21052 333 60005=
0049010270999992015010922004+69650+018900FM-12+002099999V020999999999999999999999999999+99999+99999999999REMSYN04001027 26/// ///// 11023 21062 333 60005=
0049010270999992015010923004+69650+018900FM-12+002099999V020999999999999999999999999999+99999+99999999999REMSYN04001027 26/// ///// 11026 21062 333 60005=
0059010270999992015011000004+69650+018900FM-12+002099999V0209999C999999999999N999999999-00321-00561999999ADDAA106000091REMSYN03601027 16/// ///// 11032 21056 60001=
0049010270999992015011001004+69650+018900FM-12+002099999V020999999999999999999999999999+99999+99999999999REMSYN04001027 26/// ///// 11040 21057 333 69915=
0049010270999992015011002004+69650+018900FM-12+002099999V020999999999999999999999999999+99999+99999999999REMSYN04001027 26/// ///// 11037 21055 333 69925=
0049010270999992015011003004+69650+018900FM-12+002099999V020999999999999999999999999999+99999+99999999999REMSYN04001027 26/// ///// 11039 21060 333 69925=
0049010270999992015011004004+69650+018900FM-12+002099999V020999999999999999999999999999+99999+99999999999REMSYN04001027 26/// ///// 11037 21063 333 69925=
0049010270999992015011005004+69650+018900FM-12+002099999V020999999999999999999999999999+99999+99999999999REMSYN04001027 26/// ///// 11031 21072 333 60005=
0099010270999992015011006004+69650+018900FM-12+002099999V0209999C999999999999N999999999-00431-00701999999ADDAA112000831AA224004031KA1240N-00431REMSYN05201027 16/// ///// 11043 21070 69982 333 21043 70040=
0049010270999992015011007004+69650+018900FM-12+002099999V020999999999999999999999999999+99999+99999999999REMSYN04001027 26/// ///// 11041 21071 333 69915=
0049010270999992015011008004+69650+018900FM-12+002099999V020999999999999999999999999999+99999+99999999999REMSYN04001027 26/// ///// 11049 21068 333 69915=
0049010270999992015011009004+69650+018900FM-12+002099999V020999999999999999999999999999+99999+99999999999REMSYN04001027 26/// ///// 11044 21073 333 69925=
0049010270999992015011010004+69650+018900FM-12+002099999V020999999999999999999999999999+99999+99999999999REMSYN04001027 26/// ///// 11045 21094 333 60005=
0049010270999992015011011004+69650+018900FM-12+002099999V020999999999999999999999999999+99999+99999999999REMSYN04001027 26/// ///// 11050 21099 333 60005=
0059010270999992015011012004+69650+018900FM-12+002099999V0209999C999999999999N999999999-00531-01021999999ADDAA106000431REMSYN03601027 16/// ///// 11053 21102 69941=
0049010270999992015011013004+69650+018900FM-12+002099999V020999999999999999999999999999+99999+99999999999REMSYN04001027 26/// ///// 11060 21107 333 60005=
0049010270999992015011014004+69650+018900FM-12+002099999V020999999999999999999999999999+99999+99999999999REMSYN04001027 26/// ///// 11071 21119 333 60005=
0049010270999992015011015004+69650+018900FM-12+002099999V020999999999999999999999999999+99999+99999999999REMSYN04001027 26/// ///// 11070 21121 333 60005=
0049010270999992015011016004+69650+018900FM-12+002099999V020999999999999999999999999999+99999+99999999999REMSYN04001027 26/// ///// 11073 21119 333 60005=
0049010270999992015011017004+69650+018900FM-12+002099999V020999999999999999999999999999+99999+99999999999REMSYN04001027 26/// ///// 11071 21119 333 60005=
0082010270999992015011018004+69650+018900FM-12+002099999V0209999C999999999999N999999999-00701-01201999999ADDAA112000431KA1120M-00391REMSYN04601027 16/// ///// 11070 21120 69942 333 11039=
0049010270999992015011019004+69650+018900FM-12+002099999V020999999999999999999999999999+99999+99999999999REMSYN04001027 26/// ///// 11068 21123 333 60005=
0049010270999992015011020004+69650+018900FM-12+002099999V020999999999999999999999999999+99999+99999999999REMSYN04001027 26/// ///// 11067 21127 333 60005=
0049010270999992015011021004+69650+018900FM-12+002099999V020999999999999999999999999999+99999+99999999999REMSYN04001027 26/// ///// 11069 21129 333 60005=
0049010270999992015011022004+69650+018900FM-12+002099999V020999999999999999999999999999+99999+99999999999REMSYN04001027 26/// ///// 11070 21139 333 60005=
0049010270999992015011023004+69650+018900FM-12+002099999V020999999999999999999999999999+99999+99999999999REMSYN04001027 26/// ///// 11074 21136 333 60005=
0059010270999992015011100004+69650+018900FM-12+002099999V0209999C999999999999N999999999-00801-01421999999ADDAA106000091REMSYN03601027 16/// ///// 11080 21142 60001=
0049010270999992015011101004+69650+018900FM-12+002099999V020999999999999999999999999999+99999+99999999999REMSYN04001027 26/// ///// 11079 21142 333 60005=
0049010270999992015011102004+69650+018900FM-12+002099999V020999999999999999999999999999+99999+99999999999REMSYN04001027 26/// ///// 11077 21141 333 60005=
0049010270999992015011103004+69650+018900FM-12+002099999V020999999999999999999999999999+99999+99999999999REMSYN04001027 26/// ///// 11074 21138 333 60005=
0049010270999992015011104004+69650+018900FM-12+002099999V020999999999999999999999999999+99999+99999999999REMSYN04001027 26/// ///// 11074 21137 333 60005=
0049010270999992015011105004+69650+018900FM-12+002099999V020999999999999999999999999999+99999+99999999999REMSYN04001027 26/// ///// 11076 21137 333 60005=
0099010270999992015011106004+69650+018900FM-12+002099999V0209999C999999999999N999999999-00781-01461999999ADDAA112000091AA224000431KA1240N-00851REMSYN05201027 16/// ///// 11078 21146 60002 333 21085 70004=
0049010270999992015011107004+69650+018900FM-12+002099999V020999999999999999999999999999+99999+99999999999REMSYN04001027 26/// ///// 11075 21144 333 60005=
0049010270999992015011108004+69650+018900FM-12+002099999V020999999999999999999999999999+99999+99999999999REMSYN04001027 26/// ///// 11088 21151 333 60005=
0049010270999992015011109004+69650+018900FM-12+002099999V020999999999999999999999999999+99999+99999999999REMSYN04001027 26/// ///// 11081 21149 333 60005=
0049010270999992015011110004+69650+018900FM-12+002099999V020999999999999999999999999999+99999+99999999999REMSYN04001027 26/// ///// 11082 21157 333 60005=
0049010270999992015011111004+69650+018900FM-12+002099999V020999999999999999999999999999+99999+99999999999REMSYN04001027 26/// ///// 11087 21156 333 60005=
0059010270999992015011112004+69650+018900FM-12+002099999V0209999C999999999999N999999999-00851-01561999999ADDAA106000091REMSYN03601027 16/// ///// 11085 21156 60001=
0049010270999992015011113004+69650+018900FM-12+002099999V020999999999999999999999999999+99999+99999999999REMSYN04001027 26/// ///// 11088 21157 333 60005=
0049010270999992015011114004+69650+018900FM-12+002099999V020999999999999999999999999999+99999+99999999999REMSYN04001027 26/// ///// 11089 21162 333 60005=
0049010270999992015011115004+69650+018900FM-12+002099999V020999999999999999999999999999+99999+99999999999REMSYN04001027 26/// ///// 11089 21161 333 60005=
0049010270999992015011116004+69650+018900FM-12+002099999V020999999999999999999999999999+99999+99999999999REMSYN04001027 26/// ///// 11092 21167 333 60005=
0049010270999992015011117004+69650+018900FM-12+002099999V020999999999999999999999999999+99999+99999999999REMSYN04001027 26/// ///// 11094 21169 333 60005=
0082010270999992015011118004+69650+018900FM-12+002099999V0209999C999999999999N999999999-01091-01711999999ADDAA112000091KA1120M-00711REMSYN04601027 16/// ///// 11109 21171 60002 333 11071=
0049010270999992015011119004+69650+018900FM-12+002099999V020999999999999999999999999999+99999+99999999999REMSYN04001027 26/// ///// 11102 21169 333 60005=
0049010270999992015011120004+69650+018900FM-12+002099999V020999999999999999999999999999+99999+99999999999REMSYN04001027 26/// ///// 11110 21169 333 60005=
0049010270999992015011121004+69650+018900FM-12+002099999V020999999999999999999999999999+99999+99999999999REMSYN04001027 26/// ///// 11111 21167 333 60005=
0049010270999992015011122004+69650+018900FM-12+002099999V020999999999999999999999999999+99999+99999999999REMSYN04001027 26/// ///// 11108 21156 333 60005=
0049010270999992015011123004+69650+018900FM-12+002099999V020999999999999999999999999999+99999+99999999999REMSYN04001027 26/// ///// 11107 21167 333 60005=
0059010270999992015011200004+69650+018900FM-12+002099999V0209999C999999999999N999999999-01091-01741999999ADDAA106000091REMSYN03601027 16/// ///// 11109 21174 60001=
0049010270999992015011201004+69650+018900FM-12+002099999V020999999999999999999999999999+99999+99999999999REMSYN04001027 26/// ///// 11105 21159 333 60005=
0049010270999992015011202004+69650+018900FM-12+002099999V020999999999999999999999999999+99999+99999999999REMSYN04001027 26/// ///// 11110 21169 333 60005=
0049010270999992015011203004+69650+018900FM-12+002099999V020999999999999999999999999999+99999+99999999999REMSYN04001027 26/// ///// 11099 21170 333 60005=
0049010270999992015011204004+69650+018900FM-12+002099999V020999999999999999999999999999+99999+99999999999REMSYN04001027 26/// ///// 11114 21171 333 60005=
0049010270999992015011205004+69650+018900FM-12+002099999V020999999999999999999999999999+99999+99999999999REMSYN04001027 26/// ///// 11111 21166 333 60005=
0099010270999992015011206004+69650+018900FM-12+002099999V0209999C999999999999N999999999-00941-01621999999ADDAA112000091AA224000091KA1240N-01191REMSYN05201027 16/// ///// 11094 21162 60002 333 21119 70000=
0049010270999992015011207004+69650+018900FM-12+002099999V020999999999999999999999999999+99999+99999999999REMSYN04001027 26/// ///// 11102 21168 333 60005=
0049010270999992015011208004+69650+018900FM-12+002099999V020999999999999999999999999999+99999+99999999999REMSYN04001027 26/// ///// 11105 21178 333 60005=
0049010270999992015011209004+69650+018900FM-12+002099999V020999999999999999999999999999+99999+99999999999REMSYN04001027 26/// ///// 11093 21176 333 60005=
0049010270999992015011210004+69650+018900FM-12+002099999V020999999999999999999999999999+99999+99999999999REMSYN04001027 26/// ///// 11102 21175 333 60005=
0049010270999992015011211004+69650+018900FM-12+002099999V020999999999999999999999999999+99999+99999999999REMSYN04001027 26/// ///// 11104 21182 333 60005=
0059010270999992015011212004+69650+018900FM-12+002099999V0209999C999999999999N999999999-01131-01831999999ADDAA106000091REMSYN03601027 16/// ///// 11113 21183 60001=
0049010270999992015011213004+69650+018900FM-12+002099999V020999999999999999999999999999+99999+99999999999REMSYN04001027 26/// ///// 11108 21166 333 60005=
0049010270999992015011214004+69650+018900FM-12+002099999V020999999999999999999999999999+99999+99999999999REMSYN04001027 26/// ///// 11106 21174 333 60005=
0049010270999992015011215004+69650+018900FM-12+002099999V020999999999999999999999999999+99999+99999999999REMSYN04001027 26/// ///// 11106 21168 333 60005=
0049010270999992015011216004+69650+018900FM-12+002099999V020999999999999999999999999999+99999+99999999999REMSYN04001027 26/// ///// 11091 21187 333 60005=
0049010270999992015011217004+69650+018900FM-12+002099999V020999999999999999999999999999+99999+99999999999REMSYN04001027 26/// ///// 11080 21202 333 60005=
0082010270999992015011218004+69650+018900FM-12+002099999V0209999C999999999999N999999999-00821-01691999999ADDAA112000091KA1120M-00721REMSYN04601027 16/// ///// 11082 21169 60002 333 11072=
0049010270999992015011219004+69650+018900FM-12+002099999V020999999999999999999999999999+99999+99999999999REMSYN04001027 26/// ///// 11084 21154 333 60005=
0049010270999992015011220004+69650+018900FM-12+002099999V020999999999999999999999999999+99999+99999999999REMSYN04001027 26/// ///// 11093 21190 333 60005=
0049010270999992015011221004+69650+018900FM-12+002099999V020999999999999999999999999999+99999+99999999999REMSYN04001027 26/// ///// 11095 21186 333 60005=
0049010270999992015011222004+69650+018900FM-12+002099999V020999999999999999999999999999+99999+99999999999REMSYN04001027 26/// ///// 11091 21165 333 60005=
0049010270999992015011223004+69650+018900FM-12+002099999V020999999999999999999999999999+99999+99999999999REMSYN04001027 26/// ///// 11095 21175 333 60005=
0059010270999992015011300004+69650+018900FM-12+002099999V0209999C999999999999N999999999-01171-01891999999ADDAA106000091REMSYN03601027 16/// ///// 11117 21189 60001=
0049010270999992015011301004+69650+018900FM-12+002099999V020999999999999999999999999999+99999+99999999999REMSYN04001027 26/// ///// 11107 21192 333 60005=
0049010270999992015011302004+69650+018900FM-12+002099999V020999999999999999999999999999+99999+99999999999REMSYN04001027 26/// ///// 11096 21160 333 60005=
0049010270999992015011303004+69650+018900FM-12+002099999V020999999999999999999999999999+99999+99999999999REMSYN04001027 26/// ///// 11093 21155 333 60005=
0049010270999992015011304004+69650+018900FM-12+002099999V020999999999999999999999999999+99999+99999999999REMSYN04001027 26/// ///// 11094 21153 333 60005=
0049010270999992015011305004+69650+018900FM-12+002099999V020999999999999999999999999999+99999+99999999999REMSYN04001027 26/// ///// 11089 21144 333 60005=
0099010270999992015011306004+69650+018900FM-12+002099999V0209999C999999999999N999999999-00941-01441999999ADDAA112000091AA224000091KA1240N-01201REMSYN05201027 16/// ///// 11094 21144 60002 333 21120 70000=
0049010270999992015011307004+69650+018900FM-12+002099999V020999999999999999999999999999+99999+99999999999REMSYN04001027 26/// ///// 11078 21150 333 60005=
0049010270999992015011308004+69650+018900FM-12+002099999V020999999999999999999999999999+99999+99999999999REMSYN04001027 26/// ///// 11078 21138 333 60005=
0049010270999992015011309004+69650+018900FM-12+002099999V020999999999999999999999999999+99999+99999999999REMSYN04001027 26/// ///// 11079 21131 333 60005=
0049010270999992015011310004+69650+018900FM-12+002099999V020999999999999999999999999999+99999+99999999999REMSYN04001027 26/// ///// 11065 21117 333 60005=
0049010270999992015011311004+69650+018900FM-12+002099999V020999999999999999999999999999+99999+99999999999REMSYN04001027 26/// ///// 11055 21122 333 60005=
0059010270999992015011312004+69650+018900FM-12+002099999V0209999C999999999999N999999999-00551-01111999999ADDAA106000091REMSYN03601027 16/// ///// 11055 21111 60001=
0049010270999992015011313004+69650+018900FM-12+002099999V020999999999999999999999999999+99999+99999999999REMSYN04001027 26/// ///// 11056 21109 333 60005=
0049010270999992015011314004+69650+018900FM-12+002099999V020999999999999999999999999999+99999+99999999999REMSYN04001027 26/// ///// 11069 21120 333 60005=
0049010270999992015011316004+69650+018900FM-12+002099999V020999999999999999999999999999+99999+99999999999REMSYN04001027 26/// ///// 11064 21107 333 60005=
0049010270999992015011317004+69650+018900FM-12+002099999V020999999999999999999999999999+99999+99999999999REMSYN04001027 26/// ///// 11058 21111 333 60005=
0059010270999992015011318004+69650+018900FM-12+002099999V0209999C999999999999N999999999-00571-01101999999ADDAA199999919REMSYN03601027 16/// ///// 11057 21110 6////=
0049010270999992015011319004+69650+018900FM-12+002099999V020999999999999999999999999999+99999+99999999999REMSYN04001027 26/// ///// 11054 21102 333 60005=
0049010270999992015011320004+69650+018900FM-12+002099999V020999999999999999999999999999+99999+99999999999REMSYN04001027 26/// ///// 11051 21101 333 69915=
0049010270999992015011321004+69650+018900FM-12+002099999V020999999999999999999999999999+99999+99999999999REMSYN04001027 26/// ///// 11051 21102 333 60005=
0049010270999992015011322004+69650+018900FM-12+002099999V020999999999999999999999999999+99999+99999999999REMSYN04001027 26/// ///// 11043 21095 333 69915=
0049010270999992015011323004+69650+018900FM-12+002099999V020999999999999999999999999999+99999+99999999999REMSYN04001027 26/// ///// 11039 21095 333 60005=
0059010270999992015011400004+69650+018900FM-12+002099999V0209999C999999999999N999999999-00391-00961999999ADDAA106000231REMSYN03601027 16/// ///// 11039 21096 69921=
0049010270999992015011401004+69650+018900FM-12+002099999V020999999999999999999999999999+99999+99999999999REMSYN04001027 26/// ///// 11036 21091 333 69915=
0049010270999992015011402004+69650+018900FM-12+002099999V020999999999999999999999999999+99999+99999999999REMSYN04001027 26/// ///// 11031 21085 333 69915=
0049010270999992015011403004+69650+018900FM-12+002099999V020999999999999999999999999999+99999+99999999999REMSYN04001027 26/// ///// 11023 21083 333 60005=
0049010270999992015011404004+69650+018900FM-12+002099999V020999999999999999999999999999+99999+99999999999REMSYN04001027 26/// ///// 11021 21081 333 60005=
0049010270999992015011405004+69650+018900FM-12+002099999V020999999999999999999999999999+99999+99999999999REMSYN04001027 26/// ///// 11021 21081 333 60005=
0082010270999992015011406004+69650+018900FM-12+002099999V0209999C999999999999N999999999-00241-00831999999ADDAA112000431KA1240N-00611REMSYN04601027 16/// ///// 11024 21083 69942 333 21061=
0049010270999992015011407004+69650+018900FM-12+002099999V020999999999999999999999999999+99999+99999999999REMSYN04001027 26/// ///// 11029 21087 333 60005=
0049010270999992015011408004+69650+018900FM-12+002099999V020999999999999999999999999999+99999+99999999999REMSYN04001027 26/// ///// 11031 21091 333 60005=
0049010270999992015011409004+69650+018900FM-12+002099999V020999999999999999999999999999+99999+99999999999REMSYN04001027 26/// ///// 11028 21093 333 60005=
0049010270999992015011410004+69650+018900FM-12+002099999V020999999999999999999999999999+99999+99999999999REMSYN04001027 26/// ///// 11030 21091 333 60005=
0049010270999992015011411004+69650+018900FM-12+002099999V020999999999999999999999999999+99999+99999999999REMSYN04001027 26/// ///// 11028 21092 333 60005=
0059010270999992015011412004+69650+018900FM-12+002099999V0209999C999999999999N999999999-00271-00921999999ADDAA106000091REMSYN03601027 16/// ///// 11027 21092 60001=
0049010270999992015011413004+69650+018900FM-12+002099999V020999999999999999999999999999+99999+99999999999REMSYN04001027 26/// ///// 11029 21097 333 60005=
0049010270999992015011414004+69650+018900FM-12+002099999V020999999999999999999999999999+99999+99999999999REMSYN04001027 26/// ///// 11029 21098 333 60005=
0049010270999992015011415004+69650+018900FM-12+002099999V020999999999999999999999999999+99999+99999999999REMSYN04001027 26/// ///// 11032 21097 333 60005=
0049010270999992015011416004+69650+018900FM-12+002099999V020999999999999999999999999999+99999+99999999999REMSYN04001027 26/// ///// 11030 21094 333 60005=
0049010270999992015011417004+69650+018900FM-12+002099999V020999999999999999999999999999+99999+99999999999REMSYN04001027 26/// ///// 11037 21095 333 60005=
0082010270999992015011418004+69650+018900FM-12+002099999V0209999C999999999999N999999999-00481-01021999999ADDAA112000091KA1120M-00241REMSYN04601027 16/// ///// 11048 21102 60002 333 11024=
0049010270999992015011419004+69650+018900FM-12+002099999V020999999999999999999999999999+99999+99999999999REMSYN04001027 26/// ///// 11030 21094 333 60005=
0049010270999992015011420004+69650+018900FM-12+002099999V020999999999999999999999999999+99999+99999999999REMSYN04001027 26/// ///// 11030 21093 333 60005=
0049010270999992015011421004+69650+018900FM-12+002099999V020999999999999999999999999999+99999+99999999999REMSYN04001027 26/// ///// 11030 21094 333 60005=
0049010270999992015011422004+69650+018900FM-12+002099999V020999999999999999999999999999+99999+99999999999REMSYN04001027 26/// ///// 11028 21091 333 60005=
0049010270999992015011423004+69650+018900FM-12+002099999V020999999999999999999999999999+99999+99999999999REMSYN04001027 26/// ///// 11028 21092 333 60005=
0059010270999992015011500004+69650+018900FM-12+002099999V0209999C999999999999N999999999-00321-00931999999ADDAA106000091REMSYN03601027 16/// ///// 11032 21093 60001=
0049010270999992015011501004+69650+018900FM-12+002099999V020999999999999999999999999999+99999+99999999999REMSYN04001027 26/// ///// 11031 21094 333 60005=
0049010270999992015011502004+69650+018900FM-12+002099999V020999999999999999999999999999+99999+99999999999REMSYN04001027 26/// ///// 11035 21096 333 60005=
0049010270999992015011503004+69650+018900FM-12+002099999V020999999999999999999999999999+99999+99999999999REMSYN04001027 26/// ///// 11038 21101 333 60005=
0049010270999992015011504004+69650+018900FM-12+002099999V020999999999999999999999999999+99999+99999999999REMSYN04001027 26/// ///// 11040 21103 333 60005=
0049010270999992015011505004+69650+018900FM-12+002099999V020999999999999999999999999999+99999+99999999999REMSYN04001027 26/// ///// 11043 21100 333 60005=
0099010270999992015011506004+69650+018900FM-12+002099999V0209999C999999999999N999999999-00431-01001999999ADDAA112000091AA224000091KA1240N-00481REMSYN05201027 16/// ///// 11043 21100 60002 333 21048 70000=
0049010270999992015011507004+69650+018900FM-12+002099999V020999999999999999999999999999+99999+99999999999REMSYN04001027 26/// ///// 11043 21100 333 60005=
0049010270999992015011508004+69650+018900FM-12+002099999V020999999999999999999999999999+99999+99999999999REMSYN04001027 26/// ///// 11046 21099 333 60005=
0049010270999992015011509004+69650+018900FM-12+002099999V020999999999999999999999999999+99999+99999999999REMSYN04001027 26/// ///// 11046 21097 333 60005=
0049010270999992015011510004+69650+018900FM-12+002099999V020999999999999999999999999999+99999+99999999999REMSYN04001027 26/// ///// 11046 21094 333 60005=
0049010270999992015011511004+69650+018900FM-12+002099999V020999999999999999999999999999+99999+99999999999REMSYN04001027 26/// ///// 11047 21097 333 60005=
0059010270999992015011512004+69650+018900FM-12+002099999V0209999C999999999999N999999999-00491-00961999999ADDAA106000091REMSYN03601027 16/// ///// 11049 21096 60001=
0049010270999992015011513004+69650+018900FM-12+002099999V020999999999999999999999999999+99999+99999999999REMSYN04001027 26/// ///// 11048 21096 333 60005=
0049010270999992015011514004+69650+018900FM-12+002099999V020999999999999999999999999999+99999+99999999999REMSYN04001027 26/// ///// 11051 21093 333 60005=
0049010270999992015011515004+69650+018900FM-12+002099999V020999999999999999999999999999+99999+99999999999REMSYN04001027 26/// ///// 11060 21100 333 60005=
0049010270999992015011516004+69650+018900FM-12+002099999V020999999999999999999999999999+99999+99999999999REMSYN04001027 26/// ///// 11064 21100 333 60005=
0049010270999992015011517004+69650+018900FM-12+002099999V020999999999999999999999999999+99999+99999999999REMSYN04001027 26/// ///// 11068 21099 333 60005=
0082010270999992015011518004+69650+018900FM-12+002099999V0209999C999999999999N999999999-00711-00991999999ADDAA112000091KA1120M-00421REMSYN04601027 16/// ///// 11071 21099 60002 333 11042=
0049010270999992015011519004+69650+018900FM-12+002099999V020999999999999999999999999999+99999+99999999999REMSYN04001027 26/// ///// 11074 21099 333 60005=
0049010270999992015011520004+69650+018900FM-12+002099999V020999999999999999999999999999+99999+99999999999REMSYN04001027 26/// ///// 11072 21095 333 60005=
0049010270999992015011521004+69650+018900FM-12+002099999V020999999999999999999999999999+99999+99999999999REMSYN04001027 26/// ///// 11081 21101 333 60005=
0049010270999992015011522004+69650+018900FM-12+002099999V020999999999999999999999999999+99999+99999999999REMSYN04001027 26/// ///// 11074 21093 333 60005=
0049010270999992015011523004+69650+018900FM-12+002099999V020999999999999999999999999999+99999+99999999999REMSYN04001027 26/// ///// 11074 21091 333 60005=
0059010270999992015011600004+69650+018900FM-12+002099999V0209999C999999999999N999999999-00681-00871999999ADDAA106000091REMSYN03601027 16/// ///// 11068 21087 60001=
0049010270999992015011601004+69650+018900FM-12+002099999V020999999999999999999999999999+99999+99999999999REMSYN04001027 26/// ///// 11073 21092 333 60005=
0049010270999992015011602004+69650+018900FM-12+002099999V020999999999999999999999999999+99999+99999999999REMSYN04001027 26/// ///// 11057 21077 333 60005=
0049010270999992015011603004+69650+018900FM-12+002099999V020999999999999999999999999999+99999+99999999999REMSYN04001027 26/// ///// 11059 21080 333 60005=
0049010270999992015011604004+69650+018900FM-12+002099999V020999999999999999999999999999+99999+99999999999REMSYN04001027 26/// ///// 11051 21077 333 60005=
0049010270999992015011605004+69650+018900FM-12+002099999V020999999999999999999999999999+99999+99999999999REMSYN04001027 26/// ///// 11043 21074 333 60005=
0099010270999992015011606004+69650+018900FM-12+002099999V0209999C999999999999N999999999-00331-00711999999ADDAA112000091AA224000091KA1240N-00841REMSYN05201027 16/// ///// 11033 21071 60002 333 21084 70000=
0049010270999992015011607004+69650+018900FM-12+002099999V020999999999999999999999999999+99999+99999999999REMSYN04001027 26/// ///// 11012 21056 333 60005=
0049010270999992015011608004+69650+018900FM-12+002099999V020999999999999999999999999999+99999+99999999999REMSYN04001027 26/// ///// 11005 21055 333 60005=
0049010270999992015011609004+69650+018900FM-12+002099999V020999999999999999999999999999+99999+99999999999REMSYN04001027 26/// ///// 11016 21041 333 69915=
0049010270999992015011610004+69650+018900FM-12+002099999V020999999999999999999999999999+99999+99999999999REMSYN04001027 26/// ///// 11009 21047 333 60005=
0049010270999992015011611004+69650+018900FM-12+002099999V020999999999999999999999999999+99999+99999999999REMSYN04001027 26/// ///// 11006 21051 333 60005=
0059010270999992015011612004+69650+018900FM-12+002099999V0209999C999999999999N999999999-00131-00471999999ADDAA106000131REMSYN03601027 16/// ///// 11013 21047 69911=
0049010270999992015011613004+69650+018900FM-12+002099999V020999999999999999999999999999+99999+99999999999REMSYN04001027 26/// ///// 11013 21045 333 60005=
0049010270999992015011614004+69650+018900FM-12+002099999V020999999999999999999999999999+99999+99999999999REMSYN04001027 26/// ///// 11023 21052 333 60005=
0049010270999992015011615004+69650+018900FM-12+002099999V020999999999999999999999999999+99999+99999999999REMSYN04001027 26/// ///// 11023 21061 333 60005=
0049010270999992015011616004+69650+018900FM-12+002099999V020999999999999999999999999999+99999+99999999999REMSYN04001027 26/// ///// 11025 21062 333 60005=
0049010270999992015011617004+69650+018900FM-12+002099999V020999999999999999999999999999+99999+99999999999REMSYN04001027 26/// ///// 11018 21058 333 60005=
0082010270999992015011618004+69650+018900FM-12+002099999V0209999C999999999999N999999999-00091-00471999999ADDAA112000131KA1120M-00041REMSYN04601027 16/// ///// 11009 21047 69912 333 11004=
0049010270999992015011619004+69650+018900FM-12+002099999V020999999999999999999999999999+99999+99999999999REMSYN04001027 26/// ///// 11017 21055 333 60005=
0049010270999992015011620004+69650+018900FM-12+002099999V020999999999999999999999999999+99999+99999999999REMSYN04001027 26/// ///// 11021 21058 333 60005=
0049010270999992015011621004+69650+018900FM-12+002099999V020999999999999999999999999999+99999+99999999999REMSYN04001027 26/// ///// 11021 21056 333 60005=
0049010270999992015011622004+69650+018900FM-12+002099999V020999999999999999999999999999+99999+99999999999REMSYN04001027 26/// ///// 11021 21056 333 60005=
0049010270999992015011623004+69650+018900FM-12+002099999V020999999999999999999999999999+99999+99999999999REMSYN04001027 26/// ///// 11024 21056 333 60005=
0059010270999992015011700004+69650+018900FM-12+002099999V0209999C999999999999N999999999-00201-00501999999ADDAA106000091REMSYN03601027 16/// ///// 11020 21050 60001=
0049010270999992015011701004+69650+018900FM-12+002099999V020999999999999999999999999999+99999+99999999999REMSYN04001027 26/// ///// 11020 21046 333 60005=
0049010270999992015011702004+69650+018900FM-12+002099999V020999999999999999999999999999+99999+99999999999REMSYN04001027 26/// ///// 11014 21052 333 60005=
0049010270999992015011703004+69650+018900FM-12+002099999V020999999999999999999999999999+99999+99999999999REMSYN04001027 26/// ///// 11021 21054 333 60005=
0049010270999992015011704004+69650+018900FM-12+002099999V020999999999999999999999999999+99999+99999999999REMSYN04001027 26/// ///// 11019 21048 333 60005=
0049010270999992015011705004+69650+018900FM-12+002099999V020999999999999999999999999999+99999+99999999999REMSYN04001027 26/// ///// 11019 21048 333 60005=
0099010270999992015011706004+69650+018900FM-12+002099999V0209999C999999999999N999999999-00191-00481999999ADDAA112000091AA224000131KA1240N-00261REMSYN05201027 16/// ///// 11019 21048 60002 333 21026 70001=
0049010270999992015011707004+69650+018900FM-12+002099999V020999999999999999999999999999+99999+99999999999REMSYN04001027 26/// ///// 11019 21049 333 60005=
0049010270999992015011708004+69650+018900FM-12+002099999V020999999999999999999999999999+99999+99999999999REMSYN04001027 26/// ///// 11029 21050 333 60005=
0049010270999992015011709004+69650+018900FM-12+002099999V020999999999999999999999999999+99999+99999999999REMSYN04001027 26/// ///// 11031 21049 333 60005=
0049010270999992015011710004+69650+018900FM-12+002099999V020999999999999999999999999999+99999+99999999999REMSYN04001027 26/// ///// 11034 21053 333 60005=
0049010270999992015011711004+69650+018900FM-12+002099999V020999999999999999999999999999+99999+99999999999REMSYN04001027 26/// ///// 11029 21052 333 60005=
0059010270999992015011712004+69650+018900FM-12+002099999V0209999C999999999999N999999999-00231-00521999999ADDAA106000091REMSYN03601027 16/// ///// 11023 21052 60001=
0049010270999992015011713004+69650+018900FM-12+002099999V020999999999999999999999999999+99999+99999999999REMSYN04001027 26/// ///// 10002 21048 333 60005=
0049010270999992015011714004+69650+018900FM-12+002099999V020999999999999999999999999999+99999+99999999999REMSYN04001027 26/// ///// 10009 21054 333 60005=
0049010270999992015011715004+69650+018900FM-12+002099999V020999999999999999999999999999+99999+99999999999REMSYN04001027 26/// ///// 11012 21048 333 60005=
0049010270999992015011716004+69650+018900FM-12+002099999V020999999999999999999999999999+99999+99999999999REMSYN04001027 26/// ///// 11003 21041 333 60005=
0049010270999992015011717004+69650+018900FM-12+002099999V020999999999999999999999999999+99999+99999999999REMSYN04001027 26/// ///// 11002 21043 333 60005=
0082010270999992015011718004+69650+018900FM-12+002099999V0209999C999999999999N999999999-00051-00491999999ADDAA112000091KA1120M+00101REMSYN04601027 16/// ///// 11005 21049 60002 333 10010=
0049010270999992015011719004+69650+018900FM-12+002099999V020999999999999999999999999999+99999+99999999999REMSYN04001027 26/// ///// 11006 21047 333 60005=
0049010270999992015011720004+69650+018900FM-12+002099999V020999999999999999999999999999+99999+99999999999REMSYN04001027 26/// ///// 11002 21052 333 60005=
0049010270999992015011721004+69650+018900FM-12+002099999V020999999999999999999999999999+99999+99999999999REMSYN04001027 26/// ///// 11001 21053 333 60005=
0049010270999992015011722004+69650+018900FM-12+002099999V020999999999999999999999999999+99999+99999999999REMSYN04001027 26/// ///// 11004 21045 333 60005=
0049010270999992015011723004+69650+018900FM-12+002099999V020999999999999999999999999999+99999+99999999999REMSYN04001027 26/// ///// 10004 21029 333 60005=
0059010270999992015011800004+69650+018900FM-12+002099999V0209999C999999999999N999999999+00031-00141999999ADDAA106000331REMSYN03601027 16/// ///// 10003 21014 69931=
0049010270999992015011801004+69650+018900FM-12+002099999V020999999999999999999999999999+99999+99999999999REMSYN04001027 26/// ///// 10000 21011 333 69945=
0049010270999992015011802004+69650+018900FM-12+002099999V020999999999999999999999999999+99999+99999999999REMSYN04001027 26/// ///// 11002 21012 333 60005=
0049010270999992015011803004+69650+018900FM-12+002099999V020999999999999999999999999999+99999+99999999999REMSYN04001027 26/// ///// 11003 21016 333 60005=
0049010270999992015011804004+69650+018900FM-12+002099999V020999999999999999999999999999+99999+99999999999REMSYN04001027 26/// ///// 11003 21020 333 60005=
0049010270999992015011805004+69650+018900FM-12+002099999V020999999999999999999999999999+99999+99999999999REMSYN04001027 26/// ///// 11004 21035 333 60005=
0099010270999992015011806004+69650+018900FM-12+002099999V0209999C999999999999N999999999-00061-00441999999ADDAA112000731AA224000731KA1240N-00101REMSYN05201027 16/// ///// 11006 21044 69972 333 21010 70007=
0049010270999992015011807004+69650+018900FM-12+002099999V020999999999999999999999999999+99999+99999999999REMSYN04001027 26/// ///// 11011 21052 333 60005=
0049010270999992015011808004+69650+018900FM-12+002099999V020999999999999999999999999999+99999+99999999999REMSYN04001027 26/// ///// 11013 21062 333 60005=
0049010270999992015011809004+69650+018900FM-12+002099999V020999999999999999999999999999+99999+99999999999REMSYN04001027 26/// ///// 11015 21069 333 60005=
0049010270999992015011810004+69650+018900FM-12+002099999V020999999999999999999999999999+99999+99999999999REMSYN04001027 26/// ///// 11018 21076 333 60005=
0049010270999992015011811004+69650+018900FM-12+002099999V020999999999999999999999999999+99999+99999999999REMSYN04001027 26/// ///// 11022 21075 333 60005=
0059010270999992015011812004+69650+018900FM-12+002099999V0209999C999999999999N999999999-00231-00771999999ADDAA106000091REMSYN03601027 16/// ///// 11023 21077 60001=
0049010270999992015011813004+69650+018900FM-12+002099999V020999999999999999999999999999+99999+99999999999REMSYN04001027 26/// ///// 11022 21068 333 60005=
0049010270999992015011814004+69650+018900FM-12+002099999V020999999999999999999999999999+99999+99999999999REMSYN04001027 26/// ///// 11030 21080 333 60005=
0049010270999992015011815004+69650+018900FM-12+002099999V020999999999999999999999999999+99999+99999999999REMSYN04001027 26/// ///// 11025 21102 333 60005=
0049010270999992015011816004+69650+018900FM-12+002099999V020999999999999999999999999999+99999+99999999999REMSYN04001027 26/// ///// 11029 21106 333 60005=
0049010270999992015011817004+69650+018900FM-12+002099999V020999999999999999999999999999+99999+99999999999REMSYN04001027 26/// ///// 11030 21111 333 60005=
0082010270999992015011818004+69650+018900FM-12+002099999V0209999C999999999999N999999999-00411-01181999999ADDAA112000091KA1120M-00061REMSYN04601027 16/// ///// 11041 21118 60002 333 11006=
0049010270999992015011819004+69650+018900FM-12+002099999V020999999999999999999999999999+99999+99999999999REMSYN04001027 26/// ///// 11039 21100 333 60005=
0049010270999992015011820004+69650+018900FM-12+002099999V020999999999999999999999999999+99999+99999999999REMSYN04001027 26/// ///// 11041 21106 333 60005=
0049010270999992015011821004+69650+018900FM-12+002099999V020999999999999999999999999999+99999+99999999999REMSYN04001027 26/// ///// 11065 21126 333 60005=
0049010270999992015011822004+69650+018900FM-12+002099999V020999999999999999999999999999+99999+99999999999REMSYN04001027 26/// ///// 11053 21120 333 60005=
0049010270999992015011823004+69650+018900FM-12+002099999V020999999999999999999999999999+99999+99999999999REMSYN04001027 26/// ///// 11059 21122 333 60005=
0059010270999992015011900004+69650+018900FM-12+002099999V0209999C999999999999N999999999-00631-01241999999ADDAA106000091REMSYN03601027 16/// ///// 11063 21124 60001=
0049010270999992015011901004+69650+018900FM-12+002099999V020999999999999999999999999999+99999+99999999999REMSYN04001027 26/// ///// 11050 21125 333 60005=
0049010270999992015011902004+69650+018900FM-12+002099999V020999999999999999999999999999+99999+99999999999REMSYN04001027 26/// ///// 11058 21124 333 60005=
0049010270999992015011903004+69650+018900FM-12+002099999V020999999999999999999999999999+99999+99999999999REMSYN04001027 26/// ///// 11061 21129 333 60005=
0049010270999992015011904004+69650+018900FM-12+002099999V020999999999999999999999999999+99999+99999999999REMSYN04001027 26/// ///// 11075 21135 333 60005=
0049010270999992015011905004+69650+018900FM-12+002099999V020999999999999999999999999999+99999+99999999999REMSYN04001027 26/// ///// 11079 21135 333 60005=
0099010270999992015011906004+69650+018900FM-12+002099999V0209999C999999999999N999999999-00791-01221999999ADDAA112000091AA224000091KA1240N-00861REMSYN05201027 16/// ///// 11079 21122 60002 333 21086 70000=
0049010270999992015011907004+69650+018900FM-12+002099999V020999999999999999999999999999+99999+99999999999REMSYN04001027 26/// ///// 11086 21133 333 60005=
0049010270999992015011908004+69650+018900FM-12+002099999V020999999999999999999999999999+99999+99999999999REMSYN04001027 26/// ///// 11083 21128 333 60005=
0049010270999992015011909004+69650+018900FM-12+002099999V020999999999999999999999999999+99999+99999999999REMSYN04001027 26/// ///// 11091 21125 333 60005=
0049010270999992015011910004+69650+018900FM-12+002099999V020999999999999999999999999999+99999+99999999999REMSYN04001027 26/// ///// 11079 21125 333 60005=
0049010270999992015011911004+69650+018900FM-12+002099999V020999999999999999999999999999+99999+99999999999REMSYN04001027 26/// ///// 11070 21119 333 60005=
0059010270999992015011912004+69650+018900FM-12+002099999V0209999C999999999999N999999999-00871-01221999999ADDAA106000091REMSYN03601027 16/// ///// 11087 21122 60001=
0049010270999992015011913004+69650+018900FM-12+002099999V020999999999999999999999999999+99999+99999999999REMSYN04001027 26/// ///// 11093 21123 333 60005=
0049010270999992015011914004+69650+018900FM-12+002099999V020999999999999999999999999999+99999+99999999999REMSYN04001027 26/// ///// 11092 21124 333 60005=
0049010270999992015011915004+69650+018900FM-12+002099999V020999999999999999999999999999+99999+99999999999REMSYN04001027 26/// ///// 11086 21113 333 60005=
0049010270999992015011916004+69650+018900FM-12+002099999V020999999999999999999999999999+99999+99999999999REMSYN04001027 26/// ///// 11087 21118 333 60005=
0049010270999992015011917004+69650+018900FM-12+002099999V020999999999999999999999999999+99999+99999999999REMSYN04001027 26/// ///// 11078 21116 333 60005=
0082010270999992015011918004+69650+018900FM-12+002099999V0209999C999999999999N999999999-00741-01161999999ADDAA112000091KA1120M-00631REMSYN04601027 16/// ///// 11074 21116 60002 333 11063=
0049010270999992015011919004+69650+018900FM-12+002099999V020999999999999999999999999999+99999+99999999999REMSYN04001027 26/// ///// 11084 21119 333 60005=
0049010270999992015011920004+69650+018900FM-12+002099999V020999999999999999999999999999+99999+99999999999REMSYN04001027 26/// ///// 11084 21112 333 60005=
0049010270999992015011921004+69650+018900FM-12+002099999V020999999999999999999999999999+99999+99999999999REMSYN04001027 26/// ///// 11091 21118 333 60005=
0049010270999992015011922004+69650+018900FM-12+002099999V020999999999999999999999999999+99999+99999999999REMSYN04001027 26/// ///// 11081 21116 333 60005=
0049010270999992015011923004+69650+018900FM-12+002099999V020999999999999999999999999999+99999+99999999999REMSYN04001027 26/// ///// 11072 21104 333 60005=
0059010270999992015012000004+69650+018900FM-12+002099999V0209999C999999999999N999999999-00801-01191999999ADDAA106000091REMSYN03601027 16/// ///// 11080 21119 60001=
0049010270999992015012001004+69650+018900FM-12+002099999V020999999999999999999999999999+99999+99999999999REMSYN04001027 26/// ///// 11090 21118 333 60005=
0049010270999992015012002004+69650+018900FM-12+002099999V020999999999999999999999999999+99999+99999999999REMSYN04001027 26/// ///// 11086 21115 333 60005=
0049010270999992015012003004+69650+018900FM-12+002099999V020999999999999999999999999999+99999+99999999999REMSYN04001027 26/// ///// 11082 21111 333 60005=
0049010270999992015012004004+69650+018900FM-12+002099999V020999999999999999999999999999+99999+99999999999REMSYN04001027 26/// ///// 11081 21112 333 60005=
0049010270999992015012005004+69650+018900FM-12+002099999V020999999999999999999999999999+99999+99999999999REMSYN04001027 26/// ///// 11067 21109 333 60005=
0099010270999992015012006004+69650+018900FM-12+002099999V0209999C999999999999N999999999-00791-01081999999ADDAA112000091AA224000091KA1240N-00931REMSYN05201027 16/// ///// 11079 21108 60002 333 21093 70000=
0049010270999992015012007004+69650+018900FM-12+002099999V020999999999999999999999999999+99999+99999999999REMSYN04001027 26/// ///// 11067 21106 333 60005=
0049010270999992015012008004+69650+018900FM-12+002099999V020999999999999999999999999999+99999+99999999999REMSYN04001027 26/// ///// 11088 21116 333 60005=
0049010270999992015012009004+69650+018900FM-12+002099999V020999999999999999999999999999+99999+99999999999REMSYN04001027 26/// ///// 11087 21114 333 60005=
0049010270999992015012010004+69650+018900FM-12+002099999V020999999999999999999999999999+99999+99999999999REMSYN04001027 26/// ///// 11084 21106 333 60005=
0049010270999992015012011004+69650+018900FM-12+002099999V020999999999999999999999999999+99999+99999999999REMSYN04001027 26/// ///// 11084 21108 333 60005=
0059010270999992015012012004+69650+018900FM-12+002099999V0209999C999999999999N999999999-00851-01141999999ADDAA106000091REMSYN03601027 16/// ///// 11085 21114 60001=
0049010270999992015012013004+69650+018900FM-12+002099999V020999999999999999999999999999+99999+99999999999REMSYN04001027 26/// ///// 11082 21107 333 60005=
0049010270999992015012014004+69650+018900FM-12+002099999V020999999999999999999999999999+99999+99999999999REMSYN04001027 26/// ///// 11090 21117 333 60005=
0049010270999992015012015004+69650+018900FM-12+002099999V020999999999999999999999999999+99999+99999999999REMSYN04001027 26/// ///// 11094 21121 333 60005=
0049010270999992015012016004+69650+018900FM-12+002099999V020999999999999999999999999999+99999+99999999999REMSYN04001027 26/// ///// 11094 21121 333 60005=
0049010270999992015012017004+69650+018900FM-12+002099999V020999999999999999999999999999+99999+99999999999REMSYN04001027 26/// ///// 11096 21121 333 60005=
0082010270999992015012018004+69650+018900FM-12+002099999V0209999C999999999999N999999999-00921-01171999999ADDAA112000091KA1120M-00641REMSYN04601027 16/// ///// 11092 21117 60002 333 11064=
0049010270999992015012019004+69650+018900FM-12+002099999V020999999999999999999999999999+99999+99999999999REMSYN04001027 26/// ///// 11082 21105 333 60005=
0049010270999992015012020004+69650+018900FM-12+002099999V020999999999999999999999999999+99999+99999999999REMSYN04001027 26/// ///// 11079 21101 333 60005=
0049010270999992015012021004+69650+018900FM-12+002099999V020999999999999999999999999999+99999+99999999999REMSYN04001027 26/// ///// 11076 21105 333 60005=
0049010270999992015012022004+69650+018900FM-12+002099999V020999999999999999999999999999+99999+99999999999REMSYN04001027 26/// ///// 11076 21107 333 60005=
0049010270999992015012023004+69650+018900FM-12+002099999V020999999999999999999999999999+99999+99999999999REMSYN04001027 26/// ///// 11079 21110 333 60005=
0059010270999992015012100004+69650+018900FM-12+002099999V0209999C999999999999N999999999-00881-01141999999ADDAA106000091REMSYN03601027 16/// ///// 11088 21114 60001=
0049010270999992015012101004+69650+018900FM-12+002099999V020999999999999999999999999999+99999+99999999999REMSYN04001027 26/// ///// 11083 21112 333 60005=
0049010270999992015012102004+69650+018900FM-12+002099999V020999999999999999999999999999+99999+99999999999REMSYN04001027 26/// ///// 11086 21115 333 60005=
0049010270999992015012103004+69650+018900FM-12+002099999V020999999999999999999999999999+99999+99999999999REMSYN04001027 26/// ///// 11069 21100 333 60005=
0049010270999992015012104004+69650+018900FM-12+002099999V020999999999999999999999999999+99999+99999999999REMSYN04001027 26/// ///// 11078 21106 333 60005=
0049010270999992015012105004+69650+018900FM-12+002099999V020999999999999999999999999999+99999+99999999999REMSYN04001027 26/// ///// 11074 21106 333 60005=
0099010270999992015012106004+69650+018900FM-12+002099999V0209999C999999999999N999999999-00711-01021999999ADDAA112000091AA224000091KA1240N-00931REMSYN05201027 16/// ///// 11071 21102 60002 333 21093 70000=
0049010270999992015012107004+69650+018900FM-12+002099999V020999999999999999999999999999+99999+99999999999REMSYN04001027 26/// ///// 11071 21100 333 60005=
0049010270999992015012108004+69650+018900FM-12+002099999V020999999999999999999999999999+99999+99999999999REMSYN04001027 26/// ///// 11060 21091 333 60005=
0049010270999992015012109004+69650+018900FM-12+002099999V020999999999999999999999999999+99999+99999999999REMSYN04001027 26/// ///// 11051 21086 333 60005=
0049010270999992015012110004+69650+018900FM-12+002099999V020999999999999999999999999999+99999+99999999999REMSYN04001027 26/// ///// 11060 21094 333 60005=
0049010270999992015012111004+69650+018900FM-12+002099999V020999999999999999999999999999+99999+99999999999REMSYN04001027 26/// ///// 11057 21095 333 60005=
0059010270999992015012112004+69650+018900FM-12+002099999V0209999C999999999999N999999999-00681-00971999999ADDAA106000091REMSYN03601027 16/// ///// 11068 21097 60001=
0049010270999992015012113004+69650+018900FM-12+002099999V020999999999999999999999999999+99999+99999999999REMSYN04001027 26/// ///// 11071 21096 333 60005=
0049010270999992015012114004+69650+018900FM-12+002099999V020999999999999999999999999999+99999+99999999999REMSYN04001027 26/// ///// 11082 21111 333 60005=
0049010270999992015012115004+69650+018900FM-12+002099999V020999999999999999999999999999+99999+99999999999REMSYN04001027 26/// ///// 11077 21101 333 60005=
0049010270999992015012116004+69650+018900FM-12+002099999V020999999999999999999999999999+99999+99999999999REMSYN04001027 26/// ///// 11074 21095 333 60005=
0049010270999992015012117004+69650+018900FM-12+002099999V020999999999999999999999999999+99999+99999999999REMSYN04001027 26/// ///// 11076 21097 333 60005=
0082010270999992015012118004+69650+018900FM-12+002099999V0209999C999999999999N999999999-00801-01041999999ADDAA112000091KA1120M-00501REMSYN04601027 16/// ///// 11080 21104 60002 333 11050=
0049010270999992015012119004+69650+018900FM-12+002099999V020999999999999999999999999999+99999+99999999999REMSYN04001027 26/// ///// 11076 21097 333 60005=
0049010270999992015012120004+69650+018900FM-12+002099999V020999999999999999999999999999+99999+99999999999REMSYN04001027 26/// ///// 11074 21095 333 60005=
0049010270999992015012121004+69650+018900FM-12+002099999V020999999999999999999999999999+99999+99999999999REMSYN04001027 26/// ///// 11080 21100 333 60005=
0049010270999992015012122004+69650+018900FM-12+002099999V020999999999999999999999999999+99999+99999999999REMSYN04001027 26/// ///// 11078 21095 333 60005=
0049010270999992015012123004+69650+018900FM-12+002099999V020999999999999999999999999999+99999+99999999999REMSYN04001027 26/// ///// 11078 21094 333 60005=
0059010270999992015012200004+69650+018900FM-12+002099999V0209999C999999999999N999999999-00791-00951999999ADDAA106000091REMSYN03601027 16/// ///// 11079 21095 60001=
0049010270999992015012201004+69650+018900FM-12+002099999V020999999999999999999999999999+99999+99999999999REMSYN04001027 26/// ///// 11075 21089 333 60005=
0049010270999992015012202004+69650+018900FM-12+002099999V020999999999999999999999999999+99999+99999999999REMSYN04001027 26/// ///// 11073 21086 333 60005=
0049010270999992015012203004+69650+018900FM-12+002099999V020999999999999999999999999999+99999+99999999999REMSYN04001027 26/// ///// 11068 21082 333 60005=
0049010270999992015012204004+69650+018900FM-12+002099999V020999999999999999999999999999+99999+99999999999REMSYN04001027 26/// ///// 11074 21088 333 60005=
0049010270999992015012205004+69650+018900FM-12+002099999V020999999999999999999999999999+99999+99999999999REMSYN04001027 26/// ///// 11066 21082 333 60005=
0099010270999992015012206004+69650+018900FM-12+002099999V0209999C999999999999N999999999-00601-00771999999ADDAA112000091AA224000091KA1240N-00811REMSYN05201027 16/// ///// 11060 21077 60002 333 21081 70000=
0049010270999992015012207004+69650+018900FM-12+002099999V020999999999999999999999999999+99999+99999999999REMSYN04001027 26/// ///// 11061 21081 333 60005=
0049010270999992015012208004+69650+018900FM-12+002099999V020999999999999999999999999999+99999+99999999999REMSYN04001027 26/// ///// 11066 21088 333 60005=
0049010270999992015012209004+69650+018900FM-12+002099999V020999999999999999999999999999+99999+99999999999REMSYN04001027 26/// ///// 11061 21083 333 60005=
0049010270999992015012210004+69650+018900FM-12+002099999V020999999999999999999999999999+99999+99999999999REMSYN04001027 26/// ///// 11064 21089 333 60005=
0049010270999992015012211004+69650+018900FM-12+002099999V020999999999999999999999999999+99999+99999999999REMSYN04001027 26/// ///// 11055 21085 333 60005=
0059010270999992015012212004+69650+018900FM-12+002099999V0209999C999999999999N999999999-00511-00841999999ADDAA106000091REMSYN03601027 16/// ///// 11051 21084 60001=
0049010270999992015012213004+69650+018900FM-12+002099999V020999999999999999999999999999+99999+99999999999REMSYN04001027 26/// ///// 11052 21091 333 60005=
0049010270999992015012214004+69650+018900FM-12+002099999V020999999999999999999999999999+99999+99999999999REMSYN04001027 26/// ///// 11056 21095 333 60005=
0049010270999992015012215004+69650+018900FM-12+002099999V020999999999999999999999999999+99999+99999999999REMSYN04001027 26/// ///// 11061 21098 333 60005=
0049010270999992015012216004+69650+018900FM-12+002099999V020999999999999999999999999999+99999+99999999999REMSYN04001027 26/// ///// 11069 21099 333 60005=
0049010270999992015012217004+69650+018900FM-12+002099999V020999999999999999999999999999+99999+99999999999REMSYN04001027 26/// ///// 11068 21098 333 60005=
0082010270999992015012218004+69650+018900FM-12+002099999V0209999C999999999999N999999999-00641-00961999999ADDAA112000091KA1120M-00471REMSYN04601027 16/// ///// 11064 21096 60002 333 11047=
0049010270999992015012219004+69650+018900FM-12+002099999V020999999999999999999999999999+99999+99999999999REMSYN04001027 26/// ///// 11059 21094 333 60005=
0049010270999992015012220004+69650+018900FM-12+002099999V020999999999999999999999999999+99999+99999999999REMSYN04001027 26/// ///// 11061 21095 333 60005=
0049010270999992015012221004+69650+018900FM-12+002099999V020999999999999999999999999999+99999+99999999999REMSYN04001027 26/// ///// 11058 21098 333 60005=
0049010270999992015012222004+69650+018900FM-12+002099999V020999999999999999999999999999+99999+99999999999REMSYN04001027 26/// ///// 11062 21098 333 60005=
0049010270999992015012223004+69650+018900FM-12+002099999V020999999999999999999999999999+99999+99999999999REMSYN04001027 26/// ///// 11073 21102 333 60005=
0059010270999992015012300004+69650+018900FM-12+002099999V0209999C999999999999N999999999-00721-01121999999ADDAA106000091REMSYN03601027 16/// ///// 11072 21112 60001=
0049010270999992015012301004+69650+018900FM-12+002099999V020999999999999999999999999999+99999+99999999999REMSYN04001027 26/// ///// 11067 21101 333 60005=
0049010270999992015012302004+69650+018900FM-12+002099999V020999999999999999999999999999+99999+99999999999REMSYN04001027 26/// ///// 11071 21104 333 60005=
0049010270999992015012303004+69650+018900FM-12+002099999V020999999999999999999999999999+99999+99999999999REMSYN04001027 26/// ///// 11068 21105 333 60005=
0049010270999992015012304004+69650+018900FM-12+002099999V020999999999999999999999999999+99999+99999999999REMSYN04001027 26/// ///// 11071 21109 333 60005=
0049010270999992015012305004+69650+018900FM-12+002099999V020999999999999999999999999999+99999+99999999999REMSYN04001027 26/// ///// 11077 21107 333 60005=
0099010270999992015012306004+69650+018900FM-12+002099999V0209999C999999999999N999999999-00801-01111999999ADDAA112000091AA224000091KA1240N-00801REMSYN05201027 16/// ///// 11080 21111 60002 333 21080 70000=
0049010270999992015012307004+69650+018900FM-12+002099999V020999999999999999999999999999+99999+99999999999REMSYN04001027 26/// ///// 11080 21111 333 60005=
0049010270999992015012308004+69650+018900FM-12+002099999V020999999999999999999999999999+99999+99999999999REMSYN04001027 26/// ///// 11072 21113 333 60005=
0049010270999992015012309004+69650+018900FM-12+002099999V020999999999999999999999999999+99999+99999999999REMSYN04001027 26/// ///// 11075 21111 333 60005=
0049010270999992015012310004+69650+018900FM-12+002099999V020999999999999999999999999999+99999+99999999999REMSYN04001027 26/// ///// 11071 21112 333 60005=
0049010270999992015012311004+69650+018900FM-12+002099999V020999999999999999999999999999+99999+99999999999REMSYN04001027 26/// ///// 11066 21108 333 60005=
0059010270999992015012312004+69650+018900FM-12+002099999V0209999C999999999999N999999999-00701-01081999999ADDAA106000091REMSYN03601027 16/// ///// 11070 21108 60001=
0049010270999992015012313004+69650+018900FM-12+002099999V020999999999999999999999999999+99999+99999999999REMSYN04001027 26/// ///// 11088 21121 333 60005=
0049010270999992015012314004+69650+018900FM-12+002099999V020999999999999999999999999999+99999+99999999999REMSYN04001027 26/// ///// 11084 21118 333 60005=
0049010270999992015012315004+69650+018900FM-12+002099999V020999999999999999999999999999+99999+99999999999REMSYN04001027 26/// ///// 11091 21123 333 60005=
0049010270999992015012316004+69650+018900FM-12+002099999V020999999999999999999999999999+99999+99999999999REMSYN04001027 26/// ///// 11085 21117 333 60005=
0049010270999992015012317004+69650+018900FM-12+002099999V020999999999999999999999999999+99999+99999999999REMSYN04001027 26/// ///// 11083 21119 333 60005=
0082010270999992015012318004+69650+018900FM-12+002099999V0209999C999999999999N999999999-00731-01121999999ADDAA112000091KA1120M-00651REMSYN04601027 16/// ///// 11073 21112 60002 333 11065=
0049010270999992015012319004+69650+018900FM-12+002099999V020999999999999999999999999999+99999+99999999999REMSYN04001027 26/// ///// 11048 21130 333 60005=
0049010270999992015012320004+69650+018900FM-12+002099999V020999999999999999999999999999+99999+99999999999REMSYN04001027 26/// ///// 11038 21135 333 60005=
0049010270999992015012321004+69650+018900FM-12+002099999V020999999999999999999999999999+99999+99999999999REMSYN04001027 26/// ///// 11041 21137 333 60005=
0049010270999992015012322004+69650+018900FM-12+002099999V020999999999999999999999999999+99999+99999999999REMSYN04001027 26/// ///// 11038 21132 333 60005=
0049010270999992015012323004+69650+018900FM-12+002099999V020999999999999999999999999999+99999+99999999999REMSYN04001027 26/// ///// 11040 21125 333 60005=
0059010270999992015012400004+69650+018900FM-12+002099999V0209999C999999999999N999999999-00431-01201999999ADDAA106000091REMSYN03601027 16/// ///// 11043 21120 60001=
0049010270999992015012401004+69650+018900FM-12+002099999V020999999999999999999999999999+99999+99999999999REMSYN04001027 26/// ///// 11045 21118 333 60005=
0049010270999992015012402004+69650+018900FM-12+002099999V020999999999999999999999999999+99999+99999999999REMSYN04001027 26/// ///// 11048 21117 333 60005=
0049010270999992015012403004+69650+018900FM-12+002099999V020999999999999999999999999999+99999+99999999999REMSYN04001027 26/// ///// 11051 21117 333 60005=
0049010270999992015012404004+69650+018900FM-12+002099999V020999999999999999999999999999+99999+99999999999REMSYN04001027 26/// ///// 11053 21116 333 60005=
0049010270999992015012405004+69650+018900FM-12+002099999V020999999999999999999999999999+99999+99999999999REMSYN04001027 26/// ///// 11051 21117 333 60005=
0099010270999992015012406004+69650+018900FM-12+002099999V0209999C999999999999N999999999-00511-01171999999ADDAA112000091AA224000091KA1240N-00791REMSYN05201027 16/// ///// 11051 21117 60002 333 21079 70000=
0049010270999992015012407004+69650+018900FM-12+002099999V020999999999999999999999999999+99999+99999999999REMSYN04001027 26/// ///// 11053 21122 333 60005=
0049010270999992015012408004+69650+018900FM-12+002099999V020999999999999999999999999999+99999+99999999999REMSYN04001027 26/// ///// 11053 21121 333 60005=
0049010270999992015012409004+69650+018900FM-12+002099999V020999999999999999999999999999+99999+99999999999REMSYN04001027 26/// ///// 11051 21123 333 60005=
0049010270999992015012410004+69650+018900FM-12+002099999V020999999999999999999999999999+99999+99999999999REMSYN04001027 26/// ///// 11049 21122 333 60005=
0049010270999992015012411004+69650+018900FM-12+002099999V020999999999999999999999999999+99999+99999999999REMSYN04001027 26/// ///// 11051 21122 333 60005=
0059010270999992015012412004+69650+018900FM-12+002099999V0209999C999999999999N999999999-00531-01211999999ADDAA106000091REMSYN03601027 16/// ///// 11053 21121 60001=
0049010270999992015012413004+69650+018900FM-12+002099999V020999999999999999999999999999+99999+99999999999REMSYN04001027 26/// ///// 11054 21121 333 60005=
0049010270999992015012414004+69650+018900FM-12+002099999V020999999999999999999999999999+99999+99999999999REMSYN04001027 26/// ///// 11053 21124 333 60005=
0049010270999992015012415004+69650+018900FM-12+002099999V020999999999999999999999999999+99999+99999999999REMSYN04001027 26/// ///// 11052 21117 333 60005=
0049010270999992015012416004+69650+018900FM-12+002099999V020999999999999999999999999999+99999+99999999999REMSYN04001027 26/// ///// 11055 21121 333 60005=
0049010270999992015012417004+69650+018900FM-12+002099999V020999999999999999999999999999+99999+99999999999REMSYN04001027 26/// ///// 11051 21116 333 60005=
0082010270999992015012418004+69650+018900FM-12+002099999V0209999C999999999999N999999999-00501-01081999999ADDAA112000091KA1120M-00451REMSYN04601027 16/// ///// 11050 21108 60002 333 11045=
0049010270999992015012419004+69650+018900FM-12+002099999V020999999999999999999999999999+99999+99999999999REMSYN04001027 26/// ///// 11047 21098 333 60005=
0049010270999992015012420004+69650+018900FM-12+002099999V020999999999999999999999999999+99999+99999999999REMSYN04001027 26/// ///// 11045 21096 333 60005=
0049010270999992015012421004+69650+018900FM-12+002099999V020999999999999999999999999999+99999+99999999999REMSYN04001027 26/// ///// 11048 21078 333 60005=
0049010270999992015012422004+69650+018900FM-12+002099999V020999999999999999999999999999+99999+99999999999REMSYN04001027 26/// ///// 11050 21066 333 69925=
0049010270999992015012423004+69650+018900FM-12+002099999V020999999999999999999999999999+99999+99999999999REMSYN04001027 26/// ///// 11046 21059 333 69965=
0059010270999992015012500004+69650+018900FM-12+002099999V0209999C999999999999N999999999-00411-00511999999ADDAA106002031REMSYN03601027 16/// ///// 11041 21051 60021=
0049010270999992015012501004+69650+018900FM-12+002099999V020999999999999999999999999999+99999+99999999999REMSYN04001027 26/// ///// 11034 21043 333 69995=
0049010270999992015012502004+69650+018900FM-12+002099999V020999999999999999999999999999+99999+99999999999REMSYN04001027 26/// ///// 11025 21034 333 69915=
0049010270999992015012503004+69650+018900FM-12+002099999V020999999999999999999999999999+99999+99999999999REMSYN04001027 26/// ///// 11008 21024 333 60005=
0049010270999992015012504004+69650+018900FM-12+002099999V020999999999999999999999999999+99999+99999999999REMSYN04001027 26/// ///// 11004 21016 333 69925=
0049010270999992015012505004+69650+018900FM-12+002099999V020999999999999999999999999999+99999+99999999999REMSYN04001027 26/// ///// 10005 21016 333 60005=
0099010270999992015012506004+69650+018900FM-12+002099999V0209999C999999999999N999999999+00061-00121999999ADDAA112003031AA224003131KA1240N-00501REMSYN05201027 16/// ///// 10006 21012 60032 333 21050 70031=
0049010270999992015012507004+69650+018900FM-12+002099999V020999999999999999999999999999+99999+99999999999REMSYN04001027 26/// ///// 10007 21009 333 69925=
0049010270999992015012508004+69650+018900FM-12+002099999V020999999999999999999999999999+99999+99999999999REMSYN04001027 26/// ///// 10012 21006 333 69925=
0049010270999992015012509004+69650+018900FM-12+002099999V020999999999999999999999999999+99999+99999999999REMSYN04001027 26/// ///// 10018 21008 333 60005=
0049010270999992015012510004+69650+018900FM-12+002099999V020999999999999999999999999999+99999+99999999999REMSYN04001027 26/// ///// 10020 21002 333 69915=
0049010270999992015012511004+69650+018900FM-12+002099999V020999999999999999999999999999+99999+99999999999REMSYN04001027 26/// ///// 10025 21003 333 60005=
0059010270999992015012512004+69650+018900FM-12+002099999V0209999C999999999999N999999999+00261-00071999999ADDAA106000531REMSYN03601027 16/// ///// 10026 21007 69951=
0049010270999992015012513004+69650+018900FM-12+002099999V020999999999999999999999999999+99999+99999999999REMSYN04001027 26/// ///// 10029 21006 333 60005=
0049010270999992015012514004+69650+018900FM-12+002099999V020999999999999999999999999999+99999+99999999999REMSYN04001027 26/// ///// 10029 21003 333 60005=
0049010270999992015012515004+69650+018900FM-12+002099999V020999999999999999999999999999+99999+99999999999REMSYN04001027 26/// ///// 10029 21006 333 60005=
0049010270999992015012516004+69650+018900FM-12+002099999V020999999999999999999999999999+99999+99999999999REMSYN04001027 26/// ///// 10030 21013 333 60005=
0049010270999992015012517004+69650+018900FM-12+002099999V020999999999999999999999999999+99999+99999999999REMSYN04001027 26/// ///// 10030 21019 333 60005=
0082010270999992015012518004+69650+018900FM-12+002099999V0209999C999999999999N999999999+00241-00201999999ADDAA112000531KA1120M+00311REMSYN04601027 16/// ///// 10024 21020 69952 333 10031=
0049010270999992015012519004+69650+018900FM-12+002099999V020999999999999999999999999999+99999+99999999999REMSYN04001027 26/// ///// 10024 21024 333 60005=
0049010270999992015012520004+69650+018900FM-12+002099999V020999999999999999999999999999+99999+99999999999REMSYN04001027 26/// ///// 10024 21030 333 60005=
0049010270999992015012521004+69650+018900FM-12+002099999V020999999999999999999999999999+99999+99999999999REMSYN04001027 26/// ///// 10023 21031 333 60005=
0049010270999992015012522004+69650+018900FM-12+002099999V020999999999999999999999999999+99999+99999999999REMSYN04001027 26/// ///// 10026 21041 333 60005=
0049010270999992015012523004+69650+018900FM-12+002099999V020999999999999999999999999999+99999+99999999999REMSYN04001027 26/// ///// 10031 21058 333 60005=
0059010270999992015012600004+69650+018900FM-12+002099999V0209999C999999999999N999999999+00291-00571999999ADDAA106000091REMSYN03601027 16/// ///// 10029 21057 60001=
0049010270999992015012601004+69650+018900FM-12+002099999V020999999999999999999999999999+99999+99999999999REMSYN04001027 26/// ///// 10028 21048 333 69915=
0049010270999992015012602004+69650+018900FM-12+002099999V020999999999999999999999999999+99999+99999999999REMSYN04001027 26/// ///// 10008 21012 333 69965=
0049010270999992015012603004+69650+018900FM-12+002099999V020999999999999999999999999999+99999+99999999999REMSYN04001027 26/// ///// 10006 21006 333 69965=
0049010270999992015012604004+69650+018900FM-12+002099999V020999999999999999999999999999+99999+99999999999REMSYN04001027 26/// ///// 10010 21003 333 60015=
0049010270999992015012605004+69650+018900FM-12+002099999V020999999999999999999999999999+99999+99999999999REMSYN04001027 26/// ///// 10018 21002 333 69945=
0099010270999992015012606004+69650+018900FM-12+002099999V0209999C999999999999N999999999+00211-00091999999ADDAA112003031AA224003431KA1240N+00051REMSYN05201027 16/// ///// 10021 21009 60032 333 20005 70034=
0049010270999992015012607004+69650+018900FM-12+002099999V020999999999999999999999999999+99999+99999999999REMSYN04001027 26/// ///// 10027 21017 333 69915=
0049010270999992015012608004+69650+018900FM-12+002099999V020999999999999999999999999999+99999+99999999999REMSYN04001027 26/// ///// 10033 21019 333 60005=
0049010270999992015012609004+69650+018900FM-12+002099999V020999999999999999999999999999+99999+99999999999REMSYN04001027 26/// ///// 10032 21015 333 60005=
0049010270999992015012610004+69650+018900FM-12+002099999V020999999999999999999999999999+99999+99999999999REMSYN04001027 26/// ///// 10033 21018 333 60005=
0049010270999992015012611004+69650+018900FM-12+002099999V020999999999999999999999999999+99999+99999999999REMSYN04001027 26/// ///// 10044 21019 333 60005=
0059010270999992015012612004+69650+018900FM-12+002099999V0209999C999999999999N999999999+00391-00141999999ADDAA106000231REMSYN03601027 16/// ///// 10039 21014 69921=
0049010270999992015012613004+69650+018900FM-12+002099999V020999999999999999999999999999+99999+99999999999REMSYN04001027 26/// ///// 10042 21020 333 60005=
0049010270999992015012614004+69650+018900FM-12+002099999V020999999999999999999999999999+99999+99999999999REMSYN04001027 26/// ///// 10045 21024 333 60005=
0049010270999992015012615004+69650+018900FM-12+002099999V020999999999999999999999999999+99999+99999999999REMSYN04001027 26/// ///// 10031 21002 333 69915=
0049010270999992015012616004+69650+018900FM-12+002099999V020999999999999999999999999999+99999+99999999999REMSYN04001027 26/// ///// 10040 21009 333 60005=
0049010270999992015012617004+69650+018900FM-12+002099999V020999999999999999999999999999+99999+99999999999REMSYN04001027 26/// ///// 10038 21023 333 60005=
0082010270999992015012618004+69650+018900FM-12+002099999V0209999C999999999999N999999999+00401-00261999999ADDAA112000331KA1120M+00491REMSYN04601027 16/// ///// 10040 21026 69932 333 10049=
0049010270999992015012619004+69650+018900FM-12+002099999V020999999999999999999999999999+99999+99999999999REMSYN04001027 26/// ///// 10038 21036 333 60005=
0049010270999992015012620004+69650+018900FM-12+002099999V020999999999999999999999999999+99999+99999999999REMSYN04001027 26/// ///// 10038 21033 333 60005=
0049010270999992015012621004+69650+018900FM-12+002099999V020999999999999999999999999999+99999+99999999999REMSYN04001027 26/// ///// 10035 21036 333 60005=
0049010270999992015012622004+69650+018900FM-12+002099999V020999999999999999999999999999+99999+99999999999REMSYN04001027 26/// ///// 10036 21039 333 60005=
0049010270999992015012623004+69650+018900FM-12+002099999V020999999999999999999999999999+99999+99999999999REMSYN04001027 26/// ///// 10038 21044 333 60005=
0059010270999992015012700004+69650+018900FM-12+002099999V0209999C999999999999N999999999+00341-00361999999ADDAA106000091REMSYN03601027 16/// ///// 10034 21036 60001=
0049010270999992015012701004+69650+018900FM-12+002099999V020999999999999999999999999999+99999+99999999999REMSYN04001027 26/// ///// 10031 21027 333 60005=
0049010270999992015012702004+69650+018900FM-12+002099999V020999999999999999999999999999+99999+99999999999REMSYN04001027 26/// ///// 10032 21030 333 60005=
0049010270999992015012703004+69650+018900FM-12+002099999V020999999999999999999999999999+99999+99999999999REMSYN04001027 26/// ///// 10032 21025 333 60005=
0049010270999992015012704004+69650+018900FM-12+002099999V020999999999999999999999999999+99999+99999999999REMSYN04001027 26/// ///// 10029 21021 333 60005=
0049010270999992015012705004+69650+018900FM-12+002099999V020999999999999999999999999999+99999+99999999999REMSYN04001027 26/// ///// 10032 21027 333 60005=
0099010270999992015012706004+69650+018900FM-12+002099999V0209999C999999999999N999999999+00291-00251999999ADDAA112000091AA224000331KA1240N+00271REMSYN05201027 16/// ///// 10029 21025 60002 333 20027 70003=
0049010270999992015012707004+69650+018900FM-12+002099999V020999999999999999999999999999+99999+99999999999REMSYN04001027 26/// ///// 10026 21022 333 69915=
0049010270999992015012708004+69650+018900FM-12+002099999V020999999999999999999999999999+99999+99999999999REMSYN04001027 26/// ///// 10028 21019 333 60005=
0049010270999992015012709004+69650+018900FM-12+002099999V020999999999999999999999999999+99999+99999999999REMSYN04001027 26/// ///// 10023 21014 333 69915=
0049010270999992015012710004+69650+018900FM-12+002099999V020999999999999999999999999999+99999+99999999999REMSYN04001027 26/// ///// 10026 21017 333 69915=
0049010270999992015012711004+69650+018900FM-12+002099999V020999999999999999999999999999+99999+99999999999REMSYN04001027 26/// ///// 10021 21012 333 69935=
0059010270999992015012712004+69650+018900FM-12+002099999V0209999C999999999999N999999999+00191-00111999999ADDAA106001031REMSYN03601027 16/// ///// 10019 21011 60011=
0049010270999992015012713004+69650+018900FM-12+002099999V020999999999999999999999999999+99999+99999999999REMSYN04001027 26/// ///// 10019 21010 333 69925=
0049010270999992015012714004+69650+018900FM-12+002099999V020999999999999999999999999999+99999+99999999999REMSYN04001027 26/// ///// 10022 21014 333 60005=
0049010270999992015012715004+69650+018900FM-12+002099999V020999999999999999999999999999+99999+99999999999REMSYN04001027 26/// ///// 10021 21014 333 69915=
0049010270999992015012716004+69650+018900FM-12+002099999V020999999999999999999999999999+99999+99999999999REMSYN04001027 26/// ///// 10020 21014 333 60005=
0049010270999992015012717004+69650+018900FM-12+002099999V020999999999999999999999999999+99999+99999999999REMSYN04001027 26/// ///// 10022 21020 333 69915=
0082010270999992015012718004+69650+018900FM-12+002099999V0209999C999999999999N999999999+00251-00211999999ADDAA112001031KA1120M+00291REMSYN04601027 16/// ///// 10025 21021 60012 333 10029=
0049010270999992015012719004+69650+018900FM-12+002099999V020999999999999999999999999999+99999+99999999999REMSYN04001027 26/// ///// 10025 21023 333 60005=
0049010270999992015012720004+69650+018900FM-12+002099999V020999999999999999999999999999+99999+99999999999REMSYN04001027 26/// ///// 10023 21029 333 69915=
0049010270999992015012721004+69650+018900FM-12+002099999V020999999999999999999999999999+99999+99999999999REMSYN04001027 26/// ///// 10023 21027 333 60005=
0049010270999992015012722004+69650+018900FM-12+002099999V020999999999999999999999999999+99999+99999999999REMSYN04001027 26/// ///// 10021 21032 333 60005=
0049010270999992015012723004+69650+018900FM-12+002099999V020999999999999999999999999999+99999+99999999999REMSYN04001027 26/// ///// 10017 21035 333 60005=
0059010270999992015012800004+69650+018900FM-12+002099999V0209999C999999999999N999999999+00081-00391999999ADDAA106000131REMSYN03601027 16/// ///// 10008 21039 69911=
0049010270999992015012801004+69650+018900FM-12+002099999V020999999999999999999999999999+99999+99999999999REMSYN04001027 26/// ///// 10004 21045 333 60005=
0049010270999992015012802004+69650+018900FM-12+002099999V020999999999999999999999999999+99999+99999999999REMSYN04001027 26/// ///// 11003 21039 333 60005=
0049010270999992015012803004+69650+018900FM-12+002099999V020999999999999999999999999999+99999+99999999999REMSYN04001027 26/// ///// 11013 21038 333 60005=
0049010270999992015012804004+69650+018900FM-12+002099999V020999999999999999999999999999+99999+99999999999REMSYN04001027 26/// ///// 11021 21046 333 60005=
0049010270999992015012805004+69650+018900FM-12+002099999V020999999999999999999999999999+99999+99999999999REMSYN04001027 26/// ///// 11030 21055 333 60005=
0099010270999992015012806004+69650+018900FM-12+002099999V0209999C999999999999N999999999-00281-00551999999ADDAA112000131AA224001531KA1240N-00341REMSYN05201027 16/// ///// 11028 21055 69912 333 21034 70015=
0049010270999992015012807004+69650+018900FM-12+002099999V020999999999999999999999999999+99999+99999999999REMSYN04001027 26/// ///// 11037 21061 333 60005=
0049010270999992015012808004+69650+018900FM-12+002099999V020999999999999999999999999999+99999+99999999999REMSYN04001027 26/// ///// 11037 21060 333 60005=
0049010270999992015012809004+69650+018900FM-12+002099999V020999999999999999999999999999+99999+99999999999REMSYN04001027 26/// ///// 11035 21053 333 60005=
0049010270999992015012810004+69650+018900FM-12+002099999V020999999999999999999999999999+99999+99999999999REMSYN04001027 26/// ///// 11037 21054 333 60005=
0049010270999992015012811004+69650+018900FM-12+002099999V020999999999999999999999999999+99999+99999999999REMSYN04001027 26/// ///// 11042 21056 333 60005=
0059010270999992015012812004+69650+018900FM-12+002099999V0209999C999999999999N999999999-00451-00571999999ADDAA106000091REMSYN03601027 16/// ///// 11045 21057 60001=
0049010270999992015012813004+69650+018900FM-12+002099999V020999999999999999999999999999+99999+99999999999REMSYN04001027 26/// ///// 11046 21058 333 60005=
0049010270999992015012814004+69650+018900FM-12+002099999V020999999999999999999999999999+99999+99999999999REMSYN04001027 26/// ///// 11046 21058 333 60005=
0049010270999992015012815004+69650+018900FM-12+002099999V020999999999999999999999999999+99999+99999999999REMSYN04001027 26/// ///// 11048 21060 333 60005=
0049010270999992015012816004+69650+018900FM-12+002099999V020999999999999999999999999999+99999+99999999999REMSYN04001027 26/// ///// 11055 21067 333 60005=
0049010270999992015012817004+69650+018900FM-12+002099999V020999999999999999999999999999+99999+99999999999REMSYN04001027 26/// ///// 11055 21066 333 60005=
0082010270999992015012818004+69650+018900FM-12+002099999V0209999C999999999999N999999999-00461-00571999999ADDAA112000091KA1120M-00271REMSYN04601027 16/// ///// 11046 21057 60002 333 11027=
0049010270999992015012819004+69650+018900FM-12+002099999V020999999999999999999999999999+99999+99999999999REMSYN04001027 26/// ///// 11030 21057 333 60005=
0049010270999992015012820004+69650+018900FM-12+002099999V020999999999999999999999999999+99999+99999999999REMSYN04001027 26/// ///// 11009 21062 333 60005=
0049010270999992015012821004+69650+018900FM-12+002099999V020999999999999999999999999999+99999+99999999999REMSYN04001027 26/// ///// 11012 21075 333 60005=
0049010270999992015012822004+69650+018900FM-12+002099999V020999999999999999999999999999+99999+99999999999REMSYN04001027 26/// ///// 11018 21081 333 60005=
0049010270999992015012823004+69650+018900FM-12+002099999V020999999999999999999999999999+99999+99999999999REMSYN04001027 26/// ///// 11022 21080 333 60005=
0059010270999992015012900004+69650+018900FM-12+002099999V0209999C999999999999N999999999-00261-00781999999ADDAA106000091REMSYN03601027 16/// ///// 11026 21078 60001=
0049010270999992015012901004+69650+018900FM-12+002099999V020999999999999999999999999999+99999+99999999999REMSYN04001027 26/// ///// 11019 21081 333 60005=
0049010270999992015012902004+69650+018900FM-12+002099999V020999999999999999999999999999+99999+99999999999REMSYN04001027 26/// ///// 11021 21102 333 60005=
0049010270999992015012903004+69650+018900FM-12+002099999V020999999999999999999999999999+99999+99999999999REMSYN04001027 26/// ///// 11025 21102 333 60005=
0049010270999992015012904004+69650+018900FM-12+002099999V020999999999999999999999999999+99999+99999999999REMSYN04001027 26/// ///// 11028 21105 333 60005=
0049010270999992015012905004+69650+018900FM-12+002099999V020999999999999999999999999999+99999+99999999999REMSYN04001027 26/// ///// 11032 21108 333 60005=
0099010270999992015012906004+69650+018900FM-12+002099999V0209999C999999999999N999999999-00331-01121999999ADDAA112000091AA224000091KA1240N-00501REMSYN05201027 16/// ///// 11033 21112 60002 333 21050 70000=
0049010270999992015012907004+69650+018900FM-12+002099999V020999999999999999999999999999+99999+99999999999REMSYN04001027 26/// ///// 11036 21115 333 60005=
0049010270999992015012908004+69650+018900FM-12+002099999V020999999999999999999999999999+99999+99999999999REMSYN04001027 26/// ///// 11038 21112 333 60005=
0049010270999992015012909004+69650+018900FM-12+002099999V020999999999999999999999999999+99999+99999999999REMSYN04001027 26/// ///// 11037 21117 333 60005=
0049010270999992015012910004+69650+018900FM-12+002099999V020999999999999999999999999999+99999+99999999999REMSYN04001027 26/// ///// 11038 21126 333 60005=
0049010270999992015012911004+69650+018900FM-12+002099999V020999999999999999999999999999+99999+99999999999REMSYN04001027 26/// ///// 11041 21131 333 60005=
0059010270999992015012912004+69650+018900FM-12+002099999V0209999C999999999999N999999999-00421-01351999999ADDAA106000091REMSYN03601027 16/// ///// 11042 21135 60001=
0049010270999992015012913004+69650+018900FM-12+002099999V020999999999999999999999999999+99999+99999999999REMSYN04001027 26/// ///// 11044 21133 333 60005=
0049010270999992015012914004+69650+018900FM-12+002099999V020999999999999999999999999999+99999+99999999999REMSYN04001027 26/// ///// 11044 21132 333 60005=
0049010270999992015012915004+69650+018900FM-12+002099999V020999999999999999999999999999+99999+99999999999REMSYN04001027 26/// ///// 11044 21128 333 60005=
0049010270999992015012916004+69650+018900FM-12+002099999V020999999999999999999999999999+99999+99999999999REMSYN04001027 26/// ///// 11047 21136 333 60005=
0049010270999992015012917004+69650+018900FM-12+002099999V020999999999999999999999999999+99999+99999999999REMSYN04001027 26/// ///// 11048 21142 333 60005=
0082010270999992015012918004+69650+018900FM-12+002099999V0209999C999999999999N999999999-00471-01461999999ADDAA112000091KA1120M-00321REMSYN04601027 16/// ///// 11047 21146 60002 333 11032=
0049010270999992015012919004+69650+018900FM-12+002099999V020999999999999999999999999999+99999+99999999999REMSYN04001027 26/// ///// 11048 21147 333 60005=
0049010270999992015012920004+69650+018900FM-12+002099999V020999999999999999999999999999+99999+99999999999REMSYN04001027 26/// ///// 11048 21149 333 60005=
0049010270999992015012921004+69650+018900FM-12+002099999V020999999999999999999999999999+99999+99999999999REMSYN04001027 26/// ///// 11047 21142 333 60005=
0049010270999992015012922004+69650+018900FM-12+002099999V020999999999999999999999999999+99999+99999999999REMSYN04001027 26/// ///// 11047 21139 333 60005=
0049010270999992015012923004+69650+018900FM-12+002099999V020999999999999999999999999999+99999+99999999999REMSYN04001027 26/// ///// 11049 21133 333 60005=
0059010270999992015013000004+69650+018900FM-12+002099999V0209999C999999999999N999999999-00501-01321999999ADDAA106000091REMSYN03601027 16/// ///// 11050 21132 60001=
0049010270999992015013001004+69650+018900FM-12+002099999V020999999999999999999999999999+99999+99999999999REMSYN04001027 26/// ///// 11051 21129 333 60005=
0049010270999992015013002004+69650+018900FM-12+002099999V020999999999999999999999999999+99999+99999999999REMSYN04001027 26/// ///// 11054 21131 333 60005=
0049010270999992015013003004+69650+018900FM-12+002099999V020999999999999999999999999999+99999+99999999999REMSYN04001027 26/// ///// 11056 21127 333 60005=
0049010270999992015013004004+69650+018900FM-12+002099999V020999999999999999999999999999+99999+99999999999REMSYN04001027 26/// ///// 11056 21124 333 60005=
0049010270999992015013005004+69650+018900FM-12+002099999V020999999999999999999999999999+99999+99999999999REMSYN04001027 26/// ///// 11057 21123 333 60005=
0099010270999992015013006004+69650+018900FM-12+002099999V0209999C999999999999N999999999-00581-01261999999ADDAA112000091AA224000091KA1240N-00581REMSYN05201027 16/// ///// 11058 21126 60002 333 21058 70000=
0049010270999992015013007004+69650+018900FM-12+002099999V020999999999999999999999999999+99999+99999999999REMSYN04001027 26/// ///// 11053 21128 333 60005=
0049010270999992015013008004+69650+018900FM-12+002099999V020999999999999999999999999999+99999+99999999999REMSYN04001027 26/// ///// 11052 21130 333 60005=
0059010270999992015013012004+69650+018900FM-12+002099999V0209999C999999999999N999999999-00421-01261999999ADDAA199999919REMSYN03601027 16/// ///// 11042 21126 6////=
