0228010280999992015010100004+74517+019000FM-12+001899999V0200801N002019999999N015000199-00141-00201098651ADDAA106000091AY121021AY221021GA1071+008001061GE19MSL   +99999+99999GF107991071999008001999999MA1999999098451MD1990001+9999MW1021OD139900501999REMSYN07601028 11565 70802 11014 21020 39845 49865 50000 60001 70222 875// 333 91105=
0187010280999992015010103004+74517+019000FM-12+001899999V0201101N005019999999N015000199-00131-00201098601ADDAY121021AY221021GA1071+008001061GE19MSL   +99999+99999GF107991071999008001999999MA1999999098401MD1810051+9999MW1021REMSYN06001028 41565 71105 11013 21020 39840 49860 58005 70222 875//=
0293010280999992015010106004+74517+019000FM-12+001899999V0201101N004019999999N020000199-00241-00291098501ADDAA112000091AA224000331AJ199991999999999AY121021AY221021GA1051+008001061GE19MSL   +99999+99999GF105991051999008001999999IA1279KA1240N-00281MA1999999098301MD1610101+9999MW1021OD139900601999REMSYN09401028 11570 51104 11024 21029 39830 49850 56010 60002 70222 85500 333 21028 43999 70003 91106=
0187010280999992015010109004+74517+019000FM-12+001899999V0201001N003019999999N020000199-00321-00381098411ADDAY121021AY221021GA1061+008001061GE19MSL   +99999+99999GF106991061999008001999999MA1999999098211MD1710091+9999MW1021REMSYN06001028 41570 61003 11032 21038 39821 49841 57009 70222 86500=
0247010280999992015010112004+74517+019000FM-12+001899999V0200901N004019999999N010000199-00271-00321098351ADDAA106999999AY171021AY221021GA1071+004501061GE19MSL   +99999+99999GF107991071999004501999999MA1999999098151MD1710061+9999MW1701OD139900501999REMSYN07601028 11460 70904 11027 21032 39815 49835 57006 60001 77072 875// 333 91105=EQDQ01  00002PRCP06
0143010280999992015010115004+74517+019000FM-12+001899999V0200801N00501002401CN002000199-00081-00111098231ADDAY171021AY221021GF109991999999999999999999MA1999999098031MD1810121+9999MW1731REMSYN05401028 41/20 90805 11008 21011 39803 49823 58012 77372=
0263010280999992015010118004+74517+019000FM-12+001899999V0200601N006019999999N005000199-00101-00131098101ADDAA112000021AY171021AY221021GA1021+002501061GA2999+999999031GE19MSL   +99999+99999GF107991021999002501999999KA1120M-00071MA1999999097901MD1810131+9999MW1701OD139900801999REMSYN08201028 11350 70606 11010 21013 39790 49810 58013 69902 77072 8257/ 333 11007 91108=
0203010280999992015010121004+74517+019000FM-12+001899999V0201301N003019999999N008000199-00291-00331097941ADDAY171021AY221021GA1021+004501061GA2999+999999031GE19MSL   +99999+99999GF107991021999004501999999MA1999999097741MD1610161+9999MW1101REMSYN06001028 41458 71303 11029 21033 39774 49794 56016 71072 82530=
0228010280999992015010200004+74517+019000FM-12+001899999V0200901N004019999999N020000199-00141-00171097781ADDAA106000021AY171021AY221021GA1071+022501031GE19MSL   +99999+99999GF107991071999022501999999MA1999999097581MD1710171+9999MW1021OD139900701999REMSYN07601028 11870 70904 11014 21017 39758 49778 57017 69901 70272 8703/ 333 91107=
0187010280999992015010203004+74517+019000FM-12+001899999V0200901N004019999999N002500199-00111-00131097611ADDAY121021AY221021GA1071+022501031GE19MSL   +99999+99999GF107991071999022501999999MA1999999097421MD1710161+9999MW1101REMSYN06001028 41825 70904 11011 21013 39742 49761 57016 71022 8703/=
0293010280999992015010206004+74517+019000FM-12+001899999V0201201N004019999999N004000199+00001-00021097471ADDAA112000021AA224000021AJ199991999999999AY141021AY221021GA1061+002501071GE19MSL   +99999+99999GF106991061999002501999999IA1279KA1240N-00291MA1999999097281MD1610141+9999MW1281OD139900601999REMSYN09401028 11340 61204 10000 21002 39728 49747 56014 69902 72842 86600 333 21029 43/// 79999 91106=
0143010280999992015010209004+74517+019000FM-12+001899999V0200701N00601001201CN000500199+00041+00031097361ADDAY141021AY221021GF109991999999999999999999MA1999999097171MD1610111+9999MW1471REMSYN05401028 41/05 90706 10004 20003 39717 49736 56011 74742=
0264010280999992015010212004+74517+019000FM-12+001899999V0200801N009019999999N003000199+00071+00051097291ADDAA106000531AY161021AY241021GA1041+001501071GA2999+999999051GE19MSL   +99999+99999GF108991041999001501999999MA1999999097101MD1710071+9999MW1601OD139901101999SA1+0051REMSYN08801028 11230 80809 10007 20005 39710 49729 57007 69951 76064 8472/ 222// 00005 333 91111=
0203010280999992015010215004+74517+019000FM-12+001899999V0201001N003019999999N002000199+00121+00101097331ADDAY161021AY221021GA1031+001501061GA2999+999999041GE19MSL   +99999+99999GF108991031999001501999999MA1999999097141MD1210041+9999MW1101REMSYN06001028 41220 81003 10012 20010 39714 49733 52004 71062 8351/=
0247010280999992015010218004+74517+019000FM-12+001899999V0200701N005019999999N010000199+00141+00051097401ADDAA112000531AY161021AY241021GA1061+004501081GE19MSL   +99999+99999GF106991061999004501999999KA1120M+00161MA1999999097211MD1310081+9999MW1031OD139901201999REMSYN08201028 11460 60705 10014 20005 39721 49740 53008 69952 70364 86800 333 10016 91112=
0187010280999992015010221004+74517+019000FM-12+001899999V0201001N003019999999N010000199+00171+00041097531ADDAY121021AY221021GA1081+004501081GE19MSL   +99999+99999GF108991081999004501999999MA1999999097341MD1310131+9999MW1031REMSYN06001028 41460 81003 10017 20004 39734 49753 53013 70322 888//=
0228010280999992015010300004+74517+019000FM-12+001899999V0200801N010019999999N020000199+00181+00071097651ADDAA106000091AY121021AY221021GA1051+008001061GE19MSL   +99999+99999GF105991051999008001999999MA1999999097461MD1310111+9999MW1011OD139901401999REMSYN07601028 11570 50810 10018 20007 39746 49765 53011 60001 70122 85500 333 91114=
0187010280999992015010303004+74517+019000FM-12+001899999V0200801N012019999999N010000199+00171+00031097761ADDAY181021AY221021GA1071+008001081GE19MSL   +99999+99999GF107991071999008001999999MA1999999097571MD1210121+9999MW1801REMSYN06001028 41560 70812 10017 20003 39757 49776 52012 78082 878//=
0293010280999992015010306004+74517+019000FM-12+001899999V0200801N012019999999N010000199+00171+00041097961ADDAA112000131AA224000631AJ199991999999999AY181021AY221021GA1071+008001081GE19MSL   +99999+99999GF107991071999008001999999IA1279KA1240N+00141MA1999999097771MD1310201+9999MW1801OD139901801999REMSYN09401028 11560 70812 10017 20004 39777 49796 53020 69912 78082 878// 333 20014 43/// 70006 91118=
0187010280999992015010309004+74517+019000FM-12+001899999V0200901N014019999999N007000199+00141+00041098251ADDAY181021AY221021GA1071+004501081GE19MSL   +99999+99999GF107991071999004501999999MA1999999098061MD1310291+9999MW1801REMSYN06001028 41457 70914 10014 20004 39806 49825 53029 78082 878//=
0264010280999992015010312004+74517+019000FM-12+001899999V0200901N015019999999N005000199+00111+00001098511ADDAA106000331AY181021AY221021GA1071+004501071GA2999+999999051GE19MSL   +99999+99999GF108991071999004501999999MA1999999098321MD1310261+9999MW1681OD139901901999SA1+0051REMSYN08801028 11450 80915 10011 21000 39832 49851 53026 69931 76882 8772/ 222// 00005 333 91119=
0187010280999992015010315004+74517+019000FM-12+001899999V0201001N013019999999N005000199+00101-00081098821ADDAY161021AY221021GA1081+004501071GE19MSL   +99999+99999GF108991081999004501999999MA1999999098621MD1210301+9999MW1601REMSYN06001028 41450 81013 10010 21008 39862 49882 52030 76062 887//=
0247010280999992015010318004+74517+019000FM-12+001899999V0200901N015019999999N010000199+00051-00191099071ADDAA112000331AY181021AY261021GA1071+004501081GE19MSL   +99999+99999GF107991071999004501999999KA1120M+00181MA1999999098871MD1210251+9999MW1021OD139902001999REMSYN08201028 11460 70915 10005 21019 39887 49907 52025 69932 70286 878// 333 10018 91120=
0187010280999992015010321004+74517+019000FM-12+001899999V0200901N015019999999N010000199+00021-00291099421ADDAY121021AY221021GA1071+012501081GE19MSL   +99999+99999GF107991071999012501999999MA1999999099221MD1110341+9999MW1021REMSYN06001028 41660 70915 10002 21029 39922 49942 51034 70222 878//=
0263010280999992015010400004+74517+019000FM-12+001899999V0200901N012019999999N010000199-00031-00291099701ADDAA106000091AY121021AY221021GA1051+008001061GA2999+999999031GE19MSL   +99999+99999GF106991051999008001999999MA1999999099501MD1310291+9999MW1021OD139901901999REMSYN07601028 11560 60912 11003 21029 39950 49970 53029 69901 70222 85530 333 91119=EQDQ01  00002PRCP06
0187010280999992015010403004+74517+019000FM-12+001899999V0200801N013019999999N010000199-00111-00271099941ADDAY121021AY211021GA1041+012501061GE19MSL   +99999+99999GF104991041999012501999999MA1999999099741MD1310241+9999MW1021REMSYN06001028 41660 40813 11011 21027 39974 49994 53024 70221 84500=
0293010280999992015010406004+74517+019000FM-12+001899999V0200901N010019999999N030000199-00131-00471100141ADDAA112000131AA224000431AJ199991999999999AY181021AY221021GA1041+012501081GE19MSL   +99999+99999GF104991041999012501999999IA1279KA1240N-00201MA1999999099941MD1210201+9999MW1261OD139901801999REMSYN09401028 11680 40910 11013 21047 39994 40014 52020 69912 72682 84200 333 21020 43/// 70004 91118=
0187010280999992015010409004+74517+019000FM-12+001899999V0200901N011019999999N030000199-00131-00311100401ADDAY121021AY221021GA1061+022501031GE19MSL   +99999+99999GF106991061999022501999999MA1999999100201MD1210251+9999MW1021REMSYN06001028 41880 60911 11013 21031 30020 40040 52025 70222 86090=
0248010280999992015010412004+74517+019000FM-12+001899999V0201101N011019999999N030000199-00161-00341100631ADDAA106000021AY181021AY221021GA1021+017501081GE19MSL   +99999+99999GF102991021999017501999999MA1999999100431MD1310231+9999MW1261OD139901501999SA1+0051REMSYN08801028 11780 21111 11016 21034 30043 40063 53023 69901 72682 82800 222// 00005 333 91115=
0187010280999992015010415004+74517+019000FM-12+001899999V0201001N009019999999N020000199-00201-00291100891ADDAY181021AY221021GA1041+017501081GE19MSL   +99999+99999GF104991041999017501999999MA1999999100691MD1110261+9999MW1011REMSYN06001028 41770 41009 11020 21029 30069 40089 51026 70182 84800=
0247010280999992015010418004+74517+019000FM-12+001899999V0201201N005019999999N003000199-00181-00241101151ADDAA112000231AY181021AY221021GA1081+004501081GE19MSL   +99999+99999GF108991081999004501999999KA1120M-00071MA1999999100951MD1310261+9999MW1851OD139901401999REMSYN08201028 11430 81205 11018 21024 30095 40115 53026 69922 78582 882// 333 11007 91114=
0203010280999992015010421004+74517+019000FM-12+001899999V0201201N008019999999N010000199-00291-00381101431ADDAY121021AY221021GA1061+008001081GA2999+999999001GE19MSL   +99999+99999GF106991061999008001999999MA1999999101231MD1310281+9999MW1021REMSYN06001028 41560 61208 11029 21038 30123 40143 53028 70222 86201=
0228010280999992015010500004+74517+019000FM-12+001899999V0201101N004019999999N020000199-00491-00561101651ADDAA106000431AY181021AY221021GA1051+012501081GE19MSL   +99999+99999GF105991051999012501999999MA1999999101441MD1310211+9999MW1031OD139901101999REMSYN07601028 11670 51104 11049 21056 30144 40165 53021 69941 70382 85200 333 91111=
0187010280999992015010503004+74517+019000FM-12+001899999V0201101N004019999999N030000199-00611-00721101861ADDAY181021AY221021GA1031+012501081GE19MSL   +99999+99999GF103991031999012501999999MA1999999101651MD1110201+9999MW1261REMSYN06001028 41680 31104 11061 21072 30165 40186 51020 72682 83200=
0223010280999992015010506004+74517+019000FM-12+001899999V0200901N004019999999N060000199-00631-00701102001ADDAA112000531AA224000731AJ199991999999999AY181021AY211021IA1239KA1240N-00731MA1999999101791MD1210141+9999MW1021OD139900901999REMSYN08801028 11986 00904 11063 21070 30179 40200 52014 69952 70281 333 21073 47/// 70007 91109=
0187010280999992015010509004+74517+019000FM-12+001899999V0201101N004019999999N070001199-00511-00581102161ADDAY101021AY201021GA1011+004501081GE19MSL   +99999+99999GF101991011999004501999999MA1999999101951MD1210161+9999MW1021REMSYN06001028 41489 11104 11051 21058 30195 40216 52016 70200 81100=
0248010280999992015010512004+74517+019000FM-12+001899999V0201301N004019999999N030000199-00511-00861102211ADDAA106000091AY101021AY201021GA1011+008001081GE19MSL   +99999+99999GF101991011999008001999999MA1999999102001MD1210051+9999MW1021OD139900501999SA1+0001REMSYN08801028 11580 11304 11051 21086 30200 40221 52005 60001 70200 81100 222// 00000 333 91105=
0187010280999992015010515004+74517+019000FM-12+001899999V0201101N004019999999N020000199-00241-00741102221ADDAY101021AY201021GA1011+012501081GE19MSL   +99999+99999GF101991011999012501999999MA1999999102021MD1990021+9999MW1021REMSYN06001028 41670 11104 11024 21074 30202 40222 50002 70200 81100=
0177010280999992015010518004+74517+019000FM-12+001899999V0201401N007019999999N060000199-00671-00931102141ADDAA112000531AY101021AY201021KA1120M-00211MA1999999101931MD1810091+9999MW1011OD139900701999REMSYN07601028 11986 01407 11067 21093 30193 40214 58009 69952 70100 333 11021 91107=
0117010280999992015010521004+74517+019000FM-12+001899999V0201401N007019999999N060000199-00581-00901102041ADDAY101021AY201021MA1999999101831MD1810101+9999MW1011REMSYN05401028 41986 01407 11058 21090 30183 40204 58010 70100=
0187010280999992015010522004+74517+019000FM-12+001899999V0201401N009019999999N060000199-00481-00811101931ADDAY101021AY201021GA1011+012501081GE19MSL   +99999+99999GF101991011999012501999999MA1999999101721MD1810191+9999MW1031REMSYN06001028 41686 11409 11048 21081 30172 40193 58019 70300 81100=
0206010280999992015010523004+74517+019000FM-12+001899999V0201401N008019999999N060000199-00461-00801101871ADDAY101021AY201021GA1999+999999021GE19MSL   +99999+99999GF103991001999999999999999MA1999999101661MD1810221+9999MW1031REMSYN06001028 41986 31408 11046 21080 30166 40187 58022 70300 80005=EQDQ01    003SCCGA1
0247010280999992015010600004+74517+019000FM-12+001899999V0201501N007019999999N060000199-00451-00731101821ADDAA106000091AY101021AY201021GA1999+999999021GE19MSL   +99999+99999GF103991001999999999999999MA1999999101611MD1610231+9999MW1021OD139900901999REMSYN07601028 11986 31507 11045 21073 30161 40182 56023 60001 70200 80005 333 91109=EQDQ01    003SCCGA1
0206010280999992015010601004+74517+019000FM-12+001899999V0201501N008019999999N060000199-00371-00711101731ADDAY101021AY201021GA1999+999999021GE19MSL   +99999+99999GF103991001999999999999999MA1999999101531MD1710191+9999MW1021REMSYN06001028 41986 31508 11037 21071 30153 40173 57019 70200 80005=EQDQ01    003SCCGA1
0206010280999992015010602004+74517+019000FM-12+001899999V0201401N008019999999N060000199-00351-00711101611ADDAY101021AY201021GA1999+999999021GE19MSL   +99999+99999GF103991001999999999999999MA1999999101411MD1810251+9999MW1021REMSYN06001028 41986 31408 11035 21071 30141 40161 58025 70200 80005=EQDQ01    003SCCGA1
0206010280999992015010603004+74517+019000FM-12+001899999V0201401N010019999999N060000199-00261-00581101461ADDAY101021AY201021GA1999+999999021GE19MSL   +99999+99999GF103991001999999999999999MA1999999101261MD1810351+9999MW1021REMSYN06001028 41986 31410 11026 21058 30126 40146 58035 70200 80005=EQDQ01    003SCCGA1
0206010280999992015010604004+74517+019000FM-12+001899999V0201401N009019999999N060000199-00211-00561101361ADDAY101021AY201021GA1999+999999021GE19MSL   +99999+99999GF103991001999999999999999MA1999999101161MD1810371+9999MW1021REMSYN06001028 41986 31409 11021 21056 30116 40136 58037 70200 80005=EQDQ01    003SCCGA1
0206010280999992015010605004+74517+019000FM-12+001899999V0201401N010019999999N060000199-00191-00551101211ADDAY101021AY201021GA1999+999999021GE19MSL   +99999+99999GF103991001999999999999999MA1999999101011MD1810401+9999MW1021REMSYN06001028 41986 31410 11019 21055 30101 40121 58040 70200 80005=EQDQ01    003SCCGA1
0312010280999992015010606004+74517+019000FM-12+001899999V0201501N011019999999N060000199-00151-00491101101ADDAA112000091AA224000531AJ199991999999999AY101021AY201021GA1999+999999021GE19MSL   +99999+99999GF103991001999999999999999IA1239KA1240N-00701MA1999999100901MD1810361+9999MW1021OD139901401999REMSYN09401028 11986 31511 11015 21049 30090 40110 58036 60002 70200 80005 333 21070 47/// 70005 91114=EQDQ01    003SCCGA1
0206010280999992015010607004+74517+019000FM-12+001899999V0201501N012019999999N060000199-00131-00471101011ADDAY101021AY201021GA1999+999999021GE19MSL   +99999+99999GF103991001999999999999999MA1999999100811MD1610341+9999MW1021REMSYN06001028 41986 31512 11013 21047 30081 40101 56034 70200 80005=EQDQ01    003SCCGA1
0203010280999992015010608004+74517+019000FM-12+001899999V0201401N012019999999N030000199-00071-00371100921ADDAY101021AY201021GA1011+999999031GA2999+999999021GE19MSL   +99999+99999GF104991011999999999999999MA1999999100721MD1810291+9999MW1031REMSYN06001028 41980 41412 11007 21037 30072 40092 58029 70300 81055=
0219010280999992015010609004+74517+019000FM-12+001899999V0201501N011019999999N030000199-00081-00311100871ADDAY121021AY201021GA1011+012501081GA2999+999999031GA3999+999999021GE19MSL   +99999+99999GF105991011999012501999999MA1999999100671MD1610231+9999MW1031REMSYN06001028 41680 51511 11008 21031 30067 40087 56023 70320 81855=
0219010280999992015010610004+74517+019000FM-12+001899999V0201501N012019999999N020000199-00031-00271100771ADDAY121021AY221021GA1011+008001081GA2999+999999031GA3999+999999021GE19MSL   +99999+99999GF105991011999008001999999MA1999999100571MD1810251+9999MW1021REMSYN06001028 41570 51512 11003 21027 30057 40077 58025 70222 81895=
0219010280999992015010611004+74517+019000FM-12+001899999V0201501N012019999999N020000199+00011-00261100651ADDAY121021AY221021GA1021+008001081GA2999+999999031GA3999+999999021GE19MSL   +99999+99999GF106991021999008001999999MA1999999100451MD1810271+9999MW1031REMSYN06001028 41570 61512 10001 21026 30045 40065 58027 70322 82875=
0299010280999992015010612004+74517+019000FM-12+001899999V0201501N012019999999N020000199+00021-00261100561ADDAA106000091AY121021AY221021GA1021+004501081GA2999+999999031GA3999+999999021GE19MSL   +99999+99999GF107991021999004501999999MA1999999100361MD1710311+9999MW1031OD139901601999SA1+0001REMSYN08801028 11470 71512 10002 21026 30036 40056 57031 69901 70322 82875 222// 00000 333 91116=EQDQ01  00002PRCP06
0203010280999992015010613004+74517+019000FM-12+001899999V0201501N010019999999N020000199+00051-00221100481ADDAY121021AY221021GA1061+004501081GA2999+999999021GE19MSL   +99999+99999GF107991061999004501999999MA1999999100281MD1710291+9999MW1031REMSYN06001028 41470 71510 10005 21022 30028 40048 57029 70322 86805=
0206010280999992015010614004+74517+019000FM-12+001899999V0201501N010019999999N020000199+00081-00201100371ADDAY121021AY221021GA1999+999999021GE19MSL   +99999+99999GF108991001999999999999999MA1999999100171MD1810281+9999MW1031REMSYN06001028 41970 81510 10008 21020 30017 40037 58028 70322 80005=EQDQ01    003SCCGA1
0203010280999992015010615004+74517+019000FM-12+001899999V0201501N011019999999N020000199+00091-00111100271ADDAY121021AY221021GA1051+999999051GA2999+999999021GE19MSL   +99999+99999GF108991051999999999999999MA1999999100071MD1810291+9999MW1681REMSYN06001028 41970 81511 10009 21011 30007 40027 58029 76822 85025=
0203010280999992015010616004+74517+019000FM-12+001899999V0201401N011019999999N010000199+00121-00071100181ADDAY171021AY221021GA1021+022501031GA2999+999999021GE19MSL   +99999+99999GF108991021999022501999999MA1999999099981MD1710291+9999MW1831REMSYN06001028 41860 81411 10012 21007 39998 40018 57029 78372 82075=
0203010280999992015010617004+74517+019000FM-12+001899999V0201501N010019999999N010000199+00131-00011100131ADDAY171021AY221021GA1061+022501031GA2999+999999021GE19MSL   +99999+99999GF108991061999022501999999MA1999999099931MD1710241+9999MW1681REMSYN06001028 41860 81510 10013 21001 39993 40013 57024 76872 86075=
0263010280999992015010618004+74517+019000FM-12+001899999V0201401N010019999999N010000199+00111+00001100081ADDAA112000131AY171021AY221021GA1041+004501071GA2999+999999051GE19MSL   +99999+99999GF108991041999004501999999KA1120M+00141MA1999999099881MD1610201+9999MW1681OD139901401999REMSYN08201028 11460 81410 10011 20000 39988 40008 56020 69912 76872 8472/ 333 10014 91114=
0203010280999992015010619004+74517+019000FM-12+001899999V0201401N010019999999N010000199+00111+00021100031ADDAY171021AY221021GA1041+004501071GA2999+999999051GE19MSL   +99999+99999GF108991041999004501999999MA1999999099831MD1710161+9999MW1681REMSYN06001028 41460 81410 10011 20002 39983 40003 57016 76872 8472/=
0203010280999992015010620004+74517+019000FM-12+001899999V0201401N010019999999N010000199+00111+00011099991ADDAY171021AY221021GA1041+004501071GA2999+999999051GE19MSL   +99999+99999GF108991041999004501999999MA1999999099791MD1710141+9999MW1681REMSYN06001028 41460 81410 10011 20001 39979 49999 57014 76872 8472/=
0203010280999992015010621004+74517+019000FM-12+001899999V0201401N011019999999N010000199+00131+00041099931ADDAY171021AY221021GA1041+004501071GA2999+999999051GE19MSL   +99999+99999GF108991041999004501999999MA1999999099731MD1710151+9999MW1681REMSYN06001028 41460 81411 10013 20004 39973 49993 57015 76872 8472/=
0203010280999992015010622004+74517+019000FM-12+001899999V0201301N010019999999N010000199+00121+00031099861ADDAY171021AY221021GA1041+004501071GA2999+999999051GE19MSL   +99999+99999GF108991041999004501999999MA1999999099661MD1810171+9999MW1681REMSYN06001028 41460 81310 10012 20003 39966 49986 58017 76872 8472/=
0203010280999992015010623004+74517+019000FM-12+001899999V0201401N010019999999N010000199+00141+00041099801ADDAY171021AY221021GA1041+004501071GA2999+999999051GE19MSL   +99999+99999GF108991041999004501999999MA1999999099601MD1710191+9999MW1681REMSYN06001028 41460 81410 10014 20004 39960 49980 57019 76872 8472/=
0244010280999992015010700004+74517+019000FM-12+001899999V0201301N011019999999N008000199+00151+00031099721ADDAA106002031AY171021AY261021GA1041+004501071GA2999+999999051GE19MSL   +99999+99999GF108991041999004501999999MA1999999099521MD1810211+9999MW1621OD139901401999REMSYN07601028 11458 81311 10015 20003 39952 49972 58021 60021 76276 8472/ 333 91114=
0203010280999992015010701004+74517+019000FM-12+001899999V0201301N010019999999N008000199+00151+00031099671ADDAY161021AY221021GA1041+004501071GA2999+999999041GE19MSL   +99999+99999GF108991041999004501999999MA1999999099471MD1710191+9999MW1601REMSYN06001028 41458 81310 10015 20003 39947 49967 57019 76062 8471/=
0203010280999992015010702004+74517+019000FM-12+001899999V0201301N011019999999N008000199+00141+00021099611ADDAY161021AY221021GA1041+004501071GA2999+999999051GE19MSL   +99999+99999GF108991041999004501999999MA1999999099411MD1810191+9999MW1211REMSYN06001028 41458 81311 10014 20002 39941 49961 58019 72162 8472/=
0203010280999992015010703004+74517+019000FM-12+001899999V0201301N011019999999N008000199+00161+00031099531ADDAY161021AY221021GA1041+004501071GA2999+999999041GE19MSL   +99999+99999GF108991041999004501999999MA1999999099331MD1810191+9999MW1601REMSYN06001028 41458 81311 10016 20003 39933 49953 58019 76062 8471/=
0203010280999992015010704004+74517+019000FM-12+001899999V0201301N012019999999N008000199+00171+00071099441ADDAY161021AY221021GA1041+004501071GA2999+999999051GE19MSL   +99999+99999GF108991041999004501999999MA1999999099241MD1810231+9999MW1601REMSYN06001028 41458 81312 10017 20007 39924 49944 58023 76062 8472/=
0203010280999992015010705004+74517+019000FM-12+001899999V0201301N010019999999N008000199+00181+00071099381ADDAY161021AY221021GA1041+004501071GA2999+999999051GE19MSL   +99999+99999GF108991041999004501999999MA1999999099181MD1710221+9999MW1601REMSYN06001028 41458 81310 10018 20007 39918 49938 57022 76062 8472/=
0309010280999992015010706004+74517+019000FM-12+001899999V0201301N013019999999N008000199+00171+00071099321ADDAA112004032AA224003632AJ199991999999999AY171021AY271021GA1041+004501071GA2999+999999051GE19MSL   +99999+99999GF108991041999004501999999IA1279KA1240N+00111MA1999999099121MD1710211+9999MW1601OD139901601999REMSYN09401028 11458 81313 10017 20007 39912 49932 57021 60042 76077 8472/ 333 20011 43999 70036 91116=
0203010280999992015010707004+74517+019000FM-12+001899999V0201401N012019999999N007000199+00161+00091099271ADDAY161021AY221021GA1041+004501071GA2999+999999051GE19MSL   +99999+99999GF108991041999004501999999MA1999999099071MD1710171+9999MW1621REMSYN06001028 41457 81412 10016 20009 39907 49927 57017 76262 8472/=
0203010280999992015010708004+74517+019000FM-12+001899999V0201301N013019999999N007000199+00161+00081099221ADDAY161021AY221021GA1041+004501071GA2999+999999051GE19MSL   +99999+99999GF108991041999004501999999MA1999999099021MD1710161+9999MW1631REMSYN06001028 41457 81313 10016 20008 39902 49922 57016 76362 8472/=
0203010280999992015010709004+74517+019000FM-12+001899999V0201401N015019999999N008000199+00161+00101099171ADDAY161021AY221021GA1041+004501071GA2999+999999051GE19MSL   +99999+99999GF108991041999004501999999MA1999999098971MD1710141+9999MW1611REMSYN06001028 41458 81415 10016 20010 39897 49917 57014 76162 8472/=
0203010280999992015010710004+74517+019000FM-12+001899999V0201401N016019999999N005000199+00191+00131099121ADDAY161021AY221021GA1041+004501071GA2999+999999051GE19MSL   +99999+99999GF108991041999004501999999MA1999999098921MD1710141+9999MW1611REMSYN06001028 41450 81416 10019 20013 39892 49912 57014 76162 8472/=
0203010280999992015010711004+74517+019000FM-12+001899999V0201401N015019999999N002000199+00201+00151099081ADDAY161021AY221021GA1041+004501071GA2999+999999051GE19MSL   +99999+99999GF108991041999004501999999MA1999999098881MD1710141+9999MW1681REMSYN06001028 41420 81415 10020 20015 39888 49908 57014 76862 8472/=
0264010280999992015010712004+74517+019000FM-12+001899999V0201401N011019999999N002500199+00191+00151099071ADDAA106002031AY171021AY261021GA1041+000751071GA2999+999999051GE19MSL   +99999+99999GF108991041999000751999999MA1999999098871MD1610111+9999MW1651OD139902001999SA1+0071REMSYN08801028 11125 81411 10019 20015 39887 49907 56011 60021 76576 8472/ 222// 00007 333 91120=
0203010280999992015010713004+74517+019000FM-12+001899999V0202801N007019999999N002000199+00071+00041099221ADDAY171021AY261021GA1041+001501071GA2999+999999051GE19MSL   +99999+99999GF108991041999001501999999MA1999999099021MD1310091+9999MW1691REMSYN06001028 41220 82807 10007 20004 39902 49922 53009 76976 8472/=
0203010280999992015010714004+74517+019000FM-12+001899999V0202801N007019999999N008000199+00131+00041099311ADDAY171021AY221021GA1041+001501071GA2999+999999051GE19MSL   +99999+99999GF108991041999001501999999MA1999999099111MD1310231+9999MW1681REMSYN06001028 41258 82807 10013 20004 39911 49931 53023 76872 8472/=
0219010280999992015010715004+74517+019000FM-12+001899999V0202601N006019999999N010000199+00171+00061099391ADDAY171021AY221021GA1021+008001071GA2999+999999051GA3999+999999021GE19MSL   +99999+99999GF106991021999008001999999MA1999999099191MD1110321+9999MW1231REMSYN06001028 41560 62606 10017 20006 39919 49939 51032 72372 82728=
0117010280999992015010716004+74517+019000FM-12+001899999V0202601N009019999999N050000199+00201+00021099481ADDAY111021AY211021MA1999999099281MD1310271+9999MW1011REMSYN05401028 41984 02609 10020 20002 39928 49948 53027 70111=
0187010280999992015010717004+74517+019000FM-12+001899999V0202601N006019999999N050000199+00171+00011099541ADDAY101021AY201021GA1041+012501081GE19MSL   +99999+99999GF104991041999012501999999MA1999999099341MD1210241+9999MW1031REMSYN06001028 41684 42606 10017 20001 39934 49954 52024 70300 84100=
0247010280999992015010718004+74517+019000FM-12+001899999V0202701N006019999999N025000199+00121-00091099601ADDAA112005031AY171021AY261021GA1031+004501081GE19MSL   +99999+99999GF103991031999004501999999KA1120M+00211MA1999999099401MD1110211+9999MW1011OD139901101999REMSYN08201028 11475 32706 10012 21009 39940 49960 51021 60052 70176 83800 333 10021 91111=
0187010280999992015010719004+74517+019000FM-12+001899999V0202501N005019999999N025000199+00131-00101099651ADDAY101021AY201021GA1031+008001061GE19MSL   +99999+99999GF103991031999008001999999MA1999999099451MD1210171+9999MW1021REMSYN06001028 41575 32505 10013 21010 39945 49965 52017 70200 83500=
0203010280999992015010720004+74517+019000FM-12+001899999V0202501N004019999999N025000199+00111-00171099721ADDAY101021AY201021GA1021+008001061GA2999+999999001GE19MSL   +99999+99999GF103991021999008001999999MA1999999099521MD1210181+9999MW1021REMSYN06001028 41575 32504 10011 21017 39952 49972 52018 70200 82501=
0203010280999992015010721004+74517+019000FM-12+001899999V0202201N004019999999N025000199-00081-00251099771ADDAY101021AY201021GA1021+008001061GA2999+999999001GE19MSL   +99999+99999GF103991021999008001999999MA1999999099571MD1210171+9999MW1021REMSYN06001028 41575 32204 11008 21025 39957 49977 52017 70200 82501=
0206010280999992015010722004+74517+019000FM-12+001899999V0202201N004019999999N040000199-00141-00311099791ADDAY111021AY201021GA1999+999999021GE19MSL   +99999+99999GF105991001999999999999999MA1999999099591MD1210131+9999MW1031REMSYN06001028 41982 52204 11014 21031 39959 49979 52013 70310 80007=EQDQ01    003SCCGA1
0206010280999992015010723004+74517+019000FM-12+001899999V0201701N003019999999N040000199-00251-00361099781ADDAY121021AY211021GA1999+999999021GE19MSL   +99999+99999GF108991001999999999999999MA1999999099581MD1110071+9999MW1031REMSYN06001028 41982 81703 11025 21036 39958 49978 51007 70321 80007=EQDQ01    003SCCGA1
0247010280999992015010800004+74517+019000FM-12+001899999V0201501N004019999999N040000199-00251-00391099771ADDAA106000091AY121021AY211021GA1999+999999021GE19MSL   +99999+99999GF108991001999999999999999MA1999999099571MD1990001+9999MW1031OD139900801999REMSYN07601028 11982 81504 11025 21039 39957 49977 50000 60001 70321 80007 333 91108=EQDQ01    003SCCGA1
0206010280999992015010801004+74517+019000FM-12+001899999V0201401N005019999999N040000199-00261-00461099751ADDAY121021AY211021GA1999+999999021GE19MSL   +99999+99999GF105991001999999999999999MA1999999099551MD1710041+9999MW1011REMSYN06001028 41982 51405 11026 21046 39955 49975 57004 70121 80006=EQDQ01    003SCCGA1
0206010280999992015010802004+74517+019000FM-12+001899999V0201201N005019999999N040000199-00281-00421099711ADDAY121021AY211021GA1999+999999021GE19MSL   +99999+99999GF105991001999999999999999MA1999999099511MD1810081+9999MW1021REMSYN06001028 41982 51205 11028 21042 39951 49971 58008 70221 80006=EQDQ01    003SCCGA1
0206010280999992015010803004+74517+019000FM-12+001899999V0201101N006019999999N020000199-00241-00381099681ADDAY121021AY221021GA1999+999999021GE19MSL   +99999+99999GF108991001999999999999999MA1999999099481MD1710091+9999MW1031REMSYN06001028 41970 81106 11024 21038 39948 49968 57009 70322 80007=EQDQ01    003SCCGA1
0206010280999992015010804004+74517+019000FM-12+001899999V0201201N004019999999N020000199-00191-00341099691ADDAY121021AY221021GA1999+999999021GE19MSL   +99999+99999GF108991001999999999999999MA1999999099491MD1510061+9999MW1021REMSYN06001028 41970 81204 11019 21034 39949 49969 55006 70222 80007=EQDQ01    003SCCGA1
0206010280999992015010805004+74517+019000FM-12+001899999V0201401N006019999999N011000199+00021-00211099651ADDAY121021AY221021GA1999+999999021GE19MSL   +99999+99999GF108991001999999999999999MA1999999099451MD1810061+9999MW1021REMSYN06001028 41961 81406 10002 21021 39945 49965 58006 70222 80007=EQDQ01    003SCCGA1
0309010280999992015010806004+74517+019000FM-12+001899999V0201101N005019999999N020000199+00001-00231099621ADDAA112000091AA224004731AJ199991999999999AY121021AY211021GA1061+012501061GA2999+999999041GE19MSL   +99999+99999GF107991061999012501999999IA1279KA1240N-00301MA1999999099421MD1810061+9999MW1021OD139900701999REMSYN09401028 11670 71105 10000 21023 39942 49962 58006 60002 70221 8651/ 333 21030 43/// 70047 91107=
0187010280999992015010807004+74517+019000FM-12+001899999V0201101N007019999999N020000199+00031-00261099561ADDAY121021AY221021GA1071+012501061GE19MSL   +99999+99999GF107991071999012501999999MA1999999099361MD1810131+9999MW1021REMSYN06001028 41670 71107 10003 21026 39936 49956 58013 70222 875//=
0203010280999992015010808004+74517+019000FM-12+001899999V0201201N009019999999N020000199+00021-00211099541ADDAY121021AY221021GA1061+012501061GA2999+999999041GE19MSL   +99999+99999GF107991061999012501999999MA1999999099341MD1510111+9999MW1021REMSYN06001028 41670 71209 10002 21021 39934 49954 55011 70222 8651/=
0203010280999992015010809004+74517+019000FM-12+001899999V0201101N008019999999N020000199+00111-00201099521ADDAY121021AY221021GA1051+017501061GA2999+999999041GE19MSL   +99999+99999GF106991051999017501999999MA1999999099321MD1610101+9999MW1021REMSYN06001028 41770 61108 10011 21020 39932 49952 56010 70222 85510=
0203010280999992015010810004+74517+019000FM-12+001899999V0201101N004019999999N020000199+00091-00201099441ADDAY121021AY221021GA1061+012501061GA2999+999999041GE19MSL   +99999+99999GF107991061999012501999999MA1999999099241MD1810111+9999MW1021REMSYN06001028 41670 71104 10009 21020 39924 49944 58011 70222 8651/=
0203010280999992015010811004+74517+019000FM-12+001899999V0201101N008019999999N020000199+00031-00161099381ADDAY121021AY211021GA1031+012501061GA2999+999999041GE19MSL   +99999+99999GF104991031999012501999999MA1999999099181MD1810161+9999MW1011REMSYN06001028 41670 41108 10003 21016 39918 49938 58016 70121 83510=
0264010280999992015010812004+74517+019000FM-12+001899999V0200901N010019999999N020000199+00111-00111099261ADDAA106000091AY121021AY211021GA1061+008001061GA2999+999999001GE19MSL   +99999+99999GF107991061999008001999999MA1999999099061MD1810251+9999MW1031OD139901301999SA1+0071REMSYN08801028 11570 70910 10011 21011 39906 49926 58025 60001 70321 86501 222// 00007 333 91113=
0219010280999992015010813004+74517+019000FM-12+001899999V0201001N011019999999N020000199+00121-00031099171ADDAY121021AY221021GA1021+008001061GA2999+999999031GA3999+999999001GE19MSL   +99999+99999GF107991021999008001999999MA1999999098971MD1810271+9999MW1021REMSYN06001028 41570 71011 10012 21003 39897 49917 58027 70222 82571=
0219010280999992015010814004+74517+019000FM-12+001899999V0201001N012019999999N020000199+00151-00011099091ADDAY121021AY221021GA1021+008001061GA2999+999999031GA3999+999999001GE19MSL   +99999+99999GF107991021999008001999999MA1999999098891MD1610291+9999MW1021REMSYN06001028 41570 71012 10015 21001 39889 49909 56029 70222 82571=
0203010280999992015010815004+74517+019000FM-12+001899999V0201101N011019999999N008000199+00111-00021099021ADDAY181021AY221021GA1031+008001081GA2999+999999001GE19MSL   +99999+99999GF104991031999008001999999MA1999999098821MD1610251+9999MW1801REMSYN06001028 41558 41111 10011 21002 39882 49902 56025 78082 83801=
0187010280999992015010816004+74517+019000FM-12+001899999V0201001N012019999999N005000199+00121+00041098931ADDAY181021AY221021GA1071+004501081GE19MSL   +99999+99999GF108991071999004501999999MA1999999098731MD1710251+9999MW1801REMSYN06001028 41450 81012 10012 20004 39873 49893 57025 78082 878//=
0187010280999992015010817004+74517+019000FM-12+001899999V0201201N014019999999N003000199+00131+00011098881ADDAY181021AY221021GA1081+004501081GE19MSL   +99999+99999GF108991081999004501999999MA1999999098681MD1710211+9999MW1811REMSYN06001028 41430 81214 10013 20001 39868 49888 57021 78182 888//=
0247010280999992015010818004+74517+019000FM-12+001899999V0201201N013019999999N005000199+00121+00011098841ADDAA112000131AY181021AY221021GA1081+004501081GE19MSL   +99999+99999GF108991081999004501999999KA1120M+00151MA1999999098641MD1610181+9999MW1801OD139901801999REMSYN08201028 11450 81213 10012 20001 39864 49884 56018 69912 78082 888// 333 10015 91118=
0187010280999992015010819004+74517+019000FM-12+001899999V0201201N012019999999N003000199+00121-00011098831ADDAY181021AY221021GA1081+004501081GE19MSL   +99999+99999GF108991081999004501999999MA1999999098631MD1610091+9999MW1811REMSYN06001028 41430 81212 10012 21001 39863 49883 56009 78182 888//=
0187010280999992015010820004+74517+019000FM-12+001899999V0201201N013019999999N005000199+00131-00041098831ADDAY181021AY221021GA1081+004501081GE19MSL   +99999+99999GF108991081999004501999999MA1999999098631MD1510051+9999MW1801REMSYN06001028 41450 81213 10013 21004 39863 49883 55005 78082 888//=
0187010280999992015010821004+74517+019000FM-12+001899999V0201301N014019999999N005000199+00121-00011098821ADDAY181021AY221021GA1081+004501081GE19MSL   +99999+99999GF108991081999004501999999MA1999999098621MD1510021+9999MW1801REMSYN06001028 41450 81314 10012 21001 39862 49882 55002 78082 888//=
0187010280999992015010822004+74517+019000FM-12+001899999V0201301N012019999999N010000199+00131-00051098871ADDAY181021AY221021GA1081+004501081GE19MSL   +99999+99999GF108991081999004501999999MA1999999098671MD1310031+9999MW1021REMSYN06001028 41460 81312 10013 21005 39867 49887 53003 70282 888//=
0187010280999992015010823004+74517+019000FM-12+001899999V0201301N011019999999N006000199+00121-00081098911ADDAY181021AY221021GA1071+004501081GE19MSL   +99999+99999GF107991071999004501999999MA1999999098711MD1310081+9999MW1801REMSYN06001028 41456 71311 10012 21008 39871 49891 53008 78082 878//=
0228010280999992015010900004+74517+019000FM-12+001899999V0201201N012019999999N010000199+00151-00121098931ADDAA106000431AY181021AY221021GA1061+012501081GE19MSL   +99999+99999GF106991061999012501999999MA1999999098731MD1110111+9999MW1251OD139901801999REMSYN07601028 11660 61212 10015 21012 39873 49893 51011 69941 72582 86800 333 91118=
0187010280999992015010901004+74517+019000FM-12+001899999V0201201N011019999999N010000199+00131-00091098951ADDAY121021AY221021GA1071+012501061GE19MSL   +99999+99999GF107991071999012501999999MA1999999098751MD1210091+9999MW1021REMSYN06001028 41660 71211 10013 21009 39875 49895 52009 70222 875//=
0187010280999992015010902004+74517+019000FM-12+001899999V0201301N013019999999N010000199+00121-00071098981ADDAY121021AY221021GA1071+012501061GE19MSL   +99999+99999GF107991071999012501999999MA1999999098781MD1210071+9999MW1021REMSYN06001028 41660 71313 10012 21007 39878 49898 52007 70222 875//=
0187010280999992015010903004+74517+019000FM-12+001899999V0201301N011019999999N020000199+00101-00131099021ADDAY121021AY221021GA1031+012501061GE19MSL   +99999+99999GF103991031999012501999999MA1999999098821MD1210091+9999MW1011REMSYN06001028 41670 31311 10010 21013 39882 49902 52009 70122 83500=
0187010280999992015010904004+74517+019000FM-12+001899999V0201201N013019999999N020000199+00071-00131099041ADDAY111021AY211021GA1031+012501081GE19MSL   +99999+99999GF103991031999012501999999MA1999999098841MD1210091+9999MW1021REMSYN06001028 41670 31213 10007 21013 39884 49904 52009 70211 83100=
0187010280999992015010905004+74517+019000FM-12+001899999V0201301N011019999999N020000199+00081-00181099121ADDAY111021AY211021GA1031+012501081GE19MSL   +99999+99999GF103991031999012501999999MA1999999098921MD1310141+9999MW1021REMSYN06001028 41670 31311 10008 21018 39892 49912 53014 70211 83100=
0309010280999992015010906004+74517+019000FM-12+001899999V0201201N011019999999N020000199+00051-00161099161ADDAA112000431AA224000531AJ199991999999999AY121021AY221021GA1031+012501061GA2999+999999031GE19MSL   +99999+99999GF104991031999012501999999IA1279KA1240N+00041MA1999999098961MD1310141+9999MW1021OD139901701999REMSYN09401028 11670 41211 10005 21016 39896 49916 53014 69942 70222 83530 333 20004 43/// 70005 91117=
0203010280999992015010907004+74517+019000FM-12+001899999V0201201N011019999999N015000199+00091-00061099191ADDAY121021AY211021GA1071+004501061GA2999+999999031GE19MSL   +99999+99999GF107991071999004501999999MA1999999098991MD1110151+9999MW1031REMSYN06001028 41465 71211 10009 21006 39899 49919 51015 70321 8753/=
0203010280999992015010908004+74517+019000FM-12+001899999V0201201N010019999999N008000199+00081-00081099241ADDAY171021AY261021GA1061+004501071GA2999+999999041GE19MSL   +99999+99999GF107991061999004501999999MA1999999099041MD1210121+9999MW1681REMSYN06001028 41458 71210 10008 21008 39904 49924 52012 76876 8671/=
0187010280999992015010909004+74517+019000FM-12+001899999V0201201N010019999999N010000199+00101-00061099311ADDAY171021AY261021GA1051+004501071GE19MSL   +99999+99999GF105991051999004501999999MA1999999099111MD1310161+9999MW1231REMSYN06001028 41460 51210 10010 21006 39911 49931 53016 72376 85700=
0203010280999992015010910004+74517+019000FM-12+001899999V0201201N011019999999N015000199+00121-00161099331ADDAY121021AY211021GA1041+008001071GA2999+999999031GE19MSL   +99999+99999GF104991041999008001999999MA1999999099131MD1210151+9999MW1021REMSYN06001028 41565 41211 10012 21016 39913 49933 52015 70221 84730=
0187010280999992015010911004+74517+019000FM-12+001899999V0201201N014019999999N005000199+00101-00111099351ADDAY171021AY261021GA1071+004501071GE19MSL   +99999+99999GF107991071999004501999999MA1999999099151MD1110111+9999MW1681REMSYN06001028 41450 71214 10010 21011 39915 49935 51011 76876 87700=
0248010280999992015010912004+74517+019000FM-12+001899999V0201201N014019999999N010000199+00111-00091099431ADDAA106000021AY171021AY261021GA1061+008001061GE19MSL   +99999+99999GF106991061999008001999999MA1999999099231MD1310121+9999MW1021OD139901901999SA1-0051REMSYN08801028 11560 61214 10011 21009 39923 49943 53012 69901 70276 86500 222// 01005 333 91119=
0187010280999992015010913004+74517+019000FM-12+001899999V0201201N016019999999N010000199+00091-00151099491ADDAY171021AY261021GA1071+008001061GE19MSL   +99999+99999GF107991071999008001999999MA1999999099291MD1310151+9999MW1021REMSYN06001028 41560 71216 10009 21015 39929 49949 53015 70276 87500=
0187010280999992015010914004+74517+019000FM-12+001899999V0201201N014019999999N010000199+00101-00171099551ADDAY121021AY221021GA1071+008001061GE19MSL   +99999+99999GF107991071999008001999999MA1999999099351MD1310201+9999MW1021REMSYN06001028 41560 71214 10010 21017 39935 49955 53020 70222 87500=
0187010280999992015010915004+74517+019000FM-12+001899999V0201201N015019999999N015000199+00091-00201099651ADDAY121021AY221021GA1061+012501061GE19MSL   +99999+99999GF106991061999012501999999MA1999999099451MD1310211+9999MW1011REMSYN06001028 41665 61215 10009 21020 39945 49965 53021 70122 86500=
0187010280999992015010916004+74517+019000FM-12+001899999V0201201N014019999999N015000199+00071-00371099721ADDAY121021AY221021GA1061+012501061GE19MSL   +99999+99999GF106991061999012501999999MA1999999099521MD1310241+9999MW1021REMSYN06001028 41665 61214 10007 21037 39952 49972 53024 70222 86500=
0187010280999992015010917004+74517+019000FM-12+001899999V0201201N012019999999N015000199+00011-00481099851ADDAY121021AY221021GA1061+012501061GE19MSL   +99999+99999GF106991061999012501999999MA1999999099651MD1310301+9999MW1021REMSYN06001028 41665 61212 10001 21048 39965 49985 53030 70222 86500=
0247010280999992015010918004+74517+019000FM-12+001899999V0201301N010019999999N020000199-00031-00491099921ADDAA112000021AY121021AY221021GA1071+012501061GE19MSL   +99999+99999GF107991071999012501999999KA1120M+00121MA1999999099721MD1210271+9999MW1021OD139902001999REMSYN08201028 11670 71310 11003 21049 39972 49992 52027 69902 70222 875// 333 10012 91120=
0187010280999992015010919004+74517+019000FM-12+001899999V0201201N012019999999N020000199-00021-00441099971ADDAY121021AY221021GA1071+012501061GE19MSL   +99999+99999GF107991071999012501999999MA1999999099771MD1110251+9999MW1021REMSYN06001028 41670 71212 11002 21044 39977 49997 51025 70222 875//=
0187010280999992015010920004+74517+019000FM-12+001899999V0201201N012019999999N020000199-00021-00511100021ADDAY121021AY221021GA1071+017501061GE19MSL   +99999+99999GF107991071999017501999999MA1999999099821MD1210161+9999MW1021REMSYN06001028 41770 71212 11002 21051 39982 40002 52016 70222 875//=
0187010280999992015010921004+74517+019000FM-12+001899999V0201201N011019999999N020000199-00021-00451100061ADDAY121021AY221021GA1071+012501061GE19MSL   +99999+99999GF107991071999012501999999MA1999999099861MD1210141+9999MW1021REMSYN06001028 41670 71211 11002 21045 39986 40006 52014 70222 875//=
0187010280999992015010922004+74517+019000FM-12+001899999V0201201N012019999999N020000199-00041-00471100101ADDAY121021AY221021GA1071+017501061GE19MSL   +99999+99999GF107991071999017501999999MA1999999099901MD1210121+9999MW1021REMSYN06001028 41770 71212 11004 21047 39990 40010 52012 70222 875//=
0187010280999992015010923004+74517+019000FM-12+001899999V0201201N011019999999N020000199-00021-00451100111ADDAY121021AY221021GA1071+017501061GE19MSL   +99999+99999GF107991071999017501999999MA1999999099911MD1210091+9999MW1021REMSYN06001028 41770 71211 11002 21045 39991 40011 52009 70222 875//=
0228010280999992015011000004+74517+019000FM-12+001899999V0201101N009019999999N010000199-00031-00391100151ADDAA106000021AY181021AY221021GA1071+008001081GE19MSL   +99999+99999GF107991071999008001999999MA1999999099951MD1210091+9999MW1261OD139901701999REMSYN07601028 11560 71109 11003 21039 39995 40015 52009 69901 72682 878// 333 91117=
0187010280999992015011001004+74517+019000FM-12+001899999V0201101N010019999999N010000199-00041-00491100161ADDAY121021AY221021GA1071+012501081GE19MSL   +99999+99999GF107991071999012501999999MA1999999099961MD1210071+9999MW1021REMSYN06001028 41660 71110 11004 21049 39996 40016 52007 70222 878//=
0187010280999992015011002004+74517+019000FM-12+001899999V0201101N011019999999N010000199-00061-00461100161ADDAY121021AY221021GA1061+012501081GE19MSL   +99999+99999GF106991061999012501999999MA1999999099961MD1990051+9999MW1011REMSYN06001028 41660 61111 11006 21046 39996 40016 50005 70122 86800=
0206010280999992015011003004+74517+019000FM-12+001899999V0201001N010019999999N010000199-00061-00441100161ADDAY121021AY221021GA1061+012501081GE19MSL   +99999+99999GF106991061999012501999999MA1999999099961MD1290019+9999MW1021REMSYN06001028 41660 61010 11006 21044 39996 40016 54001 70222 86800=EQDQ01.1    3APC3  
0187010280999992015011004004+74517+019000FM-12+001899999V0201101N010019999999N010000199-00091-00511100141ADDAY121021AY221021GA1071+012501081GE19MSL   +99999+99999GF107991071999012501999999MA1999999099941MD1710031+9999MW1021REMSYN06001028 41660 71110 11009 21051 39994 40014 57003 70222 878//=
0187010280999992015011005004+74517+019000FM-12+001899999V0201101N010019999999N010000199-00101-00521100121ADDAY121021AY221021GA1061+012501061GE19MSL   +99999+99999GF106991061999012501999999MA1999999099921MD1710031+9999MW1021REMSYN06001028 41660 61110 11010 21052 39992 40012 57003 70222 86500=
0293010280999992015011006004+74517+019000FM-12+001899999V0201001N011019999999N010000199-00101-00431100121ADDAA112000021AA224000021AJ199991999999999AY121021AY221021GA1061+017501061GE19MSL   +99999+99999GF106991061999017501999999IA1279KA1240N-00121MA1999999099921MD1710041+9999MW1021OD139901701999REMSYN09401028 11760 61011 11010 21043 39992 40012 57004 69902 70222 86500 333 21012 43/// 79999 91117=
0187010280999992015011007004+74517+019000FM-12+001899999V0201101N011019999999N020000199-00141-00591100111ADDAY101021AY201021GA1041+017501061GE19MSL   +99999+99999GF104991041999017501999999MA1999999099911MD1710031+9999MW1011REMSYN06001028 41770 41111 11014 21059 39991 40011 57003 70100 84500=
0187010280999992015011008004+74517+019000FM-12+001899999V0201001N011019999999N020000199-00161-00611100101ADDAY101021AY201021GA1041+017501061GE19MSL   +99999+99999GF104991041999017501999999MA1999999099901MD1710021+9999MW1011REMSYN06001028 41770 41011 11016 21061 39990 40010 57002 70100 84500=
0187010280999992015011009004+74517+019000FM-12+001899999V0201001N012019999999N030000199-00141-00631100081ADDAY101021AY201021GA1051+017501061GE19MSL   +99999+99999GF105991051999017501999999MA1999999099881MD1710031+9999MW1031REMSYN06001028 41780 51012 11014 21063 39988 40008 57003 70300 85500=
0187010280999992015011010004+74517+019000FM-12+001899999V0201001N012019999999N030000199-00151-00541100071ADDAY111021AY211021GA1041+017501081GE19MSL   +99999+99999GF104991041999017501999999MA1999999099871MD1710041+9999MW1011REMSYN06001028 41780 41012 11015 21054 39987 40007 57004 70111 84800=
0187010280999992015011011004+74517+019000FM-12+001899999V0201101N011019999999N020000199-00161-00501100061ADDAY181021AY221021GA1071+012501081GE19MSL   +99999+99999GF107991071999012501999999MA1999999099861MD1810041+9999MW1851REMSYN06001028 41670 71111 11016 21050 39986 40006 58004 78582 87800=
0248010280999992015011012004+74517+019000FM-12+001899999V0201101N010019999999N020000199-00171-00621100071ADDAA106000021AY181021AY211021GA1061+012501081GE19MSL   +99999+99999GF106991061999012501999999MA1999999099871MD1710021+9999MW1261OD139901601999SA1+0011REMSYN08801028 11670 61110 11017 21062 39987 40007 57002 69901 72681 86800 222// 00001 333 91116=
0187010280999992015011013004+74517+019000FM-12+001899999V0201101N010019999999N020000199-00221-00711100071ADDAY121021AY201021GA1031+012501081GE19MSL   +99999+99999GF103991031999012501999999MA1999999099871MD1410001+9999MW1011REMSYN06001028 41670 31110 11022 21071 39987 40007 54000 70120 83800=
0187010280999992015011014004+74517+019000FM-12+001899999V0201001N011019999999N020000199-00181-00591100061ADDAY121021AY211021GA1051+012501061GE19MSL   +99999+99999GF105991051999012501999999MA1999999099861MD1410001+9999MW1031REMSYN06001028 41670 51011 11018 21059 39986 40006 54000 70321 85500=
0187010280999992015011015004+74517+019000FM-12+001899999V0201101N008019999999N020000199-00251-00731100061ADDAY121021AY211021GA1031+012501061GE19MSL   +99999+99999GF103991031999012501999999MA1999999099861MD1410001+9999MW1011REMSYN06001028 41670 31108 11025 21073 39986 40006 54000 70121 83500=
0206010280999992015011016004+74517+019000FM-12+001899999V0201001N009019999999N020000199-00241-00761100061ADDAY111021AY211021GA1041+012501061GE19MSL   +99999+99999GF104991041999012501999999MA1999999099861MD1790019+9999MW1021REMSYN06001028 41670 41009 11024 21076 39986 40006 54001 70211 84500=EQDQ01.1    3APC3  
0187010280999992015011017004+74517+019000FM-12+001899999V0201101N009019999999N020000199-00261-00771100071ADDAY111021AY211021GA1041+012501061GE19MSL   +99999+99999GF104991041999012501999999MA1999999099871MD1210021+9999MW1021REMSYN06001028 41670 41109 11026 21077 39987 40007 52002 70211 84500=
0247010280999992015011018004+74517+019000FM-12+001899999V0201101N007019999999N020000199-00291-00791100101ADDAA112000021AY121021AY211021GA1031+017501061GE19MSL   +99999+99999GF103991031999017501999999KA1120M-00091MA1999999099901MD1210041+9999MW1021OD139901401999REMSYN08201028 11770 31107 11029 21079 39990 40010 52004 69902 70221 83500 333 11009 91114=
0187010280999992015011019004+74517+019000FM-12+001899999V0201101N009019999999N010000199-00241-00681100131ADDAY121021AY221021GA1061+008001061GE19MSL   +99999+99999GF106991061999008001999999MA1999999099931MD1210071+9999MW1021REMSYN06001028 41560 61109 11024 21068 39993 40013 52007 70222 86500=
0187010280999992015011020004+74517+019000FM-12+001899999V0201001N007019999999N010000199-00321-00771100141ADDAY121021AY211021GA1041+012501061GE19MSL   +99999+99999GF104991041999012501999999MA1999999099941MD1210071+9999MW1011REMSYN06001028 41660 41007 11032 21077 39994 40014 52007 70121 84500=
0187010280999992015011021004+74517+019000FM-12+001899999V0201201N007019999999N010000199-00351-00771100141ADDAY111021AY211021GA1041+012501061GE19MSL   +99999+99999GF104991041999012501999999MA1999999099941MD1210041+9999MW1021REMSYN06001028 41660 41207 11035 21077 39994 40014 52004 70211 84500=
0187010280999992015011022004+74517+019000FM-12+001899999V0201101N005019999999N010000199-00371-00711100151ADDAY111021AY211021GA1031+012501061GE19MSL   +99999+99999GF103991031999012501999999MA1999999099951MD1210011+9999MW1011REMSYN06001028 41660 31105 11037 21071 39995 40015 52001 70111 83500=
0187010280999992015011023004+74517+019000FM-12+001899999V0201001N006019999999N010000199-00381-00711100171ADDAY111021AY201021GA1031+012501061GE19MSL   +99999+99999GF103991031999012501999999MA1999999099971MD1210031+9999MW1021REMSYN06001028 41660 31006 11038 21071 39997 40017 52003 70210 83500=
0247010280999992015011100004+74517+019000FM-12+001899999V0201101N004019999999N010000199-00421-00711100181ADDAA106000091AY121021AY201021GA1071+012501061GE19MSL   +99999+99999GF107991071999012501999999MA1999999099981MD1210041+9999MW1031OD139901301999REMSYN07601028 11660 71104 11042 21071 39998 40018 52004 69901 70320 87500 333 91113=EQDQ01  00002PRCP06
0187010280999992015011101004+74517+019000FM-12+001899999V0201101N005019999999N020000199-00471-00781100181ADDAY111021AY211021GA1051+012501061GE19MSL   +99999+99999GF105991051999012501999999MA1999999099981MD1210031+9999MW1011REMSYN06001028 41670 51105 11047 21078 39998 40018 52003 70111 85500=
0187010280999992015011102004+74517+019000FM-12+001899999V0200901N004019999999N020000199-00481-00711100201ADDAY121021AY211021GA1061+012501061GE19MSL   +99999+99999GF106991061999012501999999MA1999999100001MD1210031+9999MW1031REMSYN06001028 41670 60904 11048 21071 30000 40020 52003 70321 86500=
0143010280999992015011103004+74517+019000FM-12+001899999V0200901N00701002401CN003000199-00241-00391100211ADDAY121021AY211021GF109991999999999999999999MA1999999100011MD1210031+9999MW1851REMSYN05401028 41/30 90907 11024 21039 30001 40021 52003 78521=
0143010280999992015011104004+74517+019000FM-12+001899999V0200601N00501002401CN001000199-00281-00391100211ADDAY181021AY221021GF109991999999999999999999MA1999999100011MD1210031+9999MW1861REMSYN05401028 41/10 90605 11028 21039 30001 40021 52003 78682=
0206010280999992015011105004+74517+019000FM-12+001899999V0200701N007019999999N003000199-00241-00431100211ADDAY181021AY221021GA1081+008001081GE19MSL   +99999+99999GF108991081999008001999999MA1999999100011MD1290019+9999MW1851REMSYN06001028 41530 80707 11024 21043 30001 40021 54001 78582 888//=EQDQ01.1    3APC3  
0309010280999992015011106004+74517+019000FM-12+001899999V0200601N004019999999N004000199-00291-00391100231ADDAA112002032AA224001732AJ199991999999999AY181021AY211021GA1041+004501081GA2999+999999031GE19MSL   +99999+99999GF107991041999004501999999IA1239KA1240N-00511MA1999999100031MD1310021+9999MW1851OD139901001999REMSYN09401028 11440 70604 11029 21039 30003 40023 53002 60022 78581 8483/ 333 21051 47/// 70017 91110=
0203010280999992015011107004+74517+019000FM-12+001899999V0200601N006019999999N005000199-00241-00381100231ADDAY181021AY221021GA1041+004501081GA2999+999999031GE19MSL   +99999+99999GF107991041999004501999999MA1999999100031MD1210031+9999MW1851REMSYN06001028 41450 70606 11024 21038 30003 40023 52003 78582 8483/=
0203010280999992015011108004+74517+019000FM-12+001899999V0200501N005019999999N015000199-00261-00451100241ADDAY181021AY221021GA1021+004501081GA2999+999999031GE19MSL   +99999+99999GF104991021999004501999999MA1999999100041MD1210031+9999MW1261REMSYN06001028 41465 40505 11026 21045 30004 40024 52003 72682 82830=
0222010280999992015011109004+74517+019000FM-12+001899999V0200601N005019999999N009000199-00261-00401100241ADDAY181021AY221021GA1021+004501081GA2999+999999031GE19MSL   +99999+99999GF106991021999004501999999MA1999999100041MD1290019+9999MW1851REMSYN06001028 41459 60605 11026 21040 30004 40024 54001 78582 82890=EQDQ01.1    3APC3  
0203010280999992015011110004+74517+019000FM-12+001899999V0200501N007019999999N020000199-00151-00491100251ADDAY181021AY221021GA1041+004501091GA2999+999999031GE19MSL   +99999+99999GF106991041999004501999999MA1999999100051MD1410001+9999MW1261REMSYN06001028 41470 60507 11015 21049 30005 40025 54000 72682 84990=
0203010280999992015011111004+74517+019000FM-12+001899999V0200601N008019999999N030000199-00171-00441100251ADDAY121021AY221021GA1041+004501081GA2999+999999031GE19MSL   +99999+99999GF105991041999004501999999MA1999999100051MD1210011+9999MW1021REMSYN06001028 41480 50608 11017 21044 30005 40025 52001 70222 84230=
0264010280999992015011112004+74517+019000FM-12+001899999V0200601N009019999999N020000199-00201-00431100281ADDAA106000131AY181021AY221021GA1051+004501081GA2999+999999031GE19MSL   +99999+99999GF105991051999004501999999MA1999999100081MD1210041+9999MW1261OD139901101999SA1+0021REMSYN08801028 11470 50609 11020 21043 30008 40028 52004 69911 72682 85230 222// 00002 333 91111=
0203010280999992015011113004+74517+019000FM-12+001899999V0200601N009019999999N015000199-00171-00361100271ADDAY121021AY221021GA1071+004501081GA2999+999999041GE19MSL   +99999+99999GF107991071999004501999999MA1999999100071MD1210031+9999MW1031REMSYN06001028 41465 70609 11017 21036 30007 40027 52003 70322 8721/=
0203010280999992015011114004+74517+019000FM-12+001899999V0200701N009019999999N010000199-00231-00381100291ADDAY121021AY221021GA1071+004501081GA2999+999999031GE19MSL   +99999+99999GF107991071999004501999999MA1999999100091MD1210041+9999MW1021REMSYN06001028 41460 70709 11023 21038 30009 40029 52004 70222 8723/=
0187010280999992015011115004+74517+019000FM-12+001899999V0201001N008019999999N003000199-00231-00331100301ADDAY181021AY221021GA1071+008001081GE19MSL   +99999+99999GF107991071999008001999999MA1999999100101MD1210031+9999MW1851REMSYN06001028 41530 71008 11023 21033 30010 40030 52003 78582 872//=
0187010280999992015011116004+74517+019000FM-12+001899999V0200801N010019999999N010000199-00221-00411100331ADDAY181021AY221021GA1071+004501081GE19MSL   +99999+99999GF107991071999004501999999MA1999999100131MD1210061+9999MW1261REMSYN06001028 41460 70810 11022 21041 30013 40033 52006 72682 872//=
0187010280999992015011117004+74517+019000FM-12+001899999V0200901N008019999999N010000199-00281-00451100361ADDAY121021AY221021GA1071+008001081GE19MSL   +99999+99999GF107991071999008001999999MA1999999100161MD1210061+9999MW1021REMSYN06001028 41560 70908 11028 21045 30016 40036 52006 70222 872//=
0247010280999992015011118004+74517+019000FM-12+001899999V0200701N006019999999N010000199-00261-00411100371ADDAA112000231AY181021AY221021GA1051+012501081GE19MSL   +99999+99999GF105991051999012501999999KA1120M-00141MA1999999100171MD1210071+9999MW1021OD139901301999REMSYN08201028 11660 50706 11026 21041 30017 40037 52007 69922 70282 85800 333 11014 91113=
0187010280999992015011119004+74517+019000FM-12+001899999V0200701N013019999999N003000199-00191-00421100401ADDAY181021AY221021GA1071+012501081GE19MSL   +99999+99999GF107991071999012501999999MA1999999100201MD1210061+9999MW1851REMSYN06001028 41630 70713 11019 21042 30020 40040 52006 78582 87800=
0187010280999992015011120004+74517+019000FM-12+001899999V0200701N010019999999N020000199-00221-00391100431ADDAY181021AY221021GA1051+012501081GE19MSL   +99999+99999GF105991051999012501999999MA1999999100231MD1210071+9999MW1851REMSYN06001028 41670 50710 11022 21039 30023 40043 52007 78582 85800=
0187010280999992015011121004+74517+019000FM-12+001899999V0200601N012019999999N010000199-00231-00381100441ADDAY181021AY221021GA1051+004501081GE19MSL   +99999+99999GF105991051999004501999999MA1999999100241MD1210071+9999MW1851REMSYN06001028 41460 50612 11023 21038 30024 40044 52007 78582 85800=
0143010280999992015011122004+74517+019000FM-12+001899999V0201001N01101001201CN000600199-00251-00341100471ADDAY181021AY221021GF109991999999999999999999MA1999999100271MD1210071+9999MW1861REMSYN05401028 41/06 91011 11025 21034 30027 40047 52007 78682=
0187010280999992015011123004+74517+019000FM-12+001899999V0201101N008019999999N004000199-00281-00401100471ADDAY181021AY221021GA1061+008001081GE19MSL   +99999+99999GF106991061999008001999999MA1999999100271MD1990041+9999MW1851REMSYN06001028 41540 61108 11028 21040 30027 40047 50004 78582 86800=
0244010280999992015011200004+74517+019000FM-12+001899999V0200701N012019999999N006000199-00221-00511100471ADDAA106000131AY181021AY221021GA1041+008001081GA2999+999999031GE19MSL   +99999+99999GF108991041999008001999999MA1999999100271MD1990031+9999MW1381OD139901601999REMSYN07601028 11556 80712 11022 21051 30027 40047 50003 69911 73882 8489/ 333 91116=
0117010280999992015011201004+74517+019000FM-12+001899999V0200701N011019999999N020000199-00261-00631100501ADDAY131021AY211021MA1999999100301MD1210031+9999MW1361REMSYN05401028 41970 00711 11026 21063 30030 40050 52003 73631=
0187010280999992015011202004+74517+019000FM-12+001899999V0200701N011019999999N030000199-00241-00581100471ADDAY131021AY201021GA1011+008001061GE19MSL   +99999+99999GF101991011999008001999999MA1999999100271MD1990001+9999MW1361REMSYN06001028 41580 10711 11024 21058 30027 40047 50000 73630 81500=
0187010280999992015011203004+74517+019000FM-12+001899999V0200601N012019999999N030000199-00201-00561100441ADDAY101021AY201021GA1031+008001061GE19MSL   +99999+99999GF103991031999008001999999MA1999999100241MD1810041+9999MW1031REMSYN06001028 41580 30612 11020 21056 30024 40044 58004 70300 83500=
0187010280999992015011204004+74517+019000FM-12+001899999V0200801N010019999999N030000199-00171-00371100441ADDAY131021AY201021GA1041+008001061GE19MSL   +99999+99999GF104991041999008001999999MA1999999100241MD1510051+9999MW1361REMSYN06001028 41580 40810 11017 21037 30024 40044 55005 73630 84500=
0143010280999992015011205004+74517+019000FM-12+001899999V0200601N01001002401CN001000199-00201-00401100411ADDAY181021AY231021GF109991999999999999999999MA1999999100211MD1810061+9999MW1861REMSYN05401028 41/10 90610 11020 21040 30021 40041 58006 78683=
0293010280999992015011206004+74517+019000FM-12+001899999V0200701N012019999999N008000199-00191-00551100401ADDAA112000131AA224000331AJ199991999999999AY181021AY231021GA1051+008001081GE19MSL   +99999+99999GF105991051999008001999999IA1239KA1240N-00311MA1999999100201MD1810041+9999MW1361OD139901501999REMSYN09401028 11558 50712 11019 21055 30020 40040 58004 69912 73683 85800 333 21031 47/// 70003 91115=
0187010280999992015011207004+74517+019000FM-12+001899999V0200601N011019999999N002500199-00151-00471100381ADDAY181021AY231021GA1071+008001081GE19MSL   +99999+99999GF107991071999008001999999MA1999999100181MD1810071+9999MW1851REMSYN06001028 41525 70611 11015 21047 30018 40038 58007 78583 878//=
0143010280999992015011208004+74517+019000FM-12+001899999V0201001N01001001201CN000500199-00251-00331100401ADDAY181021AY231021GF109991999999999999999999MA1999999100201MD1510001+9999MW1861REMSYN05401028 41/05 91010 11025 21033 30020 40040 55000 78683=
0203010280999992015011209004+74517+019000FM-12+001899999V0200801N011019999999N010000199-00171-00381100381ADDAY181021AY231021GA1051+008001081GA2999+999999031GE19MSL   +99999+99999GF107991051999008001999999MA1999999100181MD1710011+9999MW1361REMSYN06001028 41560 70811 11017 21038 30018 40038 57001 73683 85860=
0187010280999992015011210004+74517+019000FM-12+001899999V0200701N011019999999N015000199-00191-00501100351ADDAY131021AY221021GA1051+008001081GE19MSL   +99999+99999GF105991051999008001999999MA1999999100151MD1810021+9999MW1361REMSYN06001028 41565 50711 11019 21050 30015 40035 58002 73632 85800=
0187010280999992015011211004+74517+019000FM-12+001899999V0200701N012019999999N020000199-00261-00441100341ADDAY131021AY211021GA1031+008001081GE19MSL   +99999+99999GF103991031999008001999999MA1999999100141MD1710061+9999MW1011REMSYN06001028 41570 30712 11026 21044 30014 40034 57006 70131 83800=
0228010280999992015011212004+74517+019000FM-12+001899999V0200701N011019999999N030000199-00261-00421100311ADDAA106000021AY181021AY231021GA1041+004501081GE19MSL   +99999+99999GF104991041999004501999999MA1999999100111MD1710071+9999MW1031OD139901601999REMSYN07601028 11480 40711 11026 21042 30011 40031 57007 69901 70383 84800 333 91116=
0187010280999992015011213004+74517+019000FM-12+001899999V0200701N012019999999N010000199-00291-00471100301ADDAY131021AY211021GA1041+004501081GE19MSL   +99999+99999GF104991041999004501999999MA1999999100101MD1710051+9999MW1021REMSYN06001028 41460 40712 11029 21047 30010 40030 57005 70231 84800=
0187010280999992015011214004+74517+019000FM-12+001899999V0200801N012019999999N015000199-00281-00411100261ADDAY131021AY211021GA1041+004501081GE19MSL   +99999+99999GF104991041999004501999999MA1999999100061MD1710081+9999MW1851REMSYN06001028 41465 40812 11028 21041 30006 40026 57008 78531 84800=
0187010280999992015011215004+74517+019000FM-12+001899999V0200601N014019999999N015000199-00281-00511100191ADDAY181021AY221021GA1031+008001081GE19MSL   +99999+99999GF103991031999008001999999MA1999999099991MD1810121+9999MW1851REMSYN06001028 41565 30614 11028 21051 39999 40019 58012 78582 83800=
0117010280999992015011216004+74517+019000FM-12+001899999V0200601N014019999999N020000199-00271-00541100151ADDAY131021AY211021MA1999999099951MD1610151+9999MW1261REMSYN05401028 41970 00614 11027 21054 39995 40015 56015 72631=
0187010280999992015011217004+74517+019000FM-12+001899999V0200601N013019999999N020000199-00251-00591100121ADDAY121021AY211021GA1041+008001081GE19MSL   +99999+99999GF104991041999008001999999MA1999999099921MD1710141+9999MW1031REMSYN06001028 41570 40613 11025 21059 39992 40012 57014 70321 84800=
0247010280999992015011218004+74517+019000FM-12+001899999V0200601N012019999999N010000199-00241-00551100071ADDAA112000021AY181021AY231021GA1071+008001081GE19MSL   +99999+99999GF107991071999008001999999KA1120M-00141MA1999999099871MD1710121+9999MW1851OD139901701999REMSYN08201028 11560 70612 11024 21055 39987 40007 57012 69902 78583 878// 333 11014 91117=
0187010280999992015011219004+74517+019000FM-12+001899999V0200701N011019999999N020000199-00281-00601100051ADDAY181021AY231021GA1041+008001081GE19MSL   +99999+99999GF104991041999008001999999MA1999999099851MD1710111+9999MW1851REMSYN06001028 41570 40711 11028 21060 39985 40005 57011 78583 84800=
0117010280999992015011220004+74517+019000FM-12+001899999V0200601N012019999999N030000199-00271-00651100021ADDAY181021AY231021MA1999999099821MD1710101+9999MW1361REMSYN05401028 41980 00612 11027 21065 39982 40002 57010 73683=
0117010280999992015011221004+74517+019000FM-12+001899999V0200701N012019999999N040000199-00291-00701099971ADDAY131021AY201021MA1999999099771MD1810101+9999MW1021REMSYN05401028 41982 00712 11029 21070 39977 49997 58010 70230=
0117010280999992015011222004+74517+019000FM-12+001899999V0200601N012019999999N060000199-00301-00641099901ADDAY101021AY201021MA1999999099701MD1810151+9999MW1021REMSYN05401028 41986 00612 11030 21064 39970 49990 58015 70200=
0117010280999992015011223004+74517+019000FM-12+001899999V0200601N013019999999N060000199-00321-00741099861ADDAY131021AY201021MA1999999099661MD1710161+9999MW1361REMSYN05401028 41986 00613 11032 21074 39966 49986 57016 73630=
0228010280999992015011300004+74517+019000FM-12+001899999V0200501N013019999999N025000199-00311-00741099811ADDAA106000021AY181021AY231021GA1021+008001081GE19MSL   +99999+99999GF102991021999008001999999MA1999999099611MD1710161+9999MW1361OD139901701999REMSYN07601028 11575 20513 11031 21074 39961 49981 57016 69901 73683 82800 333 91117=
0187010280999992015011301004+74517+019000FM-12+001899999V0200601N013019999999N025000199-00341-00801099771ADDAY131021AY201021GA1021+008001081GE19MSL   +99999+99999GF102991021999008001999999MA1999999099571MD1710121+9999MW1361REMSYN06001028 41575 20613 11034 21080 39957 49977 57012 73630 82800=
0187010280999992015011302004+74517+019000FM-12+001899999V0200501N013019999999N025000199-00321-00801099721ADDAY101021AY201021GA1021+008001081GE19MSL   +99999+99999GF102991021999008001999999MA1999999099521MD1710141+9999MW1021REMSYN06001028 41575 20513 11032 21080 39952 49972 57014 70200 82800=
0187010280999992015011303004+74517+019000FM-12+001899999V0200601N013019999999N025000199-00331-00751099661ADDAY131021AY201021GA1041+008001081GE19MSL   +99999+99999GF104991041999008001999999MA1999999099461MD1810151+9999MW1031REMSYN06001028 41575 40613 11033 21075 39946 49966 58015 70330 84800=
0187010280999992015011304004+74517+019000FM-12+001899999V0200501N012019999999N025000199-00351-00831099601ADDAY101021AY201021GA1021+008001081GE19MSL   +99999+99999GF102991021999008001999999MA1999999099401MD1710171+9999MW1011REMSYN06001028 41575 20512 11035 21083 39940 49960 57017 70100 82800=
0187010280999992015011305004+74517+019000FM-12+001899999V0200501N012019999999N020000199-00351-00671099541ADDAY121021AY201021GA1051+008001081GE19MSL   +99999+99999GF105991051999008001999999MA1999999099341MD1710181+9999MW1031REMSYN06001028 41570 50512 11035 21067 39934 49954 57018 70320 85800=
0293010280999992015011306004+74517+019000FM-12+001899999V0200401N013019999999N020000199-00371-00751099501ADDAA112000021AA224000021AJ199991999999999AY131021AY211021GA1051+008001081GE19MSL   +99999+99999GF105991051999008001999999IA1239KA1240N-00371MA1999999099301MD1710151+9999MW1021OD139901801999REMSYN09401028 11570 50413 11037 21075 39930 49950 57015 69902 70231 85800 333 21037 47999 79999 91118=
0187010280999992015011307004+74517+019000FM-12+001899999V0200501N013019999999N020000199-00371-00731099451ADDAY121021AY221021GA1061+008001081GE19MSL   +99999+99999GF106991061999008001999999MA1999999099251MD1810151+9999MW1031REMSYN06001028 41570 60513 11037 21073 39925 49945 58015 70322 86800=
0187010280999992015011308004+74517+019000FM-12+001899999V0200501N013019999999N020000199-00371-00701099421ADDAY121021AY221021GA1061+008001081GE19MSL   +99999+99999GF106991061999008001999999MA1999999099221MD1710111+9999MW1021REMSYN06001028 41570 60513 11037 21070 39922 49942 57011 70222 86800=
0187010280999992015011309004+74517+019000FM-12+001899999V0200401N013019999999N020000199-00351-00641099381ADDAY121021AY221021GA1061+008001081GE19MSL   +99999+99999GF106991061999008001999999MA1999999099181MD1810121+9999MW1021REMSYN06001028 41570 60413 11035 21064 39918 49938 58012 70222 86800=
0187010280999992015011310004+74517+019000FM-12+001899999V0200501N013019999999N010000199-00371-00491099341ADDAY121021AY221021GA1071+008001081GE19MSL   +99999+99999GF107991071999008001999999MA1999999099141MD1810111+9999MW1031REMSYN06001028 41560 70513 11037 21049 39914 49934 58011 70322 878//=
0187010280999992015011311004+74517+019000FM-12+001899999V0200601N014019999999N005000199-00331-00531099301ADDAY131021AY221021GA1071+008001081GE19MSL   +99999+99999GF108991071999008001999999MA1999999099101MD1710131+9999MW1161REMSYN06001028 41550 80614 11033 21053 39910 49930 57013 71632 878//=
0248010280999992015011312004+74517+019000FM-12+001899999V0200601N016019999999N010000199-00301-00471099271ADDAA106000231AY131021AY221021GA1041+004501081GE19MSL   +99999+99999GF104991041999004501999999MA1999999099071MD1610111+9999MW1381OD139901901999SA1-0031REMSYN08801028 11460 40616 11030 21047 39907 49927 56011 69921 73832 84800 222// 01003 333 91119=
0187010280999992015011313004+74517+019000FM-12+001899999V0200601N016019999999N004000199-00351-00451099251ADDAY181021AY231021GA1041+004501081GE19MSL   +99999+99999GF104991041999004501999999MA1999999099051MD1610091+9999MW1851REMSYN06001028 41440 40616 11035 21045 39905 49925 56009 78583 84800=
0187010280999992015011314004+74517+019000FM-12+001899999V0200601N018019999999N002500199-00331-00431099241ADDAY181021AY231021GA1061+004501081GE19MSL   +99999+99999GF106991061999004501999999MA1999999099041MD1710051+9999MW1851REMSYN06001028 41425 60618 11033 21043 39904 49924 57005 78583 86800=
0143010280999992015011315004+74517+019000FM-12+001899999V0200601N01401002401CN001000199-00321-00481099221ADDAY181021AY231021GF109991999999999999999999MA1999999099021MD1710051+9999MW1861REMSYN05401028 41/10 90614 11032 21048 39902 49922 57005 78683=
0187010280999992015011316004+74517+019000FM-12+001899999V0200601N016019999999N002500199-00321-00501099201ADDAY181021AY231021GA1081+004501081GE19MSL   +99999+99999GF108991081999004501999999MA1999999099001MD1710051+9999MW1851REMSYN06001028 41425 80616 11032 21050 39900 49920 57005 78583 888//=
0187010280999992015011317004+74517+019000FM-12+001899999V0200601N016019999999N002500199-00361-00501099181ADDAY181021AY231021GA1061+004501081GE19MSL   +99999+99999GF106991061999004501999999MA1999999098981MD1710061+9999MW1851REMSYN06001028 41425 60616 11036 21050 39898 49918 57006 78583 86800=
0247010280999992015011318004+74517+019000FM-12+001899999V0200601N016019999999N005000199-00361-00431099131ADDAA112000531AY181021AY231021GA1041+008001081GE19MSL   +99999+99999GF104991041999008001999999KA1120M-00271MA1999999098931MD1810091+9999MW1381OD139902101999REMSYN08201028 11550 40616 11036 21043 39893 49913 58009 69952 73883 84800 333 11027 91121=
0187010280999992015011319004+74517+019000FM-12+001899999V0200601N016019999999N010000199-00231-00641099091ADDAY131021AY211021GA1021+008001081GE19MSL   +99999+99999GF102991021999008001999999MA1999999098891MD1810101+9999MW1381REMSYN06001028 41560 20616 11023 21064 39889 49909 58010 73831 82800=
0187010280999992015011320004+74517+019000FM-12+001899999V0200601N015019999999N008000199-00231-00511099071ADDAY131021AY211021GA1041+004501091GE19MSL   +99999+99999GF104991041999004501999999MA1999999098871MD1710111+9999MW1381REMSYN06001028 41458 40615 11023 21051 39887 49907 57011 73831 84300=
0187010280999992015011321004+74517+019000FM-12+001899999V0200501N018019999999N005000199-00201-00531099031ADDAY181021AY231021GA1061+004501081GE19MSL   +99999+99999GF106991061999004501999999MA1999999098831MD1710101+9999MW1851REMSYN06001028 41450 60518 11020 21053 39883 49903 57010 78583 86800=
0187010280999992015011322004+74517+019000FM-12+001899999V0200501N017019999999N005000199-00211-00521098981ADDAY181021AY231021GA1071+004501081GE19MSL   +99999+99999GF107991071999004501999999MA1999999098781MD1810111+9999MW1381REMSYN06001028 41450 70517 11021 21052 39878 49898 58011 73883 878//=
0187010280999992015011323004+74517+019000FM-12+001899999V0200501N018019999999N005000199-00211-00561098981ADDAY131021AY221021GA1071+004501081GE19MSL   +99999+99999GF107991071999004501999999MA1999999098781MD1610091+9999MW1381REMSYN06001028 41450 70518 11021 21056 39878 49898 56009 73832 878//=
0184010280999992015011400004+74517+019000FM-12+001899999V0200701N01301000601CN000300199-00331-00371098991ADDAA106000431AY181021AY231021GF109991999999999999999999MA1999999098791MD1510051+9999MW1861OD139902401999REMSYN07001028 11/03 90713 11033 21037 39879 49899 55005 69941 78683 333 91124=
0187010280999992015011401004+74517+019000FM-12+001899999V0200501N013019999999N002000199-00281-00331098941ADDAY181021AY231021GA1071+004501081GE19MSL   +99999+99999GF107991071999004501999999MA1999999098741MD1810041+9999MW1851REMSYN06001028 41420 70513 11028 21033 39874 49894 58004 78583 878//=
0187010280999992015011402004+74517+019000FM-12+001899999V0200501N014019999999N003000199-00221-00361098921ADDAY181021AY221021GA1071+008001081GE19MSL   +99999+99999GF107991071999008001999999MA1999999098721MD1810061+9999MW1851REMSYN06001028 41530 70514 11022 21036 39872 49892 58006 78582 878//=
0187010280999992015011403004+74517+019000FM-12+001899999V0200701N013019999999N003000199-00301-00481098891ADDAY181021AY231021GA1061+008001081GE19MSL   +99999+99999GF106991061999008001999999MA1999999098691MD1610091+9999MW1851REMSYN06001028 41530 60713 11030 21048 39869 49889 56009 78583 86800=
0187010280999992015011404004+74517+019000FM-12+001899999V0200601N013019999999N004000199-00251-00561098831ADDAY131021AY221021GA1061+012501081GE19MSL   +99999+99999GF106991061999012501999999MA1999999098631MD1810111+9999MW1381REMSYN06001028 41640 60613 11025 21056 39863 49883 58011 73832 86800=
0187010280999992015011405004+74517+019000FM-12+001899999V0200701N016019999999N003000199-00261-00621098811ADDAY181021AY231021GA1061+012501081GE19MSL   +99999+99999GF106991061999012501999999MA1999999098611MD1810101+9999MW1851REMSYN06001028 41630 60716 11026 21062 39861 49881 58010 78583 86800=
0293010280999992015011406004+74517+019000FM-12+001899999V0200601N017019999999N003000199-00211-00621098781ADDAA112001031AA224001631AJ199991999999999AY181021AY231021GA1061+012501081GE19MSL   +99999+99999GF106991061999012501999999IA1239KA1240N-00351MA1999999098581MD1610111+9999MW1261OD139902101999REMSYN09401028 11630 60617 11021 21062 39858 49878 56011 60012 72683 86800 333 21035 47/// 70016 91121=
0187010280999992015011407004+74517+019000FM-12+001899999V0200601N018019999999N005000199-00181-00471098771ADDAY131021AY221021GA1071+012501081GE19MSL   +99999+99999GF107991071999012501999999MA1999999098571MD1710061+9999MW1381REMSYN06001028 41650 70618 11018 21047 39857 49877 57006 73832 878//=
0187010280999992015011408004+74517+019000FM-12+001899999V0200701N016019999999N005000199-00261-00471098771ADDAY131021AY221021GA1071+012501081GE19MSL   +99999+99999GF107991071999012501999999MA1999999098571MD1710041+9999MW1381REMSYN06001028 41650 70716 11026 21047 39857 49877 57004 73832 878//=
0187010280999992015011409004+74517+019000FM-12+001899999V0200601N016019999999N003000199-00281-00401098761ADDAY181021AY231021GA1071+012501081GE19MSL   +99999+99999GF107991071999012501999999MA1999999098561MD1710011+9999MW1851REMSYN06001028 41630 70616 11028 21040 39856 49876 57001 78583 878//=
0143010280999992015011410004+74517+019000FM-12+001899999V0200801N01601002401CN001000199-00251-00391098771ADDAY181021AY231021GF109991999999999999999999MA1999999098571MD1410001+9999MW1861REMSYN05401028 41/10 90816 11025 21039 39857 49877 54000 78683=
0143010280999992015011411004+74517+019000FM-12+001899999V0200701N01601000601CN000300199-00291-00331098791ADDAY181021AY231021GF109991999999999999999999MA1999999098591MD1210021+9999MW1861REMSYN05401028 41/03 90716 11029 21033 39859 49879 52002 78683=
0267010280999992015011412004+74517+019000FM-12+001899999V0200701N019019999999N002500199-00241-00331098771ADDAA106000431AY181021AY231021GA1071+008001081GE19MSL   +99999+99999GF107991071999008001999999MA1999999098571MD1290019+9999MW1391OD139902401999SA1+0051REMSYN08801028 11525 70719 11024 21033 39857 49877 54001 69941 73983 878// 222// 00005 333 91124=EQDQ01.1    3APC3  
0143010280999992015011413004+74517+019000FM-12+001899999V0200701N01801000601CN000300199-00261-00331098801ADDAY181021AY231021GF109991999999999999999999MA1999999098601MD1210021+9999MW1861REMSYN05401028 41/03 90718 11026 21033 39860 49880 52002 78683=
0143010280999992015011414004+74517+019000FM-12+001899999V0200701N01801000601CN000300199-00241-00311098811ADDAY181021AY231021GF109991999999999999999999MA1999999098611MD1310021+9999MW1861REMSYN05401028 41/03 90718 11024 21031 39861 49881 53002 78683=
0187010280999992015011415004+74517+019000FM-12+001899999V0200701N018019999999N002500199-00231-00321098821ADDAY181021AY231021GA1061+008001081GE19MSL   +99999+99999GF106991061999008001999999MA1999999098621MD1210051+9999MW1391REMSYN06001028 41525 60718 11023 21032 39862 49882 52005 73983 86800=
0187010280999992015011416004+74517+019000FM-12+001899999V0200601N019019999999N002500199-00191-00311098821ADDAY131021AY221021GA1061+008001081GE19MSL   +99999+99999GF106991061999008001999999MA1999999098621MD1990021+9999MW1391REMSYN06001028 41525 60619 11019 21031 39862 49882 50002 73932 86800=
0143010280999992015011417004+74517+019000FM-12+001899999V0200701N02001000601CN000300199-00151-00381098851ADDAY181021AY231021GF109991999999999999999999MA1999999098651MD1210031+9999MW1861REMSYN05401028 41/03 90720 11015 21038 39865 49885 52003 78683=
0247010280999992015011418004+74517+019000FM-12+001899999V0200601N020019999999N002500199-00131-00291098921ADDAA112001031AY181021AY231021GA1061+008001081GE19MSL   +99999+99999GF106991061999008001999999KA1120M-00131MA1999999098721MD1310111+9999MW1391OD139902501999REMSYN08201028 11525 60620 11013 21029 39872 49892 53011 60012 73983 86800 333 11013 91125=
0187010280999992015011419004+74517+019000FM-12+001899999V0200601N018019999999N005000199-00131-00311099001ADDAY131021AY221021GA1061+008001081GE19MSL   +99999+99999GF106991061999008001999999MA1999999098801MD1310181+9999MW1391REMSYN06001028 41550 60618 11013 21031 39880 49900 53018 73932 86800=
0187010280999992015011420004+74517+019000FM-12+001899999V0200601N019019999999N004000199-00131-00351099081ADDAY131021AY221021GA1061+008001081GE19MSL   +99999+99999GF106991061999008001999999MA1999999098881MD1310241+9999MW1391REMSYN06001028 41540 60619 11013 21035 39888 49908 53024 73932 86800=
0187010280999992015011421004+74517+019000FM-12+001899999V0200601N019019999999N003000199-00111-00421099101ADDAY131021AY221021GA1061+008001081GE19MSL   +99999+99999GF106991061999008001999999MA1999999098901MD1110181+9999MW1391REMSYN06001028 41530 60619 11011 21042 39890 49910 51018 73932 86800=
0187010280999992015011422004+74517+019000FM-12+001899999V0200601N019019999999N003000199-00151-00311099171ADDAY131021AY221021GA1061+008001081GE19MSL   +99999+99999GF106991061999008001999999MA1999999098971MD1110171+9999MW1391REMSYN06001028 41530 60619 11015 21031 39897 49917 51017 73932 86800=
0187010280999992015011423004+74517+019000FM-12+001899999V0200601N019019999999N003000199-00121-00371099211ADDAY131021AY221021GA1061+008001081GE19MSL   +99999+99999GF106991061999008001999999MA1999999099011MD1310121+9999MW1391REMSYN06001028 41530 60619 11012 21037 39901 49921 53012 73932 86800=
0228010280999992015011500004+74517+019000FM-12+001899999V0200601N018019999999N003000199-00091-00411099251ADDAA106000131AY131021AY221021GA1061+008001081GE19MSL   +99999+99999GF106991061999008001999999MA1999999099051MD1210151+9999MW1391OD139902501999REMSYN07601028 11530 60618 11009 21041 39905 49925 52015 69911 73932 86800 333 91125=
0187010280999992015011501004+74517+019000FM-12+001899999V0200601N017019999999N005000199-00081-00491099311ADDAY131021AY221021GA1071+012501061GE19MSL   +99999+99999GF107991071999012501999999MA1999999099111MD1210141+9999MW1391REMSYN06001028 41650 70617 11008 21049 39911 49931 52014 73932 875//=
0187010280999992015011502004+74517+019000FM-12+001899999V0200601N019019999999N010000199-00101-00501099371ADDAY131021AY221021GA1071+012501061GE19MSL   +99999+99999GF107991071999012501999999MA1999999099171MD1210161+9999MW1361REMSYN06001028 41660 70619 11010 21050 39917 49937 52016 73632 87500=
0187010280999992015011503004+74517+019000FM-12+001899999V0200601N017019999999N010000199-00091-00521099401ADDAY131021AY221021GA1071+012501061GE19MSL   +99999+99999GF107991071999012501999999MA1999999099201MD1210151+9999MW1361REMSYN06001028 41660 70617 11009 21052 39920 49940 52015 73632 875//=
0187010280999992015011504004+74517+019000FM-12+001899999V0200601N018019999999N010000199-00141-00521099421ADDAY131021AY221021GA1061+012501061GE19MSL   +99999+99999GF107991061999012501999999MA1999999099221MD1210111+9999MW1361REMSYN06001028 41660 70618 11014 21052 39922 49942 52011 73632 865//=
0187010280999992015011505004+74517+019000FM-12+001899999V0200601N017019999999N010000199-00111-00531099471ADDAY131021AY221021GA1061+012501061GE19MSL   +99999+99999GF106991061999012501999999MA1999999099271MD1210101+9999MW1361REMSYN06001028 41660 60617 11011 21053 39927 49947 52010 73632 86500=
0293010280999992015011506004+74517+019000FM-12+001899999V0200601N017019999999N010000199-00111-00501099511ADDAA112000131AA224001331AJ199991999999999AY131021AY221021GA1071+008001061GE19MSL   +99999+99999GF107991071999008001999999IA1239KA1240N-00171MA1999999099311MD1210111+9999MW1381OD139902401999REMSYN09401028 11560 70617 11011 21050 39931 49951 52011 69912 73832 875// 333 21017 47/// 70013 91124=
0187010280999992015011507004+74517+019000FM-12+001899999V0200601N015019999999N010000199-00091-00531099541ADDAY121021AY221021GA1061+008001061GE19MSL   +99999+99999GF106991061999008001999999MA1999999099341MD1210121+9999MW1021REMSYN06001028 41560 60615 11009 21053 39934 49954 52012 70222 86500=
0187010280999992015011508004+74517+019000FM-12+001899999V0200501N014019999999N010000199-00081-00491099591ADDAY121021AY221021GA1071+008001061GE19MSL   +99999+99999GF107991071999008001999999MA1999999099391MD1310131+9999MW1021REMSYN06001028 41560 70514 11008 21049 39939 49959 53013 70222 875//=
0187010280999992015011509004+74517+019000FM-12+001899999V0200501N015019999999N010000199-00121-00611099631ADDAY121021AY221021GA1031+008001061GE19MSL   +99999+99999GF103991031999008001999999MA1999999099431MD1310111+9999MW1011REMSYN06001028 41560 30515 11012 21061 39943 49963 53011 70122 83500=
0187010280999992015011510004+74517+019000FM-12+001899999V0200501N014019999999N010000199-00121-00611099671ADDAY101021AY201021GA1021+008001061GE19MSL   +99999+99999GF102991021999008001999999MA1999999099471MD1210131+9999MW1011REMSYN06001028 41560 20514 11012 21061 39947 49967 52013 70100 82500=
0208010280999992015011511004+74517+019000FM-12+001899999V0200501N012019999999N020000199-00151-00461099701ADDAA106000091AY121021AY201021GA1031+012501061GE19MSL   +99999+99999GF103991031999012501999999MA1999999099501MD1210111+9999MW1021REMSYN07001028 21670 30512 11015 21046 39950 49970 52011 70220 83500 333 60001=
0248010280999992015011512004+74517+019000FM-12+001899999V0200501N013019999999N020000199-00181-00441099721ADDAA106000091AY121021AY201021GA1031+012501061GE19MSL   +99999+99999GF103991031999012501999999MA1999999099521MD1210091+9999MW1021OD139902001999SA1+0001REMSYN08801028 11670 30513 11018 21044 39952 49972 52009 60001 70220 83500 222// 00000 333 91120=
0187010280999992015011513004+74517+019000FM-12+001899999V0200501N013019999999N020000199-00211-00511099741ADDAY101021AY201021GA1031+012501061GE19MSL   +99999+99999GF103991031999012501999999MA1999999099541MD1210071+9999MW1021REMSYN06001028 41670 30513 11021 21051 39954 49974 52007 70200 83500=
0187010280999992015011514004+74517+019000FM-12+001899999V0200501N012019999999N015000199-00201-00611099751ADDAY101021AY201021GA1031+012501061GE19MSL   +99999+99999GF103991031999012501999999MA1999999099551MD1210051+9999MW1021REMSYN06001028 41665 30512 11020 21061 39955 49975 52005 70200 83500=
0187010280999992015011515004+74517+019000FM-12+001899999V0200501N013019999999N010000199-00241-00551099771ADDAY101021AY201021GA1031+008001061GE19MSL   +99999+99999GF103991031999008001999999MA1999999099571MD1210051+9999MW1021REMSYN06001028 41560 30513 11024 21055 39957 49977 52005 70200 83500=
0187010280999992015011516004+74517+019000FM-12+001899999V0200501N013019999999N015000199-00241-00531099771ADDAY101021AY201021GA1031+008001061GE19MSL   +99999+99999GF103991031999008001999999MA1999999099571MD1210041+9999MW1021REMSYN06001028 41565 30513 11024 21053 39957 49977 52004 70200 83500=
0187010280999992015011517004+74517+019000FM-12+001899999V0200501N013019999999N010000199-00251-00581099761ADDAY101021AY201021GA1031+012501061GE19MSL   +99999+99999GF103991031999012501999999MA1999999099561MD1210021+9999MW1021REMSYN06001028 41660 30513 11025 21058 39956 49976 52002 70200 83500=
0266010280999992015011518004+74517+019000FM-12+001899999V0200501N013019999999N010000199-00271-00601099781ADDAA112000091AY101021AY201021GA1031+004501061GE19MSL   +99999+99999GF103991031999004501999999KA1120M-00081MA1999999099581MD1290019+9999MW1021OD139901701999REMSYN08201028 11460 30513 11027 21060 39958 49978 54001 60002 70200 83500 333 11008 91117=EQDQ01.1    3APC3  
0187010280999992015011519004+74517+019000FM-12+001899999V0200501N012019999999N020000199-00261-00621099791ADDAY101021AY201021GA1021+004501061GE19MSL   +99999+99999GF102991021999004501999999MA1999999099591MD1310021+9999MW1021REMSYN06001028 41470 20512 11026 21062 39959 49979 53002 70200 82500=
0187010280999992015011520004+74517+019000FM-12+001899999V0200501N012019999999N020000199-00251-00611099801ADDAY101021AY201021GA1021+004501061GE19MSL   +99999+99999GF102991021999004501999999MA1999999099601MD1210041+9999MW1021REMSYN06001028 41470 20512 11025 21061 39960 49980 52004 70200 82500=
0187010280999992015011521004+74517+019000FM-12+001899999V0200501N015019999999N020000199-00261-00581099821ADDAY101021AY201021GA1021+004501061GE19MSL   +99999+99999GF102991021999004501999999MA1999999099621MD1210041+9999MW1021REMSYN06001028 41470 20515 11026 21058 39962 49982 52004 70200 82500=
0187010280999992015011522004+74517+019000FM-12+001899999V0200501N015019999999N010000199-00271-00551099831ADDAY181021AY221021GA1071+008001081GE19MSL   +99999+99999GF107991071999008001999999MA1999999099631MD1210041+9999MW1851REMSYN06001028 41560 70515 11027 21055 39963 49983 52004 78582 878//=
0187010280999992015011523004+74517+019000FM-12+001899999V0200501N015019999999N010000199-00321-00591099861ADDAY181021AY221021GA1071+004501081GE19MSL   +99999+99999GF107991071999004501999999MA1999999099661MD1210051+9999MW1851REMSYN06001028 41460 70515 11032 21059 39966 49986 52005 78582 878//=
0228010280999992015011600004+74517+019000FM-12+001899999V0200501N015019999999N010000199-00321-00671099831ADDAA106000021AY181021AY221021GA1071+004501081GE19MSL   +99999+99999GF107991071999004501999999MA1999999099631MD1990011+9999MW1021OD139902001999REMSYN07601028 11460 70515 11032 21067 39963 49983 50001 69901 70282 878// 333 91120=
0187010280999992015011601004+74517+019000FM-12+001899999V0200401N014019999999N010000199-00361-00761099871ADDAY121021AY221021GA1051+004501061GE19MSL   +99999+99999GF105991051999004501999999MA1999999099671MD1310051+9999MW1021REMSYN06001028 41460 50414 11036 21076 39967 49987 53005 70222 85500=
0187010280999992015011602004+74517+019000FM-12+001899999V0200501N013019999999N010000199-00371-00811099881ADDAY121021AY221021GA1071+012501061GE19MSL   +99999+99999GF107991071999012501999999MA1999999099681MD1310021+9999MW1021REMSYN06001028 41660 70513 11037 21081 39968 49988 53002 70222 875//=
0187010280999992015011603004+74517+019000FM-12+001899999V0200501N013019999999N010000199-00391-00741099891ADDAY121021AY211021GA1041+012501061GE19MSL   +99999+99999GF104991041999012501999999MA1999999099691MD1110061+9999MW1021REMSYN06001028 41660 40513 11039 21074 39969 49989 51006 70221 84500=
0187010280999992015011604004+74517+019000FM-12+001899999V0200501N013019999999N010000199-00441-00811099901ADDAY121021AY211021GA1051+008001061GE19MSL   +99999+99999GF105991051999008001999999MA1999999099701MD1210031+9999MW1021REMSYN06001028 41560 50513 11044 21081 39970 49990 52003 70221 85500=
0227010280999992015011605004+74517+019000FM-12+001899999V0200401N013019999999N010000199-00481-00811099891ADDAA112000021AY121021AY211021GA1081+004501081GE19MSL   +99999+99999GF108991081999004501999999MA1999999099691MD1290019+9999MW1851REMSYN07001028 21460 80413 11048 21081 39969 49989 54001 78521 888// 333 69902=EQDQ01.1    3APC3  
0293010280999992015011606004+74517+019000FM-12+001899999V0200401N014019999999N010000199-00531-00861099881ADDAA112000021AA224000021AJ199991999999999AY121021AY211021GA1081+004501081GE19MSL   +99999+99999GF108991081999004501999999IA1239KA1240N-00531MA1999999099681MD1410001+9999MW1851OD139902001999REMSYN09401028 11460 80414 11053 21086 39968 49988 54000 69902 78521 888// 333 21053 47/// 79999 91120=
0187010280999992015011607004+74517+019000FM-12+001899999V0200401N014019999999N010000199-00551-00881099881ADDAY181021AY221021GA1081+008001081GE19MSL   +99999+99999GF108991081999008001999999MA1999999099681MD1710021+9999MW1851REMSYN06001028 41560 80414 11055 21088 39968 49988 57002 78582 888//=
0187010280999992015011608004+74517+019000FM-12+001899999V0200401N014019999999N010000199-00571-00931099881ADDAY181021AY221021GA1081+008001081GE19MSL   +99999+99999GF108991081999008001999999MA1999999099681MD1410001+9999MW1261REMSYN06001028 41560 80414 11057 21093 39968 49988 54000 72682 888//=
0187010280999992015011609004+74517+019000FM-12+001899999V0200401N014019999999N010000199-00581-00901099891ADDAY181021AY221021GA1071+008001081GE19MSL   +99999+99999GF107991071999008001999999MA1999999099691MD1410001+9999MW1851REMSYN06001028 41560 70414 11058 21090 39969 49989 54000 78582 87800=
0187010280999992015011610004+74517+019000FM-12+001899999V0200301N013019999999N010000199-00581-00891099831ADDAY181021AY221021GA1081+008001081GE19MSL   +99999+99999GF108991081999008001999999MA1999999099631MD1810051+9999MW1261REMSYN06001028 41560 80313 11058 21089 39963 49983 58005 72682 888//=
0187010280999992015011611004+74517+019000FM-12+001899999V0200401N014019999999N030000199-00591-00941099791ADDAY181021AY221021GA1071+008001081GE19MSL   +99999+99999GF107991071999008001999999MA1999999099591MD1810101+9999MW1851REMSYN06001028 41580 70414 11059 21094 39959 49979 58010 78582 87800=
0248010280999992015011612004+74517+019000FM-12+001899999V0200301N014019999999N020000199-00591-00941099761ADDAA106000021AY181021AY221021GA1071+008001081GE19MSL   +99999+99999GF107991071999008001999999MA1999999099561MD1710121+9999MW1261OD139901901999SA1+0051REMSYN08801028 11570 70314 11059 21094 39956 49976 57012 69901 72682 878// 222// 00005 333 91119=
0187010280999992015011613004+74517+019000FM-12+001899999V0200301N014019999999N020000199-00581-00901099701ADDAY121021AY221021GA1071+008001081GE19MSL   +99999+99999GF107991071999008001999999MA1999999099501MD1810131+9999MW1261REMSYN06001028 41570 70314 11058 21090 39950 49970 58013 72622 878//=
0187010280999992015011614004+74517+019000FM-12+001899999V0200301N015019999999N010000199-00581-00871099661ADDAY181021AY221021GA1071+008001081GE19MSL   +99999+99999GF107991071999008001999999MA1999999099461MD1810131+9999MW1851REMSYN06001028 41560 70315 11058 21087 39946 49966 58013 78582 878//=
0187010280999992015011615004+74517+019000FM-12+001899999V0200301N017019999999N010000199-00601-00881099661ADDAY181021AY221021GA1071+008001081GE19MSL   +99999+99999GF107991071999008001999999MA1999999099461MD1710111+9999MW1851REMSYN06001028 41560 70317 11060 21088 39946 49966 57011 78582 878//=
0187010280999992015011616004+74517+019000FM-12+001899999V0200301N018019999999N010000199-00611-00871099611ADDAY181021AY221021GA1071+008001081GE19MSL   +99999+99999GF107991071999008001999999MA1999999099411MD1710081+9999MW1851REMSYN06001028 41560 70318 11061 21087 39941 49961 57008 78582 878//=
0187010280999992015011617004+74517+019000FM-12+001899999V0200301N018019999999N010000199-00581-00841099621ADDAY181021AY221021GA1071+008001081GE19MSL   +99999+99999GF107991071999008001999999MA1999999099421MD1710041+9999MW1851REMSYN06001028 41560 70318 11058 21084 39942 49962 57004 78582 878//=
0247010280999992015011618004+74517+019000FM-12+001899999V0200401N017019999999N010000199-00561-00831099651ADDAA112000021AY181021AY221021GA1071+004501081GE19MSL   +99999+99999GF107991071999004501999999KA1120M-00531MA1999999099451MD1510001+9999MW1261OD139902401999REMSYN08201028 11460 70417 11056 21083 39945 49965 55000 69902 72682 878// 333 11053 91124=
0187010280999992015011619004+74517+019000FM-12+001899999V0200301N016019999999N010000199-00551-00851099681ADDAY121021AY221021GA1071+008001081GE19MSL   +99999+99999GF107991071999008001999999MA1999999099481MD1310061+9999MW1021REMSYN06001028 41560 70316 11055 21085 39948 49968 53006 70222 878//=
0187010280999992015011620004+74517+019000FM-12+001899999V0200301N015019999999N010000199-00591-00961099721ADDAY121021AY221021GA1071+008001081GE19MSL   +99999+99999GF107991071999008001999999MA1999999099521MD1210101+9999MW1021REMSYN06001028 41560 70315 11059 21096 39952 49972 52010 70222 878//=
0187010280999992015011621004+74517+019000FM-12+001899999V0200301N014019999999N010000199-00621-00931099731ADDAY121021AY221021GA1071+008001081GE19MSL   +99999+99999GF107991071999008001999999MA1999999099531MD1990081+9999MW1021REMSYN06001028 41560 70314 11062 21093 39953 49973 50008 70222 878//=
0187010280999992015011622004+74517+019000FM-12+001899999V0200301N015019999999N010000199-00611-00941099731ADDAY181021AY221021GA1071+008001081GE19MSL   +99999+99999GF107991071999008001999999MA1999999099531MD1110061+9999MW1261REMSYN06001028 41560 70315 11061 21094 39953 49973 51006 72682 878//=
0208010280999992015011623004+74517+019000FM-12+001899999V0200301N018019999999N015000199-00611-00921099741ADDAA106000021AY181021AY221021GA1081+008001081GE19MSL   +99999+99999GF108991081999008001999999MA1999999099541MD1210031+9999MW1851REMSYN07001028 21565 80318 11061 21092 39954 49974 52003 78582 888// 333 69901=
0228010280999992015011700004+74517+019000FM-12+001899999V0200301N016019999999N015000199-00621-00931099781ADDAA106000021AY181021AY221021GA1081+008001081GE19MSL   +99999+99999GF108991081999008001999999MA1999999099581MD1310051+9999MW1851OD139902301999REMSYN07601028 11565 80316 11062 21093 39958 49978 53005 69901 78582 888// 333 91123=
0187010280999992015011701004+74517+019000FM-12+001899999V0200301N017019999999N015000199-00621-00971099831ADDAY121021AY221021GA1081+008001081GE19MSL   +99999+99999GF108991081999008001999999MA1999999099631MD1310091+9999MW1261REMSYN06001028 41565 80317 11062 21097 39963 49983 53009 72622 888//=
0187010280999992015011702004+74517+019000FM-12+001899999V0200301N016019999999N015000199-00651-00991099901ADDAY181021AY221021GA1081+008001081GE19MSL   +99999+99999GF108991081999008001999999MA1999999099701MD1310151+9999MW1851REMSYN06001028 41565 80316 11065 21099 39970 49990 53015 78582 888//=
0187010280999992015011703004+74517+019000FM-12+001899999V0200301N015019999999N015000199-00661-01041099931ADDAY121021AY221021GA1081+008001081GE19MSL   +99999+99999GF108991081999008001999999MA1999999099731MD1210151+9999MW1261REMSYN06001028 41565 80315 11066 21104 39973 49993 52015 72622 888//=
0187010280999992015011704004+74517+019000FM-12+001899999V0200301N016019999999N010000199-00691-01041099971ADDAY181021AY221021GA1081+008001081GE19MSL   +99999+99999GF108991081999008001999999MA1999999099771MD1210131+9999MW1851REMSYN06001028 41560 80316 11069 21104 39977 49997 52013 78582 888//=
0187010280999992015011705004+74517+019000FM-12+001899999V0200301N016019999999N010000199-00701-00941100001ADDAY181021AY221021GA1081+008001081GE19MSL   +99999+99999GF108991081999008001999999MA1999999099801MD1210111+9999MW1851REMSYN06001028 41560 80316 11070 21094 39980 40000 52011 78582 888//=
0293010280999992015011706004+74517+019000FM-12+001899999V0200301N017019999999N015000199-00721-01051100071ADDAA112000021AA224000021AJ199991999999999AY181021AY221021GA1081+008001081GE19MSL   +99999+99999GF108991081999008001999999IA1239KA1240N-00721MA1999999099871MD1310131+9999MW1851OD139902301999REMSYN09401028 11565 80317 11072 21105 39987 40007 53013 69902 78582 888// 333 21072 47/// 79999 91123=
0187010280999992015011707004+74517+019000FM-12+001899999V0200301N017019999999N015000199-00711-00971100131ADDAY181021AY221021GA1081+008001081GE19MSL   +99999+99999GF108991081999008001999999MA1999999099931MD1310161+9999MW1851REMSYN06001028 41565 80317 11071 21097 39993 40013 53016 78582 888//=
0187010280999992015011708004+74517+019000FM-12+001899999V0200301N016019999999N020000199-00711-00961100201ADDAY181021AY221021GA1081+008001081GE19MSL   +99999+99999GF108991081999008001999999MA1999999100001MD1310201+9999MW1261REMSYN06001028 41570 80316 11071 21096 30000 40020 53020 72682 888//=
0187010280999992015011709004+74517+019000FM-12+001899999V0200301N016019999999N015000199-00731-01041100281ADDAY181021AY221021GA1061+008001081GE19MSL   +99999+99999GF106991061999008001999999MA1999999100081MD1310211+9999MW1851REMSYN06001028 41565 60316 11073 21104 30008 40028 53021 78582 86800=
0187010280999992015011710004+74517+019000FM-12+001899999V0200401N016019999999N015000199-00741-01061100381ADDAY181021AY221021GA1071+008001081GE19MSL   +99999+99999GF107991071999008001999999MA1999999100171MD1310251+9999MW1851REMSYN06001028 41565 70416 11074 21106 30017 40038 53025 78582 878//=
0187010280999992015011711004+74517+019000FM-12+001899999V0200301N015019999999N008000199-00731-01001100461ADDAY181021AY221021GA1071+008001081GE19MSL   +99999+99999GF107991071999008001999999MA1999999100251MD1310251+9999MW1851REMSYN06001028 41558 70315 11073 21100 30025 40046 53025 78582 878//=
0228010280999992015011712004+74517+019000FM-12+001899999V0200301N016019999999N003000199-00721-00971100521ADDAA106000021AY181021AY221021GA1071+008001081GE19MSL   +99999+99999GF107991071999008001999999MA1999999100311MD1310241+9999MW1851OD139902301999REMSYN07601028 11530 70316 11072 21097 30031 40052 53024 69901 78582 878// 333 91123=
0187010280999992015011713004+74517+019000FM-12+001899999V0200301N015019999999N010000199-00731-01061100621ADDAY181021AY251021GA1071+008001081GE19MSL   +99999+99999GF107991071999008001999999MA1999999100411MD1310241+9999MW1261REMSYN06001028 41560 70315 11073 21106 30041 40062 53024 72685 878//=
0187010280999992015011714004+74517+019000FM-12+001899999V0200301N014019999999N006000199-00751-01101100711ADDAY181021AY221021GA1071+008001081GE19MSL   +99999+99999GF107991071999008001999999MA1999999100501MD1310241+9999MW1851REMSYN06001028 41556 70314 11075 21110 30050 40071 53024 78582 878//=
0187010280999992015011715004+74517+019000FM-12+001899999V0200301N015019999999N007000199-00751-01051100781ADDAY181021AY221021GA1071+008001081GE19MSL   +99999+99999GF107991071999008001999999MA1999999100571MD1210261+9999MW1851REMSYN06001028 41557 70315 11075 21105 30057 40078 52026 78582 878//=
0187010280999992015011716004+74517+019000FM-12+001899999V0200301N013019999999N007000199-00771-01041100861ADDAY181021AY221021GA1071+008001081GE19MSL   +99999+99999GF107991071999008001999999MA1999999100651MD1210241+9999MW1851REMSYN06001028 41557 70313 11077 21104 30065 40086 52024 78582 878//=
0187010280999992015011717004+74517+019000FM-12+001899999V0200301N013019999999N010000199-00811-01121100971ADDAY181021AY221021GA1071+008001081GE19MSL   +99999+99999GF107991071999008001999999MA1999999100761MD1310271+9999MW1851REMSYN06001028 41560 70313 11081 21112 30076 40097 53027 78582 878//=
