0039010300999992015010809004+69700+019017FM-12+001499999V0201901N006019999999N999999999+99999+99999999999REMSYN03001030 46/// /1906 1//// 2////=
0039010300999992015010811004+69700+019017FM-12+001499999V0201501N007019999999N999999999-00591-00641999999REMSYN03001030 46/// /1507 11059 21064=
0049010300999992015010812004+69700+019017FM-12+001499999V020999999999999999999999999999+99999+99999999999REMSYN04001030 46/// /1806 11060 21066 333 91118=
0039010300999992015010813004+69700+019017FM-12+001499999V0201601N009019999999N999999999-00631-00691999999REMSYN03001030 46/// /1609 11063 21069=
0039010300999992015010814004+69700+019017FM-12+001499999V0201601N009019999999N999999999-00601-00661999999REMSYN03001030 46/// /1609 11060 21066=
0039010300999992015010815004+69700+019017FM-12+001499999V0201901N006019999999N999999999-00581-00641999999REMSYN03001030 46/// /1906 11058 21064=
0039010300999992015010816004+69700+019017FM-12+001499999V0202001N007019999999N999999999-00561-00621999999REMSYN03001030 46/// /2007 11056 21062=
0039010300999992015010817004+69283+018133FM-12+098299999V0202001N005019999999N999999999-00561-00621999999REMSYN03001030 46/// /2005 11056 21062=
0049010300999992015010818004+69283+018133FM-12+098299999V020999999999999999999999999999+99999+99999999999REMSYN04001030 46/// /2307 11054 21060 333 91117=
0039010300999992015010819004+69283+018133FM-12+098299999V0202201N006019999999N999999999-00531-00591999999REMSYN03001030 46/// /2206 11053 21059=
0039010300999992015010820004+69283+018133FM-12+098299999V0202001N005019999999N999999999-00541-00601999999REMSYN03001030 46/// /2005 11054 21060=
0039010300999992015010821004+69283+018133FM-12+098299999V0202301N006019999999N999999999-00551-00611999999REMSYN03001030 46/// /2306 11055 21061=
0039010300999992015010822004+69283+018133FM-12+098299999V0202301N005019999999N999999999-00531-00581999999REMSYN03001030 46/// /2305 11053 21058=
0039010300999992015010823004+69283+018133FM-12+098299999V0202401N006019999999N999999999-00511-00561999999REMSYN03001030 46/// /2406 11051 21056=
0049010300999992015010900004+69283+018133FM-12+098299999V020999999999999999999999999999+99999+99999999999REMSYN04001030 46/// /2406 11048 21053 333 91108=
0039010300999992015010901004+69283+018133FM-12+098299999V0202401N006019999999N999999999-00471-00521999999REMSYN03001030 46/// /2406 11047 21052=
0039010300999992015010902004+69283+018133FM-12+098299999V0202301N005019999999N999999999-00461-00511999999REMSYN03001030 46/// /2305 11046 21051=
0039010300999992015010903004+69283+018133FM-12+098299999V0202601N007019999999N999999999-00461-00511999999REMSYN03001030 46/// /2607 11046 21051=
0039010300999992015010904004+69283+018133FM-12+098299999V0202501N005019999999N999999999-00451-00501999999REMSYN03001030 46/// /2505 11045 21050=
0039010300999992015010905004+69283+018133FM-12+098299999V0202601N004019999999N999999999-00441-00491999999REMSYN03001030 46/// /2604 11044 21049=
0055010300999992015010906004+69283+018133FM-12+098299999V020999999999999999999999999999+99999+99999999999REMSYN04601030 46/// /2605 11044 21049 333 21055 91109=
0039010300999992015010907004+69283+018133FM-12+098299999V0202601N005019999999N999999999-00441-00491999999REMSYN03001030 46/// /2605 11044 21049=
0039010300999992015010908004+69283+018133FM-12+098299999V0202801N004019999999N999999999-00441-00491999999REMSYN03001030 46/// /2804 11044 21049=
0039010300999992015010909004+69283+018133FM-12+098299999V0202801N003019999999N999999999-00441-00491999999REMSYN03001030 46/// /2803 11044 21049=
0039010300999992015010910004+69283+018133FM-12+098299999V0203201N003019999999N999999999-00441-00491999999REMSYN03001030 46/// /3203 11044 21049=
0039010300999992015010911004+69283+018133FM-12+098299999V0203301N003019999999N999999999-00441-00491999999REMSYN03001030 46/// /3303 11044 21049=
0049010300999992015010912004+69283+018133FM-12+098299999V020999999999999999999999999999+99999+99999999999REMSYN04001030 46/// /3303 11044 21049 333 91108=
0039010300999992015010913004+69283+018133FM-12+098299999V0203301N003019999999N999999999-00441-00491999999REMSYN03001030 46/// /3303 11044 21049=
0039010300999992015010914004+69283+018133FM-12+098299999V0203401N004019999999N999999999-00441-00491999999REMSYN03001030 46/// /3404 11044 21049=
0039010300999992015010915004+69283+018133FM-12+098299999V0203201N002019999999N999999999-00451-00501999999REMSYN03001030 46/// /3202 11045 21050=
0039010300999992015010916004+69283+018133FM-12+098299999V0202501N003019999999N999999999-00471-00521999999REMSYN03001030 46/// /2503 11047 21052=
0039010300999992015010917004+69283+018133FM-12+098299999V0202801N003019999999N999999999-00501-00551999999REMSYN03001030 46/// /2803 11050 21055=
0055010300999992015010918004+69283+018133FM-12+098299999V020999999999999999999999999999+99999+99999999999REMSYN04601030 46/// /2004 11054 21059 333 11044 91106=
0039010300999992015010919004+69283+018133FM-12+098299999V0201801N005019999999N999999999-00711-00761999999REMSYN03001030 46/// /1805 11071 21076=
0039010300999992015010920004+69283+018133FM-12+098299999V0201601N006019999999N999999999-00861-00931999999REMSYN03001030 46/// /1606 11086 21093=
0039010300999992015010921004+69283+018133FM-12+098299999V0201501N008019999999N999999999-00921-01001999999REMSYN03001030 46/// /1508 11092 21100=
0039010300999992015010922004+69283+018133FM-12+098299999V0201401N007019999999N999999999-00971-01061999999REMSYN03001030 46/// /1407 11097 21106=
0039010300999992015010923004+69283+018133FM-12+098299999V0201401N006019999999N999999999-01001-01091999999REMSYN03001030 46/// /1406 11100 21109=
0049010300999992015011000004+69283+018133FM-12+098299999V020999999999999999999999999999+99999+99999999999REMSYN04001030 46/// /1406 11102 21112 333 91113=
0039010300999992015011001004+69283+018133FM-12+098299999V0201501N007019999999N999999999-01041-01141999999REMSYN03001030 46/// /1507 11104 21114=
0039010300999992015011002004+69283+018133FM-12+098299999V0201501N007019999999N999999999-01071-01171999999REMSYN03001030 46/// /1507 11107 21117=
0039010300999992015011003004+69283+018133FM-12+098299999V0201501N007019999999N999999999-01121-01221999999REMSYN03001030 46/// /1507 11112 21122=
0039010300999992015011004004+69283+018133FM-12+098299999V0201401N007019999999N999999999-01181-01291999999REMSYN03001030 46/// /1407 11118 21129=
0039010300999992015011005004+69283+018133FM-12+098299999V0201401N008019999999N999999999-01201-01311999999REMSYN03001030 46/// /1408 11120 21131=
0055010300999992015011006004+69283+018133FM-12+098299999V020999999999999999999999999999+99999+99999999999REMSYN04601030 46/// /1508 11121 21133 333 21121 91115=
0039010300999992015011007004+69283+018133FM-12+098299999V0201401N006019999999N999999999-01211-01331999999REMSYN03001030 46/// /1406 11121 21133=
0039010300999992015011008004+69283+018133FM-12+098299999V0201701N007019999999N999999999-01221-01341999999REMSYN03001030 46/// /1707 11122 21134=
0039010300999992015011009004+69283+018133FM-12+098299999V0201601N008019999999N999999999-01281-01401999999REMSYN03001030 46/// /1608 11128 21140=
0039010300999992015011010004+69283+018133FM-12+098299999V0201701N009019999999N999999999-01321-01441999999REMSYN03001030 46/// /1709 11132 21144=
0039010300999992015011011004+69283+018133FM-12+098299999V0201601N008019999999N999999999-01401-01521999999REMSYN03001030 46/// /1608 11140 21152=
0049010300999992015011012004+69283+018133FM-12+098299999V020999999999999999999999999999+99999+99999999999REMSYN04001030 46/// /1909 11145 21158 333 91122=
0039010300999992015011013004+69283+018133FM-12+098299999V0201801N009019999999N999999999-01451-01591999999REMSYN03001030 46/// /1809 11145 21159=
0039010300999992015011014004+69283+018133FM-12+098299999V0201401N010019999999N999999999-01501-01641999999REMSYN03001030 46/// /1410 11150 21164=
0039010300999992015011015004+69283+018133FM-12+098299999V0201501N011019999999N999999999-01541-01681999999REMSYN03001030 46/// /1511 11154 21168=
0039010300999992015011016004+69283+018133FM-12+098299999V0201501N010019999999N999999999-01641-01791999999REMSYN03001030 46/// /1510 11164 21179=
0039010300999992015011017004+69283+018133FM-12+098299999V0201601N010019999999N999999999-01671-01831999999REMSYN03001030 46/// /1610 11167 21183=
0055010300999992015011018004+69283+018133FM-12+098299999V020999999999999999999999999999+99999+99999999999REMSYN04601030 46/// /2008 11165 21181 333 11121 91130=
0039010300999992015011019004+69283+018133FM-12+098299999V0202001N007019999999N999999999-01641-01801999999REMSYN03001030 46/// /2007 11164 21180=
0039010300999992015011020004+69283+018133FM-12+098299999V0202201N006019999999N999999999-01641-01801999999REMSYN03001030 46/// /2206 11164 21180=
0039010300999992015011021004+69283+018133FM-12+098299999V0201801N005019999999N999999999-01651-01811999999REMSYN03001030 46/// /1805 11165 21181=
0039010300999992015011022004+69283+018133FM-12+098299999V0203001N006019999999N999999999-01651-01811999999REMSYN03001030 46/// /3006 11165 21181=
0039010300999992015011023004+69283+018133FM-12+098299999V0203601N007019999999N999999999-01671-01831999999REMSYN03001030 46/// /3607 11167 21183=
0049010300999992015011100004+69283+018133FM-12+098299999V020999999999999999999999999999+99999+99999999999REMSYN04001030 46/// /0108 11168 21185 333 91127=
0039010300999992015011101004+69283+018133FM-12+098299999V0203001N008019999999N999999999-01701-01871999999REMSYN03001030 46/// /3008 11170 21187=
0039010300999992015011102004+69283+018133FM-12+098299999V0203001N008019999999N999999999-01711-01881999999REMSYN03001030 46/// /3008 11171 21188=
0039010300999992015011103004+69283+018133FM-12+098299999V0202101N007019999999N999999999-01721-01891999999REMSYN03001030 46/// /2107 11172 21189=
0039010300999992015011104004+69283+018133FM-12+098299999V0201201N008019999999N999999999-01731-01901999999REMSYN03001030 46/// /1208 11173 21190=
0039010300999992015011105004+69283+018133FM-12+098299999V0201401N010019999999N999999999-01711-01881999999REMSYN03001030 46/// /1410 11171 21188=
0055010300999992015011106004+69283+018133FM-12+098299999V020999999999999999999999999999+99999+99999999999REMSYN04601030 46/// /1507 11171 21188 333 21174 91129=
0039010300999992015011107004+69283+018133FM-12+098299999V0201401N007019999999N999999999-01711-01881999999REMSYN03001030 46/// /1407 11171 21188=
0039010300999992015011108004+69283+018133FM-12+098299999V0201601N008019999999N999999999-01721-01891999999REMSYN03001030 46/// /1608 11172 21189=
0039010300999992015011109004+69283+018133FM-12+098299999V0201901N009019999999N999999999-01731-01901999999REMSYN03001030 46/// /1909 11173 21190=
0039010300999992015011110004+69283+018133FM-12+098299999V0201801N007019999999N999999999-01771-01941999999REMSYN03001030 46/// /1807 11177 21194=
0039010300999992015011111004+69283+018133FM-12+098299999V0201901N007019999999N999999999-01801-01971999999REMSYN03001030 46/// /1907 11180 21197=
0049010300999992015011112004+69283+018133FM-12+098299999V020999999999999999999999999999+99999+99999999999REMSYN04001030 46/// /1608 11183 21200 333 91128=
0039010300999992015011113004+69283+018133FM-12+098299999V0201801N006019999999N999999999-01881-02051999999REMSYN03001030 46/// /1806 11188 21205=
0039010300999992015011114004+69283+018133FM-12+098299999V0201401N008019999999N999999999-01901-02081999999REMSYN03001030 46/// /1408 11190 21208=
0039010300999992015011115004+69283+018133FM-12+098299999V0201701N006019999999N999999999-01921-02101999999REMSYN03001030 46/// /1706 11192 21210=
0039010300999992015011116004+69283+018133FM-12+098299999V0201501N008019999999N999999999-01921-02101999999REMSYN03001030 46/// /1508 11192 21210=
0039010300999992015011117004+69283+018133FM-12+098299999V0201701N006019999999N999999999-01911-02091999999REMSYN03001030 46/// /1706 11191 21209=
0055010300999992015011118004+69283+018133FM-12+098299999V020999999999999999999999999999+99999+99999999999REMSYN04601030 46/// /1705 11191 21209 333 11171 91119=
0039010300999992015011119004+69283+018133FM-12+098299999V0201901N006019999999N999999999-01911-02091999999REMSYN03001030 46/// /1906 11191 21209=
0039010300999992015011120004+69283+018133FM-12+098299999V0202801N004019999999N999999999-01921-02111999999REMSYN03001030 46/// /2804 11192 21211=
0039010300999992015011121004+69283+018133FM-12+098299999V0203201N005019999999N999999999-01921-02111999999REMSYN03001030 46/// /3205 11192 21211=
0039010300999992015011122004+69283+018133FM-12+098299999V0201901N005019999999N999999999-01931-02121999999REMSYN03001030 46/// /1905 11193 21212=
0039010300999992015011123004+69283+018133FM-12+098299999V0201701N006019999999N999999999-01931-02121999999REMSYN03001030 46/// /1706 11193 21212=
0049010300999992015011200004+69283+018133FM-12+098299999V020999999999999999999999999999+99999+99999999999REMSYN04001030 46/// /1706 11192 21211 333 91118=
0039010300999992015011201004+69283+018133FM-12+098299999V0202301N004019999999N999999999-01921-02111999999REMSYN03001030 46/// /2304 11192 21211=
0039010300999992015011202004+69283+018133FM-12+098299999V0201901N006019999999N999999999-01921-02111999999REMSYN03001030 46/// /1906 11192 21211=
0039010300999992015011203004+69283+018133FM-12+098299999V0201901N006019999999N999999999-01921-02111999999REMSYN03001030 46/// /1906 11192 21211=
0039010300999992015011204004+69283+018133FM-12+098299999V0201801N004019999999N999999999-01921-02111999999REMSYN03001030 46/// /1804 11192 21211=
0039010300999992015011205004+69283+018133FM-12+098299999V0201801N007019999999N999999999-01921-02111999999REMSYN03001030 46/// /1807 11192 21211=
0055010300999992015011206004+69283+018133FM-12+098299999V020999999999999999999999999999+99999+99999999999REMSYN04601030 46/// /1807 11191 21210 333 21193 91121=
0039010300999992015011207004+69283+018133FM-12+098299999V0201901N006019999999N999999999-01911-02101999999REMSYN03001030 46/// /1906 11191 21210=
0039010300999992015011208004+69283+018133FM-12+098299999V0201801N009019999999N999999999-01911-02101999999REMSYN03001030 46/// /1809 11191 21210=
0039010300999992015011209004+69283+018133FM-12+098299999V0202001N005019999999N999999999-01911-02101999999REMSYN03001030 46/// /2005 11191 21210=
0039010300999992015011210004+69283+018133FM-12+098299999V0202001N009019999999N999999999-01911-02101999999REMSYN03001030 46/// /2009 11191 21210=
0039010300999992015011211004+69283+018133FM-12+098299999V0202001N006019999999N999999999-01921-02111999999REMSYN03001030 46/// /2006 11192 21211=
0049010300999992015011212004+69283+018133FM-12+098299999V020999999999999999999999999999+99999+99999999999REMSYN04001030 46/// /1809 11193 21212 333 91121=
0039010300999992015011213004+69283+018133FM-12+098299999V0201601N007019999999N999999999-01951-02131999999REMSYN03001030 46/// /1607 11195 21213=
0039010300999992015011214004+69283+018133FM-12+098299999V0201901N007019999999N999999999-01951-02141999999REMSYN03001030 46/// /1907 11195 21214=
0039010300999992015011215004+69283+018133FM-12+098299999V0201901N009019999999N999999999-01961-02151999999REMSYN03001030 46/// /1909 11196 21215=
0039010300999992015011216004+69283+018133FM-12+098299999V0201901N009019999999N999999999-01961-02151999999REMSYN03001030 46/// /1909 11196 21215=
0039010300999992015011217004+69283+018133FM-12+098299999V0201801N009019999999N999999999-01941-02131999999REMSYN03001030 46/// /1809 11194 21213=
0055010300999992015011218004+69283+018133FM-12+098299999V020999999999999999999999999999+99999+99999999999REMSYN04601030 46/// /1810 11194 21213 333 11191 91125=
0039010300999992015011219004+69283+018133FM-12+098299999V0201401N012019999999N999999999-01951-02141999999REMSYN03001030 46/// /1412 11195 21214=
0039010300999992015011220004+69283+018133FM-12+098299999V0201801N008019999999N999999999-02001-02191999999REMSYN03001030 46/// /1808 11200 21219=
0039010300999992015011221004+69283+018133FM-12+098299999V0202401N005019999999N999999999-02021-02211999999REMSYN03001030 46/// /2405 11202 21221=
0039010300999992015011222004+69283+018133FM-12+098299999V0202101N005019999999N999999999-02031-02221999999REMSYN03001030 46/// /2105 11203 21222=
0039010300999992015011223004+69283+018133FM-12+098299999V0201701N009019999999N999999999-02071-02261999999REMSYN03001030 46/// /1709 11207 21226=
0049010300999992015011300004+69283+018133FM-12+098299999V020999999999999999999999999999+99999+99999999999REMSYN04001030 46/// /1810 11208 21228 333 91125=
0039010300999992015011301004+69283+018133FM-12+098299999V0201801N008019999999N999999999-02071-02271999999REMSYN03001030 46/// /1808 11207 21227=
0039010300999992015011302004+69283+018133FM-12+098299999V0201601N008019999999N999999999-02081-02281999999REMSYN03001030 46/// /1608 11208 21228=
0039010300999992015011303004+69283+018133FM-12+098299999V0201901N009019999999N999999999-02061-02261999999REMSYN03001030 46/// /1909 11206 21226=
0039010300999992015011304004+69283+018133FM-12+098299999V0201801N009019999999N999999999-02001-02191999999REMSYN03001030 46/// /1809 11200 21219=
0039010300999992015011305004+69283+018133FM-12+098299999V0201501N008019999999N999999999-01971-02161999999REMSYN03001030 46/// /1508 11197 21216=
0055010300999992015011306004+69283+018133FM-12+098299999V020999999999999999999999999999+99999+99999999999REMSYN04601030 46/// /2707 11200 21219 333 21208 91135=
0039010300999992015011307004+69283+018133FM-12+098299999V0202901N006019999999N999999999-02021-02211999999REMSYN03001030 46/// /2906 11202 21221=
0039010300999992015011308004+69283+018133FM-12+098299999V0201901N008019999999N999999999-01991-02181999999REMSYN03001030 46/// /1908 11199 21218=
0039010300999992015011309004+69283+018133FM-12+098299999V0201601N009019999999N999999999-01911-02101999999REMSYN03001030 46/// /1609 11191 21210=
0039010300999992015011310004+69283+018133FM-12+098299999V0202001N007019999999N999999999-01801-01981999999REMSYN03001030 46/// /2007 11180 21198=
0039010300999992015011311004+69283+018133FM-12+098299999V0201501N010019999999N999999999-01661-01831999999REMSYN03001030 46/// /1510 11166 21183=
0049010300999992015011312004+69283+018133FM-12+098299999V020999999999999999999999999999+99999+99999999999REMSYN04001030 46/// /1709 11167 21184 333 91125=
0039010300999992015011313004+69283+018133FM-12+098299999V0201401N010019999999N999999999-01701-01861999999REMSYN03001030 46/// /1410 11170 21186=
0039010300999992015011314004+69283+018133FM-12+098299999V0201601N008019999999N999999999-01711-01881999999REMSYN03001030 46/// /1608 11171 21188=
0039010300999992015011315004+69283+018133FM-12+098299999V0201701N008019999999N999999999-01641-01811999999REMSYN03001030 46/// /1708 11164 21181=
0039010300999992015011316004+69283+018133FM-12+098299999V0201501N011019999999N999999999-01621-01781999999REMSYN03001030 46/// /1511 11162 21178=
0039010300999992015011317004+69283+018133FM-12+098299999V0201701N010019999999N999999999-01511-01671999999REMSYN03001030 46/// /1710 11151 21167=
0055010300999992015011318004+69283+018133FM-12+098299999V020999999999999999999999999999+99999+99999999999REMSYN04601030 46/// /1511 11150 21165 333 11150 91124=
0039010300999992015011319004+69283+018133FM-12+098299999V0201601N011019999999N999999999-01461-01611999999REMSYN03001030 46/// /1611 11146 21161=
0039010300999992015011320004+69283+018133FM-12+098299999V0201901N013019999999N999999999-01421-01571999999REMSYN03001030 46/// /1913 11142 21157=
0039010300999992015011321004+69283+018133FM-12+098299999V0201801N012019999999N999999999-01401-01541999999REMSYN03001030 46/// /1812 11140 21154=
0039010300999992015011322004+69283+018133FM-12+098299999V0201601N011019999999N999999999-01381-01521999999REMSYN03001030 46/// /1611 11138 21152=
0039010300999992015011323004+69283+018133FM-12+098299999V0201601N011019999999N999999999-01291-01421999999REMSYN03001030 46/// /1611 11129 21142=
0049010300999992015011400004+69283+018133FM-12+098299999V020999999999999999999999999999+99999+99999999999REMSYN04001030 46/// /1610 11126 21139 333 91126=
0039010300999992015011401004+69283+018133FM-12+098299999V0201501N009019999999N999999999-01241-01371999999REMSYN03001030 46/// /1509 11124 21137=
0039010300999992015011402004+69283+018133FM-12+098299999V0201501N010019999999N999999999-01121-01241999999REMSYN03001030 46/// /1510 11112 21124=
0039010300999992015011403004+69283+018133FM-12+098299999V0201601N013019999999N999999999-01061-01171999999REMSYN03001030 46/// /1613 11106 21117=
0039010300999992015011404004+69283+018133FM-12+098299999V0201701N010019999999N999999999-00981-01081999999REMSYN03001030 46/// /1710 11098 21108=
0039010300999992015011405004+69283+018133FM-12+098299999V0201601N012019999999N999999999-01081-01181999999REMSYN03001030 46/// /1612 11108 21118=
0055010300999992015011406004+69283+018133FM-12+098299999V020999999999999999999999999999+99999+99999999999REMSYN04601030 46/// /1509 11108 21119 333 21150 91118=
0039010300999992015011407004+69283+018133FM-12+098299999V0201601N010019999999N999999999-01101-01211999999REMSYN03001030 46/// /1610 11110 21121=
0039010300999992015011408004+69283+018133FM-12+098299999V0201801N009019999999N999999999-01041-01151999999REMSYN03001030 46/// /1809 11104 21115=
0039010300999992015011409004+69283+018133FM-12+098299999V0201801N008019999999N999999999-01021-01121999999REMSYN03001030 46/// /1808 11102 21112=
0039010300999992015011410004+69283+018133FM-12+098299999V0201501N008019999999N999999999-01071-01181999999REMSYN03001030 46/// /1508 11107 21118=
0039010300999992015011411004+69283+018133FM-12+098299999V0201701N006019999999N999999999-01021-01131999999REMSYN03001030 46/// /1706 11102 21113=
0049010300999992015011412004+69283+018133FM-12+098299999V020999999999999999999999999999+99999+99999999999REMSYN04001030 46/// /1607 11100 21110 333 91114=
0039010300999992015011413004+69283+018133FM-12+098299999V0201701N007019999999N999999999-00961-01061999999REMSYN03001030 46/// /1707 11096 21106=
0039010300999992015011414004+69283+018133FM-12+098299999V0201501N007019999999N999999999-00971-01071999999REMSYN03001030 46/// /1507 11097 21107=
0039010300999992015011415004+69283+018133FM-12+098299999V0201701N006019999999N999999999-00951-01051999999REMSYN03001030 46/// /1706 11095 21105=
0039010300999992015011416004+69283+018133FM-12+098299999V0201501N006019999999N999999999-00971-01071999999REMSYN03001030 46/// /1506 11097 21107=
0039010300999992015011417004+69283+018133FM-12+098299999V0201401N006019999999N999999999-00991-01091999999REMSYN03001030 46/// /1406 11099 21109=
0055010300999992015011418004+69283+018133FM-12+098299999V020999999999999999999999999999+99999+99999999999REMSYN04601030 46/// /1406 11101 21111 333 11094 91111=
0039010300999992015011419004+69283+018133FM-12+098299999V0201601N006019999999N999999999-01001-01101999999REMSYN03001030 46/// /1606 11100 21110=
0039010300999992015011420004+69283+018133FM-12+098299999V0201601N006019999999N999999999-01021-01121999999REMSYN03001030 46/// /1606 11102 21112=
0039010300999992015011421004+69283+018133FM-12+098299999V0201501N006019999999N999999999-01001-01101999999REMSYN03001030 46/// /1506 11100 21110=
0039010300999992015011422004+69283+018133FM-12+098299999V0201701N008019999999N999999999-01031-01131999999REMSYN03001030 46/// /1708 11103 21113=
0039010300999992015011423004+69283+018133FM-12+098299999V0201901N006019999999N999999999-01021-01121999999REMSYN03001030 46/// /1906 11102 21112=
0049010300999992015011500004+69283+018133FM-12+098299999V020999999999999999999999999999+99999+99999999999REMSYN04001030 46/// /1705 11101 21111 333 91111=
0039010300999992015011501004+69283+018133FM-12+098299999V0201701N005019999999N999999999-01031-01131999999REMSYN03001030 46/// /1705 11103 21113=
0039010300999992015011502004+69283+018133FM-12+098299999V0201901N005019999999N999999999-01031-01141999999REMSYN03001030 46/// /1905 11103 21114=
0039010300999992015011503004+69283+018133FM-12+098299999V0202001N004019999999N999999999-01041-01151999999REMSYN03001030 46/// /2004 11104 21115=
0039010300999992015011504004+69283+018133FM-12+098299999V0202301N003019999999N999999999-01021-01131999999REMSYN03001030 46/// /2303 11102 21113=
0039010300999992015011505004+69283+018133FM-12+098299999V0202201N004019999999N999999999-01021-01121999999REMSYN03001030 46/// /2204 11102 21112=
0055010300999992015011506004+69283+018133FM-12+098299999V020999999999999999999999999999+99999+99999999999REMSYN04601030 46/// /2303 11103 21114 333 21104 91107=
0039010300999992015011507004+69283+018133FM-12+098299999V0202301N003019999999N999999999-00991-01091999999REMSYN03001030 46/// /2303 11099 21109=
0039010300999992015011508004+69283+018133FM-12+098299999V0202501N004019999999N999999999-00951-01051999999REMSYN03001030 46/// /2504 11095 21105=
0039010300999992015011509004+69283+018133FM-12+098299999V0202501N004019999999N999999999-00901-00991999999REMSYN03001030 46/// /2504 11090 21099=
0039010300999992015011510004+69283+018133FM-12+098299999V0202601N005019999999N999999999-00871-00961999999REMSYN03001030 46/// /2605 11087 21096=
0039010300999992015011511004+69283+018133FM-12+098299999V0202601N007019999999N999999999-00841-00931999999REMSYN03001030 46/// /2607 11084 21093=
0049010300999992015011512004+69283+018133FM-12+098299999V020999999999999999999999999999+99999+99999999999REMSYN04001030 46/// /2606 11082 21091 333 91109=
0039010300999992015011513004+69283+018133FM-12+098299999V0202201N003019999999N999999999-00811-00901999999REMSYN03001030 46/// /2203 11081 21090=
0039010300999992015011514004+69283+018133FM-12+098299999V0201901N003019999999N999999999-00801-00891999999REMSYN03001030 46/// /1903 11080 21089=
0039010300999992015011515004+69283+018133FM-12+098299999V0201701N002019999999N999999999-00771-00851999999REMSYN03001030 46/// /1702 11077 21085=
0039010300999992015011516004+69283+018133FM-12+098299999V0201501N002019999999N999999999-00761-00841999999REMSYN03001030 46/// /1502 11076 21084=
0039010300999992015011517004+69283+018133FM-12+098299999V0201401N005019999999N999999999-00761-00841999999REMSYN03001030 46/// /1405 11076 21084=
0055010300999992015011518004+69283+018133FM-12+098299999V020999999999999999999999999999+99999+99999999999REMSYN04601030 46/// /1404 11078 21086 333 11076 91110=
0039010300999992015011519004+69283+018133FM-12+098299999V0201601N003019999999N999999999-00781-00861999999REMSYN03001030 46/// /1603 11078 21086=
0039010300999992015011520004+69283+018133FM-12+098299999V0202001N003019999999N999999999-00771-00851999999REMSYN03001030 46/// /2003 11077 21085=
0039010300999992015011521004+69283+018133FM-12+098299999V0201601N002019999999N999999999-00781-00861999999REMSYN03001030 46/// /1602 11078 21086=
0039010300999992015011522004+69283+018133FM-12+098299999V0200301N004019999999N999999999-00791-00871999999REMSYN03001030 46/// /0304 11079 21087=
0039010300999992015011523004+69283+018133FM-12+098299999V0201301N006019999999N999999999-00811-00891999999REMSYN03001030 46/// /1306 11081 21089=
0049010300999992015011600004+69283+018133FM-12+098299999V020999999999999999999999999999+99999+99999999999REMSYN04001030 46/// /2904 11082 21091 333 91115=
0039010300999992015011601004+69283+018133FM-12+098299999V0201501N006019999999N999999999-00861-00951999999REMSYN03001030 46/// /1506 11086 21095=
0039010300999992015011602004+69283+018133FM-12+098299999V0201401N006019999999N999999999-00921-01011999999REMSYN03001030 46/// /1406 11092 21101=
0039010300999992015011603004+69283+018133FM-12+098299999V0201401N007019999999N999999999-00921-01011999999REMSYN03001030 46/// /1407 11092 21101=
0039010300999992015011604004+69283+018133FM-12+098299999V0201701N006019999999N999999999-00891-00981999999REMSYN03001030 46/// /1706 11089 21098=
0039010300999992015011605004+69283+018133FM-12+098299999V0201901N004019999999N999999999-00911-01001999999REMSYN03001030 46/// /1904 11091 21100=
0055010300999992015011606004+69283+018133FM-12+098299999V020999999999999999999999999999+99999+99999999999REMSYN04601030 46/// /1607 11090 21099 333 21093 91123=
0039010300999992015011607004+69283+018133FM-12+098299999V0201401N006019999999N999999999-00901-00991999999REMSYN03001030 46/// /1406 11090 21099=
0039010300999992015011608004+69283+018133FM-12+098299999V0201601N006019999999N999999999-00931-01021999999REMSYN03001030 46/// /1606 11093 21102=
0039010300999992015011609004+69283+018133FM-12+098299999V0201401N006019999999N999999999-00911-01001999999REMSYN03001030 46/// /1406 11091 21100=
0039010300999992015011610004+69283+018133FM-12+098299999V0201401N006019999999N999999999-00921-01011999999REMSYN03001030 46/// /1406 11092 21101=
0039010300999992015011611004+69283+018133FM-12+098299999V0201401N006019999999N999999999-00911-01001999999REMSYN03001030 46/// /1406 11091 21100=
0049010300999992015011612004+69283+018133FM-12+098299999V020999999999999999999999999999+99999+99999999999REMSYN04001030 46/// /1406 11089 21098 333 91114=
0039010300999992015011613004+69283+018133FM-12+098299999V0201401N006019999999N999999999-00871-00961999999REMSYN03001030 46/// /1406 11087 21096=
0039010300999992015011614004+69283+018133FM-12+098299999V0201401N005019999999N999999999-00861-00951999999REMSYN03001030 46/// /1405 11086 21095=
0039010300999992015011615004+69283+018133FM-12+098299999V0201501N004019999999N999999999-00861-00951999999REMSYN03001030 46/// /1504 11086 21095=
0039010300999992015011616004+69283+018133FM-12+098299999V0201401N004019999999N999999999-00841-00931999999REMSYN03001030 46/// /1404 11084 21093=
0039010300999992015011617004+69283+018133FM-12+098299999V0201501N003019999999N999999999-00821-00911999999REMSYN03001030 46/// /1503 11082 21091=
0055010300999992015011618004+69283+018133FM-12+098299999V020999999999999999999999999999+99999+99999999999REMSYN04601030 46/// /1404 11079 21088 333 11079 91112=
0039010300999992015011619004+69283+018133FM-12+098299999V0201401N003019999999N999999999-00781-00861999999REMSYN03001030 46/// /1403 11078 21086=
0039010300999992015011620004+69283+018133FM-12+098299999V0201601N003019999999N999999999-00771-00851999999REMSYN03001030 46/// /1603 11077 21085=
0039010300999992015011621004+69283+018133FM-12+098299999V0201501N002019999999N999999999-00781-00861999999REMSYN03001030 46/// /1502 11078 21086=
0039010300999992015011622004+69283+018133FM-12+098299999V0201401N003019999999N999999999-00781-00861999999REMSYN03001030 46/// /1403 11078 21086=
0039010300999992015011623004+69283+018133FM-12+098299999V0202101N002019999999N999999999-00771-00851999999REMSYN03001030 46/// /2102 11077 21085=
0049010300999992015011700004+69283+018133FM-12+098299999V020999999999999999999999999999+99999+99999999999REMSYN04001030 46/// /1502 11077 21085 333 91108=
0039010300999992015011701004+69283+018133FM-12+098299999V0203001N001019999999N999999999-00771-00851999999REMSYN03001030 46/// /3001 11077 21085=
0039010300999992015011702004+69283+018133FM-12+098299999V0201101N002019999999N999999999-00771-00851999999REMSYN03001030 46/// /1102 11077 21085=
0039010300999992015011703004+69283+018133FM-12+098299999V0200801N004019999999N999999999-00781-00861999999REMSYN03001030 46/// /0804 11078 21086=
0039010300999992015011704004+69283+018133FM-12+098299999V0200901N005019999999N999999999-00791-00871999999REMSYN03001030 46/// /0905 11079 21087=
0039010300999992015011705004+69283+018133FM-12+098299999V0200801N007019999999N999999999-00791-00871999999REMSYN03001030 46/// /0807 11079 21087=
0055010300999992015011706004+69283+018133FM-12+098299999V020999999999999999999999999999+99999+99999999999REMSYN04601030 46/// /0806 11080 21088 333 21080 91111=
0039010300999992015011707004+69283+018133FM-12+098299999V0200801N007019999999N999999999-00801-00881999999REMSYN03001030 46/// /0807 11080 21088=
0039010300999992015011708004+69283+018133FM-12+098299999V0200801N005019999999N999999999-00811-00891999999REMSYN03001030 46/// /0805 11081 21089=
0039010300999992015011709004+69283+018133FM-12+098299999V0200801N008019999999N999999999-00821-00901999999REMSYN03001030 46/// /0808 11082 21090=
0039010300999992015011710004+69283+018133FM-12+098299999V0200801N007019999999N999999999-00821-00901999999REMSYN03001030 46/// /0807 11082 21090=
0039010300999992015011711004+69283+018133FM-12+098299999V0200901N004019999999N999999999-00831-00911999999REMSYN03001030 46/// /0904 11083 21091=
0049010300999992015011712004+69283+018133FM-12+098299999V020999999999999999999999999999+99999+99999999999REMSYN04001030 46/// /0805 11083 21092 333 91112=
0039010300999992015011713004+69283+018133FM-12+098299999V0200801N008019999999N999999999-00841-00931999999REMSYN03001030 46/// /0808 11084 21093=
0039010300999992015011714004+69283+018133FM-12+098299999V0200801N007019999999N999999999-00851-00941999999REMSYN03001030 46/// /0807 11085 21094=
0039010300999992015011715004+69283+018133FM-12+098299999V0200501N004019999999N999999999-00861-00951999999REMSYN03001030 46/// /0504 11086 21095=
0039010300999992015011716004+69283+018133FM-12+098299999V0200201N003019999999N999999999-00861-00951999999REMSYN03001030 46/// /0203 11086 21095=
0039010300999992015011717004+69283+018133FM-12+098299999V0200201N003019999999N999999999-00871-00961999999REMSYN03001030 46/// /0203 11087 21096=
0055010300999992015011718004+69283+018133FM-12+098299999V020999999999999999999999999999+99999+99999999999REMSYN04601030 46/// /0404 11088 21097 333 11079 91112=
0039010300999992015011719004+69283+018133FM-12+098299999V0200101N003019999999N999999999-00881-00971999999REMSYN03001030 46/// /0103 11088 21097=
0039010300999992015011720004+69283+018133FM-12+098299999V0203601N003019999999N999999999-00881-00971999999REMSYN03001030 46/// /3603 11088 21097=
0039010300999992015011721004+69283+018133FM-12+098299999V0200101N005019999999N999999999-00881-00971999999REMSYN03001030 46/// /0105 11088 21097=
0039010300999992015011722004+69283+018133FM-12+098299999V0200101N004019999999N999999999-00881-00971999999REMSYN03001030 46/// /0104 11088 21097=
0039010300999992015011723004+69283+018133FM-12+098299999V0200101N003019999999N999999999-00871-00961999999REMSYN03001030 46/// /0103 11087 21096=
0049010300999992015011800004+69283+018133FM-12+098299999V020999999999999999999999999999+99999+99999999999REMSYN04001030 46/// /3604 11087 21096 333 91110=
0039010300999992015011801004+69283+018133FM-12+098299999V0200201N003019999999N999999999-00861-00951999999REMSYN03001030 46/// /0203 11086 21095=
0039010300999992015011802004+69283+018133FM-12+098299999V0200201N003019999999N999999999-00851-00941999999REMSYN03001030 46/// /0203 11085 21094=
0039010300999992015011803004+69283+018133FM-12+098299999V0200101N003019999999N999999999-00841-00931999999REMSYN03001030 46/// /0103 11084 21093=
0039010300999992015011804004+69283+018133FM-12+098299999V0200101N004019999999N999999999-00811-00901999999REMSYN03001030 46/// /0104 11081 21090=
0039010300999992015011805004+69283+018133FM-12+098299999V0200401N004019999999N999999999-00781-00861999999REMSYN03001030 46/// /0404 11078 21086=
0055010300999992015011806004+69283+018133FM-12+098299999V020999999999999999999999999999+99999+99999999999REMSYN04601030 46/// /0303 11078 21086 333 21088 91110=
0039010300999992015011807004+69283+018133FM-12+098299999V0200101N003019999999N999999999-00781-00861999999REMSYN03001030 46/// /0103 11078 21086=
0039010300999992015011808004+69283+018133FM-12+098299999V0200201N002019999999N999999999-00781-00861999999REMSYN03001030 46/// /0202 11078 21086=
0039010300999992015011809004+69283+018133FM-12+098299999V0200301N004019999999N999999999-00801-00881999999REMSYN03001030 46/// /0304 11080 21088=
0039010300999992015011810004+69283+018133FM-12+098299999V0200201N004019999999N999999999-00831-00921999999REMSYN03001030 46/// /0204 11083 21092=
0039010300999992015011811004+69283+018133FM-12+098299999V0201201N002019999999N999999999-00851-00941999999REMSYN03001030 46/// /1202 11085 21094=
0049010300999992015011812004+69283+018133FM-12+098299999V020999999999999999999999999999+99999+99999999999REMSYN04001030 46/// /1202 11086 21095 333 91108=
0039010300999992015011813004+69283+018133FM-12+098299999V0200901N002019999999N999999999-00861-00951999999REMSYN03001030 46/// /0902 11086 21095=
0039010300999992015011814004+69283+018133FM-12+098299999V0201301N002019999999N999999999-00871-00961999999REMSYN03001030 46/// /1302 11087 21096=
0039010300999992015011815004+69283+018133FM-12+098299999V0201401N002019999999N999999999-00891-00981999999REMSYN03001030 46/// /1402 11089 21098=
0039010300999992015011816004+69283+018133FM-12+098299999V0201001N004019999999N999999999-00931-01021999999REMSYN03001030 46/// /1004 11093 21102=
0039010300999992015011817004+69283+018133FM-12+098299999V0201801N004019999999N999999999-01001-01101999999REMSYN03001030 46/// /1804 11100 21110=
0055010300999992015011818004+69283+018133FM-12+098299999V020999999999999999999999999999+99999+99999999999REMSYN04601030 46/// /2304 11111 21121 333 11077 91114=
0039010300999992015011819004+69283+018133FM-12+098299999V0201901N004019999999N999999999-01191-01301999999REMSYN03001030 46/// /1904 11119 21130=
0039010300999992015011820004+69283+018133FM-12+098299999V0202101N004019999999N999999999-01261-01381999999REMSYN03001030 46/// /2104 11126 21138=
0039010300999992015011821004+69283+018133FM-12+098299999V0201801N004019999999N999999999-01311-01431999999REMSYN03001030 46/// /1804 11131 21143=
0039010300999992015011822004+69283+018133FM-12+098299999V0202101N004019999999N999999999-01341-01471999999REMSYN03001030 46/// /2104 11134 21147=
0039010300999992015011823004+69283+018133FM-12+098299999V0201801N003019999999N999999999-01361-01491999999REMSYN03001030 46/// /1803 11136 21149=
0049010300999992015011900004+69283+018133FM-12+098299999V020999999999999999999999999999+99999+99999999999REMSYN04001030 46/// /1404 11138 21151 333 91116=
0039010300999992015011901004+69283+018133FM-12+098299999V0201401N007019999999N999999999-01401-01531999999REMSYN03001030 46/// /1407 11140 21153=
0039010300999992015011902004+69283+018133FM-12+098299999V0201601N005019999999N999999999-01421-01561999999REMSYN03001030 46/// /1605 11142 21156=
0039010300999992015011903004+69283+018133FM-12+098299999V0201801N004019999999N999999999-01401-01541999999REMSYN03001030 46/// /1804 11140 21154=
0039010300999992015011904004+69283+018133FM-12+098299999V0202401N002019999999N999999999-01381-01521999999REMSYN03001030 46/// /2402 11138 21152=
0039010300999992015011905004+69283+018133FM-12+098299999V0202101N004019999999N999999999-01351-01491999999REMSYN03001030 46/// /2104 11135 21149=
0055010300999992015011906004+69283+018133FM-12+098299999V020999999999999999999999999999+99999+99999999999REMSYN04601030 46/// /2704 11132 21146 333 21142 91111=
0039010300999992015011907004+69283+018133FM-12+098299999V0203001N002019999999N999999999-01301-01441999999REMSYN03001030 46/// /3002 11130 21144=
0039010300999992015011908004+69283+018133FM-12+098299999V0202001N002019999999N999999999-01311-01451999999REMSYN03001030 46/// /2002 11131 21145=
0039010300999992015011909004+69283+018133FM-12+098299999V0201701N002019999999N999999999-01281-01421999999REMSYN03001030 46/// /1702 11128 21142=
0039010300999992015011910004+69283+018133FM-12+098299999V0202101N005019999999N999999999-01221-01351999999REMSYN03001030 46/// /2105 11122 21135=
0039010300999992015011911004+69283+018133FM-12+098299999V0202201N004019999999N999999999-01161-01291999999REMSYN03001030 46/// /2204 11116 21129=
0049010300999992015011912004+69283+018133FM-12+098299999V020999999999999999999999999999+99999+99999999999REMSYN04001030 46/// /2604 11109 21122 333 91106=
0039010300999992015011913004+69283+018133FM-12+098299999V0202601N003019999999N999999999-01091-01211999999REMSYN03001030 46/// /2603 11109 21121=
0039010300999992015011914004+69283+018133FM-12+098299999V0202401N003019999999N999999999-01151-01271999999REMSYN03001030 46/// /2403 11115 21127=
0039010300999992015011915004+69283+018133FM-12+098299999V0202701N003019999999N999999999-01201-01331999999REMSYN03001030 46/// /2703 11120 21133=
0039010300999992015011916004+69283+018133FM-12+098299999V0202801N006019999999N999999999-01241-01371999999REMSYN03001030 46/// /2806 11124 21137=
0039010300999992015011917004+69283+018133FM-12+098299999V0202501N003019999999N999999999-01261-01391999999REMSYN03001030 46/// /2503 11126 21139=
0055010300999992015011918004+69283+018133FM-12+098299999V020999999999999999999999999999+99999+99999999999REMSYN04601030 46/// /2607 11128 21141 333 11107 91108=
0039010300999992015011919004+69283+018133FM-12+098299999V0202601N006019999999N999999999-01271-01401999999REMSYN03001030 46/// /2606 11127 21140=
0039010300999992015011920004+69283+018133FM-12+098299999V0202801N007019999999N999999999-01261-01391999999REMSYN03001030 46/// /2807 11126 21139=
0039010300999992015011921004+69283+018133FM-12+098299999V0202701N008019999999N999999999-01251-01381999999REMSYN03001030 46/// /2708 11125 21138=
0039010300999992015011922004+69283+018133FM-12+098299999V0202701N011019999999N999999999-01251-01381999999REMSYN03001030 46/// /2711 11125 21138=
0039010300999992015011923004+69283+018133FM-12+098299999V0202701N014019999999N999999999-01251-01381999999REMSYN03001030 46/// /2714 11125 21138=
0049010300999992015012000004+69283+018133FM-12+098299999V020999999999999999999999999999+99999+99999999999REMSYN04001030 46/// /2612 11127 21140 333 91116=
0039010300999992015012001004+69283+018133FM-12+098299999V0202601N011019999999N999999999-01281-01411999999REMSYN03001030 46/// /2611 11128 21141=
0039010300999992015012002004+69283+018133FM-12+098299999V0202501N010019999999N999999999-01291-01421999999REMSYN03001030 46/// /2510 11129 21142=
0039010300999992015012003004+69283+018133FM-12+098299999V0202601N009019999999N999999999-01291-01421999999REMSYN03001030 46/// /2609 11129 21142=
0039010300999992015012004004+69283+018133FM-12+098299999V0202601N009019999999N999999999-01281-01411999999REMSYN03001030 46/// /2609 11128 21141=
0039010300999992015012005004+69283+018133FM-12+098299999V0202601N009019999999N999999999-01251-01381999999REMSYN03001030 46/// /2609 11125 21138=
0055010300999992015012006004+69283+018133FM-12+098299999V020999999999999999999999999999+99999+99999999999REMSYN04601030 46/// /2609 11123 21136 333 21129 91113=
0039010300999992015012007004+69283+018133FM-12+098299999V0202601N007019999999N999999999-01211-01331999999REMSYN03001030 46/// /2607 11121 21133=
0039010300999992015012008004+69283+018133FM-12+098299999V0202301N006019999999N999999999-01201-01321999999REMSYN03001030 46/// /2306 11120 21132=
0039010300999992015012009004+69283+018133FM-12+098299999V0202101N006019999999N999999999-01181-01301999999REMSYN03001030 46/// /2106 11118 21130=
0039010300999992015012010004+69283+018133FM-12+098299999V0202201N008019999999N999999999-01141-01261999999REMSYN03001030 46/// /2208 11114 21126=
0039010300999992015012011004+69283+018133FM-12+098299999V0202201N005019999999N999999999-01061-01181999999REMSYN03001030 46/// /2205 11106 21118=
0049010300999992015012012004+69283+018133FM-12+098299999V020999999999999999999999999999+99999+99999999999REMSYN04001030 46/// /1806 11100 21111 333 91110=
0039010300999992015012013004+69283+018133FM-12+098299999V0201901N005019999999N999999999-01031-01141999999REMSYN03001030 46/// /1905 11103 21114=
0039010300999992015012014004+69283+018133FM-12+098299999V0202301N005019999999N999999999-01071-01181999999REMSYN03001030 46/// /2305 11107 21118=
0039010300999992015012015004+69283+018133FM-12+098299999V0202401N005019999999N999999999-01101-01211999999REMSYN03001030 46/// /2405 11110 21121=
0039010300999992015012016004+69283+018133FM-12+098299999V0202601N004019999999N999999999-01121-01241999999REMSYN03001030 46/// /2604 11112 21124=
0039010300999992015012017004+69283+018133FM-12+098299999V0202601N004019999999N999999999-01141-01261999999REMSYN03001030 46/// /2604 11114 21126=
0055010300999992015012018004+69283+018133FM-12+098299999V020999999999999999999999999999+99999+99999999999REMSYN04601030 46/// /2202 11116 21128 333 11100 91108=
0039010300999992015012019004+69283+018133FM-12+098299999V0202401N004019999999N999999999-01171-01291999999REMSYN03001030 46/// /2404 11117 21129=
0039010300999992015012020004+69283+018133FM-12+098299999V0202401N004019999999N999999999-01181-01301999999REMSYN03001030 46/// /2404 11118 21130=
0039010300999992015012021004+69283+018133FM-12+098299999V0202301N003019999999N999999999-01191-01321999999REMSYN03001030 46/// /2303 11119 21132=
0039010300999992015012022004+69283+018133FM-12+098299999V0202301N003019999999N999999999-01171-01301999999REMSYN03001030 46/// /2303 11117 21130=
0039010300999992015012023004+69283+018133FM-12+098299999V0202301N003019999999N999999999-01151-01271999999REMSYN03001030 46/// /2303 11115 21127=
0049010300999992015012100004+69283+018133FM-12+098299999V020999999999999999999999999999+99999+99999999999REMSYN04001030 46/// /2604 11113 21125 333 91105=
0039010300999992015012101004+69283+018133FM-12+098299999V0202401N004019999999N999999999-01121-01241999999REMSYN03001030 46/// /2404 11112 21124=
0039010300999992015012102004+69283+018133FM-12+098299999V0202101N005019999999N999999999-01091-01211999999REMSYN03001030 46/// /2105 11109 21121=
0039010300999992015012103004+69283+018133FM-12+098299999V0202301N006019999999N999999999-01071-01191999999REMSYN03001030 46/// /2306 11107 21119=
0039010300999992015012104004+69283+018133FM-12+098299999V0202501N007019999999N999999999-01061-01171999999REMSYN03001030 46/// /2507 11106 21117=
0039010300999992015012105004+69283+018133FM-12+098299999V0202601N007019999999N999999999-01061-01171999999REMSYN03001030 46/// /2607 11106 21117=
0055010300999992015012106004+69283+018133FM-12+098299999V020999999999999999999999999999+99999+99999999999REMSYN04601030 46/// /2607 11105 21116 333 21119 91109=
0039010300999992015012107004+69283+018133FM-12+098299999V0202601N007019999999N999999999-01041-01151999999REMSYN03001030 46/// /2607 11104 21115=
0039010300999992015012108004+69283+018133FM-12+098299999V0202501N007019999999N999999999-01031-01141999999REMSYN03001030 46/// /2507 11103 21114=
0039010300999992015012109004+69283+018133FM-12+098299999V0202501N006019999999N999999999-01021-01131999999REMSYN03001030 46/// /2506 11102 21113=
0039010300999992015012110004+69283+018133FM-12+098299999V0202101N005019999999N999999999-01001-01111999999REMSYN03001030 46/// /2105 11100 21111=
0039010300999992015012111004+69283+018133FM-12+098299999V0202201N005019999999N999999999-00921-01031999999REMSYN03001030 46/// /2205 11092 21103=
0049010300999992015012112004+69283+018133FM-12+098299999V020999999999999999999999999999+99999+99999999999REMSYN04001030 46/// /2506 11087 21097 333 91109=
0039010300999992015012113004+69283+018133FM-12+098299999V0202601N007019999999N999999999-00861-00961999999REMSYN03001030 46/// /2607 11086 21096=
0039010300999992015012114004+69283+018133FM-12+098299999V0202601N007019999999N999999999-00881-00981999999REMSYN03001030 46/// /2607 11088 21098=
0039010300999992015012115004+69283+018133FM-12+098299999V0202601N006019999999N999999999-00891-00991999999REMSYN03001030 46/// /2606 11089 21099=
0039010300999992015012116004+69283+018133FM-12+098299999V0202601N006019999999N999999999-00881-00971999999REMSYN03001030 46/// /2606 11088 21097=
0039010300999992015012117004+69283+018133FM-12+098299999V0202701N004019999999N999999999-00861-00951999999REMSYN03001030 46/// /2704 11086 21095=
0055010300999992015012118004+69283+018133FM-12+098299999V020999999999999999999999999999+99999+99999999999REMSYN04601030 46/// /2603 11083 21092 333 11083 91109=
0039010300999992015012119004+69283+018133FM-12+098299999V0202101N002019999999N999999999-00831-00921999999REMSYN03001030 46/// /2102 11083 21092=
0039010300999992015012120004+69283+018133FM-12+098299999V0201601N003019999999N999999999-00801-00891999999REMSYN03001030 46/// /1603 11080 21089=
0039010300999992015012121004+69283+018133FM-12+098299999V0201501N003019999999N999999999-00781-00871999999REMSYN03001030 46/// /1503 11078 21087=
0039010300999992015012122004+69283+018133FM-12+098299999V0201401N003019999999N999999999-00781-00871999999REMSYN03001030 46/// /1403 11078 21087=
0039010300999992015012123004+69283+018133FM-12+098299999V0201401N003019999999N999999999-00781-00871999999REMSYN03001030 46/// /1403 11078 21087=
0049010300999992015012200004+69283+018133FM-12+098299999V020999999999999999999999999999+99999+99999999999REMSYN04001030 46/// /1504 11079 21088 333 91106=
0039010300999992015012201004+69283+018133FM-12+098299999V0201401N004019999999N999999999-00791-00881999999REMSYN03001030 46/// /1404 11079 21088=
0039010300999992015012202004+69283+018133FM-12+098299999V0202101N004019999999N999999999-00791-00881999999REMSYN03001030 46/// /2104 11079 21088=
0039010300999992015012203004+69283+018133FM-12+098299999V0202701N004019999999N999999999-00821-00911999999REMSYN03001030 46/// /2704 11082 21091=
0039010300999992015012204004+69283+018133FM-12+098299999V0202601N004019999999N999999999-00851-00941999999REMSYN03001030 46/// /2604 11085 21094=
0039010300999992015012205004+69283+018133FM-12+098299999V0202701N006019999999N999999999-00881-00971999999REMSYN03001030 46/// /2706 11088 21097=
0055010300999992015012206004+69283+018133FM-12+098299999V020999999999999999999999999999+99999+99999999999REMSYN04601030 46/// /2605 11091 21101 333 21091 91106=
0039010300999992015012207004+69283+018133FM-12+098299999V0202601N004019999999N999999999-00931-01031999999REMSYN03001030 46/// /2604 11093 21103=
0039010300999992015012208004+69283+018133FM-12+098299999V0202401N003019999999N999999999-00941-01041999999REMSYN03001030 46/// /2403 11094 21104=
0039010300999992015012209004+69283+018133FM-12+098299999V0202401N003019999999N999999999-00941-01041999999REMSYN03001030 46/// /2403 11094 21104=
0039010300999992015012210004+69283+018133FM-12+098299999V0202401N004019999999N999999999-00931-01041999999REMSYN03001030 46/// /2404 11093 21104=
0039010300999992015012211004+69283+018133FM-12+098299999V0202001N003019999999N999999999-00861-00961999999REMSYN03001030 46/// /2003 11086 21096=
0049010300999992015012212004+69283+018133FM-12+098299999V020999999999999999999999999999+99999+99999999999REMSYN04001030 46/// /1803 11081 21090 333 91105=
0039010300999992015012213004+69283+018133FM-12+098299999V0201701N003019999999N999999999-00831-00921999999REMSYN03001030 46/// /1703 11083 21092=
0039010300999992015012214004+69283+018133FM-12+098299999V0201901N003019999999N999999999-00871-00961999999REMSYN03001030 46/// /1903 11087 21096=
0039010300999992015012215004+69283+018133FM-12+098299999V0201801N003019999999N999999999-00891-00981999999REMSYN03001030 46/// /1803 11089 21098=
0039010300999992015012216004+69283+018133FM-12+098299999V0201701N004019999999N999999999-00891-00991999999REMSYN03001030 46/// /1704 11089 21099=
0039010300999992015012217004+69283+018133FM-12+098299999V0201901N003019999999N999999999-00901-01001999999REMSYN03001030 46/// /1903 11090 21100=
0055010300999992015012218004+69283+018133FM-12+098299999V020999999999999999999999999999+99999+99999999999REMSYN04601030 46/// /2304 11090 21100 333 11080 91104=
0039010300999992015012219004+69283+018133FM-12+098299999V0202401N005019999999N999999999-00921-01021999999REMSYN03001030 46/// /2405 11092 21102=
0039010300999992015012220004+69283+018133FM-12+098299999V0202301N004019999999N999999999-00941-01041999999REMSYN03001030 46/// /2304 11094 21104=
0039010300999992015012221004+69283+018133FM-12+098299999V0202301N006019999999N999999999-00971-01071999999REMSYN03001030 46/// /2306 11097 21107=
0039010300999992015012222004+69283+018133FM-12+098299999V0202101N006019999999N999999999-00951-01051999999REMSYN03001030 46/// /2106 11095 21105=
0039010300999992015012223004+69283+018133FM-12+098299999V0201701N005019999999N999999999-00951-01051999999REMSYN03001030 46/// /1705 11095 21105=
0049010300999992015012300004+69283+018133FM-12+098299999V020999999999999999999999999999+99999+99999999999REMSYN04001030 46/// /1805 11092 21102 333 91108=
0039010300999992015012301004+69283+018133FM-12+098299999V0201901N005019999999N999999999-00931-01031999999REMSYN03001030 46/// /1905 11093 21103=
0039010300999992015012302004+69283+018133FM-12+098299999V0201801N005019999999N999999999-00941-01041999999REMSYN03001030 46/// /1805 11094 21104=
0039010300999992015012303004+69283+018133FM-12+098299999V0201801N005019999999N999999999-00941-01041999999REMSYN03001030 46/// /1805 11094 21104=
0039010300999992015012304004+69283+018133FM-12+098299999V0201601N007019999999N999999999-00931-01031999999REMSYN03001030 46/// /1607 11093 21103=
0039010300999992015012305004+69283+018133FM-12+098299999V0201901N007019999999N999999999-00951-01051999999REMSYN03001030 46/// /1907 11095 21105=
0055010300999992015012306004+69283+018133FM-12+098299999V020999999999999999999999999999+99999+99999999999REMSYN04601030 46/// /1908 11096 21106 333 21097 91109=
0039010300999992015012307004+69283+018133FM-12+098299999V0202001N007019999999N999999999-00971-01071999999REMSYN03001030 46/// /2007 11097 21107=
0039010300999992015012308004+69283+018133FM-12+098299999V0202201N007019999999N999999999-00951-01051999999REMSYN03001030 46/// /2207 11095 21105=
0039010300999992015012309004+69283+018133FM-12+098299999V0201901N006019999999N999999999-00921-01021999999REMSYN03001030 46/// /1906 11092 21102=
0039010300999992015012310004+69283+018133FM-12+098299999V0201801N006019999999N999999999-00911-01011999999REMSYN03001030 46/// /1806 11091 21101=
0039010300999992015012311004+69283+018133FM-12+098299999V0201701N008019999999N999999999-00881-00981999999REMSYN03001030 46/// /1708 11088 21098=
0049010300999992015012312004+69283+018133FM-12+098299999V020999999999999999999999999999+99999+99999999999REMSYN04001030 46/// /1507 11095 21104 333 91111=
0039010300999992015012313004+69283+018133FM-12+098299999V0201601N007019999999N999999999-01001-01101999999REMSYN03001030 46/// /1607 11100 21110=
0039010300999992015012314004+69283+018133FM-12+098299999V0201401N006019999999N999999999-01011-01111999999REMSYN03001030 46/// /1406 11101 21111=
0039010300999992015012315004+69283+018133FM-12+098299999V0201501N008019999999N999999999-01111-01221999999REMSYN03001030 46/// /1508 11111 21122=
0039010300999992015012316004+69283+018133FM-12+098299999V0201401N008019999999N999999999-01161-01281999999REMSYN03001030 46/// /1408 11116 21128=
0039010300999992015012317004+69283+018133FM-12+098299999V0201401N007019999999N999999999-01231-01371999999REMSYN03001030 46/// /1407 11123 21137=
0055010300999992015012318004+69283+018133FM-12+098299999V020999999999999999999999999999+99999+99999999999REMSYN04601030 46/// /1508 11114 21127 333 11088 91113=
0039010300999992015012319004+69283+018133FM-12+098299999V0201401N008019999999N999999999-01191-01341999999REMSYN03001030 46/// /1408 11119 21134=
0039010300999992015012320004+69283+018133FM-12+098299999V0201401N008019999999N999999999-01241-01391999999REMSYN03001030 46/// /1408 11124 21139=
0039010300999992015012321004+69283+018133FM-12+098299999V0201501N009019999999N999999999-01291-01461999999REMSYN03001030 46/// /1509 11129 21146=
0039010300999992015012322004+69283+018133FM-12+098299999V0201501N006019999999N999999999-01221-01371999999REMSYN03001030 46/// /1506 11122 21137=
0039010300999992015012323004+69283+018133FM-12+098299999V0201701N006019999999N999999999-01211-01371999999REMSYN03001030 46/// /1706 11121 21137=
0049010300999992015012400004+69283+018133FM-12+098299999V020999999999999999999999999999+99999+99999999999REMSYN04001030 46/// /1708 11122 21139 333 91115=
0039010300999992015012401004+69283+018133FM-12+098299999V0201701N007019999999N999999999-01181-01351999999REMSYN03001030 46/// /1707 11118 21135=
0039010300999992015012402004+69283+018133FM-12+098299999V0201601N008019999999N999999999-01201-01381999999REMSYN03001030 46/// /1608 11120 21138=
0039010300999992015012403004+69283+018133FM-12+098299999V0201601N006019999999N999999999-01191-01351999999REMSYN03001030 46/// /1606 11119 21135=
0039010300999992015012404004+69283+018133FM-12+098299999V0201501N007019999999N999999999-01211-01371999999REMSYN03001030 46/// /1507 11121 21137=
0039010300999992015012405004+69283+018133FM-12+098299999V0201601N008019999999N999999999-01171-01341999999REMSYN03001030 46/// /1608 11117 21134=
0055010300999992015012406004+69283+018133FM-12+098299999V020999999999999999999999999999+99999+99999999999REMSYN04601030 46/// /1506 11116 21136 333 21129 91112=
0039010300999992015012407004+69283+018133FM-12+098299999V0201501N007019999999N999999999-01161-01371999999REMSYN03001030 46/// /1507 11116 21137=
0039010300999992015012408004+69283+018133FM-12+098299999V0201501N008019999999N999999999-01241-01441999999REMSYN03001030 46/// /1508 11124 21144=
0039010300999992015012409004+69283+018133FM-12+098299999V0201401N007019999999N999999999-01181-01371999999REMSYN03001030 46/// /1407 11118 21137=
0039010300999992015012410004+69283+018133FM-12+098299999V0201701N008019999999N999999999-01181-01441999999REMSYN03001030 46/// /1708 11118 21144=
0039010300999992015012411004+69283+018133FM-12+098299999V0201601N008019999999N999999999-01151-01411999999REMSYN03001030 46/// /1608 11115 21141=
0049010300999992015012412004+69283+018133FM-12+098299999V020999999999999999999999999999+99999+99999999999REMSYN04001030 46/// /2108 11100 21118 333 91114=
0039010300999992015012413004+69283+018133FM-12+098299999V0201901N006019999999N999999999-01221-01461999999REMSYN03001030 46/// /1906 11122 21146=
0039010300999992015012414004+69283+018133FM-12+098299999V0202201N006019999999N999999999-01071-01221999999REMSYN03001030 46/// /2206 11107 21122=
0039010300999992015012415004+69283+018133FM-12+098299999V0202101N006019999999N999999999-01031-01191999999REMSYN03001030 46/// /2106 11103 21119=
0039010300999992015012416004+69283+018133FM-12+098299999V0202501N009019999999N999999999-00871-00941999999REMSYN03001030 46/// /2509 11087 21094=
0039010300999992015012417004+69283+018133FM-12+098299999V0202301N008019999999N999999999-00831-00921999999REMSYN03001030 46/// /2308 11083 21092=
0055010300999992015012418004+69283+018133FM-12+098299999V020999999999999999999999999999+99999+99999999999REMSYN04601030 46/// /2408 11084 21093 333 11082 91112=
0039010300999992015012419004+69283+018133FM-12+098299999V0202501N010019999999N999999999-00801-00871999999REMSYN03001030 46/// /2510 11080 21087=
0039010300999992015012420004+69283+018133FM-12+098299999V0202401N009019999999N999999999-00731-00801999999REMSYN03001030 46/// /2409 11073 21080=
0039010300999992015012421004+69283+018133FM-12+098299999V0202501N010019999999N999999999-00711-00781999999REMSYN03001030 46/// /2510 11071 21078=
0039010300999992015012422004+69283+018133FM-12+098299999V0202501N012019999999N999999999-00711-00781999999REMSYN03001030 46/// /2512 11071 21078=
0039010300999992015012423004+69283+018133FM-12+098299999V0202601N015019999999N999999999-00711-00781999999REMSYN03001030 46/// /2615 11071 21078=
0049010300999992015012500004+69283+018133FM-12+098299999V020999999999999999999999999999+99999+99999999999REMSYN04001030 46/// /2714 11069 21076 333 91117=
0039010300999992015012501004+69283+018133FM-12+098299999V0202701N013019999999N999999999-00701-00781999999REMSYN03001030 46/// /2713 11070 21078=
0039010300999992015012502004+69283+018133FM-12+098299999V0202601N015019999999N999999999-00661-00721999999REMSYN03001030 46/// /2615 11066 21072=
0039010300999992015012503004+69283+018133FM-12+098299999V0202701N014019999999N999999999-00621-00681999999REMSYN03001030 46/// /2714 11062 21068=
0039010300999992015012504004+69283+018133FM-12+098299999V0202701N014019999999N999999999-00571-00631999999REMSYN03001030 46/// /2714 11057 21063=
0039010300999992015012505004+69283+018133FM-12+098299999V0202601N015019999999N999999999-00531-00581999999REMSYN03001030 46/// /2615 11053 21058=
0055010300999992015012506004+69283+018133FM-12+098299999V020999999999999999999999999999+99999+99999999999REMSYN04601030 46/// /2614 11050 21055 333 21084 91119=
0039010300999992015012507004+69283+018133FM-12+098299999V0202601N014019999999N999999999-00481-00531999999REMSYN03001030 46/// /2614 11048 21053=
0039010300999992015012508004+69283+018133FM-12+098299999V0202701N014019999999N999999999-00471-00521999999REMSYN03001030 46/// /2714 11047 21052=
0039010300999992015012509004+69283+018133FM-12+098299999V0202601N014019999999N999999999-00451-00501999999REMSYN03001030 46/// /2614 11045 21050=
0039010300999992015012510004+69283+018133FM-12+098299999V0202601N014019999999N999999999-00441-00491999999REMSYN03001030 46/// /2614 11044 21049=
0039010300999992015012511004+69283+018133FM-12+098299999V0202601N013019999999N999999999-00451-00501999999REMSYN03001030 46/// /2613 11045 21050=
0049010300999992015012512004+69283+018133FM-12+098299999V020999999999999999999999999999+99999+99999999999REMSYN04001030 46/// /2514 11044 21049 333 91119=
0039010300999992015012513004+69283+018133FM-12+098299999V0202501N014019999999N999999999-00441-00491999999REMSYN03001030 46/// /2514 11044 21049=
0039010300999992015012514004+69283+018133FM-12+098299999V0202601N014019999999N999999999-00441-00481999999REMSYN03001030 46/// /2614 11044 21048=
0039010300999992015012515004+69283+018133FM-12+098299999V0202501N012019999999N999999999-00451-00501999999REMSYN03001030 46/// /2512 11045 21050=
0039010300999992015012516004+69283+018133FM-12+098299999V0202401N010019999999N999999999-00481-00531999999REMSYN03001030 46/// /2410 11048 21053=
0039010300999992015012517004+69283+018133FM-12+098299999V0202001N007019999999N999999999-00511-00561999999REMSYN03001030 46/// /2007 11051 21056=
0055010300999992015012518004+69283+018133FM-12+098299999V020999999999999999999999999999+99999+99999999999REMSYN04601030 46/// /1808 11056 21062 333 11043 91118=
0039010300999992015012519004+69283+018133FM-12+098299999V0201601N010019999999N999999999-00591-00651999999REMSYN03001030 46/// /1610 11059 21065=
0039010300999992015012520004+69283+018133FM-12+098299999V0201401N007019999999N999999999-00631-00701999999REMSYN03001030 46/// /1407 11063 21070=
0039010300999992015012521004+69283+018133FM-12+098299999V0201401N007019999999N999999999-00701-00781999999REMSYN03001030 46/// /1407 11070 21078=
0039010300999992015012522004+69283+018133FM-12+098299999V0201601N006019999999N999999999-00731-00821999999REMSYN03001030 46/// /1606 11073 21082=
0039010300999992015012523004+69283+018133FM-12+098299999V0201501N009019999999N999999999-00651-00791999999REMSYN03001030 46/// /1509 11065 21079=
0049010300999992015012600004+69283+018133FM-12+098299999V020999999999999999999999999999+99999+99999999999REMSYN04001030 46/// /1612 11065 21088 333 91123=
0039010300999992015012601004+69283+018133FM-12+098299999V0201601N013019999999N999999999-00601-00661999999REMSYN03001030 46/// /1613 11060 21066=
0039010300999992015012602004+69283+018133FM-12+098299999V0201601N012019999999N999999999-00571-00631999999REMSYN03001030 46/// /1612 11057 21063=
0039010300999992015012603004+69283+018133FM-12+098299999V0201601N015019999999N999999999-00541-00591999999REMSYN03001030 46/// /1615 11054 21059=
0039010300999992015012604004+69283+018133FM-12+098299999V0201601N014019999999N999999999-00521-00571999999REMSYN03001030 46/// /1614 11052 21057=
0039010300999992015012605004+69283+018133FM-12+098299999V0201601N011019999999N999999999-00461-00511999999REMSYN03001030 46/// /1611 11046 21051=
0055010300999992015012606004+69283+018133FM-12+098299999V020999999999999999999999999999+99999+99999999999REMSYN04601030 46/// /2112 11036 21040 333 21074 91122=
0039010300999992015012607004+69283+018133FM-12+098299999V0202201N010019999999N999999999-00331-00361999999REMSYN03001030 46/// /2210 11033 21036=
0039010300999992015012608004+69283+018133FM-12+098299999V0202101N011019999999N999999999-00291-00321999999REMSYN03001030 46/// /2111 11029 21032=
0039010300999992015012609004+69283+018133FM-12+098299999V0202001N010019999999N999999999-00291-00321999999REMSYN03001030 46/// /2010 11029 21032=
0039010300999992015012610004+69283+018133FM-12+098299999V0202001N012019999999N999999999-00301-00331999999REMSYN03001030 46/// /2012 11030 21033=
0039010300999992015012611004+69283+018133FM-12+098299999V0202201N009019999999N999999999-00341-00371999999REMSYN03001030 46/// /2209 11034 21037=
0049010300999992015012612004+69283+018133FM-12+098299999V020999999999999999999999999999+99999+99999999999REMSYN04001030 46/// /2111 11034 21037 333 91117=
0039010300999992015012613004+69283+018133FM-12+098299999V0202101N010019999999N999999999-00361-00401999999REMSYN03001030 46/// /2110 11036 21040=
0039010300999992015012614004+69283+018133FM-12+098299999V0202401N010019999999N999999999-00351-00381999999REMSYN03001030 46/// /2410 11035 21038=
0039010300999992015012615004+69283+018133FM-12+098299999V0202101N012019999999N999999999-00391-00431999999REMSYN03001030 46/// /2112 11039 21043=
0039010300999992015012616004+69283+018133FM-12+098299999V0202201N010019999999N999999999-00441-00481999999REMSYN03001030 46/// /2210 11044 21048=
0039010300999992015012617004+69283+018133FM-12+098299999V0202101N010019999999N999999999-00481-00531999999REMSYN03001030 46/// /2110 11048 21053=
0055010300999992015012618004+69283+018133FM-12+098299999V020999999999999999999999999999+99999+99999999999REMSYN04601030 46/// /2110 11047 21052 333 11028 91119=
0039010300999992015012619004+69283+018133FM-12+098299999V0201801N009019999999N999999999-00521-00571999999REMSYN03001030 46/// /1809 11052 21057=
0039010300999992015012620004+69283+018133FM-12+098299999V0201801N011019999999N999999999-00491-00541999999REMSYN03001030 46/// /1811 11049 21054=
0039010300999992015012621004+69283+018133FM-12+098299999V0201801N011019999999N999999999-00521-00571999999REMSYN03001030 46/// /1811 11052 21057=
0039010300999992015012622004+69283+018133FM-12+098299999V0201901N011019999999N999999999-00521-00571999999REMSYN03001030 46/// /1911 11052 21057=
0039010300999992015012623004+69283+018133FM-12+098299999V0201901N012019999999N999999999-00521-00571999999REMSYN03001030 46/// /1912 11052 21057=
0049010300999992015012700004+69283+018133FM-12+098299999V020999999999999999999999999999+99999+99999999999REMSYN04001030 46/// /2009 11051 21056 333 91117=
0039010300999992015012701004+69283+018133FM-12+098299999V0201901N009019999999N999999999-00511-00561999999REMSYN03001030 46/// /1909 11051 21056=
0039010300999992015012702004+69283+018133FM-12+098299999V0202201N012019999999N999999999-00511-00561999999REMSYN03001030 46/// /2212 11051 21056=
0039010300999992015012703004+69283+018133FM-12+098299999V0202001N010019999999N999999999-00531-00581999999REMSYN03001030 46/// /2010 11053 21058=
0039010300999992015012704004+69283+018133FM-12+098299999V0202101N011019999999N999999999-00541-00591999999REMSYN03001030 46/// /2111 11054 21059=
0039010300999992015012705004+69283+018133FM-12+098299999V0202001N012019999999N999999999-00541-00591999999REMSYN03001030 46/// /2012 11054 21059=
0055010300999992015012706004+69283+018133FM-12+098299999V020999999999999999999999999999+99999+99999999999REMSYN04601030 46/// /2112 11053 21058 333 21054 91116=
0039010300999992015012707004+69283+018133FM-12+098299999V0202301N013019999999N999999999-00511-00561999999REMSYN03001030 46/// /2313 11051 21056=
0039010300999992015012708004+69283+018133FM-12+098299999V0202401N014019999999N999999999-00501-00551999999REMSYN03001030 46/// /2414 11050 21055=
0039010300999992015012709004+69283+018133FM-12+098299999V0202301N014019999999N999999999-00501-00551999999REMSYN03001030 46/// /2314 11050 21055=
0039010300999992015012710004+69283+018133FM-12+098299999V0202401N016019999999N999999999-00511-00561999999REMSYN03001030 46/// /2416 11051 21056=
0039010300999992015012711004+69283+018133FM-12+098299999V0202401N015019999999N999999999-00521-00571999999REMSYN03001030 46/// /2415 11052 21057=
0049010300999992015012712004+69283+018133FM-12+098299999V020999999999999999999999999999+99999+99999999999REMSYN04001030 46/// /2415 11052 21057 333 91120=
0039010300999992015012713004+69283+018133FM-12+098299999V0202401N015019999999N999999999-00521-00571999999REMSYN03001030 46/// /2415 11052 21057=
0039010300999992015012714004+69283+018133FM-12+098299999V0202501N018019999999N999999999-00531-00581999999REMSYN03001030 46/// /2518 11053 21058=
0039010300999992015012715004+69283+018133FM-12+098299999V0202401N016019999999N999999999-00531-00581999999REMSYN03001030 46/// /2416 11053 21058=
0039010300999992015012716004+69283+018133FM-12+098299999V0202501N016019999999N999999999-00561-00621999999REMSYN03001030 46/// /2516 11056 21062=
0039010300999992015012717004+69283+018133FM-12+098299999V0202501N017019999999N999999999-00591-00651999999REMSYN03001030 46/// /2517 11059 21065=
0055010300999992015012718004+69283+018133FM-12+098299999V020999999999999999999999999999+99999+99999999999REMSYN04601030 46/// /2514 11059 21065 333 11050 91122=
0039010300999992015012719004+69283+018133FM-12+098299999V0202501N014019999999N999999999-00591-00651999999REMSYN03001030 46/// /2514 11059 21065=
0039010300999992015012720004+69283+018133FM-12+098299999V0202401N012019999999N999999999-00601-00661999999REMSYN03001030 46/// /2412 11060 21066=
0039010300999992015012721004+69283+018133FM-12+098299999V0202401N008019999999N999999999-00601-00661999999REMSYN03001030 46/// /2408 11060 21066=
0039010300999992015012722004+69283+018133FM-12+098299999V0201901N004019999999N999999999-00601-00661999999REMSYN03001030 46/// /1904 11060 21066=
0039010300999992015012723004+69283+018133FM-12+098299999V0201801N004019999999N999999999-00641-00711999999REMSYN03001030 46/// /1804 11064 21071=
0049010300999992015012800004+69283+018133FM-12+098299999V020999999999999999999999999999+99999+99999999999REMSYN04001030 46/// /1905 11069 21076 333 91117=
0039010300999992015012801004+69283+018133FM-12+098299999V0201501N005019999999N999999999-00721-00791999999REMSYN03001030 46/// /1505 11072 21079=
0039010300999992015012802004+69283+018133FM-12+098299999V0201401N003019999999N999999999-00731-00801999999REMSYN03001030 46/// /1403 11073 21080=
0039010300999992015012803004+69283+018133FM-12+098299999V0201401N004019999999N999999999-00751-00831999999REMSYN03001030 46/// /1404 11075 21083=
0039010300999992015012804004+69283+018133FM-12+098299999V0201301N004019999999N999999999-00771-00851999999REMSYN03001030 46/// /1304 11077 21085=
0039010300999992015012805004+69283+018133FM-12+098299999V0200301N002019999999N999999999-00781-00861999999REMSYN03001030 46/// /0302 11078 21086=
0055010300999992015012806004+69283+018133FM-12+098299999V020999999999999999999999999999+99999+99999999999REMSYN04601030 46/// /0902 11079 21087 333 21079 91110=
0039010300999992015012807004+69283+018133FM-12+098299999V0201101N002019999999N999999999-00811-00891999999REMSYN03001030 46/// /1102 11081 21089=
0039010300999992015012808004+69283+018133FM-12+098299999V0200901N004019999999N999999999-00831-00911999999REMSYN03001030 46/// /0904 11083 21091=
0039010300999992015012809004+69283+018133FM-12+098299999V0200901N004019999999N999999999-00841-00931999999REMSYN03001030 46/// /0904 11084 21093=
0039010300999992015012810004+69283+018133FM-12+098299999V0201301N003019999999N999999999-00851-00941999999REMSYN03001030 46/// /1303 11085 21094=
0039010300999992015012811004+69283+018133FM-12+098299999V0200901N003019999999N999999999-00871-00961999999REMSYN03001030 46/// /0903 11087 21096=
0049010300999992015012812004+69283+018133FM-12+098299999V020999999999999999999999999999+99999+99999999999REMSYN04001030 46/// /3501 11088 21097 333 91107=
0039010300999992015012813004+69283+018133FM-12+098299999V0200601N004019999999N999999999-00871-00961999999REMSYN03001030 46/// /0604 11087 21096=
0039010300999992015012814004+69283+018133FM-12+098299999V0200801N005019999999N999999999-00871-00961999999REMSYN03001030 46/// /0805 11087 21096=
0039010300999992015012815004+69283+018133FM-12+098299999V0200701N007019999999N999999999-00871-00961999999REMSYN03001030 46/// /0707 11087 21096=
0039010300999992015012816004+69283+018133FM-12+098299999V0201201N009019999999N999999999-00851-00931999999REMSYN03001030 46/// /1209 11085 21093=
0039010300999992015012817004+69283+018133FM-12+098299999V0201101N008019999999N999999999-00881-00971999999REMSYN03001030 46/// /1108 11088 21097=
0055010300999992015012818004+69283+018133FM-12+098299999V020999999999999999999999999999+99999+99999999999REMSYN04601030 46/// /1006 11090 21099 333 11079 91118=
0039010300999992015012819004+69283+018133FM-12+098299999V0200901N008019999999N999999999-00971-01071999999REMSYN03001030 46/// /0908 11097 21107=
0039010300999992015012820004+69283+018133FM-12+098299999V0203601N006019999999N999999999-00961-01061999999REMSYN03001030 46/// /3606 11096 21106=
0039010300999992015012821004+69283+018133FM-12+098299999V0200101N007019999999N999999999-01011-01111999999REMSYN03001030 46/// /0107 11101 21111=
0039010300999992015012822004+69283+018133FM-12+098299999V0200601N017019999999N999999999-01051-01151999999REMSYN03001030 46/// /0617 11105 21115=
0039010300999992015012823004+69283+018133FM-12+098299999V0200101N006019999999N999999999-01091-01201999999REMSYN03001030 46/// /0106 11109 21120=
0049010300999992015012900004+69283+018133FM-12+098299999V020999999999999999999999999999+99999+99999999999REMSYN04001030 46/// /0611 11109 21120 333 91134=
0039010300999992015012901004+69283+018133FM-12+098299999V0200301N008019999999N999999999-01111-01221999999REMSYN03001030 46/// /0308 11111 21122=
0039010300999992015012902004+69283+018133FM-12+098299999V0200701N015019999999N999999999-01161-01271999999REMSYN03001030 46/// /0715 11116 21127=
0039010300999992015012903004+69283+018133FM-12+098299999V0200601N012019999999N999999999-01161-01281999999REMSYN03001030 46/// /0612 11116 21128=
0039010300999992015012904004+69283+018133FM-12+098299999V0200501N010019999999N999999999-01191-01311999999REMSYN03001030 46/// /0510 11119 21131=
0039010300999992015012905004+69283+018133FM-12+098299999V0200701N012019999999N999999999-01231-01351999999REMSYN03001030 46/// /0712 11123 21135=
0055010300999992015012906004+69283+018133FM-12+098299999V020999999999999999999999999999+99999+99999999999REMSYN04601030 46/// /0409 11126 21138 333 21126 91132=
0039010300999992015012907004+69283+018133FM-12+098299999V0200801N019019999999N999999999-01281-01411999999REMSYN03001030 46/// /0819 11128 21141=
0039010300999992015012908004+69283+018133FM-12+098299999V0200501N009019999999N999999999-01301-01431999999REMSYN03001030 46/// /0509 11130 21143=
0039010300999992015012909004+69283+018133FM-12+098299999V0200801N016019999999N999999999-01311-01441999999REMSYN03001030 46/// /0816 11131 21144=
0039010300999992015012910004+69283+018133FM-12+098299999V0200701N015019999999N999999999-01331-01461999999REMSYN03001030 46/// /0715 11133 21146=
0039010300999992015012911004+69283+018133FM-12+098299999V0200801N017019999999N999999999-01361-01491999999REMSYN03001030 46/// /0817 11136 21149=
0049010300999992015012912004+69283+018133FM-12+098299999V020999999999999999999999999999+99999+99999999999REMSYN04001030 46/// /0719 11137 21151 333 91135=
0039010300999992015012913004+69283+018133FM-12+098299999V0200801N014019999999N999999999-01381-01521999999REMSYN03001030 46/// /0814 11138 21152=
0039010300999992015012914004+69283+018133FM-12+098299999V0200801N013019999999N999999999-01381-01521999999REMSYN03001030 46/// /0813 11138 21152=
0039010300999992015012915004+69283+018133FM-12+098299999V0200801N015019999999N999999999-01381-01521999999REMSYN03001030 46/// /0815 11138 21152=
0039010300999992015012916004+69283+018133FM-12+098299999V0200801N012019999999N999999999-01391-01531999999REMSYN03001030 46/// /0812 11139 21153=
0039010300999992015012917004+69283+018133FM-12+098299999V0200701N009019999999N999999999-01401-01541999999REMSYN03001030 46/// /0709 11140 21154=
0055010300999992015012918004+69283+018133FM-12+098299999V020999999999999999999999999999+99999+99999999999REMSYN04601030 46/// /0711 11141 21155 333 11126 91133=
0039010300999992015012919004+69283+018133FM-12+098299999V0200701N012019999999N999999999-01431-01571999999REMSYN03001030 46/// /0712 11143 21157=
0039010300999992015012920004+69283+018133FM-12+098299999V0200501N008019999999N999999999-01421-01561999999REMSYN03001030 46/// /0508 11142 21156=
0039010300999992015012921004+69283+018133FM-12+098299999V0200601N008019999999N999999999-01431-01571999999REMSYN03001030 46/// /0608 11143 21157=
0039010300999992015012922004+69283+018133FM-12+098299999V0203201N004019999999N999999999-01451-01591999999REMSYN03001030 46/// /3204 11145 21159=
0039010300999992015012923004+69283+018133FM-12+098299999V0200701N010019999999N999999999-01461-01601999999REMSYN03001030 46/// /0710 11146 21160=
0049010300999992015013000004+69283+018133FM-12+098299999V020999999999999999999999999999+99999+99999999999REMSYN04001030 46/// /2803 11147 21161 333 91129=
0039010300999992015013001004+69283+018133FM-12+098299999V0200701N009019999999N999999999-01491-01641999999REMSYN03001030 46/// /0709 11149 21164=
0039010300999992015013002004+69283+018133FM-12+098299999V0200801N014019999999N999999999-01491-01641999999REMSYN03001030 46/// /0814 11149 21164=
0039010300999992015013003004+69283+018133FM-12+098299999V0200801N013019999999N999999999-01501-01651999999REMSYN03001030 46/// /0813 11150 21165=
0039010300999992015013004004+69283+018133FM-12+098299999V0200801N018019999999N999999999-01551-01701999999REMSYN03001030 46/// /0818 11155 21170=
0039010300999992015013005004+69283+018133FM-12+098299999V0200901N012019999999N999999999-01531-01681999999REMSYN03001030 46/// /0912 11153 21168=
0055010300999992015013006004+69283+018133FM-12+098299999V020999999999999999999999999999+99999+99999999999REMSYN04601030 46/// /0810 11152 21167 333 21155 91131=
0039010300999992015013007004+69283+018133FM-12+098299999V0202401N007019999999N999999999-01521-01671999999REMSYN03001030 46/// /2407 11152 21167=
0039010300999992015013008004+69283+018133FM-12+098299999V0202101N005019999999N999999999-01521-01671999999REMSYN03001030 46/// /2105 11152 21167=
0039010300999992015013012004+69283+018133FM-12+098299999V0202201N005019999999N999999999-01431-01571999999REMSYN03001030 46/// /2205 11143 21157=
0039010300999992015013013004+69283+018133FM-12+098299999V0201501N006019999999N999999999-01461-01601999999REMSYN03001030 46/// /1506 11146 21160=
0039010300999992015013014004+69283+018133FM-12+098299999V0201601N005019999999N999999999-01421-01561999999REMSYN03001030 46/// /1605 11142 21156=
0039010300999992015013015004+69283+018133FM-12+098299999V0201601N007019999999N999999999-01421-01561999999REMSYN03001030 46/// /1607 11142 21156=
0039010300999992015013016004+69283+018133FM-12+098299999V0201601N008019999999N999999999-01431-01571999999REMSYN03001030 46/// /1608 11143 21157=
0039010300999992015013017004+69283+018133FM-12+098299999V0201501N007019999999N999999999-01391-01531999999REMSYN03001030 46/// /1507 11139 21153=
0049010300999992015013018004+69283+018133FM-12+098299999V020999999999999999999999999999+99999+99999999999REMSYN04001030 46/// /1708 11137 21151 333 91124=
0039010300999992015013019004+69283+018133FM-12+098299999V0201401N007019999999N999999999-01351-01481999999REMSYN03001030 46/// /1407 11135 21148=
0039010300999992015013020004+69283+018133FM-12+098299999V0201401N008019999999N999999999-01381-01521999999REMSYN03001030 46/// /1408 11138 21152=
0039010300999992015013021004+69283+018133FM-12+098299999V0201801N007019999999N999999999-01351-01491999999REMSYN03001030 46/// /1807 11135 21149=
0039010300999992015013022004+69283+018133FM-12+098299999V0201401N005019999999N999999999-01331-01461999999REMSYN03001030 46/// /1405 11133 21146=
0039010300999992015013023004+69283+018133FM-12+098299999V0201701N006019999999N999999999-01401-01541999999REMSYN03001030 46/// /1706 11140 21154=
0049010300999992015013100004+69283+018133FM-12+098299999V020999999999999999999999999999+99999+99999999999REMSYN04001030 46/// /1406 11139 21153 333 91118=
0039010300999992015013101004+69283+018133FM-12+098299999V0201501N008019999999N999999999-01361-01491999999REMSYN03001030 46/// /1508 11136 21149=
0039010300999992015013102004+69283+018133FM-12+098299999V0201501N007019999999N999999999-01341-01471999999REMSYN03001030 46/// /1507 11134 21147=
0039010300999992015013103004+69283+018133FM-12+098299999V0201401N007019999999N999999999-01281-01411999999REMSYN03001030 46/// /1407 11128 21141=
0039010300999992015013104004+69283+018133FM-12+098299999V0201401N005019999999N999999999-01301-01431999999REMSYN03001030 46/// /1405 11130 21143=
0039010300999992015013105004+69283+018133FM-12+098299999V0201401N007019999999N999999999-01271-01401999999REMSYN03001030 46/// /1407 11127 21140=
0055010300999992015013106004+69283+018133FM-12+098299999V020999999999999999999999999999+99999+99999999999REMSYN04601030 46/// /1407 11129 21142 333 21140 91119=
0039010300999992015013107004+69283+018133FM-12+098299999V0201501N006019999999N999999999-01281-01411999999REMSYN03001030 46/// /1506 11128 21141=
0039010300999992015013108004+69283+018133FM-12+098299999V0201401N007019999999N999999999-01251-01381999999REMSYN03001030 46/// /1407 11125 21138=
0039010300999992015013109004+69283+018133FM-12+098299999V0201501N006019999999N999999999-01241-01371999999REMSYN03001030 46/// /1506 11124 21137=
0039010300999992015013110004+69283+018133FM-12+098299999V0201501N007019999999N999999999-01201-01321999999REMSYN03001030 46/// /1507 11120 21132=
0039010300999992015013111004+69283+018133FM-12+098299999V0201501N006019999999N999999999-01151-01271999999REMSYN03001030 46/// /1506 11115 21127=
0049010300999992015013112004+69283+018133FM-12+098299999V020999999999999999999999999999+99999+99999999999REMSYN04001030 46/// /1406 11115 21127 333 91114=
0039010300999992015013113004+69283+018133FM-12+098299999V0201401N007019999999N999999999-01161-01281999999REMSYN03001030 46/// /1407 11116 21128=
0039010300999992015013114004+69283+018133FM-12+098299999V0201501N006019999999N999999999-01191-01311999999REMSYN03001030 46/// /1506 11119 21131=
0039010300999992015013115004+69283+018133FM-12+098299999V0201501N006019999999N999999999-01181-01301999999REMSYN03001030 46/// /1506 11118 21130=
0039010300999992015013116004+69283+018133FM-12+098299999V0201701N007019999999N999999999-01221-01341999999REMSYN03001030 46/// /1707 11122 21134=
0039010300999992015013117004+69283+018133FM-12+098299999V0201601N006019999999N999999999-01221-01341999999REMSYN03001030 46/// /1606 11122 21134=
0055010300999992015013118004+69283+018133FM-12+098299999V020999999999999999999999999999+99999+99999999999REMSYN04601030 46/// /1707 11123 21135 333 11113 91117=
0039010300999992015013119004+69283+018133FM-12+098299999V0202001N006019999999N999999999-01221-01341999999REMSYN03001030 46/// /2006 11122 21134=
0039010300999992015013120004+69283+018133FM-12+098299999V0201901N006019999999N999999999-01211-01331999999REMSYN03001030 46/// /1906 11121 21133=
0039010300999992015013121004+69283+018133FM-12+098299999V0201701N006019999999N999999999-01201-01321999999REMSYN03001030 46/// /1706 11120 21132=
0039010300999992015013122004+69283+018133FM-12+098299999V0201801N005019999999N999999999-01181-01301999999REMSYN03001030 46/// /1805 11118 21130=
0039010300999992015013123004+69283+018133FM-12+098299999V0201701N006019999999N999999999-01151-01271999999REMSYN03001030 46/// /1706 11115 21127=
0049010300999992015020100004+69283+018133FM-12+098299999V020999999999999999999999999999+99999+99999999999REMSYN04001030 46/// /1808 11117 21129 333 91121=
0039010300999992015020101004+69283+018133FM-12+098299999V0201701N008019999999N999999999-01231-01351999999REMSYN03001030 46/// /1708 11123 21135=
0039010300999992015020102004+69283+018133FM-12+098299999V0201701N007019999999N999999999-01291-01421999999REMSYN03001030 46/// /1707 11129 21142=
0039010300999992015020103004+69283+018133FM-12+098299999V0201501N006019999999N999999999-01291-01421999999REMSYN03001030 46/// /1506 11129 21142=
0039010300999992015020104004+69283+018133FM-12+098299999V0201201N009019999999N999999999-01321-01451999999REMSYN03001030 46/// /1209 11132 21145=
0039010300999992015020105004+69283+018133FM-12+098299999V0201701N007019999999N999999999-01361-01501999999REMSYN03001030 46/// /1707 11136 21150=
0055010300999992015020106004+69283+018133FM-12+098299999V020999999999999999999999999999+99999+99999999999REMSYN04601030 46/// /1510 11139 21153 333 21140 91123=
0039010300999992015020107004+69283+018133FM-12+098299999V0201701N009019999999N999999999-01401-01541999999REMSYN03001030 46/// /1709 11140 21154=
0039010300999992015020108004+69283+018133FM-12+098299999V0201701N009019999999N999999999-01431-01571999999REMSYN03001030 46/// /1709 11143 21157=
0039010300999992015020109004+69283+018133FM-12+098299999V0201901N007019999999N999999999-01431-01571999999REMSYN03001030 46/// /1907 11143 21157=
0039010300999992015020110004+69283+018133FM-12+098299999V0201901N008019999999N999999999-01421-01561999999REMSYN03001030 46/// /1908 11142 21156=
0039010300999992015020111004+69283+018133FM-12+098299999V0203501N005019999999N999999999-01431-01571999999REMSYN03001030 46/// /3505 11143 21157=
0049010300999992015020112004+69283+018133FM-12+098299999V020999999999999999999999999999+99999+99999999999REMSYN04001030 46/// /2305 11140 21154 333 91124=
0039010300999992015020113004+69283+018133FM-12+098299999V0200601N007019999999N999999999-01321-01461999999REMSYN03001030 46/// /0607 11132 21146=
0039010300999992015020114004+69283+018133FM-12+098299999V0200701N005019999999N999999999-01341-01481999999REMSYN03001030 46/// /0705 11134 21148=
0039010300999992015020115004+69283+018133FM-12+098299999V0200501N005019999999N999999999-01341-01481999999REMSYN03001030 46/// /0505 11134 21148=
0039010300999992015020116004+69283+018133FM-12+098299999V0203601N003019999999N999999999-01351-01491999999REMSYN03001030 46/// /3603 11135 21149=
0039010300999992015020117004+69283+018133FM-12+098299999V0200801N007019999999N999999999-01341-01481999999REMSYN03001030 46/// /0807 11134 21148=
0055010300999992015020118004+69283+018133FM-12+098299999V020999999999999999999999999999+99999+99999999999REMSYN04601030 46/// /0810 11133 21147 333 11132 91119=
0039010300999992015020119004+69283+018133FM-12+098299999V0200801N009019999999N999999999-01381-01521999999REMSYN03001030 46/// /0809 11138 21152=
0039010300999992015020120004+69283+018133FM-12+098299999V0200801N010019999999N999999999-01381-01521999999REMSYN03001030 46/// /0810 11138 21152=
0039010300999992015020121004+69283+018133FM-12+098299999V0200901N008019999999N999999999-01501-01651999999REMSYN03001030 46/// /0908 11150 21165=
0039010300999992015020122004+69283+018133FM-12+098299999V0202501N003019999999N999999999-01441-01591999999REMSYN03001030 46/// /2503 11144 21159=
0039010300999992015020123004+69283+018133FM-12+098299999V0200801N007019999999N999999999-01481-01631999999REMSYN03001030 46/// /0807 11148 21163=
0049010300999992015020200004+69283+018133FM-12+098299999V020999999999999999999999999999+99999+99999999999REMSYN04001030 46/// /1009 11150 21165 333 91119=
0039010300999992015020201004+69283+018133FM-12+098299999V0201301N006019999999N999999999-01511-01661999999REMSYN03001030 46/// /1306 11151 21166=
0039010300999992015020202004+69283+018133FM-12+098299999V0202901N006019999999N999999999-01561-01721999999REMSYN03001030 46/// /2906 11156 21172=
0039010300999992015020203004+69283+018133FM-12+098299999V0203201N007019999999N999999999-01551-01711999999REMSYN03001030 46/// /3207 11155 21171=
0039010300999992015020204004+69283+018133FM-12+098299999V0202001N005019999999N999999999-01601-01761999999REMSYN03001030 46/// /2005 11160 21176=
0039010300999992015020205004+69283+018133FM-12+098299999V0201501N009019999999N999999999-01721-01891999999REMSYN03001030 46/// /1509 11172 21189=
0055010300999992015020206004+69283+018133FM-12+098299999V020999999999999999999999999999+99999+99999999999REMSYN04601030 46/// /1306 11170 21186 333 21175 91129=
0039010300999992015020207004+69283+018133FM-12+098299999V0202501N004019999999N999999999-01751-01921999999REMSYN03001030 46/// /2504 11175 21192=
0039010300999992015020208004+69283+018133FM-12+098299999V0200801N017019999999N999999999-01641-01801999999REMSYN03001030 46/// /0817 11164 21180=
0039010300999992015020209004+69283+018133FM-12+098299999V0200801N017019999999N999999999-01621-01781999999REMSYN03001030 46/// /0817 11162 21178=
0039010300999992015020210004+69283+018133FM-12+098299999V0201501N009019999999N999999999-01751-01921999999REMSYN03001030 46/// /1509 11175 21192=
0039010300999992015020211004+69283+018133FM-12+098299999V0202401N004019999999N999999999-01611-01771999999REMSYN03001030 46/// /2404 11161 21177=
0049010300999992015020212004+69283+018133FM-12+098299999V020999999999999999999999999999+99999+99999999999REMSYN04001030 46/// /0816 11162 21178 333 91128=
0039010300999992015020213004+69283+018133FM-12+098299999V0200801N015019999999N999999999-01591-01751999999REMSYN03001030 46/// /0815 11159 21175=
0039010300999992015020214004+69283+018133FM-12+098299999V0200801N008019999999N999999999-01571-01731999999REMSYN03001030 46/// /0808 11157 21173=
0039010300999992015020215004+69283+018133FM-12+098299999V0201001N010019999999N999999999-01571-01731999999REMSYN03001030 46/// /1010 11157 21173=
0039010300999992015020216004+69283+018133FM-12+098299999V0203101N008019999999N999999999-01541-01691999999REMSYN03001030 46/// /3108 11154 21169=
0039010300999992015020217004+69283+018133FM-12+098299999V0202901N009019999999N999999999-01561-01711999999REMSYN03001030 46/// /2909 11156 21171=
0055010300999992015020218004+69283+018133FM-12+098299999V020999999999999999999999999999+99999+99999999999REMSYN04601030 46/// /2507 11157 21173 333 11154 91138=
0039010300999992015020219004+69283+018133FM-12+098299999V0201201N013019999999N999999999-01631-01791999999REMSYN03001030 46/// /1213 11163 21179=
0039010300999992015020220004+69283+018133FM-12+098299999V0201001N008019999999N999999999-01671-01831999999REMSYN03001030 46/// /1008 11167 21183=
0039010300999992015020221004+69283+018133FM-12+098299999V0202001N006019999999N999999999-01651-01811999999REMSYN03001030 46/// /2006 11165 21181=
0039010300999992015020222004+69283+018133FM-12+098299999V0201301N009019999999N999999999-01641-01801999999REMSYN03001030 46/// /1309 11164 21180=
0039010300999992015020223004+69283+018133FM-12+098299999V0201501N009019999999N999999999-01651-01811999999REMSYN03001030 46/// /1509 11165 21181=
0049010300999992015020300004+69283+018133FM-12+098299999V020999999999999999999999999999+99999+99999999999REMSYN04001030 46/// /1410 11168 21185 333 91130=
0039010300999992015020301004+69283+018133FM-12+098299999V0201401N011019999999N999999999-01711-01881999999REMSYN03001030 46/// /1411 11171 21188=
0039010300999992015020302004+69283+018133FM-12+098299999V0201801N007019999999N999999999-01701-01871999999REMSYN03001030 46/// /1807 11170 21187=
0039010300999992015020303004+69283+018133FM-12+098299999V0201401N010019999999N999999999-01711-01891999999REMSYN03001030 46/// /1410 11171 21189=
0039010300999992015020304004+69283+018133FM-12+098299999V0201301N011019999999N999999999-01721-01891999999REMSYN03001030 46/// /1311 11172 21189=
0039010300999992015020305004+69283+018133FM-12+098299999V0201401N010019999999N999999999-01751-01921999999REMSYN03001030 46/// /1410 11175 21192=
0055010300999992015020306004+69283+018133FM-12+098299999V020999999999999999999999999999+99999+99999999999REMSYN04601030 46/// /1608 11175 21192 333 21176 91127=
0039010300999992015020307004+69283+018133FM-12+098299999V0201901N006019999999N999999999-01701-01871999999REMSYN03001030 46/// /1906 11170 21187=
0039010300999992015020308004+69283+018133FM-12+098299999V0201701N007019999999N999999999-01681-01851999999REMSYN03001030 46/// /1707 11168 21185=
0039010300999992015020309004+69283+018133FM-12+098299999V0201901N005019999999N999999999-01671-01841999999REMSYN03001030 46/// /1905 11167 21184=
0039010300999992015020310004+69283+018133FM-12+098299999V0201901N007019999999N999999999-01681-01851999999REMSYN03001030 46/// /1907 11168 21185=
0039010300999992015020311004+69283+018133FM-12+098299999V0201501N008019999999N999999999-01731-01901999999REMSYN03001030 46/// /1508 11173 21190=
0049010300999992015020312004+69283+018133FM-12+098299999V020999999999999999999999999999+99999+99999999999REMSYN04001030 46/// /1406 11167 21183 333 91120=
0039010300999992015020313004+69283+018133FM-12+098299999V0201701N004019999999N999999999-01671-01831999999REMSYN03001030 46/// /1704 11167 21183=
0039010300999992015020314004+69283+018133FM-12+098299999V0201401N006019999999N999999999-01651-01811999999REMSYN03001030 46/// /1406 11165 21181=
0039010300999992015020315004+69283+018133FM-12+098299999V0201301N009019999999N999999999-01631-01791999999REMSYN03001030 46/// /1309 11163 21179=
0039010300999992015020316004+69283+018133FM-12+098299999V0201301N006019999999N999999999-01631-01791999999REMSYN03001030 46/// /1306 11163 21179=
0039010300999992015020317004+69283+018133FM-12+098299999V0201401N006019999999N999999999-01671-01831999999REMSYN03001030 46/// /1406 11167 21183=
0055010300999992015020318004+69283+018133FM-12+098299999V020999999999999999999999999999+99999+99999999999REMSYN04601030 46/// /1306 11164 21180 333 11160 91115=
0039010300999992015020319004+69283+018133FM-12+098299999V0201301N007019999999N999999999-01651-01811999999REMSYN03001030 46/// /1307 11165 21181=
0039010300999992015020320004+69283+018133FM-12+098299999V0201301N010019999999N999999999-01651-01811999999REMSYN03001030 46/// /1310 11165 21181=
0039010300999992015020321004+69283+018133FM-12+098299999V0201301N005019999999N999999999-01661-01821999999REMSYN03001030 46/// /1305 11166 21182=
0039010300999992015020322004+69283+018133FM-12+098299999V0201401N005019999999N999999999-01621-01781999999REMSYN03001030 46/// /1405 11162 21178=
0039010300999992015020323004+69283+018133FM-12+098299999V0201301N005019999999N999999999-01581-01741999999REMSYN03001030 46/// /1305 11158 21174=
0049010300999992015020400004+69283+018133FM-12+098299999V020999999999999999999999999999+99999+99999999999REMSYN04001030 46/// /1405 11160 21176 333 91116=
0039010300999992015020401004+69283+018133FM-12+098299999V0201801N004019999999N999999999-01561-01711999999REMSYN03001030 46/// /1804 11156 21171=
0039010300999992015020402004+69283+018133FM-12+098299999V0201501N005019999999N999999999-01551-01701999999REMSYN03001030 46/// /1505 11155 21170=
0039010300999992015020403004+69283+018133FM-12+098299999V0201601N005019999999N999999999-01591-01751999999REMSYN03001030 46/// /1605 11159 21175=
0039010300999992015020404004+69283+018133FM-12+098299999V0201601N006019999999N999999999-01601-01761999999REMSYN03001030 46/// /1606 11160 21176=
0039010300999992015020405004+69283+018133FM-12+098299999V0201501N006019999999N999999999-01551-01701999999REMSYN03001030 46/// /1506 11155 21170=
0055010300999992015020406004+69283+018133FM-12+098299999V020999999999999999999999999999+99999+99999999999REMSYN04601030 46/// /1707 11148 21163 333 21168 91109=
0039010300999992015020407004+69283+018133FM-12+098299999V0201801N005019999999N999999999-01511-01661999999REMSYN03001030 46/// /1805 11151 21166=
0039010300999992015020408004+69283+018133FM-12+098299999V0201701N007019999999N999999999-01461-01611999999REMSYN03001030 46/// /1707 11146 21161=
0039010300999992015020409004+69283+018133FM-12+098299999V0201601N008019999999N999999999-01431-01581999999REMSYN03001030 46/// /1608 11143 21158=
0039010300999992015020410004+69283+018133FM-12+098299999V0201701N010019999999N999999999-01311-01451999999REMSYN03001030 46/// /1710 11131 21145=
0039010300999992015020411004+69283+018133FM-12+098299999V0201901N009019999999N999999999-01351-01501999999REMSYN03001030 46/// /1909 11135 21150=
0049010300999992015020412004+69283+018133FM-12+098299999V020999999999999999999999999999+99999+99999999999REMSYN04001030 46/// /2208 11124 21139 333 91112=
0039010300999992015020413004+69283+018133FM-12+098299999V0202301N009019999999N999999999-01181-01321999999REMSYN03001030 46/// /2309 11118 21132=
0039010300999992015020414004+69283+018133FM-12+098299999V0202401N008019999999N999999999-01181-01301999999REMSYN03001030 46/// /2408 11118 21130=
0039010300999992015020415004+69283+018133FM-12+098299999V0202501N008019999999N999999999-01091-01201999999REMSYN03001030 46/// /2508 11109 21120=
0039010300999992015020416004+69283+018133FM-12+098299999V0202201N008019999999N999999999-01021-01131999999REMSYN03001030 46/// /2208 11102 21113=
0039010300999992015020417004+69283+018133FM-12+098299999V0202201N008019999999N999999999-00991-01111999999REMSYN03001030 46/// /2208 11099 21111=
0055010300999992015020418004+69283+018133FM-12+098299999V020999999999999999999999999999+99999+99999999999REMSYN04601030 46/// /2008 11098 21110 333 11097 91112=
0039010300999992015020419004+69283+018133FM-12+098299999V0202001N007019999999N999999999-01051-01181999999REMSYN03001030 46/// /2007 11105 21118=
0039010300999992015020420004+69283+018133FM-12+098299999V0201901N008019999999N999999999-01041-01171999999REMSYN03001030 46/// /1908 11104 21117=
0039010300999992015020421004+69283+018133FM-12+098299999V0201901N010019999999N999999999-01101-01241999999REMSYN03001030 46/// /1910 11110 21124=
0039010300999992015020422004+69283+018133FM-12+098299999V0201901N010019999999N999999999-01101-01251999999REMSYN03001030 46/// /1910 11110 21125=
0039010300999992015020423004+69283+018133FM-12+098299999V0202001N011019999999N999999999-01091-01261999999REMSYN03001030 46/// /2011 11109 21126=
0049010300999992015020500004+69283+018133FM-12+098299999V020999999999999999999999999999+99999+99999999999REMSYN04001030 46/// /2112 11109 21126 333 91116=
0039010300999992015020501004+69283+018133FM-12+098299999V0202101N012019999999N999999999-01081-01261999999REMSYN03001030 46/// /2112 11108 21126=
0039010300999992015020502004+69283+018133FM-12+098299999V0201901N010019999999N999999999-01121-01301999999REMSYN03001030 46/// /1910 11112 21130=
0039010300999992015020503004+69283+018133FM-12+098299999V0202301N014019999999N999999999-01021-01141999999REMSYN03001030 46/// /2314 11102 21114=
0039010300999992015020504004+69283+018133FM-12+098299999V0202201N015019999999N999999999-00831-00911999999REMSYN03001030 46/// /2215 11083 21091=
0039010300999992015020505004+69283+018133FM-12+098299999V0202301N015019999999N999999999-00801-00881999999REMSYN03001030 46/// /2315 11080 21088=
0055010300999992015020506004+69283+018133FM-12+098299999V020999999999999999999999999999+99999+99999999999REMSYN04601030 46/// /2315 11072 21079 333 21113 91121=
0039010300999992015020507004+69283+018133FM-12+098299999V0202501N019019999999N999999999-00681-00751999999REMSYN03001030 46/// /2519 11068 21075=
0039010300999992015020508004+69283+018133FM-12+098299999V0202501N020019999999N999999999-00581-00641999999REMSYN03001030 46/// /2520 11058 21064=
0039010300999992015020509004+69283+018133FM-12+098299999V0202401N019019999999N999999999-00511-00561999999REMSYN03001030 46/// /2419 11051 21056=
0039010300999992015020510004+69283+018133FM-12+098299999V0202501N024019999999N999999999-00461-00511999999REMSYN03001030 46/// /2524 11046 21051=
0039010300999992015020511004+69283+018133FM-12+098299999V0202601N021019999999N999999999-00421-00461999999REMSYN03001030 46/// /2621 11042 21046=
0039010300999992015020512004+69283+018133FM-12+098299999V0209999C999999999999N999999999-00431-00471999999REMSYN03001030 46/// ///// 11043 21047=
0039010300999992015020513004+69283+018133FM-12+098299999V0202801N016019999999N999999999-00421-00461999999REMSYN03001030 46/// /2816 11042 21046=
0039010300999992015020514004+69283+018133FM-12+098299999V0202901N013019999999N999999999-00421-00461999999REMSYN03001030 46/// /2913 11042 21046=
0039010300999992015020515004+69283+018133FM-12+098299999V0203001N011019999999N999999999-00441-00481999999REMSYN03001030 46/// /3011 11044 21048=
0039010300999992015020516004+69283+018133FM-12+098299999V0202901N008019999999N999999999-00471-00521999999REMSYN03001030 46/// /2908 11047 21052=
0039010300999992015020517004+69283+018133FM-12+098299999V0202501N010019999999N999999999-00481-00531999999REMSYN03001030 46/// /2510 11048 21053=
0055010300999992015020518004+69283+018133FM-12+098299999V020999999999999999999999999999+99999+99999999999REMSYN04601030 46/// /2518 11045 21049 333 11041 91124=
0039010300999992015020519004+69283+018133FM-12+098299999V0202801N019019999999N999999999-00451-00501999999REMSYN03001030 46/// /2819 11045 21050=
