0039010303999992015010810004+69700+019017FM-12+001499999V0201501N008019999999N999999999-00501-00551999999REMSYN03001030 46/// /1508 11050 21055=
