0140008415999992016010100534+07300+134200FM-15+000099999V0200601N007719999999N999999999+02691+02301101461ADDMA1101461999999OC100981REMMET105MOBOB2 METAR XM21 //000 073342 010053Z AUTO 06015G19KT 27/23 A2996 RMK A02 SLP146 T02690230 PA-36 DA1704=
0140008415999992016010101534+07300+134200FM-15+000099999V0200601N006219999999N999999999+02771+02251101391ADDMA1101391999999OC100821REMMET105MOBOB2 METAR XM21 //000 073342 010153Z AUTO 06012G16KT 28/23 A2994 RMK A02 SLP139 T02770225 PA-17 DA1807=
0140008415999992016010102534+07300+134200FM-15+000099999V0200701N005719999999N999999999+02861+02191101331ADDMA1101321999999OC100771REMMET105MOBOB2 METAR XM21 //000 073342 010253Z AUTO 07011G15KT 29/22 A2992 RMK A02 SLP133 T02860219 PA001 DA1918=
0140008415999992016010103534+07300+134200FM-15+000099999V0200701N005719999999N999999999+02881+02361101261ADDMA1101251999999OC100881REMMET105MOBOB2 METAR XM21 //000 073342 010353Z AUTO 07011G17KT 29/24 A2990 RMK A02 SLP126 T02880236 PA020 DA1999=
0140008415999992016010104534+07300+134200FM-15+000099999V0200901N006719999999N999999999+02861+02301101191ADDMA1101181999999OC100821REMMET105MOBOB2 METAR XM21 //000 073342 010453Z AUTO 09013G16KT 29/23 A2988 RMK A02 SLP119 T02860230 PA038 DA1986=
0140008415999992016010105534+07300+134200FM-15+000099999V0200701N007219999999N999999999+02881+02201101121ADDMA1101121999999OC100881REMMET105MOBOB2 METAR XM21 //000 073342 010553Z AUTO 07014G17KT 29/22 A2986 RMK A02 SLP112 T02880220 PA057 DA2009=
0140008415999992016010106534+07300+134200FM-15+000099999V0200701N006219999999N999999999+02871+02281101121ADDMA1101121999999OC100821REMMET105MOBOB2 METAR XM21 //000 073342 010653Z AUTO 07012G16KT 29/23 A2986 RMK A02 SLP112 T02870228 PA057 DA2016=
0140008415999992016010107534+07300+134200FM-15+000099999V0200601N008219999999N999999999+02821+02291101161ADDMA1101151999999OC101031REMMET105MOBOB2 METAR XM21 //000 073342 010753Z AUTO 06016G20KT 28/23 A2987 RMK A02 SLP116 T02820229 PA047 DA1951=
0140008415999992016010108534+07300+134200FM-15+000099999V0200701N006719999999N999999999+02811+02321101221ADDMA1101221999999OC100931REMMET105MOBOB2 METAR XM21 //000 073342 010853Z AUTO 07013G18KT 28/23 A2989 RMK A02 SLP122 T02810232 PA029 DA1923=
0140008415999992016010109534+07300+134200FM-15+000099999V0200601N008219999999N999999999+02781+02341101291ADDMA1101291999999OC100981REMMET105MOBOB2 METAR XM21 //000 073342 010953Z AUTO 06016G19KT 28/23 A2991 RMK A02 SLP129 T02780234 PA010 DA1871=
0140008415999992016010110534+07300+134200FM-15+000099999V0200601N007719999999N999999999+02771+02311101331ADDMA1101321999999OC101031REMMET105MOBOB2 METAR XM21 //000 073342 011053Z AUTO 06015G20KT 28/23 A2992 RMK A02 SLP133 T02770231 PA001 DA1843=
0140008415999992016010111534+07300+134200FM-15+000099999V0200601N006719999999N999999999+02781+02391101391ADDMA1101391999999OC100821REMMET105MOBOB2 METAR XM21 //000 073342 011153Z AUTO 06013G16KT 28/24 A2994 RMK A02 SLP139 T02780239 PA-17 DA1847=
0140008415999992016010112534+07300+134200FM-15+000099999V0200801N008219999999N999999999+02801+02231101361ADDMA1101351999999OC101081REMMET105MOBOB2 METAR XM21 //000 073342 011253Z AUTO 08016G21KT 28/22 A2993 RMK A02 SLP136 T02800223 PA-08 DA1847=
0140008415999992016010113534+07300+134200FM-15+000099999V0200601N006219999999N999999999+02771+02301101361ADDMA1101351999999OC100931REMMET105MOBOB2 METAR XM21 //000 073342 011353Z AUTO 06012G18KT 28/23 A2993 RMK A02 SLP136 T02770230 PA-08 DA1829=
0140008415999992016010114534+07300+134200FM-15+000099999V0200601N007719999999N999999999+02771+02371101331ADDMA1101321999999OC101031REMMET105MOBOB2 METAR XM21 //000 073342 011453Z AUTO 06015G20KT 28/24 A2992 RMK A02 SLP133 T02770237 PA001 DA1856=
0140008415999992016010115534+07300+134200FM-15+000099999V0200501N008819999999N999999999+02761+02301101291ADDMA1101291999999OC101031REMMET105MOBOB2 METAR XM21 //000 073342 011553Z AUTO 05017G20KT 28/23 A2991 RMK A02 SLP129 T02760230 PA010 DA1841=
0140008415999992016010116534+07300+134200FM-15+000099999V0200601N008219999999N999999999+02761+02301101221ADDMA1101221999999OC101031REMMET105MOBOB2 METAR XM21 //000 073342 011653Z AUTO 06016G20KT 28/23 A2989 RMK A02 SLP122 T02760230 PA029 DA1862=
0140008415999992016010117534+07300+134200FM-15+000099999V0200601N007719999999N999999999+02761+02341101191ADDMA1101181999999OC100931REMMET105MOBOB2 METAR XM21 //000 073342 011753Z AUTO 06015G18KT 28/23 A2988 RMK A02 SLP119 T02760234 PA038 DA1882=
0140008415999992016010118534+07300+134200FM-15+000099999V0200601N007219999999N999999999+02751+02261101191ADDMA1101181999999OC100981REMMET105MOBOB2 METAR XM21 //000 073342 011853Z AUTO 06014G19KT 28/23 A2988 RMK A02 SLP119 T02750226 PA038 DA1856=
0167008415999992016010119534+07300+134200FM-15+000099999V0200601N009319999999N999999999+02701+02311101221ADDAA101000021AW1611MA1101221999999OC101181REMMET115MOBOB2 METAR XM21 //000 073342 011953Z AUTO 06018G23KT -RA 27/23 A2989 RMK A02 SLP122 P0000 T02700231 PA029 DA1797=
0140008415999992016010120534+07300+134200FM-15+000099999V0200501N008819999999N999999999+02751+02301101291ADDMA1101291999999OC101081REMMET105MOBOB2 METAR XM21 //000 073342 012053Z AUTO 05017G21KT 28/23 A2991 RMK A02 SLP129 T02750230 PA010 DA1828=
0140008415999992016010121534+07300+134200FM-15+000099999V0200601N008819999999N999999999+02751+02221101391ADDMA1101391999999OC101081REMMET105MOBOB2 METAR XM21 //000 073342 012153Z AUTO 06017G21KT 28/22 A2994 RMK A02 SLP139 T02750222 PA-17 DA1778=
0140008415999992016010122534+07300+134200FM-15+000099999V0200601N009319999999N999999999+02761+02291101431ADDMA1101421999999OC101131REMMET105MOBOB2 METAR XM21 //000 073342 012253Z AUTO 06018G22KT 28/23 A2995 RMK A02 SLP143 T02760229 PA-27 DA1792=
0140008415999992016010123534+07300+134200FM-15+000099999V0200601N009319999999N999999999+02771+02251101431ADDMA1101421999999OC101241REMMET105MOBOB2 METAR XM21 //000 073342 012353Z AUTO 06018G24KT 28/23 A2995 RMK A02 SLP143 T02770225 PA-27 DA1795=
0140008415999992016010200534+07300+134200FM-15+000099999V0200601N010319999999N999999999+02831+02221101391ADDMA1101391999999OC101291REMMET105MOBOB2 METAR XM21 //000 073342 020053Z AUTO 06020G25KT 28/22 A2994 RMK A02 SLP139 T02830222 PA-17 DA1867=
0140008415999992016010201534+07300+134200FM-15+000099999V0200601N008819999999N999999999+02861+02241101331ADDMA1101321999999OC101291REMMET105MOBOB2 METAR XM21 //000 073342 020153Z AUTO 06017G25KT 29/22 A2992 RMK A02 SLP133 T02860224 PA001 DA1927=
0140008415999992016010202534+07300+134200FM-15+000099999V0200701N007719999999N999999999+02881+02121101261ADDMA1101251999999OC101031REMMET105MOBOB2 METAR XM21 //000 073342 020253Z AUTO 07015G20KT 29/21 A2990 RMK A02 SLP126 T02880212 PA020 DA1949=
0140008415999992016010203534+07300+134200FM-15+000099999V0200601N006719999999N999999999+02881+02191101161ADDMA1101151999999OC100931REMMET105MOBOB2 METAR XM21 //000 073342 020353Z AUTO 06013G18KT 29/22 A2987 RMK A02 SLP116 T02880219 PA047 DA1997=
0140008415999992016010204534+07300+134200FM-15+000099999V0200701N006719999999N999999999+02891+02181101091ADDMA1101081999999OC100981REMMET105MOBOB2 METAR XM21 //000 073342 020453Z AUTO 07013G19KT 29/22 A2985 RMK A02 SLP109 T02890218 PA066 DA2028=
0140008415999992016010205534+07300+134200FM-15+000099999V0200601N007219999999N999999999+02881+02231101021ADDMA1101021999999OC101031REMMET105MOBOB2 METAR XM21 //000 073342 020553Z AUTO 06014G20KT 29/22 A2983 RMK A02 SLP102 T02880223 PA084 DA2050=
0140008415999992016010206534+07300+134200FM-15+000099999V0200601N007719999999N999999999+02871+02221101061ADDMA1101051999999OC100981REMMET105MOBOB2 METAR XM21 //000 073342 020653Z AUTO 06015G19KT 29/22 A2984 RMK A02 SLP106 T02870222 PA075 DA2026=
0140008415999992016010207534+07300+134200FM-15+000099999V0200601N007719999999N999999999+02851+02291101061ADDMA1101051999999OC100981REMMET105MOBOB2 METAR XM21 //000 073342 020753Z AUTO 06015G19KT 29/23 A2984 RMK A02 SLP106 T02850229 PA075 DA2018=
0140008415999992016010208534+07300+134200FM-15+000099999V0200501N009319999999N999999999+02821+02271101121ADDMA1101121999999OC101181REMMET105MOBOB2 METAR XM21 //000 073342 020853Z AUTO 05018G23KT 28/23 A2986 RMK A02 SLP112 T02820227 PA057 DA1957=
0140008415999992016010209534+07300+134200FM-15+000099999V0200501N008219999999N999999999+02801+02301101161ADDMA1101151999999OC101081REMMET105MOBOB2 METAR XM21 //000 073342 020953Z AUTO 05016G21KT 28/23 A2987 RMK A02 SLP116 T02800230 PA047 DA1930=
0140008415999992016010210534+07300+134200FM-15+000099999V0200501N007719999999N999999999+02771+02371101221ADDMA1101221999999OC100981REMMET105MOBOB2 METAR XM21 //000 073342 021053Z AUTO 05015G19KT 28/24 A2989 RMK A02 SLP122 T02770237 PA029 DA1889=
0140008415999992016010211534+07300+134200FM-15+000099999V0200601N008219999999N999999999+02751+02311101291ADDMA1101291999999OC101031REMMET105MOBOB2 METAR XM21 //000 073342 021153Z AUTO 06016G20KT 28/23 A2991 RMK A02 SLP129 T02750231 PA010 DA1830=
0140008415999992016010212534+07300+134200FM-15+000099999V0200501N008219999999N999999999+02731+02301101291ADDMA1101291999999OC100981REMMET105MOBOB2 METAR XM21 //000 073342 021253Z AUTO 05016G19KT 27/23 A2991 RMK A02 SLP129 T02730230 PA010 DA1805=
0140008415999992016010213534+07300+134200FM-15+000099999V0200601N007219999999N999999999+02721+02291101261ADDMA1101251999999OC100881REMMET105MOBOB2 METAR XM21 //000 073342 021353Z AUTO 06014G17KT 27/23 A2990 RMK A02 SLP126 T02720229 PA020 DA1805=
0140008415999992016010214534+07300+134200FM-15+000099999V0200501N006719999999N999999999+02731+02331101261ADDMA1101251999999OC100821REMMET105MOBOB2 METAR XM21 //000 073342 021453Z AUTO 05013G16KT 27/23 A2990 RMK A02 SLP126 T02730233 PA020 DA1825=
0140008415999992016010215534+07300+134200FM-15+000099999V0200601N005719999999N999999999+02731+02351101191ADDMA1101181999999OC100671REMMET105MOBOB2 METAR XM21 //000 073342 021553Z AUTO 06011G13KT 27/24 A2988 RMK A02 SLP119 T02730235 PA038 DA1852=
0140008415999992016010216534+07300+134200FM-15+000099999V0200701N006719999999N999999999+02731+02371101161ADDMA1101151999999OC100821REMMET105MOBOB2 METAR XM21 //000 073342 021653Z AUTO 07013G16KT 27/24 A2987 RMK A02 SLP116 T02730237 PA047 DA1868=
0140008415999992016010217534+07300+134200FM-15+000099999V0200701N005719999999N999999999+02721+02281101091ADDMA1101081999999OC100821REMMET105MOBOB2 METAR XM21 //000 073342 021753Z AUTO 07011G16KT 27/23 A2985 RMK A02 SLP109 T02720228 PA066 DA1859=
0140008415999992016010218534+07300+134200FM-15+000099999V0200601N006719999999N999999999+02721+02281101091ADDMA1101081999999OC100881REMMET105MOBOB2 METAR XM21 //000 073342 021853Z AUTO 06013G17KT 27/23 A2985 RMK A02 SLP109 T02720228 PA066 DA1859=
0140008415999992016010219534+07300+134200FM-15+000099999V0200701N005719999999N999999999+02731+02321101121ADDMA1101121999999OC100771REMMET105MOBOB2 METAR XM21 //000 073342 021953Z AUTO 07011G15KT 27/23 A2986 RMK A02 SLP112 T02730232 PA057 DA1868=
0167008415999992016010220534+07300+134200FM-15+000099999V0200601N006719999999N999999999+02691+02231101191ADDAA101000021AW1611MA1101181999999OC100931REMMET115MOBOB2 METAR XM21 //000 073342 022053Z AUTO 06013G18KT -RA 27/22 A2988 RMK A02 SLP119 P0000 T02690223 PA038 DA1781=
0140008415999992016010221534+07300+134200FM-15+000099999V0200601N009819999999N999999999+02651+02161101261ADDMA1101251999999OC101391REMMET105MOBOB2 METAR XM21 //000 073342 022153Z AUTO 06019G27KT 27/22 A2990 RMK A02 SLP126 T02650216 PA020 DA1700=
0140008415999992016010222534+07300+134200FM-15+000099999V0200701N006219999999N999999999+02721+02271101361ADDMA1101351999999OC100821REMMET105MOBOB2 METAR XM21 //000 073342 022253Z AUTO 07012G16KT 27/23 A2993 RMK A02 SLP136 T02720227 PA-08 DA1765=
0140008415999992016010223534+07300+134200FM-15+000099999V0200601N008219999999N999999999+02751+02301101391ADDMA1101391999999OC101031REMMET105MOBOB2 METAR XM21 //000 073342 022353Z AUTO 06016G20KT 28/23 A2994 RMK A02 SLP139 T02750230 PA-17 DA1795=
0140008415999992016010300534+07300+134200FM-15+000099999V0200501N008219999999N999999999+02801+02331101361ADDMA1101351999999OC101031REMMET105MOBOB2 METAR XM21 //000 073342 030053Z AUTO 05016G20KT 28/23 A2993 RMK A02 SLP136 T02800233 PA-08 DA1868=
0140008415999992016010301534+07300+134200FM-15+000099999V0200501N008219999999N999999999+02851+02291101331ADDMA1101321999999OC101031REMMET105MOBOB2 METAR XM21 //000 073342 030153Z AUTO 05016G20KT 29/23 A2992 RMK A02 SLP133 T02850229 PA001 DA1927=
0140008415999992016010302534+07300+134200FM-15+000099999V0200601N008219999999N999999999+02891+02191101261ADDMA1101251999999OC100981REMMET105MOBOB2 METAR XM21 //000 073342 030253Z AUTO 06016G19KT 29/22 A2990 RMK A02 SLP126 T02890219 PA020 DA1974=
0167008415999992016010303534+07300+134200FM-15+000099999V0200601N006219999999N999999999+02751+02291101191ADDAA101000021AW1611MA1101181999999OC101031REMMET115MOBOB2 METAR XM21 //000 073342 030353Z AUTO 06012G20KT -RA 28/23 A2988 RMK A02 SLP119 P0000 T02750229 PA038 DA1861=
0140008415999992016010304534+07300+134200FM-15+000099999V0200401N007719999999N999999999+02791+02331101091ADDMA1101081999999OC100931REMMET105MOBOB2 METAR XM21 //000 073342 030453Z AUTO 04015G18KT 28/23 A2985 RMK A02 SLP109 T02790233 PA066 DA1949=
0167008415999992016010305534+07300+134200FM-15+000099999V0200401N006719999999N999999999+02741+02331101061ADDAA101000021AW1611MA1101051999999OC100931REMMET115MOBOB2 METAR XM21 //000 073342 030553Z AUTO 04013G18KT -RA 27/23 A2984 RMK A02 SLP106 P0000 T02740233 PA075 DA1905=
0140008415999992016010306534+07300+134200FM-15+000099999V0200601N005719999999N999999999+02781+02341101091ADDMA1101081999999OC100671REMMET105MOBOB2 METAR XM21 //000 073342 030653Z AUTO 06011G13KT 28/23 A2985 RMK A02 SLP109 T02780234 PA066 DA1941=
0140008415999992016010307534+07300+134200FM-15+000099999V0200701N006219999999N999999999+02781+02241101121ADDMA1101121999999OC100881REMMET105MOBOB2 METAR XM21 //000 073342 030753Z AUTO 07012G17KT 28/22 A2986 RMK A02 SLP112 T02780224 PA057 DA1907=
0140008415999992016010308534+07300+134200FM-15+000099999V0200601N006219999999N999999999+02751+02101101191ADDMA1101181999999OC100821REMMET105MOBOB2 METAR XM21 //000 073342 030853Z AUTO 06012G16KT 28/21 A2988 RMK A02 SLP119 T02750210 PA038 DA1823=
0140008415999992016010309534+07300+134200FM-15+000099999V0200601N007719999999N999999999+02721+02291101291ADDMA1101291999999OC101131REMMET105MOBOB2 METAR XM21 //000 073342 030953Z AUTO 06015G22KT 27/23 A2991 RMK A02 SLP129 T02720229 PA010 DA1794=
0140008415999992016010310534+07300+134200FM-15+000099999V0200701N005119999999N999999999+02681+02181101331ADDMA1101321999999OC100671REMMET105MOBOB2 METAR XM21 //000 073342 031053Z AUTO 07010G13KT 27/22 A2992 RMK A02 SLP133 T02680218 PA001 DA1714=
0140008415999992016010311534+07300+134200FM-15+000099999V0200701N007219999999N999999999+02691+02281101391ADDMA1101391999999OC101081REMMET105MOBOB2 METAR XM21 //000 073342 031153Z AUTO 07014G21KT 27/23 A2994 RMK A02 SLP139 T02690228 PA-17 DA1723=
0140008415999992016010312534+07300+134200FM-15+000099999V0200601N006219999999N999999999+02591+02201101391ADDMA1101391999999OC100821REMMET105MOBOB2 METAR XM21 //000 073342 031253Z AUTO 06012G16KT 26/22 A2994 RMK A02 SLP139 T02590220 PA-17 DA1593=
0140008415999992016010313534+07300+134200FM-15+000099999V0200601N005119999999N999999999+02651+02321101331ADDMA1101321999999OC100671REMMET105MOBOB2 METAR XM21 //000 073342 031353Z AUTO 06010G13KT 27/23 A2992 RMK A02 SLP133 T02650232 PA001 DA1710=
0140008415999992016010314534+07300+134200FM-15+000099999V0200701N004619999999N999999999+02701+02271101331ADDMA1101321999999OC100671REMMET105MOBOB2 METAR XM21 //000 073342 031453Z AUTO 07009G13KT 27/23 A2992 RMK A02 SLP133 T02700227 PA001 DA1754=
0129008415999992016010315534+07300+134200FM-15+000099999V0200601N004619999999N999999999+02731+02281101291ADDMA1101291999999REMMET102MOBOB2 METAR XM21 //000 073342 031553Z AUTO 06009KT 27/23 A2991 RMK A02 SLP129 T02730228 PA010 DA1802=
0140008415999992016010316534+07300+134200FM-15+000099999V0200601N004619999999N999999999+02731+02311101221ADDMA1101221999999OC100621REMMET105MOBOB2 METAR XM21 //000 073342 031653Z AUTO 06009G12KT 27/23 A2989 RMK A02 SLP122 T02730231 PA029 DA1831=
0140008415999992016010317534+07300+134200FM-15+000099999V0200601N005119999999N999999999+02721+02291101161ADDMA1101151999999OC100671REMMET105MOBOB2 METAR XM21 //000 073342 031753Z AUTO 06010G13KT 27/23 A2987 RMK A02 SLP116 T02720229 PA047 DA1839=
0167008415999992016010318534+07300+134200FM-15+000099999V0200701N006219999999N999999999+02671+02261101161ADDAA101000021AW1611MA1101151999999OC100821REMMET115MOBOB2 METAR XM21 //000 073342 031853Z AUTO 07012G16KT -RA 27/23 A2987 RMK A02 SLP116 P0000 T02670226 PA047 DA1777=
0140008415999992016010319534+07300+134200FM-15+000099999V0200601N007719999999N999999999+02631+02291101221ADDMA1101221999999OC100981REMMET105MOBOB2 METAR XM21 //000 073342 031953Z AUTO 06015G19KT 26/23 A2989 RMK A02 SLP122 T02630229 PA029 DA1715=
0140008415999992016010320534+07300+134200FM-15+000099999V0200701N005719999999N999999999+02691+02281101261ADDMA1101251999999OC100671REMMET105MOBOB2 METAR XM21 //000 073342 032053Z AUTO 07011G13KT 27/23 A2990 RMK A02 SLP126 T02690228 PA020 DA1768=
0129008415999992016010321534+07300+134200FM-15+000099999V0200501N004119999999N999999999+02701+02351101331ADDMA1101321999999REMMET102MOBOB2 METAR XM21 //000 073342 032153Z AUTO 05008KT 27/24 A2992 RMK A02 SLP133 T02700235 PA001 DA1773=
0140008415999992016010322534+07300+134200FM-15+000099999V0200501N005719999999N999999999+02691+02341101431ADDMA1101421999999OC100721REMMET105MOBOB2 METAR XM21 //000 073342 032253Z AUTO 05011G14KT 27/23 A2995 RMK A02 SLP143 T02690234 PA-27 DA1725=
0140008415999992016010323534+07300+134200FM-15+000099999V0200501N005719999999N999999999+02761+02291101431ADDMA1101421999999OC100671REMMET105MOBOB2 METAR XM21 //000 073342 032353Z AUTO 05011G13KT 28/23 A2995 RMK A02 SLP143 T02760229 PA-27 DA1792=
0140008415999992016010400534+07300+134200FM-15+000099999V0200501N006219999999N999999999+02801+02331101461ADDMA1101461999999OC100771REMMET105MOBOB2 METAR XM21 //000 073342 040053Z AUTO 05012G15KT 28/23 A2996 RMK A02 SLP146 T02800233 PA-36 DA1835=
0140008415999992016010401534+07300+134200FM-15+000099999V0200601N005119999999N999999999+02861+02251101391ADDMA1101391999999OC100721REMMET105MOBOB2 METAR XM21 //000 073342 040153Z AUTO 06010G14KT 29/23 A2994 RMK A02 SLP139 T02860225 PA-17 DA1908=
0167008415999992016010402534+07300+134200FM-15+000099999V0200601N005119999999N999999999+02861+02211101331ADDAA101000021AW1611MA1101321999999OC100721REMMET115MOBOB2 METAR XM21 //000 073342 040253Z AUTO 06010G14KT -RA 29/22 A2992 RMK A02 SLP133 P0000 T02860221 PA001 DA1921=
0140008415999992016010403534+07300+134200FM-15+000099999V0200501N005119999999N999999999+02881+02191101261ADDMA1101251999999OC100671REMMET105MOBOB2 METAR XM21 //000 073342 040353Z AUTO 05010G13KT 29/22 A2990 RMK A02 SLP126 T02880219 PA020 DA1962=
0140008415999992016010404534+07300+134200FM-15+000099999V0200301N006719999999N999999999+02841+02311101161ADDMA1101151999999OC100881REMMET105MOBOB2 METAR XM21 //000 073342 040453Z AUTO 03013G17KT 28/23 A2987 RMK A02 SLP116 T02840231 PA047 DA1978=
0140008415999992016010405534+07300+134200FM-15+000099999V0200201N007219999999N999999999+02791+02331101161ADDMA1101151999999OC100881REMMET105MOBOB2 METAR XM21 //000 073342 040553Z AUTO 02014G17KT 28/23 A2987 RMK A02 SLP116 T02790233 PA047 DA1926=
0140008415999992016010406534+07300+134200FM-15+000099999V0200201N007219999999N999999999+02801+02391101121ADDMA1101121999999OC100881REMMET105MOBOB2 METAR XM21 //000 073342 040653Z AUTO 02014G17KT 28/24 A2986 RMK A02 SLP112 T02800239 PA057 DA1962=
0140008415999992016010407534+07300+134200FM-15+000099999V0200801N005119999999N999999999+02851+02261101191ADDMA1101181999999OC100721REMMET105MOBOB2 METAR XM21 //000 073342 040753Z AUTO 08010G14KT 29/23 A2988 RMK A02 SLP119 T02850226 PA038 DA1967=
0167008415999992016010408534+07300+134200FM-15+000099999V0200901N007219999999N999999999+02761+02361101221ADDAA101000021AW1611MA1101221999999OC100931REMMET115MOBOB2 METAR XM21 //000 073342 040853Z AUTO 09014G18KT -RA 28/24 A2989 RMK A02 SLP122 P0000 T02760236 PA029 DA1876=
0140008415999992016010409534+07300+134200FM-15+000099999V0200801N006719999999N999999999+02701+02361101291ADDMA1101291999999OC100821REMMET105MOBOB2 METAR XM21 //000 073342 040953Z AUTO 08013G16KT 27/24 A2991 RMK A02 SLP129 T02700236 PA010 DA1786=
0140008415999992016010410534+07300+134200FM-15+000099999V0200601N006219999999N999999999+02691+02341101361ADDMA1101351999999OC100721REMMET105MOBOB2 METAR XM21 //000 073342 041053Z AUTO 06012G14KT 27/23 A2993 RMK A02 SLP136 T02690234 PA-08 DA1747=
0140008415999992016010411534+07300+134200FM-15+000099999V0200601N004619999999N999999999+02721+02301101391ADDMA1101391999999OC100671REMMET105MOBOB2 METAR XM21 //000 073342 041153Z AUTO 06009G13KT 27/23 A2994 RMK A02 SLP139 T02720230 PA-17 DA1761=
0140008415999992016010412534+07300+134200FM-15+000099999V0200601N005719999999N999999999+02731+02281101431ADDMA1101421999999OC100721REMMET105MOBOB2 METAR XM21 //000 073342 041253Z AUTO 06011G14KT 27/23 A2995 RMK A02 SLP143 T02730228 PA-27 DA1757=
0140008415999992016010413534+07300+134200FM-15+000099999V0200501N005719999999N999999999+02741+02341101391ADDMA1101391999999OC100721REMMET105MOBOB2 METAR XM21 //000 073342 041353Z AUTO 05011G14KT 27/23 A2994 RMK A02 SLP139 T02740234 PA-17 DA1792=
0140008415999992016010414534+07300+134200FM-15+000099999V0200601N005719999999N999999999+02731+02361101391ADDMA1101391999999OC100721REMMET105MOBOB2 METAR XM21 //000 073342 041453Z AUTO 06011G14KT 27/24 A2994 RMK A02 SLP139 T02730236 PA-17 DA1786=
0129008415999992016010415534+07300+134200FM-15+000099999V0200501N004119999999N999999999+02721+02351101361ADDMA1101351999999REMMET102MOBOB2 METAR XM21 //000 073342 041553Z AUTO 05008KT 27/24 A2993 RMK A02 SLP136 T02720235 PA-08 DA1784=
0140008415999992016010416534+07300+134200FM-15+000099999V0200501N005119999999N999999999+02731+02391101261ADDMA1101251999999OC100671REMMET105MOBOB2 METAR XM21 //000 073342 041653Z AUTO 05010G13KT 27/24 A2990 RMK A02 SLP126 T02730239 PA020 DA1837=
0156008415999992016010417534+07300+134200FM-15+000099999V0201001N003119999999N999999999+02491+02321101221ADDAA101005031AW1631MA1101221999999REMMET112MOBOB2 METAR XM21 //000 073342 041753Z AUTO 10006KT +RA 25/23 A2989 RMK A02 SLP122 P0020 T02490232 PA029 DA1562=
0167008415999992016010418534+07300+134200FM-15+000099999V0200601N004619999999N999999999+02691+02291101221ADDAA101000021AW1611MA1101221999999OC100721REMMET115MOBOB2 METAR XM21 //000 073342 041853Z AUTO 06009G14KT -RA 27/23 A2989 RMK A02 SLP122 P0000 T02690229 PA029 DA1783=
0140008415999992016010419534+07300+134200FM-15+000099999V0200701N004619999999N999999999+02661+02341101221ADDMA1101221999999OC100621REMMET105MOBOB2 METAR XM21 //000 073342 041953Z AUTO 07009G12KT 27/23 A2989 RMK A02 SLP122 T02660234 PA029 DA1759=
0129008415999992016010420534+07300+134200FM-15+000099999V0200801N004119999999N999999999+02671+02361101291ADDMA1101291999999REMMET102MOBOB2 METAR XM21 //000 073342 042053Z AUTO 08008KT 27/24 A2991 RMK A02 SLP129 T02670236 PA010 DA1753=
0140008415999992016010421534+07300+134200FM-15+000099999V0200701N004619999999N999999999+02651+02341101361ADDMA1101351999999OC100621REMMET105MOBOB2 METAR XM21 //000 073342 042153Z AUTO 07009G12KT 27/23 A2993 RMK A02 SLP136 T02650234 PA-08 DA1702=
0140008415999992016010422534+07300+134200FM-15+000099999V0200801N005119999999N999999999+02681+02301101431ADDMA1101421999999OC100671REMMET105MOBOB2 METAR XM21 //000 073342 042253Z AUTO 08010G13KT 27/23 A2995 RMK A02 SLP143 T02680230 PA-27 DA1705=
0129008415999992016010423534+07300+134200FM-15+000099999V0200801N004119999999N999999999+02751+02271101431ADDMA1101421999999REMMET102MOBOB2 METAR XM21 //000 073342 042353Z AUTO 08008KT 28/23 A2995 RMK A02 SLP143 T02750227 PA-27 DA1777=
0129008415999992016010500534+07300+134200FM-15+000099999V0200701N003619999999N999999999+02801+02261101431ADDMA1101421999999REMMET102MOBOB2 METAR XM21 //000 073342 050053Z AUTO 07007KT 28/23 A2995 RMK A02 SLP143 T02800226 PA-27 DA1830=
0129008415999992016010501534+07300+134200FM-15+000099999V0200801N003619999999N999999999+02831+02231101391ADDMA1101391999999REMMET102MOBOB2 METAR XM21 //000 073342 050153Z AUTO 08007KT 28/22 A2994 RMK A02 SLP139 T02830223 PA-17 DA1869=
0129008415999992016010502534+07300+134200FM-15+000099999V0200901N003619999999N999999999+02871+02181101291ADDMA1101291999999REMMET102MOBOB2 METAR XM21 //000 073342 050253Z AUTO 09007KT 29/22 A2991 RMK A02 SLP129 T02870218 PA010 DA1937=
0129008415999992016010503534+07300+134200FM-15+000099999V0200801N003619999999N999999999+02881+02201101191ADDMA1101181999999REMMET102MOBOB2 METAR XM21 //000 073342 050353Z AUTO 08007KT 29/22 A2988 RMK A02 SLP119 T02880220 PA038 DA1988=
0167008415999992016010504534+07300+134200FM-15+000099999V0200901N005119999999N999999999+02771+02271101121ADDAA101001031AW1611MA1101121999999OC100671REMMET115MOBOB2 METAR XM21 //000 073342 050453Z AUTO 09010G13KT -RA 28/23 A2986 RMK A02 SLP112 P0004 T02770227 PA057 DA1903=
0167008415999992016010505534+07300+134200FM-15+000099999V0200701N005119999999N999999999+02851+02231101091ADDAA101000731AW1611MA1101081999999OC100821REMMET115MOBOB2 METAR XM21 //000 073342 050553Z AUTO 07010G16KT -RA 29/22 A2985 RMK A02 SLP109 P0003 T02850223 PA066 DA1994=
0140008415999992016010506534+07300+134200FM-15+000099999V0200601N005719999999N999999999+02841+02241101091ADDMA1101081999999OC100821REMMET105MOBOB2 METAR XM21 //000 073342 050653Z AUTO 06011G16KT 28/22 A2985 RMK A02 SLP109 T02840224 PA066 DA1986=
0140008415999992016010507534+07300+134200FM-15+000099999V0200701N005719999999N999999999+02841+02231101091ADDMA1101081999999OC100881REMMET105MOBOB2 METAR XM21 //000 073342 050753Z AUTO 07011G17KT 28/22 A2985 RMK A02 SLP109 T02840223 PA066 DA1983=
0140008415999992016010508534+07300+134200FM-15+000099999V0200601N007219999999N999999999+02811+02301101161ADDMA1101151999999OC100881REMMET105MOBOB2 METAR XM21 //000 073342 050853Z AUTO 06014G17KT 28/23 A2987 RMK A02 SLP116 T02810230 PA047 DA1941=
0140008415999992016010509534+07300+134200FM-15+000099999V0200601N007719999999N999999999+02781+02251101221ADDMA1101221999999OC100881REMMET105MOBOB2 METAR XM21 //000 073342 050953Z AUTO 06015G17KT 28/22 A2989 RMK A02 SLP122 T02780225 PA029 DA1874=
0140008415999992016010510534+07300+134200FM-15+000099999V0200601N006219999999N999999999+02761+02301101331ADDMA1101321999999OC100881REMMET105MOBOB2 METAR XM21 //000 073342 051053Z AUTO 06012G17KT 28/23 A2992 RMK A02 SLP133 T02760230 PA001 DA1828=
0140008415999992016010511534+07300+134200FM-15+000099999V0200701N006219999999N999999999+02761+02291101361ADDMA1101351999999OC100881REMMET105MOBOB2 METAR XM21 //000 073342 051153Z AUTO 07012G17KT 28/23 A2993 RMK A02 SLP136 T02760229 PA-08 DA1815=
0140008415999992016010512534+07300+134200FM-15+000099999V0200701N005119999999N999999999+02751+02241101391ADDMA1101391999999OC100671REMMET105MOBOB2 METAR XM21 //000 073342 051253Z AUTO 07010G13KT 28/22 A2994 RMK A02 SLP139 T02750224 PA-17 DA1783=
0140008415999992016010513534+07300+134200FM-15+000099999V0200701N005719999999N999999999+02731+02231101361ADDMA1101351999999OC100771REMMET105MOBOB2 METAR XM21 //000 073342 051353Z AUTO 07011G15KT 27/22 A2993 RMK A02 SLP136 T02730223 PA-08 DA1768=
0140008415999992016010514534+07300+134200FM-15+000099999V0200601N004619999999N999999999+02731+02261101331ADDMA1101321999999OC100621REMMET105MOBOB2 METAR XM21 //000 073342 051453Z AUTO 06009G12KT 27/23 A2992 RMK A02 SLP133 T02730226 PA001 DA1786=
0140008415999992016010515534+07300+134200FM-15+000099999V0200601N005119999999N999999999+02731+02271101261ADDMA1101251999999OC100721REMMET105MOBOB2 METAR XM21 //000 073342 051553Z AUTO 06010G14KT 27/23 A2990 RMK A02 SLP126 T02730227 PA020 DA1812=
0140008415999992016010516534+07300+134200FM-15+000099999V0200601N006219999999N999999999+02731+02311101221ADDMA1101221999999OC100771REMMET105MOBOB2 METAR XM21 //000 073342 051653Z AUTO 06012G15KT 27/23 A2989 RMK A02 SLP122 T02730231 PA029 DA1831=
0140008415999992016010517534+07300+134200FM-15+000099999V0200501N006219999999N999999999+02721+02221101161ADDMA1101151999999OC100771REMMET105MOBOB2 METAR XM21 //000 073342 051753Z AUTO 05012G15KT 27/22 A2987 RMK A02 SLP116 T02720222 PA047 DA1823=
0140008415999992016010519534+07300+134200FM-15+000099999V0200401N005719999999N999999999+02721+02231101191ADDMA1101181999999OC100671REMMET105MOBOB2 METAR XM21 //000 073342 051953Z AUTO 04011G13KT 27/22 A2988 RMK A02 SLP119 T02720223 PA038 DA1814=
0140008415999992016010520534+07300+134200FM-15+000099999V0200501N006719999999N999999999+02721+02231101221ADDMA1101221999999OC100771REMMET105MOBOB2 METAR XM21 //000 073342 052053Z AUTO 05013G15KT 27/22 A2989 RMK A02 SLP122 T02720223 PA029 DA1803=
0140008415999992016010521534+07300+134200FM-15+000099999V0200401N006219999999N999999999+02741+02231101261ADDMA1101251999999OC100771REMMET105MOBOB2 METAR XM21 //000 073342 052153Z AUTO 04012G15KT 27/22 A2990 RMK A02 SLP126 T02740223 PA020 DA1814=
0140008415999992016010522534+07300+134200FM-15+000099999V0200301N006219999999N999999999+02761+02221101331ADDMA1101321999999OC100721REMMET105MOBOB2 METAR XM21 //000 073342 052253Z AUTO 03012G14KT 28/22 A2992 RMK A02 SLP133 T02760222 PA001 DA1813=
0140008415999992016010523534+07300+134200FM-15+000099999V0200401N005719999999N999999999+02761+02201101361ADDMA1101351999999OC100721REMMET105MOBOB2 METAR XM21 //000 073342 052353Z AUTO 04011G14KT 28/22 A2993 RMK A02 SLP136 T02760220 PA-08 DA1797=
0129008415999992016010600534+07300+134200FM-15+000099999V0200301N004619999999N999999999+02781+02241101361ADDMA1101351999999REMMET102MOBOB2 METAR XM21 //000 073342 060053Z AUTO 03009KT 28/22 A2993 RMK A02 SLP136 T02780224 PA-08 DA1827=
0140008415999992016010601534+07300+134200FM-15+000099999V0200201N005119999999N999999999+02781+02241101291ADDMA1101291999999OC100621REMMET105MOBOB2 METAR XM21 //000 073342 060153Z AUTO 02010G12KT 28/22 A2991 RMK A02 SLP129 T02780224 PA010 DA1849=
0140008415999992016010602534+07300+134200FM-15+000099999V0200101N006219999999N999999999+02781+02201101221ADDMA1101221999999OC100721REMMET105MOBOB2 METAR XM21 //000 073342 060253Z AUTO 01012G14KT 28/22 A2989 RMK A02 SLP122 T02780220 PA029 DA1864=
0140008415999992016010603534+07300+134200FM-15+000099999V0203601N005719999999N999999999+02791+02181101121ADDMA1101121999999OC100671REMMET105MOBOB2 METAR XM21 //000 073342 060353Z AUTO 36011G13KT 28/22 A2986 RMK A02 SLP112 T02790218 PA057 DA1905=
0140008415999992016010604534+07300+134200FM-15+000099999V0203601N005719999999N999999999+02791+02301101061ADDMA1101051999999OC100671REMMET105MOBOB2 METAR XM21 //000 073342 060453Z AUTO 36011G13KT 28/23 A2984 RMK A02 SLP106 T02790230 PA075 DA1953=
0140008415999992016010605534+07300+134200FM-15+000099999V0203601N006219999999N999999999+02791+02291101021ADDMA1101021999999OC100721REMMET105MOBOB2 METAR XM21 //000 073342 060553Z AUTO 36012G14KT 28/23 A2983 RMK A02 SLP102 T02790229 PA084 DA1964=
0140008415999992016010606534+07300+134200FM-15+000099999V0203601N006719999999N999999999+02771+02331100991ADDMA1100981999999OC100821REMMET105MOBOB2 METAR XM21 //000 073342 060653Z AUTO 36013G16KT 28/23 A2982 RMK A02 SLP099 T02770233 PA094 DA1960=
0129008415999992016010607534+07300+134200FM-15+000099999V0200101N005119999999N999999999+02771+02241101061ADDMA1101051999999REMMET102MOBOB2 METAR XM21 //000 073342 060753Z AUTO 01010KT 28/22 A2984 RMK A02 SLP106 T02770224 PA075 DA1919=
0129008415999992016010608534+07300+134200FM-15+000099999V0203601N004619999999N999999999+02751+02281101091ADDMA1101081999999REMMET102MOBOB2 METAR XM21 //000 073342 060853Z AUTO 36009KT 28/23 A2985 RMK A02 SLP109 T02750228 PA066 DA1892=
0129008415999992016010609534+07300+134200FM-15+000099999V0203601N004119999999N999999999+02761+02371101121ADDMA1101121999999REMMET102MOBOB2 METAR XM21 //000 073342 060953Z AUTO 36008KT 28/24 A2986 RMK A02 SLP112 T02760237 PA057 DA1914=
0129008415999992016010610534+07300+134200FM-15+000099999V0200201N004619999999N999999999+02751+02301101191ADDMA1101181999999REMMET102MOBOB2 METAR XM21 //000 073342 061053Z AUTO 02009KT 28/23 A2988 RMK A02 SLP119 T02750230 PA038 DA1863=
0129008415999992016010611534+07300+134200FM-15+000099999V0200201N003119999999N999999999+02761+02401101221ADDMA1101221999999REMMET102MOBOB2 METAR XM21 //000 073342 061153Z AUTO 02006KT 28/24 A2989 RMK A02 SLP122 T02760240 PA029 DA1884=
0129008415999992016010612534+07300+134200FM-15+000099999V0200301N004619999999N999999999+02761+02361101191ADDMA1101181999999REMMET102MOBOB2 METAR XM21 //000 073342 061253Z AUTO 03009KT 28/24 A2988 RMK A02 SLP119 T02760236 PA038 DA1887=
0129008415999992016010613534+07300+134200FM-15+000099999V0200201N004119999999N999999999+02741+02361101161ADDMA1101151999999REMMET102MOBOB2 METAR XM21 //000 073342 061353Z AUTO 02008KT 27/24 A2987 RMK A02 SLP116 T02740236 PA047 DA1876=
0129008415999992016010614534+07300+134200FM-15+000099999V0200201N003619999999N999999999+02751+02301101161ADDMA1101151999999REMMET102MOBOB2 METAR XM21 //000 073342 061453Z AUTO 02007KT 28/23 A2987 RMK A02 SLP116 T02750230 PA047 DA1873=
0129008415999992016010615534+07300+134200FM-15+000099999V0200901N003119999999N999999999+02701+02421101121ADDMA1101121999999REMMET102MOBOB2 METAR XM21 //000 073342 061553Z AUTO 09006KT 27/24 A2986 RMK A02 SLP112 T02700242 PA057 DA1858=
0129008415999992016010616534+07300+134200FM-15+000099999V0200701N003119999999N999999999+02711+02361101091ADDMA1101081999999REMMET102MOBOB2 METAR XM21 //000 073342 061653Z AUTO 07006KT 27/24 A2985 RMK A02 SLP109 T02710236 PA066 DA1865=
0129008415999992016010617534+07300+134200FM-15+000099999V0200801N002119999999N999999999+02701+02321101021ADDMA1101021999999REMMET102MOBOB2 METAR XM21 //000 073342 061753Z AUTO 08004KT 27/23 A2983 RMK A02 SLP102 T02700232 PA084 DA1868=
0129008415999992016010618534+07300+134200FM-15+000099999V0200901N001519999999N999999999+02721+02311101061ADDMA1101051999999REMMET102MOBOB2 METAR XM21 //000 073342 061853Z AUTO 09003KT 27/23 A2984 RMK A02 SLP106 T02720231 PA075 DA1878=
0129008415999992016010619534+07300+134200FM-15+000099999V0200801N001519999999N999999999+02701+02311101061ADDMA1101051999999REMMET102MOBOB2 METAR XM21 //000 073342 061953Z AUTO 08003KT 27/23 A2984 RMK A02 SLP106 T02700231 PA075 DA1854=
0129008415999992016010620534+07300+134200FM-15+000099999V0200401N001519999999N999999999+02691+02361101091ADDMA1101081999999REMMET102MOBOB2 METAR XM21 //000 073342 062053Z AUTO 04003KT 27/24 A2985 RMK A02 SLP109 T02690236 PA066 DA1843=
0129008415999992016010621534+07300+134200FM-15+000099999V0200901N002119999999N999999999+02741+02361101221ADDMA1101221999999REMMET102MOBOB2 METAR XM21 //000 073342 062153Z AUTO 09004KT 27/24 A2989 RMK A02 SLP122 T02740236 PA029 DA1853=
0129008415999992016010622534+07300+134200FM-15+000099999V0201201N001019999999N999999999+02791+02341101291ADDMA1101291999999REMMET102MOBOB2 METAR XM21 //000 073342 062253Z AUTO 12002KT 28/23 A2991 RMK A02 SLP129 T02790234 PA010 DA1884=
0129008415999992016010623534+07300+134200FM-15+000099999V0201401N001019999999N999999999+02821+02331101331ADDMA1101321999999REMMET102MOBOB2 METAR XM21 //000 073342 062353Z AUTO 14002KT 28/23 A2992 RMK A02 SLP133 T02820233 PA001 DA1903=
0129008415999992016010700534+07300+134200FM-15+000099999V0201601N001519999999N999999999+02821+02281101261ADDMA1101251999999REMMET102MOBOB2 METAR XM21 //000 073342 070053Z AUTO 16003KT 28/23 A2990 RMK A02 SLP126 T02820228 PA020 DA1914=
0129008415999992016010701534+07300+134200FM-15+000099999V0201901N001519999999N999999999+02871+02321101221ADDMA1101221999999REMMET102MOBOB2 METAR XM21 //000 073342 070153Z AUTO 19003KT 29/23 A2989 RMK A02 SLP122 T02870232 PA029 DA1990=
0129008415999992016010702534+07300+134200FM-15+000099999V0202101N001519999999N999999999+02861+02271101161ADDMA1101151999999REMMET102MOBOB2 METAR XM21 //000 073342 070253Z AUTO 21003KT 29/23 A2987 RMK A02 SLP116 T02860227 PA047 DA1992=
0129008415999992016010703534+07300+134200FM-15+000099999V0202501N002619999999N999999999+02871+02321101091ADDMA1101081999999REMMET102MOBOB2 METAR XM21 //000 073342 070353Z AUTO 25005KT 29/23 A2985 RMK A02 SLP109 T02870232 PA066 DA2037=
0129008415999992016010704544+07300+134200FM-15+000099999V0203101N001519999999N999999999+02911+02291101021ADDMA1101021999999REMMET102MOBOB2 METAR XM21 //000 073342 070454Z AUTO 31003KT 29/23 A2983 RMK A02 SLP102 T02910229 PA084 DA2097=
0129008415999992016010705534+07300+134200FM-15+000099999V0203301N001019999999N999999999+02991+02291100991ADDMA1100981999999REMMET102MOBOB2 METAR XM21 //000 073342 070553Z AUTO 33002KT 30/23 A2982 RMK A02 SLP099 T02990229 PA094 DA2198=
0156008415999992016010706534+07300+134200FM-15+000099999V0200701N002619999999N999999999+02641+02431101021ADDAA101000231AW1611MA1101021999999REMMET112MOBOB2 METAR XM21 //000 073342 070653Z AUTO 07005KT -RA 26/24 A2983 RMK A02 SLP102 P0001 T02640243 PA084 DA1827=
0129008415999992016010707534+07300+134200FM-15+000099999V0200201N001519999999N999999999+02721+02391101091ADDMA1101081999999REMMET102MOBOB2 METAR XM21 //000 073342 070753Z AUTO 02003KT 27/24 A2985 RMK A02 SLP109 T02720239 PA066 DA1884=
0129008415999992016010708534+07300+134200FM-15+000099999V0200101N002119999999N999999999+02721+02411101121ADDMA1101121999999REMMET102MOBOB2 METAR XM21 //000 073342 070853Z AUTO 01004KT 27/24 A2986 RMK A02 SLP112 T02720241 PA057 DA1878=
0129008415999992016010709534+07300+134200FM-15+000099999V0203601N002119999999N999999999+02731+02391101221ADDMA1101221999999REMMET102MOBOB2 METAR XM21 //000 073342 070953Z AUTO 36004KT 27/24 A2989 RMK A02 SLP122 T02730239 PA029 DA1849=
0129008415999992016010710534+07300+134200FM-15+000099999V0203301N002619999999N999999999+02741+02381101261ADDMA1101251999999REMMET102MOBOB2 METAR XM21 //000 073342 071053Z AUTO 33005KT 27/24 A2990 RMK A02 SLP126 T02740238 PA020 DA1847=
0129008415999992016010711534+07300+134200FM-15+000099999V0203501N002119999999N999999999+02761+02361101331ADDMA1101321999999REMMET102MOBOB2 METAR XM21 //000 073342 071153Z AUTO 35004KT 28/24 A2992 RMK A02 SLP133 T02760236 PA001 DA1842=
0129008415999992016010712534+07300+134200FM-15+000099999V0200101N004619999999N999999999+02781+02351101291ADDMA1101291999999REMMET102MOBOB2 METAR XM21 //000 073342 071253Z AUTO 01009KT 28/23 A2991 RMK A02 SLP129 T02780235 PA010 DA1874=
0140008415999992016010713534+07300+134200FM-15+000099999V0200601N006219999999N999999999+02691+02391101261ADDMA1101251999999OC100721REMMET105MOBOB2 METAR XM21 //000 073342 071353Z AUTO 06012G14KT 27/24 A2990 RMK A02 SLP126 T02690239 PA020 DA1792=
0140008415999992016010714534+07300+134200FM-15+000099999V0200601N005119999999N999999999+02681+02371101261ADDMA1101251999999OC100671REMMET105MOBOB2 METAR XM21 //000 073342 071453Z AUTO 06010G13KT 27/24 A2990 RMK A02 SLP126 T02680237 PA020 DA1778=
0129008415999992016010715534+07300+134200FM-15+000099999V0200901N004119999999N999999999+02681+02331101221ADDMA1101221999999REMMET102MOBOB2 METAR XM21 //000 073342 071553Z AUTO 09008KT 27/23 A2989 RMK A02 SLP122 T02680233 PA029 DA1780=
0129008415999992016010716534+07300+134200FM-15+000099999V0201001N003119999999N999999999+02691+02381101121ADDMA1101121999999REMMET102MOBOB2 METAR XM21 //000 073342 071653Z AUTO 10006KT 27/24 A2986 RMK A02 SLP112 T02690238 PA057 DA1836=
0129008415999992016010717534+07300+134200FM-15+000099999V0201001N003119999999N999999999+02671+02391101061ADDMA1101051999999REMMET102MOBOB2 METAR XM21 //000 073342 071753Z AUTO 10006KT 27/24 A2984 RMK A02 SLP106 T02670239 PA075 DA1839=
0129008415999992016010718534+07300+134200FM-15+000099999V0201001N002619999999N999999999+02671+02341101061ADDMA1101051999999REMMET102MOBOB2 METAR XM21 //000 073342 071853Z AUTO 10005KT 27/23 A2984 RMK A02 SLP106 T02670234 PA075 DA1828=
0129008415999992016010719534+07300+134200FM-15+000099999V0201101N002619999999N999999999+02661+02371101061ADDMA1101051999999REMMET102MOBOB2 METAR XM21 //000 073342 071953Z AUTO 11005KT 27/24 A2984 RMK A02 SLP106 T02660237 PA075 DA1822=
0129008415999992016010721534+07300+134200FM-15+000099999V0200901N003119999999N999999999+02721+02371101191ADDMA1101181999999REMMET102MOBOB2 METAR XM21 //000 073342 072153Z AUTO 09006KT 27/24 A2988 RMK A02 SLP119 T02720237 PA038 DA1844=
0167008415999992016010722534+07300+134200FM-15+000099999V0200801N007219999999N999999999+02581+02361101291ADDAA101000021AW1611MA1101291999999OC100931REMMET115MOBOB2 METAR XM21 //000 073342 072253Z AUTO 08014G18KT -RA 26/24 A2991 RMK A02 SLP129 P0000 T02580236 PA010 DA1651=
0129008415999992016010723534+07300+134200FM-15+000099999V0200701N003619999999N999999999+02581+02331101291ADDMA1101291999999REMMET102MOBOB2 METAR XM21 //000 073342 072353Z AUTO 07007KT 26/23 A2991 RMK A02 SLP129 T02580233 PA010 DA1644=
0129008415999992016010800534+07300+134200FM-15+000099999V0200701N003119999999N999999999+02731+02381101221ADDMA1101221999999REMMET102MOBOB2 METAR XM21 //000 073342 080053Z AUTO 07006KT 27/24 A2989 RMK A02 SLP122 T02730238 PA029 DA1847=
0129008415999992016010801534+07300+134200FM-15+000099999V0200401N004119999999N999999999+02751+02411101191ADDMA1101181999999REMMET102MOBOB2 METAR XM21 //000 073342 080153Z AUTO 04008KT 28/24 A2988 RMK A02 SLP119 T02750241 PA038 DA1888=
0140008415999992016010802534+07300+134200FM-15+000099999V0200501N006719999999N999999999+02861+02331101121ADDMA1101121999999OC100771REMMET105MOBOB2 METAR XM21 //000 073342 080253Z AUTO 05013G15KT 29/23 A2986 RMK A02 SLP112 T02860233 PA057 DA2017=
0140008415999992016010803534+07300+134200FM-15+000099999V0200601N005719999999N999999999+02851+02371101061ADDMA1101051999999OC100721REMMET105MOBOB2 METAR XM21 //000 073342 080353Z AUTO 06011G14KT 29/24 A2984 RMK A02 SLP106 T02850237 PA075 DA2035=
0129008415999992016010804534+07300+134200FM-15+000099999V0200801N005119999999N999999999+02871+02411100991ADDMA1100981999999REMMET102MOBOB2 METAR XM21 //000 073342 080453Z AUTO 08010KT 29/24 A2982 RMK A02 SLP099 T02870241 PA094 DA2090=
0129008415999992016010805534+07300+134200FM-15+000099999V0201001N004119999999N999999999+02851+02351100951ADDMA1100951999999REMMET102MOBOB2 METAR XM21 //000 073342 080553Z AUTO 10008KT 29/24 A2981 RMK A02 SLP095 T02850235 PA103 DA2066=
0129008415999992016010806534+07300+134200FM-15+000099999V0200901N004119999999N999999999+02811+02441100951ADDMA1100951999999REMMET102MOBOB2 METAR XM21 //000 073342 080653Z AUTO 09008KT 28/24 A2981 RMK A02 SLP095 T02810244 PA103 DA2042=
0140008415999992016010807534+07300+134200FM-15+000099999V0201101N006719999999N999999999+02801+02421100991ADDMA1100981999999OC100821REMMET105MOBOB2 METAR XM21 //000 073342 080753Z AUTO 11013G16KT 28/24 A2982 RMK A02 SLP099 T02800242 PA094 DA2014=
0140008415999992016010808534+07300+134200FM-15+000099999V0201201N006719999999N999999999+02791+02421101061ADDMA1101051999999OC100881REMMET105MOBOB2 METAR XM21 //000 073342 080853Z AUTO 12013G17KT 28/24 A2984 RMK A02 SLP106 T02790242 PA075 DA1981=
0140008415999992016010809534+07300+134200FM-15+000099999V0201101N006219999999N999999999+02791+02411101091ADDMA1101081999999OC100721REMMET105MOBOB2 METAR XM21 //000 073342 080953Z AUTO 11012G14KT 28/24 A2985 RMK A02 SLP109 T02790241 PA066 DA1967=
0140008415999992016010810534+07300+134200FM-15+000099999V0201101N005719999999N999999999+02801+02411101191ADDMA1101181999999OC100671REMMET105MOBOB2 METAR XM21 //000 073342 081053Z AUTO 11011G13KT 28/24 A2988 RMK A02 SLP119 T02800241 PA038 DA1944=
0156008415999992016010811534+07300+134200FM-15+000099999V0200801N001519999999N999999999+02681+02411101261ADDAA101000231AW1611MA1101251999999REMMET112MOBOB2 METAR XM21 //000 073342 081153Z AUTO 08003KT -RA 27/24 A2990 RMK A02 SLP126 P0001 T02680241 PA020 DA1787=
0129008415999992016010812534+07300+134200FM-15+000099999V0201501N002119999999N999999999+02741+02441101261ADDMA1101251999999REMMET102MOBOB2 METAR XM21 //000 073342 081253Z AUTO 15004KT 27/24 A2990 RMK A02 SLP126 T02740244 PA020 DA1861=
0129008415999992016010813534+07300+134200FM-15+000099999V0200901N002619999999N999999999+02751+02441101221ADDMA1101221999999REMMET102MOBOB2 METAR XM21 //000 073342 081353Z AUTO 09005KT 28/24 A2989 RMK A02 SLP122 T02750244 PA029 DA1883=
0129008415999992016010814534+07300+134200FM-15+000099999V0201701N003619999999N999999999+02721+02441101221ADDMA1101221999999REMMET102MOBOB2 METAR XM21 //000 073342 081453Z AUTO 17007KT 27/24 A2989 RMK A02 SLP122 T02720244 PA029 DA1849=
0129008415999992016010815534+07300+134200FM-15+000099999V0201501N002619999999N999999999+02731+02411101191ADDMA1101181999999REMMET102MOBOB2 METAR XM21 //000 073342 081553Z AUTO 15005KT 27/24 A2988 RMK A02 SLP119 T02730241 PA038 DA1865=
0129008415999992016010816534+07300+134200FM-15+000099999V0201701N001519999999N999999999+02731+02431101121ADDMA1101121999999REMMET102MOBOB2 METAR XM21 //000 073342 081653Z AUTO 17003KT 27/24 A2986 RMK A02 SLP112 T02730243 PA057 DA1893=
0129008415999992016010817534+07300+134200FM-15+000099999V0201101N002119999999N999999999+02731+02411101091ADDMA1101081999999REMMET102MOBOB2 METAR XM21 //000 073342 081753Z AUTO 11004KT 27/24 A2985 RMK A02 SLP109 T02730241 PA066 DA1900=
0129008415999992016010818534+07300+134200FM-15+000099999V0201301N002619999999N999999999+02731+02411101091ADDMA1101081999999REMMET102MOBOB2 METAR XM21 //000 073342 081853Z AUTO 13005KT 27/24 A2985 RMK A02 SLP109 T02730241 PA066 DA1900=
0129008415999992016010819534+07300+134200FM-15+000099999V0200801N003119999999N999999999+02741+02421101091ADDMA1101081999999REMMET102MOBOB2 METAR XM21 //000 073342 081953Z AUTO 08006KT 27/24 A2985 RMK A02 SLP109 T02740242 PA066 DA1913=
0129008415999992016010820534+07300+134200FM-15+000099999V0201001N003619999999N999999999+02731+02421101161ADDMA1101151999999REMMET102MOBOB2 METAR XM21 //000 073342 082053Z AUTO 10007KT 27/24 A2987 RMK A02 SLP116 T02730242 PA047 DA1879=
0129008415999992016010821534+07300+134200FM-15+000099999V0201001N003619999999N999999999+02751+02371101221ADDMA1101221999999REMMET102MOBOB2 METAR XM21 //000 073342 082153Z AUTO 10007KT 28/24 A2989 RMK A02 SLP122 T02750237 PA029 DA1868=
0129008415999992016010822534+07300+134200FM-15+000099999V0201001N004119999999N999999999+02781+02381101331ADDMA1101321999999REMMET102MOBOB2 METAR XM21 //000 073342 082253Z AUTO 10008KT 28/24 A2992 RMK A02 SLP133 T02780238 PA001 DA1869=
0140008415999992016010823534+07300+134200FM-15+000099999V0201201N005719999999N999999999+02811+02321101361ADDMA1101351999999OC100671REMMET105MOBOB2 METAR XM21 //000 073342 082353Z AUTO 12011G13KT 28/23 A2993 RMK A02 SLP136 T02810232 PA-08 DA1878=
0140008415999992016010900534+07300+134200FM-15+000099999V0201201N005119999999N999999999+02811+02361101331ADDMA1101321999999OC100671REMMET105MOBOB2 METAR XM21 //000 073342 090053Z AUTO 12010G13KT 28/24 A2992 RMK A02 SLP133 T02810236 PA001 DA1898=
0140008415999992016010901534+07300+134200FM-15+000099999V0201201N006719999999N999999999+02821+02301101291ADDMA1101291999999OC100771REMMET105MOBOB2 METAR XM21 //000 073342 090153Z AUTO 12013G15KT 28/23 A2991 RMK A02 SLP129 T02820230 PA010 DA1908=
0140008415999992016010902534+07300+134200FM-15+000099999V0201201N005719999999N999999999+02821+02241101261ADDMA1101251999999OC100671REMMET105MOBOB2 METAR XM21 //000 073342 090253Z AUTO 12011G13KT 28/22 A2990 RMK A02 SLP126 T02820224 PA020 DA1907=
0129008415999992016010903534+07300+134200FM-15+000099999V0201201N003619999999N999999999+02841+02261101161ADDMA1101151999999REMMET102MOBOB2 METAR XM21 //000 073342 090353Z AUTO 12007KT 28/23 A2987 RMK A02 SLP116 T02840226 PA047 DA1966=
0129008415999992016010904534+07300+134200FM-15+000099999V0201201N003619999999N999999999+02831+02261101091ADDMA1101081999999REMMET102MOBOB2 METAR XM21 //000 073342 090453Z AUTO 12007KT 28/23 A2985 RMK A02 SLP109 T02830226 PA066 DA1979=
0129008415999992016010905534+07300+134200FM-15+000099999V0201101N003619999999N999999999+02831+02261101061ADDMA1101051999999REMMET102MOBOB2 METAR XM21 //000 073342 090553Z AUTO 11007KT 28/23 A2984 RMK A02 SLP106 T02830226 PA075 DA1991=
0129008415999992016010906534+07300+134200FM-15+000099999V0201101N003619999999N999999999+02831+02271101091ADDMA1101081999999REMMET102MOBOB2 METAR XM21 //000 073342 090653Z AUTO 11007KT 28/23 A2985 RMK A02 SLP109 T02830227 PA066 DA1980=
0129008415999992016010907534+07300+134200FM-15+000099999V0201101N003119999999N999999999+02821+02231101121ADDMA1101121999999REMMET102MOBOB2 METAR XM21 //000 073342 090753Z AUTO 11006KT 28/22 A2986 RMK A02 SLP112 T02820223 PA057 DA1950=
0129008415999992016010908534+07300+134200FM-15+000099999V0201101N002619999999N999999999+02811+02261101161ADDMA1101151999999REMMET102MOBOB2 METAR XM21 //000 073342 090853Z AUTO 11005KT 28/23 A2987 RMK A02 SLP116 T02810226 PA047 DA1934=
0129008415999992016010909534+07300+134200FM-15+000099999V0201101N003119999999N999999999+02791+02241101221ADDMA1101221999999REMMET102MOBOB2 METAR XM21 //000 073342 090953Z AUTO 11006KT 28/22 A2989 RMK A02 SLP122 T02790224 PA029 DA1885=
0129008415999992016010910534+07300+134200FM-15+000099999V0200801N002619999999N999999999+02791+02271101291ADDMA1101291999999REMMET102MOBOB2 METAR XM21 //000 073342 091053Z AUTO 08005KT 28/23 A2991 RMK A02 SLP129 T02790227 PA010 DA1866=
0129008415999992016010911534+07300+134200FM-15+000099999V0200801N003119999999N999999999+02801+02211101331ADDMA1101321999999REMMET102MOBOB2 METAR XM21 //000 073342 091153Z AUTO 08006KT 28/22 A2992 RMK A02 SLP133 T02800221 PA001 DA1855=
0129008415999992016010912534+07300+134200FM-15+000099999V0200901N003119999999N999999999+02801+02171101291ADDMA1101291999999REMMET102MOBOB2 METAR XM21 //000 073342 091253Z AUTO 09006KT 28/22 A2991 RMK A02 SLP129 T02800217 PA010 DA1857=
0129008415999992016010913534+07300+134200FM-15+000099999V0200801N003119999999N999999999+02791+02201101291ADDMA1101291999999REMMET102MOBOB2 METAR XM21 //000 073342 091353Z AUTO 08006KT 28/22 A2991 RMK A02 SLP129 T02790220 PA010 DA1853=
0129008415999992016010914534+07300+134200FM-15+000099999V0200901N002119999999N999999999+02781+02271101291ADDMA1101291999999REMMET102MOBOB2 METAR XM21 //000 073342 091453Z AUTO 09004KT 28/23 A2991 RMK A02 SLP129 T02780227 PA010 DA1856=
0129008415999992016010915534+07300+134200FM-15+000099999V0200701N001519999999N999999999+02771+02311101261ADDMA1101251999999REMMET102MOBOB2 METAR XM21 //000 073342 091553Z AUTO 07003KT 28/23 A2990 RMK A02 SLP126 T02770231 PA020 DA1865=
0129008415999992016010916544+07300+134200FM-15+000099999V0200701N002119999999N999999999+02771+02341101161ADDMA1101151999999REMMET102MOBOB2 METAR XM21 //000 073342 091654Z AUTO 07004KT 28/23 A2987 RMK A02 SLP116 T02770234 PA047 DA1905=
0129008415999992016010917534+07300+134200FM-15+000099999V0201101N002119999999N999999999+02771+02361101121ADDMA1101121999999REMMET102MOBOB2 METAR XM21 //000 073342 091753Z AUTO 11004KT 28/24 A2986 RMK A02 SLP112 T02770236 PA057 DA1921=
0129008415999992016010918534+07300+134200FM-15+000099999V0200601N002619999999N999999999+02771+02331101121ADDMA1101121999999REMMET102MOBOB2 METAR XM21 //000 073342 091853Z AUTO 06005KT 28/23 A2986 RMK A02 SLP112 T02770233 PA057 DA1916=
0129008415999992016010919534+07300+134200FM-15+000099999V0201001N002619999999N999999999+02761+02361101121ADDMA1101121999999REMMET102MOBOB2 METAR XM21 //000 073342 091953Z AUTO 10005KT 28/24 A2986 RMK A02 SLP112 T02760236 PA057 DA1910=
0129008415999992016010920534+07300+134200FM-15+000099999V0200801N002119999999N999999999+02761+02411101161ADDMA1101151999999REMMET102MOBOB2 METAR XM21 //000 073342 092053Z AUTO 08004KT 28/24 A2987 RMK A02 SLP116 T02760241 PA047 DA1910=
0129008415999992016010921534+07300+134200FM-15+000099999V0200901N003119999999N999999999+02761+02431101261ADDMA1101251999999REMMET102MOBOB2 METAR XM21 //000 073342 092153Z AUTO 09006KT 28/24 A2990 RMK A02 SLP126 T02760243 PA020 DA1881=
0129008415999992016010922534+07300+134200FM-15+000099999V0200901N003619999999N999999999+02801+02291101331ADDMA1101321999999REMMET102MOBOB2 METAR XM21 //000 073342 092253Z AUTO 09007KT 28/23 A2992 RMK A02 SLP133 T02800229 PA001 DA1872=
0129008415999992016010923534+07300+134200FM-15+000099999V0201001N004619999999N999999999+02841+02361101361ADDMA1101351999999REMMET102MOBOB2 METAR XM21 //000 073342 092353Z AUTO 10009KT 28/24 A2993 RMK A02 SLP136 T02840236 PA-08 DA1920=
0140008415999992016011000534+07300+134200FM-15+000099999V0200901N006719999999N999999999+02881+02311101391ADDMA1101391999999OC100821REMMET105MOBOB2 METAR XM21 //000 073342 100053Z AUTO 09013G16KT 29/23 A2994 RMK A02 SLP139 T02880231 PA-17 DA1943=
0140008415999992016011001534+07300+134200FM-15+000099999V0200801N005719999999N999999999+02891+02381101331ADDMA1101321999999OC100771REMMET105MOBOB2 METAR XM21 //000 073342 100153Z AUTO 08011G15KT 29/24 A2992 RMK A02 SLP133 T02890238 PA001 DA1992=
0140008415999992016011002534+07300+134200FM-15+000099999V0200901N005119999999N999999999+02881+02421101261ADDMA1101251999999OC100671REMMET105MOBOB2 METAR XM21 //000 073342 100253Z AUTO 09010G13KT 29/24 A2990 RMK A02 SLP126 T02880242 PA020 DA2013=
0140008415999992016011003534+07300+134200FM-15+000099999V0200801N005119999999N999999999+02881+02361101161ADDMA1101151999999OC100671REMMET105MOBOB2 METAR XM21 //000 073342 100353Z AUTO 08010G13KT 29/24 A2987 RMK A02 SLP116 T02880236 PA047 DA2034=
0140008415999992016011004534+07300+134200FM-15+000099999V0200901N004619999999N999999999+02901+02371101091ADDMA1101081999999OC100621REMMET105MOBOB2 METAR XM21 //000 073342 100453Z AUTO 09009G12KT 29/24 A2985 RMK A02 SLP109 T02900237 PA066 DA2081=
0140008415999992016011005534+07300+134200FM-15+000099999V0201201N006219999999N999999999+02841+02331101021ADDMA1101021999999OC100771REMMET105MOBOB2 METAR XM21 //000 073342 100553Z AUTO 12012G15KT 28/23 A2983 RMK A02 SLP102 T02840233 PA084 DA2028=
0140008415999992016011006534+07300+134200FM-15+000099999V0201201N005719999999N999999999+02811+02341101061ADDMA1101051999999OC100671REMMET105MOBOB2 METAR XM21 //000 073342 100653Z AUTO 12011G13KT 28/23 A2984 RMK A02 SLP106 T02810234 PA075 DA1985=
0140008415999992016011007534+07300+134200FM-15+000099999V0201201N004619999999N999999999+02841+02331101061ADDMA1101051999999OC100621REMMET105MOBOB2 METAR XM21 //000 073342 100753Z AUTO 12009G12KT 28/23 A2984 RMK A02 SLP106 T02840233 PA075 DA2017=
0140008415999992016011008534+07300+134200FM-15+000099999V0201001N005119999999N999999999+02851+02291101121ADDMA1101121999999OC100671REMMET105MOBOB2 METAR XM21 //000 073342 100853Z AUTO 10010G13KT 29/23 A2986 RMK A02 SLP112 T02850229 PA057 DA1996=
0129008415999992016011009534+07300+134200FM-15+000099999V0200801N004119999999N999999999+02811+02321101161ADDMA1101151999999REMMET102MOBOB2 METAR XM21 //000 073342 100953Z AUTO 08008KT 28/23 A2987 RMK A02 SLP116 T02810232 PA047 DA1945=
0140008415999992016011010534+07300+134200FM-15+000099999V0200901N005119999999N999999999+02831+02321101191ADDMA1101181999999OC100621REMMET105MOBOB2 METAR XM21 //000 073342 101053Z AUTO 09010G12KT 28/23 A2988 RMK A02 SLP119 T02830232 PA038 DA1956=
0140008415999992016011011534+07300+134200FM-15+000099999V0200901N005119999999N999999999+02831+02391101261ADDMA1101251999999OC100621REMMET105MOBOB2 METAR XM21 //000 073342 101153Z AUTO 09010G12KT 28/24 A2990 RMK A02 SLP126 T02830239 PA020 DA1951=
0140008415999992016011012534+07300+134200FM-15+000099999V0201001N005119999999N999999999+02811+02411101221ADDMA1101221999999OC100621REMMET105MOBOB2 METAR XM21 //000 073342 101253Z AUTO 10010G12KT 28/24 A2989 RMK A02 SLP122 T02810241 PA029 DA1944=
0140008415999992016011013534+07300+134200FM-15+000099999V0200901N005719999999N999999999+02811+02441101221ADDMA1101221999999OC100671REMMET105MOBOB2 METAR XM21 //000 073342 101353Z AUTO 09011G13KT 28/24 A2989 RMK A02 SLP122 T02810244 PA029 DA1949=
0129008415999992016011014534+07300+134200FM-15+000099999V0200901N005119999999N999999999+02801+02431101191ADDMA1101181999999REMMET102MOBOB2 METAR XM21 //000 073342 101453Z AUTO 09010KT 28/24 A2988 RMK A02 SLP119 T02800243 PA038 DA1949=
0140008415999992016011015534+07300+134200FM-15+000099999V0200901N005719999999N999999999+02801+02391101121ADDMA1101121999999OC100671REMMET105MOBOB2 METAR XM21 //000 073342 101553Z AUTO 09011G13KT 28/24 A2986 RMK A02 SLP112 T02800239 PA057 DA1962=
0140008415999992016011016534+07300+134200FM-15+000099999V0200901N005119999999N999999999+02781+02381101091ADDMA1101081999999OC100621REMMET105MOBOB2 METAR XM21 //000 073342 101653Z AUTO 09010G12KT 28/24 A2985 RMK A02 SLP109 T02780238 PA066 DA1949=
0129008415999992016011017534+07300+134200FM-15+000099999V0200601N003619999999N999999999+02771+02381101061ADDMA1101051999999REMMET102MOBOB2 METAR XM21 //000 073342 101753Z AUTO 06007KT 28/24 A2984 RMK A02 SLP106 T02770238 PA075 DA1950=
0129008415999992016011018534+07300+134200FM-15+000099999V0200801N004119999999N999999999+02771+02401101061ADDMA1101051999999REMMET102MOBOB2 METAR XM21 //000 073342 101853Z AUTO 08008KT 28/24 A2984 RMK A02 SLP106 T02770240 PA075 DA1954=
0129008415999992016011019534+07300+134200FM-15+000099999V0200701N004119999999N999999999+02761+02411101091ADDMA1101081999999REMMET102MOBOB2 METAR XM21 //000 073342 101953Z AUTO 07008KT 28/24 A2985 RMK A02 SLP109 T02760241 PA066 DA1934=
0129008415999992016011020534+07300+134200FM-15+000099999V0200701N004119999999N999999999+02771+02411101161ADDMA1101151999999REMMET102MOBOB2 METAR XM21 //000 073342 102053Z AUTO 07008KT 28/24 A2987 RMK A02 SLP116 T02770241 PA047 DA1921=
0129008415999992016011021534+07300+134200FM-15+000099999V0200801N003619999999N999999999+02781+02381101191ADDMA1101181999999REMMET102MOBOB2 METAR XM21 //000 073342 102153Z AUTO 08007KT 28/24 A2988 RMK A02 SLP119 T02780238 PA038 DA1913=
0129008415999992016011022534+07300+134200FM-15+000099999V0200801N003619999999N999999999+02821+02371101261ADDMA1101251999999REMMET102MOBOB2 METAR XM21 //000 073342 102253Z AUTO 08007KT 28/24 A2990 RMK A02 SLP126 T02820237 PA020 DA1935=
0129008415999992016011023534+07300+134200FM-15+000099999V0200701N003619999999N999999999+02831+02351101261ADDMA1101251999999REMMET102MOBOB2 METAR XM21 //000 073342 102353Z AUTO 07007KT 28/24 A2990 RMK A02 SLP126 T02830235 PA020 DA1941=
0129008415999992016011100534+07300+134200FM-15+000099999V0200801N004119999999N999999999+02861+02391101291ADDMA1101291999999REMMET102MOBOB2 METAR XM21 //000 073342 110053Z AUTO 08008KT 29/24 A2991 RMK A02 SLP129 T02860239 PA010 DA1971=
0129008415999992016011101534+07300+134200FM-15+000099999V0200801N004119999999N999999999+02881+02381101261ADDMA1101251999999REMMET102MOBOB2 METAR XM21 //000 073342 110153Z AUTO 08008KT 29/24 A2990 RMK A02 SLP126 T02880238 PA020 DA2003=
0129008415999992016011102534+07300+134200FM-15+000099999V0200701N004119999999N999999999+02911+02341101191ADDMA1101181999999REMMET102MOBOB2 METAR XM21 //000 073342 110253Z AUTO 07008KT 29/23 A2988 RMK A02 SLP119 T02910234 PA038 DA2052=
0129008415999992016011103534+07300+134200FM-15+000099999V0201001N003619999999N999999999+02951+02261101091ADDMA1101081999999REMMET102MOBOB2 METAR XM21 //000 073342 110353Z AUTO 10007KT 30/23 A2985 RMK A02 SLP109 T02950226 PA066 DA2113=
0129008415999992016011104534+07300+134200FM-15+000099999V0200701N003119999999N999999999+02951+02271101021ADDMA1101021999999REMMET102MOBOB2 METAR XM21 //000 073342 110453Z AUTO 07006KT 30/23 A2983 RMK A02 SLP102 T02950227 PA084 DA2137=
0129008415999992016011105534+07300+134200FM-15+000099999V0201001N003119999999N999999999+02941+02291100951ADDMA1100951999999REMMET102MOBOB2 METAR XM21 //000 073342 110553Z AUTO 10006KT 29/23 A2981 RMK A02 SLP095 T02940229 PA103 DA2154=
0140008415999992016011106534+07300+134200FM-15+000099999V0200501N005719999999N999999999+02841+02421100991ADDMA1100981999999OC100721REMMET105MOBOB2 METAR XM21 //000 073342 110653Z AUTO 05011G14KT 28/24 A2982 RMK A02 SLP099 T02840242 PA094 DA2058=
0129008415999992016011107534+07300+134200FM-15+000099999V0200501N004119999999N999999999+02861+02381101061ADDMA1101051999999REMMET102MOBOB2 METAR XM21 //000 073342 110753Z AUTO 05008KT 29/24 A2984 RMK A02 SLP106 T02860238 PA075 DA2050=
0140008415999992016011108534+07300+134200FM-15+000099999V0200801N005119999999N999999999+02831+02371101091ADDMA1101081999999OC100621REMMET105MOBOB2 METAR XM21 //000 073342 110853Z AUTO 08010G12KT 28/24 A2985 RMK A02 SLP109 T02830237 PA066 DA2003=
0140008415999992016011109534+07300+134200FM-15+000099999V0200601N006719999999N999999999+02781+02411101121ADDMA1101121999999OC100881REMMET105MOBOB2 METAR XM21 //000 073342 110953Z AUTO 06013G17KT 28/24 A2986 RMK A02 SLP112 T02780241 PA057 DA1944=
0140008415999992016011110534+07300+134200FM-15+000099999V0200601N007219999999N999999999+02741+02361101191ADDMA1101181999999OC100881REMMET105MOBOB2 METAR XM21 //000 073342 111053Z AUTO 06014G17KT 27/24 A2988 RMK A02 SLP119 T02740236 PA038 DA1866=
0140008415999992016011111534+07300+134200FM-15+000099999V0200701N005119999999N999999999+02741+02311101191ADDMA1101181999999OC100671REMMET105MOBOB2 METAR XM21 //000 073342 111153Z AUTO 07010G13KT 27/23 A2988 RMK A02 SLP119 T02740231 PA038 DA1854=
0129008415999992016011112534+07300+134200FM-15+000099999V0200801N005119999999N999999999+02741+02361101161ADDMA1101151999999REMMET102MOBOB2 METAR XM21 //000 073342 111253Z AUTO 08010KT 27/24 A2987 RMK A02 SLP116 T02740236 PA047 DA1877=
0129008415999992016011113534+07300+134200FM-15+000099999V0200901N003119999999N999999999+02751+02361101121ADDMA1101121999999REMMET102MOBOB2 METAR XM21 //000 073342 111353Z AUTO 09006KT 28/24 A2986 RMK A02 SLP112 T02750236 PA057 DA1898=
0129008415999992016011114534+07300+134200FM-15+000099999V0200901N003619999999N999999999+02751+02391101161ADDMA1101151999999REMMET102MOBOB2 METAR XM21 //000 073342 111453Z AUTO 09007KT 28/24 A2987 RMK A02 SLP116 T02750239 PA047 DA1894=
0129008415999992016011115534+07300+134200FM-15+000099999V0200701N002619999999N999999999+02741+02371101161ADDMA1101151999999REMMET102MOBOB2 METAR XM21 //000 073342 111553Z AUTO 07005KT 27/24 A2987 RMK A02 SLP116 T02740237 PA047 DA1878=
0140008415999992016011116534+07300+134200FM-15+000099999V0200501N005119999999N999999999+02731+02361101091ADDMA1101081999999OC100671REMMET105MOBOB2 METAR XM21 //000 073342 111653Z AUTO 05010G13KT 27/24 A2985 RMK A02 SLP109 T02730236 PA066 DA1888=
0129008415999992016011117534+07300+134200FM-15+000099999V0200601N004619999999N999999999+02761+02351101061ADDMA1101051999999REMMET102MOBOB2 METAR XM21 //000 073342 111753Z AUTO 06009KT 28/23 A2984 RMK A02 SLP106 T02760235 PA075 DA1930=
0140008415999992016011118534+07300+134200FM-15+000099999V0200501N007219999999N999999999+02711+02291101091ADDMA1101081999999OC100821REMMET105MOBOB2 METAR XM21 //000 073342 111853Z AUTO 05014G16KT 27/23 A2985 RMK A02 SLP109 T02710229 PA066 DA1851=
0140008415999992016011119534+07300+134200FM-15+000099999V0200601N007219999999N999999999+02741+02311101121ADDMA1101121999999OC100881REMMET105MOBOB2 METAR XM21 //000 073342 111953Z AUTO 06014G17KT 27/23 A2986 RMK A02 SLP112 T02740231 PA057 DA1877=
0140008415999992016011120534+07300+134200FM-15+000099999V0200601N007219999999N999999999+02721+02301101191ADDMA1101181999999OC100881REMMET105MOBOB2 METAR XM21 //000 073342 112053Z AUTO 06014G17KT 27/23 A2988 RMK A02 SLP119 T02720230 PA038 DA1829=
0140008415999992016011121534+07300+134200FM-15+000099999V0200501N008219999999N999999999+02741+02211101261ADDMA1101251999999OC100981REMMET105MOBOB2 METAR XM21 //000 073342 112153Z AUTO 05016G19KT 27/22 A2990 RMK A02 SLP126 T02740221 PA020 DA1810=
0140008415999992016011122534+07300+134200FM-15+000099999V0200601N007219999999N999999999+02751+02251101331ADDMA1101321999999OC100931REMMET105MOBOB2 METAR XM21 //000 073342 112253Z AUTO 06014G18KT 28/22 A2992 RMK A02 SLP133 T02750225 PA001 DA1806=
0140008415999992016011123534+07300+134200FM-15+000099999V0200601N007219999999N999999999+02761+02231101391ADDMA1101391999999OC100821REMMET105MOBOB2 METAR XM21 //000 073342 112353Z AUTO 06014G16KT 28/22 A2994 RMK A02 SLP139 T02760223 PA-17 DA1791=
0140008415999992016011200534+07300+134200FM-15+000099999V0200501N006719999999N999999999+02801+02201101361ADDMA1101351999999OC100771REMMET105MOBOB2 METAR XM21 //000 073342 120053Z AUTO 05013G15KT 28/22 A2993 RMK A02 SLP136 T02800220 PA-08 DA1841=
0140008415999992016011201534+07300+134200FM-15+000099999V0200501N005719999999N999999999+02841+02181101331ADDMA1101321999999OC100671REMMET105MOBOB2 METAR XM21 //000 073342 120153Z AUTO 05011G13KT 28/22 A2992 RMK A02 SLP133 T02840218 PA001 DA1894=
0140008415999992016011202534+07300+134200FM-15+000099999V0200501N005719999999N999999999+02861+02151101261ADDMA1101251999999OC100671REMMET105MOBOB2 METAR XM21 //000 073342 120253Z AUTO 05011G13KT 29/22 A2990 RMK A02 SLP126 T02860215 PA020 DA1933=
0140008415999992016011203534+07300+134200FM-15+000099999V0200601N005119999999N999999999+02861+02221101161ADDMA1101151999999OC100671REMMET105MOBOB2 METAR XM21 //000 073342 120353Z AUTO 06010G13KT 29/22 A2987 RMK A02 SLP116 T02860222 PA047 DA1980=
0140008415999992016011204534+07300+134200FM-15+000099999V0200301N006219999999N999999999+02861+02201101061ADDMA1101051999999OC100771REMMET105MOBOB2 METAR XM21 //000 073342 120453Z AUTO 03012G15KT 29/22 A2984 RMK A02 SLP106 T02860220 PA075 DA2011=
0140008415999992016011205534+07300+134200FM-15+000099999V0200201N006219999999N999999999+02851+02241100991ADDMA1100981999999OC100721REMMET105MOBOB2 METAR XM21 //000 073342 120553Z AUTO 02012G14KT 29/22 A2982 RMK A02 SLP099 T02850224 PA094 DA2031=
0129008415999992016011206534+07300+134200FM-15+000099999V0200801N004119999999N999999999+02881+02151100991ADDMA1100981999999REMMET102MOBOB2 METAR XM21 //000 073342 120653Z AUTO 08008KT 29/22 A2982 RMK A02 SLP099 T02880215 PA094 DA2046=
0129008415999992016011207534+07300+134200FM-15+000099999V0200701N003619999999N999999999+02871+02111101021ADDMA1101021999999REMMET102MOBOB2 METAR XM21 //000 073342 120753Z AUTO 07007KT 29/21 A2983 RMK A02 SLP102 T02870211 PA084 DA2015=
0129008415999992016011208534+07300+134200FM-15+000099999V0200701N004119999999N999999999+02831+02191101061ADDMA1101051999999REMMET102MOBOB2 METAR XM21 //000 073342 120853Z AUTO 07008KT 28/22 A2984 RMK A02 SLP106 T02830219 PA075 DA1975=
0129008415999992016011209534+07300+134200FM-15+000099999V0200701N004119999999N999999999+02801+02221101161ADDMA1101151999999REMMET102MOBOB2 METAR XM21 //000 073342 120953Z AUTO 07008KT 28/22 A2987 RMK A02 SLP116 T02800222 PA047 DA1914=
0129008415999992016011210534+07300+134200FM-15+000099999V0200701N004119999999N999999999+02771+02211101221ADDMA1101221999999REMMET102MOBOB2 METAR XM21 //000 073342 121053Z AUTO 07008KT 28/22 A2989 RMK A02 SLP122 T02770221 PA029 DA1856=
0129008415999992016011211534+07300+134200FM-15+000099999V0200601N004119999999N999999999+02761+02251101261ADDMA1101251999999REMMET102MOBOB2 METAR XM21 //000 073342 121153Z AUTO 06008KT 28/22 A2990 RMK A02 SLP126 T02760225 PA020 DA1840=
0140008415999992016011212534+07300+134200FM-15+000099999V0200601N005119999999N999999999+02761+02291101261ADDMA1101251999999OC100621REMMET105MOBOB2 METAR XM21 //000 073342 121253Z AUTO 06010G12KT 28/23 A2990 RMK A02 SLP126 T02760229 PA020 DA1849=
0140008415999992016011213534+07300+134200FM-15+000099999V0200601N006219999999N999999999+02741+02261101261ADDMA1101251999999OC100771REMMET105MOBOB2 METAR XM21 //000 073342 121353Z AUTO 06012G15KT 27/23 A2990 RMK A02 SLP126 T02740226 PA020 DA1820=
0140008415999992016011214534+07300+134200FM-15+000099999V0200601N006219999999N999999999+02731+02281101221ADDMA1101221999999OC100771REMMET105MOBOB2 METAR XM21 //000 073342 121453Z AUTO 06012G15KT 27/23 A2989 RMK A02 SLP122 T02730228 PA029 DA1825=
0140008415999992016011215534+07300+134200FM-15+000099999V0200501N006219999999N999999999+02731+02241101191ADDMA1101181999999OC100821REMMET105MOBOB2 METAR XM21 //000 073342 121553Z AUTO 05012G16KT 27/22 A2988 RMK A02 SLP119 T02730224 PA038 DA1827=
0140008415999992016011216534+07300+134200FM-15+000099999V0200501N006219999999N999999999+02731+02201101091ADDMA1101081999999OC100721REMMET105MOBOB2 METAR XM21 //000 073342 121653Z AUTO 05012G14KT 27/22 A2985 RMK A02 SLP109 T02730220 PA066 DA1853=
0140008415999992016011217534+07300+134200FM-15+000099999V0200501N007219999999N999999999+02731+02201101061ADDMA1101051999999OC100881REMMET105MOBOB2 METAR XM21 //000 073342 121753Z AUTO 05014G17KT 27/22 A2984 RMK A02 SLP106 T02730220 PA075 DA1865=
0140008415999992016011218534+07300+134200FM-15+000099999V0200501N007219999999N999999999+02711+02191101061ADDMA1101051999999OC100881REMMET105MOBOB2 METAR XM21 //000 073342 121853Z AUTO 05014G17KT 27/22 A2984 RMK A02 SLP106 T02710219 PA075 DA1841=
0140008415999992016011219534+07300+134200FM-15+000099999V0200501N007219999999N999999999+02721+02261101121ADDMA1101121999999OC100931REMMET105MOBOB2 METAR XM21 //000 073342 121953Z AUTO 05014G18KT 27/23 A2986 RMK A02 SLP112 T02720226 PA057 DA1843=
0140008415999992016011220534+07300+134200FM-15+000099999V0200401N007219999999N999999999+02711+02201101191ADDMA1101181999999OC100931REMMET105MOBOB2 METAR XM21 //000 073342 122053Z AUTO 04014G18KT 27/22 A2988 RMK A02 SLP119 T02710220 PA038 DA1797=
0140008415999992016011221534+07300+134200FM-15+000099999V0200401N007719999999N999999999+02731+02221101261ADDMA1101251999999OC100931REMMET105MOBOB2 METAR XM21 //000 073342 122153Z AUTO 04015G18KT 27/22 A2990 RMK A02 SLP126 T02730222 PA020 DA1801=
0140008415999992016011222534+07300+134200FM-15+000099999V0200401N007219999999N999999999+02761+02181101331ADDMA1101321999999OC100881REMMET105MOBOB2 METAR XM21 //000 073342 122253Z AUTO 04014G17KT 28/22 A2992 RMK A02 SLP133 T02760218 PA001 DA1804=
0140008415999992016011223534+07300+134200FM-15+000099999V0200401N007219999999N999999999+02771+02211101331ADDMA1101321999999OC100881REMMET105MOBOB2 METAR XM21 //000 073342 122353Z AUTO 04014G17KT 28/22 A2992 RMK A02 SLP133 T02770221 PA001 DA1820=
0140008415999992016011300534+07300+134200FM-15+000099999V0200501N007219999999N999999999+02801+02271101331ADDMA1101321999999OC100881REMMET105MOBOB2 METAR XM21 //000 073342 130053Z AUTO 05014G17KT 28/23 A2992 RMK A02 SLP133 T02800227 PA001 DA1866=
0140008415999992016011301534+07300+134200FM-15+000099999V0200401N006719999999N999999999+02801+02221101261ADDMA1101251999999OC100821REMMET105MOBOB2 METAR XM21 //000 073342 130153Z AUTO 04013G16KT 28/22 A2990 RMK A02 SLP126 T02800222 PA020 DA1879=
0140008415999992016011302534+07300+134200FM-15+000099999V0200301N007219999999N999999999+02821+02291101161ADDMA1101151999999OC100981REMMET105MOBOB2 METAR XM21 //000 073342 130253Z AUTO 03014G19KT 28/23 A2987 RMK A02 SLP116 T02820229 PA047 DA1950=
0140008415999992016011303534+07300+134200FM-15+000099999V0200401N007719999999N999999999+02841+02301101061ADDMA1101051999999OC100931REMMET105MOBOB2 METAR XM21 //000 073342 130353Z AUTO 04015G18KT 28/23 A2984 RMK A02 SLP106 T02840230 PA075 DA2010=
0140008415999992016011304534+07300+134200FM-15+000099999V0200301N008219999999N999999999+02841+02241100991ADDMA1100981999999OC100981REMMET105MOBOB2 METAR XM21 //000 073342 130453Z AUTO 03016G19KT 28/22 A2982 RMK A02 SLP099 T02840224 PA094 DA2020=
0140008415999992016011305534+07300+134200FM-15+000099999V0200401N007719999999N999999999+02841+02261100951ADDMA1100951999999OC100981REMMET105MOBOB2 METAR XM21 //000 073342 130553Z AUTO 04015G19KT 28/23 A2981 RMK A02 SLP095 T02840226 PA103 DA2035=
0140008415999992016011306534+07300+134200FM-15+000099999V0200601N007719999999N999999999+02821+02221100991ADDMA1100981999999OC100931REMMET105MOBOB2 METAR XM21 //000 073342 130653Z AUTO 06015G18KT 28/22 A2982 RMK A02 SLP099 T02820222 PA094 DA1993=
0140008415999992016011307534+07300+134200FM-15+000099999V0200501N007719999999N999999999+02811+02241101021ADDMA1101021999999OC100881REMMET105MOBOB2 METAR XM21 //000 073342 130753Z AUTO 05015G17KT 28/22 A2983 RMK A02 SLP102 T02810224 PA084 DA1974=
0140008415999992016011308534+07300+134200FM-15+000099999V0200501N007719999999N999999999+02791+02271101061ADDMA1101051999999OC101031REMMET105MOBOB2 METAR XM21 //000 073342 130853Z AUTO 05015G20KT 28/23 A2984 RMK A02 SLP106 T02790227 PA075 DA1946=
0140008415999992016011309534+07300+134200FM-15+000099999V0200601N008219999999N999999999+02781+02251101121ADDMA1101121999999OC101031REMMET105MOBOB2 METAR XM21 //000 073342 130953Z AUTO 06016G20KT 28/23 A2986 RMK A02 SLP112 T02780225 PA057 DA1910=
0140008415999992016011310534+07300+134200FM-15+000099999V0200501N007219999999N999999999+02771+02261101161ADDMA1101151999999OC100931REMMET105MOBOB2 METAR XM21 //000 073342 131053Z AUTO 05014G18KT 28/23 A2987 RMK A02 SLP116 T02770226 PA047 DA1889=
0140008415999992016011311534+07300+134200FM-15+000099999V0200501N007219999999N999999999+02761+02291101191ADDMA1101181999999OC100881REMMET105MOBOB2 METAR XM21 //000 073342 131153Z AUTO 05014G17KT 28/23 A2988 RMK A02 SLP119 T02760229 PA038 DA1871=
0167008415999992016011312534+07300+134200FM-15+000099999V0200701N006719999999N999999999+02751+02251101191ADDAA101000021AW1611MA1101181999999OC100931REMMET115MOBOB2 METAR XM21 //000 073342 131253Z AUTO 07013G18KT -RA 28/23 A2988 RMK A02 SLP119 P0000 T02750225 PA038 DA1853=
0140008415999992016011313534+07300+134200FM-15+000099999V0200701N007719999999N999999999+02791+02201101161ADDMA1101151999999OC100981REMMET105MOBOB2 METAR XM21 //000 073342 131353Z AUTO 07015G19KT 28/22 A2987 RMK A02 SLP116 T02790220 PA047 DA1898=
0140008415999992016011314534+07300+134200FM-15+000099999V0200801N008219999999N999999999+02791+02201101161ADDMA1101151999999OC101081REMMET105MOBOB2 METAR XM21 //000 073342 131453Z AUTO 08016G21KT 28/22 A2987 RMK A02 SLP116 T02790220 PA047 DA1898=
0140008415999992016011315534+07300+134200FM-15+000099999V0200801N007719999999N999999999+02781+02211101091ADDMA1101081999999OC101031REMMET105MOBOB2 METAR XM21 //000 073342 131553Z AUTO 08015G20KT 28/22 A2985 RMK A02 SLP109 T02780221 PA066 DA1911=
0140008415999992016011316534+07300+134200FM-15+000099999V0200701N007219999999N999999999+02771+02241101021ADDMA1101021999999OC101031REMMET105MOBOB2 METAR XM21 //000 073342 131653Z AUTO 07014G20KT 28/22 A2983 RMK A02 SLP102 T02770224 PA084 DA1930=
0140008415999992016011317534+07300+134200FM-15+000099999V0200801N009819999999N999999999+02781+02151100951ADDMA1100951999999OC101181REMMET105MOBOB2 METAR XM21 //000 073342 131753Z AUTO 08019G23KT 28/22 A2981 RMK A02 SLP095 T02780215 PA103 DA1946=
0140008415999992016011318534+07300+134200FM-15+000099999V0200701N008219999999N999999999+02751+02161100951ADDMA1100951999999OC101031REMMET105MOBOB2 METAR XM21 //000 073342 131853Z AUTO 07016G20KT 28/22 A2981 RMK A02 SLP095 T02750216 PA103 DA1913=
0140008415999992016011319534+07300+134200FM-15+000099999V0200701N007719999999N999999999+02751+02161100991ADDMA1100981999999OC101081REMMET105MOBOB2 METAR XM21 //000 073342 131953Z AUTO 07015G21KT 28/22 A2982 RMK A02 SLP099 T02750216 PA094 DA1902=
0140008415999992016011320534+07300+134200FM-15+000099999V0200701N007719999999N999999999+02761+02061101061ADDMA1101051999999OC101081REMMET105MOBOB2 METAR XM21 //000 073342 132053Z AUTO 07015G21KT 28/21 A2984 RMK A02 SLP106 T02760206 PA075 DA1872=
0140008415999992016011321534+07300+134200FM-15+000099999V0200701N007219999999N999999999+02751+02111101121ADDMA1101121999999OC101031REMMET105MOBOB2 METAR XM21 //000 073342 132153Z AUTO 07014G20KT 28/21 A2986 RMK A02 SLP112 T02750211 PA057 DA1848=
0140008415999992016011322534+07300+134200FM-15+000099999V0200601N007719999999N999999999+02771+02051101221ADDMA1101221999999OC101081REMMET105MOBOB2 METAR XM21 //000 073342 132253Z AUTO 06015G21KT 28/21 A2989 RMK A02 SLP122 T02770205 PA029 DA1824=
0140008415999992016011323534+07300+134200FM-15+000099999V0200701N007219999999N999999999+02811+02031101221ADDMA1101221999999OC100981REMMET105MOBOB2 METAR XM21 //000 073342 132353Z AUTO 07014G19KT 28/20 A2989 RMK A02 SLP122 T02810203 PA029 DA1864=
0140008415999992016011400534+07300+134200FM-15+000099999V0200801N007219999999N999999999+02851+01971101221ADDMA1101221999999OC100931REMMET105MOBOB2 METAR XM21 //000 073342 140053Z AUTO 08014G18KT 29/20 A2989 RMK A02 SLP122 T02850197 PA029 DA1898=
0140008415999992016011401534+07300+134200FM-15+000099999V0200801N007219999999N999999999+02861+01941101191ADDMA1101181999999OC100881REMMET105MOBOB2 METAR XM21 //000 073342 140153Z AUTO 08014G17KT 29/19 A2988 RMK A02 SLP119 T02860194 PA038 DA1916=
0140008415999992016011402534+07300+134200FM-15+000099999V0200801N006219999999N999999999+02871+02041101121ADDMA1101121999999OC100821REMMET105MOBOB2 METAR XM21 //000 073342 140253Z AUTO 08012G16KT 29/20 A2986 RMK A02 SLP112 T02870204 PA057 DA1968=
0140008415999992016011403534+07300+134200FM-15+000099999V0200901N005119999999N999999999+02871+02041101061ADDMA1101051999999OC100721REMMET105MOBOB2 METAR XM21 //000 073342 140353Z AUTO 09010G14KT 29/20 A2984 RMK A02 SLP106 T02870204 PA075 DA1991=
0140008415999992016011404534+07300+134200FM-15+000099999V0200801N006219999999N999999999+02841+02011100951ADDMA1100951999999OC100771REMMET105MOBOB2 METAR XM21 //000 073342 140453Z AUTO 08012G15KT 28/20 A2981 RMK A02 SLP095 T02840201 PA103 DA1985=
0140008415999992016011405534+07300+134200FM-15+000099999V0200901N006219999999N999999999+02871+02041100921ADDMA1100911999999OC100821REMMET105MOBOB2 METAR XM21 //000 073342 140553Z AUTO 09012G16KT 29/20 A2980 RMK A02 SLP092 T02870204 PA112 DA2037=
0140008415999992016011406534+07300+134200FM-15+000099999V0200901N005719999999N999999999+02851+02091100921ADDMA1100911999999OC100771REMMET105MOBOB2 METAR XM21 //000 073342 140653Z AUTO 09011G15KT 29/21 A2980 RMK A02 SLP092 T02850209 PA112 DA2023=
0140008415999992016011407534+07300+134200FM-15+000099999V0200901N006219999999N999999999+02841+02071100921ADDMA1100911999999OC100721REMMET105MOBOB2 METAR XM21 //000 073342 140753Z AUTO 09012G14KT 28/21 A2980 RMK A02 SLP092 T02840207 PA112 DA2008=
0140008415999992016011408534+07300+134200FM-15+000099999V0200901N005119999999N999999999+02811+02121101021ADDMA1101021999999OC100621REMMET105MOBOB2 METAR XM21 //000 073342 140853Z AUTO 09010G12KT 28/21 A2983 RMK A02 SLP102 T02810212 PA084 DA1951=
0140008415999992016011409534+07300+134200FM-15+000099999V0200701N004619999999N999999999+02791+02051101061ADDMA1101051999999OC100671REMMET105MOBOB2 METAR XM21 //000 073342 140953Z AUTO 07009G13KT 28/20 A2984 RMK A02 SLP106 T02790205 PA075 DA1903=
0140008415999992016011410534+07300+134200FM-15+000099999V0200601N005719999999N999999999+02771+02121101121ADDMA1101121999999OC100721REMMET105MOBOB2 METAR XM21 //000 073342 141053Z AUTO 06011G14KT 28/21 A2986 RMK A02 SLP112 T02770212 PA057 DA1871=
0140008415999992016011411534+07300+134200FM-15+000099999V0200701N005119999999N999999999+02771+02111101161ADDMA1101151999999OC100721REMMET105MOBOB2 METAR XM21 //000 073342 141153Z AUTO 07010G14KT 28/21 A2987 RMK A02 SLP116 T02770211 PA047 DA1858=
0140008415999992016011412534+07300+134200FM-15+000099999V0200601N005719999999N999999999+02761+02171101191ADDMA1101181999999OC100671REMMET105MOBOB2 METAR XM21 //000 073342 141253Z AUTO 06011G13KT 28/22 A2988 RMK A02 SLP119 T02760217 PA038 DA1848=
0140008415999992016011413534+07300+134200FM-15+000099999V0200701N005719999999N999999999+02751+02241101161ADDMA1101151999999OC100721REMMET105MOBOB2 METAR XM21 //000 073342 141353Z AUTO 07011G14KT 28/22 A2987 RMK A02 SLP116 T02750224 PA047 DA1863=
0140008415999992016011414534+07300+134200FM-15+000099999V0200701N005119999999N999999999+02761+02241101121ADDMA1101121999999OC100621REMMET105MOBOB2 METAR XM21 //000 073342 141453Z AUTO 07010G12KT 28/22 A2986 RMK A02 SLP112 T02760224 PA057 DA1885=
0140008415999992016011415534+07300+134200FM-15+000099999V0200701N005119999999N999999999+02751+02301101061ADDMA1101051999999OC100671REMMET105MOBOB2 METAR XM21 //000 073342 141553Z AUTO 07010G13KT 28/23 A2984 RMK A02 SLP106 T02750230 PA075 DA1910=
0140008415999992016011416534+07300+134200FM-15+000099999V0200601N006219999999N999999999+02741+02291100991ADDMA1100981999999OC100771REMMET105MOBOB2 METAR XM21 //000 073342 141653Z AUTO 06012G15KT 27/23 A2982 RMK A02 SLP099 T02740229 PA094 DA1918=
0140008415999992016011417534+07300+134200FM-15+000099999V0200601N006719999999N999999999+02731+02301100951ADDMA1100951999999OC100821REMMET105MOBOB2 METAR XM21 //000 073342 141753Z AUTO 06013G16KT 27/23 A2981 RMK A02 SLP095 T02730230 PA103 DA1921=
0140008415999992016011418534+07300+134200FM-15+000099999V0200601N007219999999N999999999+02731+02231100951ADDMA1100951999999OC100881REMMET105MOBOB2 METAR XM21 //000 073342 141853Z AUTO 06014G17KT 27/22 A2981 RMK A02 SLP095 T02730223 PA103 DA1906=
0140008415999992016011419534+07300+134200FM-15+000099999V0200601N007719999999N999999999+02731+02241100991ADDMA1100981999999OC100931REMMET105MOBOB2 METAR XM21 //000 073342 141953Z AUTO 06015G18KT 27/22 A2982 RMK A02 SLP099 T02730224 PA094 DA1896=
0140008415999992016011420534+07300+134200FM-15+000099999V0200501N006719999999N999999999+02721+02251101021ADDMA1101021999999OC100821REMMET105MOBOB2 METAR XM21 //000 073342 142053Z AUTO 05013G16KT 27/23 A2983 RMK A02 SLP102 T02720225 PA084 DA1877=
0140008415999992016011421534+07300+134200FM-15+000099999V0200601N006719999999N999999999+02721+02241101061ADDMA1101051999999OC100821REMMET105MOBOB2 METAR XM21 //000 073342 142153Z AUTO 06013G16KT 27/22 A2984 RMK A02 SLP106 T02720224 PA075 DA1861=
0140008415999992016011422534+07300+134200FM-15+000099999V0200601N007219999999N999999999+02741+02291101121ADDMA1101121999999OC100881REMMET105MOBOB2 METAR XM21 //000 073342 142253Z AUTO 06014G17KT 27/23 A2986 RMK A02 SLP112 T02740229 PA057 DA1873=
0140008415999992016011423534+07300+134200FM-15+000099999V0200601N005719999999N999999999+02771+02261101161ADDMA1101151999999OC100721REMMET105MOBOB2 METAR XM21 //000 073342 142353Z AUTO 06011G14KT 28/23 A2987 RMK A02 SLP116 T02770226 PA047 DA1888=
0140008415999992016011500534+07300+134200FM-15+000099999V0200601N005119999999N999999999+02841+02221101161ADDMA1101151999999OC100771REMMET105MOBOB2 METAR XM21 //000 073342 150053Z AUTO 06010G15KT 28/22 A2987 RMK A02 SLP116 T02840222 PA047 DA1959=
0140008415999992016011501534+07300+134200FM-15+000099999V0200701N005119999999N999999999+02851+02161101091ADDMA1101081999999OC100721REMMET105MOBOB2 METAR XM21 //000 073342 150153Z AUTO 07010G14KT 29/22 A2985 RMK A02 SLP109 T02850216 PA066 DA1981=
0140008415999992016011502534+07300+134200FM-15+000099999V0200801N005119999999N999999999+02881+02141100991ADDMA1100981999999OC100721REMMET105MOBOB2 METAR XM21 //000 073342 150253Z AUTO 08010G14KT 29/21 A2982 RMK A02 SLP099 T02880214 PA094 DA2044=
0140008415999992016011503534+07300+134200FM-15+000099999V0200701N005119999999N999999999+02901+02141100921ADDMA1100911999999OC100671REMMET105MOBOB2 METAR XM21 //000 073342 150353Z AUTO 07010G13KT 29/21 A2980 RMK A02 SLP092 T02900214 PA112 DA2088=
0140008415999992016011504534+07300+134200FM-15+000099999V0200801N005119999999N999999999+02901+02141100851ADDMA1100851999999OC100671REMMET105MOBOB2 METAR XM21 //000 073342 150453Z AUTO 08010G13KT 29/21 A2978 RMK A02 SLP085 T02900214 PA131 DA2111=
0140008415999992016011505534+07300+134200FM-15+000099999V0200801N004619999999N999999999+02891+02141100821ADDMA1100811999999OC100621REMMET105MOBOB2 METAR XM21 //000 073342 150553Z AUTO 08009G12KT 29/21 A2977 RMK A02 SLP082 T02890214 PA140 DA2111=
0140008415999992016011506534+07300+134200FM-15+000099999V0200801N005119999999N999999999+02891+02171100781ADDMA1100781999999OC100671REMMET105MOBOB2 METAR XM21 //000 073342 150653Z AUTO 08010G13KT 29/22 A2976 RMK A02 SLP078 T02890217 PA149 DA2130=
0140008415999992016011507534+07300+134200FM-15+000099999V0200701N006219999999N999999999+02861+02181100821ADDMA1100811999999OC100771REMMET105MOBOB2 METAR XM21 //000 073342 150753Z AUTO 07012G15KT 29/22 A2977 RMK A02 SLP082 T02860218 PA140 DA2086=
0140008415999992016011508534+07300+134200FM-15+000099999V0200801N006219999999N999999999+02821+02221100851ADDMA1100851999999OC100771REMMET105MOBOB2 METAR XM21 //000 073342 150853Z AUTO 08012G15KT 28/22 A2978 RMK A02 SLP085 T02820222 PA131 DA2040=
0140008415999992016011509534+07300+134200FM-15+000099999V0200701N006219999999N999999999+02801+02261100891ADDMA1100881999999OC100881REMMET105MOBOB2 METAR XM21 //000 073342 150953Z AUTO 07012G17KT 28/23 A2979 RMK A02 SLP089 T02800226 PA122 DA2014=
0140008415999992016011510534+07300+134200FM-15+000099999V0200601N007219999999N999999999+02771+02281100951ADDMA1100951999999OC100931REMMET105MOBOB2 METAR XM21 //000 073342 151053Z AUTO 06014G18KT 28/23 A2981 RMK A02 SLP095 T02770228 PA103 DA1961=
0140008415999992016011511534+07300+134200FM-15+000099999V0200601N006719999999N999999999+02771+02281100991ADDMA1100981999999OC100931REMMET105MOBOB2 METAR XM21 //000 073342 151153Z AUTO 06013G18KT 28/23 A2982 RMK A02 SLP099 T02770228 PA094 DA1951=
0140008415999992016011512534+07300+134200FM-15+000099999V0200701N006219999999N999999999+02761+02321100991ADDMA1100981999999OC100771REMMET105MOBOB2 METAR XM21 //000 073342 151253Z AUTO 07012G15KT 28/23 A2982 RMK A02 SLP099 T02760232 PA094 DA1948=
0140008415999992016011513534+07300+134200FM-15+000099999V0200701N006219999999N999999999+02761+02261100991ADDMA1100981999999OC100821REMMET105MOBOB2 METAR XM21 //000 073342 151353Z AUTO 07012G16KT 28/23 A2982 RMK A02 SLP099 T02760226 PA094 DA1935=
0140008415999992016011514534+07300+134200FM-15+000099999V0200701N005719999999N999999999+02761+02321100951ADDMA1100951999999OC100721REMMET105MOBOB2 METAR XM21 //000 073342 151453Z AUTO 07011G14KT 28/23 A2981 RMK A02 SLP095 T02760232 PA103 DA1958=
0140008415999992016011515534+07300+134200FM-15+000099999V0200601N005119999999N999999999+02761+02291100921ADDMA1100911999999OC100721REMMET105MOBOB2 METAR XM21 //000 073342 151553Z AUTO 06010G14KT 28/23 A2980 RMK A02 SLP092 T02760229 PA112 DA1963=
0140008415999992016011516534+07300+134200FM-15+000099999V0200501N005719999999N999999999+02741+02361100851ADDMA1100851999999OC100771REMMET105MOBOB2 METAR XM21 //000 073342 151653Z AUTO 05011G15KT 27/24 A2978 RMK A02 SLP085 T02740236 PA131 DA1978=
0140008415999992016011517534+07300+134200FM-15+000099999V0200701N006219999999N999999999+02751+02301100821ADDMA1100811999999OC100821REMMET105MOBOB2 METAR XM21 //000 073342 151753Z AUTO 07012G16KT 28/23 A2977 RMK A02 SLP082 T02750230 PA140 DA1989=
0140008415999992016011518534+07300+134200FM-15+000099999V0200701N005119999999N999999999+02741+02291100781ADDMA1100781999999OC100721REMMET105MOBOB2 METAR XM21 //000 073342 151853Z AUTO 07010G14KT 27/23 A2976 RMK A02 SLP078 T02740229 PA149 DA1987=
0129008415999992016011519534+07300+134200FM-15+000099999V0200601N004619999999N999999999+02741+02301100781ADDMA1100781999999REMMET102MOBOB2 METAR XM21 //000 073342 151953Z AUTO 06009KT 27/23 A2976 RMK A02 SLP078 T02740230 PA149 DA1990=
0140008415999992016011520534+07300+134200FM-15+000099999V0200601N005719999999N999999999+02731+02311100851ADDMA1100851999999OC100771REMMET105MOBOB2 METAR XM21 //000 073342 152053Z AUTO 06011G15KT 27/23 A2978 RMK A02 SLP085 T02730231 PA131 DA1958=
0140008415999992016011521534+07300+134200FM-15+000099999V0200601N004619999999N999999999+02731+02331100951ADDMA1100951999999OC100671REMMET105MOBOB2 METAR XM21 //000 073342 152153Z AUTO 06009G13KT 27/23 A2981 RMK A02 SLP095 T02730233 PA103 DA1927=
0140008415999992016011522534+07300+134200FM-15+000099999V0200701N004619999999N999999999+02771+02331100991ADDMA1100981999999OC100821REMMET105MOBOB2 METAR XM21 //000 073342 152253Z AUTO 07009G16KT 28/23 A2982 RMK A02 SLP099 T02770233 PA094 DA1960=
0129008415999992016011523534+07300+134200FM-15+000099999V0200601N004619999999N999999999+02791+02351101021ADDMA1101021999999REMMET102MOBOB2 METAR XM21 //000 073342 152353Z AUTO 06009KT 28/23 A2983 RMK A02 SLP102 T02790235 PA084 DA1976=
0140008415999992016011600534+07300+134200FM-15+000099999V0200801N005119999999N999999999+02841+02321101021ADDMA1101021999999OC100671REMMET105MOBOB2 METAR XM21 //000 073342 160053Z AUTO 08010G13KT 28/23 A2983 RMK A02 SLP102 T02840232 PA084 DA2026=
0140008415999992016011601534+07300+134200FM-15+000099999V0200901N005719999999N999999999+02871+02291100951ADDMA1100951999999OC100721REMMET105MOBOB2 METAR XM21 //000 073342 160153Z AUTO 09011G14KT 29/23 A2981 RMK A02 SLP095 T02870229 PA103 DA2074=
0129008415999992016011602534+07300+134200FM-15+000099999V0200901N004119999999N999999999+02881+02341100921ADDMA1100911999999REMMET102MOBOB2 METAR XM21 //000 073342 160253Z AUTO 09008KT 29/23 A2980 RMK A02 SLP092 T02880234 PA112 DA2110=
0129008415999992016011603534+07300+134200FM-15+000099999V0201101N004119999999N999999999+02821+02351100851ADDMA1100851999999REMMET102MOBOB2 METAR XM21 //000 073342 160353Z AUTO 11008KT 28/23 A2978 RMK A02 SLP085 T02820235 PA131 DA2066=
0140008415999992016011604534+07300+134200FM-15+000099999V0200801N004619999999N999999999+02881+02361100781ADDMA1100781999999OC100621REMMET105MOBOB2 METAR XM21 //000 073342 160453Z AUTO 08009G12KT 29/24 A2976 RMK A02 SLP078 T02880236 PA149 DA2159=
0140008415999992016011605534+07300+134200FM-15+000099999V0200701N005719999999N999999999+02871+02341100751ADDMA1100741999999OC100671REMMET105MOBOB2 METAR XM21 //000 073342 160553Z AUTO 07011G13KT 29/23 A2975 RMK A02 SLP075 T02870234 PA159 DA2154=
0129008415999992016011606534+07300+134200FM-15+000099999V0200901N004119999999N999999999+02871+02281100781ADDMA1100781999999REMMET102MOBOB2 METAR XM21 //000 073342 160653Z AUTO 09008KT 29/23 A2976 RMK A02 SLP078 T02870228 PA149 DA2131=
0140008415999992016011607534+07300+134200FM-15+000099999V0200701N005719999999N999999999+02861+02361100821ADDMA1100811999999OC100671REMMET105MOBOB2 METAR XM21 //000 073342 160753Z AUTO 07011G13KT 29/24 A2977 RMK A02 SLP082 T02860236 PA140 DA2126=
0129008415999992016011608534+07300+134200FM-15+000099999V0200701N004119999999N999999999+02841+02351100851ADDMA1100851999999REMMET102MOBOB2 METAR XM21 //000 073342 160853Z AUTO 07008KT 28/23 A2978 RMK A02 SLP085 T02840235 PA131 DA2088=
0140008415999992016011609534+07300+134200FM-15+000099999V0200601N005119999999N999999999+02811+02311100891ADDMA1100881999999OC100671REMMET105MOBOB2 METAR XM21 //000 073342 160953Z AUTO 06010G13KT 28/23 A2979 RMK A02 SLP089 T02810231 PA122 DA2035=
0140008415999992016011610534+07300+134200FM-15+000099999V0200601N006219999999N999999999+02781+02391100951ADDMA1100951999999OC100771REMMET105MOBOB2 METAR XM21 //000 073342 161053Z AUTO 06012G15KT 28/24 A2981 RMK A02 SLP095 T02780239 PA103 DA1997=
0140008415999992016011611534+07300+134200FM-15+000099999V0200701N005719999999N999999999+02761+02361100991ADDMA1100981999999OC100721REMMET105MOBOB2 METAR XM21 //000 073342 161153Z AUTO 07011G14KT 28/24 A2982 RMK A02 SLP099 T02760236 PA094 DA1956=
0129008415999992016011612534+07300+134200FM-15+000099999V0200601N004619999999N999999999+02751+02371100991ADDMA1100981999999REMMET102MOBOB2 METAR XM21 //000 073342 161253Z AUTO 06009KT 28/24 A2982 RMK A02 SLP099 T02750237 PA094 DA1947=
0140008415999992016011613534+07300+134200FM-15+000099999V0200701N005119999999N999999999+02751+02341100991ADDMA1100981999999OC100671REMMET105MOBOB2 METAR XM21 //000 073342 161353Z AUTO 07010G13KT 28/23 A2982 RMK A02 SLP099 T02750234 PA094 DA1940=
0129008415999992016011614534+07300+134200FM-15+000099999V0200701N003619999999N999999999+02741+02251100991ADDMA1100981999999REMMET102MOBOB2 METAR XM21 //000 073342 161453Z AUTO 07007KT 27/23 A2982 RMK A02 SLP099 T02740225 PA094 DA1911=
0129008415999992016011615534+07300+134200FM-15+000099999V0200701N003119999999N999999999+02741+02301100951ADDMA1100951999999REMMET102MOBOB2 METAR XM21 //000 073342 161553Z AUTO 07006KT 27/23 A2981 RMK A02 SLP095 T02740230 PA103 DA1931=
0129008415999992016011616534+07300+134200FM-15+000099999V0200701N002619999999N999999999+02721+02281100921ADDMA1100911999999REMMET102MOBOB2 METAR XM21 //000 073342 161653Z AUTO 07005KT 27/23 A2980 RMK A02 SLP092 T02720228 PA112 DA1916=
0129008415999992016011617534+07300+134200FM-15+000099999V0200601N003619999999N999999999+02721+02291100851ADDMA1100851999999REMMET102MOBOB2 METAR XM21 //000 073342 161753Z AUTO 06007KT 27/23 A2978 RMK A02 SLP085 T02720229 PA131 DA1942=
0129008415999992016011618534+07300+134200FM-15+000099999V0200601N003619999999N999999999+02721+02331100851ADDMA1100851999999REMMET102MOBOB2 METAR XM21 //000 073342 161853Z AUTO 06007KT 27/23 A2978 RMK A02 SLP085 T02720233 PA131 DA1950=
0129008415999992016011619534+07300+134200FM-15+000099999V0200501N004119999999N999999999+02711+02291100891ADDMA1100881999999REMMET102MOBOB2 METAR XM21 //000 073342 161953Z AUTO 05008KT 27/23 A2979 RMK A02 SLP089 T02710229 PA122 DA1919=
0129008415999992016011620534+07300+134200FM-15+000099999V0200301N004119999999N999999999+02721+02361100921ADDMA1100911999999REMMET102MOBOB2 METAR XM21 //000 073342 162053Z AUTO 03008KT 27/24 A2980 RMK A02 SLP092 T02720236 PA112 DA1934=
0129008415999992016011621534+07300+134200FM-15+000099999V0200501N004619999999N999999999+02731+02341100991ADDMA1100981999999REMMET102MOBOB2 METAR XM21 //000 073342 162153Z AUTO 05009KT 27/23 A2982 RMK A02 SLP099 T02730234 PA094 DA1917=
0129008415999992016011622534+07300+134200FM-15+000099999V0200601N004619999999N999999999+02751+02341101091ADDMA1101081999999REMMET102MOBOB2 METAR XM21 //000 073342 162253Z AUTO 06009KT 28/23 A2985 RMK A02 SLP109 T02750234 PA066 DA1906=
0129008415999992016011623534+07300+134200FM-15+000099999V0200401N004619999999N999999999+02751+02361101121ADDMA1101121999999REMMET102MOBOB2 METAR XM21 //000 073342 162353Z AUTO 04009KT 28/24 A2986 RMK A02 SLP112 T02750236 PA057 DA1899=
0129008415999992016011700534+07300+134200FM-15+000099999V0200501N004119999999N999999999+02771+02381101091ADDMA1101081999999REMMET102MOBOB2 METAR XM21 //000 073342 170053Z AUTO 05008KT 28/24 A2985 RMK A02 SLP109 T02770238 PA066 DA1937=
0129008415999992016011701534+07300+134200FM-15+000099999V0200401N003119999999N999999999+02791+02331101061ADDMA1101051999999REMMET102MOBOB2 METAR XM21 //000 073342 170153Z AUTO 04006KT 28/23 A2984 RMK A02 SLP106 T02790233 PA075 DA1961=
0129008415999992016011702534+07300+134200FM-15+000099999V0200201N003119999999N999999999+02741+02391100951ADDMA1100951999999REMMET102MOBOB2 METAR XM21 //000 073342 170253Z AUTO 02006KT 27/24 A2981 RMK A02 SLP095 T02740239 PA103 DA1952=
0129008415999992016011703534+07300+134200FM-15+000099999V0200101N002119999999N999999999+02821+02381100851ADDMA1100851999999REMMET102MOBOB2 METAR XM21 //000 073342 170353Z AUTO 01004KT 28/24 A2978 RMK A02 SLP085 T02820238 PA131 DA2074=
0140008415999992016011704534+07300+134200FM-15+000099999V0200801N005719999999N999999999+02831+02291100781ADDMA1100781999999OC100821REMMET105MOBOB2 METAR XM21 //000 073342 170453Z AUTO 08011G16KT 28/23 A2976 RMK A02 SLP078 T02830229 PA149 DA2087=
0129008415999992016011705534+07300+134200FM-15+000099999V0201001N003619999999N999999999+02901+02311100751ADDMA1100741999999REMMET102MOBOB2 METAR XM21 //000 073342 170553Z AUTO 10007KT 29/23 A2975 RMK A02 SLP075 T02900231 PA159 DA2182=
0129008415999992016011706534+07300+134200FM-15+000099999V0200701N004619999999N999999999+02891+02321100751ADDMA1100741999999REMMET102MOBOB2 METAR XM21 //000 073342 170653Z AUTO 07009KT 29/23 A2975 RMK A02 SLP075 T02890232 PA159 DA2172=
0129008415999992016011707534+07300+134200FM-15+000099999V0200801N004119999999N999999999+02891+02361100781ADDMA1100781999999REMMET102MOBOB2 METAR XM21 //000 073342 170753Z AUTO 08008KT 29/24 A2976 RMK A02 SLP078 T02890236 PA149 DA2171=
0140008415999992016011708534+07300+134200FM-15+000099999V0200801N005119999999N999999999+02841+02331100851ADDMA1100851999999OC100671REMMET105MOBOB2 METAR XM21 //000 073342 170853Z AUTO 08010G13KT 28/23 A2978 RMK A02 SLP085 T02840233 PA131 DA2085=
0140008415999992016011709534+07300+134200FM-15+000099999V0200901N005119999999N999999999+02801+02361100921ADDMA1100911999999OC100671REMMET105MOBOB2 METAR XM21 //000 073342 170953Z AUTO 09010G13KT 28/24 A2980 RMK A02 SLP092 T02800236 PA112 DA2023=
0140008415999992016011710534+07300+134200FM-15+000099999V0200801N005119999999N999999999+02781+02391100951ADDMA1100951999999OC100671REMMET105MOBOB2 METAR XM21 //000 073342 171053Z AUTO 08010G13KT 28/24 A2981 RMK A02 SLP095 T02780239 PA103 DA1998=
0167008415999992016011711534+07300+134200FM-15+000099999V0200801N004619999999N999999999+02731+02331101021ADDAA101000021AW1611MA1101021999999OC100621REMMET115MOBOB2 METAR XM21 //000 073342 171153Z AUTO 08009G12KT -RA 27/23 A2983 RMK A02 SLP102 P0000 T02730233 PA084 DA1904=
0129008415999992016011712534+07300+134200FM-15+000099999V0200601N004619999999N999999999+02761+02381101061ADDMA1101051999999REMMET102MOBOB2 METAR XM21 //000 073342 171253Z AUTO 06009KT 28/24 A2984 RMK A02 SLP106 T02760238 PA075 DA1938=
0140008415999992016011713534+07300+134200FM-15+000099999V0200701N005119999999N999999999+02761+02371101021ADDMA1101021999999OC100721REMMET105MOBOB2 METAR XM21 //000 073342 171353Z AUTO 07010G14KT 28/24 A2983 RMK A02 SLP102 T02760237 PA084 DA1946=
0167008415999992016011714534+07300+134200FM-15+000099999V0200501N005719999999N999999999+02721+02421100991ADDAA101000731AW1611MA1100981999999OC100771REMMET115MOBOB2 METAR XM21 //000 073342 171453Z AUTO 05011G15KT -RA 27/24 A2982 RMK A02 SLP099 P0003 T02720242 PA094 DA1924=
0140008415999992016011715534+07300+134200FM-15+000099999V0200801N006219999999N999999999+02781+02361100951ADDMA1100951999999OC100771REMMET105MOBOB2 METAR XM21 //000 073342 171553Z AUTO 08012G15KT 28/24 A2981 RMK A02 SLP095 T02780236 PA103 DA1990=
0140008415999992016011716534+07300+134200FM-15+000099999V0200801N005119999999N999999999+02761+02301100851ADDMA1100851999999OC100671REMMET105MOBOB2 METAR XM21 //000 073342 171653Z AUTO 08010G13KT 28/23 A2978 RMK A02 SLP085 T02760230 PA131 DA1988=
0140008415999992016011717534+07300+134200FM-15+000099999V0200801N006719999999N999999999+02761+02281100821ADDMA1100811999999OC100821REMMET105MOBOB2 METAR XM21 //000 073342 171753Z AUTO 08013G16KT 28/23 A2977 RMK A02 SLP082 T02760228 PA140 DA1995=
0140008415999992016011718534+07300+134200FM-15+000099999V0200901N006219999999N999999999+02761+02261100781ADDMA1100781999999OC100721REMMET105MOBOB2 METAR XM21 //000 073342 171853Z AUTO 09012G14KT 28/23 A2976 RMK A02 SLP078 T02760226 PA149 DA2003=
0140008415999992016011719534+07300+134200FM-15+000099999V0200801N005119999999N999999999+02761+02291100821ADDMA1100811999999OC100771REMMET105MOBOB2 METAR XM21 //000 073342 171953Z AUTO 08010G15KT 28/23 A2977 RMK A02 SLP082 T02760229 PA140 DA1997=
0140008415999992016011720534+07300+134200FM-15+000099999V0200601N005719999999N999999999+02761+02291100891ADDMA1100881999999OC100771REMMET105MOBOB2 METAR XM21 //000 073342 172053Z AUTO 06011G15KT 28/23 A2979 RMK A02 SLP089 T02760229 PA122 DA1976=
0140008415999992016011721534+07300+134200FM-15+000099999V0200701N005119999999N999999999+02771+02311100991ADDMA1100981999999OC100721REMMET105MOBOB2 METAR XM21 //000 073342 172153Z AUTO 07010G14KT 28/23 A2982 RMK A02 SLP099 T02770231 PA094 DA1955=
0140008415999992016011722534+07300+134200FM-15+000099999V0200701N005119999999N999999999+02771+02361101061ADDMA1101051999999OC100671REMMET105MOBOB2 METAR XM21 //000 073342 172253Z AUTO 07010G13KT 28/24 A2984 RMK A02 SLP106 T02770236 PA075 DA1943=
0129008415999992016011723534+07300+134200FM-15+000099999V0200801N003119999999N999999999+02821+02301101121ADDMA1101121999999REMMET102MOBOB2 METAR XM21 //000 073342 172353Z AUTO 08006KT 28/23 A2986 RMK A02 SLP112 T02820230 PA057 DA1965=
0140008415999992016011800534+07300+134200FM-15+000099999V0200801N005119999999N999999999+02841+02341101121ADDMA1101121999999OC100671REMMET105MOBOB2 METAR XM21 //000 073342 180053Z AUTO 08010G13KT 28/23 A2986 RMK A02 SLP112 T02840234 PA057 DA1994=
0140008415999992016011801534+07300+134200FM-15+000099999V0200701N004619999999N999999999+02861+02321101091ADDMA1101081999999OC100621REMMET105MOBOB2 METAR XM21 //000 073342 180153Z AUTO 07009G12KT 29/23 A2985 RMK A02 SLP109 T02860232 PA066 DA2026=
0129008415999992016011802534+07300+134200FM-15+000099999V0200701N004119999999N999999999+02871+02271101021ADDMA1101021999999REMMET102MOBOB2 METAR XM21 //000 073342 180253Z AUTO 07008KT 29/23 A2983 RMK A02 SLP102 T02870227 PA084 DA2048=
0140008415999992016011803534+07300+134200FM-15+000099999V0200101N005119999999N999999999+02781+02371100951ADDMA1100951999999OC100621REMMET105MOBOB2 METAR XM21 //000 073342 180353Z AUTO 01010G12KT 28/24 A2981 RMK A02 SLP095 T02780237 PA103 DA1992=
