0129008418999992016010100534+03000+131800FM-15+000099999V0200301N003119999999N999999999+02871+02401101341ADDMA1101321999999REMMET102MOBOB2 METAR XM24 //000 030318 010053Z AUTO 03006KT 29/24 A2992 RMK A02 SLP134 T02870240 PA001 DA1975=
0129008418999992016010101534+03000+131800FM-15+000099999V0200501N004119999999N999999999+02871+02411101311ADDMA1101291999999REMMET102MOBOB2 METAR XM24 //000 030318 010153Z AUTO 05008KT 29/24 A2991 RMK A02 SLP131 T02870241 PA010 DA1987=
0129008418999992016010102544+03000+131800FM-15+000099999V0200601N005119999999N999999999+02911+02411101281ADDMA1101251999999REMMET102MOBOB2 METAR XM24 //000 030318 010254Z AUTO 06010KT 29/24 A2990 RMK A02 SLP128 T02910241 PA020 DA2043=
0129008418999992016010103534+03000+131800FM-15+000099999V0200601N004619999999N999999999+02931+02431101171ADDMA1101151999999REMMET102MOBOB2 METAR XM24 //000 030318 010353Z AUTO 06009KT 29/24 A2987 RMK A02 SLP117 T02930243 PA047 DA2104=
0167008418999992016010104534+03000+131800FM-15+000099999V0200701N006719999999N999999999+02761+02381101111ADDAA101000021AW1611MA1101081999999OC100821REMMET115MOBOB2 METAR XM24 //000 030318 010453Z AUTO 07013G16KT -RA 28/24 A2985 RMK A02 SLP111 P0000 T02760238 PA066 DA1927=
0140008418999992016010105534+03000+131800FM-15+000099999V0200401N006719999999N999999999+02751+02331101071ADDMA1101051999999OC100821REMMET105MOBOB2 METAR XM24 //000 030318 010553Z AUTO 04013G16KT 28/23 A2984 RMK A02 SLP107 T02750233 PA075 DA1916=
0140008418999992016010106534+03000+131800FM-15+000099999V0200601N007219999999N999999999+02781+02361101071ADDMA1101051999999OC100881REMMET105MOBOB2 METAR XM24 //000 030318 010653Z AUTO 06014G17KT 28/24 A2984 RMK A02 SLP107 T02780236 PA075 DA1957=
0140008418999992016010107534+03000+131800FM-15+000099999V0200601N005119999999N999999999+02781+02381101111ADDMA1101081999999OC100671REMMET105MOBOB2 METAR XM24 //000 030318 010753Z AUTO 06010G13KT 28/24 A2985 RMK A02 SLP111 T02780238 PA066 DA1948=
0129008418999992016010108534+03000+131800FM-15+000099999V0200701N003619999999N999999999+02751+02401101141ADDMA1101121999999REMMET102MOBOB2 METAR XM24 //000 030318 010853Z AUTO 07007KT 28/24 A2986 RMK A02 SLP114 T02750240 PA057 DA1908=
0129008418999992016010109534+03000+131800FM-15+000099999V0200701N002119999999N999999999+02771+02451101171ADDMA1101151999999REMMET102MOBOB2 METAR XM24 //000 030318 010953Z AUTO 07004KT 28/24 A2987 RMK A02 SLP117 T02770245 PA047 DA1930=
0140008418999992016010110544+03000+131800FM-15+000099999V0200601N005719999999N999999999+02851+02411101211ADDMA1101181999999OC100771REMMET105MOBOB2 METAR XM24 //000 030318 011054Z AUTO 06011G15KT 29/24 A2988 RMK A02 SLP121 T02850241 PA038 DA1999=
0140008418999992016010111534+03000+131800FM-15+000099999V0200701N005119999999N999999999+02821+02411101311ADDMA1101291999999OC100621REMMET105MOBOB2 METAR XM24 //000 030318 011153Z AUTO 07010G12KT 28/24 A2991 RMK A02 SLP131 T02820241 PA010 DA1931=
0167008418999992016010112534+03000+131800FM-15+000099999V0200701N005119999999N999999999+02841+02471101311ADDAA101000021AW1611MA1101291999999OC100671REMMET115MOBOB2 METAR XM24 //000 030318 011253Z AUTO 07010G13KT -RA 28/25 A2991 RMK A02 SLP131 P0000 T02840247 PA010 DA1969=
0140008418999992016010113534+03000+131800FM-15+000099999V0200601N005719999999N999999999+02851+02421101281ADDMA1101251999999OC100671REMMET105MOBOB2 METAR XM24 //000 030318 011353Z AUTO 06011G13KT 29/24 A2990 RMK A02 SLP128 T02850242 PA020 DA1978=
0140008418999992016010114534+03000+131800FM-15+000099999V0200501N005719999999N999999999+02841+02371101281ADDMA1101251999999OC100671REMMET105MOBOB2 METAR XM24 //000 030318 011453Z AUTO 05011G13KT 28/24 A2990 RMK A02 SLP128 T02840237 PA020 DA1957=
0129008418999992016010115534+03000+131800FM-15+000099999V0200601N005119999999N999999999+02841+02421101211ADDMA1101181999999REMMET102MOBOB2 METAR XM24 //000 030318 011553Z AUTO 06010KT 28/24 A2988 RMK A02 SLP121 T02840242 PA038 DA1991=
0167008418999992016010116534+03000+131800FM-15+000099999V0200701N005719999999N999999999+02841+02401101141ADDAA101000021AW1611MA1101121999999OC100671REMMET115MOBOB2 METAR XM24 //000 030318 011653Z AUTO 07011G13KT -RA 28/24 A2986 RMK A02 SLP114 P0000 T02840240 PA057 DA2008=
0140008418999992016010117534+03000+131800FM-15+000099999V0200401N005719999999N999999999+02771+02411101111ADDMA1101081999999OC100721REMMET105MOBOB2 METAR XM24 //000 030318 011753Z AUTO 04011G14KT 28/24 A2985 RMK A02 SLP111 T02770241 PA066 DA1945=
0140008418999992016010118534+03000+131800FM-15+000099999V0200301N005719999999N999999999+02761+02461101111ADDMA1101081999999OC100771REMMET105MOBOB2 METAR XM24 //000 030318 011853Z AUTO 03011G15KT 28/25 A2985 RMK A02 SLP111 T02760246 PA066 DA1944=
0167008418999992016010119534+03000+131800FM-15+000099999V0200501N008819999999N999999999+02681+02271101111ADDAA101000021AW1611MA1101081999999OC101081REMMET115MOBOB2 METAR XM24 //000 030318 011953Z AUTO 05017G21KT -RA 27/23 A2985 RMK A02 SLP111 P0000 T02680227 PA066 DA1811=
0140008418999992016010120534+03000+131800FM-15+000099999V0200601N007219999999N999999999+02811+02411101171ADDMA1101151999999OC100881REMMET105MOBOB2 METAR XM24 //000 030318 012053Z AUTO 06014G17KT 28/24 A2987 RMK A02 SLP117 T02810241 PA047 DA1966=
0140008418999992016010121534+03000+131800FM-15+000099999V0200701N005119999999N999999999+02821+02411101241ADDMA1101221999999OC100671REMMET105MOBOB2 METAR XM24 //000 030318 012153Z AUTO 07010G13KT 28/24 A2989 RMK A02 SLP124 T02820241 PA029 DA1956=
0140008418999992016010122534+03000+131800FM-15+000099999V0200701N005119999999N999999999+02781+02361101311ADDMA1101291999999OC100621REMMET105MOBOB2 METAR XM24 //000 030318 012253Z AUTO 07010G12KT 28/24 A2991 RMK A02 SLP131 T02780236 PA010 DA1877=
0140008418999992016010123534+03000+131800FM-15+000099999V0200701N008819999999N999999999+02781+02391101311ADDMA1101291999999OC101081REMMET105MOBOB2 METAR XM24 //000 030318 012353Z AUTO 07017G21KT 28/24 A2991 RMK A02 SLP131 T02780239 PA010 DA1883=
0140008418999992016010200534+03000+131800FM-15+000099999V0200701N005719999999N999999999+02871+02341101311ADDMA1101291999999OC100721REMMET105MOBOB2 METAR XM24 //000 030318 020053Z AUTO 07011G14KT 29/23 A2991 RMK A02 SLP131 T02870234 PA010 DA1973=
0167008418999992016010201544+03000+131800FM-15+000099999V0200701N005119999999N999999999+02861+02391101241ADDAA101000021AW1611MA1101221999999OC100771REMMET115MOBOB2 METAR XM24 //000 030318 020154Z AUTO 07010G15KT -RA 29/24 A2989 RMK A02 SLP124 P0000 T02860239 PA029 DA1995=
0140008418999992016010202534+03000+131800FM-15+000099999V0200701N006719999999N999999999+02921+02371101171ADDMA1101151999999OC100821REMMET105MOBOB2 METAR XM24 //000 030318 020253Z AUTO 07013G16KT 29/24 A2987 RMK A02 SLP117 T02920237 PA047 DA2081=
0140008418999992016010203534+03000+131800FM-15+000099999V0200601N005719999999N999999999+02921+02411101111ADDMA1101081999999OC100721REMMET105MOBOB2 METAR XM24 //000 030318 020353Z AUTO 06011G14KT 29/24 A2985 RMK A02 SLP111 T02920241 PA066 DA2112=
0167008418999992016010204534+03000+131800FM-15+000099999V0200701N008219999999N999999999+02741+02351101041ADDAA101000021AW1611MA1101021999999OC101031REMMET115MOBOB2 METAR XM24 //000 030318 020453Z AUTO 07016G20KT -RA 27/23 A2983 RMK A02 SLP104 P0000 T02740235 PA084 DA1920=
0140008418999992016010205534+03000+131800FM-15+000099999V0200501N005719999999N999999999+02881+02401100971ADDMA1100951999999OC100671REMMET105MOBOB2 METAR XM24 //000 030318 020553Z AUTO 05011G13KT 29/24 A2981 RMK A02 SLP097 T02880240 PA103 DA2110=
0140008418999992016010206534+03000+131800FM-15+000099999V0200401N006219999999N999999999+02821+02411100971ADDMA1100951999999OC100771REMMET105MOBOB2 METAR XM24 //000 030318 020653Z AUTO 04012G15KT 28/24 A2981 RMK A02 SLP097 T02820241 PA103 DA2046=
0140008418999992016010207534+03000+131800FM-15+000099999V0200801N005119999999N999999999+02821+02431101001ADDMA1100981999999OC100671REMMET105MOBOB2 METAR XM24 //000 030318 020753Z AUTO 08010G13KT 28/24 A2982 RMK A02 SLP100 T02820243 PA094 DA2040=
0167008418999992016010208534+03000+131800FM-15+000099999V0200701N006719999999N999999999+02681+02331101041ADDAA101001531AW1631MA1101021999999OC101241REMMET115MOBOB2 METAR XM24 //000 030318 020853Z AUTO 07013G24KT +RA 27/23 A2983 RMK A02 SLP104 P0006 T02680233 PA084 DA1849=
0167008418999992016010209534+03000+131800FM-15+000099999V0200701N006719999999N999999999+02751+02261101071ADDAA101001531AW1611MA1101051999999OC100821REMMET115MOBOB2 METAR XM24 //000 030318 020953Z AUTO 07013G16KT -RA 28/23 A2984 RMK A02 SLP107 P0006 T02750226 PA075 DA1901=
0140008418999992016010210534+03000+131800FM-15+000099999V0200601N007719999999N999999999+02811+02331101141ADDMA1101121999999OC100981REMMET105MOBOB2 METAR XM24 //000 030318 021053Z AUTO 06015G19KT 28/23 A2986 RMK A02 SLP114 T02810233 PA057 DA1959=
0167008418999992016010211534+03000+131800FM-15+000099999V0200501N009319999999N999999999+02751+02391101211ADDAA101000021AW1611MA1101181999999OC101181REMMET115MOBOB2 METAR XM24 //000 030318 021153Z AUTO 05018G23KT -RA 28/24 A2988 RMK A02 SLP121 P0000 T02750239 PA038 DA1883=
0140008418999992016010212534+03000+131800FM-15+000099999V0200601N009819999999N999999999+02721+02341101241ADDMA1101221999999OC101241REMMET105MOBOB2 METAR XM24 //000 030318 021253Z AUTO 06019G24KT 27/23 A2989 RMK A02 SLP124 T02720234 PA029 DA1827=
0167008418999992016010213534+03000+131800FM-15+000099999V0200401N007719999999N999999999+02721+02211101241ADDAA101000021AW1611MA1101221999999OC101031REMMET115MOBOB2 METAR XM24 //000 030318 021353Z AUTO 04015G20KT -RA 27/22 A2989 RMK A02 SLP124 P0000 T02720221 PA029 DA1799=
0140008418999992016010214534+03000+131800FM-15+000099999V0200601N006219999999N999999999+02861+02431101211ADDMA1101181999999OC101031REMMET105MOBOB2 METAR XM24 //000 030318 021453Z AUTO 06012G20KT 29/24 A2988 RMK A02 SLP121 T02860243 PA038 DA2016=
0167008418999992016010215534+03000+131800FM-15+000099999V0200901N007219999999N999999999+02671+02401101141ADDAA101000021AW1611MA1101121999999OC100881REMMET115MOBOB2 METAR XM24 //000 030318 021553Z AUTO 09014G17KT -RA 27/24 A2986 RMK A02 SLP114 P0000 T02670240 PA057 DA1818=
0140008418999992016010216534+03000+131800FM-15+000099999V0200601N005119999999N999999999+02781+02381101041ADDMA1101021999999OC100771REMMET105MOBOB2 METAR XM24 //000 030318 021653Z AUTO 06010G15KT 28/24 A2983 RMK A02 SLP104 T02780238 PA084 DA1971=
0140008418999992016010217534+03000+131800FM-15+000099999V0200501N006719999999N999999999+02841+02341101001ADDMA1100981999999OC100821REMMET105MOBOB2 METAR XM24 //000 030318 021753Z AUTO 05013G16KT 28/23 A2982 RMK A02 SLP100 T02840234 PA094 DA2041=
0140008418999992016010218534+03000+131800FM-15+000099999V0200501N007219999999N999999999+02851+02431100971ADDMA1100951999999OC100881REMMET105MOBOB2 METAR XM24 //000 030318 021853Z AUTO 05014G17KT 29/24 A2981 RMK A02 SLP097 T02850243 PA103 DA2084=
0140008418999992016010219534+03000+131800FM-15+000099999V0200401N006719999999N999999999+02841+02361101041ADDMA1101021999999OC100821REMMET105MOBOB2 METAR XM24 //000 030318 021953Z AUTO 04013G16KT 28/24 A2983 RMK A02 SLP104 T02840236 PA084 DA2035=
0140008418999992016010220534+03000+131800FM-15+000099999V0200401N006719999999N999999999+02821+02341101141ADDMA1101121999999OC100881REMMET105MOBOB2 METAR XM24 //000 030318 022053Z AUTO 04013G17KT 28/23 A2986 RMK A02 SLP114 T02820234 PA057 DA1973=
0140008418999992016010221534+03000+131800FM-15+000099999V0200501N006719999999N999999999+02831+02331101211ADDMA1101181999999OC100821REMMET105MOBOB2 METAR XM24 //000 030318 022153Z AUTO 05013G16KT 28/23 A2988 RMK A02 SLP121 T02830233 PA038 DA1960=
0140008418999992016010222534+03000+131800FM-15+000099999V0200501N006719999999N999999999+02841+02301101281ADDMA1101251999999OC100821REMMET105MOBOB2 METAR XM24 //000 030318 022253Z AUTO 05013G16KT 28/23 A2990 RMK A02 SLP128 T02840230 PA020 DA1941=
0140008418999992016010223534+03000+131800FM-15+000099999V0200501N007219999999N999999999+02881+02341101311ADDMA1101291999999OC100881REMMET105MOBOB2 METAR XM24 //000 030318 022353Z AUTO 05014G17KT 29/23 A2991 RMK A02 SLP131 T02880234 PA010 DA1983=
0140008418999992016010300534+03000+131800FM-15+000099999V0200501N006219999999N999999999+02891+02351101311ADDMA1101291999999OC100771REMMET105MOBOB2 METAR XM24 //000 030318 030053Z AUTO 05012G15KT 29/24 A2991 RMK A02 SLP131 T02890235 PA010 DA1997=
0140008418999992016010301534+03000+131800FM-15+000099999V0200401N005119999999N999999999+02881+02371101311ADDMA1101291999999OC100671REMMET105MOBOB2 METAR XM24 //000 030318 030153Z AUTO 04010G13KT 29/24 A2991 RMK A02 SLP131 T02880237 PA010 DA1989=
0140008418999992016010302534+03000+131800FM-15+000099999V0200601N005719999999N999999999+02911+02371101241ADDMA1101221999999OC100621REMMET105MOBOB2 METAR XM24 //000 030318 030253Z AUTO 06011G12KT 29/24 A2989 RMK A02 SLP124 T02910237 PA029 DA2046=
0140008418999992016010303534+03000+131800FM-15+000099999V0200501N005119999999N999999999+02901+02331101171ADDMA1101151999999OC100671REMMET105MOBOB2 METAR XM24 //000 030318 030353Z AUTO 05010G13KT 29/23 A2987 RMK A02 SLP117 T02900233 PA047 DA2049=
0129008418999992016010304534+03000+131800FM-15+000099999V0200501N004619999999N999999999+02901+02331101111ADDMA1101081999999REMMET102MOBOB2 METAR XM24 //000 030318 030453Z AUTO 05009KT 29/23 A2985 RMK A02 SLP111 T02900233 PA066 DA2071=
0129008418999992016010305534+03000+131800FM-15+000099999V0200501N004619999999N999999999+02901+02381101041ADDMA1101021999999REMMET102MOBOB2 METAR XM24 //000 030318 030553Z AUTO 05009KT 29/24 A2983 RMK A02 SLP104 T02900238 PA084 DA2105=
0129008418999992016010306534+03000+131800FM-15+000099999V0200501N004119999999N999999999+02921+02391101041ADDMA1101021999999REMMET102MOBOB2 METAR XM24 //000 030318 030653Z AUTO 05008KT 29/24 A2983 RMK A02 SLP104 T02920239 PA084 DA2129=
0129008418999992016010307534+03000+131800FM-15+000099999V0200501N004619999999N999999999+02891+02351101041ADDMA1101021999999REMMET102MOBOB2 METAR XM24 //000 030318 030753Z AUTO 05009KT 29/24 A2983 RMK A02 SLP104 T02890235 PA084 DA2088=
0129008418999992016010308534+03000+131800FM-15+000099999V0200501N004119999999N999999999+02861+02361101141ADDMA1101121999999REMMET102MOBOB2 METAR XM24 //000 030318 030853Z AUTO 05008KT 29/24 A2986 RMK A02 SLP114 T02860236 PA057 DA2023=
0129008418999992016010309534+03000+131800FM-15+000099999V0200401N004619999999N999999999+02841+02361101211ADDMA1101181999999REMMET102MOBOB2 METAR XM24 //000 030318 030953Z AUTO 04009KT 28/24 A2988 RMK A02 SLP121 T02840236 PA038 DA1976=
0129008418999992016010310534+03000+131800FM-15+000099999V0200401N004119999999N999999999+02841+02371101281ADDMA1101251999999REMMET102MOBOB2 METAR XM24 //000 030318 031053Z AUTO 04008KT 28/24 A2990 RMK A02 SLP128 T02840237 PA020 DA1956=
0129008418999992016010311534+03000+131800FM-15+000099999V0200301N002119999999N999999999+02811+02391101341ADDMA1101321999999REMMET102MOBOB2 METAR XM24 //000 030318 031153Z AUTO 03004KT 28/24 A2992 RMK A02 SLP134 T02810239 PA001 DA1904=
0129008418999992016010312534+03000+131800FM-15+000099999V0200401N004119999999N999999999+02821+02381101341ADDMA1101321999999REMMET102MOBOB2 METAR XM24 //000 030318 031253Z AUTO 04008KT 28/24 A2992 RMK A02 SLP134 T02820238 PA001 DA1913=
0129008418999992016010313534+03000+131800FM-15+000099999V0200301N003119999999N999999999+02811+02381101341ADDMA1101321999999REMMET102MOBOB2 METAR XM24 //000 030318 031353Z AUTO 03006KT 28/24 A2992 RMK A02 SLP134 T02810238 PA001 DA1903=
0129008418999992016010314534+03000+131800FM-15+000099999V0200401N003619999999N999999999+02811+02371101311ADDMA1101291999999REMMET102MOBOB2 METAR XM24 //000 030318 031453Z AUTO 04007KT 28/24 A2991 RMK A02 SLP131 T02810237 PA010 DA1913=
0129008418999992016010315534+03000+131800FM-15+000099999V0200501N004619999999N999999999+02811+02341101241ADDMA1101221999999REMMET102MOBOB2 METAR XM24 //000 030318 031553Z AUTO 05009KT 28/23 A2989 RMK A02 SLP124 T02810234 PA029 DA1928=
0129008418999992016010316534+03000+131800FM-15+000099999V0200401N004119999999N999999999+02791+02321101171ADDMA1101151999999REMMET102MOBOB2 METAR XM24 //000 030318 031653Z AUTO 04008KT 28/23 A2987 RMK A02 SLP117 T02790232 PA047 DA1923=
0129008418999992016010317534+03000+131800FM-15+000099999V0200301N003619999999N999999999+02801+02331101111ADDMA1101081999999REMMET102MOBOB2 METAR XM24 //000 030318 031753Z AUTO 03007KT 28/23 A2985 RMK A02 SLP111 T02800233 PA066 DA1961=
0129008418999992016010318534+03000+131800FM-15+000099999V0200301N003619999999N999999999+02791+02331101141ADDMA1101121999999REMMET102MOBOB2 METAR XM24 //000 030318 031853Z AUTO 03007KT 28/23 A2986 RMK A02 SLP114 T02790233 PA057 DA1937=
0129008418999992016010319534+03000+131800FM-15+000099999V0200301N002619999999N999999999+02781+02331101171ADDMA1101151999999REMMET102MOBOB2 METAR XM24 //000 030318 031953Z AUTO 03005KT 28/23 A2987 RMK A02 SLP117 T02780233 PA047 DA1914=
0129008418999992016010320534+03000+131800FM-15+000099999V0200201N003119999999N999999999+02791+02361101241ADDMA1101221999999REMMET102MOBOB2 METAR XM24 //000 030318 032053Z AUTO 02006KT 28/24 A2989 RMK A02 SLP124 T02790236 PA029 DA1911=
0129008418999992016010321534+03000+131800FM-15+000099999V0200201N002119999999N999999999+02791+02341101311ADDMA1101291999999REMMET102MOBOB2 METAR XM24 //000 030318 032153Z AUTO 02004KT 28/23 A2991 RMK A02 SLP131 T02790234 PA010 DA1883=
0129008418999992016010322534+03000+131800FM-15+000099999V0200401N004119999999N999999999+02831+02331101381ADDMA1101351999999REMMET102MOBOB2 METAR XM24 //000 030318 032253Z AUTO 04008KT 28/23 A2993 RMK A02 SLP138 T02830233 PA-08 DA1901=
0129008418999992016010323534+03000+131800FM-15+000099999V0200401N002619999999N999999999+02861+02311101411ADDMA1101391999999REMMET102MOBOB2 METAR XM24 //000 030318 032353Z AUTO 04005KT 29/23 A2994 RMK A02 SLP141 T02860231 PA-17 DA1920=
0129008418999992016010400534+03000+131800FM-15+000099999V0200501N002619999999N999999999+02901+02321101441ADDMA1101421999999REMMET102MOBOB2 METAR XM24 //000 030318 040053Z AUTO 05005KT 29/23 A2995 RMK A02 SLP144 T02900232 PA-27 DA1955=
0129008418999992016010401544+03000+131800FM-15+000099999V0200701N002119999999N999999999+02921+02261101381ADDMA1101351999999REMMET102MOBOB2 METAR XM24 //000 030318 040154Z AUTO 07004KT 29/23 A2993 RMK A02 SLP138 T02920226 PA-08 DA1988=
0129008418999992016010402534+03000+131800FM-15+000099999V0200501N001019999999N999999999+02981+02301101311ADDMA1101291999999REMMET102MOBOB2 METAR XM24 //000 030318 040253Z AUTO 05002KT 30/23 A2991 RMK A02 SLP131 T02980230 PA010 DA2086=
0129008418999992016010403534+03000+131800FM-15+000099999V0201101N001019999999N999999999+03141+02271101281ADDMA1101251999999REMMET102MOBOB2 METAR XM24 //000 030318 040353Z AUTO 11002KT 31/23 A2990 RMK A02 SLP128 T03140227 PA020 DA2269=
0129008418999992016010404544+03000+131800FM-15+000099999V0203501N001019999999N999999999+03041+02311101171ADDMA1101151999999REMMET102MOBOB2 METAR XM24 //000 030318 040454Z AUTO 35002KT 30/23 A2987 RMK A02 SLP117 T03040231 PA047 DA2201=
0129008418999992016010405534+03000+131800FM-15+000099999V0200201N001519999999N999999999+02981+02241101141ADDMA1101121999999REMMET102MOBOB2 METAR XM24 //000 030318 040553Z AUTO 02003KT 30/22 A2986 RMK A02 SLP114 T02980224 PA057 DA2129=
0129008418999992016010406534+03000+131800FM-15+000099999V0200201N001519999999N999999999+02971+02251101141ADDMA1101121999999REMMET102MOBOB2 METAR XM24 //000 030318 040653Z AUTO 02003KT 30/23 A2986 RMK A02 SLP114 T02970225 PA057 DA2122=
0129008418999992016010407534+03000+131800FM-15+000099999V0200101N002119999999N999999999+02961+02381101141ADDMA1101121999999REMMET102MOBOB2 METAR XM24 //000 030318 040753Z AUTO 01004KT 30/24 A2986 RMK A02 SLP114 T02960238 PA057 DA2138=
0129008418999992016010408534+03000+131800FM-15+000099999V0200101N001519999999N999999999+02861+02321101211ADDMA1101181999999REMMET102MOBOB2 METAR XM24 //000 030318 040853Z AUTO 01003KT 29/23 A2988 RMK A02 SLP121 T02860232 PA038 DA1990=
0129008418999992016010409534+03000+131800FM-15+000099999V0203501N001519999999N999999999+02791+02231101281ADDMA1101251999999REMMET102MOBOB2 METAR XM24 //000 030318 040953Z AUTO 35003KT 28/22 A2990 RMK A02 SLP128 T02790223 PA020 DA1871=
0129008418999992016010410534+03000+131800FM-15+000099999V0203601N001519999999N999999999+02821+02331101341ADDMA1101321999999REMMET102MOBOB2 METAR XM24 //000 030318 041053Z AUTO 36003KT 28/23 A2992 RMK A02 SLP134 T02820233 PA001 DA1903=
0129008418999992016010411534+03000+131800FM-15+000099999V0203601N001019999999N999999999+02781+02341101411ADDMA1101391999999REMMET102MOBOB2 METAR XM24 //000 030318 041153Z AUTO 36002KT 28/23 A2994 RMK A02 SLP141 T02780234 PA-17 DA1837=
0129008418999992016010412534+03000+131800FM-15+000099999V0203401N001519999999N999999999+02781+02361101411ADDMA1101391999999REMMET102MOBOB2 METAR XM24 //000 030318 041253Z AUTO 34003KT 28/24 A2994 RMK A02 SLP141 T02780236 PA-17 DA1842=
0129008418999992016010413534+03000+131800FM-15+000099999V0203501N001019999999N999999999+02761+02321101411ADDMA1101391999999REMMET102MOBOB2 METAR XM24 //000 030318 041353Z AUTO 35002KT 28/23 A2994 RMK A02 SLP141 T02760232 PA-17 DA1811=
0129008418999992016010414534+03000+131800FM-15+000099999V0203501N001019999999N999999999+02761+02321101411ADDMA1101391999999REMMET102MOBOB2 METAR XM24 //000 030318 041453Z AUTO 35002KT 28/23 A2994 RMK A02 SLP141 T02760232 PA-17 DA1811=
0129008418999992016010415534+03000+131800FM-15+000099999V0203401N001519999999N999999999+02761+02301101341ADDMA1101321999999REMMET102MOBOB2 METAR XM24 //000 030318 041553Z AUTO 34003KT 28/23 A2992 RMK A02 SLP134 T02760230 PA001 DA1829=
0129008418999992016010416534+03000+131800FM-15+000099999V0203201N001519999999N999999999+02741+02291101241ADDMA1101221999999REMMET102MOBOB2 METAR XM24 //000 030318 041653Z AUTO 32003KT 27/23 A2989 RMK A02 SLP124 T02740229 PA029 DA1837=
0129008418999992016010417534+03000+131800FM-15+000099999V0203301N002119999999N999999999+02751+02321101171ADDMA1101151999999REMMET102MOBOB2 METAR XM24 //000 030318 041753Z AUTO 33004KT 28/23 A2987 RMK A02 SLP117 T02750232 PA047 DA1879=
0129008418999992016010418534+03000+131800FM-15+000099999V0203301N002119999999N999999999+02751+02331101171ADDMA1101151999999REMMET102MOBOB2 METAR XM24 //000 030318 041853Z AUTO 33004KT 28/23 A2987 RMK A02 SLP117 T02750233 PA047 DA1881=
0129008418999992016010419534+03000+131800FM-15+000099999V0203301N001519999999N999999999+02741+02321101211ADDMA1101181999999REMMET102MOBOB2 METAR XM24 //000 030318 041953Z AUTO 33003KT 27/23 A2988 RMK A02 SLP121 T02740232 PA038 DA1855=
0129008418999992016010420534+03000+131800FM-15+000099999V0203401N001519999999N999999999+02741+02301101281ADDMA1101251999999REMMET102MOBOB2 METAR XM24 //000 030318 042053Z AUTO 34003KT 27/23 A2990 RMK A02 SLP128 T02740230 PA020 DA1829=
0129008418999992016010421534+03000+131800FM-15+000099999V0203401N001019999999N999999999+02761+02321101341ADDMA1101321999999REMMET102MOBOB2 METAR XM24 //000 030318 042153Z AUTO 34002KT 28/23 A2992 RMK A02 SLP134 T02760232 PA001 DA1832=
0129008418999992016010422534+03000+131800FM-15+000099999V0203101N001019999999N999999999+02851+02321101411ADDMA1101391999999REMMET102MOBOB2 METAR XM24 //000 030318 042253Z AUTO 31002KT 29/23 A2994 RMK A02 SLP141 T02850232 PA-17 DA1910=
0129008418999992016010423534+03000+131800FM-15+000099999V0203401N001519999999N999999999+02931+02311101411ADDMA1101391999999REMMET102MOBOB2 METAR XM24 //000 030318 042353Z AUTO 34003KT 29/23 A2994 RMK A02 SLP141 T02930231 PA-17 DA1998=
0129008418999992016010500534+03000+131800FM-15+000099999V0203301N002119999999N999999999+02971+02321101411ADDMA1101391999999REMMET102MOBOB2 METAR XM24 //000 030318 050053Z AUTO 33004KT 30/23 A2994 RMK A02 SLP141 T02970232 PA-17 DA2044=
0129008418999992016010501544+03000+131800FM-15+000099999V0203301N002619999999N999999999+03021+02331101381ADDMA1101351999999REMMET102MOBOB2 METAR XM24 //000 030318 050154Z AUTO 33005KT 30/23 A2993 RMK A02 SLP138 T03020233 PA-08 DA2115=
0129008418999992016010502534+03000+131800FM-15+000099999V0203301N002119999999N999999999+03021+02331101311ADDMA1101291999999REMMET102MOBOB2 METAR XM24 //000 030318 050253Z AUTO 33004KT 30/23 A2991 RMK A02 SLP131 T03020233 PA010 DA2136=
0129008418999992016010503534+03000+131800FM-15+000099999V0203301N002119999999N999999999+03051+02261101211ADDMA1101181999999REMMET102MOBOB2 METAR XM24 //000 030318 050353Z AUTO 33004KT 31/23 A2988 RMK A02 SLP121 T03050226 PA038 DA2190=
0129008418999992016010504534+03000+131800FM-15+000099999V0203401N002119999999N999999999+03071+02301101111ADDMA1101081999999REMMET102MOBOB2 METAR XM24 //000 030318 050453Z AUTO 34004KT 31/23 A2985 RMK A02 SLP111 T03070230 PA066 DA2255=
0129008418999992016010505534+03000+131800FM-15+000099999V0203301N003119999999N999999999+03061+02361101041ADDMA1101021999999REMMET102MOBOB2 METAR XM24 //000 030318 050553Z AUTO 33006KT 31/24 A2983 RMK A02 SLP104 T03060236 PA084 DA2280=
0129008418999992016010506534+03000+131800FM-15+000099999V0203301N002119999999N999999999+02991+02321101041ADDMA1101021999999REMMET102MOBOB2 METAR XM24 //000 030318 050653Z AUTO 33004KT 30/23 A2983 RMK A02 SLP104 T02990232 PA084 DA2193=
0129008418999992016010507534+03000+131800FM-15+000099999V0203601N001519999999N999999999+02991+02321101071ADDMA1101051999999REMMET102MOBOB2 METAR XM24 //000 030318 050753Z AUTO 36003KT 30/23 A2984 RMK A02 SLP107 T02990232 PA075 DA2181=
0129008418999992016010508534+03000+131800FM-15+000099999V0203501N001019999999N999999999+02881+02331101111ADDMA1101081999999REMMET102MOBOB2 METAR XM24 //000 030318 050853Z AUTO 35002KT 29/23 A2985 RMK A02 SLP111 T02880233 PA066 DA2049=
0129008418999992016010509534+03000+131800FM-15+000099999V0203601N001519999999N999999999+02801+02341101171ADDMA1101151999999REMMET102MOBOB2 METAR XM24 //000 030318 050953Z AUTO 36003KT 28/23 A2987 RMK A02 SLP117 T02800234 PA047 DA1939=
0129008418999992016010510534+03000+131800FM-15+000099999V0203601N001519999999N999999999+02801+02341101241ADDMA1101221999999REMMET102MOBOB2 METAR XM24 //000 030318 051053Z AUTO 36003KT 28/23 A2989 RMK A02 SLP124 T02800234 PA029 DA1916=
0129008418999992016010511534+03000+131800FM-15+000099999V0203601N002119999999N999999999+02811+02361101281ADDMA1101251999999REMMET102MOBOB2 METAR XM24 //000 030318 051153Z AUTO 36004KT 28/24 A2990 RMK A02 SLP128 T02810236 PA020 DA1921=
0129008418999992016010512534+03000+131800FM-15+000099999V0200301N003119999999N999999999+02791+02371101311ADDMA1101291999999REMMET102MOBOB2 METAR XM24 //000 030318 051253Z AUTO 03006KT 28/24 A2991 RMK A02 SLP131 T02790237 PA010 DA1889=
0129008418999992016010513534+03000+131800FM-15+000099999V0200201N001519999999N999999999+02781+02371101281ADDMA1101251999999REMMET102MOBOB2 METAR XM24 //000 030318 051353Z AUTO 02003KT 28/24 A2990 RMK A02 SLP128 T02780237 PA020 DA1890=
0129008418999992016010514534+03000+131800FM-15+000099999V0200201N002119999999N999999999+02771+02371101281ADDMA1101251999999REMMET102MOBOB2 METAR XM24 //000 030318 051453Z AUTO 02004KT 28/24 A2990 RMK A02 SLP128 T02770237 PA020 DA1878=
0129008418999992016010515534+03000+131800FM-15+000099999V0200301N003619999999N999999999+02781+02341101211ADDMA1101181999999REMMET102MOBOB2 METAR XM24 //000 030318 051553Z AUTO 03007KT 28/23 A2988 RMK A02 SLP121 T02780234 PA038 DA1906=
0129008418999992016010516534+03000+131800FM-15+000099999V0200101N001519999999N999999999+02781+02361101141ADDMA1101121999999REMMET102MOBOB2 METAR XM24 //000 030318 051653Z AUTO 01003KT 28/24 A2986 RMK A02 SLP114 T02780236 PA057 DA1932=
0129008418999992016010517534+03000+131800FM-15+000099999V0200201N002119999999N999999999+02781+02361101111ADDMA1101081999999REMMET102MOBOB2 METAR XM24 //000 030318 051753Z AUTO 02004KT 28/24 A2985 RMK A02 SLP111 T02780236 PA066 DA1944=
0129008418999992016010518534+03000+131800FM-15+000099999V0200101N001519999999N999999999+02781+02351101111ADDMA1101081999999REMMET102MOBOB2 METAR XM24 //000 030318 051853Z AUTO 01003KT 28/23 A2985 RMK A02 SLP111 T02780235 PA066 DA1941=
0129008418999992016010519534+03000+131800FM-15+000099999V0200201N002119999999N999999999+02781+02371101111ADDMA1101081999999REMMET102MOBOB2 METAR XM24 //000 030318 051953Z AUTO 02004KT 28/24 A2985 RMK A02 SLP111 T02780237 PA066 DA1947=
0129008418999992016010520534+03000+131800FM-15+000099999V0200201N002119999999N999999999+02791+02391101141ADDMA1101121999999REMMET102MOBOB2 METAR XM24 //000 030318 052053Z AUTO 02004KT 28/24 A2986 RMK A02 SLP114 T02790239 PA057 DA1950=
0129008418999992016010521534+03000+131800FM-15+000099999V0200301N003119999999N999999999+02791+02351101241ADDMA1101221999999REMMET102MOBOB2 METAR XM24 //000 030318 052153Z AUTO 03006KT 28/23 A2989 RMK A02 SLP124 T02790235 PA029 DA1907=
0129008418999992016010522534+03000+131800FM-15+000099999V0200101N002119999999N999999999+02871+02401101311ADDMA1101291999999REMMET102MOBOB2 METAR XM24 //000 030318 052253Z AUTO 01004KT 29/24 A2991 RMK A02 SLP131 T02870240 PA010 DA1986=
0129008418999992016010523534+03000+131800FM-15+000099999V0200301N003619999999N999999999+02911+02391101341ADDMA1101321999999REMMET102MOBOB2 METAR XM24 //000 030318 052353Z AUTO 03007KT 29/24 A2992 RMK A02 SLP134 T02910239 PA001 DA2016=
0129008418999992016010600534+03000+131800FM-15+000099999V0200401N004119999999N999999999+02911+02361101341ADDMA1101321999999REMMET102MOBOB2 METAR XM24 //000 030318 060053Z AUTO 04008KT 29/24 A2992 RMK A02 SLP134 T02910236 PA001 DA2011=
0129008418999992016010601534+03000+131800FM-15+000099999V0200201N002119999999N999999999+03031+02371101311ADDMA1101291999999REMMET102MOBOB2 METAR XM24 //000 030318 060153Z AUTO 02004KT 30/24 A2991 RMK A02 SLP131 T03030237 PA010 DA2157=
0129008418999992016010602534+03000+131800FM-15+000099999V0200301N003119999999N999999999+03031+02391101241ADDMA1101221999999REMMET102MOBOB2 METAR XM24 //000 030318 060253Z AUTO 03006KT 30/24 A2989 RMK A02 SLP124 T03030239 PA029 DA2184=
0129008418999992016010603534+03000+131800FM-15+000099999V0200201N002619999999N999999999+03041+02371101171ADDMA1101151999999REMMET102MOBOB2 METAR XM24 //000 030318 060353Z AUTO 02005KT 30/24 A2987 RMK A02 SLP117 T03040237 PA047 DA2213=
0129008418999992016010604534+03000+131800FM-15+000099999V0200201N002619999999N999999999+03021+02371101111ADDMA1101081999999REMMET102MOBOB2 METAR XM24 //000 030318 060453Z AUTO 02005KT 30/24 A2985 RMK A02 SLP111 T03020237 PA066 DA2214=
0129008418999992016010605534+03000+131800FM-15+000099999V0200101N002119999999N999999999+03031+02391101041ADDMA1101021999999REMMET102MOBOB2 METAR XM24 //000 030318 060553Z AUTO 01004KT 30/24 A2983 RMK A02 SLP104 T03030239 PA084 DA2252=
0129008418999992016010606544+03000+131800FM-15+000099999V0203501N001019999999N999999999+02971+02301101041ADDMA1101021999999REMMET102MOBOB2 METAR XM24 //000 030318 060654Z AUTO 35002KT 30/23 A2983 RMK A02 SLP104 T02970230 PA084 DA2165=
0129008418999992016010607534+03000+131800FM-15+000099999V0200101N001519999999N999999999+03001+02341101071ADDMA1101051999999REMMET102MOBOB2 METAR XM24 //000 030318 060753Z AUTO 01003KT 30/23 A2984 RMK A02 SLP107 T03000234 PA075 DA2196=
0129008418999992016010608534+03000+131800FM-15+000099999V0203501N001519999999N999999999+02911+02331101111ADDMA1101081999999REMMET102MOBOB2 METAR XM24 //000 030318 060853Z AUTO 35003KT 29/23 A2985 RMK A02 SLP111 T02910233 PA066 DA2084=
0129008418999992016010609534+03000+131800FM-15+000099999V0203601N001519999999N999999999+02831+02331101171ADDMA1101151999999REMMET102MOBOB2 METAR XM24 //000 030318 060953Z AUTO 36003KT 28/23 A2987 RMK A02 SLP117 T02830233 PA047 DA1972=
0129008418999992016010610534+03000+131800FM-15+000099999V0200101N001519999999N999999999+02811+02351101241ADDMA1101221999999REMMET102MOBOB2 METAR XM24 //000 030318 061053Z AUTO 01003KT 28/23 A2989 RMK A02 SLP124 T02810235 PA029 DA1929=
0129008418999992016010611534+03000+131800FM-15+000099999V0200101N002119999999N999999999+02841+02371101281ADDMA1101251999999REMMET102MOBOB2 METAR XM24 //000 030318 061153Z AUTO 01004KT 28/24 A2990 RMK A02 SLP128 T02840237 PA020 DA1956=
0129008418999992016010612534+03000+131800FM-15+000099999V0200101N002119999999N999999999+02821+02371101281ADDMA1101251999999REMMET102MOBOB2 METAR XM24 //000 030318 061253Z AUTO 01004KT 28/24 A2990 RMK A02 SLP128 T02820237 PA020 DA1934=
0129008418999992016010613534+03000+131800FM-15+000099999V0203601N002119999999N999999999+02811+02371101241ADDMA1101221999999REMMET102MOBOB2 METAR XM24 //000 030318 061353Z AUTO 36004KT 28/24 A2989 RMK A02 SLP124 T02810237 PA029 DA1935=
0129008418999992016010614534+03000+131800FM-15+000099999V0203601N001519999999N999999999+02781+02361101211ADDMA1101181999999REMMET102MOBOB2 METAR XM24 //000 030318 061453Z AUTO 36003KT 28/24 A2988 RMK A02 SLP121 T02780236 PA038 DA1911=
0129008418999992016010615534+03000+131800FM-15+000099999V0203401N001519999999N999999999+02751+02361101141ADDMA1101121999999REMMET102MOBOB2 METAR XM24 //000 030318 061553Z AUTO 34003KT 28/24 A2986 RMK A02 SLP114 T02750236 PA057 DA1899=
0129008418999992016010616534+03000+131800FM-15+000099999V0200101N001519999999N999999999+02741+02351101111ADDMA1101081999999REMMET102MOBOB2 METAR XM24 //000 030318 061653Z AUTO 01003KT 27/23 A2985 RMK A02 SLP111 T02740235 PA066 DA1896=
0129008418999992016010617534+03000+131800FM-15+000099999V0203401N001519999999N999999999+02741+02381101041ADDMA1101021999999REMMET102MOBOB2 METAR XM24 //000 030318 061753Z AUTO 34003KT 27/24 A2983 RMK A02 SLP104 T02740238 PA084 DA1928=
0129008418999992016010618534+03000+131800FM-15+000099999V0203301N003119999999N999999999+02761+02361101071ADDMA1101051999999REMMET102MOBOB2 METAR XM24 //000 030318 061853Z AUTO 33006KT 28/24 A2984 RMK A02 SLP107 T02760236 PA075 DA1933=
0129008418999992016010619534+03000+131800FM-15+000099999V0203401N002619999999N999999999+02761+02351101111ADDMA1101081999999REMMET102MOBOB2 METAR XM24 //000 030318 061953Z AUTO 34005KT 28/23 A2985 RMK A02 SLP111 T02760235 PA066 DA1919=
0129008418999992016010620534+03000+131800FM-15+000099999V0203301N003119999999N999999999+02771+02361101171ADDMA1101151999999REMMET102MOBOB2 METAR XM24 //000 030318 062053Z AUTO 33006KT 28/24 A2987 RMK A02 SLP117 T02770236 PA047 DA1910=
0129008418999992016010621534+03000+131800FM-15+000099999V0203301N003619999999N999999999+02791+02341101211ADDMA1101181999999REMMET102MOBOB2 METAR XM24 //000 030318 062153Z AUTO 33007KT 28/23 A2988 RMK A02 SLP121 T02790234 PA038 DA1917=
0129008418999992016010622534+03000+131800FM-15+000099999V0203401N002619999999N999999999+02861+02341101311ADDMA1101291999999REMMET102MOBOB2 METAR XM24 //000 030318 062253Z AUTO 34005KT 29/23 A2991 RMK A02 SLP131 T02860234 PA010 DA1961=
0129008418999992016010623534+03000+131800FM-15+000099999V0203301N003619999999N999999999+02941+02351101311ADDMA1101291999999REMMET102MOBOB2 METAR XM24 //000 030318 062353Z AUTO 33007KT 29/24 A2991 RMK A02 SLP131 T02940235 PA010 DA2053=
0129008418999992016010700534+03000+131800FM-15+000099999V0203301N003119999999N999999999+03011+02361101341ADDMA1101321999999REMMET102MOBOB2 METAR XM24 //000 030318 070053Z AUTO 33006KT 30/24 A2992 RMK A02 SLP134 T03010236 PA001 DA2120=
0129008418999992016010701534+03000+131800FM-15+000099999V0203201N003619999999N999999999+03011+02291101311ADDMA1101291999999REMMET102MOBOB2 METAR XM24 //000 030318 070153Z AUTO 32007KT 30/23 A2991 RMK A02 SLP131 T03010229 PA010 DA2117=
0129008418999992016010702534+03000+131800FM-15+000099999V0203201N003619999999N999999999+03021+02261101241ADDMA1101221999999REMMET102MOBOB2 METAR XM24 //000 030318 070253Z AUTO 32007KT 30/23 A2989 RMK A02 SLP124 T03020226 PA029 DA2144=
0129008418999992016010703534+03000+131800FM-15+000099999V0203301N004119999999N999999999+03021+02331101171ADDMA1101151999999REMMET102MOBOB2 METAR XM24 //000 030318 070353Z AUTO 33008KT 30/23 A2987 RMK A02 SLP117 T03020233 PA047 DA2183=
0129008418999992016010704544+03000+131800FM-15+000099999V0203201N004119999999N999999999+02981+02321101071ADDMA1101051999999REMMET102MOBOB2 METAR XM24 //000 030318 070454Z AUTO 32008KT 30/23 A2984 RMK A02 SLP107 T02980232 PA075 DA2171=
0140008418999992016010705534+03000+131800FM-15+000099999V0203201N004619999999N999999999+02971+02351101071ADDMA1101051999999OC100621REMMET105MOBOB2 METAR XM24 //000 030318 070553Z AUTO 32009G12KT 30/23 A2984 RMK A02 SLP107 T02970235 PA075 DA2165=
0129008418999992016010706534+03000+131800FM-15+000099999V0203101N004119999999N999999999+02931+02351101071ADDMA1101051999999REMMET102MOBOB2 METAR XM24 //000 030318 070653Z AUTO 31008KT 29/24 A2984 RMK A02 SLP107 T02930235 PA075 DA2121=
0140008418999992016010707534+03000+131800FM-15+000099999V0203201N004619999999N999999999+02901+02361101111ADDMA1101081999999OC100621REMMET105MOBOB2 METAR XM24 //000 030318 070753Z AUTO 32009G12KT 29/24 A2985 RMK A02 SLP111 T02900236 PA066 DA2079=
0129008418999992016010708534+03000+131800FM-15+000099999V0203201N004119999999N999999999+02851+02341101171ADDMA1101151999999REMMET102MOBOB2 METAR XM24 //000 030318 070853Z AUTO 32008KT 29/23 A2987 RMK A02 SLP117 T02850234 PA047 DA1994=
0129008418999992016010709534+03000+131800FM-15+000099999V0203101N004119999999N999999999+02821+02351101241ADDMA1101221999999REMMET102MOBOB2 METAR XM24 //000 030318 070953Z AUTO 31008KT 28/23 A2989 RMK A02 SLP124 T02820235 PA029 DA1941=
0129008418999992016010710534+03000+131800FM-15+000099999V0203201N003119999999N999999999+02811+02351101311ADDMA1101291999999REMMET102MOBOB2 METAR XM24 //000 030318 071053Z AUTO 32006KT 28/24 A2991 RMK A02 SLP131 T02810235 PA010 DA1908=
0129008418999992016010711534+03000+131800FM-15+000099999V0203001N003119999999N999999999+02811+02341101341ADDMA1101321999999REMMET102MOBOB2 METAR XM24 //000 030318 071153Z AUTO 30006KT 28/23 A2992 RMK A02 SLP134 T02810234 PA001 DA1894=
0129008418999992016010712534+03000+131800FM-15+000099999V0203101N003619999999N999999999+02791+02351101341ADDMA1101321999999REMMET102MOBOB2 METAR XM24 //000 030318 071253Z AUTO 31007KT 28/23 A2992 RMK A02 SLP134 T02790235 PA001 DA1873=
0129008418999992016010713534+03000+131800FM-15+000099999V0203101N003619999999N999999999+02781+02311101311ADDMA1101291999999REMMET102MOBOB2 METAR XM24 //000 030318 071353Z AUTO 31007KT 28/23 A2991 RMK A02 SLP131 T02780231 PA010 DA1865=
0129008418999992016010714534+03000+131800FM-15+000099999V0203001N004119999999N999999999+02761+02301101281ADDMA1101251999999REMMET102MOBOB2 METAR XM24 //000 030318 071453Z AUTO 30008KT 28/23 A2990 RMK A02 SLP128 T02760230 PA020 DA1852=
0129008418999992016010715534+03000+131800FM-15+000099999V0203101N004119999999N999999999+02751+02311101241ADDMA1101221999999REMMET102MOBOB2 METAR XM24 //000 030318 071553Z AUTO 31008KT 28/23 A2989 RMK A02 SLP124 T02750231 PA029 DA1854=
0129008418999992016010716534+03000+131800FM-15+000099999V0203001N004119999999N999999999+02751+02271101141ADDMA1101121999999REMMET102MOBOB2 METAR XM24 //000 030318 071653Z AUTO 30008KT 28/23 A2986 RMK A02 SLP114 T02750227 PA057 DA1880=
0129008418999992016010717534+03000+131800FM-15+000099999V0203001N003619999999N999999999+02751+02251101071ADDMA1101051999999REMMET102MOBOB2 METAR XM24 //000 030318 071753Z AUTO 30007KT 28/22 A2984 RMK A02 SLP107 T02750225 PA075 DA1897=
0129008418999992016010718534+03000+131800FM-15+000099999V0203101N003119999999N999999999+02741+02261101041ADDMA1101021999999REMMET102MOBOB2 METAR XM24 //000 030318 071853Z AUTO 31006KT 27/23 A2983 RMK A02 SLP104 T02740226 PA084 DA1901=
0129008418999992016010719534+03000+131800FM-15+000099999V0203001N002619999999N999999999+02761+02261101071ADDMA1101051999999REMMET102MOBOB2 METAR XM24 //000 030318 071953Z AUTO 30005KT 28/23 A2984 RMK A02 SLP107 T02760226 PA075 DA1911=
0129008418999992016010721534+03000+131800FM-15+000099999V0202701N003619999999N999999999+02771+02241101211ADDMA1101181999999REMMET102MOBOB2 METAR XM24 //000 030318 072153Z AUTO 27007KT 28/22 A2988 RMK A02 SLP121 T02770224 PA038 DA1873=
0129008418999992016010722534+03000+131800FM-15+000099999V0202901N003619999999N999999999+02821+02281101311ADDMA1101291999999REMMET102MOBOB2 METAR XM24 //000 030318 072253Z AUTO 29007KT 28/23 A2991 RMK A02 SLP131 T02820228 PA010 DA1903=
0129008418999992016010723534+03000+131800FM-15+000099999V0203001N003119999999N999999999+02851+02221101341ADDMA1101321999999REMMET102MOBOB2 METAR XM24 //000 030318 072353Z AUTO 30006KT 29/22 A2992 RMK A02 SLP134 T02850222 PA001 DA1912=
0129008418999992016010800534+03000+131800FM-15+000099999V0202901N003119999999N999999999+02871+02221101311ADDMA1101291999999REMMET102MOBOB2 METAR XM24 //000 030318 080053Z AUTO 29006KT 29/22 A2991 RMK A02 SLP131 T02870222 PA010 DA1946=
0129008418999992016010801534+03000+131800FM-15+000099999V0202801N003619999999N999999999+02891+02261101281ADDMA1101251999999REMMET102MOBOB2 METAR XM24 //000 030318 080153Z AUTO 28007KT 29/23 A2990 RMK A02 SLP128 T02890226 PA020 DA1988=
0129008418999992016010802534+03000+131800FM-15+000099999V0202801N003619999999N999999999+02891+02191101211ADDMA1101181999999REMMET102MOBOB2 METAR XM24 //000 030318 080253Z AUTO 28007KT 29/22 A2988 RMK A02 SLP121 T02890219 PA038 DA1997=
0129008418999992016010803534+03000+131800FM-15+000099999V0202801N003619999999N999999999+02901+02151101141ADDMA1101121999999REMMET102MOBOB2 METAR XM24 //000 030318 080353Z AUTO 28007KT 29/21 A2986 RMK A02 SLP114 T02900215 PA057 DA2022=
0129008418999992016010804534+03000+131800FM-15+000099999V0202901N003619999999N999999999+02941+02251101041ADDMA1101021999999REMMET102MOBOB2 METAR XM24 //000 030318 080453Z AUTO 29007KT 29/23 A2983 RMK A02 SLP104 T02940225 PA084 DA2123=
0129008418999992016010805534+03000+131800FM-15+000099999V0202901N004119999999N999999999+02921+02251101041ADDMA1101021999999REMMET102MOBOB2 METAR XM24 //000 030318 080553Z AUTO 29008KT 29/23 A2983 RMK A02 SLP104 T02920225 PA084 DA2100=
0129008418999992016010806534+03000+131800FM-15+000099999V0202901N004119999999N999999999+02901+02291101001ADDMA1100981999999REMMET102MOBOB2 METAR XM24 //000 030318 080653Z AUTO 29008KT 29/23 A2982 RMK A02 SLP100 T02900229 PA094 DA2097=
0129008418999992016010807534+03000+131800FM-15+000099999V0202901N003619999999N999999999+02901+02331101041ADDMA1101021999999REMMET102MOBOB2 METAR XM24 //000 030318 080753Z AUTO 29007KT 29/23 A2983 RMK A02 SLP104 T02900233 PA084 DA2095=
0129008418999992016010808534+03000+131800FM-15+000099999V0202901N003619999999N999999999+02861+02291101071ADDMA1101051999999REMMET102MOBOB2 METAR XM24 //000 030318 080853Z AUTO 29007KT 29/23 A2984 RMK A02 SLP107 T02860229 PA075 DA2029=
0129008418999992016010809534+03000+131800FM-15+000099999V0202801N004119999999N999999999+02821+02241101141ADDMA1101121999999REMMET102MOBOB2 METAR XM24 //000 030318 080953Z AUTO 28008KT 28/22 A2986 RMK A02 SLP114 T02820224 PA057 DA1952=
0129008418999992016010810534+03000+131800FM-15+000099999V0202901N003119999999N999999999+02811+02191101241ADDMA1101221999999REMMET102MOBOB2 METAR XM24 //000 030318 081053Z AUTO 29006KT 28/22 A2989 RMK A02 SLP124 T02810219 PA029 DA1895=
0129008418999992016010811534+03000+131800FM-15+000099999V0202901N003119999999N999999999+02811+02211101281ADDMA1101251999999REMMET102MOBOB2 METAR XM24 //000 030318 081153Z AUTO 29006KT 28/22 A2990 RMK A02 SLP128 T02810221 PA020 DA1889=
0129008418999992016010812534+03000+131800FM-15+000099999V0202901N003119999999N999999999+02791+02251101281ADDMA1101251999999REMMET102MOBOB2 METAR XM24 //000 030318 081253Z AUTO 29006KT 28/22 A2990 RMK A02 SLP128 T02790225 PA020 DA1874=
0129008418999992016010813534+03000+131800FM-15+000099999V0202901N003119999999N999999999+02771+02261101241ADDMA1101221999999REMMET102MOBOB2 METAR XM24 //000 030318 081353Z AUTO 29006KT 28/23 A2989 RMK A02 SLP124 T02770226 PA029 DA1866=
0129008418999992016010814534+03000+131800FM-15+000099999V0203001N002119999999N999999999+02731+02241101241ADDMA1101221999999REMMET102MOBOB2 METAR XM24 //000 030318 081453Z AUTO 30004KT 27/22 A2989 RMK A02 SLP124 T02730224 PA029 DA1816=
0129008418999992016010815534+03000+131800FM-15+000099999V0203201N001519999999N999999999+02691+02281101171ADDMA1101151999999REMMET102MOBOB2 METAR XM24 //000 030318 081553Z AUTO 32003KT 27/23 A2987 RMK A02 SLP117 T02690228 PA047 DA1802=
0129008418999992016010816534+03000+131800FM-15+000099999V0203101N001519999999N999999999+02671+02261101111ADDMA1101081999999REMMET102MOBOB2 METAR XM24 //000 030318 081653Z AUTO 31003KT 27/23 A2985 RMK A02 SLP111 T02670226 PA066 DA1799=
0129008418999992016010817534+03000+131800FM-15+000099999V0202901N001519999999N999999999+02691+02251101071ADDMA1101051999999REMMET102MOBOB2 METAR XM24 //000 030318 081753Z AUTO 29003KT 27/22 A2984 RMK A02 SLP107 T02690225 PA075 DA1831=
0129008418999992016010818534+03000+131800FM-15+000099999V0202901N002119999999N999999999+02711+02241101141ADDMA1101121999999REMMET102MOBOB2 METAR XM24 //000 030318 081853Z AUTO 29004KT 27/22 A2986 RMK A02 SLP114 T02710224 PA057 DA1828=
0129008418999992016010819534+03000+131800FM-15+000099999V0203101N001519999999N999999999+02721+02241101141ADDMA1101121999999REMMET102MOBOB2 METAR XM24 //000 030318 081953Z AUTO 31003KT 27/22 A2986 RMK A02 SLP114 T02720224 PA057 DA1840=
0129008418999992016010820534+03000+131800FM-15+000099999V0203101N001519999999N999999999+02711+02291101211ADDMA1101181999999REMMET102MOBOB2 METAR XM24 //000 030318 082053Z AUTO 31003KT 27/23 A2988 RMK A02 SLP121 T02710229 PA038 DA1816=
0129008418999992016010821534+03000+131800FM-15+000099999V0202901N001019999999N999999999+02741+02291101241ADDMA1101221999999REMMET102MOBOB2 METAR XM24 //000 030318 082153Z AUTO 29002KT 27/23 A2989 RMK A02 SLP124 T02740229 PA029 DA1839=
0129008418999992016010822534+03000+131800FM-15+000099999V0202401N001019999999N999999999+02821+02241101311ADDMA1101291999999REMMET102MOBOB2 METAR XM24 //000 030318 082253Z AUTO 24002KT 28/22 A2991 RMK A02 SLP131 T02820224 PA010 DA1895=
0129008418999992016010823534+03000+131800FM-15+000099999V0202501N001019999999N999999999+02921+02241101311ADDMA1101291999999REMMET102MOBOB2 METAR XM24 //000 030318 082353Z AUTO 25002KT 29/22 A2991 RMK A02 SLP131 T02920224 PA010 DA2005=
0129008418999992016010900534+03000+131800FM-15+000099999V0202301N001019999999N999999999+02971+02231101311ADDMA1101291999999REMMET102MOBOB2 METAR XM24 //000 030318 090053Z AUTO 23002KT 30/22 A2991 RMK A02 SLP131 T02970223 PA010 DA2060=
0129008418999992016010901534+03000+131800FM-15+000099999V0202801N001519999999N999999999+02971+02221101311ADDMA1101291999999REMMET102MOBOB2 METAR XM24 //000 030318 090153Z AUTO 28003KT 30/22 A2991 RMK A02 SLP131 T02970222 PA010 DA2057=
0129008418999992016010902534+03000+131800FM-15+000099999V0202201N001519999999N999999999+03051+02191101241ADDMA1101221999999REMMET102MOBOB2 METAR XM24 //000 030318 090253Z AUTO 22003KT 31/22 A2989 RMK A02 SLP124 T03050219 PA029 DA2163=
0129008418999992016010903544+03000+131800FM-15+000099999V0202801N001019999999N999999999+03051+02191101171ADDMA1101151999999REMMET102MOBOB2 METAR XM24 //000 030318 090354Z AUTO 28002KT 31/22 A2987 RMK A02 SLP117 T03050219 PA047 DA2186=
0129008418999992016010904534+03000+131800FM-15+000099999V0202401N001019999999N999999999+03111+02171101111ADDMA1101081999999REMMET102MOBOB2 METAR XM24 //000 030318 090453Z AUTO 24002KT 31/22 A2985 RMK A02 SLP111 T03110217 PA066 DA2272=
0129008418999992016010905534+03000+131800FM-15+000099999V0200701N001519999999N999999999+03071+02161101041ADDMA1101021999999REMMET102MOBOB2 METAR XM24 //000 030318 090553Z AUTO 07003KT 31/22 A2983 RMK A02 SLP104 T03070216 PA084 DA2248=
0129008418999992016010906534+03000+131800FM-15+000099999V0201001N002119999999N999999999+02961+02251101041ADDMA1101021999999REMMET102MOBOB2 METAR XM24 //000 030318 090653Z AUTO 10004KT 30/23 A2983 RMK A02 SLP104 T02960225 PA084 DA2145=
0129008418999992016010907534+03000+131800FM-15+000099999V0201201N001519999999N999999999+02911+02191101071ADDMA1101051999999REMMET102MOBOB2 METAR XM24 //000 030318 090753Z AUTO 12003KT 29/22 A2984 RMK A02 SLP107 T02910219 PA075 DA2065=
0129008418999992016010908534+03000+131800FM-15+000099999V0201101N001019999999N999999999+02881+02201101111ADDMA1101081999999REMMET102MOBOB2 METAR XM24 //000 030318 090853Z AUTO 11002KT 29/22 A2985 RMK A02 SLP111 T02880220 PA066 DA2022=
0129008418999992016010909534+03000+131800FM-15+000099999V0201501N000519999999N999999999+02811+02211101171ADDMA1101151999999REMMET102MOBOB2 METAR XM24 //000 030318 090953Z AUTO 15001KT 28/22 A2987 RMK A02 SLP117 T02810221 PA047 DA1922=
0129008418999992016010910534+03000+131800FM-15+000099999V0201201N001019999999N999999999+02801+02271101241ADDMA1101221999999REMMET102MOBOB2 METAR XM24 //000 030318 091053Z AUTO 12002KT 28/23 A2989 RMK A02 SLP124 T02800227 PA029 DA1902=
0129008418999992016010911534+03000+131800FM-15+000099999V0209999C000019999999N999999999+02741+02261101281ADDMA1101251999999REMMET102MOBOB2 METAR XM24 //000 030318 091153Z AUTO 00000KT 27/23 A2990 RMK A02 SLP128 T02740226 PA020 DA1821=
0129008418999992016010912534+03000+131800FM-15+000099999V0209999C000019999999N999999999+02701+02271101241ADDMA1101221999999REMMET102MOBOB2 METAR XM24 //000 030318 091253Z AUTO 00000KT 27/23 A2989 RMK A02 SLP124 T02700227 PA029 DA1789=
0129008418999992016010913534+03000+131800FM-15+000099999V0200601N001019999999N999999999+02771+02271101241ADDMA1101221999999REMMET102MOBOB2 METAR XM24 //000 030318 091353Z AUTO 06002KT 28/23 A2989 RMK A02 SLP124 T02770227 PA029 DA1867=
0129008418999992016010914534+03000+131800FM-15+000099999V0200701N001019999999N999999999+02761+02281101241ADDMA1101221999999REMMET102MOBOB2 METAR XM24 //000 030318 091453Z AUTO 07002KT 28/23 A2989 RMK A02 SLP124 T02760228 PA029 DA1859=
0129008418999992016010915534+03000+131800FM-15+000099999V0200501N001519999999N999999999+02751+02281101211ADDMA1101181999999REMMET102MOBOB2 METAR XM24 //000 030318 091553Z AUTO 05003KT 28/23 A2988 RMK A02 SLP121 T02750228 PA038 DA1858=
0129008418999992016010916534+03000+131800FM-15+000099999V0200601N002119999999N999999999+02731+02261101141ADDMA1101121999999REMMET102MOBOB2 METAR XM24 //000 030318 091653Z AUTO 06004KT 27/23 A2986 RMK A02 SLP114 T02730226 PA057 DA1856=
0129008418999992016010917534+03000+131800FM-15+000099999V0200501N002119999999N999999999+02711+02271101071ADDMA1101051999999REMMET102MOBOB2 METAR XM24 //000 030318 091753Z AUTO 05004KT 27/23 A2984 RMK A02 SLP107 T02710227 PA075 DA1858=
0129008418999992016010918534+03000+131800FM-15+000099999V0200601N002619999999N999999999+02721+02271101071ADDMA1101051999999REMMET102MOBOB2 METAR XM24 //000 030318 091853Z AUTO 06005KT 27/23 A2984 RMK A02 SLP107 T02720227 PA075 DA1869=
0129008418999992016010919534+03000+131800FM-15+000099999V0200601N002619999999N999999999+02771+02261101111ADDMA1101081999999REMMET102MOBOB2 METAR XM24 //000 030318 091953Z AUTO 06005KT 28/23 A2985 RMK A02 SLP111 T02770226 PA066 DA1911=
0129008418999992016010920534+03000+131800FM-15+000099999V0200601N002619999999N999999999+02771+02261101171ADDMA1101151999999REMMET102MOBOB2 METAR XM24 //000 030318 092053Z AUTO 06005KT 28/23 A2987 RMK A02 SLP117 T02770226 PA047 DA1888=
0129008418999992016010921534+03000+131800FM-15+000099999V0200601N002619999999N999999999+02801+02261101241ADDMA1101221999999REMMET102MOBOB2 METAR XM24 //000 030318 092153Z AUTO 06005KT 28/23 A2989 RMK A02 SLP124 T02800226 PA029 DA1899=
0129008418999992016010922534+03000+131800FM-15+000099999V0200701N003119999999N999999999+02851+02221101311ADDMA1101291999999REMMET102MOBOB2 METAR XM24 //000 030318 092253Z AUTO 07006KT 29/22 A2991 RMK A02 SLP131 T02850222 PA010 DA1924=
0129008418999992016010923534+03000+131800FM-15+000099999V0200801N003119999999N999999999+02891+02241101381ADDMA1101351999999REMMET102MOBOB2 METAR XM24 //000 030318 092353Z AUTO 08006KT 29/22 A2993 RMK A02 SLP138 T02890224 PA-08 DA1950=
0129008418999992016011000534+03000+131800FM-15+000099999V0200701N003119999999N999999999+02901+02241101341ADDMA1101321999999REMMET102MOBOB2 METAR XM24 //000 030318 100053Z AUTO 07006KT 29/22 A2992 RMK A02 SLP134 T02900224 PA001 DA1972=
0129008418999992016011001544+03000+131800FM-15+000099999V0200701N003619999999N999999999+02911+02291101281ADDMA1101251999999REMMET102MOBOB2 METAR XM24 //000 030318 100154Z AUTO 07007KT 29/23 A2990 RMK A02 SLP128 T02910229 PA020 DA2016=
0129008418999992016011002534+03000+131800FM-15+000099999V0200701N003619999999N999999999+02911+02281101241ADDMA1101221999999REMMET102MOBOB2 METAR XM24 //000 030318 100253Z AUTO 07007KT 29/23 A2989 RMK A02 SLP124 T02910228 PA029 DA2027=
0129008418999992016011003534+03000+131800FM-15+000099999V0200701N003619999999N999999999+02931+02321101171ADDMA1101151999999REMMET102MOBOB2 METAR XM24 //000 030318 100353Z AUTO 07007KT 29/23 A2987 RMK A02 SLP117 T02930232 PA047 DA2079=
0129008418999992016011004534+03000+131800FM-15+000099999V0200801N003119999999N999999999+02951+02261101071ADDMA1101051999999REMMET102MOBOB2 METAR XM24 //000 030318 100453Z AUTO 08006KT 30/23 A2984 RMK A02 SLP107 T02950226 PA075 DA2123=
0129008418999992016011005534+03000+131800FM-15+000099999V0200901N003119999999N999999999+02941+02231101041ADDMA1101021999999REMMET102MOBOB2 METAR XM24 //000 030318 100553Z AUTO 09006KT 29/22 A2983 RMK A02 SLP104 T02940223 PA084 DA2118=
0129008418999992016011006534+03000+131800FM-15+000099999V0200701N002619999999N999999999+02951+02321101041ADDMA1101021999999REMMET102MOBOB2 METAR XM24 //000 030318 100653Z AUTO 07005KT 30/23 A2983 RMK A02 SLP104 T02950232 PA084 DA2149=
0129008418999992016011007534+03000+131800FM-15+000099999V0200901N002619999999N999999999+02931+02331101071ADDMA1101051999999REMMET102MOBOB2 METAR XM24 //000 030318 100753Z AUTO 09005KT 29/23 A2984 RMK A02 SLP107 T02930233 PA075 DA2117=
0129008418999992016011008534+03000+131800FM-15+000099999V0200901N002619999999N999999999+02861+02311101111ADDMA1101081999999REMMET102MOBOB2 METAR XM24 //000 030318 100853Z AUTO 09005KT 29/23 A2985 RMK A02 SLP111 T02860231 PA066 DA2023=
0129008418999992016011009534+03000+131800FM-15+000099999V0201101N002119999999N999999999+02821+02281101141ADDMA1101121999999REMMET102MOBOB2 METAR XM24 //000 030318 100953Z AUTO 11004KT 28/23 A2986 RMK A02 SLP114 T02820228 PA057 DA1961=
0129008418999992016011010534+03000+131800FM-15+000099999V0201001N001519999999N999999999+02821+02331101171ADDMA1101151999999REMMET102MOBOB2 METAR XM24 //000 030318 101053Z AUTO 10003KT 28/23 A2987 RMK A02 SLP117 T02820233 PA047 DA1959=
0129008418999992016011011534+03000+131800FM-15+000099999V0200901N001019999999N999999999+02781+02351101241ADDMA1101221999999REMMET102MOBOB2 METAR XM24 //000 030318 101153Z AUTO 09002KT 28/24 A2989 RMK A02 SLP124 T02780235 PA029 DA1897=
0129008418999992016011012534+03000+131800FM-15+000099999V0201001N002119999999N999999999+02801+02351101281ADDMA1101251999999REMMET102MOBOB2 METAR XM24 //000 030318 101253Z AUTO 10004KT 28/23 A2990 RMK A02 SLP128 T02800235 PA020 DA1907=
0129008418999992016011013534+03000+131800FM-15+000099999V0201101N002119999999N999999999+02781+02301101281ADDMA1101251999999REMMET102MOBOB2 METAR XM24 //000 030318 101353Z AUTO 11004KT 28/23 A2990 RMK A02 SLP128 T02780230 PA020 DA1874=
0129008418999992016011014534+03000+131800FM-15+000099999V0201001N001519999999N999999999+02781+02301101241ADDMA1101221999999REMMET102MOBOB2 METAR XM24 //000 030318 101453Z AUTO 10003KT 28/23 A2989 RMK A02 SLP124 T02780230 PA029 DA1886=
0129008418999992016011015534+03000+131800FM-15+000099999V0201101N001519999999N999999999+02751+02311101211ADDMA1101181999999REMMET102MOBOB2 METAR XM24 //000 030318 101553Z AUTO 11003KT 28/23 A2988 RMK A02 SLP121 T02750231 PA038 DA1866=
0134008418999992016011016534+03000+131800FM-15+000099999V0200901N001519999999N009999199+02741+02351101071ADDMA1101051999999REMMET107MOBOB2 METAR XM24 //000 030318 101653Z AUTO 09003KT 9999 27/24 A2984 RMK A02 SLP107 T02740235 PA075 DA1909=
0134008418999992016011017534+03000+131800FM-15+000099999V0201001N001019999999N009999199+02701+02341101041ADDMA1101021999999REMMET107MOBOB2 METAR XM24 //000 030318 101753Z AUTO 10002KT 9999 27/23 A2983 RMK A02 SLP104 T02700234 PA084 DA1874=
0134008418999992016011018534+03000+131800FM-15+000099999V0201001N001019999999N009999199+02681+02341101041ADDMA1101021999999REMMET107MOBOB2 METAR XM24 //000 030318 101853Z AUTO 10002KT 9999 27/23 A2983 RMK A02 SLP104 T02680234 PA084 DA1850=
0134008418999992016011019534+03000+131800FM-15+000099999V0200601N002119999999N009999199+02701+02341101071ADDMA1101051999999REMMET107MOBOB2 METAR XM24 //000 030318 101953Z AUTO 06004KT 9999 27/23 A2984 RMK A02 SLP107 T02700234 PA075 DA1862=
0129008418999992016011020534+03000+131800FM-15+000099999V0200401N002119999999N999999999+02741+02311101111ADDMA1101081999999REMMET102MOBOB2 METAR XM24 //000 030318 102053Z AUTO 04004KT 27/23 A2985 RMK A02 SLP111 T02740231 PA066 DA1888=
0129008418999992016011021534+03000+131800FM-15+000099999V0200301N002119999999N999999999+02751+02341101141ADDMA1101121999999REMMET102MOBOB2 METAR XM24 //000 030318 102153Z AUTO 03004KT 28/23 A2986 RMK A02 SLP114 T02750234 PA057 DA1896=
0129008418999992016011022534+03000+131800FM-15+000099999V0200301N001019999999N999999999+02811+02301101241ADDMA1101221999999REMMET102MOBOB2 METAR XM24 //000 030318 102253Z AUTO 03002KT 28/23 A2989 RMK A02 SLP124 T02810230 PA029 DA1918=
0129008418999992016011023534+03000+131800FM-15+000099999V0200301N001519999999N999999999+02851+02231101311ADDMA1101291999999REMMET102MOBOB2 METAR XM24 //000 030318 102353Z AUTO 03003KT 29/22 A2991 RMK A02 SLP131 T02850223 PA010 DA1927=
0129008418999992016011100534+03000+131800FM-15+000099999V0200401N002619999999N999999999+02911+02301101281ADDMA1101251999999REMMET102MOBOB2 METAR XM24 //000 030318 110053Z AUTO 04005KT 29/23 A2990 RMK A02 SLP128 T02910230 PA020 DA2020=
0129008418999992016011101534+03000+131800FM-15+000099999V0200501N002619999999N999999999+02881+02291101241ADDMA1101221999999REMMET102MOBOB2 METAR XM24 //000 030318 110153Z AUTO 05005KT 29/23 A2989 RMK A02 SLP124 T02880229 PA029 DA1994=
0129008418999992016011102534+03000+131800FM-15+000099999V0200301N002119999999N999999999+02951+02271101171ADDMA1101151999999REMMET102MOBOB2 METAR XM24 //000 030318 110253Z AUTO 03004KT 30/23 A2987 RMK A02 SLP117 T02950227 PA047 DA2092=
0129008418999992016011103544+03000+131800FM-15+000099999V0200601N001519999999N999999999+02951+02241101111ADDMA1101081999999REMMET102MOBOB2 METAR XM24 //000 030318 110354Z AUTO 06003KT 30/22 A2985 RMK A02 SLP111 T02950224 PA066 DA2109=
0129008418999992016011104534+03000+131800FM-15+000099999V0200301N002119999999N999999999+02981+02291100971ADDMA1100951999999REMMET102MOBOB2 METAR XM24 //000 030318 110453Z AUTO 03004KT 30/23 A2981 RMK A02 SLP097 T02980229 PA103 DA2198=
0129008418999992016011105534+03000+131800FM-15+000099999V0200401N002619999999N999999999+02951+02301100941ADDMA1100911999999REMMET102MOBOB2 METAR XM24 //000 030318 110553Z AUTO 04005KT 30/23 A2980 RMK A02 SLP094 T02950230 PA112 DA2178=
0129008418999992016011106534+03000+131800FM-15+000099999V0200501N002619999999N999999999+02921+02261100941ADDMA1100911999999REMMET102MOBOB2 METAR XM24 //000 030318 110653Z AUTO 05005KT 29/23 A2980 RMK A02 SLP094 T02920226 PA112 DA2136=
0129008418999992016011107534+03000+131800FM-15+000099999V0200601N001519999999N999999999+02911+02261101001ADDMA1100981999999REMMET102MOBOB2 METAR XM24 //000 030318 110753Z AUTO 06003KT 29/23 A2982 RMK A02 SLP100 T02910226 PA094 DA2102=
0129008418999992016011108534+03000+131800FM-15+000099999V0200301N001519999999N999999999+02881+02281101041ADDMA1101021999999REMMET102MOBOB2 METAR XM24 //000 030318 110853Z AUTO 03003KT 29/23 A2983 RMK A02 SLP104 T02880228 PA084 DA2062=
0129008418999992016011109534+03000+131800FM-15+000099999V0200301N003119999999N999999999+02831+02341101071ADDMA1101051999999REMMET102MOBOB2 METAR XM24 //000 030318 110953Z AUTO 03006KT 28/23 A2984 RMK A02 SLP107 T02830234 PA075 DA2007=
0129008418999992016011110534+03000+131800FM-15+000099999V0200101N001519999999N999999999+02821+02311101141ADDMA1101121999999REMMET102MOBOB2 METAR XM24 //000 030318 111053Z AUTO 01003KT 28/23 A2986 RMK A02 SLP114 T02820231 PA057 DA1967=
0129008418999992016011111534+03000+131800FM-15+000099999V0203601N001519999999N999999999+02791+02251101211ADDMA1101181999999REMMET102MOBOB2 METAR XM24 //000 030318 111153Z AUTO 36003KT 28/22 A2988 RMK A02 SLP121 T02790225 PA038 DA1897=
0129008418999992016011112544+03000+131800FM-15+000099999V0203601N001019999999N999999999+02781+02281101211ADDMA1101181999999REMMET102MOBOB2 METAR XM24 //000 030318 111254Z AUTO 36002KT 28/23 A2988 RMK A02 SLP121 T02780228 PA038 DA1892=
0129008418999992016011113534+03000+131800FM-15+000099999V0203601N000519999999N999999999+02771+02241101241ADDMA1101221999999REMMET102MOBOB2 METAR XM24 //000 030318 111353Z AUTO 36001KT 28/22 A2989 RMK A02 SLP124 T02770224 PA029 DA1862=
0129008418999992016011114534+03000+131800FM-15+000099999V0202901N002619999999N999999999+02791+02341101211ADDMA1101181999999REMMET102MOBOB2 METAR XM24 //000 030318 111453Z AUTO 29005KT 28/23 A2988 RMK A02 SLP121 T02790234 PA038 DA1916=
0129008418999992016011115534+03000+131800FM-15+000099999V0203601N001519999999N999999999+02751+02281101141ADDMA1101121999999REMMET102MOBOB2 METAR XM24 //000 030318 111553Z AUTO 36003KT 28/23 A2986 RMK A02 SLP114 T02750228 PA057 DA1883=
0129008418999992016011116534+03000+131800FM-15+000099999V0203601N001519999999N999999999+02751+02291101071ADDMA1101051999999REMMET102MOBOB2 METAR XM24 //000 030318 111653Z AUTO 36003KT 28/23 A2984 RMK A02 SLP107 T02750229 PA075 DA1906=
0129008418999992016011117534+03000+131800FM-15+000099999V0203601N001519999999N999999999+02701+02271101071ADDMA1101051999999REMMET102MOBOB2 METAR XM24 //000 030318 111753Z AUTO 36003KT 27/23 A2984 RMK A02 SLP107 T02700227 PA075 DA1845=
0129008418999992016011118534+03000+131800FM-15+000099999V0203501N001519999999N999999999+02681+02281101071ADDMA1101051999999REMMET102MOBOB2 METAR XM24 //000 030318 111853Z AUTO 35003KT 27/23 A2984 RMK A02 SLP107 T02680228 PA075 DA1827=
0129008418999992016011119534+03000+131800FM-15+000099999V0203401N002119999999N999999999+02671+02251101071ADDMA1101051999999REMMET102MOBOB2 METAR XM24 //000 030318 111953Z AUTO 34004KT 27/23 A2984 RMK A02 SLP107 T02670225 PA075 DA1809=
0129008418999992016011120534+03000+131800FM-15+000099999V0203401N002619999999N999999999+02731+02251101141ADDMA1101121999999REMMET102MOBOB2 METAR XM24 //000 030318 112053Z AUTO 34005KT 27/22 A2986 RMK A02 SLP114 T02730225 PA057 DA1853=
0129008418999992016011121534+03000+131800FM-15+000099999V0203301N003619999999N999999999+02761+02271101241ADDMA1101221999999REMMET102MOBOB2 METAR XM24 //000 030318 112153Z AUTO 33007KT 28/23 A2989 RMK A02 SLP124 T02760227 PA029 DA1857=
0129008418999992016011122534+03000+131800FM-15+000099999V0203301N003119999999N999999999+02831+02311101281ADDMA1101251999999REMMET102MOBOB2 METAR XM24 //000 030318 112253Z AUTO 33006KT 28/23 A2990 RMK A02 SLP128 T02830231 PA020 DA1932=
0129008418999992016011123534+03000+131800FM-15+000099999V0203401N002619999999N999999999+02941+02311101341ADDMA1101321999999REMMET102MOBOB2 METAR XM24 //000 030318 112353Z AUTO 34005KT 29/23 A2992 RMK A02 SLP134 T02940231 PA001 DA2032=
0129008418999992016011200544+03000+131800FM-15+000099999V0203501N002119999999N999999999+03031+02321101341ADDMA1101321999999REMMET102MOBOB2 METAR XM24 //000 030318 120054Z AUTO 35004KT 30/23 A2992 RMK A02 SLP134 T03030232 PA001 DA2134=
0129008418999992016011201534+03000+131800FM-15+000099999V0203401N002619999999N999999999+03041+02311101311ADDMA1101291999999REMMET102MOBOB2 METAR XM24 //000 030318 120153Z AUTO 34005KT 30/23 A2991 RMK A02 SLP131 T03040231 PA010 DA2154=
0129008418999992016011202534+03000+131800FM-15+000099999V0203501N002619999999N999999999+03081+02281101241ADDMA1101221999999REMMET102MOBOB2 METAR XM24 //000 030318 120253Z AUTO 35005KT 31/23 A2989 RMK A02 SLP124 T03080228 PA029 DA2216=
0129008418999992016011203534+03000+131800FM-15+000099999V0203401N002619999999N999999999+03131+02311101141ADDMA1101121999999REMMET102MOBOB2 METAR XM24 //000 030318 120353Z AUTO 34005KT 31/23 A2986 RMK A02 SLP114 T03130231 PA057 DA2311=
0129008418999992016011204534+03000+131800FM-15+000099999V0203201N003619999999N999999999+03011+02301101071ADDMA1101051999999REMMET102MOBOB2 METAR XM24 //000 030318 120453Z AUTO 32007KT 30/23 A2984 RMK A02 SLP107 T03010230 PA075 DA2200=
0129008418999992016011205534+03000+131800FM-15+000099999V0203101N003119999999N999999999+02961+02351101001ADDMA1100981999999REMMET102MOBOB2 METAR XM24 //000 030318 120553Z AUTO 31006KT 30/23 A2982 RMK A02 SLP100 T02960235 PA094 DA2177=
0129008418999992016011206534+03000+131800FM-15+000099999V0203201N001519999999N999999999+03001+02261101001ADDMA1100981999999REMMET102MOBOB2 METAR XM24 //000 030318 120653Z AUTO 32003KT 30/23 A2982 RMK A02 SLP100 T03000226 PA094 DA2203=
0129008418999992016011207534+03000+131800FM-15+000099999V0203401N001519999999N999999999+02971+02281101071ADDMA1101051999999REMMET102MOBOB2 METAR XM24 //000 030318 120753Z AUTO 34003KT 30/23 A2984 RMK A02 SLP107 T02970228 PA075 DA2150=
0129008418999992016011208534+03000+131800FM-15+000099999V0203101N001019999999N999999999+02921+02261101071ADDMA1101051999999REMMET102MOBOB2 METAR XM24 //000 030318 120853Z AUTO 31002KT 29/23 A2984 RMK A02 SLP107 T02920226 PA075 DA2089=
0129008418999992016011209534+03000+131800FM-15+000099999V0203301N001519999999N999999999+02831+02281101111ADDMA1101081999999REMMET102MOBOB2 METAR XM24 //000 030318 120953Z AUTO 33003KT 28/23 A2985 RMK A02 SLP111 T02830228 PA066 DA1983=
0129008418999992016011210534+03000+131800FM-15+000099999V0200101N001519999999N999999999+02811+02281101141ADDMA1101121999999REMMET102MOBOB2 METAR XM24 //000 030318 121053Z AUTO 01003KT 28/23 A2986 RMK A02 SLP114 T02810228 PA057 DA1949=
0129008418999992016011211534+03000+131800FM-15+000099999V0203601N001019999999N999999999+02811+02271101211ADDMA1101181999999REMMET102MOBOB2 METAR XM24 //000 030318 121153Z AUTO 36002KT 28/23 A2988 RMK A02 SLP121 T02810227 PA038 DA1924=
0129008418999992016011212534+03000+131800FM-15+000099999V0200501N001519999999N999999999+02831+02321101211ADDMA1101181999999REMMET102MOBOB2 METAR XM24 //000 030318 121253Z AUTO 05003KT 28/23 A2988 RMK A02 SLP121 T02830232 PA038 DA1956=
0129008418999992016011213534+03000+131800FM-15+000099999V0200701N001519999999N999999999+02841+02281101171ADDMA1101151999999REMMET102MOBOB2 METAR XM24 //000 030318 121353Z AUTO 07003KT 28/23 A2987 RMK A02 SLP117 T02840228 PA047 DA1971=
0129008418999992016011214534+03000+131800FM-15+000099999V0200401N002619999999N999999999+02831+02381101141ADDMA1101121999999REMMET102MOBOB2 METAR XM24 //000 030318 121453Z AUTO 04005KT 28/24 A2986 RMK A02 SLP114 T02830238 PA057 DA1992=
0134008418999992016011215534+03000+131800FM-15+000099999V0200701N003619999999N009999199+02791+02461101111ADDMA1101081999999REMMET107MOBOB2 METAR XM24 //000 030318 121553Z AUTO 07007KT 9999 28/25 A2985 RMK A02 SLP111 T02790246 PA066 DA1978=
0134008418999992016011216534+03000+131800FM-15+000099999V0200601N003119999999N009999199+02771+02421101041ADDMA1101021999999REMMET107MOBOB2 METAR XM24 //000 030318 121653Z AUTO 06006KT 9999 28/24 A2983 RMK A02 SLP104 T02770242 PA084 DA1968=
0161008418999992016011217534+03000+131800FM-15+000099999V0200301N002619999999N009000199+02641+02371101041ADDAA101002231AW1611MA1101021999999REMMET117MOBOB2 METAR XM24 //000 030318 121753Z AUTO 03005KT 9000 -RA 26/24 A2983 RMK A02 SLP104 P0009 T02640237 PA084 DA1811=
0161008418999992016011218534+03000+131800FM-15+000099999V0200601N003619999999N009000199+02631+02351101041ADDAA101000531AW1611MA1101021999999REMMET117MOBOB2 METAR XM24 //000 030318 121853Z AUTO 06007KT 9000 -RA 26/24 A2983 RMK A02 SLP104 P0002 T02630235 PA084 DA1797=
0161008418999992016011219534+03000+131800FM-15+000099999V0200701N002119999999N009000199+02651+02391101041ADDAA101000021AW1611MA1101021999999REMMET117MOBOB2 METAR XM24 //000 030318 121953Z AUTO 07004KT 9000 -RA 27/24 A2983 RMK A02 SLP104 P0000 T02650239 PA084 DA1828=
0134008418999992016011220534+03000+131800FM-15+000099999V0200201N000519999999N009999199+02671+02391101111ADDMA1101081999999REMMET107MOBOB2 METAR XM24 //000 030318 122053Z AUTO 02001KT 9999 27/24 A2985 RMK A02 SLP111 T02670239 PA066 DA1828=
0129008418999992016011221534+03000+131800FM-15+000099999V0201601N000519999999N999999999+02681+02401101141ADDMA1101121999999REMMET102MOBOB2 METAR XM24 //000 030318 122153Z AUTO 16001KT 27/24 A2986 RMK A02 SLP114 T02680240 PA057 DA1829=
0129008418999992016011222534+03000+131800FM-15+000099999V0200501N002619999999N999999999+02781+02381101211ADDMA1101181999999REMMET102MOBOB2 METAR XM24 //000 030318 122253Z AUTO 05005KT 28/24 A2988 RMK A02 SLP121 T02780238 PA038 DA1915=
0129008418999992016011223534+03000+131800FM-15+000099999V0200401N004119999999N999999999+02811+02371101241ADDMA1101221999999REMMET102MOBOB2 METAR XM24 //000 030318 122353Z AUTO 04008KT 28/24 A2989 RMK A02 SLP124 T02810237 PA029 DA1935=
0140008418999992016011300534+03000+131800FM-15+000099999V0200701N005719999999N999999999+02851+02351101241ADDMA1101221999999OC100721REMMET105MOBOB2 METAR XM24 //000 030318 130053Z AUTO 07011G14KT 29/23 A2989 RMK A02 SLP124 T02850235 PA029 DA1974=
0129008418999992016011301534+03000+131800FM-15+000099999V0200701N004619999999N999999999+02881+02391101211ADDMA1101181999999REMMET102MOBOB2 METAR XM24 //000 030318 130153Z AUTO 07009KT 29/24 A2988 RMK A02 SLP121 T02880239 PA038 DA2029=
0129008418999992016011302534+03000+131800FM-15+000099999V0200601N004119999999N999999999+02891+02381101141ADDMA1101121999999REMMET102MOBOB2 METAR XM24 //000 030318 130253Z AUTO 06008KT 29/24 A2986 RMK A02 SLP114 T02890238 PA057 DA2059=
0129008418999992016011303534+03000+131800FM-15+000099999V0200601N004119999999N999999999+02921+02351101071ADDMA1101051999999REMMET102MOBOB2 METAR XM24 //000 030318 130353Z AUTO 06008KT 29/24 A2984 RMK A02 SLP107 T02920235 PA075 DA2110=
0140008418999992016011304534+03000+131800FM-15+000099999V0200601N005119999999N999999999+02911+02391100971ADDMA1100951999999OC100671REMMET105MOBOB2 METAR XM24 //000 030318 130453Z AUTO 06010G13KT 29/24 A2981 RMK A02 SLP097 T02910239 PA103 DA2143=
0129008418999992016011305534+03000+131800FM-15+000099999V0200601N004619999999N999999999+02911+02401100941ADDMA1100911999999REMMET102MOBOB2 METAR XM24 //000 030318 130553Z AUTO 06009KT 29/24 A2980 RMK A02 SLP094 T02910240 PA112 DA2155=
0129008418999992016011306534+03000+131800FM-15+000099999V0200601N004619999999N999999999+02941+02431100941ADDMA1100911999999REMMET102MOBOB2 METAR XM24 //000 030318 130653Z AUTO 06009KT 29/24 A2980 RMK A02 SLP094 T02940243 PA112 DA2196=
0129008418999992016011307534+03000+131800FM-15+000099999V0200601N004619999999N999999999+02881+02331100971ADDMA1100951999999REMMET102MOBOB2 METAR XM24 //000 030318 130753Z AUTO 06009KT 29/23 A2981 RMK A02 SLP097 T02880233 PA103 DA2095=
0129008418999992016011308534+03000+131800FM-15+000099999V0200601N004119999999N999999999+02881+02391101001ADDMA1100981999999REMMET102MOBOB2 METAR XM24 //000 030318 130853Z AUTO 06008KT 29/24 A2982 RMK A02 SLP100 T02880239 PA094 DA2097=
0129008418999992016011309534+03000+131800FM-15+000099999V0200601N004619999999N999999999+02841+02341101041ADDMA1101021999999REMMET102MOBOB2 METAR XM24 //000 030318 130953Z AUTO 06009KT 28/23 A2983 RMK A02 SLP104 T02840234 PA084 DA2031=
0129008418999992016011310534+03000+131800FM-15+000099999V0200701N004119999999N999999999+02821+02341101141ADDMA1101121999999REMMET102MOBOB2 METAR XM24 //000 030318 131053Z AUTO 07008KT 28/23 A2986 RMK A02 SLP114 T02820234 PA057 DA1974=
0129008418999992016011311534+03000+131800FM-15+000099999V0200501N004619999999N999999999+02821+02311101171ADDMA1101151999999REMMET102MOBOB2 METAR XM24 //000 030318 131153Z AUTO 05009KT 28/23 A2987 RMK A02 SLP117 T02820231 PA047 DA1955=
0129008418999992016011312534+03000+131800FM-15+000099999V0200601N003119999999N999999999+02811+02271101211ADDMA1101181999999REMMET102MOBOB2 METAR XM24 //000 030318 131253Z AUTO 06006KT 28/23 A2988 RMK A02 SLP121 T02810227 PA038 DA1924=
0129008418999992016011313534+03000+131800FM-15+000099999V0200701N003619999999N999999999+02811+02331101171ADDMA1101151999999REMMET102MOBOB2 METAR XM24 //000 030318 131353Z AUTO 07007KT 28/23 A2987 RMK A02 SLP117 T02810233 PA047 DA1948=
0129008418999992016011314534+03000+131800FM-15+000099999V0200601N003619999999N999999999+02801+02331101111ADDMA1101081999999REMMET102MOBOB2 METAR XM24 //000 030318 131453Z AUTO 06007KT 28/23 A2985 RMK A02 SLP111 T02800233 PA066 DA1960=
0129008418999992016011315534+03000+131800FM-15+000099999V0200501N003619999999N999999999+02781+02291101041ADDMA1101021999999REMMET102MOBOB2 METAR XM24 //000 030318 131553Z AUTO 05007KT 28/23 A2983 RMK A02 SLP104 T02780229 PA084 DA1952=
0129008418999992016011316534+03000+131800FM-15+000099999V0200501N004619999999N999999999+02781+02291100971ADDMA1100951999999REMMET102MOBOB2 METAR XM24 //000 030318 131653Z AUTO 05009KT 28/23 A2981 RMK A02 SLP097 T02780229 PA103 DA1975=
0129008418999992016011317534+03000+131800FM-15+000099999V0200401N004119999999N999999999+02751+02301100901ADDMA1100881999999REMMET102MOBOB2 METAR XM24 //000 030318 131753Z AUTO 04008KT 28/23 A2979 RMK A02 SLP090 T02750230 PA122 DA1965=
0129008418999992016011318534+03000+131800FM-15+000099999V0200601N003619999999N999999999+02731+02291100871ADDMA1100851999999REMMET102MOBOB2 METAR XM24 //000 030318 131853Z AUTO 06007KT 27/23 A2978 RMK A02 SLP087 T02730229 PA131 DA1953=
0129008418999992016011319534+03000+131800FM-15+000099999V0200501N003619999999N999999999+02731+02301100941ADDMA1100911999999REMMET102MOBOB2 METAR XM24 //000 030318 131953Z AUTO 05007KT 27/23 A2980 RMK A02 SLP094 T02730230 PA112 DA1932=
0129008418999992016011320534+03000+131800FM-15+000099999V0200601N003119999999N999999999+02721+02361100971ADDMA1100951999999REMMET102MOBOB2 METAR XM24 //000 030318 132053Z AUTO 06006KT 27/24 A2981 RMK A02 SLP097 T02720236 PA103 DA1922=
0129008418999992016011321534+03000+131800FM-15+000099999V0200601N003619999999N999999999+02751+02301101071ADDMA1101051999999REMMET102MOBOB2 METAR XM24 //000 030318 132153Z AUTO 06007KT 28/23 A2984 RMK A02 SLP107 T02750230 PA075 DA1909=
0129008418999992016011322534+03000+131800FM-15+000099999V0200701N003619999999N999999999+02831+02331101141ADDMA1101121999999REMMET102MOBOB2 METAR XM24 //000 030318 132253Z AUTO 07007KT 28/23 A2986 RMK A02 SLP114 T02830233 PA057 DA1982=
0129008418999992016011323534+03000+131800FM-15+000099999V0200401N003619999999N999999999+02841+02321101171ADDMA1101151999999REMMET102MOBOB2 METAR XM24 //000 030318 132353Z AUTO 04007KT 28/23 A2987 RMK A02 SLP117 T02840232 PA047 DA1979=
0129008418999992016011400534+03000+131800FM-15+000099999V0200501N003619999999N999999999+02851+02331101171ADDMA1101151999999REMMET102MOBOB2 METAR XM24 //000 030318 140053Z AUTO 05007KT 29/23 A2987 RMK A02 SLP117 T02850233 PA047 DA1993=
0129008418999992016011401534+03000+131800FM-15+000099999V0200601N003619999999N999999999+02881+02301101111ADDMA1101081999999REMMET102MOBOB2 METAR XM24 //000 030318 140153Z AUTO 06007KT 29/23 A2985 RMK A02 SLP111 T02880230 PA066 DA2042=
0129008418999992016011402534+03000+131800FM-15+000099999V0200501N003119999999N999999999+02921+02391101071ADDMA1101051999999REMMET102MOBOB2 METAR XM24 //000 030318 140253Z AUTO 05006KT 29/24 A2984 RMK A02 SLP107 T02920239 PA075 DA2119=
0129008418999992016011403534+03000+131800FM-15+000099999V0200601N002619999999N999999999+02911+02341101001ADDMA1100981999999REMMET102MOBOB2 METAR XM24 //000 030318 140353Z AUTO 06005KT 29/23 A2982 RMK A02 SLP100 T02910234 PA094 DA2120=
0129008418999992016011404534+03000+131800FM-15+000099999V0200501N002119999999N999999999+02941+02361100901ADDMA1100881999999REMMET102MOBOB2 METAR XM24 //000 030318 140453Z AUTO 05004KT 29/24 A2979 RMK A02 SLP090 T02940236 PA122 DA2190=
0129008418999992016011405534+03000+131800FM-15+000099999V0200501N002619999999N999999999+02941+02391100871ADDMA1100851999999REMMET102MOBOB2 METAR XM24 //000 030318 140553Z AUTO 05005KT 29/24 A2978 RMK A02 SLP087 T02940239 PA131 DA2209=
0129008418999992016011406534+03000+131800FM-15+000099999V0200501N002619999999N999999999+02921+02371100871ADDMA1100851999999REMMET102MOBOB2 METAR XM24 //000 030318 140653Z AUTO 05005KT 29/24 A2978 RMK A02 SLP087 T02920237 PA131 DA2182=
0129008418999992016011407534+03000+131800FM-15+000099999V0200501N002119999999N999999999+02881+02431100871ADDMA1100851999999REMMET102MOBOB2 METAR XM24 //000 030318 140753Z AUTO 05004KT 29/24 A2978 RMK A02 SLP087 T02880243 PA131 DA2151=
0129008418999992016011408534+03000+131800FM-15+000099999V0200501N002619999999N999999999+02841+02401100941ADDMA1100911999999REMMET102MOBOB2 METAR XM24 //000 030318 140853Z AUTO 05005KT 28/24 A2980 RMK A02 SLP094 T02840240 PA112 DA2078=
0129008418999992016011409534+03000+131800FM-15+000099999V0200501N004119999999N999999999+02821+02491100971ADDMA1100951999999REMMET102MOBOB2 METAR XM24 //000 030318 140953Z AUTO 05008KT 28/25 A2981 RMK A02 SLP097 T02820249 PA103 DA2065=
0129008418999992016011410534+03000+131800FM-15+000099999V0200501N004119999999N999999999+02791+02441101001ADDMA1100981999999REMMET102MOBOB2 METAR XM24 //000 030318 141053Z AUTO 05008KT 28/24 A2982 RMK A02 SLP100 T02790244 PA094 DA2008=
0156008418999992016011411534+03000+131800FM-15+000099999V0200601N004119999999N999999999+02811+02431101071ADDAA101000021AW1611MA1101051999999REMMET112MOBOB2 METAR XM24 //000 030318 141153Z AUTO 06008KT -RA 28/24 A2984 RMK A02 SLP107 P0000 T02810243 PA075 DA2005=
0129008418999992016011412544+03000+131800FM-15+000099999V0200701N003119999999N999999999+02821+02411101071ADDMA1101051999999REMMET102MOBOB2 METAR XM24 //000 030318 141254Z AUTO 07006KT 28/24 A2984 RMK A02 SLP107 T02820241 PA075 DA2013=
0129008418999992016011413534+03000+131800FM-15+000099999V0200601N003619999999N999999999+02811+02361101071ADDMA1101051999999REMMET102MOBOB2 METAR XM24 //000 030318 141353Z AUTO 06007KT 28/24 A2984 RMK A02 SLP107 T02810236 PA075 DA1990=
0129008418999992016011414534+03000+131800FM-15+000099999V0200501N003619999999N999999999+02801+02421101041ADDMA1101021999999REMMET102MOBOB2 METAR XM24 //000 030318 141453Z AUTO 05007KT 28/24 A2983 RMK A02 SLP104 T02800242 PA084 DA2004=
0129008418999992016011415534+03000+131800FM-15+000099999V0200501N003619999999N999999999+02791+02431100971ADDMA1100951999999REMMET102MOBOB2 METAR XM24 //000 030318 141553Z AUTO 05007KT 28/24 A2981 RMK A02 SLP097 T02790243 PA103 DA2017=
0161008418999992016011416534+03000+131800FM-15+000099999V0200401N003619999999N009000199+02671+02361100941ADDAA101000021AW1611MA1100911999999REMMET117MOBOB2 METAR XM24 //000 030318 141653Z AUTO 04007KT 9000 -RA 27/24 A2980 RMK A02 SLP094 P0000 T02670236 PA112 DA1879=
0129008418999992016011417534+03000+131800FM-15+000099999V0200501N005119999999N999999999+02711+02361100871ADDMA1100851999999REMMET102MOBOB2 METAR XM24 //000 030318 141753Z AUTO 05010KT 27/24 A2978 RMK A02 SLP087 T02710236 PA131 DA1946=
0172008418999992016011418534+03000+131800FM-15+000099999V0200501N006719999999N009000199+02671+02361100841ADDAA101000731AW1611MA1100811999999OC100821REMMET120MOBOB2 METAR XM24 //000 030318 141853Z AUTO 05013G16KT 9000 -RA 27/24 A2977 RMK A02 SLP084 P0003 T02670236 PA140 DA1912=
0129008418999992016011419534+03000+131800FM-15+000099999V0200601N004619999999N999999999+02721+02401100871ADDMA1100851999999REMMET102MOBOB2 METAR XM24 //000 030318 141953Z AUTO 06009KT 27/24 A2978 RMK A02 SLP087 T02720240 PA131 DA1966=
0129008418999992016011420534+03000+131800FM-15+000099999V0200501N003619999999N999999999+02711+02341100941ADDMA1100911999999REMMET102MOBOB2 METAR XM24 //000 030318 142053Z AUTO 05007KT 27/23 A2980 RMK A02 SLP094 T02710234 PA112 DA1919=
0156008418999992016011421534+03000+131800FM-15+000099999V0200101N002119999999N999999999+02631+02341101001ADDAA101000231AW1611MA1100981999999REMMET112MOBOB2 METAR XM24 //000 030318 142153Z AUTO 01004KT -RA 26/23 A2982 RMK A02 SLP100 P0001 T02630234 PA094 DA1806=
0140008418999992016011422534+03000+131800FM-15+000099999V0200601N005119999999N999999999+02731+02381101041ADDMA1101021999999OC100721REMMET105MOBOB2 METAR XM24 //000 030318 142253Z AUTO 06010G14KT 27/24 A2983 RMK A02 SLP104 T02730238 PA084 DA1915=
0140008418999992016011423534+03000+131800FM-15+000099999V0200601N006219999999N999999999+02741+02421101071ADDMA1101051999999OC100771REMMET105MOBOB2 METAR XM24 //000 030318 142353Z AUTO 06012G15KT 27/24 A2984 RMK A02 SLP107 T02740242 PA075 DA1923=
0140008418999992016011500534+03000+131800FM-15+000099999V0200601N007219999999N999999999+02681+02361101071ADDMA1101051999999OC100881REMMET105MOBOB2 METAR XM24 //000 030318 150053Z AUTO 06014G17KT 27/24 A2984 RMK A02 SLP107 T02680236 PA075 DA1844=
0140008418999992016011501544+03000+131800FM-15+000099999V0200501N005119999999N999999999+02671+02321101041ADDMA1101021999999OC100621REMMET105MOBOB2 METAR XM24 //000 030318 150154Z AUTO 05010G12KT 27/23 A2983 RMK A02 SLP104 T02670232 PA084 DA1834=
0167008418999992016011502534+03000+131800FM-15+000099999V0200601N007219999999N999999999+02691+02391100971ADDAA101000021AW1611MA1100951999999OC100931REMMET115MOBOB2 METAR XM24 //000 030318 150253Z AUTO 06014G18KT -RA 27/24 A2981 RMK A02 SLP097 P0000 T02690239 PA103 DA1897=
0156008418999992016011503534+03000+131800FM-15+000099999V0200801N003119999999N999999999+02631+02381100941ADDAA101001531AW1631MA1100911999999REMMET112MOBOB2 METAR XM24 //000 030318 150353Z AUTO 08006KT +RA 26/24 A2980 RMK A02 SLP094 P0006 T02630238 PA112 DA1837=
0167008418999992016011504534+03000+131800FM-15+000099999V0200601N005119999999N999999999+02741+02381100841ADDAA101000021AW1611MA1100811999999OC100671REMMET115MOBOB2 METAR XM24 //000 030318 150453Z AUTO 06010G13KT -RA 27/24 A2977 RMK A02 SLP084 P0000 T02740238 PA140 DA1996=
0167008418999992016011505534+03000+131800FM-15+000099999V0200701N006719999999N999999999+02761+02411100771ADDAA101000021AW1611MA1100741999999OC100821REMMET115MOBOB2 METAR XM24 //000 030318 150553Z AUTO 07013G16KT -RA 28/24 A2975 RMK A02 SLP077 P0000 T02760241 PA159 DA2048=
0129008418999992016011506534+03000+131800FM-15+000099999V0200801N003619999999N999999999+02761+02411100771ADDMA1100741999999REMMET102MOBOB2 METAR XM24 //000 030318 150653Z AUTO 08007KT 28/24 A2975 RMK A02 SLP077 T02760241 PA159 DA2047=
0129008418999992016011507534+03000+131800FM-15+000099999V0200501N004119999999N999999999+02811+02391100771ADDMA1100741999999REMMET102MOBOB2 METAR XM24 //000 030318 150753Z AUTO 05008KT 28/24 A2975 RMK A02 SLP077 T02810239 PA159 DA2098=
0140008418999992016011508534+03000+131800FM-15+000099999V0200601N005119999999N999999999+02821+02371100801ADDMA1100781999999OC100721REMMET105MOBOB2 METAR XM24 //000 030318 150853Z AUTO 06010G14KT 28/24 A2976 RMK A02 SLP080 T02820237 PA149 DA2093=
0156008418999992016011509534+03000+131800FM-15+000099999V0200601N004119999999N999999999+02821+02381100871ADDAA101000021AW1611MA1100851999999REMMET112MOBOB2 METAR XM24 //000 030318 150953Z AUTO 06008KT -RA 28/24 A2978 RMK A02 SLP087 P0000 T02820238 PA131 DA2072=
0140008418999992016011510534+03000+131800FM-15+000099999V0200601N005119999999N999999999+02831+02401100941ADDMA1100911999999OC100621REMMET105MOBOB2 METAR XM24 //000 030318 151053Z AUTO 06010G12KT 28/24 A2980 RMK A02 SLP094 T02830240 PA112 DA2066=
0129008418999992016011511534+03000+131800FM-15+000099999V0200601N004619999999N999999999+02831+02401101001ADDMA1100981999999REMMET102MOBOB2 METAR XM24 //000 030318 151153Z AUTO 06009KT 28/24 A2982 RMK A02 SLP100 T02830240 PA094 DA2044=
0167008418999992016011512534+03000+131800FM-15+000099999V0200801N007219999999N999999999+02791+02421100971ADDAA101000021AW1611MA1100951999999OC100931REMMET115MOBOB2 METAR XM24 //000 030318 151253Z AUTO 08014G18KT -RA 28/24 A2981 RMK A02 SLP097 P0000 T02790242 PA103 DA2015=
0156008418999992016011513534+03000+131800FM-15+000099999V0200601N004119999999N999999999+02731+02341100971ADDAA101000021AW1611MA1100951999999REMMET112MOBOB2 METAR XM24 //000 030318 151353Z AUTO 06008KT -RA 27/23 A2981 RMK A02 SLP097 P0000 T02730234 PA103 DA1929=
0129008418999992016011514534+03000+131800FM-15+000099999V0200701N003619999999N999999999+02791+02451100941ADDMA1100911999999REMMET102MOBOB2 METAR XM24 //000 030318 151453Z AUTO 07007KT 28/24 A2980 RMK A02 SLP094 T02790245 PA112 DA2033=
0129008418999992016011515534+03000+131800FM-15+000099999V0200201N002119999999N999999999+02701+02261100871ADDMA1100851999999REMMET102MOBOB2 METAR XM24 //000 030318 151553Z AUTO 02004KT 27/23 A2978 RMK A02 SLP087 T02700226 PA131 DA1913=
0156008418999992016011516534+03000+131800FM-15+000099999V0200401N004119999999N999999999+02791+02381100801ADDAA101000021AW1611MA1100781999999REMMET112MOBOB2 METAR XM24 //000 030318 151653Z AUTO 04008KT -RA 28/24 A2976 RMK A02 SLP080 P0000 T02790238 PA149 DA2062=
0129008418999992016011517534+03000+131800FM-15+000099999V0200401N004119999999N999999999+02811+02421100771ADDMA1100741999999REMMET102MOBOB2 METAR XM24 //000 030318 151753Z AUTO 04008KT 28/24 A2975 RMK A02 SLP077 T02810242 PA159 DA2106=
0129008418999992016011518534+03000+131800FM-15+000099999V0200401N004619999999N999999999+02781+02411100701ADDMA1100681999999REMMET102MOBOB2 METAR XM24 //000 030318 151853Z AUTO 04009KT 28/24 A2973 RMK A02 SLP070 T02780241 PA177 DA2092=
0140008418999992016011519534+03000+131800FM-15+000099999V0200401N004619999999N999999999+02771+02371100771ADDMA1100741999999OC100621REMMET105MOBOB2 METAR XM24 //000 030318 151953Z AUTO 04009G12KT 28/24 A2975 RMK A02 SLP077 T02770237 PA159 DA2050=
0140008418999992016011520534+03000+131800FM-15+000099999V0200501N005719999999N999999999+02781+02391100841ADDMA1100811999999OC100721REMMET105MOBOB2 METAR XM24 //000 030318 152053Z AUTO 05011G14KT 28/24 A2977 RMK A02 SLP084 T02780239 PA140 DA2043=
0140008418999992016011521534+03000+131800FM-15+000099999V0200501N005719999999N999999999+02781+02371100901ADDMA1100881999999OC100721REMMET105MOBOB2 METAR XM24 //000 030318 152153Z AUTO 05011G14KT 28/24 A2979 RMK A02 SLP090 T02780237 PA122 DA2016=
0140008418999992016011522534+03000+131800FM-15+000099999V0200501N005719999999N999999999+02811+02401100971ADDMA1100951999999OC100671REMMET105MOBOB2 METAR XM24 //000 030318 152253Z AUTO 05011G13KT 28/24 A2981 RMK A02 SLP097 T02810240 PA103 DA2032=
0140008418999992016011523534+03000+131800FM-15+000099999V0200501N005719999999N999999999+02831+02361101001ADDMA1100981999999OC100721REMMET105MOBOB2 METAR XM24 //000 030318 152353Z AUTO 05011G14KT 28/24 A2982 RMK A02 SLP100 T02830236 PA094 DA2034=
0140008418999992016011600534+03000+131800FM-15+000099999V0200401N005119999999N999999999+02861+02401100971ADDMA1100951999999OC100621REMMET105MOBOB2 METAR XM24 //000 030318 160053Z AUTO 04010G12KT 29/24 A2981 RMK A02 SLP097 T02860240 PA103 DA2088=
0140008418999992016011601534+03000+131800FM-15+000099999V0200501N005119999999N999999999+02871+02351100941ADDMA1100911999999OC100621REMMET105MOBOB2 METAR XM24 //000 030318 160153Z AUTO 05010G12KT 29/24 A2980 RMK A02 SLP094 T02870235 PA112 DA2100=
0129008418999992016011602534+03000+131800FM-15+000099999V0200501N004619999999N999999999+02891+02371100901ADDMA1100881999999REMMET102MOBOB2 METAR XM24 //000 030318 160253Z AUTO 05009KT 29/24 A2979 RMK A02 SLP090 T02890237 PA122 DA2138=
0140008418999992016011603534+03000+131800FM-15+000099999V0200401N005119999999N999999999+02891+02361100871ADDMA1100851999999OC100621REMMET105MOBOB2 METAR XM24 //000 030318 160353Z AUTO 04010G12KT 29/24 A2978 RMK A02 SLP087 T02890236 PA131 DA2148=
0129008418999992016011604534+03000+131800FM-15+000099999V0200501N004619999999N999999999+02911+02401100771ADDMA1100741999999REMMET102MOBOB2 METAR XM24 //000 030318 160453Z AUTO 05009KT 29/24 A2975 RMK A02 SLP077 T02910240 PA159 DA2212=
0129008418999992016011605534+03000+131800FM-15+000099999V0200501N004619999999N999999999+02891+02351100731ADDMA1100711999999REMMET102MOBOB2 METAR XM24 //000 030318 160553Z AUTO 05009KT 29/23 A2974 RMK A02 SLP073 T02890235 PA168 DA2190=
0129008418999992016011606534+03000+131800FM-15+000099999V0200401N004119999999N999999999+02891+02341100701ADDMA1100681999999REMMET102MOBOB2 METAR XM24 //000 030318 160653Z AUTO 04008KT 29/23 A2973 RMK A02 SLP070 T02890234 PA177 DA2200=
0129008418999992016011607544+03000+131800FM-15+000099999V0200401N003619999999N999999999+02891+02391100731ADDMA1100711999999REMMET102MOBOB2 METAR XM24 //000 030318 160754Z AUTO 04007KT 29/24 A2974 RMK A02 SLP073 T02890239 PA168 DA2200=
0129008418999992016011608534+03000+131800FM-15+000099999V0200401N004119999999N999999999+02851+02381100771ADDMA1100741999999REMMET102MOBOB2 METAR XM24 //000 030318 160853Z AUTO 04008KT 29/24 A2975 RMK A02 SLP077 T02850238 PA159 DA2141=
0167008418999992016011609534+03000+131800FM-15+000099999V0200701N005719999999N999999999+02751+02441100841ADDAA101000021AW1611MA1100811999999OC100721REMMET115MOBOB2 METAR XM24 //000 030318 160953Z AUTO 07011G14KT -RA 28/24 A2977 RMK A02 SLP084 P0000 T02750244 PA140 DA2021=
0129008418999992016011610534+03000+131800FM-15+000099999V0200501N004119999999N999999999+02791+02411100871ADDMA1100851999999REMMET102MOBOB2 METAR XM24 //000 030318 161053Z AUTO 05008KT 28/24 A2978 RMK A02 SLP087 T02790241 PA131 DA2048=
0129008418999992016011611534+03000+131800FM-15+000099999V0200401N004619999999N999999999+02821+02421100941ADDMA1100911999999REMMET102MOBOB2 METAR XM24 //000 030318 161153Z AUTO 04009KT 28/24 A2980 RMK A02 SLP094 T02820242 PA112 DA2060=
0156008418999992016011612534+03000+131800FM-15+000099999V0200201N001519999999N999999999+02711+02381100971ADDAA101000021AW1611MA1100951999999REMMET112MOBOB2 METAR XM24 //000 030318 161253Z AUTO 02003KT -RA 27/24 A2981 RMK A02 SLP097 P0000 T02710238 PA103 DA1915=
0129008418999992016011613534+03000+131800FM-15+000099999V0200401N003119999999N999999999+02811+02451101001ADDMA1100981999999REMMET102MOBOB2 METAR XM24 //000 030318 161353Z AUTO 04006KT 28/24 A2982 RMK A02 SLP100 T02810245 PA094 DA2032=
0129008418999992016011614534+03000+131800FM-15+000099999V0200301N003119999999N999999999+02791+02411100971ADDMA1100951999999REMMET102MOBOB2 METAR XM24 //000 030318 161453Z AUTO 03006KT 28/24 A2981 RMK A02 SLP097 T02790241 PA103 DA2012=
0129008418999992016011615534+03000+131800FM-15+000099999V0200401N003619999999N999999999+02811+02401100901ADDMA1100881999999REMMET102MOBOB2 METAR XM24 //000 030318 161553Z AUTO 04007KT 28/24 A2979 RMK A02 SLP090 T02810240 PA122 DA2055=
0129008418999992016011616534+03000+131800FM-15+000099999V0200401N003619999999N999999999+02801+02381100841ADDMA1100811999999REMMET102MOBOB2 METAR XM24 //000 030318 161653Z AUTO 04007KT 28/24 A2977 RMK A02 SLP084 T02800238 PA140 DA2063=
0129008418999992016011617534+03000+131800FM-15+000099999V0200401N003619999999N999999999+02781+02351100801ADDMA1100781999999REMMET102MOBOB2 METAR XM24 //000 030318 161753Z AUTO 04007KT 28/23 A2976 RMK A02 SLP080 T02780235 PA149 DA2044=
0140008418999992016011618534+03000+131800FM-15+000099999V0200401N005719999999N999999999+02711+02331100801ADDMA1100781999999OC100721REMMET105MOBOB2 METAR XM24 //000 030318 161853Z AUTO 04011G14KT 27/23 A2976 RMK A02 SLP080 T02710233 PA149 DA1963=
0129008418999992016011619534+03000+131800FM-15+000099999V0200301N002619999999N999999999+02751+02411100801ADDMA1100781999999REMMET102MOBOB2 METAR XM24 //000 030318 161953Z AUTO 03005KT 28/24 A2976 RMK A02 SLP080 T02750241 PA149 DA2025=
0129008418999992016011620534+03000+131800FM-15+000099999V0200601N003619999999N999999999+02781+02361100871ADDMA1100851999999REMMET102MOBOB2 METAR XM24 //000 030318 162053Z AUTO 06007KT 28/24 A2978 RMK A02 SLP087 T02780236 PA131 DA2025=
0129008418999992016011621534+03000+131800FM-15+000099999V0200601N003619999999N999999999+02801+02411100941ADDMA1100911999999REMMET102MOBOB2 METAR XM24 //000 030318 162153Z AUTO 06007KT 28/24 A2980 RMK A02 SLP094 T02800241 PA112 DA2036=
0167008418999992016011622534+03000+131800FM-15+000099999V0200301N005119999999N999999999+02771+02401101001ADDAA101000731AW1611MA1100981999999OC100771REMMET115MOBOB2 METAR XM24 //000 030318 162253Z AUTO 03010G15KT -RA 28/24 A2982 RMK A02 SLP100 P0003 T02770240 PA094 DA1976=
0129008418999992016011623534+03000+131800FM-15+000099999V0200501N004119999999N999999999+02811+02431101041ADDMA1101021999999REMMET102MOBOB2 METAR XM24 //000 030318 162353Z AUTO 05008KT 28/24 A2983 RMK A02 SLP104 T02810243 PA084 DA2017=
0129008418999992016011700534+03000+131800FM-15+000099999V0200601N004119999999N999999999+02861+02391101041ADDMA1101021999999REMMET102MOBOB2 METAR XM24 //000 030318 170053Z AUTO 06008KT 29/24 A2983 RMK A02 SLP104 T02860239 PA084 DA2064=
0129008418999992016011701534+03000+131800FM-15+000099999V0200601N004119999999N999999999+02861+02371101001ADDMA1100981999999REMMET102MOBOB2 METAR XM24 //000 030318 170153Z AUTO 06008KT 29/24 A2982 RMK A02 SLP100 T02860237 PA094 DA2071=
0129008418999992016011702534+03000+131800FM-15+000099999V0200601N004119999999N999999999+02881+02401100971ADDMA1100951999999REMMET102MOBOB2 METAR XM24 //000 030318 170253Z AUTO 06008KT 29/24 A2981 RMK A02 SLP097 T02880240 PA103 DA2111=
0129008418999992016011703534+03000+131800FM-15+000099999V0200601N003619999999N999999999+02911+02381100841ADDMA1100811999999REMMET102MOBOB2 METAR XM24 //000 030318 170353Z AUTO 06007KT 29/24 A2977 RMK A02 SLP084 T02910238 PA140 DA2186=
0129008418999992016011704534+03000+131800FM-15+000099999V0200701N004119999999N999999999+02921+02371100801ADDMA1100781999999REMMET102MOBOB2 METAR XM24 //000 030318 170453Z AUTO 07008KT 29/24 A2976 RMK A02 SLP080 T02920237 PA149 DA2206=
0140008418999992016011705534+03000+131800FM-15+000099999V0200401N004619999999N999999999+02881+02381100731ADDMA1100711999999OC100671REMMET105MOBOB2 METAR XM24 //000 030318 170553Z AUTO 04009G13KT 29/24 A2974 RMK A02 SLP073 T02880238 PA168 DA2187=
0129008418999992016011706534+03000+131800FM-15+000099999V0200601N004119999999N999999999+02911+02351100731ADDMA1100711999999REMMET102MOBOB2 METAR XM24 //000 030318 170653Z AUTO 06008KT 29/24 A2974 RMK A02 SLP073 T02910235 PA168 DA2213=
0129008418999992016011707534+03000+131800FM-15+000099999V0200501N004119999999N999999999+02891+02391100731ADDMA1100711999999REMMET102MOBOB2 METAR XM24 //000 030318 170753Z AUTO 05008KT 29/24 A2974 RMK A02 SLP073 T02890239 PA168 DA2199=
0129008418999992016011708534+03000+131800FM-15+000099999V0200501N004119999999N999999999+02851+02441100771ADDMA1100741999999REMMET102MOBOB2 METAR XM24 //000 030318 170853Z AUTO 05008KT 29/24 A2975 RMK A02 SLP077 T02850244 PA159 DA2154=
0129008418999992016011709534+03000+131800FM-15+000099999V0200601N003119999999N999999999+02821+02421100841ADDMA1100811999999REMMET102MOBOB2 METAR XM24 //000 030318 170953Z AUTO 06006KT 28/24 A2977 RMK A02 SLP084 T02820242 PA140 DA2094=
0129008418999992016011710534+03000+131800FM-15+000099999V0200501N003619999999N999999999+02871+02461100901ADDMA1100881999999REMMET102MOBOB2 METAR XM24 //000 030318 171053Z AUTO 05007KT 29/25 A2979 RMK A02 SLP090 T02870246 PA122 DA2136=
0167008418999992016011711534+03000+131800FM-15+000099999V0200401N004619999999N999999999+02721+02341100971ADDAA101000531AW1611MA1100951999999OC100671REMMET115MOBOB2 METAR XM24 //000 030318 171153Z AUTO 04009G13KT -RA 27/23 A2981 RMK A02 SLP097 P0002 T02720234 PA103 DA1919=
0156008418999992016011712534+03000+131800FM-15+000099999V0200601N004119999999N999999999+02821+02411101001ADDAA101000021AW1611MA1100981999999REMMET112MOBOB2 METAR XM24 //000 030318 171253Z AUTO 06008KT -RA 28/24 A2982 RMK A02 SLP100 P0000 T02820241 PA094 DA2035=
0167008418999992016011713534+03000+131800FM-15+000099999V0200501N004619999999N999999999+02831+02391100971ADDAA101000021AW1611MA1100951999999OC100621REMMET115MOBOB2 METAR XM24 //000 030318 171353Z AUTO 05009G12KT -RA 28/24 A2981 RMK A02 SLP097 P0000 T02830239 PA103 DA2053=
0167008418999992016011714534+03000+131800FM-15+000099999V0200601N005719999999N999999999+02761+02411100941ADDAA101000021AW1611MA1100911999999OC100671REMMET115MOBOB2 METAR XM24 //000 030318 171453Z AUTO 06011G13KT -RA 28/24 A2980 RMK A02 SLP094 P0000 T02760241 PA112 DA1989=
0156008418999992016011715534+03000+131800FM-15+000099999V0200401N004119999999N999999999+02751+02451100871ADDAA101000021AW1611MA1100851999999REMMET112MOBOB2 METAR XM24 //000 030318 171553Z AUTO 04008KT -RA 28/24 A2978 RMK A02 SLP087 P0000 T02750245 PA131 DA2010=
0129008418999992016011716534+03000+131800FM-15+000099999V0200501N004119999999N999999999+02751+02401100801ADDMA1100781999999REMMET102MOBOB2 METAR XM24 //000 030318 171653Z AUTO 05008KT 28/24 A2976 RMK A02 SLP080 T02750240 PA149 DA2023=
0129008418999992016011717534+03000+131800FM-15+000099999V0200401N004619999999N999999999+02781+02421100731ADDMA1100711999999REMMET102MOBOB2 METAR XM24 //000 030318 171753Z AUTO 04009KT 28/24 A2974 RMK A02 SLP073 T02780242 PA168 DA2082=
0129008418999992016011718534+03000+131800FM-15+000099999V0200601N004119999999N999999999+02801+02391100731ADDMA1100711999999REMMET102MOBOB2 METAR XM24 //000 030318 171853Z AUTO 06008KT 28/24 A2974 RMK A02 SLP073 T02800239 PA168 DA2100=
0140008418999992016011719534+03000+131800FM-15+000099999V0200601N004619999999N999999999+02801+02421100771ADDMA1100741999999OC100621REMMET105MOBOB2 METAR XM24 //000 030318 171953Z AUTO 06009G12KT 28/24 A2975 RMK A02 SLP077 T02800242 PA159 DA2095=
0140008418999992016011720534+03000+131800FM-15+000099999V0200401N006219999999N999999999+02721+02371100801ADDMA1100781999999OC100771REMMET105MOBOB2 METAR XM24 //000 030318 172053Z AUTO 04012G15KT 27/24 A2976 RMK A02 SLP080 T02720237 PA149 DA1982=
0140008418999992016011721534+03000+131800FM-15+000099999V0200501N004619999999N999999999+02791+02421100901ADDMA1100881999999OC100671REMMET105MOBOB2 METAR XM24 //000 030318 172153Z AUTO 05009G13KT 28/24 A2979 RMK A02 SLP090 T02790242 PA122 DA2038=
0129008418999992016011722534+03000+131800FM-15+000099999V0200601N004619999999N999999999+02821+02441100971ADDMA1100951999999REMMET102MOBOB2 METAR XM24 //000 030318 172253Z AUTO 06009KT 28/24 A2981 RMK A02 SLP097 T02820244 PA103 DA2052=
0129008418999992016011723534+03000+131800FM-15+000099999V0200601N005119999999N999999999+02811+02411101071ADDMA1101051999999REMMET102MOBOB2 METAR XM24 //000 030318 172353Z AUTO 06010KT 28/24 A2984 RMK A02 SLP107 T02810241 PA075 DA2001=
0129008418999992016011800534+03000+131800FM-15+000099999V0200701N004619999999N999999999+02801+02371101071ADDMA1101051999999REMMET102MOBOB2 METAR XM24 //000 030318 180053Z AUTO 07009KT 28/24 A2984 RMK A02 SLP107 T02800237 PA075 DA1980=
0129008418999992016011801534+03000+131800FM-15+000099999V0200601N003619999999N999999999+02871+02461101041ADDMA1101021999999REMMET102MOBOB2 METAR XM24 //000 030318 180153Z AUTO 06007KT 29/25 A2983 RMK A02 SLP104 T02870246 PA084 DA2092=
0140008418999992016011802534+03000+131800FM-15+000099999V0200701N005119999999N999999999+02831+02441100971ADDMA1100951999999OC100671REMMET105MOBOB2 METAR XM24 //000 030318 180253Z AUTO 07010G13KT 28/24 A2981 RMK A02 SLP097 T02830244 PA103 DA2063=
0129008418999992016011803534+03000+131800FM-15+000099999V0200701N004619999999N999999999+02891+02471100901ADDMA1100881999999REMMET102MOBOB2 METAR XM24 //000 030318 180353Z AUTO 07009KT 29/25 A2979 RMK A02 SLP090 T02890247 PA122 DA2161=
0129008418999992016011804534+03000+131800FM-15+000099999V0200701N004119999999N999999999+02901+02391100841ADDMA1100811999999REMMET102MOBOB2 METAR XM24 //000 030318 180453Z AUTO 07008KT 29/24 A2977 RMK A02 SLP084 T02900239 PA140 DA2177=
0129008418999992016011805534+03000+131800FM-15+000099999V0200801N004119999999N999999999+02931+02431100771ADDMA1100741999999REMMET102MOBOB2 METAR XM24 //000 030318 180553Z AUTO 08008KT 29/24 A2975 RMK A02 SLP077 T02930243 PA159 DA2242=
0129008418999992016011806534+03000+131800FM-15+000099999V0200601N003619999999N999999999+02881+02401100771ADDMA1100741999999REMMET102MOBOB2 METAR XM24 //000 030318 180653Z AUTO 06007KT 29/24 A2975 RMK A02 SLP077 T02880240 PA159 DA2179=
0129008418999992016011807534+03000+131800FM-15+000099999V0200601N004119999999N999999999+02911+02441100771ADDMA1100741999999REMMET102MOBOB2 METAR XM24 //000 030318 180753Z AUTO 06008KT 29/24 A2975 RMK A02 SLP077 T02910244 PA159 DA2222=
0129008418999992016011808534+03000+131800FM-15+000099999V0200501N004619999999N999999999+02881+02471100871ADDMA1100851999999REMMET102MOBOB2 METAR XM24 //000 030318 180853Z AUTO 05009KT 29/25 A2978 RMK A02 SLP087 T02880247 PA131 DA2162=
0129008418999992016011809534+03000+131800FM-15+000099999V0200501N004619999999N999999999+02871+02451100941ADDMA1100911999999REMMET102MOBOB2 METAR XM24 //000 030318 180953Z AUTO 05009KT 29/25 A2980 RMK A02 SLP094 T02870245 PA112 DA2123=
