0130008414999992016010100524+31000+061900FM-15+049099999V0203301N000519999999N999999999+00461+00101102101ADDMA1102001999999REMMET103MOBOB3 METAR XM18 //049 310619 010052Z AUTO 33001KT 05/01 A3012 RMK A02 SLP210 T00460010 PA1417 DA0607=
0130008414999992016010101524+31000+061900FM-15+049099999V0203201N000519999999N999999999+00501+00111102181ADDMA1102071999999REMMET103MOBOB3 METAR XM18 //049 310619 010152Z AUTO 32001KT 05/01 A3014 RMK A02 SLP218 T00500011 PA1398 DA0632=
0130008414999992016010102524+31000+061900FM-15+049099999V0203401N000519999999N999999999+00581+00201102291ADDMA1102171999999REMMET103MOBOB3 METAR XM18 //049 310619 010252Z AUTO 34001KT 06/02 A3017 RMK A02 SLP229 T00580020 PA1369 DA0700=
0130008414999992016010103524+31000+061900FM-15+049099999V0200901N000519999999N999999999+00961+00291102311ADDMA1102231999999REMMET103MOBOB3 METAR XM18 //049 310619 010352Z AUTO 09001KT 10/03 A3019 RMK A02 SLP231 T00960029 PA1350 DA1142=
0130008414999992016010104524+31000+061900FM-15+049099999V0201601N002119999999N999999999+01141+00371102311ADDMA1102231999999REMMET103MOBOB3 METAR XM18 //049 310619 010452Z AUTO 16004KT 11/04 A3019 RMK A02 SLP231 T01140037 PA1350 DA1362=
0130008414999992016010105524+31000+061900FM-15+049099999V0201701N002119999999N999999999+01401+00411102261ADDMA1102201999999REMMET103MOBOB3 METAR XM18 //049 310619 010552Z AUTO 17004KT 14/04 A3018 RMK A02 SLP226 T01400041 PA1359 DA1685=
0130008414999992016010106524+31000+061900FM-15+049099999V0201801N001519999999N999999999+01591+00301102111ADDMA1102071999999REMMET103MOBOB3 METAR XM18 //049 310619 010652Z AUTO 18003KT 16/03 A3014 RMK A02 SLP211 T01590030 PA1398 DA1947=
0130008414999992016010107524+31000+061900FM-15+049099999V0201601N001519999999N999999999+01751+00271102021ADDMA1102001999999REMMET103MOBOB3 METAR XM18 //049 310619 010752Z AUTO 16003KT 18/03 A3012 RMK A02 SLP202 T01750027 PA1417 DA2154=
0130008414999992016010108524+31000+061900FM-15+049099999V0201401N001019999999N999999999+01911+00281101941ADDMA1101931999999REMMET103MOBOB3 METAR XM18 //049 310619 010852Z AUTO 14002KT 19/03 A3010 RMK A02 SLP194 T01910028 PA1436 DA2363=
0130008414999992016010109524+31000+061900FM-15+049099999V0201401N000519999999N999999999+01961+00281101951ADDMA1101931999999REMMET103MOBOB3 METAR XM18 //049 310619 010952Z AUTO 14001KT 20/03 A3010 RMK A02 SLP195 T01960028 PA1436 DA2420=
0130008414999992016010110524+31000+061900FM-15+049099999V0200801N001519999999N999999999+01831+00321101921ADDMA1101901999999REMMET103MOBOB3 METAR XM18 //049 310619 011052Z AUTO 08003KT 18/03 A3009 RMK A02 SLP192 T01830032 PA1446 DA2286=
0130008414999992016010111524+31000+061900FM-15+049099999V0200301N001019999999N999999999+01771+00351101931ADDMA1101901999999REMMET103MOBOB3 METAR XM18 //049 310619 011152Z AUTO 03002KT 18/04 A3009 RMK A02 SLP193 T01770035 PA1446 DA2219=
0130008414999992016010112524+31000+061900FM-15+049099999V0203001N000519999999N999999999+01621+00531102061ADDMA1102001999999REMMET103MOBOB3 METAR XM18 //049 310619 011252Z AUTO 30001KT 16/05 A3012 RMK A02 SLP206 T01620053 PA1417 DA2023=
0130008414999992016010113524+31000+061900FM-15+049099999V0202901N001019999999N999999999+01491+00511102151ADDMA1102071999999REMMET103MOBOB3 METAR XM18 //049 310619 011352Z AUTO 29002KT 15/05 A3014 RMK A02 SLP215 T01490051 PA1398 DA1846=
0130008414999992016010114524+31000+061900FM-15+049099999V0203101N001019999999N999999999+01411+00491102181ADDMA1102101999999REMMET103MOBOB3 METAR XM18 //049 310619 011452Z AUTO 31002KT 14/05 A3015 RMK A02 SLP218 T01410049 PA1388 DA1739=
0130008414999992016010115524+31000+061900FM-15+049099999V0203501N001019999999N999999999+01321+00511102151ADDMA1102101999999REMMET103MOBOB3 METAR XM18 //049 310619 011552Z AUTO 35002KT 13/05 A3015 RMK A02 SLP215 T01320051 PA1388 DA1634=
0130008414999992016010116524+31000+061900FM-15+049099999V0202301N001019999999N999999999+01341+00501102131ADDMA1102101999999REMMET103MOBOB3 METAR XM18 //049 310619 011652Z AUTO 23002KT 13/05 A3015 RMK A02 SLP213 T01340050 PA1388 DA1657=
0130008414999992016010117524+31000+061900FM-15+049099999V0202401N000519999999N999999999+01271+00471102081ADDMA1102071999999REMMET103MOBOB3 METAR XM18 //049 310619 011752Z AUTO 24001KT 13/05 A3014 RMK A02 SLP208 T01270047 PA1398 DA1584=
0130008414999992016010118524+31000+061900FM-15+049099999V0203101N000519999999N999999999+01181+00491102031ADDMA1102031999999REMMET103MOBOB3 METAR XM18 //049 310619 011852Z AUTO 31001KT 12/05 A3013 RMK A02 SLP203 T01180049 PA1407 DA1490=
0130008414999992016010119524+31000+061900FM-15+049099999V0209999C000019999999N999999999+00991+00451101921ADDMA1101931999999REMMET103MOBOB3 METAR XM18 //049 310619 011952Z AUTO 00000KT 10/05 A3010 RMK A02 SLP192 T00990045 PA1436 DA1297=
0130008414999992016010120524+31000+061900FM-15+049099999V0203401N000519999999N999999999+00971+00441101911ADDMA1101931999999REMMET103MOBOB3 METAR XM18 //049 310619 012052Z AUTO 34001KT 10/04 A3010 RMK A02 SLP191 T00970044 PA1436 DA1273=
0130008414999992016010121524+31000+061900FM-15+049099999V0202701N000519999999N999999999+00901+00451101881ADDMA1101901999999REMMET103MOBOB3 METAR XM18 //049 310619 012152Z AUTO 27001KT 09/05 A3009 RMK A02 SLP188 T00900045 PA1446 DA1201=
0130008414999992016010122524+31000+061900FM-15+049099999V0201501N000519999999N999999999+01031+00411101811ADDMA1101831999999REMMET103MOBOB3 METAR XM18 //049 310619 012252Z AUTO 15001KT 10/04 A3007 RMK A02 SLP181 T01030041 PA1465 DA1378=
0130008414999992016010123524+31000+061900FM-15+049099999V0203401N000519999999N999999999+00961+00441101851ADDMA1101861999999REMMET103MOBOB3 METAR XM18 //049 310619 012352Z AUTO 34001KT 10/04 A3008 RMK A02 SLP185 T00960044 PA1455 DA1284=
0130008414999992016010200524+31000+061900FM-15+049099999V0209999C000019999999N999999999+00781+00441101921ADDMA1101901999999REMMET103MOBOB3 METAR XM18 //049 310619 020052Z AUTO 00000KT 08/04 A3009 RMK A02 SLP192 T00780044 PA1446 DA1056=
0130008414999992016010201524+31000+061900FM-15+049099999V0200201N000519999999N999999999+00851+00461101931ADDMA1101901999999REMMET103MOBOB3 METAR XM18 //049 310619 020152Z AUTO 02001KT 09/05 A3009 RMK A02 SLP193 T00850046 PA1446 DA1142=
0130008414999992016010202524+31000+061900FM-15+049099999V0203501N001519999999N999999999+00901+00491102001ADDMA1101961999999REMMET103MOBOB3 METAR XM18 //049 310619 020252Z AUTO 35003KT 09/05 A3011 RMK A02 SLP200 T00900049 PA1427 DA1180=
0130008414999992016010203524+31000+061900FM-15+049099999V0201401N001519999999N999999999+01341+00591102071ADDMA1102071999999REMMET103MOBOB3 METAR XM18 //049 310619 020352Z AUTO 14003KT 13/06 A3014 RMK A02 SLP207 T01340059 PA1398 DA1676=
0130008414999992016010204524+31000+061900FM-15+049099999V0201201N001519999999N999999999+01551+00631102011ADDMA1102031999999REMMET103MOBOB3 METAR XM18 //049 310619 020452Z AUTO 12003KT 16/06 A3013 RMK A02 SLP201 T01550063 PA1407 DA1938=
0130008414999992016010205524+31000+061900FM-15+049099999V0201301N002119999999N999999999+01791+00641101891ADDMA1101931999999REMMET103MOBOB3 METAR XM18 //049 310619 020552Z AUTO 13004KT 18/06 A3010 RMK A02 SLP189 T01790064 PA1436 DA2253=
0130008414999992016010206524+31000+061900FM-15+049099999V0201201N002619999999N999999999+01961+00591101741ADDMA1101791999999REMMET103MOBOB3 METAR XM18 //049 310619 020652Z AUTO 12005KT 20/06 A3006 RMK A02 SLP174 T01960059 PA1475 DA2492=
0130008414999992016010207524+31000+061900FM-15+049099999V0201101N000519999999N999999999+02201+00611101621ADDMA1101661999999REMMET103MOBOB3 METAR XM18 //049 310619 020752Z AUTO 11001KT 22/06 A3002 RMK A02 SLP162 T02200061 PA1504 DA2803=
0130008414999992016010208524+31000+061900FM-15+049099999V0201901N001019999999N999999999+02271+00541101551ADDMA1101591999999REMMET103MOBOB3 METAR XM18 //049 310619 020852Z AUTO 19002KT 23/05 A3000 RMK A02 SLP155 T02270054 PA1523 DA2901=
0130008414999992016010209524+31000+061900FM-15+049099999V0202901N001019999999N999999999+02301+00591101521ADDMA1101561999999REMMET103MOBOB3 METAR XM18 //049 310619 020952Z AUTO 29002KT 23/06 A2999 RMK A02 SLP152 T02300059 PA1533 DA2950=
0130008414999992016010210524+31000+061900FM-15+049099999V0203501N001519999999N999999999+02251+00621101471ADDMA1101521999999REMMET103MOBOB3 METAR XM18 //049 310619 021052Z AUTO 35003KT 23/06 A2998 RMK A02 SLP147 T02250062 PA1542 DA2909=
0130008414999992016010211524+31000+061900FM-15+049099999V0203501N001019999999N999999999+02151+00751101491ADDMA1101521999999REMMET103MOBOB3 METAR XM18 //049 310619 021152Z AUTO 35002KT 22/07 A2998 RMK A02 SLP149 T02150075 PA1542 DA2806=
0130008414999992016010212524+31000+061900FM-15+049099999V0202701N001019999999N999999999+01931+00691101601ADDMA1101591999999REMMET103MOBOB3 METAR XM18 //049 310619 021252Z AUTO 27002KT 19/07 A3000 RMK A02 SLP160 T01930069 PA1523 DA2526=
0130008414999992016010213524+31000+061900FM-15+049099999V0202701N002119999999N999999999+01791+00681101681ADDMA1101661999999REMMET103MOBOB3 METAR XM18 //049 310619 021352Z AUTO 27004KT 18/07 A3002 RMK A02 SLP168 T01790068 PA1504 DA2340=
0130008414999992016010214524+31000+061900FM-15+049099999V0202901N001019999999N999999999+01681+00561101651ADDMA1101631999999REMMET103MOBOB3 METAR XM18 //049 310619 021452Z AUTO 29002KT 17/06 A3001 RMK A02 SLP165 T01680056 PA1513 DA2214=
0130008414999992016010215524+31000+061900FM-15+049099999V0202701N001019999999N999999999+01611+00561101581ADDMA1101591999999REMMET103MOBOB3 METAR XM18 //049 310619 021552Z AUTO 27002KT 16/06 A3000 RMK A02 SLP158 T01610056 PA1523 DA2145=
0130008414999992016010216524+31000+061900FM-15+049099999V0201501N001019999999N999999999+01551+00581101531ADDMA1101561999999REMMET103MOBOB3 METAR XM18 //049 310619 021652Z AUTO 15002KT 16/06 A2999 RMK A02 SLP153 T01550058 PA1533 DA2089=
0130008414999992016010217524+31000+061900FM-15+049099999V0201101N001019999999N999999999+01491+00641101441ADDMA1101491999999REMMET103MOBOB3 METAR XM18 //049 310619 021752Z AUTO 11002KT 15/06 A2997 RMK A02 SLP144 T01490064 PA1552 DA2048=
0130008414999992016010218524+31000+061900FM-15+049099999V0201701N001019999999N999999999+01501+00731101421ADDMA1101491999999REMMET103MOBOB3 METAR XM18 //049 310619 021852Z AUTO 17002KT 15/07 A2997 RMK A02 SLP142 T01500073 PA1552 DA2068=
0130008414999992016010219524+31000+061900FM-15+049099999V0202701N001519999999N999999999+01481+00721101391ADDMA1101491999999REMMET103MOBOB3 METAR XM18 //049 310619 021952Z AUTO 27003KT 15/07 A2997 RMK A02 SLP139 T01480072 PA1552 DA2043=
0130008414999992016010220524+31000+061900FM-15+049099999V0202801N002619999999N999999999+01441+00601101501ADDMA1101591999999REMMET103MOBOB3 METAR XM18 //049 310619 022052Z AUTO 28005KT 14/06 A3000 RMK A02 SLP150 T01440060 PA1523 DA1950=
0157008414999992016010221524+31000+061900FM-15+049099999V0203301N002119999999N999999999+01371+00741101571ADDAA101000021AW1611MA1101661999999REMMET113MOBOB3 METAR XM18 //049 310619 022152Z AUTO 33004KT -RA 14/07 A3002 RMK A02 SLP157 P0000 T01370074 PA1504 DA1857=
0130008414999992016010222524+31000+061900FM-15+049099999V0200601N001519999999N999999999+01441+00751101501ADDMA1101591999999REMMET103MOBOB3 METAR XM18 //049 310619 022252Z AUTO 06003KT 14/07 A3000 RMK A02 SLP150 T01440075 PA1523 DA1963=
0157008414999992016010223524+31000+061900FM-15+049099999V0200601N002619999999N999999999+01371+00851101481ADDAA101000021AW1611MA1101561999999REMMET113MOBOB3 METAR XM18 //049 310619 022352Z AUTO 06005KT -RA 14/09 A2999 RMK A02 SLP148 P0000 T01370085 PA1533 DA1903=
0157008414999992016010300524+31000+061900FM-15+049099999V0200101N002119999999N999999999+01381+00961101541ADDAA101000021AW1611MA1101591999999REMMET113MOBOB3 METAR XM18 //049 310619 030052Z AUTO 01004KT -RA 14/10 A3000 RMK A02 SLP154 P0000 T01380096 PA1523 DA1914=
0130008414999992016010301524+31000+061900FM-15+049099999V0201701N000519999999N999999999+01361+01011101691ADDMA1101761999999REMMET103MOBOB3 METAR XM18 //049 310619 030152Z AUTO 17001KT 14/10 A3005 RMK A02 SLP169 T01360101 PA1484 DA1848=
0157008414999992016010302524+31000+061900FM-15+049099999V0200801N001519999999N999999999+01381+01031101741ADDAA101000021AW1611MA1101791999999REMMET113MOBOB3 METAR XM18 //049 310619 030252Z AUTO 08003KT -RA 14/10 A3006 RMK A02 SLP174 P0000 T01380103 PA1475 DA1862=
0130008414999992016010303534+31000+061900FM-15+049099999V0200701N001519999999N999999999+01471+01061101841ADDMA1101901999999REMMET103MOBOB3 METAR XM18 //049 310619 030353Z AUTO 07003KT 15/11 A3009 RMK A02 SLP184 T01470106 PA1446 DA1935=
0157008414999992016010304524+31000+061900FM-15+049099999V0200701N002119999999N999999999+01541+01151101841ADDAA101000021AW1611MA1101901999999REMMET113MOBOB3 METAR XM18 //049 310619 030452Z AUTO 07004KT -RA 15/12 A3009 RMK A02 SLP184 P0000 T01540115 PA1446 DA2028=
0168008414999992016010305524+31000+061900FM-15+049099999V0200901N004119999999N999999999+01701+01231101721ADDAA101000021AW1611MA1101791999999OC100621REMMET116MOBOB3 METAR XM18 //049 310619 030552Z AUTO 09008G12KT -RA 17/12 A3006 RMK A02 SLP172 P0000 T01700123 PA1475 DA2259=
0141008414999992016010306534+31000+061900FM-15+049099999V0200901N006219999999N999999999+01791+01281101531ADDMA1101591999999OC101031REMMET106MOBOB3 METAR XM18 //049 310619 030653Z AUTO 09012G20KT 18/13 A3000 RMK A02 SLP153 T01790128 PA1523 DA2429=
0141008414999992016010307524+31000+061900FM-15+049099999V0201201N005719999999N999999999+01791+01151101461ADDMA1101521999999OC100981REMMET106MOBOB3 METAR XM18 //049 310619 030752Z AUTO 12011G19KT 18/12 A2998 RMK A02 SLP146 T01790115 PA1542 DA2438=
0141008414999992016010308524+31000+061900FM-15+049099999V0201401N004619999999N999999999+01791+01151101321ADDMA1101391999999OC100821REMMET106MOBOB3 METAR XM18 //049 310619 030852Z AUTO 14009G16KT 18/11 A2994 RMK A02 SLP132 T01790115 PA1581 DA2484=
0141008414999992016010309524+31000+061900FM-15+049099999V0201401N004619999999N999999999+01751+01171101261ADDMA1101321999999OC100931REMMET106MOBOB3 METAR XM18 //049 310619 030952Z AUTO 14009G18KT 18/12 A2992 RMK A02 SLP126 T01750117 PA1601 DA2465=
0130008414999992016010310524+31000+061900FM-15+049099999V0201301N003119999999N999999999+01781+01141101251ADDMA1101321999999REMMET103MOBOB3 METAR XM18 //049 310619 031052Z AUTO 13006KT 18/11 A2992 RMK A02 SLP125 T01780114 PA1601 DA2496=
0141008414999992016010311524+31000+061900FM-15+049099999V0201601N004119999999N999999999+01721+01111101301ADDMA1101351999999OC100721REMMET106MOBOB3 METAR XM18 //049 310619 031152Z AUTO 16008G14KT 17/11 A2993 RMK A02 SLP130 T01720111 PA1591 DA2411=
0130008414999992016010312524+31000+061900FM-15+049099999V0202701N002619999999N999999999+01741+01041101521ADDMA1101561999999REMMET103MOBOB3 METAR XM18 //049 310619 031252Z AUTO 27005KT 17/10 A2999 RMK A02 SLP152 T01740104 PA1533 DA2355=
0168008414999992016010313524+31000+061900FM-15+049099999V0203401N005119999999N999999999+01491+01231101611ADDAA101000021AW1611MA1101631999999OC100721REMMET116MOBOB3 METAR XM18 //049 310619 031352Z AUTO 34010G14KT -RA 15/12 A3001 RMK A02 SLP161 P0000 T01490123 PA1513 DA2063=
0157008414999992016010314524+31000+061900FM-15+049099999V0200801N004119999999N999999999+01411+01221101511ADDAA101000731AW1611MA1101521999999REMMET113MOBOB3 METAR XM18 //049 310619 031452Z AUTO 08008KT -RA 14/12 A2998 RMK A02 SLP151 P0003 T01410122 PA1542 DA2003=
0156008414999992016010315524+31000+061900FM-15+049099999V0203101N002619999999N999999999+01391+01211101761ADDAA101000021AW1621MA1101791999999REMMET112MOBOB3 METAR XM18 //049 310619 031552Z AUTO 31005KT RA 14/12 A3006 RMK A02 SLP176 P0000 T01390121 PA1475 DA1894=
0156008414999992016010316524+31000+061900FM-15+049099999V0209999C000019999999N999999999+01421+01091101571ADDAA101007831AW1621MA1101591999999REMMET112MOBOB3 METAR XM18 //049 310619 031652Z AUTO 00000KT RA 14/11 A3000 RMK A02 SLP157 P0031 T01420109 PA1523 DA1975=
0156008414999992016010317524+31000+061900FM-15+049099999V0203401N002119999999N999999999+01371+01181101701ADDAA101002231AW1621MA1101761999999REMMET112MOBOB3 METAR XM18 //049 310619 031752Z AUTO 34004KT RA 14/12 A3005 RMK A02 SLP170 P0009 T01370118 PA1484 DA1880=
0157008414999992016010318524+31000+061900FM-15+049099999V0201701N002119999999N999999999+01351+01161101691ADDAA101004031AW1611MA1101761999999REMMET113MOBOB3 METAR XM18 //049 310619 031852Z AUTO 17004KT -RA 14/12 A3005 RMK A02 SLP169 P0016 T01350116 PA1484 DA1854=
0157008414999992016010319534+31000+061900FM-15+049099999V0201601N001519999999N999999999+01361+01061101591ADDAA101000021AW1611MA1101631999999REMMET113MOBOB3 METAR XM18 //049 310619 031953Z AUTO 16003KT -RA 14/11 A3001 RMK A02 SLP159 P0000 T01360106 PA1513 DA1889=
0157008414999992016010320524+31000+061900FM-15+049099999V0202901N002619999999N999999999+01291+01101101741ADDAA101000021AW1611MA1101791999999REMMET113MOBOB3 METAR XM18 //049 310619 032052Z AUTO 29005KT -RA 13/11 A3006 RMK A02 SLP174 P0000 T01290110 PA1475 DA1763=
0130008414999992016010321524+31000+061900FM-15+049099999V0203001N002119999999N999999999+01081+00891101841ADDMA1101861999999REMMET103MOBOB3 METAR XM18 //049 310619 032152Z AUTO 30004KT 11/09 A3008 RMK A02 SLP184 T01080089 PA1455 DA1468=
0130008414999992016010322534+31000+061900FM-15+049099999V0203001N002119999999N999999999+01001+00801101841ADDMA1101861999999REMMET103MOBOB3 METAR XM18 //049 310619 032253Z AUTO 30004KT 10/08 A3008 RMK A02 SLP184 T01000080 PA1455 DA1363=
0130008414999992016010323524+31000+061900FM-15+049099999V0202901N002119999999N999999999+00911+00701101931ADDMA1101931999999REMMET103MOBOB3 METAR XM18 //049 310619 032352Z AUTO 29004KT 09/07 A3010 RMK A02 SLP193 T00910070 PA1436 DA1223=
0130008414999992016010400524+31000+061900FM-15+049099999V0203001N002119999999N999999999+00841+00651102011ADDMA1102001999999REMMET103MOBOB3 METAR XM18 //049 310619 040052Z AUTO 30004KT 08/07 A3012 RMK A02 SLP201 T00840065 PA1417 DA1110=
0130008414999992016010401524+31000+061900FM-15+049099999V0202701N001519999999N999999999+00791+00621102151ADDMA1102101999999REMMET103MOBOB3 METAR XM18 //049 310619 040152Z AUTO 27003KT 08/06 A3015 RMK A02 SLP215 T00790062 PA1388 DA1011=
0130008414999992016010402524+31000+061900FM-15+049099999V0203001N001519999999N999999999+00821+00611102301ADDMA1102231999999REMMET103MOBOB3 METAR XM18 //049 310619 040252Z AUTO 30003KT 08/06 A3019 RMK A02 SLP230 T00820061 PA1350 DA0998=
0130008414999992016010403534+31000+061900FM-15+049099999V0203301N002619999999N999999999+00971+00661102391ADDMA1102341999999REMMET103MOBOB3 METAR XM18 //049 310619 040353Z AUTO 33005KT 10/07 A3022 RMK A02 SLP239 T00970066 PA1321 DA1147=
0130008414999992016010404524+31000+061900FM-15+049099999V0203201N001519999999N999999999+01101+00681102411ADDMA1102371999999REMMET103MOBOB3 METAR XM18 //049 310619 040452Z AUTO 32003KT 11/07 A3023 RMK A02 SLP241 T01100068 PA1311 DA1292=
0130008414999992016010405524+31000+061900FM-15+049099999V0203501N002619999999N999999999+01281+00871102361ADDMA1102341999999REMMET103MOBOB3 METAR XM18 //049 310619 040552Z AUTO 35005KT 13/09 A3022 RMK A02 SLP236 T01280087 PA1321 DA1537=
0130008414999992016010406524+31000+061900FM-15+049099999V0203001N001519999999N999999999+01431+00921102271ADDMA1102271999999REMMET103MOBOB3 METAR XM18 //049 310619 040652Z AUTO 30003KT 14/09 A3020 RMK A02 SLP227 T01430092 PA1340 DA1742=
0130008414999992016010407534+31000+061900FM-15+049099999V0203201N001019999999N999999999+01581+00991102181ADDMA1102201999999REMMET103MOBOB3 METAR XM18 //049 310619 040753Z AUTO 32002KT 16/10 A3018 RMK A02 SLP218 T01580099 PA1359 DA1949=
0130008414999992016010408524+31000+061900FM-15+049099999V0203501N001019999999N999999999+01671+00981102141ADDMA1102171999999REMMET103MOBOB3 METAR XM18 //049 310619 040852Z AUTO 35002KT 17/10 A3017 RMK A02 SLP214 T01670098 PA1369 DA2064=
0130008414999992016010409524+31000+061900FM-15+049099999V0201901N000519999999N999999999+01731+01041102191ADDMA1102201999999REMMET103MOBOB3 METAR XM18 //049 310619 040952Z AUTO 19001KT 17/10 A3018 RMK A02 SLP219 T01730104 PA1359 DA2128=
0130008414999992016010410524+31000+061900FM-15+049099999V0200401N001019999999N999999999+01711+01051102201ADDMA1102201999999REMMET103MOBOB3 METAR XM18 //049 310619 041052Z AUTO 04002KT 17/11 A3018 RMK A02 SLP220 T01710105 PA1359 DA2107=
0130008414999992016010411534+31000+061900FM-15+049099999V0200701N001519999999N999999999+01601+01121102261ADDMA1102231999999REMMET103MOBOB3 METAR XM18 //049 310619 041153Z AUTO 07003KT 16/11 A3019 RMK A02 SLP226 T01600112 PA1350 DA1975=
0130008414999992016010412524+31000+061900FM-15+049099999V0200701N001019999999N999999999+01471+01161102351ADDMA1102301999999REMMET103MOBOB3 METAR XM18 //049 310619 041252Z AUTO 07002KT 15/12 A3021 RMK A02 SLP235 T01470116 PA1330 DA1804=
0130008414999992016010413524+31000+061900FM-15+049099999V0200801N002119999999N999999999+01381+01171102401ADDMA1102341999999REMMET103MOBOB3 METAR XM18 //049 310619 041352Z AUTO 08004KT 14/12 A3022 RMK A02 SLP240 T01380117 PA1321 DA1688=
0130008414999992016010414534+31000+061900FM-15+049099999V0201301N001019999999N999999999+01271+01111102481ADDMA1102401999999REMMET103MOBOB3 METAR XM18 //049 310619 041453Z AUTO 13002KT 13/11 A3024 RMK A02 SLP248 T01270111 PA1301 DA1526=
0144008414999992016010415524+31000+061900FM-15+049099999V0202601N000519999999N006000199+01221+01091102511ADDAW1101MA1102471999999REMMET111MOBOB3 METAR XM18 //049 310619 041552Z AUTO 26001KT 6000 BR 12/11 A3026 RMK A02 SLP251 T01220109 PA1292 DA1453=
0144008414999992016010416524+31000+061900FM-15+049099999V0202901N000519999999N000200199+01051+00931102521ADDAW1301MA1102471999999REMMET111MOBOB3 METAR XM18 //049 310619 041652Z AUTO 29001KT 0200 FG 11/09 A3026 RMK A02 SLP252 T01050093 PA1292 DA1234=
0135008414999992016010417534+31000+061900FM-15+049099999V0202801N002119999999N009999199+01021+00911102541ADDMA1102511999999REMMET108MOBOB3 METAR XM18 //049 310619 041753Z AUTO 28004KT 9999 10/09 A3027 RMK A02 SLP254 T01020091 PA1282 DA1184=
0135008414999992016010418524+31000+061900FM-15+049099999V0203201N001519999999N009999199+00921+00711102461ADDMA1102401999999REMMET108MOBOB3 METAR XM18 //049 310619 041852Z AUTO 32003KT 9999 09/07 A3024 RMK A02 SLP246 T00920071 PA1301 DA1068=
0135008414999992016010419524+31000+061900FM-15+049099999V0203401N001519999999N009999199+00831+00611102421ADDMA1102371999999REMMET108MOBOB3 METAR XM18 //049 310619 041952Z AUTO 34003KT 9999 08/06 A3023 RMK A02 SLP242 T00830061 PA1311 DA0963=
0130008414999992016010420534+31000+061900FM-15+049099999V0203201N001519999999N999999999+00801+00491102381ADDMA1102341999999REMMET103MOBOB3 METAR XM18 //049 310619 042053Z AUTO 32003KT 08/05 A3022 RMK A02 SLP238 T00800049 PA1321 DA0928=
0130008414999992016010421524+31000+061900FM-15+049099999V0203201N002119999999N999999999+00771+00421102341ADDMA1102301999999REMMET103MOBOB3 METAR XM18 //049 310619 042152Z AUTO 32004KT 08/04 A3021 RMK A02 SLP234 T00770042 PA1330 DA0898=
0130008414999992016010422524+31000+061900FM-15+049099999V0203101N001519999999N999999999+00741+00381102311ADDMA1102271999999REMMET103MOBOB3 METAR XM18 //049 310619 042252Z AUTO 31003KT 07/04 A3020 RMK A02 SLP231 T00740038 PA1340 DA0871=
0130008414999992016010423534+31000+061900FM-15+049099999V0203301N002619999999N999999999+00721+00371102331ADDMA1102271999999REMMET103MOBOB3 METAR XM18 //049 310619 042353Z AUTO 33005KT 07/04 A3020 RMK A02 SLP233 T00720037 PA1340 DA0846=
0130008414999992016010500524+31000+061900FM-15+049099999V0203601N001519999999N999999999+00631+00381102421ADDMA1102341999999REMMET103MOBOB3 METAR XM18 //049 310619 050052Z AUTO 36003KT 06/04 A3022 RMK A02 SLP242 T00630038 PA1321 DA0713=
0130008414999992016010501524+31000+061900FM-15+049099999V0203601N001519999999N999999999+00581+00351102471ADDMA1102371999999REMMET103MOBOB3 METAR XM18 //049 310619 050152Z AUTO 36003KT 06/03 A3023 RMK A02 SLP247 T00580035 PA1311 DA0639=
0130008414999992016010502534+31000+061900FM-15+049099999V0203401N001019999999N999999999+00641+00361102521ADDMA1102401999999REMMET103MOBOB3 METAR XM18 //049 310619 050253Z AUTO 34002KT 06/04 A3024 RMK A02 SLP252 T00640036 PA1301 DA0700=
0130008414999992016010503524+31000+061900FM-15+049099999V0200401N001019999999N999999999+00851+00471102501ADDMA1102401999999REMMET103MOBOB3 METAR XM18 //049 310619 050352Z AUTO 04002KT 09/05 A3024 RMK A02 SLP250 T00850047 PA1301 DA0963=
0130008414999992016010504524+31000+061900FM-15+049099999V0201101N000519999999N999999999+01091+00641102521ADDMA1102471999999REMMET103MOBOB3 METAR XM18 //049 310619 050452Z AUTO 11001KT 11/06 A3026 RMK A02 SLP252 T01090064 PA1292 DA1253=
0130008414999992016010505534+31000+061900FM-15+049099999V0200701N001019999999N999999999+01241+00731102401ADDMA1102341999999REMMET103MOBOB3 METAR XM18 //049 310619 050553Z AUTO 07002KT 12/07 A3022 RMK A02 SLP240 T01240073 PA1321 DA1475=
0130008414999992016010506524+31000+061900FM-15+049099999V0200401N001019999999N999999999+01261+00911102261ADDMA1102201999999REMMET103MOBOB3 METAR XM18 //049 310619 050652Z AUTO 04002KT 13/09 A3018 RMK A02 SLP226 T01260091 PA1359 DA1564=
0130008414999992016010507524+31000+061900FM-15+049099999V0200701N001519999999N999999999+01251+00961102161ADDMA1102101999999REMMET103MOBOB3 METAR XM18 //049 310619 050752Z AUTO 07003KT 13/10 A3015 RMK A02 SLP216 T01250096 PA1388 DA1594=
0130008414999992016010508534+31000+061900FM-15+049099999V0200701N001019999999N999999999+01251+01031102061ADDMA1102001999999REMMET103MOBOB3 METAR XM18 //049 310619 050853Z AUTO 07002KT 13/10 A3012 RMK A02 SLP206 T01250103 PA1417 DA1637=
0130008414999992016010509524+31000+061900FM-15+049099999V0200201N001519999999N999999999+01331+01071101981ADDMA1101931999999REMMET103MOBOB3 METAR XM18 //049 310619 050952Z AUTO 02003KT 13/11 A3010 RMK A02 SLP198 T01330107 PA1436 DA1760=
0130008414999992016010510524+31000+061900FM-15+049099999V0200501N001019999999N999999999+01391+01051101981ADDMA1101931999999REMMET103MOBOB3 METAR XM18 //049 310619 051052Z AUTO 05002KT 14/11 A3010 RMK A02 SLP198 T01390105 PA1436 DA1828=
0130008414999992016010511534+31000+061900FM-15+049099999V0200301N001019999999N999999999+01341+01031101951ADDMA1101901999999REMMET103MOBOB3 METAR XM18 //049 310619 051153Z AUTO 03002KT 13/10 A3009 RMK A02 SLP195 T01340103 PA1446 DA1779=
0130008414999992016010512524+31000+061900FM-15+049099999V0203301N001019999999N999999999+01231+01021102011ADDMA1101931999999REMMET103MOBOB3 METAR XM18 //049 310619 051252Z AUTO 33002KT 12/10 A3010 RMK A02 SLP201 T01230102 PA1436 DA1636=
0130008414999992016010513524+31000+061900FM-15+049099999V0203201N001019999999N999999999+01161+01001102061ADDMA1101961999999REMMET103MOBOB3 METAR XM18 //049 310619 051352Z AUTO 32002KT 12/10 A3011 RMK A02 SLP206 T01160100 PA1427 DA1539=
0135008414999992016010514534+31000+061900FM-15+049099999V0203101N001019999999N009999199+01101+00961102061ADDMA1101961999999REMMET108MOBOB3 METAR XM18 //049 310619 051453Z AUTO 31002KT 9999 11/10 A3011 RMK A02 SLP206 T01100096 PA1427 DA1464=
0135008414999992016010515524+31000+061900FM-15+049099999V0203101N001019999999N009999199+01041+00921102041ADDMA1101961999999REMMET108MOBOB3 METAR XM18 //049 310619 051552Z AUTO 31002KT 9999 10/09 A3011 RMK A02 SLP204 T01040092 PA1427 DA1388=
0135008414999992016010516524+31000+061900FM-15+049099999V0200401N000519999999N009999199+01001+00891102021ADDMA1101961999999REMMET108MOBOB3 METAR XM18 //049 310619 051652Z AUTO 04001KT 9999 10/09 A3011 RMK A02 SLP202 T01000089 PA1427 DA1337=
0135008414999992016010517534+31000+061900FM-15+049099999V0202901N001019999999N009999199+01011+00911101971ADDMA1101931999999REMMET108MOBOB3 METAR XM18 //049 310619 051753Z AUTO 29002KT 9999 10/09 A3010 RMK A02 SLP197 T01010091 PA1436 DA1362=
0135008414999992016010518524+31000+061900FM-15+049099999V0203001N001019999999N009999199+00971+00881101901ADDMA1101861999999REMMET108MOBOB3 METAR XM18 //049 310619 051852Z AUTO 30002KT 9999 10/09 A3008 RMK A02 SLP190 T00970088 PA1455 DA1336=
0144008414999992016010519524+31000+061900FM-15+049099999V0202701N001019999999N003200199+00941+00851101901ADDAW1101MA1101861999999REMMET111MOBOB3 METAR XM18 //049 310619 051952Z AUTO 27002KT 3200 BR 09/08 A3008 RMK A02 SLP190 T00940085 PA1455 DA1297=
0144008414999992016010520524+31000+061900FM-15+049099999V0203101N000519999999N002400199+00831+00751101881ADDAW1101MA1101831999999REMMET111MOBOB3 METAR XM18 //049 310619 052052Z AUTO 31001KT 2400 BR 08/07 A3007 RMK A02 SLP188 T00830075 PA1465 DA1167=
0144008414999992016010521524+31000+061900FM-15+049099999V0200401N000519999999N000400199+00681+00601101861ADDAW1301MA1101791999999REMMET111MOBOB3 METAR XM18 //049 310619 052152Z AUTO 04001KT 0400 FG 07/06 A3006 RMK A02 SLP186 T00680060 PA1475 DA0984=
0144008414999992016010522534+31000+061900FM-15+049099999V0203501N001019999999N000400199+00641+00561101821ADDAW1301MA1101761999999REMMET111MOBOB3 METAR XM18 //049 310619 052253Z AUTO 35002KT 0400 FG 06/06 A3005 RMK A02 SLP182 T00640056 PA1484 DA0945=
0144008414999992016010523524+31000+061900FM-15+049099999V0203201N000519999999N000600199+00651+00581101821ADDAW1301MA1101761999999REMMET111MOBOB3 METAR XM18 //049 310619 052352Z AUTO 32001KT 0600 FG 07/06 A3005 RMK A02 SLP182 T00650058 PA1484 DA0958=
0144008414999992016010600524+31000+061900FM-15+049099999V0203401N000519999999N000400199+00621+00551101841ADDAW1301MA1101761999999REMMET111MOBOB3 METAR XM18 //049 310619 060052Z AUTO 34001KT 0400 FG 06/06 A3005 RMK A02 SLP184 T00620055 PA1484 DA0919=
0144008414999992016010601524+31000+061900FM-15+049099999V0200101N000519999999N000600199+00601+00531101921ADDAW1301MA1101831999999REMMET111MOBOB3 METAR XM18 //049 310619 060152Z AUTO 01001KT 0600 FG 06/05 A3007 RMK A02 SLP192 T00600053 PA1465 DA0869=
0144008414999992016010602524+31000+061900FM-15+049099999V0201801N001019999999N000000199+00691+00621101951ADDAW1301MA1101861999999REMMET111MOBOB3 METAR XM18 //049 310619 060252Z AUTO 18002KT 0000 FG 07/06 A3008 RMK A02 SLP195 T00690062 PA1455 DA0974=
0144008414999992016010603524+31000+061900FM-15+049099999V0202501N000519999999N000200199+00711+00641102031ADDAW1301MA1101931999999REMMET111MOBOB3 METAR XM18 //049 310619 060352Z AUTO 25001KT 0200 FG 07/06 A3010 RMK A02 SLP203 T00710064 PA1436 DA0976=
0144008414999992016010604524+31000+061900FM-15+049099999V0202901N000519999999N000600199+00861+00771102051ADDAW1301MA1101961999999REMMET111MOBOB3 METAR XM18 //049 310619 060452Z AUTO 29001KT 0600 FG 09/08 A3011 RMK A02 SLP205 T00860077 PA1427 DA1157=
0130008414999992016010605534+31000+061900FM-15+049099999V0202901N001019999999N999999999+01031+00941101951ADDMA1101901999999REMMET103MOBOB3 METAR XM18 //049 310619 060553Z AUTO 29002KT 10/09 A3009 RMK A02 SLP195 T01030094 PA1446 DA1401=
0130008414999992016010606524+31000+061900FM-15+049099999V0200101N000519999999N999999999+01121+00991101841ADDMA1101791999999REMMET103MOBOB3 METAR XM18 //049 310619 060652Z AUTO 01001KT 11/10 A3006 RMK A02 SLP184 T01120099 PA1475 DA1550=
0130008414999992016010607524+31000+061900FM-15+049099999V0200701N002119999999N999999999+01271+01051101721ADDMA1101661999999REMMET103MOBOB3 METAR XM18 //049 310619 060752Z AUTO 07004KT 13/10 A3002 RMK A02 SLP172 T01270105 PA1504 DA1771=
0130008414999992016010608524+31000+061900FM-15+049099999V0200501N001519999999N999999999+01331+01001101691ADDMA1101631999999REMMET103MOBOB3 METAR XM18 //049 310619 060852Z AUTO 05003KT 13/10 A3001 RMK A02 SLP169 T01330100 PA1513 DA1848=
0130008414999992016010609524+31000+061900FM-15+049099999V0203301N002119999999N999999999+01591+01041101681ADDMA1101631999999REMMET103MOBOB3 METAR XM18 //049 310619 060952Z AUTO 33004KT 16/10 A3001 RMK A02 SLP168 T01590104 PA1513 DA2156=
0130008414999992016010610524+31000+061900FM-15+049099999V0200101N002619999999N999999999+01621+00931101681ADDMA1101631999999REMMET103MOBOB3 METAR XM18 //049 310619 061052Z AUTO 01005KT 16/09 A3001 RMK A02 SLP168 T01620093 PA1513 DA2179=
0130008414999992016010611524+31000+061900FM-15+049099999V0200301N001519999999N999999999+01521+00821101691ADDMA1101631999999REMMET103MOBOB3 METAR XM18 //049 310619 061152Z AUTO 03003KT 15/08 A3001 RMK A02 SLP169 T01520082 PA1513 DA2052=
0130008414999992016010612534+31000+061900FM-15+049099999V0201101N001519999999N999999999+01371+01001101741ADDMA1101661999999REMMET103MOBOB3 METAR XM18 //049 310619 061253Z AUTO 11003KT 14/10 A3002 RMK A02 SLP174 T01370100 PA1504 DA1883=
0130008414999992016010613524+31000+061900FM-15+049099999V0201401N000519999999N999999999+01261+00971101791ADDMA1101691999999REMMET103MOBOB3 METAR XM18 //049 310619 061352Z AUTO 14001KT 13/10 A3003 RMK A02 SLP179 T01260097 PA1494 DA1738=
0130008414999992016010614524+31000+061900FM-15+049099999V0202501N001019999999N999999999+01211+00951101861ADDMA1101791999999REMMET103MOBOB3 METAR XM18 //049 310619 061452Z AUTO 25002KT 12/09 A3006 RMK A02 SLP186 T01210095 PA1475 DA1653=
0130008414999992016010615534+31000+061900FM-15+049099999V0202001N000519999999N999999999+01131+00931101871ADDMA1101791999999REMMET103MOBOB3 METAR XM18 //049 310619 061553Z AUTO 20001KT 11/09 A3006 RMK A02 SLP187 T01130093 PA1475 DA1556=
0130008414999992016010616524+31000+061900FM-15+049099999V0202101N001519999999N999999999+01171+00971101881ADDMA1101831999999REMMET103MOBOB3 METAR XM18 //049 310619 061652Z AUTO 21003KT 12/10 A3007 RMK A02 SLP188 T01170097 PA1465 DA1595=
0135008414999992016010617524+31000+061900FM-15+049099999V0202401N001019999999N009999199+01111+00941101841ADDMA1101791999999REMMET108MOBOB3 METAR XM18 //049 310619 061752Z AUTO 24002KT 9999 11/09 A3006 RMK A02 SLP184 T01110094 PA1475 DA1533=
0144008414999992016010618524+31000+061900FM-15+049099999V0203601N001019999999N008000199+00891+00751101821ADDAW1101MA1101761999999REMMET111MOBOB3 METAR XM18 //049 310619 061852Z AUTO 36002KT 8000 BR 09/08 A3005 RMK A02 SLP182 T00890075 PA1484 DA1263=
0144008414999992016010619534+31000+061900FM-15+049099999V0200301N000519999999N009000199+00841+00731101811ADDAW1101MA1101761999999REMMET111MOBOB3 METAR XM18 //049 310619 061953Z AUTO 03001KT 9000 BR 08/07 A3005 RMK A02 SLP181 T00840073 PA1484 DA1201=
0144008414999992016010620524+31000+061900FM-15+049099999V0203401N001019999999N000200199+00601+00501101871ADDAW1301MA1101791999999REMMET111MOBOB3 METAR XM18 //049 310619 062052Z AUTO 34002KT 0200 FG 06/05 A3006 RMK A02 SLP187 T00600050 PA1475 DA0879=
0144008414999992016010621524+31000+061900FM-15+049099999V0203401N000519999999N000200199+00581+00501101841ADDAW1301MA1101791999999REMMET111MOBOB3 METAR XM18 //049 310619 062152Z AUTO 34001KT 0200 FG 06/05 A3006 RMK A02 SLP184 T00580050 PA1475 DA0854=
0144008414999992016010622524+31000+061900FM-15+049099999V0201501N000519999999N000400199+00621+00551101831ADDAW1301MA1101791999999REMMET111MOBOB3 METAR XM18 //049 310619 062252Z AUTO 15001KT 0400 FG 06/05 A3006 RMK A02 SLP183 T00620055 PA1475 DA0907=
0144008414999992016010623524+31000+061900FM-15+049099999V0209999C000019999999N000200199+00631+00561101911ADDAW1301MA1101861999999REMMET111MOBOB3 METAR XM18 //049 310619 062352Z AUTO 00000KT 0200 FG 06/06 A3008 RMK A02 SLP191 T00630056 PA1455 DA0896=
0144008414999992016010700524+31000+061900FM-15+049099999V0209999C000019999999N000200199+00541+00471101981ADDAW1301MA1101901999999REMMET111MOBOB3 METAR XM18 //049 310619 070052Z AUTO 00000KT 0200 FG 05/05 A3009 RMK A02 SLP198 T00540047 PA1446 DA0767=
0144008414999992016010701534+31000+061900FM-15+049099999V0203301N001019999999N000200199+00501+00441102101ADDAW1301MA1102001999999REMMET111MOBOB3 METAR XM18 //049 310619 070153Z AUTO 33002KT 0200 FG 05/04 A3012 RMK A02 SLP210 T00500044 PA1417 DA0679=
0144008414999992016010702524+31000+061900FM-15+049099999V0203601N001519999999N000000199+00471+00401102221ADDAW1301MA1102101999999REMMET111MOBOB3 METAR XM18 //049 310619 070252Z AUTO 36003KT 0000 FG 05/04 A3015 RMK A02 SLP222 T00470040 PA1388 DA0604=
0144008414999992016010703524+31000+061900FM-15+049099999V0200101N000519999999N000200199+00791+00721102261ADDAW1301MA1102171999999REMMET111MOBOB3 METAR XM18 //049 310619 070352Z AUTO 01001KT 0200 FG 08/07 A3017 RMK A02 SLP226 T00790072 PA1369 DA0996=
0130008414999992016010704524+31000+061900FM-15+049099999V0201101N001519999999N999999999+01041+00831102301ADDMA1102231999999REMMET103MOBOB3 METAR XM18 //049 310619 070452Z AUTO 11003KT 10/08 A3019 RMK A02 SLP230 T01040083 PA1350 DA1283=
0130008414999992016010705534+31000+061900FM-15+049099999V0201301N001019999999N999999999+01431+00881102231ADDMA1102201999999REMMET103MOBOB3 METAR XM18 //049 310619 070553Z AUTO 13002KT 14/09 A3018 RMK A02 SLP223 T01430088 PA1359 DA1761=
0130008414999992016010706524+31000+061900FM-15+049099999V0201401N001019999999N999999999+01631+00961102151ADDMA1102131999999REMMET103MOBOB3 METAR XM18 //049 310619 070652Z AUTO 14002KT 16/10 A3016 RMK A02 SLP215 T01630096 PA1378 DA2028=
0130008414999992016010707524+31000+061900FM-15+049099999V0202501N001019999999N999999999+01751+00901102041ADDMA1102031999999REMMET103MOBOB3 METAR XM18 //049 310619 070752Z AUTO 25002KT 18/09 A3013 RMK A02 SLP204 T01750090 PA1407 DA2197=
0130008414999992016010708524+31000+061900FM-15+049099999V0203501N000519999999N999999999+01881+00911102051ADDMA1102031999999REMMET103MOBOB3 METAR XM18 //049 310619 070852Z AUTO 35001KT 19/09 A3013 RMK A02 SLP205 T01880091 PA1407 DA2348=
0130008414999992016010709534+31000+061900FM-15+049099999V0203401N000519999999N999999999+01871+00961102021ADDMA1102001999999REMMET103MOBOB3 METAR XM18 //049 310619 070953Z AUTO 34001KT 19/10 A3012 RMK A02 SLP202 T01870096 PA1417 DA2353=
0130008414999992016010710524+31000+061900FM-15+049099999V0201101N001019999999N999999999+01891+00901102051ADDMA1102031999999REMMET103MOBOB3 METAR XM18 //049 310619 071052Z AUTO 11002KT 19/09 A3013 RMK A02 SLP205 T01890090 PA1407 DA2358=
0130008414999992016010711524+31000+061900FM-15+049099999V0201201N001019999999N999999999+01721+00921102071ADDMA1102031999999REMMET103MOBOB3 METAR XM18 //049 310619 071152Z AUTO 12002KT 17/09 A3013 RMK A02 SLP207 T01720092 PA1407 DA2163=
0130008414999992016010712534+31000+061900FM-15+049099999V0200901N001019999999N999999999+01601+00981102161ADDMA1102101999999REMMET103MOBOB3 METAR XM18 //049 310619 071253Z AUTO 09002KT 16/10 A3015 RMK A02 SLP216 T01600098 PA1388 DA2006=
0130008414999992016010713524+31000+061900FM-15+049099999V0201001N001019999999N999999999+01481+00951102211ADDMA1102131999999REMMET103MOBOB3 METAR XM18 //049 310619 071352Z AUTO 10002KT 15/10 A3016 RMK A02 SLP221 T01480095 PA1378 DA1852=
0130008414999992016010714534+31000+061900FM-15+049099999V0201101N001019999999N999999999+01391+00941102221ADDMA1102131999999REMMET103MOBOB3 METAR XM18 //049 310619 071453Z AUTO 11002KT 14/09 A3016 RMK A02 SLP222 T01390094 PA1378 DA1745=
0130008414999992016010715524+31000+061900FM-15+049099999V0209999C000019999999N999999999+01141+00851102221ADDMA1102131999999REMMET103MOBOB3 METAR XM18 //049 310619 071552Z AUTO 00000KT 11/08 A3016 RMK A02 SLP222 T01140085 PA1378 DA1440=
0130008414999992016010716524+31000+061900FM-15+049099999V0200801N000519999999N999999999+01151+00841102231ADDMA1102171999999REMMET103MOBOB3 METAR XM18 //049 310619 071652Z AUTO 08001KT 12/08 A3017 RMK A02 SLP223 T01150084 PA1369 DA1439=
0130008414999992016010717534+31000+061900FM-15+049099999V0203101N000519999999N999999999+01041+00811102201ADDMA1102171999999REMMET103MOBOB3 METAR XM18 //049 310619 071753Z AUTO 31001KT 10/08 A3017 RMK A02 SLP220 T01040081 PA1369 DA1305=
0130008414999992016010718524+31000+061900FM-15+049099999V0201901N001019999999N999999999+01141+00801102131ADDMA1102131999999REMMET103MOBOB3 METAR XM18 //049 310619 071852Z AUTO 19002KT 11/08 A3016 RMK A02 SLP213 T01140080 PA1378 DA1435=
0130008414999992016010719534+31000+061900FM-15+049099999V0203201N000519999999N999999999+00891+00681102151ADDMA1102131999999REMMET103MOBOB3 METAR XM18 //049 310619 071953Z AUTO 32001KT 09/07 A3016 RMK A02 SLP215 T00890068 PA1378 DA1125=
0130008414999992016010720524+31000+061900FM-15+049099999V0209999C000019999999N999999999+00771+00631102151ADDMA1102131999999REMMET103MOBOB3 METAR XM18 //049 310619 072052Z AUTO 00000KT 08/06 A3016 RMK A02 SLP215 T00770063 PA1378 DA0976=
0130008414999992016010721524+31000+061900FM-15+049099999V0209999C000019999999N999999999+00741+00631102111ADDMA1102101999999REMMET103MOBOB3 METAR XM18 //049 310619 072152Z AUTO 00000KT 07/06 A3015 RMK A02 SLP211 T00740063 PA1388 DA0952=
0135008414999992016010722524+31000+061900FM-15+049099999V0209999C000019999999N009999199+00701+00591102121ADDMA1102101999999REMMET108MOBOB3 METAR XM18 //049 310619 072252Z AUTO 00000KT 9999 07/06 A3015 RMK A02 SLP212 T00700059 PA1388 DA0900=
0135008414999992016010723534+31000+061900FM-15+049099999V0201101N000519999999N009999199+00721+00611102171ADDMA1102131999999REMMET108MOBOB3 METAR XM18 //049 310619 072353Z AUTO 11001KT 9999 07/06 A3016 RMK A02 SLP217 T00720061 PA1378 DA0914=
0135008414999992016010800524+31000+061900FM-15+049099999V0201101N000519999999N009999199+00731+00611102251ADDMA1102201999999REMMET108MOBOB3 METAR XM18 //049 310619 080052Z AUTO 11001KT 9999 07/06 A3018 RMK A02 SLP225 T00730061 PA1359 DA0902=
0144008414999992016010801524+31000+061900FM-15+049099999V0202801N001019999999N003200199+00671+00561102311ADDAW1101MA1102231999999REMMET111MOBOB3 METAR XM18 //049 310619 080152Z AUTO 28002KT 3200 BR 07/06 A3019 RMK A02 SLP231 T00670056 PA1350 DA0813=
0144008414999992016010802534+31000+061900FM-15+049099999V0203601N000519999999N001600199+00681+00551102391ADDAW1101MA1102301999999REMMET111MOBOB3 METAR XM18 //049 310619 080253Z AUTO 36001KT 1600 BR 07/06 A3021 RMK A02 SLP239 T00680055 PA1330 DA0800=
0130008414999992016010803534+31000+061900FM-15+049099999V0203501N001019999999N999999999+00951+00681102491ADDMA1102401999999REMMET103MOBOB3 METAR XM18 //049 310619 080353Z AUTO 35002KT 10/07 A3024 RMK A02 SLP249 T00950068 PA1301 DA1101=
0130008414999992016010804524+31000+061900FM-15+049099999V0200101N001519999999N999999999+01281+00791102451ADDMA1102401999999REMMET103MOBOB3 METAR XM18 //049 310619 080452Z AUTO 01003KT 13/08 A3024 RMK A02 SLP245 T01280079 PA1301 DA1504=
0130008414999992016010805524+31000+061900FM-15+049099999V0200201N002119999999N999999999+01571+00881102361ADDMA1102341999999REMMET103MOBOB3 METAR XM18 //049 310619 080552Z AUTO 02004KT 16/09 A3022 RMK A02 SLP236 T01570088 PA1321 DA1878=
0130008414999992016010806534+31000+061900FM-15+049099999V0200701N001519999999N999999999+01801+00781102191ADDMA1102201999999REMMET103MOBOB3 METAR XM18 //049 310619 080653Z AUTO 07003KT 18/08 A3018 RMK A02 SLP219 T01800078 PA1359 DA2182=
0130008414999992016010807524+31000+061900FM-15+049099999V0200201N001019999999N999999999+01971+00791102091ADDMA1102101999999REMMET103MOBOB3 METAR XM18 //049 310619 080752Z AUTO 02002KT 20/08 A3015 RMK A02 SLP209 T01970079 PA1388 DA2415=
0130008414999992016010808524+31000+061900FM-15+049099999V0200701N001519999999N999999999+02051+00701101981ADDMA1102001999999REMMET103MOBOB3 METAR XM18 //049 310619 080852Z AUTO 07003KT 21/07 A3012 RMK A02 SLP198 T02050070 PA1417 DA2534=
0130008414999992016010809534+31000+061900FM-15+049099999V0200701N002119999999N999999999+02121+00641101951ADDMA1101961999999REMMET103MOBOB3 METAR XM18 //049 310619 080953Z AUTO 07004KT 21/06 A3011 RMK A02 SLP195 T02120064 PA1427 DA2620=
0130008414999992016010810524+31000+061900FM-15+049099999V0201001N001019999999N999999999+02191+00321101911ADDMA1101931999999REMMET103MOBOB3 METAR XM18 //049 310619 081052Z AUTO 10002KT 22/03 A3010 RMK A02 SLP191 T02190032 PA1436 DA2686=
0130008414999992016010811524+31000+061900FM-15+049099999V0200301N001019999999N999999999+01991+00711101891ADDMA1101901999999REMMET103MOBOB3 METAR XM18 //049 310619 081152Z AUTO 03002KT 20/07 A3009 RMK A02 SLP189 T01990071 PA1446 DA2501=
0130008414999992016010812524+31000+061900FM-15+049099999V0203001N000519999999N999999999+01661+00801101921ADDMA1101901999999REMMET103MOBOB3 METAR XM18 //049 310619 081252Z AUTO 30001KT 17/08 A3009 RMK A02 SLP192 T01660080 PA1446 DA2129=
0130008414999992016010813524+31000+061900FM-15+049099999V0203301N000519999999N999999999+01481+00691101951ADDMA1101901999999REMMET103MOBOB3 METAR XM18 //049 310619 081352Z AUTO 33001KT 15/07 A3009 RMK A02 SLP195 T01480069 PA1446 DA1909=
0130008414999992016010814524+31000+061900FM-15+049099999V0200301N001019999999N999999999+01451+00611101951ADDMA1101901999999REMMET103MOBOB3 METAR XM18 //049 310619 081452Z AUTO 03002KT 15/06 A3009 RMK A02 SLP195 T01450061 PA1446 DA1867=
0130008414999992016010815524+31000+061900FM-15+049099999V0200801N002119999999N999999999+01421+00601101891ADDMA1101861999999REMMET103MOBOB3 METAR XM18 //049 310619 081552Z AUTO 08004KT 14/06 A3008 RMK A02 SLP189 T01420060 PA1455 DA1842=
0130008414999992016010816524+31000+061900FM-15+049099999V0200801N001519999999N999999999+01411+00591101821ADDMA1101831999999REMMET103MOBOB3 METAR XM18 //049 310619 081652Z AUTO 08003KT 14/06 A3007 RMK A02 SLP182 T01410059 PA1465 DA1842=
0130008414999992016010817524+31000+061900FM-15+049099999V0202201N000519999999N999999999+01341+00511101831ADDMA1101861999999REMMET103MOBOB3 METAR XM18 //049 310619 081752Z AUTO 22001KT 13/05 A3008 RMK A02 SLP183 T01340051 PA1455 DA1741=
0130008414999992016010818524+31000+061900FM-15+049099999V0203401N000519999999N999999999+01111+00501101731ADDMA1101761999999REMMET103MOBOB3 METAR XM18 //049 310619 081852Z AUTO 34001KT 11/05 A3005 RMK A02 SLP173 T01110050 PA1484 DA1504=
0130008414999992016010819524+31000+061900FM-15+049099999V0203101N000519999999N999999999+00911+00541101691ADDMA1101691999999REMMET103MOBOB3 METAR XM18 //049 310619 081952Z AUTO 31001KT 09/05 A3003 RMK A02 SLP169 T00910054 PA1494 DA1280=
0130008414999992016010820524+31000+061900FM-15+049099999V0200501N003119999999N999999999+01071+00451101631ADDMA1101661999999REMMET103MOBOB3 METAR XM18 //049 310619 082052Z AUTO 05006KT 11/04 A3002 RMK A02 SLP163 T01070045 PA1504 DA1476=
0130008414999992016010821534+31000+061900FM-15+049099999V0200701N002119999999N999999999+00971+00431101571ADDMA1101591999999REMMET103MOBOB3 METAR XM18 //049 310619 082153Z AUTO 07004KT 10/04 A3000 RMK A02 SLP157 T00970043 PA1523 DA1379=
0130008414999992016010822524+31000+061900FM-15+049099999V0200801N001519999999N999999999+00891+00411101531ADDMA1101561999999REMMET103MOBOB3 METAR XM18 //049 310619 082252Z AUTO 08003KT 09/04 A2999 RMK A02 SLP153 T00890041 PA1533 DA1294=
0130008414999992016010823524+31000+061900FM-15+049099999V0200801N002119999999N999999999+00901+00361101591ADDMA1101591999999REMMET103MOBOB3 METAR XM18 //049 310619 082352Z AUTO 08004KT 09/04 A3000 RMK A02 SLP159 T00900036 PA1523 DA1290=
0130008414999992016010900524+31000+061900FM-15+049099999V0201101N000519999999N999999999+00781+00361101671ADDMA1101631999999REMMET103MOBOB3 METAR XM18 //049 310619 090052Z AUTO 11001KT 08/04 A3001 RMK A02 SLP167 T00780036 PA1513 DA1133=
0130008414999992016010901524+31000+061900FM-15+049099999V0203001N000519999999N999999999+00761+00341101761ADDMA1101691999999REMMET103MOBOB3 METAR XM18 //049 310619 090152Z AUTO 30001KT 08/03 A3003 RMK A02 SLP176 T00760034 PA1494 DA1084=
0130008414999992016010902524+31000+061900FM-15+049099999V0203001N000519999999N999999999+00741+00381101841ADDMA1101791999999REMMET103MOBOB3 METAR XM18 //049 310619 090252Z AUTO 30001KT 07/04 A3006 RMK A02 SLP184 T00740038 PA1475 DA1039=
0130008414999992016010903524+31000+061900FM-15+049099999V0209999C000019999999N999999999+00941+00481101861ADDMA1101831999999REMMET103MOBOB3 METAR XM18 //049 310619 090352Z AUTO 00000KT 09/05 A3007 RMK A02 SLP186 T00940048 PA1465 DA1275=
0130008414999992016010904524+31000+061900FM-15+049099999V0201101N001019999999N999999999+01391+00341101811ADDMA1101831999999REMMET103MOBOB3 METAR XM18 //049 310619 090452Z AUTO 11002KT 14/03 A3007 RMK A02 SLP181 T01390034 PA1465 DA1799=
0130008414999992016010905534+31000+061900FM-15+049099999V0201001N001519999999N999999999+01511+00351101741ADDMA1101761999999REMMET103MOBOB3 METAR XM18 //049 310619 090553Z AUTO 10003KT 15/04 A3005 RMK A02 SLP174 T01510035 PA1484 DA1964=
0130008414999992016010906524+31000+061900FM-15+049099999V0201201N002119999999N999999999+01611+00361101641ADDMA1101631999999REMMET103MOBOB3 METAR XM18 //049 310619 090652Z AUTO 12004KT 16/04 A3001 RMK A02 SLP164 T01610036 PA1513 DA2117=
0130008414999992016010907524+31000+061900FM-15+049099999V0201001N001519999999N999999999+01791+00361101501ADDMA1101491999999REMMET103MOBOB3 METAR XM18 //049 310619 090752Z AUTO 10003KT 18/04 A2997 RMK A02 SLP150 T01790036 PA1552 DA2373=
0130008414999992016010908524+31000+061900FM-15+049099999V0201101N001519999999N999999999+01941+00401101401ADDMA1101421999999REMMET103MOBOB3 METAR XM18 //049 310619 090852Z AUTO 11003KT 19/04 A2995 RMK A02 SLP140 T01940040 PA1571 DA2573=
0130008414999992016010909534+31000+061900FM-15+049099999V0200901N002619999999N999999999+02001+00301101361ADDMA1101391999999REMMET103MOBOB3 METAR XM18 //049 310619 090953Z AUTO 09005KT 20/03 A2994 RMK A02 SLP136 T02000030 PA1581 DA2646=
0130008414999992016010910524+31000+061900FM-15+049099999V0200601N001519999999N999999999+02021+00261101341ADDMA1101351999999REMMET103MOBOB3 METAR XM18 //049 310619 091052Z AUTO 06003KT 20/03 A2993 RMK A02 SLP134 T02020026 PA1591 DA2678=
0130008414999992016010911534+31000+061900FM-15+049099999V0203501N001019999999N999999999+01861+00521101351ADDMA1101351999999REMMET103MOBOB3 METAR XM18 //049 310619 091153Z AUTO 35002KT 19/05 A2993 RMK A02 SLP135 T01860052 PA1591 DA2514=
0130008414999992016010912524+31000+061900FM-15+049099999V0203101N000519999999N999999999+01621+00531101381ADDMA1101351999999REMMET103MOBOB3 METAR XM18 //049 310619 091252Z AUTO 31001KT 16/05 A2993 RMK A02 SLP138 T01620053 PA1591 DA2237=
0130008414999992016010913524+31000+061900FM-15+049099999V0202301N000519999999N999999999+01541+00481101431ADDMA1101391999999REMMET103MOBOB3 METAR XM18 //049 310619 091352Z AUTO 23001KT 15/05 A2994 RMK A02 SLP143 T01540048 PA1581 DA2128=
0130008414999992016010914534+31000+061900FM-15+049099999V0203601N000519999999N999999999+01311+00551101421ADDMA1101351999999REMMET103MOBOB3 METAR XM18 //049 310619 091453Z AUTO 36001KT 13/05 A2993 RMK A02 SLP142 T01310055 PA1591 DA1877=
0130008414999992016010915524+31000+061900FM-15+049099999V0203501N000519999999N999999999+01221+00501101411ADDMA1101351999999REMMET103MOBOB3 METAR XM18 //049 310619 091552Z AUTO 35001KT 12/05 A2993 RMK A02 SLP141 T01220050 PA1591 DA1766=
0130008414999992016010916524+31000+061900FM-15+049099999V0201101N000519999999N999999999+01111+00501101341ADDMA1101321999999REMMET103MOBOB3 METAR XM18 //049 310619 091652Z AUTO 11001KT 11/05 A2992 RMK A02 SLP134 T01110050 PA1601 DA1647=
0130008414999992016010917534+31000+061900FM-15+049099999V0209999C000019999999N999999999+01021+00491101301ADDMA1101291999999REMMET103MOBOB3 METAR XM18 //049 310619 091753Z AUTO 00000KT 10/05 A2991 RMK A02 SLP130 T01020049 PA1610 DA1552=
0130008414999992016010918524+31000+061900FM-15+049099999V0209999C000019999999N999999999+01031+00461101221ADDMA1101221999999REMMET103MOBOB3 METAR XM18 //049 310619 091852Z AUTO 00000KT 10/05 A2989 RMK A02 SLP122 T01030046 PA1630 DA1586=
0130008414999992016010919524+31000+061900FM-15+049099999V0201401N001019999999N999999999+01021+00421101161ADDMA1101181999999REMMET103MOBOB3 METAR XM18 //049 310619 091952Z AUTO 14002KT 10/04 A2988 RMK A02 SLP116 T01020042 PA1639 DA1583=
0130008414999992016010920524+31000+061900FM-15+049099999V0203101N000519999999N999999999+00771+00381101141ADDMA1101151999999REMMET103MOBOB3 METAR XM18 //049 310619 092052Z AUTO 31001KT 08/04 A2987 RMK A02 SLP114 T00770038 PA1649 DA1292=
0130008414999992016010921524+31000+061900FM-15+049099999V0201301N000519999999N999999999+00771+00451101131ADDMA1101151999999REMMET103MOBOB3 METAR XM18 //049 310619 092152Z AUTO 13001KT 08/04 A2987 RMK A02 SLP113 T00770045 PA1649 DA1297=
0130008414999992016010922524+31000+061900FM-15+049099999V0200301N000519999999N999999999+00751+00391101101ADDMA1101121999999REMMET103MOBOB3 METAR XM18 //049 310619 092252Z AUTO 03001KT 08/04 A2986 RMK A02 SLP110 T00750039 PA1659 DA1280=
0130008414999992016010923534+31000+061900FM-15+049099999V0200901N000519999999N999999999+00651+00331101121ADDMA1101121999999REMMET103MOBOB3 METAR XM18 //049 310619 092353Z AUTO 09001KT 07/03 A2986 RMK A02 SLP112 T00650033 PA1659 DA1155=
0130008414999992016011000524+31000+061900FM-15+049099999V0201501N001519999999N999999999+00901+00271101201ADDMA1101181999999REMMET103MOBOB3 METAR XM18 //049 310619 100052Z AUTO 15003KT 09/03 A2988 RMK A02 SLP120 T00900027 PA1639 DA1427=
0130008414999992016011001524+31000+061900FM-15+049099999V0201601N001519999999N999999999+00911+00271101271ADDMA1101251999999REMMET103MOBOB3 METAR XM18 //049 310619 100152Z AUTO 16003KT 09/03 A2990 RMK A02 SLP127 T00910027 PA1620 DA1416=
0130008414999992016011002534+31000+061900FM-15+049099999V0201601N002119999999N999999999+01001+00371101361ADDMA1101321999999REMMET103MOBOB3 METAR XM18 //049 310619 100253Z AUTO 16004KT 10/04 A2992 RMK A02 SLP136 T01000037 PA1601 DA1506=
0130008414999992016011003524+31000+061900FM-15+049099999V0201401N001519999999N999999999+01221+00451101421ADDMA1101391999999REMMET103MOBOB3 METAR XM18 //049 310619 100352Z AUTO 14003KT 12/04 A2994 RMK A02 SLP142 T01220045 PA1581 DA1750=
0130008414999992016011004524+31000+061900FM-15+049099999V0201501N001519999999N999999999+01461+00481101441ADDMA1101421999999REMMET103MOBOB3 METAR XM18 //049 310619 100452Z AUTO 15003KT 15/05 A2995 RMK A02 SLP144 T01460048 PA1571 DA2023=
0130008414999992016011005534+31000+061900FM-15+049099999V0201601N001019999999N999999999+01641+00581101391ADDMA1101391999999REMMET103MOBOB3 METAR XM18 //049 310619 100553Z AUTO 16002KT 16/06 A2994 RMK A02 SLP139 T01640058 PA1581 DA2253=
0130008414999992016011006524+31000+061900FM-15+049099999V0200301N001019999999N999999999+01861+00461101231ADDMA1101251999999REMMET103MOBOB3 METAR XM18 //049 310619 100652Z AUTO 03002KT 19/05 A2990 RMK A02 SLP123 T01860046 PA1620 DA2545=
0130008414999992016011007524+31000+061900FM-15+049099999V0202001N001019999999N999999999+01951+00521101151ADDMA1101181999999REMMET103MOBOB3 METAR XM18 //049 310619 100752Z AUTO 20002KT 20/05 A2988 RMK A02 SLP115 T01950052 PA1639 DA2677=
0130008414999992016011008524+31000+061900FM-15+049099999V0201601N000519999999N999999999+02131+00391101121ADDMA1101151999999REMMET103MOBOB3 METAR XM18 //049 310619 100852Z AUTO 16001KT 21/04 A2987 RMK A02 SLP112 T02130039 PA1649 DA2885=
0130008414999992016011009524+31000+061900FM-15+049099999V0200701N000519999999N999999999+02171+00411101111ADDMA1101151999999REMMET103MOBOB3 METAR XM18 //049 310619 100952Z AUTO 07001KT 22/04 A2987 RMK A02 SLP111 T02170041 PA1649 DA2932=
0130008414999992016011010524+31000+061900FM-15+049099999V0200701N001019999999N999999999+02121+00451101121ADDMA1101151999999REMMET103MOBOB3 METAR XM18 //049 310619 101052Z AUTO 07002KT 21/05 A2987 RMK A02 SLP112 T02120045 PA1649 DA2878=
0130008414999992016011011534+31000+061900FM-15+049099999V0200901N000519999999N999999999+01981+00511101181ADDMA1101181999999REMMET103MOBOB3 METAR XM18 //049 310619 101153Z AUTO 09001KT 20/05 A2988 RMK A02 SLP118 T01980051 PA1639 DA2711=
0130008414999992016011012524+31000+061900FM-15+049099999V0209999C000019999999N999999999+01741+00711101251ADDMA1101251999999REMMET103MOBOB3 METAR XM18 //049 310619 101252Z AUTO 00000KT 17/07 A2990 RMK A02 SLP125 T01740071 PA1620 DA2428=
0130008414999992016011013524+31000+061900FM-15+049099999V0200501N000519999999N999999999+01541+00781101341ADDMA1101321999999REMMET103MOBOB3 METAR XM18 //049 310619 101352Z AUTO 05001KT 15/08 A2992 RMK A02 SLP134 T01540078 PA1601 DA2179=
0130008414999992016011014534+31000+061900FM-15+049099999V0203101N000519999999N999999999+01531+00751101371ADDMA1101351999999REMMET103MOBOB3 METAR XM18 //049 310619 101453Z AUTO 31001KT 15/08 A2993 RMK A02 SLP137 T01530075 PA1591 DA2153=
0130008414999992016011015524+31000+061900FM-15+049099999V0203001N001019999999N999999999+01521+00691101381ADDMA1101391999999REMMET103MOBOB3 METAR XM18 //049 310619 101552Z AUTO 30002KT 15/07 A2994 RMK A02 SLP138 T01520069 PA1581 DA2123=
0141008414999992016011016524+31000+061900FM-15+049099999V0203401N004619999999N999999999+01491+00661101401ADDMA1101421999999OC100671REMMET106MOBOB3 METAR XM18 //049 310619 101652Z AUTO 34009G13KT 15/07 A2995 RMK A02 SLP140 T01490066 PA1571 DA2074=
0141008414999992016011017534+31000+061900FM-15+049099999V0203201N004619999999N999999999+01321+00491101471ADDMA1101491999999OC100881REMMET106MOBOB3 METAR XM18 //049 310619 101753Z AUTO 32009G17KT 13/05 A2997 RMK A02 SLP147 T01320049 PA1552 DA1835=
0141008414999992016011018524+31000+061900FM-15+049099999V0203301N005119999999N999999999+01291+00461101451ADDMA1101491999999OC100881REMMET106MOBOB3 METAR XM18 //049 310619 101852Z AUTO 33010G17KT 13/05 A2997 RMK A02 SLP145 T01290046 PA1552 DA1797=
0141008414999992016011019534+31000+061900FM-15+049099999V0203101N003619999999N999999999+01251+00421101551ADDMA1101591999999OC100671REMMET106MOBOB3 METAR XM18 //049 310619 101953Z AUTO 31007G13KT 13/04 A3000 RMK A02 SLP155 T01250042 PA1523 DA1711=
0130008414999992016011020524+31000+061900FM-15+049099999V0203301N003619999999N999999999+01251+00411101541ADDMA1101591999999REMMET103MOBOB3 METAR XM18 //049 310619 102052Z AUTO 33007KT 13/04 A3000 RMK A02 SLP154 T01250041 PA1523 DA1711=
0141008414999992016011021524+31000+061900FM-15+049099999V0203301N004619999999N999999999+01241+00401101611ADDMA1101661999999OC100771REMMET106MOBOB3 METAR XM18 //049 310619 102152Z AUTO 33009G15KT 12/04 A3002 RMK A02 SLP161 T01240040 PA1504 DA1674=
0130008414999992016011022534+31000+061900FM-15+049099999V0203201N003119999999N999999999+01211+00331101651ADDMA1101691999999REMMET103MOBOB3 METAR XM18 //049 310619 102253Z AUTO 32006KT 12/03 A3003 RMK A02 SLP165 T01210033 PA1494 DA1622=
0141008414999992016011023524+31000+061900FM-15+049099999V0203201N003619999999N999999999+01191+00311101701ADDMA1101761999999OC100671REMMET106MOBOB3 METAR XM18 //049 310619 102352Z AUTO 32007G13KT 12/03 A3005 RMK A02 SLP170 T01190031 PA1484 DA1584=
0130008414999992016011100524+31000+061900FM-15+049099999V0203401N002619999999N999999999+01121+00341101771ADDMA1101791999999REMMET103MOBOB3 METAR XM18 //049 310619 110052Z AUTO 34005KT 11/03 A3006 RMK A02 SLP177 T01120034 PA1475 DA1492=
0130008414999992016011101534+31000+061900FM-15+049099999V0202901N003619999999N999999999+01131+00351101971ADDMA1101961999999REMMET103MOBOB3 METAR XM18 //049 310619 110153Z AUTO 29007KT 11/03 A3011 RMK A02 SLP197 T01130035 PA1427 DA1444=
0141008414999992016011102524+31000+061900FM-15+049099999V0203101N003619999999N999999999+01131+00231102121ADDMA1102101999999OC100821REMMET106MOBOB3 METAR XM18 //049 310619 110252Z AUTO 31007G16KT 11/02 A3015 RMK A02 SLP212 T01130023 PA1388 DA1388=
0141008414999992016011103524+31000+061900FM-15+049099999V0203101N004119999999N999999999+01251+00211102181ADDMA1102171999999OC100931REMMET106MOBOB3 METAR XM18 //049 310619 110352Z AUTO 31008G18KT 13/02 A3017 RMK A02 SLP218 T01250021 PA1369 DA1505=
0141008414999992016011104534+31000+061900FM-15+049099999V0203101N004619999999N999999999+01421+00191102231ADDMA1102231999999OC100981REMMET106MOBOB3 METAR XM18 //049 310619 110453Z AUTO 31009G19KT 14/02 A3019 RMK A02 SLP223 T01420019 PA1350 DA1681=
0141008414999992016011105524+31000+061900FM-15+049099999V0203201N004619999999N999999999+01581+00151102201ADDMA1102201999999OC100821REMMET106MOBOB3 METAR XM18 //049 310619 110552Z AUTO 32009G16KT 16/02 A3018 RMK A02 SLP220 T01580015 PA1359 DA1877=
0141008414999992016011106524+31000+061900FM-15+049099999V0203201N004619999999N999999999+01671+00041102121ADDMA1102131999999OC100931REMMET106MOBOB3 METAR XM18 //049 310619 110652Z AUTO 32009G18KT 17/00 A3016 RMK A02 SLP212 T01670004 PA1378 DA1999=
0142008414999992016011107534+31000+061900FM-15+049099999V0203001N004619999999N999999999+01721-00051102091ADDMA1102101999999OC100821REMMET107MOBOB3 METAR XM18 //049 310619 110753Z AUTO 30009G16KT 17/M01 A3015 RMK A02 SLP209 T01721005 PA1388 DA2063=
0142008414999992016011108524+31000+061900FM-15+049099999V0203301N005119999999N999999999+01751-00131102051ADDMA1102071999999OC101081REMMET107MOBOB3 METAR XM18 //049 310619 110852Z AUTO 33010G21KT 18/M01 A3014 RMK A02 SLP205 T01751013 PA1398 DA2105=
0142008414999992016011109524+31000+061900FM-15+049099999V0203401N006719999999N999999999+01741-00341102051ADDMA1102071999999OC101081REMMET107MOBOB3 METAR XM18 //049 310619 110952Z AUTO 34013G21KT 17/M03 A3014 RMK A02 SLP205 T01741034 PA1398 DA2083=
0142008414999992016011110524+31000+061900FM-15+049099999V0203301N005719999999N999999999+01671-00241102101ADDMA1102101999999OC100881REMMET107MOBOB3 METAR XM18 //049 310619 111052Z AUTO 33011G17KT 17/M02 A3015 RMK A02 SLP210 T01671024 PA1388 DA1995=
0131008414999992016011111524+31000+061900FM-15+049099999V0203301N003619999999N999999999+01531-00231102151ADDMA1102131999999REMMET104MOBOB3 METAR XM18 //049 310619 111152Z AUTO 33007KT 15/M02 A3016 RMK A02 SLP215 T01531023 PA1378 DA1821=
0131008414999992016011112524+31000+061900FM-15+049099999V0203401N002619999999N999999999+01361-00201102211ADDMA1102171999999REMMET104MOBOB3 METAR XM18 //049 310619 111252Z AUTO 34005KT 14/M02 A3017 RMK A02 SLP221 T01361020 PA1369 DA1611=
0131008414999992016011113524+31000+061900FM-15+049099999V0203001N002119999999N999999999+01251-00251102291ADDMA1102231999999REMMET104MOBOB3 METAR XM18 //049 310619 111352Z AUTO 30004KT 13/M03 A3019 RMK A02 SLP229 T01251025 PA1350 DA1454=
0131008414999992016011114524+31000+061900FM-15+049099999V0202601N001519999999N999999999+01181-00251102371ADDMA1102301999999REMMET104MOBOB3 METAR XM18 //049 310619 111452Z AUTO 26003KT 12/M02 A3021 RMK A02 SLP237 T01181025 PA1330 DA1348=
0131008414999992016011115524+31000+061900FM-15+049099999V0203001N000519999999N999999999+00991-00201102421ADDMA1102341999999REMMET104MOBOB3 METAR XM18 //049 310619 111552Z AUTO 30001KT 10/M02 A3022 RMK A02 SLP242 T00991020 PA1321 DA1112=
0131008414999992016011116524+31000+061900FM-15+049099999V0202601N002619999999N999999999+00941-00151102401ADDMA1102341999999REMMET104MOBOB3 METAR XM18 //049 310619 111652Z AUTO 26005KT 09/M02 A3022 RMK A02 SLP240 T00941015 PA1321 DA1054=
0131008414999992016011117524+31000+061900FM-15+049099999V0202701N002119999999N999999999+00801-00171102361ADDMA1102301999999REMMET104MOBOB3 METAR XM18 //049 310619 111752Z AUTO 27004KT 08/M02 A3021 RMK A02 SLP236 T00801017 PA1330 DA0897=
0131008414999992016011118524+31000+061900FM-15+049099999V0202901N002619999999N999999999+00731-00181102331ADDMA1102271999999REMMET104MOBOB3 METAR XM18 //049 310619 111852Z AUTO 29005KT 07/M02 A3020 RMK A02 SLP233 T00731018 PA1340 DA0824=
0131008414999992016011119524+31000+061900FM-15+049099999V0203401N001519999999N999999999+00601-00121102301ADDMA1102231999999REMMET104MOBOB3 METAR XM18 //049 310619 111952Z AUTO 34003KT 06/M01 A3019 RMK A02 SLP230 T00601012 PA1350 DA0681=
0131008414999992016011120524+31000+061900FM-15+049099999V0202901N002619999999N999999999+00631-00081102291ADDMA1102231999999REMMET104MOBOB3 METAR XM18 //049 310619 112052Z AUTO 29005KT 06/M01 A3019 RMK A02 SLP229 T00631008 PA1350 DA0720=
0131008414999992016011121524+31000+061900FM-15+049099999V0202901N002119999999N999999999+00641-00091102291ADDMA1102231999999REMMET104MOBOB3 METAR XM18 //049 310619 112152Z AUTO 29004KT 06/M01 A3019 RMK A02 SLP229 T00641009 PA1350 DA0731=
0131008414999992016011122524+31000+061900FM-15+049099999V0202901N002619999999N999999999+00611-00131102271ADDMA1102201999999REMMET104MOBOB3 METAR XM18 //049 310619 112252Z AUTO 29005KT 06/M01 A3018 RMK A02 SLP227 T00611013 PA1359 DA0704=
0131008414999992016011123524+31000+061900FM-15+049099999V0202701N002119999999N999999999+00541-00131102321ADDMA1102231999999REMMET104MOBOB3 METAR XM18 //049 310619 112352Z AUTO 27004KT 05/M01 A3019 RMK A02 SLP232 T00541013 PA1350 DA0607=
0131008414999992016011200524+31000+061900FM-15+049099999V0202701N001019999999N999999999+00511-00101102381ADDMA1102271999999REMMET104MOBOB3 METAR XM18 //049 310619 120052Z AUTO 27002KT 05/M01 A3020 RMK A02 SLP238 T00511010 PA1340 DA0560=
0131008414999992016011201524+31000+061900FM-15+049099999V0202701N001519999999N999999999+00451-00131102441ADDMA1102301999999REMMET104MOBOB3 METAR XM18 //049 310619 120152Z AUTO 27003KT 05/M01 A3021 RMK A02 SLP244 T00451013 PA1330 DA0473=
0131008414999992016011202524+31000+061900FM-15+049099999V0202801N002119999999N999999999+00601-00111102501ADDMA1102371999999REMMET104MOBOB3 METAR XM18 //049 310619 120252Z AUTO 28004KT 06/M01 A3023 RMK A02 SLP250 T00601011 PA1311 DA0633=
0131008414999992016011203524+31000+061900FM-15+049099999V0203201N002119999999N999999999+00861-00061102531ADDMA1102401999999REMMET104MOBOB3 METAR XM18 //049 310619 120352Z AUTO 32004KT 09/M01 A3024 RMK A02 SLP253 T00861006 PA1301 DA0939=
0131008414999992016011204524+31000+061900FM-15+049099999V0203101N002619999999N999999999+01091-00121102511ADDMA1102401999999REMMET104MOBOB3 METAR XM18 //049 310619 120452Z AUTO 31005KT 11/M01 A3024 RMK A02 SLP251 T01091012 PA1301 DA1212=
0131008414999992016011205524+31000+061900FM-15+049099999V0203001N002119999999N999999999+01241-00191102441ADDMA1102341999999REMMET104MOBOB3 METAR XM18 //049 310619 120552Z AUTO 30004KT 12/M02 A3022 RMK A02 SLP244 T01241019 PA1321 DA1410=
0131008414999992016011206524+31000+061900FM-15+049099999V0203201N002119999999N999999999+01381-00271102321ADDMA1102231999999REMMET104MOBOB3 METAR XM18 //049 310619 120652Z AUTO 32004KT 14/M03 A3019 RMK A02 SLP232 T01381027 PA1350 DA1607=
0131008414999992016011207524+31000+061900FM-15+049099999V0203201N002119999999N999999999+01501-00361102251ADDMA1102171999999REMMET104MOBOB3 METAR XM18 //049 310619 120752Z AUTO 32004KT 15/M04 A3017 RMK A02 SLP225 T01501036 PA1369 DA1767=
0131008414999992016011208524+31000+061900FM-15+049099999V0203101N002119999999N999999999+01531-00411102171ADDMA1102101999999REMMET104MOBOB3 METAR XM18 //049 310619 120852Z AUTO 31004KT 15/M04 A3015 RMK A02 SLP217 T01531041 PA1388 DA1824=
0131008414999992016011209524+31000+061900FM-15+049099999V0203101N002119999999N999999999+01571-00531102131ADDMA1102071999999REMMET104MOBOB3 METAR XM18 //049 310619 120952Z AUTO 31004KT 16/M05 A3014 RMK A02 SLP213 T01571053 PA1398 DA1877=
0131008414999992016011210524+31000+061900FM-15+049099999V0203301N002119999999N999999999+01561-00671102141ADDMA1102071999999REMMET104MOBOB3 METAR XM18 //049 310619 121052Z AUTO 33004KT 16/M07 A3014 RMK A02 SLP214 T01561067 PA1398 DA1860=
0131008414999992016011211524+31000+061900FM-15+049099999V0200201N000519999999N999999999+01471-00531102161ADDMA1102071999999REMMET104MOBOB3 METAR XM18 //049 310619 121152Z AUTO 02001KT 15/M05 A3014 RMK A02 SLP216 T01471053 PA1398 DA1760=
0131008414999992016011212524+31000+061900FM-15+049099999V0201301N000519999999N999999999+01201-00621102191ADDMA1102071999999REMMET104MOBOB3 METAR XM18 //049 310619 121252Z AUTO 13001KT 12/M06 A3014 RMK A02 SLP219 T01201062 PA1398 DA1438=
0131008414999992016011213524+31000+061900FM-15+049099999V0201601N000519999999N999999999+01171-00351102271ADDMA1102131999999REMMET104MOBOB3 METAR XM18 //049 310619 121352Z AUTO 16001KT 12/M04 A3016 RMK A02 SLP227 T01171035 PA1378 DA1390=
0131008414999992016011214524+31000+061900FM-15+049099999V0202201N001019999999N999999999+01111-00341102261ADDMA1102131999999REMMET104MOBOB3 METAR XM18 //049 310619 121452Z AUTO 22002KT 11/M03 A3016 RMK A02 SLP226 T01111034 PA1378 DA1320=
0131008414999992016011215524+31000+061900FM-15+049099999V0202301N001019999999N999999999+01041-00361102271ADDMA1102171999999REMMET104MOBOB3 METAR XM18 //049 310619 121552Z AUTO 23002KT 10/M04 A3017 RMK A02 SLP227 T01041036 PA1369 DA1223=
0131008414999992016011216524+31000+061900FM-15+049099999V0203401N000519999999N999999999+00811-00281102241ADDMA1102131999999REMMET104MOBOB3 METAR XM18 //049 310619 121652Z AUTO 34001KT 08/M03 A3016 RMK A02 SLP224 T00811028 PA1378 DA0963=
0131008414999992016011217524+31000+061900FM-15+049099999V0202701N000519999999N999999999+00651-00231102201ADDMA1102101999999REMMET104MOBOB3 METAR XM18 //049 310619 121752Z AUTO 27001KT 07/M02 A3015 RMK A02 SLP220 T00651023 PA1388 DA0783=
0131008414999992016011218524+31000+061900FM-15+049099999V0202901N000519999999N999999999+00571-00221102161ADDMA1102071999999REMMET104MOBOB3 METAR XM18 //049 310619 121852Z AUTO 29001KT 06/M02 A3014 RMK A02 SLP216 T00571022 PA1398 DA0699=
0131008414999992016011219524+31000+061900FM-15+049099999V0209999C000019999999N999999999+00461-00161102121ADDMA1102031999999REMMET104MOBOB3 METAR XM18 //049 310619 121952Z AUTO 00000KT 05/M02 A3013 RMK A02 SLP212 T00461016 PA1407 DA0580=
0131008414999992016011220524+31000+061900FM-15+049099999V0201401N000519999999N999999999+00471-00241102121ADDMA1102031999999REMMET104MOBOB3 METAR XM18 //049 310619 122052Z AUTO 14001KT 05/M02 A3013 RMK A02 SLP212 T00471024 PA1407 DA0587=
0131008414999992016011221524+31000+061900FM-15+049099999V0201201N000519999999N999999999+00401-00331102091ADDMA1102001999999REMMET104MOBOB3 METAR XM18 //049 310619 122152Z AUTO 12001KT 04/M03 A3012 RMK A02 SLP209 T00401033 PA1417 DA0509=
0131008414999992016011222524+31000+061900FM-15+049099999V0203201N000519999999N999999999+00201-00281102071ADDMA1101961999999REMMET104MOBOB3 METAR XM18 //049 310619 122252Z AUTO 32001KT 02/M03 A3011 RMK A02 SLP207 T00201028 PA1427 DA0277=
0131008414999992016011223524+31000+061900FM-15+049099999V0202801N000519999999N999999999+00211-00311102081ADDMA1101961999999REMMET104MOBOB3 METAR XM18 //049 310619 122352Z AUTO 28001KT 02/M03 A3011 RMK A02 SLP208 T00211031 PA1427 DA0288=
0131008414999992016011300524+31000+061900FM-15+049099999V0203001N000519999999N999999999+00141-00351102151ADDMA1102001999999REMMET104MOBOB3 METAR XM18 //049 310619 130052Z AUTO 30001KT 01/M03 A3012 RMK A02 SLP215 T00141035 PA1417 DA0187=
0131008414999992016011301524+31000+061900FM-15+049099999V0203201N000519999999N999999999+00171-00311102191ADDMA1102031999999REMMET104MOBOB3 METAR XM18 //049 310619 130152Z AUTO 32001KT 02/M03 A3013 RMK A02 SLP219 T00171031 PA1407 DA0214=
0131008414999992016011302524+31000+061900FM-15+049099999V0203301N000519999999N999999999+00211-00231102261ADDMA1102101999999REMMET104MOBOB3 METAR XM18 //049 310619 130252Z AUTO 33001KT 02/M02 A3015 RMK A02 SLP226 T00211023 PA1388 DA0244=
0131008414999992016011303524+31000+061900FM-15+049099999V0202701N001019999999N999999999+00551-00171102301ADDMA1102171999999REMMET104MOBOB3 METAR XM18 //049 310619 130352Z AUTO 27002KT 06/M02 A3017 RMK A02 SLP230 T00551017 PA1369 DA0641=
0131008414999992016011304524+31000+061900FM-15+049099999V0203301N001519999999N999999999+00861-00181102331ADDMA1102201999999REMMET104MOBOB3 METAR XM18 //049 310619 130452Z AUTO 33003KT 09/M02 A3018 RMK A02 SLP233 T00861018 PA1359 DA1004=
0131008414999992016011305524+31000+061900FM-15+049099999V0203401N001019999999N999999999+01101-00191102251ADDMA1102131999999REMMET104MOBOB3 METAR XM18 //049 310619 130552Z AUTO 34002KT 11/M02 A3016 RMK A02 SLP225 T01101019 PA1378 DA1315=
0131008414999992016011306524+31000+061900FM-15+049099999V0200601N000519999999N999999999+01421-00241102051ADDMA1101961999999REMMET104MOBOB3 METAR XM18 //049 310619 130652Z AUTO 06001KT 14/M02 A3011 RMK A02 SLP205 T01421024 PA1427 DA1751=
0131008414999992016011307524+31000+061900FM-15+049099999V0200601N001019999999N999999999+01531-00481101911ADDMA1101831999999REMMET104MOBOB3 METAR XM18 //049 310619 130752Z AUTO 06002KT 15/M05 A3007 RMK A02 SLP191 T01531048 PA1465 DA1916=
0131008414999992016011308524+31000+061900FM-15+049099999V0203301N000519999999N999999999+01701-00561101851ADDMA1101791999999REMMET104MOBOB3 METAR XM18 //049 310619 130852Z AUTO 33001KT 17/M06 A3006 RMK A02 SLP185 T01701056 PA1475 DA2122=
0131008414999992016011309524+31000+061900FM-15+049099999V0203601N001019999999N999999999+01661-00591101831ADDMA1101761999999REMMET104MOBOB3 METAR XM18 //049 310619 130952Z AUTO 36002KT 17/M06 A3005 RMK A02 SLP183 T01661059 PA1484 DA2087=
0131008414999992016011310524+31000+061900FM-15+049099999V0203601N001019999999N999999999+01631-00511101811ADDMA1101691999999REMMET104MOBOB3 METAR XM18 //049 310619 131052Z AUTO 36002KT 16/M05 A3003 RMK A02 SLP181 T01631051 PA1494 DA2067=
0131008414999992016011311524+31000+061900FM-15+049099999V0203201N000519999999N999999999+01481-00341101831ADDMA1101691999999REMMET104MOBOB3 METAR XM18 //049 310619 131152Z AUTO 32001KT 15/M03 A3003 RMK A02 SLP183 T01481034 PA1494 DA1899=
0131008414999992016011312524+31000+061900FM-15+049099999V0202901N001519999999N999999999+01331-00321101921ADDMA1101791999999REMMET104MOBOB3 METAR XM18 //049 310619 131252Z AUTO 29003KT 13/M03 A3006 RMK A02 SLP192 T01331032 PA1475 DA1701=
0131008414999992016011313524+31000+061900FM-15+049099999V0202901N000519999999N999999999+01141-00261101941ADDMA1101791999999REMMET104MOBOB3 METAR XM18 //049 310619 131352Z AUTO 29001KT 11/M03 A3006 RMK A02 SLP194 T01141026 PA1475 DA1479=
0131008414999992016011315524+31000+061900FM-15+049099999V0202701N001519999999N999999999+00861-00251101971ADDMA1101831999999REMMET104MOBOB3 METAR XM18 //049 310619 131552Z AUTO 27003KT 09/M02 A3007 RMK A02 SLP197 T00861025 PA1465 DA1132=
0131008414999992016011316524+31000+061900FM-15+049099999V0203001N000519999999N999999999+00751-00271101941ADDMA1101831999999REMMET104MOBOB3 METAR XM18 //049 310619 131652Z AUTO 30001KT 08/M03 A3007 RMK A02 SLP194 T00751027 PA1465 DA0999=
0131008414999992016011317524+31000+061900FM-15+049099999V0203001N000519999999N999999999+00701-00251101921ADDMA1101831999999REMMET104MOBOB3 METAR XM18 //049 310619 131752Z AUTO 30001KT 07/M03 A3007 RMK A02 SLP192 T00701025 PA1465 DA0939=
0131008414999992016011318524+31000+061900FM-15+049099999V0203401N001019999999N999999999+00611-00311101861ADDMA1101791999999REMMET104MOBOB3 METAR XM18 //049 310619 131852Z AUTO 34002KT 06/M03 A3006 RMK A02 SLP186 T00611031 PA1475 DA0839=
0131008414999992016011319524+31000+061900FM-15+049099999V0203301N000519999999N999999999+00481-00181101861ADDMA1101791999999REMMET104MOBOB3 METAR XM18 //049 310619 131952Z AUTO 33001KT 05/M02 A3006 RMK A02 SLP186 T00481018 PA1475 DA0687=
0131008414999992016011320524+31000+061900FM-15+049099999V0209999C000019999999N999999999+00391-00211101861ADDMA1101791999999REMMET104MOBOB3 METAR XM18 //049 310619 132052Z AUTO 00000KT 04/M02 A3006 RMK A02 SLP186 T00391021 PA1475 DA0575=
0131008414999992016011321524+31000+061900FM-15+049099999V0202801N000519999999N999999999+00451-00171101851ADDMA1101791999999REMMET104MOBOB3 METAR XM18 //049 310619 132152Z AUTO 28001KT 05/M02 A3006 RMK A02 SLP185 T00451017 PA1475 DA0651=
0131008414999992016011322524+31000+061900FM-15+049099999V0201101N000519999999N999999999+00341-00191101871ADDMA1101791999999REMMET104MOBOB3 METAR XM18 //049 310619 132252Z AUTO 11001KT 03/M02 A3006 RMK A02 SLP187 T00341019 PA1475 DA0514=
0131008414999992016011323524+31000+061900FM-15+049099999V0201201N000519999999N999999999+00401-00161101911ADDMA1101831999999REMMET104MOBOB3 METAR XM18 //049 310619 132352Z AUTO 12001KT 04/M02 A3007 RMK A02 SLP191 T00401016 PA1465 DA0578=
0131008414999992016011400524+31000+061900FM-15+049099999V0201901N000519999999N999999999+00411-00181102001ADDMA1101901999999REMMET104MOBOB3 METAR XM18 //049 310619 140052Z AUTO 19001KT 04/M02 A3009 RMK A02 SLP200 T00411018 PA1446 DA0565=
0131008414999992016011401524+31000+061900FM-15+049099999V0202401N001019999999N999999999+00401-00221102021ADDMA1101901999999REMMET104MOBOB3 METAR XM18 //049 310619 140152Z AUTO 24002KT 04/M02 A3009 RMK A02 SLP202 T00401022 PA1446 DA0551=
0131008414999992016011402524+31000+061900FM-15+049099999V0202301N001019999999N999999999+00601-00191102131ADDMA1102001999999REMMET104MOBOB3 METAR XM18 //049 310619 140252Z AUTO 23002KT 06/M02 A3012 RMK A02 SLP213 T00601019 PA1417 DA0761=
0131008414999992016011403524+31000+061900FM-15+049099999V0202101N001519999999N999999999+00851-00191102261ADDMA1102131999999REMMET104MOBOB3 METAR XM18 //049 310619 140352Z AUTO 21003KT 09/M02 A3016 RMK A02 SLP226 T00851019 PA1378 DA1016=
0131008414999992016011404524+31000+061900FM-15+049099999V0202501N001019999999N999999999+01121-00151102241ADDMA1102131999999REMMET104MOBOB3 METAR XM18 //049 310619 140452Z AUTO 25002KT 11/M02 A3016 RMK A02 SLP224 T01121015 PA1378 DA1341=
0131008414999992016011405524+31000+061900FM-15+049099999V0202501N000519999999N999999999+01331-00181102191ADDMA1102101999999REMMET104MOBOB3 METAR XM18 //049 310619 140552Z AUTO 25001KT 13/M02 A3015 RMK A02 SLP219 T01331018 PA1388 DA1600=
0131008414999992016011406524+31000+061900FM-15+049099999V0203101N000519999999N999999999+01531-00271102071ADDMA1102001999999REMMET104MOBOB3 METAR XM18 //049 310619 140652Z AUTO 31001KT 15/M03 A3012 RMK A02 SLP207 T01531027 PA1417 DA1866=
0131008414999992016011407524+31000+061900FM-15+049099999V0202701N000519999999N999999999+01671-00271101991ADDMA1101931999999REMMET104MOBOB3 METAR XM18 //049 310619 140752Z AUTO 27001KT 17/M03 A3010 RMK A02 SLP199 T01671027 PA1436 DA2053=
0131008414999992016011408524+31000+061900FM-15+049099999V0202301N000519999999N999999999+01751-00251101921ADDMA1101861999999REMMET104MOBOB3 METAR XM18 //049 310619 140852Z AUTO 23001KT 18/M03 A3008 RMK A02 SLP192 T01751025 PA1455 DA2171=
0131008414999992016011409524+31000+061900FM-15+049099999V0203201N000519999999N999999999+01791-00291101881ADDMA1101831999999REMMET104MOBOB3 METAR XM18 //049 310619 140952Z AUTO 32001KT 18/M03 A3007 RMK A02 SLP188 T01791029 PA1465 DA2227=
0131008414999992016011410524+31000+061900FM-15+049099999V0200801N001019999999N999999999+01731-00361101901ADDMA1101831999999REMMET104MOBOB3 METAR XM18 //049 310619 141052Z AUTO 08002KT 17/M04 A3007 RMK A02 SLP190 T01731036 PA1465 DA2154=
0131008414999992016011411524+31000+061900FM-15+049099999V0201201N001019999999N999999999+01591-00411101901ADDMA1101831999999REMMET104MOBOB3 METAR XM18 //049 310619 141152Z AUTO 12002KT 16/M04 A3007 RMK A02 SLP190 T01591041 PA1465 DA1989=
0131008414999992016011412524+31000+061900FM-15+049099999V0201001N001019999999N999999999+01421-00351101961ADDMA1101861999999REMMET104MOBOB3 METAR XM18 //049 310619 141252Z AUTO 10002KT 14/M03 A3008 RMK A02 SLP196 T01421035 PA1455 DA1781=
0131008414999992016011413524+31000+061900FM-15+049099999V0200901N000519999999N999999999+01281-00481102011ADDMA1101901999999REMMET104MOBOB3 METAR XM18 //049 310619 141352Z AUTO 09001KT 13/M05 A3009 RMK A02 SLP201 T01281048 PA1446 DA1598=
0131008414999992016011414524+31000+061900FM-15+049099999V0201301N000519999999N999999999+01181-00481102041ADDMA1101931999999REMMET104MOBOB3 METAR XM18 //049 310619 141452Z AUTO 13001KT 12/M05 A3010 RMK A02 SLP204 T01181048 PA1436 DA1468=
0131008414999992016011415524+31000+061900FM-15+049099999V0202101N000519999999N999999999+00911-00371102041ADDMA1101931999999REMMET104MOBOB3 METAR XM18 //049 310619 141552Z AUTO 21001KT 09/M04 A3010 RMK A02 SLP204 T00911037 PA1436 DA1151=
0131008414999992016011416524+31000+061900FM-15+049099999V0209999C000019999999N999999999+00721-00331102031ADDMA1101931999999REMMET104MOBOB3 METAR XM18 //049 310619 141652Z AUTO 00000KT 07/M03 A3010 RMK A02 SLP203 T00721033 PA1436 DA0923=
0131008414999992016011417524+31000+061900FM-15+049099999V0203601N000519999999N999999999+00741-00311101971ADDMA1101901999999REMMET104MOBOB3 METAR XM18 //049 310619 141752Z AUTO 36001KT 07/M03 A3009 RMK A02 SLP197 T00741031 PA1446 DA0960=
0131008414999992016011418524+31000+061900FM-15+049099999V0203101N000519999999N999999999+00561-00201101931ADDMA1101861999999REMMET104MOBOB3 METAR XM18 //049 310619 141852Z AUTO 31001KT 06/M02 A3008 RMK A02 SLP193 T00561020 PA1455 DA0760=
0131008414999992016011419524+31000+061900FM-15+049099999V0203201N001019999999N999999999+00541-00221101921ADDMA1101861999999REMMET104MOBOB3 METAR XM18 //049 310619 141952Z AUTO 32002KT 05/M02 A3008 RMK A02 SLP192 T00541022 PA1455 DA0734=
0131008414999992016011420524+31000+061900FM-15+049099999V0209999C000019999999N999999999+00451-00241101951ADDMA1101901999999REMMET104MOBOB3 METAR XM18 //049 310619 142052Z AUTO 00000KT 05/M02 A3009 RMK A02 SLP195 T00451024 PA1446 DA0611=
0131008414999992016011421524+31000+061900FM-15+049099999V0203501N001019999999N999999999+00361-00261101921ADDMA1101861999999REMMET104MOBOB3 METAR XM18 //049 310619 142152Z AUTO 35002KT 04/M03 A3008 RMK A02 SLP192 T00361026 PA1455 DA0511=
0131008414999992016011422524+31000+061900FM-15+049099999V0203101N001019999999N999999999+00261-00311101941ADDMA1101861999999REMMET104MOBOB3 METAR XM18 //049 310619 142252Z AUTO 31002KT 03/M03 A3008 RMK A02 SLP194 T00261031 PA1455 DA0386=
0131008414999992016011423524+31000+061900FM-15+049099999V0203401N000519999999N999999999+00291-00301101951ADDMA1101861999999REMMET104MOBOB3 METAR XM18 //049 310619 142352Z AUTO 34001KT 03/M03 A3008 RMK A02 SLP195 T00291030 PA1455 DA0423=
0131008414999992016011500524+31000+061900FM-15+049099999V0209999C000019999999N999999999+00231-00271102051ADDMA1101931999999REMMET104MOBOB3 METAR XM18 //049 310619 150052Z AUTO 00000KT 02/M03 A3010 RMK A02 SLP205 T00231027 PA1436 DA0326=
0131008414999992016011501524+31000+061900FM-15+049099999V0202901N000519999999N999999999+00281-00231102131ADDMA1102001999999REMMET104MOBOB3 METAR XM18 //049 310619 150152Z AUTO 29001KT 03/M02 A3012 RMK A02 SLP213 T00281023 PA1417 DA0366=
0131008414999992016011502534+31000+061900FM-15+049099999V0203301N001019999999N999999999+00381-00191102201ADDMA1102071999999REMMET104MOBOB3 METAR XM18 //049 310619 150253Z AUTO 33002KT 04/M02 A3014 RMK A02 SLP220 T00381019 PA1398 DA0468=
0131008414999992016011503524+31000+061900FM-15+049099999V0203601N000519999999N999999999+00711-00141102271ADDMA1102131999999REMMET104MOBOB3 METAR XM18 //049 310619 150352Z AUTO 36001KT 07/M01 A3016 RMK A02 SLP227 T00711014 PA1378 DA0849=
0131008414999992016011504524+31000+061900FM-15+049099999V0200101N001019999999N999999999+01131+00001102311ADDMA1102201999999REMMET104MOBOB3 METAR XM18 //049 310619 150452Z AUTO 01002KT 11/M00 A3018 RMK A02 SLP231 T01131000 PA1359 DA1338=
0131008414999992016011505524+31000+061900FM-15+049099999V0201801N000519999999N999999999+01491-00141102241ADDMA1102171999999REMMET104MOBOB3 METAR XM18 //049 310619 150552Z AUTO 18001KT 15/M01 A3017 RMK A02 SLP224 T01491014 PA1369 DA1767=
0131008414999992016011506524+31000+061900FM-15+049099999V0200401N000519999999N999999999+01711-00301102091ADDMA1102031999999REMMET104MOBOB3 METAR XM18 //049 310619 150652Z AUTO 04001KT 17/M03 A3013 RMK A02 SLP209 T01711030 PA1407 DA2062=
0131008414999992016011507524+31000+061900FM-15+049099999V0203201N000519999999N999999999+01831-00391102011ADDMA1101961999999REMMET104MOBOB3 METAR XM18 //049 310619 150752Z AUTO 32001KT 18/M04 A3011 RMK A02 SLP201 T01831039 PA1427 DA2221=
0131008414999992016011508524+31000+061900FM-15+049099999V0200201N001519999999N999999999+01861-00601101911ADDMA1101861999999REMMET104MOBOB3 METAR XM18 //049 310619 150852Z AUTO 02003KT 19/M06 A3008 RMK A02 SLP191 T01861060 PA1455 DA2282=
0131008414999992016011509524+31000+061900FM-15+049099999V0200801N001519999999N999999999+01931-00611101911ADDMA1101861999999REMMET104MOBOB3 METAR XM18 //049 310619 150952Z AUTO 08003KT 19/M06 A3008 RMK A02 SLP191 T01931061 PA1455 DA2362=
0131008414999992016011510524+31000+061900FM-15+049099999V0200501N001519999999N999999999+01931-00541101881ADDMA1101831999999REMMET104MOBOB3 METAR XM18 //049 310619 151052Z AUTO 05003KT 19/M05 A3007 RMK A02 SLP188 T01931054 PA1465 DA2377=
0131008414999992016011511524+31000+061900FM-15+049099999V0200601N001519999999N999999999+01801-00411101931ADDMA1101861999999REMMET104MOBOB3 METAR XM18 //049 310619 151152Z AUTO 06003KT 18/M04 A3008 RMK A02 SLP193 T01801041 PA1455 DA2221=
0131008414999992016011512524+31000+061900FM-15+049099999V0203101N000519999999N999999999+01541-00331101961ADDMA1101861999999REMMET104MOBOB3 METAR XM18 //049 310619 151252Z AUTO 31001KT 15/M03 A3008 RMK A02 SLP196 T01541033 PA1455 DA1923=
0131008414999992016011513524+31000+061900FM-15+049099999V0202801N001019999999N999999999+01341-00191102011ADDMA1101901999999REMMET104MOBOB3 METAR XM18 //049 310619 151352Z AUTO 28002KT 13/M02 A3009 RMK A02 SLP201 T01341019 PA1446 DA1683=
0131008414999992016011514524+31000+061900FM-15+049099999V0203301N000519999999N999999999+01121-00201102031ADDMA1101901999999REMMET104MOBOB3 METAR XM18 //049 310619 151452Z AUTO 33001KT 11/M02 A3009 RMK A02 SLP203 T01121020 PA1446 DA1422=
0131008414999992016011515524+31000+061900FM-15+049099999V0203101N000519999999N999999999+01031-00161102001ADDMA1101901999999REMMET104MOBOB3 METAR XM18 //049 310619 151552Z AUTO 31001KT 10/M02 A3009 RMK A02 SLP200 T01031016 PA1446 DA1317=
0131008414999992016011516524+31000+061900FM-15+049099999V0203401N000519999999N999999999+00881-00211101941ADDMA1101861999999REMMET104MOBOB3 METAR XM18 //049 310619 151652Z AUTO 34001KT 09/M02 A3008 RMK A02 SLP194 T00881021 PA1455 DA1146=
0131008414999992016011517524+31000+061900FM-15+049099999V0203501N001019999999N999999999+00781-00221101871ADDMA1101831999999REMMET104MOBOB3 METAR XM18 //049 310619 151752Z AUTO 35002KT 08/M02 A3007 RMK A02 SLP187 T00781022 PA1465 DA1037=
0131008414999992016011518524+31000+061900FM-15+049099999V0203001N000519999999N999999999+00631-00081101831ADDMA1101791999999REMMET104MOBOB3 METAR XM18 //049 310619 151852Z AUTO 30001KT 06/M01 A3006 RMK A02 SLP183 T00631008 PA1475 DA0875=
0131008414999992016011519534+31000+061900FM-15+049099999V0203301N000519999999N999999999+00611-00131101781ADDMA1101761999999REMMET104MOBOB3 METAR XM18 //049 310619 151953Z AUTO 33001KT 06/M01 A3005 RMK A02 SLP178 T00611013 PA1484 DA0860=
0131008414999992016011520524+31000+061900FM-15+049099999V0203401N001019999999N999999999+00551-00111101791ADDMA1101761999999REMMET104MOBOB3 METAR XM18 //049 310619 152052Z AUTO 34002KT 06/M01 A3005 RMK A02 SLP179 T00551011 PA1484 DA0788=
0131008414999992016011521524+31000+061900FM-15+049099999V0203101N000519999999N999999999+00491-00131101791ADDMA1101761999999REMMET104MOBOB3 METAR XM18 //049 310619 152152Z AUTO 31001KT 05/M01 A3005 RMK A02 SLP179 T00491013 PA1484 DA0714=
0131008414999992016011522524+31000+061900FM-15+049099999V0203201N000519999999N999999999+00421-00201101791ADDMA1101761999999REMMET104MOBOB3 METAR XM18 //049 310619 152252Z AUTO 32001KT 04/M02 A3005 RMK A02 SLP179 T00421020 PA1484 DA0624=
0131008414999992016011523524+31000+061900FM-15+049099999V0203501N001019999999N999999999+00331-00241101821ADDMA1101761999999REMMET104MOBOB3 METAR XM18 //049 310619 152352Z AUTO 35002KT 03/M02 A3005 RMK A02 SLP182 T00331024 PA1484 DA0512=
0131008414999992016011600524+31000+061900FM-15+049099999V0203201N001019999999N999999999+00291-00271101881ADDMA1101791999999REMMET104MOBOB3 METAR XM18 //049 310619 160052Z AUTO 32002KT 03/M03 A3006 RMK A02 SLP188 T00291027 PA1475 DA0449=
0131008414999992016011601524+31000+061900FM-15+049099999V0203301N001019999999N999999999+00201-00271102021ADDMA1101901999999REMMET104MOBOB3 METAR XM18 //049 310619 160152Z AUTO 33002KT 02/M03 A3009 RMK A02 SLP202 T00201027 PA1446 DA0301=
0131008414999992016011602524+31000+061900FM-15+049099999V0203501N000519999999N999999999+00381-00161102101ADDMA1101961999999REMMET104MOBOB3 METAR XM18 //049 310619 160252Z AUTO 35001KT 04/M02 A3011 RMK A02 SLP210 T00381016 PA1427 DA0505=
0131008414999992016011603524+31000+061900FM-15+049099999V0200901N001019999999N999999999+00791-00141102171ADDMA1102071999999REMMET104MOBOB3 METAR XM18 //049 310619 160352Z AUTO 09002KT 08/M01 A3014 RMK A02 SLP217 T00791014 PA1398 DA0970=
0131008414999992016011604524+31000+061900FM-15+049099999V0201301N001019999999N999999999+01241-00161102141ADDMA1102071999999REMMET104MOBOB3 METAR XM18 //049 310619 160452Z AUTO 13002KT 12/M02 A3014 RMK A02 SLP214 T01241016 PA1398 DA1507=
0131008414999992016011605524+31000+061900FM-15+049099999V0200301N000519999999N999999999+01561-00331102051ADDMA1102001999999REMMET104MOBOB3 METAR XM18 //049 310619 160552Z AUTO 03001KT 16/M03 A3012 RMK A02 SLP205 T01561033 PA1417 DA1898=
0131008414999992016011606524+31000+061900FM-15+049099999V0203001N000519999999N999999999+01731-00241101941ADDMA1101901999999REMMET104MOBOB3 METAR XM18 //049 310619 160652Z AUTO 30001KT 17/M02 A3009 RMK A02 SLP194 T01731024 PA1446 DA2136=
0131008414999992016011607524+31000+061900FM-15+049099999V0203301N001519999999N999999999+01901-00311101811ADDMA1101791999999REMMET104MOBOB3 METAR XM18 //049 310619 160752Z AUTO 33003KT 19/M03 A3006 RMK A02 SLP181 T01901031 PA1475 DA2365=
0131008414999992016011608524+31000+061900FM-15+049099999V0203301N002619999999N999999999+01961-00421101781ADDMA1101761999999REMMET104MOBOB3 METAR XM18 //049 310619 160852Z AUTO 33005KT 20/M04 A3005 RMK A02 SLP178 T01961042 PA1484 DA2440=
0131008414999992016011609524+31000+061900FM-15+049099999V0203101N001519999999N999999999+01991-00331101741ADDMA1101691999999REMMET104MOBOB3 METAR XM18 //049 310619 160952Z AUTO 31003KT 20/M03 A3003 RMK A02 SLP174 T01991033 PA1494 DA2491=
0131008414999992016011610524+31000+061900FM-15+049099999V0203301N003119999999N999999999+01961-00281101751ADDMA1101691999999REMMET104MOBOB3 METAR XM18 //049 310619 161052Z AUTO 33006KT 20/M03 A3003 RMK A02 SLP175 T01961028 PA1494 DA2459=
0131008414999992016011611524+31000+061900FM-15+049099999V0203301N001519999999N999999999+01771-00161101821ADDMA1101761999999REMMET104MOBOB3 METAR XM18 //049 310619 161152Z AUTO 33003KT 18/M02 A3005 RMK A02 SLP182 T01771016 PA1484 DA2234=
0131008414999992016011612524+31000+061900FM-15+049099999V0202801N001519999999N999999999+01551-00201101881ADDMA1101791999999REMMET104MOBOB3 METAR XM18 //049 310619 161252Z AUTO 28003KT 16/M02 A3006 RMK A02 SLP188 T01551020 PA1475 DA1965=
0131008414999992016011613524+31000+061900FM-15+049099999V0202901N002619999999N999999999+01441-00261101981ADDMA1101861999999REMMET104MOBOB3 METAR XM18 //049 310619 161352Z AUTO 29005KT 14/M03 A3008 RMK A02 SLP198 T01441026 PA1455 DA1809=
0131008414999992016011614524+31000+061900FM-15+049099999V0203101N002619999999N999999999+01231-00051102011ADDMA1101901999999REMMET104MOBOB3 METAR XM18 //049 310619 161452Z AUTO 31005KT 12/M00 A3009 RMK A02 SLP201 T01231005 PA1446 DA1561=
0130008414999992016011615524+31000+061900FM-15+049099999V0203101N002619999999N999999999+01111+00011101981ADDMA1101901999999REMMET103MOBOB3 METAR XM18 //049 310619 161552Z AUTO 31005KT 11/00 A3009 RMK A02 SLP198 T01110001 PA1446 DA1422=
0131008414999992016011616524+31000+061900FM-15+049099999V0203001N003119999999N999999999+01041-00011101941ADDMA1101901999999REMMET104MOBOB3 METAR XM18 //049 310619 161652Z AUTO 30006KT 10/M00 A3009 RMK A02 SLP194 T01041001 PA1446 DA1337=
0131008414999992016011617524+31000+061900FM-15+049099999V0203001N003619999999N999999999+00931-00011101921ADDMA1101901999999REMMET104MOBOB3 METAR XM18 //049 310619 161752Z AUTO 30007KT 09/M00 A3009 RMK A02 SLP192 T00931001 PA1446 DA1206=
0131008414999992016011618524+31000+061900FM-15+049099999V0203001N003119999999N999999999+00801-00031101881ADDMA1101861999999REMMET104MOBOB3 METAR XM18 //049 310619 161852Z AUTO 30006KT 08/M00 A3008 RMK A02 SLP188 T00801003 PA1455 DA1060=
0141008414999992016011619534+31000+061900FM-15+049099999V0203101N004119999999N999999999+00771+00011101871ADDMA1101861999999OC100881REMMET106MOBOB3 METAR XM18 //049 310619 161953Z AUTO 31008G17KT 08/00 A3008 RMK A02 SLP187 T00770001 PA1455 DA1026=
0141008414999992016011620524+31000+061900FM-15+049099999V0203101N004119999999N999999999+00711+00011101871ADDMA1101861999999OC100721REMMET106MOBOB3 METAR XM18 //049 310619 162052Z AUTO 31008G14KT 07/00 A3008 RMK A02 SLP187 T00710001 PA1455 DA0954=
0141008414999992016011621524+31000+061900FM-15+049099999V0203101N004119999999N999999999+00681+00011101831ADDMA1101831999999OC100671REMMET106MOBOB3 METAR XM18 //049 310619 162152Z AUTO 31008G13KT 07/00 A3007 RMK A02 SLP183 T00680001 PA1465 DA0929=
0130008414999992016011622524+31000+061900FM-15+049099999V0203101N003119999999N999999999+00621+00001101801ADDMA1101791999999REMMET103MOBOB3 METAR XM18 //049 310619 162252Z AUTO 31006KT 06/00 A3006 RMK A02 SLP180 T00620000 PA1475 DA0868=
0142008414999992016011623524+31000+061900FM-15+049099999V0203301N004619999999N999999999+00621-00021101821ADDMA1101791999999OC100771REMMET107MOBOB3 METAR XM18 //049 310619 162352Z AUTO 33009G15KT 06/M00 A3006 RMK A02 SLP182 T00621002 PA1475 DA0867=
0142008414999992016011700524+31000+061900FM-15+049099999V0203201N004119999999N999999999+00591-00031101921ADDMA1101861999999OC100671REMMET107MOBOB3 METAR XM18 //049 310619 170052Z AUTO 32008G13KT 06/M00 A3008 RMK A02 SLP192 T00591003 PA1455 DA0806=
0142008414999992016011701524+31000+061900FM-15+049099999V0203201N003619999999N999999999+00581-00031102011ADDMA1101931999999OC100671REMMET107MOBOB3 METAR XM18 //049 310619 170152Z AUTO 32007G13KT 06/M00 A3010 RMK A02 SLP201 T00581003 PA1436 DA0769=
0142008414999992016011702534+31000+061900FM-15+049099999V0203101N004119999999N999999999+00661-00021102091ADDMA1102001999999OC100881REMMET107MOBOB3 METAR XM18 //049 310619 170253Z AUTO 31008G17KT 07/M00 A3012 RMK A02 SLP209 T00661002 PA1417 DA0843=
0141008414999992016011703524+31000+061900FM-15+049099999V0203201N004619999999N999999999+00831+00001102161ADDMA1102071999999OC100821REMMET106MOBOB3 METAR XM18 //049 310619 170352Z AUTO 32009G16KT 08/00 A3014 RMK A02 SLP216 T00830000 PA1398 DA1026=
0141008414999992016011704524+31000+061900FM-15+049099999V0203101N005719999999N999999999+00991+00011102221ADDMA1102131999999OC100981REMMET106MOBOB3 METAR XM18 //049 310619 170452Z AUTO 31011G19KT 10/00 A3016 RMK A02 SLP222 T00990001 PA1378 DA1195=
0142008414999992016011705524+31000+061900FM-15+049099999V0203201N006219999999N999999999+01111-00011102151ADDMA1102071999999OC101031REMMET107MOBOB3 METAR XM18 //049 310619 170552Z AUTO 32012G20KT 11/M00 A3014 RMK A02 SLP215 T01111001 PA1398 DA1361=
0142008414999992016011706524+31000+061900FM-15+049099999V0203101N005719999999N999999999+01261-00021102041ADDMA1101961999999OC100981REMMET107MOBOB3 METAR XM18 //049 310619 170652Z AUTO 31011G19KT 13/M00 A3011 RMK A02 SLP204 T01261002 PA1427 DA1574=
0142008414999992016011707524+31000+061900FM-15+049099999V0203001N006219999999N999999999+01361-00021101961ADDMA1101901999999OC101081REMMET107MOBOB3 METAR XM18 //049 310619 170752Z AUTO 30012G21KT 14/M00 A3009 RMK A02 SLP196 T01361002 PA1446 DA1716=
0142008414999992016011708534+31000+061900FM-15+049099999V0203101N005119999999N999999999+01461-00071101851ADDMA1101791999999OC100931REMMET107MOBOB3 METAR XM18 //049 310619 170853Z AUTO 31010G18KT 15/M01 A3006 RMK A02 SLP185 T01461007 PA1475 DA1866=
0142008414999992016011709524+31000+061900FM-15+049099999V0203101N005719999999N999999999+01451-00091101851ADDMA1101791999999OC101031REMMET107MOBOB3 METAR XM18 //049 310619 170952Z AUTO 31011G20KT 15/M01 A3006 RMK A02 SLP185 T01451009 PA1475 DA1853=
0142008414999992016011710524+31000+061900FM-15+049099999V0203101N005119999999N999999999+01391-00131101861ADDMA1101791999999OC100931REMMET107MOBOB3 METAR XM18 //049 310619 171052Z AUTO 31010G18KT 14/M01 A3006 RMK A02 SLP186 T01391013 PA1475 DA1781=
0142008414999992016011711534+31000+061900FM-15+049099999V0203201N004619999999N999999999+01261-00191101911ADDMA1101831999999OC100931REMMET107MOBOB3 METAR XM18 //049 310619 171153Z AUTO 32009G18KT 13/M02 A3007 RMK A02 SLP191 T01261019 PA1465 DA1612=
0142008414999992016011712524+31000+061900FM-15+049099999V0203101N004619999999N999999999+01131-00181102001ADDMA1101901999999OC100821REMMET107MOBOB3 METAR XM18 //049 310619 171252Z AUTO 31009G16KT 11/M02 A3009 RMK A02 SLP200 T01131018 PA1446 DA1435=
0142008414999992016011713524+31000+061900FM-15+049099999V0203101N003619999999N999999999+01031-00221102121ADDMA1102001999999OC100771REMMET107MOBOB3 METAR XM18 //049 310619 171352Z AUTO 31007G15KT 10/M02 A3012 RMK A02 SLP212 T01031022 PA1417 DA1278=
0142008414999992016011714534+31000+061900FM-15+049099999V0203101N005119999999N999999999+01001-00291102191ADDMA1102071999999OC101031REMMET107MOBOB3 METAR XM18 //049 310619 171453Z AUTO 31010G20KT 10/M03 A3014 RMK A02 SLP219 T01001029 PA1398 DA1214=
0142008414999992016011715524+31000+061900FM-15+049099999V0203001N006219999999N999999999+00941-00271102181ADDMA1102071999999OC101031REMMET107MOBOB3 METAR XM18 //049 310619 171552Z AUTO 30012G20KT 09/M03 A3014 RMK A02 SLP218 T00941027 PA1398 DA1144=
0142008414999992016011716524+31000+061900FM-15+049099999V0203001N005719999999N999999999+00841-00251102171ADDMA1102071999999OC100931REMMET107MOBOB3 METAR XM18 //049 310619 171652Z AUTO 30011G18KT 08/M02 A3014 RMK A02 SLP217 T00841025 PA1398 DA1025=
0142008414999992016011717534+31000+061900FM-15+049099999V0203101N004119999999N999999999+00801-00261102161ADDMA1102071999999OC100821REMMET107MOBOB3 METAR XM18 //049 310619 171753Z AUTO 31008G16KT 08/M03 A3014 RMK A02 SLP216 T00801026 PA1398 DA0976=
0142008414999992016011718524+31000+061900FM-15+049099999V0203001N004619999999N999999999+00771-00281102111ADDMA1102031999999OC100771REMMET107MOBOB3 METAR XM18 //049 310619 171852Z AUTO 30009G15KT 08/M03 A3013 RMK A02 SLP211 T00771028 PA1407 DA0951=
0142008414999992016011719524+31000+061900FM-15+049099999V0203001N004619999999N999999999+00731-00321102111ADDMA1102031999999OC100881REMMET107MOBOB3 METAR XM18 //049 310619 171952Z AUTO 30009G17KT 07/M03 A3013 RMK A02 SLP211 T00731032 PA1407 DA0900=
0142008414999992016011720534+31000+061900FM-15+049099999V0202901N005719999999N999999999+00651-00281102111ADDMA1102031999999OC100881REMMET107MOBOB3 METAR XM18 //049 310619 172053Z AUTO 29011G17KT 07/M03 A3013 RMK A02 SLP211 T00651028 PA1407 DA0805=
0142008414999992016011721524+31000+061900FM-15+049099999V0202901N006219999999N999999999+00631-00261102071ADDMA1102001999999OC101131REMMET107MOBOB3 METAR XM18 //049 310619 172152Z AUTO 29012G22KT 06/M03 A3012 RMK A02 SLP207 T00631026 PA1417 DA0794=
0142008414999992016011722524+31000+061900FM-15+049099999V0203001N004619999999N999999999+00601-00271102081ADDMA1102001999999OC101031REMMET107MOBOB3 METAR XM18 //049 310619 172252Z AUTO 30009G20KT 06/M03 A3012 RMK A02 SLP208 T00601027 PA1417 DA0757=
0142008414999992016011723524+31000+061900FM-15+049099999V0203001N005119999999N999999999+00571-00301102061ADDMA1101961999999OC100881REMMET107MOBOB3 METAR XM18 //049 310619 172352Z AUTO 30010G17KT 06/M03 A3011 RMK A02 SLP206 T00571030 PA1427 DA0731=
0142008414999992016011800524+31000+061900FM-15+049099999V0203001N005119999999N999999999+00561-00291102191ADDMA1102071999999OC100931REMMET107MOBOB3 METAR XM18 //049 310619 180052Z AUTO 30010G18KT 06/M03 A3014 RMK A02 SLP219 T00561029 PA1398 DA0683=
0142008414999992016011801524+31000+061900FM-15+049099999V0203001N005119999999N999999999+00551-00321102271ADDMA1102131999999OC100931REMMET107MOBOB3 METAR XM18 //049 310619 180152Z AUTO 30010G18KT 06/M03 A3016 RMK A02 SLP227 T00551032 PA1378 DA0645=
0142008414999992016011802534+31000+061900FM-15+049099999V0202901N005119999999N999999999+00601-00301102381ADDMA1102231999999OC101031REMMET107MOBOB3 METAR XM18 //049 310619 180253Z AUTO 29010G20KT 06/M03 A3019 RMK A02 SLP238 T00601030 PA1350 DA0672=
0142008414999992016011803524+31000+061900FM-15+049099999V0203001N005119999999N999999999+00761-00271102471ADDMA1102341999999OC100931REMMET107MOBOB3 METAR XM18 //049 310619 180352Z AUTO 30010G18KT 08/M03 A3022 RMK A02 SLP247 T00761027 PA1321 DA0831=
0142008414999992016011804524+31000+061900FM-15+049099999V0203001N004119999999N999999999+00981-00251102531ADDMA1102401999999OC100821REMMET107MOBOB3 METAR XM18 //049 310619 180452Z AUTO 30008G16KT 10/M02 A3024 RMK A02 SLP253 T00981025 PA1301 DA1074=
0142008414999992016011805534+31000+061900FM-15+049099999V0203001N004119999999N999999999+01181-00261102441ADDMA1102341999999OC100721REMMET107MOBOB3 METAR XM18 //049 310619 180553Z AUTO 30008G14KT 12/M03 A3022 RMK A02 SLP244 T01181026 PA1321 DA1336=
0142008414999992016011806534+31000+061900FM-15+049099999V0203201N004119999999N999999999+01361-00271102321ADDMA1102231999999OC100721REMMET107MOBOB3 METAR XM18 //049 310619 180653Z AUTO 32008G14KT 14/M03 A3019 RMK A02 SLP232 T01361027 PA1350 DA1583=
0142008414999992016011807524+31000+061900FM-15+049099999V0203301N004119999999N999999999+01521-00341102201ADDMA1102131999999OC100721REMMET107MOBOB3 METAR XM18 //049 310619 180752Z AUTO 33008G14KT 15/M03 A3016 RMK A02 SLP220 T01521034 PA1378 DA1803=
0131008414999992016011808524+31000+061900FM-15+049099999V0203401N003119999999N999999999+01641-00341102121ADDMA1102071999999REMMET104MOBOB3 METAR XM18 //049 310619 180852Z AUTO 34006KT 16/M03 A3014 RMK A02 SLP212 T01641034 PA1398 DA1968=
0131008414999992016011809534+31000+061900FM-15+049099999V0203101N002619999999N999999999+01701-00361102081ADDMA1102031999999REMMET104MOBOB3 METAR XM18 //049 310619 180953Z AUTO 31005KT 17/M04 A3013 RMK A02 SLP208 T01701036 PA1407 DA2048=
