0140008411999992016010100044+08200+134600FM-15+000099999V0200701N006219999999N999999999+02621+02251101501ADDMA1101491999999OC100931REMMET105MOBOB2 METAR XM20 //000 082346 010004Z AUTO 07012G18KT 26/22 A2997 RMK A02 SLP150 T02620225 PA-45 DA1603=
0140008411999992016010100154+08200+134600FM-15+000099999V0200701N005719999999N999999999+02671+02261101501ADDMA1101491999999OC100721REMMET105MOBOB2 METAR XM20 //000 082346 010015Z AUTO 07011G14KT 27/23 A2997 RMK A02 SLP150 T02670226 PA-45 DA1661=
0140008411999992016010100274+08200+134600FM-15+000099999V0200701N005119999999N999999999+02721+02281101501ADDMA1101491999999OC100621REMMET105MOBOB2 METAR XM20 //000 082346 010027Z AUTO 07010G12KT 27/23 A2997 RMK A02 SLP150 T02720228 PA-45 DA1722=
0129008411999992016010100394+08200+134600FM-15+000099999V0200801N004619999999N999999999+02711+02231101501ADDMA1101491999999REMMET102MOBOB2 METAR XM20 //000 082346 010039Z AUTO 08009KT 27/22 A2997 RMK A02 SLP150 T02710223 PA-45 DA1701=
0129008411999992016010100514+08200+134600FM-15+000099999V0200601N004119999999N999999999+02761+02351101501ADDMA1101491999999REMMET102MOBOB2 METAR XM20 //000 082346 010051Z AUTO 06008KT 28/23 A2997 RMK A02 SLP150 T02760235 PA-45 DA1782=
0129008411999992016010101024+08200+134600FM-15+000099999V0200301N003619999999N999999999+02731+02381101501ADDMA1101491999999REMMET102MOBOB2 METAR XM20 //000 082346 010102Z AUTO 03007KT 27/24 A2997 RMK A02 SLP150 T02730238 PA-45 DA1756=
0129008411999992016010101144+08200+134600FM-15+000099999V0200201N002619999999N999999999+02721+02371101461ADDMA1101461999999REMMET102MOBOB2 METAR XM20 //000 082346 010114Z AUTO 02005KT 27/24 A2996 RMK A02 SLP146 T02720237 PA-36 DA1754=
0129008411999992016010101264+08200+134600FM-15+000099999V0200201N002119999999N999999999+02731+02381101461ADDMA1101461999999REMMET102MOBOB2 METAR XM20 //000 082346 010126Z AUTO 02004KT 27/24 A2996 RMK A02 SLP146 T02730238 PA-36 DA1767=
0167008411999992016010101384+08200+134600FM-15+000099999V0200301N005119999999N999999999+02631+02221101501ADDAA101001231AW1631MA1101491999999OC101441REMMET115MOBOB2 METAR XM20 //000 082346 010138Z AUTO 03010G28KT +RA 26/22 A2997 RMK A02 SLP150 P0005 T02630222 PA-45 DA1608=
0167008411999992016010101494+08200+134600FM-15+000099999V0200501N005119999999N999999999+02571+02351101501ADDAA101001031AW1611MA1101491999999OC100881REMMET115MOBOB2 METAR XM20 //000 082346 010149Z AUTO 05010G17KT -RA 26/24 A2997 RMK A02 SLP150 P0004 T02570235 PA-45 DA1569=
0167008411999992016010102014+08200+134600FM-15+000099999V0200501N005119999999N999999999+02581+02311101461ADDAA101000021AW1611MA1101461999999OC100671REMMET115MOBOB2 METAR XM20 //000 082346 010201Z AUTO 05010G13KT -RA 26/23 A2996 RMK A02 SLP146 P0000 T02580231 PA-36 DA1582=
0155008411999992016010102134+08200+134600FM-15+000099999V0200601N004119999999N999999999+02611+02351101461ADDAA101001031AW1621MA1101461999999REMMET111MOBOB2 METAR XM20 //000 082346 010213Z AUTO 06008KT RA 26/23 A2996 RMK A02 SLP146 P0004 T02610235 PA-36 DA1625=
0156008411999992016010102254+08200+134600FM-15+000099999V0200601N004119999999N999999999+02621+02351101431ADDAA101000531AW1611MA1101421999999REMMET112MOBOB2 METAR XM20 //000 082346 010225Z AUTO 06008KT -RA 26/24 A2995 RMK A02 SLP143 P0002 T02620235 PA-27 DA1649=
0156008411999992016010102374+08200+134600FM-15+000099999V0200801N004119999999N999999999+02631+02361101431ADDAA101000021AW1611MA1101421999999REMMET112MOBOB2 METAR XM20 //000 082346 010237Z AUTO 08008KT -RA 26/24 A2995 RMK A02 SLP143 P0000 T02630236 PA-27 DA1661=
0156008411999992016010102494+08200+134600FM-15+000099999V0200601N002619999999N999999999+02651+02361101391ADDAA101000021AW1611MA1101391999999REMMET112MOBOB2 METAR XM20 //000 082346 010249Z AUTO 06005KT -RA 27/24 A2994 RMK A02 SLP139 P0000 T02650236 PA-17 DA1695=
0129008411999992016010103014+08200+134600FM-15+000099999V0200301N003119999999N999999999+02671+02381101391ADDMA1101391999999REMMET102MOBOB2 METAR XM20 //000 082346 010301Z AUTO 03006KT 27/24 A2994 RMK A02 SLP139 T02670238 PA-17 DA1723=
0140008411999992016010103124+08200+134600FM-15+000099999V0200501N005119999999N999999999+02681+02341101361ADDMA1101351999999OC100621REMMET105MOBOB2 METAR XM20 //000 082346 010312Z AUTO 05010G12KT 27/23 A2993 RMK A02 SLP136 T02680234 PA-08 DA1737=
0140008411999992016010103244+08200+134600FM-15+000099999V0200701N006719999999N999999999+02741+02351101331ADDMA1101321999999OC100931REMMET105MOBOB2 METAR XM20 //000 082346 010324Z AUTO 07013G18KT 27/23 A2992 RMK A02 SLP133 T02740235 PA001 DA1817=
0140008411999992016010103364+08200+134600FM-15+000099999V0200901N006719999999N999999999+02771+02421101331ADDMA1101321999999OC100881REMMET105MOBOB2 METAR XM20 //000 082346 010336Z AUTO 09013G17KT 28/24 A2992 RMK A02 SLP133 T02770242 PA001 DA1866=
0166008411999992016010103474+08200+134600FM-15+000099999V0200701N009319999999N999999999+02701+02351101291ADDAA101000021AW1621MA1101291999999OC101291REMMET114MOBOB2 METAR XM20 //000 082346 010347Z AUTO 07018G25KT RA 27/23 A2991 RMK A02 SLP129 P0000 T02700235 PA010 DA1783=
0140008411999992016010103594+08200+134600FM-15+000099999V0200801N010319999999N999999999+02651+02331101291ADDMA1101291999999OC101341REMMET105MOBOB2 METAR XM20 //000 082346 010359Z AUTO 08020G26KT 27/23 A2991 RMK A02 SLP129 T02650233 PA010 DA1723=
0167008411999992016010104114+08200+134600FM-15+000099999V0200801N009819999999N999999999+02601+02321101291ADDAA101000231AW1611MA1101291999999OC101181REMMET115MOBOB2 METAR XM20 //000 082346 010411Z AUTO 08019G23KT -RA 26/23 A2991 RMK A02 SLP129 P0001 T02600232 PA010 DA1664=
0140008411999992016010104344+08200+134600FM-15+000099999V0200801N007719999999N999999999+02661+02361101261ADDMA1101251999999OC100981REMMET105MOBOB2 METAR XM20 //000 082346 010434Z AUTO 08015G19KT 27/24 A2990 RMK A02 SLP126 T02660236 PA020 DA1752=
0140008411999992016010104464+08200+134600FM-15+000099999V0200801N007219999999N999999999+02701+02411101221ADDMA1101221999999OC100881REMMET105MOBOB2 METAR XM20 //000 082346 010446Z AUTO 08014G17KT 27/24 A2989 RMK A02 SLP122 T02700241 PA029 DA1820=
0140008411999992016010104584+08200+134600FM-15+000099999V0200801N006219999999N999999999+02681+02371101221ADDMA1101221999999OC100821REMMET105MOBOB2 METAR XM20 //000 082346 010458Z AUTO 08012G16KT 27/24 A2989 RMK A02 SLP122 T02680237 PA029 DA1790=
0140008411999992016010105104+08200+134600FM-15+000099999V0200901N006219999999N999999999+02711+02411101221ADDMA1101221999999OC100771REMMET105MOBOB2 METAR XM20 //000 082346 010510Z AUTO 09012G15KT 27/24 A2989 RMK A02 SLP122 T02710241 PA029 DA1832=
0140008411999992016010105224+08200+134600FM-15+000099999V0201001N007219999999N999999999+02681+02381101221ADDMA1101221999999OC100981REMMET105MOBOB2 METAR XM20 //000 082346 010522Z AUTO 10014G19KT 27/24 A2989 RMK A02 SLP122 T02680238 PA029 DA1791=
0140008411999992016010105344+08200+134600FM-15+000099999V0201001N007219999999N999999999+02701+02421101221ADDMA1101221999999OC100931REMMET105MOBOB2 METAR XM20 //000 082346 010534Z AUTO 10014G18KT 27/24 A2989 RMK A02 SLP122 T02700242 PA029 DA1822=
0140008411999992016010105464+08200+134600FM-15+000099999V0201101N007219999999N999999999+02671+02391101221ADDMA1101221999999OC101031REMMET105MOBOB2 METAR XM20 //000 082346 010546Z AUTO 11014G20KT 27/24 A2989 RMK A02 SLP122 T02670239 PA029 DA1782=
0140008411999992016010105574+08200+134600FM-15+000099999V0201001N006219999999N999999999+02671+02441101191ADDMA1101181999999OC100821REMMET105MOBOB2 METAR XM20 //000 082346 010557Z AUTO 10012G16KT 27/24 A2988 RMK A02 SLP119 T02670244 PA038 DA1804=
0140008411999992016010106094+08200+134600FM-15+000099999V0201001N006719999999N999999999+02701+02371101191ADDMA1101181999999OC100881REMMET105MOBOB2 METAR XM20 //000 082346 010609Z AUTO 10013G17KT 27/24 A2988 RMK A02 SLP119 T02700237 PA038 DA1823=
0140008411999992016010106214+08200+134600FM-15+000099999V0200901N005719999999N999999999+02761+02411101191ADDMA1101181999999OC100721REMMET105MOBOB2 METAR XM20 //000 082346 010621Z AUTO 09011G14KT 28/24 A2988 RMK A02 SLP119 T02760241 PA038 DA1899=
0140008411999992016010106334+08200+134600FM-15+000099999V0200901N005719999999N999999999+02771+02391101191ADDMA1101181999999OC100771REMMET105MOBOB2 METAR XM20 //000 082346 010633Z AUTO 09011G15KT 28/24 A2988 RMK A02 SLP119 T02770239 PA038 DA1906=
0140008411999992016010106454+08200+134600FM-15+000099999V0200801N006219999999N999999999+02771+02381101191ADDMA1101181999999OC100721REMMET105MOBOB2 METAR XM20 //000 082346 010645Z AUTO 08012G14KT 28/24 A2988 RMK A02 SLP119 T02770238 PA038 DA1904=
0140008411999992016010106574+08200+134600FM-15+000099999V0200701N006219999999N999999999+02781+02401101191ADDMA1101181999999OC100771REMMET105MOBOB2 METAR XM20 //000 082346 010657Z AUTO 07012G15KT 28/24 A2988 RMK A02 SLP119 T02780240 PA038 DA1919=
0140008411999992016010107094+08200+134600FM-15+000099999V0200701N006719999999N999999999+02771+02401101191ADDMA1101181999999OC100821REMMET105MOBOB2 METAR XM20 //000 082346 010709Z AUTO 07013G16KT 28/24 A2988 RMK A02 SLP119 T02770240 PA038 DA1907=
0140008411999992016010107204+08200+134600FM-15+000099999V0200701N006219999999N999999999+02771+02401101221ADDMA1101221999999OC100821REMMET105MOBOB2 METAR XM20 //000 082346 010720Z AUTO 07012G16KT 28/24 A2989 RMK A02 SLP122 T02770240 PA029 DA1896=
0140008411999992016010107324+08200+134600FM-15+000099999V0200701N006719999999N999999999+02801+02451101221ADDMA1101221999999OC100881REMMET105MOBOB2 METAR XM20 //000 082346 010732Z AUTO 07013G17KT 28/25 A2989 RMK A02 SLP122 T02800245 PA029 DA1942=
0166008411999992016010107444+08200+134600FM-15+000099999V0200801N010319999999N999999999+02671+02431101261ADDAA101000731AW1621MA1101251999999OC101291REMMET114MOBOB2 METAR XM20 //000 082346 010744Z AUTO 08020G25KT RA 27/24 A2990 RMK A02 SLP126 P0003 T02670243 PA020 DA1780=
0167008411999992016010107564+08200+134600FM-15+000099999V0200901N010819999999N999999999+02631+02401101261ADDAA101000231AW1611MA1101251999999OC101441REMMET115MOBOB2 METAR XM20 //000 082346 010756Z AUTO 09021G28KT -RA 26/24 A2990 RMK A02 SLP126 P0001 T02630240 PA020 DA1727=
0140008411999992016010108084+08200+134600FM-15+000099999V0200901N009819999999N999999999+02641+02381101261ADDMA1101251999999OC101391REMMET105MOBOB2 METAR XM20 //000 082346 010808Z AUTO 09019G27KT 26/24 A2990 RMK A02 SLP126 T02640238 PA020 DA1734=
0140008411999992016010108194+08200+134600FM-15+000099999V0200901N008219999999N999999999+02631+02371101261ADDMA1101251999999OC101031REMMET105MOBOB2 METAR XM20 //000 082346 010819Z AUTO 09016G20KT 26/24 A2990 RMK A02 SLP126 T02630237 PA020 DA1721=
0140008411999992016010108314+08200+134600FM-15+000099999V0200901N007719999999N999999999+02641+02351101291ADDMA1101291999999OC100981REMMET105MOBOB2 METAR XM20 //000 082346 010831Z AUTO 09015G19KT 26/23 A2991 RMK A02 SLP129 T02640235 PA010 DA1716=
0140008411999992016010108434+08200+134600FM-15+000099999V0200901N006719999999N999999999+02701+02301101291ADDMA1101291999999OC100881REMMET105MOBOB2 METAR XM20 //000 082346 010843Z AUTO 09013G17KT 27/23 A2991 RMK A02 SLP129 T02700230 PA010 DA1773=
0140008411999992016010108554+08200+134600FM-15+000099999V0200901N006219999999N999999999+02741+02361101291ADDMA1101291999999OC100821REMMET105MOBOB2 METAR XM20 //000 082346 010855Z AUTO 09012G16KT 27/24 A2991 RMK A02 SLP129 T02740236 PA010 DA1832=
0140008411999992016010109074+08200+134600FM-15+000099999V0200801N005119999999N999999999+02711+02381101331ADDMA1101321999999OC100721REMMET105MOBOB2 METAR XM20 //000 082346 010907Z AUTO 08010G14KT 27/24 A2992 RMK A02 SLP133 T02710238 PA001 DA1789=
0140008411999992016010109184+08200+134600FM-15+000099999V0200701N006719999999N999999999+02711+02361101291ADDMA1101291999999OC100821REMMET105MOBOB2 METAR XM20 //000 082346 010918Z AUTO 07013G16KT 27/24 A2991 RMK A02 SLP129 T02710236 PA010 DA1797=
0140008411999992016010109304+08200+134600FM-15+000099999V0200701N006219999999N999999999+02711+02301101331ADDMA1101321999999OC100771REMMET105MOBOB2 METAR XM20 //000 082346 010930Z AUTO 07012G15KT 27/23 A2992 RMK A02 SLP133 T02710230 PA001 DA1772=
0140008411999992016010109424+08200+134600FM-15+000099999V0200601N005719999999N999999999+02771+02391101331ADDMA1101321999999OC100721REMMET105MOBOB2 METAR XM20 //000 082346 010942Z AUTO 06011G14KT 28/24 A2992 RMK A02 SLP133 T02770239 PA001 DA1859=
0140008411999992016010109544+08200+134600FM-15+000099999V0200601N006219999999N999999999+02761+02411101331ADDMA1101321999999OC100821REMMET105MOBOB2 METAR XM20 //000 082346 010954Z AUTO 06012G16KT 28/24 A2992 RMK A02 SLP133 T02760241 PA001 DA1853=
0140008411999992016010110064+08200+134600FM-15+000099999V0200701N007219999999N999999999+02741+02371101361ADDMA1101351999999OC100931REMMET105MOBOB2 METAR XM20 //000 082346 011006Z AUTO 07014G18KT 27/24 A2993 RMK A02 SLP136 T02740237 PA-08 DA1811=
0140008411999992016010110184+08200+134600FM-15+000099999V0200601N007219999999N999999999+02761+02371101361ADDMA1101351999999OC100881REMMET105MOBOB2 METAR XM20 //000 082346 011018Z AUTO 06014G17KT 28/24 A2993 RMK A02 SLP136 T02760237 PA-08 DA1833=
0140008411999992016010110304+08200+134600FM-15+000099999V0200601N006219999999N999999999+02781+02421101361ADDMA1101351999999OC100881REMMET105MOBOB2 METAR XM20 //000 082346 011030Z AUTO 06012G17KT 28/24 A2993 RMK A02 SLP136 T02780242 PA-08 DA1866=
0140008411999992016010110414+08200+134600FM-15+000099999V0200601N007219999999N999999999+02781+02421101391ADDMA1101391999999OC100931REMMET105MOBOB2 METAR XM20 //000 082346 011041Z AUTO 06014G18KT 28/24 A2994 RMK A02 SLP139 T02780242 PA-17 DA1854=
0140008411999992016010110534+08200+134600FM-15+000099999V0200501N007219999999N999999999+02791+02441101391ADDMA1101391999999OC100881REMMET105MOBOB2 METAR XM20 //000 082346 011053Z AUTO 05014G17KT 28/24 A2994 RMK A02 SLP139 T02790244 PA-17 DA1870=
0140008411999992016010111054+08200+134600FM-15+000099999V0200601N007219999999N999999999+02791+02421101391ADDMA1101391999999OC100931REMMET105MOBOB2 METAR XM20 //000 082346 011105Z AUTO 06014G18KT 28/24 A2994 RMK A02 SLP139 T02790242 PA-17 DA1866=
0140008411999992016010111164+08200+134600FM-15+000099999V0200601N008219999999N999999999+02791+02391101391ADDMA1101391999999OC100981REMMET105MOBOB2 METAR XM20 //000 082346 011116Z AUTO 06016G19KT 28/24 A2994 RMK A02 SLP139 T02790239 PA-17 DA1859=
0140008411999992016010111284+08200+134600FM-15+000099999V0200601N007719999999N999999999+02791+02371101391ADDMA1101391999999OC100981REMMET105MOBOB2 METAR XM20 //000 082346 011128Z AUTO 06015G19KT 28/24 A2994 RMK A02 SLP139 T02790237 PA-17 DA1855=
0140008411999992016010111404+08200+134600FM-15+000099999V0200601N007719999999N999999999+02801+02401101431ADDMA1101421999999OC100931REMMET105MOBOB2 METAR XM20 //000 082346 011140Z AUTO 06015G18KT 28/24 A2995 RMK A02 SLP143 T02800240 PA-27 DA1862=
0140008411999992016010111524+08200+134600FM-15+000099999V0200601N007719999999N999999999+02801+02411101391ADDMA1101391999999OC100981REMMET105MOBOB2 METAR XM20 //000 082346 011152Z AUTO 06015G19KT 28/24 A2994 RMK A02 SLP139 T02800241 PA-17 DA1875=
0140008411999992016010112034+08200+134600FM-15+000099999V0200601N007719999999N999999999+02791+02391101431ADDMA1101421999999OC100931REMMET105MOBOB2 METAR XM20 //000 082346 011203Z AUTO 06015G18KT 28/24 A2995 RMK A02 SLP143 T02790239 PA-27 DA1847=
0140008411999992016010112154+08200+134600FM-15+000099999V0200501N008219999999N999999999+02791+02391101431ADDMA1101421999999OC101081REMMET105MOBOB2 METAR XM20 //000 082346 011215Z AUTO 05016G21KT 28/24 A2995 RMK A02 SLP143 T02790239 PA-27 DA1849=
0140008411999992016010112274+08200+134600FM-15+000099999V0200501N007719999999N999999999+02791+02391101431ADDMA1101421999999OC100981REMMET105MOBOB2 METAR XM20 //000 082346 011227Z AUTO 05015G19KT 28/24 A2995 RMK A02 SLP143 T02790239 PA-27 DA1847=
0140008411999992016010112394+08200+134600FM-15+000099999V0200501N008219999999N999999999+02791+02391101431ADDMA1101421999999OC101031REMMET105MOBOB2 METAR XM20 //000 082346 011239Z AUTO 05016G20KT 28/24 A2995 RMK A02 SLP143 T02790239 PA-27 DA1847=
0140008411999992016010112514+08200+134600FM-15+000099999V0200501N008819999999N999999999+02791+02361101391ADDMA1101391999999OC101131REMMET105MOBOB2 METAR XM20 //000 082346 011251Z AUTO 05017G22KT 28/24 A2994 RMK A02 SLP139 T02790236 PA-17 DA1852=
0140008411999992016010113024+08200+134600FM-15+000099999V0200501N008819999999N999999999+02801+02361101391ADDMA1101391999999OC101031REMMET105MOBOB2 METAR XM20 //000 082346 011302Z AUTO 05017G20KT 28/24 A2994 RMK A02 SLP139 T02800236 PA-17 DA1863=
0140008411999992016010113144+08200+134600FM-15+000099999V0200501N008219999999N999999999+02801+02351101391ADDMA1101391999999OC101081REMMET105MOBOB2 METAR XM20 //000 082346 011314Z AUTO 05016G21KT 28/24 A2994 RMK A02 SLP139 T02800235 PA-17 DA1862=
0140008411999992016010113264+08200+134600FM-15+000099999V0200401N008219999999N999999999+02801+02391101391ADDMA1101391999999OC101031REMMET105MOBOB2 METAR XM20 //000 082346 011326Z AUTO 04016G20KT 28/24 A2994 RMK A02 SLP139 T02800239 PA-17 DA1872=
0140008411999992016010113384+08200+134600FM-15+000099999V0200501N008819999999N999999999+02791+02361101391ADDMA1101391999999OC101031REMMET105MOBOB2 METAR XM20 //000 082346 011338Z AUTO 05017G20KT 28/24 A2994 RMK A02 SLP139 T02790236 PA-17 DA1852=
0140008411999992016010113504+08200+134600FM-15+000099999V0200401N008819999999N999999999+02791+02371101391ADDMA1101391999999OC101081REMMET105MOBOB2 METAR XM20 //000 082346 011350Z AUTO 04017G21KT 28/24 A2994 RMK A02 SLP139 T02790237 PA-17 DA1856=
0140008411999992016010114014+08200+134600FM-15+000099999V0200501N008819999999N999999999+02801+02361101391ADDMA1101391999999OC101131REMMET105MOBOB2 METAR XM20 //000 082346 011401Z AUTO 05017G22KT 28/24 A2994 RMK A02 SLP139 T02800236 PA-17 DA1864=
0140008411999992016010114134+08200+134600FM-15+000099999V0200501N008819999999N999999999+02801+02361101391ADDMA1101391999999OC101081REMMET105MOBOB2 METAR XM20 //000 082346 011413Z AUTO 05017G21KT 28/24 A2994 RMK A02 SLP139 T02800236 PA-17 DA1864=
0140008411999992016010114254+08200+134600FM-15+000099999V0200501N008819999999N999999999+02801+02321101391ADDMA1101391999999OC101081REMMET105MOBOB2 METAR XM20 //000 082346 011425Z AUTO 05017G21KT 28/23 A2994 RMK A02 SLP139 T02800232 PA-17 DA1856=
0140008411999992016010114374+08200+134600FM-15+000099999V0200501N008819999999N999999999+02801+02341101361ADDMA1101351999999OC101081REMMET105MOBOB2 METAR XM20 //000 082346 011437Z AUTO 05017G21KT 28/23 A2993 RMK A02 SLP136 T02800234 PA-08 DA1871=
0140008411999992016010114494+08200+134600FM-15+000099999V0200501N008819999999N999999999+02781+02291101361ADDMA1101351999999OC101081REMMET105MOBOB2 METAR XM20 //000 082346 011449Z AUTO 05017G21KT 28/23 A2993 RMK A02 SLP136 T02780229 PA-08 DA1838=
0140008411999992016010115004+08200+134600FM-15+000099999V0200501N009319999999N999999999+02811+02291101361ADDMA1101351999999OC101131REMMET105MOBOB2 METAR XM20 //000 082346 011500Z AUTO 05018G22KT 28/23 A2993 RMK A02 SLP136 T02810229 PA-08 DA1871=
0140008411999992016010115124+08200+134600FM-15+000099999V0200501N008819999999N999999999+02811+02361101361ADDMA1101351999999OC101031REMMET105MOBOB2 METAR XM20 //000 082346 011512Z AUTO 05017G20KT 28/24 A2993 RMK A02 SLP136 T02810236 PA-08 DA1886=
0140008411999992016010115244+08200+134600FM-15+000099999V0200501N007719999999N999999999+02791+02371101361ADDMA1101351999999OC100981REMMET105MOBOB2 METAR XM20 //000 082346 011524Z AUTO 05015G19KT 28/24 A2993 RMK A02 SLP136 T02790237 PA-08 DA1866=
0140008411999992016010115354+08200+134600FM-15+000099999V0200501N008819999999N999999999+02791+02361101361ADDMA1101351999999OC101131REMMET105MOBOB2 METAR XM20 //000 082346 011535Z AUTO 05017G22KT 28/24 A2993 RMK A02 SLP136 T02790236 PA-08 DA1865=
0140008411999992016010115474+08200+134600FM-15+000099999V0200501N008219999999N999999999+02791+02371101331ADDMA1101321999999OC101031REMMET105MOBOB2 METAR XM20 //000 082346 011547Z AUTO 05016G20KT 28/24 A2992 RMK A02 SLP133 T02790237 PA001 DA1879=
0140008411999992016010115594+08200+134600FM-15+000099999V0200501N008219999999N999999999+02811+02371101331ADDMA1101321999999OC101031REMMET105MOBOB2 METAR XM20 //000 082346 011559Z AUTO 05016G20KT 28/24 A2992 RMK A02 SLP133 T02810237 PA001 DA1901=
0140008411999992016010116114+08200+134600FM-15+000099999V0200501N008219999999N999999999+02781+02401101291ADDMA1101291999999OC101031REMMET105MOBOB2 METAR XM20 //000 082346 011611Z AUTO 05016G20KT 28/24 A2991 RMK A02 SLP129 T02780240 PA010 DA1885=
0140008411999992016010116244+08200+134600FM-15+000099999V0200501N008819999999N999999999+02771+02341101291ADDMA1101291999999OC101081REMMET105MOBOB2 METAR XM20 //000 082346 011624Z AUTO 05017G21KT 28/23 A2991 RMK A02 SLP129 T02770234 PA010 DA1859=
0140008411999992016010116374+08200+134600FM-15+000099999V0200501N008219999999N999999999+02781+02391101291ADDMA1101291999999OC101081REMMET105MOBOB2 METAR XM20 //000 082346 011637Z AUTO 05016G21KT 28/24 A2991 RMK A02 SLP129 T02780239 PA010 DA1883=
0140008411999992016010116494+08200+134600FM-15+000099999V0200401N008819999999N999999999+02761+02361101261ADDMA1101251999999OC101181REMMET105MOBOB2 METAR XM20 //000 082346 011649Z AUTO 04017G23KT 28/24 A2990 RMK A02 SLP126 T02760236 PA020 DA1865=
0167008411999992016010117014+08200+134600FM-15+000099999V0200401N008819999999N999999999+02661+02261101261ADDAA101000021AW1611MA1101251999999OC101341REMMET115MOBOB2 METAR XM20 //000 082346 011701Z AUTO 04017G26KT -RA 27/23 A2990 RMK A02 SLP126 P0000 T02660226 PA020 DA1730=
0140008411999992016010117124+08200+134600FM-15+000099999V0200501N009319999999N999999999+02771+02331101261ADDMA1101251999999OC101081REMMET105MOBOB2 METAR XM20 //000 082346 011712Z AUTO 05018G21KT 28/23 A2990 RMK A02 SLP126 T02770233 PA020 DA1870=
0140008411999992016010117244+08200+134600FM-15+000099999V0200401N008819999999N999999999+02781+02371101261ADDMA1101251999999OC101131REMMET105MOBOB2 METAR XM20 //000 082346 011724Z AUTO 04017G22KT 28/24 A2990 RMK A02 SLP126 T02780237 PA020 DA1889=
0140008411999992016010117364+08200+134600FM-15+000099999V0200501N008819999999N999999999+02771+02311101221ADDMA1101221999999OC101181REMMET105MOBOB2 METAR XM20 //000 082346 011736Z AUTO 05017G23KT 28/23 A2989 RMK A02 SLP122 T02770231 PA029 DA1876=
0140008411999992016010117484+08200+134600FM-15+000099999V0200501N008819999999N999999999+02761+02271101221ADDMA1101221999999OC101181REMMET105MOBOB2 METAR XM20 //000 082346 011748Z AUTO 05017G23KT 28/23 A2989 RMK A02 SLP122 T02760227 PA029 DA1857=
0140008411999992016010118004+08200+134600FM-15+000099999V0200501N008819999999N999999999+02761+02281101221ADDMA1101221999999OC101131REMMET105MOBOB2 METAR XM20 //000 082346 011800Z AUTO 05017G22KT 28/23 A2989 RMK A02 SLP122 T02760228 PA029 DA1859=
0140008411999992016010118114+08200+134600FM-15+000099999V0200501N009319999999N999999999+02781+02291101221ADDMA1101221999999OC101181REMMET105MOBOB2 METAR XM20 //000 082346 011811Z AUTO 05018G23KT 28/23 A2989 RMK A02 SLP122 T02780229 PA029 DA1883=
0140008411999992016010118234+08200+134600FM-15+000099999V0200501N008819999999N999999999+02761+02271101221ADDMA1101221999999OC101181REMMET105MOBOB2 METAR XM20 //000 082346 011823Z AUTO 05017G23KT 28/23 A2989 RMK A02 SLP122 T02760227 PA029 DA1856=
0140008411999992016010118354+08200+134600FM-15+000099999V0200501N009319999999N999999999+02761+02271101221ADDMA1101221999999OC101131REMMET105MOBOB2 METAR XM20 //000 082346 011835Z AUTO 05018G22KT 28/23 A2989 RMK A02 SLP122 T02760227 PA029 DA1856=
0140008411999992016010118474+08200+134600FM-15+000099999V0200501N008819999999N999999999+02761+02261101221ADDMA1101221999999OC101181REMMET105MOBOB2 METAR XM20 //000 082346 011847Z AUTO 05017G23KT 28/23 A2989 RMK A02 SLP122 T02760226 PA029 DA1854=
0140008411999992016010118584+08200+134600FM-15+000099999V0200501N008819999999N999999999+02771+02281101221ADDMA1101221999999OC101181REMMET105MOBOB2 METAR XM20 //000 082346 011858Z AUTO 05017G23KT 28/23 A2989 RMK A02 SLP122 T02770228 PA029 DA1871=
0140008411999992016010119104+08200+134600FM-15+000099999V0200401N008819999999N999999999+02771+02301101221ADDMA1101221999999OC101181REMMET105MOBOB2 METAR XM20 //000 082346 011910Z AUTO 04017G23KT 28/23 A2989 RMK A02 SLP122 T02770230 PA029 DA1875=
0140008411999992016010119224+08200+134600FM-15+000099999V0200501N008819999999N999999999+02781+02291101221ADDMA1101221999999OC101131REMMET105MOBOB2 METAR XM20 //000 082346 011922Z AUTO 05017G22KT 28/23 A2989 RMK A02 SLP122 T02780229 PA029 DA1883=
0140008411999992016010119344+08200+134600FM-15+000099999V0200401N009319999999N999999999+02761+02251101261ADDMA1101251999999OC101131REMMET105MOBOB2 METAR XM20 //000 082346 011934Z AUTO 04018G22KT 28/23 A2990 RMK A02 SLP126 T02760225 PA020 DA1842=
0140008411999992016010119454+08200+134600FM-15+000099999V0200501N009319999999N999999999+02751+02201101261ADDMA1101251999999OC101181REMMET105MOBOB2 METAR XM20 //000 082346 011945Z AUTO 05018G23KT 28/22 A2990 RMK A02 SLP126 T02750220 PA020 DA1819=
0140008411999992016010119574+08200+134600FM-15+000099999V0200401N008819999999N999999999+02781+02271101291ADDMA1101291999999OC101131REMMET105MOBOB2 METAR XM20 //000 082346 011957Z AUTO 04017G22KT 28/23 A2991 RMK A02 SLP129 T02780227 PA010 DA1856=
0140008411999992016010120094+08200+134600FM-15+000099999V0200501N008219999999N999999999+02761+02261101291ADDMA1101291999999OC101081REMMET105MOBOB2 METAR XM20 //000 082346 012009Z AUTO 05016G21KT 28/23 A2991 RMK A02 SLP129 T02760226 PA010 DA1832=
0140008411999992016010120214+08200+134600FM-15+000099999V0200401N008819999999N999999999+02751+02211101291ADDMA1101291999999OC101081REMMET105MOBOB2 METAR XM20 //000 082346 012021Z AUTO 04017G21KT 28/22 A2991 RMK A02 SLP129 T02750221 PA010 DA1810=
0140008411999992016010120334+08200+134600FM-15+000099999V0200501N008819999999N999999999+02771+02221101291ADDMA1101291999999OC101081REMMET105MOBOB2 METAR XM20 //000 082346 012033Z AUTO 05017G21KT 28/22 A2991 RMK A02 SLP129 T02770222 PA010 DA1834=
0140008411999992016010120454+08200+134600FM-15+000099999V0200501N008819999999N999999999+02771+02251101291ADDMA1101291999999OC101131REMMET105MOBOB2 METAR XM20 //000 082346 012045Z AUTO 05017G22KT 28/23 A2991 RMK A02 SLP129 T02770225 PA010 DA1842=
0140008411999992016010120564+08200+134600FM-15+000099999V0200501N008819999999N999999999+02781+02281101331ADDMA1101321999999OC101131REMMET105MOBOB2 METAR XM20 //000 082346 012056Z AUTO 05017G22KT 28/23 A2992 RMK A02 SLP133 T02780228 PA001 DA1846=
0140008411999992016010121084+08200+134600FM-15+000099999V0200401N008819999999N999999999+02771+02271101331ADDMA1101321999999OC101081REMMET105MOBOB2 METAR XM20 //000 082346 012108Z AUTO 04017G21KT 28/23 A2992 RMK A02 SLP133 T02770227 PA001 DA1835=
0140008411999992016010121204+08200+134600FM-15+000099999V0200501N008219999999N999999999+02771+02271101361ADDMA1101351999999OC101081REMMET105MOBOB2 METAR XM20 //000 082346 012120Z AUTO 05016G21KT 28/23 A2993 RMK A02 SLP136 T02770227 PA-08 DA1821=
0140008411999992016010121324+08200+134600FM-15+000099999V0200501N008219999999N999999999+02771+02271101361ADDMA1101351999999OC101031REMMET105MOBOB2 METAR XM20 //000 082346 012132Z AUTO 05016G20KT 28/23 A2993 RMK A02 SLP136 T02770227 PA-08 DA1822=
0140008411999992016010121444+08200+134600FM-15+000099999V0200601N007719999999N999999999+02771+02261101391ADDMA1101391999999OC100981REMMET105MOBOB2 METAR XM20 //000 082346 012144Z AUTO 06015G19KT 28/23 A2994 RMK A02 SLP139 T02770226 PA-17 DA1809=
0140008411999992016010121554+08200+134600FM-15+000099999V0200501N007719999999N999999999+02781+02291101391ADDMA1101391999999OC101031REMMET105MOBOB2 METAR XM20 //000 082346 012155Z AUTO 05015G20KT 28/23 A2994 RMK A02 SLP139 T02780229 PA-17 DA1826=
0140008411999992016010122074+08200+134600FM-15+000099999V0200501N008819999999N999999999+02791+02271101431ADDMA1101421999999OC101031REMMET105MOBOB2 METAR XM20 //000 082346 012207Z AUTO 05017G20KT 28/23 A2995 RMK A02 SLP143 T02790227 PA-27 DA1823=
0140008411999992016010122194+08200+134600FM-15+000099999V0200601N008819999999N999999999+02811+02241101431ADDMA1101421999999OC101081REMMET105MOBOB2 METAR XM20 //000 082346 012219Z AUTO 06017G21KT 28/22 A2995 RMK A02 SLP143 T02810224 PA-27 DA1838=
0140008411999992016010122314+08200+134600FM-15+000099999V0200601N008819999999N999999999+02801+02281101461ADDMA1101461999999OC101081REMMET105MOBOB2 METAR XM20 //000 082346 012231Z AUTO 06017G21KT 28/23 A2996 RMK A02 SLP146 T02800228 PA-36 DA1823=
0140008411999992016010122424+08200+134600FM-15+000099999V0200601N008819999999N999999999+02801+02271101461ADDMA1101461999999OC101031REMMET105MOBOB2 METAR XM20 //000 082346 012242Z AUTO 06017G20KT 28/23 A2996 RMK A02 SLP146 T02800227 PA-36 DA1822=
0140008411999992016010122544+08200+134600FM-15+000099999V0200601N008219999999N999999999+02821+02321101461ADDMA1101461999999OC101031REMMET105MOBOB2 METAR XM20 //000 082346 012254Z AUTO 06016G20KT 28/23 A2996 RMK A02 SLP146 T02820232 PA-36 DA1854=
0140008411999992016010123064+08200+134600FM-15+000099999V0200601N007719999999N999999999+02821+02331101501ADDMA1101491999999OC100981REMMET105MOBOB2 METAR XM20 //000 082346 012306Z AUTO 06015G19KT 28/23 A2997 RMK A02 SLP150 T02820233 PA-45 DA1846=
0140008411999992016010123184+08200+134600FM-15+000099999V0200601N007719999999N999999999+02811+02321101501ADDMA1101491999999OC100931REMMET105MOBOB2 METAR XM20 //000 082346 012318Z AUTO 06015G18KT 28/23 A2997 RMK A02 SLP150 T02810232 PA-45 DA1832=
0140008411999992016010123304+08200+134600FM-15+000099999V0200501N007219999999N999999999+02831+02341101501ADDMA1101491999999OC100931REMMET105MOBOB2 METAR XM20 //000 082346 012330Z AUTO 05014G18KT 28/23 A2997 RMK A02 SLP150 T02830234 PA-45 DA1858=
0140008411999992016010123424+08200+134600FM-15+000099999V0200601N007219999999N999999999+02811+02321101501ADDMA1101491999999OC100881REMMET105MOBOB2 METAR XM20 //000 082346 012342Z AUTO 06014G17KT 28/23 A2997 RMK A02 SLP150 T02810232 PA-45 DA1833=
0140008411999992016010123544+08200+134600FM-15+000099999V0200601N007219999999N999999999+02831+02311101501ADDMA1101491999999OC100881REMMET105MOBOB2 METAR XM20 //000 082346 012354Z AUTO 06014G17KT 28/23 A2997 RMK A02 SLP150 T02830231 PA-45 DA1853=
0140008411999992016010200054+08200+134600FM-15+000099999V0200601N007219999999N999999999+02831+02311101461ADDMA1101461999999OC100981REMMET105MOBOB2 METAR XM20 //000 082346 020005Z AUTO 06014G19KT 28/23 A2996 RMK A02 SLP146 T02830231 PA-36 DA1863=
0140008411999992016010200174+08200+134600FM-15+000099999V0200601N007719999999N999999999+02821+02301101461ADDMA1101461999999OC100981REMMET105MOBOB2 METAR XM20 //000 082346 020017Z AUTO 06015G19KT 28/23 A2996 RMK A02 SLP146 T02820230 PA-36 DA1851=
0140008411999992016010200294+08200+134600FM-15+000099999V0200501N007719999999N999999999+02831+02301101461ADDMA1101461999999OC100931REMMET105MOBOB2 METAR XM20 //000 082346 020029Z AUTO 05015G18KT 28/23 A2996 RMK A02 SLP146 T02830230 PA-36 DA1862=
0140008411999992016010200414+08200+134600FM-15+000099999V0200501N007719999999N999999999+02851+02341101461ADDMA1101461999999OC101031REMMET105MOBOB2 METAR XM20 //000 082346 020041Z AUTO 05015G20KT 29/23 A2996 RMK A02 SLP146 T02850234 PA-36 DA1893=
0140008411999992016010200524+08200+134600FM-15+000099999V0200501N008219999999N999999999+02821+02281101431ADDMA1101421999999OC101031REMMET105MOBOB2 METAR XM20 //000 082346 020052Z AUTO 05016G20KT 28/23 A2995 RMK A02 SLP143 T02820228 PA-27 DA1858=
0140008411999992016010201044+08200+134600FM-15+000099999V0200501N007719999999N999999999+02831+02341101431ADDMA1101421999999OC100981REMMET105MOBOB2 METAR XM20 //000 082346 020104Z AUTO 05015G19KT 28/23 A2995 RMK A02 SLP143 T02830234 PA-27 DA1881=
0140008411999992016010201164+08200+134600FM-15+000099999V0200501N007719999999N999999999+02841+02351101431ADDMA1101421999999OC100981REMMET105MOBOB2 METAR XM20 //000 082346 020116Z AUTO 05015G19KT 28/23 A2995 RMK A02 SLP143 T02840235 PA-27 DA1894=
0140008411999992016010201274+08200+134600FM-15+000099999V0200501N007719999999N999999999+02831+02311101391ADDMA1101391999999OC100981REMMET105MOBOB2 METAR XM20 //000 082346 020127Z AUTO 05015G19KT 28/23 A2994 RMK A02 SLP139 T02830231 PA-17 DA1888=
0140008411999992016010201394+08200+134600FM-15+000099999V0200501N007719999999N999999999+02841+02321101391ADDMA1101391999999OC100981REMMET105MOBOB2 METAR XM20 //000 082346 020139Z AUTO 05015G19KT 28/23 A2994 RMK A02 SLP139 T02840232 PA-17 DA1899=
0140008411999992016010201514+08200+134600FM-15+000099999V0200501N008219999999N999999999+02841+02311101391ADDMA1101391999999OC101031REMMET105MOBOB2 METAR XM20 //000 082346 020151Z AUTO 05016G20KT 28/23 A2994 RMK A02 SLP139 T02840231 PA-17 DA1897=
0140008411999992016010202034+08200+134600FM-15+000099999V0200501N008219999999N999999999+02841+02291101361ADDMA1101351999999OC101031REMMET105MOBOB2 METAR XM20 //000 082346 020203Z AUTO 05016G20KT 28/23 A2993 RMK A02 SLP136 T02840229 PA-08 DA1905=
0140008411999992016010202154+08200+134600FM-15+000099999V0200501N008219999999N999999999+02841+02351101361ADDMA1101351999999OC101031REMMET105MOBOB2 METAR XM20 //000 082346 020215Z AUTO 05016G20KT 28/23 A2993 RMK A02 SLP136 T02840235 PA-08 DA1918=
0140008411999992016010202274+08200+134600FM-15+000099999V0200501N008219999999N999999999+02831+02291101331ADDMA1101321999999OC101031REMMET105MOBOB2 METAR XM20 //000 082346 020227Z AUTO 05016G20KT 28/23 A2992 RMK A02 SLP133 T02830229 PA001 DA1904=
0140008411999992016010202394+08200+134600FM-15+000099999V0200501N008819999999N999999999+02821+02281101331ADDMA1101321999999OC101031REMMET105MOBOB2 METAR XM20 //000 082346 020239Z AUTO 05017G20KT 28/23 A2992 RMK A02 SLP133 T02820228 PA001 DA1892=
0140008411999992016010202514+08200+134600FM-15+000099999V0200501N008219999999N999999999+02841+02311101291ADDMA1101291999999OC100981REMMET105MOBOB2 METAR XM20 //000 082346 020251Z AUTO 05016G19KT 28/23 A2991 RMK A02 SLP129 T02840231 PA010 DA1932=
0140008411999992016010203034+08200+134600FM-15+000099999V0200601N008219999999N999999999+02851+02321101291ADDMA1101291999999OC100981REMMET105MOBOB2 METAR XM20 //000 082346 020303Z AUTO 06016G19KT 29/23 A2991 RMK A02 SLP129 T02850232 PA010 DA1945=
0140008411999992016010203144+08200+134600FM-15+000099999V0200501N008219999999N999999999+02831+02301101261ADDMA1101251999999OC101031REMMET105MOBOB2 METAR XM20 //000 082346 020314Z AUTO 05016G20KT 28/23 A2990 RMK A02 SLP126 T02830230 PA020 DA1929=
0140008411999992016010203264+08200+134600FM-15+000099999V0200501N008219999999N999999999+02841+02351101221ADDMA1101221999999OC101031REMMET105MOBOB2 METAR XM20 //000 082346 020326Z AUTO 05016G20KT 28/23 A2989 RMK A02 SLP122 T02840235 PA029 DA1963=
0140008411999992016010203384+08200+134600FM-15+000099999V0200501N008219999999N999999999+02831+02351101221ADDMA1101221999999OC100981REMMET105MOBOB2 METAR XM20 //000 082346 020338Z AUTO 05016G19KT 28/24 A2989 RMK A02 SLP122 T02830235 PA029 DA1953=
0140008411999992016010203504+08200+134600FM-15+000099999V0200501N008819999999N999999999+02831+02351101221ADDMA1101221999999OC101031REMMET105MOBOB2 METAR XM20 //000 082346 020350Z AUTO 05017G20KT 28/23 A2989 RMK A02 SLP122 T02830235 PA029 DA1952=
0140008411999992016010204014+08200+134600FM-15+000099999V0200501N008219999999N999999999+02861+02391101191ADDMA1101181999999OC101081REMMET105MOBOB2 METAR XM20 //000 082346 020401Z AUTO 05016G21KT 29/24 A2988 RMK A02 SLP119 T02860239 PA038 DA2006=
0140008411999992016010204134+08200+134600FM-15+000099999V0200501N009319999999N999999999+02831+02321101161ADDMA1101151999999OC101081REMMET105MOBOB2 METAR XM20 //000 082346 020413Z AUTO 05018G21KT 28/23 A2987 RMK A02 SLP116 T02830232 PA047 DA1969=
0140008411999992016010204254+08200+134600FM-15+000099999V0200501N008819999999N999999999+02861+02391101121ADDMA1101121999999OC101131REMMET105MOBOB2 METAR XM20 //000 082346 020425Z AUTO 05017G22KT 29/24 A2986 RMK A02 SLP112 T02860239 PA057 DA2028=
0140008411999992016010204374+08200+134600FM-15+000099999V0200501N008819999999N999999999+02841+02361101121ADDMA1101121999999OC101081REMMET105MOBOB2 METAR XM20 //000 082346 020437Z AUTO 05017G21KT 28/24 A2986 RMK A02 SLP112 T02840236 PA057 DA1999=
0140008411999992016010204494+08200+134600FM-15+000099999V0200501N009319999999N999999999+02851+02361101121ADDMA1101121999999OC101241REMMET105MOBOB2 METAR XM20 //000 082346 020449Z AUTO 05018G24KT 29/24 A2986 RMK A02 SLP112 T02850236 PA057 DA2011=
0140008411999992016010205004+08200+134600FM-15+000099999V0200601N008819999999N999999999+02851+02341101091ADDMA1101081999999OC101081REMMET105MOBOB2 METAR XM20 //000 082346 020500Z AUTO 06017G21KT 29/23 A2985 RMK A02 SLP109 T02850234 PA066 DA2018=
0140008411999992016010205124+08200+134600FM-15+000099999V0200501N008219999999N999999999+02851+02391101091ADDMA1101081999999OC101081REMMET105MOBOB2 METAR XM20 //000 082346 020512Z AUTO 05016G21KT 29/24 A2985 RMK A02 SLP109 T02850239 PA066 DA2029=
0140008411999992016010205244+08200+134600FM-15+000099999V0200501N008219999999N999999999+02841+02401101091ADDMA1101081999999OC101031REMMET105MOBOB2 METAR XM20 //000 082346 020524Z AUTO 05016G20KT 28/24 A2985 RMK A02 SLP109 T02840240 PA066 DA2020=
0140008411999992016010205364+08200+134600FM-15+000099999V0200501N009319999999N999999999+02831+02311101061ADDMA1101051999999OC101181REMMET105MOBOB2 METAR XM20 //000 082346 020536Z AUTO 05018G23KT 28/23 A2984 RMK A02 SLP106 T02830231 PA075 DA2000=
0140008411999992016010205484+08200+134600FM-15+000099999V0200501N008819999999N999999999+02841+02341101061ADDMA1101051999999OC101181REMMET105MOBOB2 METAR XM20 //000 082346 020548Z AUTO 05017G23KT 28/23 A2984 RMK A02 SLP106 T02840234 PA075 DA2018=
0140008411999992016010205594+08200+134600FM-15+000099999V0200501N008819999999N999999999+02831+02351101061ADDMA1101051999999OC101031REMMET105MOBOB2 METAR XM20 //000 082346 020559Z AUTO 05017G20KT 28/24 A2984 RMK A02 SLP106 T02830235 PA075 DA2010=
0140008411999992016010206114+08200+134600FM-15+000099999V0200501N008219999999N999999999+02831+02361101061ADDMA1101051999999OC101081REMMET105MOBOB2 METAR XM20 //000 082346 020611Z AUTO 05016G21KT 28/24 A2984 RMK A02 SLP106 T02830236 PA075 DA2012=
0140008411999992016010206234+08200+134600FM-15+000099999V0200501N008219999999N999999999+02831+02391101061ADDMA1101051999999OC100981REMMET105MOBOB2 METAR XM20 //000 082346 020623Z AUTO 05016G19KT 28/24 A2984 RMK A02 SLP106 T02830239 PA075 DA2018=
0140008411999992016010206354+08200+134600FM-15+000099999V0200501N008819999999N999999999+02831+02371101061ADDMA1101051999999OC101081REMMET105MOBOB2 METAR XM20 //000 082346 020635Z AUTO 05017G21KT 28/24 A2984 RMK A02 SLP106 T02830237 PA075 DA2014=
0140008411999992016010206474+08200+134600FM-15+000099999V0200401N008819999999N999999999+02841+02381101091ADDMA1101081999999OC101131REMMET105MOBOB2 METAR XM20 //000 082346 020647Z AUTO 04017G22KT 28/24 A2985 RMK A02 SLP109 T02840238 PA066 DA2017=
0140008411999992016010206584+08200+134600FM-15+000099999V0200401N008819999999N999999999+02821+02321101061ADDMA1101051999999OC101181REMMET105MOBOB2 METAR XM20 //000 082346 020658Z AUTO 04017G23KT 28/23 A2984 RMK A02 SLP106 T02820232 PA075 DA1992=
0140008411999992016010207104+08200+134600FM-15+000099999V0200501N008819999999N999999999+02851+02351101091ADDMA1101081999999OC101131REMMET105MOBOB2 METAR XM20 //000 082346 020710Z AUTO 05017G22KT 29/24 A2985 RMK A02 SLP109 T02850235 PA066 DA2021=
0140008411999992016010207224+08200+134600FM-15+000099999V0200401N009319999999N999999999+02831+02351101091ADDMA1101081999999OC101081REMMET105MOBOB2 METAR XM20 //000 082346 020722Z AUTO 04018G21KT 28/24 A2985 RMK A02 SLP109 T02830235 PA066 DA1998=
0140008411999992016010207344+08200+134600FM-15+000099999V0200401N008219999999N999999999+02841+02361101091ADDMA1101081999999OC101081REMMET105MOBOB2 METAR XM20 //000 082346 020734Z AUTO 04016G21KT 28/24 A2985 RMK A02 SLP109 T02840236 PA066 DA2012=
0140008411999992016010207454+08200+134600FM-15+000099999V0200401N008819999999N999999999+02821+02381101091ADDMA1101081999999OC101181REMMET105MOBOB2 METAR XM20 //000 082346 020745Z AUTO 04017G23KT 28/24 A2985 RMK A02 SLP109 T02820238 PA066 DA1993=
0140008411999992016010207574+08200+134600FM-15+000099999V0200401N009319999999N999999999+02801+02351101091ADDMA1101081999999OC101181REMMET105MOBOB2 METAR XM20 //000 082346 020757Z AUTO 04018G23KT 28/23 A2985 RMK A02 SLP109 T02800235 PA066 DA1963=
0140008411999992016010208094+08200+134600FM-15+000099999V0200401N009319999999N999999999+02801+02331101091ADDMA1101081999999OC101131REMMET105MOBOB2 METAR XM20 //000 082346 020809Z AUTO 04018G22KT 28/23 A2985 RMK A02 SLP109 T02800233 PA066 DA1960=
0140008411999992016010208214+08200+134600FM-15+000099999V0200401N009819999999N999999999+02811+02371101091ADDMA1101081999999OC101241REMMET105MOBOB2 METAR XM20 //000 082346 020821Z AUTO 04019G24KT 28/24 A2985 RMK A02 SLP109 T02810237 PA066 DA1980=
0140008411999992016010208334+08200+134600FM-15+000099999V0200501N008819999999N999999999+02821+02421101121ADDMA1101121999999OC101181REMMET105MOBOB2 METAR XM20 //000 082346 020833Z AUTO 05017G23KT 28/24 A2986 RMK A02 SLP112 T02820242 PA057 DA1992=
0140008411999992016010208454+08200+134600FM-15+000099999V0200501N010319999999N999999999+02761+02381101121ADDMA1101121999999OC101441REMMET105MOBOB2 METAR XM20 //000 082346 020845Z AUTO 05020G28KT 28/24 A2986 RMK A02 SLP112 T02760238 PA057 DA1915=
0140008411999992016010208574+08200+134600FM-15+000099999V0200401N009819999999N999999999+02721+02391101121ADDMA1101121999999OC101291REMMET105MOBOB2 METAR XM20 //000 082346 020857Z AUTO 04019G25KT 27/24 A2986 RMK A02 SLP112 T02720239 PA057 DA1872=
0140008411999992016010209084+08200+134600FM-15+000099999V0200401N009319999999N999999999+02691+02371101161ADDMA1101151999999OC101241REMMET105MOBOB2 METAR XM20 //000 082346 020908Z AUTO 04018G24KT 27/24 A2987 RMK A02 SLP116 T02690237 PA047 DA1823=
0140008411999992016010209204+08200+134600FM-15+000099999V0200401N008819999999N999999999+02711+02371101191ADDMA1101181999999OC101131REMMET105MOBOB2 METAR XM20 //000 082346 020920Z AUTO 04017G22KT 27/24 A2988 RMK A02 SLP119 T02710237 PA038 DA1834=
0140008411999992016010209324+08200+134600FM-15+000099999V0200401N007719999999N999999999+02741+02391101191ADDMA1101181999999OC100981REMMET105MOBOB2 METAR XM20 //000 082346 020932Z AUTO 04015G19KT 27/24 A2988 RMK A02 SLP119 T02740239 PA038 DA1871=
0140008411999992016010209444+08200+134600FM-15+000099999V0200401N007719999999N999999999+02741+02361101221ADDMA1101221999999OC100981REMMET105MOBOB2 METAR XM20 //000 082346 020944Z AUTO 04015G19KT 27/24 A2989 RMK A02 SLP122 T02740236 PA029 DA1855=
0140008411999992016010209564+08200+134600FM-15+000099999V0200401N008219999999N999999999+02741+02361101221ADDMA1101221999999OC101081REMMET105MOBOB2 METAR XM20 //000 082346 020956Z AUTO 04016G21KT 27/24 A2989 RMK A02 SLP122 T02740236 PA029 DA1855=
0140008411999992016010210074+08200+134600FM-15+000099999V0200501N008819999999N999999999+02761+02411101221ADDMA1101221999999OC101081REMMET105MOBOB2 METAR XM20 //000 082346 021007Z AUTO 05017G21KT 28/24 A2989 RMK A02 SLP122 T02760241 PA029 DA1887=
0140008411999992016010210194+08200+134600FM-15+000099999V0200501N008819999999N999999999+02771+02401101221ADDMA1101221999999OC101081REMMET105MOBOB2 METAR XM20 //000 082346 021019Z AUTO 05017G21KT 28/24 A2989 RMK A02 SLP122 T02770240 PA029 DA1896=
0140008411999992016010210314+08200+134600FM-15+000099999V0200401N008219999999N999999999+02761+02411101261ADDMA1101251999999OC101031REMMET105MOBOB2 METAR XM20 //000 082346 021031Z AUTO 04016G20KT 28/24 A2990 RMK A02 SLP126 T02760241 PA020 DA1876=
0140008411999992016010210434+08200+134600FM-15+000099999V0200501N008819999999N999999999+02771+02361101261ADDMA1101251999999OC101081REMMET105MOBOB2 METAR XM20 //000 082346 021043Z AUTO 05017G21KT 28/24 A2990 RMK A02 SLP126 T02770236 PA020 DA1877=
0140008411999992016010210554+08200+134600FM-15+000099999V0200501N008819999999N999999999+02771+02391101261ADDMA1101251999999OC101081REMMET105MOBOB2 METAR XM20 //000 082346 021055Z AUTO 05017G21KT 28/24 A2990 RMK A02 SLP126 T02770239 PA020 DA1882=
0167008411999992016010211064+08200+134600FM-15+000099999V0200501N008219999999N999999999+02771+02391101291ADDAA101000021AW1611MA1101291999999OC101081REMMET115MOBOB2 METAR XM20 //000 082346 021106Z AUTO 05016G21KT -RA 28/24 A2991 RMK A02 SLP129 P0000 T02770239 PA010 DA1872=
0140008411999992016010211184+08200+134600FM-15+000099999V0200501N008819999999N999999999+02761+02351101291ADDMA1101291999999OC101081REMMET105MOBOB2 METAR XM20 //000 082346 021118Z AUTO 05017G21KT 28/24 A2991 RMK A02 SLP129 T02760235 PA010 DA1852=
0140008411999992016010211304+08200+134600FM-15+000099999V0200501N007719999999N999999999+02781+02421101291ADDMA1101291999999OC100981REMMET105MOBOB2 METAR XM20 //000 082346 021130Z AUTO 05015G19KT 28/24 A2991 RMK A02 SLP129 T02780242 PA010 DA1890=
0140008411999992016010211424+08200+134600FM-15+000099999V0200501N008219999999N999999999+02791+02411101291ADDMA1101291999999OC100981REMMET105MOBOB2 METAR XM20 //000 082346 021142Z AUTO 05016G19KT 28/24 A2991 RMK A02 SLP129 T02790241 PA010 DA1899=
0140008411999992016010211534+08200+134600FM-15+000099999V0200401N008819999999N999999999+02771+02391101291ADDMA1101291999999OC101131REMMET105MOBOB2 METAR XM20 //000 082346 021153Z AUTO 04017G22KT 28/24 A2991 RMK A02 SLP129 T02770239 PA010 DA1871=
0140008411999992016010212054+08200+134600FM-15+000099999V0200401N008219999999N999999999+02761+02381101291ADDMA1101291999999OC101131REMMET105MOBOB2 METAR XM20 //000 082346 021205Z AUTO 04016G22KT 28/24 A2991 RMK A02 SLP129 T02760238 PA010 DA1857=
0140008411999992016010212174+08200+134600FM-15+000099999V0200401N007219999999N999999999+02781+02441101331ADDMA1101321999999OC100981REMMET105MOBOB2 METAR XM20 //000 082346 021217Z AUTO 04014G19KT 28/24 A2992 RMK A02 SLP133 T02780244 PA001 DA1882=
0140008411999992016010212294+08200+134600FM-15+000099999V0200501N008219999999N999999999+02751+02391101331ADDMA1101321999999OC101031REMMET105MOBOB2 METAR XM20 //000 082346 021229Z AUTO 05016G20KT 28/24 A2992 RMK A02 SLP133 T02750239 PA001 DA1837=
0140008411999992016010212414+08200+134600FM-15+000099999V0200501N007719999999N999999999+02761+02421101331ADDMA1101321999999OC100981REMMET105MOBOB2 METAR XM20 //000 082346 021241Z AUTO 05015G19KT 28/24 A2992 RMK A02 SLP133 T02760242 PA001 DA1856=
0140008411999992016010212534+08200+134600FM-15+000099999V0200501N008219999999N999999999+02771+02411101291ADDMA1101291999999OC101031REMMET105MOBOB2 METAR XM20 //000 082346 021253Z AUTO 05016G20KT 28/24 A2991 RMK A02 SLP129 T02770241 PA010 DA1875=
0140008411999992016010213054+08200+134600FM-15+000099999V0200501N008819999999N999999999+02771+02381101291ADDMA1101291999999OC101131REMMET105MOBOB2 METAR XM20 //000 082346 021305Z AUTO 05017G22KT 28/24 A2991 RMK A02 SLP129 T02770238 PA010 DA1869=
0140008411999992016010213164+08200+134600FM-15+000099999V0200501N008819999999N999999999+02771+02371101291ADDMA1101291999999OC101131REMMET105MOBOB2 METAR XM20 //000 082346 021316Z AUTO 05017G22KT 28/24 A2991 RMK A02 SLP129 T02770237 PA010 DA1867=
0140008411999992016010213284+08200+134600FM-15+000099999V0200501N008819999999N999999999+02781+02391101291ADDMA1101291999999OC101081REMMET105MOBOB2 METAR XM20 //000 082346 021328Z AUTO 05017G21KT 28/24 A2991 RMK A02 SLP129 T02780239 PA010 DA1883=
0140008411999992016010213404+08200+134600FM-15+000099999V0200501N008819999999N999999999+02771+02361101291ADDMA1101291999999OC101081REMMET105MOBOB2 METAR XM20 //000 082346 021340Z AUTO 05017G21KT 28/24 A2991 RMK A02 SLP129 T02770236 PA010 DA1864=
0140008411999992016010213524+08200+134600FM-15+000099999V0200501N007719999999N999999999+02781+02401101291ADDMA1101291999999OC101031REMMET105MOBOB2 METAR XM20 //000 082346 021352Z AUTO 05015G20KT 28/24 A2991 RMK A02 SLP129 T02780240 PA010 DA1885=
0140008411999992016010214044+08200+134600FM-15+000099999V0200501N007719999999N999999999+02791+02401101291ADDMA1101291999999OC100981REMMET105MOBOB2 METAR XM20 //000 082346 021404Z AUTO 05015G19KT 28/24 A2991 RMK A02 SLP129 T02790240 PA010 DA1896=
0140008411999992016010214164+08200+134600FM-15+000099999V0200601N008219999999N999999999+02781+02381101291ADDMA1101291999999OC101031REMMET105MOBOB2 METAR XM20 //000 082346 021416Z AUTO 06016G20KT 28/24 A2991 RMK A02 SLP129 T02780238 PA010 DA1880=
0140008411999992016010214274+08200+134600FM-15+000099999V0200501N007719999999N999999999+02781+02371101291ADDMA1101291999999OC100981REMMET105MOBOB2 METAR XM20 //000 082346 021427Z AUTO 05015G19KT 28/24 A2991 RMK A02 SLP129 T02780237 PA010 DA1879=
0140008411999992016010214394+08200+134600FM-15+000099999V0200501N007219999999N999999999+02781+02371101291ADDMA1101291999999OC100931REMMET105MOBOB2 METAR XM20 //000 082346 021439Z AUTO 05014G18KT 28/24 A2991 RMK A02 SLP129 T02780237 PA010 DA1878=
0140008411999992016010214514+08200+134600FM-15+000099999V0200601N007219999999N999999999+02781+02381101291ADDMA1101291999999OC100981REMMET105MOBOB2 METAR XM20 //000 082346 021451Z AUTO 06014G19KT 28/24 A2991 RMK A02 SLP129 T02780238 PA010 DA1880=
0140008411999992016010215034+08200+134600FM-15+000099999V0200601N007719999999N999999999+02781+02361101291ADDMA1101291999999OC100931REMMET105MOBOB2 METAR XM20 //000 082346 021503Z AUTO 06015G18KT 28/24 A2991 RMK A02 SLP129 T02780236 PA010 DA1876=
0140008411999992016010215154+08200+134600FM-15+000099999V0200601N007219999999N999999999+02801+02401101291ADDMA1101291999999OC100881REMMET105MOBOB2 METAR XM20 //000 082346 021515Z AUTO 06014G17KT 28/24 A2991 RMK A02 SLP129 T02800240 PA010 DA1907=
0140008411999992016010215274+08200+134600FM-15+000099999V0200601N007719999999N999999999+02771+02361101261ADDMA1101251999999OC100931REMMET105MOBOB2 METAR XM20 //000 082346 021527Z AUTO 06015G18KT 28/24 A2990 RMK A02 SLP126 T02770236 PA020 DA1876=
0140008411999992016010215384+08200+134600FM-15+000099999V0200501N007219999999N999999999+02781+02401101261ADDMA1101251999999OC100931REMMET105MOBOB2 METAR XM20 //000 082346 021538Z AUTO 05014G18KT 28/24 A2990 RMK A02 SLP126 T02780240 PA020 DA1896=
0140008411999992016010215504+08200+134600FM-15+000099999V0200501N007719999999N999999999+02761+02331101221ADDMA1101221999999OC100931REMMET105MOBOB2 METAR XM20 //000 082346 021550Z AUTO 05015G18KT 28/23 A2989 RMK A02 SLP122 T02760233 PA029 DA1871=
0140008411999992016010216024+08200+134600FM-15+000099999V0200601N007719999999N999999999+02771+02331101221ADDMA1101221999999OC100981REMMET105MOBOB2 METAR XM20 //000 082346 021602Z AUTO 06015G19KT 28/23 A2989 RMK A02 SLP122 T02770233 PA029 DA1881=
0140008411999992016010216144+08200+134600FM-15+000099999V0200501N007719999999N999999999+02781+02371101221ADDMA1101221999999OC100981REMMET105MOBOB2 METAR XM20 //000 082346 021614Z AUTO 05015G19KT 28/24 A2989 RMK A02 SLP122 T02780237 PA029 DA1902=
0140008411999992016010216264+08200+134600FM-15+000099999V0200601N007219999999N999999999+02791+02401101191ADDMA1101181999999OC100981REMMET105MOBOB2 METAR XM20 //000 082346 021626Z AUTO 06014G19KT 28/24 A2988 RMK A02 SLP119 T02790240 PA038 DA1931=
0140008411999992016010216374+08200+134600FM-15+000099999V0200601N008219999999N999999999+02771+02371101191ADDMA1101181999999OC100981REMMET105MOBOB2 METAR XM20 //000 082346 021637Z AUTO 06016G19KT 28/24 A2988 RMK A02 SLP119 T02770237 PA038 DA1901=
0140008411999992016010216494+08200+134600FM-15+000099999V0200501N007719999999N999999999+02781+02391101161ADDMA1101151999999OC101031REMMET105MOBOB2 METAR XM20 //000 082346 021649Z AUTO 05015G20KT 28/24 A2987 RMK A02 SLP116 T02780239 PA047 DA1928=
0140008411999992016010217014+08200+134600FM-15+000099999V0200501N007219999999N999999999+02771+02411101161ADDMA1101151999999OC100931REMMET105MOBOB2 METAR XM20 //000 082346 021701Z AUTO 05014G18KT 28/24 A2987 RMK A02 SLP116 T02770241 PA047 DA1921=
0140008411999992016010217134+08200+134600FM-15+000099999V0200501N007719999999N999999999+02771+02391101161ADDMA1101151999999OC100981REMMET105MOBOB2 METAR XM20 //000 082346 021713Z AUTO 05015G19KT 28/24 A2987 RMK A02 SLP116 T02770239 PA047 DA1917=
0140008411999992016010217244+08200+134600FM-15+000099999V0200501N007719999999N999999999+02781+02411101121ADDMA1101121999999OC100981REMMET105MOBOB2 METAR XM20 //000 082346 021724Z AUTO 05015G19KT 28/24 A2986 RMK A02 SLP112 T02780241 PA057 DA1943=
0140008411999992016010217364+08200+134600FM-15+000099999V0200601N007719999999N999999999+02771+02381101121ADDMA1101121999999OC101031REMMET105MOBOB2 METAR XM20 //000 082346 021736Z AUTO 06015G20KT 28/24 A2986 RMK A02 SLP112 T02770238 PA057 DA1926=
0140008411999992016010217484+08200+134600FM-15+000099999V0200601N007719999999N999999999+02761+02331101121ADDMA1101121999999OC100981REMMET105MOBOB2 METAR XM20 //000 082346 021748Z AUTO 06015G19KT 28/23 A2986 RMK A02 SLP112 T02760233 PA057 DA1903=
0140008411999992016010218004+08200+134600FM-15+000099999V0200601N008219999999N999999999+02761+02351101121ADDMA1101121999999OC100981REMMET105MOBOB2 METAR XM20 //000 082346 021800Z AUTO 06016G19KT 28/24 A2986 RMK A02 SLP112 T02760235 PA057 DA1909=
0140008411999992016010218124+08200+134600FM-15+000099999V0200601N008219999999N999999999+02761+02351101121ADDMA1101121999999OC100981REMMET105MOBOB2 METAR XM20 //000 082346 021812Z AUTO 06016G19KT 28/23 A2986 RMK A02 SLP112 T02760235 PA057 DA1907=
0167008411999992016010218244+08200+134600FM-15+000099999V0200801N009319999999N999999999+02641+02261101121ADDAA101000021AW1611MA1101121999999OC101241REMMET115MOBOB2 METAR XM20 //000 082346 021824Z AUTO 08018G24KT -RA 26/23 A2986 RMK A02 SLP112 P0000 T02640226 PA057 DA1753=
0140008411999992016010218374+08200+134600FM-15+000099999V0200701N007719999999N999999999+02691+02341101121ADDMA1101121999999OC101031REMMET105MOBOB2 METAR XM20 //000 082346 021837Z AUTO 07015G20KT 27/23 A2986 RMK A02 SLP112 T02690234 PA057 DA1827=
0140008411999992016010218484+08200+134600FM-15+000099999V0200801N007219999999N999999999+02701+02371101121ADDMA1101121999999OC100931REMMET105MOBOB2 METAR XM20 //000 082346 021848Z AUTO 08014G18KT 27/24 A2986 RMK A02 SLP112 T02700237 PA057 DA1846=
0140008411999992016010219004+08200+134600FM-15+000099999V0200801N007219999999N999999999+02691+02371101121ADDMA1101121999999OC100881REMMET105MOBOB2 METAR XM20 //000 082346 021900Z AUTO 08014G17KT 27/24 A2986 RMK A02 SLP112 T02690237 PA057 DA1834=
0140008411999992016010219124+08200+134600FM-15+000099999V0200701N006219999999N999999999+02701+02371101161ADDMA1101151999999OC100771REMMET105MOBOB2 METAR XM20 //000 082346 021912Z AUTO 07012G15KT 27/24 A2987 RMK A02 SLP116 T02700237 PA047 DA1834=
0140008411999992016010219244+08200+134600FM-15+000099999V0200601N006219999999N999999999+02731+02411101161ADDMA1101151999999OC100821REMMET105MOBOB2 METAR XM20 //000 082346 021924Z AUTO 06012G16KT 27/24 A2987 RMK A02 SLP116 T02730241 PA047 DA1876=
0140008411999992016010219364+08200+134600FM-15+000099999V0200501N006719999999N999999999+02721+02371101161ADDMA1101151999999OC100821REMMET105MOBOB2 METAR XM20 //000 082346 021936Z AUTO 05013G16KT 27/24 A2987 RMK A02 SLP116 T02720237 PA047 DA1857=
0140008411999992016010219474+08200+134600FM-15+000099999V0200601N005719999999N999999999+02731+02411101161ADDMA1101151999999OC100771REMMET105MOBOB2 METAR XM20 //000 082346 021947Z AUTO 06011G15KT 27/24 A2987 RMK A02 SLP116 T02730241 PA047 DA1876=
0140008411999992016010219594+08200+134600FM-15+000099999V0200601N007219999999N999999999+02721+02351101161ADDMA1101151999999OC100881REMMET105MOBOB2 METAR XM20 //000 082346 021959Z AUTO 06014G17KT 27/23 A2987 RMK A02 SLP116 T02720235 PA047 DA1852=
0140008411999992016010220114+08200+134600FM-15+000099999V0200601N006719999999N999999999+02741+02351101191ADDMA1101181999999OC100881REMMET105MOBOB2 METAR XM20 //000 082346 022011Z AUTO 06013G17KT 27/23 A2988 RMK A02 SLP119 T02740235 PA038 DA1862=
0140008411999992016010220234+08200+134600FM-15+000099999V0200601N007219999999N999999999+02741+02331101191ADDMA1101181999999OC100881REMMET105MOBOB2 METAR XM20 //000 082346 022023Z AUTO 06014G17KT 27/23 A2988 RMK A02 SLP119 T02740233 PA038 DA1859=
0140008411999992016010220344+08200+134600FM-15+000099999V0200601N007219999999N999999999+02751+02341101191ADDMA1101181999999OC100881REMMET105MOBOB2 METAR XM20 //000 082346 022034Z AUTO 06014G17KT 28/23 A2988 RMK A02 SLP119 T02750234 PA038 DA1871=
0140008411999992016010220464+08200+134600FM-15+000099999V0200601N006219999999N999999999+02771+02401101221ADDMA1101221999999OC100821REMMET105MOBOB2 METAR XM20 //000 082346 022046Z AUTO 06012G16KT 28/24 A2989 RMK A02 SLP122 T02770240 PA029 DA1895=
0140008411999992016010220584+08200+134600FM-15+000099999V0200701N006719999999N999999999+02751+02371101221ADDMA1101221999999OC100821REMMET105MOBOB2 METAR XM20 //000 082346 022058Z AUTO 07013G16KT 28/24 A2989 RMK A02 SLP122 T02750237 PA029 DA1866=
0140008411999992016010221104+08200+134600FM-15+000099999V0200701N007219999999N999999999+02741+02331101261ADDMA1101251999999OC100881REMMET105MOBOB2 METAR XM20 //000 082346 022110Z AUTO 07014G17KT 27/23 A2990 RMK A02 SLP126 T02740233 PA020 DA1836=
0140008411999992016010221224+08200+134600FM-15+000099999V0200601N007219999999N999999999+02751+02341101261ADDMA1101251999999OC100931REMMET105MOBOB2 METAR XM20 //000 082346 022122Z AUTO 06014G18KT 28/23 A2990 RMK A02 SLP126 T02750234 PA020 DA1849=
0140008411999992016010221344+08200+134600FM-15+000099999V0200601N007719999999N999999999+02761+02301101291ADDMA1101291999999OC100981REMMET105MOBOB2 METAR XM20 //000 082346 022134Z AUTO 06015G19KT 28/23 A2991 RMK A02 SLP129 T02760230 PA010 DA1839=
0140008411999992016010221464+08200+134600FM-15+000099999V0200601N007219999999N999999999+02771+02331101291ADDMA1101291999999OC100881REMMET105MOBOB2 METAR XM20 //000 082346 022146Z AUTO 06014G17KT 28/23 A2991 RMK A02 SLP129 T02770233 PA010 DA1859=
0140008411999992016010221584+08200+134600FM-15+000099999V0200601N007719999999N999999999+02791+02361101331ADDMA1101321999999OC100931REMMET105MOBOB2 METAR XM20 //000 082346 022158Z AUTO 06015G18KT 28/24 A2992 RMK A02 SLP133 T02790236 PA001 DA1876=
0166008411999992016010222104+08200+134600FM-15+000099999V0200601N008819999999N999999999+02651+02211101361ADDAA101000231AW1621MA1101351999999OC101241REMMET114MOBOB2 METAR XM20 //000 082346 022210Z AUTO 06017G24KT RA 27/22 A2993 RMK A02 SLP136 P0001 T02650221 PA-08 DA1675=
0167008411999992016010222214+08200+134600FM-15+000099999V0200801N005719999999N999999999+02701+02291101361ADDAA101000021AW1611MA1101351999999OC100881REMMET115MOBOB2 METAR XM20 //000 082346 022221Z AUTO 08011G17KT -RA 27/23 A2993 RMK A02 SLP136 P0000 T02700229 PA-08 DA1748=
0140008411999992016010222334+08200+134600FM-15+000099999V0200601N007219999999N999999999+02781+02381101391ADDMA1101391999999OC100931REMMET105MOBOB2 METAR XM20 //000 082346 022233Z AUTO 06014G18KT 28/24 A2994 RMK A02 SLP139 T02780238 PA-17 DA1846=
0140008411999992016010222454+08200+134600FM-15+000099999V0200601N008219999999N999999999+02791+02291101391ADDMA1101391999999OC100981REMMET105MOBOB2 METAR XM20 //000 082346 022245Z AUTO 06016G19KT 28/23 A2994 RMK A02 SLP139 T02790229 PA-17 DA1838=
0140008411999992016010222574+08200+134600FM-15+000099999V0200501N007719999999N999999999+02811+02301101391ADDMA1101391999999OC101031REMMET105MOBOB2 METAR XM20 //000 082346 022257Z AUTO 05015G20KT 28/23 A2994 RMK A02 SLP139 T02810230 PA-17 DA1863=
0140008411999992016010223094+08200+134600FM-15+000099999V0200501N008819999999N999999999+02811+02351101431ADDMA1101421999999OC101131REMMET105MOBOB2 METAR XM20 //000 082346 022309Z AUTO 05017G22KT 28/23 A2995 RMK A02 SLP143 T02810235 PA-27 DA1861=
0140008411999992016010223214+08200+134600FM-15+000099999V0200501N008219999999N999999999+02811+02341101431ADDMA1101421999999OC101031REMMET105MOBOB2 METAR XM20 //000 082346 022321Z AUTO 05016G20KT 28/23 A2995 RMK A02 SLP143 T02810234 PA-27 DA1859=
0140008411999992016010223334+08200+134600FM-15+000099999V0200501N008219999999N999999999+02801+02321101431ADDMA1101421999999OC101031REMMET105MOBOB2 METAR XM20 //000 082346 022333Z AUTO 05016G20KT 28/23 A2995 RMK A02 SLP143 T02800232 PA-27 DA1843=
0140008411999992016010223454+08200+134600FM-15+000099999V0200401N008219999999N999999999+02811+02311101431ADDMA1101421999999OC101031REMMET105MOBOB2 METAR XM20 //000 082346 022345Z AUTO 04016G20KT 28/23 A2995 RMK A02 SLP143 T02810231 PA-27 DA1854=
0140008411999992016010223574+08200+134600FM-15+000099999V0200501N008219999999N999999999+02821+02331101431ADDMA1101421999999OC101031REMMET105MOBOB2 METAR XM20 //000 082346 022357Z AUTO 05016G20KT 28/23 A2995 RMK A02 SLP143 T02820233 PA-27 DA1869=
0140008411999992016010300094+08200+134600FM-15+000099999V0200501N008219999999N999999999+02811+02311101431ADDMA1101421999999OC101031REMMET105MOBOB2 METAR XM20 //000 082346 030009Z AUTO 05016G20KT 28/23 A2995 RMK A02 SLP143 T02810231 PA-27 DA1852=
0140008411999992016010300214+08200+134600FM-15+000099999V0200501N008819999999N999999999+02821+02341101431ADDMA1101421999999OC101081REMMET105MOBOB2 METAR XM20 //000 082346 030021Z AUTO 05017G21KT 28/23 A2995 RMK A02 SLP143 T02820234 PA-27 DA1871=
0140008411999992016010300324+08200+134600FM-15+000099999V0200501N008819999999N999999999+02821+02331101431ADDMA1101421999999OC101081REMMET105MOBOB2 METAR XM20 //000 082346 030032Z AUTO 05017G21KT 28/23 A2995 RMK A02 SLP143 T02820233 PA-27 DA1868=
0140008411999992016010300444+08200+134600FM-15+000099999V0200501N011319999999N999999999+02751+02341101391ADDMA1101391999999OC101441REMMET105MOBOB2 METAR XM20 //000 082346 030044Z AUTO 05022G28KT 28/23 A2994 RMK A02 SLP139 T02750234 PA-17 DA1803=
0140008411999992016010300564+08200+134600FM-15+000099999V0200501N009819999999N999999999+02731+02301101431ADDMA1101421999999OC101241REMMET105MOBOB2 METAR XM20 //000 082346 030056Z AUTO 05019G24KT 27/23 A2995 RMK A02 SLP143 T02730230 PA-27 DA1762=
0140008411999992016010301084+08200+134600FM-15+000099999V0200501N008819999999N999999999+02741+02321101391ADDMA1101391999999OC101131REMMET105MOBOB2 METAR XM20 //000 082346 030108Z AUTO 05017G22KT 27/23 A2994 RMK A02 SLP139 T02740232 PA-17 DA1787=
0140008411999992016010301204+08200+134600FM-15+000099999V0200501N008819999999N999999999+02741+02231101391ADDMA1101391999999OC101081REMMET105MOBOB2 METAR XM20 //000 082346 030120Z AUTO 05017G21KT 27/22 A2994 RMK A02 SLP139 T02740223 PA-17 DA1769=
0140008411999992016010301324+08200+134600FM-15+000099999V0200401N008819999999N999999999+02771+02191101391ADDMA1101391999999OC101131REMMET105MOBOB2 METAR XM20 //000 082346 030132Z AUTO 04017G22KT 28/22 A2994 RMK A02 SLP139 T02770219 PA-17 DA1794=
0140008411999992016010301434+08200+134600FM-15+000099999V0200401N008819999999N999999999+02801+02241101391ADDMA1101391999999OC101081REMMET105MOBOB2 METAR XM20 //000 082346 030143Z AUTO 04017G21KT 28/22 A2994 RMK A02 SLP139 T02800224 PA-17 DA1838=
0140008411999992016010301554+08200+134600FM-15+000099999V0200501N008219999999N999999999+02791+02291101391ADDMA1101391999999OC101031REMMET105MOBOB2 METAR XM20 //000 082346 030155Z AUTO 05016G20KT 28/23 A2994 RMK A02 SLP139 T02790229 PA-17 DA1837=
0140008411999992016010302074+08200+134600FM-15+000099999V0200501N008219999999N999999999+02791+02291101361ADDMA1101351999999OC101081REMMET105MOBOB2 METAR XM20 //000 082346 030207Z AUTO 05016G21KT 28/23 A2993 RMK A02 SLP136 T02790229 PA-08 DA1849=
0140008411999992016010302194+08200+134600FM-15+000099999V0200501N009319999999N999999999+02811+02291101361ADDMA1101351999999OC101131REMMET105MOBOB2 METAR XM20 //000 082346 030219Z AUTO 05018G22KT 28/23 A2993 RMK A02 SLP136 T02810229 PA-08 DA1871=
0140008411999992016010302314+08200+134600FM-15+000099999V0200501N010319999999N999999999+02761+02381101331ADDMA1101321999999OC101341REMMET105MOBOB2 METAR XM20 //000 082346 030231Z AUTO 05020G26KT 28/24 A2992 RMK A02 SLP133 T02760238 PA001 DA1846=
0140008411999992016010302424+08200+134600FM-15+000099999V0200501N009819999999N999999999+02751+02351101291ADDMA1101291999999OC101241REMMET105MOBOB2 METAR XM20 //000 082346 030242Z AUTO 05019G24KT 28/24 A2991 RMK A02 SLP129 T02750235 PA010 DA1841=
0140008411999992016010302544+08200+134600FM-15+000099999V0200401N009319999999N999999999+02761+02311101291ADDMA1101291999999OC101181REMMET105MOBOB2 METAR XM20 //000 082346 030254Z AUTO 04018G23KT 28/23 A2991 RMK A02 SLP129 T02760231 PA010 DA1842=
0140008411999992016010303064+08200+134600FM-15+000099999V0200601N010319999999N999999999+02761+02311101291ADDMA1101291999999OC101291REMMET105MOBOB2 METAR XM20 //000 082346 030306Z AUTO 06020G25KT 28/23 A2991 RMK A02 SLP129 T02760231 PA010 DA1842=
0140008411999992016010303184+08200+134600FM-15+000099999V0200501N010319999999N999999999+02761+02301101291ADDMA1101291999999OC101341REMMET105MOBOB2 METAR XM20 //000 082346 030318Z AUTO 05020G26KT 28/23 A2991 RMK A02 SLP129 T02760230 PA010 DA1841=
0140008411999992016010303304+08200+134600FM-15+000099999V0200401N009819999999N999999999+02761+02321101261ADDMA1101251999999OC101291REMMET105MOBOB2 METAR XM20 //000 082346 030330Z AUTO 04019G25KT 28/23 A2990 RMK A02 SLP126 T02760232 PA020 DA1857=
0140008411999992016010303424+08200+134600FM-15+000099999V0200501N009819999999N999999999+02711+02301101261ADDMA1101251999999OC101131REMMET105MOBOB2 METAR XM20 //000 082346 030342Z AUTO 05019G22KT 27/23 A2990 RMK A02 SLP126 T02710230 PA020 DA1795=
0140008411999992016010303534+08200+134600FM-15+000099999V0200501N009319999999N999999999+02751+02341101221ADDMA1101221999999OC101081REMMET105MOBOB2 METAR XM20 //000 082346 030353Z AUTO 05018G21KT 28/23 A2989 RMK A02 SLP122 T02750234 PA029 DA1861=
0140008411999992016010304054+08200+134600FM-15+000099999V0200501N008819999999N999999999+02731+02321101221ADDMA1101221999999OC101081REMMET105MOBOB2 METAR XM20 //000 082346 030405Z AUTO 05017G21KT 27/23 A2989 RMK A02 SLP122 T02730232 PA029 DA1833=
0140008411999992016010304194+08200+134600FM-15+000099999V0200501N008819999999N999999999+02731+02301101221ADDMA1101221999999OC101031REMMET105MOBOB2 METAR XM20 //000 082346 030419Z AUTO 05017G20KT 27/23 A2989 RMK A02 SLP122 T02730230 PA029 DA1829=
0140008411999992016010304314+08200+134600FM-15+000099999V0200501N008219999999N999999999+02751+02301101191ADDMA1101181999999OC100981REMMET105MOBOB2 METAR XM20 //000 082346 030431Z AUTO 05016G19KT 28/23 A2988 RMK A02 SLP119 T02750230 PA038 DA1863=
0140008411999992016010304434+08200+134600FM-15+000099999V0200601N008819999999N999999999+02741+02281101191ADDMA1101181999999OC101131REMMET105MOBOB2 METAR XM20 //000 082346 030443Z AUTO 06017G22KT 27/23 A2988 RMK A02 SLP119 T02740228 PA038 DA1847=
0140008411999992016010304554+08200+134600FM-15+000099999V0200601N008819999999N999999999+02761+02321101161ADDMA1101151999999OC101081REMMET105MOBOB2 METAR XM20 //000 082346 030455Z AUTO 06017G21KT 28/23 A2987 RMK A02 SLP116 T02760232 PA047 DA1890=
0140008411999992016010305064+08200+134600FM-15+000099999V0200601N008219999999N999999999+02771+02291101161ADDMA1101151999999OC101031REMMET105MOBOB2 METAR XM20 //000 082346 030506Z AUTO 06016G20KT 28/23 A2987 RMK A02 SLP116 T02770229 PA047 DA1895=
0140008411999992016010305184+08200+134600FM-15+000099999V0200601N008819999999N999999999+02771+02311101121ADDMA1101121999999OC101181REMMET105MOBOB2 METAR XM20 //000 082346 030518Z AUTO 06017G23KT 28/23 A2986 RMK A02 SLP112 T02770231 PA057 DA1910=
0140008411999992016010305304+08200+134600FM-15+000099999V0200601N008819999999N999999999+02761+02301101121ADDMA1101121999999OC101131REMMET105MOBOB2 METAR XM20 //000 082346 030530Z AUTO 06017G22KT 28/23 A2986 RMK A02 SLP112 T02760230 PA057 DA1897=
0140008411999992016010305424+08200+134600FM-15+000099999V0200601N007219999999N999999999+02761+02281101121ADDMA1101121999999OC100881REMMET105MOBOB2 METAR XM20 //000 082346 030542Z AUTO 06014G17KT 28/23 A2986 RMK A02 SLP112 T02760228 PA057 DA1893=
0140008411999992016010305544+08200+134600FM-15+000099999V0200801N006719999999N999999999+02791+02291101091ADDMA1101081999999OC100821REMMET105MOBOB2 METAR XM20 //000 082346 030554Z AUTO 08013G16KT 28/23 A2985 RMK A02 SLP109 T02790229 PA066 DA1940=
0140008411999992016010306064+08200+134600FM-15+000099999V0200701N006719999999N999999999+02791+02251101091ADDMA1101081999999OC100881REMMET105MOBOB2 METAR XM20 //000 082346 030606Z AUTO 07013G17KT 28/22 A2985 RMK A02 SLP109 T02790225 PA066 DA1931=
0140008411999992016010306174+08200+134600FM-15+000099999V0200701N007719999999N999999999+02821+02191101091ADDMA1101081999999OC101031REMMET105MOBOB2 METAR XM20 //000 082346 030617Z AUTO 07015G20KT 28/22 A2985 RMK A02 SLP109 T02820219 PA066 DA1953=
0140008411999992016010306294+08200+134600FM-15+000099999V0200601N007219999999N999999999+02821+02191101121ADDMA1101121999999OC100931REMMET105MOBOB2 METAR XM20 //000 082346 030629Z AUTO 06014G18KT 28/22 A2986 RMK A02 SLP112 T02820219 PA057 DA1942=
0140008411999992016010306414+08200+134600FM-15+000099999V0200601N007219999999N999999999+02831+02241101121ADDMA1101121999999OC100881REMMET105MOBOB2 METAR XM20 //000 082346 030641Z AUTO 06014G17KT 28/22 A2986 RMK A02 SLP112 T02830224 PA057 DA1964=
0140008411999992016010306524+08200+134600FM-15+000099999V0200501N007219999999N999999999+02811+02241101121ADDMA1101121999999OC100931REMMET105MOBOB2 METAR XM20 //000 082346 030652Z AUTO 05014G18KT 28/22 A2986 RMK A02 SLP112 T02810224 PA057 DA1941=
0140008411999992016010307044+08200+134600FM-15+000099999V0200501N007719999999N999999999+02811+02271101121ADDMA1101121999999OC100981REMMET105MOBOB2 METAR XM20 //000 082346 030704Z AUTO 05015G19KT 28/23 A2986 RMK A02 SLP112 T02810227 PA057 DA1946=
0140008411999992016010307164+08200+134600FM-15+000099999V0200501N007219999999N999999999+02801+02281101121ADDMA1101121999999OC100931REMMET105MOBOB2 METAR XM20 //000 082346 030716Z AUTO 05014G18KT 28/23 A2986 RMK A02 SLP112 T02800228 PA057 DA1938=
0140008411999992016010307284+08200+134600FM-15+000099999V0200501N007719999999N999999999+02801+02311101161ADDMA1101151999999OC100981REMMET105MOBOB2 METAR XM20 //000 082346 030728Z AUTO 05015G19KT 28/23 A2987 RMK A02 SLP116 T02800231 PA047 DA1934=
0140008411999992016010307404+08200+134600FM-15+000099999V0200501N007219999999N999999999+02811+02331101161ADDMA1101151999999OC100931REMMET105MOBOB2 METAR XM20 //000 082346 030740Z AUTO 05014G18KT 28/23 A2987 RMK A02 SLP116 T02810233 PA047 DA1948=
0140008411999992016010307524+08200+134600FM-15+000099999V0200501N007719999999N999999999+02801+02361101191ADDMA1101181999999OC100981REMMET105MOBOB2 METAR XM20 //000 082346 030752Z AUTO 05015G19KT 28/24 A2988 RMK A02 SLP119 T02800236 PA038 DA1932=
0140008411999992016010308034+08200+134600FM-15+000099999V0200501N007719999999N999999999+02781+02331101191ADDMA1101181999999OC100981REMMET105MOBOB2 METAR XM20 //000 082346 030803Z AUTO 05015G19KT 28/23 A2988 RMK A02 SLP119 T02780233 PA038 DA1902=
0140008411999992016010308154+08200+134600FM-15+000099999V0200601N007719999999N999999999+02781+02341101191ADDMA1101181999999OC100981REMMET105MOBOB2 METAR XM20 //000 082346 030815Z AUTO 06015G19KT 28/23 A2988 RMK A02 SLP119 T02780234 PA038 DA1906=
0140008411999992016010308274+08200+134600FM-15+000099999V0200501N006719999999N999999999+02791+02371101221ADDMA1101221999999OC100881REMMET105MOBOB2 METAR XM20 //000 082346 030827Z AUTO 05013G17KT 28/24 A2989 RMK A02 SLP122 T02790237 PA029 DA1913=
0140008411999992016010308394+08200+134600FM-15+000099999V0200501N007219999999N999999999+02771+02351101221ADDMA1101221999999OC100881REMMET105MOBOB2 METAR XM20 //000 082346 030839Z AUTO 05014G17KT 28/24 A2989 RMK A02 SLP122 T02770235 PA029 DA1886=
0140008411999992016010308504+08200+134600FM-15+000099999V0200601N007219999999N999999999+02771+02371101221ADDMA1101221999999OC100881REMMET105MOBOB2 METAR XM20 //000 082346 030850Z AUTO 06014G17KT 28/24 A2989 RMK A02 SLP122 T02770237 PA029 DA1889=
0140008411999992016010309024+08200+134600FM-15+000099999V0200601N007219999999N999999999+02771+02351101221ADDMA1101221999999OC100881REMMET105MOBOB2 METAR XM20 //000 082346 030902Z AUTO 06014G17KT 28/23 A2989 RMK A02 SLP122 T02770235 PA029 DA1885=
0140008411999992016010309144+08200+134600FM-15+000099999V0200601N006719999999N999999999+02781+02361101261ADDMA1101251999999OC100881REMMET105MOBOB2 METAR XM20 //000 082346 030914Z AUTO 06013G17KT 28/24 A2990 RMK A02 SLP126 T02780236 PA020 DA1888=
0167008411999992016010309264+08200+134600FM-15+000099999V0200901N006719999999N999999999+02701+02391101291ADDAA101000531AW1611MA1101291999999OC100931REMMET115MOBOB2 METAR XM20 //000 082346 030926Z AUTO 09013G18KT -RA 27/24 A2991 RMK A02 SLP129 P0002 T02700239 PA010 DA1793=
0140008411999992016010309384+08200+134600FM-15+000099999V0200901N005719999999N999999999+02681+02381101291ADDMA1101291999999OC100821REMMET105MOBOB2 METAR XM20 //000 082346 030938Z AUTO 09011G16KT 27/24 A2991 RMK A02 SLP129 T02680238 PA010 DA1768=
0140008411999992016010309504+08200+134600FM-15+000099999V0200901N006219999999N999999999+02701+02351101291ADDMA1101291999999OC100771REMMET105MOBOB2 METAR XM20 //000 082346 030950Z AUTO 09012G15KT 27/23 A2991 RMK A02 SLP129 T02700235 PA010 DA1783=
0140008411999992016010310014+08200+134600FM-15+000099999V0200801N006219999999N999999999+02711+02361101331ADDMA1101321999999OC100821REMMET105MOBOB2 METAR XM20 //000 082346 031001Z AUTO 08012G16KT 27/24 A2992 RMK A02 SLP133 T02710236 PA001 DA1786=
0140008411999992016010310134+08200+134600FM-15+000099999V0200801N005719999999N999999999+02721+02381101331ADDMA1101321999999OC100771REMMET105MOBOB2 METAR XM20 //000 082346 031013Z AUTO 08011G15KT 27/24 A2992 RMK A02 SLP133 T02720238 PA001 DA1801=
0140008411999992016010310254+08200+134600FM-15+000099999V0200801N005719999999N999999999+02731+02381101331ADDMA1101321999999OC100771REMMET105MOBOB2 METAR XM20 //000 082346 031025Z AUTO 08011G15KT 27/24 A2992 RMK A02 SLP133 T02730238 PA001 DA1812=
0140008411999992016010310374+08200+134600FM-15+000099999V0200801N006219999999N999999999+02731+02391101361ADDMA1101351999999OC100771REMMET105MOBOB2 METAR XM20 //000 082346 031037Z AUTO 08012G15KT 27/24 A2993 RMK A02 SLP136 T02730239 PA-08 DA1804=
0140008411999992016010310494+08200+134600FM-15+000099999V0200801N006219999999N999999999+02741+02401101361ADDMA1101351999999OC100771REMMET105MOBOB2 METAR XM20 //000 082346 031049Z AUTO 08012G15KT 27/24 A2993 RMK A02 SLP136 T02740240 PA-08 DA1818=
0140008411999992016010311014+08200+134600FM-15+000099999V0200801N005719999999N999999999+02721+02371101361ADDMA1101351999999OC100671REMMET105MOBOB2 METAR XM20 //000 082346 031101Z AUTO 08011G13KT 27/24 A2993 RMK A02 SLP136 T02720237 PA-08 DA1789=
0140008411999992016010311134+08200+134600FM-15+000099999V0200701N005719999999N999999999+02731+02381101391ADDMA1101391999999OC100721REMMET105MOBOB2 METAR XM20 //000 082346 031113Z AUTO 07011G14KT 27/24 A2994 RMK A02 SLP139 T02730238 PA-17 DA1790=
0140008411999992016010311254+08200+134600FM-15+000099999V0200701N005719999999N999999999+02731+02371101391ADDMA1101391999999OC100771REMMET105MOBOB2 METAR XM20 //000 082346 031125Z AUTO 07011G15KT 27/24 A2994 RMK A02 SLP139 T02730237 PA-17 DA1788=
0140008411999992016010311374+08200+134600FM-15+000099999V0200801N005719999999N999999999+02761+02411101391ADDMA1101391999999OC100721REMMET105MOBOB2 METAR XM20 //000 082346 031137Z AUTO 08011G14KT 28/24 A2994 RMK A02 SLP139 T02760241 PA-17 DA1831=
0140008411999992016010311484+08200+134600FM-15+000099999V0200801N007219999999N999999999+02741+02381101391ADDMA1101391999999OC100881REMMET105MOBOB2 METAR XM20 //000 082346 031148Z AUTO 08014G17KT 27/24 A2994 RMK A02 SLP139 T02740238 PA-17 DA1801=
0140008411999992016010312004+08200+134600FM-15+000099999V0200801N007219999999N999999999+02751+02371101391ADDMA1101391999999OC100931REMMET105MOBOB2 METAR XM20 //000 082346 031200Z AUTO 08014G18KT 28/24 A2994 RMK A02 SLP139 T02750237 PA-17 DA1810=
0140008411999992016010312124+08200+134600FM-15+000099999V0200701N006719999999N999999999+02761+02391101391ADDMA1101391999999OC100881REMMET105MOBOB2 METAR XM20 //000 082346 031212Z AUTO 07013G17KT 28/24 A2994 RMK A02 SLP139 T02760239 PA-17 DA1825=
0140008411999992016010312244+08200+134600FM-15+000099999V0200701N006719999999N999999999+02751+02351101391ADDMA1101391999999OC100821REMMET105MOBOB2 METAR XM20 //000 082346 031224Z AUTO 07013G16KT 28/24 A2994 RMK A02 SLP139 T02750235 PA-17 DA1806=
0140008411999992016010312364+08200+134600FM-15+000099999V0200701N006719999999N999999999+02751+02371101431ADDMA1101421999999OC100821REMMET105MOBOB2 METAR XM20 //000 082346 031236Z AUTO 07013G16KT 28/24 A2995 RMK A02 SLP143 T02750237 PA-27 DA1798=
0140008411999992016010312474+08200+134600FM-15+000099999V0200601N006219999999N999999999+02771+02381101391ADDMA1101391999999OC100771REMMET105MOBOB2 METAR XM20 //000 082346 031247Z AUTO 06012G15KT 28/24 A2994 RMK A02 SLP139 T02770238 PA-17 DA1835=
0140008411999992016010312594+08200+134600FM-15+000099999V0200601N006219999999N999999999+02761+02351101391ADDMA1101391999999OC100821REMMET105MOBOB2 METAR XM20 //000 082346 031259Z AUTO 06012G16KT 28/24 A2994 RMK A02 SLP139 T02760235 PA-17 DA1818=
0140008411999992016010313114+08200+134600FM-15+000099999V0200601N006219999999N999999999+02761+02371101391ADDMA1101391999999OC100771REMMET105MOBOB2 METAR XM20 //000 082346 031311Z AUTO 06012G15KT 28/24 A2994 RMK A02 SLP139 T02760237 PA-17 DA1822=
0140008411999992016010313234+08200+134600FM-15+000099999V0200501N006219999999N999999999+02751+02371101391ADDMA1101391999999OC100771REMMET105MOBOB2 METAR XM20 //000 082346 031323Z AUTO 05012G15KT 28/24 A2994 RMK A02 SLP139 T02750237 PA-17 DA1810=
0140008411999992016010313354+08200+134600FM-15+000099999V0200401N005719999999N999999999+02751+02401101391ADDMA1101391999999OC100721REMMET105MOBOB2 METAR XM20 //000 082346 031335Z AUTO 04011G14KT 28/24 A2994 RMK A02 SLP139 T02750240 PA-17 DA1816=
0140008411999992016010313464+08200+134600FM-15+000099999V0200501N005719999999N999999999+02751+02391101391ADDMA1101391999999OC100721REMMET105MOBOB2 METAR XM20 //000 082346 031346Z AUTO 05011G14KT 28/24 A2994 RMK A02 SLP139 T02750239 PA-17 DA1814=
0140008411999992016010313584+08200+134600FM-15+000099999V0200501N005719999999N999999999+02741+02371101391ADDMA1101391999999OC100771REMMET105MOBOB2 METAR XM20 //000 082346 031358Z AUTO 05011G15KT 27/24 A2994 RMK A02 SLP139 T02740237 PA-17 DA1798=
0140008411999992016010314104+08200+134600FM-15+000099999V0200501N005719999999N999999999+02751+02381101391ADDMA1101391999999OC100721REMMET105MOBOB2 METAR XM20 //000 082346 031410Z AUTO 05011G14KT 28/24 A2994 RMK A02 SLP139 T02750238 PA-17 DA1811=
0140008411999992016010314224+08200+134600FM-15+000099999V0200401N005719999999N999999999+02751+02371101391ADDMA1101391999999OC100721REMMET105MOBOB2 METAR XM20 //000 082346 031422Z AUTO 04011G14KT 28/24 A2994 RMK A02 SLP139 T02750237 PA-17 DA1811=
0140008411999992016010314344+08200+134600FM-15+000099999V0200401N005119999999N999999999+02751+02381101391ADDMA1101391999999OC100621REMMET105MOBOB2 METAR XM20 //000 082346 031434Z AUTO 04010G12KT 28/24 A2994 RMK A02 SLP139 T02750238 PA-17 DA1811=
0140008411999992016010314454+08200+134600FM-15+000099999V0200401N005719999999N999999999+02761+02391101391ADDMA1101391999999OC100821REMMET105MOBOB2 METAR XM20 //000 082346 031445Z AUTO 04011G16KT 28/24 A2994 RMK A02 SLP139 T02760239 PA-17 DA1827=
0140008411999992016010314574+08200+134600FM-15+000099999V0200501N006219999999N999999999+02701+02331101391ADDMA1101391999999OC100881REMMET105MOBOB2 METAR XM20 //000 082346 031457Z AUTO 05012G17KT 27/23 A2994 RMK A02 SLP139 T02700233 PA-17 DA1745=
0140008411999992016010315094+08200+134600FM-15+000099999V0200601N007719999999N999999999+02671+02341101361ADDMA1101351999999OC101291REMMET105MOBOB2 METAR XM20 //000 082346 031509Z AUTO 06015G25KT 27/23 A2993 RMK A02 SLP136 T02670234 PA-08 DA1725=
0140008411999992016010315204+08200+134600FM-15+000099999V0200701N011319999999N999999999+02571+02261101361ADDMA1101351999999OC101391REMMET105MOBOB2 METAR XM20 //000 082346 031520Z AUTO 07022G27KT 26/23 A2993 RMK A02 SLP136 T02570226 PA-08 DA1594=
0167008411999992016010315324+08200+134600FM-15+000099999V0200701N010819999999N999999999+02561+02261101361ADDAA101000021AW1611MA1101351999999OC101291REMMET115MOBOB2 METAR XM20 //000 082346 031532Z AUTO 07021G25KT -RA 26/23 A2993 RMK A02 SLP136 P0000 T02560226 PA-08 DA1584=
0140008411999992016010315444+08200+134600FM-15+000099999V0200901N007719999999N999999999+02511+02171101361ADDMA1101351999999OC101081REMMET105MOBOB2 METAR XM20 //000 082346 031544Z AUTO 09015G21KT 25/22 A2993 RMK A02 SLP136 T02510217 PA-08 DA1509=
0129008411999992016010315564+08200+134600FM-15+000099999V0201101N004619999999N999999999+02581+02181101361ADDMA1101351999999REMMET102MOBOB2 METAR XM20 //000 082346 031556Z AUTO 11009KT 26/22 A2993 RMK A02 SLP136 T02580218 PA-08 DA1590=
0129008411999992016010316084+08200+134600FM-15+000099999V0201001N004119999999N999999999+02621+02191101361ADDMA1101351999999REMMET102MOBOB2 METAR XM20 //000 082346 031608Z AUTO 10008KT 26/22 A2993 RMK A02 SLP136 T02620219 PA-08 DA1637=
0129008411999992016010316204+08200+134600FM-15+000099999V0200901N003119999999N999999999+02651+02201101331ADDMA1101321999999REMMET102MOBOB2 METAR XM20 //000 082346 031620Z AUTO 09006KT 27/22 A2992 RMK A02 SLP133 T02650220 PA001 DA1683=
0129008411999992016010316324+08200+134600FM-15+000099999V0200701N003619999999N999999999+02671+02181101291ADDMA1101291999999REMMET102MOBOB2 METAR XM20 //000 082346 031632Z AUTO 07007KT 27/22 A2991 RMK A02 SLP129 T02670218 PA010 DA1714=
0129008411999992016010316434+08200+134600FM-15+000099999V0200501N003619999999N999999999+02701+02241101291ADDMA1101291999999REMMET102MOBOB2 METAR XM20 //000 082346 031643Z AUTO 05007KT 27/22 A2991 RMK A02 SLP129 T02700224 PA010 DA1759=
0129008411999992016010316554+08200+134600FM-15+000099999V0200401N005119999999N999999999+02701+02301101291ADDMA1101291999999REMMET102MOBOB2 METAR XM20 //000 082346 031655Z AUTO 04010KT 27/23 A2991 RMK A02 SLP129 T02700230 PA010 DA1772=
0129008411999992016010317074+08200+134600FM-15+000099999V0200301N004119999999N999999999+02691+02301101291ADDMA1101291999999REMMET102MOBOB2 METAR XM20 //000 082346 031707Z AUTO 03008KT 27/23 A2991 RMK A02 SLP129 T02690230 PA010 DA1761=
0129008411999992016010317194+08200+134600FM-15+000099999V0200401N003619999999N999999999+02681+02331101261ADDMA1101251999999REMMET102MOBOB2 METAR XM20 //000 082346 031719Z AUTO 04007KT 27/23 A2990 RMK A02 SLP126 T02680233 PA020 DA1767=
0129008411999992016010317304+08200+134600FM-15+000099999V0200401N003619999999N999999999+02691+02351101221ADDMA1101221999999REMMET102MOBOB2 METAR XM20 //000 082346 031730Z AUTO 04007KT 27/23 A2989 RMK A02 SLP122 T02690235 PA029 DA1794=
0140008411999992016010317424+08200+134600FM-15+000099999V0200401N007219999999N999999999+02731+02351101191ADDMA1101181999999OC100881REMMET105MOBOB2 METAR XM20 //000 082346 031742Z AUTO 04014G17KT 27/23 A2988 RMK A02 SLP119 T02730235 PA038 DA1851=
0140008411999992016010317544+08200+134600FM-15+000099999V0200501N007219999999N999999999+02761+02361101191ADDMA1101181999999OC100931REMMET105MOBOB2 METAR XM20 //000 082346 031754Z AUTO 05014G18KT 28/24 A2988 RMK A02 SLP119 T02760236 PA038 DA1887=
0140008411999992016010318064+08200+134600FM-15+000099999V0200501N007719999999N999999999+02761+02331101191ADDMA1101181999999OC100931REMMET105MOBOB2 METAR XM20 //000 082346 031806Z AUTO 05015G18KT 28/23 A2988 RMK A02 SLP119 T02760233 PA038 DA1881=
0140008411999992016010318184+08200+134600FM-15+000099999V0200501N007719999999N999999999+02761+02311101191ADDMA1101181999999OC100931REMMET105MOBOB2 METAR XM20 //000 082346 031818Z AUTO 05015G18KT 28/23 A2988 RMK A02 SLP119 T02760231 PA038 DA1877=
0140008411999992016010318294+08200+134600FM-15+000099999V0200501N006719999999N999999999+02761+02361101191ADDMA1101181999999OC100821REMMET105MOBOB2 METAR XM20 //000 082346 031829Z AUTO 05013G16KT 28/24 A2988 RMK A02 SLP119 T02760236 PA038 DA1888=
0140008411999992016010318414+08200+134600FM-15+000099999V0200501N007219999999N999999999+02751+02351101191ADDMA1101181999999OC100881REMMET105MOBOB2 METAR XM20 //000 082346 031841Z AUTO 05014G17KT 28/24 A2988 RMK A02 SLP119 T02750235 PA038 DA1875=
0140008411999992016010318534+08200+134600FM-15+000099999V0200501N007219999999N999999999+02761+02391101191ADDMA1101181999999OC100981REMMET105MOBOB2 METAR XM20 //000 082346 031853Z AUTO 05014G19KT 28/24 A2988 RMK A02 SLP119 T02760239 PA038 DA1893=
0140008411999992016010319054+08200+134600FM-15+000099999V0200501N006719999999N999999999+02741+02351101191ADDMA1101181999999OC100881REMMET105MOBOB2 METAR XM20 //000 082346 031905Z AUTO 05013G17KT 27/24 A2988 RMK A02 SLP119 T02740235 PA038 DA1864=
0140008411999992016010319174+08200+134600FM-15+000099999V0200501N007219999999N999999999+02731+02351101191ADDMA1101181999999OC100931REMMET105MOBOB2 METAR XM20 //000 082346 031917Z AUTO 05014G18KT 27/23 A2988 RMK A02 SLP119 T02730235 PA038 DA1852=
0140008411999992016010319294+08200+134600FM-15+000099999V0200601N007219999999N999999999+02751+02351101221ADDMA1101221999999OC100881REMMET105MOBOB2 METAR XM20 //000 082346 031929Z AUTO 06014G17KT 28/24 A2989 RMK A02 SLP122 T02750235 PA029 DA1863=
0140008411999992016010319414+08200+134600FM-15+000099999V0200501N006719999999N999999999+02751+02331101221ADDMA1101221999999OC100881REMMET105MOBOB2 METAR XM20 //000 082346 031941Z AUTO 05013G17KT 28/23 A2989 RMK A02 SLP122 T02750233 PA029 DA1859=
0140008411999992016010319524+08200+134600FM-15+000099999V0200501N007219999999N999999999+02751+02311101221ADDMA1101221999999OC100881REMMET105MOBOB2 METAR XM20 //000 082346 031952Z AUTO 05014G17KT 28/23 A2989 RMK A02 SLP122 T02750231 PA029 DA1854=
0140008411999992016010320044+08200+134600FM-15+000099999V0200601N006719999999N999999999+02751+02311101221ADDMA1101221999999OC100821REMMET105MOBOB2 METAR XM20 //000 082346 032004Z AUTO 06013G16KT 28/23 A2989 RMK A02 SLP122 T02750231 PA029 DA1853=
0140008411999992016010320174+08200+134600FM-15+000099999V0200501N007219999999N999999999+02751+02331101261ADDMA1101251999999OC100881REMMET105MOBOB2 METAR XM20 //000 082346 032017Z AUTO 05014G17KT 28/23 A2990 RMK A02 SLP126 T02750233 PA020 DA1846=
0140008411999992016010320294+08200+134600FM-15+000099999V0200501N006719999999N999999999+02761+02351101291ADDMA1101291999999OC100821REMMET105MOBOB2 METAR XM20 //000 082346 032029Z AUTO 05013G16KT 28/23 A2991 RMK A02 SLP129 T02760235 PA010 DA1851=
0140008411999992016010320404+08200+134600FM-15+000099999V0200501N006719999999N999999999+02741+02311101291ADDMA1101291999999OC100821REMMET105MOBOB2 METAR XM20 //000 082346 032040Z AUTO 05013G16KT 27/23 A2991 RMK A02 SLP129 T02740231 PA010 DA1820=
0140008411999992016010320524+08200+134600FM-15+000099999V0200501N006219999999N999999999+02751+02301101291ADDMA1101291999999OC100881REMMET105MOBOB2 METAR XM20 //000 082346 032052Z AUTO 05012G17KT 28/23 A2991 RMK A02 SLP129 T02750230 PA010 DA1828=
0140008411999992016010321044+08200+134600FM-15+000099999V0200501N007219999999N999999999+02761+02311101291ADDMA1101291999999OC100931REMMET105MOBOB2 METAR XM20 //000 082346 032104Z AUTO 05014G18KT 28/23 A2991 RMK A02 SLP129 T02760231 PA010 DA1842=
0140008411999992016010321164+08200+134600FM-15+000099999V0200501N006719999999N999999999+02741+02301101331ADDMA1101321999999OC100881REMMET105MOBOB2 METAR XM20 //000 082346 032116Z AUTO 05013G17KT 27/23 A2992 RMK A02 SLP133 T02740230 PA001 DA1806=
0140008411999992016010321274+08200+134600FM-15+000099999V0200501N006719999999N999999999+02761+02311101331ADDMA1101321999999OC100881REMMET105MOBOB2 METAR XM20 //000 082346 032127Z AUTO 05013G17KT 28/23 A2992 RMK A02 SLP133 T02760231 PA001 DA1832=
0140008411999992016010321394+08200+134600FM-15+000099999V0200501N007219999999N999999999+02751+02301101361ADDMA1101351999999OC100931REMMET105MOBOB2 METAR XM20 //000 082346 032139Z AUTO 05014G18KT 28/23 A2993 RMK A02 SLP136 T02750230 PA-08 DA1805=
0140008411999992016010321514+08200+134600FM-15+000099999V0200501N007219999999N999999999+02761+02331101391ADDMA1101391999999OC100881REMMET105MOBOB2 METAR XM20 //000 082346 032151Z AUTO 05014G17KT 28/23 A2994 RMK A02 SLP139 T02760233 PA-17 DA1812=
0140008411999992016010322034+08200+134600FM-15+000099999V0200501N006719999999N999999999+02751+02301101391ADDMA1101391999999OC100881REMMET105MOBOB2 METAR XM20 //000 082346 032203Z AUTO 05013G17KT 28/23 A2994 RMK A02 SLP139 T02750230 PA-17 DA1794=
0140008411999992016010322154+08200+134600FM-15+000099999V0200501N006719999999N999999999+02771+02291101391ADDMA1101391999999OC100881REMMET105MOBOB2 METAR XM20 //000 082346 032215Z AUTO 05013G17KT 28/23 A2994 RMK A02 SLP139 T02770229 PA-17 DA1816=
0140008411999992016010322264+08200+134600FM-15+000099999V0200501N006719999999N999999999+02791+02341101431ADDMA1101421999999OC100821REMMET105MOBOB2 METAR XM20 //000 082346 032226Z AUTO 05013G16KT 28/23 A2995 RMK A02 SLP143 T02790234 PA-27 DA1837=
0140008411999992016010322384+08200+134600FM-15+000099999V0200501N005719999999N999999999+02801+02341101431ADDMA1101421999999OC100771REMMET105MOBOB2 METAR XM20 //000 082346 032238Z AUTO 05011G15KT 28/23 A2995 RMK A02 SLP143 T02800234 PA-27 DA1848=
0140008411999992016010322504+08200+134600FM-15+000099999V0200501N005719999999N999999999+02781+02331101461ADDMA1101461999999OC100721REMMET105MOBOB2 METAR XM20 //000 082346 032250Z AUTO 05011G14KT 28/23 A2996 RMK A02 SLP146 T02780233 PA-36 DA1812=
0140008411999992016010323024+08200+134600FM-15+000099999V0200501N006219999999N999999999+02791+02311101461ADDMA1101461999999OC100771REMMET105MOBOB2 METAR XM20 //000 082346 032302Z AUTO 05012G15KT 28/23 A2996 RMK A02 SLP146 T02790231 PA-36 DA1820=
0140008411999992016010323144+08200+134600FM-15+000099999V0200501N005719999999N999999999+02811+02341101461ADDMA1101461999999OC100771REMMET105MOBOB2 METAR XM20 //000 082346 032314Z AUTO 05011G15KT 28/23 A2996 RMK A02 SLP146 T02810234 PA-36 DA1848=
0140008411999992016010323264+08200+134600FM-15+000099999V0200501N006219999999N999999999+02821+02351101461ADDMA1101461999999OC100771REMMET105MOBOB2 METAR XM20 //000 082346 032326Z AUTO 05012G15KT 28/24 A2996 RMK A02 SLP146 T02820235 PA-36 DA1862=
0140008411999992016010323384+08200+134600FM-15+000099999V0200501N005119999999N999999999+02821+02381101461ADDMA1101461999999OC100721REMMET105MOBOB2 METAR XM20 //000 082346 032338Z AUTO 05010G14KT 28/24 A2996 RMK A02 SLP146 T02820238 PA-36 DA1868=
0140008411999992016010323494+08200+134600FM-15+000099999V0200501N006219999999N999999999+02811+02321101461ADDMA1101461999999OC100771REMMET105MOBOB2 METAR XM20 //000 082346 032349Z AUTO 05012G15KT 28/23 A2996 RMK A02 SLP146 T02810232 PA-36 DA1843=
0140008411999992016010400014+08200+134600FM-15+000099999V0200501N006219999999N999999999+02821+02371101461ADDMA1101461999999OC100721REMMET105MOBOB2 METAR XM20 //000 082346 040001Z AUTO 05012G14KT 28/24 A2996 RMK A02 SLP146 T02820237 PA-36 DA1866=
0140008411999992016010400134+08200+134600FM-15+000099999V0200501N005719999999N999999999+02831+02331101461ADDMA1101461999999OC100721REMMET105MOBOB2 METAR XM20 //000 082346 040013Z AUTO 05011G14KT 28/23 A2996 RMK A02 SLP146 T02830233 PA-36 DA1868=
0140008411999992016010400254+08200+134600FM-15+000099999V0200501N005119999999N999999999+02831+02361101501ADDMA1101491999999OC100671REMMET105MOBOB2 METAR XM20 //000 082346 040025Z AUTO 05010G13KT 28/24 A2997 RMK A02 SLP150 T02830236 PA-45 DA1863=
0140008411999992016010400364+08200+134600FM-15+000099999V0200501N005119999999N999999999+02811+02311101461ADDMA1101461999999OC100721REMMET105MOBOB2 METAR XM20 //000 082346 040036Z AUTO 05010G14KT 28/23 A2996 RMK A02 SLP146 T02810231 PA-36 DA1841=
0140008411999992016010400484+08200+134600FM-15+000099999V0200501N005719999999N999999999+02841+02351101501ADDMA1101491999999OC100671REMMET105MOBOB2 METAR XM20 //000 082346 040048Z AUTO 05011G13KT 28/24 A2997 RMK A02 SLP150 T02840235 PA-45 DA1873=
0140008411999992016010401004+08200+134600FM-15+000099999V0200601N005719999999N999999999+02841+02331101501ADDMA1101491999999OC100671REMMET105MOBOB2 METAR XM20 //000 082346 040100Z AUTO 06011G13KT 28/23 A2997 RMK A02 SLP150 T02840233 PA-45 DA1868=
0140008411999992016010401124+08200+134600FM-15+000099999V0200401N005719999999N999999999+02821+02311101501ADDMA1101491999999OC100721REMMET105MOBOB2 METAR XM20 //000 082346 040112Z AUTO 04011G14KT 28/23 A2997 RMK A02 SLP150 T02820231 PA-45 DA1841=
0140008411999992016010401234+08200+134600FM-15+000099999V0200401N005719999999N999999999+02851+02361101461ADDMA1101461999999OC100671REMMET105MOBOB2 METAR XM20 //000 082346 040123Z AUTO 04011G13KT 29/24 A2996 RMK A02 SLP146 T02850236 PA-36 DA1898=
0140008411999992016010401354+08200+134600FM-15+000099999V0200401N005719999999N999999999+02851+02371101461ADDMA1101461999999OC100721REMMET105MOBOB2 METAR XM20 //000 082346 040135Z AUTO 04011G14KT 29/24 A2996 RMK A02 SLP146 T02850237 PA-36 DA1900=
0140008411999992016010401474+08200+134600FM-15+000099999V0200501N005719999999N999999999+02831+02321101461ADDMA1101461999999OC100721REMMET105MOBOB2 METAR XM20 //000 082346 040147Z AUTO 05011G14KT 28/23 A2996 RMK A02 SLP146 T02830232 PA-36 DA1867=
0140008411999992016010402014+08200+134600FM-15+000099999V0200401N005119999999N999999999+02851+02361101461ADDMA1101461999999OC100671REMMET105MOBOB2 METAR XM20 //000 082346 040201Z AUTO 04010G13KT 29/24 A2996 RMK A02 SLP146 T02850236 PA-36 DA1896=
0140008411999992016010402134+08200+134600FM-15+000099999V0200501N007219999999N999999999+02791+02311101431ADDMA1101421999999OC101031REMMET105MOBOB2 METAR XM20 //000 082346 040213Z AUTO 05014G20KT 28/23 A2995 RMK A02 SLP143 T02790231 PA-27 DA1829=
0167008411999992016010402254+08200+134600FM-15+000099999V0200401N005119999999N999999999+02781+02311101431ADDAA101000021AW1611MA1101421999999OC100721REMMET115MOBOB2 METAR XM20 //000 082346 040225Z AUTO 04010G14KT -RA 28/23 A2995 RMK A02 SLP143 P0000 T02780231 PA-27 DA1819=
0140008411999992016010402364+08200+134600FM-15+000099999V0200501N005119999999N999999999+02821+02321101391ADDMA1101391999999OC100771REMMET105MOBOB2 METAR XM20 //000 082346 040236Z AUTO 05010G15KT 28/23 A2994 RMK A02 SLP139 T02820232 PA-17 DA1877=
0140008411999992016010402484+08200+134600FM-15+000099999V0200501N005719999999N999999999+02851+02331101391ADDMA1101391999999OC100721REMMET105MOBOB2 METAR XM20 //000 082346 040248Z AUTO 05011G14KT 29/23 A2994 RMK A02 SLP139 T02850233 PA-17 DA1914=
0140008411999992016010403004+08200+134600FM-15+000099999V0200501N005719999999N999999999+02841+02281101391ADDMA1101391999999OC100671REMMET105MOBOB2 METAR XM20 //000 082346 040300Z AUTO 05011G13KT 28/23 A2994 RMK A02 SLP139 T02840228 PA-17 DA1891=
0140008411999992016010403124+08200+134600FM-15+000099999V0200501N005119999999N999999999+02871+02311101361ADDMA1101351999999OC100671REMMET105MOBOB2 METAR XM20 //000 082346 040312Z AUTO 05010G13KT 29/23 A2993 RMK A02 SLP136 T02870231 PA-08 DA1942=
0129008411999992016010403234+08200+134600FM-15+000099999V0200501N005119999999N999999999+02861+02351101361ADDMA1101351999999REMMET102MOBOB2 METAR XM20 //000 082346 040323Z AUTO 05010KT 29/23 A2993 RMK A02 SLP136 T02860235 PA-08 DA1939=
0140008411999992016010403354+08200+134600FM-15+000099999V0200501N005719999999N999999999+02841+02301101331ADDMA1101321999999OC100721REMMET105MOBOB2 METAR XM20 //000 082346 040335Z AUTO 05011G14KT 28/23 A2992 RMK A02 SLP133 T02840230 PA001 DA1919=
0140008411999992016010403474+08200+134600FM-15+000099999V0200501N005119999999N999999999+02851+02301101291ADDMA1101291999999OC100721REMMET105MOBOB2 METAR XM20 //000 082346 040347Z AUTO 05010G14KT 29/23 A2991 RMK A02 SLP129 T02850230 PA010 DA1942=
0140008411999992016010403594+08200+134600FM-15+000099999V0200401N005119999999N999999999+02851+02311101291ADDMA1101291999999OC100671REMMET105MOBOB2 METAR XM20 //000 082346 040359Z AUTO 04010G13KT 29/23 A2991 RMK A02 SLP129 T02850231 PA010 DA1943=
0140008411999992016010404104+08200+134600FM-15+000099999V0200501N005119999999N999999999+02851+02331101291ADDMA1101291999999OC100671REMMET105MOBOB2 METAR XM20 //000 082346 040410Z AUTO 05010G13KT 29/23 A2991 RMK A02 SLP129 T02850233 PA010 DA1947=
0140008411999992016010404224+08200+134600FM-15+000099999V0200501N005119999999N999999999+02841+02281101261ADDMA1101251999999OC100721REMMET105MOBOB2 METAR XM20 //000 082346 040422Z AUTO 05010G14KT 28/23 A2990 RMK A02 SLP126 T02840228 PA020 DA1936=
0140008411999992016010404344+08200+134600FM-15+000099999V0200501N005119999999N999999999+02851+02291101261ADDMA1101251999999OC100671REMMET105MOBOB2 METAR XM20 //000 082346 040434Z AUTO 05010G13KT 29/23 A2990 RMK A02 SLP126 T02850229 PA020 DA1951=
0140008411999992016010404464+08200+134600FM-15+000099999V0200501N005119999999N999999999+02841+02261101221ADDMA1101221999999OC100671REMMET105MOBOB2 METAR XM20 //000 082346 040446Z AUTO 05010G13KT 28/23 A2989 RMK A02 SLP122 T02840226 PA029 DA1944=
0140008411999992016010404584+08200+134600FM-15+000099999V0200501N005119999999N999999999+02851+02271101221ADDMA1101221999999OC100671REMMET105MOBOB2 METAR XM20 //000 082346 040458Z AUTO 05010G13KT 29/23 A2989 RMK A02 SLP122 T02850227 PA029 DA1957=
0140008411999992016010405104+08200+134600FM-15+000099999V0200501N005119999999N999999999+02851+02291101221ADDMA1101221999999OC100621REMMET105MOBOB2 METAR XM20 //000 082346 040510Z AUTO 05010G12KT 29/23 A2989 RMK A02 SLP122 T02850229 PA029 DA1962=
0140008411999992016010405224+08200+134600FM-15+000099999V0200501N005119999999N999999999+02831+02251101221ADDMA1101221999999OC100671REMMET105MOBOB2 METAR XM20 //000 082346 040522Z AUTO 05010G13KT 28/22 A2989 RMK A02 SLP122 T02830225 PA029 DA1930=
0129008411999992016010405334+08200+134600FM-15+000099999V0200401N005119999999N999999999+02851+02301101221ADDMA1101221999999REMMET102MOBOB2 METAR XM20 //000 082346 040533Z AUTO 04010KT 29/23 A2989 RMK A02 SLP122 T02850230 PA029 DA1963=
0129008411999992016010405454+08200+134600FM-15+000099999V0200501N004619999999N999999999+02851+02341101221ADDMA1101221999999REMMET102MOBOB2 METAR XM20 //000 082346 040545Z AUTO 05009KT 29/23 A2989 RMK A02 SLP122 T02850234 PA029 DA1972=
0140008411999992016010405574+08200+134600FM-15+000099999V0200501N005119999999N999999999+02831+02301101221ADDMA1101221999999OC100671REMMET105MOBOB2 METAR XM20 //000 082346 040557Z AUTO 05010G13KT 28/23 A2989 RMK A02 SLP122 T02830230 PA029 DA1941=
0140008411999992016010406094+08200+134600FM-15+000099999V0200501N005119999999N999999999+02841+02291101221ADDMA1101221999999OC100621REMMET105MOBOB2 METAR XM20 //000 082346 040609Z AUTO 05010G12KT 28/23 A2989 RMK A02 SLP122 T02840229 PA029 DA1951=
0140008411999992016010406214+08200+134600FM-15+000099999V0200501N004619999999N999999999+02831+02271101221ADDMA1101221999999OC100621REMMET105MOBOB2 METAR XM20 //000 082346 040621Z AUTO 05009G12KT 28/23 A2989 RMK A02 SLP122 T02830227 PA029 DA1936=
0129008411999992016010406334+08200+134600FM-15+000099999V0200501N005119999999N999999999+02841+02301101221ADDMA1101221999999REMMET102MOBOB2 METAR XM20 //000 082346 040633Z AUTO 05010KT 28/23 A2989 RMK A02 SLP122 T02840230 PA029 DA1953=
0140008411999992016010406454+08200+134600FM-15+000099999V0200501N005119999999N999999999+02831+02291101221ADDMA1101221999999OC100621REMMET105MOBOB2 METAR XM20 //000 082346 040645Z AUTO 05010G12KT 28/23 A2989 RMK A02 SLP122 T02830229 PA029 DA1940=
0140008411999992016010406574+08200+134600FM-15+000099999V0200501N004619999999N999999999+02851+02311101221ADDMA1101221999999OC100621REMMET105MOBOB2 METAR XM20 //000 082346 040657Z AUTO 05009G12KT 29/23 A2989 RMK A02 SLP122 T02850231 PA029 DA1966=
0129008411999992016010407094+08200+134600FM-15+000099999V0200501N004619999999N999999999+02831+02311101221ADDMA1101221999999REMMET102MOBOB2 METAR XM20 //000 082346 040709Z AUTO 05009KT 28/23 A2989 RMK A02 SLP122 T02830231 PA029 DA1944=
0129008411999992016010407204+08200+134600FM-15+000099999V0200501N004619999999N999999999+02831+02321101221ADDMA1101221999999REMMET102MOBOB2 METAR XM20 //000 082346 040720Z AUTO 05009KT 28/23 A2989 RMK A02 SLP122 T02830232 PA029 DA1946=
0140008411999992016010407324+08200+134600FM-15+000099999V0200601N005119999999N999999999+02821+02311101221ADDMA1101221999999OC100671REMMET105MOBOB2 METAR XM20 //000 082346 040732Z AUTO 06010G13KT 28/23 A2989 RMK A02 SLP122 T02820231 PA029 DA1933=
0129008411999992016010407444+08200+134600FM-15+000099999V0200501N005119999999N999999999+02831+02361101221ADDMA1101221999999REMMET102MOBOB2 METAR XM20 //000 082346 040744Z AUTO 05010KT 28/24 A2989 RMK A02 SLP122 T02830236 PA029 DA1954=
0129008411999992016010407554+08200+134600FM-15+000099999V0200501N005119999999N999999999+02821+02331101261ADDMA1101251999999REMMET102MOBOB2 METAR XM20 //000 082346 040755Z AUTO 05010KT 28/23 A2990 RMK A02 SLP126 T02820233 PA020 DA1924=
