0078010014999992016010314204+59792+005341FM-15+004999999V0201201N008819999999Y999999999+00001-01301999999ADDMA1101201999999REMMET051METAR COR ENSO 031420Z 12017KT CAVOK M00/M13 Q1012=
0074010014999992016010314504+59792+005341FM-15+004999999V0201201N007219999999Y999999999-00101-01201999999ADDMA1101201999999REMMET047METAR ENSO 031450Z 12014KT CAVOK M01/M12 Q1012=
0074010014999992016010315204+59792+005341FM-15+004999999V0201201N007719999999Y999999999-00101-01201999999ADDMA1101101999999REMMET047METAR ENSO 031520Z 12015KT CAVOK M01/M12 Q1011=
0074010014999992016010315504+59792+005341FM-15+004999999V0201201N008219999999Y999999999-00101-01201999999ADDMA1101101999999REMMET047METAR ENSO 031550Z 12016KT CAVOK M01/M12 Q1011=
0074010014999992016010316204+59792+005341FM-15+004999999V0201101N009819999999Y999999999-00101-01401999999ADDMA1101101999999REMMET047METAR ENSO 031620Z 11019KT CAVOK M01/M14 Q1011=
0082010014999992016010316504+59792+005341FM-15+004999999V0201101V007719999999Y999999999-00101-01401999999ADDMA1101101999999REMMET055METAR ENSO 031650Z 11015KT 080V140 CAVOK M01/M14 Q1011=
0074010014999992016010317204+59792+005341FM-15+004999999V0201201N008819999999Y999999999-00101-01301999999ADDMA1101001999999REMMET047METAR ENSO 031720Z 12017KT CAVOK M01/M13 Q1010=
0074010014999992016010317504+59792+005341FM-15+004999999V0201201N007719999999Y999999999-00101-01301999999ADDMA1101001999999REMMET047METAR ENSO 031750Z 12015KT CAVOK M01/M13 Q1010=
0074010014999992016010318204+59792+005341FM-15+004999999V0201201N007719999999Y999999999-00101-01301999999ADDMA1100901999999REMMET047METAR ENSO 031820Z 12015KT CAVOK M01/M13 Q1009=
0074010014999992016010318504+59792+005341FM-15+004999999V0201201N007219999999Y999999999-00101-01301999999ADDMA1100901999999REMMET047METAR ENSO 031850Z 12014KT CAVOK M01/M13 Q1009=
0093010014999992016010319204+59792+005341FM-15+004999999V0201201V005719999999Y999999999-00101-01301999999ADDMA1100901999999OC101081REMMET058METAR ENSO 031920Z 12011G21KT 080V150 CAVOK M01/M13 Q1009=
0082010014999992016010319504+59792+005341FM-15+004999999V0201401V003619999999Y999999999-00101-01301999999ADDMA1100801999999REMMET055METAR ENSO 031950Z 14007KT 100V250 CAVOK M01/M13 Q1008=
0082010014999992016010320204+59792+005341FM-15+004999999V0201301V005119999999Y999999999-00101-01301999999ADDMA1100801999999REMMET055METAR ENSO 032020Z 13010KT 090V170 CAVOK M01/M13 Q1008=
0082010014999992016010320504+59792+005341FM-15+004999999V0201401V006219999999Y999999999-00101-01301999999ADDMA1100801999999REMMET055METAR ENSO 032050Z 14012KT 110V170 CAVOK M01/M13 Q1008=
0083010014999992016010321204+59792+005341FM-15+004999999V0209999V999999999999Y999999999-00101-01301999999ADDMA1100701999999REMMET056METAR ENSO 032120Z 143009KT 100V180 CAVOK M01/M13 Q1007=
0074010014999992016010403504+59792+005341FM-15+004999999V0201901N001519999999Y999999999-00301-01101999999ADDMA1100501999999REMMET047METAR ENSO 040350Z 19003KT CAVOK M03/M11 Q1005=
0074010014999992016010404204+59792+005341FM-15+004999999V0201101N001519999999Y999999999-00301-01101999999ADDMA1100401999999REMMET047METAR ENSO 040420Z 11003KT CAVOK M03/M11 Q1004=
0074010014999992016010404504+59792+005341FM-15+004999999V0201301N005719999999Y999999999-00201-01101999999ADDMA1100401999999REMMET047METAR ENSO 040450Z 13011KT CAVOK M02/M11 Q1004=
0074010014999992016010405204+59792+005341FM-15+004999999V0201001N003119999999Y999999999-00201-01201999999ADDMA1100401999999REMMET047METAR ENSO 040520Z 10006KT CAVOK M02/M12 Q1004=
0074010014999992016010405504+59792+005341FM-15+004999999V0201101N002619999999Y999999999-00301-01201999999ADDMA1100401999999REMMET047METAR ENSO 040550Z 11005KT CAVOK M03/M12 Q1004=
0074010014999992016010406204+59792+005341FM-15+004999999V0201201N003119999999Y999999999-00301-01201999999ADDMA1100301999999REMMET047METAR ENSO 040620Z 12006KT CAVOK M03/M12 Q1003=
0074010014999992016010406504+59792+005341FM-15+004999999V0201001N002119999999Y999999999-00201-01201999999ADDMA1100301999999REMMET047METAR ENSO 040650Z 10004KT CAVOK M02/M12 Q1003=
0082010014999992016010407204+59792+005341FM-15+004999999V0201001V003119999999Y999999999-00201-01201999999ADDMA1100301999999REMMET055METAR ENSO 040720Z 10006KT 060V130 CAVOK M02/M12 Q1003=
0082010014999992016010407504+59792+005341FM-15+004999999V0201001V003619999999Y999999999-00301-01101999999ADDMA1100301999999REMMET055METAR ENSO 040750Z 10007KT 080V150 CAVOK M03/M11 Q1003=
0082010014999992016010408204+59792+005341FM-15+004999999V0201001V002119999999Y999999999-00301-01201999999ADDMA1100301999999REMMET055METAR ENSO 040820Z 10004KT 070V130 CAVOK M03/M12 Q1003=
0082010014999992016010408504+59792+005341FM-15+004999999V0200901V002619999999Y999999999-00301-01201999999ADDMA1100301999999REMMET055METAR ENSO 040850Z 09005KT 050V120 CAVOK M03/M12 Q1003=
0074010014999992016010409204+59792+005341FM-15+004999999V0200901N001519999999Y999999999-00301-01201999999ADDMA1100401999999REMMET047METAR ENSO 040920Z 09003KT CAVOK M03/M12 Q1004=
0074010014999992016010409504+59792+005341FM-15+004999999V0200601N002119999999Y999999999-00201-01201999999ADDMA1100401999999REMMET047METAR ENSO 040950Z 06004KT CAVOK M02/M12 Q1004=
0074010014999992016010410204+59792+005341FM-15+004999999V0200801N002619999999Y999999999-00201-01201999999ADDMA1100401999999REMMET047METAR ENSO 041020Z 08005KT CAVOK M02/M12 Q1004=
0082010014999992016010410504+59792+005341FM-15+004999999V0200901V003119999999Y999999999-00201-01201999999ADDMA1100301999999REMMET055METAR ENSO 041050Z 09006KT 050V120 CAVOK M02/M12 Q1003=
0082010014999992016010411204+59792+005341FM-15+004999999V0201001V003119999999Y999999999-00101-01101999999ADDMA1100301999999REMMET055METAR ENSO 041120Z 10006KT 050V130 CAVOK M01/M11 Q1003=
0074010014999992016010412204+59792+005341FM-15+004999999V0201001N001519999999Y999999999-00101-01101999999ADDMA1100301999999REMMET047METAR ENSO 041220Z 10003KT CAVOK M01/M11 Q1003=
0074010014999992016010412504+59792+005341FM-15+004999999V0200901N002119999999Y999999999-00101-01201999999ADDMA1100301999999REMMET047METAR ENSO 041250Z 09004KT CAVOK M01/M12 Q1003=
0074010014999992016010413204+59792+005341FM-15+004999999V0200801N002619999999Y999999999-00101-01201999999ADDMA1100301999999REMMET047METAR ENSO 041320Z 08005KT CAVOK M01/M12 Q1003=
0074010014999992016010414504+59792+005341FM-15+004999999V0201101N002619999999Y999999999-00301-01201999999ADDMA1100301999999REMMET047METAR ENSO 041450Z 11005KT CAVOK M03/M12 Q1003=
0074010014999992016010415204+59792+005341FM-15+004999999V0200901N003119999999Y999999999-00301-01201999999ADDMA1100301999999REMMET047METAR ENSO 041520Z 09006KT CAVOK M03/M12 Q1003=
0074010014999992016010415504+59792+005341FM-15+004999999V0200901N003619999999Y999999999-00301-01201999999ADDMA1100301999999REMMET047METAR ENSO 041550Z 09007KT CAVOK M03/M12 Q1003=
0074010014999992016010417204+59792+005341FM-15+004999999V0201101N003619999999Y999999999-00301-01101999999ADDMA1100301999999REMMET047METAR ENSO 041720Z 11007KT CAVOK M03/M11 Q1003=
0074010014999992016010417504+59792+005341FM-15+004999999V0201101N004119999999Y999999999-00301-01201999999ADDMA1100301999999REMMET047METAR ENSO 041750Z 11008KT CAVOK M03/M12 Q1003=
0074010014999992016010418204+59792+005341FM-15+004999999V0201101N003619999999Y999999999-00401-01101999999ADDMA1100301999999REMMET047METAR ENSO 041820Z 11007KT CAVOK M04/M11 Q1003=
0074010014999992016010504504+59792+005341FM-15+004999999V0201001N003119999999Y999999999-00301-01201999999ADDMA1100401999999REMMET047METAR ENSO 050450Z 10006KT CAVOK M03/M12 Q1004=
0074010014999992016010505504+59792+005341FM-15+004999999V0209999V001519999999Y999999999-00201-01101999999ADDMA1100401999999REMMET047METAR ENSO 050550Z VRB03KT CAVOK M02/M11 Q1004=
0074010014999992016010506504+59792+005341FM-15+004999999V0209999V001519999999Y999999999-00301-01101999999ADDMA1100401999999REMMET047METAR ENSO 050650Z VRB03KT CAVOK M03/M11 Q1004=
0074010014999992016010507204+59792+005341FM-15+004999999V0209999V001019999999Y999999999-00201-01101999999ADDMA1100501999999REMMET047METAR ENSO 050720Z VRB02KT CAVOK M02/M11 Q1005=
0074010014999992016010508204+59792+005341FM-15+004999999V0201001N002619999999Y999999999-00201-01001999999ADDMA1100501999999REMMET047METAR ENSO 050820Z 10005KT CAVOK M02/M10 Q1005=
0074010014999992016010508504+59792+005341FM-15+004999999V0200901N003119999999Y999999999-00201-01001999999ADDMA1100601999999REMMET047METAR ENSO 050850Z 09006KT CAVOK M02/M10 Q1006=
0074010014999992016010509204+59792+005341FM-15+004999999V0200901N002619999999Y999999999-00201-01001999999ADDMA1100601999999REMMET047METAR ENSO 050920Z 09005KT CAVOK M02/M10 Q1006=
0074010014999992016010509504+59792+005341FM-15+004999999V0200901N003119999999Y999999999-00201-01001999999ADDMA1100601999999REMMET047METAR ENSO 050950Z 09006KT CAVOK M02/M10 Q1006=
0074010014999992016010510204+59792+005341FM-15+004999999V0200901N002119999999Y999999999-00201-01001999999ADDMA1100601999999REMMET047METAR ENSO 051020Z 09004KT CAVOK M02/M10 Q1006=
0074010014999992016010510504+59792+005341FM-15+004999999V0201001N002619999999Y999999999-00101-01001999999ADDMA1100601999999REMMET047METAR ENSO 051050Z 10005KT CAVOK M01/M10 Q1006=
0074010014999992016010511204+59792+005341FM-15+004999999V0200901N003119999999Y999999999-00101-01001999999ADDMA1100601999999REMMET047METAR ENSO 051120Z 09006KT CAVOK M01/M10 Q1006=
0074010014999992016010511504+59792+005341FM-15+004999999V0201001N003119999999Y999999999-00101-01001999999ADDMA1100601999999REMMET047METAR ENSO 051150Z 10006KT CAVOK M01/M10 Q1006=
0082010014999992016010512504+59792+005341FM-15+004999999V0201001V003119999999Y999999999-00101-00901999999ADDMA1100601999999REMMET055METAR ENSO 051250Z 10006KT 050V140 CAVOK M01/M09 Q1006=
0082010014999992016010513504+59792+005341FM-15+004999999V0201201V004119999999Y999999999-00101-00901999999ADDMA1100701999999REMMET055METAR ENSO 051350Z 12008KT 080V150 CAVOK M01/M09 Q1007=
0074010014999992016010514204+59792+005341FM-15+004999999V0201201N003619999999Y999999999-00201-01101999999ADDMA1100701999999REMMET047METAR ENSO 051420Z 12007KT CAVOK M02/M11 Q1007=
0074010014999992016010514504+59792+005341FM-15+004999999V0201201N005719999999Y999999999-00101-01001999999ADDMA1100701999999REMMET047METAR ENSO 051450Z 12011KT CAVOK M01/M10 Q1007=
0074010014999992016010515504+59792+005341FM-15+004999999V0201201N004619999999Y999999999-00201-01101999999ADDMA1100701999999REMMET047METAR ENSO 051550Z 12009KT CAVOK M02/M11 Q1007=
0074010014999992016010516504+59792+005341FM-15+004999999V0201101N004119999999Y999999999-00201-01001999999ADDMA1100701999999REMMET047METAR ENSO 051650Z 11008KT CAVOK M02/M10 Q1007=
0074010014999992016010517204+59792+005341FM-15+004999999V0201201N002619999999Y999999999-00201-01001999999ADDMA1100701999999REMMET047METAR ENSO 051720Z 12005KT CAVOK M02/M10 Q1007=
0082010014999992016010518204+59792+005341FM-15+004999999V0201301V003119999999Y999999999-00201-01001999999ADDMA1100801999999REMMET055METAR ENSO 051820Z 13006KT 100V200 CAVOK M02/M10 Q1008=
0074010014999992016010604504+59792+005341FM-15+004999999V0200601N000519999999Y999999999-00401-01001999999ADDMA1101001999999REMMET047METAR ENSO 060450Z 06001KT CAVOK M04/M10 Q1010=
0074010014999992016010605504+59792+005341FM-15+004999999V0200901N003119999999Y999999999-00401-00901999999ADDMA1101001999999REMMET047METAR ENSO 060550Z 09006KT CAVOK M04/M09 Q1010=
0074010014999992016010606204+59792+005341FM-15+004999999V0200901N003119999999Y999999999-00401-00901999999ADDMA1101001999999REMMET047METAR ENSO 060620Z 09006KT CAVOK M04/M09 Q1010=
0074010014999992016010606504+59792+005341FM-15+004999999V0200901N003119999999Y999999999-00401-00901999999ADDMA1101001999999REMMET047METAR ENSO 060650Z 09006KT CAVOK M04/M09 Q1010=
0074010014999992016010607504+59792+005341FM-15+004999999V0201201N003119999999Y999999999-00401-00901999999ADDMA1101101999999REMMET047METAR ENSO 060750Z 12006KT CAVOK M04/M09 Q1011=
0074010014999992016010608204+59792+005341FM-15+004999999V0201201N003119999999Y999999999-00401-00901999999ADDMA1101101999999REMMET047METAR ENSO 060820Z 12006KT CAVOK M04/M09 Q1011=
0074010014999992016010608504+59792+005341FM-15+004999999V0201201N003119999999Y999999999-00401-00901999999ADDMA1101101999999REMMET047METAR ENSO 060850Z 12006KT CAVOK M04/M09 Q1011=
0074010014999992016010609204+59792+005341FM-15+004999999V0201601N003619999999Y999999999-00401-00801999999ADDMA1101101999999REMMET047METAR ENSO 060920Z 16007KT CAVOK M04/M08 Q1011=
0144010014999992016010610204+59792+005341FM-15+004999999V0201701N003119999999N009999199-00301-01001999999ADDGA1021+012191999GE19MSL   +99999+99999GF199999021999012191999999MA1101201999999REMMET053METAR ENSO 061020Z 17006KT 9999 FEW040 M03/M10 Q1012=
0144010014999992016010610504+59792+005341FM-15+004999999V0201601N003119999999N009999199-00301-01001999999ADDGA1041+012191999GE19MSL   +99999+99999GF199999041999012191999999MA1101201999999REMMET053METAR ENSO 061050Z 16006KT 9999 SCT040 M03/M10 Q1012=
0144010014999992016010611204+59792+005341FM-15+004999999V0201701N003119999999N009999199-00301-01101999999ADDGA1041+012191999GE19MSL   +99999+99999GF199999041999012191999999MA1101201999999REMMET053METAR ENSO 061120Z 17006KT 9999 SCT040 M03/M11 Q1012=
0144010014999992016010611504+59792+005341FM-15+004999999V0201501N002619999999N009999199-00201-01201999999ADDGA1021+012191999GE19MSL   +99999+99999GF199999021999012191999999MA1101201999999REMMET053METAR ENSO 061150Z 15005KT 9999 FEW040 M02/M12 Q1012=
0144010014999992016010612204+59792+005341FM-15+004999999V0201701N003119999999N009999199-00201-01201999999ADDGA1021+012191999GE19MSL   +99999+99999GF199999021999012191999999MA1101201999999REMMET053METAR ENSO 061220Z 17006KT 9999 FEW040 M02/M12 Q1012=
0074010014999992016010612504+59792+005341FM-15+004999999V0201801N004619999999Y999999999-00301-01201999999ADDMA1101101999999REMMET047METAR ENSO 061250Z 18009KT CAVOK M03/M12 Q1011=
0074010014999992016010613504+59792+005341FM-15+004999999V0201601N003119999999Y999999999-00301-01301999999ADDMA1101101999999REMMET047METAR ENSO 061350Z 16006KT CAVOK M03/M13 Q1011=
0074010014999992016010614204+59792+005341FM-15+004999999V0201001N002619999999Y999999999-00301-01301999999ADDMA1101101999999REMMET047METAR ENSO 061420Z 10005KT CAVOK M03/M13 Q1011=
0074010014999992016010615204+59792+005341FM-15+004999999V0201201N002619999999Y999999999-00401-01401999999ADDMA1101101999999REMMET047METAR ENSO 061520Z 12005KT CAVOK M04/M14 Q1011=
0074010014999992016010615504+59792+005341FM-15+004999999V0201201N004119999999Y999999999-00501-01301999999ADDMA1101101999999REMMET047METAR ENSO 061550Z 12008KT CAVOK M05/M13 Q1011=
0074010014999992016010616204+59792+005341FM-15+004999999V0201201N002619999999Y999999999-00501-01301999999ADDMA1101101999999REMMET047METAR ENSO 061620Z 12005KT CAVOK M05/M13 Q1011=
0074010014999992016010616504+59792+005341FM-15+004999999V0201101N002119999999Y999999999-00501-01301999999ADDMA1101101999999REMMET047METAR ENSO 061650Z 11004KT CAVOK M05/M13 Q1011=
0074010014999992016010617204+59792+005341FM-15+004999999V0201101N002119999999Y999999999-00501-01301999999ADDMA1101101999999REMMET047METAR ENSO 061720Z 11004KT CAVOK M05/M13 Q1011=
0074010014999992016010618204+59792+005341FM-15+004999999V0201201N004119999999Y999999999-00401-01301999999ADDMA1101001999999REMMET047METAR ENSO 061820Z 12008KT CAVOK M04/M13 Q1010=
0074010014999992016010704504+59792+005341FM-15+004999999V0201201N003619999999Y999999999-00401-01401999999ADDMA1100701999999REMMET047METAR ENSO 070450Z 12007KT CAVOK M04/M14 Q1007=
0074010014999992016010705504+59792+005341FM-15+004999999V0201601N003119999999Y999999999-00401-01201999999ADDMA1100601999999REMMET047METAR ENSO 070550Z 16006KT CAVOK M04/M12 Q1006=
0074010014999992016010706204+59792+005341FM-15+004999999V0201701N003619999999Y999999999-00401-01301999999ADDMA1100601999999REMMET047METAR ENSO 070620Z 17007KT CAVOK M04/M13 Q1006=
0074010014999992016010706504+59792+005341FM-15+004999999V0201701N004119999999Y999999999-00401-01301999999ADDMA1100601999999REMMET047METAR ENSO 070650Z 17008KT CAVOK M04/M13 Q1006=
0074010014999992016010708204+59792+005341FM-15+004999999V0201601N003119999999Y999999999-00401-01301999999ADDMA1100601999999REMMET047METAR ENSO 070820Z 16006KT CAVOK M04/M13 Q1006=
0074010014999992016010709204+59792+005341FM-15+004999999V0201001N004119999999Y999999999-00501-01201999999ADDMA1100501999999REMMET047METAR ENSO 070920Z 10008KT CAVOK M05/M12 Q1005=
0074010014999992016010709504+59792+005341FM-15+004999999V0201201N003619999999Y999999999-00401-01201999999ADDMA1100501999999REMMET047METAR ENSO 070950Z 12007KT CAVOK M04/M12 Q1005=
0074010014999992016010710204+59792+005341FM-15+004999999V0201201N004119999999Y999999999-00301-01201999999ADDMA1100401999999REMMET047METAR ENSO 071020Z 12008KT CAVOK M03/M12 Q1004=
0074010014999992016010710504+59792+005341FM-15+004999999V0201101N003619999999Y999999999-00301-01201999999ADDMA1100401999999REMMET047METAR ENSO 071050Z 11007KT CAVOK M03/M12 Q1004=
0074010014999992016010711204+59792+005341FM-15+004999999V0201201N002119999999Y999999999-00201-01001999999ADDMA1100301999999REMMET047METAR ENSO 071120Z 12004KT CAVOK M02/M10 Q1003=
0074010014999992016010711504+59792+005341FM-15+004999999V0201301N002119999999Y999999999-00201-01001999999ADDMA1100301999999REMMET047METAR ENSO 071150Z 13004KT CAVOK M02/M10 Q1003=
0074010014999992016010712504+59792+005341FM-15+004999999V0201501N002119999999Y999999999-00201-00901999999ADDMA1100301999999REMMET047METAR ENSO 071250Z 15004KT CAVOK M02/M09 Q1003=
0074010014999992016010713204+59792+005341FM-15+004999999V0201301N002119999999Y999999999-00201-00901999999ADDMA1100301999999REMMET047METAR ENSO 071320Z 13004KT CAVOK M02/M09 Q1003=
0074010014999992016010714204+59792+005341FM-15+004999999V0201001N002119999999Y999999999-00301-01001999999ADDMA1100301999999REMMET047METAR ENSO 071420Z 10004KT CAVOK M03/M10 Q1003=
0074010014999992016010714504+59792+005341FM-15+004999999V0201101N003119999999Y999999999-00401-01101999999ADDMA1100201999999REMMET047METAR ENSO 071450Z 11006KT CAVOK M04/M11 Q1002=
0074010014999992016010715204+59792+005341FM-15+004999999V0201101N003119999999Y999999999-00301-01201999999ADDMA1100201999999REMMET047METAR ENSO 071520Z 11006KT CAVOK M03/M12 Q1002=
0074010014999992016010715504+59792+005341FM-15+004999999V0201301N003119999999Y999999999-00401-01301999999ADDMA1100201999999REMMET047METAR ENSO 071550Z 13006KT CAVOK M04/M13 Q1002=
0074010014999992016010716204+59792+005341FM-15+004999999V0201201N004119999999Y999999999-00301-01301999999ADDMA1100101999999REMMET047METAR ENSO 071620Z 12008KT CAVOK M03/M13 Q1001=
0074010014999992016010716504+59792+005341FM-15+004999999V0201201N003119999999Y999999999-00401-01401999999ADDMA1100101999999REMMET047METAR ENSO 071650Z 12006KT CAVOK M04/M14 Q1001=
0074010014999992016010717204+59792+005341FM-15+004999999V0201201N004619999999Y999999999-00301-01301999999ADDMA1100101999999REMMET047METAR ENSO 071720Z 12009KT CAVOK M03/M13 Q1001=
0074010014999992016010718204+59792+005341FM-15+004999999V0201101N002619999999Y999999999-00301-01301999999ADDMA1100101999999REMMET047METAR ENSO 071820Z 11005KT CAVOK M03/M13 Q1001=
0074010014999992016010807204+59792+005341FM-15+004999999V0200901N002619999999Y999999999-00201-01001999999ADDMA1100001999999REMMET047METAR ENSO 080720Z 09005KT CAVOK M02/M10 Q1000=
0074010014999992016010807504+59792+005341FM-15+004999999V0200801N002119999999Y999999999-00201-01001999999ADDMA1100001999999REMMET047METAR ENSO 080750Z 08004KT CAVOK M02/M10 Q1000=
0074010014999992016010808204+59792+005341FM-15+004999999V0209999V000519999999Y999999999-00301-01001999999ADDMA1100001999999REMMET047METAR ENSO 080820Z VRB01KT CAVOK M03/M10 Q1000=
0074010014999992016010808504+59792+005341FM-15+004999999V0209999V000519999999Y999999999-00301-00901999999ADDMA1100001999999REMMET047METAR ENSO 080850Z VRB01KT CAVOK M03/M09 Q1000=
0082010014999992016010809204+59792+005341FM-15+004999999V0201101V002119999999Y999999999-00201-01001999999ADDMA1100001999999REMMET055METAR ENSO 080920Z 11004KT 030V230 CAVOK M02/M10 Q1000=
0074010014999992016010810204+59792+005341FM-15+004999999V0201101N005119999999Y999999999-00201-01101999999ADDMA1100001999999REMMET047METAR ENSO 081020Z 11010KT CAVOK M02/M11 Q1000=
0074010014999992016010811204+59792+005341FM-15+004999999V0201001N004619999999Y999999999-00201-01101999999ADDMA1100001999999REMMET047METAR ENSO 081120Z 10009KT CAVOK M02/M11 Q1000=
0074010014999992016010812204+59792+005341FM-15+004999999V0200601N004619999999Y999999999-00101-01101999999ADDMA1100001999999REMMET047METAR ENSO 081220Z 06009KT CAVOK M01/M11 Q1000=
0074010014999992016010813204+59792+005341FM-15+004999999V0209999V000519999999Y999999999-00201-01101999999ADDMA1100001999999REMMET047METAR ENSO 081320Z VRB01KT CAVOK M02/M11 Q1000=
0074010014999992016010813504+59792+005341FM-15+004999999V0209999V001019999999Y999999999-00201-01101999999ADDMA1100001999999REMMET047METAR ENSO 081350Z VRB02KT CAVOK M02/M11 Q1000=
0074010014999992016010814204+59792+005341FM-15+004999999V0209999V000519999999Y999999999-00201-01101999999ADDMA1100001999999REMMET047METAR ENSO 081420Z VRB01KT CAVOK M02/M11 Q1000=
0074010014999992016010814504+59792+005341FM-15+004999999V0209999V001019999999Y999999999-00201-01101999999ADDMA1100001999999REMMET047METAR ENSO 081450Z VRB02KT CAVOK M02/M11 Q1000=
0074010014999992016010815204+59792+005341FM-15+004999999V0209999V001019999999Y999999999-00201-01101999999ADDMA1100001999999REMMET047METAR ENSO 081520Z VRB02KT CAVOK M02/M11 Q1000=
0074010014999992016010815504+59792+005341FM-15+004999999V0209999V000519999999Y999999999-00301-01101999999ADDMA1100101999999REMMET047METAR ENSO 081550Z VRB01KT CAVOK M03/M11 Q1001=
0074010014999992016010816204+59792+005341FM-15+004999999V0209999V001019999999Y999999999-00201-01101999999ADDMA1100101999999REMMET047METAR ENSO 081620Z VRB02KT CAVOK M02/M11 Q1001=
0074010014999992016010817504+59792+005341FM-15+004999999V0201301N003119999999Y999999999-00301-01101999999ADDMA1100101999999REMMET047METAR ENSO 081750Z 13006KT CAVOK M03/M11 Q1001=
0074010014999992016010818204+59792+005341FM-15+004999999V0201101N003619999999Y999999999-00301-01101999999ADDMA1100101999999REMMET047METAR ENSO 081820Z 11007KT CAVOK M03/M11 Q1001=
0115010014999992016011014204+59792+005341FM-15+004999999V0201101N012919999999N999999999+00405-00405999999ADDMA1098405999999OC101801REMMET061METAR ENSO 101420Z 11025G35KT 9999SCT050 BKN076 04/M04 Q0984=EQDD01      0ADE693
0166010014999992016011014504+59792+005341FM-15+004999999V0201101N011810213419N009999199+00401-00401999999ADDGA1041+014021999GA2071+021341999GE19MSL   +99999+99999GF199999041999014021999999MA1098401999999REMMET059METAR ENSO 101450Z 11023KT 9999 SCT046 BKN070 04/M04 Q0984=
0154010014999992016011015204+59792+005341FM-15+004999999V0201101N010810143319N009999199+00401-00401999999ADDGA1071+014331999GE19MSL   +99999+99999GF199999071999014331999999MA1098401999999OC101701REMMET055METAR ENSO 101520Z 11021G33KT 9999 BKN047 04/M04 Q0984=
0154010014999992016011015504+59792+005341FM-15+004999999V0201101N012410140219N009999199+00401-00401999999ADDGA1071+014021999GE19MSL   +99999+99999GF199999071999014021999999MA1098401999999OC101751REMMET055METAR ENSO 101550Z 11024G34KT 9999 BKN046 04/M04 Q0984=
0154010014999992016011016204+59792+005341FM-15+004999999V0201101N011810143319N009999199+00401-00501999999ADDGA1071+014331999GE19MSL   +99999+99999GF199999071999014331999999MA1098401999999OC101701REMMET055METAR ENSO 101620Z 11023G33KT 9999 BKN047 04/M05 Q0984=
0154010014999992016011017204+59792+005341FM-15+004999999V0201101N011310152419N009999199+00501-00501999999ADDGA1071+015241999GE19MSL   +99999+99999GF199999071999015241999999MA1098401999999OC101701REMMET055METAR ENSO 101720Z 11022G33KT 9999 BKN050 05/M05 Q0984=
0154010014999992016011017504+59792+005341FM-15+004999999V0201101N011810152419N009999199+00501-00501999999ADDGA1071+015241999GE19MSL   +99999+99999GF199999071999015241999999MA1098401999999OC101801REMMET055METAR ENSO 101750Z 11023G35KT 9999 BKN050 05/M05 Q0984=
0143010014999992016011018204+59792+005341FM-15+004999999V0201101N013919999999N009999199+00501-00501999999ADDGA1041+015241999GE19MSL   +99999+99999GF199999041999015241999999MA1098401999999REMMET052METAR ENSO 101820Z 11027KT 9999 SCT050 05/M05 Q0984=
0143010014999992016011018504+59792+005341FM-15+004999999V0201101N013419999999N009999199+00401-00501999999ADDGA1041+015241999GE19MSL   +99999+99999GF199999041999015241999999MA1098401999999REMMET052METAR ENSO 101850Z 11026KT 9999 SCT050 04/M05 Q0984=
0073010014999992016011019204+59792+005341FM-15+004999999V0201101N012419999999Y999999999+00501-00401999999ADDMA1098401999999REMMET046METAR ENSO 101920Z 11024KT CAVOK 05/M04 Q0984=
0084010014999992016011020204+59792+005341FM-15+004999999V0201201N010819999999Y999999999+00501-00401999999ADDMA1098401999999OC101651REMMET049METAR ENSO 102020Z 12021G32KT CAVOK 05/M04 Q0984=
0073010014999992016011020504+59792+005341FM-15+004999999V0201201N010819999999Y999999999+00501-00401999999ADDMA1098501999999REMMET046METAR ENSO 102050Z 12021KT CAVOK 05/M04 Q0985=
0143010014999992016011021204+59792+005341FM-15+004999999V0201201N010319999999N009999199+00501-00401999999ADDGA1041+014331999GE19MSL   +99999+99999GF199999041999014331999999MA1098501999999REMMET052METAR ENSO 102120Z 12020KT 9999 SCT047 05/M04 Q0985=
0143010014999992016011021504+59792+005341FM-15+004999999V0201201N009319999999N009999199+00501-00401999999ADDGA1041+013721999GE19MSL   +99999+99999GF199999041999013721999999MA1098501999999REMMET052METAR ENSO 102150Z 12018KT 9999 SCT045 05/M04 Q0985=
0143010014999992016011103504+59792+005341FM-15+004999999V0201201N009319999999N009999199+00501-00401999999ADDGA1021+009141999GE19MSL   +99999+99999GF199999021999009141999999MA1098601999999REMMET052METAR ENSO 110350Z 12018KT 9999 FEW030 05/M04 Q0986=
0151010014999992016011104204+59792+005341FM-15+004999999V0201101V009819999999N009999199+00501-00401999999ADDGA1021+009141999GE19MSL   +99999+99999GF199999021999009141999999MA1098601999999REMMET060METAR ENSO 110420Z 11019KT 090V150 9999 FEW030 05/M04 Q0986=
0143010014999992016011104504+59792+005341FM-15+004999999V0201101N008219999999N009999199+00501-00401999999ADDGA1021+009141999GE19MSL   +99999+99999GF199999021999009141999999MA1098601999999REMMET052METAR ENSO 110450Z 11016KT 9999 FEW030 05/M04 Q0986=
0143010014999992016011105204+59792+005341FM-15+004999999V0201101N007219999999N009999199+00501-00401999999ADDGA1021+009141999GE19MSL   +99999+99999GF199999021999009141999999MA1098601999999REMMET052METAR ENSO 110520Z 11014KT 9999 FEW030 05/M04 Q0986=
0143010014999992016011105504+59792+005341FM-15+004999999V0201101N006719999999N009999199+00501-00401999999ADDGA1021+009141999GE19MSL   +99999+99999GF199999021999009141999999MA1098601999999REMMET052METAR ENSO 110550Z 11013KT 9999 FEW030 05/M04 Q0986=
0143010014999992016011106204+59792+005341FM-15+004999999V0201101N007719999999N009999199+00501-00401999999ADDGA1021+009141999GE19MSL   +99999+99999GF199999021999009141999999MA1098601999999REMMET052METAR ENSO 110620Z 11015KT 9999 FEW030 05/M04 Q0986=
0143010014999992016011106504+59792+005341FM-15+004999999V0201101N007719999999N009999199+00501-00501999999ADDGA1021+009141999GE19MSL   +99999+99999GF199999021999009141999999MA1098601999999REMMET052METAR ENSO 110650Z 11015KT 9999 FEW030 05/M05 Q0986=
0143010014999992016011107204+59792+005341FM-15+004999999V0201101N007719999999N009999199+00401-00401999999ADDGA1021+009141999GE19MSL   +99999+99999GF199999021999009141999999MA1098601999999REMMET052METAR ENSO 110720Z 11015KT 9999 FEW030 04/M04 Q0986=
0151010014999992016011107504+59792+005341FM-15+004999999V0201101V006219999999N009999199+00401-00401999999ADDGA1021+009141999GE19MSL   +99999+99999GF199999021999009141999999MA1098701999999REMMET060METAR ENSO 110750Z 11012KT 090V150 9999 FEW030 04/M04 Q0987=
0143010014999992016011108204+59792+005341FM-15+004999999V0201101N006719999999N009999199+00401-00401999999ADDGA1021+009141999GE19MSL   +99999+99999GF199999021999009141999999MA1098701999999REMMET052METAR ENSO 110820Z 11013KT 9999 FEW030 04/M04 Q0987=
0143010014999992016011108504+59792+005341FM-15+004999999V0201101N006219999999N009999199+00401-00401999999ADDGA1021+009141999GE19MSL   +99999+99999GF199999021999009141999999MA1098701999999REMMET052METAR ENSO 110850Z 11012KT 9999 FEW030 04/M04 Q0987=
0143010014999992016011109204+59792+005341FM-15+004999999V0201101N006219999999N009999199+00401-00401999999ADDGA1021+009141999GE19MSL   +99999+99999GF199999021999009141999999MA1098701999999REMMET052METAR ENSO 110920Z 11012KT 9999 FEW030 04/M04 Q0987=
0073010014999992016011109504+59792+005341FM-15+004999999V0201101N004119999999Y999999999+00401-00501999999ADDMA1098801999999REMMET046METAR ENSO 110950Z 11008KT CAVOK 04/M05 Q0988=
0081010014999992016011110204+59792+005341FM-15+004999999V0201101V003619999999Y999999999+00401-00501999999ADDMA1098801999999REMMET054METAR ENSO 111020Z 11007KT 070V150 CAVOK 04/M05 Q0988=
0081010014999992016011110504+59792+005341FM-15+004999999V0201101V003119999999Y999999999+00401-00501999999ADDMA1098801999999REMMET054METAR ENSO 111050Z 11006KT 060V200 CAVOK 04/M05 Q0988=
0081010014999992016011111204+59792+005341FM-15+004999999V0201001V003619999999Y999999999+00401-00501999999ADDMA1098801999999REMMET054METAR ENSO 111120Z 10007KT 030V160 CAVOK 04/M05 Q0988=
0081010014999992016011111504+59792+005341FM-15+004999999V0201101V003619999999Y999999999+00401-00501999999ADDMA1098801999999REMMET054METAR ENSO 111150Z 11007KT 070V160 CAVOK 04/M05 Q0988=
0081010014999992016011112204+59792+005341FM-15+004999999V0200901V003119999999Y999999999+00401-00501999999ADDMA1098801999999REMMET054METAR ENSO 111220Z 09006KT 060V150 CAVOK 04/M05 Q0988=
0073010014999992016011112504+59792+005341FM-15+004999999V0201001N004619999999Y999999999+00401-00501999999ADDMA1098801999999REMMET046METAR ENSO 111250Z 10009KT CAVOK 04/M05 Q0988=
0073010014999992016011113204+59792+005341FM-15+004999999V0201101N005719999999Y999999999+00501-00501999999ADDMA1098801999999REMMET046METAR ENSO 111320Z 11011KT CAVOK 05/M05 Q0988=
0081010014999992016011113504+59792+005341FM-15+004999999V0201101V005719999999Y999999999+00401-00501999999ADDMA1098801999999REMMET054METAR ENSO 111350Z 11011KT 070V140 CAVOK 04/M05 Q0988=
0073010014999992016011114204+59792+005341FM-15+004999999V0201001N005719999999Y999999999+00401-00501999999ADDMA1098801999999REMMET046METAR ENSO 111420Z 10011KT CAVOK 04/M05 Q0988=
0081010014999992016011115204+59792+005341FM-15+004999999V0201001V004619999999Y999999999+00401-00501999999ADDMA1098901999999REMMET054METAR ENSO 111520Z 10009KT 080V140 CAVOK 04/M05 Q0989=
0081010014999992016011115504+59792+005341FM-15+004999999V0201001V005119999999Y999999999+00401-00501999999ADDMA1098901999999REMMET054METAR ENSO 111550Z 10010KT 080V140 CAVOK 04/M05 Q0989=
0081010014999992016011116204+59792+005341FM-15+004999999V0201001V004619999999Y999999999+00401-00501999999ADDMA1098901999999REMMET054METAR ENSO 111620Z 10009KT 060V120 CAVOK 04/M05 Q0989=
0081010014999992016011116504+59792+005341FM-15+004999999V0201001V003619999999Y999999999+00401-00601999999ADDMA1098901999999REMMET054METAR ENSO 111650Z 10007KT 060V140 CAVOK 04/M06 Q0989=
0081010014999992016011117204+59792+005341FM-15+004999999V0201001V003619999999Y999999999+00301-00601999999ADDMA1099001999999REMMET054METAR ENSO 111720Z 10007KT 060V140 CAVOK 03/M06 Q0990=
0081010014999992016011117504+59792+005341FM-15+004999999V0201001V004119999999Y999999999+00301-00601999999ADDMA1098901999999REMMET054METAR ENSO 111750Z 10008KT 070V150 CAVOK 03/M06 Q0989=
0081010014999992016011118204+59792+005341FM-15+004999999V0201001V004119999999Y999999999+00301-00601999999ADDMA1099001999999REMMET054METAR ENSO 111820Z 10008KT 060V120 CAVOK 03/M06 Q0990=
0073010014999992016011204504+59792+005341FM-15+004999999V0209999V001019999999Y999999999+00001-00301999999ADDMA1099301999999REMMET046METAR ENSO 120450Z VRB02KT CAVOK 00/M03 Q0993=
0073010014999992016011205204+59792+005341FM-15+004999999V0203401N001519999999Y999999999+00001-00201999999ADDMA1099301999999REMMET046METAR ENSO 120520Z 34003KT CAVOK 00/M02 Q0993=
0074010014999992016011205504+59792+005341FM-15+004999999V0203501N001519999999Y999999999+00001-00201999999ADDMA1099301999999REMMET047METAR ENSO 120550Z 35003KT CAVOK M00/M02 Q0993=
0074010014999992016011206204+59792+005341FM-15+004999999V0209999V000519999999Y999999999-00101-00201999999ADDMA1099301999999REMMET047METAR ENSO 120620Z VRB01KT CAVOK M01/M02 Q0993=
0074010014999992016011206504+59792+005341FM-15+004999999V0203401N000519999999Y999999999+00001-00101999999ADDMA1099301999999REMMET047METAR ENSO 120650Z 34001KT CAVOK M00/M01 Q0993=
0074010014999992016011207204+59792+005341FM-15+004999999V0209999V000519999999Y999999999-00101-00101999999ADDMA1099301999999REMMET047METAR ENSO 120720Z VRB01KT CAVOK M01/M01 Q0993=
0074010014999992016011207504+59792+005341FM-15+004999999V0209999C000019999999Y999999999+00001-00101999999ADDMA1099301999999REMMET047METAR ENSO 120750Z 00000KT CAVOK M00/M01 Q0993=
0074010014999992016011208504+59792+005341FM-15+004999999V0203301N000519999999Y999999999-00101-00301999999ADDMA1099401999999REMMET047METAR ENSO 120850Z 33001KT CAVOK M01/M03 Q0994=
0074010014999992016011209204+59792+005341FM-15+004999999V0209999V001019999999Y999999999-00101-00501999999ADDMA1099401999999REMMET047METAR ENSO 120920Z VRB02KT CAVOK M01/M05 Q0994=
0073010014999992016011210204+59792+005341FM-15+004999999V0202301N001019999999Y999999999+00001-00501999999ADDMA1099501999999REMMET046METAR ENSO 121020Z 23002KT CAVOK 00/M05 Q0995=
0074010014999992016011210504+59792+005341FM-15+004999999V0209999C000019999999Y999999999+00001-00301999999ADDMA1099501999999REMMET047METAR ENSO 121050Z 00000KT CAVOK M00/M03 Q0995=
0073010014999992016011211204+59792+005341FM-15+004999999V0209999V000519999999Y999999999+00001-00301999999ADDMA1099501999999REMMET046METAR ENSO 121120Z VRB01KT CAVOK 00/M03 Q0995=
0073010014999992016011211504+59792+005341FM-15+004999999V0209999V000519999999Y999999999+00101-00301999999ADDMA1099501999999REMMET046METAR ENSO 121150Z VRB01KT CAVOK 01/M03 Q0995=
0073010014999992016011212504+59792+005341FM-15+004999999V0209999V001019999999Y999999999+00301-00401999999ADDMA1099501999999REMMET046METAR ENSO 121250Z VRB02KT CAVOK 03/M04 Q0995=
0073010014999992016011213504+59792+005341FM-15+004999999V0201501N001519999999Y999999999+00201-00501999999ADDMA1099601999999REMMET046METAR ENSO 121350Z 15003KT CAVOK 02/M05 Q0996=
0143010014999992016011214204+59792+005341FM-15+004999999V0209999V001019999999N009999199+00101-00401999999ADDGA1041+021341999GE19MSL   +99999+99999GF199999041999021341999999MA1099601999999REMMET052METAR ENSO 121420Z VRB02KT 9999 SCT070 01/M04 Q0996=
0143010014999992016011214504+59792+005341FM-15+004999999V0209999V000519999999N009999199+00101-00401999999ADDGA1041+024381999GE19MSL   +99999+99999GF199999041999024381999999MA1099601999999REMMET052METAR ENSO 121450Z VRB01KT 9999 SCT080 01/M04 Q0996=
0143010014999992016011215204+59792+005341FM-15+004999999V0201001N001519999999N009999199+00101-00401999999ADDGA1041+018291999GE19MSL   +99999+99999GF199999041999018291999999MA1099601999999REMMET052METAR ENSO 121520Z 10003KT 9999 SCT060 01/M04 Q0996=
0143010014999992016011215504+59792+005341FM-15+004999999V0209999V001019999999N009999199+00001-00501999999ADDGA1041+018291999GE19MSL   +99999+99999GF199999041999018291999999MA1099701999999REMMET052METAR ENSO 121550Z VRB02KT 9999 SCT060 00/M05 Q0997=
0143010014999992016011217204+59792+005341FM-15+004999999V0209999V001519999999N009999199+00001-00401999999ADDGA1041+012191999GE19MSL   +99999+99999GF199999041999012191999999MA1099701999999REMMET052METAR ENSO 121720Z VRB03KT 9999 SCT040 00/M04 Q0997=
0143010014999992016011217504+59792+005341FM-15+004999999V0201101N002619999999N009999199+00101-00401999999ADDGA1041+012191999GE19MSL   +99999+99999GF199999041999012191999999MA1099701999999REMMET052METAR ENSO 121750Z 11005KT 9999 SCT040 01/M04 Q0997=
0143010014999992016011218204+59792+005341FM-15+004999999V0201001N003619999999N009999199+00101-00401999999ADDGA1041+012191999GE19MSL   +99999+99999GF199999041999012191999999MA1099701999999REMMET052METAR ENSO 121820Z 10007KT 9999 SCT040 01/M04 Q0997=
0143010014999992016011218504+59792+005341FM-15+004999999V0201201N003119999999N009999199+00101-00401999999ADDGA1041+012191999GE19MSL   +99999+99999GF199999041999012191999999MA1099801999999REMMET052METAR ENSO 121850Z 12006KT 9999 SCT040 01/M04 Q0998=
0166010014999992016011219504+59792+005341FM-15+004999999V0201301N00211012191CN009999199+00101-00401999999ADDGA1021+008531999GA2041+012191999GE19MSL   +99999+99999GF199999021999008531999999MA1099801999999REMMET059METAR ENSO 121950Z 13004KT 9999 FEW028 SCT040 01/M04 Q0998=
0166010014999992016011220204+59792+005341FM-15+004999999V0201201N00311012191CN009999199+00101-00401999999ADDGA1021+008531999GA2041+012191999GE19MSL   +99999+99999GF199999021999008531999999MA1099801999999REMMET059METAR ENSO 122020Z 12006KT 9999 FEW028 SCT040 01/M04 Q0998=
0166010014999992016011220504+59792+005341FM-15+004999999V0201301N00311012191CN009999199+00101-00401999999ADDGA1021+008531999GA2041+012191999GE19MSL   +99999+99999GF199999021999008531999999MA1099801999999REMMET059METAR ENSO 122050Z 13006KT 9999 FEW028 SCT040 01/M04 Q0998=
0178010014999992016011304504+59792+005341FM-15+004999999V0201301N004610036619N004500199+00101+00001999999ADDGA1041+001831999GA2071+003661999GE19MSL   +99999+99999GF199999041999001831999999MA1100101999999MW1681REMMET065METAR ENSO 130450Z 13009KT 4500 -SNRA SCT006 BKN012 01/M00 Q1001=
0154010014999992016011305204+59792+005341FM-15+004999999V0201301N00511002741WN004000199+00001+00001999999ADDGA1091+002741999GE19MSL   +99999+99999GF109991091999002741999999MA1100101999999MW1681REMMET057METAR ENSO 130520Z 13010KT 4000 -SNRA VV009 00/M00 Q1001=
0178010014999992016011305504+59792+005341FM-15+004999999V0201301N004610030519N006000199+00101+00001999999ADDGA1021+001831999GA2071+003051999GE19MSL   +99999+99999GF199999021999001831999999MA1100101999999MW1681REMMET065METAR ENSO 130550Z 13009KT 6000 -SNRA FEW006 BKN010 01/M00 Q1001=
0165010014999992016011306204+59792+005341FM-15+004999999V0201301N005110033519N009999199+00101+00001999999ADDGA1021+002441999GA2071+003351999GE19MSL   +99999+99999GF199999021999002441999999MA1100101999999REMMET058METAR ENSO 130620Z 13010KT 9999 FEW008 BKN011 01/00 Q1001=
0142010014999992016011306504+59792+005341FM-15+004999999V0201401N005110033519N009999199+00101+00001999999ADDGA1071+003351999GE19MSL   +99999+99999GF199999071999003351999999MA1100101999999REMMET051METAR ENSO 130650Z 14010KT 9999 BKN011 01/00 Q1001=
0142010014999992016011307204+59792+005341FM-15+004999999V0201301N005710030519N009999199+00101+00001999999ADDGA1071+003051999GE19MSL   +99999+99999GF199999071999003051999999MA1100201999999REMMET051METAR ENSO 130720Z 13011KT 9999 BKN010 01/00 Q1002=
0152010014999992016011307504+59792+005341FM-15+004999999V0201301N00571001831WN003500199+00101+00001999999ADDGA1091+001831999GE19MSL   +99999+99999GF109991091999001831999999MA1100201999999MW1711REMMET055METAR ENSO 130750Z 13011KT 3500 -SN VV006 01/M00 Q1002=
0129010014999992016011308204+59792+005341FM-15+004999999V0201301N005719999999N009999199+00105+00005999999ADDMA1100205999999MW1715REMMET077METAR ENSO 130820Z 13011KT 9999 6000NNE -SN FEW006 SCT009 BKN013 01/00 Q1002=EQDD01      0ADE735
0153010014999992016011308504+59792+005341FM-15+004999999V0201301N005710027419N004000199+00101+00001999999ADDGA1071+002741999GE19MSL   +99999+99999GF199999071999002741999999MA1100201999999MW1711REMMET056METAR ENSO 130850Z 13011KT 4000 -SN BKN009 01/M00 Q1002=
0178010014999992016011309204+59792+005341FM-15+004999999V0201301N006210048819N005000199+00001+00001999999ADDGA1021+002441999GA2071+004881999GE19MSL   +99999+99999GF199999021999002441999999MA1100201999999MW1681REMMET065METAR ENSO 130920Z 13012KT 5000 -SNRA FEW008 BKN016 00/M00 Q1002=
0201010014999992016011309504+59792+005341FM-15+004999999V0201301N00571002441CN004000199+00001+00001999999ADDGA1021+001521999GA2041+002441999GA3071+003961999GE19MSL   +99999+99999GF199999021999001521999999MA1100301999999MW1681REMMET072METAR ENSO 130950Z 13011KT 4000 -SNRA FEW005 SCT008 BKN013 00/M00 Q1003=
0178010014999992016011310504+59792+005341FM-15+004999999V0201301N004610027419N004500199+00001+00001999999ADDGA1041+000911999GA2071+002741999GE19MSL   +99999+99999GF199999041999000911999999MA1100301999999MW1681REMMET065METAR ENSO 131050Z 13009KT 4500 -SNRA SCT003 BKN009 00/M00 Q1003=
0198010014999992016011311204+59792+005341FM-15+004999999V0201301N00461001221CN004000199+00001+00001999999ADDGA1021+000611999GA2041+001221999GA3071+002741999GE19MSL   +99999+99999GF199999021999000611999999MA1100301999999MW1711REMMET069METAR ENSO 131120Z 13009KT 4000 -SN FEW002 SCT004 BKN009 00/00 Q1003=
0174010014999992016011311504+59792+005341FM-15+004999999V0201301N004610036619N002000199+00001+00001999999ADDGA1041+000911999GA2071+003661999GE19MSL   +99999+99999GF199999041999000911999999MA1100301999999MW1731REMMET061METAR ENSO 131150Z 13009KT 2000 SN SCT003 BKN012 00/00 Q1003=
0175010014999992016011312204+59792+005341FM-15+004999999V0201301N005110036619N005000199+00001+00001999999ADDGA1041+000911999GA2071+003661999GE19MSL   +99999+99999GF199999041999000911999999MA1100301999999MW1711REMMET062METAR ENSO 131220Z 13010KT 5000 -SN SCT003 BKN012 00/00 Q1003=
0198010014999992016011313504+59792+005341FM-15+004999999V0201501N00621001521CN003000199+00001+00001999999ADDGA1021+000911999GA2041+001521999GA3071+003051999GE19MSL   +99999+99999GF199999021999000911999999MA1100301999999MW1711REMMET069METAR ENSO 131350Z 15012KT 3000 -SN FEW003 SCT005 BKN010 00/00 Q1003=
0175010014999992016011314204+59792+005341FM-15+004999999V0201401N006210030519N009000199+00001+00001999999ADDGA1041+001521999GA2071+003051999GE19MSL   +99999+99999GF199999041999001521999999MA1100301999999MW1711REMMET062METAR ENSO 131420Z 14012KT 9000 -SN SCT005 BKN010 00/00 Q1003=
0198010014999992016011314504+59792+005341FM-15+004999999V0201501N00621001221CN000800199+00001+00001999999ADDGA1021+000301999GA2041+001221999GA3071+003051999GE19MSL   +99999+99999GF199999021999000301999999MA1100401999999MW1731REMMET069METAR ENSO 131450Z 15012KT 0800 SN FEW001 SCT004 BKN010 00/M00 Q1004=
0175010014999992016011315204+59792+005341FM-15+004999999V0201401N005710024419N001200199+00001+00001999999ADDGA1041+000611999GA2071+002441999GE19MSL   +99999+99999GF199999041999000611999999MA1100401999999MW1731REMMET062METAR ENSO 131520Z 14011KT 1200 SN SCT002 BKN008 00/M00 Q1004=
0199010014999992016011316204+59792+005341FM-15+004999999V0201401N00511001521CN003000199+00001+00001999999ADDGA1021+000911999GA2041+001521999GA3071+003051999GE19MSL   +99999+99999GF199999021999000911999999MA1100401999999MW1711REMMET070METAR ENSO 131620Z 14010KT 3000 -SN FEW003 SCT005 BKN010 00/M00 Q1004=
0175010014999992016011316504+59792+005341FM-15+004999999V0201401N005710036619N007000199+00001+00001999999ADDGA1021+001521999GA2071+003661999GE19MSL   +99999+99999GF199999021999001521999999MA1100401999999MW1711REMMET062METAR ENSO 131650Z 14011KT 7000 -SN FEW005 BKN012 00/00 Q1004=
0176010014999992016011317504+59792+005341FM-15+004999999V0201501N005110042719N007000199+00001+00001999999ADDGA1041+002441999GA2071+004271999GE19MSL   +99999+99999GF199999041999002441999999MA1100401999999MW1711REMMET063METAR ENSO 131750Z 15010KT 7000 -SN SCT008 BKN014 00/M00 Q1004=
0178010014999992016011318204+59792+005341FM-15+004999999V0201401N005710039619N009999199+00001+00001999999ADDGA1041+002741999GA2071+003961999GE19MSL   +99999+99999GF199999041999002741999999MA1100401999999MW1681REMMET065METAR ENSO 131820Z 14011KT 9999 -SNRA SCT009 BKN013 00/M00 Q1004=
0176010014999992016011318504+59792+005341FM-15+004999999V0201401N005710039619N009999199+00001+00001999999ADDGA1041+002741999GA2071+003961999GE19MSL   +99999+99999GF199999041999002741999999MA1100401999999MW1711REMMET063METAR ENSO 131850Z 14011KT 9999 -SN SCT009 BKN013 00/M00 Q1004=
0166010014999992016011319204+59792+005341FM-15+004999999V0201501N007210042719N009999199+00101+00001999999ADDGA1041+002741999GA2071+004271999GE19MSL   +99999+99999GF199999041999002741999999MA1100401999999REMMET059METAR ENSO 131920Z 15014KT 9999 SCT009 BKN014 01/M00 Q1004=
0143010014999992016011404504+59792+005341FM-15+004999999V0201601N005110045719N009999199+00101-00101999999ADDGA1071+004571999GE19MSL   +99999+99999GF199999071999004571999999MA1100501999999REMMET052METAR ENSO 140450Z 16010KT 9999 BKN015 01/M01 Q1005=
0143010014999992016011405204+59792+005341FM-15+004999999V0201501N005710048819N009999199+00101-00101999999ADDGA1071+004881999GE19MSL   +99999+99999GF199999071999004881999999MA1100501999999REMMET052METAR ENSO 140520Z 15011KT 9999 BKN016 01/M01 Q1005=
0143010014999992016011405504+59792+005341FM-15+004999999V0201501N006210048819N009999199+00101-00101999999ADDGA1071+004881999GE19MSL   +99999+99999GF199999071999004881999999MA1100401999999REMMET052METAR ENSO 140550Z 15012KT 9999 BKN016 01/M01 Q1004=
0143010014999992016011406204+59792+005341FM-15+004999999V0201501N007210054919N009999199+00101-00101999999ADDGA1071+005491999GE19MSL   +99999+99999GF199999071999005491999999MA1100401999999REMMET052METAR ENSO 140620Z 15014KT 9999 BKN018 01/M01 Q1004=
0143010014999992016011406504+59792+005341FM-15+004999999V0201501N006210054919N009999199+00101-00101999999ADDGA1071+005491999GE19MSL   +99999+99999GF199999071999005491999999MA1100401999999REMMET052METAR ENSO 140650Z 15012KT 9999 BKN018 01/M01 Q1004=
0143010014999992016011407204+59792+005341FM-15+004999999V0201501N006710061019N009999199+00101-00101999999ADDGA1071+006101999GE19MSL   +99999+99999GF199999071999006101999999MA1100401999999REMMET052METAR ENSO 140720Z 15013KT 9999 BKN020 01/M01 Q1004=
0143010014999992016011407504+59792+005341FM-15+004999999V0201501N007219999999N009999199+00101-00101999999ADDGA1041+006101999GE19MSL   +99999+99999GF199999041999006101999999MA1100401999999REMMET052METAR ENSO 140750Z 15014KT 9999 SCT020 01/M01 Q1004=
0143010014999992016011408204+59792+005341FM-15+004999999V0201501N006219999999N009999199+00101-00101999999ADDGA1041+006711999GE19MSL   +99999+99999GF199999041999006711999999MA1100501999999REMMET052METAR ENSO 140820Z 15012KT 9999 SCT022 01/M01 Q1005=
0166010014999992016011408504+59792+005341FM-15+004999999V0201501N00621007621CN009999199+00101-00101999999ADDGA1021+004881999GA2041+007621999GE19MSL   +99999+99999GF199999021999004881999999MA1100501999999REMMET059METAR ENSO 140850Z 15012KT 9999 FEW016 SCT025 01/M01 Q1005=
0166010014999992016011409204+59792+005341FM-15+004999999V0201501N00571009141CN009999199+00101-00101999999ADDGA1021+005491999GA2041+009141999GE19MSL   +99999+99999GF199999021999005491999999MA1100501999999REMMET059METAR ENSO 140920Z 15011KT 9999 FEW018 SCT030 01/M01 Q1005=
0197010014999992016011409504+59792+005341FM-15+004999999V0201601V00461009141CN009999199+00101-00101999999ADDGA1021+005491999GA2041+009141999GA3071+021341999GE19MSL   +99999+99999GF199999021999005491999999MA1100501999999REMMET074METAR ENSO 140950Z 16009KT 140V200 9999 FEW018 SCT030 BKN070 01/M01 Q1005=
0197010014999992016011410204+59792+005341FM-15+004999999V0201601V00511012191CN009999199+00101-00201999999ADDGA1021+007621999GA2041+012191999GA3071+030481999GE19MSL   +99999+99999GF199999021999007621999999MA1100501999999REMMET074METAR ENSO 141020Z 16010KT 140V200 9999 FEW025 SCT040 BKN100 01/M02 Q1005=
0189010014999992016011410504+59792+005341FM-15+004999999V0201601N00461018291CN009999199+00101-00201999999ADDGA1021+009141999GA2041+018291999GA3071+036581999GE19MSL   +99999+99999GF199999021999009141999999MA1100501999999REMMET066METAR ENSO 141050Z 16009KT 9999 FEW030 SCT060 BKN120 01/M02 Q1005=
0166010014999992016011411204+59792+005341FM-15+004999999V0201601N005110457219N009999199+00101-00201999999ADDGA1041+015241999GA2071+045721999GE19MSL   +99999+99999GF199999041999015241999999MA1100501999999REMMET059METAR ENSO 141120Z 16010KT 9999 SCT050 BKN150 01/M02 Q1005=
0166010014999992016011412504+59792+005341FM-15+004999999V0201601N00511016761CN009999199+00201-00201999999ADDGA1021+004571999GA2041+016761999GE19MSL   +99999+99999GF199999021999004571999999MA1100501999999REMMET059METAR ENSO 141250Z 16010KT 9999 FEW015 SCT055 02/M02 Q1005=
0166010014999992016011413204+59792+005341FM-15+004999999V0201501N00511018291CN009999199+00101-00201999999ADDGA1021+004571999GA2041+018291999GE19MSL   +99999+99999GF199999021999004571999999MA1100501999999REMMET059METAR ENSO 141320Z 15010KT 9999 FEW015 SCT060 01/M02 Q1005=
0166010014999992016011413504+59792+005341FM-15+004999999V0201601N00461018291CN009999199+00101-00201999999ADDGA1021+006711999GA2041+018291999GE19MSL   +99999+99999GF199999021999006711999999MA1100501999999REMMET059METAR ENSO 141350Z 16009KT 9999 FEW022 SCT060 01/M02 Q1005=
0166010014999992016011414504+59792+005341FM-15+004999999V0201701N00461018291CN009999199+00101-00301999999ADDGA1021+007621999GA2041+018291999GE19MSL   +99999+99999GF199999021999007621999999MA1100501999999REMMET059METAR ENSO 141450Z 17009KT 9999 FEW025 SCT060 01/M03 Q1005=
0166010014999992016011415204+59792+005341FM-15+004999999V0201601N00621018291CN009999199+00101-00301999999ADDGA1021+009141999GA2041+018291999GE19MSL   +99999+99999GF199999021999009141999999MA1100501999999REMMET059METAR ENSO 141520Z 16012KT 9999 FEW030 SCT060 01/M03 Q1005=
0177010014999992016011416204+59792+005341FM-15+004999999V0201601N00411018291CN009999199+00101-00301999999ADDGA1021+009141999GA2041+018291999GE19MSL   +99999+99999GF199999021999009141999999MA1100601999999OC100981REMMET062METAR ENSO 141620Z 16008G19KT 9999 FEW030 SCT060 01/M03 Q1006=
0166010014999992016011416504+59792+005341FM-15+004999999V0201601N00461018291CN009999199+00101-00301999999ADDGA1021+009141999GA2041+018291999GE19MSL   +99999+99999GF199999021999009141999999MA1100601999999REMMET059METAR ENSO 141650Z 16009KT 9999 FEW030 SCT060 01/M03 Q1006=
0143010014999992016011417204+59792+005341FM-15+004999999V0201601N004119999999N009999199+00101-00301999999ADDGA1041+018291999GE19MSL   +99999+99999GF199999041999018291999999MA1100601999999REMMET052METAR ENSO 141720Z 16008KT 9999 SCT060 01/M03 Q1006=
0143010014999992016011417504+59792+005341FM-15+004999999V0201701N005119999999N009999199+00101-00301999999ADDGA1041+018291999GE19MSL   +99999+99999GF199999041999018291999999MA1100601999999REMMET052METAR ENSO 141750Z 17010KT 9999 SCT060 01/M03 Q1006=
0167010014999992016011507204+59792+005341FM-15+004999999V0201401N006710061019N009999199+00001-00401999999ADDGA1021+003051999GA2071+006101999GE19MSL   +99999+99999GF199999021999003051999999MA1101101999999REMMET060METAR ENSO 150720Z 14013KT 9999 FEW010 BKN020 M00/M04 Q1011=
0167010014999992016011507504+59792+005341FM-15+004999999V0201501N007210067119N009999199+00001-00401999999ADDGA1021+003661999GA2071+006711999GE19MSL   +99999+99999GF199999021999003661999999MA1101101999999REMMET060METAR ENSO 150750Z 15014KT 9999 FEW012 BKN022 M00/M04 Q1011=
0167010014999992016011508204+59792+005341FM-15+004999999V0201401N006710067119N009999199+00001-00301999999ADDGA1021+004271999GA2071+006711999GE19MSL   +99999+99999GF199999021999004271999999MA1101101999999REMMET060METAR ENSO 150820Z 14013KT 9999 FEW014 BKN022 M00/M03 Q1011=
0167010014999992016011508504+59792+005341FM-15+004999999V0201401N007210067119N009999199+00001-00401999999ADDGA1021+004881999GA2071+006711999GE19MSL   +99999+99999GF199999021999004881999999MA1101101999999REMMET060METAR ENSO 150850Z 14014KT 9999 FEW016 BKN022 M00/M04 Q1011=
0167010014999992016011509204+59792+005341FM-15+004999999V0201401N007710067119N009999199+00001-00301999999ADDGA1021+004881999GA2071+006711999GE19MSL   +99999+99999GF199999021999004881999999MA1101201999999REMMET060METAR ENSO 150920Z 14015KT 9999 FEW016 BKN022 M00/M03 Q1012=
0167010014999992016011509504+59792+005341FM-15+004999999V0201401N006710076219N009999199+00001-00301999999ADDGA1021+005491999GA2071+007621999GE19MSL   +99999+99999GF199999021999005491999999MA1101201999999REMMET060METAR ENSO 150950Z 14013KT 9999 FEW018 BKN025 M00/M03 Q1012=
0174010014999992016011510504+59792+005341FM-15+004999999V0201501V007210091419N009999199+00001-00301999999ADDGA1021+005491999GA2071+009141999GE19MSL   +99999+99999GF199999021999005491999999MA1101201999999REMMET067METAR ENSO 151050Z 15014KT 130V190 9999 FEW018 BKN030 00/M03 Q1012=
0174010014999992016011511204+59792+005341FM-15+004999999V0201501V008210091419N009999199+00101-00301999999ADDGA1021+005491999GA2071+009141999GE19MSL   +99999+99999GF199999021999005491999999MA1101201999999REMMET067METAR ENSO 151120Z 15016KT 130V190 9999 FEW018 BKN030 01/M03 Q1012=
0166010014999992016011511504+59792+005341FM-15+004999999V0201501N007710091419N009999199+00101-00301999999ADDGA1041+004881999GA2071+009141999GE19MSL   +99999+99999GF199999041999004881999999MA1101201999999REMMET059METAR ENSO 151150Z 15015KT 9999 SCT016 BKN030 01/M03 Q1012=
0177010014999992016011512204+59792+005341FM-15+004999999V0201601N00721013721CN009999199+00101-00201999999ADDGA1041+004881999GA2041+013721999GE19MSL   +99999+99999GF199999041999004881999999MA1101201999999OC101241REMMET062METAR ENSO 151220Z 16014G24KT 9999 SCT016 SCT045 01/M02 Q1012=
0177010014999992016011512504+59792+005341FM-15+004999999V0201601N00571013721CN009999199+00101-00201999999ADDGA1041+004881999GA2041+013721999GE19MSL   +99999+99999GF199999041999004881999999MA1101201999999OC101181REMMET062METAR ENSO 151250Z 16011G23KT 9999 SCT016 SCT045 01/M02 Q1012=
0177010014999992016011513204+59792+005341FM-15+004999999V0201601N00511015241CN009999199+00101-00201999999ADDGA1041+004881999GA2041+015241999GE19MSL   +99999+99999GF199999041999004881999999MA1101201999999OC101031REMMET062METAR ENSO 151320Z 16010G20KT 9999 SCT016 SCT050 01/M02 Q1012=
0175010014999992016011514204+59792+005341FM-15+004999999V0201601N006710048819N001500199+00101-00201999999ADDGA1021+003051999GA2071+004881999GE19MSL   +99999+99999GF199999021999003051999999MA1101201999999MW1731REMMET062METAR ENSO 151420Z 16013KT 1500 SN FEW010 BKN016 01/M02 Q1012=
0187010014999992016011514504+59792+005341FM-15+004999999V0201601N007210048819N009000199+00001-00101999999ADDGA1021+002741999GA2071+004881999GE19MSL   +99999+99999GF199999021999002741999999MA1101201999999MW1131MW2711REMMET068METAR ENSO 151450Z 16014KT 9000 -SN VCTS FEW009 BKN016 00/M01 Q1012=
0200010014999992016011515504+59792+005341FM-15+004999999V0201501N00621003051CN006000199+00001-00101999999ADDGA1021+001221999GA2041+003051999GA3071+004571999GE19MSL   +99999+99999GF199999021999001221999999MA1101201999999MW1711REMMET071METAR ENSO 151550Z 15012KT 6000 -SN FEW004 SCT010 BKN015 M00/M01 Q1012=
0198010014999992016011516204+59792+005341FM-15+004999999V0201701N00571002131CN001500199+00001+00001999999ADDGA1021+000611999GA2041+002131999GA3071+004571999GE19MSL   +99999+99999GF199999021999000611999999MA1101201999999MW1731REMMET069METAR ENSO 151620Z 17011KT 1500 SN FEW002 SCT007 BKN015 00/M00 Q1012=
0201010014999992016011517204+59792+005341FM-15+004999999V0202101N00151004271CN009999199+00001+00001999999ADDGA1021+001521999GA2041+004271999GA3071+006101999GE19MSL   +99999+99999GF199999021999001521999999MA1101301999999MW1851REMMET072METAR ENSO 151720Z 21003KT 9999 -SHSN FEW005 SCT014 BKN020 00/M00 Q1013=
0188010014999992016011517504+59792+005341FM-15+004999999V0203101N00211003661CN009999199+00001+00001999999ADDGA1021+001221999GA2041+003661999GA3071+006711999GE19MSL   +99999+99999GF199999021999001221999999MA1101301999999REMMET065METAR ENSO 151750Z 31004KT 9999 FEW004 SCT012 BKN022 00/00 Q1013=
0189010014999992016011518204+59792+005341FM-15+004999999V0203401N00621004881CN009999199+00101+00001999999ADDGA1021+001221999GA2041+004881999GA3071+009141999GE19MSL   +99999+99999GF199999021999001221999999MA1101301999999REMMET066METAR ENSO 151820Z 34012KT 9999 FEW004 SCT016 BKN030 01/M00 Q1013=
0189010014999992016011518504+59792+005341FM-15+004999999V0203601N00771005181CN009999199+00001-00201999999ADDGA1021+003051999GA2041+005181999GA3071+010671999GE19MSL   +99999+99999GF199999021999003051999999MA1101301999999REMMET066METAR ENSO 151850Z 36015KT 9999 FEW010 SCT017 BKN035 00/M02 Q1013=
0178010014999992016011519204+59792+005341FM-15+004999999V0203601N00511005491CN009999199+00001-00301999999ADDGA1021+003051999GA2041+005491999GE19MSL   +99999+99999GF199999021999003051999999MA1101301999999OC101031REMMET063METAR ENSO 151920Z 36010G20KT 9999 FEW010 SCT018 M00/M03 Q1013=
0146010014999992016011713204+59792+005341FM-15+004999999V0201401N002619999999N009999199-00201-00601999999ADDGA1021+006101091GE19MSL   +99999+99999GF199999021999006101999999MA1102401999999REMMET055METAR ENSO 171320Z 14005KT 9999 FEW020CB M02/M06 Q1024=
0146010014999992016011714204+59792+005341FM-15+004999999V0201301N001519999999N009999199-00201-00601999999ADDGA1021+006101091GE19MSL   +99999+99999GF199999021999006101999999MA1102301999999REMMET055METAR ENSO 171420Z 13003KT 9999 FEW020CB M02/M06 Q1023=
0147010014999992016011715204+59792+005341FM-15+004999999V0201201N003119999999N009999199-00301-00601999999ADDGA1021+006101081GE19MSL   +99999+99999GF199999021999006101999999MA1102301999999REMMET056METAR ENSO 171520Z 12006KT 9999 FEW020TCU M03/M06 Q1023=
0147010014999992016011715504+59792+005341FM-15+004999999V0201401N003119999999N009999199-00301-00601999999ADDGA1021+006101081GE19MSL   +99999+99999GF199999021999006101999999MA1102301999999REMMET056METAR ENSO 171550Z 14006KT 9999 FEW020TCU M03/M06 Q1023=
0147010014999992016011716204+59792+005341FM-15+004999999V0201301N003619999999N009999199-00401-00601999999ADDGA1021+006101081GE19MSL   +99999+99999GF199999021999006101999999MA1102201999999REMMET056METAR ENSO 171620Z 13007KT 9999 FEW020TCU M04/M06 Q1022=
0147010014999992016011716504+59792+005341FM-15+004999999V0201201N003119999999N009999199-00301-00601999999ADDGA1021+006101081GE19MSL   +99999+99999GF199999021999006101999999MA1102201999999REMMET056METAR ENSO 171650Z 12006KT 9999 FEW020TCU M03/M06 Q1022=
0144010014999992016011717204+59792+005341FM-15+004999999V0201401N003119999999N009999199-00301-00601999999ADDGA1021+006101999GE19MSL   +99999+99999GF199999021999006101999999MA1102201999999REMMET053METAR ENSO 171720Z 14006KT 9999 FEW020 M03/M06 Q1022=
0144010014999992016011718204+59792+005341FM-15+004999999V0201401N003619999999N009999199-00301-00601999999ADDGA1021+006101999GE19MSL   +99999+99999GF199999021999006101999999MA1102101999999REMMET053METAR ENSO 171820Z 14007KT 9999 FEW020 M03/M06 Q1021=
0144010014999992016011719204+59792+005341FM-15+004999999V0201501N004119999999N009999199-00401-00801999999ADDGA1021+015241999GE19MSL   +99999+99999GF199999021999015241999999MA1102101999999REMMET053METAR ENSO 171920Z 15008KT 9999 FEW050 M04/M08 Q1021=
0144010014999992016011720204+59792+005341FM-15+004999999V0201301N004119999999N009999199-00301-00701999999ADDGA1021+015241999GE19MSL   +99999+99999GF199999021999015241999999MA1102101999999REMMET053METAR ENSO 172020Z 13008KT 9999 FEW050 M03/M07 Q1021=
0144010014999992016011720504+59792+005341FM-15+004999999V0201401N004619999999N009999199-00301-00601999999ADDGA1021+015241999GE19MSL   +99999+99999GF199999021999015241999999MA1102001999999REMMET053METAR ENSO 172050Z 14009KT 9999 FEW050 M03/M06 Q1020=
0144010014999992016011721204+59792+005341FM-15+004999999V0201301N003619999999N009999199-00301-00601999999ADDGA1021+015241999GE19MSL   +99999+99999GF199999021999015241999999MA1102001999999REMMET053METAR ENSO 172120Z 13007KT 9999 FEW050 M03/M06 Q1020=
0155010014999992016011803504+59792+005341FM-15+004999999V0201101N00311002131WN009999199-00301-00401999999ADDGA1091+002131999GE19MSL   +99999+99999GF109991091999002131999999MA1101701999999MW1851REMMET058METAR ENSO 180350Z 11006KT 9999 -SHSN VV007 M03/M04 Q1017=
0155010014999992016011804204+59792+005341FM-15+004999999V0201301N00411002131WN009999199-00201-00301999999ADDGA1091+002131999GE19MSL   +99999+99999GF109991091999002131999999MA1101601999999MW1851REMMET058METAR ENSO 180420Z 13008KT 9999 -SHSN VV007 M02/M03 Q1016=
0202010014999992016011804504+59792+005341FM-15+004999999V0201301N00411002741CN009999199-00201-00301999999ADDGA1021+002131999GA2041+002741999GA3071+004571999GE19MSL   +99999+99999GF199999021999002131999999MA1101601999999MW1851REMMET073METAR ENSO 180450Z 13008KT 9999 -SHSN FEW007 SCT009 BKN015 M02/M03 Q1016=
0190010014999992016011805204+59792+005341FM-15+004999999V0201201N00461004571CN009999199-00201-00401999999ADDGA1021+002741999GA2041+004571999GA3071+009141999GE19MSL   +99999+99999GF199999021999002741999999MA1101601999999REMMET067METAR ENSO 180520Z 12009KT 9999 FEW009 SCT015 BKN030 M02/M04 Q1016=
0190010014999992016011805504+59792+005341FM-15+004999999V0201301N00511004571CN009999199-00201-00401999999ADDGA1021+002741999GA2041+004571999GA3071+009141999GE19MSL   +99999+99999GF199999021999002741999999MA1101501999999REMMET067METAR ENSO 180550Z 13010KT 9999 FEW009 SCT015 BKN030 M02/M04 Q1015=
0167010014999992016011806204+59792+005341FM-15+004999999V0201301N004610091419N009999199-00201-00401999999ADDGA1041+004571999GA2071+009141999GE19MSL   +99999+99999GF199999041999004571999999MA1101501999999REMMET060METAR ENSO 180620Z 13009KT 9999 SCT015 BKN030 M02/M04 Q1015=
0167010014999992016011806504+59792+005341FM-15+004999999V0201301N00571009141CN009999199-00201-00401999999ADDGA1021+004571999GA2041+009141999GE19MSL   +99999+99999GF199999021999004571999999MA1101501999999REMMET060METAR ENSO 180650Z 13011KT 9999 FEW015 SCT030 M02/M04 Q1015=
0187010014999992016011807204+59792+005341FM-15+004999999V0201301N00571009141CN009999199-00101+99999999999ADDGA1021+004571999GA2041+009141999GE19MSL   +99999+99999GF199999021999004571999999MA1101501999999REMMET061METAR ENSO 180720Z 13011KT 9999 FEW015 SCT030 M01/M030 Q1015=EQDQ01-30   3ATOD  
0167010014999992016011807504+59792+005341FM-15+004999999V0201301N004110121919N009999199-00101-00301999999ADDGA1021+004571999GA2071+012191999GE19MSL   +99999+99999GF199999021999004571999999MA1101501999999REMMET060METAR ENSO 180750Z 13008KT 9999 FEW015 BKN040 M01/M03 Q1015=
0167010014999992016011808204+59792+005341FM-15+004999999V0201301N004110106719N009999199-00101-00301999999ADDGA1021+004571999GA2071+010671999GE19MSL   +99999+99999GF199999021999004571999999MA1101501999999REMMET060METAR ENSO 180820Z 13008KT 9999 FEW015 BKN035 M01/M03 Q1015=
0167010014999992016011808504+59792+005341FM-15+004999999V0201301N006210106719N009999199-00101-00301999999ADDGA1021+005491999GA2071+010671999GE19MSL   +99999+99999GF199999021999005491999999MA1101401999999REMMET060METAR ENSO 180850Z 13012KT 9999 FEW018 BKN035 M01/M03 Q1014=
0202010014999992016011809204+59792+005341FM-15+004999999V0201301N00361005491CN009999199-00101-00301999999ADDGA1021+003051999GA2041+005491999GA3071+012191999GE19MSL   +99999+99999GF199999021999003051999999MA1101401999999MW1851REMMET073METAR ENSO 180920Z 13007KT 9999 -SHSN FEW010 SCT018 BKN040 M01/M03 Q1014=
0202010014999992016011809504+59792+005341FM-15+004999999V0201201N00461004571CN009999199-00101-00301999999ADDGA1021+003051999GA2041+004571999GA3071+007621999GE19MSL   +99999+99999GF199999021999003051999999MA1101401999999MW1851REMMET073METAR ENSO 180950Z 12009KT 9999 -SHSN FEW010 SCT015 BKN025 M01/M03 Q1014=
0201010014999992016011810204+59792+005341FM-15+004999999V0201201N00411004571CN009999199-00101-00301999999ADDGA1021+003051999GA2041+004571999GA3071+010671999GE19MSL   +99999+99999GF199999021999003051999999MA1101401999999MW1161REMMET072METAR ENSO 181020Z 12008KT 9999 VCSH FEW010 SCT015 BKN035 M01/M03 Q1014=
0202010014999992016011810504+59792+005341FM-15+004999999V0201401N00361004571CN007000199+00001-00301999999ADDGA1021+002131999GA2041+004571999GA3071+010671999GE19MSL   +99999+99999GF199999021999002131999999MA1101401999999MW1851REMMET073METAR ENSO 181050Z 14007KT 7000 -SHSN FEW007 SCT015 BKN035 M00/M03 Q1014=
0202010014999992016011811204+59792+005341FM-15+004999999V0201001N00311004571CN009999199-00101-00201999999ADDGA1021+001831999GA2041+004571999GA3071+007621999GE19MSL   +99999+99999GF199999021999001831999999MA1101301999999MW1851REMMET073METAR ENSO 181120Z 10006KT 9999 -SHSN FEW006 SCT015 BKN025 M01/M02 Q1013=
0201010014999992016011811504+59792+005341FM-15+004999999V0201101N00261003661CN004000199-00101-00201999999ADDGA1021+001831999GA2041+003661999GA3071+004881999GE19MSL   +99999+99999GF199999021999001831999999MA1101301999999MW1861REMMET072METAR ENSO 181150Z 11005KT 4000 SHSN FEW006 SCT012 BKN016 M01/M02 Q1013=
0179010014999992016011812204+59792+005341FM-15+004999999V0201101N002110045719N004000199-00101-00201999999ADDGA1041+002441999GA2071+004571999GE19MSL   +99999+99999GF199999041999002441999999MA1101301999999MW1851REMMET066METAR ENSO 181220Z 11004KT 4000 -SHSN SCT008 BKN015 M01/M02 Q1013=
0190010014999992016011812504+59792+005341FM-15+004999999V0201101N00261004881CN009999199+00001-00201999999ADDGA1021+002441999GA2041+004881999GA3071+010061999GE19MSL   +99999+99999GF199999021999002441999999MA1101301999999REMMET067METAR ENSO 181250Z 11005KT 9999 FEW008 SCT016 BKN033 M00/M02 Q1013=
0202010014999992016011813204+59792+005341FM-15+004999999V0201101N00311009141CN009999199+00001-00201999999ADDGA1021+003661999GA2041+009141999GA3071+022861999GE19MSL   +99999+99999GF199999021999003661999999MA1101201999999MW1851REMMET073METAR ENSO 181320Z 11006KT 9999 -SHSN FEW012 SCT030 BKN075 M00/M02 Q1012=
0201010014999992016011813504+59792+005341FM-15+004999999V0201101N00411009141CN008000199+00001-00201999999ADDGA1021+003661999GA2041+009141999GA3071+022861999GE19MSL   +99999+99999GF199999021999003661999999MA1101201999999MW1861REMMET072METAR ENSO 181350Z 11008KT 8000 SHSN FEW012 SCT030 BKN075 M00/M02 Q1012=
0190010014999992016011814204+59792+005341FM-15+004999999V0201001N00261015851CN009999199+00001-00201999999ADDGA1021+004881999GA2041+015851999GA3071+021951999GE19MSL   +99999+99999GF199999021999004881999999MA1101201999999REMMET067METAR ENSO 181420Z 10005KT 9999 FEW016 SCT052 BKN072 M00/M02 Q1012=
0167010014999992016011814504+59792+005341FM-15+004999999V0201301N002610381019N009999199+00001-00201999999ADDGA1041+014631999GA2071+038101999GE19MSL   +99999+99999GF199999041999014631999999MA1101101999999REMMET060METAR ENSO 181450Z 13005KT 9999 SCT048 BKN125 M00/M02 Q1011=
0166010014999992016011815204+59792+005341FM-15+004999999V0201301N003119999999N009999199+00001-00201999999ADDGA1041+012191999GA2071+999999999GE19MSL   +99999+99999GF199999041999012191999999MA1101201999999REMMET059METAR ENSO 181520Z 13006KT 9999 SCT040 BKN48 M00/M02 Q1012=
0143010014999992016011815504+59792+005341FM-15+004999999V0201301N001519999999N009999199+00001-00201999999ADDGA1071+999999999GE19MSL   +99999+99999GF199999071999999999999999MA1101101999999REMMET052METAR ENSO 181550Z 13003KT 9999 BKN33 M00/M02 Q1011=
0144010014999992016011816204+59792+005341FM-15+004999999V0201401N002110097519N009999199+00001-00201999999ADDGA1071+009751999GE19MSL   +99999+99999GF199999071999009751999999MA1101101999999REMMET053METAR ENSO 181620Z 14004KT 9999 BKN032 M00/M02 Q1011=
0144010014999992016011816504+59792+005341FM-15+004999999V0201301N001510097519N009999199-00101-00201999999ADDGA1071+009751999GE19MSL   +99999+99999GF199999071999009751999999MA1101101999999REMMET053METAR ENSO 181650Z 13003KT 9999 BKN032 M01/M02 Q1011=
0144010014999992016011817504+59792+005341FM-15+004999999V0201201N002610137219N009999199-00101-00301999999ADDGA1071+013721999GE19MSL   +99999+99999GF199999071999013721999999MA1101101999999REMMET053METAR ENSO 181750Z 12005KT 9999 BKN045 M01/M03 Q1011=
0179010014999992016011818204+59792+005341FM-15+004999999V0209999V00101007921CN009999199+00001-00201999999ADDGA1021+004571999GA2041+007921999GE19MSL   +99999+99999GF199999021999004571999999MA1101101999999MW1851REMMET066METAR ENSO 181820Z VRB02KT 9999 -SHSN FEW015 SCT026 M00/M02 Q1011=
0074010014999992016011904504+59792+005341FM-15+004999999V0203601N001019999999Y999999999-00401-00801999999ADDMA1101001999999REMMET047METAR ENSO 190450Z 36002KT CAVOK M04/M08 Q1010=
0074010014999992016011905204+59792+005341FM-15+004999999V0209999V000519999999Y999999999-00401-00701999999ADDMA1101001999999REMMET047METAR ENSO 190520Z VRB01KT CAVOK M04/M07 Q1010=
0074010014999992016011905504+59792+005341FM-15+004999999V0201001N001019999999Y999999999-00501-00801999999ADDMA1101001999999REMMET047METAR ENSO 190550Z 10002KT CAVOK M05/M08 Q1010=
0074010014999992016011906504+59792+005341FM-15+004999999V0202401N001019999999Y999999999-00401-00501999999ADDMA1101001999999REMMET047METAR ENSO 190650Z 24002KT CAVOK M04/M05 Q1010=
0074010014999992016011907204+59792+005341FM-15+004999999V0202201N000519999999Y999999999-00401-00501999999ADDMA1101001999999REMMET047METAR ENSO 190720Z 22001KT CAVOK M04/M05 Q1010=
0074010014999992016011907504+59792+005341FM-15+004999999V0209999V000519999999Y999999999-00501-00601999999ADDMA1101001999999REMMET047METAR ENSO 190750Z VRB01KT CAVOK M05/M06 Q1010=
0074010014999992016011908504+59792+005341FM-15+004999999V0201901N000519999999Y999999999-00301-00401999999ADDMA1101101999999REMMET047METAR ENSO 190850Z 19001KT CAVOK M03/M04 Q1011=
0074010014999992016011909204+59792+005341FM-15+004999999V0201901N001019999999Y999999999-00301-00401999999ADDMA1101101999999REMMET047METAR ENSO 190920Z 19002KT CAVOK M03/M04 Q1011=
0074010014999992016011909504+59792+005341FM-15+004999999V0201001N002119999999Y999999999-00301-00701999999ADDMA1101101999999REMMET047METAR ENSO 190950Z 10004KT CAVOK M03/M07 Q1011=
0074010014999992016011910204+59792+005341FM-15+004999999V0201501N001519999999Y999999999-00201-00701999999ADDMA1101101999999REMMET047METAR ENSO 191020Z 15003KT CAVOK M02/M07 Q1011=
0074010014999992016011910504+59792+005341FM-15+004999999V0201201N002619999999Y999999999-00201-00701999999ADDMA1101101999999REMMET047METAR ENSO 191050Z 12005KT CAVOK M02/M07 Q1011=
0074010014999992016011911204+59792+005341FM-15+004999999V0201101N002119999999Y999999999-00101-00601999999ADDMA1101101999999REMMET047METAR ENSO 191120Z 11004KT CAVOK M01/M06 Q1011=
0169010014999992016011912204+59792+005341FM-15+004999999V0200901N001519999999N009999199-00101-00601999999ADDGA1021+006101091GA2021+018291999GE19MSL   +99999+99999GF199999021999006101999999MA1101101999999REMMET062METAR ENSO 191220Z 09003KT 9999 FEW020CB FEW060 M01/M06 Q1011=
0169010014999992016011912504+59792+005341FM-15+004999999V0209999C000019999999N009999199-00101-00501999999ADDGA1021+006101091GA2021+018291999GE19MSL   +99999+99999GF199999021999006101999999MA1101101999999REMMET062METAR ENSO 191250Z 00000KT 9999 FEW020CB FEW060 M01/M05 Q1011=
0169010014999992016011913204+59792+005341FM-15+004999999V0200701N001019999999N009999199-00101-00601999999ADDGA1021+006101091GA2021+018291999GE19MSL   +99999+99999GF199999021999006101999999MA1101101999999REMMET062METAR ENSO 191320Z 07002KT 9999 FEW020CB FEW060 M01/M06 Q1011=
0173010014999992016011913504+59792+005341FM-15+004999999V0200501N000519999999N009999199-00101-00501999999ADDGA1021+006101091GA2021+018291999GE19MSL   +99999+99999GF199999021999006101999999MA1101101999999REMMET066METAR COR ENSO 191350Z 05001KT 9999 FEW020CB FEW060 M01/M05 Q1011=
0169010014999992016011914204+59792+005341FM-15+004999999V0201101N000519999999N009999199-00101-00601999999ADDGA1021+006101091GA2021+018291999GE19MSL   +99999+99999GF199999021999006101999999MA1101101999999REMMET062METAR ENSO 191420Z 11001KT 9999 FEW020CB FEW060 M01/M06 Q1011=
0169010014999992016011914504+59792+005341FM-15+004999999V0209999C000019999999N009999199-00201-00601999999ADDGA1021+006101091GA2021+018291999GE19MSL   +99999+99999GF199999021999006101999999MA1101101999999REMMET062METAR ENSO 191450Z 00000KT 9999 FEW020CB FEW060 M02/M06 Q1011=
0169010014999992016011915204+59792+005341FM-15+004999999V0200501N001019999999N009999199-00301-00601999999ADDGA1021+006101091GA2021+024381999GE19MSL   +99999+99999GF199999021999006101999999MA1101101999999REMMET062METAR ENSO 191520Z 05002KT 9999 FEW020CB FEW080 M03/M06 Q1011=
0169010014999992016011915504+59792+005341FM-15+004999999V0200401N001019999999N009999199-00201-00601999999ADDGA1021+006101091GA2021+030481999GE19MSL   +99999+99999GF199999021999006101999999MA1101101999999REMMET062METAR ENSO 191550Z 04002KT 9999 FEW020CB FEW100 M02/M06 Q1011=
0169010014999992016011916204+59792+005341FM-15+004999999V0200701N001019999999N009999199-00301-00501999999ADDGA1021+006101091GA2021+030481999GE19MSL   +99999+99999GF199999021999006101999999MA1101101999999REMMET062METAR ENSO 191620Z 07002KT 9999 FEW020CB FEW100 M03/M05 Q1011=
0169010014999992016011916504+59792+005341FM-15+004999999V0209999C000019999999N009999199-00301-00601999999ADDGA1021+006101091GA2021+030481999GE19MSL   +99999+99999GF199999021999006101999999MA1101101999999REMMET062METAR ENSO 191650Z 00000KT 9999 FEW020CB FEW100 M03/M06 Q1011=
0169010014999992016011917204+59792+005341FM-15+004999999V0209999C000019999999N009999199-00401-00601999999ADDGA1021+006101091GA2021+030481999GE19MSL   +99999+99999GF199999021999006101999999MA1101101999999REMMET062METAR ENSO 191720Z 00000KT 9999 FEW020CB FEW100 M04/M06 Q1011=
0170010014999992016011917504+59792+005341FM-15+004999999V0209999C000019999999N009999199-00501-00601999999ADDGA1021+006101081GA2021+024381999GE19MSL   +99999+99999GF199999021999006101999999MA1101201999999REMMET063METAR ENSO 191750Z 00000KT 9999 FEW020TCU FEW080 M05/M06 Q1012=
0170010014999992016011918204+59792+005341FM-15+004999999V0201801N000519999999N009999199-00401-00601999999ADDGA1021+006101081GA2021+024381999GE19MSL   +99999+99999GF199999021999006101999999MA1101201999999REMMET063METAR ENSO 191820Z 18001KT 9999 FEW020TCU FEW080 M04/M06 Q1012=
0170010014999992016011918504+59792+005341FM-15+004999999V0202001N000519999999N009999199-00301-00401999999ADDGA1021+006101081GA2021+024381999GE19MSL   +99999+99999GF199999021999006101999999MA1101201999999REMMET063METAR ENSO 191850Z 20001KT 9999 FEW020TCU FEW080 M03/M04 Q1012=
0170010014999992016011919204+59792+005341FM-15+004999999V0209999C000019999999N009999199-00401-00501999999ADDGA1021+006101081GA2021+024381999GE19MSL   +99999+99999GF199999021999006101999999MA1101201999999REMMET063METAR ENSO 191920Z 00000KT 9999 FEW020TCU FEW080 M04/M05 Q1012=
0170010014999992016011919504+59792+005341FM-15+004999999V0209999V000519999999N009999199-00501-00601999999ADDGA1021+006101081GA2021+024381999GE19MSL   +99999+99999GF199999021999006101999999MA1101201999999REMMET063METAR ENSO 191950Z VRB01KT 9999 FEW020TCU FEW080 M05/M06 Q1012=
0144010014999992016011920204+59792+005341FM-15+004999999V0209999V000519999999N009999199-00401-00401999999ADDGA1021+006711999GE19MSL   +99999+99999GF199999021999006711999999MA1101201999999REMMET053METAR ENSO 192020Z VRB01KT 9999 FEW022 M04/M04 Q1012=
0144010014999992016011920504+59792+005341FM-15+004999999V0202001N000519999999N009999199-00301-00401999999ADDGA1021+006711999GE19MSL   +99999+99999GF199999021999006711999999MA1101201999999REMMET053METAR ENSO 192050Z 20001KT 9999 FEW022 M03/M04 Q1012=
0144010014999992016011921204+59792+005341FM-15+004999999V0209999V000519999999N009999199-00301-00401999999ADDGA1021+006711999GE19MSL   +99999+99999GF199999021999006711999999MA1101201999999REMMET053METAR ENSO 192120Z VRB01KT 9999 FEW022 M03/M04 Q1012=
0074010014999992016012004504+59792+005341FM-15+004999999V0202301N000519999999Y999999999-00401-00501999999ADDMA1101401999999REMMET047METAR ENSO 200450Z 23001KT CAVOK M04/M05 Q1014=
0074010014999992016012005204+59792+005341FM-15+004999999V0202701N000519999999Y999999999-00501-00501999999ADDMA1101401999999REMMET047METAR ENSO 200520Z 27001KT CAVOK M05/M05 Q1014=
0074010014999992016012005504+59792+005341FM-15+004999999V0209999V000519999999Y999999999-00601-00701999999ADDMA1101401999999REMMET047METAR ENSO 200550Z VRB01KT CAVOK M06/M07 Q1014=
0074010014999992016012006204+59792+005341FM-15+004999999V0200101N001019999999Y999999999-00501-00701999999ADDMA1101501999999REMMET047METAR ENSO 200620Z 01002KT CAVOK M05/M07 Q1015=
0082010014999992016012006504+59792+005341FM-15+004999999V0200301V001019999999Y999999999-00601-00801999999ADDMA1101501999999REMMET055METAR ENSO 200650Z 03002KT 350V060 CAVOK M06/M08 Q1015=
0074010014999992016012007204+59792+005341FM-15+004999999V0209999C000019999999Y999999999-00501-00601999999ADDMA1101501999999REMMET047METAR ENSO 200720Z 00000KT CAVOK M05/M06 Q1015=
0074010014999992016012007504+59792+005341FM-15+004999999V0209999C000019999999Y999999999-00401-00501999999ADDMA1101501999999REMMET047METAR ENSO 200750Z 23000KT CAVOK M04/M05 Q1015=
0074010014999992016012008204+59792+005341FM-15+004999999V0202101N000519999999Y999999999-00501-00601999999ADDMA1101601999999REMMET047METAR ENSO 200820Z 21001KT CAVOK M05/M06 Q1016=
0074010014999992016012008504+59792+005341FM-15+004999999V0202301N001019999999Y999999999-00401-00501999999ADDMA1101601999999REMMET047METAR ENSO 200850Z 23002KT CAVOK M04/M05 Q1016=
0074010014999992016012009204+59792+005341FM-15+004999999V0209999C000019999999Y999999999-00401-00501999999ADDMA1101601999999REMMET047METAR ENSO 200920Z 00000KT CAVOK M04/M05 Q1016=
0073010014999992016012009504+59792+005341FM-15+004999999V0200201N001019999999Y999999999+99999+99999999999ADDMA1101601999999REMMET046METAR ENSO 200950Z 02002KT CAVOK ///M06 Q1016=
0073010014999992016012010204+59792+005341FM-15+004999999V0203601N001019999999Y999999999+99999+99999999999ADDMA1101701999999REMMET046METAR ENSO 201020Z 00002KT CAVOK ///M05 Q1017=
0073010014999992016012010504+59792+005341FM-15+004999999V0209999C000019999999Y999999999+99999+99999999999ADDMA1101701999999REMMET046METAR ENSO 201050Z 23000KT CAVOK ///M05 Q1017=
0073010014999992016012011204+59792+005341FM-15+004999999V0209999C000019999999Y999999999+99999+99999999999ADDMA1101701999999REMMET046METAR ENSO 201120Z 00000KT CAVOK ///M06 Q1017=
0074010014999992016012011504+59792+005341FM-15+004999999V0201101N001019999999Y999999999-00301-00501999999ADDMA1101701999999REMMET047METAR ENSO 201150Z 11002KT CAVOK M03/M05 Q1017=
0055010014999992016012012204+59792+005341FM-15+004999999V0209999N999999999999N999999999+99999+99999999999REMMET046METAR ENSO 201220Z 0000KT CAVOK M02/M05 Q1017=
0074010014999992016012012504+59792+005341FM-15+004999999V0209999V000519999999Y999999999-00101-00401999999ADDMA1101701999999REMMET047METAR ENSO 201250Z VRB01KT CAVOK M01/M04 Q1017=
0074010014999992016012013204+59792+005341FM-15+004999999V0209999V000519999999Y999999999-00201-00501999999ADDMA1101701999999REMMET047METAR ENSO 201320Z VRB01KT CAVOK M02/M05 Q1017=
0074010014999992016012013504+59792+005341FM-15+004999999V0200701N001519999999Y999999999-00201-00601999999ADDMA1101801999999REMMET047METAR ENSO 201350Z 07003KT CAVOK M02/M06 Q1018=
0074010014999992016012014204+59792+005341FM-15+004999999V0209999V001019999999Y999999999-00201-00601999999ADDMA1101801999999REMMET047METAR ENSO 201420Z VRB02KT CAVOK M02/M06 Q1018=
0074010014999992016012014504+59792+005341FM-15+004999999V0209999V001019999999Y999999999-00201-00601999999ADDMA1101801999999REMMET047METAR ENSO 201450Z VRB02KT CAVOK M02/M06 Q1018=
0074010014999992016012015204+59792+005341FM-15+004999999V0201201N002119999999Y999999999-00301-00701999999ADDMA1101801999999REMMET047METAR ENSO 201520Z 12004KT CAVOK M03/M07 Q1018=
0074010014999992016012015504+59792+005341FM-15+004999999V0201201N002119999999Y999999999-00401-00701999999ADDMA1101801999999REMMET047METAR ENSO 201550Z 12004KT CAVOK M04/M07 Q1018=
0074010014999992016012016204+59792+005341FM-15+004999999V0200701N002119999999Y999999999-00301-00701999999ADDMA1101801999999REMMET047METAR ENSO 201620Z 07004KT CAVOK M03/M07 Q1018=
0074010014999992016012016504+59792+005341FM-15+004999999V0209999V000519999999Y999999999-00301-00701999999ADDMA1101901999999REMMET047METAR ENSO 201650Z VRB01KT CAVOK M03/M07 Q1019=
0074010014999992016012017204+59792+005341FM-15+004999999V0209999V000519999999Y999999999-00401-00601999999ADDMA1101901999999REMMET047METAR ENSO 201720Z VRB01KT CAVOK M04/M06 Q1019=
0074010014999992016012017504+59792+005341FM-15+004999999V0209999V000519999999Y999999999-00301-00501999999ADDMA1101901999999REMMET047METAR ENSO 201750Z VRB01KT CAVOK M03/M05 Q1019=
0074010014999992016012018204+59792+005341FM-15+004999999V0209999V000519999999Y999999999-00401-00601999999ADDMA1101901999999REMMET047METAR ENSO 201820Z VRB01KT CAVOK M04/M06 Q1019=
0073010014999992016012104504+59792+005341FM-15+004999999V0201101N006219999999Y999999999+99999+99999999999ADDMA1102101999999REMMET046METAR ENSO 210450Z 11012KT CAVOK ///M07 Q1021=
0073010014999992016012105204+59792+005341FM-15+004999999V0201101N006219999999Y999999999+99999+99999999999ADDMA1102101999999REMMET046METAR ENSO 210520Z 11012KT CAVOK ///M07 Q1021=
0073010014999992016012105504+59792+005341FM-15+004999999V0201101N005719999999Y999999999+99999+99999999999ADDMA1102101999999REMMET046METAR ENSO 210550Z 11011KT CAVOK ///M07 Q1021=
0073010014999992016012106204+59792+005341FM-15+004999999V0201301N003119999999Y999999999+99999+99999999999ADDMA1102101999999REMMET046METAR ENSO 210620Z 13006KT CAVOK ///M07 Q1021=
0073010014999992016012106504+59792+005341FM-15+004999999V0200601N003619999999Y999999999+99999+99999999999ADDMA1102201999999REMMET046METAR ENSO 210650Z 06007KT CAVOK ///M07 Q1022=
0073010014999992016012107204+59792+005341FM-15+004999999V0201301N002119999999Y999999999+99999+99999999999ADDMA1102201999999REMMET046METAR ENSO 210720Z 13004KT CAVOK ///M07 Q1022=
0073010014999992016012107504+59792+005341FM-15+004999999V0201401N004619999999Y999999999+99999+99999999999ADDMA1102201999999REMMET046METAR ENSO 210750Z 14009KT CAVOK ///M07 Q1022=
0073010014999992016012108504+59792+005341FM-15+004999999V0201201N004119999999Y999999999+99999+99999999999ADDMA1102201999999REMMET046METAR ENSO 210850Z 12008KT CAVOK ///M07 Q1022=
0073010014999992016012109204+59792+005341FM-15+004999999V0201301N003619999999Y999999999+99999+99999999999ADDMA1102201999999REMMET046METAR ENSO 210920Z 13007KT CAVOK ///M08 Q1022=
0073010014999992016012109504+59792+005341FM-15+004999999V0201301N003619999999Y999999999+99999+99999999999ADDMA1102201999999REMMET046METAR ENSO 210950Z 13007KT CAVOK ///M08 Q1022=
0073010014999992016012110204+59792+005341FM-15+004999999V0201301N003619999999Y999999999+99999+99999999999ADDMA1102201999999REMMET046METAR ENSO 211020Z 13007KT CAVOK ///M07 Q1022=
0073010014999992016012110504+59792+005341FM-15+004999999V0201301N005119999999Y999999999+99999+99999999999ADDMA1102201999999REMMET046METAR ENSO 211050Z 13010KT CAVOK ///M08 Q1022=
0072010014999992016012111204+59792+005341FM-15+004999999V0201201N005119999999Y999999999+99999+99999999999ADDMA1102201999999REMMET045METAR ENSO 211120Z 12010KT CAVOK ///// Q1022=
0074010014999992016012111504+59792+005341FM-15+004999999V0201201N005119999999Y999999999-00201-00801999999ADDMA1102201999999REMMET047METAR ENSO 211150Z 12010KT CAVOK M02/M08 Q1022=
0074010014999992016012112204+59792+005341FM-15+004999999V0201201N004119999999Y999999999-00101-00801999999ADDMA1102201999999REMMET047METAR ENSO 211220Z 12008KT CAVOK M01/M08 Q1022=
0074010014999992016012112504+59792+005341FM-15+004999999V0201301N004119999999Y999999999-00101-00801999999ADDMA1102201999999REMMET047METAR ENSO 211250Z 13008KT CAVOK M01/M08 Q1022=
0074010014999992016012113204+59792+005341FM-15+004999999V0201301N004119999999Y999999999-00101-00801999999ADDMA1102201999999REMMET047METAR ENSO 211320Z 13008KT CAVOK M01/M08 Q1022=
0074010014999992016012113504+59792+005341FM-15+004999999V0201201N004619999999Y999999999-00101-00801999999ADDMA1102201999999REMMET047METAR ENSO 211350Z 12009KT CAVOK M01/M08 Q1022=
0074010014999992016012114204+59792+005341FM-15+004999999V0201201N005719999999Y999999999-00101-00801999999ADDMA1102201999999REMMET047METAR ENSO 211420Z 12011KT CAVOK M01/M08 Q1022=
0074010014999992016012114504+59792+005341FM-15+004999999V0201101N005719999999Y999999999-00101-00901999999ADDMA1102201999999REMMET047METAR ENSO 211450Z 11011KT CAVOK M01/M09 Q1022=
0074010014999992016012115204+59792+005341FM-15+004999999V0201101N005119999999Y999999999-00101-00901999999ADDMA1102201999999REMMET047METAR ENSO 211520Z 11010KT CAVOK M01/M09 Q1022=
0074010014999992016012115504+59792+005341FM-15+004999999V0201101N006719999999Y999999999-00101-00901999999ADDMA1102201999999REMMET047METAR ENSO 211550Z 11013KT CAVOK M01/M09 Q1022=
0074010014999992016012116204+59792+005341FM-15+004999999V0201201N006219999999Y999999999-00201-00801999999ADDMA1102201999999REMMET047METAR ENSO 211620Z 12012KT CAVOK M02/M08 Q1022=
0074010014999992016012116504+59792+005341FM-15+004999999V0201201N006219999999Y999999999-00101-00801999999ADDMA1102201999999REMMET047METAR ENSO 211650Z 12012KT CAVOK M01/M08 Q1022=
0074010014999992016012117204+59792+005341FM-15+004999999V0201101N006719999999Y999999999-00101-00801999999ADDMA1102201999999REMMET047METAR ENSO 211720Z 11013KT CAVOK M01/M08 Q1022=
0074010014999992016012117504+59792+005341FM-15+004999999V0201101N006719999999Y999999999-00101-00801999999ADDMA1102301999999REMMET047METAR ENSO 211750Z 11013KT CAVOK M01/M08 Q1023=
0074010014999992016012118204+59792+005341FM-15+004999999V0201001N006219999999Y999999999-00101-00901999999ADDMA1102301999999REMMET047METAR ENSO 211820Z 10012KT CAVOK M01/M09 Q1023=
0143010014999992016012207204+59792+005341FM-15+004999999V0201301N006710070119N009999199+00401-00101999999ADDGA1071+007011999GE19MSL   +99999+99999GF199999071999007011999999MA1101801999999REMMET052METAR ENSO 220720Z 13013KT 9999 BKN023 04/M01 Q1018=
0142010014999992016012207504+59792+005341FM-15+004999999V0201501N008210067119N009999199+00501+00001999999ADDGA1071+006711999GE19MSL   +99999+99999GF199999071999006711999999MA1101701999999REMMET051METAR ENSO 220750Z 15016KT 9999 BKN022 05/00 Q1017=
0153010014999992016012208204+59792+005341FM-15+004999999V0201401N009310067119N009999199+00501+00001999999ADDGA1071+006711999GE19MSL   +99999+99999GF199999071999006711999999MA1101701999999OC101441REMMET054METAR ENSO 220820Z 14018G28KT 9999 BKN022 05/00 Q1017=
0176010014999992016012208504+59792+005341FM-15+004999999V0201501N009310100619N009999199+00501+00101999999ADDGA1041+007621999GA2071+010061999GE19MSL   +99999+99999GF199999041999007621999999MA1101701999999OC101441REMMET061METAR ENSO 220850Z 15018G28KT 9999 SCT025 BKN033 05/01 Q1017=
0176010014999992016012209504+59792+005341FM-15+004999999V0201501N011310131119N009999199+00501+00101999999ADDGA1041+007621999GA2071+013111999GE19MSL   +99999+99999GF199999041999007621999999MA1101601999999OC101601REMMET061METAR ENSO 220950Z 15022G31KT 9999 SCT025 BKN043 05/01 Q1016=
0176010014999992016012210504+59792+005341FM-15+004999999V0201501N011810155419N009999199+00501+00101999999ADDGA1041+007621999GA2071+015541999GE19MSL   +99999+99999GF199999041999007621999999MA1101601999999OC101801REMMET061METAR ENSO 221050Z 15023G35KT 9999 SCT025 BKN051 05/01 Q1016=
0176010014999992016012211204+59792+005341FM-15+004999999V0201501N010810155419N009999199+00501+00101999999ADDGA1041+008231999GA2071+015541999GE19MSL   +99999+99999GF199999041999008231999999MA1101601999999OC101651REMMET061METAR ENSO 221120Z 15021G32KT 9999 SCT027 BKN051 05/01 Q1016=
0165010014999992016012211504+59792+005341FM-15+004999999V0201501N010810082319N009999199+00501+00101999999ADDGA1071+008231999GA2071+027431999GE19MSL   +99999+99999GF199999071999008231999999MA1101501999999REMMET058METAR ENSO 221150Z 15021KT 9999 BKN027 BKN090 05/01 Q1015=
0176010014999992016012212204+59792+005341FM-15+004999999V0201601N011310082319N009999199+00601+00001999999ADDGA1071+008231999GA2071+025911999GE19MSL   +99999+99999GF199999071999008231999999MA1101501999999OC101651REMMET061METAR ENSO 221220Z 16022G32KT 9999 BKN027 BKN085 06/00 Q1015=
0192010014999992016012212504+59792+005341FM-15+004999999V0209999N99999016761CN009999199+00601+00001999999ADDGA1021+008531999GA2041+016761999GA3071+036581999GE19MSL   +99999+99999GF199999021999008531999999MA1101501999999REMMET069METAR ENSO 221250Z 150202G32KT 9999 FEW028 SCT055 BKN120 06/00 Q1015=
0208010014999992016012213504+59792+005341FM-15+004999999V0201601V01081018291CN009999199+00601+00001999999ADDGA1021+009141999GA2041+018291999GA3071+045721999GE19MSL   +99999+99999GF199999021999009141999999MA1101501999999OC101851REMMET077METAR ENSO 221350Z 16021G36KT 130V190 9999 FEW030 SCT060 BKN150 06/M00 Q1015=
0208010014999992016012214204+59792+005341FM-15+004999999V0201601V01081021341CN009999199+00601+00001999999ADDGA1021+009141999GA2041+021341999GA3071+036581999GE19MSL   +99999+99999GF199999021999009141999999MA1101401999999OC101751REMMET077METAR ENSO 221420Z 16021G34KT 130V200 9999 FEW030 SCT070 BKN120 06/M00 Q1014=
0208010014999992016012214504+59792+005341FM-15+004999999V0201601V00981021341CN009999199+00501+00001999999ADDGA1021+009141999GA2041+021341999GA3071+054861999GE19MSL   +99999+99999GF199999021999009141999999MA1101301999999OC101491REMMET077METAR ENSO 221450Z 16019G29KT 130V200 9999 FEW030 SCT070 BKN180 05/M00 Q1013=
0212010014999992016012215204+59792+005341FM-15+004999999V0201601V01031018291CN009999199+00501-00101999999ADDGA1021+009141999GA2041+018291999GA3071+054861999GE19MSL   +99999+99999GF199999021999009141999999MA1101301999999OC101801REMMET081METAR COR ENSO 221520Z 16020G35KT 140V200 9999 FEW030 SCT060 BKN180 05/M01 Q1013=
0208010014999992016012215504+59792+005341FM-15+004999999V0201601V01241024381CN009999199+00601-00101999999ADDGA1021+012191999GA2041+024381999GA3071+060961999GE19MSL   +99999+99999GF199999021999012191999999MA1101301999999OC101801REMMET077METAR ENSO 221550Z 16024G35KT 130V210 9999 FEW040 SCT080 BKN200 06/M01 Q1013=
0185010014999992016012216204+59792+005341FM-15+004999999V0201601V012410548619N009999199+00601-00101999999ADDGA1021+012191999GA2071+054861999GE19MSL   +99999+99999GF199999021999012191999999MA1101201999999OC102111REMMET070METAR ENSO 221620Z 16024G41KT 140V200 9999 FEW040 BKN180 06/M01 Q1012=
0200010014999992016012217204+59792+005341FM-15+004999999V0201601N01131018291CN009999199+00501-00201999999ADDGA1021+009141999GA2041+018291999GA3071+027431999GE19MSL   +99999+99999GF199999021999009141999999MA1101201999999OC101701REMMET069METAR ENSO 221720Z 16022G33KT 9999 FEW030 SCT060 BKN090 05/M02 Q1012=
0208010014999992016012217504+59792+005341FM-15+004999999V0201501V01081015241CN009999199+00601-00201999999ADDGA1021+009141999GA2041+015241999GA3071+021341999GE19MSL   +99999+99999GF199999021999009141999999MA1101201999999OC101801REMMET077METAR ENSO 221750Z 15021G35KT 130V190 9999 FEW030 SCT050 BKN070 06/M02 Q1012=
0189010014999992016012218204+59792+005341FM-15+004999999V0201501N00981009751CN009999199+00601-00201999999ADDGA1021+006101999GA2041+009751999GA3071+013721999GE19MSL   +99999+99999GF199999021999006101999999MA1101201999999REMMET066METAR ENSO 221820Z 15019KT 9999 FEW020 SCT032 BKN045 06/M02 Q1012=
0198010014999992016012218504+59792+005341FM-15+004999999V0201601N00931009141CN009999199+00601-00301999999ADDGA1021+005491999GA2041+009141999GA3071+012801999GE19MSL   +99999+99999GF199999021999005491999999MA1101101999999MW1531REMMET069METAR ENSO 221850Z 16018KT 9999 DZ FEW018 SCT030 BKN042 06/M03 Q1011=
0217010014999992016012219204+59792+005341FM-15+004999999V0201601V01031007621CN009999199+00501-00101999999ADDGA1021+004571999GA2041+007621999GA3071+010671999GE19MSL   +99999+99999GF199999021999004571999999MA1101101999999MW1531OC101961REMMET080METAR ENSO 221920Z 16020G38KT 140V200 9999 DZ FEW015 SCT025 BKN035 05/M01 Q1011=
0181010014999992016012413504+59792+005341FM-15+004999999V0201401N007210012219N003500199+00601+00601999999ADDGA1041+000611999GA2071+001221999GE19MSL   +99999+99999GF199999041999000611999999MA1101501999999MW1581REMMET068METAR COR ENSO 241350Z 14014KT 3500 -RADZ SCT002 BKN004 06/06 Q1015=
0177010014999992016012414204+59792+005341FM-15+004999999V0201401N007710015219N005000199+00601+00601999999ADDGA1041+000611999GA2071+001521999GE19MSL   +99999+99999GF199999041999000611999999MA1101501999999MW1581REMMET064METAR ENSO 241420Z 14015KT 5000 -RADZ SCT002 BKN005 06/06 Q1015=
0177010014999992016012414504+59792+005341FM-15+004999999V0201401N008210015219N004500199+00601+00601999999ADDGA1041+000611999GA2071+001521999GE19MSL   +99999+99999GF199999041999000611999999MA1101501999999MW1581REMMET064METAR ENSO 241450Z 14016KT 4500 -RADZ SCT002 BKN005 06/06 Q1015=
0177010014999992016012415204+59792+005341FM-15+004999999V0201401N007210018319N007000199+00601+00601999999ADDGA1041+000611999GA2071+001831999GE19MSL   +99999+99999GF199999041999000611999999MA1101501999999MW1581REMMET064METAR ENSO 241520Z 14014KT 7000 -RADZ SCT002 BKN006 06/06 Q1015=
0165010014999992016012415504+59792+005341FM-15+004999999V0201401N006210018319N009999199+00601+00601999999ADDGA1041+000911999GA2071+001831999GE19MSL   +99999+99999GF199999041999000911999999MA1101501999999REMMET058METAR ENSO 241550Z 14012KT 9999 SCT003 BKN006 06/06 Q1015=
0174010014999992016012416204+59792+005341FM-15+004999999V0201401N006710027419N009999199+00601+00601999999ADDGA1041+001521999GA2071+002741999GE19MSL   +99999+99999GF199999041999001521999999MA1101401999999MW1631REMMET061METAR ENSO 241620Z 14013KT 9999 RA SCT005 BKN009 06/06 Q1014=
0174010014999992016012416504+59792+005341FM-15+004999999V0201401N007210030519N009999199+00601+00601999999ADDGA1041+001521999GA2071+003051999GE19MSL   +99999+99999GF199999041999001521999999MA1101401999999MW1631REMMET061METAR ENSO 241650Z 14014KT 9999 RA SCT005 BKN010 06/06 Q1014=
0197010014999992016012417204+59792+005341FM-15+004999999V0201301N00771002441CN009999199+00601+00601999999ADDGA1021+001521999GA2041+002441999GA3071+004271999GE19MSL   +99999+99999GF199999021999001521999999MA1101401999999MW1631REMMET068METAR ENSO 241720Z 13015KT 9999 RA FEW005 SCT008 BKN014 06/06 Q1014=
0174010014999992016012417504+59792+005341FM-15+004999999V0201301N007710036619N007000199+00601+00601999999ADDGA1041+002131999GA2071+003661999GE19MSL   +99999+99999GF199999041999002131999999MA1101401999999MW1631REMMET061METAR ENSO 241750Z 13015KT 7000 RA SCT007 BKN012 06/06 Q1014=
0175010014999992016012418504+59792+005341FM-15+004999999V0201301N005710018319N009999199+00601+00601999999ADDGA1071+001831999GA2071+004271999GE19MSL   +99999+99999GF199999071999001831999999MA1101401999999MW1611REMMET062METAR ENSO 241850Z 13011KT 9999 -RA BKN006 BKN014 06/06 Q1014=
0175010014999992016012419204+59792+005341FM-15+004999999V0201301N005710021319N007000199+00601+00601999999ADDGA1041+001221999GA2071+002131999GE19MSL   +99999+99999GF199999041999001221999999MA1101401999999MW1611REMMET062METAR ENSO 241920Z 13011KT 7000 -RA SCT004 BKN007 06/06 Q1014=
0175010014999992016012419504+59792+005341FM-15+004999999V0201201N006710018319N006000199+00601+00601999999ADDGA1041+000911999GA2071+001831999GE19MSL   +99999+99999GF199999041999000911999999MA1101401999999MW1611REMMET062METAR ENSO 241950Z 12013KT 6000 -RA SCT003 BKN006 06/06 Q1014=
0177010014999992016012420204+59792+005341FM-15+004999999V0201201N006210015219N006000199+00701+00601999999ADDGA1041+000911999GA2071+001521999GE19MSL   +99999+99999GF199999041999000911999999MA1101401999999MW1581REMMET064METAR ENSO 242020Z 12012KT 6000 -RADZ SCT003 BKN005 07/06 Q1014=
0177010014999992016012420504+59792+005341FM-15+004999999V0201201N006210015219N005500199+00701+00601999999ADDGA1041+000911999GA2071+001521999GE19MSL   +99999+99999GF199999041999000911999999MA1101401999999MW1581REMMET064METAR ENSO 242050Z 12012KT 5500 -DZRA SCT003 BKN005 07/06 Q1014=
0186010014999992016012421204+59792+005341FM-15+004999999V0201401N005110012219N004500199+00601+00601999999ADDGA1041+000611999GA2071+001221999GE19MSL   +99999+99999GF199999041999000611999999MA1101401999999MW1101MW2581REMMET067METAR ENSO 242120Z 14010KT 4500 -DZRA BR SCT002 BKN004 06/06 Q1014=
0163010014999992016012421504+59792+005341FM-15+004999999V0201501N004610009119N003500199+00701+00601999999ADDGA1071+000911999GE19MSL   +99999+99999GF199999071999000911999999MA1101401999999MW1101MW2581REMMET060METAR ENSO 242150Z 15009KT 3500 -DZRA BR BKN003 07/06 Q1014=
0165010014999992016012503504+59792+005341FM-15+004999999V0201301N007210021319N009999199+00701+00701999999ADDGA1021+000911999GA2071+002131999GE19MSL   +99999+99999GF199999021999000911999999MA1101301999999REMMET058METAR ENSO 250350Z 13014KT 9999 FEW003 BKN007 07/07 Q1013=
0165010014999992016012504204+59792+005341FM-15+004999999V0201301N006210021319N009999199+00701+00701999999ADDGA1021+000911999GA2071+002131999GE19MSL   +99999+99999GF199999021999000911999999MA1101301999999REMMET058METAR ENSO 250420Z 13012KT 9999 FEW003 BKN007 07/07 Q1013=
0165010014999992016012504504+59792+005341FM-15+004999999V0201401N007210021319N009999199+00801+00701999999ADDGA1021+000911999GA2071+002131999GE19MSL   +99999+99999GF199999021999000911999999MA1101301999999REMMET058METAR ENSO 250450Z 14014KT 9999 FEW003 BKN007 08/07 Q1013=
0165010014999992016012505204+59792+005341FM-15+004999999V0201401N008210021319N009999199+00801+00701999999ADDGA1021+000911999GA2071+002131999GE19MSL   +99999+99999GF199999021999000911999999MA1101201999999REMMET058METAR ENSO 250520Z 14016KT 9999 FEW003 BKN007 08/07 Q1012=
0165010014999992016012505504+59792+005341FM-15+004999999V0201501N007210021319N009999199+00801+00701999999ADDGA1021+000911999GA2071+002131999GE19MSL   +99999+99999GF199999021999000911999999MA1101201999999REMMET058METAR ENSO 250550Z 15014KT 9999 FEW003 BKN007 08/07 Q1012=
0176010014999992016012506204+59792+005341FM-15+004999999V0201501N008210015219N003000199+00801+00801999999ADDGA1021+000911999GA2071+001521999GE19MSL   +99999+99999GF199999021999000911999999MA1101201999999MW1591REMMET063METAR ENSO 250620Z 15016KT 3000 DZRA FEW003 BKN005 08/08 Q1012=
0176010014999992016012506504+59792+005341FM-15+004999999V0201501N007710015219N003000199+00801+00801999999ADDGA1021+000911999GA2071+001521999GE19MSL   +99999+99999GF199999021999000911999999MA1101201999999MW1591REMMET063METAR ENSO 250650Z 15015KT 3000 DZRA FEW003 BKN005 08/08 Q1012=
0165010014999992016012507204+59792+005341FM-15+004999999V0201501N005110018319N009999199+00801+00801999999ADDGA1021+001221999GA2071+001831999GE19MSL   +99999+99999GF199999021999001221999999MA1101201999999REMMET058METAR ENSO 250720Z 15010KT 9999 FEW004 BKN006 08/08 Q1012=
0165010014999992016012507504+59792+005341FM-15+004999999V0201501N007210021319N009999199+00801+00801999999ADDGA1021+001221999GA2071+002131999GE19MSL   +99999+99999GF199999021999001221999999MA1101201999999REMMET058METAR ENSO 250750Z 15014KT 9999 FEW004 BKN007 08/08 Q1012=
0165010014999992016012508204+59792+005341FM-15+004999999V0201501N006210021319N009999199+00901+00801999999ADDGA1021+001221999GA2071+002131999GE19MSL   +99999+99999GF199999021999001221999999MA1101201999999REMMET058METAR ENSO 250820Z 15012KT 9999 FEW004 BKN007 09/08 Q1012=
0165010014999992016012508504+59792+005341FM-15+004999999V0201401N008210018319N009999199+00901+00801999999ADDGA1021+001221999GA2071+001831999GE19MSL   +99999+99999GF199999021999001221999999MA1101201999999REMMET058METAR ENSO 250850Z 14016KT 9999 FEW004 BKN006 09/08 Q1012=
0165010014999992016012509204+59792+005341FM-15+004999999V0201401N007210018319N009999199+00901+00801999999ADDGA1021+001221999GA2071+001831999GE19MSL   +99999+99999GF199999021999001221999999MA1101101999999REMMET058METAR ENSO 250920Z 14014KT 9999 FEW004 BKN006 09/08 Q1011=
0165010014999992016012510204+59792+005341FM-15+004999999V0201401N009810021319N009999199+00901+00901999999ADDGA1021+001221999GA2071+002131999GE19MSL   +99999+99999GF199999021999001221999999MA1101101999999REMMET058METAR ENSO 251020Z 14019KT 9999 FEW004 BKN007 09/09 Q1011=
0188010014999992016012510504+59792+005341FM-15+004999999V0201401N01081002131CN009999199+00901+00901999999ADDGA1021+001221999GA2041+002131999GA3071+004571999GE19MSL   +99999+99999GF199999021999001221999999MA1101001999999REMMET065METAR ENSO 251050Z 14021KT 9999 FEW004 SCT007 BKN015 09/09 Q1010=
0188010014999992016012511204+59792+005341FM-15+004999999V0201501N00931003051CN009999199+01001+00901999999ADDGA1021+002131999GA2041+003051999GA3071+006101999GE19MSL   +99999+99999GF199999021999002131999999MA1101001999999REMMET065METAR ENSO 251120Z 15018KT 9999 FEW007 SCT010 BKN020 10/09 Q1010=
0188010014999992016012511504+59792+005341FM-15+004999999V0201501N00721002741CN009999199+01001+00901999999ADDGA1021+002131999GA2041+002741999GA3071+006101999GE19MSL   +99999+99999GF199999021999002131999999MA1100901999999REMMET065METAR ENSO 251150Z 15014KT 9999 FEW007 SCT009 BKN020 10/09 Q1009=
0188010014999992016012512204+59792+005341FM-15+004999999V0201501N00881003051CN009999199+01001+00901999999ADDGA1021+002131999GA2041+003051999GA3071+021341999GE19MSL   +99999+99999GF199999021999002131999999MA1100901999999REMMET065METAR ENSO 251220Z 15017KT 9999 FEW007 SCT010 BKN070 10/09 Q1009=
