0113010060999992016010100004+78250+022817FM-12+001499999V0202101N008019999999N999999999+00201-00091100961ADDMA1999999100801MD1210321+9999OD139901501999REMSYN05801006 46/// /2108 10020 21009 30080 40096 52032 333 91115=
0085010060999992016010101004+78251+022823FM-12+001499999V0202411N0107199999999999999999+00201-00061100961ADDKA1010M+00281KA2010N+00181MA1999999100811MD1310241+9999OD130101241999REMSYN004BUFR
0090010060999992016010105004+78251+022823FM-12+001499999V0201521N0044199999999999999999+00171-00011101111ADDKA1010M+00281KA2010N+00111MA1999999100961OD130100861999REMSYN004BUFREQDQ014     3APCTEN
0045010060999992016010106004+78251+022823FM-12+001499999V0201681N0070199999999999999999+00151+00061101101ADDMA1999999100941MD1510031+9999REMSYN004BUFR
0085010060999992016010107004+78251+022823FM-12+001499999V0202061N0076199999999999999999+00291+00001101061ADDKA1010M+00331KA2010N+00161MA1999999100901MD1610051+9999OD130100961999REMSYN004BUFR
0085010060999992016010108004+78251+022823FM-12+001499999V0203341N0021199999999999999999+00201-00031101131ADDKA1010M+00321KA2010N+00181MA1999999100971MD1010021+9999OD130100831999REMSYN004BUFR
0108010060999992016010109004+78250+022817FM-12+001499999V0201701N004019999999N999999999+00231-00011101091ADDMA1999999100931MD1790019+9999REMSYN04801006 46/// /1704 10023 21001 30093 40109 54002=EQDQ01.2    3APC3  
0085010060999992016010110004+78251+022823FM-12+001499999V0201751N0026199999999999999999+00221+00011101031ADDKA1010M+00321KA2010N+00181MA1999999100871MD1510031+9999OD130100531999REMSYN004BUFR
0085010060999992016010111004+78251+022823FM-12+001499999V0201321N0046199999999999999999+00191+00181100941ADDKA1010M+00291KA2010N+00051MA1999999100781MD1610191+9999OD130100691999REMSYN004BUFR
0085010060999992016010113004+78251+022823FM-12+001499999V0201691N0073199999999999999999+00141+00111100751ADDKA1010M+00181KA2010N+00001MA1999999100601MD1710281+9999OD130101071999REMSYN004BUFR
0085010060999992016010114004+78251+022823FM-12+001499999V0201851N0094199999999999999999+00171+00061100711ADDKA1010M+00201KA2010N+00121MA1999999100551MD1710231+9999OD130101121999REMSYN004BUFR
0085010060999992016010115004+78251+022823FM-12+001499999V0201911N0023199999999999999999+00241+00071100721ADDKA1010M+00251KA2010N+00171MA1999999100561MD1810151+9999OD130101011999REMSYN004BUFR
0085010060999992016010116004+78251+022823FM-12+001499999V0202001N0119199999999999999999+00201+00081100611ADDKA1010M+00251KA2010N+00181MA1999999100461MD1610141+9999OD130101321999REMSYN004BUFR
0085010060999992016010117004+78251+022823FM-12+001499999V0202051N0122199999999999999999+00271+00151100631ADDKA1010M+00281KA2010N+00201MA1999999100481MD1710071+9999OD130101511999REMSYN004BUFR
0059010060999992016010118004+78251+022823FM-12+001499999V0201821N0086199999999999999999+00271+00121100711ADDMA1999999100551MD1010011+9999OD130601511999REMSYN004BUFR
0089010060999992016010120004+78250+022817FM-12+001499999V0202201N014019999999N999999999+00391+00161100821ADDMA1999999100661MD1210191+9999REMSYN04801006 46/// /2214 10039 20016 30066 40082 52019=
0085010060999992016010121004+78251+022823FM-12+001499999V0202191N0097199999999999999999+00371+00171100911ADDKA1010M+00441KA2010N+00381MA1999999100761MD1110211+9999OD130101791999REMSYN004BUFR
0085010060999992016010201004+78251+022823FM-12+001499999V0202371N0176199999999999999999+00371+00201100941ADDKA1010M+00431KA2010N+00331MA1999999100781MD1210061+9999OD130102321999REMSYN004BUFR
0085010060999992016010202004+78251+022823FM-12+001499999V0202181N0092199999999999999999+00371+00141101081ADDKA1010M+00391KA2010N+00341MA1999999100921MD1110171+9999OD130101931999REMSYN004BUFR
0085010060999992016010203004+78251+022823FM-12+001499999V0202281N0154199999999999999999+00351+00071100971ADDKA1010M+00451KA2010N+00331MA1999999100811MD1310061+9999OD130101631999REMSYN004BUFR
0085010060999992016010204004+78251+022823FM-12+001499999V0201771N0080199999999999999999+00301+00081101091ADDKA1010M+00361KA2010N+00291MA1999999100931MD1210151+9999OD130101411999REMSYN004BUFR
0085010060999992016010205004+78251+022823FM-12+001499999V0201631N0088199999999999999999+00251+00111101111ADDKA1010M+00331KA2010N+00241MA1999999100951MD1010031+9999OD130101191999REMSYN004BUFR
0059010060999992016010206004+78251+022823FM-12+001499999V0201651N0060199999999999999999+00291+00081101101ADDMA1999999100941MD1310131+9999OD130602321999REMSYN004BUFR
0085010060999992016010207004+78251+022823FM-12+001499999V0202071N0085199999999999999999+00291-00021100971ADDKA1010M+00321KA2010N+00271MA1999999100821MD1610121+9999OD130101031999REMSYN004BUFR
0085010060999992016010209004+78251+022823FM-12+001499999V0202121N0115199999999999999999+00251+00071100861ADDKA1010M+00271KA2010N+00221MA1999999100701MD1810241+9999OD130101571999REMSYN004BUFR
0071010060999992016010212004+78251+022823FM-12+001499999V0202271N0205199999999999999999+00271-00041100671ADDKA1010M+00331KA2010N+00271MA1999999100511MD1810191+9999REMSYN004BUFR
0085010060999992016010213004+78251+022823FM-12+001499999V0202311N0197199999999999999999+00191-00021100691ADDKA1010M+00271KA2010N+00191MA1999999100541MD1810081+9999OD130102361999REMSYN004BUFR
0085010060999992016010214004+78251+022823FM-12+001499999V0202301N0200199999999999999999+00221-00041100811ADDKA1010M+00241KA2010N+00191MA1999999100661MD1010101+9999OD130102561999REMSYN004BUFR
0085010060999992016010215004+78251+022823FM-12+001499999V0202341N0200199999999999999999+00191-00041100871ADDKA1010M+00231KA2010N+00191MA1999999100721MD1110201+9999OD130102401999REMSYN004BUFR
0085010060999992016010216004+78251+022823FM-12+001499999V0202341N0197199999999999999999+00171-00051101001ADDKA1010M+00201KA2010N+00151MA1999999100851MD1210311+9999OD130102501999REMSYN004BUFR
0045010060999992016010218004+78251+022823FM-12+001499999V0202471N0144199999999999999999+00191-00081101441ADDMA1999999101281MD1210561+9999REMSYN004BUFR
0059010060999992016010220004+78251+022823FM-12+001499999V0202501N0125199999999999999999+00171-00141101781ADDMA1999999101621MD1210481+9999OD130101391999REMSYN004BUFR
0085010060999992016010221004+78251+022823FM-12+001499999V0202731N0068199999999999999999+00141-00161101991ADDKA1010M+00211KA2010N+00101MA1999999101831MD1210551+9999OD130101221999REMSYN004BUFR
0085010060999992016010222004+78251+022823FM-12+001499999V0202621N0077199999999999999999+00101-00191102101ADDKA1010M+00281KA2010N+00111MA1999999101951MD1210461+9999OD130101351999REMSYN004BUFR
0085010060999992016010223004+78251+022823FM-12+001499999V0202381N0133199999999999999999+00141-00141102131ADDKA1010M+00171KA2010N+00101MA1999999101971MD1310351+9999OD130101581999REMSYN004BUFR
0089010060999992016010300004+78250+022817FM-12+001499999V0202301N014019999999N999999999+00251-00041102201ADDMA1999999102051MD1310221+9999REMSYN04801006 46/// /2314 10025 21004 30205 40220 53022=
0085010060999992016010302004+78251+022823FM-12+001499999V0202221N0095199999999999999999+00201+00001102361ADDKA1010M+00321KA2010N+00211MA1999999102201MD1110231+9999OD130101391999REMSYN004BUFR
0085010060999992016010303004+78251+022823FM-12+001499999V0202291N0138199999999999999999+00291+00141102341ADDKA1010M+00291KA2010N+00181MA1999999102181MD1310131+9999OD130101551999REMSYN004BUFR
0089010060999992016010304004+78250+022817FM-12+001499999V0202201N006019999999N999999999+00261+00081102381ADDMA1999999102221MD1310141+9999REMSYN04801006 46/// /2206 10026 20008 30222 40238 53014=
0085010060999992016010305004+78251+022823FM-12+001499999V0202011N0099199999999999999999+00301+00101102251ADDKA1010M+00311KA2010N+00191MA1999999102091MD1610111+9999OD130101101999REMSYN004BUFR
0045010060999992016010306004+78251+022823FM-12+001499999V0201881N0122199999999999999999+00221+00061102211ADDMA1999999102051MD1510121+9999REMSYN004BUFR
0085010060999992016010307004+78251+022823FM-12+001499999V0201851N0125199999999999999999+00241+00081102161ADDKA1010M+00281KA2010N+00211MA1999999102001MD1810211+9999OD130101431999REMSYN004BUFR
0085010060999992016010309004+78251+022823FM-12+001499999V0202021N0145199999999999999999+00271+00041102011ADDKA1010M+00291KA2010N+00251MA1999999101851MD1710201+9999OD130101621999REMSYN004BUFR
0085010060999992016010310004+78251+022823FM-12+001499999V0201951N0162199999999999999999+00241+00041101921ADDKA1010M+00281KA2010N+00241MA1999999101761MD1710241+9999OD130101821999REMSYN004BUFR
0085010060999992016010311004+78251+022823FM-12+001499999V0201841N0125199999999999999999+00221+00081101911ADDKA1010M+00281KA2010N+00191MA1999999101751MD1810161+9999OD130101891999REMSYN004BUFR
0071010060999992016010312004+78251+022823FM-12+001499999V0202141N0156199999999999999999+00271+00031101751ADDKA1010M+00301KA2010N+00251MA1999999101591MD1610261+9999REMSYN004BUFR
0089010060999992016010314004+78250+022817FM-12+001499999V0202101N014019999999N999999999+00291+00051101681ADDMA1999999101521MD1810231+9999REMSYN04801006 46/// /2114 10029 20005 30152 40168 58023=
0085010060999992016010315004+78251+022823FM-12+001499999V0202141N0167199999999999999999+00291+00051101631ADDKA1010M+00311KA2010N+00281MA1999999101471MD1610121+9999OD130101941999REMSYN004BUFR
0085010060999992016010316004+78251+022823FM-12+001499999V0202051N0151199999999999999999+00271+00071101591ADDKA1010M+00301KA2010N+00261MA1999999101431MD1710171+9999OD130101981999REMSYN004BUFR
0045010060999992016010318004+78251+022823FM-12+001499999V0202141N0177199999999999999999+00271+00091101421ADDMA1999999101261MD1610211+9999REMSYN004BUFR
0089010060999992016010319004+78250+022817FM-12+001499999V0202201N019019999999N999999999+00321+00091101351ADDMA1999999101201MD1610231+9999REMSYN04801006 46/// /2219 10032 20009 30120 40135 56023=
0085010060999992016010321004+78251+022823FM-12+001499999V0202161N0136199999999999999999+00321+00121101511ADDKA1010M+00351KA2010N+00321MA1999999101351MD1010091+9999OD130101911999REMSYN004BUFR
0089010060999992016010322004+78250+022817FM-12+001499999V0202201N014019999999N999999999+00301+00141101511ADDMA1999999101351MD1990161+9999REMSYN04801006 46/// /2214 10030 20014 30135 40151 50016=
0071010060999992016010400004+78251+022823FM-12+001499999V0202491N0100199999999999999999+00151+00101101481ADDKA1010M+00301KA2010N+00141MA1999999101321MD1510031+9999REMSYN004BUFR
0085010060999992016010407004+78251+022823FM-12+001499999V0202451N0060199999999999999999+00091-00041101431ADDKA1010M+00121KA2010N+00081MA1999999101271MD1810041+9999OD130100691999REMSYN004BUFR
0090010060999992016010408004+78251+022823FM-12+001499999V0202661N0081199999999999999999+00001-00291101421ADDKA1010M+00091KA2010N+00011MA1999999101261OD130100871999REMSYN004BUFREQDQ014     3APCTEN
0071010060999992016010412004+78251+022823FM-12+001499999V0202811N0112199999999999999999-00121-00471101441ADDKA1010M-00091KA2010N-00131MA1999999101281MD1810041+9999REMSYN004BUFR
0089010060999992016010413004+78250+022817FM-12+001499999V0202701N009019999999N999999999-00161-00491101491ADDMA1999999101331MD1990041+9999REMSYN04801006 46/// /2709 11016 21049 30133 40149 50004=
0089010060999992016010414004+78250+022817FM-12+001499999V0202701N012019999999N999999999-00161-00471101451ADDMA1999999101291MD1310081+9999REMSYN04801006 46/// /2712 11016 21047 30129 40145 53008=
0089010060999992016010415004+78250+022817FM-12+001499999V0202801N007019999999N999999999-00201-00461101561ADDMA1999999101401MD1110121+9999REMSYN04801006 46/// /2807 11020 21046 30140 40156 51012=
0085010060999992016010417004+78251+022823FM-12+001499999V0202661N0070199999999999999999-00251-00501101641ADDKA1010M-00201KA2010N-00261MA1999999101481MD1310191+9999OD130100761999REMSYN004BUFR
0045010060999992016010418004+78251+022823FM-12+001499999V0202501N0060199999999999999999-00301-00561101721ADDMA1999999101561MD1210161+9999REMSYN004BUFR
0089010060999992016010419004+78250+022817FM-12+001499999V0202601N007019999999N999999999-00281-00441101781ADDMA1999999101621MD1110151+9999REMSYN04801006 46/// /2607 11028 21044 30162 40178 51015=
0059010060999992016010421004+78251+022823FM-12+001499999V0202471N0063199999999999999999-00301-00511101881ADDMA1999999101721MD1210161+9999OD130100781999REMSYN004BUFR
0059010060999992016010423004+78251+022823FM-12+001499999V0202731N0073199999999999999999-00271-00501101941ADDMA1999999101781MD1210111+9999OD130100801999REMSYN004BUFR
0071010060999992016010500004+78251+022823FM-12+001499999V0202511N0039199999999999999999-00301-00551102001ADDKA1010M-00251KA2010N-00311MA1999999101841MD1210131+9999REMSYN004BUFR
0089010060999992016010501004+78250+022817FM-12+001499999V0202601N006019999999N999999999-00361-00611102011ADDMA1999999101851MD1210091+9999REMSYN04801006 46/// /2606 11036 21061 30185 40201 52009=
0085010060999992016010502004+78251+022823FM-12+001499999V0202521N0060199999999999999999-00341-00591102041ADDKA1010M-00301KA2010N-00381MA1999999101881MD1310091+9999OD130100751999REMSYN004BUFR
0085010060999992016010503004+78251+022823FM-12+001499999V0202621N0048199999999999999999-00321-00581102081ADDKA1010M-00311KA2010N-00431MA1999999101921MD1110081+9999OD130100541999REMSYN004BUFR
0085010060999992016010504004+78251+022823FM-12+001499999V0202331N0045199999999999999999-00401-00671102121ADDKA1010M-00331KA2010N-00451MA1999999101961MD1210101+9999OD130100531999REMSYN004BUFR
0085010060999992016010505004+78251+022823FM-12+001499999V0202441N0040199999999999999999-00501-00711102161ADDKA1010M-00401KA2010N-00531MA1999999102001MD1210121+9999OD130100541999REMSYN004BUFR
0059010060999992016010506004+78251+022823FM-12+001499999V0202311N0029199999999999999999-00451-00701102191ADDMA1999999102031MD1210111+9999OD130600751999REMSYN004BUFR
0071010060999992016010507004+78251+022823FM-12+001499999V0202311N0032199999999999999999-00451-00761102221ADDKA1010M-00461KA2010N-00551MA1999999102061MD1210101+9999REMSYN004BUFR
0071010060999992016010509004+78251+022823FM-12+001499999V0202141N0038199999999999999999-00521-00761102261ADDKA1010M-00401KA2010N-00551MA1999999102101MD1210081+9999REMSYN004BUFR
0085010060999992016010515004+78251+022823FM-12+001499999V0202151N0053199999999999999999-00671-00841102191ADDKA1010M-00641KA2010N-00751MA1999999102031MD1710031+9999OD130100631999REMSYN004BUFR
0071010060999992016010519004+78251+022823FM-12+001499999V0202261N0023199999999999999999-00501-00821102131ADDKA1010M-00491KA2010N-00611MA1999999101971MD1710041+9999REMSYN004BUFR
0071010060999992016010520004+78251+022823FM-12+001499999V0203451N0002199999999999999999-00551-00821102131ADDKA1010M-00491KA2010N-00561MA1999999101961MD1710051+9999REMSYN004BUFR
0064010060999992016010522004+78251+022823FM-12+001499999V0202691N0013199999999999999999-00621-00801102111ADDMA1999999101951MD1790029+9999REMSYN004BUFREQDQ01.3    3APC3  
0090010060999992016010523004+78251+022823FM-12+001499999V0202431N0013199999999999999999-00551-00731102111ADDKA1010M-00561KA2010N-00641MA1999999101951MD1790029+9999REMSYN004BUFREQDQ01.2    3APC3  
0071010060999992016010600004+78251+022823FM-12+001499999V0202341N0016199999999999999999-00601-00771102071ADDKA1010M-00561KA2010N-00631MA1999999101911MD1610051+9999REMSYN004BUFR
0071010060999992016010601004+78251+022823FM-12+001499999V0202201N0016199999999999999999-00621-00821102061ADDKA1010M-00601KA2010N-00681MA1999999101901MD1710051+9999REMSYN004BUFR
0089010060999992016010602004+78250+022817FM-12+001499999V0202101N003019999999N999999999-00651-00801102031ADDMA1999999101871MD1710081+9999REMSYN04801006 46/// /2103 11065 21080 30187 40203 57008=
0071010060999992016010603004+78251+022823FM-12+001499999V0202181N0038199999999999999999-00651-00801102021ADDKA1010M-00611KA2010N-00661MA1999999101861MD1710041+9999REMSYN004BUFR
0089010060999992016010604004+78250+022817FM-12+001499999V0202201N005019999999N999999999-00681-00831102011ADDMA1999999101851MD1710051+9999REMSYN04801006 46/// /2205 11068 21083 30185 40201 57005=
0089010060999992016010605004+78250+022817FM-12+001499999V0202101N004019999999N999999999-00681-00841101981ADDMA1999999101821MD1710051+9999REMSYN04801006 46/// /2104 11068 21084 30182 40198 57005=
0059010060999992016010606004+78251+022823FM-12+001499999V0201931N0038199999999999999999-00701-00851101961ADDMA1999999101801MD1710061+9999OD130600601999REMSYN004BUFR
0085010060999992016010607004+78251+022823FM-12+001499999V0201771N0046199999999999999999-00771-00921101961ADDKA1010M-00701KA2010N-00771MA1999999101791MD1710051+9999OD130100571999REMSYN004BUFR
0090010060999992016010608004+78251+022823FM-12+001499999V0201921N0008199999999999999999-00751-00931101961ADDKA1010M-00721KA2010N-00781MA1999999101801MD1790029+9999REMSYN004BUFREQDQ01.2    3APC3  
0108010060999992016010609004+78250+022817FM-12+001499999V0201801N002019999999N999999999-00691-00891101971ADDMA1999999101811MD1290019+9999REMSYN04801006 46/// /1802 11069 21089 30181 40197 54001=EQDQ01.1    3APC3  
0090010060999992016010610004+78251+022823FM-12+001499999V0202261N0010199999999999999999-00771-00951101951ADDKA1010M-00671KA2010N-00771MA1999999101791MD1790019+9999REMSYN004BUFREQDQ01.1    3APC3  
0089010060999992016010611004+78250+022817FM-12+001499999V0202501N002019999999N999999999-00751-00871101931ADDMA1999999101771MD1610041+9999REMSYN04801006 46/// /2502 11075 21087 30177 40193 56004=
0113010060999992016010612004+78250+022817FM-12+001499999V0202301N003019999999N999999999-00761-00841101931ADDMA1999999101771MD1710041+9999OD139900601999REMSYN05801006 46/// /2303 11076 21084 30177 40193 57004 333 91106=
0090010060999992016010613004+78251+022823FM-12+001499999V0202351N0029199999999999999999-00801-00911101921ADDKA1010M-00741KA2010N-00801MA1999999101761MD1790039+9999REMSYN004BUFREQDQ01.3    3APC3  
0090010060999992016010614004+78251+022823FM-12+001499999V0202291N0025199999999999999999-00771-00861101911ADDKA1010M-00781KA2010N-00831MA1999999101751MD1790029+9999REMSYN004BUFREQDQ01.2    3APC3  
0104010060999992016010615004+78251+022823FM-12+001499999V0200121N0029199999999999999999-00651-00711101911ADDKA1010M-00651KA2010N-00781MA1999999101741MD1790029+9999OD130100531999REMSYN004BUFREQDQ01.3    3APC3  
0090010060999992016010617004+78251+022823FM-12+001499999V0203371N0042199999999999999999-00641-00801101931ADDKA1010M-00641KA2010N-00671MA1999999101771MD1290029+9999REMSYN004BUFREQDQ01.2    3APC3  
0045010060999992016010618004+78251+022823FM-12+001499999V0202981N0032199999999999999999-00641-00741101911ADDMA1999999101751MD1510011+9999REMSYN004BUFR
0090010060999992016010619004+78251+022823FM-12+001499999V0202201N0054199999999999999999-00751-00791101911ADDKA1010M-00641KA2010N-00811MA1999999101751OD130100601999REMSYN004BUFREQDQ014     3APCTEN
0085010060999992016010620004+78251+022823FM-12+001499999V0202121N0038199999999999999999-00741-00761101941ADDKA1010M-00721KA2010N-00771MA1999999101781MD1010011+9999OD130100601999REMSYN004BUFR
0071010060999992016010621004+78251+022823FM-12+001499999V0200461N0004199999999999999999-00691-00711101971ADDKA1010M-00691KA2010N-00781MA1999999101811MD1110061+9999REMSYN004BUFR
0089010060999992016010622004+78250+022817FM-12+001499999V0200501N005019999999N999999999-00571-00771102001ADDMA1999999101841MD1210091+9999REMSYN04801006 46/// /0505 11057 21077 30184 40200 52009=
0071010060999992016010623004+78251+022823FM-12+001499999V0200381N0035199999999999999999-00541-00711102011ADDKA1010M-00541KA2010N-00571MA1999999101851MD1210071+9999REMSYN004BUFR
0113010060999992016010700004+78250+022817FM-12+001499999V0200601N005019999999N999999999-00521-00641102031ADDMA1999999101871MD1210061+9999OD139900601999REMSYN05801006 46/// /0605 11052 21064 30187 40203 52006 333 91106=
0085010060999992016010701004+78251+022823FM-12+001499999V0200611N0058199999999999999999-00501-00661102041ADDKA1010M-00481KA2010N-00531MA1999999101881MD1210041+9999OD130100681999REMSYN004BUFR
0085010060999992016010702004+78251+022823FM-12+001499999V0200621N0088199999999999999999-00471-00661102061ADDKA1010M-00471KA2010N-00531MA1999999101901MD1210041+9999OD130101071999REMSYN004BUFR
0104010060999992016010703004+78251+022823FM-12+001499999V0200631N0107199999999999999999-00501-00741102051ADDKA1010M-00481KA2010N-00551MA1999999101891MD1290029+9999OD130101311999REMSYN004BUFREQDQ01.2    3APC3  
0085010060999992016010704004+78251+022823FM-12+001499999V0200661N0102199999999999999999-00541-00811102081ADDKA1010M-00511KA2010N-00541MA1999999101921MD1210041+9999OD130101191999REMSYN004BUFR
0085010060999992016010705004+78251+022823FM-12+001499999V0200781N0099199999999999999999-00521-00851102101ADDKA1010M-00511KA2010N-00561MA1999999101941MD1210051+9999OD130101181999REMSYN004BUFR
0085010060999992016010706004+78251+022823FM-12+001499999V0200751N0100199999999999999999-00521-00791102151ADDKA1120M-00471KA2120N-00811MA1999999101991MD1210101+9999OD130601311999REMSYN004BUFR
0089010060999992016010707004+78250+022817FM-12+001499999V0200801N010019999999N999999999-00591-00801102201ADDMA1999999102041MD1210111+9999REMSYN04801006 46/// /0810 11059 21080 30204 40220 52011=
0089010060999992016010708004+78250+022817FM-12+001499999V0200901N009019999999N999999999-00641-00901102251ADDMA1999999102091MD1210151+9999REMSYN04801006 46/// /0909 11064 21090 30209 40225 52015=
0089010060999992016010709004+78250+022817FM-12+001499999V0200801N010019999999N999999999-00661-00971102301ADDMA1999999102141MD1210151+9999REMSYN04801006 46/// /0810 11066 21097 30214 40230 52015=
0089010060999992016010710004+78250+022817FM-12+001499999V0200801N010019999999N999999999-00731-01041102321ADDMA1999999102161MD1310121+9999REMSYN04801006 46/// /0810 11073 21104 30216 40232 53012=
0089010060999992016010711004+78250+022817FM-12+001499999V0200801N009019999999N999999999-00721-01061102341ADDMA1999999102171MD1310091+9999REMSYN04801006 46/// /0809 11072 21106 30217 40234 53009=
0104010060999992016010712004+78251+022823FM-12+001499999V0200801N0080199999999999999999-00741-01141102331ADDKA1010M-00711KA2010N-00741MA1999999102171MD1290039+9999OD130601171999REMSYN004BUFREQDQ01.3    3APC3  
0085010060999992016010713004+78251+022823FM-12+001499999V0200771N0085199999999999999999-00721-01161102321ADDKA1010M-00711KA2010N-00741MA1999999102151MD1510011+9999OD130101021999REMSYN004BUFR
0108010060999992016010714004+78250+022817FM-12+001499999V0200701N008019999999N999999999-00721-01161102311ADDMA1999999102141MD1790039+9999REMSYN04801006 46/// /0708 11072 21116 30214 40231 54003=EQDQ01.3    3APC3  
0104010060999992016010715004+78251+022823FM-12+001499999V0200651N0084199999999999999999-00741-01161102311ADDKA1010M-00711KA2010N-00741MA1999999102151MD1790029+9999OD130101031999REMSYN004BUFREQDQ01.2    3APC3  
0108010060999992016010717004+78250+022817FM-12+001499999V0200201N008019999999N999999999-00811-01381102291ADDMA1999999102121MD1790029+9999REMSYN04801006 46/// /0208 11081 21138 30212 40229 54002=EQDQ01.2    3APC3  
0045010060999992016010718004+78251+022823FM-12+001499999V0200091N0082199999999999999999-00851-01301102251ADDMA1999999102091MD1610061+9999REMSYN004BUFR
0085010060999992016010719004+78251+022823FM-12+001499999V0200581N0065199999999999999999-00821-01211102251ADDKA1010M-00821KA2010N-00851MA1999999102081MD1710071+9999OD130100861999REMSYN004BUFR
0085010060999992016010720004+78251+022823FM-12+001499999V0200511N0066199999999999999999-00851-01281102231ADDKA1010M-00821KA2010N-00861MA1999999102071MD1710061+9999OD130100881999REMSYN004BUFR
0104010060999992016010721004+78251+022823FM-12+001499999V0200581N0065199999999999999999-00871-01251102221ADDKA1010M-00841KA2010N-00871MA1999999102061MD1790039+9999OD130100801999REMSYN004BUFREQDQ01.3    3APC3  
0104010060999992016010722004+78251+022823FM-12+001499999V0200531N0055199999999999999999-00871-01161102221ADDKA1010M-00861KA2010N-00881MA1999999102051MD1790039+9999OD130100901999REMSYN004BUFREQDQ01.3    3APC3  
0071010060999992016010800004+78251+022823FM-12+001499999V0200851N0067199999999999999999-00901-01091102161ADDKA1010M-00881KA2010N-00911MA1999999101991MD1710071+9999REMSYN004BUFR
0085010060999992016010802004+78251+022823FM-12+001499999V0200901N0061199999999999999999-00891-01301102151ADDKA1010M-00881KA2010N-00921MA1999999101981MD1710041+9999OD130100831999REMSYN004BUFR
0104010060999992016010803004+78251+022823FM-12+001499999V0200871N0045199999999999999999-00891-01271102141ADDKA1010M-00871KA2010N-00901MA1999999101971MD1790029+9999OD130100731999REMSYN004BUFREQDQ01.2    3APC3  
0085010060999992016010804004+78251+022823FM-12+001499999V0200711N0056199999999999999999-00871-01251102111ADDKA1010M-00871KA2010N-00901MA1999999101951MD1710051+9999OD130100671999REMSYN004BUFR
0085010060999992016010805004+78251+022823FM-12+001499999V0200781N0060199999999999999999-00871-01161102101ADDKA1010M-00861KA2010N-00881MA1999999101931MD1710051+9999OD130100721999REMSYN004BUFR
0045010060999992016010806004+78251+022823FM-12+001499999V0200791N0072199999999999999999-00821-01071102081ADDMA1999999101921MD1710051+9999REMSYN004BUFR
0089010060999992016010807004+78250+022817FM-12+001499999V0200901N008019999999N999999999-00811-01031102061ADDMA1999999101901MD1710051+9999REMSYN04801006 46/// /0908 11081 21103 30190 40206 57005=
0085010060999992016010808004+78251+022823FM-12+001499999V0200901N0070199999999999999999-00791-01011102091ADDKA1010M-00791KA2010N-00811MA1999999101931MD1010001+9999OD130100911999REMSYN004BUFR
0085010060999992016010809004+78251+022823FM-12+001499999V0201081N0072199999999999999999-00771-01021102111ADDKA1010M-00781KA2010N-00801MA1999999101951MD1010031+9999OD130100901999REMSYN004BUFR
0104010060999992016010811004+78251+022823FM-12+001499999V0200851N0077199999999999999999-00791-01041102111ADDKA1010M-00771KA2010N-00791MA1999999101951MD1290029+9999OD130100931999REMSYN004BUFREQDQ01.2    3APC3  
0071010060999992016010812004+78251+022823FM-12+001499999V0200851N0070199999999999999999-00801-01081102141ADDKA1010M-00781KA2010N-00811MA1999999101971MD1010031+9999REMSYN004BUFR
0089010060999992016010814004+78250+022817FM-12+001499999V0200901N006019999999N999999999-00821-01041102161ADDMA1999999102001MD1210051+9999REMSYN04801006 46/// /0906 11082 21104 30200 40216 52005=
0104010060999992016010815004+78251+022823FM-12+001499999V0200811N0061199999999999999999-00801-01031102171ADDKA1010M-00801KA2010N-00821MA1999999102001MD1290039+9999OD130100721999REMSYN004BUFREQDQ01.3    3APC3  
0090010060999992016010816004+78251+022823FM-12+001499999V0200851N0056199999999999999999-00801-01011102181ADDKA1010M-00801KA2010N-00811MA1999999102011OD130100721999REMSYN004BUFREQDQ014     3APCTEN
0104010060999992016010817004+78251+022823FM-12+001499999V0200711N0064199999999999999999-00801-00981102181ADDKA1010M-00791KA2010N-00801MA1999999102021MD1290029+9999OD130100781999REMSYN004BUFREQDQ01.2    3APC3  
0064010060999992016010818004+78251+022823FM-12+001499999V0200671N0074199999999999999999-00771-00951102191ADDMA1999999102021MD1290029+9999REMSYN004BUFREQDQ01.2    3APC3  
0089010060999992016010819004+78250+022817FM-12+001499999V0200701N006019999999N999999999-00761-00951102211ADDMA1999999102051MD1210041+9999REMSYN04801006 46/// /0706 11076 21095 30205 40221 52004=
0089010060999992016010820004+78250+022817FM-12+001499999V0200701N006019999999N999999999-00721-00911102231ADDMA1999999102061MD1210041+9999REMSYN04801006 46/// /0706 11072 21091 30206 40223 52004=
0108010060999992016010822004+78250+022817FM-12+001499999V0200601N007019999999N999999999-00641-00791102191ADDMA1999999102031MD1790029+9999REMSYN04801006 46/// /0607 11064 21079 30203 40219 54002=EQDQ01.2    3APC3  
0071010060999992016010900004+78251+022823FM-12+001499999V0200621N0063199999999999999999-00701-00831102231ADDKA1010M-00661KA2010N-00701MA1999999102071MD1210031+9999REMSYN004BUFR
0104010060999992016010903004+78251+022823FM-12+001499999V0200481N0059199999999999999999-00691-00811102261ADDKA1010M-00681KA2010N-00701MA1999999102091MD1290039+9999OD130100731999REMSYN004BUFREQDQ01.3    3APC3  
0085010060999992016010904004+78251+022823FM-12+001499999V0200511N0056199999999999999999-00671-00801102251ADDKA1010M-00671KA2010N-00681MA1999999102091MD1410001+9999OD130100681999REMSYN004BUFR
0094010060999992016010905004+78250+022817FM-12+001499999V0200501N006019999999N999999999-00691-00811102241ADDMA1999999102081REMSYN04801006 46/// /0506 11069 21081 30208 40224 54001=EQDQ014     3APCTEN
0104010060999992016010907004+78251+022823FM-12+001499999V0200361N0061199999999999999999-00651-00751102231ADDKA1010M-00651KA2010N-00691MA1999999102071MD1790029+9999OD130100751999REMSYN004BUFREQDQ01.2    3APC3  
0085010060999992016010909004+78251+022823FM-12+001499999V0200591N0059199999999999999999-00621-00861102261ADDKA1010M-00611KA2010N-00631MA1999999102101MD1210031+9999OD130100761999REMSYN004BUFR
0089010060999992016010910004+78250+022817FM-12+001499999V0200601N006019999999N999999999-00641-00751102261ADDMA1999999102101MD1210031+9999REMSYN04801006 46/// /0606 11064 21075 30210 40226 52003=
0090010060999992016010912004+78251+022823FM-12+001499999V0200791N0054199999999999999999-00691-00861102281ADDKA1010M-00681KA2010N-00691MA1999999102121MD1290029+9999REMSYN004BUFREQDQ01.2    3APC3  
0085010060999992016010913004+78251+022823FM-12+001499999V0200871N0041199999999999999999-00671-00831102271ADDKA1010M-00671KA2010N-00691MA1999999102111MD1410001+9999OD130100691999REMSYN004BUFR
0104010060999992016010916004+78251+022823FM-12+001499999V0200481N0051199999999999999999-00741-00921102251ADDKA1010M-00681KA2010N-00741MA1999999102091MD1790029+9999OD130100731999REMSYN004BUFREQDQ01.2    3APC3  
0050010060999992016010918004+78251+022823FM-12+001499999V0200601N0042199999999999999999-00751-00901102251ADDMA1999999102081REMSYN004BUFREQDQ014     3APCTEN
0085010060999992016010919004+78251+022823FM-12+001499999V0200461N0040199999999999999999-00721-00841102251ADDKA1010M-00731KA2010N-00761MA1999999102081MD1410001+9999OD130100631999REMSYN004BUFR
0085010060999992016010920004+78251+022823FM-12+001499999V0200631N0050199999999999999999-00721-00891102261ADDKA1010M-00711KA2010N-00731MA1999999102101MD1010001+9999OD130100801999REMSYN004BUFR
0104010060999992016010921004+78251+022823FM-12+001499999V0200851N0047199999999999999999-00701-00871102271ADDKA1010M-00691KA2010N-00721MA1999999102111MD1290029+9999OD130100831999REMSYN004BUFREQDQ01.3    3APC3  
0089010060999992016010923004+78250+022817FM-12+001499999V0200501N003019999999N999999999-00691-00811102231ADDMA1999999102061MD1610031+9999REMSYN04801006 46/// /0503 11069 21081 30206 40223 56003=
0071010060999992016011000004+78251+022823FM-12+001499999V0200491N0048199999999999999999-00651-00811102231ADDKA1010M-00661KA2010N-00691MA1999999102071MD1710041+9999REMSYN004BUFR
0104010060999992016011002004+78251+022823FM-12+001499999V0200881N0054199999999999999999-00621-00901102211ADDKA1010M-00621KA2010N-00651MA1999999102051MD1790029+9999OD130100811999REMSYN004BUFREQDQ01.2    3APC3  
0104010060999992016011003004+78251+022823FM-12+001499999V0200761N0057199999999999999999-00621-00901102201ADDKA1010M-00631KA2010N-00641MA1999999102041MD1790039+9999OD130100781999REMSYN004BUFREQDQ01.3    3APC3  
0085010060999992016011004004+78251+022823FM-12+001499999V0200601N0054199999999999999999-00621-00911102171ADDKA1010M-00621KA2010N-00641MA1999999102011MD1710041+9999OD130100741999REMSYN004BUFR
0085010060999992016011005004+78251+022823FM-12+001499999V0200631N0052199999999999999999-00621-00901102161ADDKA1010M-00621KA2010N-00641MA1999999102001MD1710051+9999OD130100651999REMSYN004BUFR
0045010060999992016011006004+78251+022823FM-12+001499999V0200721N0044199999999999999999-00621-00901102181ADDMA1999999102021MD1010021+9999REMSYN004BUFR
0104010060999992016011007004+78251+022823FM-12+001499999V0200661N0057199999999999999999-00601-00871102191ADDKA1010M-00601KA2010N-00621MA1999999102031MD1290029+9999OD130100901999REMSYN004BUFREQDQ01.2    3APC3  
0085010060999992016011008004+78251+022823FM-12+001499999V0200741N0073199999999999999999-00651-00891102231ADDKA1010M-00601KA2010N-00651MA1999999102061MD1210071+9999OD130100941999REMSYN004BUFR
0085010060999992016011009004+78251+022823FM-12+001499999V0200701N0068199999999999999999-00671-00941102261ADDKA1010M-00651KA2010N-00681MA1999999102091MD1210071+9999OD130100941999REMSYN004BUFR
0085010060999992016011010004+78251+022823FM-12+001499999V0200911N0063199999999999999999-00691-00921102261ADDKA1010M-00671KA2010N-00691MA1999999102091MD1310071+9999OD130100791999REMSYN004BUFR
0085010060999992016011011004+78251+022823FM-12+001499999V0200761N0064199999999999999999-00691-00941102291ADDKA1010M-00681KA2010N-00711MA1999999102131MD1210061+9999OD130100791999REMSYN004BUFR
0089010060999992016011013004+78250+022817FM-12+001499999V0200801N006019999999N999999999-00671-00971102311ADDMA1999999102151MD1210061+9999REMSYN04801006 46/// /0806 11067 21097 30215 40231 52006=
0104010060999992016011014004+78251+022823FM-12+001499999V0200691N0059199999999999999999-00641-00921102311ADDKA1010M-00641KA2010N-00671MA1999999102151MD1290029+9999OD130100691999REMSYN004BUFREQDQ01.2    3APC3  
0085010060999992016011017004+78251+022823FM-12+001499999V0200831N0067199999999999999999-00621-00941102361ADDKA1010M-00621KA2010N-00641MA1999999102201MD1210051+9999OD130100851999REMSYN004BUFR
0045010060999992016011018004+78251+022823FM-12+001499999V0200771N0068199999999999999999-00621-00891102381ADDMA1999999102221MD1210051+9999REMSYN004BUFR
0089010060999992016011019004+78250+022817FM-12+001499999V0200801N007019999999N999999999-00621-00861102411ADDMA1999999102241MD1210061+9999REMSYN04801006 46/// /0807 11062 21086 30224 40241 52006=
0085010060999992016011020004+78251+022823FM-12+001499999V0200811N0063199999999999999999-00601-00951102471ADDKA1010M-00611KA2010N-00631MA1999999102301MD1110101+9999OD130100801999REMSYN004BUFR
0085010060999992016011021004+78251+022823FM-12+001499999V0200771N0068199999999999999999-00621-00901102491ADDKA1010M-00611KA2010N-00631MA1999999102331MD1210111+9999OD130100861999REMSYN004BUFR
0045010060999992016011100004+78251+022823FM-12+001499999V0200841N0059199999999999999999-00671-00901102601ADDMA1999999102441MD1210111+9999REMSYN004BUFR
0085010060999992016011101004+78251+022823FM-12+001499999V0200671N0059199999999999999999-00671-00991102611ADDKA1010M-00671KA2010N-00681MA1999999102451MD1210081+9999OD130100741999REMSYN004BUFR
0085010060999992016011104004+78251+022823FM-12+001499999V0201011N0045199999999999999999-00671-00971102701ADDKA1010M-00661KA2010N-00681MA1999999102541MD1310091+9999OD130100571999REMSYN004BUFR
0085010060999992016011105004+78251+022823FM-12+001499999V0201001N0062199999999999999999-00671-00961102721ADDKA1010M-00661KA2010N-00681MA1999999102561MD1210061+9999OD130100751999REMSYN004BUFR
0085010060999992016011107004+78251+022823FM-12+001499999V0201361N0040199999999999999999-00851-01051102871ADDKA1010M-00671KA2010N-00901MA1999999102701MD1110161+9999OD130100631999REMSYN004BUFR
0085010060999992016011108004+78251+022823FM-12+001499999V0200991N0055199999999999999999-00741-00921102901ADDKA1010M-00731KA2010N-00911MA1999999102731MD1310171+9999OD130100651999REMSYN004BUFR
0085010060999992016011109004+78251+022823FM-12+001499999V0200961N0047199999999999999999-00701-00891102951ADDKA1010M-00701KA2010N-00741MA1999999102791MD1210161+9999OD130100601999REMSYN004BUFR
0089010060999992016011110004+78250+022817FM-12+001499999V0201501N004019999999N999999999-00821-00991103001ADDMA1999999102831MD1210131+9999REMSYN04801006 46/// /1504 11082 21099 30283 40300 52013=
0089010060999992016011111004+78250+022817FM-12+001499999V0201401N003019999999N999999999-00851-01011103041ADDMA1999999102871MD1210141+9999REMSYN04801006 46/// /1403 11085 21101 30287 40304 52014=
0085010060999992016011112004+78251+022823FM-12+001499999V0201331N0025199999999999999999-00851-01021103081ADDKA1010M-00831KA2010N-00871MA1999999102911MD1210131+9999OD130600651999REMSYN004BUFR
0071010060999992016011113004+78251+022823FM-12+001499999V0201011N0038199999999999999999-00721-00861103101ADDKA1010M-00731KA2010N-00861MA1999999102941MD1210101+9999REMSYN004BUFR
0085010060999992016011114004+78251+022823FM-12+001499999V0200981N0035199999999999999999-00801-00981103141ADDKA1010M-00711KA2010N-00801MA1999999102981MD1210101+9999OD130100511999REMSYN004BUFR
0071010060999992016011115004+78251+022823FM-12+001499999V0200951N0033199999999999999999-00791-00901103181ADDKA1010M-00761KA2010N-00801MA1999999103021MD1210101+9999REMSYN004BUFR
0085010060999992016011116004+78251+022823FM-12+001499999V0201111N0046199999999999999999-00701-00861103211ADDKA1010M-00681KA2010N-00801MA1999999103041MD1210111+9999OD130100531999REMSYN004BUFR
0085010060999992016011117004+78251+022823FM-12+001499999V0201121N0046199999999999999999-00721-00921103251ADDKA1010M-00671KA2010N-00751MA1999999103081MD1210101+9999OD130100531999REMSYN004BUFR
0085010060999992016011118004+78251+022823FM-12+001499999V0201361N0034199999999999999999-00801-00981103291ADDKA1120M-00671KA2120N-00911MA1999999103121MD1210101+9999OD130600541999REMSYN004BUFR
0089010060999992016011119004+78250+022817FM-12+001499999V0201401N003019999999N999999999-00881-01051103331ADDMA1999999103171MD1210121+9999REMSYN04801006 46/// /1403 11088 21105 30317 40333 52012=
0089010060999992016011120004+78250+022817FM-12+001499999V0201401N004019999999N999999999-00881-01061103361ADDMA1999999103201MD1210111+9999REMSYN04801006 46/// /1404 11088 21106 30320 40336 52011=
0071010060999992016011121004+78251+022823FM-12+001499999V0201381N0030199999999999999999-00901-01121103411ADDKA1010M-00871KA2010N-00961MA1999999103241MD1210121+9999REMSYN004BUFR
0089010060999992016011122004+78250+022817FM-12+001499999V0201401N003019999999N999999999-00871-01081103451ADDMA1999999103281MD1210121+9999REMSYN04801006 46/// /1403 11087 21108 30328 40345 52012=
0071010060999992016011123004+78251+022823FM-12+001499999V0203011N0010199999999999999999-01071-01201103481ADDKA1010M-00861KA2010N-01081MA1999999103311MD1210111+9999REMSYN004BUFR
0071010060999992016011200004+78251+022823FM-12+001499999V0203111N0006199999999999999999-01071-01171103501ADDKA1010M-01071KA2010N-01111MA1999999103331MD1210101+9999REMSYN004BUFR
0071010060999992016011201004+78251+022823FM-12+001499999V0202351N0019199999999999999999-01021-01151103511ADDKA1010M-01011KA2010N-01091MA1999999103341MD1210061+9999REMSYN004BUFR
0089010060999992016011202004+78250+022817FM-12+001499999V0202201N001019999999N999999999-00971-01151103511ADDMA1999999103351MD1210041+9999REMSYN04801006 46/// /2201 11097 21115 30335 40351 52004=
0090010060999992016011203004+78251+022823FM-12+001499999V0202061N0018199999999999999999-00971-01111103511ADDKA1010M-00971KA2010N-01031MA1999999103341MD1290019+9999REMSYN004BUFREQDQ01.1    3APC3  
0090010060999992016011204004+78251+022823FM-12+001499999V0201431N0017199999999999999999-01021-01191103531ADDKA1010M-00931KA2010N-01031MA1999999103361MD1290029+9999REMSYN004BUFREQDQ01.2    3APC3  
0090010060999992016011205004+78251+022823FM-12+001499999V0201271N0007199999999999999999-01371-01501103531ADDKA1010M-01031KA2010N-01401MA1999999103361MD1290029+9999REMSYN004BUFREQDQ01.1    3APC3  
0090010060999992016011206004+78251+022823FM-12+001499999V0202131N0014199999999999999999-01171-01251103521ADDKA1120M-00801KA2120N-01401MA1999999103351MD1290019+9999REMSYN004BUFREQDQ01.1    3APC3  
0090010060999992016011208004+78251+022823FM-12+001499999V0202171N0018199999999999999999-01051-01181103531ADDKA1010M-01051KA2010N-01281MA1999999103361MD1410009+9999REMSYN004BUFREQDQ01.1    3APC3  
0071010060999992016011209004+78251+022823FM-12+001499999V0202381N0025199999999999999999-01101-01231103511ADDKA1010M-01061KA2010N-01121MA1999999103351MD1510001+9999REMSYN004BUFR
0071010060999992016011210004+78251+022823FM-12+001499999V0202341N0039199999999999999999-01171-01321103491ADDKA1010M-01111KA2010N-01181MA1999999103321MD1710051+9999REMSYN004BUFR
0071010060999992016011211004+78251+022823FM-12+001499999V0202251N0043199999999999999999-01191-01331103451ADDKA1010M-01141KA2010N-01251MA1999999103291MD1710081+9999REMSYN004BUFR
0071010060999992016011212004+78251+022823FM-12+001499999V0202311N0040199999999999999999-01171-01331103421ADDKA1010M-01141KA2010N-01291MA1999999103251MD1710091+9999REMSYN004BUFR
0071010060999992016011213004+78251+022823FM-12+001499999V0202331N0039199999999999999999-01171-01321103371ADDKA1010M-01151KA2010N-01201MA1999999103201MD1710121+9999REMSYN004BUFR
0085010060999992016011214004+78251+022823FM-12+001499999V0202311N0045199999999999999999-01351-01581103341ADDKA1010M-01141KA2010N-01381MA1999999103171MD1710111+9999OD130100501999REMSYN004BUFR
0071010060999992016011215004+78251+022823FM-12+001499999V0202351N0039199999999999999999-01351-01551103301ADDKA1010M-01301KA2010N-01411MA1999999103131MD1710121+9999REMSYN004BUFR
0071010060999992016011216004+78251+022823FM-12+001499999V0202301N0044199999999999999999-01351-01551103241ADDKA1010M-01301KA2010N-01421MA1999999103071MD1610131+9999REMSYN004BUFR
0071010060999992016011217004+78251+022823FM-12+001499999V0202341N0043199999999999999999-01321-01561103191ADDKA1010M-01281KA2010N-01441MA1999999103021MD1710151+9999REMSYN004BUFR
0059010060999992016011218004+78251+022823FM-12+001499999V0202331N0047199999999999999999-01391-01601103121ADDMA1999999102951MD1710181+9999OD130600511999REMSYN004BUFR
0085010060999992016011219004+78251+022823FM-12+001499999V0202311N0047199999999999999999-01271-01511103061ADDKA1010M-01271KA2010N-01401MA1999999102901MD1710171+9999OD130100531999REMSYN004BUFR
0089010060999992016011220004+78250+022817FM-12+001499999V0202301N005019999999N999999999-01241-01441103001ADDMA1999999102831MD1710181+9999REMSYN04801006 46/// /2305 11124 21144 30283 40300 57018=
0071010060999992016011221004+78251+022823FM-12+001499999V0202351N0044199999999999999999-01191-01381102951ADDKA1010M-01161KA2010N-01261MA1999999102781MD1710171+9999REMSYN004BUFR
0085010060999992016011222004+78251+022823FM-12+001499999V0202331N0050199999999999999999-01171-01341102861ADDKA1010M-01161KA2010N-01221MA1999999102691MD1610211+9999OD130100541999REMSYN004BUFR
0085010060999992016011223004+78251+022823FM-12+001499999V0202431N0063199999999999999999-01341-01471102771ADDKA1010M-01171KA2010N-01411MA1999999102601MD1610241+9999OD130100671999REMSYN004BUFR
0085010060999992016011300004+78251+022823FM-12+001499999V0202351N0062199999999999999999-01371-01501102681ADDKA1010M-01331KA2010N-01411MA1999999102511MD1710271+9999OD130600671999REMSYN004BUFR
0085010060999992016011301004+78251+022823FM-12+001499999V0202321N0065199999999999999999-01221-01361102581ADDKA1010M-01221KA2010N-01371MA1999999102411MD1710281+9999OD130100721999REMSYN004BUFR
0085010060999992016011302004+78251+022823FM-12+001499999V0202431N0064199999999999999999-01051-01221102521ADDKA1010M-01041KA2010N-01221MA1999999102351MD1710251+9999OD130100751999REMSYN004BUFR
0085010060999992016011303004+78251+022823FM-12+001499999V0202581N0065199999999999999999-00971-01121102431ADDKA1010M-00921KA2010N-01031MA1999999102271MD1710251+9999OD130100771999REMSYN004BUFR
0085010060999992016011304004+78251+022823FM-12+001499999V0202831N0069199999999999999999-00801-01011102341ADDKA1010M-00781KA2010N-00981MA1999999102181MD1710231+9999OD130100801999REMSYN004BUFR
0085010060999992016011305004+78251+022823FM-12+001499999V0202801N0050199999999999999999-00871-01081102271ADDKA1010M-00821KA2010N-00921MA1999999102111MD1710241+9999OD130100791999REMSYN004BUFR
0085010060999992016011306004+78251+022823FM-12+001499999V0202901N0048199999999999999999-00741-00921102231ADDKA1120M-00741KA2120N-01411MA1999999102071MD1810201+9999OD130600801999REMSYN004BUFR
0085010060999992016011307004+78251+022823FM-12+001499999V0203241N0067199999999999999999-00621-00861102231ADDKA1010M-00631KA2010N-00741MA1999999102071MD1810111+9999OD130100801999REMSYN004BUFR
0085010060999992016011308004+78251+022823FM-12+001499999V0203501N0042199999999999999999-00721-00891102231ADDKA1010M-00631KA2010N-00731MA1999999102061MD1810051+9999OD130100811999REMSYN004BUFR
0085010060999992016011309004+78251+022823FM-12+001499999V0203281N0042199999999999999999-00691-00881102201ADDKA1010M-00691KA2010N-00741MA1999999102031MD1710041+9999OD130100551999REMSYN004BUFR
0085010060999992016011310004+78251+022823FM-12+001499999V0202941N0055199999999999999999-00771-00951102141ADDKA1010M-00681KA2010N-00791MA1999999101981MD1610091+9999OD130100791999REMSYN004BUFR
0085010060999992016011311004+78251+022823FM-12+001499999V0202941N0066199999999999999999-00721-00941102101ADDKA1010M-00731KA2010N-00781MA1999999101931MD1710131+9999OD130100811999REMSYN004BUFR
0085010060999992016011312004+78251+022823FM-12+001499999V0203021N0063199999999999999999-00751-01041102061ADDKA1010M-00691KA2010N-00761MA1999999101891MD1710141+9999OD130600841999REMSYN004BUFR
0085010060999992016011313004+78251+022823FM-12+001499999V0202981N0057199999999999999999-00771-01051102031ADDKA1010M-00731KA2010N-00781MA1999999101871MD1710111+9999OD130100771999REMSYN004BUFR
0085010060999992016011314004+78251+022823FM-12+001499999V0202881N0072199999999999999999-00751-01111101981ADDKA1010M-00741KA2010N-00761MA1999999101821MD1710111+9999OD130100801999REMSYN004BUFR
0085010060999992016011315004+78251+022823FM-12+001499999V0202551N0059199999999999999999-00891-01051101971ADDKA1010M-00741KA2010N-00901MA1999999101801MD1710091+9999OD130100771999REMSYN004BUFR
0085010060999992016011316004+78251+022823FM-12+001499999V0202781N0060199999999999999999-00801-01001101931ADDKA1010M-00801KA2010N-00891MA1999999101761MD1710111+9999OD130100711999REMSYN004BUFR
0085010060999992016011317004+78251+022823FM-12+001499999V0202761N0052199999999999999999-00791-01031101911ADDKA1010M-00771KA2010N-00801MA1999999101751MD1710071+9999OD130100731999REMSYN004BUFR
0085010060999992016011318004+78251+022823FM-12+001499999V0202261N0050199999999999999999-00921-01201101861ADDKA1120M-00631KA2120N-00951MA1999999101691MD1710111+9999OD130600801999REMSYN004BUFR
0085010060999992016011319004+78251+022823FM-12+001499999V0202371N0051199999999999999999-00921-01231101811ADDKA1010M-00901KA2010N-00941MA1999999101641MD1610121+9999OD130100641999REMSYN004BUFR
0085010060999992016011320004+78251+022823FM-12+001499999V0202271N0045199999999999999999-01051-01351101771ADDKA1010M-00921KA2010N-01051MA1999999101601MD1710151+9999OD130100541999REMSYN004BUFR
0085010060999992016011321004+78251+022823FM-12+001499999V0202351N0058199999999999999999-00921-01251101711ADDKA1010M-00891KA2010N-01051MA1999999101551MD1710141+9999OD130100681999REMSYN004BUFR
0085010060999992016011322004+78251+022823FM-12+001499999V0202431N0062199999999999999999-00821-01111101661ADDKA1010M-00831KA2010N-00951MA1999999101491MD1710151+9999OD130100711999REMSYN004BUFR
0085010060999992016011323004+78251+022823FM-12+001499999V0202411N0076199999999999999999-00821-01061101581ADDKA1010M-00791KA2010N-00861MA1999999101421MD1710191+9999OD130100811999REMSYN004BUFR
0085010060999992016011400004+78251+022823FM-12+001499999V0202421N0065199999999999999999-00851-01091101521ADDKA1010M-00811KA2010N-00871MA1999999101351MD1710191+9999OD130600811999REMSYN004BUFR
0085010060999992016011401004+78251+022823FM-12+001499999V0202501N0056199999999999999999-00791-01031101481ADDKA1010M-00791KA2010N-00931MA1999999101311MD1810181+9999OD130100681999REMSYN004BUFR
0085010060999992016011402004+78251+022823FM-12+001499999V0202791N0064199999999999999999-00601-00871101401ADDKA1010M-00611KA2010N-00871MA1999999101231MD1710181+9999OD130100711999REMSYN004BUFR
0085010060999992016011403004+78251+022823FM-12+001499999V0202501N0084199999999999999999-00691-00991101371ADDKA1010M-00601KA2010N-00691MA1999999101201MD1710151+9999OD130101031999REMSYN004BUFR
0085010060999992016011404004+78251+022823FM-12+001499999V0202431N0080199999999999999999-00601-00881101291ADDKA1010M-00601KA2010N-00711MA1999999101131MD1710181+9999OD130100901999REMSYN004BUFR
0085010060999992016011405004+78251+022823FM-12+001499999V0202301N0061199999999999999999-00551-00911101231ADDKA1010M-00551KA2010N-00621MA1999999101071MD1710161+9999OD130100901999REMSYN004BUFR
0085010060999992016011406004+78251+022823FM-12+001499999V0202221N0082199999999999999999-00501-00801101131ADDKA1120M-00511KA2120N-01051MA1999999100971MD1610241+9999OD130601031999REMSYN004BUFR
0085010060999992016011407004+78251+022823FM-12+001499999V0202281N0090199999999999999999-00451-00681101081ADDKA1010M-00461KA2010N-00531MA1999999100921MD1710211+9999OD130101061999REMSYN004BUFR
0085010060999992016011408004+78251+022823FM-12+001499999V0202321N0084199999999999999999-00451-00681101051ADDKA1010M-00441KA2010N-00471MA1999999100891MD1810181+9999OD130101071999REMSYN004BUFR
0085010060999992016011409004+78251+022823FM-12+001499999V0202321N0082199999999999999999-00471-00721101031ADDKA1010M-00441KA2010N-00481MA1999999100871MD1710101+9999OD130101021999REMSYN004BUFR
0085010060999992016011410004+78251+022823FM-12+001499999V0202331N0087199999999999999999-00421-00691101021ADDKA1010M-00431KA2010N-00481MA1999999100861MD1710061+9999OD130101021999REMSYN004BUFR
0085010060999992016011411004+78251+022823FM-12+001499999V0202701N0104199999999999999999-00451-00691101011ADDKA1010M-00391KA2010N-00461MA1999999100851MD1710041+9999OD130101191999REMSYN004BUFR
0104010060999992016011412004+78251+022823FM-12+001499999V0202471N0069199999999999999999-00571-00791101011ADDKA1010M-00471KA2010N-00611MA1999999100851MD1790029+9999OD130601191999REMSYN004BUFREQDQ01.2    3APC3  
0108010060999992016011413004+78250+022817FM-12+001499999V0202501N009019999999N999999999-00681-01011101011ADDMA1999999100851MD1790019+9999REMSYN04801006 46/// /2509 11068 21101 30085 40101 54001=EQDQ01.1    3APC3  
0089010060999992016011414004+78250+022817FM-12+001499999V0202401N007019999999N999999999-00691-00961101041ADDMA1999999100881MD1210031+9999REMSYN04801006 46/// /2407 11069 21096 30088 40104 52003=
0085010060999992016011415004+78251+022823FM-12+001499999V0202331N0087199999999999999999-00741-01071101061ADDKA1010M-00671KA2010N-00761MA1999999100901MD1210051+9999OD130101201999REMSYN004BUFR
0085010060999992016011416004+78251+022823FM-12+001499999V0202301N0076199999999999999999-00701-01071101071ADDKA1010M-00641KA2010N-00781MA1999999100911MD1210061+9999OD130100921999REMSYN004BUFR
0085010060999992016011417004+78251+022823FM-12+001499999V0202211N0073199999999999999999-00751-01101101091ADDKA1010M-00641KA2010N-00791MA1999999100931MD1210051+9999OD130100901999REMSYN004BUFR
0132010060999992016011418004+78250+022817FM-12+001499999V0202501N006019999999N999999999-00801-01051101071ADDKA1120M-00391MA1999999100911MD1510011+9999OD139901201999REMSYN06401006 46/// /2506 11080 21105 30091 40107 55001 333 11039 91112=
0089010060999992016011419004+78250+022817FM-12+001499999V0202401N005019999999N999999999-00851-01171101111ADDMA1999999100951MD1210041+9999REMSYN04801006 46/// /2405 11085 21117 30095 40111 52004=
0108010060999992016011420004+78250+022817FM-12+001499999V0202501N009019999999N999999999-00771-01071101111ADDMA1999999100941MD1290029+9999REMSYN04801006 46/// /2509 11077 21107 30094 40111 54001=EQDQ01.1    3APC3  
0089010060999992016011421004+78250+022817FM-12+001499999V0202501N005019999999N999999999-00821-01121101171ADDMA1999999101011MD1210101+9999REMSYN04801006 46/// /2505 11082 21112 30101 40117 52010=
0085010060999992016011422004+78251+022823FM-12+001499999V0202521N0066199999999999999999-00791-01031101221ADDKA1010M-00781KA2010N-00851MA1999999101051MD1110111+9999OD130100731999REMSYN004BUFR
0089010060999992016011423004+78250+022817FM-12+001499999V0202601N007019999999N999999999-00751-01031101251ADDMA1999999101081MD1310141+9999REMSYN04801006 46/// /2607 11075 21103 30108 40125 53014=
0113010060999992016011500004+78250+022817FM-12+001499999V0202601N003019999999N999999999-00821-01031101301ADDMA1999999101131MD1210121+9999OD139901001999REMSYN05801006 46/// /2603 11082 21103 30113 40130 52012 333 91110=
0071010060999992016011501004+78251+022823FM-12+001499999V0202241N0030199999999999999999-00921-01171101331ADDKA1010M-00771KA2010N-00941MA1999999101171MD1210121+9999REMSYN004BUFR
0071010060999992016011502004+78251+022823FM-12+001499999V0202171N0040199999999999999999-00801-01141101371ADDKA1010M-00711KA2010N-00901MA1999999101211MD1210121+9999REMSYN004BUFR
0089010060999992016011503004+78250+022817FM-12+001499999V0202101N004019999999N999999999-00721-01081101421ADDMA1999999101261MD1210131+9999REMSYN04801006 46/// /2104 11072 21108 30126 40142 52013=
0071010060999992016011504004+78251+022823FM-12+001499999V0201921N0041199999999999999999-00801-01171101461ADDKA1010M-00661KA2010N-00821MA1999999101291MD1210131+9999REMSYN004BUFR
0071010060999992016011505004+78251+022823FM-12+001499999V0202181N0040199999999999999999-00721-01241101501ADDKA1010M-00691KA2010N-00841MA1999999101331MD1210131+9999REMSYN004BUFR
0071010060999992016011506004+78251+022823FM-12+001499999V0201851N0042199999999999999999-00871-01291101521ADDKA1120M-00661KA2120N-00981MA1999999101361MD1210101+9999REMSYN004BUFR
0071010060999992016011507004+78251+022823FM-12+001499999V0201861N0024199999999999999999-00691-01161101571ADDKA1010M-00661KA2010N-00941MA1999999101401MD1210111+9999REMSYN004BUFR
0071010060999992016011508004+78251+022823FM-12+001499999V0201321N0006199999999999999999-01021-01331101621ADDKA1010M-00691KA2010N-01081MA1999999101451MD1210121+9999REMSYN004BUFR
0071010060999992016011509004+78251+022823FM-12+001499999V0200721N0006199999999999999999-00951-01211101681ADDKA1010M-00901KA2010N-01101MA1999999101521MD1210161+9999REMSYN004BUFR
0071010060999992016011510004+78251+022823FM-12+001499999V0201891N0022199999999999999999-00871-01241101711ADDKA1010M-00871KA2010N-00991MA1999999101551MD1210151+9999REMSYN004BUFR
0089010060999992016011511004+78250+022817FM-12+001499999V0201201N001019999999N999999999-00821-01221101741ADDMA1999999101571MD1310121+9999REMSYN04801006 46/// /1201 11082 21122 30157 40174 53012=
0113010060999992016011512004+78250+022817FM-12+001499999V0201201N003019999999N999999999-00891-01141101741ADDMA1999999101571MD1310061+9999OD139900501999REMSYN05801006 46/// /1203 11089 21114 30157 40174 53006 333 91105=
0085010060999992016011513004+78251+022823FM-12+001499999V0201371N0051199999999999999999-00801-01051101761ADDKA1010M-00801KA2010N-00891MA1999999101591MD1210051+9999OD130100611999REMSYN004BUFR
0085010060999992016011514004+78251+022823FM-12+001499999V0201391N0061199999999999999999-00751-01001101801ADDKA1010M-00721KA2010N-00791MA1999999101631MD1110061+9999OD130100731999REMSYN004BUFR
0085010060999992016011515004+78251+022823FM-12+001499999V0201421N0058199999999999999999-00651-00891101811ADDKA1010M-00651KA2010N-00771MA1999999101641MD1210071+9999OD130100691999REMSYN004BUFR
0085010060999992016011516004+78251+022823FM-12+001499999V0201471N0076199999999999999999-00621-00791101791ADDKA1010M-00631KA2010N-00711MA1999999101631MD1310031+9999OD130100851999REMSYN004BUFR
0104010060999992016011517004+78251+022823FM-12+001499999V0201311N0058199999999999999999-00621-00761101771ADDKA1010M-00591KA2010N-00651MA1999999101611MD1790039+9999OD130100781999REMSYN004BUFREQDQ01.2    3APC3  
0085010060999992016011518004+78251+022823FM-12+001499999V0201471N0060199999999999999999-00671-00841101791ADDKA1120M-00561KA2120N-01101MA1999999101631MD1010011+9999OD130601161999REMSYN004BUFR
0108010060999992016011519004+78250+022817FM-12+001499999V0201401N006019999999N999999999-00681-00791101801ADDMA1999999101641MD1290019+9999REMSYN04801006 46/// /1406 11068 21079 30164 40180 54001=EQDQ01.1    3APC3  
0089010060999992016011520004+78250+022817FM-12+001499999V0201401N005019999999N999999999-00641-00741101841ADDMA1999999101681MD1210071+9999REMSYN04801006 46/// /1405 11064 21074 30168 40184 52007=
0085010060999992016011521004+78251+022823FM-12+001499999V0201761N0070199999999999999999-00571-00661101851ADDKA1010M-00531KA2010N-00651MA1999999101681MD1210061+9999OD130100791999REMSYN004BUFR
0085010060999992016011522004+78251+022823FM-12+001499999V0201781N0076199999999999999999-00751-00901101881ADDKA1010M-00581KA2010N-00751MA1999999101721MD1210081+9999OD130100811999REMSYN004BUFR
0089010060999992016011523004+78250+022817FM-12+001499999V0201601N006019999999N999999999-00621-00751101911ADDMA1999999101741MD1210061+9999REMSYN04801006 46/// /1606 11062 21075 30174 40191 52006=
0085010060999992016011600004+78251+022823FM-12+001499999V0201831N0061199999999999999999-00771-00931101901ADDKA1010M-00591KA2010N-00781MA1999999101731MD1310051+9999OD130600941999REMSYN004BUFR
0085010060999992016011601004+78251+022823FM-12+001499999V0201751N0056199999999999999999-00601-00771101921ADDKA1010M-00601KA2010N-00791MA1999999101751MD1210031+9999OD130100631999REMSYN004BUFR
0085010060999992016011602004+78251+022823FM-12+001499999V0201801N0087199999999999999999-00651-00801101901ADDKA1010M-00531KA2010N-00651MA1999999101741MD1410001+9999OD130100981999REMSYN004BUFR
0085010060999992016011603004+78251+022823FM-12+001499999V0201721N0067199999999999999999-00551-00721101941ADDKA1010M-00531KA2010N-00691MA1999999101781MD1210041+9999OD130100851999REMSYN004BUFR
0085010060999992016011604004+78251+022823FM-12+001499999V0201771N0063199999999999999999-00691-00881101961ADDKA1010M-00561KA2010N-00711MA1999999101801MD1110051+9999OD130100721999REMSYN004BUFR
0085010060999992016011605004+78251+022823FM-12+001499999V0201761N0073199999999999999999-00591-00721101941ADDKA1010M-00591KA2010N-00751MA1999999101781MD1310041+9999OD130100821999REMSYN004BUFR
0104010060999992016011606004+78251+022823FM-12+001499999V0201701N0081199999999999999999-00471-00631101961ADDKA1120M-00421KA2120N-00791MA1999999101801MD1290029+9999OD130601081999REMSYN004BUFREQDQ01.2    3APC3  
0108010060999992016011607004+78250+022817FM-12+001499999V0201701N008019999999N999999999-00391-00571101951ADDMA1999999101791MD1790019+9999REMSYN04801006 46/// /1708 11039 21057 30179 40195 54001=EQDQ01.1    3APC3  
0089010060999992016011608004+78250+022817FM-12+001499999V0201701N010019999999N999999999-00411-00551102001ADDMA1999999101841MD1210061+9999REMSYN04801006 46/// /1710 11041 21055 30184 40200 52006=
0089010060999992016011609004+78250+022817FM-12+001499999V0201601N011019999999N999999999-00331-00491102041ADDMA1999999101881MD1110081+9999REMSYN04801006 46/// /1611 11033 21049 30188 40204 51008=
0089010060999992016011610004+78250+022817FM-12+001499999V0201701N009019999999N999999999-00311-00531102101ADDMA1999999101941MD1210151+9999REMSYN04801006 46/// /1709 11031 21053 30194 40210 52015=
0089010060999992016011611004+78250+022817FM-12+001499999V0201601N010019999999N999999999-00381-00631102101ADDMA1999999101941MD1310101+9999REMSYN04801006 46/// /1610 11038 21063 30194 40210 53010=
0113010060999992016011612004+78250+022817FM-12+001499999V0201801N009019999999N999999999-00571-00741102111ADDMA1999999101951MD1310071+9999OD139901201999REMSYN05801006 46/// /1809 11057 21074 30195 40211 53007 333 91112=
0104010060999992016011613004+78251+022823FM-12+001499999V0201821N0093199999999999999999-00551-00761102121ADDKA1010M-00501KA2010N-00621MA1999999101961MD1290029+9999OD130101101999REMSYN004BUFREQDQ01.1    3APC3  
0085010060999992016011615004+78251+022823FM-12+001499999V0201811N0061199999999999999999-00671-00891102231ADDKA1010M-00571KA2010N-00681MA1999999102061MD1110121+9999OD130100971999REMSYN004BUFR
0089010060999992016011616004+78250+022817FM-12+001499999V0201801N008019999999N999999999-00731-00981102211ADDMA1999999102051MD1310091+9999REMSYN04801006 46/// /1808 11073 21098 30205 40221 53009=
0089010060999992016011617004+78250+022817FM-12+001499999V0201701N009019999999N999999999-00571-00841102221ADDMA1999999102061MD1310061+9999REMSYN04801006 46/// /1709 11057 21084 30206 40222 53006=
0108010060999992016011618004+78250+022817FM-12+001499999V0201701N008019999999N999999999-00621-00821102231ADDMA1999999102071MD1410009+9999REMSYN04801006 46/// /1708 11062 21082 30207 40223 54001=EQDQ01.1    3APC3  
0089010060999992016011619004+78250+022817FM-12+001499999V0201801N006019999999N999999999-00591-00791102261ADDMA1999999102101MD1210051+9999REMSYN04801006 46/// /1806 11059 21079 30210 40226 52005=
0085010060999992016011620004+78251+022823FM-12+001499999V0201351N0022199999999999999999-00821-00961102271ADDKA1010M-00581KA2010N-00831MA1999999102111MD1210051+9999OD130100611999REMSYN004BUFR
0085010060999992016011621004+78251+022823FM-12+001499999V0201511N0034199999999999999999-00551-00621102271ADDKA1010M-00551KA2010N-00861MA1999999102111MD1310041+9999OD130100541999REMSYN004BUFR
0104010060999992016011622004+78251+022823FM-12+001499999V0201691N0050199999999999999999-00521-00561102271ADDKA1010M-00501KA2010N-00531MA1999999102111MD1290019+9999OD130100561999REMSYN004BUFREQDQ01.1    3APC3  
0085010060999992016011623004+78251+022823FM-12+001499999V0201511N0043199999999999999999-00621-00641102221ADDKA1010M-00511KA2010N-00631MA1999999102061MD1610051+9999OD130100571999REMSYN004BUFR
0113010060999992016011700004+78250+022817FM-12+001499999V0201401N003019999999N999999999-00741-00751102201ADDMA1999999102041MD1710071+9999OD139900801999REMSYN05801006 46/// /1403 11074 21075 30204 40220 57007 333 91108=
0089010060999992016011701004+78250+022817FM-12+001499999V0200701N001019999999N999999999-00631-00641102201ADDMA1999999102041MD1810071+9999REMSYN04801006 46/// /0701 11063 21064 30204 40220 58007=
0089010060999992016011702004+78250+022817FM-12+001499999V0201301N002019999999N999999999-00611-00611102221ADDMA1999999102051MD1990011+9999REMSYN04801006 46/// /1302 11061 21061 30205 40222 50001=
0089010060999992016011703004+78250+022817FM-12+001499999V0201301N001019999999N999999999-00621-00631102201ADDMA1999999102031MD1410001+9999REMSYN04801006 46/// /1301 11062 21063 30203 40220 54000=
0071010060999992016011704004+78251+022823FM-12+001499999V0202111N0014199999999999999999-00791-00801102181ADDKA1010M-00621KA2010N-00791MA1999999102011MD1510031+9999REMSYN004BUFR
0089010060999992016011705004+78250+022817FM-12+001499999V0202801N002019999999N999999999-00981-01041102151ADDMA1999999101981MD1710071+9999REMSYN04801006 46/// /2802 11098 21104 30198 40215 57007=
0071010060999992016011706004+78251+022823FM-12+001499999V0202461N0016199999999999999999-00871-00931102131ADDKA1120M-00501KA2120N-00981MA1999999101961MD1710071+9999REMSYN004BUFR
0071010060999992016011707004+78251+022823FM-12+001499999V0202821N0003199999999999999999-00701-00771102111ADDKA1010M-00701KA2010N-00861MA1999999101941MD1710071+9999REMSYN004BUFR
0071010060999992016011708004+78251+022823FM-12+001499999V0203601N0000199999999999999999-00641-00671102101ADDKA1010M-00631KA2010N-00691MA1999999101941MD1710051+9999REMSYN004BUFR
0090010060999992016011709004+78251+022823FM-12+001499999V0203521N0001199999999999999999-00641-00671102101ADDKA1010M-00621KA2010N-00661MA1999999101941MD1790039+9999REMSYN004BUFREQDQ01.2    3APC3  
0090010060999992016011710004+78251+022823FM-12+001499999V0203081N0005199999999999999999-00621-00661102091ADDKA1010M-00611KA2010N-00641MA1999999101931MD1790029+9999REMSYN004BUFREQDQ01.2    3APC3  
0071010060999992016011711004+78251+022823FM-12+001499999V0201331N0022199999999999999999-00591-00611102051ADDKA1010M-00571KA2010N-00631MA1999999101891MD1610051+9999REMSYN004BUFR
0113010060999992016011712004+78250+022817FM-12+001499999V0201201N003019999999N999999999-00441-00451102021ADDMA1999999101861MD1710081+9999OD139900301999REMSYN05801006 46/// /1203 11044 21045 30186 40202 57008 333 91103=
0071010060999992016011713004+78251+022823FM-12+001499999V0200351N0003199999999999999999-00441-00451102001ADDKA1010M-00431KA2010N-00471MA1999999101831MD1710091+9999REMSYN004BUFR
0071010060999992016011714004+78251+022823FM-12+001499999V0201101N0011199999999999999999-00421-00421101971ADDKA1010M-00411KA2010N-00471MA1999999101801MD1710081+9999REMSYN004BUFR
0071010060999992016011715004+78251+022823FM-12+001499999V0203581N0003199999999999999999-00401-00401101941ADDKA1010M-00391KA2010N-00431MA1999999101781MD1710081+9999REMSYN004BUFR
0071010060999992016011716004+78251+022823FM-12+001499999V0200181N0004199999999999999999-00321-00331101901ADDKA1010M-00321KA2010N-00421MA1999999101741MD1710101+9999REMSYN004BUFR
0071010060999992016011717004+78251+022823FM-12+001499999V0200821N0012199999999999999999-00301-00311101861ADDKA1010M-00301KA2010N-00341MA1999999101701MD1710111+9999REMSYN004BUFR
0071010060999992016011718004+78251+022823FM-12+001499999V0200691N0021199999999999999999-00301-00301101811ADDKA1120M-00291KA2120N-00861MA1999999101651MD1710131+9999REMSYN004BUFR
0071010060999992016011719004+78251+022823FM-12+001499999V0200771N0022199999999999999999-00321-00331101761ADDKA1010M-00301KA2010N-00321MA1999999101601MD1710141+9999REMSYN004BUFR
0071010060999992016011720004+78251+022823FM-12+001499999V0201011N0015199999999999999999-00271-00281101711ADDKA1010M-00271KA2010N-00321MA1999999101551MD1710151+9999REMSYN004BUFR
0071010060999992016011721004+78251+022823FM-12+001499999V0201361N0031199999999999999999-00241-00251101651ADDKA1010M-00241KA2010N-00281MA1999999101491MD1710161+9999REMSYN004BUFR
0089010060999992016011722004+78250+022817FM-12+001499999V0201301N003019999999N999999999-00251-00261101651ADDMA1999999101491MD1810111+9999REMSYN04801006 46/// /1303 11025 21026 30149 40165 58011=
0071010060999992016011723004+78251+022823FM-12+001499999V0201291N0020199999999999999999-00341-00351101621ADDKA1010M-00251KA2010N-00341MA1999999101461MD1710091+9999REMSYN004BUFR
0071010060999992016011800004+78251+022823FM-12+001499999V0201471N0032199999999999999999-00271-00301101591ADDKA1010M-00281KA2010N-00341MA1999999101431MD1610061+9999REMSYN004BUFR
0089010060999992016011801004+78250+022817FM-12+001499999V0201301N004019999999N999999999-00421-00431101571ADDMA1999999101411MD1710081+9999REMSYN04801006 46/// /1304 11042 21043 30141 40157 57008=
0089010060999992016011802004+78250+022817FM-12+001499999V0201401N004019999999N999999999-00611-00631101531ADDMA1999999101371MD1710091+9999REMSYN04801006 46/// /1404 11061 21063 30137 40153 57009=
0085010060999992016011803004+78251+022823FM-12+001499999V0201451N0017199999999999999999-00491-00501101501ADDKA1010M-00481KA2010N-00611MA1999999101331MD1710101+9999OD130100531999REMSYN004BUFR
0071010060999992016011804004+78251+022823FM-12+001499999V0201361N0017199999999999999999-00441-00451101431ADDKA1010M-00431KA2010N-00491MA1999999101271MD1710141+9999REMSYN004BUFR
0085010060999992016011805004+78251+022823FM-12+001499999V0201451N0064199999999999999999-00321-00351101391ADDKA1010M-00321KA2010N-00451MA1999999101231MD1710141+9999OD130100751999REMSYN004BUFR
0085010060999992016011806004+78251+022823FM-12+001499999V0201611N0063199999999999999999-00351-00431101431ADDKA1120M-00211KA2120N-00611MA1999999101271MD1810071+9999OD130600911999REMSYN004BUFR
0085010060999992016011807004+78251+022823FM-12+001499999V0201621N0067199999999999999999-00521-00651101421ADDKA1010M-00361KA2010N-00531MA1999999101251MD1010021+9999OD130100851999REMSYN004BUFR
0085010060999992016011808004+78251+022823FM-12+001499999V0201691N0080199999999999999999-00491-00681101441ADDKA1010M-00461KA2010N-00531MA1999999101281MD1210051+9999OD130100911999REMSYN004BUFR
0104010060999992016011809004+78251+022823FM-12+001499999V0201711N0087199999999999999999-00571-00831101451ADDKA1010M-00491KA2010N-00581MA1999999101291MD1290029+9999OD130101031999REMSYN004BUFREQDQ01.2    3APC3  
0085010060999992016011810004+78251+022823FM-12+001499999V0201671N0072199999999999999999-00551-00751101491ADDKA1010M-00521KA2010N-00581MA1999999101331MD1210081+9999OD130101031999REMSYN004BUFR
0085010060999992016011811004+78251+022823FM-12+001499999V0201731N0082199999999999999999-00521-00641101481ADDKA1010M-00481KA2010N-00581MA1999999101321MD1210041+9999OD130101031999REMSYN004BUFR
0085010060999992016011812004+78251+022823FM-12+001499999V0201711N0099199999999999999999-00451-00541101441ADDKA1010M-00451KA2010N-00521MA1999999101281MD1510001+9999OD130601181999REMSYN004BUFR
0089010060999992016011813004+78250+022817FM-12+001499999V0201601N010019999999N999999999-00411-00561101461ADDMA1999999101301MD1710031+9999REMSYN04801006 46/// /1610 11041 21056 30130 40146 57003=
0085010060999992016011814004+78251+022823FM-12+001499999V0201661N0075199999999999999999-00421-00541101521ADDKA1010M-00411KA2010N-00471MA1999999101361MD1010041+9999OD130100951999REMSYN004BUFR
0085010060999992016011815004+78251+022823FM-12+001499999V0201791N0075199999999999999999-00421-00571101511ADDKA1010M-00411KA2010N-00431MA1999999101351MD1210071+9999OD130100901999REMSYN004BUFR
0085010060999992016011816004+78251+022823FM-12+001499999V0201681N0087199999999999999999-00391-00511101531ADDKA1010M-00381KA2010N-00441MA1999999101371MD1310071+9999OD130100971999REMSYN004BUFR
0085010060999992016011817004+78251+022823FM-12+001499999V0201651N0063199999999999999999-00401-00561101551ADDKA1010M-00391KA2010N-00421MA1999999101391MD1210031+9999OD130100821999REMSYN004BUFR
0085010060999992016011818004+78251+022823FM-12+001499999V0201721N0052199999999999999999-00351-00401101561ADDKA1120M-00321KA2120N-00581MA1999999101391MD1210041+9999OD130601261999REMSYN004BUFR
0085010060999992016011819004+78251+022823FM-12+001499999V0201581N0072199999999999999999-00301-00361101511ADDKA1010M-00301KA2010N-00361MA1999999101351MD1510021+9999OD130100921999REMSYN004BUFR
0085010060999992016011820004+78251+022823FM-12+001499999V0201541N0079199999999999999999-00241-00291101501ADDKA1010M-00231KA2010N-00291MA1999999101341MD1710051+9999OD130101071999REMSYN004BUFR
0085010060999992016011821004+78251+022823FM-12+001499999V0201611N0087199999999999999999-00251-00351101471ADDKA1010M-00211KA2010N-00261MA1999999101321MD1710081+9999OD130101081999REMSYN004BUFR
0085010060999992016011822004+78251+022823FM-12+001499999V0201661N0085199999999999999999-00251-00411101471ADDKA1010M-00221KA2010N-00261MA1999999101311MD1710031+9999OD130101041999REMSYN004BUFR
0085010060999992016011823004+78251+022823FM-12+001499999V0201841N0065199999999999999999-00351-00541101501ADDKA1010M-00261KA2010N-00361MA1999999101341MD1010001+9999OD130100931999REMSYN004BUFR
0085010060999992016011900004+78251+022823FM-12+001499999V0201821N0084199999999999999999-00371-00601101461ADDKA1010M-00351KA2010N-00391MA1999999101301MD1510021+9999OD130601081999REMSYN004BUFR
0085010060999992016011901004+78251+022823FM-12+001499999V0201781N0080199999999999999999-00551-00791101471ADDKA1010M-00371KA2010N-00551MA1999999101311MD1410001+9999OD130100951999REMSYN004BUFR
0085010060999992016011902004+78251+022823FM-12+001499999V0201641N0053199999999999999999-00501-00731101501ADDKA1010M-00491KA2010N-00571MA1999999101341MD1010001+9999OD130100731999REMSYN004BUFR
0085010060999992016011903004+78251+022823FM-12+001499999V0201881N0057199999999999999999-00521-00771101481ADDKA1010M-00481KA2010N-00661MA1999999101321MD1510021+9999OD130100621999REMSYN004BUFR
0089010060999992016011904004+78250+022817FM-12+001499999V0201801N006019999999N999999999-00671-00911101461ADDMA1999999101301MD1510011+9999REMSYN04801006 46/// /1806 11067 21091 30130 40146 55001=
0085010060999992016011905004+78251+022823FM-12+001499999V0201911N0057199999999999999999-00671-00871101461ADDKA1010M-00591KA2010N-00681MA1999999101301MD1710041+9999OD130100621999REMSYN004BUFR
0085010060999992016011906004+78251+022823FM-12+001499999V0201841N0055199999999999999999-00621-00821101441ADDKA1120M-00211KA2120N-00681MA1999999101281MD1710041+9999OD130600951999REMSYN004BUFR
0085010060999992016011907004+78251+022823FM-12+001499999V0201881N0055199999999999999999-00621-00791101421ADDKA1010M-00531KA2010N-00691MA1999999101261MD1710041+9999OD130100631999REMSYN004BUFR
0085010060999992016011908004+78251+022823FM-12+001499999V0201831N0054199999999999999999-00601-00771101401ADDKA1010M-00551KA2010N-00671MA1999999101241MD1710061+9999OD130100611999REMSYN004BUFR
0085010060999992016011909004+78251+022823FM-12+001499999V0201741N0057199999999999999999-00651-00791101381ADDKA1010M-00581KA2010N-00741MA1999999101211MD1710061+9999OD130100601999REMSYN004BUFR
0085010060999992016011910004+78251+022823FM-12+001499999V0201721N0057199999999999999999-00651-00801101351ADDKA1010M-00591KA2010N-00721MA1999999101181MD1710071+9999OD130100621999REMSYN004BUFR
0089010060999992016011911004+78250+022817FM-12+001499999V0201701N006019999999N999999999-00621-00771101321ADDMA1999999101161MD1710081+9999REMSYN04801006 46/// /1706 11062 21077 30116 40132 57008=
0085010060999992016011912004+78251+022823FM-12+001499999V0201811N0062199999999999999999-00601-00741101291ADDKA1010M-00601KA2010N-00711MA1999999101121MD1710091+9999OD130600711999REMSYN004BUFR
0085010060999992016011913004+78251+022823FM-12+001499999V0201671N0054199999999999999999-00621-00711101271ADDKA1010M-00601KA2010N-00681MA1999999101101MD1710081+9999OD130100611999REMSYN004BUFR
0089010060999992016011914004+78250+022817FM-12+001499999V0201801N005019999999N999999999-00721-00821101231ADDMA1999999101071MD1710091+9999REMSYN04801006 46/// /1805 11072 21082 30107 40123 57009=
0085010060999992016011915004+78251+022823FM-12+001499999V0201791N0053199999999999999999-00671-00791101211ADDKA1010M-00581KA2010N-00721MA1999999101051MD1710071+9999OD130100651999REMSYN004BUFR
0085010060999992016011916004+78251+022823FM-12+001499999V0201821N0065199999999999999999-00771-00851101171ADDKA1010M-00591KA2010N-00781MA1999999101011MD1710091+9999OD130100691999REMSYN004BUFR
0085010060999992016011917004+78251+022823FM-12+001499999V0201811N0061199999999999999999-00771-00901101131ADDKA1010M-00711KA2010N-00781MA1999999100971MD1710101+9999OD130100691999REMSYN004BUFR
0085010060999992016011918004+78251+022823FM-12+001499999V0202101N0046199999999999999999-00751-00931101131ADDKA1120M-00531KA2120N-00831MA1999999100971MD1810081+9999OD130600691999REMSYN004BUFR
0089010060999992016011919004+78250+022817FM-12+001499999V0202001N004019999999N999999999-00831-00921101101ADDMA1999999100931MD1710081+9999REMSYN04801006 46/// /2004 11083 21092 30093 40110 57008=
0089010060999992016011920004+78250+022817FM-12+001499999V0201801N007019999999N999999999-00761-00911101051ADDMA1999999100881MD1610081+9999REMSYN04801006 46/// /1807 11076 21091 30088 40105 56008=
0085010060999992016011921004+78251+022823FM-12+001499999V0201851N0075199999999999999999-00691-00841101021ADDKA1010M-00641KA2010N-00741MA1999999100861MD1710111+9999OD130100791999REMSYN004BUFR
0089010060999992016011922004+78250+022817FM-12+001499999V0201901N007019999999N999999999-00701-00901100981ADDMA1999999100821MD1710111+9999REMSYN04801006 46/// /1907 11070 21090 30082 40098 57011=
0085010060999992016011923004+78251+022823FM-12+001499999V0201881N0075199999999999999999-00601-00791100951ADDKA1010M-00541KA2010N-00701MA1999999100791MD1710101+9999OD130100841999REMSYN004BUFR
0113010060999992016012000004+78250+022817FM-12+001499999V0201901N007019999999N999999999-00531-00761100931ADDMA1999999100771MD1710091+9999OD139900901999REMSYN05801006 46/// /1907 11053 21076 30077 40093 57009 333 91109=
0085010060999992016012001004+78251+022823FM-12+001499999V0201981N0072199999999999999999-00551-00791100901ADDKA1010M-00511KA2010N-00571MA1999999100741MD1710081+9999OD130100851999REMSYN004BUFR
0089010060999992016012002004+78250+022817FM-12+001499999V0202001N006019999999N999999999-00541-00811100881ADDMA1999999100721MD1710071+9999REMSYN04801006 46/// /2006 11054 21081 30072 40088 57007=
0085010060999992016012003004+78251+022823FM-12+001499999V0202021N0060199999999999999999-00541-00831100851ADDKA1010M-00521KA2010N-00581MA1999999100691MD1710071+9999OD130100651999REMSYN004BUFR
0085010060999992016012004004+78251+022823FM-12+001499999V0201991N0054199999999999999999-00501-00841100831ADDKA1010M-00511KA2010N-00551MA1999999100671MD1710071+9999OD130100681999REMSYN004BUFR
0089010060999992016012005004+78250+022817FM-12+001499999V0202001N005019999999N999999999-00561-00891100831ADDMA1999999100671MD1710051+9999REMSYN04801006 46/// /2005 11056 21089 30067 40083 57005=
0085010060999992016012006004+78251+022823FM-12+001499999V0201981N0035199999999999999999-00521-00921100811ADDKA1120M-00501KA2120N-00921MA1999999100651MD1710041+9999OD130600851999REMSYN004BUFR
0108010060999992016012007004+78250+022817FM-12+001499999V0201901N003019999999N999999999-00621-00921100811ADDMA1999999100651MD1790029+9999REMSYN04801006 46/// /1903 11062 21092 30065 40081 54002=EQDQ01.2    3APC3  
0108010060999992016012008004+78250+022817FM-12+001499999V0201901N004019999999N999999999-00671-01011100811ADDMA1999999100651MD1790029+9999REMSYN04801006 46/// /1904 11067 21101 30065 40081 54002=EQDQ01.2    3APC3  
0108010060999992016012009004+78250+022817FM-12+001499999V0202001N007019999999N999999999-00631-01011100791ADDMA1999999100631MD1790029+9999REMSYN04801006 46/// /2007 11063 21101 30063 40079 54002=EQDQ01.2    3APC3  
0108010060999992016012010004+78250+022817FM-12+001499999V0202001N008019999999N999999999-00711-01021100791ADDMA1999999100621MD1790029+9999REMSYN04801006 46/// /2008 11071 21102 30062 40079 54002=EQDQ01.2    3APC3  
0089010060999992016012011004+78250+022817FM-12+001499999V0202001N008019999999N999999999-00671-00981100771ADDMA1999999100611MD1710041+9999REMSYN04801006 46/// /2008 11067 21098 30061 40077 57004=
0113010060999992016012012004+78250+022817FM-12+001499999V0202001N008019999999N999999999-00651-00931100751ADDMA1999999100591MD1710041+9999OD139900901999REMSYN05801006 46/// /2008 11065 21093 30059 40075 57004 333 91109=
0089010060999992016012013004+78250+022817FM-12+001499999V0202001N008019999999N999999999-00531-00821100741ADDMA1999999100581MD1710041+9999REMSYN04801006 46/// /2008 11053 21082 30058 40074 57004=
0089010060999992016012014004+78250+022817FM-12+001499999V0202101N008019999999N999999999-00501-00771100741ADDMA1999999100581MD1710031+9999REMSYN04801006 46/// /2108 11050 21077 30058 40074 57003=
0108010060999992016012015004+78250+022817FM-12+001499999V0202001N007019999999N999999999-00511-00781100731ADDMA1999999100571MD1790029+9999REMSYN04801006 46/// /2007 11051 21078 30057 40073 54002=EQDQ01.2    3APC3  
0085010060999992016012016004+78251+022823FM-12+001499999V0202011N0077199999999999999999-00501-00801100741ADDKA1010M-00481KA2010N-00521MA1999999100581MD1410001+9999OD130100851999REMSYN004BUFR
0104010060999992016012017004+78251+022823FM-12+001499999V0202011N0079199999999999999999-00501-00831100751ADDKA1010M-00491KA2010N-00571MA1999999100591MD1290019+9999OD130100871999REMSYN004BUFREQDQ01.1    3APC3  
0104010060999992016012018004+78251+022823FM-12+001499999V0202011N0071199999999999999999-00501-00831100741ADDKA1120M-00471KA2120N-00821MA1999999100581MD1290019+9999OD130600871999REMSYN004BUFREQDQ01.1    3APC3  
0104010060999992016012019004+78251+022823FM-12+001499999V0202021N0069199999999999999999-00501-00831100731ADDKA1010M-00501KA2010N-00551MA1999999100571MD1790019+9999OD130100781999REMSYN004BUFREQDQ01.1    3APC3  
0089010060999992016012020004+78250+022817FM-12+001499999V0202001N010019999999N999999999-00521-00851100711ADDMA1999999100551MD1710041+9999REMSYN04801006 46/// /2010 11052 21085 30055 40071 57004=
0085010060999992016012021004+78251+022823FM-12+001499999V0202001N0086199999999999999999-00551-00861100701ADDKA1010M-00521KA2010N-00601MA1999999100541MD1710041+9999OD130101071999REMSYN004BUFR
0085010060999992016012022004+78251+022823FM-12+001499999V0201991N0081199999999999999999-00541-00831100701ADDKA1010M-00541KA2010N-00581MA1999999100541MD1710041+9999OD130100961999REMSYN004BUFR
0108010060999992016012023004+78250+022817FM-12+001499999V0202001N006019999999N999999999-00551-00841100711ADDMA1999999100551MD1410009+9999REMSYN04801006 46/// /2006 11055 21084 30055 40071 54001=EQDQ01.1    3APC3  
0104010060999992016012100004+78251+022823FM-12+001499999V0201981N0072199999999999999999-00521-00781100681ADDKA1010M-00501KA2010N-00641MA1999999100521MD1790029+9999OD130601071999REMSYN004BUFREQDQ01.3    3APC3  
0104010060999992016012101004+78251+022823FM-12+001499999V0201911N0058199999999999999999-00571-00721100671ADDKA1010M-00511KA2010N-00591MA1999999100511MD1790039+9999OD130100711999REMSYN004BUFREQDQ01.2    3APC3  
0085010060999992016012102004+78251+022823FM-12+001499999V0201831N0063199999999999999999-00521-00721100671ADDKA1010M-00491KA2010N-00571MA1999999100511MD1710041+9999OD130100811999REMSYN004BUFR
0104010060999992016012103004+78251+022823FM-12+001499999V0202311N0028199999999999999999-00691-00791100651ADDKA1010M-00531KA2010N-00701MA1999999100491MD1790039+9999OD130100541999REMSYN004BUFREQDQ01.3    3APC3  
0071010060999992016012104004+78251+022823FM-12+001499999V0202461N0029199999999999999999-00671-00751100611ADDKA1010M-00661KA2010N-00681MA1999999100451MD1610061+9999REMSYN004BUFR
0085010060999992016012105004+78251+022823FM-12+001499999V0203581N0051199999999999999999-00671-00821100591ADDKA1010M-00631KA2010N-00681MA1999999100431MD1710081+9999OD130100571999REMSYN004BUFR
0132010060999992016012106004+78250+022817FM-12+001499999V0202801N007019999999N999999999-00831-01101100621ADDKA1240N-00831MA1999999100451MD1810041+9999OD139900801999REMSYN06401006 46/// /2807 11083 21110 30045 40062 58004 333 21083 91108=
0089010060999992016012107004+78250+022817FM-12+001499999V0202701N006019999999N999999999-00951-01241100651ADDMA1999999100491MD1110031+9999REMSYN04801006 46/// /2706 11095 21124 30049 40065 51003=
0085010060999992016012108004+78251+022823FM-12+001499999V0202501N0057199999999999999999-01041-01321100711ADDKA1010M-00891KA2010N-01051MA1999999100541MD1110121+9999OD130100791999REMSYN004BUFR
0085010060999992016012109004+78251+022823FM-12+001499999V0202441N0045199999999999999999-00971-01261100701ADDKA1010M-00941KA2010N-01041MA1999999100531MD1310081+9999OD130100701999REMSYN004BUFR
0085010060999992016012110004+78251+022823FM-12+001499999V0202691N0075199999999999999999-00901-01291100681ADDKA1010M-00911KA2010N-01001MA1999999100521MD1310041+9999OD130100791999REMSYN004BUFR
0085010060999992016012111004+78251+022823FM-12+001499999V0202441N0049199999999999999999-01001-01321100661ADDKA1010M-00901KA2010N-01091MA1999999100501MD1710051+9999OD130100651999REMSYN004BUFR
0085010060999992016012112004+78251+022823FM-12+001499999V0202311N0018199999999999999999-01001-01481100661ADDKA1010M-00871KA2010N-01051MA1999999100501MD1710041+9999OD130600791999REMSYN004BUFR
0071010060999992016012113004+78251+022823FM-12+001499999V0202061N0031199999999999999999-00951-01531100631ADDKA1010M-00881KA2010N-01081MA1999999100471MD1710051+9999REMSYN004BUFR
0071010060999992016012114004+78251+022823FM-12+001499999V0201901N0007199999999999999999-00821-01561100581ADDKA1010M-00801KA2010N-01041MA1999999100411MD1610081+9999REMSYN004BUFR
0071010060999992016012115004+78251+022823FM-12+001499999V0202291N0043199999999999999999-00971-01451100611ADDKA1010M-00821KA2010N-01001MA1999999100451MD1810051+9999REMSYN004BUFR
0071010060999992016012116004+78251+022823FM-12+001499999V0202311N0025199999999999999999-00871-01331100551ADDKA1010M-00871KA2010N-01001MA1999999100391MD1710081+9999REMSYN004BUFR
0071010060999992016012117004+78251+022823FM-12+001499999V0201751N0009199999999999999999-00771-01511100511ADDKA1010M-00781KA2010N-00871MA1999999100351MD1510061+9999REMSYN004BUFR
0132010060999992016012118004+78250+022817FM-12+001499999V0201601N001019999999N999999999-00831-01481100441ADDKA1120M-00781MA1999999100281MD1710171+9999OD139900501999REMSYN06401006 46/// /1601 11083 21148 30028 40044 57017 333 11078 91105=
0089010060999992016012119004+78250+022817FM-12+001499999V0201401N002019999999N999999999-00701-01261100391ADDMA1999999100231MD1710161+9999REMSYN04801006 46/// /1402 11070 21126 30023 40039 57016=
0071010060999992016012120004+78251+022823FM-12+001499999V0201541N0026199999999999999999-00851-01151100361ADDKA1010M-00681KA2010N-00861MA1999999100201MD1810151+9999REMSYN004BUFR
0071010060999992016012121004+78251+022823FM-12+001499999V0201931N0028199999999999999999-00771-00941100341ADDKA1010M-00631KA2010N-00881MA1999999100181MD1810091+9999REMSYN004BUFR
0071010060999992016012122004+78251+022823FM-12+001499999V0202281N0031199999999999999999-00821-01241100321ADDKA1010M-00791KA2010N-00981MA1999999100161MD1710061+9999REMSYN004BUFR
0071010060999992016012123004+78251+022823FM-12+001499999V0202201N0042199999999999999999-00801-01141100281ADDKA1010M-00791KA2010N-00881MA1999999100121MD1710091+9999REMSYN004BUFR
0071010060999992016012200004+78251+022823FM-12+001499999V0200221N0003199999999999999999-00601-00731100251ADDKA1010M-00471KA2010N-00951MA1999999100091MD1710091+9999REMSYN004BUFR
0071010060999992016012201004+78251+022823FM-12+001499999V0201791N0031199999999999999999-00571-00701100211ADDKA1010M-00561KA2010N-00671MA1999999100051MD1710111+9999REMSYN004BUFR
0071010060999992016012202004+78251+022823FM-12+001499999V0201521N0026199999999999999999-00501-00671100201ADDKA1010M-00281KA2010N-00551MA1999999100041MD1710081+9999REMSYN004BUFR
0085010060999992016012203004+78251+022823FM-12+001499999V0201821N0040199999999999999999-00341-00481100141ADDKA1010M-00341KA2010N-00521MA1999999099981MD1710111+9999OD130100551999REMSYN004BUFR
0085010060999992016012204004+78251+022823FM-12+001499999V0202191N0050199999999999999999-00221-00281100081ADDKA1010M-00231KA2010N-00371MA1999999099931MD1610131+9999OD130100531999REMSYN004BUFR
0085010060999992016012205004+78251+022823FM-12+001499999V0202191N0079199999999999999999-00121-00221100041ADDKA1010M-00131KA2010N-00231MA1999999099891MD1710151+9999OD130100931999REMSYN004BUFR
0085010060999992016012206004+78251+022823FM-12+001499999V0202291N0057199999999999999999-00151-00311100051ADDKA1120M-00101KA2120N-00981MA1999999099891MD1810091+9999OD130600941999REMSYN004BUFR
0085010060999992016012207004+78251+022823FM-12+001499999V0202281N0079199999999999999999-00101-00221100041ADDKA1010M-00101KA2010N-00201MA1999999099891MD1810041+9999OD130100961999REMSYN004BUFR
0104010060999992016012208004+78251+022823FM-12+001499999V0202211N0082199999999999999999-00121-00271100031ADDKA1010M-00081KA2010N-00141MA1999999099871MD1790019+9999OD130101141999REMSYN004BUFREQDQ01.1    3APC3  
0104010060999992016012209004+78251+022823FM-12+001499999V0202221N0107199999999999999999-00051-00201100021ADDKA1010M-00061KA2010N-00111MA1999999099861MD1790039+9999OD130101191999REMSYN004BUFREQDQ01.3    3APC3  
0089010060999992016012210004+78250+022817FM-12+001499999V0202501N009019999999N999999999-00031-00081100071ADDMA1999999099911MD1990021+9999REMSYN04801006 46/// /2509 11003 21008 39991 40007 50002=
0089010060999992016012211004+78250+022817FM-12+001499999V0202501N007019999999N999999999-00111-00201100121ADDMA1999999099961MD1110091+9999REMSYN04801006 46/// /2507 11011 21020 39996 40012 51009=
0113010060999992016012212004+78250+022817FM-12+001499999V0202801N004019999999N999999999-00211-00251100141ADDMA1999999099991MD1210121+9999OD139901201999REMSYN05801006 46/// /2804 11021 21025 39999 40014 52012 333 91112=
0089010060999992016012213004+78250+022817FM-12+001499999V0202701N004019999999N999999999-00171-00181100151ADDMA1999999099991MD1310081+9999REMSYN04801006 46/// /2704 11017 21018 39999 40015 53008=
0085010060999992016012214004+78251+022823FM-12+001499999V0202521N0060199999999999999999-00091-00131100161ADDKA1010M-00091KA2010N-00271MA1999999100011MD1210051+9999OD130100651999REMSYN004BUFR
0085010060999992016012215004+78251+022823FM-12+001499999V0202511N0072199999999999999999-00051-00101100201ADDKA1010M-00041KA2010N-00131MA1999999100041MD1210061+9999OD130100861999REMSYN004BUFR
0085010060999992016012216004+78251+022823FM-12+001499999V0202591N0061199999999999999999-00051-00171100181ADDKA1010M-00021KA2010N-00111MA1999999100031MD1210031+9999OD130100711999REMSYN004BUFR
0085010060999992016012217004+78251+022823FM-12+001499999V0202381N0054199999999999999999-00041-00171100211ADDKA1010M-00021KA2010N-00121MA1999999100061MD1210051+9999OD130100941999REMSYN004BUFR
0085010060999992016012218004+78251+022823FM-12+001499999V0202381N0071199999999999999999-00091-00191100161ADDKA1120M+00001KA2120N-00271MA1999999100011MD1610041+9999OD130600941999REMSYN004BUFR
0104010060999992016012219004+78251+022823FM-12+001499999V0202041N0021199999999999999999-00171-00281100211ADDKA1010M-00041KA2010N-00181MA1999999100051MD1290039+9999OD130100931999REMSYN004BUFREQDQ01.2    3APC3  
0089010060999992016012220004+78250+022817FM-12+001499999V0202401N006019999999N999999999-00121-00251100201ADDMA1999999100041MD1990021+9999REMSYN04801006 46/// /2406 11012 21025 30004 40020 50002=
0085010060999992016012221004+78251+022823FM-12+001499999V0202361N0061199999999999999999-00121-00211100201ADDKA1010M-00081KA2010N-00191MA1999999100041MD1310031+9999OD130100731999REMSYN004BUFR
0089010060999992016012222004+78250+022817FM-12+001499999V0202401N007019999999N999999999-00031-00141100201ADDMA1999999100051MD1410001+9999REMSYN04801006 46/// /2407 11003 21014 30005 40020 54000=
0089010060999992016012223004+78250+022817FM-12+001499999V0202501N007019999999N999999999-00031-00121100261ADDMA1999999100101MD1110061+9999REMSYN04801006 46/// /2507 11003 21012 30010 40026 51006=
0085010060999992016012300004+78251+022823FM-12+001499999V0202701N0051199999999999999999-00151-00221100261ADDKA1010M-00021KA2010N-00161MA1999999100101MD1210061+9999OD130600931999REMSYN004BUFR
0085010060999992016012301004+78251+022823FM-12+001499999V0202381N0039199999999999999999-00021-00141100281ADDKA1010M-00031KA2010N-00151MA1999999100121MD1310071+9999OD130100641999REMSYN004BUFR
0085010060999992016012302004+78251+022823FM-12+001499999V0202451N0022199999999999999999-00101-00191100331ADDKA1010M-00011KA2010N-00101MA1999999100171MD1110071+9999OD130100521999REMSYN004BUFR
0071010060999992016012303004+78251+022823FM-12+001499999V0202551N0045199999999999999999-00101-00131100331ADDKA1010M-00101KA2010N-00141MA1999999100171MD1210071+9999REMSYN004BUFR
0085010060999992016012304004+78251+022823FM-12+001499999V0202061N0010199999999999999999-00121-00141100361ADDKA1010M-00101KA2010N-00151MA1999999100211MD1210091+9999OD130100551999REMSYN004BUFR
0071010060999992016012305004+78251+022823FM-12+001499999V0202861N0006199999999999999999-00171-00181100391ADDKA1010M-00131KA2010N-00191MA1999999100231MD1210071+9999REMSYN004BUFR
0085010060999992016012306004+78251+022823FM-12+001499999V0202171N0026199999999999999999-00141-00141100421ADDKA1120M-00011KA2120N-00201MA1999999100271MD1210091+9999OD130600641999REMSYN004BUFR
0071010060999992016012307004+78251+022823FM-12+001499999V0202421N0036199999999999999999-00291-00331100481ADDKA1010M-00101KA2010N-00291MA1999999100321MD1210111+9999REMSYN004BUFR
0085010060999992016012308004+78251+022823FM-12+001499999V0202231N0050199999999999999999-00351-00371100541ADDKA1010M-00151KA2010N-00381MA1999999100381MD1110151+9999OD130100521999REMSYN004BUFR
0085010060999992016012309004+78251+022823FM-12+001499999V0202501N0055199999999999999999-00441-00441100591ADDKA1010M-00331KA2010N-00451MA1999999100431MD1210161+9999OD130100581999REMSYN004BUFR
0085010060999992016012310004+78251+022823FM-12+001499999V0202391N0052199999999999999999-00421-00431100651ADDKA1010M-00311KA2010N-00571MA1999999100491MD1210171+9999OD130100671999REMSYN004BUFR
0089010060999992016012311004+78250+022817FM-12+001499999V0202301N006019999999N999999999-00481-00501100711ADDMA1999999100551MD1210161+9999REMSYN04801006 46/// /2306 11048 21050 30055 40071 52016=
0085010060999992016012312004+78251+022823FM-12+001499999V0202271N0058199999999999999999-00451-00571100761ADDKA1010M-00361KA2010N-00461MA1999999100601MD1210171+9999OD130600691999REMSYN004BUFR
0089010060999992016012313004+78250+022817FM-12+001499999V0202201N006019999999N999999999-00411-00561100781ADDMA1999999100621MD1310121+9999REMSYN04801006 46/// /2206 11041 21056 30062 40078 53012=
0085010060999992016012314004+78251+022823FM-12+001499999V0202241N0063199999999999999999-00401-00591100821ADDKA1010M-00281KA2010N-00411MA1999999100661MD1210111+9999OD130100681999REMSYN004BUFR
0085010060999992016012315004+78251+022823FM-12+001499999V0202221N0063199999999999999999-00401-00601100851ADDKA1010M-00321KA2010N-00421MA1999999100691MD1210091+9999OD130100661999REMSYN004BUFR
0085010060999992016012316004+78251+022823FM-12+001499999V0202401N0059199999999999999999-00471-00691100901ADDKA1010M-00331KA2010N-00471MA1999999100741MD1210131+9999OD130100691999REMSYN004BUFR
0085010060999992016012317004+78251+022823FM-12+001499999V0202241N0051199999999999999999-00251-00481100971ADDKA1010M-00261KA2010N-00571MA1999999100811MD1110151+9999OD130100581999REMSYN004BUFR
0132010060999992016012318004+78250+022817FM-12+001499999V0202101N005019999999N999999999-00191-00481100991ADDKA1120M-00101MA1999999100831MD1310141+9999OD139900701999REMSYN06401006 46/// /2105 11019 21048 30083 40099 53014 333 11010 91107=
0085010060999992016012319004+78251+022823FM-12+001499999V0202121N0058199999999999999999-00371-00601101021ADDKA1010M-00171KA2010N-00381MA1999999100861MD1310121+9999OD130100631999REMSYN004BUFR
0085010060999992016012320004+78251+022823FM-12+001499999V0202151N0055199999999999999999-00371-00601101041ADDKA1010M-00331KA2010N-00421MA1999999100881MD1210071+9999OD130100641999REMSYN004BUFR
0085010060999992016012321004+78251+022823FM-12+001499999V0202161N0055199999999999999999-00401-00611101081ADDKA1010M-00341KA2010N-00431MA1999999100921MD1210091+9999OD130100661999REMSYN004BUFR
0085010060999992016012322004+78251+022823FM-12+001499999V0202011N0061199999999999999999-00121-00391101071ADDKA1010M-00111KA2010N-00421MA1999999100911MD1210051+9999OD130100841999REMSYN004BUFR
0085010060999992016012323004+78251+022823FM-12+001499999V0201811N0051199999999999999999-00151-00411101131ADDKA1010M-00091KA2010N-00191MA1999999100971MD1210101+9999OD130100661999REMSYN004BUFR
0085010060999992016012400004+78251+022823FM-12+001499999V0201671N0036199999999999999999-00151-00361101151ADDKA1010M-00101KA2010N-00171MA1999999100991MD1210071+9999OD130600841999REMSYN004BUFR
0085010060999992016012401004+78251+022823FM-12+001499999V0201751N0053199999999999999999-00201-00391101131ADDKA1010M-00031KA2010N-00201MA1999999100971MD1310071+9999OD130100671999REMSYN004BUFR
0104010060999992016012402004+78251+022823FM-12+001499999V0201821N0068199999999999999999-00241-00391101151ADDKA1010M-00151KA2010N-00241MA1999999101001MD1290029+9999OD130100731999REMSYN004BUFREQDQ01.2    3APC3  
0104010060999992016012403004+78251+022823FM-12+001499999V0201871N0083199999999999999999-00221-00351101161ADDKA1010M-00141KA2010N-00241MA1999999101011MD1290019+9999OD130100941999REMSYN004BUFREQDQ01.2    3APC3  
0085010060999992016012404004+78251+022823FM-12+001499999V0201871N0098199999999999999999-00151-00281101131ADDKA1010M-00071KA2010N-00291MA1999999100971MD1510001+9999OD130101061999REMSYN004BUFR
0085010060999992016012405004+78251+022823FM-12+001499999V0201841N0091199999999999999999-00171-00291101161ADDKA1010M-00031KA2010N-00181MA1999999101001MD1410001+9999OD130101131999REMSYN004BUFR
0085010060999992016012406004+78251+022823FM-12+001499999V0201841N0095199999999999999999-00021-00171101161ADDKA1120M-00021KA2120N-00431MA1999999101001MD1010001+9999OD130601131999REMSYN004BUFR
0089010060999992016012407004+78250+022817FM-12+001499999V0201801N010019999999N999999999-00161-00311101201ADDMA1999999101041MD1210071+9999REMSYN04801006 46/// /1810 11016 21031 30104 40120 52007=
0085010060999992016012408004+78251+022823FM-12+001499999V0201791N0080199999999999999999-00121-00191101261ADDKA1010M-00121KA2010N-00191MA1999999101101MD1110111+9999OD130101111999REMSYN004BUFR
0085010060999992016012409004+78251+022823FM-12+001499999V0201661N0066199999999999999999+00001-00061101291ADDKA1010M+00011KA2010N-00131MA1999999101131MD1210131+9999OD130101111999REMSYN004BUFR
0089010060999992016012410004+78250+022817FM-12+001499999V0201701N008019999999N999999999+00051+00041101291ADDMA1999999101131MD1310091+9999REMSYN04801006 46/// /1708 10005 20004 30113 40129 53009=
0089010060999992016012411004+78250+022817FM-12+001499999V0201901N010019999999N999999999+00091+00051101261ADDMA1999999101101MD1510001+9999REMSYN04801006 46/// /1910 10009 20005 30110 40126 55000=
0104010060999992016012412004+78251+022823FM-12+001499999V0201931N0125199999999999999999+00151+00011101271ADDKA1010M+00171KA2010N+00071MA1999999101111MD1790029+9999OD130601421999REMSYN004BUFREQDQ01.3    3APC3  
0085010060999992016012413004+78251+022823FM-12+001499999V0201951N0114199999999999999999+00091-00021101311ADDKA1010M+00161KA2010N+00091MA1999999101151MD1010021+9999OD130101471999REMSYN004BUFR
0085010060999992016012414004+78251+022823FM-12+001499999V0201841N0073199999999999999999+00071-00091101411ADDKA1010M+00111KA2010N+00051MA1999999101251MD1110151+9999OD130101491999REMSYN004BUFR
0085010060999992016012415004+78251+022823FM-12+001499999V0201891N0097199999999999999999+00021-00091101431ADDKA1010M+00071KA2010N+00021MA1999999101271MD1210161+9999OD130101171999REMSYN004BUFR
0085010060999992016012416004+78251+022823FM-12+001499999V0201971N0112199999999999999999-00051-00151101391ADDKA1010M+00021KA2010N-00071MA1999999101231MD1310081+9999OD130101301999REMSYN004BUFR
0104010060999992016012417004+78251+022823FM-12+001499999V0201921N0112199999999999999999-00021-00221101411ADDKA1010M-00031KA2010N-00061MA1999999101261MD1410009+9999OD130101381999REMSYN004BUFREQDQ01.1    3APC3  
0085010060999992016012418004+78251+022823FM-12+001499999V0201881N0086199999999999999999-00051-00311101461ADDKA1120M+00171KA2120N-00191MA1999999101301MD1010031+9999OD130601491999REMSYN004BUFR
0085010060999992016012419004+78251+022823FM-12+001499999V0201791N0091199999999999999999-00071-00331101501ADDKA1010M-00051KA2010N-00081MA1999999101341MD1210111+9999OD130101201999REMSYN004BUFR
0085010060999992016012420004+78251+022823FM-12+001499999V0201891N0067199999999999999999-00101-00391101561ADDKA1010M-00061KA2010N-00111MA1999999101401MD1210141+9999OD130101381999REMSYN004BUFR
0085010060999992016012421004+78251+022823FM-12+001499999V0201831N0092199999999999999999-00151-00471101521ADDKA1010M-00111KA2010N-00161MA1999999101361MD1310061+9999OD130101161999REMSYN004BUFR
0085010060999992016012422004+78251+022823FM-12+001499999V0201891N0062199999999999999999-00121-00531101591ADDKA1010M-00111KA2010N-00171MA1999999101431MD1210091+9999OD130101031999REMSYN004BUFR
0085010060999992016012423004+78251+022823FM-12+001499999V0201931N0108199999999999999999-00171-00491101501ADDKA1010M-00111KA2010N-00181MA1999999101341MD1610061+9999OD130101451999REMSYN004BUFR
0085010060999992016012500004+78251+022823FM-12+001499999V0201801N0096199999999999999999-00151-00481101491ADDKA1010M-00111KA2010N-00171MA1999999101331MD1510031+9999OD130601451999REMSYN004BUFR
0085010060999992016012501004+78251+022823FM-12+001499999V0201941N0087199999999999999999-00091-00371101571ADDKA1010M-00071KA2010N-00161MA1999999101411MD1010021+9999OD130101111999REMSYN004BUFR
0085010060999992016012502004+78251+022823FM-12+001499999V0201881N0087199999999999999999-00101-00421101581ADDKA1010M-00081KA2010N-00111MA1999999101421MD1210081+9999OD130101321999REMSYN004BUFR
0085010060999992016012503004+78251+022823FM-12+001499999V0201871N0099199999999999999999-00121-00421101531ADDKA1010M-00111KA2010N-00141MA1999999101381MD1310051+9999OD130101091999REMSYN004BUFR
0104010060999992016012504004+78251+022823FM-12+001499999V0201851N0087199999999999999999-00101-00441101561ADDKA1010M-00091KA2010N-00141MA1999999101401MD1790019+9999OD130101181999REMSYN004BUFREQDQ01.1    3APC3  
0085010060999992016012505004+78251+022823FM-12+001499999V0201871N0079199999999999999999-00101-00421101581ADDKA1010M-00091KA2010N-00121MA1999999101421MD1010001+9999OD130101231999REMSYN004BUFR
0085010060999992016012506004+78251+022823FM-12+001499999V0201951N0081199999999999999999-00201-00511101591ADDKA1120M-00051KA2120N-00201MA1999999101431MD1210051+9999OD130601321999REMSYN004BUFR
0104010060999992016012507004+78251+022823FM-12+001499999V0201771N0076199999999999999999-00471-00771101581ADDKA1010M-00191KA2010N-00481MA1999999101421MD1290029+9999OD130100941999REMSYN004BUFREQDQ01.2    3APC3  
0089010060999992016012508004+78250+022817FM-12+001499999V0201901N007019999999N999999999-00431-00701101641ADDMA1999999101481MD1110061+9999REMSYN04801006 46/// /1907 11043 21070 30148 40164 51006=
0085010060999992016012509004+78251+022823FM-12+001499999V0201791N0065199999999999999999-00451-00701101691ADDKA1010M-00331KA2010N-00461MA1999999101531MD1110101+9999OD130100771999REMSYN004BUFR
0085010060999992016012510004+78251+022823FM-12+001499999V0201871N0092199999999999999999-00271-00531101661ADDKA1010M-00271KA2010N-00461MA1999999101501MD1310071+9999OD130101041999REMSYN004BUFR
0089010060999992016012511004+78250+022817FM-12+001499999V0202001N007019999999N999999999-00361-00701101711ADDMA1999999101541MD1210061+9999REMSYN04801006 46/// /2007 11036 21070 30154 40171 52006=
0113010060999992016012512004+78250+022817FM-12+001499999V0201801N008019999999N999999999-00301-00591101721ADDMA1999999101561MD1990031+9999OD139901101999REMSYN05801006 46/// /1808 11030 21059 30156 40172 50003 333 91111=
0085010060999992016012513004+78251+022823FM-12+001499999V0201951N0086199999999999999999-00421-00831101761ADDKA1010M-00261KA2010N-00431MA1999999101601MD1210101+9999OD130101101999REMSYN004BUFR
