0089010090999992016010100004+80650+025000FM-12+000599999V0202201N011019999999N999999999+00251+99999100241ADDMA1999999100171MD1210361+9999REMSYN04801009 46/// /2211 10025 2//// 30017 40024 52036=
0089010090999992016010101004+80650+025000FM-12+000599999V0202201N010019999999N999999999+00231+99999100381ADDMA1999999100311MD1210381+9999REMSYN04801009 46/// /2210 10023 2//// 30031 40038 52038=
0089010090999992016010104004+80650+025000FM-12+000599999V0202201N013019999999N999999999+00241+99999100581ADDMA1999999100511MD1210201+9999REMSYN04801009 46/// /2213 10024 2//// 30051 40058 52020=
0089010090999992016010105004+80650+025000FM-12+000599999V0202101N010019999999N999999999+00221+99999100711ADDMA1999999100651MD1110291+9999REMSYN04801009 46/// /2110 10022 2//// 30065 40071 51029=
0089010090999992016010106004+80650+025000FM-12+000599999V0202101N009019999999N999999999+00151+99999100701ADDMA1999999100631MD1310191+9999REMSYN04801009 46/// /2109 10015 2//// 30063 40070 53019=
0089010090999992016010107004+80650+025000FM-12+000599999V0201901N005019999999N999999999+00211+99999100781ADDMA1999999100721MD1310201+9999REMSYN04801009 46/// /1905 10021 2//// 30072 40078 53020=
0089010090999992016010109004+80650+025000FM-12+000599999V0202101N009019999999N999999999+00211+99999100841ADDMA1999999100771MD1310141+9999REMSYN04801009 46/// /2109 10021 2//// 30077 40084 53014=
0089010090999992016010110004+80650+025000FM-12+000599999V0201801N005019999999N999999999+00281+99999100841ADDMA1999999100771MD1310051+9999REMSYN04801009 46/// /1805 10028 2//// 30077 40084 53005=
0094010090999992016010111004+80650+025000FM-12+000599999V0201501N003019999999N999999999+00171+99999100821ADDMA1999999100751REMSYN04801009 46/// /1503 10017 2//// 30075 40082 54002=EQDQ014     3APCTEN
0089010090999992016010112004+80650+025000FM-12+000599999V0201501N005019999999N999999999+00141+99999100721ADDMA1999999100651MD1610111+9999REMSYN04801009 46/// /1505 10014 2//// 30065 40072 56011=
0089010090999992016010113004+80650+025000FM-12+000599999V0201301N005019999999N999999999+00131+99999100681ADDMA1999999100611MD1710161+9999REMSYN04801009 46/// /1305 10013 2//// 30061 40068 57016=
0089010090999992016010114004+80650+025000FM-12+000599999V0201401N005019999999N999999999+00031+99999100611ADDMA1999999100541MD1710211+9999REMSYN04801009 46/// /1405 10003 2//// 30054 40061 57021=
0089010090999992016010116004+80650+025000FM-12+000599999V0201701N007019999999N999999999+00101+99999100491ADDMA1999999100421MD1810201+9999REMSYN04801009 46/// /1707 10010 2//// 30042 40049 58020=
0089010090999992016010118004+80650+025000FM-12+000599999V0201201N006019999999N999999999+00021+99999100301ADDMA1999999100231MD1610221+9999REMSYN04801009 46/// /1206 10002 2//// 30023 40030 56022=
0059010090999992016010121004+80653+025008FM-12+000599999V0202431N0081199999999999999999+00221+99999100201ADDMA1999999100131MD1810101+9999OD130101421999REMSYN004BUFR
0089010090999992016010122004+80650+025000FM-12+000599999V0202401N009019999999N999999999+00211+99999100271ADDMA1999999100201MD1990101+9999REMSYN04801009 46/// /2409 10021 2//// 30020 40027 50010=
0045010090999992016010200004+80653+025008FM-12+000599999V0202551N0085199999999999999999+00171+99999100401ADDMA1999999100331MD1310201+9999REMSYN004BUFR
0089010090999992016010201004+80650+025000FM-12+000599999V0202401N006019999999N999999999+00161+99999100491ADDMA1999999100421MD1210221+9999REMSYN04801009 46/// /2406 10016 2//// 30042 40049 52022=
0089010090999992016010202004+80650+025000FM-12+000599999V0202401N005019999999N999999999+00151+99999100511ADDMA1999999100451MD1210151+9999REMSYN04801009 46/// /2405 10015 2//// 30045 40051 52015=
0089010090999992016010204004+80650+025000FM-12+000599999V0201301N003019999999N999999999+00171+99999100601ADDMA1999999100541MD1210111+9999REMSYN04801009 46/// /1303 10017 2//// 30054 40060 52011=
0089010090999992016010205004+80650+025000FM-12+000599999V0201801N005019999999N999999999+00241+99999100601ADDMA1999999100531MD1310091+9999REMSYN04801009 46/// /1805 10024 2//// 30053 40060 53009=
0089010090999992016010206004+80650+025000FM-12+000599999V0201901N003019999999N999999999+00271+99999100571ADDMA1999999100501MD1510011+9999REMSYN04801009 46/// /1903 10027 2//// 30050 40057 55001=
0108010090999992016010207004+80650+025000FM-12+000599999V0201901N004019999999N999999999+00251+99999100581ADDMA1999999100511MD1790029+9999REMSYN04801009 46/// /1904 10025 2//// 30051 40058 54002=EQDQ01.2    3APC3  
0089010090999992016010208004+80650+025000FM-12+000599999V0202401N004019999999N999999999+00231+99999100561ADDMA1999999100491MD1710051+9999REMSYN04801009 46/// /2404 10023 2//// 30049 40056 57005=
0089010090999992016010209004+80650+025000FM-12+000599999V0202601N004019999999N999999999+00201+99999100511ADDMA1999999100451MD1610061+9999REMSYN04801009 46/// /2604 10020 2//// 30045 40051 56006=
0089010090999992016010210004+80650+025000FM-12+000599999V0202301N007019999999N999999999+00191+99999100471ADDMA1999999100401MD1710111+9999REMSYN04801009 46/// /2307 10019 2//// 30040 40047 57011=
0089010090999992016010211004+80650+025000FM-12+000599999V0202301N010019999999N999999999+00131+99999100421ADDMA1999999100351MD1710141+9999REMSYN04801009 46/// /2310 10013 2//// 30035 40042 57014=
0089010090999992016010213004+80650+025000FM-12+000599999V0202701N005019999999N999999999+00061+99999100391ADDMA1999999100321MD1810081+9999REMSYN04801009 46/// /2705 10006 2//// 30032 40039 58008=
0089010090999992016010216004+80650+025000FM-12+000599999V0203501N004019999999N999999999-00041+99999100621ADDMA1999999100561MD1110241+9999REMSYN04801009 46/// /3504 11004 2//// 30056 40062 51024=
0089010090999992016010217004+80650+025000FM-12+000599999V0203201N004019999999N999999999-00041+99999100781ADDMA1999999100711MD1110391+9999REMSYN04801009 46/// /3204 11004 2//// 30071 40078 51039=
0089010090999992016010218004+80650+025000FM-12+000599999V0203101N005019999999N999999999-00051+99999100941ADDMA1999999100881MD1210461+9999REMSYN04801009 46/// /3105 11005 2//// 30088 40094 52046=
0059010090999992016010220004+80653+025008FM-12+000599999V0202871N0099199999999999999999-00091+99999101291ADDMA1999999101221MD1210511+9999OD130101211999REMSYN004BUFR
0089010090999992016010221004+80650+025000FM-12+000599999V0202901N008019999999N999999999-00121+99999101451ADDMA1999999101381MD1210501+9999REMSYN04801009 46/// /2908 11012 2//// 30138 40145 52050=
0089010090999992016010222004+80650+025000FM-12+000599999V0202801N007019999999N999999999-00091+99999101601ADDMA1999999101531MD1310491+9999REMSYN04801009 46/// /2807 11009 2//// 30153 40160 53049=
0089010090999992016010223004+80650+025000FM-12+000599999V0202601N006019999999N999999999-00061+99999101741ADDMA1999999101671MD1210451+9999REMSYN04801009 46/// /2606 11006 2//// 30167 40174 52045=
0089010090999992016010300004+80650+025000FM-12+000599999V0202601N005019999999N999999999-00051+99999101811ADDMA1999999101741MD1310361+9999REMSYN04801009 46/// /2605 11005 2//// 30174 40181 53036=
0089010090999992016010302004+80650+025000FM-12+000599999V0201501N003019999999N999999999-00161+99999101911ADDMA1999999101841MD1310181+9999REMSYN04801009 46/// /1503 11016 2//// 30184 40191 53018=
0089010090999992016010303004+80650+025000FM-12+000599999V0201501N005019999999N999999999-00051+99999101931ADDMA1999999101861MD1310111+9999REMSYN04801009 46/// /1505 11005 2//// 30186 40193 53011=
0089010090999992016010304004+80650+025000FM-12+000599999V0201501N005019999999N999999999-00021+99999101861ADDMA1999999101791MD1510031+9999REMSYN04801009 46/// /1505 11002 2//// 30179 40186 55003=
0089010090999992016010306004+80650+025000FM-12+000599999V0201701N006019999999N999999999+00111+99999101761ADDMA1999999101691MD1710171+9999REMSYN04801009 46/// /1706 10011 2//// 30169 40176 57017=
0089010090999992016010307004+80650+025000FM-12+000599999V0201801N006019999999N999999999+00111+99999101671ADDMA1999999101601MD1610191+9999REMSYN04801009 46/// /1806 10011 2//// 30160 40167 56019=
0089010090999992016010309004+80650+025000FM-12+000599999V0202001N014019999999N999999999+00261+99999101411ADDMA1999999101341MD1610351+9999REMSYN04801009 46/// /2014 10026 2//// 30134 40141 56035=
0089010090999992016010310004+80650+025000FM-12+000599999V0201901N015019999999N999999999+00271+99999101241ADDMA1999999101171MD1710431+9999REMSYN04801009 46/// /1915 10027 2//// 30117 40124 57043=
0089010090999992016010311004+80650+025000FM-12+000599999V0201701N011019999999N999999999+00231+99999101151ADDMA1999999101081MD1710381+9999REMSYN04801009 46/// /1711 10023 2//// 30108 40115 57038=
0089010090999992016010313004+80650+025000FM-12+000599999V0202001N013019999999N999999999+00261+99999100931ADDMA1999999100861MD1710311+9999REMSYN04801009 46/// /2013 10026 2//// 30086 40093 57031=
0089010090999992016010314004+80650+025000FM-12+000599999V0202001N011019999999N999999999+00291+99999100921ADDMA1999999100851MD1810231+9999REMSYN04801009 46/// /2011 10029 2//// 30085 40092 58023=
0089010090999992016010317004+80650+025000FM-12+000599999V0201901N012019999999N999999999+00241+99999100751ADDMA1999999100681MD1810171+9999REMSYN04801009 46/// /1912 10024 2//// 30068 40075 58017=
0089010090999992016010320004+80650+025000FM-12+000599999V0202201N014019999999N999999999+00241+99999100791ADDMA1999999100721MD1110041+9999REMSYN04801009 46/// /2214 10024 2//// 30072 40079 51004=
0089010090999992016010321004+80650+025000FM-12+000599999V0202201N009019999999N999999999+00181+99999100861ADDMA1999999100791MD1110121+9999REMSYN04801009 46/// /2209 10018 2//// 30079 40086 51012=
0089010090999992016010323004+80650+025000FM-12+000599999V0202801N010019999999N999999999+00051+99999101051ADDMA1999999100981MD1110261+9999REMSYN04801009 46/// /2810 10005 2//// 30098 40105 51026=
0089010090999992016010401004+80650+025000FM-12+000599999V0202501N008019999999N999999999+00041+99999101131ADDMA1999999101061MD1310181+9999REMSYN04801009 46/// /2508 10004 2//// 30106 40113 53018=
0089010090999992016010402004+80650+025000FM-12+000599999V0202401N008019999999N999999999+00041+99999101141ADDMA1999999101071MD1310091+9999REMSYN04801009 46/// /2408 10004 2//// 30107 40114 53009=
0108010090999992016010404004+80650+025000FM-12+000599999V0202301N007019999999N999999999+00011+99999101121ADDMA1999999101051MD1790019+9999REMSYN04801009 46/// /2307 10001 2//// 30105 40112 54001=EQDQ01.1    3APC3  
0089010090999992016010405004+80650+025000FM-12+000599999V0202201N005019999999N999999999-00051+99999101141ADDMA1999999101071MD1990001+9999REMSYN04801009 46/// /2205 11005 2//// 30107 40114 50000=
0089010090999992016010406004+80650+025000FM-12+000599999V0201901N002019999999N999999999-00091+99999101161ADDMA1999999101091MD1210051+9999REMSYN04801009 46/// /1902 11009 2//// 30109 40116 52005=
0108010090999992016010408004+80650+025000FM-12+000599999V0202501N005019999999N999999999-00021+99999101151ADDMA1999999101081MD1290019+9999REMSYN04801009 46/// /2505 11002 2//// 30108 40115 54001=EQDQ01.1    3APC3  
0108010090999992016010409004+80650+025000FM-12+000599999V0202501N007019999999N999999999-00021+99999101151ADDMA1999999101081MD1790019+9999REMSYN04801009 46/// /2507 11002 2//// 30108 40115 54001=EQDQ01.1    3APC3  
0089010090999992016010410004+80650+025000FM-12+000599999V0202501N007019999999N999999999-00021+99999101161ADDMA1999999101091MD1410001+9999REMSYN04801009 46/// /2507 11002 2//// 30109 40116 54000=
0108010090999992016010411004+80650+025000FM-12+000599999V0202601N010019999999N999999999-00031+99999101151ADDMA1999999101081MD1410009+9999REMSYN04801009 46/// /2610 11003 2//// 30108 40115 54001=EQDQ01.1    3APC3  
0089010090999992016010412004+80650+025000FM-12+000599999V0203501N006019999999N999999999-00271+99999101221ADDMA1999999101151MD1110081+9999REMSYN04801009 46/// /3506 11027 2//// 30115 40122 51008=
0089010090999992016010413004+80650+025000FM-12+000599999V0203601N007019999999N999999999-00361+99999101281ADDMA1999999101211MD1110121+9999REMSYN04801009 46/// /3607 11036 2//// 30121 40128 51012=
0089010090999992016010414004+80650+025000FM-12+000599999V0203401N005019999999N999999999-00441+99999101391ADDMA1999999101311MD1210241+9999REMSYN04801009 46/// /3405 11044 2//// 30131 40139 52024=
0089010090999992016010415004+80650+025000FM-12+000599999V0203201N005019999999N999999999-00451+99999101441ADDMA1999999101371MD1210211+9999REMSYN04801009 46/// /3205 11045 2//// 30137 40144 52021=
0089010090999992016010416004+80650+025000FM-12+000599999V0203501N005019999999N999999999-00531+99999101481ADDMA1999999101411MD1310201+9999REMSYN04801009 46/// /3505 11053 2//// 30141 40148 53020=
0089010090999992016010418004+80650+025000FM-12+000599999V0203401N004019999999N999999999-00621+99999101651ADDMA1999999101581MD1110211+9999REMSYN04801009 46/// /3404 11062 2//// 30158 40165 51021=
0089010090999992016010419004+80650+025000FM-12+000599999V0203401N004019999999N999999999-00671+99999101731ADDMA1999999101661MD1210251+9999REMSYN04801009 46/// /3404 11067 2//// 30166 40173 52025=
0089010090999992016010420004+80650+025000FM-12+000599999V0203501N004019999999N999999999-00691+99999101771ADDMA1999999101701MD1310211+9999REMSYN04801009 46/// /3504 11069 2//// 30170 40177 53021=
0059010090999992016010423004+80653+025008FM-12+000599999V0203071N0044199999999999999999-00651+99999101941ADDMA1999999101871MD1210181+9999OD130100571999REMSYN004BUFR
0089010090999992016010500004+80650+025000FM-12+000599999V0203101N005019999999N999999999-00651+99999101981ADDMA1999999101911MD1310181+9999REMSYN04801009 46/// /3105 11065 2//// 30191 40198 53018=
0089010090999992016010501004+80650+025000FM-12+000599999V0202901N004019999999N999999999-00621+99999101991ADDMA1999999101921MD1310111+9999REMSYN04801009 46/// /2904 11062 2//// 30192 40199 53011=
0089010090999992016010503004+80650+025000FM-12+000599999V0203001N008019999999N999999999-00631+99999102031ADDMA1999999101961MD1210051+9999REMSYN04801009 46/// /3008 11063 2//// 30196 40203 52005=
0089010090999992016010507004+80650+025000FM-12+000599999V0200401N001019999999N999999999-00591+99999102151ADDMA1999999102071MD1210051+9999REMSYN04801009 46/// /0401 11059 2//// 30207 40215 52005=
0094010090999992016010508004+80650+025000FM-12+000599999V0200401N001019999999N999999999-00601+99999102141ADDMA1999999102071REMSYN04801009 46/// /0401 11060 2//// 30207 40214 54002=EQDQ014     3APCTEN
0094010090999992016010509004+80650+025000FM-12+000599999V0202101N004019999999N999999999-00511+99999102151ADDMA1999999102081REMSYN04801009 46/// /2104 11051 2//// 30208 40215 54003=EQDQ014     3APCTEN
0089010090999992016010512004+80650+025000FM-12+000599999V0202001N006019999999N999999999-00431+99999102101ADDMA1999999102031MD1710051+9999REMSYN04801009 46/// /2006 11043 2//// 30203 40210 57005=
0094010090999992016010513004+80650+025000FM-12+000599999V0202001N007019999999N999999999-00411+99999102101ADDMA1999999102031REMSYN04801009 46/// /2007 11041 2//// 30203 40210 54003=EQDQ014     3APCTEN
0064010090999992016010520004+80653+025008FM-12+000599999V0202541N0070199999999999999999-00351+99999102041ADDMA1999999101971OD130100891999REMSYN004BUFREQDQ014     3APCTEN
0090010090999992016010521004+80653+025008FM-12+000599999V0203141N0067199999999999999999-00321+99999102031ADDKA1010M-00321KA2010N-00371MA1999999101961OD130100841999REMSYN004BUFREQDQ014     3APCTEN
0090010090999992016010522004+80653+025008FM-12+000599999V0203331N0058199999999999999999-00401+99999102041ADDKA1010M-00321KA2010N-00411MA1999999101971OD130100801999REMSYN004BUFREQDQ014     3APCTEN
0089010090999992016010600004+80650+025000FM-12+000599999V0203601N004019999999N999999999-00501+99999102061ADDMA1999999101991MD1210031+9999REMSYN04801009 46/// /3604 11050 2//// 30199 40206 52003=
0089010090999992016010601004+80650+025000FM-12+000599999V0203601N003019999999N999999999-00521+99999102041ADDMA1999999101971MD1510001+9999REMSYN04801009 46/// /3603 11052 2//// 30197 40204 55000=
0094010090999992016010602004+80650+025000FM-12+000599999V0200101N003019999999N999999999-00511+99999102031ADDMA1999999101961REMSYN04801009 46/// /0103 11051 2//// 30196 40203 54003=EQDQ014     3APCTEN
0089010090999992016010603004+80650+025000FM-12+000599999V0200101N004019999999N999999999-00501+99999102011ADDMA1999999101941MD1710051+9999REMSYN04801009 46/// /0104 11050 2//// 30194 40201 57005=
0089010090999992016010604004+80650+025000FM-12+000599999V0200201N001019999999N999999999-00501+99999102011ADDMA1999999101931MD1710041+9999REMSYN04801009 46/// /0201 11050 2//// 30193 40201 57004=
0089010090999992016010605004+80650+025000FM-12+000599999V0200401N003019999999N999999999-00481+99999102001ADDMA1999999101931MD1710031+9999REMSYN04801009 46/// /0403 11048 2//// 30193 40200 57003=
0132010090999992016010606004+80650+025000FM-12+000599999V0200401N001019999999N999999999-00501+99999101991ADDMA1999999101921MD1790029+9999OD139900501999REMSYN05801009 46/// /0401 11050 2//// 30192 40199 54002 333 91105=EQDQ01.2    3APC3  
0108010090999992016010607004+80650+025000FM-12+000599999V0200301N004019999999N999999999-00471+99999101981ADDMA1999999101911MD1790039+9999REMSYN04801009 46/// /0304 11047 2//// 30191 40198 54002=EQDQ01.2    3APC3  
0108010090999992016010608004+80650+025000FM-12+000599999V0200401N003019999999N999999999-00471+99999102011ADDMA1999999101941MD1290019+9999REMSYN04801009 46/// /0403 11047 2//// 30194 40201 54001=EQDQ01.1    3APC3  
0108010090999992016010610004+80650+025000FM-12+000599999V0203501N002019999999N999999999-00451+99999102011ADDMA1999999101941MD1290039+9999REMSYN04801009 46/// /3502 11045 2//// 30194 40201 54003=EQDQ01.3    3APC3  
0108010090999992016010611004+80650+025000FM-12+000599999V0200701N005019999999N999999999-00471+99999101991ADDMA1999999101921MD1790029+9999REMSYN04801009 46/// /0705 11047 2//// 30192 40199 54002=EQDQ01.2    3APC3  
0094010090999992016010612004+80650+025000FM-12+000599999V0200601N008019999999N999999999-00491+99999102001ADDMA1999999101931REMSYN04801009 46/// /0608 11049 2//// 30193 40200 54001=EQDQ014     3APCTEN
0108010090999992016010613004+80650+025000FM-12+000599999V0200501N009019999999N999999999-00491+99999102001ADDMA1999999101931MD1790019+9999REMSYN04801009 46/// /0509 11049 2//// 30193 40200 54001=EQDQ01.1    3APC3  
0089010090999992016010614004+80650+025000FM-12+000599999V0200501N008019999999N999999999-00491+99999102031ADDMA1999999101961MD1210041+9999REMSYN04801009 46/// /0508 11049 2//// 30196 40203 52004=
0089010090999992016010615004+80650+025000FM-12+000599999V0200501N010019999999N999999999-00561+99999102041ADDMA1999999101971MD1210041+9999REMSYN04801009 46/// /0510 11056 2//// 30197 40204 52004=
0089010090999992016010616004+80650+025000FM-12+000599999V0200501N010019999999N999999999-00601+99999102071ADDMA1999999102001MD1210071+9999REMSYN04801009 46/// /0510 11060 2//// 30200 40207 52007=
0089010090999992016010617004+80650+025000FM-12+000599999V0200401N010019999999N999999999-00651+99999102111ADDMA1999999102041MD1210081+9999REMSYN04801009 46/// /0410 11065 2//// 30204 40211 52008=
0113010090999992016010618004+80650+025000FM-12+000599999V0200301N011019999999N999999999-00731+99999102181ADDMA1999999102101MD1110131+9999OD139901301999REMSYN05801009 46/// /0311 11073 2//// 30210 40218 51013 333 91113=
0089010090999992016010619004+80650+025000FM-12+000599999V0200301N009019999999N999999999-00731+99999102201ADDMA1999999102131MD1210131+9999REMSYN04801009 46/// /0309 11073 2//// 30213 40220 52013=
0089010090999992016010620004+80650+025000FM-12+000599999V0200201N009019999999N999999999-00751+99999102231ADDMA1999999102151MD1310111+9999REMSYN04801009 46/// /0209 11075 2//// 30215 40223 53011=
0089010090999992016010621004+80650+025000FM-12+000599999V0200301N010019999999N999999999-00781+99999102241ADDMA1999999102171MD1210061+9999REMSYN04801009 46/// /0310 11078 2//// 30217 40224 52006=
0089010090999992016010622004+80650+025000FM-12+000599999V0200401N009019999999N999999999-00771+99999102291ADDMA1999999102221MD1210091+9999REMSYN04801009 46/// /0409 11077 2//// 30222 40229 52009=
0089010090999992016010623004+80650+025000FM-12+000599999V0200401N009019999999N999999999-00831+99999102351ADDMA1999999102271MD1110121+9999REMSYN04801009 46/// /0409 11083 2//// 30227 40235 51012=
0113010090999992016010700004+80650+025000FM-12+000599999V0200301N009019999999N999999999-00841+99999102391ADDMA1999999102321MD1210151+9999OD139901201999REMSYN05801009 46/// /0309 11084 2//// 30232 40239 52015 333 91112=
0089010090999992016010701004+80650+025000FM-12+000599999V0200401N009019999999N999999999-00841+99999102411ADDMA1999999102341MD1310121+9999REMSYN04801009 46/// /0409 11084 2//// 30234 40241 53012=
0089010090999992016010702004+80650+025000FM-12+000599999V0200201N009019999999N999999999-00921+99999102451ADDMA1999999102381MD1210111+9999REMSYN04801009 46/// /0209 11092 2//// 30238 40245 52011=
0089010090999992016010703004+80650+025000FM-12+000599999V0200301N009019999999N999999999-00941+99999102471ADDMA1999999102401MD1210081+9999REMSYN04801009 46/// /0309 11094 2//// 30240 40247 52008=
0089010090999992016010704004+80650+025000FM-12+000599999V0200301N009019999999N999999999-00981+99999102521ADDMA1999999102451MD1210111+9999REMSYN04801009 46/// /0309 11098 2//// 30245 40252 52011=
0089010090999992016010705004+80650+025000FM-12+000599999V0200401N009019999999N999999999-01041+99999102571ADDMA1999999102491MD1210111+9999REMSYN04801009 46/// /0409 11104 2//// 30249 40257 52011=
0132010090999992016010706004+80650+025000FM-12+000599999V0200301N009019999999N999999999-01051+99999102611ADDKA1240N-01061MA1999999102541MD1210141+9999OD139901201999REMSYN06401009 46/// /0309 11105 2//// 30254 40261 52014 333 21106 91112=
0089010090999992016010707004+80650+025000FM-12+000599999V0200401N008019999999N999999999-01121+99999102661ADDMA1999999102591MD1210141+9999REMSYN04801009 46/// /0408 11112 2//// 30259 40266 52014=
0089010090999992016010708004+80650+025000FM-12+000599999V0200501N008019999999N999999999-01111+99999102681ADDMA1999999102611MD1210121+9999REMSYN04801009 46/// /0508 11111 2//// 30261 40268 52012=
0089010090999992016010709004+80650+025000FM-12+000599999V0200501N008019999999N999999999-01131+99999102731ADDMA1999999102651MD1210121+9999REMSYN04801009 46/// /0508 11113 2//// 30265 40273 52012=
0089010090999992016010710004+80650+025000FM-12+000599999V0200301N007019999999N999999999-01161+99999102731ADDMA1999999102661MD1210071+9999REMSYN04801009 46/// /0307 11116 2//// 30266 40273 52007=
0089010090999992016010711004+80650+025000FM-12+000599999V0200401N007019999999N999999999-01201+99999102741ADDMA1999999102671MD1310061+9999REMSYN04801009 46/// /0407 11120 2//// 30267 40274 53006=
0113010090999992016010712004+80650+025000FM-12+000599999V0200201N006019999999N999999999-01161+99999102691ADDMA1999999102621MD1610041+9999OD139901101999REMSYN05801009 46/// /0206 11116 2//// 30262 40269 56004 333 91111=
0089010090999992016010713004+80650+025000FM-12+000599999V0200101N005019999999N999999999-01151+99999102661ADDMA1999999102581MD1610081+9999REMSYN04801009 46/// /0105 11115 2//// 30258 40266 56008=
0089010090999992016010714004+80650+025000FM-12+000599999V0200201N006019999999N999999999-01141+99999102621ADDMA1999999102551MD1710121+9999REMSYN04801009 46/// /0206 11114 2//// 30255 40262 57012=
0089010090999992016010716004+80650+025000FM-12+000599999V0200101N004019999999N999999999-01081+99999102501ADDMA1999999102431MD1610151+9999REMSYN04801009 46/// /0104 11108 2//// 30243 40250 56015=
0089010090999992016010717004+80650+025000FM-12+000599999V0203301N006019999999N999999999-01071+99999102451ADDMA1999999102371MD1710181+9999REMSYN04801009 46/// /3306 11107 2//// 30237 40245 57018=
0089010090999992016010719004+80650+025000FM-12+000599999V0203601N004019999999N999999999-01021+99999102361ADDMA1999999102281MD1710151+9999REMSYN04801009 46/// /3604 11102 2//// 30228 40236 57015=
0089010090999992016010720004+80650+025000FM-12+000599999V0200101N005019999999N999999999-01031+99999102331ADDMA1999999102261MD1710111+9999REMSYN04801009 46/// /0105 11103 2//// 30226 40233 57011=
0089010090999992016010722004+80650+025000FM-12+000599999V0200401N005019999999N999999999-00991+99999102291ADDMA1999999102221MD1710071+9999REMSYN04801009 46/// /0405 11099 2//// 30222 40229 57007=
0089010090999992016010800004+80650+025000FM-12+000599999V0201101N005019999999N999999999-00931+99999102261ADDMA1999999102181MD1710061+9999REMSYN04801009 46/// /1105 11093 2//// 30218 40226 57006=
0089010090999992016010802004+80650+025000FM-12+000599999V0201001N008019999999N999999999-00891+99999102251ADDMA1999999102181MD1990021+9999REMSYN04801009 46/// /1008 11089 2//// 30218 40225 50002=
0089010090999992016010803004+80650+025000FM-12+000599999V0201701N003019999999N999999999-00961+99999102311ADDMA1999999102231MD1110051+9999REMSYN04801009 46/// /1703 11096 2//// 30223 40231 51005=
0089010090999992016010804004+80650+025000FM-12+000599999V0201001N005019999999N999999999-00861+99999102301ADDMA1999999102231MD1210071+9999REMSYN04801009 46/// /1005 11086 2//// 30223 40230 52007=
0108010090999992016010806004+80650+025000FM-12+000599999V0200801N003019999999N999999999-00961+99999102331ADDMA1999999102251MD1290029+9999REMSYN04801009 46/// /0803 11096 2//// 30225 40233 54002=EQDQ01.2    3APC3  
0089010090999992016010811004+80650+025000FM-12+000599999V0200701N006019999999N999999999-00881+99999102371ADDMA1999999102301MD1510021+9999REMSYN04801009 46/// /0706 11088 2//// 30230 40237 55002=
0094010090999992016010812004+80650+025000FM-12+000599999V0200501N006019999999N999999999-00871+99999102371ADDMA1999999102291REMSYN04801009 46/// /0506 11087 2//// 30229 40237 54002=EQDQ014     3APCTEN
0089010090999992016010813004+80650+025000FM-12+000599999V0200501N006019999999N999999999-00891+99999102391ADDMA1999999102321MD1990001+9999REMSYN04801009 46/// /0506 11089 2//// 30232 40239 50000=
0108010090999992016010814004+80650+025000FM-12+000599999V0200701N005019999999N999999999-00871+99999102381ADDMA1999999102311MD1290019+9999REMSYN04801009 46/// /0705 11087 2//// 30231 40238 54001=EQDQ01.1    3APC3  
0108010090999992016010815004+80650+025000FM-12+000599999V0200601N005019999999N999999999-00881+99999102381ADDMA1999999102311MD1290019+9999REMSYN04801009 46/// /0605 11088 2//// 30231 40238 54002=EQDQ01.2    3APC3  
0108010090999992016010816004+80650+025000FM-12+000599999V0200701N005019999999N999999999-00901+99999102361ADDMA1999999102291MD1790039+9999REMSYN04801009 46/// /0705 11090 2//// 30229 40236 54003=EQDQ01.3    3APC3  
0089010090999992016010817004+80650+025000FM-12+000599999V0200901N004019999999N999999999-00901+99999102391ADDMA1999999102321MD1410001+9999REMSYN04801009 46/// /0904 11090 2//// 30232 40239 54000=
0132010090999992016010818004+80650+025000FM-12+000599999V0201001N004019999999N999999999-00901+99999102401ADDMA1999999102331MD1290029+9999OD139900901999REMSYN05801009 46/// /1004 11090 2//// 30233 40240 54002 333 91109=EQDQ01.2    3APC3  
0089010090999992016010819004+80650+025000FM-12+000599999V0200601N004019999999N999999999-00891+99999102401ADDMA1999999102331MD1210041+9999REMSYN04801009 46/// /0604 11089 2//// 30233 40240 52004=
0089010090999992016010820004+80650+025000FM-12+000599999V0201001N005019999999N999999999-00891+99999102431ADDMA1999999102361MD1210041+9999REMSYN04801009 46/// /1005 11089 2//// 30236 40243 52004=
0089010090999992016010821004+80650+025000FM-12+000599999V0200801N004019999999N999999999-00861+99999102441ADDMA1999999102371MD1210041+9999REMSYN04801009 46/// /0804 11086 2//// 30237 40244 52004=
0108010090999992016010823004+80650+025000FM-12+000599999V0201001N005019999999N999999999-00841+99999102451ADDMA1999999102381MD1290029+9999REMSYN04801009 46/// /1005 11084 2//// 30238 40245 54002=EQDQ01.2    3APC3  
0094010090999992016010901004+80650+025000FM-12+000599999V0201101N005019999999N999999999-00811+99999102461ADDMA1999999102391REMSYN04801009 46/// /1105 11081 2//// 30239 40246 54003=EQDQ014     3APCTEN
0108010090999992016010902004+80650+025000FM-12+000599999V0201001N005019999999N999999999-00791+99999102471ADDMA1999999102401MD1290029+9999REMSYN04801009 46/// /1005 11079 2//// 30240 40247 54003=EQDQ01.3    3APC3  
0094010090999992016010903004+80650+025000FM-12+000599999V0201001N005019999999N999999999-00781+99999102471ADDMA1999999102391REMSYN04801009 46/// /1005 11078 2//// 30239 40247 54001=EQDQ014     3APCTEN
0089010090999992016010904004+80650+025000FM-12+000599999V0201001N005019999999N999999999-00761+99999102461ADDMA1999999102391MD1410001+9999REMSYN04801009 46/// /1005 11076 2//// 30239 40246 54000=
0089010090999992016010905004+80650+025000FM-12+000599999V0201201N004019999999N999999999-00721+99999102441ADDMA1999999102361MD1710041+9999REMSYN04801009 46/// /1204 11072 2//// 30236 40244 57004=
0108010090999992016010907004+80650+025000FM-12+000599999V0201001N006019999999N999999999-00721+99999102451ADDMA1999999102371MD1790019+9999REMSYN04801009 46/// /1006 11072 2//// 30237 40245 54002=EQDQ01.2    3APC3  
0108010090999992016010910004+80650+025000FM-12+000599999V0201101N005019999999N999999999-00691+99999102471ADDMA1999999102401MD1290029+9999REMSYN04801009 46/// /1105 11069 2//// 30240 40247 54002=EQDQ01.2    3APC3  
0094010090999992016010911004+80650+025000FM-12+000599999V0200901N005019999999N999999999-00691+99999102461ADDMA1999999102381REMSYN04801009 46/// /0905 11069 2//// 30238 40246 54001=EQDQ014     3APCTEN
0094010090999992016010912004+80650+025000FM-12+000599999V0201301N004019999999N999999999-00691+99999102461ADDMA1999999102381REMSYN04801009 46/// /1304 11069 2//// 30238 40246 54002=EQDQ014     3APCTEN
0108010090999992016010914004+80650+025000FM-12+000599999V0201201N003019999999N999999999-00681+99999102441ADDMA1999999102371MD1790029+9999REMSYN04801009 46/// /1203 11068 2//// 30237 40244 54002=EQDQ01.2    3APC3  
0094010090999992016010916004+80650+025000FM-12+000599999V0201201N004019999999N999999999-00661+99999102441ADDMA1999999102371REMSYN04801009 46/// /1204 11066 2//// 30237 40244 54001=EQDQ014     3APCTEN
0089010090999992016010917004+80650+025000FM-12+000599999V0201101N005019999999N999999999-00631+99999102411ADDMA1999999102341MD1710031+9999REMSYN04801009 46/// /1105 11063 2//// 30234 40241 57003=
0094010090999992016010918004+80650+025000FM-12+000599999V0200801N005019999999N999999999-00631+99999102411ADDMA1999999102341REMSYN04801009 46/// /0805 11063 2//// 30234 40241 54001=EQDQ014     3APCTEN
0089010090999992016010919004+80650+025000FM-12+000599999V0201101N005019999999N999999999-00641+99999102411ADDMA1999999102331MD1710031+9999REMSYN04801009 46/// /1105 11064 2//// 30233 40241 57003=
0108010090999992016010920004+80650+025000FM-12+000599999V0200901N005019999999N999999999-00641+99999102401ADDMA1999999102331MD1790019+9999REMSYN04801009 46/// /0905 11064 2//// 30233 40240 54001=EQDQ01.1    3APC3  
0078010090999992016010922004+80653+025008FM-12+000599999V0201001N0053199999999999999999-00621+99999102401ADDMA1999999102331MD1790019+9999OD130100771999REMSYN004BUFREQDQ01.1    3APC3  
0089010090999992016010923004+80650+025000FM-12+000599999V0201201N004019999999N999999999-00651+99999102401ADDMA1999999102321MD1410001+9999REMSYN04801009 46/// /1204 11065 2//// 30232 40240 54000=
0094010090999992016011000004+80650+025000FM-12+000599999V0201201N006019999999N999999999-00621+99999102381ADDMA1999999102311REMSYN04801009 46/// /1206 11062 2//// 30231 40238 54003=EQDQ014     3APCTEN
0089010090999992016011001004+80650+025000FM-12+000599999V0201001N005019999999N999999999-00661+99999102411ADDMA1999999102331MD1410001+9999REMSYN04801009 46/// /1005 11066 2//// 30233 40241 54000=
0089010090999992016011002004+80650+025000FM-12+000599999V0201001N006019999999N999999999-00661+99999102391ADDMA1999999102321MD1410001+9999REMSYN04801009 46/// /1006 11066 2//// 30232 40239 54000=
0089010090999992016011003004+80650+025000FM-12+000599999V0201001N006019999999N999999999-00641+99999102371ADDMA1999999102301MD1510011+9999REMSYN04801009 46/// /1006 11064 2//// 30230 40237 55001=
0108010090999992016011005004+80650+025000FM-12+000599999V0201001N007019999999N999999999-00681+99999102371ADDMA1999999102301MD1790029+9999REMSYN04801009 46/// /1007 11068 2//// 30230 40237 54002=EQDQ01.2    3APC3  
0089010090999992016011006004+80650+025000FM-12+000599999V0201001N006019999999N999999999-00701+99999102381ADDMA1999999102311MD1410001+9999REMSYN04801009 46/// /1006 11070 2//// 30231 40238 54000=
0089010090999992016011007004+80650+025000FM-12+000599999V0201201N007019999999N999999999-00691+99999102411ADDMA1999999102331MD1110031+9999REMSYN04801009 46/// /1207 11069 2//// 30233 40241 51003=
0089010090999992016011008004+80650+025000FM-12+000599999V0201401N004019999999N999999999-00691+99999102431ADDMA1999999102361MD1210061+9999REMSYN04801009 46/// /1404 11069 2//// 30236 40243 52006=
0089010090999992016011009004+80650+025000FM-12+000599999V0201401N006019999999N999999999-00631+99999102431ADDMA1999999102361MD1210061+9999REMSYN04801009 46/// /1406 11063 2//// 30236 40243 52006=
0089010090999992016011010004+80650+025000FM-12+000599999V0201401N006019999999N999999999-00631+99999102441ADDMA1999999102371MD1210031+9999REMSYN04801009 46/// /1406 11063 2//// 30237 40244 52003=
0089010090999992016011013004+80650+025000FM-12+000599999V0201301N005019999999N999999999-00621+99999102481ADDMA1999999102401MD1210041+9999REMSYN04801009 46/// /1305 11062 2//// 30240 40248 52004=
0089010090999992016011014004+80650+025000FM-12+000599999V0201701N005019999999N999999999-00611+99999102471ADDMA1999999102401MD1510021+9999REMSYN04801009 46/// /1705 11061 2//// 30240 40247 55002=
0108010090999992016011016004+80650+025000FM-12+000599999V0201801N005019999999N999999999-00561+99999102491ADDMA1999999102411MD1290019+9999REMSYN04801009 46/// /1805 11056 2//// 30241 40249 54001=EQDQ01.1    3APC3  
0089010090999992016011018004+80650+025000FM-12+000599999V0201401N005019999999N999999999-00551+99999102521ADDMA1999999102441MD1210041+9999REMSYN04801009 46/// /1405 11055 2//// 30244 40252 52004=
0059010090999992016011020004+80653+025008FM-12+000599999V0201631N0056199999999999999999-00591+99999102591ADDMA1999999102521MD1210081+9999OD130100831999REMSYN004BUFR
0089010090999992016011021004+80650+025000FM-12+000599999V0201701N006019999999N999999999-00641+99999102641ADDMA1999999102571MD1210121+9999REMSYN04801009 46/// /1706 11064 2//// 30257 40264 52012=
0089010090999992016011022004+80650+025000FM-12+000599999V0201701N006019999999N999999999-00661+99999102661ADDMA1999999102591MD1210111+9999REMSYN04801009 46/// /1706 11066 2//// 30259 40266 52011=
0089010090999992016011102004+80650+025000FM-12+000599999V0201601N006019999999N999999999-00661+99999102771ADDMA1999999102701MD1310101+9999REMSYN04801009 46/// /1606 11066 2//// 30270 40277 53010=
0089010090999992016011104004+80650+025000FM-12+000599999V0201801N006019999999N999999999-00651+99999102801ADDMA1999999102731MD1210051+9999REMSYN04801009 46/// /1806 11065 2//// 30273 40280 52005=
0089010090999992016011105004+80650+025000FM-12+000599999V0201801N007019999999N999999999-00661+99999102811ADDMA1999999102741MD1210041+9999REMSYN04801009 46/// /1807 11066 2//// 30274 40281 52004=
0089010090999992016011106004+80650+025000FM-12+000599999V0201701N006019999999N999999999-00671+99999102881ADDMA1999999102811MD1110101+9999REMSYN04801009 46/// /1706 11067 2//// 30281 40288 51010=
0089010090999992016011107004+80650+025000FM-12+000599999V0201801N006019999999N999999999-00681+99999102921ADDMA1999999102851MD1210121+9999REMSYN04801009 46/// /1806 11068 2//// 30285 40292 52012=
0089010090999992016011108004+80650+025000FM-12+000599999V0201701N006019999999N999999999-00671+99999102951ADDMA1999999102881MD1310141+9999REMSYN04801009 46/// /1706 11067 2//// 30288 40295 53014=
0089010090999992016011109004+80650+025000FM-12+000599999V0201601N007019999999N999999999-00641+99999102991ADDMA1999999102921MD1210111+9999REMSYN04801009 46/// /1607 11064 2//// 30292 40299 52011=
0089010090999992016011110004+80650+025000FM-12+000599999V0201601N009019999999N999999999-00651+99999103011ADDMA1999999102931MD1210091+9999REMSYN04801009 46/// /1609 11065 2//// 30293 40301 52009=
0089010090999992016011111004+80650+025000FM-12+000599999V0201601N007019999999N999999999-00661+99999103021ADDMA1999999102951MD1210071+9999REMSYN04801009 46/// /1607 11066 2//// 30295 40302 52007=
0113010090999992016011112004+80650+025000FM-12+000599999V0201801N004019999999N999999999-00691+99999103071ADDMA1999999103001MD1110081+9999OD139901201999REMSYN05801009 46/// /1804 11069 2//// 30300 40307 51008 333 91112=
0089010090999992016011113004+80650+025000FM-12+000599999V0201801N005019999999N999999999-00701+99999103111ADDMA1999999103041MD1210101+9999REMSYN04801009 46/// /1805 11070 2//// 30304 40311 52010=
0089010090999992016011114004+80650+025000FM-12+000599999V0201901N003019999999N999999999-00681+99999103131ADDMA1999999103061MD1310111+9999REMSYN04801009 46/// /1903 11068 2//// 30306 40313 53011=
0089010090999992016011115004+80650+025000FM-12+000599999V0201901N004019999999N999999999-00671+99999103161ADDMA1999999103081MD1210081+9999REMSYN04801009 46/// /1904 11067 2//// 30308 40316 52008=
0089010090999992016011116004+80650+025000FM-12+000599999V0201801N003019999999N999999999-00691+99999103181ADDMA1999999103111MD1210071+9999REMSYN04801009 46/// /1803 11069 2//// 30311 40318 52007=
0089010090999992016011117004+80650+025000FM-12+000599999V0201901N004019999999N999999999-00711+99999103201ADDMA1999999103131MD1210071+9999REMSYN04801009 46/// /1904 11071 2//// 30313 40320 52007=
0132010090999992016011118004+80650+025000FM-12+000599999V0202101N003019999999N999999999-00691+99999103241ADDKA1120M-00601MA1999999103161MD1210081+9999OD139900601999REMSYN06401009 46/// /2103 11069 2//// 30316 40324 52008 333 11060 91106=
0089010090999992016011119004+80650+025000FM-12+000599999V0202101N004019999999N999999999-00671+99999103281ADDMA1999999103201MD1210101+9999REMSYN04801009 46/// /2104 11067 2//// 30320 40328 52010=
0089010090999992016011120004+80650+025000FM-12+000599999V0202101N003019999999N999999999-00671+99999103311ADDMA1999999103231MD1210101+9999REMSYN04801009 46/// /2103 11067 2//// 30323 40331 52010=
0089010090999992016011121004+80650+025000FM-12+000599999V0202101N003019999999N999999999-00661+99999103341ADDMA1999999103271MD1210111+9999REMSYN04801009 46/// /2103 11066 2//// 30327 40334 52011=
0089010090999992016011122004+80650+025000FM-12+000599999V0202201N003019999999N999999999-00631+99999103361ADDMA1999999103291MD1210091+9999REMSYN04801009 46/// /2203 11063 2//// 30329 40336 52009=
0089010090999992016011123004+80650+025000FM-12+000599999V0202401N002019999999N999999999-00641+99999103371ADDMA1999999103301MD1210071+9999REMSYN04801009 46/// /2402 11064 2//// 30330 40337 52007=
0113010090999992016011200004+80650+025000FM-12+000599999V0202301N002019999999N999999999-00641+99999103381ADDMA1999999103301MD1210031+9999OD139900501999REMSYN05801009 46/// /2302 11064 2//// 30330 40338 52003 333 91105=
0089010090999992016011201004+80650+025000FM-12+000599999V0202301N002019999999N999999999-00631+99999103411ADDMA1999999103341MD1210041+9999REMSYN04801009 46/// /2302 11063 2//// 30334 40341 52004=
0089010090999992016011202004+80650+025000FM-12+000599999V0202201N001019999999N999999999-00661+99999103421ADDMA1999999103351MD1210051+9999REMSYN04801009 46/// /2201 11066 2//// 30335 40342 52005=
0089010090999992016011203004+80650+025000FM-12+000599999V0202101N001019999999N999999999-00681+99999103421ADDMA1999999103341MD1310041+9999REMSYN04801009 46/// /2101 11068 2//// 30334 40342 53004=
0108010090999992016011204004+80650+025000FM-12+000599999V0202001N002019999999N999999999-00641+99999103421ADDMA1999999103351MD1290019+9999REMSYN04801009 46/// /2002 11064 2//// 30335 40342 54002=EQDQ01.2    3APC3  
0089010090999992016011205004+80650+025000FM-12+000599999V0201801N001019999999N999999999-00641+99999103421ADDMA1999999103351MD1410001+9999REMSYN04801009 46/// /1801 11064 2//// 30335 40342 54000=
0151010090999992016011206004+80650+025000FM-12+000599999V0209999C999999999999N999999999-00661+99999103441ADDKA1240N-00731MA1999999103371MD1290029+9999OD139900401999REMSYN06401009 46/// /0000 11066 2//// 30337 40344 54003 333 21073 91104=EQDQ01.3    3APC3  
0108010090999992016011207004+80650+025000FM-12+000599999V0200801N001019999999N999999999-00621+99999103451ADDMA1999999103381MD1290039+9999REMSYN04801009 46/// /0801 11062 2//// 30338 40345 54003=EQDQ01.3    3APC3  
0089010090999992016011208004+80650+025000FM-12+000599999V0200301N001019999999N999999999-00651+99999103451ADDMA1999999103381MD1210031+9999REMSYN04801009 46/// /0301 11065 2//// 30338 40345 52003=
0089010090999992016011209004+80650+025000FM-12+000599999V0200201N001019999999N999999999-00621+99999103451ADDMA1999999103371MD1410001+9999REMSYN04801009 46/// /0201 11062 2//// 30337 40345 54000=
0090010090999992016011210004+80653+025008FM-12+000599999V0200751N0010199999999999999999-00591+99999103431ADDKA1010M-00591KA2010N-00671MA1999999103361MD1790029+9999REMSYN004BUFREQDQ01.2    3APC3  
0089010090999992016011211004+80650+025000FM-12+000599999V0200501N001019999999N999999999-00591+99999103401ADDMA1999999103331MD1710051+9999REMSYN04801009 46/// /0501 11059 2//// 30333 40340 57005=
0113010090999992016011212004+80650+025000FM-12+000599999V0200801N001019999999N999999999-00601+99999103381ADDMA1999999103311MD1710071+9999OD139900301999REMSYN05801009 46/// /0801 11060 2//// 30331 40338 57007 333 91103=
0089010090999992016011213004+80650+025000FM-12+000599999V0209999C999999999999N999999999-00611+99999103341ADDMA1999999103261MD1710101+9999REMSYN04801009 46/// /0000 11061 2//// 30326 40334 57010=
0089010090999992016011214004+80650+025000FM-12+000599999V0203601N001019999999N999999999-00591+99999103281ADDMA1999999103211MD1610121+9999REMSYN04801009 46/// /3601 11059 2//// 30321 40328 56012=
0089010090999992016011215004+80650+025000FM-12+000599999V0203401N002019999999N999999999-00581+99999103241ADDMA1999999103171MD1710141+9999REMSYN04801009 46/// /3402 11058 2//// 30317 40324 57014=
0089010090999992016011216004+80650+025000FM-12+000599999V0203601N002019999999N999999999-00581+99999103171ADDMA1999999103101MD1710161+9999REMSYN04801009 46/// /3602 11058 2//// 30310 40317 57016=
0089010090999992016011217004+80650+025000FM-12+000599999V0203501N002019999999N999999999-00581+99999103081ADDMA1999999103011MD1610201+9999REMSYN04801009 46/// /3502 11058 2//// 30301 40308 56020=
0132010090999992016011218004+80650+025000FM-12+000599999V0203401N002019999999N999999999-00571+99999103001ADDKA1120M-00561MA1999999102931MD1710241+9999OD139900301999REMSYN06401009 46/// /3402 11057 2//// 30293 40300 57024 333 11056 91103=
0089010090999992016011219004+80650+025000FM-12+000599999V0203101N003019999999N999999999-00531+99999102901ADDMA1999999102821MD1710281+9999REMSYN04801009 46/// /3103 11053 2//// 30282 40290 57028=
0089010090999992016011220004+80650+025000FM-12+000599999V0203301N002019999999N999999999-00511+99999102801ADDMA1999999102731MD1710281+9999REMSYN04801009 46/// /3302 11051 2//// 30273 40280 57028=
0089010090999992016011221004+80650+025000FM-12+000599999V0203401N003019999999N999999999-00531+99999102681ADDMA1999999102611MD1710321+9999REMSYN04801009 46/// /3403 11053 2//// 30261 40268 57032=
0089010090999992016011222004+80650+025000FM-12+000599999V0203501N005019999999N999999999-00491+99999102541ADDMA1999999102471MD1610361+9999REMSYN04801009 46/// /3505 11049 2//// 30247 40254 56036=
0089010090999992016011223004+80650+025000FM-12+000599999V0200101N006019999999N999999999-00441+99999102431ADDMA1999999102361MD1710361+9999REMSYN04801009 46/// /0106 11044 2//// 30236 40243 57036=
0113010090999992016011300004+80650+025000FM-12+000599999V0200201N008019999999N999999999-00611+99999102341ADDMA1999999102271MD1810341+9999OD139901001999REMSYN05801009 46/// /0208 11061 2//// 30227 40234 58034 333 91110=
0089010090999992016011301004+80650+025000FM-12+000599999V0203501N006019999999N999999999-00631+99999102241ADDMA1999999102171MD1710301+9999REMSYN04801009 46/// /3506 11063 2//// 30217 40224 57030=
0089010090999992016011302004+80650+025000FM-12+000599999V0203501N007019999999N999999999-00671+99999102171ADDMA1999999102101MD1710261+9999REMSYN04801009 46/// /3507 11067 2//// 30210 40217 57026=
0089010090999992016011303004+80650+025000FM-12+000599999V0203401N008019999999N999999999-00761+99999102101ADDMA1999999102031MD1710251+9999REMSYN04801009 46/// /3408 11076 2//// 30203 40210 57025=
0089010090999992016011304004+80650+025000FM-12+000599999V0203401N010019999999N999999999-00821+99999102041ADDMA1999999101961MD1710201+9999REMSYN04801009 46/// /3410 11082 2//// 30196 40204 57020=
0089010090999992016011305004+80650+025000FM-12+000599999V0203401N010019999999N999999999-00841+99999101961ADDMA1999999101891MD1710211+9999REMSYN04801009 46/// /3410 11084 2//// 30189 40196 57021=
0132010090999992016011306004+80650+025000FM-12+000599999V0203401N009019999999N999999999-00861+99999101921ADDKA1240N-00871MA1999999101851MD1710181+9999OD139901601999REMSYN06401009 46/// /3409 11086 2//// 30185 40192 57018 333 21087 91116=
0089010090999992016011307004+80650+025000FM-12+000599999V0203401N010019999999N999999999-00861+99999101891ADDMA1999999101821MD1810141+9999REMSYN04801009 46/// /3410 11086 2//// 30182 40189 58014=
0089010090999992016011308004+80650+025000FM-12+000599999V0203401N010019999999N999999999-00931+99999101871ADDMA1999999101791MD1710101+9999REMSYN04801009 46/// /3410 11093 2//// 30179 40187 57010=
0089010090999992016011309004+80650+025000FM-12+000599999V0203401N010019999999N999999999-00931+99999101821ADDMA1999999101751MD1710091+9999REMSYN04801009 46/// /3410 11093 2//// 30175 40182 57009=
0089010090999992016011310004+80650+025000FM-12+000599999V0203201N010019999999N999999999-00931+99999101771ADDMA1999999101701MD1710121+9999REMSYN04801009 46/// /3210 11093 2//// 30170 40177 57012=
0089010090999992016011311004+80650+025000FM-12+000599999V0203201N011019999999N999999999-00951+99999101701ADDMA1999999101631MD1710161+9999REMSYN04801009 46/// /3211 11095 2//// 30163 40170 57016=
0085010090999992016011312004+80653+025008FM-12+000599999V0203121N0107199999999999999999-00891+99999101621ADDKA1010M-00891KA2010N-00951MA1999999101551MD1610211+9999OD130601421999REMSYN004BUFR
0085010090999992016011313004+80653+025008FM-12+000599999V0203121N0113199999999999999999-00901+99999101561ADDKA1010M-00881KA2010N-00941MA1999999101491MD1710211+9999OD130101501999REMSYN004BUFR
0085010090999992016011314004+80653+025008FM-12+000599999V0203131N0115199999999999999999-00841+99999101491ADDKA1010M-00841KA2010N-00891MA1999999101411MD1710221+9999OD130101391999REMSYN004BUFR
0089010090999992016011315004+80650+025000FM-12+000599999V0203101N014019999999N999999999-00841+99999101421ADDMA1999999101351MD1710191+9999REMSYN04801009 46/// /3114 11084 2//// 30135 40142 57019=
0089010090999992016011316004+80650+025000FM-12+000599999V0203101N014019999999N999999999-00831+99999101371ADDMA1999999101301MD1710191+9999REMSYN04801009 46/// /3114 11083 2//// 30130 40137 57019=
0089010090999992016011317004+80650+025000FM-12+000599999V0203101N014019999999N999999999-00831+99999101301ADDMA1999999101231MD1710191+9999REMSYN04801009 46/// /3114 11083 2//// 30123 40130 57019=
0132010090999992016011318004+80650+025000FM-12+000599999V0203001N014019999999N999999999-00861+99999101221ADDKA1120M-00791MA1999999101151MD1710201+9999OD139901701999REMSYN06401009 46/// /3014 11086 2//// 30115 40122 57020 333 11079 91117=
0089010090999992016011319004+80650+025000FM-12+000599999V0203001N014019999999N999999999-00831+99999101131ADDMA1999999101061MD1710251+9999REMSYN04801009 46/// /3014 11083 2//// 30106 40113 57025=
0089010090999992016011320004+80650+025000FM-12+000599999V0203101N015019999999N999999999-00871+99999101091ADDMA1999999101021MD1810211+9999REMSYN04801009 46/// /3115 11087 2//// 30102 40109 58021=
0089010090999992016011321004+80650+025000FM-12+000599999V0203101N014019999999N999999999-00991+99999101061ADDMA1999999100991MD1810161+9999REMSYN04801009 46/// /3114 11099 2//// 30099 40106 58016=
0089010090999992016011322004+80650+025000FM-12+000599999V0203101N014019999999N999999999-01051+99999101031ADDMA1999999100961MD1710101+9999REMSYN04801009 46/// /3114 11105 2//// 30096 40103 57010=
0089010090999992016011323004+80650+025000FM-12+000599999V0203101N013019999999N999999999-01061+99999101001ADDMA1999999100921MD1710091+9999REMSYN04801009 46/// /3113 11106 2//// 30092 40100 57009=
0113010090999992016011400004+80650+025000FM-12+000599999V0203101N013019999999N999999999-01121+99999100971ADDMA1999999100901MD1710091+9999OD139901701999REMSYN05801009 46/// /3113 11112 2//// 30090 40097 57009 333 91117=
0089010090999992016011401004+80650+025000FM-12+000599999V0203101N012019999999N999999999-01161+99999100941ADDMA1999999100871MD1710091+9999REMSYN04801009 46/// /3112 11116 2//// 30087 40094 57009=
0089010090999992016011402004+80650+025000FM-12+000599999V0203001N011019999999N999999999-01141+99999100921ADDMA1999999100851MD1710081+9999REMSYN04801009 46/// /3011 11114 2//// 30085 40092 57008=
0089010090999992016011403004+80650+025000FM-12+000599999V0203101N010019999999N999999999-01161+99999100901ADDMA1999999100821MD1710071+9999REMSYN04801009 46/// /3110 11116 2//// 30082 40090 57007=
0089010090999992016011404004+80650+025000FM-12+000599999V0203201N009019999999N999999999-01221+99999100841ADDMA1999999100771MD1610101+9999REMSYN04801009 46/// /3209 11122 2//// 30077 40084 56010=
0089010090999992016011405004+80650+025000FM-12+000599999V0203101N008019999999N999999999-01211+99999100821ADDMA1999999100751MD1710101+9999REMSYN04801009 46/// /3108 11121 2//// 30075 40082 57010=
0132010090999992016011406004+80650+025000FM-12+000599999V0203101N008019999999N999999999-01211+99999100781ADDKA1240N-01251MA1999999100711MD1710111+9999OD139901601999REMSYN06401009 46/// /3108 11121 2//// 30071 40078 57011 333 21125 91116=
0089010090999992016011407004+80650+025000FM-12+000599999V0203101N008019999999N999999999-01221+99999100831ADDMA1999999100761MD1990011+9999REMSYN04801009 46/// /3108 11122 2//// 30076 40083 50001=
0089010090999992016011408004+80650+025000FM-12+000599999V0203101N008019999999N999999999-01271+99999100881ADDMA1999999100801MD1990061+9999REMSYN04801009 46/// /3108 11127 2//// 30080 40088 50006=
0089010090999992016011409004+80650+025000FM-12+000599999V0203101N007019999999N999999999-01291+99999100931ADDMA1999999100851MD1210141+9999REMSYN04801009 46/// /3107 11129 2//// 30085 40093 52014=
0089010090999992016011410004+80650+025000FM-12+000599999V0203201N007019999999N999999999-01321+99999100961ADDMA1999999100891MD1210131+9999REMSYN04801009 46/// /3207 11132 2//// 30089 40096 52013=
0089010090999992016011411004+80650+025000FM-12+000599999V0203301N005019999999N999999999-01311+99999100951ADDMA1999999100881MD1310081+9999REMSYN04801009 46/// /3305 11131 2//// 30088 40095 53008=
0113010090999992016011412004+80650+025000FM-12+000599999V0203201N003019999999N999999999-01311+99999100981ADDMA1999999100901MD1210051+9999OD139901101999REMSYN05801009 46/// /3203 11131 2//// 30090 40098 52005 333 91111=
0108010090999992016011413004+80650+025000FM-12+000599999V0203001N002019999999N999999999-01281+99999100981ADDMA1999999100911MD1290029+9999REMSYN04801009 46/// /3002 11128 2//// 30091 40098 54002=EQDQ01.2    3APC3  
0089010090999992016011414004+80650+025000FM-12+000599999V0203001N001019999999N999999999-01281+99999100991ADDMA1999999100921MD1210041+9999REMSYN04801009 46/// /3001 11128 2//// 30092 40099 52004=
0108010090999992016011415004+80650+025000FM-12+000599999V0209999C999999999999N999999999-01251+99999100991ADDMA1999999100921MD1290019+9999REMSYN04801009 46/// /0000 11125 2//// 30092 40099 54002=EQDQ01.2    3APC3  
0108010090999992016011416004+80650+025000FM-12+000599999V0209999C999999999999N999999999-01191+99999100991ADDMA1999999100921MD1290019+9999REMSYN04801009 46/// /0000 11119 2//// 30092 40099 54001=EQDQ01.1    3APC3  
0108010090999992016011417004+80650+025000FM-12+000599999V0203501N001019999999N999999999-01151+99999101011ADDMA1999999100941MD1290029+9999REMSYN04801009 46/// /3501 11115 2//// 30094 40101 54002=EQDQ01.2    3APC3  
0151010090999992016011418004+80650+025000FM-12+000599999V0200301N002019999999N999999999-01121+99999101011ADDKA1120M-01111MA1999999100941MD1290029+9999OD139900401999REMSYN06401009 46/// /0302 11112 2//// 30094 40101 54002 333 11111 91104=EQDQ01.2    3APC3  
0089010090999992016011419004+80650+025000FM-12+000599999V0200601N002019999999N999999999-01051+99999101031ADDMA1999999100951MD1210031+9999REMSYN04801009 46/// /0602 11105 2//// 30095 40103 52003=
0089010090999992016011420004+80650+025000FM-12+000599999V0203501N001019999999N999999999-01031+99999101061ADDMA1999999100991MD1110051+9999REMSYN04801009 46/// /3501 11103 2//// 30099 40106 51005=
0089010090999992016011421004+80650+025000FM-12+000599999V0200201N003019999999N999999999-00981+99999101121ADDMA1999999101041MD1110111+9999REMSYN04801009 46/// /0203 11098 2//// 30104 40112 51011=
0089010090999992016011422004+80650+025000FM-12+000599999V0200101N004019999999N999999999-00941+99999101161ADDMA1999999101091MD1210131+9999REMSYN04801009 46/// /0104 11094 2//// 30109 40116 52013=
0089010090999992016011423004+80650+025000FM-12+000599999V0200101N009019999999N999999999-00931+99999101181ADDMA1999999101111MD1310121+9999REMSYN04801009 46/// /0109 11093 2//// 30111 40118 53012=
0113010090999992016011500004+80650+025000FM-12+000599999V0200101N010019999999N999999999-01001+99999101251ADDMA1999999101181MD1210131+9999OD139901101999REMSYN05801009 46/// /0110 11100 2//// 30118 40125 52013 333 91111=
0089010090999992016011501004+80650+025000FM-12+000599999V0200101N010019999999N999999999-01061+99999101311ADDMA1999999101241MD1110151+9999REMSYN04801009 46/// /0110 11106 2//// 30124 40131 51015=
0089010090999992016011502004+80650+025000FM-12+000599999V0200201N008019999999N999999999-01071+99999101381ADDMA1999999101311MD1210211+9999REMSYN04801009 46/// /0208 11107 2//// 30131 40138 52021=
0089010090999992016011503004+80650+025000FM-12+000599999V0200101N008019999999N999999999-01101+99999101441ADDMA1999999101371MD1210191+9999REMSYN04801009 46/// /0108 11110 2//// 30137 40144 52019=
0089010090999992016011504004+80650+025000FM-12+000599999V0200201N006019999999N999999999-01141+99999101511ADDMA1999999101441MD1210201+9999REMSYN04801009 46/// /0206 11114 2//// 30144 40151 52020=
0089010090999992016011505004+80650+025000FM-12+000599999V0200201N005019999999N999999999-01121+99999101601ADDMA1999999101521MD1210211+9999REMSYN04801009 46/// /0205 11112 2//// 30152 40160 52021=
0132010090999992016011506004+80650+025000FM-12+000599999V0203401N005019999999N999999999-01161+99999101641ADDKA1240N-01161MA1999999101571MD1210191+9999OD139901401999REMSYN06401009 46/// /3405 11116 2//// 30157 40164 52019 333 21116 91114=
0089010090999992016011507004+80650+025000FM-12+000599999V0200201N005019999999N999999999-01121+99999101721ADDMA1999999101641MD1210211+9999REMSYN04801009 46/// /0205 11112 2//// 30164 40172 52021=
0089010090999992016011508004+80650+025000FM-12+000599999V0200201N006019999999N999999999-01091+99999101751ADDMA1999999101681MD1210161+9999REMSYN04801009 46/// /0206 11109 2//// 30168 40175 52016=
0089010090999992016011509004+80650+025000FM-12+000599999V0200401N005019999999N999999999-01071+99999101851ADDMA1999999101781MD1210211+9999REMSYN04801009 46/// /0405 11107 2//// 30178 40185 52021=
0089010090999992016011510004+80650+025000FM-12+000599999V0200401N005019999999N999999999-01081+99999101881ADDMA1999999101811MD1210171+9999REMSYN04801009 46/// /0405 11108 2//// 30181 40188 52017=
0089010090999992016011511004+80650+025000FM-12+000599999V0200601N005019999999N999999999-01041+99999101911ADDMA1999999101841MD1310161+9999REMSYN04801009 46/// /0605 11104 2//// 30184 40191 53016=
0113010090999992016011512004+80650+025000FM-12+000599999V0200701N006019999999N999999999-00991+99999101931ADDMA1999999101851MD1210081+9999OD139900801999REMSYN05801009 46/// /0706 11099 2//// 30185 40193 52008 333 91108=
0089010090999992016011513004+80650+025000FM-12+000599999V0200701N007019999999N999999999-00941+99999101951ADDMA1999999101881MD1210071+9999REMSYN04801009 46/// /0707 11094 2//// 30188 40195 52007=
0089010090999992016011514004+80650+025000FM-12+000599999V0200901N007019999999N999999999-00891+99999101971ADDMA1999999101901MD1210061+9999REMSYN04801009 46/// /0907 11089 2//// 30190 40197 52006=
0089010090999992016011515004+80650+025000FM-12+000599999V0200901N009019999999N999999999-00851+99999101991ADDMA1999999101911MD1210061+9999REMSYN04801009 46/// /0909 11085 2//// 30191 40199 52006=
0089010090999992016011516004+80650+025000FM-12+000599999V0200901N009019999999N999999999-00741+99999101991ADDMA1999999101921MD1210041+9999REMSYN04801009 46/// /0909 11074 2//// 30192 40199 52004=
0089010090999992016011517004+80650+025000FM-12+000599999V0201201N009019999999N999999999-00681+99999101981ADDMA1999999101911MD1510011+9999REMSYN04801009 46/// /1209 11068 2//// 30191 40198 55001=
0132010090999992016011518004+80650+025000FM-12+000599999V0201101N009019999999N999999999-00591+99999101961ADDKA1120M-00581MA1999999101891MD1510031+9999OD139901201999REMSYN06401009 46/// /1109 11059 2//// 30189 40196 55003 333 11058 91112=
0108010090999992016011519004+80650+025000FM-12+000599999V0201201N009019999999N999999999-00571+99999101971ADDMA1999999101901MD1790029+9999REMSYN04801009 46/// /1209 11057 2//// 30190 40197 54002=EQDQ01.2    3APC3  
0108010090999992016011520004+80650+025000FM-12+000599999V0201201N012019999999N999999999-00551+99999101971ADDMA1999999101901MD1790019+9999REMSYN04801009 46/// /1212 11055 2//// 30190 40197 54001=EQDQ01.1    3APC3  
0089010090999992016011521004+80650+025000FM-12+000599999V0201501N010019999999N999999999-00501+99999102001ADDMA1999999101931MD1210041+9999REMSYN04801009 46/// /1510 11050 2//// 30193 40200 52004=
0108010090999992016011522004+80650+025000FM-12+000599999V0201301N013019999999N999999999-00471+99999101991ADDMA1999999101921MD1290029+9999REMSYN04801009 46/// /1313 11047 2//// 30192 40199 54002=EQDQ01.2    3APC3  
0089010090999992016011523004+80650+025000FM-12+000599999V0201401N012019999999N999999999-00471+99999102021ADDMA1999999101951MD1210061+9999REMSYN04801009 46/// /1412 11047 2//// 30195 40202 52006=
0113010090999992016011600004+80650+025000FM-12+000599999V0201301N012019999999N999999999-00501+99999102031ADDMA1999999101961MD1210031+9999OD139901501999REMSYN05801009 46/// /1312 11050 2//// 30196 40203 52003 333 91115=
0089010090999992016011601004+80650+025000FM-12+000599999V0201301N013019999999N999999999-00441+99999101991ADDMA1999999101921MD1510001+9999REMSYN04801009 46/// /1313 11044 2//// 30192 40199 55000=
0089010090999992016011602004+80650+025000FM-12+000599999V0201401N013019999999N999999999-00401+99999101981ADDMA1999999101911MD1710051+9999REMSYN04801009 46/// /1413 11040 2//// 30191 40198 57005=
0089010090999992016011603004+80650+025000FM-12+000599999V0201401N013019999999N999999999-00371+99999101971ADDMA1999999101901MD1810061+9999REMSYN04801009 46/// /1413 11037 2//// 30190 40197 58006=
0108010090999992016011604004+80650+025000FM-12+000599999V0201401N013019999999N999999999-00361+99999101971ADDMA1999999101891MD1790029+9999REMSYN04801009 46/// /1413 11036 2//// 30189 40197 54002=EQDQ01.2    3APC3  
0108010090999992016011605004+80650+025000FM-12+000599999V0201401N013019999999N999999999-00301+99999101951ADDMA1999999101881MD1790039+9999REMSYN04801009 46/// /1413 11030 2//// 30188 40195 54003=EQDQ01.3    3APC3  
0132010090999992016011606004+80650+025000FM-12+000599999V0201401N013019999999N999999999-00261+99999101941ADDKA1240N-00631MA1999999101871MD1710031+9999OD139901601999REMSYN06401009 46/// /1413 11026 2//// 30187 40194 57003 333 21063 91116=
0108010090999992016011607004+80650+025000FM-12+000599999V0201501N014019999999N999999999-00231+99999101941ADDMA1999999101871MD1790039+9999REMSYN04801009 46/// /1514 11023 2//// 30187 40194 54003=EQDQ01.3    3APC3  
0089010090999992016011608004+80650+025000FM-12+000599999V0201501N015019999999N999999999-00231+99999102001ADDMA1999999101931MD1110051+9999REMSYN04801009 46/// /1515 11023 2//// 30193 40200 51005=
0089010090999992016011609004+80650+025000FM-12+000599999V0201501N013019999999N999999999-00241+99999102061ADDMA1999999101991MD1110131+9999REMSYN04801009 46/// /1513 11024 2//// 30199 40206 51013=
0089010090999992016011610004+80650+025000FM-12+000599999V0201501N014019999999N999999999-00241+99999102071ADDMA1999999102001MD1310131+9999REMSYN04801009 46/// /1514 11024 2//// 30200 40207 53013=
0089010090999992016011611004+80650+025000FM-12+000599999V0201501N013019999999N999999999-00261+99999102121ADDMA1999999102051MD1210121+9999REMSYN04801009 46/// /1513 11026 2//// 30205 40212 52012=
0113010090999992016011612004+80650+025000FM-12+000599999V0201501N013019999999N999999999-00261+99999102151ADDMA1999999102081MD1210091+9999OD139901701999REMSYN05801009 46/// /1513 11026 2//// 30208 40215 52009 333 91117=
0089010090999992016011613004+80650+025000FM-12+000599999V0201501N013019999999N999999999-00271+99999102161ADDMA1999999102091MD1310091+9999REMSYN04801009 46/// /1513 11027 2//// 30209 40216 53009=
0089010090999992016011614004+80650+025000FM-12+000599999V0201501N013019999999N999999999-00271+99999102201ADDMA1999999102131MD1210081+9999REMSYN04801009 46/// /1513 11027 2//// 30213 40220 52008=
0089010090999992016011615004+80650+025000FM-12+000599999V0201601N013019999999N999999999-00281+99999102211ADDMA1999999102141MD1210061+9999REMSYN04801009 46/// /1613 11028 2//// 30214 40221 52006=
0089010090999992016011616004+80650+025000FM-12+000599999V0201601N013019999999N999999999-00261+99999102231ADDMA1999999102161MD1210071+9999REMSYN04801009 46/// /1613 11026 2//// 30216 40223 52007=
0108010090999992016011617004+80650+025000FM-12+000599999V0201501N013019999999N999999999-00251+99999102231ADDMA1999999102161MD1290039+9999REMSYN04801009 46/// /1513 11025 2//// 30216 40223 54003=EQDQ01.3    3APC3  
0132010090999992016011618004+80650+025000FM-12+000599999V0201501N013019999999N999999999-00291+99999102191ADDKA1120M-00201MA1999999102121MD1510021+9999OD139901701999REMSYN06401009 46/// /1513 11029 2//// 30212 40219 55002 333 11020 91117=
0089010090999992016011619004+80650+025000FM-12+000599999V0201501N014019999999N999999999-00281+99999102161ADDMA1999999102091MD1710071+9999REMSYN04801009 46/// /1514 11028 2//// 30209 40216 57007=
0089010090999992016011620004+80650+025000FM-12+000599999V0201401N014019999999N999999999-00271+99999102181ADDMA1999999102111MD1810051+9999REMSYN04801009 46/// /1414 11027 2//// 30211 40218 58005=
0089010090999992016011621004+80650+025000FM-12+000599999V0201401N012019999999N999999999-00261+99999102221ADDMA1999999102151MD1990031+9999REMSYN04801009 46/// /1412 11026 2//// 30215 40222 50003=
0089010090999992016011622004+80650+025000FM-12+000599999V0201501N011019999999N999999999-00281+99999102251ADDMA1999999102181MD1210091+9999REMSYN04801009 46/// /1511 11028 2//// 30218 40225 52009=
0089010090999992016011623004+80650+025000FM-12+000599999V0201501N013019999999N999999999-00321+99999102221ADDMA1999999102151MD1310041+9999REMSYN04801009 46/// /1513 11032 2//// 30215 40222 53004=
0113010090999992016011700004+80650+025000FM-12+000599999V0201301N010019999999N999999999-00331+99999102231ADDMA1999999102161MD1410001+9999OD139901601999REMSYN05801009 46/// /1310 11033 2//// 30216 40223 54000 333 91116=
0089010090999992016011701004+80650+025000FM-12+000599999V0201401N014019999999N999999999-00291+99999102111ADDMA1999999102041MD1610151+9999REMSYN04801009 46/// /1414 11029 2//// 30204 40211 56015=
0089010090999992016011702004+80650+025000FM-12+000599999V0201401N010019999999N999999999-00261+99999102171ADDMA1999999102101MD1810051+9999REMSYN04801009 46/// /1410 11026 2//// 30210 40217 58005=
0089010090999992016011703004+80650+025000FM-12+000599999V0201401N012019999999N999999999-00171+99999102101ADDMA1999999102031MD1810131+9999REMSYN04801009 46/// /1412 11017 2//// 30203 40210 58013=
0089010090999992016011704004+80650+025000FM-12+000599999V0201401N010019999999N999999999-00171+99999102101ADDMA1999999102031MD1510011+9999REMSYN04801009 46/// /1410 11017 2//// 30203 40210 55001=
0089010090999992016011705004+80650+025000FM-12+000599999V0201501N008019999999N999999999-00141+99999102101ADDMA1999999102031MD1810071+9999REMSYN04801009 46/// /1508 11014 2//// 30203 40210 58007=
0151010090999992016011706004+80650+025000FM-12+000599999V0201501N007019999999N999999999-00101+99999102081ADDKA1240N-00351MA1999999102011MD1790029+9999OD139901701999REMSYN06401009 46/// /1507 11010 2//// 30201 40208 54002 333 21035 91117=EQDQ01.2    3APC3  
0108010090999992016011707004+80650+025000FM-12+000599999V0201501N009019999999N999999999-00071+99999102071ADDMA1999999102001MD1790039+9999REMSYN04801009 46/// /1509 11007 2//// 30200 40207 54003=EQDQ01.3    3APC3  
0108010090999992016011708004+80650+025000FM-12+000599999V0201401N010019999999N999999999-00111+99999102071ADDMA1999999102001MD1790039+9999REMSYN04801009 46/// /1410 11011 2//// 30200 40207 54002=EQDQ01.2    3APC3  
0108010090999992016011709004+80650+025000FM-12+000599999V0201401N010019999999N999999999-00121+99999102051ADDMA1999999101981MD1790039+9999REMSYN04801009 46/// /1410 11012 2//// 30198 40205 54003=EQDQ01.3    3APC3  
0089010090999992016011710004+80650+025000FM-12+000599999V0201401N012019999999N999999999-00151+99999102031ADDMA1999999101961MD1710041+9999REMSYN04801009 46/// /1412 11015 2//// 30196 40203 57004=
0089010090999992016011711004+80650+025000FM-12+000599999V0201401N011019999999N999999999-00161+99999102031ADDMA1999999101961MD1710041+9999REMSYN04801009 46/// /1411 11016 2//// 30196 40203 57004=
0113010090999992016011712004+80650+025000FM-12+000599999V0201401N012019999999N999999999-00151+99999101991ADDMA1999999101921MD1710061+9999OD139901301999REMSYN05801009 46/// /1412 11015 2//// 30192 40199 57006 333 91113=
0089010090999992016011713004+80650+025000FM-12+000599999V0201401N010019999999N999999999-00181+99999101981ADDMA1999999101911MD1710051+9999REMSYN04801009 46/// /1410 11018 2//// 30191 40198 57005=
0089010090999992016011714004+80650+025000FM-12+000599999V0201401N011019999999N999999999-00181+99999101921ADDMA1999999101851MD1710111+9999REMSYN04801009 46/// /1411 11018 2//// 30185 40192 57011=
0089010090999992016011715004+80650+025000FM-12+000599999V0201401N011019999999N999999999-00201+99999101961ADDMA1999999101891MD1810031+9999REMSYN04801009 46/// /1411 11020 2//// 30189 40196 58003=
0089010090999992016011716004+80650+025000FM-12+000599999V0201401N012019999999N999999999-00211+99999101921ADDMA1999999101851MD1710061+9999REMSYN04801009 46/// /1412 11021 2//// 30185 40192 57006=
0089010090999992016011717004+80650+025000FM-12+000599999V0201301N011019999999N999999999-00221+99999101871ADDMA1999999101801MD1510061+9999REMSYN04801009 46/// /1311 11022 2//// 30180 40187 55006=
0132010090999992016011718004+80650+025000FM-12+000599999V0201301N011019999999N999999999-00201+99999101841ADDKA1120M-00061MA1999999101771MD1710121+9999OD139901401999REMSYN06401009 46/// /1311 11020 2//// 30177 40184 57012 333 11006 91114=
0089010090999992016011719004+80650+025000FM-12+000599999V0201401N011019999999N999999999-00171+99999101841ADDMA1999999101771MD1810081+9999REMSYN04801009 46/// /1411 11017 2//// 30177 40184 58008=
0089010090999992016011720004+80650+025000FM-12+000599999V0201501N011019999999N999999999-00151+99999101821ADDMA1999999101751MD1710041+9999REMSYN04801009 46/// /1511 11015 2//// 30175 40182 57004=
0108010090999992016011721004+80650+025000FM-12+000599999V0201501N011019999999N999999999-00141+99999101831ADDMA1999999101761MD1790019+9999REMSYN04801009 46/// /1511 11014 2//// 30176 40183 54002=EQDQ01.2    3APC3  
0108010090999992016011722004+80650+025000FM-12+000599999V0201401N011019999999N999999999-00161+99999101821ADDMA1999999101751MD1790029+9999REMSYN04801009 46/// /1411 11016 2//// 30175 40182 54001=EQDQ01.1    3APC3  
0089010090999992016011723004+80650+025000FM-12+000599999V0201401N011019999999N999999999-00171+99999101761ADDMA1999999101691MD1610061+9999REMSYN04801009 46/// /1411 11017 2//// 30169 40176 56006=
0113010090999992016011800004+80650+025000FM-12+000599999V0201301N008019999999N999999999-00151+99999101781ADDMA1999999101711MD1710051+9999OD139901301999REMSYN05801009 46/// /1308 11015 2//// 30171 40178 57005 333 91113=
0089010090999992016011801004+80650+025000FM-12+000599999V0201501N009019999999N999999999-00131+99999101741ADDMA1999999101671MD1710081+9999REMSYN04801009 46/// /1509 11013 2//// 30167 40174 57008=
0089010090999992016011802004+80650+025000FM-12+000599999V0201401N013019999999N999999999-00161+99999101681ADDMA1999999101611MD1610081+9999REMSYN04801009 46/// /1413 11016 2//// 30161 40168 56008=
0089010090999992016011803004+80650+025000FM-12+000599999V0201401N012019999999N999999999-00171+99999101651ADDMA1999999101581MD1710131+9999REMSYN04801009 46/// /1412 11017 2//// 30158 40165 57013=
0089010090999992016011804004+80650+025000FM-12+000599999V0201401N011019999999N999999999-00171+99999101631ADDMA1999999101561MD1810111+9999REMSYN04801009 46/// /1411 11017 2//// 30156 40163 58011=
0089010090999992016011805004+80650+025000FM-12+000599999V0201401N011019999999N999999999-00171+99999101601ADDMA1999999101531MD1710081+9999REMSYN04801009 46/// /1411 11017 2//// 30153 40160 57008=
0132010090999992016011806004+80650+025000FM-12+000599999V0201401N011019999999N999999999-00161+99999101571ADDKA1240N-00211MA1999999101501MD1710071+9999OD139901401999REMSYN06401009 46/// /1411 11016 2//// 30150 40157 57007 333 21021 91114=
0089010090999992016011807004+80650+025000FM-12+000599999V0201401N012019999999N999999999-00191+99999101541ADDMA1999999101471MD1710091+9999REMSYN04801009 46/// /1412 11019 2//// 30147 40154 57009=
0089010090999992016011808004+80650+025000FM-12+000599999V0201401N012019999999N999999999-00231+99999101531ADDMA1999999101461MD1710061+9999REMSYN04801009 46/// /1412 11023 2//// 30146 40153 57006=
0089010090999992016011809004+80650+025000FM-12+000599999V0201401N011019999999N999999999-00231+99999101511ADDMA1999999101441MD1710061+9999REMSYN04801009 46/// /1411 11023 2//// 30144 40151 57006=
0089010090999992016011810004+80650+025000FM-12+000599999V0201401N012019999999N999999999-00201+99999101491ADDMA1999999101421MD1710051+9999REMSYN04801009 46/// /1412 11020 2//// 30142 40149 57005=
0089010090999992016011811004+80650+025000FM-12+000599999V0201601N011019999999N999999999-00201+99999101501ADDMA1999999101431MD1810031+9999REMSYN04801009 46/// /1611 11020 2//// 30143 40150 58003=
0113010090999992016011812004+80650+025000FM-12+000599999V0201701N008019999999N999999999-00261+99999101551ADDMA1999999101481MD1110041+9999OD139901401999REMSYN05801009 46/// /1708 11026 2//// 30148 40155 51004 333 91114=
0089010090999992016011813004+80650+025000FM-12+000599999V0201701N011019999999N999999999-00301+99999101541ADDMA1999999101471MD1210051+9999REMSYN04801009 46/// /1711 11030 2//// 30147 40154 52005=
0089010090999992016011814004+80650+025000FM-12+000599999V0201601N010019999999N999999999-00261+99999101541ADDMA1999999101471MD1310041+9999REMSYN04801009 46/// /1610 11026 2//// 30147 40154 53004=
0089010090999992016011815004+80650+025000FM-12+000599999V0201601N012019999999N999999999-00231+99999101481ADDMA1999999101411MD1610071+9999REMSYN04801009 46/// /1612 11023 2//// 30141 40148 56007=
0089010090999992016011816004+80650+025000FM-12+000599999V0201601N014019999999N999999999-00201+99999101441ADDMA1999999101371MD1610101+9999REMSYN04801009 46/// /1614 11020 2//// 30137 40144 56010=
0089010090999992016011817004+80650+025000FM-12+000599999V0201601N014019999999N999999999-00191+99999101421ADDMA1999999101351MD1810121+9999REMSYN04801009 46/// /1614 11019 2//// 30135 40142 58012=
0132010090999992016011818004+80650+025000FM-12+000599999V0201601N012019999999N999999999-00181+99999101431ADDKA1120M-00161MA1999999101361MD1810051+9999OD139901801999REMSYN06401009 46/// /1612 11018 2//// 30136 40143 58005 333 11016 91118=
0089010090999992016011819004+80650+025000FM-12+000599999V0201701N010019999999N999999999-00191+99999101451ADDMA1999999101381MD1990011+9999REMSYN04801009 46/// /1710 11019 2//// 30138 40145 50001=
0108010090999992016011820004+80650+025000FM-12+000599999V0201601N011019999999N999999999-00141+99999101441ADDMA1999999101371MD1290029+9999REMSYN04801009 46/// /1611 11014 2//// 30137 40144 54002=EQDQ01.2    3APC3  
0108010090999992016011821004+80650+025000FM-12+000599999V0201601N012019999999N999999999-00131+99999101441ADDMA1999999101371MD1290019+9999REMSYN04801009 46/// /1612 11013 2//// 30137 40144 54001=EQDQ01.1    3APC3  
0108010090999992016011822004+80650+025000FM-12+000599999V0201601N010019999999N999999999-00131+99999101431ADDMA1999999101361MD1790029+9999REMSYN04801009 46/// /1610 11013 2//// 30136 40143 54002=EQDQ01.2    3APC3  
0108010090999992016011823004+80650+025000FM-12+000599999V0201601N010019999999N999999999-00131+99999101431ADDMA1999999101361MD1790019+9999REMSYN04801009 46/// /1610 11013 2//// 30136 40143 54001=EQDQ01.1    3APC3  
0113010090999992016011900004+80650+025000FM-12+000599999V0201601N010019999999N999999999-00121+99999101411ADDMA1999999101341MD1710031+9999OD139901401999REMSYN05801009 46/// /1610 11012 2//// 30134 40141 57003 333 91114=
0089010090999992016011901004+80650+025000FM-12+000599999V0201601N010019999999N999999999-00161+99999101381ADDMA1999999101311MD1710051+9999REMSYN04801009 46/// /1610 11016 2//// 30131 40138 57005=
0089010090999992016011902004+80650+025000FM-12+000599999V0201801N008019999999N999999999-00231+99999101401ADDMA1999999101331MD1810031+9999REMSYN04801009 46/// /1808 11023 2//// 30133 40140 58003=
0089010090999992016011903004+80650+025000FM-12+000599999V0201801N008019999999N999999999-00151+99999101371ADDMA1999999101301MD1710031+9999REMSYN04801009 46/// /1808 11015 2//// 30130 40137 57003=
0089010090999992016011904004+80650+025000FM-12+000599999V0201601N011019999999N999999999-00131+99999101311ADDMA1999999101241MD1610071+9999REMSYN04801009 46/// /1611 11013 2//// 30124 40131 56007=
0089010090999992016011905004+80650+025000FM-12+000599999V0201501N012019999999N999999999-00151+99999101291ADDMA1999999101221MD1710111+9999REMSYN04801009 46/// /1512 11015 2//// 30122 40129 57011=
0132010090999992016011906004+80650+025000FM-12+000599999V0201601N012019999999N999999999-00161+99999101291ADDKA1240N-00241MA1999999101221MD1810081+9999OD139901401999REMSYN06401009 46/// /1612 11016 2//// 30122 40129 58008 333 21024 91114=
0108010090999992016011907004+80650+025000FM-12+000599999V0201501N010019999999N999999999-00181+99999101291ADDMA1999999101221MD1790029+9999REMSYN04801009 46/// /1510 11018 2//// 30122 40129 54002=EQDQ01.2    3APC3  
0089010090999992016011908004+80650+025000FM-12+000599999V0201701N008019999999N999999999-00201+99999101291ADDMA1999999101221MD1410001+9999REMSYN04801009 46/// /1708 11020 2//// 30122 40129 54000=
0108010090999992016011909004+80650+025000FM-12+000599999V0201601N008019999999N999999999-00211+99999101271ADDMA1999999101201MD1790029+9999REMSYN04801009 46/// /1608 11021 2//// 30120 40127 54002=EQDQ01.2    3APC3  
0089010090999992016011910004+80650+025000FM-12+000599999V0201601N009019999999N999999999-00221+99999101241ADDMA1999999101171MD1710051+9999REMSYN04801009 46/// /1609 11022 2//// 30117 40124 57005=
0089010090999992016011911004+80650+025000FM-12+000599999V0201601N008019999999N999999999-00251+99999101211ADDMA1999999101141MD1710081+9999REMSYN04801009 46/// /1608 11025 2//// 30114 40121 57008=
0113010090999992016011912004+80650+025000FM-12+000599999V0201501N008019999999N999999999-00271+99999101161ADDMA1999999101091MD1710111+9999OD139901201999REMSYN05801009 46/// /1508 11027 2//// 30109 40116 57011 333 91112=
0089010090999992016011913004+80650+025000FM-12+000599999V0201601N008019999999N999999999-00271+99999101131ADDMA1999999101061MD1710111+9999REMSYN04801009 46/// /1608 11027 2//// 30106 40113 57011=
0089010090999992016011914004+80650+025000FM-12+000599999V0201701N006019999999N999999999-00281+99999101111ADDMA1999999101041MD1710101+9999REMSYN04801009 46/// /1706 11028 2//// 30104 40111 57010=
0089010090999992016011915004+80650+025000FM-12+000599999V0201701N007019999999N999999999-00351+99999101081ADDMA1999999101011MD1710081+9999REMSYN04801009 46/// /1707 11035 2//// 30101 40108 57008=
0089010090999992016011916004+80650+025000FM-12+000599999V0201801N008019999999N999999999-00351+99999101041ADDMA1999999100971MD1710101+9999REMSYN04801009 46/// /1808 11035 2//// 30097 40104 57010=
0089010090999992016011917004+80650+025000FM-12+000599999V0201801N008019999999N999999999-00341+99999101001ADDMA1999999100931MD1710111+9999REMSYN04801009 46/// /1808 11034 2//// 30093 40100 57011=
0132010090999992016011918004+80650+025000FM-12+000599999V0201801N007019999999N999999999-00331+99999100941ADDKA1120M-00151MA1999999100871MD1710141+9999OD139901101999REMSYN06401009 46/// /1807 11033 2//// 30087 40094 57014 333 11015 91111=
0089010090999992016011919004+80650+025000FM-12+000599999V0201701N006019999999N999999999-00361+99999100911ADDMA1999999100841MD1710131+9999REMSYN04801009 46/// /1706 11036 2//// 30084 40091 57013=
0089010090999992016011920004+80650+025000FM-12+000599999V0201701N005019999999N999999999-00351+99999100891ADDMA1999999100821MD1810101+9999REMSYN04801009 46/// /1705 11035 2//// 30082 40089 58010=
0089010090999992016011921004+80650+025000FM-12+000599999V0201901N003019999999N999999999-00321+99999100871ADDMA1999999100801MD1710071+9999REMSYN04801009 46/// /1903 11032 2//// 30080 40087 57007=
0089010090999992016011922004+80650+025000FM-12+000599999V0201601N003019999999N999999999-00331+99999100831ADDMA1999999100761MD1710081+9999REMSYN04801009 46/// /1603 11033 2//// 30076 40083 57008=
0089010090999992016011923004+80650+025000FM-12+000599999V0201801N004019999999N999999999-00371+99999100811ADDMA1999999100741MD1710081+9999REMSYN04801009 46/// /1804 11037 2//// 30074 40081 57008=
0113010090999992016012000004+80650+025000FM-12+000599999V0201801N004019999999N999999999-00361+99999100781ADDMA1999999100711MD1710081+9999OD139900801999REMSYN05801009 46/// /1804 11036 2//// 30071 40078 57008 333 91108=
0089010090999992016012001004+80650+025000FM-12+000599999V0201701N003019999999N999999999-00371+99999100751ADDMA1999999100681MD1710081+9999REMSYN04801009 46/// /1703 11037 2//// 30068 40075 57008=
0089010090999992016012002004+80650+025000FM-12+000599999V0201901N003019999999N999999999-00351+99999100721ADDMA1999999100651MD1710091+9999REMSYN04801009 46/// /1903 11035 2//// 30065 40072 57009=
0089010090999992016012003004+80650+025000FM-12+000599999V0202101N006019999999N999999999-00321+99999100701ADDMA1999999100631MD1710091+9999REMSYN04801009 46/// /2106 11032 2//// 30063 40070 57009=
0089010090999992016012004004+80650+025000FM-12+000599999V0202201N005019999999N999999999-00331+99999100661ADDMA1999999100591MD1710091+9999REMSYN04801009 46/// /2205 11033 2//// 30059 40066 57009=
0089010090999992016012005004+80650+025000FM-12+000599999V0202201N004019999999N999999999-00341+99999100641ADDMA1999999100571MD1710071+9999REMSYN04801009 46/// /2204 11034 2//// 30057 40064 57007=
0132010090999992016012006004+80650+025000FM-12+000599999V0202301N002019999999N999999999-00351+99999100641ADDKA1240N-00391MA1999999100571MD1710061+9999OD139900701999REMSYN06401009 46/// /2302 11035 2//// 30057 40064 57006 333 21039 91107=
0089010090999992016012007004+80650+025000FM-12+000599999V0202301N001019999999N999999999-00361+99999100631ADDMA1999999100561MD1710041+9999REMSYN04801009 46/// /2301 11036 2//// 30056 40063 57004=
0108010090999992016012008004+80650+025000FM-12+000599999V0202801N003019999999N999999999-00311+99999100631ADDMA1999999100561MD1790019+9999REMSYN04801009 46/// /2803 11031 2//// 30056 40063 54001=EQDQ01.1    3APC3  
0108010090999992016012009004+80650+025000FM-12+000599999V0202601N002019999999N999999999-00311+99999100651ADDMA1999999100581MD1290019+9999REMSYN04801009 46/// /2602 11031 2//// 30058 40065 54001=EQDQ01.1    3APC3  
0108010090999992016012010004+80650+025000FM-12+000599999V0202401N003019999999N999999999-00321+99999100651ADDMA1999999100581MD1290029+9999REMSYN04801009 46/// /2403 11032 2//// 30058 40065 54002=EQDQ01.2    3APC3  
0089010090999992016012011004+80650+025000FM-12+000599999V0202401N004019999999N999999999-00311+99999100621ADDMA1999999100551MD1510011+9999REMSYN04801009 46/// /2404 11031 2//// 30055 40062 55001=
0113010090999992016012012004+80650+025000FM-12+000599999V0202401N004019999999N999999999-00301+99999100611ADDMA1999999100541MD1710041+9999OD139900501999REMSYN05801009 46/// /2404 11030 2//// 30054 40061 57004 333 91105=
0089010090999992016012013004+80650+025000FM-12+000599999V0202301N005019999999N999999999-00301+99999100601ADDMA1999999100531MD1710051+9999REMSYN04801009 46/// /2305 11030 2//// 30053 40060 57005=
0108010090999992016012014004+80650+025000FM-12+000599999V0202501N006019999999N999999999-00321+99999100601ADDMA1999999100531MD1790029+9999REMSYN04801009 46/// /2506 11032 2//// 30053 40060 54002=EQDQ01.2    3APC3  
0108010090999992016012015004+80650+025000FM-12+000599999V0202501N006019999999N999999999-00291+99999100601ADDMA1999999100531MD1790019+9999REMSYN04801009 46/// /2506 11029 2//// 30053 40060 54001=EQDQ01.1    3APC3  
0089010090999992016012016004+80650+025000FM-12+000599999V0203601N005019999999N999999999-00281+99999100601ADDMA1999999100531MD1410001+9999REMSYN04801009 46/// /3605 11028 2//// 30053 40060 54000=
0089010090999992016012017004+80650+025000FM-12+000599999V0203501N004019999999N999999999-00301+99999100601ADDMA1999999100531MD1410001+9999REMSYN04801009 46/// /3504 11030 2//// 30053 40060 54000=
0151010090999992016012018004+80650+025000FM-12+000599999V0203601N006019999999N999999999-00301+99999100591ADDKA1120M-00281MA1999999100521MD1790019+9999OD139900801999REMSYN06401009 46/// /3606 11030 2//// 30052 40059 54001 333 11028 91108=EQDQ01.1    3APC3  
0108010090999992016012019004+80650+025000FM-12+000599999V0200101N007019999999N999999999-00271+99999100571ADDMA1999999100501MD1790039+9999REMSYN04801009 46/// /0107 11027 2//// 30050 40057 54003=EQDQ01.3    3APC3  
0089010090999992016012020004+80650+025000FM-12+000599999V0200101N006019999999N999999999-00281+99999100561ADDMA1999999100491MD1710041+9999REMSYN04801009 46/// /0106 11028 2//// 30049 40056 57004=
0089010090999992016012021004+80650+025000FM-12+000599999V0200201N007019999999N999999999-00271+99999100551ADDMA1999999100481MD1710041+9999REMSYN04801009 46/// /0207 11027 2//// 30048 40055 57004=
0108010090999992016012022004+80650+025000FM-12+000599999V0200601N005019999999N999999999-00271+99999100561ADDMA1999999100491MD1790019+9999REMSYN04801009 46/// /0605 11027 2//// 30049 40056 54001=EQDQ014     3APCTEN
0108010090999992016012023004+80650+025000FM-12+000599999V0202301N006019999999N999999999-00331+99999100571ADDMA1999999100501MD1290019+9999REMSYN04801009 46/// /2306 11033 2//// 30050 40057 54001=EQDQ01.1    3APC3  
0132010090999992016012100004+80650+025000FM-12+000599999V0202101N004019999999N999999999-00341+99999100561ADDMA1999999100491MD1290019+9999OD139900801999REMSYN05801009 46/// /2104 11034 2//// 30049 40056 54002 333 91108=EQDQ01.2    3APC3  
0108010090999992016012101004+80650+025000FM-12+000599999V0202001N003019999999N999999999-00371+99999100551ADDMA1999999100481MD1790019+9999REMSYN04801009 46/// /2003 11037 2//// 30048 40055 54001=EQDQ01.1    3APC3  
0108010090999992016012102004+80650+025000FM-12+000599999V0202101N004019999999N999999999-00371+99999100551ADDMA1999999100481MD1790029+9999REMSYN04801009 46/// /2104 11037 2//// 30048 40055 54002=EQDQ01.2    3APC3  
0089010090999992016012103004+80650+025000FM-12+000599999V0201901N004019999999N999999999-00451+99999100531ADDMA1999999100461MD1710041+9999REMSYN04801009 46/// /1904 11045 2//// 30046 40053 57004=
0089010090999992016012104004+80650+025000FM-12+000599999V0201601N004019999999N999999999-00441+99999100511ADDMA1999999100441MD1710051+9999REMSYN04801009 46/// /1604 11044 2//// 30044 40051 57005=
0089010090999992016012105004+80650+025000FM-12+000599999V0201701N006019999999N999999999-00411+99999100471ADDMA1999999100401MD1710081+9999REMSYN04801009 46/// /1706 11041 2//// 30040 40047 57008=
0132010090999992016012106004+80650+025000FM-12+000599999V0201601N007019999999N999999999-00411+99999100441ADDKA1240N-00471MA1999999100371MD1710091+9999OD139900801999REMSYN06401009 46/// /1607 11041 2//// 30037 40044 57009 333 21047 91108=
0089010090999992016012107004+80650+025000FM-12+000599999V0201601N006019999999N999999999-00431+99999100441ADDMA1999999100371MD1710071+9999REMSYN04801009 46/// /1606 11043 2//// 30037 40044 57007=
0089010090999992016012108004+80650+025000FM-12+000599999V0201601N006019999999N999999999-00411+99999100441ADDMA1999999100371MD1810041+9999REMSYN04801009 46/// /1606 11041 2//// 30037 40044 58004=
0108010090999992016012109004+80650+025000FM-12+000599999V0201701N004019999999N999999999-00461+99999100411ADDMA1999999100341MD1790039+9999REMSYN04801009 46/// /1704 11046 2//// 30034 40041 54003=EQDQ01.3    3APC3  
0089010090999992016012110004+80650+025000FM-12+000599999V0201601N005019999999N999999999-00431+99999100391ADDMA1999999100321MD1710051+9999REMSYN04801009 46/// /1605 11043 2//// 30032 40039 57005=
0089010090999992016012111004+80650+025000FM-12+000599999V0201801N005019999999N999999999-00511+99999100371ADDMA1999999100301MD1710071+9999REMSYN04801009 46/// /1805 11051 2//// 30030 40037 57007=
0113010090999992016012112004+80650+025000FM-12+000599999V0201901N005019999999N999999999-00551+99999100361ADDMA1999999100291MD1710051+9999OD139900801999REMSYN05801009 46/// /1905 11055 2//// 30029 40036 57005 333 91108=
0089010090999992016012113004+80650+025000FM-12+000599999V0201601N003019999999N999999999-00541+99999100321ADDMA1999999100251MD1710071+9999REMSYN04801009 46/// /1603 11054 2//// 30025 40032 57007=
0089010090999992016012114004+80650+025000FM-12+000599999V0201401N003019999999N999999999-00531+99999100301ADDMA1999999100231MD1710071+9999REMSYN04801009 46/// /1403 11053 2//// 30023 40030 57007=
0089010090999992016012115004+80650+025000FM-12+000599999V0200301N003019999999N999999999-00531+99999100261ADDMA1999999100191MD1710101+9999REMSYN04801009 46/// /0303 11053 2//// 30019 40026 57010=
0089010090999992016012116004+80650+025000FM-12+000599999V0203301N001019999999N999999999-00541+99999100251ADDMA1999999100181MD1710071+9999REMSYN04801009 46/// /3301 11054 2//// 30018 40025 57007=
0089010090999992016012117004+80650+025000FM-12+000599999V0203101N002019999999N999999999-00501+99999100221ADDMA1999999100151MD1710071+9999REMSYN04801009 46/// /3102 11050 2//// 30015 40022 57007=
0132010090999992016012118004+80650+025000FM-12+000599999V0202701N002019999999N999999999-00471+99999100221ADDKA1120M-00381MA1999999100151MD1710041+9999OD139900501999REMSYN06401009 46/// /2702 11047 2//// 30015 40022 57004 333 11038 91105=
0089010090999992016012119004+80650+025000FM-12+000599999V0202601N004019999999N999999999-00431+99999100221ADDMA1999999100151MD1810031+9999REMSYN04801009 46/// /2604 11043 2//// 30015 40022 58003=
0078010090999992016012121004+80653+025008FM-12+000599999V0202421N0078199999999999999999-00541+99999100221ADDMA1999999100151MD1410009+9999OD130100931999REMSYN004BUFREQDQ01.1    3APC3  
0089010090999992016012122004+80650+025000FM-12+000599999V0202501N006019999999N999999999-00551+99999100221ADDMA1999999100151MD1410001+9999REMSYN04801009 46/// /2506 11055 2//// 30015 40022 54000=
0089010090999992016012123004+80650+025000FM-12+000599999V0202601N004019999999N999999999-00541+99999100201ADDMA1999999100131MD1510011+9999REMSYN04801009 46/// /2604 11054 2//// 30013 40020 55001=
0089010090999992016012200004+80650+025000FM-12+000599999V0202301N002019999999N999999999-00551+99999100161ADDMA1999999100091MD1610061+9999REMSYN04801009 46/// /2302 11055 2//// 30009 40016 56006=
0089010090999992016012201004+80650+025000FM-12+000599999V0202001N001019999999N999999999-00571+99999100131ADDMA1999999100061MD1710091+9999REMSYN04801009 46/// /2001 11057 2//// 30006 40013 57009=
0089010090999992016012202004+80650+025000FM-12+000599999V0201701N002019999999N999999999-00581+99999100121ADDMA1999999100051MD1710071+9999REMSYN04801009 46/// /1702 11058 2//// 30005 40012 57007=
0089010090999992016012203004+80650+025000FM-12+000599999V0201401N003019999999N999999999-00521+99999100081ADDMA1999999100011MD1710081+9999REMSYN04801009 46/// /1403 11052 2//// 30001 40008 57008=
0089010090999992016012204004+80650+025000FM-12+000599999V0201401N003019999999N999999999-00511+99999100071ADDMA1999999100001MD1710061+9999REMSYN04801009 46/// /1403 11051 2//// 30000 40007 57006=
0089010090999992016012205004+80650+025000FM-12+000599999V0201101N004019999999N999999999-00481+99999100031ADDMA1999999099961MD1710101+9999REMSYN04801009 46/// /1104 11048 2//// 39996 40003 57010=
0113010090999992016012206004+80650+025000FM-12+000599999V0201001N004019999999N999999999-00431+99999099981ADDMA1999999099911MD1610101+9999OD139900501999REMSYN05801009 46/// /1004 11043 2//// 39991 49998 56010 333 91105=
0089010090999992016012207004+80650+025000FM-12+000599999V0201101N003019999999N999999999-00421+99999099971ADDMA1999999099901MD1810101+9999REMSYN04801009 46/// /1103 11042 2//// 39990 49997 58010=
0089010090999992016012208004+80650+025000FM-12+000599999V0201101N003019999999N999999999-00401+99999099971ADDMA1999999099901MD1810061+9999REMSYN04801009 46/// /1103 11040 2//// 39990 49997 58006=
0108010090999992016012209004+80650+025000FM-12+000599999V0200401N001019999999N999999999-00421+99999099991ADDMA1999999099921MD1290019+9999REMSYN04801009 46/// /0401 11042 2//// 39992 49999 54001=EQDQ01.1    3APC3  
0108010090999992016012210004+80650+025000FM-12+000599999V0209999C999999999999N999999999-00441+99999099991ADDMA1999999099921MD1290029+9999REMSYN04801009 46/// /0000 11044 2//// 39992 49999 54002=EQDQ01.2    3APC3  
0108010090999992016012211004+80650+025000FM-12+000599999V0209999C999999999999N999999999-00441+99999100001ADDMA1999999099931MD1290039+9999REMSYN04801009 46/// /0000 11044 2//// 39993 40000 54003=EQDQ01.3    3APC3  
0132010090999992016012212004+80650+025000FM-12+000599999V0200101N002019999999N999999999-00401+99999100021ADDMA1999999099951MD1290039+9999OD139900401999REMSYN05801009 46/// /0102 11040 2//// 39995 40002 54003 333 91104=EQDQ01.3    3APC3  
0089010090999992016012213004+80650+025000FM-12+000599999V0200501N001019999999N999999999-00401+99999100041ADDMA1999999099971MD1210041+9999REMSYN04801009 46/// /0501 11040 2//// 39997 40004 52004=
0089010090999992016012214004+80650+025000FM-12+000599999V0200901N001019999999N999999999-00371+99999100081ADDMA1999999100011MD1210081+9999REMSYN04801009 46/// /0901 11037 2//// 30001 40008 52008=
0089010090999992016012215004+80650+025000FM-12+000599999V0201201N002019999999N999999999-00361+99999100101ADDMA1999999100031MD1210081+9999REMSYN04801009 46/// /1202 11036 2//// 30003 40010 52008=
0089010090999992016012216004+80650+025000FM-12+000599999V0201401N003019999999N999999999-00341+99999100101ADDMA1999999100031MD1310061+9999REMSYN04801009 46/// /1403 11034 2//// 30003 40010 53006=
0089010090999992016012217004+80650+025000FM-12+000599999V0201301N004019999999N999999999-00331+99999100121ADDMA1999999100051MD1210041+9999REMSYN04801009 46/// /1304 11033 2//// 30005 40012 52004=
0132010090999992016012218004+80650+025000FM-12+000599999V0201301N005019999999N999999999-00321+99999100091ADDKA1120M-00311MA1999999100031MD1410001+9999OD139900601999REMSYN06401009 46/// /1305 11032 2//// 30003 40009 54000 333 11031 91106=
0108010090999992016012219004+80650+025000FM-12+000599999V0201501N003019999999N999999999-00371+99999100121ADDMA1999999100051MD1290029+9999REMSYN04801009 46/// /1503 11037 2//// 30005 40012 54003=EQDQ01.3    3APC3  
0108010090999992016012220004+80650+025000FM-12+000599999V0201301N006019999999N999999999-00341+99999100131ADDMA1999999100061MD1290019+9999REMSYN04801009 46/// /1306 11034 2//// 30006 40013 54002=EQDQ01.2    3APC3  
0089010090999992016012221004+80650+025000FM-12+000599999V0201301N008019999999N999999999-00321+99999100141ADDMA1999999100071MD1210041+9999REMSYN04801009 46/// /1308 11032 2//// 30007 40014 52004=
0108010090999992016012222004+80650+025000FM-12+000599999V0201201N009019999999N999999999-00311+99999100141ADDMA1999999100071MD1290029+9999REMSYN04801009 46/// /1209 11031 2//// 30007 40014 54001=EQDQ01.1    3APC3  
0089010090999992016012223004+80650+025000FM-12+000599999V0201301N009019999999N999999999-00311+99999100131ADDMA1999999100061MD1410001+9999REMSYN04801009 46/// /1309 11031 2//// 30006 40013 54000=
0132010090999992016012300004+80650+025000FM-12+000599999V0201301N009019999999N999999999-00291+99999100151ADDMA1999999100081MD1290019+9999OD139901101999REMSYN05801009 46/// /1309 11029 2//// 30008 40015 54001 333 91111=EQDQ01.1    3APC3  
0108010090999992016012301004+80650+025000FM-12+000599999V0201401N009019999999N999999999-00361+99999100151ADDMA1999999100081MD1290019+9999REMSYN04801009 46/// /1409 11036 2//// 30008 40015 54002=EQDQ01.2    3APC3  
0089010090999992016012302004+80650+025000FM-12+000599999V0201301N008019999999N999999999-00381+99999100181ADDMA1999999100111MD1210051+9999REMSYN04801009 46/// /1308 11038 2//// 30011 40018 52005=
0089010090999992016012303004+80650+025000FM-12+000599999V0201301N007019999999N999999999-00411+99999100211ADDMA1999999100141MD1210061+9999REMSYN04801009 46/// /1307 11041 2//// 30014 40021 52006=
0089010090999992016012304004+80650+025000FM-12+000599999V0201101N006019999999N999999999-00431+99999100251ADDMA1999999100181MD1210101+9999REMSYN04801009 46/// /1106 11043 2//// 30018 40025 52010=
0089010090999992016012305004+80650+025000FM-12+000599999V0201201N005019999999N999999999-00421+99999100241ADDMA1999999100171MD1310061+9999REMSYN04801009 46/// /1205 11042 2//// 30017 40024 53006=
0132010090999992016012306004+80650+025000FM-12+000599999V0201201N003019999999N999999999-00351+99999100251ADDKA1240N-00441MA1999999100181MD1310041+9999OD139901001999REMSYN06401009 46/// /1203 11035 2//// 30018 40025 53004 333 21044 91110=
0089010090999992016012307004+80650+025000FM-12+000599999V0202701N002019999999N999999999-00341+99999100321ADDMA1999999100251MD1110061+9999REMSYN04801009 46/// /2702 11034 2//// 30025 40032 51006=
0089010090999992016012308004+80650+025000FM-12+000599999V0202901N003019999999N999999999-00331+99999100391ADDMA1999999100321MD1110141+9999REMSYN04801009 46/// /2903 11033 2//// 30032 40039 51014=
0089010090999992016012309004+80650+025000FM-12+000599999V0203001N003019999999N999999999-00291+99999100421ADDMA1999999100351MD1310171+9999REMSYN04801009 46/// /3003 11029 2//// 30035 40042 53017=
0089010090999992016012310004+80650+025000FM-12+000599999V0202801N002019999999N999999999-00281+99999100481ADDMA1999999100411MD1210161+9999REMSYN04801009 46/// /2802 11028 2//// 30041 40048 52016=
0089010090999992016012311004+80650+025000FM-12+000599999V0202601N002019999999N999999999-00291+99999100521ADDMA1999999100451MD1210131+9999REMSYN04801009 46/// /2602 11029 2//// 30045 40052 52013=
0113010090999992016012312004+80650+025000FM-12+000599999V0202401N003019999999N999999999-00261+99999100571ADDMA1999999100501MD1210151+9999OD139900401999REMSYN05801009 46/// /2403 11026 2//// 30050 40057 52015 333 91104=
0089010090999992016012313004+80650+025000FM-12+000599999V0202501N004019999999N999999999-00231+99999100601ADDMA1999999100531MD1210121+9999REMSYN04801009 46/// /2504 11023 2//// 30053 40060 52012=
0089010090999992016012314004+80650+025000FM-12+000599999V0202001N002019999999N999999999-00211+99999100641ADDMA1999999100571MD1210121+9999REMSYN04801009 46/// /2002 11021 2//// 30057 40064 52012=
0089010090999992016012315004+80650+025000FM-12+000599999V0202001N003019999999N999999999-00211+99999100681ADDMA1999999100611MD1210101+9999REMSYN04801009 46/// /2003 11021 2//// 30061 40068 52010=
0089010090999992016012316004+80650+025000FM-12+000599999V0201801N003019999999N999999999-00221+99999100701ADDMA1999999100631MD1210111+9999REMSYN04801009 46/// /1803 11022 2//// 30063 40070 52011=
0089010090999992016012317004+80650+025000FM-12+000599999V0202001N004019999999N999999999-00181+99999100721ADDMA1999999100661MD1210091+9999REMSYN04801009 46/// /2004 11018 2//// 30066 40072 52009=
0132010090999992016012318004+80650+025000FM-12+000599999V0201901N004019999999N999999999-00181+99999100731ADDKA1120M-00161MA1999999100661MD1210061+9999OD139900501999REMSYN06401009 46/// /1904 11018 2//// 30066 40073 52006 333 11016 91105=
0089010090999992016012319004+80650+025000FM-12+000599999V0201801N003019999999N999999999-00171+99999100771ADDMA1999999100701MD1210071+9999REMSYN04801009 46/// /1803 11017 2//// 30070 40077 52007=
0089010090999992016012320004+80650+025000FM-12+000599999V0201801N004019999999N999999999-00181+99999100811ADDMA1999999100741MD1210081+9999REMSYN04801009 46/// /1804 11018 2//// 30074 40081 52008=
0089010090999992016012321004+80650+025000FM-12+000599999V0201901N004019999999N999999999-00171+99999100851ADDMA1999999100781MD1210121+9999REMSYN04801009 46/// /1904 11017 2//// 30078 40085 52012=
0089010090999992016012322004+80650+025000FM-12+000599999V0201901N003019999999N999999999-00171+99999100851ADDMA1999999100781MD1310081+9999REMSYN04801009 46/// /1903 11017 2//// 30078 40085 53008=
0089010090999992016012323004+80650+025000FM-12+000599999V0202301N001019999999N999999999-00161+99999100871ADDMA1999999100801MD1210061+9999REMSYN04801009 46/// /2301 11016 2//// 30080 40087 52006=
0113010090999992016012400004+80650+025000FM-12+000599999V0202601N002019999999N999999999-00131+99999100891ADDMA1999999100821MD1210041+9999OD139900501999REMSYN05801009 46/// /2602 11013 2//// 30082 40089 52004 333 91105=
0089010090999992016012401004+80650+025000FM-12+000599999V0202501N002019999999N999999999-00121+99999100931ADDMA1999999100861MD1210071+9999REMSYN04801009 46/// /2502 11012 2//// 30086 40093 52007=
0089010090999992016012402004+80650+025000FM-12+000599999V0202901N001019999999N999999999-00121+99999100931ADDMA1999999100861MD1210061+9999REMSYN04801009 46/// /2901 11012 2//// 30086 40093 52006=
0089010090999992016012403004+80650+025000FM-12+000599999V0202101N001019999999N999999999-00151+99999100931ADDMA1999999100861MD1310041+9999REMSYN04801009 46/// /2101 11015 2//// 30086 40093 53004=
0089010090999992016012404004+80650+025000FM-12+000599999V0202001N003019999999N999999999-00181+99999100961ADDMA1999999100891MD1210031+9999REMSYN04801009 46/// /2003 11018 2//// 30089 40096 52003=
0089010090999992016012405004+80650+025000FM-12+000599999V0201901N002019999999N999999999-00201+99999100921ADDMA1999999100851MD1510011+9999REMSYN04801009 46/// /1902 11020 2//// 30085 40092 55001=
0132010090999992016012406004+80650+025000FM-12+000599999V0201901N003019999999N999999999-00201+99999100931ADDKA1240N-00211MA1999999100861MD1410001+9999OD139900401999REMSYN06401009 46/// /1903 11020 2//// 30086 40093 54000 333 21021 91104=
0089010090999992016012407004+80650+025000FM-12+000599999V0201701N003019999999N999999999-00211+99999100941ADDMA1999999100871MD1990021+9999REMSYN04801009 46/// /1703 11021 2//// 30087 40094 50002=
0089010090999992016012408004+80650+025000FM-12+000599999V0201701N004019999999N999999999-00201+99999100921ADDMA1999999100851MD1510001+9999REMSYN04801009 46/// /1704 11020 2//// 30085 40092 55000=
0108010090999992016012409004+80650+025000FM-12+000599999V0201501N006019999999N999999999-00091+99999100911ADDMA1999999100841MD1790029+9999REMSYN04801009 46/// /1506 11009 2//// 30084 40091 54002=EQDQ01.2    3APC3  
0089010090999992016012410004+80650+025000FM-12+000599999V0201901N006019999999N999999999-00061+99999100911ADDMA1999999100841MD1710031+9999REMSYN04801009 46/// /1906 11006 2//// 30084 40091 57003=
0089010090999992016012411004+80650+025000FM-12+000599999V0202101N006019999999N999999999+00001+99999100891ADDMA1999999100821MD1710031+9999REMSYN04801009 46/// /2106 10000 2//// 30082 40089 57003=
0113010090999992016012412004+80650+025000FM-12+000599999V0202101N006019999999N999999999+00061+99999100901ADDMA1999999100841MD1410001+9999OD139901101999REMSYN05801009 46/// /2106 10006 2//// 30084 40090 54000 333 91111=
0089010090999992016012413004+80650+025000FM-12+000599999V0201801N007019999999N999999999+00111+99999100871ADDMA1999999100801MD1710041+9999REMSYN04801009 46/// /1807 10011 2//// 30080 40087 57004=
0108010090999992016012414004+80650+025000FM-12+000599999V0201701N003019999999N999999999+00051+99999100911ADDMA1999999100841MD1290029+9999REMSYN04801009 46/// /1703 10005 2//// 30084 40091 54002=EQDQ01.2    3APC3  
