0130010070999992016010100004+78917+011933FM-12+000899999V0202101N004019999999N999999999+00471-00261100451ADDAA106000231MA1999999100361MD1110271+9999OD139901701999REMSYN06401007 16/// /2104 10047 21026 30036 40045 51027 69921 333 91117=
0089010070999992016010101004+78917+011933FM-12+000899999V0202001N005019999999N999999999+00481-00231100541ADDMA1999999100451MD1210261+9999REMSYN04801007 46/// /2005 10048 21023 30045 40054 52026=
0089010070999992016010102004+78917+011933FM-12+000899999V0202101N005019999999N999999999+00451-00131100581ADDMA1999999100491MD1110201+9999REMSYN04801007 46/// /2105 10045 21013 30049 40058 51020=
0089010070999992016010103004+78917+011933FM-12+000899999V0201701N004019999999N999999999+00451-00211100631ADDMA1999999100541MD1110181+9999REMSYN04801007 46/// /1704 10045 21021 30054 40063 51018=
0089010070999992016010104004+78917+011933FM-12+000899999V0201701N005019999999N999999999+00471-00211100671ADDMA1999999100581MD1210131+9999REMSYN04801007 46/// /1705 10047 21021 30058 40067 52013=
0089010070999992016010105004+78917+011933FM-12+000899999V0201701N005019999999N999999999+00461-00181100711ADDMA1999999100621MD1110131+9999REMSYN04801007 46/// /1705 10046 21018 30062 40071 51013=
0309010070999992016010106004+78917+011933FM-12+000899999V0201301N004019999999N070001199+00261-00141100731ADDAA112000091AA224012331AJ199991999999999AY121021AY221021GA1061+008001061GA2999+999999041GE19MSL   +99999+99999GF108991061999008001999999IA1179KA1240N+00261MA1999999100631MD1990091+9999MW1021OD139901701999REMSYN09401007 11589 81304 10026 21014 30063 40073 50009 60002 70222 8651/ 333 20026 40/// 70123 91117=
0089010070999992016010107004+78917+011933FM-12+000899999V0201401N003019999999N999999999+00191-00071100711ADDMA1999999100611MD1990041+9999REMSYN04801007 46/// /1403 10019 21007 30061 40071 50004=
0089010070999992016010108004+78917+011933FM-12+000899999V0201201N002019999999N999999999+00341-00021100681ADDMA1999999100591MD1810031+9999REMSYN04801007 46/// /1202 10034 21002 30059 40068 58003=
0089010070999992016010109004+78917+011933FM-12+000899999V0201201N004019999999N999999999+00361-00111100631ADDMA1999999100531MD1810091+9999REMSYN04801007 46/// /1204 10036 21011 30053 40063 58009=
0089010070999992016010110004+78917+011933FM-12+000899999V0200901N004019999999N999999999+00311-00091100561ADDMA1999999100461MD1810151+9999REMSYN04801007 46/// /0904 10031 21009 30046 40056 58015=
0089010070999992016010111004+78917+011933FM-12+000899999V0201201N003019999999N999999999+00291-00141100521ADDMA1999999100421MD1710161+9999REMSYN04801007 46/// /1203 10029 21014 30042 40052 57016=
0244010070999992016010112004+78917+011933FM-12+000899999V0201501N005019999999N050000199+00251-00131100441ADDAA106000231AY121021AY221021GA1071+008001061GA2999+999999031GE19MSL   +99999+99999GF108991071999008001999999MA1999999100351MD1710191+9999MW1601OD139900901999REMSYN07601007 11584 81505 10025 21013 30035 40044 57019 69921 76022 8757/ 333 91109=
0089010070999992016010113004+78917+011933FM-12+000899999V0201301N003019999999N999999999+00301-00121100361ADDMA1999999100271MD1810201+9999REMSYN04801007 46/// /1303 10030 21012 30027 40036 58020=
0089010070999992016010114004+78917+011933FM-12+000899999V0201501N003019999999N999999999+00271-00141100301ADDMA1999999100211MD1710211+9999REMSYN04801007 46/// /1503 10027 21014 30021 40030 57021=
0089010070999992016010115004+78917+011933FM-12+000899999V0201301N003019999999N999999999+00131-00161100251ADDMA1999999100151MD1710191+9999REMSYN04801007 46/// /1303 10013 21016 30015 40025 57019=
0089010070999992016010116004+78917+011933FM-12+000899999V0201401N003019999999N999999999+00101-00151100191ADDMA1999999100091MD1710171+9999REMSYN04801007 46/// /1403 10010 21015 30009 40019 57017=
0089010070999992016010117004+78917+011933FM-12+000899999V0201601N002019999999N999999999+00051-00171100181ADDMA1999999100081MD1610121+9999REMSYN04801007 46/// /1602 10005 21017 30008 40018 56012=
0263010070999992016010118004+78917+011933FM-12+000899999V0202601N002019999999N003000199+00001-00171100181ADDAA112003031AY171021AY261021GA1071+004501071GA2999+999999051GE19MSL   +99999+99999GF108991071999004501999999KA1120M+00491MA1999999100081MD1610071+9999MW1681OD139900801999REMSYN08201007 11430 82602 10000 21017 30008 40018 56007 60032 76876 8772/ 333 10049 91108=
0089010070999992016010119004+78917+011933FM-12+000899999V0202901N002019999999N999999999-00011-00161100241ADDMA1999999100151MD1310051+9999REMSYN04801007 46/// /2902 11001 21016 30015 40024 53005=
0089010070999992016010120004+78917+011933FM-12+000899999V0201201N001019999999N999999999+00041-00131100341ADDMA1999999100251MD1310161+9999REMSYN04801007 46/// /1201 10004 21013 30025 40034 53016=
0089010070999992016010121004+78917+011933FM-12+000899999V0201301N001019999999N999999999+00041-00121100431ADDMA1999999100331MD1310251+9999REMSYN04801007 46/// /1301 10004 21012 30033 40043 53025=
0089010070999992016010122004+78917+011933FM-12+000899999V0201301N001019999999N999999999-00011-00151100481ADDMA1999999100381MD1990231+9999REMSYN04801007 46/// /1301 11001 21015 30038 40048 50023=
0071010070999992016010123004+78923+011933FM-12+000899999V0200911N0008199999999999999999+00001-00151100561ADDKA1010M+00041KA2010N-00031MA1999999100461MD1110211+9999REMSYN004BUFR
0130010070999992016010200004+78917+011933FM-12+000899999V0209999C999999999999N999999999+00031-00131100601ADDAA106002031MA1999999100501MD1990171+9999OD139900301999REMSYN06401007 16/// /0000 10003 21013 30050 40060 50017 60021 333 91103=
0089010070999992016010201004+78917+011933FM-12+000899999V0201401N002019999999N999999999+00051-00111100591ADDMA1999999100501MD1990121+9999REMSYN04801007 46/// /1402 10005 21011 30050 40059 50012=
0089010070999992016010202004+78917+011933FM-12+000899999V0201401N003019999999N999999999+00081-00131100611ADDMA1999999100521MD1990061+9999REMSYN04801007 46/// /1403 10008 21013 30052 40061 50006=
0089010070999992016010203004+78917+011933FM-12+000899999V0201601N002019999999N999999999+00021-00151100581ADDMA1999999100491MD1810021+9999REMSYN04801007 46/// /1602 10002 21015 30049 40058 58002=
0089010070999992016010204004+78917+011933FM-12+000899999V0201301N001019999999N999999999+00001-00141100511ADDMA1999999100411MD1810081+9999REMSYN04801007 46/// /1301 10000 21014 30041 40051 58008=
0089010070999992016010205004+78917+011933FM-12+000899999V0201901N001019999999N999999999+00181+00021100471ADDMA1999999100381MD1610141+9999REMSYN04801007 46/// /1901 10018 20002 30038 40047 56014=
0309010070999992016010206004+78917+011933FM-12+000899999V0201101N004019999999N020000199+00171-00041100401ADDAA112014031AA224016931AJ100043100040099AY171021AY261021GA1071+008001071GA2999+999999051GE19MSL   +99999+99999GF108991071999008001999999IA1249KA1240N-00041MA1999999100311MD1610181+9999MW1611OD139900701999REMSYN09401007 11570 81104 10017 21004 30031 40040 56018 60142 76176 8772/ 333 21004 44004 70169 91107=
0089010070999992016010207004+78917+011933FM-12+000899999V0201301N003019999999N999999999+00201-00111100341ADDMA1999999100241MD1810171+9999REMSYN04801007 46/// /1303 10020 21011 30024 40034 58017=
0089010070999992016010208004+78917+011933FM-12+000899999V0201201N003019999999N999999999+00231-00151100221ADDMA1999999100121MD1810261+9999REMSYN04801007 46/// /1203 10023 21015 30012 40022 58026=
0089010070999992016010209004+78917+011933FM-12+000899999V0201401N002019999999N999999999+00321-00191100231ADDMA1999999100131MD1610181+9999REMSYN04801007 46/// /1402 10032 21019 30013 40023 56018=
0089010070999992016010210004+78917+011933FM-12+000899999V0201401N004019999999N999999999+00101-00151100241ADDMA1999999100141MD1610101+9999REMSYN04801007 46/// /1404 10010 21015 30014 40024 56010=
0089010070999992016010211004+78917+011933FM-12+000899999V0201201N003019999999N999999999+00191-00131100251ADDMA1999999100161MD1210041+9999REMSYN04801007 46/// /1203 10019 21013 30016 40025 52004=
0228010070999992016010212004+78917+011933FM-12+000899999V0202801N002019999999N025000199+00211-00111100351ADDAA106000431AY161021AY251021GA1081+008001071GE19MSL   +99999+99999GF108991081999008001999999MA1999999100261MD1310131+9999MW1601OD139901001999REMSYN07601007 11575 82802 10021 21011 30026 40035 53013 69941 76065 887// 333 91110=
0089010070999992016010213004+78917+011933FM-12+000899999V0203201N003019999999N999999999+00041-00171100521ADDMA1999999100421MD1310281+9999REMSYN04801007 46/// /3203 10004 21017 30042 40052 53028=
0089010070999992016010214004+78917+011933FM-12+000899999V0203401N002019999999N999999999+00071-00151100671ADDMA1999999100581MD1310421+9999REMSYN04801007 46/// /3402 10007 21015 30058 40067 53042=
0089010070999992016010215004+78917+011933FM-12+000899999V0202701N001019999999N999999999+00051-00161100851ADDMA1999999100761MD1310501+9999REMSYN04801007 46/// /2701 10005 21016 30076 40085 53050=
0089010070999992016010216004+78917+011933FM-12+000899999V0201201N001019999999N999999999+00071-00121101021ADDMA1999999100931MD1310501+9999REMSYN04801007 46/// /1201 10007 21012 30093 40102 53050=
0089010070999992016010217004+78917+011933FM-12+000899999V0201401N002019999999N999999999+00081-00111101191ADDMA1999999101091MD1210521+9999REMSYN04801007 46/// /1402 10008 21011 30109 40119 52052=
0247010070999992016010218004+78917+011933FM-12+000899999V0201201N001019999999N030000199+00071-00121101351ADDAA112000631AY151021AY221021GA1081+008001061GE19MSL   +99999+99999GF108991081999008001999999KA1120M+00351MA1999999101251MD1110491+9999MW1021OD139900501999REMSYN08201007 11580 81201 10007 21012 30125 40135 51049 69962 70252 885// 333 10035 91105=
0089010070999992016010219004+78917+011933FM-12+000899999V0201201N003019999999N999999999+00111-00081101501ADDMA1999999101401MD1110481+9999REMSYN04801007 46/// /1203 10011 21008 30140 40150 51048=
0089010070999992016010220004+78917+011933FM-12+000899999V0202401N008019999999N999999999+00171-00141101641ADDMA1999999101541MD1110451+9999REMSYN04801007 46/// /2408 10017 21014 30154 40164 51045=
0089010070999992016010221004+78917+011933FM-12+000899999V0201701N003019999999N999999999+00191-00171101751ADDMA1999999101651MD1110401+9999REMSYN04801007 46/// /1703 10019 21017 30165 40175 51040=
0089010070999992016010222004+78917+011933FM-12+000899999V0201401N005019999999N999999999+00241-00351101851ADDMA1999999101751MD1110341+9999REMSYN04801007 46/// /1405 10024 21035 30175 40185 51034=
0089010070999992016010223004+78917+011933FM-12+000899999V0201101N005019999999N999999999+00191-00221101891ADDMA1999999101791MD1110251+9999REMSYN04801007 46/// /1105 10019 21022 30179 40189 51025=
0130010070999992016010300004+78917+011933FM-12+000899999V0201201N006019999999N999999999+00131-00161101841ADDAA106004031MA1999999101741MD1990091+9999OD139901601999REMSYN06401007 16/// /1206 10013 21016 30174 40184 50009 60041 333 91116=
0089010070999992016010301004+78917+011933FM-12+000899999V0201601N006019999999N999999999+00461-00181101781ADDMA1999999101681MD1810071+9999REMSYN04801007 46/// /1606 10046 21018 30168 40178 58007=
0089010070999992016010302004+78917+011933FM-12+000899999V0201701N008019999999N999999999+00531-00181101691ADDMA1999999101591MD1810201+9999REMSYN04801007 46/// /1708 10053 21018 30159 40169 58020=
0089010070999992016010303004+78917+011933FM-12+000899999V0201501N007019999999N999999999+00421-00121101661ADDMA1999999101561MD1610181+9999REMSYN04801007 46/// /1507 10042 21012 30156 40166 56018=
0089010070999992016010304004+78917+011933FM-12+000899999V0201601N007019999999N999999999+00431-00111101521ADDMA1999999101421MD1810261+9999REMSYN04801007 46/// /1607 10043 21011 30142 40152 58026=
0089010070999992016010305004+78917+011933FM-12+000899999V0201701N009019999999N999999999+00541-00221101421ADDMA1999999101321MD1810271+9999REMSYN04801007 46/// /1709 10054 21022 30132 40142 58027=
0309010070999992016010306004+78917+011933FM-12+000899999V0201601N009019999999N017000199+00471-00111101341ADDAA112005031AA224005631AJ199991999999999AY161021AY251021GA1071+008001071GA2999+999999051GE19MSL   +99999+99999GF108991071999008001999999IA1179KA1240N+00061MA1999999101241MD1610321+9999MW1601OD139901901999REMSYN09401007 11567 81609 10047 21011 30124 40134 56032 60052 76065 8772/ 333 20006 40/// 70056 91119=
0089010070999992016010307004+78917+011933FM-12+000899999V0201701N008019999999N999999999+00431-00131101211ADDMA1999999101111MD1810311+9999REMSYN04801007 46/// /1708 10043 21013 30111 40121 58031=
0089010070999992016010308004+78917+011933FM-12+000899999V0201501N008019999999N999999999+00441-00101101101ADDMA1999999101001MD1610321+9999REMSYN04801007 46/// /1508 10044 21010 30100 40110 56032=
0089010070999992016010309004+78917+011933FM-12+000899999V0201601N010019999999N999999999+00501-00081101021ADDMA1999999100931MD1610321+9999REMSYN04801007 46/// /1610 10050 21008 30093 40102 56032=
0089010070999992016010310004+78917+011933FM-12+000899999V0201701N009019999999N999999999+00451-00091101001ADDMA1999999100901MD1610211+9999REMSYN04801007 46/// /1709 10045 21009 30090 40100 56021=
0089010070999992016010311004+78917+011933FM-12+000899999V0202301N008019999999N999999999+00181-00201101071ADDMA1999999100971MD1610031+9999REMSYN04801007 46/// /2308 10018 21020 30097 40107 56003=
0244010070999992016010312004+78917+011933FM-12+000899999V0202301N006019999999N008000199+00131-00191101051ADDAA106040031AY161021AY251021GA1071+008001071GA2999+999999051GE19MSL   +99999+99999GF108991071999008001999999MA1999999100951MD1310031+9999MW1631OD139902101999REMSYN07601007 11558 82306 10013 21019 30095 40105 53003 60401 76365 8772/ 333 91121=
0089010070999992016010313004+78917+011933FM-12+000899999V0201901N007019999999N999999999+00261-00291101011ADDMA1999999100921MD1990011+9999REMSYN04801007 46/// /1907 10026 21029 30092 40101 50001=
0089010070999992016010314004+78917+011933FM-12+000899999V0202301N006019999999N999999999+00361-00481100971ADDMA1999999100881MD1810101+9999REMSYN04801007 46/// /2306 10036 21048 30088 40097 58010=
0089010070999992016010315004+78917+011933FM-12+000899999V0202001N006019999999N999999999+00311-00371100991ADDMA1999999100901MD1610061+9999REMSYN04801007 46/// /2006 10031 21037 30090 40099 56006=
0089010070999992016010316004+78917+011933FM-12+000899999V0202201N008019999999N999999999+00211-00341101041ADDMA1999999100941MD1310021+9999REMSYN04801007 46/// /2208 10021 21034 30094 40104 53002=
0089010070999992016010317004+78917+011933FM-12+000899999V0202301N008019999999N999999999+00151-00431101121ADDMA1999999101031MD1310151+9999REMSYN04801007 46/// /2308 10015 21043 30103 40112 53015=
0247010070999992016010318004+78917+011933FM-12+000899999V0202301N008019999999N030000199+00081-00481101181ADDAA112047031AY171021AY261021GA1071+008001061GE19MSL   +99999+99999GF107991071999008001999999KA1120M+00551MA1999999101091MD1310191+9999MW1021OD139902201999REMSYN08201007 11580 72308 10008 21048 30109 40118 53019 60472 70276 8750/ 333 10055 91122=
0089010070999992016010319004+78917+011933FM-12+000899999V0202401N005019999999N999999999+00031-00471101281ADDMA1999999101181MD1310241+9999REMSYN04801007 46/// /2405 10003 21047 30118 40128 53024=
0089010070999992016010320004+78917+011933FM-12+000899999V0202301N009019999999N999999999+00011-00631101311ADDMA1999999101221MD1990191+9999REMSYN04801007 46/// /2309 10001 21063 30122 40131 50019=
0089010070999992016010321004+78917+011933FM-12+000899999V0202301N007019999999N999999999-00011-00521101361ADDMA1999999101261MD1110171+9999REMSYN04801007 46/// /2307 11001 21052 30126 40136 51017=
0089010070999992016010322004+78917+011933FM-12+000899999V0202501N007019999999N999999999-00031-00511101381ADDMA1999999101291MD1210111+9999REMSYN04801007 46/// /2507 11003 21051 30129 40138 52011=
0089010070999992016010323004+78917+011933FM-12+000899999V0202301N007019999999N999999999-00031-00581101381ADDMA1999999101291MD1110071+9999REMSYN04801007 46/// /2307 11003 21058 30129 40138 51007=
0130010070999992016010400004+78917+011933FM-12+000899999V0201701N004019999999N999999999-00011-00581101361ADDAA106000091MA1999999101271MD1990011+9999OD139901801999REMSYN06401007 16/// /1704 11001 21058 30127 40136 50001 60001 333 91118=
0089010070999992016010401004+78917+011933FM-12+000899999V0201101N003019999999N999999999-00011-00581101371ADDMA1999999101271MD1710011+9999REMSYN04801007 46/// /1103 11001 21058 30127 40137 57001=
0089010070999992016010402004+78917+011933FM-12+000899999V0202501N003019999999N999999999-00031-00561101361ADDMA1999999101261MD1710031+9999REMSYN04801007 46/// /2503 11003 21056 30126 40136 57003=
0089010070999992016010403004+78917+011933FM-12+000899999V0200601N001019999999N999999999-00031-00521101331ADDMA1999999101241MD1810031+9999REMSYN04801007 46/// /0601 11003 21052 30124 40133 58003=
0089010070999992016010404004+78917+011933FM-12+000899999V0202301N003019999999N999999999-00051-00471101341ADDMA1999999101241MD1610031+9999REMSYN04801007 46/// /2303 11005 21047 30124 40134 56003=
0089010070999992016010405004+78917+011933FM-12+000899999V0202301N006019999999N999999999-00061-00451101341ADDMA1999999101241MD1610011+9999REMSYN04801007 46/// /2306 11006 21045 30124 40134 56001=
0312010070999992016010406004+78917+011933FM-12+000899999V0200601N002019999999N018000199-00061-00481101391ADDAA112999999AA224046531AJ199991999999999AY121021AY221021GA1081+008001071GE19MSL   +99999+99999GF108991081999008001999999IA1179KA1240N-00091MA1999999101291MD1310061+9999MW1561OD139901501999REMSYN09401007 11568 80602 11006 21048 30129 40139 53006 60002 75622 887// 333 21009 40/// 70465 91115=EQDQ01  00002PRCP12
0089010070999992016010407004+78917+011933FM-12+000899999V0202101N002019999999N999999999-00081-00451101441ADDMA1999999101341MD1310101+9999REMSYN04801007 46/// /2102 11008 21045 30134 40144 53010=
0089010070999992016010408004+78917+011933FM-12+000899999V0201801N001019999999N999999999-00071-00511101471ADDMA1999999101371MD1210131+9999REMSYN04801007 46/// /1801 11007 21051 30137 40147 52013=
0089010070999992016010409004+78917+011933FM-12+000899999V0201101N002019999999N999999999-00091-00361101491ADDMA1999999101391MD1110101+9999REMSYN04801007 46/// /1102 11009 21036 30139 40149 51010=
0089010070999992016010410004+78917+011933FM-12+000899999V0201001N001019999999N999999999-00051-00491101501ADDMA1999999101401MD1210061+9999REMSYN04801007 46/// /1001 11005 21049 30140 40150 52006=
0089010070999992016010411004+78917+011933FM-12+000899999V0201701N001019999999N999999999-00071-00551101501ADDMA1999999101401MD1990031+9999REMSYN04801007 46/// /1701 11007 21055 30140 40150 50003=
0228010070999992016010412004+78917+011933FM-12+000899999V0201601N002019999999N070001199-00021-00571101541ADDAA106000091AY151021AY221021GA1081+012501061GE19MSL   +99999+99999GF108991081999012501999999MA1999999101441MD1310051+9999MW1021OD139900701999REMSYN07601007 11689 81602 11002 21057 30144 40154 53005 60001 70252 885// 333 91107=
0089010070999992016010413004+78917+011933FM-12+000899999V0202301N004019999999N999999999-00041-00611101541ADDMA1999999101451MD1310041+9999REMSYN04801007 46/// /2304 11004 21061 30145 40154 53004=
0089010070999992016010414004+78917+011933FM-12+000899999V0202601N004019999999N999999999-00081-00541101581ADDMA1999999101481MD1310081+9999REMSYN04801007 46/// /2604 11008 21054 30148 40158 53008=
0089010070999992016010415004+78917+011933FM-12+000899999V0202701N003019999999N999999999-00151-00571101621ADDMA1999999101531MD1310091+9999REMSYN04801007 46/// /2703 11015 21057 30153 40162 53009=
0089010070999992016010416004+78917+011933FM-12+000899999V0202701N002019999999N999999999-00181-00621101691ADDMA1999999101591MD1310151+9999REMSYN04801007 46/// /2702 11018 21062 30159 40169 53015=
0089010070999992016010417004+78917+011933FM-12+000899999V0202601N005019999999N999999999-00221-00671101731ADDMA1999999101631MD1210151+9999REMSYN04801007 46/// /2605 11022 21067 30163 40173 52015=
0247010070999992016010418004+78917+011933FM-12+000899999V0202601N003019999999N070001199-00271-00741101801ADDAA112000091AY121021AY221021GA1071+008001061GE19MSL   +99999+99999GF107991071999008001999999KA1120M+00001MA1999999101701MD1210171+9999MW1021OD139900801999REMSYN08201007 11589 72603 11027 21074 30170 40180 52017 60002 70222 87500 333 10000 91108=
0089010070999992016010419004+78917+011933FM-12+000899999V0202301N005019999999N999999999-00291-00721101841ADDMA1999999101741MD1990141+9999REMSYN04801007 46/// /2305 11029 21072 30174 40184 50014=
0089010070999992016010420004+78917+011933FM-12+000899999V0202401N005019999999N999999999-00331-00651101901ADDMA1999999101801MD1110171+9999REMSYN04801007 46/// /2405 11033 21065 30180 40190 51017=
0089010070999992016010421004+78917+011933FM-12+000899999V0202801N005019999999N999999999-00371-00651101981ADDMA1999999101881MD1310181+9999REMSYN04801007 46/// /2805 11037 21065 30188 40198 53018=
0089010070999992016010422004+78917+011933FM-12+000899999V0203001N005019999999N999999999-00411-00761102021ADDMA1999999101921MD1110191+9999REMSYN04801007 46/// /3005 11041 21076 30192 40202 51019=
0089010070999992016010423004+78917+011933FM-12+000899999V0203201N006019999999N999999999-00431-00731102081ADDMA1999999101981MD1110181+9999REMSYN04801007 46/// /3206 11043 21073 30198 40208 51018=
0130010070999992016010500004+78917+011933FM-12+000899999V0203201N003019999999N999999999-00441-00761102121ADDAA106000091MA1999999102021MD1210141+9999OD139900801999REMSYN06401007 16/// /3203 11044 21076 30202 40212 52014 60001 333 91108=
0089010070999992016010501004+78917+011933FM-12+000899999V0202701N002019999999N999999999-00461-00811102151ADDMA1999999102051MD1110121+9999REMSYN04801007 46/// /2702 11046 21081 30205 40215 51012=
0089010070999992016010502004+78917+011933FM-12+000899999V0202501N003019999999N999999999-00471-00881102171ADDMA1999999102071MD1990091+9999REMSYN04801007 46/// /2503 11047 21088 30207 40217 50009=
0089010070999992016010503004+78917+011933FM-12+000899999V0201601N002019999999N999999999-00491-00921102181ADDMA1999999102081MD1210061+9999REMSYN04801007 46/// /1602 11049 21092 30208 40218 52006=
0089010070999992016010504004+78917+011933FM-12+000899999V0201401N003019999999N999999999-00511-00951102201ADDMA1999999102101MD1210051+9999REMSYN04801007 46/// /1403 11051 21095 30210 40220 52005=
0089010070999992016010505004+78917+011933FM-12+000899999V0201801N002019999999N999999999-00521-00951102221ADDMA1999999102121MD1210051+9999REMSYN04801007 46/// /1802 11052 21095 30212 40222 52005=
0309010070999992016010506004+78917+011933FM-12+000899999V0201701N003019999999N070001199-00551-00931102241ADDAA112000091AA224000091AJ199991999999999AY121021AY211021GA1051+008001061GA2999+999999001GE19MSL   +99999+99999GF106991051999008001999999IA1179KA1240N-00581MA1999999102141MD1210051+9999MW1021OD139900401999REMSYN09401007 11589 61703 11055 21093 30214 40224 52005 60002 70221 85501 333 21058 40/// 70000 91104=
0089010070999992016010507004+78917+011933FM-12+000899999V0201201N004019999999N999999999-00581-00961102251ADDMA1999999102151MD1210051+9999REMSYN04801007 46/// /1204 11058 21096 30215 40225 52005=
0089010070999992016010508004+78917+011933FM-12+000899999V0201201N007019999999N999999999-00631-00941102261ADDMA1999999102161MD1990041+9999REMSYN04801007 46/// /1207 11063 21094 30216 40226 50004=
0089010070999992016010509004+78917+011933FM-12+000899999V0201301N007019999999N999999999-00721-01031102271ADDMA1999999102171MD1990031+9999REMSYN04801007 46/// /1307 11072 21103 30217 40227 50003=
0089010070999992016010510004+78917+011933FM-12+000899999V0201301N006019999999N999999999-00761-01041102281ADDMA1999999102181MD1990031+9999REMSYN04801007 46/// /1306 11076 21104 30218 40228 50003=
0089010070999992016010511004+78917+011933FM-12+000899999V0201201N006019999999N999999999-00771-01081102271ADDMA1999999102171MD1990021+9999REMSYN04801007 46/// /1206 11077 21108 30217 40227 50002=
0228010070999992016010512004+78917+011933FM-12+000899999V0201401N005019999999N070001199-00751-01061102271ADDAA106000091AY121021AY221021GA1081+008001061GE19MSL   +99999+99999GF108991081999008001999999MA1999999102171MD1990001+9999MW1021OD139900801999REMSYN07601007 11589 81405 11075 21106 30217 40227 50000 60001 70222 885// 333 91108=
0089010070999992016010513004+78917+011933FM-12+000899999V0201301N006019999999N999999999-00761-01101102251ADDMA1999999102151MD1710031+9999REMSYN04801007 46/// /1306 11076 21110 30215 40225 57003=
0089010070999992016010514004+78917+011933FM-12+000899999V0201301N006019999999N999999999-00741-01051102231ADDMA1999999102131MD1710051+9999REMSYN04801007 46/// /1306 11074 21105 30213 40223 57005=
0089010070999992016010515004+78917+011933FM-12+000899999V0201301N007019999999N999999999-00661-00971102201ADDMA1999999102101MD1710071+9999REMSYN04801007 46/// /1307 11066 21097 30210 40220 57007=
0089010070999992016010516004+78917+011933FM-12+000899999V0201401N007019999999N999999999-00711-01021102191ADDMA1999999102091MD1710061+9999REMSYN04801007 46/// /1407 11071 21102 30209 40219 57006=
0089010070999992016010517004+78917+011933FM-12+000899999V0201501N006019999999N999999999-00751-01061102201ADDMA1999999102101MD1610021+9999REMSYN04801007 46/// /1506 11075 21106 30210 40220 56002=
0247010070999992016010518004+78917+011933FM-12+000899999V0201401N006019999999N070001199-00741-01051102181ADDAA199999919AY121021AY221021GA1081+008001061GE19MSL   +99999+99999GF108991081999008001999999KA1120M-00531MA1999999102081MD1810031+9999MW1021OD139900901999REMSYN08201007 11589 81406 11074 21105 30208 40218 58003 6//// 70222 885// 333 11053 91109=
0089010070999992016010519004+78917+011933FM-12+000899999V0201401N005019999999N999999999-00681-00981102151ADDMA1999999102051MD1810041+9999REMSYN04801007 46/// /1405 11068 21098 30205 40215 58004=
0089010070999992016010520004+78917+011933FM-12+000899999V0201301N005019999999N999999999-00651-00921102131ADDMA1999999102031MD1710071+9999REMSYN04801007 46/// /1305 11065 21092 30203 40213 57007=
0089010070999992016010521004+78917+011933FM-12+000899999V0201301N005019999999N999999999-00661-00931102101ADDMA1999999102001MD1710081+9999REMSYN04801007 46/// /1305 11066 21093 30200 40210 57008=
0089010070999992016010522004+78917+011933FM-12+000899999V0201301N005019999999N999999999-00701-00981102111ADDMA1999999102011MD1710041+9999REMSYN04801007 46/// /1305 11070 21098 30201 40211 57004=
0093010070999992016010523004+78923+011933FM-12+000899999V0201361N0042199999999999999999-00701-00971102101ADDKA1010M-00671KA2010N-00741MA1999999101991MD1710031+9999OC100591OD130100601999REMSYN004BUFR
0130010070999992016010600004+78917+011933FM-12+000899999V0201501N004019999999N999999999-00711-00961102061ADDAA106000091MA1999999101961MD1810041+9999OD139900701999REMSYN06401007 16/// /1504 11071 21096 30196 40206 58004 60001 333 91107=
0089010070999992016010601004+78917+011933FM-12+000899999V0201301N003019999999N999999999-00681-00921102021ADDMA1999999101921MD1810091+9999REMSYN04801007 46/// /1303 11068 21092 30192 40202 58009=
0089010070999992016010602004+78917+011933FM-12+000899999V0201301N005019999999N999999999-00671-00911101991ADDMA1999999101891MD1710111+9999REMSYN04801007 46/// /1305 11067 21091 30189 40199 57011=
0089010070999992016010603004+78917+011933FM-12+000899999V0201301N006019999999N999999999-00661-00891101941ADDMA1999999101841MD1710121+9999REMSYN04801007 46/// /1306 11066 21089 30184 40194 57012=
0089010070999992016010604004+78917+011933FM-12+000899999V0201301N005019999999N999999999-00671-00941101941ADDMA1999999101841MD1610071+9999REMSYN04801007 46/// /1305 11067 21094 30184 40194 56007=
0089010070999992016010605004+78917+011933FM-12+000899999V0201201N002019999999N999999999-00691-00961101921ADDMA1999999101821MD1610071+9999REMSYN04801007 46/// /1202 11069 21096 30182 40192 56007=
0276010070999992016010606004+78917+011933FM-12+000899999V0201401N003019999999N070001199-00731-01041101901ADDAA112000091AJ199991999999999AY101021AY201021GA1031+017501061GE19MSL   +99999+99999GF103991031999017501999999IA1179KA1240N-00781MA1999999101801MD1810041+9999MW1021OD139900701999REMSYN08801007 11789 31403 11073 21104 30180 40190 58004 60002 70200 83500 333 21078 40/// 91107=
0089010070999992016010607004+78917+011933FM-12+000899999V0202501N002019999999N999999999-00731-00981101891ADDMA1999999101791MD1710051+9999REMSYN04801007 46/// /2502 11073 21098 30179 40189 57005=
0089010070999992016010608004+78917+011933FM-12+000899999V0201701N001019999999N999999999-00741-00981101891ADDMA1999999101791MD1710031+9999REMSYN04801007 46/// /1701 11074 21098 30179 40189 57003=
0089010070999992016010609004+78917+011933FM-12+000899999V0209999C999999999999N999999999-00751-01021101911ADDMA1999999101811MD1310011+9999REMSYN04801007 46/// /0000 11075 21102 30181 40191 53001=
0089010070999992016010610004+78917+011933FM-12+000899999V0201601N001019999999N999999999-00771-01051101891ADDMA1999999101791MD1990001+9999REMSYN04801007 46/// /1601 11077 21105 30179 40189 50000=
0089010070999992016010611004+78917+011933FM-12+000899999V0201501N001019999999N999999999-00841-01131101891ADDMA1999999101791MD1990011+9999REMSYN04801007 46/// /1501 11084 21113 30179 40189 50001=
0244010070999992016010612004+78917+011933FM-12+000899999V0209999C999999999999N070001199-00841-01161101901ADDAA106000091AY101021AY201021GA1011+004501061GA2999+999999021GE19MSL   +99999+99999GF102991011999004501999999MA1999999101801MD1610011+9999MW1021OD139900401999REMSYN07601007 11489 20000 11084 21116 30180 40190 56001 60001 70200 81505 333 91104=
0089010070999992016010613004+78917+011933FM-12+000899999V0201501N002019999999N999999999-00801-01121101901ADDMA1999999101801MD1410001+9999REMSYN04801007 46/// /1502 11080 21112 30180 40190 54000=
0089010070999992016010614004+78917+011933FM-12+000899999V0209999C999999999999N999999999-00901-01181101911ADDMA1999999101801MD1210011+9999REMSYN04801007 46/// /0000 11090 21118 30180 40191 52001=
0089010070999992016010615004+78917+011933FM-12+000899999V0202401N002019999999N999999999-00901-01191101911ADDMA1999999101811MD1210011+9999REMSYN04801007 46/// /2402 11090 21119 30181 40191 52001=
0089010070999992016010616004+78917+011933FM-12+000899999V0201501N001019999999N999999999-00821-01161101921ADDMA1999999101821MD1210021+9999REMSYN04801007 46/// /1501 11082 21116 30182 40192 52002=
0089010070999992016010617004+78917+011933FM-12+000899999V0202101N001019999999N999999999-00881-01191101931ADDMA1999999101831MD1210031+9999REMSYN04801007 46/// /2101 11088 21119 30183 40193 52003=
0247010070999992016010618004+78917+011933FM-12+000899999V0201601N002019999999N070001199-00861-01201101961ADDAA112000091AY101021AY201021GA1011+008001061GE19MSL   +99999+99999GF101991011999008001999999KA1120M-00681MA1999999101861MD1210061+9999MW1021OD139900401999REMSYN08201007 11589 11602 11086 21120 30186 40196 52006 60002 70200 81500 333 11068 91104=
0089010070999992016010619004+78917+011933FM-12+000899999V0201401N002019999999N999999999-00831-01231102001ADDMA1999999101901MD1210081+9999REMSYN04801007 46/// /1402 11083 21123 30190 40200 52008=
0089010070999992016010620004+78917+011933FM-12+000899999V0202101N001019999999N999999999-00831-01301102021ADDMA1999999101921MD1210091+9999REMSYN04801007 46/// /2101 11083 21130 30192 40202 52009=
0089010070999992016010621004+78917+011933FM-12+000899999V0202601N001019999999N999999999-00781-01251102041ADDMA1999999101941MD1210081+9999REMSYN04801007 46/// /2601 11078 21125 30194 40204 52008=
0089010070999992016010622004+78917+011933FM-12+000899999V0201401N004019999999N999999999-00751-01291102101ADDMA1999999102001MD1310101+9999REMSYN04801007 46/// /1404 11075 21129 30200 40210 53010=
0093010070999992016010623004+78923+011933FM-12+000899999V0201451N0038199999999999999999-00701-01301102121ADDKA1010M-00671KA2010N-00791MA1999999102021MD1210101+9999OC100541OD130100701999REMSYN004BUFR
0130010070999992016010700004+78917+011933FM-12+000899999V0201301N006019999999N999999999-00771-01311102151ADDAA106000091MA1999999102051MD1210111+9999OD139900701999REMSYN06401007 16/// /1306 11077 21131 30205 40215 52011 60001 333 91107=
0089010070999992016010701004+78917+011933FM-12+000899999V0201401N005019999999N999999999-00801-01351102171ADDMA1999999102071MD1210071+9999REMSYN04801007 46/// /1405 11080 21135 30207 40217 52007=
0089010070999992016010702004+78917+011933FM-12+000899999V0201301N005019999999N999999999-00781-01391102201ADDMA1999999102101MD1210081+9999REMSYN04801007 46/// /1305 11078 21139 30210 40220 52008=
0089010070999992016010703004+78917+011933FM-12+000899999V0201301N006019999999N999999999-00821-01411102191ADDMA1999999102091MD1210041+9999REMSYN04801007 46/// /1306 11082 21141 30209 40219 52004=
0089010070999992016010704004+78917+011933FM-12+000899999V0201301N007019999999N999999999-00861-01411102201ADDMA1999999102091MD1210021+9999REMSYN04801007 46/// /1307 11086 21141 30209 40220 52002=
0089010070999992016010705004+78917+011933FM-12+000899999V0201301N006019999999N999999999-00831-01421102221ADDMA1999999102121MD1210021+9999REMSYN04801007 46/// /1306 11083 21142 30212 40222 52002=
0223010070999992016010706004+78917+011933FM-12+000899999V0201301N006019999999N070001199-00841-01471102261ADDAA112000091AA224000091AJ199991999999999AY101021AY201021IA1179KA1240N-00941MA1999999102161MD1310071+9999MW1021OD139900901999REMSYN08801007 11989 01306 11084 21147 30216 40226 53007 60002 70200 333 21094 40/// 70000 91109=
0089010070999992016010707004+78917+011933FM-12+000899999V0201301N007019999999N999999999-00891-01461102311ADDMA1999999102201MD1210111+9999REMSYN04801007 46/// /1307 11089 21146 30220 40231 52011=
0089010070999992016010708004+78917+011933FM-12+000899999V0201401N005019999999N999999999-00821-01471102321ADDMA1999999102221MD1210101+9999REMSYN04801007 46/// /1405 11082 21147 30222 40232 52010=
0089010070999992016010709004+78917+011933FM-12+000899999V0201401N005019999999N999999999-00861-01471102361ADDMA1999999102251MD1210101+9999REMSYN04801007 46/// /1405 11086 21147 30225 40236 52010=
0089010070999992016010710004+78917+011933FM-12+000899999V0201401N004019999999N999999999-00821-01411102361ADDMA1999999102261MD1210051+9999REMSYN04801007 46/// /1404 11082 21141 30226 40236 52005=
0089010070999992016010711004+78917+011933FM-12+000899999V0201001N005019999999N999999999-00691-01381102361ADDMA1999999102261MD1210041+9999REMSYN04801007 46/// /1005 11069 21138 30226 40236 52004=
0244010070999992016010712004+78917+011933FM-12+000899999V0201301N005019999999N070001199-00811-01421102351ADDAA106000091AY121021AY211021GA1051+012501061GA2999+999999031GE19MSL   +99999+99999GF107991051999012501999999MA1999999102251MD1710011+9999MW1031OD139900901999REMSYN07601007 11689 71305 11081 21142 30225 40235 57001 60001 70321 8553/ 333 91109=
0089010070999992016010713004+78917+011933FM-12+000899999V0201401N004019999999N999999999-00851-01491102361ADDMA1999999102261MD1410001+9999REMSYN04801007 46/// /1404 11085 21149 30226 40236 54000=
0089010070999992016010714004+78917+011933FM-12+000899999V0201301N005019999999N999999999-00811-01461102351ADDMA1999999102241MD1710021+9999REMSYN04801007 46/// /1305 11081 21146 30224 40235 57002=
0089010070999992016010715004+78917+011933FM-12+000899999V0200901N008019999999N999999999-00711-01401102351ADDMA1999999102251MD1210011+9999REMSYN04801007 46/// /0908 11071 21140 30225 40235 52001=
0089010070999992016010716004+78917+011933FM-12+000899999V0201101N005019999999N999999999-00821-01531102341ADDMA1999999102241MD1710021+9999REMSYN04801007 46/// /1105 11082 21153 30224 40234 57002=
0089010070999992016010717004+78917+011933FM-12+000899999V0201401N005019999999N999999999-00821-01591102311ADDMA1999999102211MD1810041+9999REMSYN04801007 46/// /1405 11082 21159 30221 40231 58004=
0149010070999992016010718004+78917+011933FM-12+000899999V0200901N007019999999N999999999-00791-01521102321ADDAA112000091KA1120M-00661MA1999999102221MD1610031+9999OD139901201999REMSYN07001007 16/// /0907 11079 21152 30222 40232 56003 60002 333 11066 91112=
0089010070999992016010719004+78917+011933FM-12+000899999V0201001N007019999999N999999999-00841-01651102311ADDMA1999999102211MD1610031+9999REMSYN04801007 46/// /1007 11084 21165 30221 40231 56003=
0089010070999992016010720004+78917+011933FM-12+000899999V0201501N005019999999N999999999-01051-01681102321ADDMA1999999102221MD1210011+9999REMSYN04801007 46/// /1505 11105 21168 30222 40232 52001=
0089010070999992016010721004+78917+011933FM-12+000899999V0201401N005019999999N999999999-01091-01721102301ADDMA1999999102191MD1810031+9999REMSYN04801007 46/// /1405 11109 21172 30219 40230 58003=
0089010070999992016010722004+78917+011933FM-12+000899999V0201201N007019999999N999999999-01031-01651102261ADDMA1999999102161MD1810051+9999REMSYN04801007 46/// /1207 11103 21165 30216 40226 58005=
0089010070999992016010723004+78917+011933FM-12+000899999V0201301N006019999999N999999999-01111-01761102211ADDMA1999999102111MD1710111+9999REMSYN04801007 46/// /1306 11111 21176 30211 40221 57011=
0130010070999992016010800004+78917+011933FM-12+000899999V0201401N005019999999N999999999-01121-01751102151ADDAA106000091MA1999999102051MD1710151+9999OD139901001999REMSYN06401007 16/// /1405 11112 21175 30205 40215 57015 60001 333 91110=
0089010070999992016010801004+78917+011933FM-12+000899999V0201301N006019999999N999999999-01121-01751102121ADDMA1999999102021MD1710141+9999REMSYN04801007 46/// /1306 11112 21175 30202 40212 57014=
0089010070999992016010802004+78917+011933FM-12+000899999V0201401N005019999999N999999999-01091-01671102081ADDMA1999999101981MD1710131+9999REMSYN04801007 46/// /1405 11109 21167 30198 40208 57013=
0089010070999992016010803004+78917+011933FM-12+000899999V0201401N004019999999N999999999-01101-01701102051ADDMA1999999101951MD1710101+9999REMSYN04801007 46/// /1404 11110 21170 30195 40205 57010=
0089010070999992016010804004+78917+011933FM-12+000899999V0201401N004019999999N999999999-01121-01641102011ADDMA1999999101911MD1710111+9999REMSYN04801007 46/// /1404 11112 21164 30191 40201 57011=
0089010070999992016010805004+78917+011933FM-12+000899999V0201501N005019999999N999999999-01191-01681101961ADDMA1999999101861MD1710121+9999REMSYN04801007 46/// /1505 11119 21168 30186 40196 57012=
0293010070999992016010806004+78917+011933FM-12+000899999V0201401N004019999999N070001199-01201-01671101951ADDAA112000091AA224000091AJ199991999999999AY101021AY201021GA1011+022501031GE19MSL   +99999+99999GF101991011999022501999999IA1179KA1240N-01231MA1999999101851MD1610101+9999MW1021OD139900701999REMSYN09401007 11889 11404 11120 21167 30185 40195 56010 60002 70200 81030 333 21123 40/// 70000 91107=
0089010070999992016010807004+78917+011933FM-12+000899999V0201501N004019999999N999999999-01171-01691101931ADDMA1999999101831MD1610081+9999REMSYN04801007 46/// /1504 11117 21169 30183 40193 56008=
0089010070999992016010808004+78917+011933FM-12+000899999V0201301N004019999999N999999999-01191-01711101931ADDMA1999999101831MD1710031+9999REMSYN04801007 46/// /1304 11119 21171 30183 40193 57003=
0089010070999992016010809004+78917+011933FM-12+000899999V0201501N004019999999N999999999-01201-01741101911ADDMA1999999101811MD1710041+9999REMSYN04801007 46/// /1504 11120 21174 30181 40191 57004=
0089010070999992016010810004+78917+011933FM-12+000899999V0201701N003019999999N999999999-01171-01711101891ADDMA1999999101791MD1710041+9999REMSYN04801007 46/// /1703 11117 21171 30179 40189 57004=
0089010070999992016010811004+78917+011933FM-12+000899999V0201601N003019999999N999999999-01171-01671101851ADDMA1999999101751MD1710081+9999REMSYN04801007 46/// /1603 11117 21167 30175 40185 57008=
0130010070999992016010812004+78917+011933FM-12+000899999V0202401N003019999999N999999999-01131-01691101841ADDAA106000091MA1999999101741MD1610071+9999OD139900801999REMSYN06401007 16/// /2403 11113 21169 30174 40184 56007 60001 333 91108=
0089010070999992016010813004+78917+011933FM-12+000899999V0202501N003019999999N999999999-01071-01531101831ADDMA1999999101731MD1610061+9999REMSYN04801007 46/// /2503 11107 21153 30173 40183 56006=
0089010070999992016010814004+78917+011933FM-12+000899999V0202501N002019999999N999999999-01061-01441101811ADDMA1999999101711MD1710041+9999REMSYN04801007 46/// /2502 11106 21144 30171 40181 57004=
0089010070999992016010815004+78917+011933FM-12+000899999V0202501N002019999999N999999999-00951-01321101771ADDMA1999999101671MD1710071+9999REMSYN04801007 46/// /2502 11095 21132 30167 40177 57007=
0089010070999992016010816004+78917+011933FM-12+000899999V0202401N003019999999N999999999-00921-01241101781ADDMA1999999101681MD1610051+9999REMSYN04801007 46/// /2403 11092 21124 30168 40178 56005=
0089010070999992016010817004+78917+011933FM-12+000899999V0201301N004019999999N999999999-00721-01261101761ADDMA1999999101661MD1810051+9999REMSYN04801007 46/// /1304 11072 21126 30166 40176 58005=
0149010070999992016010818004+78917+011933FM-12+000899999V0201201N007019999999N999999999-00741-01371101771ADDAA112000091KA1120M-00681MA1999999101671MD1990001+9999OD139901101999REMSYN07001007 16/// /1207 11074 21137 30167 40177 50000 60002 333 11068 91111=
0089010070999992016010819004+78917+011933FM-12+000899999V0201201N009019999999N999999999-00751-01311101791ADDMA1999999101691MD1310011+9999REMSYN04801007 46/// /1209 11075 21131 30169 40179 53001=
0089010070999992016010820004+78917+011933FM-12+000899999V0201101N012019999999N999999999-00691-01251101791ADDMA1999999101691MD1210031+9999REMSYN04801007 46/// /1112 11069 21125 30169 40179 52003=
0089010070999992016010821004+78917+011933FM-12+000899999V0201201N013019999999N999999999-00761-01261101821ADDMA1999999101721MD1310051+9999REMSYN04801007 46/// /1213 11076 21126 30172 40182 53005=
0089010070999992016010822004+78917+011933FM-12+000899999V0201201N011019999999N999999999-00721-01241101821ADDMA1999999101721MD1990031+9999REMSYN04801007 46/// /1211 11072 21124 30172 40182 50003=
0089010070999992016010823004+78917+011933FM-12+000899999V0201301N012019999999N999999999-00761-01321101871ADDMA1999999101771MD1110081+9999REMSYN04801007 46/// /1312 11076 21132 30177 40187 51008=
0130010070999992016010900004+78917+011933FM-12+000899999V0201201N009019999999N999999999-00731-01291101881ADDAA106000091MA1999999101781MD1210061+9999OD139901701999REMSYN06401007 16/// /1209 11073 21129 30178 40188 52006 60001 333 91117=
0089010070999992016010901004+78917+011933FM-12+000899999V0201201N010019999999N999999999-00691-01211101911ADDMA1999999101811MD1210091+9999REMSYN04801007 46/// /1210 11069 21121 30181 40191 52009=
0089010070999992016010902004+78917+011933FM-12+000899999V0201201N008019999999N999999999-00721-01211101961ADDMA1999999101861MD1310101+9999REMSYN04801007 46/// /1208 11072 21121 30186 40196 53010=
0089010070999992016010903004+78917+011933FM-12+000899999V0201201N005019999999N999999999-00681-01291101971ADDMA1999999101871MD1110091+9999REMSYN04801007 46/// /1205 11068 21129 30187 40197 51009=
0089010070999992016010904004+78917+011933FM-12+000899999V0201001N008019999999N999999999-00651-01161101971ADDMA1999999101871MD1990061+9999REMSYN04801007 46/// /1008 11065 21116 30187 40197 50006=
0089010070999992016010905004+78917+011933FM-12+000899999V0201101N009019999999N999999999-00761-01301101971ADDMA1999999101871MD1410001+9999REMSYN04801007 46/// /1109 11076 21130 30187 40197 54000=
0166010070999992016010906004+78917+011933FM-12+000899999V0201101N011019999999N999999999-00651-01161101981ADDAA112000091AA224000091KA1240N-00821MA1999999101881MD1510011+9999OD139901401999REMSYN07601007 16/// /1111 11065 21116 30188 40198 55001 60002 333 21082 70000 91114=
0089010070999992016010907004+78917+011933FM-12+000899999V0201101N010019999999N999999999-00701-01201102001ADDMA1999999101901MD1310031+9999REMSYN04801007 46/// /1110 11070 21120 30190 40200 53003=
0089010070999992016010908004+78917+011933FM-12+000899999V0201101N009019999999N999999999-00711-01201102021ADDMA1999999101921MD1310061+9999REMSYN04801007 46/// /1109 11071 21120 30192 40202 53006=
0089010070999992016010909004+78917+011933FM-12+000899999V0201001N009019999999N999999999-00681-01191102031ADDMA1999999101931MD1210051+9999REMSYN04801007 46/// /1009 11068 21119 30193 40203 52005=
0089010070999992016010910004+78917+011933FM-12+000899999V0201001N009019999999N999999999-00701-01201102021ADDMA1999999101921MD1990021+9999REMSYN04801007 46/// /1009 11070 21120 30192 40202 50002=
0108010070999992016010911004+78917+011933FM-12+000899999V0201001N009019999999N999999999-00671-01181102031ADDMA1999999101931MD1290019+9999REMSYN04801007 46/// /1009 11067 21118 30193 40203 54001=EQDQ01.1    3APC3  
0149010070999992016010912004+78917+011933FM-12+000899999V0201201N005019999999N999999999-00671-01281102031ADDAA106000091MA1999999101931MD1410009+9999OD139901601999REMSYN06401007 16/// /1205 11067 21128 30193 40203 54001 60001 333 91116=EQDQ01.1    3APC3  
0089010070999992016010913004+78917+011933FM-12+000899999V0201301N004019999999N999999999-00671-01271102051ADDMA1999999101951MD1310031+9999REMSYN04801007 46/// /1304 11067 21127 30195 40205 53003=
0089010070999992016010914004+78917+011933FM-12+000899999V0201201N007019999999N999999999-00701-01391102051ADDMA1999999101951MD1310021+9999REMSYN04801007 46/// /1207 11070 21139 30195 40205 53002=
0089010070999992016010915004+78917+011933FM-12+000899999V0201201N006019999999N999999999-00691-01341102051ADDMA1999999101951MD1210021+9999REMSYN04801007 46/// /1206 11069 21134 30195 40205 52002=
0089010070999992016010916004+78917+011933FM-12+000899999V0201301N006019999999N999999999-00741-01331102061ADDMA1999999101961MD1310011+9999REMSYN04801007 46/// /1306 11074 21133 30196 40206 53001=
0108010070999992016010917004+78917+011933FM-12+000899999V0201301N005019999999N999999999-00771-01341102061ADDMA1999999101961MD1290019+9999REMSYN04801007 46/// /1305 11077 21134 30196 40206 52000=EQDQ010     3APC3  
0149010070999992016010918004+78917+011933FM-12+000899999V0201201N005019999999N999999999-00791-01381102071ADDAA112000091KA1120M-00611MA1999999101971MD1210021+9999OD139901101999REMSYN07001007 16/// /1205 11079 21138 30197 40207 52002 60002 333 11061 91111=
0089010070999992016010919004+78917+011933FM-12+000899999V0201301N005019999999N999999999-00811-01401102071ADDMA1999999101971MD1210011+9999REMSYN04801007 46/// /1305 11081 21140 30197 40207 52001=
0089010070999992016010920004+78917+011933FM-12+000899999V0201201N006019999999N999999999-00751-01271102081ADDMA1999999101981MD1210021+9999REMSYN04801007 46/// /1206 11075 21127 30198 40208 52002=
0089010070999992016010921004+78917+011933FM-12+000899999V0201001N009019999999N999999999-00711-01211102081ADDMA1999999101981MD1210011+9999REMSYN04801007 46/// /1009 11071 21121 30198 40208 52001=
0089010070999992016010922004+78917+011933FM-12+000899999V0201001N008019999999N999999999-00721-01261102101ADDMA1999999102001MD1210021+9999REMSYN04801007 46/// /1008 11072 21126 30200 40210 52002=
0089010070999992016010923004+78917+011933FM-12+000899999V0201301N006019999999N999999999-00781-01411102101ADDMA1999999102001MD1210021+9999REMSYN04801007 46/// /1306 11078 21141 30200 40210 52002=
0130010070999992016011000004+78917+011933FM-12+000899999V0201301N003019999999N999999999-00821-01411102131ADDAA106000091MA1999999102031MD1210051+9999OD139901301999REMSYN06401007 16/// /1303 11082 21141 30203 40213 52005 60001 333 91113=
0089010070999992016011001004+78917+011933FM-12+000899999V0201401N004019999999N999999999-00861-01391102151ADDMA1999999102051MD1310061+9999REMSYN04801007 46/// /1404 11086 21139 30205 40215 53006=
0089010070999992016011002004+78917+011933FM-12+000899999V0201401N005019999999N999999999-00921-01471102141ADDMA1999999102041MD1990041+9999REMSYN04801007 46/// /1405 11092 21147 30204 40214 50004=
0089010070999992016011003004+78917+011933FM-12+000899999V0201201N006019999999N999999999-00821-01341102131ADDMA1999999102021MD1810011+9999REMSYN04801007 46/// /1206 11082 21134 30202 40213 58001=
0089010070999992016011004004+78917+011933FM-12+000899999V0201201N005019999999N999999999-00871-01441102131ADDMA1999999102031MD1710031+9999REMSYN04801007 46/// /1205 11087 21144 30203 40213 57003=
0089010070999992016011005004+78917+011933FM-12+000899999V0201401N005019999999N999999999-00921-01431102131ADDMA1999999102031MD1710011+9999REMSYN04801007 46/// /1405 11092 21143 30203 40213 57001=
0166010070999992016011006004+78917+011933FM-12+000899999V0201601N003019999999N999999999-00951-01451102161ADDAA112000091AA224000091KA1240N-00961MA1999999102061MD1210031+9999OD139901101999REMSYN07601007 16/// /1603 11095 21145 30206 40216 52003 60002 333 21096 70000 91111=
0089010070999992016011007004+78917+011933FM-12+000899999V0201501N004019999999N999999999-00871-01371102161ADDMA1999999102061MD1210041+9999REMSYN04801007 46/// /1504 11087 21137 30206 40216 52004=
0089010070999992016011008004+78917+011933FM-12+000899999V0201601N004019999999N999999999-00991-01471102171ADDMA1999999102071MD1210041+9999REMSYN04801007 46/// /1604 11099 21147 30207 40217 52004=
0089010070999992016011009004+78917+011933FM-12+000899999V0202501N001019999999N999999999-00971-01501102201ADDMA1999999102101MD1210041+9999REMSYN04801007 46/// /2501 11097 21150 30210 40220 52004=
0089010070999992016011010004+78917+011933FM-12+000899999V0202301N002019999999N999999999-01031-01541102211ADDMA1999999102111MD1210051+9999REMSYN04801007 46/// /2302 11103 21154 30211 40221 52005=
0089010070999992016011011004+78917+011933FM-12+000899999V0202301N001019999999N999999999-00981-01531102221ADDMA1999999102121MD1210051+9999REMSYN04801007 46/// /2301 11098 21153 30212 40222 52005=
0130010070999992016011012004+78917+011933FM-12+000899999V0202501N003019999999N999999999-00981-01541102251ADDAA106000091MA1999999102141MD1310051+9999OD139900701999REMSYN06401007 16/// /2503 11098 21154 30214 40225 53005 60001 333 91107=
0089010070999992016011013004+78917+011933FM-12+000899999V0201201N005019999999N999999999-01011-01551102261ADDMA1999999102161MD1310051+9999REMSYN04801007 46/// /1205 11101 21155 30216 40226 53005=
0089010070999992016011014004+78917+011933FM-12+000899999V0201301N003019999999N999999999-00891-01401102281ADDMA1999999102181MD1210061+9999REMSYN04801007 46/// /1303 11089 21140 30218 40228 52006=
0089010070999992016011015004+78917+011933FM-12+000899999V0201601N003019999999N999999999-01011-01501102281ADDMA1999999102181MD1210041+9999REMSYN04801007 46/// /1603 11101 21150 30218 40228 52004=
0089010070999992016011016004+78917+011933FM-12+000899999V0201501N004019999999N999999999-01021-01511102291ADDMA1999999102191MD1210031+9999REMSYN04801007 46/// /1504 11102 21151 30219 40229 52003=
0089010070999992016011017004+78917+011933FM-12+000899999V0201501N002019999999N999999999-00981-01491102291ADDMA1999999102191MD1210011+9999REMSYN04801007 46/// /1502 11098 21149 30219 40229 52001=
0149010070999992016011018004+78917+011933FM-12+000899999V0201501N004019999999N999999999-01001-01531102301ADDAA112000091KA1120M-00871MA1999999102191MD1210011+9999OD139900701999REMSYN07001007 16/// /1504 11100 21153 30219 40230 52001 60002 333 11087 91107=
0089010070999992016011019004+78917+011933FM-12+000899999V0201601N004019999999N999999999-00981-01491102321ADDMA1999999102221MD1210031+9999REMSYN04801007 46/// /1604 11098 21149 30222 40232 52003=
0089010070999992016011020004+78917+011933FM-12+000899999V0201401N005019999999N999999999-00951-01451102351ADDMA1999999102241MD1210051+9999REMSYN04801007 46/// /1405 11095 21145 30224 40235 52005=
0089010070999992016011021004+78917+011933FM-12+000899999V0201501N005019999999N999999999-00921-01431102401ADDMA1999999102291MD1210101+9999REMSYN04801007 46/// /1505 11092 21143 30229 40240 52010=
0089010070999992016011022004+78917+011933FM-12+000899999V0201201N005019999999N999999999-00901-01451102401ADDMA1999999102301MD1990081+9999REMSYN04801007 46/// /1205 11090 21145 30230 40240 50008=
0089010070999992016011023004+78917+011933FM-12+000899999V0201301N005019999999N999999999-00881-01411102381ADDMA1999999102281MD1990041+9999REMSYN04801007 46/// /1305 11088 21141 30228 40238 50004=
0130010070999992016011100004+78917+011933FM-12+000899999V0201301N006019999999N999999999-00861-01381102411ADDAA106000091MA1999999102311MD1310011+9999OD139900901999REMSYN06401007 16/// /1306 11086 21138 30231 40241 53001 60001 333 91109=
0089010070999992016011101004+78917+011933FM-12+000899999V0201101N007019999999N999999999-00691-01191102401ADDMA1999999102301MD1410001+9999REMSYN04801007 46/// /1107 11069 21119 30230 40240 54000=
0089010070999992016011102004+78917+011933FM-12+000899999V0201001N008019999999N999999999-00641-01221102421ADDMA1999999102321MD1210041+9999REMSYN04801007 46/// /1008 11064 21122 30232 40242 52004=
0089010070999992016011103004+78917+011933FM-12+000899999V0201001N009019999999N999999999-00671-01231102451ADDMA1999999102351MD1310041+9999REMSYN04801007 46/// /1009 11067 21123 30235 40245 53004=
0089010070999992016011104004+78917+011933FM-12+000899999V0201001N008019999999N999999999-00661-01171102461ADDMA1999999102361MD1210061+9999REMSYN04801007 46/// /1008 11066 21117 30236 40246 52006=
0089010070999992016011105004+78917+011933FM-12+000899999V0200901N008019999999N999999999-00651-01191102501ADDMA1999999102401MD1210071+9999REMSYN04801007 46/// /0908 11065 21119 30240 40250 52007=
0207010070999992016011106004+78923+011933FM-12+000899999V0201021N0081199999999075000199-00651-01211102531ADDAA112999999AA224999999AY101061AY201061GA1021+025001031GE19MSL   +99999+99999GF102991021999025001999999IA1179KA1120M-00601KA2120N-01031MA1999999102431MD1210081+9999MW1021OC101001OD130601111999REMSYN004BUFR
0089010070999992016011107004+78917+011933FM-12+000899999V0201001N008019999999N999999999-00711-01271102601ADDMA1999999102501MD1310131+9999REMSYN04801007 46/// /1008 11071 21127 30250 40260 53013=
0089010070999992016011108004+78917+011933FM-12+000899999V0201001N008019999999N999999999-00691-01251102661ADDMA1999999102551MD1210161+9999REMSYN04801007 46/// /1008 11069 21125 30255 40266 52016=
0089010070999992016011109004+78917+011933FM-12+000899999V0201101N006019999999N999999999-00711-01251102711ADDMA1999999102601MD1210171+9999REMSYN04801007 46/// /1106 11071 21125 30260 40271 52017=
0089010070999992016011110004+78917+011933FM-12+000899999V0201201N005019999999N999999999-00851-01331102751ADDMA1999999102651MD1210151+9999REMSYN04801007 46/// /1205 11085 21133 30265 40275 52015=
0089010070999992016011111004+78917+011933FM-12+000899999V0201401N004019999999N999999999-00881-01341102801ADDMA1999999102701MD1210151+9999REMSYN04801007 46/// /1404 11088 21134 30270 40280 52015=
0244010070999992016011112004+78917+011933FM-12+000899999V0201401N003019999999N070001199-00871-01351102851ADDAA106000091AY101021AY201021GA1011+999999031GA2999+999999001GE19MSL   +99999+99999GF101991011999999999999999MA1999999102751MD1210151+9999MW1021OD139901001999REMSYN07601007 11989 11403 11087 21135 30275 40285 52015 60001 70200 81071 333 91110=
0089010070999992016011113004+78917+011933FM-12+000899999V0201501N004019999999N999999999-00811-01331102901ADDMA1999999102791MD1210141+9999REMSYN04801007 46/// /1504 11081 21133 30279 40290 52014=
0089010070999992016011114004+78917+011933FM-12+000899999V0201401N004019999999N999999999-00781-01351102911ADDMA1999999102811MD1110111+9999REMSYN04801007 46/// /1404 11078 21135 30281 40291 51011=
0089010070999992016011115004+78917+011933FM-12+000899999V0201301N005019999999N999999999-00831-01361102921ADDMA1999999102821MD1210071+9999REMSYN04801007 46/// /1305 11083 21136 30282 40292 52007=
0089010070999992016011116004+78917+011933FM-12+000899999V0201301N006019999999N999999999-00811-01331102961ADDMA1999999102861MD1210061+9999REMSYN04801007 46/// /1306 11081 21133 30286 40296 52006=
0089010070999992016011117004+78917+011933FM-12+000899999V0201001N007019999999N999999999-00761-01231103021ADDMA1999999102911MD1310101+9999REMSYN04801007 46/// /1007 11076 21123 30291 40302 53010=
0149010070999992016011118004+78917+011933FM-12+000899999V0201401N005019999999N999999999-00851-01221103071ADDAA112000091KA1120M-00621MA1999999102961MD1210141+9999OD139901001999REMSYN07001007 16/// /1405 11085 21122 30296 40307 52014 60002 333 11062 91110=
0089010070999992016011119004+78917+011933FM-12+000899999V0201201N007019999999N999999999-00771-01291103101ADDMA1999999102991MD1210141+9999REMSYN04801007 46/// /1207 11077 21129 30299 40310 52014=
0089010070999992016011120004+78917+011933FM-12+000899999V0201401N004019999999N999999999-00831-01441103161ADDMA1999999103061MD1210141+9999REMSYN04801007 46/// /1404 11083 21144 30306 40316 52014=
0089010070999992016011121004+78917+011933FM-12+000899999V0201401N004019999999N999999999-00801-01431103181ADDMA1999999103081MD1210121+9999REMSYN04801007 46/// /1404 11080 21143 30308 40318 52012=
0089010070999992016011122004+78917+011933FM-12+000899999V0201401N003019999999N999999999-00871-01441103211ADDMA1999999103111MD1110121+9999REMSYN04801007 46/// /1403 11087 21144 30311 40321 51012=
0089010070999992016011123004+78917+011933FM-12+000899999V0202401N002019999999N999999999-00881-01501103221ADDMA1999999103121MD1210071+9999REMSYN04801007 46/// /2402 11088 21150 30312 40322 52007=
0130010070999992016011200004+78917+011933FM-12+000899999V0202701N002019999999N999999999-01001-01581103271ADDAA106000091MA1999999103171MD1210081+9999OD139901001999REMSYN06401007 16/// /2702 11100 21158 30317 40327 52008 60001 333 91110=
0089010070999992016011201004+78917+011933FM-12+000899999V0202601N001019999999N999999999-00931-01511103301ADDMA1999999103201MD1210081+9999REMSYN04801007 46/// /2601 11093 21151 30320 40330 52008=
0089010070999992016011202004+78917+011933FM-12+000899999V0202101N001019999999N999999999-00921-01521103321ADDMA1999999103221MD1210101+9999REMSYN04801007 46/// /2101 11092 21152 30322 40332 52010=
0089010070999992016011203004+78917+011933FM-12+000899999V0201201N002019999999N999999999-00881-01471103351ADDMA1999999103241MD1210081+9999REMSYN04801007 46/// /1202 11088 21147 30324 40335 52008=
0089010070999992016011204004+78917+011933FM-12+000899999V0202801N001019999999N999999999-00941-01491103361ADDMA1999999103261MD1210061+9999REMSYN04801007 46/// /2801 11094 21149 30326 40336 52006=
0089010070999992016011205004+78917+011933FM-12+000899999V0201501N001019999999N999999999-01001-01551103351ADDMA1999999103251MD1210031+9999REMSYN04801007 46/// /1501 11100 21155 30325 40335 52003=
0147010070999992016011206004+78923+011933FM-12+000899999V0201911N0007122000199075000199-00991-01541103381ADDAA112999999AA224999999AY101061AY201061GF100991999999999999999999IA1179KA1120M-00741KA2120N-01081MA1999999103271MD1310031+9999MW1021REMSYN004BUFR
0089010070999992016011207004+78917+011933FM-12+000899999V0203101N001019999999N999999999-01011-01541103401ADDMA1999999103301MD1310041+9999REMSYN04801007 46/// /3101 11101 21154 30330 40340 53004=
0089010070999992016011208004+78917+011933FM-12+000899999V0209999C999999999999N999999999-01121-01661103411ADDMA1999999103311MD1210061+9999REMSYN04801007 46/// /0000 11112 21166 30331 40341 52006=
0089010070999992016011209004+78917+011933FM-12+000899999V0201701N001019999999N999999999-01121-01611103441ADDMA1999999103331MD1210061+9999REMSYN04801007 46/// /1701 11112 21161 30333 40344 52006=
0071010070999992016011210004+78923+011933FM-12+000899999V0201211N0016199999999999999999-00971-01541103431ADDKA1010M-00961KA2010N-01111MA1999999103331MD1010031+9999REMSYN004BUFR
0089010070999992016011211004+78917+011933FM-12+000899999V0201301N002019999999N999999999-01061-01591103411ADDMA1999999103311MD1990001+9999REMSYN04801007 46/// /1302 11106 21159 30331 40341 50000=
0247010070999992016011212004+78917+011933FM-12+000899999V0209999C999999999999N070001199-01081-01591103391ADDAA106000091AY101021AY201021GA1999+999999001GE19MSL   +99999+99999GF101991001999999999999999MA1999999103281MD1710051+9999MW1021OD139900401999REMSYN07601007 11989 10000 11108 21159 30328 40339 57005 60001 70200 80001 333 91104=EQDQ01    003SCCGA1
0089010070999992016011213004+78917+011933FM-12+000899999V0202501N002019999999N999999999-01181-01651103371ADDMA1999999103271MD1710061+9999REMSYN04801007 46/// /2502 11118 21165 30327 40337 57006=
0089010070999992016011214004+78917+011933FM-12+000899999V0202701N001019999999N999999999-01231-01671103361ADDMA1999999103251MD1710051+9999REMSYN04801007 46/// /2701 11123 21167 30325 40336 57005=
0089010070999992016011215004+78917+011933FM-12+000899999V0201601N002019999999N999999999-00941-01601103321ADDMA1999999103221MD1710071+9999REMSYN04801007 46/// /1602 11094 21160 30322 40332 57007=
0089010070999992016011216004+78917+011933FM-12+000899999V0203101N001019999999N999999999-01011-01571103291ADDMA1999999103191MD1710081+9999REMSYN04801007 46/// /3101 11101 21157 30319 40329 57008=
0089010070999992016011217004+78917+011933FM-12+000899999V0201301N001019999999N999999999-00941-01511103241ADDMA1999999103141MD1710111+9999REMSYN04801007 46/// /1301 11094 21151 30314 40324 57011=
0266010070999992016011218004+78917+011933FM-12+000899999V0202201N001019999999N070001199-01121-01661103191ADDAA112000091AY101021AY201021GA1999+999999001GE19MSL   +99999+99999GF101991001999999999999999KA1120M-00901MA1999999103091MD1710131+9999MW1021OD139900401999REMSYN08201007 11989 12201 11112 21166 30309 40319 57013 60002 70200 80001 333 11090 91104=EQDQ01    003SCCGA1
0089010070999992016011219004+78917+011933FM-12+000899999V0209999C999999999999N999999999-01011-01611103151ADDMA1999999103051MD1710141+9999REMSYN04801007 46/// /0000 11101 21161 30305 40315 57014=
0089010070999992016011220004+78917+011933FM-12+000899999V0201701N001019999999N999999999-00991-01611103101ADDMA1999999103001MD1710141+9999REMSYN04801007 46/// /1701 11099 21161 30300 40310 57014=
0089010070999992016011221004+78917+011933FM-12+000899999V0202201N001019999999N999999999-00991-01611103041ADDMA1999999102941MD1710151+9999REMSYN04801007 46/// /2201 11099 21161 30294 40304 57015=
0089010070999992016011222004+78917+011933FM-12+000899999V0202401N001019999999N999999999-00971-01631102991ADDMA1999999102891MD1710161+9999REMSYN04801007 46/// /2401 11097 21163 30289 40299 57016=
0089010070999992016011223004+78917+011933FM-12+000899999V0209999C999999999999N999999999-01041-01691102911ADDMA1999999102801MD1810191+9999REMSYN04801007 46/// /0000 11104 21169 30280 40291 58019=
0130010070999992016011300004+78917+011933FM-12+000899999V0202801N002019999999N999999999-01031-01671102841ADDAA106000091MA1999999102741MD1710201+9999OD139900201999REMSYN06401007 16/// /2802 11103 21167 30274 40284 57020 60001 333 91102=
0089010070999992016011301004+78917+011933FM-12+000899999V0202001N002019999999N999999999-01001-01701102791ADDMA1999999102681MD1710201+9999REMSYN04801007 46/// /2002 11100 21170 30268 40279 57020=
0089010070999992016011302004+78917+011933FM-12+000899999V0201601N001019999999N999999999-00891-01721102711ADDMA1999999102611MD1710191+9999REMSYN04801007 46/// /1601 11089 21172 30261 40271 57019=
0089010070999992016011303004+78917+011933FM-12+000899999V0201201N001019999999N999999999-00931-01691102611ADDMA1999999102511MD1810231+9999REMSYN04801007 46/// /1201 11093 21169 30251 40261 58023=
0089010070999992016011304004+78917+011933FM-12+000899999V0201501N003019999999N999999999-00961-01681102541ADDMA1999999102441MD1610251+9999REMSYN04801007 46/// /1503 11096 21168 30244 40254 56025=
0089010070999992016011305004+78917+011933FM-12+000899999V0202501N002019999999N999999999-00921-01581102481ADDMA1999999102381MD1610231+9999REMSYN04801007 46/// /2502 11092 21158 30238 40248 56023=
0293010070999992016011306004+78917+011933FM-12+000899999V0201601N001019999999N030000199-00891-01401102421ADDAA112000231AA224000231AJ199991999999999AY181021AY211021GA1071+008001081GE19MSL   +99999+99999GF107991071999008001999999IA1179KA1240N-01151MA1999999102321MD1610191+9999MW1851OD139900501999REMSYN09401007 11580 71601 11089 21140 30232 40242 56019 69922 78581 87800 333 21115 40/// 70002 91105=
0089010070999992016011307004+78917+011933FM-12+000899999V0202501N002019999999N999999999-00991-01331102411ADDMA1999999102301MD1610131+9999REMSYN04801007 46/// /2502 11099 21133 30230 40241 56013=
0089010070999992016011308004+78917+011933FM-12+000899999V0202801N001019999999N999999999-00781-01061102361ADDMA1999999102261MD1710121+9999REMSYN04801007 46/// /2801 11078 21106 30226 40236 57012=
0089010070999992016011309004+78917+011933FM-12+000899999V0201401N001019999999N999999999-00761-01041102351ADDMA1999999102251MD1710071+9999REMSYN04801007 46/// /1401 11076 21104 30225 40235 57007=
0089010070999992016011310004+78917+011933FM-12+000899999V0201501N001019999999N999999999-00711-00981102331ADDMA1999999102231MD1710081+9999REMSYN04801007 46/// /1501 11071 21098 30223 40233 57008=
0089010070999992016011311004+78917+011933FM-12+000899999V0203201N001019999999N999999999-00871-01091102301ADDMA1999999102201MD1710061+9999REMSYN04801007 46/// /3201 11087 21109 30220 40230 57006=
0244010070999992016011312004+78917+011933FM-12+000899999V0202401N002019999999N070000199-00691-00921102251ADDAA106000091AY121021AY221021GA1031+012501081GA2999+999999031GE19MSL   +99999+99999GF106991031999012501999999MA1999999102151MD1710101+9999MW1021OD139900301999REMSYN07601007 11688 62402 11069 21092 30215 40225 57010 60001 70222 83870 333 91103=
0089010070999992016011313004+78917+011933FM-12+000899999V0202901N002019999999N999999999-00641-01061102201ADDMA1999999102101MD1710121+9999REMSYN04801007 46/// /2902 11064 21106 30210 40220 57012=
0089010070999992016011314004+78917+011933FM-12+000899999V0202801N004019999999N999999999-00731-01131102181ADDMA1999999102081MD1610121+9999REMSYN04801007 46/// /2804 11073 21113 30208 40218 56012=
0089010070999992016011315004+78917+011933FM-12+000899999V0203001N006019999999N999999999-00711-01071102141ADDMA1999999102031MD1710121+9999REMSYN04801007 46/// /3006 11071 21107 30203 40214 57012=
0089010070999992016011316004+78917+011933FM-12+000899999V0202801N004019999999N999999999-00761-01121102111ADDMA1999999102011MD1710101+9999REMSYN04801007 46/// /2804 11076 21112 30201 40211 57010=
0089010070999992016011317004+78917+011933FM-12+000899999V0202901N005019999999N999999999-00711-01071102051ADDMA1999999101951MD1810131+9999REMSYN04801007 46/// /2905 11071 21107 30195 40205 58013=
0263010070999992016011318004+78917+011933FM-12+000899999V0202801N005019999999N070000199-00741-01081102001ADDAA112000091AY121021AY221021GA1031+012501081GA2999+999999031GE19MSL   +99999+99999GF107991031999012501999999KA1120M-00591MA1999999101901MD1810131+9999MW1021OD139900701999REMSYN08201007 11688 72805 11074 21108 30190 40200 58013 60002 70222 8387/ 333 11059 91107=
0089010070999992016011319004+78917+011933FM-12+000899999V0202801N004019999999N999999999-00711-01131101921ADDMA1999999101821MD1810181+9999REMSYN04801007 46/// /2804 11071 21113 30182 40192 58018=
0089010070999992016011320004+78917+011933FM-12+000899999V0202701N004019999999N999999999-00651-01061101891ADDMA1999999101791MD1610151+9999REMSYN04801007 46/// /2704 11065 21106 30179 40189 56015=
0089010070999992016011321004+78917+011933FM-12+000899999V0202601N003019999999N999999999-00691-00971101841ADDMA1999999101741MD1610161+9999REMSYN04801007 46/// /2603 11069 21097 30174 40184 56016=
0089010070999992016011322004+78917+011933FM-12+000899999V0202601N003019999999N999999999-00681-01041101751ADDMA1999999101651MD1810171+9999REMSYN04801007 46/// /2603 11068 21104 30165 40175 58017=
0089010070999992016011323004+78917+011933FM-12+000899999V0202501N002019999999N999999999-00681-01071101661ADDMA1999999101561MD1810241+9999REMSYN04801007 46/// /2502 11068 21107 30156 40166 58024=
0130010070999992016011400004+78917+011933FM-12+000899999V0202601N001019999999N999999999-00681-01071101561ADDAA106000091MA1999999101461MD1710281+9999OD139900701999REMSYN06401007 16/// /2601 11068 21107 30146 40156 57028 60001 333 91107=
0089010070999992016011401004+78917+011933FM-12+000899999V0202201N001019999999N999999999-00671-01061101471ADDMA1999999101371MD1710281+9999REMSYN04801007 46/// /2201 11067 21106 30137 40147 57028=
0089010070999992016011402004+78917+011933FM-12+000899999V0201601N001019999999N999999999-00731-01061101351ADDMA1999999101251MD1710301+9999REMSYN04801007 46/// /1601 11073 21106 30125 40135 57030=
0089010070999992016011403004+78917+011933FM-12+000899999V0201601N001019999999N999999999-00711-01021101231ADDMA1999999101131MD1710331+9999REMSYN04801007 46/// /1601 11071 21102 30113 40123 57033=
0089010070999992016011404004+78917+011933FM-12+000899999V0202501N006019999999N999999999-00531-00751101121ADDMA1999999101021MD1710351+9999REMSYN04801007 46/// /2506 11053 21075 30102 40112 57035=
0089010070999992016011405004+78917+011933FM-12+000899999V0202501N007019999999N999999999-00561-00851101011ADDMA1999999100911MD1610341+9999REMSYN04801007 46/// /2507 11056 21085 30091 40101 56034=
0309010070999992016011406004+78917+011933FM-12+000899999V0202401N009019999999N001500199-00551-00771100951ADDAA112001031AA224001031AJ100063100060099AY171021AY231021GA1061+004501071GA2999+999999051GE19MSL   +99999+99999GF108991061999004501999999IA1229KA1240N-00781MA1999999100861MD1610281+9999MW1731OD139901301999REMSYN09401007 11415 82409 11055 21077 30086 40095 56028 60012 77373 8672/ 333 21078 46006 70010 91113=
0089010070999992016011407004+78917+011933FM-12+000899999V0203101N007019999999N999999999-00731-01061100971ADDMA1999999100871MD1610151+9999REMSYN04801007 46/// /3107 11073 21106 30087 40097 56015=
0089010070999992016011408004+78917+011933FM-12+000899999V0202701N005019999999N999999999-00741-01111101001ADDMA1999999100901MD1610011+9999REMSYN04801007 46/// /2705 11074 21111 30090 40100 56001=
0089010070999992016011409004+78917+011933FM-12+000899999V0202701N003019999999N999999999-00891-01271101001ADDMA1999999100901MD1990041+9999REMSYN04801007 46/// /2703 11089 21127 30090 40100 50004=
0089010070999992016011410004+78917+011933FM-12+000899999V0202501N003019999999N999999999-00801-01251101021ADDMA1999999100921MD1310051+9999REMSYN04801007 46/// /2503 11080 21125 30092 40102 53005=
0089010070999992016011411004+78917+011933FM-12+000899999V0202601N004019999999N999999999-00861-01281101011ADDMA1999999100911MD1210011+9999REMSYN04801007 46/// /2604 11086 21128 30091 40101 52001=
0228010070999992016011412004+78917+011933FM-12+000899999V0202701N003019999999N070001199-00941-01351101001ADDAA106000091AY171021AY231021GA1081+008001081GE19MSL   +99999+99999GF108991081999008001999999MA1999999100901MD1990001+9999MW1021OD139901101999REMSYN07601007 11589 82703 11094 21135 30090 40100 50000 60001 70273 888// 333 91111=
0089010070999992016011413004+78917+011933FM-12+000899999V0202501N002019999999N999999999-00871-01301101011ADDMA1999999100911MD1710021+9999REMSYN04801007 46/// /2502 11087 21130 30091 40101 57002=
0089010070999992016011414004+78917+011933FM-12+000899999V0202701N003019999999N999999999-00931-01211101031ADDMA1999999100931MD1310021+9999REMSYN04801007 46/// /2703 11093 21121 30093 40103 53002=
0089010070999992016011415004+78917+011933FM-12+000899999V0202601N003019999999N999999999-00891-01101101031ADDMA1999999100931MD1210031+9999REMSYN04801007 46/// /2603 11089 21110 30093 40103 52003=
0089010070999992016011416004+78917+011933FM-12+000899999V0202901N005019999999N999999999-00921-01131101041ADDMA1999999100941MD1210031+9999REMSYN04801007 46/// /2905 11092 21113 30094 40104 52003=
0089010070999992016011417004+78917+011933FM-12+000899999V0203001N005019999999N999999999-00941-01151101071ADDMA1999999100971MD1310041+9999REMSYN04801007 46/// /3005 11094 21115 30097 40107 53004=
0247010070999992016011418004+78917+011933FM-12+000899999V0202701N002019999999N002500199-00971-01171101071ADDAA112003031AY181021AY221021GA1081+000751091GE19MSL   +99999+99999GF108991081999000751999999KA1120M-00581MA1999999100971MD1210031+9999MW1851OD139900701999REMSYN08201007 11125 82702 11097 21117 30097 40107 52003 60032 78582 883// 333 11058 91107=
0089010070999992016011419004+78917+011933FM-12+000899999V0202601N003019999999N999999999-01011-01271101081ADDMA1999999100981MD1210041+9999REMSYN04801007 46/// /2603 11101 21127 30098 40108 52004=
0089010070999992016011420004+78917+011933FM-12+000899999V0202301N002019999999N999999999-00991-01301101101ADDMA1999999101001MD1210031+9999REMSYN04801007 46/// /2302 11099 21130 30100 40110 52003=
0089010070999992016011421004+78917+011933FM-12+000899999V0202401N002019999999N999999999-00991-01391101121ADDMA1999999101021MD1210051+9999REMSYN04801007 46/// /2402 11099 21139 30102 40112 52005=
0089010070999992016011422004+78917+011933FM-12+000899999V0202301N001019999999N999999999-01021-01451101151ADDMA1999999101051MD1210071+9999REMSYN04801007 46/// /2301 11102 21145 30105 40115 52007=
0089010070999992016011423004+78917+011933FM-12+000899999V0201301N002019999999N999999999-00991-01391101181ADDMA1999999101081MD1210081+9999REMSYN04801007 46/// /1302 11099 21139 30108 40118 52008=
0130010070999992016011500004+78917+011933FM-12+000899999V0201201N001019999999N999999999-00991-01231101201ADDAA106000331MA1999999101101MD1990081+9999OD139900501999REMSYN06401007 16/// /1201 11099 21123 30110 40120 50008 69931 333 91105=
0089010070999992016011501004+78917+011933FM-12+000899999V0201401N003019999999N999999999-01131-01421101231ADDMA1999999101121MD1210081+9999REMSYN04801007 46/// /1403 11113 21142 30112 40123 52008=
0089010070999992016011502004+78917+011933FM-12+000899999V0201301N003019999999N999999999-01221-01641101271ADDMA1999999101171MD1210091+9999REMSYN04801007 46/// /1303 11122 21164 30117 40127 52009=
0089010070999992016011503004+78917+011933FM-12+000899999V0201301N004019999999N999999999-01221-01671101311ADDMA1999999101211MD1210111+9999REMSYN04801007 46/// /1304 11122 21167 30121 40131 52011=
0089010070999992016011504004+78917+011933FM-12+000899999V0201501N002019999999N999999999-01371-01751101331ADDMA1999999101231MD1210101+9999REMSYN04801007 46/// /1502 11137 21175 30123 40133 52010=
0089010070999992016011505004+78917+011933FM-12+000899999V0201801N001019999999N999999999-01261-01731101341ADDMA1999999101241MD1110071+9999REMSYN04801007 46/// /1801 11126 21173 30124 40134 51007=
0293010070999992016011506004+78917+011933FM-12+000899999V0201301N003019999999N070001199-01281-01751101361ADDAA112000331AA224002831AJ100153100150099AY181021AY271021GA1011+999999031GE19MSL   +99999+99999GF101991011999999999999999IA1239KA1240N-01421MA1999999101261MD1210051+9999MW1021OD139900501999REMSYN09401007 11989 11303 11128 21175 30126 40136 52005 69932 70287 81070 333 21142 47015 70028 91105=
0089010070999992016011507004+78917+011933FM-12+000899999V0201401N004019999999N999999999-01151-01651101361ADDMA1999999101261MD1210031+9999REMSYN04801007 46/// /1404 11115 21165 30126 40136 52003=
0089010070999992016011508004+78917+011933FM-12+000899999V0201401N001019999999N999999999-01061-01661101381ADDMA1999999101281MD1210041+9999REMSYN04801007 46/// /1401 11106 21166 30128 40138 52004=
0089010070999992016011509004+78917+011933FM-12+000899999V0201601N003019999999N999999999-00991-01541101401ADDMA1999999101291MD1210041+9999REMSYN04801007 46/// /1603 11099 21154 30129 40140 52004=
0089010070999992016011510004+78917+011933FM-12+000899999V0201501N003019999999N999999999-00911-01391101401ADDMA1999999101301MD1210041+9999REMSYN04801007 46/// /1503 11091 21139 30130 40140 52004=
0089010070999992016011511004+78917+011933FM-12+000899999V0201601N003019999999N999999999-00821-01251101381ADDMA1999999101281MD1210011+9999REMSYN04801007 46/// /1603 11082 21125 30128 40138 52001=
0228010070999992016011512004+78917+011933FM-12+000899999V0202601N002019999999N070001199-00881-01311101371ADDAA106000231AY121021AY201021GA1081+022501031GE19MSL   +99999+99999GF108991081999022501999999MA1999999101271MD1710021+9999MW1021OD139900501999REMSYN07601007 11889 82602 11088 21131 30127 40137 57002 69921 70220 8807/ 333 91105=
0089010070999992016011513004+78917+011933FM-12+000899999V0202501N003019999999N999999999-00831-01281101371ADDMA1999999101271MD1710031+9999REMSYN04801007 46/// /2503 11083 21128 30127 40137 57003=
0089010070999992016011514004+78917+011933FM-12+000899999V0201501N002019999999N999999999-00701-01261101381ADDMA1999999101281MD1510001+9999REMSYN04801007 46/// /1502 11070 21126 30128 40138 55000=
0089010070999992016011515004+78917+011933FM-12+000899999V0202801N001019999999N999999999-00811-01351101381ADDMA1999999101281MD1210011+9999REMSYN04801007 46/// /2801 11081 21135 30128 40138 52001=
0089010070999992016011516004+78917+011933FM-12+000899999V0202401N002019999999N999999999-00731-01271101371ADDMA1999999101271MD1990001+9999REMSYN04801007 46/// /2402 11073 21127 30127 40137 50000=
0089010070999992016011517004+78917+011933FM-12+000899999V0201601N002019999999N999999999-00651-01161101351ADDMA1999999101251MD1710031+9999REMSYN04801007 46/// /1602 11065 21116 30125 40135 57003=
0247010070999992016011518004+78917+011933FM-12+000899999V0201401N006019999999N070001199-00581-01051101341ADDAA112000091AY131021AY221021GA1081+012501061GE19MSL   +99999+99999GF108991081999012501999999KA1120M-00581MA1999999101241MD1710041+9999MW1361OD139900901999REMSYN08201007 11689 81406 11058 21105 30124 40134 57004 60002 73632 885// 333 11058 91109=
0089010070999992016011519004+78917+011933FM-12+000899999V0201301N009019999999N999999999-00571-00961101311ADDMA1999999101211MD1710061+9999REMSYN04801007 46/// /1309 11057 21096 30121 40131 57006=
0089010070999992016011520004+78917+011933FM-12+000899999V0201201N011019999999N999999999-00511-00861101321ADDMA1999999101221MD1710031+9999REMSYN04801007 46/// /1211 11051 21086 30122 40132 57003=
0089010070999992016011521004+78917+011933FM-12+000899999V0201201N011019999999N999999999-00491-00951101291ADDMA1999999101191MD1710051+9999REMSYN04801007 46/// /1211 11049 21095 30119 40129 57005=
0089010070999992016011522004+78917+011933FM-12+000899999V0201201N010019999999N999999999-00441-00841101301ADDMA1999999101201MD1710011+9999REMSYN04801007 46/// /1210 11044 21084 30120 40130 57001=
0089010070999992016011523004+78917+011933FM-12+000899999V0201201N009019999999N999999999-00461-00901101291ADDMA1999999101191MD1710031+9999REMSYN04801007 46/// /1209 11046 21090 30119 40129 57003=
0130010070999992016011600004+78917+011933FM-12+000899999V0201201N009019999999N999999999-00441-00801101291ADDAA106000091MA1999999101191MD1410001+9999OD139901401999REMSYN06401007 16/// /1209 11044 21080 30119 40129 54000 60001 333 91114=
0089010070999992016011601004+78917+011933FM-12+000899999V0201201N011019999999N999999999-00441-00711101251ADDMA1999999101151MD1810051+9999REMSYN04801007 46/// /1211 11044 21071 30115 40125 58005=
0089010070999992016011602004+78917+011933FM-12+000899999V0201201N010019999999N999999999-00451-00771101241ADDMA1999999101141MD1810051+9999REMSYN04801007 46/// /1210 11045 21077 30114 40124 58005=
0089010070999992016011603004+78917+011933FM-12+000899999V0201201N010019999999N999999999-00421-00711101251ADDMA1999999101151MD1610051+9999REMSYN04801007 46/// /1210 11042 21071 30115 40125 56005=
0089010070999992016011604004+78917+011933FM-12+000899999V0201301N009019999999N999999999-00411-00641101251ADDMA1999999101151MD1510001+9999REMSYN04801007 46/// /1309 11041 21064 30115 40125 55000=
0089010070999992016011605004+78917+011933FM-12+000899999V0201301N004019999999N999999999-00431-00591101281ADDMA1999999101181MD1310051+9999REMSYN04801007 46/// /1304 11043 21059 30118 40128 53005=
0309010070999992016011606004+78917+011933FM-12+000899999V0201301N003019999999N030000199-00381-00581101301ADDAA112000231AA224000231AJ100073100070099AY171021AY231021GA1031+004501071GA2999+999999051GE19MSL   +99999+99999GF108991031999004501999999IA1229KA1240N-00681MA1999999101201MD1210051+9999MW1711OD139901601999REMSYN09401007 11480 81303 11038 21058 30120 40130 52005 69922 77173 8372/ 333 21068 46007 70002 91116=
0089010070999992016011607004+78917+011933FM-12+000899999V0201301N004019999999N999999999-00391-00551101321ADDMA1999999101231MD1110071+9999REMSYN04801007 46/// /1304 11039 21055 30123 40132 51007=
0089010070999992016011608004+78917+011933FM-12+000899999V0201401N003019999999N999999999-00401-00661101381ADDMA1999999101281MD1310101+9999REMSYN04801007 46/// /1403 11040 21066 30128 40138 53010=
0089010070999992016011609004+78917+011933FM-12+000899999V0201601N003019999999N999999999-00361-00711101431ADDMA1999999101331MD1210131+9999REMSYN04801007 46/// /1603 11036 21071 30133 40143 52013=
0089010070999992016011610004+78917+011933FM-12+000899999V0201501N003019999999N999999999-00401-00831101451ADDMA1999999101351MD1210131+9999REMSYN04801007 46/// /1503 11040 21083 30135 40145 52013=
0089010070999992016011611004+78917+011933FM-12+000899999V0201401N005019999999N999999999-00311-00591101461ADDMA1999999101361MD1210071+9999REMSYN04801007 46/// /1405 11031 21059 30136 40146 52007=
0244010070999992016011612004+78917+011933FM-12+000899999V0201401N004019999999N030000199-00391-00651101471ADDAA106000631AY171021AY231021GA1021+008001071GA2999+999999051GE19MSL   +99999+99999GF108991021999008001999999MA1999999101371MD1990051+9999MW1711OD139901201999REMSYN07601007 11580 81404 11039 21065 30137 40147 50005 69961 77173 8272/ 333 91112=
0089010070999992016011613004+78917+011933FM-12+000899999V0201301N003019999999N999999999-00341-00681101511ADDMA1999999101411MD1310061+9999REMSYN04801007 46/// /1303 11034 21068 30141 40151 53006=
0089010070999992016011614004+78917+011933FM-12+000899999V0201401N002019999999N999999999-00301-00801101511ADDMA1999999101411MD1990051+9999REMSYN04801007 46/// /1402 11030 21080 30141 40151 50005=
0089010070999992016011615004+78917+011933FM-12+000899999V0201201N007019999999N999999999-00261-00751101511ADDMA1999999101411MD1990041+9999REMSYN04801007 46/// /1207 11026 21075 30141 40151 50004=
0089010070999992016011616004+78917+011933FM-12+000899999V0201201N010019999999N999999999-00261-00691101451ADDMA1999999101361MD1810051+9999REMSYN04801007 46/// /1210 11026 21069 30136 40145 58005=
0089010070999992016011617004+78917+011933FM-12+000899999V0201201N010019999999N999999999-00311-00681101441ADDMA1999999101341MD1810071+9999REMSYN04801007 46/// /1210 11031 21068 30134 40144 58007=
0263010070999992016011618004+78917+011933FM-12+000899999V0201201N011019999999N040000199-00191-00511101391ADDAA112000831AY171021AY231021GA1011+008001071GA2999+999999051GE19MSL   +99999+99999GF108991011999008001999999KA1120M-00191MA1999999101301MD1710111+9999MW1361OD139901601999REMSYN08201007 11582 81211 11019 21051 30130 40139 57011 69982 73673 8172/ 333 11019 91116=
0108010070999992016011619004+78917+011933FM-12+000899999V0201201N007019999999N999999999-00271-00481101451ADDMA1999999101351MD1490001+9999REMSYN04801007 46/// /1207 11027 21048 30135 40145 56000=EQDQ016     3APCTEN
0089010070999992016011620004+78917+011933FM-12+000899999V0201801N006019999999N999999999-00221-00591101551ADDMA1999999101451MD1310111+9999REMSYN04801007 46/// /1806 11022 21059 30145 40155 53011=
0089010070999992016011621004+78917+011933FM-12+000899999V0201001N002019999999N999999999-00271-00671101591ADDMA1999999101491MD1110191+9999REMSYN04801007 46/// /1002 11027 21067 30149 40159 51019=
0089010070999992016011622004+78917+011933FM-12+000899999V0201801N002019999999N999999999-00251-00741101651ADDMA1999999101551MD1110201+9999REMSYN04801007 46/// /1802 11025 21074 30155 40165 51020=
0089010070999992016011623004+78917+011933FM-12+000899999V0201501N006019999999N999999999-00261-00611101691ADDMA1999999101591MD1990141+9999REMSYN04801007 46/// /1506 11026 21061 30159 40169 50014=
0130010070999992016011700004+78917+011933FM-12+000899999V0201701N004019999999N999999999-00171-00691101721ADDAA106002031MA1999999101621MD1990131+9999OD139901501999REMSYN06401007 16/// /1704 11017 21069 30162 40172 50013 60021 333 91115=
0089010070999992016011701004+78917+011933FM-12+000899999V0201601N005019999999N999999999-00121-00821101711ADDMA1999999101611MD1990061+9999REMSYN04801007 46/// /1605 11012 21082 30161 40171 50006=
0089010070999992016011702004+78917+011933FM-12+000899999V0201201N008019999999N999999999-00221-00531101731ADDMA1999999101631MD1990041+9999REMSYN04801007 46/// /1208 11022 21053 30163 40173 50004=
0089010070999992016011703004+78917+011933FM-12+000899999V0201201N006019999999N999999999-00291-00791101741ADDMA1999999101641MD1210021+9999REMSYN04801007 46/// /1206 11029 21079 30164 40174 52002=
0089010070999992016011704004+78917+011933FM-12+000899999V0201201N009019999999N999999999-00291-00741101691ADDMA1999999101591MD1810021+9999REMSYN04801007 46/// /1209 11029 21074 30159 40169 58002=
0089010070999992016011705004+78917+011933FM-12+000899999V0201101N013019999999N999999999-00241-00581101651ADDMA1999999101551MD1810081+9999REMSYN04801007 46/// /1113 11024 21058 30155 40165 58008=
0309010070999992016011706004+78917+011933FM-12+000899999V0201101N013019999999N004000199-00221-00591101631ADDAA112002031AA224003131AJ100053100050099AY131021AY221021GA1061+017501061GA2999+999999001GE19MSL   +99999+99999GF107991061999017501999999IA1229KA1240N-00401MA1999999101531MD1610111+9999MW1381OD139901701999REMSYN09401007 11740 71113 11022 21059 30153 40163 56011 60022 73832 86501 333 21040 46005 70031 91117=
0089010070999992016011707004+78917+011933FM-12+000899999V0201301N010019999999N999999999-00341-00691101611ADDMA1999999101511MD1610081+9999REMSYN04801007 46/// /1310 11034 21069 30151 40161 56008=
0089010070999992016011708004+78917+011933FM-12+000899999V0201101N013019999999N999999999-00251-00601101591ADDMA1999999101491MD1710051+9999REMSYN04801007 46/// /1113 11025 21060 30149 40159 57005=
0089010070999992016011709004+78917+011933FM-12+000899999V0201201N013019999999N999999999-00341-00721101611ADDMA1999999101511MD1610021+9999REMSYN04801007 46/// /1213 11034 21072 30151 40161 56002=
0089010070999992016011710004+78917+011933FM-12+000899999V0201201N013019999999N999999999-00361-00681101571ADDMA1999999101471MD1810041+9999REMSYN04801007 46/// /1213 11036 21068 30147 40157 58004=
0089010070999992016011711004+78917+011933FM-12+000899999V0201301N012019999999N999999999-00521-00851101581ADDMA1999999101481MD1710021+9999REMSYN04801007 46/// /1312 11052 21085 30148 40158 57002=
0244010070999992016011712004+78917+011933FM-12+000899999V0201201N012019999999N070000199-00501-00861101571ADDAA106000091AY131021AY211021GA1011+012501061GA2999+999999001GE19MSL   +99999+99999GF101991011999012501999999MA1999999101471MD1610041+9999MW1361OD139901801999REMSYN07601007 11688 11212 11050 21086 30147 40157 56004 60001 73631 81501 333 91118=
0089010070999992016011713004+78917+011933FM-12+000899999V0201201N011019999999N999999999-00441-00871101551ADDMA1999999101451MD1810021+9999REMSYN04801007 46/// /1211 11044 21087 30145 40155 58002=
0089010070999992016011714004+78917+011933FM-12+000899999V0201201N011019999999N999999999-00491-00901101541ADDMA1999999101441MD1610041+9999REMSYN04801007 46/// /1211 11049 21090 30144 40154 56004=
0089010070999992016011715004+78917+011933FM-12+000899999V0201201N012019999999N999999999-00521-00901101531ADDMA1999999101431MD1610041+9999REMSYN04801007 46/// /1212 11052 21090 30143 40153 56004=
0089010070999992016011716004+78917+011933FM-12+000899999V0201301N010019999999N999999999-00471-00901101511ADDMA1999999101411MD1810041+9999REMSYN04801007 46/// /1310 11047 21090 30141 40151 58004=
0089010070999992016011717004+78917+011933FM-12+000899999V0201301N009019999999N999999999-00481-00991101501ADDMA1999999101401MD1810041+9999REMSYN04801007 46/// /1309 11048 21099 30140 40150 58004=
0177010070999992016011718004+78917+011933FM-12+000899999V0201101N012019999999N070001199-00281-00821101471ADDAA112000091AY131021AY201021KA1120M-00181MA1999999101371MD1810061+9999MW1361OD139901601999REMSYN07601007 11989 01112 11028 21082 30137 40147 58006 60002 73630 333 11018 91116=
0089010070999992016011719004+78917+011933FM-12+000899999V0201201N009019999999N999999999-00231-00701101471ADDMA1999999101371MD1710041+9999REMSYN04801007 46/// /1209 11023 21070 30137 40147 57004=
0089010070999992016011720004+78917+011933FM-12+000899999V0201401N005019999999N999999999-00351-00891101471ADDMA1999999101371MD1710031+9999REMSYN04801007 46/// /1405 11035 21089 30137 40147 57003=
0089010070999992016011721004+78917+011933FM-12+000899999V0201301N005019999999N999999999-00291-00741101431ADDMA1999999101331MD1810041+9999REMSYN04801007 46/// /1305 11029 21074 30133 40143 58004=
0089010070999992016011722004+78917+011933FM-12+000899999V0201201N005019999999N999999999-00301-00821101401ADDMA1999999101301MD1810071+9999REMSYN04801007 46/// /1205 11030 21082 30130 40140 58007=
0089010070999992016011723004+78917+011933FM-12+000899999V0201401N004019999999N999999999-00331-00811101381ADDMA1999999101281MD1610101+9999REMSYN04801007 46/// /1404 11033 21081 30128 40138 56010=
0130010070999992016011800004+78917+011933FM-12+000899999V0201401N004019999999N999999999-00331-00781101341ADDAA106000091MA1999999101241MD1710091+9999OD139901501999REMSYN06401007 16/// /1404 11033 21078 30124 40134 57009 60001 333 91115=
0089010070999992016011801004+78917+011933FM-12+000899999V0201601N002019999999N999999999-00231-00721101291ADDMA1999999101191MD1810111+9999REMSYN04801007 46/// /1602 11023 21072 30119 40129 58011=
0089010070999992016011802004+78917+011933FM-12+000899999V0201401N002019999999N999999999-00221-00691101221ADDMA1999999101131MD1710151+9999REMSYN04801007 46/// /1402 11022 21069 30113 40122 57015=
0089010070999992016011803004+78917+011933FM-12+000899999V0201501N003019999999N999999999-00241-00691101171ADDMA1999999101071MD1710171+9999REMSYN04801007 46/// /1503 11024 21069 30107 40117 57017=
0089010070999992016011804004+78917+011933FM-12+000899999V0201401N003019999999N999999999-00261-00691101131ADDMA1999999101031MD1710161+9999REMSYN04801007 46/// /1403 11026 21069 30103 40113 57016=
0089010070999992016011805004+78917+011933FM-12+000899999V0201301N005019999999N999999999-00201-00651101071ADDMA1999999100971MD1710151+9999REMSYN04801007 46/// /1305 11020 21065 30097 40107 57015=
0293010070999992016011806004+78917+011933FM-12+000899999V0201301N004019999999N070001199-00141-00671101061ADDAA112000091AA224000091AJ199991999999999AY121021AY201021GA1081+017501061GE19MSL   +99999+99999GF108991081999017501999999IA1269KA1240N-00431MA1999999100961MD1610111+9999MW1021OD139901001999REMSYN09401007 11789 81304 11014 21067 30096 40106 56011 60002 70220 885// 333 21043 42/// 70000 91110=
0089010070999992016011807004+78917+011933FM-12+000899999V0201901N001019999999N999999999-00221-00621101061ADDMA1999999100961MD1610071+9999REMSYN04801007 46/// /1901 11022 21062 30096 40106 56007=
0089010070999992016011808004+78917+011933FM-12+000899999V0202501N001019999999N999999999-00331-00671101041ADDMA1999999100941MD1710031+9999REMSYN04801007 46/// /2501 11033 21067 30094 40104 57003=
0089010070999992016011809004+78917+011933FM-12+000899999V0201401N004019999999N999999999-00271-00791101041ADDMA1999999100941MD1710031+9999REMSYN04801007 46/// /1404 11027 21079 30094 40104 57003=
0089010070999992016011810004+78917+011933FM-12+000899999V0201401N004019999999N999999999-00261-00891101021ADDMA1999999100921MD1710041+9999REMSYN04801007 46/// /1404 11026 21089 30092 40102 57004=
0089010070999992016011811004+78917+011933FM-12+000899999V0201101N007019999999N999999999-00191-00701101031ADDMA1999999100931MD1710021+9999REMSYN04801007 46/// /1107 11019 21070 30093 40103 57002=
0244010070999992016011812004+78917+011933FM-12+000899999V0201101N006019999999N070001199-00371-00891101021ADDAA106000091AY121021AY211021GA1021+012501061GA2999+999999031GE19MSL   +99999+99999GF106991021999012501999999MA1999999100921MD1710021+9999MW1021OD139901001999REMSYN07601007 11689 61106 11037 21089 30092 40102 57002 60001 70221 82570 333 91110=
0089010070999992016011813004+78917+011933FM-12+000899999V0201401N003019999999N999999999-00371-00981101031ADDMA1999999100931MD1410001+9999REMSYN04801007 46/// /1403 11037 21098 30093 40103 54000=
0089010070999992016011814004+78917+011933FM-12+000899999V0201401N002019999999N999999999-00381-00971101041ADDMA1999999100941MD1210011+9999REMSYN04801007 46/// /1402 11038 21097 30094 40104 52001=
0089010070999992016011815004+78917+011933FM-12+000899999V0201401N004019999999N999999999-00361-00931101051ADDMA1999999100951MD1210031+9999REMSYN04801007 46/// /1404 11036 21093 30095 40105 52003=
0089010070999992016011816004+78917+011933FM-12+000899999V0201301N003019999999N999999999-00351-00921101071ADDMA1999999100971MD1210051+9999REMSYN04801007 46/// /1303 11035 21092 30097 40107 52005=
0089010070999992016011817004+78917+011933FM-12+000899999V0201301N003019999999N999999999-00471-01041101071ADDMA1999999100971MD1990031+9999REMSYN04801007 46/// /1303 11047 21104 30097 40107 50003=
0266010070999992016011818004+78917+011933FM-12+000899999V0201501N001019999999N070001199-00491-01061101051ADDAA112000091AY121021AY211021GA1999+999999021GE19MSL   +99999+99999GF107991001999999999999999KA1120M-00141MA1999999100961MD1990001+9999MW1021OD139900901999REMSYN08201007 11989 71501 11049 21106 30096 40105 50000 60002 70221 80007 333 11014 91109=EQDQ01    003SCCGA1
0089010070999992016011819004+78917+011933FM-12+000899999V0201201N006019999999N999999999-00421-01031101031ADDMA1999999100931MD1710041+9999REMSYN04801007 46/// /1206 11042 21103 30093 40103 57004=
0089010070999992016011820004+78917+011933FM-12+000899999V0201101N006019999999N999999999-00391-00891101051ADDMA1999999100951MD1610021+9999REMSYN04801007 46/// /1106 11039 21089 30095 40105 56002=
0089010070999992016011821004+78917+011933FM-12+000899999V0201001N009019999999N999999999-00311-00881101041ADDMA1999999100941MD1810021+9999REMSYN04801007 46/// /1009 11031 21088 30094 40104 58002=
0089010070999992016011822004+78917+011933FM-12+000899999V0201201N004019999999N999999999-00391-00981101051ADDMA1999999100951MD1990021+9999REMSYN04801007 46/// /1204 11039 21098 30095 40105 50002=
0089010070999992016011823004+78917+011933FM-12+000899999V0201301N009019999999N999999999-00281-00571101021ADDMA1999999100921MD1810031+9999REMSYN04801007 46/// /1309 11028 21057 30092 40102 58003=
0130010070999992016011900004+78917+011933FM-12+000899999V0201101N010019999999N999999999-00291-00601101011ADDAA106000091MA1999999100911MD1810031+9999OD139901201999REMSYN06401007 16/// /1110 11029 21060 30091 40101 58003 60001 333 91112=
0089010070999992016011901004+78917+011933FM-12+000899999V0201101N010019999999N999999999-00231-00631100961ADDMA1999999100861MD1810091+9999REMSYN04801007 46/// /1110 11023 21063 30086 40096 58009=
0089010070999992016011902004+78917+011933FM-12+000899999V0201101N011019999999N999999999-00281-00631100921ADDMA1999999100821MD1810101+9999REMSYN04801007 46/// /1111 11028 21063 30082 40092 58010=
0089010070999992016011903004+78917+011933FM-12+000899999V0201201N010019999999N999999999-00261-00551100871ADDMA1999999100781MD1710131+9999REMSYN04801007 46/// /1210 11026 21055 30078 40087 57013=
0089010070999992016011904004+78917+011933FM-12+000899999V0201101N013019999999N999999999-00271-00521100871ADDMA1999999100771MD1710091+9999REMSYN04801007 46/// /1113 11027 21052 30077 40087 57009=
0089010070999992016011905004+78917+011933FM-12+000899999V0201101N010019999999N999999999-00221-00471100871ADDMA1999999100771MD1610051+9999REMSYN04801007 46/// /1110 11022 21047 30077 40087 56005=
0344010070999992016011906004+78917+011933FM-12+000899999V0201001N009019999999N003000199-00241-00431100881ADDAA112999999AA224999999AJ199991999999999AY171021AY221021GA1061+004501071GA2999+999999051GE19MSL   +99999+99999GF108991061999004501999999IA1269KA1240N-00541MA1999999100791MD1510011+9999MW1711OD139901601999REMSYN09401007 11430 81009 11024 21043 30079 40088 55001 60002 77172 8672/ 333 21054 42/// 70000 91116=EQDQ01  00002PRCP12Q02  00002PRCP24
0089010070999992016011907004+78917+011933FM-12+000899999V0201101N006019999999N999999999-00291-00431100901ADDMA1999999100801MD1310031+9999REMSYN04801007 46/// /1106 11029 21043 30080 40090 53003=
0089010070999992016011908004+78917+011933FM-12+000899999V0201001N004019999999N999999999-00311-00461100891ADDMA1999999100791MD1210021+9999REMSYN04801007 46/// /1004 11031 21046 30079 40089 52002=
0108010070999992016011909004+78917+011933FM-12+000899999V0201201N003019999999N999999999-00251-00571100891ADDMA1999999100791MD1290019+9999REMSYN04801007 46/// /1203 11025 21057 30079 40089 54001=EQDQ01.1    3APC3  
0089010070999992016011910004+78917+011933FM-12+000899999V0201101N009019999999N999999999-00161-00581100861ADDMA1999999100761MD1810041+9999REMSYN04801007 46/// /1109 11016 21058 30076 40086 58004=
0089010070999992016011911004+78917+011933FM-12+000899999V0201301N004019999999N999999999-00171-00711100871ADDMA1999999100771MD1710031+9999REMSYN04801007 46/// /1304 11017 21071 30077 40087 57003=
0244010070999992016011912004+78917+011933FM-12+000899999V0201201N003019999999N030000199-00301-00781100851ADDAA106000531AY121021AY221021GA1061+012501061GA2999+999999031GE19MSL   +99999+99999GF106991061999012501999999MA1999999100751MD1710041+9999MW1021OD139901301999REMSYN07601007 11680 61203 11030 21078 30075 40085 57004 69951 70222 86570 333 91113=
0093010070999992016011913004+78923+011933FM-12+000899999V0201251N0036199999999999999999-00351-00851100821ADDKA1010M-00211KA2010N-00371MA1999999100721MD1810041+9999OC100531OD130100611999REMSYN004BUFR
0089010070999992016011914004+78917+011933FM-12+000899999V0201301N004019999999N999999999-00311-00851100811ADDMA1999999100721MD1710051+9999REMSYN04801007 46/// /1304 11031 21085 30072 40081 57005=
0089010070999992016011915004+78917+011933FM-12+000899999V0201301N004019999999N999999999-00271-00811100811ADDMA1999999100721MD1710031+9999REMSYN04801007 46/// /1304 11027 21081 30072 40081 57003=
0089010070999992016011916004+78917+011933FM-12+000899999V0201201N007019999999N999999999-00271-00771100781ADDMA1999999100681MD1810041+9999REMSYN04801007 46/// /1207 11027 21077 30068 40078 58004=
0089010070999992016011917004+78917+011933FM-12+000899999V0201201N009019999999N999999999-00271-00771100731ADDMA1999999100631MD1810081+9999REMSYN04801007 46/// /1209 11027 21077 30063 40073 58008=
0279010070999992016011918004+78917+011933FM-12+000899999V0201101N011019999999N070001199-00271-00791100701ADDAA112000631AY171021AY231021GA1031+012501061GA2999+999999041GA3999+999999001GE19MSL   +99999+99999GF107991031999012501999999KA1120M-00121MA1999999100611MD1710111+9999MW1361OD139901301999REMSYN08201007 11689 71111 11027 21079 30061 40070 57011 69962 73673 83512 333 11012 91113=
0089010070999992016011919004+78917+011933FM-12+000899999V0201301N007019999999N999999999-00391-00741100731ADDMA1999999100631MD1610051+9999REMSYN04801007 46/// /1307 11039 21074 30063 40073 56005=
0089010070999992016011920004+78917+011933FM-12+000899999V0201301N005019999999N999999999-00471-00701100711ADDMA1999999100611MD1610031+9999REMSYN04801007 46/// /1305 11047 21070 30061 40071 56003=
0089010070999992016011921004+78917+011933FM-12+000899999V0201601N002019999999N999999999-00441-00641100671ADDMA1999999100581MD1810031+9999REMSYN04801007 46/// /1602 11044 21064 30058 40067 58003=
0089010070999992016011922004+78917+011933FM-12+000899999V0201201N007019999999N999999999-00401-00551100651ADDMA1999999100551MD1710091+9999REMSYN04801007 46/// /1207 11040 21055 30055 40065 57009=
0089010070999992016011923004+78917+011933FM-12+000899999V0201301N007019999999N999999999-00461-00621100631ADDMA1999999100541MD1710071+9999REMSYN04801007 46/// /1307 11046 21062 30054 40063 57007=
0130010070999992016012000004+78917+011933FM-12+000899999V0201301N006019999999N999999999-00461-00661100621ADDAA106001031MA1999999100531MD1710051+9999OD139901401999REMSYN06401007 16/// /1306 11046 21066 30053 40062 57005 60011 333 91114=
0089010070999992016012001004+78917+011933FM-12+000899999V0201901N001019999999N999999999-00411-00631100611ADDMA1999999100511MD1710041+9999REMSYN04801007 46/// /1901 11041 21063 30051 40061 57004=
0089010070999992016012002004+78917+011933FM-12+000899999V0203101N006019999999N999999999-00571-00761100631ADDMA1999999100531MD1510011+9999REMSYN04801007 46/// /3106 11057 21076 30053 40063 55001=
0089010070999992016012003004+78917+011933FM-12+000899999V0203001N007019999999N999999999-00671-00871100651ADDMA1999999100551MD1310031+9999REMSYN04801007 46/// /3007 11067 21087 30055 40065 53003=
0089010070999992016012004004+78917+011933FM-12+000899999V0203101N007019999999N999999999-00691-00891100661ADDMA1999999100561MD1210051+9999REMSYN04801007 46/// /3107 11069 21089 30056 40066 52005=
0089010070999992016012005004+78917+011933FM-12+000899999V0203001N006019999999N999999999-00731-00941100681ADDMA1999999100581MD1210051+9999REMSYN04801007 46/// /3006 11073 21094 30058 40068 52005=
0309010070999992016012006004+78917+011933FM-12+000899999V0203001N006019999999N003500199-00741-00981100681ADDAA112002031AA224002531AJ100233100230099AY171021AY231021GA1061+008001071GA2999+999999051GE19MSL   +99999+99999GF108991061999008001999999IA1289KA1240N-00771MA1999999100581MD1210031+9999MW1711OD139901101999REMSYN09401007 11535 83006 11074 21098 30058 40068 52003 60022 77173 8672/ 333 21077 48023 70025 91111=
