0228010030999992016010100004+77000+015500FM-12+001299999V0202701N002019999999N003000199+00191+00091100961ADDAA106000091AY141021AY221021GA1081+004501061GE19MSL   +99999+99999GF108991081999004501999999MA1999999100821MD1110191+9999MW1101OD139900701999REMSYN07601003 11430 82702 10019 20009 30082 40096 51019 60001 71042 885// 333 91107=
0089010030999992016010101004+77000+015500FM-12+001299999V0202101N001019999999N999999999+00181+00081101001ADDMA1999999100861MD1110151+9999REMSYN04801003 46/// /2101 10018 20008 30086 40100 51015=
0089010030999992016010102004+77000+015500FM-12+001299999V0200501N002019999999N999999999+00271+00121100981ADDMA1999999100841MD1990061+9999REMSYN04801003 46/// /0502 10027 20012 30084 40098 50006=
0187010030999992016010103004+77000+015500FM-12+001299999V0203301N001019999999N010000199+00331+00171100981ADDAY121021AY221021GA1081+008001061GE19MSL   +99999+99999GF108991081999008001999999MA1999999100841MD1990021+9999MW1021REMSYN06001003 41560 83301 10033 20017 30084 40098 50002 70222 885//=
0089010030999992016010104004+77000+015500FM-12+001299999V0201701N004019999999N999999999+00301+00201100961ADDMA1999999100821MD1710041+9999REMSYN04801003 46/// /1704 10030 20020 30082 40096 57004=
0089010030999992016010105004+77000+015500FM-12+001299999V0201501N003019999999N999999999+00321+00231100991ADDMA1999999100851MD1510011+9999REMSYN04801003 46/// /1503 10032 20023 30085 40099 55001=
0293010030999992016010106004+77000+015500FM-12+001299999V0200401N002019999999N003000199+00321+00231100951ADDAA112000091AA224007531AJ199999999999999AY121021AY211021GA1071+008001061GE19MSL   +99999+99999GF107991071999008001999999IA1259KA1240N+00131MA1999999100811MD1810021+9999MW1101OD139900601999REMSYN09401003 11530 70402 10032 20023 30081 40095 58002 60002 71021 875// 333 20013 41998 70075 91106=
0089010030999992016010107004+77000+015500FM-12+001299999V0200801N004019999999N999999999+00301+00111100881ADDMA1999999100741MD1810081+9999REMSYN04801003 46/// /0804 10030 20011 30074 40088 58008=
0089010030999992016010108004+77000+015500FM-12+001299999V0200601N003019999999N999999999+00331+00071100781ADDMA1999999100641MD1810211+9999REMSYN04801003 46/// /0603 10033 20007 30064 40078 58021=
0187010030999992016010109004+77000+015500FM-12+001299999V0200801N005019999999N012000199+00501+00001100651ADDAY121021AY221021GA1071+008001061GE19MSL   +99999+99999GF107991071999008001999999MA1999999100511MD1810291+9999MW1021REMSYN06001003 41562 70805 10050 20000 30051 40065 58029 70222 875//=
0089010030999992016010110004+77000+015500FM-12+001299999V0200701N007019999999N999999999+00411+00041100571ADDMA1999999100431MD1610311+9999REMSYN04801003 46/// /0707 10041 20004 30043 40057 56031=
0089010030999992016010111004+77000+015500FM-12+001299999V0200801N008019999999N999999999+00171+00021100551ADDMA1999999100411MD1610231+9999REMSYN04801003 46/// /0808 10017 20002 30041 40055 56023=
0228010030999992016010112004+77000+015500FM-12+001299999V0200901N004019999999N012000199+00281+00071100531ADDAA112003031AY161021AY221021GA1071+008001061GE19MSL   +99999+99999GF107991071999008001999999MA1999999100391MD1610131+9999MW1211OD139901501999REMSYN07601003 11562 70904 10028 20007 30039 40053 56013 60032 72162 875// 333 91115=
0089010030999992016010113004+77000+015500FM-12+001299999V0201801N009019999999N999999999+00421+00191100491ADDMA1999999100351MD1810081+9999REMSYN04801003 46/// /1809 10042 20019 30035 40049 58008=
0089010030999992016010114004+77000+015500FM-12+001299999V0201901N009019999999N999999999+00381+00231100541ADDMA1999999100401MD1510011+9999REMSYN04801003 46/// /1909 10038 20023 30040 40054 55001=
0187010030999992016010115004+77000+015500FM-12+001299999V0202001N008019999999N007000199+00351+00221100581ADDAY161021AY221021GA1081+008001061GE19MSL   +99999+99999GF108991081999008001999999MA1999999100441MD1310051+9999MW1211REMSYN06001003 41557 82008 10035 20022 30044 40058 53005 72162 885//=
0089010030999992016010116004+77000+015500FM-12+001299999V0202001N008019999999N999999999+00341+00221100591ADDMA1999999100451MD1110101+9999REMSYN04801003 46/// /2008 10034 20022 30045 40059 51010=
0089010030999992016010117004+77000+015500FM-12+001299999V0202001N008019999999N999999999+00361+00241100611ADDMA1999999100471MD1210081+9999REMSYN04801003 46/// /2008 10036 20024 30047 40061 52008=
0247010030999992016010118004+77000+015500FM-12+001299999V0201901N011019999999N008000199+00401+00251100641ADDAA112003031AY161021AY221021GA1081+004501061GE19MSL   +99999+99999GF108991081999004501999999KA1120M+00511MA1999999100501MD1210051+9999MW1211OD139901401999REMSYN08201003 11458 81911 10040 20025 30050 40064 52005 60032 72162 885// 333 10051 91114=
0089010030999992016010119004+77000+015500FM-12+001299999V0201901N009019999999N999999999+00281+00181100741ADDMA1999999100601MD1310141+9999REMSYN04801003 46/// /1909 10028 20018 30060 40074 53014=
0089010030999992016010120004+77000+015500FM-12+001299999V0201901N007019999999N999999999+00281+00161100851ADDMA1999999100711MD1310241+9999REMSYN04801003 46/// /1907 10028 20016 30071 40085 53024=
0187010030999992016010121004+77000+015500FM-12+001299999V0202001N007019999999N010000199+00371+00271100941ADDAY161021AY221021GA1081+004501061GE19MSL   +99999+99999GF108991081999004501999999MA1999999100801MD1210301+9999MW1211REMSYN06001003 41460 82007 10037 20027 30080 40094 52030 72162 885//=
0089010030999992016010122004+77000+015500FM-12+001299999V0201901N007019999999N999999999+00371+00171101041ADDMA1999999100901MD1110301+9999REMSYN04801003 46/// /1907 10037 20017 30090 40104 51030=
0089010030999992016010123004+77000+015500FM-12+001299999V0201901N008019999999N999999999+00421+00171101071ADDMA1999999100931MD1110221+9999REMSYN04801003 46/// /1908 10042 20017 30093 40107 51022=
0228010030999992016010200004+77000+015500FM-12+001299999V0201801N007019999999N010000199+00401+00141101081ADDAA106000731AY161021AY221021GA1081+004501061GE19MSL   +99999+99999GF108991081999004501999999MA1999999100941MD1110141+9999MW1021OD139901401999REMSYN07601003 11460 81807 10040 20014 30094 40108 51014 69971 70262 885// 333 91114=
0089010030999992016010201004+77000+015500FM-12+001299999V0201801N008019999999N999999999+00431+00181101021ADDMA1999999100881MD1810021+9999REMSYN04801003 46/// /1808 10043 20018 30088 40102 58002=
0089010030999992016010202004+77000+015500FM-12+001299999V0201801N008019999999N999999999+00401+00191100951ADDMA1999999100811MD1810111+9999REMSYN04801003 46/// /1808 10040 20019 30081 40095 58011=
0187010030999992016010203004+77000+015500FM-12+001299999V0201801N010019999999N010000199+00431+00221100891ADDAY161021AY221021GA1081+004501061GE19MSL   +99999+99999GF108991081999004501999999MA1999999100751MD1710181+9999MW1211REMSYN06001003 41460 81810 10043 20022 30075 40089 57018 72162 885//=
0089010030999992016010204004+77000+015500FM-12+001299999V0201701N006019999999N999999999+00331+00071100891ADDMA1999999100751MD1610131+9999REMSYN04801003 46/// /1706 10033 20007 30075 40089 56013=
0089010030999992016010205004+77000+015500FM-12+001299999V0201501N006019999999N999999999+00391+00011100751ADDMA1999999100611MD1810201+9999REMSYN04801003 46/// /1506 10039 20001 30061 40075 58020=
0293010030999992016010206004+77000+015500FM-12+001299999V0201701N014019999999N007000199+00361+00131100611ADDAA112000831AA224004231AJ199999999999999AY161021AY221021GA1081+004501061GE19MSL   +99999+99999GF108991081999004501999999IA1259KA1240N+00191MA1999999100471MD1810291+9999MW1611OD139901901999REMSYN09401003 11457 81714 10036 20013 30047 40061 58029 69982 76162 885// 333 20019 41998 70042 91119=
0089010030999992016010207004+77000+015500FM-12+001299999V0202001N007019999999N999999999+00201+00051100631ADDMA1999999100491MD1510261+9999REMSYN04801003 46/// /2007 10020 20005 30049 40063 55026=
0089010030999992016010208004+77000+015500FM-12+001299999V0202101N011019999999N999999999+00241+00081100611ADDMA1999999100471MD1610161+9999REMSYN04801003 46/// /2111 10024 20008 30047 40061 56016=
0187010030999992016010209004+77000+015500FM-12+001299999V0202101N011019999999N008000199+00241+00031100701ADDAY161021AY221021GA1081+004501061GE19MSL   +99999+99999GF108991081999004501999999MA1999999100561MD1310091+9999MW1601REMSYN06001003 41458 82111 10024 20003 30056 40070 53009 76062 885//=
0089010030999992016010210004+77000+015500FM-12+001299999V0202201N014019999999N999999999+00231+00021100741ADDMA1999999100601MD1310091+9999REMSYN04801003 46/// /2214 10023 20002 30060 40074 53009=
0089010030999992016010211004+77000+015500FM-12+001299999V0202301N016019999999N999999999+00221+00031100851ADDMA1999999100711MD1310241+9999REMSYN04801003 46/// /2316 10022 20003 30071 40085 53024=
0228010030999992016010212004+77000+015500FM-12+001299999V0202401N015019999999N008000199+00201-00011101031ADDAA106000631AY161021AY221021GA1081+004501061GE19MSL   +99999+99999GF108991081999004501999999MA1999999100891MD1310331+9999MW1211OD139902201999REMSYN07601003 11458 82415 10020 21001 30089 40103 53033 69961 72162 885// 333 91122=
0089010030999992016010213004+77000+015500FM-12+001299999V0202501N015019999999N999999999+00211+00001101191ADDMA1999999101051MD1310441+9999REMSYN04801003 46/// /2515 10021 20000 30105 40119 53044=
0089010030999992016010214004+77000+015500FM-12+001299999V0202401N014019999999N999999999+00231-00041101371ADDMA1999999101231MD1310521+9999REMSYN04801003 46/// /2414 10023 21004 30123 40137 53052=
0187010030999992016010215004+77000+015500FM-12+001299999V0202401N012019999999N010000199+00221-00121101601ADDAY161021AY221021GA1081+004501061GE19MSL   +99999+99999GF108991081999004501999999MA1999999101461MD1310561+9999MW1021REMSYN06001003 41460 82412 10022 21012 30146 40160 53056 70262 885//=
0089010030999992016010216004+77000+015500FM-12+001299999V0202601N007019999999N999999999+00201-00041101761ADDMA1999999101621MD1110571+9999REMSYN04801003 46/// /2607 10020 21004 30162 40176 51057=
0089010030999992016010217004+77000+015500FM-12+001299999V0202601N005019999999N999999999+00191-00021101861ADDMA1999999101721MD1110491+9999REMSYN04801003 46/// /2605 10019 21002 30172 40186 51049=
0247010030999992016010218004+77000+015500FM-12+001299999V0202601N007019999999N005000199+00211+00081101941ADDAA112000731AY161021AY221021GA1081+004501061GE19MSL   +99999+99999GF108991081999004501999999KA1120M+00361MA1999999101801MD1110331+9999MW1611OD139902101999REMSYN08201003 11450 82607 10021 20008 30180 40194 51033 69972 76162 885// 333 10036 91121=
0089010030999992016010219004+77000+015500FM-12+001299999V0202601N005019999999N999999999+00261+00131102121ADDMA1999999101981MD1310351+9999REMSYN04801003 46/// /2605 10026 20013 30198 40212 53035=
0089010030999992016010220004+77000+015500FM-12+001299999V0202401N005019999999N999999999+00221+00101102261ADDMA1999999102121MD1310401+9999REMSYN04801003 46/// /2405 10022 20010 30212 40226 53040=
0187010030999992016010221004+77000+015500FM-12+001299999V0202101N003019999999N003000199+00141+00041102331ADDAY161021AY221021GA1081+004501061GE19MSL   +99999+99999GF108991081999004501999999MA1999999102191MD1110391+9999MW1211REMSYN06001003 41430 82103 10014 20004 30219 40233 51039 72162 885//=
0089010030999992016010222004+77000+015500FM-12+001299999V0202501N003019999999N999999999+00181+00081102361ADDMA1999999102221MD1110241+9999REMSYN04801003 46/// /2503 10018 20008 30222 40236 51024=
0089010030999992016010223004+77000+015500FM-12+001299999V0202601N004019999999N999999999+00281+00191102371ADDMA1999999102231MD1110111+9999REMSYN04801003 46/// /2604 10028 20019 30223 40237 51011=
0228010030999992016010300004+77000+015500FM-12+001299999V0202101N006019999999N003000199+00241+00151102381ADDAA106002031AY161021AY221021GA1081+004501061GE19MSL   +99999+99999GF108991081999004501999999MA1999999102241MD1210051+9999MW1211OD139901001999REMSYN07601003 11430 82106 10024 20015 30224 40238 52005 60021 72162 885// 333 91110=
0089010030999992016010301004+77000+015500FM-12+001299999V0202001N005019999999N999999999+00271+00151102361ADDMA1999999102221MD1990001+9999REMSYN04801003 46/// /2005 10027 20015 30222 40236 50000=
0089010030999992016010302004+77000+015500FM-12+001299999V0202001N007019999999N999999999+00251+00121102341ADDMA1999999102201MD1810031+9999REMSYN04801003 46/// /2007 10025 20012 30220 40234 58003=
0187010030999992016010303004+77000+015500FM-12+001299999V0202001N007019999999N003000199+00311+00181102291ADDAY161021AY221021GA1081+004501061GE19MSL   +99999+99999GF108991081999004501999999MA1999999102151MD1710091+9999MW1601REMSYN06001003 41430 82007 10031 20018 30215 40229 57009 76062 885//=
0089010030999992016010304004+77000+015500FM-12+001299999V0201901N008019999999N999999999+00351+00121102241ADDMA1999999102101MD1710121+9999REMSYN04801003 46/// /1908 10035 20012 30210 40224 57012=
0089010030999992016010305004+77000+015500FM-12+001299999V0202001N007019999999N999999999+00311+00131102191ADDMA1999999102051MD1710141+9999REMSYN04801003 46/// /2007 10031 20013 30205 40219 57014=
0293010030999992016010306004+77000+015500FM-12+001299999V0201901N008019999999N010000199+00311+00101102121ADDAA112005031AA224005231AJ199999999999999AY161021AY221021GA1081+004501061GE19MSL   +99999+99999GF108991081999004501999999IA1259KA1240N+00141MA1999999101981MD1810171+9999MW1021OD139901401999REMSYN09401003 11460 81908 10031 20010 30198 40212 58017 60052 70262 885// 333 20014 41998 70052 91114=
0089010030999992016010307004+77000+015500FM-12+001299999V0201901N009019999999N999999999+00341+00151102101ADDMA1999999101961MD1610151+9999REMSYN04801003 46/// /1909 10034 20015 30196 40210 56015=
0089010030999992016010308004+77000+015500FM-12+001299999V0201901N011019999999N999999999+00361+00121102031ADDMA1999999101891MD1610161+9999REMSYN04801003 46/// /1911 10036 20012 30189 40203 56016=
0187010030999992016010309004+77000+015500FM-12+001299999V0201901N010019999999N005000199+00331+00141101991ADDAY161021AY221021GA1081+004501061GE19MSL   +99999+99999GF108991081999004501999999MA1999999101851MD1810131+9999MW1611REMSYN06001003 41450 81910 10033 20014 30185 40199 58013 76162 885//=
0089010030999992016010310004+77000+015500FM-12+001299999V0202001N007019999999N999999999+00251+00121101981ADDMA1999999101841MD1610121+9999REMSYN04801003 46/// /2007 10025 20012 30184 40198 56012=
0089010030999992016010311004+77000+015500FM-12+001299999V0202001N007019999999N999999999+00251+00131101951ADDMA1999999101811MD1710081+9999REMSYN04801003 46/// /2007 10025 20013 30181 40195 57008=
0228010030999992016010312004+77000+015500FM-12+001299999V0202001N007019999999N005000199+00221+00101101911ADDAA106002031AY161021AY221021GA1081+004501061GE19MSL   +99999+99999GF108991081999004501999999MA1999999101771MD1810081+9999MW1611OD139901501999REMSYN07601003 11450 82007 10022 20010 30177 40191 58008 60021 76162 885// 333 91115=
0089010030999992016010313004+77000+015500FM-12+001299999V0201901N010019999999N999999999+00281+00131101841ADDMA1999999101701MD1810141+9999REMSYN04801003 46/// /1910 10028 20013 30170 40184 58014=
0089010030999992016010314004+77000+015500FM-12+001299999V0202201N005019999999N999999999+00171+00101101811ADDMA1999999101671MD1610141+9999REMSYN04801003 46/// /2205 10017 20010 30167 40181 56014=
0187010030999992016010315004+77000+015500FM-12+001299999V0202101N006019999999N003000199+00201+00131101771ADDAY161021AY221021GA1081+004501061GE19MSL   +99999+99999GF108991081999004501999999MA1999999101631MD1610131+9999MW1611REMSYN06001003 41430 82106 10020 20013 30163 40177 56013 76162 885//=
0089010030999992016010316004+77000+015500FM-12+001299999V0202201N005019999999N999999999+00201+00141101751ADDMA1999999101611MD1710091+9999REMSYN04801003 46/// /2205 10020 20014 30161 40175 57009=
0089010030999992016010317004+77000+015500FM-12+001299999V0202401N005019999999N999999999+00161+00101101741ADDMA1999999101601MD1710071+9999REMSYN04801003 46/// /2405 10016 20010 30160 40174 57007=
0247010030999992016010318004+77000+015500FM-12+001299999V0202201N006019999999N003000199+00191+00131101711ADDAA112006031AY161021AY221021GA1081+004501061GE19MSL   +99999+99999GF108991081999004501999999KA1120M+00381MA1999999101571MD1710071+9999MW1611OD139901401999REMSYN08201003 11430 82206 10019 20013 30157 40171 57007 60062 76162 885// 333 10038 91114=
0089010030999992016010319004+77000+015500FM-12+001299999V0202301N007019999999N999999999+00191+00131101681ADDMA1999999101541MD1710071+9999REMSYN04801003 46/// /2307 10019 20013 30154 40168 57007=
0089010030999992016010320004+77000+015500FM-12+001299999V0202301N006019999999N999999999+00181+00121101631ADDMA1999999101491MD1710111+9999REMSYN04801003 46/// /2306 10018 20012 30149 40163 57011=
0187010030999992016010321004+77000+015500FM-12+001299999V0202601N005019999999N005000199+00251+00161101601ADDAY161021AY261021GA1081+004501061GE19MSL   +99999+99999GF108991081999004501999999MA1999999101461MD1710101+9999MW1611REMSYN06001003 41450 82605 10025 20016 30146 40160 57010 76166 885//=
0089010030999992016010322004+77000+015500FM-12+001299999V0202601N006019999999N999999999+00101+00001101611ADDMA1999999101471MD1610071+9999REMSYN04801003 46/// /2606 10010 20000 30147 40161 56007=
0089010030999992016010323004+77000+015500FM-12+001299999V0202501N005019999999N999999999+00111-00021101621ADDMA1999999101481MD1510011+9999REMSYN04801003 46/// /2505 10011 21002 30148 40162 55001=
0228010030999992016010400004+77000+015500FM-12+001299999V0202601N004019999999N008000199+00061-00041101601ADDAA106003031AY161021AY261021GA1081+004501061GE19MSL   +99999+99999GF108991081999004501999999MA1999999101461MD1410001+9999MW1611OD139901101999REMSYN07601003 11458 82604 10006 21004 30146 40160 54000 60031 76166 885// 333 91111=
0089010030999992016010401004+77000+015500FM-12+001299999V0202401N003019999999N999999999+00021-00051101591ADDMA1999999101451MD1710011+9999REMSYN04801003 46/// /2403 10002 21005 30145 40159 57001=
0089010030999992016010402004+77000+015500FM-12+001299999V0202501N004019999999N999999999+00011-00051101571ADDMA1999999101431MD1710051+9999REMSYN04801003 46/// /2504 10001 21005 30143 40157 57005=
0187010030999992016010403004+77000+015500FM-12+001299999V0202801N002019999999N005000199+00001-00041101541ADDAY171021AY261021GA1081+004501061GE19MSL   +99999+99999GF108991081999004501999999MA1999999101401MD1710061+9999MW1711REMSYN06001003 41450 82802 10000 21004 30140 40154 57006 77176 885//=
0089010030999992016010404004+77000+015500FM-12+001299999V0203401N001019999999N999999999+00001-00051101521ADDMA1999999101381MD1710071+9999REMSYN04801003 46/// /3401 10000 21005 30138 40152 57007=
0089010030999992016010405004+77000+015500FM-12+001299999V0201901N001019999999N999999999-00011-00051101521ADDMA1999999101381MD1710051+9999REMSYN04801003 46/// /1901 11001 21005 30138 40152 57005=
0293010030999992016010406004+77000+015500FM-12+001299999V0202401N002019999999N008000199+00001-00041101531ADDAA112004031AA224009731AJ100013100005099AY171021AY261021GA1081+004501061GE19MSL   +99999+99999GF108991081999004501999999IA1279KA1240N-00011MA1999999101391MD1710011+9999MW1711OD139900501999REMSYN09401003 11458 82402 10000 21004 30139 40153 57001 60042 77176 885// 333 21001 43997 70097 91105=
0089010030999992016010407004+77000+015500FM-12+001299999V0209999C999999999999N999999999-00011-00051101551ADDMA1999999101411MD1210031+9999REMSYN04801003 46/// /0000 11001 21005 30141 40155 52003=
0089010030999992016010408004+77000+015500FM-12+001299999V0202801N002019999999N999999999+00001-00041101571ADDMA1999999101431MD1210051+9999REMSYN04801003 46/// /2802 10000 21004 30143 40157 52005=
0187010030999992016010409004+77000+015500FM-12+001299999V0200401N001019999999N007000199-00041-00081101601ADDAY171021AY221021GA1081+004501061GE19MSL   +99999+99999GF108991081999004501999999MA1999999101461MD1210071+9999MW1101REMSYN06001003 41457 80401 11004 21008 30146 40160 52007 71072 885//=
0089010030999992016010410004+77000+015500FM-12+001299999V0202801N004019999999N999999999-00031-00311101621ADDMA1999999101481MD1210071+9999REMSYN04801003 46/// /2804 11003 21031 30148 40162 52007=
0089010030999992016010411004+77000+015500FM-12+001299999V0203001N005019999999N999999999-00101-00471101641ADDMA1999999101501MD1210081+9999REMSYN04801003 46/// /3005 11010 21047 30150 40164 52008=
0228010030999992016010412004+77000+015500FM-12+001299999V0202901N005019999999N015000199-00111-00571101671ADDAA106000021AY171021AY221021GA1051+999999031GE19MSL   +99999+99999GF105991051999999999999999MA1999999101531MD1210061+9999MW1011OD139900801999REMSYN07601003 11965 52905 11011 21057 30153 40167 52006 69901 70172 85030 333 91108=
0089010030999992016010413004+77000+015500FM-12+001299999V0203101N004019999999N999999999-00131-00551101721ADDMA1999999101581MD1310101+9999REMSYN04801003 46/// /3104 11013 21055 30158 40172 53010=
0089010030999992016010414004+77000+015500FM-12+001299999V0203001N002019999999N999999999-00201-00591101761ADDMA1999999101621MD1210121+9999REMSYN04801003 46/// /3002 11020 21059 30162 40176 52012=
0089010030999992016010416004+77000+015500FM-12+001299999V0200401N002019999999N999999999-00261-00571101861ADDMA1999999101721MD1210131+9999REMSYN04801003 46/// /0402 11026 21057 30172 40186 52013=
0089010030999992016010417004+77000+015500FM-12+001299999V0200901N001019999999N999999999-00221-00511101881ADDMA1999999101741MD1110121+9999REMSYN04801003 46/// /0901 11022 21051 30174 40188 51012=
0247010030999992016010418004+77000+015500FM-12+001299999V0203401N002019999999N010000199-00121-00491101951ADDAA112000021AY111021AY211021GA1081+999999031GE19MSL   +99999+99999GF108991081999999999999999KA1120M+00011MA1999999101811MD1310131+9999MW1031OD139900701999REMSYN08201003 11960 83402 11012 21049 30181 40195 53013 69902 70311 8803/ 333 10001 91107=
0089010030999992016010419004+77000+015500FM-12+001299999V0203401N004019999999N999999999-00101-00471101991ADDMA1999999101851MD1210131+9999REMSYN04801003 46/// /3404 11010 21047 30185 40199 52013=
0089010030999992016010420004+77000+015500FM-12+001299999V0202901N002019999999N999999999-00091-00431102021ADDMA1999999101881MD1110131+9999REMSYN04801003 46/// /2902 11009 21043 30188 40202 51013=
0187010030999992016010421004+77000+015500FM-12+001299999V0203201N003019999999N010000199-00071-00461102061ADDAY121021AY221021GA1071+999999031GE19MSL   +99999+99999GF107991071999999999999999MA1999999101921MD1210101+9999MW1011REMSYN06001003 41960 73203 11007 21046 30192 40206 52010 70122 8703/=
0089010030999992016010422004+77000+015500FM-12+001299999V0203401N003019999999N999999999-00091-00481102061ADDMA1999999101921MD1110081+9999REMSYN04801003 46/// /3403 11009 21048 30192 40206 51008=
0089010030999992016010423004+77000+015500FM-12+001299999V0200301N001019999999N999999999-00151-00481102101ADDMA1999999101961MD1110081+9999REMSYN04801003 46/// /0301 11015 21048 30196 40210 51008=
0228010030999992016010500004+77000+015500FM-12+001299999V0200601N001019999999N010000199-00181-00501102121ADDAA106000091AY111021AY211021GA1041+999999031GE19MSL   +99999+99999GF104991041999999999999999MA1999999101981MD1210061+9999MW1011OD139900801999REMSYN07601003 11960 40601 11018 21050 30198 40212 52006 60001 70111 84030 333 91108=
0089010030999992016010501004+77000+015500FM-12+001299999V0200601N002019999999N999999999-00301-00521102131ADDMA1999999101991MD1210071+9999REMSYN04801003 46/// /0602 11030 21052 30199 40213 52007=
0089010030999992016010502004+77000+015500FM-12+001299999V0200601N003019999999N999999999-00311-00591102151ADDMA1999999102011MD1210041+9999REMSYN04801003 46/// /0603 11031 21059 30201 40215 52004=
0203010030999992016010503004+77000+015500FM-12+001299999V0200501N002019999999N015000199-00291-00601102141ADDAY101021AY201021GA1021+999999051GA2999+999999021GE19MSL   +99999+99999GF104991021999999999999999MA1999999102001MD1210021+9999MW1011REMSYN06001003 41965 40502 11029 21060 30200 40214 52002 70100 82028=
0089010030999992016010504004+77000+015500FM-12+001299999V0200301N002019999999N999999999-00321-00611102151ADDMA1999999102011MD1210011+9999REMSYN04801003 46/// /0302 11032 21061 30201 40215 52001=
0089010030999992016010505004+77000+015500FM-12+001299999V0200701N002019999999N999999999-00341-00621102171ADDMA1999999102031MD1210021+9999REMSYN04801003 46/// /0702 11034 21062 30203 40217 52002=
0292010030999992016010506004+77000+015500FM-12+001299999V0200701N002019999999N010000199-00431-00691102171ADDAA106000091AJ100013100005099AY101021AY201021GA1021+999999031GA2999+999999021GE19MSL   +99999+99999GF104991021999999999999999IA1279KA1240N-00431MA1999999102031MD1210031+9999MW1021OD139900401999REMSYN08801003 11960 40702 11043 21069 30203 40217 52003 60001 70200 82038 333 21043 43997 91104=
0089010030999992016010507004+77000+015500FM-12+001299999V0200701N002019999999N999999999-00411-00731102181ADDMA1999999102041MD1210041+9999REMSYN04801003 46/// /0702 11041 21073 30204 40218 52004=
0089010030999992016010508004+77000+015500FM-12+001299999V0200801N002019999999N999999999-00521-00761102191ADDMA1999999102051MD1210021+9999REMSYN04801003 46/// /0802 11052 21076 30205 40219 52002=
0206010030999992016010509004+77000+015500FM-12+001299999V0200701N001019999999N030000199-00471-00801102221ADDAY101021AY201021GA1999+999999001GE19MSL   +99999+99999GF101991001999999999999999MA1999999102081MD1210041+9999MW1011REMSYN06001003 41980 10701 11047 21080 30208 40222 52004 70100 80001=EQDQ01    003SCCGA1
0089010030999992016010510004+77000+015500FM-12+001299999V0200401N001019999999N999999999-00551-00781102231ADDMA1999999102091MD1210051+9999REMSYN04801003 46/// /0401 11055 21078 30209 40223 52005=
0089010030999992016010511004+77000+015500FM-12+001299999V0200601N002019999999N999999999-00581-00821102211ADDMA1999999102071MD1990021+9999REMSYN04801003 46/// /0602 11058 21082 30207 40221 50002=
0244010030999992016010512004+77000+015500FM-12+001299999V0200601N002019999999N035000199-00611-00851102201ADDAA106000091AY101021AY201021GA1011+999999051GA2999+999999001GE19MSL   +99999+99999GF101991011999999999999999MA1999999102061MD1810021+9999MW1031OD139900401999REMSYN07601003 11981 10602 11061 21085 30206 40220 58002 60001 70300 81021 333 91104=
0089010030999992016010513004+77000+015500FM-12+001299999V0200401N001019999999N999999999-00631-00861102181ADDMA1999999102041MD1710051+9999REMSYN04801003 46/// /0401 11063 21086 30204 40218 57005=
0089010030999992016010514004+77000+015500FM-12+001299999V0200801N002019999999N999999999-00591-00831102171ADDMA1999999102031MD1710041+9999REMSYN04801003 46/// /0802 11059 21083 30203 40217 57004=
0187010030999992016010515004+77000+015500FM-12+001299999V0200401N002019999999N012000199-00691-00991102181ADDAY101021AY201021GA1011+999999051GE19MSL   +99999+99999GF101991011999999999999999MA1999999102041MD1510021+9999MW1011REMSYN06001003 41962 10402 11069 21099 30204 40218 55002 70100 81020=
0108010030999992016010516004+77000+015500FM-12+001299999V0200501N001019999999N999999999-00661-00901102171ADDMA1999999102031MD1790019+9999REMSYN04801003 46/// /0501 11066 21090 30203 40217 54001=EQDQ014     3APCTEN
0089010030999992016010517004+77000+015500FM-12+001299999V0209999C999999999999N999999999-00711-00951102151ADDMA1999999102011MD1810021+9999REMSYN04801003 46/// /0000 11071 21095 30201 40215 58002=
0247010030999992016010518004+77000+015500FM-12+001299999V0200701N002019999999N010000199-00681-00891102141ADDAA112000091AY101021AY201021GA1031+999999031GE19MSL   +99999+99999GF103991031999999999999999KA1120M-00401MA1999999102001MD1710051+9999MW1031OD139900401999REMSYN08201003 11960 30702 11068 21089 30200 40214 57005 60002 70300 83030 333 11040 91104=
0089010030999992016010519004+77000+015500FM-12+001299999V0200601N002019999999N999999999-00731-00931102121ADDMA1999999101981MD1710051+9999REMSYN04801003 46/// /0602 11073 21093 30198 40212 57005=
0089010030999992016010520004+77000+015500FM-12+001299999V0200601N001019999999N999999999-00711-00981102101ADDMA1999999101961MD1710051+9999REMSYN04801003 46/// /0601 11071 21098 30196 40210 57005=
0187010030999992016010521004+77000+015500FM-12+001299999V0200501N001019999999N025000199-00721-00951102061ADDAY101021AY201021GA1021+999999031GE19MSL   +99999+99999GF102991021999999999999999MA1999999101921MD1710071+9999MW1011REMSYN06001003 41975 20501 11072 21095 30192 40206 57007 70100 82030=
0089010030999992016010522004+77000+015500FM-12+001299999V0200401N001019999999N999999999-00621-00791102061ADDMA1999999101921MD1710051+9999REMSYN04801003 46/// /0401 11062 21079 30192 40206 57005=
0228010030999992016010600004+77000+015500FM-12+001299999V0203401N002019999999N025000199-00601-00791102031ADDAA106000091AY111021AY211021GA1081+999999031GE19MSL   +99999+99999GF108991081999999999999999MA1999999101891MD1710031+9999MW1031OD139900401999REMSYN07601003 11975 83402 11060 21079 30189 40203 57003 60001 70311 8803/ 333 91104=
0089010030999992016010601004+77000+015500FM-12+001299999V0200501N003019999999N999999999-00651-00811101971ADDMA1999999101831MD1810101+9999REMSYN04801003 46/// /0503 11065 21081 30183 40197 58010=
0089010030999992016010602004+77000+015500FM-12+001299999V0200601N003019999999N999999999-00661-00821101971ADDMA1999999101831MD1610071+9999REMSYN04801003 46/// /0603 11066 21082 30183 40197 56007=
0187010030999992016010603004+77000+015500FM-12+001299999V0200701N002019999999N015000199-00651-00811101951ADDAY121021AY221021GA1081+004501061GE19MSL   +99999+99999GF108991081999004501999999MA1999999101811MD1610081+9999MW1031REMSYN06001003 41465 80702 11065 21081 30181 40195 56008 70322 885//=
0089010030999992016010604004+77000+015500FM-12+001299999V0202801N001019999999N999999999-00661-00831101921ADDMA1999999101781MD1710051+9999REMSYN04801003 46/// /2801 11066 21083 30178 40192 57005=
0089010030999992016010605004+77000+015500FM-12+001299999V0200601N002019999999N999999999-00701-00851101901ADDMA1999999101761MD1710061+9999REMSYN04801003 46/// /0602 11070 21085 30176 40190 57006=
0234010030999992016010606004+77002+015536FM-12+001099999V0200631N0031100300199015000199-00751-00891101891ADDAA101999999AA224999999AJ199999999999999AY121061AY221061GA1081+003001061GA2999+999999101GA3999+999999101GE19MSL   +99999+99999GF108991081999003001999999IA1279KA1120M-00581KA2120N-00761MA1999999101751MD1710061+9999MW1021REMSYN004BUFR
0089010030999992016010607004+77000+015500FM-12+001299999V0200401N003019999999N999999999-00811-00921101871ADDMA1999999101731MD1710051+9999REMSYN04801003 46/// /0403 11081 21092 30173 40187 57005=
0089010030999992016010608004+77000+015500FM-12+001299999V0203201N002019999999N999999999-00851-00971101931ADDMA1999999101781MD1310011+9999REMSYN04801003 46/// /3202 11085 21097 30178 40193 53001=
0203010030999992016010609004+77000+015500FM-12+001299999V0200501N003019999999N025000199-00981-01161101891ADDAY111021AY211021GA1011+004501061GA2999+999999031GE19MSL   +99999+99999GF101991011999004501999999MA1999999101741MD1990001+9999MW1011REMSYN06001003 41475 10503 11098 21116 30174 40189 50000 70111 81540=
0089010030999992016010610004+77000+015500FM-12+001299999V0200601N002019999999N999999999-00931-01111101861ADDMA1999999101711MD1810021+9999REMSYN04801003 46/// /0602 11093 21111 30171 40186 58002=
0089010030999992016010611004+77000+015500FM-12+001299999V0200101N001019999999N999999999-00931-01151101841ADDMA1999999101691MD1710081+9999REMSYN04801003 46/// /0101 11093 21115 30169 40184 57008=
0244010030999992016010612004+77000+015500FM-12+001299999V0200601N003019999999N020000199-00821-01071101821ADDAA106000091AY111021AY211021GA1021+004501061GA2999+999999031GE19MSL   +99999+99999GF106991021999004501999999MA1999999101681MD1710061+9999MW1031OD139900501999REMSYN07601003 11470 60603 11082 21107 30168 40182 57006 60001 70311 82530 333 91105=
0089010030999992016010613004+77000+015500FM-12+001299999V0200601N004019999999N999999999-00761-01091101801ADDMA1999999101661MD1710051+9999REMSYN04801003 46/// /0604 11076 21109 30166 40180 57005=
0089010030999992016010614004+77000+015500FM-12+001299999V0200601N003019999999N999999999-00641-01001101791ADDMA1999999101651MD1710041+9999REMSYN04801003 46/// /0603 11064 21100 30165 40179 57004=
0203010030999992016010615004+77000+015500FM-12+001299999V0200401N001019999999N015000199-00711-01081101771ADDAY121021AY221021GA1031+004501061GA2999+999999031GE19MSL   +99999+99999GF107991031999004501999999MA1999999101631MD1710051+9999MW1031REMSYN06001003 41465 70401 11071 21108 30163 40177 57005 70322 8357/=
0089010030999992016010616004+77000+015500FM-12+001299999V0202801N002019999999N999999999-00711-01071101781ADDMA1999999101641MD1510021+9999REMSYN04801003 46/// /2802 11071 21107 30164 40178 55002=
0089010030999992016010617004+77000+015500FM-12+001299999V0200501N003019999999N999999999-00711-01051101801ADDMA1999999101661MD1510011+9999REMSYN04801003 46/// /0503 11071 21105 30166 40180 55001=
0247010030999992016010618004+77000+015500FM-12+001299999V0200501N002019999999N020000199-00641-01001101811ADDAA112000091AY111021AY211021GA1031+999999031GE19MSL   +99999+99999GF103991031999999999999999KA1120M-00601MA1999999101671MD1210041+9999MW1011OD139900501999REMSYN08201003 11970 30502 11064 21100 30167 40181 52004 60002 70111 83030 333 11060 91105=
0089010030999992016010619004+77000+015500FM-12+001299999V0200601N004019999999N999999999-00691-00931101791ADDMA1999999101651MD1990001+9999REMSYN04801003 46/// /0604 11069 21093 30165 40179 50000=
0089010030999992016010620004+77000+015500FM-12+001299999V0200601N004019999999N999999999-00771-01021101811ADDMA1999999101671MD1310011+9999REMSYN04801003 46/// /0604 11077 21102 30167 40181 53001=
0187010030999992016010621004+77000+015500FM-12+001299999V0200801N006019999999N012000199-00661-00891101821ADDAY111021AY211021GA1031+999999031GE19MSL   +99999+99999GF103991031999999999999999MA1999999101681MD1510011+9999MW1021REMSYN06001003 41962 30806 11066 21089 30168 40182 55001 70211 83030=
0089010030999992016010622004+77000+015500FM-12+001299999V0200701N005019999999N999999999-00621-00851101851ADDMA1999999101711MD1210061+9999REMSYN04801003 46/// /0705 11062 21085 30171 40185 52006=
0089010030999992016010623004+77000+015500FM-12+001299999V0200601N006019999999N999999999-00611-00881101881ADDMA1999999101741MD1210051+9999REMSYN04801003 46/// /0606 11061 21088 30174 40188 52005=
0228010030999992016010700004+77000+015500FM-12+001299999V0200601N006019999999N020000199-00651-00931101901ADDAA106000091AY111021AY211021GA1011+999999031GE19MSL   +99999+99999GF101991011999999999999999MA1999999101761MD1990071+9999MW1011OD139900801999REMSYN07601003 11970 10606 11065 21093 30176 40190 50007 60001 70111 81030 333 91108=
0089010030999992016010701004+77000+015500FM-12+001299999V0200401N005019999999N999999999-00681-01021101921ADDMA1999999101781MD1210071+9999REMSYN04801003 46/// /0405 11068 21102 30178 40192 52007=
0089010030999992016010702004+77000+015500FM-12+001299999V0200501N005019999999N999999999-00621-01041101921ADDMA1999999101781MD1110041+9999REMSYN04801003 46/// /0505 11062 21104 30178 40192 51004=
0187010030999992016010703004+77000+015500FM-12+001299999V0200501N005019999999N012000199-00661-01081101921ADDAY111021AY211021GA1031+999999031GE19MSL   +99999+99999GF103991031999999999999999MA1999999101781MD1210021+9999MW1031REMSYN06001003 41962 30505 11066 21108 30178 40192 52002 70311 83030=
0108010030999992016010704004+77000+015500FM-12+001299999V0200301N005019999999N999999999-00611-01081101931ADDMA1999999101791MD1290019+9999REMSYN04801003 46/// /0305 11061 21108 30179 40193 54001=EQDQ01.1    3APC3  
0108010030999992016010705004+77000+015500FM-12+001299999V0200201N006019999999N999999999-00561-01021101921ADDMA1999999101781MD1410009+9999REMSYN04801003 46/// /0206 11056 21102 30178 40192 54001=EQDQ01.1    3APC3  
0293010030999992016010706004+77000+015500FM-12+001299999V0200201N007019999999N012000199-00521-01031101911ADDAA112000091AA224000091AJ100013100005099AY111021AY211021GA1011+008001061GE19MSL   +99999+99999GF101991011999008001999999IA1279KA1240N-00771MA1999999101771MD1510001+9999MW1011OD139901001999REMSYN09401003 11562 10207 11052 21103 30177 40191 55000 60002 70111 81500 333 21077 43997 70000 91110=
0089010030999992016010707004+77000+015500FM-12+001299999V0200201N006019999999N999999999-00521-01051101941ADDMA1999999101801MD1310011+9999REMSYN04801003 46/// /0206 11052 21105 30180 40194 53001=
0089010030999992016010708004+77000+015500FM-12+001299999V0200301N007019999999N999999999-00511-01041101941ADDMA1999999101801MD1310031+9999REMSYN04801003 46/// /0307 11051 21104 30180 40194 53003=
0187010030999992016010709004+77000+015500FM-12+001299999V0200401N007019999999N015000199-00491-00981101941ADDAY111021AY211021GA1021+008001061GE19MSL   +99999+99999GF102991021999008001999999MA1999999101801MD1210031+9999MW1031REMSYN06001003 41565 20407 11049 21098 30180 40194 52003 70311 82500=
0089010030999992016010710004+77000+015500FM-12+001299999V0200401N008019999999N999999999-00481-01011101931ADDMA1999999101791MD1410001+9999REMSYN04801003 46/// /0408 11048 21101 30179 40193 54000=
0089010030999992016010711004+77000+015500FM-12+001299999V0200301N009019999999N999999999-00501-01051101941ADDMA1999999101801MD1210021+9999REMSYN04801003 46/// /0309 11050 21105 30180 40194 52002=
0260010030999992016010712004+77000+015500FM-12+001299999V0200401N008019999999N007000199-00501-01011101921ADDAA106000091AY111021AY211021GA1041+004501061GA2999+999999031GA3999+999999001GE19MSL   +99999+99999GF105991041999004501999999MA1999999101781MD1810041+9999MW1151OD139901301999REMSYN07601003 11457 50408 11050 21101 30178 40192 58004 60001 71511 84531 333 91113=
0089010030999992016010713004+77000+015500FM-12+001299999V0200501N009019999999N999999999-00501-00911101901ADDMA1999999101761MD1810041+9999REMSYN04801003 46/// /0509 11050 21091 30176 40190 58004=
0089010030999992016010714004+77000+015500FM-12+001299999V0200601N010019999999N999999999-00501-00981101871ADDMA1999999101731MD1810061+9999REMSYN04801003 46/// /0610 11050 21098 30173 40187 58006=
0203010030999992016010715004+77000+015500FM-12+001299999V0200501N010019999999N007000199-00561-01051101891ADDAY171021AY211021GA1031+004501061GA2999+999999031GE19MSL   +99999+99999GF103991031999004501999999MA1999999101751MD1810061+9999MW1361REMSYN06001003 41457 30510 11056 21105 30175 40189 58006 73671 83530=
0089010030999992016010716004+77000+015500FM-12+001299999V0200401N010019999999N999999999-00591-01121101871ADDMA1999999101731MD1510021+9999REMSYN04801003 46/// /0410 11059 21112 30173 40187 55002=
0089010030999992016010717004+77000+015500FM-12+001299999V0200501N011019999999N999999999-00601-01071101821ADDMA1999999101681MD1510041+9999REMSYN04801003 46/// /0511 11060 21107 30168 40182 55004=
0149010030999992016010718004+77000+015500FM-12+001299999V0200601N012019999999N999999999-00651-01111101781ADDAA199999919KA1120M-00481MA1999999101641MD1810111+9999OD139901901999REMSYN07001003 16/// /0612 11065 21111 30164 40178 58011 6//// 333 11048 91119=
0089010030999992016010719004+77000+015500FM-12+001299999V0200601N011019999999N999999999-00631-01101101771ADDMA1999999101631MD1610121+9999REMSYN04801003 46/// /0611 11063 21110 30163 40177 56012=
0089010030999992016010720004+77000+015500FM-12+001299999V0200601N011019999999N999999999-00681-01041101741ADDMA1999999101601MD1610071+9999REMSYN04801003 46/// /0611 11068 21104 30160 40174 56007=
0203010030999992016010721004+77002+015536FM-12+001099999V0200491N0119100300199003000199-00791-01101101751ADDAY171031AY231031GA1081+003001061GA2999+999999101GA3999+999999101GE19MSL   +99999+99999GF108991081999003001999999KA1010M-00691KA2010N-00801MA1999999101611MD1510021+9999MW1711OD130101641999REMSYN004BUFR
0089010030999992016010722004+77000+015500FM-12+001299999V0200501N011019999999N999999999-00831-01181101761ADDMA1999999101621MD1410001+9999REMSYN04801003 46/// /0511 11083 21118 30162 40176 54000=
0089010030999992016010723004+77000+015500FM-12+001299999V0200401N012019999999N999999999-00871-01161101741ADDMA1999999101591MD1990001+9999REMSYN04801003 46/// /0412 11087 21116 30159 40174 50000=
0203010030999992016010800004+77002+015536FM-12+001099999V0200421N0118100300199003000199-00851-01231101691ADDAY171061AY231061GA1081+003001061GA2999+999999101GA3999+999999101GE19MSL   +99999+99999GF108991081999003001999999KA1010M-00841KA2010N-00881MA1999999101551MD1810031+9999MW1711OD130601871999REMSYN004BUFR
0089010030999992016010801004+77000+015500FM-12+001299999V0200401N012019999999N999999999-00821-01171101671ADDMA1999999101531MD1810121+9999REMSYN04801003 46/// /0412 11082 21117 30153 40167 58012=
0085010030999992016010802004+77002+015536FM-12+001099999V0200411N0118199999999999999999-00741-01141101581ADDKA1010M-00741KA2010N-00831MA1999999101441MD1819999+9999OD130102021999REMSYN004BUFR
0203010030999992016010803004+77002+015536FM-12+001099999V0200371N0116100300199003000199-00691-01131101571ADDAY171031AY231031GA1081+003001061GA2999+999999101GA3999+999999101GE19MSL   +99999+99999GF108991081999003001999999KA1010M-00691KA2010N-00751MA1999999101431MD1810141+9999MW1711OD130101911999REMSYN004BUFR
0089010030999992016010804004+77000+015500FM-12+001299999V0200501N012019999999N999999999-00661-01101101461ADDMA1999999101321MD1810201+9999REMSYN04801003 46/// /0512 11066 21110 30132 40146 58020=
0085010030999992016010805004+77002+015536FM-12+001099999V0200391N0118199999999999999999-00651-01041101491ADDKA1010M-00621KA2010N-00681MA1999999101351MD1519999+9999OD130101741999REMSYN004BUFR
0248010030999992016010806004+77002+015536FM-12+001099999V0200431N0123100300199003000199-00621-00991101451ADDAA101999999AA224000231AJ100003100000099AY171061AY231061GA1081+003001061GA2999+999999101GA3999+999999101GE19MSL   +99999+99999GF108991081999003001999999IA1239KA1120M-00581KA2120N-00881MA1999999101311MD1619999+9999MW1711OD130602451999REMSYN004BUFR
0089010030999992016010807004+77000+015500FM-12+001299999V0200401N012019999999N999999999-00601-00991101481ADDMA1999999101341MD1510011+9999REMSYN04801003 46/// /0412 11060 21099 30134 40148 55001=
0089010030999992016010808004+77000+015500FM-12+001299999V0200601N012019999999N999999999-00501-00941101371ADDMA1999999101231MD1810111+9999REMSYN04801003 46/// /0612 11050 21094 30123 40137 58011=
0187010030999992016010809004+77000+015500FM-12+001299999V0200701N014019999999N003000199-00471-00831101331ADDAY171021AY231021GA1081+004501061GE19MSL   +99999+99999GF108991081999004501999999MA1999999101191MD1810141+9999MW1711REMSYN06001003 41430 80714 11047 21083 30119 40133 58014 77173 885//=
0085010030999992016010810004+77002+015536FM-12+001099999V0200701N0127199999999999999999-00421-00841101371ADDKA1010M-00431KA2010N-00491MA1999999101231MD1519999+9999OD130102391999REMSYN004BUFR
0085010030999992016010811004+77002+015536FM-12+001099999V0200681N0087199999999999999999-00401-00781101471ADDKA1010M-00411KA2010N-00481MA1999999101331MD1319999+9999OD130102071999REMSYN004BUFR
0130010030999992016010812004+77000+015500FM-12+001299999V0200701N013019999999N999999999-00441-00661101381ADDAA199999919MA1999999101241MD1990041+9999OD139902401999REMSYN06401003 16/// /0713 11044 21066 30124 40138 50004 6//// 333 91124=
0089010030999992016010813004+77000+015500FM-12+001299999V0200701N011019999999N999999999-00451-00571101461ADDMA1999999101321MD1310081+9999REMSYN04801003 46/// /0711 11045 21057 30132 40146 53008=
0089010030999992016010814004+77000+015500FM-12+001299999V0200701N012019999999N999999999-00421-00681101461ADDMA1999999101321MD1510031+9999REMSYN04801003 46/// /0712 11042 21068 30132 40146 55003=
0089010030999992016010815004+77000+015500FM-12+001299999V0200701N010019999999N999999999-00411-00761101501ADDMA1999999101361MD1110121+9999REMSYN04801003 46/// /0710 11041 21076 30136 40150 51012=
0089010030999992016010816004+77000+015500FM-12+001299999V0200701N010019999999N999999999-00421-00771101521ADDMA1999999101381MD1210061+9999REMSYN04801003 46/// /0710 11042 21077 30138 40152 52006=
0089010030999992016010817004+77000+015500FM-12+001299999V0200601N009019999999N999999999-00441-00761101511ADDMA1999999101371MD1990031+9999REMSYN04801003 46/// /0609 11044 21076 30137 40151 50003=
0149010030999992016010818004+77000+015500FM-12+001299999V0200701N012019999999N999999999-00441-00821101451ADDAA199999919KA1120M-00351MA1999999101311MD1990001+9999OD139902101999REMSYN07001003 16/// /0712 11044 21082 30131 40145 50000 6//// 333 11035 91121=
0089010030999992016010819004+77000+015500FM-12+001299999V0200601N011019999999N999999999-00431-00781101541ADDMA1999999101401MD1510011+9999REMSYN04801003 46/// /0611 11043 21078 30140 40154 55001=
0089010030999992016010820004+77000+015500FM-12+001299999V0200701N008019999999N999999999-00351-00721101541ADDMA1999999101401MD1310061+9999REMSYN04801003 46/// /0708 11035 21072 30140 40154 53006=
0089010030999992016010821004+77000+015500FM-12+001299999V0200601N011019999999N999999999-00371-00691101531ADDMA1999999101391MD1990101+9999REMSYN04801003 46/// /0611 11037 21069 30139 40153 50010=
0089010030999992016010822004+77000+015500FM-12+001299999V0200501N010019999999N999999999-00421-00671101601ADDMA1999999101461MD1310091+9999REMSYN04801003 46/// /0510 11042 21067 30146 40160 53009=
0089010030999992016010823004+77000+015500FM-12+001299999V0200601N010019999999N999999999-00301-00641101591ADDMA1999999101451MD1990021+9999REMSYN04801003 46/// /0610 11030 21064 30145 40159 50002=
0130010030999992016010900004+77000+015500FM-12+001299999V0200701N010019999999N999999999-00371-00481101601ADDAA199999919MA1999999101461MD1110121+9999OD139902301999REMSYN06401003 16/// /0710 11037 21048 30146 40160 51012 6//// 333 91123=
0089010030999992016010901004+77000+015500FM-12+001299999V0200701N010019999999N999999999-00281-00571101631ADDMA1999999101491MD1510011+9999REMSYN04801003 46/// /0710 11028 21057 30149 40163 55001=
0089010030999992016010902004+77000+015500FM-12+001299999V0200701N011019999999N999999999-00351-00511101631ADDMA1999999101491MD1210031+9999REMSYN04801003 46/// /0711 11035 21051 30149 40163 52003=
0089010030999992016010903004+77000+015500FM-12+001299999V0200801N012019999999N999999999-00301-00551101661ADDMA1999999101521MD1210051+9999REMSYN04801003 46/// /0812 11030 21055 30152 40166 52005=
0089010030999992016010904004+77000+015500FM-12+001299999V0200701N011019999999N999999999-00311-00631101641ADDMA1999999101501MD1990011+9999REMSYN04801003 46/// /0711 11031 21063 30150 40164 50001=
0089010030999992016010905004+77000+015500FM-12+001299999V0200601N010019999999N999999999-00341-00711101661ADDMA1999999101521MD1310021+9999REMSYN04801003 46/// /0610 11034 21071 30152 40166 53002=
0149010030999992016010906004+77000+015500FM-12+001299999V0200601N013019999999N999999999-00321-00661101571ADDAA199999919KA1240N-00471MA1999999101431MD1810101+9999OD139902101999REMSYN07001003 16/// /0613 11032 21066 30143 40157 58010 6//// 333 21047 91121=
0089010030999992016010907004+77000+015500FM-12+001299999V0200701N012019999999N999999999-00291-00711101671ADDMA1999999101531MD1310021+9999REMSYN04801003 46/// /0712 11029 21071 30153 40167 53002=
0089010030999992016010908004+77000+015500FM-12+001299999V0200601N011019999999N999999999-00311-00651101681ADDMA1999999101541MD1310051+9999REMSYN04801003 46/// /0611 11031 21065 30154 40168 53005=
0089010030999992016010909004+77000+015500FM-12+001299999V0200701N012019999999N999999999-00361-00621101781ADDMA1999999101641MD1110211+9999REMSYN04801003 46/// /0712 11036 21062 30164 40178 51021=
0089010030999992016010910004+77000+015500FM-12+001299999V0200801N011019999999N999999999-00341-00771101801ADDMA1999999101661MD1210151+9999REMSYN04801003 46/// /0811 11034 21077 30166 40180 52015=
0089010030999992016010911004+77000+015500FM-12+001299999V0200601N013019999999N999999999-00391-00821101791ADDMA1999999101651MD1990091+9999REMSYN04801003 46/// /0613 11039 21082 30165 40179 50009=
0130010030999992016010912004+77000+015500FM-12+001299999V0200601N011019999999N999999999-00411-00941101881ADDAA199999919MA1999999101741MD1310091+9999OD139902301999REMSYN06401003 16/// /0611 11041 21094 30174 40188 53009 6//// 333 91123=
0089010030999992016010913004+77000+015500FM-12+001299999V0200701N012019999999N999999999-00411-00941101861ADDMA1999999101721MD1990041+9999REMSYN04801003 46/// /0712 11041 21094 30172 40186 50004=
0089010030999992016010914004+77000+015500FM-12+001299999V0200501N010019999999N999999999-00491-00971101861ADDMA1999999101721MD1110061+9999REMSYN04801003 46/// /0510 11049 21097 30172 40186 51006=
0089010030999992016010915004+77000+015500FM-12+001299999V0200601N010019999999N999999999-00421-00951101841ADDMA1999999101701MD1710021+9999REMSYN04801003 46/// /0610 11042 21095 30170 40184 57002=
0089010030999992016010916004+77000+015500FM-12+001299999V0200701N010019999999N999999999-00421-00971101851ADDMA1999999101711MD1710021+9999REMSYN04801003 46/// /0710 11042 21097 30171 40185 57002=
0089010030999992016010917004+77000+015500FM-12+001299999V0200601N008019999999N999999999-00471-00971101841ADDMA1999999101701MD1510011+9999REMSYN04801003 46/// /0608 11047 21097 30170 40184 55001=
0168010030999992016010918004+77000+015500FM-12+001299999V0200701N009019999999N999999999-00441-01011101861ADDAA199999919KA1120M-00271MA1999999101721MD1290029+9999OD139901901999REMSYN07001003 16/// /0709 11044 21101 30172 40186 54001 6//// 333 11027 91119=EQDQ01.1    3APC3  
0108010030999992016010919004+77000+015500FM-12+001299999V0200701N010019999999N999999999-00441-01031101851ADDMA1999999101711MD1410009+9999REMSYN04801003 46/// /0710 11044 21103 30171 40185 54001=EQDQ01.1    3APC3  
0089010030999992016010920004+77000+015500FM-12+001299999V0200601N009019999999N999999999-00491-01021101871ADDMA1999999101731MD1210031+9999REMSYN04801003 46/// /0609 11049 21102 30173 40187 52003=
0089010030999992016010921004+77000+015500FM-12+001299999V0200601N009019999999N999999999-00531-01081101911ADDMA1999999101771MD1310051+9999REMSYN04801003 46/// /0609 11053 21108 30177 40191 53005=
0089010030999992016010922004+77000+015500FM-12+001299999V0200601N009019999999N999999999-00521-01011101891ADDMA1999999101751MD1990031+9999REMSYN04801003 46/// /0609 11052 21101 30175 40189 50003=
0089010030999992016010923004+77000+015500FM-12+001299999V0200601N009019999999N999999999-00511-00991101891ADDMA1999999101751MD1990011+9999REMSYN04801003 46/// /0609 11051 21099 30175 40189 50001=
0130010030999992016011000004+77000+015500FM-12+001299999V0200601N009019999999N999999999-00561-01021101901ADDAA199999919MA1999999101761MD1510011+9999OD139901601999REMSYN06401003 16/// /0609 11056 21102 30176 40190 55001 6//// 333 91116=
0089010030999992016011001004+77000+015500FM-12+001299999V0200701N008019999999N999999999-00491-01021101901ADDMA1999999101761MD1990001+9999REMSYN04801003 46/// /0708 11049 21102 30176 40190 50000=
0089010030999992016011002004+77000+015500FM-12+001299999V0200701N009019999999N999999999-00501-01011101891ADDMA1999999101751MD1210021+9999REMSYN04801003 46/// /0709 11050 21101 30175 40189 52002=
0108010030999992016011003004+77000+015500FM-12+001299999V0200701N006019999999N999999999-00521-01091101911ADDMA1999999101771MD1290019+9999REMSYN04801003 46/// /0706 11052 21109 30177 40191 54001=EQDQ01.1    3APC3  
0089010030999992016011004004+77000+015500FM-12+001299999V0200701N007019999999N999999999-00531-01081101881ADDMA1999999101741MD1810011+9999REMSYN04801003 46/// /0707 11053 21108 30174 40188 58001=
0089010030999992016011005004+77000+015500FM-12+001299999V0200801N008019999999N999999999-00511-01021101851ADDMA1999999101711MD1710041+9999REMSYN04801003 46/// /0808 11051 21102 30171 40185 57004=
0149010030999992016011006004+77000+015500FM-12+001299999V0200601N008019999999N999999999-00521-01031101851ADDAA199999919KA1240N-00581MA1999999101711MD1710061+9999OD139901401999REMSYN07001003 16/// /0608 11052 21103 30171 40185 57006 6//// 333 21058 91114=
0089010030999992016011007004+77000+015500FM-12+001299999V0200701N010019999999N999999999-00501-01071101861ADDMA1999999101721MD1510031+9999REMSYN04801003 46/// /0710 11050 21107 30172 40186 55003=
0089010030999992016011008004+77000+015500FM-12+001299999V0200701N009019999999N999999999-00481-01011101881ADDMA1999999101741MD1210041+9999REMSYN04801003 46/// /0709 11048 21101 30174 40188 52004=
0089010030999992016011009004+77000+015500FM-12+001299999V0200601N009019999999N999999999-00481-01011101891ADDMA1999999101751MD1990031+9999REMSYN04801003 46/// /0609 11048 21101 30175 40189 50003=
0089010030999992016011010004+77000+015500FM-12+001299999V0200601N008019999999N999999999-00471-00971101891ADDMA1999999101751MD1990021+9999REMSYN04801003 46/// /0608 11047 21097 30175 40189 50002=
0089010030999992016011011004+77000+015500FM-12+001299999V0200601N008019999999N999999999-00501-00981101891ADDMA1999999101751MD1990001+9999REMSYN04801003 46/// /0608 11050 21098 30175 40189 50000=
0130010030999992016011012004+77000+015500FM-12+001299999V0200601N009019999999N999999999-00471-01001101901ADDAA199999919MA1999999101761MD1210021+9999OD139901401999REMSYN06401003 16/// /0609 11047 21100 30176 40190 52002 6//// 333 91114=
0089010030999992016011013004+77000+015500FM-12+001299999V0200501N007019999999N999999999-00511-01081101951ADDMA1999999101811MD1310061+9999REMSYN04801003 46/// /0507 11051 21108 30181 40195 53006=
0089010030999992016011014004+77000+015500FM-12+001299999V0200501N008019999999N999999999-00501-01031101951ADDMA1999999101811MD1990021+9999REMSYN04801003 46/// /0508 11050 21103 30181 40195 50002=
0089010030999992016011015004+77000+015500FM-12+001299999V0200501N007019999999N999999999-00531-01061101951ADDMA1999999101811MD1110041+9999REMSYN04801003 46/// /0507 11053 21106 30181 40195 51004=
0089010030999992016011016004+77000+015500FM-12+001299999V0200501N008019999999N999999999-00511-01001101941ADDMA1999999101801MD1510001+9999REMSYN04801003 46/// /0508 11051 21100 30180 40194 55000=
0089010030999992016011017004+77000+015500FM-12+001299999V0200501N009019999999N999999999-00481-00921101921ADDMA1999999101781MD1710031+9999REMSYN04801003 46/// /0509 11048 21092 30178 40192 57003=
0149010030999992016011018004+77000+015500FM-12+001299999V0200501N011019999999N999999999-00461-00861101911ADDAA199999919KA1120M-00451MA1999999101771MD1510011+9999OD139901601999REMSYN07001003 16/// /0511 11046 21086 30177 40191 55001 6//// 333 11045 91116=
0089010030999992016011019004+77000+015500FM-12+001299999V0200601N011019999999N999999999-00451-00861101921ADDMA1999999101781MD1510011+9999REMSYN04801003 46/// /0611 11045 21086 30178 40192 55001=
0089010030999992016011020004+77000+015500FM-12+001299999V0200501N011019999999N999999999-00461-00841101981ADDMA1999999101841MD1310051+9999REMSYN04801003 46/// /0511 11046 21084 30184 40198 53005=
0089010030999992016011021004+77000+015500FM-12+001299999V0200401N012019999999N999999999-00441-00791101991ADDMA1999999101851MD1310091+9999REMSYN04801003 46/// /0412 11044 21079 30185 40199 53009=
0089010030999992016011022004+77000+015500FM-12+001299999V0200501N010019999999N999999999-00441-00731101981ADDMA1999999101841MD1990081+9999REMSYN04801003 46/// /0510 11044 21073 30184 40198 50008=
0089010030999992016011023004+77000+015500FM-12+001299999V0200601N011019999999N999999999-00371-00741101941ADDMA1999999101801MD1990011+9999REMSYN04801003 46/// /0611 11037 21074 30180 40194 50001=
0225010030999992016011100004+77002+015536FM-12+001099999V0200451N0113199999999001000199-00401-00741102061ADDAA101999999AA206999999AY171061AY211061GA1091+999999101GA2999+999999101GA3999+999999101GE19MSL   +99999+99999GF199999091999999999999999KA1010M-00341KA2010N-00441MA1999999101921MD1310051+9999MW1711OD130601931999REMSYN004BUFR
0089010030999992016011101004+77000+015500FM-12+001299999V0200501N010019999999N999999999-00381-00721102041ADDMA1999999101901MD1310061+9999REMSYN04801003 46/// /0510 11038 21072 30190 40204 53006=
0089010030999992016011102004+77000+015500FM-12+001299999V0200701N011019999999N999999999-00351-00771102071ADDMA1999999101931MD1110141+9999REMSYN04801003 46/// /0711 11035 21077 30193 40207 51014=
0203010030999992016011103004+77002+015536FM-12+001099999V0200521N0098100600199001000199-00351-00831102161ADDAY171031AY231031GA1081+006001061GA2999+999999101GA3999+999999101GE19MSL   +99999+99999GF108991081999006001999999KA1010M-00331KA2010N-00401MA1999999102021MD1010041+9999MW1381OD130101751999REMSYN004BUFR
0089010030999992016011104004+77000+015500FM-12+001299999V0200601N011019999999N999999999-00331-00811102131ADDMA1999999101991MD1990071+9999REMSYN04801003 46/// /0611 11033 21081 30199 40213 50007=
0089010030999992016011105004+77000+015500FM-12+001299999V0200501N010019999999N999999999-00381-00761102171ADDMA1999999102031MD1310111+9999REMSYN04801003 46/// /0510 11038 21076 30203 40217 53011=
0177010030999992016011106004+77002+015536FM-12+001099999V0200801N0113199999999001000199-00301-00651102191ADDAY171061AY231061GA1041+006001061GE19MSL   +99999+99999GF104991041999006001999999IA1299KA1120M-00291KA2120N-00491MA1999999102051MD1310031+9999MW1381OD130601841999REMSYN004BUFR
0089010030999992016011107004+77000+015500FM-12+001299999V0200601N012019999999N999999999-00391-00641102221ADDMA1999999102081MD1310121+9999REMSYN04801003 46/// /0612 11039 21064 30208 40222 53012=
0089010030999992016011108004+77000+015500FM-12+001299999V0200701N011019999999N999999999-00341-00691102301ADDMA1999999102161MD1310151+9999REMSYN04801003 46/// /0711 11034 21069 30216 40230 53015=
0203010030999992016011109004+77000+015500FM-12+001299999V0200701N011019999999N007000199-00351-00751102391ADDAY131021AY231021GA1021+008001061GA2999+999999051GE19MSL   +99999+99999GF102991021999008001999999MA1999999102251MD1310191+9999MW1361REMSYN06001003 41557 20711 11035 21075 30225 40239 53019 73633 82520=
0089010030999992016011110004+77000+015500FM-12+001299999V0200701N011019999999N999999999-00361-00761102421ADDMA1999999102281MD1110211+9999REMSYN04801003 46/// /0711 11036 21076 30228 40242 51021=
0089010030999992016011111004+77000+015500FM-12+001299999V0200701N011019999999N999999999-00361-00761102461ADDMA1999999102321MD1110161+9999REMSYN04801003 46/// /0711 11036 21076 30232 40246 51016=
0244010030999992016011112004+77000+015500FM-12+001299999V0200701N010019999999N010000199-00371-00801102491ADDAA106000091AY131021AY231021GA1031+008001061GA2999+999999051GE19MSL   +99999+99999GF103991031999008001999999MA1999999102351MD1210121+9999MW1361OD139901901999REMSYN07601003 11560 30710 11037 21080 30235 40249 52012 60001 73633 83520 333 91119=
0089010030999992016011113004+77000+015500FM-12+001299999V0200601N011019999999N999999999-00351-00851102511ADDMA1999999102371MD1210111+9999REMSYN04801003 46/// /0611 11035 21085 30237 40251 52011=
0089010030999992016011114004+77000+015500FM-12+001299999V0200701N011019999999N999999999-00361-00741102571ADDMA1999999102431MD1110081+9999REMSYN04801003 46/// /0711 11036 21074 30243 40257 51008=
0187010030999992016011115004+77000+015500FM-12+001299999V0200701N011019999999N010000199-00341-00821102601ADDAY131021AY231021GA1031+008001061GE19MSL   +99999+99999GF103991031999008001999999MA1999999102461MD1110111+9999MW1361REMSYN06001003 41560 30711 11034 21082 30246 40260 51011 73633 83500=
0089010030999992016011116004+77000+015500FM-12+001299999V0200601N010019999999N999999999-00351-00801102671ADDMA1999999102531MD1310141+9999REMSYN04801003 46/// /0610 11035 21080 30253 40267 53014=
0089010030999992016011117004+77000+015500FM-12+001299999V0200601N009019999999N999999999-00361-00831102721ADDMA1999999102581MD1990131+9999REMSYN04801003 46/// /0609 11036 21083 30258 40272 50013=
0149010030999992016011118004+77000+015500FM-12+001299999V0200501N008019999999N999999999-00391-00771102781ADDAA199999919KA1120M-00301MA1999999102641MD1210181+9999OD139901801999REMSYN07001003 16/// /0508 11039 21077 30264 40278 52018 6//// 333 11030 91118=
0089010030999992016011119004+77000+015500FM-12+001299999V0200601N008019999999N999999999-00391-00761102811ADDMA1999999102671MD1110131+9999REMSYN04801003 46/// /0608 11039 21076 30267 40281 51013=
0089010030999992016011120004+77000+015500FM-12+001299999V0200601N009019999999N999999999-00321-00691102821ADDMA1999999102681MD1110111+9999REMSYN04801003 46/// /0609 11032 21069 30268 40282 51011=
0089010030999992016011121004+77000+015500FM-12+001299999V0200701N008019999999N999999999-00311-00661102891ADDMA1999999102751MD1310091+9999REMSYN04801003 46/// /0708 11031 21066 30275 40289 53009=
0089010030999992016011122004+77000+015500FM-12+001299999V0200701N009019999999N999999999-00321-00721102931ADDMA1999999102791MD1310121+9999REMSYN04801003 46/// /0709 11032 21072 30279 40293 53012=
0089010030999992016011123004+77000+015500FM-12+001299999V0200601N011019999999N999999999-00311-00741102941ADDMA1999999102801MD1210141+9999REMSYN04801003 46/// /0611 11031 21074 30280 40294 52014=
0171010030999992016011200004+77002+015536FM-12+001099999V0200701N0109100300199004000199-00321-00701102951ADDAY171061AY231061GA1061+003001061GE19MSL   +99999+99999GF106991061999003001999999KA1010M-00311KA2010N-00341MA1999999102811MD1110101+9999MW1711OD130601701999REMSYN004BUFR
0089010030999992016011201004+77000+015500FM-12+001299999V0200601N008019999999N999999999-00371-00751103061ADDMA1999999102921MD1310111+9999REMSYN04801003 46/// /0608 11037 21075 30292 40306 53011=
0089010030999992016011202004+77000+015500FM-12+001299999V0200701N008019999999N999999999-00331-00701103071ADDMA1999999102931MD1990101+9999REMSYN04801003 46/// /0708 11033 21070 30293 40307 50010=
0171010030999992016011203004+77002+015536FM-12+001099999V0200671N0092199999999010000199-00321-00761103081ADDAY171031AY231031GA1031+003001061GE19MSL   +99999+99999GF103991031999003001999999KA1010M-00321KA2010N-00351MA1999999102941MD1010111+9999MW1221OD130101501999REMSYN004BUFR
0089010030999992016011204004+77000+015500FM-12+001299999V0200701N009019999999N999999999-00361-00811103111ADDMA1999999102971MD1310061+9999REMSYN04801003 46/// /0709 11036 21081 30297 40311 53006=
0089010030999992016011205004+77000+015500FM-12+001299999V0200801N009019999999N999999999-00371-00831103141ADDMA1999999103001MD1310081+9999REMSYN04801003 46/// /0809 11037 21083 30300 40314 53008=
0210010030999992016011206004+77002+015536FM-12+001099999V0200701N0089199999999010000199-00401-00791103181ADDAA101999999AA212999999AA324999999AY171061AY231061GA1031+003001061GE19MSL   +99999+99999GF103991031999003001999999IA1299KA1120M-00301KA2120N-00411MA1999999103041MD1310111+9999MW1021OD130601541999REMSYN004BUFR
0089010030999992016011207004+77000+015500FM-12+001299999V0200701N007019999999N999999999-00431-00911103231ADDMA1999999103091MD1310121+9999REMSYN04801003 46/// /0707 11043 21091 30309 40323 53012=
0089010030999992016011208004+77000+015500FM-12+001299999V0200601N007019999999N999999999-00431-00961103261ADDMA1999999103121MD1210121+9999REMSYN04801003 46/// /0607 11043 21096 30312 40326 52012=
0203010030999992016011209004+77000+015500FM-12+001299999V0200701N006019999999N015000199-00441-00941103271ADDAY111021AY211021GA1031+004501061GA2999+999999041GE19MSL   +99999+99999GF107991031999004501999999MA1999999103131MD1110081+9999MW1031REMSYN06001003 41465 70706 11044 21094 30313 40327 51008 70311 8351/=
0085010030999992016011210004+77002+015536FM-12+001099999V0200691N0061199999999999999999-00471-00951103281ADDKA1010M-00441KA2010N-00471MA1999999103131MD1110041+9999OD130101151999REMSYN004BUFR
0089010030999992016011211004+77000+015500FM-12+001299999V0200501N004019999999N999999999-00531-00941103301ADDMA1999999103151MD1210031+9999REMSYN04801003 46/// /0504 11053 21094 30315 40330 52003=
0244010030999992016011212004+77000+015500FM-12+001299999V0200401N003019999999N015000199-00591-01011103291ADDAA106000091AY111021AY211021GA1031+008001061GA2999+999999031GE19MSL   +99999+99999GF106991031999008001999999MA1999999103141MD1990021+9999MW1011OD139901201999REMSYN07601003 11565 60403 11059 21101 30314 40329 50002 60001 70111 83530 333 91112=
0089010030999992016011213004+77000+015500FM-12+001299999V0200301N004019999999N999999999-00691-01081103281ADDMA1999999103131MD1990001+9999REMSYN04801003 46/// /0304 11069 21108 30313 40328 50000=
0089010030999992016011214004+77000+015500FM-12+001299999V0200201N003019999999N999999999-00701-01101103261ADDMA1999999103111MD1710041+9999REMSYN04801003 46/// /0203 11070 21110 30311 40326 57004=
0187010030999992016011215004+77000+015500FM-12+001299999V0200301N003019999999N015000199-00891-01171103241ADDAY101021AY201021GA1021+008001061GE19MSL   +99999+99999GF102991021999008001999999MA1999999103091MD1710051+9999MW1011REMSYN06001003 41565 20303 11089 21117 30309 40324 57005 70100 82500=
0089010030999992016011216004+77000+015500FM-12+001299999V0200501N003019999999N999999999-00891-01141103201ADDMA1999999103051MD1710081+9999REMSYN04801003 46/// /0503 11089 21114 30305 40320 57008=
0089010030999992016011217004+77000+015500FM-12+001299999V0200601N003019999999N999999999-00931-01251103151ADDMA1999999103001MD1810111+9999REMSYN04801003 46/// /0603 11093 21125 30300 40315 58011=
0247010030999992016011218004+77000+015500FM-12+001299999V0200601N003019999999N020000199-00871-01211103111ADDAA112000091AY101021AY201021GA1021+008001061GE19MSL   +99999+99999GF102991021999008001999999KA1120M-00401MA1999999102961MD1710131+9999MW1021OD139900501999REMSYN08201003 11570 20603 11087 21121 30296 40311 57013 60002 70200 82500 333 11040 91105=
0089010030999992016011219004+77000+015500FM-12+001299999V0200501N003019999999N999999999-00961-01281103071ADDMA1999999102921MD1710131+9999REMSYN04801003 46/// /0503 11096 21128 30292 40307 57013=
0089010030999992016011220004+77000+015500FM-12+001299999V0200601N002019999999N999999999-00971-01291103031ADDMA1999999102881MD1710121+9999REMSYN04801003 46/// /0602 11097 21129 30288 40303 57012=
0187010030999992016011221004+77000+015500FM-12+001299999V0200601N002019999999N020000199-00961-01341102971ADDAY101021AY201021GA1011+008001061GE19MSL   +99999+99999GF101991011999008001999999MA1999999102821MD1710141+9999MW1011REMSYN06001003 41570 10602 11096 21134 30282 40297 57014 70100 81500=
0089010030999992016011222004+77000+015500FM-12+001299999V0200501N002019999999N999999999-01041-01371102911ADDMA1999999102761MD1710161+9999REMSYN04801003 46/// /0502 11104 21137 30276 40291 57016=
0089010030999992016011223004+77000+015500FM-12+001299999V0200601N002019999999N999999999-00971-01381102841ADDMA1999999102691MD1710191+9999REMSYN04801003 46/// /0602 11097 21138 30269 40284 57019=
0228010030999992016011300004+77000+015500FM-12+001299999V0200401N002019999999N025000199-00941-01441102781ADDAA106000091AY101021AY201021GA1011+008001061GE19MSL   +99999+99999GF101991011999008001999999MA1999999102631MD1710181+9999MW1021OD139900401999REMSYN07601003 11575 10402 11094 21144 30263 40278 57018 60001 70200 81500 333 91104=
0089010030999992016011301004+77000+015500FM-12+001299999V0200701N001019999999N999999999-00931-01361102721ADDMA1999999102571MD1710191+9999REMSYN04801003 46/// /0701 11093 21136 30257 40272 57019=
0089010030999992016011302004+77000+015500FM-12+001299999V0200301N001019999999N999999999-00941-01441102661ADDMA1999999102511MD1710171+9999REMSYN04801003 46/// /0301 11094 21144 30251 40266 57017=
0187010030999992016011303004+77000+015500FM-12+001299999V0200501N002019999999N015000199-00891-01441102601ADDAY101021AY201021GA1021+004501061GE19MSL   +99999+99999GF102991021999004501999999MA1999999102451MD1710171+9999MW1031REMSYN06001003 41465 20502 11089 21144 30245 40260 57017 70300 82500=
0089010030999992016011304004+77000+015500FM-12+001299999V0200601N002019999999N999999999-00891-01461102541ADDMA1999999102391MD1710181+9999REMSYN04801003 46/// /0602 11089 21146 30239 40254 57018=
0089010030999992016011305004+77000+015500FM-12+001299999V0200401N002019999999N999999999-00911-01551102471ADDMA1999999102321MD1710181+9999REMSYN04801003 46/// /0402 11091 21155 30232 40247 57018=
0293010030999992016011306004+77000+015500FM-12+001299999V0200401N002019999999N015000199-00821-01511102431ADDAA112000091AA224000091AJ199991999999999AY101021AY201021GA1031+004501061GE19MSL   +99999+99999GF103991031999004501999999IA1299KA1240N-01041MA1999999102281MD1710171+9999MW1031OD139900301999REMSYN09401003 11465 30402 11082 21151 30228 40243 57017 60002 70300 83500 333 21104 49999 70000 91103=
0089010030999992016011307004+77000+015500FM-12+001299999V0200201N001019999999N999999999-00901-01411102401ADDMA1999999102251MD1610131+9999REMSYN04801003 46/// /0201 11090 21141 30225 40240 56013=
0089010030999992016011308004+77000+015500FM-12+001299999V0200601N002019999999N999999999-00871-01421102381ADDMA1999999102231MD1710101+9999REMSYN04801003 46/// /0602 11087 21142 30223 40238 57010=
0187010030999992016011309004+77000+015500FM-12+001299999V0200401N001019999999N050000199-00841-01541102351ADDAY101021AY201021GA1011+999999051GE19MSL   +99999+99999GF101991011999999999999999MA1999999102201MD1710091+9999MW1011REMSYN06001003 41984 10401 11084 21154 30220 40235 57009 70100 81020=
0089010030999992016011310004+77000+015500FM-12+001299999V0200901N004019999999N999999999-00761-01261102311ADDMA1999999102161MD1710101+9999REMSYN04801003 46/// /0904 11076 21126 30216 40231 57010=
0089010030999992016011311004+77000+015500FM-12+001299999V0200801N003019999999N999999999-00781-01211102261ADDMA1999999102111MD1810121+9999REMSYN04801003 46/// /0803 11078 21121 30211 40226 58012=
0195010030999992016011312004+77002+015536FM-12+001099999V0200281N0017199999999050000199-00851-01331102201ADDAA101999999AA206999999AY101061AY201061GA1011+006001061GA2999+999999031GE19MSL   +99999+99999GF102991011999006001999999KA1010M-00781KA2010N-00911MA1999999102051MD1710151+9999MW1031REMSYN004BUFR
0071010030999992016011313004+77002+015536FM-12+001099999V0200491N0004199999999999999999-00851-01191102181ADDKA1010M-00791KA2010N-00891MA1999999102031MD1610121+9999REMSYN004BUFR
0071010030999992016011314004+77002+015536FM-12+001099999V0200621N0011199999999999999999-00771-01221102141ADDKA1010M-00761KA2010N-00871MA1999999101991MD1710111+9999REMSYN004BUFR
0187010030999992016011315004+77000+015500FM-12+001299999V0200601N003019999999N050000199-00821-01171102101ADDAY101021AY201021GA1021+008001061GE19MSL   +99999+99999GF102991021999008001999999MA1999999101951MD1810091+9999MW1031REMSYN06001003 41584 20603 11082 21117 30195 40210 58009 70300 82500=
0089010030999992016011316004+77000+015500FM-12+001299999V0200301N001019999999N999999999-00801-01161102061ADDMA1999999101911MD1710121+9999REMSYN04801003 46/// /0301 11080 21116 30191 40206 57012=
0089010030999992016011317004+77000+015500FM-12+001299999V0200201N001019999999N999999999-00821-01211102041ADDMA1999999101891MD1710101+9999REMSYN04801003 46/// /0201 11082 21121 30189 40204 57010=
0247010030999992016011318004+77000+015500FM-12+001299999V0203601N001019999999N050000199-00761-01061102001ADDAA112000091AY101021AY201021GA1031+008001061GE19MSL   +99999+99999GF103991031999008001999999KA1120M-00691MA1999999101861MD1710091+9999MW1031OD139900401999REMSYN08201003 11584 33601 11076 21106 30186 40200 57009 60002 70300 83500 333 11069 91104=
0089010030999992016011319004+77000+015500FM-12+001299999V0203501N001019999999N999999999-00731-01001101971ADDMA1999999101831MD1710081+9999REMSYN04801003 46/// /3501 11073 21100 30183 40197 57008=
0089010030999992016011320004+77000+015500FM-12+001299999V0200101N001019999999N999999999-00711-00981101941ADDMA1999999101801MD1710101+9999REMSYN04801003 46/// /0101 11071 21098 30180 40194 57010=
0187010030999992016011321004+77000+015500FM-12+001299999V0200201N001019999999N015000199-00701-00981101921ADDAY111021AY211021GA1071+008001061GE19MSL   +99999+99999GF107991071999008001999999MA1999999101781MD1710081+9999MW1031REMSYN06001003 41565 70201 11070 21098 30178 40192 57008 70311 875//=
0089010030999992016011322004+77000+015500FM-12+001299999V0203401N001019999999N999999999-00731-01031101871ADDMA1999999101731MD1710101+9999REMSYN04801003 46/// /3401 11073 21103 30173 40187 57010=
0089010030999992016011323004+77000+015500FM-12+001299999V0203001N001019999999N999999999-00791-01121101821ADDMA1999999101681MD1710111+9999REMSYN04801003 46/// /3001 11079 21112 30168 40182 57011=
0228010030999992016011400004+77000+015500FM-12+001299999V0200801N001019999999N015000199-00641-00951101761ADDAA106000091AY111021AY211021GA1071+008001061GE19MSL   +99999+99999GF107991071999008001999999MA1999999101621MD1710161+9999MW1021OD139900201999REMSYN07601003 11565 70801 11064 21095 30162 40176 57016 60001 70211 875// 333 91102=
0089010030999992016011401004+77000+015500FM-12+001299999V0200601N001019999999N999999999-00691-01001101721ADDMA1999999101581MD1710151+9999REMSYN04801003 46/// /0601 11069 21100 30158 40172 57015=
0089010030999992016011402004+77000+015500FM-12+001299999V0200501N001019999999N999999999-00581-00811101641ADDMA1999999101501MD1810181+9999REMSYN04801003 46/// /0501 11058 21081 30150 40164 58018=
0187010030999992016011403004+77000+015500FM-12+001299999V0200501N001019999999N000200199-00521-00671101581ADDAY171021AY221021GA1081+004501061GE19MSL   +99999+99999GF108991081999004501999999MA1999999101441MD1810181+9999MW1771REMSYN06001003 41402 80501 11052 21067 30144 40158 58018 77772 885//=
0089010030999992016011404004+77000+015500FM-12+001299999V0202201N001019999999N999999999-00561-00661101521ADDMA1999999101381MD1710201+9999REMSYN04801003 46/// /2201 11056 21066 30138 40152 57020=
0089010030999992016011405004+77000+015500FM-12+001299999V0201501N002019999999N999999999-00451-00551101451ADDMA1999999101311MD1710181+9999REMSYN04801003 46/// /1502 11045 21055 30131 40145 57018=
0293010030999992016011406004+77000+015500FM-12+001299999V0202701N008019999999N015000199-00301-00521101381ADDAA112001031AA224001031AJ100033100030099AY171021AY221021GA1071+004501061GE19MSL   +99999+99999GF107991071999004501999999IA1299KA1240N-00821MA1999999101241MD1810211+9999MW1011OD139901101999REMSYN09401003 11465 72708 11030 21052 30124 40138 58021 60012 70172 875// 333 21082 49003 70010 91111=
0089010030999992016011407004+77000+015500FM-12+001299999V0202901N009019999999N999999999-00291-00601101351ADDMA1999999101211MD1510151+9999REMSYN04801003 46/// /2909 11029 21060 30121 40135 55015=
0089010030999992016011408004+77000+015500FM-12+001299999V0202901N013019999999N999999999-00321-00571101291ADDMA1999999101151MD1710161+9999REMSYN04801003 46/// /2913 11032 21057 30115 40129 57016=
0187010030999992016011409004+77000+015500FM-12+001299999V0202901N010019999999N015000199-00311-00681101331ADDAY171021AY231021GA1081+004501061GE19MSL   +99999+99999GF108991081999004501999999MA1999999101191MD1510061+9999MW1361REMSYN06001003 41465 82910 11031 21068 30119 40133 55006 73673 885//=
0089010030999992016011410004+77000+015500FM-12+001299999V0202901N011019999999N999999999-00411-00811101341ADDMA1999999101201MD1510001+9999REMSYN04801003 46/// /2911 11041 21081 30120 40134 55000=
0089010030999992016011411004+77000+015500FM-12+001299999V0202801N009019999999N999999999-00421-00871101311ADDMA1999999101171MD1990021+9999REMSYN04801003 46/// /2809 11042 21087 30117 40131 50002=
0247010030999992016011412004+77000+015500FM-12+001299999V0202801N008019999999N015000199-00461-00871101291ADDAA106000091AY171021AY231021GA1081+008001061GE19MSL   +99999+99999GF108991081999008001999999MA1999999101151MD1810041+9999MW1361OD139902001999REMSYN07601003 11565 82808 11046 21087 30115 40129 58004 69901 73673 885// 333 91120=EQDQ01  00002PRCP06
0089010030999992016011413004+77000+015500FM-12+001299999V0202901N009019999999N999999999-00471-00901101301ADDMA1999999101161MD1510031+9999REMSYN04801003 46/// /2909 11047 21090 30116 40130 55003=
0089010030999992016011414004+77000+015500FM-12+001299999V0202901N008019999999N999999999-00481-00941101311ADDMA1999999101171MD1510011+9999REMSYN04801003 46/// /2908 11048 21094 30117 40131 55001=
0187010030999992016011415004+77000+015500FM-12+001299999V0202901N009019999999N015000199-00491-00981101301ADDAY131021AY231021GA1081+008001061GE19MSL   +99999+99999GF108991081999008001999999MA1999999101161MD1990031+9999MW1361REMSYN06001003 41565 82909 11049 21098 30116 40130 50003 73633 885//=
0089010030999992016011416004+77000+015500FM-12+001299999V0202701N007019999999N999999999-00461-00961101291ADDMA1999999101151MD1710011+9999REMSYN04801003 46/// /2707 11046 21096 30115 40129 57001=
0089010030999992016011417004+77000+015500FM-12+001299999V0202901N008019999999N999999999-00521-00871101291ADDMA1999999101151MD1710021+9999REMSYN04801003 46/// /2908 11052 21087 30115 40129 57002=
0247010030999992016011418004+77000+015500FM-12+001299999V0202801N008019999999N010000199-00581-00811101291ADDAA112000231AY181021AY231021GA1081+008001091GE19MSL   +99999+99999GF108991081999008001999999KA1120M-00251MA1999999101151MD1710011+9999MW1871OD139901401999REMSYN08201003 11560 82808 11058 21081 30115 40129 57001 69922 78783 883// 333 11025 91114=
0089010030999992016011419004+77000+015500FM-12+001299999V0202701N008019999999N999999999-00611-00801101281ADDMA1999999101141MD1410001+9999REMSYN04801003 46/// /2708 11061 21080 30114 40128 54000=
0108010030999992016011420004+77000+015500FM-12+001299999V0202701N008019999999N999999999-00581-00901101301ADDMA1999999101161MD1290019+9999REMSYN04801003 46/// /2708 11058 21090 30116 40130 54001=EQDQ01.1    3APC3  
0206010030999992016011421004+77000+015500FM-12+001299999V0202801N008019999999N010000199-00541-01021101311ADDAY181021AY231021GA1081+004501061GE19MSL   +99999+99999GF108991081999004501999999MA1999999101171MD1290029+9999MW1361REMSYN06001003 41460 82808 11054 21102 30117 40131 54001 73683 885//=EQDQ01.1    3APC3  
0089010030999992016011422004+77000+015500FM-12+001299999V0202901N008019999999N999999999-00531-01091101341ADDMA1999999101201MD1310051+9999REMSYN04801003 46/// /2908 11053 21109 30120 40134 53005=
0089010030999992016011423004+77000+015500FM-12+001299999V0202801N005019999999N999999999-00551-01011101361ADDMA1999999101221MD1310051+9999REMSYN04801003 46/// /2805 11055 21101 30122 40136 53005=
0228010030999992016011500004+77000+015500FM-12+001299999V0202901N004019999999N002000199-00641-00851101341ADDAA106000231AY171021AY231021GA1081+008001061GE19MSL   +99999+99999GF108991081999008001999999MA1999999101201MD1990031+9999MW1711OD139901401999REMSYN07601003 11520 82904 11064 21085 30120 40134 50003 69921 77173 885// 333 91114=
0089010030999992016011501004+77000+015500FM-12+001299999V0202701N005019999999N999999999-00601-00911101321ADDMA1999999101181MD1810021+9999REMSYN04801003 46/// /2705 11060 21091 30118 40132 58002=
0089010030999992016011502004+77000+015500FM-12+001299999V0200501N002019999999N999999999-00631-00901101341ADDMA1999999101201MD1710021+9999REMSYN04801003 46/// /0502 11063 21090 30120 40134 57002=
0187010030999992016011503004+77000+015500FM-12+001299999V0200401N002019999999N002000199-00631-00831101341ADDAY171021AY221021GA1081+008001061GE19MSL   +99999+99999GF108991081999008001999999MA1999999101201MD1410001+9999MW1711REMSYN06001003 41520 80402 11063 21083 30120 40134 54000 77172 885//=
0089010030999992016011504004+77000+015500FM-12+001299999V0200501N004019999999N999999999-00661-00891101311ADDMA1999999101171MD1990011+9999REMSYN04801003 46/// /0504 11066 21089 30117 40131 50001=
0089010030999992016011505004+77000+015500FM-12+001299999V0200501N003019999999N999999999-00521-00781101311ADDMA1999999101171MD1710031+9999REMSYN04801003 46/// /0503 11052 21078 30117 40131 57003=
0293010030999992016011506004+77000+015500FM-12+001299999V0200501N003019999999N010000199-00521-00821101331ADDAA112000331AA224000531AJ100073100070099AY171021AY221021GA1081+008001061GE19MSL   +99999+99999GF108991081999008001999999IA1299KA1240N-00741MA1999999101191MD1510001+9999MW1021OD139900801999REMSYN09401003 11560 80503 11052 21082 30119 40133 55000 69932 70272 885// 333 21074 49007 70005 91108=
0089010030999992016011507004+77000+015500FM-12+001299999V0200901N005019999999N999999999-00471-00711101331ADDMA1999999101191MD1210031+9999REMSYN04801003 46/// /0905 11047 21071 30119 40133 52003=
0089010030999992016011508004+77000+015500FM-12+001299999V0200601N004019999999N999999999-00501-00701101351ADDMA1999999101211MD1210041+9999REMSYN04801003 46/// /0604 11050 21070 30121 40135 52004=
0187010030999992016011509004+77000+015500FM-12+001299999V0200701N003019999999N007000199-00431-00691101351ADDAY171021AY221021GA1081+008001061GE19MSL   +99999+99999GF108991081999008001999999MA1999999101211MD1310021+9999MW1711REMSYN06001003 41557 80703 11043 21069 30121 40135 53002 77172 885//=
0089010030999992016011510004+77000+015500FM-12+001299999V0200401N001019999999N999999999-00461-00621101391ADDMA1999999101251MD1310051+9999REMSYN04801003 46/// /0401 11046 21062 30125 40139 53005=
0089010030999992016011511004+77000+015500FM-12+001299999V0200601N003019999999N999999999-00411-00591101401ADDMA1999999101261MD1310051+9999REMSYN04801003 46/// /0603 11041 21059 30126 40140 53005=
0228010030999992016011512004+77000+015500FM-12+001299999V0200601N002019999999N007000199-00401-00551101401ADDAA106001031AY171021AY221021GA1071+008001061GE19MSL   +99999+99999GF107991071999008001999999MA1999999101261MD1110051+9999MW1711OD139900701999REMSYN07601003 11557 70602 11040 21055 30126 40140 51005 60011 77172 875// 333 91107=
0089010030999992016011513004+77000+015500FM-12+001299999V0200501N002019999999N999999999-00431-00591101431ADDMA1999999101291MD1210041+9999REMSYN04801003 46/// /0502 11043 21059 30129 40143 52004=
0089010030999992016011514004+77000+015500FM-12+001299999V0200501N003019999999N999999999-00391-00501101471ADDMA1999999101331MD1310071+9999REMSYN04801003 46/// /0503 11039 21050 30133 40147 53007=
0187010030999992016011515004+77000+015500FM-12+001299999V0201501N002019999999N010000199-00351-00451101481ADDAY171021AY221021GA1071+008001061GE19MSL   +99999+99999GF107991071999008001999999MA1999999101341MD1110081+9999MW1021REMSYN06001003 41560 71502 11035 21045 30134 40148 51008 70272 875//=
0089010030999992016011516004+77000+015500FM-12+001299999V0201001N005019999999N999999999-00351-00471101501ADDMA1999999101361MD1110071+9999REMSYN04801003 46/// /1005 11035 21047 30136 40150 51007=
0089010030999992016011517004+77000+015500FM-12+001299999V0200901N004019999999N999999999-00341-00441101501ADDMA1999999101361MD1210031+9999REMSYN04801003 46/// /0904 11034 21044 30136 40150 52003=
0247010030999992016011518004+77000+015500FM-12+001299999V0201301N002019999999N015000199-00281-00401101491ADDAA112003031AY171021AY221021GA1051+008001061GE19MSL   +99999+99999GF105991051999008001999999KA1120M-00271MA1999999101351MD1990011+9999MW1011OD139900801999REMSYN08201003 11565 51302 11028 21040 30135 40149 50001 60032 70172 85500 333 11027 91108=
0089010030999992016011519004+77000+015500FM-12+001299999V0202101N002019999999N999999999-00261-00451101491ADDMA1999999101351MD1410001+9999REMSYN04801003 46/// /2102 11026 21045 30135 40149 54000=
0089010030999992016011520004+77000+015500FM-12+001299999V0201401N004019999999N999999999-00271-00551101501ADDMA1999999101361MD1410001+9999REMSYN04801003 46/// /1404 11027 21055 30136 40150 54000=
0187010030999992016011521004+77000+015500FM-12+001299999V0201501N003019999999N010000199-00231-00451101511ADDAY171021AY221021GA1071+008001061GE19MSL   +99999+99999GF107991071999008001999999MA1999999101371MD1210021+9999MW1031REMSYN06001003 41560 71503 11023 21045 30137 40151 52002 70372 875//=
0089010030999992016011522004+77000+015500FM-12+001299999V0201601N007019999999N999999999-00201-00391101531ADDMA1999999101391MD1210041+9999REMSYN04801003 46/// /1607 11020 21039 30139 40153 52004=
0089010030999992016011523004+77000+015500FM-12+001299999V0201801N007019999999N999999999-00111-00521101551ADDMA1999999101411MD1210051+9999REMSYN04801003 46/// /1807 11011 21052 30141 40155 52005=
0228010030999992016011600004+77000+015500FM-12+001299999V0201801N006019999999N010000199-00141-00601101511ADDAA106000331AY171021AY221021GA1071+008001061GE19MSL   +99999+99999GF107991071999008001999999MA1999999101371MD1990011+9999MW1221OD139901201999REMSYN07601003 11560 71806 11014 21060 30137 40151 50001 69931 72272 875// 333 91112=
0089010030999992016011601004+77000+015500FM-12+001299999V0201701N008019999999N999999999-00281-00381101541ADDMA1999999101401MD1510011+9999REMSYN04801003 46/// /1708 11028 21038 30140 40154 55001=
0089010030999992016011602004+77000+015500FM-12+001299999V0201901N004019999999N999999999-00261-00321101531ADDMA1999999101391MD1510011+9999REMSYN04801003 46/// /1904 11026 21032 30139 40153 55001=
0143010030999992016011603004+77000+015500FM-12+001299999V0202101N00801000601CN000200199-00261-00371101571ADDAY171021AY231021GF109991999999999999999999MA1999999101431MD1210061+9999MW1751REMSYN05401003 41/02 92108 11026 21037 30143 40157 52006 77573=
0089010030999992016011604004+77000+015500FM-12+001299999V0202301N008019999999N999999999-00161-00501101581ADDMA1999999101441MD1210041+9999REMSYN04801003 46/// /2308 11016 21050 30144 40158 52004=
0089010030999992016011605004+77000+015500FM-12+001299999V0202301N006019999999N999999999-00131-00571101571ADDMA1999999101431MD1990031+9999REMSYN04801003 46/// /2306 11013 21057 30143 40157 50003=
0248010030999992016011606004+77002+015536FM-12+001099999V0201701N0050100600199010000199-00201-00451101581ADDAA101999999AA224004731AJ100003100001099AY171061AY231061GA1081+006001061GA2999+999999101GA3999+999999101GE19MSL   +99999+99999GF108991081999006001999999IA1299KA1120M-00081KA2120N-00351MA1999999101441MD1210011+9999MW1221OD130601181999REMSYN004BUFR
0089010030999992016011607004+77000+015500FM-12+001299999V0201601N003019999999N999999999-00291-00381101631ADDMA1999999101491MD1310041+9999REMSYN04801003 46/// /1603 11029 21038 30149 40163 53004=
0089010030999992016011608004+77000+015500FM-12+001299999V0201701N006019999999N999999999-00231-00411101651ADDMA1999999101511MD1210071+9999REMSYN04801003 46/// /1706 11023 21041 30151 40165 52007=
0203010030999992016011609004+77000+015500FM-12+001299999V0201001N003019999999N015000199-00301-00411101681ADDAY171021AY221021GA1051+008001061GA2999+999999031GE19MSL   +99999+99999GF106991051999008001999999MA1999999101541MD1210101+9999MW1221REMSYN06001003 41565 61003 11030 21041 30154 40168 52010 72272 85530=
0089010030999992016011610004+77000+015500FM-12+001299999V0201601N006019999999N999999999-00261-00361101701ADDMA1999999101561MD1210071+9999REMSYN04801003 46/// /1606 11026 21036 30156 40170 52007=
0089010030999992016011611004+77000+015500FM-12+001299999V0200301N003019999999N999999999-00241-00411101671ADDMA1999999101531MD1990031+9999REMSYN04801003 46/// /0303 11024 21041 30153 40167 50003=
0260010030999992016011612004+77000+015500FM-12+001299999V0201301N005019999999N015000199-00131-00411101641ADDAA106001031AY171021AY221021GA1031+004501061GA2999+999999031GA3999+999999001GE19MSL   +99999+99999GF106991031999004501999999MA1999999101501MD1810041+9999MW1221OD139901001999REMSYN07601003 11465 61305 11013 21041 30150 40164 58004 60011 72272 83532 333 91110=
0089010030999992016011613004+77000+015500FM-12+001299999V0201201N005019999999N999999999-00191-00291101641ADDMA1999999101501MD1510051+9999REMSYN04801003 46/// /1205 11019 21029 30150 40164 55005=
0089010030999992016011614004+77000+015500FM-12+001299999V0201601N007019999999N999999999-00131-00241101621ADDMA1999999101481MD1510041+9999REMSYN04801003 46/// /1607 11013 21024 30148 40162 55004=
0187010030999992016011615004+77000+015500FM-12+001299999V0201501N007019999999N015000199-00111-00301101641ADDAY171021AY221021GA1071+004501061GE19MSL   +99999+99999GF107991071999004501999999MA1999999101501MD1410001+9999MW1221REMSYN06001003 41465 71507 11011 21030 30150 40164 54000 72272 875//=
0089010030999992016011616004+77000+015500FM-12+001299999V0201601N007019999999N999999999-00071-00371101661ADDMA1999999101521MD1310021+9999REMSYN04801003 46/// /1607 11007 21037 30152 40166 53002=
0089010030999992016011617004+77000+015500FM-12+001299999V0202001N006019999999N999999999-00041-00431101721ADDMA1999999101581MD1310091+9999REMSYN04801003 46/// /2006 11004 21043 30158 40172 53009=
0247010030999992016011618004+77000+015500FM-12+001299999V0201801N006019999999N015000199-00091-00481101761ADDAA112003031AY171021AY231021GA1041+004501061GE19MSL   +99999+99999GF104991041999004501999999KA1120M-00041MA1999999101621MD1310121+9999MW1011OD139901301999REMSYN08201003 11465 41806 11009 21048 30162 40176 53012 60032 70173 84500 333 11004 91113=
0089010030999992016011619004+77000+015500FM-12+001299999V0201801N006019999999N999999999-00071-00491101791ADDMA1999999101651MD1110131+9999REMSYN04801003 46/// /1806 11007 21049 30165 40179 51013=
0089010030999992016011620004+77000+015500FM-12+001299999V0200701N002019999999N999999999-00231-00571101831ADDMA1999999101691MD1210111+9999REMSYN04801003 46/// /0702 11023 21057 30169 40183 52011=
0203010030999992016011621004+77000+015500FM-12+001299999V0200701N004019999999N020000199-00161-00611101831ADDAY101021AY201021GA1021+004501061GA2999+999999031GE19MSL   +99999+99999GF103991021999004501999999MA1999999101691MD1110071+9999MW1011REMSYN06001003 41470 30704 11016 21061 30169 40183 51007 70100 82530=
0089010030999992016011622004+77000+015500FM-12+001299999V0200801N007019999999N999999999-00181-00461101851ADDMA1999999101711MD1110061+9999REMSYN04801003 46/// /0807 11018 21046 30171 40185 51006=
0089010030999992016011623004+77000+015500FM-12+001299999V0200601N004019999999N999999999-00201-00421101851ADDMA1999999101711MD1310021+9999REMSYN04801003 46/// /0604 11020 21042 30171 40185 53002=
0244010030999992016011700004+77000+015500FM-12+001299999V0200801N007019999999N015000199-00091-00421101791ADDAA106000231AY171021AY211021GA1031+004501061GA2999+999999031GE19MSL   +99999+99999GF106991031999004501999999MA1999999101651MD1810031+9999MW1031OD139901101999REMSYN07601003 11465 60807 11009 21042 30165 40179 58003 69921 70371 83530 333 91111=
0089010030999992016011701004+77000+015500FM-12+001299999V0200801N008019999999N999999999-00111-00421101801ADDMA1999999101661MD1810061+9999REMSYN04801003 46/// /0808 11011 21042 30166 40180 58006=
0089010030999992016011702004+77000+015500FM-12+001299999V0200801N007019999999N999999999-00111-00451101791ADDMA1999999101651MD1610071+9999REMSYN04801003 46/// /0807 11011 21045 30165 40179 56007=
0187010030999992016011703004+77000+015500FM-12+001299999V0200901N006019999999N025000199-00121-00531101811ADDAY101021AY201021GA1021+004501061GE19MSL   +99999+99999GF102991021999004501999999MA1999999101671MD1210011+9999MW1011REMSYN06001003 41475 20906 11012 21053 30167 40181 52001 70100 82500=
0089010030999992016011704004+77000+015500FM-12+001299999V0201201N004019999999N999999999-00151-00621101801ADDMA1999999101661MD1410001+9999REMSYN04801003 46/// /1204 11015 21062 30166 40180 54000=
0089010030999992016011705004+77000+015500FM-12+001299999V0201001N007019999999N999999999-00111-00671101771ADDMA1999999101631MD1810011+9999REMSYN04801003 46/// /1007 11011 21067 30163 40177 58001=
0293010030999992016011706004+77000+015500FM-12+001299999V0200801N009019999999N010000199-00161-00631101721ADDAA112000231AA224002731AJ100203100200099AY101021AY201021GA1031+004501061GE19MSL   +99999+99999GF103991031999004501999999IA1299KA1240N-00341MA1999999101581MD1810091+9999MW1361OD139901401999REMSYN09401003 11460 30809 11016 21063 30158 40172 58009 69922 73600 83500 333 21034 49020 70027 91114=
0089010030999992016011707004+77000+015500FM-12+001299999V0200801N010019999999N999999999-00191-00681101671ADDMA1999999101531MD1710131+9999REMSYN04801003 46/// /0810 11019 21068 30153 40167 57013=
0089010030999992016011708004+77000+015500FM-12+001299999V0200801N011019999999N999999999-00181-00671101651ADDMA1999999101511MD1710131+9999REMSYN04801003 46/// /0811 11018 21067 30151 40165 57013=
0203010030999992016011709004+77000+015500FM-12+001299999V0200801N010019999999N035000199-00171-00661101651ADDAY131021AY231021GA1011+008001061GA2999+999999001GE19MSL   +99999+99999GF101991011999008001999999MA1999999101511MD1510071+9999MW1361REMSYN06001003 41581 10810 11017 21066 30151 40165 55007 73633 81501=
0089010030999992016011710004+77000+015500FM-12+001299999V0200701N009019999999N999999999-00151-00661101641ADDMA1999999101501MD1510031+9999REMSYN04801003 46/// /0709 11015 21066 30150 40164 55003=
0089010030999992016011711004+77000+015500FM-12+001299999V0200701N007019999999N999999999-00151-00541101611ADDMA1999999101471MD1710041+9999REMSYN04801003 46/// /0707 11015 21054 30147 40161 57004=
0263010030999992016011712004+77000+015500FM-12+001299999V0200801N006019999999N005000199-00141-00331101571ADDAA106999999AY131021AY211021GA1061+008001061GA2999+999999031GE19MSL   +99999+99999GF107991061999008001999999MA1999999101431MD1810071+9999MW1711OD139901601999REMSYN07601003 11550 70806 11014 21033 30143 40157 58007 60001 77131 8653/ 333 91116=EQDQ01  00002PRCP06
0089010030999992016011713004+77000+015500FM-12+001299999V0200701N008019999999N999999999-00091-00361101481ADDMA1999999101341MD1810141+9999REMSYN04801003 46/// /0708 11009 21036 30134 40148 58014=
0089010030999992016011714004+77000+015500FM-12+001299999V0200701N006019999999N999999999-00091-00401101481ADDMA1999999101341MD1610131+9999REMSYN04801003 46/// /0706 11009 21040 30134 40148 56013=
0203010030999992016011715004+77000+015500FM-12+001299999V0200801N006019999999N015000199-00061-00331101471ADDAY171021AY221021GA1021+012501061GA2999+999999031GE19MSL   +99999+99999GF107991021999012501999999MA1999999101331MD1610101+9999MW1011REMSYN06001003 41665 70806 11006 21033 30133 40147 56010 70172 8253/=
0089010030999992016011716004+77000+015500FM-12+001299999V0200801N006019999999N999999999-00021-00431101461ADDMA1999999101321MD1710021+9999REMSYN04801003 46/// /0806 11002 21043 30132 40146 57002=
0089010030999992016011717004+77000+015500FM-12+001299999V0200801N007019999999N999999999-00011-00501101431ADDMA1999999101291MD1710061+9999REMSYN04801003 46/// /0807 11001 21050 30129 40143 57006=
0263010030999992016011718004+77000+015500FM-12+001299999V0200801N006019999999N025000199-00031-00471101381ADDAA112000021AY171021AY221021GA1011+004501061GA2999+999999031GE19MSL   +99999+99999GF106991011999004501999999KA1120M+00011MA1999999101241MD1710091+9999MW1011OD139901401999REMSYN08201003 11475 60806 11003 21047 30124 40138 57009 69902 70172 81530 333 10001 91114=
0089010030999992016011719004+77000+015500FM-12+001299999V0200801N006019999999N999999999-00111-00301101341ADDMA1999999101201MD1710111+9999REMSYN04801003 46/// /0806 11011 21030 30120 40134 57011=
0089010030999992016011720004+77000+015500FM-12+001299999V0200701N008019999999N999999999-00031-00411101291ADDMA1999999101151MD1810151+9999REMSYN04801003 46/// /0708 11003 21041 30115 40129 58015=
0187010030999992016011721004+77000+015500FM-12+001299999V0200501N008019999999N015000199-00051-00411101241ADDAY171021AY221021GA1081+008001061GE19MSL   +99999+99999GF108991081999008001999999MA1999999101101MD1710141+9999MW1361REMSYN06001003 41565 80508 11005 21041 30110 40124 57014 73672 885//=
0089010030999992016011722004+77000+015500FM-12+001299999V0200501N007019999999N999999999-00021-00401101161ADDMA1999999101021MD1810181+9999REMSYN04801003 46/// /0507 11002 21040 30102 40116 58018=
0089010030999992016011723004+77000+015500FM-12+001299999V0200501N008019999999N999999999-00051-00381101131ADDMA1999999100991MD1710171+9999REMSYN04801003 46/// /0508 11005 21038 30099 40113 57017=
0228010030999992016011800004+77000+015500FM-12+001299999V0200701N009019999999N010000199-00031-00391101051ADDAA106000091AY131021AY221021GA1081+008001061GE19MSL   +99999+99999GF108991081999008001999999MA1999999100911MD1810191+9999MW1361OD139901501999REMSYN07601003 11560 80709 11003 21039 30091 40105 58019 60001 73632 885// 333 91115=
0089010030999992016011801004+77000+015500FM-12+001299999V0200801N008019999999N999999999-00051-00351101031ADDMA1999999100891MD1810131+9999REMSYN04801003 46/// /0808 11005 21035 30089 40103 58013=
0089010030999992016011802004+77000+015500FM-12+001299999V0200701N008019999999N999999999-00091-00421101011ADDMA1999999100871MD1610111+9999REMSYN04801003 46/// /0708 11009 21042 30087 40101 56011=
0187010030999992016011803004+77000+015500FM-12+001299999V0200801N009019999999N001000199-00161-00381100981ADDAY171021AY231021GA1081+004501061GE19MSL   +99999+99999GF108991081999004501999999MA1999999100841MD1710071+9999MW1731REMSYN06001003 41410 80809 11016 21038 30084 40098 57007 77373 885//=
0089010030999992016011804004+77000+015500FM-12+001299999V0200801N009019999999N999999999-00131-00471100901ADDMA1999999100761MD1810111+9999REMSYN04801003 46/// /0809 11013 21047 30076 40090 58011=
0089010030999992016011805004+77000+015500FM-12+001299999V0200701N009019999999N999999999-00231-00511100881ADDMA1999999100741MD1810151+9999REMSYN04801003 46/// /0709 11023 21051 30074 40088 58015=
0293010030999992016011806004+77000+015500FM-12+001299999V0200701N007019999999N015000199-00181-00521100881ADDAA112000021AA224000021AJ100113100110099AY171021AY231021GA1081+004501061GE19MSL   +99999+99999GF108991081999004501999999IA1299KA1240N-00241MA1999999100741MD1610111+9999MW1711OD139901501999REMSYN09401003 11465 80707 11018 21052 30074 40088 56011 69902 77173 885// 333 21024 49011 79999 91115=
0089010030999992016011807004+77000+015500FM-12+001299999V0200701N007019999999N999999999-00181-00521100841ADDMA1999999100701MD1810051+9999REMSYN04801003 46/// /0707 11018 21052 30070 40084 58005=
0089010030999992016011808004+77000+015500FM-12+001299999V0200801N007019999999N999999999-00171-00481100891ADDMA1999999100751MD1310011+9999REMSYN04801003 46/// /0807 11017 21048 30075 40089 53001=
0187010030999992016011809004+77000+015500FM-12+001299999V0200801N005019999999N015000199-00241-00371100941ADDAY171021AY221021GA1081+004501061GE19MSL   +99999+99999GF108991081999004501999999MA1999999100801MD1310061+9999MW1711REMSYN06001003 41465 80805 11024 21037 30080 40094 53006 77172 885//=
0089010030999992016011810004+77000+015500FM-12+001299999V0200801N004019999999N999999999-00211-00551100971ADDMA1999999100831MD1310131+9999REMSYN04801003 46/// /0804 11021 21055 30083 40097 53013=
0089010030999992016011811004+77000+015500FM-12+001299999V0200801N007019999999N999999999-00181-00621100961ADDMA1999999100821MD1990061+9999REMSYN04801003 46/// /0807 11018 21062 30082 40096 50006=
0244010030999992016011812004+77000+015500FM-12+001299999V0200801N006019999999N015000199-00181-00691100961ADDAA106000021AY171021AY221021GA1031+008001061GA2999+999999031GE19MSL   +99999+99999GF106991031999008001999999MA1999999100821MD1990011+9999MW1011OD139901301999REMSYN07601003 11565 60806 11018 21069 30082 40096 50001 69901 70172 83530 333 91113=
0089010030999992016011813004+77000+015500FM-12+001299999V0200701N005019999999N999999999-00211-00611100971ADDMA1999999100831MD1510001+9999REMSYN04801003 46/// /0705 11021 21061 30083 40097 55000=
0089010030999992016011814004+77000+015500FM-12+001299999V0200801N005019999999N999999999-00181-00441100941ADDMA1999999100801MD1810011+9999REMSYN04801003 46/// /0805 11018 21044 30080 40094 58001=
0187010030999992016011815004+77000+015500FM-12+001299999V0200801N007019999999N001000199-00231-00331100931ADDAY171021AY221021GA1081+008001061GE19MSL   +99999+99999GF108991081999008001999999MA1999999100791MD1710021+9999MW1731REMSYN06001003 41510 80807 11023 21033 30079 40093 57002 77372 885//=
0089010030999992016011816004+77000+015500FM-12+001299999V0201001N005019999999N999999999-00181-00321100961ADDMA1999999100821MD1510011+9999REMSYN04801003 46/// /1005 11018 21032 30082 40096 55001=
0089010030999992016011817004+77000+015500FM-12+001299999V0201101N007019999999N999999999-00141-00411100991ADDMA1999999100851MD1310041+9999REMSYN04801003 46/// /1107 11014 21041 30085 40099 53004=
0247010030999992016011818004+77000+015500FM-12+001299999V0201301N009019999999N010000199-00091-00501101001ADDAA112000331AY171021AY231021GA1081+008001061GE19MSL   +99999+99999GF108991081999008001999999KA1120M-00071MA1999999100861MD1210061+9999MW1361OD139901301999REMSYN08201003 11560 81309 11009 21050 30086 40100 52006 69932 73673 885// 333 11007 91113=
0089010030999992016011819004+77000+015500FM-12+001299999V0201201N006019999999N999999999-00111-00501101051ADDMA1999999100911MD1310091+9999REMSYN04801003 46/// /1206 11011 21050 30091 40105 53009=
0089010030999992016011820004+77000+015500FM-12+001299999V0201401N008019999999N999999999-00091-00551101071ADDMA1999999100931MD1310091+9999REMSYN04801003 46/// /1408 11009 21055 30093 40107 53009=
0203010030999992016011821004+77000+015500FM-12+001299999V0201401N008019999999N010000199-00121-00531101131ADDAY131021AY221021GA1021+008001061GA2999+999999031GE19MSL   +99999+99999GF106991021999008001999999MA1999999100991MD1210131+9999MW1011REMSYN06001003 41560 61408 11012 21053 30099 40113 52013 70132 82530=
0089010030999992016011822004+77000+015500FM-12+001299999V0201401N004019999999N999999999-00121-00481101141ADDMA1999999101001MD1210101+9999REMSYN04801003 46/// /1404 11012 21048 30100 40114 52010=
