0069010020999992016020114004+80050+016250FM-12+000899999V0200701N009019999999N999999999-00211-00421099691ADDMA1999999099611REMSYN04201002 46/// /0709 11021 21042 39961 49969=
0069010020999992016020115004+80050+016250FM-12+000899999V0200701N011019999999N999999999-00181-00431099701ADDMA1999999099621REMSYN04201002 46/// /0711 11018 21043 39962 49970=
0069010020999992016020116004+80050+016250FM-12+000899999V0200701N012019999999N999999999-00221-00441099681ADDMA1999999099591REMSYN04201002 46/// /0712 11022 21044 39959 49968=
0069010020999992016022910004+80050+016250FM-12+000899999V0201601N004019999999N999999999-00851-01251100411ADDMA1999999100321REMSYN04201002 46/// /1604 11085 21125 30032 40041=
0069010020999992016022911004+80050+016250FM-12+000899999V0201701N002019999999N999999999-00761-01211100411ADDMA1999999100331REMSYN04201002 46/// /1702 11076 21121 30033 40041=
0069010020999992016022912004+80050+016250FM-12+000899999V0201401N004019999999N999999999-00981-01361100391ADDMA1999999100311REMSYN04201002 46/// /1404 11098 21136 30031 40039=
0108010020999992016022913004+80050+016250FM-12+000899999V0201501N003019999999N999999999-00821-01301100381ADDMA1999999100301MD1790039+9999REMSYN04801002 46/// /1503 11082 21130 30030 40038 54003=EQDQ01.3    3APC3  
0089010020999992016022914004+80050+016250FM-12+000899999V0201601N003019999999N999999999-00831-01361100381ADDMA1999999100291MD1710031+9999REMSYN04801002 46/// /1603 11083 21136 30029 40038 57003=
0108010020999992016022915004+80050+016250FM-12+000899999V0201601N002019999999N999999999-00781-01261100371ADDMA1999999100291MD1790029+9999REMSYN04801002 46/// /1602 11078 21126 30029 40037 54002=EQDQ01.2    3APC3  
0108010020999992016022916004+80050+016250FM-12+000899999V0201401N004019999999N999999999-00921-01401100351ADDMA1999999100271MD1790039+9999REMSYN04801002 46/// /1404 11092 21140 30027 40035 54003=EQDQ01.3    3APC3  
0089010020999992016022917004+80050+016250FM-12+000899999V0201401N004019999999N999999999-00901-01361100341ADDMA1999999100261MD1710031+9999REMSYN04801002 46/// /1404 11090 21136 30026 40034 57003=
0113010020999992016022918004+80050+016250FM-12+000899999V0201401N003019999999N999999999-00861-01501100321ADDMA1999999100241MD1710051+9999OD139900501999REMSYN05801002 46/// /1403 11086 21150 30024 40032 57005 333 91105=
0089010020999992016022919004+80050+016250FM-12+000899999V0201401N006019999999N999999999-01061-01551100291ADDMA1999999100211MD1710061+9999REMSYN04801002 46/// /1406 11106 21155 30021 40029 57006=
0089010020999992016022920004+80050+016250FM-12+000899999V0201301N004019999999N999999999-00921-01601100271ADDMA1999999100181MD1710071+9999REMSYN04801002 46/// /1304 11092 21160 30018 40027 57007=
0089010020999992016022921004+80050+016250FM-12+000899999V0201401N004019999999N999999999-00961-01621100241ADDMA1999999100161MD1710081+9999REMSYN04801002 46/// /1404 11096 21162 30016 40024 57008=
0089010020999992016022922004+80050+016250FM-12+000899999V0201501N006019999999N999999999-00871-01611100251ADDMA1999999100171MD1810041+9999REMSYN04801002 46/// /1506 11087 21161 30017 40025 58004=
0108010020999992016022923004+80050+016250FM-12+000899999V0201301N005019999999N999999999-00971-01691100241ADDMA1999999100151MD1790039+9999REMSYN04801002 46/// /1305 11097 21169 30015 40024 54003=EQDQ014     3APCTEN
0113010020999992016030100004+80050+016250FM-12+000899999V0201501N005019999999N999999999-00791-01501100211ADDMA1999999100121MD1610041+9999OD139900701999REMSYN05801002 46/// /1505 11079 21150 30012 40021 56004 333 91107=
0089010020999992016030101004+80050+016250FM-12+000899999V0201401N005019999999N999999999-00941-01601100171ADDMA1999999100091MD1710081+9999REMSYN04801002 46/// /1405 11094 21160 30009 40017 57008=
0089010020999992016030102004+80050+016250FM-12+000899999V0201401N006019999999N999999999-00911-01361100151ADDMA1999999100061MD1710091+9999REMSYN04801002 46/// /1406 11091 21136 30006 40015 57009=
0069010020999992016030409004+80050+016250FM-12+000899999V0201301N004019999999N999999999-00261-00761100291ADDMA1999999100201REMSYN04201002 46/// /1304 11026 21076 30020 40029=
0069010020999992016030410004+80050+016250FM-12+000899999V0201401N004019999999N999999999-00101-00541100261ADDMA1999999100181REMSYN04201002 46/// /1404 11010 21054 30018 40026=
0069010020999992016030411004+80050+016250FM-12+000899999V0201301N005019999999N999999999-00481-00741100271ADDMA1999999100191REMSYN04201002 46/// /1305 11048 21074 30019 40027=
0089010020999992016030412004+80050+016250FM-12+000899999V0201301N007019999999N999999999-00431-00761100291ADDMA1999999100201MD1990001+9999REMSYN04801002 46/// /1307 11043 21076 30020 40029 50000=
0108010020999992016030413004+80050+016250FM-12+000899999V0201301N005019999999N999999999-00361-00591100291ADDMA1999999100211MD1290039+9999REMSYN04801002 46/// /1305 11036 21059 30021 40029 54003=EQDQ01.3    3APC3  
0108010020999992016030414004+80050+016250FM-12+000899999V0201401N005019999999N999999999-00331-00611100301ADDMA1999999100221MD1290039+9999REMSYN04801002 46/// /1405 11033 21061 30022 40030 54003=EQDQ01.3    3APC3  
0089010020999992016030415004+80050+016250FM-12+000899999V0201601N003019999999N999999999-00051-00561100251ADDMA1999999100171MD1610031+9999REMSYN04801002 46/// /1603 11005 21056 30017 40025 56003=
0089010020999992016030416004+80050+016250FM-12+000899999V0201301N004019999999N999999999-00321-00531100291ADDMA1999999100211MD1990001+9999REMSYN04801002 46/// /1304 11032 21053 30021 40029 50000=
0089010020999992016030417004+80050+016250FM-12+000899999V0201601N004019999999N999999999-00171-00661100271ADDMA1999999100191MD1710041+9999REMSYN04801002 46/// /1604 11017 21066 30019 40027 57004=
0113010020999992016030418004+80050+016250FM-12+000899999V0202101N003019999999N999999999-00161-00561100301ADDMA1999999100211MD1210051+9999OD139900701999REMSYN05801002 46/// /2103 11016 21056 30021 40030 52005 333 91107=
0108010020999992016030419004+80050+016250FM-12+000899999V0202101N005019999999N999999999-00271-00461100281ADDMA1999999100201MD1790019+9999REMSYN04801002 46/// /2105 11027 21046 30020 40028 54002=EQDQ01.2    3APC3  
0089010020999992016030420004+80050+016250FM-12+000899999V0202101N008019999999N999999999-00361-00521100251ADDMA1999999100171MD1510011+9999REMSYN04801002 46/// /2108 11036 21052 30017 40025 55001=
0089010020999992016030421004+80050+016250FM-12+000899999V0202101N005019999999N999999999-00211-00301100261ADDMA1999999100171MD1710041+9999REMSYN04801002 46/// /2105 11021 21030 30017 40026 57004=
0069010020999992016030709004+80050+016250FM-12+000899999V0201201N003019999999N999999999-00431-00631100951ADDMA1999999100861REMSYN04201002 46/// /1203 11043 21063 30086 40095=
0069010020999992016030710004+80050+016250FM-12+000899999V0201301N002019999999N999999999-00491-00641100971ADDMA1999999100891REMSYN04201002 46/// /1302 11049 21064 30089 40097=
0069010020999992016030711004+80050+016250FM-12+000899999V0201301N002019999999N999999999-00431-00681100991ADDMA1999999100901REMSYN04201002 46/// /1302 11043 21068 30090 40099=
0089010020999992016030712004+80050+016250FM-12+000899999V0201501N003019999999N999999999-00471-00821100971ADDMA1999999100891MD1510031+9999REMSYN04801002 46/// /1503 11047 21082 30089 40097 55003=
0089010020999992016030713004+80050+016250FM-12+000899999V0201401N004019999999N999999999-00601-00891100971ADDMA1999999100891MD1410001+9999REMSYN04801002 46/// /1404 11060 21089 30089 40097 54000=
0089010020999992016030714004+80050+016250FM-12+000899999V0201401N004019999999N999999999-00591-00981100981ADDMA1999999100901MD1410001+9999REMSYN04801002 46/// /1404 11059 21098 30090 40098 54000=
0108010020999992016030715004+80050+016250FM-12+000899999V0201301N004019999999N999999999-00561-00821100981ADDMA1999999100901MD1290019+9999REMSYN04801002 46/// /1304 11056 21082 30090 40098 54001=EQDQ01.1    3APC3  
0108010020999992016030716004+80050+016250FM-12+000899999V0201401N005019999999N999999999-00621-00861101001ADDMA1999999100921MD1290039+9999REMSYN04801002 46/// /1405 11062 21086 30092 40100 54003=EQDQ01.3    3APC3  
0108010020999992016030717004+80050+016250FM-12+000899999V0201401N004019999999N999999999-00591-00881101011ADDMA1999999100921MD1290039+9999REMSYN04801002 46/// /1404 11059 21088 30092 40101 54002=EQDQ01.2    3APC3  
0132010020999992016030718004+80050+016250FM-12+000899999V0201401N004019999999N999999999-00571-01041101001ADDMA1999999100911MD1290029+9999OD139900501999REMSYN05801002 46/// /1404 11057 21104 30091 40100 54002 333 91105=EQDQ01.2    3APC3  
0108010020999992016030719004+80050+016250FM-12+000899999V0201401N005019999999N999999999-00601-00911101011ADDMA1999999100931MD1290019+9999REMSYN04801002 46/// /1405 11060 21091 30093 40101 54001=EQDQ01.1    3APC3  
0108010020999992016030720004+80050+016250FM-12+000899999V0201401N005019999999N999999999-00571-00981101021ADDMA1999999100941MD1290019+9999REMSYN04801002 46/// /1405 11057 21098 30094 40102 54001=EQDQ01.1    3APC3  
0089010020999992016030721004+80050+016250FM-12+000899999V0201401N004019999999N999999999-00581-01021101051ADDMA1999999100961MD1210051+9999REMSYN04801002 46/// /1404 11058 21102 30096 40105 52005=
0089010020999992016030722004+80050+016250FM-12+000899999V0201401N004019999999N999999999-00601-01061101071ADDMA1999999100981MD1210051+9999REMSYN04801002 46/// /1404 11060 21106 30098 40107 52005=
0089010020999992016030723004+80050+016250FM-12+000899999V0201401N004019999999N999999999-00521-01101101081ADDMA1999999101001MD1210061+9999REMSYN04801002 46/// /1404 11052 21110 30100 40108 52006=
0113010020999992016030800004+80050+016250FM-12+000899999V0201401N004019999999N999999999-00531-00941101081ADDMA1999999101001MD1210041+9999OD139900501999REMSYN05801002 46/// /1404 11053 21094 30100 40108 52004 333 91105=
0089010020999992016030801004+80050+016250FM-12+000899999V0201401N004019999999N999999999-00571-01041101101ADDMA1999999101021MD1210041+9999REMSYN04801002 46/// /1404 11057 21104 30102 40110 52004=
0069010020999992016030808004+80050+016250FM-12+000899999V0201401N004019999999N999999999-00521-01101101231ADDMA1999999101141REMSYN04201002 46/// /1404 11052 21110 30114 40123=
0069010020999992016030809004+80050+016250FM-12+000899999V0201201N004019999999N999999999-00611-01001101251ADDMA1999999101171REMSYN04201002 46/// /1204 11061 21100 30117 40125=
0069010020999992016030810004+80050+016250FM-12+000899999V0201301N005019999999N999999999-00601-01221101271ADDMA1999999101191REMSYN04201002 46/// /1305 11060 21122 30119 40127=
0085010020999992016030811004+80059+016250FM-12+000899999V0201361N0036199999999999999999-00571-01131101311ADDKA1010M-00501KA2010N-00651MA1999999101231MD1210081+9999OD130100571999REMSYN004BUFR
0071010020999992016030812004+80059+016250FM-12+000899999V0201201N0032199999999999999999-00571-01051101321ADDKA1010M-00541KA2010N-00681MA1999999101241MD1210071+9999REMSYN004BUFR
0071010020999992016030813004+80059+016250FM-12+000899999V0201181N0027199999999999999999-00471-00921101341ADDKA1010M-00451KA2010N-00601MA1999999101261MD1210071+9999REMSYN004BUFR
0089010020999992016030814004+80050+016250FM-12+000899999V0201301N003019999999N999999999-00501-01161101361ADDMA1999999101271MD1210051+9999REMSYN04801002 46/// /1303 11050 21116 30127 40136 52005=
0089010020999992016030815004+80050+016250FM-12+000899999V0201201N004019999999N999999999-00581-00941101381ADDMA1999999101291MD1210061+9999REMSYN04801002 46/// /1204 11058 21094 30129 40138 52006=
0089010020999992016030816004+80050+016250FM-12+000899999V0201301N004019999999N999999999-00561-01201101411ADDMA1999999101331MD1210071+9999REMSYN04801002 46/// /1304 11056 21120 30133 40141 52007=
0089010020999992016030817004+80050+016250FM-12+000899999V0201501N003019999999N999999999-00481-01291101431ADDMA1999999101351MD1210081+9999REMSYN04801002 46/// /1503 11048 21129 30135 40143 52008=
0113010020999992016030818004+80050+016250FM-12+000899999V0201501N003019999999N999999999-00561-01241101451ADDMA1999999101361MD1210071+9999OD139900601999REMSYN05801002 46/// /1503 11056 21124 30136 40145 52007 333 91106=
0089010020999992016030819004+80050+016250FM-12+000899999V0201601N003019999999N999999999-00511-01151101471ADDMA1999999101381MD1210051+9999REMSYN04801002 46/// /1603 11051 21115 30138 40147 52005=
0108010020999992016030820004+80050+016250FM-12+000899999V0201301N004019999999N999999999-00611-01171101461ADDMA1999999101381MD1290039+9999REMSYN04801002 46/// /1304 11061 21117 30138 40146 54003=EQDQ01.3    3APC3  
0108010020999992016030821004+80050+016250FM-12+000899999V0201401N005019999999N999999999-00701-01141101481ADDMA1999999101391MD1290039+9999REMSYN04801002 46/// /1405 11070 21114 30139 40148 54003=EQDQ01.3    3APC3  
0089010020999992016030822004+80050+016250FM-12+000899999V0201401N005019999999N999999999-00701-00971101471ADDMA1999999101391MD1410001+9999REMSYN04801002 46/// /1405 11070 21097 30139 40147 54000=
0108010020999992016030823004+80050+016250FM-12+000899999V0201401N005019999999N999999999-00601-00931101491ADDMA1999999101401MD1290039+9999REMSYN04801002 46/// /1405 11060 21093 30140 40149 54003=EQDQ01.3    3APC3  
0113010020999992016030900004+80050+016250FM-12+000899999V0201501N001019999999N999999999-00431-00961101521ADDMA1999999101431MD1110041+9999OD139900701999REMSYN05801002 46/// /1501 11043 21096 30143 40152 51004 333 91107=
0089010020999992016030901004+80050+016250FM-12+000899999V0201001N003019999999N999999999-00491-00931101511ADDMA1999999101421MD1210041+9999REMSYN04801002 46/// /1003 11049 21093 30142 40151 52004=
0089010020999992016030902004+80050+016250FM-12+000899999V0201501N005019999999N999999999-00471-00971101491ADDMA1999999101401MD1510001+9999REMSYN04801002 46/// /1505 11047 21097 30140 40149 55000=
0108010020999992016030903004+80050+016250FM-12+000899999V0201501N003019999999N999999999-00361-00991101501ADDMA1999999101421MD1790029+9999REMSYN04801002 46/// /1503 11036 21099 30142 40150 54002=EQDQ01.2    3APC3  
0108010020999992016030904004+80050+016250FM-12+000899999V0201301N001019999999N999999999-00531-00921101501ADDMA1999999101411MD1790019+9999REMSYN04801002 46/// /1301 11053 21092 30141 40150 54001=EQDQ01.1    3APC3  
0108010020999992016030905004+80050+016250FM-12+000899999V0201401N001019999999N999999999-00571-00951101501ADDMA1999999101411MD1290019+9999REMSYN04801002 46/// /1401 11057 21095 30141 40150 54001=EQDQ01.1    3APC3  
0132010020999992016030906004+80050+016250FM-12+000899999V0201601N002019999999N999999999-00511-00941101501ADDKA1240N-00841MA1999999101421MD1410001+9999OD139900501999REMSYN06401002 46/// /1602 11051 21094 30142 40150 54000 333 21084 91105=
0089010020999992016030907004+80050+016250FM-12+000899999V0201401N004019999999N999999999-00561-01111101501ADDMA1999999101411MD1410001+9999REMSYN04801002 46/// /1404 11056 21111 30141 40150 54000=
0108010020999992016030909004+80050+016250FM-12+000899999V0201501N004019999999N999999999-00431-01141101491ADDMA1999999101411MD1790019+9999REMSYN04801002 46/// /1504 11043 21114 30141 40149 54001=EQDQ01.1    3APC3  
0108010020999992016030910004+80050+016250FM-12+000899999V0201401N001019999999N999999999-00331-01131101511ADDMA1999999101421MD1290019+9999REMSYN04801002 46/// /1401 11033 21113 30142 40151 54001=EQDQ01.1    3APC3  
0094010020999992016030911004+80050+016250FM-12+000899999V0201801N003019999999N999999999-00291-01051101511ADDMA1999999101431REMSYN04801002 46/// /1803 11029 21105 30143 40151 54003=EQDQ014     3APCTEN
0108010020999992016030912004+80050+016250FM-12+000899999V0201501N003019999999N999999999-00381-01071101501ADDMA1999999101411MD1290019+9999REMSYN04801002 46/// /1503 11038 21107 30141 40150 54001=EQDQ01.1    3APC3  
0089010020999992016030913004+80050+016250FM-12+000899999V0201301N003019999999N999999999-00401-01091101471ADDMA1999999101391MD1610041+9999REMSYN04801002 46/// /1303 11040 21109 30139 40147 56004=
0089010020999992016030914004+80050+016250FM-12+000899999V0201301N003019999999N999999999-00301-00951101461ADDMA1999999101381MD1710051+9999REMSYN04801002 46/// /1303 11030 21095 30138 40146 57005=
0089010020999992016030915004+80050+016250FM-12+000899999V0201301N004019999999N999999999-00531-01021101441ADDMA1999999101361MD1710061+9999REMSYN04801002 46/// /1304 11053 21102 30136 40144 57006=
0089010020999992016030916004+80050+016250FM-12+000899999V0201501N005019999999N999999999-00431-00981101421ADDMA1999999101341MD1710051+9999REMSYN04801002 46/// /1505 11043 21098 30134 40142 57005=
0089010020999992016030917004+80050+016250FM-12+000899999V0201501N005019999999N999999999-00491-00851101411ADDMA1999999101331MD1710051+9999REMSYN04801002 46/// /1505 11049 21085 30133 40141 57005=
0113010020999992016030918004+80050+016250FM-12+000899999V0201501N005019999999N999999999-00581-01071101391ADDMA1999999101311MD1710051+9999OD139900501999REMSYN05801002 46/// /1505 11058 21107 30131 40139 57005 333 91105=
0089010020999992016030919004+80050+016250FM-12+000899999V0201401N004019999999N999999999-00641-01111101371ADDMA1999999101291MD1710051+9999REMSYN04801002 46/// /1404 11064 21111 30129 40137 57005=
0089010020999992016030920004+80050+016250FM-12+000899999V0201401N003019999999N999999999-00481-01071101351ADDMA1999999101261MD1710061+9999REMSYN04801002 46/// /1403 11048 21107 30126 40135 57006=
0089010020999992016030921004+80050+016250FM-12+000899999V0201401N003019999999N999999999-00531-01041101331ADDMA1999999101251MD1710061+9999REMSYN04801002 46/// /1403 11053 21104 30125 40133 57006=
0089010020999992016030922004+80050+016250FM-12+000899999V0201301N001019999999N999999999-00441-00971101311ADDMA1999999101231MD1710061+9999REMSYN04801002 46/// /1301 11044 21097 30123 40131 57006=
0089010020999992016030923004+80050+016250FM-12+000899999V0201301N001019999999N999999999-00421-00951101301ADDMA1999999101221MD1710051+9999REMSYN04801002 46/// /1301 11042 21095 30122 40130 57005=
0113010020999992016031000004+80050+016250FM-12+000899999V0201601N001019999999N999999999-00431-00961101271ADDMA1999999101191MD1710061+9999OD139900501999REMSYN05801002 46/// /1601 11043 21096 30119 40127 57006 333 91105=
0089010020999992016031001004+80050+016250FM-12+000899999V0201401N002019999999N999999999-00401-01011101261ADDMA1999999101171MD1710061+9999REMSYN04801002 46/// /1402 11040 21101 30117 40126 57006=
0089010020999992016031002004+80050+016250FM-12+000899999V0201501N003019999999N999999999-00421-01031101231ADDMA1999999101151MD1710061+9999REMSYN04801002 46/// /1503 11042 21103 30115 40123 57006=
0089010020999992016031003004+80050+016250FM-12+000899999V0202201N001019999999N999999999-00311-01001101211ADDMA1999999101131MD1710061+9999REMSYN04801002 46/// /2201 11031 21100 30113 40121 57006=
0089010020999992016031004004+80050+016250FM-12+000899999V0201901N004019999999N999999999-00421-00951101191ADDMA1999999101101MD1710071+9999REMSYN04801002 46/// /1904 11042 21095 30110 40119 57007=
0089010020999992016031005004+80050+016250FM-12+000899999V0201801N002019999999N999999999-00401-00861101161ADDMA1999999101081MD1710071+9999REMSYN04801002 46/// /1802 11040 21086 30108 40116 57007=
0132010020999992016031006004+80050+016250FM-12+000899999V0202001N006019999999N999999999-00651-01141101121ADDKA1240N-00671MA1999999101041MD1710091+9999OD139900601999REMSYN06401002 46/// /2006 11065 21114 30104 40112 57009 333 21067 91106=
0089010020999992016031007004+80050+016250FM-12+000899999V0202001N007019999999N999999999-00671-01121101091ADDMA1999999101011MD1710091+9999REMSYN04801002 46/// /2007 11067 21112 30101 40109 57009=
0089010020999992016031008004+80050+016250FM-12+000899999V0202001N006019999999N999999999-00581-01121101071ADDMA1999999100991MD1710091+9999REMSYN04801002 46/// /2006 11058 21112 30099 40107 57009=
0089010020999992016031009004+80050+016250FM-12+000899999V0202001N006019999999N999999999-00601-01131101071ADDMA1999999100981MD1710051+9999REMSYN04801002 46/// /2006 11060 21113 30098 40107 57005=
0089010020999992016031010004+80050+016250FM-12+000899999V0202001N006019999999N999999999-00491-00971101081ADDMA1999999100991MD1990021+9999REMSYN04801002 46/// /2006 11049 21097 30099 40108 50002=
0108010020999992016031011004+80050+016250FM-12+000899999V0202001N006019999999N999999999-00541-00921101061ADDMA1999999100981MD1790019+9999REMSYN04801002 46/// /2006 11054 21092 30098 40106 54001=EQDQ01.1    3APC3  
0113010020999992016031012004+80050+016250FM-12+000899999V0202101N007019999999N999999999-00421-00821101031ADDMA1999999100941MD1610041+9999OD139900801999REMSYN05801002 46/// /2107 11042 21082 30094 40103 56004 333 91108=
0089010020999992016031013004+80050+016250FM-12+000899999V0202101N008019999999N999999999-00411-00731101041ADDMA1999999100961MD1710041+9999REMSYN04801002 46/// /2108 11041 21073 30096 40104 57004=
0089010020999992016031014004+80050+016250FM-12+000899999V0202101N010019999999N999999999-00311-00621100991ADDMA1999999100901MD1710071+9999REMSYN04801002 46/// /2110 11031 21062 30090 40099 57007=
0108010020999992016031015004+80050+016250FM-12+000899999V0202101N010019999999N999999999-00231-00581101001ADDMA1999999100911MD1790039+9999REMSYN04801002 46/// /2110 11023 21058 30091 40100 54003=EQDQ01.3    3APC3  
0089010020999992016031016004+80050+016250FM-12+000899999V0202101N010019999999N999999999-00291-00641101001ADDMA1999999100911MD1810041+9999REMSYN04801002 46/// /2110 11029 21064 30091 40100 58004=
0089010020999992016031017004+80050+016250FM-12+000899999V0202001N009019999999N999999999-00421-00751101021ADDMA1999999100941MD1210041+9999REMSYN04801002 46/// /2009 11042 21075 30094 40102 52004=
0132010020999992016031018004+80050+016250FM-12+000899999V0202101N009019999999N999999999-00401-00731101051ADDKA1120M-00221MA1999999100961MD1210051+9999OD139901301999REMSYN06401002 46/// /2109 11040 21073 30096 40105 52005 333 11022 91113=
0089010020999992016031019004+80050+016250FM-12+000899999V0202001N009019999999N999999999-00441-00791101071ADDMA1999999100991MD1210081+9999REMSYN04801002 46/// /2009 11044 21079 30099 40107 52008=
0089010020999992016031020004+80050+016250FM-12+000899999V0201801N008019999999N999999999-00441-00801101061ADDMA1999999100981MD1310041+9999REMSYN04801002 46/// /1808 11044 21080 30098 40106 53004=
0089010020999992016031021004+80050+016250FM-12+000899999V0201701N009019999999N999999999-00411-00841101031ADDMA1999999100941MD1510021+9999REMSYN04801002 46/// /1709 11041 21084 30094 40103 55002=
0089010020999992016031022004+80050+016250FM-12+000899999V0201601N008019999999N999999999-00481-00981100991ADDMA1999999100911MD1710081+9999REMSYN04801002 46/// /1608 11048 21098 30091 40099 57008=
0089010020999992016031023004+80050+016250FM-12+000899999V0201701N007019999999N999999999-00291-00851100991ADDMA1999999100911MD1810071+9999REMSYN04801002 46/// /1707 11029 21085 30091 40099 58007=
0113010020999992016031100004+80050+016250FM-12+000899999V0201801N007019999999N999999999-00371-00901100961ADDMA1999999100881MD1710061+9999OD139901001999REMSYN05801002 46/// /1807 11037 21090 30088 40096 57006 333 91110=
0089010020999992016031101004+80050+016250FM-12+000899999V0201901N008019999999N999999999-00431-00861100931ADDMA1999999100851MD1710061+9999REMSYN04801002 46/// /1908 11043 21086 30085 40093 57006=
0089010020999992016031102004+80050+016250FM-12+000899999V0201901N008019999999N999999999-00291-00691100891ADDMA1999999100811MD1710101+9999REMSYN04801002 46/// /1908 11029 21069 30081 40089 57010=
0089010020999992016031103004+80050+016250FM-12+000899999V0201801N007019999999N999999999-00191-00641100861ADDMA1999999100781MD1710101+9999REMSYN04801002 46/// /1807 11019 21064 30078 40086 57010=
0089010020999992016031104004+80050+016250FM-12+000899999V0201801N007019999999N999999999-00281-00701100831ADDMA1999999100741MD1710111+9999REMSYN04801002 46/// /1807 11028 21070 30074 40083 57011=
0089010020999992016031105004+80050+016250FM-12+000899999V0201801N007019999999N999999999-00261-00611100791ADDMA1999999100711MD1710101+9999REMSYN04801002 46/// /1807 11026 21061 30071 40079 57010=
0132010020999992016031106004+80050+016250FM-12+000899999V0201801N008019999999N999999999-00211-00611100761ADDKA1240N-00571MA1999999100671MD1710111+9999OD139901001999REMSYN06401002 46/// /1808 11021 21061 30067 40076 57011 333 21057 91110=
0089010020999992016031107004+80050+016250FM-12+000899999V0201801N007019999999N999999999-00181-00621100741ADDMA1999999100661MD1710081+9999REMSYN04801002 46/// /1807 11018 21062 30066 40074 57008=
0089010020999992016031108004+80050+016250FM-12+000899999V0201701N006019999999N999999999-00211-00631100731ADDMA1999999100651MD1710061+9999REMSYN04801002 46/// /1706 11021 21063 30065 40073 57006=
0089010020999992016031109004+80050+016250FM-12+000899999V0201301N008019999999N999999999-00311-00561100681ADDMA1999999100601MD1610081+9999REMSYN04801002 46/// /1308 11031 21056 30060 40068 56008=
0089010020999992016031110004+80050+016250FM-12+000899999V0201401N007019999999N999999999-00421-00641100661ADDMA1999999100581MD1710081+9999REMSYN04801002 46/// /1407 11042 21064 30058 40066 57008=
0089010020999992016031111004+80050+016250FM-12+000899999V0201301N008019999999N999999999-00451-00631100611ADDMA1999999100531MD1710121+9999REMSYN04801002 46/// /1308 11045 21063 30053 40061 57012=
0113010020999992016031112004+80050+016250FM-12+000899999V0201301N008019999999N999999999-00391-00571100561ADDMA1999999100481MD1610121+9999OD139901001999REMSYN05801002 46/// /1308 11039 21057 30048 40056 56012 333 91110=
0089010020999992016031113004+80050+016250FM-12+000899999V0201001N007019999999N999999999-00241-00501100501ADDMA1999999100411MD1710161+9999REMSYN04801002 46/// /1007 11024 21050 30041 40050 57016=
0089010020999992016031114004+80050+016250FM-12+000899999V0201401N010019999999N999999999-00341-00601100401ADDMA1999999100321MD1610211+9999REMSYN04801002 46/// /1410 11034 21060 30032 40040 56021=
0089010020999992016031115004+80050+016250FM-12+000899999V0201301N009019999999N999999999-00281-00561100341ADDMA1999999100261MD1710221+9999REMSYN04801002 46/// /1309 11028 21056 30026 40034 57022=
0089010020999992016031116004+80050+016250FM-12+000899999V0201601N011019999999N999999999-00081-00491100251ADDMA1999999100161MD1710251+9999REMSYN04801002 46/// /1611 11008 21049 30016 40025 57025=
0089010020999992016031117004+80050+016250FM-12+000899999V0201401N006019999999N999999999-00011-00491100231ADDMA1999999100151MD1810171+9999REMSYN04801002 46/// /1406 11001 21049 30015 40023 58017=
0132010020999992016031118004+80050+016250FM-12+000899999V0201501N006019999999N999999999-00051-00441100181ADDKA1120M+00051MA1999999100091MD1810161+9999OD139901101999REMSYN06401002 46/// /1506 11005 21044 30009 40018 58016 333 10005 91111=
0089010020999992016031119004+80050+016250FM-12+000899999V0201801N010019999999N999999999+00161-00291100051ADDMA1999999099971MD1610191+9999REMSYN04801002 46/// /1810 10016 21029 39997 40005 56019=
0089010020999992016031120004+80050+016250FM-12+000899999V0201801N008019999999N999999999+00311-00201100031ADDMA1999999099951MD1810201+9999REMSYN04801002 46/// /1808 10031 21020 39995 40003 58020=
0089010020999992016031121004+80050+016250FM-12+000899999V0201501N009019999999N999999999+00091-00271100011ADDMA1999999099931MD1810161+9999REMSYN04801002 46/// /1509 10009 21027 39993 40001 58016=
0089010020999992016031122004+80050+016250FM-12+000899999V0201501N006019999999N999999999+00171-00221100021ADDMA1999999099941MD1810031+9999REMSYN04801002 46/// /1506 10017 21022 39994 40002 58003=
0089010020999992016031123004+80050+016250FM-12+000899999V0201101N001019999999N999999999+00171-00191100071ADDMA1999999099991MD1110041+9999REMSYN04801002 46/// /1101 10017 21019 39999 40007 51004=
0113010020999992016031200004+80050+016250FM-12+000899999V0202201N010019999999N999999999+00161-00021100061ADDMA1999999099981MD1210051+9999OD139901101999REMSYN05801002 46/// /2210 10016 21002 39998 40006 52005 333 91111=
0089010020999992016031201004+80050+016250FM-12+000899999V0202201N007019999999N999999999+00081-00061100131ADDMA1999999100051MD1210111+9999REMSYN04801002 46/// /2207 10008 21006 30005 40013 52011=
0089010020999992016031202004+80050+016250FM-12+000899999V0202201N007019999999N999999999-00031-00131100131ADDMA1999999100051MD1210061+9999REMSYN04801002 46/// /2207 11003 21013 30005 40013 52006=
0089010020999992016031203004+80050+016250FM-12+000899999V0202201N005019999999N999999999+00021-00151100121ADDMA1999999100041MD1310051+9999REMSYN04801002 46/// /2205 10002 21015 30004 40012 53005=
0108010020999992016031204004+80050+016250FM-12+000899999V0202001N008019999999N999999999-00201-00561100111ADDMA1999999100031MD1790029+9999REMSYN04801002 46/// /2008 11020 21056 30003 40011 54002=EQDQ01.2    3APC3  
0108010020999992016031205004+80050+016250FM-12+000899999V0202001N009019999999N999999999-00231-00731100111ADDMA1999999100031MD1790029+9999REMSYN04801002 46/// /2009 11023 21073 30003 40011 54002=EQDQ01.2    3APC3  
0151010020999992016031206004+80050+016250FM-12+000899999V0202001N011019999999N999999999-00191-00831100091ADDKA1240N-00351MA1999999100011MD1790039+9999OD139901201999REMSYN06401002 46/// /2011 11019 21083 30001 40009 54002 333 21035 91112=EQDQ01.2    3APC3  
0108010020999992016031207004+80050+016250FM-12+000899999V0201901N012019999999N999999999-00031-00651100101ADDMA1999999100021MD1790019+9999REMSYN04801002 46/// /1912 11003 21065 30002 40010 54001=EQDQ01.1    3APC3  
0089010020999992016031208004+80050+016250FM-12+000899999V0202001N011019999999N999999999-00011-00581100121ADDMA1999999100041MD1990001+9999REMSYN04801002 46/// /2011 11001 21058 30004 40012 50000=
0089010020999992016031209004+80050+016250FM-12+000899999V0201901N009019999999N999999999-00071-00551100151ADDMA1999999100061MD1210051+9999REMSYN04801002 46/// /1909 11007 21055 30006 40015 52005=
0089010020999992016031210004+80050+016250FM-12+000899999V0201701N009019999999N999999999+00031-00571100151ADDMA1999999100071MD1210051+9999REMSYN04801002 46/// /1709 10003 21057 30007 40015 52005=
0089010020999992016031211004+80050+016250FM-12+000899999V0201701N009019999999N999999999+00041-00581100121ADDMA1999999100041MD1510001+9999REMSYN04801002 46/// /1709 10004 21058 30004 40012 55000=
0113010020999992016031212004+80050+016250FM-12+000899999V0201701N009019999999N999999999-00041-00551100151ADDMA1999999100071MD1410001+9999OD139901501999REMSYN05801002 46/// /1709 11004 21055 30007 40015 54000 333 91115=
0089010020999992016031213004+80050+016250FM-12+000899999V0201701N009019999999N999999999+00001-00501100091ADDMA1999999100011MD1710061+9999REMSYN04801002 46/// /1709 10000 21050 30001 40009 57006=
0089010020999992016031214004+80050+016250FM-12+000899999V0201801N011019999999N999999999+00071-00471100051ADDMA1999999099971MD1610071+9999REMSYN04801002 46/// /1811 10007 21047 39997 40005 56007=
0089010020999992016031215004+80050+016250FM-12+000899999V0201801N008019999999N999999999-00061-00441100061ADDMA1999999099981MD1810091+9999REMSYN04801002 46/// /1808 11006 21044 39998 40006 58009=
0089010020999992016031216004+80050+016250FM-12+000899999V0201701N009019999999N999999999-00021-00411099991ADDMA1999999099911MD1710101+9999REMSYN04801002 46/// /1709 11002 21041 39991 49999 57010=
0089010020999992016031217004+80050+016250FM-12+000899999V0201701N010019999999N999999999-00051-00431099961ADDMA1999999099881MD1610091+9999REMSYN04801002 46/// /1710 11005 21043 39988 49996 56009=
0132010020999992016031218004+80050+016250FM-12+000899999V0201801N008019999999N999999999-00131-00441099971ADDKA1120M+00101MA1999999099881MD1810091+9999OD139901301999REMSYN06401002 46/// /1808 11013 21044 39988 49997 58009 333 10010 91113=
0089010020999992016031219004+80050+016250FM-12+000899999V0201901N009019999999N999999999+00051-00361099961ADDMA1999999099881MD1710031+9999REMSYN04801002 46/// /1909 10005 21036 39988 49996 57003=
0089010020999992016031220004+80050+016250FM-12+000899999V0201901N008019999999N999999999-00021-00361099921ADDMA1999999099841MD1610041+9999REMSYN04801002 46/// /1908 11002 21036 39984 49992 56004=
0089010020999992016031221004+80050+016250FM-12+000899999V0202001N010019999999N999999999+00081-00291099861ADDMA1999999099771MD1610111+9999REMSYN04801002 46/// /2010 10008 21029 39977 49986 56011=
0089010020999992016031222004+80050+016250FM-12+000899999V0201901N007019999999N999999999+00031-00361099911ADDMA1999999099831MD1810051+9999REMSYN04801002 46/// /1907 10003 21036 39983 49991 58005=
0089010020999992016031223004+80050+016250FM-12+000899999V0202101N005019999999N999999999-00071-00351099891ADDMA1999999099811MD1990031+9999REMSYN04801002 46/// /2105 11007 21035 39981 49989 50003=
0113010020999992016031300004+80050+016250FM-12+000899999V0201801N006019999999N999999999-00051-00351099861ADDMA1999999099781MD1510011+9999OD139901101999REMSYN05801002 46/// /1806 11005 21035 39978 49986 55001 333 91111=
0089010020999992016031301004+80050+016250FM-12+000899999V0201501N006019999999N999999999-00071-00401099851ADDMA1999999099771MD1710061+9999REMSYN04801002 46/// /1506 11007 21040 39977 49985 57006=
0089010020999992016031302004+80050+016250FM-12+000899999V0201801N007019999999N999999999+00121-00311099791ADDMA1999999099711MD1610111+9999REMSYN04801002 46/// /1807 10012 21031 39971 49979 56011=
0089010020999992016031303004+80050+016250FM-12+000899999V0201801N006019999999N999999999+00051-00291099751ADDMA1999999099671MD1710111+9999REMSYN04801002 46/// /1806 10005 21029 39967 49975 57011=
0089010020999992016031304004+80050+016250FM-12+000899999V0201801N007019999999N999999999+00131-00301099651ADDMA1999999099571MD1610201+9999REMSYN04801002 46/// /1807 10013 21030 39957 49965 56020=
0089010020999992016031305004+80050+016250FM-12+000899999V0201801N009019999999N999999999+00291-00241099501ADDMA1999999099421MD1610291+9999REMSYN04801002 46/// /1809 10029 21024 39942 49950 56029=
0132010020999992016031306004+80050+016250FM-12+000899999V0201601N007019999999N999999999+00261-00231099371ADDKA1240N-00171MA1999999099291MD1710381+9999OD139901101999REMSYN06401002 46/// /1607 10026 21023 39929 49937 57038 333 21017 91111=
0089010020999992016031307004+80050+016250FM-12+000899999V0201201N007019999999N999999999+00071-00121099211ADDMA1999999099131MD1710431+9999REMSYN04801002 46/// /1207 10007 21012 39913 49921 57043=
0089010020999992016031308004+80050+016250FM-12+000899999V0201301N010019999999N999999999+00131-00141098971ADDMA1999999098891MD1610531+9999REMSYN04801002 46/// /1310 10013 21014 39889 49897 56053=
0089010020999992016031309004+80050+016250FM-12+000899999V0201301N009019999999N999999999+00081-00141098841ADDMA1999999098761MD1810521+9999REMSYN04801002 46/// /1309 10008 21014 39876 49884 58052=
0089010020999992016031310004+80050+016250FM-12+000899999V0201501N009019999999N999999999+00121-00101098731ADDMA1999999098651MD1810481+9999REMSYN04801002 46/// /1509 10012 21010 39865 49873 58048=
0089010020999992016031311004+80050+016250FM-12+000899999V0201701N007019999999N999999999+00371-00101098701ADDMA1999999098621MD1810271+9999REMSYN04801002 46/// /1707 10037 21010 39862 49870 58027=
0113010020999992016031312004+80050+016250FM-12+000899999V0202201N009019999999N999999999+00411-00091098601ADDMA1999999098521MD1710241+9999OD139901501999REMSYN05801002 46/// /2209 10041 21009 39852 49860 57024 333 91115=
0089010020999992016031313004+80050+016250FM-12+000899999V0202101N008019999999N999999999+00301-00061098581ADDMA1999999098511MD1710151+9999REMSYN04801002 46/// /2108 10030 21006 39851 49858 57015=
0089010020999992016031315004+80050+016250FM-12+000899999V0202401N009019999999N999999999+00261-00101098661ADDMA1999999098591MD1110061+9999REMSYN04801002 46/// /2409 10026 21010 39859 49866 51006=
0089010020999992016031316004+80050+016250FM-12+000899999V0202301N010019999999N999999999+00201-00141098631ADDMA1999999098551MD1310041+9999REMSYN04801002 46/// /2310 10020 21014 39855 49863 53004=
0089010020999992016031317004+80050+016250FM-12+000899999V0202101N008019999999N999999999+00101-00271098661ADDMA1999999098581MD1310081+9999REMSYN04801002 46/// /2108 10010 21027 39858 49866 53008=
0132010020999992016031318004+80050+016250FM-12+000899999V0202001N007019999999N999999999+00021-00351098671ADDKA1120M+00491MA1999999098591MD1990001+9999OD139901301999REMSYN06401002 46/// /2007 10002 21035 39859 49867 50000 333 10049 91113=
0089010020999992016031319004+80050+016250FM-12+000899999V0202001N006019999999N999999999-00171-00461098671ADDMA1999999098591MD1310041+9999REMSYN04801002 46/// /2006 11017 21046 39859 49867 53004=
0094010020999992016031320004+80050+016250FM-12+000899999V0202101N009019999999N999999999+00071-00221098681ADDMA1999999098601REMSYN04801002 46/// /2109 10007 21022 39860 49868 54002=EQDQ014     3APCTEN
0089010020999992016031321004+80050+016250FM-12+000899999V0202801N017019999999N999999999-00471-00591098921ADDMA1999999098841MD1110251+9999REMSYN04801002 46/// /2817 11047 21059 39884 49892 51025=
0089010020999992016031322004+80050+016250FM-12+000899999V0202801N015019999999N999999999-00741-00911099331ADDMA1999999099251MD1110661+9999REMSYN04801002 46/// /2815 11074 21091 39925 49933 51066=
0089010020999992016031323004+80050+016250FM-12+000899999V0202901N016019999999N999999999-00781-00951099591ADDMA1999999099501MD1210901+9999REMSYN04801002 46/// /2916 11078 21095 39950 49959 52090=
0113010020999992016031400004+80050+016250FM-12+000899999V0202901N014019999999N999999999-00711-00861099801ADDMA1999999099711MD1310881+9999OD139901901999REMSYN05801002 46/// /2914 11071 21086 39971 49980 53088 333 91119=
0089010020999992016031401004+80050+016250FM-12+000899999V0202901N014019999999N999999999-00751-00821099951ADDMA1999999099871MD1310621+9999REMSYN04801002 46/// /2914 11075 21082 39987 49995 53062=
0089010020999992016031402004+80050+016250FM-12+000899999V0202901N012019999999N999999999-00821-00901100131ADDMA1999999100051MD1210551+9999REMSYN04801002 46/// /2912 11082 21090 30005 40013 52055=
0089010020999992016031403004+80050+016250FM-12+000899999V0202901N013019999999N999999999-00921-01011100261ADDMA1999999100171MD1210461+9999REMSYN04801002 46/// /2913 11092 21101 30017 40026 52046=
0089010020999992016031404004+80050+016250FM-12+000899999V0202901N012019999999N999999999-01011-01131100441ADDMA1999999100361MD1210491+9999REMSYN04801002 46/// /2912 11101 21113 30036 40044 52049=
0089010020999992016031405004+80050+016250FM-12+000899999V0202901N010019999999N999999999-01041-01361100561ADDMA1999999100471MD1210421+9999REMSYN04801002 46/// /2910 11104 21136 30047 40056 52042=
0132010020999992016031406004+80050+016250FM-12+000899999V0202801N010019999999N999999999-01011-01341100621ADDKA1240N-01061MA1999999100541MD1310371+9999OD139901601999REMSYN06401002 46/// /2810 11101 21134 30054 40062 53037 333 21106 91116=
0089010020999992016031407004+80050+016250FM-12+000899999V0202901N008019999999N999999999-00991-01341100631ADDMA1999999100541MD1310191+9999REMSYN04801002 46/// /2908 11099 21134 30054 40063 53019=
0089010020999992016031408004+80050+016250FM-12+000899999V0203001N007019999999N999999999-01011-01371100651ADDMA1999999100561MD1310091+9999REMSYN04801002 46/// /3007 11101 21137 30056 40065 53009=
0089010020999992016031409004+80050+016250FM-12+000899999V0202901N006019999999N999999999-01001-01321100621ADDMA1999999100541MD1510001+9999REMSYN04801002 46/// /2906 11100 21132 30054 40062 55000=
0089010020999992016031410004+80050+016250FM-12+000899999V0202801N005019999999N999999999-00971-01281100601ADDMA1999999100511MD1610031+9999REMSYN04801002 46/// /2805 11097 21128 30051 40060 56003=
0089010020999992016031411004+80050+016250FM-12+000899999V0203101N003019999999N999999999-00951-01231100471ADDMA1999999100391MD1610181+9999REMSYN04801002 46/// /3103 11095 21123 30039 40047 56018=
0113010020999992016031412004+80050+016250FM-12+000899999V0200501N001019999999N999999999-00941-01221100351ADDMA1999999100261MD1610271+9999OD139901101999REMSYN05801002 46/// /0501 11094 21122 30026 40035 56027 333 91111=
0089010020999992016031413004+80050+016250FM-12+000899999V0201101N004019999999N999999999-00901-01141100191ADDMA1999999100101MD1610411+9999REMSYN04801002 46/// /1104 11090 21114 30010 40019 56041=
0089010020999992016031414004+80050+016250FM-12+000899999V0201201N008019999999N999999999-00871-01141100021ADDMA1999999099941MD1610451+9999REMSYN04801002 46/// /1208 11087 21114 39994 40002 56045=
0089010020999992016031415004+80050+016250FM-12+000899999V0201201N010019999999N999999999-00831-01041099821ADDMA1999999099741MD1610521+9999REMSYN04801002 46/// /1210 11083 21104 39974 49982 56052=
0089010020999992016031416004+80050+016250FM-12+000899999V0201201N010019999999N999999999-00741-00941099571ADDMA1999999099481MD1610621+9999REMSYN04801002 46/// /1210 11074 21094 39948 49957 56062=
0089010020999992016031417004+80050+016250FM-12+000899999V0201201N012019999999N999999999-00701-00931099331ADDMA1999999099251MD1610691+9999REMSYN04801002 46/// /1212 11070 21093 39925 49933 56069=
0132010020999992016031418004+80050+016250FM-12+000899999V0201201N012019999999N999999999-00711-00941099081ADDKA1120M-00701MA1999999098991MD1710751+9999OD139901401999REMSYN06401002 46/// /1212 11071 21094 39899 49908 57075 333 11070 91114=
0089010020999992016031419004+80050+016250FM-12+000899999V0201201N011019999999N999999999-00651-00911098851ADDMA1999999098771MD1710711+9999REMSYN04801002 46/// /1211 11065 21091 39877 49885 57071=
0089010020999992016031420004+80050+016250FM-12+000899999V0201201N012019999999N999999999-00611-00821098641ADDMA1999999098561MD1810691+9999REMSYN04801002 46/// /1212 11061 21082 39856 49864 58069=
0089010020999992016031421004+80050+016250FM-12+000899999V0201101N013019999999N999999999-00511-00631098421ADDMA1999999098341MD1710661+9999REMSYN04801002 46/// /1113 11051 21063 39834 49842 57066=
0089010020999992016031422004+80050+016250FM-12+000899999V0201101N013019999999N999999999-00491-00731098251ADDMA1999999098171MD1810601+9999REMSYN04801002 46/// /1113 11049 21073 39817 49825 58060=
0089010020999992016031423004+80050+016250FM-12+000899999V0201001N012019999999N999999999-00431-00651098171ADDMA1999999098091MD1810461+9999REMSYN04801002 46/// /1012 11043 21065 39809 49817 58046=
0113010020999992016031500004+80050+016250FM-12+000899999V0200801N011019999999N999999999-00431-00631098112ADDMA1999999098032MD1810301+9999OD139901601999REMSYN05801002 46/// /0811 11043 21063 39803 49811 58030 333 91116=
0089010020999992016031501004+80050+016250FM-12+000899999V0200601N010019999999N999999999-00401-00651098112ADDMA1999999098032MD1810151+9999REMSYN04801002 46/// /0610 11040 21065 39803 49811 58015=
0089010020999992016031502004+80050+016250FM-12+000899999V0200601N010019999999N999999999-00401-00651098171ADDMA1999999098091MD1990001+9999REMSYN04801002 46/// /0610 11040 21065 39809 49817 50000=
0089010020999992016031503004+80050+016250FM-12+000899999V0200601N009019999999N999999999-00411-00591098271ADDMA1999999098181MD1110151+9999REMSYN04801002 46/// /0609 11041 21059 39818 49827 51015=
0089010020999992016031504004+80050+016250FM-12+000899999V0200601N009019999999N999999999-00371-00531098361ADDMA1999999098281MD1110261+9999REMSYN04801002 46/// /0609 11037 21053 39828 49836 51026=
0089010020999992016031505004+80050+016250FM-12+000899999V0200601N011019999999N999999999-00341-00451098491ADDMA1999999098411MD1110311+9999REMSYN04801002 46/// /0611 11034 21045 39841 49849 51031=
0132010020999992016031506004+80050+016250FM-12+000899999V0200501N016019999999N999999999-00411-00561098651ADDKA1240N-00731MA1999999098571MD1110381+9999OD139901701999REMSYN06401002 46/// /0516 11041 21056 39857 49865 51038 333 21073 91117=
0089010020999992016031507004+80050+016250FM-12+000899999V0200501N016019999999N999999999-00471-00631098851ADDMA1999999098771MD1110491+9999REMSYN04801002 46/// /0516 11047 21063 39877 49885 51049=
0089010020999992016031508004+80050+016250FM-12+000899999V0200401N018019999999N999999999-00601-00801099091ADDMA1999999099011MD1110611+9999REMSYN04801002 46/// /0418 11060 21080 39901 49909 51061=
0089010020999992016031509004+80050+016250FM-12+000899999V0200401N016019999999N999999999-00651-00921099341ADDMA1999999099261MD1110691+9999REMSYN04801002 46/// /0416 11065 21092 39926 49934 51069=
0089010020999992016031510004+80050+016250FM-12+000899999V0200401N013019999999N999999999-00701-00981099581ADDMA1999999099491MD1210721+9999REMSYN04801002 46/// /0413 11070 21098 39949 49958 52072=
0089010020999992016031511004+80050+016250FM-12+000899999V0200401N012019999999N999999999-00791-01031099791ADDMA1999999099711MD1310691+9999REMSYN04801002 46/// /0412 11079 21103 39971 49979 53069=
0113010020999992016031512004+80050+016250FM-12+000899999V0200401N012019999999N999999999-00881-01101099951ADDMA1999999099861MD1310601+9999OD139902201999REMSYN05801002 46/// /0412 11088 21110 39986 49995 53060 333 91122=
0089010020999992016031513004+80050+016250FM-12+000899999V0200401N011019999999N999999999-00951-01201100091ADDMA1999999100001MD1310511+9999REMSYN04801002 46/// /0411 11095 21120 30000 40009 53051=
0089010020999992016031514004+80050+016250FM-12+000899999V0200301N009019999999N999999999-00991-01241100171ADDMA1999999100091MD1310381+9999REMSYN04801002 46/// /0309 11099 21124 30009 40017 53038=
0089010020999992016031515004+80050+016250FM-12+000899999V0200301N010019999999N999999999-01051-01261100231ADDMA1999999100151MD1310291+9999REMSYN04801002 46/// /0310 11105 21126 30015 40023 53029=
0089010020999992016031516004+80050+016250FM-12+000899999V0200201N008019999999N999999999-01101-01351100351ADDMA1999999100271MD1110271+9999REMSYN04801002 46/// /0208 11110 21135 30027 40035 51027=
0089010020999992016031517004+80050+016250FM-12+000899999V0200201N007019999999N999999999-01101-01371100421ADDMA1999999100331MD1210241+9999REMSYN04801002 46/// /0207 11110 21137 30033 40042 52024=
0132010020999992016031518004+80050+016250FM-12+000899999V0203601N007019999999N999999999-01101-01351100461ADDKA1120M-00401MA1999999100381MD1310231+9999OD139901401999REMSYN06401002 46/// /3607 11110 21135 30038 40046 53023 333 11040 91114=
0089010020999992016031519004+80050+016250FM-12+000899999V0203501N008019999999N999999999-01121-01381100481ADDMA1999999100391MD1310131+9999REMSYN04801002 46/// /3508 11112 21138 30039 40048 53013=
0089010020999992016031520004+80050+016250FM-12+000899999V0203501N010019999999N999999999-01191-01441100521ADDMA1999999100431MD1210101+9999REMSYN04801002 46/// /3510 11119 21144 30043 40052 52010=
0089010020999992016031521004+80050+016250FM-12+000899999V0203401N008019999999N999999999-01211-01501100581ADDMA1999999100501MD1110121+9999REMSYN04801002 46/// /3408 11121 21150 30050 40058 51012=
0089010020999992016031522004+80050+016250FM-12+000899999V0203201N009019999999N999999999-01211-01511100621ADDMA1999999100541MD1210141+9999REMSYN04801002 46/// /3209 11121 21151 30054 40062 52014=
0089010020999992016031523004+80050+016250FM-12+000899999V0203001N012019999999N999999999-01281-01481100621ADDMA1999999100531MD1310101+9999REMSYN04801002 46/// /3012 11128 21148 30053 40062 53010=
0113010020999992016031600004+80050+016250FM-12+000899999V0203001N010019999999N999999999-01381-01561100701ADDMA1999999100621MD1110121+9999OD139901401999REMSYN05801002 46/// /3010 11138 21156 30062 40070 51012 333 91114=
0089010020999992016031601004+80050+016250FM-12+000899999V0203201N011019999999N999999999-01441-01651100761ADDMA1999999100681MD1110141+9999REMSYN04801002 46/// /3211 11144 21165 30068 40076 51014=
0089010020999992016031602004+80050+016250FM-12+000899999V0203201N010019999999N999999999-01431-01671100821ADDMA1999999100741MD1210201+9999REMSYN04801002 46/// /3210 11143 21167 30074 40082 52020=
0089010020999992016031603004+80050+016250FM-12+000899999V0203201N010019999999N999999999-01451-01681100851ADDMA1999999100761MD1310151+9999REMSYN04801002 46/// /3210 11145 21168 30076 40085 53015=
0089010020999992016031604004+80050+016250FM-12+000899999V0203201N011019999999N999999999-01481-01691100871ADDMA1999999100781MD1310101+9999REMSYN04801002 46/// /3211 11148 21169 30078 40087 53010=
0089010020999992016031605004+80050+016250FM-12+000899999V0203201N011019999999N999999999-01561-01841100891ADDMA1999999100811MD1210071+9999REMSYN04801002 46/// /3211 11156 21184 30081 40089 52007=
0151010020999992016031606004+80050+016250FM-12+000899999V0203301N012019999999N999999999-01521-01691100881ADDKA1240N-01581MA1999999100791MD1290039+9999OD139901501999REMSYN06401002 46/// /3312 11152 21169 30079 40088 54003 333 21158 91115=EQDQ01.3    3APC3  
0108010020999992016031607004+80050+016250FM-12+000899999V0203201N011019999999N999999999-01521-01751100891ADDMA1999999100801MD1290029+9999REMSYN04801002 46/// /3211 11152 21175 30080 40089 54002=EQDQ01.2    3APC3  
0089010020999992016031608004+80050+016250FM-12+000899999V0203301N012019999999N999999999-01581-01861100931ADDMA1999999100841MD1110031+9999REMSYN04801002 46/// /3312 11158 21186 30084 40093 51003=
0089010020999992016031609004+80050+016250FM-12+000899999V0203301N013019999999N999999999-01601-01911100931ADDMA1999999100841MD1210051+9999REMSYN04801002 46/// /3313 11160 21191 30084 40093 52005=
0089010020999992016031610004+80050+016250FM-12+000899999V0203401N014019999999N999999999-01601-01821100921ADDMA1999999100831MD1310031+9999REMSYN04801002 46/// /3414 11160 21182 30083 40092 53003=
0089010020999992016031611004+80050+016250FM-12+000899999V0203501N013019999999N999999999-01601-01811100961ADDMA1999999100871MD1990031+9999REMSYN04801002 46/// /3513 11160 21181 30087 40096 50003=
0113010020999992016031612004+80050+016250FM-12+000899999V0203401N012019999999N999999999-01631-01841100991ADDMA1999999100911MD1110071+9999OD139901801999REMSYN05801002 46/// /3412 11163 21184 30091 40099 51007 333 91118=
0089010020999992016031613004+80050+016250FM-12+000899999V0203301N011019999999N999999999-01651-01971101021ADDMA1999999100931MD1210101+9999REMSYN04801002 46/// /3311 11165 21197 30093 40102 52010=
0089010020999992016031614004+80050+016250FM-12+000899999V0203301N011019999999N999999999-01621-01941101021ADDMA1999999100931MD1310061+9999REMSYN04801002 46/// /3311 11162 21194 30093 40102 53006=
0089010020999992016031615004+80050+016250FM-12+000899999V0203201N012019999999N999999999-01611-01851101031ADDMA1999999100941MD1210031+9999REMSYN04801002 46/// /3212 11161 21185 30094 40103 52003=
0089010020999992016031616004+80050+016250FM-12+000899999V0203201N012019999999N999999999-01631-01911101071ADDMA1999999100981MD1110051+9999REMSYN04801002 46/// /3212 11163 21191 30098 40107 51005=
0089010020999992016031617004+80050+016250FM-12+000899999V0203201N013019999999N999999999-01621-01881101081ADDMA1999999101001MD1210071+9999REMSYN04801002 46/// /3213 11162 21188 30100 40108 52007=
0132010020999992016031618004+80050+016250FM-12+000899999V0203201N014019999999N999999999-01661-01861101111ADDKA1120M-01491MA1999999101021MD1210081+9999OD139901701999REMSYN06401002 46/// /3214 11166 21186 30102 40111 52008 333 11149 91117=
0089010020999992016031619004+80050+016250FM-12+000899999V0203301N014019999999N999999999-01751-01951101191ADDMA1999999101111MD1110131+9999REMSYN04801002 46/// /3314 11175 21195 30111 40119 51013=
0089010020999992016031620004+80050+016250FM-12+000899999V0203301N013019999999N999999999-01721-01901101271ADDMA1999999101181MD1110181+9999REMSYN04801002 46/// /3313 11172 21190 30118 40127 51018=
0089010020999992016031621004+80050+016250FM-12+000899999V0203301N013019999999N999999999-01771-02031101341ADDMA1999999101261MD1210241+9999REMSYN04801002 46/// /3313 11177 21203 30126 40134 52024=
0089010020999992016031622004+80050+016250FM-12+000899999V0203301N015019999999N999999999-01771-01971101381ADDMA1999999101301MD1310191+9999REMSYN04801002 46/// /3315 11177 21197 30130 40138 53019=
0089010020999992016031623004+80050+016250FM-12+000899999V0203301N014019999999N999999999-01751-01951101411ADDMA1999999101321MD1310141+9999REMSYN04801002 46/// /3314 11175 21195 30132 40141 53014=
0113010020999992016031700004+80050+016250FM-12+000899999V0203301N012019999999N999999999-01741-01991101491ADDMA1999999101411MD1110151+9999OD139901801999REMSYN05801002 46/// /3312 11174 21199 30141 40149 51015 333 91118=
0089010020999992016031701004+80050+016250FM-12+000899999V0203201N012019999999N999999999-01751-01991101531ADDMA1999999101441MD1210141+9999REMSYN04801002 46/// /3212 11175 21199 30144 40153 52014=
0089010020999992016031702004+80050+016250FM-12+000899999V0203201N013019999999N999999999-01751-02001101571ADDMA1999999101481MD1310161+9999REMSYN04801002 46/// /3213 11175 21200 30148 40157 53016=
0089010020999992016031703004+80050+016250FM-12+000899999V0203301N011019999999N999999999-01781-02051101621ADDMA1999999101531MD1210121+9999REMSYN04801002 46/// /3311 11178 21205 30153 40162 52012=
0089010020999992016031704004+80050+016250FM-12+000899999V0203301N011019999999N999999999-01761-01961101651ADDMA1999999101561MD1210121+9999REMSYN04801002 46/// /3311 11176 21196 30156 40165 52012=
0089010020999992016031705004+80050+016250FM-12+000899999V0203401N012019999999N999999999-01721-01971101671ADDMA1999999101581MD1210101+9999REMSYN04801002 46/// /3412 11172 21197 30158 40167 52010=
0132010020999992016031706004+80050+016250FM-12+000899999V0203301N010019999999N999999999-01711-01991101711ADDKA1240N-01801MA1999999101621MD1210091+9999OD139901601999REMSYN06401002 46/// /3310 11171 21199 30162 40171 52009 333 21180 91116=
0089010020999992016031707004+80050+016250FM-12+000899999V0203401N012019999999N999999999-01661-01861101721ADDMA1999999101631MD1210081+9999REMSYN04801002 46/// /3412 11166 21186 30163 40172 52008=
0089010020999992016031708004+80050+016250FM-12+000899999V0203401N012019999999N999999999-01661-01871101751ADDMA1999999101671MD1210081+9999REMSYN04801002 46/// /3412 11166 21187 30167 40175 52008=
0089010020999992016031709004+80050+016250FM-12+000899999V0203301N011019999999N999999999-01651-01861101791ADDMA1999999101701MD1210081+9999REMSYN04801002 46/// /3311 11165 21186 30170 40179 52008=
0089010020999992016031710004+80050+016250FM-12+000899999V0203401N011019999999N999999999-01631-01841101851ADDMA1999999101761MD1210131+9999REMSYN04801002 46/// /3411 11163 21184 30176 40185 52013=
0089010020999992016031711004+80050+016250FM-12+000899999V0203401N012019999999N999999999-01611-01821101881ADDMA1999999101791MD1210131+9999REMSYN04801002 46/// /3412 11161 21182 30179 40188 52013=
0113010020999992016031712004+80050+016250FM-12+000899999V0203401N011019999999N999999999-01631-01851101891ADDMA1999999101801MD1310101+9999OD139901501999REMSYN05801002 46/// /3411 11163 21185 30180 40189 53010 333 91115=
0089010020999992016031713004+80050+016250FM-12+000899999V0203301N013019999999N999999999-01631-01821101931ADDMA1999999101851MD1210081+9999REMSYN04801002 46/// /3313 11163 21182 30185 40193 52008=
0089010020999992016031714004+80050+016250FM-12+000899999V0203401N012019999999N999999999-01671-01951101971ADDMA1999999101881MD1210091+9999REMSYN04801002 46/// /3412 11167 21195 30188 40197 52009=
0089010020999992016031715004+80050+016250FM-12+000899999V0203301N013019999999N999999999-01611-01801101991ADDMA1999999101901MD1210101+9999REMSYN04801002 46/// /3313 11161 21180 30190 40199 52010=
0089010020999992016031716004+80050+016250FM-12+000899999V0203401N012019999999N999999999-01641-01831102031ADDMA1999999101941MD1210091+9999REMSYN04801002 46/// /3412 11164 21183 30194 40203 52009=
0089010020999992016031717004+80050+016250FM-12+000899999V0203401N012019999999N999999999-01651-01851102041ADDMA1999999101951MD1210071+9999REMSYN04801002 46/// /3412 11165 21185 30195 40204 52007=
0132010020999992016031718004+80050+016250FM-12+000899999V0203401N012019999999N999999999-01691-01931102051ADDKA1120M-01571MA1999999101961MD1210061+9999OD139901701999REMSYN06401002 46/// /3412 11169 21193 30196 40205 52006 333 11157 91117=
0108010020999992016031719004+80050+016250FM-12+000899999V0203301N012019999999N999999999-01661-01941102041ADDMA1999999101951MD1290019+9999REMSYN04801002 46/// /3312 11166 21194 30195 40204 54001=EQDQ01.1    3APC3  
0089010020999992016031720004+80050+016250FM-12+000899999V0203301N012019999999N999999999-01661-01871102031ADDMA1999999101951MD1410001+9999REMSYN04801002 46/// /3312 11166 21187 30195 40203 54000=
0108010020999992016031721004+80050+016250FM-12+000899999V0203201N011019999999N999999999-01651-01871102041ADDMA1999999101951MD1790019+9999REMSYN04801002 46/// /3211 11165 21187 30195 40204 54001=EQDQ01.1    3APC3  
0108010020999992016031722004+80050+016250FM-12+000899999V0203301N010019999999N999999999-01671-01921102041ADDMA1999999101951MD1410009+9999REMSYN04801002 46/// /3310 11167 21192 30195 40204 54001=EQDQ01.1    3APC3  
0069010020999992016032213004+80050+016250FM-12+000899999V0203001N004019999999N999999999-01611-01921100781ADDMA1999999100701REMSYN04201002 46/// /3004 11161 21192 30070 40078=
0069010020999992016032214004+80050+016250FM-12+000899999V0203001N003019999999N999999999-01591-01881100821ADDMA1999999100731REMSYN04201002 46/// /3003 11159 21188 30073 40082=
0069010020999992016032215004+80050+016250FM-12+000899999V0203401N003019999999N999999999-01571-01851100831ADDMA1999999100741REMSYN04201002 46/// /3403 11157 21185 30074 40083=
0089010020999992016032216004+80050+016250FM-12+000899999V0203101N004019999999N999999999-01561-01841100851ADDMA1999999100761MD1210061+9999REMSYN04801002 46/// /3104 11156 21184 30076 40085 52006=
0069010020999992016032308004+80050+016250FM-12+000899999V0203301N004019999999N999999999-01091-01341101111ADDMA1999999101031REMSYN04201002 46/// /3304 11109 21134 30103 40111=
0069010020999992016032309004+80050+016250FM-12+000899999V0203101N004019999999N999999999-01051-01261101111ADDMA1999999101021REMSYN04201002 46/// /3104 11105 21126 30102 40111=
0069010020999992016032310004+80050+016250FM-12+000899999V0203101N006019999999N999999999-00991-01151101101ADDMA1999999101021REMSYN04201002 46/// /3106 11099 21115 30102 40110=
0089010020999992016032311004+80050+016250FM-12+000899999V0203201N005019999999N999999999-01011-01261101131ADDMA1999999101041MD1990021+9999REMSYN04801002 46/// /3205 11101 21126 30104 40113 50002=
0108010020999992016032313004+80050+016250FM-12+000899999V0203301N006019999999N999999999-01031-01201101131ADDMA1999999101041MD1290039+9999REMSYN04801002 46/// /3306 11103 21120 30104 40113 54003=EQDQ01.3    3APC3  
0089010020999992016032314004+80050+016250FM-12+000899999V0203201N007019999999N999999999-01071-01251101131ADDMA1999999101041MD1410001+9999REMSYN04801002 46/// /3207 11107 21125 30104 40113 54000=
0094010020999992016032315004+80050+016250FM-12+000899999V0203201N007019999999N999999999-01101-01271101111ADDMA1999999101031REMSYN04801002 46/// /3207 11110 21127 30103 40111 54001=EQDQ014     3APCTEN
0108010020999992016032316004+80050+016250FM-12+000899999V0203101N007019999999N999999999-01151-01331101101ADDMA1999999101021MD1790039+9999REMSYN04801002 46/// /3107 11115 21133 30102 40110 54003=EQDQ01.3    3APC3  
0089010020999992016032317004+80050+016250FM-12+000899999V0203201N007019999999N999999999-01221-01401101091ADDMA1999999101011MD1710041+9999REMSYN04801002 46/// /3207 11122 21140 30101 40109 57004=
0132010020999992016032318004+80050+016250FM-12+000899999V0203301N006019999999N999999999-01281-01451101091ADDMA1999999101001MD1790029+9999OD139900901999REMSYN05801002 46/// /3306 11128 21145 30100 40109 54003 333 91109=EQDQ01.3    3APC3  
0069010020999992016032409004+80050+016250FM-12+000899999V0203401N001019999999N999999999-01161-01421100851ADDMA1999999100771REMSYN04201002 46/// /3401 11116 21142 30077 40085=
0069010020999992016032411004+80050+016250FM-12+000899999V0202101N003019999999N999999999-01221-01451100841ADDMA1999999100751REMSYN04201002 46/// /2103 11122 21145 30075 40084=
0069010020999992016032412004+80050+016250FM-12+000899999V0202101N003019999999N999999999-01221-01511100811ADDMA1999999100731REMSYN04201002 46/// /2103 11122 21151 30073 40081=
0069010020999992016032413004+80050+016250FM-12+000899999V0202001N004019999999N999999999-01211-01471100801ADDMA1999999100711REMSYN04201002 46/// /2004 11121 21147 30071 40080=
0089010020999992016032414004+80050+016250FM-12+000899999V0202001N003019999999N999999999-01281-01611100781ADDMA1999999100691MD1710061+9999REMSYN04801002 46/// /2003 11128 21161 30069 40078 57006=
0108010020999992016032415004+80050+016250FM-12+000899999V0202001N004019999999N999999999-01241-01481100781ADDMA1999999100701MD1790039+9999REMSYN04801002 46/// /2004 11124 21148 30070 40078 54003=EQDQ01.3    3APC3  
0108010020999992016032416004+80050+016250FM-12+000899999V0202001N005019999999N999999999-01321-01481100771ADDMA1999999100681MD1790039+9999REMSYN04801002 46/// /2005 11132 21148 30068 40077 54003=EQDQ01.3    3APC3  
0108010020999992016032417004+80050+016250FM-12+000899999V0201801N004019999999N999999999-01211-01401100761ADDMA1999999100671MD1790029+9999REMSYN04801002 46/// /1804 11121 21140 30067 40076 54002=EQDQ01.2    3APC3  
0113010020999992016032418004+80050+016250FM-12+000899999V0201901N005019999999N999999999-01281-01471100751ADDMA1999999100661MD1710041+9999OD139900501999REMSYN05801002 46/// /1905 11128 21147 30066 40075 57004 333 91105=
0108010020999992016032419004+80050+016250FM-12+000899999V0201701N003019999999N999999999-01191-01371100751ADDMA1999999100661MD1790029+9999REMSYN04801002 46/// /1703 11119 21137 30066 40075 54002=EQDQ01.2    3APC3  
0108010020999992016032420004+80050+016250FM-12+000899999V0202001N003019999999N999999999-01221-01531100751ADDMA1999999100661MD1790019+9999REMSYN04801002 46/// /2003 11122 21153 30066 40075 54001=EQDQ01.1    3APC3  
0089010020999992016032421004+80050+016250FM-12+000899999V0201901N004019999999N999999999-01241-01571100741ADDMA1999999100661MD1410001+9999REMSYN04801002 46/// /1904 11124 21157 30066 40074 54000=
0108010020999992016032422004+80050+016250FM-12+000899999V0201601N004019999999N999999999-01311-01591100741ADDMA1999999100661MD1790019+9999REMSYN04801002 46/// /1604 11131 21159 30066 40074 54001=EQDQ01.1    3APC3  
0108010020999992016032423004+80050+016250FM-12+000899999V0201701N003019999999N999999999-01191-01531100731ADDMA1999999100651MD1790029+9999REMSYN04801002 46/// /1703 11119 21153 30065 40073 54001=EQDQ01.1    3APC3  
0132010020999992016032500004+80050+016250FM-12+000899999V0201801N002019999999N999999999-01181-01541100731ADDMA1999999100651MD1790019+9999OD139900501999REMSYN05801002 46/// /1802 11118 21154 30065 40073 54001 333 91105=EQDQ01.1    3APC3  
0108010020999992016032501004+80050+016250FM-12+000899999V0201801N003019999999N999999999-01101-01361100731ADDMA1999999100651MD1790019+9999REMSYN04801002 46/// /1803 11110 21136 30065 40073 54001=EQDQ01.1    3APC3  
0089010020999992016032503004+80050+016250FM-12+000899999V0201601N004019999999N999999999-01201-01431100731ADDMA1999999100651MD1410001+9999REMSYN04801002 46/// /1604 11120 21143 30065 40073 54000=
0108010020999992016032504004+80050+016250FM-12+000899999V0201701N004019999999N999999999-01241-01501100721ADDMA1999999100641MD1790019+9999REMSYN04801002 46/// /1704 11124 21150 30064 40072 54001=EQDQ01.1    3APC3  
0094010020999992016032505004+80050+016250FM-12+000899999V0201601N004019999999N999999999-01211-01501100701ADDMA1999999100611REMSYN04801002 46/// /1604 11121 21150 30061 40070 54003=EQDQ014     3APCTEN
0089010020999992016032506004+80050+016250FM-12+000899999V0201601N004019999999N999999999-01111-01341100691ADDMA1999999100611MD1710041+9999REMSYN04801002 46/// /1604 11111 21134 30061 40069 57004=
0089010020999992016032507004+80050+016250FM-12+000899999V0201601N003019999999N999999999-01151-01451100681ADDMA1999999100601MD1710041+9999REMSYN04801002 46/// /1603 11115 21145 30060 40068 57004=
0108010020999992016032508004+80050+016250FM-12+000899999V0201701N002019999999N999999999-01101-01321100671ADDMA1999999100591MD1790039+9999REMSYN04801002 46/// /1702 11110 21132 30059 40067 54003=EQDQ01.3    3APC3  
0090010020999992016032509004+80059+016250FM-12+000899999V0201691N0023199999999999999999-01071-01301100681ADDKA1010M-01071KA2010N-01111MA1999999100591MD1790019+9999REMSYN004BUFREQDQ01.2    3APC3  
0108010020999992016032510004+80050+016250FM-12+000899999V0201601N002019999999N999999999-01051-01311100671ADDMA1999999100581MD1790019+9999REMSYN04801002 46/// /1602 11105 21131 30058 40067 54001=EQDQ01.1    3APC3  
0089010020999992016032511004+80050+016250FM-12+000899999V0209999C999999999999N999999999-00921-01261100671ADDMA1999999100591MD1410001+9999REMSYN04801002 46/// /0000 11092 21126 30059 40067 54000=
0132010020999992016032512004+80050+016250FM-12+000899999V0201501N002019999999N999999999-01011-01321100671ADDMA1999999100581MD1790019+9999OD139900401999REMSYN05801002 46/// /1502 11101 21132 30058 40067 54001 333 91104=EQDQ01.1    3APC3  
0108010020999992016032513004+80050+016250FM-12+000899999V0201701N002019999999N999999999-01031-01321100661ADDMA1999999100571MD1790019+9999REMSYN04801002 46/// /1702 11103 21132 30057 40066 54001=EQDQ01.1    3APC3  
0108010020999992016032514004+80050+016250FM-12+000899999V0201901N002019999999N999999999-01061-01321100661ADDMA1999999100581MD1790019+9999REMSYN04801002 46/// /1902 11106 21132 30058 40066 54001=EQDQ01.1    3APC3  
0089010020999992016032515004+80050+016250FM-12+000899999V0202101N003019999999N999999999-01091-01381100631ADDMA1999999100551MD1710031+9999REMSYN04801002 46/// /2103 11109 21138 30055 40063 57003=
0089010020999992016032516004+80050+016250FM-12+000899999V0202101N005019999999N999999999-01221-01441100601ADDMA1999999100521MD1610061+9999REMSYN04801002 46/// /2105 11122 21144 30052 40060 56006=
0089010020999992016032517004+80050+016250FM-12+000899999V0201701N003019999999N999999999-01061-01191100591ADDMA1999999100501MD1710071+9999REMSYN04801002 46/// /1703 11106 21119 30050 40059 57007=
0132010020999992016032518004+80050+016250FM-12+000899999V0200401N007019999999N999999999-00771-01071100571ADDKA1120M-00741MA1999999100491MD1710061+9999OD139901001999REMSYN06401002 46/// /0407 11077 21107 30049 40057 57006 333 11074 91110=
0108010020999992016032519004+80050+016250FM-12+000899999V0200301N006019999999N999999999-00771-01111100571ADDMA1999999100491MD1790039+9999REMSYN04801002 46/// /0306 11077 21111 30049 40057 54002=EQDQ01.2    3APC3  
0108010020999992016032520004+80050+016250FM-12+000899999V0200201N006019999999N999999999-00791-01121100581ADDMA1999999100501MD1790019+9999REMSYN04801002 46/// /0206 11079 21112 30050 40058 54001=EQDQ01.1    3APC3  
0108010020999992016032521004+80050+016250FM-12+000899999V0203601N007019999999N999999999-00821-01141100591ADDMA1999999100511MD1290029+9999REMSYN04801002 46/// /3607 11082 21114 30051 40059 54002=EQDQ01.2    3APC3  
0089010020999992016032522004+80050+016250FM-12+000899999V0200101N006019999999N999999999-00861-01131100621ADDMA1999999100541MD1210041+9999REMSYN04801002 46/// /0106 11086 21113 30054 40062 52004=
0089010020999992016032523004+80050+016250FM-12+000899999V0203601N006019999999N999999999-00901-01141100651ADDMA1999999100561MD1210071+9999REMSYN04801002 46/// /3606 11090 21114 30056 40065 52007=
0113010020999992016032600004+80050+016250FM-12+000899999V0203601N004019999999N999999999-00951-01191100671ADDMA1999999100581MD1210081+9999OD139900901999REMSYN05801002 46/// /3604 11095 21119 30058 40067 52008 333 91109=
0089010020999992016032601004+80050+016250FM-12+000899999V0203601N005019999999N999999999-00991-01201100681ADDMA1999999100601MD1210061+9999REMSYN04801002 46/// /3605 11099 21120 30060 40068 52006=
0089010020999992016032602004+80050+016250FM-12+000899999V0203601N004019999999N999999999-01021-01241100691ADDMA1999999100611MD1210041+9999REMSYN04801002 46/// /3604 11102 21124 30061 40069 52004=
0108010020999992016032603004+80050+016250FM-12+000899999V0200201N003019999999N999999999-01041-01331100691ADDMA1999999100601MD1290029+9999REMSYN04801002 46/// /0203 11104 21133 30060 40069 54002=EQDQ01.2    3APC3  
0089010020999992016032604004+80050+016250FM-12+000899999V0200101N003019999999N999999999-01021-01301100681ADDMA1999999100601MD1410001+9999REMSYN04801002 46/// /0103 11102 21130 30060 40068 54000=
0089010020999992016032605004+80050+016250FM-12+000899999V0203601N003019999999N999999999-01021-01331100691ADDMA1999999100601MD1410001+9999REMSYN04801002 46/// /3603 11102 21133 30060 40069 54000=
0151010020999992016032606004+80050+016250FM-12+000899999V0200301N003019999999N999999999-00981-01291100681ADDKA1240N-01041MA1999999100601MD1790019+9999OD139900701999REMSYN06401002 46/// /0303 11098 21129 30060 40068 54001 333 21104 91107=EQDQ01.1    3APC3  
0108010020999992016032607004+80050+016250FM-12+000899999V0203601N004019999999N999999999-00991-01301100661ADDMA1999999100581MD1790029+9999REMSYN04801002 46/// /3604 11099 21130 30058 40066 54002=EQDQ01.2    3APC3  
0108010020999992016032608004+80050+016250FM-12+000899999V0200101N004019999999N999999999-00951-01171100661ADDMA1999999100571MD1790039+9999REMSYN04801002 46/// /0104 11095 21117 30057 40066 54003=EQDQ01.3    3APC3  
0108010020999992016032609004+80050+016250FM-12+000899999V0200201N006019999999N999999999-00951-01261100661ADDMA1999999100571MD1790029+9999REMSYN04801002 46/// /0206 11095 21126 30057 40066 54002=EQDQ01.2    3APC3  
0089010020999992016032610004+80050+016250FM-12+000899999V0200401N006019999999N999999999-00941-01181100661ADDMA1999999100571MD1410001+9999REMSYN04801002 46/// /0406 11094 21118 30057 40066 54000=
0089010020999992016032611004+80050+016250FM-12+000899999V0200301N007019999999N999999999-00941-01191100661ADDMA1999999100571MD1410001+9999REMSYN04801002 46/// /0307 11094 21119 30057 40066 54000=
0113010020999992016032612004+80050+016250FM-12+000899999V0200401N006019999999N999999999-00931-01241100621ADDMA1999999100531MD1610041+9999OD139900801999REMSYN05801002 46/// /0406 11093 21124 30053 40062 56004 333 91108=
0089010020999992016032613004+80050+016250FM-12+000899999V0200601N008019999999N999999999-00931-01141100591ADDMA1999999100501MD1710071+9999REMSYN04801002 46/// /0608 11093 21114 30050 40059 57007=
0089010020999992016032614004+80050+016250FM-12+000899999V0200601N007019999999N999999999-00901-01161100571ADDMA1999999100481MD1710091+9999REMSYN04801002 46/// /0607 11090 21116 30048 40057 57009=
0089010020999992016032615004+80050+016250FM-12+000899999V0200701N008019999999N999999999-00901-01181100531ADDMA1999999100441MD1710091+9999REMSYN04801002 46/// /0708 11090 21118 30044 40053 57009=
0089010020999992016032616004+80050+016250FM-12+000899999V0200501N009019999999N999999999-00901-01121100491ADDMA1999999100401MD1710101+9999REMSYN04801002 46/// /0509 11090 21112 30040 40049 57010=
0089010020999992016032617004+80050+016250FM-12+000899999V0200401N010019999999N999999999-00911-01121100421ADDMA1999999100331MD1610151+9999REMSYN04801002 46/// /0410 11091 21112 30033 40042 56015=
0132010020999992016032618004+80050+016250FM-12+000899999V0200401N010019999999N999999999-00901-01061100371ADDKA1120M-00871MA1999999100291MD1710151+9999OD139901201999REMSYN06401002 46/// /0410 11090 21106 30029 40037 57015 333 11087 91112=
0089010020999992016032619004+80050+016250FM-12+000899999V0200401N009019999999N999999999-00851-00991100331ADDMA1999999100241MD1710161+9999REMSYN04801002 46/// /0409 11085 21099 30024 40033 57016=
0089010020999992016032620004+80050+016250FM-12+000899999V0200401N010019999999N999999999-00831-01011100281ADDMA1999999100191MD1710141+9999REMSYN04801002 46/// /0410 11083 21101 30019 40028 57014=
0089010020999992016032621004+80050+016250FM-12+000899999V0200401N009019999999N999999999-00801-00981100241ADDMA1999999100161MD1710131+9999REMSYN04801002 46/// /0409 11080 21098 30016 40024 57013=
0089010020999992016032622004+80050+016250FM-12+000899999V0200401N010019999999N999999999-00761-00951100181ADDMA1999999100101MD1710151+9999REMSYN04801002 46/// /0410 11076 21095 30010 40018 57015=
0089010020999992016032623004+80050+016250FM-12+000899999V0200301N011019999999N999999999-00771-00951100131ADDMA1999999100051MD1710141+9999REMSYN04801002 46/// /0311 11077 21095 30005 40013 57014=
0113010020999992016032700004+80050+016250FM-12+000899999V0200401N009019999999N999999999-00751-00941100091ADDMA1999999100011MD1710151+9999OD139901301999REMSYN05801002 46/// /0409 11075 21094 30001 40009 57015 333 91113=
0089010020999992016032701004+80050+016250FM-12+000899999V0200401N009019999999N999999999-00721-00881100041ADDMA1999999099961MD1710141+9999REMSYN04801002 46/// /0409 11072 21088 39996 40004 57014=
0089010020999992016032702004+80050+016250FM-12+000899999V0200401N009019999999N999999999-00741-00911100001ADDMA1999999099911MD1710141+9999REMSYN04801002 46/// /0409 11074 21091 39991 40000 57014=
0089010020999992016032703004+80050+016250FM-12+000899999V0200301N010019999999N999999999-00711-00881099951ADDMA1999999099871MD1710151+9999REMSYN04801002 46/// /0310 11071 21088 39987 49995 57015=
0089010020999992016032704004+80050+016250FM-12+000899999V0200401N009019999999N999999999-00671-00791099891ADDMA1999999099801MD1710151+9999REMSYN04801002 46/// /0409 11067 21079 39980 49989 57015=
0089010020999992016032705004+80050+016250FM-12+000899999V0200701N006019999999N999999999-00601-00791099831ADDMA1999999099751MD1710161+9999REMSYN04801002 46/// /0706 11060 21079 39975 49983 57016=
0132010020999992016032706004+80050+016250FM-12+000899999V0200801N005019999999N999999999-00571-00761099791ADDKA1240N-00921MA1999999099711MD1710161+9999OD139901201999REMSYN06401002 46/// /0805 11057 21076 39971 49979 57016 333 21092 91112=
0089010020999992016032707004+80050+016250FM-12+000899999V0201201N004019999999N999999999-00591-00881099761ADDMA1999999099681MD1710131+9999REMSYN04801002 46/// /1204 11059 21088 39968 49976 57013=
0089010020999992016032708004+80050+016250FM-12+000899999V0201301N003019999999N999999999-00621-00811099721ADDMA1999999099631MD1710121+9999REMSYN04801002 46/// /1303 11062 21081 39963 49972 57012=
0089010020999992016032709004+80050+016250FM-12+000899999V0201101N006019999999N999999999-00511-00701099651ADDMA1999999099571MD1710141+9999REMSYN04801002 46/// /1106 11051 21070 39957 49965 57014=
0089010020999992016032710004+80050+016250FM-12+000899999V0201301N008019999999N999999999-00531-00731099591ADDMA1999999099511MD1710171+9999REMSYN04801002 46/// /1308 11053 21073 39951 49959 57017=
0089010020999992016032711004+80050+016250FM-12+000899999V0201201N010019999999N999999999-00481-00711099511ADDMA1999999099431MD1710211+9999REMSYN04801002 46/// /1210 11048 21071 39943 49951 57021=
0113010020999992016032712004+80050+016250FM-12+000899999V0201201N009019999999N999999999-00501-00741099491ADDMA1999999099411MD1810171+9999OD139901401999REMSYN05801002 46/// /1209 11050 21074 39941 49949 58017 333 91114=
0089010020999992016032713004+80050+016250FM-12+000899999V0201201N011019999999N999999999-00451-00641099381ADDMA1999999099301MD1710211+9999REMSYN04801002 46/// /1211 11045 21064 39930 49938 57021=
0089010020999992016032714004+80050+016250FM-12+000899999V0201101N012019999999N999999999-00431-00571099281ADDMA1999999099201MD1610231+9999REMSYN04801002 46/// /1112 11043 21057 39920 49928 56023=
0089010020999992016032715004+80050+016250FM-12+000899999V0201101N010019999999N999999999-00421-00541099191ADDMA1999999099111MD1710301+9999REMSYN04801002 46/// /1110 11042 21054 39911 49919 57030=
0089010020999992016032716004+80050+016250FM-12+000899999V0201001N014019999999N999999999-00321-00551099051ADDMA1999999098971MD1610331+9999REMSYN04801002 46/// /1014 11032 21055 39897 49905 56033=
0089010020999992016032717004+80050+016250FM-12+000899999V0200801N014019999999N999999999-00401-00501098901ADDMA1999999098821MD1610381+9999REMSYN04801002 46/// /0814 11040 21050 39882 49890 56038=
0132010020999992016032718004+80050+016250FM-12+000899999V0200701N016019999999N999999999-00391-00501098751ADDKA1120M-00301MA1999999098671MD1710431+9999OD139901901999REMSYN06401002 46/// /0716 11039 21050 39867 49875 57043 333 11030 91119=
0089010020999992016032719004+80050+016250FM-12+000899999V0200901N014019999999N999999999-00271-00361098601ADDMA1999999098521MD1710441+9999REMSYN04801002 46/// /0914 11027 21036 39852 49860 57044=
0089010020999992016032720004+80050+016250FM-12+000899999V0201101N014019999999N999999999-00211-00281098511ADDMA1999999098431MD1810401+9999REMSYN04801002 46/// /1114 11021 21028 39843 49851 58040=
0089010020999992016032721004+80050+016250FM-12+000899999V0201201N014019999999N999999999-00201-00261098401ADDMA1999999098321MD1810351+9999REMSYN04801002 46/// /1214 11020 21026 39832 49840 58035=
0089010020999992016032722004+80050+016250FM-12+000899999V0201201N013019999999N999999999-00201-00251098301ADDMA1999999098221MD1710301+9999REMSYN04801002 46/// /1213 11020 21025 39822 49830 57030=
0089010020999992016032723004+80050+016250FM-12+000899999V0201101N017019999999N999999999-00201-00251098161ADDMA1999999098081MD1710341+9999REMSYN04801002 46/// /1117 11020 21025 39808 49816 57034=
0113010020999992016032800004+80050+016250FM-12+000899999V0201201N016019999999N999999999-00201-00251098101ADDMA1999999098021MD1810301+9999OD139901901999REMSYN05801002 46/// /1216 11020 21025 39802 49810 58030 333 91119=
0089010020999992016032801004+80050+016250FM-12+000899999V0201301N017019999999N999999999-00211-00261098011ADDMA1999999097931MD1810291+9999REMSYN04801002 46/// /1317 11021 21026 39793 49801 58029=
0089010020999992016032802004+80050+016250FM-12+000899999V0201201N015019999999N999999999-00201-00301097991ADDMA1999999097911MD1810181+9999REMSYN04801002 46/// /1215 11020 21030 39791 49799 58018=
0089010020999992016032803004+80050+016250FM-12+000899999V0201101N012019999999N999999999-00161-00271097961ADDMA1999999097881MD1810151+9999REMSYN04801002 46/// /1112 11016 21027 39788 49796 58015=
0089010020999992016032804004+80050+016250FM-12+000899999V0201001N010019999999N999999999-00141-00311097911ADDMA1999999097831MD1710101+9999REMSYN04801002 46/// /1010 11014 21031 39783 49791 57010=
0089010020999992016032805004+80050+016250FM-12+000899999V0201201N008019999999N999999999-00161-00291097841ADDMA1999999097761MD1610141+9999REMSYN04801002 46/// /1208 11016 21029 39776 49784 56014=
0069010020999992016032809004+80050+016250FM-12+000899999V0201201N011019999999N999999999-00181-00281097611ADDMA1999999097531REMSYN04201002 46/// /1211 11018 21028 39753 49761=
0069010020999992016032810004+80050+016250FM-12+000899999V0201201N013019999999N999999999-00151-00261097561ADDMA1999999097481REMSYN04201002 46/// /1213 11015 21026 39748 49756=
0069010020999992016032813004+80050+016250FM-12+000899999V0201101N011019999999N999999999-00121-00181097591ADDMA1999999097511REMSYN04201002 46/// /1111 11012 21018 39751 49759=
0069010020999992016032814004+80050+016250FM-12+000899999V0201201N012019999999N999999999-00101-00241097571ADDMA1999999097491REMSYN04201002 46/// /1212 11010 21024 39749 49757=
0089010020999992016032815004+80050+016250FM-12+000899999V0201001N007019999999N999999999-00061-00211097591ADDMA1999999097511MD1310231+9999REMSYN04801002 46/// /1007 11006 21021 39751 49759 53023=
0089010020999992016032816004+80050+016250FM-12+000899999V0200801N006019999999N999999999-00021-00231097551ADDMA1999999097471MD1710041+9999REMSYN04801002 46/// /0806 11002 21023 39747 49755 57004=
0089010020999992016032817004+80050+016250FM-12+000899999V0200701N008019999999N999999999+00011-00211097521ADDMA1999999097441MD1610041+9999REMSYN04801002 46/// /0708 10001 21021 39744 49752 56004=
0113010020999992016032818004+80050+016250FM-12+000899999V0200701N008019999999N999999999-00041-00181097521ADDMA1999999097441MD1810071+9999OD139901601999REMSYN05801002 46/// /0708 11004 21018 39744 49752 58007 333 91116=
0069010020999992016033009004+80050+016250FM-12+000899999V0200901N006019999999N999999999-00361-00611099421ADDMA1999999099331REMSYN04201002 46/// /0906 11036 21061 39933 49942=
0069010020999992016033011004+80050+016250FM-12+000899999V0200901N005019999999N999999999-00331-00641099471ADDMA1999999099391REMSYN04201002 46/// /0905 11033 21064 39939 49947=
0069010020999992016033012004+80050+016250FM-12+000899999V0200901N005019999999N999999999-00331-00651099501ADDMA1999999099421REMSYN04201002 46/// /0905 11033 21065 39942 49950=
0089010020999992016033013004+80050+016250FM-12+000899999V0201201N003019999999N999999999-00441-00701099531ADDMA1999999099451MD1312171+9999REMSYN04801002 46/// /1203 11044 21070 39945 49953 53217=
0089010020999992016033014004+80050+016250FM-12+000899999V0200901N006019999999N999999999-00321-00671099551ADDMA1999999099471MD1210081+9999REMSYN04801002 46/// /0906 11032 21067 39947 49955 52008=
0089010020999992016033015004+80050+016250FM-12+000899999V0200901N005019999999N999999999-00311-00711099561ADDMA1999999099481MD1210061+9999REMSYN04801002 46/// /0905 11031 21071 39948 49956 52006=
0089010020999992016033016004+80050+016250FM-12+000899999V0200801N005019999999N999999999-00311-00731099581ADDMA1999999099501MD1210051+9999REMSYN04801002 46/// /0805 11031 21073 39950 49958 52005=
0089010020999992016033017004+80050+016250FM-12+000899999V0200601N007019999999N999999999-00301-00611099591ADDMA1999999099511MD1210041+9999REMSYN04801002 46/// /0607 11030 21061 39951 49959 52004=
0113010020999992016033018004+80050+016250FM-12+000899999V0200601N009019999999N999999999-00311-00541099601ADDMA1999999099521MD1210041+9999OD139901001999REMSYN05801002 46/// /0609 11031 21054 39952 49960 52004 333 91110=
0089010020999992016033019004+80050+016250FM-12+000899999V0200701N009019999999N999999999-00331-00551099641ADDMA1999999099561MD1210061+9999REMSYN04801002 46/// /0709 11033 21055 39956 49964 52006=
0089010020999992016033020004+80050+016250FM-12+000899999V0200701N008019999999N999999999-00341-00631099681ADDMA1999999099591MD1210091+9999REMSYN04801002 46/// /0708 11034 21063 39959 49968 52009=
0089010020999992016033021004+80050+016250FM-12+000899999V0200601N007019999999N999999999-00391-00551099691ADDMA1999999099611MD1210091+9999REMSYN04801002 46/// /0607 11039 21055 39961 49969 52009=
0089010020999992016033022004+80050+016250FM-12+000899999V0200501N008019999999N999999999-00401-00621099701ADDMA1999999099621MD1210061+9999REMSYN04801002 46/// /0508 11040 21062 39962 49970 52006=
0089010020999992016033023004+80050+016250FM-12+000899999V0200701N008019999999N999999999-00381-00731099711ADDMA1999999099631MD1210031+9999REMSYN04801002 46/// /0708 11038 21073 39963 49971 52003=
0132010020999992016033100004+80050+016250FM-12+000899999V0200601N009019999999N999999999-00451-00561099721ADDMA1999999099641MD1290039+9999OD139901101999REMSYN05801002 46/// /0609 11045 21056 39964 49972 54003 333 91111=EQDQ01.3    3APC3  
0089010020999992016033101004+80050+016250FM-12+000899999V0200401N013019999999N999999999-00451-00611099751ADDMA1999999099671MD1210051+9999REMSYN04801002 46/// /0413 11045 21061 39967 49975 52005=
0089010020999992016033102004+80050+016250FM-12+000899999V0200401N011019999999N999999999-00451-00711099791ADDMA1999999099711MD1110081+9999REMSYN04801002 46/// /0411 11045 21071 39971 49979 51008=
0089010020999992016033103004+80050+016250FM-12+000899999V0200401N012019999999N999999999-00481-00661099821ADDMA1999999099731MD1210101+9999REMSYN04801002 46/// /0412 11048 21066 39973 49982 52010=
0089010020999992016033104004+80050+016250FM-12+000899999V0200401N010019999999N999999999-00531-00771099881ADDMA1999999099801MD1210131+9999REMSYN04801002 46/// /0410 11053 21077 39980 49988 52013=
0089010020999992016033105004+80050+016250FM-12+000899999V0200401N009019999999N999999999-00511-00741099901ADDMA1999999099821MD1210111+9999REMSYN04801002 46/// /0409 11051 21074 39982 49990 52011=
0132010020999992016033106004+80050+016250FM-12+000899999V0200301N009019999999N999999999-00541-00811099941ADDKA1240N-00551MA1999999099861MD1210121+9999OD139901501999REMSYN06401002 46/// /0309 11054 21081 39986 49994 52012 333 21055 91115=
0089010020999992016033107004+80050+016250FM-12+000899999V0200401N008019999999N999999999-00571-00841099991ADDMA1999999099911MD1210111+9999REMSYN04801002 46/// /0408 11057 21084 39991 49999 52011=
0089010020999992016033108004+80050+016250FM-12+000899999V0200301N009019999999N999999999-00581-00771100021ADDMA1999999099941MD1210111+9999REMSYN04801002 46/// /0309 11058 21077 39994 40002 52011=
0089010020999992016033109004+80050+016250FM-12+000899999V0200301N008019999999N999999999-00621-00921100071ADDMA1999999099981MD1210131+9999REMSYN04801002 46/// /0308 11062 21092 39998 40007 52013=
0089010020999992016033110004+80050+016250FM-12+000899999V0200201N008019999999N999999999-00661-00901100111ADDMA1999999100031MD1210121+9999REMSYN04801002 46/// /0208 11066 21090 30003 40011 52012=
0089010020999992016033111004+80050+016250FM-12+000899999V0200401N007019999999N999999999-00701-01061100171ADDMA1999999100091MD1210151+9999REMSYN04801002 46/// /0407 11070 21106 30009 40017 52015=
0113010020999992016033112004+80050+016250FM-12+000899999V0200301N007019999999N999999999-00711-01011100221ADDMA1999999100131MD1210151+9999OD139901201999REMSYN05801002 46/// /0307 11071 21101 30013 40022 52015 333 91112=
0089010020999992016033113004+80050+016250FM-12+000899999V0200501N007019999999N999999999-00751-00991100261ADDMA1999999100171MD1210151+9999REMSYN04801002 46/// /0507 11075 21099 30017 40026 52015=
0089010020999992016033114004+80050+016250FM-12+000899999V0200301N007019999999N999999999-00771-01111100301ADDMA1999999100221MD1210131+9999REMSYN04801002 46/// /0307 11077 21111 30022 40030 52013=
0089010020999992016033115004+80050+016250FM-12+000899999V0200301N006019999999N999999999-00771-01041100351ADDMA1999999100271MD1210131+9999REMSYN04801002 46/// /0306 11077 21104 30027 40035 52013=
0089010020999992016033116004+80050+016250FM-12+000899999V0200401N007019999999N999999999-00811-01121100401ADDMA1999999100311MD1210141+9999REMSYN04801002 46/// /0407 11081 21112 30031 40040 52014=
0089010020999992016033117004+80050+016250FM-12+000899999V0200501N006019999999N999999999-00831-01121100441ADDMA1999999100351MD1210131+9999REMSYN04801002 46/// /0506 11083 21112 30035 40044 52013=
0132010020999992016033118004+80050+016250FM-12+000899999V0200401N005019999999N999999999-00791-01021100471ADDKA1120M-00541MA1999999100391MD1210121+9999OD139901101999REMSYN06401002 46/// /0405 11079 21102 30039 40047 52012 333 11054 91111=
0089010020999992016033119004+80050+016250FM-12+000899999V0200201N006019999999N999999999-00821-01131100501ADDMA1999999100421MD1210101+9999REMSYN04801002 46/// /0206 11082 21113 30042 40050 52010=
0089010020999992016033120004+80050+016250FM-12+000899999V0200101N005019999999N999999999-00841-01151100531ADDMA1999999100451MD1210101+9999REMSYN04801002 46/// /0105 11084 21115 30045 40053 52010=
0089010020999992016033121004+80050+016250FM-12+000899999V0200401N004019999999N999999999-00841-01181100571ADDMA1999999100491MD1210101+9999REMSYN04801002 46/// /0404 11084 21118 30049 40057 52010=
0089010020999992016033122004+80050+016250FM-12+000899999V0200201N005019999999N999999999-00831-01141100601ADDMA1999999100521MD1210101+9999REMSYN04801002 46/// /0205 11083 21114 30052 40060 52010=
0089010020999992016033123004+80050+016250FM-12+000899999V0200201N005019999999N999999999-00841-01191100661ADDMA1999999100581MD1210131+9999REMSYN04801002 46/// /0205 11084 21119 30058 40066 52013=
0113010020999992016040100004+80050+016250FM-12+000899999V0200401N005019999999N999999999-00851-01221100711ADDMA1999999100631MD1210141+9999OD139900701999REMSYN05801002 46/// /0405 11085 21122 30063 40071 52014 333 91107=
0069010020999992016040109004+80050+016250FM-12+000899999V0201601N005019999999N999999999-01141-01351100941ADDMA1999999100861REMSYN04201002 46/// /1605 11114 21135 30086 40094=
0069010020999992016040110004+80050+016250FM-12+000899999V0201501N005019999999N999999999-01091-01351100991ADDMA1999999100901REMSYN04201002 46/// /1505 11109 21135 30090 40099=
0089010020999992016040111004+80050+016250FM-12+000899999V0201501N006019999999N999999999-01091-01481101001ADDMA1999999100911MD1311491+9999REMSYN04801002 46/// /1506 11109 21148 30091 40100 53149=
0089010020999992016040112004+80050+016250FM-12+000899999V0201501N005019999999N999999999-01171-01591101051ADDMA1999999100971MD1210111+9999REMSYN04801002 46/// /1505 11117 21159 30097 40105 52011=
0089010020999992016040113004+80050+016250FM-12+000899999V0201501N006019999999N999999999-01161-01571101051ADDMA1999999100971MD1210061+9999REMSYN04801002 46/// /1506 11116 21157 30097 40105 52006=
0089010020999992016040114004+80050+016250FM-12+000899999V0201601N006019999999N999999999-01141-01531101071ADDMA1999999100981MD1310071+9999REMSYN04801002 46/// /1606 11114 21153 30098 40107 53007=
0108010020999992016040115004+80050+016250FM-12+000899999V0201501N005019999999N999999999-01081-01501101081ADDMA1999999100991MD1290039+9999REMSYN04801002 46/// /1505 11108 21150 30099 40108 54002=EQDQ01.2    3APC3  
0089010020999992016040116004+80050+016250FM-12+000899999V0201501N004019999999N999999999-00931-01461101111ADDMA1999999101031MD1210061+9999REMSYN04801002 46/// /1504 11093 21146 30103 40111 52006=
0089010020999992016040117004+80050+016250FM-12+000899999V0201401N004019999999N999999999-00941-01371101131ADDMA1999999101051MD1210071+9999REMSYN04801002 46/// /1404 11094 21137 30105 40113 52007=
0113010020999992016040118004+80050+016250FM-12+000899999V0201401N004019999999N999999999-01071-01461101141ADDMA1999999101061MD1210061+9999OD139900701999REMSYN05801002 46/// /1404 11107 21146 30106 40114 52006 333 91107=
0089010020999992016040119004+80050+016250FM-12+000899999V0201401N004019999999N999999999-01031-01421101161ADDMA1999999101071MD1210051+9999REMSYN04801002 46/// /1404 11103 21142 30107 40116 52005=
0089010020999992016040120004+80050+016250FM-12+000899999V0201501N003019999999N999999999-00941-01491101181ADDMA1999999101091MD1210041+9999REMSYN04801002 46/// /1503 11094 21149 30109 40118 52004=
0089010020999992016040121004+80050+016250FM-12+000899999V0201401N004019999999N999999999-00961-01511101211ADDMA1999999101121MD1210071+9999REMSYN04801002 46/// /1404 11096 21151 30112 40121 52007=
0089010020999992016040122004+80050+016250FM-12+000899999V0201301N004019999999N999999999-01001-01461101231ADDMA1999999101151MD1210071+9999REMSYN04801002 46/// /1304 11100 21146 30115 40123 52007=
0089010020999992016040123004+80050+016250FM-12+000899999V0201301N004019999999N999999999-00941-01561101251ADDMA1999999101161MD1210071+9999REMSYN04801002 46/// /1304 11094 21156 30116 40125 52007=
0113010020999992016040200004+80050+016250FM-12+000899999V0201401N004019999999N999999999-00961-01661101251ADDMA1999999101171MD1210051+9999OD139900501999REMSYN05801002 46/// /1404 11096 21166 30117 40125 52005 333 91105=
0108010020999992016040201004+80050+016250FM-12+000899999V0201401N004019999999N999999999-00981-01581101261ADDMA1999999101171MD1290039+9999REMSYN04801002 46/// /1404 11098 21158 30117 40126 54003=EQDQ01.3    3APC3  
0108010020999992016040202004+80050+016250FM-12+000899999V0201701N006019999999N999999999-00891-01401101261ADDMA1999999101171MD1290019+9999REMSYN04801002 46/// /1706 11089 21140 30117 40126 54001=EQDQ01.1    3APC3  
0089010020999992016040203004+80050+016250FM-12+000899999V0201901N008019999999N999999999-00971-01371101261ADDMA1999999101171MD1410001+9999REMSYN04801002 46/// /1908 11097 21137 30117 40126 54000=
0089010020999992016040204004+80050+016250FM-12+000899999V0201901N008019999999N999999999-00781-01181101261ADDMA1999999101171MD1410001+9999REMSYN04801002 46/// /1908 11078 21118 30117 40126 54000=
0089010020999992016040205004+80050+016250FM-12+000899999V0201901N007019999999N999999999-00851-01271101291ADDMA1999999101211MD1210031+9999REMSYN04801002 46/// /1907 11085 21127 30121 40129 52003=
0151010020999992016040206004+80050+016250FM-12+000899999V0201901N008019999999N999999999-00971-01411101281ADDKA1240N-01101MA1999999101201MD1290029+9999OD139900901999REMSYN06401002 46/// /1908 11097 21141 30120 40128 54003 333 21110 91109=EQDQ01.3    3APC3  
0089010020999992016040207004+80050+016250FM-12+000899999V0201801N008019999999N999999999-00631-01071101261ADDMA1999999101181MD1510001+9999REMSYN04801002 46/// /1808 11063 21107 30118 40126 55000=
0089010020999992016040208004+80050+016250FM-12+000899999V0201901N006019999999N999999999-00591-01001101291ADDMA1999999101211MD1990001+9999REMSYN04801002 46/// /1906 11059 21100 30121 40129 50000=
0089010020999992016040209004+80050+016250FM-12+000899999V0202001N007019999999N999999999-00521-01001101311ADDMA1999999101221MD1990021+9999REMSYN04801002 46/// /2007 11052 21100 30122 40131 50002=
0089010020999992016040210004+80050+016250FM-12+000899999V0202001N007019999999N999999999-00531-00971101351ADDMA1999999101271MD1210091+9999REMSYN04801002 46/// /2007 11053 21097 30127 40135 52009=
0089010020999992016040211004+80050+016250FM-12+000899999V0202001N007019999999N999999999-00551-01041101381ADDMA1999999101301MD1210091+9999REMSYN04801002 46/// /2007 11055 21104 30130 40138 52009=
0113010020999992016040212004+80050+016250FM-12+000899999V0201901N007019999999N999999999-00521-00981101391ADDMA1999999101301MD1310081+9999OD139900901999REMSYN05801002 46/// /1907 11052 21098 30130 40139 53008 333 91109=
0089010020999992016040213004+80050+016250FM-12+000899999V0201801N008019999999N999999999-00461-00921101351ADDMA1999999101271MD1510001+9999REMSYN04801002 46/// /1808 11046 21092 30127 40135 55000=
0089010020999992016040214004+80050+016250FM-12+000899999V0201801N007019999999N999999999-00401-00861101341ADDMA1999999101261MD1710041+9999REMSYN04801002 46/// /1807 11040 21086 30126 40134 57004=
0089010020999992016040215004+80050+016250FM-12+000899999V0202001N006019999999N999999999-00431-00881101371ADDMA1999999101291MD1990011+9999REMSYN04801002 46/// /2006 11043 21088 30129 40137 50001=
0089010020999992016040216004+80050+016250FM-12+000899999V0201901N005019999999N999999999-00451-00851101411ADDMA1999999101331MD1110061+9999REMSYN04801002 46/// /1905 11045 21085 30133 40141 51006=
0089010020999992016040217004+80050+016250FM-12+000899999V0201801N006019999999N999999999-00451-00771101381ADDMA1999999101301MD1310041+9999REMSYN04801002 46/// /1806 11045 21077 30130 40138 53004=
0089010020999992016040221004+80050+016250FM-12+000899999V0202001N007019999999N999999999-00371-00691101361ADDMA1999999101281MD1210031+9999REMSYN04801002 46/// /2007 11037 21069 30128 40136 52003=
0089010020999992016040222004+80050+016250FM-12+000899999V0202101N010019999999N999999999-00311-00601101361ADDMA1999999101281MD1210041+9999REMSYN04801002 46/// /2110 11031 21060 30128 40136 52004=
0108010020999992016040223004+80050+016250FM-12+000899999V0202101N010019999999N999999999-00241-00501101371ADDMA1999999101291MD1290029+9999REMSYN04801002 46/// /2110 11024 21050 30129 40137 54002=EQDQ01.2    3APC3  
0132010020999992016040300004+80050+016250FM-12+000899999V0202101N009019999999N999999999-00271-00561101371ADDMA1999999101291MD1290019+9999OD139901201999REMSYN05801002 46/// /2109 11027 21056 30129 40137 54001 333 91112=EQDQ01.1    3APC3  
0108010020999992016040301004+80050+016250FM-12+000899999V0202101N009019999999N999999999-00251-00531101391ADDMA1999999101301MD1290039+9999REMSYN04801002 46/// /2109 11025 21053 30130 40139 54002=EQDQ01.2    3APC3  
0108010020999992016040302004+80050+016250FM-12+000899999V0202401N008019999999N999999999-00151-00401101381ADDMA1999999101301MD1290019+9999REMSYN04801002 46/// /2408 11015 21040 30130 40138 54001=EQDQ01.1    3APC3  
0108010020999992016040303004+80050+016250FM-12+000899999V0202401N008019999999N999999999-00151-00401101391ADDMA1999999101301MD1290029+9999REMSYN04801002 46/// /2408 11015 21040 30130 40139 54001=EQDQ01.1    3APC3  
0108010020999992016040304004+80050+016250FM-12+000899999V0202501N009019999999N999999999-00151-00421101401ADDMA1999999101321MD1290019+9999REMSYN04801002 46/// /2509 11015 21042 30132 40140 54001=EQDQ01.1    3APC3  
0108010020999992016040305004+80050+016250FM-12+000899999V0202301N009019999999N999999999-00161-00441101391ADDMA1999999101311MD1290019+9999REMSYN04801002 46/// /2309 11016 21044 30131 40139 54001=EQDQ01.1    3APC3  
0151010020999992016040306004+80050+016250FM-12+000899999V0202401N010019999999N999999999-00141-00481101371ADDKA1240N-00431MA1999999101291MD1790029+9999OD139901101999REMSYN06401002 46/// /2410 11014 21048 30129 40137 54001 333 21043 91111=EQDQ01.1    3APC3  
0089010020999992016040307004+80050+016250FM-12+000899999V0202401N009019999999N999999999-00121-00421101401ADDMA1999999101311MD1990001+9999REMSYN04801002 46/// /2409 11012 21042 30131 40140 50000=
0108010020999992016040308004+80050+016250FM-12+000899999V0202401N009019999999N999999999-00111-00471101411ADDMA1999999101331MD1290029+9999REMSYN04801002 46/// /2409 11011 21047 30133 40141 54002=EQDQ01.2    3APC3  
0089010020999992016040309004+80050+016250FM-12+000899999V0202401N006019999999N999999999-00091-00421101441ADDMA1999999101361MD1210071+9999REMSYN04801002 46/// /2406 11009 21042 30136 40144 52007=
0089010020999992016040310004+80050+016250FM-12+000899999V0202401N008019999999N999999999-00081-00451101441ADDMA1999999101351MD1210041+9999REMSYN04801002 46/// /2408 11008 21045 30135 40144 52004=
0089010020999992016040311004+80050+016250FM-12+000899999V0202601N007019999999N999999999-00131-00341101461ADDMA1999999101381MD1210051+9999REMSYN04801002 46/// /2607 11013 21034 30138 40146 52005=
0132010020999992016040312004+80050+016250FM-12+000899999V0202401N007019999999N999999999-00161-00271101461ADDMA1999999101381MD1290029+9999OD139901101999REMSYN05801002 46/// /2407 11016 21027 30138 40146 54002 333 91111=EQDQ01.2    3APC3  
0108010020999992016040313004+80050+016250FM-12+000899999V0203001N006019999999N999999999-00161-00351101461ADDMA1999999101381MD1290029+9999REMSYN04801002 46/// /3006 11016 21035 30138 40146 54003=EQDQ01.3    3APC3  
0089010020999992016040314004+80050+016250FM-12+000899999V0203301N006019999999N999999999-00301-00481101511ADDMA1999999101431MD1110051+9999REMSYN04801002 46/// /3306 11030 21048 30143 40151 51005=
0089010020999992016040315004+80050+016250FM-12+000899999V0203001N008019999999N999999999-00381-00541101521ADDMA1999999101441MD1210061+9999REMSYN04801002 46/// /3008 11038 21054 30144 40152 52006=
0089010020999992016040316004+80050+016250FM-12+000899999V0203101N004019999999N999999999-00411-00591101571ADDMA1999999101481MD1210111+9999REMSYN04801002 46/// /3104 11041 21059 30148 40157 52011=
0089010020999992016040318004+80050+016250FM-12+000899999V0203401N003019999999N999999999-00491-00611101601ADDMA1999999101521MD1310081+9999REMSYN04801002 46/// /3403 11049 21061 30152 40160 53008=
0089010020999992016040319004+80050+016250FM-12+000899999V0200101N003019999999N999999999-00531-00691101621ADDMA1999999101531MD1210051+9999REMSYN04801002 46/// /0103 11053 21069 30153 40162 52005=
0089010020999992016040320004+80050+016250FM-12+000899999V0200301N005019999999N999999999-00581-00731101651ADDMA1999999101571MD1210061+9999REMSYN04801002 46/// /0305 11058 21073 30157 40165 52006=
0089010020999992016040321004+80050+016250FM-12+000899999V0200301N005019999999N999999999-00591-00721101661ADDMA1999999101571MD1210061+9999REMSYN04801002 46/// /0305 11059 21072 30157 40166 52006=
0089010020999992016040322004+80050+016250FM-12+000899999V0201001N006019999999N999999999-00571-00721101621ADDMA1999999101541MD1510011+9999REMSYN04801002 46/// /1006 11057 21072 30154 40162 55001=
0108010020999992016040323004+80050+016250FM-12+000899999V0200701N005019999999N999999999-00531-00681101661ADDMA1999999101571MD1290019+9999REMSYN04801002 46/// /0705 11053 21068 30157 40166 54001=EQDQ01.1    3APC3  
0132010020999992016040400004+80050+016250FM-12+000899999V0200701N005019999999N999999999-00501-00641101641ADDMA1999999101561MD1790029+9999OD139900601999REMSYN05801002 46/// /0705 11050 21064 30156 40164 54001 333 91106=EQDQ01.1    3APC3  
0089010020999992016040401004+80050+016250FM-12+000899999V0201001N005019999999N999999999-00451-00601101631ADDMA1999999101551MD1510011+9999REMSYN04801002 46/// /1005 11045 21060 30155 40163 55001=
0089010020999992016040402004+80050+016250FM-12+000899999V0200901N005019999999N999999999-00431-00571101621ADDMA1999999101541MD1710031+9999REMSYN04801002 46/// /0905 11043 21057 30154 40162 57003=
0089010020999992016040403004+80050+016250FM-12+000899999V0200801N005019999999N999999999-00401-00541101611ADDMA1999999101521MD1710041+9999REMSYN04801002 46/// /0805 11040 21054 30152 40161 57004=
0108010020999992016040404004+80050+016250FM-12+000899999V0200501N004019999999N999999999-00301-00441101601ADDMA1999999101521MD1790039+9999REMSYN04801002 46/// /0504 11030 21044 30152 40160 54003=EQDQ01.3    3APC3  
0108010020999992016040405004+80050+016250FM-12+000899999V0200801N005019999999N999999999-00351-00421101611ADDMA1999999101531MD1790019+9999REMSYN04801002 46/// /0805 11035 21042 30153 40161 54001=EQDQ01.1    3APC3  
0151010020999992016040406004+80050+016250FM-12+000899999V0200701N006019999999N999999999-00351-00441101631ADDKA1240N-00601MA1999999101551MD1290029+9999OD139900701999REMSYN06401002 46/// /0706 11035 21044 30155 40163 54003 333 21060 91107=EQDQ01.3    3APC3  
