0085010160999992016010100004+78928+028892FM-12+002099999V0202301N0067199999999999999999+00041-00071100851ADDKA1010M+00041KA2010N-00031MA1999999100701MD1210411+9999OD130601801999REMSYN004BUFR
0085010160999992016010101004+78928+028892FM-12+002099999V0202341N0061199999999999999999+00091-00111100921ADDKA1010M+00161KA2010N+00011MA1999999100771MD1310321+9999OD130100801999REMSYN004BUFR
0085010160999992016010102004+78928+028892FM-12+002099999V0201771N0036199999999999999999-00021-00151101041ADDKA1010M+00121KA2010N-00021MA1999999100881MD1210311+9999OD130100711999REMSYN004BUFR
0085010160999992016010103004+78928+028892FM-12+002099999V0202221N0050199999999999999999+00051-00151101101ADDKA1010M+00061KA2010N-00021MA1999999100941MD1210241+9999OD130100771999REMSYN004BUFR
0085010160999992016010104004+78928+028892FM-12+002099999V0201871N0033199999999999999999-00041-00151101131ADDKA1010M+00111KA2010N-00041MA1999999100971MD1310201+9999OD130100791999REMSYN004BUFR
0071010160999992016010105004+78928+028892FM-12+002099999V0201931N0012199999999999999999-00041-00141101131ADDKA1010M-00011KA2010N-00051MA1999999100971MD1310091+9999REMSYN004BUFR
0085010160999992016010106004+78928+028892FM-12+002099999V0201861N0027199999999999999999+00001-00151101181ADDKA1120M+00161KA2120N-00061MA1999999101031MD1210081+9999OD130600801999REMSYN004BUFR
0085010160999992016010107004+78928+028892FM-12+002099999V0201571N0054199999999999999999-00051-00171101191ADDKA1010M+00041KA2010N-00061MA1999999101031MD1210061+9999OD130100601999REMSYN004BUFR
0085010160999992016010108004+78928+028892FM-12+002099999V0201721N0036199999999999999999-00071-00161101201ADDKA1010M-00051KA2010N-00091MA1999999101041MD1310071+9999OD130100631999REMSYN004BUFR
0071010160999992016010109004+78928+028892FM-12+002099999V0201681N0035199999999999999999-00071-00141101181ADDKA1010M-00071KA2010N-00101MA1999999101031MD1410001+9999REMSYN004BUFR
0085010160999992016010110004+78928+028892FM-12+002099999V0201631N0037199999999999999999-00071-00141101131ADDKA1010M-00061KA2010N-00081MA1999999100971MD1610061+9999OD130100571999REMSYN004BUFR
0085010160999992016010111004+78928+028892FM-12+002099999V0201651N0050199999999999999999-00071-00121101061ADDKA1010M-00061KA2010N-00091MA1999999100901MD1610141+9999OD130100571999REMSYN004BUFR
0085010160999992016010112004+78928+028892FM-12+002099999V0201521N0055199999999999999999-00121-00131100991ADDKA1010M-00071KA2010N-00121MA1999999100831MD1710201+9999OD130600691999REMSYN004BUFR
0085010160999992016010113004+78928+028892FM-12+002099999V0201591N0043199999999999999999-00071-00081100931ADDKA1010M-00071KA2010N-00121MA1999999100781MD1710201+9999OD130100751999REMSYN004BUFR
0085010160999992016010114004+78928+028892FM-12+002099999V0201691N0051199999999999999999-00071-00081100891ADDKA1010M-00061KA2010N-00091MA1999999100731MD1810171+9999OD130100681999REMSYN004BUFR
0085010160999992016010115004+78928+028892FM-12+002099999V0201941N0080199999999999999999+00021+00011100841ADDKA1010M+00021KA2010N-00071MA1999999100681MD1710151+9999OD130100941999REMSYN004BUFR
0085010160999992016010116004+78928+028892FM-12+002099999V0201961N0086199999999999999999+00001-00021100791ADDKA1010M+00021KA2010N-00011MA1999999100631MD1710151+9999OD130101001999REMSYN004BUFR
0085010160999992016010117004+78928+028892FM-12+002099999V0202101N0095199999999999999999-00021-00031100781ADDKA1010M-00011KA2010N-00021MA1999999100621MD1810111+9999OD130101101999REMSYN004BUFR
0085010160999992016010118004+78928+028892FM-12+002099999V0202051N0113199999999999999999+00001-00021100721ADDKA1120M+00041KA2120N-00121MA1999999100561MD1710121+9999OD130601411999REMSYN004BUFR
0085010160999992016010119004+78928+028892FM-12+002099999V0202151N0102199999999999999999+00001+00001100771ADDKA1010M+00021KA2010N+00001MA1999999100621MD1010011+9999OD130101301999REMSYN004BUFR
0085010160999992016010120004+78928+028892FM-12+002099999V0202151N0106199999999999999999+00041+00001100821ADDKA1010M+00051KA2010N+00001MA1999999100671MD1010041+9999OD130101181999REMSYN004BUFR
0085010160999992016010121004+78928+028892FM-12+002099999V0202111N0107199999999999999999+00091+00031100841ADDKA1010M+00091KA2010N+00031MA1999999100681MD1310121+9999OD130101351999REMSYN004BUFR
0085010160999992016010122004+78928+028892FM-12+002099999V0202091N0106199999999999999999+00041-00021100881ADDKA1010M+00091KA2010N+00021MA1999999100731MD1210111+9999OD130101291999REMSYN004BUFR
0085010160999992016010123004+78928+028892FM-12+002099999V0202121N0093199999999999999999+00041-00031100981ADDKA1010M+00071KA2010N+00041MA1999999100821MD1110161+9999OD130101581999REMSYN004BUFR
0085010160999992016010200004+78928+028892FM-12+002099999V0202151N0093199999999999999999+00051-00011101071ADDKA1010M+00061KA2010N+00031MA1999999100911MD1110231+9999OD130601581999REMSYN004BUFR
0085010160999992016010201004+78928+028892FM-12+002099999V0202171N0106199999999999999999+00071-00011101081ADDKA1010M+00091KA2010N+00041MA1999999100921MD1310201+9999OD130101401999REMSYN004BUFR
0085010160999992016010202004+78928+028892FM-12+002099999V0202131N0097199999999999999999+00091-00011101101ADDKA1010M+00121KA2010N+00021MA1999999100951MD1310121+9999OD130101441999REMSYN004BUFR
0085010160999992016010203004+78928+028892FM-12+002099999V0202091N0116199999999999999999+00041-00031101091ADDKA1010M+00091KA2010N+00041MA1999999100931MD1510021+9999OD130101251999REMSYN004BUFR
0085010160999992016010204004+78928+028892FM-12+002099999V0202131N0115199999999999999999+00071+00001101141ADDKA1010M+00081KA2010N+00041MA1999999100981MD1210061+9999OD130101551999REMSYN004BUFR
0085010160999992016010205004+78928+028892FM-12+002099999V0202081N0114199999999999999999+00021-00031101151ADDKA1010M+00071KA2010N+00021MA1999999100991MD1210051+9999OD130101341999REMSYN004BUFR
0085010160999992016010206004+78928+028892FM-12+002099999V0202071N0119199999999999999999+00021-00041101141ADDKA1120M+00121KA2120N+00001MA1999999100981MD1310051+9999OD130601551999REMSYN004BUFR
0085010160999992016010207004+78928+028892FM-12+002099999V0202081N0131199999999999999999+00041-00021101071ADDKA1010M+00051KA2010N+00011MA1999999100911MD1610071+9999OD130101621999REMSYN004BUFR
0085010160999992016010208004+78928+028892FM-12+002099999V0202061N0118199999999999999999+00001-00051101071ADDKA1010M+00051KA2010N+00001MA1999999100911MD1710081+9999OD130101571999REMSYN004BUFR
0085010160999992016010209004+78928+028892FM-12+002099999V0202061N0118199999999999999999+00001-00091101061ADDKA1010M+00021KA2010N+00001MA1999999100911MD1810071+9999OD130101531999REMSYN004BUFR
0085010160999992016010210004+78928+028892FM-12+002099999V0202081N0146199999999999999999+00051-00081100961ADDKA1010M+00081KA2010N+00011MA1999999100801MD1610111+9999OD130101751999REMSYN004BUFR
0085010160999992016010211004+78928+028892FM-12+002099999V0202041N0136199999999999999999+00041-00071100861ADDKA1010M+00061KA2010N+00021MA1999999100711MD1610201+9999OD130101701999REMSYN004BUFR
0085010160999992016010212004+78928+028892FM-12+002099999V0202061N0136199999999999999999+00051-00051100821ADDKA1010M+00071KA2010N+00031MA1999999100661MD1810241+9999OD130601751999REMSYN004BUFR
0085010160999992016010213004+78928+028892FM-12+002099999V0202061N0165199999999999999999+00071-00031100661ADDKA1010M+00081KA2010N+00031MA1999999100501MD1610301+9999OD130102041999REMSYN004BUFR
0085010160999992016010214004+78928+028892FM-12+002099999V0202181N0147199999999999999999+00071-00091100691ADDKA1010M+00111KA2010N+00071MA1999999100531MD1810181+9999OD130102001999REMSYN004BUFR
0085010160999992016010215004+78928+028892FM-12+002099999V0202271N0141199999999999999999+00051-00111100731ADDKA1010M+00081KA2010N+00051MA1999999100571MD1810091+9999OD130101741999REMSYN004BUFR
0085010160999992016010216004+78928+028892FM-12+002099999V0202341N0108199999999999999999+00041-00111100871ADDKA1010M+00071KA2010N+00031MA1999999100721MD1110221+9999OD130101621999REMSYN004BUFR
0085010160999992016010217004+78928+028892FM-12+002099999V0202411N0106199999999999999999+00091-00041101011ADDKA1010M+00091KA2010N+00051MA1999999100861MD1110331+9999OD130101491999REMSYN004BUFR
0085010160999992016010218004+78928+028892FM-12+002099999V0202621N0115199999999999999999+00101-00101101211ADDKA1120M+00161KA2120N+00001MA1999999101051MD1110481+9999OD130602041999REMSYN004BUFR
0085010160999992016010219004+78928+028892FM-12+002099999V0202731N0085199999999999999999+00041-00091101451ADDKA1010M+00121KA2010N+00051MA1999999101291MD1110571+9999OD130101541999REMSYN004BUFR
0085010160999992016010220004+78928+028892FM-12+002099999V0202731N0095199999999999999999+00091-00111101591ADDKA1010M+00101KA2010N+00041MA1999999101431MD1310571+9999OD130101191999REMSYN004BUFR
0085010160999992016010221004+78928+028892FM-12+002099999V0202701N0096199999999999999999+00071-00141101771ADDKA1010M+00111KA2010N+00061MA1999999101611MD1310561+9999OD130101141999REMSYN004BUFR
0085010160999992016010222004+78928+028892FM-12+002099999V0202761N0085199999999999999999+00071-00181101931ADDKA1010M+00101KA2010N+00051MA1999999101781MD1210491+9999OD130101181999REMSYN004BUFR
0085010160999992016010223004+78928+028892FM-12+002099999V0202681N0082199999999999999999+00091-00201102081ADDKA1010M+00131KA2010N+00071MA1999999101921MD1310491+9999OD130101141999REMSYN004BUFR
0085010160999992016010300004+78928+028892FM-12+002099999V0202381N0064199999999999999999+00001-00211102191ADDKA1010M+00121KA2010N-00031MA1999999102031MD1310421+9999OD130601541999REMSYN004BUFR
0085010160999992016010301004+78928+028892FM-12+002099999V0202331N0059199999999999999999-00071-00251102251ADDKA1010M+00011KA2010N-00101MA1999999102091MD1310321+9999OD130100761999REMSYN004BUFR
0085010160999992016010302004+78928+028892FM-12+002099999V0202061N0047199999999999999999-00071-00251102341ADDKA1010M-00061KA2010N-00111MA1999999102181MD1210261+9999OD130100871999REMSYN004BUFR
0085010160999992016010303004+78928+028892FM-12+002099999V0202211N0075199999999999999999-00021-00171102341ADDKA1010M-00021KA2010N-00121MA1999999102181MD1310151+9999OD130100871999REMSYN004BUFR
0085010160999992016010304004+78928+028892FM-12+002099999V0202211N0082199999999999999999+00041-00121102351ADDKA1010M+00051KA2010N-00051MA1999999102191MD1310101+9999OD130101051999REMSYN004BUFR
0085010160999992016010305004+78928+028892FM-12+002099999V0202311N0058199999999999999999-00051-00111102381ADDKA1010M+00051KA2010N-00051MA1999999102221MD1110041+9999OD130101001999REMSYN004BUFR
0085010160999992016010306004+78928+028892FM-12+002099999V0202171N0090199999999999999999+00001-00061102351ADDKA1120M+00131KA2120N-00121MA1999999102201MD1510021+9999OD130601161999REMSYN004BUFR
0085010160999992016010307004+78928+028892FM-12+002099999V0202071N0098199999999999999999+00021-00011102331ADDKA1010M+00031KA2010N-00011MA1999999102171MD1510021+9999OD130101181999REMSYN004BUFR
0085010160999992016010308004+78928+028892FM-12+002099999V0202111N0124199999999999999999+00041+00021102301ADDKA1010M+00061KA2010N+00021MA1999999102151MD1710081+9999OD130101531999REMSYN004BUFR
0085010160999992016010309004+78928+028892FM-12+002099999V0202011N0118199999999999999999+00021-00011102241ADDKA1010M+00051KA2010N+00031MA1999999102081MD1610111+9999OD130101481999REMSYN004BUFR
0085010160999992016010310004+78928+028892FM-12+002099999V0202011N0123199999999999999999+00021-00051102141ADDKA1010M+00051KA2010N+00031MA1999999101981MD1610191+9999OD130101471999REMSYN004BUFR
0085010160999992016010311004+78928+028892FM-12+002099999V0202001N0145199999999999999999+00021-00061102011ADDKA1010M+00041KA2010N+00021MA1999999101851MD1610291+9999OD130101621999REMSYN004BUFR
0085010160999992016010312004+78928+028892FM-12+002099999V0201971N0139199999999999999999+00001-00071101961ADDKA1010M+00021KA2010N+00001MA1999999101801MD1810281+9999OD130601791999REMSYN004BUFR
0085010160999992016010313004+78928+028892FM-12+002099999V0202021N0136199999999999999999+00021-00091101891ADDKA1010M+00021KA2010N-00011MA1999999101731MD1810251+9999OD130101601999REMSYN004BUFR
0085010160999992016010314004+78928+028892FM-12+002099999V0202051N0138199999999999999999+00021-00101101841ADDKA1010M+00031KA2010N+00021MA1999999101681MD1710171+9999OD130101701999REMSYN004BUFR
0085010160999992016010315004+78928+028892FM-12+002099999V0202011N0147199999999999999999+00001-00101101771ADDKA1010M+00051KA2010N+00001MA1999999101611MD1710191+9999OD130101771999REMSYN004BUFR
0085010160999992016010316004+78928+028892FM-12+002099999V0202051N0159199999999999999999+00001-00101101741ADDKA1010M+00021KA2010N+00001MA1999999101581MD1710141+9999OD130101891999REMSYN004BUFR
0085010160999992016010317004+78928+028892FM-12+002099999V0202011N0157199999999999999999+00001-00101101711ADDKA1010M+00021KA2010N+00011MA1999999101551MD1810131+9999OD130101991999REMSYN004BUFR
0085010160999992016010318004+78928+028892FM-12+002099999V0202021N0170199999999999999999+00001-00091101621ADDKA1120M+00061KA2120N-00011MA1999999101461MD1610161+9999OD130602011999REMSYN004BUFR
0085010160999992016010319004+78928+028892FM-12+002099999V0202071N0150199999999999999999+00001-00101101621ADDKA1010M+00001KA2010N-00021MA1999999101461MD1810121+9999OD130101951999REMSYN004BUFR
0085010160999992016010320004+78928+028892FM-12+002099999V0202001N0167199999999999999999-00021-00091101521ADDKA1010M-00011KA2010N-00021MA1999999101361MD1710191+9999OD130101951999REMSYN004BUFR
0085010160999992016010321004+78928+028892FM-12+002099999V0202091N0152199999999999999999+00001-00101101551ADDKA1010M+00001KA2010N-00031MA1999999101391MD1710061+9999OD130101901999REMSYN004BUFR
0085010160999992016010322004+78928+028892FM-12+002099999V0202151N0138199999999999999999+00001-00081101551ADDKA1010M+00001KA2010N-00021MA1999999101391MD1810071+9999OD130101851999REMSYN004BUFR
0085010160999992016010323004+78928+028892FM-12+002099999V0202151N0123199999999999999999+00001-00071101551ADDKA1010M+00011KA2010N-00011MA1999999101391MD1210031+9999OD130101651999REMSYN004BUFR
0085010160999992016010400004+78928+028892FM-12+002099999V0202141N0129199999999999999999+00001-00091101501ADDKA1010M+00001KA2010N-00011MA1999999101341MD1610051+9999OD130601951999REMSYN004BUFR
0085010160999992016010401004+78928+028892FM-12+002099999V0202081N0121199999999999999999-00021-00091101461ADDKA1010M+00011KA2010N-00031MA1999999101311MD1610091+9999OD130101461999REMSYN004BUFR
0085010160999992016010402004+78928+028892FM-12+002099999V0202091N0100199999999999999999-00041-00101101461ADDKA1010M-00021KA2010N-00041MA1999999101311MD1810091+9999OD130101361999REMSYN004BUFR
0085010160999992016010403004+78928+028892FM-12+002099999V0202101N0115199999999999999999-00051-00101101401ADDKA1010M-00031KA2010N-00051MA1999999101241MD1710101+9999OD130101351999REMSYN004BUFR
0085010160999992016010404004+78928+028892FM-12+002099999V0202181N0110199999999999999999-00051-00071101361ADDKA1010M-00051KA2010N-00061MA1999999101201MD1610101+9999OD130101391999REMSYN004BUFR
0085010160999992016010405004+78928+028892FM-12+002099999V0202161N0105199999999999999999-00051-00081101341ADDKA1010M-00041KA2010N-00061MA1999999101181MD1810121+9999OD130101301999REMSYN004BUFR
0085010160999992016010406004+78928+028892FM-12+002099999V0202191N0103199999999999999999-00071-00091101311ADDKA1120M+00011KA2120N-00081MA1999999101151MD1710091+9999OD130601461999REMSYN004BUFR
0085010160999992016010407004+78928+028892FM-12+002099999V0202261N0098199999999999999999-00071-00091101321ADDKA1010M-00081KA2010N-00081MA1999999101161MD1810041+9999OD130101221999REMSYN004BUFR
0085010160999992016010408004+78928+028892FM-12+002099999V0202321N0078199999999999999999-00091-00101101331ADDKA1010M-00081KA2010N-00091MA1999999101171MD1010011+9999OD130101221999REMSYN004BUFR
0085010160999992016010409004+78928+028892FM-12+002099999V0202381N0058199999999999999999-00091-00101101341ADDKA1010M-00071KA2010N-00091MA1999999101191MD1210031+9999OD130101081999REMSYN004BUFR
0085010160999992016010410004+78928+028892FM-12+002099999V0202361N0053199999999999999999-00101-00121101311ADDKA1010M-00091KA2010N-00111MA1999999101151MD1510011+9999OD130100691999REMSYN004BUFR
0104010160999992016010411004+78928+028892FM-12+002099999V0202501N0058199999999999999999-00171-00221101301ADDKA1010M-00111KA2010N-00171MA1999999101141MD1790039+9999OD130100651999REMSYN004BUFREQDQ01.3    3APC3  
0085010160999992016010412004+78928+028892FM-12+002099999V0201281N0011199999999999999999-00271-00381101331ADDKA1010M-00171KA2010N-00281MA1999999101171MD1010021+9999OD130601221999REMSYN004BUFR
0104010160999992016010413004+78928+028892FM-12+002099999V0202661N0062199999999999999999-00301-00471101331ADDKA1010M-00271KA2010N-00321MA1999999101171MD1290029+9999OD130100731999REMSYN004BUFREQDQ01.2    3APC3  
0085010160999992016010414004+78928+028892FM-12+002099999V0202591N0049199999999999999999-00351-00471101381ADDKA1010M-00321KA2010N-00391MA1999999101221MD1210091+9999OD130100671999REMSYN004BUFR
0085010160999992016010415004+78928+028892FM-12+002099999V0202951N0059199999999999999999-00501-00601101441ADDKA1010M-00301KA2010N-00531MA1999999101281MD1110111+9999OD130100671999REMSYN004BUFR
0085010160999992016010416004+78928+028892FM-12+002099999V0203091N0055199999999999999999-00621-00681101491ADDKA1010M-00401KA2010N-00661MA1999999101331MD1210161+9999OD130100741999REMSYN004BUFR
0085010160999992016010417004+78928+028892FM-12+002099999V0203121N0053199999999999999999-00721-00801101551ADDKA1010M-00601KA2010N-00761MA1999999101391MD1210171+9999OD130100621999REMSYN004BUFR
0085010160999992016010418004+78928+028892FM-12+002099999V0203131N0060199999999999999999-00671-00761101631ADDKA1120M-00071KA2120N-00781MA1999999101471MD1210191+9999OD130600741999REMSYN004BUFR
0085010160999992016010419004+78928+028892FM-12+002099999V0203381N0041199999999999999999-00701-00821101691ADDKA1010M-00511KA2010N-00701MA1999999101531MD1210201+9999OD130100631999REMSYN004BUFR
0085010160999992016010420004+78928+028892FM-12+002099999V0200171N0059199999999999999999-00591-00671101731ADDKA1010M-00491KA2010N-00721MA1999999101571MD1310181+9999OD130100621999REMSYN004BUFR
0085010160999992016010421004+78928+028892FM-12+002099999V0200401N0046199999999999999999-00451-00501101811ADDKA1010M-00391KA2010N-00601MA1999999101651MD1210181+9999OD130100631999REMSYN004BUFR
0085010160999992016010422004+78928+028892FM-12+002099999V0201151N0012199999999999999999-00401-00471101831ADDKA1010M-00311KA2010N-00521MA1999999101671MD1210141+9999OD130100531999REMSYN004BUFR
0071010160999992016010423004+78928+028892FM-12+002099999V0201021N0035199999999999999999-00441-00501101881ADDKA1010M-00341KA2010N-00571MA1999999101721MD1310151+9999REMSYN004BUFR
0085010160999992016010500004+78928+028892FM-12+002099999V0201451N0026199999999999999999-00521-00611101941ADDKA1010M-00341KA2010N-00651MA1999999101771MD1210121+9999OD130600631999REMSYN004BUFR
0071010160999992016010501004+78928+028892FM-12+002099999V0201511N0012199999999999999999-00601-00681101961ADDKA1010M-00521KA2010N-00601MA1999999101801MD1210121+9999REMSYN004BUFR
0071010160999992016010502004+78928+028892FM-12+002099999V0201141N0023199999999999999999-00751-00931102001ADDKA1010M-00521KA2010N-00761MA1999999101841MD1210111+9999REMSYN004BUFR
0085010160999992016010503004+78928+028892FM-12+002099999V0200921N0028199999999999999999-00441-00541102041ADDKA1010M-00361KA2010N-00791MA1999999101881MD1210101+9999OD130100531999REMSYN004BUFR
0071010160999992016010504004+78928+028892FM-12+002099999V0200961N0040199999999999999999-00321-00421102061ADDKA1010M-00331KA2010N-00481MA1999999101901MD1210101+9999REMSYN004BUFR
0071010160999992016010505004+78928+028892FM-12+002099999V0200981N0033199999999999999999-00371-00491102111ADDKA1010M-00331KA2010N-00391MA1999999101951MD1210121+9999REMSYN004BUFR
0085010160999992016010506004+78928+028892FM-12+002099999V0201191N0032199999999999999999-00321-00481102131ADDKA1120M-00301KA2120N-00791MA1999999101971MD1210091+9999OD130600531999REMSYN004BUFR
0071010160999992016010507004+78928+028892FM-12+002099999V0201301N0026199999999999999999-00321-00491102171ADDKA1010M-00291KA2010N-00341MA1999999102011MD1210111+9999REMSYN004BUFR
0071010160999992016010508004+78928+028892FM-12+002099999V0201391N0026199999999999999999-00321-00471102201ADDKA1010M-00291KA2010N-00351MA1999999102041MD1210091+9999REMSYN004BUFR
0085010160999992016010509004+78928+028892FM-12+002099999V0201591N0038199999999999999999-00321-00471102231ADDKA1010M-00311KA2010N-00341MA1999999102071MD1210101+9999OD130100521999REMSYN004BUFR
0071010160999992016010510004+78928+028892FM-12+002099999V0201691N0030199999999999999999-00391-00501102241ADDKA1010M-00331KA2010N-00391MA1999999102081MD1210071+9999REMSYN004BUFR
0085010160999992016010511004+78928+028892FM-12+002099999V0201621N0044199999999999999999-00371-00521102221ADDKA1010M-00361KA2010N-00411MA1999999102061MD1510011+9999OD130100611999REMSYN004BUFR
0104010160999992016010512004+78928+028892FM-12+002099999V0201741N0043199999999999999999-00391-00511102211ADDKA1010M-00371KA2010N-00391MA1999999102051MD1790029+9999OD130600611999REMSYN004BUFREQDQ01.2    3APC3  
0085010160999992016010513004+78928+028892FM-12+002099999V0201701N0048199999999999999999-00441-00541102201ADDKA1010M-00381KA2010N-00441MA1999999102031MD1710051+9999OD130100701999REMSYN004BUFR
0085010160999992016010514004+78928+028892FM-12+002099999V0201831N0040199999999999999999-00501-00551102221ADDKA1010M-00441KA2010N-00511MA1999999102061MD1010001+9999OD130100661999REMSYN004BUFR
0104010160999992016010515004+78928+028892FM-12+002099999V0201741N0030199999999999999999-00521-00571102201ADDKA1010M-00511KA2010N-00551MA1999999102041MD1790019+9999OD130100581999REMSYN004BUFREQDQ01.1    3APC3  
0071010160999992016010516004+78928+028892FM-12+002099999V0201751N0028199999999999999999-00601-00651102181ADDKA1010M-00531KA2010N-00601MA1999999102011MD1510021+9999REMSYN004BUFR
0071010160999992016010517004+78928+028892FM-12+002099999V0202021N0017199999999999999999-00651-00721102181ADDKA1010M-00591KA2010N-00661MA1999999102011MD1710041+9999REMSYN004BUFR
0085010160999992016010518004+78928+028892FM-12+002099999V0201841N0021199999999999999999-00671-00731102161ADDKA1120M-00291KA2120N-00691MA1999999101991MD1710051+9999OD130600701999REMSYN004BUFR
0090010160999992016010519004+78928+028892FM-12+002099999V0201911N0022199999999999999999-00701-00761102151ADDKA1010M-00651KA2010N-00701MA1999999101991MD1790039+9999REMSYN004BUFREQDQ01.3    3APC3  
0071010160999992016010520004+78928+028892FM-12+002099999V0201831N0013199999999999999999-00771-00851102121ADDKA1010M-00681KA2010N-00781MA1999999101961MD1710051+9999REMSYN004BUFR
0071010160999992016010521004+78928+028892FM-12+002099999V0201721N0009199999999999999999-00821-00901102121ADDKA1010M-00771KA2010N-00871MA1999999101951MD1710041+9999REMSYN004BUFR
0071010160999992016010522004+78928+028892FM-12+002099999V0201811N0012199999999999999999-00791-00861102081ADDKA1010M-00761KA2010N-00841MA1999999101921MD1710071+9999REMSYN004BUFR
0071010160999992016010523004+78928+028892FM-12+002099999V0201921N0005199999999999999999-00791-00861102061ADDKA1010M-00731KA2010N-00791MA1999999101891MD1710071+9999REMSYN004BUFR
0071010160999992016010600004+78928+028892FM-12+002099999V0200111N0004199999999999999999-01041-01121102061ADDKA1010M-00791KA2010N-01051MA1999999101901MD1810051+9999REMSYN004BUFR
0071010160999992016010601004+78928+028892FM-12+002099999V0203471N0003199999999999999999-00751-00821102041ADDKA1010M-00721KA2010N-01031MA1999999101871MD1710041+9999REMSYN004BUFR
0071010160999992016010602004+78928+028892FM-12+002099999V0203261N0008199999999999999999-00621-00701102001ADDKA1010M-00631KA2010N-00761MA1999999101841MD1610051+9999REMSYN004BUFR
0071010160999992016010603004+78928+028892FM-12+002099999V0200051N0012199999999999999999-00641-00721101961ADDKA1010M-00591KA2010N-00651MA1999999101801MD1710101+9999REMSYN004BUFR
0071010160999992016010604004+78928+028892FM-12+002099999V0200211N0014199999999999999999-00621-00701101951ADDKA1010M-00601KA2010N-00661MA1999999101781MD1710091+9999REMSYN004BUFR
0071010160999992016010605004+78928+028892FM-12+002099999V0200651N0014199999999999999999-00551-00641101921ADDKA1010M-00561KA2010N-00631MA1999999101751MD1710091+9999REMSYN004BUFR
0071010160999992016010606004+78928+028892FM-12+002099999V0200531N0016199999999999999999-00551-00661101901ADDKA1120M-00551KA2120N-01051MA1999999101741MD1710061+9999REMSYN004BUFR
0071010160999992016010607004+78928+028892FM-12+002099999V0200761N0018199999999999999999-00521-00631101901ADDKA1010M-00521KA2010N-00561MA1999999101741MD1810041+9999REMSYN004BUFR
0071010160999992016010608004+78928+028892FM-12+002099999V0200751N0014199999999999999999-00521-00591101921ADDKA1010M-00511KA2010N-00531MA1999999101761MD1410001+9999REMSYN004BUFR
0090010160999992016010609004+78928+028892FM-12+002099999V0200971N0008199999999999999999-00501-00561101911ADDKA1010M-00501KA2010N-00521MA1999999101751MD1290019+9999REMSYN004BUFREQDQ01.1    3APC3  
0071010160999992016010610004+78928+028892FM-12+002099999V0202061N0011199999999999999999-00541-00601101881ADDKA1010M-00501KA2010N-00541MA1999999101721MD1510021+9999REMSYN004BUFR
0071010160999992016010611004+78928+028892FM-12+002099999V0200601N0005199999999999999999-00591-00671101881ADDKA1010M-00541KA2010N-00591MA1999999101721MD1710031+9999REMSYN004BUFR
0090010160999992016010612004+78928+028892FM-12+002099999V0200581N0004199999999999999999-00601-00721101881ADDKA1010M-00581KA2010N-00601MA1999999101721MD1790039+9999REMSYN004BUFREQDQ01.2    3APC3  
0071010160999992016010613004+78928+028892FM-12+002099999V0203561N0011199999999999999999-00641-00721101841ADDKA1010M-00591KA2010N-00651MA1999999101681MD1610051+9999REMSYN004BUFR
0071010160999992016010614004+78928+028892FM-12+002099999V0200121N0005199999999999999999-00671-00761101841ADDKA1010M-00601KA2010N-00691MA1999999101681MD1710041+9999REMSYN004BUFR
0071010160999992016010615004+78928+028892FM-12+002099999V0200631N0026199999999999999999-00551-00611101851ADDKA1010M-00541KA2010N-00681MA1999999101691MD1010031+9999REMSYN004BUFR
0090010160999992016010616004+78928+028892FM-12+002099999V0200751N0025199999999999999999-00571-00691101851ADDKA1010M-00541KA2010N-00581MA1999999101691MD1290019+9999REMSYN004BUFREQDQ01.1    3APC3  
0090010160999992016010617004+78928+028892FM-12+002099999V0200511N0022199999999999999999-00551-00721101871ADDKA1010M-00551KA2010N-00611MA1999999101711MD1290039+9999REMSYN004BUFREQDQ01.3    3APC3  
0090010160999992016010618004+78928+028892FM-12+002099999V0200461N0026199999999999999999-00551-00751101871ADDKA1120M-00501KA2120N-00691MA1999999101701MD1290029+9999REMSYN004BUFREQDQ01.1    3APC3  
0090010160999992016010619004+78928+028892FM-12+002099999V0200561N0029199999999999999999-00601-00791101871ADDKA1010M-00561KA2010N-00631MA1999999101711MD1290029+9999REMSYN004BUFREQDQ01.2    3APC3  
0104010160999992016010620004+78928+028892FM-12+002099999V0200521N0046199999999999999999-00601-00771101881ADDKA1010M-00561KA2010N-00621MA1999999101721MD1290019+9999OD130100521999REMSYN004BUFREQDQ01.2    3APC3  
0085010160999992016010621004+78928+028892FM-12+002099999V0200511N0049199999999999999999-00571-00771101911ADDKA1010M-00551KA2010N-00631MA1999999101751MD1210041+9999OD130100571999REMSYN004BUFR
0085010160999992016010622004+78928+028892FM-12+002099999V0200631N0103199999999999999999-00551-00651101921ADDKA1010M-00521KA2010N-00591MA1999999101761MD1210051+9999OD130101541999REMSYN004BUFR
0085010160999992016010623004+78928+028892FM-12+002099999V0200431N0132199999999999999999-00571-00711101971ADDKA1010M-00561KA2010N-00601MA1999999101811MD1210081+9999OD130101501999REMSYN004BUFR
0085010160999992016010700004+78928+028892FM-12+002099999V0200501N0116199999999999999999-00621-00811102021ADDKA1010M-00581KA2010N-00621MA1999999101861MD1110111+9999OD130601541999REMSYN004BUFR
0085010160999992016010701004+78928+028892FM-12+002099999V0200391N0099199999999999999999-00601-00931102051ADDKA1010M-00601KA2010N-00631MA1999999101891MD1210131+9999OD130101231999REMSYN004BUFR
0085010160999992016010702004+78928+028892FM-12+002099999V0200521N0121199999999999999999-00671-00871102061ADDKA1010M-00591KA2010N-00681MA1999999101891MD1310091+9999OD130101361999REMSYN004BUFR
0085010160999992016010703004+78928+028892FM-12+002099999V0200501N0107199999999999999999-00751-01031102121ADDKA1010M-00681KA2010N-00751MA1999999101961MD1110101+9999OD130101271999REMSYN004BUFR
0085010160999992016010704004+78928+028892FM-12+002099999V0200451N0119199999999999999999-00801-01091102161ADDKA1010M-00731KA2010N-00811MA1999999101991MD1210111+9999OD130101391999REMSYN004BUFR
0085010160999992016010705004+78928+028892FM-12+002099999V0200431N0120199999999999999999-00871-01181102201ADDKA1010M-00811KA2010N-00871MA1999999102041MD1210141+9999OD130101411999REMSYN004BUFR
0085010160999992016010706004+78928+028892FM-12+002099999V0200391N0121199999999999999999-00901-01191102241ADDKA1120M-00521KA2120N-00901MA1999999102081MD1210121+9999OD130601501999REMSYN004BUFR
0085010160999992016010707004+78928+028892FM-12+002099999V0200411N0119199999999999999999-00921-01251102281ADDKA1010M-00901KA2010N-00941MA1999999102121MD1210121+9999OD130101491999REMSYN004BUFR
0085010160999992016010708004+78928+028892FM-12+002099999V0200401N0116199999999999999999-00921-01241102291ADDKA1010M-00901KA2010N-00931MA1999999102131MD1310091+9999OD130101401999REMSYN004BUFR
0085010160999992016010709004+78928+028892FM-12+002099999V0200331N0090199999999999999999-00921-01261102361ADDKA1010M-00911KA2010N-00951MA1999999102191MD1210121+9999OD130101351999REMSYN004BUFR
0085010160999992016010710004+78928+028892FM-12+002099999V0200361N0096199999999999999999-00951-01291102351ADDKA1010M-00921KA2010N-00961MA1999999102181MD1210071+9999OD130101291999REMSYN004BUFR
0085010160999992016010711004+78928+028892FM-12+002099999V0200281N0079199999999999999999-00951-01311102341ADDKA1010M-00951KA2010N-00971MA1999999102181MD1310051+9999OD130101221999REMSYN004BUFR
0104010160999992016010712004+78928+028892FM-12+002099999V0200301N0093199999999999999999-01001-01351102341ADDKA1010M-00961KA2010N-01001MA1999999102171MD1790029+9999OD130601491999REMSYN004BUFREQDQ01.2    3APC3  
0104010160999992016010713004+78928+028892FM-12+002099999V0200361N0083199999999999999999-01041-01401102351ADDKA1010M-01001KA2010N-01041MA1999999102191MD1410009+9999OD130101071999REMSYN004BUFREQDQ01.1    3APC3  
0104010160999992016010714004+78928+028892FM-12+002099999V0200161N0063199999999999999999-01041-01551102331ADDKA1010M-01031KA2010N-01051MA1999999102171MD1790019+9999OD130100891999REMSYN004BUFREQDQ01.1    3APC3  
0085010160999992016010715004+78928+028892FM-12+002099999V0200491N0066199999999999999999-01041-01511102301ADDKA1010M-01021KA2010N-01041MA1999999102131MD1610041+9999OD130100981999REMSYN004BUFR
0085010160999992016010716004+78928+028892FM-12+002099999V0200131N0072199999999999999999-01021-01441102261ADDKA1010M-01021KA2010N-01051MA1999999102101MD1710091+9999OD130100841999REMSYN004BUFR
0085010160999992016010717004+78928+028892FM-12+002099999V0200191N0071199999999999999999-01021-01461102241ADDKA1010M-01001KA2010N-01041MA1999999102071MD1710091+9999OD130101031999REMSYN004BUFR
0085010160999992016010718004+78928+028892FM-12+002099999V0200231N0063199999999999999999-01021-01471102211ADDKA1120M-00901KA2120N-01051MA1999999102051MD1710081+9999OD130601071999REMSYN004BUFR
0085010160999992016010719004+78928+028892FM-12+002099999V0200471N0067199999999999999999-01001-01361102211ADDKA1010M-01001KA2010N-01051MA1999999102051MD1710051+9999OD130100771999REMSYN004BUFR
0085010160999992016010720004+78928+028892FM-12+002099999V0200531N0052199999999999999999-01001-01381102221ADDKA1010M-01001KA2010N-01021MA1999999102051MD1010021+9999OD130100731999REMSYN004BUFR
0108010160999992016010721004+78933+028900FM-12+002099999V0200701N006019999999N999999999-01011-01411102211ADDMA1999999102041MD1410009+9999REMSYN04801016 46/// /0706 11101 21141 30204 40221 54001=EQDQ01.1    3APC3  
0104010160999992016010722004+78928+028892FM-12+002099999V0200571N0047199999999999999999-01001-01491102201ADDKA1010M-01001KA2010N-01021MA1999999102041MD1790019+9999OD130100761999REMSYN004BUFREQDQ01.1    3APC3  
0104010160999992016010723004+78928+028892FM-12+002099999V0200681N0051199999999999999999-01021-01451102191ADDKA1010M-01001KA2010N-01021MA1999999102031MD1790039+9999OD130100781999REMSYN004BUFREQDQ01.3    3APC3  
0104010160999992016010800004+78928+028892FM-12+002099999V0200921N0039199999999999999999-01021-01511102191ADDKA1010M-01011KA2010N-01031MA1999999102021MD1790029+9999OD130600781999REMSYN004BUFREQDQ01.2    3APC3  
0104010160999992016010801004+78928+028892FM-12+002099999V0200471N0037199999999999999999-01001-01451102181ADDKA1010M-01001KA2010N-01031MA1999999102011MD1790029+9999OD130100651999REMSYN004BUFREQDQ01.2    3APC3  
0085010160999992016010802004+78928+028892FM-12+002099999V0200731N0042199999999999999999-01021-01461102191ADDKA1010M-01001KA2010N-01031MA1999999102031MD1410001+9999OD130100701999REMSYN004BUFR
0085010160999992016010803004+78928+028892FM-12+002099999V0200491N0033199999999999999999-01051-01541102181ADDKA1010M-01031KA2010N-01051MA1999999102021MD1410001+9999OD130100581999REMSYN004BUFR
0085010160999992016010804004+78928+028892FM-12+002099999V0200081N0034199999999999999999-01051-01461102181ADDKA1010M-01031KA2010N-01051MA1999999102021MD1410001+9999OD130100661999REMSYN004BUFR
0104010160999992016010805004+78928+028892FM-12+002099999V0200681N0048199999999999999999-01021-01391102181ADDKA1010M-01021KA2010N-01041MA1999999102011MD1790019+9999OD130100621999REMSYN004BUFREQDQ01.2    3APC3  
0104010160999992016010806004+78928+028892FM-12+002099999V0200751N0035199999999999999999-01041-01421102191ADDKA1120M-01001KA2120N-01051MA1999999102031MD1290019+9999OD130600701999REMSYN004BUFREQDQ01.1    3APC3  
0104010160999992016010807004+78928+028892FM-12+002099999V0200651N0050199999999999999999-01021-01401102201ADDKA1010M-01021KA2010N-01041MA1999999102041MD1290029+9999OD130100671999REMSYN004BUFREQDQ01.2    3APC3  
0085010160999992016010808004+78928+028892FM-12+002099999V0200651N0056199999999999999999-01021-01381102221ADDKA1010M-01011KA2010N-01031MA1999999102051MD1210041+9999OD130100721999REMSYN004BUFR
0104010160999992016010809004+78928+028892FM-12+002099999V0200801N0049199999999999999999-01021-01381102221ADDKA1010M-01021KA2010N-01041MA1999999102051MD1290039+9999OD130100691999REMSYN004BUFREQDQ01.3    3APC3  
0104010160999992016010810004+78928+028892FM-12+002099999V0200541N0050199999999999999999-01021-01391102231ADDKA1010M-01021KA2010N-01041MA1999999102061MD1290039+9999OD130100671999REMSYN004BUFREQDQ01.3    3APC3  
0104010160999992016010811004+78928+028892FM-12+002099999V0200531N0059199999999999999999-01001-01301102221ADDKA1010M-01001KA2010N-01041MA1999999102061MD1410009+9999OD130100751999REMSYN004BUFREQDQ01.1    3APC3  
0085010160999992016010812004+78928+028892FM-12+002099999V0200581N0061199999999999999999-01021-01321102221ADDKA1010M-01011KA2010N-01051MA1999999102061MD1410001+9999OD130600831999REMSYN004BUFR
0104010160999992016010813004+78928+028892FM-12+002099999V0200791N0048199999999999999999-01001-01301102231ADDKA1010M-01011KA2010N-01051MA1999999102071MD1410009+9999OD130100821999REMSYN004BUFREQDQ01.1    3APC3  
0104010160999992016010814004+78928+028892FM-12+002099999V0200701N0044199999999999999999-00971-01231102231ADDKA1010M-00971KA2010N-01021MA1999999102071MD1290019+9999OD130100571999REMSYN004BUFREQDQ01.1    3APC3  
0104010160999992016010815004+78928+028892FM-12+002099999V0200581N0043199999999999999999-00941-01191102231ADDKA1010M-00941KA2010N-00971MA1999999102071MD1290019+9999OD130100571999REMSYN004BUFREQDQ01.1    3APC3  
0085010160999992016010816004+78928+028892FM-12+002099999V0200621N0050199999999999999999-00921-01161102231ADDKA1010M-00921KA2010N-00941MA1999999102061MD1410001+9999OD130100691999REMSYN004BUFR
0104010160999992016010817004+78928+028892FM-12+002099999V0200521N0050199999999999999999-00941-01151102251ADDKA1010M-00921KA2010N-00951MA1999999102091MD1290029+9999OD130100691999REMSYN004BUFREQDQ01.2    3APC3  
0085010160999992016010818004+78928+028892FM-12+002099999V0200641N0037199999999999999999-00901-01111102271ADDKA1120M-00901KA2120N-01051MA1999999102111MD1210041+9999OD130600821999REMSYN004BUFR
0085010160999992016010819004+78928+028892FM-12+002099999V0200481N0047199999999999999999-00901-01091102261ADDKA1010M-00891KA2010N-00911MA1999999102101MD1310041+9999OD130100591999REMSYN004BUFR
0085010160999992016010820004+78928+028892FM-12+002099999V0200421N0050199999999999999999-00901-01081102291ADDKA1010M-00891KA2010N-00911MA1999999102131MD1210041+9999OD130100761999REMSYN004BUFR
0104010160999992016010821004+78928+028892FM-12+002099999V0200371N0059199999999999999999-00901-01071102281ADDKA1010M-00891KA2010N-00911MA1999999102121MD1290019+9999OD130100731999REMSYN004BUFREQDQ01.1    3APC3  
0104010160999992016010822004+78928+028892FM-12+002099999V0200371N0041199999999999999999-00851-00991102291ADDKA1010M-00851KA2010N-00911MA1999999102121MD1290039+9999OD130100631999REMSYN004BUFREQDQ01.2    3APC3  
0104010160999992016010823004+78928+028892FM-12+002099999V0200491N0037199999999999999999-00771-00931102281ADDKA1010M-00781KA2010N-00851MA1999999102121MD1790019+9999OD130100601999REMSYN004BUFREQDQ01.1    3APC3  
0104010160999992016010900004+78928+028892FM-12+002099999V0200441N0033199999999999999999-00721-00881102271ADDKA1010M-00721KA2010N-00771MA1999999102111MD1790019+9999OD130600761999REMSYN004BUFREQDQ01.1    3APC3  
0104010160999992016010901004+78928+028892FM-12+002099999V0200601N0039199999999999999999-00671-00901102281ADDKA1010M-00661KA2010N-00721MA1999999102121MD1790019+9999OD130100511999REMSYN004BUFREQDQ01.1    3APC3  
0104010160999992016010902004+78928+028892FM-12+002099999V0200681N0051199999999999999999-00651-00861102271ADDKA1010M-00641KA2010N-00671MA1999999102111MD1790019+9999OD130100571999REMSYN004BUFREQDQ01.1    3APC3  
0085010160999992016010903004+78928+028892FM-12+002099999V0200471N0054199999999999999999-00671-00851102271ADDKA1010M-00661KA2010N-00681MA1999999102101MD1410001+9999OD130100681999REMSYN004BUFR
0085010160999992016010904004+78928+028892FM-12+002099999V0200801N0044199999999999999999-00651-00801102241ADDKA1010M-00631KA2010N-00691MA1999999102071MD1710041+9999OD130100661999REMSYN004BUFR
0085010160999992016010905004+78928+028892FM-12+002099999V0201031N0052199999999999999999-00741-00851102241ADDKA1010M-00651KA2010N-00761MA1999999102071MD1710031+9999OD130100791999REMSYN004BUFR
0085010160999992016010906004+78928+028892FM-12+002099999V0200661N0066199999999999999999-00771-00931102261ADDKA1120M-00631KA2120N-00911MA1999999102091MD1010011+9999OD130600891999REMSYN004BUFR
0104010160999992016010907004+78928+028892FM-12+002099999V0200631N0076199999999999999999-00771-00901102271ADDKA1010M-00761KA2010N-00781MA1999999102101MD1290039+9999OD130100981999REMSYN004BUFREQDQ01.3    3APC3  
0085010160999992016010908004+78928+028892FM-12+002099999V0200541N0082199999999999999999-00771-00921102281ADDKA1010M-00751KA2010N-00791MA1999999102111MD1210041+9999OD130100941999REMSYN004BUFR
0104010160999992016010909004+78928+028892FM-12+002099999V0200511N0076199999999999999999-00801-00971102281ADDKA1010M-00771KA2010N-00811MA1999999102121MD1290029+9999OD130101021999REMSYN004BUFREQDQ01.3    3APC3  
0104010160999992016010910004+78928+028892FM-12+002099999V0200491N0083199999999999999999-00851-00991102281ADDKA1010M-00811KA2010N-00851MA1999999102111MD1290019+9999OD130101021999REMSYN004BUFREQDQ01.1    3APC3  
0085010160999992016010911004+78928+028892FM-12+002099999V0200611N0067199999999999999999-00851-00991102281ADDKA1010M-00841KA2010N-00871MA1999999102111MD1410001+9999OD130100951999REMSYN004BUFR
0104010160999992016010912004+78928+028892FM-12+002099999V0200631N0066199999999999999999-00821-00941102261ADDKA1010M-00821KA2010N-00861MA1999999102101MD1790029+9999OD130601021999REMSYN004BUFREQDQ01.2    3APC3  
0085010160999992016010913004+78928+028892FM-12+002099999V0200671N0073199999999999999999-00801-00901102241ADDKA1010M-00811KA2010N-00841MA1999999102081MD1710031+9999OD130100871999REMSYN004BUFR
0104010160999992016010914004+78928+028892FM-12+002099999V0200551N0072199999999999999999-00821-00931102251ADDKA1010M-00811KA2010N-00841MA1999999102081MD1790039+9999OD130100841999REMSYN004BUFREQDQ01.3    3APC3  
0104010160999992016010915004+78928+028892FM-12+002099999V0200641N0062199999999999999999-00801-00881102231ADDKA1010M-00791KA2010N-00841MA1999999102071MD1790039+9999OD130100841999REMSYN004BUFREQDQ01.3    3APC3  
0085010160999992016010916004+78928+028892FM-12+002099999V0200521N0065199999999999999999-00801-00891102241ADDKA1010M-00781KA2010N-00811MA1999999102071MD1410001+9999OD130100821999REMSYN004BUFR
0104010160999992016010917004+78928+028892FM-12+002099999V0200621N0061199999999999999999-00791-00871102231ADDKA1010M-00781KA2010N-00811MA1999999102061MD1790029+9999OD130100821999REMSYN004BUFREQDQ01.2    3APC3  
0104010160999992016010918004+78928+028892FM-12+002099999V0200511N0066199999999999999999-00751-00841102221ADDKA1120M-00751KA2120N-00871MA1999999102061MD1790019+9999OD130600871999REMSYN004BUFREQDQ01.1    3APC3  
0104010160999992016010919004+78928+028892FM-12+002099999V0200561N0067199999999999999999-00721-00831102231ADDKA1010M-00721KA2010N-00761MA1999999102061MD1790019+9999OD130100841999REMSYN004BUFREQDQ01.1    3APC3  
0085010160999992016010920004+78928+028892FM-12+002099999V0200701N0062199999999999999999-00671-00911102231ADDKA1010M-00681KA2010N-00731MA1999999102061MD1410001+9999OD130100921999REMSYN004BUFR
0104010160999992016010921004+78928+028892FM-12+002099999V0200731N0072199999999999999999-00701-00931102231ADDKA1010M-00681KA2010N-00701MA1999999102071MD1290019+9999OD130101001999REMSYN004BUFREQDQ01.1    3APC3  
0104010160999992016010922004+78928+028892FM-12+002099999V0200721N0072199999999999999999-00721-00961102211ADDKA1010M-00701KA2010N-00721MA1999999102041MD1790029+9999OD130101021999REMSYN004BUFREQDQ014     3APCTEN
0104010160999992016010923004+78928+028892FM-12+002099999V0200731N0054199999999999999999-00701-00961102211ADDKA1010M-00691KA2010N-00721MA1999999102051MD1790029+9999OD130100901999REMSYN004BUFREQDQ01.1    3APC3  
0104010160999992016011000004+78928+028892FM-12+002099999V0200581N0068199999999999999999-00691-00971102221ADDKA1010M-00691KA2010N-00711MA1999999102061MD1790019+9999OD130601021999REMSYN004BUFREQDQ01.1    3APC3  
0104010160999992016011001004+78928+028892FM-12+002099999V0200521N0071199999999999999999-00671-00961102221ADDKA1010M-00681KA2010N-00701MA1999999102051MD1290019+9999OD130100861999REMSYN004BUFREQDQ01.1    3APC3  
0104010160999992016011002004+78928+028892FM-12+002099999V0200751N0085199999999999999999-00701-01011102201ADDKA1010M-00671KA2010N-00711MA1999999102041MD1790019+9999OD130100951999REMSYN004BUFREQDQ01.1    3APC3  
0104010160999992016011003004+78928+028892FM-12+002099999V0200871N0070199999999999999999-00741-01051102211ADDKA1010M-00711KA2010N-00751MA1999999102051MD1790019+9999OD130101081999REMSYN004BUFREQDQ01.1    3APC3  
0104010160999992016011004004+78928+028892FM-12+002099999V0200711N0076199999999999999999-00751-01021102191ADDKA1010M-00721KA2010N-00751MA1999999102031MD1790039+9999OD130100911999REMSYN004BUFREQDQ01.3    3APC3  
0104010160999992016011005004+78928+028892FM-12+002099999V0200641N0072199999999999999999-00721-00961102201ADDKA1010M-00721KA2010N-00751MA1999999102041MD1410009+9999OD130100971999REMSYN004BUFREQDQ01.1    3APC3  
0085010160999992016011006004+78928+028892FM-12+002099999V0200711N0078199999999999999999-00771-01071102231ADDKA1120M-00671KA2120N-00781MA1999999102071MD1010021+9999OD130601111999REMSYN004BUFR
0085010160999992016011007004+78928+028892FM-12+002099999V0200751N0077199999999999999999-00771-01101102271ADDKA1010M-00771KA2010N-00791MA1999999102111MD1110081+9999OD130101071999REMSYN004BUFR
0085010160999992016011008004+78928+028892FM-12+002099999V0200961N0052199999999999999999-00801-01071102311ADDKA1010M-00771KA2010N-00811MA1999999102141MD1210111+9999OD130100841999REMSYN004BUFR
0085010160999992016011009004+78928+028892FM-12+002099999V0201081N0034199999999999999999-00791-01031102321ADDKA1010M-00761KA2010N-00801MA1999999102151MD1210091+9999OD130100751999REMSYN004BUFR
0085010160999992016011010004+78928+028892FM-12+002099999V0200921N0049199999999999999999-00751-01071102321ADDKA1010M-00751KA2010N-00791MA1999999102161MD1210051+9999OD130100721999REMSYN004BUFR
0085010160999992016011011004+78928+028892FM-12+002099999V0200821N0058199999999999999999-00751-01091102371ADDKA1010M-00741KA2010N-00761MA1999999102201MD1110061+9999OD130100761999REMSYN004BUFR
0085010160999992016011012004+78928+028892FM-12+002099999V0200791N0060199999999999999999-00751-01001102381ADDKA1010M-00731KA2010N-00761MA1999999102211MD1210061+9999OD130601071999REMSYN004BUFR
0085010160999992016011013004+78928+028892FM-12+002099999V0201081N0050199999999999999999-00791-01131102391ADDKA1010M-00761KA2010N-00801MA1999999102231MD1210071+9999OD130100721999REMSYN004BUFR
0085010160999992016011014004+78928+028892FM-12+002099999V0200851N0058199999999999999999-00741-01211102411ADDKA1010M-00741KA2010N-00781MA1999999102251MD1210051+9999OD130100781999REMSYN004BUFR
0085010160999992016011015004+78928+028892FM-12+002099999V0200991N0034199999999999999999-00791-01061102431ADDKA1010M-00741KA2010N-00791MA1999999102271MD1210051+9999OD130100581999REMSYN004BUFR
0085010160999992016011016004+78928+028892FM-12+002099999V0201061N0060199999999999999999-00791-01161102461ADDKA1010M-00761KA2010N-00791MA1999999102291MD1210071+9999OD130100741999REMSYN004BUFR
0085010160999992016011017004+78928+028892FM-12+002099999V0200911N0044199999999999999999-00751-01131102461ADDKA1010M-00751KA2010N-00791MA1999999102301MD1210051+9999OD130100631999REMSYN004BUFR
0085010160999992016011018004+78928+028892FM-12+002099999V0201011N0059199999999999999999-00771-01171102501ADDKA1120M-00731KA2120N-00811MA1999999102341MD1210071+9999OD130600801999REMSYN004BUFR
0085010160999992016011019004+78928+028892FM-12+002099999V0200921N0072199999999999999999-00801-01231102541ADDKA1010M-00761KA2010N-00801MA1999999102381MD1110081+9999OD130100811999REMSYN004BUFR
0085010160999992016011020004+78928+028892FM-12+002099999V0201001N0060199999999999999999-00821-01171102581ADDKA1010M-00791KA2010N-00851MA1999999102421MD1210121+9999OD130100751999REMSYN004BUFR
0085010160999992016011021004+78928+028892FM-12+002099999V0201011N0069199999999999999999-00871-01181102621ADDKA1010M-00801KA2010N-00881MA1999999102451MD1210121+9999OD130101001999REMSYN004BUFR
0085010160999992016011022004+78928+028892FM-12+002099999V0200981N0058199999999999999999-00901-01211102651ADDKA1010M-00871KA2010N-00911MA1999999102481MD1210111+9999OD130100781999REMSYN004BUFR
0085010160999992016011023004+78928+028892FM-12+002099999V0200931N0044199999999999999999-00941-01221102681ADDKA1010M-00891KA2010N-00951MA1999999102521MD1210101+9999OD130100611999REMSYN004BUFR
0085010160999992016011100004+78928+028892FM-12+002099999V0201011N0047199999999999999999-00921-01221102721ADDKA1010M-00891KA2010N-00941MA1999999102551MD1210101+9999OD130601001999REMSYN004BUFR
0085010160999992016011101004+78928+028892FM-12+002099999V0201011N0047199999999999999999-01001-01191102761ADDKA1010M-00931KA2010N-01021MA1999999102591MD1210111+9999OD130100531999REMSYN004BUFR
0085010160999992016011102004+78928+028892FM-12+002099999V0201051N0051199999999999999999-01051-01281102781ADDKA1010M-01001KA2010N-01051MA1999999102611MD1210101+9999OD130100581999REMSYN004BUFR
0085010160999992016011103004+78928+028892FM-12+002099999V0201051N0053199999999999999999-01071-01331102811ADDKA1010M-01011KA2010N-01071MA1999999102641MD1210091+9999OD130100601999REMSYN004BUFR
0085010160999992016011104004+78928+028892FM-12+002099999V0200981N0043199999999999999999-01051-01281102841ADDKA1010M-00991KA2010N-01141MA1999999102671MD1210081+9999OD130100551999REMSYN004BUFR
0085010160999992016011105004+78928+028892FM-12+002099999V0201051N0043199999999999999999-00971-01191102881ADDKA1010M-00971KA2010N-01061MA1999999102711MD1210101+9999OD130100581999REMSYN004BUFR
0085010160999992016011106004+78928+028892FM-12+002099999V0201121N0051199999999999999999-01051-01271102931ADDKA1120M-00761KA2120N-01141MA1999999102761MD1210131+9999OD130600601999REMSYN004BUFR
0085010160999992016011107004+78928+028892FM-12+002099999V0201081N0045199999999999999999-01101-01271102981ADDKA1010M-00961KA2010N-01181MA1999999102821MD1210141+9999OD130100561999REMSYN004BUFR
0085010160999992016011108004+78928+028892FM-12+002099999V0201011N0036199999999999999999-00991-01211103021ADDKA1010M-00991KA2010N-01251MA1999999102851MD1210141+9999OD130100511999REMSYN004BUFR
0071010160999992016011109004+78928+028892FM-12+002099999V0201171N0042199999999999999999-01001-01221103071ADDKA1010M-00971KA2010N-01181MA1999999102911MD1210141+9999REMSYN004BUFR
0071010160999992016011110004+78928+028892FM-12+002099999V0200941N0029199999999999999999-00941-01141103111ADDKA1010M-00921KA2010N-00991MA1999999102941MD1210131+9999REMSYN004BUFR
0071010160999992016011111004+78928+028892FM-12+002099999V0201161N0037199999999999999999-00951-01221103141ADDKA1010M-00931KA2010N-01101MA1999999102971MD1210121+9999REMSYN004BUFR
0085010160999992016011112004+78928+028892FM-12+002099999V0201141N0040199999999999999999-00891-01131103191ADDKA1010M-00891KA2010N-01141MA1999999103021MD1210121+9999OD130600561999REMSYN004BUFR
0071010160999992016011113004+78928+028892FM-12+002099999V0201171N0041199999999999999999-00871-01191103211ADDKA1010M-00881KA2010N-01041MA1999999103041MD1210101+9999REMSYN004BUFR
0071010160999992016011114004+78928+028892FM-12+002099999V0201201N0043199999999999999999-00901-01161103241ADDKA1010M-00881KA2010N-00911MA1999999103081MD1210111+9999REMSYN004BUFR
0071010160999992016011115004+78928+028892FM-12+002099999V0201141N0040199999999999999999-00921-01171103271ADDKA1010M-00891KA2010N-01031MA1999999103111MD1210081+9999REMSYN004BUFR
0071010160999992016011116004+78928+028892FM-12+002099999V0201211N0040199999999999999999-00921-01231103301ADDKA1010M-00891KA2010N-01001MA1999999103141MD1210101+9999REMSYN004BUFR
0071010160999992016011117004+78928+028892FM-12+002099999V0201201N0042199999999999999999-00921-01241103341ADDKA1010M-00901KA2010N-00931MA1999999103181MD1210101+9999REMSYN004BUFR
0071010160999992016011118004+78928+028892FM-12+002099999V0201221N0034199999999999999999-00921-01221103381ADDKA1120M-00881KA2120N-01251MA1999999103221MD1210111+9999REMSYN004BUFR
0071010160999992016011119004+78928+028892FM-12+002099999V0201181N0037199999999999999999-00901-01251103411ADDKA1010M-00911KA2010N-01031MA1999999103241MD1210101+9999REMSYN004BUFR
0071010160999992016011120004+78928+028892FM-12+002099999V0201071N0023199999999999999999-00921-01171103431ADDKA1010M-00911KA2010N-00921MA1999999103261MD1210091+9999REMSYN004BUFR
0071010160999992016011121004+78928+028892FM-12+002099999V0201111N0016199999999999999999-01241-01391103461ADDKA1010M-00921KA2010N-01291MA1999999103291MD1210071+9999REMSYN004BUFR
0071010160999992016011122004+78928+028892FM-12+002099999V0201241N0022199999999999999999-01321-01461103481ADDKA1010M-01121KA2010N-01321MA1999999103311MD1210071+9999REMSYN004BUFR
0071010160999992016011123004+78928+028892FM-12+002099999V0203601N0000199999999999999999-01221-01311103491ADDKA1010M-01221KA2010N-01361MA1999999103321MD1210061+9999REMSYN004BUFR
0090010160999992016011200004+78928+028892FM-12+002099999V0200611N0003199999999999999999-01251-01391103491ADDKA1010M-01161KA2010N-01261MA1999999103321MD1290039+9999REMSYN004BUFREQDQ01.3    3APC3  
0071010160999992016011201004+78928+028892FM-12+002099999V0203421N0004199999999999999999-01201-01301103481ADDKA1010M-01181KA2010N-01451MA1999999103321MD1410001+9999REMSYN004BUFR
0090010160999992016011202004+78928+028892FM-12+002099999V0203371N0016199999999999999999-01301-01451103491ADDKA1010M-01101KA2010N-01441MA1999999103321MD1410009+9999REMSYN004BUFREQDQ01.1    3APC3  
0090010160999992016011203004+78928+028892FM-12+002099999V0203331N0019199999999999999999-01151-01281103471ADDKA1010M-01141KA2010N-01381MA1999999103301MD1790029+9999REMSYN004BUFREQDQ01.1    3APC3  
0090010160999992016011204004+78928+028892FM-12+002099999V0203291N0019199999999999999999-01251-01391103471ADDKA1010M-01171KA2010N-01371MA1999999103301MD1790019+9999REMSYN004BUFREQDQ01.1    3APC3  
0090010160999992016011205004+78928+028892FM-12+002099999V0203481N0033199999999999999999-01221-01341103461ADDKA1010M-01221KA2010N-01491MA1999999103291MD1790039+9999REMSYN004BUFREQDQ01.3    3APC3  
0071010160999992016011206004+78928+028892FM-12+002099999V0203421N0038199999999999999999-01351-01511103441ADDKA1120M-00911KA2120N-01491MA1999999103271MD1710031+9999REMSYN004BUFR
0085010160999992016011207004+78928+028892FM-12+002099999V0203451N0051199999999999999999-01401-01571103431ADDKA1010M-01331KA2010N-01411MA1999999103261MD1710041+9999OD130100521999REMSYN004BUFR
0085010160999992016011208004+78928+028892FM-12+002099999V0203451N0048199999999999999999-01321-01501103411ADDKA1010M-01281KA2010N-01421MA1999999103241MD1710051+9999OD130100521999REMSYN004BUFR
0085010160999992016011209004+78928+028892FM-12+002099999V0203481N0053199999999999999999-01351-01571103381ADDKA1010M-01291KA2010N-01391MA1999999103211MD1710061+9999OD130100551999REMSYN004BUFR
0085010160999992016011210004+78928+028892FM-12+002099999V0203481N0056199999999999999999-01321-01481103341ADDKA1010M-01281KA2010N-01351MA1999999103171MD1710091+9999OD130100581999REMSYN004BUFR
0085010160999992016011211004+78928+028892FM-12+002099999V0203451N0058199999999999999999-01341-01521103311ADDKA1010M-01251KA2010N-01341MA1999999103141MD1710101+9999OD130100601999REMSYN004BUFR
0085010160999992016011212004+78928+028892FM-12+002099999V0203381N0058199999999999999999-01301-01431103251ADDKA1010M-01251KA2010N-01381MA1999999103081MD1710131+9999OD130600651999REMSYN004BUFR
0085010160999992016011213004+78928+028892FM-12+002099999V0203451N0061199999999999999999-01371-01481103201ADDKA1010M-01301KA2010N-01401MA1999999103031MD1710141+9999OD130100631999REMSYN004BUFR
0085010160999992016011214004+78928+028892FM-12+002099999V0203261N0057199999999999999999-01291-01471103131ADDKA1010M-01141KA2010N-01371MA1999999102971MD1710171+9999OD130100621999REMSYN004BUFR
0085010160999992016011215004+78928+028892FM-12+002099999V0203341N0053199999999999999999-01301-01431103061ADDKA1010M-01211KA2010N-01381MA1999999102891MD1710191+9999OD130100671999REMSYN004BUFR
0085010160999992016011216004+78928+028892FM-12+002099999V0203361N0053199999999999999999-00971-01101102981ADDKA1010M-00921KA2010N-01311MA1999999102821MD1710211+9999OD130100621999REMSYN004BUFR
0085010160999992016011217004+78928+028892FM-12+002099999V0203421N0056199999999999999999-00841-00971102911ADDKA1010M-00821KA2010N-00971MA1999999102741MD1710221+9999OD130100681999REMSYN004BUFR
0085010160999992016011218004+78928+028892FM-12+002099999V0203401N0062199999999999999999-00901-01071102831ADDKA1120M-00781KA2120N-01421MA1999999102661MD1710231+9999OD130600741999REMSYN004BUFR
0085010160999992016011219004+78928+028892FM-12+002099999V0203481N0055199999999999999999-00801-00941102781ADDKA1010M-00791KA2010N-00921MA1999999102611MD1710201+9999OD130100741999REMSYN004BUFR
0085010160999992016011220004+78928+028892FM-12+002099999V0203131N0061199999999999999999-00851-00991102681ADDKA1010M-00791KA2010N-00891MA1999999102521MD1710221+9999OD130100661999REMSYN004BUFR
0085010160999992016011221004+78928+028892FM-12+002099999V0203021N0073199999999999999999-00971-01161102581ADDKA1010M-00861KA2010N-01021MA1999999102421MD1610241+9999OD130100801999REMSYN004BUFR
0085010160999992016011222004+78928+028892FM-12+002099999V0202951N0071199999999999999999-00951-01181102471ADDKA1010M-00951KA2010N-00991MA1999999102301MD1710311+9999OD130100771999REMSYN004BUFR
0085010160999992016011223004+78928+028892FM-12+002099999V0202941N0076199999999999999999-00951-01121102361ADDKA1010M-00951KA2010N-00991MA1999999102201MD1710321+9999OD130100841999REMSYN004BUFR
0085010160999992016011300004+78928+028892FM-12+002099999V0202901N0079199999999999999999-00851-01071102231ADDKA1010M-00861KA2010N-00961MA1999999102071MD1710351+9999OD130600861999REMSYN004BUFR
0085010160999992016011301004+78928+028892FM-12+002099999V0202891N0092199999999999999999-00851-00991102101ADDKA1010M-00851KA2010N-00881MA1999999101941MD1710361+9999OD130101031999REMSYN004BUFR
0085010160999992016011302004+78928+028892FM-12+002099999V0202921N0095199999999999999999-00721-00881101981ADDKA1010M-00731KA2010N-00861MA1999999101811MD1710381+9999OD130101111999REMSYN004BUFR
0085010160999992016011303004+78928+028892FM-12+002099999V0203161N0102199999999999999999-00671-00931101911ADDKA1010M-00651KA2010N-00721MA1999999101741MD1810331+9999OD130101221999REMSYN004BUFR
0085010160999992016011304004+78928+028892FM-12+002099999V0203391N0102199999999999999999-00671-00881101811ADDKA1010M-00651KA2010N-00721MA1999999101641MD1710301+9999OD130101101999REMSYN004BUFR
0085010160999992016011305004+78928+028892FM-12+002099999V0203501N0100199999999999999999-00671-00891101761ADDKA1010M-00651KA2010N-00681MA1999999101601MD1710221+9999OD130101151999REMSYN004BUFR
0085010160999992016011306004+78928+028892FM-12+002099999V0203521N0085199999999999999999-00721-00961101761ADDKA1120M-00651KA2120N-01021MA1999999101591MD1810151+9999OD130601221999REMSYN004BUFR
0085010160999992016011307004+78928+028892FM-12+002099999V0203461N0084199999999999999999-00701-01021101741ADDKA1010M-00691KA2010N-00731MA1999999101581MD1710071+9999OD130101151999REMSYN004BUFR
0104010160999992016011309004+78928+028892FM-12+002099999V0203351N0085199999999999999999-00741-01071101741ADDKA1010M-00711KA2010N-00751MA1999999101581MD1790029+9999OD130101081999REMSYN004BUFREQDQ01.1    3APC3  
0085010160999992016011310004+78928+028892FM-12+002099999V0203331N0082199999999999999999-00751-01061101721ADDKA1010M-00731KA2010N-00761MA1999999101561MD1510021+9999OD130101051999REMSYN004BUFR
0085010160999992016011311004+78928+028892FM-12+002099999V0203361N0067199999999999999999-00751-01031101701ADDKA1010M-00731KA2010N-00761MA1999999101531MD1710071+9999OD130100991999REMSYN004BUFR
0071010160999992016011312004+78928+028892FM-12+002099999V0203041N0064199999999999999999-00771-01101101661ADDKA1010M-00751KA2010N-00791MA1999999101491MD1710091+9999REMSYN004BUFR
0085010160999992016011313004+78928+028892FM-12+002099999V0203151N0051199999999999999999-00771-01131101631ADDKA1010M-00761KA2010N-00791MA1999999101471MD1710091+9999OD130100691999REMSYN004BUFR
0085010160999992016011314004+78928+028892FM-12+002099999V0203031N0058199999999999999999-00771-01141101611ADDKA1010M-00771KA2010N-00791MA1999999101451MD1710091+9999OD130100701999REMSYN004BUFR
0085010160999992016011315004+78928+028892FM-12+002099999V0202781N0046199999999999999999-00801-01121101571ADDKA1010M-00771KA2010N-00811MA1999999101411MD1710091+9999OD130100851999REMSYN004BUFR
0085010160999992016011316004+78928+028892FM-12+002099999V0203041N0063199999999999999999-00801-01051101571ADDKA1010M-00781KA2010N-00831MA1999999101401MD1710061+9999OD130100901999REMSYN004BUFR
0085010160999992016011317004+78928+028892FM-12+002099999V0202971N0077199999999999999999-00821-00991101531ADDKA1010M-00811KA2010N-00841MA1999999101371MD1710081+9999OD130101051999REMSYN004BUFR
0059010160999992016011318004+78928+028892FM-12+002099999V0202921N0076199999999999999999-00841-00981101501ADDMA1999999101331MD1610071+9999OD130601051999REMSYN004BUFR
0085010160999992016011319004+78928+028892FM-12+002099999V0202831N0067199999999999999999-00801-01031101471ADDKA1010M-00811KA2010N-00851MA1999999101311MD1710101+9999OD130100851999REMSYN004BUFR
0085010160999992016011320004+78928+028892FM-12+002099999V0202801N0065199999999999999999-00771-01071101441ADDKA1010M-00761KA2010N-00801MA1999999101281MD1710101+9999OD130100761999REMSYN004BUFR
0085010160999992016011321004+78928+028892FM-12+002099999V0202821N0084199999999999999999-00751-00921101391ADDKA1010M-00741KA2010N-00771MA1999999101221MD1710111+9999OD130100891999REMSYN004BUFR
0085010160999992016011322004+78928+028892FM-12+002099999V0202811N0091199999999999999999-00751-00881101341ADDKA1010M-00731KA2010N-00771MA1999999101181MD1710131+9999OD130101091999REMSYN004BUFR
0085010160999992016011323004+78928+028892FM-12+002099999V0202881N0083199999999999999999-00741-00951101301ADDKA1010M-00731KA2010N-00761MA1999999101141MD1710131+9999OD130101151999REMSYN004BUFR
0085010160999992016011400004+78928+028892FM-12+002099999V0202841N0081199999999999999999-00701-00961101291ADDKA1010M-00711KA2010N-00741MA1999999101131MD1810101+9999OD130601151999REMSYN004BUFR
0085010160999992016011401004+78928+028892FM-12+002099999V0202711N0086199999999999999999-00701-00911101251ADDKA1010M-00681KA2010N-00711MA1999999101091MD1710091+9999OD130101201999REMSYN004BUFR
0085010160999992016011402004+78928+028892FM-12+002099999V0202621N0068199999999999999999-00721-00851101221ADDKA1010M-00711KA2010N-00741MA1999999101061MD1710091+9999OD130100921999REMSYN004BUFR
0085010160999992016011403004+78928+028892FM-12+002099999V0202551N0067199999999999999999-00721-00841101191ADDKA1010M-00721KA2010N-00741MA1999999101031MD1710101+9999OD130100831999REMSYN004BUFR
0085010160999992016011404004+78928+028892FM-12+002099999V0202481N0059199999999999999999-00721-00881101161ADDKA1010M-00731KA2010N-00741MA1999999101001MD1710091+9999OD130100871999REMSYN004BUFR
0085010160999992016011405004+78928+028892FM-12+002099999V0202291N0043199999999999999999-00751-00931101121ADDKA1010M-00731KA2010N-00771MA1999999100951MD1710101+9999OD130100571999REMSYN004BUFR
0085010160999992016011406004+78928+028892FM-12+002099999V0202201N0058199999999999999999-00691-00971101071ADDKA1120M-00681KA2120N-00851MA1999999100911MD1710121+9999OD130601201999REMSYN004BUFR
0085010160999992016011407004+78928+028892FM-12+002099999V0202121N0084199999999999999999-00601-00821101021ADDKA1010M-00611KA2010N-00701MA1999999100861MD1710141+9999OD130100921999REMSYN004BUFR
0085010160999992016011408004+78928+028892FM-12+002099999V0202221N0100199999999999999999-00551-00671100991ADDKA1010M-00551KA2010N-00611MA1999999100831MD1710121+9999OD130101251999REMSYN004BUFR
0085010160999992016011409004+78928+028892FM-12+002099999V0202071N0097199999999999999999-00521-00651100941ADDKA1010M-00531KA2010N-00561MA1999999100781MD1710131+9999OD130101231999REMSYN004BUFR
0085010160999992016011410004+78928+028892FM-12+002099999V0202171N0100199999999999999999-00441-00621100911ADDKA1010M-00441KA2010N-00531MA1999999100751MD1710111+9999OD130101191999REMSYN004BUFR
0085010160999992016011411004+78928+028892FM-12+002099999V0202271N0104199999999999999999-00441-00561100901ADDKA1010M-00401KA2010N-00441MA1999999100741MD1810091+9999OD130101231999REMSYN004BUFR
0085010160999992016011412004+78928+028892FM-12+002099999V0202281N0090199999999999999999-00401-00591100891ADDKA1010M-00411KA2010N-00441MA1999999100741MD1710041+9999OD130601251999REMSYN004BUFR
0085010160999992016011413004+78928+028892FM-12+002099999V0202411N0064199999999999999999-00451-00601100921ADDKA1010M-00411KA2010N-00451MA1999999100761MD1010001+9999OD130101091999REMSYN004BUFR
0085010160999992016011414004+78928+028892FM-12+002099999V0202711N0030199999999999999999-00501-00611100931ADDKA1010M-00441KA2010N-00511MA1999999100771MD1210041+9999OD130100751999REMSYN004BUFR
0085010160999992016011415004+78928+028892FM-12+002099999V0202481N0040199999999999999999-00521-00661100951ADDKA1010M-00511KA2010N-00531MA1999999100791MD1210061+9999OD130100501999REMSYN004BUFR
0085010160999992016011416004+78928+028892FM-12+002099999V0202511N0052199999999999999999-00571-00741101001ADDKA1010M-00531KA2010N-00571MA1999999100841MD1210081+9999OD130100601999REMSYN004BUFR
0085010160999992016011417004+78928+028892FM-12+002099999V0203001N0024199999999999999999-00651-00791101041ADDKA1010M-00571KA2010N-00681MA1999999100871MD1210101+9999OD130100611999REMSYN004BUFR
0085010160999992016011418004+78928+028892FM-12+002099999V0202531N0010199999999999999999-00821-00961101041ADDKA1120M-00401KA2120N-00831MA1999999100871MD1310081+9999OD130601091999REMSYN004BUFR
0071010160999992016011419004+78928+028892FM-12+002099999V0201941N0038199999999999999999-00621-00791101071ADDKA1010M-00621KA2010N-00851MA1999999100911MD1210071+9999REMSYN004BUFR
0085010160999992016011420004+78928+028892FM-12+002099999V0202041N0059199999999999999999-00571-00771101081ADDKA1010M-00581KA2010N-00641MA1999999100921MD1210041+9999OD130100771999REMSYN004BUFR
0085010160999992016011421004+78928+028892FM-12+002099999V0202091N0064199999999999999999-00621-00801101091ADDKA1010M-00571KA2010N-00631MA1999999100931MD1210051+9999OD130100791999REMSYN004BUFR
0085010160999992016011422004+78928+028892FM-12+002099999V0202201N0058199999999999999999-00641-00811101131ADDKA1010M-00621KA2010N-00641MA1999999100971MD1110061+9999OD130100801999REMSYN004BUFR
0085010160999992016011423004+78928+028892FM-12+002099999V0202211N0066199999999999999999-00591-00761101141ADDKA1010M-00591KA2010N-00651MA1999999100981MD1210071+9999OD130100741999REMSYN004BUFR
0085010160999992016011500004+78928+028892FM-12+002099999V0202241N0061199999999999999999-00601-00781101171ADDKA1010M-00581KA2010N-00611MA1999999101011MD1210081+9999OD130600811999REMSYN004BUFR
0085010160999992016011501004+78928+028892FM-12+002099999V0202331N0052199999999999999999-00641-00811101231ADDKA1010M-00611KA2010N-00641MA1999999101071MD1110101+9999OD130100631999REMSYN004BUFR
0085010160999992016011502004+78928+028892FM-12+002099999V0202381N0047199999999999999999-00651-00821101301ADDKA1010M-00641KA2010N-00701MA1999999101141MD1110161+9999OD130100551999REMSYN004BUFR
0071010160999992016011503004+78928+028892FM-12+002099999V0202631N0034199999999999999999-00841-01001101351ADDKA1010M-00661KA2010N-00871MA1999999101191MD1210181+9999REMSYN004BUFR
0071010160999992016011504004+78928+028892FM-12+002099999V0202781N0014199999999999999999-01051-01111101421ADDKA1010M-00801KA2010N-01201MA1999999101261MD1210191+9999REMSYN004BUFR
0071010160999992016011505004+78928+028892FM-12+002099999V0202961N0010199999999999999999-01151-01261101481ADDKA1010M-00911KA2010N-01161MA1999999101311MD1210181+9999REMSYN004BUFR
0085010160999992016011506004+78928+028892FM-12+002099999V0203601N0000199999999999999999-01071-01141101521ADDKA1120M-00571KA2120N-01301MA1999999101361MD1210171+9999OD130600631999REMSYN004BUFR
0071010160999992016011507004+78928+028892FM-12+002099999V0200851N0004199999999999999999-00851-00951101591ADDKA1010M-00851KA2010N-01071MA1999999101431MD1210171+9999REMSYN004BUFR
0071010160999992016011508004+78928+028892FM-12+002099999V0200221N0002199999999999999999-00891-01001101661ADDKA1010M-00871KA2010N-01071MA1999999101501MD1210181+9999REMSYN004BUFR
0071010160999992016011509004+78928+028892FM-12+002099999V0200521N0008199999999999999999-00991-01071101741ADDKA1010M-00891KA2010N-01311MA1999999101581MD1210221+9999REMSYN004BUFR
0071010160999992016011510004+78928+028892FM-12+002099999V0200161N0001199999999999999999-01001-01091101771ADDKA1010M-00901KA2010N-01071MA1999999101611MD1310181+9999REMSYN004BUFR
0071010160999992016011511004+78928+028892FM-12+002099999V0200651N0011199999999999999999-01001-01121101811ADDKA1010M-00961KA2010N-01171MA1999999101651MD1310151+9999REMSYN004BUFR
0071010160999992016011512004+78928+028892FM-12+002099999V0200951N0043199999999999999999-00741-00851101851ADDKA1010M-00731KA2010N-01131MA1999999101691MD1210111+9999REMSYN004BUFR
0085010160999992016011513004+78928+028892FM-12+002099999V0200951N0045199999999999999999-00751-00891101891ADDKA1010M-00681KA2010N-00811MA1999999101731MD1210121+9999OD130100541999REMSYN004BUFR
0085010160999992016011514004+78928+028892FM-12+002099999V0200911N0038199999999999999999-00721-00881101951ADDKA1010M-00691KA2010N-00871MA1999999101791MD1210141+9999OD130100571999REMSYN004BUFR
0085010160999992016011515004+78928+028892FM-12+002099999V0201021N0044199999999999999999-00671-00871101961ADDKA1010M-00681KA2010N-00831MA1999999101791MD1310111+9999OD130100501999REMSYN004BUFR
0071010160999992016011516004+78928+028892FM-12+002099999V0200931N0040199999999999999999-00771-00901101981ADDKA1010M-00681KA2010N-00781MA1999999101811MD1310091+9999REMSYN004BUFR
0085010160999992016011517004+78928+028892FM-12+002099999V0201181N0049199999999999999999-00841-00951101991ADDKA1010M-00711KA2010N-00981MA1999999101821MD1210041+9999OD130100641999REMSYN004BUFR
0085010160999992016011518004+78928+028892FM-12+002099999V0201321N0052199999999999999999-00971-01091102011ADDKA1120M-00681KA2120N-01311MA1999999101851MD1210051+9999OD130600641999REMSYN004BUFR
0085010160999992016011519004+78928+028892FM-12+002099999V0201491N0020199999999999999999-00871-00961102071ADDKA1010M-00851KA2010N-01001MA1999999101911MD1110101+9999OD130100651999REMSYN004BUFR
0071010160999992016011520004+78928+028892FM-12+002099999V0201331N0029199999999999999999-01121-01241102101ADDKA1010M-00881KA2010N-01121MA1999999101931MD1210111+9999REMSYN004BUFR
0071010160999992016011521004+78928+028892FM-12+002099999V0201291N0038199999999999999999-00851-00951102121ADDKA1010M-00801KA2010N-01131MA1999999101961MD1310111+9999REMSYN004BUFR
0085010160999992016011522004+78928+028892FM-12+002099999V0201221N0063199999999999999999-00751-00851102141ADDKA1010M-00741KA2010N-00851MA1999999101981MD1210071+9999OD130100671999REMSYN004BUFR
0085010160999992016011523004+78928+028892FM-12+002099999V0201381N0046199999999999999999-00671-00751102181ADDKA1010M-00671KA2010N-00761MA1999999102011MD1210081+9999OD130100601999REMSYN004BUFR
0085010160999992016011600004+78928+028892FM-12+002099999V0201381N0051199999999999999999-00621-00791102161ADDKA1010M-00611KA2010N-00721MA1999999102001MD1310051+9999OD130600671999REMSYN004BUFR
0085010160999992016011601004+78928+028892FM-12+002099999V0201451N0053199999999999999999-00551-00781102181ADDKA1010M-00541KA2010N-00651MA1999999102011MD1210041+9999OD130100621999REMSYN004BUFR
0104010160999992016011602004+78928+028892FM-12+002099999V0201441N0058199999999999999999-00541-00661102191ADDKA1010M-00511KA2010N-00551MA1999999102031MD1290019+9999OD130100701999REMSYN004BUFREQDQ01.2    3APC3  
0085010160999992016011603004+78928+028892FM-12+002099999V0201451N0054199999999999999999-00551-00641102221ADDKA1010M-00521KA2010N-00561MA1999999102061MD1210061+9999OD130100641999REMSYN004BUFR
0085010160999992016011604004+78928+028892FM-12+002099999V0201451N0049199999999999999999-00621-00681102231ADDKA1010M-00561KA2010N-00621MA1999999102071MD1210051+9999OD130100601999REMSYN004BUFR
0085010160999992016011605004+78928+028892FM-12+002099999V0201501N0053199999999999999999-00591-00651102241ADDKA1010M-00591KA2010N-00641MA1999999102071MD1210041+9999OD130100581999REMSYN004BUFR
0085010160999992016011606004+78928+028892FM-12+002099999V0201501N0055199999999999999999-00591-00661102271ADDKA1120M-00511KA2120N-01131MA1999999102111MD1210051+9999OD130600701999REMSYN004BUFR
0085010160999992016011607004+78928+028892FM-12+002099999V0201481N0064199999999999999999-00601-00681102301ADDKA1010M-00581KA2010N-00611MA1999999102141MD1210071+9999OD130100751999REMSYN004BUFR
0085010160999992016011608004+78928+028892FM-12+002099999V0201481N0060199999999999999999-00571-00641102351ADDKA1010M-00571KA2010N-00601MA1999999102191MD1210111+9999OD130100681999REMSYN004BUFR
0085010160999992016011609004+78928+028892FM-12+002099999V0201521N0069199999999999999999-00521-00601102381ADDKA1010M-00521KA2010N-00581MA1999999102221MD1210111+9999OD130100781999REMSYN004BUFR
0085010160999992016011610004+78928+028892FM-12+002099999V0201551N0064199999999999999999-00551-00621102391ADDKA1010M-00521KA2010N-00551MA1999999102231MD1310091+9999OD130100781999REMSYN004BUFR
0085010160999992016011611004+78928+028892FM-12+002099999V0201481N0060199999999999999999-00571-00641102401ADDKA1010M-00551KA2010N-00601MA1999999102231MD1210051+9999OD130100791999REMSYN004BUFR
0104010160999992016011612004+78928+028892FM-12+002099999V0201411N0065199999999999999999-00621-00691102401ADDKA1010M-00571KA2010N-00641MA1999999102231MD1290029+9999OD130600791999REMSYN004BUFREQDQ01.2    3APC3  
0085010160999992016011613004+78928+028892FM-12+002099999V0201451N0068199999999999999999-00621-00701102441ADDKA1010M-00611KA2010N-00691MA1999999102271MD1110041+9999OD130100771999REMSYN004BUFR
0104010160999992016011614004+78928+028892FM-12+002099999V0201391N0060199999999999999999-00691-00771102431ADDKA1010M-00631KA2010N-00701MA1999999102261MD1290039+9999OD130100721999REMSYN004BUFREQDQ01.3    3APC3  
0085010160999992016011615004+78928+028892FM-12+002099999V0201391N0072199999999999999999-00601-00721102451ADDKA1010M-00601KA2010N-00691MA1999999102291MD1210051+9999OD130100811999REMSYN004BUFR
0085010160999992016011616004+78928+028892FM-12+002099999V0201471N0064199999999999999999-00801-00851102471ADDKA1010M-00601KA2010N-00801MA1999999102311MD1110041+9999OD130100841999REMSYN004BUFR
0085010160999992016011617004+78928+028892FM-12+002099999V0201481N0054199999999999999999-00701-00761102461ADDKA1010M-00711KA2010N-00791MA1999999102291MD1510031+9999OD130100761999REMSYN004BUFR
0085010160999992016011618004+78928+028892FM-12+002099999V0201411N0042199999999999999999-00651-00721102431ADDKA1120M-00521KA2120N-00801MA1999999102271MD1510021+9999OD130600841999REMSYN004BUFR
0085010160999992016011619004+78928+028892FM-12+002099999V0201441N0039199999999999999999-00521-00591102421ADDKA1010M-00531KA2010N-00651MA1999999102261MD1710051+9999OD130100601999REMSYN004BUFR
0085010160999992016011620004+78928+028892FM-12+002099999V0201231N0064199999999999999999-00441-00501102371ADDKA1010M-00441KA2010N-00521MA1999999102211MD1710081+9999OD130100761999REMSYN004BUFR
0085010160999992016011621004+78928+028892FM-12+002099999V0201241N0054199999999999999999-00371-00421102361ADDKA1010M-00371KA2010N-00451MA1999999102191MD1710071+9999OD130100741999REMSYN004BUFR
0085010160999992016011622004+78928+028892FM-12+002099999V0201461N0057199999999999999999-00301-00341102341ADDKA1010M-00291KA2010N-00371MA1999999102181MD1810081+9999OD130100781999REMSYN004BUFR
0085010160999992016011623004+78928+028892FM-12+002099999V0201491N0078199999999999999999-00251-00301102301ADDKA1010M-00261KA2010N-00301MA1999999102141MD1710071+9999OD130100911999REMSYN004BUFR
0085010160999992016011700004+78928+028892FM-12+002099999V0201471N0076199999999999999999-00271-00321102281ADDKA1010M-00261KA2010N-00271MA1999999102121MD1710071+9999OD130600951999REMSYN004BUFR
0085010160999992016011701004+78928+028892FM-12+002099999V0201471N0083199999999999999999-00271-00341102271ADDKA1010M-00261KA2010N-00281MA1999999102111MD1710071+9999OD130100971999REMSYN004BUFR
0085010160999992016011702004+78928+028892FM-12+002099999V0201501N0073199999999999999999-00271-00341102291ADDKA1010M-00271KA2010N-00281MA1999999102131MD1010011+9999OD130100871999REMSYN004BUFR
0085010160999992016011703004+78928+028892FM-12+002099999V0201481N0075199999999999999999-00291-00361102281ADDKA1010M-00271KA2010N-00291MA1999999102121MD1410001+9999OD130100851999REMSYN004BUFR
0085010160999992016011704004+78928+028892FM-12+002099999V0201461N0074199999999999999999-00321-00381102271ADDKA1010M-00291KA2010N-00321MA1999999102111MD1510001+9999OD130100841999REMSYN004BUFR
0085010160999992016011705004+78928+028892FM-12+002099999V0201421N0069199999999999999999-00321-00371102251ADDKA1010M-00321KA2010N-00331MA1999999102091MD1710051+9999OD130100841999REMSYN004BUFR
0085010160999992016011706004+78928+028892FM-12+002099999V0201401N0075199999999999999999-00341-00401102211ADDKA1120M-00261KA2120N-00651MA1999999102041MD1710081+9999OD130600991999REMSYN004BUFR
0085010160999992016011707004+78928+028892FM-12+002099999V0201411N0070199999999999999999-00351-00391102191ADDKA1010M-00331KA2010N-00381MA1999999102031MD1710081+9999OD130100791999REMSYN004BUFR
0085010160999992016011708004+78928+028892FM-12+002099999V0201601N0068199999999999999999-00371-00391102191ADDKA1010M-00351KA2010N-00371MA1999999102031MD1810051+9999OD130100901999REMSYN004BUFR
0104010160999992016011709004+78928+028892FM-12+002099999V0201701N0045199999999999999999-00351-00381102201ADDKA1010M-00361KA2010N-00381MA1999999102041MD1790019+9999OD130100781999REMSYN004BUFREQDQ01.1    3APC3  
0085010160999992016011710004+78928+028892FM-12+002099999V0201531N0016199999999999999999-00351-00371102191ADDKA1010M-00351KA2010N-00371MA1999999102031MD1410001+9999OD130100501999REMSYN004BUFR
0090010160999992016011711004+78928+028892FM-12+002099999V0200491N0012199999999999999999-00371-00391102171ADDKA1010M-00331KA2010N-00401MA1999999102001MD1790029+9999REMSYN004BUFREQDQ01.3    3APC3  
0085010160999992016011712004+78928+028892FM-12+002099999V0201691N0035199999999999999999-00301-00371102131ADDKA1010M-00301KA2010N-00371MA1999999101971MD1710071+9999OD130600901999REMSYN004BUFR
0085010160999992016011713004+78928+028892FM-12+002099999V0201661N0050199999999999999999-00321-00381102101ADDKA1010M-00301KA2010N-00321MA1999999101941MD1710091+9999OD130100591999REMSYN004BUFR
0085010160999992016011714004+78928+028892FM-12+002099999V0201591N0051199999999999999999-00371-00411102081ADDKA1010M-00321KA2010N-00371MA1999999101921MD1710091+9999OD130100691999REMSYN004BUFR
0085010160999992016011715004+78928+028892FM-12+002099999V0201491N0029199999999999999999-00341-00361102061ADDKA1010M-00341KA2010N-00411MA1999999101901MD1710061+9999OD130100581999REMSYN004BUFR
0085010160999992016011716004+78928+028892FM-12+002099999V0201381N0057199999999999999999-00241-00281102041ADDKA1010M-00241KA2010N-00341MA1999999101881MD1710061+9999OD130100651999REMSYN004BUFR
0085010160999992016011717004+78928+028892FM-12+002099999V0201351N0065199999999999999999-00251-00301102001ADDKA1010M-00231KA2010N-00251MA1999999101841MD1710081+9999OD130100761999REMSYN004BUFR
0085010160999992016011718004+78928+028892FM-12+002099999V0201361N0066199999999999999999-00251-00301101971ADDKA1120M-00231KA2120N-00411MA1999999101811MD1710101+9999OD130600761999REMSYN004BUFR
0085010160999992016011719004+78928+028892FM-12+002099999V0201441N0064199999999999999999-00251-00301101941ADDKA1010M-00241KA2010N-00251MA1999999101781MD1710101+9999OD130100811999REMSYN004BUFR
0085010160999992016011720004+78928+028892FM-12+002099999V0201461N0073199999999999999999-00251-00351101941ADDKA1010M-00241KA2010N-00261MA1999999101781MD1710061+9999OD130100841999REMSYN004BUFR
0089010160999992016011721004+78933+028900FM-12+002099999V0201401N009019999999N999999999-00291-00411101901ADDMA1999999101741MD1710071+9999REMSYN04801016 46/// /1409 11029 21041 30174 40190 57007=
0085010160999992016011722004+78928+028892FM-12+002099999V0201271N0082199999999999999999-00321-00431101881ADDKA1010M-00291KA2010N-00331MA1999999101721MD1710061+9999OD130100951999REMSYN004BUFR
0085010160999992016011723004+78928+028892FM-12+002099999V0201221N0082199999999999999999-00341-00431101841ADDKA1010M-00321KA2010N-00351MA1999999101681MD1710101+9999OD130100911999REMSYN004BUFR
0085010160999992016011800004+78928+028892FM-12+002099999V0201341N0076199999999999999999-00301-00391101821ADDKA1010M-00301KA2010N-00341MA1999999101661MD1710081+9999OD130601101999REMSYN004BUFR
0085010160999992016011801004+78928+028892FM-12+002099999V0201441N0073199999999999999999-00321-00411101781ADDKA1010M-00291KA2010N-00321MA1999999101621MD1710101+9999OD130100951999REMSYN004BUFR
0085010160999992016011802004+78928+028892FM-12+002099999V0201351N0074199999999999999999-00371-00481101751ADDKA1010M-00321KA2010N-00371MA1999999101591MD1710091+9999OD130100851999REMSYN004BUFR
0085010160999992016011803004+78928+028892FM-12+002099999V0201331N0080199999999999999999-00421-00531101721ADDKA1010M-00381KA2010N-00431MA1999999101551MD1710101+9999OD130100941999REMSYN004BUFR
0085010160999992016011804004+78928+028892FM-12+002099999V0201281N0086199999999999999999-00421-00501101651ADDKA1010M-00411KA2010N-00461MA1999999101491MD1610131+9999OD130101011999REMSYN004BUFR
0085010160999992016011805004+78928+028892FM-12+002099999V0201481N0071199999999999999999-00341-00391101631ADDKA1010M-00341KA2010N-00411MA1999999101471MD1710131+9999OD130100961999REMSYN004BUFR
0085010160999992016011806004+78928+028892FM-12+002099999V0201611N0064199999999999999999-00401-00531101681ADDKA1120M-00241KA2120N-00461MA1999999101521MD1810031+9999OD130601061999REMSYN004BUFR
0085010160999992016011807004+78928+028892FM-12+002099999V0201711N0077199999999999999999-00471-00611101731ADDKA1010M-00421KA2010N-00481MA1999999101571MD1110081+9999OD130100841999REMSYN004BUFR
0085010160999992016011808004+78928+028892FM-12+002099999V0201641N0068199999999999999999-00501-00651101771ADDKA1010M-00441KA2010N-00511MA1999999101611MD1210141+9999OD130100821999REMSYN004BUFR
0085010160999992016011809004+78928+028892FM-12+002099999V0201601N0073199999999999999999-00521-00681101791ADDKA1010M-00521KA2010N-00541MA1999999101631MD1210101+9999OD130100801999REMSYN004BUFR
0085010160999992016011810004+78928+028892FM-12+002099999V0201531N0074199999999999999999-00501-00661101811ADDKA1010M-00511KA2010N-00541MA1999999101651MD1210081+9999OD130100801999REMSYN004BUFR
0085010160999992016011811004+78928+028892FM-12+002099999V0201541N0085199999999999999999-00451-00571101821ADDKA1010M-00461KA2010N-00511MA1999999101661MD1210051+9999OD130100941999REMSYN004BUFR
0085010160999992016011812004+78928+028892FM-12+002099999V0201551N0086199999999999999999-00401-00481101801ADDKA1010M-00401KA2010N-00461MA1999999101641MD1510011+9999OD130600991999REMSYN004BUFR
0104010160999992016011813004+78928+028892FM-12+002099999V0201611N0096199999999999999999-00341-00491101791ADDKA1010M-00341KA2010N-00401MA1999999101631MD1790029+9999OD130101151999REMSYN004BUFREQDQ01.2    3APC3  
0085010160999992016011814004+78928+028892FM-12+002099999V0201551N0099199999999999999999-00301-00401101791ADDKA1010M-00301KA2010N-00341MA1999999101631MD1710031+9999OD130101121999REMSYN004BUFR
0104010160999992016011815004+78928+028892FM-12+002099999V0201561N0075199999999999999999-00301-00361101791ADDKA1010M-00291KA2010N-00311MA1999999101631MD1790019+9999OD130101151999REMSYN004BUFREQDQ01.1    3APC3  
0104010160999992016011816004+78928+028892FM-12+002099999V0201641N0076199999999999999999-00271-00341101771ADDKA1010M-00271KA2010N-00301MA1999999101611MD1790029+9999OD130100831999REMSYN004BUFREQDQ01.2    3APC3  
0085010160999992016011817004+78928+028892FM-12+002099999V0201671N0094199999999999999999-00251-00321101751ADDKA1010M-00251KA2010N-00271MA1999999101591MD1710041+9999OD130101111999REMSYN004BUFR
0085010160999992016011818004+78928+028892FM-12+002099999V0201601N0095199999999999999999-00271-00341101751ADDKA1120M-00251KA2120N-00541MA1999999101591MD1710041+9999OD130601281999REMSYN004BUFR
0104010160999992016011819004+78928+028892FM-12+002099999V0201561N0085199999999999999999-00251-00411101761ADDKA1010M-00261KA2010N-00291MA1999999101601MD1790019+9999OD130101201999REMSYN004BUFREQDQ01.1    3APC3  
0104010160999992016011820004+78928+028892FM-12+002099999V0201611N0086199999999999999999-00291-00441101781ADDKA1010M-00261KA2010N-00291MA1999999101621MD1290039+9999OD130101121999REMSYN004BUFREQDQ01.3    3APC3  
0108010160999992016011821004+78933+028900FM-12+002099999V0201601N008019999999N999999999-00311-00451101771ADDMA1999999101611MD1290029+9999REMSYN04801016 46/// /1608 11031 21045 30161 40177 54002=EQDQ01.2    3APC3  
0085010160999992016011822004+78928+028892FM-12+002099999V0201631N0080199999999999999999-00321-00471101751ADDKA1010M-00311KA2010N-00321MA1999999101591MD1510001+9999OD130100971999REMSYN004BUFR
0085010160999992016011823004+78928+028892FM-12+002099999V0201551N0073199999999999999999-00351-00481101731ADDKA1010M-00321KA2010N-00371MA1999999101571MD1710041+9999OD130100941999REMSYN004BUFR
0085010160999992016011900004+78928+028892FM-12+002099999V0201481N0064199999999999999999-00421-00541101701ADDKA1010M-00371KA2010N-00421MA1999999101541MD1710071+9999OD130601201999REMSYN004BUFR
0085010160999992016011901004+78928+028892FM-12+002099999V0201541N0059199999999999999999-00421-00541101681ADDKA1010M-00421KA2010N-00441MA1999999101521MD1710081+9999OD130100671999REMSYN004BUFR
0085010160999992016011902004+78928+028892FM-12+002099999V0201471N0043199999999999999999-00471-00571101671ADDKA1010M-00431KA2010N-00471MA1999999101511MD1710061+9999OD130100641999REMSYN004BUFR
0085010160999992016011903004+78928+028892FM-12+002099999V0201501N0052199999999999999999-00501-00601101621ADDKA1010M-00471KA2010N-00511MA1999999101461MD1710081+9999OD130100561999REMSYN004BUFR
0085010160999992016011904004+78928+028892FM-12+002099999V0201411N0051199999999999999999-00541-00661101601ADDKA1010M-00501KA2010N-00541MA1999999101441MD1710071+9999OD130100561999REMSYN004BUFR
0085010160999992016011905004+78928+028892FM-12+002099999V0201421N0052199999999999999999-00501-00611101591ADDKA1010M-00511KA2010N-00571MA1999999101431MD1810081+9999OD130100601999REMSYN004BUFR
0085010160999992016011906004+78928+028892FM-12+002099999V0201401N0053199999999999999999-00541-00651101561ADDKA1120M-00261KA2120N-00621MA1999999101401MD1710061+9999OD130600671999REMSYN004BUFR
0085010160999992016011907004+78928+028892FM-12+002099999V0201441N0049199999999999999999-00571-00671101551ADDKA1010M-00551KA2010N-00571MA1999999101391MD1710051+9999OD130100531999REMSYN004BUFR
0085010160999992016011908004+78928+028892FM-12+002099999V0201461N0054199999999999999999-00571-00661101521ADDKA1010M-00561KA2010N-00611MA1999999101361MD1710071+9999OD130100591999REMSYN004BUFR
0085010160999992016011909004+78928+028892FM-12+002099999V0201511N0057199999999999999999-00541-00651101501ADDKA1010M-00511KA2010N-00601MA1999999101331MD1710071+9999OD130100681999REMSYN004BUFR
0085010160999992016011910004+78928+028892FM-12+002099999V0201491N0047199999999999999999-00451-00531101471ADDKA1010M-00451KA2010N-00541MA1999999101311MD1710081+9999OD130100621999REMSYN004BUFR
0085010160999992016011911004+78928+028892FM-12+002099999V0201481N0045199999999999999999-00521-00631101431ADDKA1010M-00461KA2010N-00531MA1999999101271MD1710081+9999OD130100531999REMSYN004BUFR
0085010160999992016011912004+78928+028892FM-12+002099999V0201481N0048199999999999999999-00491-00591101391ADDKA1010M-00491KA2010N-00531MA1999999101231MD1710101+9999OD130600681999REMSYN004BUFR
0085010160999992016011913004+78928+028892FM-12+002099999V0201651N0043199999999999999999-00441-00541101371ADDKA1010M-00441KA2010N-00491MA1999999101211MD1710101+9999OD130100521999REMSYN004BUFR
0085010160999992016011914004+78928+028892FM-12+002099999V0201721N0051199999999999999999-00451-00581101331ADDKA1010M-00431KA2010N-00461MA1999999101171MD1710101+9999OD130100551999REMSYN004BUFR
0085010160999992016011915004+78928+028892FM-12+002099999V0201501N0026199999999999999999-00521-00631101301ADDKA1010M-00461KA2010N-00531MA1999999101141MD1710091+9999OD130100531999REMSYN004BUFR
0071010160999992016011916004+78928+028892FM-12+002099999V0201391N0043199999999999999999-00621-00701101251ADDKA1010M-00531KA2010N-00721MA1999999101091MD1710121+9999REMSYN004BUFR
0085010160999992016011917004+78928+028892FM-12+002099999V0201421N0044199999999999999999-00551-00691101231ADDKA1010M-00551KA2010N-00611MA1999999101071MD1710101+9999OD130100531999REMSYN004BUFR
0085010160999992016011918004+78928+028892FM-12+002099999V0201451N0053199999999999999999-00571-00701101191ADDKA1120M-00431KA2120N-00721MA1999999101031MD1710111+9999OD130600681999REMSYN004BUFR
0085010160999992016011919004+78928+028892FM-12+002099999V0201511N0043199999999999999999-00551-00681101161ADDKA1010M-00551KA2010N-00571MA1999999101001MD1710091+9999OD130100571999REMSYN004BUFR
0085010160999992016011920004+78928+028892FM-12+002099999V0201631N0037199999999999999999-00571-00701101131ADDKA1010M-00561KA2010N-00581MA1999999100971MD1710101+9999OD130100501999REMSYN004BUFR
0071010160999992016011921004+78928+028892FM-12+002099999V0201591N0035199999999999999999-00591-00711101111ADDKA1010M-00581KA2010N-00601MA1999999100941MD1710081+9999REMSYN004BUFR
0071010160999992016011922004+78928+028892FM-12+002099999V0201521N0034199999999999999999-00601-00771101061ADDKA1010M-00591KA2010N-00621MA1999999100901MD1710091+9999REMSYN004BUFR
0071010160999992016011923004+78928+028892FM-12+002099999V0201441N0037199999999999999999-00741-00951101041ADDKA1010M-00611KA2010N-00741MA1999999100881MD1710101+9999REMSYN004BUFR
0085010160999992016012000004+78928+028892FM-12+002099999V0201451N0038199999999999999999-00701-00891101011ADDKA1010M-00701KA2010N-00741MA1999999100851MD1710091+9999OD130600571999REMSYN004BUFR
0071010160999992016012001004+78928+028892FM-12+002099999V0201401N0042199999999999999999-00701-00911100971ADDKA1010M-00701KA2010N-00711MA1999999100811MD1710091+9999REMSYN004BUFR
0071010160999992016012002004+78928+028892FM-12+002099999V0201471N0041199999999999999999-00671-00821100941ADDKA1010M-00671KA2010N-00701MA1999999100781MD1710101+9999REMSYN004BUFR
0071010160999992016012003004+78928+028892FM-12+002099999V0201591N0024199999999999999999-00691-00851100921ADDKA1010M-00641KA2010N-00701MA1999999100761MD1710101+9999REMSYN004BUFR
0071010160999992016012004004+78928+028892FM-12+002099999V0201681N0031199999999999999999-00651-00791100901ADDKA1010M-00651KA2010N-00701MA1999999100741MD1710071+9999REMSYN004BUFR
0071010160999992016012005004+78928+028892FM-12+002099999V0201711N0034199999999999999999-00651-00791100881ADDKA1010M-00661KA2010N-00671MA1999999100721MD1710061+9999REMSYN004BUFR
0071010160999992016012006004+78928+028892FM-12+002099999V0201781N0041199999999999999999-00651-00821100861ADDKA1120M-00551KA2120N-00741MA1999999100701MD1710061+9999REMSYN004BUFR
0071010160999992016012007004+78928+028892FM-12+002099999V0201691N0040199999999999999999-00651-00831100851ADDKA1010M-00651KA2010N-00671MA1999999100681MD1710051+9999REMSYN004BUFR
0085010160999992016012008004+78928+028892FM-12+002099999V0201791N0049199999999999999999-00621-00831100861ADDKA1010M-00631KA2010N-00661MA1999999100701MD1010021+9999OD130100571999REMSYN004BUFR
0085010160999992016012009004+78928+028892FM-12+002099999V0201821N0045199999999999999999-00621-00801100861ADDKA1010M-00621KA2010N-00631MA1999999100701MD1410001+9999OD130100521999REMSYN004BUFR
0085010160999992016012010004+78928+028892FM-12+002099999V0201851N0043199999999999999999-00621-00811100841ADDKA1010M-00621KA2010N-00631MA1999999100681MD1410001+9999OD130100511999REMSYN004BUFR
0085010160999992016012011004+78928+028892FM-12+002099999V0201861N0047199999999999999999-00601-00801100811ADDKA1010M-00601KA2010N-00621MA1999999100651MD1610051+9999OD130100551999REMSYN004BUFR
0085010160999992016012012004+78928+028892FM-12+002099999V0201851N0050199999999999999999-00571-00771100801ADDKA1010M-00581KA2010N-00611MA1999999100641MD1710061+9999OD130600591999REMSYN004BUFR
0085010160999992016012013004+78928+028892FM-12+002099999V0201941N0060199999999999999999-00571-00761100781ADDKA1010M-00571KA2010N-00591MA1999999100621MD1710071+9999OD130100671999REMSYN004BUFR
0104010160999992016012014004+78928+028892FM-12+002099999V0202041N0054199999999999999999-00551-00721100791ADDKA1010M-00561KA2010N-00571MA1999999100631MD1790029+9999OD130100651999REMSYN004BUFREQDQ01.1    3APC3  
0085010160999992016012015004+78928+028892FM-12+002099999V0201941N0060199999999999999999-00571-00691100771ADDKA1010M-00551KA2010N-00581MA1999999100611MD1710031+9999OD130100661999REMSYN004BUFR
0085010160999992016012016004+78928+028892FM-12+002099999V0201931N0044199999999999999999-00541-00701100771ADDKA1010M-00541KA2010N-00571MA1999999100611MD1410001+9999OD130100631999REMSYN004BUFR
0104010160999992016012017004+78928+028892FM-12+002099999V0201881N0039199999999999999999-00551-00701100761ADDKA1010M-00541KA2010N-00551MA1999999100601MD1790039+9999OD130100501999REMSYN004BUFREQDQ01.3    3APC3  
0085010160999992016012018004+78928+028892FM-12+002099999V0202001N0049199999999999999999-00521-00681100731ADDKA1120M-00531KA2120N-00671MA1999999100571MD1610031+9999OD130600671999REMSYN004BUFR
0085010160999992016012019004+78928+028892FM-12+002099999V0202121N0064199999999999999999-00501-00631100731ADDKA1010M-00511KA2010N-00531MA1999999100571MD1710041+9999OD130100691999REMSYN004BUFR
0085010160999992016012020004+78928+028892FM-12+002099999V0202001N0062199999999999999999-00491-00601100741ADDKA1010M-00491KA2010N-00511MA1999999100581MD1010021+9999OD130100721999REMSYN004BUFR
0104010160999992016012021004+78928+028892FM-12+002099999V0201881N0045199999999999999999-00501-00611100741ADDKA1010M-00491KA2010N-00511MA1999999100581MD1290019+9999OD130100681999REMSYN004BUFREQDQ01.1    3APC3  
0104010160999992016012022004+78928+028892FM-12+002099999V0201991N0034199999999999999999-00501-00621100751ADDKA1010M-00471KA2010N-00511MA1999999100591MD1290029+9999OD130100671999REMSYN004BUFREQDQ014     3APCTEN
0104010160999992016012023004+78928+028892FM-12+002099999V0202191N0036199999999999999999-00521-00611100761ADDKA1010M-00521KA2010N-00531MA1999999100601MD1290029+9999OD130100541999REMSYN004BUFREQDQ01.2    3APC3  
0104010160999992016012100004+78928+028892FM-12+002099999V0202131N0055199999999999999999-00491-00591100751ADDKA1010M-00481KA2010N-00531MA1999999100591MD1290019+9999OD130600721999REMSYN004BUFREQDQ01.1    3APC3  
0104010160999992016012101004+78928+028892FM-12+002099999V0202191N0039199999999999999999-00551-00671100771ADDKA1010M-00471KA2010N-00551MA1999999100611MD1290029+9999OD130100661999REMSYN004BUFREQDQ01.2    3APC3  
0104010160999992016012102004+78928+028892FM-12+002099999V0201941N0046199999999999999999-00671-00781100751ADDKA1010M-00561KA2010N-00691MA1999999100591MD1790019+9999OD130100571999REMSYN004BUFREQDQ01.1    3APC3  
0085010160999992016012103004+78928+028892FM-12+002099999V0201871N0050199999999999999999-00701-00801100741ADDKA1010M-00681KA2010N-00711MA1999999100581MD1510021+9999OD130100581999REMSYN004BUFR
0085010160999992016012104004+78928+028892FM-12+002099999V0201721N0050199999999999999999-00771-00871100721ADDKA1010M-00701KA2010N-00781MA1999999100561MD1710051+9999OD130100531999REMSYN004BUFR
0085010160999992016012105004+78928+028892FM-12+002099999V0201731N0052199999999999999999-00751-00901100681ADDKA1010M-00721KA2010N-00801MA1999999100521MD1710071+9999OD130100631999REMSYN004BUFR
0085010160999992016012106004+78928+028892FM-12+002099999V0201851N0047199999999999999999-00621-00741100671ADDKA1120M-00471KA2120N-00801MA1999999100511MD1710071+9999OD130600661999REMSYN004BUFR
0085010160999992016012107004+78928+028892FM-12+002099999V0201641N0064199999999999999999-00551-00661100621ADDKA1010M-00561KA2010N-00621MA1999999100461MD1710101+9999OD130100731999REMSYN004BUFR
0085010160999992016012108004+78928+028892FM-12+002099999V0201591N0069199999999999999999-00501-00641100591ADDKA1010M-00501KA2010N-00561MA1999999100431MD1710091+9999OD130100821999REMSYN004BUFR
0085010160999992016012109004+78928+028892FM-12+002099999V0201681N0090199999999999999999-00521-00731100501ADDKA1010M-00501KA2010N-00541MA1999999100341MD1610171+9999OD130101131999REMSYN004BUFR
0085010160999992016012110004+78928+028892FM-12+002099999V0202001N0100199999999999999999-00521-00681100481ADDKA1010M-00491KA2010N-00531MA1999999100321MD1710141+9999OD130101201999REMSYN004BUFR
0085010160999992016012111004+78928+028892FM-12+002099999V0202111N0069199999999999999999-00571-00681100491ADDKA1010M-00531KA2010N-00591MA1999999100331MD1810101+9999OD130101051999REMSYN004BUFR
0085010160999992016012112004+78928+028892FM-12+002099999V0202461N0050199999999999999999-00701-00891100551ADDKA1010M-00581KA2010N-00701MA1999999100391MD1110061+9999OD130601201999REMSYN004BUFR
0085010160999992016012113004+78928+028892FM-12+002099999V0202351N0055199999999999999999-00741-00921100551ADDKA1010M-00691KA2010N-00741MA1999999100391MD1210071+9999OD130100661999REMSYN004BUFR
0085010160999992016012114004+78928+028892FM-12+002099999V0202261N0043199999999999999999-00741-00851100541ADDKA1010M-00741KA2010N-00751MA1999999100381MD1310051+9999OD130100541999REMSYN004BUFR
0104010160999992016012115004+78928+028892FM-12+002099999V0202081N0022199999999999999999-00771-00861100551ADDKA1010M-00741KA2010N-00771MA1999999100381MD1410009+9999OD130100501999REMSYN004BUFREQDQ01.1    3APC3  
0090010160999992016012116004+78928+028892FM-12+002099999V0202621N0023199999999999999999-00871-00951100541ADDKA1010M-00771KA2010N-00891MA1999999100381MD1790019+9999REMSYN004BUFREQDQ01.1    3APC3  
0071010160999992016012117004+78928+028892FM-12+002099999V0202081N0017199999999999999999-00841-00921100501ADDKA1010M-00831KA2010N-00901MA1999999100341MD1610041+9999REMSYN004BUFR
0085010160999992016012118004+78928+028892FM-12+002099999V0201961N0008199999999999999999-00871-00951100481ADDKA1120M-00491KA2120N-00961MA1999999100321MD1710071+9999OD130600661999REMSYN004BUFR
0071010160999992016012119004+78928+028892FM-12+002099999V0201771N0015199999999999999999-00851-00911100451ADDKA1010M-00851KA2010N-00981MA1999999100291MD1710081+9999REMSYN004BUFR
0071010160999992016012120004+78928+028892FM-12+002099999V0201501N0022199999999999999999-00771-00851100421ADDKA1010M-00771KA2010N-00881MA1999999100261MD1710081+9999REMSYN004BUFR
0071010160999992016012121004+78928+028892FM-12+002099999V0201461N0016199999999999999999-00721-00811100381ADDKA1010M-00731KA2010N-00801MA1999999100221MD1710091+9999REMSYN004BUFR
0071010160999992016012122004+78928+028892FM-12+002099999V0201361N0026199999999999999999-00591-00651100331ADDKA1010M-00591KA2010N-00731MA1999999100171MD1710121+9999REMSYN004BUFR
0085010160999992016012123004+78928+028892FM-12+002099999V0201471N0051199999999999999999-00421-00481100241ADDKA1010M-00431KA2010N-00591MA1999999100081MD1610181+9999OD130100551999REMSYN004BUFR
0085010160999992016012200004+78928+028892FM-12+002099999V0202141N0035199999999999999999-00371-00431100221ADDKA1010M-00381KA2010N-00441MA1999999100061MD1810161+9999OD130600591999REMSYN004BUFR
0071010160999992016012201004+78928+028892FM-12+002099999V0202121N0021199999999999999999-00471-00531100221ADDKA1010M-00381KA2010N-00471MA1999999100061MD1810101+9999REMSYN004BUFR
0071010160999992016012202004+78928+028892FM-12+002099999V0201781N0044199999999999999999-00391-00431100191ADDKA1010M-00391KA2010N-00491MA1999999100031MD1710041+9999REMSYN004BUFR
0085010160999992016012203004+78928+028892FM-12+002099999V0202081N0018199999999999999999-00371-00411100181ADDKA1010M-00351KA2010N-00381MA1999999100021MD1710041+9999OD130100501999REMSYN004BUFR
0085010160999992016012204004+78928+028892FM-12+002099999V0202311N0044199999999999999999-00321-00361100131ADDKA1010M-00281KA2010N-00361MA1999999099981MD1710091+9999OD130100691999REMSYN004BUFR
0085010160999992016012205004+78928+028892FM-12+002099999V0202071N0043199999999999999999-00221-00271100111ADDKA1010M-00231KA2010N-00321MA1999999099951MD1710081+9999OD130100531999REMSYN004BUFR
0085010160999992016012206004+78928+028892FM-12+002099999V0202091N0094199999999999999999-00201-00261100051ADDKA1120M-00201KA2120N-00981MA1999999099901MD1710121+9999OD130601041999REMSYN004BUFR
0085010160999992016012207004+78928+028892FM-12+002099999V0202111N0107199999999999999999-00201-00251100031ADDKA1010M-00201KA2010N-00211MA1999999099871MD1710101+9999OD130101161999REMSYN004BUFR
0085010160999992016012208004+78928+028892FM-12+002099999V0202111N0103199999999999999999-00221-00261100051ADDKA1010M-00211KA2010N-00221MA1999999099891MD1810061+9999OD130101161999REMSYN004BUFR
0085010160999992016012209004+78928+028892FM-12+002099999V0202111N0120199999999999999999-00201-00241100021ADDKA1010M-00201KA2010N-00221MA1999999099861MD1710031+9999OD130101411999REMSYN004BUFR
0085010160999992016012210004+78928+028892FM-12+002099999V0202111N0114199999999999999999-00201-00251100001ADDKA1010M-00201KA2010N-00211MA1999999099851MD1510031+9999OD130101311999REMSYN004BUFR
0085010160999992016012211004+78928+028892FM-12+002099999V0202211N0114199999999999999999-00141-00201100001ADDKA1010M-00141KA2010N-00201MA1999999099841MD1710051+9999OD130101301999REMSYN004BUFR
0104010160999992016012212004+78928+028892FM-12+002099999V0202241N0111199999999999999999-00121-00171100001ADDKA1010M-00121KA2010N-00141MA1999999099851MD1790029+9999OD130601411999REMSYN004BUFREQDQ01.2    3APC3  
0085010160999992016012213004+78928+028892FM-12+002099999V0202321N0098199999999999999999-00101-00131100041ADDKA1010M-00111KA2010N-00131MA1999999099891MD1110041+9999OD130101281999REMSYN004BUFR
0085010160999992016012214004+78928+028892FM-12+002099999V0202681N0046199999999999999999-00201-00241100121ADDKA1010M-00101KA2010N-00201MA1999999099961MD1110121+9999OD130101031999REMSYN004BUFR
0085010160999992016012215004+78928+028892FM-12+002099999V0202701N0049199999999999999999-00241-00261100161ADDKA1010M-00201KA2010N-00241MA1999999100001MD1210161+9999OD130100571999REMSYN004BUFR
0085010160999992016012216004+78928+028892FM-12+002099999V0202551N0053199999999999999999-00271-00301100191ADDKA1010M-00241KA2010N-00301MA1999999100031MD1310151+9999OD130100581999REMSYN004BUFR
0085010160999992016012217004+78928+028892FM-12+002099999V0202951N0034199999999999999999-00301-00331100201ADDKA1010M-00281KA2010N-00311MA1999999100041MD1310081+9999OD130100511999REMSYN004BUFR
0085010160999992016012218004+78928+028892FM-12+002099999V0202721N0010199999999999999999-00321-00351100211ADDKA1120M-00101KA2120N-00331MA1999999100051MD1210051+9999OD130601281999REMSYN004BUFR
