0089010110999992016010100004+80067+031500FM-12+001099999V0201701N004019999999N999999999-00131-00141100591ADDMA1999999100481MD1210431+9999REMSYN04801011 46/// /1704 11013 21014 30048 40059 52043=
0089010110999992016010102004+80067+031500FM-12+001099999V0201201N005019999999N999999999-00061-00201100751ADDMA1999999100651MD1310291+9999REMSYN04801011 46/// /1205 11006 21020 30065 40075 53029=
0089010110999992016010105004+80067+031500FM-12+001099999V0201101N002019999999N999999999+00011-00241100961ADDMA1999999100861MD1310211+9999REMSYN04801011 46/// /1102 10001 21024 30086 40096 53021=
0089010110999992016010106004+80067+031500FM-12+001099999V0201001N003019999999N999999999+00061-00241101001ADDMA1999999100901MD1210151+9999REMSYN04801011 46/// /1003 10006 21024 30090 40100 52015=
0089010110999992016010107004+80067+031500FM-12+001099999V0201301N007019999999N999999999+00001-00201101081ADDMA1999999100971MD1210161+9999REMSYN04801011 46/// /1307 10000 21020 30097 40108 52016=
0089010110999992016010108004+80067+031500FM-12+001099999V0201101N007019999999N999999999+00061-00191101131ADDMA1999999101021MD1210161+9999REMSYN04801011 46/// /1107 10006 21019 30102 40113 52016=
0089010110999992016010109004+80067+031500FM-12+001099999V0201201N007019999999N999999999+00061-00181101121ADDMA1999999101011MD1310111+9999REMSYN04801011 46/// /1207 10006 21018 30101 40112 53011=
0089010110999992016010110004+80067+031500FM-12+001099999V0201101N009019999999N999999999+00051-00191101091ADDMA1999999100981MD1510001+9999REMSYN04801011 46/// /1109 10005 21019 30098 40109 55000=
0089010110999992016010111004+80067+031500FM-12+001099999V0201101N008019999999N999999999-00031-00201101091ADDMA1999999100981MD1710041+9999REMSYN04801011 46/// /1108 11003 21020 30098 40109 57004=
0089010110999992016010115004+80067+031500FM-12+001099999V0201201N009019999999N999999999+00101-00061100821ADDMA1999999100721MD1810221+9999REMSYN04801011 46/// /1209 10010 21006 30072 40082 58022=
0089010110999992016010116004+80067+031500FM-12+001099999V0201201N009019999999N999999999+00061-00071100811ADDMA1999999100711MD1810111+9999REMSYN04801011 46/// /1209 10006 21007 30071 40081 58011=
0089010110999992016010118004+80067+031500FM-12+001099999V0201201N013019999999N999999999+00011-00051100521ADDMA1999999100411MD1610301+9999REMSYN04801011 46/// /1213 10001 21005 30041 40052 56030=
0089010110999992016010119004+80067+031500FM-12+001099999V0201301N011019999999N999999999-00071-00091100561ADDMA1999999100461MD1810251+9999REMSYN04801011 46/// /1311 11007 21009 30046 40056 58025=
0089010110999992016010120004+80067+031500FM-12+001099999V0201501N010019999999N999999999-00101-00111100541ADDMA1999999100431MD1810151+9999REMSYN04801011 46/// /1510 11010 21011 30043 40054 58015=
0089010110999992016010122004+80067+031500FM-12+001099999V0201601N010019999999N999999999+00011-00051100611ADDMA1999999100501MD1110041+9999REMSYN04801011 46/// /1610 10001 21005 30050 40061 51004=
0089010110999992016010200004+80067+031500FM-12+001099999V0201701N011019999999N999999999+00021-00061100651ADDMA1999999100551MD1210071+9999REMSYN04801011 46/// /1711 10002 21006 30055 40065 52007=
0089010110999992016010202004+80067+031500FM-12+001099999V0201301N006019999999N999999999-00041-00101100761ADDMA1999999100651MD1210111+9999REMSYN04801011 46/// /1306 11004 21010 30065 40076 52011=
0089010110999992016010203004+80067+031500FM-12+001099999V0201601N005019999999N999999999-00011-00081100881ADDMA1999999100771MD1110221+9999REMSYN04801011 46/// /1605 11001 21008 30077 40088 51022=
0089010110999992016010204004+80067+031500FM-12+001099999V0201901N005019999999N999999999+00091-00011100871ADDMA1999999100761MD1210131+9999REMSYN04801011 46/// /1905 10009 21001 30076 40087 52013=
0089010110999992016010205004+80067+031500FM-12+001099999V0201501N008019999999N999999999+00011-00091100861ADDMA1999999100751MD1310101+9999REMSYN04801011 46/// /1508 10001 21009 30075 40086 53010=
0108010110999992016010206004+80067+031500FM-12+001099999V0201501N009019999999N999999999+00001-00091100861ADDMA1999999100761MD1790029+9999REMSYN04801011 46/// /1509 10000 21009 30076 40086 54001=EQDQ01.1    3APC3  
0089010110999992016010209004+80067+031500FM-12+001099999V0201301N009019999999N999999999-00031-00101100881ADDMA1999999100781MD1510021+9999REMSYN04801011 46/// /1309 11003 21010 30078 40088 55002=
0089010110999992016010210004+80067+031500FM-12+001099999V0201301N009019999999N999999999-00041-00091100821ADDMA1999999100721MD1610091+9999REMSYN04801011 46/// /1309 11004 21009 30072 40082 56009=
0089010110999992016010212004+80067+031500FM-12+001099999V0201501N010019999999N999999999+00001-00101100701ADDMA1999999100601MD1810181+9999REMSYN04801011 46/// /1510 10000 21010 30060 40070 58018=
0089010110999992016010216004+80067+031500FM-12+001099999V0201901N008019999999N999999999-00051-00151100541ADDMA1999999100431MD1810121+9999REMSYN04801011 46/// /1908 11005 21015 30043 40054 58012=
0089010110999992016010220004+80067+031500FM-12+001099999V0203101N005019999999N999999999-00201-00221101251ADDMA1999999101141MD1110631+9999REMSYN04801011 46/// /3105 11020 21022 30114 40125 51063=
0089010110999992016010221004+80067+031500FM-12+001099999V0203001N005019999999N999999999-00171-00191101431ADDMA1999999101331MD1210651+9999REMSYN04801011 46/// /3005 11017 21019 30133 40143 52065=
0089010110999992016010223004+80067+031500FM-12+001099999V0202801N003019999999N999999999-00141-00191101811ADDMA1999999101701MD1210561+9999REMSYN04801011 46/// /2803 11014 21019 30170 40181 52056=
0089010110999992016010302004+80067+031500FM-12+001099999V0203201N002019999999N999999999+00041-00091102111ADDMA1999999102001MD1310301+9999REMSYN04801011 46/// /3202 10004 21009 30200 40211 53030=
0089010110999992016010303004+80067+031500FM-12+001099999V0201101N004019999999N999999999-00181-00271102161ADDMA1999999102061MD1210201+9999REMSYN04801011 46/// /1104 11018 21027 30206 40216 52020=
0089010110999992016010304004+80067+031500FM-12+001099999V0201201N007019999999N999999999-00091-00221102181ADDMA1999999102071MD1310151+9999REMSYN04801011 46/// /1207 11009 21022 30207 40218 53015=
0089010110999992016010305004+80067+031500FM-12+001099999V0201201N008019999999N999999999-00121-00251102171ADDMA1999999102061MD1310061+9999REMSYN04801011 46/// /1208 11012 21025 30206 40217 53006=
0089010110999992016010306004+80067+031500FM-12+001099999V0201101N008019999999N999999999-00071-00241102141ADDMA1999999102031MD1510021+9999REMSYN04801011 46/// /1108 11007 21024 30203 40214 55002=
0089010110999992016010307004+80067+031500FM-12+001099999V0201201N007019999999N999999999-00141-00241102141ADDMA1999999102031MD1710041+9999REMSYN04801011 46/// /1207 11014 21024 30203 40214 57004=
0089010110999992016010308004+80067+031500FM-12+001099999V0201201N008019999999N999999999-00101-00171102101ADDMA1999999101991MD1710081+9999REMSYN04801011 46/// /1208 11010 21017 30199 40210 57008=
0089010110999992016010309004+80067+031500FM-12+001099999V0201501N011019999999N999999999-00021-00091102011ADDMA1999999101901MD1610131+9999REMSYN04801011 46/// /1511 11002 21009 30190 40201 56013=
0089010110999992016010311004+80067+031500FM-12+001099999V0201301N012019999999N999999999-00071-00121101871ADDMA1999999101761MD1710221+9999REMSYN04801011 46/// /1312 11007 21012 30176 40187 57022=
0089010110999992016010312004+80067+031500FM-12+001099999V0201301N012019999999N999999999-00021-00091101781ADDMA1999999101681MD1610221+9999REMSYN04801011 46/// /1312 11002 21009 30168 40178 56022=
0089010110999992016010313004+80067+031500FM-12+001099999V0201401N012019999999N999999999-00041-00101101691ADDMA1999999101581MD1710291+9999REMSYN04801011 46/// /1412 11004 21010 30158 40169 57029=
0089010110999992016010316004+80067+031500FM-12+001099999V0201401N013019999999N999999999-00031-00121101501ADDMA1999999101391MD1810191+9999REMSYN04801011 46/// /1413 11003 21012 30139 40150 58019=
0089010110999992016010317004+80067+031500FM-12+001099999V0201501N013019999999N999999999+00001-00131101431ADDMA1999999101321MD1710151+9999REMSYN04801011 46/// /1513 10000 21013 30132 40143 57015=
0089010110999992016010320004+80067+031500FM-12+001099999V0201601N012019999999N999999999-00011-00121101311ADDMA1999999101211MD1710111+9999REMSYN04801011 46/// /1612 11001 21012 30121 40131 57011=
0089010110999992016010322004+80067+031500FM-12+001099999V0201601N013019999999N999999999-00021-00091101311ADDMA1999999101201MD1810041+9999REMSYN04801011 46/// /1613 11002 21009 30120 40131 58004=
0089010110999992016010401004+80067+031500FM-12+001099999V0201801N009019999999N999999999-00071-00121101301ADDMA1999999101191MD1990011+9999REMSYN04801011 46/// /1809 11007 21012 30119 40130 50001=
0089010110999992016010403004+80067+031500FM-12+001099999V0201801N007019999999N999999999-00091-00131101311ADDMA1999999101201MD1310051+9999REMSYN04801011 46/// /1807 11009 21013 30120 40131 53005=
0108010110999992016010404004+80067+031500FM-12+001099999V0201801N004019999999N999999999-00101-00141101301ADDMA1999999101191MD1410009+9999REMSYN04801011 46/// /1804 11010 21014 30119 40130 54001=EQDQ01.1    3APC3  
0089010110999992016010405004+80067+031500FM-12+001099999V0201901N005019999999N999999999-00111-00131101271ADDMA1999999101161MD1710041+9999REMSYN04801011 46/// /1905 11011 21013 30116 40127 57004=
0089010110999992016010408004+80067+031500FM-12+001099999V0201201N003019999999N999999999-00161-00171101241ADDMA1999999101131MD1710041+9999REMSYN04801011 46/// /1203 11016 21017 30113 40124 57004=
0094010110999992016010409004+80067+031500FM-12+001099999V0201401N002019999999N999999999-00191-00201101211ADDMA1999999101111REMSYN04801011 46/// /1402 11019 21020 30111 40121 54003=EQDQ014     3APCTEN
0089010110999992016010410004+80067+031500FM-12+001099999V0201101N001019999999N999999999-00191-00201101201ADDMA1999999101091MD1710051+9999REMSYN04801011 46/// /1101 11019 21020 30109 40120 57005=
0089010110999992016010411004+80067+031500FM-12+001099999V0209999C999999999999N999999999-00181-00191101181ADDMA1999999101071MD1710061+9999REMSYN04801011 46/// /0000 11018 21019 30107 40118 57006=
0089010110999992016010412004+80067+031500FM-12+001099999V0200201N002019999999N999999999-00271-00311101171ADDMA1999999101061MD1710051+9999REMSYN04801011 46/// /0202 11027 21031 30106 40117 57005=
0089010110999992016010413004+80067+031500FM-12+001099999V0203601N003019999999N999999999-00281-00371101201ADDMA1999999101091MD1990001+9999REMSYN04801011 46/// /3603 11028 21037 30109 40120 50000=
0089010110999992016010414004+80067+031500FM-12+001099999V0203401N002019999999N999999999-00261-00401101241ADDMA1999999101131MD1110061+9999REMSYN04801011 46/// /3402 11026 21040 30113 40124 51006=
0089010110999992016010415004+80067+031500FM-12+001099999V0203301N002019999999N999999999-00251-00471101281ADDMA1999999101171MD1210111+9999REMSYN04801011 46/// /3302 11025 21047 30117 40128 52011=
0089010110999992016010416004+80067+031500FM-12+001099999V0202701N007019999999N999999999-00171-00361101351ADDMA1999999101241MD1110151+9999REMSYN04801011 46/// /2707 11017 21036 30124 40135 51015=
0089010110999992016010417004+80067+031500FM-12+001099999V0203001N008019999999N999999999-00251-00441101411ADDMA1999999101311MD1210181+9999REMSYN04801011 46/// /3008 11025 21044 30131 40141 52018=
0113010110999992016010418004+80067+031500FM-12+001099999V0203001N011019999999N999999999-00341-00681101511ADDMA1999999101401MD1210231+9999OD139901401999REMSYN05801011 46/// /3011 11034 21068 30140 40151 52023 333 91114=
0089010110999992016010419004+80067+031500FM-12+001099999V0203001N007019999999N999999999-00371-00651101591ADDMA1999999101481MD1210241+9999REMSYN04801011 46/// /3007 11037 21065 30148 40159 52024=
0089010110999992016010420004+80067+031500FM-12+001099999V0203201N008019999999N999999999-00481-00661101621ADDMA1999999101511MD1310211+9999REMSYN04801011 46/// /3208 11048 21066 30151 40162 53021=
0089010110999992016010421004+80067+031500FM-12+001099999V0203301N008019999999N999999999-00561-00761101711ADDMA1999999101601MD1210191+9999REMSYN04801011 46/// /3308 11056 21076 30160 40171 52019=
0089010110999992016010423004+80067+031500FM-12+001099999V0203201N006019999999N999999999-00591-00821101831ADDMA1999999101721MD1310201+9999REMSYN04801011 46/// /3206 11059 21082 30172 40183 53020=
0089010110999992016010501004+80067+031500FM-12+001099999V0203101N008019999999N999999999-00631-00871101951ADDMA1999999101841MD1210171+9999REMSYN04801011 46/// /3108 11063 21087 30184 40195 52017=
0089010110999992016010503004+80067+031500FM-12+001099999V0203301N005019999999N999999999-00671-00901102041ADDMA1999999101931MD1210151+9999REMSYN04801011 46/// /3305 11067 21090 30193 40204 52015=
0089010110999992016010504004+80067+031500FM-12+001099999V0203401N004019999999N999999999-00681-00891102091ADDMA1999999101981MD1210141+9999REMSYN04801011 46/// /3404 11068 21089 30198 40209 52014=
0089010110999992016010505004+80067+031500FM-12+001099999V0200101N004019999999N999999999-00801-01011102121ADDMA1999999102011MD1210101+9999REMSYN04801011 46/// /0104 11080 21101 30201 40212 52010=
0089010110999992016010507004+80067+031500FM-12+001099999V0200101N002019999999N999999999-00731-00931102201ADDMA1999999102091MD1210111+9999REMSYN04801011 46/// /0102 11073 21093 30209 40220 52011=
0089010110999992016010508004+80067+031500FM-12+001099999V0200101N001019999999N999999999-00681-00801102221ADDMA1999999102111MD1210101+9999REMSYN04801011 46/// /0101 11068 21080 30211 40222 52010=
0089010110999992016010509004+80067+031500FM-12+001099999V0200801N002019999999N999999999-00711-00831102241ADDMA1999999102131MD1210101+9999REMSYN04801011 46/// /0802 11071 21083 30213 40224 52010=
0089010110999992016010511004+80067+031500FM-12+001099999V0200901N006019999999N999999999-00571-00691102241ADDMA1999999102131MD1510031+9999REMSYN04801011 46/// /0906 11057 21069 30213 40224 55003=
0089010110999992016010512004+80067+031500FM-12+001099999V0200901N005019999999N999999999-00561-00721102231ADDMA1999999102121MD1510011+9999REMSYN04801011 46/// /0905 11056 21072 30212 40223 55001=
0089010110999992016010513004+80067+031500FM-12+001099999V0201201N006019999999N999999999-00481-00621102211ADDMA1999999102101MD1710051+9999REMSYN04801011 46/// /1206 11048 21062 30210 40221 57005=
0064010110999992016010521004+80070+031500FM-12+001099999V0201721N0048199999999999999999-00421-00621102091ADDMA1999999101981OD130100721999REMSYN004BUFREQDQ014     3APCTEN
0090010110999992016010522004+80070+031500FM-12+001099999V0202401N0012199999999999999999-00471-00691102091ADDKA1010M-00431KA2010N-00471MA1999999101981OD130100561999REMSYN004BUFREQDQ01.1    3APC3  
0089010110999992016010600004+80067+031500FM-12+001099999V0200501N001019999999N999999999-00511-00741102051ADDMA1999999101941MD1710051+9999REMSYN04801011 46/// /0501 11051 21074 30194 40205 57005=
0089010110999992016010601004+80067+031500FM-12+001099999V0209999C999999999999N999999999-00521-00741102031ADDMA1999999101921MD1710061+9999REMSYN04801011 46/// /0000 11052 21074 30192 40203 57006=
0089010110999992016010602004+80067+031500FM-12+001099999V0201101N003019999999N999999999-00551-00751102021ADDMA1999999101911MD1710051+9999REMSYN04801011 46/// /1103 11055 21075 30191 40202 57005=
0089010110999992016010603004+80067+031500FM-12+001099999V0200701N003019999999N999999999-00571-00761101971ADDMA1999999101861MD1610071+9999REMSYN04801011 46/// /0703 11057 21076 30186 40197 56007=
0089010110999992016010604004+80067+031500FM-12+001099999V0209999C999999999999N999999999-00561-00721101961ADDMA1999999101851MD1710071+9999REMSYN04801011 46/// /0000 11056 21072 30185 40196 57007=
0089010110999992016010605004+80067+031500FM-12+001099999V0200401N001019999999N999999999-00551-00691101951ADDMA1999999101841MD1810071+9999REMSYN04801011 46/// /0401 11055 21069 30184 40195 58007=
0132010110999992016010606004+80067+031500FM-12+001099999V0200101N001019999999N999999999-00541-00621101941ADDMA1999999101831MD1790039+9999OD139900401999REMSYN05801011 46/// /0101 11054 21062 30183 40194 54003 333 91104=EQDQ01.3    3APC3  
0089010110999992016010607004+80067+031500FM-12+001099999V0200201N005019999999N999999999-00691-00941101921ADDMA1999999101811MD1710041+9999REMSYN04801011 46/// /0205 11069 21094 30181 40192 57004=
0089010110999992016010608004+80067+031500FM-12+001099999V0203601N004019999999N999999999-00531-00851101951ADDMA1999999101841MD1990001+9999REMSYN04801011 46/// /3604 11053 21085 30184 40195 50000=
0089010110999992016010610004+80067+031500FM-12+001099999V0203401N006019999999N999999999-00511-00811101931ADDMA1999999101821MD1510011+9999REMSYN04801011 46/// /3406 11051 21081 30182 40193 55001=
0108010110999992016010611004+80067+031500FM-12+001099999V0203501N006019999999N999999999-00561-00801101921ADDMA1999999101811MD1790039+9999REMSYN04801011 46/// /3506 11056 21080 30181 40192 54003=EQDQ01.3    3APC3  
0094010110999992016010612004+80067+031500FM-12+001099999V0203401N007019999999N999999999-00541-00741101931ADDMA1999999101821REMSYN04801011 46/// /3407 11054 21074 30182 40193 54001=EQDQ014     3APCTEN
0108010110999992016010613004+80067+031500FM-12+001099999V0203601N009019999999N999999999-00611-00771101901ADDMA1999999101791MD1790039+9999REMSYN04801011 46/// /3609 11061 21077 30179 40190 54002=EQDQ01.2    3APC3  
0089010110999992016010614004+80067+031500FM-12+001099999V0203601N011019999999N999999999-00681-00881101931ADDMA1999999101811MD1410001+9999REMSYN04801011 46/// /3611 11068 21088 30181 40193 54000=
0089010110999992016010615004+80067+031500FM-12+001099999V0203601N010019999999N999999999-00731-00961101951ADDMA1999999101841MD1990021+9999REMSYN04801011 46/// /3610 11073 21096 30184 40195 50002=
0089010110999992016010616004+80067+031500FM-12+001099999V0200101N011019999999N999999999-00721-00961101951ADDMA1999999101831MD1210041+9999REMSYN04801011 46/// /0111 11072 21096 30183 40195 52004=
0089010110999992016010617004+80067+031500FM-12+001099999V0200101N010019999999N999999999-00731-00971101981ADDMA1999999101871MD1210061+9999REMSYN04801011 46/// /0110 11073 21097 30187 40198 52006=
0113010110999992016010618004+80067+031500FM-12+001099999V0200101N010019999999N999999999-00761-01031102021ADDMA1999999101911MD1110081+9999OD139901201999REMSYN05801011 46/// /0110 11076 21103 30191 40202 51008 333 91112=
0089010110999992016010619004+80067+031500FM-12+001099999V0203601N011019999999N999999999-00781-00961102031ADDMA1999999101921MD1210091+9999REMSYN04801011 46/// /3611 11078 21096 30192 40203 52009=
0089010110999992016010620004+80067+031500FM-12+001099999V0203601N008019999999N999999999-00761-01181102081ADDMA1999999101961MD1210091+9999REMSYN04801011 46/// /3608 11076 21118 30196 40208 52009=
0089010110999992016010621004+80067+031500FM-12+001099999V0203401N005019999999N999999999-00751-01251102071ADDMA1999999101961MD1210051+9999REMSYN04801011 46/// /3405 11075 21125 30196 40207 52005=
0089010110999992016010622004+80067+031500FM-12+001099999V0200301N008019999999N999999999-00871-01181102141ADDMA1999999102031MD1210111+9999REMSYN04801011 46/// /0308 11087 21118 30203 40214 52011=
0089010110999992016010623004+80067+031500FM-12+001099999V0200201N011019999999N999999999-00971-01231102171ADDMA1999999102051MD1210091+9999REMSYN04801011 46/// /0211 11097 21123 30205 40217 52009=
0113010110999992016010700004+80067+031500FM-12+001099999V0200301N010019999999N999999999-01131-01421102221ADDMA1999999102111MD1210151+9999OD139901301999REMSYN05801011 46/// /0310 11113 21142 30211 40222 52015 333 91113=
0089010110999992016010701004+80067+031500FM-12+001099999V0200201N008019999999N999999999-01091-01371102281ADDMA1999999102171MD1110141+9999REMSYN04801011 46/// /0208 11109 21137 30217 40228 51014=
0089010110999992016010702004+80067+031500FM-12+001099999V0200201N007019999999N999999999-01081-01371102321ADDMA1999999102201MD1210151+9999REMSYN04801011 46/// /0207 11108 21137 30220 40232 52015=
0089010110999992016010703004+80067+031500FM-12+001099999V0200201N007019999999N999999999-01101-01371102321ADDMA1999999102201MD1310091+9999REMSYN04801011 46/// /0207 11110 21137 30220 40232 53009=
0089010110999992016010704004+80067+031500FM-12+001099999V0200101N007019999999N999999999-01091-01421102351ADDMA1999999102231MD1210061+9999REMSYN04801011 46/// /0107 11109 21142 30223 40235 52006=
0089010110999992016010705004+80067+031500FM-12+001099999V0200101N008019999999N999999999-01151-01441102371ADDMA1999999102261MD1210061+9999REMSYN04801011 46/// /0108 11115 21144 30226 40237 52006=
0132010110999992016010706004+80067+031500FM-12+001099999V0200101N006019999999N999999999-01161-01451102401ADDKA1240N-01191MA1999999102281MD1210081+9999OD139901101999REMSYN06401011 46/// /0106 11116 21145 30228 40240 52008 333 21119 91111=
0089010110999992016010707004+80067+031500FM-12+001099999V0200201N007019999999N999999999-01221-01521102431ADDMA1999999102311MD1210081+9999REMSYN04801011 46/// /0207 11122 21152 30231 40243 52008=
0089010110999992016010708004+80067+031500FM-12+001099999V0200201N008019999999N999999999-01251-01481102461ADDMA1999999102351MD1210091+9999REMSYN04801011 46/// /0208 11125 21148 30235 40246 52009=
0089010110999992016010709004+80067+031500FM-12+001099999V0203401N006019999999N999999999-01201-01541102471ADDMA1999999102361MD1210081+9999REMSYN04801011 46/// /3406 11120 21154 30236 40247 52008=
0089010110999992016010710004+80067+031500FM-12+001099999V0200201N007019999999N999999999-01241-01531102461ADDMA1999999102341MD1510031+9999REMSYN04801011 46/// /0207 11124 21153 30234 40246 55003=
0108010110999992016010712004+80067+031500FM-12+001099999V0200201N006019999999N999999999-01231-01621102451ADDMA1999999102331MD1790029+9999REMSYN04801011 46/// /0206 11123 21162 30233 40245 54003=EQDQ01.3    3APC3  
0089010110999992016010713004+80067+031500FM-12+001099999V0200201N007019999999N999999999-01221-01561102421ADDMA1999999102311MD1710031+9999REMSYN04801011 46/// /0207 11122 21156 30231 40242 57003=
0089010110999992016010714004+80067+031500FM-12+001099999V0200201N006019999999N999999999-01221-01551102421ADDMA1999999102301MD1710041+9999REMSYN04801011 46/// /0206 11122 21155 30230 40242 57004=
0089010110999992016010715004+80067+031500FM-12+001099999V0200101N005019999999N999999999-01181-01531102391ADDMA1999999102271MD1710061+9999REMSYN04801011 46/// /0105 11118 21153 30227 40239 57006=
0089010110999992016010716004+80067+031500FM-12+001099999V0200401N004019999999N999999999-01201-01501102351ADDMA1999999102241MD1710071+9999REMSYN04801011 46/// /0404 11120 21150 30224 40235 57007=
0089010110999992016010717004+80067+031500FM-12+001099999V0200401N004019999999N999999999-01191-01511102331ADDMA1999999102221MD1710081+9999REMSYN04801011 46/// /0404 11119 21151 30222 40233 57008=
0089010110999992016010719004+80067+031500FM-12+001099999V0200501N006019999999N999999999-01191-01531102291ADDMA1999999102181MD1710061+9999REMSYN04801011 46/// /0506 11119 21153 30218 40229 57006=
0089010110999992016010720004+80067+031500FM-12+001099999V0200501N006019999999N999999999-01181-01531102271ADDMA1999999102151MD1710071+9999REMSYN04801011 46/// /0506 11118 21153 30215 40227 57007=
0094010110999992016010721004+80067+031500FM-12+001099999V0200501N008019999999N999999999-01181-01541102281ADDMA1999999102171REMSYN04801011 46/// /0508 11118 21154 30217 40228 54002=EQDQ014     3APCTEN
0078010110999992016010723004+80070+031500FM-12+001099999V0200591N0075199999999999999999-01251-01561102291ADDMA1999999102181MD1290029+9999OD130100811999REMSYN004BUFREQDQ01.2    3APC3  
0108010110999992016010800004+80067+031500FM-12+001099999V0200501N006019999999N999999999-01271-01631102291ADDMA1999999102181MD1290019+9999REMSYN04801011 46/// /0506 11127 21163 30218 40229 54001=EQDQ01.1    3APC3  
0089010110999992016010801004+80067+031500FM-12+001099999V0200401N006019999999N999999999-01461-01811102331ADDMA1999999102211MD1210051+9999REMSYN04801011 46/// /0406 11146 21181 30221 40233 52005=
0089010110999992016010802004+80067+031500FM-12+001099999V0200401N005019999999N999999999-01411-01791102331ADDMA1999999102211MD1210041+9999REMSYN04801011 46/// /0405 11141 21179 30221 40233 52004=
0089010110999992016010803004+80067+031500FM-12+001099999V0200501N006019999999N999999999-01451-01801102321ADDMA1999999102201MD1510021+9999REMSYN04801011 46/// /0506 11145 21180 30220 40232 55002=
0108010110999992016010804004+80067+031500FM-12+001099999V0200401N007019999999N999999999-01541-01901102311ADDMA1999999102201MD1790029+9999REMSYN04801011 46/// /0407 11154 21190 30220 40231 54001=EQDQ014     3APCTEN
0108010110999992016010805004+80067+031500FM-12+001099999V0200501N007019999999N999999999-01601-01931102301ADDMA1999999102191MD1790039+9999REMSYN04801011 46/// /0507 11160 21193 30219 40230 54002=EQDQ01.2    3APC3  
0132010110999992016010806004+80067+031500FM-12+001099999V0200401N007019999999N999999999-01521-01861102311ADDMA1999999102191MD1790019+9999OD139900801999REMSYN05801011 46/// /0407 11152 21186 30219 40231 54001 333 91108=EQDQ01.1    3APC3  
0108010110999992016010807004+80067+031500FM-12+001099999V0200401N006019999999N999999999-01581-01901102331ADDMA1999999102211MD1290029+9999REMSYN04801011 46/// /0406 11158 21190 30221 40233 54002=EQDQ01.2    3APC3  
0108010110999992016010809004+80067+031500FM-12+001099999V0200501N007019999999N999999999-01641-01931102331ADDMA1999999102221MD1290029+9999REMSYN04801011 46/// /0507 11164 21193 30222 40233 54002=EQDQ01.2    3APC3  
0089010110999992016010811004+80067+031500FM-12+001099999V0200501N007019999999N999999999-01631-01831102371ADDMA1999999102261MD1210041+9999REMSYN04801011 46/// /0507 11163 21183 30226 40237 52004=
0094010110999992016010813004+80067+031500FM-12+001099999V0200401N005019999999N999999999-01391-01651102361ADDMA1999999102241REMSYN04801011 46/// /0405 11139 21165 30224 40236 54001=EQDQ014     3APCTEN
0089010110999992016010814004+80067+031500FM-12+001099999V0200301N005019999999N999999999-01281-01541102371ADDMA1999999102261MD1990001+9999REMSYN04801011 46/// /0305 11128 21154 30226 40237 50000=
0089010110999992016010816004+80067+031500FM-12+001099999V0200201N007019999999N999999999-01431-01711102351ADDMA1999999102241MD1510001+9999REMSYN04801011 46/// /0207 11143 21171 30224 40235 55000=
0089010110999992016010817004+80067+031500FM-12+001099999V0200201N008019999999N999999999-01451-01701102381ADDMA1999999102261MD1410001+9999REMSYN04801011 46/// /0208 11145 21170 30226 40238 54000=
0089010110999992016010819004+80067+031500FM-12+001099999V0200401N007019999999N999999999-01401-01671102391ADDMA1999999102271MD1210041+9999REMSYN04801011 46/// /0407 11140 21167 30227 40239 52004=
0089010110999992016010821004+80067+031500FM-12+001099999V0200501N006019999999N999999999-01321-01621102411ADDMA1999999102301MD1210031+9999REMSYN04801011 46/// /0506 11132 21162 30230 40241 52003=
0094010110999992016010823004+80067+031500FM-12+001099999V0200401N005019999999N999999999-01111-01401102431ADDMA1999999102321REMSYN04801011 46/// /0405 11111 21140 30232 40243 54003=EQDQ014     3APCTEN
0094010110999992016010903004+80067+031500FM-12+001099999V0200501N005019999999N999999999-01311-01621102461ADDMA1999999102341REMSYN04801011 46/// /0505 11131 21162 30234 40246 54001=EQDQ014     3APCTEN
0094010110999992016010904004+80067+031500FM-12+001099999V0200401N006019999999N999999999-01351-01621102441ADDMA1999999102331REMSYN04801011 46/// /0406 11135 21162 30233 40244 54001=EQDQ014     3APCTEN
0094010110999992016010905004+80067+031500FM-12+001099999V0200501N006019999999N999999999-01361-01561102441ADDMA1999999102321REMSYN04801011 46/// /0506 11136 21156 30232 40244 54002=EQDQ01.2    3APC3  
0089010110999992016010906004+80067+031500FM-12+001099999V0200401N005019999999N999999999-01311-01581102461ADDMA1999999102341MD1990001+9999REMSYN04801011 46/// /0405 11131 21158 30234 40246 50000=
0089010110999992016010907004+80067+031500FM-12+001099999V0200301N007019999999N999999999-01331-01571102441ADDMA1999999102331MD1410001+9999REMSYN04801011 46/// /0307 11133 21157 30233 40244 54000=
0108010110999992016010908004+80067+031500FM-12+001099999V0200301N007019999999N999999999-01331-01571102451ADDMA1999999102341MD1290019+9999REMSYN04801011 46/// /0307 11133 21157 30234 40245 54001=EQDQ014     3APCTEN
0089010110999992016010910004+80067+031500FM-12+001099999V0200301N008019999999N999999999-01221-01491102451ADDMA1999999102331MD1410001+9999REMSYN04801011 46/// /0308 11122 21149 30233 40245 54000=
0089010110999992016010912004+80067+031500FM-12+001099999V0200401N008019999999N999999999-01321-01581102401ADDMA1999999102291MD1710051+9999REMSYN04801011 46/// /0408 11132 21158 30229 40240 57005=
0094010110999992016010914004+80067+031500FM-12+001099999V0200401N008019999999N999999999-01181-01431102411ADDMA1999999102291REMSYN04801011 46/// /0408 11118 21143 30229 40241 54002=EQDQ014     3APCTEN
0108010110999992016010915004+80067+031500FM-12+001099999V0200401N007019999999N999999999-01201-01461102421ADDMA1999999102301MD1290029+9999REMSYN04801011 46/// /0407 11120 21146 30230 40242 54001=EQDQ01.1    3APC3  
0094010110999992016010916004+80067+031500FM-12+001099999V0200401N006019999999N999999999-01141-01441102431ADDMA1999999102311REMSYN04801011 46/// /0406 11114 21144 30231 40243 54002=EQDQ014     3APCTEN
0108010110999992016010917004+80067+031500FM-12+001099999V0200301N005019999999N999999999-01091-01391102421ADDMA1999999102301MD1290019+9999REMSYN04801011 46/// /0305 11109 21139 30230 40242 54001=EQDQ01.1    3APC3  
0108010110999992016010919004+80067+031500FM-12+001099999V0200301N007019999999N999999999-01111-01411102421ADDMA1999999102301MD1790019+9999REMSYN04801011 46/// /0307 11111 21141 30230 40242 54001=EQDQ01.1    3APC3  
0108010110999992016010920004+80067+031500FM-12+001099999V0200201N006019999999N999999999-01101-01401102411ADDMA1999999102301MD1790019+9999REMSYN04801011 46/// /0206 11110 21140 30230 40241 54001=EQDQ01.1    3APC3  
0089010110999992016010921004+80067+031500FM-12+001099999V0200201N006019999999N999999999-01061-01351102431ADDMA1999999102311MD1410001+9999REMSYN04801011 46/// /0206 11106 21135 30231 40243 54000=
0059010110999992016010923004+80070+031500FM-12+001099999V0200121N0042199999999999999999-01001-01271102391ADDMA1999999102281MD1510021+9999OD130100641999REMSYN004BUFR
0089010110999992016011000004+80067+031500FM-12+001099999V0200201N004019999999N999999999-00971-01261102411ADDMA1999999102301MD1990011+9999REMSYN04801011 46/// /0204 11097 21126 30230 40241 50001=
0094010110999992016011001004+80067+031500FM-12+001099999V0200301N005019999999N999999999-00961-01251102411ADDMA1999999102291REMSYN04801011 46/// /0305 11096 21125 30229 40241 54001=EQDQ014     3APCTEN
0089010110999992016011002004+80067+031500FM-12+001099999V0200201N005019999999N999999999-00951-01241102391ADDMA1999999102281MD1510001+9999REMSYN04801011 46/// /0205 11095 21124 30228 40239 55000=
0108010110999992016011003004+80067+031500FM-12+001099999V0200401N005019999999N999999999-00921-01261102391ADDMA1999999102271MD1790029+9999REMSYN04801011 46/// /0405 11092 21126 30227 40239 54003=EQDQ01.3    3APC3  
0089010110999992016011004004+80067+031500FM-12+001099999V0200201N006019999999N999999999-00861-01231102371ADDMA1999999102261MD1710041+9999REMSYN04801011 46/// /0206 11086 21123 30226 40237 57004=
0108010110999992016011006004+80067+031500FM-12+001099999V0200201N005019999999N999999999-00881-01231102371ADDMA1999999102261MD1790029+9999REMSYN04801011 46/// /0205 11088 21123 30226 40237 54001=EQDQ014     3APCTEN
0108010110999992016011007004+80067+031500FM-12+001099999V0200201N005019999999N999999999-00831-01201102391ADDMA1999999102281MD1290029+9999REMSYN04801011 46/// /0205 11083 21120 30228 40239 54002=EQDQ01.2    3APC3  
0089010110999992016011008004+80067+031500FM-12+001099999V0200201N006019999999N999999999-00841-01151102411ADDMA1999999102301MD1110041+9999REMSYN04801011 46/// /0206 11084 21115 30230 40241 51004=
0089010110999992016011009004+80067+031500FM-12+001099999V0200201N005019999999N999999999-00851-01201102461ADDMA1999999102351MD1210091+9999REMSYN04801011 46/// /0205 11085 21120 30235 40246 52009=
0089010110999992016011010004+80067+031500FM-12+001099999V0200201N004019999999N999999999-00851-01221102461ADDMA1999999102351MD1210071+9999REMSYN04801011 46/// /0204 11085 21122 30235 40246 52007=
0089010110999992016011013004+80067+031500FM-12+001099999V0200601N004019999999N999999999-00821-01211102511ADDMA1999999102401MD1210051+9999REMSYN04801011 46/// /0604 11082 21121 30240 40251 52005=
0089010110999992016011014004+80067+031500FM-12+001099999V0200601N004019999999N999999999-00781-01231102531ADDMA1999999102421MD1210061+9999REMSYN04801011 46/// /0604 11078 21123 30242 40253 52006=
0089010110999992016011015004+80067+031500FM-12+001099999V0200501N004019999999N999999999-00831-01231102551ADDMA1999999102431MD1210041+9999REMSYN04801011 46/// /0504 11083 21123 30243 40255 52004=
0089010110999992016011016004+80067+031500FM-12+001099999V0200501N005019999999N999999999-00821-01251102551ADDMA1999999102441MD1210041+9999REMSYN04801011 46/// /0505 11082 21125 30244 40255 52004=
0089010110999992016011018004+80067+031500FM-12+001099999V0200501N005019999999N999999999-00841-01221102591ADDMA1999999102481MD1210041+9999REMSYN04801011 46/// /0505 11084 21122 30248 40259 52004=
0089010110999992016011019004+80067+031500FM-12+001099999V0200701N004019999999N999999999-00801-01231102631ADDMA1999999102521MD1210071+9999REMSYN04801011 46/// /0704 11080 21123 30252 40263 52007=
0089010110999992016011020004+80067+031500FM-12+001099999V0200701N004019999999N999999999-00811-01211102671ADDMA1999999102551MD1210091+9999REMSYN04801011 46/// /0704 11081 21121 30255 40267 52009=
0089010110999992016011021004+80067+031500FM-12+001099999V0200801N003019999999N999999999-00801-01231102711ADDMA1999999102601MD1210121+9999REMSYN04801011 46/// /0803 11080 21123 30260 40271 52012=
0089010110999992016011022004+80067+031500FM-12+001099999V0200701N003019999999N999999999-00811-01241102741ADDMA1999999102631MD1210111+9999REMSYN04801011 46/// /0703 11081 21124 30263 40274 52011=
0089010110999992016011023004+80067+031500FM-12+001099999V0200901N003019999999N999999999-00831-01251102771ADDMA1999999102651MD1210101+9999REMSYN04801011 46/// /0903 11083 21125 30265 40277 52010=
0113010110999992016011100004+80067+031500FM-12+001099999V0200901N002019999999N999999999-00841-01291102801ADDMA1999999102691MD1210091+9999OD139900601999REMSYN05801011 46/// /0902 11084 21129 30269 40280 52009 333 91106=
0089010110999992016011103004+80067+031500FM-12+001099999V0201101N003019999999N999999999-00821-01271102881ADDMA1999999102771MD1210081+9999REMSYN04801011 46/// /1103 11082 21127 30277 40288 52008=
0089010110999992016011104004+80067+031500FM-12+001099999V0201001N002019999999N999999999-00851-01281102911ADDMA1999999102801MD1210091+9999REMSYN04801011 46/// /1002 11085 21128 30280 40291 52009=
0089010110999992016011105004+80067+031500FM-12+001099999V0200901N003019999999N999999999-00771-01251102921ADDMA1999999102811MD1210061+9999REMSYN04801011 46/// /0903 11077 21125 30281 40292 52006=
0089010110999992016011106004+80067+031500FM-12+001099999V0201001N003019999999N999999999-00851-01251102971ADDMA1999999102861MD1210091+9999REMSYN04801011 46/// /1003 11085 21125 30286 40297 52009=
0089010110999992016011107004+80067+031500FM-12+001099999V0201001N003019999999N999999999-00801-01281103031ADDMA1999999102921MD1110121+9999REMSYN04801011 46/// /1003 11080 21128 30292 40303 51012=
0089010110999992016011108004+80067+031500FM-12+001099999V0200901N003019999999N999999999-00911-01321103081ADDMA1999999102971MD1210161+9999REMSYN04801011 46/// /0903 11091 21132 30297 40308 52016=
0089010110999992016011109004+80067+031500FM-12+001099999V0200901N003019999999N999999999-01041-01431103111ADDMA1999999102991MD1310141+9999REMSYN04801011 46/// /0903 11104 21143 30299 40311 53014=
0089010110999992016011110004+80067+031500FM-12+001099999V0200801N003019999999N999999999-01051-01431103151ADDMA1999999103031MD1210111+9999REMSYN04801011 46/// /0803 11105 21143 30303 40315 52011=
0089010110999992016011111004+80067+031500FM-12+001099999V0200901N004019999999N999999999-01071-01451103181ADDMA1999999103061MD1210101+9999REMSYN04801011 46/// /0904 11107 21145 30306 40318 52010=
0113010110999992016011112004+80067+031500FM-12+001099999V0200801N003019999999N999999999-01031-01391103231ADDMA1999999103121MD1210121+9999OD139900501999REMSYN05801011 46/// /0803 11103 21139 30312 40323 52012 333 91105=
0089010110999992016011113004+80067+031500FM-12+001099999V0200801N004019999999N999999999-01051-01371103251ADDMA1999999103141MD1210101+9999REMSYN04801011 46/// /0804 11105 21137 30314 40325 52010=
0089010110999992016011114004+80067+031500FM-12+001099999V0200801N003019999999N999999999-01051-01331103271ADDMA1999999103161MD1210101+9999REMSYN04801011 46/// /0803 11105 21133 30316 40327 52010=
0089010110999992016011115004+80067+031500FM-12+001099999V0200801N003019999999N999999999-01021-01331103311ADDMA1999999103201MD1210081+9999REMSYN04801011 46/// /0803 11102 21133 30320 40331 52008=
0089010110999992016011116004+80067+031500FM-12+001099999V0200801N004019999999N999999999-01051-01351103331ADDMA1999999103221MD1210081+9999REMSYN04801011 46/// /0804 11105 21135 30322 40333 52008=
0089010110999992016011117004+80067+031500FM-12+001099999V0200901N003019999999N999999999-01061-01351103341ADDMA1999999103231MD1210071+9999REMSYN04801011 46/// /0903 11106 21135 30323 40334 52007=
0132010110999992016011118004+80067+031500FM-12+001099999V0200801N004019999999N999999999-01081-01361103381ADDKA1120M-00791MA1999999103261MD1210061+9999OD139900401999REMSYN06401011 46/// /0804 11108 21136 30326 40338 52006 333 11079 91104=
0089010110999992016011119004+80067+031500FM-12+001099999V0200801N003019999999N999999999-01001-01321103421ADDMA1999999103301MD1210081+9999REMSYN04801011 46/// /0803 11100 21132 30330 40342 52008=
0089010110999992016011120004+80067+031500FM-12+001099999V0200801N003019999999N999999999-01011-01341103441ADDMA1999999103331MD1210101+9999REMSYN04801011 46/// /0803 11101 21134 30333 40344 52010=
0089010110999992016011121004+80067+031500FM-12+001099999V0200801N002019999999N999999999-00971-01281103471ADDMA1999999103361MD1210101+9999REMSYN04801011 46/// /0802 11097 21128 30336 40347 52010=
0089010110999992016011122004+80067+031500FM-12+001099999V0200801N003019999999N999999999-00971-01261103491ADDMA1999999103371MD1210071+9999REMSYN04801011 46/// /0803 11097 21126 30337 40349 52007=
0089010110999992016011123004+80067+031500FM-12+001099999V0200801N003019999999N999999999-00951-01231103481ADDMA1999999103371MD1310041+9999REMSYN04801011 46/// /0803 11095 21123 30337 40348 53004=
0132010110999992016011200004+80067+031500FM-12+001099999V0200701N002019999999N999999999-00931-01211103491ADDMA1999999103381MD1290029+9999OD139900401999REMSYN05801011 46/// /0702 11093 21121 30338 40349 54002 333 91104=EQDQ01.2    3APC3  
0108010110999992016011201004+80067+031500FM-12+001099999V0200501N002019999999N999999999-00891-01181103501ADDMA1999999103391MD1290019+9999REMSYN04801011 46/// /0502 11089 21118 30339 40350 54002=EQDQ01.2    3APC3  
0108010110999992016011202004+80067+031500FM-12+001099999V0200301N002019999999N999999999-00871-01151103511ADDMA1999999103391MD1290039+9999REMSYN04801011 46/// /0302 11087 21115 30339 40351 54003=EQDQ01.3    3APC3  
0089010110999992016011203004+80067+031500FM-12+001099999V0200201N001019999999N999999999-00911-01261103491ADDMA1999999103381MD1410001+9999REMSYN04801011 46/// /0201 11091 21126 30338 40349 54000=
0108010110999992016011204004+80067+031500FM-12+001099999V0200201N002019999999N999999999-00911-01261103481ADDMA1999999103371MD1790029+9999REMSYN04801011 46/// /0202 11091 21126 30337 40348 54002=EQDQ01.2    3APC3  
0108010110999992016011205004+80067+031500FM-12+001099999V0200101N003019999999N999999999-00971-01341103481ADDMA1999999103371MD1790039+9999REMSYN04801011 46/// /0103 11097 21134 30337 40348 54003=EQDQ01.3    3APC3  
0132010110999992016011206004+80067+031500FM-12+001099999V0200101N003019999999N999999999-00921-01331103451ADDKA1240N-01081MA1999999103341MD1710041+9999OD139900301999REMSYN06401011 46/// /0103 11092 21133 30334 40345 57004 333 21108 91103=
0089010110999992016011207004+80067+031500FM-12+001099999V0200201N002019999999N999999999-00821-01211103451ADDMA1999999103331MD1710031+9999REMSYN04801011 46/// /0202 11082 21121 30333 40345 57003=
0089010110999992016011208004+80067+031500FM-12+001099999V0200101N001019999999N999999999-00811-01201103421ADDMA1999999103311MD1710061+9999REMSYN04801011 46/// /0101 11081 21120 30331 40342 57006=
0085010110999992016011210004+80070+031500FM-12+001099999V0200161N0057199999999999999999-00851-01151103351ADDKA1010M-00641KA2010N-00861MA1999999103241MD1710101+9999OD130100681999REMSYN004BUFR
0089010110999992016011211004+80067+031500FM-12+001099999V0200101N008019999999N999999999-01091-01501103301ADDMA1999999103191MD1710121+9999REMSYN04801011 46/// /0108 11109 21150 30319 40330 57012=
0089010110999992016011212004+80067+031500FM-12+001099999V0209999C999999999999N999999999-01091-01501103231ADDMA1999999103111MD1610151+9999REMSYN04801011 46/// ///// 11109 21150 30311 40323 56015=
0089010110999992016011213004+80067+031500FM-12+001099999V0203601N010019999999N999999999-01151-01441103201ADDMA1999999103081MD1710161+9999REMSYN04801011 46/// /3610 11115 21144 30308 40320 57016=
0089010110999992016011214004+80067+031500FM-12+001099999V0203601N009019999999N999999999-01211-01531103161ADDMA1999999103041MD1810151+9999REMSYN04801011 46/// /3609 11121 21153 30304 40316 58015=
0089010110999992016011215004+80067+031500FM-12+001099999V0203601N008019999999N999999999-01251-01591103091ADDMA1999999102981MD1610141+9999REMSYN04801011 46/// /3608 11125 21159 30298 40309 56014=
0089010110999992016011216004+80067+031500FM-12+001099999V0203601N008019999999N999999999-01121-01351102991ADDMA1999999102881MD1610201+9999REMSYN04801011 46/// /3608 11112 21135 30288 40299 56020=
0089010110999992016011217004+80067+031500FM-12+001099999V0203401N004019999999N999999999-00931-01101102911ADDMA1999999102791MD1710251+9999REMSYN04801011 46/// /3404 11093 21110 30279 40291 57025=
0113010110999992016011218004+80067+031500FM-12+001099999V0203201N010019999999N999999999-00691-01081102761ADDMA1999999102651MD1610321+9999OD139901201999REMSYN05801011 46/// /3210 11069 21108 30265 40276 56032 333 91112=
0089010110999992016011219004+80067+031500FM-12+001099999V0203301N011019999999N999999999-00711-01071102641ADDMA1999999102531MD1610351+9999REMSYN04801011 46/// /3311 11071 21107 30253 40264 56035=
0089010110999992016011220004+80067+031500FM-12+001099999V0203301N010019999999N999999999-00721-01081102551ADDMA1999999102441MD1810361+9999REMSYN04801011 46/// /3310 11072 21108 30244 40255 58036=
0089010110999992016011221004+80067+031500FM-12+001099999V0203201N011019999999N999999999-00711-01071102451ADDMA1999999102331MD1710321+9999REMSYN04801011 46/// /3211 11071 21107 30233 40245 57032=
0089010110999992016011222004+80067+031500FM-12+001099999V0203301N011019999999N999999999-00741-01161102331ADDMA1999999102211MD1710321+9999REMSYN04801011 46/// /3311 11074 21116 30221 40233 57032=
0089010110999992016011223004+80067+031500FM-12+001099999V0203101N010019999999N999999999-00761-01161102191ADDMA1999999102081MD1710361+9999REMSYN04801011 46/// /3110 11076 21116 30208 40219 57036=
0113010110999992016011300004+80067+031500FM-12+001099999V0203101N012019999999N999999999-00761-01161102041ADDMA1999999101931MD1710401+9999OD139901301999REMSYN05801011 46/// /3112 11076 21116 30193 40204 57040 333 91113=
0089010110999992016011301004+80067+031500FM-12+001099999V0203201N012019999999N999999999-00791-01191101941ADDMA1999999101831MD1810381+9999REMSYN04801011 46/// /3212 11079 21119 30183 40194 58038=
0089010110999992016011302004+80067+031500FM-12+001099999V0203201N011019999999N999999999-00821-01291101821ADDMA1999999101711MD1710371+9999REMSYN04801011 46/// /3211 11082 21129 30171 40182 57037=
0089010110999992016011303004+80067+031500FM-12+001099999V0203101N013019999999N999999999-00811-01061101721ADDMA1999999101611MD1710321+9999REMSYN04801011 46/// /3113 11081 21106 30161 40172 57032=
0089010110999992016011304004+80067+031500FM-12+001099999V0203101N014019999999N999999999-00861-01211101641ADDMA1999999101531MD1810301+9999REMSYN04801011 46/// /3114 11086 21121 30153 40164 58030=
0089010110999992016011305004+80067+031500FM-12+001099999V0203101N014019999999N999999999-00901-01151101581ADDMA1999999101471MD1810241+9999REMSYN04801011 46/// /3114 11090 21115 30147 40158 58024=
0132010110999992016011306004+80067+031500FM-12+001099999V0203101N014019999999N999999999-00911-01161101541ADDKA1240N-00941MA1999999101431MD1810181+9999OD139901601999REMSYN06401011 46/// /3114 11091 21116 30143 40154 58018 333 21094 91116=
0089010110999992016011307004+80067+031500FM-12+001099999V0203101N012019999999N999999999-00981-01261101531ADDMA1999999101421MD1810111+9999REMSYN04801011 46/// /3112 11098 21126 30142 40153 58011=
0089010110999992016011308004+80067+031500FM-12+001099999V0203101N011019999999N999999999-01021-01231101531ADDMA1999999101421MD1810041+9999REMSYN04801011 46/// /3111 11102 21123 30142 40153 58004=
0108010110999992016011309004+80067+031500FM-12+001099999V0203101N011019999999N999999999-01061-01281101531ADDMA1999999101421MD1790019+9999REMSYN04801011 46/// /3111 11106 21128 30142 40153 54001=EQDQ01.1    3APC3  
0108010110999992016011310004+80067+031500FM-12+001099999V0203001N011019999999N999999999-01081-01341101511ADDMA1999999101391MD1790029+9999REMSYN04801011 46/// /3011 11108 21134 30139 40151 54003=EQDQ01.3    3APC3  
0071010110999992016011312004+80070+031500FM-12+001099999V0203101N0098199999999999999999-01071-01311101441ADDKA1010M-01071KA2010N-01101MA1999999101331MD1710101+9999REMSYN004BUFR
0085010110999992016011313004+80070+031500FM-12+001099999V0203131N0096199999999999999999-01071-01291101391ADDKA1010M-01031KA2010N-01091MA1999999101281MD1610121+9999OD130101141999REMSYN004BUFR
0085010110999992016011314004+80070+031500FM-12+001099999V0203051N0086199999999999999999-01041-01251101371ADDKA1010M-01031KA2010N-01081MA1999999101251MD1810131+9999OD130101181999REMSYN004BUFR
0089010110999992016011315004+80067+031500FM-12+001099999V0203001N010019999999N999999999-01001-01221101311ADDMA1999999101201MD1710131+9999REMSYN04801011 46/// /3010 11100 21122 30120 40131 57013=
0089010110999992016011316004+80067+031500FM-12+001099999V0203101N009019999999N999999999-00991-01251101261ADDMA1999999101151MD1710131+9999REMSYN04801011 46/// /3109 11099 21125 30115 40126 57013=
0089010110999992016011317004+80067+031500FM-12+001099999V0202901N007019999999N999999999-00921-01101101211ADDMA1999999101101MD1710151+9999REMSYN04801011 46/// /2907 11092 21110 30110 40121 57015=
0113010110999992016011318004+80067+031500FM-12+001099999V0202801N010019999999N999999999-00851-01071101131ADDMA1999999101021MD1610171+9999OD139901301999REMSYN05801011 46/// /2810 11085 21107 30102 40113 56017 333 91113=
0089010110999992016011319004+80067+031500FM-12+001099999V0202701N011019999999N999999999-00821-01021101081ADDMA1999999100971MD1710191+9999REMSYN04801011 46/// /2711 11082 21102 30097 40108 57019=
0089010110999992016011320004+80067+031500FM-12+001099999V0202701N011019999999N999999999-00821-01071101011ADDMA1999999100901MD1710201+9999REMSYN04801011 46/// /2711 11082 21107 30090 40101 57020=
0089010110999992016011321004+80067+031500FM-12+001099999V0202701N011019999999N999999999-00781-00991100971ADDMA1999999100861MD1710171+9999REMSYN04801011 46/// /2711 11078 21099 30086 40097 57017=
0089010110999992016011322004+80067+031500FM-12+001099999V0202701N012019999999N999999999-00791-01001100911ADDMA1999999100801MD1710161+9999REMSYN04801011 46/// /2712 11079 21100 30080 40091 57016=
0089010110999992016011323004+80067+031500FM-12+001099999V0202801N011019999999N999999999-00861-01111100901ADDMA1999999100791MD1810111+9999REMSYN04801011 46/// /2811 11086 21111 30079 40090 58011=
0113010110999992016011400004+80067+031500FM-12+001099999V0202801N010019999999N999999999-00891-01211100901ADDMA1999999100791MD1810071+9999OD139901601999REMSYN05801011 46/// /2810 11089 21121 30079 40090 58007 333 91116=
0108010110999992016011401004+80067+031500FM-12+001099999V0202701N010019999999N999999999-00911-01231100901ADDMA1999999100791MD1790019+9999REMSYN04801011 46/// /2710 11091 21123 30079 40090 54001=EQDQ01.1    3APC3  
0108010110999992016011402004+80067+031500FM-12+001099999V0202701N008019999999N999999999-00921-01161100901ADDMA1999999100781MD1410009+9999REMSYN04801011 46/// /2708 11092 21116 30078 40090 54001=EQDQ01.1    3APC3  
0108010110999992016011403004+80067+031500FM-12+001099999V0202701N009019999999N999999999-00921-01261100871ADDMA1999999100761MD1790039+9999REMSYN04801011 46/// /2709 11092 21126 30076 40087 54002=EQDQ01.2    3APC3  
0089010110999992016011404004+80067+031500FM-12+001099999V0202701N008019999999N999999999-00961-01241100871ADDMA1999999100761MD1710031+9999REMSYN04801011 46/// /2708 11096 21124 30076 40087 57003=
0089010110999992016011405004+80067+031500FM-12+001099999V0202501N006019999999N999999999-00921-01271100841ADDMA1999999100731MD1710051+9999REMSYN04801011 46/// /2506 11092 21127 30073 40084 57005=
0132010110999992016011406004+80067+031500FM-12+001099999V0202201N005019999999N999999999-00901-01141100811ADDKA1240N-00961MA1999999100701MD1610061+9999OD139901201999REMSYN06401011 46/// /2205 11090 21114 30070 40081 56006 333 21096 91112=
0089010110999992016011407004+80067+031500FM-12+001099999V0202201N011019999999N999999999-00811-01291100811ADDMA1999999100701MD1710061+9999REMSYN04801011 46/// /2211 11081 21129 30070 40081 57006=
0089010110999992016011408004+80067+031500FM-12+001099999V0202301N011019999999N999999999-00801-01281100851ADDMA1999999100741MD1990011+9999REMSYN04801011 46/// /2311 11080 21128 30074 40085 50001=
0089010110999992016011409004+80067+031500FM-12+001099999V0202201N009019999999N999999999-00841-01241100911ADDMA1999999100801MD1110101+9999REMSYN04801011 46/// /2209 11084 21124 30080 40091 51010=
0089010110999992016011410004+80067+031500FM-12+001099999V0202201N008019999999N999999999-00851-01131100921ADDMA1999999100811MD1310111+9999REMSYN04801011 46/// /2208 11085 21113 30081 40092 53011=
0089010110999992016011411004+80067+031500FM-12+001099999V0202901N003019999999N999999999-00911-01091100901ADDMA1999999100791MD1310051+9999REMSYN04801011 46/// /2903 11091 21109 30079 40090 53005=
0113010110999992016011412004+80067+031500FM-12+001099999V0203201N004019999999N999999999-00931-01141100901ADDMA1999999100791MD1410001+9999OD139901501999REMSYN05801011 46/// /3204 11093 21114 30079 40090 54000 333 91115=
0089010110999992016011413004+80067+031500FM-12+001099999V0203401N005019999999N999999999-01011-01191100921ADDMA1999999100801MD1990011+9999REMSYN04801011 46/// /3405 11101 21119 30080 40092 50001=
0089010110999992016011414004+80067+031500FM-12+001099999V0200101N005019999999N999999999-01041-01271100941ADDMA1999999100831MD1210041+9999REMSYN04801011 46/// /0105 11104 21127 30083 40094 52004=
0089010110999992016011415004+80067+031500FM-12+001099999V0200301N004019999999N999999999-01061-01341100991ADDMA1999999100881MD1110091+9999REMSYN04801011 46/// /0304 11106 21134 30088 40099 51009=
0089010110999992016011416004+80067+031500FM-12+001099999V0200301N003019999999N999999999-01051-01341101011ADDMA1999999100901MD1210091+9999REMSYN04801011 46/// /0303 11105 21134 30090 40101 52009=
0089010110999992016011417004+80067+031500FM-12+001099999V0200401N004019999999N999999999-01021-01351101031ADDMA1999999100921MD1210091+9999REMSYN04801011 46/// /0404 11102 21135 30092 40103 52009=
0132010110999992016011418004+80067+031500FM-12+001099999V0200401N004019999999N999999999-01041-01361101061ADDKA1120M-00781MA1999999100951MD1210061+9999OD139900601999REMSYN06401011 46/// /0404 11104 21136 30095 40106 52006 333 11078 91106=
0089010110999992016011419004+80067+031500FM-12+001099999V0200501N004019999999N999999999-01021-01431101071ADDMA1999999100961MD1210061+9999REMSYN04801011 46/// /0504 11102 21143 30096 40107 52006=
0089010110999992016011420004+80067+031500FM-12+001099999V0200601N005019999999N999999999-01091-01481101091ADDMA1999999100981MD1210061+9999REMSYN04801011 46/// /0605 11109 21148 30098 40109 52006=
0089010110999992016011421004+80067+031500FM-12+001099999V0200601N006019999999N999999999-01031-01411101141ADDMA1999999101021MD1210081+9999REMSYN04801011 46/// /0606 11103 21141 30102 40114 52008=
0089010110999992016011422004+80067+031500FM-12+001099999V0200501N008019999999N999999999-00961-01201101151ADDMA1999999101041MD1210081+9999REMSYN04801011 46/// /0508 11096 21120 30104 40115 52008=
0089010110999992016011423004+80067+031500FM-12+001099999V0200501N009019999999N999999999-00911-01131101121ADDMA1999999101011MD1510031+9999REMSYN04801011 46/// /0509 11091 21113 30101 40112 55003=
0113010110999992016011500004+80067+031500FM-12+001099999V0200701N012019999999N999999999-00841-00981101031ADDMA1999999100921MD1610101+9999OD139901401999REMSYN05801011 46/// /0712 11084 21098 30092 40103 56010 333 91114=
0089010110999992016011501004+80067+031500FM-12+001099999V0200701N015019999999N999999999-00871-01001101011ADDMA1999999100901MD1710141+9999REMSYN04801011 46/// /0715 11087 21100 30090 40101 57014=
0089010110999992016011502004+80067+031500FM-12+001099999V0200601N013019999999N999999999-00871-01011101051ADDMA1999999100941MD1810071+9999REMSYN04801011 46/// /0613 11087 21101 30094 40105 58007=
0089010110999992016011503004+80067+031500FM-12+001099999V0203501N010019999999N999999999-00911-01151101141ADDMA1999999101031MD1110111+9999REMSYN04801011 46/// /3510 11091 21115 30103 40114 51011=
0089010110999992016011504004+80067+031500FM-12+001099999V0200101N010019999999N999999999-00961-01161101231ADDMA1999999101121MD1110221+9999REMSYN04801011 46/// /0110 11096 21116 30112 40123 51022=
0089010110999992016011505004+80067+031500FM-12+001099999V0200101N009019999999N999999999-00981-01191101311ADDMA1999999101201MD1210251+9999REMSYN04801011 46/// /0109 11098 21119 30120 40131 52025=
0132010110999992016011506004+80067+031500FM-12+001099999V0203501N006019999999N999999999-01021-01201101431ADDKA1240N-01131MA1999999101321MD1110291+9999OD139901801999REMSYN06401011 46/// /3506 11102 21120 30132 40143 51029 333 21113 91118=
0089010110999992016011507004+80067+031500FM-12+001099999V0203601N007019999999N999999999-00981-01161101531ADDMA1999999101421MD1210301+9999REMSYN04801011 46/// /3607 11098 21116 30142 40153 52030=
0089010110999992016011508004+80067+031500FM-12+001099999V0200101N007019999999N999999999-00971-01231101631ADDMA1999999101521MD1210331+9999REMSYN04801011 46/// /0107 11097 21123 30152 40163 52033=
0089010110999992016011509004+80067+031500FM-12+001099999V0200101N008019999999N999999999-01111-01441101731ADDMA1999999101621MD1210301+9999REMSYN04801011 46/// /0108 11111 21144 30162 40173 52030=
0089010110999992016011510004+80067+031500FM-12+001099999V0200101N009019999999N999999999-01111-01461101811ADDMA1999999101691MD1210281+9999REMSYN04801011 46/// /0109 11111 21146 30169 40181 52028=
0089010110999992016011511004+80067+031500FM-12+001099999V0200201N008019999999N999999999-01181-01621101851ADDMA1999999101731MD1310211+9999REMSYN04801011 46/// /0208 11118 21162 30173 40185 53021=
0113010110999992016011512004+80067+031500FM-12+001099999V0200201N008019999999N999999999-01101-01351101881ADDMA1999999101761MD1310151+9999OD139900901999REMSYN05801011 46/// /0208 11110 21135 30176 40188 53015 333 91109=
0089010110999992016011513004+80067+031500FM-12+001099999V0200301N005019999999N999999999-00881-01391101941ADDMA1999999101821MD1210131+9999REMSYN04801011 46/// /0305 11088 21139 30182 40194 52013=
0089010110999992016011514004+80067+031500FM-12+001099999V0200401N004019999999N999999999-00841-01391101991ADDMA1999999101881MD1110151+9999REMSYN04801011 46/// /0404 11084 21139 30188 40199 51015=
0089010110999992016011515004+80067+031500FM-12+001099999V0200601N005019999999N999999999-00901-01431102031ADDMA1999999101911MD1210151+9999REMSYN04801011 46/// /0605 11090 21143 30191 40203 52015=
0089010110999992016011516004+80067+031500FM-12+001099999V0200601N008019999999N999999999-01031-01491102061ADDMA1999999101951MD1210131+9999REMSYN04801011 46/// /0608 11103 21149 30195 40206 52013=
0089010110999992016011517004+80067+031500FM-12+001099999V0200601N009019999999N999999999-01061-01531102081ADDMA1999999101961MD1210081+9999REMSYN04801011 46/// /0609 11106 21153 30196 40208 52008=
0132010110999992016011518004+80067+031500FM-12+001099999V0200601N011019999999N999999999-01171-01471102101ADDKA1120M-00801MA1999999101981MD1210071+9999OD139901201999REMSYN06401011 46/// /0611 11117 21147 30198 40210 52007 333 11080 91112=
0089010110999992016011519004+80067+031500FM-12+001099999V0200501N012019999999N999999999-01191-01371102141ADDMA1999999102021MD1210071+9999REMSYN04801011 46/// /0512 11119 21137 30202 40214 52007=
0089010110999992016011520004+80067+031500FM-12+001099999V0200501N011019999999N999999999-01181-01501102171ADDMA1999999102061MD1210091+9999REMSYN04801011 46/// /0511 11118 21150 30206 40217 52009=
0089010110999992016011521004+80067+031500FM-12+001099999V0200501N012019999999N999999999-01141-01461102181ADDMA1999999102071MD1210081+9999REMSYN04801011 46/// /0512 11114 21146 30207 40218 52008=
0089010110999992016011522004+80067+031500FM-12+001099999V0200601N013019999999N999999999-01171-01421102201ADDMA1999999102091MD1210071+9999REMSYN04801011 46/// /0613 11117 21142 30209 40220 52007=
0089010110999992016011523004+80067+031500FM-12+001099999V0200601N013019999999N999999999-01121-01301102241ADDMA1999999102131MD1210071+9999REMSYN04801011 46/// /0613 11112 21130 30213 40224 52007=
0113010110999992016011600004+80067+031500FM-12+001099999V0200601N013019999999N999999999-01101-01231102241ADDMA1999999102131MD1210061+9999OD139901401999REMSYN05801011 46/// /0613 11110 21123 30213 40224 52006 333 91114=
0089010110999992016011601004+80067+031500FM-12+001099999V0200601N013019999999N999999999-00981-01101102241ADDMA1999999102121MD1310031+9999REMSYN04801011 46/// /0613 11098 21110 30212 40224 53003=
0089010110999992016011602004+80067+031500FM-12+001099999V0200601N014019999999N999999999-00901-01011102181ADDMA1999999102071MD1610051+9999REMSYN04801011 46/// /0614 11090 21101 30207 40218 56005=
0089010110999992016011603004+80067+031500FM-12+001099999V0200701N013019999999N999999999-00821-00951102231ADDMA1999999102121MD1990011+9999REMSYN04801011 46/// /0713 11082 21095 30212 40223 50001=
0089010110999992016011604004+80067+031500FM-12+001099999V0200701N012019999999N999999999-00791-00891102261ADDMA1999999102151MD1990031+9999REMSYN04801011 46/// /0712 11079 21089 30215 40226 50003=
0089010110999992016011605004+80067+031500FM-12+001099999V0200701N011019999999N999999999-00701-00771102281ADDMA1999999102171MD1310091+9999REMSYN04801011 46/// /0711 11070 21077 30217 40228 53009=
0132010110999992016011606004+80067+031500FM-12+001099999V0200801N010019999999N999999999-00681-00751102341ADDKA1240N-01201MA1999999102231MD1210111+9999OD139901601999REMSYN06401011 46/// /0810 11068 21075 30223 40234 52011 333 21120 91116=
0089010110999992016011607004+80067+031500FM-12+001099999V0200901N010019999999N999999999-00601-00681102371ADDMA1999999102261MD1210101+9999REMSYN04801011 46/// /0910 11060 21068 30226 40237 52010=
0089010110999992016011608004+80067+031500FM-12+001099999V0201001N010019999999N999999999-00631-00791102391ADDMA1999999102281MD1310111+9999REMSYN04801011 46/// /1010 11063 21079 30228 40239 53011=
0089010110999992016011609004+80067+031500FM-12+001099999V0201001N011019999999N999999999-00631-00781102421ADDMA1999999102311MD1210091+9999REMSYN04801011 46/// /1011 11063 21078 30231 40242 52009=
0089010110999992016011610004+80067+031500FM-12+001099999V0201001N011019999999N999999999-00621-00751102461ADDMA1999999102351MD1210091+9999REMSYN04801011 46/// /1011 11062 21075 30235 40246 52009=
0089010110999992016011611004+80067+031500FM-12+001099999V0201001N011019999999N999999999-00631-00781102451ADDMA1999999102341MD1310061+9999REMSYN04801011 46/// /1011 11063 21078 30234 40245 53006=
0113010110999992016011612004+80067+031500FM-12+001099999V0201001N012019999999N999999999-00661-00791102451ADDMA1999999102341MD1510021+9999OD139901301999REMSYN05801011 46/// /1012 11066 21079 30234 40245 55002 333 91113=
0089010110999992016011613004+80067+031500FM-12+001099999V0200901N011019999999N999999999-00661-00791102491ADDMA1999999102381MD1110031+9999REMSYN04801011 46/// /0911 11066 21079 30238 40249 51003=
0089010110999992016011614004+80067+031500FM-12+001099999V0201001N012019999999N999999999-00641-00751102501ADDMA1999999102391MD1210051+9999REMSYN04801011 46/// /1012 11064 21075 30239 40250 52005=
0089010110999992016011615004+80067+031500FM-12+001099999V0201001N011019999999N999999999-00651-00761102521ADDMA1999999102411MD1210071+9999REMSYN04801011 46/// /1011 11065 21076 30241 40252 52007=
0089010110999992016011616004+80067+031500FM-12+001099999V0201001N010019999999N999999999-00631-00741102541ADDMA1999999102431MD1210051+9999REMSYN04801011 46/// /1010 11063 21074 30243 40254 52005=
0089010110999992016011617004+80067+031500FM-12+001099999V0200901N010019999999N999999999-00541-00681102541ADDMA1999999102431MD1210041+9999REMSYN04801011 46/// /0910 11054 21068 30243 40254 52004=
0132010110999992016011618004+80067+031500FM-12+001099999V0200901N010019999999N999999999-00571-00721102531ADDKA1120M-00521MA1999999102411MD1510011+9999OD139901301999REMSYN06401011 46/// /0910 11057 21072 30241 40253 55001 333 11052 91113=
0089010110999992016011619004+80067+031500FM-12+001099999V0200901N010019999999N999999999-00571-00681102501ADDMA1999999102391MD1710041+9999REMSYN04801011 46/// /0910 11057 21068 30239 40250 57004=
0089010110999992016011620004+80067+031500FM-12+001099999V0200801N011019999999N999999999-00561-00631102491ADDMA1999999102381MD1710041+9999REMSYN04801011 46/// /0811 11056 21063 30238 40249 57004=
0089010110999992016011621004+80067+031500FM-12+001099999V0201101N010019999999N999999999-00541-00611102481ADDMA1999999102371MD1710041+9999REMSYN04801011 46/// /1110 11054 21061 30237 40248 57004=
0089010110999992016011622004+80067+031500FM-12+001099999V0200901N010019999999N999999999-00451-00561102461ADDMA1999999102351MD1710041+9999REMSYN04801011 46/// /0910 11045 21056 30235 40246 57004=
0089010110999992016011623004+80067+031500FM-12+001099999V0200801N011019999999N999999999-00411-00511102431ADDMA1999999102321MD1710061+9999REMSYN04801011 46/// /0811 11041 21051 30232 40243 57006=
0113010110999992016011700004+80067+031500FM-12+001099999V0201001N013019999999N999999999-00311-00381102401ADDMA1999999102291MD1710081+9999OD139901401999REMSYN05801011 46/// /1013 11031 21038 30229 40240 57008 333 91114=
0089010110999992016011701004+80067+031500FM-12+001099999V0201101N013019999999N999999999-00311-00381102401ADDMA1999999102291MD1810061+9999REMSYN04801011 46/// /1113 11031 21038 30229 40240 58006=
0089010110999992016011702004+80067+031500FM-12+001099999V0201101N013019999999N999999999-00311-00401102421ADDMA1999999102311MD1990011+9999REMSYN04801011 46/// /1113 11031 21040 30231 40242 50001=
0108010110999992016011703004+80067+031500FM-12+001099999V0201001N012019999999N999999999-00321-00411102421ADDMA1999999102311MD1290029+9999REMSYN04801011 46/// /1012 11032 21041 30231 40242 54003=EQDQ01.3    3APC3  
0089010110999992016011704004+80067+031500FM-12+001099999V0200901N013019999999N999999999-00331-00421102381ADDMA1999999102271MD1510021+9999REMSYN04801011 46/// /0913 11033 21042 30227 40238 55002=
0089010110999992016011705004+80067+031500FM-12+001099999V0201001N012019999999N999999999-00331-00421102381ADDMA1999999102271MD1710051+9999REMSYN04801011 46/// /1012 11033 21042 30227 40238 57005=
0132010110999992016011706004+80067+031500FM-12+001099999V0201001N013019999999N999999999-00351-00421102341ADDKA1240N-00601MA1999999102231MD1710081+9999OD139901501999REMSYN06401011 46/// /1013 11035 21042 30223 40234 57008 333 21060 91115=
0089010110999992016011707004+80067+031500FM-12+001099999V0201101N014019999999N999999999-00381-00451102231ADDMA1999999102121MD1610141+9999REMSYN04801011 46/// /1114 11038 21045 30212 40223 56014=
0089010110999992016011708004+80067+031500FM-12+001099999V0201001N012019999999N999999999-00361-00421102281ADDMA1999999102171MD1810101+9999REMSYN04801011 46/// /1012 11036 21042 30217 40228 58010=
0089010110999992016011709004+80067+031500FM-12+001099999V0201001N010019999999N999999999-00341-00411102311ADDMA1999999102201MD1810041+9999REMSYN04801011 46/// /1010 11034 21041 30220 40231 58004=
0089010110999992016011710004+80067+031500FM-12+001099999V0201001N010019999999N999999999-00311-00381102251ADDMA1999999102141MD1510021+9999REMSYN04801011 46/// /1010 11031 21038 30214 40225 55002=
0089010110999992016011711004+80067+031500FM-12+001099999V0201101N012019999999N999999999-00291-00351102231ADDMA1999999102121MD1510051+9999REMSYN04801011 46/// /1112 11029 21035 30212 40223 55005=
0113010110999992016011712004+80067+031500FM-12+001099999V0201101N013019999999N999999999-00331-00371102191ADDMA1999999102081MD1710121+9999OD139901601999REMSYN05801011 46/// /1113 11033 21037 30208 40219 57012 333 91116=
0089010110999992016011713004+80067+031500FM-12+001099999V0201001N011019999999N999999999-00351-00391102181ADDMA1999999102071MD1710071+9999REMSYN04801011 46/// /1011 11035 21039 30207 40218 57007=
0089010110999992016011714004+80067+031500FM-12+001099999V0200901N011019999999N999999999-00321-00371102111ADDMA1999999102001MD1610121+9999REMSYN04801011 46/// /0911 11032 21037 30200 40211 56012=
0089010110999992016011715004+80067+031500FM-12+001099999V0201001N011019999999N999999999-00281-00331102071ADDMA1999999101961MD1610111+9999REMSYN04801011 46/// /1011 11028 21033 30196 40207 56011=
0089010110999992016011716004+80067+031500FM-12+001099999V0201101N011019999999N999999999-00261-00311102081ADDMA1999999101971MD1810101+9999REMSYN04801011 46/// /1111 11026 21031 30197 40208 58010=
0108010110999992016011718004+80067+031500FM-12+001099999V0201101N010019999999N999999999-00261-00321102081ADDMA1999999101971MD1290019+9999REMSYN04801011 46/// /1110 11026 21032 30197 40208 54001=EQDQ01.1    3APC3  
0108010110999992016011719004+80067+031500FM-12+001099999V0201101N010019999999N999999999-00281-00331102071ADDMA1999999101961MD1790019+9999REMSYN04801011 46/// /1110 11028 21033 30196 40207 54001=EQDQ01.1    3APC3  
0089010110999992016011720004+80067+031500FM-12+001099999V0201101N011019999999N999999999-00281-00341102051ADDMA1999999101941MD1710031+9999REMSYN04801011 46/// /1111 11028 21034 30194 40205 57003=
0089010110999992016011721004+80067+031500FM-12+001099999V0201201N013019999999N999999999-00301-00361102001ADDMA1999999101891MD1610081+9999REMSYN04801011 46/// /1213 11030 21036 30189 40200 56008=
0089010110999992016011722004+80067+031500FM-12+001099999V0201101N011019999999N999999999-00321-00441102061ADDMA1999999101961MD1990001+9999REMSYN04801011 46/// /1111 11032 21044 30196 40206 50000=
0108010110999992016011723004+80067+031500FM-12+001099999V0201001N011019999999N999999999-00371-00491102041ADDMA1999999101931MD1790019+9999REMSYN04801011 46/// /1011 11037 21049 30193 40204 54001=EQDQ01.1    3APC3  
0113010110999992016011800004+80067+031500FM-12+001099999V0201101N008019999999N999999999-00401-00511102021ADDMA1999999101911MD1510021+9999OD139901401999REMSYN05801011 46/// /1108 11040 21051 30191 40202 55002 333 91114=
0089010110999992016011801004+80067+031500FM-12+001099999V0201001N012019999999N999999999-00381-00471101931ADDMA1999999101821MD1610131+9999REMSYN04801011 46/// /1012 11038 21047 30182 40193 56013=
0089010110999992016011802004+80067+031500FM-12+001099999V0201101N012019999999N999999999-00341-00431101911ADDMA1999999101801MD1710131+9999REMSYN04801011 46/// /1112 11034 21043 30180 40191 57013=
0089010110999992016011803004+80067+031500FM-12+001099999V0201101N011019999999N999999999-00361-00451101901ADDMA1999999101791MD1810131+9999REMSYN04801011 46/// /1111 11036 21045 30179 40190 58013=
0089010110999992016011804004+80067+031500FM-12+001099999V0201001N011019999999N999999999-00441-00561101881ADDMA1999999101771MD1710051+9999REMSYN04801011 46/// /1011 11044 21056 30177 40188 57005=
0089010110999992016011805004+80067+031500FM-12+001099999V0200901N011019999999N999999999-00521-00631101841ADDMA1999999101731MD1710071+9999REMSYN04801011 46/// /0911 11052 21063 30173 40184 57007=
0132010110999992016011806004+80067+031500FM-12+001099999V0200901N010019999999N999999999-00521-00631101811ADDKA1240N-00531MA1999999101701MD1710091+9999OD139901401999REMSYN06401011 46/// /0910 11052 21063 30170 40181 57009 333 21053 91114=
0089010110999992016011807004+80067+031500FM-12+001099999V0201101N011019999999N999999999-00461-00561101791ADDMA1999999101681MD1710091+9999REMSYN04801011 46/// /1111 11046 21056 30168 40179 57009=
0089010110999992016011808004+80067+031500FM-12+001099999V0201101N012019999999N999999999-00441-00511101781ADDMA1999999101671MD1710061+9999REMSYN04801011 46/// /1112 11044 21051 30167 40178 57006=
0089010110999992016011809004+80067+031500FM-12+001099999V0201101N011019999999N999999999-00541-00651101811ADDMA1999999101701MD1990001+9999REMSYN04801011 46/// /1111 11054 21065 30170 40181 50000=
0089010110999992016011810004+80067+031500FM-12+001099999V0201101N012019999999N999999999-00591-00701101841ADDMA1999999101731MD1110051+9999REMSYN04801011 46/// /1112 11059 21070 30173 40184 51005=
0089010110999992016011811004+80067+031500FM-12+001099999V0201101N011019999999N999999999-00591-00691101871ADDMA1999999101761MD1210091+9999REMSYN04801011 46/// /1111 11059 21069 30176 40187 52009=
0113010110999992016011812004+80067+031500FM-12+001099999V0201101N012019999999N999999999-00571-00651101871ADDMA1999999101761MD1210061+9999OD139901401999REMSYN05801011 46/// /1112 11057 21065 30176 40187 52006 333 91114=
0089010110999992016011813004+80067+031500FM-12+001099999V0201101N013019999999N999999999-00571-00651101851ADDMA1999999101741MD1510011+9999REMSYN04801011 46/// /1113 11057 21065 30174 40185 55001=
0108010110999992016011814004+80067+031500FM-12+001099999V0201201N012019999999N999999999-00521-00601101861ADDMA1999999101751MD1790019+9999REMSYN04801011 46/// /1212 11052 21060 30175 40186 54001=EQDQ01.1    3APC3  
0108010110999992016011815004+80067+031500FM-12+001099999V0201101N013019999999N999999999-00491-00571101861ADDMA1999999101751MD1790019+9999REMSYN04801011 46/// /1113 11049 21057 30175 40186 54001=EQDQ01.1    3APC3  
0108010110999992016011816004+80067+031500FM-12+001099999V0201201N012019999999N999999999-00411-00501101871ADDMA1999999101761MD1290029+9999REMSYN04801011 46/// /1212 11041 21050 30176 40187 54001=EQDQ01.1    3APC3  
0089010110999992016011817004+80067+031500FM-12+001099999V0201201N011019999999N999999999-00361-00421101861ADDMA1999999101751MD1410001+9999REMSYN04801011 46/// /1211 11036 21042 30175 40186 54000=
0132010110999992016011818004+80067+031500FM-12+001099999V0201201N012019999999N999999999-00341-00401101831ADDKA1120M-00341MA1999999101721MD1510031+9999OD139901501999REMSYN06401011 46/// /1212 11034 21040 30172 40183 55003 333 11034 91115=
0089010110999992016011819004+80067+031500FM-12+001099999V0201201N012019999999N999999999-00361-00421101831ADDMA1999999101721MD1710031+9999REMSYN04801011 46/// /1212 11036 21042 30172 40183 57003=
0089010110999992016011820004+80067+031500FM-12+001099999V0201201N012019999999N999999999-00381-00441101841ADDMA1999999101731MD1990021+9999REMSYN04801011 46/// /1212 11038 21044 30173 40184 50002=
0108010110999992016011821004+80067+031500FM-12+001099999V0201101N012019999999N999999999-00431-00541101841ADDMA1999999101731MD1290019+9999REMSYN04801011 46/// /1112 11043 21054 30173 40184 54001=EQDQ01.1    3APC3  
0108010110999992016011822004+80067+031500FM-12+001099999V0201101N011019999999N999999999-00431-00531101831ADDMA1999999101721MD1410009+9999REMSYN04801011 46/// /1111 11043 21053 30172 40183 54001=EQDQ01.1    3APC3  
0089010110999992016011823004+80067+031500FM-12+001099999V0201001N012019999999N999999999-00451-00531101791ADDMA1999999101681MD1710051+9999REMSYN04801011 46/// /1012 11045 21053 30168 40179 57005=
0113010110999992016011900004+80067+031500FM-12+001099999V0201101N012019999999N999999999-00441-00541101781ADDMA1999999101671MD1710061+9999OD139901401999REMSYN05801011 46/// /1112 11044 21054 30167 40178 57006 333 91114=
0089010110999992016011901004+80067+031500FM-12+001099999V0201001N011019999999N999999999-00501-00611101751ADDMA1999999101641MD1710071+9999REMSYN04801011 46/// /1011 11050 21061 30164 40175 57007=
0089010110999992016011902004+80067+031500FM-12+001099999V0201101N011019999999N999999999-00521-00631101721ADDMA1999999101611MD1710071+9999REMSYN04801011 46/// /1111 11052 21063 30161 40172 57007=
0089010110999992016011903004+80067+031500FM-12+001099999V0201101N011019999999N999999999-00541-00641101701ADDMA1999999101591MD1710081+9999REMSYN04801011 46/// /1111 11054 21064 30159 40170 57008=
0089010110999992016011904004+80067+031500FM-12+001099999V0201001N011019999999N999999999-00571-00681101681ADDMA1999999101571MD1710081+9999REMSYN04801011 46/// /1011 11057 21068 30157 40168 57008=
0089010110999992016011905004+80067+031500FM-12+001099999V0201101N011019999999N999999999-00511-00621101661ADDMA1999999101551MD1710071+9999REMSYN04801011 46/// /1111 11051 21062 30155 40166 57007=
0089010110999992016011908004+80067+031500FM-12+001099999V0201201N008019999999N999999999-00521-00621101601ADDMA1999999101491MD1710061+9999REMSYN04801011 46/// /1208 11052 21062 30149 40160 57006=
0089010110999992016011909004+80067+031500FM-12+001099999V0201201N008019999999N999999999-00531-00611101571ADDMA1999999101461MD1710081+9999REMSYN04801011 46/// /1208 11053 21061 30146 40157 57008=
0089010110999992016011910004+80067+031500FM-12+001099999V0201201N008019999999N999999999-00501-00581101541ADDMA1999999101431MD1710091+9999REMSYN04801011 46/// /1208 11050 21058 30143 40154 57009=
0089010110999992016011912004+80067+031500FM-12+001099999V0201001N009019999999N999999999-00611-00761101441ADDMA1999999101331MD1710131+9999REMSYN04801011 46/// /1009 11061 21076 30133 40144 57013=
0089010110999992016011913004+80067+031500FM-12+001099999V0201001N009019999999N999999999-00561-00681101401ADDMA1999999101291MD1710141+9999REMSYN04801011 46/// /1009 11056 21068 30129 40140 57014=
0089010110999992016011914004+80067+031500FM-12+001099999V0201001N009019999999N999999999-00521-00641101371ADDMA1999999101261MD1810121+9999REMSYN04801011 46/// /1009 11052 21064 30126 40137 58012=
0089010110999992016011915004+80067+031500FM-12+001099999V0201101N009019999999N999999999-00571-00671101331ADDMA1999999101221MD1710111+9999REMSYN04801011 46/// /1109 11057 21067 30122 40133 57011=
0089010110999992016011916004+80067+031500FM-12+001099999V0201101N009019999999N999999999-00551-00651101291ADDMA1999999101181MD1710101+9999REMSYN04801011 46/// /1109 11055 21065 30118 40129 57010=
0089010110999992016011917004+80067+031500FM-12+001099999V0201201N008019999999N999999999-00581-00661101251ADDMA1999999101141MD1710121+9999REMSYN04801011 46/// /1208 11058 21066 30114 40125 57012=
0113010110999992016011918004+80067+031500FM-12+001099999V0201201N008019999999N999999999-00581-00681101231ADDMA1999999101121MD1710101+9999OD139901101999REMSYN05801011 46/// /1208 11058 21068 30112 40123 57010 333 91111=
0089010110999992016011919004+80067+031500FM-12+001099999V0201301N008019999999N999999999-00601-00751101181ADDMA1999999101071MD1710111+9999REMSYN04801011 46/// /1308 11060 21075 30107 40118 57011=
0089010110999992016011920004+80067+031500FM-12+001099999V0201101N007019999999N999999999-00611-00871101161ADDMA1999999101051MD1710101+9999REMSYN04801011 46/// /1107 11061 21087 30105 40116 57010=
0089010110999992016011921004+80067+031500FM-12+001099999V0201101N008019999999N999999999-00681-00921101121ADDMA1999999101011MD1710111+9999REMSYN04801011 46/// /1108 11068 21092 30101 40112 57011=
0089010110999992016011922004+80067+031500FM-12+001099999V0201001N008019999999N999999999-00771-01041101091ADDMA1999999100981MD1710091+9999REMSYN04801011 46/// /1008 11077 21104 30098 40109 57009=
0089010110999992016011923004+80067+031500FM-12+001099999V0201001N008019999999N999999999-00781-00981101051ADDMA1999999100941MD1710101+9999REMSYN04801011 46/// /1008 11078 21098 30094 40105 57010=
0113010110999992016012000004+80067+031500FM-12+001099999V0201001N008019999999N999999999-00771-00971101031ADDMA1999999100921MD1710091+9999OD139901001999REMSYN05801011 46/// /1008 11077 21097 30092 40103 57009 333 91110=
0089010110999992016012001004+80067+031500FM-12+001099999V0201101N008019999999N999999999-00741-00931100981ADDMA1999999100871MD1710111+9999REMSYN04801011 46/// /1108 11074 21093 30087 40098 57011=
0089010110999992016012002004+80067+031500FM-12+001099999V0201101N007019999999N999999999-00751-00941100951ADDMA1999999100841MD1710101+9999REMSYN04801011 46/// /1107 11075 21094 30084 40095 57010=
0089010110999992016012003004+80067+031500FM-12+001099999V0201101N007019999999N999999999-00731-00961100911ADDMA1999999100801MD1710121+9999REMSYN04801011 46/// /1107 11073 21096 30080 40091 57012=
0089010110999992016012004004+80067+031500FM-12+001099999V0201101N006019999999N999999999-00741-00981100891ADDMA1999999100781MD1710091+9999REMSYN04801011 46/// /1106 11074 21098 30078 40089 57009=
0089010110999992016012005004+80067+031500FM-12+001099999V0201101N006019999999N999999999-00691-00931100871ADDMA1999999100761MD1710091+9999REMSYN04801011 46/// /1106 11069 21093 30076 40087 57009=
0132010110999992016012006004+80067+031500FM-12+001099999V0201101N006019999999N999999999-00711-00961100841ADDKA1240N-00851MA1999999100731MD1710071+9999OD139900901999REMSYN06401011 46/// /1106 11071 21096 30073 40084 57007 333 21085 91109=
0089010110999992016012007004+80067+031500FM-12+001099999V0201101N006019999999N999999999-00731-01001100811ADDMA1999999100701MD1710081+9999REMSYN04801011 46/// /1106 11073 21100 30070 40081 57008=
0089010110999992016012008004+80067+031500FM-12+001099999V0201101N007019999999N999999999-00711-00961100801ADDMA1999999100691MD1710071+9999REMSYN04801011 46/// /1107 11071 21096 30069 40080 57007=
0089010110999992016012009004+80067+031500FM-12+001099999V0201201N006019999999N999999999-00671-00911100811ADDMA1999999100701MD1810031+9999REMSYN04801011 46/// /1206 11067 21091 30070 40081 58003=
0108010110999992016012010004+80067+031500FM-12+001099999V0201101N007019999999N999999999-00671-00901100801ADDMA1999999100691MD1790019+9999REMSYN04801011 46/// /1107 11067 21090 30069 40080 54001=EQDQ01.1    3APC3  
0089010110999992016012011004+80067+031500FM-12+001099999V0201201N006019999999N999999999-00681-00841100781ADDMA1999999100671MD1510021+9999REMSYN04801011 46/// /1206 11068 21084 30067 40078 55002=
0113010110999992016012012004+80067+031500FM-12+001099999V0201401N004019999999N999999999-00581-00691100751ADDMA1999999100641MD1710061+9999OD139900701999REMSYN05801011 46/// /1404 11058 21069 30064 40075 57006 333 91107=
0089010110999992016012013004+80067+031500FM-12+001099999V0201501N006019999999N999999999-00581-00711100721ADDMA1999999100611MD1710081+9999REMSYN04801011 46/// /1506 11058 21071 30061 40072 57008=
0089010110999992016012014004+80067+031500FM-12+001099999V0201501N005019999999N999999999-00591-00701100711ADDMA1999999100601MD1710071+9999REMSYN04801011 46/// /1505 11059 21070 30060 40071 57007=
0089010110999992016012015004+80067+031500FM-12+001099999V0201201N004019999999N999999999-00681-00781100691ADDMA1999999100581MD1710061+9999REMSYN04801011 46/// /1204 11068 21078 30058 40069 57006=
0089010110999992016012016004+80067+031500FM-12+001099999V0201501N005019999999N999999999-00511-00611100661ADDMA1999999100551MD1710051+9999REMSYN04801011 46/// /1505 11051 21061 30055 40066 57005=
0089010110999992016012017004+80067+031500FM-12+001099999V0201801N005019999999N999999999-00461-00561100651ADDMA1999999100541MD1710051+9999REMSYN04801011 46/// /1805 11046 21056 30054 40065 57005=
0132010110999992016012018004+80067+031500FM-12+001099999V0201801N004019999999N999999999-00461-00561100641ADDKA1120M-00451MA1999999100531MD1710051+9999OD139900701999REMSYN06401011 46/// /1804 11046 21056 30053 40064 57005 333 11045 91107=
0108010110999992016012019004+80067+031500FM-12+001099999V0202301N001019999999N999999999-00631-00781100641ADDMA1999999100531MD1790029+9999REMSYN04801011 46/// /2301 11063 21078 30053 40064 54002=EQDQ01.2    3APC3  
0108010110999992016012020004+80067+031500FM-12+001099999V0201001N001019999999N999999999-00611-00761100641ADDMA1999999100531MD1790019+9999REMSYN04801011 46/// /1001 11061 21076 30053 40064 54002=EQDQ01.2    3APC3  
0089010110999992016012021004+80067+031500FM-12+001099999V0200901N001019999999N999999999-00611-00771100641ADDMA1999999100531MD1410001+9999REMSYN04801011 46/// /0901 11061 21077 30053 40064 54000=
0089010110999992016012022004+80067+031500FM-12+001099999V0200801N001019999999N999999999-00591-00791100641ADDMA1999999100531MD1410001+9999REMSYN04801011 46/// /0801 11059 21079 30053 40064 54000=
0108010110999992016012023004+80067+031500FM-12+001099999V0209999C999999999999N999999999-00521-00781100661ADDMA1999999100551MD1290029+9999REMSYN04801011 46/// /0000 11052 21078 30055 40066 54002=EQDQ01.2    3APC3  
0132010110999992016012100004+80067+031500FM-12+001099999V0209999C999999999999N999999999-00601-00831100651ADDMA1999999100541MD1290019+9999OD139900401999REMSYN05801011 46/// /0000 11060 21083 30054 40065 54001 333 91104=EQDQ01.1    3APC3  
0108010110999992016012101004+80067+031500FM-12+001099999V0200901N002019999999N999999999-00661-00861100671ADDMA1999999100561MD1290039+9999REMSYN04801011 46/// /0902 11066 21086 30056 40067 54002=EQDQ01.2    3APC3  
0108010110999992016012102004+80067+031500FM-12+001099999V0201001N003019999999N999999999-00741-00891100681ADDMA1999999100571MD1290029+9999REMSYN04801011 46/// /1003 11074 21089 30057 40068 54001=EQDQ01.1    3APC3  
0089010110999992016012103004+80067+031500FM-12+001099999V0201001N003019999999N999999999-00711-00861100661ADDMA1999999100551MD1410001+9999REMSYN04801011 46/// /1003 11071 21086 30055 40066 54000=
0108010110999992016012104004+80067+031500FM-12+001099999V0201201N003019999999N999999999-00561-00701100681ADDMA1999999100571MD1290019+9999REMSYN04801011 46/// /1203 11056 21070 30057 40068 54002=EQDQ01.2    3APC3  
0108010110999992016012105004+80067+031500FM-12+001099999V0201201N002019999999N999999999-00511-00631100671ADDMA1999999100561MD1790019+9999REMSYN04801011 46/// /1202 11051 21063 30056 40067 54001=EQDQ01.1    3APC3  
0132010110999992016012106004+80067+031500FM-12+001099999V0201101N004019999999N999999999-00531-00651100651ADDKA1240N-00801MA1999999100541MD1510001+9999OD139900501999REMSYN06401011 46/// /1104 11053 21065 30054 40065 55000 333 21080 91105=
0108010110999992016012107004+80067+031500FM-12+001099999V0201001N005019999999N999999999-00521-00701100651ADDMA1999999100551MD1790039+9999REMSYN04801011 46/// /1005 11052 21070 30055 40065 54003=EQDQ01.3    3APC3  
0108010110999992016012108004+80067+031500FM-12+001099999V0201101N006019999999N999999999-00631-00871100661ADDMA1999999100551MD1790019+9999REMSYN04801011 46/// /1106 11063 21087 30055 40066 54001=EQDQ014     3APCTEN
0108010110999992016012109004+80067+031500FM-12+001099999V0201301N007019999999N999999999-00601-00791100661ADDMA1999999100551MD1290019+9999REMSYN04801011 46/// /1307 11060 21079 30055 40066 54001=EQDQ01.1    3APC3  
0108010110999992016012110004+80067+031500FM-12+001099999V0201401N007019999999N999999999-00621-00781100641ADDMA1999999100531MD1790019+9999REMSYN04801011 46/// /1407 11062 21078 30053 40064 54001=EQDQ01.1    3APC3  
0089010110999992016012111004+80067+031500FM-12+001099999V0201101N008019999999N999999999-00681-00801100571ADDMA1999999100461MD1610091+9999REMSYN04801011 46/// /1108 11068 21080 30046 40057 56009=
0113010110999992016012112004+80067+031500FM-12+001099999V0201001N011019999999N999999999-00631-00751100481ADDMA1999999100371MD1610191+9999OD139901301999REMSYN05801011 46/// /1011 11063 21075 30037 40048 56019 333 91113=
0089010110999992016012113004+80067+031500FM-12+001099999V0200901N010019999999N999999999-00611-00731100411ADDMA1999999100301MD1710231+9999REMSYN04801011 46/// /0910 11061 21073 30030 40041 57023=
0089010110999992016012114004+80067+031500FM-12+001099999V0201101N012019999999N999999999-00561-00641100321ADDMA1999999100211MD1710251+9999REMSYN04801011 46/// /1112 11056 21064 30021 40032 57025=
0089010110999992016012115004+80067+031500FM-12+001099999V0201301N008019999999N999999999-00581-00741100321ADDMA1999999100211MD1810151+9999REMSYN04801011 46/// /1308 11058 21074 30021 40032 58015=
0089010110999992016012116004+80067+031500FM-12+001099999V0201601N006019999999N999999999-00741-00981100351ADDMA1999999100251MD1810061+9999REMSYN04801011 46/// /1606 11074 21098 30025 40035 58006=
0089010110999992016012117004+80067+031500FM-12+001099999V0201201N006019999999N999999999-00881-01001100361ADDMA1999999100251MD1210041+9999REMSYN04801011 46/// /1206 11088 21100 30025 40036 52004=
0132010110999992016012118004+80067+031500FM-12+001099999V0201201N005019999999N999999999-00861-01001100371ADDKA1120M-00511MA1999999100261MD1210051+9999OD139901301999REMSYN06401011 46/// /1205 11086 21100 30026 40037 52005 333 11051 91113=
0108010110999992016012119004+80067+031500FM-12+001099999V0201001N005019999999N999999999-00871-01001100361ADDMA1999999100251MD1290019+9999REMSYN04801011 46/// /1005 11087 21100 30025 40036 54001=EQDQ01.1    3APC3  
0089010110999992016012120004+80067+031500FM-12+001099999V0201801N005019999999N999999999-00771-01011100341ADDMA1999999100231MD1510031+9999REMSYN04801011 46/// /1805 11077 21101 30023 40034 55003=
0089010110999992016012121004+80067+031500FM-12+001099999V0201401N004019999999N999999999-01021-01181100361ADDMA1999999100251MD1990011+9999REMSYN04801011 46/// /1404 11102 21118 30025 40036 50001=
0108010110999992016012122004+80067+031500FM-12+001099999V0201201N005019999999N999999999-00921-01131100351ADDMA1999999100241MD1790019+9999REMSYN04801011 46/// /1205 11092 21113 30024 40035 54001=EQDQ01.1    3APC3  
0089010110999992016012123004+80067+031500FM-12+001099999V0201201N004019999999N999999999-00931-01151100321ADDMA1999999100211MD1510011+9999REMSYN04801011 46/// /1204 11093 21115 30021 40032 55001=
0113010110999992016012200004+80067+031500FM-12+001099999V0201101N004019999999N999999999-00921-01201100281ADDMA1999999100171MD1610081+9999OD139900601999REMSYN05801011 46/// /1104 11092 21120 30017 40028 56008 333 91106=
0089010110999992016012201004+80067+031500FM-12+001099999V0201001N004019999999N999999999-00821-01031100251ADDMA1999999100141MD1710111+9999REMSYN04801011 46/// /1004 11082 21103 30014 40025 57011=
0089010110999992016012202004+80067+031500FM-12+001099999V0201101N005019999999N999999999-00721-00971100201ADDMA1999999100101MD1710121+9999REMSYN04801011 46/// /1105 11072 21097 30010 40020 57012=
0089010110999992016012203004+80067+031500FM-12+001099999V0201201N004019999999N999999999-00701-00981100191ADDMA1999999100081MD1710091+9999REMSYN04801011 46/// /1204 11070 21098 30008 40019 57009=
0089010110999992016012204004+80067+031500FM-12+001099999V0201101N004019999999N999999999-00731-01031100151ADDMA1999999100041MD1710091+9999REMSYN04801011 46/// /1104 11073 21103 30004 40015 57009=
0089010110999992016012205004+80067+031500FM-12+001099999V0201001N005019999999N999999999-00681-00981100111ADDMA1999999100011MD1710091+9999REMSYN04801011 46/// /1005 11068 21098 30001 40011 57009=
0132010110999992016012206004+80067+031500FM-12+001099999V0201001N006019999999N999999999-00621-00891100071ADDKA1240N-01041MA1999999099961MD1710121+9999OD139900601999REMSYN06401011 46/// /1006 11062 21089 39996 40007 57012 333 21104 91106=
0089010110999992016012207004+80067+031500FM-12+001099999V0200901N006019999999N999999999-00571-00721100021ADDMA1999999099911MD1710131+9999REMSYN04801011 46/// /0906 11057 21072 39991 40002 57013=
0089010110999992016012208004+80067+031500FM-12+001099999V0200901N006019999999N999999999-00521-00661099991ADDMA1999999099891MD1710121+9999REMSYN04801011 46/// /0906 11052 21066 39989 49999 57012=
0089010110999992016012209004+80067+031500FM-12+001099999V0201001N006019999999N999999999-00451-00571099961ADDMA1999999099851MD1710111+9999REMSYN04801011 46/// /1006 11045 21057 39985 49996 57011=
0089010110999992016012210004+80067+031500FM-12+001099999V0200901N005019999999N999999999-00441-00601099951ADDMA1999999099841MD1710071+9999REMSYN04801011 46/// /0905 11044 21060 39984 49995 57007=
0089010110999992016012211004+80067+031500FM-12+001099999V0201601N002019999999N999999999-00441-00581099951ADDMA1999999099841MD1810041+9999REMSYN04801011 46/// /1602 11044 21058 39984 49995 58004=
0113010110999992016012212004+80067+031500FM-12+001099999V0202401N002019999999N999999999-00451-00531099971ADDMA1999999099861MD1410001+9999OD139900701999REMSYN05801011 46/// /2402 11045 21053 39986 49997 54000 333 91107=
0089010110999992016012213004+80067+031500FM-12+001099999V0203001N002019999999N999999999-00481-00551100001ADDMA1999999099891MD1110051+9999REMSYN04801011 46/// /3002 11048 21055 39989 40000 51005=
0089010110999992016012214004+80067+031500FM-12+001099999V0203601N003019999999N999999999-00511-00621100031ADDMA1999999099921MD1210081+9999REMSYN04801011 46/// /3603 11051 21062 39992 40003 52008=
0089010110999992016012215004+80067+031500FM-12+001099999V0203601N004019999999N999999999-00701-00911100071ADDMA1999999099961MD1210101+9999REMSYN04801011 46/// /3604 11070 21091 39996 40007 52010=
0089010110999992016012216004+80067+031500FM-12+001099999V0200301N002019999999N999999999-00571-00801100121ADDMA1999999100011MD1210111+9999REMSYN04801011 46/// /0302 11057 21080 30001 40012 52011=
0089010110999992016012217004+80067+031500FM-12+001099999V0201201N001019999999N999999999-00651-00811100161ADDMA1999999100051MD1210131+9999REMSYN04801011 46/// /1201 11065 21081 30005 40016 52013=
0132010110999992016012218004+80067+031500FM-12+001099999V0201501N001019999999N999999999-00581-00741100191ADDKA1120M-00421MA1999999100091MD1210121+9999OD139900501999REMSYN06401011 46/// /1501 11058 21074 30009 40019 52012 333 11042 91105=
0089010110999992016012219004+80067+031500FM-12+001099999V0200901N002019999999N999999999-00581-00731100211ADDMA1999999100101MD1210101+9999REMSYN04801011 46/// /0902 11058 21073 30010 40021 52010=
0089010110999992016012220004+80067+031500FM-12+001099999V0201101N003019999999N999999999-00621-00751100271ADDMA1999999100161MD1210111+9999REMSYN04801011 46/// /1103 11062 21075 30016 40027 52011=
0089010110999992016012221004+80067+031500FM-12+001099999V0201201N004019999999N999999999-00631-00781100311ADDMA1999999100201MD1210121+9999REMSYN04801011 46/// /1204 11063 21078 30020 40031 52012=
0089010110999992016012222004+80067+031500FM-12+001099999V0201001N005019999999N999999999-00641-00761100311ADDMA1999999100201MD1310101+9999REMSYN04801011 46/// /1005 11064 21076 30020 40031 53010=
0089010110999992016012223004+80067+031500FM-12+001099999V0201201N006019999999N999999999-00671-00791100321ADDMA1999999100211MD1310051+9999REMSYN04801011 46/// /1206 11067 21079 30021 40032 53005=
0113010110999992016012300004+80067+031500FM-12+001099999V0201101N008019999999N999999999-00711-00821100321ADDMA1999999100211MD1410001+9999OD139900901999REMSYN05801011 46/// /1108 11071 21082 30021 40032 54000 333 91109=
0089010110999992016012301004+80067+031500FM-12+001099999V0200801N011019999999N999999999-00721-00801100281ADDMA1999999100171MD1510031+9999REMSYN04801011 46/// /0811 11072 21080 30017 40028 55003=
0089010110999992016012302004+80067+031500FM-12+001099999V0200801N010019999999N999999999-00681-00751100281ADDMA1999999100171MD1710041+9999REMSYN04801011 46/// /0810 11068 21075 30017 40028 57004=
0089010110999992016012303004+80067+031500FM-12+001099999V0200701N011019999999N999999999-00731-00831100281ADDMA1999999100171MD1810031+9999REMSYN04801011 46/// /0711 11073 21083 30017 40028 58003=
0108010110999992016012304004+80067+031500FM-12+001099999V0200701N012019999999N999999999-00651-00761100291ADDMA1999999100181MD1290019+9999REMSYN04801011 46/// /0712 11065 21076 30018 40029 54001=EQDQ01.1    3APC3  
0108010110999992016012305004+80067+031500FM-12+001099999V0200801N011019999999N999999999-00591-00671100301ADDMA1999999100191MD1290029+9999REMSYN04801011 46/// /0811 11059 21067 30019 40030 54002=EQDQ01.2    3APC3  
0132010110999992016012306004+80067+031500FM-12+001099999V0200701N013019999999N999999999-00641-00741100281ADDKA1240N-00741MA1999999100171MD1410001+9999OD139901501999REMSYN06401011 46/// /0713 11064 21074 30017 40028 54000 333 21074 91115=
0089010110999992016012307004+80067+031500FM-12+001099999V0200801N010019999999N999999999-00571-00721100361ADDMA1999999100251MD1110071+9999REMSYN04801011 46/// /0810 11057 21072 30025 40036 51007=
0089010110999992016012308004+80067+031500FM-12+001099999V0201001N008019999999N999999999-00451-00561100421ADDMA1999999100311MD1110121+9999REMSYN04801011 46/// /1008 11045 21056 30031 40042 51012=
0089010110999992016012309004+80067+031500FM-12+001099999V0201201N007019999999N999999999-00411-00471100491ADDMA1999999100381MD1210211+9999REMSYN04801011 46/// /1207 11041 21047 30038 40049 52021=
0089010110999992016012310004+80067+031500FM-12+001099999V0201101N007019999999N999999999-00411-00461100511ADDMA1999999100401MD1310151+9999REMSYN04801011 46/// /1107 11041 21046 30040 40051 53015=
0089010110999992016012311004+80067+031500FM-12+001099999V0201101N006019999999N999999999-00471-00511100561ADDMA1999999100451MD1210141+9999REMSYN04801011 46/// /1106 11047 21051 30045 40056 52014=
0113010110999992016012312004+80067+031500FM-12+001099999V0201301N004019999999N999999999-00481-00521100651ADDMA1999999100541MD1110161+9999OD139901301999REMSYN05801011 46/// /1304 11048 21052 30054 40065 51016 333 91113=
0089010110999992016012313004+80067+031500FM-12+001099999V0201201N004019999999N999999999-00621-00671100671ADDMA1999999100561MD1310161+9999REMSYN04801011 46/// /1204 11062 21067 30056 40067 53016=
0089010110999992016012314004+80067+031500FM-12+001099999V0201201N003019999999N999999999-00611-00671100721ADDMA1999999100611MD1310161+9999REMSYN04801011 46/// /1203 11061 21067 30061 40072 53016=
0089010110999992016012315004+80067+031500FM-12+001099999V0201201N003019999999N999999999-00601-00671100741ADDMA1999999100631MD1210091+9999REMSYN04801011 46/// /1203 11060 21067 30063 40074 52009=
0089010110999992016012316004+80067+031500FM-12+001099999V0201101N003019999999N999999999-00581-00651100821ADDMA1999999100711MD1210151+9999REMSYN04801011 46/// /1103 11058 21065 30071 40082 52015=
0089010110999992016012317004+80067+031500FM-12+001099999V0201101N003019999999N999999999-00551-00601100841ADDMA1999999100731MD1210121+9999REMSYN04801011 46/// /1103 11055 21060 30073 40084 52012=
0132010110999992016012318004+80067+031500FM-12+001099999V0201101N004019999999N999999999-00571-00631100841ADDKA1120M-00361MA1999999100731MD1310101+9999OD139900501999REMSYN06401011 46/// /1104 11057 21063 30073 40084 53010 333 11036 91105=
0089010110999992016012319004+80067+031500FM-12+001099999V0201201N004019999999N999999999-00521-00591100881ADDMA1999999100771MD1210051+9999REMSYN04801011 46/// /1204 11052 21059 30077 40088 52005=
0089010110999992016012320004+80067+031500FM-12+001099999V0201101N004019999999N999999999-00511-00561100951ADDMA1999999100841MD1110111+9999REMSYN04801011 46/// /1104 11051 21056 30084 40095 51011=
0089010110999992016012321004+80067+031500FM-12+001099999V0201201N003019999999N999999999-00531-00581100991ADDMA1999999100881MD1210151+9999REMSYN04801011 46/// /1203 11053 21058 30088 40099 52015=
0089010110999992016012322004+80067+031500FM-12+001099999V0201201N003019999999N999999999-00541-00601101001ADDMA1999999100891MD1310121+9999REMSYN04801011 46/// /1203 11054 21060 30089 40100 53012=
0089010110999992016012323004+80067+031500FM-12+001099999V0201201N004019999999N999999999-00531-00581101011ADDMA1999999100901MD1210061+9999REMSYN04801011 46/// /1204 11053 21058 30090 40101 52006=
0113010110999992016012400004+80067+031500FM-12+001099999V0201101N004019999999N999999999-00481-00531101031ADDMA1999999100921MD1210051+9999OD139900501999REMSYN05801011 46/// /1104 11048 21053 30092 40103 52005 333 91105=
0089010110999992016012401004+80067+031500FM-12+001099999V0201201N004019999999N999999999-00491-00541101071ADDMA1999999100961MD1210071+9999REMSYN04801011 46/// /1204 11049 21054 30096 40107 52007=
0089010110999992016012402004+80067+031500FM-12+001099999V0201301N004019999999N999999999-00491-00551101081ADDMA1999999100971MD1210071+9999REMSYN04801011 46/// /1304 11049 21055 30097 40108 52007=
0089010110999992016012403004+80067+031500FM-12+001099999V0201201N003019999999N999999999-00481-00531101101ADDMA1999999101001MD1210071+9999REMSYN04801011 46/// /1203 11048 21053 30100 40110 52007=
0089010110999992016012404004+80067+031500FM-12+001099999V0201201N003019999999N999999999-00451-00501101131ADDMA1999999101021MD1210051+9999REMSYN04801011 46/// /1203 11045 21050 30102 40113 52005=
0089010110999992016012405004+80067+031500FM-12+001099999V0201401N003019999999N999999999-00371-00421101131ADDMA1999999101021MD1210051+9999REMSYN04801011 46/// /1403 11037 21042 30102 40113 52005=
0132010110999992016012406004+80067+031500FM-12+001099999V0201201N003019999999N999999999-00321-00371101161ADDKA1240N-00591MA1999999101051MD1210061+9999OD139900501999REMSYN06401011 46/// /1203 11032 21037 30105 40116 52006 333 21059 91105=
0089010110999992016012407004+80067+031500FM-12+001099999V0201301N004019999999N999999999-00231-00271101201ADDMA1999999101091MD1110081+9999REMSYN04801011 46/// /1304 11023 21027 30109 40120 51008=
0089010110999992016012408004+80067+031500FM-12+001099999V0201401N005019999999N999999999-00211-00261101211ADDMA1999999101101MD1210081+9999REMSYN04801011 46/// /1405 11021 21026 30110 40121 52008=
0089010110999992016012409004+80067+031500FM-12+001099999V0201301N007019999999N999999999-00231-00281101261ADDMA1999999101151MD1210101+9999REMSYN04801011 46/// /1307 11023 21028 30115 40126 52010=
0089010110999992016012410004+80067+031500FM-12+001099999V0201301N008019999999N999999999-00251-00311101271ADDMA1999999101171MD1210081+9999REMSYN04801011 46/// /1308 11025 21031 30117 40127 52008=
0089010110999992016012411004+80067+031500FM-12+001099999V0201201N008019999999N999999999-00191-00281101301ADDMA1999999101201MD1210091+9999REMSYN04801011 46/// /1208 11019 21028 30120 40130 52009=
0113010110999992016012412004+80067+031500FM-12+001099999V0201301N009019999999N999999999-00161-00261101311ADDMA1999999101201MD1210051+9999OD139901001999REMSYN05801011 46/// /1309 11016 21026 30120 40131 52005 333 91110=
0089010110999992016012413004+80067+031500FM-12+001099999V0201301N010019999999N999999999-00151-00171101301ADDMA1999999101201MD1510031+9999REMSYN04801011 46/// /1310 11015 21017 30120 40130 55003=
0089010110999992016012414004+80067+031500FM-12+001099999V0201501N010019999999N999999999-00121-00141101341ADDMA1999999101241MD1110041+9999REMSYN04801011 46/// /1510 11012 21014 30124 40134 51004=
0089010110999992016012415004+80067+031500FM-12+001099999V0201401N010019999999N999999999-00091-00111101371ADDMA1999999101261MD1110051+9999REMSYN04801011 46/// /1410 11009 21011 30126 40137 51005=
0089010110999992016012416004+80067+031500FM-12+001099999V0201501N010019999999N999999999-00091-00141101391ADDMA1999999101281MD1210091+9999REMSYN04801011 46/// /1510 11009 21014 30128 40139 52009=
0089010110999992016012417004+80067+031500FM-12+001099999V0201501N011019999999N999999999-00091-00151101401ADDMA1999999101291MD1210061+9999REMSYN04801011 46/// /1511 11009 21015 30129 40140 52006=
0132010110999992016012418004+80067+031500FM-12+001099999V0201401N011019999999N999999999-00131-00231101451ADDKA1120M-00081MA1999999101351MD1210091+9999OD139901401999REMSYN06401011 46/// /1411 11013 21023 30135 40145 52009 333 11008 91114=
0089010110999992016012419004+80067+031500FM-12+001099999V0201401N012019999999N999999999-00131-00281101471ADDMA1999999101361MD1210081+9999REMSYN04801011 46/// /1412 11013 21028 30136 40147 52008=
0059010110999992016012421004+80070+031500FM-12+001099999V0201481N0126199999999999999999-00151-00411101561ADDMA1999999101451MD1110101+9999OD130101631999REMSYN004BUFR
0089010110999992016012422004+80067+031500FM-12+001099999V0201601N012019999999N999999999-00161-00431101621ADDMA1999999101511MD1210151+9999REMSYN04801011 46/// /1612 11016 21043 30151 40162 52015=
0089010110999992016012423004+80067+031500FM-12+001099999V0201501N012019999999N999999999-00161-00411101601ADDMA1999999101491MD1310101+9999REMSYN04801011 46/// /1512 11016 21041 30149 40160 53010=
