0113010170999992016010100004+77683+014783FM-12+000699999V0201801N003019999999N999999999+00481+00091100851ADDMA1999999100771MD1110331+9999OD139901201999REMSYN05801017 46/// /1803 10048 20009 30077 40085 51033 333 91112=
0089010170999992016010101004+77683+014783FM-12+000699999V0201901N005019999999N999999999+00511+00051100851ADDMA1999999100771MD1310241+9999REMSYN04801017 46/// /1905 10051 20005 30077 40085 53024=
0089010170999992016010102004+77683+014783FM-12+000699999V0201801N007019999999N999999999+00561+00001100841ADDMA1999999100761MD1310141+9999REMSYN04801017 46/// /1807 10056 21000 30076 40084 53014=
0089010170999992016010103004+77683+014783FM-12+000699999V0201901N005019999999N999999999+00551+00031100881ADDMA1999999100801MD1990031+9999REMSYN04801017 46/// /1905 10055 20003 30080 40088 50003=
0089010170999992016010104004+77683+014783FM-12+000699999V0202401N002019999999N999999999+00551+00011100891ADDMA1999999100811MD1210041+9999REMSYN04801017 46/// /2402 10055 20001 30081 40089 52004=
0089010170999992016010105004+77683+014783FM-12+000699999V0200401N001019999999N999999999+00531+00011100871ADDMA1999999100791MD1510031+9999REMSYN04801017 46/// /0401 10053 20001 30079 40087 55003=
0151010170999992016010106004+77683+014783FM-12+000699999V0203001N002019999999N999999999+00461+00001100881ADDKA1240N+00391MA1999999100801MD1410009+9999OD139901001999REMSYN06401017 46/// /3002 10046 20000 30080 40088 54001 333 20039 91110=EQDQ01.1    3APC3  
0089010170999992016010107004+77683+014783FM-12+000699999V0201301N004019999999N999999999+00551+00011100851ADDMA1999999100771MD1710041+9999REMSYN04801017 46/// /1304 10055 20001 30077 40085 57004=
0089010170999992016010108004+77683+014783FM-12+000699999V0201101N002019999999N999999999+00531-00031100791ADDMA1999999100711MD1610081+9999REMSYN04801017 46/// /1102 10053 21003 30071 40079 56008=
0089010170999992016010109004+77683+014783FM-12+000699999V0200501N004019999999N999999999+00341-00081100701ADDMA1999999100621MD1610191+9999REMSYN04801017 46/// /0504 10034 21008 30062 40070 56019=
0089010170999992016010110004+77683+014783FM-12+000699999V0201301N006019999999N999999999+00421+00021100661ADDMA1999999100581MD1710191+9999REMSYN04801017 46/// /1306 10042 20002 30058 40066 57019=
0089010170999992016010111004+77683+014783FM-12+000699999V0200701N005019999999N999999999+00301+00021100561ADDMA1999999100481MD1710231+9999REMSYN04801017 46/// /0705 10030 20002 30048 40056 57023=
0113010170999992016010112004+77683+014783FM-12+000699999V0201101N008019999999N999999999+00321+00041100441ADDMA1999999100361MD1610261+9999OD139900901999REMSYN05801017 46/// /1108 10032 20004 30036 40044 56026 333 91109=
0089010170999992016010113004+77683+014783FM-12+000699999V0201301N008019999999N999999999+00331+00041100371ADDMA1999999100291MD1810291+9999REMSYN04801017 46/// /1308 10033 20004 30029 40037 58029=
0089010170999992016010114004+77683+014783FM-12+000699999V0201501N006019999999N999999999+00471+00121100331ADDMA1999999100251MD1810231+9999REMSYN04801017 46/// /1506 10047 20012 30025 40033 58023=
0089010170999992016010115004+77683+014783FM-12+000699999V0201801N008019999999N999999999+00591+00181100311ADDMA1999999100231MD1810131+9999REMSYN04801017 46/// /1808 10059 20018 30023 40031 58013=
0089010170999992016010116004+77683+014783FM-12+000699999V0201901N010019999999N999999999+00461+00131100301ADDMA1999999100221MD1710071+9999REMSYN04801017 46/// /1910 10046 20013 30022 40030 57007=
0089010170999992016010117004+77683+014783FM-12+000699999V0202001N010019999999N999999999+00471+00191100351ADDMA1999999100271MD1990021+9999REMSYN04801017 46/// /2010 10047 20019 30027 40035 50002=
0132010170999992016010118004+77683+014783FM-12+000699999V0201901N009019999999N999999999+00531+00271100391ADDKA1120M+00611MA1999999100311MD1110081+9999OD139901601999REMSYN06401017 46/// /1909 10053 20027 30031 40039 51008 333 10061 91116=
0089010170999992016010119004+77683+014783FM-12+000699999V0201901N009019999999N999999999+00521+00271100421ADDMA1999999100341MD1210121+9999REMSYN04801017 46/// /1909 10052 20027 30034 40042 52012=
0089010170999992016010120004+77683+014783FM-12+000699999V0201901N011019999999N999999999+00501+00291100491ADDMA1999999100411MD1210141+9999REMSYN04801017 46/// /1911 10050 20029 30041 40049 52014=
0089010170999992016010121004+77683+014783FM-12+000699999V0202001N011019999999N999999999+00431+00251100591ADDMA1999999100511MD1110201+9999REMSYN04801017 46/// /2011 10043 20025 30051 40059 51020=
0089010170999992016010122004+77683+014783FM-12+000699999V0201901N012019999999N999999999+00471+00211100661ADDMA1999999100581MD1210241+9999REMSYN04801017 46/// /1912 10047 20021 30058 40066 52024=
0089010170999992016010123004+77683+014783FM-12+000699999V0201901N012019999999N999999999+00531+00251100731ADDMA1999999100651MD1210241+9999REMSYN04801017 46/// /1912 10053 20025 30065 40073 52024=
0113010170999992016010200004+77683+014783FM-12+000699999V0201901N009019999999N999999999+00561+00191100821ADDMA1999999100741MD1210231+9999OD139901501999REMSYN05801017 46/// /1909 10056 20019 30074 40082 52023 333 91115=
0089010170999992016010201004+77683+014783FM-12+000699999V0201801N006019999999N999999999+00611+00181100841ADDMA1999999100761MD1310181+9999REMSYN04801017 46/// /1806 10061 20018 30076 40084 53018=
0089010170999992016010202004+77683+014783FM-12+000699999V0201901N007019999999N999999999+00571+00181100781ADDMA1999999100701MD1310051+9999REMSYN04801017 46/// /1907 10057 20018 30070 40078 53005=
0089010170999992016010203004+77683+014783FM-12+000699999V0201801N008019999999N999999999+00571+00161100671ADDMA1999999100591MD1610151+9999REMSYN04801017 46/// /1808 10057 20016 30059 40067 56015=
0089010170999992016010204004+77683+014783FM-12+000699999V0201901N008019999999N999999999+00641+00011100691ADDMA1999999100611MD1810151+9999REMSYN04801017 46/// /1908 10064 20001 30061 40069 58015=
0089010170999992016010205004+77683+014783FM-12+000699999V0201701N006019999999N999999999+00611-00131100631ADDMA1999999100551MD1810151+9999REMSYN04801017 46/// /1706 10061 21013 30055 40063 58015=
0132010170999992016010206004+77683+014783FM-12+000699999V0201401N008019999999N999999999+00471-00031100491ADDKA1240N+00421MA1999999100411MD1610181+9999OD139901501999REMSYN06401017 46/// /1408 10047 21003 30041 40049 56018 333 20042 91115=
0089010170999992016010207004+77683+014783FM-12+000699999V0201001N005019999999N999999999+00341+00051100411ADDMA1999999100331MD1710281+9999REMSYN04801017 46/// /1005 10034 20005 30033 40041 57028=
0089010170999992016010208004+77683+014783FM-12+000699999V0201701N005019999999N999999999+00411+00011100351ADDMA1999999100271MD1810291+9999REMSYN04801017 46/// /1705 10041 20001 30027 40035 58029=
0089010170999992016010209004+77683+014783FM-12+000699999V0201901N008019999999N999999999+00331+00041100351ADDMA1999999100271MD1810141+9999REMSYN04801017 46/// /1908 10033 20004 30027 40035 58014=
0089010170999992016010210004+77683+014783FM-12+000699999V0201901N009019999999N999999999+00271+00031100331ADDMA1999999100251MD1810091+9999REMSYN04801017 46/// /1909 10027 20003 30025 40033 58009=
0089010170999992016010211004+77683+014783FM-12+000699999V0201901N012019999999N999999999+00221+00061100291ADDMA1999999100211MD1610061+9999REMSYN04801017 46/// /1912 10022 20006 30021 40029 56006=
0113010170999992016010212004+77683+014783FM-12+000699999V0202001N011019999999N999999999+00131+00041100531ADDMA1999999100451MD1110181+9999OD139901801999REMSYN05801017 46/// /2011 10013 20004 30045 40053 51018 333 91118=
0089010170999992016010213004+77683+014783FM-12+000699999V0202101N014019999999N999999999+00251+00021100731ADDMA1999999100641MD1990401+9999REMSYN04801017 46/// /2114 10025 20002 30064 40073 50040=
0089010170999992016010214004+77683+014783FM-12+000699999V0202101N012019999999N999999999+00231+00021100981ADDMA1999999100901MD1210691+9999REMSYN04801017 46/// /2112 10023 20002 30090 40098 52069=
0089010170999992016010215004+77683+014783FM-12+000699999V0202101N012019999999N999999999+00211+00021101191ADDMA1999999101111MD1210661+9999REMSYN04801017 46/// /2112 10021 20002 30111 40119 52066=
0089010170999992016010216004+77683+014783FM-12+000699999V0202101N010019999999N999999999+00181+00031101421ADDMA1999999101331MD1310691+9999REMSYN04801017 46/// /2110 10018 20003 30133 40142 53069=
0089010170999992016010217004+77683+014783FM-12+000699999V0202201N009019999999N999999999+00181+00031101581ADDMA1999999101501MD1310601+9999REMSYN04801017 46/// /2209 10018 20003 30150 40158 53060=
0132010170999992016010218004+77683+014783FM-12+000699999V0202101N009019999999N999999999+00281-00101101731ADDKA1120M+00461MA1999999101651MD1310541+9999OD139901901999REMSYN06401017 46/// /2109 10028 21010 30165 40173 53054 333 10046 91119=
0089010170999992016010219004+77683+014783FM-12+000699999V0202101N008019999999N999999999+00301-00041101891ADDMA1999999101811MD1210481+9999REMSYN04801017 46/// /2108 10030 21004 30181 40189 52048=
0089010170999992016010220004+77683+014783FM-12+000699999V0202101N007019999999N999999999+00211+00001102001ADDMA1999999101911MD1310421+9999REMSYN04801017 46/// /2107 10021 20000 30191 40200 53042=
0089010170999992016010221004+77683+014783FM-12+000699999V0202001N010019999999N999999999+00341+00111102061ADDMA1999999101981MD1310331+9999REMSYN04801017 46/// /2010 10034 20011 30198 40206 53033=
0089010170999992016010222004+77683+014783FM-12+000699999V0202001N010019999999N999999999+00391+00061102071ADDMA1999999101991MD1310181+9999REMSYN04801017 46/// /2010 10039 20006 30199 40207 53018=
0089010170999992016010223004+77683+014783FM-12+000699999V0202001N009019999999N999999999+00351+00071102141ADDMA1999999102051MD1210141+9999REMSYN04801017 46/// /2009 10035 20007 30205 40214 52014=
0113010170999992016010300004+77683+014783FM-12+000699999V0201901N008019999999N999999999+00491+00071102141ADDMA1999999102061MD1210081+9999OD139901301999REMSYN05801017 46/// /1908 10049 20007 30206 40214 52008 333 91113=
0089010170999992016010301004+77683+014783FM-12+000699999V0201901N009019999999N999999999+00531+00121102121ADDMA1999999102041MD1310061+9999REMSYN04801017 46/// /1909 10053 20012 30204 40212 53006=
0089010170999992016010302004+77683+014783FM-12+000699999V0201901N007019999999N999999999+00481+00111102101ADDMA1999999102021MD1710031+9999REMSYN04801017 46/// /1907 10048 20011 30202 40210 57003=
0089010170999992016010303004+77683+014783FM-12+000699999V0201801N006019999999N999999999+00581+00101102001ADDMA1999999101921MD1610141+9999REMSYN04801017 46/// /1806 10058 20010 30192 40200 56014=
0089010170999992016010304004+77683+014783FM-12+000699999V0201801N009019999999N999999999+00511+00121101911ADDMA1999999101831MD1610221+9999REMSYN04801017 46/// /1809 10051 20012 30183 40191 56022=
0089010170999992016010305004+77683+014783FM-12+000699999V0201801N011019999999N999999999+00461+00081101861ADDMA1999999101781MD1810241+9999REMSYN04801017 46/// /1811 10046 20008 30178 40186 58024=
0132010170999992016010306004+77683+014783FM-12+000699999V0201801N012019999999N999999999+00531+00051101751ADDKA1240N+00211MA1999999101671MD1710251+9999OD139902101999REMSYN06401017 46/// /1812 10053 20005 30167 40175 57025 333 20021 91121=
0089010170999992016010307004+77683+014783FM-12+000699999V0201901N014019999999N999999999+00571-00011101671ADDMA1999999101591MD1610231+9999REMSYN04801017 46/// /1914 10057 21001 30159 40167 56023=
0089010170999992016010308004+77683+014783FM-12+000699999V0201801N013019999999N999999999+00521+00131101641ADDMA1999999101551MD1810221+9999REMSYN04801017 46/// /1813 10052 20013 30155 40164 58022=
0089010170999992016010309004+77683+014783FM-12+000699999V0201901N013019999999N999999999+00481+00151101591ADDMA1999999101511MD1810161+9999REMSYN04801017 46/// /1913 10048 20015 30151 40159 58016=
0089010170999992016010310004+77683+014783FM-12+000699999V0201801N011019999999N999999999+00491+00101101591ADDMA1999999101511MD1810081+9999REMSYN04801017 46/// /1811 10049 20010 30151 40159 58008=
0089010170999992016010311004+77683+014783FM-12+000699999V0201901N012019999999N999999999+00471+00171101551ADDMA1999999101471MD1710081+9999REMSYN04801017 46/// /1912 10047 20017 30147 40155 57008=
0113010170999992016010312004+77683+014783FM-12+000699999V0201801N012019999999N999999999+00531+00211101471ADDMA1999999101391MD1610121+9999OD139902401999REMSYN05801017 46/// /1812 10053 20021 30139 40147 56012 333 91124=
0089010170999992016010313004+77683+014783FM-12+000699999V0201901N012019999999N999999999+00481+00201101401ADDMA1999999101321MD1710201+9999REMSYN04801017 46/// /1912 10048 20020 30132 40140 57020=
0089010170999992016010314004+77683+014783FM-12+000699999V0201901N013019999999N999999999+00511+00161101371ADDMA1999999101291MD1810181+9999REMSYN04801017 46/// /1913 10051 20016 30129 40137 58018=
0089010170999992016010315004+77683+014783FM-12+000699999V0202001N011019999999N999999999+00411+00171101371ADDMA1999999101291MD1810101+9999REMSYN04801017 46/// /2011 10041 20017 30129 40137 58010=
0089010170999992016010316004+77683+014783FM-12+000699999V0202001N011019999999N999999999+00441+00161101381ADDMA1999999101301MD1990021+9999REMSYN04801017 46/// /2011 10044 20016 30130 40138 50002=
0089010170999992016010317004+77683+014783FM-12+000699999V0202501N010019999999N999999999+00151+00021101491ADDMA1999999101401MD1110111+9999REMSYN04801017 46/// /2510 10015 20002 30140 40149 51011=
0132010170999992016010318004+77683+014783FM-12+000699999V0202401N011019999999N999999999+00091-00051101521ADDKA1120M+00601MA1999999101441MD1210161+9999OD139901601999REMSYN06401017 46/// /2411 10009 21005 30144 40152 52016 333 10060 91116=
0089010170999992016010319004+77683+014783FM-12+000699999V0202101N008019999999N999999999+00181-00161101521ADDMA1999999101441MD1310141+9999REMSYN04801017 46/// /2108 10018 21016 30144 40152 53014=
0089010170999992016010320004+77683+014783FM-12+000699999V0201901N008019999999N999999999+00141-00121101511ADDMA1999999101431MD1510031+9999REMSYN04801017 46/// /1908 10014 21012 30143 40151 55003=
0089010170999992016010321004+77683+014783FM-12+000699999V0202001N007019999999N999999999+00141-00121101551ADDMA1999999101471MD1990031+9999REMSYN04801017 46/// /2007 10014 21012 30147 40155 50003=
0089010170999992016010322004+77683+014783FM-12+000699999V0202001N006019999999N999999999+00101-00091101571ADDMA1999999101491MD1210051+9999REMSYN04801017 46/// /2006 10010 21009 30149 40157 52005=
0089010170999992016010323004+77683+014783FM-12+000699999V0201901N007019999999N999999999+00121-00091101551ADDMA1999999101471MD1310041+9999REMSYN04801017 46/// /1907 10012 21009 30147 40155 53004=
0113010170999992016010400004+77683+014783FM-12+000699999V0202001N004019999999N999999999+00091-00071101551ADDMA1999999101471MD1410001+9999OD139901201999REMSYN05801017 46/// /2004 10009 21007 30147 40155 54000 333 91112=
0089010170999992016010401004+77683+014783FM-12+000699999V0202101N003019999999N999999999+00021-00051101571ADDMA1999999101491MD1990001+9999REMSYN04801017 46/// /2103 10002 21005 30149 40157 50000=
0089010170999992016010402004+77683+014783FM-12+000699999V0202201N002019999999N999999999+00021-00121101551ADDMA1999999101471MD1410001+9999REMSYN04801017 46/// /2202 10002 21012 30147 40155 54000=
0089010170999992016010403004+77683+014783FM-12+000699999V0202001N002019999999N999999999+00011-00211101531ADDMA1999999101451MD1510021+9999REMSYN04801017 46/// /2002 10001 21021 30145 40153 55002=
0089010170999992016010404004+77683+014783FM-12+000699999V0202201N002019999999N999999999+00001-00211101521ADDMA1999999101441MD1710051+9999REMSYN04801017 46/// /2202 10000 21021 30144 40152 57005=
0089010170999992016010405004+77683+014783FM-12+000699999V0202801N005019999999N999999999-00011-00321101511ADDMA1999999101431MD1710041+9999REMSYN04801017 46/// /2805 11001 21032 30143 40151 57004=
0132010170999992016010406004+77683+014783FM-12+000699999V0202801N005019999999N999999999-00021-00431101551ADDKA1240N-00021MA1999999101471MD1990021+9999OD139900701999REMSYN06401017 46/// /2805 11002 21043 30147 40155 50002 333 21002 91107=
0089010170999992016010407004+77683+014783FM-12+000699999V0202301N003019999999N999999999-00021-00501101601ADDMA1999999101521MD1110081+9999REMSYN04801017 46/// /2303 11002 21050 30152 40160 51008=
0089010170999992016010408004+77683+014783FM-12+000699999V0202801N003019999999N999999999-00041-00461101631ADDMA1999999101551MD1210121+9999REMSYN04801017 46/// /2803 11004 21046 30155 40163 52012=
0089010170999992016010409004+77683+014783FM-12+000699999V0202701N003019999999N999999999-00021-00451101671ADDMA1999999101591MD1210111+9999REMSYN04801017 46/// /2703 11002 21045 30159 40167 52011=
0089010170999992016010410004+77683+014783FM-12+000699999V0202601N002019999999N999999999-00031-00411101691ADDMA1999999101601MD1210091+9999REMSYN04801017 46/// /2602 11003 21041 30160 40169 52009=
0089010170999992016010411004+77683+014783FM-12+000699999V0202501N004019999999N999999999-00031-00491101681ADDMA1999999101601MD1310041+9999REMSYN04801017 46/// /2504 11003 21049 30160 40168 53004=
0132010170999992016010412004+77683+014783FM-12+000699999V0202601N004019999999N999999999-00051-00531101691ADDMA1999999101611MD1290029+9999OD139900601999REMSYN05801017 46/// /2604 11005 21053 30161 40169 54002 333 91106=EQDQ01.2    3APC3  
0089010170999992016010413004+77683+014783FM-12+000699999V0202601N003019999999N999999999-00051-00491101721ADDMA1999999101641MD1110031+9999REMSYN04801017 46/// /2603 11005 21049 30164 40172 51003=
0089010170999992016010414004+77683+014783FM-12+000699999V0202401N004019999999N999999999-00071-00511101761ADDMA1999999101681MD1110081+9999REMSYN04801017 46/// /2404 11007 21051 30168 40176 51008=
0089010170999992016010415004+77683+014783FM-12+000699999V0202201N003019999999N999999999-00081-00381101811ADDMA1999999101721MD1210111+9999REMSYN04801017 46/// /2203 11008 21038 30172 40181 52011=
0089010170999992016010416004+77683+014783FM-12+000699999V0202301N003019999999N999999999-00081-00381101851ADDMA1999999101771MD1210131+9999REMSYN04801017 46/// /2303 11008 21038 30177 40185 52013=
0089010170999992016010417004+77683+014783FM-12+000699999V0202101N002019999999N999999999-00081-00321101891ADDMA1999999101801MD1210121+9999REMSYN04801017 46/// /2102 11008 21032 30180 40189 52012=
0132010170999992016010418004+77683+014783FM-12+000699999V0201901N003019999999N999999999-00071-00341101941ADDKA1120M+00001MA1999999101851MD1210131+9999OD139900601999REMSYN06401017 46/// /1903 11007 21034 30185 40194 52013 333 10000 91106=
0089010170999992016010419004+77683+014783FM-12+000699999V0202001N004019999999N999999999-00041-00421101961ADDMA1999999101881MD1210111+9999REMSYN04801017 46/// /2004 11004 21042 30188 40196 52011=
0089010170999992016010420004+77683+014783FM-12+000699999V0202001N005019999999N999999999-00021-00431101971ADDMA1999999101891MD1310091+9999REMSYN04801017 46/// /2005 11002 21043 30189 40197 53009=
0089010170999992016010421004+77683+014783FM-12+000699999V0202401N004019999999N999999999+00001-00391102031ADDMA1999999101951MD1110091+9999REMSYN04801017 46/// /2404 10000 21039 30195 40203 51009=
0089010170999992016010422004+77683+014783FM-12+000699999V0202701N004019999999N999999999-00011-00471102061ADDMA1999999101971MD1210101+9999REMSYN04801017 46/// /2704 11001 21047 30197 40206 52010=
0089010170999992016010423004+77683+014783FM-12+000699999V0202301N003019999999N999999999-00021-00501102091ADDMA1999999102001MD1210111+9999REMSYN04801017 46/// /2303 11002 21050 30200 40209 52011=
0113010170999992016010500004+77683+014783FM-12+000699999V0202801N003019999999N999999999-00061-00571102111ADDMA1999999102031MD1210081+9999OD139900701999REMSYN05801017 46/// /2803 11006 21057 30203 40211 52008 333 91107=
0089010170999992016010501004+77683+014783FM-12+000699999V0202901N003019999999N999999999-00081-00541102161ADDMA1999999102071MD1210101+9999REMSYN04801017 46/// /2903 11008 21054 30207 40216 52010=
0089010170999992016010502004+77683+014783FM-12+000699999V0202701N003019999999N999999999-00121-00581102151ADDMA1999999102071MD1210071+9999REMSYN04801017 46/// /2703 11012 21058 30207 40215 52007=
0089010170999992016010503004+77683+014783FM-12+000699999V0202801N002019999999N999999999-00131-00571102161ADDMA1999999102081MD1310051+9999REMSYN04801017 46/// /2802 11013 21057 30208 40216 53005=
0089010170999992016010504004+77683+014783FM-12+000699999V0202501N002019999999N999999999-00161-00611102191ADDMA1999999102111MD1110031+9999REMSYN04801017 46/// /2502 11016 21061 30211 40219 51003=
0089010170999992016010505004+77683+014783FM-12+000699999V0203201N003019999999N999999999-00201-00541102211ADDMA1999999102131MD1210061+9999REMSYN04801017 46/// /3203 11020 21054 30213 40221 52006=
0132010170999992016010506004+77683+014783FM-12+000699999V0203601N003019999999N999999999-00251-00561102221ADDKA1240N-00271MA1999999102131MD1210061+9999OD139900501999REMSYN06401017 46/// /3603 11025 21056 30213 40222 52006 333 21027 91105=
0089010170999992016010507004+77683+014783FM-12+000699999V0203601N003019999999N999999999-00271-00581102251ADDMA1999999102161MD1210051+9999REMSYN04801017 46/// /3603 11027 21058 30216 40225 52005=
0089010170999992016010508004+77683+014783FM-12+000699999V0203501N002019999999N999999999-00261-00581102261ADDMA1999999102171MD1210051+9999REMSYN04801017 46/// /3502 11026 21058 30217 40226 52005=
0089010170999992016010509004+77683+014783FM-12+000699999V0203601N003019999999N999999999-00291-00571102261ADDMA1999999102181MD1210051+9999REMSYN04801017 46/// /3603 11029 21057 30218 40226 52005=
0108010170999992016010510004+77683+014783FM-12+000699999V0203601N003019999999N999999999-00321-00611102261ADDMA1999999102171MD1290019+9999REMSYN04801017 46/// /3603 11032 21061 30217 40226 54001=EQDQ01.1    3APC3  
0108010170999992016010511004+77683+014783FM-12+000699999V0200301N002019999999N999999999-00341-00631102271ADDMA1999999102181MD1290019+9999REMSYN04801017 46/// /0302 11034 21063 30218 40227 54001=EQDQ01.1    3APC3  
0132010170999992016010512004+77683+014783FM-12+000699999V0203601N001019999999N999999999-00371-00681102251ADDMA1999999102171MD1790019+9999OD139900501999REMSYN05801017 46/// /3601 11037 21068 30217 40225 54001 333 91105=EQDQ01.1    3APC3  
0108010170999992016010513004+77683+014783FM-12+000699999V0200701N002019999999N999999999-00391-00691102231ADDMA1999999102151MD1790039+9999REMSYN04801017 46/// /0702 11039 21069 30215 40223 54002=EQDQ01.2    3APC3  
0108010170999992016010514004+77683+014783FM-12+000699999V0200901N002019999999N999999999-00441-00711102241ADDMA1999999102151MD1790039+9999REMSYN04801017 46/// /0902 11044 21071 30215 40224 54003=EQDQ01.3    3APC3  
0108010170999992016010515004+77683+014783FM-12+000699999V0200501N003019999999N999999999-00451-00721102231ADDMA1999999102141MD1790029+9999REMSYN04801017 46/// /0503 11045 21072 30214 40223 54002=EQDQ01.2    3APC3  
0108010170999992016010516004+77683+014783FM-12+000699999V0200101N004019999999N999999999-00491-00721102221ADDMA1999999102131MD1790019+9999REMSYN04801017 46/// /0104 11049 21072 30213 40222 54002=EQDQ01.2    3APC3  
0108010170999992016010517004+77683+014783FM-12+000699999V0200501N003019999999N999999999-00511-00741102211ADDMA1999999102131MD1790039+9999REMSYN04801017 46/// /0503 11051 21074 30213 40221 54002=EQDQ01.2    3APC3  
0151010170999992016010518004+77683+014783FM-12+000699999V0200201N003019999999N999999999-00551-00791102211ADDKA1120M-00251MA1999999102131MD1790029+9999OD139900601999REMSYN06401017 46/// /0203 11055 21079 30213 40221 54001 333 11025 91106=EQDQ01.1    3APC3  
0089010170999992016010519004+77683+014783FM-12+000699999V0203501N002019999999N999999999-00591-00831102181ADDMA1999999102101MD1710041+9999REMSYN04801017 46/// /3502 11059 21083 30210 40218 57004=
0089010170999992016010520004+77683+014783FM-12+000699999V0200701N002019999999N999999999-00601-00831102181ADDMA1999999102091MD1710041+9999REMSYN04801017 46/// /0702 11060 21083 30209 40218 57004=
0089010170999992016010521004+77683+014783FM-12+000699999V0201101N002019999999N999999999-00631-00831102141ADDMA1999999102051MD1710081+9999REMSYN04801017 46/// /1102 11063 21083 30205 40214 57008=
0089010170999992016010522004+77683+014783FM-12+000699999V0200801N004019999999N999999999-00661-00851102141ADDMA1999999102051MD1710051+9999REMSYN04801017 46/// /0804 11066 21085 30205 40214 57005=
0113010170999992016010600004+77683+014783FM-12+000699999V0200901N002019999999N999999999-00661-00871102071ADDMA1999999101991MD1710061+9999OD139900601999REMSYN05801017 46/// /0902 11066 21087 30199 40207 57006 333 91106=
0089010170999992016010601004+77683+014783FM-12+000699999V0201001N002019999999N999999999-00621-00851102051ADDMA1999999101961MD1710091+9999REMSYN04801017 46/// /1002 11062 21085 30196 40205 57009=
0089010170999992016010602004+77683+014783FM-12+000699999V0201101N002019999999N999999999-00611-00841102021ADDMA1999999101941MD1710081+9999REMSYN04801017 46/// /1102 11061 21084 30194 40202 57008=
0089010170999992016010603004+77683+014783FM-12+000699999V0200701N004019999999N999999999-00621-00821101991ADDMA1999999101911MD1710081+9999REMSYN04801017 46/// /0704 11062 21082 30191 40199 57008=
0089010170999992016010604004+77683+014783FM-12+000699999V0200801N004019999999N999999999-00641-00851101981ADDMA1999999101891MD1710071+9999REMSYN04801017 46/// /0804 11064 21085 30189 40198 57007=
0089010170999992016010605004+77683+014783FM-12+000699999V0200701N004019999999N999999999-00661-00871101951ADDMA1999999101861MD1710071+9999REMSYN04801017 46/// /0704 11066 21087 30186 40195 57007=
0132010170999992016010606004+77683+014783FM-12+000699999V0200801N004019999999N999999999-00681-00921101931ADDKA1240N-00691MA1999999101841MD1710071+9999OD139900601999REMSYN06401017 46/// /0804 11068 21092 30184 40193 57007 333 21069 91106=
0089010170999992016010607004+77683+014783FM-12+000699999V0200601N005019999999N999999999-00691-00891101951ADDMA1999999101871MD1990031+9999REMSYN04801017 46/// /0605 11069 21089 30187 40195 50003=
0089010170999992016010608004+77683+014783FM-12+000699999V0200801N004019999999N999999999-00701-00891101961ADDMA1999999101881MD1990011+9999REMSYN04801017 46/// /0804 11070 21089 30188 40196 50001=
0089010170999992016010609004+77683+014783FM-12+000699999V0200601N004019999999N999999999-00671-00861101951ADDMA1999999101871MD1510031+9999REMSYN04801017 46/// /0604 11067 21086 30187 40195 55003=
0108010170999992016010610004+77683+014783FM-12+000699999V0200501N005019999999N999999999-00721-00871101941ADDMA1999999101851MD1790019+9999REMSYN04801017 46/// /0505 11072 21087 30185 40194 54002=EQDQ01.2    3APC3  
0089010170999992016010611004+77683+014783FM-12+000699999V0200501N005019999999N999999999-00781-00931101911ADDMA1999999101821MD1710051+9999REMSYN04801017 46/// /0505 11078 21093 30182 40191 57005=
0113010170999992016010612004+77683+014783FM-12+000699999V0200501N006019999999N999999999-00771-00891101901ADDMA1999999101821MD1710051+9999OD139900701999REMSYN05801017 46/// /0506 11077 21089 30182 40190 57005 333 91107=
0089010170999992016010613004+77683+014783FM-12+000699999V0200501N005019999999N999999999-00791-00921101921ADDMA1999999101831MD1990021+9999REMSYN04801017 46/// /0505 11079 21092 30183 40192 50002=
0108010170999992016010614004+77683+014783FM-12+000699999V0200601N005019999999N999999999-00771-00921101901ADDMA1999999101811MD1790019+9999REMSYN04801017 46/// /0605 11077 21092 30181 40190 54001=EQDQ01.1    3APC3  
0108010170999992016010615004+77683+014783FM-12+000699999V0200501N005019999999N999999999-00771-00931101891ADDMA1999999101801MD1790019+9999REMSYN04801017 46/// /0505 11077 21093 30180 40189 54001=EQDQ01.1    3APC3  
0089010170999992016010616004+77683+014783FM-12+000699999V0200501N005019999999N999999999-00741-00901101921ADDMA1999999101831MD1990001+9999REMSYN04801017 46/// /0505 11074 21090 30183 40192 50000=
0089010170999992016010617004+77683+014783FM-12+000699999V0200501N006019999999N999999999-00771-00951101931ADDMA1999999101841MD1210031+9999REMSYN04801017 46/// /0506 11077 21095 30184 40193 52003=
0132010170999992016010618004+77683+014783FM-12+000699999V0200601N006019999999N999999999-00751-00951101911ADDKA1120M-00661MA1999999101831MD1510021+9999OD139900701999REMSYN06401017 46/// /0606 11075 21095 30183 40191 55002 333 11066 91107=
0089010170999992016010619004+77683+014783FM-12+000699999V0200601N006019999999N999999999-00751-01001101921ADDMA1999999101831MD1410001+9999REMSYN04801017 46/// /0606 11075 21100 30183 40192 54000=
0089010170999992016010620004+77683+014783FM-12+000699999V0200501N007019999999N999999999-00721-01021101951ADDMA1999999101861MD1990021+9999REMSYN04801017 46/// /0507 11072 21102 30186 40195 50002=
0089010170999992016010621004+77683+014783FM-12+000699999V0200501N008019999999N999999999-00661-00941101951ADDMA1999999101861MD1210031+9999REMSYN04801017 46/// /0508 11066 21094 30186 40195 52003=
0089010170999992016010622004+77683+014783FM-12+000699999V0200401N007019999999N999999999-00681-00961101971ADDMA1999999101881MD1210051+9999REMSYN04801017 46/// /0407 11068 21096 30188 40197 52005=
0108010170999992016010623004+77683+014783FM-12+000699999V0200401N008019999999N999999999-00671-00971101981ADDMA1999999101891MD1290039+9999REMSYN04801017 46/// /0408 11067 21097 30189 40198 54003=EQDQ01.3    3APC3  
0113010170999992016010700004+77683+014783FM-12+000699999V0200501N007019999999N999999999-00631-00931102011ADDMA1999999101931MD1210061+9999OD139901101999REMSYN05801017 46/// /0507 11063 21093 30193 40201 52006 333 91111=
0089010170999992016010701004+77683+014783FM-12+000699999V0200701N005019999999N999999999-00631-01021102031ADDMA1999999101951MD1210061+9999REMSYN04801017 46/// /0705 11063 21102 30195 40203 52006=
0089010170999992016010702004+77683+014783FM-12+000699999V0200601N005019999999N999999999-00611-00971102041ADDMA1999999101961MD1210071+9999REMSYN04801017 46/// /0605 11061 21097 30196 40204 52007=
0089010170999992016010703004+77683+014783FM-12+000699999V0200501N006019999999N999999999-00561-00791102021ADDMA1999999101931MD1510011+9999REMSYN04801017 46/// /0506 11056 21079 30193 40202 55001=
0089010170999992016010704004+77683+014783FM-12+000699999V0200501N006019999999N999999999-00541-00771102031ADDMA1999999101941MD1410001+9999REMSYN04801017 46/// /0506 11054 21077 30194 40203 54000=
0089010170999992016010705004+77683+014783FM-12+000699999V0200601N005019999999N999999999-00531-00881102041ADDMA1999999101951MD1990001+9999REMSYN04801017 46/// /0605 11053 21088 30195 40204 50000=
0132010170999992016010706004+77683+014783FM-12+000699999V0200501N006019999999N999999999-00481-00781102061ADDKA1240N-00761MA1999999101971MD1210041+9999OD139900901999REMSYN06401017 46/// /0506 11048 21078 30197 40206 52004 333 21076 91109=
0089010170999992016010707004+77683+014783FM-12+000699999V0200401N008019999999N999999999-00501-00891102071ADDMA1999999101981MD1210041+9999REMSYN04801017 46/// /0408 11050 21089 30198 40207 52004=
0089010170999992016010708004+77683+014783FM-12+000699999V0200401N009019999999N999999999-00461-00821102081ADDMA1999999102001MD1210051+9999REMSYN04801017 46/// /0409 11046 21082 30200 40208 52005=
0108010170999992016010710004+77683+014783FM-12+000699999V0200601N008019999999N999999999-00491-00901102101ADDMA1999999102011MD1290039+9999REMSYN04801017 46/// /0608 11049 21090 30201 40210 54003=EQDQ01.3    3APC3  
0089010170999992016010711004+77683+014783FM-12+000699999V0200701N007019999999N999999999-00531-01021102121ADDMA1999999102041MD1210041+9999REMSYN04801017 46/// /0707 11053 21102 30204 40212 52004=
0089010170999992016010712004+77683+014783FM-12+000699999V0200601N009019999999N999999999-00491-00921102081ADDMA1999999102001MD1510021+9999REMSYN04801017 46/// /0609 11049 21092 30200 40208 55002=
0108010170999992016010713004+77683+014783FM-12+000699999V0200501N010019999999N999999999-00511-01001102081ADDMA1999999102001MD1790029+9999REMSYN04801017 46/// /0510 11051 21100 30200 40208 54001=EQDQ01.1    3APC3  
0089010170999992016010714004+77683+014783FM-12+000699999V0200601N009019999999N999999999-00511-00861102091ADDMA1999999102011MD1810031+9999REMSYN04801017 46/// /0609 11051 21086 30201 40209 58003=
0108010170999992016010715004+77683+014783FM-12+000699999V0200601N011019999999N999999999-00551-00961102071ADDMA1999999101991MD1790019+9999REMSYN04801017 46/// /0611 11055 21096 30199 40207 54001=EQDQ01.1    3APC3  
0089010170999992016010716004+77683+014783FM-12+000699999V0200601N011019999999N999999999-00551-01081102041ADDMA1999999101961MD1610041+9999REMSYN04801017 46/// /0611 11055 21108 30196 40204 56004=
0089010170999992016010717004+77683+014783FM-12+000699999V0200501N011019999999N999999999-00591-01031102041ADDMA1999999101951MD1710051+9999REMSYN04801017 46/// /0511 11059 21103 30195 40204 57005=
0113010170999992016010718004+77683+014783FM-12+000699999V0200501N012019999999N999999999-00651-00921102021ADDMA1999999101931MD1710051+9999OD139901501999REMSYN05801017 46/// /0512 11065 21092 30193 40202 57005 333 91115=
0108010170999992016010719004+77683+014783FM-12+000699999V0200601N013019999999N999999999-00721-01121102031ADDMA1999999101941MD1790019+9999REMSYN04801017 46/// /0613 11072 21112 30194 40203 54002=EQDQ01.2    3APC3  
0108010170999992016010720004+77683+014783FM-12+000699999V0200501N013019999999N999999999-00741-01241102011ADDMA1999999101931MD1790039+9999REMSYN04801017 46/// /0513 11074 21124 30193 40201 54003=EQDQ01.3    3APC3  
0108010170999992016010721004+77683+014783FM-12+000699999V0200601N013019999999N999999999-00761-01161102001ADDMA1999999101921MD1790029+9999REMSYN04801017 46/// /0613 11076 21116 30192 40200 54002=EQDQ01.2    3APC3  
0089010170999992016010722004+77683+014783FM-12+000699999V0200501N013019999999N999999999-00791-01121101981ADDMA1999999101891MD1710051+9999REMSYN04801017 46/// /0513 11079 21112 30189 40198 57005=
0089010170999992016010723004+77683+014783FM-12+000699999V0200501N012019999999N999999999-00841-01211101971ADDMA1999999101891MD1710041+9999REMSYN04801017 46/// /0512 11084 21121 30189 40197 57004=
0113010170999992016010800004+77683+014783FM-12+000699999V0200501N011019999999N999999999-00881-01191101931ADDMA1999999101851MD1710071+9999OD139901601999REMSYN05801017 46/// /0511 11088 21119 30185 40193 57007 333 91116=
0089010170999992016010801004+77683+014783FM-12+000699999V0200601N010019999999N999999999-00841-01181101911ADDMA1999999101821MD1710071+9999REMSYN04801017 46/// /0610 11084 21118 30182 40191 57007=
0089010170999992016010802004+77683+014783FM-12+000699999V0200701N010019999999N999999999-00811-01121101871ADDMA1999999101791MD1710101+9999REMSYN04801017 46/// /0710 11081 21112 30179 40187 57010=
0089010170999992016010803004+77683+014783FM-12+000699999V0200701N010019999999N999999999-00811-01051101831ADDMA1999999101751MD1710101+9999REMSYN04801017 46/// /0710 11081 21105 30175 40183 57010=
0089010170999992016010804004+77683+014783FM-12+000699999V0200601N010019999999N999999999-00801-01051101781ADDMA1999999101691MD1710131+9999REMSYN04801017 46/// /0610 11080 21105 30169 40178 57013=
0089010170999992016010805004+77683+014783FM-12+000699999V0200601N011019999999N999999999-00761-01071101731ADDMA1999999101651MD1710141+9999REMSYN04801017 46/// /0611 11076 21107 30165 40173 57014=
0132010170999992016010806004+77683+014783FM-12+000699999V0200601N011019999999N999999999-00741-01051101731ADDKA1240N-00891MA1999999101641MD1810101+9999OD139901401999REMSYN06401017 46/// /0611 11074 21105 30164 40173 58010 333 21089 91114=
0089010170999992016010807004+77683+014783FM-12+000699999V0200601N010019999999N999999999-00721-01031101701ADDMA1999999101621MD1710071+9999REMSYN04801017 46/// /0610 11072 21103 30162 40170 57007=
0089010170999992016010808004+77683+014783FM-12+000699999V0200601N010019999999N999999999-00701-01061101731ADDMA1999999101641MD1990001+9999REMSYN04801017 46/// /0610 11070 21106 30164 40173 50000=
0108010170999992016010809004+77683+014783FM-12+000699999V0200601N010019999999N999999999-00661-01001101701ADDMA1999999101621MD1790039+9999REMSYN04801017 46/// /0610 11066 21100 30162 40170 54003=EQDQ01.3    3APC3  
0108010170999992016010810004+77683+014783FM-12+000699999V0200601N007019999999N999999999-00631-01041101721ADDMA1999999101631MD1290029+9999REMSYN04801017 46/// /0607 11063 21104 30163 40172 54002=EQDQ01.2    3APC3  
0108010170999992016010811004+77683+014783FM-12+000699999V0200701N006019999999N999999999-00601-00961101711ADDMA1999999101631MD1790029+9999REMSYN04801017 46/// /0706 11060 21096 30163 40171 54002=EQDQ01.2    3APC3  
0113010170999992016010812004+77683+014783FM-12+000699999V0200701N008019999999N999999999-00561-00951101701ADDMA1999999101611MD1510001+9999OD139901301999REMSYN05801017 46/// /0708 11056 21095 30161 40170 55000 333 91113=
0108010170999992016010813004+77683+014783FM-12+000699999V0200601N009019999999N999999999-00541-00891101701ADDMA1999999101621MD1790029+9999REMSYN04801017 46/// /0609 11054 21089 30162 40170 54002=EQDQ01.2    3APC3  
0108010170999992016010814004+77683+014783FM-12+000699999V0200601N010019999999N999999999-00521-00911101701ADDMA1999999101621MD1790019+9999REMSYN04801017 46/// /0610 11052 21091 30162 40170 54001=EQDQ01.1    3APC3  
0108010170999992016010815004+77683+014783FM-12+000699999V0200601N009019999999N999999999-00481-00881101701ADDMA1999999101621MD1410009+9999REMSYN04801017 46/// /0609 11048 21088 30162 40170 54001=EQDQ01.1    3APC3  
0089010170999992016010816004+77683+014783FM-12+000699999V0200701N010019999999N999999999-00461-00961101671ADDMA1999999101591MD1510031+9999REMSYN04801017 46/// /0710 11046 21096 30159 40167 55003=
0089010170999992016010817004+77683+014783FM-12+000699999V0200601N013019999999N999999999-00501-00831101641ADDMA1999999101551MD1610061+9999REMSYN04801017 46/// /0613 11050 21083 30155 40164 56006=
0132010170999992016010818004+77683+014783FM-12+000699999V0200601N014019999999N999999999-00541-00871101641ADDKA1120M-00451MA1999999101561MD1810061+9999OD139901701999REMSYN06401017 46/// /0614 11054 21087 30156 40164 58006 333 11045 91117=
0089010170999992016010819004+77683+014783FM-12+000699999V0200501N012019999999N999999999-00521-00871101691ADDMA1999999101611MD1990021+9999REMSYN04801017 46/// /0512 11052 21087 30161 40169 50002=
0089010170999992016010820004+77683+014783FM-12+000699999V0200501N012019999999N999999999-00511-00831101721ADDMA1999999101641MD1210091+9999REMSYN04801017 46/// /0512 11051 21083 30164 40172 52009=
0089010170999992016010821004+77683+014783FM-12+000699999V0200601N013019999999N999999999-00511-00861101741ADDMA1999999101651MD1310091+9999REMSYN04801017 46/// /0613 11051 21086 30165 40174 53009=
0089010170999992016010822004+77683+014783FM-12+000699999V0200501N013019999999N999999999-00501-00801101731ADDMA1999999101651MD1310041+9999REMSYN04801017 46/// /0513 11050 21080 30165 40173 53004=
0108010170999992016010823004+77683+014783FM-12+000699999V0200601N014019999999N999999999-00511-00831101711ADDMA1999999101631MD1790019+9999REMSYN04801017 46/// /0614 11051 21083 30163 40171 54001=EQDQ01.1    3APC3  
0113010170999992016010900004+77683+014783FM-12+000699999V0200601N013019999999N999999999-00481-00811101741ADDMA1999999101651MD1410001+9999OD139901701999REMSYN05801017 46/// /0613 11048 21081 30165 40174 54000 333 91117=
0108010170999992016010901004+77683+014783FM-12+000699999V0200601N012019999999N999999999-00441-00801101751ADDMA1999999101661MD1290029+9999REMSYN04801017 46/// /0612 11044 21080 30166 40175 54002=EQDQ01.2    3APC3  
0089010170999992016010902004+77683+014783FM-12+000699999V0200601N012019999999N999999999-00461-00811101801ADDMA1999999101721MD1210091+9999REMSYN04801017 46/// /0612 11046 21081 30172 40180 52009=
0089010170999992016010903004+77683+014783FM-12+000699999V0200601N011019999999N999999999-00461-00821101831ADDMA1999999101751MD1210101+9999REMSYN04801017 46/// /0611 11046 21082 30175 40183 52010=
0089010170999992016010904004+77683+014783FM-12+000699999V0200601N011019999999N999999999-00451-00851101851ADDMA1999999101761MD1310101+9999REMSYN04801017 46/// /0611 11045 21085 30176 40185 53010=
0089010170999992016010905004+77683+014783FM-12+000699999V0200501N011019999999N999999999-00451-00781101811ADDMA1999999101731MD1510011+9999REMSYN04801017 46/// /0511 11045 21078 30173 40181 55001=
0132010170999992016010906004+77683+014783FM-12+000699999V0200501N011019999999N999999999-00431-00731101871ADDKA1240N-00541MA1999999101781MD1110031+9999OD139901601999REMSYN06401017 46/// /0511 11043 21073 30178 40187 51003 333 21054 91116=
0089010170999992016010907004+77683+014783FM-12+000699999V0200501N011019999999N999999999-00431-00781101881ADDMA1999999101791MD1990031+9999REMSYN04801017 46/// /0511 11043 21078 30179 40188 50003=
0089010170999992016010908004+77683+014783FM-12+000699999V0200501N010019999999N999999999-00451-00811101921ADDMA1999999101831MD1210101+9999REMSYN04801017 46/// /0510 11045 21081 30183 40192 52010=
0089010170999992016010909004+77683+014783FM-12+000699999V0200701N008019999999N999999999-00421-00901101961ADDMA1999999101881MD1210091+9999REMSYN04801017 46/// /0708 11042 21090 30188 40196 52009=
0089010170999992016010910004+77683+014783FM-12+000699999V0200801N006019999999N999999999-00431-01001101981ADDMA1999999101901MD1210111+9999REMSYN04801017 46/// /0806 11043 21100 30190 40198 52011=
0089010170999992016010911004+77683+014783FM-12+000699999V0200901N006019999999N999999999-00441-01011101991ADDMA1999999101911MD1310071+9999REMSYN04801017 46/// /0906 11044 21101 30191 40199 53007=
0113010170999992016010912004+77683+014783FM-12+000699999V0200801N006019999999N999999999-00451-01041102001ADDMA1999999101921MD1210041+9999OD139901401999REMSYN05801017 46/// /0806 11045 21104 30192 40200 52004 333 91114=
0089010170999992016010913004+77683+014783FM-12+000699999V0200801N006019999999N999999999-00471-01061102021ADDMA1999999101931MD1210031+9999REMSYN04801017 46/// /0806 11047 21106 30193 40202 52003=
0108010170999992016010914004+77683+014783FM-12+000699999V0200801N005019999999N999999999-00511-01061102011ADDMA1999999101931MD1290029+9999REMSYN04801017 46/// /0805 11051 21106 30193 40201 54002=EQDQ01.2    3APC3  
0089010170999992016010915004+77683+014783FM-12+000699999V0200701N007019999999N999999999-00491-01111101991ADDMA1999999101911MD1510011+9999REMSYN04801017 46/// /0707 11049 21111 30191 40199 55001=
0089010170999992016010916004+77683+014783FM-12+000699999V0200801N005019999999N999999999-00501-01051101981ADDMA1999999101901MD1710041+9999REMSYN04801017 46/// /0805 11050 21105 30190 40198 57004=
0089010170999992016010917004+77683+014783FM-12+000699999V0201001N005019999999N999999999-00531-01041102001ADDMA1999999101921MD1990011+9999REMSYN04801017 46/// /1005 11053 21104 30192 40200 50001=
0132010170999992016010918004+77683+014783FM-12+000699999V0200701N005019999999N999999999-00501-01071101991ADDKA1120M-00411MA1999999101911MD1410001+9999OD139900901999REMSYN06401017 46/// /0705 11050 21107 30191 40199 54000 333 11041 91109=
0108010170999992016010919004+77683+014783FM-12+000699999V0200701N005019999999N999999999-00531-01151102001ADDMA1999999101921MD1290029+9999REMSYN04801017 46/// /0705 11053 21115 30192 40200 54002=EQDQ01.2    3APC3  
0108010170999992016010920004+77683+014783FM-12+000699999V0200801N005019999999N999999999-00551-01171102011ADDMA1999999101931MD1290019+9999REMSYN04801017 46/// /0805 11055 21117 30193 40201 54001=EQDQ01.1    3APC3  
0089010170999992016010921004+77683+014783FM-12+000699999V0200801N005019999999N999999999-00561-01201102041ADDMA1999999101961MD1210051+9999REMSYN04801017 46/// /0805 11056 21120 30196 40204 52005=
0108010170999992016010922004+77683+014783FM-12+000699999V0200701N005019999999N999999999-00571-01211102031ADDMA1999999101951MD1290039+9999REMSYN04801017 46/// /0705 11057 21121 30195 40203 54003=EQDQ01.3    3APC3  
0108010170999992016010923004+77683+014783FM-12+000699999V0200901N005019999999N999999999-00571-01111102041ADDMA1999999101951MD1290039+9999REMSYN04801017 46/// /0905 11057 21111 30195 40204 54003=EQDQ01.3    3APC3  
0113010170999992016011000004+77683+014783FM-12+000699999V0200601N005019999999N999999999-00551-01041102041ADDMA1999999101951MD1410001+9999OD139900801999REMSYN05801017 46/// /0605 11055 21104 30195 40204 54000 333 91108=
0108010170999992016011001004+77683+014783FM-12+000699999V0200701N006019999999N999999999-00561-01071102051ADDMA1999999101971MD1290029+9999REMSYN04801017 46/// /0706 11056 21107 30197 40205 54002=EQDQ01.2    3APC3  
0108010170999992016011002004+77683+014783FM-12+000699999V0200601N006019999999N999999999-00561-01041102061ADDMA1999999101971MD1290029+9999REMSYN04801017 46/// /0606 11056 21104 30197 40206 54002=EQDQ01.2    3APC3  
0089010170999992016011003004+77683+014783FM-12+000699999V0200701N005019999999N999999999-00601-01141102041ADDMA1999999101961MD1510001+9999REMSYN04801017 46/// /0705 11060 21114 30196 40204 55000=
0108010170999992016011004004+77683+014783FM-12+000699999V0200801N004019999999N999999999-00601-01111102021ADDMA1999999101941MD1790039+9999REMSYN04801017 46/// /0804 11060 21111 30194 40202 54003=EQDQ01.3    3APC3  
0108010170999992016011005004+77683+014783FM-12+000699999V0200701N004019999999N999999999-00601-01141102031ADDMA1999999101951MD1790039+9999REMSYN04801017 46/// /0704 11060 21114 30195 40203 54003=EQDQ01.3    3APC3  
0151010170999992016011006004+77683+014783FM-12+000699999V0200601N005019999999N999999999-00611-01191102031ADDKA1240N-00621MA1999999101941MD1790019+9999OD139900801999REMSYN06401017 46/// /0605 11061 21119 30194 40203 54001 333 21062 91108=EQDQ01.1    3APC3  
0089010170999992016011007004+77683+014783FM-12+000699999V0200801N004019999999N999999999-00601-01131102061ADDMA1999999101971MD1210031+9999REMSYN04801017 46/// /0804 11060 21113 30197 40206 52003=
0089010170999992016011008004+77683+014783FM-12+000699999V0200701N004019999999N999999999-00611-01191102071ADDMA1999999101991MD1210041+9999REMSYN04801017 46/// /0704 11061 21119 30199 40207 52004=
0089010170999992016011009004+77683+014783FM-12+000699999V0200801N004019999999N999999999-00611-01211102071ADDMA1999999101991MD1210041+9999REMSYN04801017 46/// /0804 11061 21121 30199 40207 52004=
0108010170999992016011010004+77683+014783FM-12+000699999V0200701N005019999999N999999999-00591-01151102081ADDMA1999999102001MD1290029+9999REMSYN04801017 46/// /0705 11059 21115 30200 40208 54003=EQDQ01.3    3APC3  
0108010170999992016011011004+77683+014783FM-12+000699999V0200801N005019999999N999999999-00591-01171102091ADDMA1999999102001MD1290029+9999REMSYN04801017 46/// /0805 11059 21117 30200 40209 54002=EQDQ01.2    3APC3  
0113010170999992016011012004+77683+014783FM-12+000699999V0200701N006019999999N999999999-00571-01151102111ADDMA1999999102021MD1210041+9999OD139900701999REMSYN05801017 46/// /0706 11057 21115 30202 40211 52004 333 91107=
0108010170999992016011013004+77683+014783FM-12+000699999V0200901N004019999999N999999999-00591-01191102111ADDMA1999999102031MD1290039+9999REMSYN04801017 46/// /0904 11059 21119 30203 40211 54003=EQDQ01.3    3APC3  
0108010170999992016011014004+77683+014783FM-12+000699999V0200801N004019999999N999999999-00571-01101102111ADDMA1999999102031MD1290029+9999REMSYN04801017 46/// /0804 11057 21110 30203 40211 54002=EQDQ01.2    3APC3  
0089010170999992016011015004+77683+014783FM-12+000699999V0200701N007019999999N999999999-00551-00881102101ADDMA1999999102021MD1410001+9999REMSYN04801017 46/// /0707 11055 21088 30202 40210 54000=
0089010170999992016011016004+77683+014783FM-12+000699999V0200701N007019999999N999999999-00561-00991102121ADDMA1999999102031MD1410001+9999REMSYN04801017 46/// /0707 11056 21099 30203 40212 54000=
0108010170999992016011017004+77683+014783FM-12+000699999V0200701N007019999999N999999999-00541-01071102121ADDMA1999999102031MD1290019+9999REMSYN04801017 46/// /0707 11054 21107 30203 40212 54001=EQDQ01.1    3APC3  
0132010170999992016011018004+77683+014783FM-12+000699999V0200601N008019999999N999999999-00521-00901102111ADDKA1120M-00491MA1999999102031MD1410001+9999OD139901001999REMSYN06401017 46/// /0608 11052 21090 30203 40211 54000 333 11049 91110=
0108010170999992016011019004+77683+014783FM-12+000699999V0200601N011019999999N999999999-00551-00851102121ADDMA1999999102041MD1410009+9999REMSYN04801017 46/// /0611 11055 21085 30204 40212 54001=EQDQ01.1    3APC3  
0108010170999992016011020004+77683+014783FM-12+000699999V0200601N010019999999N999999999-00501-00831102141ADDMA1999999102051MD1290029+9999REMSYN04801017 46/// /0610 11050 21083 30205 40214 54002=EQDQ01.2    3APC3  
0089010170999992016011021004+77683+014783FM-12+000699999V0200601N010019999999N999999999-00491-00871102171ADDMA1999999102081MD1210061+9999REMSYN04801017 46/// /0610 11049 21087 30208 40217 52006=
0089010170999992016011022004+77683+014783FM-12+000699999V0200601N010019999999N999999999-00441-00821102191ADDMA1999999102101MD1210061+9999REMSYN04801017 46/// /0610 11044 21082 30210 40219 52006=
0089010170999992016011023004+77683+014783FM-12+000699999V0200601N010019999999N999999999-00441-00841102191ADDMA1999999102101MD1210051+9999REMSYN04801017 46/// /0610 11044 21084 30210 40219 52005=
0113010170999992016011100004+77683+014783FM-12+000699999V0200601N010019999999N999999999-00431-00761102201ADDMA1999999102121MD1210031+9999OD139901301999REMSYN05801017 46/// /0610 11043 21076 30212 40220 52003 333 91113=
0089010170999992016011101004+77683+014783FM-12+000699999V0200601N009019999999N999999999-00421-00831102221ADDMA1999999102141MD1210041+9999REMSYN04801017 46/// /0609 11042 21083 30214 40222 52004=
0089010170999992016011102004+77683+014783FM-12+000699999V0200701N008019999999N999999999-00391-00771102261ADDMA1999999102171MD1210071+9999REMSYN04801017 46/// /0708 11039 21077 30217 40226 52007=
0089010170999992016011103004+77683+014783FM-12+000699999V0200601N008019999999N999999999-00401-00811102271ADDMA1999999102191MD1210071+9999REMSYN04801017 46/// /0608 11040 21081 30219 40227 52007=
0089010170999992016011104004+77683+014783FM-12+000699999V0200601N007019999999N999999999-00371-00921102301ADDMA1999999102221MD1210081+9999REMSYN04801017 46/// /0607 11037 21092 30222 40230 52008=
0089010170999992016011105004+77683+014783FM-12+000699999V0200701N007019999999N999999999-00371-00921102331ADDMA1999999102241MD1210071+9999REMSYN04801017 46/// /0707 11037 21092 30224 40233 52007=
0132010170999992016011106004+77683+014783FM-12+000699999V0200801N006019999999N999999999-00381-00901102381ADDKA1240N-00551MA1999999102301MD1210111+9999OD139901101999REMSYN06401017 46/// /0806 11038 21090 30230 40238 52011 333 21055 91111=
0089010170999992016011107004+77683+014783FM-12+000699999V0200901N006019999999N999999999-00381-00861102421ADDMA1999999102341MD1210121+9999REMSYN04801017 46/// /0906 11038 21086 30234 40242 52012=
0089010170999992016011108004+77683+014783FM-12+000699999V0200901N005019999999N999999999-00381-00881102481ADDMA1999999102401MD1210151+9999REMSYN04801017 46/// /0905 11038 21088 30240 40248 52015=
0089010170999992016011109004+77683+014783FM-12+000699999V0201001N005019999999N999999999-00371-00851102541ADDMA1999999102461MD1210161+9999REMSYN04801017 46/// /1005 11037 21085 30246 40254 52016=
0089010170999992016011110004+77683+014783FM-12+000699999V0201001N006019999999N999999999-00381-00951102591ADDMA1999999102511MD1210171+9999REMSYN04801017 46/// /1006 11038 21095 30251 40259 52017=
0089010170999992016011111004+77683+014783FM-12+000699999V0200801N005019999999N999999999-00391-00911102641ADDMA1999999102561MD1210161+9999REMSYN04801017 46/// /0805 11039 21091 30256 40264 52016=
0113010170999992016011112004+77683+014783FM-12+000699999V0200701N006019999999N999999999-00441-00871102681ADDMA1999999102601MD1210141+9999OD139901101999REMSYN05801017 46/// /0706 11044 21087 30260 40268 52014 333 91111=
0089010170999992016011113004+77683+014783FM-12+000699999V0200601N007019999999N999999999-00381-00971102721ADDMA1999999102641MD1210131+9999REMSYN04801017 46/// /0607 11038 21097 30264 40272 52013=
0089010170999992016011114004+77683+014783FM-12+000699999V0200601N008019999999N999999999-00411-00841102741ADDMA1999999102651MD1210101+9999REMSYN04801017 46/// /0608 11041 21084 30265 40274 52010=
0089010170999992016011115004+77683+014783FM-12+000699999V0200601N008019999999N999999999-00431-00811102791ADDMA1999999102711MD1210111+9999REMSYN04801017 46/// /0608 11043 21081 30271 40279 52011=
0089010170999992016011116004+77683+014783FM-12+000699999V0200601N008019999999N999999999-00411-00891102831ADDMA1999999102741MD1210101+9999REMSYN04801017 46/// /0608 11041 21089 30274 40283 52010=
0089010170999992016011117004+77683+014783FM-12+000699999V0200601N009019999999N999999999-00411-00891102851ADDMA1999999102771MD1210111+9999REMSYN04801017 46/// /0609 11041 21089 30277 40285 52011=
0132010170999992016011118004+77683+014783FM-12+000699999V0200501N008019999999N999999999-00411-00871102891ADDKA1120M-00351MA1999999102811MD1210101+9999OD139901101999REMSYN06401017 46/// /0508 11041 21087 30281 40289 52010 333 11035 91111=
0089010170999992016011119004+77683+014783FM-12+000699999V0200501N010019999999N999999999-00431-00761102941ADDMA1999999102851MD1210111+9999REMSYN04801017 46/// /0510 11043 21076 30285 40294 52011=
0089010170999992016011120004+77683+014783FM-12+000699999V0200601N009019999999N999999999-00451-00771103001ADDMA1999999102921MD1210151+9999REMSYN04801017 46/// /0609 11045 21077 30292 40300 52015=
0089010170999992016011121004+77683+014783FM-12+000699999V0200601N010019999999N999999999-00431-00751103031ADDMA1999999102941MD1210131+9999REMSYN04801017 46/// /0610 11043 21075 30294 40303 52013=
0089010170999992016011122004+77683+014783FM-12+000699999V0200601N009019999999N999999999-00401-00751103071ADDMA1999999102981MD1210131+9999REMSYN04801017 46/// /0609 11040 21075 30298 40307 52013=
0089010170999992016011123004+77683+014783FM-12+000699999V0200501N005019999999N999999999-00361-00881103101ADDMA1999999103021MD1210101+9999REMSYN04801017 46/// /0505 11036 21088 30302 40310 52010=
0113010170999992016011200004+77683+014783FM-12+000699999V0200701N004019999999N999999999-00361-00881103151ADDMA1999999103061MD1210121+9999OD139901301999REMSYN05801017 46/// /0704 11036 21088 30306 40315 52012 333 91113=
0089010170999992016011201004+77683+014783FM-12+000699999V0200901N006019999999N999999999-00371-00821103181ADDMA1999999103101MD1210111+9999REMSYN04801017 46/// /0906 11037 21082 30310 40318 52011=
0089010170999992016011202004+77683+014783FM-12+000699999V0200801N006019999999N999999999-00381-00841103211ADDMA1999999103131MD1210111+9999REMSYN04801017 46/// /0806 11038 21084 30313 40321 52011=
0089010170999992016011203004+77683+014783FM-12+000699999V0200701N005019999999N999999999-00391-00821103241ADDMA1999999103161MD1210091+9999REMSYN04801017 46/// /0705 11039 21082 30316 40324 52009=
0089010170999992016011204004+77683+014783FM-12+000699999V0200501N005019999999N999999999-00401-00861103261ADDMA1999999103181MD1210081+9999REMSYN04801017 46/// /0505 11040 21086 30318 40326 52008=
0089010170999992016011205004+77683+014783FM-12+000699999V0200501N008019999999N999999999-00441-00771103241ADDMA1999999103161MD1310031+9999REMSYN04801017 46/// /0508 11044 21077 30316 40324 53003=
0151010170999992016011206004+77683+014783FM-12+000699999V0200601N008019999999N999999999-00461-00781103271ADDKA1240N-00471MA1999999103181MD1290039+9999OD139901001999REMSYN06401017 46/// /0608 11046 21078 30318 40327 54003 333 21047 91110=EQDQ01.3    3APC3  
0089010170999992016011207004+77683+014783FM-12+000699999V0200601N007019999999N999999999-00441-00741103311ADDMA1999999103221MD1110051+9999REMSYN04801017 46/// /0607 11044 21074 30322 40331 51005=
0089010170999992016011208004+77683+014783FM-12+000699999V0200501N006019999999N999999999-00451-00801103351ADDMA1999999103261MD1210101+9999REMSYN04801017 46/// /0506 11045 21080 30326 40335 52010=
0089010170999992016011209004+77683+014783FM-12+000699999V0200401N007019999999N999999999-00501-00801103361ADDMA1999999103271MD1310091+9999REMSYN04801017 46/// /0407 11050 21080 30327 40336 53009=
0085010170999992016011210004+77689+014775FM-12+000699999V0200441N0069199999999999999999-00521-00821103361ADDKA1010M-00501KA2010N-00541MA1999999103271MD1310051+9999OD130100941999REMSYN004BUFR
0108010170999992016011211004+77683+014783FM-12+000699999V0200501N006019999999N999999999-00541-00831103361ADDMA1999999103271MD1290019+9999REMSYN04801017 46/// /0506 11054 21083 30327 40336 54001=EQDQ01.1    3APC3  
0132010170999992016011212004+77683+014783FM-12+000699999V0200501N006019999999N999999999-00601-00861103341ADDMA1999999103261MD1790029+9999OD139901001999REMSYN05801017 46/// /0506 11060 21086 30326 40334 54001 333 91110=EQDQ01.1    3APC3  
0108010170999992016011213004+77683+014783FM-12+000699999V0200501N005019999999N999999999-00591-00851103341ADDMA1999999103251MD1790029+9999REMSYN04801017 46/// /0505 11059 21085 30325 40334 54002=EQDQ01.2    3APC3  
0089010170999992016011214004+77683+014783FM-12+000699999V0200401N005019999999N999999999-00641-00901103331ADDMA1999999103241MD1710031+9999REMSYN04801017 46/// /0405 11064 21090 30324 40333 57003=
0089010170999992016011215004+77683+014783FM-12+000699999V0200501N004019999999N999999999-00641-00881103291ADDMA1999999103201MD1710061+9999REMSYN04801017 46/// /0504 11064 21088 30320 40329 57006=
0089010170999992016011216004+77683+014783FM-12+000699999V0200501N003019999999N999999999-00651-00891103251ADDMA1999999103171MD1710081+9999REMSYN04801017 46/// /0503 11065 21089 30317 40325 57008=
0089010170999992016011217004+77683+014783FM-12+000699999V0200601N003019999999N999999999-00661-00901103201ADDMA1999999103121MD1710121+9999REMSYN04801017 46/// /0603 11066 21090 30312 40320 57012=
0132010170999992016011218004+77683+014783FM-12+000699999V0200401N004019999999N999999999-00681-00921103171ADDKA1120M-00431MA1999999103081MD1710121+9999OD139900701999REMSYN06401017 46/// /0404 11068 21092 30308 40317 57012 333 11043 91107=
0089010170999992016011219004+77683+014783FM-12+000699999V0200401N003019999999N999999999-00701-01001103121ADDMA1999999103041MD1710131+9999REMSYN04801017 46/// /0403 11070 21100 30304 40312 57013=
0089010170999992016011220004+77683+014783FM-12+000699999V0200401N003019999999N999999999-00701-00981103091ADDMA1999999103001MD1710111+9999REMSYN04801017 46/// /0403 11070 21098 30300 40309 57011=
0089010170999992016011221004+77683+014783FM-12+000699999V0200401N003019999999N999999999-00711-00961103031ADDMA1999999102951MD1710141+9999REMSYN04801017 46/// /0403 11071 21096 30295 40303 57014=
0089010170999992016011222004+77683+014783FM-12+000699999V0200501N003019999999N999999999-00711-00921102971ADDMA1999999102881MD1710151+9999REMSYN04801017 46/// /0503 11071 21092 30288 40297 57015=
0089010170999992016011223004+77683+014783FM-12+000699999V0200201N003019999999N999999999-00711-00901102911ADDMA1999999102821MD1710181+9999REMSYN04801017 46/// /0203 11071 21090 30282 40291 57018=
0113010170999992016011300004+77683+014783FM-12+000699999V0200401N003019999999N999999999-00701-00951102831ADDMA1999999102751MD1710201+9999OD139900501999REMSYN05801017 46/// /0403 11070 21095 30275 40283 57020 333 91105=
0089010170999992016011301004+77683+014783FM-12+000699999V0200301N003019999999N999999999-00711-00901102791ADDMA1999999102701MD1710181+9999REMSYN04801017 46/// /0303 11071 21090 30270 40279 57018=
0089010170999992016011302004+77683+014783FM-12+000699999V0200401N002019999999N999999999-00721-00931102721ADDMA1999999102631MD1710191+9999REMSYN04801017 46/// /0402 11072 21093 30263 40272 57019=
0089010170999992016011303004+77683+014783FM-12+000699999V0203301N001019999999N999999999-00771-01001102651ADDMA1999999102571MD1710181+9999REMSYN04801017 46/// /3301 11077 21100 30257 40265 57018=
0089010170999992016011304004+77683+014783FM-12+000699999V0203301N002019999999N999999999-00801-01011102591ADDMA1999999102501MD1710201+9999REMSYN04801017 46/// /3302 11080 21101 30250 40259 57020=
0089010170999992016011305004+77683+014783FM-12+000699999V0203401N001019999999N999999999-00801-01001102521ADDMA1999999102441MD1710201+9999REMSYN04801017 46/// /3401 11080 21100 30244 40252 57020=
0132010170999992016011306004+77683+014783FM-12+000699999V0203401N002019999999N999999999-00791-01021102481ADDKA1240N-00831MA1999999102391MD1710171+9999OD139900401999REMSYN06401017 46/// /3402 11079 21102 30239 40248 57017 333 21083 91104=
0089010170999992016011308004+77683+014783FM-12+000699999V0203301N001019999999N999999999-00771-01011102391ADDMA1999999102311MD1710131+9999REMSYN04801017 46/// /3301 11077 21101 30231 40239 57013=
0089010170999992016011309004+77683+014783FM-12+000699999V0209999C999999999999N999999999-00731-00961102371ADDMA1999999102281MD1710111+9999REMSYN04801017 46/// /0000 11073 21096 30228 40237 57011=
0089010170999992016011310004+77683+014783FM-12+000699999V0209999C999999999999N999999999-00711-00911102321ADDMA1999999102231MD1710121+9999REMSYN04801017 46/// /0000 11071 21091 30223 40232 57012=
0089010170999992016011311004+77683+014783FM-12+000699999V0200201N002019999999N999999999-00671-00911102281ADDMA1999999102201MD1710111+9999REMSYN04801017 46/// /0202 11067 21091 30220 40228 57011=
0071010170999992016011312004+77689+014775FM-12+000699999V0200131N0014199999999999999999-00641-00871102231ADDKA1010M-00641KA2010N-00671MA1999999102151MD1710131+9999REMSYN004BUFR
0071010170999992016011313004+77689+014775FM-12+000699999V0200241N0002199999999999999999-00621-00831102191ADDKA1010M-00611KA2010N-00651MA1999999102101MD1710131+9999REMSYN004BUFR
0071010170999992016011314004+77689+014775FM-12+000699999V0202441N0016199999999999999999-00541-00691102131ADDKA1010M-00541KA2010N-00641MA1999999102041MD1710151+9999REMSYN004BUFR
0089010170999992016011315004+77683+014783FM-12+000699999V0200901N001019999999N999999999-00501-00641102101ADDMA1999999102021MD1710131+9999REMSYN04801017 46/// /0901 11050 21064 30202 40210 57013=
0089010170999992016011316004+77683+014783FM-12+000699999V0200401N001019999999N999999999-00501-00661102091ADDMA1999999102011MD1810091+9999REMSYN04801017 46/// /0401 11050 21066 30201 40209 58009=
0089010170999992016011317004+77683+014783FM-12+000699999V0200201N001019999999N999999999-00551-00701102051ADDMA1999999101971MD1710071+9999REMSYN04801017 46/// /0201 11055 21070 30197 40205 57007=
0113010170999992016011318004+77683+014783FM-12+000699999V0209999C999999999999N999999999-00601-00731102001ADDMA1999999101921MD1610101+9999OD139900401999REMSYN05801017 46/// /0000 11060 21073 30192 40200 56010 333 91104=
0089010170999992016011319004+77683+014783FM-12+000699999V0200101N003019999999N999999999-00481-00841102001ADDMA1999999101911MD1810101+9999REMSYN04801017 46/// /0103 11048 21084 30191 40200 58010=
0089010170999992016011320004+77683+014783FM-12+000699999V0200401N001019999999N999999999-00461-00921101941ADDMA1999999101851MD1710121+9999REMSYN04801017 46/// /0401 11046 21092 30185 40194 57012=
0089010170999992016011321004+77683+014783FM-12+000699999V0209999C999999999999N999999999-00471-00951101911ADDMA1999999101821MD1710101+9999REMSYN04801017 46/// /0000 11047 21095 30182 40191 57010=
0089010170999992016011322004+77683+014783FM-12+000699999V0202001N003019999999N999999999-00401-00861101821ADDMA1999999101741MD1710171+9999REMSYN04801017 46/// /2003 11040 21086 30174 40182 57017=
0089010170999992016011323004+77683+014783FM-12+000699999V0202601N003019999999N999999999-00431-00831101791ADDMA1999999101711MD1710151+9999REMSYN04801017 46/// /2603 11043 21083 30171 40179 57015=
0113010170999992016011400004+77683+014783FM-12+000699999V0202401N003019999999N999999999-00431-00801101691ADDMA1999999101611MD1710221+9999OD139900401999REMSYN05801017 46/// /2403 11043 21080 30161 40169 57022 333 91104=
0089010170999992016011401004+77683+014783FM-12+000699999V0202301N004019999999N999999999-00431-00731101641ADDMA1999999101551MD1710191+9999REMSYN04801017 46/// /2304 11043 21073 30155 40164 57019=
0089010170999992016011402004+77683+014783FM-12+000699999V0202001N007019999999N999999999-00321-00611101531ADDMA1999999101441MD1710271+9999REMSYN04801017 46/// /2007 11032 21061 30144 40153 57027=
0089010170999992016011403004+77683+014783FM-12+000699999V0202101N007019999999N999999999-00301-00391101461ADDMA1999999101371MD1710231+9999REMSYN04801017 46/// /2107 11030 21039 30137 40146 57023=
0089010170999992016011404004+77683+014783FM-12+000699999V0202701N008019999999N999999999-00341-00481101421ADDMA1999999101341MD1810211+9999REMSYN04801017 46/// /2708 11034 21048 30134 40142 58021=
0089010170999992016011405004+77683+014783FM-12+000699999V0202801N008019999999N999999999-00351-00461101331ADDMA1999999101251MD1710201+9999REMSYN04801017 46/// /2808 11035 21046 30125 40133 57020=
0132010170999992016011406004+77683+014783FM-12+000699999V0202701N009019999999N999999999-00351-00471101271ADDKA1240N-00661MA1999999101191MD1710181+9999OD139901201999REMSYN06401017 46/// /2709 11035 21047 30119 40127 57018 333 21066 91112=
0089010170999992016011407004+77683+014783FM-12+000699999V0202601N011019999999N999999999-00321-00661101201ADDMA1999999101121MD1710221+9999REMSYN04801017 46/// /2611 11032 21066 30112 40120 57022=
0089010170999992016011408004+77683+014783FM-12+000699999V0202601N011019999999N999999999-00411-00871101211ADDMA1999999101131MD1810121+9999REMSYN04801017 46/// /2611 11041 21087 30113 40121 58012=
0089010170999992016011409004+77683+014783FM-12+000699999V0202301N009019999999N999999999-00421-00941101231ADDMA1999999101151MD1810041+9999REMSYN04801017 46/// /2309 11042 21094 30115 40123 58004=
0089010170999992016011410004+77683+014783FM-12+000699999V0202301N008019999999N999999999-00461-00941101241ADDMA1999999101151MD1210041+9999REMSYN04801017 46/// /2308 11046 21094 30115 40124 52004=
0089010170999992016011411004+77683+014783FM-12+000699999V0202401N010019999999N999999999-00451-00981101211ADDMA1999999101121MD1510001+9999REMSYN04801017 46/// /2410 11045 21098 30112 40121 55000=
0113010170999992016011412004+77683+014783FM-12+000699999V0202501N009019999999N999999999-00451-00911101171ADDMA1999999101081MD1610061+9999OD139901501999REMSYN05801017 46/// /2509 11045 21091 30108 40117 56006 333 91115=
0089010170999992016011413004+77683+014783FM-12+000699999V0202601N008019999999N999999999-00461-00971101171ADDMA1999999101091MD1810071+9999REMSYN04801017 46/// /2608 11046 21097 30109 40117 58007=
0089010170999992016011414004+77683+014783FM-12+000699999V0202501N009019999999N999999999-00481-00841101171ADDMA1999999101091MD1810031+9999REMSYN04801017 46/// /2509 11048 21084 30109 40117 58003=
0108010170999992016011415004+77683+014783FM-12+000699999V0202501N009019999999N999999999-00521-00751101161ADDMA1999999101081MD1790019+9999REMSYN04801017 46/// /2509 11052 21075 30108 40116 54001=EQDQ01.1    3APC3  
0108010170999992016011416004+77683+014783FM-12+000699999V0202301N009019999999N999999999-00471-00791101151ADDMA1999999101061MD1790029+9999REMSYN04801017 46/// /2309 11047 21079 30106 40115 54002=EQDQ01.2    3APC3  
0089010170999992016011417004+77683+014783FM-12+000699999V0202501N007019999999N999999999-00521-00871101201ADDMA1999999101111MD1990031+9999REMSYN04801017 46/// /2507 11052 21087 30111 40120 50003=
0132010170999992016011418004+77683+014783FM-12+000699999V0202801N007019999999N999999999-00561-00911101211ADDKA1120M-00271MA1999999101121MD1210041+9999OD139901201999REMSYN06401017 46/// /2807 11056 21091 30112 40121 52004 333 11027 91112=
0089010170999992016011419004+77683+014783FM-12+000699999V0202601N008019999999N999999999-00551-00961101201ADDMA1999999101111MD1310051+9999REMSYN04801017 46/// /2608 11055 21096 30111 40120 53005=
0089010170999992016011420004+77683+014783FM-12+000699999V0202501N008019999999N999999999-00551-00931101201ADDMA1999999101121MD1410001+9999REMSYN04801017 46/// /2508 11055 21093 30112 40120 54000=
0089010170999992016011421004+77683+014783FM-12+000699999V0202401N008019999999N999999999-00531-00991101221ADDMA1999999101141MD1990021+9999REMSYN04801017 46/// /2408 11053 21099 30114 40122 50002=
0089010170999992016011422004+77683+014783FM-12+000699999V0202401N008019999999N999999999-00511-01001101241ADDMA1999999101161MD1210051+9999REMSYN04801017 46/// /2408 11051 21100 30116 40124 52005=
0089010170999992016011423004+77683+014783FM-12+000699999V0202701N007019999999N999999999-00541-00761101261ADDMA1999999101181MD1210061+9999REMSYN04801017 46/// /2707 11054 21076 30118 40126 52006=
0113010170999992016011500004+77683+014783FM-12+000699999V0202801N007019999999N999999999-00561-00751101241ADDMA1999999101161MD1510021+9999OD139901101999REMSYN05801017 46/// /2807 11056 21075 30116 40124 55002 333 91111=
0089010170999992016011501004+77683+014783FM-12+000699999V0202601N005019999999N999999999-00541-00831101251ADDMA1999999101161MD1410001+9999REMSYN04801017 46/// /2605 11054 21083 30116 40125 54000=
0089010170999992016011502004+77683+014783FM-12+000699999V0202401N004019999999N999999999-00551-00771101271ADDMA1999999101191MD1990011+9999REMSYN04801017 46/// /2404 11055 21077 30119 40127 50001=
0089010170999992016011503004+77683+014783FM-12+000699999V0201901N002019999999N999999999-00501-00721101281ADDMA1999999101201MD1210041+9999REMSYN04801017 46/// /1902 11050 21072 30120 40128 52004=
0089010170999992016011504004+77683+014783FM-12+000699999V0200601N002019999999N999999999-00501-00761101271ADDMA1999999101191MD1510021+9999REMSYN04801017 46/// /0602 11050 21076 30119 40127 55002=
0089010170999992016011505004+77683+014783FM-12+000699999V0201401N003019999999N999999999-00521-00851101271ADDMA1999999101191MD1410001+9999REMSYN04801017 46/// /1403 11052 21085 30119 40127 54000=
0151010170999992016011506004+77683+014783FM-12+000699999V0201301N003019999999N999999999-00461-00961101271ADDKA1240N-00591MA1999999101191MD1790019+9999OD139900701999REMSYN06401017 46/// /1303 11046 21096 30119 40127 54001 333 21059 91107=EQDQ01.1    3APC3  
0108010170999992016011507004+77683+014783FM-12+000699999V0201001N001019999999N999999999-00471-00981101291ADDMA1999999101211MD1290029+9999REMSYN04801017 46/// /1001 11047 21098 30121 40129 54002=EQDQ01.2    3APC3  
0108010170999992016011508004+77683+014783FM-12+000699999V0200501N006019999999N999999999-00471-00801101301ADDMA1999999101221MD1290039+9999REMSYN04801017 46/// /0506 11047 21080 30122 40130 54003=EQDQ01.3    3APC3  
0108010170999992016011509004+77683+014783FM-12+000699999V0201401N004019999999N999999999-00421-00801101291ADDMA1999999101211MD1290029+9999REMSYN04801017 46/// /1404 11042 21080 30121 40129 54002=EQDQ01.2    3APC3  
0108010170999992016011510004+77683+014783FM-12+000699999V0201501N005019999999N999999999-00411-00761101321ADDMA1999999101241MD1290039+9999REMSYN04801017 46/// /1505 11041 21076 30124 40132 54003=EQDQ01.3    3APC3  
0108010170999992016011511004+77683+014783FM-12+000699999V0201401N005019999999N999999999-00361-00781101331ADDMA1999999101241MD1290039+9999REMSYN04801017 46/// /1405 11036 21078 30124 40133 54002=EQDQ01.2    3APC3  
0132010170999992016011512004+77683+014783FM-12+000699999V0201401N005019999999N999999999-00341-00771101321ADDMA1999999101241MD1290039+9999OD139901001999REMSYN05801017 46/// /1405 11034 21077 30124 40132 54003 333 91110=EQDQ01.3    3APC3  
0089010170999992016011513004+77683+014783FM-12+000699999V0201401N003019999999N999999999-00311-00761101361ADDMA1999999101281MD1110041+9999REMSYN04801017 46/// /1403 11031 21076 30128 40136 51004=
0089010170999992016011514004+77683+014783FM-12+000699999V0201701N003019999999N999999999-00261-00801101401ADDMA1999999101321MD1110071+9999REMSYN04801017 46/// /1703 11026 21080 30132 40140 51007=
0089010170999992016011515004+77683+014783FM-12+000699999V0201501N005019999999N999999999-00261-00691101411ADDMA1999999101321MD1310081+9999REMSYN04801017 46/// /1505 11026 21069 30132 40141 53008=
0089010170999992016011516004+77683+014783FM-12+000699999V0201601N004019999999N999999999-00281-00701101421ADDMA1999999101341MD1210061+9999REMSYN04801017 46/// /1604 11028 21070 30134 40142 52006=
0089010170999992016011517004+77683+014783FM-12+000699999V0201501N008019999999N999999999-00291-00671101391ADDMA1999999101311MD1510011+9999REMSYN04801017 46/// /1508 11029 21067 30131 40139 55001=
0132010170999992016011518004+77683+014783FM-12+000699999V0201501N006019999999N999999999-00261-00711101411ADDKA1120M-00241MA1999999101331MD1410001+9999OD139900901999REMSYN06401017 46/// /1506 11026 21071 30133 40141 54000 333 11024 91109=
0089010170999992016011519004+77683+014783FM-12+000699999V0201401N007019999999N999999999-00301-00651101391ADDMA1999999101301MD1710041+9999REMSYN04801017 46/// /1407 11030 21065 30130 40139 57004=
0089010170999992016011520004+77683+014783FM-12+000699999V0201301N007019999999N999999999-00231-00731101391ADDMA1999999101311MD1410001+9999REMSYN04801017 46/// /1307 11023 21073 30131 40139 54000=
0108010170999992016011521004+77683+014783FM-12+000699999V0201401N008019999999N999999999-00231-00681101391ADDMA1999999101311MD1790029+9999REMSYN04801017 46/// /1408 11023 21068 30131 40139 54002=EQDQ01.2    3APC3  
0108010170999992016011522004+77683+014783FM-12+000699999V0201501N009019999999N999999999-00341-00571101401ADDMA1999999101321MD1290019+9999REMSYN04801017 46/// /1509 11034 21057 30132 40140 54002=EQDQ01.2    3APC3  
0089010170999992016011523004+77683+014783FM-12+000699999V0201501N007019999999N999999999-00241-00611101431ADDMA1999999101351MD1210041+9999REMSYN04801017 46/// /1507 11024 21061 30135 40143 52004=
0113010170999992016011600004+77683+014783FM-12+000699999V0201401N007019999999N999999999-00241-00591101411ADDMA1999999101331MD1510021+9999OD139901401999REMSYN05801017 46/// /1407 11024 21059 30133 40141 55002 333 91114=
0108010170999992016011601004+77683+014783FM-12+000699999V0201501N006019999999N999999999-00181-00621101431ADDMA1999999101341MD1290039+9999REMSYN04801017 46/// /1506 11018 21062 30134 40143 54002=EQDQ01.2    3APC3  
0089010170999992016011602004+77683+014783FM-12+000699999V0201301N005019999999N999999999-00211-00601101431ADDMA1999999101351MD1410001+9999REMSYN04801017 46/// /1305 11021 21060 30135 40143 54000=
0089010170999992016011603004+77683+014783FM-12+000699999V0201501N005019999999N999999999-00171-00641101461ADDMA1999999101371MD1210051+9999REMSYN04801017 46/// /1505 11017 21064 30137 40146 52005=
0089010170999992016011604004+77683+014783FM-12+000699999V0201401N004019999999N999999999-00191-00561101471ADDMA1999999101391MD1210041+9999REMSYN04801017 46/// /1404 11019 21056 30139 40147 52004=
0089010170999992016011605004+77683+014783FM-12+000699999V0202001N005019999999N999999999-00191-00611101481ADDMA1999999101391MD1210051+9999REMSYN04801017 46/// /2005 11019 21061 30139 40148 52005=
0151010170999992016011606004+77683+014783FM-12+000699999V0201801N006019999999N999999999-00171-00751101471ADDKA1240N-00371MA1999999101391MD1290019+9999OD139901101999REMSYN06401017 46/// /1806 11017 21075 30139 40147 54001 333 21037 91111=EQDQ01.1    3APC3  
0089010170999992016011607004+77683+014783FM-12+000699999V0201901N005019999999N999999999-00131-00731101511ADDMA1999999101421MD1210041+9999REMSYN04801017 46/// /1905 11013 21073 30142 40151 52004=
0089010170999992016011608004+77683+014783FM-12+000699999V0201201N005019999999N999999999-00201-00601101561ADDMA1999999101481MD1110081+9999REMSYN04801017 46/// /1205 11020 21060 30148 40156 51008=
0089010170999992016011609004+77683+014783FM-12+000699999V0201801N005019999999N999999999-00211-00571101601ADDMA1999999101521MD1210131+9999REMSYN04801017 46/// /1805 11021 21057 30152 40160 52013=
0089010170999992016011610004+77683+014783FM-12+000699999V0201501N005019999999N999999999-00151-00641101621ADDMA1999999101541MD1210121+9999REMSYN04801017 46/// /1505 11015 21064 30154 40162 52012=
0089010170999992016011611004+77683+014783FM-12+000699999V0201401N005019999999N999999999-00171-00571101631ADDMA1999999101551MD1310071+9999REMSYN04801017 46/// /1405 11017 21057 30155 40163 53007=
0113010170999992016011612004+77683+014783FM-12+000699999V0201601N008019999999N999999999-00171-00561101591ADDMA1999999101511MD1510011+9999OD139901101999REMSYN05801017 46/// /1608 11017 21056 30151 40159 55001 333 91111=
0089010170999992016011613004+77683+014783FM-12+000699999V0201501N009019999999N999999999-00151-00591101561ADDMA1999999101481MD1610061+9999REMSYN04801017 46/// /1509 11015 21059 30148 40156 56006=
0089010170999992016011614004+77683+014783FM-12+000699999V0201401N010019999999N999999999-00111-00501101531ADDMA1999999101441MD1710101+9999REMSYN04801017 46/// /1410 11011 21050 30144 40153 57010=
0089010170999992016011615004+77683+014783FM-12+000699999V0201301N009019999999N999999999-00151-00401101541ADDMA1999999101451MD1810051+9999REMSYN04801017 46/// /1309 11015 21040 30145 40154 58005=
0089010170999992016011616004+77683+014783FM-12+000699999V0201301N008019999999N999999999-00181-00421101561ADDMA1999999101481MD1990001+9999REMSYN04801017 46/// /1308 11018 21042 30148 40156 50000=
0089010170999992016011617004+77683+014783FM-12+000699999V0202101N006019999999N999999999-00211-00321101601ADDMA1999999101521MD1110081+9999REMSYN04801017 46/// /2106 11021 21032 30152 40160 51008=
0132010170999992016011618004+77683+014783FM-12+000699999V0201901N005019999999N999999999-00211-00351101671ADDKA1120M-00081MA1999999101591MD1110141+9999OD139901501999REMSYN06401017 46/// /1905 11021 21035 30159 40167 51014 333 11008 91115=
0089010170999992016011619004+77683+014783FM-12+000699999V0201801N007019999999N999999999-00231-00461101731ADDMA1999999101641MD1210171+9999REMSYN04801017 46/// /1807 11023 21046 30164 40173 52017=
0089010170999992016011620004+77683+014783FM-12+000699999V0201801N005019999999N999999999-00071-00671101751ADDMA1999999101671MD1310151+9999REMSYN04801017 46/// /1805 11007 21067 30167 40175 53015=
0089010170999992016011621004+77683+014783FM-12+000699999V0201301N005019999999N999999999-00071-00711101791ADDMA1999999101711MD1210121+9999REMSYN04801017 46/// /1305 11007 21071 30171 40179 52012=
0089010170999992016011622004+77683+014783FM-12+000699999V0201601N007019999999N999999999-00081-00661101771ADDMA1999999101691MD1310051+9999REMSYN04801017 46/// /1607 11008 21066 30169 40177 53005=
0089010170999992016011623004+77683+014783FM-12+000699999V0201201N006019999999N999999999-00121-00661101841ADDMA1999999101751MD1210091+9999REMSYN04801017 46/// /1206 11012 21066 30175 40184 52009=
0113010170999992016011700004+77683+014783FM-12+000699999V0201501N008019999999N999999999-00141-00601101791ADDMA1999999101711MD1410001+9999OD139901201999REMSYN05801017 46/// /1508 11014 21060 30171 40179 54000 333 91112=
0089010170999992016011701004+77683+014783FM-12+000699999V0201601N010019999999N999999999-00091-00581101741ADDMA1999999101661MD1510031+9999REMSYN04801017 46/// /1610 11009 21058 30166 40174 55003=
0089010170999992016011702004+77683+014783FM-12+000699999V0201501N011019999999N999999999-00071-00551101701ADDMA1999999101611MD1710141+9999REMSYN04801017 46/// /1511 11007 21055 30161 40170 57014=
0089010170999992016011703004+77683+014783FM-12+000699999V0201501N009019999999N999999999-00051-00601101731ADDMA1999999101651MD1810061+9999REMSYN04801017 46/// /1509 11005 21060 30165 40173 58006=
0089010170999992016011704004+77683+014783FM-12+000699999V0201401N007019999999N999999999-00091-00551101781ADDMA1999999101701MD1990041+9999REMSYN04801017 46/// /1407 11009 21055 30170 40178 50004=
0089010170999992016011705004+77683+014783FM-12+000699999V0201301N008019999999N999999999-00111-00581101781ADDMA1999999101701MD1310081+9999REMSYN04801017 46/// /1308 11011 21058 30170 40178 53008=
0132010170999992016011706004+77683+014783FM-12+000699999V0201201N009019999999N999999999-00151-00621101761ADDKA1240N-00261MA1999999101681MD1310031+9999OD139901401999REMSYN06401017 46/// /1209 11015 21062 30168 40176 53003 333 21026 91114=
0089010170999992016011707004+77683+014783FM-12+000699999V0201201N010019999999N999999999-00151-00661101721ADDMA1999999101631MD1610071+9999REMSYN04801017 46/// /1210 11015 21066 30163 40172 56007=
0089010170999992016011708004+77683+014783FM-12+000699999V0201101N007019999999N999999999-00191-00641101751ADDMA1999999101661MD1810041+9999REMSYN04801017 46/// /1107 11019 21064 30166 40175 58004=
0089010170999992016011709004+77683+014783FM-12+000699999V0201001N007019999999N999999999-00191-00711101761ADDMA1999999101671MD1990011+9999REMSYN04801017 46/// /1007 11019 21071 30167 40176 50001=
0089010170999992016011710004+77683+014783FM-12+000699999V0201101N007019999999N999999999-00201-00671101721ADDMA1999999101641MD1510011+9999REMSYN04801017 46/// /1107 11020 21067 30164 40172 55001=
0089010170999992016011711004+77683+014783FM-12+000699999V0200801N006019999999N999999999-00181-00651101711ADDMA1999999101631MD1710031+9999REMSYN04801017 46/// /0806 11018 21065 30163 40171 57003=
0113010170999992016011712004+77683+014783FM-12+000699999V0201001N006019999999N999999999-00141-00671101671ADDMA1999999101581MD1710091+9999OD139901201999REMSYN05801017 46/// /1006 11014 21067 30158 40167 57009 333 91112=
0089010170999992016011713004+77683+014783FM-12+000699999V0201001N007019999999N999999999-00161-00501101591ADDMA1999999101511MD1610131+9999REMSYN04801017 46/// /1007 11016 21050 30151 40159 56013=
0089010170999992016011714004+77683+014783FM-12+000699999V0200601N009019999999N999999999-00171-00501101531ADDMA1999999101451MD1710181+9999REMSYN04801017 46/// /0609 11017 21050 30145 40153 57018=
0089010170999992016011715004+77683+014783FM-12+000699999V0200701N009019999999N999999999-00151-00491101511ADDMA1999999101431MD1810161+9999REMSYN04801017 46/// /0709 11015 21049 30143 40151 58016=
0089010170999992016011716004+77683+014783FM-12+000699999V0200901N008019999999N999999999-00191-00441101531ADDMA1999999101451MD1810061+9999REMSYN04801017 46/// /0908 11019 21044 30145 40153 58006=
0089010170999992016011717004+77683+014783FM-12+000699999V0201001N006019999999N999999999-00061-00441101491ADDMA1999999101411MD1710041+9999REMSYN04801017 46/// /1006 11006 21044 30141 40149 57004=
0132010170999992016011718004+77683+014783FM-12+000699999V0200901N005019999999N999999999-00141-00411101481ADDKA1120M-00021MA1999999101401MD1710031+9999OD139901201999REMSYN06401017 46/// /0905 11014 21041 30140 40148 57003 333 11002 91112=
0059010170999992016011720004+77689+014775FM-12+000699999V0200701N0062199999999999999999-00121-00391101421ADDMA1999999101341MD1710071+9999OD130100811999REMSYN004BUFR
0089010170999992016011721004+77683+014783FM-12+000699999V0200501N006019999999N999999999-00161-00351101371ADDMA1999999101291MD1710111+9999REMSYN04801017 46/// /0506 11016 21035 30129 40137 57011=
0089010170999992016011722004+77683+014783FM-12+000699999V0200601N009019999999N999999999-00161-00351101301ADDMA1999999101221MD1610141+9999REMSYN04801017 46/// /0609 11016 21035 30122 40130 56014=
0089010170999992016011723004+77683+014783FM-12+000699999V0200601N009019999999N999999999-00171-00361101231ADDMA1999999101151MD1710201+9999REMSYN04801017 46/// /0609 11017 21036 30115 40123 57020=
0089010170999992016011800004+77683+014783FM-12+000699999V0200601N009019999999N999999999-00151-00341101191ADDMA1999999101101MD1810191+9999REMSYN04801017 46/// /0609 11015 21034 30110 40119 58019=
0089010170999992016011801004+77683+014783FM-12+000699999V0200601N009019999999N999999999-00171-00341101151ADDMA1999999101071MD1810151+9999REMSYN04801017 46/// /0609 11017 21034 30107 40115 58015=
0089010170999992016011802004+77683+014783FM-12+000699999V0200601N008019999999N999999999-00171-00361101121ADDMA1999999101041MD1710111+9999REMSYN04801017 46/// /0608 11017 21036 30104 40112 57011=
0089010170999992016011803004+77683+014783FM-12+000699999V0200601N006019999999N999999999-00111-00361101091ADDMA1999999101011MD1710101+9999REMSYN04801017 46/// /0606 11011 21036 30101 40109 57010=
0089010170999992016011804004+77683+014783FM-12+000699999V0201301N006019999999N999999999-00091-00461101071ADDMA1999999100981MD1710091+9999REMSYN04801017 46/// /1306 11009 21046 30098 40107 57009=
0089010170999992016011805004+77683+014783FM-12+000699999V0201301N005019999999N999999999-00131-00471101051ADDMA1999999100971MD1710071+9999REMSYN04801017 46/// /1305 11013 21047 30097 40105 57007=
0113010170999992016011806004+77683+014783FM-12+000699999V0201001N004019999999N999999999-00141-00781101011ADDMA1999999100931MD1710071+9999OD139901101999REMSYN05801017 46/// /1004 11014 21078 30093 40101 57007 333 91111=
0089010170999992016011807004+77683+014783FM-12+000699999V0200601N009019999999N999999999-00191-00451100951ADDMA1999999100871MD1610111+9999REMSYN04801017 46/// /0609 11019 21045 30087 40095 56011=
0089010170999992016011808004+77683+014783FM-12+000699999V0200701N007019999999N999999999-00201-00421100981ADDMA1999999100901MD1810071+9999REMSYN04801017 46/// /0707 11020 21042 30090 40098 58007=
0089010170999992016011809004+77683+014783FM-12+000699999V0200601N006019999999N999999999-00181-00491100981ADDMA1999999100901MD1990031+9999REMSYN04801017 46/// /0606 11018 21049 30090 40098 50003=
0089010170999992016011810004+77683+014783FM-12+000699999V0201201N005019999999N999999999-00211-00501101011ADDMA1999999100931MD1210061+9999REMSYN04801017 46/// /1205 11021 21050 30093 40101 52006=
0108010170999992016011811004+77683+014783FM-12+000699999V0201501N007019999999N999999999-00191-00581101001ADDMA1999999100921MD1290029+9999REMSYN04801017 46/// /1507 11019 21058 30092 40100 54002=EQDQ01.2    3APC3  
0113010170999992016011812004+77683+014783FM-12+000699999V0201101N006019999999N999999999-00211-00631101061ADDMA1999999100981MD1110081+9999OD139901101999REMSYN05801017 46/// /1106 11021 21063 30098 40106 51008 333 91111=
0089010170999992016011813004+77683+014783FM-12+000699999V0201201N004019999999N999999999-00211-00731101081ADDMA1999999101001MD1210071+9999REMSYN04801017 46/// /1204 11021 21073 30100 40108 52007=
0089010170999992016011814004+77683+014783FM-12+000699999V0201201N006019999999N999999999-00221-00741101041ADDMA1999999100961MD1310041+9999REMSYN04801017 46/// /1206 11022 21074 30096 40104 53004=
0108010170999992016011815004+77683+014783FM-12+000699999V0200901N004019999999N999999999-00191-00711101031ADDMA1999999100951MD1790039+9999REMSYN04801017 46/// /0904 11019 21071 30095 40103 54003=EQDQ01.3    3APC3  
0089010170999992016011816004+77683+014783FM-12+000699999V0200701N006019999999N999999999-00211-00611101031ADDMA1999999100951MD1810051+9999REMSYN04801017 46/// /0706 11021 21061 30095 40103 58005=
0089010170999992016011817004+77683+014783FM-12+000699999V0200601N011019999999N999999999-00271-00491100981ADDMA1999999100901MD1610061+9999REMSYN04801017 46/// /0611 11027 21049 30090 40098 56006=
0132010170999992016011818004+77683+014783FM-12+000699999V0200601N009019999999N999999999-00241-00451100991ADDKA1120M-00141MA1999999100911MD1710041+9999OD139901301999REMSYN06401017 46/// /0609 11024 21045 30091 40099 57004 333 11014 91113=
0089010170999992016011819004+77683+014783FM-12+000699999V0201501N012019999999N999999999-00111-00531100891ADDMA1999999100811MD1610141+9999REMSYN04801017 46/// /1512 11011 21053 30081 40089 56014=
0089010170999992016011820004+77683+014783FM-12+000699999V0201401N012019999999N999999999-00121-00591100911ADDMA1999999100831MD1710071+9999REMSYN04801017 46/// /1412 11012 21059 30083 40091 57007=
0089010170999992016011821004+77683+014783FM-12+000699999V0201401N011019999999N999999999-00111-00641100931ADDMA1999999100851MD1810061+9999REMSYN04801017 46/// /1411 11011 21064 30085 40093 58006=
0089010170999992016011822004+77683+014783FM-12+000699999V0201501N009019999999N999999999-00061-00721100991ADDMA1999999100911MD1110101+9999REMSYN04801017 46/// /1509 11006 21072 30091 40099 51010=
0089010170999992016011823004+77683+014783FM-12+000699999V0201501N008019999999N999999999-00041-00741101001ADDMA1999999100921MD1210081+9999REMSYN04801017 46/// /1508 11004 21074 30092 40100 52008=
0113010170999992016011900004+77683+014783FM-12+000699999V0201301N007019999999N999999999-00071-00691101071ADDMA1999999100991MD1210141+9999OD139901601999REMSYN05801017 46/// /1307 11007 21069 30099 40107 52014 333 91116=
0089010170999992016011901004+77683+014783FM-12+000699999V0201301N006019999999N999999999-00091-00671101061ADDMA1999999100981MD1210081+9999REMSYN04801017 46/// /1306 11009 21067 30098 40106 52008=
0089010170999992016011902004+77683+014783FM-12+000699999V0201501N007019999999N999999999-00101-00701101061ADDMA1999999100981MD1310061+9999REMSYN04801017 46/// /1507 11010 21070 30098 40106 53006=
0089010170999992016011903004+77683+014783FM-12+000699999V0201601N009019999999N999999999-00091-00671101001ADDMA1999999100911MD1610081+9999REMSYN04801017 46/// /1609 11009 21067 30091 40100 56008=
0089010170999992016011904004+77683+014783FM-12+000699999V0201601N010019999999N999999999-00041-00631100961ADDMA1999999100881MD1610101+9999REMSYN04801017 46/// /1610 11004 21063 30088 40096 56010=
0089010170999992016011905004+77683+014783FM-12+000699999V0201601N012019999999N999999999-00081-00541100961ADDMA1999999100871MD1810101+9999REMSYN04801017 46/// /1612 11008 21054 30087 40096 58010=
0132010170999992016011906004+77683+014783FM-12+000699999V0201601N011019999999N999999999-00081-00591100951ADDKA1240N-00241MA1999999100861MD1710051+9999OD139901601999REMSYN06401017 46/// /1611 11008 21059 30086 40095 57005 333 21024 91116=
0089010170999992016011907004+77683+014783FM-12+000699999V0201501N009019999999N999999999-00081-00661101001ADDMA1999999100921MD1110041+9999REMSYN04801017 46/// /1509 11008 21066 30092 40100 51004=
0108010170999992016011908004+77683+014783FM-12+000699999V0201501N010019999999N999999999-00111-00621100961ADDMA1999999100881MD1410009+9999REMSYN04801017 46/// /1510 11011 21062 30088 40096 54001=EQDQ01.1    3APC3  
0089010170999992016011909004+77683+014783FM-12+000699999V0201601N010019999999N999999999-00131-00661100981ADDMA1999999100901MD1310031+9999REMSYN04801017 46/// /1610 11013 21066 30090 40098 53003=
0089010170999992016011910004+77683+014783FM-12+000699999V0201601N009019999999N999999999-00141-00681100971ADDMA1999999100891MD1990021+9999REMSYN04801017 46/// /1609 11014 21068 30089 40097 50002=
0108010170999992016011911004+77683+014783FM-12+000699999V0201601N008019999999N999999999-00171-00691100981ADDMA1999999100891MD1290029+9999REMSYN04801017 46/// /1608 11017 21069 30089 40098 54001=EQDQ01.1    3APC3  
0113010170999992016011912004+77683+014783FM-12+000699999V0201601N009019999999N999999999-00171-00731100931ADDMA1999999100851MD1610051+9999OD139901401999REMSYN05801017 46/// /1609 11017 21073 30085 40093 56005 333 91114=
0089010170999992016011913004+77683+014783FM-12+000699999V0201601N010019999999N999999999-00231-00701100911ADDMA1999999100831MD1710061+9999REMSYN04801017 46/// /1610 11023 21070 30083 40091 57006=
0089010170999992016011914004+77683+014783FM-12+000699999V0201501N007019999999N999999999-00241-00731100941ADDMA1999999100861MD1810031+9999REMSYN04801017 46/// /1507 11024 21073 30086 40094 58003=
0089010170999992016011915004+77683+014783FM-12+000699999V0201501N005019999999N999999999-00231-00751100941ADDMA1999999100851MD1410001+9999REMSYN04801017 46/// /1505 11023 21075 30085 40094 54000=
0089010170999992016011916004+77683+014783FM-12+000699999V0201601N006019999999N999999999-00231-00811100911ADDMA1999999100831MD1510001+9999REMSYN04801017 46/// /1606 11023 21081 30083 40091 55000=
0089010170999992016011917004+77683+014783FM-12+000699999V0201601N006019999999N999999999-00211-00771100891ADDMA1999999100811MD1710051+9999REMSYN04801017 46/// /1606 11021 21077 30081 40089 57005=
0132010170999992016011918004+77683+014783FM-12+000699999V0201601N008019999999N999999999-00221-00781100841ADDKA1120M-00051MA1999999100761MD1710101+9999OD139901401999REMSYN06401017 46/// /1608 11022 21078 30076 40084 57010 333 11005 91114=
0089010170999992016011919004+77683+014783FM-12+000699999V0201601N008019999999N999999999-00211-00771100801ADDMA1999999100721MD1710101+9999REMSYN04801017 46/// /1608 11021 21077 30072 40080 57010=
0089010170999992016011920004+77683+014783FM-12+000699999V0201601N008019999999N999999999-00211-00771100761ADDMA1999999100681MD1710131+9999REMSYN04801017 46/// /1608 11021 21077 30068 40076 57013=
0089010170999992016011921004+77683+014783FM-12+000699999V0201701N008019999999N999999999-00201-00801100741ADDMA1999999100661MD1710101+9999REMSYN04801017 46/// /1708 11020 21080 30066 40074 57010=
0089010170999992016011922004+77683+014783FM-12+000699999V0200201N004019999999N999999999-00231-00791100781ADDMA1999999100701MD1990031+9999REMSYN04801017 46/// /0204 11023 21079 30070 40078 50003=
0108010170999992016011923004+77683+014783FM-12+000699999V0200801N005019999999N999999999-00241-00781100751ADDMA1999999100671MD1790019+9999REMSYN04801017 46/// /0805 11024 21078 30067 40075 54001=EQDQ01.1    3APC3  
0113010170999992016012000004+77683+014783FM-12+000699999V0200501N004019999999N999999999-00211-00811100721ADDMA1999999100641MD1510011+9999OD139901001999REMSYN05801017 46/// /0504 11021 21081 30064 40072 55001 333 91110=
0089010170999992016012001004+77683+014783FM-12+000699999V0200501N004019999999N999999999-00211-00811100701ADDMA1999999100621MD1710081+9999REMSYN04801017 46/// /0504 11021 21081 30062 40070 57008=
0089010170999992016012002004+77683+014783FM-12+000699999V0201901N002019999999N999999999-00141-00841100691ADDMA1999999100611MD1710061+9999REMSYN04801017 46/// /1902 11014 21084 30061 40069 57006=
0089010170999992016012003004+77683+014783FM-12+000699999V0200401N006019999999N999999999-00291-00671100671ADDMA1999999100591MD1710051+9999REMSYN04801017 46/// /0406 11029 21067 30059 40067 57005=
0089010170999992016012004004+77683+014783FM-12+000699999V0200601N005019999999N999999999-00211-00771100641ADDMA1999999100561MD1710061+9999REMSYN04801017 46/// /0605 11021 21077 30056 40064 57006=
0089010170999992016012005004+77683+014783FM-12+000699999V0200601N006019999999N999999999-00251-00791100631ADDMA1999999100541MD1710061+9999REMSYN04801017 46/// /0606 11025 21079 30054 40063 57006=
0132010170999992016012006004+77683+014783FM-12+000699999V0200801N006019999999N999999999-00271-00811100601ADDKA1240N-00321MA1999999100521MD1710071+9999OD139900901999REMSYN06401017 46/// /0806 11027 21081 30052 40060 57007 333 21032 91109=
0089010170999992016012007004+77683+014783FM-12+000699999V0200701N006019999999N999999999-00211-00811100581ADDMA1999999100501MD1710051+9999REMSYN04801017 46/// /0706 11021 21081 30050 40058 57005=
0089010170999992016012008004+77683+014783FM-12+000699999V0200901N002019999999N999999999-00171-00751100601ADDMA1999999100521MD1990021+9999REMSYN04801017 46/// /0902 11017 21075 30052 40060 50002=
0089010170999992016012009004+77683+014783FM-12+000699999V0201501N002019999999N999999999-00161-00761100621ADDMA1999999100541MD1990021+9999REMSYN04801017 46/// /1502 11016 21076 30054 40062 50002=
0089010170999992016012010004+77683+014783FM-12+000699999V0200201N003019999999N999999999-00281-00541100621ADDMA1999999100541MD1210041+9999REMSYN04801017 46/// /0203 11028 21054 30054 40062 52004=
0089010170999992016012011004+77683+014783FM-12+000699999V0200301N005019999999N999999999-00421-00561100641ADDMA1999999100561MD1210041+9999REMSYN04801017 46/// /0305 11042 21056 30056 40064 52004=
0132010170999992016012012004+77683+014783FM-12+000699999V0200601N002019999999N999999999-00421-00531100641ADDMA1999999100561MD1290029+9999OD139901001999REMSYN05801017 46/// /0602 11042 21053 30056 40064 54002 333 91110=EQDQ01.2    3APC3  
0089010170999992016012013004+77683+014783FM-12+000699999V0203001N009019999999N999999999-00581-00691100701ADDMA1999999100621MD1110081+9999REMSYN04801017 46/// /3009 11058 21069 30062 40070 51008=
0089010170999992016012014004+77683+014783FM-12+000699999V0203001N006019999999N999999999-00571-00761100761ADDMA1999999100681MD1110121+9999REMSYN04801017 46/// /3006 11057 21076 30068 40076 51012=
0089010170999992016012015004+77683+014783FM-12+000699999V0203001N006019999999N999999999-00611-01071100791ADDMA1999999100711MD1310151+9999REMSYN04801017 46/// /3006 11061 21107 30071 40079 53015=
0089010170999992016012016004+77683+014783FM-12+000699999V0203001N005019999999N999999999-00611-01101100801ADDMA1999999100721MD1310101+9999REMSYN04801017 46/// /3005 11061 21110 30072 40080 53010=
0089010170999992016012017004+77683+014783FM-12+000699999V0203301N002019999999N999999999-00691-01211100851ADDMA1999999100771MD1210081+9999REMSYN04801017 46/// /3302 11069 21121 30077 40085 52008=
0132010170999992016012018004+77683+014783FM-12+000699999V0203401N003019999999N999999999-00751-01151100831ADDKA1120M-00131MA1999999100741MD1310031+9999OD139901101999REMSYN06401017 46/// /3403 11075 21115 30074 40083 53003 333 11013 91111=
0089010170999992016012019004+77683+014783FM-12+000699999V0203401N002019999999N999999999-00841-01221100851ADDMA1999999100771MD1210051+9999REMSYN04801017 46/// /3402 11084 21122 30077 40085 52005=
0108010170999992016012020004+77683+014783FM-12+000699999V0203601N002019999999N999999999-00801-01121100861ADDMA1999999100781MD1290019+9999REMSYN04801017 46/// /3602 11080 21112 30078 40086 54001=EQDQ01.1    3APC3  
0089010170999992016012021004+77683+014783FM-12+000699999V0203501N002019999999N999999999-00871-01161100851ADDMA1999999100771MD1510021+9999REMSYN04801017 46/// /3502 11087 21116 30077 40085 55002=
0108010170999992016012022004+77683+014783FM-12+000699999V0200101N002019999999N999999999-00791-01131100831ADDMA1999999100751MD1790029+9999REMSYN04801017 46/// /0102 11079 21113 30075 40083 54002=EQDQ01.2    3APC3  
0108010170999992016012023004+77683+014783FM-12+000699999V0203501N003019999999N999999999-00861-01151100841ADDMA1999999100761MD1790029+9999REMSYN04801017 46/// /3503 11086 21115 30076 40084 54002=EQDQ01.2    3APC3  
0132010170999992016012100004+77683+014783FM-12+000699999V0200101N004019999999N999999999-00841-01111100821ADDMA1999999100741MD1790039+9999OD139900501999REMSYN05801017 46/// /0104 11084 21111 30074 40082 54003 333 91105=EQDQ01.3    3APC3  
0089010170999992016012101004+77683+014783FM-12+000699999V0203501N003019999999N999999999-00861-01101100831ADDMA1999999100741MD1410001+9999REMSYN04801017 46/// /3503 11086 21110 30074 40083 54000=
0089010170999992016012102004+77683+014783FM-12+000699999V0200201N003019999999N999999999-00761-01001100801ADDMA1999999100711MD1710051+9999REMSYN04801017 46/// /0203 11076 21100 30071 40080 57005=
0089010170999992016012103004+77683+014783FM-12+000699999V0200401N004019999999N999999999-00831-01041100781ADDMA1999999100691MD1710051+9999REMSYN04801017 46/// /0404 11083 21104 30069 40078 57005=
0089010170999992016012104004+77683+014783FM-12+000699999V0200401N004019999999N999999999-00841-01061100741ADDMA1999999100651MD1710091+9999REMSYN04801017 46/// /0404 11084 21106 30065 40074 57009=
0089010170999992016012105004+77683+014783FM-12+000699999V0200501N005019999999N999999999-00821-01101100681ADDMA1999999100591MD1610121+9999REMSYN04801017 46/// /0505 11082 21110 30059 40068 56012=
0132010170999992016012106004+77683+014783FM-12+000699999V0200501N005019999999N999999999-00761-01121100661ADDKA1240N-00931MA1999999100571MD1710121+9999OD139900701999REMSYN06401017 46/// /0505 11076 21112 30057 40066 57012 333 21093 91107=
0089010170999992016012107004+77683+014783FM-12+000699999V0200401N007019999999N999999999-00741-01011100601ADDMA1999999100521MD1710141+9999REMSYN04801017 46/// /0407 11074 21101 30052 40060 57014=
0089010170999992016012108004+77683+014783FM-12+000699999V0200501N008019999999N999999999-00741-00981100561ADDMA1999999100471MD1710121+9999REMSYN04801017 46/// /0508 11074 21098 30047 40056 57012=
0089010170999992016012109004+77683+014783FM-12+000699999V0200501N009019999999N999999999-00701-01011100521ADDMA1999999100441MD1710131+9999REMSYN04801017 46/// /0509 11070 21101 30044 40052 57013=
0089010170999992016012110004+77683+014783FM-12+000699999V0200501N009019999999N999999999-00681-00951100491ADDMA1999999100401MD1710111+9999REMSYN04801017 46/// /0509 11068 21095 30040 40049 57011=
0089010170999992016012111004+77683+014783FM-12+000699999V0200501N008019999999N999999999-00681-00871100421ADDMA1999999100331MD1610141+9999REMSYN04801017 46/// /0508 11068 21087 30033 40042 56014=
0113010170999992016012112004+77683+014783FM-12+000699999V0200501N010019999999N999999999-00671-00861100351ADDMA1999999100261MD1610181+9999OD139901201999REMSYN05801017 46/// /0510 11067 21086 30026 40035 56018 333 91112=
0089010170999992016012113004+77683+014783FM-12+000699999V0200501N010019999999N999999999-00591-00721100301ADDMA1999999100221MD1710191+9999REMSYN04801017 46/// /0510 11059 21072 30022 40030 57019=
0089010170999992016012114004+77683+014783FM-12+000699999V0200501N010019999999N999999999-00521-00701100271ADDMA1999999100181MD1810151+9999REMSYN04801017 46/// /0510 11052 21070 30018 40027 58015=
0089010170999992016012115004+77683+014783FM-12+000699999V0200501N009019999999N999999999-00461-00651100251ADDMA1999999100171MD1710101+9999REMSYN04801017 46/// /0509 11046 21065 30017 40025 57010=
