0049010150999992016010100004+69600+017833FM-12+001499999V020999999999999999999999999999+99999+99999999999REMSYN04001015 46/// /1415 10063 21009 333 91121=
0039010150999992016010101004+69600+017833FM-12+001499999V0201401N013019999999N999999999+00601-00281999999REMSYN03001015 46/// /1413 10060 21028=
0039010150999992016010102004+69600+017833FM-12+001499999V0201401N013019999999N999999999+00521-00121999999REMSYN03001015 46/// /1413 10052 21012=
0039010150999992016010103004+69600+017833FM-12+001499999V0201401N014019999999N999999999+00521-00211999999REMSYN03001015 46/// /1414 10052 21021=
0039010150999992016010104004+69600+017833FM-12+001499999V0201401N015019999999N999999999+00481-00301999999REMSYN03001015 46/// /1415 10048 21030=
0039010150999992016010105004+69600+017833FM-12+001499999V0201501N012019999999N999999999+00531-00321999999REMSYN03001015 46/// /1512 10053 21032=
0055010150999992016010106004+69600+017833FM-12+001499999V020999999999999999999999999999+99999+99999999999REMSYN04601015 46/// /1611 10054 21031 333 20047 91119=
0039010150999992016010107004+69600+017833FM-12+001499999V0201501N012019999999N999999999+00531-00351999999REMSYN03001015 46/// /1512 10053 21035=
0039010150999992016010108004+69600+017833FM-12+001499999V0201501N010019999999N999999999+00501-00281999999REMSYN03001015 46/// /1510 10050 21028=
0039010150999992016010109004+69600+017833FM-12+001499999V0201401N011019999999N999999999+00501-00251999999REMSYN03001015 46/// /1411 10050 21025=
0039010150999992016010110004+69600+017833FM-12+001499999V0201501N014019999999N999999999+00501-00211999999REMSYN03001015 46/// /1514 10050 21021=
0039010150999992016010111004+69600+017833FM-12+001499999V0201601N008019999999N999999999+00481-00141999999REMSYN03001015 46/// /1608 10048 21014=
0049010150999992016010112004+69600+017833FM-12+001499999V020999999999999999999999999999+99999+99999999999REMSYN04001015 46/// /1510 10047 21015 333 91118=
0039010150999992016010113004+69600+017833FM-12+001499999V0201401N010019999999N999999999+00451-00171999999REMSYN03001015 46/// /1410 10045 21017=
0039010150999992016010114004+69600+017833FM-12+001499999V0201501N012019999999N999999999+00431-00191999999REMSYN03001015 46/// /1512 10043 21019=
0039010150999992016010115004+69600+017833FM-12+001499999V0201401N010019999999N999999999+00441-00161999999REMSYN03001015 46/// /1410 10044 21016=
0039010150999992016010116004+69600+017833FM-12+001499999V0201501N012019999999N999999999+00451-00211999999REMSYN03001015 46/// /1512 10045 21021=
0039010150999992016010117004+69600+017833FM-12+001499999V0201501N011019999999N999999999+00531-00321999999REMSYN03001015 46/// /1511 10053 21032=
0055010150999992016010118004+69600+017833FM-12+001499999V020999999999999999999999999999+99999+99999999999REMSYN04601015 46/// /1510 10052 21036 333 10061 91117=
0039010150999992016010119004+69600+017833FM-12+001499999V0201401N011019999999N999999999+00591-00341999999REMSYN03001015 46/// /1411 10059 21034=
0039010150999992016010120004+69600+017833FM-12+001499999V0201601N011019999999N999999999+00631-00411999999REMSYN03001015 46/// /1611 10063 21041=
0039010150999992016010121004+69600+017833FM-12+001499999V0201401N011019999999N999999999+00591-00421999999REMSYN03001015 46/// /1411 10059 21042=
0039010150999992016010122004+69600+017833FM-12+001499999V0201401N006019999999N999999999+00551-00381999999REMSYN03001015 46/// /1406 10055 21038=
0056010150999992016010123004+69601+017830FM-12+001499999V0201431N0132199999999999999999+00571-00391999999ADDKA1010M+00581KA2010N+00521OD130101671999REMSYN004BUFR
0049010150999992016010200004+69600+017833FM-12+001499999V020999999999999999999999999999+99999+99999999999REMSYN04001015 46/// /1412 10056 21037 333 91118=
0039010150999992016010201004+69600+017833FM-12+001499999V0201301N010019999999N999999999+00511-00181999999REMSYN03001015 46/// /1310 10051 21018=
0039010150999992016010202004+69600+017833FM-12+001499999V0201401N010019999999N999999999+00501-00191999999REMSYN03001015 46/// /1410 10050 21019=
0039010150999992016010203004+69600+017833FM-12+001499999V0201401N011019999999N999999999+00511-00181999999REMSYN03001015 46/// /1411 10051 21018=
0039010150999992016010204004+69600+017833FM-12+001499999V0201401N011019999999N999999999+00481-00181999999REMSYN03001015 46/// /1411 10048 21018=
0039010150999992016010205004+69600+017833FM-12+001499999V0201501N010019999999N999999999+00511-00201999999REMSYN03001015 46/// /1510 10051 21020=
0055010150999992016010206004+69600+017833FM-12+001499999V020999999999999999999999999999+99999+99999999999REMSYN04601015 46/// /1510 10047 21031 333 20045 91115=
0039010150999992016010207004+69600+017833FM-12+001499999V0201401N011019999999N999999999+00421-00261999999REMSYN03001015 46/// /1411 10042 21026=
0039010150999992016010208004+69600+017833FM-12+001499999V0201501N008019999999N999999999+00421-00401999999REMSYN03001015 46/// /1508 10042 21040=
0039010150999992016010209004+69600+017833FM-12+001499999V0201501N008019999999N999999999+00451-00401999999REMSYN03001015 46/// /1508 10045 21040=
0039010150999992016010210004+69600+017833FM-12+001499999V0201501N009019999999N999999999+00401-00421999999REMSYN03001015 46/// /1509 10040 21042=
0039010150999992016010211004+69600+017833FM-12+001499999V0201401N009019999999N999999999+00401-00441999999REMSYN03001015 46/// /1409 10040 21044=
0049010150999992016010212004+69600+017833FM-12+001499999V020999999999999999999999999999+99999+99999999999REMSYN04001015 46/// /1308 10035 21035 333 91114=
0039010150999992016010213004+69600+017833FM-12+001499999V0201501N008019999999N999999999+00301-00401999999REMSYN03001015 46/// /1508 10030 21040=
0039010150999992016010214004+69600+017833FM-12+001499999V0201501N009019999999N999999999+00231-00401999999REMSYN03001015 46/// /1509 10023 21040=
0039010150999992016010215004+69600+017833FM-12+001499999V0201401N010019999999N999999999+00211-00381999999REMSYN03001015 46/// /1410 10021 21038=
0039010150999992016010216004+69600+017833FM-12+001499999V0201601N006019999999N999999999+00201-00491999999REMSYN03001015 46/// /1606 10020 21049=
0056010150999992016010217004+69601+017830FM-12+001499999V0201541N0078199999999999999999+00191-00491999999ADDKA1010M+00231KA2010N+00201OD130101011999REMSYN004BUFR
0055010150999992016010218004+69600+017833FM-12+001499999V020999999999999999999999999999+99999+99999999999REMSYN04601015 46/// /1508 10016 21047 333 10048 91113=
0039010150999992016010219004+69600+017833FM-12+001499999V0201501N011019999999N999999999+00221-00541999999REMSYN03001015 46/// /1511 10022 21054=
0039010150999992016010220004+69600+017833FM-12+001499999V0201501N006019999999N999999999+00231-00551999999REMSYN03001015 46/// /1506 10023 21055=
0039010150999992016010221004+69600+017833FM-12+001499999V0201401N006019999999N999999999+00251-00581999999REMSYN03001015 46/// /1406 10025 21058=
0039010150999992016010222004+69600+017833FM-12+001499999V0201601N007019999999N999999999+00191-00571999999REMSYN03001015 46/// /1607 10019 21057=
0056010150999992016010223004+69601+017830FM-12+001499999V0201281N0078199999999999999999+00221-00561999999ADDKA1010M+00291KA2010N+00181OD130101081999REMSYN004BUFR
0049010150999992016010300004+69600+017833FM-12+001499999V020999999999999999999999999999+99999+99999999999REMSYN04001015 46/// /1309 10012 21059 333 91112=
0039010150999992016010301004+69600+017833FM-12+001499999V0201401N008019999999N999999999+00111-00621999999REMSYN03001015 46/// /1408 10011 21062=
0039010150999992016010302004+69600+017833FM-12+001499999V0201501N008019999999N999999999+00121-00751999999REMSYN03001015 46/// /1508 10012 21075=
0039010150999992016010303004+69600+017833FM-12+001499999V0201401N008019999999N999999999+00091-00801999999REMSYN03001015 46/// /1408 10009 21080=
0039010150999992016010304004+69600+017833FM-12+001499999V0201401N008019999999N999999999+00051-00821999999REMSYN03001015 46/// /1408 10005 21082=
0039010150999992016010305004+69600+017833FM-12+001499999V0201401N009019999999N999999999+00011-00691999999REMSYN03001015 46/// /1409 10001 21069=
0055010150999992016010306004+69600+017833FM-12+001499999V020999999999999999999999999999+99999+99999999999REMSYN04601015 46/// /1410 11002 21071 333 21003 91111=
0039010150999992016010307004+69600+017833FM-12+001499999V0201701N008019999999N999999999-00051-00821999999REMSYN03001015 46/// /1708 11005 21082=
0039010150999992016010308004+69600+017833FM-12+001499999V0201601N006019999999N999999999-00071-00881999999REMSYN03001015 46/// /1606 11007 21088=
0039010150999992016010309004+69600+017833FM-12+001499999V0201501N008019999999N999999999-00111-00791999999REMSYN03001015 46/// /1508 11011 21079=
0039010150999992016010310004+69600+017833FM-12+001499999V0201501N007019999999N999999999-00141-00741999999REMSYN03001015 46/// /1507 11014 21074=
0039010150999992016010311004+69600+017833FM-12+001499999V0201501N007019999999N999999999-00141-00761999999REMSYN03001015 46/// /1507 11014 21076=
0049010150999992016010312004+69600+017833FM-12+001499999V020999999999999999999999999999+99999+99999999999REMSYN04001015 46/// /1508 11015 21081 333 91111=
0039010150999992016010313004+69600+017833FM-12+001499999V0201401N009019999999N999999999-00141-00761999999REMSYN03001015 46/// /1409 11014 21076=
0039010150999992016010314004+69600+017833FM-12+001499999V0201501N007019999999N999999999-00181-00881999999REMSYN03001015 46/// /1507 11018 21088=
0039010150999992016010315004+69600+017833FM-12+001499999V0201401N008019999999N999999999-00221-00921999999REMSYN03001015 46/// /1408 11022 21092=
0039010150999992016010316004+69600+017833FM-12+001499999V0201401N011019999999N999999999-00181-00921999999REMSYN03001015 46/// /1411 11018 21092=
0039010150999992016010317004+69600+017833FM-12+001499999V0201401N012019999999N999999999-00191-01001999999REMSYN03001015 46/// /1412 11019 21100=
0055010150999992016010318004+69600+017833FM-12+001499999V020999999999999999999999999999+99999+99999999999REMSYN04601015 46/// /1410 11022 21109 333 11002 91115=
0039010150999992016010319004+69600+017833FM-12+001499999V0201601N009019999999N999999999-00261-01181999999REMSYN03001015 46/// /1609 11026 21118=
0056010150999992016010320004+69601+017830FM-12+001499999V0201641N0092199999999999999999-00301-01221999999ADDKA1010M-00261KA2010N-00301OD130101331999REMSYN004BUFR
0039010150999992016010321004+69600+017833FM-12+001499999V0201601N010019999999N999999999-00311-01181999999REMSYN03001015 46/// /1610 11031 21118=
0039010150999992016010322004+69600+017833FM-12+001499999V0201601N010019999999N999999999-00281-01061999999REMSYN03001015 46/// /1610 11028 21106=
0056010150999992016010323004+69601+017830FM-12+001499999V0201591N0108199999999999999999-00251-01031999999ADDKA1010M-00241KA2010N-00281OD130101721999REMSYN004BUFR
0049010150999992016010400004+69600+017833FM-12+001499999V020999999999999999999999999999+99999+99999999999REMSYN04001015 46/// /1710 11024 21096 333 91117=
0039010150999992016010401004+69600+017833FM-12+001499999V0201601N009019999999N999999999-00201-01151999999REMSYN03001015 46/// /1609 11020 21115=
0039010150999992016010402004+69600+017833FM-12+001499999V0201601N009019999999N999999999-00261-01081999999REMSYN03001015 46/// /1609 11026 21108=
0039010150999992016010403004+69600+017833FM-12+001499999V0201601N008019999999N999999999-00281-01131999999REMSYN03001015 46/// /1608 11028 21113=
0039010150999992016010404004+69600+017833FM-12+001499999V0201401N012019999999N999999999-00361-00951999999REMSYN03001015 46/// /1412 11036 21095=
0039010150999992016010405004+69600+017833FM-12+001499999V0201401N013019999999N999999999-00371-01021999999REMSYN03001015 46/// /1413 11037 21102=
0055010150999992016010406004+69600+017833FM-12+001499999V020999999999999999999999999999+99999+99999999999REMSYN04601015 46/// /1414 11048 21118 333 21048 91119=
0039010150999992016010407004+69600+017833FM-12+001499999V0201401N015019999999N999999999-00531-01061999999REMSYN03001015 46/// /1415 11053 21106=
0039010150999992016010408004+69600+017833FM-12+001499999V0201601N007019999999N999999999-00541-01441999999REMSYN03001015 46/// /1607 11054 21144=
0039010150999992016010409004+69600+017833FM-12+001499999V0201701N008019999999N999999999-00591-01371999999REMSYN03001015 46/// /1708 11059 21137=
0039010150999992016010410004+69600+017833FM-12+001499999V0201601N008019999999N999999999-00661-01311999999REMSYN03001015 46/// /1608 11066 21131=
0039010150999992016010411004+69600+017833FM-12+001499999V0201601N007019999999N999999999-00661-01601999999REMSYN03001015 46/// /1607 11066 21160=
0049010150999992016010412004+69600+017833FM-12+001499999V020999999999999999999999999999+99999+99999999999REMSYN04001015 46/// /1509 11063 21141 333 91120=
0039010150999992016010413004+69600+017833FM-12+001499999V0201601N007019999999N999999999-00661-01581999999REMSYN03001015 46/// /1607 11066 21158=
0039010150999992016010414004+69600+017833FM-12+001499999V0201601N006019999999N999999999-00701-01451999999REMSYN03001015 46/// /1606 11070 21145=
0039010150999992016010415004+69600+017833FM-12+001499999V0201501N009019999999N999999999-00691-01511999999REMSYN03001015 46/// /1509 11069 21151=
0039010150999992016010416004+69600+017833FM-12+001499999V0201601N007019999999N999999999-00651-01341999999REMSYN03001015 46/// /1607 11065 21134=
0039010150999992016010417004+69600+017833FM-12+001499999V0201501N009019999999N999999999-00611-01251999999REMSYN03001015 46/// /1509 11061 21125=
0055010150999992016010418004+69600+017833FM-12+001499999V020999999999999999999999999999+99999+99999999999REMSYN04601015 46/// /1509 11063 21127 333 11044 91116=
0039010150999992016010419004+69600+017833FM-12+001499999V0201501N009019999999N999999999-00601-01431999999REMSYN03001015 46/// /1509 11060 21143=
0039010150999992016010420004+69600+017833FM-12+001499999V0201501N004019999999N999999999-00551-01451999999REMSYN03001015 46/// /1504 11055 21145=
0039010150999992016010421004+69600+017833FM-12+001499999V0201501N009019999999N999999999-00531-01591999999REMSYN03001015 46/// /1509 11053 21159=
0039010150999992016010422004+69600+017833FM-12+001499999V0201401N008019999999N999999999-00631-01551999999REMSYN03001015 46/// /1408 11063 21155=
0056010150999992016010423004+69601+017830FM-12+001499999V0201531N0060199999999999999999-00651-01431999999ADDKA1010M-00631KA2010N-00661OD130101021999REMSYN004BUFR
0049010150999992016010500004+69600+017833FM-12+001499999V020999999999999999999999999999+99999+99999999999REMSYN04001015 46/// /1508 11062 21149 333 91114=
0039010150999992016010501004+69600+017833FM-12+001499999V0201501N006019999999N999999999-00571-01471999999REMSYN03001015 46/// /1506 11057 21147=
0039010150999992016010502004+69600+017833FM-12+001499999V0201401N008019999999N999999999-00601-01431999999REMSYN03001015 46/// /1408 11060 21143=
0039010150999992016010503004+69600+017833FM-12+001499999V0201601N007019999999N999999999-00571-01521999999REMSYN03001015 46/// /1607 11057 21152=
0039010150999992016010504004+69600+017833FM-12+001499999V0201401N009019999999N999999999-00571-01421999999REMSYN03001015 46/// /1409 11057 21142=
0039010150999992016010505004+69600+017833FM-12+001499999V0201401N010019999999N999999999-00581-01381999999REMSYN03001015 46/// /1410 11058 21138=
0055010150999992016010506004+69600+017833FM-12+001499999V020999999999999999999999999999+99999+99999999999REMSYN04601015 46/// /1606 11060 21143 333 21067 91112=
0039010150999992016010507004+69600+017833FM-12+001499999V0201501N008019999999N999999999-00581-01341999999REMSYN03001015 46/// /1508 11058 21134=
0039010150999992016010508004+69600+017833FM-12+001499999V0201701N006019999999N999999999-00611-01371999999REMSYN03001015 46/// /1706 11061 21137=
0039010150999992016010509004+69600+017833FM-12+001499999V0201701N006019999999N999999999-00581-01381999999REMSYN03001015 46/// /1706 11058 21138=
0039010150999992016010510004+69600+017833FM-12+001499999V0201401N007019999999N999999999-00551-01431999999REMSYN03001015 46/// /1407 11055 21143=
0039010150999992016010511004+69600+017833FM-12+001499999V0201501N008019999999N999999999-00571-01471999999REMSYN03001015 46/// /1508 11057 21147=
0049010150999992016010512004+69600+017833FM-12+001499999V020999999999999999999999999999+99999+99999999999REMSYN04001015 46/// /1508 11056 21146 333 91111=
0039010150999992016010513004+69600+017833FM-12+001499999V0201601N007019999999N999999999-00551-01471999999REMSYN03001015 46/// /1607 11055 21147=
0039010150999992016010514004+69600+017833FM-12+001499999V0201401N009019999999N999999999-00561-01481999999REMSYN03001015 46/// /1409 11056 21148=
0039010150999992016010515004+69600+017833FM-12+001499999V0201601N007019999999N999999999-00541-01741999999REMSYN03001015 46/// /1607 11054 21174=
0039010150999992016010516004+69600+017833FM-12+001499999V0201401N008019999999N999999999-00561-01431999999REMSYN03001015 46/// /1408 11056 21143=
0039010150999992016010517004+69600+017833FM-12+001499999V0201401N008019999999N999999999-00541-01461999999REMSYN03001015 46/// /1408 11054 21146=
0055010150999992016010518004+69600+017833FM-12+001499999V020999999999999999999999999999+99999+99999999999REMSYN04601015 46/// /1407 11051 21132 333 11051 91110=
0039010150999992016010519004+69600+017833FM-12+001499999V0201401N009019999999N999999999-00531-01361999999REMSYN03001015 46/// /1409 11053 21136=
0039010150999992016010520004+69600+017833FM-12+001499999V0201501N008019999999N999999999-00561-01391999999REMSYN03001015 46/// /1508 11056 21139=
0039010150999992016010521004+69600+017833FM-12+001499999V0201401N008019999999N999999999-00561-01481999999REMSYN03001015 46/// /1408 11056 21148=
0039010150999992016010522004+69600+017833FM-12+001499999V0201501N008019999999N999999999-00591-01421999999REMSYN03001015 46/// /1508 11059 21142=
0039010150999992016010523004+69600+017833FM-12+001499999V0201701N006019999999N999999999-00601-01401999999REMSYN03001015 46/// /1706 11060 21140=
0049010150999992016010600004+69600+017833FM-12+001499999V020999999999999999999999999999+99999+99999999999REMSYN04001015 46/// /1706 11059 21159 333 91111=
0039010150999992016010601004+69600+017833FM-12+001499999V0201501N006019999999N999999999-00601-01501999999REMSYN03001015 46/// /1506 11060 21150=
0039010150999992016010602004+69600+017833FM-12+001499999V0201601N007019999999N999999999-00621-01511999999REMSYN03001015 46/// /1607 11062 21151=
0039010150999992016010603004+69600+017833FM-12+001499999V0201601N007019999999N999999999-00631-01551999999REMSYN03001015 46/// /1607 11063 21155=
0039010150999992016010604004+69600+017833FM-12+001499999V0201601N006019999999N999999999-00661-01531999999REMSYN03001015 46/// /1606 11066 21153=
0039010150999992016010605004+69600+017833FM-12+001499999V0201601N005019999999N999999999-00681-01391999999REMSYN03001015 46/// /1605 11068 21139=
0055010150999992016010606004+69600+017833FM-12+001499999V020999999999999999999999999999+99999+99999999999REMSYN04601015 46/// /1606 11071 21148 333 21071 91111=
0039010150999992016010607004+69600+017833FM-12+001499999V0201501N008019999999N999999999-00741-01451999999REMSYN03001015 46/// /1508 11074 21145=
0039010150999992016010608004+69600+017833FM-12+001499999V0201501N009019999999N999999999-00751-01421999999REMSYN03001015 46/// /1509 11075 21142=
0039010150999992016010609004+69600+017833FM-12+001499999V0201401N010019999999N999999999-00761-01391999999REMSYN03001015 46/// /1410 11076 21139=
0039010150999992016010610004+69600+017833FM-12+001499999V0201501N008019999999N999999999-00801-01431999999REMSYN03001015 46/// /1508 11080 21143=
0039010150999992016010611004+69600+017833FM-12+001499999V0201401N009019999999N999999999-00801-01391999999REMSYN03001015 46/// /1409 11080 21139=
0049010150999992016010612004+69600+017833FM-12+001499999V020999999999999999999999999999+99999+99999999999REMSYN04001015 46/// /1509 11085 21148 333 91111=
0039010150999992016010613004+69600+017833FM-12+001499999V0201401N010019999999N999999999-00881-01411999999REMSYN03001015 46/// /1410 11088 21141=
0039010150999992016010614004+69600+017833FM-12+001499999V0201501N010019999999N999999999-00941-01471999999REMSYN03001015 46/// /1510 11094 21147=
0039010150999992016010615004+69600+017833FM-12+001499999V0201401N011019999999N999999999-00941-01401999999REMSYN03001015 46/// /1411 11094 21140=
0039010150999992016010616004+69600+017833FM-12+001499999V0201401N011019999999N999999999-01001-01481999999REMSYN03001015 46/// /1411 11100 21148=
0039010150999992016010617004+69600+017833FM-12+001499999V0201401N010019999999N999999999-01031-01491999999REMSYN03001015 46/// /1410 11103 21149=
0055010150999992016010618004+69600+017833FM-12+001499999V020999999999999999999999999999+99999+99999999999REMSYN04601015 46/// /1411 11105 21152 333 11071 91114=
0039010150999992016010619004+69600+017833FM-12+001499999V0201401N011019999999N999999999-01061-01521999999REMSYN03001015 46/// /1411 11106 21152=
0039010150999992016010620004+69600+017833FM-12+001499999V0201401N010019999999N999999999-01061-01521999999REMSYN03001015 46/// /1410 11106 21152=
0039010150999992016010621004+69600+017833FM-12+001499999V0201401N011019999999N999999999-01081-01521999999REMSYN03001015 46/// /1411 11108 21152=
0039010150999992016010622004+69600+017833FM-12+001499999V0201401N010019999999N999999999-01101-01521999999REMSYN03001015 46/// /1410 11110 21152=
0056010150999992016010623004+69601+017830FM-12+001499999V0201371N0095199999999999999999-01071-01461999999ADDKA1010M-01041KA2010N-01101OD130101211999REMSYN004BUFR
0049010150999992016010700004+69600+017833FM-12+001499999V020999999999999999999999999999+99999+99999999999REMSYN04001015 46/// /1410 11113 21151 333 91113=
0039010150999992016010701004+69600+017833FM-12+001499999V0201401N010019999999N999999999-01131-01461999999REMSYN03001015 46/// /1410 11113 21146=
0039010150999992016010702004+69600+017833FM-12+001499999V0201501N009019999999N999999999-01161-01521999999REMSYN03001015 46/// /1509 11116 21152=
0039010150999992016010703004+69600+017833FM-12+001499999V0201501N009019999999N999999999-01211-01581999999REMSYN03001015 46/// /1509 11121 21158=
0039010150999992016010704004+69600+017833FM-12+001499999V0201601N007019999999N999999999-01221-01591999999REMSYN03001015 46/// /1607 11122 21159=
0039010150999992016010705004+69600+017833FM-12+001499999V0201501N009019999999N999999999-01231-01601999999REMSYN03001015 46/// /1509 11123 21160=
0055010150999992016010706004+69600+017833FM-12+001499999V020999999999999999999999999999+99999+99999999999REMSYN04601015 46/// /1508 11122 21161 333 21124 91112=
0039010150999992016010707004+69600+017833FM-12+001499999V0201501N008019999999N999999999-01241-01631999999REMSYN03001015 46/// /1508 11124 21163=
0039010150999992016010708004+69600+017833FM-12+001499999V0201501N008019999999N999999999-01261-01651999999REMSYN03001015 46/// /1508 11126 21165=
0039010150999992016010709004+69600+017833FM-12+001499999V0201701N009019999999N999999999-01311-01781999999REMSYN03001015 46/// /1709 11131 21178=
0039010150999992016010710004+69600+017833FM-12+001499999V0201501N008019999999N999999999-01261-01651999999REMSYN03001015 46/// /1508 11126 21165=
0039010150999992016010711004+69600+017833FM-12+001499999V0201501N008019999999N999999999-01301-01801999999REMSYN03001015 46/// /1508 11130 21180=
0049010150999992016010712004+69600+017833FM-12+001499999V020999999999999999999999999999+99999+99999999999REMSYN04001015 46/// /1607 11132 21187 333 91113=
0039010150999992016010713004+69600+017833FM-12+001499999V0201501N009019999999N999999999-01321-01821999999REMSYN03001015 46/// /1509 11132 21182=
0039010150999992016010714004+69600+017833FM-12+001499999V0201601N009019999999N999999999-01321-01851999999REMSYN03001015 46/// /1609 11132 21185=
0039010150999992016010715004+69600+017833FM-12+001499999V0201501N008019999999N999999999-01271-01801999999REMSYN03001015 46/// /1508 11127 21180=
0039010150999992016010716004+69600+017833FM-12+001499999V0201501N009019999999N999999999-01291-01911999999REMSYN03001015 46/// /1509 11129 21191=
0039010150999992016010717004+69600+017833FM-12+001499999V0201601N007019999999N999999999-01281-01801999999REMSYN03001015 46/// /1607 11128 21180=
0055010150999992016010718004+69600+017833FM-12+001499999V020999999999999999999999999999+99999+99999999999REMSYN04601015 46/// /1507 11125 21180 333 11121 91113=
0039010150999992016010719004+69600+017833FM-12+001499999V0201701N006019999999N999999999-01251-01881999999REMSYN03001015 46/// /1706 11125 21188=
0039010150999992016010720004+69600+017833FM-12+001499999V0201501N007019999999N999999999-01181-01741999999REMSYN03001015 46/// /1507 11118 21174=
0039010150999992016010721004+69600+017833FM-12+001499999V0201701N006019999999N999999999-01211-01681999999REMSYN03001015 46/// /1706 11121 21168=
0039010150999992016010722004+69600+017833FM-12+001499999V0201601N006019999999N999999999-01181-01811999999REMSYN03001015 46/// /1606 11118 21181=
0039010150999992016010723004+69600+017833FM-12+001499999V0201601N005019999999N999999999-01141-01701999999REMSYN03001015 46/// /1605 11114 21170=
0049010150999992016010800004+69600+017833FM-12+001499999V020999999999999999999999999999+99999+99999999999REMSYN04001015 46/// /1507 11111 21155 333 91111=
0039010150999992016010801004+69600+017833FM-12+001499999V0201501N008019999999N999999999-01111-01601999999REMSYN03001015 46/// /1508 11111 21160=
0039010150999992016010802004+69600+017833FM-12+001499999V0201601N006019999999N999999999-01091-01611999999REMSYN03001015 46/// /1606 11109 21161=
0039010150999992016010803004+69600+017833FM-12+001499999V0201701N007019999999N999999999-01081-01491999999REMSYN03001015 46/// /1707 11108 21149=
0039010150999992016010804004+69600+017833FM-12+001499999V0201501N008019999999N999999999-01061-01601999999REMSYN03001015 46/// /1508 11106 21160=
0039010150999992016010805004+69600+017833FM-12+001499999V0201401N008019999999N999999999-01041-01401999999REMSYN03001015 46/// /1408 11104 21140=
0056010150999992016010806004+69601+017830FM-12+001499999V0201411N0077199999999999999999-01021-01291999999ADDKA1120M-01011KA2120N-01261OD130601021999REMSYN004BUFR
0039010150999992016010807004+69600+017833FM-12+001499999V0201401N007019999999N999999999-01001-01241999999REMSYN03001015 46/// /1407 11100 21124=
0039010150999992016010808004+69600+017833FM-12+001499999V0201501N005019999999N999999999-00961-01241999999REMSYN03001015 46/// /1505 11096 21124=
0039010150999992016010809004+69600+017833FM-12+001499999V0201501N003019999999N999999999-00861-01201999999REMSYN03001015 46/// /1503 11086 21120=
0039010150999992016010810004+69600+017833FM-12+001499999V0201401N006019999999N999999999-00901-01041999999REMSYN03001015 46/// /1406 11090 21104=
0039010150999992016010811004+69600+017833FM-12+001499999V0201401N006019999999N999999999-00891-01031999999REMSYN03001015 46/// /1406 11089 21103=
0049010150999992016010812004+69600+017833FM-12+001499999V020999999999999999999999999999+99999+99999999999REMSYN04001015 46/// /1406 11087 21100 333 91109=
0039010150999992016010813004+69600+017833FM-12+001499999V0201401N004019999999N999999999-00821-00941999999REMSYN03001015 46/// /1404 11082 21094=
0039010150999992016010814004+69600+017833FM-12+001499999V0201301N004019999999N999999999-00751-00871999999REMSYN03001015 46/// /1304 11075 21087=
0039010150999992016010815004+69600+017833FM-12+001499999V0201401N003019999999N999999999-00711-00821999999REMSYN03001015 46/// /1403 11071 21082=
0039010150999992016010816004+69600+017833FM-12+001499999V0201301N005019999999N999999999-00691-00791999999REMSYN03001015 46/// /1305 11069 21079=
0039010150999992016010817004+69600+017833FM-12+001499999V0201301N004019999999N999999999-00651-00731999999REMSYN03001015 46/// /1304 11065 21073=
0055010150999992016010818004+69600+017833FM-12+001499999V020999999999999999999999999999+99999+99999999999REMSYN04601015 46/// /1404 11062 21073 333 11061 91106=
0039010150999992016010819004+69600+017833FM-12+001499999V0201401N005019999999N999999999-00581-00691999999REMSYN03001015 46/// /1405 11058 21069=
0039010150999992016010820004+69600+017833FM-12+001499999V0201401N005019999999N999999999-00541-00661999999REMSYN03001015 46/// /1405 11054 21066=
0039010150999992016010821004+69600+017833FM-12+001499999V0201501N002019999999N999999999-00461-00601999999REMSYN03001015 46/// /1502 11046 21060=
0039010150999992016010822004+69600+017833FM-12+001499999V0201401N004019999999N999999999-00451-00591999999REMSYN03001015 46/// /1404 11045 21059=
0039010150999992016010823004+69600+017833FM-12+001499999V0201301N005019999999N999999999-00411-00591999999REMSYN03001015 46/// /1305 11041 21059=
0049010150999992016010900004+69600+017833FM-12+001499999V020999999999999999999999999999+99999+99999999999REMSYN04001015 46/// /1404 11042 21062 333 91107=
0056010150999992016010901004+69601+017830FM-12+001499999V0201421N0041199999999999999999-00371-00601999999ADDKA1010M-00371KA2010N-00421OD130100611999REMSYN004BUFR
0039010150999992016010902004+69600+017833FM-12+001499999V0201401N005019999999N999999999-00361-00551999999REMSYN03001015 46/// /1405 11036 21055=
0039010150999992016010903004+69600+017833FM-12+001499999V0201401N005019999999N999999999-00351-00531999999REMSYN03001015 46/// /1405 11035 21053=
0039010150999992016010904004+69600+017833FM-12+001499999V0201301N005019999999N999999999-00311-00521999999REMSYN03001015 46/// /1305 11031 21052=
0039010150999992016010905004+69600+017833FM-12+001499999V0201301N004019999999N999999999-00271-00501999999REMSYN03001015 46/// /1304 11027 21050=
0055010150999992016010906004+69600+017833FM-12+001499999V020999999999999999999999999999+99999+99999999999REMSYN04601015 46/// /1405 11024 21049 333 21063 91108=
0039010150999992016010907004+69600+017833FM-12+001499999V0201301N005019999999N999999999-00251-00511999999REMSYN03001015 46/// /1305 11025 21051=
0039010150999992016010908004+69600+017833FM-12+001499999V0201401N005019999999N999999999-00301-00491999999REMSYN03001015 46/// /1405 11030 21049=
0039010150999992016010909004+69600+017833FM-12+001499999V0201401N006019999999N999999999-00271-00501999999REMSYN03001015 46/// /1406 11027 21050=
0039010150999992016010910004+69600+017833FM-12+001499999V0201501N005019999999N999999999-00271-00461999999REMSYN03001015 46/// /1505 11027 21046=
0039010150999992016010911004+69600+017833FM-12+001499999V0201401N005019999999N999999999-00271-00431999999REMSYN03001015 46/// /1405 11027 21043=
0049010150999992016010912004+69600+017833FM-12+001499999V020999999999999999999999999999+99999+99999999999REMSYN04001015 46/// /1305 11024 21038 333 91109=
0039010150999992016010913004+69600+017833FM-12+001499999V0201401N004019999999N999999999-00241-00421999999REMSYN03001015 46/// /1404 11024 21042=
0039010150999992016010914004+69600+017833FM-12+001499999V0201501N003019999999N999999999-00231-00461999999REMSYN03001015 46/// /1503 11023 21046=
0039010150999992016010915004+69600+017833FM-12+001499999V0201401N006019999999N999999999-00251-00411999999REMSYN03001015 46/// /1406 11025 21041=
0039010150999992016010916004+69600+017833FM-12+001499999V0201401N006019999999N999999999-00211-00451999999REMSYN03001015 46/// /1406 11021 21045=
0039010150999992016010917004+69600+017833FM-12+001499999V0201301N006019999999N999999999-00251-00411999999REMSYN03001015 46/// /1306 11025 21041=
0055010150999992016010918004+69600+017833FM-12+001499999V020999999999999999999999999999+99999+99999999999REMSYN04601015 46/// /1306 11028 21038 333 11011 91109=
0039010150999992016010919004+69600+017833FM-12+001499999V0201501N005019999999N999999999-00251-00371999999REMSYN03001015 46/// /1505 11025 21037=
0039010150999992016010920004+69600+017833FM-12+001499999V0201401N005019999999N999999999-00201-00381999999REMSYN03001015 46/// /1405 11020 21038=
0039010150999992016010921004+69600+017833FM-12+001499999V0201301N001019999999N999999999-00191-00501999999REMSYN03001015 46/// /1301 11019 21050=
0039010150999992016010922004+69600+017833FM-12+001499999V0202701N002019999999N999999999-00121-00531999999REMSYN03001015 46/// /2702 11012 21053=
0039010150999992016010923004+69600+017833FM-12+001499999V0201401N005019999999N999999999-00171-00451999999REMSYN03001015 46/// /1405 11017 21045=
0049010150999992016011000004+69600+017833FM-12+001499999V020999999999999999999999999999+99999+99999999999REMSYN04001015 46/// /1604 11021 21052 333 91109=
0039010150999992016011001004+69600+017833FM-12+001499999V0201501N005019999999N999999999-00211-00551999999REMSYN03001015 46/// /1505 11021 21055=
0039010150999992016011002004+69600+017833FM-12+001499999V0201501N006019999999N999999999-00201-00601999999REMSYN03001015 46/// /1506 11020 21060=
0039010150999992016011003004+69600+017833FM-12+001499999V0201401N005019999999N999999999-00221-00611999999REMSYN03001015 46/// /1405 11022 21061=
0039010150999992016011004004+69600+017833FM-12+001499999V0201501N005019999999N999999999-00201-00601999999REMSYN03001015 46/// /1505 11020 21060=
0039010150999992016011005004+69600+017833FM-12+001499999V0201301N006019999999N999999999-00201-00561999999REMSYN03001015 46/// /1306 11020 21056=
0055010150999992016011006004+69600+017833FM-12+001499999V020999999999999999999999999999+99999+99999999999REMSYN04601015 46/// /1406 11024 21066 333 21028 91108=
0039010150999992016011007004+69600+017833FM-12+001499999V0201401N007019999999N999999999-00281-00671999999REMSYN03001015 46/// /1407 11028 21067=
0039010150999992016011008004+69600+017833FM-12+001499999V0201401N007019999999N999999999-00291-00711999999REMSYN03001015 46/// /1407 11029 21071=
0039010150999992016011009004+69600+017833FM-12+001499999V0201401N006019999999N999999999-00301-00681999999REMSYN03001015 46/// /1406 11030 21068=
0039010150999992016011010004+69600+017833FM-12+001499999V0201401N007019999999N999999999-00301-00701999999REMSYN03001015 46/// /1407 11030 21070=
0039010150999992016011011004+69600+017833FM-12+001499999V0201401N007019999999N999999999-00331-00701999999REMSYN03001015 46/// /1407 11033 21070=
0049010150999992016011012004+69600+017833FM-12+001499999V020999999999999999999999999999+99999+99999999999REMSYN04001015 46/// /1508 11032 21070 333 91112=
0039010150999992016011013004+69600+017833FM-12+001499999V0201401N008019999999N999999999-00321-00721999999REMSYN03001015 46/// /1408 11032 21072=
0039010150999992016011014004+69600+017833FM-12+001499999V0201401N008019999999N999999999-00311-00681999999REMSYN03001015 46/// /1408 11031 21068=
0039010150999992016011015004+69600+017833FM-12+001499999V0201501N008019999999N999999999-00341-00711999999REMSYN03001015 46/// /1508 11034 21071=
0039010150999992016011016004+69600+017833FM-12+001499999V0201501N007019999999N999999999-00311-00811999999REMSYN03001015 46/// /1507 11031 21081=
0039010150999992016011017004+69600+017833FM-12+001499999V0201401N008019999999N999999999-00371-00771999999REMSYN03001015 46/// /1408 11037 21077=
0055010150999992016011018004+69600+017833FM-12+001499999V020999999999999999999999999999+99999+99999999999REMSYN04601015 46/// /1407 11037 21087 333 11024 91111=
0039010150999992016011019004+69600+017833FM-12+001499999V0201501N008019999999N999999999-00331-00961999999REMSYN03001015 46/// /1508 11033 21096=
0039010150999992016011020004+69600+017833FM-12+001499999V0201401N008019999999N999999999-00341-00711999999REMSYN03001015 46/// /1408 11034 21071=
0039010150999992016011021004+69600+017833FM-12+001499999V0201401N009019999999N999999999-00351-00701999999REMSYN03001015 46/// /1409 11035 21070=
0039010150999992016011022004+69600+017833FM-12+001499999V0201401N008019999999N999999999-00361-00711999999REMSYN03001015 46/// /1408 11036 21071=
0039010150999992016011023004+69600+017833FM-12+001499999V0201401N008019999999N999999999-00371-00621999999REMSYN03001015 46/// /1408 11037 21062=
0049010150999992016011100004+69600+017833FM-12+001499999V020999999999999999999999999999+99999+99999999999REMSYN04001015 46/// /1408 11037 21065 333 91111=
0039010150999992016011101004+69600+017833FM-12+001499999V0201401N009019999999N999999999-00371-00591999999REMSYN03001015 46/// /1409 11037 21059=
0039010150999992016011102004+69600+017833FM-12+001499999V0201601N006019999999N999999999-00411-00591999999REMSYN03001015 46/// /1606 11041 21059=
0039010150999992016011103004+69600+017833FM-12+001499999V0201701N005019999999N999999999-00411-00631999999REMSYN03001015 46/// /1705 11041 21063=
0039010150999992016011104004+69600+017833FM-12+001499999V0201601N006019999999N999999999-00401-00751999999REMSYN03001015 46/// /1606 11040 21075=
0039010150999992016011105004+69600+017833FM-12+001499999V0201601N006019999999N999999999-00411-00841999999REMSYN03001015 46/// /1606 11041 21084=
0055010150999992016011106004+69600+017833FM-12+001499999V020999999999999999999999999999+99999+99999999999REMSYN04601015 46/// /1606 11042 21083 333 21043 91111=
0039010150999992016011107004+69600+017833FM-12+001499999V0201501N008019999999N999999999-00421-00881999999REMSYN03001015 46/// /1508 11042 21088=
0039010150999992016011108004+69600+017833FM-12+001499999V0201601N007019999999N999999999-00431-00911999999REMSYN03001015 46/// /1607 11043 21091=
0056010150999992016011109004+69601+017830FM-12+001499999V0201681N0055199999999999999999-00441-00901999999ADDKA1010M-00431KA2010N-00481OD130101001999REMSYN004BUFR
0039010150999992016011110004+69600+017833FM-12+001499999V0201701N005019999999N999999999-00471-00981999999REMSYN03001015 46/// /1705 11047 21098=
0039010150999992016011111004+69600+017833FM-12+001499999V0201601N007019999999N999999999-00491-01041999999REMSYN03001015 46/// /1607 11049 21104=
0049010150999992016011112004+69600+017833FM-12+001499999V020999999999999999999999999999+99999+99999999999REMSYN04001015 46/// /1609 11051 21109 333 91115=
0039010150999992016011113004+69600+017833FM-12+001499999V0201601N008019999999N999999999-00531-01171999999REMSYN03001015 46/// /1608 11053 21117=
0056010150999992016011114004+69601+017830FM-12+001499999V0201561N0095199999999999999999-00571-01151999999ADDKA1010M-00501KA2010N-00571OD130101391999REMSYN004BUFR
0039010150999992016011115004+69600+017833FM-12+001499999V0201601N011019999999N999999999-00601-01181999999REMSYN03001015 46/// /1611 11060 21118=
0039010150999992016011116004+69600+017833FM-12+001499999V0201601N009019999999N999999999-00631-01171999999REMSYN03001015 46/// /1609 11063 21117=
0039010150999992016011117004+69600+017833FM-12+001499999V0201501N010019999999N999999999-00631-01151999999REMSYN03001015 46/// /1510 11063 21115=
0055010150999992016011118004+69600+017833FM-12+001499999V020999999999999999999999999999+99999+99999999999REMSYN04601015 46/// /1513 11061 21112 333 11040 91118=
0039010150999992016011119004+69600+017833FM-12+001499999V0201401N013019999999N999999999-00561-01071999999REMSYN03001015 46/// /1413 11056 21107=
0039010150999992016011120004+69600+017833FM-12+001499999V0201401N014019999999N999999999-00611-01121999999REMSYN03001015 46/// /1414 11061 21112=
0039010150999992016011121004+69600+017833FM-12+001499999V0201601N011019999999N999999999-00641-01181999999REMSYN03001015 46/// /1611 11064 21118=
0039010150999992016011122004+69600+017833FM-12+001499999V0201501N011019999999N999999999-00631-01251999999REMSYN03001015 46/// /1511 11063 21125=
0039010150999992016011123004+69600+017833FM-12+001499999V0201701N010019999999N999999999-00641-01291999999REMSYN03001015 46/// /1710 11064 21129=
0049010150999992016011200004+69600+017833FM-12+001499999V020999999999999999999999999999+99999+99999999999REMSYN04001015 46/// /1609 11061 21121 333 91118=
0039010150999992016011201004+69600+017833FM-12+001499999V0201501N009019999999N999999999-00591-01151999999REMSYN03001015 46/// /1509 11059 21115=
0039010150999992016011202004+69600+017833FM-12+001499999V0201601N010019999999N999999999-00591-01151999999REMSYN03001015 46/// /1610 11059 21115=
0039010150999992016011203004+69600+017833FM-12+001499999V0201501N008019999999N999999999-00581-01121999999REMSYN03001015 46/// /1508 11058 21112=
0039010150999992016011204004+69600+017833FM-12+001499999V0201301N011019999999N999999999-00501-01071999999REMSYN03001015 46/// /1311 11050 21107=
0039010150999992016011205004+69600+017833FM-12+001499999V0201301N011019999999N999999999-00461-00991999999REMSYN03001015 46/// /1311 11046 21099=
0055010150999992016011206004+69600+017833FM-12+001499999V020999999999999999999999999999+99999+99999999999REMSYN04601015 46/// /1311 11048 21108 333 21066 91115=
0039010150999992016011207004+69600+017833FM-12+001499999V0201301N010019999999N999999999-00491-01111999999REMSYN03001015 46/// /1310 11049 21111=
0039010150999992016011208004+69600+017833FM-12+001499999V0201301N011019999999N999999999-00501-01201999999REMSYN03001015 46/// /1311 11050 21120=
0039010150999992016011209004+69600+017833FM-12+001499999V0201401N011019999999N999999999-00511-01131999999REMSYN03001015 46/// /1411 11051 21113=
0056010150999992016011210004+69601+017830FM-12+001499999V0201351N0115199999999999999999-00521-01231999999ADDKA1010M-00491KA2010N-00541OD130101521999REMSYN004BUFR
0039010150999992016011211004+69600+017833FM-12+001499999V0201401N011019999999N999999999-00521-01141999999REMSYN03001015 46/// /1411 11052 21114=
0056010150999992016011212004+69601+017830FM-12+001499999V0201391N0130199999999999999999-00521-01071999999ADDKA1010M-00511KA2010N-00551OD130601581999REMSYN004BUFR
0039010150999992016011213004+69600+017833FM-12+001499999V0201401N012019999999N999999999-00541-01121999999REMSYN03001015 46/// /1412 11054 21112=
0039010150999992016011214004+69600+017833FM-12+001499999V0201301N010019999999N999999999-00511-01041999999REMSYN03001015 46/// /1310 11051 21104=
0039010150999992016011215004+69600+017833FM-12+001499999V0201301N010019999999N999999999-00541-01101999999REMSYN03001015 46/// /1310 11054 21110=
0056010150999992016011216004+69601+017830FM-12+001499999V0201391N0096199999999999999999-00571-01171999999ADDKA1010M-00511KA2010N-00571OD130101291999REMSYN004BUFR
0056010150999992016011217004+69601+017830FM-12+001499999V0201671N0069199999999999999999-00601-01191999999ADDKA1010M-00541KA2010N-00621OD130101151999REMSYN004BUFR
0056010150999992016011218004+69601+017830FM-12+001499999V0201561N0072199999999999999999-00601-01191999999ADDKA1120M-00441KA2120N-00641OD130601581999REMSYN004BUFR
0056010150999992016011219004+69601+017830FM-12+001499999V0201571N0066199999999999999999-00641-01241999999ADDKA1010M-00561KA2010N-00641OD130101081999REMSYN004BUFR
0039010150999992016011220004+69600+017833FM-12+001499999V0201401N008019999999N999999999-00621-01181999999REMSYN03001015 46/// /1408 11062 21118=
0039010150999992016011221004+69600+017833FM-12+001499999V0201501N008019999999N999999999-00631-01211999999REMSYN03001015 46/// /1508 11063 21121=
0056010150999992016011222004+69601+017830FM-12+001499999V0201421N0106199999999999999999-00621-01271999999ADDKA1010M-00561KA2010N-00661OD130101411999REMSYN004BUFR
0039010150999992016011223004+69600+017833FM-12+001499999V0201501N009019999999N999999999-00671-01381999999REMSYN03001015 46/// /1509 11067 21138=
0056010150999992016011300004+69601+017830FM-12+001499999V0201471N0104199999999999999999-00651-01371999999ADDKA1010M-00601KA2010N-00691OD130601481999REMSYN004BUFR
0039010150999992016011301004+69600+017833FM-12+001499999V0201501N010019999999N999999999-00681-01351999999REMSYN03001015 46/// /1510 11068 21135=
0056010150999992016011302004+69601+017830FM-12+001499999V0201481N0107199999999999999999-00671-01411999999ADDKA1010M-00671KA2010N-00701OD130101341999REMSYN004BUFR
0039010150999992016011303004+69600+017833FM-12+001499999V0201401N011019999999N999999999-00681-01351999999REMSYN03001015 46/// /1411 11068 21135=
0056010150999992016011304004+69601+017830FM-12+001499999V0201371N0095199999999999999999-00651-01321999999ADDKA1010M-00621KA2010N-00711OD130101411999REMSYN004BUFR
0056010150999992016011305004+69601+017830FM-12+001499999V0201341N0103199999999999999999-00671-01361999999ADDKA1010M-00641KA2010N-00711OD130101311999REMSYN004BUFR
0056010150999992016011306004+69601+017830FM-12+001499999V0201461N0091199999999999999999-00691-01301999999ADDKA1120M-00561KA2120N-00711OD130601411999REMSYN004BUFR
0056010150999992016011307004+69601+017830FM-12+001499999V0201341N0096199999999999999999-00651-01241999999ADDKA1010M-00651KA2010N-00711OD130101261999REMSYN004BUFR
0056010150999992016011308004+69601+017830FM-12+001499999V0201381N0093199999999999999999-00701-01261999999ADDKA1010M-00661KA2010N-00721OD130101251999REMSYN004BUFR
0039010150999992016011309004+69600+017833FM-12+001499999V0201301N009019999999N999999999-00691-01281999999REMSYN03001015 46/// /1309 11069 21128=
0056010150999992016011310004+69601+017830FM-12+001499999V0201491N0085199999999999999999-00701-01361999999ADDKA1010M-00661KA2010N-00711OD130101201999REMSYN004BUFR
0056010150999992016011311004+69601+017830FM-12+001499999V0201651N0064199999999999999999-00741-01351999999ADDKA1010M-00711KA2010N-00741OD130101131999REMSYN004BUFR
0049010150999992016011312004+69600+017833FM-12+001499999V020999999999999999999999999999+99999+99999999999REMSYN04001015 46/// /1507 11074 21139 333 91113=
0039010150999992016011313004+69600+017833FM-12+001499999V0201401N009019999999N999999999-00721-01411999999REMSYN03001015 46/// /1409 11072 21141=
0039010150999992016011314004+69600+017833FM-12+001499999V0201401N009019999999N999999999-00671-01251999999REMSYN03001015 46/// /1409 11067 21125=
0056010150999992016011315004+69601+017830FM-12+001499999V0201431N0086199999999999999999-00701-01301999999ADDKA1010M-00671KA2010N-00721OD130101151999REMSYN004BUFR
0056010150999992016011316004+69601+017830FM-12+001499999V0201671N0035199999999999999999-00721-01351999999ADDKA1010M-00671KA2010N-00721OD130100981999REMSYN004BUFR
0039010150999992016011317004+69600+017833FM-12+001499999V0201501N008019999999N999999999-00661-01371999999REMSYN03001015 46/// /1508 11066 21137=
0055010150999992016011318004+69600+017833FM-12+001499999V020999999999999999999999999999+99999+99999999999REMSYN04601015 46/// /1411 11062 21132 333 11060 91114=
0056010150999992016011319004+69601+017830FM-12+001499999V0201371N0089199999999999999999-00621-01321999999ADDKA1010M-00611KA2010N-00681OD130101141999REMSYN004BUFR
0056010150999992016011320004+69601+017830FM-12+001499999V0201511N0064199999999999999999-00651-01261999999ADDKA1010M-00591KA2010N-00651OD130101111999REMSYN004BUFR
0056010150999992016011321004+69601+017830FM-12+001499999V0201641N0041199999999999999999-00651-01171999999ADDKA1010M-00621KA2010N-00671OD130100961999REMSYN004BUFR
0039010150999992016011322004+69600+017833FM-12+001499999V0201601N003019999999N999999999-00681-01191999999REMSYN03001015 46/// /1603 11068 21119=
0056010150999992016011323004+69601+017830FM-12+001499999V0201521N0074199999999999999999-00651-01081999999ADDKA1010M-00651KA2010N-00701OD130100941999REMSYN004BUFR
0056010150999992016011400004+69601+017830FM-12+001499999V0201451N0081199999999999999999-00641-01161999999ADDKA1010M-00641KA2010N-00671OD130601141999REMSYN004BUFR
0056010150999992016011401004+69601+017830FM-12+001499999V0201501N0070199999999999999999-00671-01111999999ADDKA1010M-00631KA2010N-00681OD130101041999REMSYN004BUFR
0039010150999992016011402004+69600+017833FM-12+001499999V0201501N008019999999N999999999-00671-01091999999REMSYN03001015 46/// /1508 11067 21109=
0039010150999992016011403004+69600+017833FM-12+001499999V0201501N007019999999N999999999-00661-01021999999REMSYN03001015 46/// /1507 11066 21102=
0039010150999992016011404004+69600+017833FM-12+001499999V0201401N007019999999N999999999-00671-01081999999REMSYN03001015 46/// /1407 11067 21108=
0056010150999992016011405004+69601+017830FM-12+001499999V0201441N0083199999999999999999-00671-01061999999ADDKA1010M-00651KA2010N-00681OD130101031999REMSYN004BUFR
0056010150999992016011406004+69601+017830FM-12+001499999V0201431N0077199999999999999999-00701-01061999999ADDKA1120M-00591KA2120N-00701OD130601041999REMSYN004BUFR
0056010150999992016011407004+69601+017830FM-12+001499999V0201431N0073199999999999999999-00691-01001999999ADDKA1010M-00681KA2010N-00711OD130100991999REMSYN004BUFR
0056010150999992016011408004+69601+017830FM-12+001499999V0201461N0076199999999999999999-00721-01061999999ADDKA1010M-00681KA2010N-00721OD130100941999REMSYN004BUFR
0039010150999992016011409004+69600+017833FM-12+001499999V0201401N008019999999N999999999-00691-01001999999REMSYN03001015 46/// /1408 11069 21100=
0039010150999992016011410004+69600+017833FM-12+001499999V0201401N007019999999N999999999-00711-01011999999REMSYN03001015 46/// /1407 11071 21101=
0039010150999992016011411004+69600+017833FM-12+001499999V0201401N007019999999N999999999-00701-01061999999REMSYN03001015 46/// /1407 11070 21106=
0049010150999992016011412004+69600+017833FM-12+001499999V020999999999999999999999999999+99999+99999999999REMSYN04001015 46/// /1406 11068 21115 333 91110=
0039010150999992016011413004+69600+017833FM-12+001499999V0201401N005019999999N999999999-00661-01171999999REMSYN03001015 46/// /1405 11066 21117=
0039010150999992016011414004+69600+017833FM-12+001499999V0201401N008019999999N999999999-00681-01051999999REMSYN03001015 46/// /1408 11068 21105=
0039010150999992016011415004+69600+017833FM-12+001499999V0201401N008019999999N999999999-00681-01171999999REMSYN03001015 46/// /1408 11068 21117=
0039010150999992016011416004+69600+017833FM-12+001499999V0201401N007019999999N999999999-00711-01021999999REMSYN03001015 46/// /1407 11071 21102=
0039010150999992016011417004+69600+017833FM-12+001499999V0201401N010019999999N999999999-00681-01051999999REMSYN03001015 46/// /1410 11068 21105=
0055010150999992016011418004+69600+017833FM-12+001499999V020999999999999999999999999999+99999+99999999999REMSYN04601015 46/// /1410 11066 21102 333 11061 91112=
0039010150999992016011419004+69600+017833FM-12+001499999V0201401N011019999999N999999999-00611-00991999999REMSYN03001015 46/// /1411 11061 21099=
0039010150999992016011420004+69600+017833FM-12+001499999V0201401N012019999999N999999999-00621-00951999999REMSYN03001015 46/// /1412 11062 21095=
0039010150999992016011421004+69600+017833FM-12+001499999V0201501N011019999999N999999999-00611-00901999999REMSYN03001015 46/// /1511 11061 21090=
0039010150999992016011422004+69600+017833FM-12+001499999V0201401N010019999999N999999999-00571-00831999999REMSYN03001015 46/// /1410 11057 21083=
0039010150999992016011423004+69600+017833FM-12+001499999V0201501N011019999999N999999999-00541-00771999999REMSYN03001015 46/// /1511 11054 21077=
0049010150999992016011500004+69600+017833FM-12+001499999V020999999999999999999999999999+99999+99999999999REMSYN04001015 46/// /1410 11050 21077 333 91117=
0056010150999992016011501004+69601+017830FM-12+001499999V0201401N0092199999999999999999-00501-00731999999ADDKA1010M-00481KA2010N-00521OD130101151999REMSYN004BUFR
0039010150999992016011502004+69600+017833FM-12+001499999V0201501N006019999999N999999999-00491-00711999999REMSYN03001015 46/// /1506 11049 21071=
0039010150999992016011503004+69600+017833FM-12+001499999V0201401N006019999999N999999999-00511-00711999999REMSYN03001015 46/// /1406 11051 21071=
0039010150999992016011504004+69600+017833FM-12+001499999V0201401N003019999999N999999999-00421-00691999999REMSYN03001015 46/// /1403 11042 21069=
0039010150999992016011505004+69600+017833FM-12+001499999V0201401N003019999999N999999999-00411-00671999999REMSYN03001015 46/// /1403 11041 21067=
0055010150999992016011506004+69600+017833FM-12+001499999V020999999999999999999999999999+99999+99999999999REMSYN04601015 46/// /1301 11029 21055 333 21067 91112=
0039010150999992016011507004+69600+017833FM-12+001499999V0202201N002019999999N999999999-00261-00451999999REMSYN03001015 46/// /2202 11026 21045=
0039010150999992016011508004+69600+017833FM-12+001499999V0202201N001019999999N999999999-00211-00421999999REMSYN03001015 46/// /2201 11021 21042=
0039010150999992016011509004+69600+017833FM-12+001499999V0200901N001019999999N999999999-00281-00391999999REMSYN03001015 46/// /0901 11028 21039=
0039010150999992016011510004+69600+017833FM-12+001499999V0200701N001019999999N999999999-00191-00331999999REMSYN03001015 46/// /0701 11019 21033=
0039010150999992016011511004+69600+017833FM-12+001499999V0200301N002019999999N999999999-00141-00211999999REMSYN03001015 46/// /0302 11014 21021=
0049010150999992016011512004+69600+017833FM-12+001499999V020999999999999999999999999999+99999+99999999999REMSYN04001015 46/// /1104 11021 21031 333 91106=
0039010150999992016011513004+69600+017833FM-12+001499999V0201501N002019999999N999999999-00231-00341999999REMSYN03001015 46/// /1502 11023 21034=
0039010150999992016011514004+69600+017833FM-12+001499999V0201401N003019999999N999999999-00241-00351999999REMSYN03001015 46/// /1403 11024 21035=
0039010150999992016011515004+69600+017833FM-12+001499999V0201301N004019999999N999999999-00231-00341999999REMSYN03001015 46/// /1304 11023 21034=
0039010150999992016011516004+69600+017833FM-12+001499999V0201301N002019999999N999999999-00231-00361999999REMSYN03001015 46/// /1302 11023 21036=
0039010150999992016011517004+69600+017833FM-12+001499999V0202601N001019999999N999999999-00191-00371999999REMSYN03001015 46/// /2601 11019 21037=
0055010150999992016011518004+69600+017833FM-12+001499999V020999999999999999999999999999+99999+99999999999REMSYN04601015 46/// /0103 11007 21034 333 11007 91107=
0039010150999992016011519004+69600+017833FM-12+001499999V0200901N003019999999N999999999-00041-00311999999REMSYN03001015 46/// /0903 11004 21031=
0039010150999992016011520004+69600+017833FM-12+001499999V0200301N005019999999N999999999-00061-00331999999REMSYN03001015 46/// /0305 11006 21033=
0039010150999992016011521004+69600+017833FM-12+001499999V0201001N002019999999N999999999-00091-00331999999REMSYN03001015 46/// /1002 11009 21033=
0039010150999992016011522004+69600+017833FM-12+001499999V0200501N003019999999N999999999-00101-00441999999REMSYN03001015 46/// /0503 11010 21044=
0039010150999992016011523004+69600+017833FM-12+001499999V0200501N003019999999N999999999-00081-00421999999REMSYN03001015 46/// /0503 11008 21042=
0049010150999992016011600004+69600+017833FM-12+001499999V020999999999999999999999999999+99999+99999999999REMSYN04001015 46/// /0603 11004 21050 333 91109=
0039010150999992016011601004+69600+017833FM-12+001499999V0200601N001019999999N999999999-00081-00491999999REMSYN03001015 46/// /0601 11008 21049=
0039010150999992016011602004+69600+017833FM-12+001499999V0200801N003019999999N999999999-00061-00481999999REMSYN03001015 46/// /0803 11006 21048=
0039010150999992016011603004+69600+017833FM-12+001499999V0200301N005019999999N999999999+00011-00511999999REMSYN03001015 46/// /0305 10001 21051=
0039010150999992016011604004+69600+017833FM-12+001499999V0200301N007019999999N999999999+00101-00561999999REMSYN03001015 46/// /0307 10010 21056=
0039010150999992016011605004+69600+017833FM-12+001499999V0200101N007019999999N999999999+00111-00491999999REMSYN03001015 46/// /0107 10011 21049=
0055010150999992016011606004+69600+017833FM-12+001499999V020999999999999999999999999999+99999+99999999999REMSYN04601015 46/// /0506 11004 21031 333 21014 91116=
0039010150999992016011607004+69600+017833FM-12+001499999V0200701N003019999999N999999999+00021-00541999999REMSYN03001015 46/// /0703 10002 21054=
0039010150999992016011608004+69600+017833FM-12+001499999V0200401N007019999999N999999999+00141-00661999999REMSYN03001015 46/// /0407 10014 21066=
0039010150999992016011609004+69600+017833FM-12+001499999V0200201N007019999999N999999999+00191-00551999999REMSYN03001015 46/// /0207 10019 21055=
0039010150999992016011610004+69600+017833FM-12+001499999V0200101N011019999999N999999999-00071-00221999999REMSYN03001015 46/// /0111 11007 21022=
0039010150999992016011611004+69600+017833FM-12+001499999V0200401N006019999999N999999999-00021-00301999999REMSYN03001015 46/// /0406 11002 21030=
0049010150999992016011612004+69600+017833FM-12+001499999V020999999999999999999999999999+99999+99999999999REMSYN04001015 46/// /0406 10000 21028 333 91115=
0039010150999992016011613004+69600+017833FM-12+001499999V0203401N005019999999N999999999-00011-00311999999REMSYN03001015 46/// /3405 11001 21031=
0039010150999992016011614004+69600+017833FM-12+001499999V0200101N005019999999N999999999+00111-00341999999REMSYN03001015 46/// /0105 10011 21034=
0039010150999992016011615004+69600+017833FM-12+001499999V0200101N008019999999N999999999+00151-00521999999REMSYN03001015 46/// /0108 10015 21052=
0039010150999992016011616004+69600+017833FM-12+001499999V0200901N003019999999N999999999+00021-00301999999REMSYN03001015 46/// /0903 10002 21030=
0039010150999992016011617004+69600+017833FM-12+001499999V0200401N001019999999N999999999+00031-00311999999REMSYN03001015 46/// /0401 10003 21031=
0055010150999992016011618004+69600+017833FM-12+001499999V020999999999999999999999999999+99999+99999999999REMSYN04601015 46/// /3507 10015 21054 333 10019 91117=
0039010150999992016011619004+69600+017833FM-12+001499999V0203401N008019999999N999999999+00071-00391999999REMSYN03001015 46/// /3408 10007 21039=
0039010150999992016011620004+69600+017833FM-12+001499999V0203401N003019999999N999999999+00071-00431999999REMSYN03001015 46/// /3403 10007 21043=
0039010150999992016011621004+69600+017833FM-12+001499999V0203601N006019999999N999999999+00151-00471999999REMSYN03001015 46/// /3606 10015 21047=
0039010150999992016011622004+69600+017833FM-12+001499999V0203501N006019999999N999999999+00121-00591999999REMSYN03001015 46/// /3506 10012 21059=
0039010150999992016011623004+69600+017833FM-12+001499999V0203401N005019999999N999999999+00121-00521999999REMSYN03001015 46/// /3405 10012 21052=
0049010150999992016011700004+69600+017833FM-12+001499999V020999999999999999999999999999+99999+99999999999REMSYN04001015 46/// /3103 11001 21035 333 91114=
0039010150999992016011701004+69600+017833FM-12+001499999V0203401N009019999999N999999999+00021-00371999999REMSYN03001015 46/// /3409 10002 21037=
0039010150999992016011702004+69600+017833FM-12+001499999V0203501N006019999999N999999999+00141-00641999999REMSYN03001015 46/// /3506 10014 21064=
0039010150999992016011703004+69600+017833FM-12+001499999V0203301N006019999999N999999999+00131-00411999999REMSYN03001015 46/// /3306 10013 21041=
0039010150999992016011704004+69600+017833FM-12+001499999V0203401N007019999999N999999999+00151-00651999999REMSYN03001015 46/// /3407 10015 21065=
0039010150999992016011705004+69600+017833FM-12+001499999V0203501N006019999999N999999999+00131-00721999999REMSYN03001015 46/// /3506 10013 21072=
0055010150999992016011706004+69600+017833FM-12+001499999V020999999999999999999999999999+99999+99999999999REMSYN04601015 46/// /3406 10012 21075 333 21005 91111=
0039010150999992016011707004+69600+017833FM-12+001499999V0203301N006019999999N999999999+00141-00551999999REMSYN03001015 46/// /3306 10014 21055=
0039010150999992016011708004+69600+017833FM-12+001499999V0203401N008019999999N999999999+00141-00661999999REMSYN03001015 46/// /3408 10014 21066=
0039010150999992016011709004+69600+017833FM-12+001499999V0203301N007019999999N999999999+00151-00521999999REMSYN03001015 46/// /3307 10015 21052=
0039010150999992016011710004+69600+017833FM-12+001499999V0200101N011019999999N999999999+00021-00121999999REMSYN03001015 46/// /0111 10002 21012=
0039010150999992016011711004+69600+017833FM-12+001499999V0200101N006019999999N999999999+00031-00241999999REMSYN03001015 46/// /0106 10003 21024=
0049010150999992016011712004+69600+017833FM-12+001499999V020999999999999999999999999999+99999+99999999999REMSYN04001015 46/// /3406 11003 21016 333 91115=
0039010150999992016011713004+69600+017833FM-12+001499999V0200201N004019999999N999999999-00021-00331999999REMSYN03001015 46/// /0204 11002 21033=
0039010150999992016011714004+69600+017833FM-12+001499999V0200501N004019999999N999999999-00071-00291999999REMSYN03001015 46/// /0504 11007 21029=
0039010150999992016011715004+69600+017833FM-12+001499999V0201101N002019999999N999999999-00131-00231999999REMSYN03001015 46/// /1102 11013 21023=
0039010150999992016011716004+69600+017833FM-12+001499999V0201601N004019999999N999999999-00151-00281999999REMSYN03001015 46/// /1604 11015 21028=
0039010150999992016011717004+69600+017833FM-12+001499999V0201301N012019999999N999999999-00371-00491999999REMSYN03001015 46/// /1312 11037 21049=
0055010150999992016011718004+69600+017833FM-12+001499999V020999999999999999999999999999+99999+99999999999REMSYN04601015 46/// /1508 11042 21056 333 10016 91114=
0039010150999992016011719004+69600+017833FM-12+001499999V0201301N013019999999N999999999-00481-00661999999REMSYN03001015 46/// /1313 11048 21066=
0039010150999992016011720004+69600+017833FM-12+001499999V0201601N010019999999N999999999-00571-00901999999REMSYN03001015 46/// /1610 11057 21090=
0039010150999992016011721004+69600+017833FM-12+001499999V0201601N007019999999N999999999-00591-00981999999REMSYN03001015 46/// /1607 11059 21098=
0039010150999992016011722004+69600+017833FM-12+001499999V0201601N009019999999N999999999-00641-01031999999REMSYN03001015 46/// /1609 11064 21103=
0039010150999992016011723004+69600+017833FM-12+001499999V0201601N010019999999N999999999-00671-01081999999REMSYN03001015 46/// /1610 11067 21108=
0049010150999992016011800004+69600+017833FM-12+001499999V020999999999999999999999999999+99999+99999999999REMSYN04001015 46/// /1610 11078 21132 333 91117=
0039010150999992016011801004+69600+017833FM-12+001499999V0201601N009019999999N999999999-00791-01381999999REMSYN03001015 46/// /1609 11079 21138=
0039010150999992016011802004+69600+017833FM-12+001499999V0201701N010019999999N999999999-00851-01461999999REMSYN03001015 46/// /1710 11085 21146=
0039010150999992016011803004+69600+017833FM-12+001499999V0201501N010019999999N999999999-00871-01481999999REMSYN03001015 46/// /1510 11087 21148=
0039010150999992016011804004+69600+017833FM-12+001499999V0201601N009019999999N999999999-00871-01481999999REMSYN03001015 46/// /1609 11087 21148=
0039010150999992016011805004+69600+017833FM-12+001499999V0201501N010019999999N999999999-00881-01501999999REMSYN03001015 46/// /1510 11088 21150=
0055010150999992016011806004+69600+017833FM-12+001499999V020999999999999999999999999999+99999+99999999999REMSYN04601015 46/// /1510 11089 21148 333 21091 91116=
0039010150999992016011807004+69600+017833FM-12+001499999V0201501N012019999999N999999999-00881-01521999999REMSYN03001015 46/// /1512 11088 21152=
0039010150999992016011808004+69600+017833FM-12+001499999V0201601N010019999999N999999999-00871-01491999999REMSYN03001015 46/// /1610 11087 21149=
0039010150999992016011809004+69600+017833FM-12+001499999V0201601N010019999999N999999999-00891-01531999999REMSYN03001015 46/// /1610 11089 21153=
0039010150999992016011810004+69600+017833FM-12+001499999V0201501N011019999999N999999999-00871-01611999999REMSYN03001015 46/// /1511 11087 21161=
0039010150999992016011811004+69600+017833FM-12+001499999V0201601N008019999999N999999999-00881-01581999999REMSYN03001015 46/// /1608 11088 21158=
0049010150999992016011812004+69600+017833FM-12+001499999V020999999999999999999999999999+99999+99999999999REMSYN04001015 46/// /1510 11090 21162 333 91116=
0039010150999992016011813004+69600+017833FM-12+001499999V0201701N009019999999N999999999-00881-01651999999REMSYN03001015 46/// /1709 11088 21165=
0039010150999992016011814004+69600+017833FM-12+001499999V0201501N009019999999N999999999-00881-01651999999REMSYN03001015 46/// /1509 11088 21165=
0039010150999992016011815004+69600+017833FM-12+001499999V0201501N011019999999N999999999-00871-01641999999REMSYN03001015 46/// /1511 11087 21164=
0039010150999992016011816004+69600+017833FM-12+001499999V0201501N011019999999N999999999-00871-01611999999REMSYN03001015 46/// /1511 11087 21161=
0039010150999992016011817004+69600+017833FM-12+001499999V0201501N010019999999N999999999-00881-01541999999REMSYN03001015 46/// /1510 11088 21154=
0055010150999992016011818004+69600+017833FM-12+001499999V020999999999999999999999999999+99999+99999999999REMSYN04601015 46/// /1510 11091 21157 333 11084 91115=
0039010150999992016011819004+69600+017833FM-12+001499999V0201401N011019999999N999999999-00881-01561999999REMSYN03001015 46/// /1411 11088 21156=
0039010150999992016011820004+69600+017833FM-12+001499999V0201501N009019999999N999999999-00851-01481999999REMSYN03001015 46/// /1509 11085 21148=
0039010150999992016011821004+69600+017833FM-12+001499999V0201401N010019999999N999999999-00861-01391999999REMSYN03001015 46/// /1410 11086 21139=
0039010150999992016011822004+69600+017833FM-12+001499999V0201401N010019999999N999999999-00861-01391999999REMSYN03001015 46/// /1410 11086 21139=
0039010150999992016011823004+69600+017833FM-12+001499999V0201501N010019999999N999999999-00901-01491999999REMSYN03001015 46/// /1510 11090 21149=
0049010150999992016011900004+69600+017833FM-12+001499999V020999999999999999999999999999+99999+99999999999REMSYN04001015 46/// /1410 11090 21149 333 91114=
0039010150999992016011901004+69600+017833FM-12+001499999V0201401N010019999999N999999999-00881-01341999999REMSYN03001015 46/// /1410 11088 21134=
0039010150999992016011902004+69600+017833FM-12+001499999V0201401N010019999999N999999999-00901-01401999999REMSYN03001015 46/// /1410 11090 21140=
0039010150999992016011903004+69600+017833FM-12+001499999V0201501N010019999999N999999999-00931-01441999999REMSYN03001015 46/// /1510 11093 21144=
0039010150999992016011904004+69600+017833FM-12+001499999V0201601N008019999999N999999999-00911-01411999999REMSYN03001015 46/// /1608 11091 21141=
0039010150999992016011905004+69600+017833FM-12+001499999V0201501N008019999999N999999999-00921-01471999999REMSYN03001015 46/// /1508 11092 21147=
0055010150999992016011906004+69600+017833FM-12+001499999V020999999999999999999999999999+99999+99999999999REMSYN04601015 46/// /1606 11091 21144 333 21094 91114=
0039010150999992016011907004+69600+017833FM-12+001499999V0201601N006019999999N999999999-00921-01431999999REMSYN03001015 46/// /1606 11092 21143=
0039010150999992016011908004+69600+017833FM-12+001499999V0201601N007019999999N999999999-00911-01371999999REMSYN03001015 46/// /1607 11091 21137=
0039010150999992016011909004+69600+017833FM-12+001499999V0201701N006019999999N999999999-00911-01371999999REMSYN03001015 46/// /1706 11091 21137=
0039010150999992016011910004+69600+017833FM-12+001499999V0201701N006019999999N999999999-00891-01351999999REMSYN03001015 46/// /1706 11089 21135=
0039010150999992016011911004+69600+017833FM-12+001499999V0201501N008019999999N999999999-00911-01371999999REMSYN03001015 46/// /1508 11091 21137=
0049010150999992016011912004+69600+017833FM-12+001499999V020999999999999999999999999999+99999+99999999999REMSYN04001015 46/// /1706 11094 21140 333 91111=
0056010150999992016011913004+69601+017830FM-12+001499999V0201671N0057199999999999999999-00921-01401999999ADDKA1010M-00911KA2010N-00941OD130100931999REMSYN004BUFR
0039010150999992016011914004+69600+017833FM-12+001499999V0201701N007019999999N999999999-00931-01481999999REMSYN03001015 46/// /1707 11093 21148=
0039010150999992016011915004+69600+017833FM-12+001499999V0201501N008019999999N999999999-00941-01391999999REMSYN03001015 46/// /1508 11094 21139=
0039010150999992016011916004+69600+017833FM-12+001499999V0201501N009019999999N999999999-00941-01451999999REMSYN03001015 46/// /1509 11094 21145=
0039010150999992016011917004+69600+017833FM-12+001499999V0201501N008019999999N999999999-00961-01391999999REMSYN03001015 46/// /1508 11096 21139=
0055010150999992016011918004+69600+017833FM-12+001499999V020999999999999999999999999999+99999+99999999999REMSYN04601015 46/// /1410 11093 21141 333 11088 91112=
0039010150999992016011919004+69600+017833FM-12+001499999V0201401N009019999999N999999999-00971-01531999999REMSYN03001015 46/// /1409 11097 21153=
0039010150999992016011920004+69600+017833FM-12+001499999V0201401N009019999999N999999999-00971-01531999999REMSYN03001015 46/// /1409 11097 21153=
0039010150999992016011921004+69600+017833FM-12+001499999V0201401N010019999999N999999999-00961-01491999999REMSYN03001015 46/// /1410 11096 21149=
0039010150999992016011922004+69600+017833FM-12+001499999V0201401N010019999999N999999999-00951-01461999999REMSYN03001015 46/// /1410 11095 21146=
0039010150999992016011923004+69600+017833FM-12+001499999V0201401N010019999999N999999999-00961-01541999999REMSYN03001015 46/// /1410 11096 21154=
0049010150999992016012000004+69600+017833FM-12+001499999V020999999999999999999999999999+99999+99999999999REMSYN04001015 46/// /1410 11091 21146 333 91113=
0039010150999992016012001004+69600+017833FM-12+001499999V0201401N010019999999N999999999-00921-01421999999REMSYN03001015 46/// /1410 11092 21142=
0039010150999992016012002004+69600+017833FM-12+001499999V0201401N011019999999N999999999-00951-01501999999REMSYN03001015 46/// /1411 11095 21150=
0039010150999992016012003004+69600+017833FM-12+001499999V0201401N011019999999N999999999-00941-01451999999REMSYN03001015 46/// /1411 11094 21145=
0039010150999992016012004004+69600+017833FM-12+001499999V0201401N011019999999N999999999-00921-01421999999REMSYN03001015 46/// /1411 11092 21142=
0039010150999992016012005004+69600+017833FM-12+001499999V0201401N012019999999N999999999-00911-01441999999REMSYN03001015 46/// /1412 11091 21144=
0055010150999992016012006004+69600+017833FM-12+001499999V020999999999999999999999999999+99999+99999999999REMSYN04601015 46/// /1412 11092 21127 333 21100 91115=
0039010150999992016012007004+69600+017833FM-12+001499999V0201401N012019999999N999999999-00901-01281999999REMSYN03001015 46/// /1412 11090 21128=
0039010150999992016012008004+69600+017833FM-12+001499999V0201401N011019999999N999999999-00831-01231999999REMSYN03001015 46/// /1411 11083 21123=
0039010150999992016012009004+69600+017833FM-12+001499999V0201401N013019999999N999999999-00851-01231999999REMSYN03001015 46/// /1413 11085 21123=
0039010150999992016012010004+69600+017833FM-12+001499999V0201501N012019999999N999999999-00821-01121999999REMSYN03001015 46/// /1512 11082 21112=
0039010150999992016012011004+69600+017833FM-12+001499999V0201401N012019999999N999999999-00821-01001999999REMSYN03001015 46/// /1412 11082 21100=
0049010150999992016012012004+69600+017833FM-12+001499999V020999999999999999999999999999+99999+99999999999REMSYN04001015 46/// /1412 11078 21093 333 91116=
0039010150999992016012013004+69600+017833FM-12+001499999V0201401N012019999999N999999999-00781-00931999999REMSYN03001015 46/// /1412 11078 21093=
0039010150999992016012014004+69600+017833FM-12+001499999V0201401N011019999999N999999999-00711-00861999999REMSYN03001015 46/// /1411 11071 21086=
0039010150999992016012015004+69600+017833FM-12+001499999V0201401N011019999999N999999999-00711-00911999999REMSYN03001015 46/// /1411 11071 21091=
0039010150999992016012016004+69600+017833FM-12+001499999V0201401N012019999999N999999999-00721-00891999999REMSYN03001015 46/// /1412 11072 21089=
0039010150999992016012017004+69600+017833FM-12+001499999V0201401N013019999999N999999999-00691-00881999999REMSYN03001015 46/// /1413 11069 21088=
0055010150999992016012018004+69600+017833FM-12+001499999V020999999999999999999999999999+99999+99999999999REMSYN04601015 46/// /1412 11063 21082 333 11063 91116=
0039010150999992016012019004+69600+017833FM-12+001499999V0201401N013019999999N999999999-00631-00871999999REMSYN03001015 46/// /1413 11063 21087=
0039010150999992016012020004+69600+017833FM-12+001499999V0201401N013019999999N999999999-00591-00821999999REMSYN03001015 46/// /1413 11059 21082=
0039010150999992016012021004+69600+017833FM-12+001499999V0201501N012019999999N999999999-00601-00771999999REMSYN03001015 46/// /1512 11060 21077=
0039010150999992016012022004+69600+017833FM-12+001499999V0201401N012019999999N999999999-00571-00841999999REMSYN03001015 46/// /1412 11057 21084=
0039010150999992016012023004+69600+017833FM-12+001499999V0201401N011019999999N999999999-00551-00821999999REMSYN03001015 46/// /1411 11055 21082=
0049010150999992016012100004+69600+017833FM-12+001499999V020999999999999999999999999999+99999+99999999999REMSYN04001015 46/// /1411 11055 21079 333 91116=
0039010150999992016012101004+69600+017833FM-12+001499999V0201401N012019999999N999999999-00521-00741999999REMSYN03001015 46/// /1412 11052 21074=
0039010150999992016012102004+69600+017833FM-12+001499999V0201401N010019999999N999999999-00501-00821999999REMSYN03001015 46/// /1410 11050 21082=
0039010150999992016012103004+69600+017833FM-12+001499999V0201401N009019999999N999999999-00471-00791999999REMSYN03001015 46/// /1409 11047 21079=
0039010150999992016012104004+69600+017833FM-12+001499999V0201401N009019999999N999999999-00511-00831999999REMSYN03001015 46/// /1409 11051 21083=
0039010150999992016012105004+69600+017833FM-12+001499999V0201401N009019999999N999999999-00521-00821999999REMSYN03001015 46/// /1409 11052 21082=
0055010150999992016012106004+69600+017833FM-12+001499999V020999999999999999999999999999+99999+99999999999REMSYN04601015 46/// /1410 11051 21080 333 21063 91114=
0039010150999992016012107004+69600+017833FM-12+001499999V0201401N010019999999N999999999-00531-00851999999REMSYN03001015 46/// /1410 11053 21085=
0039010150999992016012108004+69600+017833FM-12+001499999V0201401N009019999999N999999999-00501-00851999999REMSYN03001015 46/// /1409 11050 21085=
0039010150999992016012109004+69600+017833FM-12+001499999V0201401N009019999999N999999999-00491-00791999999REMSYN03001015 46/// /1409 11049 21079=
0039010150999992016012110004+69600+017833FM-12+001499999V0201401N008019999999N999999999-00491-00811999999REMSYN03001015 46/// /1408 11049 21081=
0039010150999992016012111004+69600+017833FM-12+001499999V0201401N008019999999N999999999-00471-00771999999REMSYN03001015 46/// /1408 11047 21077=
0049010150999992016012112004+69600+017833FM-12+001499999V020999999999999999999999999999+99999+99999999999REMSYN04001015 46/// /1409 11050 21076 333 91112=
0039010150999992016012113004+69600+017833FM-12+001499999V0201401N010019999999N999999999-00451-00711999999REMSYN03001015 46/// /1410 11045 21071=
0039010150999992016012114004+69600+017833FM-12+001499999V0201401N011019999999N999999999-00381-00611999999REMSYN03001015 46/// /1411 11038 21061=
0039010150999992016012115004+69600+017833FM-12+001499999V0201401N011019999999N999999999-00291-00551999999REMSYN03001015 46/// /1411 11029 21055=
0039010150999992016012116004+69600+017833FM-12+001499999V0201401N011019999999N999999999-00231-00481999999REMSYN03001015 46/// /1411 11023 21048=
0039010150999992016012117004+69600+017833FM-12+001499999V0201401N011019999999N999999999-00161-00381999999REMSYN03001015 46/// /1411 11016 21038=
0055010150999992016012118004+69600+017833FM-12+001499999V020999999999999999999999999999+99999+99999999999REMSYN04601015 46/// /1410 11016 21035 333 11012 91115=
0039010150999992016012119004+69600+017833FM-12+001499999V0201401N008019999999N999999999-00111-00251999999REMSYN03001015 46/// /1408 11011 21025=
0039010150999992016012120004+69600+017833FM-12+001499999V0202001N003019999999N999999999+00141-00341999999REMSYN03001015 46/// /2003 10014 21034=
0039010150999992016012121004+69600+017833FM-12+001499999V0201801N004019999999N999999999+00101-00311999999REMSYN03001015 46/// /1804 10010 21031=
0039010150999992016012122004+69600+017833FM-12+001499999V0202201N005019999999N999999999+00251-00491999999REMSYN03001015 46/// /2205 10025 21049=
0039010150999992016012123004+69600+017833FM-12+001499999V0201601N004019999999N999999999+00161-00271999999REMSYN03001015 46/// /1604 10016 21027=
0049010150999992016012200004+69600+017833FM-12+001499999V020999999999999999999999999999+99999+99999999999REMSYN04001015 46/// /1407 10012 21015 333 91113=
0039010150999992016012201004+69600+017833FM-12+001499999V0201601N005019999999N999999999+00241-00161999999REMSYN03001015 46/// /1605 10024 21016=
0039010150999992016012202004+69600+017833FM-12+001499999V0202201N007019999999N999999999+00221-00071999999REMSYN03001015 46/// /2207 10022 21007=
0039010150999992016012203004+69600+017833FM-12+001499999V0202201N007019999999N999999999+00161-00031999999REMSYN03001015 46/// /2207 10016 21003=
0039010150999992016012204004+69600+017833FM-12+001499999V0202201N005019999999N999999999+00251-00021999999REMSYN03001015 46/// /2205 10025 21002=
0039010150999992016012205004+69600+017833FM-12+001499999V0202401N007019999999N999999999+00291+00001999999REMSYN03001015 46/// /2407 10029 21000=
0055010150999992016012206004+69600+017833FM-12+001499999V020999999999999999999999999999+99999+99999999999REMSYN04601015 46/// /2410 10035 21005 333 21016 91116=
0039010150999992016012207004+69600+017833FM-12+001499999V0202301N008019999999N999999999+00371-00051999999REMSYN03001015 46/// /2308 10037 21005=
0039010150999992016012208004+69600+017833FM-12+001499999V0202301N009019999999N999999999+00401-00041999999REMSYN03001015 46/// /2309 10040 21004=
0039010150999992016012209004+69600+017833FM-12+001499999V0202401N008019999999N999999999+00421-00021999999REMSYN03001015 46/// /2408 10042 21002=
0039010150999992016012210004+69600+017833FM-12+001499999V0202301N003019999999N999999999+00381+00031999999REMSYN03001015 46/// /2303 10038 20003=
0039010150999992016012211004+69600+017833FM-12+001499999V0202101N002019999999N999999999+00361+00031999999REMSYN03001015 46/// /2102 10036 20003=
0049010150999992016012212004+69600+017833FM-12+001499999V020999999999999999999999999999+99999+99999999999REMSYN04001015 46/// /1402 10033 20009 333 91115=
0039010150999992016012213004+69600+017833FM-12+001499999V0201101N004019999999N999999999+00221+00091999999REMSYN03001015 46/// /1104 10022 20009=
0039010150999992016012214004+69600+017833FM-12+001499999V0201401N003019999999N999999999+00281+00151999999REMSYN03001015 46/// /1403 10028 20015=
0039010150999992016012215004+69600+017833FM-12+001499999V0201901N003019999999N999999999+00361+00121999999REMSYN03001015 46/// /1903 10036 20012=
0039010150999992016012216004+69600+017833FM-12+001499999V0201201N003019999999N999999999+00341+00151999999REMSYN03001015 46/// /1203 10034 20015=
0039010150999992016012217004+69600+017833FM-12+001499999V0201401N004019999999N999999999+00391+00111999999REMSYN03001015 46/// /1404 10039 20011=
0055010150999992016012218004+69600+017833FM-12+001499999V020999999999999999999999999999+99999+99999999999REMSYN04601015 46/// /2307 10045 20001 333 10046 91111=
0039010150999992016012219004+69600+017833FM-12+001499999V0202401N009019999999N999999999+00441-00021999999REMSYN03001015 46/// /2409 10044 21002=
0039010150999992016012220004+69600+017833FM-12+001499999V0202301N007019999999N999999999+00431-00031999999REMSYN03001015 46/// /2307 10043 21003=
0039010150999992016012221004+69600+017833FM-12+001499999V0202501N002019999999N999999999+00451-00151999999REMSYN03001015 46/// /2502 10045 21015=
0039010150999992016012222004+69600+017833FM-12+001499999V0201201N004019999999N999999999+00411-00031999999REMSYN03001015 46/// /1204 10041 21003=
0039010150999992016012223004+69600+017833FM-12+001499999V0201301N002019999999N999999999+00411-00131999999REMSYN03001015 46/// /1302 10041 21013=
0049010150999992016012300004+69600+017833FM-12+001499999V020999999999999999999999999999+99999+99999999999REMSYN04001015 46/// /1703 10042 21010 333 91114=
0039010150999992016012301004+69600+017833FM-12+001499999V0201601N002019999999N999999999+00431-00071999999REMSYN03001015 46/// /1602 10043 21007=
0039010150999992016012302004+69600+017833FM-12+001499999V0201401N003019999999N999999999+00391+00011999999REMSYN03001015 46/// /1403 10039 20001=
0039010150999992016012303004+69600+017833FM-12+001499999V0201401N007019999999N999999999+00341+00011999999REMSYN03001015 46/// /1407 10034 20001=
0039010150999992016012304004+69600+017833FM-12+001499999V0201401N008019999999N999999999+00341+00081999999REMSYN03001015 46/// /1408 10034 20008=
0056010150999992016012305004+69601+017830FM-12+001499999V0201471N0090199999999999999999+00351+00031999999ADDKA1010M+00371KA2010N+00331OD130101061999REMSYN004BUFR
0055010150999992016012306004+69600+017833FM-12+001499999V020999999999999999999999999999+99999+99999999999REMSYN04601015 46/// /1509 10034 21001 333 20033 91111=
0039010150999992016012307004+69600+017833FM-12+001499999V0201401N008019999999N999999999+00311-00111999999REMSYN03001015 46/// /1408 10031 21011=
0039010150999992016012308004+69600+017833FM-12+001499999V0201401N007019999999N999999999+00281-00061999999REMSYN03001015 46/// /1407 10028 21006=
0039010150999992016012309004+69600+017833FM-12+001499999V0201401N007019999999N999999999+00231-00181999999REMSYN03001015 46/// /1407 10023 21018=
0039010150999992016012310004+69600+017833FM-12+001499999V0201401N009019999999N999999999+00221-00331999999REMSYN03001015 46/// /1409 10022 21033=
0039010150999992016012311004+69600+017833FM-12+001499999V0201401N007019999999N999999999+00201-00351999999REMSYN03001015 46/// /1407 10020 21035=
0049010150999992016012312004+69600+017833FM-12+001499999V020999999999999999999999999999+99999+99999999999REMSYN04001015 46/// /1408 10022 21045 333 91111=
0039010150999992016012313004+69600+017833FM-12+001499999V0201401N008019999999N999999999+00181-00451999999REMSYN03001015 46/// /1408 10018 21045=
0039010150999992016012314004+69600+017833FM-12+001499999V0201401N010019999999N999999999+00191-00441999999REMSYN03001015 46/// /1410 10019 21044=
0039010150999992016012315004+69600+017833FM-12+001499999V0201401N009019999999N999999999+00161-00491999999REMSYN03001015 46/// /1409 10016 21049=
0039010150999992016012316004+69600+017833FM-12+001499999V0201401N010019999999N999999999+00101-00351999999REMSYN03001015 46/// /1410 10010 21035=
0039010150999992016012317004+69600+017833FM-12+001499999V0201401N010019999999N999999999+00101-00381999999REMSYN03001015 46/// /1410 10010 21038=
0055010150999992016012318004+69600+017833FM-12+001499999V020999999999999999999999999999+99999+99999999999REMSYN04601015 46/// /1410 10007 21047 333 10034 91113=
0039010150999992016012319004+69600+017833FM-12+001499999V0201401N009019999999N999999999+00051-00471999999REMSYN03001015 46/// /1409 10005 21047=
0039010150999992016012320004+69600+017833FM-12+001499999V0201501N009019999999N999999999+00061-00581999999REMSYN03001015 46/// /1509 10006 21058=
0039010150999992016012321004+69600+017833FM-12+001499999V0201401N010019999999N999999999+00011-00511999999REMSYN03001015 46/// /1410 10001 21051=
0039010150999992016012322004+69600+017833FM-12+001499999V0201401N010019999999N999999999-00021-00431999999REMSYN03001015 46/// /1410 11002 21043=
0039010150999992016012323004+69600+017833FM-12+001499999V0201501N009019999999N999999999-00041-00551999999REMSYN03001015 46/// /1509 11004 21055=
0056010150999992016012400004+69601+017830FM-12+001499999V0201441N0104199999999999999999-00051-00541999999ADDKA1010M-00011KA2010N-00051OD130601281999REMSYN004BUFR
0039010150999992016012401004+69600+017833FM-12+001499999V0201401N011019999999N999999999-00091-00561999999REMSYN03001015 46/// /1411 11009 21056=
0039010150999992016012402004+69600+017833FM-12+001499999V0201401N010019999999N999999999-00111-00531999999REMSYN03001015 46/// /1410 11011 21053=
0039010150999992016012403004+69600+017833FM-12+001499999V0201401N011019999999N999999999-00121-00591999999REMSYN03001015 46/// /1411 11012 21059=
0039010150999992016012404004+69600+017833FM-12+001499999V0201401N011019999999N999999999-00141-00601999999REMSYN03001015 46/// /1411 11014 21060=
0039010150999992016012405004+69600+017833FM-12+001499999V0201401N009019999999N999999999-00121-00581999999REMSYN03001015 46/// /1409 11012 21058=
0055010150999992016012406004+69600+017833FM-12+001499999V020999999999999999999999999999+99999+99999999999REMSYN04601015 46/// /1410 11013 21055 333 21015 91114=
0039010150999992016012407004+69600+017833FM-12+001499999V0201401N010019999999N999999999-00131-00571999999REMSYN03001015 46/// /1410 11013 21057=
0039010150999992016012408004+69600+017833FM-12+001499999V0201401N010019999999N999999999-00141-00651999999REMSYN03001015 46/// /1410 11014 21065=
0039010150999992016012409004+69600+017833FM-12+001499999V0201401N009019999999N999999999-00161-00601999999REMSYN03001015 46/// /1409 11016 21060=
0039010150999992016012410004+69600+017833FM-12+001499999V0201401N010019999999N999999999-00211-00341999999REMSYN03001015 46/// /1410 11021 21034=
0039010150999992016012411004+69600+017833FM-12+001499999V0201401N011019999999N999999999-00221-00331999999REMSYN03001015 46/// /1411 11022 21033=
0049010150999992016012412004+69600+017833FM-12+001499999V020999999999999999999999999999+99999+99999999999REMSYN04001015 46/// /1411 11025 21034 333 91114=
0039010150999992016012413004+69600+017833FM-12+001499999V0201401N012019999999N999999999-00231-00321999999REMSYN03001015 46/// /1412 11023 21032=
0039010150999992016012414004+69600+017833FM-12+001499999V0201401N012019999999N999999999-00221-00331999999REMSYN03001015 46/// /1412 11022 21033=
0039010150999992016012415004+69600+017833FM-12+001499999V0201401N012019999999N999999999-00191-00301999999REMSYN03001015 46/// /1412 11019 21030=
0039010150999992016012416004+69600+017833FM-12+001499999V0201401N012019999999N999999999-00201-00341999999REMSYN03001015 46/// /1412 11020 21034=
0039010150999992016012417004+69600+017833FM-12+001499999V0201401N012019999999N999999999-00191-00341999999REMSYN03001015 46/// /1412 11019 21034=
0055010150999992016012418004+69600+017833FM-12+001499999V020999999999999999999999999999+99999+99999999999REMSYN04601015 46/// /1511 11016 21033 333 11011 91115=
0039010150999992016012419004+69600+017833FM-12+001499999V0201401N010019999999N999999999-00141-00291999999REMSYN03001015 46/// /1410 11014 21029=
0039010150999992016012420004+69600+017833FM-12+001499999V0201401N011019999999N999999999-00161-00271999999REMSYN03001015 46/// /1411 11016 21027=
0039010150999992016012421004+69600+017833FM-12+001499999V0201401N011019999999N999999999-00131-00231999999REMSYN03001015 46/// /1411 11013 21023=
0039010150999992016012422004+69600+017833FM-12+001499999V0201401N011019999999N999999999-00121-00211999999REMSYN03001015 46/// /1411 11012 21021=
0039010150999992016012423004+69600+017833FM-12+001499999V0201401N010019999999N999999999-00051-00141999999REMSYN03001015 46/// /1410 11005 21014=
0049010150999992016012500004+69600+017833FM-12+001499999V020999999999999999999999999999+99999+99999999999REMSYN04001015 46/// /1410 10000 21009 333 91114=
0039010150999992016012501004+69600+017833FM-12+001499999V0201401N010019999999N999999999+00001-00071999999REMSYN03001015 46/// /1410 10000 21007=
0039010150999992016012502004+69600+017833FM-12+001499999V0201401N009019999999N999999999+00041-00061999999REMSYN03001015 46/// /1409 10004 21006=
0039010150999992016012503004+69600+017833FM-12+001499999V0201401N009019999999N999999999+00051-00031999999REMSYN03001015 46/// /1409 10005 21003=
0039010150999992016012504004+69600+017833FM-12+001499999V0201401N008019999999N999999999+00081-00011999999REMSYN03001015 46/// /1408 10008 21001=
0039010150999992016012505004+69600+017833FM-12+001499999V0201401N008019999999N999999999+00101+00031999999REMSYN03001015 46/// /1408 10010 20003=
0055010150999992016012506004+69600+017833FM-12+001499999V020999999999999999999999999999+99999+99999999999REMSYN04601015 46/// /1407 10014 20008 333 21018 91112=
0039010150999992016012507004+69600+017833FM-12+001499999V0201401N006019999999N999999999+00171+00101999999REMSYN03001015 46/// /1406 10017 20010=
0039010150999992016012508004+69600+017833FM-12+001499999V0201401N005019999999N999999999+00221+00161999999REMSYN03001015 46/// /1405 10022 20016=
0039010150999992016012509004+69600+017833FM-12+001499999V0201401N005019999999N999999999+00221+00161999999REMSYN03001015 46/// /1405 10022 20016=
0056010150999992016012510004+69601+017830FM-12+001499999V0201431N0050199999999999999999+00241+00161999999ADDKA1010M+00261KA2010N+00211OD130100781999REMSYN004BUFR
0039010150999992016012511004+69600+017833FM-12+001499999V0201501N004019999999N999999999+00271+00151999999REMSYN03001015 46/// /1504 10027 20015=
0049010150999992016012512004+69600+017833FM-12+001499999V020999999999999999999999999999+99999+99999999999REMSYN04001015 46/// /1404 10027 20014 333 91109=
0039010150999992016012513004+69600+017833FM-12+001499999V0201301N006019999999N999999999+00331+00181999999REMSYN03001015 46/// /1306 10033 20018=
0039010150999992016012514004+69600+017833FM-12+001499999V0201401N006019999999N999999999+00281+00101999999REMSYN03001015 46/// /1406 10028 20010=
0039010150999992016012515004+69600+017833FM-12+001499999V0201401N007019999999N999999999+00241+00081999999REMSYN03001015 46/// /1407 10024 20008=
0039010150999992016012516004+69600+017833FM-12+001499999V0201401N006019999999N999999999+00191+00011999999REMSYN03001015 46/// /1406 10019 20001=
0039010150999992016012517004+69600+017833FM-12+001499999V0201401N007019999999N999999999+00161+00031999999REMSYN03001015 46/// /1407 10016 20003=
0055010150999992016012518004+69600+017833FM-12+001499999V020999999999999999999999999999+99999+99999999999REMSYN04601015 46/// /1408 10015 20000 333 10033 91110=
0039010150999992016012519004+69600+017833FM-12+001499999V0201501N006019999999N999999999+00141-00041999999REMSYN03001015 46/// /1506 10014 21004=
0039010150999992016012520004+69600+017833FM-12+001499999V0201301N010019999999N999999999+00171-00071999999REMSYN03001015 46/// /1310 10017 21007=
0039010150999992016012521004+69600+017833FM-12+001499999V0201501N008019999999N999999999+00171-00141999999REMSYN03001015 46/// /1508 10017 21014=
0039010150999992016012522004+69600+017833FM-12+001499999V0201401N009019999999N999999999+00161-00201999999REMSYN03001015 46/// /1409 10016 21020=
0039010150999992016012523004+69600+017833FM-12+001499999V0201601N007019999999N999999999+00191-00421999999REMSYN03001015 46/// /1607 10019 21042=
0049010150999992016012600004+69600+017833FM-12+001499999V020999999999999999999999999999+99999+99999999999REMSYN04001015 46/// /1507 10018 21049 333 91113=
0039010150999992016012601004+69600+017833FM-12+001499999V0201401N013019999999N999999999+00181-00451999999REMSYN03001015 46/// /1413 10018 21045=
0039010150999992016012602004+69600+017833FM-12+001499999V0201401N006019999999N999999999+00131-00491999999REMSYN03001015 46/// /1406 10013 21049=
0039010150999992016012603004+69600+017833FM-12+001499999V0201401N010019999999N999999999+00101-00521999999REMSYN03001015 46/// /1410 10010 21052=
0039010150999992016012604004+69600+017833FM-12+001499999V0201401N012019999999N999999999-00011-00471999999REMSYN03001015 46/// /1412 11001 21047=
0039010150999992016012605004+69600+017833FM-12+001499999V0201601N010019999999N999999999-00081-00361999999REMSYN03001015 46/// /1610 11008 21036=
0055010150999992016012606004+69600+017833FM-12+001499999V020999999999999999999999999999+99999+99999999999REMSYN04601015 46/// /1513 11008 21030 333 21011 91117=
0039010150999992016012607004+69600+017833FM-12+001499999V0201501N009019999999N999999999-00121-00221999999REMSYN03001015 46/// /1509 11012 21022=
0039010150999992016012608004+69600+017833FM-12+001499999V0201401N007019999999N999999999-00111-00261999999REMSYN03001015 46/// /1407 11011 21026=
0039010150999992016012609004+69600+017833FM-12+001499999V0201501N006019999999N999999999-00091-00271999999REMSYN03001015 46/// /1506 11009 21027=
0039010150999992016012610004+69600+017833FM-12+001499999V0201401N004019999999N999999999-00111-00211999999REMSYN03001015 46/// /1404 11011 21021=
0039010150999992016012611004+69600+017833FM-12+001499999V0201401N002019999999N999999999-00121-00181999999REMSYN03001015 46/// /1402 11012 21018=
0049010150999992016012612004+69600+017833FM-12+001499999V020999999999999999999999999999+99999+99999999999REMSYN04001015 46/// /0000 10004 21010 333 91115=
0039010150999992016012613004+69600+017833FM-12+001499999V0202501N014019999999N999999999+00471-00011999999REMSYN03001015 46/// /2514 10047 21001=
0039010150999992016012614004+69600+017833FM-12+001499999V0202501N015019999999N999999999+00531+00011999999REMSYN03001015 46/// /2515 10053 20001=
0039010150999992016012615004+69600+017833FM-12+001499999V0202401N014019999999N999999999+00531-00141999999REMSYN03001015 46/// /2414 10053 21014=
0039010150999992016012616004+69600+017833FM-12+001499999V0202501N015019999999N999999999+00521-00171999999REMSYN03001015 46/// /2515 10052 21017=
0039010150999992016012617004+69600+017833FM-12+001499999V0202301N008019999999N999999999+00501-00211999999REMSYN03001015 46/// /2308 10050 21021=
0055010150999992016012618004+69600+017833FM-12+001499999V020999999999999999999999999999+99999+99999999999REMSYN04601015 46/// /2408 10049 21024 333 10056 91125=
0039010150999992016012619004+69600+017833FM-12+001499999V0202501N008019999999N999999999+00421-00281999999REMSYN03001015 46/// /2508 10042 21028=
0039010150999992016012620004+69600+017833FM-12+001499999V0202401N009019999999N999999999+00421-00331999999REMSYN03001015 46/// /2409 10042 21033=
0039010150999992016012621004+69600+017833FM-12+001499999V0202301N011019999999N999999999+00401-00371999999REMSYN03001015 46/// /2311 10040 21037=
0039010150999992016012622004+69600+017833FM-12+001499999V0202301N008019999999N999999999+00291-00201999999REMSYN03001015 46/// /2308 10029 21020=
0039010150999992016012623004+69600+017833FM-12+001499999V0202301N007019999999N999999999+00381-00341999999REMSYN03001015 46/// /2307 10038 21034=
0049010150999992016012700004+69600+017833FM-12+001499999V020999999999999999999999999999+99999+99999999999REMSYN04001015 46/// /2207 10039 21040 333 91118=
0039010150999992016012701004+69600+017833FM-12+001499999V0202301N006019999999N999999999+00391-00431999999REMSYN03001015 46/// /2306 10039 21043=
0039010150999992016012702004+69600+017833FM-12+001499999V0202201N004019999999N999999999+00391-00431999999REMSYN03001015 46/// /2204 10039 21043=
0039010150999992016012703004+69600+017833FM-12+001499999V0201501N004019999999N999999999+00341-00431999999REMSYN03001015 46/// /1504 10034 21043=
0039010150999992016012704004+69600+017833FM-12+001499999V0202001N003019999999N999999999+00351-00371999999REMSYN03001015 46/// /2003 10035 21037=
0039010150999992016012705004+69600+017833FM-12+001499999V0201501N006019999999N999999999+00301-00311999999REMSYN03001015 46/// /1506 10030 21031=
0055010150999992016012706004+69600+017833FM-12+001499999V020999999999999999999999999999+99999+99999999999REMSYN04601015 46/// /1707 10033 21039 333 20021 91113=
0039010150999992016012707004+69600+017833FM-12+001499999V0201601N008019999999N999999999+00211-00461999999REMSYN03001015 46/// /1608 10021 21046=
0039010150999992016012708004+69600+017833FM-12+001499999V0201401N008019999999N999999999+00211-00461999999REMSYN03001015 46/// /1408 10021 21046=
0039010150999992016012709004+69600+017833FM-12+001499999V0201501N009019999999N999999999+00271-00591999999REMSYN03001015 46/// /1509 10027 21059=
0039010150999992016012710004+69600+017833FM-12+001499999V0201401N009019999999N999999999+00251-00491999999REMSYN03001015 46/// /1409 10025 21049=
0039010150999992016012711004+69600+017833FM-12+001499999V0201401N010019999999N999999999+00231-00441999999REMSYN03001015 46/// /1410 10023 21044=
0049010150999992016012712004+69600+017833FM-12+001499999V020999999999999999999999999999+99999+99999999999REMSYN04001015 46/// /1508 10029 21065 333 91113=
0039010150999992016012713004+69600+017833FM-12+001499999V0201501N007019999999N999999999+00301-00741999999REMSYN03001015 46/// /1507 10030 21074=
0039010150999992016012714004+69600+017833FM-12+001499999V0201401N009019999999N999999999+00271-00611999999REMSYN03001015 46/// /1409 10027 21061=
0039010150999992016012715004+69600+017833FM-12+001499999V0201501N009019999999N999999999+00301-00771999999REMSYN03001015 46/// /1509 10030 21077=
0039010150999992016012716004+69600+017833FM-12+001499999V0201501N008019999999N999999999+00271-00661999999REMSYN03001015 46/// /1508 10027 21066=
0039010150999992016012717004+69600+017833FM-12+001499999V0201501N008019999999N999999999+00231-00511999999REMSYN03001015 46/// /1508 10023 21051=
0055010150999992016012718004+69600+017833FM-12+001499999V020999999999999999999999999999+99999+99999999999REMSYN04601015 46/// /1409 10004 21017 333 10034 91114=
0039010150999992016012719004+69600+017833FM-12+001499999V0202601N015019999999N999999999+00311+00021999999REMSYN03001015 46/// /2615 10031 20002=
0056010150999992016012720004+69601+017830FM-12+001499999V0202611N0132199999999999999999+00301+00001999999ADDKA1010M+00311KA2010N+00261OD130102291999REMSYN004BUFR
0039010150999992016012721004+69600+017833FM-12+001499999V0202401N009019999999N999999999+00361-00301999999REMSYN03001015 46/// /2409 10036 21030=
0039010150999992016012722004+69600+017833FM-12+001499999V0202501N011019999999N999999999+00301-00271999999REMSYN03001015 46/// /2511 10030 21027=
0039010150999992016012723004+69600+017833FM-12+001499999V0202301N005019999999N999999999+00361-00411999999REMSYN03001015 46/// /2305 10036 21041=
0049010150999992016012800004+69600+017833FM-12+001499999V020999999999999999999999999999+99999+99999999999REMSYN04001015 46/// /2609 10026 21010 333 91123=
0039010150999992016012801004+69600+017833FM-12+001499999V0202401N003019999999N999999999+00211-00171999999REMSYN03001015 46/// /2403 10021 21017=
0039010150999992016012802004+69600+017833FM-12+001499999V0202501N005019999999N999999999+00251-00151999999REMSYN03001015 46/// /2505 10025 21015=
0039010150999992016012803004+69600+017833FM-12+001499999V0202501N007019999999N999999999+00291-00241999999REMSYN03001015 46/// /2507 10029 21024=
0039010150999992016012804004+69600+017833FM-12+001499999V0202701N007019999999N999999999+00251-00131999999REMSYN03001015 46/// /2707 10025 21013=
0039010150999992016012805004+69600+017833FM-12+001499999V0201601N004019999999N999999999+00181-00041999999REMSYN03001015 46/// /1604 10018 21004=
0056010150999992016012806004+69601+017830FM-12+001499999V0201381N0041199999999999999999+00191-00081999999ADDKA1120M+00381KA2120N+00031OD130601921999REMSYN004BUFR
0039010150999992016012807004+69600+017833FM-12+001499999V0201601N004019999999N999999999+00231-00241999999REMSYN03001015 46/// /1604 10023 21024=
0056010150999992016012808004+69601+017830FM-12+001499999V0201281N0016199999999999999999+00241-00311999999ADDKA1010M+00251KA2010N+00211OD130100781999REMSYN004BUFR
0039010150999992016012809004+69600+017833FM-12+001499999V0201701N004019999999N999999999+00291-00431999999REMSYN03001015 46/// /1704 10029 21043=
0039010150999992016012810004+69600+017833FM-12+001499999V0201601N008019999999N999999999+00211-00241999999REMSYN03001015 46/// /1608 10021 21024=
0039010150999992016012811004+69600+017833FM-12+001499999V0201501N011019999999N999999999+00211-00341999999REMSYN03001015 46/// /1511 10021 21034=
0056010150999992016012812004+69601+017830FM-12+001499999V0201381N0106199999999999999999+00241-00331999999ADDKA1010M+00261KA2010N+00201OD130601571999REMSYN004BUFR
0039010150999992016012813004+69600+017833FM-12+001499999V0201401N011019999999N999999999+00231-00341999999REMSYN03001015 46/// /1411 10023 21034=
0039010150999992016012814004+69600+017833FM-12+001499999V0201501N004019999999N999999999+00301-00271999999REMSYN03001015 46/// /1504 10030 21027=
0039010150999992016012815004+69600+017833FM-12+001499999V0203201N003019999999N999999999+00261-00101999999REMSYN03001015 46/// /3203 10026 21010=
0039010150999992016012816004+69600+017833FM-12+001499999V0201401N003019999999N999999999+00311-00261999999REMSYN03001015 46/// /1403 10031 21026=
0039010150999992016012817004+69600+017833FM-12+001499999V0201701N005019999999N999999999+00331-00301999999REMSYN03001015 46/// /1705 10033 21030=
0055010150999992016012818004+69600+017833FM-12+001499999V020999999999999999999999999999+99999+99999999999REMSYN04601015 46/// /1707 10029 21034 333 10035 91114=
0039010150999992016012819004+69600+017833FM-12+001499999V0201601N008019999999N999999999+00261-00311999999REMSYN03001015 46/// /1608 10026 21031=
0039010150999992016012820004+69600+017833FM-12+001499999V0201601N009019999999N999999999+00271-00321999999REMSYN03001015 46/// /1609 10027 21032=
0039010150999992016012821004+69600+017833FM-12+001499999V0201401N010019999999N999999999+00201-00371999999REMSYN03001015 46/// /1410 10020 21037=
0039010150999992016012822004+69600+017833FM-12+001499999V0201301N011019999999N999999999+00161-00381999999REMSYN03001015 46/// /1311 10016 21038=
0039010150999992016012823004+69600+017833FM-12+001499999V0201401N011019999999N999999999+00201-00431999999REMSYN03001015 46/// /1411 10020 21043=
0049010150999992016012900004+69600+017833FM-12+001499999V020999999999999999999999999999+99999+99999999999REMSYN04001015 46/// /1411 10014 21042 333 91117=
0039010150999992016012901004+69600+017833FM-12+001499999V0201501N011019999999N999999999+00271-00611999999REMSYN03001015 46/// /1511 10027 21061=
