0217010260999992016010100004+69654+018937FM-12+010099999V0202061N0080199999999075000199+00521-00321101151ADDAA101999999AA206999999AY121061AY211061GA1041+020001041GA2999+999999021GE19MSL   +99999+99999GF107991041999020001999999KA1010M+00591KA2010N+00521MA1999999099741MD1310011+9999MW1031OC101261OD130601721999REMSYN004BUFR
0110010260999992016010101004+69650+018933FM-12+011599999V0201801N012019999999N999999999+00431-00361101051ADDAA101000091MA1999999099641MD1810091+9999REMSYN05801026 26/// /1812 10043 21036 39964 40105 58009 333 60005=
0104010260999992016010102004+69654+018937FM-12+010099999V0201901N0123199999999999999999+00421-00421101101ADDAA101999999KA1010M+00441KA2010N+00401MA1999999099691MD1510041+9999OC101821OD130102021999REMSYN004BUFR
0224010260999992016010103004+69650+018933FM-12+011599999V0201901N012019999999N070001199+00441-00481101141ADDAA101000091AY121021AY221021GA1041+022501041GA2999+999999021GE19MSL   +99999+99999GF108991041999022501999999MA1999999099731MD1510011+9999MW1021REMSYN07001026 21889 81912 10044 21048 39973 40114 55001 70222 84018 333 60005=
0104010260999992016010104004+69654+018937FM-12+010099999V0201921N0094199999999999999999+00491-00551101311ADDAA101999999KA1010M+00501KA2010N+00441MA1999999099901MD1310251+9999OC101751OD130101961999REMSYN004BUFR
0104010260999992016010105004+69654+018937FM-12+010099999V0202061N0104199999999999999999+00421-00481101451ADDAA101999999KA1010M+00521KA2010N+00421MA1999999100031MD1310341+9999OC101731OD130101731999REMSYN004BUFR
0309010260999992016010106004+69650+018933FM-12+011599999V0202101N011019999999N070001199+00431-00411101481ADDAA112000091AA224000091AJ100393100390099AY121021AY221021GA1021+022501031GA2999+999999021GE19MSL   +99999+99999GF107991021999022501999999IA1279KA1240N+00131MA1999999100061MD1110331+9999MW1021OD139902101999REMSYN09401026 11889 72111 10043 21041 30006 40148 51033 60002 70222 82048 333 20013 43039 70000 91121=
0104010260999992016010107004+69654+018937FM-12+010099999V0201921N0109199999999999999999+00421-00391101531ADDAA101999999KA1010M+00461KA2010N+00421MA1999999100111MD1110201+9999OC101831OD130101921999REMSYN004BUFR
0110010260999992016010108004+69650+018933FM-12+011599999V0202001N012019999999N999999999+00401-00261101611ADDAA101000091MA1999999100191MD1310161+9999REMSYN05801026 26/// /2012 10040 21026 30019 40161 53016 333 60005=
0240010260999992016010109004+69650+018933FM-12+011599999V0201901N013019999999N070001199+00401-00261101631ADDAA101000091AY121021AY221021GA1011+012501081GA2999+999999031GA3999+999999021GE19MSL   +99999+99999GF107991011999012501999999MA1999999100211MD1110141+9999MW1021REMSYN07001026 21689 71913 10040 21026 30021 40163 51014 70222 81178 333 60005=
0110010260999992016010110004+69650+018933FM-12+011599999V0201901N007019999999N999999999+00391-00271101701ADDAA101000091MA1999999100281MD1310171+9999REMSYN05801026 26/// /1907 10039 21027 30028 40170 53017 333 60005=
0104010260999992016010111004+69654+018937FM-12+010099999V0201951N0083199999999999999999+00391-00261101771ADDAA101999999KA1010M+00401KA2010N+00351MA1999999100351MD1310161+9999OC101391OD130101391999REMSYN004BUFR
0260010260999992016010112004+69650+018933FM-12+011599999V0202001N008019999999N070001199+00381-00291101841ADDAA106000091AY121021AY221021GA1011+017501081GA2999+999999031GA3999+999999021GE19MSL   +99999+99999GF107991011999017501999999MA1999999100411MD1110211+9999MW1021OD139901901999REMSYN07601026 11789 72008 10038 21029 30041 40184 51021 60001 70222 81178 333 91119=
0110010260999992016010113004+69650+018933FM-12+011599999V0201901N008019999999N999999999+00391-00331101871ADDAA101000091MA1999999100441MD1110161+9999REMSYN05801026 26/// /1908 10039 21033 30044 40187 51016 333 60005=
0110010260999992016010114004+69650+018933FM-12+011599999V0202101N009019999999N999999999+00341-00291101921ADDAA101000091MA1999999100491MD1110121+9999REMSYN05801026 26/// /2109 10034 21029 30049 40192 51012 333 60005=
0224010260999992016010115004+69650+018933FM-12+011599999V0201901N008019999999N070001199+00331-00321101901ADDAA101000091AY121021AY221021GA1011+999999031GA2999+999999021GE19MSL   +99999+99999GF108991011999999999999999MA1999999100471MD1990061+9999MW1021REMSYN07001026 21989 81908 10033 21032 30047 40190 50006 70222 81038 333 60005=
0104010260999992016010116004+69654+018937FM-12+010099999V0201981N0091199999999999999999+00341-00311101921ADDAA101999999KA1010M+00371KA2010N+00331MA1999999100491MD1010051+9999OC101381OD130101591999REMSYN004BUFR
0110010260999992016010117004+69650+018933FM-12+011599999V0201901N009019999999N999999999+00331-00281102051ADDAA101000091MA1999999100621MD1310131+9999REMSYN05801026 26/// /1909 10033 21028 30062 40205 53013 333 60005=
0217010260999992016010118004+69654+018937FM-12+010099999V0201971N0085199999999075000199+00341-00371102171ADDAA101999999AA212999999AY121061AY221061GA1011+025001031GA2999+999999021GE19MSL   +99999+99999GF108991011999025001999999KA1120M+00461KA2120N+00321MA1999999100741MD1310271+9999MW1021OC101341OD130601671999REMSYN004BUFR
0110010260999992016010119004+69650+018933FM-12+011599999V0201901N008019999999N999999999+00361-00391102261ADDAA101000091MA1999999100831MD1110351+9999REMSYN05801026 26/// /1908 10036 21039 30083 40226 51035 333 60005=
0110010260999992016010120004+69650+018933FM-12+011599999V0201901N010019999999N999999999+00341-00351102341ADDAA101000091MA1999999100911MD1110281+9999REMSYN05801026 26/// /1910 10034 21035 30091 40234 51028 333 60005=
0222010260999992016010121004+69654+018937FM-12+010099999V0201971N0104199999999075000199+00391-00411102431ADDAA101999999AY121031AY221031GA1011+015001061GA2999+999999031GA3999+999999021GE19MSL   +99999+99999GF108991011999015001999999KA1010M+00411KA2010N+00341MA1999999101001MD1010241+9999MW1031OC101561OD130101561999REMSYN004BUFR
0110010260999992016010122004+69650+018933FM-12+011599999V0202001N010019999999N999999999+00431-00441102541ADDAA101000091MA1999999101111MD1310281+9999REMSYN05801026 26/// /2010 10043 21044 30111 40254 53028 333 60005=
0104010260999992016010123004+69654+018937FM-12+010099999V0201921N0080199999999999999999+00371-00421102691ADDAA101999999KA1010M+00471KA2010N+00361MA1999999101251MD1310341+9999OC101221OD130101451999REMSYN004BUFR
0244010260999992016010200004+69650+018933FM-12+011599999V0201901N008019999999N070001199+00391-00421102731ADDAA106000091AY121021AY221021GA1041+017501061GA2999+999999031GE19MSL   +99999+99999GF108991041999017501999999MA1999999101291MD1110281+9999MW1021OD139901601999REMSYN07601026 11789 81908 10039 21042 30129 40273 51028 60001 70222 8457/ 333 91116=
0110010260999992016010201004+69650+018933FM-12+011599999V0202001N008019999999N999999999+00391-00421102801ADDAA101000091MA1999999101361MD1110251+9999REMSYN05801026 26/// /2008 10039 21042 30136 40280 51025 333 60005=
0104010260999992016010202004+69654+018937FM-12+010099999V0202021N0074199999999999999999+00371-00421102901ADDAA101999999KA1010M+00411KA2010N+00361MA1999999101461MD1310211+9999OC101101OD130101231999REMSYN004BUFR
0224010260999992016010203004+69650+018933FM-12+011599999V0202101N007019999999N070001199+00371-00421102981ADDAA101000091AY121021AY221021GA1031+017501061GA2999+999999031GE19MSL   +99999+99999GF108991031999017501999999MA1999999101541MD1310261+9999MW1021REMSYN07001026 21789 82107 10037 21042 30154 40298 53026 70222 8357/ 333 60005=
0110010260999992016010204004+69650+018933FM-12+011599999V0202001N006019999999N999999999+00361-00431103081ADDAA101000091MA1999999101641MD1110281+9999REMSYN05801026 26/// /2006 10036 21043 30164 40308 51028 333 60005=
0110010260999992016010205004+69650+018933FM-12+011599999V0202001N006019999999N999999999+00341-00351103161ADDAA101000091MA1999999101711MD1110251+9999REMSYN05801026 26/// /2006 10034 21035 30171 40316 51025 333 60005=
0256010260999992016010206004+69654+018937FM-12+010099999V0201961N0057199999999075000199+00321-00301103231ADDAA101999999AA224390092AJ199999999999999AY121061AY221061GA1011+015001061GA2999+999999031GA3999+999999021GE19MSL   +99999+99999GF103991011999015001999999IA1279KA1120M+00471KA2120N+00301MA1999999101781MD1110231+9999MW1011OC100831OD130601431999REMSYN004BUFR
0104010260999992016010207004+69654+018937FM-12+010099999V0202041N0067199999999999999999+00271-00281103271ADDAA101999999KA1010M+00311KA2010N+00271MA1999999101821MD1210181+9999OC100991OD130101041999REMSYN004BUFR
0110010260999992016010208004+69650+018933FM-12+011599999V0202001N005019999999N999999999+00241-00321103351ADDAA101000091MA1999999101901MD1310181+9999REMSYN05801026 26/// /2005 10024 21032 30190 40335 53018 333 60005=
0190010260999992016010209004+69654+018937FM-12+010099999V0202051N0053199999999075000199+00271-00321103391ADDAA101999999AY101031AY201031GA1999+025001001GE19MSL   +99999+99999GF101991999999025001999999KA1010M+00301KA2010N+00221MA1999999101941MD1310161+9999MW1021OC100731OD130100871999REMSYN004BUFR
0110010260999992016010210004+69650+018933FM-12+011599999V0202001N003019999999N999999999+00151-00301103441ADDAA101000091MA1999999101981MD1110171+9999REMSYN05801026 26/// /2003 10015 21030 30198 40344 51017 333 60005=
0104010260999992016010211004+69654+018937FM-12+010099999V0202031N0056199999999999999999+00171-00381103491ADDAA101999999KA1010M+00201KA2010N+00111MA1999999102031MD1210131+9999OC100861OD130100861999REMSYN004BUFR
0193010260999992016010212004+69654+018937FM-12+010099999V0202081N0029199999999075000199+00091-00361103501ADDAA101999999AA206999999AY101061AY201061GA1999+025001001GE19MSL   +99999+99999GF101991999999025001999999KA1010M+00181KA2010N+00101MA1999999102041MD1210101+9999MW1011OD130601041999REMSYN004BUFR
0110010260999992016010213004+69650+018933FM-12+011599999V0202001N001019999999N999999999-00041-00371103531ADDAA101000091MA1999999102061MD1210081+9999REMSYN05801026 26/// /2001 11004 21037 30206 40353 52008 333 60005=
0110010260999992016010214004+69650+018933FM-12+011599999V0201201N001019999999N999999999-00161-00471103541ADDAA101000091MA1999999102061MD1210041+9999REMSYN05801026 26/// /1201 11016 21047 30206 40354 52004 333 60005=
0224010260999992016010215004+69650+018933FM-12+011599999V0200701N002019999999N070001199-00171-00411103511ADDAA101000091AY101021AY201021GA1011+022501031GA2999+999999001GE19MSL   +99999+99999GF101991011999022501999999MA1999999102031MD1990001+9999MW1021REMSYN07001026 21889 10702 11017 21041 30203 40351 50000 70200 81031 333 60005=
0110010260999992016010216004+69650+018933FM-12+011599999V0203001N001019999999N999999999-00251-00441103451ADDAA101000091MA1999999101971MD1810091+9999REMSYN05801026 26/// /3001 11025 21044 30197 40345 58009 333 60005=
0082010260999992016010217004+69654+018937FM-12+010099999V0203271N0020199999999999999999-00201-00391103411ADDAA101999999KA1010M-00201KA2010N-00331MA1999999101931MD1810131+9999REMSYN004BUFR
0266010260999992016010218004+69650+018933FM-12+011599999V0201901N002019999999N070001199-00131-00401103381ADDAA112000091AY101021AY201021GA1999+999999001GE19MSL   +99999+99999GF101991001999999999999999KA1120M+00311MA1999999101911MD1610131+9999MW1021OD139900401999REMSYN08201026 11989 11902 11013 21040 30191 40338 56013 60002 70200 80001 333 10031 91104=EQDQ01    003SCCGA1
0110010260999992016010219004+69650+018933FM-12+011599999V0201901N004019999999N999999999+00061-00471103321ADDAA101000091MA1999999101861MD1710111+9999REMSYN05801026 26/// /1904 10006 21047 30186 40332 57011 333 60005=
0110010260999992016010220004+69650+018933FM-12+011599999V0201901N003019999999N999999999+00001-00471103291ADDAA101000091MA1999999101821MD1810111+9999REMSYN05801026 26/// /1903 10000 21047 30182 40329 58011 333 60005=
0227010260999992016010221004+69650+018933FM-12+011599999V0202001N004019999999N070001199+00021-00551103241ADDAA101000091AY101021AY201021GA1999+999999001GE19MSL   +99999+99999GF101991001999999999999999MA1999999101781MD1710131+9999MW1021REMSYN07001026 21989 12004 10002 21055 30178 40324 57013 70200 80001 333 60005=EQDQ01    003SCCGA1
0110010260999992016010222004+69650+018933FM-12+011599999V0201901N005019999999N999999999+00051-00541103231ADDAA101000091MA1999999101771MD1710091+9999REMSYN05801026 26/// /1905 10005 21054 30177 40323 57009 333 60005=
0104010260999992016010223004+69654+018937FM-12+010099999V0202031N0052199999999999999999+00041-00581103221ADDAA101999999KA1010M+00111KA2010N+00051MA1999999101761MD1710061+9999OC100831OD130100901999REMSYN004BUFR
0158010260999992016010300004+69650+018933FM-12+011599999V0202101N004019999999N070001199-00011-00551103241ADDAA106000091AY101021AY201021MA1999999101771MD1710011+9999MW1021OD139900901999REMSYN07001026 11989 02104 11001 21055 30177 40324 57001 60001 70200 333 91109=
0110010260999992016010301004+69650+018933FM-12+011599999V0202001N003019999999N999999999-00071-00571103211ADDAA101000091MA1999999101741MD1710031+9999REMSYN05801026 26/// /2003 11007 21057 30174 40321 57003 333 60005=
0110010260999992016010302004+69650+018933FM-12+011599999V0201901N004019999999N999999999-00091-00631103181ADDAA101000091MA1999999101711MD1710051+9999REMSYN05801026 26/// /1904 11009 21063 30171 40318 57005 333 60005=
0138010260999992016010303004+69650+018933FM-12+011599999V0202001N005019999999N070001199-00141-00691103141ADDAA101000091AY101021AY201021MA1999999101671MD1810091+9999MW1021REMSYN06401026 21989 02005 11014 21069 30167 40314 58009 70200 333 60005=
0110010260999992016010304004+69650+018933FM-12+011599999V0202001N004019999999N999999999-00171-00711103091ADDAA101000091MA1999999101621MD1810121+9999REMSYN05801026 26/// /2004 11017 21071 30162 40309 58012 333 60005=
0110010260999992016010305004+69650+018933FM-12+011599999V0202101N003019999999N999999999-00241-00731103021ADDAA101000091MA1999999101551MD1810151+9999REMSYN05801026 26/// /2103 11024 21073 30155 40302 58015 333 60005=
0178010260999992016010306004+69654+018937FM-12+010099999V0202071N0024122000199075000199-00301-00771102981ADDAA101999999AA224380092AJ199999999999999AY101061AY201061GF100991999999999999999999IA1279KA1120M+00111KA2120N-00301MA1999999101501MD1710171+9999MW1021OD130600841999REMSYN004BUFR
0082010260999992016010307004+69654+018937FM-12+010099999V0202181N0025199999999999999999-00321-00791102901ADDAA101999999KA1010M-00301KA2010N-00331MA1999999101421MD1710191+9999REMSYN004BUFR
0082010260999992016010308004+69654+018937FM-12+010099999V0202141N0021199999999999999999-00371-00771102861ADDAA101999999KA1010M-00331KA2010N-00371MA1999999101381MD1710171+9999REMSYN004BUFR
0227010260999992016010309004+69650+018933FM-12+011599999V0202801N002019999999N070001199-00511-00741102801ADDAA101000091AY101021AY201021GA1999+999999001GE19MSL   +99999+99999GF101991001999999999999999MA1999999101311MD1610191+9999MW1021REMSYN07001026 21989 12802 11051 21074 30131 40280 56019 70200 80001 333 60005=EQDQ01    003SCCGA1
0082010260999992016010310004+69654+018937FM-12+010099999V0200491N0010199999999999999999-00551-00761102741ADDAA101999999KA1010M-00461KA2010N-00571MA1999999101251MD1710171+9999REMSYN004BUFR
0082010260999992016010311004+69654+018937FM-12+010099999V0201741N0016199999999999999999-00521-00701102651ADDAA101999999KA1010M-00471KA2010N-00581MA1999999101171MD1710211+9999REMSYN004BUFR
0244010260999992016010312004+69650+018933FM-12+011599999V0202401N001019999999N070001199-00621-00771102581ADDAA106000091AY101021AY201021GA1011+017501081GA2999+999999021GE19MSL   +99999+99999GF101991011999017501999999MA1999999101091MD1710221+9999MW1021OD139900401999REMSYN07601026 11789 12401 11062 21077 30109 40258 57022 60001 70200 81108 333 91104=
0082010260999992016010313004+69654+018937FM-12+010099999V0201601N0005199999999999999999-00601-00821102511ADDAA101999999KA1010M-00551KA2010N-00641MA1999999101021MD1710231+9999REMSYN004BUFR
0110010260999992016010314004+69650+018933FM-12+011599999V0202501N002019999999N999999999-00431-00781102411ADDAA101000091MA1999999100931MD1710241+9999REMSYN05801026 26/// /2502 11043 21078 30093 40241 57024 333 60005=
0168010260999992016010315004+69654+018937FM-12+010099999V0202111N0020199999999075000199-00521-00951102341ADDAA101999999AY101031AY201031GA1999+025001021GE19MSL   +99999+99999GF101991999999025001999999KA1010M-00431KA2010N-00571MA1999999100861MD1710231+9999MW1021REMSYN004BUFR
0110010260999992016010316004+69650+018933FM-12+011599999V0202201N003019999999N999999999-00401-00891102271ADDAA101000091MA1999999100801MD1610211+9999REMSYN05801026 26/// /2203 11040 21089 30080 40227 56021 333 60005=
0110010260999992016010317004+69650+018933FM-12+011599999V0202101N004019999999N999999999-00381-01001102191ADDAA101000091MA1999999100721MD1810201+9999REMSYN05801026 26/// /2104 11038 21100 30072 40219 58020 333 60005=
0266010260999992016010318004+69650+018933FM-12+011599999V0202101N005019999999N070001199-00351-01001102121ADDAA112000091AY101021AY201021GA1999+999999001GE19MSL   +99999+99999GF102991001999999999999999KA1120M-00301MA1999999100651MD1810211+9999MW1021OD139900701999REMSYN08201026 11989 22105 11035 21100 30065 40212 58021 60002 70200 80001 333 11030 91107=EQDQ01    003SCCGA1
0110010260999992016010319004+69650+018933FM-12+011599999V0201901N002019999999N999999999-00461-00991102101ADDAA101000091MA1999999100631MD1610171+9999REMSYN05801026 26/// /1902 11046 21099 30063 40210 56017 333 60005=
0104010260999992016010320004+69654+018937FM-12+010099999V0201891N0056199999999999999999-00391-01071102061ADDAA101999999KA1010M-00381KA2010N-00471MA1999999100591MD1610131+9999OC100931OD130100931999REMSYN004BUFR
0190010260999992016010321004+69654+018937FM-12+010099999V0201921N0082199999999075000199-00351-01011102031ADDAA101999999AY101031AY201031GA1999+025001001GE19MSL   +99999+99999GF101991999999025001999999KA1010M-00351KA2010N-00401MA1999999100561MD1710081+9999MW1021OC101401OD130101401999REMSYN004BUFR
0110010260999992016010322004+69650+018933FM-12+011599999V0201901N009019999999N999999999-00381-00931102011ADDAA101000091MA1999999100541MD1610091+9999REMSYN05801026 26/// /1909 11038 21093 30054 40201 56009 333 60005=
0104010260999992016010323004+69654+018937FM-12+010099999V0202001N0087199999999999999999-00321-00971101951ADDAA101999999KA1010M-00321KA2010N-00381MA1999999100491MD1810101+9999OC101551OD130101611999REMSYN004BUFR
0247010260999992016010400004+69650+018933FM-12+011599999V0201901N009019999999N070001199-00331-00991101961ADDAA106000091AY101021AY201021GA1999+999999001GE19MSL   +99999+99999GF101991001999999999999999MA1999999100501MD1710061+9999MW1021OD139901601999REMSYN07601026 11989 11909 11033 21099 30050 40196 57006 60001 70200 80001 333 91116=EQDQ01    003SCCGA1
0110010260999992016010401004+69650+018933FM-12+011599999V0201901N009019999999N999999999-00331-01101101991ADDAA101000091MA1999999100531MD1510011+9999REMSYN05801026 26/// /1909 11033 21110 30053 40199 55001 333 60005=
0110010260999992016010402004+69650+018933FM-12+011599999V0201901N010019999999N999999999-00371-01131101991ADDAA101000091MA1999999100521MD1990041+9999REMSYN05801026 26/// /1910 11037 21113 30052 40199 50004 333 60005=
0190010260999992016010403004+69654+018937FM-12+010099999V0201941N0084199999999075000199-00401-01191102001ADDAA101999999AY101031AY201031GA1999+025001001GE19MSL   +99999+99999GF101991999999025001999999KA1010M-00361KA2010N-00401MA1999999100531MD1010031+9999MW1021OC101581OD130101581999REMSYN004BUFR
0110010260999992016010404004+69650+018933FM-12+011599999V0202001N008019999999N999999999-00491-01191102031ADDAA101000091MA1999999100561MD1310031+9999REMSYN05801026 26/// /2008 11049 21119 30056 40203 53003 333 60005=
0110010260999992016010405004+69650+018933FM-12+011599999V0201901N010019999999N999999999-00591-01321102081ADDAA101000091MA1999999100601MD1310071+9999REMSYN05801026 26/// /1910 11059 21132 30060 40208 53007 333 60005=
0312010260999992016010406004+69650+018933FM-12+011599999V0202001N010019999999N070001199-00661-01341102111ADDAA112000091AA224000091AJ100363100360099AY101021AY201021GA1999+999999001GE19MSL   +99999+99999GF101991001999999999999999IA1279KA1240N-00671MA1999999100631MD1210101+9999MW1021OD139901701999REMSYN09401026 11989 12010 11066 21134 30063 40211 52010 60002 70200 80001 333 21067 43036 70000 91117=EQDQ01    003SCCGA1
0110010260999992016010407004+69650+018933FM-12+011599999V0202101N007019999999N999999999-00681-01471102201ADDAA101000091MA1999999100711MD1310161+9999REMSYN05801026 26/// /2107 11068 21147 30071 40220 53016 333 60005=
0104010260999992016010408004+69654+018937FM-12+010099999V0201831N0085199999999999999999-00701-01491102211ADDAA101999999KA1010M-00681KA2010N-00721MA1999999100721MD1110121+9999OC101401OD130101401999REMSYN004BUFR
0190010260999992016010409004+69654+018937FM-12+010099999V0201841N0094199999999075000199-00721-01491102251ADDAA101999999AY101031AY201031GA1999+025001001GE19MSL   +99999+99999GF102991999999025001999999KA1010M-00711KA2010N-00741MA1999999100761MD1110121+9999MW1021OC101341OD130101461999REMSYN004BUFR
0110010260999992016010410004+69650+018933FM-12+011599999V0202001N008019999999N999999999-00741-01421102231ADDAA101000091MA1999999100741MD1990031+9999REMSYN05801026 26/// /2008 11074 21142 30074 40223 50003 333 60005=
0110010260999992016010411004+69650+018933FM-12+011599999V0202001N007019999999N999999999-00731-01441102241ADDAA101000091MA1999999100751MD1990021+9999REMSYN05801026 26/// /2007 11073 21144 30075 40224 50002 333 60005=
0244010260999992016010412004+69650+018933FM-12+011599999V0201901N008019999999N070001199-00761-01511102251ADDAA106000091AY101021AY201021GA1011+022501031GA2999+999999001GE19MSL   +99999+99999GF102991011999022501999999MA1999999100761MD1510001+9999MW1021OD139901501999REMSYN07601026 11889 21908 11076 21151 30076 40225 55000 60001 70200 81041 333 91115=
0110010260999992016010413004+69650+018933FM-12+011599999V0201901N004019999999N999999999-00751-01421102241ADDAA101000091MA1999999100751MD1410001+9999REMSYN05801026 26/// /1904 11075 21142 30075 40224 54000 333 60005=
0110010260999992016010414004+69650+018933FM-12+011599999V0201701N003019999999N999999999-00721-01391102271ADDAA101000091MA1999999100781MD1310041+9999REMSYN05801026 26/// /1703 11072 21139 30078 40227 53004 333 60005=
0224010260999992016010415004+69650+018933FM-12+011599999V0202201N002019999999N070001199-00781-01391102311ADDAA101000091AY101021AY201021GA1021+017501061GA2999+999999031GE19MSL   +99999+99999GF104991021999017501999999MA1999999100821MD1310061+9999MW1021REMSYN07001026 21789 42202 11078 21139 30082 40231 53006 70200 82540 333 60005=
0110010260999992016010416004+69650+018933FM-12+011599999V0202001N003019999999N999999999-00791-01341102281ADDAA101000091MA1999999100791MD1990051+9999REMSYN05801026 26/// /2003 11079 21134 30079 40228 50005 333 60005=
0110010260999992016010417004+69650+018933FM-12+011599999V0202001N005019999999N999999999-00741-01351102301ADDAA101000091MA1999999100811MD1990021+9999REMSYN05801026 26/// /2005 11074 21135 30081 40230 50002 333 60005=
0279010260999992016010418004+69650+018933FM-12+011599999V0202201N004019999999N070001199-00721-01321102251ADDAA112000091AY101021AY201021GA1011+017501061GA2999+999999031GA3999+999999001GE19MSL   +99999+99999GF103991011999017501999999KA1120M-00631MA1999999100761MD1810051+9999MW1021OD139901201999REMSYN08201026 11789 32204 11072 21132 30076 40225 58005 60002 70200 81571 333 11063 91112=
0110010260999992016010419004+69650+018933FM-12+011599999V0202001N007019999999N999999999-00691-01321102211ADDAA101000091MA1999999100721MD1810061+9999REMSYN05801026 26/// /2007 11069 21132 30072 40221 58006 333 60005=
0110010260999992016010420004+69650+018933FM-12+011599999V0202001N002019999999N999999999-00711-01301102241ADDAA101000091MA1999999100751MD1510051+9999REMSYN05801026 26/// /2002 11071 21130 30075 40224 55005 333 60005=
0224010260999992016010421004+69650+018933FM-12+011599999V0201901N003019999999N070001199-00741-01321102221ADDAA101000091AY101021AY201021GA1011+022501031GA2999+999999001GE19MSL   +99999+99999GF101991011999022501999999MA1999999100731MD1510031+9999MW1011REMSYN07001026 21889 11903 11074 21132 30073 40222 55003 70100 81071 333 60005=
0110010260999992016010422004+69650+018933FM-12+011599999V0201901N002019999999N999999999-00811-01411102211ADDAA101000091MA1999999100721MD1990011+9999REMSYN05801026 26/// /1902 11081 21141 30072 40221 50001 333 60005=
0082010260999992016010423004+69654+018937FM-12+010099999V0201921N0016199999999999999999-00841-01471102221ADDAA101999999KA1010M-00811KA2010N-00871MA1999999100721MD1510021+9999REMSYN004BUFR
0244010260999992016010500004+69650+018933FM-12+011599999V0202401N002019999999N070001199-00861-01341102161ADDAA106000091AY101021AY201021GA1011+022501031GA2999+999999001GE19MSL   +99999+99999GF101991011999022501999999MA1999999100661MD1810071+9999MW1021OD139901201999REMSYN07601026 11889 12402 11086 21134 30066 40216 58007 60001 70200 81071 333 91112=
0110010260999992016010501004+69650+018933FM-12+011599999V0202001N003019999999N999999999-00791-01441102111ADDAA101000091MA1999999100621MD1810101+9999REMSYN05801026 26/// /2003 11079 21144 30062 40211 58010 333 60005=
0104010260999992016010502004+69654+018937FM-12+010099999V0202071N0036199999999999999999-00801-01401102081ADDAA101999999KA1010M-00781KA2010N-00821MA1999999100591MD1610131+9999OC100581OD130100581999REMSYN004BUFR
0227010260999992016010503004+69650+018933FM-12+011599999V0202101N002019999999N070001199-00911-01501102041ADDAA101000091AY101021AY201021GA1999+999999001GE19MSL   +99999+99999GF102991001999999999999999MA1999999100541MD1710121+9999MW1021REMSYN07001026 21989 22102 11091 21150 30054 40204 57012 70200 80002 333 60005=EQDQ01    003SCCGA1
0110010260999992016010504004+69650+018933FM-12+011599999V0202001N001019999999N999999999-00981-01391102001ADDAA101000091MA1999999100501MD1710121+9999REMSYN05801026 26/// /2001 11098 21139 30050 40200 57012 333 60005=
0110010260999992016010505004+69650+018933FM-12+011599999V0201901N001019999999N999999999-00991-01401101961ADDAA101000091MA1999999100461MD1710131+9999REMSYN05801026 26/// /1901 11099 21140 30046 40196 57013 333 60005=
0216010260999992016010506004+69654+018937FM-12+010099999V0203151N0014199999999075000199-00991-01371101901ADDAA101999999AA224360092AJ199999999999999AY101061AY201061GA1999+025001021GE19MSL   +99999+99999GF101991999999025001999999IA1279KA1120M-00671KA2120N-01101MA1999999100401MD1710131+9999MW1021OD130600651999REMSYN004BUFR
0110010260999992016010507004+69650+018933FM-12+011599999V0203401N001019999999N999999999-01091-01421101901ADDAA101000091MA1999999100391MD1610101+9999REMSYN05801026 26/// /3401 11109 21142 30039 40190 56010 333 60005=
0110010260999992016010508004+69650+018933FM-12+011599999V0200601N002019999999N999999999-01011-01351101871ADDAA101000091MA1999999100371MD1610081+9999REMSYN05801026 26/// /0602 11101 21135 30037 40187 56008 333 60005=
0224010260999992016010509004+69650+018933FM-12+011599999V0200301N001019999999N070001199-01091-01431101851ADDAA101000091AY101021AY201021GA1011+022501031GA2999+999999021GE19MSL   +99999+99999GF103991011999022501999999MA1999999100351MD1710061+9999MW1021REMSYN07001026 21889 30301 11109 21143 30035 40185 57006 70200 81078 333 60005=
0110010260999992016010510004+69650+018933FM-12+011599999V0200701N001019999999N999999999-01081-01391101801ADDAA101000091MA1999999100301MD1810091+9999REMSYN05801026 26/// /0701 11108 21139 30030 40180 58009 333 60005=
0110010260999992016010511004+69650+018933FM-12+011599999V0200601N001019999999N999999999-01011-01251101761ADDAA101000091MA1999999100261MD1710121+9999REMSYN05801026 26/// /0601 11101 21125 30026 40176 57012 333 60005=
0195010260999992016010512004+69654+018937FM-12+010099999V0200721N0006199999999075000199-01071-01371101731ADDAA101999999AA206999999AY101061AY201061GA1011+020001031GA2999+999999021GE19MSL   +99999+99999GF103991011999020001999999KA1010M-00971KA2010N-01081MA1999999100231MD1710111+9999MW1021REMSYN004BUFR
0110010260999992016010513004+69650+018933FM-12+011599999V0200601N001019999999N999999999-01031-01271101701ADDAA101000091MA1999999100201MD1710111+9999REMSYN05801026 26/// /0601 11103 21127 30020 40170 57011 333 60005=
0110010260999992016010514004+69650+018933FM-12+011599999V0202001N001019999999N999999999-01121-01261101661ADDAA101000091MA1999999100161MD1710091+9999REMSYN05801026 26/// /2001 11112 21126 30016 40166 57009 333 60005=
0224010260999992016010515004+69650+018933FM-12+011599999V0202701N001019999999N070001199-00961-01161101611ADDAA101000091AY101021AY201021GA1011+022501031GA2999+999999021GE19MSL   +99999+99999GF101991011999022501999999MA1999999100121MD1710111+9999MW1021REMSYN07001026 21889 12701 11096 21116 30012 40161 57011 70200 81038 333 60005=
0110010260999992016010516004+69650+018933FM-12+011599999V0200701N001019999999N999999999-01031-01441101591ADDAA101000091MA1999999100091MD1710111+9999REMSYN05801026 26/// /0701 11103 21144 30009 40159 57011 333 60005=
0110010260999992016010517004+69650+018933FM-12+011599999V0200601N001019999999N999999999-01061-01561101561ADDAA101000091MA1999999100061MD1710101+9999REMSYN05801026 26/// /0601 11106 21156 30006 40156 57010 333 60005=
0266010260999992016010518004+69650+018933FM-12+011599999V0200401N001019999999N070000199-00851-01291101531ADDAA112000091AY121021AY201021GA1999+999999021GE19MSL   +99999+99999GF107991001999999999999999KA1120M-00851MA1999999100041MD1710081+9999MW1031OD139900301999REMSYN08201026 11988 70401 11085 21129 30004 40153 57008 60002 70320 80008 333 11085 91103=EQDQ01    003SCCGA1
0110010260999992016010519004+69650+018933FM-12+011599999V0209999C999999999999N999999999-00941-01491101521ADDAA101000091MA1999999100031MD1710051+9999REMSYN05801026 26/// /0000 11094 21149 30003 40152 57005 333 60005=
0110010260999992016010520004+69650+018933FM-12+011599999V0209999C999999999999N999999999-00901-01291101491ADDAA101000091MA1999999100001MD1710061+9999REMSYN05801026 26/// /0000 11090 21129 30000 40149 57006 333 60005=
0227010260999992016010521004+69650+018933FM-12+011599999V0200401N002019999999N070000199-00921-01441101451ADDAA101000091AY121021AY201021GA1999+999999021GE19MSL   +99999+99999GF101991001999999999999999MA1999999099961MD1710071+9999MW1011REMSYN07001026 21988 10402 11092 21144 39996 40145 57007 70120 80008 333 60005=EQDQ01    003SCCGA1
0110010260999992016010522004+69650+018933FM-12+011599999V0200601N002019999999N999999999-00991-01491101421ADDAA101000091MA1999999099931MD1710101+9999REMSYN05801026 26/// /0602 11099 21149 39993 40142 57010 333 60005=
0082010260999992016010523004+69654+018937FM-12+010099999V0200691N0020199999999999999999-00901-01471101421ADDAA101999999KA1010M-00891KA2010N-00991MA1999999099931MD1510071+9999REMSYN004BUFR
0247010260999992016010600004+69650+018933FM-12+011599999V0200601N002019999999N070001199-01011-01511101401ADDAA106000091AY121021AY201021GA1999+999999021GE19MSL   +99999+99999GF101991001999999999999999MA1999999099911MD1710061+9999MW1021OD139900301999REMSYN07601026 11989 10602 11101 21151 39991 40140 57006 60001 70220 80008 333 91103=EQDQ01    003SCCGA1
0082010260999992016010601004+69654+018937FM-12+010099999V0200621N0016199999999999999999-00951-01441101401ADDAA101999999KA1010M-00911KA2010N-01011MA1999999099911MD1710021+9999REMSYN004BUFR
0110010260999992016010602004+69650+018933FM-12+011599999V0200701N002019999999N999999999-01021-01521101411ADDAA101000091MA1999999099921MD1510011+9999REMSYN05801026 26/// /0702 11102 21152 39992 40141 55001 333 60005=
0168010260999992016010603004+69654+018937FM-12+010099999V0200541N0014199999999075000199-01001-01621101421ADDAA101999999AY101031AY201031GA1999+025001021GE19MSL   +99999+99999GF101991999999025001999999KA1010M-00971KA2010N-01081MA1999999099931MD1210021+9999MW1021REMSYN004BUFR
0129010260999992016010604004+69650+018933FM-12+011599999V0200601N001019999999N999999999-00991-01621101411ADDAA101000091MA1999999099921MD1290019+9999REMSYN05801026 26/// /0601 11099 21162 39992 40141 54001 333 60005=EQDQ01.1    3APC3  
0110010260999992016010605004+69650+018933FM-12+011599999V0202001N002019999999N999999999-01021-01461101391ADDAA101000091MA1999999099901MD1810011+9999REMSYN05801026 26/// /2002 11102 21146 39990 40139 58001 333 60005=
0223010260999992016010606004+69650+018933FM-12+011599999V0202001N004019999999N070001199-00891-01331101411ADDAA112000091AA224000091AJ100363100360099AY101021AY201021IA1279KA1240N-01091MA1999999099921MD1510011+9999MW1021OD139900601999REMSYN08801026 11989 02004 11089 21133 39992 40141 55001 60002 70200 333 21109 43036 70000 91106=
0104010260999992016010607004+69654+018937FM-12+010099999V0201971N0039199999999999999999-00901-01351101431ADDAA101999999KA1010M-00891KA2010N-00911MA1999999099941MD1310021+9999OC100581OD130100581999REMSYN004BUFR
0110010260999992016010608004+69650+018933FM-12+011599999V0201901N004019999999N999999999-00931-01321101451ADDAA101000091MA1999999099961MD1210051+9999REMSYN05801026 26/// /1904 11093 21132 39996 40145 52005 333 60005=
0224010260999992016010609004+69650+018933FM-12+011599999V0201901N006019999999N070001199-00911-01331101461ADDAA101000091AY101021AY201021GA1011+008001081GA2999+999999001GE19MSL   +99999+99999GF101991011999008001999999MA1999999099971MD1210051+9999MW1021REMSYN07001026 21589 11906 11091 21133 39997 40146 52005 70200 81101 333 60005=
0104010260999992016010610004+69654+018937FM-12+010099999V0202011N0057199999999999999999-00941-01401101481ADDAA101999999KA1010M-00911KA2010N-00941MA1999999099991MD1210051+9999OC100841OD130100841999REMSYN004BUFR
0110010260999992016010611004+69650+018933FM-12+011599999V0202001N006019999999N999999999-00981-01421101501ADDAA101000091MA1999999100011MD1210051+9999REMSYN05801026 26/// /2006 11098 21142 30001 40150 52005 333 60005=
0247010260999992016010612004+69650+018933FM-12+011599999V0201901N006019999999N070001199-01031-01471101511ADDAA106000091AY101021AY201021GA1999+999999001GE19MSL   +99999+99999GF101991001999999999999999MA1999999100011MD1990041+9999MW1021OD139901001999REMSYN07601026 11989 11906 11103 21147 30001 40151 50004 60001 70200 80001 333 91110=EQDQ01    003SCCGA1
0110010260999992016010613004+69650+018933FM-12+011599999V0202001N005019999999N999999999-01061-01461101541ADDAA101000091MA1999999100041MD1210051+9999REMSYN05801026 26/// /2005 11106 21146 30004 40154 52005 333 60005=
0110010260999992016010614004+69650+018933FM-12+011599999V0202001N006019999999N999999999-01101-01491101551ADDAA101000091MA1999999100051MD1210041+9999REMSYN05801026 26/// /2006 11110 21149 30005 40155 52004 333 60005=
0190010260999992016010615004+69654+018937FM-12+010099999V0201981N0059199999999075000199-01121-01471101551ADDAA101999999AY101031AY201031GA1999+025001001GE19MSL   +99999+99999GF101991999999025001999999KA1010M-01101KA2010N-01131MA1999999100051MD1210051+9999MW1021OC100841OD130100951999REMSYN004BUFR
0104010260999992016010616004+69654+018937FM-12+010099999V0201961N0056199999999999999999-01151-01511101551ADDAA101999999KA1010M-01121KA2010N-01161MA1999999100051MD1210021+9999OC100841OD130100841999REMSYN004BUFR
0110010260999992016010617004+69650+018933FM-12+011599999V0201901N006019999999N999999999-01191-01571101561ADDAA101000091MA1999999100051MD1410001+9999REMSYN05801026 26/// /1906 11119 21157 30005 40156 54000 333 60005=
0177010260999992016010618004+69650+018933FM-12+011599999V0201901N006019999999N070001199-01221-01571101581ADDAA112000091AY101021AY201021KA1120M-00891MA1999999100071MD1210011+9999MW1021OD139901001999REMSYN07601026 11989 01906 11122 21157 30007 40158 52001 60002 70200 333 11089 91110=
0110010260999992016010619004+69650+018933FM-12+011599999V0202001N006019999999N999999999-01221-01541101581ADDAA101000091MA1999999100071MD1210021+9999REMSYN05801026 26/// /2006 11122 21154 30007 40158 52002 333 60005=
0129010260999992016010620004+69650+018933FM-12+011599999V0202001N005019999999N999999999-01241-01571101571ADDAA101000091MA1999999100061MD1290019+9999REMSYN05801026 26/// /2005 11124 21157 30006 40157 54001 333 60005=EQDQ01.1    3APC3  
0227010260999992016010621004+69650+018933FM-12+011599999V0202001N005019999999N070001199-01251-01581101561ADDAA101000091AY101021AY201021GA1011+004501061GE19MSL   +99999+99999GF101991011999004501999999MA1999999100051MD1790029+9999MW1021REMSYN07001026 21489 12005 11125 21158 30005 40156 54001 70200 81500 333 60005=EQDQ01.1    3APC3  
0110010260999992016010622004+69650+018933FM-12+011599999V0201901N005019999999N999999999-01271-01621101551ADDAA101000091MA1999999100041MD1710031+9999REMSYN05801026 26/// /1905 11127 21162 30004 40155 57003 333 60005=
0104010260999992016010623004+69654+018937FM-12+010099999V0201921N0036199999999999999999-01291-01631101561ADDAA101999999KA1010M-01261KA2010N-01291MA1999999100051MD1510011+9999OC100541OD130100711999REMSYN004BUFR
0228010260999992016010700004+69650+018933FM-12+011599999V0202001N004019999999N070001199-01291-01621101551ADDAA106000091AY101021AY201021GA1011+004501061GE19MSL   +99999+99999GF101991011999004501999999MA1999999100041MD1710021+9999MW1021OD139900901999REMSYN07601026 11489 12004 11129 21162 30004 40155 57002 60001 70200 81500 333 91109=
0129010260999992016010701004+69650+018933FM-12+011599999V0201901N003019999999N999999999-01321-01671101551ADDAA101000091MA1999999100041MD1410009+9999REMSYN05801026 26/// /1903 11132 21167 30004 40155 54001 333 60005=EQDQ01.1    3APC3  
0110010260999992016010702004+69650+018933FM-12+011599999V0201901N003019999999N999999999-01331-01691101511ADDAA101000091MA1999999100001MD1710051+9999REMSYN05801026 26/// /1903 11133 21169 30000 40151 57005 333 60005=
0224010260999992016010703004+69650+018933FM-12+011599999V0202101N002019999999N070001199-01381-01681101501ADDAA101000091AY101021AY201021GA1021+004501081GA2999+999999031GE19MSL   +99999+99999GF102991021999004501999999MA1999999099981MD1810051+9999MW1021REMSYN07001026 21489 22102 11138 21168 39998 40150 58005 70200 82860 333 60005=
0110010260999992016010704004+69650+018933FM-12+011599999V0202001N002019999999N999999999-01381-01741101511ADDAA101000091MA1999999099991MD1510051+9999REMSYN05801026 26/// /2002 11138 21174 39999 40151 55005 333 60005=
0082010260999992016010705004+69654+018937FM-12+010099999V0201951N0026199999999999999999-01391-01751101491ADDAA101999999KA1010M-01381KA2010N-01401MA1999999099971MD1710031+9999REMSYN004BUFR
0309010260999992016010706004+69650+018933FM-12+011599999V0202001N002019999999N070001199-01511-01831101511ADDAA112000091AA224000091AJ100363100360099AY101021AY201021GA1011+004501081GA2999+999999031GE19MSL   +99999+99999GF101991011999004501999999IA1279KA1240N-01511MA1999999099991MD1210011+9999MW1021OD139900601999REMSYN09401026 11489 12002 11151 21183 39999 40151 52001 60002 70200 81160 333 21151 43036 70000 91106=
0129010260999992016010707004+69650+018933FM-12+011599999V0202101N001019999999N999999999-01581-01881101521ADDAA101000091MA1999999099991MD1290019+9999REMSYN05801026 26/// /2101 11158 21188 39999 40152 54001 333 60005=EQDQ01.1    3APC3  
0110010260999992016010708004+69650+018933FM-12+011599999V0202201N001019999999N999999999-01591-01881101531ADDAA101000091MA1999999100001MD1210031+9999REMSYN05801026 26/// /2201 11159 21188 30000 40153 52003 333 60005=
0224010260999992016010709004+69650+018933FM-12+011599999V0209999C999999999999N070001199-01681-01921101551ADDAA101000091AY101021AY201021GA1011+008001081GA2999+999999001GE19MSL   +99999+99999GF101991011999008001999999MA1999999100021MD1210021+9999MW1021REMSYN07001026 21589 10000 11168 21192 30002 40155 52002 70200 81101 333 60005=
0110010260999992016010710004+69650+018933FM-12+011599999V0200501N002019999999N999999999-01501-01841101541ADDAA101000091MA1999999100021MD1210031+9999REMSYN05801026 26/// /0502 11150 21184 30002 40154 52003 333 60005=
0110010260999992016010711004+69650+018933FM-12+011599999V0200101N001019999999N999999999-01471-01921101551ADDAA101000091MA1999999100031MD1210031+9999REMSYN05801026 26/// /0101 11147 21192 30003 40155 52003 333 60005=
0244010260999992016010712004+69650+018933FM-12+011599999V0200601N002019999999N065000199-01561-02061101571ADDAA106000091AY101021AY201021GA1011+008001081GA2999+999999001GE19MSL   +99999+99999GF101991011999008001999999MA1999999100041MD1210031+9999MW1021OD139900401999REMSYN07601026 11587 10602 11156 21206 30004 40157 52003 60001 70200 81101 333 91104=
0110010260999992016010713004+69650+018933FM-12+011599999V0200501N002019999999N999999999-01571-02111101571ADDAA101000091MA1999999100041MD1210021+9999REMSYN05801026 26/// /0502 11157 21211 30004 40157 52002 333 60005=
0110010260999992016010714004+69650+018933FM-12+011599999V0200801N001019999999N999999999-01521-02091101571ADDAA101000091MA1999999100051MD1210011+9999REMSYN05801026 26/// /0801 11152 21209 30005 40157 52001 333 60005=
0187010260999992016010715004+69654+018937FM-12+010099999V0200491N0020199999999075000199-01571-02101101581ADDAA101999999AY101031AY201031GA1011+003001061GE19MSL   +99999+99999GF101991011999003001999999KA1010M-01491KA2010N-01601MA1999999100051MD1290019+9999MW1021REMSYN004BUFREQDQ01.1    3APC3  
0110010260999992016010716004+69650+018933FM-12+011599999V0200401N002019999999N999999999-01531-02041101581ADDAA101000091MA1999999100051MD1410001+9999REMSYN05801026 26/// /0402 11153 21204 30005 40158 54000 333 60005=
0110010260999992016010717004+69650+018933FM-12+011599999V0200501N002019999999N999999999-01521-02081101591ADDAA101000091MA1999999100061MD1210021+9999REMSYN05801026 26/// /0502 11152 21208 30006 40159 52002 333 60005=
0093010260999992016010718004+69654+018937FM-12+010099999V0200411N0013199999999999999999-01501-01921101561ADDAA101999999AA212999999KA1120M-01381KA2120N-01691MA1999999100041MD1410001+9999REMSYN004BUFR
0110010260999992016010719004+69650+018933FM-12+011599999V0202801N002019999999N999999999-01481-01681101571ADDAA101000091MA1999999100051MD1410001+9999REMSYN05801026 26/// /2802 11148 21168 30005 40157 54000 333 60005=
0110010260999992016010720004+69650+018933FM-12+011599999V0202301N001019999999N999999999-01491-01751101611ADDAA101000091MA1999999100091MD1310021+9999REMSYN05801026 26/// /2301 11149 21175 30009 40161 53002 333 60005=
0168010260999992016010721004+69654+018937FM-12+010099999V0201981N0009199999999070000199-01601-01941101581ADDAA101999999AY101031AY201031GA1011+003001061GE19MSL   +99999+99999GF101991011999003001999999KA1010M-01491KA2010N-01611MA1999999100051MD1010011+9999MW1021REMSYN004BUFR
0110010260999992016010722004+69650+018933FM-12+011599999V0200601N001019999999N999999999-01601-01861101571ADDAA101000091MA1999999100041MD1810011+9999REMSYN05801026 26/// /0601 11160 21186 30004 40157 58001 333 60005=
0110010260999992016010723004+69650+018933FM-12+011599999V0209999C999999999999N999999999-01611-01841101551ADDAA101000091MA1999999100021MD1710071+9999REMSYN05801026 26/// /0000 11161 21184 30002 40155 57007 333 60005=
0179010260999992016010800004+69654+018937FM-12+010099999V0202461N0009199999999070000199-01521-01701101551ADDAA101999999AA206999999AY101061AY201061GA1011+003001061GE19MSL   +99999+99999GF101991011999003001999999KA1010M-01521KA2010N-01661MA1999999100031MD1710021+9999MW1021REMSYN004BUFR
0110010260999992016010801004+69650+018933FM-12+011599999V0202301N001019999999N999999999-01571-01741101561ADDAA101000091MA1999999100031MD1410001+9999REMSYN05801026 26/// /2301 11157 21174 30003 40156 54000 333 60005=
0110010260999992016010802004+69650+018933FM-12+011599999V0201801N001019999999N999999999-01591-01811101561ADDAA101000091MA1999999100031MD1210011+9999REMSYN05801026 26/// /1801 11159 21181 30003 40156 52001 333 60005=
0168010260999992016010803004+69654+018937FM-12+010099999V0201931N0021199999999070000199-01491-01661101491ADDAA101999999AY101031AY201031GA1011+003001061GE19MSL   +99999+99999GF101991011999003001999999KA1010M-01491KA2010N-01611MA1999999099971MD1810061+9999MW1021REMSYN004BUFR
0082010260999992016010804004+69654+018937FM-12+010099999V0201751N0015199999999999999999-01451-01651101461ADDAA101999999KA1010M-01431KA2010N-01491MA1999999099941MD1810091+9999REMSYN004BUFR
0110010260999992016010805004+69650+018933FM-12+011599999V0200901N001019999999N999999999-01521-01731101431ADDAA101000091MA1999999099911MD1610111+9999REMSYN05801026 26/// /0901 11152 21173 39991 40143 56011 333 60005=
0202010260999992016010806004+69654+018937FM-12+010099999V0202381N0013199999999070000199-01421-01591101431ADDAA101999999AA224360092AJ199999999999999AY101061AY201061GA1011+003001061GE19MSL   +99999+99999GF101991011999003001999999IA1279KA1120M-01401KA2120N-01681MA1999999099911MD1710061+9999MW1021REMSYN004BUFR
0110010260999992016010807004+69650+018933FM-12+011599999V0200701N001019999999N999999999-01411-01571101431ADDAA101000091MA1999999099911MD1510031+9999REMSYN05801026 26/// /0701 11141 21157 39991 40143 55003 333 60005=
0082010260999992016010808004+69654+018937FM-12+010099999V0202401N0006199999999999999999-01371-01521101411ADDAA101999999KA1010M-01361KA2010N-01501MA1999999099901MD1710021+9999REMSYN004BUFR
0200010260999992016010809004+69654+018937FM-12+010099999V0202311N0013199999999070000199-01301-01421101371ADDAA101999999AY101031AY201031GA1011+003001061GA2999+999999031GA3999+999999001GE19MSL   +99999+99999GF101991011999003001999999KA1010M-01291KA2010N-01421MA1999999099861MD1810051+9999MW1021REMSYN004BUFR
0110010260999992016010810004+69650+018933FM-12+011599999V0202301N002019999999N999999999-01261-01381101361ADDAA101000091MA1999999099851MD1710051+9999REMSYN05801026 26/// /2302 11126 21138 39985 40136 57005 333 60005=
0110010260999992016010811004+69650+018933FM-12+011599999V0202001N002019999999N999999999-01181-01291101351ADDAA101000091MA1999999099851MD1610051+9999REMSYN05801026 26/// /2002 11118 21129 39985 40135 56005 333 60005=
0093010260999992016010812004+69654+018937FM-12+010099999V0201881N0021199999999999999999-01121-01231101331ADDAA101999999AA206999999KA1010M-01121KA2010N-01181MA1999999099831MD1710031+9999REMSYN004BUFR
0110010260999992016010813004+69650+018933FM-12+011599999V0201901N002019999999N999999999-01011-01101101291ADDAA101000091MA1999999099801MD1710051+9999REMSYN05801026 26/// /1902 11101 21110 39980 40129 57005 333 60005=
0110010260999992016010814004+69650+018933FM-12+011599999V0201901N003019999999N999999999-00921-01001101271ADDAA101000131MA1999999099781MD1710071+9999REMSYN05801026 26/// /1903 11092 21100 39978 40127 57007 333 69915=
0082010260999992016010815004+69654+018937FM-12+010099999V0202041N0030199999999999999999-00871-00961101261ADDAA101999999KA1010M-00881KA2010N-00941MA1999999099781MD1710061+9999REMSYN004BUFR
0110010260999992016010816004+69650+018933FM-12+011599999V0201901N003019999999N999999999-00861-00941101221ADDAA101000091MA1999999099741MD1710061+9999REMSYN05801026 26/// /1903 11086 21094 39974 40122 57006 333 60005=
0110010260999992016010817004+69650+018933FM-12+011599999V0202001N003019999999N999999999-00821-00891101211ADDAA101000091MA1999999099731MD1710051+9999REMSYN05801026 26/// /2003 11082 21089 39973 40121 57005 333 60005=
0093010260999992016010818004+69654+018937FM-12+010099999V0202011N0026199999999999999999-00771-00851101201ADDAA101999999AA212000131KA1120M-00781KA2120N-01501MA1999999099721MD1510051+9999REMSYN004BUFR
0110010260999992016010819004+69650+018933FM-12+011599999V0202101N003019999999N999999999-00761-00831101211ADDAA101000091MA1999999099731MD1510011+9999REMSYN05801026 26/// /2103 11076 21083 39973 40121 55001 333 60005=
0110010260999992016010820004+69650+018933FM-12+011599999V0201901N003019999999N999999999-00761-00831101241ADDAA101000091MA1999999099761MD1210031+9999REMSYN05801026 26/// /1903 11076 21083 39976 40124 52003 333 60005=
0082010260999992016010821004+69654+018937FM-12+010099999V0201961N0021199999999999999999-00721-00801101251ADDAA101999999KA1010M-00721KA2010N-00771MA1999999099771MD1210041+9999REMSYN004BUFR
0110010260999992016010822004+69650+018933FM-12+011599999V0202101N002019999999N999999999-00681-00741101231ADDAA101000091MA1999999099761MD1990031+9999REMSYN05801026 26/// /2102 11068 21074 39976 40123 50003 333 60005=
0110010260999992016010823004+69650+018933FM-12+011599999V0202001N003019999999N999999999-00651-00721101231ADDAA101000091MA1999999099761MD1410001+9999REMSYN05801026 26/// /2003 11065 21072 39976 40123 54000 333 60005=
0115010260999992016010900004+69654+018937FM-12+010099999V0202011N0035199999999999999999-00591-00651101241ADDAA101999999AA206999999KA1010M-00591KA2010N-00651MA1999999099771MD1410001+9999OC100521OD130600601999REMSYN004BUFR
0110010260999992016010901004+69650+018933FM-12+011599999V0201801N004019999999N999999999-00601-00661101221ADDAA101000091MA1999999099751MD1410001+9999REMSYN05801026 26/// /1804 11060 21066 39975 40122 54000 333 60005=
0110010260999992016010902004+69650+018933FM-12+011599999V0201901N004019999999N999999999-00571-00631101231ADDAA101000091MA1999999099761MD1410001+9999REMSYN05801026 26/// /1904 11057 21063 39976 40123 54000 333 60005=
0104010260999992016010903004+69654+018937FM-12+010099999V0202091N0034199999999999999999-00541-00601101231ADDAA101000131KA1010M-00541KA2010N-00571MA1999999099761MD1710011+9999OC100541OD130100601999REMSYN004BUFR
0110010260999992016010904004+69650+018933FM-12+011599999V0202001N004019999999N999999999-00581-00651101191ADDAA101000131MA1999999099721MD1810031+9999REMSYN05801026 26/// /2004 11058 21065 39972 40119 58003 333 69915=
0110010260999992016010905004+69650+018933FM-12+011599999V0201901N004019999999N999999999-00561-00621101191ADDAA101000091MA1999999099721MD1710041+9999REMSYN05801026 26/// /1904 11056 21062 39972 40119 57004 333 60005=
0126010260999992016010906004+69654+018937FM-12+010099999V0202021N0037199999999999999999-00521-00581101161ADDAA101000131AA212000331AA324000431KA1120M-00511KA2120N-00801MA1999999099701MD1710071+9999OC100531OD130600691999REMSYN004BUFR
0110010260999992016010907004+69650+018933FM-12+011599999V0202001N003019999999N999999999-00481-00541101181ADDAA101000131MA1999999099721MD1510001+9999REMSYN05801026 26/// /2003 11048 21054 39972 40118 55000 333 69915=
0110010260999992016010908004+69650+018933FM-12+011599999V0202001N004019999999N999999999-00491-00561101181ADDAA101000091MA1999999099721MD1510001+9999REMSYN05801026 26/// /2004 11049 21056 39972 40118 55000 333 60005=
0104010260999992016010909004+69654+018937FM-12+010099999V0201901N0041199999999999999999-00451-00531101191ADDAA101000231KA1010M-00461KA2010N-00491MA1999999099731MD1210031+9999OC100551OD130100551999REMSYN004BUFR
0110010260999992016010910004+69650+018933FM-12+011599999V0202001N004019999999N999999999-00461-00531101211ADDAA101000131MA1999999099751MD1310031+9999REMSYN05801026 26/// /2004 11046 21053 39975 40121 53003 333 69915=
0110010260999992016010911004+69650+018933FM-12+011599999V0202001N005019999999N999999999-00461-00531101201ADDAA101000091MA1999999099741MD1990021+9999REMSYN05801026 26/// /2005 11046 21053 39974 40120 50002 333 60005=
0115010260999992016010912004+69654+018937FM-12+010099999V0202001N0040199999999999999999-00421-00501101201ADDAA101000231AA206000631KA1010M-00421KA2010N-00491MA1999999099741MD1010011+9999OC100581OD130600711999REMSYN004BUFR
0110010260999992016010913004+69650+018933FM-12+011599999V0201901N004019999999N999999999-00431-00501101181ADDAA101000091MA1999999099721MD1710041+9999REMSYN05801026 26/// /1904 11043 21050 39972 40118 57004 333 60005=
0110010260999992016010914004+69650+018933FM-12+011599999V0202001N005019999999N999999999-00391-00471101171ADDAA101000091MA1999999099711MD1710021+9999REMSYN05801026 26/// /2005 11039 21047 39971 40117 57002 333 60005=
0104010260999992016010915004+69654+018937FM-12+010099999V0201971N0049199999999999999999-00401-00501101151ADDAA101000131KA1010M-00391KA2010N-00411MA1999999099691MD1710041+9999OC100751OD130100771999REMSYN004BUFR
0104010260999992016010916004+69654+018937FM-12+010099999V0201941N0049199999999999999999-00371-00471101141ADDAA101999999KA1010M-00371KA2010N-00411MA1999999099691MD1710031+9999OC100721OD130100781999REMSYN004BUFR
0110010260999992016010917004+69650+018933FM-12+011599999V0201901N004019999999N999999999-00381-00481101151ADDAA101000431MA1999999099691MD1710021+9999REMSYN05801026 26/// /1904 11038 21048 39969 40115 57002 333 69945=
0134010260999992016010918004+69654+018937FM-12+010099999V0201911N0051199999999999999999-00351-00491101131ADDAA101000231AA212001331KA1120M-00361KA2120N-00531MA1999999099681MD1790029+9999OC100761OD130600781999REMSYN004BUFREQDQ01.1    3APC3  
0110010260999992016010919004+69650+018933FM-12+011599999V0201901N005019999999N999999999-00361-00491101111ADDAA101000091MA1999999099661MD1710031+9999REMSYN05801026 26/// /1905 11036 21049 39966 40111 57003 333 60005=
0110010260999992016010920004+69650+018933FM-12+011599999V0201901N005019999999N999999999-00341-00461101121ADDAA101000131MA1999999099671MD1710021+9999REMSYN05801026 26/// /1905 11034 21046 39967 40112 57002 333 69915=
0104010260999992016010921004+69654+018937FM-12+010099999V0201891N0049199999999999999999-00321-00471101121ADDAA101999999KA1010M-00331KA2010N-00341MA1999999099671MD1710011+9999OC100731OD130100821999REMSYN004BUFR
0104010260999992016010922004+69654+018937FM-12+010099999V0201981N0052199999999999999999-00301-00441101121ADDAA101000131KA1010M-00301KA2010N-00331MA1999999099671MD1210021+9999OC100871OD130100871999REMSYN004BUFR
0129010260999992016010923004+69650+018933FM-12+011599999V0202001N006019999999N999999999-00311-00451101121ADDAA101000091MA1999999099671MD1410009+9999REMSYN05801026 26/// /2006 11031 21045 39967 40112 54001 333 60005=EQDQ01.1    3APC3  
0115010260999992016011000004+69654+018937FM-12+010099999V0202001N0046199999999999999999-00301-00471101101ADDAA101999999AA206000231KA1010M-00301KA2010N-00311MA1999999099651MD1710021+9999OC100681OD130600941999REMSYN004BUFR
0104010260999992016011001004+69654+018937FM-12+010099999V0201961N0044199999999999999999-00341-00421101111ADDAA101000831KA1010M-00301KA2010N-00341MA1999999099661MD1710021+9999OC100641OD130100661999REMSYN004BUFR
0104010260999992016011002004+69654+018937FM-12+010099999V0202121N0036199999999999999999-00351-00431101101ADDAA101000631KA1010M-00331KA2010N-00351MA1999999099651MD1710011+9999OC100541OD130100701999REMSYN004BUFR
0104010260999992016011003004+69654+018937FM-12+010099999V0201941N0049199999999999999999-00321-00431101071ADDAA101000131KA1010M-00331KA2010N-00351MA1999999099621MD1810031+9999OC100721OD130100741999REMSYN004BUFR
0110010260999992016011004004+69650+018933FM-12+011599999V0202001N004019999999N999999999-00351-00451101061ADDAA101000331MA1999999099611MD1710051+9999REMSYN05801026 26/// /2004 11035 21045 39961 40106 57005 333 69935=
0110010260999992016011005004+69650+018933FM-12+011599999V0201901N005019999999N999999999-00361-00461101051ADDAA101000231MA1999999099601MD1710061+9999REMSYN05801026 26/// /1905 11036 21046 39960 40105 57006 333 69925=
0132010260999992016011006004+69654+018937FM-12+010099999V0201921N0049199999999999999999-00391-00461101041ADDAA101000531AA224004031AJ100003100003099KA1120M-00301KA2120N-00391MA1999999099591MD1710041+9999OC100761OD130600801999REMSYN004BUFR
0110010260999992016011007004+69650+018933FM-12+011599999V0201901N005019999999N999999999-00391-00451101051ADDAA101000431MA1999999099601MD1410001+9999REMSYN05801026 26/// /1905 11039 21045 39960 40105 54000 333 69945=
0110010260999992016011008004+69650+018933FM-12+011599999V0202001N005019999999N999999999-00391-00451101061ADDAA101000131MA1999999099611MD1210021+9999REMSYN05801026 26/// /2005 11039 21045 39961 40106 52002 333 69915=
0104010260999992016011009004+69654+018937FM-12+010099999V0202031N0055199999999999999999-00401-00481101101ADDAA101000131KA1010M-00371KA2010N-00401MA1999999099641MD1210061+9999OC100791OD130100861999REMSYN004BUFR
0110010260999992016011010004+69650+018933FM-12+011599999V0202001N004019999999N999999999-00381-00461101121ADDAA101000231MA1999999099671MD1210061+9999REMSYN05801026 26/// /2004 11038 21046 39967 40112 52006 333 69925=
0104010260999992016011011004+69654+018937FM-12+010099999V0201961N0038199999999999999999-00421-00501101121ADDAA101000231KA1010M-00381KA2010N-00421MA1999999099661MD1110051+9999OC100611OD130100671999REMSYN004BUFR
0115010260999992016011012004+69654+018937FM-12+010099999V0202021N0043199999999999999999-00401-00481101121ADDAA101000131AA206001131KA1010M-00401KA2010N-00421MA1999999099661MD1210021+9999OC100631OD130600861999REMSYN004BUFR
0110010260999992016011013004+69650+018933FM-12+011599999V0202101N004019999999N999999999-00411-00511101131ADDAA101000091MA1999999099671MD1410001+9999REMSYN05801026 26/// /2104 11041 21051 39967 40113 54000 333 60005=
0104010260999992016011014004+69654+018937FM-12+010099999V0202091N0044199999999999999999-00401-00571101111ADDAA101999999KA1010M-00391KA2010N-00411MA1999999099651MD1710021+9999OC100731OD130100731999REMSYN004BUFR
0104010260999992016011015004+69654+018937FM-12+010099999V0202141N0036199999999999999999-00421-00581101091ADDAA101999999KA1010M-00381KA2010N-00441MA1999999099631MD1710031+9999OC100521OD130100631999REMSYN004BUFR
0096010260999992016011016004+69654+018937FM-12+010099999V0202121N0024199999999999999999-00441-00601101101ADDAA101999999KA1010M-00431KA2010N-00451MA1999999099641MD1510031+9999OD130100611999REMSYN004BUFR
0110010260999992016011017004+69650+018933FM-12+011599999V0202001N004019999999N999999999-00391-00571101061ADDAA101000091MA1999999099611MD1710031+9999REMSYN05801026 26/// /2004 11039 21057 39961 40106 57003 333 60005=
0107010260999992016011018004+69654+018937FM-12+010099999V0202181N0031199999999999999999-00401-00581101081ADDAA101999999AA212001131KA1120M-00371KA2120N-00451MA1999999099621MD1710011+9999OD130600731999REMSYN004BUFR
0110010260999992016011019004+69650+018933FM-12+011599999V0202101N002019999999N999999999-00491-00631101091ADDAA101000091MA1999999099631MD1710011+9999REMSYN05801026 26/// /2102 11049 21063 39963 40109 57001 333 60005=
0110010260999992016011020004+69650+018933FM-12+011599999V0202201N002019999999N999999999-00581-00681101101ADDAA101000091MA1999999099631MD1210021+9999REMSYN05801026 26/// /2202 11058 21068 39963 40110 52002 333 60005=
0082010260999992016011021004+69654+018937FM-12+010099999V0202661N0017199999999999999999-00701-00791101101ADDAA101999999KA1010M-00571KA2010N-00701MA1999999099631MD1410001+9999REMSYN004BUFR
0110010260999992016011022004+69650+018933FM-12+011599999V0203201N001019999999N999999999-00581-00641101121ADDAA101000091MA1999999099651MD1310031+9999REMSYN05801026 26/// /3201 11058 21064 39965 40112 53003 333 60005=
0082010260999992016011023004+69654+018937FM-12+010099999V0202581N0013199999999999999999-00601-00671101111ADDAA101999999KA1010M-00581KA2010N-00701MA1999999099641MD1210021+9999REMSYN004BUFR
0179010260999992016011100004+69654+018937FM-12+010099999V0202691N0009199999999070000199-00701-00791101101ADDAA101999999AA206999999AY111061AY201061GA1041+002001071GE19MSL   +99999+99999GF104991041999002001999999KA1010M-00581KA2010N-00701MA1999999099631MD1010001+9999MW1021REMSYN004BUFR
0110010260999992016011101004+69650+018933FM-12+011599999V0202601N001019999999N999999999-00571-00641101081ADDAA101000091MA1999999099621MD1710031+9999REMSYN05801026 26/// /2601 11057 21064 39962 40108 57003 333 60005=
0082010260999992016011102004+69654+018937FM-12+010099999V0202861N0008199999999999999999-00551-00621101081ADDAA101999999KA1010M-00541KA2010N-00571MA1999999099621MD1710021+9999REMSYN004BUFR
0168010260999992016011103004+69654+018937FM-12+010099999V0200471N0007199999999070000199-00721-00821101091ADDAA101999999AY111031AY201031GA1011+002001071GE19MSL   +99999+99999GF101991011999002001999999KA1010M-00551KA2010N-00721MA1999999099621MD1710011+9999MW1021REMSYN004BUFR
0110010260999992016011104004+69650+018933FM-12+011599999V0203601N001019999999N999999999-00841-00931101081ADDAA101000091MA1999999099601MD1710021+9999REMSYN05801026 26/// /3601 11084 21093 39960 40108 57002 333 60005=
0110010260999992016011105004+69650+018933FM-12+011599999V0200601N001019999999N999999999-00761-00851101071ADDAA101000091MA1999999099601MD1710031+9999REMSYN05801026 26/// /0601 11076 21085 39960 40107 57003 333 60005=
0164010260999992016011106004+69654+018937FM-12+010099999V0200361N0014122000199070000199-00821-00931101071ADDAA101999999AA224001131AJ100489100480099AY111061AY201061GF100991999999999999999999IA1239KA1120M-00401KA2120N-00861MA1999999099591MD1710031+9999MW1021REMSYN004BUFR
0110010260999992016011107004+69650+018933FM-12+011599999V0200301N001019999999N999999999-00831-00941101091ADDAA101000091MA1999999099611MD1410001+9999REMSYN05801026 26/// /0301 11083 21094 39961 40109 54000 333 60005=
0110010260999992016011108004+69650+018933FM-12+011599999V0200801N002019999999N999999999-00821-00961101121ADDAA101000091MA1999999099641MD1310041+9999REMSYN05801026 26/// /0802 11082 21096 39964 40112 53004 333 60005=
0168010260999992016011109004+69654+018937FM-12+010099999V0200551N0018199999999075000199-00821-00991101161ADDAA101999999AY101031AY201031GA1999+025001021GE19MSL   +99999+99999GF101991999999025001999999KA1010M-00801KA2010N-00871MA1999999099681MD1210091+9999MW1021REMSYN004BUFR
0110010260999992016011110004+69650+018933FM-12+011599999V0200701N001019999999N999999999-00821-00941101181ADDAA101000091MA1999999099701MD1210101+9999REMSYN05801026 26/// /0701 11082 21094 39970 40118 52010 333 60005=
0110010260999992016011111004+69650+018933FM-12+011599999V0201901N002019999999N999999999-00731-01061101181ADDAA101000091MA1999999099711MD1210071+9999REMSYN05801026 26/// /1902 11073 21106 39971 40118 52007 333 60005=
0201010260999992016011112004+69654+018937FM-12+010099999V0201851N0024199999999075000199-00791-01101101201ADDAA101999999AA206999999AY101061AY201061GA1999+025001021GE19MSL   +99999+99999GF101991999999025001999999KA1010M-00721KA2010N-00801MA1999999099721MD1210051+9999MW1021OC100541OD130600631999REMSYN004BUFR
0104010260999992016011113004+69654+018937FM-12+010099999V0201911N0053199999999999999999-00691-01101101231ADDAA101999999KA1010M-00671KA2010N-00781MA1999999099761MD1310061+9999OC100861OD130100901999REMSYN004BUFR
0110010260999992016011114004+69650+018933FM-12+011599999V0201801N005019999999N999999999-00731-01151101281ADDAA101000091MA1999999099801MD1310081+9999REMSYN05801026 26/// /1805 11073 21115 39980 40128 53008 333 60005=
0208010260999992016011115004+69650+018933FM-12+011599999V0201801N002019999999N070001199-00791-01201101321ADDAA101000091AY101021AY201021GA1011+022501031GE19MSL   +99999+99999GF101991011999022501999999MA1999999099841MD1210121+9999MW1021REMSYN07001026 21889 11802 11079 21120 39984 40132 52012 70200 81030 333 60005=
0110010260999992016011116004+69650+018933FM-12+011599999V0201801N002019999999N999999999-00851-01271101341ADDAA101000091MA1999999099861MD1210091+9999REMSYN05801026 26/// /1802 11085 21127 39986 40134 52009 333 60005=
0110010260999992016011117004+69650+018933FM-12+011599999V0201201N001019999999N999999999-00971-01331101361ADDAA101000091MA1999999099871MD1210071+9999REMSYN05801026 26/// /1201 11097 21133 39987 40136 52007 333 60005=
0107010260999992016011118004+69654+018937FM-12+010099999V0201881N0028199999999999999999-00871-01291101381ADDAA101999999AA212999999KA1120M-00671KA2120N-01021MA1999999099891MD1210051+9999OD130600901999REMSYN004BUFR
0110010260999992016011119004+69650+018933FM-12+011599999V0201801N002019999999N999999999-00901-01281101411ADDAA101000091MA1999999099921MD1210061+9999REMSYN05801026 26/// /1802 11090 21128 39992 40141 52006 333 60005=
0110010260999992016011120004+69650+018933FM-12+011599999V0202001N002019999999N999999999-00931-01391101441ADDAA101000091MA1999999099951MD1210081+9999REMSYN05801026 26/// /2002 11093 21139 39995 40144 52008 333 60005=
0082010260999992016011121004+69654+018937FM-12+010099999V0201861N0020199999999999999999-00901-01341101461ADDAA101999999KA1010M-00881KA2010N-00941MA1999999099971MD1210091+9999REMSYN004BUFR
0110010260999992016011122004+69650+018933FM-12+011599999V0203501N002019999999N999999999-00981-01351101491ADDAA101000091MA1999999100001MD1210081+9999REMSYN05801026 26/// /3502 11098 21135 30000 40149 52008 333 60005=
0110010260999992016011123004+69650+018933FM-12+011599999V0202501N001019999999N999999999-01071-01371101511ADDAA101000091MA1999999100011MD1210061+9999REMSYN05801026 26/// /2501 11107 21137 30001 40151 52006 333 60005=
0141010260999992016011200004+69654+018937FM-12+010099999V0202171N0012122000199075000199-00991-01391101511ADDAA101999999AA206999999AY101061AY201061GF100991999999999999999999KA1010M-00921KA2010N-01101MA1999999100021MD1210051+9999MW1021REMSYN004BUFR
0082010260999992016011201004+69654+018937FM-12+010099999V0203411N0015199999999999999999-00971-01281101521ADDAA101999999KA1010M-00941KA2010N-01101MA1999999100031MD1210041+9999REMSYN004BUFR
0110010260999992016011202004+69650+018933FM-12+011599999V0203201N002019999999N999999999-00941-01191101531ADDAA101000091MA1999999100041MD1210031+9999REMSYN05801026 26/// /3202 11094 21119 30004 40153 52003 333 60005=
0168010260999992016011203004+69654+018937FM-12+010099999V0200041N0020199999999075000199-00901-01171101541ADDAA101999999AY101031AY201031GA1021+015001061GE19MSL   +99999+99999GF102991021999015001999999KA1010M-00881KA2010N-01041MA1999999100051MD1210031+9999MW1021REMSYN004BUFR
0129010260999992016011204004+69650+018933FM-12+011599999V0200901N002019999999N999999999-00781-01501101521ADDAA101000091MA1999999100041MD1410009+9999REMSYN05801026 26/// /0902 11078 21150 30004 40152 54001 333 60005=EQDQ01.1    3APC3  
0082010260999992016011205004+69654+018937FM-12+010099999V0200821N0019199999999999999999-00771-01611101541ADDAA101999999KA1010M-00691KA2010N-00791MA1999999100061MD1210021+9999REMSYN004BUFR
0218010260999992016011206004+69654+018937FM-12+010099999V0200751N0023199999999075000199-00741-01631101561ADDAA101999999AA224460092AJ199999999999999AY101061AY201061GA1011+015001061GA2999+999999001GE19MSL   +99999+99999GF101991011999015001999999IA1239KA1120M-00691KA2120N-01101MA1999999100081MD1210021+9999MW1021REMSYN004BUFR
0110010260999992016011207004+69650+018933FM-12+011599999V0200901N003019999999N999999999-00751-01601101591ADDAA101000091MA1999999100111MD1210071+9999REMSYN05801026 26/// /0903 11075 21160 30011 40159 52007 333 60005=
0110010260999992016011208004+69650+018933FM-12+011599999V0200801N002019999999N999999999-00811-01601101641ADDAA101000091MA1999999100151MD1210081+9999REMSYN05801026 26/// /0802 11081 21160 30015 40164 52008 333 60005=
0184010260999992016011209004+69654+018937FM-12+010099999V0200711N0024199999999075000199-00821-01561101661ADDAA101999999AY101031AY201031GA1011+010001061GA2999+999999031GE19MSL   +99999+99999GF101991011999010001999999KA1010M-00761KA2010N-00871MA1999999100171MD1210091+9999MW1021REMSYN004BUFR
0104010260999992016011210004+69654+018937FM-12+010099999V0200851N0031199999999999999999-00741-01371101661ADDAA101999999KA1010M-00741KA2010N-00821MA1999999100181MD1210071+9999OC100581OD130100611999REMSYN004BUFR
0110010260999992016011211004+69650+018933FM-12+011599999V0201001N003019999999N999999999-00711-01391101661ADDAA101000091MA1999999100181MD1210041+9999REMSYN05801026 26/// /1003 11071 21139 30018 40166 52004 333 60005=
0107010260999992016011212004+69654+018937FM-12+010099999V0200921N0018199999999999999999-00751-01431101681ADDAA101999999AA206999999KA1010M-00721KA2010N-00801MA1999999100201MD1210031+9999OD130600761999REMSYN004BUFR
0110010260999992016011213004+69650+018933FM-12+011599999V0201101N003019999999N999999999-00771-01471101671ADDAA101000091MA1999999100191MD1210021+9999REMSYN05801026 26/// /1103 11077 21147 30019 40167 52002 333 60005=
0096010260999992016011214004+69654+018937FM-12+010099999V0201081N0019199999999999999999-00801-01481101681ADDAA101999999KA1010M-00751KA2010N-00801MA1999999100191MD1210011+9999OD130100551999REMSYN004BUFR
0187010260999992016011215004+69654+018937FM-12+010099999V0200731N0012199999999075000199-00851-01441101701ADDAA101999999AY101031AY201031GA1011+020001031GE19MSL   +99999+99999GF101991011999020001999999KA1010M-00751KA2010N-00871MA1999999100211MD1290029+9999MW1021REMSYN004BUFREQDQ01.1    3APC3  
0082010260999992016011216004+69654+018937FM-12+010099999V0200881N0020199999999999999999-00801-01611101681ADDAA101999999KA1010M-00801KA2010N-00901MA1999999100191MD1410001+9999REMSYN004BUFR
0101010260999992016011217004+69654+018937FM-12+010099999V0203141N0021199999999999999999-00901-01391101691ADDAA101999999KA1010M-00791KA2010N-00931MA1999999100201MD1290019+9999REMSYN004BUFREQDQ01.1    3APC3  
0193010260999992016011218004+69654+018937FM-12+010099999V0200441N0018199999999070000199-01071-01691101691ADDAA101999999AA212999999AY101061AY201061GA1999+025001021GE19MSL   +99999+99999GF101991999999025001999999KA1120M-00711KA2120N-01071MA1999999100191MD1710021+9999MW1021OD130600601999REMSYN004BUFR
0082010260999992016011219004+69654+018937FM-12+010099999V0203511N0022199999999999999999-00991-01391101681ADDAA101999999KA1010M-00951KA2010N-01071MA1999999100181MD1410001+9999REMSYN004BUFR
0082010260999992016011220004+69654+018937FM-12+010099999V0200401N0030199999999999999999-01001-01771101691ADDAA101999999KA1010M-00961KA2010N-01061MA1999999100191MD1410001+9999REMSYN004BUFR
0101010260999992016011221004+69654+018937FM-12+010099999V0200371N0016199999999999999999-01121-01741101691ADDAA101999999KA1010M-00961KA2010N-01121MA1999999100191MD1410009+9999REMSYN004BUFREQDQ01.1    3APC3  
0082010260999992016011222004+69654+018937FM-12+010099999V0200821N0014199999999999999999-01021-01461101711ADDAA101999999KA1010M-01031KA2010N-01161MA1999999100211MD1210031+9999REMSYN004BUFR
0101010260999992016011223004+69654+018937FM-12+010099999V0200581N0018199999999999999999-01051-01621101701ADDAA101999999KA1010M-01021KA2010N-01101MA1999999100201MD1290019+9999REMSYN004BUFREQDQ01.1    3APC3  
0141010260999992016011300004+69654+018937FM-12+010099999V0200631N0021122000199075000199-01121-01581101711ADDAA101999999AA206999999AY101061AY201061GF100991999999999999999999KA1010M-01031KA2010N-01121MA1999999100211MD1210011+9999MW1021REMSYN004BUFR
0082010260999992016011301004+69654+018937FM-12+010099999V0200691N0023199999999999999999-01051-01721101681ADDAA101999999KA1010M-01051KA2010N-01131MA1999999100181MD1710031+9999REMSYN004BUFR
0082010260999992016011302004+69654+018937FM-12+010099999V0200581N0023199999999999999999-01091-01521101671ADDAA101999999KA1010M-01041KA2010N-01131MA1999999100171MD1710031+9999REMSYN004BUFR
0130010260999992016011303004+69654+018937FM-12+010099999V0200701N0018122000199075000199-01071-01531101661ADDAA101999999AY101031AY201031GF100991999999999999999999KA1010M-01071KA2010N-01121MA1999999100161MD1710041+9999MW1021REMSYN004BUFR
0082010260999992016011304004+69654+018937FM-12+010099999V0200821N0019199999999999999999-01071-01511101641ADDAA101999999KA1010M-01021KA2010N-01121MA1999999100141MD1710041+9999REMSYN004BUFR
0082010260999992016011305004+69654+018937FM-12+010099999V0200741N0016199999999999999999-01151-01621101631ADDAA101999999KA1010M-01041KA2010N-01151MA1999999100131MD1710041+9999REMSYN004BUFR
0164010260999992016011306004+69654+018937FM-12+010099999V0200781N0017122000199075000199-01151-01711101611ADDAA101999999AA224430092AJ199999999999999AY101061AY201061GF100991999999999999999999IA1239KA1120M-00951KA2120N-01241MA1999999100111MD1710051+9999MW1021REMSYN004BUFR
0082010260999992016011307004+69654+018937FM-12+010099999V0203521N0022199999999999999999-01121-01431101621ADDAA101999999KA1010M-01131KA2010N-01211MA1999999100121MD1510031+9999REMSYN004BUFR
0082010260999992016011308004+69654+018937FM-12+010099999V0203481N0022199999999999999999-01101-01311101631ADDAA101999999KA1010M-01091KA2010N-01131MA1999999100131MD1510001+9999REMSYN004BUFR
0130010260999992016011309004+69654+018937FM-12+010099999V0203511N0010122000199075000199-01151-01311101671ADDAA101999999AY101031AY201031GF100991999999999999999999KA1010M-01081KA2010N-01201MA1999999100161MD1210041+9999MW1021REMSYN004BUFR
0082010260999992016011310004+69654+018937FM-12+010099999V0200671N0015199999999999999999-01151-01471101671ADDAA101999999KA1010M-01131KA2010N-01201MA1999999100161MD1210041+9999REMSYN004BUFR
0082010260999992016011311004+69654+018937FM-12+010099999V0201391N0009199999999999999999-01271-01491101671ADDAA101999999KA1010M-01151KA2010N-01281MA1999999100161MD1210031+9999REMSYN004BUFR
0179010260999992016011312004+69654+018937FM-12+010099999V0200361N0010199999999075000199-01241-01491101661ADDAA101999999AA206999999AY101061AY201061GA1011+020001031GE19MSL   +99999+99999GF101991011999020001999999KA1010M-01181KA2010N-01281MA1999999100151MD1410001+9999MW1021REMSYN004BUFR
0101010260999992016011313004+69654+018937FM-12+010099999V0200481N0016199999999999999999-01201-01441101661ADDAA101999999KA1010M-01171KA2010N-01281MA1999999100151MD1790019+9999REMSYN004BUFREQDQ01.1    3APC3  
0082010260999992016011314004+69654+018937FM-12+010099999V0200701N0010199999999999999999-01221-01491101681ADDAA101999999KA1010M-01151KA2010N-01251MA1999999100171MD1410001+9999REMSYN004BUFR
0168010260999992016011315004+69654+018937FM-12+010099999V0203381N0003199999999075000199-01321-01571101691ADDAA101999999AY101031AY201031GA1011+020001031GE19MSL   +99999+99999GF101991011999020001999999KA1010M-01181KA2010N-01331MA1999999100171MD1210031+9999MW1021REMSYN004BUFR
0082010260999992016011316004+69654+018937FM-12+010099999V0201541N0004199999999999999999-01271-01491101671ADDAA101999999KA1010M-01181KA2010N-01331MA1999999100161MD1010011+9999REMSYN004BUFR
0082010260999992016011317004+69654+018937FM-12+010099999V0203151N0015199999999999999999-01301-01461101681ADDAA101999999KA1010M-01261KA2010N-01391MA1999999100171MD1410001+9999REMSYN004BUFR
0160010260999992016011318004+69654+018937FM-12+010099999V0200671N0007122000199075000199-01241-01411101701ADDAA101999999AA212999999AY101061AY201061GF100991999999999999999999KA1120M-01081KA2120N-01391MA1999999100191MD1290019+9999MW1021REMSYN004BUFREQDQ01.1    3APC3  
0082010260999992016011319004+69654+018937FM-12+010099999V0200701N0016199999999999999999-01201-01471101721ADDAA101999999KA1010M-01151KA2010N-01281MA1999999100211MD1210051+9999REMSYN004BUFR
0082010260999992016011320004+69654+018937FM-12+010099999V0202921N0005199999999999999999-01291-01531101731ADDAA101999999KA1010M-01181KA2010N-01321MA1999999100221MD1210061+9999REMSYN004BUFR
0130010260999992016011321004+69654+018937FM-12+010099999V0202691N0019122000199075000199-01151-01291101741ADDAA101999999AY101031AY201031GF100991999999999999999999KA1010M-01151KA2010N-01331MA1999999100231MD1210041+9999MW1021REMSYN004BUFR
0082010260999992016011322004+69654+018937FM-12+010099999V0203021N0008199999999999999999-01291-01421101711ADDAA101999999KA1010M-01141KA2010N-01311MA1999999100201MD1010011+9999REMSYN004BUFR
0082010260999992016011323004+69654+018937FM-12+010099999V0200831N0004199999999999999999-01251-01401101711ADDAA101999999KA1010M-01151KA2010N-01311MA1999999100201MD1710021+9999REMSYN004BUFR
0141010260999992016011400004+69654+018937FM-12+010099999V0202771N0013122000199075000199-01271-01421101711ADDAA101999999AA206999999AY101061AY201061GF100991999999999999999999KA1010M-01201KA2010N-01301MA1999999100201MD1710031+9999MW1021REMSYN004BUFR
0082010260999992016011401004+69654+018937FM-12+010099999V0202891N0013199999999999999999-01151-01251101701ADDAA101999999KA1010M-01161KA2010N-01301MA1999999100191MD1710011+9999REMSYN004BUFR
0082010260999992016011402004+69654+018937FM-12+010099999V0203271N0007199999999999999999-01271-01431101711ADDAA101999999KA1010M-01151KA2010N-01281MA1999999100201MD1410001+9999REMSYN004BUFR
0130010260999992016011403004+69654+018937FM-12+010099999V0200681N0009122000199075000199-01201-01361101711ADDAA101999999AY101031AY201031GF100991999999999999999999KA1010M-01121KA2010N-01311MA1999999100201MD1410001+9999MW1021REMSYN004BUFR
0082010260999992016011404004+69654+018937FM-12+010099999V0202591N0009199999999999999999-01251-01391101701ADDAA101999999KA1010M-01141KA2010N-01271MA1999999100191MD1410001+9999REMSYN004BUFR
0082010260999992016011405004+69654+018937FM-12+010099999V0202581N0011199999999999999999-01191-01311101671ADDAA101999999KA1010M-01171KA2010N-01281MA1999999100161MD1710041+9999REMSYN004BUFR
0164010260999992016011406004+69654+018937FM-12+010099999V0201861N0005122000199070000199-01251-01391101661ADDAA101999999AA224430092AJ199999999999999AY101061AY201061GF100991999999999999999999IA1239KA1120M-01121KA2120N-01331MA1999999100151MD1710051+9999MW1021REMSYN004BUFR
0082010260999992016011407004+69654+018937FM-12+010099999V0203071N0004199999999999999999-01201-01331101651ADDAA101999999KA1010M-01161KA2010N-01311MA1999999100141MD1710041+9999REMSYN004BUFR
0082010260999992016011408004+69654+018937FM-12+010099999V0202341N0016199999999999999999-01141-01261101641ADDAA101999999KA1010M-01141KA2010N-01281MA1999999100141MD1710021+9999REMSYN004BUFR
0200010260999992016011409004+69654+018937FM-12+010099999V0201941N0021199999999075000199-01171-01291101651ADDAA101999999AY101031AY201031GA1011+010001081GA2999+999999031GA3999+999999021GE19MSL   +99999+99999GF101991011999010001999999KA1010M-01131KA2010N-01261MA1999999100141MD1410001+9999MW1021REMSYN004BUFR
0082010260999992016011410004+69654+018937FM-12+010099999V0202111N0027199999999999999999-01021-01141101651ADDAA101999999KA1010M-01021KA2010N-01171MA1999999100151MD1410001+9999REMSYN004BUFR
0101010260999992016011411004+69654+018937FM-12+010099999V0202041N0028199999999999999999-00871-01021101621ADDAA101999999KA1010M-00881KA2010N-01021MA1999999100131MD1790029+9999REMSYN004BUFREQDQ01.1    3APC3  
0260010260999992016011412004+69650+018933FM-12+011599999V0202101N002019999999N065000199-00861-01031101551ADDAA106000091AY111021AY201021GA1051+004501081GA2999+999999031GA3999+999999001GE19MSL   +99999+99999GF106991051999004501999999MA1999999100061MD1810081+9999MW1141OD139900501999REMSYN07601026 11487 62102 11086 21103 30006 40155 58008 60001 71410 85264 333 91105=
0096010260999992016011413004+69654+018937FM-12+010099999V0202061N0031199999999999999999-00871-01001101531ADDAA101999999KA1010M-00861KA2010N-00891MA1999999100041MD1710111+9999OD130100531999REMSYN004BUFR
0110010260999992016011414004+69650+018933FM-12+011599999V0202201N003019999999N999999999-00851-01041101511ADDAA101000091MA1999999100021MD1610111+9999REMSYN05801026 26/// /2203 11085 21104 30002 40151 56011 333 60005=
0240010260999992016011415004+69650+018933FM-12+011599999V0202201N004019999999N070001199-00841-01051101491ADDAA101000091AY121021AY221021GA1031+012501061GA2999+999999031GA3999+999999021GE19MSL   +99999+99999GF106991031999012501999999MA1999999100001MD1710061+9999MW1021REMSYN07001026 21689 62204 11084 21105 30000 40149 57006 70222 83538 333 60005=
0110010260999992016011416004+69650+018933FM-12+011599999V0202101N005019999999N999999999-00831-01001101461ADDAA101000091MA1999999099981MD1710061+9999REMSYN05801026 26/// /2105 11083 21100 39998 40146 57006 333 60005=
0110010260999992016011417004+69650+018933FM-12+011599999V0202001N005019999999N999999999-00781-01031101391ADDAA101000091MA1999999099911MD1810111+9999REMSYN05801026 26/// /2005 11078 21103 39991 40139 58011 333 60005=
0279010260999992016011418004+69650+018933FM-12+011599999V0202101N005019999999N070001199-00781-01061101381ADDAA112000091AY121021AY221021GA1041+008001061GA2999+999999031GA3999+999999021GE19MSL   +99999+99999GF107991041999008001999999KA1120M-00761MA1999999099901MD1610101+9999MW1021OD139900801999REMSYN08201026 11589 72105 11078 21106 39990 40138 56010 60002 70222 84538 333 11076 91108=
0104010260999992016011419004+69654+018937FM-12+010099999V0202211N0037199999999999999999-00701-01001101391ADDAA101999999KA1010M-00711KA2010N-00781MA1999999099911MD1510071+9999OC100591OD130100791999REMSYN004BUFR
0104010260999992016011420004+69654+018937FM-12+010099999V0202111N0031199999999999999999-00741-00921101421ADDAA101000131KA1010M-00711KA2010N-00741MA1999999099941MD1310031+9999OC100501OD130100681999REMSYN004BUFR
0224010260999992016011421004+69650+018933FM-12+011599999V0202101N002019999999N050000199-00731-00901101421ADDAA101000131AY181021AY221021GA1061+008001081GA2999+999999031GE19MSL   +99999+99999GF108991061999008001999999MA1999999099941MD1990041+9999MW1151REMSYN07001026 21584 82102 11073 21090 39994 40142 50004 71582 8687/ 333 69915=
0096010260999992016011422004+69654+018937FM-12+010099999V0201971N0021199999999999999999-00751-01031101421ADDAA101999999KA1010M-00721KA2010N-00761MA1999999099941MD1110041+9999OD130100501999REMSYN004BUFR
0110010260999992016011423004+69650+018933FM-12+011599999V0202401N001019999999N999999999-00891-01071101441ADDAA101000091MA1999999099951MD1310021+9999REMSYN05801026 26/// /2401 11089 21107 39995 40144 53002 333 60005=
0158010260999992016011500004+69650+018933FM-12+011599999V0209999C999999999999N070001199-00981-01131101441ADDAA106000231AY171021AY211021MA1999999099951MD1210011+9999MW1011OD139900801999REMSYN07001026 11989 00000 11098 21113 39995 40144 52001 69921 70171 333 91108=
0082010260999992016011501004+69654+018937FM-12+010099999V0202771N0008199999999999999999-01021-01171101461ADDAA101999999KA1010M-00931KA2010N-01031MA1999999099961MD1210021+9999REMSYN004BUFR
0110010260999992016011502004+69650+018933FM-12+011599999V0202401N002019999999N999999999-00901-00991101401ADDAA101000091MA1999999099911MD1810041+9999REMSYN05801026 26/// /2402 11090 21099 39991 40140 58004 333 60005=
0138010260999992016011503004+69650+018933FM-12+011599999V0202001N001019999999N070001199-00921-01021101411ADDAA101000091AY101021AY201021MA1999999099921MD1510021+9999MW1021REMSYN06401026 21989 02001 11092 21102 39992 40141 55002 70200 333 60005=
0082010260999992016011504004+69654+018937FM-12+010099999V0201941N0015199999999999999999-00851-00961101421ADDAA101999999KA1010M-00831KA2010N-00971MA1999999099931MD1510031+9999REMSYN004BUFR
0082010260999992016011505004+69654+018937FM-12+010099999V0202431N0014199999999999999999-00771-00871101391ADDAA101999999KA1010M-00771KA2010N-00871MA1999999099911MD1010011+9999REMSYN004BUFR
0234010260999992016011506004+69654+018937FM-12+010099999V0202211N0015199999999020000199-00671-00761101391ADDAA101000131AA224000331AJ100003100000099AY181061AY221061GA1041+003001081GA2999+999999031GA3999+999999101GE19MSL   +99999+99999GF108991041999003001999999IA1239KA1120M-00681KA2120N-01031MA1999999099921MD1410001+9999MW1851REMSYN004BUFR
0082010260999992016011507004+69654+018937FM-12+010099999V0202251N0018199999999999999999-00691-00771101391ADDAA101999999KA1010M-00661KA2010N-00691MA1999999099911MD1710021+9999REMSYN004BUFR
0110010260999992016011508004+69650+018933FM-12+011599999V0201901N002019999999N999999999-00571-00641101421ADDAA101000331MA1999999099951MD1310031+9999REMSYN05801026 26/// /1902 11057 21064 39995 40142 53003 333 69935=
0208010260999992016011509004+69650+018933FM-12+011599999V0202001N002019999999N003000199-00551-00621101451ADDAA101000631AY181021AY221021GA1081+002501091GE19MSL   +99999+99999GF108991081999002501999999MA1999999099981MD1310051+9999MW1851REMSYN07001026 21330 82002 11055 21062 39998 40145 53005 78582 883// 333 69965=
0110010260999992016011510004+69650+018933FM-12+011599999V0201901N002019999999N999999999-00551-00621101441ADDAA101000831MA1999999099971MD1990061+9999REMSYN05801026 26/// /1902 11055 21062 39997 40144 50006 333 69985=
0110010260999992016011511004+69650+018933FM-12+011599999V0201901N003019999999N999999999-00541-00611101481ADDAA101000091MA1999999100011MD1210061+9999REMSYN05801026 26/// /1903 11054 21061 30001 40148 52006 333 60005=
0260010260999992016011512004+69650+018933FM-12+011599999V0202001N003019999999N040000199-00491-00551101511ADDAA106002031AY181021AY221021GA1041+004501081GA2999+999999031GA3999+999999021GE19MSL   +99999+99999GF108991041999004501999999MA1999999100041MD1210061+9999MW1151OD139900401999REMSYN07601026 11482 82003 11049 21055 30004 40151 52006 60021 71582 84868 333 91104=
0082010260999992016011513004+69654+018937FM-12+010099999V0201981N0018199999999999999999-00491-00551101571ADDAA101999999KA1010M-00491KA2010N-00501MA1999999100101MD1210121+9999REMSYN004BUFR
0110010260999992016011514004+69650+018933FM-12+011599999V0202201N002019999999N999999999-00521-00591101621ADDAA101000091MA1999999100151MD1210141+9999REMSYN05801026 26/// /2202 11052 21059 30015 40162 52014 333 60005=
0200010260999992016011515004+69654+018937FM-12+010099999V0201931N0011199999999055000199-00541-00611101661ADDAA101999999AY121031AY221031GA1041+002001081GA2999+999999031GA3999+999999001GE19MSL   +99999+99999GF106991041999002001999999KA1010M-00501KA2010N-00541MA1999999100191MD1110151+9999MW1021REMSYN004BUFR
0082010260999992016011516004+69654+018937FM-12+010099999V0202321N0015199999999999999999-00521-00591101671ADDAA101000131KA1010M-00501KA2010N-00541MA1999999100201MD1110101+9999REMSYN004BUFR
0082010260999992016011517004+69654+018937FM-12+010099999V0200971N0014199999999999999999-00451-00521101711ADDAA101999999KA1010M-00441KA2010N-00521MA1999999100241MD1110091+9999REMSYN004BUFR
0203010260999992016011518004+69650+018933FM-12+011599999V0202001N00101002401CN004000199-00461-00521101741ADDAA112002031AY181021AY221021GF109991999999999999999999KA1120M-00441MA1999999100271MD1210071+9999MW1851OD139900301999REMSYN07601026 11/40 92001 11046 21052 30027 40174 52007 60022 78582 333 11044 91103=
0110010260999992016011519004+69650+018933FM-12+011599999V0200501N002019999999N999999999-00501-00561101791ADDAA101000091MA1999999100321MD1310131+9999REMSYN05801026 26/// /0502 11050 21056 30032 40179 53013 333 60005=
0082010260999992016011520004+69654+018937FM-12+010099999V0203591N0019199999999999999999-00491-00551101811ADDAA101000131KA1010M-00461KA2010N-00531MA1999999100341MD1110101+9999REMSYN004BUFR
0200010260999992016011521004+69654+018937FM-12+010099999V0200181N0020199999999003500199-00421-00471101871ADDAA101000231AY181031AY221031GA1091+999999101GA2999+999999101GA3999+999999101GE19MSL   +99999+99999GF199999091999999999999999KA1010M-00421KA2010N-00501MA1999999100401MD1210131+9999MW1851REMSYN004BUFR
0110010260999992016011522004+69650+018933FM-12+011599999V0200601N001019999999N999999999-00411-00471101891ADDAA101000431MA1999999100421MD1210091+9999REMSYN05801026 26/// /0601 11041 21047 30042 40189 52009 333 69945=
0110010260999992016011523004+69650+018933FM-12+011599999V0200201N003019999999N999999999-00301-00331101901ADDAA101000331MA1999999100441MD1210101+9999REMSYN05801026 26/// /0203 11030 21033 30044 40190 52010 333 69935=
0225010260999992016011600004+69654+018937FM-12+010099999V0200181N0026199999999000800199-00301-00361101921ADDAA101000131AA206001131AY181061AY221061GA1091+999999101GA2999+999999101GA3999+999999101GE19MSL   +99999+99999GF199999091999999999999999KA1010M-00301KA2010N-00441MA1999999100461MD1210061+9999MW1851OD130600531999REMSYN004BUFR
0082010260999992016011601004+69654+018937FM-12+010099999V0200501N0017199999999999999999-00471-00531101931ADDAA101999999KA1010M-00311KA2010N-00481MA1999999100461MD1010051+9999REMSYN004BUFR
0110010260999992016011602004+69650+018933FM-12+011599999V0200401N002019999999N999999999-00481-00551101931ADDAA101000091MA1999999100461MD1990021+9999REMSYN05801026 26/// /0402 11048 21055 30046 40193 50002 333 60005=
0222010260999992016011603004+69654+018937FM-12+010099999V0200441N0042199999999001500199-00301-00351101971ADDAA101000231AY181031AY221031GA1091+999999101GA2999+999999101GA3999+999999101GE19MSL   +99999+99999GF199999091999999999999999KA1010M-00301KA2010N-00521MA1999999100511MD1310061+9999MW1851OC100741OD130100741999REMSYN004BUFR
0096010260999992016011604004+69654+018937FM-12+010099999V0200111N0028199999999999999999-00401-00471101961ADDAA101999999KA1010M-00261KA2010N-00461MA1999999100491MD1010031+9999OD130100531999REMSYN004BUFR
0110010260999992016011605004+69650+018933FM-12+011599999V0200401N003019999999N999999999-00381-00471101961ADDAA101000131MA1999999100491MD1990031+9999REMSYN05801026 26/// /0403 11038 21047 30049 40196 50003 333 69915=
0248010260999992016011606004+69654+018937FM-12+010099999V0200531N0027100300199040000199-00271-00371101941ADDAA101000131AA224003431AJ100003100002099AY181061AY211061GA1071+003001091GA2999+999999101GA3999+999999101GE19MSL   +99999+99999GF107991071999003001999999IA1239KA1120M-00261KA2120N-00551MA1999999100481MD1710031+9999MW1151OD130600741999REMSYN004BUFR
0110010260999992016011607004+69650+018933FM-12+011599999V0203601N003019999999N999999999-00411-00641101941ADDAA101000091MA1999999100471MD1710021+9999REMSYN05801026 26/// /3603 11041 21064 30047 40194 57002 333 60005=
0110010260999992016011608004+69650+018933FM-12+011599999V0203601N003019999999N999999999-00281-00501101941ADDAA101000091MA1999999100481MD1510011+9999REMSYN05801026 26/// /3603 11028 21050 30048 40194 55001 333 60005=
0259010260999992016011609004+69650+018933FM-12+011599999V0200101N005019999999N020000199-00181-00411101951ADDAA101000091AY181021AY221021GA1051+008001091GA2999+999999031GA3999+999999001GE19MSL   +99999+99999GF106991051999008001999999MA1999999100491MD1290019+9999MW1851REMSYN07001026 21570 60105 11018 21041 30049 40195 54001 78582 85361 333 60005=EQDQ01.1    3APC3  
0110010260999992016011610004+69650+018933FM-12+011599999V0203601N003019999999N999999999-00391-00621101961ADDAA101000091MA1999999100491MD1210011+9999REMSYN05801026 26/// /3603 11039 21062 30049 40196 52001 333 60005=
0123010260999992016011611004+69654+018937FM-12+010099999V0200231N0028199999999999999999-00251-00471101951ADDAA101999999KA1010M-00261KA2010N-00381MA1999999100491MD1290019+9999OC100651OD130100651999REMSYN004BUFREQDQ01.1    3APC3  
0233010260999992016011612004+69654+018937FM-12+010099999V0203501N0034100300199015000199-00201-00341101931ADDAA101999999AA206999999AY181061AY221061GA1061+003001091GA2999+999999031GA3999+999999001GE19MSL   +99999+99999GF107991061999003001999999KA1010M-00181KA2010N-00241MA1999999100471MD1710021+9999MW1161OC100561OD130600891999REMSYN004BUFR
0104010260999992016011613004+69654+018937FM-12+010099999V0200011N0034199999999999999999-00201-00351101931ADDAA101000131KA1010M-00171KA2010N-00221MA1999999100471MD1710021+9999OC100631OD130100801999REMSYN004BUFR
0096010260999992016011614004+69654+018937FM-12+010099999V0200661N0017199999999999999999-00321-00431101901ADDAA101999999KA1010M-00201KA2010N-00341MA1999999100441MD1710051+9999OD130100501999REMSYN004BUFR
0224010260999992016011615004+69650+018933FM-12+011599999V0200401N003019999999N070000199-00201-00391101901ADDAA101000091AY181021AY221021GA1051+008001091GA2999+999999031GE19MSL   +99999+99999GF106991051999008001999999MA1999999100441MD1710031+9999MW1161REMSYN07001026 21588 60403 11020 21039 30044 40190 57003 71682 85360 333 60005=
0096010260999992016011616004+69654+018937FM-12+010099999V0200381N0020199999999999999999-00271-00361101891ADDAA101000131KA1010M-00201KA2010N-00311MA1999999100431MD1710031+9999OD130100611999REMSYN004BUFR
0082010260999992016011617004+69654+018937FM-12+010099999V0200871N0009199999999999999999-00391-00481101881ADDAA101999999KA1010M-00291KA2010N-00391MA1999999100411MD1710031+9999REMSYN004BUFR
0247010260999992016011618004+69650+018933FM-12+011599999V0203401N001019999999N002000199-00351-00411101831ADDAA112000331AY181021AY221021GA1071+008001091GE19MSL   +99999+99999GF107991071999008001999999KA1120M-00171MA1999999100371MD1710071+9999MW1861OD139900801999REMSYN08201026 11520 73401 11035 21041 30037 40183 57007 69932 78682 873// 333 11017 91108=
0082010260999992016011619004+69654+018937FM-12+010099999V0200381N0022199999999999999999-00251-00351101771ADDAA101000131KA1010M-00261KA2010N-00331MA1999999100311MD1710121+9999REMSYN004BUFR
0082010260999992016011620004+69654+018937FM-12+010099999V0201161N0011199999999999999999-00321-00401101751ADDAA101999999KA1010M-00261KA2010N-00371MA1999999100291MD1610111+9999REMSYN004BUFR
0224010260999992016011621004+69650+018933FM-12+011599999V0201401N001019999999N070000199-00351-00441101711ADDAA101000131AY181021AY221021GA1041+004501091GA2999+999999031GE19MSL   +99999+99999GF104991041999004501999999MA1999999100251MD1610121+9999MW1261REMSYN07001026 21488 41401 11035 21044 30025 40171 56012 72682 84360 333 69915=
0110010260999992016011622004+69650+018933FM-12+011599999V0203601N004019999999N999999999-00201-00301101681ADDAA101000331MA1999999100231MD1710081+9999REMSYN05801026 26/// /3604 11020 21030 30023 40168 57008 333 69935=
0104010260999992016011623004+69654+018937FM-12+010099999V0203331N0033199999999999999999-00251-00421101611ADDAA101999999KA1010M-00181KA2010N-00291MA1999999100161MD1810131+9999OC100561OD130100641999REMSYN004BUFR
0209010260999992016011700004+69654+018937FM-12+010099999V0203441N0029100300199020000199-00291-00391101561ADDAA101999999AA206000531AY181061AY221061GA1051+003001091GA2999+999999031GE19MSL   +99999+99999GF106991051999003001999999KA1010M-00251KA2010N-00401MA1999999100101MD1810151+9999MW1261OD130600721999REMSYN004BUFR
0082010260999992016011701004+69654+018937FM-12+010099999V0203561N0018199999999999999999-00271-00451101481ADDAA101999999KA1010M-00241KA2010N-00361MA1999999100031MD1710201+9999REMSYN004BUFR
0110010260999992016011702004+69650+018933FM-12+011599999V0200101N001019999999N999999999-00261-00421101421ADDAA101000091MA1999999099971MD1710191+9999REMSYN05801026 26/// /0101 11026 21042 39997 40142 57019 333 60005=
0200010260999992016011703004+69654+018937FM-12+010099999V0203181N0025199999999030000199-00241-00411101361ADDAA101999999AY181031AY221031GA1041+010001091GA2999+999999031GA3999+999999021GE19MSL   +99999+99999GF107991041999010001999999KA1010M-00241KA2010N-00291MA1999999099911MD1710191+9999MW1151REMSYN004BUFR
0110010260999992016011704004+69650+018933FM-12+011599999V0200501N002019999999N999999999-00211-00401101271ADDAA101000091MA1999999099821MD1810211+9999REMSYN05801026 26/// /0502 11021 21040 39982 40127 58021 333 60005=
0082010260999992016011705004+69654+018937FM-12+010099999V0200271N0015199999999999999999-00141-00451101151ADDAA101999999KA1010M-00141KA2010N-00211MA1999999099711MD1810261+9999REMSYN004BUFR
0256010260999992016011706004+69654+018937FM-12+010099999V0200091N0034100300199004000199-00141-00251101091ADDAA101000231AA224001031AJ100003100001099AY181061AY221061GA1071+003001091GA2999+999999101GA3999+999999101GE19MSL   +99999+99999GF107991071999003001999999IA1239KA1120M-00101KA2120N-00401MA1999999099651MD1610261+9999MW1851OC100631OD130600901999REMSYN004BUFR
0110010260999992016011707004+69650+018933FM-12+011599999V0203601N002019999999N999999999-00131-00231101021ADDAA101000131MA1999999099581MD1610251+9999REMSYN05801026 26/// /3602 11013 21023 39958 40102 56025 333 69915=
0104010260999992016011708004+69654+018937FM-12+010099999V0203551N0035199999999999999999-00121-00211100941ADDAA101000331KA1010M-00131KA2010N-00141MA1999999099501MD1710211+9999OC100641OD130100721999REMSYN004BUFR
0214010260999992016011709004+69654+018937FM-12+010099999V0203391N0023199999999000900199-00151-00231100881ADDAA101000531AY181031AY221031GA1091+999999101GA2999+999999101GA3999+999999101GE19MSL   +99999+99999GF199999091999999999999999KA1010M-00131KA2010N-00161MA1999999099441MD1710201+9999MW1861OD130100781999REMSYN004BUFR
0110010260999992016011710004+69650+018933FM-12+011599999V0200301N002019999999N999999999-00161-00241100831ADDAA101000131MA1999999099391MD1710191+9999REMSYN05801026 26/// /0302 11016 21024 39939 40083 57019 333 69915=
0110010260999992016011711004+69650+018933FM-12+011599999V0200201N002019999999N999999999-00251-00371100741ADDAA101000091MA1999999099301MD1810191+9999REMSYN05801026 26/// /0202 11025 21037 39930 40074 58019 333 60005=
0244010260999992016011712004+69650+018933FM-12+011599999V0203301N001019999999N065000199-00251-00321100691ADDAA106001031AY181021AY221021GA1041+004501091GA2999+999999031GE19MSL   +99999+99999GF108991041999004501999999MA1999999099251MD1710191+9999MW1021OD139900801999REMSYN07601026 11487 83301 11025 21032 39925 40069 57019 60011 70282 8437/ 333 91108=
0110010260999992016011713004+69650+018933FM-12+011599999V0200401N002019999999N999999999-00241-00411100631ADDAA101000091MA1999999099191MD1710201+9999REMSYN05801026 26/// /0402 11024 21041 39919 40063 57020 333 60005=
0110010260999992016011714004+69650+018933FM-12+011599999V0200401N001019999999N999999999-00281-00411100571ADDAA101000091MA1999999099131MD1710171+9999REMSYN05801026 26/// /0401 11028 21041 39913 40057 57017 333 60005=
0200010260999992016011715004+69654+018937FM-12+010099999V0200411N0015199999999040000199-00321-00451100521ADDAA101999999AY121031AY221031GA1041+003001081GA2999+999999031GA3999+999999021GE19MSL   +99999+99999GF108991041999003001999999KA1010M-00281KA2010N-00331MA1999999099081MD1710171+9999MW1151REMSYN004BUFR
0110010260999992016011716004+69650+018933FM-12+011599999V0202001N005019999999N999999999-00421-00521100521ADDAA101000131MA1999999099071MD1610111+9999REMSYN05801026 26/// /2005 11042 21052 39907 40052 56011 333 69915=
0110010260999992016011717004+69650+018933FM-12+011599999V0201901N004019999999N999999999-00491-00641100521ADDAA101000091MA1999999099071MD1610061+9999REMSYN05801026 26/// /1904 11049 21064 39907 40052 56006 333 60005=
0279010260999992016011718004+69650+018933FM-12+011599999V0201901N006019999999N050000199-00561-00831100551ADDAA112001031AY181021AY221021GA1041+008001081GA2999+999999031GA3999+999999021GE19MSL   +99999+99999GF108991041999008001999999KA1120M-00121MA1999999099091MD1510001+9999MW1021OD139900901999REMSYN08201026 11584 81906 11056 21083 39909 40055 55000 60012 70282 84868 333 11012 91109=
0104010260999992016011719004+69654+018937FM-12+010099999V0201981N0061199999999999999999-00601-00891100571ADDAA101999999KA1010M-00561KA2010N-00621MA1999999099111MD1210041+9999OC100881OD130101021999REMSYN004BUFR
0104010260999992016011720004+69654+018937FM-12+010099999V0202031N0052199999999999999999-00641-00961100611ADDAA101999999KA1010M-00611KA2010N-00651MA1999999099151MD1210071+9999OC100901OD130100991999REMSYN004BUFR
0240010260999992016011721004+69650+018933FM-12+011599999V0202001N003019999999N070000199-00671-01021100611ADDAA101000091AY121021AY221021GA1021+012501081GA2999+999999041GA3999+999999021GE19MSL   +99999+99999GF107991021999012501999999MA1999999099151MD1210061+9999MW1011REMSYN07001026 21688 72003 11067 21102 39915 40061 52006 70122 82118 333 60005=
0110010260999992016011722004+69650+018933FM-12+011599999V0202001N004019999999N999999999-00741-01181100651ADDAA101000091MA1999999099181MD1110071+9999REMSYN05801026 26/// /2004 11074 21118 39918 40065 51007 333 60005=
0104010260999992016011723004+69654+018937FM-12+010099999V0201981N0075199999999999999999-00841-01321100651ADDAA101999999KA1010M-00741KA2010N-00841MA1999999099181MD1210041+9999OC101231OD130101251999REMSYN004BUFR
0244010260999992016011800004+69650+018933FM-12+011599999V0202001N007019999999N070001199-00891-01401100681ADDAA106000131AY121021AY211021GA1011+022501041GA2999+999999021GE19MSL   +99999+99999GF102991011999022501999999MA1999999099201MD1210051+9999MW1011OD139901301999REMSYN07601026 11889 22007 11089 21140 39920 40068 52005 69911 70121 81018 333 91113=
0104010260999992016011801004+69654+018937FM-12+010099999V0201951N0070199999999999999999-00901-01501100691ADDAA101999999KA1010M-00851KA2010N-00911MA1999999099211MD1210031+9999OC101001OD130101331999REMSYN004BUFR
0104010260999992016011802004+69654+018937FM-12+010099999V0201931N0061199999999999999999-00891-01461100681ADDAA101999999KA1010M-00861KA2010N-00921MA1999999099201MD1010021+9999OC101031OD130101211999REMSYN004BUFR
0206010260999992016011803004+69654+018937FM-12+010099999V0201981N0070199999999075000199-00921-01471100651ADDAA101999999AY111031AY201031GA1011+020001041GA2999+999999021GE19MSL   +99999+99999GF103991011999020001999999KA1010M-00891KA2010N-00931MA1999999099171MD1810031+9999MW1021OC101121OD130101331999REMSYN004BUFR
0110010260999992016011804004+69650+018933FM-12+011599999V0201801N005019999999N999999999-00951-01451100691ADDAA101000091MA1999999099211MD1510001+9999REMSYN05801026 26/// /1805 11095 21145 39921 40069 55000 333 60005=
0110010260999992016011805004+69650+018933FM-12+011599999V0201901N006019999999N999999999-00991-01501100681ADDAA101000091MA1999999099201MD1510001+9999REMSYN05801026 26/// /1906 11099 21150 39920 40068 55000 333 60005=
0312010260999992016011806004+69650+018933FM-12+011599999V0202001N006019999999N070001199-01011-01511100691ADDAA112000131AA224001231AJ100533100530099AY111021AY201021GA1999+999999021GE19MSL   +99999+99999GF101991001999999999999999IA1299KA1240N-01021MA1999999099211MD1210041+9999MW1021OD139901301999REMSYN09401026 11989 12006 11101 21151 39921 40069 52004 69912 70210 80008 333 21102 49053 70012 91113=EQDQ01    003SCCGA1
0123010260999992016011807004+69654+018937FM-12+010099999V0201961N0072199999999999999999-00991-01541100691ADDAA101999999KA1010M-00981KA2010N-01021MA1999999099211MD1410009+9999OC101181OD130101221999REMSYN004BUFREQDQ01.1    3APC3  
0104010260999992016011808004+69654+018937FM-12+010099999V0201931N0066199999999999999999-01021-01571100721ADDAA101999999KA1010M-00991KA2010N-01031MA1999999099241MD1210031+9999OC101131OD130101271999REMSYN004BUFR
