0089010200999992016010101004+76483+016550FM-12+001099999V0201701N005019999999N999999999+00251+00211101031ADDMA1999999100921MD1210111+9999REMSYN04801020 46/// /1705 10025 20021 30092 40103 52011=
0089010200999992016010103004+76483+016550FM-12+001099999V0201501N004019999999N999999999+00241+00231101011ADDMA1999999100901MD1310041+9999REMSYN04801020 46/// /1504 10024 20023 30090 40101 53004=
0089010200999992016010105004+76483+016550FM-12+001099999V0201401N005019999999N999999999+00231+00231100971ADDMA1999999100861MD1710061+9999REMSYN04801020 46/// /1405 10023 20023 30086 40097 57006=
0089010200999992016010107004+76483+016550FM-12+001099999V0201001N006019999999N999999999+00191+00181100891ADDMA1999999100791MD1610091+9999REMSYN04801020 46/// /1006 10019 20018 30079 40089 56009=
0089010200999992016010108004+76483+016550FM-12+001099999V0200801N006019999999N999999999+00141+00141100731ADDMA1999999100621MD1610241+9999REMSYN04801020 46/// /0806 10014 20014 30062 40073 56024=
0089010200999992016010109004+76483+016550FM-12+001099999V0200801N007019999999N999999999+00181+00171100651ADDMA1999999100541MD1710291+9999REMSYN04801020 46/// /0807 10018 20017 30054 40065 57029=
0089010200999992016010111004+76483+016550FM-12+001099999V0201501N008019999999N999999999+00331+00321100571ADDMA1999999100461MD1710161+9999REMSYN04801020 46/// /1508 10033 20032 30046 40057 57016=
0089010200999992016010112004+76483+016550FM-12+001099999V0201601N008019999999N999999999+00381+00321100561ADDMA1999999100451MD1710091+9999REMSYN04801020 46/// /1608 10038 20032 30045 40056 57009=
0089010200999992016010113004+76483+016550FM-12+001099999V0201901N009019999999N999999999+00391+00321100581ADDMA1999999100481MD1810041+9999REMSYN04801020 46/// /1909 10039 20032 30048 40058 58004=
0089010200999992016010114004+76483+016550FM-12+001099999V0201901N010019999999N999999999+00431+00341100641ADDMA1999999100531MD1110071+9999REMSYN04801020 46/// /1910 10043 20034 30053 40064 51007=
0089010200999992016010115004+76483+016550FM-12+001099999V0201901N011019999999N999999999+00451+00351100671ADDMA1999999100561MD1210111+9999REMSYN04801020 46/// /1911 10045 20035 30056 40067 52011=
0089010200999992016010116004+76483+016550FM-12+001099999V0201901N011019999999N999999999+00451+00321100691ADDMA1999999100581MD1310111+9999REMSYN04801020 46/// /1911 10045 20032 30058 40069 53011=
0089010200999992016010117004+76483+016550FM-12+001099999V0201901N011019999999N999999999+00451+00301100721ADDMA1999999100621MD1210091+9999REMSYN04801020 46/// /1911 10045 20030 30062 40072 52009=
0113010200999992016010118004+76483+016550FM-12+001099999V0201901N012019999999N999999999+00451+00321100771ADDMA1999999100671MD1210111+9999OD139901501999REMSYN05801020 46/// /1912 10045 20032 30067 40077 52011 333 91115=
0059010200999992016010120004+76478+016549FM-12+001099999V0202021N0129199999999999999999+00471+00331100891ADDMA1999999100791MD1210171+9999OD130101691999REMSYN004BUFR
0059010200999992016010122004+76478+016549FM-12+001099999V0201921N0097199999999999999999+00441+00271101091ADDMA1999999100991MD1210281+9999OD130101351999REMSYN004BUFR
0089010200999992016010123004+76483+016550FM-12+001099999V0201901N007019999999N999999999+00401+00241101151ADDMA1999999101041MD1310251+9999REMSYN04801020 46/// /1907 10040 20024 30104 40115 53025=
0089010200999992016010200004+76483+016550FM-12+001099999V0201701N007019999999N999999999+00421+00291101141ADDMA1999999101031MD1310131+9999REMSYN04801020 46/// /1707 10042 20029 30103 40114 53013=
0089010200999992016010201004+76483+016550FM-12+001099999V0201701N008019999999N999999999+00411+00281101081ADDMA1999999100971MD1510021+9999REMSYN04801020 46/// /1708 10041 20028 30097 40108 55002=
0089010200999992016010202004+76483+016550FM-12+001099999V0201601N009019999999N999999999+00421+00301100991ADDMA1999999100891MD1610151+9999REMSYN04801020 46/// /1609 10042 20030 30089 40099 56015=
0089010200999992016010203004+76483+016550FM-12+001099999V0202001N010019999999N999999999+00391+00241100961ADDMA1999999100861MD1710171+9999REMSYN04801020 46/// /2010 10039 20024 30086 40096 57017=
0089010200999992016010204004+76483+016550FM-12+001099999V0201801N012019999999N999999999+00461+00091100901ADDMA1999999100791MD1710181+9999REMSYN04801020 46/// /1812 10046 20009 30079 40090 57018=
0089010200999992016010205004+76483+016550FM-12+001099999V0201701N014019999999N999999999+00471+00101100761ADDMA1999999100661MD1610231+9999REMSYN04801020 46/// /1714 10047 20010 30066 40076 56023=
0113010200999992016010206004+76483+016550FM-12+001099999V0201901N017019999999N999999999+00421+00241100671ADDMA1999999100561MD1710291+9999OD139902101999REMSYN05801020 46/// /1917 10042 20024 30056 40067 57029 333 91121=
0089010200999992016010207004+76483+016550FM-12+001099999V0202001N016019999999N999999999+00421+00261100671ADDMA1999999100561MD1810231+9999REMSYN04801020 46/// /2016 10042 20026 30056 40067 58023=
0089010200999992016010208004+76483+016550FM-12+001099999V0202001N020019999999N999999999+00481+00081100681ADDMA1999999100571MD1810081+9999REMSYN04801020 46/// /2020 10048 20008 30057 40068 58008=
0089010200999992016010211004+76483+016550FM-12+001099999V0202201N022019999999N999999999+00411+00041100981ADDMA1999999100871MD1990301+9999REMSYN04801020 46/// /2222 10041 20004 30087 40098 50030=
0089010200999992016010212004+76483+016550FM-12+001099999V0202201N021019999999N999999999+00411-00051101151ADDMA1999999101041MD1210511+9999REMSYN04801020 46/// /2221 10041 21005 30104 40115 52051=
0089010200999992016010214004+76483+016550FM-12+001099999V0202301N018019999999N999999999+00451+00011101511ADDMA1999999101411MD1210531+9999REMSYN04801020 46/// /2318 10045 20001 30141 40151 52053=
0089010200999992016010215004+76483+016550FM-12+001099999V0202301N018019999999N999999999+00441+00021101701ADDMA1999999101591MD1210551+9999REMSYN04801020 46/// /2318 10044 20002 30159 40170 52055=
0089010200999992016010218004+76483+016550FM-12+001099999V0202401N012019999999N999999999+00441+00241102041ADDMA1999999101931MD1210341+9999REMSYN04801020 46/// /2412 10044 20024 30193 40204 52034=
0089010200999992016010219004+76483+016550FM-12+001099999V0202301N012019999999N999999999+00441+00231102191ADDMA1999999102081MD1110341+9999REMSYN04801020 46/// /2312 10044 20023 30208 40219 51034=
0089010200999992016010220004+76483+016550FM-12+001099999V0202301N009019999999N999999999+00401+00271102321ADDMA1999999102221MD1210421+9999REMSYN04801020 46/// /2309 10040 20027 30222 40232 52042=
0059010200999992016010222004+76478+016549FM-12+001099999V0202141N0089199999999999999999+00371+00281102441ADDMA1999999102331MD1310251+9999OD130101001999REMSYN004BUFR
0089010200999992016010223004+76483+016550FM-12+001099999V0202001N008019999999N999999999+00361+00291102471ADDMA1999999102361MD1310151+9999REMSYN04801020 46/// /2008 10036 20029 30236 40247 53015=
0089010200999992016010300004+76483+016550FM-12+001099999V0201901N008019999999N999999999+00371+00301102491ADDMA1999999102381MD1210101+9999REMSYN04801020 46/// /1908 10037 20030 30238 40249 52010=
0089010200999992016010301004+76483+016550FM-12+001099999V0201801N008019999999N999999999+00401+00301102461ADDMA1999999102361MD1510031+9999REMSYN04801020 46/// /1808 10040 20030 30236 40246 55003=
0089010200999992016010303004+76483+016550FM-12+001099999V0201901N011019999999N999999999+00461+00251102351ADDMA1999999102241MD1610141+9999REMSYN04801020 46/// /1911 10046 20025 30224 40235 56014=
0089010200999992016010304004+76483+016550FM-12+001099999V0201801N012019999999N999999999+00481+00231102311ADDMA1999999102211MD1710151+9999REMSYN04801020 46/// /1812 10048 20023 30221 40231 57015=
0089010200999992016010305004+76483+016550FM-12+001099999V0201801N012019999999N999999999+00481+00231102231ADDMA1999999102131MD1710201+9999REMSYN04801020 46/// /1812 10048 20023 30213 40223 57020=
0089010200999992016010306004+76483+016550FM-12+001099999V0201901N014019999999N999999999+00391+00191102181ADDMA1999999102071MD1710171+9999REMSYN04801020 46/// /1914 10039 20019 30207 40218 57017=
0089010200999992016010307004+76483+016550FM-12+001099999V0201901N013019999999N999999999+00481+00251102151ADDMA1999999102051MD1810161+9999REMSYN04801020 46/// /1913 10048 20025 30205 40215 58016=
0089010200999992016010308004+76483+016550FM-12+001099999V0201901N011019999999N999999999+00471+00221102131ADDMA1999999102021MD1710111+9999REMSYN04801020 46/// /1911 10047 20022 30202 40213 57011=
0089010200999992016010309004+76483+016550FM-12+001099999V0201901N012019999999N999999999+00461+00211102091ADDMA1999999101981MD1710091+9999REMSYN04801020 46/// /1912 10046 20021 30198 40209 57009=
0089010200999992016010311004+76483+016550FM-12+001099999V0201901N012019999999N999999999+00451+00251102021ADDMA1999999101911MD1710111+9999REMSYN04801020 46/// /1912 10045 20025 30191 40202 57011=
0089010200999992016010312004+76483+016550FM-12+001099999V0201901N011019999999N999999999+00451+00271102001ADDMA1999999101891MD1710091+9999REMSYN04801020 46/// /1911 10045 20027 30189 40200 57009=
0089010200999992016010314004+76483+016550FM-12+001099999V0201901N012019999999N999999999+00421+00291101881ADDMA1999999101781MD1610141+9999REMSYN04801020 46/// /1912 10042 20029 30178 40188 56014=
0089010200999992016010316004+76483+016550FM-12+001099999V0201901N012019999999N999999999+00411+00311101861ADDMA1999999101751MD1810091+9999REMSYN04801020 46/// /1912 10041 20031 30175 40186 58009=
0059010200999992016010320004+76478+016549FM-12+001099999V0201981N0093199999999999999999+00391+00331101751ADDMA1999999101651MD1710101+9999OD130101181999REMSYN004BUFR
0089010200999992016010321004+76483+016550FM-12+001099999V0202001N010019999999N999999999+00401+00361101711ADDMA1999999101601MD1710101+9999REMSYN04801020 46/// /2010 10040 20036 30160 40171 57010=
0089010200999992016010322004+76483+016550FM-12+001099999V0202001N009019999999N999999999+00401+00331101701ADDMA1999999101591MD1710081+9999REMSYN04801020 46/// /2009 10040 20033 30159 40170 57008=
0089010200999992016010323004+76483+016550FM-12+001099999V0202001N011019999999N999999999+00401+00311101661ADDMA1999999101551MD1710101+9999REMSYN04801020 46/// /2011 10040 20031 30155 40166 57010=
0089010200999992016010400004+76483+016550FM-12+001099999V0202001N009019999999N999999999+00401+00331101621ADDMA1999999101511MD1610091+9999REMSYN04801020 46/// /2009 10040 20033 30151 40162 56009=
0089010200999992016010401004+76483+016550FM-12+001099999V0202101N007019999999N999999999+00381+00321101591ADDMA1999999101491MD1710111+9999REMSYN04801020 46/// /2107 10038 20032 30149 40159 57011=
0089010200999992016010402004+76483+016550FM-12+001099999V0202301N005019999999N999999999+00351+00311101561ADDMA1999999101461MD1710091+9999REMSYN04801020 46/// /2305 10035 20031 30146 40156 57009=
0089010200999992016010403004+76483+016550FM-12+001099999V0203301N003019999999N999999999+00091+00061101541ADDMA1999999101431MD1710081+9999REMSYN04801020 46/// /3303 10009 20006 30143 40154 57008=
0089010200999992016010404004+76483+016550FM-12+001099999V0203401N002019999999N999999999+00071+00071101521ADDMA1999999101411MD1710081+9999REMSYN04801020 46/// /3402 10007 20007 30141 40152 57008=
0089010200999992016010406004+76483+016550FM-12+001099999V0203101N005019999999N999999999+00051+00041101501ADDMA1999999101401MD1710041+9999REMSYN04801020 46/// /3105 10005 20004 30140 40150 57004=
0089010200999992016010407004+76483+016550FM-12+001099999V0203001N005019999999N999999999+00081+00041101541ADDMA1999999101431MD1990021+9999REMSYN04801020 46/// /3005 10008 20004 30143 40154 50002=
0089010200999992016010408004+76483+016550FM-12+001099999V0202901N004019999999N999999999+00131-00031101561ADDMA1999999101451MD1110041+9999REMSYN04801020 46/// /2904 10013 21003 30145 40156 51004=
0089010200999992016010410004+76483+016550FM-12+001099999V0203001N005019999999N999999999+00151+00051101601ADDMA1999999101501MD1210071+9999REMSYN04801020 46/// /3005 10015 20005 30150 40160 52007=
0089010200999992016010411004+76483+016550FM-12+001099999V0203101N006019999999N999999999+00101+00031101621ADDMA1999999101511MD1210061+9999REMSYN04801020 46/// /3106 10010 20003 30151 40162 52006=
0089010200999992016010412004+76483+016550FM-12+001099999V0203201N008019999999N999999999+00021-00251101651ADDMA1999999101541MD1210071+9999REMSYN04801020 46/// /3208 10002 21025 30154 40165 52007=
0089010200999992016010413004+76483+016550FM-12+001099999V0203201N009019999999N999999999-00031-00341101671ADDMA1999999101561MD1210061+9999REMSYN04801020 46/// /3209 11003 21034 30156 40167 52006=
0089010200999992016010415004+76483+016550FM-12+001099999V0203101N008019999999N999999999-00071-00401101761ADDMA1999999101651MD1110111+9999REMSYN04801020 46/// /3108 11007 21040 30165 40176 51011=
0089010200999992016010416004+76483+016550FM-12+001099999V0203101N008019999999N999999999-00061-00401101821ADDMA1999999101721MD1110151+9999REMSYN04801020 46/// /3108 11006 21040 30172 40182 51015=
0089010200999992016010417004+76483+016550FM-12+001099999V0203201N007019999999N999999999-00091-00431101871ADDMA1999999101761MD1210161+9999REMSYN04801020 46/// /3207 11009 21043 30176 40187 52016=
0059010200999992016010420004+76478+016549FM-12+001099999V0203131N0092199999999999999999-00091-00421101971ADDMA1999999101861MD1210101+9999OD130101081999REMSYN004BUFR
0089010200999992016010421004+76483+016550FM-12+001099999V0203101N009019999999N999999999-00071-00381102001ADDMA1999999101891MD1210091+9999REMSYN04801020 46/// /3109 11007 21038 30189 40200 52009=
0089010200999992016010422004+76483+016550FM-12+001099999V0203201N009019999999N999999999-00081-00391102001ADDMA1999999101891MD1210061+9999REMSYN04801020 46/// /3209 11008 21039 30189 40200 52006=
0045010200999992016010500004+76478+016549FM-12+001099999V0203321N0056199999999999999999-00171-00431102091ADDMA1999999101981MD1110091+9999REMSYN004BUFR
0089010200999992016010501004+76483+016550FM-12+001099999V0203401N005019999999N999999999-00181-00431102121ADDMA1999999102011MD1210121+9999REMSYN04801020 46/// /3405 11018 21043 30201 40212 52012=
0089010200999992016010503004+76483+016550FM-12+001099999V0203301N004019999999N999999999-00281-00511102111ADDMA1999999102011MD1510031+9999REMSYN04801020 46/// /3304 11028 21051 30201 40211 55003=
0108010200999992016010504004+76483+016550FM-12+001099999V0203401N005019999999N999999999-00241-00501102131ADDMA1999999102021MD1290019+9999REMSYN04801020 46/// /3405 11024 21050 30202 40213 54001=EQDQ01.1    3APC3  
0089010200999992016010505004+76483+016550FM-12+001099999V0203301N003019999999N999999999-00221-00511102151ADDMA1999999102041MD1990021+9999REMSYN04801020 46/// /3303 11022 21051 30204 40215 50002=
0089010200999992016010506004+76483+016550FM-12+001099999V0203301N003019999999N999999999-00201-00491102151ADDMA1999999102041MD1210031+9999REMSYN04801020 46/// /3303 11020 21049 30204 40215 52003=
0089010200999992016010507004+76483+016550FM-12+001099999V0203301N002019999999N999999999-00211-00531102181ADDMA1999999102071MD1210051+9999REMSYN04801020 46/// /3302 11021 21053 30207 40218 52005=
0089010200999992016010508004+76483+016550FM-12+001099999V0203301N002019999999N999999999-00251-00541102191ADDMA1999999102081MD1210041+9999REMSYN04801020 46/// /3302 11025 21054 30208 40219 52004=
0089010200999992016010509004+76483+016550FM-12+001099999V0203501N002019999999N999999999-00231-00441102201ADDMA1999999102091MD1210051+9999REMSYN04801020 46/// /3502 11023 21044 30209 40220 52005=
0089010200999992016010511004+76483+016550FM-12+001099999V0200201N002019999999N999999999-00231-00401102181ADDMA1999999102071MD1510011+9999REMSYN04801020 46/// /0202 11023 21040 30207 40218 55001=
0108010200999992016010512004+76483+016550FM-12+001099999V0200401N003019999999N999999999-00221-00451102171ADDMA1999999102061MD1790039+9999REMSYN04801020 46/// /0403 11022 21045 30206 40217 54003=EQDQ01.3    3APC3  
0089010200999992016010513004+76483+016550FM-12+001099999V0200301N002019999999N999999999-00201-00441102161ADDMA1999999102061MD1710041+9999REMSYN04801020 46/// /0302 11020 21044 30206 40216 57004=
0059010200999992016010520004+76478+016549FM-12+001099999V0203301N0046199999999999999999-00251-00431102041ADDMA1999999101931MD1710071+9999OD130100541999REMSYN004BUFR
0085010200999992016010521004+76478+016549FM-12+001099999V0203381N0045199999999999999999-00291-00441102021ADDKA1010M-00251KA2010N-00291MA1999999101911MD1710061+9999OD130100561999REMSYN004BUFR
0085010200999992016010522004+76478+016549FM-12+001099999V0203251N0044199999999999999999-00271-00431102001ADDKA1010M-00271KA2010N-00301MA1999999101891MD1710071+9999OD130100591999REMSYN004BUFR
0089010200999992016010600004+76483+016550FM-12+001099999V0203301N004019999999N999999999-00281-00441101951ADDMA1999999101841MD1710071+9999REMSYN04801020 46/// /3304 11028 21044 30184 40195 57007=
0089010200999992016010601004+76483+016550FM-12+001099999V0203501N005019999999N999999999-00291-00471101911ADDMA1999999101801MD1710091+9999REMSYN04801020 46/// /3505 11029 21047 30180 40191 57009=
0089010200999992016010602004+76483+016550FM-12+001099999V0203401N003019999999N999999999-00291-00481101881ADDMA1999999101771MD1710091+9999REMSYN04801020 46/// /3403 11029 21048 30177 40188 57009=
0089010200999992016010603004+76483+016550FM-12+001099999V0203401N004019999999N999999999-00311-00501101881ADDMA1999999101771MD1810071+9999REMSYN04801020 46/// /3404 11031 21050 30177 40188 58007=
0089010200999992016010604004+76483+016550FM-12+001099999V0203301N004019999999N999999999-00331-00511101851ADDMA1999999101741MD1710061+9999REMSYN04801020 46/// /3304 11033 21051 30174 40185 57006=
0089010200999992016010605004+76483+016550FM-12+001099999V0203301N004019999999N999999999-00331-00511101811ADDMA1999999101701MD1710071+9999REMSYN04801020 46/// /3304 11033 21051 30170 40181 57007=
0113010200999992016010606004+76483+016550FM-12+001099999V0203101N006019999999N999999999-00421-00541101801ADDMA1999999101691MD1710081+9999OD139900701999REMSYN05801020 46/// /3106 11042 21054 30169 40180 57008 333 91107=
0089010200999992016010607004+76483+016550FM-12+001099999V0203401N004019999999N999999999-00491-00611101831ADDMA1999999101721MD1990011+9999REMSYN04801020 46/// /3404 11049 21061 30172 40183 50001=
0089010200999992016010608004+76483+016550FM-12+001099999V0203301N004019999999N999999999-00491-00641101851ADDMA1999999101741MD1210041+9999REMSYN04801020 46/// /3304 11049 21064 30174 40185 52004=
0089010200999992016010609004+76483+016550FM-12+001099999V0203301N003019999999N999999999-00501-00611101821ADDMA1999999101711MD1510021+9999REMSYN04801020 46/// /3303 11050 21061 30171 40182 55002=
0108010200999992016010610004+76483+016550FM-12+001099999V0203401N005019999999N999999999-00491-00641101821ADDMA1999999101711MD1790019+9999REMSYN04801020 46/// /3405 11049 21064 30171 40182 54001=EQDQ01.1    3APC3  
0089010200999992016010611004+76483+016550FM-12+001099999V0203401N005019999999N999999999-00511-00631101801ADDMA1999999101691MD1710051+9999REMSYN04801020 46/// /3405 11051 21063 30169 40180 57005=
0132010200999992016010612004+76483+016550FM-12+001099999V0203401N004019999999N999999999-00521-00661101811ADDMA1999999101701MD1790019+9999OD139900701999REMSYN05801020 46/// /3404 11052 21066 30170 40181 54001 333 91107=EQDQ01.1    3APC3  
0108010200999992016010613004+76483+016550FM-12+001099999V0203401N004019999999N999999999-00491-00721101791ADDMA1999999101681MD1790039+9999REMSYN04801020 46/// /3404 11049 21072 30168 40179 54003=EQDQ01.3    3APC3  
0089010200999992016010614004+76483+016550FM-12+001099999V0203301N003019999999N999999999-00441-00761101761ADDMA1999999101651MD1610041+9999REMSYN04801020 46/// /3303 11044 21076 30165 40176 56004=
0089010200999992016010615004+76483+016550FM-12+001099999V0203101N003019999999N999999999-00401-00771101751ADDMA1999999101641MD1710061+9999REMSYN04801020 46/// /3103 11040 21077 30164 40175 57006=
0089010200999992016010616004+76483+016550FM-12+001099999V0203601N001019999999N999999999-00401-00701101741ADDMA1999999101631MD1710051+9999REMSYN04801020 46/// /3601 11040 21070 30163 40174 57005=
0108010200999992016010618004+76483+016550FM-12+001099999V0200501N005019999999N999999999-00361-00481101741ADDMA1999999101631MD1790019+9999REMSYN04801020 46/// /0505 11036 21048 30163 40174 54001=EQDQ01.1    3APC3  
0089010200999992016010619004+76483+016550FM-12+001099999V0200301N012019999999N999999999-00431-00531101711ADDMA1999999101611MD1510021+9999REMSYN04801020 46/// /0312 11043 21053 30161 40171 55002=
0089010200999992016010620004+76483+016550FM-12+001099999V0200401N011019999999N999999999-00461-00611101741ADDMA1999999101631MD1990011+9999REMSYN04801020 46/// /0411 11046 21061 30163 40174 50001=
0108010200999992016010621004+76483+016550FM-12+001099999V0200401N013019999999N999999999-00491-00631101731ADDMA1999999101621MD1790019+9999REMSYN04801020 46/// /0413 11049 21063 30162 40173 54001=EQDQ01.1    3APC3  
0108010200999992016010622004+76483+016550FM-12+001099999V0200401N013019999999N999999999-00511-00651101741ADDMA1999999101631MD1290039+9999REMSYN04801020 46/// /0413 11051 21065 30163 40174 54003=EQDQ01.3    3APC3  
0089010200999992016010623004+76483+016550FM-12+001099999V0200401N014019999999N999999999-00521-00661101751ADDMA1999999101641MD1990011+9999REMSYN04801020 46/// /0414 11052 21066 30164 40175 50001=
0113010200999992016010700004+76483+016550FM-12+001099999V0200301N013019999999N999999999-00541-00741101811ADDMA1999999101701MD1110091+9999OD139901601999REMSYN05801020 46/// /0313 11054 21074 30170 40181 51009 333 91116=
0089010200999992016010701004+76483+016550FM-12+001099999V0200401N013019999999N999999999-00521-00631101791ADDMA1999999101681MD1310051+9999REMSYN04801020 46/// /0413 11052 21063 30168 40179 53005=
0089010200999992016010702004+76483+016550FM-12+001099999V0200301N011019999999N999999999-00521-00721101821ADDMA1999999101711MD1210071+9999REMSYN04801020 46/// /0311 11052 21072 30171 40182 52007=
0108010200999992016010703004+76483+016550FM-12+001099999V0200301N010019999999N999999999-00531-00721101821ADDMA1999999101711MD1290019+9999REMSYN04801020 46/// /0310 11053 21072 30171 40182 54001=EQDQ01.1    3APC3  
0089010200999992016010704004+76483+016550FM-12+001099999V0200301N009019999999N999999999-00551-00741101821ADDMA1999999101711MD1310031+9999REMSYN04801020 46/// /0309 11055 21074 30171 40182 53003=
0108010200999992016010705004+76483+016550FM-12+001099999V0200301N008019999999N999999999-00541-00701101831ADDMA1999999101721MD1290019+9999REMSYN04801020 46/// /0308 11054 21070 30172 40183 54001=EQDQ01.1    3APC3  
0132010200999992016010706004+76483+016550FM-12+001099999V0200401N012019999999N999999999-00471-00761101771ADDKA1240N-00561MA1999999101661MD1610051+9999OD139901401999REMSYN06401020 46/// /0412 11047 21076 30166 40177 56005 333 21056 91114=
0108010200999992016010707004+76483+016550FM-12+001099999V0200401N012019999999N999999999-00461-00751101801ADDMA1999999101691MD1790029+9999REMSYN04801020 46/// /0412 11046 21075 30169 40180 54002=EQDQ01.2    3APC3  
0089010200999992016010708004+76483+016550FM-12+001099999V0200401N012019999999N999999999-00461-00691101801ADDMA1999999101691MD1810031+9999REMSYN04801020 46/// /0412 11046 21069 30169 40180 58003=
0089010200999992016010709004+76483+016550FM-12+001099999V0200401N013019999999N999999999-00421-00651101771ADDMA1999999101661MD1510001+9999REMSYN04801020 46/// /0413 11042 21065 30166 40177 55000=
0089010200999992016010710004+76483+016550FM-12+001099999V0200401N015019999999N999999999-00421-00621101731ADDMA1999999101621MD1610061+9999REMSYN04801020 46/// /0415 11042 21062 30162 40173 56006=
0089010200999992016010711004+76483+016550FM-12+001099999V0200401N015019999999N999999999-00361-00581101681ADDMA1999999101571MD1710121+9999REMSYN04801020 46/// /0415 11036 21058 30157 40168 57012=
0113010200999992016010712004+76483+016550FM-12+001099999V0200401N016019999999N999999999-00331-00701101631ADDMA1999999101531MD1710131+9999OD139901801999REMSYN05801020 46/// /0416 11033 21070 30153 40163 57013 333 91118=
0089010200999992016010714004+76483+016550FM-12+001099999V0200401N019019999999N999999999-00421-00611101541ADDMA1999999101431MD1710141+9999REMSYN04801020 46/// /0419 11042 21061 30143 40154 57014=
0089010200999992016010716004+76483+016550FM-12+001099999V0200401N022019999999N999999999-00541-00661101441ADDMA1999999101331MD1710151+9999REMSYN04801020 46/// /0422 11054 21066 30133 40144 57015=
0089010200999992016010718004+76483+016550FM-12+001099999V0200401N024019999999N999999999-00631-00751101381ADDMA1999999101271MD1710101+9999REMSYN04801020 46/// /0424 11063 21075 30127 40138 57010=
0059010200999992016010720004+76478+016549FM-12+001099999V0200421N0244199999999999999999-00641-00741101251ADDMA1999999101141MD1710171+9999OD130102701999REMSYN004BUFR
0089010200999992016010721004+76483+016550FM-12+001099999V0200401N025019999999N999999999-00651-00781101191ADDMA1999999101081MD1710201+9999REMSYN04801020 46/// /0425 11065 21078 30108 40119 57020=
0089010200999992016010722004+76483+016550FM-12+001099999V0200401N025019999999N999999999-00681-00761101231ADDMA1999999101121MD1810061+9999REMSYN04801020 46/// /0425 11068 21076 30112 40123 58006=
0045010200999992016010800004+76478+016549FM-12+001099999V0200401N0232199999999999999999-00691-00771101211ADDMA1999999101101MD1510031+9999REMSYN004BUFR
0089010200999992016010801004+76483+016550FM-12+001099999V0200401N022019999999N999999999-00641-00701101231ADDMA1999999101121MD1990001+9999REMSYN04801020 46/// /0422 11064 21070 30112 40123 50000=
0094010200999992016010802004+76483+016550FM-12+001099999V0200401N020019999999N999999999-00611-00661101221ADDMA1999999101111REMSYN04801020 46/// /0420 11061 21066 30111 40122 54002=EQDQ014     3APCTEN
0089010200999992016010805004+76483+016550FM-12+001099999V0200701N011019999999N999999999-00331-00641101331ADDMA1999999101221MD1210101+9999REMSYN04801020 46/// /0711 11033 21064 30122 40133 52010=
0089010200999992016010806004+76483+016550FM-12+001099999V0200901N011019999999N999999999-00221-00611101321ADDMA1999999101211MD1310071+9999REMSYN04801020 46/// /0911 11022 21061 30121 40132 53007=
0108010200999992016010808004+76483+016550FM-12+001099999V0200901N012019999999N999999999-00241-00561101331ADDMA1999999101221MD1410009+9999REMSYN04801020 46/// /0912 11024 21056 30122 40133 54001=EQDQ01.1    3APC3  
0089010200999992016010811004+76483+016550FM-12+001099999V0200901N013019999999N999999999-00241-00431101391ADDMA1999999101281MD1210061+9999REMSYN04801020 46/// /0913 11024 21043 30128 40139 52006=
0089010200999992016010812004+76483+016550FM-12+001099999V0201101N013019999999N999999999-00241-00581101401ADDMA1999999101291MD1210041+9999REMSYN04801020 46/// /1113 11024 21058 30129 40140 52004=
0089010200999992016010814004+76483+016550FM-12+001099999V0201001N009019999999N999999999-00191-00701101461ADDMA1999999101351MD1210071+9999REMSYN04801020 46/// /1009 11019 21070 30135 40146 52007=
0089010200999992016010815004+76483+016550FM-12+001099999V0200801N010019999999N999999999-00351-00491101481ADDMA1999999101371MD1210081+9999REMSYN04801020 46/// /0810 11035 21049 30137 40148 52008=
0089010200999992016010816004+76483+016550FM-12+001099999V0200801N007019999999N999999999-00251-00471101461ADDMA1999999101361MD1510031+9999REMSYN04801020 46/// /0807 11025 21047 30136 40146 55003=
0059010200999992016010821004+76478+016549FM-12+001099999V0200631N0070199999999999999999-00341-00481101541ADDMA1999999101431MD1210071+9999OD130101151999REMSYN004BUFR
0059010200999992016010823004+76478+016549FM-12+001099999V0200841N0083199999999999999999-00301-00501101571ADDMA1999999101461MD1210051+9999OD130101291999REMSYN004BUFR
0089010200999992016010900004+76483+016550FM-12+001099999V0200801N004019999999N999999999-00371-00441101581ADDMA1999999101471MD1210041+9999REMSYN04801020 46/// /0804 11037 21044 30147 40158 52004=
0089010200999992016010901004+76483+016550FM-12+001099999V0201001N005019999999N999999999-00321-00341101611ADDMA1999999101501MD1210081+9999REMSYN04801020 46/// /1005 11032 21034 30150 40161 52008=
0089010200999992016010902004+76483+016550FM-12+001099999V0201401N005019999999N999999999-00201-00421101611ADDMA1999999101501MD1210041+9999REMSYN04801020 46/// /1405 11020 21042 30150 40161 52004=
0089010200999992016010904004+76483+016550FM-12+001099999V0200901N010019999999N999999999-00211-00341101601ADDMA1999999101491MD1510011+9999REMSYN04801020 46/// /0910 11021 21034 30149 40160 55001=
0108010200999992016010905004+76483+016550FM-12+001099999V0201001N009019999999N999999999-00261-00271101611ADDMA1999999101511MD1410009+9999REMSYN04801020 46/// /1009 11026 21027 30151 40161 54001=EQDQ01.1    3APC3  
0089010200999992016010906004+76483+016550FM-12+001099999V0200801N013019999999N999999999-00181-00401101581ADDMA1999999101471MD1710071+9999REMSYN04801020 46/// /0813 11018 21040 30147 40158 57007=
0089010200999992016010907004+76483+016550FM-12+001099999V0200801N011019999999N999999999-00141-00471101631ADDMA1999999101521MD1110031+9999REMSYN04801020 46/// /0811 11014 21047 30152 40163 51003=
0089010200999992016010908004+76483+016550FM-12+001099999V0200901N011019999999N999999999-00131-00521101671ADDMA1999999101561MD1990061+9999REMSYN04801020 46/// /0911 11013 21052 30156 40167 50006=
0089010200999992016010909004+76483+016550FM-12+001099999V0200701N013019999999N999999999-00181-00581101711ADDMA1999999101611MD1210141+9999REMSYN04801020 46/// /0713 11018 21058 30161 40171 52014=
0089010200999992016010911004+76483+016550FM-12+001099999V0200501N015019999999N999999999-00371-00711101741ADDMA1999999101631MD1210071+9999REMSYN04801020 46/// /0515 11037 21071 30163 40174 52007=
0089010200999992016010913004+76483+016550FM-12+001099999V0200401N013019999999N999999999-00331-00611101781ADDMA1999999101671MD1210061+9999REMSYN04801020 46/// /0413 11033 21061 30167 40178 52006=
0089010200999992016010915004+76483+016550FM-12+001099999V0200401N015019999999N999999999-00361-00511101731ADDMA1999999101621MD1710051+9999REMSYN04801020 46/// /0415 11036 21051 30162 40173 57005=
0089010200999992016010916004+76483+016550FM-12+001099999V0200501N013019999999N999999999-00331-00671101751ADDMA1999999101641MD1990031+9999REMSYN04801020 46/// /0513 11033 21067 30164 40175 50003=
0089010200999992016010918004+76483+016550FM-12+001099999V0200501N014019999999N999999999-00361-00591101761ADDMA1999999101651MD1210031+9999REMSYN04801020 46/// /0514 11036 21059 30165 40176 52003=
0059010200999992016010920004+76478+016549FM-12+001099999V0200431N0137199999999999999999-00401-00551101791ADDMA1999999101681MD1210051+9999OD130101531999REMSYN004BUFR
0089010200999992016010921004+76483+016550FM-12+001099999V0200401N014019999999N999999999-00421-00581101781ADDMA1999999101671MD1510011+9999REMSYN04801020 46/// /0414 11042 21058 30167 40178 55001=
0059010200999992016010923004+76478+016549FM-12+001099999V0200491N0124199999999999999999-00371-00561101801ADDMA1999999101691MD1010001+9999OD130101531999REMSYN004BUFR
0108010200999992016011000004+76483+016550FM-12+001099999V0200601N013019999999N999999999-00361-00621101791ADDMA1999999101691MD1290019+9999REMSYN04801020 46/// /0613 11036 21062 30169 40179 54002=EQDQ01.2    3APC3  
0089010200999992016011001004+76483+016550FM-12+001099999V0200501N011019999999N999999999-00351-00751101801ADDMA1999999101691MD1210031+9999REMSYN04801020 46/// /0511 11035 21075 30169 40180 52003=
0089010200999992016011002004+76483+016550FM-12+001099999V0200601N012019999999N999999999-00351-00851101801ADDMA1999999101691MD1410001+9999REMSYN04801020 46/// /0612 11035 21085 30169 40180 54000=
0089010200999992016011004004+76483+016550FM-12+001099999V0200401N012019999999N999999999-00431-00651101761ADDMA1999999101651MD1710041+9999REMSYN04801020 46/// /0412 11043 21065 30165 40176 57004=
0089010200999992016011005004+76483+016550FM-12+001099999V0200401N014019999999N999999999-00451-00561101731ADDMA1999999101621MD1710071+9999REMSYN04801020 46/// /0414 11045 21056 30162 40173 57007=
0089010200999992016011007004+76483+016550FM-12+001099999V0200301N013019999999N999999999-00421-00491101741ADDMA1999999101631MD1990021+9999REMSYN04801020 46/// /0313 11042 21049 30163 40174 50002=
0089010200999992016011008004+76483+016550FM-12+001099999V0200401N013019999999N999999999-00431-00551101771ADDMA1999999101661MD1210041+9999REMSYN04801020 46/// /0413 11043 21055 30166 40177 52004=
0089010200999992016011010004+76483+016550FM-12+001099999V0200501N013019999999N999999999-00391-00651101781ADDMA1999999101681MD1210051+9999REMSYN04801020 46/// /0513 11039 21065 30168 40178 52005=
0108010200999992016011011004+76483+016550FM-12+001099999V0200501N012019999999N999999999-00381-00671101771ADDMA1999999101661MD1410009+9999REMSYN04801020 46/// /0512 11038 21067 30166 40177 54001=EQDQ01.1    3APC3  
0089010200999992016011012004+76483+016550FM-12+001099999V0200401N015019999999N999999999-00421-00581101761ADDMA1999999101651MD1410001+9999REMSYN04801020 46/// /0415 11042 21058 30165 40176 54000=
0108010200999992016011014004+76483+016550FM-12+001099999V0200401N014019999999N999999999-00421-00581101761ADDMA1999999101651MD1790019+9999REMSYN04801020 46/// /0414 11042 21058 30165 40176 54001=EQDQ01.1    3APC3  
0089010200999992016011015004+76483+016550FM-12+001099999V0200301N016019999999N999999999-00441-00591101731ADDMA1999999101621MD1710041+9999REMSYN04801020 46/// /0316 11044 21059 30162 40173 57004=
0089010200999992016011016004+76483+016550FM-12+001099999V0200301N016019999999N999999999-00401-00511101701ADDMA1999999101601MD1610051+9999REMSYN04801020 46/// /0316 11040 21051 30160 40170 56005=
0089010200999992016011017004+76483+016550FM-12+001099999V0200401N016019999999N999999999-00331-00421101711ADDMA1999999101601MD1810061+9999REMSYN04801020 46/// /0416 11033 21042 30160 40171 58006=
0059010200999992016011020004+76478+016549FM-12+001099999V0200471N0146199999999999999999-00321-00381101771ADDMA1999999101661MD1110061+9999OD130101781999REMSYN004BUFR
0089010200999992016011021004+76483+016550FM-12+001099999V0200601N011019999999N999999999-00251-00261101831ADDMA1999999101721MD1210131+9999REMSYN04801020 46/// /0611 11025 21026 30172 40183 52013=
0089010200999992016011022004+76483+016550FM-12+001099999V0200601N009019999999N999999999-00221-00271101851ADDMA1999999101741MD1210131+9999REMSYN04801020 46/// /0609 11022 21027 30174 40185 52013=
0089010200999992016011102004+76483+016550FM-12+001099999V0200601N014019999999N999999999-00251-00321101941ADDMA1999999101831MD1210101+9999REMSYN04801020 46/// /0614 11025 21032 30183 40194 52010=
0089010200999992016011103004+76483+016550FM-12+001099999V0200601N013019999999N999999999-00221-00281102001ADDMA1999999101891MD1210121+9999REMSYN04801020 46/// /0613 11022 21028 30189 40200 52012=
0089010200999992016011104004+76483+016550FM-12+001099999V0200701N012019999999N999999999-00191-00381102011ADDMA1999999101911MD1210091+9999REMSYN04801020 46/// /0712 11019 21038 30191 40201 52009=
0089010200999992016011105004+76483+016550FM-12+001099999V0200801N013019999999N999999999-00191-00381102051ADDMA1999999101941MD1210111+9999REMSYN04801020 46/// /0813 11019 21038 30194 40205 52011=
0089010200999992016011106004+76483+016550FM-12+001099999V0200801N012019999999N999999999-00181-00371102111ADDMA1999999102001MD1110111+9999REMSYN04801020 46/// /0812 11018 21037 30200 40211 51011=
0089010200999992016011107004+76483+016550FM-12+001099999V0200801N013019999999N999999999-00191-00471102161ADDMA1999999102051MD1210151+9999REMSYN04801020 46/// /0813 11019 21047 30205 40216 52015=
0089010200999992016011108004+76483+016550FM-12+001099999V0200701N013019999999N999999999-00211-00451102231ADDMA1999999102121MD1210171+9999REMSYN04801020 46/// /0713 11021 21045 30212 40223 52017=
0089010200999992016011109004+76483+016550FM-12+001099999V0200701N012019999999N999999999-00281-00431102301ADDMA1999999102191MD1210191+9999REMSYN04801020 46/// /0712 11028 21043 30219 40230 52019=
0089010200999992016011110004+76483+016550FM-12+001099999V0200601N013019999999N999999999-00251-00391102321ADDMA1999999102221MD1310161+9999REMSYN04801020 46/// /0613 11025 21039 30222 40232 53016=
0089010200999992016011111004+76483+016550FM-12+001099999V0200601N014019999999N999999999-00301-00351102361ADDMA1999999102251MD1210141+9999REMSYN04801020 46/// /0614 11030 21035 30225 40236 52014=
0113010200999992016011112004+76483+016550FM-12+001099999V0200601N012019999999N999999999-00321-00361102431ADDMA1999999102321MD1110131+9999OD139901601999REMSYN05801020 46/// /0612 11032 21036 30232 40243 51013 333 91116=
0089010200999992016011113004+76483+016550FM-12+001099999V0200601N012019999999N999999999-00321-00381102461ADDMA1999999102351MD1210141+9999REMSYN04801020 46/// /0612 11032 21038 30235 40246 52014=
0089010200999992016011114004+76483+016550FM-12+001099999V0200801N012019999999N999999999-00321-00411102511ADDMA1999999102401MD1210151+9999REMSYN04801020 46/// /0812 11032 21041 30240 40251 52015=
0089010200999992016011115004+76483+016550FM-12+001099999V0200601N012019999999N999999999-00271-00411102551ADDMA1999999102441MD1210121+9999REMSYN04801020 46/// /0612 11027 21041 30244 40255 52012=
0089010200999992016011116004+76483+016550FM-12+001099999V0200601N011019999999N999999999-00261-00371102591ADDMA1999999102481MD1210121+9999REMSYN04801020 46/// /0611 11026 21037 30248 40259 52012=
0089010200999992016011117004+76483+016550FM-12+001099999V0200701N010019999999N999999999-00251-00471102621ADDMA1999999102511MD1210111+9999REMSYN04801020 46/// /0710 11025 21047 30251 40262 52011=
0132010200999992016011118004+76483+016550FM-12+001099999V0200701N011019999999N999999999-00231-00651102651ADDKA1120M-00181MA1999999102541MD1210111+9999OD139901501999REMSYN06401020 46/// /0711 11023 21065 30254 40265 52011 333 11018 91115=
0089010200999992016011119004+76483+016550FM-12+001099999V0200701N011019999999N999999999-00261-00451102691ADDMA1999999102581MD1210111+9999REMSYN04801020 46/// /0711 11026 21045 30258 40269 52011=
0089010200999992016011120004+76483+016550FM-12+001099999V0200701N010019999999N999999999-00281-00331102731ADDMA1999999102621MD1210111+9999REMSYN04801020 46/// /0710 11028 21033 30262 40273 52011=
0089010200999992016011121004+76483+016550FM-12+001099999V0200701N010019999999N999999999-00261-00311102781ADDMA1999999102671MD1210131+9999REMSYN04801020 46/// /0710 11026 21031 30267 40278 52013=
0089010200999992016011122004+76483+016550FM-12+001099999V0200801N012019999999N999999999-00261-00401102851ADDMA1999999102741MD1210161+9999REMSYN04801020 46/// /0812 11026 21040 30274 40285 52016=
0089010200999992016011123004+76483+016550FM-12+001099999V0200901N010019999999N999999999-00291-00361102911ADDMA1999999102801MD1210181+9999REMSYN04801020 46/// /0910 11029 21036 30280 40291 52018=
0113010200999992016011200004+76483+016550FM-12+001099999V0200901N010019999999N999999999-00301-00391102911ADDMA1999999102801MD1310131+9999OD139901501999REMSYN05801020 46/// /0910 11030 21039 30280 40291 53013 333 91115=
0089010200999992016011201004+76483+016550FM-12+001099999V0200901N011019999999N999999999-00251-00501102961ADDMA1999999102851MD1210111+9999REMSYN04801020 46/// /0911 11025 21050 30285 40296 52011=
0089010200999992016011202004+76483+016550FM-12+001099999V0200801N013019999999N999999999-00251-00641102981ADDMA1999999102871MD1210071+9999REMSYN04801020 46/// /0813 11025 21064 30287 40298 52007=
0089010200999992016011203004+76483+016550FM-12+001099999V0200801N012019999999N999999999-00321-00611103041ADDMA1999999102931MD1210121+9999REMSYN04801020 46/// /0812 11032 21061 30293 40304 52012=
0089010200999992016011204004+76483+016550FM-12+001099999V0200801N012019999999N999999999-00321-00691103071ADDMA1999999102961MD1210111+9999REMSYN04801020 46/// /0812 11032 21069 30296 40307 52011=
0089010200999992016011205004+76483+016550FM-12+001099999V0200901N009019999999N999999999-00421-00621103151ADDMA1999999103041MD1210171+9999REMSYN04801020 46/// /0909 11042 21062 30304 40315 52017=
0132010200999992016011206004+76483+016550FM-12+001099999V0200701N010019999999N999999999-00391-00871103161ADDKA1240N-00431MA1999999103051MD1210121+9999OD139901401999REMSYN06401020 46/// /0710 11039 21087 30305 40316 52012 333 21043 91114=
0089010200999992016011207004+76483+016550FM-12+001099999V0200701N010019999999N999999999-00381-00831103191ADDMA1999999103081MD1310121+9999REMSYN04801020 46/// /0710 11038 21083 30308 40319 53012=
0089010200999992016011208004+76483+016550FM-12+001099999V0200601N010019999999N999999999-00401-00921103231ADDMA1999999103111MD1210081+9999REMSYN04801020 46/// /0610 11040 21092 30311 40323 52008=
0089010200999992016011209004+76483+016550FM-12+001099999V0200601N008019999999N999999999-00421-00901103231ADDMA1999999103121MD1210071+9999REMSYN04801020 46/// /0608 11042 21090 30312 40323 52007=
0085010200999992016011210004+76478+016549FM-12+001099999V0200601N0094199999999999999999-00441-00971103231ADDKA1010M-00421KA2010N-00451MA1999999103121MD1310041+9999OD130101031999REMSYN004BUFR
0089010200999992016011211004+76483+016550FM-12+001099999V0200601N008019999999N999999999-00461-00941103221ADDMA1999999103111MD1410001+9999REMSYN04801020 46/// /0608 11046 21094 30311 40322 54000=
0132010200999992016011212004+76483+016550FM-12+001099999V0200501N008019999999N999999999-00471-00951103211ADDMA1999999103101MD1790029+9999OD139901201999REMSYN05801020 46/// /0508 11047 21095 30310 40321 54003 333 91112=EQDQ01.3    3APC3  
0108010200999992016011213004+76483+016550FM-12+001099999V0200701N007019999999N999999999-00481-01011103211ADDMA1999999103101MD1790029+9999REMSYN04801020 46/// /0707 11048 21101 30310 40321 54002=EQDQ01.2    3APC3  
0108010200999992016011214004+76483+016550FM-12+001099999V0200501N007019999999N999999999-00491-01001103201ADDMA1999999103091MD1790029+9999REMSYN04801020 46/// /0507 11049 21100 30309 40320 54003=EQDQ01.3    3APC3  
0089010200999992016011215004+76483+016550FM-12+001099999V0200401N006019999999N999999999-00501-01031103181ADDMA1999999103071MD1710031+9999REMSYN04801020 46/// /0406 11050 21103 30307 40318 57003=
0089010200999992016011216004+76483+016550FM-12+001099999V0200301N006019999999N999999999-00541-00981103151ADDMA1999999103041MD1710051+9999REMSYN04801020 46/// /0306 11054 21098 30304 40315 57005=
0089010200999992016011219004+76483+016550FM-12+001099999V0200101N002019999999N999999999-00651-01021103041ADDMA1999999102931MD1710121+9999REMSYN04801020 46/// /0102 11065 21102 30293 40304 57012=
0089010200999992016011220004+76483+016550FM-12+001099999V0203401N002019999999N999999999-00641-01061102991ADDMA1999999102881MD1710121+9999REMSYN04801020 46/// /3402 11064 21106 30288 40299 57012=
0089010200999992016011221004+76483+016550FM-12+001099999V0203501N001019999999N999999999-00691-01081102931ADDMA1999999102821MD1710141+9999REMSYN04801020 46/// /3501 11069 21108 30282 40293 57014=
0089010200999992016011222004+76483+016550FM-12+001099999V0203601N001019999999N999999999-00691-01061102881ADDMA1999999102771MD1710161+9999REMSYN04801020 46/// /3601 11069 21106 30277 40288 57016=
0089010200999992016011223004+76483+016550FM-12+001099999V0203301N002019999999N999999999-00671-01111102821ADDMA1999999102711MD1710171+9999REMSYN04801020 46/// /3302 11067 21111 30271 40282 57017=
0113010200999992016011300004+76483+016550FM-12+001099999V0200501N003019999999N999999999-00701-01101102751ADDMA1999999102641MD1710191+9999OD139900401999REMSYN05801020 46/// /0503 11070 21110 30264 40275 57019 333 91104=
0089010200999992016011301004+76483+016550FM-12+001099999V0200401N003019999999N999999999-00651-01041102701ADDMA1999999102591MD1710181+9999REMSYN04801020 46/// /0403 11065 21104 30259 40270 57018=
0089010200999992016011302004+76483+016550FM-12+001099999V0200301N002019999999N999999999-00691-01131102641ADDMA1999999102531MD1710181+9999REMSYN04801020 46/// /0302 11069 21113 30253 40264 57018=
0089010200999992016011303004+76483+016550FM-12+001099999V0200201N001019999999N999999999-00711-01181102571ADDMA1999999102461MD1710181+9999REMSYN04801020 46/// /0201 11071 21118 30246 40257 57018=
0089010200999992016011304004+76483+016550FM-12+001099999V0203401N001019999999N999999999-00691-01251102511ADDMA1999999102401MD1710191+9999REMSYN04801020 46/// /3401 11069 21125 30240 40251 57019=
0089010200999992016011305004+76483+016550FM-12+001099999V0203401N002019999999N999999999-00661-01291102461ADDMA1999999102351MD1710181+9999REMSYN04801020 46/// /3402 11066 21129 30235 40246 57018=
0113010200999992016011306004+76483+016550FM-12+001099999V0202901N002019999999N999999999-00591-01171102401ADDMA1999999102291MD1710171+9999OD139900301999REMSYN05801020 46/// /2902 11059 21117 30229 40240 57017 333 91103=
0089010200999992016011307004+76483+016550FM-12+001099999V0202901N003019999999N999999999-00571-00961102361ADDMA1999999102251MD1710151+9999REMSYN04801020 46/// /2903 11057 21096 30225 40236 57015=
0089010200999992016011309004+76483+016550FM-12+001099999V0203101N003019999999N999999999-00641-00971102301ADDMA1999999102191MD1710091+9999REMSYN04801020 46/// /3103 11064 21097 30219 40230 57009=
0089010200999992016011310004+76483+016550FM-12+001099999V0203501N003019999999N999999999-00631-01021102281ADDMA1999999102171MD1710081+9999REMSYN04801020 46/// /3503 11063 21102 30217 40228 57008=
0089010200999992016011311004+76483+016550FM-12+001099999V0203401N002019999999N999999999-00631-00991102241ADDMA1999999102131MD1710091+9999REMSYN04801020 46/// /3402 11063 21099 30213 40224 57009=
0071010200999992016011312004+76478+016549FM-12+001099999V0203201N0048199999999999999999-00551-01151102191ADDKA1010M-00551KA2010N-00661MA1999999102081MD1710111+9999REMSYN004BUFR
0071010200999992016011313004+76478+016549FM-12+001099999V0203301N0034199999999999999999-00521-01081102171ADDKA1010M-00501KA2010N-00761MA1999999102061MD1710111+9999REMSYN004BUFR
0071010200999992016011314004+76478+016549FM-12+001099999V0203511N0019199999999999999999-00571-01131102141ADDKA1010M-00451KA2010N-00681MA1999999102031MD1710101+9999REMSYN004BUFR
0089010200999992016011315004+76483+016550FM-12+001099999V0203301N002019999999N999999999-00511-00991102111ADDMA1999999102001MD1710071+9999REMSYN04801020 46/// /3302 11051 21099 30200 40211 57007=
0089010200999992016011316004+76483+016550FM-12+001099999V0202601N001019999999N999999999-00461-00921102071ADDMA1999999101961MD1710101+9999REMSYN04801020 46/// /2601 11046 21092 30196 40207 57010=
0089010200999992016011317004+76483+016550FM-12+001099999V0202501N001019999999N999999999-00381-00841102021ADDMA1999999101911MD1710111+9999REMSYN04801020 46/// /2501 11038 21084 30191 40202 57011=
0113010200999992016011318004+76483+016550FM-12+001099999V0202801N002019999999N999999999-00341-00741101991ADDMA1999999101881MD1710121+9999OD139900501999REMSYN05801020 46/// /2802 11034 21074 30188 40199 57012 333 91105=
0089010200999992016011319004+76483+016550FM-12+001099999V0203501N002019999999N999999999-00541-00831101961ADDMA1999999101851MD1710111+9999REMSYN04801020 46/// /3502 11054 21083 30185 40196 57011=
0089010200999992016011320004+76483+016550FM-12+001099999V0203401N001019999999N999999999-00541-00711101961ADDMA1999999101851MD1710071+9999REMSYN04801020 46/// /3401 11054 21071 30185 40196 57007=
0089010200999992016011321004+76483+016550FM-12+001099999V0209999C999999999999N999999999-00501-00761101921ADDMA1999999101811MD1710071+9999REMSYN04801020 46/// /0000 11050 21076 30181 40192 57007=
0089010200999992016011322004+76483+016550FM-12+001099999V0202801N001019999999N999999999-00441-00591101891ADDMA1999999101781MD1710071+9999REMSYN04801020 46/// /2801 11044 21059 30178 40189 57007=
0089010200999992016011323004+76483+016550FM-12+001099999V0202601N005019999999N999999999-00311-00411101831ADDMA1999999101721MD1610121+9999REMSYN04801020 46/// /2605 11031 21041 30172 40183 56012=
0113010200999992016011400004+76483+016550FM-12+001099999V0202501N004019999999N999999999-00261-00331101781ADDMA1999999101671MD1710151+9999OD139900501999REMSYN05801020 46/// /2504 11026 21033 30167 40178 57015 333 91105=
0089010200999992016011401004+76483+016550FM-12+001099999V0203301N003019999999N999999999-00431-00571101741ADDMA1999999101631MD1710151+9999REMSYN04801020 46/// /3303 11043 21057 30163 40174 57015=
0089010200999992016011402004+76483+016550FM-12+001099999V0203301N002019999999N999999999-00421-00511101691ADDMA1999999101581MD1710141+9999REMSYN04801020 46/// /3302 11042 21051 30158 40169 57014=
0089010200999992016011403004+76483+016550FM-12+001099999V0202401N003019999999N999999999-00271-00321101641ADDMA1999999101531MD1710141+9999REMSYN04801020 46/// /2403 11027 21032 30153 40164 57014=
0089010200999992016011404004+76483+016550FM-12+001099999V0202201N004019999999N999999999-00261-00361101571ADDMA1999999101461MD1710171+9999REMSYN04801020 46/// /2204 11026 21036 30146 40157 57017=
0089010200999992016011405004+76483+016550FM-12+001099999V0202801N003019999999N999999999-00271-00391101541ADDMA1999999101431MD1710151+9999REMSYN04801020 46/// /2803 11027 21039 30143 40154 57015=
0132010200999992016011406004+76483+016550FM-12+001099999V0202601N004019999999N999999999-00271-00291101521ADDKA1240N-00571MA1999999101411MD1810121+9999OD139900501999REMSYN06401020 46/// /2604 11027 21029 30141 40152 58012 333 21057 91105=
0089010200999992016011407004+76483+016550FM-12+001099999V0202701N008019999999N999999999-00261-00351101461ADDMA1999999101351MD1710111+9999REMSYN04801020 46/// /2708 11026 21035 30135 40146 57011=
0089010200999992016011408004+76483+016550FM-12+001099999V0202701N010019999999N999999999-00171-00511101421ADDMA1999999101311MD1710121+9999REMSYN04801020 46/// /2710 11017 21051 30131 40142 57012=
0089010200999992016011409004+76483+016550FM-12+001099999V0202701N009019999999N999999999-00241-00391101431ADDMA1999999101321MD1810091+9999REMSYN04801020 46/// /2709 11024 21039 30132 40143 58009=
0089010200999992016011410004+76483+016550FM-12+001099999V0202701N011019999999N999999999-00191-00441101401ADDMA1999999101291MD1710061+9999REMSYN04801020 46/// /2711 11019 21044 30129 40140 57006=
0089010200999992016011411004+76483+016550FM-12+001099999V0202701N013019999999N999999999-00191-00581101371ADDMA1999999101261MD1610051+9999REMSYN04801020 46/// /2713 11019 21058 30126 40137 56005=
0113010200999992016011412004+76483+016550FM-12+001099999V0202701N013019999999N999999999-00221-00591101351ADDMA1999999101241MD1710071+9999OD139901501999REMSYN05801020 46/// /2713 11022 21059 30124 40135 57007 333 91115=
0089010200999992016011413004+76483+016550FM-12+001099999V0202601N012019999999N999999999-00251-00651101361ADDMA1999999101251MD1810041+9999REMSYN04801020 46/// /2612 11025 21065 30125 40136 58004=
0108010200999992016011415004+76483+016550FM-12+001099999V0202701N011019999999N999999999-00301-00731101381ADDMA1999999101271MD1290039+9999REMSYN04801020 46/// /2711 11030 21073 30127 40138 54003=EQDQ01.3    3APC3  
0089010200999992016011416004+76483+016550FM-12+001099999V0202701N011019999999N999999999-00321-00841101371ADDMA1999999101261MD1410001+9999REMSYN04801020 46/// /2711 11032 21084 30126 40137 54000=
0089010200999992016011417004+76483+016550FM-12+001099999V0202701N011019999999N999999999-00361-00791101361ADDMA1999999101251MD1510011+9999REMSYN04801020 46/// /2711 11036 21079 30125 40136 55001=
0108010200999992016011418004+76483+016550FM-12+001099999V0202601N010019999999N999999999-00361-00951101371ADDMA1999999101261MD1790019+9999REMSYN04801020 46/// /2610 11036 21095 30126 40137 54001=EQDQ01.1    3APC3  
0089010200999992016011419004+76483+016550FM-12+001099999V0202701N010019999999N999999999-00451-00641101371ADDMA1999999101261MD1410001+9999REMSYN04801020 46/// /2710 11045 21064 30126 40137 54000=
0089010200999992016011420004+76483+016550FM-12+001099999V0202601N013019999999N999999999-00401-00801101331ADDMA1999999101231MD1510031+9999REMSYN04801020 46/// /2613 11040 21080 30123 40133 55003=
0089010200999992016011421004+76483+016550FM-12+001099999V0202701N010019999999N999999999-00441-00711101371ADDMA1999999101261MD1990011+9999REMSYN04801020 46/// /2710 11044 21071 30126 40137 50001=
0108010200999992016011422004+76483+016550FM-12+001099999V0202601N010019999999N999999999-00411-00701101371ADDMA1999999101261MD1410009+9999REMSYN04801020 46/// /2610 11041 21070 30126 40137 54001=EQDQ01.1    3APC3  
0089010200999992016011423004+76483+016550FM-12+001099999V0202701N010019999999N999999999-00421-00711101401ADDMA1999999101291MD1210061+9999REMSYN04801020 46/// /2710 11042 21071 30129 40140 52006=
0132010200999992016011500004+76483+016550FM-12+001099999V0202801N008019999999N999999999-00391-00771101391ADDMA1999999101281MD1290029+9999OD139901401999REMSYN05801020 46/// /2808 11039 21077 30128 40139 54002 333 91114=EQDQ01.2    3APC3  
0108010200999992016011501004+76483+016550FM-12+001099999V0202801N006019999999N999999999-00411-00841101391ADDMA1999999101281MD1290029+9999REMSYN04801020 46/// /2806 11041 21084 30128 40139 54002=EQDQ01.2    3APC3  
0089010200999992016011502004+76483+016550FM-12+001099999V0203001N004019999999N999999999-00491-00641101401ADDMA1999999101291MD1410001+9999REMSYN04801020 46/// /3004 11049 21064 30129 40140 54000=
0108010200999992016011503004+76483+016550FM-12+001099999V0201301N002019999999N999999999-00501-00641101401ADDMA1999999101291MD1290019+9999REMSYN04801020 46/// /1302 11050 21064 30129 40140 54001=EQDQ01.1    3APC3  
0108010200999992016011504004+76483+016550FM-12+001099999V0201401N004019999999N999999999-00421-00621101371ADDMA1999999101271MD1790029+9999REMSYN04801020 46/// /1404 11042 21062 30127 40137 54002=EQDQ01.2    3APC3  
0108010200999992016011505004+76483+016550FM-12+001099999V0201501N004019999999N999999999-00321-00571101371ADDMA1999999101261MD1790039+9999REMSYN04801020 46/// /1504 11032 21057 30126 40137 54003=EQDQ01.3    3APC3  
0151010200999992016011506004+76483+016550FM-12+001099999V0201501N003019999999N999999999-00391-00431101371ADDKA1240N-00551MA1999999101261MD1790039+9999OD139900901999REMSYN06401020 46/// /1503 11039 21043 30126 40137 54003 333 21055 91109=EQDQ014     3APCTEN
0108010200999992016011507004+76483+016550FM-12+001099999V0200601N001019999999N999999999-00371-00391101351ADDMA1999999101251MD1790029+9999REMSYN04801020 46/// /0601 11037 21039 30125 40135 54002=EQDQ01.2    3APC3  
0089010200999992016011508004+76483+016550FM-12+001099999V0200401N002019999999N999999999-00441-00451101401ADDMA1999999101291MD1110031+9999REMSYN04801020 46/// /0402 11044 21045 30129 40140 51003=
0089010200999992016011509004+76483+016550FM-12+001099999V0200901N001019999999N999999999-00411-00421101401ADDMA1999999101301MD1210031+9999REMSYN04801020 46/// /0901 11041 21042 30130 40140 52003=
0089010200999992016011510004+76483+016550FM-12+001099999V0201801N005019999999N999999999-00291-00311101461ADDMA1999999101351MD1210101+9999REMSYN04801020 46/// /1805 11029 21031 30135 40146 52010=
0108010200999992016011511004+76483+016550FM-12+001099999V0202701N008019999999N999999999-00281-00381101431ADDMA1999999101321MD1290039+9999REMSYN04801020 46/// /2708 11028 21038 30132 40143 54003=EQDQ01.3    3APC3  
0113010200999992016011512004+76483+016550FM-12+001099999V0202501N006019999999N999999999-00261-00381101451ADDMA1999999101341MD1310041+9999OD139901101999REMSYN05801020 46/// /2506 11026 21038 30134 40145 53004 333 91111=
0089010200999992016011513004+76483+016550FM-12+001099999V0201901N006019999999N999999999-00211-00431101471ADDMA1999999101361MD1990011+9999REMSYN04801020 46/// /1906 11021 21043 30136 40147 50001=
0089010200999992016011514004+76483+016550FM-12+001099999V0202101N008019999999N999999999-00211-00361101491ADDMA1999999101381MD1210061+9999REMSYN04801020 46/// /2108 11021 21036 30138 40149 52006=
0089010200999992016011515004+76483+016550FM-12+001099999V0202301N007019999999N999999999-00131-00411101511ADDMA1999999101401MD1210061+9999REMSYN04801020 46/// /2307 11013 21041 30140 40151 52006=
0089010200999992016011516004+76483+016550FM-12+001099999V0202101N008019999999N999999999-00131-00461101541ADDMA1999999101431MD1210071+9999REMSYN04801020 46/// /2108 11013 21046 30143 40154 52007=
0089010200999992016011517004+76483+016550FM-12+001099999V0202101N006019999999N999999999-00111-00571101541ADDMA1999999101431MD1210041+9999REMSYN04801020 46/// /2106 11011 21057 30143 40154 52004=
0132010200999992016011518004+76483+016550FM-12+001099999V0202201N008019999999N999999999-00311-00401101571ADDKA1120M-00081MA1999999101461MD1210071+9999OD139901401999REMSYN06401020 46/// /2208 11031 21040 30146 40157 52007 333 11008 91114=
0078010200999992016011520004+76478+016549FM-12+001099999V0202231N0072199999999999999999-00171-00411101541ADDMA1999999101441MD1410009+9999OD130101411999REMSYN004BUFREQDQ01.1    3APC3  
0089010200999992016011521004+76483+016550FM-12+001099999V0201801N005019999999N999999999-00241-00311101601ADDMA1999999101491MD1990031+9999REMSYN04801020 46/// /1805 11024 21031 30149 40160 50003=
0089010200999992016011522004+76483+016550FM-12+001099999V0202001N006019999999N999999999-00141-00421101611ADDMA1999999101501MD1210081+9999REMSYN04801020 46/// /2006 11014 21042 30150 40161 52008=
0089010200999992016011523004+76483+016550FM-12+001099999V0201901N007019999999N999999999-00091-00581101621ADDMA1999999101521MD1310081+9999REMSYN04801020 46/// /1907 11009 21058 30152 40162 53008=
0108010200999992016011600004+76483+016550FM-12+001099999V0202201N008019999999N999999999-00211-00311101611ADDMA1999999101501MD1290019+9999REMSYN04801020 46/// /2208 11021 21031 30150 40161 54001=EQDQ01.1    3APC3  
0089010200999992016011601004+76483+016550FM-12+001099999V0201801N006019999999N999999999-00071-00411101591ADDMA1999999101481MD1510021+9999REMSYN04801020 46/// /1806 11007 21041 30148 40159 55002=
0108010200999992016011602004+76483+016550FM-12+001099999V0202201N008019999999N999999999-00081-00441101601ADDMA1999999101491MD1790029+9999REMSYN04801020 46/// /2208 11008 21044 30149 40160 54002=EQDQ014     3APCTEN
0089010200999992016011603004+76483+016550FM-12+001099999V0202101N007019999999N999999999-00071-00601101631ADDMA1999999101521MD1990021+9999REMSYN04801020 46/// /2107 11007 21060 30152 40163 50002=
0089010200999992016011604004+76483+016550FM-12+001099999V0201601N004019999999N999999999-00241-00331101641ADDMA1999999101531MD1210061+9999REMSYN04801020 46/// /1604 11024 21033 30153 40164 52006=
0089010200999992016011605004+76483+016550FM-12+001099999V0202101N005019999999N999999999-00171-00261101661ADDMA1999999101551MD1210061+9999REMSYN04801020 46/// /2105 11017 21026 30155 40166 52006=
0132010200999992016011606004+76483+016550FM-12+001099999V0202101N008019999999N999999999-00161-00401101651ADDMA1999999101541MD1290029+9999OD139901301999REMSYN05801020 46/// /2108 11016 21040 30154 40165 54002 333 91113=EQDQ01.2    3APC3  
0108010200999992016011607004+76483+016550FM-12+001099999V0201701N005019999999N999999999-00161-00351101671ADDMA1999999101561MD1290039+9999REMSYN04801020 46/// /1705 11016 21035 30156 40167 54003=EQDQ01.3    3APC3  
0108010200999992016011608004+76483+016550FM-12+001099999V0201901N005019999999N999999999-00051-00531101681ADDMA1999999101581MD1290029+9999REMSYN04801020 46/// /1905 11005 21053 30158 40168 54003=EQDQ01.3    3APC3  
0089010200999992016011609004+76483+016550FM-12+001099999V0202001N007019999999N999999999-00111-00281101711ADDMA1999999101601MD1210061+9999REMSYN04801020 46/// /2007 11011 21028 30160 40171 52006=
0089010200999992016011610004+76483+016550FM-12+001099999V0201601N011019999999N999999999-00151-00241101711ADDMA1999999101601MD1210041+9999REMSYN04801020 46/// /1611 11015 21024 30160 40171 52004=
0089010200999992016011611004+76483+016550FM-12+001099999V0201401N006019999999N999999999-00171-00211101691ADDMA1999999101581MD1510001+9999REMSYN04801020 46/// /1406 11017 21021 30158 40169 55000=
0113010200999992016011612004+76483+016550FM-12+001099999V0201501N010019999999N999999999-00071-00201101641ADDMA1999999101531MD1610071+9999OD139901301999REMSYN05801020 46/// /1510 11007 21020 30153 40164 56007 333 91113=
0089010200999992016011613004+76483+016550FM-12+001099999V0201501N012019999999N999999999-00141-00201101631ADDMA1999999101521MD1710081+9999REMSYN04801020 46/// /1512 11014 21020 30152 40163 57008=
0089010200999992016011614004+76483+016550FM-12+001099999V0201701N009019999999N999999999-00101-00231101651ADDMA1999999101541MD1810041+9999REMSYN04801020 46/// /1709 11010 21023 30154 40165 58004=
0089010200999992016011615004+76483+016550FM-12+001099999V0201901N008019999999N999999999-00011-00261101681ADDMA1999999101571MD1210041+9999REMSYN04801020 46/// /1908 11001 21026 30157 40168 52004=
0089010200999992016011616004+76483+016550FM-12+001099999V0202001N010019999999N999999999+00001-00481101721ADDMA1999999101611MD1210091+9999REMSYN04801020 46/// /2010 10000 21048 30161 40172 52009=
0089010200999992016011617004+76483+016550FM-12+001099999V0202001N008019999999N999999999+00001-00411101771ADDMA1999999101661MD1210121+9999REMSYN04801020 46/// /2008 10000 21041 30166 40177 52012=
0132010200999992016011618004+76483+016550FM-12+001099999V0202201N004019999999N999999999-00011-00391101801ADDKA1120M+00051MA1999999101691MD1210131+9999OD139901401999REMSYN06401020 46/// /2204 11001 21039 30169 40180 52013 333 10005 91114=
0089010200999992016011619004+76483+016550FM-12+001099999V0201701N003019999999N999999999-00051-00251101821ADDMA1999999101711MD1310101+9999REMSYN04801020 46/// /1703 11005 21025 30171 40182 53010=
0089010200999992016011620004+76483+016550FM-12+001099999V0201301N005019999999N999999999-00181-00251101831ADDMA1999999101721MD1210061+9999REMSYN04801020 46/// /1305 11018 21025 30172 40183 52006=
0089010200999992016011621004+76483+016550FM-12+001099999V0201401N006019999999N999999999-00081-00291101831ADDMA1999999101731MD1210031+9999REMSYN04801020 46/// /1406 11008 21029 30173 40183 52003=
0108010200999992016011622004+76483+016550FM-12+001099999V0201501N006019999999N999999999-00071-00251101831ADDMA1999999101721MD1290019+9999REMSYN04801020 46/// /1506 11007 21025 30172 40183 54002=EQDQ01.2    3APC3  
0089010200999992016011623004+76483+016550FM-12+001099999V0201301N006019999999N999999999-00111-00261101821ADDMA1999999101711MD1410001+9999REMSYN04801020 46/// /1306 11011 21026 30171 40182 54000=
0132010200999992016011700004+76483+016550FM-12+001099999V0201301N007019999999N999999999-00081-00411101811ADDMA1999999101711MD1790029+9999OD139900901999REMSYN05801020 46/// /1307 11008 21041 30171 40181 54002 333 91109=EQDQ01.2    3APC3  
0108010200999992016011701004+76483+016550FM-12+001099999V0201301N007019999999N999999999-00091-00431101821ADDMA1999999101711MD1790019+9999REMSYN04801020 46/// /1307 11009 21043 30171 40182 54001=EQDQ01.1    3APC3  
0108010200999992016011702004+76483+016550FM-12+001099999V0201301N008019999999N999999999-00101-00411101791ADDMA1999999101691MD1790039+9999REMSYN04801020 46/// /1308 11010 21041 30169 40179 54003=EQDQ01.3    3APC3  
0108010200999992016011703004+76483+016550FM-12+001099999V0201201N007019999999N999999999-00101-00441101801ADDMA1999999101691MD1790019+9999REMSYN04801020 46/// /1207 11010 21044 30169 40180 54002=EQDQ01.2    3APC3  
0089010200999992016011704004+76483+016550FM-12+001099999V0201101N007019999999N999999999-00101-00411101781ADDMA1999999101671MD1710041+9999REMSYN04801020 46/// /1107 11010 21041 30167 40178 57004=
0108010200999992016011705004+76483+016550FM-12+001099999V0201001N006019999999N999999999-00161-00451101771ADDMA1999999101661MD1790029+9999REMSYN04801020 46/// /1006 11016 21045 30166 40177 54003=EQDQ01.3    3APC3  
0132010200999992016011706004+76483+016550FM-12+001099999V0201001N007019999999N999999999-00181-00601101741ADDKA1240N-00201MA1999999101631MD1710061+9999OD139900901999REMSYN06401020 46/// /1007 11018 21060 30163 40174 57006 333 21020 91109=
0089010200999992016011707004+76483+016550FM-12+001099999V0200901N007019999999N999999999-00191-00511101711ADDMA1999999101611MD1710071+9999REMSYN04801020 46/// /0907 11019 21051 30161 40171 57007=
0089010200999992016011708004+76483+016550FM-12+001099999V0200801N007019999999N999999999-00211-00431101681ADDMA1999999101571MD1710091+9999REMSYN04801020 46/// /0807 11021 21043 30157 40168 57009=
0089010200999992016011709004+76483+016550FM-12+001099999V0200801N007019999999N999999999-00201-00441101641ADDMA1999999101531MD1710101+9999REMSYN04801020 46/// /0807 11020 21044 30153 40164 57010=
0089010200999992016011710004+76483+016550FM-12+001099999V0200601N006019999999N999999999-00151-00291101621ADDMA1999999101511MD1710101+9999REMSYN04801020 46/// /0606 11015 21029 30151 40162 57010=
0089010200999992016011711004+76483+016550FM-12+001099999V0201001N006019999999N999999999-00051-00221101581ADDMA1999999101471MD1710091+9999REMSYN04801020 46/// /1006 11005 21022 30147 40158 57009=
0113010200999992016011712004+76483+016550FM-12+001099999V0200901N005019999999N999999999-00091-00271101541ADDMA1999999101431MD1710101+9999OD139900901999REMSYN05801020 46/// /0905 11009 21027 30143 40154 57010 333 91109=
0089010200999992016011713004+76483+016550FM-12+001099999V0200901N007019999999N999999999-00141-00291101481ADDMA1999999101371MD1710141+9999REMSYN04801020 46/// /0907 11014 21029 30137 40148 57014=
0089010200999992016011715004+76483+016550FM-12+001099999V0201101N008019999999N999999999-00041-00311101441ADDMA1999999101341MD1810091+9999REMSYN04801020 46/// /1108 11004 21031 30134 40144 58009=
0089010200999992016011716004+76483+016550FM-12+001099999V0201101N007019999999N999999999-00021-00301101431ADDMA1999999101331MD1710051+9999REMSYN04801020 46/// /1107 11002 21030 30133 40143 57005=
0089010200999992016011717004+76483+016550FM-12+001099999V0201001N006019999999N999999999-00051-00271101391ADDMA1999999101291MD1710061+9999REMSYN04801020 46/// /1006 11005 21027 30129 40139 57006=
0089010200999992016011718004+76483+016550FM-12+001099999V0200901N006019999999N999999999-00131-00171101351ADDMA1999999101241MD1610091+9999REMSYN04801020 46/// /0906 11013 21017 30124 40135 56009=
0089010200999992016011719004+76483+016550FM-12+001099999V0200401N006019999999N999999999-00221-00231101291ADDMA1999999101181MD1710141+9999REMSYN04801020 46/// /0406 11022 21023 30118 40129 57014=
0089010200999992016011720004+76483+016550FM-12+001099999V0200601N007019999999N999999999-00171-00181101231ADDMA1999999101121MD1710171+9999REMSYN04801020 46/// /0607 11017 21018 30112 40123 57017=
0089010200999992016011721004+76483+016550FM-12+001099999V0200401N008019999999N999999999-00151-00151101151ADDMA1999999101041MD1710201+9999REMSYN04801020 46/// /0408 11015 21015 30104 40115 57020=
0089010200999992016011722004+76483+016550FM-12+001099999V0200901N006019999999N999999999-00091-00091101091ADDMA1999999100981MD1710201+9999REMSYN04801020 46/// /0906 11009 21009 30098 40109 57020=
0089010200999992016011723004+76483+016550FM-12+001099999V0200801N006019999999N999999999-00071-00131101061ADDMA1999999100961MD1810161+9999REMSYN04801020 46/// /0806 11007 21013 30096 40106 58016=
0113010200999992016011800004+76483+016550FM-12+001099999V0201101N009019999999N999999999-00041-00241101041ADDMA1999999100931MD1810111+9999OD139901101999REMSYN05801020 46/// /1109 11004 21024 30093 40104 58011 333 91111=
0089010200999992016011801004+76483+016550FM-12+001099999V0200901N008019999999N999999999-00071-00341101011ADDMA1999999100901MD1710081+9999REMSYN04801020 46/// /0908 11007 21034 30090 40101 57008=
0089010200999992016011802004+76483+016550FM-12+001099999V0200801N007019999999N999999999-00131-00371100981ADDMA1999999100881MD1710081+9999REMSYN04801020 46/// /0807 11013 21037 30088 40098 57008=
0089010200999992016011803004+76483+016550FM-12+001099999V0200901N007019999999N999999999-00201-00351100951ADDMA1999999100841MD1710091+9999REMSYN04801020 46/// /0907 11020 21035 30084 40095 57009=
0089010200999992016011804004+76483+016550FM-12+001099999V0200901N006019999999N999999999-00211-00301100881ADDMA1999999100771MD1610131+9999REMSYN04801020 46/// /0906 11021 21030 30077 40088 56013=
0089010200999992016011805004+76483+016550FM-12+001099999V0200901N007019999999N999999999-00141-00391100841ADDMA1999999100731MD1710141+9999REMSYN04801020 46/// /0907 11014 21039 30073 40084 57014=
0132010200999992016011806004+76483+016550FM-12+001099999V0200801N009019999999N999999999-00211-00271100851ADDKA1240N-00261MA1999999100741MD1810101+9999OD139901101999REMSYN06401020 46/// /0809 11021 21027 30074 40085 58010 333 21026 91111=
0089010200999992016011807004+76483+016550FM-12+001099999V0201301N011019999999N999999999-00121-00431100821ADDMA1999999100711MD1710061+9999REMSYN04801020 46/// /1311 11012 21043 30071 40082 57006=
0089010200999992016011808004+76483+016550FM-12+001099999V0201201N011019999999N999999999-00151-00511100861ADDMA1999999100751MD1990021+9999REMSYN04801020 46/// /1211 11015 21051 30075 40086 50002=
0089010200999992016011809004+76483+016550FM-12+001099999V0201201N010019999999N999999999-00151-00561100861ADDMA1999999100761MD1990021+9999REMSYN04801020 46/// /1210 11015 21056 30076 40086 50002=
0089010200999992016011810004+76483+016550FM-12+001099999V0201301N010019999999N999999999-00141-00471100891ADDMA1999999100791MD1210081+9999REMSYN04801020 46/// /1310 11014 21047 30079 40089 52008=
0108010200999992016011811004+76483+016550FM-12+001099999V0201401N010019999999N999999999-00131-00301100881ADDMA1999999100771MD1290029+9999REMSYN04801020 46/// /1410 11013 21030 30077 40088 54003=EQDQ01.3    3APC3  
0132010200999992016011812004+76483+016550FM-12+001099999V0201401N011019999999N999999999-00121-00301100891ADDMA1999999100781MD1290039+9999OD139901301999REMSYN05801020 46/// /1411 11012 21030 30078 40089 54003 333 91113=EQDQ01.3    3APC3  
0089010200999992016011813004+76483+016550FM-12+001099999V0201401N013019999999N999999999-00121-00251100851ADDMA1999999100751MD1710041+9999REMSYN04801020 46/// /1413 11012 21025 30075 40085 57004=
0108010200999992016011814004+76483+016550FM-12+001099999V0201501N014019999999N999999999-00101-00381100871ADDMA1999999100761MD1790019+9999REMSYN04801020 46/// /1514 11010 21038 30076 40087 54001=EQDQ01.1    3APC3  
0089010200999992016011815004+76483+016550FM-12+001099999V0201401N014019999999N999999999-00071-00381100851ADDMA1999999100751MD1710041+9999REMSYN04801020 46/// /1414 11007 21038 30075 40085 57004=
0089010200999992016011816004+76483+016550FM-12+001099999V0201501N013019999999N999999999-00081-00411100921ADDMA1999999100811MD1110061+9999REMSYN04801020 46/// /1513 11008 21041 30081 40092 51006=
0089010200999992016011817004+76483+016550FM-12+001099999V0201501N012019999999N999999999-00091-00361100951ADDMA1999999100841MD1110081+9999REMSYN04801020 46/// /1512 11009 21036 30084 40095 51008=
0059010200999992016011820004+76478+016549FM-12+001099999V0201521N0105199999999999999999-00021-00561101041ADDMA1999999100941MD1310101+9999OD130101241999REMSYN004BUFR
0089010200999992016011821004+76483+016550FM-12+001099999V0201501N009019999999N999999999-00021-00481101091ADDMA1999999100991MD1210101+9999REMSYN04801020 46/// /1509 11002 21048 30099 40109 52010=
0089010200999992016011822004+76483+016550FM-12+001099999V0201401N008019999999N999999999-00061-00501101111ADDMA1999999101011MD1210081+9999REMSYN04801020 46/// /1408 11006 21050 30101 40111 52008=
0089010200999992016011823004+76483+016550FM-12+001099999V0201201N008019999999N999999999-00081-00441101121ADDMA1999999101011MD1310081+9999REMSYN04801020 46/// /1208 11008 21044 30101 40112 53008=
0108010200999992016011900004+76483+016550FM-12+001099999V0201101N005019999999N999999999-00101-00321101121ADDMA1999999101011MD1290039+9999REMSYN04801020 46/// /1105 11010 21032 30101 40112 54003=EQDQ01.3    3APC3  
0089010200999992016011901004+76483+016550FM-12+001099999V0201201N005019999999N999999999-00151-00251101101ADDMA1999999100991MD1510021+9999REMSYN04801020 46/// /1205 11015 21025 30099 40110 55002=
0089010200999992016011902004+76483+016550FM-12+001099999V0201201N011019999999N999999999-00071-00431101061ADDMA1999999100951MD1610061+9999REMSYN04801020 46/// /1211 11007 21043 30095 40106 56006=
0089010200999992016011903004+76483+016550FM-12+001099999V0201201N007019999999N999999999-00091-00501101081ADDMA1999999100971MD1810041+9999REMSYN04801020 46/// /1207 11009 21050 30097 40108 58004=
0089010200999992016011904004+76483+016550FM-12+001099999V0201201N008019999999N999999999-00101-00471101081ADDMA1999999100971MD1990021+9999REMSYN04801020 46/// /1208 11010 21047 30097 40108 50002=
0108010200999992016011905004+76483+016550FM-12+001099999V0201101N007019999999N999999999-00091-00531101071ADDMA1999999100961MD1290019+9999REMSYN04801020 46/// /1107 11009 21053 30096 40107 54001=EQDQ01.1    3APC3  
0113010200999992016011906004+76483+016550FM-12+001099999V0201001N008019999999N999999999-00141-00471101081ADDMA1999999100971MD1410001+9999OD139901201999REMSYN05801020 46/// /1008 11014 21047 30097 40108 54000 333 91112=
0108010200999992016011907004+76483+016550FM-12+001099999V0201001N007019999999N999999999-00131-00571101071ADDMA1999999100961MD1790019+9999REMSYN04801020 46/// /1007 11013 21057 30096 40107 54001=EQDQ01.1    3APC3  
0108010200999992016011909004+76483+016550FM-12+001099999V0200801N006019999999N999999999-00201-00481101061ADDMA1999999100951MD1790029+9999REMSYN04801020 46/// /0806 11020 21048 30095 40106 54002=EQDQ01.2    3APC3  
0108010200999992016011910004+76483+016550FM-12+001099999V0200801N007019999999N999999999-00211-00551101051ADDMA1999999100941MD1790029+9999REMSYN04801020 46/// /0807 11021 21055 30094 40105 54001=EQDQ01.1    3APC3  
0089010200999992016011911004+76483+016550FM-12+001099999V0200701N004019999999N999999999-00271-00531101031ADDMA1999999100931MD1710041+9999REMSYN04801020 46/// /0704 11027 21053 30093 40103 57004=
0089010200999992016011912004+76483+016550FM-12+001099999V0201101N003019999999N999999999-00201-00511101001ADDMA1999999100891MD1710061+9999REMSYN04801020 46/// /1103 11020 21051 30089 40100 57006=
0089010200999992016011913004+76483+016550FM-12+001099999V0200901N007019999999N999999999-00211-00461101001ADDMA1999999100891MD1710051+9999REMSYN04801020 46/// /0907 11021 21046 30089 40100 57005=
0089010200999992016011914004+76483+016550FM-12+001099999V0201001N006019999999N999999999-00201-00571100971ADDMA1999999100861MD1710061+9999REMSYN04801020 46/// /1006 11020 21057 30086 40097 57006=
0089010200999992016011915004+76483+016550FM-12+001099999V0200901N007019999999N999999999-00221-00531100941ADDMA1999999100841MD1710061+9999REMSYN04801020 46/// /0907 11022 21053 30084 40094 57006=
0089010200999992016011916004+76483+016550FM-12+001099999V0201101N006019999999N999999999-00161-00701100931ADDMA1999999100821MD1710071+9999REMSYN04801020 46/// /1106 11016 21070 30082 40093 57007=
0089010200999992016011917004+76483+016550FM-12+001099999V0201201N006019999999N999999999-00181-00571100911ADDMA1999999100801MD1710061+9999REMSYN04801020 46/// /1206 11018 21057 30080 40091 57006=
0113010200999992016011918004+76483+016550FM-12+001099999V0201301N006019999999N999999999-00201-00621100901ADDMA1999999100791MD1710041+9999OD139900901999REMSYN05801020 46/// /1306 11020 21062 30079 40090 57004 333 91109=
0089010200999992016011919004+76483+016550FM-12+001099999V0201501N004019999999N999999999-00191-00581100881ADDMA1999999100781MD1710041+9999REMSYN04801020 46/// /1504 11019 21058 30078 40088 57004=
0089010200999992016011920004+76483+016550FM-12+001099999V0201201N003019999999N999999999-00171-00641100871ADDMA1999999100761MD1710041+9999REMSYN04801020 46/// /1203 11017 21064 30076 40087 57004=
0089010200999992016011921004+76483+016550FM-12+001099999V0201301N005019999999N999999999-00161-00631100871ADDMA1999999100761MD1710031+9999REMSYN04801020 46/// /1305 11016 21063 30076 40087 57003=
0089010200999992016011922004+76483+016550FM-12+001099999V0201801N005019999999N999999999-00161-00631100851ADDMA1999999100741MD1710041+9999REMSYN04801020 46/// /1805 11016 21063 30074 40085 57004=
0089010200999992016011923004+76483+016550FM-12+001099999V0201501N005019999999N999999999-00211-00581100821ADDMA1999999100721MD1710051+9999REMSYN04801020 46/// /1505 11021 21058 30072 40082 57005=
0113010200999992016012000004+76483+016550FM-12+001099999V0201201N005019999999N999999999-00211-00611100821ADDMA1999999100711MD1710051+9999OD139900701999REMSYN05801020 46/// /1205 11021 21061 30071 40082 57005 333 91107=
0089010200999992016012001004+76483+016550FM-12+001099999V0201501N004019999999N999999999-00231-00751100801ADDMA1999999100691MD1710051+9999REMSYN04801020 46/// /1504 11023 21075 30069 40080 57005=
0089010200999992016012002004+76483+016550FM-12+001099999V0201401N006019999999N999999999-00261-00711100791ADDMA1999999100681MD1710041+9999REMSYN04801020 46/// /1406 11026 21071 30068 40079 57004=
0089010200999992016012003004+76483+016550FM-12+001099999V0201301N005019999999N999999999-00211-00851100771ADDMA1999999100661MD1710051+9999REMSYN04801020 46/// /1305 11021 21085 30066 40077 57005=
0089010200999992016012004004+76483+016550FM-12+001099999V0201501N005019999999N999999999-00221-00821100741ADDMA1999999100631MD1710061+9999REMSYN04801020 46/// /1505 11022 21082 30063 40074 57006=
0089010200999992016012005004+76483+016550FM-12+001099999V0201501N005019999999N999999999-00221-00711100731ADDMA1999999100621MD1710051+9999REMSYN04801020 46/// /1505 11022 21071 30062 40073 57005=
0132010200999992016012006004+76483+016550FM-12+001099999V0201501N006019999999N999999999-00221-00761100721ADDKA1240N-00261MA1999999100611MD1710051+9999OD139900701999REMSYN06401020 46/// /1506 11022 21076 30061 40072 57005 333 21026 91107=
0089010200999992016012007004+76483+016550FM-12+001099999V0201501N007019999999N999999999-00241-00761100711ADDMA1999999100601MD1710041+9999REMSYN04801020 46/// /1507 11024 21076 30060 40071 57004=
0089010200999992016012008004+76483+016550FM-12+001099999V0201501N007019999999N999999999-00251-00831100731ADDMA1999999100621MD1990011+9999REMSYN04801020 46/// /1507 11025 21083 30062 40073 50001=
0089010200999992016012009004+76483+016550FM-12+001099999V0201501N006019999999N999999999-00241-00761100751ADDMA1999999100641MD1110031+9999REMSYN04801020 46/// /1506 11024 21076 30064 40075 51003=
0089010200999992016012010004+76483+016550FM-12+001099999V0201501N007019999999N999999999-00241-00731100741ADDMA1999999100631MD1310031+9999REMSYN04801020 46/// /1507 11024 21073 30063 40074 53003=
0089010200999992016012011004+76483+016550FM-12+001099999V0201401N007019999999N999999999-00261-00711100731ADDMA1999999100621MD1510001+9999REMSYN04801020 46/// /1407 11026 21071 30062 40073 55000=
0113010200999992016012012004+76483+016550FM-12+001099999V0201401N007019999999N999999999-00231-00671100701ADDMA1999999100591MD1710051+9999OD139900801999REMSYN05801020 46/// /1407 11023 21067 30059 40070 57005 333 91108=
0089010200999992016012013004+76483+016550FM-12+001099999V0201701N007019999999N999999999-00171-00681100671ADDMA1999999100561MD1710071+9999REMSYN04801020 46/// /1707 11017 21068 30056 40067 57007=
0089010200999992016012014004+76483+016550FM-12+001099999V0201601N008019999999N999999999-00161-00611100651ADDMA1999999100551MD1710071+9999REMSYN04801020 46/// /1608 11016 21061 30055 40065 57007=
0089010200999992016012015004+76483+016550FM-12+001099999V0201601N008019999999N999999999-00141-00581100621ADDMA1999999100511MD1710081+9999REMSYN04801020 46/// /1608 11014 21058 30051 40062 57008=
0089010200999992016012016004+76483+016550FM-12+001099999V0201701N008019999999N999999999-00101-00511100621ADDMA1999999100511MD1710041+9999REMSYN04801020 46/// /1708 11010 21051 30051 40062 57004=
0089010200999992016012017004+76483+016550FM-12+001099999V0203201N007019999999N999999999-00361-00401100661ADDMA1999999100551MD1990011+9999REMSYN04801020 46/// /3207 11036 21040 30055 40066 50001=
0132010200999992016012018004+76483+016550FM-12+001099999V0203201N005019999999N999999999-00381-00421100661ADDKA1120M-00071MA1999999100551MD1210041+9999OD139901201999REMSYN06401020 46/// /3205 11038 21042 30055 40066 52004 333 11007 91112=
0089010200999992016012019004+76483+016550FM-12+001099999V0203201N009019999999N999999999-00351-00721100651ADDMA1999999100551MD1310031+9999REMSYN04801020 46/// /3209 11035 21072 30055 40065 53003=
0108010200999992016012020004+76483+016550FM-12+001099999V0203101N010019999999N999999999-00401-00881100681ADDMA1999999100571MD1290029+9999REMSYN04801020 46/// /3110 11040 21088 30057 40068 54002=EQDQ01.2    3APC3  
0089010200999992016012021004+76483+016550FM-12+001099999V0203201N009019999999N999999999-00481-00911100721ADDMA1999999100611MD1110061+9999REMSYN04801020 46/// /3209 11048 21091 30061 40072 51006=
0089010200999992016012022004+76483+016550FM-12+001099999V0203201N008019999999N999999999-00541-00951100731ADDMA1999999100621MD1210071+9999REMSYN04801020 46/// /3208 11054 21095 30062 40073 52007=
0089010200999992016012023004+76483+016550FM-12+001099999V0203301N007019999999N999999999-00641-01001100751ADDMA1999999100641MD1210071+9999REMSYN04801020 46/// /3307 11064 21100 30064 40075 52007=
0132010200999992016012100004+76483+016550FM-12+001099999V0203201N008019999999N999999999-00541-01031100741ADDMA1999999100631MD1290029+9999OD139901201999REMSYN05801020 46/// /3208 11054 21103 30063 40074 54002 333 91112=EQDQ01.2    3APC3  
0089010200999992016012101004+76483+016550FM-12+001099999V0203201N007019999999N999999999-00511-01021100731ADDMA1999999100621MD1410001+9999REMSYN04801020 46/// /3207 11051 21102 30062 40073 54000=
0108010200999992016012102004+76483+016550FM-12+001099999V0203301N004019999999N999999999-00601-01041100741ADDMA1999999100631MD1790019+9999REMSYN04801020 46/// /3304 11060 21104 30063 40074 54001=EQDQ01.1    3APC3  
0108010200999992016012103004+76483+016550FM-12+001099999V0209999C999999999999N999999999-00541-01021100751ADDMA1999999100641MD1290019+9999REMSYN04801020 46/// /0000 11054 21102 30064 40075 54001=EQDQ01.1    3APC3  
0089010200999992016012104004+76483+016550FM-12+001099999V0201301N001019999999N999999999-00471-00981100711ADDMA1999999100601MD1510031+9999REMSYN04801020 46/// /1301 11047 21098 30060 40071 55003=
0089010200999992016012105004+76483+016550FM-12+001099999V0200701N001019999999N999999999-00461-00971100681ADDMA1999999100571MD1610051+9999REMSYN04801020 46/// /0701 11046 21097 30057 40068 56005=
0132010200999992016012106004+76483+016550FM-12+001099999V0200801N002019999999N999999999-00431-00841100641ADDKA1240N-00661MA1999999100531MD1710111+9999OD139900801999REMSYN06401020 46/// /0802 11043 21084 30053 40064 57011 333 21066 91108=
0089010200999992016012107004+76483+016550FM-12+001099999V0200801N003019999999N999999999-00421-00711100611ADDMA1999999100501MD1710101+9999REMSYN04801020 46/// /0803 11042 21071 30050 40061 57010=
0089010200999992016012108004+76483+016550FM-12+001099999V0200601N004019999999N999999999-00411-00631100581ADDMA1999999100471MD1710101+9999REMSYN04801020 46/// /0604 11041 21063 30047 40058 57010=
0089010200999992016012109004+76483+016550FM-12+001099999V0200601N006019999999N999999999-00391-00591100531ADDMA1999999100431MD1710101+9999REMSYN04801020 46/// /0606 11039 21059 30043 40053 57010=
0089010200999992016012110004+76483+016550FM-12+001099999V0200701N007019999999N999999999-00341-00531100491ADDMA1999999100381MD1710121+9999REMSYN04801020 46/// /0707 11034 21053 30038 40049 57012=
0089010200999992016012111004+76483+016550FM-12+001099999V0200601N007019999999N999999999-00351-00451100441ADDMA1999999100341MD1710141+9999REMSYN04801020 46/// /0607 11035 21045 30034 40044 57014=
0113010200999992016012112004+76483+016550FM-12+001099999V0200601N007019999999N999999999-00361-00381100391ADDMA1999999100281MD1710151+9999OD139900901999REMSYN05801020 46/// /0607 11036 21038 30028 40039 57015 333 91109=
0089010200999992016012113004+76483+016550FM-12+001099999V0200501N007019999999N999999999-00371-00411100321ADDMA1999999100221MD1710161+9999REMSYN04801020 46/// /0507 11037 21041 30022 40032 57016=
0089010200999992016012114004+76483+016550FM-12+001099999V0200501N007019999999N999999999-00321-00331100281ADDMA1999999100171MD1710171+9999REMSYN04801020 46/// /0507 11032 21033 30017 40028 57017=
0089010200999992016012115004+76483+016550FM-12+001099999V0200501N007019999999N999999999-00311-00321100241ADDMA1999999100141MD1810141+9999REMSYN04801020 46/// /0507 11031 21032 30014 40024 58014=
0089010200999992016012116004+76483+016550FM-12+001099999V0200501N006019999999N999999999-00331-00351100231ADDMA1999999100121MD1810091+9999REMSYN04801020 46/// /0506 11033 21035 30012 40023 58009=
0089010200999992016012117004+76483+016550FM-12+001099999V0200501N007019999999N999999999-00331-00341100181ADDMA1999999100071MD1710101+9999REMSYN04801020 46/// /0507 11033 21034 30007 40018 57010=
0089010200999992016012119004+76483+016550FM-12+001099999V0200701N007019999999N999999999-00301-00341100131ADDMA1999999100021MD1810101+9999REMSYN04801020 46/// /0707 11030 21034 30002 40013 58010=
0089010200999992016012120004+76483+016550FM-12+001099999V0200601N008019999999N999999999-00301-00321100101ADDMA1999999099991MD1710081+9999REMSYN04801020 46/// /0608 11030 21032 39999 40010 57008=
0089010200999992016012121004+76483+016550FM-12+001099999V0200601N008019999999N999999999-00261-00271100071ADDMA1999999099961MD1710081+9999REMSYN04801020 46/// /0608 11026 21027 39996 40007 57008=
0089010200999992016012122004+76483+016550FM-12+001099999V0200601N008019999999N999999999-00271-00291100051ADDMA1999999099941MD1710081+9999REMSYN04801020 46/// /0608 11027 21029 39994 40005 57008=
0089010200999992016012123004+76483+016550FM-12+001099999V0201401N004019999999N999999999+00041-00171100021ADDMA1999999099911MD1710081+9999REMSYN04801020 46/// /1404 10004 21017 39991 40002 57008=
0113010200999992016012200004+76483+016550FM-12+001099999V0201701N009019999999N999999999+00191-00071099971ADDMA1999999099871MD1710091+9999OD139901101999REMSYN05801020 46/// /1709 10019 21007 39987 49997 57009 333 91111=
0089010200999992016012201004+76483+016550FM-12+001099999V0201701N011019999999N999999999+00201-00071099961ADDMA1999999099851MD1710091+9999REMSYN04801020 46/// /1711 10020 21007 39985 49996 57009=
0089010200999992016012202004+76483+016550FM-12+001099999V0201701N010019999999N999999999+00211-00051099971ADDMA1999999099861MD1810051+9999REMSYN04801020 46/// /1710 10021 21005 39986 49997 58005=
0108010200999992016012203004+76483+016550FM-12+001099999V0201701N010019999999N999999999+00221-00051099961ADDMA1999999099851MD1790019+9999REMSYN04801020 46/// /1710 10022 21005 39985 49996 54002=EQDQ01.2    3APC3  
0089010200999992016012204004+76483+016550FM-12+001099999V0201801N009019999999N999999999+00221-00051099961ADDMA1999999099851MD1410001+9999REMSYN04801020 46/// /1809 10022 21005 39985 49996 54000=
0089010200999992016012205004+76483+016550FM-12+001099999V0201701N009019999999N999999999+00191+00001099931ADDMA1999999099831MD1710031+9999REMSYN04801020 46/// /1709 10019 21000 39983 49993 57003=
0113010200999992016012206004+76483+016550FM-12+001099999V0201701N007019999999N999999999+00111+00021099981ADDMA1999999099881MD1990031+9999OD139901301999REMSYN05801020 46/// /1707 10011 20002 39988 49998 50003 333 91113=
0089010200999992016012207004+76483+016550FM-12+001099999V0201701N006019999999N999999999+00161+00031100001ADDMA1999999099891MD1110041+9999REMSYN04801020 46/// /1706 10016 20003 39989 40000 51004=
0089010200999992016012208004+76483+016550FM-12+001099999V0201601N005019999999N999999999+00121+00021100031ADDMA1999999099931MD1210101+9999REMSYN04801020 46/// /1605 10012 20002 39993 40003 52010=
0089010200999992016012209004+76483+016550FM-12+001099999V0201601N006019999999N999999999+00151+00051100051ADDMA1999999099951MD1210071+9999REMSYN04801020 46/// /1606 10015 20005 39995 40005 52007=
0089010200999992016012210004+76483+016550FM-12+001099999V0201601N004019999999N999999999+00141+00081100041ADDMA1999999099941MD1310051+9999REMSYN04801020 46/// /1604 10014 20008 39994 40004 53005=
0108010200999992016012211004+76483+016550FM-12+001099999V0201301N004019999999N999999999+00081+00071100041ADDMA1999999099931MD1290019+9999REMSYN04801020 46/// /1304 10008 20007 39993 40004 54001=EQDQ01.1    3APC3  
0113010200999992016012212004+76483+016550FM-12+001099999V0201701N003019999999N999999999+00111+00101100071ADDMA1999999099961MD1990021+9999OD139900901999REMSYN05801020 46/// /1703 10011 20010 39996 40007 50002 333 91109=
0089010200999992016012213004+76483+016550FM-12+001099999V0202101N004019999999N999999999+00131+00121100081ADDMA1999999099981MD1210041+9999REMSYN04801020 46/// /2104 10013 20012 39998 40008 52004=
0089010200999992016012214004+76483+016550FM-12+001099999V0202401N005019999999N999999999+00101+00061100121ADDMA1999999100021MD1210081+9999REMSYN04801020 46/// /2405 10010 20006 30002 40012 52008=
0089010200999992016012215004+76483+016550FM-12+001099999V0202501N005019999999N999999999+00131+00031100171ADDMA1999999100071MD1110101+9999REMSYN04801020 46/// /2505 10013 20003 30007 40017 51010=
0089010200999992016012216004+76483+016550FM-12+001099999V0202501N003019999999N999999999+00071+00031100171ADDMA1999999100071MD1310091+9999REMSYN04801020 46/// /2503 10007 20003 30007 40017 53009=
0089010200999992016012217004+76483+016550FM-12+001099999V0202201N003019999999N999999999+00091+00001100181ADDMA1999999100071MD1310061+9999REMSYN04801020 46/// /2203 10009 20000 30007 40018 53006=
0151010200999992016012218004+76483+016550FM-12+001099999V0202201N003019999999N999999999+00071+00031100191ADDKA1120M+00181MA1999999100091MD1290029+9999OD139900701999REMSYN06401020 46/// /2203 10007 20003 30009 40019 54002 333 10018 91107=EQDQ01.2    3APC3  
0089010200999992016012219004+76483+016550FM-12+001099999V0202001N003019999999N999999999+00071+00001100211ADDMA1999999100111MD1210041+9999REMSYN04801020 46/// /2003 10007 21000 30011 40021 52004=
0089010200999992016012220004+76483+016550FM-12+001099999V0202101N005019999999N999999999+00091+00051100231ADDMA1999999100121MD1210051+9999REMSYN04801020 46/// /2105 10009 20005 30012 40023 52005=
0089010200999992016012221004+76483+016550FM-12+001099999V0202201N006019999999N999999999+00101-00011100231ADDMA1999999100131MD1210041+9999REMSYN04801020 46/// /2206 10010 21001 30013 40023 52004=
0108010200999992016012222004+76483+016550FM-12+001099999V0202201N005019999999N999999999+00061-00021100231ADDMA1999999100121MD1290029+9999REMSYN04801020 46/// /2205 10006 21002 30012 40023 54002=EQDQ01.2    3APC3  
0089010200999992016012223004+76483+016550FM-12+001099999V0202401N005019999999N999999999+00081-00011100271ADDMA1999999100171MD1110051+9999REMSYN04801020 46/// /2405 10008 21001 30017 40027 51005=
0113010200999992016012300004+76483+016550FM-12+001099999V0202301N006019999999N999999999+00091-00121100281ADDMA1999999100171MD1210041+9999OD139900801999REMSYN05801020 46/// /2306 10009 21012 30017 40028 52004 333 91108=
0089010200999992016012301004+76483+016550FM-12+001099999V0202501N006019999999N999999999+00061-00111100311ADDMA1999999100201MD1210081+9999REMSYN04801020 46/// /2506 10006 21011 30020 40031 52008=
0089010200999992016012302004+76483+016550FM-12+001099999V0202501N006019999999N999999999+00081-00171100351ADDMA1999999100251MD1110081+9999REMSYN04801020 46/// /2506 10008 21017 30025 40035 51008=
0089010200999992016012303004+76483+016550FM-12+001099999V0202301N007019999999N999999999+00061-00041100381ADDMA1999999100281MD1210101+9999REMSYN04801020 46/// /2307 10006 21004 30028 40038 52010=
0089010200999992016012304004+76483+016550FM-12+001099999V0202401N006019999999N999999999+00081-00081100401ADDMA1999999100301MD1210091+9999REMSYN04801020 46/// /2406 10008 21008 30030 40040 52009=
0089010200999992016012305004+76483+016550FM-12+001099999V0202601N005019999999N999999999+00101-00041100451ADDMA1999999100351MD1210101+9999REMSYN04801020 46/// /2605 10010 21004 30035 40045 52010=
0132010200999992016012306004+76483+016550FM-12+001099999V0202501N005019999999N999999999+00131-00061100461ADDKA1240N+00021MA1999999100351MD1210081+9999OD139900901999REMSYN06401020 46/// /2505 10013 21006 30035 40046 52008 333 20002 91109=
0089010200999992016012307004+76483+016550FM-12+001099999V0202401N005019999999N999999999+00131-00051100531ADDMA1999999100421MD1210121+9999REMSYN04801020 46/// /2405 10013 21005 30042 40053 52012=
0089010200999992016012308004+76483+016550FM-12+001099999V0202601N004019999999N999999999+00131-00031100601ADDMA1999999100491MD1110151+9999REMSYN04801020 46/// /2604 10013 21003 30049 40060 51015=
0089010200999992016012309004+76483+016550FM-12+001099999V0202801N002019999999N999999999+00041-00021100671ADDMA1999999100561MD1210211+9999REMSYN04801020 46/// /2802 10004 21002 30056 40067 52021=
0089010200999992016012310004+76483+016550FM-12+001099999V0202701N003019999999N999999999+00101+00071100701ADDMA1999999100591MD1310171+9999REMSYN04801020 46/// /2703 10010 20007 30059 40070 53017=
0089010200999992016012311004+76483+016550FM-12+001099999V0202401N001019999999N999999999+00111+00081100741ADDMA1999999100641MD1310141+9999REMSYN04801020 46/// /2401 10011 20008 30064 40074 53014=
0113010200999992016012312004+76483+016550FM-12+001099999V0202601N001019999999N999999999+00091+00061100801ADDMA1999999100691MD1210131+9999OD139900801999REMSYN05801020 46/// /2601 10009 20006 30069 40080 52013 333 91108=
0089010200999992016012313004+76483+016550FM-12+001099999V0202201N001019999999N999999999+00121+00081100821ADDMA1999999100721MD1210131+9999REMSYN04801020 46/// /2201 10012 20008 30072 40082 52013=
0089010200999992016012315004+76483+016550FM-12+001099999V0201601N003019999999N999999999+00081+00051100901ADDMA1999999100791MD1210101+9999REMSYN04801020 46/// /1603 10008 20005 30079 40090 52010=
0089010200999992016012316004+76483+016550FM-12+001099999V0201501N001019999999N999999999+00131+00101100911ADDMA1999999100811MD1210091+9999REMSYN04801020 46/// /1501 10013 20010 30081 40091 52009=
0089010200999992016012317004+76483+016550FM-12+001099999V0201301N003019999999N999999999+00091+00061100931ADDMA1999999100831MD1210071+9999REMSYN04801020 46/// /1303 10009 20006 30083 40093 52007=
0089010200999992016012318004+76483+016550FM-12+001099999V0200901N002019999999N999999999+00021-00021100941ADDMA1999999100831MD1210041+9999REMSYN04801020 46/// /0902 10002 21002 30083 40094 52004=
0089010200999992016012319004+76483+016550FM-12+001099999V0201301N005019999999N999999999+00111+00041100961ADDMA1999999100851MD1210041+9999REMSYN04801020 46/// /1305 10011 20004 30085 40096 52004=
0108010200999992016012320004+76483+016550FM-12+001099999V0201401N005019999999N999999999+00151+00061100961ADDMA1999999100851MD1290039+9999REMSYN04801020 46/// /1405 10015 20006 30085 40096 54003=EQDQ01.3    3APC3  
0089010200999992016012321004+76483+016550FM-12+001099999V0201501N005019999999N999999999+00161+00091100991ADDMA1999999100881MD1210051+9999REMSYN04801020 46/// /1505 10016 20009 30088 40099 52005=
0108010200999992016012322004+76483+016550FM-12+001099999V0201501N007019999999N999999999+00201+00131100971ADDMA1999999100861MD1290019+9999REMSYN04801020 46/// /1507 10020 20013 30086 40097 54001=EQDQ01.1    3APC3  
0089010200999992016012323004+76483+016550FM-12+001099999V0201401N005019999999N999999999+00151+00111100961ADDMA1999999100861MD1510011+9999REMSYN04801020 46/// /1405 10015 20011 30086 40096 55001=
0132010200999992016012400004+76483+016550FM-12+001099999V0201601N006019999999N999999999+00181+00091100961ADDMA1999999100851MD1790039+9999OD139900901999REMSYN05801020 46/// /1606 10018 20009 30085 40096 54003 333 91109=EQDQ01.3    3APC3  
0108010200999992016012401004+76483+016550FM-12+001099999V0201401N007019999999N999999999+00191+00151100951ADDMA1999999100841MD1790029+9999REMSYN04801020 46/// /1407 10019 20015 30084 40095 54002=EQDQ01.2    3APC3  
0108010200999992016012402004+76483+016550FM-12+001099999V0201401N008019999999N999999999+00211+00181100941ADDMA1999999100831MD1790029+9999REMSYN04801020 46/// /1408 10021 20018 30083 40094 54003=EQDQ01.3    3APC3  
0108010200999992016012403004+76483+016550FM-12+001099999V0201401N008019999999N999999999+00231+00171100951ADDMA1999999100851MD1790019+9999REMSYN04801020 46/// /1408 10023 20017 30085 40095 54001=EQDQ01.1    3APC3  
0089010200999992016012404004+76483+016550FM-12+001099999V0201501N007019999999N999999999+00231+00171100951ADDMA1999999100841MD1410001+9999REMSYN04801020 46/// /1507 10023 20017 30084 40095 54000=
0089010200999992016012405004+76483+016550FM-12+001099999V0201501N007019999999N999999999+00241+00201100931ADDMA1999999100821MD1510011+9999REMSYN04801020 46/// /1507 10024 20020 30082 40093 55001=
0151010200999992016012406004+76483+016550FM-12+001099999V0201401N007019999999N999999999+00261+00191100931ADDKA1240N-00031MA1999999100821MD1790029+9999OD139900901999REMSYN06401020 46/// /1407 10026 20019 30082 40093 54003 333 21003 91109=EQDQ01.3    3APC3  
0089010200999992016012407004+76483+016550FM-12+001099999V0201401N007019999999N999999999+00211+00121100961ADDMA1999999100861MD1990021+9999REMSYN04801020 46/// /1407 10021 20012 30086 40096 50002=
0089010200999992016012408004+76483+016550FM-12+001099999V0201401N007019999999N999999999+00211+00141100981ADDMA1999999100871MD1210051+9999REMSYN04801020 46/// /1407 10021 20014 30087 40098 52005=
0089010200999992016012409004+76483+016550FM-12+001099999V0201501N008019999999N999999999+00241+00151100971ADDMA1999999100871MD1310051+9999REMSYN04801020 46/// /1508 10024 20015 30087 40097 53005=
0108010200999992016012410004+76483+016550FM-12+001099999V0201501N009019999999N999999999+00251+00121100991ADDMA1999999100891MD1290039+9999REMSYN04801020 46/// /1509 10025 20012 30089 40099 54003=EQDQ01.3    3APC3  
0089010200999992016012411004+76483+016550FM-12+001099999V0201501N010019999999N999999999+00241+00121100981ADDMA1999999100871MD1410001+9999REMSYN04801020 46/// /1510 10024 20012 30087 40098 54000=
0113010200999992016012412004+76483+016550FM-12+001099999V0201401N010019999999N999999999+00241+00121100971ADDMA1999999100861MD1410001+9999OD139901201999REMSYN05801020 46/// /1410 10024 20012 30086 40097 54000 333 91112=
0108010200999992016012413004+76483+016550FM-12+001099999V0201501N011019999999N999999999+00251+00041100981ADDMA1999999100871MD1790019+9999REMSYN04801020 46/// /1511 10025 20004 30087 40098 54002=EQDQ01.2    3APC3  
0108010200999992016012414004+76483+016550FM-12+001099999V0201501N011019999999N999999999+00221+00041100991ADDMA1999999100891MD1290019+9999REMSYN04801020 46/// /1511 10022 20004 30089 40099 54002=EQDQ01.2    3APC3  
0089010200999992016012415004+76483+016550FM-12+001099999V0201501N012019999999N999999999+00201+00051101011ADDMA1999999100901MD1210041+9999REMSYN04801020 46/// /1512 10020 20005 30090 40101 52004=
0108010200999992016012416004+76483+016550FM-12+001099999V0201401N011019999999N999999999+00171+00041101001ADDMA1999999100891MD1290029+9999REMSYN04801020 46/// /1411 10017 20004 30089 40100 54002=EQDQ01.2    3APC3  
0108010200999992016012417004+76483+016550FM-12+001099999V0201501N013019999999N999999999+00171+00021100981ADDMA1999999100881MD1790019+9999REMSYN04801020 46/// /1513 10017 20002 30088 40098 54001=EQDQ01.1    3APC3  
0059010200999992016012420004+76478+016549FM-12+001099999V0201461N0119199999999999999999+00141-00081101031ADDMA1999999100931MD1110051+9999OD130101401999REMSYN004BUFR
0089010200999992016012421004+76483+016550FM-12+001099999V0201501N012019999999N999999999+00131-00051101041ADDMA1999999100941MD1210071+9999REMSYN04801020 46/// /1512 10013 21005 30094 40104 52007=
0089010200999992016012422004+76483+016550FM-12+001099999V0201501N014019999999N999999999+00131-00031101041ADDMA1999999100941MD1310051+9999REMSYN04801020 46/// /1514 10013 21003 30094 40104 53005=
0089010200999992016012423004+76483+016550FM-12+001099999V0201501N013019999999N999999999+00121-00091101071ADDMA1999999100961MD1210031+9999REMSYN04801020 46/// /1513 10012 21009 30096 40107 52003=
0089010200999992016012500004+76483+016550FM-12+001099999V0201501N013019999999N999999999+00121-00121101091ADDMA1999999100981MD1210051+9999REMSYN04801020 46/// /1513 10012 21012 30098 40109 52005=
0089010200999992016012501004+76483+016550FM-12+001099999V0201501N012019999999N999999999+00121-00171101111ADDMA1999999101001MD1210071+9999REMSYN04801020 46/// /1512 10012 21017 30100 40111 52007=
0089010200999992016012502004+76483+016550FM-12+001099999V0201501N013019999999N999999999+00101-00191101131ADDMA1999999101021MD1210061+9999REMSYN04801020 46/// /1513 10010 21019 30102 40113 52006=
0089010200999992016012503004+76483+016550FM-12+001099999V0201501N012019999999N999999999+00091-00211101131ADDMA1999999101021MD1210041+9999REMSYN04801020 46/// /1512 10009 21021 30102 40113 52004=
0089010200999992016012504004+76483+016550FM-12+001099999V0201401N011019999999N999999999+00071-00221101151ADDMA1999999101041MD1210031+9999REMSYN04801020 46/// /1411 10007 21022 30104 40115 52003=
0089010200999992016012505004+76483+016550FM-12+001099999V0201501N011019999999N999999999+00091-00231101171ADDMA1999999101061MD1210041+9999REMSYN04801020 46/// /1511 10009 21023 30106 40117 52004=
