0059010270999992016010100004+69650+018900FM-12+002099999V0209999C999999999999N999999999+00591-00251999999ADDAA106000091REMSYN03601027 16/// ///// 10059 21025 60001=
0053010270999992016010101004+69652+018906FM-12+002099999V020999999999999999999999999999+00521-00341999999ADDAA101999999KA1010M+00601KA2010N+00531REMSYN004BUFR
0049010270999992016010102004+69650+018900FM-12+002099999V020999999999999999999999999999+99999+99999999999REMSYN04001027 26/// ///// 10051 21043 333 60005=
0049010270999992016010103004+69650+018900FM-12+002099999V020999999999999999999999999999+99999+99999999999REMSYN04001027 26/// ///// 10052 21046 333 60005=
0049010270999992016010104004+69650+018900FM-12+002099999V020999999999999999999999999999+99999+99999999999REMSYN04001027 26/// ///// 10056 21051 333 60005=
0049010270999992016010105004+69650+018900FM-12+002099999V020999999999999999999999999999+99999+99999999999REMSYN04001027 26/// ///// 10051 21044 333 60005=
0099010270999992016010106004+69650+018900FM-12+002099999V0209999C999999999999N999999999+00491-00361999999ADDAA112000091AA224000091KA1240N+00181REMSYN05201027 16/// ///// 10049 21036 60002 333 20018 70000=
0049010270999992016010107004+69650+018900FM-12+002099999V020999999999999999999999999999+99999+99999999999REMSYN04001027 26/// ///// 10050 21030 333 60005=
0049010270999992016010108004+69650+018900FM-12+002099999V020999999999999999999999999999+99999+99999999999REMSYN04001027 26/// ///// 10048 21025 333 60005=
0049010270999992016010109004+69650+018900FM-12+002099999V020999999999999999999999999999+99999+99999999999REMSYN04001027 26/// ///// 10047 21022 333 60005=
0049010270999992016010110004+69650+018900FM-12+002099999V020999999999999999999999999999+99999+99999999999REMSYN04001027 26/// ///// 10046 21019 333 60005=
0049010270999992016010111004+69650+018900FM-12+002099999V020999999999999999999999999999+99999+99999999999REMSYN04001027 26/// ///// 10045 21020 333 60005=
0059010270999992016010112004+69650+018900FM-12+002099999V0209999C999999999999N999999999+00451-00241999999ADDAA106000091REMSYN03601027 16/// ///// 10045 21024 60001=
0049010270999992016010113004+69650+018900FM-12+002099999V020999999999999999999999999999+99999+99999999999REMSYN04001027 26/// ///// 10046 21029 333 60005=
0049010270999992016010114004+69650+018900FM-12+002099999V020999999999999999999999999999+99999+99999999999REMSYN04001027 26/// ///// 10040 21022 333 60005=
0049010270999992016010115004+69650+018900FM-12+002099999V020999999999999999999999999999+99999+99999999999REMSYN04001027 26/// ///// 10040 21025 333 60005=
0049010270999992016010116004+69650+018900FM-12+002099999V020999999999999999999999999999+99999+99999999999REMSYN04001027 26/// ///// 10041 21025 333 60005=
0049010270999992016010117004+69650+018900FM-12+002099999V020999999999999999999999999999+99999+99999999999REMSYN04001027 26/// ///// 10043 21019 333 60005=
0082010270999992016010118004+69650+018900FM-12+002099999V0209999C999999999999N999999999+00401-00331999999ADDAA112000091KA1120M+00531REMSYN04601027 16/// ///// 10040 21033 60002 333 10053=
0049010270999992016010119004+69650+018900FM-12+002099999V020999999999999999999999999999+99999+99999999999REMSYN04001027 26/// ///// 10040 21032 333 60005=
0049010270999992016010120004+69650+018900FM-12+002099999V020999999999999999999999999999+99999+99999999999REMSYN04001027 26/// ///// 10038 21032 333 60005=
0049010270999992016010121004+69650+018900FM-12+002099999V020999999999999999999999999999+99999+99999999999REMSYN04001027 26/// ///// 10043 21038 333 60005=
0049010270999992016010122004+69650+018900FM-12+002099999V020999999999999999999999999999+99999+99999999999REMSYN04001027 26/// ///// 10044 21036 333 60005=
0049010270999992016010123004+69650+018900FM-12+002099999V020999999999999999999999999999+99999+99999999999REMSYN04001027 26/// ///// 10042 21035 333 60005=
0059010270999992016010200004+69650+018900FM-12+002099999V0209999C999999999999N999999999+00431-00371999999ADDAA106000091REMSYN03601027 16/// ///// 10043 21037 60001=
0049010270999992016010201004+69650+018900FM-12+002099999V020999999999999999999999999999+99999+99999999999REMSYN04001027 26/// ///// 10042 21033 333 60005=
0049010270999992016010202004+69650+018900FM-12+002099999V020999999999999999999999999999+99999+99999999999REMSYN04001027 26/// ///// 10044 21036 333 60005=
0049010270999992016010203004+69650+018900FM-12+002099999V020999999999999999999999999999+99999+99999999999REMSYN04001027 26/// ///// 10043 21036 333 60005=
0049010270999992016010204004+69650+018900FM-12+002099999V020999999999999999999999999999+99999+99999999999REMSYN04001027 26/// ///// 10042 21041 333 60005=
0049010270999992016010205004+69650+018900FM-12+002099999V020999999999999999999999999999+99999+99999999999REMSYN04001027 26/// ///// 10040 21025 333 60005=
0099010270999992016010206004+69650+018900FM-12+002099999V0209999C999999999999N999999999+00391-00311999999ADDAA112000091AA224000091KA1240N+00361REMSYN05201027 16/// ///// 10039 21031 60002 333 20036 70000=
0049010270999992016010207004+69650+018900FM-12+002099999V020999999999999999999999999999+99999+99999999999REMSYN04001027 26/// ///// 10033 21024 333 60005=
0049010270999992016010208004+69650+018900FM-12+002099999V020999999999999999999999999999+99999+99999999999REMSYN04001027 26/// ///// 10033 21028 333 60005=
0049010270999992016010209004+69650+018900FM-12+002099999V020999999999999999999999999999+99999+99999999999REMSYN04001027 26/// ///// 10035 21030 333 60005=
0049010270999992016010210004+69650+018900FM-12+002099999V020999999999999999999999999999+99999+99999999999REMSYN04001027 26/// ///// 10025 21026 333 60005=
0049010270999992016010211004+69650+018900FM-12+002099999V020999999999999999999999999999+99999+99999999999REMSYN04001027 26/// ///// 10025 21033 333 60005=
0059010270999992016010212004+69650+018900FM-12+002099999V0209999C999999999999N999999999+00181-00331999999ADDAA106000091REMSYN03601027 16/// ///// 10018 21033 60001=
0049010270999992016010213004+69650+018900FM-12+002099999V020999999999999999999999999999+99999+99999999999REMSYN04001027 26/// ///// 10008 21041 333 60005=
0049010270999992016010214004+69650+018900FM-12+002099999V020999999999999999999999999999+99999+99999999999REMSYN04001027 26/// ///// 11005 21044 333 60005=
0049010270999992016010215004+69650+018900FM-12+002099999V020999999999999999999999999999+99999+99999999999REMSYN04001027 26/// ///// 11002 21038 333 60005=
0049010270999992016010216004+69650+018900FM-12+002099999V020999999999999999999999999999+99999+99999999999REMSYN04001027 26/// ///// 11008 21039 333 60005=
0049010270999992016010217004+69650+018900FM-12+002099999V020999999999999999999999999999+99999+99999999999REMSYN04001027 26/// ///// 11004 21038 333 60005=
0082010270999992016010218004+69650+018900FM-12+002099999V0209999C999999999999N999999999+00061-00401999999ADDAA112000091KA1120M+00401REMSYN04601027 16/// ///// 10006 21040 60002 333 10040=
0049010270999992016010219004+69650+018900FM-12+002099999V020999999999999999999999999999+99999+99999999999REMSYN04001027 26/// ///// 10014 21044 333 60005=
0049010270999992016010220004+69650+018900FM-12+002099999V020999999999999999999999999999+99999+99999999999REMSYN04001027 26/// ///// 10012 21050 333 60005=
0049010270999992016010221004+69650+018900FM-12+002099999V020999999999999999999999999999+99999+99999999999REMSYN04001027 26/// ///// 10010 21056 333 60005=
0049010270999992016010222004+69650+018900FM-12+002099999V020999999999999999999999999999+99999+99999999999REMSYN04001027 26/// ///// 10016 21055 333 60005=
0049010270999992016010223004+69650+018900FM-12+002099999V020999999999999999999999999999+99999+99999999999REMSYN04001027 26/// ///// 10013 21052 333 60005=
0059010270999992016010300004+69650+018900FM-12+002099999V0209999C999999999999N999999999+00071-00601999999ADDAA106000091REMSYN03601027 16/// ///// 10007 21060 60001=
0049010270999992016010301004+69650+018900FM-12+002099999V020999999999999999999999999999+99999+99999999999REMSYN04001027 26/// ///// 10002 21064 333 60005=
0049010270999992016010302004+69650+018900FM-12+002099999V020999999999999999999999999999+99999+99999999999REMSYN04001027 26/// ///// 10000 21062 333 60005=
0049010270999992016010303004+69650+018900FM-12+002099999V020999999999999999999999999999+99999+99999999999REMSYN04001027 26/// ///// 11005 21067 333 60005=
0049010270999992016010304004+69650+018900FM-12+002099999V020999999999999999999999999999+99999+99999999999REMSYN04001027 26/// ///// 11011 21071 333 60005=
0049010270999992016010305004+69650+018900FM-12+002099999V020999999999999999999999999999+99999+99999999999REMSYN04001027 26/// ///// 11015 21071 333 60005=
0099010270999992016010306004+69650+018900FM-12+002099999V0209999C999999999999N999999999-00241-00771999999ADDAA112000091AA224000091KA1240N-00241REMSYN05201027 16/// ///// 11024 21077 60002 333 21024 70000=
0049010270999992016010307004+69650+018900FM-12+002099999V020999999999999999999999999999+99999+99999999999REMSYN04001027 26/// ///// 11026 21074 333 60005=
0049010270999992016010308004+69650+018900FM-12+002099999V020999999999999999999999999999+99999+99999999999REMSYN04001027 26/// ///// 11030 21075 333 60005=
0049010270999992016010309004+69650+018900FM-12+002099999V020999999999999999999999999999+99999+99999999999REMSYN04001027 26/// ///// 11032 21070 333 60005=
0049010270999992016010310004+69650+018900FM-12+002099999V020999999999999999999999999999+99999+99999999999REMSYN04001027 26/// ///// 11042 21076 333 60005=
0049010270999992016010311004+69650+018900FM-12+002099999V020999999999999999999999999999+99999+99999999999REMSYN04001027 26/// ///// 11040 21071 333 60005=
0059010270999992016010312004+69650+018900FM-12+002099999V0209999C999999999999N999999999-00411-00721999999ADDAA106000091REMSYN03601027 16/// ///// 11041 21072 60001=
0049010270999992016010313004+69650+018900FM-12+002099999V020999999999999999999999999999+99999+99999999999REMSYN04001027 26/// ///// 11041 21079 333 60005=
0049010270999992016010314004+69650+018900FM-12+002099999V020999999999999999999999999999+99999+99999999999REMSYN04001027 26/// ///// 11032 21070 333 60005=
0049010270999992016010315004+69650+018900FM-12+002099999V020999999999999999999999999999+99999+99999999999REMSYN04001027 26/// ///// 11036 21086 333 60005=
0049010270999992016010316004+69650+018900FM-12+002099999V020999999999999999999999999999+99999+99999999999REMSYN04001027 26/// ///// 11036 21082 333 60005=
0049010270999992016010317004+69650+018900FM-12+002099999V020999999999999999999999999999+99999+99999999999REMSYN04001027 26/// ///// 11028 21090 333 60005=
0082010270999992016010318004+69650+018900FM-12+002099999V0209999C999999999999N999999999-00251-00961999999ADDAA112000091KA1120M-00231REMSYN04601027 16/// ///// 11025 21096 60002 333 11023=
0049010270999992016010319004+69650+018900FM-12+002099999V020999999999999999999999999999+99999+99999999999REMSYN04001027 26/// ///// 11028 21100 333 60005=
0049010270999992016010320004+69650+018900FM-12+002099999V020999999999999999999999999999+99999+99999999999REMSYN04001027 26/// ///// 11030 21104 333 60005=
0049010270999992016010321004+69650+018900FM-12+002099999V020999999999999999999999999999+99999+99999999999REMSYN04001027 26/// ///// 11029 21099 333 60005=
0049010270999992016010322004+69650+018900FM-12+002099999V020999999999999999999999999999+99999+99999999999REMSYN04001027 26/// ///// 11028 21095 333 60005=
0049010270999992016010323004+69650+018900FM-12+002099999V020999999999999999999999999999+99999+99999999999REMSYN04001027 26/// ///// 11023 21095 333 60005=
0059010270999992016010400004+69650+018900FM-12+002099999V0209999C999999999999N999999999-00221-00981999999ADDAA106000091REMSYN03601027 16/// ///// 11022 21098 60001=
0049010270999992016010401004+69650+018900FM-12+002099999V020999999999999999999999999999+99999+99999999999REMSYN04001027 26/// ///// 11023 21101 333 60005=
0049010270999992016010402004+69650+018900FM-12+002099999V020999999999999999999999999999+99999+99999999999REMSYN04001027 26/// ///// 11029 21110 333 60005=
0049010270999992016010403004+69650+018900FM-12+002099999V020999999999999999999999999999+99999+99999999999REMSYN04001027 26/// ///// 11031 21114 333 60005=
0049010270999992016010404004+69650+018900FM-12+002099999V020999999999999999999999999999+99999+99999999999REMSYN04001027 26/// ///// 11038 21111 333 60005=
0049010270999992016010405004+69650+018900FM-12+002099999V020999999999999999999999999999+99999+99999999999REMSYN04001027 26/// ///// 11051 21130 333 60005=
0099010270999992016010406004+69650+018900FM-12+002099999V0209999C999999999999N999999999-00571-01321999999ADDAA112000091AA224000091KA1240N-00571REMSYN05201027 16/// ///// 11057 21132 60002 333 21057 70000=
0049010270999992016010407004+69650+018900FM-12+002099999V020999999999999999999999999999+99999+99999999999REMSYN04001027 26/// ///// 11056 21136 333 60005=
0049010270999992016010408004+69650+018900FM-12+002099999V020999999999999999999999999999+99999+99999999999REMSYN04001027 26/// ///// 11062 21147 333 60005=
0053010270999992016010409004+69652+018906FM-12+002099999V020999999999999999999999999999-00651-01461999999ADDAA101999999KA1010M-00611KA2010N-00651REMSYN004BUFR
0049010270999992016010410004+69650+018900FM-12+002099999V020999999999999999999999999999+99999+99999999999REMSYN04001027 26/// ///// 11066 21146 333 60005=
0049010270999992016010411004+69650+018900FM-12+002099999V020999999999999999999999999999+99999+99999999999REMSYN04001027 26/// ///// 11064 21141 333 60005=
0059010270999992016010412004+69650+018900FM-12+002099999V0209999C999999999999N999999999-00671-01501999999ADDAA106000091REMSYN03601027 16/// ///// 11067 21150 60001=
0049010270999992016010413004+69650+018900FM-12+002099999V020999999999999999999999999999+99999+99999999999REMSYN04001027 26/// ///// 11067 21140 333 60005=
0049010270999992016010414004+69650+018900FM-12+002099999V020999999999999999999999999999+99999+99999999999REMSYN04001027 26/// ///// 11065 21142 333 60005=
0049010270999992016010415004+69650+018900FM-12+002099999V020999999999999999999999999999+99999+99999999999REMSYN04001027 26/// ///// 11068 21138 333 60005=
0049010270999992016010416004+69650+018900FM-12+002099999V020999999999999999999999999999+99999+99999999999REMSYN04001027 26/// ///// 11073 21135 333 60005=
0049010270999992016010417004+69650+018900FM-12+002099999V020999999999999999999999999999+99999+99999999999REMSYN04001027 26/// ///// 11067 21132 333 60005=
0082010270999992016010418004+69650+018900FM-12+002099999V0209999C999999999999N999999999-00591-01321999999ADDAA112000091KA1120M-00471REMSYN04601027 16/// ///// 11059 21132 60002 333 11047=
0049010270999992016010419004+69650+018900FM-12+002099999V020999999999999999999999999999+99999+99999999999REMSYN04001027 26/// ///// 11062 21134 333 60005=
0049010270999992016010420004+69650+018900FM-12+002099999V020999999999999999999999999999+99999+99999999999REMSYN04001027 26/// ///// 11062 21138 333 60005=
0049010270999992016010421004+69650+018900FM-12+002099999V020999999999999999999999999999+99999+99999999999REMSYN04001027 26/// ///// 11060 21136 333 60005=
0049010270999992016010422004+69650+018900FM-12+002099999V020999999999999999999999999999+99999+99999999999REMSYN04001027 26/// ///// 11066 21144 333 60005=
0049010270999992016010423004+69650+018900FM-12+002099999V020999999999999999999999999999+99999+99999999999REMSYN04001027 26/// ///// 11066 21154 333 60005=
0059010270999992016010500004+69650+018900FM-12+002099999V0209999C999999999999N999999999-00791-01361999999ADDAA106000091REMSYN03601027 16/// ///// 11079 21136 60001=
0049010270999992016010501004+69650+018900FM-12+002099999V020999999999999999999999999999+99999+99999999999REMSYN04001027 26/// ///// 11072 21142 333 60005=
0049010270999992016010502004+69650+018900FM-12+002099999V020999999999999999999999999999+99999+99999999999REMSYN04001027 26/// ///// 11070 21137 333 60005=
0049010270999992016010503004+69650+018900FM-12+002099999V020999999999999999999999999999+99999+99999999999REMSYN04001027 26/// ///// 11078 21143 333 60005=
0049010270999992016010504004+69650+018900FM-12+002099999V020999999999999999999999999999+99999+99999999999REMSYN04001027 26/// ///// 11088 21139 333 60005=
0049010270999992016010505004+69650+018900FM-12+002099999V020999999999999999999999999999+99999+99999999999REMSYN04001027 26/// ///// 11087 21139 333 60005=
0099010270999992016010506004+69650+018900FM-12+002099999V0209999C999999999999N999999999-00811-01271999999ADDAA112000091AA224000091KA1240N-00911REMSYN05201027 16/// ///// 11081 21127 60002 333 21091 70000=
0049010270999992016010507004+69650+018900FM-12+002099999V020999999999999999999999999999+99999+99999999999REMSYN04001027 26/// ///// 11094 21135 333 60005=
0049010270999992016010508004+69650+018900FM-12+002099999V020999999999999999999999999999+99999+99999999999REMSYN04001027 26/// ///// 11093 21130 333 60005=
0049010270999992016010509004+69650+018900FM-12+002099999V020999999999999999999999999999+99999+99999999999REMSYN04001027 26/// ///// 11093 21132 333 60005=
0049010270999992016010510004+69650+018900FM-12+002099999V020999999999999999999999999999+99999+99999999999REMSYN04001027 26/// ///// 11090 21127 333 60005=
0049010270999992016010511004+69650+018900FM-12+002099999V020999999999999999999999999999+99999+99999999999REMSYN04001027 26/// ///// 11085 21120 333 60005=
0059010270999992016010512004+69650+018900FM-12+002099999V0209999C999999999999N999999999-00881-01241999999ADDAA106000091REMSYN03601027 16/// ///// 11088 21124 60001=
0049010270999992016010513004+69650+018900FM-12+002099999V020999999999999999999999999999+99999+99999999999REMSYN04001027 26/// ///// 11091 21125 333 60005=
0049010270999992016010514004+69650+018900FM-12+002099999V020999999999999999999999999999+99999+99999999999REMSYN04001027 26/// ///// 11091 21122 333 60005=
0049010270999992016010515004+69650+018900FM-12+002099999V020999999999999999999999999999+99999+99999999999REMSYN04001027 26/// ///// 11083 21123 333 60005=
0049010270999992016010516004+69650+018900FM-12+002099999V020999999999999999999999999999+99999+99999999999REMSYN04001027 26/// ///// 11087 21133 333 60005=
0049010270999992016010517004+69650+018900FM-12+002099999V020999999999999999999999999999+99999+99999999999REMSYN04001027 26/// ///// 11088 21144 333 60005=
0082010270999992016010518004+69650+018900FM-12+002099999V0209999C999999999999N999999999-00791-01261999999ADDAA112000091KA1120M-00761REMSYN04601027 16/// ///// 11079 21126 60002 333 11076=
0049010270999992016010519004+69650+018900FM-12+002099999V020999999999999999999999999999+99999+99999999999REMSYN04001027 26/// ///// 11083 21147 333 60005=
0049010270999992016010520004+69650+018900FM-12+002099999V020999999999999999999999999999+99999+99999999999REMSYN04001027 26/// ///// 11081 21129 333 60005=
0049010270999992016010521004+69650+018900FM-12+002099999V020999999999999999999999999999+99999+99999999999REMSYN04001027 26/// ///// 11079 21131 333 60005=
0049010270999992016010522004+69650+018900FM-12+002099999V020999999999999999999999999999+99999+99999999999REMSYN04001027 26/// ///// 11085 21145 333 60005=
0059010270999992016010600004+69650+018900FM-12+002099999V0209999C999999999999N999999999-00851-01431999999ADDAA106000091REMSYN03601027 16/// ///// 11085 21143 60001=
0049010270999992016010601004+69650+018900FM-12+002099999V020999999999999999999999999999+99999+99999999999REMSYN04001027 26/// ///// 11088 21146 333 60005=
0049010270999992016010602004+69650+018900FM-12+002099999V020999999999999999999999999999+99999+99999999999REMSYN04001027 26/// ///// 11086 21143 333 60005=
0049010270999992016010603004+69650+018900FM-12+002099999V020999999999999999999999999999+99999+99999999999REMSYN04001027 26/// ///// 11091 21147 333 60005=
0049010270999992016010604004+69650+018900FM-12+002099999V020999999999999999999999999999+99999+99999999999REMSYN04001027 26/// ///// 11092 21148 333 60005=
0049010270999992016010605004+69650+018900FM-12+002099999V020999999999999999999999999999+99999+99999999999REMSYN04001027 26/// ///// 11086 21144 333 60005=
0099010270999992016010606004+69650+018900FM-12+002099999V0209999C999999999999N999999999-00811-01331999999ADDAA112000091AA224000091KA1240N-00951REMSYN05201027 16/// ///// 11081 21133 60002 333 21095 70000=
0049010270999992016010607004+69650+018900FM-12+002099999V020999999999999999999999999999+99999+99999999999REMSYN04001027 26/// ///// 11082 21134 333 60005=
0049010270999992016010608004+69650+018900FM-12+002099999V020999999999999999999999999999+99999+99999999999REMSYN04001027 26/// ///// 11083 21130 333 60005=
0049010270999992016010609004+69650+018900FM-12+002099999V020999999999999999999999999999+99999+99999999999REMSYN04001027 26/// ///// 11083 21132 333 60005=
0049010270999992016010610004+69650+018900FM-12+002099999V020999999999999999999999999999+99999+99999999999REMSYN04001027 26/// ///// 11086 21137 333 60005=
0049010270999992016010611004+69650+018900FM-12+002099999V020999999999999999999999999999+99999+99999999999REMSYN04001027 26/// ///// 11090 21141 333 60005=
0059010270999992016010612004+69650+018900FM-12+002099999V0209999C999999999999N999999999-00931-01411999999ADDAA106000091REMSYN03601027 16/// ///// 11093 21141 60001=
0049010270999992016010613004+69650+018900FM-12+002099999V020999999999999999999999999999+99999+99999999999REMSYN04001027 26/// ///// 11096 21141 333 60005=
0049010270999992016010614004+69650+018900FM-12+002099999V020999999999999999999999999999+99999+99999999999REMSYN04001027 26/// ///// 11103 21148 333 60005=
0049010270999992016010615004+69650+018900FM-12+002099999V020999999999999999999999999999+99999+99999999999REMSYN04001027 26/// ///// 11102 21144 333 60005=
0049010270999992016010616004+69650+018900FM-12+002099999V020999999999999999999999999999+99999+99999999999REMSYN04001027 26/// ///// 11105 21147 333 60005=
0049010270999992016010617004+69650+018900FM-12+002099999V020999999999999999999999999999+99999+99999999999REMSYN04001027 26/// ///// 11109 21151 333 60005=
0082010270999992016010618004+69650+018900FM-12+002099999V0209999C999999999999N999999999-01121-01531999999ADDAA112000091KA1120M-00791REMSYN04601027 16/// ///// 11112 21153 60002 333 11079=
0049010270999992016010619004+69650+018900FM-12+002099999V020999999999999999999999999999+99999+99999999999REMSYN04001027 26/// ///// 11115 21155 333 60005=
0049010270999992016010620004+69650+018900FM-12+002099999V020999999999999999999999999999+99999+99999999999REMSYN04001027 26/// ///// 11116 21156 333 60005=
0049010270999992016010621004+69650+018900FM-12+002099999V020999999999999999999999999999+99999+99999999999REMSYN04001027 26/// ///// 11114 21155 333 60005=
0049010270999992016010622004+69650+018900FM-12+002099999V020999999999999999999999999999+99999+99999999999REMSYN04001027 26/// ///// 11118 21160 333 60005=
0049010270999992016010623004+69650+018900FM-12+002099999V020999999999999999999999999999+99999+99999999999REMSYN04001027 26/// ///// 11119 21160 333 60005=
0059010270999992016010700004+69650+018900FM-12+002099999V0209999C999999999999N999999999-01211-01601999999ADDAA106000091REMSYN03601027 16/// ///// 11121 21160 60001=
0049010270999992016010701004+69650+018900FM-12+002099999V020999999999999999999999999999+99999+99999999999REMSYN04001027 26/// ///// 11123 21164 333 60005=
0049010270999992016010702004+69650+018900FM-12+002099999V020999999999999999999999999999+99999+99999999999REMSYN04001027 26/// ///// 11124 21166 333 60005=
0049010270999992016010703004+69650+018900FM-12+002099999V020999999999999999999999999999+99999+99999999999REMSYN04001027 26/// ///// 11122 21165 333 60005=
0049010270999992016010704004+69650+018900FM-12+002099999V020999999999999999999999999999+99999+99999999999REMSYN04001027 26/// ///// 11128 21171 333 60005=
0049010270999992016010705004+69650+018900FM-12+002099999V020999999999999999999999999999+99999+99999999999REMSYN04001027 26/// ///// 11132 21176 333 60005=
0099010270999992016010706004+69650+018900FM-12+002099999V0209999C999999999999N999999999-01351-01791999999ADDAA112000091AA224000091KA1240N-01381REMSYN05201027 16/// ///// 11135 21179 60002 333 21138 70000=
0049010270999992016010707004+69650+018900FM-12+002099999V020999999999999999999999999999+99999+99999999999REMSYN04001027 26/// ///// 11139 21178 333 60005=
0049010270999992016010708004+69650+018900FM-12+002099999V020999999999999999999999999999+99999+99999999999REMSYN04001027 26/// ///// 11131 21166 333 60005=
0049010270999992016010709004+69650+018900FM-12+002099999V020999999999999999999999999999+99999+99999999999REMSYN04001027 26/// ///// 11143 21180 333 60005=
0049010270999992016010710004+69650+018900FM-12+002099999V020999999999999999999999999999+99999+99999999999REMSYN04001027 26/// ///// 11145 21184 333 60005=
0049010270999992016010711004+69650+018900FM-12+002099999V020999999999999999999999999999+99999+99999999999REMSYN04001027 26/// ///// 11136 21182 333 60005=
0059010270999992016010712004+69650+018900FM-12+002099999V0209999C999999999999N999999999-01421-01921999999ADDAA106000091REMSYN03601027 16/// ///// 11142 21192 60001=
0049010270999992016010713004+69650+018900FM-12+002099999V020999999999999999999999999999+99999+99999999999REMSYN04001027 26/// ///// 11142 21203 333 60005=
0049010270999992016010714004+69650+018900FM-12+002099999V020999999999999999999999999999+99999+99999999999REMSYN04001027 26/// ///// 11140 21200 333 60005=
0049010270999992016010715004+69650+018900FM-12+002099999V020999999999999999999999999999+99999+99999999999REMSYN04001027 26/// ///// 11138 21199 333 60005=
0049010270999992016010716004+69650+018900FM-12+002099999V020999999999999999999999999999+99999+99999999999REMSYN04001027 26/// ///// 11142 21203 333 60005=
0049010270999992016010717004+69650+018900FM-12+002099999V020999999999999999999999999999+99999+99999999999REMSYN04001027 26/// ///// 11134 21185 333 60005=
0082010270999992016010718004+69650+018900FM-12+002099999V0209999C999999999999N999999999-01381-01851999999ADDAA112000091KA1120M-01281REMSYN04601027 16/// ///// 11138 21185 60002 333 11128=
0049010270999992016010719004+69650+018900FM-12+002099999V020999999999999999999999999999+99999+99999999999REMSYN04001027 26/// ///// 11122 21162 333 60005=
0049010270999992016010720004+69650+018900FM-12+002099999V020999999999999999999999999999+99999+99999999999REMSYN04001027 26/// ///// 11136 21175 333 60005=
0049010270999992016010721004+69650+018900FM-12+002099999V020999999999999999999999999999+99999+99999999999REMSYN04001027 26/// ///// 11136 21177 333 60005=
0049010270999992016010722004+69650+018900FM-12+002099999V020999999999999999999999999999+99999+99999999999REMSYN04001027 26/// ///// 11138 21176 333 60005=
0049010270999992016010723004+69650+018900FM-12+002099999V020999999999999999999999999999+99999+99999999999REMSYN04001027 26/// ///// 11147 21182 333 60005=
0059010270999992016010800004+69650+018900FM-12+002099999V0209999C999999999999N999999999-01411-01731999999ADDAA106000091REMSYN03601027 16/// ///// 11141 21173 60001=
0049010270999992016010801004+69650+018900FM-12+002099999V020999999999999999999999999999+99999+99999999999REMSYN04001027 26/// ///// 11139 21170 333 60005=
0049010270999992016010802004+69650+018900FM-12+002099999V020999999999999999999999999999+99999+99999999999REMSYN04001027 26/// ///// 11135 21172 333 60005=
0049010270999992016010803004+69650+018900FM-12+002099999V020999999999999999999999999999+99999+99999999999REMSYN04001027 26/// ///// 11130 21162 333 60005=
0049010270999992016010804004+69650+018900FM-12+002099999V020999999999999999999999999999+99999+99999999999REMSYN04001027 26/// ///// 11132 21164 333 60005=
0049010270999992016010805004+69650+018900FM-12+002099999V020999999999999999999999999999+99999+99999999999REMSYN04001027 26/// ///// 11133 21165 333 60005=
0099010270999992016010806004+69650+018900FM-12+002099999V0209999C999999999999N999999999-01321-01611999999ADDAA112000091AA224000091KA1240N-01491REMSYN05201027 16/// ///// 11132 21161 60002 333 21149 70000=
0049010270999992016010807004+69650+018900FM-12+002099999V020999999999999999999999999999+99999+99999999999REMSYN04001027 26/// ///// 11127 21156 333 60005=
0049010270999992016010808004+69650+018900FM-12+002099999V020999999999999999999999999999+99999+99999999999REMSYN04001027 26/// ///// 11129 21153 333 60005=
0049010270999992016010809004+69650+018900FM-12+002099999V020999999999999999999999999999+99999+99999999999REMSYN04001027 26/// ///// 11125 21147 333 60005=
0049010270999992016010810004+69650+018900FM-12+002099999V020999999999999999999999999999+99999+99999999999REMSYN04001027 26/// ///// 11119 21140 333 60005=
0049010270999992016010811004+69650+018900FM-12+002099999V020999999999999999999999999999+99999+99999999999REMSYN04001027 26/// ///// 11108 21128 333 60005=
0059010270999992016010812004+69650+018900FM-12+002099999V0209999C999999999999N999999999-01011-01191999999ADDAA106000091REMSYN03601027 16/// ///// 11101 21119 60001=
0049010270999992016010813004+69650+018900FM-12+002099999V020999999999999999999999999999+99999+99999999999REMSYN04001027 26/// ///// 11094 21110 333 60005=
0049010270999992016010814004+69650+018900FM-12+002099999V020999999999999999999999999999+99999+99999999999REMSYN04001027 26/// ///// 11085 21100 333 60005=
0049010270999992016010815004+69650+018900FM-12+002099999V020999999999999999999999999999+99999+99999999999REMSYN04001027 26/// ///// 11080 21093 333 60005=
0049010270999992016010816004+69650+018900FM-12+002099999V020999999999999999999999999999+99999+99999999999REMSYN04001027 26/// ///// 11080 21094 333 60005=
0049010270999992016010817004+69650+018900FM-12+002099999V020999999999999999999999999999+99999+99999999999REMSYN04001027 26/// ///// 11076 21089 333 60005=
0082010270999992016010818004+69650+018900FM-12+002099999V0209999C999999999999N999999999-00711-00831999999ADDAA112000091KA1120M-00711REMSYN04601027 16/// ///// 11071 21083 60002 333 11071=
0049010270999992016010819004+69650+018900FM-12+002099999V020999999999999999999999999999+99999+99999999999REMSYN04001027 26/// ///// 11068 21079 333 60005=
0049010270999992016010820004+69650+018900FM-12+002099999V020999999999999999999999999999+99999+99999999999REMSYN04001027 26/// ///// 11068 21079 333 60005=
0049010270999992016010821004+69650+018900FM-12+002099999V020999999999999999999999999999+99999+99999999999REMSYN04001027 26/// ///// 11066 21077 333 60005=
0049010270999992016010822004+69650+018900FM-12+002099999V020999999999999999999999999999+99999+99999999999REMSYN04001027 26/// ///// 11061 21071 333 60005=
0049010270999992016010823004+69650+018900FM-12+002099999V020999999999999999999999999999+99999+99999999999REMSYN04001027 26/// ///// 11060 21070 333 60005=
0059010270999992016010900004+69650+018900FM-12+002099999V0209999C999999999999N999999999-00521-00641999999ADDAA106000091REMSYN03601027 16/// ///// 11052 21064 60001=
0049010270999992016010901004+69650+018900FM-12+002099999V020999999999999999999999999999+99999+99999999999REMSYN04001027 26/// ///// 11051 21063 333 60005=
0049010270999992016010902004+69650+018900FM-12+002099999V020999999999999999999999999999+99999+99999999999REMSYN04001027 26/// ///// 11049 21061 333 60005=
0049010270999992016010903004+69650+018900FM-12+002099999V020999999999999999999999999999+99999+99999999999REMSYN04001027 26/// ///// 11045 21058 333 69915=
0049010270999992016010904004+69650+018900FM-12+002099999V020999999999999999999999999999+99999+99999999999REMSYN04001027 26/// ///// 11049 21061 333 69915=
0049010270999992016010905004+69650+018900FM-12+002099999V020999999999999999999999999999+99999+99999999999REMSYN04001027 26/// ///// 11045 21058 333 60005=
0099010270999992016010906004+69650+018900FM-12+002099999V0209999C999999999999N999999999-00441-00561999999ADDAA112000431AA224000431KA1240N-00781REMSYN05201027 16/// ///// 11044 21056 69942 333 21078 70004=
0049010270999992016010907004+69650+018900FM-12+002099999V020999999999999999999999999999+99999+99999999999REMSYN04001027 26/// ///// 11040 21053 333 60005=
0049010270999992016010908004+69650+018900FM-12+002099999V020999999999999999999999999999+99999+99999999999REMSYN04001027 26/// ///// 11040 21054 333 60005=
0049010270999992016010909004+69650+018900FM-12+002099999V020999999999999999999999999999+99999+99999999999REMSYN04001027 26/// ///// 11040 21054 333 69915=
0049010270999992016010910004+69650+018900FM-12+002099999V020999999999999999999999999999+99999+99999999999REMSYN04001027 26/// ///// 11037 21051 333 69915=
0049010270999992016010911004+69650+018900FM-12+002099999V020999999999999999999999999999+99999+99999999999REMSYN04001027 26/// ///// 11038 21053 333 60005=
0059010270999992016010912004+69650+018900FM-12+002099999V0209999C999999999999N999999999-00351-00491999999ADDAA106000531REMSYN03601027 16/// ///// 11035 21049 69951=
0049010270999992016010913004+69650+018900FM-12+002099999V020999999999999999999999999999+99999+99999999999REMSYN04001027 26/// ///// 11034 21050 333 60005=
0049010270999992016010914004+69650+018900FM-12+002099999V020999999999999999999999999999+99999+99999999999REMSYN04001027 26/// ///// 11030 21048 333 69915=
0049010270999992016010915004+69650+018900FM-12+002099999V020999999999999999999999999999+99999+99999999999REMSYN04001027 26/// ///// 11032 21049 333 69915=
0049010270999992016010916004+69650+018900FM-12+002099999V020999999999999999999999999999+99999+99999999999REMSYN04001027 26/// ///// 11028 21048 333 60005=
0049010270999992016010917004+69650+018900FM-12+002099999V020999999999999999999999999999+99999+99999999999REMSYN04001027 26/// ///// 11030 21048 333 69925=
0082010270999992016010918004+69650+018900FM-12+002099999V0209999C999999999999N999999999-00281-00481999999ADDAA112001031KA1120M-00271REMSYN04601027 16/// ///// 11028 21048 60012 333 11027=
0049010270999992016010919004+69650+018900FM-12+002099999V020999999999999999999999999999+99999+99999999999REMSYN04001027 26/// ///// 11024 21048 333 60005=
0049010270999992016010920004+69650+018900FM-12+002099999V020999999999999999999999999999+99999+99999999999REMSYN04001027 26/// ///// 11024 21048 333 60005=
0049010270999992016010921004+69650+018900FM-12+002099999V020999999999999999999999999999+99999+99999999999REMSYN04001027 26/// ///// 11024 21047 333 69915=
0049010270999992016010922004+69650+018900FM-12+002099999V020999999999999999999999999999+99999+99999999999REMSYN04001027 26/// ///// 11022 21046 333 69915=
0049010270999992016010923004+69650+018900FM-12+002099999V020999999999999999999999999999+99999+99999999999REMSYN04001027 26/// ///// 11021 21045 333 69915=
0059010270999992016011000004+69650+018900FM-12+002099999V0209999C999999999999N999999999-00201-00481999999ADDAA106000331REMSYN03601027 16/// ///// 11020 21048 69931=
0049010270999992016011001004+69650+018900FM-12+002099999V020999999999999999999999999999+99999+99999999999REMSYN04001027 26/// ///// 11027 21045 333 69955=
0049010270999992016011002004+69650+018900FM-12+002099999V020999999999999999999999999999+99999+99999999999REMSYN04001027 26/// ///// 11027 21042 333 69935=
0049010270999992016011003004+69650+018900FM-12+002099999V020999999999999999999999999999+99999+99999999999REMSYN04001027 26/// ///// 11024 21041 333 69915=
0049010270999992016011004004+69650+018900FM-12+002099999V020999999999999999999999999999+99999+99999999999REMSYN04001027 26/// ///// 11027 21045 333 69925=
0049010270999992016011005004+69650+018900FM-12+002099999V020999999999999999999999999999+99999+99999999999REMSYN04001027 26/// ///// 11030 21045 333 69925=
0099010270999992016011006004+69650+018900FM-12+002099999V0209999C999999999999N999999999-00331-00441999999ADDAA112002031AA224003531KA1240N-00341REMSYN05201027 16/// ///// 11033 21044 60022 333 21034 70035=
0049010270999992016011007004+69650+018900FM-12+002099999V020999999999999999999999999999+99999+99999999999REMSYN04001027 26/// ///// 11032 21044 333 69945=
0049010270999992016011008004+69650+018900FM-12+002099999V020999999999999999999999999999+99999+99999999999REMSYN04001027 26/// ///// 11031 21043 333 69915=
0049010270999992016011009004+69650+018900FM-12+002099999V020999999999999999999999999999+99999+99999999999REMSYN04001027 26/// ///// 11031 21045 333 69915=
0049010270999992016011010004+69650+018900FM-12+002099999V020999999999999999999999999999+99999+99999999999REMSYN04001027 26/// ///// 11032 21047 333 69915=
0049010270999992016011011004+69650+018900FM-12+002099999V020999999999999999999999999999+99999+99999999999REMSYN04001027 26/// ///// 11033 21049 333 69925=
0059010270999992016011012004+69650+018900FM-12+002099999V0209999C999999999999N999999999-00331-00481999999ADDAA106001031REMSYN03601027 16/// ///// 11033 21048 60011=
0049010270999992016011013004+69650+018900FM-12+002099999V020999999999999999999999999999+99999+99999999999REMSYN04001027 26/// ///// 11031 21049 333 60005=
0049010270999992016011014004+69650+018900FM-12+002099999V020999999999999999999999999999+99999+99999999999REMSYN04001027 26/// ///// 11029 21055 333 60005=
0049010270999992016011015004+69650+018900FM-12+002099999V020999999999999999999999999999+99999+99999999999REMSYN04001027 26/// ///// 11033 21060 333 60005=
0049010270999992016011016004+69650+018900FM-12+002099999V020999999999999999999999999999+99999+99999999999REMSYN04001027 26/// ///// 11032 21060 333 60005=
0049010270999992016011017004+69650+018900FM-12+002099999V020999999999999999999999999999+99999+99999999999REMSYN04001027 26/// ///// 11029 21058 333 60005=
0082010270999992016011018004+69650+018900FM-12+002099999V0209999C999999999999N999999999-00301-00601999999ADDAA112001031KA1120M-00281REMSYN04601027 16/// ///// 11030 21060 60012 333 11028=
0049010270999992016011019004+69650+018900FM-12+002099999V020999999999999999999999999999+99999+99999999999REMSYN04001027 26/// ///// 11044 21069 333 60005=
0049010270999992016011020004+69650+018900FM-12+002099999V020999999999999999999999999999+99999+99999999999REMSYN04001027 26/// ///// 11050 21068 333 60005=
0049010270999992016011021004+69650+018900FM-12+002099999V020999999999999999999999999999+99999+99999999999REMSYN04001027 26/// ///// 11060 21076 333 60005=
0049010270999992016011022004+69650+018900FM-12+002099999V020999999999999999999999999999+99999+99999999999REMSYN04001027 26/// ///// 11053 21068 333 60005=
0049010270999992016011023004+69650+018900FM-12+002099999V020999999999999999999999999999+99999+99999999999REMSYN04001027 26/// ///// 11052 21066 333 60005=
0059010270999992016011100004+69650+018900FM-12+002099999V0209999C999999999999N999999999-00511-00651999999ADDAA106000091REMSYN03601027 16/// ///// 11051 21065 60001=
0049010270999992016011101004+69650+018900FM-12+002099999V020999999999999999999999999999+99999+99999999999REMSYN04001027 26/// ///// 11047 21061 333 60005=
0049010270999992016011102004+69650+018900FM-12+002099999V020999999999999999999999999999+99999+99999999999REMSYN04001027 26/// ///// 11050 21064 333 60005=
0049010270999992016011103004+69650+018900FM-12+002099999V020999999999999999999999999999+99999+99999999999REMSYN04001027 26/// ///// 11068 21081 333 60005=
0049010270999992016011104004+69650+018900FM-12+002099999V020999999999999999999999999999+99999+99999999999REMSYN04001027 26/// ///// 11070 21082 333 60005=
0049010270999992016011105004+69650+018900FM-12+002099999V020999999999999999999999999999+99999+99999999999REMSYN04001027 26/// ///// 11067 21079 333 60005=
0099010270999992016011106004+69650+018900FM-12+002099999V0209999C999999999999N999999999-00681-00821999999ADDAA112000091AA224001031KA1240N-00741REMSYN05201027 16/// ///// 11068 21082 60002 333 21074 70010=
0049010270999992016011107004+69650+018900FM-12+002099999V020999999999999999999999999999+99999+99999999999REMSYN04001027 26/// ///// 11073 21088 333 60005=
0049010270999992016011108004+69650+018900FM-12+002099999V020999999999999999999999999999+99999+99999999999REMSYN04001027 26/// ///// 11069 21090 333 60005=
0049010270999992016011109004+69650+018900FM-12+002099999V020999999999999999999999999999+99999+99999999999REMSYN04001027 26/// ///// 11072 21099 333 60005=
0049010270999992016011110004+69650+018900FM-12+002099999V020999999999999999999999999999+99999+99999999999REMSYN04001027 26/// ///// 11071 21095 333 60005=
0049010270999992016011111004+69650+018900FM-12+002099999V020999999999999999999999999999+99999+99999999999REMSYN04001027 26/// ///// 11056 21104 333 60005=
0059010270999992016011112004+69650+018900FM-12+002099999V0209999C999999999999N999999999-00551-01101999999ADDAA106000091REMSYN03601027 16/// ///// 11055 21110 60001=
0049010270999992016011113004+69650+018900FM-12+002099999V020999999999999999999999999999+99999+99999999999REMSYN04001027 26/// ///// 11057 21117 333 60005=
0049010270999992016011114004+69650+018900FM-12+002099999V020999999999999999999999999999+99999+99999999999REMSYN04001027 26/// ///// 11062 21121 333 60005=
0049010270999992016011115004+69650+018900FM-12+002099999V020999999999999999999999999999+99999+99999999999REMSYN04001027 26/// ///// 11064 21122 333 60005=
0049010270999992016011116004+69650+018900FM-12+002099999V020999999999999999999999999999+99999+99999999999REMSYN04001027 26/// ///// 11069 21122 333 60005=
0049010270999992016011117004+69650+018900FM-12+002099999V020999999999999999999999999999+99999+99999999999REMSYN04001027 26/// ///// 11082 21125 333 60005=
0082010270999992016011118004+69650+018900FM-12+002099999V0209999C999999999999N999999999-00761-01301999999ADDAA112000091KA1120M-00541REMSYN04601027 16/// ///// 11076 21130 60002 333 11054=
0049010270999992016011119004+69650+018900FM-12+002099999V020999999999999999999999999999+99999+99999999999REMSYN04001027 26/// ///// 11084 21133 333 60005=
0049010270999992016011120004+69650+018900FM-12+002099999V020999999999999999999999999999+99999+99999999999REMSYN04001027 26/// ///// 11086 21138 333 60005=
0049010270999992016011121004+69650+018900FM-12+002099999V020999999999999999999999999999+99999+99999999999REMSYN04001027 26/// ///// 11078 21130 333 60005=
0049010270999992016011122004+69650+018900FM-12+002099999V020999999999999999999999999999+99999+99999999999REMSYN04001027 26/// ///// 11083 21131 333 60005=
0049010270999992016011123004+69650+018900FM-12+002099999V020999999999999999999999999999+99999+99999999999REMSYN04001027 26/// ///// 11093 21133 333 60005=
0059010270999992016011200004+69650+018900FM-12+002099999V0209999C999999999999N999999999-00841-01301999999ADDAA106000091REMSYN03601027 16/// ///// 11084 21130 60001=
0049010270999992016011201004+69650+018900FM-12+002099999V020999999999999999999999999999+99999+99999999999REMSYN04001027 26/// ///// 11085 21133 333 60005=
0049010270999992016011202004+69650+018900FM-12+002099999V020999999999999999999999999999+99999+99999999999REMSYN04001027 26/// ///// 11082 21119 333 60005=
0049010270999992016011203004+69650+018900FM-12+002099999V020999999999999999999999999999+99999+99999999999REMSYN04001027 26/// ///// 11079 21116 333 60005=
0049010270999992016011204004+69650+018900FM-12+002099999V020999999999999999999999999999+99999+99999999999REMSYN04001027 26/// ///// 11090 21146 333 60005=
0049010270999992016011205004+69650+018900FM-12+002099999V020999999999999999999999999999+99999+99999999999REMSYN04001027 26/// ///// 11083 21152 333 60005=
0099010270999992016011206004+69650+018900FM-12+002099999V0209999C999999999999N999999999-00891-01561999999ADDAA112000091AA224000091KA1240N-00971REMSYN05201027 16/// ///// 11089 21156 60002 333 21097 70000=
0049010270999992016011207004+69650+018900FM-12+002099999V020999999999999999999999999999+99999+99999999999REMSYN04001027 26/// ///// 11078 21158 333 60005=
0049010270999992016011208004+69650+018900FM-12+002099999V020999999999999999999999999999+99999+99999999999REMSYN04001027 26/// ///// 11075 21157 333 60005=
0053010270999992016011209004+69652+018906FM-12+002099999V020999999999999999999999999999-00801-01571999999ADDAA101999999KA1010M-00681KA2010N-00911REMSYN004BUFR
0049010270999992016011210004+69650+018900FM-12+002099999V020999999999999999999999999999+99999+99999999999REMSYN04001027 26/// ///// 11067 21143 333 60005=
0049010270999992016011211004+69650+018900FM-12+002099999V020999999999999999999999999999+99999+99999999999REMSYN04001027 26/// ///// 11065 21141 333 60005=
0059010270999992016011212004+69650+018900FM-12+002099999V0209999C999999999999N999999999-00791-01441999999ADDAA106000091REMSYN03601027 16/// ///// 11079 21144 60001=
0049010270999992016011213004+69650+018900FM-12+002099999V020999999999999999999999999999+99999+99999999999REMSYN04001027 26/// ///// 11069 21147 333 60005=
0049010270999992016011214004+69650+018900FM-12+002099999V020999999999999999999999999999+99999+99999999999REMSYN04001027 26/// ///// 11081 21152 333 60005=
0049010270999992016011215004+69650+018900FM-12+002099999V020999999999999999999999999999+99999+99999999999REMSYN04001027 26/// ///// 11083 21134 333 60005=
0053010270999992016011216004+69652+018906FM-12+002099999V020999999999999999999999999999-00821-01571999999ADDAA101999999KA1010M-00751KA2010N-00871REMSYN004BUFR
0053010270999992016011217004+69652+018906FM-12+002099999V020999999999999999999999999999-00801-01371999999ADDAA101999999KA1010M-00681KA2010N-00901REMSYN004BUFR
0064010270999992016011218004+69652+018906FM-12+002099999V020999999999999999999999999999-00871-01671999999ADDAA101999999AA212999999KA1120M-00621KA2120N-00911REMSYN004BUFR
0053010270999992016011219004+69652+018906FM-12+002099999V020999999999999999999999999999-00901-01381999999ADDAA101999999KA1010M-00821KA2010N-00921REMSYN004BUFR
0053010270999992016011220004+69652+018906FM-12+002099999V020999999999999999999999999999-00801-01451999999ADDAA101999999KA1010M-00711KA2010N-00911REMSYN004BUFR
0053010270999992016011221004+69652+018906FM-12+002099999V020999999999999999999999999999-01001-01741999999ADDAA101999999KA1010M-00741KA2010N-01011REMSYN004BUFR
0049010270999992016011222004+69650+018900FM-12+002099999V020999999999999999999999999999+99999+99999999999REMSYN04001027 26/// ///// 11099 21143 333 60005=
0053010270999992016011223004+69652+018906FM-12+002099999V020999999999999999999999999999-00951-01541999999ADDAA101999999KA1010M-00921KA2010N-01041REMSYN004BUFR
0064010270999992016011300004+69652+018906FM-12+002099999V020999999999999999999999999999-00951-01451999999ADDAA101999999AA206999999KA1010M-00931KA2010N-01021REMSYN004BUFR
0053010270999992016011301004+69652+018906FM-12+002099999V020999999999999999999999999999-00951-01541999999ADDAA101999999KA1010M-00951KA2010N-01021REMSYN004BUFR
0053010270999992016011302004+69652+018906FM-12+002099999V020999999999999999999999999999-01001-01481999999ADDAA101999999KA1010M-00961KA2010N-01021REMSYN004BUFR
0053010270999992016011303004+69652+018906FM-12+002099999V020999999999999999999999999999-00971-01441999999ADDAA101999999KA1010M-00961KA2010N-01061REMSYN004BUFR
0053010270999992016011304004+69652+018906FM-12+002099999V020999999999999999999999999999-00971-01481999999ADDAA101999999KA1010M-00951KA2010N-00991REMSYN004BUFR
0053010270999992016011305004+69652+018906FM-12+002099999V020999999999999999999999999999-01051-01631999999ADDAA101999999KA1010M-00931KA2010N-01051REMSYN004BUFR
0087010270999992016011306004+69652+018906FM-12+002099999V020999999999999999999999999999-01071-01581999999ADDAA101999999AA212999999AA324999999IA2999-00279KA1120M-00711KA2120N-01081REMSYN004BUFR
0053010270999992016011307004+69652+018906FM-12+002099999V020999999999999999999999999999-01001-01401999999ADDAA101999999KA1010M-01001KA2010N-01081REMSYN004BUFR
0053010270999992016011308004+69652+018906FM-12+002099999V020999999999999999999999999999-00921-01281999999ADDAA101999999KA1010M-00851KA2010N-01011REMSYN004BUFR
0049010270999992016011309004+69650+018900FM-12+002099999V020999999999999999999999999999+99999+99999999999REMSYN04001027 26/// ///// 11105 21136 333 60005=
0053010270999992016011310004+69652+018906FM-12+002099999V020999999999999999999999999999-01091-01431999999ADDAA101999999KA1010M-01001KA2010N-01121REMSYN004BUFR
0053010270999992016011311004+69652+018906FM-12+002099999V020999999999999999999999999999-01071-01431999999ADDAA101999999KA1010M-01011KA2010N-01101REMSYN004BUFR
0059010270999992016011312004+69650+018900FM-12+002099999V0209999C999999999999N999999999-01151-01471999999ADDAA106000091REMSYN03601027 16/// ///// 11115 21147 60001=
0053010270999992016011313004+69652+018906FM-12+002099999V020999999999999999999999999999-01051-01371999999ADDAA101999999KA1010M-00981KA2010N-01151REMSYN004BUFR
0049010270999992016011314004+69650+018900FM-12+002099999V020999999999999999999999999999+99999+99999999999REMSYN04001027 26/// ///// 11109 21145 333 60005=
0053010270999992016011315004+69652+018906FM-12+002099999V020999999999999999999999999999-01101-01411999999ADDAA101999999KA1010M-01091KA2010N-01161REMSYN004BUFR
0053010270999992016011316004+69652+018906FM-12+002099999V020999999999999999999999999999-01171-01491999999ADDAA101999999KA1010M-01071KA2010N-01181REMSYN004BUFR
0049010270999992016011317004+69650+018900FM-12+002099999V020999999999999999999999999999+99999+99999999999REMSYN04001027 26/// ///// 11103 21132 333 60005=
0064010270999992016011318004+69652+018906FM-12+002099999V020999999999999999999999999999-01121-01411999999ADDAA101999999AA212999999KA1120M-00851KA2120N-01181REMSYN004BUFR
0053010270999992016011319004+69652+018906FM-12+002099999V020999999999999999999999999999-01101-01451999999ADDAA101999999KA1010M-01001KA2010N-01151REMSYN004BUFR
0053010270999992016011320004+69652+018906FM-12+002099999V020999999999999999999999999999-01091-01381999999ADDAA101999999KA1010M-01031KA2010N-01171REMSYN004BUFR
0053010270999992016011321004+69652+018906FM-12+002099999V020999999999999999999999999999-01051-01301999999ADDAA101999999KA1010M-01051KA2010N-01121REMSYN004BUFR
0049010270999992016011322004+69650+018900FM-12+002099999V020999999999999999999999999999+99999+99999999999REMSYN04001027 26/// ///// 11111 21135 333 60005=
0049010270999992016011323004+69650+018900FM-12+002099999V020999999999999999999999999999+99999+99999999999REMSYN04001027 26/// ///// 11114 21136 333 60005=
0064010270999992016011400004+69652+018906FM-12+002099999V020999999999999999999999999999-01121-01341999999ADDAA101999999AA206999999KA1010M-01071KA2010N-01151REMSYN004BUFR
0053010270999992016011401004+69652+018906FM-12+002099999V020999999999999999999999999999-01071-01271999999ADDAA101999999KA1010M-01021KA2010N-01171REMSYN004BUFR
0053010270999992016011402004+69652+018906FM-12+002099999V020999999999999999999999999999-01071-01271999999ADDAA101999999KA1010M-01041KA2010N-01111REMSYN004BUFR
0053010270999992016011403004+69652+018906FM-12+002099999V020999999999999999999999999999-01101-01281999999ADDAA101999999KA1010M-01021KA2010N-01121REMSYN004BUFR
0053010270999992016011404004+69652+018906FM-12+002099999V020999999999999999999999999999-01121-01301999999ADDAA101999999KA1010M-01041KA2010N-01141REMSYN004BUFR
0053010270999992016011405004+69652+018906FM-12+002099999V020999999999999999999999999999-01091-01261999999ADDAA101999999KA1010M-01081KA2010N-01171REMSYN004BUFR
0087010270999992016011406004+69652+018906FM-12+002099999V020999999999999999999999999999-01101-01291999999ADDAA101999999AA212999999AA324999999IA2999-00299KA1120M-01001KA2120N-01171REMSYN004BUFR
0053010270999992016011407004+69652+018906FM-12+002099999V020999999999999999999999999999-01071-01261999999ADDAA101999999KA1010M-01061KA2010N-01221REMSYN004BUFR
0053010270999992016011408004+69652+018906FM-12+002099999V020999999999999999999999999999-01051-01261999999ADDAA101999999KA1010M-01051KA2010N-01141REMSYN004BUFR
0053010270999992016011409004+69652+018906FM-12+002099999V020999999999999999999999999999-01051-01241999999ADDAA101999999KA1010M-01051KA2010N-01141REMSYN004BUFR
0053010270999992016011410004+69652+018906FM-12+002099999V020999999999999999999999999999-00941-01131999999ADDAA101999999KA1010M-00941KA2010N-01061REMSYN004BUFR
0049010270999992016011411004+69650+018900FM-12+002099999V020999999999999999999999999999+99999+99999999999REMSYN04001027 26/// ///// 11079 21101 333 60005=
0064010270999992016011412004+69652+018906FM-12+002099999V020999999999999999999999999999-00771-01021999999ADDAA101999999AA206999999KA1010M-00761KA2010N-00791REMSYN004BUFR
0053010270999992016011413004+69652+018906FM-12+002099999V020999999999999999999999999999-00791-01021999999ADDAA101999999KA1010M-00761KA2010N-00831REMSYN004BUFR
0049010270999992016011414004+69650+018900FM-12+002099999V020999999999999999999999999999+99999+99999999999REMSYN04001027 26/// ///// 11079 21106 333 60005=
0053010270999992016011415004+69652+018906FM-12+002099999V020999999999999999999999999999-00751-01061999999ADDAA101999999KA1010M-00731KA2010N-00791REMSYN004BUFR
0053010270999992016011416004+69652+018906FM-12+002099999V020999999999999999999999999999-00751-01031999999ADDAA101999999KA1010M-00741KA2010N-00781REMSYN004BUFR
0053010270999992016011417004+69652+018906FM-12+002099999V020999999999999999999999999999-00671-01021999999ADDAA101999999KA1010M-00681KA2010N-00751REMSYN004BUFR
0064010270999992016011418004+69652+018906FM-12+002099999V020999999999999999999999999999-00671-01081999999ADDAA101999999AA212999999KA1120M-00671KA2120N-01221REMSYN004BUFR
0053010270999992016011419004+69652+018906FM-12+002099999V020999999999999999999999999999-00621-01031999999ADDAA101999999KA1010M-00621KA2010N-00671REMSYN004BUFR
0053010270999992016011420004+69652+018906FM-12+002099999V020999999999999999999999999999-00651-00951999999ADDAA101999999KA1010M-00621KA2010N-00651REMSYN004BUFR
0053010270999992016011421004+69652+018906FM-12+002099999V020999999999999999999999999999-00621-00901999999ADDAA101999999KA1010M-00631KA2010N-00681REMSYN004BUFR
0053010270999992016011422004+69652+018906FM-12+002099999V020999999999999999999999999999-00651-01011999999ADDAA101999999KA1010M-00621KA2010N-00661REMSYN004BUFR
0053010270999992016011423004+69652+018906FM-12+002099999V020999999999999999999999999999-00841-01111999999ADDAA101999999KA1010M-00661KA2010N-00841REMSYN004BUFR
0064010270999992016011500004+69652+018906FM-12+002099999V020999999999999999999999999999-00901-01131999999ADDAA101999999AA206999999KA1010M-00841KA2010N-00901REMSYN004BUFR
0049010270999992016011501004+69650+018900FM-12+002099999V020999999999999999999999999999+99999+99999999999REMSYN04001027 26/// ///// 11091 21111 333 60005=
0053010270999992016011502004+69652+018906FM-12+002099999V020999999999999999999999999999-00891-01071999999ADDAA101999999KA1010M-00831KA2010N-00921REMSYN004BUFR
0053010270999992016011503004+69652+018906FM-12+002099999V020999999999999999999999999999-00821-01001999999ADDAA101999999KA1010M-00801KA2010N-00891REMSYN004BUFR
0053010270999992016011504004+69652+018906FM-12+002099999V020999999999999999999999999999-00841-01021999999ADDAA101999999KA1010M-00741KA2010N-00881REMSYN004BUFR
0053010270999992016011505004+69652+018906FM-12+002099999V020999999999999999999999999999-00721-00871999999ADDAA101999999KA1010M-00731KA2010N-00841REMSYN004BUFR
0087010270999992016011506004+69652+018906FM-12+002099999V020999999999999999999999999999-00621-00761999999ADDAA101999999AA212999999AA324999999IA2999-00259KA1120M-00621KA2120N-00931REMSYN004BUFR
0049010270999992016011507004+69650+018900FM-12+002099999V020999999999999999999999999999+99999+99999999999REMSYN04001027 26/// ///// 11066 21079 333 60005=
0049010270999992016011508004+69650+018900FM-12+002099999V020999999999999999999999999999+99999+99999999999REMSYN04001027 26/// ///// 11050 21062 333 69925=
0049010270999992016011509004+69650+018900FM-12+002099999V020999999999999999999999999999+99999+99999999999REMSYN04001027 26/// ///// 11049 21061 333 69965=
0053010270999992016011510004+69652+018906FM-12+002099999V020999999999999999999999999999-00471-00591999999ADDAA101999999KA1010M-00471KA2010N-00491REMSYN004BUFR
0053010270999992016011511004+69652+018906FM-12+002099999V020999999999999999999999999999-00501-00601999999ADDAA101999999KA1010M-00481KA2010N-00531REMSYN004BUFR
0064010270999992016011512004+69652+018906FM-12+002099999V020999999999999999999999999999-00441-00541999999ADDAA101999999AA206001631KA1010M-00441KA2010N-00501REMSYN004BUFR
0053010270999992016011513004+69652+018906FM-12+002099999V020999999999999999999999999999-00451-00551999999ADDAA101999999KA1010M-00431KA2010N-00461REMSYN004BUFR
0053010270999992016011514004+69652+018906FM-12+002099999V020999999999999999999999999999-00491-00591999999ADDAA101999999KA1010M-00431KA2010N-00501REMSYN004BUFR
0053010270999992016011515004+69652+018906FM-12+002099999V020999999999999999999999999999-00491-00591999999ADDAA101999999KA1010M-00471KA2010N-00491REMSYN004BUFR
0053010270999992016011516004+69652+018906FM-12+002099999V020999999999999999999999999999-00471-00581999999ADDAA101999999KA1010M-00451KA2010N-00491REMSYN004BUFR
0053010270999992016011517004+69652+018906FM-12+002099999V020999999999999999999999999999-00401-00511999999ADDAA101999999KA1010M-00381KA2010N-00491REMSYN004BUFR
0082010270999992016011518004+69650+018900FM-12+002099999V0209999C999999999999N999999999-00381-00471999999ADDAA112002031KA1120M-00381REMSYN04601027 16/// ///// 11038 21047 60022 333 11038=
0049010270999992016011519004+69650+018900FM-12+002099999V020999999999999999999999999999+99999+99999999999REMSYN04001027 26/// ///// 11049 21059 333 60005=
0049010270999992016011520004+69650+018900FM-12+002099999V020999999999999999999999999999+99999+99999999999REMSYN04001027 26/// ///// 11043 21053 333 69915=
0053010270999992016011521004+69652+018906FM-12+002099999V020999999999999999999999999999-00241-00381999999ADDAA101999999KA1010M-00221KA2010N-00431REMSYN004BUFR
0053010270999992016011522004+69652+018906FM-12+002099999V020999999999999999999999999999-00341-00461999999ADDAA101999999KA1010M-00221KA2010N-00341REMSYN004BUFR
0053010270999992016011523004+69652+018906FM-12+002099999V020999999999999999999999999999-00191-00321999999ADDAA101999999KA1010M-00191KA2010N-00381REMSYN004BUFR
0064010270999992016011600004+69652+018906FM-12+002099999V020999999999999999999999999999-00201-00351999999ADDAA101999999AA206001031KA1010M-00191KA2010N-00321REMSYN004BUFR
0053010270999992016011601004+69652+018906FM-12+002099999V020999999999999999999999999999-00451-00581999999ADDAA101999999KA1010M-00211KA2010N-00481REMSYN004BUFR
0053010270999992016011602004+69652+018906FM-12+002099999V020999999999999999999999999999-00351-00511999999ADDAA101999999KA1010M-00271KA2010N-00491REMSYN004BUFR
0049010270999992016011603004+69650+018900FM-12+002099999V020999999999999999999999999999+99999+99999999999REMSYN04001027 26/// ///// 11019 21035 333 60005=
0053010270999992016011604004+69652+018906FM-12+002099999V020999999999999999999999999999-00251-00401999999ADDAA101999999KA1010M-00181KA2010N-00381REMSYN004BUFR
0053010270999992016011605004+69652+018906FM-12+002099999V020999999999999999999999999999-00221-00441999999ADDAA101999999KA1010M-00131KA2010N-00291REMSYN004BUFR
0087010270999992016011606004+69652+018906FM-12+002099999V020999999999999999999999999999-00171-00451999999ADDAA101999999AA212001031AA324002631IA2999-00169KA1120M-00131KA2120N-00501REMSYN004BUFR
0049010270999992016011607004+69650+018900FM-12+002099999V020999999999999999999999999999+99999+99999999999REMSYN04001027 26/// ///// 11021 21062 333 60005=
0053010270999992016011608004+69652+018906FM-12+002099999V020999999999999999999999999999-00151-00531999999ADDAA101999999KA1010M-00161KA2010N-00241REMSYN004BUFR
0053010270999992016011609004+69652+018906FM-12+002099999V020999999999999999999999999999-00121-00391999999ADDAA101999999KA1010M-00101KA2010N-00181REMSYN004BUFR
0053010270999992016011610004+69652+018906FM-12+002099999V020999999999999999999999999999-00151-00541999999ADDAA101999999KA1010M-00121KA2010N-00281REMSYN004BUFR
0053010270999992016011611004+69652+018906FM-12+002099999V020999999999999999999999999999-00071-00501999999ADDAA101999999KA1010M-00071KA2010N-00181REMSYN004BUFR
0064010270999992016011612004+69652+018906FM-12+002099999V020999999999999999999999999999-00101-00371999999ADDAA101999999AA206999999KA1010M-00071KA2010N-00131REMSYN004BUFR
0053010270999992016011613004+69652+018906FM-12+002099999V020999999999999999999999999999-00101-00351999999ADDAA101999999KA1010M-00041KA2010N-00141REMSYN004BUFR
0049010270999992016011614004+69650+018900FM-12+002099999V020999999999999999999999999999+99999+99999999999REMSYN04001027 26/// ///// 11029 21049 333 60005=
0053010270999992016011615004+69652+018906FM-12+002099999V020999999999999999999999999999-00101-00411999999ADDAA101999999KA1010M-00081KA2010N-00311REMSYN004BUFR
0053010270999992016011616004+69652+018906FM-12+002099999V020999999999999999999999999999-00251-00441999999ADDAA101999999KA1010M-00111KA2010N-00261REMSYN004BUFR
0049010270999992016011617004+69650+018900FM-12+002099999V020999999999999999999999999999+99999+99999999999REMSYN04001027 26/// ///// 11021 21040 333 60005=
0064010270999992016011618004+69652+018906FM-12+002099999V020999999999999999999999999999-00271-00471999999ADDAA101999999AA212999999KA1120M-00041KA2120N-00351REMSYN004BUFR
0053010270999992016011619004+69652+018906FM-12+002099999V020999999999999999999999999999-00151-00371999999ADDAA101999999KA1010M-00141KA2010N-00271REMSYN004BUFR
0053010270999992016011620004+69652+018906FM-12+002099999V020999999999999999999999999999-00201-00431999999ADDAA101999999KA1010M-00151KA2010N-00291REMSYN004BUFR
0053010270999992016011621004+69652+018906FM-12+002099999V020999999999999999999999999999-00221-00391999999ADDAA101999999KA1010M-00141KA2010N-00271REMSYN004BUFR
0053010270999992016011622004+69652+018906FM-12+002099999V020999999999999999999999999999-00101-00301999999ADDAA101999999KA1010M-00111KA2010N-00281REMSYN004BUFR
0053010270999992016011623004+69652+018906FM-12+002099999V020999999999999999999999999999-00141-00351999999ADDAA101999999KA1010M-00101KA2010N-00171REMSYN004BUFR
0064010270999992016011700004+69652+018906FM-12+002099999V020999999999999999999999999999-00051-00311999999ADDAA101999999AA206000231KA1010M-00051KA2010N-00211REMSYN004BUFR
0053010270999992016011701004+69652+018906FM-12+002099999V020999999999999999999999999999-00051-00421999999ADDAA101999999KA1010M-00041KA2010N-00241REMSYN004BUFR
0053010270999992016011702004+69652+018906FM-12+002099999V020999999999999999999999999999-00021-00411999999ADDAA101999999KA1010M-00011KA2010N-00101REMSYN004BUFR
0053010270999992016011703004+69652+018906FM-12+002099999V020999999999999999999999999999+00001-00411999999ADDAA101999999KA1010M+00021KA2010N-00091REMSYN004BUFR
0053010270999992016011704004+69652+018906FM-12+002099999V020999999999999999999999999999-00021-00381999999ADDAA101999999KA1010M+00021KA2010N-00071REMSYN004BUFR
0049010270999992016011705004+69650+018900FM-12+002099999V020999999999999999999999999999+99999+99999999999REMSYN04001027 26/// ///// 10004 21050 333 60005=
0087010270999992016011706004+69652+018906FM-12+002099999V020999999999999999999999999999-00071-00281999999ADDAA101999999AA212000231AA324000231IA2999-00109KA1120M+00111KA2120N-00291REMSYN004BUFR
0053010270999992016011707004+69652+018906FM-12+002099999V020999999999999999999999999999-00051-00241999999ADDAA101999999KA1010M-00041KA2010N-00071REMSYN004BUFR
0049010270999992016011708004+69650+018900FM-12+002099999V020999999999999999999999999999+99999+99999999999REMSYN04001027 26/// ///// 11006 21021 333 69925=
0053010270999992016011709004+69652+018906FM-12+002099999V020999999999999999999999999999-00071-00181999999ADDAA101999999KA1010M-00051KA2010N-00101REMSYN004BUFR
0053010270999992016011710004+69652+018906FM-12+002099999V020999999999999999999999999999-00101-00231999999ADDAA101999999KA1010M-00071KA2010N-00121REMSYN004BUFR
0053010270999992016011711004+69652+018906FM-12+002099999V020999999999999999999999999999-00221-00371999999ADDAA101999999KA1010M-00091KA2010N-00231REMSYN004BUFR
0064010270999992016011712004+69652+018906FM-12+002099999V020999999999999999999999999999-00151-00311999999ADDAA101999999AA206000731KA1010M-00121KA2010N-00241REMSYN004BUFR
0053010270999992016011713004+69652+018906FM-12+002099999V020999999999999999999999999999-00151-00401999999ADDAA101999999KA1010M-00111KA2010N-00161REMSYN004BUFR
0049010270999992016011714004+69650+018900FM-12+002099999V020999999999999999999999999999+99999+99999999999REMSYN04001027 26/// ///// 11020 21041 333 60005=
0053010270999992016011715004+69652+018906FM-12+002099999V020999999999999999999999999999-00221-00441999999ADDAA101999999KA1010M-00201KA2010N-00241REMSYN004BUFR
0053010270999992016011716004+69652+018906FM-12+002099999V020999999999999999999999999999-00351-00521999999ADDAA101999999KA1010M-00221KA2010N-00361REMSYN004BUFR
0053010270999992016011717004+69652+018906FM-12+002099999V020999999999999999999999999999-00421-00651999999ADDAA101999999KA1010M-00361KA2010N-00441REMSYN004BUFR
0064010270999992016011718004+69652+018906FM-12+002099999V020999999999999999999999999999-00521-00851999999ADDAA101999999AA212000931KA1120M-00041KA2120N-00521REMSYN004BUFR
0049010270999992016011719004+69650+018900FM-12+002099999V020999999999999999999999999999+99999+99999999999REMSYN04001027 26/// ///// 11056 21095 333 60005=
0049010270999992016011720004+69650+018900FM-12+002099999V020999999999999999999999999999+99999+99999999999REMSYN04001027 26/// ///// 11058 21100 333 60005=
0053010270999992016011721004+69652+018906FM-12+002099999V020999999999999999999999999999-00621-01071999999ADDAA101999999KA1010M-00571KA2010N-00621REMSYN004BUFR
0049010270999992016011722004+69650+018900FM-12+002099999V020999999999999999999999999999+99999+99999999999REMSYN04001027 26/// ///// 11067 21113 333 60005=
0053010270999992016011723004+69652+018906FM-12+002099999V020999999999999999999999999999-00751-01351999999ADDAA101999999KA1010M-00671KA2010N-00771REMSYN004BUFR
0064010270999992016011800004+69652+018906FM-12+002099999V020999999999999999999999999999-00791-01381999999ADDAA101999999AA206999999KA1010M-00741KA2010N-00811REMSYN004BUFR
0049010270999992016011801004+69650+018900FM-12+002099999V020999999999999999999999999999+99999+99999999999REMSYN04001027 26/// ///// 11083 21147 333 60005=
0049010270999992016011802004+69650+018900FM-12+002099999V020999999999999999999999999999+99999+99999999999REMSYN04001027 26/// ///// 11081 21148 333 60005=
0053010270999992016011803004+69652+018906FM-12+002099999V020999999999999999999999999999-00841-01451999999ADDAA101999999KA1010M-00811KA2010N-00851REMSYN004BUFR
0053010270999992016011804004+69652+018906FM-12+002099999V020999999999999999999999999999-00891-01491999999ADDAA101999999KA1010M-00841KA2010N-00911REMSYN004BUFR
0053010270999992016011805004+69652+018906FM-12+002099999V020999999999999999999999999999-00901-01501999999ADDAA101999999KA1010M-00891KA2010N-00931REMSYN004BUFR
0087010270999992016011806004+69652+018906FM-12+002099999V020999999999999999999999999999-00951-01531999999ADDAA101999999AA212999999AA324000931IA2999-00099KA1120M-00511KA2120N-00951REMSYN004BUFR
0053010270999992016011807004+69652+018906FM-12+002099999V020999999999999999999999999999-00921-01531999999ADDAA101999999KA1010M-00901KA2010N-00951REMSYN004BUFR
0053010270999992016011808004+69652+018906FM-12+002099999V020999999999999999999999999999-00941-01521999999ADDAA101999999KA1010M-00911KA2010N-00961REMSYN004BUFR
0053010270999992016011809004+69652+018906FM-12+002099999V020999999999999999999999999999-00901-01601999999ADDAA101999999KA1010M-00911KA2010N-00971REMSYN004BUFR
0053010270999992016011810004+69652+018906FM-12+002099999V020999999999999999999999999999-00891-01631999999ADDAA101999999KA1010M-00881KA2010N-00931REMSYN004BUFR
0049010270999992016011811004+69650+018900FM-12+002099999V020999999999999999999999999999+99999+99999999999REMSYN04001027 26/// ///// 11088 21161 333 60005=
0059010270999992016011812004+69650+018900FM-12+002099999V0209999C999999999999N999999999-00871-01561999999ADDAA106000091REMSYN03601027 16/// ///// 11087 21156 60001=
0049010270999992016011813004+69650+018900FM-12+002099999V020999999999999999999999999999+99999+99999999999REMSYN04001027 26/// ///// 11090 21155 333 60005=
0049010270999992016011814004+69650+018900FM-12+002099999V020999999999999999999999999999+99999+99999999999REMSYN04001027 26/// ///// 11092 21152 333 60005=
0053010270999992016011815004+69652+018906FM-12+002099999V020999999999999999999999999999-00821-01561999999ADDAA101999999KA1010M-00821KA2010N-00931REMSYN004BUFR
0053010270999992016011816004+69652+018906FM-12+002099999V020999999999999999999999999999-00851-01501999999ADDAA101999999KA1010M-00811KA2010N-00851REMSYN004BUFR
0049010270999992016011817004+69650+018900FM-12+002099999V020999999999999999999999999999+99999+99999999999REMSYN04001027 26/// ///// 11092 21151 333 60005=
0064010270999992016011818004+69652+018906FM-12+002099999V020999999999999999999999999999-00871-01451999999ADDAA101999999AA212999999KA1120M-00811KA2120N-00971REMSYN004BUFR
0053010270999992016011819004+69652+018906FM-12+002099999V020999999999999999999999999999-00921-01471999999ADDAA101999999KA1010M-00881KA2010N-00941REMSYN004BUFR
0053010270999992016011820004+69652+018906FM-12+002099999V020999999999999999999999999999-00971-01441999999ADDAA101999999KA1010M-00931KA2010N-01001REMSYN004BUFR
0053010270999992016011821004+69652+018906FM-12+002099999V020999999999999999999999999999-01091-01601999999ADDAA101999999KA1010M-00961KA2010N-01091REMSYN004BUFR
0049010270999992016011822004+69650+018900FM-12+002099999V020999999999999999999999999999+99999+99999999999REMSYN04001027 26/// ///// 11115 21166 333 60005=
0053010270999992016011823004+69652+018906FM-12+002099999V020999999999999999999999999999-01071-01541999999ADDAA101999999KA1010M-01061KA2010N-01211REMSYN004BUFR
0064010270999992016011900004+69652+018906FM-12+002099999V020999999999999999999999999999-01171-01591999999ADDAA101999999AA206999999KA1010M-01081KA2010N-01201REMSYN004BUFR
0053010270999992016011901004+69652+018906FM-12+002099999V020999999999999999999999999999-01051-01411999999ADDAA101999999KA1010M-00971KA2010N-01191REMSYN004BUFR
0053010270999992016011902004+69652+018906FM-12+002099999V020999999999999999999999999999-01171-01471999999ADDAA101999999KA1010M-00991KA2010N-01171REMSYN004BUFR
0053010270999992016011903004+69652+018906FM-12+002099999V020999999999999999999999999999-01241-01551999999ADDAA101999999KA1010M-01061KA2010N-01281REMSYN004BUFR
0053010270999992016011904004+69652+018906FM-12+002099999V020999999999999999999999999999-01151-01451999999ADDAA101999999KA1010M-01151KA2010N-01271REMSYN004BUFR
0053010270999992016011905004+69652+018906FM-12+002099999V020999999999999999999999999999-01201-01471999999ADDAA101999999KA1010M-01151KA2010N-01261REMSYN004BUFR
0099010270999992016011906004+69650+018900FM-12+002099999V0209999C999999999999N999999999-01211-01481999999ADDAA112000091AA224000091KA1240N-01281REMSYN05201027 16/// ///// 11121 21148 60002 333 21128 70000=
0053010270999992016011907004+69652+018906FM-12+002099999V020999999999999999999999999999-01171-01451999999ADDAA101999999KA1010M-01131KA2010N-01221REMSYN004BUFR
0053010270999992016011908004+69652+018906FM-12+002099999V020999999999999999999999999999-01151-01421999999ADDAA101999999KA1010M-01101KA2010N-01201REMSYN004BUFR
0053010270999992016011909004+69652+018906FM-12+002099999V020999999999999999999999999999-01151-01421999999ADDAA101999999KA1010M-01091KA2010N-01221REMSYN004BUFR
0053010270999992016011910004+69652+018906FM-12+002099999V020999999999999999999999999999-01141-01421999999ADDAA101999999KA1010M-01091KA2010N-01191REMSYN004BUFR
0053010270999992016011911004+69652+018906FM-12+002099999V020999999999999999999999999999-01121-01441999999ADDAA101999999KA1010M-01111KA2010N-01191REMSYN004BUFR
0064010270999992016011912004+69652+018906FM-12+002099999V020999999999999999999999999999-01121-01501999999ADDAA101999999AA206999999KA1010M-01081KA2010N-01141REMSYN004BUFR
0053010270999992016011913004+69652+018906FM-12+002099999V020999999999999999999999999999-01171-01521999999ADDAA101999999KA1010M-01111KA2010N-01201REMSYN004BUFR
0053010270999992016011914004+69652+018906FM-12+002099999V020999999999999999999999999999-01151-01431999999ADDAA101999999KA1010M-01111KA2010N-01221REMSYN004BUFR
0053010270999992016011915004+69652+018906FM-12+002099999V020999999999999999999999999999-01171-01481999999ADDAA101999999KA1010M-01091KA2010N-01181REMSYN004BUFR
0053010270999992016011916004+69652+018906FM-12+002099999V020999999999999999999999999999-01151-01501999999ADDAA101999999KA1010M-01121KA2010N-01191REMSYN004BUFR
0053010270999992016011917004+69652+018906FM-12+002099999V020999999999999999999999999999-01121-01511999999ADDAA101999999KA1010M-01101KA2010N-01161REMSYN004BUFR
0064010270999992016011918004+69652+018906FM-12+002099999V020999999999999999999999999999-01071-01441999999ADDAA101999999AA212999999KA1120M-01081KA2120N-01221REMSYN004BUFR
0053010270999992016011919004+69652+018906FM-12+002099999V020999999999999999999999999999-01071-01431999999ADDAA101999999KA1010M-01061KA2010N-01101REMSYN004BUFR
0053010270999992016011920004+69652+018906FM-12+002099999V020999999999999999999999999999-01041-01371999999ADDAA101999999KA1010M-01041KA2010N-01081REMSYN004BUFR
0053010270999992016011921004+69652+018906FM-12+002099999V020999999999999999999999999999-01071-01391999999ADDAA101999999KA1010M-00981KA2010N-01081REMSYN004BUFR
0053010270999992016011922004+69652+018906FM-12+002099999V020999999999999999999999999999-01001-01241999999ADDAA101999999KA1010M-01001KA2010N-01081REMSYN004BUFR
0053010270999992016011923004+69652+018906FM-12+002099999V020999999999999999999999999999-01021-01321999999ADDAA101999999KA1010M-00981KA2010N-01051REMSYN004BUFR
0064010270999992016012000004+69652+018906FM-12+002099999V020999999999999999999999999999-00991-01311999999ADDAA101999999AA206999999KA1010M-00961KA2010N-01021REMSYN004BUFR
0053010270999992016012001004+69652+018906FM-12+002099999V020999999999999999999999999999-01021-01311999999ADDAA101999999KA1010M-00971KA2010N-01031REMSYN004BUFR
0049010270999992016012002004+69650+018900FM-12+002099999V020999999999999999999999999999+99999+99999999999REMSYN04001027 26/// ///// 11102 21132 333 60005=
0049010270999992016012003004+69650+018900FM-12+002099999V020999999999999999999999999999+99999+99999999999REMSYN04001027 26/// ///// 11102 21131 333 60005=
0053010270999992016012004004+69652+018906FM-12+002099999V020999999999999999999999999999-00991-01221999999ADDAA101999999KA1010M-00981KA2010N-01031REMSYN004BUFR
0053010270999992016012005004+69652+018906FM-12+002099999V020999999999999999999999999999-01001-01301999999ADDAA101999999KA1010M-00971KA2010N-01021REMSYN004BUFR
0087010270999992016012006004+69652+018906FM-12+002099999V020999999999999999999999999999-00991-01251999999ADDAA101999999AA212999999AA324999999IA2999-00239KA1120M-00941KA2120N-01101REMSYN004BUFR
0053010270999992016012007004+69652+018906FM-12+002099999V020999999999999999999999999999-00951-01231999999ADDAA101999999KA1010M-00951KA2010N-00991REMSYN004BUFR
0053010270999992016012008004+69652+018906FM-12+002099999V020999999999999999999999999999-00941-01261999999ADDAA101999999KA1010M-00931KA2010N-00961REMSYN004BUFR
0053010270999992016012009004+69652+018906FM-12+002099999V020999999999999999999999999999-00921-01231999999ADDAA101999999KA1010M-00911KA2010N-00951REMSYN004BUFR
0053010270999992016012010004+69652+018906FM-12+002099999V020999999999999999999999999999-00901-01241999999ADDAA101999999KA1010M-00881KA2010N-00941REMSYN004BUFR
0053010270999992016012011004+69652+018906FM-12+002099999V020999999999999999999999999999-00851-01231999999ADDAA101999999KA1010M-00861KA2010N-00911REMSYN004BUFR
0064010270999992016012012004+69652+018906FM-12+002099999V020999999999999999999999999999-00801-01201999999ADDAA101999999AA206999999KA1010M-00801KA2010N-00861REMSYN004BUFR
0053010270999992016012013004+69652+018906FM-12+002099999V020999999999999999999999999999-00791-01191999999ADDAA101999999KA1010M-00791KA2010N-00831REMSYN004BUFR
0053010270999992016012014004+69652+018906FM-12+002099999V020999999999999999999999999999-00701-01101999999ADDAA101999999KA1010M-00691KA2010N-00791REMSYN004BUFR
0053010270999992016012015004+69652+018906FM-12+002099999V020999999999999999999999999999-00701-01091999999ADDAA101999999KA1010M-00681KA2010N-00711REMSYN004BUFR
0053010270999992016012016004+69652+018906FM-12+002099999V020999999999999999999999999999-00671-01001999999ADDAA101999999KA1010M-00661KA2010N-00701REMSYN004BUFR
0053010270999992016012017004+69652+018906FM-12+002099999V020999999999999999999999999999-00651-00981999999ADDAA101999999KA1010M-00651KA2010N-00691REMSYN004BUFR
0064010270999992016012018004+69652+018906FM-12+002099999V020999999999999999999999999999-00621-00921999999ADDAA101999999AA212999999KA1120M-00621KA2120N-00991REMSYN004BUFR
0053010270999992016012019004+69652+018906FM-12+002099999V020999999999999999999999999999-00601-00891999999ADDAA101999999KA1010M-00581KA2010N-00631REMSYN004BUFR
0053010270999992016012020004+69652+018906FM-12+002099999V020999999999999999999999999999-00571-00861999999ADDAA101999999KA1010M-00581KA2010N-00621REMSYN004BUFR
0053010270999992016012021004+69652+018906FM-12+002099999V020999999999999999999999999999-00551-00821999999ADDAA101999999KA1010M-00561KA2010N-00591REMSYN004BUFR
0053010270999992016012022004+69652+018906FM-12+002099999V020999999999999999999999999999-00551-00791999999ADDAA101999999KA1010M-00541KA2010N-00581REMSYN004BUFR
0053010270999992016012023004+69652+018906FM-12+002099999V020999999999999999999999999999-00551-00801999999ADDAA101999999KA1010M-00531KA2010N-00571REMSYN004BUFR
0064010270999992016012100004+69652+018906FM-12+002099999V020999999999999999999999999999-00541-00791999999ADDAA101999999AA206999999KA1010M-00521KA2010N-00561REMSYN004BUFR
0049010270999992016012101004+69650+018900FM-12+002099999V020999999999999999999999999999+99999+99999999999REMSYN04001027 26/// ///// 11052 21076 333 60005=
0053010270999992016012102004+69652+018906FM-12+002099999V020999999999999999999999999999-00541-00791999999ADDAA101999999KA1010M-00501KA2010N-00541REMSYN004BUFR
0053010270999992016012103004+69652+018906FM-12+002099999V020999999999999999999999999999-00521-00771999999ADDAA101999999KA1010M-00531KA2010N-00561REMSYN004BUFR
0053010270999992016012104004+69652+018906FM-12+002099999V020999999999999999999999999999-00521-00781999999ADDAA101999999KA1010M-00491KA2010N-00531REMSYN004BUFR
0053010270999992016012105004+69652+018906FM-12+002099999V020999999999999999999999999999-00521-00771999999ADDAA101999999KA1010M-00521KA2010N-00551REMSYN004BUFR
0087010270999992016012106004+69652+018906FM-12+002099999V020999999999999999999999999999-00551-00771999999ADDAA101999999AA212999999AA324999999IA2999-00199KA1120M-00491KA2120N-00631REMSYN004BUFR
0049010270999992016012107004+69650+018900FM-12+002099999V020999999999999999999999999999+99999+99999999999REMSYN04001027 26/// ///// 11051 21074 333 60005=
0053010270999992016012108004+69652+018906FM-12+002099999V020999999999999999999999999999-00551-00781999999ADDAA101999999KA1010M-00501KA2010N-00551REMSYN004BUFR
0053010270999992016012109004+69652+018906FM-12+002099999V020999999999999999999999999999-00471-00731999999ADDAA101999999KA1010M-00481KA2010N-00561REMSYN004BUFR
0053010270999992016012110004+69652+018906FM-12+002099999V020999999999999999999999999999-00501-00761999999ADDAA101999999KA1010M-00481KA2010N-00521REMSYN004BUFR
0053010270999992016012111004+69652+018906FM-12+002099999V020999999999999999999999999999-00451-00721999999ADDAA101999999KA1010M-00451KA2010N-00511REMSYN004BUFR
0059010270999992016012112004+69650+018900FM-12+002099999V0209999C999999999999N999999999-00461-00741999999ADDAA106000091REMSYN03601027 16/// ///// 11046 21074 60001=
0053010270999992016012113004+69652+018906FM-12+002099999V020999999999999999999999999999-00441-00731999999ADDAA101999999KA1010M-00441KA2010N-00471REMSYN004BUFR
0053010270999992016012114004+69652+018906FM-12+002099999V020999999999999999999999999999-00391-00721999999ADDAA101999999KA1010M-00391KA2010N-00441REMSYN004BUFR
0053010270999992016012115004+69652+018906FM-12+002099999V020999999999999999999999999999-00321-00631999999ADDAA101999999KA1010M-00321KA2010N-00401REMSYN004BUFR
0053010270999992016012116004+69652+018906FM-12+002099999V020999999999999999999999999999-00251-00561999999ADDAA101999999KA1010M-00261KA2010N-00331REMSYN004BUFR
0053010270999992016012117004+69652+018906FM-12+002099999V020999999999999999999999999999-00171-00541999999ADDAA101999999KA1010M-00171KA2010N-00281REMSYN004BUFR
0082010270999992016012118004+69650+018900FM-12+002099999V0209999C999999999999N999999999-00211-00481999999ADDAA112000131KA1120M-00161REMSYN04601027 16/// ///// 11021 21048 69912 333 11016=
0053010270999992016012119004+69652+018906FM-12+002099999V020999999999999999999999999999-00191-00341999999ADDAA101999999KA1010M-00191KA2010N-00241REMSYN004BUFR
0053010270999992016012120004+69652+018906FM-12+002099999V020999999999999999999999999999-00151-00341999999ADDAA101999999KA1010M-00151KA2010N-00201REMSYN004BUFR
0053010270999992016012121004+69652+018906FM-12+002099999V020999999999999999999999999999-00071-00371999999ADDAA101999999KA1010M-00081KA2010N-00161REMSYN004BUFR
0053010270999992016012122004+69652+018906FM-12+002099999V020999999999999999999999999999-00021-00361999999ADDAA101999999KA1010M-00021KA2010N-00081REMSYN004BUFR
0049010270999992016012123004+69650+018900FM-12+002099999V020999999999999999999999999999+99999+99999999999REMSYN04001027 26/// ///// 10001 21039 333 60005=
0064010270999992016012200004+69652+018906FM-12+002099999V020999999999999999999999999999-00071-00231999999ADDAA101999999AA206000331KA1010M+00011KA2010N-00081REMSYN004BUFR
0053010270999992016012201004+69652+018906FM-12+002099999V020999999999999999999999999999-00051-00171999999ADDAA101999999KA1010M-00051KA2010N-00081REMSYN004BUFR
0053010270999992016012202004+69652+018906FM-12+002099999V020999999999999999999999999999-00021-00121999999ADDAA101999999KA1010M-00021KA2010N-00051REMSYN004BUFR
0053010270999992016012203004+69652+018906FM-12+002099999V020999999999999999999999999999-00021-00101999999ADDAA101999999KA1010M-00011KA2010N-00021REMSYN004BUFR
0053010270999992016012204004+69652+018906FM-12+002099999V020999999999999999999999999999+00001-00081999999ADDAA101999999KA1010M-00011KA2010N-00021REMSYN004BUFR
0053010270999992016012205004+69652+018906FM-12+002099999V020999999999999999999999999999+00021-00051999999ADDAA101999999KA1010M+00021KA2010N-00011REMSYN004BUFR
0087010270999992016012206004+69652+018906FM-12+002099999V020999999999999999999999999999+00071-00021999999ADDAA101999999AA212002731AA324002731IA2999-00149KA1120M+00071KA2120N-00241REMSYN004BUFR
0053010270999992016012207004+69652+018906FM-12+002099999V020999999999999999999999999999+00101+00001999999ADDAA101002031KA1010M+00111KA2010N+00061REMSYN004BUFR
0053010270999992016012208004+69652+018906FM-12+002099999V020999999999999999999999999999+00151-00011999999ADDAA101001031KA1010M+00171KA2010N+00111REMSYN004BUFR
0053010270999992016012209004+69652+018906FM-12+002099999V020999999999999999999999999999+00241+00011999999ADDAA101999999KA1010M+00251KA2010N+00161REMSYN004BUFR
0053010270999992016012210004+69652+018906FM-12+002099999V020999999999999999999999999999+00251+00001999999ADDAA101999999KA1010M+00301KA2010N+00241REMSYN004BUFR
0053010270999992016012211004+69652+018906FM-12+002099999V020999999999999999999999999999+00271+00031999999ADDAA101999999KA1010M+00281KA2010N+00241REMSYN004BUFR
0064010270999992016012212004+69652+018906FM-12+002099999V020999999999999999999999999999+00251+00031999999ADDAA101999999AA206005331KA1010M+00291KA2010N+00251REMSYN004BUFR
0053010270999992016012213004+69652+018906FM-12+002099999V020999999999999999999999999999+00201+00031999999ADDAA101999999KA1010M+00281KA2010N+00211REMSYN004BUFR
0053010270999992016012214004+69652+018906FM-12+002099999V020999999999999999999999999999+00201+00051999999ADDAA101001031KA1010M+00221KA2010N+00181REMSYN004BUFR
0053010270999992016012215004+69652+018906FM-12+002099999V020999999999999999999999999999+00221+00061999999ADDAA101001031KA1010M+00241KA2010N+00211REMSYN004BUFR
0053010270999992016012216004+69652+018906FM-12+002099999V020999999999999999999999999999+00241+00061999999ADDAA101001031KA1010M+00271KA2010N+00231REMSYN004BUFR
0053010270999992016012217004+69652+018906FM-12+002099999V020999999999999999999999999999+00121-00021999999ADDAA101999999KA1010M+00261KA2010N+00121REMSYN004BUFR
0064010270999992016012218004+69652+018906FM-12+002099999V020999999999999999999999999999+00191+00051999999ADDAA101999999AA212011331KA1120M+00301KA2120N+00061REMSYN004BUFR
0053010270999992016012219004+69652+018906FM-12+002099999V020999999999999999999999999999+00301+00071999999ADDAA101999999KA1010M+00341KA2010N+00201REMSYN004BUFR
0053010270999992016012220004+69652+018906FM-12+002099999V020999999999999999999999999999+00321+00051999999ADDAA101999999KA1010M+00341KA2010N+00301REMSYN004BUFR
0053010270999992016012221004+69652+018906FM-12+002099999V020999999999999999999999999999+00341+00031999999ADDAA101999999KA1010M+00361KA2010N+00331REMSYN004BUFR
0053010270999992016012222004+69652+018906FM-12+002099999V020999999999999999999999999999+00371-00011999999ADDAA101999999KA1010M+00371KA2010N+00341REMSYN004BUFR
0053010270999992016012223004+69652+018906FM-12+002099999V020999999999999999999999999999+00321-00031999999ADDAA101999999KA1010M+00371KA2010N+00331REMSYN004BUFR
0064010270999992016012300004+69652+018906FM-12+002099999V020999999999999999999999999999+00321-00011999999ADDAA101999999AA206999999KA1010M+00341KA2010N+00311REMSYN004BUFR
0053010270999992016012301004+69652+018906FM-12+002099999V020999999999999999999999999999+00341-00011999999ADDAA101999999KA1010M+00341KA2010N+00311REMSYN004BUFR
0053010270999992016012302004+69652+018906FM-12+002099999V020999999999999999999999999999+00341-00091999999ADDAA101999999KA1010M+00361KA2010N+00311REMSYN004BUFR
0053010270999992016012303004+69652+018906FM-12+002099999V020999999999999999999999999999+00351-00081999999ADDAA101999999KA1010M+00371KA2010N+00321REMSYN004BUFR
0053010270999992016012304004+69652+018906FM-12+002099999V020999999999999999999999999999+00291-00041999999ADDAA101999999KA1010M+00361KA2010N+00291REMSYN004BUFR
0053010270999992016012305004+69652+018906FM-12+002099999V020999999999999999999999999999+00151-00081999999ADDAA101999999KA1010M+00291KA2010N+00161REMSYN004BUFR
0087010270999992016012306004+69652+018906FM-12+002099999V020999999999999999999999999999+00071-00121999999ADDAA101999999AA212999999AA324011331IA2999-00049KA1120M+00371KA2120N+00071REMSYN004BUFR
0053010270999992016012307004+69652+018906FM-12+002099999V020999999999999999999999999999+00021-00141999999ADDAA101999999KA1010M+00091KA2010N-00021REMSYN004BUFR
0053010270999992016012308004+69652+018906FM-12+002099999V020999999999999999999999999999-00021-00161999999ADDAA101999999KA1010M+00021KA2010N-00051REMSYN004BUFR
0049010270999992016012309004+69650+018900FM-12+002099999V020999999999999999999999999999+99999+99999999999REMSYN04001027 26/// ///// 11008 21021 333 60005=
0053010270999992016012310004+69652+018906FM-12+002099999V020999999999999999999999999999-00071-00201999999ADDAA101999999KA1010M-00061KA2010N-00091REMSYN004BUFR
0053010270999992016012311004+69652+018906FM-12+002099999V020999999999999999999999999999-00101-00221999999ADDAA101999999KA1010M-00071KA2010N-00121REMSYN004BUFR
0064010270999992016012312004+69652+018906FM-12+002099999V020999999999999999999999999999-00101-00291999999ADDAA101999999AA206999999KA1010M-00071KA2010N-00131REMSYN004BUFR
0053010270999992016012313004+69652+018906FM-12+002099999V020999999999999999999999999999-00151-00371999999ADDAA101999999KA1010M-00101KA2010N-00161REMSYN004BUFR
0053010270999992016012314004+69652+018906FM-12+002099999V020999999999999999999999999999-00241-00461999999ADDAA101999999KA1010M-00131KA2010N-00241REMSYN004BUFR
0053010270999992016012315004+69652+018906FM-12+002099999V020999999999999999999999999999-00171-00391999999ADDAA101999999KA1010M-00161KA2010N-00241REMSYN004BUFR
0053010270999992016012316004+69652+018906FM-12+002099999V020999999999999999999999999999-00201-00451999999ADDAA101999999KA1010M-00161KA2010N-00221REMSYN004BUFR
0053010270999992016012317004+69652+018906FM-12+002099999V020999999999999999999999999999-00201-00431999999ADDAA101999999KA1010M-00151KA2010N-00231REMSYN004BUFR
0064010270999992016012318004+69652+018906FM-12+002099999V020999999999999999999999999999-00241-00431999999ADDAA101999999AA212999999KA1120M+00091KA2120N-00261REMSYN004BUFR
0049010270999992016012319004+69650+018900FM-12+002099999V020999999999999999999999999999+99999+99999999999REMSYN04001027 26/// ///// 11018 21041 333 60005=
0053010270999992016012320004+69652+018906FM-12+002099999V020999999999999999999999999999-00171-00401999999ADDAA101999999KA1010M-00101KA2010N-00241REMSYN004BUFR
0053010270999992016012321004+69652+018906FM-12+002099999V020999999999999999999999999999-00251-00441999999ADDAA101999999KA1010M-00181KA2010N-00291REMSYN004BUFR
0053010270999992016012322004+69652+018906FM-12+002099999V020999999999999999999999999999-00171-00411999999ADDAA101999999KA1010M-00171KA2010N-00291REMSYN004BUFR
0053010270999992016012323004+69652+018906FM-12+002099999V020999999999999999999999999999-00251-00481999999ADDAA101999999KA1010M-00171KA2010N-00281REMSYN004BUFR
0064010270999992016012400004+69652+018906FM-12+002099999V020999999999999999999999999999-00191-00491999999ADDAA101999999AA206999999KA1010M-00181KA2010N-00281REMSYN004BUFR
0053010270999992016012401004+69652+018906FM-12+002099999V020999999999999999999999999999-00251-00531999999ADDAA101999999KA1010M-00171KA2010N-00261REMSYN004BUFR
0053010270999992016012402004+69652+018906FM-12+002099999V020999999999999999999999999999-00301-00581999999ADDAA101999999KA1010M-00221KA2010N-00311REMSYN004BUFR
0053010270999992016012403004+69652+018906FM-12+002099999V020999999999999999999999999999-00351-00601999999ADDAA101999999KA1010M-00311KA2010N-00371REMSYN004BUFR
0053010270999992016012404004+69652+018906FM-12+002099999V020999999999999999999999999999-00341-00561999999ADDAA101999999KA1010M-00341KA2010N-00391REMSYN004BUFR
0053010270999992016012405004+69652+018906FM-12+002099999V020999999999999999999999999999-00351-00591999999ADDAA101999999KA1010M-00311KA2010N-00391REMSYN004BUFR
0087010270999992016012406004+69652+018906FM-12+002099999V020999999999999999999999999999-00341-00591999999ADDAA101999999AA212999999AA324999999IA2999-00119KA1120M-00101KA2120N-00441REMSYN004BUFR
0053010270999992016012407004+69652+018906FM-12+002099999V020999999999999999999999999999-00341-00671999999ADDAA101999999KA1010M-00301KA2010N-00381REMSYN004BUFR
0053010270999992016012408004+69652+018906FM-12+002099999V020999999999999999999999999999-00301-00641999999ADDAA101999999KA1010M-00281KA2010N-00341REMSYN004BUFR
0053010270999992016012409004+69652+018906FM-12+002099999V020999999999999999999999999999-00241-00671999999ADDAA101999999KA1010M-00241KA2010N-00311REMSYN004BUFR
0053010270999992016012410004+69652+018906FM-12+002099999V020999999999999999999999999999-00221-00661999999ADDAA101999999KA1010M-00231KA2010N-00261REMSYN004BUFR
0053010270999992016012411004+69652+018906FM-12+002099999V020999999999999999999999999999-00221-00681999999ADDAA101999999KA1010M-00221KA2010N-00231REMSYN004BUFR
0064010270999992016012412004+69652+018906FM-12+002099999V020999999999999999999999999999-00241-00581999999ADDAA101999999AA206999999KA1010M-00211KA2010N-00241REMSYN004BUFR
0049010270999992016012413004+69650+018900FM-12+002099999V020999999999999999999999999999+99999+99999999999REMSYN04001027 26/// ///// 11026 21053 333 60005=
0053010270999992016012414004+69652+018906FM-12+002099999V020999999999999999999999999999-00271-00501999999ADDAA101999999KA1010M-00261KA2010N-00291REMSYN004BUFR
0053010270999992016012415004+69652+018906FM-12+002099999V020999999999999999999999999999-00251-00431999999ADDAA101999999KA1010M-00241KA2010N-00291REMSYN004BUFR
0053010270999992016012416004+69652+018906FM-12+002099999V020999999999999999999999999999-00251-00381999999ADDAA101999999KA1010M-00251KA2010N-00261REMSYN004BUFR
0053010270999992016012417004+69652+018906FM-12+002099999V020999999999999999999999999999-00221-00331999999ADDAA101999999KA1010M-00211KA2010N-00251REMSYN004BUFR
0064010270999992016012418004+69652+018906FM-12+002099999V020999999999999999999999999999-00191-00321999999ADDAA101999999AA212000931KA1120M-00191KA2120N-00381REMSYN004BUFR
0049010270999992016012419004+69650+018900FM-12+002099999V020999999999999999999999999999+99999+99999999999REMSYN04001027 26/// ///// 11019 21033 333 60005=
0049010270999992016012420004+69650+018900FM-12+002099999V020999999999999999999999999999+99999+99999999999REMSYN04001027 26/// ///// 11017 21033 333 60005=
0053010270999992016012421004+69652+018906FM-12+002099999V020999999999999999999999999999-00151-00311999999ADDAA101999999KA1010M-00151KA2010N-00171REMSYN004BUFR
0049010270999992016012422004+69650+018900FM-12+002099999V020999999999999999999999999999+99999+99999999999REMSYN04001027 26/// ///// 11014 21027 333 69945=
0053010270999992016012423004+69652+018906FM-12+002099999V020999999999999999999999999999-00121-00241999999ADDAA101999999KA1010M-00111KA2010N-00151REMSYN004BUFR
0064010270999992016012500004+69652+018906FM-12+002099999V020999999999999999999999999999-00091-00211999999ADDAA101999999AA206000931KA1010M-00091KA2010N-00131REMSYN004BUFR
0053010270999992016012501004+69652+018906FM-12+002099999V020999999999999999999999999999-00051-00181999999ADDAA101999999KA1010M-00051KA2010N-00091REMSYN004BUFR
0053010270999992016012502004+69652+018906FM-12+002099999V020999999999999999999999999999+00021-00101999999ADDAA101999999KA1010M+00021KA2010N-00051REMSYN004BUFR
0053010270999992016012503004+69652+018906FM-12+002099999V020999999999999999999999999999+00021-00081999999ADDAA101999999KA1010M+00031KA2010N+00001REMSYN004BUFR
0049010270999992016012504004+69650+018900FM-12+002099999V020999999999999999999999999999+99999+99999999999REMSYN04001027 26/// ///// 10006 21005 333 60005=
0053010270999992016012505004+69652+018906FM-12+002099999V020999999999999999999999999999+00091-00021999999ADDAA101999999KA1010M+00091KA2010N+00051REMSYN004BUFR
0099010270999992016012506004+69650+018900FM-12+002099999V0209999C999999999999N999999999+00131+00011999999ADDAA112001031AA224001931KA1240N-00191REMSYN05201027 16/// ///// 10013 20001 60012 333 21019 70019=
0053010270999992016012507004+69652+018906FM-12+002099999V020999999999999999999999999999+00141+00021999999ADDAA101999999KA1010M+00151KA2010N+00121REMSYN004BUFR
0053010270999992016012508004+69652+018906FM-12+002099999V020999999999999999999999999999+00151+00041999999ADDAA101999999KA1010M+00181KA2010N+00141REMSYN004BUFR
0053010270999992016012509004+69652+018906FM-12+002099999V020999999999999999999999999999+00201+00081999999ADDAA101999999KA1010M+00211KA2010N+00161REMSYN004BUFR
0053010270999992016012510004+69652+018906FM-12+002099999V020999999999999999999999999999+00201+00071999999ADDAA101999999KA1010M+00231KA2010N+00191REMSYN004BUFR
0053010270999992016012511004+69652+018906FM-12+002099999V020999999999999999999999999999+00221+00101999999ADDAA101999999KA1010M+00231KA2010N+00201REMSYN004BUFR
0064010270999992016012512004+69652+018906FM-12+002099999V020999999999999999999999999999+00221+00101999999ADDAA101999999AA206000731KA1010M+00251KA2010N+00221REMSYN004BUFR
0053010270999992016012513004+69652+018906FM-12+002099999V020999999999999999999999999999+00241+00101999999ADDAA101999999KA1010M+00251KA2010N+00231REMSYN004BUFR
0049010270999992016012514004+69650+018900FM-12+002099999V020999999999999999999999999999+99999+99999999999REMSYN04001027 26/// ///// 10023 20009 333 60005=
0049010270999992016012515004+69650+018900FM-12+002099999V020999999999999999999999999999+99999+99999999999REMSYN04001027 26/// ///// 10017 20005 333 60005=
0053010270999992016012516004+69652+018906FM-12+002099999V020999999999999999999999999999+00151+00051999999ADDAA101999999KA1010M+00171KA2010N+00141REMSYN004BUFR
0053010270999992016012517004+69652+018906FM-12+002099999V020999999999999999999999999999+00121+00031999999ADDAA101999999KA1010M+00161KA2010N+00111REMSYN004BUFR
0064010270999992016012518004+69652+018906FM-12+002099999V020999999999999999999999999999+00021-00061999999ADDAA101999999AA212000731KA1120M+00251KA2120N+00021REMSYN004BUFR
0049010270999992016012519004+69650+018900FM-12+002099999V020999999999999999999999999999+99999+99999999999REMSYN04001027 26/// ///// 11002 21009 333 60005=
0053010270999992016012520004+69652+018906FM-12+002099999V020999999999999999999999999999-00051-00131999999ADDAA101999999KA1010M+00031KA2010N-00071REMSYN004BUFR
0053010270999992016012521004+69652+018906FM-12+002099999V020999999999999999999999999999-00071-00141999999ADDAA101999999KA1010M-00041KA2010N-00091REMSYN004BUFR
0053010270999992016012522004+69652+018906FM-12+002099999V020999999999999999999999999999-00101-00171999999ADDAA101999999KA1010M-00051KA2010N-00111REMSYN004BUFR
0049010270999992016012523004+69650+018900FM-12+002099999V020999999999999999999999999999+99999+99999999999REMSYN04001027 26/// ///// 11010 21016 333 60005=
0064010270999992016012600004+69652+018906FM-12+002099999V020999999999999999999999999999-00101-00161999999ADDAA101999999AA206999999KA1010M-00091KA2010N-00141REMSYN004BUFR
0049010270999992016012601004+69650+018900FM-12+002099999V020999999999999999999999999999+99999+99999999999REMSYN04001027 26/// ///// 11004 21010 333 60005=
0053010270999992016012602004+69652+018906FM-12+002099999V020999999999999999999999999999-00041-00121999999ADDAA101999999KA1010M-00011KA2010N-00051REMSYN004BUFR
0053010270999992016012603004+69652+018906FM-12+002099999V020999999999999999999999999999-00051-00151999999ADDAA101999999KA1010M+00011KA2010N-00061REMSYN004BUFR
0053010270999992016012604004+69652+018906FM-12+002099999V020999999999999999999999999999-00021-00441999999ADDAA101999999KA1010M+00001KA2010N-00071REMSYN004BUFR
0053010270999992016012605004+69652+018906FM-12+002099999V020999999999999999999999999999-00051-00561999999ADDAA101999999KA1010M+00011KA2010N-00061REMSYN004BUFR
0099010270999992016012606004+69650+018900FM-12+002099999V0209999C999999999999N999999999-00121-00521999999ADDAA112000091AA224000731KA1240N-00141REMSYN05201027 16/// ///// 11012 21052 60002 333 21014 70007=
0049010270999992016012607004+69650+018900FM-12+002099999V020999999999999999999999999999+99999+99999999999REMSYN04001027 26/// ///// 11023 21038 333 69965=
0053010270999992016012608004+69652+018906FM-12+002099999V020999999999999999999999999999-00201-00341999999ADDAA101999999KA1010M-00191KA2010N-00241REMSYN004BUFR
0053010270999992016012609004+69652+018906FM-12+002099999V020999999999999999999999999999-00221-00341999999ADDAA101999999KA1010M-00191KA2010N-00241REMSYN004BUFR
0053010270999992016012610004+69652+018906FM-12+002099999V020999999999999999999999999999-00251-00341999999ADDAA101999999KA1010M-00211KA2010N-00261REMSYN004BUFR
0053010270999992016012611004+69652+018906FM-12+002099999V020999999999999999999999999999-00221-00291999999ADDAA101001031KA1010M-00221KA2010N-00251REMSYN004BUFR
0064010270999992016012612004+69652+018906FM-12+002099999V020999999999999999999999999999-00151-00231999999ADDAA101999999AA206005331KA1010M-00161KA2010N-00221REMSYN004BUFR
0053010270999992016012613004+69652+018906FM-12+002099999V020999999999999999999999999999-00101-00171999999ADDAA101999999KA1010M-00081KA2010N-00161REMSYN004BUFR
0053010270999992016012614004+69652+018906FM-12+002099999V020999999999999999999999999999+00021-00071999999ADDAA101999999KA1010M+00021KA2010N-00101REMSYN004BUFR
0053010270999992016012615004+69652+018906FM-12+002099999V020999999999999999999999999999+00041-00061999999ADDAA101999999KA1010M+00041KA2010N+00001REMSYN004BUFR
0053010270999992016012616004+69652+018906FM-12+002099999V020999999999999999999999999999+00101+00021999999ADDAA101999999KA1010M+00111KA2010N+00031REMSYN004BUFR
0053010270999992016012617004+69652+018906FM-12+002099999V020999999999999999999999999999+00171+00061999999ADDAA101999999KA1010M+00181KA2010N+00091REMSYN004BUFR
0064010270999992016012618004+69652+018906FM-12+002099999V020999999999999999999999999999+00251+00081999999ADDAA101999999AA212006331KA1120M+00261KA2120N-00261REMSYN004BUFR
0053010270999992016012619004+69652+018906FM-12+002099999V020999999999999999999999999999+00271+00041999999ADDAA101999999KA1010M+00281KA2010N+00191REMSYN004BUFR
0053010270999992016012620004+69652+018906FM-12+002099999V020999999999999999999999999999+00241-00031999999ADDAA101999999KA1010M+00281KA2010N+00251REMSYN004BUFR
0053010270999992016012621004+69652+018906FM-12+002099999V020999999999999999999999999999+00271-00101999999ADDAA101999999KA1010M+00281KA2010N+00241REMSYN004BUFR
0053010270999992016012622004+69652+018906FM-12+002099999V020999999999999999999999999999+00291-00141999999ADDAA101999999KA1010M+00291KA2010N+00261REMSYN004BUFR
0053010270999992016012623004+69652+018906FM-12+002099999V020999999999999999999999999999+00291-00121999999ADDAA101999999KA1010M+00301KA2010N+00241REMSYN004BUFR
