0089010240999992016010100004+78650+016367FM-12+002099999V0202801N004019999999N999999999+00411-00031100681ADDMA1999999100551MD1210331+9999REMSYN04801024 46/// /2804 10041 21003 30055 40068 52033=
0089010240999992016010101004+78650+016367FM-12+002099999V0202601N005019999999N999999999+00501-00101100761ADDMA1999999100631MD1310321+9999REMSYN04801024 46/// /2605 10050 21010 30063 40076 53032=
0089010240999992016010102004+78650+016367FM-12+002099999V0203001N004019999999N999999999+00361-00061100811ADDMA1999999100681MD1310231+9999REMSYN04801024 46/// /3004 10036 21006 30068 40081 53023=
0089010240999992016010103004+78650+016367FM-12+002099999V0200801N001019999999N999999999+00351-00111100891ADDMA1999999100761MD1210211+9999REMSYN04801024 46/// /0801 10035 21011 30076 40089 52021=
0089010240999992016010104004+78650+016367FM-12+002099999V0209999C999999999999N999999999+00301-00121100841ADDMA1999999100711MD1310081+9999REMSYN04801024 46/// /0000 10030 21012 30071 40084 53008=
0089010240999992016010106004+78650+016367FM-12+002099999V0200101N001019999999N999999999+00301-00081100841ADDMA1999999100711MD1710041+9999REMSYN04801024 46/// /0101 10030 21008 30071 40084 57004=
0089010240999992016010107004+78650+016367FM-12+002099999V0203401N001019999999N999999999+00241-00101100841ADDMA1999999100711MD1410001+9999REMSYN04801024 46/// /3401 10024 21010 30071 40084 54000=
0089010240999992016010108004+78650+016367FM-12+002099999V0203601N001019999999N999999999+00331-00121100831ADDMA1999999100701MD1710041+9999REMSYN04801024 46/// /3601 10033 21012 30070 40083 57004=
0089010240999992016010109004+78650+016367FM-12+002099999V0209999C999999999999N999999999+00311-00141100811ADDMA1999999100681MD1710041+9999REMSYN04801024 46/// /0000 10031 21014 30068 40081 57004=
0089010240999992016010110004+78650+016367FM-12+002099999V0209999C999999999999N999999999+00231-00131100731ADDMA1999999100601MD1610111+9999REMSYN04801024 46/// /0000 10023 21013 30060 40073 56011=
0089010240999992016010111004+78650+016367FM-12+002099999V0203301N001019999999N999999999+00361-00151100681ADDMA1999999100551MD1710151+9999REMSYN04801024 46/// /3301 10036 21015 30055 40068 57015=
0113010240999992016010112004+78650+016367FM-12+002099999V0203601N001019999999N999999999+00301-00121100621ADDMA1999999100491MD1710191+9999OD139900301999REMSYN05801024 46/// /3601 10030 21012 30049 40062 57019 333 91103=
0089010240999992016010113004+78650+016367FM-12+002099999V0200901N001019999999N999999999+00281-00031100511ADDMA1999999100381MD1610211+9999REMSYN04801024 46/// /0901 10028 21003 30038 40051 56021=
0089010240999992016010114004+78650+016367FM-12+002099999V0200801N003019999999N999999999+00291+00011100391ADDMA1999999100261MD1610291+9999REMSYN04801024 46/// /0803 10029 20001 30026 40039 56029=
0089010240999992016010115004+78650+016367FM-12+002099999V0203101N001019999999N999999999+00171-00011100321ADDMA1999999100191MD1810301+9999REMSYN04801024 46/// /3101 10017 21001 30019 40032 58030=
0089010240999992016010116004+78650+016367FM-12+002099999V0203101N002019999999N999999999+00231+00001100281ADDMA1999999100151MD1810231+9999REMSYN04801024 46/// /3102 10023 20000 30015 40028 58023=
0089010240999992016010117004+78650+016367FM-12+002099999V0203101N002019999999N999999999+00271+00031100331ADDMA1999999100201MD1810061+9999REMSYN04801024 46/// /3102 10027 20003 30020 40033 58006=
0151010240999992016010118004+78650+016367FM-12+002099999V0203201N003019999999N999999999+00271+00041100311ADDKA1120M+00391MA1999999100181MD1790019+9999OD139900401999REMSYN06401024 46/// /3203 10027 20004 30018 40031 54001 333 10039 91104=EQDQ01.1    3APC3  
0089010240999992016010119004+78650+016367FM-12+002099999V0200401N001019999999N999999999+00241+00011100341ADDMA1999999100211MD1210061+9999REMSYN04801024 46/// /0401 10024 20001 30021 40034 52006=
0089010240999992016010120004+78650+016367FM-12+002099999V0200301N001019999999N999999999+00291+00131100431ADDMA1999999100301MD1110101+9999REMSYN04801024 46/// /0301 10029 20013 30030 40043 51010=
0089010240999992016010121004+78650+016367FM-12+002099999V0202201N003019999999N999999999+00311+00081100461ADDMA1999999100331MD1210151+9999REMSYN04801024 46/// /2203 10031 20008 30033 40046 52015=
0089010240999992016010122004+78650+016367FM-12+002099999V0202801N002019999999N999999999+00311+00081100571ADDMA1999999100441MD1210231+9999REMSYN04801024 46/// /2802 10031 20008 30044 40057 52023=
0089010240999992016010123004+78650+016367FM-12+002099999V0203201N002019999999N999999999+00331+00151100671ADDMA1999999100541MD1110241+9999REMSYN04801024 46/// /3202 10033 20015 30054 40067 51024=
0089010240999992016010201004+78650+016367FM-12+002099999V0202201N007019999999N999999999+00531+00161100731ADDMA1999999100601MD1310161+9999REMSYN04801024 46/// /2207 10053 20016 30060 40073 53016=
0089010240999992016010202004+78650+016367FM-12+002099999V0203301N001019999999N999999999+00371+00111100761ADDMA1999999100631MD1210091+9999REMSYN04801024 46/// /3301 10037 20011 30063 40076 52009=
0089010240999992016010203004+78650+016367FM-12+002099999V0200801N001019999999N999999999+00341+00131100721ADDMA1999999100591MD1510001+9999REMSYN04801024 46/// /0801 10034 20013 30059 40072 55000=
0089010240999992016010204004+78650+016367FM-12+002099999V0203101N002019999999N999999999+00281+00121100671ADDMA1999999100541MD1610061+9999REMSYN04801024 46/// /3102 10028 20012 30054 40067 56006=
0089010240999992016010205004+78650+016367FM-12+002099999V0203601N001019999999N999999999+00261+00081100611ADDMA1999999100481MD1710141+9999REMSYN04801024 46/// /3601 10026 20008 30048 40061 57014=
0113010240999992016010206004+78650+016367FM-12+002099999V0203301N003019999999N999999999+00301+00071100621ADDMA1999999100491MD1810091+9999OD139900901999REMSYN05801024 46/// /3303 10030 20007 30049 40062 58009 333 91109=
0089010240999992016010207004+78650+016367FM-12+002099999V0203501N001019999999N999999999+00311+00031100531ADDMA1999999100401MD1610141+9999REMSYN04801024 46/// /3501 10031 20003 30040 40053 56014=
0089010240999992016010208004+78650+016367FM-12+002099999V0203201N002019999999N999999999+00251+00061100391ADDMA1999999100261MD1610221+9999REMSYN04801024 46/// /3202 10025 20006 30026 40039 56022=
0089010240999992016010209004+78650+016367FM-12+002099999V0202801N001019999999N999999999+00211+00021100351ADDMA1999999100221MD1810271+9999REMSYN04801024 46/// /2801 10021 20002 30022 40035 58027=
0089010240999992016010210004+78650+016367FM-12+002099999V0203101N001019999999N999999999+00321-00041100331ADDMA1999999100201MD1810201+9999REMSYN04801024 46/// /3101 10032 21004 30020 40033 58020=
0089010240999992016010211004+78650+016367FM-12+002099999V0203201N001019999999N999999999+00251-00021100331ADDMA1999999100201MD1810061+9999REMSYN04801024 46/// /3201 10025 21002 30020 40033 58006=
0113010240999992016010212004+78650+016367FM-12+002099999V0203201N001019999999N999999999+00161+00031100361ADDMA1999999100231MD1990011+9999OD139900401999REMSYN05801024 46/// /3201 10016 20003 30023 40036 50001 333 91104=
0089010240999992016010213004+78650+016367FM-12+002099999V0203101N002019999999N999999999+00051-00031100511ADDMA1999999100381MD1110181+9999REMSYN04801024 46/// /3102 10005 21003 30038 40051 51018=
0089010240999992016010214004+78650+016367FM-12+002099999V0200801N001019999999N999999999+00041-00031100681ADDMA1999999100541MD1110341+9999REMSYN04801024 46/// /0801 10004 21003 30054 40068 51034=
0089010240999992016010215004+78650+016367FM-12+002099999V0203101N005019999999N999999999+00181+00001100851ADDMA1999999100721MD1210491+9999REMSYN04801024 46/// /3105 10018 20000 30072 40085 52049=
0089010240999992016010216004+78650+016367FM-12+002099999V0203101N006019999999N999999999+00201+00021101041ADDMA1999999100911MD1210531+9999REMSYN04801024 46/// /3106 10020 20002 30091 40104 52053=
0089010240999992016010217004+78650+016367FM-12+002099999V0203201N006019999999N999999999+00201+00011101201ADDMA1999999101071MD1210531+9999REMSYN04801024 46/// /3206 10020 20001 30107 40120 52053=
0132010240999992016010218004+78650+016367FM-12+002099999V0203201N006019999999N999999999+00231+00041101391ADDKA1120M+00371MA1999999101261MD1210541+9999OD139900901999REMSYN06401024 46/// /3206 10023 20004 30126 40139 52054 333 10037 91109=
0089010240999992016010219004+78650+016367FM-12+002099999V0202601N010019999999N999999999+00301-00041101561ADDMA1999999101431MD1210521+9999REMSYN04801024 46/// /2610 10030 21004 30143 40156 52052=
0089010240999992016010220004+78650+016367FM-12+002099999V0202701N011019999999N999999999+00251-00041101711ADDMA1999999101581MD1210511+9999REMSYN04801024 46/// /2711 10025 21004 30158 40171 52051=
0089010240999992016010222004+78650+016367FM-12+002099999V0202701N006019999999N999999999+00291-00161102061ADDMA1999999101931MD1210511+9999REMSYN04801024 46/// /2706 10029 21016 30193 40206 52051=
0108010240999992016010301004+78650+016367FM-12+002099999V0200301N001019999999N999999999+00131+00031102091ADDMA1999999101961MD1290039+9999REMSYN04801024 46/// /0301 10013 20003 30196 40209 54003=EQDQ01.3    3APC3  
0089010240999992016010302004+78650+016367FM-12+002099999V0200901N001019999999N999999999+00211+00031102021ADDMA1999999101891MD1610081+9999REMSYN04801024 46/// /0901 10021 20003 30189 40202 56008=
0089010240999992016010303004+78650+016367FM-12+002099999V0202201N002019999999N999999999+00291+00051102021ADDMA1999999101881MD1710061+9999REMSYN04801024 46/// /2202 10029 20005 30188 40202 57006=
0089010240999992016010304004+78650+016367FM-12+002099999V0203301N001019999999N999999999+00361+00011101891ADDMA1999999101761MD1610201+9999REMSYN04801024 46/// /3301 10036 20001 30176 40189 56020=
0089010240999992016010305004+78650+016367FM-12+002099999V0202901N003019999999N999999999+00431-00011101811ADDMA1999999101671MD1610221+9999REMSYN04801024 46/// /2903 10043 21001 30167 40181 56022=
0113010240999992016010306004+78650+016367FM-12+002099999V0203001N001019999999N999999999+00421+00001101741ADDMA1999999101611MD1810281+9999OD139900401999REMSYN05801024 46/// /3001 10042 21000 30161 40174 58028 333 91104=
0089010240999992016010307004+78650+016367FM-12+002099999V0202401N002019999999N999999999+00401+00041101691ADDMA1999999101561MD1810201+9999REMSYN04801024 46/// /2402 10040 20004 30156 40169 58020=
0089010240999992016010308004+78650+016367FM-12+002099999V0202401N002019999999N999999999+00451-00011101581ADDMA1999999101451MD1610221+9999REMSYN04801024 46/// /2402 10045 21001 30145 40158 56022=
0089010240999992016010309004+78650+016367FM-12+002099999V0202101N006019999999N999999999+00511-00111101531ADDMA1999999101401MD1710211+9999REMSYN04801024 46/// /2106 10051 21011 30140 40153 57021=
0089010240999992016010310004+78650+016367FM-12+002099999V0202001N003019999999N999999999+00451-00031101461ADDMA1999999101331MD1810231+9999REMSYN04801024 46/// /2003 10045 21003 30133 40146 58023=
0089010240999992016010311004+78650+016367FM-12+002099999V0202301N005019999999N999999999+00421+00051101401ADDMA1999999101271MD1710181+9999REMSYN04801024 46/// /2305 10042 20005 30127 40140 57018=
0113010240999992016010312004+78650+016367FM-12+002099999V0202601N004019999999N999999999+00501+00021101321ADDMA1999999101191MD1710211+9999OD139901101999REMSYN05801024 46/// /2604 10050 20002 30119 40132 57021 333 91111=
0089010240999992016010313004+78650+016367FM-12+002099999V0203201N001019999999N999999999+00461+00081101251ADDMA1999999101121MD1710211+9999REMSYN04801024 46/// /3201 10046 20008 30112 40125 57021=
0089010240999992016010314004+78650+016367FM-12+002099999V0202301N004019999999N999999999+00401+00071101231ADDMA1999999101101MD1810171+9999REMSYN04801024 46/// /2304 10040 20007 30110 40123 58017=
0089010240999992016010315004+78650+016367FM-12+002099999V0202501N008019999999N999999999+00481+00091101161ADDMA1999999101031MD1710151+9999REMSYN04801024 46/// /2508 10048 20009 30103 40116 57015=
0089010240999992016010316004+78650+016367FM-12+002099999V0202701N011019999999N999999999+00381+00001101201ADDMA1999999101071MD1810051+9999REMSYN04801024 46/// /2711 10038 21000 30107 40120 58005=
0089010240999992016010317004+78650+016367FM-12+002099999V0202701N010019999999N999999999+00291-00261101301ADDMA1999999101171MD1990061+9999REMSYN04801024 46/// /2710 10029 21026 30117 40130 50006=
0132010240999992016010318004+78650+016367FM-12+002099999V0202401N007019999999N999999999+00361-00301101301ADDKA1120M+00531MA1999999101161MD1310131+9999OD139901501999REMSYN06401024 46/// /2407 10036 21030 30116 40130 53013 333 10053 91115=
0089010240999992016010319004+78650+016367FM-12+002099999V0202401N005019999999N999999999+00321-00211101341ADDMA1999999101211MD1310131+9999REMSYN04801024 46/// /2405 10032 21021 30121 40134 53013=
0089010240999992016010320004+78650+016367FM-12+002099999V0202701N009019999999N999999999+00291-00221101351ADDMA1999999101221MD1210051+9999REMSYN04801024 46/// /2709 10029 21022 30122 40135 52005=
0089010240999992016010321004+78650+016367FM-12+002099999V0202801N005019999999N999999999+00201-00271101371ADDMA1999999101241MD1210081+9999REMSYN04801024 46/// /2805 10020 21027 30124 40137 52008=
0059010240999992016010323004+78656+016356FM-12+002099999V0202961N0033199999999999999999+00041-00421101441ADDMA1999999101311MD1210091+9999OD130100671999REMSYN004BUFR
0089010240999992016010400004+78650+016367FM-12+002099999V0203101N005019999999N999999999+00001-00441101421ADDMA1999999101281MD1310041+9999REMSYN04801024 46/// /3105 10000 21044 30128 40142 53004=
0094010240999992016010401004+78650+016367FM-12+002099999V0203101N003019999999N999999999-00031-00491101451ADDMA1999999101311REMSYN04801024 46/// /3103 11003 21049 30131 40145 54003=EQDQ014     3APCTEN
0108010240999992016010402004+78650+016367FM-12+002099999V0203001N003019999999N999999999-00101-00511101431ADDMA1999999101301MD1790019+9999REMSYN04801024 46/// /3003 11010 21051 30130 40143 54001=EQDQ014     3APCTEN
0089010240999992016010403004+78650+016367FM-12+002099999V0202901N003019999999N999999999-00081-00521101421ADDMA1999999101281MD1510001+9999REMSYN04801024 46/// /2903 11008 21052 30128 40142 55000=
0089010240999992016010404004+78650+016367FM-12+002099999V0202801N002019999999N999999999-00091-00551101411ADDMA1999999101271MD1710041+9999REMSYN04801024 46/// /2802 11009 21055 30127 40141 57004=
0089010240999992016010406004+78650+016367FM-12+002099999V0203001N003019999999N999999999-00081-00501101451ADDMA1999999101321MD1110031+9999REMSYN04801024 46/// /3003 11008 21050 30132 40145 51003=
0089010240999992016010407004+78650+016367FM-12+002099999V0203001N002019999999N999999999-00081-00541101481ADDMA1999999101341MD1210071+9999REMSYN04801024 46/// /3002 11008 21054 30134 40148 52007=
0089010240999992016010408004+78650+016367FM-12+002099999V0203001N003019999999N999999999-00061-00481101501ADDMA1999999101371MD1210081+9999REMSYN04801024 46/// /3003 11006 21048 30137 40150 52008=
0089010240999992016010409004+78650+016367FM-12+002099999V0203001N002019999999N999999999-00071-00481101531ADDMA1999999101401MD1210081+9999REMSYN04801024 46/// /3002 11007 21048 30140 40153 52008=
0089010240999992016010410004+78650+016367FM-12+002099999V0203201N003019999999N999999999-00071-00481101531ADDMA1999999101391MD1210051+9999REMSYN04801024 46/// /3203 11007 21048 30139 40153 52005=
0108010240999992016010411004+78650+016367FM-12+002099999V0203101N003019999999N999999999-00081-00451101531ADDMA1999999101401MD1290039+9999REMSYN04801024 46/// /3103 11008 21045 30140 40153 54003=EQDQ01.3    3APC3  
0113010240999992016010412004+78650+016367FM-12+002099999V0203101N003019999999N999999999-00121-00391101561ADDMA1999999101431MD1990031+9999OD139900501999REMSYN05801024 46/// /3103 11012 21039 30143 40156 50003 333 91105=
0089010240999992016010413004+78650+016367FM-12+002099999V0203201N002019999999N999999999-00111-00381101611ADDMA1999999101481MD1110081+9999REMSYN04801024 46/// /3202 11011 21038 30148 40161 51008=
0089010240999992016010414004+78650+016367FM-12+002099999V0209999C999999999999N999999999-00121-00431101611ADDMA1999999101471MD1310081+9999REMSYN04801024 46/// /0000 11012 21043 30147 40161 53008=
0089010240999992016010415004+78650+016367FM-12+002099999V0203001N001019999999N999999999-00101-00461101631ADDMA1999999101501MD1210081+9999REMSYN04801024 46/// /3001 11010 21046 30150 40163 52008=
0089010240999992016010416004+78650+016367FM-12+002099999V0203101N002019999999N999999999-00081-00501101681ADDMA1999999101551MD1110071+9999REMSYN04801024 46/// /3102 11008 21050 30155 40168 51007=
0089010240999992016010417004+78650+016367FM-12+002099999V0203101N003019999999N999999999-00091-00511101711ADDMA1999999101571MD1210101+9999REMSYN04801024 46/// /3103 11009 21051 30157 40171 52010=
0132010240999992016010418004+78650+016367FM-12+002099999V0202701N002019999999N999999999-00071-00431101731ADDKA1120M-00061MA1999999101601MD1210101+9999OD139900501999REMSYN06401024 46/// /2702 11007 21043 30160 40173 52010 333 11006 91105=
0089010240999992016010419004+78650+016367FM-12+002099999V0203001N003019999999N999999999-00101-00491101781ADDMA1999999101651MD1210101+9999REMSYN04801024 46/// /3003 11010 21049 30165 40178 52010=
0089010240999992016010420004+78650+016367FM-12+002099999V0203001N002019999999N999999999-00121-00541101831ADDMA1999999101691MD1210121+9999REMSYN04801024 46/// /3002 11012 21054 30169 40183 52012=
0089010240999992016010421004+78650+016367FM-12+002099999V0203101N002019999999N999999999-00131-00571101891ADDMA1999999101751MD1210151+9999REMSYN04801024 46/// /3102 11013 21057 30175 40189 52015=
0089010240999992016010422004+78650+016367FM-12+002099999V0202901N003019999999N999999999-00141-00681101921ADDMA1999999101791MD1210141+9999REMSYN04801024 46/// /2903 11014 21068 30179 40192 52014=
0089010240999992016010423004+78650+016367FM-12+002099999V0202701N003019999999N999999999-00261-00691101961ADDMA1999999101831MD1210131+9999REMSYN04801024 46/// /2703 11026 21069 30183 40196 52013=
0113010240999992016010500004+78650+016367FM-12+002099999V0203001N003019999999N999999999-00311-00781102011ADDMA1999999101871MD1210121+9999OD139900601999REMSYN05801024 46/// /3003 11031 21078 30187 40201 52012 333 91106=
0089010240999992016010501004+78650+016367FM-12+002099999V0203401N003019999999N999999999-00321-00841102061ADDMA1999999101921MD1210141+9999REMSYN04801024 46/// /3403 11032 21084 30192 40206 52014=
0089010240999992016010502004+78650+016367FM-12+002099999V0203201N001019999999N999999999-00421-00921102091ADDMA1999999101961MD1210131+9999REMSYN04801024 46/// /3201 11042 21092 30196 40209 52013=
0089010240999992016010504004+78650+016367FM-12+002099999V0203101N002019999999N999999999-00541-00951102151ADDMA1999999102011MD1210091+9999REMSYN04801024 46/// /3102 11054 21095 30201 40215 52009=
0089010240999992016010505004+78650+016367FM-12+002099999V0203201N002019999999N999999999-00521-00951102171ADDMA1999999102031MD1210081+9999REMSYN04801024 46/// /3202 11052 21095 30203 40217 52008=
0089010240999992016010506004+78650+016367FM-12+002099999V0203101N001019999999N999999999-00531-00911102211ADDMA1999999102071MD1210091+9999REMSYN04801024 46/// /3101 11053 21091 30207 40221 52009=
0089010240999992016010507004+78650+016367FM-12+002099999V0203201N003019999999N999999999-00441-00851102221ADDMA1999999102081MD1210071+9999REMSYN04801024 46/// /3203 11044 21085 30208 40222 52007=
0089010240999992016010508004+78650+016367FM-12+002099999V0203301N003019999999N999999999-00441-00841102251ADDMA1999999102111MD1210081+9999REMSYN04801024 46/// /3303 11044 21084 30211 40225 52008=
0089010240999992016010509004+78650+016367FM-12+002099999V0203001N003019999999N999999999-00501-00831102271ADDMA1999999102131MD1210061+9999REMSYN04801024 46/// /3003 11050 21083 30213 40227 52006=
0089010240999992016010510004+78650+016367FM-12+002099999V0203101N004019999999N999999999-00491-00821102271ADDMA1999999102131MD1210051+9999REMSYN04801024 46/// /3104 11049 21082 30213 40227 52005=
0108010240999992016010511004+78650+016367FM-12+002099999V0202901N003019999999N999999999-00511-00801102261ADDMA1999999102131MD1290019+9999REMSYN04801024 46/// /2903 11051 21080 30213 40226 54002=EQDQ01.2    3APC3  
0132010240999992016010512004+78650+016367FM-12+002099999V0203001N003019999999N999999999-00531-00791102241ADDMA1999999102101MD1790039+9999OD139900501999REMSYN05801024 46/// /3003 11053 21079 30210 40224 54003 333 91105=EQDQ01.3    3APC3  
0108010240999992016010513004+78650+016367FM-12+002099999V0202901N004019999999N999999999-00571-00831102241ADDMA1999999102101MD1790039+9999REMSYN04801024 46/// /2904 11057 21083 30210 40224 54003=EQDQ01.3    3APC3  
0089010240999992016010514004+78650+016367FM-12+002099999V0203101N003019999999N999999999-00601-00871102251ADDMA1999999102111MD1990021+9999REMSYN04801024 46/// /3103 11060 21087 30211 40225 50002=
0089010240999992016010515004+78650+016367FM-12+002099999V0203101N003019999999N999999999-00601-00891102241ADDMA1999999102111MD1410001+9999REMSYN04801024 46/// /3103 11060 21089 30211 40224 54000=
0108010240999992016010516004+78650+016367FM-12+002099999V0203001N004019999999N999999999-00651-00891102221ADDMA1999999102091MD1790029+9999REMSYN04801024 46/// /3004 11065 21089 30209 40222 54002=EQDQ01.2    3APC3  
0089010240999992016010517004+78650+016367FM-12+002099999V0203001N002019999999N999999999-00641-00911102211ADDMA1999999102071MD1710041+9999REMSYN04801024 46/// /3002 11064 21091 30207 40221 57004=
0132010240999992016010518004+78650+016367FM-12+002099999V0202901N003019999999N999999999-00721-01001102191ADDKA1120M-00431MA1999999102061MD1710051+9999OD139900501999REMSYN06401024 46/// /2903 11072 21100 30206 40219 57005 333 11043 91105=
0089010240999992016010519004+78650+016367FM-12+002099999V0203201N003019999999N999999999-00701-00911102191ADDMA1999999102051MD1710041+9999REMSYN04801024 46/// /3203 11070 21091 30205 40219 57004=
0089010240999992016010520004+78650+016367FM-12+002099999V0203401N003019999999N999999999-00721-00921102171ADDMA1999999102031MD1710041+9999REMSYN04801024 46/// /3403 11072 21092 30203 40217 57004=
0089010240999992016010521004+78650+016367FM-12+002099999V0203101N003019999999N999999999-00781-00951102151ADDMA1999999102021MD1710041+9999REMSYN04801024 46/// /3103 11078 21095 30202 40215 57004=
0089010240999992016010522004+78650+016367FM-12+002099999V0202901N002019999999N999999999-00801-01071102141ADDMA1999999102001MD1710051+9999REMSYN04801024 46/// /2902 11080 21107 30200 40214 57005=
0089010240999992016010601004+78650+016367FM-12+002099999V0202801N002019999999N999999999-00941-01231102061ADDMA1999999101921MD1710081+9999REMSYN04801024 46/// /2802 11094 21123 30192 40206 57008=
0089010240999992016010602004+78650+016367FM-12+002099999V0203001N001019999999N999999999-00951-01211102041ADDMA1999999101901MD1710061+9999REMSYN04801024 46/// /3001 11095 21121 30190 40204 57006=
0089010240999992016010603004+78650+016367FM-12+002099999V0203001N001019999999N999999999-01001-01281102031ADDMA1999999101901MD1710051+9999REMSYN04801024 46/// /3001 11100 21128 30190 40203 57005=
0089010240999992016010604004+78650+016367FM-12+002099999V0202901N002019999999N999999999-00991-01271101991ADDMA1999999101861MD1710061+9999REMSYN04801024 46/// /2902 11099 21127 30186 40199 57006=
0089010240999992016010605004+78650+016367FM-12+002099999V0202801N003019999999N999999999-01001-01281101951ADDMA1999999101811MD1610091+9999REMSYN04801024 46/// /2803 11100 21128 30181 40195 56009=
0113010240999992016010606004+78650+016367FM-12+002099999V0203001N002019999999N999999999-01001-01291101941ADDMA1999999101801MD1810091+9999OD139900401999REMSYN05801024 46/// /3002 11100 21129 30180 40194 58009 333 91104=
0089010240999992016010607004+78650+016367FM-12+002099999V0209999C999999999999N999999999-00961-01241101941ADDMA1999999101801MD1810051+9999REMSYN04801024 46/// /0000 11096 21124 30180 40194 58005=
0108010240999992016010608004+78650+016367FM-12+002099999V0202901N001019999999N999999999-00951-01261101961ADDMA1999999101821MD1290019+9999REMSYN04801024 46/// /2901 11095 21126 30182 40196 54001=EQDQ01.1    3APC3  
0108010240999992016010609004+78650+016367FM-12+002099999V0202801N001019999999N999999999-00951-01241101951ADDMA1999999101811MD1290019+9999REMSYN04801024 46/// /2801 11095 21124 30181 40195 54001=EQDQ01.1    3APC3  
0089010240999992016010610004+78650+016367FM-12+002099999V0203101N001019999999N999999999-00921-01211101941ADDMA1999999101801MD1410001+9999REMSYN04801024 46/// /3101 11092 21121 30180 40194 54000=
0089010240999992016010611004+78650+016367FM-12+002099999V0203101N002019999999N999999999-00951-01271101931ADDMA1999999101791MD1710031+9999REMSYN04801024 46/// /3102 11095 21127 30179 40193 57003=
0113010240999992016010612004+78650+016367FM-12+002099999V0203001N001019999999N999999999-00951-01241101911ADDMA1999999101781MD1710031+9999OD139900301999REMSYN05801024 46/// /3001 11095 21124 30178 40191 57003 333 91103=
0108010240999992016010613004+78650+016367FM-12+002099999V0203001N001019999999N999999999-00961-01281101911ADDMA1999999101771MD1790039+9999REMSYN04801024 46/// /3001 11096 21128 30177 40191 54003=EQDQ01.3    3APC3  
0108010240999992016010614004+78650+016367FM-12+002099999V0203201N002019999999N999999999-00991-01331101901ADDMA1999999101771MD1790039+9999REMSYN04801024 46/// /3202 11099 21133 30177 40190 54002=EQDQ01.2    3APC3  
0108010240999992016010615004+78650+016367FM-12+002099999V0209999C999999999999N999999999-01001-01291101931ADDMA1999999101791MD1290029+9999REMSYN04801024 46/// /0000 11100 21129 30179 40193 54001=EQDQ01.1    3APC3  
0089010240999992016010616004+78650+016367FM-12+002099999V0203201N001019999999N999999999-00981-01261101951ADDMA1999999101811MD1210031+9999REMSYN04801024 46/// /3201 11098 21126 30181 40195 52003=
0089010240999992016010617004+78650+016367FM-12+002099999V0203301N001019999999N999999999-01051-01351101961ADDMA1999999101821MD1210051+9999REMSYN04801024 46/// /3301 11105 21135 30182 40196 52005=
0132010240999992016010618004+78650+016367FM-12+002099999V0203301N001019999999N999999999-01001-01311101991ADDKA1120M-00891MA1999999101851MD1210061+9999OD139900301999REMSYN06401024 46/// /3301 11100 21131 30185 40199 52006 333 11089 91103=
0089010240999992016010619004+78650+016367FM-12+002099999V0203101N001019999999N999999999-01021-01401102011ADDMA1999999101871MD1210061+9999REMSYN04801024 46/// /3101 11102 21140 30187 40201 52006=
0089010240999992016010620004+78650+016367FM-12+002099999V0202901N001019999999N999999999-00991-01391102041ADDMA1999999101901MD1210081+9999REMSYN04801024 46/// /2901 11099 21139 30190 40204 52008=
0089010240999992016010621004+78650+016367FM-12+002099999V0202901N001019999999N999999999-01011-01391102061ADDMA1999999101921MD1210071+9999REMSYN04801024 46/// /2901 11101 21139 30192 40206 52007=
0045010240999992016010623004+78656+016356FM-12+002099999V0202931N0009199999999999999999-00921-01341102091ADDMA1999999101951MD1210051+9999REMSYN004BUFR
0089010240999992016010700004+78650+016367FM-12+002099999V0209999C999999999999N999999999-00911-01371102101ADDMA1999999101961MD1210041+9999REMSYN04801024 46/// /0000 11091 21137 30196 40210 52004=
0089010240999992016010701004+78650+016367FM-12+002099999V0203301N001019999999N999999999-00801-01341102121ADDMA1999999101981MD1210051+9999REMSYN04801024 46/// /3301 11080 21134 30198 40212 52005=
0089010240999992016010702004+78650+016367FM-12+002099999V0200701N001019999999N999999999-00781-01371102141ADDMA1999999102001MD1210051+9999REMSYN04801024 46/// /0701 11078 21137 30200 40214 52005=
0089010240999992016010703004+78650+016367FM-12+002099999V0200901N001019999999N999999999-00821-01341102151ADDMA1999999102011MD1210051+9999REMSYN04801024 46/// /0901 11082 21134 30201 40215 52005=
0089010240999992016010704004+78650+016367FM-12+002099999V0209999C999999999999N999999999-00691-01321102151ADDMA1999999102021MD1210031+9999REMSYN04801024 46/// /0000 11069 21132 30202 40215 52003=
0089010240999992016010706004+78650+016367FM-12+002099999V0200301N003019999999N999999999-00601-01381102211ADDMA1999999102071MD1110061+9999REMSYN04801024 46/// /0303 11060 21138 30207 40221 51006=
0089010240999992016010707004+78650+016367FM-12+002099999V0200801N004019999999N999999999-00661-01371102231ADDMA1999999102091MD1210081+9999REMSYN04801024 46/// /0804 11066 21137 30209 40223 52008=
0089010240999992016010708004+78650+016367FM-12+002099999V0200901N003019999999N999999999-00641-01331102261ADDMA1999999102131MD1210101+9999REMSYN04801024 46/// /0903 11064 21133 30213 40226 52010=
0089010240999992016010709004+78650+016367FM-12+002099999V0200801N005019999999N999999999-00651-01391102301ADDMA1999999102161MD1210091+9999REMSYN04801024 46/// /0805 11065 21139 30216 40230 52009=
0089010240999992016010710004+78650+016367FM-12+002099999V0200501N004019999999N999999999-00631-01501102311ADDMA1999999102181MD1210081+9999REMSYN04801024 46/// /0504 11063 21150 30218 40231 52008=
0089010240999992016010711004+78650+016367FM-12+002099999V0200501N003019999999N999999999-00631-01601102331ADDMA1999999102191MD1210061+9999REMSYN04801024 46/// /0503 11063 21160 30219 40233 52006=
0132010240999992016010712004+78650+016367FM-12+002099999V0200501N004019999999N999999999-00671-01611102311ADDMA1999999102181MD1290019+9999OD139900801999REMSYN05801024 46/// /0504 11067 21161 30218 40231 54002 333 91108=EQDQ01.2    3APC3  
0108010240999992016010713004+78650+016367FM-12+002099999V0200401N004019999999N999999999-00701-01431102341ADDMA1999999102201MD1290039+9999REMSYN04801024 46/// /0404 11070 21143 30220 40234 54003=EQDQ01.3    3APC3  
0108010240999992016010714004+78650+016367FM-12+002099999V0200401N004019999999N999999999-00701-01521102341ADDMA1999999102201MD1290019+9999REMSYN04801024 46/// /0404 11070 21152 30220 40234 54001=EQDQ01.1    3APC3  
0089010240999992016010715004+78650+016367FM-12+002099999V0200301N002019999999N999999999-00731-01571102331ADDMA1999999102191MD1510011+9999REMSYN04801024 46/// /0302 11073 21157 30219 40233 55001=
0089010240999992016010716004+78650+016367FM-12+002099999V0200101N003019999999N999999999-00771-01591102341ADDMA1999999102201MD1410001+9999REMSYN04801024 46/// /0103 11077 21159 30220 40234 54000=
0108010240999992016010717004+78650+016367FM-12+002099999V0200401N005019999999N999999999-00841-01721102321ADDMA1999999102191MD1790029+9999REMSYN04801024 46/// /0405 11084 21172 30219 40232 54002=EQDQ01.2    3APC3  
0132010240999992016010718004+78650+016367FM-12+002099999V0200501N003019999999N999999999-00901-01711102331ADDKA1120M-00601MA1999999102191MD1410001+9999OD139900801999REMSYN06401024 46/// /0503 11090 21171 30219 40233 54000 333 11060 91108=
0089010240999992016010719004+78650+016367FM-12+002099999V0200401N004019999999N999999999-01001-01921102341ADDMA1999999102201MD1410001+9999REMSYN04801024 46/// /0404 11100 21192 30220 40234 54000=
0108010240999992016010720004+78650+016367FM-12+002099999V0200201N003019999999N999999999-01051-01921102341ADDMA1999999102201MD1290029+9999REMSYN04801024 46/// /0203 11105 21192 30220 40234 54002=EQDQ01.2    3APC3  
0089010240999992016010721004+78650+016367FM-12+002099999V0200401N003019999999N999999999-01061-01901102291ADDMA1999999102151MD1610051+9999REMSYN04801024 46/// /0403 11106 21190 30215 40229 56005=
0089010240999992016010722004+78650+016367FM-12+002099999V0200501N003019999999N999999999-01091-01891102261ADDMA1999999102121MD1610081+9999REMSYN04801024 46/// /0503 11109 21189 30212 40226 56008=
0089010240999992016010723004+78650+016367FM-12+002099999V0200301N003019999999N999999999-01081-01941102241ADDMA1999999102101MD1810101+9999REMSYN04801024 46/// /0303 11108 21194 30210 40224 58010=
0113010240999992016010800004+78650+016367FM-12+002099999V0200301N002019999999N999999999-01101-01961102201ADDMA1999999102061MD1710081+9999OD139900701999REMSYN05801024 46/// /0302 11110 21196 30206 40220 57008 333 91107=
0089010240999992016010801004+78650+016367FM-12+002099999V0203001N001019999999N999999999-01241-01851102191ADDMA1999999102051MD1710061+9999REMSYN04801024 46/// /3001 11124 21185 30205 40219 57006=
0089010240999992016010802004+78650+016367FM-12+002099999V0203201N001019999999N999999999-01301-01851102151ADDMA1999999102011MD1710091+9999REMSYN04801024 46/// /3201 11130 21185 30201 40215 57009=
0089010240999992016010804004+78650+016367FM-12+002099999V0203301N001019999999N999999999-01261-01851102071ADDMA1999999101931MD1710121+9999REMSYN04801024 46/// /3301 11126 21185 30193 40207 57012=
0089010240999992016010805004+78650+016367FM-12+002099999V0203001N002019999999N999999999-01111-01781102011ADDMA1999999101871MD1710141+9999REMSYN04801024 46/// /3002 11111 21178 30187 40201 57014=
0089010240999992016010806004+78650+016367FM-12+002099999V0200801N002019999999N999999999-01001-01721101981ADDMA1999999101841MD1710131+9999REMSYN04801024 46/// /0802 11100 21172 30184 40198 57013=
0089010240999992016010807004+78650+016367FM-12+002099999V0200901N003019999999N999999999-00941-01661101951ADDMA1999999101821MD1810121+9999REMSYN04801024 46/// /0903 11094 21166 30182 40195 58012=
0089010240999992016010808004+78650+016367FM-12+002099999V0200901N005019999999N999999999-00891-01551101961ADDMA1999999101821MD1810051+9999REMSYN04801024 46/// /0905 11089 21155 30182 40196 58005=
0108010240999992016010809004+78650+016367FM-12+002099999V0200701N003019999999N999999999-00881-01471101961ADDMA1999999101831MD1790029+9999REMSYN04801024 46/// /0703 11088 21147 30183 40196 54001=EQDQ01.1    3APC3  
0089010240999992016010810004+78650+016367FM-12+002099999V0200701N002019999999N999999999-00861-01391101951ADDMA1999999101811MD1410001+9999REMSYN04801024 46/// /0702 11086 21139 30181 40195 54000=
0108010240999992016010811004+78650+016367FM-12+002099999V0200701N002019999999N999999999-00821-01371101941ADDMA1999999101801MD1790029+9999REMSYN04801024 46/// /0702 11082 21137 30180 40194 54002=EQDQ01.2    3APC3  
0132010240999992016010812004+78650+016367FM-12+002099999V0200801N003019999999N999999999-00791-01381101931ADDMA1999999101801MD1790039+9999OD139900701999REMSYN05801024 46/// /0803 11079 21138 30180 40193 54003 333 91107=EQDQ01.3    3APC3  
0108010240999992016010813004+78650+016367FM-12+002099999V0200801N004019999999N999999999-00741-01371101941ADDMA1999999101801MD1790019+9999REMSYN04801024 46/// /0804 11074 21137 30180 40194 54001=EQDQ01.1    3APC3  
0089010240999992016010814004+78650+016367FM-12+002099999V0201001N006019999999N999999999-00721-01331101941ADDMA1999999101811MD1410001+9999REMSYN04801024 46/// /1006 11072 21133 30181 40194 54000=
0108010240999992016010815004+78650+016367FM-12+002099999V0201001N006019999999N999999999-00721-01331101951ADDMA1999999101811MD1290029+9999REMSYN04801024 46/// /1006 11072 21133 30181 40195 54002=EQDQ01.2    3APC3  
0108010240999992016010816004+78650+016367FM-12+002099999V0201001N007019999999N999999999-00721-01311101961ADDMA1999999101821MD1290029+9999REMSYN04801024 46/// /1007 11072 21131 30182 40196 54002=EQDQ01.2    3APC3  
0108010240999992016010817004+78650+016367FM-12+002099999V0201001N008019999999N999999999-00731-01361101961ADDMA1999999101821MD1290029+9999REMSYN04801024 46/// /1008 11073 21136 30182 40196 54002=EQDQ01.2    3APC3  
0151010240999992016010818004+78650+016367FM-12+002099999V0201101N007019999999N999999999-00721-01391101981ADDKA1120M-00701MA1999999101841MD1290039+9999OD139901001999REMSYN06401024 46/// /1107 11072 21139 30184 40198 54003 333 11070 91110=EQDQ01.3    3APC3  
0089010240999992016010819004+78650+016367FM-12+002099999V0201101N007019999999N999999999-00711-01361102001ADDMA1999999101871MD1210051+9999REMSYN04801024 46/// /1107 11071 21136 30187 40200 52005=
0089010240999992016010820004+78650+016367FM-12+002099999V0200701N004019999999N999999999-00701-01411102031ADDMA1999999101891MD1210071+9999REMSYN04801024 46/// /0704 11070 21141 30189 40203 52007=
0089010240999992016010821004+78650+016367FM-12+002099999V0200801N005019999999N999999999-00691-01341102051ADDMA1999999101911MD1210071+9999REMSYN04801024 46/// /0805 11069 21134 30191 40205 52007=
0089010240999992016010822004+78650+016367FM-12+002099999V0200801N006019999999N999999999-00711-01251102051ADDMA1999999101921MD1210051+9999REMSYN04801024 46/// /0806 11071 21125 30192 40205 52005=
0089010240999992016010823004+78650+016367FM-12+002099999V0200701N004019999999N999999999-00701-01311102071ADDMA1999999101941MD1210041+9999REMSYN04801024 46/// /0704 11070 21131 30194 40207 52004=
0089010240999992016010904004+78650+016367FM-12+002099999V0200801N005019999999N999999999-00731-01321102141ADDMA1999999102001MD1210061+9999REMSYN04801024 46/// /0805 11073 21132 30200 40214 52006=
0089010240999992016010905004+78650+016367FM-12+002099999V0200601N004019999999N999999999-00751-01361102151ADDMA1999999102021MD1210041+9999REMSYN04801024 46/// /0604 11075 21136 30202 40215 52004=
0094010240999992016010906004+78650+016367FM-12+002099999V0200601N003019999999N999999999-00781-01351102161ADDMA1999999102021REMSYN04801024 46/// /0603 11078 21135 30202 40216 54002=EQDQ014     3APCTEN
0108010240999992016010907004+78650+016367FM-12+002099999V0202901N001019999999N999999999-00961-01451102161ADDMA1999999102031MD1290029+9999REMSYN04801024 46/// /2901 11096 21145 30203 40216 54002=EQDQ01.2    3APC3  
0089010240999992016010908004+78650+016367FM-12+002099999V0203101N001019999999N999999999-00941-01451102191ADDMA1999999102051MD1210041+9999REMSYN04801024 46/// /3101 11094 21145 30205 40219 52004=
0089010240999992016010909004+78650+016367FM-12+002099999V0203201N001019999999N999999999-00961-01451102191ADDMA1999999102051MD1210041+9999REMSYN04801024 46/// /3201 11096 21145 30205 40219 52004=
0089010240999992016010910004+78650+016367FM-12+002099999V0203001N002019999999N999999999-00891-01391102181ADDMA1999999102041MD1510011+9999REMSYN04801024 46/// /3002 11089 21139 30204 40218 55001=
0108010240999992016010911004+78650+016367FM-12+002099999V0202901N001019999999N999999999-00861-01391102181ADDMA1999999102041MD1790019+9999REMSYN04801024 46/// /2901 11086 21139 30204 40218 54001=EQDQ01.1    3APC3  
0113010240999992016010912004+78650+016367FM-12+002099999V0200801N004019999999N999999999-00681-01261102191ADDMA1999999102051MD1410001+9999OD139900601999REMSYN05801024 46/// /0804 11068 21126 30205 40219 54000 333 91106=
0108010240999992016010913004+78650+016367FM-12+002099999V0200901N005019999999N999999999-00721-01241102181ADDMA1999999102051MD1410009+9999REMSYN04801024 46/// /0905 11072 21124 30205 40218 54001=EQDQ01.1    3APC3  
0108010240999992016010914004+78650+016367FM-12+002099999V0200801N004019999999N999999999-00691-01321102171ADDMA1999999102031MD1790019+9999REMSYN04801024 46/// /0804 11069 21132 30203 40217 54001=EQDQ01.1    3APC3  
0108010240999992016010915004+78650+016367FM-12+002099999V0200701N004019999999N999999999-00711-01361102171ADDMA1999999102041MD1790029+9999REMSYN04801024 46/// /0704 11071 21136 30204 40217 54002=EQDQ01.2    3APC3  
0108010240999992016010916004+78650+016367FM-12+002099999V0200701N002019999999N999999999-00701-01391102171ADDMA1999999102031MD1790019+9999REMSYN04801024 46/// /0702 11070 21139 30203 40217 54002=EQDQ01.2    3APC3  
0089010240999992016010917004+78650+016367FM-12+002099999V0202201N001019999999N999999999-00871-01391102171ADDMA1999999102031MD1410001+9999REMSYN04801024 46/// /2201 11087 21139 30203 40217 54000=
0151010240999992016010918004+78650+016367FM-12+002099999V0200701N003019999999N999999999-00691-01301102161ADDKA1120M-00671MA1999999102031MD1790019+9999OD139900701999REMSYN06401024 46/// /0703 11069 21130 30203 40216 54001 333 11067 91107=EQDQ01.1    3APC3  
0089010240999992016010919004+78650+016367FM-12+002099999V0200801N003019999999N999999999-00681-01311102171ADDMA1999999102031MD1410001+9999REMSYN04801024 46/// /0803 11068 21131 30203 40217 54000=
0108010240999992016010920004+78650+016367FM-12+002099999V0200701N004019999999N999999999-00701-01371102181ADDMA1999999102051MD1290019+9999REMSYN04801024 46/// /0704 11070 21137 30205 40218 54002=EQDQ01.2    3APC3  
0089010240999992016010921004+78650+016367FM-12+002099999V0200701N004019999999N999999999-00741-01351102201ADDMA1999999102061MD1210041+9999REMSYN04801024 46/// /0704 11074 21135 30206 40220 52004=
0045010240999992016010923004+78656+016356FM-12+002099999V0200751N0025199999999999999999-00771-01391102191ADDMA1999999102051MD1410001+9999REMSYN004BUFR
0108010240999992016011000004+78650+016367FM-12+002099999V0202801N002019999999N999999999-01081-01501102191ADDMA1999999102051MD1790019+9999REMSYN04801024 46/// /2802 11108 21150 30205 40219 54001=EQDQ014     3APCTEN
0094010240999992016011001004+78650+016367FM-12+002099999V0203101N002019999999N999999999-00961-01471102211ADDMA1999999102071REMSYN04801024 46/// /3102 11096 21147 30207 40221 54001=EQDQ014     3APCTEN
0108010240999992016011002004+78650+016367FM-12+002099999V0203201N001019999999N999999999-00951-01481102201ADDMA1999999102071MD1290019+9999REMSYN04801024 46/// /3201 11095 21148 30207 40220 54001=EQDQ01.1    3APC3  
0089010240999992016011003004+78650+016367FM-12+002099999V0203201N001019999999N999999999-00951-01401102201ADDMA1999999102061MD1410001+9999REMSYN04801024 46/// /3201 11095 21140 30206 40220 54000=
0089010240999992016011004004+78650+016367FM-12+002099999V0202901N001019999999N999999999-01071-01541102181ADDMA1999999102041MD1710031+9999REMSYN04801024 46/// /2901 11107 21154 30204 40218 57003=
0089010240999992016011005004+78650+016367FM-12+002099999V0203001N002019999999N999999999-01101-01521102171ADDMA1999999102031MD1710031+9999REMSYN04801024 46/// /3002 11110 21152 30203 40217 57003=
0113010240999992016011006004+78650+016367FM-12+002099999V0203101N001019999999N999999999-01071-01531102191ADDMA1999999102051MD1990011+9999OD139900301999REMSYN05801024 46/// /3101 11107 21153 30205 40219 50001 333 91103=
0089010240999992016011007004+78650+016367FM-12+002099999V0203301N001019999999N999999999-01041-01521102221ADDMA1999999102081MD1110041+9999REMSYN04801024 46/// /3301 11104 21152 30208 40222 51004=
0089010240999992016011008004+78650+016367FM-12+002099999V0203101N001019999999N999999999-01001-01491102251ADDMA1999999102111MD1210071+9999REMSYN04801024 46/// /3101 11100 21149 30211 40225 52007=
0089010240999992016011009004+78650+016367FM-12+002099999V0203301N001019999999N999999999-00991-01451102281ADDMA1999999102141MD1210091+9999REMSYN04801024 46/// /3301 11099 21145 30214 40228 52009=
0089010240999992016011010004+78650+016367FM-12+002099999V0200801N004019999999N999999999-00791-01421102271ADDMA1999999102141MD1310061+9999REMSYN04801024 46/// /0804 11079 21142 30214 40227 53006=
0089010240999992016011011004+78650+016367FM-12+002099999V0200601N004019999999N999999999-00781-01391102271ADDMA1999999102131MD1510031+9999REMSYN04801024 46/// /0604 11078 21139 30213 40227 55003=
0132010240999992016011012004+78650+016367FM-12+002099999V0200601N003019999999N999999999-00751-01401102291ADDMA1999999102151MD1290019+9999OD139900601999REMSYN05801024 46/// /0603 11075 21140 30215 40229 54001 333 91106=EQDQ01.1    3APC3  
0108010240999992016011013004+78650+016367FM-12+002099999V0200201N001019999999N999999999-00811-01421102281ADDMA1999999102141MD1290019+9999REMSYN04801024 46/// /0201 11081 21142 30214 40228 54001=EQDQ01.1    3APC3  
0089010240999992016011014004+78650+016367FM-12+002099999V0201401N002019999999N999999999-00841-01371102271ADDMA1999999102131MD1510011+9999REMSYN04801024 46/// /1402 11084 21137 30213 40227 55001=
0089010240999992016011015004+78650+016367FM-12+002099999V0200701N004019999999N999999999-00711-01321102261ADDMA1999999102121MD1710031+9999REMSYN04801024 46/// /0704 11071 21132 30212 40226 57003=
0089010240999992016011016004+78650+016367FM-12+002099999V0200601N003019999999N999999999-00761-01411102291ADDMA1999999102151MD1990011+9999REMSYN04801024 46/// /0603 11076 21141 30215 40229 50001=
0089010240999992016011017004+78650+016367FM-12+002099999V0203101N001019999999N999999999-00951-01501102301ADDMA1999999102161MD1210031+9999REMSYN04801024 46/// /3101 11095 21150 30216 40230 52003=
0132010240999992016011018004+78650+016367FM-12+002099999V0203601N002019999999N999999999-00811-01361102321ADDKA1120M-00691MA1999999102181MD1210061+9999OD139900701999REMSYN06401024 46/// /3602 11081 21136 30218 40232 52006 333 11069 91107=
0089010240999992016011019004+78650+016367FM-12+002099999V0201001N006019999999N999999999-00691-01301102341ADDMA1999999102201MD1210051+9999REMSYN04801024 46/// /1006 11069 21130 30220 40234 52005=
0089010240999992016011020004+78650+016367FM-12+002099999V0201001N004019999999N999999999-00651-01231102391ADDMA1999999102251MD1110091+9999REMSYN04801024 46/// /1004 11065 21123 30225 40239 51009=
0089010240999992016011021004+78650+016367FM-12+002099999V0200701N004019999999N999999999-00681-01261102431ADDMA1999999102291MD1210111+9999REMSYN04801024 46/// /0704 11068 21126 30229 40243 52011=
0089010240999992016011022004+78650+016367FM-12+002099999V0200901N004019999999N999999999-00661-01131102451ADDMA1999999102311MD1310111+9999REMSYN04801024 46/// /0904 11066 21113 30231 40245 53011=
0089010240999992016011023004+78650+016367FM-12+002099999V0200701N004019999999N999999999-00661-01181102481ADDMA1999999102341MD1210091+9999REMSYN04801024 46/// /0704 11066 21118 30234 40248 52009=
0113010240999992016011100004+78650+016367FM-12+002099999V0200801N005019999999N999999999-00651-01171102481ADDMA1999999102351MD1210051+9999OD139900901999REMSYN05801024 46/// /0805 11065 21117 30235 40248 52005 333 91109=
0089010240999992016011101004+78650+016367FM-12+002099999V0200801N006019999999N999999999-00641-01151102491ADDMA1999999102351MD1210041+9999REMSYN04801024 46/// /0806 11064 21115 30235 40249 52004=
0089010240999992016011102004+78650+016367FM-12+002099999V0201101N006019999999N999999999-00611-01151102521ADDMA1999999102381MD1210041+9999REMSYN04801024 46/// /1106 11061 21115 30238 40252 52004=
0089010240999992016011104004+78650+016367FM-12+002099999V0201001N006019999999N999999999-00621-01161102561ADDMA1999999102421MD1210071+9999REMSYN04801024 46/// /1006 11062 21116 30242 40256 52007=
0089010240999992016011105004+78650+016367FM-12+002099999V0200901N006019999999N999999999-00651-01191102591ADDMA1999999102451MD1210071+9999REMSYN04801024 46/// /0906 11065 21119 30245 40259 52007=
0089010240999992016011106004+78650+016367FM-12+002099999V0200801N006019999999N999999999-00661-01241102631ADDMA1999999102491MD1210091+9999REMSYN04801024 46/// /0806 11066 21124 30249 40263 52009=
0089010240999992016011107004+78650+016367FM-12+002099999V0201001N007019999999N999999999-00651-01191102691ADDMA1999999102551MD1210131+9999REMSYN04801024 46/// /1007 11065 21119 30255 40269 52013=
0089010240999992016011108004+78650+016367FM-12+002099999V0200901N008019999999N999999999-00681-01191102751ADDMA1999999102611MD1210161+9999REMSYN04801024 46/// /0908 11068 21119 30261 40275 52016=
0089010240999992016011109004+78650+016367FM-12+002099999V0200901N007019999999N999999999-00701-01191102791ADDMA1999999102651MD1210161+9999REMSYN04801024 46/// /0907 11070 21119 30265 40279 52016=
0089010240999992016011110004+78650+016367FM-12+002099999V0200901N007019999999N999999999-00691-01211102831ADDMA1999999102691MD1210141+9999REMSYN04801024 46/// /0907 11069 21121 30269 40283 52014=
0089010240999992016011111004+78650+016367FM-12+002099999V0200901N006019999999N999999999-00661-01221102871ADDMA1999999102731MD1210121+9999REMSYN04801024 46/// /0906 11066 21122 30273 40287 52012=
0113010240999992016011112004+78650+016367FM-12+002099999V0200901N006019999999N999999999-00681-01201102921ADDMA1999999102781MD1210131+9999OD139901001999REMSYN05801024 46/// /0906 11068 21120 30278 40292 52013 333 91110=
0089010240999992016011113004+78650+016367FM-12+002099999V0200901N006019999999N999999999-00691-01231102961ADDMA1999999102821MD1210131+9999REMSYN04801024 46/// /0906 11069 21123 30282 40296 52013=
0089010240999992016011114004+78650+016367FM-12+002099999V0200901N006019999999N999999999-00691-01301102981ADDMA1999999102851MD1210111+9999REMSYN04801024 46/// /0906 11069 21130 30285 40298 52011=
0089010240999992016011115004+78650+016367FM-12+002099999V0200801N004019999999N999999999-00701-01371103021ADDMA1999999102881MD1210101+9999REMSYN04801024 46/// /0804 11070 21137 30288 40302 52010=
0089010240999992016011116004+78650+016367FM-12+002099999V0200801N006019999999N999999999-00681-01371103051ADDMA1999999102911MD1210091+9999REMSYN04801024 46/// /0806 11068 21137 30291 40305 52009=
0089010240999992016011117004+78650+016367FM-12+002099999V0200801N005019999999N999999999-00681-01371103081ADDMA1999999102951MD1210101+9999REMSYN04801024 46/// /0805 11068 21137 30295 40308 52010=
0132010240999992016011118004+78650+016367FM-12+002099999V0200601N004019999999N999999999-00691-01401103131ADDKA1120M-00631MA1999999102991MD1210111+9999OD139900801999REMSYN06401024 46/// /0604 11069 21140 30299 40313 52011 333 11063 91108=
0089010240999992016011119004+78650+016367FM-12+002099999V0203001N002019999999N999999999-00841-01451103171ADDMA1999999103031MD1210121+9999REMSYN04801024 46/// /3002 11084 21145 30303 40317 52012=
0089010240999992016011120004+78650+016367FM-12+002099999V0203001N001019999999N999999999-00851-01441103231ADDMA1999999103091MD1210141+9999REMSYN04801024 46/// /3001 11085 21144 30309 40323 52014=
0089010240999992016011121004+78650+016367FM-12+002099999V0209999C999999999999N999999999-00901-01451103251ADDMA1999999103111MD1210121+9999REMSYN04801024 46/// /0000 11090 21145 30311 40325 52012=
0089010240999992016011122004+78650+016367FM-12+002099999V0209999C999999999999N999999999-00981-01461103271ADDMA1999999103131MD1310101+9999REMSYN04801024 46/// /0000 11098 21146 30313 40327 53010=
0089010240999992016011123004+78650+016367FM-12+002099999V0203301N001019999999N999999999-00811-01401103301ADDMA1999999103161MD1210081+9999REMSYN04801024 46/// /3301 11081 21140 30316 40330 52008=
0113010240999992016011200004+78650+016367FM-12+002099999V0203201N002019999999N999999999-00841-01391103301ADDMA1999999103161MD1210051+9999OD139900401999REMSYN05801024 46/// /3202 11084 21139 30316 40330 52005 333 91104=
0089010240999992016011201004+78650+016367FM-12+002099999V0203201N002019999999N999999999-00941-01451103331ADDMA1999999103191MD1210061+9999REMSYN04801024 46/// /3202 11094 21145 30319 40333 52006=
0089010240999992016011202004+78650+016367FM-12+002099999V0203201N001019999999N999999999-00941-01471103351ADDMA1999999103211MD1210051+9999REMSYN04801024 46/// /3201 11094 21147 30321 40335 52005=
0089010240999992016011203004+78650+016367FM-12+002099999V0200201N001019999999N999999999-00951-01431103381ADDMA1999999103241MD1210081+9999REMSYN04801024 46/// /0201 11095 21143 30324 40338 52008=
0089010240999992016011204004+78650+016367FM-12+002099999V0209999C999999999999N999999999-01071-01541103381ADDMA1999999103241MD1210051+9999REMSYN04801024 46/// /0000 11107 21154 30324 40338 52005=
0089010240999992016011205004+78650+016367FM-12+002099999V0203501N001019999999N999999999-00941-01441103371ADDMA1999999103231MD1510021+9999REMSYN04801024 46/// /3501 11094 21144 30323 40337 55002=
0132010240999992016011206004+78650+016367FM-12+002099999V0209999C999999999999N999999999-00941-01451103381ADDKA1240N-01071MA1999999103241MD1410001+9999OD139900301999REMSYN06401024 46/// /0000 11094 21145 30324 40338 54000 333 21107 91103=
0108010240999992016011207004+78650+016367FM-12+002099999V0200401N001019999999N999999999-00941-01491103401ADDMA1999999103261MD1290029+9999REMSYN04801024 46/// /0401 11094 21149 30326 40340 54002=EQDQ01.2    3APC3  
0089010240999992016011208004+78650+016367FM-12+002099999V0209999C999999999999N999999999-01121-01541103421ADDMA1999999103281MD1210041+9999REMSYN04801024 46/// /0000 11112 21154 30328 40342 52004=
0089010240999992016011209004+78650+016367FM-12+002099999V0200501N001019999999N999999999-00991-01471103411ADDMA1999999103271MD1210031+9999REMSYN04801024 46/// /0501 11099 21147 30327 40341 52003=
0090010240999992016011210004+78656+016356FM-12+002099999V0203311N0002199999999999999999-01121-01561103421ADDKA1010M-00971KA2010N-01121MA1999999103281MD1290029+9999REMSYN004BUFREQDQ01.2    3APC3  
0108010240999992016011211004+78650+016367FM-12+002099999V0203201N001019999999N999999999-01051-01491103411ADDMA1999999103261MD1790019+9999REMSYN04801024 46/// /3201 11105 21149 30326 40341 54001=EQDQ01.1    3APC3  
0132010240999992016011212004+78650+016367FM-12+002099999V0209999C999999999999N999999999-01101-01521103381ADDMA1999999103241MD1790039+9999OD139900201999REMSYN05801024 46/// /0000 11110 21152 30324 40338 54003 333 91102=EQDQ01.3    3APC3  
0089010240999992016011213004+78650+016367FM-12+002099999V0203101N001019999999N999999999-01151-01511103371ADDMA1999999103231MD1710051+9999REMSYN04801024 46/// /3101 11115 21151 30323 40337 57005=
0089010240999992016011214004+78650+016367FM-12+002099999V0209999C999999999999N999999999-01111-01531103341ADDMA1999999103201MD1710061+9999REMSYN04801024 46/// /0000 11111 21153 30320 40334 57006=
0089010240999992016011215004+78650+016367FM-12+002099999V0209999C999999999999N999999999-01141-01531103301ADDMA1999999103161MD1710081+9999REMSYN04801024 46/// /0000 11114 21153 30316 40330 57008=
0089010240999992016011216004+78650+016367FM-12+002099999V0209999C999999999999N999999999-01201-01591103261ADDMA1999999103111MD1710111+9999REMSYN04801024 46/// /0000 11120 21159 30311 40326 57011=
0089010240999992016011217004+78650+016367FM-12+002099999V0203001N001019999999N999999999-01181-01571103241ADDMA1999999103101MD1710111+9999REMSYN04801024 46/// /3001 11118 21157 30310 40324 57011=
0132010240999992016011218004+78650+016367FM-12+002099999V0209999C999999999999N999999999-01121-01541103171ADDKA1120M-00911MA1999999103031MD1710131+9999OD139900201999REMSYN06401024 46/// /0000 11112 21154 30303 40317 57013 333 11091 91102=
0089010240999992016011219004+78650+016367FM-12+002099999V0209999C999999999999N999999999-01151-01541103131ADDMA1999999102991MD1710121+9999REMSYN04801024 46/// /0000 11115 21154 30299 40313 57012=
0089010240999992016011220004+78650+016367FM-12+002099999V0203101N001019999999N999999999-01151-01541103091ADDMA1999999102951MD1710141+9999REMSYN04801024 46/// /3101 11115 21154 30295 40309 57014=
0089010240999992016011221004+78650+016367FM-12+002099999V0209999C999999999999N999999999-01241-01601103031ADDMA1999999102891MD1710141+9999REMSYN04801024 46/// /0000 11124 21160 30289 40303 57014=
0089010240999992016011222004+78650+016367FM-12+002099999V0209999C999999999999N999999999-01121-01541102981ADDMA1999999102841MD1710161+9999REMSYN04801024 46/// ///// 11112 21154 30284 40298 57016=
0089010240999992016011223004+78650+016367FM-12+002099999V0203101N001019999999N999999999-01171-01581102911ADDMA1999999102771MD1710181+9999REMSYN04801024 46/// /3101 11117 21158 30277 40291 57018=
0113010240999992016011300004+78650+016367FM-12+002099999V0209999C999999999999N999999999-01191-01631102841ADDMA1999999102691MD1710201+9999OD139900101999REMSYN05801024 46/// /0000 11119 21163 30269 40284 57020 333 91101=
0089010240999992016011301004+78650+016367FM-12+002099999V0209999C999999999999N999999999-01151-01471102761ADDMA1999999102621MD1710221+9999REMSYN04801024 46/// /0000 11115 21147 30262 40276 57022=
0089010240999992016011302004+78650+016367FM-12+002099999V0203001N001019999999N999999999-01151-01571102691ADDMA1999999102551MD1710221+9999REMSYN04801024 46/// /3001 11115 21157 30255 40269 57022=
0089010240999992016011303004+78650+016367FM-12+002099999V0209999C999999999999N999999999-01191-01551102611ADDMA1999999102471MD1710221+9999REMSYN04801024 46/// /0000 11119 21155 30247 40261 57022=
0089010240999992016011304004+78650+016367FM-12+002099999V0202901N001019999999N999999999-01241-01661102551ADDMA1999999102411MD1710211+9999REMSYN04801024 46/// /2901 11124 21166 30241 40255 57021=
0089010240999992016011305004+78650+016367FM-12+002099999V0203101N001019999999N999999999-01181-01601102471ADDMA1999999102331MD1710221+9999REMSYN04801024 46/// /3101 11118 21160 30233 40247 57022=
0132010240999992016011306004+78650+016367FM-12+002099999V0209999C999999999999N999999999-01261-01601102411ADDKA1240N-01301MA1999999102261MD1710211+9999OD139900201999REMSYN06401024 46/// /0000 11126 21160 30226 40241 57021 333 21130 91102=
0089010240999992016011307004+78650+016367FM-12+002099999V0203001N001019999999N999999999-01161-01511102371ADDMA1999999102231MD1810181+9999REMSYN04801024 46/// /3001 11116 21151 30223 40237 58018=
0089010240999992016011308004+78650+016367FM-12+002099999V0209999C999999999999N999999999-01251-01541102341ADDMA1999999102201MD1810131+9999REMSYN04801024 46/// /0000 11125 21154 30220 40234 58013=
0089010240999992016011309004+78650+016367FM-12+002099999V0203301N001019999999N999999999-01221-01521102331ADDMA1999999102191MD1710071+9999REMSYN04801024 46/// /3301 11122 21152 30219 40233 57007=
0089010240999992016011310004+78650+016367FM-12+002099999V0203301N001019999999N999999999-01151-01481102291ADDMA1999999102151MD1710081+9999REMSYN04801024 46/// /3301 11115 21148 30215 40229 57008=
0089010240999992016011311004+78650+016367FM-12+002099999V0209999C999999999999N999999999-01141-01391102251ADDMA1999999102111MD1610101+9999REMSYN04801024 46/// /0000 11114 21139 30211 40225 56010=
0071010240999992016011312004+78656+016356FM-12+002099999V0203131N0006199999999999999999-01171-01461102201ADDKA1010M-01101KA2010N-01291MA1999999102061MD1710141+9999REMSYN004BUFR
0071010240999992016011313004+78656+016356FM-12+002099999V0203181N0005199999999999999999-01221-01491102161ADDKA1010M-01031KA2010N-01221MA1999999102021MD1710131+9999REMSYN004BUFR
0071010240999992016011314004+78656+016356FM-12+002099999V0203161N0006199999999999999999-01151-01421102101ADDKA1010M-01071KA2010N-01211MA1999999101961MD1710151+9999REMSYN004BUFR
0089010240999992016011315004+78650+016367FM-12+002099999V0209999C999999999999N999999999-01101-01391102061ADDMA1999999101921MD1710131+9999REMSYN04801024 46/// /0000 11110 21139 30192 40206 57013=
0089010240999992016011316004+78650+016367FM-12+002099999V0203301N001019999999N999999999-01071-01351102031ADDMA1999999101891MD1710131+9999REMSYN04801024 46/// /3301 11107 21135 30189 40203 57013=
0089010240999992016011317004+78650+016367FM-12+002099999V0203201N001019999999N999999999-01101-01371101991ADDMA1999999101851MD1710111+9999REMSYN04801024 46/// /3201 11110 21137 30185 40199 57011=
0132010240999992016011318004+78650+016367FM-12+002099999V0209999C999999999999N999999999-01071-01351101931ADDKA1120M-00971MA1999999101791MD1710131+9999OD139900201999REMSYN06401024 46/// /0000 11107 21135 30179 40193 57013 333 11097 91102=
0089010240999992016011319004+78650+016367FM-12+002099999V0209999C999999999999N999999999-01081-01371101871ADDMA1999999101731MD1710151+9999REMSYN04801024 46/// /0000 11108 21137 30173 40187 57015=
0089010240999992016011320004+78650+016367FM-12+002099999V0203401N001019999999N999999999-00991-01231101821ADDMA1999999101681MD1710171+9999REMSYN04801024 46/// /3401 11099 21123 30168 40182 57017=
0089010240999992016011321004+78650+016367FM-12+002099999V0209999C999999999999N999999999-01041-01321101761ADDMA1999999101631MD1710171+9999REMSYN04801024 46/// /0000 11104 21132 30163 40176 57017=
0089010240999992016011322004+78650+016367FM-12+002099999V0203201N001019999999N999999999-01031-01311101691ADDMA1999999101551MD1710181+9999REMSYN04801024 46/// /3201 11103 21131 30155 40169 57018=
0089010240999992016011323004+78650+016367FM-12+002099999V0209999C999999999999N999999999-00961-01211101601ADDMA1999999101461MD1610221+9999REMSYN04801024 46/// /0000 11096 21121 30146 40160 56022=
0113010240999992016011400004+78650+016367FM-12+002099999V0203201N001019999999N999999999-00931-01191101541ADDMA1999999101411MD1710221+9999OD139900201999REMSYN05801024 46/// /3201 11093 21119 30141 40154 57022 333 91102=
0089010240999992016011401004+78650+016367FM-12+002099999V0209999C999999999999N999999999-00841-01211101461ADDMA1999999101321MD1710231+9999REMSYN04801024 46/// /0000 11084 21121 30132 40146 57023=
0089010240999992016011402004+78650+016367FM-12+002099999V0203201N001019999999N999999999-00881-01221101381ADDMA1999999101251MD1710211+9999REMSYN04801024 46/// /3201 11088 21122 30125 40138 57021=
0089010240999992016011403004+78650+016367FM-12+002099999V0203601N001019999999N999999999-00671-01061101291ADDMA1999999101151MD1710261+9999REMSYN04801024 46/// /3601 11067 21106 30115 40129 57026=
0089010240999992016011404004+78650+016367FM-12+002099999V0209999C999999999999N999999999-00771-01041101171ADDMA1999999101041MD1610291+9999REMSYN04801024 46/// /0000 11077 21104 30104 40117 56029=
0089010240999992016011405004+78650+016367FM-12+002099999V0200201N001019999999N999999999-00691-00921101061ADDMA1999999100921MD1710321+9999REMSYN04801024 46/// /0201 11069 21092 30092 40106 57032=
0132010240999992016011406004+78650+016367FM-12+002099999V0200801N001019999999N999999999-00721-00951100981ADDKA1240N-01131MA1999999100841MD1810311+9999OD139900201999REMSYN06401024 46/// /0801 11072 21095 30084 40098 58031 333 21113 91102=
0089010240999992016011407004+78650+016367FM-12+002099999V0203001N003019999999N999999999-00541-00861100941ADDMA1999999100801MD1810241+9999REMSYN04801024 46/// /3003 11054 21086 30080 40094 58024=
0089010240999992016011408004+78650+016367FM-12+002099999V0203001N005019999999N999999999-00611-01071100911ADDMA1999999100781MD1810151+9999REMSYN04801024 46/// /3005 11061 21107 30078 40091 58015=
0089010240999992016011409004+78650+016367FM-12+002099999V0203101N005019999999N999999999-00671-01091100941ADDMA1999999100811MD1810031+9999REMSYN04801024 46/// /3105 11067 21109 30081 40094 58003=
0089010240999992016011410004+78650+016367FM-12+002099999V0203201N005019999999N999999999-00571-01041100941ADDMA1999999100801MD1410001+9999REMSYN04801024 46/// /3205 11057 21104 30080 40094 54000=
0089010240999992016011411004+78650+016367FM-12+002099999V0202901N004019999999N999999999-00581-00971100901ADDMA1999999100761MD1510011+9999REMSYN04801024 46/// /2904 11058 21097 30076 40090 55001=
0113010240999992016011412004+78650+016367FM-12+002099999V0202901N004019999999N999999999-00571-00891100861ADDMA1999999100721MD1610091+9999OD139900801999REMSYN05801024 46/// /2904 11057 21089 30072 40086 56009 333 91108=
0089010240999992016011413004+78650+016367FM-12+002099999V0202801N003019999999N999999999-00581-00961100861ADDMA1999999100731MD1810081+9999REMSYN04801024 46/// /2803 11058 21096 30073 40086 58008=
0089010240999992016011414004+78650+016367FM-12+002099999V0202901N004019999999N999999999-00601-01071100881ADDMA1999999100741MD1990021+9999REMSYN04801024 46/// /2904 11060 21107 30074 40088 50002=
0089010240999992016011415004+78650+016367FM-12+002099999V0202901N003019999999N999999999-00651-01071100891ADDMA1999999100761MD1210041+9999REMSYN04801024 46/// /2903 11065 21107 30076 40089 52004=
0089010240999992016011416004+78650+016367FM-12+002099999V0203101N003019999999N999999999-00681-01051100911ADDMA1999999100781MD1210051+9999REMSYN04801024 46/// /3103 11068 21105 30078 40091 52005=
0089010240999992016011417004+78650+016367FM-12+002099999V0203001N003019999999N999999999-00691-01181100951ADDMA1999999100811MD1210071+9999REMSYN04801024 46/// /3003 11069 21118 30081 40095 52007=
0132010240999992016011418004+78650+016367FM-12+002099999V0203001N004019999999N999999999-00741-01241100961ADDKA1120M-00511MA1999999100821MD1210061+9999OD139900601999REMSYN06401024 46/// /3004 11074 21124 30082 40096 52006 333 11051 91106=
0089010240999992016011419004+78650+016367FM-12+002099999V0202901N004019999999N999999999-00761-01261101001ADDMA1999999100861MD1210081+9999REMSYN04801024 46/// /2904 11076 21126 30086 40100 52008=
0089010240999992016011420004+78650+016367FM-12+002099999V0203001N003019999999N999999999-00791-01241101041ADDMA1999999100901MD1110091+9999REMSYN04801024 46/// /3003 11079 21124 30090 40104 51009=
0089010240999992016011421004+78650+016367FM-12+002099999V0203201N003019999999N999999999-00871-01301101081ADDMA1999999100941MD1210121+9999REMSYN04801024 46/// /3203 11087 21130 30094 40108 52012=
0089010240999992016011422004+78650+016367FM-12+002099999V0203601N001019999999N999999999-00821-01291101151ADDMA1999999101011MD1110151+9999REMSYN04801024 46/// /3601 11082 21129 30101 40115 51015=
0089010240999992016011423004+78650+016367FM-12+002099999V0203101N001019999999N999999999-00841-01321101171ADDMA1999999101031MD1210131+9999REMSYN04801024 46/// /3101 11084 21132 30103 40117 52013=
0113010240999992016011500004+78650+016367FM-12+002099999V0209999C999999999999N999999999-00901-01331101191ADDMA1999999101061MD1310111+9999OD139900501999REMSYN05801024 46/// /0000 11090 21133 30106 40119 53011 333 91105=
0089010240999992016011501004+78650+016367FM-12+002099999V0203101N001019999999N999999999-00901-01351101211ADDMA1999999101081MD1210061+9999REMSYN04801024 46/// /3101 11090 21135 30108 40121 52006=
0089010240999992016011502004+78650+016367FM-12+002099999V0203101N001019999999N999999999-00911-01311101261ADDMA1999999101121MD1210091+9999REMSYN04801024 46/// /3101 11091 21131 30112 40126 52009=
0089010240999992016011503004+78650+016367FM-12+002099999V0200901N001019999999N999999999-00951-01321101301ADDMA1999999101171MD1210111+9999REMSYN04801024 46/// /0901 11095 21132 30117 40130 52011=
0089010240999992016011504004+78650+016367FM-12+002099999V0209999C999999999999N999999999-00941-01261101311ADDMA1999999101171MD1310091+9999REMSYN04801024 46/// /0000 11094 21126 30117 40131 53009=
0089010240999992016011505004+78650+016367FM-12+002099999V0209999C999999999999N999999999-00941-01291101331ADDMA1999999101191MD1210071+9999REMSYN04801024 46/// ///// 11094 21129 30119 40133 52007=
0132010240999992016011506004+78650+016367FM-12+002099999V0203301N001019999999N999999999-00911-01291101351ADDKA1240N-00961MA1999999101221MD1210051+9999OD139900201999REMSYN06401024 46/// /3301 11091 21129 30122 40135 52005 333 21096 91102=
0089010240999992016011507004+78650+016367FM-12+002099999V0200801N001019999999N999999999-00871-01301101371ADDMA1999999101231MD1210061+9999REMSYN04801024 46/// /0801 11087 21130 30123 40137 52006=
0089010240999992016011508004+78650+016367FM-12+002099999V0200301N001019999999N999999999-00851-01331101411ADDMA1999999101271MD1210081+9999REMSYN04801024 46/// /0301 11085 21133 30127 40141 52008=
0089010240999992016011509004+78650+016367FM-12+002099999V0203601N001019999999N999999999-00861-01311101451ADDMA1999999101311MD1210101+9999REMSYN04801024 46/// /3601 11086 21131 30131 40145 52010=
0089010240999992016011510004+78650+016367FM-12+002099999V0203301N001019999999N999999999-00831-01261101481ADDMA1999999101341MD1210111+9999REMSYN04801024 46/// /3301 11083 21126 30134 40148 52011=
0089010240999992016011511004+78650+016367FM-12+002099999V0203201N001019999999N999999999-00801-01171101481ADDMA1999999101351MD1310081+9999REMSYN04801024 46/// /3201 11080 21117 30135 40148 53008=
0113010240999992016011512004+78650+016367FM-12+002099999V0203301N001019999999N999999999-00781-01141101471ADDMA1999999101331MD1510021+9999OD139900201999REMSYN05801024 46/// /3301 11078 21114 30133 40147 55002 333 91102=
0108010240999992016011513004+78650+016367FM-12+002099999V0203401N002019999999N999999999-00771-01141101471ADDMA1999999101331MD1790019+9999REMSYN04801024 46/// /3402 11077 21114 30133 40147 54001=EQDQ01.1    3APC3  
0089010240999992016011514004+78650+016367FM-12+002099999V0203301N001019999999N999999999-00711-01161101501ADDMA1999999101361MD1990021+9999REMSYN04801024 46/// /3301 11071 21116 30136 40150 50002=
0089010240999992016011515004+78650+016367FM-12+002099999V0203101N001019999999N999999999-00711-01161101521ADDMA1999999101381MD1210051+9999REMSYN04801024 46/// /3101 11071 21116 30138 40152 52005=
0089010240999992016011516004+78650+016367FM-12+002099999V0203301N001019999999N999999999-00641-01101101511ADDMA1999999101371MD1310041+9999REMSYN04801024 46/// /3301 11064 21110 30137 40151 53004=
0108010240999992016011517004+78650+016367FM-12+002099999V0202801N001019999999N999999999-00701-01011101511ADDMA1999999101371MD1290019+9999REMSYN04801024 46/// /2801 11070 21101 30137 40151 54001=EQDQ01.1    3APC3  
0151010240999992016011518004+78650+016367FM-12+002099999V0203301N001019999999N999999999-00641-00921101521ADDKA1120M-00601MA1999999101391MD1410009+9999OD139900401999REMSYN06401024 46/// /3301 11064 21092 30139 40152 54001 333 11060 91104=EQDQ01.1    3APC3  
0089010240999992016011519004+78650+016367FM-12+002099999V0203101N001019999999N999999999-00641-00941101511ADDMA1999999101371MD1410001+9999REMSYN04801024 46/// /3101 11064 21094 30137 40151 54000=
0108010240999992016011520004+78650+016367FM-12+002099999V0202901N001019999999N999999999-00621-01001101531ADDMA1999999101391MD1290029+9999REMSYN04801024 46/// /2901 11062 21100 30139 40153 54002=EQDQ01.2    3APC3  
0108010240999992016011521004+78650+016367FM-12+002099999V0209999C999999999999N999999999-00711-01071101531ADDMA1999999101391MD1290019+9999REMSYN04801024 46/// /0000 11071 21107 30139 40153 54001=EQDQ01.1    3APC3  
0108010240999992016011522004+78650+016367FM-12+002099999V0200801N002019999999N999999999-00401-00951101531ADDMA1999999101401MD1290029+9999REMSYN04801024 46/// /0802 11040 21095 30140 40153 54002=EQDQ01.2    3APC3  
0108010240999992016011523004+78650+016367FM-12+002099999V0202901N001019999999N999999999-00571-01011101551ADDMA1999999101411MD1290029+9999REMSYN04801024 46/// /2901 11057 21101 30141 40155 54002=EQDQ01.2    3APC3  
0113010240999992016011600004+78650+016367FM-12+002099999V0203101N001019999999N999999999-00551-00791101531ADDMA1999999101401MD1410001+9999OD139900501999REMSYN05801024 46/// /3101 11055 21079 30140 40153 54000 333 91105=
0108010240999992016011601004+78650+016367FM-12+002099999V0203201N001019999999N999999999-00541-00691101541ADDMA1999999101401MD1290019+9999REMSYN04801024 46/// /3201 11054 21069 30140 40154 54001=EQDQ01.1    3APC3  
0108010240999992016011602004+78650+016367FM-12+002099999V0203201N002019999999N999999999-00531-00701101521ADDMA1999999101391MD1790039+9999REMSYN04801024 46/// /3202 11053 21070 30139 40152 54002=EQDQ01.2    3APC3  
0108010240999992016011603004+78650+016367FM-12+002099999V0203301N001019999999N999999999-00501-00731101531ADDMA1999999101391MD1410009+9999REMSYN04801024 46/// /3301 11050 21073 30139 40153 54001=EQDQ01.1    3APC3  
0108010240999992016011604004+78650+016367FM-12+002099999V0203001N002019999999N999999999-00471-00691101521ADDMA1999999101391MD1790029+9999REMSYN04801024 46/// /3002 11047 21069 30139 40152 54001=EQDQ014     3APCTEN
0108010240999992016011605004+78650+016367FM-12+002099999V0209999C999999999999N999999999-00341-00761101511ADDMA1999999101381MD1790019+9999REMSYN04801024 46/// /0000 11034 21076 30138 40151 54001=EQDQ01.1    3APC3  
0151010240999992016011606004+78650+016367FM-12+002099999V0202601N001019999999N999999999-00301-00721101521ADDKA1240N-00711MA1999999101381MD1790019+9999OD139900301999REMSYN06401024 46/// /2601 11030 21072 30138 40152 54001 333 21071 91103=EQDQ01.1    3APC3  
0089010240999992016011608004+78650+016367FM-12+002099999V0201201N002019999999N999999999-00191-00641101591ADDMA1999999101461MD1110081+9999REMSYN04801024 46/// /1202 11019 21064 30146 40159 51008=
0089010240999992016011609004+78650+016367FM-12+002099999V0201401N002019999999N999999999-00201-00671101661ADDMA1999999101521MD1110141+9999REMSYN04801024 46/// /1402 11020 21067 30152 40166 51014=
0089010240999992016011610004+78650+016367FM-12+002099999V0200101N001019999999N999999999-00261-00711101671ADDMA1999999101531MD1310131+9999REMSYN04801024 46/// /0101 11026 21071 30153 40167 53013=
0089010240999992016011611004+78650+016367FM-12+002099999V0200401N003019999999N999999999-00171-00751101661ADDMA1999999101531MD1310071+9999REMSYN04801024 46/// /0403 11017 21075 30153 40166 53007=
0089010240999992016011612004+78650+016367FM-12+002099999V0202001N002019999999N999999999-00191-00711101701ADDMA1999999101571MD1210041+9999REMSYN04801024 46/// /2002 11019 21071 30157 40170 52004=
0089010240999992016011613004+78650+016367FM-12+002099999V0209999C999999999999N999999999-00271-00641101731ADDMA1999999101601MD1110071+9999REMSYN04801024 46/// /0000 11027 21064 30160 40173 51007=
0089010240999992016011614004+78650+016367FM-12+002099999V0200501N001019999999N999999999-00261-00761101721ADDMA1999999101581MD1310051+9999REMSYN04801024 46/// /0501 11026 21076 30158 40172 53005=
0089010240999992016011615004+78650+016367FM-12+002099999V0200301N001019999999N999999999-00241-00821101741ADDMA1999999101611MD1210041+9999REMSYN04801024 46/// /0301 11024 21082 30161 40174 52004=
0108010240999992016011616004+78650+016367FM-12+002099999V0201201N002019999999N999999999-00151-00661101721ADDMA1999999101591MD1790019+9999REMSYN04801024 46/// /1202 11015 21066 30159 40172 54001=EQDQ01.1    3APC3  
0108010240999992016011617004+78650+016367FM-12+002099999V0200801N002019999999N999999999-00101-00701101731ADDMA1999999101591MD1290019+9999REMSYN04801024 46/// /0802 11010 21070 30159 40173 54001=EQDQ01.1    3APC3  
0113010240999992016011618004+78650+016367FM-12+002099999V0200801N003019999999N999999999-00141-00611101741ADDMA1999999101601MD1410001+9999OD139900501999REMSYN05801024 46/// /0803 11014 21061 30160 40174 54000 333 91105=
0108010240999992016011619004+78650+016367FM-12+002099999V0200901N004019999999N999999999-00151-00591101741ADDMA1999999101601MD1290029+9999REMSYN04801024 46/// /0904 11015 21059 30160 40174 54001=EQDQ01.1    3APC3  
0089010240999992016011620004+78650+016367FM-12+002099999V0201001N003019999999N999999999-00151-00521101771ADDMA1999999101641MD1210051+9999REMSYN04801024 46/// /1003 11015 21052 30164 40177 52005=
0089010240999992016011621004+78650+016367FM-12+002099999V0200601N004019999999N999999999-00131-00491101811ADDMA1999999101681MD1110071+9999REMSYN04801024 46/// /0604 11013 21049 30168 40181 51007=
0089010240999992016011622004+78650+016367FM-12+002099999V0201301N001019999999N999999999-00161-00561101861ADDMA1999999101731MD1210131+9999REMSYN04801024 46/// /1301 11016 21056 30173 40186 52013=
0089010240999992016011623004+78650+016367FM-12+002099999V0200601N001019999999N999999999-00201-00691101901ADDMA1999999101771MD1210131+9999REMSYN04801024 46/// /0601 11020 21069 30177 40190 52013=
0113010240999992016011700004+78650+016367FM-12+002099999V0200101N002019999999N999999999-00181-00721101921ADDMA1999999101791MD1310111+9999OD139900601999REMSYN05801024 46/// /0102 11018 21072 30179 40192 53011 333 91106=
0089010240999992016011701004+78650+016367FM-12+002099999V0200401N002019999999N999999999-00191-00771101911ADDMA1999999101781MD1310051+9999REMSYN04801024 46/// /0402 11019 21077 30178 40191 53005=
0108010240999992016011702004+78650+016367FM-12+002099999V0203001N002019999999N999999999-00461-00891101911ADDMA1999999101781MD1290019+9999REMSYN04801024 46/// /3002 11046 21089 30178 40191 54001=EQDQ01.1    3APC3  
0089010240999992016011703004+78650+016367FM-12+002099999V0200801N004019999999N999999999-00251-00791101921ADDMA1999999101781MD1410001+9999REMSYN04801024 46/// /0804 11025 21079 30178 40192 54000=
0108010240999992016011704004+78650+016367FM-12+002099999V0203101N001019999999N999999999-00521-00911101931ADDMA1999999101801MD1290029+9999REMSYN04801024 46/// /3101 11052 21091 30180 40193 54002=EQDQ01.2    3APC3  
0108010240999992016011705004+78650+016367FM-12+002099999V0202801N001019999999N999999999-00551-00961101921ADDMA1999999101791MD1290019+9999REMSYN04801024 46/// /2801 11055 21096 30179 40192 54001=EQDQ01.1    3APC3  
0151010240999992016011706004+78650+016367FM-12+002099999V0203001N001019999999N999999999-00551-00941101931ADDKA1240N-00651MA1999999101791MD1290019+9999OD139900501999REMSYN06401024 46/// /3001 11055 21094 30179 40193 54001 333 21065 91105=EQDQ01.1    3APC3  
0089010240999992016011707004+78650+016367FM-12+002099999V0201001N004019999999N999999999-00391-00921101871ADDMA1999999101741MD1610061+9999REMSYN04801024 46/// /1004 11039 21092 30174 40187 56006=
0089010240999992016011708004+78650+016367FM-12+002099999V0200701N002019999999N999999999-00431-01041101871ADDMA1999999101741MD1710051+9999REMSYN04801024 46/// /0702 11043 21104 30174 40187 57005=
0089010240999992016011709004+78650+016367FM-12+002099999V0203301N001019999999N999999999-00741-01231101881ADDMA1999999101751MD1810041+9999REMSYN04801024 46/// /3301 11074 21123 30175 40188 58004=
0108010240999992016011710004+78650+016367FM-12+002099999V0203201N001019999999N999999999-00731-01131101861ADDMA1999999101731MD1790019+9999REMSYN04801024 46/// /3201 11073 21113 30173 40186 54001=EQDQ01.1    3APC3  
0089010240999992016011711004+78650+016367FM-12+002099999V0203101N002019999999N999999999-00601-01131101881ADDMA1999999101741MD1410001+9999REMSYN04801024 46/// /3102 11060 21113 30174 40188 54000=
0113010240999992016011712004+78650+016367FM-12+002099999V0202901N001019999999N999999999-00821-01291101831ADDMA1999999101691MD1710051+9999OD139900601999REMSYN05801024 46/// /2901 11082 21129 30169 40183 57005 333 91106=
0089010240999992016011713004+78650+016367FM-12+002099999V0203001N002019999999N999999999-00721-01261101801ADDMA1999999101661MD1610071+9999REMSYN04801024 46/// /3002 11072 21126 30166 40180 56007=
0089010240999992016011714004+78650+016367FM-12+002099999V0203201N002019999999N999999999-00651-01191101771ADDMA1999999101631MD1710111+9999REMSYN04801024 46/// /3202 11065 21119 30163 40177 57011=
0089010240999992016011715004+78650+016367FM-12+002099999V0203301N001019999999N999999999-00611-01151101721ADDMA1999999101591MD1710111+9999REMSYN04801024 46/// /3301 11061 21115 30159 40172 57011=
0089010240999992016011717004+78650+016367FM-12+002099999V0200701N001019999999N999999999-00411-00911101671ADDMA1999999101531MD1710101+9999REMSYN04801024 46/// /0701 11041 21091 30153 40167 57010=
0089010240999992016011718004+78650+016367FM-12+002099999V0203101N001019999999N999999999-00381-00901101611ADDMA1999999101481MD1610111+9999REMSYN04801024 46/// /3101 11038 21090 30148 40161 56011=
0089010240999992016011719004+78650+016367FM-12+002099999V0203101N001019999999N999999999-00361-00811101601ADDMA1999999101461MD1710111+9999REMSYN04801024 46/// /3101 11036 21081 30146 40160 57011=
0089010240999992016011720004+78650+016367FM-12+002099999V0203101N002019999999N999999999-00411-00731101571ADDMA1999999101441MD1710091+9999REMSYN04801024 46/// /3102 11041 21073 30144 40157 57009=
0089010240999992016011721004+78650+016367FM-12+002099999V0202901N001019999999N999999999-00371-00521101531ADDMA1999999101401MD1710081+9999REMSYN04801024 46/// /2901 11037 21052 30140 40153 57008=
0089010240999992016011722004+78650+016367FM-12+002099999V0203101N002019999999N999999999-00321-00601101471ADDMA1999999101341MD1610131+9999REMSYN04801024 46/// /3102 11032 21060 30134 40147 56013=
0089010240999992016011723004+78650+016367FM-12+002099999V0203201N001019999999N999999999-00381-00761101431ADDMA1999999101291MD1710151+9999REMSYN04801024 46/// /3201 11038 21076 30129 40143 57015=
0113010240999992016011800004+78650+016367FM-12+002099999V0203001N001019999999N999999999-00371-00661101361ADDMA1999999101221MD1710171+9999OD139900401999REMSYN05801024 46/// /3001 11037 21066 30122 40136 57017 333 91104=
0089010240999992016011801004+78650+016367FM-12+002099999V0203401N001019999999N999999999-00301-00671101321ADDMA1999999101191MD1710151+9999REMSYN04801024 46/// /3401 11030 21067 30119 40132 57015=
0089010240999992016011802004+78650+016367FM-12+002099999V0200801N005019999999N999999999-00131-00541101261ADDMA1999999101131MD1710161+9999REMSYN04801024 46/// /0805 11013 21054 30113 40126 57016=
0089010240999992016011803004+78650+016367FM-12+002099999V0200801N004019999999N999999999-00121-00611101221ADDMA1999999101081MD1710141+9999REMSYN04801024 46/// /0804 11012 21061 30108 40122 57014=
0089010240999992016011804004+78650+016367FM-12+002099999V0200901N006019999999N999999999-00131-00591101181ADDMA1999999101051MD1710141+9999REMSYN04801024 46/// /0906 11013 21059 30105 40118 57014=
0089010240999992016011805004+78650+016367FM-12+002099999V0200801N004019999999N999999999-00151-00571101171ADDMA1999999101041MD1810091+9999REMSYN04801024 46/// /0804 11015 21057 30104 40117 58009=
0132010240999992016011806004+78650+016367FM-12+002099999V0200701N002019999999N999999999-00181-00571101171ADDKA1240N-00551MA1999999101041MD1810051+9999OD139900701999REMSYN06401024 46/// /0702 11018 21057 30104 40117 58005 333 21055 91107=
0089010240999992016011807004+78650+016367FM-12+002099999V0200901N005019999999N999999999-00211-00731101141ADDMA1999999101001MD1710051+9999REMSYN04801024 46/// /0905 11021 21073 30100 40114 57005=
0089010240999992016011808004+78650+016367FM-12+002099999V0200801N005019999999N999999999-00211-00791101121ADDMA1999999100991MD1710051+9999REMSYN04801024 46/// /0805 11021 21079 30099 40112 57005=
0089010240999992016011809004+78650+016367FM-12+002099999V0200901N003019999999N999999999-00191-00831101121ADDMA1999999100991MD1810051+9999REMSYN04801024 46/// /0903 11019 21083 30099 40112 58005=
0089010240999992016011810004+78650+016367FM-12+002099999V0200801N001019999999N999999999-00231-00701101131ADDMA1999999101001MD1410001+9999REMSYN04801024 46/// /0801 11023 21070 30100 40113 54000=
0108010240999992016011811004+78650+016367FM-12+002099999V0200601N002019999999N999999999-00251-00741101111ADDMA1999999100981MD1790019+9999REMSYN04801024 46/// /0602 11025 21074 30098 40111 54001=EQDQ01.1    3APC3  
0113010240999992016011812004+78650+016367FM-12+002099999V0201701N002019999999N999999999-00281-00601101161ADDMA1999999101021MD1110031+9999OD139900701999REMSYN05801024 46/// /1702 11028 21060 30102 40116 51003 333 91107=
0089010240999992016011813004+78650+016367FM-12+002099999V0200601N002019999999N999999999-00311-00711101171ADDMA1999999101031MD1110031+9999REMSYN04801024 46/// /0602 11031 21071 30103 40117 51003=
0089010240999992016011814004+78650+016367FM-12+002099999V0201201N001019999999N999999999-00331-00801101181ADDMA1999999101041MD1310071+9999REMSYN04801024 46/// /1201 11033 21080 30104 40118 53007=
0108010240999992016011815004+78650+016367FM-12+002099999V0200701N002019999999N999999999-00341-00861101191ADDMA1999999101051MD1290039+9999REMSYN04801024 46/// /0702 11034 21086 30105 40119 54003=EQDQ01.3    3APC3  
0108010240999992016011816004+78650+016367FM-12+002099999V0200501N003019999999N999999999-00371-00961101181ADDMA1999999101051MD1290019+9999REMSYN04801024 46/// /0503 11037 21096 30105 40118 54002=EQDQ01.2    3APC3  
0108010240999992016011817004+78650+016367FM-12+002099999V0203301N001019999999N999999999-00521-00951101201ADDMA1999999101071MD1290029+9999REMSYN04801024 46/// /3301 11052 21095 30107 40120 54003=EQDQ01.3    3APC3  
0132010240999992016011818004+78650+016367FM-12+002099999V0203001N001019999999N999999999-00531-01061101191ADDKA1120M-00151MA1999999101051MD1410001+9999OD139900501999REMSYN06401024 46/// /3001 11053 21106 30105 40119 54000 333 11015 91105=
0089010240999992016011819004+78650+016367FM-12+002099999V0203101N002019999999N999999999-00521-01051101171ADDMA1999999101041MD1510011+9999REMSYN04801024 46/// /3102 11052 21105 30104 40117 55001=
0108010240999992016011820004+78650+016367FM-12+002099999V0203301N002019999999N999999999-00401-00991101181ADDMA1999999101051MD1790029+9999REMSYN04801024 46/// /3302 11040 21099 30105 40118 54002=EQDQ01.2    3APC3  
0089010240999992016011821004+78650+016367FM-12+002099999V0200701N001019999999N999999999-00471-00821101191ADDMA1999999101051MD1410001+9999REMSYN04801024 46/// /0701 11047 21082 30105 40119 54000=
0108010240999992016011822004+78650+016367FM-12+002099999V0202701N001019999999N999999999-00511-00891101191ADDMA1999999101051MD1290029+9999REMSYN04801024 46/// /2701 11051 21089 30105 40119 54002=EQDQ01.2    3APC3  
0108010240999992016011823004+78650+016367FM-12+002099999V0203001N001019999999N999999999-00371-00771101181ADDMA1999999101041MD1410009+9999REMSYN04801024 46/// /3001 11037 21077 30104 40118 54001=EQDQ01.1    3APC3  
0089010240999992016011901004+78650+016367FM-12+002099999V0201101N002019999999N999999999-00121-00761101151ADDMA1999999101021MD1710041+9999REMSYN04801024 46/// /1102 11012 21076 30102 40115 57004=
0089010240999992016011902004+78650+016367FM-12+002099999V0209999C999999999999N999999999-00181-00721101141ADDMA1999999101011MD1710031+9999REMSYN04801024 46/// /0000 11018 21072 30101 40114 57003=
0094010240999992016011903004+78650+016367FM-12+002099999V0200301N001019999999N999999999-00171-00731101141ADDMA1999999101011REMSYN04801024 46/// /0301 11017 21073 30101 40114 54003=EQDQ014     3APCTEN
0089010240999992016011904004+78650+016367FM-12+002099999V0203401N001019999999N999999999-00281-00861101121ADDMA1999999100981MD1710031+9999REMSYN04801024 46/// /3401 11028 21086 30098 40112 57003=
0089010240999992016011905004+78650+016367FM-12+002099999V0203501N001019999999N999999999-00361-00931101091ADDMA1999999100961MD1710051+9999REMSYN04801024 46/// /3501 11036 21093 30096 40109 57005=
0113010240999992016011906004+78650+016367FM-12+002099999V0203501N001019999999N999999999-00161-00701101101ADDMA1999999100971MD1810041+9999OD139900401999REMSYN05801024 46/// /3501 11016 21070 30097 40110 58004 333 91104=
0108010240999992016011908004+78650+016367FM-12+002099999V0200201N001019999999N999999999-00181-00691101081ADDMA1999999100941MD1790019+9999REMSYN04801024 46/// /0201 11018 21069 30094 40108 54002=EQDQ01.2    3APC3  
0108010240999992016011909004+78650+016367FM-12+002099999V0200101N001019999999N999999999-00221-00741101081ADDMA1999999100941MD1790029+9999REMSYN04801024 46/// /0101 11022 21074 30094 40108 54003=EQDQ01.3    3APC3  
0094010240999992016011910004+78650+016367FM-12+002099999V0200601N003019999999N999999999-00221-00781101061ADDMA1999999100931REMSYN04801024 46/// /0603 11022 21078 30093 40106 54002=EQDQ014     3APCTEN
0108010240999992016011911004+78650+016367FM-12+002099999V0200601N003019999999N999999999-00241-00841101051ADDMA1999999100921MD1790039+9999REMSYN04801024 46/// /0603 11024 21084 30092 40105 54003=EQDQ01.3    3APC3  
0089010240999992016011912004+78650+016367FM-12+002099999V0200801N003019999999N999999999-00301-00821101031ADDMA1999999100891MD1710051+9999REMSYN04801024 46/// /0803 11030 21082 30089 40103 57005=
0089010240999992016011913004+78650+016367FM-12+002099999V0200301N001019999999N999999999-00381-00881101021ADDMA1999999100891MD1710041+9999REMSYN04801024 46/// /0301 11038 21088 30089 40102 57004=
0089010240999992016011914004+78650+016367FM-12+002099999V0203201N001019999999N999999999-00391-00851100991ADDMA1999999100861MD1710061+9999REMSYN04801024 46/// /3201 11039 21085 30086 40099 57006=
0089010240999992016011915004+78650+016367FM-12+002099999V0203101N001019999999N999999999-00491-00931100971ADDMA1999999100841MD1710051+9999REMSYN04801024 46/// /3101 11049 21093 30084 40097 57005=
0089010240999992016011916004+78650+016367FM-12+002099999V0203501N001019999999N999999999-00481-00861100961ADDMA1999999100821MD1710061+9999REMSYN04801024 46/// /3501 11048 21086 30082 40096 57006=
0089010240999992016011917004+78650+016367FM-12+002099999V0203101N002019999999N999999999-00591-00981100931ADDMA1999999100791MD1710071+9999REMSYN04801024 46/// /3102 11059 21098 30079 40093 57007=
0113010240999992016011918004+78650+016367FM-12+002099999V0203101N001019999999N999999999-00591-01031100911ADDMA1999999100781MD1710061+9999OD139900401999REMSYN05801024 46/// /3101 11059 21103 30078 40091 57006 333 91104=
0045010240999992016011920004+78656+016356FM-12+002099999V0203351N0003199999999999999999-00691-01061100871ADDMA1999999100741MD1710051+9999REMSYN004BUFR
0089010240999992016011921004+78650+016367FM-12+002099999V0209999C999999999999N999999999-00721-01081100851ADDMA1999999100721MD1710061+9999REMSYN04801024 46/// /0000 11072 21108 30072 40085 57006=
0089010240999992016011922004+78650+016367FM-12+002099999V0209999C999999999999N999999999-00641-01081100801ADDMA1999999100671MD1710101+9999REMSYN04801024 46/// /0000 11064 21108 30067 40080 57010=
0089010240999992016011923004+78650+016367FM-12+002099999V0209999C999999999999N999999999-00801-01171100791ADDMA1999999100651MD1710081+9999REMSYN04801024 46/// /0000 11080 21117 30065 40079 57008=
0089010240999992016012000004+78650+016367FM-12+002099999V0203601N001019999999N999999999-00631-01091100761ADDMA1999999100631MD1710091+9999REMSYN04801024 46/// /3601 11063 21109 30063 40076 57009=
0089010240999992016012001004+78650+016367FM-12+002099999V0200501N001019999999N999999999-00671-01081100741ADDMA1999999100611MD1710061+9999REMSYN04801024 46/// /0501 11067 21108 30061 40074 57006=
0089010240999992016012002004+78650+016367FM-12+002099999V0203101N001019999999N999999999-00731-01101100711ADDMA1999999100581MD1710081+9999REMSYN04801024 46/// /3101 11073 21110 30058 40071 57008=
0089010240999992016012003004+78650+016367FM-12+002099999V0209999C999999999999N999999999-00631-01071100681ADDMA1999999100551MD1710081+9999REMSYN04801024 46/// /0000 11063 21107 30055 40068 57008=
0089010240999992016012004004+78650+016367FM-12+002099999V0200601N001019999999N999999999-00601-01111100651ADDMA1999999100521MD1710091+9999REMSYN04801024 46/// /0601 11060 21111 30052 40065 57009=
0089010240999992016012005004+78650+016367FM-12+002099999V0209999C999999999999N999999999-00631-01011100651ADDMA1999999100521MD1810061+9999REMSYN04801024 46/// /0000 11063 21101 30052 40065 58006=
0113010240999992016012006004+78650+016367FM-12+002099999V0209999C999999999999N999999999-00711-01071100641ADDMA1999999100511MD1710041+9999OD139900201999REMSYN05801024 46/// /0000 11071 21107 30051 40064 57004 333 91102=
0108010240999992016012007004+78650+016367FM-12+002099999V0203301N001019999999N999999999-00671-01141100631ADDMA1999999100491MD1790029+9999REMSYN04801024 46/// /3301 11067 21114 30049 40063 54002=EQDQ01.2    3APC3  
0108010240999992016012008004+78650+016367FM-12+002099999V0209999C999999999999N999999999-00811-01231100631ADDMA1999999100491MD1790029+9999REMSYN04801024 46/// /0000 11081 21123 30049 40063 54003=EQDQ01.3    3APC3  
0089010240999992016012009004+78650+016367FM-12+002099999V0209999C999999999999N999999999-00721-01161100661ADDMA1999999100521MD1990021+9999REMSYN04801024 46/// /0000 11072 21116 30052 40066 50002=
0108010240999992016012010004+78650+016367FM-12+002099999V0200301N001019999999N999999999-00621-00981100651ADDMA1999999100521MD1290029+9999REMSYN04801024 46/// /0301 11062 21098 30052 40065 54002=EQDQ01.2    3APC3  
0089010240999992016012011004+78650+016367FM-12+002099999V0203201N001019999999N999999999-00691-00861100641ADDMA1999999100501MD1510011+9999REMSYN04801024 46/// /3201 11069 21086 30050 40064 55001=
0113010240999992016012012004+78650+016367FM-12+002099999V0209999C999999999999N999999999-00671-00791100611ADDMA1999999100471MD1710051+9999OD139900201999REMSYN05801024 46/// /0000 11067 21079 30047 40061 57005 333 91102=
0089010240999992016012013004+78650+016367FM-12+002099999V0203301N001019999999N999999999-00641-00741100591ADDMA1999999100451MD1710071+9999REMSYN04801024 46/// /3301 11064 21074 30045 40059 57007=
0089010240999992016012014004+78650+016367FM-12+002099999V0209999C999999999999N999999999-00671-00781100601ADDMA1999999100461MD1810041+9999REMSYN04801024 46/// /0000 11067 21078 30046 40060 58004=
0089010240999992016012015004+78650+016367FM-12+002099999V0209999C999999999999N999999999-00601-00731100631ADDMA1999999100501MD1990031+9999REMSYN04801024 46/// /0000 11060 21073 30050 40063 50003=
0089010240999992016012016004+78650+016367FM-12+002099999V0209999C999999999999N999999999-00561-00721100661ADDMA1999999100521MD1210071+9999REMSYN04801024 46/// /0000 11056 21072 30052 40066 52007=
0089010240999992016012017004+78650+016367FM-12+002099999V0200701N003019999999N999999999-00581-00971100651ADDMA1999999100521MD1310051+9999REMSYN04801024 46/// /0703 11058 21097 30052 40065 53005=
0151010240999992016012018004+78650+016367FM-12+002099999V0203301N001019999999N999999999-00631-00931100651ADDKA1120M-00551MA1999999100521MD1290029+9999OD139900401999REMSYN06401024 46/// /3301 11063 21093 30052 40065 54002 333 11055 91104=EQDQ01.2    3APC3  
0089010240999992016012019004+78650+016367FM-12+002099999V0203201N004019999999N999999999-00741-01131100701ADDMA1999999100561MD1110041+9999REMSYN04801024 46/// /3204 11074 21113 30056 40070 51004=
0089010240999992016012020004+78650+016367FM-12+002099999V0203001N003019999999N999999999-00911-01321100721ADDMA1999999100591MD1210071+9999REMSYN04801024 46/// /3003 11091 21132 30059 40072 52007=
0089010240999992016012021004+78650+016367FM-12+002099999V0203201N004019999999N999999999-00871-01321100721ADDMA1999999100591MD1310071+9999REMSYN04801024 46/// /3204 11087 21132 30059 40072 53007=
0089010240999992016012022004+78650+016367FM-12+002099999V0203201N004019999999N999999999-00931-01381100751ADDMA1999999100611MD1210051+9999REMSYN04801024 46/// /3204 11093 21138 30061 40075 52005=
0108010240999992016012023004+78650+016367FM-12+002099999V0203301N002019999999N999999999-00951-01381100761ADDMA1999999100621MD1290049+9999REMSYN04801024 46/// /3302 11095 21138 30062 40076 54003=EQDQ01.3    3APC3  
0113010240999992016012100004+78650+016367FM-12+002099999V0203201N001019999999N999999999-01141-01471100771ADDMA1999999100631MD1210041+9999OD139900601999REMSYN05801024 46/// /3201 11114 21147 30063 40077 52004 333 91106=
0108010240999992016012101004+78650+016367FM-12+002099999V0203201N003019999999N999999999-01241-01581100771ADDMA1999999100631MD1290029+9999REMSYN04801024 46/// /3203 11124 21158 30063 40077 54002=EQDQ01.2    3APC3  
0108010240999992016012102004+78650+016367FM-12+002099999V0200101N001019999999N999999999-01161-01481100781ADDMA1999999100641MD1290029+9999REMSYN04801024 46/// /0101 11116 21148 30064 40078 54002=EQDQ01.2    3APC3  
0089010240999992016012103004+78650+016367FM-12+002099999V0203301N001019999999N999999999-01351-01751100771ADDMA1999999100631MD1410001+9999REMSYN04801024 46/// /3301 11135 21175 30063 40077 54000=
0089010240999992016012104004+78650+016367FM-12+002099999V0203101N002019999999N999999999-01271-01631100741ADDMA1999999100601MD1610041+9999REMSYN04801024 46/// /3102 11127 21163 30060 40074 56004=
0089010240999992016012105004+78650+016367FM-12+002099999V0200501N001019999999N999999999-01261-01571100711ADDMA1999999100571MD1710071+9999REMSYN04801024 46/// /0501 11126 21157 30057 40071 57007=
0132010240999992016012106004+78650+016367FM-12+002099999V0203401N001019999999N999999999-01261-01561100701ADDKA1240N-01471MA1999999100571MD1710061+9999OD139900401999REMSYN06401024 46/// /3401 11126 21156 30057 40070 57006 333 21147 91104=
0089010240999992016012107004+78650+016367FM-12+002099999V0203201N001019999999N999999999-01301-01581100701ADDMA1999999100561MD1710041+9999REMSYN04801024 46/// /3201 11130 21158 30056 40070 57004=
0108010240999992016012108004+78650+016367FM-12+002099999V0209999C999999999999N999999999-01291-01631100681ADDMA1999999100551MD1790039+9999REMSYN04801024 46/// /0000 11129 21163 30055 40068 54002=EQDQ014     3APCTEN
0108010240999992016012109004+78650+016367FM-12+002099999V0209999C999999999999N999999999-01311-01671100681ADDMA1999999100541MD1790029+9999REMSYN04801024 46/// /0000 11131 21167 30054 40068 54002=EQDQ01.2    3APC3  
0089010240999992016012110004+78650+016367FM-12+002099999V0203301N001019999999N999999999-01121-01451100621ADDMA1999999100481MD1610081+9999REMSYN04801024 46/// /3301 11112 21145 30048 40062 56008=
0089010240999992016012111004+78650+016367FM-12+002099999V0203001N002019999999N999999999-01161-01491100551ADDMA1999999100421MD1610131+9999REMSYN04801024 46/// /3002 11116 21149 30042 40055 56013=
0113010240999992016012112004+78650+016367FM-12+002099999V0203001N002019999999N999999999-01091-01481100461ADDMA1999999100321MD1710221+9999OD139900401999REMSYN05801024 46/// /3002 11109 21148 30032 40046 57022 333 91104=
0089010240999992016012113004+78650+016367FM-12+002099999V0202701N002019999999N999999999-01011-01471100441ADDMA1999999100301MD1810181+9999REMSYN04801024 46/// /2702 11101 21147 30030 40044 58018=
0089010240999992016012114004+78650+016367FM-12+002099999V0209999C999999999999N999999999-00981-01421100421ADDMA1999999100281MD1810131+9999REMSYN04801024 46/// /0000 11098 21142 30028 40042 58013=
0089010240999992016012115004+78650+016367FM-12+002099999V0203101N001019999999N999999999-00911-01231100391ADDMA1999999100251MD1710071+9999REMSYN04801024 46/// /3101 11091 21123 30025 40039 57007=
0089010240999992016012116004+78650+016367FM-12+002099999V0209999C999999999999N999999999-00891-01111100311ADDMA1999999100171MD1610131+9999REMSYN04801024 46/// /0000 11089 21111 30017 40031 56013=
0089010240999992016012117004+78650+016367FM-12+002099999V0209999C999999999999N999999999-00871-01031100281ADDMA1999999100141MD1710141+9999REMSYN04801024 46/// /0000 11087 21103 30014 40028 57014=
0132010240999992016012118004+78650+016367FM-12+002099999V0200701N001019999999N999999999-00831-00961100241ADDKA1120M-00831MA1999999100101MD1810151+9999OD139900501999REMSYN06401024 46/// /0701 11083 21096 30010 40024 58015 333 11083 91105=
0089010240999992016012119004+78650+016367FM-12+002099999V0209999C999999999999N999999999-00791-00941100201ADDMA1999999100061MD1710111+9999REMSYN04801024 46/// /0000 11079 21094 30006 40020 57011=
0089010240999992016012120004+78650+016367FM-12+002099999V0200601N001019999999N999999999-00721-00891100171ADDMA1999999100031MD1710111+9999REMSYN04801024 46/// /0601 11072 21089 30003 40017 57011=
0089010240999992016012121004+78650+016367FM-12+002099999V0200301N001019999999N999999999-00681-00881100141ADDMA1999999100001MD1710101+9999REMSYN04801024 46/// /0301 11068 21088 30000 40014 57010=
0089010240999992016012122004+78650+016367FM-12+002099999V0200601N001019999999N999999999-00651-00881100091ADDMA1999999099951MD1710111+9999REMSYN04801024 46/// /0601 11065 21088 39995 40009 57011=
0045010240999992016012200004+78656+016356FM-12+002099999V0200711N0005199999999999999999-00621-00831100021ADDMA1999999099891MD1810121+9999REMSYN004BUFR
0089010240999992016012201004+78650+016367FM-12+002099999V0203101N001019999999N999999999-00621-00771099971ADDMA1999999099841MD1710121+9999REMSYN04801024 46/// /3101 11062 21077 39984 49997 57012=
0089010240999992016012202004+78650+016367FM-12+002099999V0203501N001019999999N999999999-00491-00611099981ADDMA1999999099841MD1710061+9999REMSYN04801024 46/// /3501 11049 21061 39984 49998 57006=
0089010240999992016012203004+78650+016367FM-12+002099999V0200601N001019999999N999999999-00471-00551099961ADDMA1999999099831MD1810061+9999REMSYN04801024 46/// /0601 11047 21055 39983 49996 58006=
0108010240999992016012204004+78650+016367FM-12+002099999V0209999C999999999999N999999999-00501-00611099951ADDMA1999999099811MD1790029+9999REMSYN04801024 46/// /0000 11050 21061 39981 49995 54002=EQDQ01.2    3APC3  
0089010240999992016012205004+78650+016367FM-12+002099999V0209999C999999999999N999999999-00391-00491099931ADDMA1999999099801MD1710041+9999REMSYN04801024 46/// ///// 11039 21049 39980 49993 57004=
0132010240999992016012206004+78650+016367FM-12+002099999V0209999C999999999999N999999999-00441-00541099941ADDMA1999999099811MD1790029+9999OD139900301999REMSYN05801024 46/// /0000 11044 21054 39981 49994 54002 333 91103=EQDQ01.2    3APC3  
0108010240999992016012207004+78650+016367FM-12+002099999V0209999C999999999999N999999999-00421-00481099951ADDMA1999999099821MD1410009+9999REMSYN04801024 46/// /0000 11042 21048 39982 49995 54001=EQDQ01.1    3APC3  
0089010240999992016012208004+78650+016367FM-12+002099999V0209999C999999999999N999999999-00401-00451100011ADDMA1999999099881MD1110081+9999REMSYN04801024 46/// /0000 11040 21045 39988 40001 51008=
0089010240999992016012209004+78650+016367FM-12+002099999V0200801N001019999999N999999999-00431-00481100041ADDMA1999999099911MD1210101+9999REMSYN04801024 46/// /0801 11043 21048 39991 40004 52010=
0089010240999992016012210004+78650+016367FM-12+002099999V0203201N001019999999N999999999-00391-00441100051ADDMA1999999099921MD1310101+9999REMSYN04801024 46/// /3201 11039 21044 39992 40005 53010=
0089010240999992016012211004+78650+016367FM-12+002099999V0202901N001019999999N999999999-00401-00451100071ADDMA1999999099941MD1210061+9999REMSYN04801024 46/// /2901 11040 21045 39994 40007 52006=
0113010240999992016012212004+78650+016367FM-12+002099999V0202801N001019999999N999999999-00391-00451100081ADDMA1999999099951MD1210041+9999OD139900101999REMSYN05801024 46/// /2801 11039 21045 39995 40008 52004 333 91101=
0089010240999992016012213004+78650+016367FM-12+002099999V0203501N001019999999N999999999-00361-00421100101ADDMA1999999099971MD1210051+9999REMSYN04801024 46/// /3501 11036 21042 39997 40010 52005=
0089010240999992016012214004+78650+016367FM-12+002099999V0209999C999999999999N999999999-00411-00481100121ADDMA1999999099991MD1210051+9999REMSYN04801024 46/// /0000 11041 21048 39999 40012 52005=
0089010240999992016012215004+78650+016367FM-12+002099999V0209999C999999999999N999999999-00311-00371100121ADDMA1999999099991MD1210041+9999REMSYN04801024 46/// /0000 11031 21037 39999 40012 52004=
