0072010231999992016010100204+64350+007800FM-15+000099999V0201601N014419999999N999999999+00801-00201999999ADDMA1100501999999REMMET045METAR ENDR 010020Z AUTO 16028KT 08/M02 Q1005=
0072010231999992016010100504+64350+007800FM-15+000099999V0201601N014919999999N999999999+00801-00201999999ADDMA1100501999999REMMET045METAR ENDR 010050Z AUTO 16029KT 08/M02 Q1005=
0072010231999992016010101204+64350+007800FM-15+000099999V0201601N013919999999N999999999+00801-00201999999ADDMA1100601999999REMMET045METAR ENDR 010120Z AUTO 16027KT 08/M02 Q1006=
0072010231999992016010101504+64350+007800FM-15+000099999V0201501N012919999999N999999999+00801-00201999999ADDMA1100601999999REMMET045METAR ENDR 010150Z AUTO 15025KT 08/M02 Q1006=
0072010231999992016010102204+64350+007800FM-15+000099999V0201401N014419999999N999999999+00801-00301999999ADDMA1100601999999REMMET045METAR ENDR 010220Z AUTO 14028KT 08/M03 Q1006=
0072010231999992016010102504+64350+007800FM-15+000099999V0201401N014419999999N999999999+00801-00201999999ADDMA1100701999999REMMET045METAR ENDR 010250Z AUTO 14028KT 08/M02 Q1007=
0072010231999992016010103204+64350+007800FM-15+000099999V0201401N015419999999N999999999+00801-00201999999ADDMA1100601999999REMMET045METAR ENDR 010320Z AUTO 14030KT 08/M02 Q1006=
0072010231999992016010103504+64350+007800FM-15+000099999V0201301N016019999999N999999999+00701+00001999999ADDMA1100701999999REMMET045METAR ENDR 010350Z AUTO 13031KT 07/M00 Q1007=
0072010231999992016010104204+64350+007800FM-15+000099999V0201301N017019999999N999999999+00701-00101999999ADDMA1100701999999REMMET045METAR ENDR 010420Z AUTO 13033KT 07/M01 Q1007=
0072010231999992016010104504+64350+007800FM-15+000099999V0201401N016519999999N999999999+00801-00201999999ADDMA1100701999999REMMET045METAR ENDR 010450Z AUTO 14032KT 08/M02 Q1007=
0072010231999992016010105204+64350+007800FM-15+000099999V0201401N014919999999N999999999+00801-00201999999ADDMA1100701999999REMMET045METAR ENDR 010520Z AUTO 14029KT 08/M02 Q1007=
0072010231999992016010105504+64350+007800FM-15+000099999V0201301N014419999999N999999999+00801-00101999999ADDMA1100701999999REMMET045METAR ENDR 010550Z AUTO 13028KT 08/M01 Q1007=
0072010231999992016010106204+64350+007800FM-15+000099999V0201301N013919999999N999999999+00701-00101999999ADDMA1100701999999REMMET045METAR ENDR 010620Z AUTO 13027KT 07/M01 Q1007=
0072010231999992016010106504+64350+007800FM-15+000099999V0201301N014919999999N999999999+00701-00101999999ADDMA1100701999999REMMET045METAR ENDR 010650Z AUTO 13029KT 07/M01 Q1007=
0072010231999992016010107204+64350+007800FM-15+000099999V0201501N013919999999N999999999+00701-00101999999ADDMA1100701999999REMMET045METAR ENDR 010720Z AUTO 15027KT 07/M01 Q1007=
0072010231999992016010107504+64350+007800FM-15+000099999V0201601N013419999999N999999999+00801-00201999999ADDMA1100801999999REMMET045METAR ENDR 010750Z AUTO 16026KT 08/M02 Q1008=
0072010231999992016010108204+64350+007800FM-15+000099999V0201701N012419999999N999999999+00801-00201999999ADDMA1100801999999REMMET045METAR ENDR 010820Z AUTO 17024KT 08/M02 Q1008=
0072010231999992016010108504+64350+007800FM-15+000099999V0201801N013919999999N999999999+00901-00301999999ADDMA1100901999999REMMET045METAR ENDR 010850Z AUTO 18027KT 09/M03 Q1009=
0154010231999992016010109204+64350+007800FM-15+000099999V0201901N014910243819N009999199+00901-00301999999ADDGA1071+024381999GE19MSL   +99999+99999GF199999071999024381999999MA1101001999999MW1161REMMET057METAR ENDR 010920Z 19029KT 9999 VCSH BKN080 09/M03 Q1010=
0072010231999992016010109504+64350+007800FM-15+000099999V0202001N013419999999N999999999+00801+00001999999ADDMA1101101999999REMMET045METAR ENDR 010950Z AUTO 20026KT 08/M00 Q1011=
0071010231999992016010110204+64350+007800FM-15+000099999V0202101N019019999999N999999999+00801+00101999999ADDMA1101101999999REMMET044METAR ENDR 011020Z AUTO 21037KT 08/01 Q1011=
0071010231999992016010110504+64350+007800FM-15+000099999V0202101N018019999999N999999999+00701+00201999999ADDMA1101201999999REMMET044METAR ENDR 011050Z AUTO 21035KT 07/02 Q1012=
0071010231999992016010111204+64350+007800FM-15+000099999V0202101N016519999999N999999999+00701+00201999999ADDMA1101201999999REMMET044METAR ENDR 011120Z AUTO 21032KT 07/02 Q1012=
0071010231999992016010111504+64350+007800FM-15+000099999V0202101N016019999999N999999999+00701+00201999999ADDMA1101301999999REMMET044METAR ENDR 011150Z AUTO 21031KT 07/02 Q1013=
0199010231999992016010112104+64350+007800FM-15+000099999V0202101N016010243819N009999199+00701+00201999999ADDGA1021+004571999GA2071+024381999GA3071+060961999GE19MSL   +99999+99999GF199999021999004571999999MA1101401999999MW1161REMMET070METAR ENDR 011210Z 21031KT 9999 VCSH FEW015 BKN080 BKN200 07/02 Q1014=
0071010231999992016010112504+64350+007800FM-15+000099999V0202101N018019999999N999999999+00701+00101999999ADDMA1101501999999REMMET044METAR ENDR 011250Z AUTO 21035KT 07/01 Q1015=
0071010231999992016010113204+64350+007800FM-15+000099999V0202101N016519999999N999999999+00701+00201999999ADDMA1101501999999REMMET044METAR ENDR 011320Z AUTO 21032KT 07/02 Q1015=
0071010231999992016010113504+64350+007800FM-15+000099999V0202301N014419999999N999999999+00701+00101999999ADDMA1101701999999REMMET044METAR ENDR 011350Z AUTO 23028KT 07/01 Q1017=
0072010231999992016010114204+64350+007800FM-15+000099999V0202301N016519999999N999999999+00701-00301999999ADDMA1101701999999REMMET045METAR ENDR 011420Z AUTO 23032KT 07/M03 Q1017=
0072010231999992016010114504+64350+007800FM-15+000099999V0202201N014419999999N999999999+00701-00101999999ADDMA1101801999999REMMET045METAR ENDR 011450Z AUTO 22028KT 07/M01 Q1018=
0177010231999992016010115104+64350+007800FM-15+000099999V0202201N014910243819N009999199+00701-00201999999ADDGA1021+004571999GA2071+024381999GE19MSL   +99999+99999GF199999021999004571999999MA1101801999999MW1161REMMET064METAR ENDR 011510Z 22029KT 9999 VCSH FEW015 BKN080 07/M02 Q1018=
0072010231999992016010115504+64350+007800FM-15+000099999V0202301N011819999999N999999999+00701-00201999999ADDMA1101901999999REMMET045METAR ENDR 011550Z AUTO 23023KT 07/M02 Q1019=
0072010231999992016010116204+64350+007800FM-15+000099999V0202201N014419999999N999999999+00801-00301999999ADDMA1102001999999REMMET045METAR ENDR 011620Z AUTO 22028KT 08/M03 Q1020=
0072010231999992016010116504+64350+007800FM-15+000099999V0202101N013419999999N999999999+00801-00101999999ADDMA1102001999999REMMET045METAR ENDR 011650Z AUTO 21026KT 08/M01 Q1020=
0072010231999992016010117204+64350+007800FM-15+000099999V0202101N013419999999N999999999+00701-00101999999ADDMA1102101999999REMMET045METAR ENDR 011720Z AUTO 21026KT 07/M01 Q1021=
0071010231999992016010117504+64350+007800FM-15+000099999V0202001N012919999999N999999999+00601+00001999999ADDMA1102101999999REMMET044METAR ENDR 011750Z AUTO 20025KT 06/00 Q1021=
0072010231999992016010118204+64350+007800FM-15+000099999V0201901N011319999999N999999999+00701-00101999999ADDMA1102201999999REMMET045METAR ENDR 011820Z AUTO 19022KT 07/M01 Q1022=
0072010231999992016010118504+64350+007800FM-15+000099999V0202101N014919999999N999999999+00601+00001999999ADDMA1102201999999REMMET045METAR ENDR 011850Z AUTO 21029KT 06/M00 Q1022=
0082010231999992016010119204+64350+007800FM-15+000099999V0202201N008819999999N999999999+00601+00101999999ADDMA1102301999999OC101441REMMET047METAR ENDR 011920Z AUTO 22017G28KT 06/01 Q1023=
0071010231999992016010119504+64350+007800FM-15+000099999V0202001N011319999999N999999999+00701+00001999999ADDMA1102301999999REMMET044METAR ENDR 011950Z AUTO 20022KT 07/00 Q1023=
0072010231999992016010120204+64350+007800FM-15+000099999V0201901N011819999999N999999999+00701-00201999999ADDMA1102301999999REMMET045METAR ENDR 012020Z AUTO 19023KT 07/M02 Q1023=
0072010231999992016010120504+64350+007800FM-15+000099999V0201901N011319999999N999999999+00701-00301999999ADDMA1102401999999REMMET045METAR ENDR 012050Z AUTO 19022KT 07/M03 Q1024=
0072010231999992016010121204+64350+007800FM-15+000099999V0201901N010319999999N999999999+00701-00401999999ADDMA1102401999999REMMET045METAR ENDR 012120Z AUTO 19020KT 07/M04 Q1024=
0072010231999992016010121504+64350+007800FM-15+000099999V0201801N009319999999N999999999+00701-00301999999ADDMA1102401999999REMMET045METAR ENDR 012150Z AUTO 18018KT 07/M03 Q1024=
0072010231999992016010122204+64350+007800FM-15+000099999V0201501N009319999999N999999999+00701+00001999999ADDMA1102501999999REMMET045METAR ENDR 012220Z AUTO 15018KT 07/M00 Q1025=
0071010231999992016010122504+64350+007800FM-15+000099999V0201501N009819999999N999999999+00701+00001999999ADDMA1102501999999REMMET044METAR ENDR 012250Z AUTO 15019KT 07/00 Q1025=
0071010231999992016010123204+64350+007800FM-15+000099999V0201501N009819999999N999999999+00701+00101999999ADDMA1102501999999REMMET044METAR ENDR 012320Z AUTO 15019KT 07/01 Q1025=
0072010231999992016010123504+64350+007800FM-15+000099999V0201401N011319999999N999999999+00701+00001999999ADDMA1102501999999REMMET045METAR ENDR 012350Z AUTO 14022KT 07/M00 Q1025=
0071010231999992016010200204+64350+007800FM-15+000099999V0201301N011819999999N999999999+00701+00101999999ADDMA1102501999999REMMET044METAR ENDR 020020Z AUTO 13023KT 07/01 Q1025=
0072010231999992016010200504+64350+007800FM-15+000099999V0201301N011319999999N999999999+00601+00001999999ADDMA1102501999999REMMET045METAR ENDR 020050Z AUTO 13022KT 06/M00 Q1025=
0072010231999992016010201204+64350+007800FM-15+000099999V0201201N011319999999N999999999+00601+00001999999ADDMA1102401999999REMMET045METAR ENDR 020120Z AUTO 12022KT 06/M00 Q1024=
0072010231999992016010201504+64350+007800FM-15+000099999V0201201N012419999999N999999999+00601-00101999999ADDMA1102401999999REMMET045METAR ENDR 020150Z AUTO 12024KT 06/M01 Q1024=
0072010231999992016010202204+64350+007800FM-15+000099999V0201201N012919999999N999999999+00601-00101999999ADDMA1102401999999REMMET045METAR ENDR 020220Z AUTO 12025KT 06/M01 Q1024=
0072010231999992016010202504+64350+007800FM-15+000099999V0201201N013419999999N999999999+00601-00101999999ADDMA1102401999999REMMET045METAR ENDR 020250Z AUTO 12026KT 06/M01 Q1024=
0072010231999992016010203204+64350+007800FM-15+000099999V0201201N013419999999N999999999+00501-00101999999ADDMA1102401999999REMMET045METAR ENDR 020320Z AUTO 12026KT 05/M01 Q1024=
0072010231999992016010203504+64350+007800FM-15+000099999V0201201N013919999999N999999999+00501-00201999999ADDMA1102301999999REMMET045METAR ENDR 020350Z AUTO 12027KT 05/M02 Q1023=
0072010231999992016010204204+64350+007800FM-15+000099999V0201201N012919999999N999999999+00501-00201999999ADDMA1102301999999REMMET045METAR ENDR 020420Z AUTO 12025KT 05/M02 Q1023=
0072010231999992016010204504+64350+007800FM-15+000099999V0201301N012419999999N999999999+00501-00201999999ADDMA1102301999999REMMET045METAR ENDR 020450Z AUTO 13024KT 05/M02 Q1023=
0072010231999992016010205204+64350+007800FM-15+000099999V0201201N011819999999N999999999+00601-00201999999ADDMA1102301999999REMMET045METAR ENDR 020520Z AUTO 12023KT 06/M02 Q1023=
0072010231999992016010205504+64350+007800FM-15+000099999V0201301N011319999999N999999999+00601-00201999999ADDMA1102301999999REMMET045METAR ENDR 020550Z AUTO 13022KT 06/M02 Q1023=
0072010231999992016010206204+64350+007800FM-15+000099999V0201401N012419999999N999999999+00601-00201999999ADDMA1102301999999REMMET045METAR ENDR 020620Z AUTO 14024KT 06/M02 Q1023=
0072010231999992016010206504+64350+007800FM-15+000099999V0201401N011819999999N999999999+00601-00301999999ADDMA1102301999999REMMET045METAR ENDR 020650Z AUTO 14023KT 06/M03 Q1023=
0072010231999992016010207204+64350+007800FM-15+000099999V0201401N011319999999N999999999+00601-00201999999ADDMA1102301999999REMMET045METAR ENDR 020720Z AUTO 14022KT 06/M02 Q1023=
0072010231999992016010207504+64350+007800FM-15+000099999V0201401N011819999999N999999999+00601-00201999999ADDMA1102301999999REMMET045METAR ENDR 020750Z AUTO 14023KT 06/M02 Q1023=
0072010231999992016010208204+64350+007800FM-15+000099999V0201401N012919999999N999999999+00601-00301999999ADDMA1102301999999REMMET045METAR ENDR 020820Z AUTO 14025KT 06/M03 Q1023=
0072010231999992016010208504+64350+007800FM-15+000099999V0201401N012419999999N999999999+00601-00201999999ADDMA1102301999999REMMET045METAR ENDR 020850Z AUTO 14024KT 06/M02 Q1023=
0073010231999992016010209104+64350+007800FM-15+000099999V0201401N012919999999Y999999999+00601-00201999999ADDMA1102401999999REMMET046METAR ENDR 020910Z 14025KT CAVOK 06/M02 Q1024=
0072010231999992016010209504+64350+007800FM-15+000099999V0201301N012919999999N999999999+00601-00101999999ADDMA1102401999999REMMET045METAR ENDR 020950Z AUTO 13025KT 06/M01 Q1024=
0072010231999992016010210204+64350+007800FM-15+000099999V0201301N013419999999N999999999+00601-00201999999ADDMA1102401999999REMMET045METAR ENDR 021020Z AUTO 13026KT 06/M02 Q1024=
0072010231999992016010210504+64350+007800FM-15+000099999V0201301N013419999999N999999999+00601-00101999999ADDMA1102401999999REMMET045METAR ENDR 021050Z AUTO 13026KT 06/M01 Q1024=
0072010231999992016010211204+64350+007800FM-15+000099999V0201301N013919999999N999999999+00601-00201999999ADDMA1102401999999REMMET045METAR ENDR 021120Z AUTO 13027KT 06/M02 Q1024=
0072010231999992016010211504+64350+007800FM-15+000099999V0201301N014419999999N999999999+00601-00301999999ADDMA1102401999999REMMET045METAR ENDR 021150Z AUTO 13028KT 06/M03 Q1024=
0073010231999992016010212104+64350+007800FM-15+000099999V0201301N013919999999Y999999999+00601-00301999999ADDMA1102401999999REMMET046METAR ENDR 021210Z 13027KT CAVOK 06/M03 Q1024=
0072010231999992016010212504+64350+007800FM-15+000099999V0201401N013419999999N999999999+00601-00301999999ADDMA1102401999999REMMET045METAR ENDR 021250Z AUTO 14026KT 06/M03 Q1024=
0072010231999992016010213204+64350+007800FM-15+000099999V0201401N012919999999N999999999+00601-00201999999ADDMA1102401999999REMMET045METAR ENDR 021320Z AUTO 14025KT 06/M02 Q1024=
0072010231999992016010213504+64350+007800FM-15+000099999V0201301N013419999999N999999999+00501-00401999999ADDMA1102401999999REMMET045METAR ENDR 021350Z AUTO 13026KT 05/M04 Q1024=
0072010231999992016010214204+64350+007800FM-15+000099999V0201301N014419999999N999999999+00501-00301999999ADDMA1102401999999REMMET045METAR ENDR 021420Z AUTO 13028KT 05/M03 Q1024=
0072010231999992016010214504+64350+007800FM-15+000099999V0201301N014419999999N999999999+00501-00301999999ADDMA1102401999999REMMET045METAR ENDR 021450Z AUTO 13028KT 05/M03 Q1024=
0072010231999992016010215204+64350+007800FM-15+000099999V0201301N014919999999N999999999+00501-00301999999ADDMA1102401999999REMMET045METAR ENDR 021520Z AUTO 13029KT 05/M03 Q1024=
0072010231999992016010215504+64350+007800FM-15+000099999V0201301N014919999999N999999999+00401-00401999999ADDMA1102401999999REMMET045METAR ENDR 021550Z AUTO 13029KT 04/M04 Q1024=
0072010231999992016010216204+64350+007800FM-15+000099999V0201301N014419999999N999999999+00401-00401999999ADDMA1102401999999REMMET045METAR ENDR 021620Z AUTO 13028KT 04/M04 Q1024=
0072010231999992016010216504+64350+007800FM-15+000099999V0201301N015419999999N999999999+00401-00301999999ADDMA1102401999999REMMET045METAR ENDR 021650Z AUTO 13030KT 04/M03 Q1024=
0072010231999992016010217204+64350+007800FM-15+000099999V0201301N016519999999N999999999+00301-00401999999ADDMA1102401999999REMMET045METAR ENDR 021720Z AUTO 13032KT 03/M04 Q1024=
0072010231999992016010217504+64350+007800FM-15+000099999V0201301N017019999999N999999999+00301-00501999999ADDMA1102401999999REMMET045METAR ENDR 021750Z AUTO 13033KT 03/M05 Q1024=
0072010231999992016010218204+64350+007800FM-15+000099999V0201301N016519999999N999999999+00201-00501999999ADDMA1102301999999REMMET045METAR ENDR 021820Z AUTO 13032KT 02/M05 Q1023=
0072010231999992016010218504+64350+007800FM-15+000099999V0201301N015419999999N999999999+00201-00501999999ADDMA1102301999999REMMET045METAR ENDR 021850Z AUTO 13030KT 02/M05 Q1023=
0072010231999992016010219204+64350+007800FM-15+000099999V0201301N015419999999N999999999+00301-00401999999ADDMA1102301999999REMMET045METAR ENDR 021920Z AUTO 13030KT 03/M04 Q1023=
0072010231999992016010219504+64350+007800FM-15+000099999V0201301N014419999999N999999999+00301-00501999999ADDMA1102301999999REMMET045METAR ENDR 021950Z AUTO 13028KT 03/M05 Q1023=
0072010231999992016010220204+64350+007800FM-15+000099999V0201301N013919999999N999999999+00301-00401999999ADDMA1102301999999REMMET045METAR ENDR 022020Z AUTO 13027KT 03/M04 Q1023=
0072010231999992016010220504+64350+007800FM-15+000099999V0201301N014919999999N999999999+00201-00501999999ADDMA1102301999999REMMET045METAR ENDR 022050Z AUTO 13029KT 02/M05 Q1023=
0072010231999992016010221204+64350+007800FM-15+000099999V0201301N015419999999N999999999+00201-00601999999ADDMA1102301999999REMMET045METAR ENDR 022120Z AUTO 13030KT 02/M06 Q1023=
0072010231999992016010221504+64350+007800FM-15+000099999V0201301N014919999999N999999999+00201-00601999999ADDMA1102301999999REMMET045METAR ENDR 022150Z AUTO 13029KT 02/M06 Q1023=
0072010231999992016010222204+64350+007800FM-15+000099999V0201301N014419999999N999999999+00201-00601999999ADDMA1102201999999REMMET045METAR ENDR 022220Z AUTO 13028KT 02/M06 Q1022=
0072010231999992016010222504+64350+007800FM-15+000099999V0201301N014419999999N999999999+00201-00701999999ADDMA1102201999999REMMET045METAR ENDR 022250Z AUTO 13028KT 02/M07 Q1022=
0072010231999992016010223204+64350+007800FM-15+000099999V0201301N013919999999N999999999+00201-00701999999ADDMA1102201999999REMMET045METAR ENDR 022320Z AUTO 13027KT 02/M07 Q1022=
0072010231999992016010223504+64350+007800FM-15+000099999V0201401N013419999999N999999999+00201-00801999999ADDMA1102201999999REMMET045METAR ENDR 022350Z AUTO 14026KT 02/M08 Q1022=
0072010231999992016010300204+64350+007800FM-15+000099999V0201401N013419999999N999999999+00201-00901999999ADDMA1102201999999REMMET045METAR ENDR 030020Z AUTO 14026KT 02/M09 Q1022=
0072010231999992016010300504+64350+007800FM-15+000099999V0201401N012919999999N999999999+00201-00701999999ADDMA1102201999999REMMET045METAR ENDR 030050Z AUTO 14025KT 02/M07 Q1022=
0072010231999992016010301204+64350+007800FM-15+000099999V0201401N011819999999N999999999+00201-00901999999ADDMA1102101999999REMMET045METAR ENDR 030120Z AUTO 14023KT 02/M09 Q1021=
0072010231999992016010301504+64350+007800FM-15+000099999V0201401N010819999999N999999999+00201-00801999999ADDMA1102201999999REMMET045METAR ENDR 030150Z AUTO 14021KT 02/M08 Q1022=
0072010231999992016010302204+64350+007800FM-15+000099999V0201401N011319999999N999999999+00201-00901999999ADDMA1102101999999REMMET045METAR ENDR 030220Z AUTO 14022KT 02/M09 Q1021=
0072010231999992016010302504+64350+007800FM-15+000099999V0201401N010319999999N999999999+00201-00901999999ADDMA1102101999999REMMET045METAR ENDR 030250Z AUTO 14020KT 02/M09 Q1021=
0072010231999992016010303204+64350+007800FM-15+000099999V0201501N009319999999N999999999+00201-00901999999ADDMA1102101999999REMMET045METAR ENDR 030320Z AUTO 15018KT 02/M09 Q1021=
0072010231999992016010303504+64350+007800FM-15+000099999V0201501N008819999999N999999999+00201-00901999999ADDMA1102101999999REMMET045METAR ENDR 030350Z AUTO 15017KT 02/M09 Q1021=
0072010231999992016010304204+64350+007800FM-15+000099999V0201501N008219999999N999999999+00201-00801999999ADDMA1102001999999REMMET045METAR ENDR 030420Z AUTO 15016KT 02/M08 Q1020=
0072010231999992016010304504+64350+007800FM-15+000099999V0201601N007719999999N999999999+00201-00901999999ADDMA1102001999999REMMET045METAR ENDR 030450Z AUTO 16015KT 02/M09 Q1020=
0072010231999992016010305204+64350+007800FM-15+000099999V0201401N007719999999N999999999+00201-00901999999ADDMA1102001999999REMMET045METAR ENDR 030520Z AUTO 14015KT 02/M09 Q1020=
0072010231999992016010305504+64350+007800FM-15+000099999V0201401N008219999999N999999999+00201-00801999999ADDMA1102001999999REMMET045METAR ENDR 030550Z AUTO 14016KT 02/M08 Q1020=
0143010231999992016010306104+64350+007800FM-15+000099999V0201401N007719999999N009999199+00201-00801999999ADDGA1041+012191999GE19MSL   +99999+99999GF199999041999012191999999MA1102001999999REMMET052METAR ENDR 030610Z 14015KT 9999 SCT040 02/M08 Q1020=
0072010231999992016010306504+64350+007800FM-15+000099999V0201401N007219999999N999999999+00201-00901999999ADDMA1102001999999REMMET045METAR ENDR 030650Z AUTO 14014KT 02/M09 Q1020=
0072010231999992016010307204+64350+007800FM-15+000099999V0201501N006719999999N999999999+00201-00801999999ADDMA1101901999999REMMET045METAR ENDR 030720Z AUTO 15013KT 02/M08 Q1019=
0072010231999992016010307504+64350+007800FM-15+000099999V0201501N006719999999N999999999+00201-00801999999ADDMA1101901999999REMMET045METAR ENDR 030750Z AUTO 15013KT 02/M08 Q1019=
0072010231999992016010308204+64350+007800FM-15+000099999V0201501N006219999999N999999999+00201-00801999999ADDMA1101901999999REMMET045METAR ENDR 030820Z AUTO 15012KT 02/M08 Q1019=
0072010231999992016010308504+64350+007800FM-15+000099999V0201401N006219999999N999999999+00201-00801999999ADDMA1101901999999REMMET045METAR ENDR 030850Z AUTO 14012KT 02/M08 Q1019=
0143010231999992016010309104+64350+007800FM-15+000099999V0201501N006219999999N009999199+00201-00801999999ADDGA1041+012191999GE19MSL   +99999+99999GF199999041999012191999999MA1101801999999REMMET052METAR ENDR 030910Z 15012KT 9999 SCT040 02/M08 Q1018=
0072010231999992016010309504+64350+007800FM-15+000099999V0201401N006719999999N999999999+00201-00701999999ADDMA1101801999999REMMET045METAR ENDR 030950Z AUTO 14013KT 02/M07 Q1018=
0072010231999992016010310204+64350+007800FM-15+000099999V0201401N006719999999N999999999+00201-00801999999ADDMA1101801999999REMMET045METAR ENDR 031020Z AUTO 14013KT 02/M08 Q1018=
0072010231999992016010310504+64350+007800FM-15+000099999V0201401N006719999999N999999999+00201-00801999999ADDMA1101801999999REMMET045METAR ENDR 031050Z AUTO 14013KT 02/M08 Q1018=
0072010231999992016010311204+64350+007800FM-15+000099999V0201401N006719999999N999999999+00201-00801999999ADDMA1101701999999REMMET045METAR ENDR 031120Z AUTO 14013KT 02/M08 Q1017=
0072010231999992016010311504+64350+007800FM-15+000099999V0201401N005719999999N999999999+00201-00701999999ADDMA1101701999999REMMET045METAR ENDR 031150Z AUTO 14011KT 02/M07 Q1017=
0072010231999992016010312204+64350+007800FM-15+000099999V0201301N005719999999N999999999+00201-00801999999ADDMA1101601999999REMMET045METAR ENDR 031220Z AUTO 13011KT 02/M08 Q1016=
0072010231999992016010312504+64350+007800FM-15+000099999V0201301N005719999999N999999999+00201-00801999999ADDMA1101601999999REMMET045METAR ENDR 031250Z AUTO 13011KT 02/M08 Q1016=
0072010231999992016010313204+64350+007800FM-15+000099999V0201301N006719999999N999999999+00201-00801999999ADDMA1101601999999REMMET045METAR ENDR 031320Z AUTO 13013KT 02/M08 Q1016=
0064010231999992016010313504+64350+007800FM-15+000099999V0209999N999999999999N999999999+00201-00801999999ADDMA1101501999999REMMET037METAR ENDR 031350Z AUTO 02/M08 Q1015=
0072010231999992016010314204+64350+007800FM-15+000099999V0201201N006219999999N999999999+00201-00801999999ADDMA1101501999999REMMET045METAR ENDR 031420Z AUTO 12012KT 02/M08 Q1015=
0072010231999992016010314504+64350+007800FM-15+000099999V0201201N006719999999N999999999+00101-00701999999ADDMA1101501999999REMMET045METAR ENDR 031450Z AUTO 12013KT 01/M07 Q1015=
0143010231999992016010315104+64350+007800FM-15+000099999V0201201N006719999999N009999199+00101-00801999999ADDGA1041+012191999GE19MSL   +99999+99999GF199999041999012191999999MA1101401999999REMMET052METAR ENDR 031510Z 12013KT 9999 SCT040 01/M08 Q1014=
0072010231999992016010315504+64350+007800FM-15+000099999V0201301N007219999999N999999999+00101-00801999999ADDMA1101401999999REMMET045METAR ENDR 031550Z AUTO 13014KT 01/M08 Q1014=
0072010231999992016010316204+64350+007800FM-15+000099999V0201201N007219999999N999999999+00101-00801999999ADDMA1101401999999REMMET045METAR ENDR 031620Z AUTO 12014KT 01/M08 Q1014=
0072010231999992016010316504+64350+007800FM-15+000099999V0201301N006719999999N999999999+00101-00801999999ADDMA1101301999999REMMET045METAR ENDR 031650Z AUTO 13013KT 01/M08 Q1013=
0072010231999992016010317204+64350+007800FM-15+000099999V0201201N007219999999N999999999+00101-00801999999ADDMA1101301999999REMMET045METAR ENDR 031720Z AUTO 12014KT 01/M08 Q1013=
0072010231999992016010317504+64350+007800FM-15+000099999V0201101N008219999999N999999999+00001-00801999999ADDMA1101301999999REMMET045METAR ENDR 031750Z AUTO 11016KT 00/M08 Q1013=
0064010231999992016010318204+64350+007800FM-15+000099999V0209999N999999999999N999999999+00001-00901999999ADDMA1101201999999REMMET037METAR ENDR 031820Z AUTO 00/M09 Q1012=
0073010231999992016010318504+64350+007800FM-15+000099999V0201001N008219999999N999999999+00001-01001999999ADDMA1101201999999REMMET046METAR ENDR 031850Z AUTO 10016KT M00/M10 Q1012=
0073010231999992016010319204+64350+007800FM-15+000099999V0201001N007719999999N999999999+00001-00901999999ADDMA1101201999999REMMET046METAR ENDR 031920Z AUTO 10015KT M00/M09 Q1012=
0073010231999992016010319504+64350+007800FM-15+000099999V0201001N007219999999N999999999+00001-00901999999ADDMA1101101999999REMMET046METAR ENDR 031950Z AUTO 10014KT M00/M09 Q1011=
0073010231999992016010320204+64350+007800FM-15+000099999V0201001N007219999999N999999999+00001-01101999999ADDMA1101101999999REMMET046METAR ENDR 032020Z AUTO 10014KT M00/M11 Q1011=
0073010231999992016010320504+64350+007800FM-15+000099999V0200901N007219999999N999999999+00001-01001999999ADDMA1101101999999REMMET046METAR ENDR 032050Z AUTO 09014KT M00/M10 Q1011=
0073010231999992016010321204+64350+007800FM-15+000099999V0201101N006719999999N999999999-00101-01001999999ADDMA1101001999999REMMET046METAR ENDR 032120Z AUTO 11013KT M01/M10 Q1010=
0073010231999992016010321504+64350+007800FM-15+000099999V0201001N006719999999N999999999-00101-01001999999ADDMA1101001999999REMMET046METAR ENDR 032150Z AUTO 10013KT M01/M10 Q1010=
0073010231999992016010322204+64350+007800FM-15+000099999V0201001N006219999999N999999999-00101-01001999999ADDMA1101001999999REMMET046METAR ENDR 032220Z AUTO 10012KT M01/M10 Q1010=
0073010231999992016010322504+64350+007800FM-15+000099999V0201001N006219999999N999999999-00101-00901999999ADDMA1100901999999REMMET046METAR ENDR 032250Z AUTO 10012KT M01/M09 Q1009=
0073010231999992016010323204+64350+007800FM-15+000099999V0201001N007219999999N999999999+00001-00901999999ADDMA1100901999999REMMET046METAR ENDR 032320Z AUTO 10014KT M00/M09 Q1009=
0073010231999992016010323504+64350+007800FM-15+000099999V0201001N007219999999N999999999+00001-00901999999ADDMA1100901999999REMMET046METAR ENDR 032350Z AUTO 10014KT M00/M09 Q1009=
0073010231999992016010400204+64350+007800FM-15+000099999V0201001N008219999999N999999999-00101-00901999999ADDMA1100801999999REMMET046METAR ENDR 040020Z AUTO 10016KT M01/M09 Q1008=
0073010231999992016010400504+64350+007800FM-15+000099999V0201001N008219999999N999999999-00101-00901999999ADDMA1100801999999REMMET046METAR ENDR 040050Z AUTO 10016KT M01/M09 Q1008=
0073010231999992016010401204+64350+007800FM-15+000099999V0201001N008819999999N999999999-00101-00901999999ADDMA1100801999999REMMET046METAR ENDR 040120Z AUTO 10017KT M01/M09 Q1008=
0073010231999992016010401504+64350+007800FM-15+000099999V0201101N009319999999N999999999-00101-01001999999ADDMA1100801999999REMMET046METAR ENDR 040150Z AUTO 11018KT M01/M10 Q1008=
0073010231999992016010402204+64350+007800FM-15+000099999V0201001N009819999999N999999999-00101-01001999999ADDMA1100701999999REMMET046METAR ENDR 040220Z AUTO 10019KT M01/M10 Q1007=
0073010231999992016010402504+64350+007800FM-15+000099999V0201001N009819999999N999999999-00101-01001999999ADDMA1100701999999REMMET046METAR ENDR 040250Z AUTO 10019KT M01/M10 Q1007=
0073010231999992016010403204+64350+007800FM-15+000099999V0200901N010319999999N999999999-00101-00901999999ADDMA1100701999999REMMET046METAR ENDR 040320Z AUTO 09020KT M01/M09 Q1007=
0073010231999992016010403504+64350+007800FM-15+000099999V0200901N010819999999N999999999-00101-01001999999ADDMA1100701999999REMMET046METAR ENDR 040350Z AUTO 09021KT M01/M10 Q1007=
0073010231999992016010404204+64350+007800FM-15+000099999V0201001N010319999999N999999999-00101-01001999999ADDMA1100701999999REMMET046METAR ENDR 040420Z AUTO 10020KT M01/M10 Q1007=
0073010231999992016010404504+64350+007800FM-15+000099999V0201101N011819999999N999999999-00101-00901999999ADDMA1100601999999REMMET046METAR ENDR 040450Z AUTO 11023KT M01/M09 Q1006=
0065010231999992016010405204+64350+007800FM-15+000099999V0209999N999999999999N999999999-00201-01101999999ADDMA1100601999999REMMET038METAR ENDR 040520Z AUTO M02/M11 Q1006=
0073010231999992016010405504+64350+007800FM-15+000099999V0201101N013919999999N999999999-00201-01201999999ADDMA1100601999999REMMET046METAR ENDR 040550Z AUTO 11027KT M02/M12 Q1006=
0073010231999992016010406104+64350+007800FM-15+000099999V0201101N014919999999N009999199-00201-01301999999ADDMA1100601999999REMMET046METAR ENDR 040610Z 11029KT 9999 M02/M13 Q1006=
0073010231999992016010406504+64350+007800FM-15+000099999V0201001N015419999999N999999999-00201-01101999999ADDMA1100601999999REMMET046METAR ENDR 040650Z AUTO 10030KT M02/M11 Q1006=
0073010231999992016010407204+64350+007800FM-15+000099999V0201201N014419999999N999999999-00101-01001999999ADDMA1100601999999REMMET046METAR ENDR 040720Z AUTO 12028KT M01/M10 Q1006=
0073010231999992016010407504+64350+007800FM-15+000099999V0201101N013419999999N999999999-00201-01001999999ADDMA1100601999999REMMET046METAR ENDR 040750Z AUTO 11026KT M02/M10 Q1006=
0073010231999992016010408204+64350+007800FM-15+000099999V0201101N012919999999N999999999-00201-00901999999ADDMA1100601999999REMMET046METAR ENDR 040820Z AUTO 11025KT M02/M09 Q1006=
0073010231999992016010408504+64350+007800FM-15+000099999V0201101N013419999999N999999999-00201-01101999999ADDMA1100601999999REMMET046METAR ENDR 040850Z AUTO 11026KT M02/M11 Q1006=
0144010231999992016010409204+64350+007800FM-15+000099999V0201001N013919999999N009999199-00201-01001999999ADDGA1021+006101999GE19MSL   +99999+99999GF199999021999006101999999MA1100601999999REMMET053METAR ENDR 040920Z 10027KT 9999 FEW020 M02/M10 Q1006=
0073010231999992016010409504+64350+007800FM-15+000099999V0200901N014919999999N999999999-00201-01001999999ADDMA1100501999999REMMET046METAR ENDR 040950Z AUTO 09029KT M02/M10 Q1005=
0073010231999992016010410204+64350+007800FM-15+000099999V0201001N014419999999N999999999-00201-01001999999ADDMA1100501999999REMMET046METAR ENDR 041020Z AUTO 10028KT M02/M10 Q1005=
0073010231999992016010410504+64350+007800FM-15+000099999V0200901N014919999999N999999999-00301-01101999999ADDMA1100501999999REMMET046METAR ENDR 041050Z AUTO 09029KT M03/M11 Q1005=
0065010231999992016010411204+64350+007800FM-15+000099999V0209999N999999999999N999999999-00301-01101999999ADDMA1100501999999REMMET038METAR ENDR 041120Z AUTO M03/M11 Q1005=
0073010231999992016010411504+64350+007800FM-15+000099999V0200901N014919999999N999999999-00301-01101999999ADDMA1100501999999REMMET046METAR ENDR 041150Z AUTO 09029KT M03/M11 Q1005=
0144010231999992016010412104+64350+007800FM-15+000099999V0200901N013910061019N009999199-00301-01001999999ADDGA1071+006101999GE19MSL   +99999+99999GF199999071999006101999999MA1100501999999REMMET053METAR ENDR 041210Z 09027KT 9999 BKN020 M03/M10 Q1005=
0073010231999992016010412504+64350+007800FM-15+000099999V0200801N012919999999N999999999-00301-01201999999ADDMA1100501999999REMMET046METAR ENDR 041250Z AUTO 08025KT M03/M12 Q1005=
0073010231999992016010413204+64350+007800FM-15+000099999V0200801N012419999999N999999999-00301-01101999999ADDMA1100501999999REMMET046METAR ENDR 041320Z AUTO 08024KT M03/M11 Q1005=
0073010231999992016010413504+64350+007800FM-15+000099999V0200901N012419999999N999999999-00301-01001999999ADDMA1100401999999REMMET046METAR ENDR 041350Z AUTO 09024KT M03/M10 Q1004=
0073010231999992016010414204+64350+007800FM-15+000099999V0200801N011819999999N999999999-00301-01001999999ADDMA1100401999999REMMET046METAR ENDR 041420Z AUTO 08023KT M03/M10 Q1004=
0073010231999992016010414504+64350+007800FM-15+000099999V0200801N010319999999N999999999-00301-01101999999ADDMA1100401999999REMMET046METAR ENDR 041450Z AUTO 08020KT M03/M11 Q1004=
0177010231999992016010415104+64350+007800FM-15+000099999V0200701N009810061019N005000199-00301-01001999999ADDGA1021+001521999GA2071+006101999GE19MSL   +99999+99999GF199999021999001521999999MA1100401999999MW1711REMMET064METAR ENDR 041510Z 07019KT 5000 -SN FEW005 BKN020 M03/M10 Q1004=
0073010231999992016010415504+64350+007800FM-15+000099999V0200701N009819999999N999999999-00301-00901999999ADDMA1100401999999REMMET046METAR ENDR 041550Z AUTO 07019KT M03/M09 Q1004=
0073010231999992016010416204+64350+007800FM-15+000099999V0200801N011319999999N999999999-00401-01001999999ADDMA1100301999999REMMET046METAR ENDR 041620Z AUTO 08022KT M04/M10 Q1003=
0073010231999992016010416504+64350+007800FM-15+000099999V0200901N010819999999N999999999-00401-01201999999ADDMA1100301999999REMMET046METAR ENDR 041650Z AUTO 09021KT M04/M12 Q1003=
0073010231999992016010417204+64350+007800FM-15+000099999V0200801N010819999999N999999999-00401-01101999999ADDMA1100301999999REMMET046METAR ENDR 041720Z AUTO 08021KT M04/M11 Q1003=
0073010231999992016010417504+64350+007800FM-15+000099999V0200701N008819999999N999999999-00401-01201999999ADDMA1100301999999REMMET046METAR ENDR 041750Z AUTO 07017KT M04/M12 Q1003=
0073010231999992016010418204+64350+007800FM-15+000099999V0200701N007719999999N999999999-00401-01201999999ADDMA1100301999999REMMET046METAR ENDR 041820Z AUTO 07015KT M04/M12 Q1003=
0073010231999992016010418504+64350+007800FM-15+000099999V0200601N007719999999N999999999-00401-01201999999ADDMA1100301999999REMMET046METAR ENDR 041850Z AUTO 06015KT M04/M12 Q1003=
0073010231999992016010419204+64350+007800FM-15+000099999V0200801N008819999999N999999999-00401-01201999999ADDMA1100301999999REMMET046METAR ENDR 041920Z AUTO 08017KT M04/M12 Q1003=
0081010231999992016010419504+64350+007800FM-15+000099999V0200701V007219999999N999999999-00401-01201999999ADDMA1100201999999REMMET054METAR ENDR 041950Z AUTO 07014KT 040V100 M04/M12 Q1002=
0073010231999992016010420204+64350+007800FM-15+000099999V0200801N008219999999N999999999-00301-01301999999ADDMA1100201999999REMMET046METAR ENDR 042020Z AUTO 08016KT M03/M13 Q1002=
0073010231999992016010420504+64350+007800FM-15+000099999V0200801N006719999999N999999999-00301-01401999999ADDMA1100101999999REMMET046METAR ENDR 042050Z AUTO 08013KT M03/M14 Q1001=
0081010231999992016010421204+64350+007800FM-15+000099999V0200901V005719999999N999999999-00401-01401999999ADDMA1100101999999REMMET054METAR ENDR 042120Z AUTO 09011KT 070V130 M04/M14 Q1001=
0081010231999992016010421504+64350+007800FM-15+000099999V0200601V004619999999N999999999-00301-01401999999ADDMA1100101999999REMMET054METAR ENDR 042150Z AUTO 06009KT 010V110 M03/M14 Q1001=
0073010231999992016010422204+64350+007800FM-15+000099999V0201301N005119999999N999999999-00301-01401999999ADDMA1100101999999REMMET046METAR ENDR 042220Z AUTO 13010KT M03/M14 Q1001=
0073010231999992016010422504+64350+007800FM-15+000099999V0201401N007219999999N999999999-00301-01301999999ADDMA1100001999999REMMET046METAR ENDR 042250Z AUTO 14014KT M03/M13 Q1000=
0081010231999992016010423204+64350+007800FM-15+000099999V0201601V004119999999N999999999-00301-01301999999ADDMA1100001999999REMMET054METAR ENDR 042320Z AUTO 16008KT 130V200 M03/M13 Q1000=
0081010231999992016010423504+64350+007800FM-15+000099999V0201301V005119999999N999999999-00301-01401999999ADDMA1100001999999REMMET054METAR ENDR 042350Z AUTO 13010KT 100V170 M03/M14 Q1000=
0073010231999992016010500204+64350+007800FM-15+000099999V0201601N008219999999N999999999-00301-01001999999ADDMA1100001999999REMMET046METAR ENDR 050020Z AUTO 16016KT M03/M10 Q1000=
0073010231999992016010500504+64350+007800FM-15+000099999V0202201N006719999999N999999999-00401-01001999999ADDMA1100001999999REMMET046METAR ENDR 050050Z AUTO 22013KT M04/M10 Q1000=
0073010231999992016010501204+64350+007800FM-15+000099999V0202101N006219999999N999999999-00201-01401999999ADDMA1100101999999REMMET046METAR ENDR 050120Z AUTO 21012KT M02/M14 Q1001=
0073010231999992016010501504+64350+007800FM-15+000099999V0202001N006719999999N999999999-00201-01401999999ADDMA1100101999999REMMET046METAR ENDR 050150Z AUTO 20013KT M02/M14 Q1001=
0073010231999992016010502204+64350+007800FM-15+000099999V0201901N006719999999N999999999-00201-01401999999ADDMA1100101999999REMMET046METAR ENDR 050220Z AUTO 19013KT M02/M14 Q1001=
0073010231999992016010502504+64350+007800FM-15+000099999V0201801N007219999999N999999999-00201-01301999999ADDMA1100101999999REMMET046METAR ENDR 050250Z AUTO 18014KT M02/M13 Q1001=
0073010231999992016010503204+64350+007800FM-15+000099999V0201701N007219999999N999999999-00101-01201999999ADDMA1100101999999REMMET046METAR ENDR 050320Z AUTO 17014KT M01/M12 Q1001=
0073010231999992016010503504+64350+007800FM-15+000099999V0201401N006219999999N999999999-00201-00901999999ADDMA1100201999999REMMET046METAR ENDR 050350Z AUTO 14012KT M02/M09 Q1002=
0081010231999992016010504204+64350+007800FM-15+000099999V0201601V005719999999N999999999-00201-00701999999ADDMA1100201999999REMMET054METAR ENDR 050420Z AUTO 16011KT 120V190 M02/M07 Q1002=
0081010231999992016010504504+64350+007800FM-15+000099999V0201701V007219999999N999999999-00201-00401999999ADDMA1100201999999REMMET054METAR ENDR 050450Z AUTO 17014KT 120V220 M02/M04 Q1002=
0073010231999992016010505204+64350+007800FM-15+000099999V0201301N012919999999N999999999-00201-00501999999ADDMA1100201999999REMMET046METAR ENDR 050520Z AUTO 13025KT M02/M05 Q1002=
0073010231999992016010505504+64350+007800FM-15+000099999V0201801N007719999999N999999999-00201-00201999999ADDMA1100201999999REMMET046METAR ENDR 050550Z AUTO 18015KT M02/M02 Q1002=
0173010231999992016010506204+64350+007800FM-15+000099999V0201801V007210009119N009999199-00101-00501999999ADDGA1071+000911999GE19MSL   +99999+99999GF199999071999000911999999MA1100201999999MW1711OC101601REMMET068METAR ENDR 050620Z 18014G31KT 150V210 9999 -SN BKN003 M01/M05 Q1002=
0073010231999992016010506504+64350+007800FM-15+000099999V0202001N007719999999N999999999-00101-00901999999ADDMA1100301999999REMMET046METAR ENDR 050650Z AUTO 20015KT M01/M09 Q1003=
0073010231999992016010507204+64350+007800FM-15+000099999V0202101N007719999999N999999999-00101-01201999999ADDMA1100301999999REMMET046METAR ENDR 050720Z AUTO 21015KT M01/M12 Q1003=
0073010231999992016010507504+64350+007800FM-15+000099999V0202001N005719999999N999999999+00001-01101999999ADDMA1100401999999REMMET046METAR ENDR 050750Z AUTO 20011KT M00/M11 Q1004=
0072010231999992016010508204+64350+007800FM-15+000099999V0202001N005719999999N999999999+00001-01001999999ADDMA1100401999999REMMET045METAR ENDR 050820Z AUTO 20011KT 00/M10 Q1004=
0080010231999992016010508504+64350+007800FM-15+000099999V0201801V003619999999N999999999+00101-00901999999ADDMA1100501999999REMMET053METAR ENDR 050850Z AUTO 18007KT 130V210 01/M09 Q1005=
0164010231999992016010509104+64350+007800FM-15+000099999V0201501N012410061019N009999199+00001-00701999999ADDGA1071+006101999GE19MSL   +99999+99999GF199999071999006101999999MA1100401999999MW1161MW2711REMMET061METAR ENDR 050910Z 15024KT 9999 -SN VCSH BKN020 00/M07 Q1004=
0073010231999992016010509504+64350+007800FM-15+000099999V0201501N011319999999N999999999+00001-00501999999ADDMA1100501999999REMMET046METAR ENDR 050950Z AUTO 15022KT M00/M05 Q1005=
0072010231999992016010510204+64350+007800FM-15+000099999V0201601N009819999999N999999999+00001-00501999999ADDMA1100501999999REMMET045METAR ENDR 051020Z AUTO 16019KT 00/M05 Q1005=
0072010231999992016010510504+64350+007800FM-15+000099999V0201601N007719999999N999999999+00001-00701999999ADDMA1100501999999REMMET045METAR ENDR 051050Z AUTO 16015KT 00/M07 Q1005=
0072010231999992016010511204+64350+007800FM-15+000099999V0201501N007219999999N999999999+00101-00601999999ADDMA1100601999999REMMET045METAR ENDR 051120Z AUTO 15014KT 01/M06 Q1006=
0072010231999992016010511504+64350+007800FM-15+000099999V0201601N005719999999N999999999+00101-00601999999ADDMA1100601999999REMMET045METAR ENDR 051150Z AUTO 16011KT 01/M06 Q1006=
0156010231999992016010512104+64350+007800FM-15+000099999V0201401N005719999999N009999199+00101-00601999999ADDGA1041+006101091GE19MSL   +99999+99999GF199999041999006101999999MA1100601999999MW1161REMMET059METAR ENDR 051210Z 14011KT 9999 VCSH SCT020CB 01/M06 Q1006=
0072010231999992016010512504+64350+007800FM-15+000099999V0201301N007719999999N999999999+00101-00601999999ADDMA1100601999999REMMET045METAR ENDR 051250Z AUTO 13015KT 01/M06 Q1006=
0072010231999992016010513204+64350+007800FM-15+000099999V0201301N010319999999N999999999+00001-00601999999ADDMA1100601999999REMMET045METAR ENDR 051320Z AUTO 13020KT 00/M06 Q1006=
0072010231999992016010513504+64350+007800FM-15+000099999V0201301N010319999999N999999999+00001-00601999999ADDMA1100601999999REMMET045METAR ENDR 051350Z AUTO 13020KT 00/M06 Q1006=
0073010231999992016010514204+64350+007800FM-15+000099999V0201301N011819999999N999999999+00001-00701999999ADDMA1100601999999REMMET046METAR ENDR 051420Z AUTO 13023KT M00/M07 Q1006=
0073010231999992016010514504+64350+007800FM-15+000099999V0201201N011319999999N999999999+00001-00701999999ADDMA1100601999999REMMET046METAR ENDR 051450Z AUTO 12022KT M00/M07 Q1006=
0143010231999992016010515104+64350+007800FM-15+000099999V0201301N011310061019N009999199+00001-00701999999ADDGA1071+006101999GE19MSL   +99999+99999GF199999071999006101999999MA1100601999999REMMET052METAR ENDR 051510Z 13022KT 9999 BKN020 00/M07 Q1006=
0072010231999992016010515504+64350+007800FM-15+000099999V0201301N010819999999N999999999+00101-00601999999ADDMA1100701999999REMMET045METAR ENDR 051550Z AUTO 13021KT 01/M06 Q1007=
0072010231999992016010516204+64350+007800FM-15+000099999V0201301N011319999999N999999999+00001-00601999999ADDMA1100701999999REMMET045METAR ENDR 051620Z AUTO 13022KT 00/M06 Q1007=
0072010231999992016010516504+64350+007800FM-15+000099999V0201301N011319999999N999999999+00101-00601999999ADDMA1100701999999REMMET045METAR ENDR 051650Z AUTO 13022KT 01/M06 Q1007=
0072010231999992016010517204+64350+007800FM-15+000099999V0201301N011319999999N999999999+00101-00601999999ADDMA1100701999999REMMET045METAR ENDR 051720Z AUTO 13022KT 01/M06 Q1007=
0072010231999992016010517504+64350+007800FM-15+000099999V0201401N010819999999N999999999+00101-00501999999ADDMA1100701999999REMMET045METAR ENDR 051750Z AUTO 14021KT 01/M05 Q1007=
0072010231999992016010518204+64350+007800FM-15+000099999V0201401N010319999999N999999999+00101-00501999999ADDMA1100701999999REMMET045METAR ENDR 051820Z AUTO 14020KT 01/M05 Q1007=
0072010231999992016010519204+64350+007800FM-15+000099999V0201401N010819999999N999999999+00101-00601999999ADDMA1100701999999REMMET045METAR ENDR 051920Z AUTO 14021KT 01/M06 Q1007=
0072010231999992016010519504+64350+007800FM-15+000099999V0201301N011319999999N999999999+00101-00601999999ADDMA1100701999999REMMET045METAR ENDR 051950Z AUTO 13022KT 01/M06 Q1007=
0072010231999992016010520204+64350+007800FM-15+000099999V0201301N011319999999N999999999+00101-00601999999ADDMA1100701999999REMMET045METAR ENDR 052020Z AUTO 13022KT 01/M06 Q1007=
0072010231999992016010520504+64350+007800FM-15+000099999V0201301N010819999999N999999999+00101-00501999999ADDMA1100801999999REMMET045METAR ENDR 052050Z AUTO 13021KT 01/M05 Q1008=
0072010231999992016010521204+64350+007800FM-15+000099999V0201301N010819999999N999999999+00101-00501999999ADDMA1100801999999REMMET045METAR ENDR 052120Z AUTO 13021KT 01/M05 Q1008=
0072010231999992016010521504+64350+007800FM-15+000099999V0201401N010319999999N999999999+00101-00401999999ADDMA1100801999999REMMET045METAR ENDR 052150Z AUTO 14020KT 01/M04 Q1008=
0072010231999992016010522204+64350+007800FM-15+000099999V0201401N009819999999N999999999+00101-00301999999ADDMA1100801999999REMMET045METAR ENDR 052220Z AUTO 14019KT 01/M03 Q1008=
0072010231999992016010522504+64350+007800FM-15+000099999V0201401N010319999999N999999999+00101-00201999999ADDMA1100801999999REMMET045METAR ENDR 052250Z AUTO 14020KT 01/M02 Q1008=
0072010231999992016010523204+64350+007800FM-15+000099999V0201401N010819999999N999999999+00101+00001999999ADDMA1100801999999REMMET045METAR ENDR 052320Z AUTO 14021KT 01/M00 Q1008=
0072010231999992016010523504+64350+007800FM-15+000099999V0201501N010819999999N999999999+00001-00301999999ADDMA1100801999999REMMET045METAR ENDR 052350Z AUTO 15021KT 00/M03 Q1008=
0071010231999992016010600204+64350+007800FM-15+000099999V0201401N010819999999N999999999+00101+00101999999ADDMA1100801999999REMMET044METAR ENDR 060020Z AUTO 14021KT 01/01 Q1008=
0072010231999992016010600504+64350+007800FM-15+000099999V0201401N010319999999N999999999+00001+00001999999ADDMA1100801999999REMMET045METAR ENDR 060050Z AUTO 14020KT 00/M00 Q1008=
0071010231999992016010601204+64350+007800FM-15+000099999V0201401N009819999999N999999999+00001+00001999999ADDMA1100801999999REMMET044METAR ENDR 060120Z AUTO 14019KT 00/00 Q1008=
0071010231999992016010601504+64350+007800FM-15+000099999V0201501N009819999999N999999999+00101+00101999999ADDMA1100801999999REMMET044METAR ENDR 060150Z AUTO 15019KT 01/01 Q1008=
0071010231999992016010602204+64350+007800FM-15+000099999V0201501N009819999999N999999999+00101+00101999999ADDMA1100801999999REMMET044METAR ENDR 060220Z AUTO 15019KT 01/01 Q1008=
0071010231999992016010602504+64350+007800FM-15+000099999V0201501N009319999999N999999999+00201+00201999999ADDMA1100801999999REMMET044METAR ENDR 060250Z AUTO 15018KT 02/02 Q1008=
0071010231999992016010603204+64350+007800FM-15+000099999V0201601N009319999999N999999999+00201+00201999999ADDMA1100801999999REMMET044METAR ENDR 060320Z AUTO 16018KT 02/02 Q1008=
0071010231999992016010603504+64350+007800FM-15+000099999V0201701N008219999999N999999999+00201+00201999999ADDMA1100801999999REMMET044METAR ENDR 060350Z AUTO 17016KT 02/02 Q1008=
0071010231999992016010604204+64350+007800FM-15+000099999V0201801N007719999999N999999999+00301+00201999999ADDMA1100801999999REMMET044METAR ENDR 060420Z AUTO 18015KT 03/02 Q1008=
0071010231999992016010604504+64350+007800FM-15+000099999V0201701N007719999999N999999999+00301+00101999999ADDMA1100801999999REMMET044METAR ENDR 060450Z AUTO 17015KT 03/01 Q1008=
0071010231999992016010605204+64350+007800FM-15+000099999V0201701N007219999999N999999999+00301+00101999999ADDMA1100801999999REMMET044METAR ENDR 060520Z AUTO 17014KT 03/01 Q1008=
0071010231999992016010605504+64350+007800FM-15+000099999V0201501N010319999999N999999999+00201+00201999999ADDMA1100801999999REMMET044METAR ENDR 060550Z AUTO 15020KT 02/02 Q1008=
0165010231999992016010606104+64350+007800FM-15+000099999V0201401N009310045719N009999199+00201+00201999999ADDGA1041+001521999GA2071+004571999GE19MSL   +99999+99999GF199999041999001521999999MA1100801999999REMMET058METAR ENDR 060610Z 14018KT 9999 SCT005 BKN015 02/02 Q1008=
0071010231999992016010606504+64350+007800FM-15+000099999V0201301N009819999999N999999999+00201+00101999999ADDMA1100801999999REMMET044METAR ENDR 060650Z AUTO 13019KT 02/01 Q1008=
0072010231999992016010607204+64350+007800FM-15+000099999V0201301N008219999999N999999999+00201+00001999999ADDMA1100801999999REMMET045METAR ENDR 060720Z AUTO 13016KT 02/M00 Q1008=
0071010231999992016010607504+64350+007800FM-15+000099999V0201201N010319999999N999999999+00101+00101999999ADDMA1100801999999REMMET044METAR ENDR 060750Z AUTO 12020KT 01/01 Q1008=
0071010231999992016010608204+64350+007800FM-15+000099999V0201201N010819999999N999999999+00101+00001999999ADDMA1100901999999REMMET044METAR ENDR 060820Z AUTO 12021KT 01/00 Q1009=
0072010231999992016010608504+64350+007800FM-15+000099999V0201201N010319999999N999999999+00101+00001999999ADDMA1100901999999REMMET045METAR ENDR 060850Z AUTO 12020KT 01/M00 Q1009=
0072010231999992016010609204+64350+007800FM-15+000099999V0201101N010319999999N999999999+00001+00001999999ADDMA1100901999999REMMET045METAR ENDR 060920Z AUTO 11020KT 00/M00 Q1009=
0072010231999992016010609504+64350+007800FM-15+000099999V0201101N009819999999N999999999+00001-00101999999ADDMA1100901999999REMMET045METAR ENDR 060950Z AUTO 11019KT 00/M01 Q1009=
0143010231999992016010610104+64350+007800FM-15+000099999V0201201N009810045719N009999199+00101-00101999999ADDGA1081+004571999GE19MSL   +99999+99999GF199999081999004571999999MA1100901999999REMMET052METAR ENDR 061010Z 12019KT 9999 OVC015 01/M01 Q1009=
0072010231999992016010610504+64350+007800FM-15+000099999V0201101N009319999999N999999999+00001-00101999999ADDMA1100901999999REMMET045METAR ENDR 061050Z AUTO 11018KT 00/M01 Q1009=
0072010231999992016010611204+64350+007800FM-15+000099999V0201101N008819999999N999999999+00001-00101999999ADDMA1100901999999REMMET045METAR ENDR 061120Z AUTO 11017KT 00/M01 Q1009=
0072010231999992016010611504+64350+007800FM-15+000099999V0201001N007719999999N999999999+00001-00101999999ADDMA1101001999999REMMET045METAR ENDR 061150Z AUTO 10015KT 00/M01 Q1010=
0143010231999992016010612104+64350+007800FM-15+000099999V0201001N007210045719N009999199+00001-00201999999ADDGA1081+004571999GE19MSL   +99999+99999GF199999081999004571999999MA1100901999999REMMET052METAR ENDR 061210Z 10014KT 9999 OVC015 00/M02 Q1009=
0072010231999992016010612504+64350+007800FM-15+000099999V0200801N007719999999N999999999+00101-00201999999ADDMA1101001999999REMMET045METAR ENDR 061250Z AUTO 08015KT 01/M02 Q1010=
0072010231999992016010613204+64350+007800FM-15+000099999V0200701N008219999999N999999999+00101-00401999999ADDMA1101001999999REMMET045METAR ENDR 061320Z AUTO 07016KT 01/M04 Q1010=
0072010231999992016010613504+64350+007800FM-15+000099999V0200601N007219999999N999999999+00001-00401999999ADDMA1101001999999REMMET045METAR ENDR 061350Z AUTO 06014KT 00/M04 Q1010=
0072010231999992016010614204+64350+007800FM-15+000099999V0200701N006719999999N999999999+00001-00501999999ADDMA1101001999999REMMET045METAR ENDR 061420Z AUTO 07013KT 00/M05 Q1010=
0072010231999992016010614504+64350+007800FM-15+000099999V0200801N007719999999N999999999+00101-00501999999ADDMA1101001999999REMMET045METAR ENDR 061450Z AUTO 08015KT 01/M05 Q1010=
0143010231999992016010615104+64350+007800FM-15+000099999V0200801N007710061019N009999199+00101-00601999999ADDGA1071+006101999GE19MSL   +99999+99999GF199999071999006101999999MA1101001999999REMMET052METAR ENDR 061510Z 08015KT 9999 BKN020 01/M06 Q1010=
0072010231999992016010615504+64350+007800FM-15+000099999V0200701N008219999999N999999999+00101-00601999999ADDMA1101001999999REMMET045METAR ENDR 061550Z AUTO 07016KT 01/M06 Q1010=
0072010231999992016010616204+64350+007800FM-15+000099999V0200701N007719999999N999999999+00001-00801999999ADDMA1101001999999REMMET045METAR ENDR 061620Z AUTO 07015KT 00/M08 Q1010=
0072010231999992016010616504+64350+007800FM-15+000099999V0200601N008219999999N999999999+00001-00701999999ADDMA1101001999999REMMET045METAR ENDR 061650Z AUTO 06016KT 00/M07 Q1010=
0072010231999992016010617204+64350+007800FM-15+000099999V0200601N007719999999N999999999+00001-01001999999ADDMA1101001999999REMMET045METAR ENDR 061720Z AUTO 06015KT 00/M10 Q1010=
0073010231999992016010617504+64350+007800FM-15+000099999V0200701N008819999999N999999999+00001-01101999999ADDMA1101001999999REMMET046METAR ENDR 061750Z AUTO 07017KT M00/M11 Q1010=
0073010231999992016010618204+64350+007800FM-15+000099999V0200701N009319999999N999999999+00001-01101999999ADDMA1101001999999REMMET046METAR ENDR 061820Z AUTO 07018KT M00/M11 Q1010=
0073010231999992016010618504+64350+007800FM-15+000099999V0200701N009819999999N999999999+00001-00901999999ADDMA1101001999999REMMET046METAR ENDR 061850Z AUTO 07019KT M00/M09 Q1010=
0073010231999992016010619204+64350+007800FM-15+000099999V0200701N010319999999N999999999+00001-01001999999ADDMA1101001999999REMMET046METAR ENDR 061920Z AUTO 07020KT M00/M10 Q1010=
0073010231999992016010619504+64350+007800FM-15+000099999V0200701N011319999999N999999999+00001-01001999999ADDMA1101001999999REMMET046METAR ENDR 061950Z AUTO 07022KT M00/M10 Q1010=
0073010231999992016010620204+64350+007800FM-15+000099999V0200701N011319999999N999999999+00001-01101999999ADDMA1100901999999REMMET046METAR ENDR 062020Z AUTO 07022KT M00/M11 Q1009=
0073010231999992016010620504+64350+007800FM-15+000099999V0200701N010819999999N999999999-00101-01001999999ADDMA1100901999999REMMET046METAR ENDR 062050Z AUTO 07021KT M01/M10 Q1009=
0073010231999992016010621204+64350+007800FM-15+000099999V0200701N010819999999N999999999-00101-01001999999ADDMA1100901999999REMMET046METAR ENDR 062120Z AUTO 07021KT M01/M10 Q1009=
0073010231999992016010621504+64350+007800FM-15+000099999V0200701N011319999999N999999999-00101-01101999999ADDMA1100901999999REMMET046METAR ENDR 062150Z AUTO 07022KT M01/M11 Q1009=
0073010231999992016010622204+64350+007800FM-15+000099999V0200801N011319999999N999999999-00101-00801999999ADDMA1100901999999REMMET046METAR ENDR 062220Z AUTO 08022KT M01/M08 Q1009=
0073010231999992016010622504+64350+007800FM-15+000099999V0200701N010819999999N999999999-00101-00801999999ADDMA1100901999999REMMET046METAR ENDR 062250Z AUTO 07021KT M01/M08 Q1009=
0073010231999992016010623204+64350+007800FM-15+000099999V0200801N010819999999N999999999-00101-00801999999ADDMA1100901999999REMMET046METAR ENDR 062320Z AUTO 08021KT M01/M08 Q1009=
0073010231999992016010623504+64350+007800FM-15+000099999V0200701N010319999999N999999999-00101-01001999999ADDMA1100901999999REMMET046METAR ENDR 062350Z AUTO 07020KT M01/M10 Q1009=
0073010231999992016010700204+64350+007800FM-15+000099999V0200701N010319999999N999999999-00101-01001999999ADDMA1100901999999REMMET046METAR ENDR 070020Z AUTO 07020KT M01/M10 Q1009=
0073010231999992016010700504+64350+007800FM-15+000099999V0200801N009819999999N999999999-00101-01101999999ADDMA1100901999999REMMET046METAR ENDR 070050Z AUTO 08019KT M01/M11 Q1009=
0073010231999992016010701204+64350+007800FM-15+000099999V0200701N009819999999N999999999-00101-00901999999ADDMA1100901999999REMMET046METAR ENDR 070120Z AUTO 07019KT M01/M09 Q1009=
0073010231999992016010701504+64350+007800FM-15+000099999V0200701N010319999999N999999999-00101-01001999999ADDMA1100901999999REMMET046METAR ENDR 070150Z AUTO 07020KT M01/M10 Q1009=
0073010231999992016010702204+64350+007800FM-15+000099999V0200701N009819999999N999999999-00101-00901999999ADDMA1100901999999REMMET046METAR ENDR 070220Z AUTO 07019KT M01/M09 Q1009=
0073010231999992016010702504+64350+007800FM-15+000099999V0200701N010319999999N999999999-00101-01101999999ADDMA1100901999999REMMET046METAR ENDR 070250Z AUTO 07020KT M01/M11 Q1009=
0073010231999992016010703204+64350+007800FM-15+000099999V0200701N010819999999N999999999-00101-01001999999ADDMA1100801999999REMMET046METAR ENDR 070320Z AUTO 07021KT M01/M10 Q1008=
0073010231999992016010703504+64350+007800FM-15+000099999V0200801N010319999999N999999999-00101-01001999999ADDMA1100801999999REMMET046METAR ENDR 070350Z AUTO 08020KT M01/M10 Q1008=
0073010231999992016010704204+64350+007800FM-15+000099999V0200801N010319999999N999999999+00001-00801999999ADDMA1100801999999REMMET046METAR ENDR 070420Z AUTO 08020KT M00/M08 Q1008=
0073010231999992016010704504+64350+007800FM-15+000099999V0200901N009319999999N999999999+00001-00901999999ADDMA1100801999999REMMET046METAR ENDR 070450Z AUTO 09018KT M00/M09 Q1008=
0073010231999992016010705204+64350+007800FM-15+000099999V0201001N008819999999N999999999-00101-00801999999ADDMA1100801999999REMMET046METAR ENDR 070520Z AUTO 10017KT M01/M08 Q1008=
0073010231999992016010705504+64350+007800FM-15+000099999V0201001N008219999999N999999999+00001-00901999999ADDMA1100801999999REMMET046METAR ENDR 070550Z AUTO 10016KT M00/M09 Q1008=
0073010231999992016010706104+64350+007800FM-15+000099999V0200901N008219999999N009999199+00001-00901999999ADDMA1100801999999REMMET046METAR ENDR 070610Z 09016KT 9999 M00/M09 Q1008=
0073010231999992016010706504+64350+007800FM-15+000099999V0201001N007219999999N999999999+00001-00801999999ADDMA1100801999999REMMET046METAR ENDR 070650Z AUTO 10014KT M00/M08 Q1008=
0072010231999992016010707204+64350+007800FM-15+000099999V0200901N006719999999N999999999+00001-00801999999ADDMA1100801999999REMMET045METAR ENDR 070720Z AUTO 09013KT 00/M08 Q1008=
0072010231999992016010707504+64350+007800FM-15+000099999V0200901N006719999999N999999999+00001-00901999999ADDMA1100801999999REMMET045METAR ENDR 070750Z AUTO 09013KT 00/M09 Q1008=
0072010231999992016010708204+64350+007800FM-15+000099999V0200801N007219999999N999999999+00101-00801999999ADDMA1100701999999REMMET045METAR ENDR 070820Z AUTO 08014KT 01/M08 Q1007=
0072010231999992016010708504+64350+007800FM-15+000099999V0200801N007219999999N999999999+00101-00801999999ADDMA1100701999999REMMET045METAR ENDR 070850Z AUTO 08014KT 01/M08 Q1007=
0143010231999992016010709104+64350+007800FM-15+000099999V0200901N006719999999N009999199+00001-00801999999ADDGA1021+006101999GE19MSL   +99999+99999GF199999021999006101999999MA1100701999999REMMET052METAR ENDR 070910Z 09013KT 9999 FEW020 00/M08 Q1007=
0073010231999992016010709504+64350+007800FM-15+000099999V0201001N006719999999N999999999+00001-00601999999ADDMA1100701999999REMMET046METAR ENDR 070950Z AUTO 10013KT M00/M06 Q1007=
0073010231999992016010710204+64350+007800FM-15+000099999V0200801N006719999999N999999999+00001-00601999999ADDMA1100701999999REMMET046METAR ENDR 071020Z AUTO 08013KT M00/M06 Q1007=
0073010231999992016010710504+64350+007800FM-15+000099999V0200901N006719999999N999999999+00001-00601999999ADDMA1100701999999REMMET046METAR ENDR 071050Z AUTO 09013KT M00/M06 Q1007=
0073010231999992016010711204+64350+007800FM-15+000099999V0200901N006719999999N999999999+00001-00601999999ADDMA1100701999999REMMET046METAR ENDR 071120Z AUTO 09013KT M00/M06 Q1007=
0073010231999992016010711504+64350+007800FM-15+000099999V0200901N006219999999N999999999+00001-00601999999ADDMA1100701999999REMMET046METAR ENDR 071150Z AUTO 09012KT M00/M06 Q1007=
0144010231999992016010712104+64350+007800FM-15+000099999V0200801N006210061019N009999199+00001-00601999999ADDGA1071+006101999GE19MSL   +99999+99999GF199999071999006101999999MA1100701999999REMMET053METAR ENDR 071210Z 08012KT 9999 BKN020 M00/M06 Q1007=
0073010231999992016010712504+64350+007800FM-15+000099999V0200801N006719999999N999999999+00001-00601999999ADDMA1100701999999REMMET046METAR ENDR 071250Z AUTO 08013KT M00/M06 Q1007=
0073010231999992016010713204+64350+007800FM-15+000099999V0200801N006719999999N999999999+00001-00701999999ADDMA1100701999999REMMET046METAR ENDR 071320Z AUTO 08013KT M00/M07 Q1007=
0073010231999992016010713504+64350+007800FM-15+000099999V0200901N006219999999N999999999-00101-00701999999ADDMA1100601999999REMMET046METAR ENDR 071350Z AUTO 09012KT M01/M07 Q1006=
0073010231999992016010714204+64350+007800FM-15+000099999V0200901N005719999999N999999999-00101-00801999999ADDMA1100601999999REMMET046METAR ENDR 071420Z AUTO 09011KT M01/M08 Q1006=
0144010231999992016010715204+64350+007800FM-15+000099999V0200701N009810061019N009999199-00101-00901999999ADDGA1071+006101999GE19MSL   +99999+99999GF199999071999006101999999MA1100601999999REMMET053METAR ENDR 071520Z 07019KT 9999 BKN020 M01/M09 Q1006=
0073010231999992016010715504+64350+007800FM-15+000099999V0200701N009319999999N999999999-00101-01001999999ADDMA1100601999999REMMET046METAR ENDR 071550Z AUTO 07018KT M01/M10 Q1006=
0073010231999992016010716204+64350+007800FM-15+000099999V0200601N008219999999N999999999-00101-00901999999ADDMA1100601999999REMMET046METAR ENDR 071620Z AUTO 06016KT M01/M09 Q1006=
0073010231999992016010716504+64350+007800FM-15+000099999V0200601N009819999999N999999999-00101-01001999999ADDMA1100601999999REMMET046METAR ENDR 071650Z AUTO 06019KT M01/M10 Q1006=
0073010231999992016010717204+64350+007800FM-15+000099999V0200701N011319999999N999999999-00101-01001999999ADDMA1100601999999REMMET046METAR ENDR 071720Z AUTO 07022KT M01/M10 Q1006=
0073010231999992016010717504+64350+007800FM-15+000099999V0200701N011819999999N999999999-00201-01001999999ADDMA1100601999999REMMET046METAR ENDR 071750Z AUTO 07023KT M02/M10 Q1006=
0073010231999992016010718204+64350+007800FM-15+000099999V0200701N012419999999N999999999-00201-00901999999ADDMA1100601999999REMMET046METAR ENDR 071820Z AUTO 07024KT M02/M09 Q1006=
0073010231999992016010718504+64350+007800FM-15+000099999V0200601N012419999999N999999999-00201-01001999999ADDMA1100501999999REMMET046METAR ENDR 071850Z AUTO 06024KT M02/M10 Q1005=
0073010231999992016010719204+64350+007800FM-15+000099999V0200601N011819999999N999999999-00201-00901999999ADDMA1100501999999REMMET046METAR ENDR 071920Z AUTO 06023KT M02/M09 Q1005=
0073010231999992016010719504+64350+007800FM-15+000099999V0200601N011319999999N999999999-00201-01101999999ADDMA1100501999999REMMET046METAR ENDR 071950Z AUTO 06022KT M02/M11 Q1005=
0073010231999992016010720204+64350+007800FM-15+000099999V0200701N011819999999N999999999-00201-01001999999ADDMA1100501999999REMMET046METAR ENDR 072020Z AUTO 07023KT M02/M10 Q1005=
0073010231999992016010721204+64350+007800FM-15+000099999V0200601N012419999999N999999999-00201-00801999999ADDMA1100501999999REMMET046METAR ENDR 072120Z AUTO 06024KT M02/M08 Q1005=
0073010231999992016010721504+64350+007800FM-15+000099999V0200601N012419999999N999999999-00201-00901999999ADDMA1100501999999REMMET046METAR ENDR 072150Z AUTO 06024KT M02/M09 Q1005=
0073010231999992016010722204+64350+007800FM-15+000099999V0200701N012919999999N999999999-00201-00901999999ADDMA1100401999999REMMET046METAR ENDR 072220Z AUTO 07025KT M02/M09 Q1004=
0073010231999992016010722504+64350+007800FM-15+000099999V0200801N012419999999N999999999-00201-00901999999ADDMA1100401999999REMMET046METAR ENDR 072250Z AUTO 08024KT M02/M09 Q1004=
0073010231999992016010723204+64350+007800FM-15+000099999V0200901N011319999999N999999999-00201-00801999999ADDMA1100401999999REMMET046METAR ENDR 072320Z AUTO 09022KT M02/M08 Q1004=
0073010231999992016010723504+64350+007800FM-15+000099999V0200801N011319999999N999999999-00201-00901999999ADDMA1100401999999REMMET046METAR ENDR 072350Z AUTO 08022KT M02/M09 Q1004=
0073010231999992016010800204+64350+007800FM-15+000099999V0200701N009819999999N999999999-00201-00901999999ADDMA1100501999999REMMET046METAR ENDR 080020Z AUTO 07019KT M02/M09 Q1005=
0073010231999992016010800504+64350+007800FM-15+000099999V0200701N009319999999N999999999-00201-00801999999ADDMA1100501999999REMMET046METAR ENDR 080050Z AUTO 07018KT M02/M08 Q1005=
0073010231999992016010801204+64350+007800FM-15+000099999V0200801N009319999999N999999999-00201-00901999999ADDMA1100501999999REMMET046METAR ENDR 080120Z AUTO 08018KT M02/M09 Q1005=
0073010231999992016010801504+64350+007800FM-15+000099999V0200901N008219999999N999999999-00301-00901999999ADDMA1100401999999REMMET046METAR ENDR 080150Z AUTO 09016KT M03/M09 Q1004=
0073010231999992016010802204+64350+007800FM-15+000099999V0200901N009819999999N999999999-00301-00901999999ADDMA1100401999999REMMET046METAR ENDR 080220Z AUTO 09019KT M03/M09 Q1004=
0073010231999992016010802504+64350+007800FM-15+000099999V0200901N011319999999N999999999-00301-00901999999ADDMA1100401999999REMMET046METAR ENDR 080250Z AUTO 09022KT M03/M09 Q1004=
0073010231999992016010803204+64350+007800FM-15+000099999V0200801N011319999999N999999999-00301-00901999999ADDMA1100401999999REMMET046METAR ENDR 080320Z AUTO 08022KT M03/M09 Q1004=
0073010231999992016010803504+64350+007800FM-15+000099999V0200801N011319999999N999999999-00301-00901999999ADDMA1100401999999REMMET046METAR ENDR 080350Z AUTO 08022KT M03/M09 Q1004=
0073010231999992016010804204+64350+007800FM-15+000099999V0200701N011819999999N999999999-00301-00901999999ADDMA1100401999999REMMET046METAR ENDR 080420Z AUTO 07023KT M03/M09 Q1004=
0073010231999992016010804504+64350+007800FM-15+000099999V0200701N011319999999N999999999-00301-01001999999ADDMA1100401999999REMMET046METAR ENDR 080450Z AUTO 07022KT M03/M10 Q1004=
0073010231999992016010805204+64350+007800FM-15+000099999V0200601N010819999999N999999999-00401-01001999999ADDMA1100401999999REMMET046METAR ENDR 080520Z AUTO 06021KT M04/M10 Q1004=
0073010231999992016010805504+64350+007800FM-15+000099999V0200601N009819999999N999999999-00401-01001999999ADDMA1100401999999REMMET046METAR ENDR 080550Z AUTO 06019KT M04/M10 Q1004=
0144010231999992016010806104+64350+007800FM-15+000099999V0200601N010310048819N009999199-00401-01001999999ADDGA1071+004881999GE19MSL   +99999+99999GF199999071999004881999999MA1100501999999REMMET053METAR ENDR 080610Z 06020KT 9999 BKN016 M04/M10 Q1005=
0073010231999992016010806504+64350+007800FM-15+000099999V0200601N010819999999N999999999-00401-01001999999ADDMA1100501999999REMMET046METAR ENDR 080650Z AUTO 06021KT M04/M10 Q1005=
0073010231999992016010807204+64350+007800FM-15+000099999V0200701N010819999999N999999999-00501-01001999999ADDMA1100501999999REMMET046METAR ENDR 080720Z AUTO 07021KT M05/M10 Q1005=
0073010231999992016010807504+64350+007800FM-15+000099999V0200601N011319999999N999999999-00501-01001999999ADDMA1100501999999REMMET046METAR ENDR 080750Z AUTO 06022KT M05/M10 Q1005=
0073010231999992016010808204+64350+007800FM-15+000099999V0200601N010819999999N999999999-00501-01101999999ADDMA1100501999999REMMET046METAR ENDR 080820Z AUTO 06021KT M05/M11 Q1005=
0073010231999992016010808504+64350+007800FM-15+000099999V0200601N012419999999N999999999-00501-01101999999ADDMA1100601999999REMMET046METAR ENDR 080850Z AUTO 06024KT M05/M11 Q1006=
0165010231999992016010809204+64350+007800FM-15+000099999V0200601N011810051819N006000199-00601-01101999999ADDGA1081+005181999GE19MSL   +99999+99999GF199999081999005181999999MA1100601999999MW1161MW2711REMMET062METAR ENDR 080920Z 06023KT 6000 -SN VCSH OVC017 M06/M11 Q1006=
0073010231999992016010809504+64350+007800FM-15+000099999V0200601N011819999999N999999999-00601-01201999999ADDMA1100601999999REMMET046METAR ENDR 080950Z AUTO 06023KT M06/M12 Q1006=
0073010231999992016010810204+64350+007800FM-15+000099999V0200601N012419999999N999999999-00701-01301999999ADDMA1100601999999REMMET046METAR ENDR 081020Z AUTO 06024KT M07/M13 Q1006=
0073010231999992016010810504+64350+007800FM-15+000099999V0200601N012419999999N999999999-00701-01301999999ADDMA1100601999999REMMET046METAR ENDR 081050Z AUTO 06024KT M07/M13 Q1006=
0065010231999992016010811204+64350+007800FM-15+000099999V0209999N999999999999N999999999-00701-01301999999ADDMA1100601999999REMMET038METAR ENDR 081120Z AUTO M07/M13 Q1006=
0065010231999992016010811504+64350+007800FM-15+000099999V0209999N999999999999N999999999-00701-01301999999ADDMA1100601999999REMMET038METAR ENDR 081150Z AUTO M07/M13 Q1006=
0147010231999992016010812104+64350+007800FM-15+000099999V0209999N999990051819N009999199-00701-01401999999ADDGA1071+005181999GE19MSL   +99999+99999GF199999071999005181999999MA1100601999999MW1161REMMET050METAR ENDR 081210Z 9999 VCSH BKN017 M07/M14 Q1006=
0065010231999992016010812504+64350+007800FM-15+000099999V0209999N999999999999N999999999-00701-01301999999ADDMA1100601999999REMMET038METAR ENDR 081250Z AUTO M07/M13 Q1006=
0065010231999992016010813204+64350+007800FM-15+000099999V0209999N999999999999N999999999-00701-01401999999ADDMA1100601999999REMMET038METAR ENDR 081320Z AUTO M07/M14 Q1006=
0065010231999992016010813504+64350+007800FM-15+000099999V0209999N999999999999N999999999-00701-01401999999ADDMA1100601999999REMMET038METAR ENDR 081350Z AUTO M07/M14 Q1006=
0065010231999992016010814204+64350+007800FM-15+000099999V0209999N999999999999N999999999-00701-01401999999ADDMA1100601999999REMMET038METAR ENDR 081420Z AUTO M07/M14 Q1006=
0065010231999992016010814504+64350+007800FM-15+000099999V0209999N999999999999N999999999-00701-01401999999ADDMA1100601999999REMMET038METAR ENDR 081450Z AUTO M07/M14 Q1006=
0147010231999992016010815104+64350+007800FM-15+000099999V0209999N999990051819N009999199-00701-01301999999ADDGA1071+005181999GE19MSL   +99999+99999GF199999071999005181999999MA1100601999999MW1161REMMET050METAR ENDR 081510Z 9999 VCSH BKN017 M07/M13 Q1006=
0073010231999992016010815504+64350+007800FM-15+000099999V0200601N012419999999N999999999-00701-01301999999ADDMA1100601999999REMMET046METAR ENDR 081550Z AUTO 06024KT M07/M13 Q1006=
0084010231999992016010816204+64350+007800FM-15+000099999V0200601N012919999999N999999999-00701-01301999999ADDMA1100701999999OC101851REMMET049METAR ENDR 081620Z AUTO 06025G36KT M07/M13 Q1007=
0073010231999992016010816504+64350+007800FM-15+000099999V0200501N013919999999N999999999-00601-01201999999ADDMA1100701999999REMMET046METAR ENDR 081650Z AUTO 05027KT M06/M12 Q1007=
0073010231999992016010817204+64350+007800FM-15+000099999V0200601N012919999999N999999999-00701-01201999999ADDMA1100701999999REMMET046METAR ENDR 081720Z AUTO 06025KT M07/M12 Q1007=
0073010231999992016010817504+64350+007800FM-15+000099999V0200701N012919999999N999999999-00701-01301999999ADDMA1100701999999REMMET046METAR ENDR 081750Z AUTO 07025KT M07/M13 Q1007=
0073010231999992016010818204+64350+007800FM-15+000099999V0200701N012919999999N999999999-00701-01301999999ADDMA1100701999999REMMET046METAR ENDR 081820Z AUTO 07025KT M07/M13 Q1007=
0073010231999992016010818504+64350+007800FM-15+000099999V0200701N013419999999N999999999-00601-01301999999ADDMA1100701999999REMMET046METAR ENDR 081850Z AUTO 07026KT M06/M13 Q1007=
0073010231999992016010819204+64350+007800FM-15+000099999V0200701N013419999999N999999999-00601-01201999999ADDMA1100701999999REMMET046METAR ENDR 081920Z AUTO 07026KT M06/M12 Q1007=
0073010231999992016010819504+64350+007800FM-15+000099999V0200701N014419999999N999999999-00601-01401999999ADDMA1100801999999REMMET046METAR ENDR 081950Z AUTO 07028KT M06/M14 Q1008=
0073010231999992016010820204+64350+007800FM-15+000099999V0200801N014419999999N999999999-00601-01301999999ADDMA1100801999999REMMET046METAR ENDR 082020Z AUTO 08028KT M06/M13 Q1008=
0073010231999992016010820504+64350+007800FM-15+000099999V0200801N013919999999N999999999-00601-01301999999ADDMA1100801999999REMMET046METAR ENDR 082050Z AUTO 08027KT M06/M13 Q1008=
0073010231999992016010821204+64350+007800FM-15+000099999V0200801N014419999999N999999999-00601-01301999999ADDMA1100801999999REMMET046METAR ENDR 082120Z AUTO 08028KT M06/M13 Q1008=
0073010231999992016010821504+64350+007800FM-15+000099999V0200801N014419999999N999999999-00601-01201999999ADDMA1100801999999REMMET046METAR ENDR 082150Z AUTO 08028KT M06/M12 Q1008=
0073010231999992016010822204+64350+007800FM-15+000099999V0200801N014419999999N999999999-00501-01201999999ADDMA1100801999999REMMET046METAR ENDR 082220Z AUTO 08028KT M05/M12 Q1008=
0073010231999992016010822504+64350+007800FM-15+000099999V0200801N013919999999N999999999-00501-01201999999ADDMA1100801999999REMMET046METAR ENDR 082250Z AUTO 08027KT M05/M12 Q1008=
0065010231999992016010823204+64350+007800FM-15+000099999V0209999N999999999999N999999999-00501-01301999999ADDMA1100801999999REMMET038METAR ENDR 082320Z AUTO M05/M13 Q1008=
0065010231999992016010823504+64350+007800FM-15+000099999V0209999N999999999999N999999999-00501-01301999999ADDMA1100801999999REMMET038METAR ENDR 082350Z AUTO M05/M13 Q1008=
0065010231999992016010900204+64350+007800FM-15+000099999V0209999N999999999999N999999999-00501-01401999999ADDMA1100801999999REMMET038METAR ENDR 090020Z AUTO M05/M14 Q1008=
0065010231999992016010900504+64350+007800FM-15+000099999V0209999N999999999999N999999999-00401-01301999999ADDMA1100801999999REMMET038METAR ENDR 090050Z AUTO M04/M13 Q1008=
0065010231999992016010901204+64350+007800FM-15+000099999V0209999N999999999999N999999999-00401-01401999999ADDMA1100901999999REMMET038METAR ENDR 090120Z AUTO M04/M14 Q1009=
0065010231999992016010901504+64350+007800FM-15+000099999V0209999N999999999999N999999999-00401-01301999999ADDMA1100901999999REMMET038METAR ENDR 090150Z AUTO M04/M13 Q1009=
0065010231999992016010902204+64350+007800FM-15+000099999V0209999N999999999999N999999999-00401-01301999999ADDMA1100901999999REMMET038METAR ENDR 090220Z AUTO M04/M13 Q1009=
0065010231999992016010902504+64350+007800FM-15+000099999V0209999N999999999999N999999999-00401-01301999999ADDMA1100901999999REMMET038METAR ENDR 090250Z AUTO M04/M13 Q1009=
0065010231999992016010903204+64350+007800FM-15+000099999V0209999N999999999999N999999999-00401-01201999999ADDMA1100901999999REMMET038METAR ENDR 090320Z AUTO M04/M12 Q1009=
0065010231999992016010903504+64350+007800FM-15+000099999V0209999N999999999999N999999999-00401-01201999999ADDMA1100901999999REMMET038METAR ENDR 090350Z AUTO M04/M12 Q1009=
0065010231999992016010904204+64350+007800FM-15+000099999V0209999N999999999999N999999999-00401-01201999999ADDMA1100801999999REMMET038METAR ENDR 090420Z AUTO M04/M12 Q1008=
0065010231999992016010904504+64350+007800FM-15+000099999V0209999N999999999999N999999999-00401-01101999999ADDMA1100801999999REMMET038METAR ENDR 090450Z AUTO M04/M11 Q1008=
0065010231999992016010905204+64350+007800FM-15+000099999V0209999N999999999999N999999999-00301-01101999999ADDMA1100801999999REMMET038METAR ENDR 090520Z AUTO M03/M11 Q1008=
0065010231999992016010905504+64350+007800FM-15+000099999V0209999N999999999999N999999999-00301-01101999999ADDMA1100801999999REMMET038METAR ENDR 090550Z AUTO M03/M11 Q1008=
0136010231999992016010906104+64350+007800FM-15+000099999V0209999N999990051819N009999199-00301-01201999999ADDGA1071+005181999GE19MSL   +99999+99999GF199999071999005181999999MA1100801999999REMMET045METAR ENDR 090610Z 9999 BKN017 M03/M12 Q1008=
0065010231999992016010906504+64350+007800FM-15+000099999V0209999N999999999999N999999999-00301-01101999999ADDMA1100901999999REMMET038METAR ENDR 090650Z AUTO M03/M11 Q1009=
0065010231999992016010907204+64350+007800FM-15+000099999V0209999N999999999999N999999999-00301-01101999999ADDMA1100801999999REMMET038METAR ENDR 090720Z AUTO M03/M11 Q1008=
0065010231999992016010907504+64350+007800FM-15+000099999V0209999N999999999999N999999999-00201-01101999999ADDMA1100901999999REMMET038METAR ENDR 090750Z AUTO M02/M11 Q1009=
0065010231999992016010908204+64350+007800FM-15+000099999V0209999N999999999999N999999999-00201-01201999999ADDMA1100901999999REMMET038METAR ENDR 090820Z AUTO M02/M12 Q1009=
0065010231999992016010908504+64350+007800FM-15+000099999V0209999N999999999999N999999999-00201-01101999999ADDMA1100901999999REMMET038METAR ENDR 090850Z AUTO M02/M11 Q1009=
0144010231999992016010909104+64350+007800FM-15+000099999V0200901N011319999999N009999199-00201-01101999999ADDGA1041+005791999GE19MSL   +99999+99999GF199999041999005791999999MA1100901999999REMMET053METAR ENDR 090910Z 09022KT 9999 SCT019 M02/M11 Q1009=
0073010231999992016010909504+64350+007800FM-15+000099999V0200901N011819999999N999999999-00201-01101999999ADDMA1100901999999REMMET046METAR ENDR 090950Z AUTO 09023KT M02/M11 Q1009=
0073010231999992016010910204+64350+007800FM-15+000099999V0200901N013419999999N999999999-00201-01201999999ADDMA1100901999999REMMET046METAR ENDR 091020Z AUTO 09026KT M02/M12 Q1009=
0073010231999992016010910504+64350+007800FM-15+000099999V0200901N012919999999N999999999-00201-01201999999ADDMA1100901999999REMMET046METAR ENDR 091050Z AUTO 09025KT M02/M12 Q1009=
0073010231999992016010911204+64350+007800FM-15+000099999V0200901N012419999999N999999999-00201-01101999999ADDMA1100901999999REMMET046METAR ENDR 091120Z AUTO 09024KT M02/M11 Q1009=
0073010231999992016010911504+64350+007800FM-15+000099999V0200801N012419999999N999999999-00201-01101999999ADDMA1100901999999REMMET046METAR ENDR 091150Z AUTO 08024KT M02/M11 Q1009=
0144010231999992016010912204+64350+007800FM-15+000099999V0200901N012419999999N009999199-00201-01201999999ADDGA1041+009141999GE19MSL   +99999+99999GF199999041999009141999999MA1100901999999REMMET053METAR ENDR 091220Z 09024KT 9999 SCT030 M02/M12 Q1009=
0073010231999992016010912504+64350+007800FM-15+000099999V0200801N011319999999N999999999-00201-01201999999ADDMA1100901999999REMMET046METAR ENDR 091250Z AUTO 08022KT M02/M12 Q1009=
0073010231999992016010913204+64350+007800FM-15+000099999V0200801N010319999999N999999999-00201-01101999999ADDMA1100901999999REMMET046METAR ENDR 091320Z AUTO 08020KT M02/M11 Q1009=
0073010231999992016010913504+64350+007800FM-15+000099999V0200801N011319999999N999999999-00201-01201999999ADDMA1100901999999REMMET046METAR ENDR 091350Z AUTO 08022KT M02/M12 Q1009=
0073010231999992016010914204+64350+007800FM-15+000099999V0200901N011319999999N999999999-00201-01201999999ADDMA1100901999999REMMET046METAR ENDR 091420Z AUTO 09022KT M02/M12 Q1009=
0073010231999992016010914504+64350+007800FM-15+000099999V0200801N010819999999N999999999-00301-01201999999ADDMA1100801999999REMMET046METAR ENDR 091450Z AUTO 08021KT M03/M12 Q1008=
0144010231999992016010915104+64350+007800FM-15+000099999V0200901N010819999999N009999199-00301-01201999999ADDGA1041+008531999GE19MSL   +99999+99999GF199999041999008531999999MA1100801999999REMMET053METAR ENDR 091510Z 09021KT 9999 SCT028 M03/M12 Q1008=
0073010231999992016010915504+64350+007800FM-15+000099999V0200901N010319999999N999999999-00301-01201999999ADDMA1100801999999REMMET046METAR ENDR 091550Z AUTO 09020KT M03/M12 Q1008=
0073010231999992016010916204+64350+007800FM-15+000099999V0200901N010819999999N999999999-00301-01301999999ADDMA1100801999999REMMET046METAR ENDR 091620Z AUTO 09021KT M03/M13 Q1008=
0073010231999992016010916504+64350+007800FM-15+000099999V0201001N011319999999N999999999-00301-01401999999ADDMA1100801999999REMMET046METAR ENDR 091650Z AUTO 10022KT M03/M14 Q1008=
0073010231999992016010917204+64350+007800FM-15+000099999V0200901N011819999999N999999999-00301-01301999999ADDMA1100801999999REMMET046METAR ENDR 091720Z AUTO 09023KT M03/M13 Q1008=
0073010231999992016010917504+64350+007800FM-15+000099999V0200901N012419999999N999999999-00301-01301999999ADDMA1100801999999REMMET046METAR ENDR 091750Z AUTO 09024KT M03/M13 Q1008=
0073010231999992016010918204+64350+007800FM-15+000099999V0200901N012419999999N999999999-00301-01401999999ADDMA1100801999999REMMET046METAR ENDR 091820Z AUTO 09024KT M03/M14 Q1008=
0073010231999992016010918504+64350+007800FM-15+000099999V0200901N011819999999N999999999-00301-01201999999ADDMA1100801999999REMMET046METAR ENDR 091850Z AUTO 09023KT M03/M12 Q1008=
0073010231999992016010919204+64350+007800FM-15+000099999V0200901N012419999999N999999999-00301-01301999999ADDMA1100801999999REMMET046METAR ENDR 091920Z AUTO 09024KT M03/M13 Q1008=
0073010231999992016010919504+64350+007800FM-15+000099999V0200901N012919999999N999999999-00301-01301999999ADDMA1100801999999REMMET046METAR ENDR 091950Z AUTO 09025KT M03/M13 Q1008=
0073010231999992016010920204+64350+007800FM-15+000099999V0200901N012919999999N999999999-00301-01501999999ADDMA1100701999999REMMET046METAR ENDR 092020Z AUTO 09025KT M03/M15 Q1007=
0073010231999992016010920504+64350+007800FM-15+000099999V0200801N013419999999N999999999-00301-01401999999ADDMA1100701999999REMMET046METAR ENDR 092050Z AUTO 08026KT M03/M14 Q1007=
0073010231999992016010921204+64350+007800FM-15+000099999V0200801N013919999999N999999999-00301-01601999999ADDMA1100701999999REMMET046METAR ENDR 092120Z AUTO 08027KT M03/M16 Q1007=
0073010231999992016010921504+64350+007800FM-15+000099999V0200801N013919999999N999999999-00301-01701999999ADDMA1100701999999REMMET046METAR ENDR 092150Z AUTO 08027KT M03/M17 Q1007=
0073010231999992016010922204+64350+007800FM-15+000099999V0200801N014919999999N999999999-00301-01401999999ADDMA1100701999999REMMET046METAR ENDR 092220Z AUTO 08029KT M03/M14 Q1007=
0073010231999992016010922504+64350+007800FM-15+000099999V0200901N014919999999N999999999-00301-01301999999ADDMA1100601999999REMMET046METAR ENDR 092250Z AUTO 09029KT M03/M13 Q1006=
0073010231999992016010923204+64350+007800FM-15+000099999V0200901N015419999999N999999999-00301-01401999999ADDMA1100601999999REMMET046METAR ENDR 092320Z AUTO 09030KT M03/M14 Q1006=
0073010231999992016010923504+64350+007800FM-15+000099999V0200801N016019999999N999999999-00301-01101999999ADDMA1100601999999REMMET046METAR ENDR 092350Z AUTO 08031KT M03/M11 Q1006=
0073010231999992016011000204+64350+007800FM-15+000099999V0200801N016019999999N999999999-00301-01301999999ADDMA1100601999999REMMET046METAR ENDR 100020Z AUTO 08031KT M03/M13 Q1006=
0073010231999992016011000504+64350+007800FM-15+000099999V0200801N016019999999N999999999-00301-01101999999ADDMA1100601999999REMMET046METAR ENDR 100050Z AUTO 08031KT M03/M11 Q1006=
0073010231999992016011001204+64350+007800FM-15+000099999V0200901N016519999999N999999999-00401-01201999999ADDMA1100501999999REMMET046METAR ENDR 100120Z AUTO 09032KT M04/M12 Q1005=
0073010231999992016011001504+64350+007800FM-15+000099999V0200901N016519999999N999999999-00401-01201999999ADDMA1100501999999REMMET046METAR ENDR 100150Z AUTO 09032KT M04/M12 Q1005=
0065010231999992016011002204+64350+007800FM-15+000099999V0209999N999999999999N999999999-00401-01101999999ADDMA1100501999999REMMET038METAR ENDR 100220Z AUTO M04/M11 Q1005=
0073010231999992016011002504+64350+007800FM-15+000099999V0200901N016519999999N999999999-00401-01201999999ADDMA1100501999999REMMET046METAR ENDR 100250Z AUTO 09032KT M04/M12 Q1005=
0073010231999992016011003204+64350+007800FM-15+000099999V0200801N016019999999N999999999-00401-01201999999ADDMA1100401999999REMMET046METAR ENDR 100320Z AUTO 08031KT M04/M12 Q1004=
0073010231999992016011003504+64350+007800FM-15+000099999V0200801N016519999999N999999999-00401-01101999999ADDMA1100401999999REMMET046METAR ENDR 100350Z AUTO 08032KT M04/M11 Q1004=
0073010231999992016011004204+64350+007800FM-15+000099999V0200801N016519999999N999999999-00401-01101999999ADDMA1100301999999REMMET046METAR ENDR 100420Z AUTO 08032KT M04/M11 Q1003=
0073010231999992016011004504+64350+007800FM-15+000099999V0200701N016519999999N999999999-00401-01101999999ADDMA1100301999999REMMET046METAR ENDR 100450Z AUTO 07032KT M04/M11 Q1003=
0073010231999992016011005204+64350+007800FM-15+000099999V0200801N017019999999N999999999-00401-01001999999ADDMA1100301999999REMMET046METAR ENDR 100520Z AUTO 08033KT M04/M10 Q1003=
0073010231999992016011005504+64350+007800FM-15+000099999V0200801N017019999999N999999999-00401-01201999999ADDMA1100201999999REMMET046METAR ENDR 100550Z AUTO 08033KT M04/M12 Q1002=
0144010231999992016011006104+64350+007800FM-15+000099999V0200801N018010085319N009999199-00401-01101999999ADDGA1071+008531999GE19MSL   +99999+99999GF199999071999008531999999MA1100201999999REMMET053METAR ENDR 100610Z 08035KT 9999 BKN028 M04/M11 Q1002=
0073010231999992016011006504+64350+007800FM-15+000099999V0200801N018519999999N999999999-00401-01201999999ADDMA1100201999999REMMET046METAR ENDR 100650Z AUTO 08036KT M04/M12 Q1002=
0073010231999992016011007204+64350+007800FM-15+000099999V0200901N018519999999N999999999-00401-01201999999ADDMA1100101999999REMMET046METAR ENDR 100720Z AUTO 09036KT M04/M12 Q1001=
0073010231999992016011007504+64350+007800FM-15+000099999V0200801N019619999999N999999999-00401-01301999999ADDMA1100101999999REMMET046METAR ENDR 100750Z AUTO 08038KT M04/M13 Q1001=
0073010231999992016011008204+64350+007800FM-15+000099999V0200801N019019999999N999999999-00401-01301999999ADDMA1100101999999REMMET046METAR ENDR 100820Z AUTO 08037KT M04/M13 Q1001=
0073010231999992016011008504+64350+007800FM-15+000099999V0200901N019019999999N999999999-00301-01301999999ADDMA1100101999999REMMET046METAR ENDR 100850Z AUTO 09037KT M03/M13 Q1001=
0073010231999992016011009204+64350+007800FM-15+000099999V0200901N018519999999N999999999-00301-01201999999ADDMA1100001999999REMMET046METAR ENDR 100920Z AUTO 09036KT M03/M12 Q1000=
0073010231999992016011009504+64350+007800FM-15+000099999V0200901N019619999999N999999999-00301-01201999999ADDMA1100001999999REMMET046METAR ENDR 100950Z AUTO 09038KT M03/M12 Q1000=
0073010231999992016011010204+64350+007800FM-15+000099999V0200901N019019999999N999999999-00401-01301999999ADDMA1099901999999REMMET046METAR ENDR 101020Z AUTO 09037KT M04/M13 Q0999=
0073010231999992016011010504+64350+007800FM-15+000099999V0200901N020119999999N999999999-00301-01301999999ADDMA1099901999999REMMET046METAR ENDR 101050Z AUTO 09039KT M03/M13 Q0999=
0073010231999992016011011204+64350+007800FM-15+000099999V0200901N019619999999N999999999-00301-01301999999ADDMA1099901999999REMMET046METAR ENDR 101120Z AUTO 09038KT M03/M13 Q0999=
0065010231999992016011011504+64350+007800FM-15+000099999V0209999N999999999999N999999999-00301-01301999999ADDMA1099801999999REMMET038METAR ENDR 101150Z AUTO M03/M13 Q0998=
0147010231999992016011012104+64350+007800FM-15+000099999V0209999N999990085319N009999199-00301-01201999999ADDGA1071+008531999GE19MSL   +99999+99999GF199999071999008531999999MA1099801999999MW1161REMMET050METAR ENDR 101210Z 9999 VCSH BKN028 M03/M12 Q0998=
0065010231999992016011012504+64350+007800FM-15+000099999V0209999N999999999999N999999999-00301-01201999999ADDMA1099701999999REMMET038METAR ENDR 101250Z AUTO M03/M12 Q0997=
0065010231999992016011013204+64350+007800FM-15+000099999V0209999N999999999999N999999999-00301-01201999999ADDMA1099701999999REMMET038METAR ENDR 101320Z AUTO M03/M12 Q0997=
0065010231999992016011013504+64350+007800FM-15+000099999V0209999N999999999999N999999999-00301-01101999999ADDMA1099601999999REMMET038METAR ENDR 101350Z AUTO M03/M11 Q0996=
0065010231999992016011014204+64350+007800FM-15+000099999V0209999N999999999999N999999999-00301-01201999999ADDMA1099601999999REMMET038METAR ENDR 101420Z AUTO M03/M12 Q0996=
0073010231999992016011014504+64350+007800FM-15+000099999V0200901N021119999999N999999999-00301-01201999999ADDMA1099601999999REMMET046METAR ENDR 101450Z AUTO 09041KT M03/M12 Q0996=
0144010231999992016011015104+64350+007800FM-15+000099999V0200901N020610085319N009999199-00301-01201999999ADDGA1071+008531999GE19MSL   +99999+99999GF199999071999008531999999MA1099501999999REMMET053METAR ENDR 101510Z 09040KT 9999 BKN028 M03/M12 Q0995=
0073010231999992016011015504+64350+007800FM-15+000099999V0200901N019619999999N999999999-00301-01301999999ADDMA1099501999999REMMET046METAR ENDR 101550Z AUTO 09038KT M03/M13 Q0995=
0073010231999992016011016204+64350+007800FM-15+000099999V0200901N018519999999N999999999-00301-01301999999ADDMA1099501999999REMMET046METAR ENDR 101620Z AUTO 09036KT M03/M13 Q0995=
0073010231999992016011016504+64350+007800FM-15+000099999V0200901N019019999999N999999999-00201-01101999999ADDMA1099401999999REMMET046METAR ENDR 101650Z AUTO 09037KT M02/M11 Q0994=
0073010231999992016011017204+64350+007800FM-15+000099999V0200801N019619999999N999999999-00201-01101999999ADDMA1099401999999REMMET046METAR ENDR 101720Z AUTO 08038KT M02/M11 Q0994=
0073010231999992016011017504+64350+007800FM-15+000099999V0200801N018519999999N999999999-00201-01101999999ADDMA1099301999999REMMET046METAR ENDR 101750Z AUTO 08036KT M02/M11 Q0993=
0073010231999992016011018204+64350+007800FM-15+000099999V0200801N018019999999N999999999-00201-01101999999ADDMA1099301999999REMMET046METAR ENDR 101820Z AUTO 08035KT M02/M11 Q0993=
0073010231999992016011018504+64350+007800FM-15+000099999V0200801N018019999999N999999999-00201-01001999999ADDMA1099301999999REMMET046METAR ENDR 101850Z AUTO 08035KT M02/M10 Q0993=
0073010231999992016011019204+64350+007800FM-15+000099999V0200801N017519999999N999999999-00201-00901999999ADDMA1099301999999REMMET046METAR ENDR 101920Z AUTO 08034KT M02/M09 Q0993=
0073010231999992016011019504+64350+007800FM-15+000099999V0200801N017519999999N999999999-00201-00901999999ADDMA1099201999999REMMET046METAR ENDR 101950Z AUTO 08034KT M02/M09 Q0992=
0073010231999992016011020204+64350+007800FM-15+000099999V0200801N017019999999N999999999-00201-00901999999ADDMA1099201999999REMMET046METAR ENDR 102020Z AUTO 08033KT M02/M09 Q0992=
0073010231999992016011020504+64350+007800FM-15+000099999V0200701N017019999999N999999999-00101-00801999999ADDMA1099201999999REMMET046METAR ENDR 102050Z AUTO 07033KT M01/M08 Q0992=
0073010231999992016011021204+64350+007800FM-15+000099999V0200801N016019999999N999999999-00101-00801999999ADDMA1099201999999REMMET046METAR ENDR 102120Z AUTO 08031KT M01/M08 Q0992=
0073010231999992016011021504+64350+007800FM-15+000099999V0200801N016519999999N999999999-00101-00801999999ADDMA1099201999999REMMET046METAR ENDR 102150Z AUTO 08032KT M01/M08 Q0992=
0073010231999992016011022204+64350+007800FM-15+000099999V0200701N016519999999N999999999-00101-00801999999ADDMA1099201999999REMMET046METAR ENDR 102220Z AUTO 07032KT M01/M08 Q0992=
0073010231999992016011022504+64350+007800FM-15+000099999V0200801N016019999999N999999999+00001-00701999999ADDMA1099101999999REMMET046METAR ENDR 102250Z AUTO 08031KT M00/M07 Q0991=
0073010231999992016011023204+64350+007800FM-15+000099999V0200701N016019999999N999999999-00101-00601999999ADDMA1099101999999REMMET046METAR ENDR 102320Z AUTO 07031KT M01/M06 Q0991=
0073010231999992016011023504+64350+007800FM-15+000099999V0200901N013419999999N999999999+00001-00601999999ADDMA1099101999999REMMET046METAR ENDR 102350Z AUTO 09026KT M00/M06 Q0991=
0072010231999992016011100204+64350+007800FM-15+000099999V0200801N014419999999N999999999+00001-00601999999ADDMA1099101999999REMMET045METAR ENDR 110020Z AUTO 08028KT 00/M06 Q0991=
0072010231999992016011100504+64350+007800FM-15+000099999V0200901N013419999999N999999999+00001-00701999999ADDMA1099101999999REMMET045METAR ENDR 110050Z AUTO 09026KT 00/M07 Q0991=
0072010231999992016011101204+64350+007800FM-15+000099999V0200901N013419999999N999999999+00101-00601999999ADDMA1099101999999REMMET045METAR ENDR 110120Z AUTO 09026KT 01/M06 Q0991=
0072010231999992016011101504+64350+007800FM-15+000099999V0200901N012419999999N999999999+00101-00601999999ADDMA1099101999999REMMET045METAR ENDR 110150Z AUTO 09024KT 01/M06 Q0991=
0072010231999992016011102204+64350+007800FM-15+000099999V0201001N010319999999N999999999+00101-00501999999ADDMA1099101999999REMMET045METAR ENDR 110220Z AUTO 10020KT 01/M05 Q0991=
0072010231999992016011102504+64350+007800FM-15+000099999V0201001N007219999999N999999999+00101-00501999999ADDMA1099101999999REMMET045METAR ENDR 110250Z AUTO 10014KT 01/M05 Q0991=
0072010231999992016011103204+64350+007800FM-15+000099999V0200901N007219999999N999999999+00201-00501999999ADDMA1099001999999REMMET045METAR ENDR 110320Z AUTO 09014KT 02/M05 Q0990=
0072010231999992016011103504+64350+007800FM-15+000099999V0201101N006719999999N999999999+00201-00601999999ADDMA1099001999999REMMET045METAR ENDR 110350Z AUTO 11013KT 02/M06 Q0990=
0072010231999992016011104204+64350+007800FM-15+000099999V0201201N004619999999N999999999+00201-00601999999ADDMA1099001999999REMMET045METAR ENDR 110420Z AUTO 12009KT 02/M06 Q0990=
0072010231999992016011104504+64350+007800FM-15+000099999V0201201N004119999999N999999999+00201-00601999999ADDMA1099001999999REMMET045METAR ENDR 110450Z AUTO 12008KT 02/M06 Q0990=
0072010231999992016011105204+64350+007800FM-15+000099999V0201101N005719999999N999999999+00301-00601999999ADDMA1099001999999REMMET045METAR ENDR 110520Z AUTO 11011KT 03/M06 Q0990=
0072010231999992016011105504+64350+007800FM-15+000099999V0201201N009819999999N999999999+00301-00501999999ADDMA1099001999999REMMET045METAR ENDR 110550Z AUTO 12019KT 03/M05 Q0990=
0143010231999992016011106104+64350+007800FM-15+000099999V0201201N008810082319N009999199+00301-00501999999ADDGA1071+008231999GE19MSL   +99999+99999GF199999071999008231999999MA1099001999999REMMET052METAR ENDR 110610Z 12017KT 9999 BKN027 03/M05 Q0990=
0072010231999992016011106504+64350+007800FM-15+000099999V0201101N009819999999N999999999+00301-00601999999ADDMA1099001999999REMMET045METAR ENDR 110650Z AUTO 11019KT 03/M06 Q0990=
0072010231999992016011107204+64350+007800FM-15+000099999V0201101N008819999999N999999999+00301-00601999999ADDMA1099101999999REMMET045METAR ENDR 110720Z AUTO 11017KT 03/M06 Q0991=
0072010231999992016011107504+64350+007800FM-15+000099999V0201101N009319999999N999999999+00301-00501999999ADDMA1099101999999REMMET045METAR ENDR 110750Z AUTO 11018KT 03/M05 Q0991=
0072010231999992016011108204+64350+007800FM-15+000099999V0201101N009819999999N999999999+00301-00601999999ADDMA1099101999999REMMET045METAR ENDR 110820Z AUTO 11019KT 03/M06 Q0991=
0072010231999992016011108504+64350+007800FM-15+000099999V0201101N009319999999N999999999+00301-00601999999ADDMA1099101999999REMMET045METAR ENDR 110850Z AUTO 11018KT 03/M06 Q0991=
0143010231999992016011109104+64350+007800FM-15+000099999V0201101N009310121919N009999199+00301-00601999999ADDGA1081+012191999GE19MSL   +99999+99999GF199999081999012191999999MA1099101999999REMMET052METAR ENDR 110910Z 11018KT 9999 OVC040 03/M06 Q0991=
0072010231999992016011109504+64350+007800FM-15+000099999V0201101N009819999999N999999999+00301-00501999999ADDMA1099101999999REMMET045METAR ENDR 110950Z AUTO 11019KT 03/M05 Q0991=
0072010231999992016011110204+64350+007800FM-15+000099999V0201201N009319999999N999999999+00301-00601999999ADDMA1099101999999REMMET045METAR ENDR 111020Z AUTO 12018KT 03/M06 Q0991=
0072010231999992016011110504+64350+007800FM-15+000099999V0201101N010819999999N999999999+00301-00601999999ADDMA1099101999999REMMET045METAR ENDR 111050Z AUTO 11021KT 03/M06 Q0991=
0072010231999992016011111204+64350+007800FM-15+000099999V0201201N009319999999N999999999+00301-00601999999ADDMA1099101999999REMMET045METAR ENDR 111120Z AUTO 12018KT 03/M06 Q0991=
0072010231999992016011111504+64350+007800FM-15+000099999V0201201N009819999999N999999999+00301-00601999999ADDMA1099201999999REMMET045METAR ENDR 111150Z AUTO 12019KT 03/M06 Q0992=
0072010231999992016011112204+64350+007800FM-15+000099999V0201201N010319999999N999999999+00301-00501999999ADDMA1099201999999REMMET045METAR ENDR 111220Z AUTO 12020KT 03/M05 Q0992=
0072010231999992016011112504+64350+007800FM-15+000099999V0201101N010319999999N999999999+00201-00601999999ADDMA1099201999999REMMET045METAR ENDR 111250Z AUTO 11020KT 02/M06 Q0992=
0072010231999992016011113204+64350+007800FM-15+000099999V0201101N010319999999N999999999+00201-00601999999ADDMA1099201999999REMMET045METAR ENDR 111320Z AUTO 11020KT 02/M06 Q0992=
0072010231999992016011113504+64350+007800FM-15+000099999V0201101N010319999999N999999999+00201-00701999999ADDMA1099201999999REMMET045METAR ENDR 111350Z AUTO 11020KT 02/M07 Q0992=
0072010231999992016011114204+64350+007800FM-15+000099999V0201101N010319999999N999999999+00201-00601999999ADDMA1099201999999REMMET045METAR ENDR 111420Z AUTO 11020KT 02/M06 Q0992=
0072010231999992016011114504+64350+007800FM-15+000099999V0201001N011319999999N999999999+00201-00601999999ADDMA1099201999999REMMET045METAR ENDR 111450Z AUTO 10022KT 02/M06 Q0992=
0166010231999992016011115104+64350+007800FM-15+000099999V0201001N011310609619N009999199+00201-00701999999ADDGA1041+012191999GA2071+060961999GE19MSL   +99999+99999GF199999041999012191999999MA1099201999999REMMET059METAR ENDR 111510Z 10022KT 9999 SCT040 BKN200 02/M07 Q0992=
0072010231999992016011115504+64350+007800FM-15+000099999V0201001N011319999999N999999999+00201-00701999999ADDMA1099301999999REMMET045METAR ENDR 111550Z AUTO 10022KT 02/M07 Q0993=
0072010231999992016011116204+64350+007800FM-15+000099999V0201001N010819999999N999999999+00201-00701999999ADDMA1099301999999REMMET045METAR ENDR 111620Z AUTO 10021KT 02/M07 Q0993=
0072010231999992016011116504+64350+007800FM-15+000099999V0201001N011819999999N999999999+00201-00801999999ADDMA1099301999999REMMET045METAR ENDR 111650Z AUTO 10023KT 02/M08 Q0993=
0072010231999992016011117204+64350+007800FM-15+000099999V0201001N012419999999N999999999+00201-00701999999ADDMA1099301999999REMMET045METAR ENDR 111720Z AUTO 10024KT 02/M07 Q0993=
0072010231999992016011117504+64350+007800FM-15+000099999V0201001N011819999999N999999999+00201-00701999999ADDMA1099301999999REMMET045METAR ENDR 111750Z AUTO 10023KT 02/M07 Q0993=
0072010231999992016011118204+64350+007800FM-15+000099999V0201001N010819999999N999999999+00201-00701999999ADDMA1099301999999REMMET045METAR ENDR 111820Z AUTO 10021KT 02/M07 Q0993=
0072010231999992016011118504+64350+007800FM-15+000099999V0201001N012419999999N999999999+00101-00801999999ADDMA1099301999999REMMET045METAR ENDR 111850Z AUTO 10024KT 01/M08 Q0993=
0072010231999992016011119204+64350+007800FM-15+000099999V0201001N011819999999N999999999+00101-00801999999ADDMA1099301999999REMMET045METAR ENDR 111920Z AUTO 10023KT 01/M08 Q0993=
0072010231999992016011119504+64350+007800FM-15+000099999V0201001N011819999999N999999999+00101-00701999999ADDMA1099401999999REMMET045METAR ENDR 111950Z AUTO 10023KT 01/M07 Q0994=
0072010231999992016011120204+64350+007800FM-15+000099999V0201001N011819999999N999999999+00101-00801999999ADDMA1099401999999REMMET045METAR ENDR 112020Z AUTO 10023KT 01/M08 Q0994=
0072010231999992016011120504+64350+007800FM-15+000099999V0201001N011819999999N999999999+00101-00701999999ADDMA1099401999999REMMET045METAR ENDR 112050Z AUTO 10023KT 01/M07 Q0994=
0072010231999992016011121204+64350+007800FM-15+000099999V0201001N012419999999N999999999+00101-00701999999ADDMA1099401999999REMMET045METAR ENDR 112120Z AUTO 10024KT 01/M07 Q0994=
0072010231999992016011121504+64350+007800FM-15+000099999V0201101N012419999999N999999999+00001-00801999999ADDMA1099401999999REMMET045METAR ENDR 112150Z AUTO 11024KT 00/M08 Q0994=
0072010231999992016011122204+64350+007800FM-15+000099999V0201001N012919999999N999999999+00001-00701999999ADDMA1099501999999REMMET045METAR ENDR 112220Z AUTO 10025KT 00/M07 Q0995=
0073010231999992016011122504+64350+007800FM-15+000099999V0201001N012919999999N999999999+00001-00701999999ADDMA1099501999999REMMET046METAR ENDR 112250Z AUTO 10025KT M00/M07 Q0995=
0072010231999992016011123204+64350+007800FM-15+000099999V0201001N012919999999N999999999+00001-00701999999ADDMA1099501999999REMMET045METAR ENDR 112320Z AUTO 10025KT 00/M07 Q0995=
0073010231999992016011123504+64350+007800FM-15+000099999V0200901N013419999999N999999999+00001-00701999999ADDMA1099501999999REMMET046METAR ENDR 112350Z AUTO 09026KT M00/M07 Q0995=
0073010231999992016011200204+64350+007800FM-15+000099999V0200901N012919999999N999999999+00001-00801999999ADDMA1099501999999REMMET046METAR ENDR 120020Z AUTO 09025KT M00/M08 Q0995=
0073010231999992016011200504+64350+007800FM-15+000099999V0201001N012919999999N999999999+00001-00801999999ADDMA1099501999999REMMET046METAR ENDR 120050Z AUTO 10025KT M00/M08 Q0995=
0073010231999992016011201204+64350+007800FM-15+000099999V0201001N012419999999N999999999+00001-00801999999ADDMA1099501999999REMMET046METAR ENDR 120120Z AUTO 10024KT M00/M08 Q0995=
0073010231999992016011201504+64350+007800FM-15+000099999V0200901N012919999999N999999999-00101-00901999999ADDMA1099501999999REMMET046METAR ENDR 120150Z AUTO 09025KT M01/M09 Q0995=
0073010231999992016011202204+64350+007800FM-15+000099999V0200901N013919999999N999999999-00101-00901999999ADDMA1099601999999REMMET046METAR ENDR 120220Z AUTO 09027KT M01/M09 Q0996=
0073010231999992016011202504+64350+007800FM-15+000099999V0201001N012919999999N999999999-00101-00901999999ADDMA1099601999999REMMET046METAR ENDR 120250Z AUTO 10025KT M01/M09 Q0996=
0073010231999992016011203204+64350+007800FM-15+000099999V0201001N013419999999N999999999-00101-00801999999ADDMA1099601999999REMMET046METAR ENDR 120320Z AUTO 10026KT M01/M08 Q0996=
0073010231999992016011203504+64350+007800FM-15+000099999V0200901N013419999999N999999999-00101-00901999999ADDMA1099601999999REMMET046METAR ENDR 120350Z AUTO 09026KT M01/M09 Q0996=
0073010231999992016011204204+64350+007800FM-15+000099999V0201001N013919999999N999999999-00101-00801999999ADDMA1099501999999REMMET046METAR ENDR 120420Z AUTO 10027KT M01/M08 Q0995=
0073010231999992016011204504+64350+007800FM-15+000099999V0201001N013919999999N999999999-00101-00901999999ADDMA1099601999999REMMET046METAR ENDR 120450Z AUTO 10027KT M01/M09 Q0996=
0073010231999992016011205204+64350+007800FM-15+000099999V0201001N014419999999N999999999-00101-00801999999ADDMA1099601999999REMMET046METAR ENDR 120520Z AUTO 10028KT M01/M08 Q0996=
0073010231999992016011205504+64350+007800FM-15+000099999V0201001N013419999999N999999999-00101-00801999999ADDMA1099601999999REMMET046METAR ENDR 120550Z AUTO 10026KT M01/M08 Q0996=
0073010231999992016011206204+64350+007800FM-15+000099999V0201001N013919999999N999999999-00201-00801999999ADDMA1099601999999REMMET046METAR ENDR 120620Z AUTO 10027KT M02/M08 Q0996=
0144010231999992016011206404+64350+007800FM-15+000099999V0201001N014410061019N009999199-00201-00901999999ADDGA1071+006101999GE19MSL   +99999+99999GF199999071999006101999999MA1099601999999REMMET053METAR ENDR 120640Z 10028KT 9999 BKN020 M02/M09 Q0996=
0073010231999992016011207204+64350+007800FM-15+000099999V0201001N014419999999N999999999-00201-00901999999ADDMA1099701999999REMMET046METAR ENDR 120720Z AUTO 10028KT M02/M09 Q0997=
0073010231999992016011207504+64350+007800FM-15+000099999V0201001N013419999999N999999999-00201-00901999999ADDMA1099701999999REMMET046METAR ENDR 120750Z AUTO 10026KT M02/M09 Q0997=
0073010231999992016011208204+64350+007800FM-15+000099999V0201001N013919999999N999999999-00201-00901999999ADDMA1099701999999REMMET046METAR ENDR 120820Z AUTO 10027KT M02/M09 Q0997=
0073010231999992016011208504+64350+007800FM-15+000099999V0201001N013919999999N999999999-00201-00901999999ADDMA1099701999999REMMET046METAR ENDR 120850Z AUTO 10027KT M02/M09 Q0997=
0144010231999992016011209104+64350+007800FM-15+000099999V0201001N014410076219N009999199-00201-01001999999ADDGA1071+007621999GE19MSL   +99999+99999GF199999071999007621999999MA1099701999999REMMET053METAR ENDR 120910Z 10028KT 9999 BKN025 M02/M10 Q0997=
0073010231999992016011210204+64350+007800FM-15+000099999V0201001N013419999999N999999999-00201-01101999999ADDMA1099801999999REMMET046METAR ENDR 121020Z AUTO 10026KT M02/M11 Q0998=
