0219010280999992016010100004+74517+019005FM-12+001699999V0201011N0040102500199030000199+00191+00061101181ADDAA106999999AY121061AY221061GA1051+025001031GA2999+999999021GE19MSL   +99999+99999GF108991051999025001999999KA1010M+00201KA2010N+00191MA1999999100981MD1810041+9999MW1021OC100511OD130600811999UA19999999049REMSYN004BUFR
0206010280999992016010101004+74517+019000FM-12+001899999V0201101N006019999999N030000199+00201+00111101161ADDAY121021AY221021GA1999+999999021GE19MSL   +99999+99999GF108991001999999999999999MA1999999100961MD1810071+9999MW1021REMSYN06001028 41980 81106 10020 20011 30096 40116 58007 70222 80008=EQDQ01    003SCCGA1
0179010280999992016010102004+74517+019005FM-12+001699999V0201081N0065199999999030000199+00251+00191101111ADDAY121999AY221999GA1999+025001021GE19MSL   +99999+99999GF108991999999025001999999KA1010M+00261KA2010N+00201MA1999999100911MD1810111+9999MW1021OC100761OD130100801999REMSYN004BUFR
0208010280999992016010103004+74517+019005FM-12+001699999V0200911N0060199999999025000199+00271+00221101031ADDAY121031AY221031GA1031+006001081GA2999+999999021GE19MSL   +99999+99999GF108991031999006001999999KA1010M+00301KA2010N+00261MA1999999100831MD1810151+9999MW1021OC100781OD130100851999UA19999999049REMSYN004BUFR
0195010280999992016010104004+74517+019005FM-12+001699999V0201121N0055199999999005000199+00251+00221100971ADDAY181999AY221999GA1041+006001081GA2999+999999021GE19MSL   +99999+99999GF108991041999006001999999KA1010M+00361KA2010N+00261MA1999999100771MD1810191+9999MW1801OC100631OD130100771999REMSYN004BUFR
0195010280999992016010105004+74517+019005FM-12+001699999V0201411N0061199999999007000199+00291+00241100941ADDAY181999AY221999GA1041+010001081GA2999+999999021GE19MSL   +99999+99999GF108991041999010001999999KA1010M+00321KA2010N+00261MA1999999100741MD1610171+9999MW1801OC100751OD130100811999REMSYN004BUFR
0252010280999992016010106004+74517+019005FM-12+001699999V0201511N0090101000199030000199+00301+00211100891ADDAA112999999AA224999999AY181061AY221061GA1051+010001081GA2999+999999031GA3999+999999021GE19MSL   +99999+99999GF108991051999010001999999IA1179KA1120M+00361KA2120N+00161MA1999999100691MD1510151+9999MW1021OC101061OD130601081999UA19999999049REMSYN004BUFR
0195010280999992016010107004+74517+019005FM-12+001699999V0201521N0112101500199030000199+00321+00111100851ADDAY121999AY221999GA1061+015001031GA2999+999999021GE19MSL   +99999+99999GF108991061999015001999999KA1010M+00341KA2010N+00311MA1999999100651MD1610121+9999MW1021OC101311OD130101371999REMSYN004BUFR
0195010280999992016010108004+74517+019005FM-12+001699999V0201501N0104102500199030000199+00321+00151100881ADDAY121999AY221999GA1061+025001031GA2999+999999021GE19MSL   +99999+99999GF108991061999025001999999KA1010M+00341KA2010N+00321MA1999999100681MD1510061+9999MW1021OC101291OD130101371999REMSYN004BUFR
0208010280999992016010109004+74517+019005FM-12+001699999V0201651N0086102500199030000199+00421+00171100911ADDAY121031AY221031GA1051+025001031GA2999+999999021GE19MSL   +99999+99999GF108991051999025001999999KA1010M+00451KA2010N+00311MA1999999100711MD1310021+9999MW1021OC101021OD130101241999UA19999999049REMSYN004BUFR
0203010280999992016010110004+74517+019000FM-12+001899999V0201801N011019999999N030000199+00341+00151100931ADDAY121021AY221021GA1071+017501031GA2999+999999021GE19MSL   +99999+99999GF108991071999017501999999MA1999999100731MD1210081+9999MW1021REMSYN06001028 41780 81811 10034 20015 30073 40093 52008 70222 87078=
0211010280999992016010111004+74517+019005FM-12+001699999V0201731N0097199999999030000199+00321+00171101021ADDAY181999AY221999GA1011+006001081GA2999+999999031GA3999+999999021GE19MSL   +99999+99999GF108991011999006001999999KA1010M+00341KA2010N+00291MA1999999100821MD1310151+9999MW1251OC101161OD130101271999REMSYN004BUFR
0280010280999992016010112004+74517+019000FM-12+001899999V0201801N009019999999N030000199+00321+00211101091ADDAA106000021AY181021AY221021GA1021+004501081GA2999+999999031GA3999+999999021GE19MSL   +99999+99999GF108991021999004501999999MA1999999100891MD1310181+9999MW1021OD139901401999SA1+0361REMSYN08801028 11480 81809 10032 20021 30089 40109 53018 69901 70282 82878 222// 00036 333 91114=
0187010280999992016010113004+74517+019000FM-12+001899999V0201801N011019999999N025000199+00371+00231101151ADDAY121021AY221021GA1071+008001061GE19MSL   +99999+99999GF108991071999008001999999MA1999999100951MD1210221+9999MW1021REMSYN06001028 41575 81811 10037 20023 30095 40115 52022 70222 875//=
0211010280999992016010114004+74517+019005FM-12+001699999V0201771N0113100600199025000199+00351+00211101231ADDAY121999AY221999GA1061+006001061GA2999+999999101GA3999+999999101GE19MSL   +99999+99999GF107991061999006001999999KA1010M+00391KA2010N+00361MA1999999101031MD1310211+9999MW1011OC101371OD130101471999REMSYN004BUFR
0224010280999992016010115004+74517+019005FM-12+001699999V0201791N0111100600199025000199+00341+00181101281ADDAY121031AY221031GA1061+006001061GA2999+999999101GA3999+999999101GE19MSL   +99999+99999GF107991061999006001999999KA1010M+00351KA2010N+00301MA1999999101081MD1210191+9999MW1021OC101331OD130101411999UA19999999039REMSYN004BUFR
0195010280999992016010116004+74517+019005FM-12+001699999V0201791N0104199999999030000199+00301+00161101351ADDAY121999AY221999GA1041+025001031GA2999+999999021GE19MSL   +99999+99999GF106991041999025001999999KA1010M+00341KA2010N+00301MA1999999101151MD1310201+9999MW1011OC101271OD130101441999REMSYN004BUFR
0211010280999992016010117004+74517+019005FM-12+001699999V0201761N0121100600199025000199+00371+00211101391ADDAY121999AY221999GA1071+006001061GA2999+999999101GA3999+999999101GE19MSL   +99999+99999GF108991071999006001999999KA1010M+00381KA2010N+00301MA1999999101191MD1210161+9999MW1031OC101491OD130101491999REMSYN004BUFR
0235010280999992016010118004+74517+019005FM-12+001699999V0201711N0101100600199025000199+00371+00191101441ADDAA112999999AY121061AY221061GA1081+006001061GA2999+999999101GA3999+999999101GE19MSL   +99999+99999GF108991081999006001999999KA1120M+00451KA2120N+00291MA1999999101241MD1210161+9999MW1021OC101241OD130601491999UA19999999039REMSYN004BUFR
0187010280999992016010119004+74517+019000FM-12+001899999V0201701N011019999999N030000199+00411+00181101471ADDAY121021AY221021GA1051+008001061GE19MSL   +99999+99999GF105991051999008001999999MA1999999101271MD1310131+9999MW1011REMSYN06001028 41580 51711 10041 20018 30127 40147 53013 70122 85500=
0179010280999992016010120004+74517+019005FM-12+001699999V0201701N0105199999999030000199+00401+00171101541ADDAY121999AY211999GA1041+006001061GE19MSL   +99999+99999GF104991041999006001999999KA1010M+00421KA2010N+00401MA1999999101341MD1310151+9999MW1011OC101291OD130101431999REMSYN004BUFR
0192010280999992016010121004+74517+019005FM-12+001699999V0201691N0106101000199030000199+00401+00191101571ADDAY121031AY211031GA1051+010001061GE19MSL   +99999+99999GF105991051999010001999999KA1010M+00431KA2010N+00401MA1999999101371MD1310131+9999MW1021OC101311OD130101361999UA19999999039REMSYN004BUFR
0179010280999992016010122004+74517+019005FM-12+001699999V0201671N0105199999999030000199+00401+00181101611ADDAY121999AY211999GA1041+006001061GE19MSL   +99999+99999GF104991041999006001999999KA1010M+00411KA2010N+00401MA1999999101411MD1110141+9999MW1021OC101281OD130101381999REMSYN004BUFR
0179010280999992016010123004+74517+019005FM-12+001699999V0201731N0114199999999030000199+00391+00141101581ADDAY111999AY201999GA1031+006001061GE19MSL   +99999+99999GF103991031999006001999999KA1010M+00431KA2010N+00391MA1999999101381MD1010051+9999MW1011OC101361OD130101431999REMSYN004BUFR
0228010280999992016010200004+74517+019000FM-12+001899999V0201701N014019999999N030000199+00411+00131101551ADDAA106000091AY121021AY221021GA1051+008001061GE19MSL   +99999+99999GF105991051999008001999999MA1999999101351MD1810021+9999MW1031OD139901901999REMSYN07601028 11580 51714 10041 20013 30135 40155 58002 60001 70322 85500 333 91119=
0203010280999992016010201004+74517+019000FM-12+001899999V0201701N015019999999N030000199+00401+00201101521ADDAY121021AY221021GA1021+004501061GA2999+999999031GE19MSL   +99999+99999GF108991021999004501999999MA1999999101321MD1710091+9999MW1031REMSYN06001028 41480 81715 10040 20020 30132 40152 57009 70322 8257/=
0211010280999992016010202004+74517+019005FM-12+001699999V0201751N0126100300199030000199+00341+00151101561ADDAY181999AY221999GA1051+003001081GA2999+999999031GA3999+999999101GE19MSL   +99999+99999GF107991051999003001999999KA1010M+00401KA2010N+00351MA1999999101361MD1510021+9999MW1251OC101501OD130101811999REMSYN004BUFR
0208010280999992016010203004+74517+019005FM-12+001699999V0201781N0115199999999030000199+00291+00031101601ADDAY181031AY221031GA1021+006001081GA2999+999999031GE19MSL   +99999+99999GF104991021999006001999999KA1010M+00351KA2010N+00301MA1999999101401MD1310061+9999MW1011OC101441OD130101551999UA19999999049REMSYN004BUFR
0195010280999992016010204004+74517+019005FM-12+001699999V0201791N0129199999999030000199+00321+00011101631ADDAY101999AY201999GA1021+010001061GA2999+999999031GE19MSL   +99999+99999GF104991021999010001999999KA1010M+00331KA2010N+00311MA1999999101431MD1210111+9999MW1021OC101621OD130101621999REMSYN004BUFR
0195010280999992016010205004+74517+019005FM-12+001699999V0201861N0113199999999030000199+00291+00051101671ADDAY181999AY201999GA1031+006001081GA2999+999999031GE19MSL   +99999+99999GF104991031999006001999999KA1010M+00331KA2010N+00291MA1999999101471MD1310111+9999MW1251OC101391OD130101781999REMSYN004BUFR
0309010280999992016010206004+74517+019000FM-12+001899999V0201701N011019999999N030000199+00291+00041101731ADDAA112000131AA224000131AJ199991999999999AY181021AY201021GA1031+008001081GA2999+999999031GE19MSL   +99999+99999GF104991031999008001999999IA1269KA1240N+00271MA1999999101531MD1310131+9999MW1021OD139901901999REMSYN09401028 11580 41711 10029 20004 30153 40173 53013 69912 70280 83830 333 20027 42999 70001 91119=
0195010280999992016010207004+74517+019005FM-12+001699999V0201931N0191199999999030000199+00321+00111101801ADDAY101999AY201999GA1021+006001081GA2999+999999031GE19MSL   +99999+99999GF104991021999006001999999KA1010M+00351KA2010N+00291MA1999999101601MD1310171+9999MW1021OC102771OD130102771999REMSYN004BUFR
0195010280999992016010208004+74517+019005FM-12+001699999V0201941N0156199999999030000199+00301+00051101931ADDAY101999AY201999GA1021+010001081GA2999+999999031GE19MSL   +99999+99999GF103991021999010001999999KA1010M+00321KA2010N+00291MA1999999101731MD1310261+9999MW1021OC102191OD130102211999REMSYN004BUFR
0208010280999992016010209004+74517+019005FM-12+001699999V0202041N0143199999999030000199+00351+00021102051ADDAY101031AY201031GA1021+010001081GA2999+999999031GE19MSL   +99999+99999GF103991021999010001999999KA1010M+00361KA2010N+00311MA1999999101851MD1310321+9999MW1021OC101801OD130102561999UA19999999049REMSYN004BUFR
0203010280999992016010210004+74517+019000FM-12+001899999V0202001N013019999999N030000199+00371+00031102171ADDAY101021AY201021GA1021+012501081GA2999+999999031GE19MSL   +99999+99999GF103991021999012501999999MA1999999101971MD1210361+9999MW1021REMSYN06001028 41680 32013 10037 20003 30197 40217 52036 70200 82830=
0211010280999992016010211004+74517+019005FM-12+001699999V0202031N0125199999999010000199+00321+00061102291ADDAY181999AY221999GA1031+010001081GA2999+999999031GA3999+999999001GE19MSL   +99999+99999GF105991031999010001999999KA1010M+00381KA2010N+00311MA1999999102091MD1310361+9999MW1251OC101501OD130102211999REMSYN004BUFR
0248010280999992016010212004+74517+019000FM-12+001899999V0202001N011019999999N020000199+00351+00061102371ADDAA106000531AY181021AY221021GA1031+012501091GE19MSL   +99999+99999GF103991031999012501999999MA1999999102171MD1310321+9999MW1011OD139902801999SA1+0361REMSYN08801028 11670 32011 10035 20006 30217 40237 53032 69951 70182 83300 222// 00036 333 91128=
0203010280999992016010213004+74517+019000FM-12+001899999V0201901N011019999999N020000199+00341+00141102451ADDAY121021AY211021GA1041+008001081GA2999+999999031GE19MSL   +99999+99999GF106991041999008001999999MA1999999102251MD1210281+9999MW1031REMSYN06001028 41570 61911 10034 20014 30225 40245 52028 70321 84830=
0187010280999992016010214004+74517+019000FM-12+001899999V0202001N011019999999N030000199+00371+00131102541ADDAY121021AY201021GA1031+008001081GE19MSL   +99999+99999GF103991031999008001999999MA1999999102341MD1210251+9999MW1011REMSYN06001028 41580 32011 10037 20013 30234 40254 52025 70120 83800=
0203010280999992016010215004+74517+019000FM-12+001899999V0202001N010019999999N030000199+00361+00171102651ADDAY121021AY201021GA1021+008001081GA2999+999999041GE19MSL   +99999+99999GF107991021999008001999999MA1999999102451MD1310281+9999MW1031REMSYN06001028 41580 72010 10036 20017 30245 40265 53028 70320 82810=
0179010280999992016010216004+74517+019005FM-12+001699999V0201921N0102199999999030000199+00301+00181102721ADDAY121999AY201999GA1021+006001081GE19MSL   +99999+99999GF102991021999006001999999KA1010M+00361KA2010N+00281MA1999999102521MD1110271+9999MW1011OC101191OD130101331999REMSYN004BUFR
0179010280999992016010217004+74517+019005FM-12+001699999V0201881N0088199999999030000199+00221+00131102771ADDAY101999AY201999GA1031+006001081GE19MSL   +99999+99999GF103991031999006001999999KA1010M+00331KA2010N+00231MA1999999102571MD1110231+9999MW1021OC101081OD130101321999REMSYN004BUFR
0247010280999992016010218004+74517+019000FM-12+001899999V0201801N009019999999N030000199+00231+00151102851ADDAA112000531AY121021AY211021GA1051+004501081GE19MSL   +99999+99999GF105991051999004501999999KA1120M+00381MA1999999102651MD1310201+9999MW1031OD139901601999REMSYN08201028 11480 51809 10023 20015 30265 40285 53020 69952 70321 85800 333 10038 91116=
0187010280999992016010219004+74517+019000FM-12+001899999V0201801N009019999999N025000199+00261+00181102921ADDAY181021AY221021GA1071+004501081GE19MSL   +99999+99999GF107991071999004501999999MA1999999102721MD1310201+9999MW1801REMSYN06001028 41475 71809 10026 20018 30272 40292 53020 78082 878//=
0179010280999992016010220004+74517+019005FM-12+001699999V0201831N0102199999999030000199+00271+00201102961ADDAY121999AY201999GA1031+003001081GE19MSL   +99999+99999GF103991031999003001999999KA1010M+00271KA2010N+00261MA1999999102761MD1110191+9999MW1011OC101161OD130101171999REMSYN004BUFR
0224010280999992016010221004+74517+019005FM-12+001699999V0201831N0103100300199030000199+00291+00221102951ADDAY181031AY221031GA1071+003001081GA2999+999999101GA3999+999999101GE19MSL   +99999+99999GF107991071999003001999999KA1010M+00311KA2010N+00271MA1999999102751MD1110101+9999MW1031OC101201OD130101311999UA19999999049REMSYN004BUFR
0195010280999992016010222004+74517+019005FM-12+001699999V0201791N0095199999999030000199+00301+00221102951ADDAY121999AY201999GA1021+010001081GA2999+999999031GE19MSL   +99999+99999GF103991021999010001999999KA1010M+00311KA2010N+00271MA1999999102751MD1010031+9999MW1011OC101141OD130101261999REMSYN004BUFR
0195010280999992016010223004+74517+019005FM-12+001699999V0201751N0103102000199030000199+00341+00241102961ADDAY121999AY201999GA1071+020001031GA2999+999999101GE19MSL   +99999+99999GF107991071999020001999999KA1010M+00351KA2010N+00301MA1999999102761MD1410001+9999MW1031OC101321OD130101321999REMSYN004BUFR
0228010280999992016010300004+74517+019000FM-12+001899999V0201701N010019999999N030000199+00351+00221102951ADDAA106000131AY121021AY221021GA1071+022501031GE19MSL   +99999+99999GF107991071999022501999999MA1999999102751MD1410001+9999MW1021OD139901301999REMSYN07601028 11880 71710 10035 20022 30275 40295 54000 69911 70222 8707/ 333 91113=
0206010280999992016010301004+74517+019000FM-12+001899999V0201701N009019999999N030000199+00351+00211102951ADDAY121021AY221021GA1071+022501031GE19MSL   +99999+99999GF107991071999022501999999MA1999999102751MD1410009+9999MW1021REMSYN06001028 41880 71709 10035 20021 30275 40295 54001 70222 8707/=EQDQ01.1    3APC3  
0195010280999992016010302004+74517+019005FM-12+001699999V0201641N0097199999999030000199+00351+00111102911ADDAY121999AY211999GA1031+025001031GA2999+999999001GE19MSL   +99999+99999GF104991031999025001999999KA1010M+00371KA2010N+00351MA1999999102711MD1810051+9999MW1011OC101141OD130101301999REMSYN004BUFR
0208010280999992016010303004+74517+019005FM-12+001699999V0201481N0102199999999030000199+00291+00111102861ADDAY111031AY211031GA1031+025001031GA2999+999999001GE19MSL   +99999+99999GF104991031999025001999999KA1010M+00371KA2010N+00281MA1999999102661MD1810091+9999MW1021OC101261OD130101261999UA19999999049REMSYN004BUFR
0203010280999992016010304004+74517+019000FM-12+001899999V0201501N008019999999N030000199+00261+00111102791ADDAY111021AY211021GA1031+999999031GA2999+999999001GE19MSL   +99999+99999GF104991031999999999999999MA1999999102591MD1810151+9999MW1021REMSYN06001028 41980 41508 10026 20011 30259 40279 58015 70211 83071=
0203010280999992016010305004+74517+019000FM-12+001899999V0201601N009019999999N030000199+00261+00091102711ADDAY111021AY211021GA1031+999999031GA2999+999999001GE19MSL   +99999+99999GF104991031999999999999999MA1999999102511MD1810201+9999MW1021REMSYN06001028 41980 41609 10026 20009 30251 40271 58020 70211 83071=
0252010280999992016010306004+74517+019005FM-12+001699999V0201661N0085199999999040000199+00301+00101102681ADDAA112000131AA224000631AY121061AY211061GA1021+006001061GA2999+999999031GA3999+999999021GE19MSL   +99999+99999GF107991021999006001999999IA1189KA1120M+00371KA2120N+00231MA1999999102481MD1610181+9999MW1031OC101011OD130601311999UA19999999049REMSYN004BUFR
0211010280999992016010307004+74517+019005FM-12+001699999V0201681N0090199999999040000199+00301+00071102651ADDAY121999AY221999GA1031+006001061GA2999+999999031GA3999+999999021GE19MSL   +99999+99999GF107991031999006001999999KA1010M+00331KA2010N+00311MA1999999102451MD1610141+9999MW1021OC101081OD130101161999REMSYN004BUFR
0211010280999992016010308004+74517+019005FM-12+001699999V0201721N0088199999999040000199+00251+00021102621ADDAY121999AY221999GA1031+006001061GA2999+999999031GA3999+999999021GE19MSL   +99999+99999GF107991031999006001999999KA1010M+00311KA2010N+00261MA1999999102421MD1810081+9999MW1021OC101071OD130101141999REMSYN004BUFR
0195010280999992016010309004+74517+019005FM-12+001699999V0201721N0074100600199040000199+00251+00011102631ADDAY121031AY221031GA1051+006001061GA2999+999999001GE19MSL   +99999+99999GF106991051999006001999999KA1010M+00271KA2010N+00251MA1999999102431MD1610051+9999MW1011OC100961OD130101111999REMSYN004BUFR
0195010280999992016010310004+74517+019005FM-12+001699999V0201271N0055100600199040000199+00221+00001102621ADDAY121999AY221999GA1051+006001061GA2999+999999001GE19MSL   +99999+99999GF106991051999006001999999KA1010M+00271KA2010N+00221MA1999999102421MD1710031+9999MW1021OC100631OD130100951999REMSYN004BUFR
0195010280999992016010311004+74517+019005FM-12+001699999V0201301N0050199999999060000199+00171-00021102571ADDAY121999AY221999GA1031+006001061GA2999+999999001GE19MSL   +99999+99999GF105991031999006001999999KA1010M+00221KA2010N+00171MA1999999102371MD1810061+9999MW1011OC100601OD130100751999REMSYN004BUFR
0283010280999992016010312004+74517+019000FM-12+001899999V0201701N005019999999N030000199+00201+00031102551ADDAA106999999AY121021AY221021GA1061+004501081GA2999+999999001GE19MSL   +99999+99999GF107991061999004501999999MA1999999102351MD1810091+9999MW1801OD139901201999SA1+0201REMSYN08801028 11480 71705 10020 20003 30235 40255 58009 60001 78022 86801 222// 00020 333 91112=EQDQ01  00002PRCP06
0211010280999992016010313004+74517+019005FM-12+001699999V0201561N0045100600199030000199+00191+00031102521ADDAY121999AY221999GA1071+006001081GA2999+999999101GA3999+999999101GE19MSL   +99999+99999GF107991071999006001999999KA1010M+00211KA2010N+00171MA1999999102321MD1610101+9999MW1021OC100541OD130100631999REMSYN004BUFR
0187010280999992016010314004+74517+019000FM-12+001899999V0201501N007019999999N030000199+00231+00101102461ADDAY181021AY221021GA1081+008001081GE19MSL   +99999+99999GF108991081999008001999999MA1999999102261MD1810111+9999MW1801REMSYN06001028 41580 81507 10023 20010 30226 40246 58011 78082 888//=
0192010280999992016010315004+74517+019005FM-12+001699999V0201451N0071101000199030000199+00221+00041102391ADDAY181031AY221031GA1051+010001081GE19MSL   +99999+99999GF105991051999010001999999KA1010M+00261KA2010N+00231MA1999999102191MD1810151+9999MW1011OC100831OD130100901999UA19999999049REMSYN004BUFR
0179010280999992016010316004+74517+019005FM-12+001699999V0201461N0089101000199030000199+00201+00061102351ADDAY121999AY221999GA1061+010001081GE19MSL   +99999+99999GF106991061999010001999999KA1010M+00231KA2010N+00201MA1999999102151MD1810171+9999MW1021OC101051OD130101051999REMSYN004BUFR
0211010280999992016010317004+74517+019005FM-12+001699999V0201501N0079100300199030000199+00191+00041102311ADDAY121999AY221999GA1081+003001081GA2999+999999101GA3999+999999101GE19MSL   +99999+99999GF108991081999003001999999KA1010M+00211KA2010N+00191MA1999999102111MD1810151+9999MW1031OC101001OD130101101999REMSYN004BUFR
0247010280999992016010318004+74517+019000FM-12+001899999V0201501N007019999999N030000199+00181+00031102261ADDAA112000231AY121021AY221021GA1071+008001081GE19MSL   +99999+99999GF107991071999008001999999KA1120M+00331MA1999999102061MD1810131+9999MW1801OD139901101999REMSYN08201028 11580 71507 10018 20003 30206 40226 58013 69922 78022 878// 333 10033 91111=
0187010280999992016010319004+74517+019000FM-12+001899999V0201501N008019999999N030000199+00181+00021102221ADDAY121021AY221021GA1071+008001081GE19MSL   +99999+99999GF107991071999008001999999MA1999999102021MD1810131+9999MW1021REMSYN06001028 41580 71508 10018 20002 30202 40222 58013 70222 878//=
0211010280999992016010320004+74517+019005FM-12+001699999V0201561N0083100600199030000199+00151-00011102141ADDAY121999AY221999GA1071+006001081GA2999+999999101GA3999+999999101GE19MSL   +99999+99999GF107991071999006001999999KA1010M+00181KA2010N+00161MA1999999101941MD1810171+9999MW1021OC100981OD130101051999REMSYN004BUFR
0224010280999992016010321004+74517+019005FM-12+001699999V0201541N0069101000199030000199+00121-00031102101ADDAY121031AY221031GA1071+010001081GA2999+999999101GA3999+999999101GE19MSL   +99999+99999GF107991071999010001999999KA1010M+00161KA2010N+00131MA1999999101901MD1710161+9999MW1021OC100801OD130100921999UA19999999049REMSYN004BUFR
0187010280999992016010322004+74517+019000FM-12+001899999V0201501N005019999999N030000199+00111-00041102061ADDAY121021AY221021GA1071+012501081GE19MSL   +99999+99999GF107991071999012501999999MA1999999101861MD1610161+9999MW1021REMSYN06001028 41680 71505 10011 21004 30186 40206 56016 70222 878//=
0211010280999992016010323004+74517+019005FM-12+001699999V0201551N0060101000199030000199+00121-00051102001ADDAY121999AY221999GA1071+010001081GA2999+999999101GA3999+999999101GE19MSL   +99999+99999GF107991071999010001999999KA1010M+00121KA2010N+00101MA1999999101801MD1810141+9999MW1021OC100721OD130100721999REMSYN004BUFR
0228010280999992016010400004+74517+019000FM-12+001899999V0201701N004019999999N040000199+00101-00061101981ADDAA106000021AY181021AY221021GA1071+012501061GE19MSL   +99999+99999GF107991071999012501999999MA1999999101781MD1710121+9999MW1021OD139901101999REMSYN07601028 11682 71704 10010 21006 30178 40198 57012 69901 70282 875// 333 91111=
0211010280999992016010401004+74517+019005FM-12+001699999V0201561N0046101000199040000199+00051-00041101931ADDAY121999AY221999GA1071+010001061GA2999+999999101GA3999+999999101GE19MSL   +99999+99999GF107991071999010001999999KA1010M+00101KA2010N+00061MA1999999101731MD1810131+9999MW1021OC100581OD130100581999REMSYN004BUFR
0187010280999992016010402004+74517+019000FM-12+001899999V0201701N004019999999N040000199+00071-00041101871ADDAY121021AY221021GA1081+008001061GE19MSL   +99999+99999GF108991081999008001999999MA1999999101671MD1810131+9999MW1031REMSYN06001028 41582 81704 10007 21004 30167 40187 58013 70322 885//=
0202010280999992016010403004+74517+019005FM-12+001699999V0201571N0040100600199040000199+00051-00041101821ADDAY121031AY221031GA1081+006001061GA2999+999999101GA3999+999999101GE19MSL   +99999+99999GF108991081999006001999999KA1010M+00071KA2010N+00051MA1999999101621MD1710161+9999MW1021UA19999999039REMSYN004BUFR
0187010280999992016010404004+74517+019000FM-12+001899999V0201701N003019999999N040000199+00051-00051101801ADDAY121021AY221021GA1081+008001061GE19MSL   +99999+99999GF108991081999008001999999MA1999999101601MD1610121+9999MW1021REMSYN06001028 41582 81703 10005 21005 30160 40180 56012 70222 885//=
0189010280999992016010405004+74517+019005FM-12+001699999V0201811N0024100600199030000199+00021-00061101791ADDAY121999AY221999GA1081+006001061GA2999+999999101GA3999+999999101GE19MSL   +99999+99999GF108991081999006001999999KA1010M+00051KA2010N+00031MA1999999101591MD1710081+9999MW1021REMSYN004BUFR
0293010280999992016010406004+74517+019000FM-12+001899999V0201601N003019999999N040000199+00031-00061101801ADDAA112000021AA224000231AJ199991999999999AY121021AY221021GA1081+012501061GE19MSL   +99999+99999GF108991081999012501999999IA1259KA1240N+00031MA1999999101601MD1710021+9999MW1021OD139900701999REMSYN09401028 11682 81603 10003 21006 30160 40180 57002 69902 70222 885// 333 20003 41999 70002 91107=
0189010280999992016010407004+74517+019005FM-12+001699999V0201611N0031101000199040000199+00021-00061101821ADDAY121999AY221999GA1081+010001061GA2999+999999101GA3999+999999101GE19MSL   +99999+99999GF108991081999010001999999KA1010M+00031KA2010N+00031MA1999999101621MD1310021+9999MW1021REMSYN004BUFR
0189010280999992016010408004+74517+019005FM-12+001699999V0201681N0035101000199040000199+00041-00071101841ADDAY121999AY221999GA1081+010001061GA2999+999999101GA3999+999999101GE19MSL   +99999+99999GF108991081999010001999999KA1010M+00041KA2010N+00031MA1999999101641MD1210051+9999MW1021REMSYN004BUFR
0202010280999992016010409004+74517+019005FM-12+001699999V0201691N0032100600199040000199+00041-00061101871ADDAY121031AY221031GA1081+006001061GA2999+999999101GA3999+999999101GE19MSL   +99999+99999GF108991081999006001999999KA1010M+00041KA2010N+00041MA1999999101671MD1210071+9999MW1021UA19999999039REMSYN004BUFR
0211010280999992016010410004+74517+019005FM-12+001699999V0201771N0043100600199040000199+00051-00051101871ADDAY121999AY221999GA1071+006001081GA2999+999999101GA3999+999999101GE19MSL   +99999+99999GF107991071999006001999999KA1010M+00061KA2010N+00041MA1999999101671MD1210051+9999MW1011OC100511OD130100521999REMSYN004BUFR
0187010280999992016010411004+74517+019000FM-12+001899999V0201601N005019999999N040000199+00071-00081101871ADDAY121021AY221021GA1071+008001061GE19MSL   +99999+99999GF107991071999008001999999MA1999999101671MD1210031+9999MW1021REMSYN06001028 41582 71605 10007 21008 30167 40187 52003 70222 875//=
0283010280999992016010412004+74517+019000FM-12+001899999V0201801N004019999999N030000199+00061-00081101871ADDAA106000091AY121021AY221021GA1071+008001061GE19MSL   +99999+99999GF107991071999008001999999MA1999999101671MD1410009+9999MW1021OD139900501999SA1+0321REMSYN08801028 11580 71804 10006 21008 30167 40187 54001 69901 70222 875// 222// 00032 333 91105=EQDQ01.1    3APC3  Q02  00002PRCP06
0222010280999992016010413004+74517+019000FM-12+001899999V0201701N004019999999N030000199+00091-00151101881ADDAY121021AY221021GA1051+008001061GA2999+999999031GE19MSL   +99999+99999GF106991051999008001999999MA1999999101681MD1290019+9999MW1011REMSYN06001028 41580 61704 10009 21015 30168 40188 54001 70122 85530=EQDQ01.1    3APC3  
0230010280999992016010414004+74517+019005FM-12+001699999V0201731N0050100600199030000199+00041-00171101881ADDAY121999AY221999GA1071+006001061GA2999+999999101GA3999+999999101GE19MSL   +99999+99999GF107991071999006001999999KA1010M+00081KA2010N+00031MA1999999101681MD1290019+9999MW1031OC100561OD130100561999REMSYN004BUFREQDQ01.1    3APC3  
0187010280999992016010415004+74517+019000FM-12+001899999V0201701N005019999999N030000199+00031-00151101911ADDAY121021AY221021GA1071+008001061GE19MSL   +99999+99999GF107991071999008001999999MA1999999101711MD1310041+9999MW1021REMSYN06001028 41580 71705 10003 21015 30171 40191 53004 70222 875//=
0203010280999992016010416004+74517+019005FM-12+001699999V0201701N0039100600199030000199+00001-00161101921ADDAY121999AY221999GA1071+006001061GA2999+999999101GA3999+999999101GE19MSL   +99999+99999GF107991071999006001999999KA1010M+00031KA2010N+00001MA1999999101721MD1310041+9999MW1021OD130100521999REMSYN004BUFR
0187010280999992016010417004+74517+019000FM-12+001899999V0201701N004019999999N030000199-00031-00191101941ADDAY121021AY221021GA1071+008001061GE19MSL   +99999+99999GF107991071999008001999999MA1999999101741MD1210061+9999MW1021REMSYN06001028 41580 71704 11003 21019 30174 40194 52006 70222 875//=
0247010280999992016010418004+74517+019000FM-12+001899999V0201701N004019999999N070001199-00031-00231101991ADDAA112000091AY121021AY201021GA1021+012501061GE19MSL   +99999+99999GF102991021999012501999999KA1120M+00091MA1999999101791MD1310081+9999MW1011OD139900601999REMSYN08201028 11689 21704 11003 21023 30179 40199 53008 60002 70120 82500 333 10009 91106=
0157010280999992016010419004+74517+019005FM-12+001699999V0201581N0043199999999070000199-00041-00241102041ADDAY101999AY201999GA1031+010001061GE19MSL   +99999+99999GF103991031999010001999999KA1010M-00021KA2010N-00041MA1999999101841MD1310111+9999MW1031REMSYN004BUFR
0187010280999992016010420004+74517+019000FM-12+001899999V0201501N004019999999N065000199-00031-00241102041ADDAY101021AY201021GA1041+012501061GE19MSL   +99999+99999GF104991041999012501999999MA1999999101841MD1110101+9999MW1031REMSYN06001028 41687 41504 11003 21024 30184 40204 51010 70300 84500=
0187010280999992016010421004+74517+019000FM-12+001899999V0201701N003019999999N055000199+00021-00251102061ADDAY121021AY201021GA1071+012501061GE19MSL   +99999+99999GF107991071999012501999999MA1999999101861MD1210071+9999MW1031REMSYN06001028 41685 71703 10002 21025 30186 40206 52007 70320 875//=
0187010280999992016010422004+74517+019000FM-12+001899999V0201701N002019999999N050000199+00041-00281102071ADDAY121021AY221021GA1071+012501061GE19MSL   +99999+99999GF107991071999012501999999MA1999999101871MD1210031+9999MW1021REMSYN06001028 41684 71702 10004 21028 30187 40207 52003 70222 875//=
0157010280999992016010423004+74517+019005FM-12+001699999V0201751N0024101000199055000199+00051-00281102061ADDAY121999AY221999GA1061+010001061GE19MSL   +99999+99999GF106991061999010001999999KA1010M+00061KA2010N+00041MA1999999101861MD1010021+9999MW1011REMSYN004BUFR
0247010280999992016010500004+74517+019000FM-12+001899999V0201901N001019999999N055000199+00061-00281102071ADDAA106000091AY121021AY221021GA1071+012501061GE19MSL   +99999+99999GF107991071999012501999999MA1999999101871MD1290019+9999MW1031OD139900501999REMSYN07601028 11685 71901 10006 21028 30187 40207 54001 60001 70322 875// 333 91105=EQDQ01.1    3APC3  
0187010280999992016010501004+74517+019000FM-12+001899999V0209999C999999999999N055000199+00031-00261102071ADDAY121021AY221021GA1061+012501061GE19MSL   +99999+99999GF106991061999012501999999MA1999999101871MD1410001+9999MW1011REMSYN06001028 41685 60000 10003 21026 30187 40207 54000 70122 86500=
0157010280999992016010502004+74517+019005FM-12+001699999V0201081N0029101000199055000199+00001-00231102061ADDAY121999AY221999GA1051+010001061GE19MSL   +99999+99999GF105991051999010001999999KA1010M+00031KA2010N-00011MA1999999101861MD1010001+9999MW1011REMSYN004BUFR
0187010280999992016010503004+74517+019000FM-12+001899999V0201001N004019999999N055000199-00021-00141102051ADDAY121021AY221021GA1081+012501061GE19MSL   +99999+99999GF108991081999012501999999MA1999999101851MD1810021+9999MW1031REMSYN06001028 41685 81004 11002 21014 30185 40205 58002 70322 885//=
0189010280999992016010504004+74517+019005FM-12+001699999V0200951N0020101000199055000199-00021-00181102061ADDAY121999AY221999GA1071+010001061GA2999+999999101GA3999+999999101GE19MSL   +99999+99999GF107991071999010001999999KA1010M-00021KA2010N-00021MA1999999101861MD1710011+9999MW1011REMSYN004BUFR
0189010280999992016010505004+74517+019005FM-12+001699999V0200921N0033101000199055000199+00001-00151102071ADDAY121999AY221999GA1071+010001061GA2999+999999101GA3999+999999101GE19MSL   +99999+99999GF107991071999010001999999KA1010M+00001KA2010N-00031MA1999999101871MD1210011+9999MW1011REMSYN004BUFR
0230010280999992016010506004+74517+019005FM-12+001699999V0200891N0028101000199055000199+00001-00131102071ADDAA112999999AA224999999AY121061AY221061GA1071+010001061GA2999+999999101GA3999+999999101GE19MSL   +99999+99999GF107991071999010001999999IA1189KA1120M+00061KA2120N-00041MA1999999101871MD1010021+9999MW1021UA19999999039REMSYN004BUFR
0189010280999992016010507004+74517+019005FM-12+001699999V0200921N0036101000199030000199+00001-00101102091ADDAY121999AY221999GA1071+010001061GA2999+999999101GA3999+999999101GE19MSL   +99999+99999GF108991071999010001999999KA1010M+00031KA2010N+00001MA1999999101891MD1210041+9999MW1031REMSYN004BUFR
0187010280999992016010508004+74517+019000FM-12+001899999V0200701N003019999999N030000199+00021-00111102101ADDAY121021AY221021GA1061+012501061GE19MSL   +99999+99999GF106991061999012501999999MA1999999101901MD1210021+9999MW1011REMSYN06001028 41680 60703 10002 21011 30190 40210 52002 70122 86500=
0187010280999992016010509004+74517+019000FM-12+001899999V0200501N003019999999N030000199+00021-00051102111ADDAY121021AY221021GA1071+012501061GE19MSL   +99999+99999GF107991071999012501999999MA1999999101911MD1210041+9999MW1031REMSYN06001028 41680 70503 10002 21005 30191 40211 52004 70322 875//=
0187010280999992016010510004+74517+019000FM-12+001899999V0200601N003019999999N055000199+00021-00041102081ADDAY121021AY221021GA1071+012501061GE19MSL   +99999+99999GF107991071999012501999999MA1999999101881MD1710011+9999MW1021REMSYN06001028 41685 70603 10002 21004 30188 40208 57001 70222 875//=
0187010280999992016010511004+74517+019000FM-12+001899999V0200701N004019999999N030000199+00011-00051102071ADDAY121021AY221021GA1071+012501061GE19MSL   +99999+99999GF108991071999012501999999MA1999999101871MD1710031+9999MW1031REMSYN06001028 41680 80704 10001 21005 30187 40207 57003 70322 875//=
0248010280999992016010512004+74517+019000FM-12+001899999V0200601N003019999999N050000199+00011-00051102051ADDAA106000091AY121021AY221021GA1071+012501061GE19MSL   +99999+99999GF107991071999012501999999MA1999999101851MD1710061+9999MW1011OD139900501999SA1+0311REMSYN08801028 11684 70603 10001 21005 30185 40205 57006 60001 70122 875// 222// 00031 333 91105=
0211010280999992016010513004+74517+019005FM-12+001699999V0200761N0043100600199030000199+00001-00051102021ADDAY121999AY221999GA1081+006001061GA2999+999999101GA3999+999999101GE19MSL   +99999+99999GF108991081999006001999999KA1010M+00011KA2010N+00001MA1999999101821MD1710061+9999MW1031OC100521OD130100541999REMSYN004BUFR
0189010280999992016010514004+74517+019005FM-12+001699999V0200611N0035100600199030000199+00001-00041102001ADDAY121999AY221999GA1081+006001061GA2999+999999101GA3999+999999101GE19MSL   +99999+99999GF108991081999006001999999KA1010M+00011KA2010N+00001MA1999999101801MD1710071+9999MW1021REMSYN004BUFR
0202010280999992016010515004+74517+019005FM-12+001699999V0201001N0039100600199040000199+00001-00061101991ADDAY121031AY221031GA1081+006001061GA2999+999999101GA3999+999999101GE19MSL   +99999+99999GF108991081999006001999999KA1010M+00011KA2010N-00011MA1999999101791MD1710061+9999MW1021UA19999999039REMSYN004BUFR
0187010280999992016010516004+74517+019000FM-12+001899999V0201001N004019999999N050000199+00001-00061101981ADDAY121021AY221021GA1081+012501061GE19MSL   +99999+99999GF108991081999012501999999MA1999999101781MD1710041+9999MW1021REMSYN06001028 41684 81004 10000 21006 30178 40198 57004 70222 885//=
0203010280999992016010517004+74517+019005FM-12+001699999V0201071N0043101000199050000199+00001-00081101951ADDAY121999AY221999GA1081+010001061GA2999+999999101GA3999+999999101GE19MSL   +99999+99999GF108991081999010001999999KA1010M+00011KA2010N+00001MA1999999101751MD1710041+9999MW1021OD130100661999REMSYN004BUFR
0227010280999992016010518004+74517+019005FM-12+001699999V0200891N0035101000199030000199+00001-00081101951ADDAA112999999AY121061AY221061GA1081+010001061GA2999+999999101GA3999+999999101GE19MSL   +99999+99999GF108991081999010001999999KA1120M+00031KA2120N-00011MA1999999101751MD1710041+9999MW1021OD130600661999UA19999999039REMSYN004BUFR
0187010280999992016010519004+74517+019000FM-12+001899999V0200901N003019999999N020000199-00011-00081101931ADDAY181021AY221021GA1081+004501081GE19MSL   +99999+99999GF108991081999004501999999MA1999999101731MD1710051+9999MW1851REMSYN06001028 41470 80903 11001 21008 30173 40193 57005 78582 888//=
0187010280999992016010520004+74517+019000FM-12+001899999V0201201N003019999999N020000199-00041-00131101921ADDAY181021AY221021GA1081+004501081GE19MSL   +99999+99999GF108991081999004501999999MA1999999101721MD1810031+9999MW1851REMSYN06001028 41470 81203 11004 21013 30172 40192 58003 78582 888//=
0187010280999992016010521004+74517+019000FM-12+001899999V0201201N003019999999N020000199-00071-00141101911ADDAY181021AY221021GA1081+004501081GE19MSL   +99999+99999GF108991081999004501999999MA1999999101711MD1710041+9999MW1851REMSYN06001028 41470 81203 11007 21014 30171 40191 57004 78582 888//=
0187010280999992016010522004+74517+019000FM-12+001899999V0201101N002019999999N025000199-00101-00201101891ADDAY181021AY221021GA1081+008001081GE19MSL   +99999+99999GF108991081999008001999999MA1999999101691MD1710031+9999MW1851REMSYN06001028 41575 81102 11010 21020 30169 40189 57003 78582 888//=
0189010280999992016010523004+74517+019005FM-12+001699999V0200811N0023100600199025000199-00121-00241101881ADDAY181999AY221999GA1081+006001081GA2999+999999101GA3999+999999101GE19MSL   +99999+99999GF108991081999006001999999KA1010M-00101KA2010N-00121MA1999999101681MD1710051+9999MW1851REMSYN004BUFR
0227010280999992016010600004+74517+019005FM-12+001699999V0200881N0018101000199030000199-00121-00241101831ADDAA106000631AY181061AY221061GA1081+010001061GA2999+999999101GA3999+999999101GE19MSL   +99999+99999GF108991081999010001999999KA1010M-00121KA2010N-00131MA1999999101631MD1810081+9999MW1261OD130600631999UA19999999039REMSYN004BUFR
0189010280999992016010601004+74517+019005FM-12+001699999V0200481N0028101000199030000199-00051-00161101821ADDAY121999AY221999GA1081+010001061GA2999+999999101GA3999+999999101GE19MSL   +99999+99999GF108991081999010001999999KA1010M-00061KA2010N-00131MA1999999101621MD1810071+9999MW1021REMSYN004BUFR
0187010280999992016010602004+74517+019000FM-12+001899999V0201101N004019999999N030000199-00111-00301101811ADDAY121021AY221021GA1081+012501061GE19MSL   +99999+99999GF108991081999012501999999MA1999999101611MD1610071+9999MW1021REMSYN06001028 41680 81104 11011 21030 30161 40181 56007 70222 885//=
0202010280999992016010603004+74517+019005FM-12+001699999V0201141N0024101000199030000199-00141-00331101781ADDAY121031AY221031GA1081+010001061GA2999+999999101GA3999+999999101GE19MSL   +99999+99999GF108991081999010001999999KA1010M-00111KA2010N-00141MA1999999101581MD1810051+9999MW1021UA19999999039REMSYN004BUFR
0187010280999992016010604004+74517+019000FM-12+001899999V0201001N003019999999N030000199-00111-00361101751ADDAY121021AY221021GA1081+012501061GE19MSL   +99999+99999GF108991081999012501999999MA1999999101551MD1710071+9999MW1021REMSYN06001028 41680 81003 11011 21036 30155 40175 57007 70222 885//=
0187010280999992016010605004+74517+019000FM-12+001899999V0200901N002019999999N030000199-00141-00361101751ADDAY121021AY221021GA1081+012501061GE19MSL   +99999+99999GF108991081999012501999999MA1999999101551MD1710061+9999MW1021REMSYN06001028 41680 80902 11014 21036 30155 40175 57006 70222 885//=
0230010280999992016010606004+74517+019005FM-12+001699999V0200621N0034101000199030000199-00121-00371101741ADDAA112000631AA224000631AY121061AY221061GA1081+010001061GA2999+999999101GA3999+999999101GE19MSL   +99999+99999GF108991081999010001999999IA1189KA1120M+00001KA2120N-00141MA1999999101541MD1710041+9999MW1021UA19999999039REMSYN004BUFR
0203010280999992016010607004+74517+019005FM-12+001699999V0200831N0032101000199030000199-00121-00391101721ADDAY121999AY221999GA1081+010001061GA2999+999999101GA3999+999999101GE19MSL   +99999+99999GF108991081999010001999999KA1010M-00101KA2010N-00121MA1999999101521MD1710031+9999MW1021OD130100501999REMSYN004BUFR
0189010280999992016010608004+74517+019005FM-12+001699999V0200811N0038101000199030000199-00121-00391101751ADDAY121999AY221999GA1081+010001061GA2999+999999101GA3999+999999101GE19MSL   +99999+99999GF108991081999010001999999KA1010M-00121KA2010N-00141MA1999999101551MD1510011+9999MW1021REMSYN004BUFR
0187010280999992016010609004+74517+019000FM-12+001899999V0200801N004019999999N030000199-00131-00361101751ADDAY121021AY221021GA1081+012501061GE19MSL   +99999+99999GF108991081999012501999999MA1999999101551MD1510011+9999MW1021REMSYN06001028 41680 80804 11013 21036 30155 40175 55001 70222 885//=
0187010280999992016010610004+74517+019000FM-12+001899999V0201101N004019999999N030000199-00121-00311101731ADDAY121021AY221021GA1071+012501061GE19MSL   +99999+99999GF107991071999012501999999MA1999999101531MD1990011+9999MW1021REMSYN06001028 41680 71104 11012 21031 30153 40173 50001 70222 875//=
0203010280999992016010611004+74517+019000FM-12+001899999V0201101N006019999999N030000199-00151-00271101711ADDAY121021AY221021GA1051+012501061GA2999+999999031GE19MSL   +99999+99999GF107991051999012501999999MA1999999101511MD1710041+9999MW1021REMSYN06001028 41680 71106 11015 21027 30151 40171 57004 70222 8553/=
0264010280999992016010612004+74517+019000FM-12+001899999V0201401N003019999999N030000199-00161-00251101711ADDAA106000091AY121021AY221021GA1061+004501081GA2999+999999031GE19MSL   +99999+99999GF107991061999004501999999MA1999999101511MD1510031+9999MW1021OD139900701999SA1+0311REMSYN08801028 11480 71403 11016 21025 30151 40171 55003 60001 70222 8683/ 222// 00031 333 91107=
0211010280999992016010613004+74517+019005FM-12+001699999V0201641N0059100300199030000199-00151-00301101711ADDAY121999AY221999GA1051+003001081GA2999+999999031GA3999+999999101GE19MSL   +99999+99999GF107991051999003001999999KA1010M-00121KA2010N-00171MA1999999101511MD1510031+9999MW1021OC100801OD130100941999REMSYN004BUFR
0203010280999992016010614004+74517+019000FM-12+001899999V0201701N008019999999N030000199-00141-00311101721ADDAY121021AY221021GA1061+004501081GA2999+999999031GE19MSL   +99999+99999GF107991061999004501999999MA1999999101521MD1210011+9999MW1021REMSYN06001028 41480 71708 11014 21031 30152 40172 52001 70222 8687/=
0224010280999992016010615004+74517+019005FM-12+001699999V0201751N0077100300199030000199-00151-00421101731ADDAY121031AY221031GA1071+003001081GA2999+999999101GA3999+999999101GE19MSL   +99999+99999GF107991071999003001999999KA1010M-00141KA2010N-00151MA1999999101531MD1210021+9999MW1021OC101001OD130101081999UA19999999039REMSYN004BUFR
0211010280999992016010616004+74517+019005FM-12+001699999V0201771N0083101000199030000199-00151-00431101721ADDAY121999AY221999GA1071+010001081GA2999+999999101GA3999+999999101GE19MSL   +99999+99999GF107991071999010001999999KA1010M-00151KA2010N-00161MA1999999101521MD1210021+9999MW1021OC101011OD130101101999REMSYN004BUFR
0211010280999992016010617004+74517+019005FM-12+001699999V0201761N0084101000199030000199-00171-00441101741ADDAY121999AY221999GA1071+010001081GA2999+999999101GA3999+999999101GE19MSL   +99999+99999GF107991071999010001999999KA1010M-00161KA2010N-00171MA1999999101541MD1210011+9999MW1021OC101071OD130101071999REMSYN004BUFR
0235010280999992016010618004+74517+019005FM-12+001699999V0201811N0082101000199030000199-00191-00451101761ADDAA112999999AY121061AY221061GA1071+010001081GA2999+999999101GA3999+999999101GE19MSL   +99999+99999GF108991071999010001999999KA1120M-00101KA2120N-00191MA1999999101561MD1310031+9999MW1031OC101041OD130601101999UA19999999039REMSYN004BUFR
0211010280999992016010619004+74517+019005FM-12+001699999V0201821N0072101000199030000199-00191-00491101761ADDAY121999AY221999GA1071+010001081GA2999+999999101GA3999+999999101GE19MSL   +99999+99999GF108991071999010001999999KA1010M-00191KA2010N-00191MA1999999101561MD1210031+9999MW1021OC100921OD130100991999REMSYN004BUFR
0211010280999992016010620004+74517+019005FM-12+001699999V0201861N0054100600199030000199-00191-00441101781ADDAY121999AY221999GA1051+006001081GA2999+999999031GA3999+999999101GE19MSL   +99999+99999GF108991051999006001999999KA1010M-00191KA2010N-00191MA1999999101581MD1210041+9999MW1021OC100691OD130100931999REMSYN004BUFR
0224010280999992016010621004+74517+019005FM-12+001699999V0201811N0062100600199030000199-00171-00501101791ADDAY121031AY221031GA1051+006001081GA2999+999999031GA3999+999999101GE19MSL   +99999+99999GF108991051999006001999999KA1010M-00181KA2010N-00191MA1999999101591MD1310031+9999MW1021OC100781OD130100821999UA19999999039REMSYN004BUFR
0187010280999992016010622004+74517+019000FM-12+001899999V0201701N004019999999N030000199-00191-00541101801ADDAY121021AY221021GA1071+008001081GE19MSL   +99999+99999GF108991071999008001999999MA1999999101601MD1210051+9999MW1021REMSYN06001028 41580 81704 11019 21054 30160 40180 52005 70222 878//=
0211010280999992016010623004+74517+019005FM-12+001699999V0201651N0052100600199030000199-00201-00471101811ADDAY121999AY221999GA1061+006001061GA2999+999999031GA3999+999999101GE19MSL   +99999+99999GF108991061999006001999999KA1010M-00181KA2010N-00211MA1999999101611MD1210031+9999MW1021OC100641OD130100661999REMSYN004BUFR
0228010280999992016010700004+74517+019000FM-12+001899999V0201401N004019999999N005000199-00251-00381101841ADDAA106000021AY181021AY221021GA1081+008001081GE19MSL   +99999+99999GF108991081999008001999999MA1999999101641MD1210041+9999MW1851OD139901001999REMSYN07601028 11550 81404 11025 21038 30164 40184 52004 69901 78582 888// 333 91110=
0211010280999992016010701004+74517+019005FM-12+001699999V0201511N0039100600199010000199-00251-00391101841ADDAY181999AY221999GA1081+006001081GA2999+999999101GA3999+999999101GE19MSL   +99999+99999GF108991081999006001999999KA1010M-00251KA2010N-00261MA1999999101641MD1210031+9999MW1021OC100501OD130100561999REMSYN004BUFR
0203010280999992016010702004+74517+019005FM-12+001699999V0201511N0038100600199020000199-00251-00431101811ADDAY121999AY221999GA1081+006001081GA2999+999999101GA3999+999999101GE19MSL   +99999+99999GF108991081999006001999999KA1010M-00261KA2010N-00261MA1999999101611MD1010001+9999MW1021OD130100511999REMSYN004BUFR
0224010280999992016010703004+74517+019005FM-12+001699999V0201691N0056100600199020000199-00221-00361101791ADDAY181031AY221031GA1071+006001061GA2999+999999101GA3999+999999101GE19MSL   +99999+99999GF107991071999006001999999KA1010M-00231KA2010N-00271MA1999999101591MD1710051+9999MW1021OC100761OD130100761999UA19999999039REMSYN004BUFR
0187010280999992016010704004+74517+019000FM-12+001899999V0201801N008019999999N005000199-00251-00361101781ADDAY181021AY221021GA1081+008001081GE19MSL   +99999+99999GF108991081999008001999999MA1999999101581MD1710061+9999MW1851REMSYN06001028 41550 81808 11025 21036 30158 40178 57006 78582 888//=
0211010280999992016010705004+74517+019005FM-12+001699999V0201751N0093100600199005000199-00271-00381101761ADDAY181999AY221999GA1081+006001081GA2999+999999101GA3999+999999101GE19MSL   +99999+99999GF108991081999006001999999KA1010M-00251KA2010N-00281MA1999999101561MD1710051+9999MW1851OC101151OD130101191999REMSYN004BUFR
0252010280999992016010706004+74517+019005FM-12+001699999V0201751N0086100600199005000199-00271-00461101761ADDAA112000131AA224000131AY181061AY221061GA1081+006001081GA2999+999999101GA3999+999999101GE19MSL   +99999+99999GF108991081999006001999999IA1229KA1120M-00181KA2120N-00281MA1999999101561MD1710031+9999MW1851OC101051OD130601201999UA19999999049REMSYN004BUFR
0187010280999992016010707004+74517+019000FM-12+001899999V0201701N009019999999N020000199-00261-00531101791ADDAY121021AY221021GA1081+004501081GE19MSL   +99999+99999GF108991081999004501999999MA1999999101591MD1310011+9999MW1021REMSYN06001028 41470 81709 11026 21053 30159 40179 53001 70222 888//=
0187010280999992016010708004+74517+019000FM-12+001899999V0201801N009019999999N006000199-00291-00501101801ADDAY181021AY221021GA1081+004501081GE19MSL   +99999+99999GF108991081999004501999999MA1999999101601MD1210041+9999MW1851REMSYN06001028 41456 81809 11029 21050 30160 40180 52004 78582 888//=
0203010280999992016010709004+74517+019000FM-12+001899999V0201601N009019999999N010000199-00301-00531101791ADDAY181021AY221021GA1061+004501081GA2999+999999041GE19MSL   +99999+99999GF107991061999004501999999MA1999999101591MD1210031+9999MW1261REMSYN06001028 41460 71609 11030 21053 30159 40179 52003 72682 8681/=
0206010280999992016010710004+74517+019000FM-12+001899999V0201801N008019999999N030000199-00281-00571101791ADDAY121021AY221021GA1071+004501081GE19MSL   +99999+99999GF107991071999004501999999MA1999999101591MD1410009+9999MW1021REMSYN06001028 41480 71808 11028 21057 30159 40179 54001 70222 878//=EQDQ01.1    3APC3  
0187010280999992016010711004+74517+019000FM-12+001899999V0201801N006019999999N030000199-00251-00631101781ADDAY181021AY221021GA1071+004501081GE19MSL   +99999+99999GF107991071999004501999999MA1999999101581MD1710021+9999MW1261REMSYN06001028 41480 71806 11025 21063 30158 40178 57002 72682 878//=
0248010280999992016010712004+74517+019000FM-12+001899999V0202001N006019999999N030000199-00251-00571101741ADDAA106000021AY181021AY221021GA1071+004501081GE19MSL   +99999+99999GF108991071999004501999999MA1999999101541MD1810051+9999MW1031OD139901301999SA1+0311REMSYN08801028 11480 82006 11025 21057 30154 40174 58005 69901 70382 878// 222// 00031 333 91113=
0211010280999992016010713004+74517+019005FM-12+001699999V0201741N0062100300199030000199-00251-00651101731ADDAY121999AY221999GA1071+003001081GA2999+999999101GA3999+999999101GE19MSL   +99999+99999GF108991071999003001999999KA1010M-00251KA2010N-00261MA1999999101531MD1710071+9999MW1021OC100751OD130100761999REMSYN004BUFR
0187010280999992016010714004+74517+019000FM-12+001899999V0201601N006019999999N030000199-00261-00671101701ADDAY121021AY221021GA1061+004501081GE19MSL   +99999+99999GF107991061999004501999999MA1999999101501MD1710081+9999MW1011REMSYN06001028 41480 71606 11026 21067 30150 40170 57008 70122 868//=
0224010280999992016010715004+74517+019005FM-12+001699999V0201571N0047100300199030000199-00291-00701101691ADDAY121031AY221031GA1061+003001081GA2999+999999101GA3999+999999101GE19MSL   +99999+99999GF107991061999003001999999KA1010M-00261KA2010N-00291MA1999999101491MD1710051+9999MW1021OC100561OD130100681999UA19999999039REMSYN004BUFR
0187010280999992016010716004+74517+019000FM-12+001899999V0201501N005019999999N030000199-00311-00711101641ADDAY121021AY221021GA1061+012501061GE19MSL   +99999+99999GF107991061999012501999999MA1999999101441MD1810091+9999MW1021REMSYN06001028 41680 71505 11031 21071 30144 40164 58009 70222 865//=
0187010280999992016010717004+74517+019000FM-12+001899999V0201601N005019999999N030000199-00331-00741101601ADDAY121021AY221021GA1071+012501061GE19MSL   +99999+99999GF108991071999012501999999MA1999999101401MD1810101+9999MW1031REMSYN06001028 41680 81605 11033 21074 30140 40160 58010 70322 875//=
0149010280999992016010718004+74517+019000FM-12+001899999V0201501N004019999999N999999999-00371-00791101581ADDAA199999919KA1120M-00241MA1999999101381MD1710121+9999OD139900801999REMSYN07001028 16/// /1504 11037 21079 30138 40158 57012 6//// 333 11024 91108=
0093010280999992016010719004+74517+019005FM-12+001699999V0201391N0054199999999999999999-00421-00801101551ADDKA1010M-00371KA2010N-00431MA1999999101341MD1710101+9999OC100601OD130100601999REMSYN004BUFR
0179010280999992016010720004+74517+019005FM-12+001699999V0201401N0058199999999055000199-00421-00811101491ADDAY101999AY201999GA1041+010001061GE19MSL   +99999+99999GF104991041999010001999999KA1010M-00421KA2010N-00441MA1999999101291MD1710111+9999MW1021OC100651OD130100681999REMSYN004BUFR
0192010280999992016010721004+74517+019005FM-12+001699999V0201411N0053199999999055000199-00451-00851101491ADDAY101031AY201031GA1031+010001061GE19MSL   +99999+99999GF103991031999010001999999KA1010M-00421KA2010N-00451MA1999999101281MD1610101+9999MW1021OC100591OD130100621999UA19999999039REMSYN004BUFR
0179010280999992016010722004+74517+019005FM-12+001699999V0201291N0051199999999055000199-00441-00781101421ADDAY101999AY201999GA1031+010001061GE19MSL   +99999+99999GF103991031999010001999999KA1010M-00441KA2010N-00461MA1999999101221MD1810121+9999MW1021OC100561OD130100641999REMSYN004BUFR
0179010280999992016010723004+74517+019005FM-12+001699999V0201251N0049199999999055000199-00521-00831101411ADDAY101999AY201999GA1031+010001061GE19MSL   +99999+99999GF103991031999010001999999KA1010M-00441KA2010N-00531MA1999999101201MD1710101+9999MW1021OC100521OD130100551999REMSYN004BUFR
0208010280999992016010800004+74517+019005FM-12+001699999V0201171N0053199999999055000199-00521-00781101381ADDAY101061AY201061GA1021+010001061GA2999+999999031GE19MSL   +99999+99999GF103991021999010001999999KA1010M-00531KA2010N-00561MA1999999101171MD1710111+9999MW1021OC100591OD130600681999UA19999999049REMSYN004BUFR
0195010280999992016010801004+74517+019005FM-12+001699999V0201121N0049199999999055000199-00471-00731101351ADDAY101999AY201999GA1021+010001061GA2999+999999031GE19MSL   +99999+99999GF103991021999010001999999KA1010M-00481KA2010N-00521MA1999999101141MD1710081+9999MW1021OC100561OD130100631999REMSYN004BUFR
0179010280999992016010802004+74517+019005FM-12+001699999V0201121N0049199999999055000199-00491-00721101301ADDAY101999AY201999GA1031+010001081GE19MSL   +99999+99999GF103991031999010001999999KA1010M-00481KA2010N-00511MA1999999101101MD1710091+9999MW1021OC100541OD130100591999REMSYN004BUFR
0224010280999992016010803004+74517+019005FM-12+001699999V0201121N0062100100199020000199-00371-00521101261ADDAY121031AY201031GA1081+001001081GA2999+999999101GA3999+999999101GE19MSL   +99999+99999GF108991081999001001999999KA1010M-00371KA2010N-00491MA1999999101061MD1710101+9999MW1851OC100761OD130100811999UA19999999049REMSYN004BUFR
0211010280999992016010804004+74517+019005FM-12+001699999V0201501N0053101000199002500199-00301-00401101221ADDAY181999AY221999GA1081+010001081GA2999+999999101GA3999+999999101GE19MSL   +99999+99999GF108991081999010001999999KA1010M-00311KA2010N-00381MA1999999101021MD1710121+9999MW1851OC100691OD130100741999REMSYN004BUFR
0179010280999992016010805004+74517+019005FM-12+001699999V0201411N0074101000199020000199-00371-00741101221ADDAY181999AY221999GA1051+010001081GE19MSL   +99999+99999GF105991051999010001999999KA1010M-00291KA2010N-00381MA1999999101021MD1510091+9999MW1261OC100891OD130100941999REMSYN004BUFR
0093010280999992016010806004+74517+019005FM-12+001699999V0201441N0065199999999999999999-00451-00811101211ADDKA1120M-00291KA2120N-00561MA1999999101011MD1510061+9999OC100751OD130600941999REMSYN004BUFR
0187010280999992016010807004+74517+019000FM-12+001899999V0201301N007019999999N030000199-00351-00751101231ADDAY121021AY221021GA1051+017501081GE19MSL   +99999+99999GF105991051999017501999999MA1999999101031MD1510011+9999MW1021REMSYN06001028 41780 51307 11035 21075 30103 40123 55001 70222 85800=
0208010280999992016010808004+74517+019000FM-12+001899999V0201301N006019999999N030000199-00311-00751101241ADDAA106000021AY121021AY221021GA1051+017501081GE19MSL   +99999+99999GF105991051999017501999999MA1999999101041MD1310031+9999MW1021REMSYN07001028 21780 51306 11031 21075 30104 40124 53003 70222 85800 333 69901=
0192010280999992016010809004+74517+019005FM-12+001699999V0201331N0055101000199030000199-00351-00771101281ADDAY121031AY221031GA1061+010001081GE19MSL   +99999+99999GF106991061999010001999999KA1010M-00311KA2010N-00351MA1999999101081MD1210081+9999MW1031OC100651OD130100871999UA19999999049REMSYN004BUFR
0089010280999992016010810004+74517+019000FM-12+001899999V0201301N005019999999N999999999-00361-00811101281ADDMA1999999101081MD1110051+9999REMSYN04801028 46/// /1305 11036 21081 30108 40128 51005=
0089010280999992016010811004+74517+019000FM-12+001899999V0201301N005019999999N999999999-00431-00881101301ADDMA1999999101101MD1210051+9999REMSYN04801028 46/// /1305 11043 21088 30110 40130 52005=
0093010280999992016010812004+74517+019005FM-12+001699999V0201161N0050199999999999999999-00591-00971101291ADDKA1010M-00431KA2010N-00591MA1999999101081MD1410001+9999OC100571OD130600871999REMSYN004BUFR
0093010280999992016010813004+74517+019005FM-12+001699999V0201191N0047199999999999999999-00671-01011101331ADDKA1010M-00601KA2010N-00681MA1999999101121MD1310041+9999OC100511OD130100591999REMSYN004BUFR
0089010280999992016010814004+74517+019000FM-12+001899999V0201201N004019999999N999999999-00741-01091101321ADDMA1999999101111MD1210011+9999REMSYN04801028 46/// /1204 11074 21109 30111 40132 52001=
0093010280999992016010815004+74517+019005FM-12+001699999V0201141N0043199999999999999999-00721-01061101321ADDKA1010M-00701KA2010N-00741MA1999999101111MD1010031+9999OC100511OD130100561999REMSYN004BUFR
0089010280999992016010816004+74517+019000FM-12+001899999V0201101N005019999999N999999999-00731-01061101311ADDMA1999999101101MD1710021+9999REMSYN04801028 46/// /1105 11073 21106 30110 40131 57002=
0093010280999992016010817004+74517+019005FM-12+001699999V0200981N0053199999999999999999-00771-01121101321ADDKA1010M-00731KA2010N-00771MA1999999101111MD1410001+9999OC100581OD130100581999REMSYN004BUFR
0093010280999992016010818004+74517+019005FM-12+001699999V0200841N0061199999999999999999-00601-00921101341ADDKA1120M-00311KA2120N-00771MA1999999101131MD1310031+9999OC100691OD130600771999REMSYN004BUFR
0089010280999992016010819004+74517+019000FM-12+001899999V0200801N006019999999N999999999-00531-00941101381ADDMA1999999101171MD1310071+9999REMSYN04801028 46/// /0806 11053 21094 30117 40138 53007=
0089010280999992016010820004+74517+019000FM-12+001899999V0200701N006019999999N999999999-00441-00821101351ADDMA1999999101151MD1990041+9999REMSYN04801028 46/// /0706 11044 21082 30115 40135 50004=
0093010280999992016010821004+74517+019005FM-12+001699999V0200641N0065199999999999999999-00341-00621101371ADDKA1010M-00341KA2010N-00431MA1999999101171MD1010031+9999OC100781OD130100781999REMSYN004BUFR
0089010280999992016010822004+74517+019000FM-12+001899999V0200601N007019999999N999999999-00301-00521101361ADDMA1999999101161MD1710011+9999REMSYN04801028 46/// /0607 11030 21052 30116 40136 57001=
0089010280999992016010823004+74517+019000FM-12+001899999V0200601N007019999999N999999999-00311-00551101391ADDMA1999999101191MD1310041+9999REMSYN04801028 46/// /0607 11031 21055 30119 40139 53004=
0112010280999992016010900004+74517+019005FM-12+001699999V0200641N0072199999999999999999-00301-00551101381ADDKA1010M-00291KA2010N-00311MA1999999101181MD1290019+9999OC100851OD130600901999REMSYN004BUFREQDQ01.1    3APC3  
0089010280999992016010901004+74517+019000FM-12+001899999V0200601N006019999999N999999999-00261-00491101381ADDMA1999999101181MD1990021+9999REMSYN04801028 46/// /0606 11026 21049 30118 40138 50002=
0108010280999992016010902004+74517+019000FM-12+001899999V0200501N008019999999N999999999-00191-00451101381ADDMA1999999101181MD1790019+9999REMSYN04801028 46/// /0508 11019 21045 30118 40138 54001=EQDQ01.1    3APC3  
0089010280999992016010903004+74517+019000FM-12+001899999V0200501N009019999999N999999999-00181-00461101381ADDMA1999999101181MD1410001+9999REMSYN04801028 46/// /0509 11018 21046 30118 40138 54000=
0089010280999992016010904004+74517+019000FM-12+001899999V0200501N009019999999N999999999-00161-00421101361ADDMA1999999101161MD1710011+9999REMSYN04801028 46/// /0509 11016 21042 30116 40136 57001=
0093010280999992016010905004+74517+019005FM-12+001699999V0200471N0075199999999999999999-00151-00391101331ADDKA1010M-00151KA2010N-00181MA1999999101131MD1810051+9999OC101051OD130101131999REMSYN004BUFR
0093010280999992016010906004+74517+019005FM-12+001699999V0200461N0080199999999999999999-00121-00371101331ADDKA1120M-00131KA2120N-00591MA1999999101131MD1710041+9999OC101101OD130601171999REMSYN004BUFR
0089010280999992016010907004+74517+019000FM-12+001899999V0200501N010019999999N999999999-00131-00381101311ADDMA1999999101111MD1710061+9999REMSYN04801028 46/// /0510 11013 21038 30111 40131 57006=
0089010280999992016010908004+74517+019000FM-12+001899999V0200401N010019999999N999999999-00131-00401101341ADDMA1999999101141MD1510011+9999REMSYN04801028 46/// /0410 11013 21040 30114 40134 55001=
0089010280999992016010909004+74517+019000FM-12+001899999V0200401N010019999999N999999999-00131-00351101341ADDMA1999999101141MD1510011+9999REMSYN04801028 46/// /0410 11013 21035 30114 40134 55001=
0089010280999992016010910004+74517+019000FM-12+001899999V0200401N010019999999N999999999-00141-00351101381ADDMA1999999101181MD1310071+9999REMSYN04801028 46/// /0410 11014 21035 30118 40138 53007=
0089010280999992016010911004+74517+019000FM-12+001899999V0200401N010019999999N999999999-00141-00371101361ADDMA1999999101161MD1990021+9999REMSYN04801028 46/// /0410 11014 21037 30116 40136 50002=
0093010280999992016010912004+74517+019005FM-12+001699999V0200451N0097199999999999999999-00141-00361101371ADDKA1010M-00121KA2010N-00141MA1999999101171MD1010031+9999OC101211OD130601441999REMSYN004BUFR
0089010280999992016010913004+74517+019000FM-12+001899999V0200401N010019999999N999999999-00141-00351101371ADDMA1999999101171MD1510011+9999REMSYN04801028 46/// /0410 11014 21035 30117 40137 55001=
0108010280999992016010914004+74517+019000FM-12+001899999V0200401N009019999999N999999999-00121-00301101361ADDMA1999999101161MD1410009+9999REMSYN04801028 46/// /0409 11012 21030 30116 40136 54001=EQDQ01.1    3APC3  
0089010280999992016010915004+74517+019000FM-12+001899999V0200501N009019999999N999999999-00111-00301101351ADDMA1999999101151MD1810021+9999REMSYN04801028 46/// /0509 11011 21030 30115 40135 58002=
0093010280999992016010916004+74517+019005FM-12+001699999V0200591N0112199999999999999999-00141-00401101361ADDKA1010M-00111KA2010N-00141MA1999999101161MD1710011+9999OC101311OD130101371999REMSYN004BUFR
0089010280999992016010917004+74517+019000FM-12+001899999V0200501N010019999999N999999999-00141-00441101351ADDMA1999999101151MD1710011+9999REMSYN04801028 46/// /0510 11014 21044 30115 40135 57001=
0149010280999992016010918004+74517+019000FM-12+001899999V0200501N011019999999N999999999-00161-00461101371ADDAA199999919KA1120M-00111MA1999999101171MD1210021+9999OD139901401999REMSYN07001028 16/// /0511 11016 21046 30117 40137 52002 6//// 333 11011 91114=
0089010280999992016010919004+74517+019000FM-12+001899999V0200501N009019999999N999999999-00171-00451101411ADDMA1999999101211MD1310051+9999REMSYN04801028 46/// /0509 11017 21045 30121 40141 53005=
0093010280999992016010920004+74517+019005FM-12+001699999V0200471N0098199999999999999999-00151-00441101391ADDKA1010M-00161KA2010N-00171MA1999999101191MD1010041+9999OC101271OD130101271999REMSYN004BUFR
0093010280999992016010921004+74517+019005FM-12+001699999V0200471N0104199999999999999999-00151-00471101401ADDKA1010M-00161KA2010N-00171MA1999999101201MD1010031+9999OC101351OD130101361999REMSYN004BUFR
0089010280999992016010922004+74517+019000FM-12+001899999V0200401N011019999999N999999999-00171-00451101371ADDMA1999999101171MD1710031+9999REMSYN04801028 46/// /0411 11017 21045 30117 40137 57003=
0108010280999992016010923004+74517+019000FM-12+001899999V0200401N011019999999N999999999-00171-00521101381ADDMA1999999101181MD1790019+9999REMSYN04801028 46/// /0411 11017 21052 30118 40138 54001=EQDQ01.1    3APC3  
0130010280999992016011000004+74517+019000FM-12+001899999V0200401N011019999999N999999999-00171-00471101381ADDAA199999919MA1999999101181MD1710021+9999OD139901501999REMSYN06401028 16/// /0411 11017 21047 30118 40138 57002 6//// 333 91115=
0112010280999992016011001004+74517+019005FM-12+001699999V0200421N0102199999999999999999-00171-00441101381ADDKA1010M-00171KA2010N-00181MA1999999101181MD1290019+9999OC101381OD130101471999REMSYN004BUFREQDQ014     3APCTEN
0093010280999992016011002004+74517+019005FM-12+001699999V0200491N0109199999999999999999-00171-00461101361ADDKA1010M-00171KA2010N-00181MA1999999101161MD1710021+9999OC101411OD130101411999REMSYN004BUFR
0089010280999992016011003004+74517+019000FM-12+001899999V0200501N010019999999N999999999-00191-00461101351ADDMA1999999101151MD1710031+9999REMSYN04801028 46/// /0510 11019 21046 30115 40135 57003=
0093010280999992016011004004+74517+019005FM-12+001699999V0200471N0103199999999999999999-00201-00491101331ADDKA1010M-00191KA2010N-00201MA1999999101131MD1710051+9999OC101331OD130101451999REMSYN004BUFR
0093010280999992016011005004+74517+019005FM-12+001699999V0200451N0098199999999999999999-00201-00491101341ADDKA1010M-00191KA2010N-00211MA1999999101141MD1710031+9999OC101221OD130101331999REMSYN004BUFR
0093010280999992016011006004+74517+019005FM-12+001699999V0200431N0092199999999999999999-00201-00451101321ADDKA1120M-00161KA2120N-00211MA1999999101121MD1710031+9999OC101241OD130601471999REMSYN004BUFR
0093010280999992016011007004+74517+019005FM-12+001699999V0200461N0095199999999999999999-00201-00471101341ADDKA1010M-00201KA2010N-00211MA1999999101141MD1310011+9999OC101191OD130101251999REMSYN004BUFR
0089010280999992016011008004+74517+019000FM-12+001899999V0200401N009019999999N999999999-00201-00431101341ADDMA1999999101141MD1510011+9999REMSYN04801028 46/// /0409 11020 21043 30114 40134 55001=
0093010280999992016011009004+74517+019005FM-12+001699999V0200471N0092199999999999999999-00171-00371101351ADDKA1010M-00171KA2010N-00201MA1999999101151MD1210031+9999OC101231OD130101261999REMSYN004BUFR
0089010280999992016011010004+74517+019000FM-12+001899999V0200601N010019999999N999999999-00151-00311101341ADDMA1999999101141MD1410001+9999REMSYN04801028 46/// /0610 11015 21031 30114 40134 54000=
0093010280999992016011011004+74517+019005FM-12+001699999V0200521N0097199999999999999999-00151-00331101331ADDKA1010M-00141KA2010N-00151MA1999999101131MD1710011+9999OC101211OD130101211999REMSYN004BUFR
0112010280999992016011012004+74517+019005FM-12+001699999V0200561N0099199999999999999999-00171-00321101341ADDKA1010M-00151KA2010N-00171MA1999999101141MD1790019+9999OC101171OD130601301999REMSYN004BUFREQDQ01.1    3APC3  
0089010280999992016011013004+74517+019000FM-12+001899999V0200601N008019999999N999999999-00161-00291101361ADDMA1999999101161MD1210021+9999REMSYN04801028 46/// /0608 11016 21029 30116 40136 52002=
0093010280999992016011014004+74517+019005FM-12+001699999V0200581N0082199999999999999999-00151-00311101331ADDKA1010M-00151KA2010N-00161MA1999999101131MD1010001+9999OC100971OD130101071999REMSYN004BUFR
0093010280999992016011015004+74517+019005FM-12+001699999V0200551N0078199999999999999999-00121-00291101341ADDKA1010M-00131KA2010N-00151MA1999999101141MD1410001+9999OC101061OD130101061999REMSYN004BUFR
0093010280999992016011016004+74517+019005FM-12+001699999V0200601N0087199999999999999999-00151-00291101321ADDKA1010M-00131KA2010N-00151MA1999999101121MD1710031+9999OC101041OD130101041999REMSYN004BUFR
0093010280999992016011017004+74517+019005FM-12+001699999V0200661N0083199999999999999999-00151-00291101331ADDKA1010M-00151KA2010N-00161MA1999999101131MD1410001+9999OC101061OD130101151999REMSYN004BUFR
0149010280999992016011018004+74517+019000FM-12+001899999V0200701N008019999999N999999999-00171-00301101351ADDAA199999919KA1120M-00131MA1999999101151MD1510001+9999OD139901201999REMSYN07001028 16/// /0708 11017 21030 30115 40135 55000 6//// 333 11013 91112=
0089010280999992016011019004+74517+019000FM-12+001899999V0200901N008019999999N999999999-00171-00321101371ADDMA1999999101171MD1210051+9999REMSYN04801028 46/// /0908 11017 21032 30117 40137 52005=
0093010280999992016011020004+74517+019005FM-12+001699999V0200731N0079199999999999999999-00141-00291101421ADDKA1010M-00141KA2010N-00171MA1999999101221MD1310091+9999OC100961OD130101001999REMSYN004BUFR
0093010280999992016011021004+74517+019005FM-12+001699999V0200601N0072199999999999999999-00121-00271101441ADDKA1010M-00121KA2010N-00161MA1999999101241MD1210101+9999OC100891OD130100921999REMSYN004BUFR
0195010280999992016011022004+74517+019005FM-12+001699999V0200681N0082199999999040000199-00121-00301101471ADDAY121999AY201999GA1021+003001081GA2999+999999031GE19MSL   +99999+99999GF104991021999003001999999KA1010M-00131KA2010N-00141MA1999999101271MD1310111+9999MW1011OC101011OD130101031999REMSYN004BUFR
0179010280999992016011023004+74517+019005FM-12+001699999V0200791N0084199999999055000199-00151-00331101471ADDAY101999AY201999GA1021+003001081GE19MSL   +99999+99999GF102991021999003001999999KA1010M-00131KA2010N-00171MA1999999101271MD1210051+9999MW1011OC101201OD130101201999REMSYN004BUFR
0208010280999992016011100004+74517+019005FM-12+001699999V0200681N0095199999999055000199-00151-00311101491ADDAY121061AY201061GA1021+003001081GA2999+999999031GE19MSL   +99999+99999GF102991021999003001999999KA1010M-00151KA2010N-00171MA1999999101291MD1210051+9999MW1021OC101101OD130601301999UA19999999049REMSYN004BUFR
0195010280999992016011101004+74517+019005FM-12+001699999V0200741N0086199999999055000199-00141-00371101501ADDAY101999AY201999GA1011+003001081GA2999+999999031GE19MSL   +99999+99999GF102991011999003001999999KA1010M-00141KA2010N-00161MA1999999101301MD1210021+9999MW1021OC101081OD130101141999REMSYN004BUFR
0195010280999992016011102004+74517+019005FM-12+001699999V0200691N0097199999999055000199-00121-00321101521ADDAY101999AY201999GA1011+003001081GA2999+999999031GE19MSL   +99999+99999GF102991011999003001999999KA1010M-00121KA2010N-00141MA1999999101321MD1210051+9999MW1021OC101241OD130101241999REMSYN004BUFR
0208010280999992016011103004+74517+019005FM-12+001699999V0200631N0097199999999055000199-00121-00291101551ADDAY101031AY201031GA1021+003001081GA2999+999999031GE19MSL   +99999+99999GF103991021999003001999999KA1010M-00121KA2010N-00131MA1999999101351MD1310061+9999MW1031OC101171OD130101401999UA19999999049REMSYN004BUFR
0211010280999992016011104004+74517+019005FM-12+001699999V0200681N0096199999999002000199-00121-00221101581ADDAY181999AY201999GA1091+999999101GA2999+999999101GA3999+999999101GE19MSL   +99999+99999GF199999091999999999999999KA1010M-00111KA2010N-00131MA1999999101381MD1210081+9999MW1861OC101151OD130101291999REMSYN004BUFR
0179010280999992016011105004+74517+019005FM-12+001699999V0200831N0107199999999030000199-00101-00201101611ADDAY181999AY201999GA1041+003001081GE19MSL   +99999+99999GF104991041999003001999999KA1010M-00101KA2010N-00131MA1999999101411MD1210101+9999MW1261OC101511OD130101511999REMSYN004BUFR
0236010280999992016011106004+74517+019005FM-12+001699999V0200771N0084199999999030000199-00121-00221101671ADDAA112000231AA224000231AY181061AY201061GA1041+003001081GA2999+999999031GE19MSL   +99999+99999GF106991041999003001999999IA1229KA1120M-00101KA2120N-00171MA1999999101471MD1310121+9999MW1031OC101091OD130601511999UA19999999049REMSYN004BUFR
0195010280999992016011107004+74517+019005FM-12+001699999V0200811N0091199999999030000199-00121-00231101731ADDAY121999AY201999GA1021+003001081GA2999+999999031GE19MSL   +99999+99999GF104991021999003001999999KA1010M-00101KA2010N-00131MA1999999101531MD1310161+9999MW1011OC101151OD130101221999REMSYN004BUFR
0195010280999992016011108004+74517+019005FM-12+001699999V0200801N0089100200199005000199-00101-00231101801ADDAY181999AY221999GA1051+002001081GA2999+999999031GE19MSL   +99999+99999GF106991051999002001999999KA1010M-00111KA2010N-00151MA1999999101601MD1310181+9999MW1851OC101171OD130101171999REMSYN004BUFR
0208010280999992016011109004+74517+019005FM-12+001699999V0200881N0109100200199020000199-00151-00221101861ADDAY181031AY221031GA1051+002001081GA2999+999999031GE19MSL   +99999+99999GF106991051999002001999999KA1010M-00101KA2010N-00161MA1999999101661MD1210191+9999MW1261OC101341OD130101551999UA19999999049REMSYN004BUFR
0203010280999992016011110004+74517+019000FM-12+001899999V0200801N007019999999N010000199-00171-00231101911ADDAY181021AY221021GA1061+002501081GA2999+999999031GE19MSL   +99999+99999GF107991061999002501999999MA1999999101711MD1210181+9999MW1851REMSYN06001028 41360 70807 11017 21023 30171 40191 52018 78582 86830=
0195010280999992016011111004+74517+019005FM-12+001699999V0200681N0105199999999020000199-00151-00241101951ADDAY181999AY221999GA1041+002001081GA2999+999999031GE19MSL   +99999+99999GF105991041999002001999999KA1010M-00151KA2010N-00171MA1999999101751MD1110151+9999MW1261OC101281OD130101281999REMSYN004BUFR
0264010280999992016011112004+74517+019000FM-12+001899999V0200801N008019999999N020000199-00161-00231102011ADDAA106001031AY181021AY221021GA1051+002501081GA2999+999999031GE19MSL   +99999+99999GF106991051999002501999999MA1999999101811MD1310151+9999MW1261OD139901601999SA1+0181REMSYN08801028 11370 60808 11016 21023 30181 40201 53015 60011 72682 85870 222// 00018 333 91116=
0211010280999992016011113004+74517+019005FM-12+001699999V0200691N0099100200199010000199-00151-00261102051ADDAY121999AY221999GA1061+002001081GA2999+999999031GA3999+999999001GE19MSL   +99999+99999GF107991061999002001999999KA1010M-00131KA2010N-00161MA1999999101851MD1210141+9999MW1151OC101231OD130101291999REMSYN004BUFR
0211010280999992016011114004+74517+019005FM-12+001699999V0200731N0101100200199010000199-00151-00241102091ADDAY121999AY221999GA1071+002001081GA2999+999999101GA3999+999999101GE19MSL   +99999+99999GF107991071999002001999999KA1010M-00151KA2010N-00171MA1999999101891MD1310151+9999MW1151OC101251OD130101361999REMSYN004BUFR
0211010280999992016011115004+74517+019005FM-12+001699999V0200731N0077100100199006000199-00151-00241102141ADDAY181031AY221031GA1071+001001081GA2999+999999101GA3999+999999101GE19MSL   +99999+99999GF107991071999001001999999KA1010M-00151KA2010N-00171MA1999999101941MD1310131+9999MW1851OC100991OD130101341999REMSYN004BUFR
0093010280999992016011116004+74517+019005FM-12+001699999V0200851N0090199999999999999999-00191-00331102171ADDKA1010M-00161KA2010N-00191MA1999999101971MD1210121+9999OC101191OD130101241999REMSYN004BUFR
0093010280999992016011117004+74517+019005FM-12+001699999V0200641N0080199999999999999999-00121-00321102221ADDKA1010M-00131KA2010N-00191MA1999999102021MD1210121+9999OC100981OD130101041999REMSYN004BUFR
0093010280999992016011118004+74517+019005FM-12+001699999V0200651N0104199999999999999999-00151-00351102251ADDKA1120M-00101KA2120N-00191MA1999999102051MD1210111+9999OC101261OD130601361999REMSYN004BUFR
0089010280999992016011119004+74517+019000FM-12+001899999V0200701N011019999999N999999999-00171-00371102281ADDMA1999999102081MD1210111+9999REMSYN04801028 46/// /0711 11017 21037 30208 40228 52011=
0089010280999992016011120004+74517+019000FM-12+001899999V0200601N011019999999N999999999-00161-00411102331ADDMA1999999102131MD1310121+9999REMSYN04801028 46/// /0611 11016 21041 30213 40233 53012=
0089010280999992016011121004+74517+019000FM-12+001899999V0200601N012019999999N999999999-00161-00341102371ADDMA1999999102171MD1210121+9999REMSYN04801028 46/// /0612 11016 21034 30217 40237 52012=
0179010280999992016011122004+74517+019005FM-12+001699999V0200631N0140100200199020000199-00191-00321102401ADDAY131999AY221999GA1051+002001081GE19MSL   +99999+99999GF105991051999002001999999KA1010M-00161KA2010N-00191MA1999999102201MD1210121+9999MW1361OC101641OD130101641999REMSYN004BUFR
0179010280999992016011123004+74517+019005FM-12+001699999V0200651N0130100200199020000199-00171-00371102451ADDAY131999AY221999GA1051+002001081GE19MSL   +99999+99999GF105991051999002001999999KA1010M-00171KA2010N-00201MA1999999102251MD1310111+9999MW1361OC101561OD130101581999REMSYN004BUFR
0192010280999992016011200004+74517+019005FM-12+001699999V0200681N0141199999999030000199-00191-00441102491ADDAY131061AY221061GA1021+006001081GE19MSL   +99999+99999GF102991021999006001999999KA1010M-00151KA2010N-00201MA1999999102281MD1210111+9999MW1011OC101671OD130601691999UA19999999049REMSYN004BUFR
0179010280999992016011201004+74517+019005FM-12+001699999V0200661N0144199999999030000199-00221-00481102511ADDAY101999AY201999GA1021+006001081GE19MSL   +99999+99999GF102991021999006001999999KA1010M-00181KA2010N-00221MA1999999102301MD1210101+9999MW1021OC101781OD130101781999REMSYN004BUFR
0141010280999992016011202004+74517+019005FM-12+001699999V0200681N0143122000199040000199-00271-00541102571ADDAY101999AY201999GF100991999999999999999999KA1010M-00221KA2010N-00271MA1999999102361MD1310111+9999MW1011OC101721OD130101771999REMSYN004BUFR
0154010280999992016011203004+74517+019005FM-12+001699999V0200691N0129122000199040000199-00291-00631102611ADDAY101031AY201031GF100991999999999999999999KA1010M-00271KA2010N-00291MA1999999102401MD1310121+9999MW1021OC101551OD130101791999UA19999999049REMSYN004BUFR
0141010280999992016011204004+74517+019005FM-12+001699999V0200651N0132122000199030000199-00271-00661102631ADDAY101999AY201999GF100991999999999999999999KA1010M-00281KA2010N-00301MA1999999102421MD1110121+9999MW1021OC101591OD130101641999REMSYN004BUFR
0141010280999992016011205004+74517+019005FM-12+001699999V0200661N0133122000199030000199-00301-00711102641ADDAY101999AY201999GF100991999999999999999999KA1010M-00281KA2010N-00301MA1999999102431MD1210081+9999MW1021OC101651OD130101651999REMSYN004BUFR
0220010280999992016011206004+74517+019005FM-12+001699999V0200621N0134199999999030000199-00301-00631102721ADDAA112999999AA224001331AY131061AY201061GA1031+010001081GE19MSL   +99999+99999GF103991031999010001999999IA1229KA1120M-00151KA2120N-00311MA1999999102511MD1310121+9999MW1361OC101601OD130601791999UA19999999049REMSYN004BUFR
0179010280999992016011207004+74517+019005FM-12+001699999V0200571N0146101000199030000199-00341-00721102781ADDAY121999AY201999GA1051+010001061GE19MSL   +99999+99999GF105991051999010001999999KA1010M-00301KA2010N-00341MA1999999102571MD1310151+9999MW1031OC101701OD130101711999REMSYN004BUFR
0179010280999992016011208004+74517+019005FM-12+001699999V0200521N0122199999999030000199-00391-00841102821ADDAY121999AY201999GA1021+010001081GE19MSL   +99999+99999GF102991021999010001999999KA1010M-00341KA2010N-00391MA1999999102611MD1210181+9999MW1011OC101561OD130101731999REMSYN004BUFR
0192010280999992016011209004+74517+019005FM-12+001699999V0200511N0110100600199030000199-00401-00821102861ADDAY121031AY201031GA1061+006001081GE19MSL   +99999+99999GF106991061999006001999999KA1010M-00391KA2010N-00411MA1999999102651MD1210131+9999MW1031OC101591OD130101591999UA19999999049REMSYN004BUFR
0179010280999992016011210004+74517+019005FM-12+001699999V0200521N0110100600199030000199-00401-00841102871ADDAY121999AY201999GA1051+006001081GE19MSL   +99999+99999GF105991051999006001999999KA1010M-00401KA2010N-00431MA1999999102661MD1110101+9999MW1021OC101331OD130101471999REMSYN004BUFR
0187010280999992016011211004+74517+019000FM-12+001899999V0200501N011019999999N030000199-00421-00881102871ADDAY121021AY221021GA1061+008001061GE19MSL   +99999+99999GF106991061999008001999999MA1999999102661MD1210051+9999MW1021REMSYN06001028 41580 60511 11042 21088 30266 40287 52005 70222 86500=
0267010280999992016011212004+74517+019000FM-12+001899999V0200401N011019999999N030000199-00431-00911102851ADDAA106000091AY121021AY211021GA1061+008001061GE19MSL   +99999+99999GF106991061999008001999999MA1999999102641MD1790019+9999MW1021OD139901701999SA1+0121REMSYN08801028 11580 60411 11043 21091 30264 40285 54001 60001 70221 86500 222// 00012 333 91117=EQDQ01.1    3APC3  
0187010280999992016011213004+74517+019000FM-12+001899999V0200401N011019999999N030000199-00441-00931102851ADDAY121021AY221021GA1071+008001061GE19MSL   +99999+99999GF107991071999008001999999MA1999999102641MD1710021+9999MW1031REMSYN06001028 41580 70411 11044 21093 30264 40285 57002 70322 87500=
0179010280999992016011214004+74517+019005FM-12+001699999V0200431N0101100600199030000199-00451-00951102841ADDAY121999AY221999GA1061+006001061GE19MSL   +99999+99999GF106991061999006001999999KA1010M-00441KA2010N-00461MA1999999102631MD1710021+9999MW1011OC101351OD130101471999REMSYN004BUFR
0192010280999992016011215004+74517+019005FM-12+001699999V0200471N0106100600199030000199-00501-00961102831ADDAY121031AY221031GA1051+006001061GE19MSL   +99999+99999GF105991051999006001999999KA1010M-00461KA2010N-00501MA1999999102621MD1710021+9999MW1011OC101421OD130101481999UA19999999049REMSYN004BUFR
0179010280999992016011216004+74517+019005FM-12+001699999V0200391N0108100600199030000199-00501-00981102811ADDAY121999AY221999GA1061+006001061GE19MSL   +99999+99999GF106991061999006001999999KA1010M-00481KA2010N-00511MA1999999102601MD1710031+9999MW1031OC101511OD130101511999REMSYN004BUFR
0211010280999992016011217004+74517+019005FM-12+001699999V0200401N0103100600199030000199-00501-00931102781ADDAY121999AY221999GA1071+006001061GA2999+999999101GA3999+999999101GE19MSL   +99999+99999GF107991071999006001999999KA1010M-00501KA2010N-00521MA1999999102571MD1710061+9999MW1031OC101461OD130101461999REMSYN004BUFR
0235010280999992016011218004+74517+019005FM-12+001699999V0200391N0095100600199030000199-00501-00941102761ADDAA112999999AY121061AY221061GA1071+006001061GA2999+999999101GA3999+999999101GE19MSL   +99999+99999GF107991071999006001999999KA1120M-00301KA2120N-00521MA1999999102551MD1810071+9999MW1021OC101191OD130601511999UA19999999049REMSYN004BUFR
0211010280999992016011219004+74517+019005FM-12+001699999V0200291N0107100600199030000199-00501-00931102731ADDAY121999AY221999GA1071+006001061GA2999+999999101GA3999+999999101GE19MSL   +99999+99999GF107991071999006001999999KA1010M-00481KA2010N-00511MA1999999102521MD1810091+9999MW1021OC101591OD130101591999REMSYN004BUFR
0211010280999992016011220004+74517+019005FM-12+001699999V0200381N0094100600199030000199-00491-00971102711ADDAY121999AY221999GA1071+006001061GA2999+999999101GA3999+999999101GE19MSL   +99999+99999GF107991071999006001999999KA1010M-00491KA2010N-00501MA1999999102501MD1810071+9999MW1021OC101281OD130101501999REMSYN004BUFR
0224010280999992016011221004+74517+019005FM-12+001699999V0200351N0093100600199030000199-00491-00971102691ADDAY121031AY221031GA1081+006001061GA2999+999999101GA3999+999999101GE19MSL   +99999+99999GF108991081999006001999999KA1010M-00481KA2010N-00521MA1999999102481MD1710071+9999MW1031OC101211OD130101381999UA19999999049REMSYN004BUFR
0211010280999992016011222004+74517+019005FM-12+001699999V0200251N0098100600199030000199-00491-00831102661ADDAY121999AY221999GA1081+006001061GA2999+999999101GA3999+999999101GE19MSL   +99999+99999GF108991081999006001999999KA1010M-00481KA2010N-00501MA1999999102451MD1810071+9999MW1021OC101271OD130101371999REMSYN004BUFR
0211010280999992016011223004+74517+019005FM-12+001699999V0200291N0090100600199030000199-00471-00921102601ADDAY121999AY221999GA1071+006001061GA2999+999999101GA3999+999999101GE19MSL   +99999+99999GF107991071999006001999999KA1010M-00481KA2010N-00501MA1999999102391MD1810111+9999MW1011OC101221OD130101371999REMSYN004BUFR
0235010280999992016011300004+74517+019005FM-12+001699999V0200231N0086100600199030000199-00501-01001102571ADDAA106999999AY181061AY221061GA1081+006001061GA2999+999999101GA3999+999999101GE19MSL   +99999+99999GF108991081999006001999999KA1010M-00481KA2010N-00501MA1999999102361MD1710121+9999MW1261OC101141OD130601591999UA19999999049REMSYN004BUFR
0093010280999992016011301004+74517+019005FM-12+001699999V0200231N0096199999999999999999-00491-00941102541ADDKA1010M-00491KA2010N-00511MA1999999102331MD1710121+9999OC101321OD130101341999REMSYN004BUFR
0211010280999992016011302004+74517+019005FM-12+001699999V0200191N0089100600199030000199-00501-01001102491ADDAY121999AY221999GA1081+006001061GA2999+999999101GA3999+999999101GE19MSL   +99999+99999GF108991081999006001999999KA1010M-00491KA2010N-00501MA1999999102281MD1810101+9999MW1021OC101171OD130101271999REMSYN004BUFR
0224010280999992016011303004+74517+019005FM-12+001699999V0200221N0076100600199030000199-00501-01021102431ADDAY121031AY221031GA1081+006001061GA2999+999999101GA3999+999999101GE19MSL   +99999+99999GF108991081999006001999999KA1010M-00501KA2010N-00501MA1999999102221MD1810141+9999MW1021OC101101OD130101181999UA19999999049REMSYN004BUFR
0211010280999992016011304004+74517+019005FM-12+001699999V0200361N0071100600199030000199-00491-00991102411ADDAY121999AY221999GA1081+006001061GA2999+999999101GA3999+999999101GE19MSL   +99999+99999GF108991081999006001999999KA1010M-00481KA2010N-00501MA1999999102201MD1710121+9999MW1021OC100951OD130101071999REMSYN004BUFR
0211010280999992016011305004+74517+019005FM-12+001699999V0200401N0067100600199030000199-00471-00981102341ADDAY121999AY221999GA1081+006001061GA2999+999999101GA3999+999999101GE19MSL   +99999+99999GF108991081999006001999999KA1010M-00471KA2010N-00491MA1999999102131MD1810151+9999MW1021OC100831OD130100951999REMSYN004BUFR
0252010280999992016011306004+74517+019005FM-12+001699999V0200161N0059100600199015000199-00451-00921102291ADDAA112999999AA224999999AY181061AY221061GA1071+006001081GA2999+999999101GA3999+999999101GE19MSL   +99999+99999GF107991071999006001999999IA1229KA1120M-00461KA2120N-00521MA1999999102081MD1810141+9999MW1851OC100861OD130601341999UA19999999049REMSYN004BUFR
0211010280999992016011307004+74517+019005FM-12+001699999V0200371N0061100300199030000199-00491-00881102281ADDAY181999AY221999GA1071+003001081GA2999+999999101GA3999+999999101GE19MSL   +99999+99999GF107991071999003001999999KA1010M-00451KA2010N-00491MA1999999102071MD1610131+9999MW1261OC100791OD130100971999REMSYN004BUFR
0211010280999992016011308004+74517+019005FM-12+001699999V0200231N0058100300199030000199-00501-00971102291ADDAY121999AY221999GA1071+003001081GA2999+999999101GA3999+999999101GE19MSL   +99999+99999GF107991071999003001999999KA1010M-00491KA2010N-00501MA1999999102081MD1510051+9999MW1021OC100811OD130100951999REMSYN004BUFR
0243010280999992016011309004+74517+019005FM-12+001699999V0200381N0065100600199030000199-00501-00941102291ADDAY181031AY221031GA1071+006001081GA2999+999999101GA3999+999999101GE19MSL   +99999+99999GF107991071999006001999999KA1010M-00501KA2010N-00511MA1999999102081MD1410009+9999MW1021OC100851OD130100901999UA19999999049REMSYN004BUFREQDQ01.1    3APC3  
0179010280999992016011310004+74517+019005FM-12+001699999V0200281N0055199999999030000199-00521-00911102261ADDAY121999AY201999GA1031+006001081GE19MSL   +99999+99999GF103991031999006001999999KA1010M-00501KA2010N-00521MA1999999102051MD1810021+9999MW1011OC100691OD130100861999REMSYN004BUFR
0179010280999992016011311004+74517+019005FM-12+001699999V0200341N0053199999999030000199-00521-00921102241ADDAY101999AY201999GA1041+006001061GE19MSL   +99999+99999GF104991041999006001999999KA1010M-00521KA2010N-00521MA1999999102031MD1710051+9999MW1021OC100731OD130100761999REMSYN004BUFR
0203010280999992016011312004+74517+019005FM-12+001699999V0200281N0051199999999030000199-00501-00901102231ADDAA106999999AY181061AY221061GA1041+006001061GE19MSL   +99999+99999GF104991041999006001999999KA1010M-00511KA2010N-00521MA1999999102021MD1710051+9999MW1021OC100661OD130600971999UA19999999039REMSYN004BUFR
0179010280999992016011313004+74517+019005FM-12+001699999V0200271N0040199999999030000199-00501-00911102211ADDAY101999AY201999GA1031+006001061GE19MSL   +99999+99999GF103991031999006001999999KA1010M-00501KA2010N-00521MA1999999102001MD1710051+9999MW1011OC100541OD130100671999REMSYN004BUFR
0179010280999992016011314004+74517+019005FM-12+001699999V0200251N0038199999999030000199-00501-00901102191ADDAY101999AY201999GA1021+006001081GE19MSL   +99999+99999GF102991021999006001999999KA1010M-00501KA2010N-00521MA1999999101981MD1810041+9999MW1021OC100501OD130100551999REMSYN004BUFR
0184010280999992016011315004+74517+019005FM-12+001699999V0200031N0029199999999030000199-00501-00881102181ADDAY101031AY201031GA1021+003001081GE19MSL   +99999+99999GF102991021999003001999999KA1010M-00491KA2010N-00511MA1999999101971MD1710051+9999MW1021OD130100521999UA19999999039REMSYN004BUFR
0171010280999992016011316004+74517+019005FM-12+001699999V0200031N0033199999999030000199-00451-00871102131ADDAY101999AY201999GA1021+006001081GE19MSL   +99999+99999GF102991021999006001999999KA1010M-00461KA2010N-00501MA1999999101921MD1810081+9999MW1021OD130100531999REMSYN004BUFR
0171010280999992016011317004+74517+019005FM-12+001699999V0203441N0016199999999040000199-00421-00851102111ADDAY101999AY201999GA1011+006001081GE19MSL   +99999+99999GF101991011999006001999999KA1010M-00431KA2010N-00461MA1999999101901MD1810091+9999MW1011OD130100531999REMSYN004BUFR
0195010280999992016011318004+74517+019005FM-12+001699999V0201351N0007199999999040000199-00701-01041102061ADDAA112999999AY101061AY201061GA1011+006001081GE19MSL   +99999+99999GF101991011999006001999999KA1120M-00431KA2120N-00721MA1999999101851MD1710121+9999MW1021OD130600671999UA19999999039REMSYN004BUFR
0157010280999992016011319004+74517+019005FM-12+001699999V0201681N0025199999999040000199-00801-01091102071ADDAY101999AY201999GA1021+006001081GE19MSL   +99999+99999GF102991021999006001999999KA1010M-00701KA2010N-00821MA1999999101861MD1610071+9999MW1021REMSYN004BUFR
0157010280999992016011320004+74517+019005FM-12+001699999V0201691N0037199999999040000199-00821-01091102041ADDAY101999AY201999GA1021+006001081GE19MSL   +99999+99999GF102991021999006001999999KA1010M-00811KA2010N-00871MA1999999101831MD1610061+9999MW1021REMSYN004BUFR
0170010280999992016011321004+74517+019005FM-12+001699999V0201661N0042199999999040000199-00821-01071101991ADDAY101031AY201031GA1021+006001081GE19MSL   +99999+99999GF102991021999006001999999KA1010M-00831KA2010N-00861MA1999999101781MD1810071+9999MW1021UA19999999039REMSYN004BUFR
0179010280999992016011322004+74517+019005FM-12+001699999V0201761N0042199999999040000199-00821-01061101991ADDAY101999AY201999GA1011+006001081GE19MSL   +99999+99999GF101991011999006001999999KA1010M-00781KA2010N-00821MA1999999101781MD1610081+9999MW1021OC100551OD130100551999REMSYN004BUFR
0187010280999992016011323004+74517+019005FM-12+001699999V0201761N0037199999999040000199-00851-01051101951ADDAY101999AY201999GA1011+006001081GA2999+999999041GE19MSL   +99999+99999GF101991011999006001999999KA1010M-00821KA2010N-00861MA1999999101741MD1710091+9999MW1021OD130100591999REMSYN004BUFR
0157010280999992016011400004+74517+019005FM-12+001699999V0201841N0037122000199040000199-00801-01001101931ADDAA106999999AY101061AY201061GF100991999999999999999999KA1010M-00811KA2010N-00851MA1999999101721MD1810061+9999MW1011OD130600591999UA19999999049REMSYN004BUFR
0119010280999992016011401004+74517+019005FM-12+001699999V0201721N0038122000199040000199-00751-00951101911ADDAY101999AY201999GF100991999999999999999999KA1010M-00751KA2010N-00801MA1999999101701MD1610081+9999MW1021REMSYN004BUFR
0133010280999992016011402004+74517+019005FM-12+001699999V0201791N0040122000199040000199-00751-00951101891ADDAY101999AY201999GF100991999999999999999999KA1010M-00751KA2010N-00791MA1999999101681MD1710051+9999MW1021OD130100501999REMSYN004BUFR
0146010280999992016011403004+74517+019005FM-12+001699999V0201861N0043122000199040000199-00841-01001101881ADDAY101031AY201031GF100991999999999999999999KA1010M-00771KA2010N-00851MA1999999101671MD1710051+9999MW1021OD130100511999UA19999999049REMSYN004BUFR
0119010280999992016011404004+74517+019005FM-12+001699999V0201891N0041122000199040000199-00851-00971101861ADDAY101999AY201999GF100991999999999999999999KA1010M-00821KA2010N-00861MA1999999101651MD1710051+9999MW1021REMSYN004BUFR
0133010280999992016011405004+74517+019005FM-12+001699999V0201771N0038122000199040000199-00851-00951101841ADDAY101999AY201999GF100991999999999999999999KA1010M-00821KA2010N-00861MA1999999101631MD1710051+9999MW1021OD130100521999REMSYN004BUFR
0174010280999992016011406004+74517+019005FM-12+001699999V0201981N0035122000199040000199-00851-00941101821ADDAA112999999AA224999999AY101061AY201061GF100991999999999999999999IA1159KA1120M-00701KA2120N-00871MA1999999101611MD1710051+9999MW1021OD130600521999UA19999999049REMSYN004BUFR
0119010280999992016011407004+74517+019005FM-12+001699999V0201981N0036122000199040000199-00841-00941101811ADDAY101999AY201999GF100991999999999999999999KA1010M-00841KA2010N-00861MA1999999101601MD1710051+9999MW1021REMSYN004BUFR
0119010280999992016011408004+74517+019005FM-12+001699999V0201831N0040122000199040000199-00701-00821101821ADDAY101999AY201999GF100991999999999999999999KA1010M-00701KA2010N-00841MA1999999101611MD1510021+9999MW1021REMSYN004BUFR
0132010280999992016011409004+74517+019005FM-12+001699999V0201971N0040122000199040000199-00851-00991101801ADDAY101031AY201031GF100991999999999999999999KA1010M-00701KA2010N-00851MA1999999101591MD1710031+9999MW1021UA19999999049REMSYN004BUFR
0119010280999992016011410004+74517+019005FM-12+001699999V0202121N0041122000199040000199-00841-00971101791ADDAY101999AY201999GF100991999999999999999999KA1010M-00841KA2010N-00861MA1999999101581MD1710021+9999MW1021REMSYN004BUFR
0171010280999992016011411004+74517+019005FM-12+001699999V0202061N0030199999999040000199-00641-00791101791ADDAY101999AY201999GA1021+015001081GE19MSL   +99999+99999GF102991021999015001999999KA1010M-00551KA2010N-00841MA1999999101581MD1610031+9999MW1031OD130100521999REMSYN004BUFR
0248010280999992016011412004+74517+019000FM-12+001899999V0201801N005019999999N040000199-00691-00871101751ADDAA106000091AY101021AY201021GA1031+008001081GE19MSL   +99999+99999GF103991031999008001999999MA1999999101541MD1810051+9999MW1031OD139900501999SA1+0111REMSYN08801028 11582 31805 11069 21087 30154 40175 58005 60001 70300 83800 222// 00011 333 91105=
0171010280999992016011413004+74517+019005FM-12+001699999V0202501N0030199999999040000199-00471-00791101721ADDAY101999AY201999GA1031+006001081GE19MSL   +99999+99999GF103991031999006001999999KA1010M-00481KA2010N-00701MA1999999101511MD1710071+9999MW1021OD130100531999REMSYN004BUFR
0171010280999992016011414004+74517+019005FM-12+001699999V0202711N0035199999999040000199-00171-00581101731ADDAY111999AY201999GA1041+010001081GE19MSL   +99999+99999GF104991041999010001999999KA1010M-00151KA2010N-00451MA1999999101531MD1510051+9999MW1031OD130100711999REMSYN004BUFR
0187010280999992016011415004+74517+019000FM-12+001899999V0202701N005019999999N040000199-00151-00671101731ADDAY111021AY201021GA1031+012501081GE19MSL   +99999+99999GF103991031999012501999999MA1999999101531MD1510001+9999MW1021REMSYN06001028 41682 32705 11015 21067 30153 40173 55000 70210 83800=
0187010280999992016011416004+74517+019000FM-12+001899999V0202601N004019999999N040000199-00111-00611101721ADDAY111021AY201021GA1031+012501081GE19MSL   +99999+99999GF103991031999012501999999MA1999999101521MD1990001+9999MW1021REMSYN06001028 41682 32604 11011 21061 30152 40172 50000 70210 83800=
0171010280999992016011417004+74517+019005FM-12+001699999V0202451N0031199999999040000199-00221-00601101711ADDAY111999AY201999GA1041+010001081GE19MSL   +99999+99999GF104991041999010001999999KA1010M-00101KA2010N-00231MA1999999101511MD1710021+9999MW1031OD130100601999REMSYN004BUFR
0247010280999992016011418004+74517+019000FM-12+001899999V0202801N003019999999N040000199-00151-00471101691ADDAA112000091AY121021AY211021GA1061+012501081GE19MSL   +99999+99999GF106991061999012501999999KA1120M-00101MA1999999101491MD1710051+9999MW1031OD139900801999REMSYN08201028 11682 62803 11015 21047 30149 40169 57005 60002 70321 86800 333 11010 91108=
0187010280999992016011419004+74517+019000FM-12+001899999V0202801N003019999999N040000199-00121-00401101701ADDAY181021AY221021GA1041+008001081GE19MSL   +99999+99999GF104991041999008001999999MA1999999101501MD1510021+9999MW1271REMSYN06001028 41582 42803 11012 21040 30150 40170 55002 72782 84800=
0187010280999992016011420004+74517+019000FM-12+001899999V0201801N001019999999N040000199-00261-00581101691ADDAY101021AY201021GA1031+012501081GE19MSL   +99999+99999GF103991031999012501999999MA1999999101491MD1710021+9999MW1021REMSYN06001028 41682 31801 11026 21058 30149 40169 57002 70200 83800=
0187010280999992016011421004+74517+019000FM-12+001899999V0202801N005019999999N040000199-00231-00701101671ADDAY181021AY221021GA1041+012501081GE19MSL   +99999+99999GF104991041999012501999999MA1999999101471MD1710011+9999MW1021REMSYN06001028 41682 42805 11023 21070 30147 40167 57001 70282 84800=
0187010280999992016011422004+74517+019005FM-12+001699999V0202381N0010199999999040000199-00221-00631101711ADDAY121999AY201999GA1031+010001081GA2999+999999031GE19MSL   +99999+99999GF105991031999010001999999KA1010M-00151KA2010N-00231MA1999999101511MD1510011+9999MW1021OD130101111999REMSYN004BUFR
0187010280999992016011423004+74517+019000FM-12+001899999V0202901N005019999999N040000199-00131-00771101681ADDAY121021AY201021GA1021+017501061GE19MSL   +99999+99999GF102991021999017501999999MA1999999101481MD1990001+9999MW1011REMSYN06001028 41782 22905 11013 21077 30148 40168 50000 70120 82500=
0228010280999992016011500004+74517+019000FM-12+001899999V0202401N002019999999N030000199-00181-00731101671ADDAA106000131AY181021AY211021GA1021+017501061GE19MSL   +99999+99999GF102991021999017501999999MA1999999101471MD1990011+9999MW1021OD139901101999REMSYN07601028 11780 22402 11018 21073 30147 40167 50001 69911 70281 82500 333 91111=
0179010280999992016011501004+74517+019005FM-12+001699999V0202621N0039199999999040000199-00291-00541101661ADDAY101999AY201999GA1011+015001061GE19MSL   +99999+99999GF101991011999015001999999KA1010M-00171KA2010N-00321MA1999999101461MD1710051+9999MW1011OC100911OD130100911999REMSYN004BUFR
0187010280999992016011502004+74517+019000FM-12+001899999V0202701N003019999999N030000199-00231-00611101671ADDAY101021AY201021GA1021+008001061GE19MSL   +99999+99999GF102991021999008001999999MA1999999101471MD1710021+9999MW1031REMSYN06001028 41580 22703 11023 21061 30147 40167 57002 70300 82500=
0187010280999992016011503004+74517+019000FM-12+001899999V0202301N002019999999N030000199-00261-00641101681ADDAY101021AY201021GA1021+008001061GE19MSL   +99999+99999GF102991021999008001999999MA1999999101481MD1210011+9999MW1021REMSYN06001028 41580 22302 11026 21064 30148 40168 52001 70200 82500=
0179010280999992016011504004+74517+019005FM-12+001699999V0203141N0018199999999030000199-00291-00491101691ADDAY101999AY201999GA1031+006001061GE19MSL   +99999+99999GF103991031999006001999999KA1010M-00251KA2010N-00321MA1999999101491MD1210021+9999MW1031OC100591OD130100591999REMSYN004BUFR
0171010280999992016011505004+74517+019005FM-12+001699999V0203451N0028100600199020000199-00251-00381101701ADDAY181999AY211999GA1071+006001081GE19MSL   +99999+99999GF107991071999006001999999KA1010M-00241KA2010N-00291MA1999999101501MD1210031+9999MW1851OD130100721999REMSYN004BUFR
0212010280999992016011506004+74517+019005FM-12+001699999V0201321N0026199999999030000199-00421-00621101711ADDAA112000131AA224000131AY181061AY211061GA1031+006001081GE19MSL   +99999+99999GF103991031999006001999999IA1229KA1120M-00101KA2120N-00461MA1999999101501MD1210021+9999MW1261OD130601081999UA19999999039REMSYN004BUFR
0157010280999992016011507004+74517+019005FM-12+001699999V0201481N0042199999999055000199-00521-00641101711ADDAY101999AY201999GA1031+010001061GE19MSL   +99999+99999GF103991031999010001999999KA1010M-00431KA2010N-00531MA1999999101501MD1210021+9999MW1021REMSYN004BUFR
0173010280999992016011508004+74517+019005FM-12+001699999V0201491N0026199999999075000199-00571-00811101761ADDAY101999AY201999GA1011+010001081GA2999+999999031GE19MSL   +99999+99999GF102991011999010001999999KA1010M-00501KA2010N-00581MA1999999101551MD1310051+9999MW1011REMSYN004BUFR
0186010280999992016011509004+74517+019005FM-12+001699999V0201621N0021199999999075000199-00551-00841101781ADDAY101031AY201031GA1011+010001081GA2999+999999021GE19MSL   +99999+99999GF102991011999010001999999KA1010M-00531KA2010N-00591MA1999999101571MD1210071+9999MW1021UA19999999039REMSYN004BUFR
0195010280999992016011510004+74517+019005FM-12+001699999V0202421N0039199999999075000199-00501-00941101791ADDAY101999AY201999GA1011+010001081GA2999+999999021GE19MSL   +99999+99999GF102991011999010001999999KA1010M-00501KA2010N-00631MA1999999101581MD1110081+9999MW1021OC100521OD130100581999REMSYN004BUFR
0203010280999992016011511004+74517+019000FM-12+001899999V0202401N003019999999N070001199-00621-01021101791ADDAY101021AY201021GA1011+012501081GA2999+999999021GE19MSL   +99999+99999GF102991011999012501999999MA1999999101581MD1210031+9999MW1021REMSYN06001028 41689 22403 11062 21102 30158 40179 52003 70200 81108=
0264010280999992016011512004+74517+019000FM-12+001899999V0201601N003019999999N070001199-00601-01011101831ADDAA106000091AY101021AY201021GA1031+012501081GA2999+999999021GE19MSL   +99999+99999GF104991031999012501999999MA1999999101621MD1310061+9999MW1031OD139900601999SA1+0121REMSYN08801028 11689 41603 11060 21101 30162 40183 53006 60001 70300 83808 222// 00012 333 91106=
0187010280999992016011513004+74517+019005FM-12+001699999V0201511N0042199999999075000199-00771-01111101841ADDAY101999AY201999GA1031+010001091GA2999+999999021GE19MSL   +99999+99999GF104991031999010001999999KA1010M-00561KA2010N-00791MA1999999101631MD1210041+9999MW1151OD130100501999REMSYN004BUFR
0203010280999992016011514004+74517+019000FM-12+001899999V0201601N005019999999N070001199-00581-00831101901ADDAY121021AY201021GA1041+012501081GA2999+999999021GE19MSL   +99999+99999GF105991041999012501999999MA1999999101691MD1310101+9999MW1021REMSYN06001028 41689 51605 11058 21083 30169 40190 53010 70220 84808=
