0056010300999992016010100004+69290+018129FM-12+098299999V0201641N0123199999999999999999-00321+99999999999ADDKA1010M-00301KA2010N-00331OD130602381999REMSYN004BUFR
0056010300999992016010101004+69290+018129FM-12+098299999V0201681N0089199999999999999999-00421+99999999999ADDKA1010M-00331KA2010N-00421OD130102261999REMSYN004BUFR
0056010300999992016010103004+69290+018129FM-12+098299999V0201611N0130199999999999999999-00451+99999999999ADDKA1010M-00401KA2010N-00461OD130102501999REMSYN004BUFR
0056010300999992016010104004+69290+018129FM-12+098299999V0201741N0137199999999999999999-00421+99999999999ADDKA1010M-00421KA2010N-00451OD130102061999REMSYN004BUFR
0056010300999992016010105004+69290+018129FM-12+098299999V0201781N0127199999999999999999-00471+99999999999ADDKA1010M-00421KA2010N-00471OD130102001999REMSYN004BUFR
0056010300999992016010106004+69290+018129FM-12+098299999V0201651N0116199999999999999999-00471+99999999999ADDKA1120M-00181KA2120N-00471OD130602501999REMSYN004BUFR
0056010300999992016010107004+69290+018129FM-12+098299999V0201671N0122199999999999999999-00451+99999999999ADDKA1010M-00451KA2010N-00471OD130102041999REMSYN004BUFR
0056010300999992016010108004+69290+018129FM-12+098299999V0201681N0124199999999999999999-00451+99999999999ADDKA1010M-00431KA2010N-00471OD130102051999REMSYN004BUFR
0056010300999992016010109004+69290+018129FM-12+098299999V0201701N0105199999999999999999-00421+99999999999ADDKA1010M-00421KA2010N-00461OD130102091999REMSYN004BUFR
0056010300999992016010110004+69290+018129FM-12+098299999V0201641N0101199999999999999999-00421+99999999999ADDKA1010M-00401KA2010N-00431OD130101871999REMSYN004BUFR
0056010300999992016010111004+69290+018129FM-12+098299999V0201661N0103199999999999999999-00421+99999999999ADDKA1010M-00391KA2010N-00431OD130101721999REMSYN004BUFR
0056010300999992016010112004+69290+018129FM-12+098299999V0201611N0113199999999999999999-00401+99999999999ADDKA1010M-00411KA2010N-00441OD130602091999REMSYN004BUFR
0056010300999992016010113004+69290+018129FM-12+098299999V0201761N0092199999999999999999-00441+99999999999ADDKA1010M-00411KA2010N-00441OD130101931999REMSYN004BUFR
0056010300999992016010114004+69290+018129FM-12+098299999V0201541N0115199999999999999999-00451+99999999999ADDKA1010M-00441KA2010N-00471OD130101911999REMSYN004BUFR
0056010300999992016010115004+69290+018129FM-12+098299999V0201691N0111199999999999999999-00401+99999999999ADDKA1010M-00401KA2010N-00451OD130101821999REMSYN004BUFR
0056010300999992016010116004+69290+018129FM-12+098299999V0201601N0098199999999999999999-00421+99999999999ADDKA1010M-00411KA2010N-00451OD130101781999REMSYN004BUFR
0056010300999992016010117004+69290+018129FM-12+098299999V0201641N0099199999999999999999-00421+99999999999ADDKA1010M-00431KA2010N-00451OD130101651999REMSYN004BUFR
0056010300999992016010118004+69290+018129FM-12+098299999V0201691N0101199999999999999999-00421+99999999999ADDKA1120M-00391KA2120N-00471OD130601931999REMSYN004BUFR
0056010300999992016010119004+69290+018129FM-12+098299999V0201641N0085199999999999999999-00421+99999999999ADDKA1010M-00401KA2010N-00431OD130101331999REMSYN004BUFR
0056010300999992016010120004+69290+018129FM-12+098299999V0201621N0091199999999999999999-00471+99999999999ADDKA1010M-00421KA2010N-00471OD130101321999REMSYN004BUFR
0056010300999992016010121004+69290+018129FM-12+098299999V0201641N0088199999999999999999-00471+99999999999ADDKA1010M-00461KA2010N-00481OD130101161999REMSYN004BUFR
0056010300999992016010122004+69290+018129FM-12+098299999V0201751N0087199999999999999999-00401+99999999999ADDKA1010M-00411KA2010N-00491OD130101151999REMSYN004BUFR
0056010300999992016010123004+69290+018129FM-12+098299999V0201651N0083199999999999999999-00471+99999999999ADDKA1010M-00411KA2010N-00481OD130101221999REMSYN004BUFR
0056010300999992016010200004+69290+018129FM-12+098299999V0201671N0074199999999999999999-00451+99999999999ADDKA1010M-00451KA2010N-00491OD130601331999REMSYN004BUFR
0056010300999992016010201004+69290+018129FM-12+098299999V0201761N0075199999999999999999-00451+99999999999ADDKA1010M-00441KA2010N-00501OD130101131999REMSYN004BUFR
0056010300999992016010202004+69290+018129FM-12+098299999V0201871N0070199999999999999999-00371+99999999999ADDKA1010M-00381KA2010N-00451OD130101051999REMSYN004BUFR
0056010300999992016010203004+69290+018129FM-12+098299999V0202141N0066199999999999999999-00401+99999999999ADDKA1010M-00381KA2010N-00411OD130101071999REMSYN004BUFR
0056010300999992016010204004+69290+018129FM-12+098299999V0201971N0085199999999999999999-00351+99999999999ADDKA1010M-00361KA2010N-00401OD130101231999REMSYN004BUFR
0056010300999992016010205004+69290+018129FM-12+098299999V0202001N0072199999999999999999-00391+99999999999ADDKA1010M-00351KA2010N-00411OD130101291999REMSYN004BUFR
0056010300999992016010206004+69290+018129FM-12+098299999V0201881N0070199999999999999999-00401+99999999999ADDKA1120M-00351KA2120N-00501OD130601291999REMSYN004BUFR
0056010300999992016010207004+69290+018129FM-12+098299999V0201741N0074199999999999999999-00421+99999999999ADDKA1010M-00381KA2010N-00431OD130101111999REMSYN004BUFR
0056010300999992016010208004+69290+018129FM-12+098299999V0201611N0068199999999999999999-00421+99999999999ADDKA1010M-00411KA2010N-00451OD130100881999REMSYN004BUFR
0056010300999992016010209004+69290+018129FM-12+098299999V0201641N0054199999999999999999-00421+99999999999ADDKA1010M-00421KA2010N-00461OD130100861999REMSYN004BUFR
0056010300999992016010210004+69290+018129FM-12+098299999V0201371N0051199999999999999999-00401+99999999999ADDKA1010M-00411KA2010N-00461OD130100731999REMSYN004BUFR
0056010300999992016010211004+69290+018129FM-12+098299999V0201441N0042199999999999999999-00421+99999999999ADDKA1010M-00381KA2010N-00421OD130100741999REMSYN004BUFR
0056010300999992016010212004+69290+018129FM-12+098299999V0201451N0067199999999999999999-00501+99999999999ADDKA1010M-00421KA2010N-00511OD130601131999REMSYN004BUFR
0056010300999992016010213004+69290+018129FM-12+098299999V0201421N0069199999999999999999-00541+99999999999ADDKA1010M-00451KA2010N-00541OD130101371999REMSYN004BUFR
0056010300999992016010214004+69290+018129FM-12+098299999V0201401N0083199999999999999999-00571+99999999999ADDKA1010M-00531KA2010N-00591OD130101381999REMSYN004BUFR
0056010300999992016010215004+69290+018129FM-12+098299999V0201431N0078199999999999999999-00571+99999999999ADDKA1010M-00531KA2010N-00601OD130101721999REMSYN004BUFR
0056010300999992016010216004+69290+018129FM-12+098299999V0201611N0072199999999999999999-00571+99999999999ADDKA1010M-00551KA2010N-00621OD130101831999REMSYN004BUFR
0056010300999992016010217004+69290+018129FM-12+098299999V0201451N0086199999999999999999-00591+99999999999ADDKA1010M-00541KA2010N-00641OD130102021999REMSYN004BUFR
0055010300999992016010218004+69283+018133FM-12+098299999V020999999999999999999999999999+99999+99999999999REMSYN04601030 46/// /1408 11061 2//// 333 11038 91120=
0056010300999992016010219004+69290+018129FM-12+098299999V0201591N0068199999999999999999-00571+99999999999ADDKA1010M-00551KA2010N-00621OD130101561999REMSYN004BUFR
0056010300999992016010220004+69290+018129FM-12+098299999V0201461N0082199999999999999999-00551+99999999999ADDKA1010M-00511KA2010N-00631OD130101481999REMSYN004BUFR
0056010300999992016010221004+69290+018129FM-12+098299999V0201541N0088199999999999999999-00591+99999999999ADDKA1010M-00501KA2010N-00641OD130101471999REMSYN004BUFR
0056010300999992016010222004+69290+018129FM-12+098299999V0201451N0060199999999999999999-00651+99999999999ADDKA1010M-00531KA2010N-00651OD130101431999REMSYN004BUFR
0056010300999992016010223004+69290+018129FM-12+098299999V0201641N0061199999999999999999-00671+99999999999ADDKA1010M-00611KA2010N-00681OD130100861999REMSYN004BUFR
0056010300999992016010300004+69290+018129FM-12+098299999V0201591N0036199999999999999999-00551+99999999999ADDKA1010M-00521KA2010N-00701OD130601561999REMSYN004BUFR
0042010300999992016010301004+69290+018129FM-12+098299999V0201701N0028199999999999999999-00571+99999999999ADDKA1010M-00461KA2010N-00641REMSYN004BUFR
0056010300999992016010302004+69290+018129FM-12+098299999V0201521N0045199999999999999999-00641+99999999999ADDKA1010M-00541KA2010N-00691OD130100611999REMSYN004BUFR
0056010300999992016010303004+69290+018129FM-12+098299999V0201591N0035199999999999999999-00571+99999999999ADDKA1010M-00561KA2010N-00671OD130100631999REMSYN004BUFR
0056010300999992016010304004+69290+018129FM-12+098299999V0201511N0039199999999999999999-00521+99999999999ADDKA1010M-00521KA2010N-00591OD130100541999REMSYN004BUFR
0056010300999992016010306004+69290+018129FM-12+098299999V0201041N0033199999999999999999-00371+99999999999ADDKA1120M-00351KA2120N-00701OD130600631999REMSYN004BUFR
0056010300999992016010307004+69290+018129FM-12+098299999V0201151N0027199999999999999999-00321+99999999999ADDKA1010M-00311KA2010N-00441OD130100611999REMSYN004BUFR
0056010300999992016010308004+69290+018129FM-12+098299999V0201151N0040199999999999999999-00251+99999999999ADDKA1010M-00181KA2010N-00321OD130100781999REMSYN004BUFR
0056010300999992016010309004+69290+018129FM-12+098299999V0200821N0043199999999999999999-00341+99999999999ADDKA1010M-00221KA2010N-00361OD130100831999REMSYN004BUFR
0056010300999992016010310004+69290+018129FM-12+098299999V0200911N0051199999999999999999-00251+99999999999ADDKA1010M-00241KA2010N-00391OD130101121999REMSYN004BUFR
0056010300999992016010311004+69290+018129FM-12+098299999V0200871N0057199999999999999999-00291+99999999999ADDKA1010M-00191KA2010N-00401OD130101191999REMSYN004BUFR
0056010300999992016010312004+69290+018129FM-12+098299999V0200781N0049199999999999999999-00371+99999999999ADDKA1010M-00221KA2010N-00421OD130601191999REMSYN004BUFR
0056010300999992016010313004+69290+018129FM-12+098299999V0201241N0044199999999999999999-00321+99999999999ADDKA1010M-00241KA2010N-00451OD130101171999REMSYN004BUFR
0056010300999992016010314004+69290+018129FM-12+098299999V0201451N0069199999999999999999-00441+99999999999ADDKA1010M-00241KA2010N-00441OD130101351999REMSYN004BUFR
0056010300999992016010315004+69290+018129FM-12+098299999V0201411N0087199999999999999999-00451+99999999999ADDKA1010M-00371KA2010N-00531OD130101501999REMSYN004BUFR
0056010300999992016010316004+69290+018129FM-12+098299999V0201321N0074199999999999999999-00521+99999999999ADDKA1010M-00431KA2010N-00561OD130101431999REMSYN004BUFR
0056010300999992016010317004+69290+018129FM-12+098299999V0201471N0098199999999999999999-00621+99999999999ADDKA1010M-00491KA2010N-00631OD130101461999REMSYN004BUFR
0056010300999992016010318004+69290+018129FM-12+098299999V0201451N0076199999999999999999-00771+99999999999ADDKA1120M-00181KA2120N-00801OD130601501999REMSYN004BUFR
0056010300999992016010319004+69290+018129FM-12+098299999V0201441N0107199999999999999999-00851+99999999999ADDKA1010M-00581KA2010N-00851OD130101591999REMSYN004BUFR
0056010300999992016010320004+69290+018129FM-12+098299999V0201481N0121199999999999999999-01091+99999999999ADDKA1010M-00751KA2010N-01151OD130102251999REMSYN004BUFR
0056010300999992016010321004+69290+018129FM-12+098299999V0201451N0122199999999999999999-01121+99999999999ADDKA1010M-01001KA2010N-01171OD130102271999REMSYN004BUFR
0056010300999992016010322004+69290+018129FM-12+098299999V0201621N0106199999999999999999-01251+99999999999ADDKA1010M-01041KA2010N-01271OD130102331999REMSYN004BUFR
0056010300999992016010323004+69290+018129FM-12+098299999V0201551N0114199999999999999999-01191+99999999999ADDKA1010M-01191KA2010N-01291OD130102351999REMSYN004BUFR
0056010300999992016010400004+69290+018129FM-12+098299999V0201471N0126199999999999999999-01171+99999999999ADDKA1010M-01141KA2010N-01221OD130602351999REMSYN004BUFR
0056010300999992016010401004+69290+018129FM-12+098299999V0201561N0122199999999999999999-01201+99999999999ADDKA1010M-01121KA2010N-01241OD130102291999REMSYN004BUFR
0056010300999992016010403004+69290+018129FM-12+098299999V0201531N0096199999999999999999-01271+99999999999ADDKA1010M-01221KA2010N-01281OD130102251999REMSYN004BUFR
0056010300999992016010405004+69290+018129FM-12+098299999V0201691N0078199999999999999999-01471+99999999999ADDKA1010M-01331KA2010N-01471OD130101941999REMSYN004BUFR
0056010300999992016010406004+69290+018129FM-12+098299999V0201611N0129199999999999999999-01501+99999999999ADDKA1120M-00581KA2120N-01541OD130602461999REMSYN004BUFR
0056010300999992016010407004+69290+018129FM-12+098299999V0201671N0109199999999999999999-01571+99999999999ADDKA1010M-01431KA2010N-01591OD130102601999REMSYN004BUFR
0056010300999992016010408004+69290+018129FM-12+098299999V0201591N0127199999999999999999-01741+99999999999ADDKA1010M-01571KA2010N-01751OD130102901999REMSYN004BUFR
0056010300999992016010409004+69290+018129FM-12+098299999V0201671N0128199999999999999999-01821+99999999999ADDKA1010M-01691KA2010N-01821OD130102611999REMSYN004BUFR
0056010300999992016010410004+69290+018129FM-12+098299999V0201771N0079199999999999999999-01731+99999999999ADDKA1010M-01711KA2010N-01851OD130102531999REMSYN004BUFR
0056010300999992016010412004+69290+018129FM-12+098299999V0201441N0137199999999999999999-01641+99999999999ADDKA1010M-01641KA2010N-01781OD130602901999REMSYN004BUFR
0056010300999992016010415004+69290+018129FM-12+098299999V0203091N0041199999999999999999-01621+99999999999ADDKA1010M-01591KA2010N-01701OD130102021999REMSYN004BUFR
0056010300999992016010416004+69290+018129FM-12+098299999V0201391N0071199999999999999999-01601+99999999999ADDKA1010M-01591KA2010N-01651OD130101491999REMSYN004BUFR
0056010300999992016010417004+69290+018129FM-12+098299999V0201461N0082199999999999999999-01521+99999999999ADDKA1010M-01421KA2010N-01601OD130101591999REMSYN004BUFR
0056010300999992016010418004+69290+018129FM-12+098299999V0201251N0064199999999999999999-01421+99999999999ADDKA1120M-01351KA2120N-01851OD130602021999REMSYN004BUFR
0056010300999992016010419004+69290+018129FM-12+098299999V0201381N0052199999999999999999-01401+99999999999ADDKA1010M-01361KA2010N-01451OD130101321999REMSYN004BUFR
0056010300999992016010420004+69290+018129FM-12+098299999V0200961N0047199999999999999999-01251+99999999999ADDKA1010M-01231KA2010N-01431OD130101421999REMSYN004BUFR
0056010300999992016010423004+69290+018129FM-12+098299999V0201281N0080199999999999999999-01251+99999999999ADDKA1010M-01231KA2010N-01491OD130101451999REMSYN004BUFR
0056010300999992016010500004+69290+018129FM-12+098299999V0201451N0086199999999999999999-01371+99999999999ADDKA1010M-01181KA2010N-01401OD130601531999REMSYN004BUFR
0056010300999992016010502004+69290+018129FM-12+098299999V0201121N0053199999999999999999-01251+99999999999ADDKA1010M-01231KA2010N-01361OD130101531999REMSYN004BUFR
0056010300999992016010503004+69290+018129FM-12+098299999V0201801N0039199999999999999999-01251+99999999999ADDKA1010M-01161KA2010N-01321OD130101401999REMSYN004BUFR
0056010300999992016010504004+69290+018129FM-12+098299999V0200521N0056199999999999999999-01241+99999999999ADDKA1010M-01171KA2010N-01311OD130101621999REMSYN004BUFR
0056010300999992016010505004+69290+018129FM-12+098299999V0202411N0036199999999999999999-01271+99999999999ADDKA1010M-01171KA2010N-01281OD130101301999REMSYN004BUFR
0056010300999992016010506004+69290+018129FM-12+098299999V0200421N0054199999999999999999-01301+99999999999ADDKA1120M-01161KA2120N-01501OD130601621999REMSYN004BUFR
0056010300999992016010507004+69290+018129FM-12+098299999V0201181N0043199999999999999999-01221+99999999999ADDKA1010M-01181KA2010N-01311OD130101381999REMSYN004BUFR
0056010300999992016010508004+69290+018129FM-12+098299999V0201741N0053199999999999999999-01221+99999999999ADDKA1010M-01211KA2010N-01271OD130101591999REMSYN004BUFR
0056010300999992016010509004+69290+018129FM-12+098299999V0201461N0049199999999999999999-01221+99999999999ADDKA1010M-01181KA2010N-01251OD130101451999REMSYN004BUFR
0056010300999992016010510004+69290+018129FM-12+098299999V0201021N0065199999999999999999-01121+99999999999ADDKA1010M-01101KA2010N-01241OD130101401999REMSYN004BUFR
0056010300999992016010512004+69290+018129FM-12+098299999V0201481N0059199999999999999999-01171+99999999999ADDKA1010M-01001KA2010N-01211OD130601591999REMSYN004BUFR
0056010300999992016010513004+69290+018129FM-12+098299999V0201361N0044199999999999999999-01041+99999999999ADDKA1010M-01041KA2010N-01221OD130100811999REMSYN004BUFR
0056010300999992016010514004+69290+018129FM-12+098299999V0201511N0051199999999999999999-01221+99999999999ADDKA1010M-01041KA2010N-01251OD130100901999REMSYN004BUFR
0056010300999992016010515004+69290+018129FM-12+098299999V0201291N0048199999999999999999-01241+99999999999ADDKA1010M-01151KA2010N-01261OD130101141999REMSYN004BUFR
0056010300999992016010516004+69290+018129FM-12+098299999V0201401N0050199999999999999999-01171+99999999999ADDKA1010M-01181KA2010N-01271OD130101061999REMSYN004BUFR
0056010300999992016010517004+69290+018129FM-12+098299999V0201361N0047199999999999999999-01151+99999999999ADDKA1010M-01151KA2010N-01221OD130100831999REMSYN004BUFR
0056010300999992016010518004+69290+018129FM-12+098299999V0201501N0017199999999999999999-01141+99999999999ADDKA1120M-01001KA2120N-01311OD130601141999REMSYN004BUFR
0042010300999992016010519004+69290+018129FM-12+098299999V0200941N0013199999999999999999-01151+99999999999ADDKA1010M-01111KA2010N-01161REMSYN004BUFR
0056010300999992016010521004+69290+018129FM-12+098299999V0200891N0031199999999999999999-01221+99999999999ADDKA1010M-01211KA2010N-01251OD130100621999REMSYN004BUFR
0056010300999992016010522004+69290+018129FM-12+098299999V0201341N0045199999999999999999-01201+99999999999ADDKA1010M-01201KA2010N-01291OD130101061999REMSYN004BUFR
0056010300999992016010600004+69290+018129FM-12+098299999V0201331N0056199999999999999999-01321+99999999999ADDKA1010M-01301KA2010N-01391OD130601121999REMSYN004BUFR
0056010300999992016010601004+69290+018129FM-12+098299999V0201401N0062199999999999999999-01301+99999999999ADDKA1010M-01281KA2010N-01371OD130101131999REMSYN004BUFR
0056010300999992016010602004+69290+018129FM-12+098299999V0200951N0036199999999999999999-01301+99999999999ADDKA1010M-01291KA2010N-01351OD130101131999REMSYN004BUFR
0056010300999992016010603004+69290+018129FM-12+098299999V0201211N0052199999999999999999-01351+99999999999ADDKA1010M-01271KA2010N-01351OD130100841999REMSYN004BUFR
0056010300999992016010605004+69290+018129FM-12+098299999V0200841N0023199999999999999999-01441+99999999999ADDKA1010M-01311KA2010N-01441OD130100511999REMSYN004BUFR
0056010300999992016010606004+69290+018129FM-12+098299999V0201291N0043199999999999999999-01421+99999999999ADDKA1120M-01111KA2120N-01451OD130601131999REMSYN004BUFR
0056010300999992016010607004+69290+018129FM-12+098299999V0201231N0044199999999999999999-01541+99999999999ADDKA1010M-01421KA2010N-01551OD130100961999REMSYN004BUFR
0056010300999992016010608004+69290+018129FM-12+098299999V0201231N0029199999999999999999-01541+99999999999ADDKA1010M-01521KA2010N-01581OD130101061999REMSYN004BUFR
0056010300999992016010610004+69290+018129FM-12+098299999V0200991N0027199999999999999999-01451+99999999999ADDKA1010M-01451KA2010N-01601OD130100741999REMSYN004BUFR
0042010300999992016010611004+69290+018129FM-12+098299999V0200601N0023199999999999999999-01451+99999999999ADDKA1010M-01441KA2010N-01481REMSYN004BUFR
0049010300999992016010612004+69283+018133FM-12+098299999V020999999999999999999999999999+99999+99999999999REMSYN04001030 46/// /0302 11147 2//// 333 91111=
0042010300999992016010613004+69290+018129FM-12+098299999V0200171N0027199999999999999999-01451+99999999999ADDKA1010M-01441KA2010N-01481REMSYN004BUFR
0056010300999992016010614004+69290+018129FM-12+098299999V0200491N0037199999999999999999-01451+99999999999ADDKA1010M-01441KA2010N-01491OD130100541999REMSYN004BUFR
0056010300999992016010615004+69290+018129FM-12+098299999V0200431N0040199999999999999999-01471+99999999999ADDKA1010M-01451KA2010N-01481OD130100581999REMSYN004BUFR
0056010300999992016010616004+69290+018129FM-12+098299999V0200381N0028199999999999999999-01451+99999999999ADDKA1010M-01441KA2010N-01491OD130100641999REMSYN004BUFR
0056010300999992016010617004+69290+018129FM-12+098299999V0200561N0030199999999999999999-01471+99999999999ADDKA1010M-01451KA2010N-01501OD130100571999REMSYN004BUFR
0056010300999992016010618004+69290+018129FM-12+098299999V0200261N0028199999999999999999-01491+99999999999ADDKA1120M-01421KA2120N-01601OD130600641999REMSYN004BUFR
0042010300999992016010619004+69290+018129FM-12+098299999V0200381N0032199999999999999999-01501+99999999999ADDKA1010M-01491KA2010N-01511REMSYN004BUFR
0056010300999992016010620004+69290+018129FM-12+098299999V0200301N0037199999999999999999-01441+99999999999ADDKA1010M-01411KA2010N-01531OD130100571999REMSYN004BUFR
0056010300999992016010621004+69290+018129FM-12+098299999V0200341N0039199999999999999999-01471+99999999999ADDKA1010M-01411KA2010N-01491OD130100701999REMSYN004BUFR
0056010300999992016010622004+69290+018129FM-12+098299999V0200221N0039199999999999999999-01471+99999999999ADDKA1010M-01481KA2010N-01541OD130100731999REMSYN004BUFR
0056010300999992016010700004+69290+018129FM-12+098299999V0200181N0036199999999999999999-01521+99999999999ADDKA1010M-01501KA2010N-01551OD130600731999REMSYN004BUFR
0056010300999992016010701004+69290+018129FM-12+098299999V0200411N0035199999999999999999-01651+99999999999ADDKA1010M-01531KA2010N-01651OD130100641999REMSYN004BUFR
0056010300999992016010702004+69290+018129FM-12+098299999V0200401N0039199999999999999999-01641+99999999999ADDKA1010M-01631KA2010N-01691OD130100621999REMSYN004BUFR
0056010300999992016010703004+69290+018129FM-12+098299999V0200411N0030199999999999999999-01721+99999999999ADDKA1010M-01641KA2010N-01721OD130100541999REMSYN004BUFR
0042010300999992016010705004+69290+018129FM-12+098299999V0200651N0028199999999999999999-01841+99999999999ADDKA1010M-01821KA2010N-01861REMSYN004BUFR
0056010300999992016010706004+69290+018129FM-12+098299999V0200481N0029199999999999999999-01841+99999999999ADDKA1120M-01411KA2120N-01871OD130600641999REMSYN004BUFR
0056010300999992016010710004+69290+018129FM-12+098299999V0200871N0056199999999999999999-01971+99999999999ADDKA1010M-01931KA2010N-02061OD130100881999REMSYN004BUFR
0056010300999992016010712004+69290+018129FM-12+098299999V0200961N0048199999999999999999-02121+99999999999ADDKA1010M-02081KA2010N-02151OD130601141999REMSYN004BUFR
0056010300999992016010713004+69290+018129FM-12+098299999V0200781N0072199999999999999999-02121+99999999999ADDKA1010M-02091KA2010N-02211OD130101241999REMSYN004BUFR
0056010300999992016010715004+69290+018129FM-12+098299999V0200751N0106199999999999999999-02141+99999999999ADDKA1010M-02081KA2010N-02201OD130101681999REMSYN004BUFR
0056010300999992016010717004+69290+018129FM-12+098299999V0200471N0067199999999999999999-02101+99999999999ADDKA1010M-02111KA2010N-02211OD130101651999REMSYN004BUFR
0056010300999992016010718004+69290+018129FM-12+098299999V0200461N0055199999999999999999-02031+99999999999ADDKA1120M-01851KA2120N-02211OD130601851999REMSYN004BUFR
0056010300999992016010719004+69290+018129FM-12+098299999V0200581N0061199999999999999999-02081+99999999999ADDKA1010M-02011KA2010N-02091OD130101331999REMSYN004BUFR
0056010300999992016010720004+69290+018129FM-12+098299999V0200801N0080199999999999999999-02021+99999999999ADDKA1010M-02011KA2010N-02101OD130101591999REMSYN004BUFR
0056010300999992016010721004+69290+018129FM-12+098299999V0200811N0062199999999999999999-01981+99999999999ADDKA1010M-01971KA2010N-02061OD130101481999REMSYN004BUFR
0056010300999992016010722004+69290+018129FM-12+098299999V0200591N0066199999999999999999-01901+99999999999ADDKA1010M-01901KA2010N-01981OD130101561999REMSYN004BUFR
0056010300999992016010800004+69290+018129FM-12+098299999V0200271N0050199999999999999999-01851+99999999999ADDKA1010M-01861KA2010N-01951OD130601591999REMSYN004BUFR
0056010300999992016010801004+69290+018129FM-12+098299999V0200771N0060199999999999999999-01851+99999999999ADDKA1010M-01841KA2010N-01901OD130101361999REMSYN004BUFR
0056010300999992016010802004+69290+018129FM-12+098299999V0200811N0059199999999999999999-01781+99999999999ADDKA1010M-01781KA2010N-01881OD130101171999REMSYN004BUFR
0056010300999992016010803004+69290+018129FM-12+098299999V0200771N0047199999999999999999-01751+99999999999ADDKA1010M-01751KA2010N-01791OD130100881999REMSYN004BUFR
0056010300999992016010805004+69290+018129FM-12+098299999V0200731N0041199999999999999999-01521+99999999999ADDKA1010M-01521KA2010N-01671OD130100921999REMSYN004BUFR
0056010300999992016010806004+69290+018129FM-12+098299999V0200381N0033199999999999999999-01471+99999999999ADDKA1120M-01461KA2120N-02101OD130601361999REMSYN004BUFR
0056010300999992016010808004+69290+018129FM-12+098299999V0203561N0059199999999999999999-01521+99999999999ADDKA1010M-01401KA2010N-01531OD130100881999REMSYN004BUFR
0056010300999992016010809004+69290+018129FM-12+098299999V0200091N0055199999999999999999-01471+99999999999ADDKA1010M-01471KA2010N-01541OD130101461999REMSYN004BUFR
0056010300999992016010810004+69290+018129FM-12+098299999V0200191N0041199999999999999999-01371+99999999999ADDKA1010M-01381KA2010N-01461OD130100681999REMSYN004BUFR
0056010300999992016010811004+69290+018129FM-12+098299999V0200201N0045199999999999999999-01351+99999999999ADDKA1010M-01351KA2010N-01381OD130100761999REMSYN004BUFR
0056010300999992016010812004+69290+018129FM-12+098299999V0200051N0056199999999999999999-01321+99999999999ADDKA1010M-01321KA2010N-01361OD130601461999REMSYN004BUFR
0056010300999992016010813004+69290+018129FM-12+098299999V0200141N0061199999999999999999-01291+99999999999ADDKA1010M-01291KA2010N-01341OD130100951999REMSYN004BUFR
0056010300999992016010814004+69290+018129FM-12+098299999V0203451N0074199999999999999999-01301+99999999999ADDKA1010M-01281KA2010N-01301OD130101481999REMSYN004BUFR
0056010300999992016010815004+69290+018129FM-12+098299999V0203551N0073199999999999999999-01321+99999999999ADDKA1010M-01281KA2010N-01321OD130101201999REMSYN004BUFR
0056010300999992016010816004+69290+018129FM-12+098299999V0203401N0082199999999999999999-01271+99999999999ADDKA1010M-01271KA2010N-01321OD130101421999REMSYN004BUFR
0056010300999992016010817004+69290+018129FM-12+098299999V0203411N0077199999999999999999-01241+99999999999ADDKA1010M-01241KA2010N-01271OD130101531999REMSYN004BUFR
0056010300999992016010818004+69290+018129FM-12+098299999V0203501N0082199999999999999999-01201+99999999999ADDKA1120M-01201KA2120N-01541OD130601531999REMSYN004BUFR
0056010300999992016010819004+69290+018129FM-12+098299999V0203491N0085199999999999999999-01171+99999999999ADDKA1010M-01181KA2010N-01201OD130101351999REMSYN004BUFR
0056010300999992016010821004+69290+018129FM-12+098299999V0203501N0089199999999999999999-01121+99999999999ADDKA1010M-01121KA2010N-01141OD130101301999REMSYN004BUFR
0056010300999992016010822004+69290+018129FM-12+098299999V0203461N0085199999999999999999-01141+99999999999ADDKA1010M-01121KA2010N-01141OD130101161999REMSYN004BUFR
0056010300999992016010900004+69290+018129FM-12+098299999V0203341N0086199999999999999999-01071+99999999999ADDKA1010M-01071KA2010N-01101OD130601351999REMSYN004BUFR
0056010300999992016010901004+69290+018129FM-12+098299999V0203381N0077199999999999999999-01071+99999999999ADDKA1010M-01061KA2010N-01091OD130101121999REMSYN004BUFR
0056010300999992016010902004+69290+018129FM-12+098299999V0203401N0070199999999999999999-01121+99999999999ADDKA1010M-01081KA2010N-01121OD130101371999REMSYN004BUFR
0056010300999992016010903004+69290+018129FM-12+098299999V0203321N0085199999999999999999-01151+99999999999ADDKA1010M-01101KA2010N-01151OD130101491999REMSYN004BUFR
0056010300999992016010904004+69290+018129FM-12+098299999V0203261N0082199999999999999999-01151+99999999999ADDKA1010M-01141KA2010N-01181OD130101371999REMSYN004BUFR
0056010300999992016010905004+69290+018129FM-12+098299999V0203181N0089199999999999999999-01171+99999999999ADDKA1010M-01131KA2010N-01201OD130101341999REMSYN004BUFR
0056010300999992016010906004+69290+018129FM-12+098299999V0203271N0082199999999999999999-01121+99999999999ADDKA1120M-01061KA2120N-01211OD130601501999REMSYN004BUFR
0056010300999992016010912004+69290+018129FM-12+098299999V0202991N0079199999999999999999-01171+99999999999ADDKA1010M-01141KA2010N-01171OD130601441999REMSYN004BUFR
0056010300999992016010916004+69290+018129FM-12+098299999V0202941N0071199999999999999999-01071+99999999999ADDKA1010M-01071KA2010N-01151OD130101231999REMSYN004BUFR
0056010300999992016010918004+69290+018129FM-12+098299999V0202841N0087199999999999999999-01051+99999999999ADDKA1120M-01051KA2120N-01211OD130601361999REMSYN004BUFR
0056010300999992016010919004+69290+018129FM-12+098299999V0202941N0078199999999999999999-01051+99999999999ADDKA1010M-01041KA2010N-01051OD130101281999REMSYN004BUFR
0056010300999992016010920004+69290+018129FM-12+098299999V0202851N0072199999999999999999-01051+99999999999ADDKA1010M-01041KA2010N-01061OD130101131999REMSYN004BUFR
0056010300999992016010921004+69290+018129FM-12+098299999V0202751N0076199999999999999999-01051+99999999999ADDKA1010M-01051KA2010N-01061OD130101041999REMSYN004BUFR
0056010300999992016010922004+69290+018129FM-12+098299999V0202711N0074199999999999999999-01051+99999999999ADDKA1010M-01051KA2010N-01061OD130100991999REMSYN004BUFR
0056010300999992016010923004+69290+018129FM-12+098299999V0202751N0063199999999999999999-01071+99999999999ADDKA1010M-01051KA2010N-01071OD130101131999REMSYN004BUFR
0049010300999992016011000004+69283+018133FM-12+098299999V020999999999999999999999999999+99999+99999999999REMSYN04001030 46/// /2707 11110 2//// 333 91113=
0056010300999992016011001004+69290+018129FM-12+098299999V0202801N0066199999999999999999-01101+99999999999ADDKA1010M-01101KA2010N-01111OD130100841999REMSYN004BUFR
0056010300999992016011002004+69290+018129FM-12+098299999V0202781N0067199999999999999999-01121+99999999999ADDKA1010M-01101KA2010N-01131OD130100811999REMSYN004BUFR
0056010300999992016011003004+69290+018129FM-12+098299999V0203011N0049199999999999999999-01101+99999999999ADDKA1010M-01101KA2010N-01141OD130100771999REMSYN004BUFR
0056010300999992016011004004+69290+018129FM-12+098299999V0203091N0047199999999999999999-01101+99999999999ADDKA1010M-01081KA2010N-01131OD130100741999REMSYN004BUFR
0056010300999992016011005004+69290+018129FM-12+098299999V0203081N0040199999999999999999-01121+99999999999ADDKA1010M-01091KA2010N-01151OD130100681999REMSYN004BUFR
0056010300999992016011006004+69290+018129FM-12+098299999V0203021N0044199999999999999999-01101+99999999999ADDKA1120M-01041KA2120N-01151OD130600841999REMSYN004BUFR
0056010300999992016011007004+69290+018129FM-12+098299999V0203191N0040199999999999999999-01071+99999999999ADDKA1010M-01051KA2010N-01091OD130100781999REMSYN004BUFR
0056010300999992016011008004+69290+018129FM-12+098299999V0203021N0030199999999999999999-01071+99999999999ADDKA1010M-01051KA2010N-01091OD130100561999REMSYN004BUFR
0042010300999992016011009004+69290+018129FM-12+098299999V0203061N0026199999999999999999-01051+99999999999ADDKA1010M-01041KA2010N-01091REMSYN004BUFR
0042010300999992016011010004+69290+018129FM-12+098299999V0203201N0014199999999999999999-01121+99999999999ADDKA1010M-01061KA2010N-01131REMSYN004BUFR
0042010300999992016011011004+69290+018129FM-12+098299999V0202791N0028199999999999999999-01121+99999999999ADDKA1010M-01121KA2010N-01161REMSYN004BUFR
0056010300999992016011012004+69290+018129FM-12+098299999V0202891N0017199999999999999999-01051+99999999999ADDKA1010M-01051KA2010N-01131OD130600781999REMSYN004BUFR
0042010300999992016011014004+69290+018129FM-12+098299999V0200071N0015199999999999999999-01071+99999999999ADDKA1010M-01061KA2010N-01101REMSYN004BUFR
0042010300999992016011016004+69290+018129FM-12+098299999V0200521N0014199999999999999999-01041+99999999999ADDKA1010M-00991KA2010N-01041REMSYN004BUFR
0042010300999992016011017004+69290+018129FM-12+098299999V0201281N0021199999999999999999-00951+99999999999ADDKA1010M-00961KA2010N-01051REMSYN004BUFR
0056010300999992016011018004+69290+018129FM-12+098299999V0201241N0026199999999999999999-00951+99999999999ADDKA1120M-00931KA2120N-01161OD130600501999REMSYN004BUFR
0056010300999992016011020004+69290+018129FM-12+098299999V0201341N0041199999999999999999-00991+99999999999ADDKA1010M-00971KA2010N-00991OD130100721999REMSYN004BUFR
0056010300999992016011021004+69290+018129FM-12+098299999V0201211N0042199999999999999999-01001+99999999999ADDKA1010M-00991KA2010N-01011OD130100741999REMSYN004BUFR
0056010300999992016011022004+69290+018129FM-12+098299999V0201181N0028199999999999999999-01041+99999999999ADDKA1010M-01011KA2010N-01051OD130100721999REMSYN004BUFR
0056010300999992016011023004+69290+018129FM-12+098299999V0201271N0043199999999999999999-01051+99999999999ADDKA1010M-01031KA2010N-01061OD130100891999REMSYN004BUFR
0056010300999992016011100004+69290+018129FM-12+098299999V0200981N0039199999999999999999-01101+99999999999ADDKA1010M-01051KA2010N-01101OD130600891999REMSYN004BUFR
0056010300999992016011101004+69290+018129FM-12+098299999V0201451N0047199999999999999999-01151+99999999999ADDKA1010M-01101KA2010N-01161OD130100881999REMSYN004BUFR
0056010300999992016011102004+69290+018129FM-12+098299999V0201441N0044199999999999999999-01201+99999999999ADDKA1010M-01151KA2010N-01201OD130101021999REMSYN004BUFR
0056010300999992016011103004+69290+018129FM-12+098299999V0201311N0053199999999999999999-01201+99999999999ADDKA1010M-01191KA2010N-01231OD130101031999REMSYN004BUFR
0056010300999992016011104004+69290+018129FM-12+098299999V0201271N0061199999999999999999-01251+99999999999ADDKA1010M-01201KA2010N-01261OD130101451999REMSYN004BUFR
0056010300999992016011105004+69290+018129FM-12+098299999V0201361N0063199999999999999999-01271+99999999999ADDKA1010M-01231KA2010N-01291OD130101161999REMSYN004BUFR
0056010300999992016011106004+69290+018129FM-12+098299999V0201401N0067199999999999999999-01301+99999999999ADDKA1120M-00951KA2120N-01321OD130601451999REMSYN004BUFR
0056010300999992016011107004+69290+018129FM-12+098299999V0201391N0081199999999999999999-01321+99999999999ADDKA1010M-01301KA2010N-01331OD130101541999REMSYN004BUFR
0056010300999992016011108004+69290+018129FM-12+098299999V0201631N0052199999999999999999-01371+99999999999ADDKA1010M-01311KA2010N-01381OD130101411999REMSYN004BUFR
0056010300999992016011109004+69290+018129FM-12+098299999V0201691N0071199999999999999999-01401+99999999999ADDKA1010M-01381KA2010N-01411OD130101471999REMSYN004BUFR
0056010300999992016011110004+69290+018129FM-12+098299999V0201791N0064199999999999999999-01451+99999999999ADDKA1010M-01411KA2010N-01481OD130101771999REMSYN004BUFR
0056010300999992016011111004+69290+018129FM-12+098299999V0201781N0094199999999999999999-01501-03391999999ADDKA1010M-01431KA2010N-01511OD130101961999REMSYN004BUFR
0056010300999992016011112004+69290+018129FM-12+098299999V0201811N0083199999999999999999-01501-03391999999ADDKA1010M-01491KA2010N-01561OD130602101999REMSYN004BUFR
0056010300999992016011113004+69290+018129FM-12+098299999V0201781N0086199999999999999999-01551-03441999999ADDKA1010M-01471KA2010N-01581OD130101941999REMSYN004BUFR
0056010300999992016011114004+69290+018129FM-12+098299999V0201691N0089199999999999999999-01601+99999999999ADDKA1010M-01511KA2010N-01611OD130101861999REMSYN004BUFR
0056010300999992016011115004+69290+018129FM-12+098299999V0201581N0077199999999999999999-01571+99999999999ADDKA1010M-01571KA2010N-01651OD130101751999REMSYN004BUFR
0056010300999992016011116004+69290+018129FM-12+098299999V0201981N0049199999999999999999-01591+99999999999ADDKA1010M-01501KA2010N-01611OD130101721999REMSYN004BUFR
0056010300999992016011117004+69290+018129FM-12+098299999V0201401N0111199999999999999999-01551+99999999999ADDKA1010M-01561KA2010N-01621OD130101671999REMSYN004BUFR
0056010300999992016011118004+69290+018129FM-12+098299999V0201081N0057199999999999999999-01601+99999999999ADDKA1120M-01301KA2120N-01651OD130601941999REMSYN004BUFR
0056010300999992016011119004+69290+018129FM-12+098299999V0200711N0075199999999999999999-01621+99999999999ADDKA1010M-01581KA2010N-01661OD130101931999REMSYN004BUFR
0056010300999992016011120004+69290+018129FM-12+098299999V0200821N0068199999999999999999-01601+99999999999ADDKA1010M-01591KA2010N-01631OD130101991999REMSYN004BUFR
0056010300999992016011121004+69290+018129FM-12+098299999V0203111N0052199999999999999999-01621+99999999999ADDKA1010M-01601KA2010N-01621OD130101941999REMSYN004BUFR
0056010300999992016011122004+69290+018129FM-12+098299999V0202581N0042199999999999999999-01601+99999999999ADDKA1010M-01591KA2010N-01621OD130101831999REMSYN004BUFR
0056010300999992016011123004+69290+018129FM-12+098299999V0200751N0113199999999999999999-01601+99999999999ADDKA1010M-01601KA2010N-01621OD130102411999REMSYN004BUFR
0056010300999992016011200004+69290+018129FM-12+098299999V0200921N0079199999999999999999-01621+99999999999ADDKA1010M-01611KA2010N-01631OD130602411999REMSYN004BUFR
0056010300999992016011201004+69290+018129FM-12+098299999V0200801N0118199999999999999999-01601+99999999999ADDKA1010M-01591KA2010N-01631OD130102471999REMSYN004BUFR
0056010300999992016011202004+69290+018129FM-12+098299999V0200331N0060199999999999999999-01551+99999999999ADDKA1010M-01551KA2010N-01591OD130102491999REMSYN004BUFR
0056010300999992016011204004+69290+018129FM-12+098299999V0203601N0043199999999999999999-01501+99999999999ADDKA1010M-01511KA2010N-01531OD130101711999REMSYN004BUFR
0056010300999992016011205004+69290+018129FM-12+098299999V0203521N0044199999999999999999-01501+99999999999ADDKA1010M-01501KA2010N-01511OD130101111999REMSYN004BUFR
0056010300999992016011206004+69290+018129FM-12+098299999V0203541N0041199999999999999999-01541+99999999999ADDKA1120M-01501KA2120N-01661OD130602491999REMSYN004BUFR
0056010300999992016011207004+69290+018129FM-12+098299999V0200041N0046199999999999999999-01501+99999999999ADDKA1010M-01501KA2010N-01541OD130101881999REMSYN004BUFR
0056010300999992016011208004+69290+018129FM-12+098299999V0203581N0047199999999999999999-01521+99999999999ADDKA1010M-01511KA2010N-01531OD130102151999REMSYN004BUFR
0056010300999992016011209004+69290+018129FM-12+098299999V0200141N0052199999999999999999-01551+99999999999ADDKA1010M-01541KA2010N-01571OD130102281999REMSYN004BUFR
0056010300999992016011210004+69290+018129FM-12+098299999V0200031N0046199999999999999999-01571-03451999999ADDKA1010M-01531KA2010N-01571OD130102671999REMSYN004BUFR
0056010300999992016011211004+69290+018129FM-12+098299999V0200751N0110199999999999999999-01551+99999999999ADDKA1010M-01541KA2010N-01571OD130102381999REMSYN004BUFR
0056010300999992016011212004+69290+018129FM-12+098299999V0200811N0088199999999999999999-01551+99999999999ADDKA1010M-01541KA2010N-01571OD130602671999REMSYN004BUFR
0056010300999992016011213004+69290+018129FM-12+098299999V0200781N0106199999999999999999-01521+99999999999ADDKA1010M-01531KA2010N-01561OD130102111999REMSYN004BUFR
0056010300999992016011214004+69290+018129FM-12+098299999V0200761N0078199999999999999999-01501+99999999999ADDKA1010M-01511KA2010N-01551OD130102081999REMSYN004BUFR
0056010300999992016011215004+69290+018129FM-12+098299999V0200801N0079199999999999999999-01521+99999999999ADDKA1010M-01521KA2010N-01541OD130101771999REMSYN004BUFR
0056010300999992016011216004+69290+018129FM-12+098299999V0200771N0086199999999999999999-01541+99999999999ADDKA1010M-01511KA2010N-01551OD130101841999REMSYN004BUFR
0056010300999992016011217004+69290+018129FM-12+098299999V0200901N0051199999999999999999-01541+99999999999ADDKA1010M-01541KA2010N-01571OD130101721999REMSYN004BUFR
0056010300999992016011218004+69290+018129FM-12+098299999V0200831N0053199999999999999999-01501+99999999999ADDKA1120M-01501KA2120N-01571OD130602111999REMSYN004BUFR
0056010300999992016011219004+69290+018129FM-12+098299999V0202051N0038199999999999999999-01521+99999999999ADDKA1010M-01481KA2010N-01551OD130101541999REMSYN004BUFR
0056010300999992016011220004+69290+018129FM-12+098299999V0201331N0071199999999999999999-01551+99999999999ADDKA1010M-01521KA2010N-01591OD130101461999REMSYN004BUFR
0056010300999992016011221004+69290+018129FM-12+098299999V0200781N0056199999999999999999-01621+99999999999ADDKA1010M-01551KA2010N-01631OD130101721999REMSYN004BUFR
0056010300999992016011222004+69290+018129FM-12+098299999V0201431N0059199999999999999999-01621+99999999999ADDKA1010M-01601KA2010N-01661OD130101681999REMSYN004BUFR
0056010300999992016011223004+69290+018129FM-12+098299999V0201391N0095199999999999999999-01651+99999999999ADDKA1010M-01511KA2010N-01691OD130101831999REMSYN004BUFR
0056010300999992016011300004+69290+018129FM-12+098299999V0201521N0070199999999999999999-01651+99999999999ADDKA1010M-01591KA2010N-01711OD130601831999REMSYN004BUFR
0056010300999992016011301004+69290+018129FM-12+098299999V0201491N0062199999999999999999-01641+99999999999ADDKA1010M-01641KA2010N-01691OD130101751999REMSYN004BUFR
0056010300999992016011302004+69290+018129FM-12+098299999V0201731N0057199999999999999999-01731+99999999999ADDKA1010M-01641KA2010N-01731OD130101451999REMSYN004BUFR
0056010300999992016011303004+69290+018129FM-12+098299999V0201211N0069199999999999999999-01641+99999999999ADDKA1010M-01621KA2010N-01741OD130101531999REMSYN004BUFR
0056010300999992016011304004+69290+018129FM-12+098299999V0201681N0064199999999999999999-01621+99999999999ADDKA1010M-01601KA2010N-01651OD130101951999REMSYN004BUFR
0056010300999992016011305004+69290+018129FM-12+098299999V0201541N0062199999999999999999-01621+99999999999ADDKA1010M-01611KA2010N-01661OD130101771999REMSYN004BUFR
0056010300999992016011306004+69290+018129FM-12+098299999V0201481N0073199999999999999999-01621+99999999999ADDKA1120M-01481KA2120N-01741OD130601951999REMSYN004BUFR
0056010300999992016011307004+69290+018129FM-12+098299999V0200731N0073199999999999999999-01601+99999999999ADDKA1010M-01561KA2010N-01631OD130101631999REMSYN004BUFR
0056010300999992016011308004+69290+018129FM-12+098299999V0200741N0073199999999999999999-01601+99999999999ADDKA1010M-01591KA2010N-01621OD130101661999REMSYN004BUFR
0056010300999992016011309004+69290+018129FM-12+098299999V0200731N0062199999999999999999-01571+99999999999ADDKA1010M-01561KA2010N-01621OD130101841999REMSYN004BUFR
0056010300999992016011310004+69290+018129FM-12+098299999V0200831N0061199999999999999999-01551+99999999999ADDKA1010M-01541KA2010N-01571OD130101581999REMSYN004BUFR
0056010300999992016011311004+69290+018129FM-12+098299999V0200821N0060199999999999999999-01601+99999999999ADDKA1010M-01551KA2010N-01601OD130101741999REMSYN004BUFR
0056010300999992016011312004+69290+018129FM-12+098299999V0200761N0041199999999999999999-01571+99999999999ADDKA1010M-01571KA2010N-01641OD130601961999REMSYN004BUFR
0056010300999992016011313004+69290+018129FM-12+098299999V0200931N0044199999999999999999-01601+99999999999ADDKA1010M-01561KA2010N-01611OD130101531999REMSYN004BUFR
0056010300999992016011314004+69290+018129FM-12+098299999V0200761N0056199999999999999999-01551+99999999999ADDKA1010M-01531KA2010N-01591OD130101511999REMSYN004BUFR
0056010300999992016011316004+69290+018129FM-12+098299999V0200811N0066199999999999999999-01501+99999999999ADDKA1010M-01501KA2010N-01551OD130101431999REMSYN004BUFR
0056010300999992016011317004+69290+018129FM-12+098299999V0200761N0056199999999999999999-01501+99999999999ADDKA1010M-01481KA2010N-01511OD130101431999REMSYN004BUFR
0056010300999992016011318004+69290+018129FM-12+098299999V0203021N0030199999999999999999-01501+99999999999ADDKA1120M-01451KA2120N-01641OD130601641999REMSYN004BUFR
0056010300999992016011319004+69290+018129FM-12+098299999V0200851N0058199999999999999999-01471+99999999999ADDKA1010M-01451KA2010N-01501OD130101361999REMSYN004BUFR
0056010300999992016011320004+69290+018129FM-12+098299999V0200931N0035199999999999999999-01451+99999999999ADDKA1010M-01431KA2010N-01481OD130101391999REMSYN004BUFR
0056010300999992016011321004+69290+018129FM-12+098299999V0200761N0052199999999999999999-01401+99999999999ADDKA1010M-01401KA2010N-01461OD130101361999REMSYN004BUFR
0056010300999992016011322004+69290+018129FM-12+098299999V0200651N0051199999999999999999-01391+99999999999ADDKA1010M-01381KA2010N-01411OD130101341999REMSYN004BUFR
0056010300999992016011323004+69290+018129FM-12+098299999V0200741N0065199999999999999999-01421+99999999999ADDKA1010M-01391KA2010N-01431OD130101221999REMSYN004BUFR
0056010300999992016011400004+69290+018129FM-12+098299999V0200771N0055199999999999999999-01371+99999999999ADDKA1010M-01371KA2010N-01421OD130601391999REMSYN004BUFR
0056010300999992016011401004+69290+018129FM-12+098299999V0200811N0051199999999999999999-01371+99999999999ADDKA1010M-01381KA2010N-01431OD130101081999REMSYN004BUFR
0056010300999992016011402004+69290+018129FM-12+098299999V0200791N0053199999999999999999-01351+99999999999ADDKA1010M-01351KA2010N-01391OD130101031999REMSYN004BUFR
0056010300999992016011403004+69290+018129FM-12+098299999V0200851N0048199999999999999999-01321+99999999999ADDKA1010M-01281KA2010N-01341OD130101171999REMSYN004BUFR
0056010300999992016011404004+69290+018129FM-12+098299999V0200741N0058199999999999999999-01341+99999999999ADDKA1010M-01291KA2010N-01351OD130101091999REMSYN004BUFR
0056010300999992016011405004+69290+018129FM-12+098299999V0200501N0028199999999999999999-01351+99999999999ADDKA1010M-01341KA2010N-01361OD130100791999REMSYN004BUFR
0056010300999992016011406004+69290+018129FM-12+098299999V0200771N0030199999999999999999-01321+99999999999ADDKA1120M-01281KA2120N-01501OD130601171999REMSYN004BUFR
0042010300999992016011407004+69290+018129FM-12+098299999V0200601N0017199999999999999999-01391+99999999999ADDKA1010M-01321KA2010N-01391REMSYN004BUFR
0056010300999992016011408004+69290+018129FM-12+098299999V0200231N0025199999999999999999-01301+99999999999ADDKA1010M-01311KA2010N-01391OD130100501999REMSYN004BUFR
0056010300999992016011409004+69290+018129FM-12+098299999V0200221N0031199999999999999999-01251+99999999999ADDKA1010M-01231KA2010N-01301OD130100531999REMSYN004BUFR
0056010300999992016011410004+69290+018129FM-12+098299999V0200201N0031199999999999999999-01251+99999999999ADDKA1010M-01251KA2010N-01271OD130100501999REMSYN004BUFR
0056010300999992016011411004+69290+018129FM-12+098299999V0200181N0031199999999999999999-01191+99999999999ADDKA1010M-01191KA2010N-01251OD130100601999REMSYN004BUFR
0056010300999992016011412004+69290+018129FM-12+098299999V0203581N0046199999999999999999-01201+99999999999ADDKA1010M-01151KA2010N-01211OD130600641999REMSYN004BUFR
0056010300999992016011413004+69290+018129FM-12+098299999V0203531N0057199999999999999999-01201+99999999999ADDKA1010M-01201KA2010N-01271OD130100921999REMSYN004BUFR
0056010300999992016011415004+69290+018129FM-12+098299999V0203491N0051199999999999999999-01171+99999999999ADDKA1010M-01171KA2010N-01221OD130100871999REMSYN004BUFR
0056010300999992016011416004+69290+018129FM-12+098299999V0203341N0052199999999999999999-01151+99999999999ADDKA1010M-01141KA2010N-01181OD130101151999REMSYN004BUFR
0056010300999992016011417004+69290+018129FM-12+098299999V0203431N0052199999999999999999-01101+99999999999ADDKA1010M-01101KA2010N-01171OD130100751999REMSYN004BUFR
0056010300999992016011418004+69290+018129FM-12+098299999V0203121N0050199999999999999999-01171+99999999999ADDKA1120M-01081KA2120N-01391OD130601151999REMSYN004BUFR
0042010300999992016011420004+69290+018129FM-12+098299999V0203011N0016199999999999999999-01071+99999999999ADDKA1010M-01071KA2010N-01121REMSYN004BUFR
0042010300999992016011421004+69290+018129FM-12+098299999V0202541N0009199999999999999999-01021+99999999999ADDKA1010M-01011KA2010N-01071REMSYN004BUFR
0042010300999992016011422004+69290+018129FM-12+098299999V0202841N0012199999999999999999-01001+99999999999ADDKA1010M-01011KA2010N-01041REMSYN004BUFR
0042010300999992016011423004+69290+018129FM-12+098299999V0200801N0022199999999999999999-01021+99999999999ADDKA1010M-01011KA2010N-01031REMSYN004BUFR
0056010300999992016011500004+69290+018129FM-12+098299999V0200381N0007199999999999999999-01051+99999999999ADDKA1010M-01021KA2010N-01061OD130600711999REMSYN004BUFR
0042010300999992016011501004+69290+018129FM-12+098299999V0200591N0022199999999999999999-01101+99999999999ADDKA1010M-01051KA2010N-01111REMSYN004BUFR
0042010300999992016011502004+69290+018129FM-12+098299999V0200181N0023199999999999999999-01121+99999999999ADDKA1010M-01111KA2010N-01141REMSYN004BUFR
0056010300999992016011504004+69290+018129FM-12+098299999V0200211N0041199999999999999999-01051+99999999999ADDKA1010M-01051KA2010N-01081OD130100751999REMSYN004BUFR
0056010300999992016011505004+69290+018129FM-12+098299999V0203441N0062199999999999999999-01101+99999999999ADDKA1010M-01041KA2010N-01101OD130100941999REMSYN004BUFR
0056010300999992016011506004+69290+018129FM-12+098299999V0203411N0079199999999999999999-01141+99999999999ADDKA1120M-01011KA2120N-01161OD130601051999REMSYN004BUFR
0056010300999992016011507004+69290+018129FM-12+098299999V0203591N0053199999999999999999-01021+99999999999ADDKA1010M-01021KA2010N-01131OD130101031999REMSYN004BUFR
0056010300999992016011508004+69290+018129FM-12+098299999V0200021N0046199999999999999999-01021+99999999999ADDKA1010M-00971KA2010N-01031OD130100851999REMSYN004BUFR
0056010300999992016011509004+69290+018129FM-12+098299999V0203481N0067199999999999999999-00971+99999999999ADDKA1010M-00981KA2010N-01041OD130101091999REMSYN004BUFR
0056010300999992016011510004+69290+018129FM-12+098299999V0203481N0080199999999999999999-00951+99999999999ADDKA1010M-00951KA2010N-00981OD130101331999REMSYN004BUFR
0056010300999992016011511004+69290+018129FM-12+098299999V0203431N0079199999999999999999-00921+99999999999ADDKA1010M-00931KA2010N-00951OD130101201999REMSYN004BUFR
0056010300999992016011512004+69290+018129FM-12+098299999V0200011N0042199999999999999999-00901+99999999999ADDKA1010M-00911KA2010N-00931OD130601331999REMSYN004BUFR
0056010300999992016011513004+69290+018129FM-12+098299999V0203571N0042199999999999999999-00921+99999999999ADDKA1010M-00911KA2010N-00941OD130101001999REMSYN004BUFR
0056010300999992016011514004+69290+018129FM-12+098299999V0203491N0046199999999999999999-00901+99999999999ADDKA1010M-00911KA2010N-00921OD130101071999REMSYN004BUFR
0056010300999992016011515004+69290+018129FM-12+098299999V0200301N0046199999999999999999-00921+99999999999ADDKA1010M-00901KA2010N-00931OD130100831999REMSYN004BUFR
0056010300999992016011516004+69290+018129FM-12+098299999V0200301N0047199999999999999999-00941+99999999999ADDKA1010M-00931KA2010N-00941OD130100851999REMSYN004BUFR
0056010300999992016011518004+69290+018129FM-12+098299999V0200171N0053199999999999999999-00921+99999999999ADDKA1120M-00901KA2120N-01131OD130601071999REMSYN004BUFR
0056010300999992016011520004+69290+018129FM-12+098299999V0200161N0058199999999999999999-00901+99999999999ADDKA1010M-00901KA2010N-00921OD130100941999REMSYN004BUFR
0056010300999992016011521004+69290+018129FM-12+098299999V0203411N0053199999999999999999-00921+99999999999ADDKA1010M-00911KA2010N-00931OD130101071999REMSYN004BUFR
0056010300999992016011522004+69290+018129FM-12+098299999V0200141N0059199999999999999999-00921+99999999999ADDKA1010M-00921KA2010N-00931OD130101151999REMSYN004BUFR
0056010300999992016011523004+69290+018129FM-12+098299999V0200041N0052199999999999999999-00901+99999999999ADDKA1010M-00901KA2010N-00931OD130101121999REMSYN004BUFR
0056010300999992016011600004+69290+018129FM-12+098299999V0203401N0055199999999999999999-00901+99999999999ADDKA1010M-00891KA2010N-00911OD130601181999REMSYN004BUFR
0056010300999992016011601004+69290+018129FM-12+098299999V0203431N0061199999999999999999-00921+99999999999ADDKA1010M-00901KA2010N-00931OD130101691999REMSYN004BUFR
0056010300999992016011602004+69290+018129FM-12+098299999V0203361N0049199999999999999999-00951+99999999999ADDKA1010M-00921KA2010N-00961OD130101411999REMSYN004BUFR
0056010300999992016011603004+69290+018129FM-12+098299999V0203361N0056199999999999999999-00971+99999999999ADDKA1010M-00921KA2010N-00981OD130101551999REMSYN004BUFR
0056010300999992016011604004+69290+018129FM-12+098299999V0203541N0085199999999999999999-00941+99999999999ADDKA1010M-00941KA2010N-00991OD130101601999REMSYN004BUFR
0056010300999992016011605004+69290+018129FM-12+098299999V0203451N0082199999999999999999-00941+99999999999ADDKA1010M-00931KA2010N-00951OD130101781999REMSYN004BUFR
0056010300999992016011606004+69290+018129FM-12+098299999V0203491N0104199999999999999999-00951+99999999999ADDKA1120M-00891KA2120N-00991OD130601861999REMSYN004BUFR
0056010300999992016011607004+69290+018129FM-12+098299999V0203521N0099199999999999999999-00991+99999999999ADDKA1010M-00961KA2010N-00991OD130102011999REMSYN004BUFR
0056010300999992016011608004+69290+018129FM-12+098299999V0203481N0096199999999999999999-00921+99999999999ADDKA1010M-00931KA2010N-01001OD130101751999REMSYN004BUFR
0056010300999992016011609004+69290+018129FM-12+098299999V0203541N0099199999999999999999-00951+99999999999ADDKA1010M-00911KA2010N-00951OD130102001999REMSYN004BUFR
0056010300999992016011610004+69290+018129FM-12+098299999V0203491N0093199999999999999999-00921+99999999999ADDKA1010M-00921KA2010N-00951OD130101651999REMSYN004BUFR
0056010300999992016011611004+69290+018129FM-12+098299999V0203471N0090199999999999999999-00821+99999999999ADDKA1010M-00821KA2010N-00931OD130101471999REMSYN004BUFR
0056010300999992016011612004+69290+018129FM-12+098299999V0203521N0065199999999999999999-00841+99999999999ADDKA1010M-00801KA2010N-00841OD130602011999REMSYN004BUFR
0056010300999992016011613004+69290+018129FM-12+098299999V0203451N0071199999999999999999-00871+99999999999ADDKA1010M-00851KA2010N-00911OD130101321999REMSYN004BUFR
0056010300999992016011614004+69290+018129FM-12+098299999V0203391N0085199999999999999999-00821+99999999999ADDKA1010M-00831KA2010N-00891OD130101291999REMSYN004BUFR
0056010300999992016011615004+69290+018129FM-12+098299999V0203521N0076199999999999999999-00851+99999999999ADDKA1010M-00821KA2010N-00851OD130101401999REMSYN004BUFR
0056010300999992016011616004+69290+018129FM-12+098299999V0203461N0079199999999999999999-00821+99999999999ADDKA1010M-00831KA2010N-00871OD130101361999REMSYN004BUFR
0056010300999992016011618004+69290+018129FM-12+098299999V0203511N0070199999999999999999-00871+99999999999ADDKA1120M-00801KA2120N-01001OD130601621999REMSYN004BUFR
0056010300999992016011620004+69290+018129FM-12+098299999V0203371N0100199999999999999999-00801+99999999999ADDKA1010M-00801KA2010N-00841OD130101281999REMSYN004BUFR
0056010300999992016011621004+69290+018129FM-12+098299999V0203351N0100199999999999999999-00821+99999999999ADDKA1010M-00791KA2010N-00861OD130101441999REMSYN004BUFR
0056010300999992016011622004+69290+018129FM-12+098299999V0203381N0082199999999999999999-00821+99999999999ADDKA1010M-00821KA2010N-00831OD130101501999REMSYN004BUFR
0056010300999992016011623004+69290+018129FM-12+098299999V0203401N0100199999999999999999-00821+99999999999ADDKA1010M-00811KA2010N-00841OD130101641999REMSYN004BUFR
0056010300999992016011700004+69290+018129FM-12+098299999V0203371N0102199999999999999999-00801+99999999999ADDKA1010M-00801KA2010N-00861OD130601641999REMSYN004BUFR
0056010300999992016011703004+69290+018129FM-12+098299999V0203351N0091199999999999999999-00851+99999999999ADDKA1010M-00831KA2010N-00851OD130101661999REMSYN004BUFR
0056010300999992016011704004+69290+018129FM-12+098299999V0203331N0104199999999999999999-00821+99999999999ADDKA1010M-00821KA2010N-00851OD130101561999REMSYN004BUFR
0056010300999992016011705004+69290+018129FM-12+098299999V0203281N0112199999999999999999-00851+99999999999ADDKA1010M-00821KA2010N-00851OD130101701999REMSYN004BUFR
0056010300999992016011706004+69290+018129FM-12+098299999V0203321N0108199999999999999999-00901+99999999999ADDKA1120M-00791KA2120N-00901OD130601711999REMSYN004BUFR
0056010300999992016011707004+69290+018129FM-12+098299999V0203261N0124199999999999999999-00871+99999999999ADDKA1010M-00881KA2010N-00911OD130102011999REMSYN004BUFR
0056010300999992016011708004+69290+018129FM-12+098299999V0203271N0109199999999999999999-00871+99999999999ADDKA1010M-00881KA2010N-00911OD130101881999REMSYN004BUFR
0056010300999992016011709004+69290+018129FM-12+098299999V0203301N0112199999999999999999-00871+99999999999ADDKA1010M-00861KA2010N-00881OD130101751999REMSYN004BUFR
0056010300999992016011710004+69290+018129FM-12+098299999V0203281N0111199999999999999999-00851+99999999999ADDKA1010M-00861KA2010N-00881OD130101941999REMSYN004BUFR
0056010300999992016011711004+69290+018129FM-12+098299999V0203301N0117199999999999999999-00821+99999999999ADDKA1010M-00791KA2010N-00861OD130101891999REMSYN004BUFR
0056010300999992016011712004+69290+018129FM-12+098299999V0203301N0083199999999999999999-00791+99999999999ADDKA1010M-00791KA2010N-00831OD130602011999REMSYN004BUFR
0056010300999992016011713004+69290+018129FM-12+098299999V0203391N0071199999999999999999-00771+99999999999ADDKA1010M-00771KA2010N-00791OD130101641999REMSYN004BUFR
0056010300999992016011714004+69290+018129FM-12+098299999V0203581N0032199999999999999999-00791+99999999999ADDKA1010M-00771KA2010N-00791OD130101311999REMSYN004BUFR
0056010300999992016011715004+69290+018129FM-12+098299999V0200151N0044199999999999999999-00841+99999999999ADDKA1010M-00791KA2010N-00841OD130100671999REMSYN004BUFR
0056010300999992016011716004+69290+018129FM-12+098299999V0200151N0027199999999999999999-00841+99999999999ADDKA1010M-00841KA2010N-00841OD130100741999REMSYN004BUFR
0042010300999992016011717004+69290+018129FM-12+098299999V0203551N0013199999999999999999-00851+99999999999ADDKA1010M-00841KA2010N-00861REMSYN004BUFR
0056010300999992016011718004+69290+018129FM-12+098299999V0200611N0025199999999999999999-00871+99999999999ADDKA1120M-00771KA2120N-00911OD130601641999REMSYN004BUFR
0056010300999992016011719004+69290+018129FM-12+098299999V0201401N0042199999999999999999-01321+99999999999ADDKA1010M-00871KA2010N-01401OD130100821999REMSYN004BUFR
0056010300999992016011721004+69290+018129FM-12+098299999V0201421N0074199999999999999999-01541+99999999999ADDKA1010M-01511KA2010N-01571OD130101251999REMSYN004BUFR
0056010300999992016011722004+69290+018129FM-12+098299999V0201421N0070199999999999999999-01621+99999999999ADDKA1010M-01541KA2010N-01641OD130101371999REMSYN004BUFR
0056010300999992016011723004+69290+018129FM-12+098299999V0201251N0057199999999999999999-01601+99999999999ADDKA1010M-01571KA2010N-01661OD130101301999REMSYN004BUFR
0056010300999992016011800004+69290+018129FM-12+098299999V0201331N0076199999999999999999-01601+99999999999ADDKA1010M-01601KA2010N-01671OD130601371999REMSYN004BUFR
0056010300999992016011802004+69290+018129FM-12+098299999V0201321N0062199999999999999999-01641+99999999999ADDKA1010M-01571KA2010N-01691OD130101001999REMSYN004BUFR
0056010300999992016011803004+69290+018129FM-12+098299999V0201651N0052199999999999999999-01651+99999999999ADDKA1010M-01561KA2010N-01721OD130100841999REMSYN004BUFR
0056010300999992016011804004+69290+018129FM-12+098299999V0201611N0056199999999999999999-01651+99999999999ADDKA1010M-01561KA2010N-01711OD130100811999REMSYN004BUFR
0056010300999992016011805004+69290+018129FM-12+098299999V0201581N0066199999999999999999-01701+99999999999ADDKA1010M-01611KA2010N-01741OD130100851999REMSYN004BUFR
0056010300999992016011806004+69290+018129FM-12+098299999V0201541N0065199999999999999999-01741+99999999999ADDKA1120M-00871KA2120N-01781OD130601271999REMSYN004BUFR
0056010300999992016011807004+69290+018129FM-12+098299999V0201431N0057199999999999999999-01601+99999999999ADDKA1010M-01601KA2010N-01741OD130100961999REMSYN004BUFR
0056010300999992016011808004+69290+018129FM-12+098299999V0201491N0059199999999999999999-01701+99999999999ADDKA1010M-01581KA2010N-01751OD130100981999REMSYN004BUFR
0056010300999992016011809004+69290+018129FM-12+098299999V0201421N0058199999999999999999-01651+99999999999ADDKA1010M-01641KA2010N-01771OD130100991999REMSYN004BUFR
0056010300999992016011810004+69290+018129FM-12+098299999V0201431N0064199999999999999999-01671+99999999999ADDKA1010M-01621KA2010N-01721OD130101041999REMSYN004BUFR
0056010300999992016011811004+69290+018129FM-12+098299999V0201651N0058199999999999999999-01701+99999999999ADDKA1010M-01551KA2010N-01701OD130101061999REMSYN004BUFR
0056010300999992016011812004+69290+018129FM-12+098299999V0201591N0057199999999999999999-01671+99999999999ADDKA1010M-01621KA2010N-01691OD130601061999REMSYN004BUFR
0056010300999992016011813004+69290+018129FM-12+098299999V0201521N0057199999999999999999-01671+99999999999ADDKA1010M-01641KA2010N-01681OD130100961999REMSYN004BUFR
0056010300999992016011814004+69290+018129FM-12+098299999V0201741N0035199999999999999999-01621+99999999999ADDKA1010M-01611KA2010N-01691OD130100861999REMSYN004BUFR
0056010300999992016011815004+69290+018129FM-12+098299999V0202051N0022199999999999999999-01441+99999999999ADDKA1010M-01431KA2010N-01631OD130100701999REMSYN004BUFR
0042010300999992016011816004+69290+018129FM-12+098299999V0201991N0029199999999999999999-01401+99999999999ADDKA1010M-01371KA2010N-01491REMSYN004BUFR
0042010300999992016011817004+69290+018129FM-12+098299999V0201851N0030199999999999999999-01401+99999999999ADDKA1010M-01361KA2010N-01421REMSYN004BUFR
0056010300999992016011818004+69290+018129FM-12+098299999V0202521N0023199999999999999999-01421+99999999999ADDKA1120M-01361KA2120N-01771OD130600961999REMSYN004BUFR
0042010300999992016011819004+69290+018129FM-12+098299999V0202611N0014199999999999999999-01351+99999999999ADDKA1010M-01361KA2010N-01451REMSYN004BUFR
0042010300999992016011820004+69290+018129FM-12+098299999V0202731N0016199999999999999999-01351+99999999999ADDKA1010M-01331KA2010N-01381REMSYN004BUFR
0042010300999992016011821004+69290+018129FM-12+098299999V0202591N0010199999999999999999-01351+99999999999ADDKA1010M-01321KA2010N-01381REMSYN004BUFR
0042010300999992016011822004+69290+018129FM-12+098299999V0203231N0014199999999999999999-01451+99999999999ADDKA1010M-01331KA2010N-01461REMSYN004BUFR
0042010300999992016011823004+69290+018129FM-12+098299999V0203491N0010199999999999999999-01451+99999999999ADDKA1010M-01391KA2010N-01471REMSYN004BUFR
0042010300999992016011900004+69290+018129FM-12+098299999V0200011N0012199999999999999999-01501+99999999999ADDKA1010M-01431KA2010N-01531REMSYN004BUFR
0042010300999992016011901004+69290+018129FM-12+098299999V0200881N0019199999999999999999-01401+99999999999ADDKA1010M-01391KA2010N-01501REMSYN004BUFR
0042010300999992016011902004+69290+018129FM-12+098299999V0200931N0020199999999999999999-01351+99999999999ADDKA1010M-01301KA2010N-01391REMSYN004BUFR
0042010300999992016011903004+69290+018129FM-12+098299999V0201161N0023199999999999999999-01371+99999999999ADDKA1010M-01331KA2010N-01381REMSYN004BUFR
0056010300999992016011905004+69290+018129FM-12+098299999V0201501N0048199999999999999999-01451+99999999999ADDKA1010M-01441KA2010N-01511OD130100711999REMSYN004BUFR
0056010300999992016011906004+69290+018129FM-12+098299999V0201441N0043199999999999999999-01421+99999999999ADDKA1120M-01301KA2120N-01531OD130600751999REMSYN004BUFR
0056010300999992016011909004+69290+018129FM-12+098299999V0200831N0047199999999999999999-01421+99999999999ADDKA1010M-01371KA2010N-01451OD130100611999REMSYN004BUFR
0056010300999992016011910004+69290+018129FM-12+098299999V0200791N0049199999999999999999-01391+99999999999ADDKA1010M-01381KA2010N-01451OD130100821999REMSYN004BUFR
0056010300999992016011911004+69290+018129FM-12+098299999V0200841N0031199999999999999999-01371+99999999999ADDKA1010M-01341KA2010N-01401OD130100601999REMSYN004BUFR
0056010300999992016011912004+69290+018129FM-12+098299999V0200841N0030199999999999999999-01421+99999999999ADDKA1010M-01361KA2010N-01421OD130600821999REMSYN004BUFR
0042010300999992016011913004+69290+018129FM-12+098299999V0200731N0021199999999999999999-01471+99999999999ADDKA1010M-01411KA2010N-01471REMSYN004BUFR
0056010300999992016011914004+69290+018129FM-12+098299999V0200741N0031199999999999999999-01471+99999999999ADDKA1010M-01461KA2010N-01501OD130100521999REMSYN004BUFR
0056010300999992016011915004+69290+018129FM-12+098299999V0200641N0027199999999999999999-01501+99999999999ADDKA1010M-01471KA2010N-01511OD130100601999REMSYN004BUFR
0056010300999992016011916004+69290+018129FM-12+098299999V0200511N0023199999999999999999-01551+99999999999ADDKA1010M-01501KA2010N-01561OD130100511999REMSYN004BUFR
0056010300999992016011917004+69290+018129FM-12+098299999V0200821N0034199999999999999999-01501+99999999999ADDKA1010M-01471KA2010N-01581OD130100531999REMSYN004BUFR
0056010300999992016011918004+69290+018129FM-12+098299999V0200801N0023199999999999999999-01551+99999999999ADDKA1120M-01341KA2120N-01581OD130600601999REMSYN004BUFR
0042010300999992016011921004+69290+018129FM-12+098299999V0200541N0028199999999999999999-01371+99999999999ADDKA1010M-01381KA2010N-01421REMSYN004BUFR
0056010300999992016011922004+69290+018129FM-12+098299999V0200301N0027199999999999999999-01371+99999999999ADDKA1010M-01371KA2010N-01391OD130100521999REMSYN004BUFR
0056010300999992016011923004+69290+018129FM-12+098299999V0200021N0037199999999999999999-01301+99999999999ADDKA1010M-01291KA2010N-01381OD130100511999REMSYN004BUFR
0056010300999992016012000004+69290+018129FM-12+098299999V0203481N0057199999999999999999-01351+99999999999ADDKA1010M-01251KA2010N-01351OD130600791999REMSYN004BUFR
0056010300999992016012001004+69290+018129FM-12+098299999V0203381N0054199999999999999999-01301+99999999999ADDKA1010M-01281KA2010N-01351OD130100851999REMSYN004BUFR
0056010300999992016012002004+69290+018129FM-12+098299999V0203381N0055199999999999999999-01301+99999999999ADDKA1010M-01291KA2010N-01331OD130100801999REMSYN004BUFR
0056010300999992016012003004+69290+018129FM-12+098299999V0203311N0060199999999999999999-01301+99999999999ADDKA1010M-01271KA2010N-01331OD130100791999REMSYN004BUFR
0056010300999992016012006004+69290+018129FM-12+098299999V0203101N0049199999999999999999-01251+99999999999ADDKA1120M-01231KA2120N-01541OD130601331999REMSYN004BUFR
0056010300999992016012008004+69290+018129FM-12+098299999V0203011N0048199999999999999999-01121+99999999999ADDKA1010M-01101KA2010N-01151OD130100831999REMSYN004BUFR
0056010300999992016012009004+69290+018129FM-12+098299999V0203051N0039199999999999999999-01101+99999999999ADDKA1010M-01071KA2010N-01121OD130100771999REMSYN004BUFR
0056010300999992016012010004+69290+018129FM-12+098299999V0203031N0034199999999999999999-01091+99999999999ADDKA1010M-01091KA2010N-01171OD130100691999REMSYN004BUFR
0056010300999992016012012004+69290+018129FM-12+098299999V0202901N0048199999999999999999-01051+99999999999ADDKA1010M-01011KA2010N-01081OD130600831999REMSYN004BUFR
0056010300999992016012013004+69290+018129FM-12+098299999V0202901N0059199999999999999999-01051+99999999999ADDKA1010M-01051KA2010N-01091OD130100811999REMSYN004BUFR
0056010300999992016012014004+69290+018129FM-12+098299999V0203151N0051199999999999999999-00971+99999999999ADDKA1010M-00971KA2010N-01041OD130100981999REMSYN004BUFR
0056010300999992016012016004+69290+018129FM-12+098299999V0202931N0043199999999999999999-01041+99999999999ADDKA1010M-01001KA2010N-01091OD130100651999REMSYN004BUFR
0056010300999992016012017004+69290+018129FM-12+098299999V0202941N0042199999999999999999-01021+99999999999ADDKA1010M-01001KA2010N-01051OD130100671999REMSYN004BUFR
0056010300999992016012018004+69290+018129FM-12+098299999V0202881N0051199999999999999999-01071+99999999999ADDKA1120M-00971KA2120N-01241OD130600981999REMSYN004BUFR
0056010300999992016012019004+69290+018129FM-12+098299999V0202741N0035199999999999999999-01021+99999999999ADDKA1010M-01021KA2010N-01071OD130100661999REMSYN004BUFR
0056010300999992016012020004+69290+018129FM-12+098299999V0202611N0029199999999999999999-01021+99999999999ADDKA1010M-01031KA2010N-01041OD130100501999REMSYN004BUFR
0042010300999992016012021004+69290+018129FM-12+098299999V0202641N0032199999999999999999-01021+99999999999ADDKA1010M-01021KA2010N-01041REMSYN004BUFR
0056010300999992016012022004+69290+018129FM-12+098299999V0202341N0041199999999999999999-01051+99999999999ADDKA1010M-01021KA2010N-01061OD130100501999REMSYN004BUFR
0056010300999992016012100004+69290+018129FM-12+098299999V0202561N0054199999999999999999-01051+99999999999ADDKA1010M-01061KA2010N-01081OD130600761999REMSYN004BUFR
0056010300999992016012101004+69290+018129FM-12+098299999V0202601N0048199999999999999999-01021+99999999999ADDKA1010M-01021KA2010N-01071OD130100681999REMSYN004BUFR
0056010300999992016012102004+69290+018129FM-12+098299999V0202601N0055199999999999999999-00991+99999999999ADDKA1010M-00991KA2010N-01021OD130100891999REMSYN004BUFR
0056010300999992016012103004+69290+018129FM-12+098299999V0202631N0064199999999999999999-01041+99999999999ADDKA1010M-00991KA2010N-01041OD130100891999REMSYN004BUFR
0056010300999992016012104004+69290+018129FM-12+098299999V0202761N0095199999999999999999-01051+99999999999ADDKA1010M-01011KA2010N-01061OD130101341999REMSYN004BUFR
0056010300999992016012105004+69290+018129FM-12+098299999V0202641N0072199999999999999999-01051+99999999999ADDKA1010M-01031KA2010N-01061OD130101131999REMSYN004BUFR
0056010300999992016012106004+69290+018129FM-12+098299999V0202651N0071199999999999999999-01021+99999999999ADDKA1120M-00991KA2120N-01081OD130601341999REMSYN004BUFR
0056010300999992016012108004+69290+018129FM-12+098299999V0202721N0052199999999999999999-01021+99999999999ADDKA1010M-01021KA2010N-01041OD130100691999REMSYN004BUFR
0056010300999992016012109004+69290+018129FM-12+098299999V0202691N0053199999999999999999-00991+99999999999ADDKA1010M-00971KA2010N-01011OD130100631999REMSYN004BUFR
0056010300999992016012110004+69290+018129FM-12+098299999V0202681N0058199999999999999999-00941+99999999999ADDKA1010M-00941KA2010N-01001OD130100811999REMSYN004BUFR
0056010300999992016012111004+69290+018129FM-12+098299999V0202641N0075199999999999999999-00971+99999999999ADDKA1010M-00941KA2010N-00981OD130101041999REMSYN004BUFR
0049010300999992016012112004+69283+018133FM-12+098299999V020999999999999999999999999999+99999+99999999999REMSYN04001030 46/// /2607 11096 2//// 333 91110=
0056010300999992016012113004+69290+018129FM-12+098299999V0202611N0061199999999999999999-00921+99999999999ADDKA1010M-00921KA2010N-00971OD130100901999REMSYN004BUFR
0056010300999992016012114004+69290+018129FM-12+098299999V0202721N0060199999999999999999-00871+99999999999ADDKA1010M-00881KA2010N-00921OD130100891999REMSYN004BUFR
0056010300999992016012115004+69290+018129FM-12+098299999V0202671N0081199999999999999999-00871+99999999999ADDKA1010M-00861KA2010N-00881OD130101131999REMSYN004BUFR
0056010300999992016012116004+69290+018129FM-12+098299999V0202441N0086199999999999999999-00801+99999999999ADDKA1010M-00801KA2010N-00871OD130101171999REMSYN004BUFR
0056010300999992016012117004+69290+018129FM-12+098299999V0202281N0090199999999999999999-00751+99999999999ADDKA1010M-00761KA2010N-00801OD130101191999REMSYN004BUFR
0055010300999992016012118004+69283+018133FM-12+098299999V020999999999999999999999999999+99999+99999999999REMSYN04601030 46/// /2310 11078 2//// 333 11076 91114=
0056010300999992016012119004+69290+018129FM-12+098299999V0202361N0125199999999999999999-00771+99999999999ADDKA1010M-00771KA2010N-00781OD130101661999REMSYN004BUFR
0056010300999992016012120004+69290+018129FM-12+098299999V0202531N0107199999999999999999-00751+99999999999ADDKA1010M-00741KA2010N-00771OD130101901999REMSYN004BUFR
0056010300999992016012121004+69290+018129FM-12+098299999V0202511N0127199999999999999999-00721+99999999999ADDKA1010M-00731KA2010N-00751OD130101771999REMSYN004BUFR
0056010300999992016012122004+69290+018129FM-12+098299999V0202411N0113199999999999999999-00701+99999999999ADDKA1010M-00711KA2010N-00731OD130101611999REMSYN004BUFR
0056010300999992016012123004+69290+018129FM-12+098299999V0202331N0103199999999999999999-00651+99999999999ADDKA1010M-00661KA2010N-00711OD130101431999REMSYN004BUFR
0056010300999992016012200004+69290+018129FM-12+098299999V0202331N0113199999999999999999-00621+99999999999ADDKA1010M-00621KA2010N-00661OD130601901999REMSYN004BUFR
0056010300999992016012202004+69290+018129FM-12+098299999V0202411N0173199999999999999999-00551+99999999999ADDKA1010M-00561KA2010N-00601OD130102081999REMSYN004BUFR
0056010300999992016012203004+69290+018129FM-12+098299999V0202531N0181199999999999999999-00541+99999999999ADDKA1010M-00541KA2010N-00561OD130102511999REMSYN004BUFR
0056010300999992016012204004+69290+018129FM-12+098299999V0202511N0180199999999999999999-00521+99999999999ADDKA1010M-00521KA2010N-00541OD130102391999REMSYN004BUFR
0056010300999992016012205004+69290+018129FM-12+098299999V0202551N0178199999999999999999-00501+99999999999ADDKA1010M-00501KA2010N-00521OD130102301999REMSYN004BUFR
0056010300999992016012206004+69290+018129FM-12+098299999V0202641N0194199999999999999999-00491+99999999999ADDKA1120M-00491KA2120N-00781OD130602511999REMSYN004BUFR
0056010300999992016012207004+69290+018129FM-12+098299999V0202651N0186199999999999999999-00471+99999999999ADDKA1010M-00481KA2010N-00491OD130102321999REMSYN004BUFR
0056010300999992016012208004+69290+018129FM-12+098299999V0202611N0185199999999999999999-00451+99999999999ADDKA1010M-00461KA2010N-00481OD130102361999REMSYN004BUFR
0056010300999992016012209004+69290+018129FM-12+098299999V0202571N0177199999999999999999-00441+99999999999ADDKA1010M-00441KA2010N-00461OD130102091999REMSYN004BUFR
0056010300999992016012210004+69290+018129FM-12+098299999V0202601N0166199999999999999999-00421+99999999999ADDKA1010M-00421KA2010N-00441OD130102151999REMSYN004BUFR
0056010300999992016012211004+69290+018129FM-12+098299999V0202611N0171199999999999999999-00401+99999999999ADDKA1010M-00411KA2010N-00421OD130103301999REMSYN004BUFR
0056010300999992016012212004+69290+018129FM-12+098299999V0202661N0175199999999999999999-00391+99999999999ADDKA1010M-00391KA2010N-00411OD130603301999REMSYN004BUFR
0056010300999992016012213004+69290+018129FM-12+098299999V0202671N0181199999999999999999-00371+99999999999ADDKA1010M-00381KA2010N-00391OD130102261999REMSYN004BUFR
0056010300999992016012214004+69290+018129FM-12+098299999V0202691N0168199999999999999999-00351+99999999999ADDKA1010M-00361KA2010N-00381OD130102091999REMSYN004BUFR
0056010300999992016012215004+69290+018129FM-12+098299999V0202751N0174199999999999999999-00351+99999999999ADDKA1010M-00361KA2010N-00361OD130102121999REMSYN004BUFR
0056010300999992016012216004+69290+018129FM-12+098299999V0202791N0173199999999999999999-00351+99999999999ADDKA1010M-00351KA2010N-00361OD130102271999REMSYN004BUFR
0056010300999992016012217004+69290+018129FM-12+098299999V0202741N0172199999999999999999-00351+99999999999ADDKA1010M-00341KA2010N-00361OD130102151999REMSYN004BUFR
0056010300999992016012218004+69290+018129FM-12+098299999V0202781N0152199999999999999999-00341+99999999999ADDKA1120M-00341KA2120N-00491OD130602271999REMSYN004BUFR
0056010300999992016012219004+69290+018129FM-12+098299999V0203001N0132199999999999999999-00351+99999999999ADDKA1010M-00331KA2010N-00351OD130101801999REMSYN004BUFR
0056010300999992016012220004+69290+018129FM-12+098299999V0202691N0147199999999999999999-00351+99999999999ADDKA1010M-00351KA2010N-00361OD130103491999REMSYN004BUFR
0056010300999992016012221004+69290+018129FM-12+098299999V0202671N0132199999999999999999-00371+99999999999ADDKA1010M-00361KA2010N-00371OD130101711999REMSYN004BUFR
0056010300999992016012222004+69290+018129FM-12+098299999V0202721N0133199999999999999999-00371+99999999999ADDKA1010M-00371KA2010N-00371OD130101631999REMSYN004BUFR
0056010300999992016012223004+69290+018129FM-12+098299999V0202661N0110199999999999999999-00351+99999999999ADDKA1010M-00361KA2010N-00371OD130101461999REMSYN004BUFR
0056010300999992016012300004+69290+018129FM-12+098299999V0202641N0077199999999999999999-00371+99999999999ADDKA1010M-00351KA2010N-00371OD130603491999REMSYN004BUFR
0056010300999992016012301004+69290+018129FM-12+098299999V0202641N0051199999999999999999-00351+99999999999ADDKA1010M-00361KA2010N-00371OD130100981999REMSYN004BUFR
0056010300999992016012302004+69290+018129FM-12+098299999V0202391N0027199999999999999999-00351+99999999999ADDKA1010M-00361KA2010N-00361OD130100621999REMSYN004BUFR
0042010300999992016012303004+69290+018129FM-12+098299999V0202031N0032199999999999999999-00351+99999999999ADDKA1010M-00351KA2010N-00361REMSYN004BUFR
0056010300999992016012304004+69290+018129FM-12+098299999V0201851N0022199999999999999999-00371+99999999999ADDKA1010M-00361KA2010N-00381OD130100521999REMSYN004BUFR
0056010300999992016012305004+69290+018129FM-12+098299999V0201581N0022199999999999999999-00421+99999999999ADDKA1010M-00381KA2010N-00431OD130100511999REMSYN004BUFR
0056010300999992016012306004+69290+018129FM-12+098299999V0200241N0022199999999999999999-00471+99999999999ADDKA1120M-00331KA2120N-00481OD130600981999REMSYN004BUFR
0056010300999992016012307004+69290+018129FM-12+098299999V0201441N0047199999999999999999-00541+99999999999ADDKA1010M-00481KA2010N-00541OD130100871999REMSYN004BUFR
0056010300999992016012308004+69290+018129FM-12+098299999V0201591N0049199999999999999999-00571+99999999999ADDKA1010M-00541KA2010N-00581OD130101151999REMSYN004BUFR
0056010300999992016012309004+69290+018129FM-12+098299999V0201231N0050199999999999999999-00591+99999999999ADDKA1010M-00571KA2010N-00601OD130101001999REMSYN004BUFR
0056010300999992016012310004+69290+018129FM-12+098299999V0201471N0058199999999999999999-00541+99999999999ADDKA1010M-00541KA2010N-00601OD130100961999REMSYN004BUFR
0056010300999992016012311004+69290+018129FM-12+098299999V0201521N0054199999999999999999-00521+99999999999ADDKA1010M-00531KA2010N-00561OD130100861999REMSYN004BUFR
0049010300999992016012312004+69283+018133FM-12+098299999V020999999999999999999999999999+99999+99999999999REMSYN04001030 46/// /1405 11059 2//// 333 91112=
0056010300999992016012313004+69290+018129FM-12+098299999V0201481N0056199999999999999999-00601+99999999999ADDKA1010M-00581KA2010N-00611OD130100861999REMSYN004BUFR
0056010300999992016012314004+69290+018129FM-12+098299999V0201741N0038199999999999999999-00601+99999999999ADDKA1010M-00591KA2010N-00611OD130100861999REMSYN004BUFR
0056010300999992016012315004+69290+018129FM-12+098299999V0201811N0031199999999999999999-00601+99999999999ADDKA1010M-00591KA2010N-00611OD130100521999REMSYN004BUFR
0056010300999992016012316004+69290+018129FM-12+098299999V0202681N0043199999999999999999-00571+99999999999ADDKA1010M-00571KA2010N-00611OD130100531999REMSYN004BUFR
0042010300999992016012317004+69290+018129FM-12+098299999V0202531N0020199999999999999999-00601+99999999999ADDKA1010M-00561KA2010N-00601REMSYN004BUFR
0055010300999992016012318004+69283+018133FM-12+098299999V020999999999999999999999999999+99999+99999999999REMSYN04601030 46/// /2603 11060 2//// 333 11048 91109=
0042010300999992016012319004+69290+018129FM-12+098299999V0202381N0032199999999999999999-00621+99999999999ADDKA1010M-00601KA2010N-00621REMSYN004BUFR
0056010300999992016012320004+69290+018129FM-12+098299999V0202621N0045199999999999999999-00621+99999999999ADDKA1010M-00621KA2010N-00641OD130100541999REMSYN004BUFR
0056010300999992016012321004+69290+018129FM-12+098299999V0202541N0031199999999999999999-00651+99999999999ADDKA1010M-00631KA2010N-00661OD130100551999REMSYN004BUFR
0042010300999992016012322004+69290+018129FM-12+098299999V0202051N0030199999999999999999-00651+99999999999ADDKA1010M-00651KA2010N-00661REMSYN004BUFR
0042010300999992016012323004+69290+018129FM-12+098299999V0201751N0027199999999999999999-00641+99999999999ADDKA1010M-00631KA2010N-00671REMSYN004BUFR
0056010300999992016012400004+69290+018129FM-12+098299999V0201981N0025199999999999999999-00621+99999999999ADDKA1010M-00621KA2010N-00631OD130600551999REMSYN004BUFR
0056010300999992016012401004+69290+018129FM-12+098299999V0202301N0032199999999999999999-00691+99999999999ADDKA1010M-00641KA2010N-00701OD130100641999REMSYN004BUFR
0042010300999992016012402004+69290+018129FM-12+098299999V0202481N0026199999999999999999-00701+99999999999ADDKA1010M-00691KA2010N-00711REMSYN004BUFR
0042010300999992016012403004+69290+018129FM-12+098299999V0201961N0035199999999999999999-00671+99999999999ADDKA1010M-00671KA2010N-00711REMSYN004BUFR
0042010300999992016012404004+69290+018129FM-12+098299999V0201761N0033199999999999999999-00651+99999999999ADDKA1010M-00631KA2010N-00661REMSYN004BUFR
0042010300999992016012405004+69290+018129FM-12+098299999V0202391N0024199999999999999999-00641+99999999999ADDKA1010M-00641KA2010N-00661REMSYN004BUFR
0056010300999992016012406004+69290+018129FM-12+098299999V0202631N0040199999999999999999-00591+99999999999ADDKA1120M-00581KA2120N-00711OD130600641999REMSYN004BUFR
0056010300999992016012407004+69290+018129FM-12+098299999V0202631N0040199999999999999999-00621+99999999999ADDKA1010M-00591KA2010N-00621OD130100561999REMSYN004BUFR
0056010300999992016012408004+69290+018129FM-12+098299999V0202691N0056199999999999999999-00401+99999999999ADDKA1010M-00411KA2010N-00621OD130100691999REMSYN004BUFR
0056010300999992016012409004+69290+018129FM-12+098299999V0202671N0069199999999999999999-00401+99999999999ADDKA1010M-00401KA2010N-00411OD130100891999REMSYN004BUFR
0056010300999992016012412004+69290+018129FM-12+098299999V0202701N0072199999999999999999-00371+99999999999ADDKA1010M-00381KA2010N-00391OD130600921999REMSYN004BUFR
0056010300999992016012413004+69290+018129FM-12+098299999V0202711N0086199999999999999999-00351+99999999999ADDKA1010M-00361KA2010N-00391OD130101041999REMSYN004BUFR
0056010300999992016012414004+69290+018129FM-12+098299999V0202831N0069199999999999999999-00341+99999999999ADDKA1010M-00341KA2010N-00371OD130101031999REMSYN004BUFR
0056010300999992016012415004+69290+018129FM-12+098299999V0202711N0080199999999999999999-00351+99999999999ADDKA1010M-00341KA2010N-00351OD130101241999REMSYN004BUFR
0056010300999992016012416004+69290+018129FM-12+098299999V0202641N0064199999999999999999-00341+99999999999ADDKA1010M-00341KA2010N-00361OD130101081999REMSYN004BUFR
0056010300999992016012417004+69290+018129FM-12+098299999V0202631N0067199999999999999999-00321+99999999999ADDKA1010M-00331KA2010N-00341OD130100951999REMSYN004BUFR
0056010300999992016012418004+69290+018129FM-12+098299999V0202631N0061199999999999999999-00321+99999999999ADDKA1120M-00331KA2120N-00621OD130601241999REMSYN004BUFR
0056010300999992016012419004+69290+018129FM-12+098299999V0202631N0080199999999999999999-00341+99999999999ADDKA1010M-00331KA2010N-00341OD130100961999REMSYN004BUFR
0056010300999992016012420004+69290+018129FM-12+098299999V0202751N0119199999999999999999-00351+99999999999ADDKA1010M-00341KA2010N-00361OD130101511999REMSYN004BUFR
0056010300999992016012421004+69290+018129FM-12+098299999V0202731N0111199999999999999999-00371+99999999999ADDKA1010M-00361KA2010N-00371OD130101421999REMSYN004BUFR
0056010300999992016012422004+69290+018129FM-12+098299999V0202791N0113199999999999999999-00351+99999999999ADDKA1010M-00361KA2010N-00381OD130101581999REMSYN004BUFR
0056010300999992016012423004+69290+018129FM-12+098299999V0202721N0096199999999999999999-00351+99999999999ADDKA1010M-00361KA2010N-00391OD130101351999REMSYN004BUFR
0056010300999992016012500004+69290+018129FM-12+098299999V0202731N0105199999999999999999-00371+99999999999ADDKA1010M-00361KA2010N-00381OD130601581999REMSYN004BUFR
0056010300999992016012501004+69290+018129FM-12+098299999V0202681N0104199999999999999999-00371+99999999999ADDKA1010M-00381KA2010N-00391OD130101411999REMSYN004BUFR
0056010300999992016012502004+69290+018129FM-12+098299999V0202731N0110199999999999999999-00371+99999999999ADDKA1010M-00371KA2010N-00391OD130101331999REMSYN004BUFR
0056010300999992016012503004+69290+018129FM-12+098299999V0202841N0113199999999999999999-00371+99999999999ADDKA1010M-00371KA2010N-00401OD130101481999REMSYN004BUFR
0056010300999992016012504004+69290+018129FM-12+098299999V0202871N0114199999999999999999-00371+99999999999ADDKA1010M-00371KA2010N-00381OD130101551999REMSYN004BUFR
0056010300999992016012505004+69290+018129FM-12+098299999V0202831N0117199999999999999999-00351+99999999999ADDKA1010M-00361KA2010N-00381OD130101421999REMSYN004BUFR
0056010300999992016012506004+69290+018129FM-12+098299999V0202791N0110199999999999999999-00351+99999999999ADDKA1120M-00331KA2120N-00401OD130601551999REMSYN004BUFR
0056010300999992016012507004+69290+018129FM-12+098299999V0202791N0122199999999999999999-00341+99999999999ADDKA1010M-00341KA2010N-00351OD130101451999REMSYN004BUFR
0056010300999992016012508004+69290+018129FM-12+098299999V0202731N0114199999999999999999-00341+99999999999ADDKA1010M-00341KA2010N-00341OD130101551999REMSYN004BUFR
0056010300999992016012509004+69290+018129FM-12+098299999V0202751N0103199999999999999999-00321+99999999999ADDKA1010M-00331KA2010N-00341OD130101381999REMSYN004BUFR
0056010300999992016012510004+69290+018129FM-12+098299999V0202711N0079199999999999999999-00321+99999999999ADDKA1010M-00331KA2010N-00341OD130101191999REMSYN004BUFR
0056010300999992016012511004+69290+018129FM-12+098299999V0202651N0078199999999999999999-00321+99999999999ADDKA1010M-00331KA2010N-00331OD130100891999REMSYN004BUFR
0056010300999992016012512004+69290+018129FM-12+098299999V0202671N0062199999999999999999-00341+99999999999ADDKA1010M-00331KA2010N-00341OD130601551999REMSYN004BUFR
0056010300999992016012513004+69290+018129FM-12+098299999V0200611N0007199999999999999999-00401+99999999999ADDKA1010M-00341KA2010N-00411OD130100581999REMSYN004BUFR
0042010300999992016012514004+69290+018129FM-12+098299999V0201851N0015199999999999999999-00451+99999999999ADDKA1010M-00411KA2010N-00451REMSYN004BUFR
0056010300999992016012515004+69290+018129FM-12+098299999V0201431N0045199999999999999999-00441+99999999999ADDKA1010M-00401KA2010N-00461OD130100631999REMSYN004BUFR
0056010300999992016012516004+69290+018129FM-12+098299999V0201371N0047199999999999999999-00471+99999999999ADDKA1010M-00441KA2010N-00471OD130100661999REMSYN004BUFR
0056010300999992016012517004+69290+018129FM-12+098299999V0201301N0053199999999999999999-00421+99999999999ADDKA1010M-00431KA2010N-00471OD130101011999REMSYN004BUFR
0056010300999992016012518004+69290+018129FM-12+098299999V0201441N0055199999999999999999-00451+99999999999ADDKA1120M-00331KA2120N-00471OD130601051999REMSYN004BUFR
0056010300999992016012519004+69290+018129FM-12+098299999V0201361N0064199999999999999999-00441+99999999999ADDKA1010M-00431KA2010N-00451OD130101151999REMSYN004BUFR
0056010300999992016012520004+69290+018129FM-12+098299999V0201391N0069199999999999999999-00471+99999999999ADDKA1010M-00431KA2010N-00481OD130101171999REMSYN004BUFR
0056010300999992016012521004+69290+018129FM-12+098299999V0201391N0090199999999999999999-00501+99999999999ADDKA1010M-00481KA2010N-00511OD130101511999REMSYN004BUFR
0056010300999992016012522004+69290+018129FM-12+098299999V0201491N0079199999999999999999-00571+99999999999ADDKA1010M-00511KA2010N-00571OD130101451999REMSYN004BUFR
0056010300999992016012523004+69290+018129FM-12+098299999V0201411N0077199999999999999999-00621+99999999999ADDKA1010M-00571KA2010N-00631OD130101591999REMSYN004BUFR
0056010300999992016012600004+69290+018129FM-12+098299999V0201411N0084199999999999999999-00621+99999999999ADDKA1010M-00551KA2010N-00641OD130601591999REMSYN004BUFR
0056010300999992016012601004+69290+018129FM-12+098299999V0201461N0081199999999999999999-00641+99999999999ADDKA1010M-00601KA2010N-00641OD130101131999REMSYN004BUFR
0056010300999992016012602004+69290+018129FM-12+098299999V0201451N0077199999999999999999-00621+99999999999ADDKA1010M-00571KA2010N-00641OD130101201999REMSYN004BUFR
0056010300999992016012603004+69290+018129FM-12+098299999V0201441N0080199999999999999999-00701+99999999999ADDKA1010M-00611KA2010N-00731OD130101491999REMSYN004BUFR
0056010300999992016012604004+69290+018129FM-12+098299999V0201641N0069199999999999999999-00671+99999999999ADDKA1010M-00641KA2010N-00731OD130101471999REMSYN004BUFR
0056010300999992016012605004+69290+018129FM-12+098299999V0202031N0055199999999999999999-00491+99999999999ADDKA1010M-00451KA2010N-00691OD130100871999REMSYN004BUFR
0056010300999992016012606004+69290+018129FM-12+098299999V0201961N0065199999999999999999-00571+99999999999ADDKA1120M-00431KA2120N-00731OD130601491999REMSYN004BUFR
0056010300999992016012607004+69290+018129FM-12+098299999V0202011N0060199999999999999999-00471+99999999999ADDKA1010M-00361KA2010N-00571OD130100791999REMSYN004BUFR
0056010300999992016012608004+69290+018129FM-12+098299999V0202291N0064199999999999999999-00321+99999999999ADDKA1010M-00231KA2010N-00471OD130100951999REMSYN004BUFR
0056010300999992016012609004+69290+018129FM-12+098299999V0202481N0092199999999999999999-00151+99999999999ADDKA1010M-00161KA2010N-00431OD130101251999REMSYN004BUFR
0056010300999992016012610004+69290+018129FM-12+098299999V0202571N0135199999999999999999-00271+99999999999ADDKA1010M-00161KA2010N-00281OD130101771999REMSYN004BUFR
0056010300999992016012611004+69290+018129FM-12+098299999V0202721N0173199999999999999999-00451+99999999999ADDKA1010M-00291KA2010N-00451OD130102171999REMSYN004BUFR
0056010300999992016012612004+69290+018129FM-12+098299999V0202771N0186199999999999999999-00441+99999999999ADDKA1010M-00441KA2010N-00461OD130602301999REMSYN004BUFR
0056010300999992016012613004+69290+018129FM-12+098299999V0202861N0134199999999999999999-00401+99999999999ADDKA1010M-00401KA2010N-00441OD130102491999REMSYN004BUFR
0056010300999992016012615004+69290+018129FM-12+098299999V0202921N0131199999999999999999-00391+99999999999ADDKA1010M-00341KA2010N-00391OD130102061999REMSYN004BUFR
0056010300999992016012616004+69290+018129FM-12+098299999V0202831N0145199999999999999999-00371+99999999999ADDKA1010M-00361KA2010N-00391OD130101911999REMSYN004BUFR
0056010300999992016012618004+69290+018129FM-12+098299999V0202701N0120199999999999999999-00401+99999999999ADDKA1120M-00161KA2120N-00571OD130602491999REMSYN004BUFR
0056010300999992016012619004+69290+018129FM-12+098299999V0202711N0132199999999999999999-00401+99999999999ADDKA1010M-00401KA2010N-00421OD130101851999REMSYN004BUFR
0056010300999992016012620004+69290+018129FM-12+098299999V0202731N0140199999999999999999-00471+99999999999ADDKA1010M-00411KA2010N-00481OD130101811999REMSYN004BUFR
0056010300999992016012621004+69290+018129FM-12+098299999V0202581N0125199999999999999999-00471+99999999999ADDKA1010M-00471KA2010N-00481OD130101721999REMSYN004BUFR
0056010300999992016012622004+69290+018129FM-12+098299999V0202551N0126199999999999999999-00501+99999999999ADDKA1010M-00471KA2010N-00501OD130101701999REMSYN004BUFR
0056010300999992016012623004+69290+018129FM-12+098299999V0202501N0119199999999999999999-00521+99999999999ADDKA1010M-00501KA2010N-00521OD130101471999REMSYN004BUFR
0056010300999992016012700004+69290+018129FM-12+098299999V0202551N0109199999999999999999-00521+99999999999ADDKA1010M-00521KA2010N-00531OD130601851999REMSYN004BUFR
0056010300999992016012701004+69290+018129FM-12+098299999V0202301N0078199999999999999999-00521+99999999999ADDKA1010M-00501KA2010N-00531OD130101411999REMSYN004BUFR
0056010300999992016012702004+69290+018129FM-12+098299999V0202501N0106199999999999999999-00541+99999999999ADDKA1010M-00521KA2010N-00551OD130101331999REMSYN004BUFR
0056010300999992016012703004+69290+018129FM-12+098299999V0202151N0069199999999999999999-00551+99999999999ADDKA1010M-00531KA2010N-00561OD130101301999REMSYN004BUFR
0056010300999992016012704004+69290+018129FM-12+098299999V0201841N0065199999999999999999-00591+99999999999ADDKA1010M-00551KA2010N-00591OD130100991999REMSYN004BUFR
0056010300999992016012705004+69290+018129FM-12+098299999V0201911N0077199999999999999999-00621+99999999999ADDKA1010M-00581KA2010N-00631OD130100951999REMSYN004BUFR
0056010300999992016012706004+69290+018129FM-12+098299999V0201791N0075199999999999999999-00671+99999999999ADDKA1120M-00401KA2120N-00681OD130601411999REMSYN004BUFR
0056010300999992016012707004+69290+018129FM-12+098299999V0201661N0076199999999999999999-00651+99999999999ADDKA1010M-00651KA2010N-00681OD130100991999REMSYN004BUFR
0056010300999992016012708004+69290+018129FM-12+098299999V0201611N0076199999999999999999-00671+99999999999ADDKA1010M-00621KA2010N-00671OD130100971999REMSYN004BUFR
0056010300999992016012709004+69290+018129FM-12+098299999V0201491N0068199999999999999999-00671+99999999999ADDKA1010M-00671KA2010N-00681OD130101091999REMSYN004BUFR
0056010300999992016012710004+69290+018129FM-12+098299999V0201531N0076199999999999999999-00601+99999999999ADDKA1010M-00601KA2010N-00681OD130101021999REMSYN004BUFR
0056010300999992016012711004+69290+018129FM-12+098299999V0201551N0096199999999999999999-00601+99999999999ADDKA1010M-00581KA2010N-00661OD130101251999REMSYN004BUFR
0056010300999992016012712004+69290+018129FM-12+098299999V0201541N0076199999999999999999-00591+99999999999ADDKA1010M-00571KA2010N-00651OD130601281999REMSYN004BUFR
0056010300999992016012713004+69290+018129FM-12+098299999V0201551N0076199999999999999999-00621+99999999999ADDKA1010M-00571KA2010N-00671OD130101171999REMSYN004BUFR
0056010300999992016012714004+69290+018129FM-12+098299999V0201661N0067199999999999999999-00621+99999999999ADDKA1010M-00621KA2010N-00641OD130100931999REMSYN004BUFR
0056010300999992016012715004+69290+018129FM-12+098299999V0201611N0067199999999999999999-00621+99999999999ADDKA1010M-00611KA2010N-00651OD130101011999REMSYN004BUFR
0056010300999992016012716004+69290+018129FM-12+098299999V0201711N0069199999999999999999-00641+99999999999ADDKA1010M-00631KA2010N-00651OD130100991999REMSYN004BUFR
0056010300999992016012717004+69290+018129FM-12+098299999V0201861N0091199999999999999999-00621+99999999999ADDKA1010M-00631KA2010N-00651OD130101171999REMSYN004BUFR
0056010300999992016012718004+69290+018129FM-12+098299999V0202251N0096199999999999999999-00551+99999999999ADDKA1120M-00551KA2120N-00681OD130601281999REMSYN004BUFR
0056010300999992016012719004+69290+018129FM-12+098299999V0202581N0160199999999999999999-00471+99999999999ADDKA1010M-00481KA2010N-00581OD130102001999REMSYN004BUFR
0056010300999992016012720004+69290+018129FM-12+098299999V0202781N0134199999999999999999-00521+99999999999ADDKA1010M-00471KA2010N-00521OD130103091999REMSYN004BUFR
0056010300999992016012721004+69290+018129FM-12+098299999V0202691N0151199999999999999999-00501+99999999999ADDKA1010M-00491KA2010N-00531OD130101941999REMSYN004BUFR
0056010300999992016012722004+69290+018129FM-12+098299999V0202841N0165199999999999999999-00551+99999999999ADDKA1010M-00501KA2010N-00561OD130102661999REMSYN004BUFR
0056010300999992016012723004+69290+018129FM-12+098299999V0202771N0145199999999999999999-00541+99999999999ADDKA1010M-00531KA2010N-00561OD130101951999REMSYN004BUFR
0056010300999992016012800004+69290+018129FM-12+098299999V0202551N0160199999999999999999-00521+99999999999ADDKA1010M-00521KA2010N-00551OD130603091999REMSYN004BUFR
0056010300999992016012801004+69290+018129FM-12+098299999V0202681N0130199999999999999999-00541+99999999999ADDKA1010M-00531KA2010N-00561OD130102191999REMSYN004BUFR
0056010300999992016012802004+69290+018129FM-12+098299999V0202701N0137199999999999999999-00541+99999999999ADDKA1010M-00531KA2010N-00561OD130102571999REMSYN004BUFR
0056010300999992016012803004+69290+018129FM-12+098299999V0202571N0127199999999999999999-00521+99999999999ADDKA1010M-00531KA2010N-00541OD130102221999REMSYN004BUFR
0056010300999992016012804004+69290+018129FM-12+098299999V0202541N0121199999999999999999-00521+99999999999ADDKA1010M-00531KA2010N-00551OD130102461999REMSYN004BUFR
0056010300999992016012805004+69290+018129FM-12+098299999V0202591N0123199999999999999999-00541+99999999999ADDKA1010M-00531KA2010N-00551OD130101861999REMSYN004BUFR
0056010300999992016012806004+69290+018129FM-12+098299999V0202561N0121199999999999999999-00551+99999999999ADDKA1120M-00471KA2120N-00581OD130602571999REMSYN004BUFR
0056010300999992016012807004+69290+018129FM-12+098299999V0202511N0088199999999999999999-00571+99999999999ADDKA1010M-00551KA2010N-00581OD130101441999REMSYN004BUFR
0056010300999992016012808004+69290+018129FM-12+098299999V0202361N0062199999999999999999-00651+99999999999ADDKA1010M-00581KA2010N-00661OD130100921999REMSYN004BUFR
0056010300999992016012809004+69290+018129FM-12+098299999V0202261N0077199999999999999999-00621+99999999999ADDKA1010M-00631KA2010N-00661OD130101121999REMSYN004BUFR
0056010300999992016012810004+69290+018129FM-12+098299999V0202061N0074199999999999999999-00601+99999999999ADDKA1010M-00611KA2010N-00641OD130101041999REMSYN004BUFR
0056010300999992016012811004+69290+018129FM-12+098299999V0202071N0072199999999999999999-00591+99999999999ADDKA1010M-00591KA2010N-00621OD130101141999REMSYN004BUFR
0056010300999992016012812004+69290+018129FM-12+098299999V0202011N0070199999999999999999-00621+99999999999ADDKA1010M-00591KA2010N-00621OD130601441999REMSYN004BUFR
0056010300999992016012813004+69290+018129FM-12+098299999V0201961N0081199999999999999999-00621+99999999999ADDKA1010M-00601KA2010N-00641OD130101241999REMSYN004BUFR
0056010300999992016012814004+69290+018129FM-12+098299999V0202441N0084199999999999999999-00601+99999999999ADDKA1010M-00591KA2010N-00621OD130101291999REMSYN004BUFR
0056010300999992016012815004+69290+018129FM-12+098299999V0202421N0110199999999999999999-00541+99999999999ADDKA1010M-00541KA2010N-00601OD130101581999REMSYN004BUFR
0056010300999992016012816004+69290+018129FM-12+098299999V0202211N0080199999999999999999-00541+99999999999ADDKA1010M-00531KA2010N-00541OD130101441999REMSYN004BUFR
0056010300999992016012817004+69290+018129FM-12+098299999V0202321N0073199999999999999999-00551+99999999999ADDKA1010M-00541KA2010N-00571OD130101061999REMSYN004BUFR
0056010300999992016012818004+69290+018129FM-12+098299999V0202251N0066199999999999999999-00601+99999999999ADDKA1120M-00531KA2120N-00661OD130601581999REMSYN004BUFR
0056010300999992016012820004+69290+018129FM-12+098299999V0201861N0066199999999999999999-00641+99999999999ADDKA1010M-00611KA2010N-00641OD130100951999REMSYN004BUFR
0056010300999992016012821004+69290+018129FM-12+098299999V0201951N0080199999999999999999-00651+99999999999ADDKA1010M-00631KA2010N-00651OD130101001999REMSYN004BUFR
0056010300999992016012822004+69290+018129FM-12+098299999V0201821N0078199999999999999999-00691+99999999999ADDKA1010M-00651KA2010N-00691OD130101021999REMSYN004BUFR
0056010300999992016012823004+69290+018129FM-12+098299999V0201931N0096199999999999999999-00691+99999999999ADDKA1010M-00671KA2010N-00691OD130101291999REMSYN004BUFR
0056010300999992016012900004+69290+018129FM-12+098299999V0201791N0082199999999999999999-00741+99999999999ADDKA1010M-00691KA2010N-00741OD130601291999REMSYN004BUFR
0056010300999992016012901004+69290+018129FM-12+098299999V0201891N0093199999999999999999-00721+99999999999ADDKA1010M-00721KA2010N-00741OD130101221999REMSYN004BUFR
0056010300999992016012902004+69290+018129FM-12+098299999V0201891N0092199999999999999999-00721+99999999999ADDKA1010M-00721KA2010N-00741OD130101131999REMSYN004BUFR
0056010300999992016012903004+69290+018129FM-12+098299999V0202201N0105199999999999999999-00671+99999999999ADDKA1010M-00671KA2010N-00731OD130101421999REMSYN004BUFR
0056010300999992016012904004+69290+018129FM-12+098299999V0202281N0072199999999999999999-00671+99999999999ADDKA1010M-00661KA2010N-00691OD130101331999REMSYN004BUFR
0056010300999992016012905004+69290+018129FM-12+098299999V0202631N0159199999999999999999-00701+99999999999ADDKA1010M-00631KA2010N-00701OD130102081999REMSYN004BUFR
0056010300999992016012906004+69290+018129FM-12+098299999V0202041N0095199999999999999999-00671+99999999999ADDKA1120M-00601KA2120N-00741OD130602081999REMSYN004BUFR
0056010300999992016012907004+69290+018129FM-12+098299999V0202131N0112199999999999999999-00691+99999999999ADDKA1010M-00681KA2010N-00711OD130101451999REMSYN004BUFR
0056010300999992016012908004+69290+018129FM-12+098299999V0202101N0098199999999999999999-00701+99999999999ADDKA1010M-00691KA2010N-00711OD130101471999REMSYN004BUFR
0056010300999992016012909004+69290+018129FM-12+098299999V0202001N0070199999999999999999-00721+99999999999ADDKA1010M-00701KA2010N-00731OD130101291999REMSYN004BUFR
0056010300999992016012910004+69290+018129FM-12+098299999V0201891N0071199999999999999999-00721+99999999999ADDKA1010M-00711KA2010N-00731OD130100951999REMSYN004BUFR
0056010300999992016012911004+69290+018129FM-12+098299999V0201871N0069199999999999999999-00741+99999999999ADDKA1010M-00721KA2010N-00741OD130101081999REMSYN004BUFR
0056010300999992016012912004+69290+018129FM-12+098299999V0201761N0079199999999999999999-00751+99999999999ADDKA1010M-00751KA2010N-00771OD130601471999REMSYN004BUFR
0056010300999992016012913004+69290+018129FM-12+098299999V0201681N0059199999999999999999-00801+99999999999ADDKA1010M-00761KA2010N-00811OD130100971999REMSYN004BUFR
0056010300999992016012914004+69290+018129FM-12+098299999V0201541N0061199999999999999999-00771+99999999999ADDKA1010M-00771KA2010N-00811OD130101091999REMSYN004BUFR
0056010300999992016012915004+69290+018129FM-12+098299999V0201681N0039199999999999999999-00751+99999999999ADDKA1010M-00751KA2010N-00781OD130101131999REMSYN004BUFR
0056010300999992016012916004+69290+018129FM-12+098299999V0201741N0069199999999999999999-00701+99999999999ADDKA1010M-00711KA2010N-00771OD130101331999REMSYN004BUFR
0056010300999992016012918004+69290+018129FM-12+098299999V0201361N0065199999999999999999-00621+99999999999ADDKA1120M-00591KA2120N-00811OD130601881999REMSYN004BUFR
0056010300999992016012919004+69290+018129FM-12+098299999V0201561N0069199999999999999999-00701+99999999999ADDKA1010M-00631KA2010N-00711OD130101801999REMSYN004BUFR
0056010300999992016012920004+69290+018129FM-12+098299999V0201761N0065199999999999999999-00701+99999999999ADDKA1010M-00701KA2010N-00741OD130101751999REMSYN004BUFR
