0039010350999992016010100004+69567+020100FM-12+071099999V0209999C999999999999N999999999+00311+99999999999REMSYN03001035 46/// ///// 10031 2////=
0039010350999992016010104004+69567+020100FM-12+071099999V0209999C999999999999N999999999+00041+99999999999REMSYN03001035 46/// ///// 10004 2////=
0055010350999992016010106004+69567+020100FM-12+071099999V020999999999999999999999999999+99999+99999999999REMSYN04601035 46/// ///// 11013 2//// 333 21029 4/127=
0042010350999992016010111004+69559+020094FM-12+071099999V020999999999999999999999999999-00101+99999999999ADDKA1010M-00051KA2010N-00291REMSYN004BUFR
0049010350999992016010118004+69567+020100FM-12+071099999V020999999999999999999999999999+99999+99999999999REMSYN04001035 46/// ///// 11019 2//// 333 11001=
0042010350999992016010123004+69559+020094FM-12+071099999V020999999999999999999999999999-00271+99999999999ADDKA1010M-00031KA2010N-00271REMSYN004BUFR
0055010350999992016010206004+69567+020100FM-12+071099999V020999999999999999999999999999+99999+99999999999REMSYN04601035 46/// ///// 11033 2//// 333 21044 4/126=
0039010350999992016010215004+69567+020100FM-12+071099999V0209999C999999999999N999999999+00121+99999999999REMSYN03001035 46/// ///// 10012 2////=
0039010350999992016010216004+69567+020100FM-12+071099999V0209999C999999999999N999999999+00091+99999999999REMSYN03001035 46/// ///// 10009 2////=
0039010350999992016010217004+69567+020100FM-12+071099999V0209999C999999999999N999999999+00091+99999999999REMSYN03001035 46/// ///// 10009 2////=
0049010350999992016010218004+69567+020100FM-12+071099999V020999999999999999999999999999+99999+99999999999REMSYN04001035 46/// ///// 11006 2//// 333 10020=
0039010350999992016010220004+69567+020100FM-12+071099999V0209999C999999999999N999999999+00001+99999999999REMSYN03001035 46/// ///// 10000 2////=
0039010350999992016010221004+69567+020100FM-12+071099999V0209999C999999999999N999999999+00081+99999999999REMSYN03001035 46/// ///// 10008 2////=
0042010350999992016010223004+69559+020094FM-12+071099999V020999999999999999999999999999-00401+99999999999ADDKA1010M+00091KA2010N-00401REMSYN004BUFR
0055010350999992016010306004+69567+020100FM-12+071099999V020999999999999999999999999999+99999+99999999999REMSYN04601035 46/// ///// 11036 2//// 333 21078 4/121=
0039010350999992016010310004+69567+020100FM-12+071099999V0209999C999999999999N999999999+00141+99999999999REMSYN03001035 46/// ///// 10014 2////=
0039010350999992016010311004+69567+020100FM-12+071099999V0209999C999999999999N999999999+00061+99999999999REMSYN03001035 46/// ///// 10006 2////=
0039010350999992016010312004+69567+020100FM-12+071099999V0209999C999999999999N999999999+00121+99999999999REMSYN03001035 46/// ///// 10012 2////=
0049010350999992016010318004+69567+020100FM-12+071099999V020999999999999999999999999999+99999+99999999999REMSYN04001035 46/// ///// 11025 2//// 333 10017=
0042010350999992016010323004+69559+020094FM-12+071099999V020999999999999999999999999999-00571+99999999999ADDKA1010M-00561KA2010N-00851REMSYN004BUFR
0055010350999992016010406004+69567+020100FM-12+071099999V020999999999999999999999999999+99999+99999999999REMSYN04601035 46/// ///// 11080 2//// 333 21114 4/123=
0042010350999992016010409004+69559+020094FM-12+071099999V020999999999999999999999999999-00971+99999999999ADDKA1010M-00841KA2010N-01041REMSYN004BUFR
0042010350999992016010410004+69559+020094FM-12+071099999V020999999999999999999999999999-00851+99999999999ADDKA1010M-00831KA2010N-00941REMSYN004BUFR
0049010350999992016010418004+69567+020100FM-12+071099999V020999999999999999999999999999+99999+99999999999REMSYN04001035 46/// ///// 11116 2//// 333 11070=
0042010350999992016010423004+69559+020094FM-12+071099999V020999999999999999999999999999-01051+99999999999ADDKA1010M-00801KA2010N-01131REMSYN004BUFR
0055010350999992016010506004+69567+020100FM-12+071099999V020999999999999999999999999999+99999+99999999999REMSYN04601035 46/// ///// 11091 2//// 333 21127 4/123=
0042010350999992016010515004+69559+020094FM-12+071099999V020999999999999999999999999999-01071+99999999999ADDKA1010M-00831KA2010N-01141REMSYN004BUFR
0049010350999992016010518004+69567+020100FM-12+071099999V020999999999999999999999999999+99999+99999999999REMSYN04001035 46/// ///// 11129 2//// 333 11077=
0042010350999992016010523004+69559+020094FM-12+071099999V020999999999999999999999999999-01151+99999999999ADDKA1010M-01121KA2010N-01181REMSYN004BUFR
0055010350999992016010606004+69567+020100FM-12+071099999V020999999999999999999999999999+99999+99999999999REMSYN04601035 46/// ///// 11152 2//// 333 21164 4/124=
0049010350999992016010618004+69567+020100FM-12+071099999V020999999999999999999999999999+99999+99999999999REMSYN04001035 46/// ///// 11200 2//// 333 11149=
0042010350999992016010623004+69559+020094FM-12+071099999V020999999999999999999999999999-02101+99999999999ADDKA1010M-02071KA2010N-02161REMSYN004BUFR
0042010350999992016010705004+69559+020094FM-12+071099999V020999999999999999999999999999-02101+99999999999ADDKA1010M-01941KA2010N-02171REMSYN004BUFR
0055010350999992016010706004+69567+020100FM-12+071099999V020999999999999999999999999999+99999+99999999999REMSYN04601035 46/// ///// 11197 2//// 333 21227 4/122=
0042010350999992016010715004+69559+020094FM-12+071099999V020999999999999999999999999999-01781+99999999999ADDKA1010M-01771KA2010N-01971REMSYN004BUFR
0049010350999992016010718004+69567+020100FM-12+071099999V020999999999999999999999999999+99999+99999999999REMSYN04001035 46/// ///// 11204 2//// 333 11175=
0042010350999992016010803004+69559+020094FM-12+071099999V020999999999999999999999999999-01601+99999999999ADDKA1010M-01451KA2010N-01811REMSYN004BUFR
0059010350999992016010806004+69559+020094FM-12+071099999V020999999999999999999999999999-01471+99999999999ADDAJ101229101220099KA1120M-01341KA2120N-02201REMSYN004BUFR
0042010350999992016010809004+69559+020094FM-12+071099999V020999999999999999999999999999-01101+99999999999ADDKA1010M-01071KA2010N-01211REMSYN004BUFR
0042010350999992016010812004+69559+020094FM-12+071099999V020999999999999999999999999999-00901+99999999999ADDKA1010M-00861KA2010N-00931REMSYN004BUFR
0049010350999992016010818004+69567+020100FM-12+071099999V020999999999999999999999999999+99999+99999999999REMSYN04001035 46/// ///// 11085 2//// 333 11081=
0055010350999992016010906004+69567+020100FM-12+071099999V020999999999999999999999999999+99999+99999999999REMSYN04601035 46/// ///// 11073 2//// 333 21086 4/123=
0049010350999992016010918004+69567+020100FM-12+071099999V020999999999999999999999999999+99999+99999999999REMSYN04001035 46/// ///// 11061 2//// 333 11059=
0042010350999992016011001004+69559+020094FM-12+071099999V020999999999999999999999999999-00621+99999999999ADDKA1010M-00611KA2010N-00651REMSYN004BUFR
0042010350999992016011002004+69559+020094FM-12+071099999V020999999999999999999999999999-00601+99999999999ADDKA1010M-00601KA2010N-00651REMSYN004BUFR
0042010350999992016011004004+69559+020094FM-12+071099999V020999999999999999999999999999-00601+99999999999ADDKA1010M-00591KA2010N-00621REMSYN004BUFR
0055010350999992016011006004+69567+020100FM-12+071099999V020999999999999999999999999999+99999+99999999999REMSYN04601035 46/// ///// 11058 2//// 333 21072 4/130=
0042010350999992016011011004+69559+020094FM-12+071099999V020999999999999999999999999999-00651+99999999999ADDKA1010M-00631KA2010N-00721REMSYN004BUFR
0042010350999992016011012004+69559+020094FM-12+071099999V020999999999999999999999999999-00651+99999999999ADDKA1010M-00591KA2010N-00661REMSYN004BUFR
0042010350999992016011014004+69559+020094FM-12+071099999V020999999999999999999999999999-00621+99999999999ADDKA1010M-00621KA2010N-00651REMSYN004BUFR
0049010350999992016011018004+69567+020100FM-12+071099999V020999999999999999999999999999+99999+99999999999REMSYN04001035 46/// ///// 11080 2//// 333 11058=
0042010350999992016011102004+69559+020094FM-12+071099999V020999999999999999999999999999-00991+99999999999ADDKA1010M-00901KA2010N-01201REMSYN004BUFR
0042010350999992016011103004+69559+020094FM-12+071099999V020999999999999999999999999999-00991+99999999999ADDKA1010M-00921KA2010N-01181REMSYN004BUFR
0055010350999992016011106004+69567+020100FM-12+071099999V020999999999999999999999999999+99999+99999999999REMSYN04601035 46/// ///// 11104 2//// 333 21138 4/131=
0042010350999992016011109004+69559+020094FM-12+071099999V020999999999999999999999999999-01201+99999999999ADDKA1010M-01071KA2010N-01201REMSYN004BUFR
0042010350999992016011114004+69559+020094FM-12+071099999V020999999999999999999999999999-00991+99999999999ADDKA1010M-00961KA2010N-01011REMSYN004BUFR
0042010350999992016011116004+69559+020094FM-12+071099999V020999999999999999999999999999-01051+99999999999ADDKA1010M-01001KA2010N-01051REMSYN004BUFR
0042010350999992016011118004+69559+020094FM-12+071099999V020999999999999999999999999999-01051+99999999999ADDKA1120M-00931KA2120N-01221REMSYN004BUFR
0042010350999992016011203004+69559+020094FM-12+071099999V020999999999999999999999999999-01191+99999999999ADDKA1010M-01151KA2010N-01191REMSYN004BUFR
0055010350999992016011206004+69567+020100FM-12+071099999V020999999999999999999999999999+99999+99999999999REMSYN04601035 46/// ///// 11124 2//// 333 21124 4/130=
0042010350999992016011210004+69559+020094FM-12+071099999V020999999999999999999999999999-01251+99999999999ADDKA1010M-01241KA2010N-01261REMSYN004BUFR
0042010350999992016011212004+69559+020094FM-12+071099999V020999999999999999999999999999-01251+99999999999ADDKA1010M-01231KA2010N-01271REMSYN004BUFR
0042010350999992016011213004+69559+020094FM-12+071099999V020999999999999999999999999999-01271+99999999999ADDKA1010M-01241KA2010N-01281REMSYN004BUFR
0042010350999992016011214004+69559+020094FM-12+071099999V020999999999999999999999999999-01301+99999999999ADDKA1010M-01261KA2010N-01311REMSYN004BUFR
0042010350999992016011215004+69559+020094FM-12+071099999V020999999999999999999999999999-01271+99999999999ADDKA1010M-01251KA2010N-01311REMSYN004BUFR
0042010350999992016011216004+69559+020094FM-12+071099999V020999999999999999999999999999-01271+99999999999ADDKA1010M-01241KA2010N-01281REMSYN004BUFR
0042010350999992016011217004+69559+020094FM-12+071099999V020999999999999999999999999999-01221+99999999999ADDKA1010M-01221KA2010N-01281REMSYN004BUFR
0042010350999992016011218004+69559+020094FM-12+071099999V020999999999999999999999999999-01291+99999999999ADDKA1120M-01201KA2120N-01311REMSYN004BUFR
0042010350999992016011219004+69559+020094FM-12+071099999V020999999999999999999999999999-01251+99999999999ADDKA1010M-01251KA2010N-01301REMSYN004BUFR
0042010350999992016011221004+69559+020094FM-12+071099999V020999999999999999999999999999-01341+99999999999ADDKA1010M-01261KA2010N-01441REMSYN004BUFR
0042010350999992016011223004+69559+020094FM-12+071099999V020999999999999999999999999999-01201+99999999999ADDKA1010M-01191KA2010N-01391REMSYN004BUFR
0042010350999992016011300004+69559+020094FM-12+071099999V020999999999999999999999999999-01271+99999999999ADDKA1010M-01191KA2010N-01401REMSYN004BUFR
0042010350999992016011301004+69559+020094FM-12+071099999V020999999999999999999999999999-01301+99999999999ADDKA1010M-01231KA2010N-01421REMSYN004BUFR
0042010350999992016011302004+69559+020094FM-12+071099999V020999999999999999999999999999-01351+99999999999ADDKA1010M-01211KA2010N-01421REMSYN004BUFR
0042010350999992016011303004+69559+020094FM-12+071099999V020999999999999999999999999999-01151+99999999999ADDKA1010M-01151KA2010N-01281REMSYN004BUFR
0042010350999992016011304004+69559+020094FM-12+071099999V020999999999999999999999999999-01221+99999999999ADDKA1010M-01121KA2010N-01271REMSYN004BUFR
0042010350999992016011305004+69559+020094FM-12+071099999V020999999999999999999999999999-01321+99999999999ADDKA1010M-01131KA2010N-01321REMSYN004BUFR
0059010350999992016011306004+69559+020094FM-12+071099999V020999999999999999999999999999-01241+99999999999ADDAJ101299101290099KA1120M-01121KA2120N-01511REMSYN004BUFR
0042010350999992016011307004+69559+020094FM-12+071099999V020999999999999999999999999999-01351+99999999999ADDKA1010M-01211KA2010N-01391REMSYN004BUFR
0042010350999992016011308004+69559+020094FM-12+071099999V020999999999999999999999999999-01391+99999999999ADDKA1010M-01181KA2010N-01391REMSYN004BUFR
0042010350999992016011309004+69559+020094FM-12+071099999V020999999999999999999999999999-01371+99999999999ADDKA1010M-01301KA2010N-01501REMSYN004BUFR
0042010350999992016011310004+69559+020094FM-12+071099999V020999999999999999999999999999-01201+99999999999ADDKA1010M-01201KA2010N-01521REMSYN004BUFR
0042010350999992016011311004+69559+020094FM-12+071099999V020999999999999999999999999999-01271+99999999999ADDKA1010M-01181KA2010N-01431REMSYN004BUFR
0042010350999992016011312004+69559+020094FM-12+071099999V020999999999999999999999999999-01251+99999999999ADDKA1010M-01181KA2010N-01381REMSYN004BUFR
0042010350999992016011313004+69559+020094FM-12+071099999V020999999999999999999999999999-01351+99999999999ADDKA1010M-01151KA2010N-01361REMSYN004BUFR
0042010350999992016011314004+69559+020094FM-12+071099999V020999999999999999999999999999-01321+99999999999ADDKA1010M-01231KA2010N-01511REMSYN004BUFR
0042010350999992016011315004+69559+020094FM-12+071099999V020999999999999999999999999999-01291+99999999999ADDKA1010M-01261KA2010N-01481REMSYN004BUFR
0042010350999992016011316004+69559+020094FM-12+071099999V020999999999999999999999999999-01201+99999999999ADDKA1010M-01171KA2010N-01381REMSYN004BUFR
0042010350999992016011317004+69559+020094FM-12+071099999V020999999999999999999999999999-01401+99999999999ADDKA1010M-01141KA2010N-01491REMSYN004BUFR
0042010350999992016011318004+69559+020094FM-12+071099999V020999999999999999999999999999-01401+99999999999ADDKA1120M-01141KA2120N-01541REMSYN004BUFR
0042010350999992016011319004+69559+020094FM-12+071099999V020999999999999999999999999999-01591+99999999999ADDKA1010M-01391KA2010N-01601REMSYN004BUFR
0042010350999992016011320004+69559+020094FM-12+071099999V020999999999999999999999999999-01621+99999999999ADDKA1010M-01511KA2010N-01691REMSYN004BUFR
0042010350999992016011321004+69559+020094FM-12+071099999V020999999999999999999999999999-01571+99999999999ADDKA1010M-01491KA2010N-01621REMSYN004BUFR
0042010350999992016011322004+69559+020094FM-12+071099999V020999999999999999999999999999-01641+99999999999ADDKA1010M-01571KA2010N-01751REMSYN004BUFR
0042010350999992016011323004+69559+020094FM-12+071099999V020999999999999999999999999999-01541+99999999999ADDKA1010M-01541KA2010N-01721REMSYN004BUFR
0042010350999992016011400004+69559+020094FM-12+071099999V020999999999999999999999999999-01491+99999999999ADDKA1010M-01461KA2010N-01621REMSYN004BUFR
0042010350999992016011401004+69559+020094FM-12+071099999V020999999999999999999999999999-01601+99999999999ADDKA1010M-01481KA2010N-01611REMSYN004BUFR
0042010350999992016011402004+69559+020094FM-12+071099999V020999999999999999999999999999-01521+99999999999ADDKA1010M-01521KA2010N-01711REMSYN004BUFR
0042010350999992016011403004+69559+020094FM-12+071099999V020999999999999999999999999999-01621+99999999999ADDKA1010M-01471KA2010N-01701REMSYN004BUFR
0042010350999992016011404004+69559+020094FM-12+071099999V020999999999999999999999999999-01601+99999999999ADDKA1010M-01601KA2010N-01721REMSYN004BUFR
0042010350999992016011405004+69559+020094FM-12+071099999V020999999999999999999999999999-01621+99999999999ADDKA1010M-01511KA2010N-01681REMSYN004BUFR
0059010350999992016011406004+69559+020094FM-12+071099999V020999999999999999999999999999-01521+99999999999ADDAJ101309101300099KA1120M-01391KA2120N-01751REMSYN004BUFR
0042010350999992016011407004+69559+020094FM-12+071099999V020999999999999999999999999999-01541+99999999999ADDKA1010M-01451KA2010N-01651REMSYN004BUFR
0042010350999992016011408004+69559+020094FM-12+071099999V020999999999999999999999999999-01551+99999999999ADDKA1010M-01471KA2010N-01581REMSYN004BUFR
0042010350999992016011409004+69559+020094FM-12+071099999V020999999999999999999999999999-01321+99999999999ADDKA1010M-01301KA2010N-01561REMSYN004BUFR
0042010350999992016011410004+69559+020094FM-12+071099999V020999999999999999999999999999-01301+99999999999ADDKA1010M-01201KA2010N-01451REMSYN004BUFR
0042010350999992016011411004+69559+020094FM-12+071099999V020999999999999999999999999999-01251+99999999999ADDKA1010M-01261KA2010N-01321REMSYN004BUFR
0049010350999992016011418004+69567+020100FM-12+071099999V020999999999999999999999999999+99999+99999999999REMSYN04001035 46/// ///// 11103 2//// 333 11080=
0055010350999992016011506004+69567+020100FM-12+071099999V020999999999999999999999999999+99999+99999999999REMSYN04601035 46/// ///// 11072 2//// 333 21141 4/129=
0042010350999992016011514004+69559+020094FM-12+071099999V020999999999999999999999999999-00841+99999999999ADDKA1010M-00831KA2010N-00911REMSYN004BUFR
0049010350999992016011518004+69567+020100FM-12+071099999V020999999999999999999999999999+99999+99999999999REMSYN04001035 46/// ///// 11096 2//// 333 11065=
0042010350999992016011602004+69559+020094FM-12+071099999V020999999999999999999999999999-00601+99999999999ADDKA1010M-00611KA2010N-00921REMSYN004BUFR
0042010350999992016011603004+69559+020094FM-12+071099999V020999999999999999999999999999-00641+99999999999ADDKA1010M-00611KA2010N-00751REMSYN004BUFR
0059010350999992016011606004+69559+020094FM-12+071099999V020999999999999999999999999999-00601+99999999999ADDAJ101299101290099KA1120M-00581KA2120N-01081REMSYN004BUFR
0049010350999992016011618004+69567+020100FM-12+071099999V020999999999999999999999999999+99999+99999999999REMSYN04001035 46/// ///// 11053 2//// 333 11052=
0055010350999992016011706004+69567+020100FM-12+071099999V020999999999999999999999999999+99999+99999999999REMSYN04601035 46/// ///// 11062 2//// 333 21062 4/146=
0042010350999992016011713004+69559+020094FM-12+071099999V020999999999999999999999999999-00921+99999999999ADDKA1010M-00801KA2010N-00931REMSYN004BUFR
0049010350999992016011718004+69567+020100FM-12+071099999V020999999999999999999999999999+99999+99999999999REMSYN04001035 46/// ///// 11118 2//// 333 11054=
0055010350999992016011806004+69567+020100FM-12+071099999V020999999999999999999999999999+99999+99999999999REMSYN04601035 46/// ///// 11134 2//// 333 21154 4/138=
0049010350999992016011818004+69567+020100FM-12+071099999V020999999999999999999999999999+99999+99999999999REMSYN04001035 46/// ///// 11184 2//// 333 11118=
0055010350999992016011906004+69567+020100FM-12+071099999V020999999999999999999999999999+99999+99999999999REMSYN04601035 46/// ///// 11188 2//// 333 21198 4/137=
0042010350999992016011913004+69559+020094FM-12+071099999V020999999999999999999999999999-01671+99999999999ADDKA1010M-01461KA2010N-01731REMSYN004BUFR
0042010350999992016011918004+69559+020094FM-12+071099999V020999999999999999999999999999-01741+99999999999ADDKA1120M-01461KA2120N-02051REMSYN004BUFR
0055010350999992016012006004+69567+020100FM-12+071099999V020999999999999999999999999999+99999+99999999999REMSYN04601035 46/// ///// 11181 2//// 333 21193 4/135=
0049010350999992016012018004+69567+020100FM-12+071099999V020999999999999999999999999999+99999+99999999999REMSYN04001035 46/// ///// 11089 2//// 333 11089=
0042010350999992016012101004+69559+020094FM-12+071099999V020999999999999999999999999999-01251+99999999999ADDKA1010M-01181KA2010N-01391REMSYN004BUFR
0055010350999992016012106004+69567+020100FM-12+071099999V020999999999999999999999999999+99999+99999999999REMSYN04601035 46/// ///// 11117 2//// 333 21139 4/134=
0049010350999992016012118004+69567+020100FM-12+071099999V020999999999999999999999999999+99999+99999999999REMSYN04001035 46/// ///// 11062 2//// 333 11062=
0059010350999992016012206004+69559+020094FM-12+071099999V020999999999999999999999999999-00301+99999999999ADDAJ101449101440099KA1120M-00221KA2120N-00721REMSYN004BUFR
0039010350999992016012211004+69567+020100FM-12+071099999V0209999C999999999999N999999999+00051+99999999999REMSYN03001035 46/// ///// 10005 2////=
0039010350999992016012212004+69567+020100FM-12+071099999V0209999C999999999999N999999999+00061+99999999999REMSYN03001035 46/// ///// 10006 2////=
0039010350999992016012213004+69567+020100FM-12+071099999V0209999C999999999999N999999999+00031+99999999999REMSYN03001035 46/// ///// 10003 2////=
0039010350999992016012214004+69567+020100FM-12+071099999V0209999C999999999999N999999999+00051+99999999999REMSYN03001035 46/// ///// 10005 2////=
0039010350999992016012216004+69567+020100FM-12+071099999V0209999C999999999999N999999999+00011+99999999999REMSYN03001035 46/// ///// 10001 2////=
0039010350999992016012217004+69567+020100FM-12+071099999V0209999C999999999999N999999999+00001+99999999999REMSYN03001035 46/// ///// 10000 2////=
0049010350999992016012218004+69567+020100FM-12+071099999V020999999999999999999999999999+99999+99999999999REMSYN04001035 46/// ///// 10001 2//// 333 10010=
0039010350999992016012220004+69567+020100FM-12+071099999V0209999C999999999999N999999999+00001+99999999999REMSYN03001035 46/// ///// 10000 2////=
0039010350999992016012222004+69567+020100FM-12+071099999V0209999C999999999999N999999999+00001+99999999999REMSYN03001035 46/// ///// 10000 2////=
0042010350999992016012305004+69559+020094FM-12+071099999V020999999999999999999999999999-00641+99999999999ADDKA1010M-00561KA2010N-00651REMSYN004BUFR
0059010350999992016012306004+69559+020094FM-12+071099999V020999999999999999999999999999-00691+99999999999ADDAJ101399101390099KA1120M+00051KA2120N-00721REMSYN004BUFR
0042010350999992016012315004+69559+020094FM-12+071099999V020999999999999999999999999999-00191+99999999999ADDKA1010M-00061KA2010N-00291REMSYN004BUFR
0049010350999992016012318004+69567+020100FM-12+071099999V020999999999999999999999999999+99999+99999999999REMSYN04001035 46/// ///// 11063 2//// 333 10000=
0042010350999992016012400004+69559+020094FM-12+071099999V020999999999999999999999999999-00821+99999999999ADDKA1010M-00751KA2010N-00871REMSYN004BUFR
0055010350999992016012406004+69567+020100FM-12+071099999V020999999999999999999999999999+99999+99999999999REMSYN04601035 46/// ///// 11079 2//// 333 21092 4/138=
0042010350999992016012412004+69559+020094FM-12+071099999V020999999999999999999999999999-00871+99999999999ADDKA1010M-00771KA2010N-00881REMSYN004BUFR
0042010350999992016012414004+69559+020094FM-12+071099999V020999999999999999999999999999-00401+99999999999ADDKA1010M-00401KA2010N-00821REMSYN004BUFR
0042010350999992016012415004+69559+020094FM-12+071099999V020999999999999999999999999999-00421+99999999999ADDKA1010M-00361KA2010N-00451REMSYN004BUFR
0049010350999992016012418004+69567+020100FM-12+071099999V020999999999999999999999999999+99999+99999999999REMSYN04001035 46/// ///// 11043 2//// 333 11036=
0042010350999992016012501004+69559+020094FM-12+071099999V020999999999999999999999999999-00191+99999999999ADDKA1010M-00171KA2010N-00221REMSYN004BUFR
0042010350999992016012503004+69559+020094FM-12+071099999V020999999999999999999999999999+00021+99999999999ADDKA1010M+00041KA2010N-00141REMSYN004BUFR
0039010350999992016012504004+69567+020100FM-12+071099999V0209999C999999999999N999999999+00061+99999999999REMSYN03001035 46/// ///// 10006 2////=
0039010350999992016012505004+69567+020100FM-12+071099999V0209999C999999999999N999999999+00041+99999999999REMSYN03001035 46/// ///// 10004 2////=
0055010350999992016012506004+69567+020100FM-12+071099999V020999999999999999999999999999+99999+99999999999REMSYN04601035 46/// ///// 11002 2//// 333 21043 4/140=
0039010350999992016012508004+69567+020100FM-12+071099999V0209999C999999999999N999999999+00021+99999999999REMSYN03001035 46/// ///// 10002 2////=
0039010350999992016012509004+69567+020100FM-12+071099999V0209999C999999999999N999999999+00071+99999999999REMSYN03001035 46/// ///// 10007 2////=
0049010350999992016012518004+69567+020100FM-12+071099999V020999999999999999999999999999+99999+99999999999REMSYN04001035 46/// ///// 11040 2//// 333 10009=
0042010350999992016012604004+69559+020094FM-12+071099999V020999999999999999999999999999-00051+99999999999ADDKA1010M-00031KA2010N-00301REMSYN004BUFR
0042010350999992016012605004+69559+020094FM-12+071099999V020999999999999999999999999999-00191+99999999999ADDKA1010M-00011KA2010N-00191REMSYN004BUFR
0055010350999992016012606004+69567+020100FM-12+071099999V020999999999999999999999999999+99999+99999999999REMSYN04601035 46/// ///// 11020 2//// 333 21049 4/138=
0039010350999992016012613004+69567+020100FM-12+071099999V0209999C999999999999N999999999+00031+99999999999REMSYN03001035 46/// ///// 10003 2////=
0039010350999992016012614004+69567+020100FM-12+071099999V0209999C999999999999N999999999+00091+99999999999REMSYN03001035 46/// ///// 10009 2////=
0039010350999992016012615004+69567+020100FM-12+071099999V0209999C999999999999N999999999+00031+99999999999REMSYN03001035 46/// ///// 10003 2////=
0042010350999992016012616004+69559+020094FM-12+071099999V020999999999999999999999999999+00001+99999999999ADDKA1010M+00071KA2010N-00031REMSYN004BUFR
0039010350999992016012617004+69567+020100FM-12+071099999V0209999C999999999999N999999999+00011+99999999999REMSYN03001035 46/// ///// 10001 2////=
0049010350999992016012618004+69567+020100FM-12+071099999V020999999999999999999999999999+99999+99999999999REMSYN04001035 46/// ///// 11006 2//// 333 10012=
0042010350999992016012620004+69559+020094FM-12+071099999V020999999999999999999999999999-00051+99999999999ADDKA1010M-00041KA2010N-00101REMSYN004BUFR
0042010350999992016012704004+69559+020094FM-12+071099999V020999999999999999999999999999-00521+99999999999ADDKA1010M-00161KA2010N-00521REMSYN004BUFR
0055010350999992016012706004+69567+020100FM-12+071099999V020999999999999999999999999999+99999+99999999999REMSYN04601035 46/// ///// 11056 2//// 333 21073 4/140=
0042010350999992016012709004+69559+020094FM-12+071099999V020999999999999999999999999999-00171+99999999999ADDKA1010M-00121KA2010N-00611REMSYN004BUFR
0042010350999992016012714004+69559+020094FM-12+071099999V020999999999999999999999999999+00001+99999999999ADDKA1010M+00041KA2010N-00161REMSYN004BUFR
0042010350999992016012715004+69559+020094FM-12+071099999V020999999999999999999999999999-00171+99999999999ADDKA1010M-00011KA2010N-00171REMSYN004BUFR
0042010350999992016012716004+69559+020094FM-12+071099999V020999999999999999999999999999-00291+99999999999ADDKA1010M-00181KA2010N-00321REMSYN004BUFR
0042010350999992016012718004+69559+020094FM-12+071099999V020999999999999999999999999999-00421+99999999999ADDKA1120M+00041KA2120N-00611REMSYN004BUFR
0042010350999992016012720004+69559+020094FM-12+071099999V020999999999999999999999999999-00251+99999999999ADDKA1010M-00221KA2010N-00361REMSYN004BUFR
0042010350999992016012722004+69559+020094FM-12+071099999V020999999999999999999999999999-00121+99999999999ADDKA1010M-00101KA2010N-00171REMSYN004BUFR
0042010350999992016012800004+69559+020094FM-12+071099999V020999999999999999999999999999-00191+99999999999ADDKA1010M-00151KA2010N-00201REMSYN004BUFR
0042010350999992016012801004+69559+020094FM-12+071099999V020999999999999999999999999999-00201+99999999999ADDKA1010M-00191KA2010N-00241REMSYN004BUFR
0042010350999992016012802004+69559+020094FM-12+071099999V020999999999999999999999999999-00221+99999999999ADDKA1010M-00181KA2010N-00241REMSYN004BUFR
0059010350999992016012806004+69559+020094FM-12+071099999V020999999999999999999999999999-00251+99999999999ADDAJ101389101380099KA1120M-00071KA2120N-00401REMSYN004BUFR
0042010350999992016012812004+69559+020094FM-12+071099999V020999999999999999999999999999-00721+99999999999ADDKA1010M-00541KA2010N-00781REMSYN004BUFR
0049010350999992016012818004+69567+020100FM-12+071099999V020999999999999999999999999999+99999+99999999999REMSYN04001035 46/// ///// 11040 2//// 333 11020=
0055010350999992016012906004+69567+020100FM-12+071099999V020999999999999999999999999999+99999+99999999999REMSYN04601035 46/// ///// 11025 2//// 333 21062 4/138=
0042010350999992016012912004+69559+020094FM-12+071099999V020999999999999999999999999999-00671+99999999999ADDKA1010M-00341KA2010N-00681REMSYN004BUFR
0042010350999992016012918004+69559+020094FM-12+071099999V020999999999999999999999999999-00351+99999999999ADDKA1120M-00171KA2120N-00751REMSYN004BUFR
0059010350999992016013006004+69559+020094FM-12+071099999V020999999999999999999999999999-00751+99999999999ADDAJ101389101380099KA1120M-00161KA2120N-00781REMSYN004BUFR
0042010350999992016013015004+69559+020094FM-12+071099999V020999999999999999999999999999-00571+99999999999ADDKA1010M-00541KA2010N-00631REMSYN004BUFR
0042010350999992016013018004+69559+020094FM-12+071099999V020999999999999999999999999999-00521+99999999999ADDKA1120M-00391KA2120N-00811REMSYN004BUFR
0055010350999992016013106004+69567+020100FM-12+071099999V020999999999999999999999999999+99999+99999999999REMSYN04601035 46/// ///// 11046 2//// 333 21090 4/137=
0049010350999992016013118004+69567+020100FM-12+071099999V020999999999999999999999999999+99999+99999999999REMSYN04001035 46/// ///// 11032 2//// 333 11022=
0055010350999992016020106004+69567+020100FM-12+071099999V020999999999999999999999999999+99999+99999999999REMSYN04601035 46/// ///// 11029 2//// 333 21033 4/158=
0049010350999992016020118004+69567+020100FM-12+071099999V020999999999999999999999999999+99999+99999999999REMSYN04001035 46/// ///// 11056 2//// 333 11027=
0042010350999992016020120004+69559+020094FM-12+071099999V020999999999999999999999999999-00851+99999999999ADDKA1010M-00441KA2010N-00941REMSYN004BUFR
0055010350999992016020206004+69567+020100FM-12+071099999V020999999999999999999999999999+99999+99999999999REMSYN04601035 46/// ///// 11115 2//// 333 21134 4/159=
0042010350999992016020215004+69559+020094FM-12+071099999V020999999999999999999999999999-01401+99999999999ADDKA1010M-01201KA2010N-01401REMSYN004BUFR
0042010350999992016020217004+69559+020094FM-12+071099999V020999999999999999999999999999-01371+99999999999ADDKA1010M-01311KA2010N-01441REMSYN004BUFR
0049010350999992016020218004+69567+020100FM-12+071099999V020999999999999999999999999999+99999+99999999999REMSYN04001035 46/// ///// 11126 2//// 333 11116=
0042010350999992016020221004+69559+020094FM-12+071099999V020999999999999999999999999999-01101+99999999999ADDKA1010M-01071KA2010N-01361REMSYN004BUFR
0042010350999992016020223004+69559+020094FM-12+071099999V020999999999999999999999999999-00841+99999999999ADDKA1010M-00831KA2010N-01201REMSYN004BUFR
0042010350999992016020305004+69559+020094FM-12+071099999V020999999999999999999999999999-00551+99999999999ADDKA1010M-00471KA2010N-00601REMSYN004BUFR
0055010350999992016020306004+69567+020100FM-12+071099999V020999999999999999999999999999+99999+99999999999REMSYN04601035 46/// ///// 11064 2//// 333 21136 4/159=
0042010350999992016020308004+69559+020094FM-12+071099999V020999999999999999999999999999-00701+99999999999ADDKA1010M-00571KA2010N-00711REMSYN004BUFR
0042010350999992016020311004+69559+020094FM-12+071099999V020999999999999999999999999999-00621+99999999999ADDKA1010M-00591KA2010N-00661REMSYN004BUFR
0042010350999992016020314004+69559+020094FM-12+071099999V020999999999999999999999999999-00551+99999999999ADDKA1010M-00541KA2010N-00641REMSYN004BUFR
0049010350999992016020318004+69567+020100FM-12+071099999V020999999999999999999999999999+99999+99999999999REMSYN04001035 46/// ///// 11061 2//// 333 11054=
0042010350999992016020322004+69559+020094FM-12+071099999V020999999999999999999999999999-00691+99999999999ADDKA1010M-00621KA2010N-00741REMSYN004BUFR
0055010350999992016020406004+69567+020100FM-12+071099999V020999999999999999999999999999+99999+99999999999REMSYN04601035 46/// ///// 11079 2//// 333 21091 4/157=
0042010350999992016020407004+69559+020094FM-12+071099999V020999999999999999999999999999-00671+99999999999ADDKA1010M-00681KA2010N-00801REMSYN004BUFR
0042010350999992016020408004+69559+020094FM-12+071099999V020999999999999999999999999999-00701+99999999999ADDKA1010M-00681KA2010N-00721REMSYN004BUFR
0042010350999992016020411004+69559+020094FM-12+071099999V020999999999999999999999999999-00691+99999999999ADDKA1010M-00671KA2010N-00701REMSYN004BUFR
0049010350999992016020418004+69567+020100FM-12+071099999V020999999999999999999999999999+99999+99999999999REMSYN04001035 46/// ///// 11084 2//// 333 11064=
0042010350999992016020503004+69559+020094FM-12+071099999V020999999999999999999999999999-01101+99999999999ADDKA1010M-01111KA2010N-01301REMSYN004BUFR
0042010350999992016020505004+69559+020094FM-12+071099999V020999999999999999999999999999-00641+99999999999ADDKA1010M-00641KA2010N-01111REMSYN004BUFR
0059010350999992016020506004+69559+020094FM-12+071099999V020999999999999999999999999999-00521+99999999999ADDAJ101559101550099KA1120M-00511KA2120N-01361REMSYN004BUFR
0042010350999992016020507004+69559+020094FM-12+071099999V020999999999999999999999999999-00451+99999999999ADDKA1010M-00451KA2010N-00581REMSYN004BUFR
0042010350999992016020512004+69559+020094FM-12+071099999V020999999999999999999999999999-00451+99999999999ADDKA1010M-00391KA2010N-00481REMSYN004BUFR
0049010350999992016020518004+69567+020100FM-12+071099999V020999999999999999999999999999+99999+99999999999REMSYN04001035 46/// ///// 11098 2//// 333 11038=
0042010350999992016020519004+69559+020094FM-12+071099999V020999999999999999999999999999-00701+99999999999ADDKA1010M-00701KA2010N-00991REMSYN004BUFR
0042010350999992016020520004+69559+020094FM-12+071099999V020999999999999999999999999999-01001+99999999999ADDKA1010M-00711KA2010N-01091REMSYN004BUFR
0042010350999992016020521004+69559+020094FM-12+071099999V020999999999999999999999999999-01071+99999999999ADDKA1010M-00921KA2010N-01111REMSYN004BUFR
0042010350999992016020522004+69559+020094FM-12+071099999V020999999999999999999999999999-01101+99999999999ADDKA1010M-00991KA2010N-01161REMSYN004BUFR
0042010350999992016020523004+69559+020094FM-12+071099999V020999999999999999999999999999-01091+99999999999ADDKA1010M-01091KA2010N-01261REMSYN004BUFR
0042010350999992016020602004+69559+020094FM-12+071099999V020999999999999999999999999999-00921+99999999999ADDKA1010M-00931KA2010N-01241REMSYN004BUFR
0042010350999992016020603004+69559+020094FM-12+071099999V020999999999999999999999999999-00651+99999999999ADDKA1010M-00621KA2010N-00921REMSYN004BUFR
0042010350999992016020604004+69559+020094FM-12+071099999V020999999999999999999999999999-00801+99999999999ADDKA1010M-00581KA2010N-00811REMSYN004BUFR
0042010350999992016020605004+69559+020094FM-12+071099999V020999999999999999999999999999-00571+99999999999ADDKA1010M-00551KA2010N-00791REMSYN004BUFR
0059010350999992016020606004+69559+020094FM-12+071099999V020999999999999999999999999999-00521+99999999999ADDAJ101559101550099KA1120M-00521KA2120N-01311REMSYN004BUFR
0042010350999992016020614004+69559+020094FM-12+071099999V020999999999999999999999999999-00791+99999999999ADDKA1010M-00751KA2010N-00881REMSYN004BUFR
0042010350999992016020615004+69559+020094FM-12+071099999V020999999999999999999999999999-00671+99999999999ADDKA1010M-00681KA2010N-00851REMSYN004BUFR
0049010350999992016020618004+69567+020100FM-12+071099999V020999999999999999999999999999+99999+99999999999REMSYN04001035 46/// ///// 11067 2//// 333 11050=
0042010350999992016020620004+69559+020094FM-12+071099999V020999999999999999999999999999-00651+99999999999ADDKA1010M-00591KA2010N-00751REMSYN004BUFR
0042010350999992016020621004+69559+020094FM-12+071099999V020999999999999999999999999999-00651+99999999999ADDKA1010M-00621KA2010N-00851REMSYN004BUFR
0042010350999992016020700004+69559+020094FM-12+071099999V020999999999999999999999999999-00771+99999999999ADDKA1010M-00721KA2010N-00771REMSYN004BUFR
0042010350999992016020702004+69559+020094FM-12+071099999V020999999999999999999999999999-00871+99999999999ADDKA1010M-00861KA2010N-00891REMSYN004BUFR
0042010350999992016020703004+69559+020094FM-12+071099999V020999999999999999999999999999-00871+99999999999ADDKA1010M-00861KA2010N-00891REMSYN004BUFR
0042010350999992016020704004+69559+020094FM-12+071099999V020999999999999999999999999999-00821+99999999999ADDKA1010M-00831KA2010N-00881REMSYN004BUFR
0055010350999992016020706004+69567+020100FM-12+071099999V020999999999999999999999999999+99999+99999999999REMSYN04601035 46/// ///// 11076 2//// 333 21089 4/152=
0042010350999992016020714004+69559+020094FM-12+071099999V020999999999999999999999999999-00851+99999999999ADDKA1010M-00611KA2010N-00911REMSYN004BUFR
0049010350999992016020718004+69567+020100FM-12+071099999V020999999999999999999999999999+99999+99999999999REMSYN04001035 46/// ///// 11027 2//// 333 11015=
0055010350999992016020806004+69567+020100FM-12+071099999V020999999999999999999999999999+99999+99999999999REMSYN04601035 46/// ///// 11038 2//// 333 21057 4/148=
0042010350999992016020809004+69559+020094FM-12+071099999V020999999999999999999999999999-00371+99999999999ADDKA1010M-00371KA2010N-00411REMSYN004BUFR
0042010350999992016020812004+69559+020094FM-12+071099999V020999999999999999999999999999-00401+99999999999ADDKA1010M-00401KA2010N-00471REMSYN004BUFR
0042010350999992016020818004+69559+020094FM-12+071099999V020999999999999999999999999999-00121+99999999999ADDKA1120M-00131KA2120N-00511REMSYN004BUFR
0042010350999992016020819004+69559+020094FM-12+071099999V020999999999999999999999999999-00221+99999999999ADDKA1010M-00131KA2010N-00231REMSYN004BUFR
0042010350999992016020820004+69559+020094FM-12+071099999V020999999999999999999999999999-00151+99999999999ADDKA1010M-00131KA2010N-00231REMSYN004BUFR
0042010350999992016020904004+69559+020094FM-12+071099999V020999999999999999999999999999-00371+99999999999ADDKA1010M-00361KA2010N-00471REMSYN004BUFR
0042010350999992016020905004+69559+020094FM-12+071099999V020999999999999999999999999999-00441+99999999999ADDKA1010M-00371KA2010N-00581REMSYN004BUFR
0059010350999992016020906004+69559+020094FM-12+071099999V020999999999999999999999999999-00601+99999999999ADDAJ101509101500099KA1120M-00101KA2120N-00681REMSYN004BUFR
0042010350999992016020909004+69559+020094FM-12+071099999V020999999999999999999999999999-00371+99999999999ADDKA1010M-00371KA2010N-00381REMSYN004BUFR
0042010350999992016020910004+69559+020094FM-12+071099999V020999999999999999999999999999-00401+99999999999ADDKA1010M-00371KA2010N-00401REMSYN004BUFR
0042010350999992016020911004+69559+020094FM-12+071099999V020999999999999999999999999999-00401+99999999999ADDKA1010M-00401KA2010N-00421REMSYN004BUFR
0042010350999992016020912004+69559+020094FM-12+071099999V020999999999999999999999999999-00401+99999999999ADDKA1010M-00401KA2010N-00421REMSYN004BUFR
0049010350999992016020918004+69567+020100FM-12+071099999V020999999999999999999999999999+99999+99999999999REMSYN04001035 46/// ///// 11049 2//// 333 11037=
0042010350999992016021002004+69559+020094FM-12+071099999V020999999999999999999999999999-00601+99999999999ADDKA1010M-00591KA2010N-00601REMSYN004BUFR
0042010350999992016021003004+69559+020094FM-12+071099999V020999999999999999999999999999-00651+99999999999ADDKA1010M-00591KA2010N-00721REMSYN004BUFR
0055010350999992016021006004+69567+020100FM-12+071099999V020999999999999999999999999999+99999+99999999999REMSYN04601035 46/// ///// 11077 2//// 333 21083 4/156=
0042010350999992016021010004+69559+020094FM-12+071099999V020999999999999999999999999999-00701+99999999999ADDKA1010M-00681KA2010N-00711REMSYN004BUFR
0042010350999992016021014004+69559+020094FM-12+071099999V020999999999999999999999999999-00701+99999999999ADDKA1010M-00641KA2010N-00711REMSYN004BUFR
0049010350999992016021018004+69567+020100FM-12+071099999V020999999999999999999999999999+99999+99999999999REMSYN04001035 46/// ///// 11066 2//// 333 11059=
0042010350999992016021021004+69559+020094FM-12+071099999V020999999999999999999999999999-00891+99999999999ADDKA1010M-00801KA2010N-00931REMSYN004BUFR
0042010350999992016021023004+69559+020094FM-12+071099999V020999999999999999999999999999-00851+99999999999ADDKA1010M-00861KA2010N-00941REMSYN004BUFR
0042010350999992016021102004+69559+020094FM-12+071099999V020999999999999999999999999999-00771+99999999999ADDKA1010M-00781KA2010N-00961REMSYN004BUFR
0042010350999992016021103004+69559+020094FM-12+071099999V020999999999999999999999999999-00821+99999999999ADDKA1010M-00751KA2010N-00841REMSYN004BUFR
0059010350999992016021106004+69559+020094FM-12+071099999V020999999999999999999999999999-00671+99999999999ADDAJ101539101530099KA1120M-00651KA2120N-01141REMSYN004BUFR
0042010350999992016021114004+69559+020094FM-12+071099999V020999999999999999999999999999-00491+99999999999ADDKA1010M-00471KA2010N-00501REMSYN004BUFR
0042010350999992016021115004+69559+020094FM-12+071099999V020999999999999999999999999999-00491+99999999999ADDKA1010M-00471KA2010N-00501REMSYN004BUFR
0042010350999992016021117004+69559+020094FM-12+071099999V020999999999999999999999999999-00591+99999999999ADDKA1010M-00501KA2010N-00601REMSYN004BUFR
0049010350999992016021118004+69567+020100FM-12+071099999V020999999999999999999999999999+99999+99999999999REMSYN04001035 46/// ///// 11060 2//// 333 11047=
0042010350999992016021120004+69559+020094FM-12+071099999V020999999999999999999999999999-00641+99999999999ADDKA1010M-00621KA2010N-00651REMSYN004BUFR
0042010350999992016021203004+69559+020094FM-12+071099999V020999999999999999999999999999-00771+99999999999ADDKA1010M-00751KA2010N-00771REMSYN004BUFR
0055010350999992016021206004+69567+020100FM-12+071099999V020999999999999999999999999999+99999+99999999999REMSYN04601035 46/// ///// 11077 2//// 333 21079 4/172=
0042010350999992016021210004+69559+020094FM-12+071099999V020999999999999999999999999999-00751+99999999999ADDKA1010M-00751KA2010N-00771REMSYN004BUFR
0042010350999992016021211004+69559+020094FM-12+071099999V020999999999999999999999999999-00721+99999999999ADDKA1010M-00721KA2010N-00761REMSYN004BUFR
0042010350999992016021213004+69559+020094FM-12+071099999V020999999999999999999999999999-00691+99999999999ADDKA1010M-00671KA2010N-00721REMSYN004BUFR
0042010350999992016021216004+69559+020094FM-12+071099999V020999999999999999999999999999-00771+99999999999ADDKA1010M-00751KA2010N-00811REMSYN004BUFR
0049010350999992016021218004+69567+020100FM-12+071099999V020999999999999999999999999999+99999+99999999999REMSYN04001035 46/// ///// 11100 2//// 333 11067=
0042010350999992016021220004+69559+020094FM-12+071099999V020999999999999999999999999999-00841+99999999999ADDKA1010M-00831KA2010N-01131REMSYN004BUFR
0042010350999992016021305004+69559+020094FM-12+071099999V020999999999999999999999999999-00951+99999999999ADDKA1010M-00801KA2010N-00971REMSYN004BUFR
0059010350999992016021306004+69559+020094FM-12+071099999V020999999999999999999999999999-00901+99999999999ADDAJ101659101650099KA1120M-00691KA2120N-01131REMSYN004BUFR
0042010350999992016021308004+69559+020094FM-12+071099999V020999999999999999999999999999-00791+99999999999ADDKA1010M-00791KA2010N-01041REMSYN004BUFR
0042010350999992016021309004+69559+020094FM-12+071099999V020999999999999999999999999999-00771+99999999999ADDKA1010M-00721KA2010N-00781REMSYN004BUFR
0049010350999992016021318004+69567+020100FM-12+071099999V020999999999999999999999999999+99999+99999999999REMSYN04001035 46/// ///// 11070 2//// 333 11065=
0042010350999992016021321004+69559+020094FM-12+071099999V020999999999999999999999999999-00701+99999999999ADDKA1010M-00661KA2010N-00711REMSYN004BUFR
0042010350999992016021322004+69559+020094FM-12+071099999V020999999999999999999999999999-00721+99999999999ADDKA1010M-00711KA2010N-00761REMSYN004BUFR
0042010350999992016021323004+69559+020094FM-12+071099999V020999999999999999999999999999-00701+99999999999ADDKA1010M-00671KA2010N-00731REMSYN004BUFR
0042010350999992016021400004+69559+020094FM-12+071099999V020999999999999999999999999999-00701+99999999999ADDKA1010M-00661KA2010N-00731REMSYN004BUFR
0042010350999992016021401004+69559+020094FM-12+071099999V020999999999999999999999999999-00721+99999999999ADDKA1010M-00681KA2010N-00831REMSYN004BUFR
0042010350999992016021402004+69559+020094FM-12+071099999V020999999999999999999999999999-00671+99999999999ADDKA1010M-00611KA2010N-00791REMSYN004BUFR
0042010350999992016021403004+69559+020094FM-12+071099999V020999999999999999999999999999-00701+99999999999ADDKA1010M-00671KA2010N-00731REMSYN004BUFR
0059010350999992016021406004+69559+020094FM-12+071099999V020999999999999999999999999999-00751+99999999999ADDAJ101639101630099KA1120M-00611KA2120N-00831REMSYN004BUFR
0042010350999992016021417004+69559+020094FM-12+071099999V020999999999999999999999999999-00921+99999999999ADDKA1010M-00861KA2010N-01181REMSYN004BUFR
0049010350999992016021418004+69567+020100FM-12+071099999V020999999999999999999999999999+99999+99999999999REMSYN04001035 46/// ///// 11084 2//// 333 11073=
0059010350999992016021506004+69559+020094FM-12+071099999V020999999999999999999999999999-00901+99999999999ADDAJ101649101640099KA1120M-00731KA2120N-01291REMSYN004BUFR
0042010350999992016021509004+69559+020094FM-12+071099999V020999999999999999999999999999-00751+99999999999ADDKA1010M-00551KA2010N-00761REMSYN004BUFR
0042010350999992016021514004+69559+020094FM-12+071099999V020999999999999999999999999999-00601+99999999999ADDKA1010M-00541KA2010N-00741REMSYN004BUFR
0049010350999992016021518004+69567+020100FM-12+071099999V020999999999999999999999999999+99999+99999999999REMSYN04001035 46/// ///// 11060 2//// 333 11054=
0042010350999992016021521004+69559+020094FM-12+071099999V020999999999999999999999999999-00571+99999999999ADDKA1010M-00551KA2010N-00631REMSYN004BUFR
0042010350999992016021602004+69559+020094FM-12+071099999V020999999999999999999999999999-00571+99999999999ADDKA1010M-00581KA2010N-00641REMSYN004BUFR
0059010350999992016021606004+69559+020094FM-12+071099999V020999999999999999999999999999-00551+99999999999ADDAJ101629101620099KA1120M-00521KA2120N-00721REMSYN004BUFR
0042010350999992016021607004+69559+020094FM-12+071099999V020999999999999999999999999999-00671+99999999999ADDKA1010M-00551KA2010N-00681REMSYN004BUFR
0042010350999992016021608004+69559+020094FM-12+071099999V020999999999999999999999999999-00651+99999999999ADDKA1010M-00651KA2010N-00721REMSYN004BUFR
0042010350999992016021610004+69559+020094FM-12+071099999V020999999999999999999999999999-00551+99999999999ADDKA1010M-00531KA2010N-00591REMSYN004BUFR
0042010350999992016021613004+69559+020094FM-12+071099999V020999999999999999999999999999-00401+99999999999ADDKA1010M-00361KA2010N-00521REMSYN004BUFR
0042010350999992016021616004+69559+020094FM-12+071099999V020999999999999999999999999999-00421+99999999999ADDKA1010M-00381KA2010N-00441REMSYN004BUFR
0042010350999992016021617004+69559+020094FM-12+071099999V020999999999999999999999999999-00421+99999999999ADDKA1010M-00341KA2010N-00431REMSYN004BUFR
0042010350999992016021618004+69559+020094FM-12+071099999V020999999999999999999999999999-00401+99999999999ADDKA1120M-00341KA2120N-00721REMSYN004BUFR
0042010350999992016021619004+69559+020094FM-12+071099999V020999999999999999999999999999-00401+99999999999ADDKA1010M-00391KA2010N-00441REMSYN004BUFR
0042010350999992016021620004+69559+020094FM-12+071099999V020999999999999999999999999999-00421+99999999999ADDKA1010M-00391KA2010N-00461REMSYN004BUFR
0042010350999992016021621004+69559+020094FM-12+071099999V020999999999999999999999999999-00791+99999999999ADDKA1010M-00441KA2010N-00941REMSYN004BUFR
0055010350999992016021706004+69567+020100FM-12+071099999V020999999999999999999999999999+99999+99999999999REMSYN04601035 46/// ///// 10005 2//// 333 21094 4/166=
0042010350999992016021710004+69559+020094FM-12+071099999V020999999999999999999999999999+00041+99999999999ADDKA1010M+00041KA2010N-00151REMSYN004BUFR
0042010350999992016021711004+69559+020094FM-12+071099999V020999999999999999999999999999+00001+99999999999ADDKA1010M+00171KA2010N-00061REMSYN004BUFR
0042010350999992016021712004+69559+020094FM-12+071099999V020999999999999999999999999999+00201+99999999999ADDKA1010M+00211KA2010N-00071REMSYN004BUFR
0042010350999992016021713004+69559+020094FM-12+071099999V020999999999999999999999999999+00221+99999999999ADDKA1010M+00241KA2010N+00201REMSYN004BUFR
0039010350999992016021714004+69567+020100FM-12+071099999V0209999C999999999999N999999999+00281+99999999999REMSYN03001035 46/// ///// 10028 2////=
0039010350999992016021715004+69567+020100FM-12+071099999V0209999C999999999999N999999999+00271+99999999999REMSYN03001035 46/// ///// 10027 2////=
0039010350999992016021716004+69567+020100FM-12+071099999V0209999C999999999999N999999999+00241+99999999999REMSYN03001035 46/// ///// 10024 2////=
0039010350999992016021717004+69567+020100FM-12+071099999V0209999C999999999999N999999999+00251+99999999999REMSYN03001035 46/// ///// 10025 2////=
0049010350999992016021718004+69567+020100FM-12+071099999V020999999999999999999999999999+99999+99999999999REMSYN04001035 46/// ///// 10022 2//// 333 10028=
0039010350999992016021719004+69567+020100FM-12+071099999V0209999C999999999999N999999999+00201+99999999999REMSYN03001035 46/// ///// 10020 2////=
0039010350999992016021720004+69567+020100FM-12+071099999V0209999C999999999999N999999999+00221+99999999999REMSYN03001035 46/// ///// 10022 2////=
0039010350999992016021721004+69567+020100FM-12+071099999V0209999C999999999999N999999999+00201+99999999999REMSYN03001035 46/// ///// 10020 2////=
0039010350999992016021722004+69567+020100FM-12+071099999V0209999C999999999999N999999999+00121+99999999999REMSYN03001035 46/// ///// 10012 2////=
0039010350999992016021723004+69567+020100FM-12+071099999V0209999C999999999999N999999999+00181+99999999999REMSYN03001035 46/// ///// 10018 2////=
0039010350999992016021800004+69567+020100FM-12+071099999V0209999C999999999999N999999999+00161+99999999999REMSYN03001035 46/// ///// 10016 2////=
0039010350999992016021801004+69567+020100FM-12+071099999V0209999C999999999999N999999999+00131+99999999999REMSYN03001035 46/// ///// 10013 2////=
0039010350999992016021802004+69567+020100FM-12+071099999V0209999C999999999999N999999999+00041+99999999999REMSYN03001035 46/// ///// 10004 2////=
0039010350999992016021803004+69567+020100FM-12+071099999V0209999C999999999999N999999999+00051+99999999999REMSYN03001035 46/// ///// 10005 2////=
0055010350999992016021806004+69567+020100FM-12+071099999V020999999999999999999999999999+99999+99999999999REMSYN04601035 46/// ///// 11002 2//// 333 21015 4/161=
0042010350999992016021809004+69559+020094FM-12+071099999V020999999999999999999999999999-00171+99999999999ADDKA1010M-00081KA2010N-00331REMSYN004BUFR
0042010350999992016021813004+69559+020094FM-12+071099999V020999999999999999999999999999+00001+99999999999ADDKA1010M+00001KA2010N-00151REMSYN004BUFR
0042010350999992016021901004+69559+020094FM-12+071099999V020999999999999999999999999999-00521+99999999999ADDKA1010M-00521KA2010N-00781REMSYN004BUFR
0042010350999992016021903004+69559+020094FM-12+071099999V020999999999999999999999999999-00421+99999999999ADDKA1010M-00411KA2010N-00481REMSYN004BUFR
0055010350999992016021906004+69567+020100FM-12+071099999V020999999999999999999999999999+99999+99999999999REMSYN04601035 46/// ///// 11044 2//// 333 21078 4/161=
0049010350999992016021918004+69567+020100FM-12+071099999V020999999999999999999999999999+99999+99999999999REMSYN04001035 46/// ///// 11029 2//// 333 11004=
0042010350999992016021919004+69559+020094FM-12+071099999V020999999999999999999999999999-00241+99999999999ADDKA1010M-00151KA2010N-00321REMSYN004BUFR
0042010350999992016022000004+69559+020094FM-12+071099999V020999999999999999999999999999-00421+99999999999ADDKA1010M-00401KA2010N-00661REMSYN004BUFR
0042010350999992016022001004+69559+020094FM-12+071099999V020999999999999999999999999999-00491+99999999999ADDKA1010M-00271KA2010N-00541REMSYN004BUFR
0042010350999992016022002004+69559+020094FM-12+071099999V020999999999999999999999999999-00601+99999999999ADDKA1010M-00301KA2010N-00601REMSYN004BUFR
0042010350999992016022003004+69559+020094FM-12+071099999V020999999999999999999999999999-00501+99999999999ADDKA1010M-00461KA2010N-00651REMSYN004BUFR
0042010350999992016022004004+69559+020094FM-12+071099999V020999999999999999999999999999-00601+99999999999ADDKA1010M-00321KA2010N-00621REMSYN004BUFR
0042010350999992016022005004+69559+020094FM-12+071099999V020999999999999999999999999999-00451+99999999999ADDKA1010M-00461KA2010N-00671REMSYN004BUFR
0055010350999992016022006004+69567+020100FM-12+071099999V020999999999999999999999999999+99999+99999999999REMSYN04601035 46/// ///// 11045 2//// 333 21069 4/158=
0042010350999992016022007004+69559+020094FM-12+071099999V020999999999999999999999999999-00401+99999999999ADDKA1010M-00331KA2010N-00531REMSYN004BUFR
0042010350999992016022010004+69559+020094FM-12+071099999V020999999999999999999999999999-00451+99999999999ADDKA1010M-00191KA2010N-00531REMSYN004BUFR
0042010350999992016022011004+69559+020094FM-12+071099999V020999999999999999999999999999-00541+99999999999ADDKA1010M-00371KA2010N-00541REMSYN004BUFR
0049010350999992016022018004+69567+020100FM-12+071099999V020999999999999999999999999999+99999+99999999999REMSYN04001035 46/// ///// 11077 2//// 333 11019=
0042010350999992016022104004+69559+020094FM-12+071099999V020999999999999999999999999999-00541+99999999999ADDKA1010M-00521KA2010N-00561REMSYN004BUFR
0042010350999992016022105004+69559+020094FM-12+071099999V020999999999999999999999999999-00541+99999999999ADDKA1010M-00531KA2010N-00551REMSYN004BUFR
0055010350999992016022106004+69567+020100FM-12+071099999V020999999999999999999999999999+99999+99999999999REMSYN04601035 46/// ///// 11050 2//// 333 21078 4/158=
0042010350999992016022107004+69559+020094FM-12+071099999V020999999999999999999999999999-00501+99999999999ADDKA1010M-00491KA2010N-00511REMSYN004BUFR
0042010350999992016022109004+69559+020094FM-12+071099999V020999999999999999999999999999-00471+99999999999ADDKA1010M-00471KA2010N-00501REMSYN004BUFR
0042010350999992016022114004+69559+020094FM-12+071099999V020999999999999999999999999999-00501+99999999999ADDKA1010M-00501KA2010N-00541REMSYN004BUFR
0042010350999992016022115004+69559+020094FM-12+071099999V020999999999999999999999999999-00501+99999999999ADDKA1010M-00501KA2010N-00531REMSYN004BUFR
0042010350999992016022117004+69559+020094FM-12+071099999V020999999999999999999999999999-00501+99999999999ADDKA1010M-00481KA2010N-00511REMSYN004BUFR
0042010350999992016022118004+69559+020094FM-12+071099999V020999999999999999999999999999-00451+99999999999ADDKA1120M-00451KA2120N-00541REMSYN004BUFR
0042010350999992016022200004+69559+020094FM-12+071099999V020999999999999999999999999999-00401+99999999999ADDKA1010M-00381KA2010N-00421REMSYN004BUFR
0042010350999992016022201004+69559+020094FM-12+071099999V020999999999999999999999999999-00421+99999999999ADDKA1010M-00401KA2010N-00441REMSYN004BUFR
0042010350999992016022203004+69559+020094FM-12+071099999V020999999999999999999999999999-00451+99999999999ADDKA1010M-00411KA2010N-00461REMSYN004BUFR
0059010350999992016022206004+69559+020094FM-12+071099999V020999999999999999999999999999-00401+99999999999ADDAJ101619101610099KA1120M-00381KA2120N-00471REMSYN004BUFR
0042010350999992016022207004+69559+020094FM-12+071099999V020999999999999999999999999999-00421+99999999999ADDKA1010M-00401KA2010N-00431REMSYN004BUFR
0042010350999992016022212004+69559+020094FM-12+071099999V020999999999999999999999999999-00571+99999999999ADDKA1010M-00491KA2010N-00591REMSYN004BUFR
0042010350999992016022218004+69559+020094FM-12+071099999V020999999999999999999999999999-00751+99999999999ADDKA1120M-00391KA2120N-00881REMSYN004BUFR
0042010350999992016022219004+69559+020094FM-12+071099999V020999999999999999999999999999-00901+99999999999ADDKA1010M-00691KA2010N-00911REMSYN004BUFR
0042010350999992016022300004+69559+020094FM-12+071099999V020999999999999999999999999999-01041+99999999999ADDKA1010M-00881KA2010N-01101REMSYN004BUFR
0042010350999992016022301004+69559+020094FM-12+071099999V020999999999999999999999999999-00971+99999999999ADDKA1010M-00981KA2010N-01141REMSYN004BUFR
0042010350999992016022305004+69559+020094FM-12+071099999V020999999999999999999999999999-00621+99999999999ADDKA1010M-00531KA2010N-00621REMSYN004BUFR
0059010350999992016022306004+69559+020094FM-12+071099999V020999999999999999999999999999-00571+99999999999ADDAJ101599101590099KA1120M-00531KA2120N-01141REMSYN004BUFR
0049010350999992016022318004+69567+020100FM-12+071099999V020999999999999999999999999999+99999+99999999999REMSYN04001035 46/// ///// 11060 2//// 333 11027=
0042010350999992016022403004+69559+020094FM-12+071099999V020999999999999999999999999999-00871+99999999999ADDKA1010M-00811KA2010N-00891REMSYN004BUFR
0059010350999992016022406004+69559+020094FM-12+071099999V020999999999999999999999999999-00941+99999999999ADDAJ101759101750099KA1120M-00571KA2120N-01101REMSYN004BUFR
0042010350999992016022407004+69559+020094FM-12+071099999V020999999999999999999999999999-00951+99999999999ADDKA1010M-00941KA2010N-00951REMSYN004BUFR
0042010350999992016022415004+69559+020094FM-12+071099999V020999999999999999999999999999-01251+99999999999ADDKA1010M-01141KA2010N-01321REMSYN004BUFR
0042010350999992016022417004+69559+020094FM-12+071099999V020999999999999999999999999999-01101+99999999999ADDKA1010M-01021KA2010N-01281REMSYN004BUFR
0042010350999992016022418004+69559+020094FM-12+071099999V020999999999999999999999999999-00971+99999999999ADDKA1120M-00911KA2120N-01331REMSYN004BUFR
0042010350999992016022421004+69559+020094FM-12+071099999V020999999999999999999999999999-00951+99999999999ADDKA1010M-00941KA2010N-01151REMSYN004BUFR
0042010350999992016022502004+69559+020094FM-12+071099999V020999999999999999999999999999-00771+99999999999ADDKA1010M-00701KA2010N-00811REMSYN004BUFR
0042010350999992016022503004+69559+020094FM-12+071099999V020999999999999999999999999999-00721+99999999999ADDKA1010M-00711KA2010N-00791REMSYN004BUFR
0059010350999992016022506004+69559+020094FM-12+071099999V020999999999999999999999999999-00791+99999999999ADDAJ101729101720099KA1120M-00681KA2120N-01151REMSYN004BUFR
0042010350999992016022507004+69559+020094FM-12+071099999V020999999999999999999999999999-00751+99999999999ADDKA1010M-00701KA2010N-00831REMSYN004BUFR
0042010350999992016022511004+69559+020094FM-12+071099999V020999999999999999999999999999-00801+99999999999ADDKA1010M-00671KA2010N-00801REMSYN004BUFR
0042010350999992016022512004+69559+020094FM-12+071099999V020999999999999999999999999999-01051+99999999999ADDKA1010M-00811KA2010N-01051REMSYN004BUFR
0049010350999992016022518004+69567+020100FM-12+071099999V020999999999999999999999999999+99999+99999999999REMSYN04001035 46/// ///// 11154 2//// 333 11067=
0042010350999992016022519004+69559+020094FM-12+071099999V020999999999999999999999999999-01371+99999999999ADDKA1010M-01331KA2010N-01541REMSYN004BUFR
0042010350999992016022601004+69559+020094FM-12+071099999V020999999999999999999999999999-01471+99999999999ADDKA1010M-01371KA2010N-01491REMSYN004BUFR
0055010350999992016022606004+69567+020100FM-12+071099999V020999999999999999999999999999+99999+99999999999REMSYN04601035 46/// ///// 11158 2//// 333 21163 4/169=
0042010350999992016022607004+69559+020094FM-12+071099999V020999999999999999999999999999-01601+99999999999ADDKA1010M-01531KA2010N-01611REMSYN004BUFR
0042010350999992016022615004+69559+020094FM-12+071099999V020999999999999999999999999999-01021+99999999999ADDKA1010M-01031KA2010N-01281REMSYN004BUFR
0049010350999992016022618004+69567+020100FM-12+071099999V020999999999999999999999999999+99999+99999999999REMSYN04001035 46/// ///// 11097 2//// 333 11083=
0042010350999992016022619004+69559+020094FM-12+071099999V020999999999999999999999999999-01041+99999999999ADDKA1010M-00951KA2010N-01061REMSYN004BUFR
0042010350999992016022701004+69559+020094FM-12+071099999V020999999999999999999999999999-01001+99999999999ADDKA1010M-01011KA2010N-01271REMSYN004BUFR
0055010350999992016022706004+69567+020100FM-12+071099999V020999999999999999999999999999+99999+99999999999REMSYN04601035 46/// ///// 11094 2//// 333 21127 4/166=
0042010350999992016022708004+69559+020094FM-12+071099999V020999999999999999999999999999-00751+99999999999ADDKA1010M-00711KA2010N-01031REMSYN004BUFR
0042010350999992016022714004+69559+020094FM-12+071099999V020999999999999999999999999999-00651+99999999999ADDKA1010M-00611KA2010N-00671REMSYN004BUFR
0042010350999992016022715004+69559+020094FM-12+071099999V020999999999999999999999999999-00801+99999999999ADDKA1010M-00651KA2010N-00801REMSYN004BUFR
0042010350999992016022718004+69559+020094FM-12+071099999V020999999999999999999999999999-01241+99999999999ADDKA1120M-00571KA2120N-01321REMSYN004BUFR
0042010350999992016022719004+69559+020094FM-12+071099999V020999999999999999999999999999-01201+99999999999ADDKA1010M-01191KA2010N-01311REMSYN004BUFR
0042010350999992016022722004+69559+020094FM-12+071099999V020999999999999999999999999999-01391+99999999999ADDKA1010M-01221KA2010N-01391REMSYN004BUFR
0059010350999992016022806004+69559+020094FM-12+071099999V020999999999999999999999999999-00721+99999999999ADDAJ101659101650099KA1120M-00511KA2120N-01401REMSYN004BUFR
0042010350999992016022815004+69559+020094FM-12+071099999V020999999999999999999999999999-00421+99999999999ADDKA1010M-00421KA2010N-00461REMSYN004BUFR
0049010350999992016022818004+69567+020100FM-12+071099999V020999999999999999999999999999+99999+99999999999REMSYN04001035 46/// ///// 11040 2//// 333 11036=
0042010350999992016022902004+69559+020094FM-12+071099999V020999999999999999999999999999-00421+99999999999ADDKA1010M-00411KA2010N-00451REMSYN004BUFR
0042010350999992016022905004+69559+020094FM-12+071099999V020999999999999999999999999999-00391+99999999999ADDKA1010M-00391KA2010N-00491REMSYN004BUFR
0059010350999992016022906004+69559+020094FM-12+071099999V020999999999999999999999999999-00401+99999999999ADDAJ101669101660099KA1120M-00371KA2120N-00491REMSYN004BUFR
0042010350999992016022908004+69559+020094FM-12+071099999V020999999999999999999999999999-00401+99999999999ADDKA1010M-00381KA2010N-00451REMSYN004BUFR
0042010350999992016022909004+69559+020094FM-12+071099999V020999999999999999999999999999-00391+99999999999ADDKA1010M-00361KA2010N-00401REMSYN004BUFR
0042010350999992016022914004+69559+020094FM-12+071099999V020999999999999999999999999999-00501+99999999999ADDKA1010M-00371KA2010N-00501REMSYN004BUFR
0049010350999992016022918004+69567+020100FM-12+071099999V020999999999999999999999999999+99999+99999999999REMSYN04001035 46/// ///// 11057 2//// 333 11033=
0042010350999992016030100004+69559+020094FM-12+071099999V020999999999999999999999999999-00571+99999999999ADDKA1010M-00391KA2010N-00591REMSYN004BUFR
0059010350999992016030106004+69559+020094FM-12+071099999V020999999999999999999999999999-00691+99999999999ADDAJ101639101630099KA1120M-00371KA2120N-00741REMSYN004BUFR
0042010350999992016030107004+69559+020094FM-12+071099999V020999999999999999999999999999-00691+99999999999ADDKA1010M-00611KA2010N-00791REMSYN004BUFR
0042010350999992016030110004+69559+020094FM-12+071099999V020999999999999999999999999999-00351+99999999999ADDKA1010M-00351KA2010N-00721REMSYN004BUFR
0042010350999992016030111004+69559+020094FM-12+071099999V020999999999999999999999999999-00341+99999999999ADDKA1010M-00311KA2010N-00581REMSYN004BUFR
0049010350999992016030118004+69567+020100FM-12+071099999V020999999999999999999999999999+99999+99999999999REMSYN04001035 46/// ///// 11046 2//// 333 11009=
0042010350999992016030203004+69559+020094FM-12+071099999V020999999999999999999999999999-00671+99999999999ADDKA1010M-00441KA2010N-00711REMSYN004BUFR
0042010350999992016030204004+69559+020094FM-12+071099999V020999999999999999999999999999-00751+99999999999ADDKA1010M-00431KA2010N-00771REMSYN004BUFR
0059010350999992016030206004+69559+020094FM-12+071099999V020999999999999999999999999999-00751+99999999999ADDAJ101639101630099KA1120M-00151KA2120N-01041REMSYN004BUFR
0042010350999992016030209004+69559+020094FM-12+071099999V020999999999999999999999999999-00471+99999999999ADDKA1010M-00371KA2010N-00611REMSYN004BUFR
0042010350999992016030210004+69559+020094FM-12+071099999V020999999999999999999999999999-00271+99999999999ADDKA1010M-00211KA2010N-00471REMSYN004BUFR
0042010350999992016030213004+69559+020094FM-12+071099999V020999999999999999999999999999-00501+99999999999ADDKA1010M-00441KA2010N-00561REMSYN004BUFR
0042010350999992016030214004+69559+020094FM-12+071099999V020999999999999999999999999999-00551+99999999999ADDKA1010M-00441KA2010N-00651REMSYN004BUFR
0042010350999992016030215004+69559+020094FM-12+071099999V020999999999999999999999999999-00621+99999999999ADDKA1010M-00491KA2010N-00641REMSYN004BUFR
0049010350999992016030218004+69567+020100FM-12+071099999V020999999999999999999999999999+99999+99999999999REMSYN04001035 46/// ///// 11069 2//// 333 11021=
0042010350999992016030219004+69559+020094FM-12+071099999V020999999999999999999999999999-00671+99999999999ADDKA1010M-00681KA2010N-00711REMSYN004BUFR
0042010350999992016030222004+69559+020094FM-12+071099999V020999999999999999999999999999-00721+99999999999ADDKA1010M-00641KA2010N-00731REMSYN004BUFR
0042010350999992016030223004+69559+020094FM-12+071099999V020999999999999999999999999999-00741+99999999999ADDKA1010M-00731KA2010N-00811REMSYN004BUFR
0042010350999992016030300004+69559+020094FM-12+071099999V020999999999999999999999999999-00751+99999999999ADDKA1010M-00701KA2010N-00801REMSYN004BUFR
0042010350999992016030301004+69559+020094FM-12+071099999V020999999999999999999999999999-00691+99999999999ADDKA1010M-00671KA2010N-00781REMSYN004BUFR
0042010350999992016030303004+69559+020094FM-12+071099999V020999999999999999999999999999-00771+99999999999ADDKA1010M-00751KA2010N-00861REMSYN004BUFR
0042010350999992016030304004+69559+020094FM-12+071099999V020999999999999999999999999999-00721+99999999999ADDKA1010M-00731KA2010N-00831REMSYN004BUFR
0042010350999992016030305004+69559+020094FM-12+071099999V020999999999999999999999999999-00751+99999999999ADDKA1010M-00661KA2010N-00751REMSYN004BUFR
0059010350999992016030306004+69559+020094FM-12+071099999V020999999999999999999999999999-00751+99999999999ADDAJ101629101620099KA1120M-00641KA2120N-00861REMSYN004BUFR
0042010350999992016030311004+69559+020094FM-12+071099999V020999999999999999999999999999-00901+99999999999ADDKA1010M-00761KA2010N-00961REMSYN004BUFR
0042010350999992016030316004+69559+020094FM-12+071099999V020999999999999999999999999999-00891+99999999999ADDKA1010M-00861KA2010N-01041REMSYN004BUFR
0049010350999992016030318004+69567+020100FM-12+071099999V020999999999999999999999999999+99999+99999999999REMSYN04001035 46/// ///// 11085 2//// 333 11067=
0042010350999992016030319004+69559+020094FM-12+071099999V020999999999999999999999999999-00721+99999999999ADDKA1010M-00681KA2010N-00831REMSYN004BUFR
0042010350999992016030320004+69559+020094FM-12+071099999V020999999999999999999999999999-00751+99999999999ADDKA1010M-00531KA2010N-00761REMSYN004BUFR
0042010350999992016030400004+69559+020094FM-12+071099999V020999999999999999999999999999-00371+99999999999ADDKA1010M-00361KA2010N-00631REMSYN004BUFR
0042010350999992016030401004+69559+020094FM-12+071099999V020999999999999999999999999999-00701+99999999999ADDKA1010M-00371KA2010N-00711REMSYN004BUFR
0042010350999992016030402004+69559+020094FM-12+071099999V020999999999999999999999999999-00401+99999999999ADDKA1010M-00401KA2010N-00691REMSYN004BUFR
0042010350999992016030403004+69559+020094FM-12+071099999V020999999999999999999999999999-00451+99999999999ADDKA1010M-00371KA2010N-00491REMSYN004BUFR
0042010350999992016030404004+69559+020094FM-12+071099999V020999999999999999999999999999-00601+99999999999ADDKA1010M-00451KA2010N-00611REMSYN004BUFR
0055010350999992016030406004+69567+020100FM-12+071099999V020999999999999999999999999999+99999+99999999999REMSYN04601035 46/// ///// 11081 2//// 333 21083 4/161=
0042010350999992016030407004+69559+020094FM-12+071099999V020999999999999999999999999999-00691+99999999999ADDKA1010M-00671KA2010N-00911REMSYN004BUFR
0042010350999992016030408004+69559+020094FM-12+071099999V020999999999999999999999999999-00741+99999999999ADDKA1010M-00701KA2010N-00871REMSYN004BUFR
0042010350999992016030410004+69559+020094FM-12+071099999V020999999999999999999999999999-00591+99999999999ADDKA1010M-00461KA2010N-00651REMSYN004BUFR
0042010350999992016030411004+69559+020094FM-12+071099999V020999999999999999999999999999-00471+99999999999ADDKA1010M-00431KA2010N-00581REMSYN004BUFR
0042010350999992016030412004+69559+020094FM-12+071099999V020999999999999999999999999999-00701+99999999999ADDKA1010M-00491KA2010N-00701REMSYN004BUFR
0042010350999992016030414004+69559+020094FM-12+071099999V020999999999999999999999999999-00741+99999999999ADDKA1010M-00651KA2010N-00781REMSYN004BUFR
0049010350999992016030418004+69567+020100FM-12+071099999V020999999999999999999999999999+99999+99999999999REMSYN04001035 46/// ///// 11053 2//// 333 11043=
0042010350999992016030423004+69559+020094FM-12+071099999V020999999999999999999999999999-00751+99999999999ADDKA1010M-00491KA2010N-00761REMSYN004BUFR
0042010350999992016030500004+69559+020094FM-12+071099999V020999999999999999999999999999-00521+99999999999ADDKA1010M-00341KA2010N-00881REMSYN004BUFR
0042010350999992016030503004+69559+020094FM-12+071099999V020999999999999999999999999999-00521+99999999999ADDKA1010M-00381KA2010N-00681REMSYN004BUFR
0055010350999992016030506004+69567+020100FM-12+071099999V020999999999999999999999999999+99999+99999999999REMSYN04601035 46/// ///// 11070 2//// 333 21088 4/161=
0042010350999992016030507004+69559+020094FM-12+071099999V020999999999999999999999999999-00621+99999999999ADDKA1010M-00541KA2010N-00841REMSYN004BUFR
0042010350999992016030509004+69559+020094FM-12+071099999V020999999999999999999999999999-00301+99999999999ADDKA1010M-00291KA2010N-00501REMSYN004BUFR
0049010350999992016030518004+69567+020100FM-12+071099999V020999999999999999999999999999+99999+99999999999REMSYN04001035 46/// ///// 11063 2//// 333 11019=
0042010350999992016030600004+69559+020094FM-12+071099999V020999999999999999999999999999-00751+99999999999ADDKA1010M-00651KA2010N-00851REMSYN004BUFR
0042010350999992016030603004+69559+020094FM-12+071099999V020999999999999999999999999999-00571+99999999999ADDKA1010M-00551KA2010N-00771REMSYN004BUFR
0042010350999992016030605004+69559+020094FM-12+071099999V020999999999999999999999999999-00851+99999999999ADDKA1010M-00591KA2010N-00891REMSYN004BUFR
0059010350999992016030606004+69559+020094FM-12+071099999V020999999999999999999999999999-01051+99999999999ADDAJ101599101590099KA1120M-00271KA2120N-01061REMSYN004BUFR
0042010350999992016030607004+69559+020094FM-12+071099999V020999999999999999999999999999-00941+99999999999ADDKA1010M-00521KA2010N-01091REMSYN004BUFR
0042010350999992016030608004+69559+020094FM-12+071099999V020999999999999999999999999999-00901+99999999999ADDKA1010M-00731KA2010N-01031REMSYN004BUFR
0042010350999992016030609004+69559+020094FM-12+071099999V020999999999999999999999999999-00921+99999999999ADDKA1010M-00861KA2010N-01031REMSYN004BUFR
0042010350999992016030612004+69559+020094FM-12+071099999V020999999999999999999999999999-00491+99999999999ADDKA1010M-00481KA2010N-00641REMSYN004BUFR
0042010350999992016030613004+69559+020094FM-12+071099999V020999999999999999999999999999-00671+99999999999ADDKA1010M-00431KA2010N-00741REMSYN004BUFR
0049010350999992016030618004+69567+020100FM-12+071099999V020999999999999999999999999999+99999+99999999999REMSYN04001035 46/// ///// 11040 2//// 333 11028=
0042010350999992016030622004+69559+020094FM-12+071099999V020999999999999999999999999999-00441+99999999999ADDKA1010M-00441KA2010N-00561REMSYN004BUFR
0042010350999992016030703004+69559+020094FM-12+071099999V020999999999999999999999999999-00471+99999999999ADDKA1010M-00401KA2010N-00491REMSYN004BUFR
0059010350999992016030706004+69559+020094FM-12+071099999V020999999999999999999999999999-00351+99999999999ADDAJ101599101590099KA1120M-00321KA2120N-00751REMSYN004BUFR
0042010350999992016030707004+69559+020094FM-12+071099999V020999999999999999999999999999-00271+99999999999ADDKA1010M-00281KA2010N-00431REMSYN004BUFR
0042010350999992016030708004+69559+020094FM-12+071099999V020999999999999999999999999999-00221+99999999999ADDKA1010M-00231KA2010N-00321REMSYN004BUFR
0042010350999992016030710004+69559+020094FM-12+071099999V020999999999999999999999999999-00251+99999999999ADDKA1010M-00241KA2010N-00301REMSYN004BUFR
0049010350999992016030718004+69567+020100FM-12+071099999V020999999999999999999999999999+99999+99999999999REMSYN04001035 46/// ///// 11053 2//// 333 11020=
0042010350999992016030723004+69559+020094FM-12+071099999V020999999999999999999999999999-00621+99999999999ADDKA1010M-00441KA2010N-00651REMSYN004BUFR
0042010350999992016030800004+69559+020094FM-12+071099999V020999999999999999999999999999-00651+99999999999ADDKA1010M-00501KA2010N-00661REMSYN004BUFR
0042010350999992016030801004+69559+020094FM-12+071099999V020999999999999999999999999999-00821+99999999999ADDKA1010M-00661KA2010N-00851REMSYN004BUFR
0055010350999992016030806004+69567+020100FM-12+071099999V020999999999999999999999999999+99999+99999999999REMSYN04601035 46/// ///// 11060 2//// 333 21085 4/158=
0042010350999992016030807004+69559+020094FM-12+071099999V020999999999999999999999999999-00571+99999999999ADDKA1010M-00571KA2010N-00671REMSYN004BUFR
0042010350999992016030811004+69559+020094FM-12+071099999V020999999999999999999999999999-00421+99999999999ADDKA1010M-00431KA2010N-00551REMSYN004BUFR
0042010350999992016030812004+69559+020094FM-12+071099999V020999999999999999999999999999-00421+99999999999ADDKA1010M-00261KA2010N-00451REMSYN004BUFR
0042010350999992016030813004+69559+020094FM-12+071099999V020999999999999999999999999999-00571+99999999999ADDKA1010M-00361KA2010N-00581REMSYN004BUFR
0049010350999992016030818004+69567+020100FM-12+071099999V020999999999999999999999999999+99999+99999999999REMSYN04001035 46/// ///// 11076 2//// 333 11026=
0059010350999992016030906004+69559+020094FM-12+071099999V020999999999999999999999999999-00951+99999999999ADDAJ101589101580099KA1120M-00771KA2120N-01141REMSYN004BUFR
0049010350999992016030918004+69567+020100FM-12+071099999V020999999999999999999999999999-00975+99999999999REMSYN04001035 46/// ///// 11097 2//// 333 11036=
0042010350999992016031002004+69559+020094FM-12+071099999V020999999999999999999999999999-00921+99999999999ADDKA1010M-00921KA2010N-01051REMSYN004BUFR
0055010350999992016031006004+69567+020100FM-12+071099999V020999999999999999999999999999-00945+99999999999REMSYN04601035 46/// ///// 11094 2//// 333 21111 4/157=
0042010350999992016031010004+69559+020094FM-12+071099999V020999999999999999999999999999-00491+99999999999ADDKA1010M-00461KA2010N-00891REMSYN004BUFR
0049010350999992016031018004+69567+020100FM-12+071099999V020999999999999999999999999999-00595+99999999999REMSYN04001035 46/// ///// 11059 2//// 333 11031=
0042010350999992016031101004+69559+020094FM-12+071099999V020999999999999999999999999999-00551+99999999999ADDKA1010M-00561KA2010N-00701REMSYN004BUFR
0055010350999992016031106004+69567+020100FM-12+071099999V020999999999999999999999999999+99999+99999999999REMSYN04601035 46/// ///// 11070 2//// 333 21079 4/157=
0049010350999992016031118004+69567+020100FM-12+071099999V020999999999999999999999999999+99999+99999999999REMSYN04001035 46/// ///// 11002 2//// 333 11002=
0042010350999992016031119004+69559+020094FM-12+071099999V020999999999999999999999999999+00001+99999999999ADDKA1010M+00011KA2010N-00141REMSYN004BUFR
0039010350999992016031121004+69567+020100FM-12+071099999V0209999C999999999999N999999999+00041+99999999999REMSYN03001035 46/// ///// 10004 2////=
0042010350999992016031123004+69559+020094FM-12+071099999V020999999999999999999999999999-00021+99999999999ADDKA1010M-00021KA2010N-00081REMSYN004BUFR
0039010350999992016031200004+69567+020100FM-12+071099999V0209999C999999999999N999999999+00021+99999999999REMSYN03001035 46/// ///// 10002 2////=
0039010350999992016031201004+69567+020100FM-12+071099999V0209999C999999999999N999999999+00221+99999999999REMSYN03001035 46/// ///// 10022 2////=
0039010350999992016031202004+69567+020100FM-12+071099999V0209999C999999999999N999999999+00291+99999999999REMSYN03001035 46/// ///// 10029 2////=
0039010350999992016031203004+69567+020100FM-12+071099999V0209999C999999999999N999999999+00271+99999999999REMSYN03001035 46/// ///// 10027 2////=
0039010350999992016031204004+69567+020100FM-12+071099999V0209999C999999999999N999999999+00241+99999999999REMSYN03001035 46/// ///// 10024 2////=
0039010350999992016031205004+69567+020100FM-12+071099999V0209999C999999999999N999999999+00141+99999999999REMSYN03001035 46/// ///// 10014 2////=
0055010350999992016031206004+69567+020100FM-12+071099999V020999999999999999999999999999+99999+99999999999REMSYN04601035 46/// ///// 10016 2//// 333 21014 4/159=
0039010350999992016031207004+69567+020100FM-12+071099999V0209999C999999999999N999999999+00191+99999999999REMSYN03001035 46/// ///// 10019 2////=
0039010350999992016031208004+69567+020100FM-12+071099999V0209999C999999999999N999999999+00361+99999999999REMSYN03001035 46/// ///// 10036 2////=
0039010350999992016031209004+69567+020100FM-12+071099999V0209999C999999999999N999999999+00281+99999999999REMSYN03001035 46/// ///// 10028 2////=
0039010350999992016031210004+69567+020100FM-12+071099999V0209999C999999999999N999999999+00351+99999999999REMSYN03001035 46/// ///// 10035 2////=
0039010350999992016031211004+69567+020100FM-12+071099999V0209999C999999999999N999999999+00331+99999999999REMSYN03001035 46/// ///// 10033 2////=
0039010350999992016031212004+69567+020100FM-12+071099999V0209999C999999999999N999999999+00411+99999999999REMSYN03001035 46/// ///// 10041 2////=
0039010350999992016031213004+69567+020100FM-12+071099999V0209999C999999999999N999999999+00411+99999999999REMSYN03001035 46/// ///// 10041 2////=
0039010350999992016031214004+69567+020100FM-12+071099999V0209999C999999999999N999999999+00411+99999999999REMSYN03001035 46/// ///// 10041 2////=
0039010350999992016031215004+69567+020100FM-12+071099999V0209999C999999999999N999999999+00311+99999999999REMSYN03001035 46/// ///// 10031 2////=
0039010350999992016031216004+69567+020100FM-12+071099999V0209999C999999999999N999999999+00281+99999999999REMSYN03001035 46/// ///// 10028 2////=
0039010350999992016031217004+69567+020100FM-12+071099999V0209999C999999999999N999999999+00251+99999999999REMSYN03001035 46/// ///// 10025 2////=
0049010350999992016031218004+69567+020100FM-12+071099999V020999999999999999999999999999+99999+99999999999REMSYN04001035 46/// ///// 10022 2//// 333 10045=
0039010350999992016031219004+69567+020100FM-12+071099999V0209999C999999999999N999999999+00211+99999999999REMSYN03001035 46/// ///// 10021 2////=
0039010350999992016031220004+69567+020100FM-12+071099999V0209999C999999999999N999999999+00181+99999999999REMSYN03001035 46/// ///// 10018 2////=
0039010350999992016031221004+69567+020100FM-12+071099999V0209999C999999999999N999999999+00231+99999999999REMSYN03001035 46/// ///// 10023 2////=
0039010350999992016031222004+69567+020100FM-12+071099999V0209999C999999999999N999999999+00231+99999999999REMSYN03001035 46/// ///// 10023 2////=
0039010350999992016031223004+69567+020100FM-12+071099999V0209999C999999999999N999999999+00141+99999999999REMSYN03001035 46/// ///// 10014 2////=
0039010350999992016031300004+69567+020100FM-12+071099999V0209999C999999999999N999999999+00281+99999999999REMSYN03001035 46/// ///// 10028 2////=
0039010350999992016031302004+69567+020100FM-12+071099999V0209999C999999999999N999999999+00201+99999999999REMSYN03001035 46/// ///// 10020 2////=
0039010350999992016031303004+69567+020100FM-12+071099999V0209999C999999999999N999999999+00231+99999999999REMSYN03001035 46/// ///// 10023 2////=
0039010350999992016031304004+69567+020100FM-12+071099999V0209999C999999999999N999999999+00271+99999999999REMSYN03001035 46/// ///// 10027 2////=
0039010350999992016031305004+69567+020100FM-12+071099999V0209999C999999999999N999999999+00331+99999999999REMSYN03001035 46/// ///// 10033 2////=
0055010350999992016031306004+69567+020100FM-12+071099999V020999999999999999999999999999+99999+99999999999REMSYN04601035 46/// ///// 10039 2//// 333 21004 4/156=
0039010350999992016031307004+69567+020100FM-12+071099999V0209999C999999999999N999999999+00371+99999999999REMSYN03001035 46/// ///// 10037 2////=
0039010350999992016031308004+69567+020100FM-12+071099999V0209999C999999999999N999999999+00161+99999999999REMSYN03001035 46/// ///// 10016 2////=
0039010350999992016031309004+69567+020100FM-12+071099999V0209999C999999999999N999999999+00171+99999999999REMSYN03001035 46/// ///// 10017 2////=
0039010350999992016031310004+69567+020100FM-12+071099999V0209999C999999999999N999999999+00131+99999999999REMSYN03001035 46/// ///// 10013 2////=
0039010350999992016031311004+69567+020100FM-12+071099999V0209999C999999999999N999999999+00191+99999999999REMSYN03001035 46/// ///// 10019 2////=
0039010350999992016031312004+69567+020100FM-12+071099999V0209999C999999999999N999999999+00321+99999999999REMSYN03001035 46/// ///// 10032 2////=
0039010350999992016031313004+69567+020100FM-12+071099999V0209999C999999999999N999999999+00261+99999999999REMSYN03001035 46/// ///// 10026 2////=
0039010350999992016031314004+69567+020100FM-12+071099999V0209999C999999999999N999999999+00191+99999999999REMSYN03001035 46/// ///// 10019 2////=
0039010350999992016031315004+69567+020100FM-12+071099999V0209999C999999999999N999999999+00101+99999999999REMSYN03001035 46/// ///// 10010 2////=
0039010350999992016031316004+69567+020100FM-12+071099999V0209999C999999999999N999999999+00031+99999999999REMSYN03001035 46/// ///// 10003 2////=
0039010350999992016031317004+69567+020100FM-12+071099999V0209999C999999999999N999999999+00041+99999999999REMSYN03001035 46/// ///// 10004 2////=
0049010350999992016031318004+69567+020100FM-12+071099999V020999999999999999999999999999+99999+99999999999REMSYN04001035 46/// ///// 10002 2//// 333 10050=
0039010350999992016031319004+69567+020100FM-12+071099999V0209999C999999999999N999999999+00011+99999999999REMSYN03001035 46/// ///// 10001 2////=
0055010350999992016031406004+69567+020100FM-12+071099999V020999999999999999999999999999+99999+99999999999REMSYN04601035 46/// ///// 11006 2//// 333 21020 4/157=
0039010350999992016031407004+69567+020100FM-12+071099999V0209999C999999999999N999999999+00021+99999999999REMSYN03001035 46/// ///// 10002 2////=
0039010350999992016031408004+69567+020100FM-12+071099999V0209999C999999999999N999999999+00011+99999999999REMSYN03001035 46/// ///// 10001 2////=
0039010350999992016031409004+69567+020100FM-12+071099999V0209999C999999999999N999999999+00031+99999999999REMSYN03001035 46/// ///// 10003 2////=
0039010350999992016031410004+69567+020100FM-12+071099999V0209999C999999999999N999999999+00011+99999999999REMSYN03001035 46/// ///// 10001 2////=
0039010350999992016031411004+69567+020100FM-12+071099999V0209999C999999999999N999999999+00181+99999999999REMSYN03001035 46/// ///// 10018 2////=
0039010350999992016031414004+69567+020100FM-12+071099999V0209999C999999999999N999999999+00021+99999999999REMSYN03001035 46/// ///// 10002 2////=
0039010350999992016031415004+69567+020100FM-12+071099999V0209999C999999999999N999999999+00051+99999999999REMSYN03001035 46/// ///// 10005 2////=
0039010350999992016031416004+69567+020100FM-12+071099999V0209999C999999999999N999999999+00271+99999999999REMSYN03001035 46/// ///// 10027 2////=
0039010350999992016031417004+69567+020100FM-12+071099999V0209999C999999999999N999999999+00551+99999999999REMSYN03001035 46/// ///// 10055 2////=
0049010350999992016031418004+69567+020100FM-12+071099999V020999999999999999999999999999+99999+99999999999REMSYN04001035 46/// ///// 10051 2//// 333 10061=
0039010350999992016031419004+69567+020100FM-12+071099999V0209999C999999999999N999999999+00451+99999999999REMSYN03001035 46/// ///// 10045 2////=
0039010350999992016031420004+69567+020100FM-12+071099999V0209999C999999999999N999999999+00541+99999999999REMSYN03001035 46/// ///// 10054 2////=
0039010350999992016031421004+69567+020100FM-12+071099999V0209999C999999999999N999999999+00461+99999999999REMSYN03001035 46/// ///// 10046 2////=
0039010350999992016031422004+69567+020100FM-12+071099999V0209999C999999999999N999999999+00491+99999999999REMSYN03001035 46/// ///// 10049 2////=
0039010350999992016031423004+69567+020100FM-12+071099999V0209999C999999999999N999999999+00521+99999999999REMSYN03001035 46/// ///// 10052 2////=
0039010350999992016031500004+69567+020100FM-12+071099999V0209999C999999999999N999999999+00491+99999999999REMSYN03001035 46/// ///// 10049 2////=
0039010350999992016031501004+69567+020100FM-12+071099999V0209999C999999999999N999999999+00501+99999999999REMSYN03001035 46/// ///// 10050 2////=
0039010350999992016031502004+69567+020100FM-12+071099999V0209999C999999999999N999999999+00521+99999999999REMSYN03001035 46/// ///// 10052 2////=
0039010350999992016031503004+69567+020100FM-12+071099999V0209999C999999999999N999999999+00611+99999999999REMSYN03001035 46/// ///// 10061 2////=
0039010350999992016031504004+69567+020100FM-12+071099999V0209999C999999999999N999999999+00491+99999999999REMSYN03001035 46/// ///// 10049 2////=
0039010350999992016031505004+69567+020100FM-12+071099999V0209999C999999999999N999999999+00401+99999999999REMSYN03001035 46/// ///// 10040 2////=
0055010350999992016031506004+69567+020100FM-12+071099999V020999999999999999999999999999+99999+99999999999REMSYN04601035 46/// ///// 10036 2//// 333 20033 4/154=
0039010350999992016031507004+69567+020100FM-12+071099999V0209999C999999999999N999999999+00281+99999999999REMSYN03001035 46/// ///// 10028 2////=
0039010350999992016031508004+69567+020100FM-12+071099999V0209999C999999999999N999999999+00341+99999999999REMSYN03001035 46/// ///// 10034 2////=
0039010350999992016031509004+69567+020100FM-12+071099999V0209999C999999999999N999999999+00301+99999999999REMSYN03001035 46/// ///// 10030 2////=
0039010350999992016031510004+69567+020100FM-12+071099999V0209999C999999999999N999999999+00271+99999999999REMSYN03001035 46/// ///// 10027 2////=
0039010350999992016031511004+69567+020100FM-12+071099999V0209999C999999999999N999999999+00231+99999999999REMSYN03001035 46/// ///// 10023 2////=
0039010350999992016031512004+69567+020100FM-12+071099999V0209999C999999999999N999999999+00221+99999999999REMSYN03001035 46/// ///// 10022 2////=
0039010350999992016031513004+69567+020100FM-12+071099999V0209999C999999999999N999999999+00201+99999999999REMSYN03001035 46/// ///// 10020 2////=
0039010350999992016031514004+69567+020100FM-12+071099999V0209999C999999999999N999999999+00221+99999999999REMSYN03001035 46/// ///// 10022 2////=
0039010350999992016031515004+69567+020100FM-12+071099999V0209999C999999999999N999999999+00151+99999999999REMSYN03001035 46/// ///// 10015 2////=
0039010350999992016031516004+69567+020100FM-12+071099999V0209999C999999999999N999999999+00111+99999999999REMSYN03001035 46/// ///// 10011 2////=
0039010350999992016031517004+69567+020100FM-12+071099999V0209999C999999999999N999999999+00091+99999999999REMSYN03001035 46/// ///// 10009 2////=
0042010350999992016031518004+69559+020094FM-12+071099999V020999999999999999999999999999+00021+99999999999ADDKA1120M+00361KA2120N+00031REMSYN004BUFR
0039010350999992016031519004+69567+020100FM-12+071099999V0209999C999999999999N999999999+00071+99999999999REMSYN03001035 46/// ///// 10007 2////=
0039010350999992016031520004+69567+020100FM-12+071099999V0209999C999999999999N999999999+00041+99999999999REMSYN03001035 46/// ///// 10004 2////=
0039010350999992016031521004+69567+020100FM-12+071099999V0209999C999999999999N999999999+00001+99999999999REMSYN03001035 46/// ///// 10000 2////=
0055010350999992016031606004+69567+020100FM-12+071099999V020999999999999999999999999999+99999+99999999999REMSYN04601035 46/// ///// 11033 2//// 333 21039 4/158=
0042010350999992016031617004+69559+020094FM-12+071099999V020999999999999999999999999999-00421+99999999999ADDKA1010M-00381KA2010N-00431REMSYN004BUFR
0049010350999992016031618004+69567+020100FM-12+071099999V020999999999999999999999999999+99999+99999999999REMSYN04001035 46/// ///// 11050 2//// 333 11032=
0042010350999992016031703004+69559+020094FM-12+071099999V020999999999999999999999999999-00841+99999999999ADDKA1010M-00771KA2010N-00841REMSYN004BUFR
0042010350999992016031704004+69559+020094FM-12+071099999V020999999999999999999999999999-00901+99999999999ADDKA1010M-00821KA2010N-00901REMSYN004BUFR
0055010350999992016031706004+69567+020100FM-12+071099999V020999999999999999999999999999+99999+99999999999REMSYN04601035 46/// ///// 11094 2//// 333 21096 4/186=
0042010350999992016031715004+69559+020094FM-12+071099999V020999999999999999999999999999-00991+99999999999ADDKA1010M-00971KA2010N-01001REMSYN004BUFR
0042010350999992016031718004+69559+020094FM-12+071099999V020999999999999999999999999999-01041+99999999999ADDKA1120M-00901KA2120N-01041REMSYN004BUFR
0042010350999992016031719004+69559+020094FM-12+071099999V020999999999999999999999999999-01021+99999999999ADDKA1010M-01021KA2010N-01071REMSYN004BUFR
0042010350999992016031721004+69559+020094FM-12+071099999V020999999999999999999999999999-01051+99999999999ADDKA1010M-01041KA2010N-01071REMSYN004BUFR
0042010350999992016031804004+69559+020094FM-12+071099999V020999999999999999999999999999-01041+99999999999ADDKA1010M-01031KA2010N-01071REMSYN004BUFR
0042010350999992016031805004+69559+020094FM-12+071099999V020999999999999999999999999999-01041+99999999999ADDKA1010M-01011KA2010N-01081REMSYN004BUFR
0055010350999992016031806004+69567+020100FM-12+071099999V020999999999999999999999999999+99999+99999999999REMSYN04601035 46/// ///// 11102 2//// 333 21109 4/197=
0042010350999992016031808004+69559+020094FM-12+071099999V020999999999999999999999999999-01021+99999999999ADDKA1010M-00981KA2010N-01021REMSYN004BUFR
0042010350999992016031809004+69559+020094FM-12+071099999V020999999999999999999999999999-00971+99999999999ADDKA1010M-00961KA2010N-01021REMSYN004BUFR
0049010350999992016031818004+69567+020100FM-12+071099999V020999999999999999999999999999+99999+99999999999REMSYN04001035 46/// ///// 11095 2//// 333 11093=
0042010350999992016031901004+69559+020094FM-12+071099999V020999999999999999999999999999-00891+99999999999ADDKA1010M-00891KA2010N-00911REMSYN004BUFR
0055010350999992016031906004+69567+020100FM-12+071099999V020999999999999999999999999999+99999+99999999999REMSYN04601035 46/// ///// 11087 2//// 333 21096 4/215=
0049010350999992016031918004+69567+020100FM-12+071099999V020999999999999999999999999999+99999+99999999999REMSYN04001035 46/// ///// 11088 2//// 333 11077=
0042010350999992016031920004+69559+020094FM-12+071099999V020999999999999999999999999999-00871+99999999999ADDKA1010M-00861KA2010N-00901REMSYN004BUFR
0042010350999992016031921004+69559+020094FM-12+071099999V020999999999999999999999999999-00891+99999999999ADDKA1010M-00871KA2010N-00921REMSYN004BUFR
0042010350999992016031922004+69559+020094FM-12+071099999V020999999999999999999999999999-00921+99999999999ADDKA1010M-00881KA2010N-00931REMSYN004BUFR
0042010350999992016032003004+69559+020094FM-12+071099999V020999999999999999999999999999-00871+99999999999ADDKA1010M-00861KA2010N-00961REMSYN004BUFR
0042010350999992016032004004+69559+020094FM-12+071099999V020999999999999999999999999999-00871+99999999999ADDKA1010M-00871KA2010N-00901REMSYN004BUFR
0059010350999992016032006004+69559+020094FM-12+071099999V020999999999999999999999999999-00871+99999999999ADDAJ102039102030099KA1120M-00861KA2120N-01071REMSYN004BUFR
0042010350999992016032007004+69559+020094FM-12+071099999V020999999999999999999999999999-00871+99999999999ADDKA1010M-00851KA2010N-00891REMSYN004BUFR
0042010350999992016032009004+69559+020094FM-12+071099999V020999999999999999999999999999-00791+99999999999ADDKA1010M-00761KA2010N-00871REMSYN004BUFR
0042010350999992016032010004+69559+020094FM-12+071099999V020999999999999999999999999999-00701+99999999999ADDKA1010M-00691KA2010N-00821REMSYN004BUFR
0049010350999992016032018004+69567+020100FM-12+071099999V020999999999999999999999999999+99999+99999999999REMSYN04001035 46/// ///// 11088 2//// 333 11069=
0042010350999992016032022004+69559+020094FM-12+071099999V020999999999999999999999999999-00951+99999999999ADDKA1010M-00931KA2010N-00961REMSYN004BUFR
0042010350999992016032023004+69559+020094FM-12+071099999V020999999999999999999999999999-01041+99999999999ADDKA1010M-00941KA2010N-01151REMSYN004BUFR
0042010350999992016032103004+69559+020094FM-12+071099999V020999999999999999999999999999-00991+99999999999ADDKA1010M-00961KA2010N-01101REMSYN004BUFR
0042010350999992016032104004+69559+020094FM-12+071099999V020999999999999999999999999999-00921+99999999999ADDKA1010M-00931KA2010N-01001REMSYN004BUFR
0059010350999992016032106004+69559+020094FM-12+071099999V020999999999999999999999999999-01051+99999999999ADDAJ102069102060099KA1120M-00881KA2120N-01211REMSYN004BUFR
0042010350999992016032107004+69559+020094FM-12+071099999V020999999999999999999999999999-00991+99999999999ADDKA1010M-00991KA2010N-01301REMSYN004BUFR
0042010350999992016032111004+69559+020094FM-12+071099999V020999999999999999999999999999-01121+99999999999ADDKA1010M-00961KA2010N-01261REMSYN004BUFR
0042010350999992016032112004+69559+020094FM-12+071099999V020999999999999999999999999999-01121+99999999999ADDKA1010M-00941KA2010N-01211REMSYN004BUFR
0042010350999992016032116004+69559+020094FM-12+071099999V020999999999999999999999999999-01571+99999999999ADDKA1010M-01481KA2010N-01631REMSYN004BUFR
0049010350999992016032118004+69567+020100FM-12+071099999V020999999999999999999999999999+99999+99999999999REMSYN04001035 46/// ///// 11147 2//// 333 11088=
0042010350999992016032121004+69559+020094FM-12+071099999V020999999999999999999999999999-01151+99999999999ADDKA1010M-01111KA2010N-01241REMSYN004BUFR
0042010350999992016032123004+69559+020094FM-12+071099999V020999999999999999999999999999-01501+99999999999ADDKA1010M-01001KA2010N-01501REMSYN004BUFR
0042010350999992016032204004+69559+020094FM-12+071099999V020999999999999999999999999999-01491+99999999999ADDKA1010M-01371KA2010N-01591REMSYN004BUFR
0042010350999992016032205004+69559+020094FM-12+071099999V020999999999999999999999999999-01551+99999999999ADDKA1010M-01481KA2010N-01571REMSYN004BUFR
0055010350999992016032206004+69567+020100FM-12+071099999V020999999999999999999999999999+99999+99999999999REMSYN04601035 46/// ///// 11138 2//// 333 21159 4/199=
0042010350999992016032207004+69559+020094FM-12+071099999V020999999999999999999999999999-01251+99999999999ADDKA1010M-01231KA2010N-01381REMSYN004BUFR
0042010350999992016032213004+69559+020094FM-12+071099999V020999999999999999999999999999-01021+99999999999ADDKA1010M-00801KA2010N-01031REMSYN004BUFR
0042010350999992016032217004+69559+020094FM-12+071099999V020999999999999999999999999999-01521+99999999999ADDKA1010M-01351KA2010N-01551REMSYN004BUFR
0042010350999992016032218004+69559+020094FM-12+071099999V020999999999999999999999999999-01471+99999999999ADDKA1120M-00731KA2120N-01561REMSYN004BUFR
0042010350999992016032219004+69559+020094FM-12+071099999V020999999999999999999999999999-01521+99999999999ADDKA1010M-01461KA2010N-01561REMSYN004BUFR
0042010350999992016032221004+69559+020094FM-12+071099999V020999999999999999999999999999-01471+99999999999ADDKA1010M-01441KA2010N-01551REMSYN004BUFR
0055010350999992016032306004+69567+020100FM-12+071099999V020999999999999999999999999999+99999+99999999999REMSYN04601035 46/// ///// 11083 2//// 333 21156 4/196=
0042010350999992016032311004+69559+020094FM-12+071099999V020999999999999999999999999999-00541+99999999999ADDKA1010M-00541KA2010N-00731REMSYN004BUFR
0042010350999992016032314004+69559+020094FM-12+071099999V020999999999999999999999999999-00471+99999999999ADDKA1010M-00471KA2010N-00571REMSYN004BUFR
0042010350999992016032316004+69559+020094FM-12+071099999V020999999999999999999999999999-00621+99999999999ADDKA1010M-00621KA2010N-00671REMSYN004BUFR
0042010350999992016032318004+69559+020094FM-12+071099999V020999999999999999999999999999-00671+99999999999ADDKA1120M-00461KA2120N-00861REMSYN004BUFR
0042010350999992016032321004+69559+020094FM-12+071099999V020999999999999999999999999999-00701+99999999999ADDKA1010M-00641KA2010N-00701REMSYN004BUFR
0042010350999992016032401004+69559+020094FM-12+071099999V020999999999999999999999999999-01201+99999999999ADDKA1010M-00811KA2010N-01221REMSYN004BUFR
0042010350999992016032403004+69559+020094FM-12+071099999V020999999999999999999999999999-00971+99999999999ADDKA1010M-00841KA2010N-01241REMSYN004BUFR
0042010350999992016032404004+69559+020094FM-12+071099999V020999999999999999999999999999-00921+99999999999ADDKA1010M-00851KA2010N-01231REMSYN004BUFR
0042010350999992016032405004+69559+020094FM-12+071099999V020999999999999999999999999999-00821+99999999999ADDKA1010M-00791KA2010N-00941REMSYN004BUFR
0055010350999992016032406004+69567+020100FM-12+071099999V020999999999999999999999999999+99999+99999999999REMSYN04601035 46/// ///// 11077 2//// 333 21124 4/216=
0042010350999992016032407004+69559+020094FM-12+071099999V020999999999999999999999999999-00701+99999999999ADDKA1010M-00711KA2010N-00781REMSYN004BUFR
0042010350999992016032408004+69559+020094FM-12+071099999V020999999999999999999999999999-00741+99999999999ADDKA1010M-00711KA2010N-00771REMSYN004BUFR
0042010350999992016032409004+69559+020094FM-12+071099999V020999999999999999999999999999-00671+99999999999ADDKA1010M-00671KA2010N-00761REMSYN004BUFR
0042010350999992016032412004+69559+020094FM-12+071099999V020999999999999999999999999999-00901+99999999999ADDKA1010M-00611KA2010N-00981REMSYN004BUFR
0042010350999992016032418004+69559+020094FM-12+071099999V020999999999999999999999999999-00771+99999999999ADDKA1120M-00611KA2120N-01391REMSYN004BUFR
0042010350999992016032501004+69559+020094FM-12+071099999V020999999999999999999999999999-00801+99999999999ADDKA1010M-00791KA2010N-00841REMSYN004BUFR
0042010350999992016032502004+69559+020094FM-12+071099999V020999999999999999999999999999-00891+99999999999ADDKA1010M-00811KA2010N-00901REMSYN004BUFR
0055010350999992016032506004+69567+020100FM-12+071099999V020999999999999999999999999999+99999+99999999999REMSYN04601035 46/// ///// 11084 2//// 333 21105 4/207=
0042010350999992016032508004+69559+020094FM-12+071099999V020999999999999999999999999999-00771+99999999999ADDKA1010M-00731KA2010N-00821REMSYN004BUFR
0042010350999992016032514004+69559+020094FM-12+071099999V020999999999999999999999999999-00771+99999999999ADDKA1010M-00531KA2010N-00851REMSYN004BUFR
0049010350999992016032518004+69567+020100FM-12+071099999V020999999999999999999999999999+99999+99999999999REMSYN04001035 46/// ///// 11071 2//// 333 11035=
0042010350999992016032522004+69559+020094FM-12+071099999V020999999999999999999999999999-00451+99999999999ADDKA1010M-00411KA2010N-00481REMSYN004BUFR
0042010350999992016032600004+69559+020094FM-12+071099999V020999999999999999999999999999-00321+99999999999ADDKA1010M-00281KA2010N-00351REMSYN004BUFR
0042010350999992016032601004+69559+020094FM-12+071099999V020999999999999999999999999999-00191+99999999999ADDKA1010M-00181KA2010N-00341REMSYN004BUFR
0042010350999992016032603004+69559+020094FM-12+071099999V020999999999999999999999999999-00021+99999999999ADDKA1010M-00011KA2010N-00281REMSYN004BUFR
0059010350999992016032606004+69559+020094FM-12+071099999V020999999999999999999999999999+00001+99999999999ADDAJ101949101940099KA1120M+00001KA2120N-00731REMSYN004BUFR
0039010350999992016032609004+69567+020100FM-12+071099999V0209999C999999999999N999999999+00031+99999999999REMSYN03001035 46/// ///// 10003 2////=
0039010350999992016032610004+69567+020100FM-12+071099999V0209999C999999999999N999999999+00021+99999999999REMSYN03001035 46/// ///// 10002 2////=
0042010350999992016032614004+69559+020094FM-12+071099999V020999999999999999999999999999+00021+99999999999ADDKA1010M+00051KA2010N-00071REMSYN004BUFR
0042010350999992016032615004+69559+020094FM-12+071099999V020999999999999999999999999999+00001+99999999999ADDKA1010M+00021KA2010N-00121REMSYN004BUFR
0042010350999992016032616004+69559+020094FM-12+071099999V020999999999999999999999999999+00001+99999999999ADDKA1010M+00031KA2010N-00161REMSYN004BUFR
0042010350999992016032617004+69559+020094FM-12+071099999V020999999999999999999999999999+00021+99999999999ADDKA1010M+00021KA2010N-00081REMSYN004BUFR
0042010350999992016032618004+69559+020094FM-12+071099999V020999999999999999999999999999+00001+99999999999ADDKA1120M+00141KA2120N-00281REMSYN004BUFR
0042010350999992016032619004+69559+020094FM-12+071099999V020999999999999999999999999999-00071+99999999999ADDKA1010M+00011KA2010N-00081REMSYN004BUFR
0042010350999992016032620004+69559+020094FM-12+071099999V020999999999999999999999999999-00171+99999999999ADDKA1010M-00061KA2010N-00171REMSYN004BUFR
0042010350999992016032621004+69559+020094FM-12+071099999V020999999999999999999999999999-00101+99999999999ADDKA1010M-00081KA2010N-00171REMSYN004BUFR
0042010350999992016032622004+69559+020094FM-12+071099999V020999999999999999999999999999-00071+99999999999ADDKA1010M-00051KA2010N-00101REMSYN004BUFR
0042010350999992016032623004+69559+020094FM-12+071099999V020999999999999999999999999999-00051+99999999999ADDKA1010M+00001KA2010N-00061REMSYN004BUFR
0039010350999992016032701004+69567+020100FM-12+071099999V0209999C999999999999N999999999+00221+99999999999REMSYN03001035 46/// ///// 10022 2////=
0039010350999992016032702004+69567+020100FM-12+071099999V0209999C999999999999N999999999+00301+99999999999REMSYN03001035 46/// ///// 10030 2////=
