0083010360999992016010100004+69567+020433FM-12+071099999V0201501N009019999999N999999999-00171+99999999999ADDAA106000091OD139901601999REMSYN04601036 16/// /1509 11017 2//// 60001 333 91116=
0049010360999992016010101004+69567+020433FM-12+071099999V020999999999999999999999999999+99999+99999999999REMSYN04001036 26/// /1415 11020 2//// 333 60005=
0049010360999992016010102004+69567+020433FM-12+071099999V020999999999999999999999999999+99999+99999999999REMSYN04001036 26/// /1412 11029 2//// 333 60005=
0049010360999992016010103004+69567+020433FM-12+071099999V020999999999999999999999999999+99999+99999999999REMSYN04001036 26/// /1409 11021 2//// 333 60005=
0049010360999992016010104004+69567+020433FM-12+071099999V020999999999999999999999999999+99999+99999999999REMSYN04001036 26/// /1311 11021 2//// 333 60005=
0049010360999992016010105004+69567+020433FM-12+071099999V020999999999999999999999999999+99999+99999999999REMSYN04001036 26/// /1410 11022 2//// 333 60005=
0119010360999992016010106004+69567+020433FM-12+071099999V0201901N005019999999N999999999-00131+99999999999ADDAA112000091AA224000091KA1240N-00361OD139901801999REMSYN05801036 16/// /1905 11013 2//// 60002 333 21036 70000 91118=
0049010360999992016010107004+69567+020433FM-12+071099999V020999999999999999999999999999+99999+99999999999REMSYN04001036 26/// /1406 11019 2//// 333 60005=
0049010360999992016010108004+69567+020433FM-12+071099999V020999999999999999999999999999+99999+99999999999REMSYN04001036 26/// /1410 11023 2//// 333 60005=
0049010360999992016010109004+69567+020433FM-12+071099999V020999999999999999999999999999+99999+99999999999REMSYN04001036 26/// /1509 11019 2//// 333 60005=
0049010360999992016010110004+69567+020433FM-12+071099999V020999999999999999999999999999+99999+99999999999REMSYN04001036 26/// /1411 11023 2//// 333 60005=
0049010360999992016010111004+69567+020433FM-12+071099999V020999999999999999999999999999+99999+99999999999REMSYN04001036 26/// /1309 11025 2//// 333 60005=
0083010360999992016010112004+69567+020433FM-12+071099999V0201301N009019999999N999999999-00221+99999999999ADDAA106000091OD139901501999REMSYN04601036 16/// /1309 11022 2//// 60001 333 91115=
0049010360999992016010113004+69567+020433FM-12+071099999V020999999999999999999999999999+99999+99999999999REMSYN04001036 26/// /1308 11025 2//// 333 60005=
0049010360999992016010114004+69567+020433FM-12+071099999V020999999999999999999999999999+99999+99999999999REMSYN04001036 26/// /1309 11026 2//// 333 60005=
0049010360999992016010115004+69567+020433FM-12+071099999V020999999999999999999999999999+99999+99999999999REMSYN04001036 26/// /1410 11028 2//// 333 60005=
0049010360999992016010116004+69567+020433FM-12+071099999V020999999999999999999999999999+99999+99999999999REMSYN04001036 26/// /1409 11029 2//// 333 60005=
0049010360999992016010117004+69567+020433FM-12+071099999V020999999999999999999999999999+99999+99999999999REMSYN04001036 26/// /1310 11034 2//// 333 60005=
0102010360999992016010118004+69567+020433FM-12+071099999V0201401N008019999999N999999999-00311+99999999999ADDAA112000091KA1120M-00031OD139901501999REMSYN05201036 16/// /1408 11031 2//// 60002 333 11003 91115=
0049010360999992016010119004+69567+020433FM-12+071099999V020999999999999999999999999999+99999+99999999999REMSYN04001036 26/// /1708 11028 2//// 333 60005=
0049010360999992016010120004+69567+020433FM-12+071099999V020999999999999999999999999999+99999+99999999999REMSYN04001036 26/// /1309 11029 2//// 333 60005=
0049010360999992016010121004+69567+020433FM-12+071099999V020999999999999999999999999999+99999+99999999999REMSYN04001036 26/// /1410 11033 2//// 333 60005=
0049010360999992016010122004+69567+020433FM-12+071099999V020999999999999999999999999999+99999+99999999999REMSYN04001036 26/// /1308 11032 2//// 333 60005=
0049010360999992016010123004+69567+020433FM-12+071099999V020999999999999999999999999999+99999+99999999999REMSYN04001036 26/// /1506 11030 2//// 333 60005=
0083010360999992016010200004+69567+020433FM-12+071099999V0201501N005019999999N999999999-00241+99999999999ADDAA106000091OD139901301999REMSYN04601036 16/// /1505 11024 2//// 60001 333 91113=
0049010360999992016010201004+69567+020433FM-12+071099999V020999999999999999999999999999+99999+99999999999REMSYN04001036 26/// /1504 11020 2//// 333 60005=
0049010360999992016010202004+69567+020433FM-12+071099999V020999999999999999999999999999+99999+99999999999REMSYN04001036 26/// /1306 11023 2//// 333 60005=
0049010360999992016010203004+69567+020433FM-12+071099999V020999999999999999999999999999+99999+99999999999REMSYN04001036 26/// /1604 11018 2//// 333 60005=
0049010360999992016010204004+69567+020433FM-12+071099999V020999999999999999999999999999+99999+99999999999REMSYN04001036 26/// /1303 11014 2//// 333 60005=
0049010360999992016010205004+69567+020433FM-12+071099999V020999999999999999999999999999+99999+99999999999REMSYN04001036 26/// /1805 11009 2//// 333 60005=
0119010360999992016010206004+69567+020433FM-12+071099999V0201801N003019999999N999999999-00101+99999999999ADDAA112000091AA224000091KA1240N-00381OD139901001999REMSYN05801036 16/// /1803 11010 2//// 60002 333 21038 70000 91110=
0049010360999992016010207004+69567+020433FM-12+071099999V020999999999999999999999999999+99999+99999999999REMSYN04001036 26/// /1704 11007 2//// 333 60005=
0049010360999992016010208004+69567+020433FM-12+071099999V020999999999999999999999999999+99999+99999999999REMSYN04001036 26/// /1604 11004 2//// 333 60005=
0049010360999992016010209004+69567+020433FM-12+071099999V020999999999999999999999999999+99999+99999999999REMSYN04001036 26/// /1205 11005 2//// 333 60005=
0049010360999992016010210004+69567+020433FM-12+071099999V020999999999999999999999999999+99999+99999999999REMSYN04001036 26/// /1205 11009 2//// 333 60005=
0049010360999992016010211004+69567+020433FM-12+071099999V020999999999999999999999999999+99999+99999999999REMSYN04001036 26/// /1205 11011 2//// 333 60005=
0083010360999992016010212004+69567+020433FM-12+071099999V0201101N008019999999N999999999-00251+99999999999ADDAA106000091OD139900801999REMSYN04601036 16/// /1108 11025 2//// 60001 333 91108=
0049010360999992016010213004+69567+020433FM-12+071099999V020999999999999999999999999999+99999+99999999999REMSYN04001036 26/// /1208 11035 2//// 333 60005=
0049010360999992016010214004+69567+020433FM-12+071099999V020999999999999999999999999999+99999+99999999999REMSYN04001036 26/// /1503 11035 2//// 333 60005=
0049010360999992016010215004+69567+020433FM-12+071099999V020999999999999999999999999999+99999+99999999999REMSYN04001036 26/// /1207 11036 2//// 333 60005=
0049010360999992016010216004+69567+020433FM-12+071099999V020999999999999999999999999999+99999+99999999999REMSYN04001036 26/// /1207 11039 2//// 333 60005=
0049010360999992016010217004+69567+020433FM-12+071099999V020999999999999999999999999999+99999+99999999999REMSYN04001036 26/// /1108 11044 2//// 333 60005=
0102010360999992016010218004+69567+020433FM-12+071099999V0201201N008019999999N999999999-00411+99999999999ADDAA112000091KA1120M+00011OD139901001999REMSYN05201036 16/// /1208 11041 2//// 60002 333 10001 91110=
0049010360999992016010219004+69567+020433FM-12+071099999V020999999999999999999999999999+99999+99999999999REMSYN04001036 26/// /1306 11043 2//// 333 60005=
0049010360999992016010220004+69567+020433FM-12+071099999V020999999999999999999999999999+99999+99999999999REMSYN04001036 26/// /1108 11044 2//// 333 60005=
0049010360999992016010221004+69567+020433FM-12+071099999V020999999999999999999999999999+99999+99999999999REMSYN04001036 26/// /1207 11042 2//// 333 60005=
0049010360999992016010222004+69567+020433FM-12+071099999V020999999999999999999999999999+99999+99999999999REMSYN04001036 26/// /1902 11041 2//// 333 60005=
0049010360999992016010223004+69567+020433FM-12+071099999V020999999999999999999999999999+99999+99999999999REMSYN04001036 26/// /1208 11051 2//// 333 60005=
0083010360999992016010300004+69567+020433FM-12+071099999V0201301N007019999999N999999999-00571+99999999999ADDAA106000091OD139901101999REMSYN04601036 16/// /1307 11057 2//// 60001 333 91111=
0049010360999992016010301004+69567+020433FM-12+071099999V020999999999999999999999999999+99999+99999999999REMSYN04001036 26/// /1903 11058 2//// 333 60005=
0049010360999992016010302004+69567+020433FM-12+071099999V020999999999999999999999999999+99999+99999999999REMSYN04001036 26/// /1404 11055 2//// 333 60005=
0049010360999992016010303004+69567+020433FM-12+071099999V020999999999999999999999999999+99999+99999999999REMSYN04001036 26/// /1109 11048 2//// 333 60005=
0049010360999992016010304004+69567+020433FM-12+071099999V020999999999999999999999999999+99999+99999999999REMSYN04001036 26/// /1504 11040 2//// 333 60005=
0049010360999992016010305004+69567+020433FM-12+071099999V020999999999999999999999999999+99999+99999999999REMSYN04001036 26/// /1205 11021 2//// 333 60005=
0119010360999992016010306004+69567+020433FM-12+071099999V0201301N005019999999N999999999-00231+99999999999ADDAA112000091AA224000091KA1240N-00671OD139901001999REMSYN05801036 16/// /1305 11023 2//// 60002 333 21067 70000 91110=
0049010360999992016010307004+69567+020433FM-12+071099999V020999999999999999999999999999+99999+99999999999REMSYN04001036 26/// /3001 11023 2//// 333 60005=
0049010360999992016010308004+69567+020433FM-12+071099999V020999999999999999999999999999+99999+99999999999REMSYN04001036 26/// /2002 11028 2//// 333 60005=
0049010360999992016010309004+69567+020433FM-12+071099999V020999999999999999999999999999+99999+99999999999REMSYN04001036 26/// /1208 11009 2//// 333 60005=
0049010360999992016010310004+69567+020433FM-12+071099999V020999999999999999999999999999+99999+99999999999REMSYN04001036 26/// /1108 11013 2//// 333 60005=
0049010360999992016010311004+69567+020433FM-12+071099999V020999999999999999999999999999+99999+99999999999REMSYN04001036 26/// /1209 11011 2//// 333 60005=
0083010360999992016010312004+69567+020433FM-12+071099999V0201301N005019999999N999999999-00191+99999999999ADDAA106000091OD139901001999REMSYN04601036 16/// /1305 11019 2//// 60001 333 91110=
0049010360999992016010313004+69567+020433FM-12+071099999V020999999999999999999999999999+99999+99999999999REMSYN04001036 26/// /1108 11023 2//// 333 60005=
0049010360999992016010314004+69567+020433FM-12+071099999V020999999999999999999999999999+99999+99999999999REMSYN04001036 26/// /1306 11027 2//// 333 60005=
0049010360999992016010315004+69567+020433FM-12+071099999V020999999999999999999999999999+99999+99999999999REMSYN04001036 26/// /1306 11040 2//// 333 60005=
0049010360999992016010316004+69567+020433FM-12+071099999V020999999999999999999999999999+99999+99999999999REMSYN04001036 26/// /1802 11061 2//// 333 60005=
0049010360999992016010317004+69567+020433FM-12+071099999V020999999999999999999999999999+99999+99999999999REMSYN04001036 26/// /2001 11084 2//// 333 60005=
0102010360999992016010318004+69567+020433FM-12+071099999V0201101N008019999999N999999999-00951+99999999999ADDAA112000091KA1120M-00021OD139901101999REMSYN05201036 16/// /1108 11095 2//// 60002 333 11002 91111=
0049010360999992016010319004+69567+020433FM-12+071099999V020999999999999999999999999999+99999+99999999999REMSYN04001036 26/// /1213 11109 2//// 333 60005=
0049010360999992016010320004+69567+020433FM-12+071099999V020999999999999999999999999999+99999+99999999999REMSYN04001036 26/// /1114 11108 2//// 333 60005=
0049010360999992016010321004+69567+020433FM-12+071099999V020999999999999999999999999999+99999+99999999999REMSYN04001036 26/// /1310 11107 2//// 333 60005=
0049010360999992016010322004+69567+020433FM-12+071099999V020999999999999999999999999999+99999+99999999999REMSYN04001036 26/// /1309 11106 2//// 333 60005=
0049010360999992016010323004+69567+020433FM-12+071099999V020999999999999999999999999999+99999+99999999999REMSYN04001036 26/// /1309 11105 2//// 333 60005=
0083010360999992016010400004+69567+020433FM-12+071099999V0201301N010019999999N999999999-01061+99999999999ADDAA106000091OD139901601999REMSYN04601036 16/// /1310 11106 2//// 60001 333 91116=
0049010360999992016010401004+69567+020433FM-12+071099999V020999999999999999999999999999+99999+99999999999REMSYN04001036 26/// /1311 11109 2//// 333 60005=
0049010360999992016010402004+69567+020433FM-12+071099999V020999999999999999999999999999+99999+99999999999REMSYN04001036 26/// /1312 11122 2//// 333 60005=
0049010360999992016010403004+69567+020433FM-12+071099999V020999999999999999999999999999+99999+99999999999REMSYN04001036 26/// /1212 11131 2//// 333 60005=
0049010360999992016010404004+69567+020433FM-12+071099999V020999999999999999999999999999+99999+99999999999REMSYN04001036 26/// /1312 11139 2//// 333 60005=
0049010360999992016010405004+69567+020433FM-12+071099999V020999999999999999999999999999+99999+99999999999REMSYN04001036 26/// /1411 11131 2//// 333 60005=
0119010360999992016010406004+69567+020433FM-12+071099999V0201301N011019999999N999999999-01401+99999999999ADDAA112000091AA224000091KA1240N-01471OD139901501999REMSYN05801036 16/// /1311 11140 2//// 60002 333 21147 70000 91115=
0049010360999992016010407004+69567+020433FM-12+071099999V020999999999999999999999999999+99999+99999999999REMSYN04001036 26/// /1310 11147 2//// 333 60005=
0049010360999992016010408004+69567+020433FM-12+071099999V020999999999999999999999999999+99999+99999999999REMSYN04001036 26/// /1110 11152 2//// 333 60005=
0049010360999992016010409004+69567+020433FM-12+071099999V020999999999999999999999999999+99999+99999999999REMSYN04001036 26/// /1312 11151 2//// 333 60005=
0049010360999992016010410004+69567+020433FM-12+071099999V020999999999999999999999999999+99999+99999999999REMSYN04001036 26/// /1311 11152 2//// 333 60005=
0049010360999992016010411004+69567+020433FM-12+071099999V020999999999999999999999999999+99999+99999999999REMSYN04001036 26/// /1312 11148 2//// 333 60005=
0083010360999992016010412004+69567+020433FM-12+071099999V0201401N010019999999N999999999-01491+99999999999ADDAA106000091OD139901501999REMSYN04601036 16/// /1410 11149 2//// 60001 333 91115=
0049010360999992016010413004+69567+020433FM-12+071099999V020999999999999999999999999999+99999+99999999999REMSYN04001036 26/// /1306 11139 2//// 333 60005=
0049010360999992016010414004+69567+020433FM-12+071099999V020999999999999999999999999999+99999+99999999999REMSYN04001036 26/// /1109 11133 2//// 333 60005=
0049010360999992016010415004+69567+020433FM-12+071099999V020999999999999999999999999999+99999+99999999999REMSYN04001036 26/// /1209 11129 2//// 333 60005=
0049010360999992016010416004+69567+020433FM-12+071099999V020999999999999999999999999999+99999+99999999999REMSYN04001036 26/// /1210 11134 2//// 333 60005=
0049010360999992016010417004+69567+020433FM-12+071099999V020999999999999999999999999999+99999+99999999999REMSYN04001036 26/// /1209 11135 2//// 333 60005=
0102010360999992016010418004+69567+020433FM-12+071099999V0201201N010019999999N999999999-01351+99999999999ADDAA112000091KA1120M-01211OD139901201999REMSYN05201036 16/// /1210 11135 2//// 60002 333 11121 91112=
0049010360999992016010419004+69567+020433FM-12+071099999V020999999999999999999999999999+99999+99999999999REMSYN04001036 26/// /1210 11127 2//// 333 60005=
0049010360999992016010420004+69567+020433FM-12+071099999V020999999999999999999999999999+99999+99999999999REMSYN04001036 26/// /1209 11124 2//// 333 60005=
0049010360999992016010421004+69567+020433FM-12+071099999V020999999999999999999999999999+99999+99999999999REMSYN04001036 26/// /1208 11122 2//// 333 60005=
0049010360999992016010422004+69567+020433FM-12+071099999V020999999999999999999999999999+99999+99999999999REMSYN04001036 26/// /1108 11112 2//// 333 60005=
0049010360999992016010423004+69567+020433FM-12+071099999V020999999999999999999999999999+99999+99999999999REMSYN04001036 26/// /1208 11108 2//// 333 60005=
0083010360999992016010500004+69567+020433FM-12+071099999V0201201N008019999999N999999999-01131+99999999999ADDAA106000091OD139901201999REMSYN04601036 16/// /1208 11113 2//// 60001 333 91112=
0049010360999992016010501004+69567+020433FM-12+071099999V020999999999999999999999999999+99999+99999999999REMSYN04001036 26/// /1107 11109 2//// 333 60005=
0049010360999992016010502004+69567+020433FM-12+071099999V020999999999999999999999999999+99999+99999999999REMSYN04001036 26/// /1206 11110 2//// 333 60005=
0049010360999992016010503004+69567+020433FM-12+071099999V020999999999999999999999999999+99999+99999999999REMSYN04001036 26/// /1107 11112 2//// 333 60005=
0049010360999992016010504004+69567+020433FM-12+071099999V020999999999999999999999999999+99999+99999999999REMSYN04001036 26/// /1207 11111 2//// 333 60005=
0049010360999992016010505004+69567+020433FM-12+071099999V020999999999999999999999999999+99999+99999999999REMSYN04001036 26/// /1107 11111 2//// 333 60005=
0119010360999992016010506004+69567+020433FM-12+071099999V0201101N006019999999N999999999-01081+99999999999ADDAA112000091AA224000091KA1240N-01381OD139900901999REMSYN05801036 16/// /1106 11108 2//// 60002 333 21138 70000 91109=
0049010360999992016010507004+69567+020433FM-12+071099999V020999999999999999999999999999+99999+99999999999REMSYN04001036 26/// /1304 11104 2//// 333 60005=
0049010360999992016010508004+69567+020433FM-12+071099999V020999999999999999999999999999+99999+99999999999REMSYN04001036 26/// /0701 11111 2//// 333 60005=
0049010360999992016010509004+69567+020433FM-12+071099999V020999999999999999999999999999+99999+99999999999REMSYN04001036 26/// /1107 11105 2//// 333 60005=
0049010360999992016010510004+69567+020433FM-12+071099999V020999999999999999999999999999+99999+99999999999REMSYN04001036 26/// /1006 11101 2//// 333 60005=
0049010360999992016010511004+69567+020433FM-12+071099999V020999999999999999999999999999+99999+99999999999REMSYN04001036 26/// /0906 11101 2//// 333 60005=
0083010360999992016010512004+69567+020433FM-12+071099999V0201101N007019999999N999999999-01061+99999999999ADDAA106000091OD139900901999REMSYN04601036 16/// /1107 11106 2//// 60001 333 91109=
0049010360999992016010513004+69567+020433FM-12+071099999V020999999999999999999999999999+99999+99999999999REMSYN04001036 26/// /1207 11114 2//// 333 60005=
0049010360999992016010514004+69567+020433FM-12+071099999V020999999999999999999999999999+99999+99999999999REMSYN04001036 26/// /1305 11114 2//// 333 60005=
0049010360999992016010515004+69567+020433FM-12+071099999V020999999999999999999999999999+99999+99999999999REMSYN04001036 26/// /1402 11108 2//// 333 60005=
0049010360999992016010516004+69567+020433FM-12+071099999V020999999999999999999999999999+99999+99999999999REMSYN04001036 26/// /0906 11108 2//// 333 60005=
0049010360999992016010517004+69567+020433FM-12+071099999V020999999999999999999999999999+99999+99999999999REMSYN04001036 26/// /0905 11111 2//// 333 60005=
0102010360999992016010518004+69567+020433FM-12+071099999V0201101N006019999999N999999999-01171+99999999999ADDAA112000091KA1120M-00931OD139900801999REMSYN05201036 16/// /1106 11117 2//// 60002 333 11093 91108=
0049010360999992016010519004+69567+020433FM-12+071099999V020999999999999999999999999999+99999+99999999999REMSYN04001036 26/// /1006 11123 2//// 333 60005=
0049010360999992016010520004+69567+020433FM-12+071099999V020999999999999999999999999999+99999+99999999999REMSYN04001036 26/// /1206 11124 2//// 333 60005=
0049010360999992016010521004+69567+020433FM-12+071099999V020999999999999999999999999999+99999+99999999999REMSYN04001036 26/// /1106 11128 2//// 333 60005=
0049010360999992016010522004+69567+020433FM-12+071099999V020999999999999999999999999999+99999+99999999999REMSYN04001036 26/// /1206 11124 2//// 333 60005=
0049010360999992016010523004+69567+020433FM-12+071099999V020999999999999999999999999999+99999+99999999999REMSYN04001036 26/// /1205 11125 2//// 333 60005=
0083010360999992016010600004+69567+020433FM-12+071099999V0201101N004019999999N999999999-01301+99999999999ADDAA106000091OD139900901999REMSYN04601036 16/// /1104 11130 2//// 60001 333 91109=
0049010360999992016010601004+69567+020433FM-12+071099999V020999999999999999999999999999+99999+99999999999REMSYN04001036 26/// /1202 11123 2//// 333 60005=
0049010360999992016010602004+69567+020433FM-12+071099999V020999999999999999999999999999+99999+99999999999REMSYN04001036 26/// /1104 11115 2//// 333 60005=
0049010360999992016010603004+69567+020433FM-12+071099999V020999999999999999999999999999+99999+99999999999REMSYN04001036 26/// /1005 11121 2//// 333 60005=
0049010360999992016010604004+69567+020433FM-12+071099999V020999999999999999999999999999+99999+99999999999REMSYN04001036 26/// /1005 11128 2//// 333 60005=
0049010360999992016010605004+69567+020433FM-12+071099999V020999999999999999999999999999+99999+99999999999REMSYN04001036 26/// /1106 11132 2//// 333 60005=
0119010360999992016010606004+69567+020433FM-12+071099999V0201101N005019999999N999999999-01371+99999999999ADDAA112000091AA224000091KA1240N-01431OD139900601999REMSYN05801036 16/// /1105 11137 2//// 60002 333 21143 70000 91106=
0049010360999992016010607004+69567+020433FM-12+071099999V020999999999999999999999999999+99999+99999999999REMSYN04001036 26/// /1106 11136 2//// 333 60005=
0049010360999992016010608004+69567+020433FM-12+071099999V020999999999999999999999999999+99999+99999999999REMSYN04001036 26/// /1205 11144 2//// 333 60005=
0049010360999992016010609004+69567+020433FM-12+071099999V020999999999999999999999999999+99999+99999999999REMSYN04001036 26/// /1205 11149 2//// 333 60005=
0049010360999992016010610004+69567+020433FM-12+071099999V020999999999999999999999999999+99999+99999999999REMSYN04001036 26/// /1106 11155 2//// 333 60005=
0049010360999992016010611004+69567+020433FM-12+071099999V020999999999999999999999999999+99999+99999999999REMSYN04001036 26/// /1206 11157 2//// 333 60005=
0083010360999992016010612004+69567+020433FM-12+071099999V0201101N007019999999N999999999-01621+99999999999ADDAA106000091OD139900801999REMSYN04601036 16/// /1107 11162 2//// 60001 333 91108=
0049010360999992016010613004+69567+020433FM-12+071099999V020999999999999999999999999999+99999+99999999999REMSYN04001036 26/// /1106 11164 2//// 333 60005=
0049010360999992016010614004+69567+020433FM-12+071099999V020999999999999999999999999999+99999+99999999999REMSYN04001036 26/// /1206 11170 2//// 333 60005=
0049010360999992016010615004+69567+020433FM-12+071099999V020999999999999999999999999999+99999+99999999999REMSYN04001036 26/// /1106 11169 2//// 333 60005=
0049010360999992016010616004+69567+020433FM-12+071099999V020999999999999999999999999999+99999+99999999999REMSYN04001036 26/// /1106 11169 2//// 333 60005=
0049010360999992016010617004+69567+020433FM-12+071099999V020999999999999999999999999999+99999+99999999999REMSYN04001036 26/// /1105 11170 2//// 333 60005=
0102010360999992016010618004+69567+020433FM-12+071099999V0201101N006019999999N999999999-01711+99999999999ADDAA112000091KA1120M-01281OD139900901999REMSYN05201036 16/// /1106 11171 2//// 60002 333 11128 91109=
0049010360999992016010619004+69567+020433FM-12+071099999V020999999999999999999999999999+99999+99999999999REMSYN04001036 26/// /1106 11173 2//// 333 60005=
0049010360999992016010620004+69567+020433FM-12+071099999V020999999999999999999999999999+99999+99999999999REMSYN04001036 26/// /1205 11176 2//// 333 60005=
0049010360999992016010621004+69567+020433FM-12+071099999V020999999999999999999999999999+99999+99999999999REMSYN04001036 26/// /1207 11180 2//// 333 60005=
0049010360999992016010622004+69567+020433FM-12+071099999V020999999999999999999999999999+99999+99999999999REMSYN04001036 26/// /1107 11182 2//// 333 60005=
0049010360999992016010623004+69567+020433FM-12+071099999V020999999999999999999999999999+99999+99999999999REMSYN04001036 26/// /1106 11187 2//// 333 60005=
0083010360999992016010700004+69567+020433FM-12+071099999V0201101N004019999999N999999999-01831+99999999999ADDAA106000091OD139900901999REMSYN04601036 16/// /1104 11183 2//// 60001 333 91109=
0049010360999992016010701004+69567+020433FM-12+071099999V020999999999999999999999999999+99999+99999999999REMSYN04001036 26/// /1206 11185 2//// 333 60005=
0049010360999992016010702004+69567+020433FM-12+071099999V020999999999999999999999999999+99999+99999999999REMSYN04001036 26/// /1105 11194 2//// 333 60005=
0049010360999992016010703004+69567+020433FM-12+071099999V020999999999999999999999999999+99999+99999999999REMSYN04001036 26/// /1207 11194 2//// 333 60005=
0049010360999992016010704004+69567+020433FM-12+071099999V020999999999999999999999999999+99999+99999999999REMSYN04001036 26/// /1206 11199 2//// 333 60005=
0049010360999992016010705004+69567+020433FM-12+071099999V020999999999999999999999999999+99999+99999999999REMSYN04001036 26/// /1206 11202 2//// 333 60005=
0119010360999992016010706004+69567+020433FM-12+071099999V0201101N007019999999N999999999-02041+99999999999ADDAA112000091AA224000091KA1240N-02071OD139901001999REMSYN05801036 16/// /1107 11204 2//// 60002 333 21207 70000 91110=
0049010360999992016010707004+69567+020433FM-12+071099999V020999999999999999999999999999+99999+99999999999REMSYN04001036 26/// /1107 11206 2//// 333 60005=
0049010360999992016010708004+69567+020433FM-12+071099999V020999999999999999999999999999+99999+99999999999REMSYN04001036 26/// /1005 11210 2//// 333 60005=
0049010360999992016010709004+69567+020433FM-12+071099999V020999999999999999999999999999+99999+99999999999REMSYN04001036 26/// /1007 11216 2//// 333 60005=
0049010360999992016010710004+69567+020433FM-12+071099999V020999999999999999999999999999+99999+99999999999REMSYN04001036 26/// /1107 11215 2//// 333 60005=
0049010360999992016010711004+69567+020433FM-12+071099999V020999999999999999999999999999+99999+99999999999REMSYN04001036 26/// /1106 11215 2//// 333 60005=
0083010360999992016010712004+69567+020433FM-12+071099999V0201201N005019999999N999999999-02151+99999999999ADDAA106000091OD139900901999REMSYN04601036 16/// /1205 11215 2//// 60001 333 91109=
0049010360999992016010713004+69567+020433FM-12+071099999V020999999999999999999999999999+99999+99999999999REMSYN04001036 26/// /1207 11213 2//// 333 60005=
0049010360999992016010714004+69567+020433FM-12+071099999V020999999999999999999999999999+99999+99999999999REMSYN04001036 26/// /1205 11214 2//// 333 60005=
0049010360999992016010715004+69567+020433FM-12+071099999V020999999999999999999999999999+99999+99999999999REMSYN04001036 26/// /1106 11210 2//// 333 60005=
0049010360999992016010716004+69567+020433FM-12+071099999V020999999999999999999999999999+99999+99999999999REMSYN04001036 26/// /1106 11205 2//// 333 60005=
0049010360999992016010717004+69567+020433FM-12+071099999V020999999999999999999999999999+99999+99999999999REMSYN04001036 26/// /0905 11193 2//// 333 60005=
0102010360999992016010718004+69567+020433FM-12+071099999V0201001N006019999999N999999999-01941+99999999999ADDAA112000091KA1120M-01891OD139900801999REMSYN05201036 16/// /1006 11194 2//// 60002 333 11189 91108=
0049010360999992016010719004+69567+020433FM-12+071099999V020999999999999999999999999999+99999+99999999999REMSYN04001036 26/// /1104 11189 2//// 333 60005=
0049010360999992016010720004+69567+020433FM-12+071099999V020999999999999999999999999999+99999+99999999999REMSYN04001036 26/// /1103 11181 2//// 333 60005=
0049010360999992016010721004+69567+020433FM-12+071099999V020999999999999999999999999999+99999+99999999999REMSYN04001036 26/// /1004 11173 2//// 333 60005=
0049010360999992016010722004+69567+020433FM-12+071099999V020999999999999999999999999999+99999+99999999999REMSYN04001036 26/// /1005 11173 2//// 333 60005=
0049010360999992016010723004+69567+020433FM-12+071099999V020999999999999999999999999999+99999+99999999999REMSYN04001036 26/// /1104 11174 2//// 333 60005=
0083010360999992016010800004+69567+020433FM-12+071099999V0201201N003019999999N999999999-01661+99999999999ADDAA106000091OD139900601999REMSYN04601036 16/// /1203 11166 2//// 60001 333 91106=
0049010360999992016010801004+69567+020433FM-12+071099999V020999999999999999999999999999+99999+99999999999REMSYN04001036 26/// /1202 11161 2//// 333 60005=
0049010360999992016010802004+69567+020433FM-12+071099999V020999999999999999999999999999+99999+99999999999REMSYN04001036 26/// /1002 11160 2//// 333 60005=
0049010360999992016010803004+69567+020433FM-12+071099999V020999999999999999999999999999+99999+99999999999REMSYN04001036 26/// /1001 11152 2//// 333 60005=
0049010360999992016010804004+69567+020433FM-12+071099999V020999999999999999999999999999+99999+99999999999REMSYN04001036 26/// /0302 11147 2//// 333 60005=
0049010360999992016010805004+69567+020433FM-12+071099999V020999999999999999999999999999+99999+99999999999REMSYN04001036 26/// /0203 11135 2//// 333 60005=
0119010360999992016010806004+69567+020433FM-12+071099999V0200201N004019999999N999999999-01341+99999999999ADDAA112000091AA224000091KA1240N-01941OD139900601999REMSYN05801036 16/// /0204 11134 2//// 60002 333 21194 70000 91106=
0049010360999992016010807004+69567+020433FM-12+071099999V020999999999999999999999999999+99999+99999999999REMSYN04001036 26/// /0304 11130 2//// 333 60005=
0049010360999992016010808004+69567+020433FM-12+071099999V020999999999999999999999999999+99999+99999999999REMSYN04001036 26/// /0104 11125 2//// 333 60005=
0049010360999992016010809004+69567+020433FM-12+071099999V020999999999999999999999999999+99999+99999999999REMSYN04001036 26/// /0104 11121 2//// 333 60005=
0049010360999992016010810004+69567+020433FM-12+071099999V020999999999999999999999999999+99999+99999999999REMSYN04001036 26/// /3604 11118 2//// 333 60005=
0049010360999992016010811004+69567+020433FM-12+071099999V020999999999999999999999999999+99999+99999999999REMSYN04001036 26/// /0103 11116 2//// 333 60005=
0083010360999992016010812004+69567+020433FM-12+071099999V0201701N002019999999N999999999-01191+99999999999ADDAA106000091OD139900601999REMSYN04601036 16/// /1702 11119 2//// 60001 333 91106=
0049010360999992016010813004+69567+020433FM-12+071099999V020999999999999999999999999999+99999+99999999999REMSYN04001036 26/// /3002 11117 2//// 333 60005=
0049010360999992016010814004+69567+020433FM-12+071099999V020999999999999999999999999999+99999+99999999999REMSYN04001036 26/// /3101 11112 2//// 333 60005=
0049010360999992016010815004+69567+020433FM-12+071099999V020999999999999999999999999999+99999+99999999999REMSYN04001036 26/// /2701 11109 2//// 333 60005=
0049010360999992016010816004+69567+020433FM-12+071099999V020999999999999999999999999999+99999+99999999999REMSYN04001036 26/// /2301 11108 2//// 333 60005=
0049010360999992016010817004+69567+020433FM-12+071099999V020999999999999999999999999999+99999+99999999999REMSYN04001036 26/// /2501 11106 2//// 333 60005=
0102010360999992016010818004+69567+020433FM-12+071099999V0202801N002019999999N999999999-01041+99999999999ADDAA112000091KA1120M-01001OD139900701999REMSYN05201036 16/// /2802 11104 2//// 60002 333 11100 91107=
0049010360999992016010819004+69567+020433FM-12+071099999V020999999999999999999999999999+99999+99999999999REMSYN04001036 26/// /2402 11101 2//// 333 60005=
0049010360999992016010820004+69567+020433FM-12+071099999V020999999999999999999999999999+99999+99999999999REMSYN04001036 26/// /2101 11099 2//// 333 60005=
0049010360999992016010821004+69567+020433FM-12+071099999V020999999999999999999999999999+99999+99999999999REMSYN04001036 26/// /2602 11098 2//// 333 60005=
0049010360999992016010822004+69567+020433FM-12+071099999V020999999999999999999999999999+99999+99999999999REMSYN04001036 26/// /2903 11096 2//// 333 60005=
0049010360999992016010823004+69567+020433FM-12+071099999V020999999999999999999999999999+99999+99999999999REMSYN04001036 26/// /2703 11094 2//// 333 60005=
0083010360999992016010900004+69567+020433FM-12+071099999V0202701N003019999999N999999999-00941+99999999999ADDAA106000091OD139900601999REMSYN04601036 16/// /2703 11094 2//// 60001 333 91106=
0049010360999992016010901004+69567+020433FM-12+071099999V020999999999999999999999999999+99999+99999999999REMSYN04001036 26/// /2803 11094 2//// 333 60005=
0049010360999992016010902004+69567+020433FM-12+071099999V020999999999999999999999999999+99999+99999999999REMSYN04001036 26/// /2704 11092 2//// 333 60005=
0049010360999992016010903004+69567+020433FM-12+071099999V020999999999999999999999999999+99999+99999999999REMSYN04001036 26/// /2503 11089 2//// 333 60005=
0049010360999992016010904004+69567+020433FM-12+071099999V020999999999999999999999999999+99999+99999999999REMSYN04001036 26/// /2703 11087 2//// 333 60005=
0049010360999992016010905004+69567+020433FM-12+071099999V020999999999999999999999999999+99999+99999999999REMSYN04001036 26/// /2802 11087 2//// 333 60005=
0119010360999992016010906004+69567+020433FM-12+071099999V0202701N003019999999N999999999-00831+99999999999ADDAA112000091AA224000091KA1240N-01021OD139900701999REMSYN05801036 16/// /2703 11083 2//// 60002 333 21102 70000 91107=
0049010360999992016010907004+69567+020433FM-12+071099999V020999999999999999999999999999+99999+99999999999REMSYN04001036 26/// /2703 11081 2//// 333 60005=
0049010360999992016010908004+69567+020433FM-12+071099999V020999999999999999999999999999+99999+99999999999REMSYN04001036 26/// /2703 11080 2//// 333 60005=
0049010360999992016010909004+69567+020433FM-12+071099999V020999999999999999999999999999+99999+99999999999REMSYN04001036 26/// /2503 11078 2//// 333 60005=
0049010360999992016010910004+69567+020433FM-12+071099999V020999999999999999999999999999+99999+99999999999REMSYN04001036 26/// /2603 11079 2//// 333 60005=
0049010360999992016010911004+69567+020433FM-12+071099999V020999999999999999999999999999+99999+99999999999REMSYN04001036 26/// /2602 11077 2//// 333 60005=
0083010360999992016010912004+69567+020433FM-12+071099999V0202701N003019999999N999999999-00781+99999999999ADDAA106000091OD139900701999REMSYN04601036 16/// /2703 11078 2//// 60001 333 91107=
0049010360999992016010913004+69567+020433FM-12+071099999V020999999999999999999999999999+99999+99999999999REMSYN04001036 26/// /2602 11077 2//// 333 60005=
0049010360999992016010914004+69567+020433FM-12+071099999V020999999999999999999999999999+99999+99999999999REMSYN04001036 26/// /2602 11077 2//// 333 60005=
0049010360999992016010915004+69567+020433FM-12+071099999V020999999999999999999999999999+99999+99999999999REMSYN04001036 26/// /2502 11078 2//// 333 60005=
0049010360999992016010916004+69567+020433FM-12+071099999V020999999999999999999999999999+99999+99999999999REMSYN04001036 26/// /2503 11077 2//// 333 60005=
0049010360999992016010917004+69567+020433FM-12+071099999V020999999999999999999999999999+99999+99999999999REMSYN04001036 26/// /2503 11077 2//// 333 60005=
0102010360999992016010918004+69567+020433FM-12+071099999V0202501N003019999999N999999999-00771+99999999999ADDAA112000091KA1120M-00751OD139900601999REMSYN05201036 16/// /2503 11077 2//// 60002 333 11075 91106=
0049010360999992016010919004+69567+020433FM-12+071099999V020999999999999999999999999999+99999+99999999999REMSYN04001036 26/// /2202 11075 2//// 333 60005=
0049010360999992016010920004+69567+020433FM-12+071099999V020999999999999999999999999999+99999+99999999999REMSYN04001036 26/// /2403 11076 2//// 333 60005=
0049010360999992016010921004+69567+020433FM-12+071099999V020999999999999999999999999999+99999+99999999999REMSYN04001036 26/// /2302 11076 2//// 333 60005=
0049010360999992016010922004+69567+020433FM-12+071099999V020999999999999999999999999999+99999+99999999999REMSYN04001036 26/// /2203 11076 2//// 333 60005=
0049010360999992016010923004+69567+020433FM-12+071099999V020999999999999999999999999999+99999+99999999999REMSYN04001036 26/// /2202 11078 2//// 333 60005=
0083010360999992016011000004+69567+020433FM-12+071099999V0201801N002019999999N999999999-00781+99999999999ADDAA106000091OD139900501999REMSYN04601036 16/// /1802 11078 2//// 60001 333 91105=
0049010360999992016011001004+69567+020433FM-12+071099999V020999999999999999999999999999+99999+99999999999REMSYN04001036 26/// /1802 11078 2//// 333 60005=
0049010360999992016011002004+69567+020433FM-12+071099999V020999999999999999999999999999+99999+99999999999REMSYN04001036 26/// /2103 11079 2//// 333 60005=
0049010360999992016011003004+69567+020433FM-12+071099999V020999999999999999999999999999+99999+99999999999REMSYN04001036 26/// /1902 11080 2//// 333 60005=
0049010360999992016011004004+69567+020433FM-12+071099999V020999999999999999999999999999+99999+99999999999REMSYN04001036 26/// /1902 11081 2//// 333 60005=
0049010360999992016011005004+69567+020433FM-12+071099999V020999999999999999999999999999+99999+99999999999REMSYN04001036 26/// /1703 11079 2//// 333 60005=
0119010360999992016011006004+69567+020433FM-12+071099999V0201501N002019999999N999999999-00811+99999999999ADDAA112000091AA224000091KA1240N-00821OD139900501999REMSYN05801036 16/// /1502 11081 2//// 60002 333 21082 70000 91105=
0049010360999992016011007004+69567+020433FM-12+071099999V020999999999999999999999999999+99999+99999999999REMSYN04001036 26/// /1603 11081 2//// 333 60005=
0049010360999992016011008004+69567+020433FM-12+071099999V020999999999999999999999999999+99999+99999999999REMSYN04001036 26/// /1403 11087 2//// 333 60005=
0049010360999992016011009004+69567+020433FM-12+071099999V020999999999999999999999999999+99999+99999999999REMSYN04001036 26/// /1403 11083 2//// 333 60005=
0049010360999992016011010004+69567+020433FM-12+071099999V020999999999999999999999999999+99999+99999999999REMSYN04001036 26/// /1603 11079 2//// 333 60005=
0049010360999992016011011004+69567+020433FM-12+071099999V020999999999999999999999999999+99999+99999999999REMSYN04001036 26/// /1502 11078 2//// 333 60005=
0083010360999992016011012004+69567+020433FM-12+071099999V0201601N001019999999N999999999-00761+99999999999ADDAA106000091OD139900401999REMSYN04601036 16/// /1601 11076 2//// 60001 333 91104=
0049010360999992016011013004+69567+020433FM-12+071099999V020999999999999999999999999999+99999+99999999999REMSYN04001036 26/// /1302 11077 2//// 333 60005=
0049010360999992016011014004+69567+020433FM-12+071099999V020999999999999999999999999999+99999+99999999999REMSYN04001036 26/// /1402 11082 2//// 333 60005=
0049010360999992016011015004+69567+020433FM-12+071099999V020999999999999999999999999999+99999+99999999999REMSYN04001036 26/// /1501 11077 2//// 333 60005=
0049010360999992016011016004+69567+020433FM-12+071099999V020999999999999999999999999999+99999+99999999999REMSYN04001036 26/// /0902 11076 2//// 333 60005=
0049010360999992016011017004+69567+020433FM-12+071099999V020999999999999999999999999999+99999+99999999999REMSYN04001036 26/// /0501 11076 2//// 333 60005=
0102010360999992016011018004+69567+020433FM-12+071099999V0200901N002019999999N999999999-00771+99999999999ADDAA112000091KA1120M-00731OD139900301999REMSYN05201036 16/// /0902 11077 2//// 60002 333 11073 91103=
0049010360999992016011019004+69567+020433FM-12+071099999V020999999999999999999999999999+99999+99999999999REMSYN04001036 26/// /1202 11077 2//// 333 60005=
0049010360999992016011020004+69567+020433FM-12+071099999V020999999999999999999999999999+99999+99999999999REMSYN04001036 26/// /1202 11081 2//// 333 60005=
0049010360999992016011021004+69567+020433FM-12+071099999V020999999999999999999999999999+99999+99999999999REMSYN04001036 26/// /1202 11085 2//// 333 60005=
0049010360999992016011022004+69567+020433FM-12+071099999V020999999999999999999999999999+99999+99999999999REMSYN04001036 26/// /1202 11087 2//// 333 60005=
0049010360999992016011023004+69567+020433FM-12+071099999V020999999999999999999999999999+99999+99999999999REMSYN04001036 26/// /1103 11089 2//// 333 60005=
0083010360999992016011100004+69567+020433FM-12+071099999V0201101N005019999999N999999999-00881+99999999999ADDAA106000091OD139900601999REMSYN04601036 16/// /1105 11088 2//// 60001 333 91106=
0049010360999992016011101004+69567+020433FM-12+071099999V020999999999999999999999999999+99999+99999999999REMSYN04001036 26/// /1105 11103 2//// 333 60005=
0049010360999992016011102004+69567+020433FM-12+071099999V020999999999999999999999999999+99999+99999999999REMSYN04001036 26/// /1206 11108 2//// 333 60005=
0049010360999992016011103004+69567+020433FM-12+071099999V020999999999999999999999999999+99999+99999999999REMSYN04001036 26/// /1207 11109 2//// 333 60005=
0049010360999992016011104004+69567+020433FM-12+071099999V020999999999999999999999999999+99999+99999999999REMSYN04001036 26/// /1206 11114 2//// 333 60005=
0049010360999992016011105004+69567+020433FM-12+071099999V020999999999999999999999999999+99999+99999999999REMSYN04001036 26/// /1207 11117 2//// 333 60005=
0119010360999992016011106004+69567+020433FM-12+071099999V0201201N007019999999N999999999-01171+99999999999ADDAA112000091AA224000091KA1240N-01201OD139900801999REMSYN05801036 16/// /1207 11117 2//// 60002 333 21120 70000 91108=
0049010360999992016011107004+69567+020433FM-12+071099999V020999999999999999999999999999+99999+99999999999REMSYN04001036 26/// /1206 11118 2//// 333 60005=
0049010360999992016011108004+69567+020433FM-12+071099999V020999999999999999999999999999+99999+99999999999REMSYN04001036 26/// /1108 11120 2//// 333 60005=
0049010360999992016011109004+69567+020433FM-12+071099999V020999999999999999999999999999+99999+99999999999REMSYN04001036 26/// /1107 11121 2//// 333 60005=
0049010360999992016011110004+69567+020433FM-12+071099999V020999999999999999999999999999+99999+99999999999REMSYN04001036 26/// /1207 11125 2//// 333 60005=
0049010360999992016011111004+69567+020433FM-12+071099999V020999999999999999999999999999+99999+99999999999REMSYN04001036 26/// /1207 11127 2//// 333 60005=
0083010360999992016011112004+69567+020433FM-12+071099999V0201201N009019999999N999999999-01351+99999999999ADDAA106000431OD139901301999REMSYN04601036 16/// /1209 11135 2//// 69941 333 91113=
0049010360999992016011113004+69567+020433FM-12+071099999V020999999999999999999999999999+99999+99999999999REMSYN04001036 26/// /1206 11140 2//// 333 60005=
0049010360999992016011114004+69567+020433FM-12+071099999V020999999999999999999999999999+99999+99999999999REMSYN04001036 26/// /1106 11143 2//// 333 60005=
0049010360999992016011115004+69567+020433FM-12+071099999V020999999999999999999999999999+99999+99999999999REMSYN04001036 26/// /0906 11147 2//// 333 60005=
0049010360999992016011116004+69567+020433FM-12+071099999V020999999999999999999999999999+99999+99999999999REMSYN04001036 26/// /1105 11153 2//// 333 60005=
0049010360999992016011117004+69567+020433FM-12+071099999V020999999999999999999999999999+99999+99999999999REMSYN04001036 26/// /1005 11146 2//// 333 60005=
0102010360999992016011118004+69567+020433FM-12+071099999V0201101N005019999999N999999999-01381+99999999999ADDAA112000431KA1120M-01151OD139901001999REMSYN05201036 16/// /1105 11138 2//// 69942 333 11115 91110=
0049010360999992016011119004+69567+020433FM-12+071099999V020999999999999999999999999999+99999+99999999999REMSYN04001036 26/// /1205 11139 2//// 333 60005=
0049010360999992016011120004+69567+020433FM-12+071099999V020999999999999999999999999999+99999+99999999999REMSYN04001036 26/// /1205 11134 2//// 333 60005=
0049010360999992016011121004+69567+020433FM-12+071099999V020999999999999999999999999999+99999+99999999999REMSYN04001036 26/// /1005 11135 2//// 333 60005=
0049010360999992016011122004+69567+020433FM-12+071099999V020999999999999999999999999999+99999+99999999999REMSYN04001036 26/// /1005 11134 2//// 333 60005=
0049010360999992016011123004+69567+020433FM-12+071099999V020999999999999999999999999999+99999+99999999999REMSYN04001036 26/// /1106 11132 2//// 333 60005=
0083010360999992016011200004+69567+020433FM-12+071099999V0201201N006019999999N999999999-01341+99999999999ADDAA106000091OD139900701999REMSYN04601036 16/// /1206 11134 2//// 60001 333 91107=
0049010360999992016011201004+69567+020433FM-12+071099999V020999999999999999999999999999+99999+99999999999REMSYN04001036 26/// /1005 11131 2//// 333 60005=
0049010360999992016011202004+69567+020433FM-12+071099999V020999999999999999999999999999+99999+99999999999REMSYN04001036 26/// /1104 11140 2//// 333 60005=
0049010360999992016011203004+69567+020433FM-12+071099999V020999999999999999999999999999+99999+99999999999REMSYN04001036 26/// /1205 11141 2//// 333 60005=
0049010360999992016011204004+69567+020433FM-12+071099999V020999999999999999999999999999+99999+99999999999REMSYN04001036 26/// /1106 11143 2//// 333 60005=
0049010360999992016011205004+69567+020433FM-12+071099999V020999999999999999999999999999+99999+99999999999REMSYN04001036 26/// /0906 11144 2//// 333 60005=
0119010360999992016011206004+69567+020433FM-12+071099999V0200801N005019999999N999999999-01451+99999999999ADDAA112000091AA224000431KA1240N-01521OD139900701999REMSYN05801036 16/// /0805 11145 2//// 60002 333 21152 70004 91107=
0049010360999992016011207004+69567+020433FM-12+071099999V020999999999999999999999999999+99999+99999999999REMSYN04001036 26/// /1205 11144 2//// 333 60005=
0049010360999992016011208004+69567+020433FM-12+071099999V020999999999999999999999999999+99999+99999999999REMSYN04001036 26/// /1305 11139 2//// 333 60005=
0049010360999992016011209004+69567+020433FM-12+071099999V020999999999999999999999999999+99999+99999999999REMSYN04001036 26/// /1106 11143 2//// 333 60005=
0049010360999992016011210004+69567+020433FM-12+071099999V020999999999999999999999999999+99999+99999999999REMSYN04001036 26/// /1005 11148 2//// 333 60005=
0049010360999992016011211004+69567+020433FM-12+071099999V020999999999999999999999999999+99999+99999999999REMSYN04001036 26/// /1105 11148 2//// 333 60005=
0083010360999992016011212004+69567+020433FM-12+071099999V0201101N005019999999N999999999-01471+99999999999ADDAA106000091OD139900701999REMSYN04601036 16/// /1105 11147 2//// 60001 333 91107=
0049010360999992016011213004+69567+020433FM-12+071099999V020999999999999999999999999999+99999+99999999999REMSYN04001036 26/// /1105 11146 2//// 333 60005=
0049010360999992016011214004+69567+020433FM-12+071099999V020999999999999999999999999999+99999+99999999999REMSYN04001036 26/// /1105 11149 2//// 333 60005=
0049010360999992016011215004+69567+020433FM-12+071099999V020999999999999999999999999999+99999+99999999999REMSYN04001036 26/// /1205 11151 2//// 333 60005=
0067010360999992016011216004+69574+020425FM-12+070099999V0201221N0038199999999999999999-01491+99999999999ADDAA101999999KA1010M-01421KA2010N-01601OD130100581117REMSYN004BUFR
0067010360999992016011217004+69574+020425FM-12+070099999V0201061N0055199999999999999999-01461+99999999999ADDAA101999999KA1010M-01371KA2010N-01561OD130100591111REMSYN004BUFR
0078010360999992016011218004+69574+020425FM-12+070099999V0200821N0035199999999999999999-01501+99999999999ADDAA101999999AA212999999KA1120M-01291KA2120N-01611OD130600651121REMSYN004BUFR
0067010360999992016011219004+69574+020425FM-12+070099999V0201071N0047199999999999999999-01451+99999999999ADDAA101999999KA1010M-01391KA2010N-01561OD130100531116REMSYN004BUFR
0067010360999992016011220004+69574+020425FM-12+070099999V0201111N0052199999999999999999-01441+99999999999ADDAA101999999KA1010M-01401KA2010N-01521OD130100571104REMSYN004BUFR
0067010360999992016011221004+69574+020425FM-12+070099999V0201181N0046199999999999999999-01471+99999999999ADDAA101999999KA1010M-01431KA2010N-01531OD130100571124REMSYN004BUFR
0067010360999992016011222004+69574+020425FM-12+070099999V0201221N0050199999999999999999-01471+99999999999ADDAA101999999KA1010M-01441KA2010N-01521OD130100521121REMSYN004BUFR
0067010360999992016011223004+69574+020425FM-12+070099999V0201171N0056199999999999999999-01501+99999999999ADDAA101999999KA1010M-01471KA2010N-01551OD130100581112REMSYN004BUFR
0078010360999992016011300004+69574+020425FM-12+070099999V0201101N0048199999999999999999-01441+99999999999ADDAA101999999AA206999999KA1010M-01411KA2010N-01531OD130600591118REMSYN004BUFR
0067010360999992016011301004+69574+020425FM-12+070099999V0201161N0052199999999999999999-01451+99999999999ADDAA101999999KA1010M-01381KA2010N-01521OD130100561121REMSYN004BUFR
0067010360999992016011302004+69574+020425FM-12+070099999V0200941N0055199999999999999999-01451+99999999999ADDAA101999999KA1010M-01381KA2010N-01551OD130100631107REMSYN004BUFR
0067010360999992016011303004+69574+020425FM-12+070099999V0201211N0058199999999999999999-01431+99999999999ADDAA101999999KA1010M-01371KA2010N-01551OD130100661108REMSYN004BUFR
0067010360999992016011304004+69574+020425FM-12+070099999V0201151N0047199999999999999999-01411+99999999999ADDAA101999999KA1010M-01371KA2010N-01541OD130100581122REMSYN004BUFR
0067010360999992016011305004+69574+020425FM-12+070099999V0201071N0038199999999999999999-01351+99999999999ADDAA101999999KA1010M-01281KA2010N-01411OD130100511119REMSYN004BUFR
0089010360999992016011306004+69574+020425FM-12+070099999V0201281N0031199999999999999999-01331+99999999999ADDAA101999999AA212999999AA324999999KA1120M-01281KA2120N-01561OD130600661108REMSYN004BUFR
0053010360999992016011307004+69574+020425FM-12+070099999V0201111N0039199999999999999999-01301+99999999999ADDAA101999999KA1010M-01251KA2010N-01341REMSYN004BUFR
0067010360999992016011308004+69574+020425FM-12+070099999V0201041N0046199999999999999999-01281+99999999999ADDAA101999999KA1010M-01261KA2010N-01321OD130100501096REMSYN004BUFR
0067010360999992016011309004+69574+020425FM-12+070099999V0201011N0048199999999999999999-01281+99999999999ADDAA101999999KA1010M-01271KA2010N-01311OD130100521101REMSYN004BUFR
0067010360999992016011310004+69574+020425FM-12+070099999V0200891N0045199999999999999999-01311+99999999999ADDAA101999999KA1010M-01281KA2010N-01461OD130100541109REMSYN004BUFR
0067010360999992016011311004+69574+020425FM-12+070099999V0201081N0045199999999999999999-01341+99999999999ADDAA101999999KA1010M-01281KA2010N-01461OD130100511106REMSYN004BUFR
0078010360999992016011312004+69574+020425FM-12+070099999V0201011N0047199999999999999999-01281+99999999999ADDAA101999999AA206999999KA1010M-01241KA2010N-01331OD130600541109REMSYN004BUFR
0067010360999992016011313004+69574+020425FM-12+070099999V0200861N0047199999999999999999-01321+99999999999ADDAA101999999KA1010M-01241KA2010N-01441OD130100511087REMSYN004BUFR
0067010360999992016011314004+69574+020425FM-12+070099999V0201061N0046199999999999999999-01291+99999999999ADDAA101999999KA1010M-01221KA2010N-01471OD130100501079REMSYN004BUFR
0053010360999992016011315004+69574+020425FM-12+070099999V0201101N0027199999999999999999-01201+99999999999ADDAA101999999KA1010M-01161KA2010N-01261REMSYN004BUFR
0053010360999992016011316004+69574+020425FM-12+070099999V0200971N0036199999999999999999-01181+99999999999ADDAA101999999KA1010M-01121KA2010N-01241REMSYN004BUFR
0053010360999992016011317004+69574+020425FM-12+070099999V0200981N0030199999999999999999-01131+99999999999ADDAA101999999KA1010M-01101KA2010N-01221REMSYN004BUFR
0078010360999992016011318004+69574+020425FM-12+070099999V0201231N0018199999999999999999-01151+99999999999ADDAA101999999AA212999999KA1120M-01091KA2120N-01471OD130600511087REMSYN004BUFR
0053010360999992016011319004+69574+020425FM-12+070099999V0201071N0037199999999999999999-01171+99999999999ADDAA101999999KA1010M-01101KA2010N-01311REMSYN004BUFR
0053010360999992016011320004+69574+020425FM-12+070099999V0201241N0023199999999999999999-01121+99999999999ADDAA101999999KA1010M-01091KA2010N-01181REMSYN004BUFR
0053010360999992016011321004+69574+020425FM-12+070099999V0201171N0016199999999999999999-01131+99999999999ADDAA101999999KA1010M-01071KA2010N-01221REMSYN004BUFR
0053010360999992016011322004+69574+020425FM-12+070099999V0200931N0036199999999999999999-01141+99999999999ADDAA101999999KA1010M-01091KA2010N-01211REMSYN004BUFR
0067010360999992016011323004+69574+020425FM-12+070099999V0201021N0045199999999999999999-01081+99999999999ADDAA101999999KA1010M-01051KA2010N-01131OD130100511101REMSYN004BUFR
0078010360999992016011400004+69574+020425FM-12+070099999V0200891N0036199999999999999999-01091+99999999999ADDAA101999999AA206999999KA1010M-01051KA2010N-01191OD130600511101REMSYN004BUFR
0053010360999992016011401004+69574+020425FM-12+070099999V0201101N0031199999999999999999-01061+99999999999ADDAA101999999KA1010M-01041KA2010N-01101REMSYN004BUFR
0053010360999992016011402004+69574+020425FM-12+070099999V0201101N0018199999999999999999-01111+99999999999ADDAA101999999KA1010M-01061KA2010N-01201REMSYN004BUFR
0053010360999992016011403004+69574+020425FM-12+070099999V0200771N0033199999999999999999-01191+99999999999ADDAA101999999KA1010M-01101KA2010N-01321REMSYN004BUFR
0053010360999992016011404004+69574+020425FM-12+070099999V0200621N0033199999999999999999-01211+99999999999ADDAA101999999KA1010M-01141KA2010N-01331REMSYN004BUFR
0053010360999992016011405004+69574+020425FM-12+070099999V0200351N0030199999999999999999-01161+99999999999ADDAA101999999KA1010M-01091KA2010N-01271REMSYN004BUFR
0075010360999992016011406004+69574+020425FM-12+070099999V0200631N0022199999999999999999-01111+99999999999ADDAA101999999AA212999999AA324999999KA1120M-01031KA2120N-01331REMSYN004BUFR
0053010360999992016011407004+69574+020425FM-12+070099999V0200311N0018199999999999999999-01171+99999999999ADDAA101999999KA1010M-01141KA2010N-01221REMSYN004BUFR
0053010360999992016011408004+69574+020425FM-12+070099999V0200481N0033199999999999999999-01131+99999999999ADDAA101999999KA1010M-01061KA2010N-01191REMSYN004BUFR
0053010360999992016011409004+69574+020425FM-12+070099999V0200391N0026199999999999999999-01091+99999999999ADDAA101999999KA1010M-01031KA2010N-01161REMSYN004BUFR
0053010360999992016011410004+69574+020425FM-12+070099999V0200581N0021199999999999999999-01071+99999999999ADDAA101999999KA1010M-00971KA2010N-01141REMSYN004BUFR
0053010360999992016011411004+69574+020425FM-12+070099999V0200581N0019199999999999999999-01041+99999999999ADDAA101999999KA1010M-01001KA2010N-01101REMSYN004BUFR
0083010360999992016011412004+69567+020433FM-12+071099999V0200401N002019999999N999999999-01021+99999999999ADDAA106000091OD139900401999REMSYN04601036 16/// /0402 11102 2//// 60001 333 91104=
0053010360999992016011413004+69574+020425FM-12+070099999V0200811N0015199999999999999999-01021+99999999999ADDAA101999999KA1010M-01001KA2010N-01051REMSYN004BUFR
0049010360999992016011414004+69567+020433FM-12+071099999V020999999999999999999999999999+99999+99999999999REMSYN04001036 26/// /0901 11097 2//// 333 60005=
0049010360999992016011415004+69567+020433FM-12+071099999V020999999999999999999999999999+99999+99999999999REMSYN04001036 26/// /1201 11099 2//// 333 60005=
0049010360999992016011416004+69567+020433FM-12+071099999V020999999999999999999999999999+99999+99999999999REMSYN04001036 26/// /0902 11100 2//// 333 60005=
0053010360999992016011417004+69574+020425FM-12+070099999V0200851N0021199999999999999999-00961+99999999999ADDAA101999999KA1010M-00911KA2010N-01041REMSYN004BUFR
0102010360999992016011418004+69567+020433FM-12+071099999V0200701N001019999999N999999999-00961+99999999999ADDAA112000091KA1120M-00911OD139900301999REMSYN05201036 16/// /0701 11096 2//// 60002 333 11091 91103=
0049010360999992016011419004+69567+020433FM-12+071099999V020999999999999999999999999999+99999+99999999999REMSYN04001036 26/// /0503 11099 2//// 333 60005=
0049010360999992016011420004+69567+020433FM-12+071099999V020999999999999999999999999999+99999+99999999999REMSYN04001036 26/// /0402 11100 2//// 333 60005=
0049010360999992016011421004+69567+020433FM-12+071099999V020999999999999999999999999999+99999+99999999999REMSYN04001036 26/// /0402 11100 2//// 333 60005=
0053010360999992016011422004+69574+020425FM-12+070099999V0200251N0026199999999999999999-00981+99999999999ADDAA101999999KA1010M-00901KA2010N-01081REMSYN004BUFR
0049010360999992016011423004+69567+020433FM-12+071099999V020999999999999999999999999999+99999+99999999999REMSYN04001036 26/// /0403 11092 2//// 333 60005=
0083010360999992016011500004+69567+020433FM-12+071099999V0200301N004019999999N999999999-00951+99999999999ADDAA106000091OD139900501999REMSYN04601036 16/// /0304 11095 2//// 60001 333 91105=
0049010360999992016011501004+69567+020433FM-12+071099999V020999999999999999999999999999+99999+99999999999REMSYN04001036 26/// /0203 11096 2//// 333 60005=
0049010360999992016011502004+69567+020433FM-12+071099999V020999999999999999999999999999+99999+99999999999REMSYN04001036 26/// /0302 11090 2//// 333 60005=
0049010360999992016011503004+69567+020433FM-12+071099999V020999999999999999999999999999+99999+99999999999REMSYN04001036 26/// /0000 11091 2//// 333 60005=
0053010360999992016011504004+69574+020425FM-12+070099999V0200111N0017199999999999999999-00901+99999999999ADDAA101000531KA1010M-00861KA2010N-00941REMSYN004BUFR
0053010360999992016011505004+69574+020425FM-12+070099999V0200051N0025199999999999999999-00861+99999999999ADDAA101000131KA1010M-00831KA2010N-00901REMSYN004BUFR
0075010360999992016011506004+69574+020425FM-12+070099999V0200141N0023199999999999999999-00831+99999999999ADDAA101999999AA212000631AA324000631KA1120M-00821KA2120N-01081REMSYN004BUFR
0053010360999992016011507004+69574+020425FM-12+070099999V0200041N0039199999999999999999-00811+99999999999ADDAA101999999KA1010M-00781KA2010N-00841REMSYN004BUFR
0053010360999992016011508004+69574+020425FM-12+070099999V0200051N0032199999999999999999-00801+99999999999ADDAA101999999KA1010M-00781KA2010N-00831REMSYN004BUFR
0067010360999992016011509004+69574+020425FM-12+070099999V0200071N0048199999999999999999-00761+99999999999ADDAA101999999KA1010M-00741KA2010N-00791OD130100611009REMSYN004BUFR
0067010360999992016011510004+69574+020425FM-12+070099999V0200021N0038199999999999999999-00761+99999999999ADDAA101999999KA1010M-00721KA2010N-00781OD130100571008REMSYN004BUFR
0049010360999992016011511004+69567+020433FM-12+071099999V020999999999999999999999999999+99999+99999999999REMSYN04001036 26/// /0104 11073 2//// 333 60005=
0083010360999992016011512004+69567+020433FM-12+071099999V0200101N005019999999N999999999-00741+99999999999ADDAA106000091OD139900601999REMSYN04601036 16/// /0105 11074 2//// 60001 333 91106=
0067010360999992016011513004+69574+020425FM-12+070099999V0200131N0047199999999999999999-00711+99999999999ADDAA101999999KA1010M-00691KA2010N-00761OD130100631011REMSYN004BUFR
0067010360999992016011514004+69574+020425FM-12+070099999V0200141N0043199999999999999999-00711+99999999999ADDAA101999999KA1010M-00691KA2010N-00741OD130100571016REMSYN004BUFR
0049010360999992016011515004+69567+020433FM-12+071099999V020999999999999999999999999999+99999+99999999999REMSYN04001036 26/// /0105 11069 2//// 333 60005=
0049010360999992016011516004+69567+020433FM-12+071099999V020999999999999999999999999999+99999+99999999999REMSYN04001036 26/// /0204 11069 2//// 333 60005=
0049010360999992016011517004+69567+020433FM-12+071099999V020999999999999999999999999999+99999+99999999999REMSYN04001036 26/// /0303 11074 2//// 333 60005=
0078010360999992016011518004+69574+020425FM-12+070099999V0200321N0031199999999999999999-00751+99999999999ADDAA101999999AA212999999KA1120M-00671KA2120N-00841OD130600661008REMSYN004BUFR
0049010360999992016011519004+69567+020433FM-12+071099999V020999999999999999999999999999+99999+99999999999REMSYN04001036 26/// /0303 11077 2//// 333 60005=
0049010360999992016011520004+69567+020433FM-12+071099999V020999999999999999999999999999+99999+99999999999REMSYN04001036 26/// /0304 11073 2//// 333 60005=
0049010360999992016011521004+69567+020433FM-12+071099999V020999999999999999999999999999+99999+99999999999REMSYN04001036 26/// /0104 11070 2//// 333 60005=
0049010360999992016011522004+69567+020433FM-12+071099999V020999999999999999999999999999+99999+99999999999REMSYN04001036 26/// /0104 11068 2//// 333 60005=
0049010360999992016011523004+69567+020433FM-12+071099999V020999999999999999999999999999+99999+99999999999REMSYN04001036 26/// /0103 11068 2//// 333 60005=
0078010360999992016011600004+69574+020425FM-12+070099999V0200091N0028199999999999999999-00681+99999999999ADDAA101999999AA206999999KA1010M-00671KA2010N-00701OD130600521029REMSYN004BUFR
0053010360999992016011601004+69574+020425FM-12+070099999V0200071N0020199999999999999999-00701+99999999999ADDAA101999999KA1010M-00681KA2010N-00761REMSYN004BUFR
0053010360999992016011602004+69574+020425FM-12+070099999V0200011N0020199999999999999999-00681+99999999999ADDAA101000231KA1010M-00671KA2010N-00701REMSYN004BUFR
0053010360999992016011603004+69574+020425FM-12+070099999V0203511N0019199999999999999999-00681+99999999999ADDAA101999999KA1010M-00671KA2010N-00701REMSYN004BUFR
0067010360999992016011604004+69574+020425FM-12+070099999V0203491N0035199999999999999999-00651+99999999999ADDAA101000131KA1010M-00641KA2010N-00681OD130100591007REMSYN004BUFR
0067010360999992016011605004+69574+020425FM-12+070099999V0203541N0054199999999999999999-00641+99999999999ADDAA101000231KA1010M-00631KA2010N-00661OD130100641354REMSYN004BUFR
0089010360999992016011606004+69574+020425FM-12+070099999V0203411N0033199999999999999999-00641+99999999999ADDAA101000431AA212000931AA324000931KA1120M-00631KA2120N-00821OD130600681341REMSYN004BUFR
0049010360999992016011607004+69567+020433FM-12+071099999V020999999999999999999999999999+99999+99999999999REMSYN04001036 26/// /3404 11065 2//// 333 69925=
0049010360999992016011608004+69567+020433FM-12+071099999V020999999999999999999999999999+99999+99999999999REMSYN04001036 26/// /3405 11065 2//// 333 69915=
0049010360999992016011609004+69567+020433FM-12+071099999V020999999999999999999999999999+99999+99999999999REMSYN04001036 26/// /3505 11063 2//// 333 69925=
0049010360999992016011610004+69567+020433FM-12+071099999V020999999999999999999999999999+99999+99999999999REMSYN04001036 26/// /3505 11064 2//// 333 69925=
0049010360999992016011611004+69567+020433FM-12+071099999V020999999999999999999999999999+99999+99999999999REMSYN04001036 26/// /3608 11067 2//// 333 69915=
0083010360999992016011612004+69567+020433FM-12+071099999V0203501N007019999999N999999999-00671+99999999999ADDAA106000831OD139901201999REMSYN04601036 16/// /3507 11067 2//// 69981 333 91112=
0049010360999992016011613004+69567+020433FM-12+071099999V020999999999999999999999999999+99999+99999999999REMSYN04001036 26/// /3407 11069 2//// 333 69915=
0049010360999992016011614004+69567+020433FM-12+071099999V020999999999999999999999999999+99999+99999999999REMSYN04001036 26/// /3508 11068 2//// 333 60005=
0049010360999992016011615004+69567+020433FM-12+071099999V020999999999999999999999999999+99999+99999999999REMSYN04001036 26/// /3508 11067 2//// 333 60005=
0049010360999992016011616004+69567+020433FM-12+071099999V020999999999999999999999999999+99999+99999999999REMSYN04001036 26/// /3305 11065 2//// 333 60005=
0049010360999992016011617004+69567+020433FM-12+071099999V020999999999999999999999999999+99999+99999999999REMSYN04001036 26/// /3407 11060 2//// 333 60005=
0102010360999992016011618004+69567+020433FM-12+071099999V0203501N007019999999N999999999-00621+99999999999ADDAA112000931KA1120M-00571OD139901201999REMSYN05201036 16/// /3507 11062 2//// 69992 333 11057 91112=
0049010360999992016011619004+69567+020433FM-12+071099999V020999999999999999999999999999+99999+99999999999REMSYN04001036 26/// /3407 11060 2//// 333 60005=
0067010360999992016011620004+69574+020425FM-12+070099999V0203201N0054199999999999999999-00611+99999999999ADDAA101000231KA1010M-00551KA2010N-00651OD130100801318REMSYN004BUFR
0049010360999992016011621004+69567+020433FM-12+071099999V020999999999999999999999999999+99999+99999999999REMSYN04001036 26/// /3306 11062 2//// 333 69915=
0049010360999992016011622004+69567+020433FM-12+071099999V020999999999999999999999999999+99999+99999999999REMSYN04001036 26/// /3206 11060 2//// 333 69915=
0049010360999992016011623004+69567+020433FM-12+071099999V020999999999999999999999999999+99999+99999999999REMSYN04001036 26/// /3106 11059 2//// 333 60005=
0083010360999992016011700004+69567+020433FM-12+071099999V0203201N004019999999N999999999-00601+99999999999ADDAA106000531OD139901201999REMSYN04601036 16/// /3204 11060 2//// 69951 333 91112=
0049010360999992016011701004+69567+020433FM-12+071099999V020999999999999999999999999999+99999+99999999999REMSYN04001036 26/// /3506 11061 2//// 333 60005=
0049010360999992016011702004+69567+020433FM-12+071099999V020999999999999999999999999999+99999+99999999999REMSYN04001036 26/// /3205 11060 2//// 333 69915=
0049010360999992016011703004+69567+020433FM-12+071099999V020999999999999999999999999999+99999+99999999999REMSYN04001036 26/// /3304 11061 2//// 333 69915=
0067010360999992016011704004+69574+020425FM-12+070099999V0200151N0011199999999999999999-00591+99999999999ADDAA101000331KA1010M-00581KA2010N-00601OD130100681342REMSYN004BUFR
0049010360999992016011705004+69567+020433FM-12+071099999V020999999999999999999999999999+99999+99999999999REMSYN04001036 26/// /3403 11056 2//// 333 69985=
0119010360999992016011706004+69567+020433FM-12+071099999V0202401N001019999999N999999999-00561+99999999999ADDAA112002031AA224002931KA1240N-00651OD139901101999REMSYN05801036 16/// /2401 11056 2//// 60022 333 21065 70029 91111=
0053010360999992016011707004+69574+020425FM-12+070099999V0202571N0015199999999999999999-00571+99999999999ADDAA101000131KA1010M-00561KA2010N-00601REMSYN004BUFR
0053010360999992016011708004+69574+020425FM-12+070099999V0202741N0006199999999999999999-00621+99999999999ADDAA101999999KA1010M-00591KA2010N-00651REMSYN004BUFR
0049010360999992016011709004+69567+020433FM-12+071099999V020999999999999999999999999999+99999+99999999999REMSYN04001036 26/// /0101 11069 2//// 333 60005=
0049010360999992016011710004+69567+020433FM-12+071099999V020999999999999999999999999999+99999+99999999999REMSYN04001036 26/// /2101 11072 2//// 333 69935=
0049010360999992016011711004+69567+020433FM-12+071099999V020999999999999999999999999999+99999+99999999999REMSYN04001036 26/// /1801 11083 2//// 333 69915=
0083010360999992016011712004+69567+020433FM-12+071099999V0201001N003019999999N999999999-00961+99999999999ADDAA106000531OD139900501999REMSYN04601036 16/// /1003 11096 2//// 69951 333 91105=
0067010360999992016011713004+69574+020425FM-12+070099999V0201031N0051199999999999999999-01121+99999999999ADDAA101999999KA1010M-01041KA2010N-01171OD130100721105REMSYN004BUFR
0067010360999992016011714004+69574+020425FM-12+070099999V0201181N0055199999999999999999-01171+99999999999ADDAA101999999KA1010M-01141KA2010N-01211OD130100611114REMSYN004BUFR
0067010360999992016011715004+69574+020425FM-12+070099999V0201121N0049199999999999999999-01251+99999999999ADDAA101999999KA1010M-01201KA2010N-01311OD130100661118REMSYN004BUFR
0049010360999992016011716004+69567+020433FM-12+071099999V020999999999999999999999999999+99999+99999999999REMSYN04001036 26/// /1006 11138 2//// 333 60005=
0049010360999992016011717004+69567+020433FM-12+071099999V020999999999999999999999999999+99999+99999999999REMSYN04001036 26/// /1107 11146 2//// 333 60005=
0102010360999992016011718004+69567+020433FM-12+071099999V0201201N007019999999N999999999-01521+99999999999ADDAA112000531KA1120M-00561OD139901001999REMSYN05201036 16/// /1207 11152 2//// 69952 333 11056 91110=
0067010360999992016011719004+69574+020425FM-12+070099999V0201301N0077199999999999999999-01571+99999999999ADDAA101999999KA1010M-01551KA2010N-01611OD130101001123REMSYN004BUFR
0049010360999992016011720004+69567+020433FM-12+071099999V020999999999999999999999999999+99999+99999999999REMSYN04001036 26/// /1308 11162 2//// 333 60005=
0049010360999992016011721004+69567+020433FM-12+071099999V020999999999999999999999999999+99999+99999999999REMSYN04001036 26/// /1209 11165 2//// 333 60005=
0049010360999992016011722004+69567+020433FM-12+071099999V020999999999999999999999999999+99999+99999999999REMSYN04001036 26/// /1309 11166 2//// 333 60005=
0067010360999992016011723004+69574+020425FM-12+070099999V0201271N0081199999999999999999-01691+99999999999ADDAA101999999KA1010M-01651KA2010N-01731OD130101061126REMSYN004BUFR
0078010360999992016011800004+69574+020425FM-12+070099999V0201311N0079199999999999999999-01731+99999999999ADDAA101999999AA206999999KA1010M-01701KA2010N-01771OD130601131118REMSYN004BUFR
0049010360999992016011801004+69567+020433FM-12+071099999V020999999999999999999999999999+99999+99999999999REMSYN04001036 26/// /1209 11171 2//// 333 60005=
0049010360999992016011802004+69567+020433FM-12+071099999V020999999999999999999999999999+99999+99999999999REMSYN04001036 26/// /1505 11167 2//// 333 60005=
0049010360999992016011803004+69567+020433FM-12+071099999V020999999999999999999999999999+99999+99999999999REMSYN04001036 26/// /1208 11169 2//// 333 60005=
0067010360999992016011804004+69574+020425FM-12+070099999V0201241N0080199999999999999999-01721+99999999999ADDAA101999999KA1010M-01651KA2010N-01771OD130101081112REMSYN004BUFR
0067010360999992016011805004+69574+020425FM-12+070099999V0201181N0090199999999999999999-01701+99999999999ADDAA101999999KA1010M-01661KA2010N-01761OD130101211123REMSYN004BUFR
0119010360999992016011806004+69567+020433FM-12+071099999V0201101N008019999999N999999999-01691+99999999999ADDAA112000091AA224000531KA1240N-01771OD139901201999REMSYN05801036 16/// /1108 11169 2//// 60002 333 21177 70005 91112=
0049010360999992016011807004+69567+020433FM-12+071099999V020999999999999999999999999999+99999+99999999999REMSYN04001036 26/// /1208 11168 2//// 333 60005=
0049010360999992016011808004+69567+020433FM-12+071099999V020999999999999999999999999999+99999+99999999999REMSYN04001036 26/// /1207 11162 2//// 333 60005=
0049010360999992016011809004+69567+020433FM-12+071099999V020999999999999999999999999999+99999+99999999999REMSYN04001036 26/// /1304 11151 2//// 333 60005=
0049010360999992016011810004+69567+020433FM-12+071099999V020999999999999999999999999999+99999+99999999999REMSYN04001036 26/// /1108 11148 2//// 333 60005=
0049010360999992016011811004+69567+020433FM-12+071099999V020999999999999999999999999999+99999+99999999999REMSYN04001036 26/// /1107 11152 2//// 333 60005=
0083010360999992016011812004+69567+020433FM-12+071099999V0201201N007019999999N999999999-01531+99999999999ADDAA106000091OD139901101999REMSYN04601036 16/// /1207 11153 2//// 60001 333 91111=
0049010360999992016011813004+69567+020433FM-12+071099999V020999999999999999999999999999+99999+99999999999REMSYN04001036 26/// /1207 11145 2//// 333 60005=
0067010360999992016011814004+69574+020425FM-12+070099999V0201181N0076199999999999999999-01451+99999999999ADDAA101999999KA1010M-01411KA2010N-01501OD130100921120REMSYN004BUFR
0067010360999992016011815004+69574+020425FM-12+070099999V0201101N0067199999999999999999-01491+99999999999ADDAA101999999KA1010M-01421KA2010N-01591OD130100751110REMSYN004BUFR
0049010360999992016011816004+69567+020433FM-12+071099999V020999999999999999999999999999+99999+99999999999REMSYN04001036 26/// /1205 11153 2//// 333 60005=
0049010360999992016011817004+69567+020433FM-12+071099999V020999999999999999999999999999+99999+99999999999REMSYN04001036 26/// /1106 11155 2//// 333 60005=
0102010360999992016011818004+69567+020433FM-12+071099999V0201101N007019999999N999999999-01581+99999999999ADDAA112000091KA1120M-01391OD139900901999REMSYN05201036 16/// /1107 11158 2//// 60002 333 11139 91109=
0049010360999992016011819004+69567+020433FM-12+071099999V020999999999999999999999999999+99999+99999999999REMSYN04001036 26/// /1104 11154 2//// 333 60005=
0049010360999992016011820004+69567+020433FM-12+071099999V020999999999999999999999999999+99999+99999999999REMSYN04001036 26/// /1107 11158 2//// 333 60005=
0049010360999992016011821004+69567+020433FM-12+071099999V020999999999999999999999999999+99999+99999999999REMSYN04001036 26/// /1106 11156 2//// 333 60005=
0049010360999992016011822004+69567+020433FM-12+071099999V020999999999999999999999999999+99999+99999999999REMSYN04001036 26/// /0906 11147 2//// 333 60005=
0049010360999992016011823004+69567+020433FM-12+071099999V020999999999999999999999999999+99999+99999999999REMSYN04001036 26/// /0905 11150 2//// 333 60005=
0083010360999992016011900004+69567+020433FM-12+071099999V0201101N006019999999N999999999-01501+99999999999ADDAA106000091OD139900901999REMSYN04601036 16/// /1106 11150 2//// 60001 333 91109=
0067010360999992016011901004+69574+020425FM-12+070099999V0201041N0060199999999999999999-01501+99999999999ADDAA101999999KA1010M-01431KA2010N-01591OD130100731115REMSYN004BUFR
0049010360999992016011902004+69567+020433FM-12+071099999V020999999999999999999999999999+99999+99999999999REMSYN04001036 26/// /1105 11147 2//// 333 60005=
0067010360999992016011903004+69574+020425FM-12+070099999V0201191N0047199999999999999999-01451+99999999999ADDAA101999999KA1010M-01411KA2010N-01541OD130100571106REMSYN004BUFR
0049010360999992016011904004+69567+020433FM-12+071099999V020999999999999999999999999999+99999+99999999999REMSYN04001036 26/// /1106 11143 2//// 333 60005=
0067010360999992016011905004+69574+020425FM-12+070099999V0201021N0043199999999999999999-01431+99999999999ADDAA101999999KA1010M-01371KA2010N-01501OD130100651089REMSYN004BUFR
0119010360999992016011906004+69567+020433FM-12+071099999V0201201N004019999999N999999999-01461+99999999999ADDAA112000091AA224000091KA1240N-01721OD139900701999REMSYN05801036 16/// /1204 11146 2//// 60002 333 21172 70000 91107=
0049010360999992016011907004+69567+020433FM-12+071099999V020999999999999999999999999999+99999+99999999999REMSYN04001036 26/// /1006 11149 2//// 333 60005=
0049010360999992016011908004+69567+020433FM-12+071099999V020999999999999999999999999999+99999+99999999999REMSYN04001036 26/// /1005 11152 2//// 333 60005=
0067010360999992016011909004+69574+020425FM-12+070099999V0201021N0055199999999999999999-01471+99999999999ADDAA101999999KA1010M-01431KA2010N-01561OD130100691096REMSYN004BUFR
0049010360999992016011910004+69567+020433FM-12+071099999V020999999999999999999999999999+99999+99999999999REMSYN04001036 26/// /0906 11148 2//// 333 60005=
0049010360999992016011911004+69567+020433FM-12+071099999V020999999999999999999999999999+99999+99999999999REMSYN04001036 26/// /1005 11145 2//// 333 60005=
0083010360999992016011912004+69567+020433FM-12+071099999V0201101N005019999999N999999999-01481+99999999999ADDAA106000091OD139900701999REMSYN04601036 16/// /1105 11148 2//// 60001 333 91107=
0067010360999992016011913004+69574+020425FM-12+070099999V0200991N0048199999999999999999-01461+99999999999ADDAA101999999KA1010M-01441KA2010N-01511OD130100571109REMSYN004BUFR
0049010360999992016011914004+69567+020433FM-12+071099999V020999999999999999999999999999+99999+99999999999REMSYN04001036 26/// /1005 11149 2//// 333 60005=
0049010360999992016011915004+69567+020433FM-12+071099999V020999999999999999999999999999+99999+99999999999REMSYN04001036 26/// /1105 11147 2//// 333 60005=
0049010360999992016011916004+69567+020433FM-12+071099999V020999999999999999999999999999+99999+99999999999REMSYN04001036 26/// /1105 11146 2//// 333 60005=
0067010360999992016011917004+69574+020425FM-12+070099999V0201131N0046199999999999999999-01471+99999999999ADDAA101999999KA1010M-01411KA2010N-01551OD130100611113REMSYN004BUFR
0078010360999992016011918004+69574+020425FM-12+070099999V0201211N0040199999999999999999-01391+99999999999ADDAA101999999AA212999999KA1120M-01331KA2120N-01631OD130600711106REMSYN004BUFR
0049010360999992016011919004+69567+020433FM-12+071099999V020999999999999999999999999999+99999+99999999999REMSYN04001036 26/// /1102 11139 2//// 333 60005=
0049010360999992016011920004+69567+020433FM-12+071099999V020999999999999999999999999999+99999+99999999999REMSYN04001036 26/// /1202 11135 2//// 333 60005=
0049010360999992016011921004+69567+020433FM-12+071099999V020999999999999999999999999999+99999+99999999999REMSYN04001036 26/// /1302 11137 2//// 333 60005=
0049010360999992016011922004+69567+020433FM-12+071099999V020999999999999999999999999999+99999+99999999999REMSYN04001036 26/// /1602 11133 2//// 333 60005=
0049010360999992016011923004+69567+020433FM-12+071099999V020999999999999999999999999999+99999+99999999999REMSYN04001036 26/// /1402 11136 2//// 333 60005=
0083010360999992016012000004+69567+020433FM-12+071099999V0201301N002019999999N999999999-01331+99999999999ADDAA106000091OD139900501999REMSYN04601036 16/// /1302 11133 2//// 60001 333 91105=
0049010360999992016012001004+69567+020433FM-12+071099999V020999999999999999999999999999+99999+99999999999REMSYN04001036 26/// /1302 11131 2//// 333 60005=
0049010360999992016012002004+69567+020433FM-12+071099999V020999999999999999999999999999+99999+99999999999REMSYN04001036 26/// /1402 11133 2//// 333 60005=
0053010360999992016012003004+69574+020425FM-12+070099999V0201391N0017199999999999999999-01311+99999999999ADDAA101999999KA1010M-01281KA2010N-01351REMSYN004BUFR
0049010360999992016012004004+69567+020433FM-12+071099999V020999999999999999999999999999+99999+99999999999REMSYN04001036 26/// /1402 11131 2//// 333 60005=
0049010360999992016012005004+69567+020433FM-12+071099999V020999999999999999999999999999+99999+99999999999REMSYN04001036 26/// /1302 11129 2//// 333 60005=
0119010360999992016012006004+69567+020433FM-12+071099999V0201301N001019999999N999999999-01271+99999999999ADDAA112000091AA224000091KA1240N-01471OD139900301999REMSYN05801036 16/// /1301 11127 2//// 60002 333 21147 70000 91103=
0049010360999992016012007004+69567+020433FM-12+071099999V020999999999999999999999999999+99999+99999999999REMSYN04001036 26/// /1201 11128 2//// 333 60005=
0049010360999992016012008004+69567+020433FM-12+071099999V020999999999999999999999999999+99999+99999999999REMSYN04001036 26/// /1302 11128 2//// 333 60005=
0049010360999992016012009004+69567+020433FM-12+071099999V020999999999999999999999999999+99999+99999999999REMSYN04001036 26/// /1402 11123 2//// 333 60005=
0049010360999992016012010004+69567+020433FM-12+071099999V020999999999999999999999999999+99999+99999999999REMSYN04001036 26/// /1403 11121 2//// 333 60005=
0049010360999992016012011004+69567+020433FM-12+071099999V020999999999999999999999999999+99999+99999999999REMSYN04001036 26/// /1303 11121 2//// 333 60005=
0083010360999992016012012004+69567+020433FM-12+071099999V0201401N003019999999N999999999-01151+99999999999ADDAA106000091OD139900401999REMSYN04601036 16/// /1403 11115 2//// 60001 333 91104=
0049010360999992016012013004+69567+020433FM-12+071099999V020999999999999999999999999999+99999+99999999999REMSYN04001036 26/// /1403 11111 2//// 333 60005=
0049010360999992016012014004+69567+020433FM-12+071099999V020999999999999999999999999999+99999+99999999999REMSYN04001036 26/// /1503 11110 2//// 333 60005=
0049010360999992016012015004+69567+020433FM-12+071099999V020999999999999999999999999999+99999+99999999999REMSYN04001036 26/// /1404 11112 2//// 333 60005=
0049010360999992016012016004+69567+020433FM-12+071099999V020999999999999999999999999999+99999+99999999999REMSYN04001036 26/// /1603 11107 2//// 333 60005=
0049010360999992016012017004+69567+020433FM-12+071099999V020999999999999999999999999999+99999+99999999999REMSYN04001036 26/// /1603 11105 2//// 333 60005=
0102010360999992016012018004+69567+020433FM-12+071099999V0201601N003019999999N999999999-01021+99999999999ADDAA112000091KA1120M-00981OD139900501999REMSYN05201036 16/// /1603 11102 2//// 60002 333 11098 91105=
0053010360999992016012019004+69574+020425FM-12+070099999V0201561N0033199999999999999999-00941+99999999999ADDAA101999999KA1010M-00921KA2010N-00981REMSYN004BUFR
0049010360999992016012020004+69567+020433FM-12+071099999V020999999999999999999999999999+99999+99999999999REMSYN04001036 26/// /1404 11095 2//// 333 60005=
0049010360999992016012021004+69567+020433FM-12+071099999V020999999999999999999999999999+99999+99999999999REMSYN04001036 26/// /1503 11093 2//// 333 60005=
0049010360999992016012022004+69567+020433FM-12+071099999V020999999999999999999999999999+99999+99999999999REMSYN04001036 26/// /1503 11092 2//// 333 60005=
0049010360999992016012023004+69567+020433FM-12+071099999V020999999999999999999999999999+99999+99999999999REMSYN04001036 26/// /1603 11091 2//// 333 60005=
0083010360999992016012100004+69567+020433FM-12+071099999V0201601N003019999999N999999999-00891+99999999999ADDAA106000091OD139900501999REMSYN04601036 16/// /1603 11089 2//// 60001 333 91105=
0067010360999992016012101004+69574+020425FM-12+070099999V0201611N0044199999999999999999-00871+99999999999ADDAA101999999KA1010M-00811KA2010N-00931OD130100531165REMSYN004BUFR
0049010360999992016012102004+69567+020433FM-12+071099999V020999999999999999999999999999+99999+99999999999REMSYN04001036 26/// /1504 11085 2//// 333 60005=
0049010360999992016012103004+69567+020433FM-12+071099999V020999999999999999999999999999+99999+99999999999REMSYN04001036 26/// /1604 11083 2//// 333 60005=
0049010360999992016012104004+69567+020433FM-12+071099999V020999999999999999999999999999+99999+99999999999REMSYN04001036 26/// /1503 11079 2//// 333 60005=
0049010360999992016012105004+69567+020433FM-12+071099999V020999999999999999999999999999+99999+99999999999REMSYN04001036 26/// /1703 11080 2//// 333 60005=
0119010360999992016012106004+69567+020433FM-12+071099999V0201601N004019999999N999999999-00811+99999999999ADDAA112000091AA224000091KA1240N-01021OD139900501999REMSYN05801036 16/// /1604 11081 2//// 60002 333 21102 70000 91105=
0049010360999992016012107004+69567+020433FM-12+071099999V020999999999999999999999999999+99999+99999999999REMSYN04001036 26/// /1603 11081 2//// 333 60005=
0049010360999992016012108004+69567+020433FM-12+071099999V020999999999999999999999999999+99999+99999999999REMSYN04001036 26/// /1504 11083 2//// 333 60005=
0067010360999992016012109004+69574+020425FM-12+070099999V0201681N0045199999999999999999-00801+99999999999ADDAA101999999KA1010M-00741KA2010N-00861OD130100601167REMSYN004BUFR
0049010360999992016012110004+69567+020433FM-12+071099999V020999999999999999999999999999+99999+99999999999REMSYN04001036 26/// /1504 11079 2//// 333 60005=
0049010360999992016012111004+69567+020433FM-12+071099999V020999999999999999999999999999+99999+99999999999REMSYN04001036 26/// /1604 11081 2//// 333 60005=
0083010360999992016012112004+69567+020433FM-12+071099999V0201601N004019999999N999999999-00801+99999999999ADDAA106000091OD139900601999REMSYN04601036 16/// /1604 11080 2//// 60001 333 91106=
0067010360999992016012113004+69574+020425FM-12+070099999V0201621N0039199999999999999999-00781+99999999999ADDAA101999999KA1010M-00751KA2010N-00811OD130100541181REMSYN004BUFR
0049010360999992016012114004+69567+020433FM-12+071099999V020999999999999999999999999999+99999+99999999999REMSYN04001036 26/// /1705 11076 2//// 333 60005=
0067010360999992016012115004+69574+020425FM-12+070099999V0201731N0052199999999999999999-00731+99999999999ADDAA101999999KA1010M-00711KA2010N-00761OD130100661175REMSYN004BUFR
0067010360999992016012116004+69574+020425FM-12+070099999V0201751N0059199999999999999999-00721+99999999999ADDAA101999999KA1010M-00711KA2010N-00741OD130100821177REMSYN004BUFR
0049010360999992016012117004+69567+020433FM-12+071099999V020999999999999999999999999999+99999+99999999999REMSYN04001036 26/// /1705 11070 2//// 333 60005=
0102010360999992016012118004+69567+020433FM-12+071099999V0201801N005019999999N999999999-00671+99999999999ADDAA112000091KA1120M-00611OD139900801999REMSYN05201036 16/// /1805 11067 2//// 60002 333 11061 91108=
0049010360999992016012119004+69567+020433FM-12+071099999V020999999999999999999999999999+99999+99999999999REMSYN04001036 26/// /1803 11064 2//// 333 60005=
0049010360999992016012120004+69567+020433FM-12+071099999V020999999999999999999999999999+99999+99999999999REMSYN04001036 26/// /1904 11060 2//// 333 60005=
0049010360999992016012121004+69567+020433FM-12+071099999V020999999999999999999999999999+99999+99999999999REMSYN04001036 26/// /2005 11061 2//// 333 60005=
0049010360999992016012122004+69567+020433FM-12+071099999V020999999999999999999999999999+99999+99999999999REMSYN04001036 26/// /1905 11056 2//// 333 60005=
0049010360999992016012123004+69567+020433FM-12+071099999V020999999999999999999999999999+99999+99999999999REMSYN04001036 26/// /2005 11052 2//// 333 60005=
0078010360999992016012200004+69574+020425FM-12+070099999V0201861N0052199999999999999999-00471+99999999999ADDAA101999999AA206999999KA1010M-00451KA2010N-00511OD130600981175REMSYN004BUFR
0049010360999992016012201004+69567+020433FM-12+071099999V020999999999999999999999999999+99999+99999999999REMSYN04001036 26/// /2005 11047 2//// 333 60005=
0067010360999992016012202004+69574+020425FM-12+070099999V0201841N0051199999999999999999-00471+99999999999ADDAA101999999KA1010M-00461KA2010N-00491OD130100761169REMSYN004BUFR
0067010360999992016012203004+69574+020425FM-12+070099999V0201921N0048199999999999999999-00451+99999999999ADDAA101999999KA1010M-00451KA2010N-00471OD130100811171REMSYN004BUFR
0067010360999992016012204004+69574+020425FM-12+070099999V0202001N0043199999999999999999-00431+99999999999ADDAA101999999KA1010M-00421KA2010N-00451OD130100771227REMSYN004BUFR
0067010360999992016012205004+69574+020425FM-12+070099999V0202021N0050199999999999999999-00411+99999999999ADDAA101999999KA1010M-00391KA2010N-00431OD130100831215REMSYN004BUFR
0089010360999992016012206004+69574+020425FM-12+070099999V0202061N0065199999999999999999-00371+99999999999ADDAA101999999AA212999999AA324999999KA1120M-00351KA2120N-00661OD130600981212REMSYN004BUFR
0067010360999992016012207004+69574+020425FM-12+070099999V0202031N0057199999999999999999-00321+99999999999ADDAA101999999KA1010M-00301KA2010N-00361OD130100961209REMSYN004BUFR
0049010360999992016012208004+69567+020433FM-12+071099999V020999999999999999999999999999+99999+99999999999REMSYN04001036 26/// /2006 11028 2//// 333 69915=
0067010360999992016012209004+69574+020425FM-12+070099999V0202011N0061199999999999999999-00241+99999999999ADDAA101999999KA1010M-00221KA2010N-00281OD130101121207REMSYN004BUFR
0049010360999992016012210004+69567+020433FM-12+071099999V020999999999999999999999999999+99999+99999999999REMSYN04001036 26/// /2007 11021 2//// 333 60005=
0049010360999992016012211004+69567+020433FM-12+071099999V020999999999999999999999999999+99999+99999999999REMSYN04001036 26/// /2006 11018 2//// 333 60005=
0083010360999992016012212004+69567+020433FM-12+071099999V0202001N007019999999N999999999-00161+99999999999ADDAA106000131OD139901201999REMSYN04601036 16/// /2007 11016 2//// 69911 333 91112=
0049010360999992016012213004+69567+020433FM-12+071099999V020999999999999999999999999999+99999+99999999999REMSYN04001036 26/// /2106 11015 2//// 333 60005=
0049010360999992016012214004+69567+020433FM-12+071099999V020999999999999999999999999999+99999+99999999999REMSYN04001036 26/// /2106 11015 2//// 333 60005=
0067010360999992016012215004+69574+020425FM-12+070099999V0201941N0041199999999999999999-00191+99999999999ADDAA101000231KA1010M-00171KA2010N-00211OD130100761203REMSYN004BUFR
0067010360999992016012216004+69574+020425FM-12+070099999V0201951N0052199999999999999999-00201+99999999999ADDAA101000231KA1010M-00191KA2010N-00221OD130100721206REMSYN004BUFR
0067010360999992016012217004+69574+020425FM-12+070099999V0201961N0048199999999999999999-00191+99999999999ADDAA101000131KA1010M-00181KA2010N-00221OD130100741201REMSYN004BUFR
0078010360999992016012218004+69574+020425FM-12+070099999V0202001N0061199999999999999999-00181+99999999999ADDAA101000131AA212000731KA1120M-00121KA2120N-00361OD130600961218REMSYN004BUFR
0067010360999992016012219004+69574+020425FM-12+070099999V0201961N0042199999999999999999-00191+99999999999ADDAA101000131KA1010M-00181KA2010N-00211OD130100671218REMSYN004BUFR
0049010360999992016012220004+69567+020433FM-12+071099999V020999999999999999999999999999+99999+99999999999REMSYN04001036 26/// /2004 11017 2//// 333 60005=
0067010360999992016012221004+69574+020425FM-12+070099999V0202011N0051199999999999999999-00141+99999999999ADDAA101999999KA1010M-00131KA2010N-00161OD130100711215REMSYN004BUFR
0049010360999992016012222004+69567+020433FM-12+071099999V020999999999999999999999999999+99999+99999999999REMSYN04001036 26/// /1903 11014 2//// 333 60005=
0049010360999992016012223004+69567+020433FM-12+071099999V020999999999999999999999999999+99999+99999999999REMSYN04001036 26/// /1805 11013 2//// 333 60005=
0083010360999992016012300004+69567+020433FM-12+071099999V0201801N005019999999N999999999-00151+99999999999ADDAA106000131OD139900901999REMSYN04601036 16/// /1805 11015 2//// 69911 333 91109=
0067010360999992016012301004+69574+020425FM-12+070099999V0201821N0048199999999999999999-00161+99999999999ADDAA101999999KA1010M-00161KA2010N-00181OD130100841174REMSYN004BUFR
0067010360999992016012302004+69574+020425FM-12+070099999V0201791N0044199999999999999999-00171+99999999999ADDAA101999999KA1010M-00151KA2010N-00191OD130100741171REMSYN004BUFR
0067010360999992016012303004+69574+020425FM-12+070099999V0201851N0033199999999999999999-00171+99999999999ADDAA101999999KA1010M-00161KA2010N-00191OD130100741176REMSYN004BUFR
0067010360999992016012304004+69574+020425FM-12+070099999V0201611N0032199999999999999999-00201+99999999999ADDAA101999999KA1010M-00181KA2010N-00241OD130100531172REMSYN004BUFR
0053010360999992016012305004+69574+020425FM-12+070099999V0201331N0028199999999999999999-00261+99999999999ADDAA101999999KA1010M-00221KA2010N-00321REMSYN004BUFR
0089010360999992016012306004+69574+020425FM-12+070099999V0201231N0031199999999999999999-00271+99999999999ADDAA101999999AA212000131AA324000831KA1120M-00101KA2120N-00331OD130600841174REMSYN004BUFR
0049010360999992016012307004+69567+020433FM-12+071099999V020999999999999999999999999999+99999+99999999999REMSYN04001036 26/// /1103 11030 2//// 333 60005=
0049010360999992016012308004+69567+020433FM-12+071099999V020999999999999999999999999999+99999+99999999999REMSYN04001036 26/// /1204 11029 2//// 333 60005=
0067010360999992016012309004+69574+020425FM-12+070099999V0201211N0057199999999999999999-00301+99999999999ADDAA101999999KA1010M-00261KA2010N-00371OD130100651118REMSYN004BUFR
0067010360999992016012310004+69574+020425FM-12+070099999V0201211N0063199999999999999999-00251+99999999999ADDAA101999999KA1010M-00211KA2010N-00301OD130100681125REMSYN004BUFR
0049010360999992016012311004+69567+020433FM-12+071099999V020999999999999999999999999999+99999+99999999999REMSYN04001036 26/// /1306 11022 2//// 333 60005=
0083010360999992016012312004+69567+020433FM-12+071099999V0201201N007019999999N999999999-00251+99999999999ADDAA106000091OD139900901999REMSYN04601036 16/// /1207 11025 2//// 60001 333 91109=
0049010360999992016012313004+69567+020433FM-12+071099999V020999999999999999999999999999+99999+99999999999REMSYN04001036 26/// /1107 11029 2//// 333 60005=
0067010360999992016012314004+69574+020425FM-12+070099999V0201131N0082199999999999999999-00271+99999999999ADDAA101999999KA1010M-00251KA2010N-00301OD130100931106REMSYN004BUFR
0067010360999992016012315004+69574+020425FM-12+070099999V0201251N0068199999999999999999-00271+99999999999ADDAA101999999KA1010M-00221KA2010N-00331OD130100841111REMSYN004BUFR
0049010360999992016012316004+69567+020433FM-12+071099999V020999999999999999999999999999+99999+99999999999REMSYN04001036 26/// /1207 11028 2//// 333 60005=
0067010360999992016012317004+69574+020425FM-12+070099999V0201261N0053199999999999999999-00321+99999999999ADDAA101999999KA1010M-00281KA2010N-00381OD130100741124REMSYN004BUFR
0102010360999992016012318004+69567+020433FM-12+071099999V0201201N005019999999N999999999-00331+99999999999ADDAA112000091KA1120M-00161OD139900901999REMSYN05201036 16/// /1205 11033 2//// 60002 333 11016 91109=
0067010360999992016012319004+69574+020425FM-12+070099999V0201121N0072199999999999999999-00341+99999999999ADDAA101999999KA1010M-00241KA2010N-00411OD130100861114REMSYN004BUFR
0067010360999992016012320004+69574+020425FM-12+070099999V0201241N0059199999999999999999-00381+99999999999ADDAA101999999KA1010M-00301KA2010N-00441OD130100851119REMSYN004BUFR
0049010360999992016012321004+69567+020433FM-12+071099999V020999999999999999999999999999+99999+99999999999REMSYN04001036 26/// /1206 11033 2//// 333 60005=
0049010360999992016012322004+69567+020433FM-12+071099999V020999999999999999999999999999+99999+99999999999REMSYN04001036 26/// /1206 11036 2//// 333 60005=
0049010360999992016012323004+69567+020433FM-12+071099999V020999999999999999999999999999+99999+99999999999REMSYN04001036 26/// /1204 11034 2//// 333 60005=
0078010360999992016012400004+69574+020425FM-12+070099999V0201201N0023199999999999999999-00311+99999999999ADDAA101999999AA206999999KA1010M-00261KA2010N-00371OD130600861114REMSYN004BUFR
0067010360999992016012401004+69574+020425FM-12+070099999V0201211N0034199999999999999999-00351+99999999999ADDAA101999999KA1010M-00311KA2010N-00401OD130100541126REMSYN004BUFR
0049010360999992016012402004+69567+020433FM-12+071099999V020999999999999999999999999999+99999+99999999999REMSYN04001036 26/// /1501 11039 2//// 333 60005=
0053010360999992016012403004+69574+020425FM-12+070099999V0201261N0035199999999999999999-00361+99999999999ADDAA101999999KA1010M-00311KA2010N-00411REMSYN004BUFR
0049010360999992016012404004+69567+020433FM-12+071099999V020999999999999999999999999999+99999+99999999999REMSYN04001036 26/// /1303 11035 2//// 333 60005=
0049010360999992016012405004+69567+020433FM-12+071099999V020999999999999999999999999999+99999+99999999999REMSYN04001036 26/// /1204 11033 2//// 333 60005=
0089010360999992016012406004+69574+020425FM-12+070099999V0201181N0028199999999999999999-00321+99999999999ADDAA101999999AA212999999AA324999999KA1120M-00241KA2120N-00451OD130600561106REMSYN004BUFR
0049010360999992016012407004+69567+020433FM-12+071099999V020999999999999999999999999999+99999+99999999999REMSYN04001036 26/// /1302 11033 2//// 333 60005=
0049010360999992016012408004+69567+020433FM-12+071099999V020999999999999999999999999999+99999+99999999999REMSYN04001036 26/// /1403 11038 2//// 333 60005=
0053010360999992016012409004+69574+020425FM-12+070099999V0201391N0019199999999999999999-00381+99999999999ADDAA101999999KA1010M-00351KA2010N-00411REMSYN004BUFR
0049010360999992016012410004+69567+020433FM-12+071099999V020999999999999999999999999999+99999+99999999999REMSYN04001036 26/// /1302 11040 2//// 333 60005=
0049010360999992016012411004+69567+020433FM-12+071099999V020999999999999999999999999999+99999+99999999999REMSYN04001036 26/// /1302 11045 2//// 333 60005=
0078010360999992016012412004+69574+020425FM-12+070099999V0201351N0022199999999999999999-00441+99999999999ADDAA101999999AA206999999KA1010M-00411KA2010N-00491OD130600571123REMSYN004BUFR
0067010360999992016012413004+69574+020425FM-12+070099999V0201461N0023199999999999999999-00451+99999999999ADDAA101999999KA1010M-00391KA2010N-00511OD130100541113REMSYN004BUFR
0053010360999992016012414004+69574+020425FM-12+070099999V0201481N0020199999999999999999-00421+99999999999ADDAA101999999KA1010M-00381KA2010N-00491REMSYN004BUFR
0053010360999992016012415004+69574+020425FM-12+070099999V0201721N0023199999999999999999-00401+99999999999ADDAA101999999KA1010M-00341KA2010N-00451REMSYN004BUFR
0049010360999992016012416004+69567+020433FM-12+071099999V020999999999999999999999999999+99999+99999999999REMSYN04001036 26/// /1603 11038 2//// 333 60005=
0053010360999992016012417004+69574+020425FM-12+070099999V0201631N0022199999999999999999-00361+99999999999ADDAA101999999KA1010M-00351KA2010N-00381REMSYN004BUFR
0102010360999992016012418004+69567+020433FM-12+071099999V0201501N002019999999N999999999-00341+99999999999ADDAA112000131KA1120M-00251OD139900501999REMSYN05201036 16/// /1502 11034 2//// 69912 333 11025 91105=
0049010360999992016012419004+69567+020433FM-12+071099999V020999999999999999999999999999+99999+99999999999REMSYN04001036 26/// /1604 11032 2//// 333 69935=
0049010360999992016012420004+69567+020433FM-12+071099999V020999999999999999999999999999+99999+99999999999REMSYN04001036 26/// /1604 11029 2//// 333 69925=
0067010360999992016012421004+69574+020425FM-12+070099999V0201721N0037199999999999999999-00261+99999999999ADDAA101000131KA1010M-00241KA2010N-00291OD130100591176REMSYN004BUFR
0067010360999992016012422004+69574+020425FM-12+070099999V0201761N0034199999999999999999-00261+99999999999ADDAA101999999KA1010M-00241KA2010N-00281OD130100561174REMSYN004BUFR
0049010360999992016012423004+69567+020433FM-12+071099999V020999999999999999999999999999+99999+99999999999REMSYN04001036 26/// /1703 11026 2//// 333 60005=
0083010360999992016012500004+69567+020433FM-12+071099999V0201701N003019999999N999999999-00251+99999999999ADDAA106000631OD139900601999REMSYN04601036 16/// /1703 11025 2//// 69961 333 91106=
0067010360999992016012501004+69574+020425FM-12+070099999V0201771N0035199999999999999999-00241+99999999999ADDAA101999999KA1010M-00221KA2010N-00271OD130100521175REMSYN004BUFR
0049010360999992016012502004+69567+020433FM-12+071099999V020999999999999999999999999999+99999+99999999999REMSYN04001036 26/// /1803 11024 2//// 333 69915=
0067010360999992016012503004+69574+020425FM-12+070099999V0201831N0031199999999999999999-00231+99999999999ADDAA101000131KA1010M-00211KA2010N-00261OD130100551184REMSYN004BUFR
0049010360999992016012504004+69567+020433FM-12+071099999V020999999999999999999999999999+99999+99999999999REMSYN04001036 26/// /1803 11022 2//// 333 69915=
0049010360999992016012505004+69567+020433FM-12+071099999V020999999999999999999999999999+99999+99999999999REMSYN04001036 26/// /1903 11020 2//// 333 60005=
0119010360999992016012506004+69567+020433FM-12+071099999V0202101N002019999999N999999999-00201+99999999999ADDAA112000931AA224001031KA1240N-00341OD139900701999REMSYN05801036 16/// /2102 11020 2//// 69992 333 21034 70010 91107=
0049010360999992016012507004+69567+020433FM-12+071099999V020999999999999999999999999999+99999+99999999999REMSYN04001036 26/// /1803 11020 2//// 333 60005=
0049010360999992016012508004+69567+020433FM-12+071099999V020999999999999999999999999999+99999+99999999999REMSYN04001036 26/// /1804 11021 2//// 333 60005=
0067010360999992016012509004+69574+020425FM-12+070099999V0201861N0029199999999999999999-00201+99999999999ADDAA101999999KA1010M-00191KA2010N-00211OD130100601184REMSYN004BUFR
0067010360999992016012510004+69574+020425FM-12+070099999V0201941N0027199999999999999999-00191+99999999999ADDAA101999999KA1010M-00181KA2010N-00211OD130100541181REMSYN004BUFR
0049010360999992016012511004+69567+020433FM-12+071099999V020999999999999999999999999999+99999+99999999999REMSYN04001036 26/// /1902 11020 2//// 333 69915=
0083010360999992016012512004+69567+020433FM-12+071099999V0201801N002019999999N999999999-00201+99999999999ADDAA106000131OD139900701999REMSYN04601036 16/// /1802 11020 2//// 69911 333 91107=
0049010360999992016012513004+69567+020433FM-12+071099999V020999999999999999999999999999+99999+99999999999REMSYN04001036 26/// /1703 11022 2//// 333 60005=
0049010360999992016012514004+69567+020433FM-12+071099999V020999999999999999999999999999+99999+99999999999REMSYN04001036 26/// /1803 11023 2//// 333 60005=
0067010360999992016012515004+69574+020425FM-12+070099999V0201741N0039199999999999999999-00221+99999999999ADDAA101999999KA1010M-00211KA2010N-00231OD130100521170REMSYN004BUFR
0053010360999992016012516004+69574+020425FM-12+070099999V0201611N0032199999999999999999-00241+99999999999ADDAA101999999KA1010M-00211KA2010N-00271REMSYN004BUFR
0053010360999992016012517004+69574+020425FM-12+070099999V0201511N0029199999999999999999-00291+99999999999ADDAA101999999KA1010M-00261KA2010N-00341REMSYN004BUFR
0102010360999992016012518004+69567+020433FM-12+071099999V0201201N004019999999N999999999-00321+99999999999ADDAA112000131KA1120M-00181OD139900501999REMSYN05201036 16/// /1204 11032 2//// 69912 333 11018 91105=
0067010360999992016012519004+69574+020425FM-12+070099999V0201161N0055199999999999999999-00311+99999999999ADDAA101999999KA1010M-00281KA2010N-00351OD130100601115REMSYN004BUFR
0067010360999992016012520004+69574+020425FM-12+070099999V0201101N0046199999999999999999-00331+99999999999ADDAA101999999KA1010M-00291KA2010N-00411OD130100681115REMSYN004BUFR
0049010360999992016012521004+69567+020433FM-12+071099999V020999999999999999999999999999+99999+99999999999REMSYN04001036 26/// /1206 11030 2//// 333 60005=
0067010360999992016012522004+69574+020425FM-12+070099999V0201061N0076199999999999999999-00391+99999999999ADDAA101999999KA1010M-00281KA2010N-00541OD130100911115REMSYN004BUFR
0049010360999992016012523004+69567+020433FM-12+071099999V020999999999999999999999999999+99999+99999999999REMSYN04001036 26/// /1109 11048 2//// 333 60005=
0078010360999992016012600004+69574+020425FM-12+070099999V0201451N0031199999999999999999-00461+99999999999ADDAA101999999AA206999999KA1010M-00401KA2010N-00541OD130601021111REMSYN004BUFR
0049010360999992016012601004+69567+020433FM-12+071099999V020999999999999999999999999999+99999+99999999999REMSYN04001036 26/// /1306 11052 2//// 333 60005=
0067010360999992016012602004+69574+020425FM-12+070099999V0201101N0095199999999999999999-00581+99999999999ADDAA101999999KA1010M-00501KA2010N-00661OD130101221116REMSYN004BUFR
0067010360999992016012603004+69574+020425FM-12+070099999V0201141N0108199999999999999999-00641+99999999999ADDAA101999999KA1010M-00581KA2010N-00741OD130101331110REMSYN004BUFR
0067010360999992016012604004+69574+020425FM-12+070099999V0201261N0059199999999999999999-00731+99999999999ADDAA101999999KA1010M-00681KA2010N-00811OD130101301107REMSYN004BUFR
