0113010330999992016010100004+70250+019500FM-12+002499999V0201401N011019999999N999999999+00811-00251101021ADDMA1999999100711MD1310021+9999OD139901701999REMSYN05801033 46/// /1411 10081 21025 30071 40102 53002 333 91117=
0089010330999992016010101004+70250+019500FM-12+002499999V0201501N011019999999N999999999+00831-00311101041ADDMA1999999100731MD1310081+9999REMSYN04801033 46/// /1511 10083 21031 30073 40104 53008=
0093010330999992016010102004+70245+019500FM-12+002199999V0201571N0098199999999999999999+00841-00331101021ADDKA1010M+00871KA2010N+00781MA1999999100711MD1010081+9999OC101291OD130101401999REMSYN004BUFR
0093010330999992016010103004+70245+019500FM-12+002199999V0201501N0120199999999999999999+00771-00321101081ADDKA1010M+00881KA2010N+00771MA1999999100771MD1310051+9999OC101561OD130101611999REMSYN004BUFR
0093010330999992016010104004+70245+019500FM-12+002199999V0201861N0089199999999999999999+00741-00191101171ADDKA1010M+00801KA2010N+00701MA1999999100861MD1310141+9999OC101281OD130101631999REMSYN004BUFR
0093010330999992016010105004+70245+019500FM-12+002199999V0202051N0114199999999999999999+00921-00691101301ADDKA1010M+00951KA2010N+00741MA1999999101001MD1310281+9999OC101591OD130101661999REMSYN004BUFR
0093010330999992016010106004+70245+019500FM-12+002199999V0202031N0100199999999999999999+00841-00611101401ADDKA1120M+00961KA2120N+00611MA1999999101091MD1310331+9999OC101401OD130601691999REMSYN004BUFR
0093010330999992016010107004+70245+019500FM-12+002199999V0202151N0089199999999999999999+00701-00181101461ADDKA1010M+00841KA2010N+00711MA1999999101151MD1310281+9999OC101181OD130101431999REMSYN004BUFR
0093010330999992016010108004+70245+019500FM-12+002199999V0202111N0047199999999999999999+00671-00191101551ADDKA1010M+00721KA2010N+00671MA1999999101241MD1310251+9999OC100771OD130100771999REMSYN004BUFR
0089010330999992016010109004+70250+019500FM-12+002499999V0201401N005019999999N999999999+00691-00371101581ADDMA1999999101271MD1110181+9999REMSYN04801033 46/// /1405 10069 21037 30127 40158 51018=
0089010330999992016010110004+70250+019500FM-12+002499999V0201401N008019999999N999999999+00621-00261101611ADDMA1999999101301MD1110151+9999REMSYN04801033 46/// /1408 10062 21026 30130 40161 51015=
0093010330999992016010111004+70245+019500FM-12+002199999V0201521N0068199999999999999999+00601-00191101701ADDKA1010M+00631KA2010N+00611MA1999999101391MD1310151+9999OC100881OD130101021999REMSYN004BUFR
0093010330999992016010112004+70245+019500FM-12+002199999V0201761N0045199999999999999999+00571-00101101771ADDKA1010M+00611KA2010N+00571MA1999999101461MD1310191+9999OC100731OD130601431999REMSYN004BUFR
0089010330999992016010113004+70250+019500FM-12+002499999V0201601N006019999999N999999999+00601-00201101791ADDMA1999999101481MD1110181+9999REMSYN04801033 46/// /1606 10060 21020 30148 40179 51018=
0093010330999992016010114004+70245+019500FM-12+002199999V0201481N0098199999999999999999+00591-00191101781ADDKA1010M+00651KA2010N+00591MA1999999101471MD1010071+9999OC101301OD130101301999REMSYN004BUFR
0093010330999992016010115004+70245+019500FM-12+002199999V0201531N0114199999999999999999+00571-00181101791ADDKA1010M+00611KA2010N+00571MA1999999101481MD1210021+9999OC101361OD130101361999REMSYN004BUFR
0093010330999992016010116004+70245+019500FM-12+002199999V0201411N0075199999999999999999+00641-00251101801ADDKA1010M+00661KA2010N+00561MA1999999101491MD1310011+9999OC101001OD130101361999REMSYN004BUFR
0093010330999992016010117004+70245+019500FM-12+002199999V0201551N0077199999999999999999+00541-00191101961ADDKA1010M+00641KA2010N+00551MA1999999101651MD1310191+9999OC100931OD130101131999REMSYN004BUFR
0093010330999992016010118004+70245+019500FM-12+002199999V0201531N0065199999999999999999+00591-00211102061ADDKA1120M+00841KA2120N+00511MA1999999101751MD1310271+9999OC100931OD130601361999REMSYN004BUFR
0089010330999992016010119004+70250+019500FM-12+002499999V0201801N006019999999N999999999+00571-00181102161ADDMA1999999101851MD1110351+9999REMSYN04801033 46/// /1806 10057 21018 30185 40216 51035=
0089010330999992016010120004+70250+019500FM-12+002499999V0201501N009019999999N999999999+00631-00341102211ADDMA1999999101901MD1110251+9999REMSYN04801033 46/// /1509 10063 21034 30190 40221 51025=
0093010330999992016010121004+70245+019500FM-12+002199999V0201531N0099199999999999999999+00551-00131102291ADDKA1010M+00641KA2010N+00541MA1999999101981MD1310231+9999OC101261OD130101511999REMSYN004BUFR
0093010330999992016010122004+70245+019500FM-12+002199999V0201571N0101199999999999999999+00541-00121102391ADDKA1010M+00561KA2010N+00541MA1999999102081MD1310231+9999OC101301OD130101301999REMSYN004BUFR
0093010330999992016010123004+70245+019500FM-12+002199999V0201651N0087199999999999999999+00691-00381102441ADDKA1010M+00711KA2010N+00541MA1999999102131MD1010231+9999OC101681OD130101681999REMSYN004BUFR
0113010330999992016010200004+70250+019500FM-12+002499999V0201701N006019999999N999999999+00741-00331102571ADDMA1999999102261MD1310281+9999OD139901701999REMSYN05801033 46/// /1706 10074 21033 30226 40257 53028 333 91117=
0093010330999992016010201004+70245+019500FM-12+002199999V0201481N0054199999999999999999+00691-00301102631ADDKA1010M+00741KA2010N+00691MA1999999102321MD1210241+9999OC101241OD130101471999REMSYN004BUFR
0093010330999992016010202004+70245+019500FM-12+002199999V0201641N0064199999999999999999+00671-00301102741ADDKA1010M+00711KA2010N+00651MA1999999102431MD1110301+9999OC101111OD130101111999REMSYN004BUFR
0093010330999992016010203004+70245+019500FM-12+002199999V0201601N0062199999999999999999+00591-00251102841ADDKA1010M+00661KA2010N+00571MA1999999102531MD1310271+9999OC100981OD130101181999REMSYN004BUFR
0093010330999992016010204004+70245+019500FM-12+002199999V0201541N0074199999999999999999+00571-00161102921ADDKA1010M+00611KA2010N+00571MA1999999102611MD1110291+9999OC101071OD130101101999REMSYN004BUFR
0089010330999992016010205004+70250+019500FM-12+002499999V0201501N008019999999N999999999+00551-00161103011ADDMA1999999102691MD1210261+9999REMSYN04801033 46/// /1508 10055 21016 30269 40301 52026=
0093010330999992016010206004+70245+019500FM-12+002199999V0201511N0068199999999999999999+00541-00231103101ADDKA1120M+00741KA2120N+00511MA1999999102781MD1310261+9999OC100851OD130601471999REMSYN004BUFR
0093010330999992016010207004+70245+019500FM-12+002199999V0201761N0052199999999999999999+00491-00091103151ADDKA1010M+00561KA2010N+00491MA1999999102831MD1110231+9999OC100881OD130101031999REMSYN004BUFR
0093010330999992016010208004+70245+019500FM-12+002199999V0201501N0088199999999999999999+00521-00191103211ADDKA1010M+00561KA2010N+00501MA1999999102891MD1110201+9999OC101101OD130101101999REMSYN004BUFR
0093010330999992016010209004+70245+019500FM-12+002199999V0201481N0078199999999999999999+00521-00201103321ADDKA1010M+00531KA2010N+00461MA1999999103001MD1310221+9999OC100991OD130100991999REMSYN004BUFR
0089010330999992016010210004+70250+019500FM-12+002499999V0201701N005019999999N999999999+00581-00281103351ADDMA1999999103031MD1110201+9999REMSYN04801033 46/// /1705 10058 21028 30303 40335 51020=
0093010330999992016010211004+70245+019500FM-12+002199999V0201461N0058199999999999999999+00571-00311103381ADDKA1010M+00591KA2010N+00531MA1999999103061MD1110171+9999OC100971OD130100971999REMSYN004BUFR
0093010330999992016010212004+70245+019500FM-12+002199999V0201621N0050199999999999999999+00491-00191103431ADDKA1010M+00581KA2010N+00491MA1999999103111MD1310111+9999OC100661OD130601101999REMSYN004BUFR
0089010330999992016010213004+70250+019500FM-12+002499999V0201801N004019999999N999999999+00501-00211103431ADDMA1999999103111MD1210091+9999REMSYN04801033 46/// /1804 10050 21021 30311 40343 52009=
0089010330999992016010214004+70250+019500FM-12+002499999V0201701N004019999999N999999999+00451-00191103441ADDMA1999999103121MD1110061+9999REMSYN04801033 46/// /1704 10045 21019 30312 40344 51006=
0104010330999992016010215004+70245+019500FM-12+002199999V0201591N0028199999999999999999+00391-00191103431ADDKA1010M+00471KA2010N+00381MA1999999103111MD1410009+9999OD130100651999REMSYN004BUFREQDQ01.1    3APC3  
0093010330999992016010216004+70245+019500FM-12+002199999V0201611N0056199999999999999999+00391-00221103371ADDKA1010M+00411KA2010N+00361MA1999999103051MD1810061+9999OC100761OD130100761999REMSYN004BUFR
0085010330999992016010217004+70245+019500FM-12+002199999V0203391N0008199999999999999999+00371-00431103311ADDKA1010M+00401KA2010N+00361MA1999999102991MD1810131+9999OD130100741999REMSYN004BUFR
0132010330999992016010218004+70250+019500FM-12+002499999V0201401N002019999999N999999999+00321-00281103251ADDKA1120M+00591MA1999999102931MD1710181+9999OD139900901999REMSYN06401033 46/// /1402 10032 21028 30293 40325 57018 333 10059 91109=
0089010330999992016010219004+70250+019500FM-12+002499999V0200601N001019999999N999999999+00311-00311103231ADDMA1999999102911MD1710141+9999REMSYN04801033 46/// /0601 10031 21031 30291 40323 57014=
0093010330999992016010220004+70245+019500FM-12+002199999V0201481N0053199999999999999999+00341-00151103191ADDKA1010M+00371KA2010N+00311MA1999999102871MD1810121+9999OC100771OD130101001999REMSYN004BUFR
0093010330999992016010221004+70245+019500FM-12+002199999V0201511N0041199999999999999999+00341-00201103161ADDKA1010M+00401KA2010N+00341MA1999999102841MD1510091+9999OC100591OD130100811999REMSYN004BUFR
0093010330999992016010222004+70245+019500FM-12+002199999V0201471N0046199999999999999999+00291-00221103171ADDKA1010M+00351KA2010N+00301MA1999999102851MD1510061+9999OC100601OD130100761999REMSYN004BUFR
0071010330999992016010223004+70245+019500FM-12+002199999V0201801N0024199999999999999999+00271-00211103161ADDKA1010M+00301KA2010N+00271MA1999999102841MD1510031+9999REMSYN004BUFR
0113010330999992016010300004+70250+019500FM-12+002499999V0201301N002019999999N999999999+00211-00241103151ADDMA1999999102831MD1810011+9999OD139901001999REMSYN05801033 46/// /1302 10021 21024 30283 40315 58001 333 91110=
0071010330999992016010301004+70245+019500FM-12+002199999V0201501N0037199999999999999999+00201-00221103141ADDKA1010M+00241KA2010N+00211MA1999999102821MD1710031+9999REMSYN004BUFR
0093010330999992016010302004+70245+019500FM-12+002199999V0201651N0035199999999999999999+00191-00271103101ADDKA1010M+00241KA2010N+00201MA1999999102781MD1810061+9999OC100531OD130101741999REMSYN004BUFR
0085010330999992016010303004+70245+019500FM-12+002199999V0201481N0012199999999999999999+00141-00331103061ADDKA1010M+00211KA2010N+00151MA1999999102741MD1810091+9999OD130100521999REMSYN004BUFR
0089010330999992016010304004+70250+019500FM-12+002499999V0209999C999999999999N999999999+00141-00271103011ADDMA1999999102691MD1810131+9999REMSYN04801033 46/// /0000 10014 21027 30269 40301 58013=
0089010330999992016010305004+70250+019500FM-12+002499999V0201801N001019999999N999999999+00111-00281102951ADDMA1999999102631MD1810151+9999REMSYN04801033 46/// /1801 10011 21028 30263 40295 58015=
0085010330999992016010306004+70245+019500FM-12+002199999V0201591N0024199999999999999999+00121-00261102911ADDKA1120M+00401KA2120N+00101MA1999999102591MD1710161+9999OD130601741999REMSYN004BUFR
0093010330999992016010307004+70245+019500FM-12+002199999V0201591N0056199999999999999999+00141-00241102821ADDKA1010M+00151KA2010N+00121MA1999999102501MD1810181+9999OC100731OD130100801999REMSYN004BUFR
0093010330999992016010308004+70245+019500FM-12+002199999V0201641N0036199999999999999999+00101-00271102801ADDKA1010M+00141KA2010N+00111MA1999999102481MD1610151+9999OC100551OD130100641999REMSYN004BUFR
0093010330999992016010309004+70245+019500FM-12+002199999V0201541N0046199999999999999999+00091-00331102701ADDKA1010M+00121KA2010N+00071MA1999999102381MD1810201+9999OC100681OD130100681999REMSYN004BUFR
0085010330999992016010310004+70245+019500FM-12+002199999V0201521N0032199999999999999999+00071-00361102641ADDKA1010M+00101KA2010N+00071MA1999999102321MD1810181+9999OD130100641999REMSYN004BUFR
0093010330999992016010311004+70245+019500FM-12+002199999V0201621N0038199999999999999999+00041-00441102561ADDKA1010M+00081KA2010N+00041MA1999999102241MD1710251+9999OC100551OD130100601999REMSYN004BUFR
0085010330999992016010312004+70245+019500FM-12+002199999V0201581N0023199999999999999999+00051-00421102481ADDKA1010M+00071KA2010N+00051MA1999999102161MD1810221+9999OD130600801999REMSYN004BUFR
0071010330999992016010313004+70245+019500FM-12+002199999V0201351N0022199999999999999999+00041-00461102391ADDKA1010M+00071KA2010N+00031MA1999999102071MD1810251+9999REMSYN004BUFR
0089010330999992016010314004+70250+019500FM-12+002499999V0201501N004019999999N999999999+00021-00431102311ADDMA1999999101991MD1810251+9999REMSYN04801033 46/// /1504 10002 21043 30199 40231 58025=
0093010330999992016010315004+70245+019500FM-12+002199999V0201471N0036199999999999999999+00021-00391102231ADDKA1010M+00061KA2010N+00021MA1999999101911MD1710241+9999OC100551OD130100911999REMSYN004BUFR
0093010330999992016010316004+70245+019500FM-12+002199999V0201491N0054199999999999999999+00021-00431102171ADDKA1010M+00071KA2010N+00011MA1999999101851MD1710221+9999OC100791OD130100941999REMSYN004BUFR
0089010330999992016010317004+70250+019500FM-12+002499999V0201201N003019999999N999999999+00031-00511102091ADDMA1999999101771MD1710221+9999REMSYN04801033 46/// /1203 10003 21051 30177 40209 57022=
0132010330999992016010318004+70250+019500FM-12+002499999V0201401N005019999999N999999999+00071-00391102011ADDKA1120M+00151MA1999999101691MD1710231+9999OD139900901999REMSYN06401033 46/// /1405 10007 21039 30169 40201 57023 333 10015 91109=
0089010330999992016010319004+70250+019500FM-12+002499999V0201701N006019999999N999999999+00111-00421101931ADDMA1999999101611MD1810241+9999REMSYN04801033 46/// /1706 10011 21042 30161 40193 58024=
0093010330999992016010320004+70245+019500FM-12+002199999V0201561N0099199999999999999999+00001-00571101911ADDKA1010M+00131KA2010N+00011MA1999999101591MD1610191+9999OC101391OD130101391999REMSYN004BUFR
0089010330999992016010321004+70250+019500FM-12+002499999V0201601N009019999999N999999999+00061-00761101851ADDMA1999999101531MD1810161+9999REMSYN04801033 46/// /1609 10006 21076 30153 40185 58016=
0089010330999992016010322004+70250+019500FM-12+002499999V0201501N012019999999N999999999+00061-00711101831ADDMA1999999101511MD1510101+9999REMSYN04801033 46/// /1512 10006 21071 30151 40183 55010=
0093010330999992016010323004+70245+019500FM-12+002199999V0201651N0081199999999999999999+00051-00671101801ADDKA1010M+00121KA2010N+00051MA1999999101481MD1610101+9999OC101211OD130101561999REMSYN004BUFR
0113010330999992016010400004+70250+019500FM-12+002499999V0201601N009019999999N999999999+00041-00901101781ADDMA1999999101461MD1810061+9999OD139901701999REMSYN05801033 46/// /1609 10004 21090 30146 40178 58006 333 91117=
0093010330999992016010401004+70245+019500FM-12+002199999V0201681N0084199999999999999999+00041-00841101801ADDKA1010M+00071KA2010N+00041MA1999999101481MD1510031+9999OC101351OD130101491999REMSYN004BUFR
0089010330999992016010402004+70250+019500FM-12+002499999V0201501N013019999999N999999999+00071-00891101791ADDMA1999999101471MD1710011+9999REMSYN04801033 46/// /1513 10007 21089 30147 40179 57001=
0093010330999992016010403004+70245+019500FM-12+002199999V0201771N0062199999999999999999+00021-00951101891ADDKA1010M+00081KA2010N+00031MA1999999101571MD1310101+9999OC101011OD130101641999REMSYN004BUFR
0089010330999992016010404004+70250+019500FM-12+002499999V0201701N006019999999N999999999+00061-00931101881ADDMA1999999101561MD1310081+9999REMSYN04801033 46/// /1706 10006 21093 30156 40188 53008=
0093010330999992016010405004+70245+019500FM-12+002199999V0201571N0048199999999999999999+00021-00931101911ADDKA1010M+00061KA2010N+00001MA1999999101581MD1110111+9999OC100871OD130100971999REMSYN004BUFR
0132010330999992016010406004+70250+019500FM-12+002499999V0201501N010019999999N999999999-00011-00951101891ADDKA1240N-00021MA1999999101571MD1410001+9999OD139901601999REMSYN06401033 46/// /1510 11001 21095 30157 40189 54000 333 21002 91116=
0093010330999992016010407004+70245+019500FM-12+002199999V0201501N0098199999999999999999-00021-00731101991ADDKA1010M+00011KA2010N-00041MA1999999101671MD1310111+9999OC101371OD130101461999REMSYN004BUFR
0093010330999992016010408004+70245+019500FM-12+002199999V0201531N0112199999999999999999-00071-01001101991ADDKA1010M-00011KA2010N-00081MA1999999101671MD1310081+9999OC101501OD130101501999REMSYN004BUFR
0093010330999992016010409004+70245+019500FM-12+002199999V0201571N0081199999999999999999-00121-00981102081ADDKA1010M-00071KA2010N-00131MA1999999101761MD1310191+9999OC101201OD130101421999REMSYN004BUFR
0093010330999992016010410004+70245+019500FM-12+002199999V0201711N0076199999999999999999-00101-00781102071ADDKA1010M-00081KA2010N-00131MA1999999101751MD1310081+9999OC101191OD130101191999REMSYN004BUFR
0089010330999992016010411004+70250+019500FM-12+002499999V0201601N008019999999N999999999-00131-00911102061ADDMA1999999101741MD1990081+9999REMSYN04801033 46/// /1608 11013 21091 30174 40206 50008=
0113010330999992016010412004+70250+019500FM-12+002499999V0201501N007019999999N999999999-00171-00871102081ADDMA1999999101761MD1410001+9999OD139901501999REMSYN05801033 46/// /1507 11017 21087 30176 40208 54000 333 91115=
0089010330999992016010413004+70250+019500FM-12+002499999V0201601N007019999999N999999999-00201-00811102071ADDMA1999999101751MD1990011+9999REMSYN04801033 46/// /1607 11020 21081 30175 40207 50001=
0089010330999992016010414004+70250+019500FM-12+002499999V0201501N009019999999N999999999-00221-00771102101ADDMA1999999101781MD1210031+9999REMSYN04801033 46/// /1509 11022 21077 30178 40210 52003=
0089010330999992016010415004+70250+019500FM-12+002499999V0201501N012019999999N999999999-00231-00861102061ADDMA1999999101741MD1810011+9999REMSYN04801033 46/// /1512 11023 21086 30174 40206 58001=
0089010330999992016010416004+70250+019500FM-12+002499999V0201601N011019999999N999999999-00241-00861102071ADDMA1999999101751MD1990011+9999REMSYN04801033 46/// /1611 11024 21086 30175 40207 50001=
0089010330999992016010417004+70250+019500FM-12+002499999V0201601N009019999999N999999999-00221-00821102101ADDMA1999999101781MD1510011+9999REMSYN04801033 46/// /1609 11022 21082 30178 40210 55001=
0132010330999992016010418004+70250+019500FM-12+002499999V0201501N008019999999N999999999-00251-00791102131ADDKA1120M+00011MA1999999101811MD1310061+9999OD139901401999REMSYN06401033 46/// /1508 11025 21079 30181 40213 53006 333 10001 91114=
0093010330999992016010419004+70245+019500FM-12+002199999V0201541N0089199999999999999999-00221-00831102131ADDKA1010M-00181KA2010N-00261MA1999999101811MD1110061+9999OC101121OD130101121999REMSYN004BUFR
0093010330999992016010420004+70245+019500FM-12+002199999V0201491N0058199999999999999999-00251-00871102141ADDKA1010M-00221KA2010N-00271MA1999999101821MD1210031+9999OC100801OD130101011999REMSYN004BUFR
0108010330999992016010421004+70250+019500FM-12+002499999V0201501N006019999999N999999999-00241-00901102131ADDMA1999999101811MD1410009+9999REMSYN04801033 46/// /1506 11024 21090 30181 40213 54001=EQDQ01.1    3APC3  
0089010330999992016010422004+70250+019500FM-12+002499999V0201501N005019999999N999999999-00251-00831102111ADDMA1999999101791MD1810021+9999REMSYN04801033 46/// /1505 11025 21083 30179 40211 58002=
0093010330999992016010423004+70245+019500FM-12+002199999V0201531N0050199999999999999999-00221-00831102081ADDKA1010M-00231KA2010N-00251MA1999999101761MD1810061+9999OC100651OD130100781999REMSYN004BUFR
0113010330999992016010500004+70250+019500FM-12+002499999V0201501N006019999999N999999999-00241-00791102041ADDMA1999999101721MD1810101+9999OD139901101999REMSYN05801033 46/// /1506 11024 21079 30172 40204 58010 333 91111=
0089010330999992016010501004+70250+019500FM-12+002499999V0201501N005019999999N999999999-00281-00811102011ADDMA1999999101691MD1710101+9999REMSYN04801033 46/// /1505 11028 21081 30169 40201 57010=
0093010330999992016010502004+70245+019500FM-12+002199999V0201431N0051199999999999999999-00291-00861101981ADDKA1010M-00271KA2010N-00291MA1999999101661MD1710101+9999OC100641OD130100751999REMSYN004BUFR
0093010330999992016010503004+70245+019500FM-12+002199999V0201481N0034199999999999999999-00291-00851101941ADDKA1010M-00271KA2010N-00291MA1999999101621MD1710091+9999OC100521OD130100571999REMSYN004BUFR
0085010330999992016010504004+70245+019500FM-12+002199999V0200221N0030199999999999999999-00301-01371101881ADDKA1010M-00301KA2010N-00341MA1999999101561MD1810131+9999OD130100641999REMSYN004BUFR
0085010330999992016010505004+70245+019500FM-12+002199999V0200921N0015199999999999999999-00321-01401101851ADDKA1010M-00301KA2010N-00331MA1999999101531MD1710121+9999OD130100511999REMSYN004BUFR
0085010330999992016010506004+70245+019500FM-12+002199999V0201161N0018199999999999999999-00301-01471101801ADDKA1120M-00181KA2120N-00341MA1999999101481MD1710151+9999OD130600811999REMSYN004BUFR
0085010330999992016010507004+70245+019500FM-12+002199999V0201371N0012199999999999999999-00271-01551101771ADDKA1010M-00261KA2010N-00321MA1999999101451MD1710101+9999OD130100751999REMSYN004BUFR
0093010330999992016010508004+70245+019500FM-12+002199999V0201631N0044199999999999999999-00291-01031101751ADDKA1010M-00271KA2010N-00311MA1999999101431MD1610111+9999OC100731OD130100731999REMSYN004BUFR
0089010330999992016010509004+70250+019500FM-12+002499999V0201601N004019999999N999999999-00291-01351101701ADDMA1999999101381MD1710091+9999REMSYN04801033 46/// /1604 11029 21135 30138 40170 57009=
0089010330999992016010510004+70250+019500FM-12+002499999V0201501N006019999999N999999999-00271-00881101681ADDMA1999999101361MD1710091+9999REMSYN04801033 46/// /1506 11027 21088 30136 40168 57009=
0089010330999992016010511004+70250+019500FM-12+002499999V0201401N005019999999N999999999-00261-00781101671ADDMA1999999101351MD1710081+9999REMSYN04801033 46/// /1405 11026 21078 30135 40167 57008=
0085010330999992016010512004+70245+019500FM-12+002199999V0201411N0023199999999999999999-00271-00851101631ADDKA1010M-00241KA2010N-00281MA1999999101311MD1710071+9999OD130600861999REMSYN004BUFR
0071010330999992016010513004+70245+019500FM-12+002199999V0201291N0026199999999999999999-00291-00921101591ADDKA1010M-00261KA2010N-00311MA1999999101271MD1710101+9999REMSYN004BUFR
0071010330999992016010514004+70245+019500FM-12+002199999V0201271N0011199999999999999999-00321-01031101561ADDKA1010M-00281KA2010N-00331MA1999999101241MD1710111+9999REMSYN004BUFR
0071010330999992016010515004+70245+019500FM-12+002199999V0200751N0014199999999999999999-00321-01041101501ADDKA1010M-00321KA2010N-00341MA1999999101181MD1810131+9999REMSYN004BUFR
0089010330999992016010516004+70250+019500FM-12+002499999V0201301N002019999999N999999999-00281-01151101491ADDMA1999999101171MD1710101+9999REMSYN04801033 46/// /1302 11028 21115 30117 40149 57010=
0093010330999992016010517004+70245+019500FM-12+002199999V0200721N0054199999999999999999-00291-01371101471ADDKA1010M-00231KA2010N-00321MA1999999101151MD1610081+9999OC100801OD130100831999REMSYN004BUFR
0085010330999992016010518004+70245+019500FM-12+002199999V0201801N0012199999999999999999-00271-01581101451ADDKA1120M-00231KA2120N-00351MA1999999101131MD1710051+9999OD130600901999REMSYN004BUFR
0085010330999992016010519004+70245+019500FM-12+002199999V0200871N0028199999999999999999-00321-01571101431ADDKA1010M-00271KA2010N-00331MA1999999101111MD1710061+9999OD130100621999REMSYN004BUFR
0089010330999992016010520004+70250+019500FM-12+002499999V0201601N003019999999N999999999-00291-01691101411ADDMA1999999101091MD1710061+9999REMSYN04801033 46/// /1603 11029 21169 30109 40141 57006=
0089010330999992016010521004+70250+019500FM-12+002499999V0201201N003019999999N999999999-00311-01671101411ADDMA1999999101091MD1510041+9999REMSYN04801033 46/// /1203 11031 21167 30109 40141 55004=
0089010330999992016010522004+70250+019500FM-12+002499999V0201501N003019999999N999999999-00301-01391101401ADDMA1999999101081MD1510031+9999REMSYN04801033 46/// /1503 11030 21139 30108 40140 55003=
0089010330999992016010523004+70250+019500FM-12+002499999V0201201N004019999999N999999999-00331-01301101361ADDMA1999999101041MD1710041+9999REMSYN04801033 46/// /1204 11033 21130 30104 40136 57004=
0093010330999992016010600004+70245+019500FM-12+002199999V0201391N0044199999999999999999-00321-01201101351ADDKA1010M-00301KA2010N-00341MA1999999101031MD1610061+9999OC100911OD130601351999REMSYN004BUFR
0093010330999992016010601004+70245+019500FM-12+002199999V0201061N0020199999999999999999-00351-01221101361ADDKA1010M-00321KA2010N-00371MA1999999101041MD1610041+9999OC100571OD130100991999REMSYN004BUFR
0089010330999992016010602004+70250+019500FM-12+002499999V0200901N002019999999N999999999-00381-01271101381ADDMA1999999101061MD1310011+9999REMSYN04801033 46/// /0902 11038 21127 30106 40138 53001=
0085010330999992016010603004+70245+019500FM-12+002199999V0200791N0032199999999999999999-00391-01051101371ADDKA1010M-00371KA2010N-00411MA1999999101051MD1210011+9999OD130100531999REMSYN004BUFR
0089010330999992016010604004+70250+019500FM-12+002499999V0200701N002019999999N999999999-00381-01081101361ADDMA1999999101041MD1410001+9999REMSYN04801033 46/// /0702 11038 21108 30104 40136 54000=
0089010330999992016010605004+70250+019500FM-12+002499999V0201301N003019999999N999999999-00361-00881101331ADDMA1999999101011MD1810041+9999REMSYN04801033 46/// /1303 11036 21088 30101 40133 58004=
0085010330999992016010606004+70245+019500FM-12+002199999V0201421N0030199999999999999999-00371-00861101341ADDKA1120M-00261KA2120N-00421MA1999999101021MD1710031+9999OD130600991999REMSYN004BUFR
0085010330999992016010607004+70245+019500FM-12+002199999V0201231N0023199999999999999999-00401-00851101351ADDKA1010M-00361KA2010N-00401MA1999999101031MD1510011+9999OD130100581999REMSYN004BUFR
0093010330999992016010608004+70245+019500FM-12+002199999V0201351N0040199999999999999999-00421-00841101371ADDKA1010M-00401KA2010N-00441MA1999999101051MD1210041+9999OC100581OD130100581999REMSYN004BUFR
0089010330999992016010609004+70250+019500FM-12+002499999V0201401N004019999999N999999999-00451-00841101381ADDMA1999999101061MD1210041+9999REMSYN04801033 46/// /1404 11045 21084 30106 40138 52004=
0093010330999992016010610004+70245+019500FM-12+002199999V0201091N0038199999999999999999-00471-00911101391ADDKA1010M-00451KA2010N-00481MA1999999101071MD1210041+9999OC100571OD130100671999REMSYN004BUFR
0089010330999992016010611004+70250+019500FM-12+002499999V0200801N003019999999N999999999-00501-00971101401ADDMA1999999101081MD1210031+9999REMSYN04801033 46/// /0803 11050 21097 30108 40140 52003=
0113010330999992016010612004+70250+019500FM-12+002499999V0200501N003019999999N999999999-00551-01031101411ADDMA1999999101091MD1210031+9999OD139900801999REMSYN05801033 46/// /0503 11055 21103 30109 40141 52003 333 91108=
0071010330999992016010613004+70245+019500FM-12+002199999V0201511N0017199999999999999999-00541-01011101411ADDKA1010M-00521KA2010N-00561MA1999999101091MD1210021+9999REMSYN004BUFR
0085010330999992016010614004+70245+019500FM-12+002199999V0200741N0026199999999999999999-00541-01061101431ADDKA1010M-00511KA2010N-00551MA1999999101111MD1210031+9999OD130100571999REMSYN004BUFR
0085010330999992016010615004+70245+019500FM-12+002199999V0201531N0024199999999999999999-00571-01101101431ADDKA1010M-00541KA2010N-00571MA1999999101111MD1210021+9999OD130100631999REMSYN004BUFR
0093010330999992016010616004+70245+019500FM-12+002199999V0200951N0044199999999999999999-00571-01061101431ADDKA1010M-00561KA2010N-00591MA1999999101111MD1210011+9999OC100631OD130100691999REMSYN004BUFR
0112010330999992016010617004+70245+019500FM-12+002199999V0200811N0037199999999999999999-00621-01091101431ADDKA1010M-00571KA2010N-00631MA1999999101111MD1410009+9999OC100521OD130100551999REMSYN004BUFREQDQ01.1    3APC3  
0112010330999992016010618004+70245+019500FM-12+002199999V0201011N0048199999999999999999-00601-01161101441ADDKA1120M-00361KA2120N-00631MA1999999101121MD1290019+9999OC100821OD130600821999REMSYN004BUFREQDQ01.1    3APC3  
0093010330999992016010619004+70245+019500FM-12+002199999V0200691N0044199999999999999999-00621-01301101461ADDKA1010M-00591KA2010N-00641MA1999999101141MD1210031+9999OC100711OD130100911999REMSYN004BUFR
0085010330999992016010620004+70245+019500FM-12+002199999V0201671N0010199999999999999999-00701-01261101481ADDKA1010M-00621KA2010N-00701MA1999999101151MD1210041+9999OD130100541999REMSYN004BUFR
0093010330999992016010621004+70245+019500FM-12+002199999V0201151N0034199999999999999999-00691-01241101481ADDKA1010M-00661KA2010N-00701MA1999999101151MD1210031+9999OC100591OD130100661999REMSYN004BUFR
0108010330999992016010622004+70250+019500FM-12+002499999V0201101N003019999999N999999999-00741-01261101471ADDMA1999999101141MD1290019+9999REMSYN04801033 46/// /1103 11074 21126 30114 40147 54001=EQDQ01.1    3APC3  
0112010330999992016010623004+70245+019500FM-12+002199999V0201061N0053199999999999999999-00771-01261101491ADDKA1010M-00741KA2010N-00791MA1999999101161MD1290019+9999OC100771OD130100771999REMSYN004BUFREQDQ01.1    3APC3  
0113010330999992016010700004+70250+019500FM-12+002499999V0201301N003019999999N999999999-00811-01211101491ADDMA1999999101161MD1210021+9999OD139900901999REMSYN05801033 46/// /1303 11081 21121 30116 40149 52002 333 91109=
0093010330999992016010701004+70245+019500FM-12+002199999V0200911N0022199999999999999999-00841-01311101511ADDKA1010M-00811KA2010N-00851MA1999999101181MD1210031+9999OC100571OD130100681999REMSYN004BUFR
0093010330999992016010702004+70245+019500FM-12+002199999V0201021N0027199999999999999999-00851-01341101471ADDKA1010M-00821KA2010N-00861MA1999999101141MD1810021+9999OC100591OD130100821999REMSYN004BUFR
0085010330999992016010703004+70245+019500FM-12+002199999V0200741N0013199999999999999999-00891-01361101471ADDKA1010M-00861KA2010N-00891MA1999999101141MD1810031+9999OD130100711999REMSYN004BUFR
0089010330999992016010704004+70250+019500FM-12+002499999V0201101N003019999999N999999999-00921-01411101461ADDMA1999999101131MD1610041+9999REMSYN04801033 46/// /1103 11092 21141 30113 40146 56004=
0085010330999992016010705004+70245+019500FM-12+002199999V0202181N0011199999999999999999-00971-01481101491ADDKA1010M-00921KA2010N-00981MA1999999101161MD1310021+9999OD130100811999REMSYN004BUFR
0093010330999992016010706004+70245+019500FM-12+002199999V0202041N0041199999999999999999-01001-01551101501ADDKA1120M-00591KA2120N-01011MA1999999101171MD1210031+9999OC100801OD130600831999REMSYN004BUFR
0089010330999992016010707004+70250+019500FM-12+002499999V0201801N004019999999N999999999-01041-01671101511ADDMA1999999101181MD1210051+9999REMSYN04801033 46/// /1804 11104 21167 30118 40151 52005=
0089010330999992016010708004+70250+019500FM-12+002499999V0202101N003019999999N999999999-01081-01751101541ADDMA1999999101211MD1210061+9999REMSYN04801033 46/// /2103 11108 21175 30121 40154 52006=
0089010330999992016010709004+70250+019500FM-12+002499999V0201801N003019999999N999999999-01101-01741101551ADDMA1999999101221MD1210061+9999REMSYN04801033 46/// /1803 11110 21174 30122 40155 52006=
0089010330999992016010710004+70250+019500FM-12+002499999V0201601N003019999999N999999999-01121-01841101561ADDMA1999999101231MD1990051+9999REMSYN04801033 46/// /1603 11112 21184 30123 40156 50005=
0089010330999992016010711004+70250+019500FM-12+002499999V0201701N002019999999N999999999-01101-01831101541ADDMA1999999101211MD1990001+9999REMSYN04801033 46/// /1702 11110 21183 30121 40154 50000=
0093010330999992016010712004+70245+019500FM-12+002199999V0202731N0039199999999999999999-01071-01751101541ADDKA1010M-01061KA2010N-01111MA1999999101211MD1710011+9999OC100801OD130600971999REMSYN004BUFR
0093010330999992016010713004+70245+019500FM-12+002199999V0203601N0053199999999999999999-01101-01801101541ADDKA1010M-01041KA2010N-01121MA1999999101211MD1510021+9999OC101201OD130101201999REMSYN004BUFR
0089010330999992016010714004+70250+019500FM-12+002499999V0200601N004019999999N999999999-01041-02071101541ADDMA1999999101211MD1410001+9999REMSYN04801033 46/// /0604 11104 21207 30121 40154 54000=
0093010330999992016010715004+70245+019500FM-12+002199999V0201021N0107199999999999999999-00941-02111101491ADDKA1010M-00921KA2010N-01061MA1999999101161MD1810051+9999OC101401OD130101571999REMSYN004BUFR
0089010330999992016010716004+70250+019500FM-12+002499999V0201001N005019999999N999999999-00901-02111101511ADDMA1999999101181MD1510031+9999REMSYN04801033 46/// /1005 11090 21211 30118 40151 55003=
0089010330999992016010717004+70250+019500FM-12+002499999V0201301N005019999999N999999999-00881-01931101521ADDMA1999999101191MD1510021+9999REMSYN04801033 46/// /1305 11088 21193 30119 40152 55002=
0085010330999992016010718004+70245+019500FM-12+002199999V0200051N0012199999999999999999-00921-01931101501ADDKA1120M-00861KA2120N-01141MA1999999101171MD1010021+9999OD130601571999REMSYN004BUFR
0090010330999992016010719004+70245+019500FM-12+002199999V0201471N0028199999999999999999-00871-01821101501ADDKA1010M-00881KA2010N-00931MA1999999101171MD1790019+9999REMSYN004BUFREQDQ01.1    3APC3  
0093010330999992016010720004+70245+019500FM-12+002199999V0200841N0056199999999999999999-00821-01741101521ADDKA1010M-00831KA2010N-00901MA1999999101191MD1510001+9999OC100991OD130100991999REMSYN004BUFR
0093010330999992016010721004+70245+019500FM-12+002199999V0200471N0055199999999999999999-00851-01641101501ADDKA1010M-00841KA2010N-00891MA1999999101171MD1010001+9999OC100871OD130100951999REMSYN004BUFR
0093010330999992016010722004+70245+019500FM-12+002199999V0200691N0076199999999999999999-00891-01481101491ADDKA1010M-00851KA2010N-00891MA1999999101161MD1010011+9999OC101041OD130101101999REMSYN004BUFR
0089010330999992016010723004+70250+019500FM-12+002499999V0200801N003019999999N999999999-00811-01511101471ADDMA1999999101141MD1710051+9999REMSYN04801033 46/// /0803 11081 21151 30114 40147 57005=
0093010330999992016010800004+70245+019500FM-12+002199999V0200641N0061199999999999999999-00791-01341101461ADDKA1010M-00751KA2010N-00821MA1999999101131MD1710041+9999OC100821OD130601101999REMSYN004BUFR
0085010330999992016010801004+70245+019500FM-12+002199999V0200991N0014199999999999999999-00771-01511101451ADDKA1010M-00731KA2010N-00831MA1999999101121MD1710041+9999OD130100991999REMSYN004BUFR
0089010330999992016010802004+70250+019500FM-12+002499999V0201301N002019999999N999999999-00741-01471101431ADDMA1999999101101MD1710041+9999REMSYN04801033 46/// /1302 11074 21147 30110 40143 57004=
0071010330999992016010803004+70245+019500FM-12+002199999V0200941N0015199999999999999999-00751-01351101391ADDKA1010M-00731KA2010N-00771MA1999999101061MD1710071+9999REMSYN004BUFR
0071010330999992016010804004+70245+019500FM-12+002199999V0201011N0011199999999999999999-00671-01421101341ADDKA1010M-00671KA2010N-00751MA1999999101021MD1710101+9999REMSYN004BUFR
0071010330999992016010805004+70245+019500FM-12+002199999V0200941N0025199999999999999999-00671-01111101311ADDKA1010M-00671KA2010N-00711MA1999999100991MD1710101+9999REMSYN004BUFR
0085010330999992016010806004+70245+019500FM-12+002199999V0200421N0013199999999999999999-00651-01071101321ADDKA1120M-00651KA2120N-00931MA1999999101001MD1510061+9999OD130600991999REMSYN004BUFR
0089010330999992016010807004+70250+019500FM-12+002499999V0200701N001019999999N999999999-00641-00971101291ADDMA1999999100971MD1710051+9999REMSYN04801033 46/// /0701 11064 21097 30097 40129 57005=
0071010330999992016010808004+70245+019500FM-12+002199999V0200901N0014199999999999999999-00551-00851101261ADDKA1010M-00551KA2010N-00641MA1999999100941MD1710051+9999REMSYN004BUFR
0071010330999992016010809004+70245+019500FM-12+002199999V0203371N0009199999999999999999-00451-00741101221ADDKA1010M-00461KA2010N-00551MA1999999100901MD1710101+9999REMSYN004BUFR
0089010330999992016010810004+70250+019500FM-12+002499999V0203601N007019999999N999999999-00291-00741101181ADDMA1999999100861MD1710111+9999REMSYN04801033 46/// /3607 11029 21074 30086 40118 57011=
0089010330999992016010811004+70250+019500FM-12+002499999V0200101N008019999999N999999999-00241-00771101151ADDMA1999999100831MD1710111+9999REMSYN04801033 46/// /0108 11024 21077 30083 40115 57011=
0093010330999992016010812004+70245+019500FM-12+002199999V0203531N0065199999999999999999-00221-00741101141ADDKA1010M-00221KA2010N-00241MA1999999100821MD1710091+9999OC100951OD130601101999REMSYN004BUFR
0093010330999992016010813004+70245+019500FM-12+002199999V0203451N0070199999999999999999-00191-00701101121ADDKA1010M-00191KA2010N-00231MA1999999100801MD1710061+9999OC101011OD130101021999REMSYN004BUFR
0089010330999992016010814004+70250+019500FM-12+002499999V0203401N007019999999N999999999-00151-00651101121ADDMA1999999100801MD1710031+9999REMSYN04801033 46/// /3407 11015 21065 30080 40112 57003=
0093010330999992016010815004+70245+019500FM-12+002199999V0203391N0084199999999999999999-00151-00721101101ADDKA1010M-00141KA2010N-00181MA1999999100781MD1710031+9999OC101101OD130101101999REMSYN004BUFR
0089010330999992016010816004+70250+019500FM-12+002499999V0203501N008019999999N999999999-00161-00861101071ADDMA1999999100751MD1810051+9999REMSYN04801033 46/// /3508 11016 21086 30075 40107 58005=
0093010330999992016010817004+70245+019500FM-12+002199999V0203441N0086199999999999999999-00141-00861101051ADDKA1010M-00141KA2010N-00171MA1999999100731MD1710071+9999OC101121OD130101151999REMSYN004BUFR
0093010330999992016010818004+70245+019500FM-12+002199999V0203531N0078199999999999999999-00121-00781101051ADDKA1120M-00121KA2120N-00651MA1999999100731MD1710051+9999OC101031OD130601211999REMSYN004BUFR
0089010330999992016010819004+70250+019500FM-12+002499999V0203401N009019999999N999999999-00121-00781101061ADDMA1999999100741MD1710011+9999REMSYN04801033 46/// /3409 11012 21078 30074 40106 57001=
0089010330999992016010820004+70250+019500FM-12+002499999V0203301N008019999999N999999999-00121-00731101081ADDMA1999999100761MD1310031+9999REMSYN04801033 46/// /3308 11012 21073 30076 40108 53003=
0093010330999992016010821004+70245+019500FM-12+002199999V0203331N0080199999999999999999-00101-00801101091ADDKA1010M-00111KA2010N-00131MA1999999100771MD1310041+9999OC101041OD130101101999REMSYN004BUFR
0089010330999992016010822004+70250+019500FM-12+002499999V0203401N008019999999N999999999-00091-00791101081ADDMA1999999100761MD1990031+9999REMSYN04801033 46/// /3408 11009 21079 30076 40108 50003=
0089010330999992016010823004+70250+019500FM-12+002499999V0203301N008019999999N999999999-00071-00821101081ADDMA1999999100761MD1410001+9999REMSYN04801033 46/// /3308 11007 21082 30076 40108 54000=
0093010330999992016010900004+70245+019500FM-12+002199999V0203261N0077199999999999999999-00041-00811101071ADDKA1010M-00041KA2010N-00071MA1999999100751MD1710011+9999OC100921OD130601471999REMSYN004BUFR
0093010330999992016010901004+70245+019500FM-12+002199999V0203411N0079199999999999999999-00021-00721101071ADDKA1010M-00011KA2010N-00061MA1999999100751MD1710021+9999OC100961OD130101071999REMSYN004BUFR
0089010330999992016010902004+70250+019500FM-12+002499999V0203301N008019999999N999999999-00011-00721101061ADDMA1999999100741MD1710021+9999REMSYN04801033 46/// /3308 11001 21072 30074 40106 57002=
0093010330999992016010903004+70245+019500FM-12+002199999V0203201N0079199999999999999999+00001-00721101051ADDKA1010M+00001KA2010N-00021MA1999999100731MD1710021+9999OC101001OD130101031999REMSYN004BUFR
0093010330999992016010904004+70245+019500FM-12+002199999V0203291N0081199999999999999999+00001-00791101011ADDKA1010M+00011KA2010N-00011MA1999999100691MD1810061+9999OC101091OD130101141999REMSYN004BUFR
0093010330999992016010905004+70245+019500FM-12+002199999V0203161N0075199999999999999999+00001-00791101001ADDKA1010M+00021KA2010N+00001MA1999999100681MD1710061+9999OC101001OD130101061999REMSYN004BUFR
0093010330999992016010906004+70245+019500FM-12+002199999V0203191N0072199999999999999999+00001-00731100991ADDKA1120M+00021KA2120N-00141MA1999999100671MD1610061+9999OC101031OD130601141999REMSYN004BUFR
0108010330999992016010907004+70250+019500FM-12+002499999V0203201N008019999999N999999999+00041-00681101001ADDMA1999999100681MD1790019+9999REMSYN04801033 46/// /3208 10004 21068 30068 40100 54001=EQDQ01.1    3APC3  
0089010330999992016010908004+70250+019500FM-12+002499999V0203001N009019999999N999999999+00051-00621100971ADDMA1999999100661MD1710021+9999REMSYN04801033 46/// /3009 10005 21062 30066 40097 57002=
0089010330999992016010909004+70250+019500FM-12+002499999V0203101N008019999999N999999999+00061-00721100991ADDMA1999999100681MD1210011+9999REMSYN04801033 46/// /3108 10006 21072 30068 40099 52001=
0089010330999992016010910004+70250+019500FM-12+002499999V0203001N009019999999N999999999+00081-00491100991ADDMA1999999100681MD1410001+9999REMSYN04801033 46/// /3009 10008 21049 30068 40099 54000=
0089010330999992016010911004+70250+019500FM-12+002499999V0202901N009019999999N999999999+00101-00511100981ADDMA1999999100671MD1210011+9999REMSYN04801033 46/// /2909 10010 21051 30067 40098 52001=
0093010330999992016010912004+70245+019500FM-12+002199999V0202941N0096199999999999999999+00091-00521100971ADDKA1010M+00121KA2010N+00101MA1999999100661MD1710021+9999OC101211OD130601251999REMSYN004BUFR
0093010330999992016010913004+70245+019500FM-12+002199999V0202871N0094199999999999999999+00121-00491100981ADDKA1010M+00121KA2010N+00081MA1999999100661MD1710011+9999OC101141OD130101331999REMSYN004BUFR
0089010330999992016010914004+70250+019500FM-12+002499999V0203001N009019999999N999999999+00131-00581100961ADDMA1999999100651MD1710021+9999REMSYN04801033 46/// /3009 10013 21058 30065 40096 57002=
0089010330999992016010915004+70250+019500FM-12+002499999V0203001N009019999999N999999999+00141-00521100941ADDMA1999999100631MD1710031+9999REMSYN04801033 46/// /3009 10014 21052 30063 40094 57003=
0093010330999992016010916004+70245+019500FM-12+002199999V0203021N0080199999999999999999-00051-00211100971ADDKA1010M+00141KA2010N-00061MA1999999100651MD1510021+9999OC101061OD130101231999REMSYN004BUFR
0089010330999992016010917004+70250+019500FM-12+002499999V0203301N010019999999N999999999+00061-00211100931ADDMA1999999100621MD1710031+9999REMSYN04801033 46/// /3310 10006 21021 30062 40093 57003=
0132010330999992016010918004+70250+019500FM-12+002499999V0203301N009019999999N999999999-00051-00141100961ADDKA1120M+00141MA1999999100641MD1510011+9999OD139901301999REMSYN06401033 46/// /3309 11005 21014 30064 40096 55001 333 10014 91113=
0089010330999992016010919004+70250+019500FM-12+002499999V0203201N008019999999N999999999+00001-00131100931ADDMA1999999100611MD1810041+9999REMSYN04801033 46/// /3208 10000 21013 30061 40093 58004=
0093010330999992016010920004+70245+019500FM-12+002199999V0202781N0050199999999999999999-00021-00151100971ADDKA1010M+00011KA2010N-00061MA1999999100651MD1010031+9999OC100621OD130101131999REMSYN004BUFR
0093010330999992016010921004+70245+019500FM-12+002199999V0202921N0074199999999999999999-00051-00111100971ADDKA1010M+00001KA2010N-00081MA1999999100651MD1510011+9999OC100971OD130101171999REMSYN004BUFR
0093010330999992016010922004+70245+019500FM-12+002199999V0202541N0077199999999999999999-00101-00151100941ADDKA1010M-00051KA2010N-00111MA1999999100631MD1010021+9999OC101011OD130101191999REMSYN004BUFR
0089010330999992016010923004+70250+019500FM-12+002499999V0202701N008019999999N999999999-00051-00101100931ADDMA1999999100611MD1810031+9999REMSYN04801033 46/// /2708 11005 21010 30061 40093 58003=
0113010330999992016011000004+70250+019500FM-12+002499999V0203101N007019999999N999999999+00001-00081100941ADDMA1999999100621MD1710031+9999OD139901201999REMSYN05801033 46/// /3107 10000 21008 30062 40094 57003 333 91112=
0093010330999992016011001004+70245+019500FM-12+002199999V0202891N0085199999999999999999-00041-00141100911ADDKA1010M+00021KA2010N-00041MA1999999100591MD1710031+9999OC100961OD130101221999REMSYN004BUFR
0093010330999992016011002004+70245+019500FM-12+002199999V0202821N0053199999999999999999-00041-00161100931ADDKA1010M-00021KA2010N-00051MA1999999100611MD1510001+9999OC100641OD130100831999REMSYN004BUFR
0085010330999992016011003004+70245+019500FM-12+002199999V0202721N0034199999999999999999+00001-00171100911ADDKA1010M+00011KA2010N-00061MA1999999100591MD1510031+9999OD130100531999REMSYN004BUFR
0071010330999992016011004004+70245+019500FM-12+002199999V0201251N0009199999999999999999+00001-00281100901ADDKA1010M+00011KA2010N-00011MA1999999100581MD1810011+9999REMSYN004BUFR
0085010330999992016011005004+70245+019500FM-12+002199999V0200161N0009199999999999999999-00091-00211100921ADDKA1010M+00021KA2010N-00091MA1999999100601MD1510021+9999OD130100911999REMSYN004BUFR
0085010330999992016011006004+70245+019500FM-12+002199999V0200591N0012199999999999999999-00141-00251100911ADDKA1120M+00021KA2120N-00141MA1999999100591MD1410001+9999OD130601221999REMSYN004BUFR
0071010330999992016011007004+70245+019500FM-12+002199999V0201571N0015199999999999999999-00151-00301100921ADDKA1010M-00151KA2010N-00171MA1999999100601MD1210021+9999REMSYN004BUFR
0071010330999992016011008004+70245+019500FM-12+002199999V0201461N0020199999999999999999-00101-00291100941ADDKA1010M-00101KA2010N-00151MA1999999100621MD1310021+9999REMSYN004BUFR
0071010330999992016011009004+70245+019500FM-12+002199999V0201501N0021199999999999999999-00051-00241100961ADDKA1010M-00041KA2010N-00111MA1999999100641MD1210051+9999REMSYN004BUFR
0089010330999992016011010004+70250+019500FM-12+002499999V0202001N003019999999N999999999-00021-00241100971ADDMA1999999100651MD1210051+9999REMSYN04801033 46/// /2003 11002 21024 30065 40097 52005=
0093010330999992016011011004+70245+019500FM-12+002199999V0202051N0056199999999999999999-00021-00261100971ADDKA1010M+00001KA2010N-00021MA1999999100651MD1010031+9999OC100801OD130100861999REMSYN004BUFR
0093010330999992016011012004+70245+019500FM-12+002199999V0202051N0064199999999999999999-00021-00231100991ADDKA1010M+00001KA2010N-00041MA1999999100671MD1310031+9999OC100811OD130600861999REMSYN004BUFR
0089010330999992016011013004+70250+019500FM-12+002499999V0202001N004019999999N999999999-00051-00191101011ADDMA1999999100691MD1310031+9999REMSYN04801033 46/// /2004 11005 21019 30069 40101 53003=
0093010330999992016011014004+70245+019500FM-12+002199999V0202061N0052199999999999999999-00051-00201101001ADDKA1010M-00041KA2010N-00071MA1999999100681MD1010031+9999OC100681OD130100901999REMSYN004BUFR
0093010330999992016011015004+70245+019500FM-12+002199999V0201961N0042199999999999999999-00041-00191101001ADDKA1010M-00041KA2010N-00071MA1999999100681MD1410001+9999OC100581OD130100711999REMSYN004BUFR
0093010330999992016011016004+70245+019500FM-12+002199999V0202021N0048199999999999999999-00051-00261100991ADDKA1010M-00041KA2010N-00061MA1999999100671MD1710021+9999OC100661OD130100731999REMSYN004BUFR
0085010330999992016011017004+70245+019500FM-12+002199999V0201651N0025199999999999999999-00101-00331100981ADDKA1010M-00061KA2010N-00101MA1999999100661MD1710021+9999OD130100651999REMSYN004BUFR
0132010330999992016011018004+70250+019500FM-12+002499999V0202101N004019999999N999999999-00071-00311101001ADDKA1120M+00001MA1999999100681MD1510001+9999OD139900901999REMSYN06401033 46/// /2104 11007 21031 30068 40100 55000 333 10000 91109=
0108010330999992016011019004+70250+019500FM-12+002499999V0202101N005019999999N999999999-00061-00321100991ADDMA1999999100671MD1410009+9999REMSYN04801033 46/// /2105 11006 21032 30067 40099 54001=EQDQ01.1    3APC3  
0085010330999992016011020004+70245+019500FM-12+002199999V0201441N0028199999999999999999-00091-00361101011ADDKA1010M-00051KA2010N-00091MA1999999100691MD1210041+9999OD130100661999REMSYN004BUFR
0112010330999992016011021004+70245+019500FM-12+002199999V0201371N0039199999999999999999-00091-00371101011ADDKA1010M-00071KA2010N-00111MA1999999100691MD1290019+9999OC100551OD130100551999REMSYN004BUFREQDQ01.1    3APC3  
0093010330999992016011022004+70245+019500FM-12+002199999V0201401N0042199999999999999999-00071-00341101021ADDKA1010M-00071KA2010N-00111MA1999999100701MD1210031+9999OC100601OD130100601999REMSYN004BUFR
0085010330999992016011023004+70245+019500FM-12+002199999V0201371N0028199999999999999999-00101-00441101031ADDKA1010M-00071KA2010N-00131MA1999999100711MD1210011+9999OD130100621999REMSYN004BUFR
0093010330999992016011100004+70245+019500FM-12+002199999V0201431N0044199999999999999999-00101-00391101001ADDKA1010M-00091KA2010N-00121MA1999999100681MD1010011+9999OC100571OD130600681999REMSYN004BUFR
0093010330999992016011101004+70245+019500FM-12+002199999V0201471N0048199999999999999999-00121-00401101011ADDKA1010M-00111KA2010N-00141MA1999999100691MD1510011+9999OC100571OD130100661999REMSYN004BUFR
0085010330999992016011102004+70245+019500FM-12+002199999V0201351N0014199999999999999999-00201-00571101021ADDKA1010M-00121KA2010N-00201MA1999999100701MD1510001+9999OD130100531999REMSYN004BUFR
0071010330999992016011103004+70245+019500FM-12+002199999V0201071N0026199999999999999999-00191-00621101011ADDKA1010M-00161KA2010N-00211MA1999999100691MD1210021+9999REMSYN004BUFR
0090010330999992016011104004+70245+019500FM-12+002199999V0200901N0010199999999999999999-00221-00701101021ADDKA1010M-00171KA2010N-00231MA1999999100701MD1290019+9999REMSYN004BUFREQDQ01.1    3APC3  
0093010330999992016011105004+70245+019500FM-12+002199999V0201131N0043199999999999999999-00141-00781100991ADDKA1010M-00131KA2010N-00241MA1999999100671MD1810031+9999OC100751OD130100751999REMSYN004BUFR
0093010330999992016011106004+70245+019500FM-12+002199999V0200801N0030199999999999999999-00171-00891100991ADDKA1120M-00051KA2120N-00241MA1999999100671MD1710031+9999OC100551OD130600751999REMSYN004BUFR
0093010330999992016011107004+70245+019500FM-12+002199999V0200961N0119199999999999999999-00221-00791100941ADDKA1010M-00121KA2010N-00221MA1999999100621MD1810081+9999OC101451OD130101451999REMSYN004BUFR
0093010330999992016011108004+70245+019500FM-12+002199999V0201101N0133199999999999999999-00251-00771100961ADDKA1010M-00201KA2010N-00251MA1999999100641MD1510031+9999OC101671OD130101671999REMSYN004BUFR
0093010330999992016011109004+70245+019500FM-12+002199999V0201321N0103199999999999999999-00251-00781101021ADDKA1010M-00241KA2010N-00261MA1999999100701MD1310031+9999OC101371OD130101621999REMSYN004BUFR
0089010330999992016011110004+70250+019500FM-12+002499999V0201201N011019999999N999999999-00221-00791101031ADDMA1999999100711MD1110091+9999REMSYN04801033 46/// /1211 11022 21079 30071 40103 51009=
0089010330999992016011111004+70250+019500FM-12+002499999V0201101N006019999999N999999999-00271-00991101091ADDMA1999999100771MD1110131+9999REMSYN04801033 46/// /1106 11027 21099 30077 40109 51013=
0093010330999992016011112004+70245+019500FM-12+002199999V0201421N0036199999999999999999-00291-00921101141ADDKA1010M-00251KA2010N-00301MA1999999100821MD1310121+9999OC100511OD130601741999REMSYN004BUFR
0093010330999992016011113004+70245+019500FM-12+002199999V0201021N0054199999999999999999-00271-00971101171ADDKA1010M-00281KA2010N-00311MA1999999100851MD1110141+9999OC100731OD130100731999REMSYN004BUFR
0093010330999992016011114004+70245+019500FM-12+002199999V0201461N0018199999999999999999-00271-01061101211ADDKA1010M-00271KA2010N-00321MA1999999100891MD1210121+9999OC100511OD130100551999REMSYN004BUFR
0085010330999992016011115004+70245+019500FM-12+002199999V0201801N0010199999999999999999-00301-01111101261ADDKA1010M-00271KA2010N-00311MA1999999100941MD1210121+9999OD130100621999REMSYN004BUFR
0093010330999992016011116004+70245+019500FM-12+002199999V0201201N0125199999999999999999-00301-01281101261ADDKA1010M-00251KA2010N-00311MA1999999100941MD1310091+9999OC101481OD130101621999REMSYN004BUFR
0093010330999992016011117004+70245+019500FM-12+002199999V0201221N0112199999999999999999-00221-01401101271ADDKA1010M-00201KA2010N-00361MA1999999100951MD1010061+9999OC101381OD130101561999REMSYN004BUFR
0093010330999992016011118004+70245+019500FM-12+002199999V0201111N0129199999999999999999-00291-01361101331ADDKA1120M-00121KA2120N-00361MA1999999101011MD1310081+9999OC101661OD130601691999REMSYN004BUFR
0089010330999992016011119004+70250+019500FM-12+002499999V0201201N010019999999N999999999-00311-01351101371ADDMA1999999101051MD1310111+9999REMSYN04801033 46/// /1210 11031 21135 30105 40137 53011=
0089010330999992016011120004+70250+019500FM-12+002499999V0201201N012019999999N999999999-00271-01411101391ADDMA1999999101071MD1990111+9999REMSYN04801033 46/// /1212 11027 21141 30107 40139 50011=
0089010330999992016011121004+70250+019500FM-12+002499999V0201201N011019999999N999999999-00301-01371101461ADDMA1999999101141MD1310131+9999REMSYN04801033 46/// /1211 11030 21137 30114 40146 53013=
0089010330999992016011122004+70250+019500FM-12+002499999V0201201N010019999999N999999999-00301-01381101501ADDMA1999999101181MD1310131+9999REMSYN04801033 46/// /1210 11030 21138 30118 40150 53013=
0093010330999992016011123004+70245+019500FM-12+002199999V0201201N0085199999999999999999-00301-01471101531ADDKA1010M-00281KA2010N-00331MA1999999101211MD1110141+9999OC101341OD130101581999REMSYN004BUFR
0113010330999992016011200004+70250+019500FM-12+002499999V0201201N008019999999N999999999-00291-01511101541ADDMA1999999101221MD1310081+9999OD139901901999REMSYN05801033 46/// /1208 11029 21151 30122 40154 53008 333 91119=
0093010330999992016011201004+70245+019500FM-12+002199999V0201211N0088199999999999999999-00351-01451101581ADDKA1010M-00301KA2010N-00351MA1999999101261MD1210081+9999OC101401OD130101681999REMSYN004BUFR
0089010330999992016011202004+70250+019500FM-12+002499999V0201301N005019999999N999999999-00361-01451101621ADDMA1999999101301MD1210091+9999REMSYN04801033 46/// /1305 11036 21145 30130 40162 52009=
0093010330999992016011203004+70245+019500FM-12+002199999V0201121N0059199999999999999999-00401-01431101641ADDKA1010M-00371KA2010N-00411MA1999999101321MD1210091+9999OC101001OD130101241999REMSYN004BUFR
0093010330999992016011204004+70245+019500FM-12+002199999V0200991N0053199999999999999999-00401-01421101631ADDKA1010M-00391KA2010N-00421MA1999999101311MD1210051+9999OC101381OD130101381999REMSYN004BUFR
0093010330999992016011205004+70245+019500FM-12+002199999V0201271N0041199999999999999999-00401-01301101661ADDKA1010M-00401KA2010N-00431MA1999999101341MD1210041+9999OC100871OD130101291999REMSYN004BUFR
0093010330999992016011206004+70245+019500FM-12+002199999V0201211N0061199999999999999999-00441-01301101651ADDKA1120M-00231KA2120N-00451MA1999999101331MD1210021+9999OC101031OD130601681999REMSYN004BUFR
0089010330999992016011207004+70250+019500FM-12+002499999V0201201N007019999999N999999999-00451-01261101691ADDMA1999999101371MD1310061+9999REMSYN04801033 46/// /1207 11045 21126 30137 40169 53006=
0093010330999992016011208004+70245+019500FM-12+002199999V0201141N0059199999999999999999-00471-01211101721ADDKA1010M-00441KA2010N-00481MA1999999101401MD1310061+9999OC100931OD130101061999REMSYN004BUFR
0093010330999992016011209004+70245+019500FM-12+002199999V0201351N0058199999999999999999-00471-01271101741ADDKA1010M-00461KA2010N-00481MA1999999101421MD1110091+9999OC100981OD130101221999REMSYN004BUFR
0093010330999992016011210004+70245+019500FM-12+002199999V0201141N0063199999999999999999-00451-01431101741ADDKA1010M-00431KA2010N-00471MA1999999101421MD1110051+9999OC101131OD130101411999REMSYN004BUFR
0093010330999992016011211004+70245+019500FM-12+002199999V0201241N0046199999999999999999-00451-01671101761ADDKA1010M-00441KA2010N-00481MA1999999101441MD1210041+9999OC100881OD130101151999REMSYN004BUFR
0093010330999992016011212004+70245+019500FM-12+002199999V0201161N0093199999999999999999-00421-01501101721ADDKA1010M-00401KA2010N-00461MA1999999101401MD1810021+9999OC101371OD130601541999REMSYN004BUFR
0093010330999992016011213004+70245+019500FM-12+002199999V0201131N0078199999999999999999-00421-01341101731ADDKA1010M-00401KA2010N-00441MA1999999101411MD1710011+9999OC101191OD130101351999REMSYN004BUFR
0089010330999992016011214004+70250+019500FM-12+002499999V0201001N008019999999N999999999-00461-01381101731ADDMA1999999101411MD1510021+9999REMSYN04801033 46/// /1008 11046 21138 30141 40173 55002=
0093010330999992016011215004+70245+019500FM-12+002199999V0201221N0064199999999999999999-00451-01371101751ADDKA1010M-00441KA2010N-00461MA1999999101431MD1210031+9999OC101051OD130101321999REMSYN004BUFR
0093010330999992016011216004+70245+019500FM-12+002199999V0201091N0066199999999999999999-00471-01361101751ADDKA1010M-00461KA2010N-00481MA1999999101431MD1210021+9999OC101161OD130101191999REMSYN004BUFR
0093010330999992016011217004+70245+019500FM-12+002199999V0201001N0080199999999999999999-00491-01381101701ADDKA1010M-00451KA2010N-00491MA1999999101381MD1810031+9999OC101351OD130101391999REMSYN004BUFR
0093010330999992016011218004+70245+019500FM-12+002199999V0200821N0067199999999999999999-00491-01401101691ADDKA1120M-00401KA2120N-00521MA1999999101371MD1710061+9999OC101181OD130601511999REMSYN004BUFR
0093010330999992016011219004+70245+019500FM-12+002199999V0202231N0021199999999999999999-00471-01561101721ADDKA1010M-00461KA2010N-00491MA1999999101401MD1510031+9999OC100561OD130101321999REMSYN004BUFR
0093010330999992016011220004+70245+019500FM-12+002199999V0201351N0041199999999999999999-00541-01431101711ADDKA1010M-00481KA2010N-00541MA1999999101391MD1310011+9999OC100861OD130100861999REMSYN004BUFR
0085010330999992016011221004+70245+019500FM-12+002199999V0203151N0018199999999999999999-00521-01501101711ADDKA1010M-00511KA2010N-00571MA1999999101391MD1010021+9999OD130100791999REMSYN004BUFR
0085010330999992016011222004+70245+019500FM-12+002199999V0201191N0021199999999999999999-00501-01381101691ADDKA1010M-00481KA2010N-00541MA1999999101371MD1710021+9999OD130100751999REMSYN004BUFR
0093010330999992016011223004+70245+019500FM-12+002199999V0201131N0068199999999999999999-00471-01601101661ADDKA1010M-00481KA2010N-00531MA1999999101341MD1810051+9999OC100951OD130100951999REMSYN004BUFR
0085010330999992016011300004+70245+019500FM-12+002199999V0203501N0013199999999999999999-00521-01721101671ADDKA1010M-00431KA2010N-00531MA1999999101351MD1710041+9999OD130601321999REMSYN004BUFR
0085010330999992016011301004+70245+019500FM-12+002199999V0200631N0023199999999999999999-00521-01711101651ADDKA1010M-00511KA2010N-00591MA1999999101331MD1710051+9999OD130100701999REMSYN004BUFR
0093010330999992016011302004+70245+019500FM-12+002199999V0201271N0065199999999999999999-00421-01391101621ADDKA1010M-00401KA2010N-00501MA1999999101301MD1810041+9999OC100961OD130101131999REMSYN004BUFR
0093010330999992016011303004+70245+019500FM-12+002199999V0201161N0045199999999999999999-00351-01511101621ADDKA1010M-00361KA2010N-00431MA1999999101301MD1510051+9999OC100991OD130100991999REMSYN004BUFR
0093010330999992016011304004+70245+019500FM-12+002199999V0201211N0087199999999999999999-00321-01621101541ADDKA1010M-00311KA2010N-00401MA1999999101221MD1810111+9999OC101211OD130101211999REMSYN004BUFR
0093010330999992016011305004+70245+019500FM-12+002199999V0201201N0086199999999999999999-00271-01611101521ADDKA1010M-00281KA2010N-00361MA1999999101201MD1810101+9999OC101161OD130101161999REMSYN004BUFR
0093010330999992016011306004+70245+019500FM-12+002199999V0201201N0084199999999999999999-00301-01641101501ADDKA1120M-00271KA2120N-00591MA1999999101181MD1610121+9999OC101031OD130601211999REMSYN004BUFR
0093010330999992016011307004+70245+019500FM-12+002199999V0201221N0061199999999999999999-00301-01491101531ADDKA1010M-00261KA2010N-00311MA1999999101211MD1510011+9999OC100851OD130101001999REMSYN004BUFR
0093010330999992016011308004+70245+019500FM-12+002199999V0200851N0058199999999999999999-00421-01361101581ADDKA1010M-00281KA2010N-00441MA1999999101261MD1310061+9999OC100761OD130100901999REMSYN004BUFR
0093010330999992016011309004+70245+019500FM-12+002199999V0200921N0063199999999999999999-00471-01391101591ADDKA1010M-00421KA2010N-00471MA1999999101271MD1210091+9999OC100811OD130100811999REMSYN004BUFR
0093010330999992016011310004+70245+019500FM-12+002199999V0200801N0069199999999999999999-00451-01411101581ADDKA1010M-00441KA2010N-00481MA1999999101261MD1010051+9999OC100881OD130100911999REMSYN004BUFR
0093010330999992016011311004+70245+019500FM-12+002199999V0200781N0083199999999999999999-00421-01441101551ADDKA1010M-00381KA2010N-00451MA1999999101231MD1810031+9999OC100971OD130101021999REMSYN004BUFR
0093010330999992016011312004+70245+019500FM-12+002199999V0201051N0090199999999999999999-00301-01651101531ADDKA1010M-00301KA2010N-00431MA1999999101211MD1710061+9999OC101061OD130601171999REMSYN004BUFR
0093010330999992016011313004+70245+019500FM-12+002199999V0201021N0079199999999999999999-00321-01611101541ADDKA1010M-00301KA2010N-00351MA1999999101221MD1510041+9999OC100951OD130101081999REMSYN004BUFR
0093010330999992016011314004+70245+019500FM-12+002199999V0201021N0062199999999999999999-00301-01621101561ADDKA1010M-00291KA2010N-00341MA1999999101241MD1310011+9999OC100961OD130101051999REMSYN004BUFR
0085010330999992016011315004+70245+019500FM-12+002199999V0200911N0017199999999999999999-00371-01761101571ADDKA1010M-00321KA2010N-00381MA1999999101251MD1210041+9999OD130100741999REMSYN004BUFR
0085010330999992016011316004+70245+019500FM-12+002199999V0200701N0035199999999999999999-00401-01711101571ADDKA1010M-00351KA2010N-00401MA1999999101251MD1210031+9999OD130100541999REMSYN004BUFR
0104010330999992016011317004+70245+019500FM-12+002199999V0201391N0022199999999999999999-00391-01511101571ADDKA1010M-00361KA2010N-00411MA1999999101251MD1290019+9999OD130100531999REMSYN004BUFREQDQ01.1    3APC3  
0093010330999992016011318004+70245+019500FM-12+002199999V0201401N0038199999999999999999-00371-01101101581ADDKA1120M-00261KA2120N-00481MA1999999101261MD1210011+9999OC100511OD130601081999REMSYN004BUFR
0085010330999992016011319004+70245+019500FM-12+002199999V0201211N0026199999999999999999-00401-01041101621ADDKA1010M-00381KA2010N-00411MA1999999101301MD1310051+9999OD130100531999REMSYN004BUFR
0071010330999992016011320004+70245+019500FM-12+002199999V0201201N0023199999999999999999-00421-01291101631ADDKA1010M-00391KA2010N-00451MA1999999101311MD1210061+9999REMSYN004BUFR
0071010330999992016011321004+70245+019500FM-12+002199999V0201421N0038199999999999999999-00421-01121101641ADDKA1010M-00411KA2010N-00441MA1999999101321MD1210061+9999REMSYN004BUFR
0071010330999992016011322004+70245+019500FM-12+002199999V0201241N0016199999999999999999-00441-01251101621ADDKA1010M-00411KA2010N-00441MA1999999101301MD1010001+9999REMSYN004BUFR
0071010330999992016011323004+70245+019500FM-12+002199999V0201331N0010199999999999999999-00471-01211101601ADDKA1010M-00421KA2010N-00471MA1999999101281MD1810031+9999REMSYN004BUFR
0085010330999992016011400004+70245+019500FM-12+002199999V0201561N0025199999999999999999-00421-01181101601ADDKA1010M-00411KA2010N-00491MA1999999101281MD1710051+9999OD130600531999REMSYN004BUFR
0085010330999992016011401004+70245+019500FM-12+002199999V0201611N0017199999999999999999-00441-01071101601ADDKA1010M-00391KA2010N-00441MA1999999101281MD1710021+9999OD130100541999REMSYN004BUFR
0093010330999992016011402004+70245+019500FM-12+002199999V0201781N0032199999999999999999-00401-01001101581ADDKA1010M-00411KA2010N-00451MA1999999101261MD1710021+9999OC100531OD130100531999REMSYN004BUFR
0104010330999992016011403004+70245+019500FM-12+002199999V0201811N0012199999999999999999-00421-01071101601ADDKA1010M-00391KA2010N-00431MA1999999101281MD1410009+9999OD130100591999REMSYN004BUFREQDQ01.1    3APC3  
0071010330999992016011404004+70245+019500FM-12+002199999V0201441N0022199999999999999999-00401-00881101571ADDKA1010M-00391KA2010N-00441MA1999999101251MD1810031+9999REMSYN004BUFR
0071010330999992016011405004+70245+019500FM-12+002199999V0201361N0013199999999999999999-00401-00951101551ADDKA1010M-00391KA2010N-00411MA1999999101231MD1810031+9999REMSYN004BUFR
0085010330999992016011406004+70245+019500FM-12+002199999V0201581N0019199999999999999999-00421-00901101521ADDKA1120M-00381KA2120N-00491MA1999999101201MD1710081+9999OD130600591999REMSYN004BUFR
0071010330999992016011407004+70245+019500FM-12+002199999V0201581N0026199999999999999999-00401-00861101501ADDKA1010M-00401KA2010N-00421MA1999999101181MD1710071+9999REMSYN004BUFR
0093010330999992016011408004+70245+019500FM-12+002199999V0201671N0041199999999999999999-00371-00741101491ADDKA1010M-00381KA2010N-00411MA1999999101171MD1710061+9999OC100681OD130100681999REMSYN004BUFR
0085010330999992016011409004+70245+019500FM-12+002199999V0201631N0032199999999999999999-00321-00671101481ADDKA1010M-00321KA2010N-00381MA1999999101161MD1710041+9999OD130100751999REMSYN004BUFR
0071010330999992016011410004+70245+019500FM-12+002199999V0201651N0034199999999999999999-00321-00541101451ADDKA1010M-00311KA2010N-00331MA1999999101131MD1710051+9999REMSYN004BUFR
0093010330999992016011411004+70245+019500FM-12+002199999V0201731N0035199999999999999999-00341-00501101421ADDKA1010M-00301KA2010N-00341MA1999999101101MD1810071+9999OC100571OD130100571999REMSYN004BUFR
0113010330999992016011412004+70250+019500FM-12+002499999V0201701N004019999999N999999999-00351-00491101391ADDMA1999999101071MD1810091+9999OD139900801999REMSYN05801033 46/// /1704 11035 21049 30107 40139 58009 333 91108=
0089010330999992016011413004+70250+019500FM-12+002499999V0201601N006019999999N999999999-00301-00451101311ADDMA1999999100991MD1810151+9999REMSYN04801033 46/// /1606 11030 21045 30099 40131 58015=
0089010330999992016011414004+70250+019500FM-12+002499999V0201701N006019999999N999999999-00261-00491101271ADDMA1999999100951MD1710151+9999REMSYN04801033 46/// /1706 11026 21049 30095 40127 57015=
0089010330999992016011415004+70250+019500FM-12+002499999V0201901N008019999999N999999999-00201-00421101251ADDMA1999999100931MD1510141+9999REMSYN04801033 46/// /1908 11020 21042 30093 40125 55014=
0089010330999992016011416004+70250+019500FM-12+002499999V0202001N010019999999N999999999-00311-00371101221ADDMA1999999100901MD1610091+9999REMSYN04801033 46/// /2010 11031 21037 30090 40122 56009=
0093010330999992016011417004+70245+019500FM-12+002199999V0201521N0112199999999999999999-00321-00361101161ADDKA1010M-00281KA2010N-00321MA1999999100841MD1610121+9999OC101391OD130101391999REMSYN004BUFR
0132010330999992016011418004+70250+019500FM-12+002499999V0201501N011019999999N999999999-00301-00331101211ADDKA1120M-00201MA1999999100891MD1510031+9999OD139901401999REMSYN06401033 46/// /1511 11030 21033 30089 40121 55003 333 11020 91114=
0089010330999992016011419004+70250+019500FM-12+002499999V0201601N008019999999N999999999-00301-00331101241ADDMA1999999100921MD1310021+9999REMSYN04801033 46/// /1608 11030 21033 30092 40124 53002=
0089010330999992016011420004+70250+019500FM-12+002499999V0201401N003019999999N999999999-00311-00381101311ADDMA1999999100991MD1310161+9999REMSYN04801033 46/// /1403 11031 21038 30099 40131 53016=
0089010330999992016011421004+70250+019500FM-12+002499999V0201501N002019999999N999999999-00281-00401101351ADDMA1999999101031MD1310141+9999REMSYN04801033 46/// /1502 11028 21040 30103 40135 53014=
0085010330999992016011422004+70245+019500FM-12+002199999V0202031N0007199999999999999999-00271-00801101351ADDKA1010M-00261KA2010N-00301MA1999999101031MD1010111+9999OD130100701999REMSYN004BUFR
0089010330999992016011423004+70250+019500FM-12+002499999V0200701N001019999999N999999999-00291-00771101351ADDMA1999999101031MD1990041+9999REMSYN04801033 46/// /0701 11029 21077 30103 40135 50004=
0113010330999992016011500004+70250+019500FM-12+002499999V0200401N002019999999N999999999-00281-00581101341ADDMA1999999101021MD1710011+9999OD139901301999REMSYN05801033 46/// /0402 11028 21058 30102 40134 57001 333 91113=
0071010330999992016011501004+70245+019500FM-12+002199999V0200451N0004199999999999999999-00271-00531101301ADDKA1010M-00281KA2010N-00301MA1999999100981MD1810051+9999REMSYN004BUFR
0085010330999992016011502004+70245+019500FM-12+002199999V0201801N0019199999999999999999-00221-00411101301ADDKA1010M-00211KA2010N-00291MA1999999100981MD1510051+9999OD130100661999REMSYN004BUFR
0089010330999992016011503004+70250+019500FM-12+002499999V0200301N005019999999N999999999-00131-00281101291ADDMA1999999100971MD1510051+9999REMSYN04801033 46/// /0305 11013 21028 30097 40129 55005=
0093010330999992016011504004+70245+019500FM-12+002199999V0200501N0107199999999999999999-00051-00461101231ADDKA1010M-00051KA2010N-00141MA1999999100911MD1810071+9999OC101781OD130101781999REMSYN004BUFR
0093010330999992016011505004+70245+019500FM-12+002199999V0200401N0125199999999999999999+00041-00721101231ADDKA1010M+00041KA2010N-00051MA1999999100911MD1510061+9999OC101651OD130101761999REMSYN004BUFR
0093010330999992016011506004+70245+019500FM-12+002199999V0200441N0140199999999999999999+00001-00581101221ADDKA1120M+00071KA2120N-00321MA1999999100901MD1510051+9999OC101811OD130601811999REMSYN004BUFR
0093010330999992016011507004+70245+019500FM-12+002199999V0200561N0093199999999999999999-00021-00451101271ADDKA1010M+00061KA2010N-00031MA1999999100951MD1310041+9999OC101371OD130101891999REMSYN004BUFR
0093010330999992016011508004+70245+019500FM-12+002199999V0200641N0098199999999999999999+00001-00501101281ADDKA1010M+00041KA2010N-00061MA1999999100961MD1310041+9999OC101571OD130101751999REMSYN004BUFR
0093010330999992016011509004+70245+019500FM-12+002199999V0200261N0130199999999999999999+00001-00241101341ADDKA1010M+00031KA2010N-00081MA1999999101021MD1310101+9999OC101631OD130101931999REMSYN004BUFR
0093010330999992016011510004+70245+019500FM-12+002199999V0200511N0092199999999999999999-00071-00331101401ADDKA1010M+00031KA2010N-00081MA1999999101081MD1310131+9999OC101741OD130101881999REMSYN004BUFR
0089010330999992016011511004+70250+019500FM-12+002499999V0200601N006019999999N999999999-00071-00341101441ADDMA1999999101121MD1310161+9999REMSYN04801033 46/// /0606 11007 21034 30112 40144 53016=
0113010330999992016011512004+70250+019500FM-12+002499999V0200701N008019999999N999999999-00101-00301101451ADDMA1999999101131MD1310131+9999OD139901901999REMSYN05801033 46/// /0708 11010 21030 30113 40145 53013 333 91119=
0093010330999992016011513004+70245+019500FM-12+002199999V0200761N0048199999999999999999-00091-00411101531ADDKA1010M-00091KA2010N-00181MA1999999101211MD1310121+9999OC100831OD130101711999REMSYN004BUFR
0093010330999992016011514004+70245+019500FM-12+002199999V0200741N0112199999999999999999-00051-00411101551ADDKA1010M-00061KA2010N-00161MA1999999101231MD1010091+9999OC101741OD130101741999REMSYN004BUFR
0093010330999992016011515004+70245+019500FM-12+002199999V0200331N0135199999999999999999+00041-00401101551ADDKA1010M+00051KA2010N-00051MA1999999101231MD1010101+9999OC101751OD130101811999REMSYN004BUFR
0093010330999992016011516004+70245+019500FM-12+002199999V0200651N0065199999999999999999+00021-00421101641ADDKA1010M+00041KA2010N-00011MA1999999101321MD1110111+9999OC101121OD130101541999REMSYN004BUFR
0093010330999992016011517004+70245+019500FM-12+002199999V0200721N0085199999999999999999+00001-00381101651ADDKA1010M+00041KA2010N-00011MA1999999101331MD1110111+9999OC101271OD130101431999REMSYN004BUFR
0093010330999992016011518004+70245+019500FM-12+002199999V0200321N0126199999999999999999+00071-00431101651ADDKA1120M+00081KA2120N-00181MA1999999101331MD1010081+9999OC101531OD130601811999REMSYN004BUFR
0089010330999992016011519004+70250+019500FM-12+002499999V0200401N008019999999N999999999-00021-00321101721ADDMA1999999101401MD1310101+9999REMSYN04801033 46/// /0408 11002 21032 30140 40172 53010=
0089010330999992016011520004+70250+019500FM-12+002499999V0200501N007019999999N999999999-00021-00341101761ADDMA1999999101441MD1310111+9999REMSYN04801033 46/// /0507 11002 21034 30144 40176 53011=
0093010330999992016011521004+70245+019500FM-12+002199999V0200561N0077199999999999999999-00041-00521101801ADDKA1010M+00061KA2010N-00061MA1999999101481MD1110151+9999OC101161OD130101661999REMSYN004BUFR
0089010330999992016011522004+70250+019500FM-12+002499999V0200501N012019999999N999999999-00111-00341101811ADDMA1999999101491MD1990081+9999REMSYN04801033 46/// /0512 11011 21034 30149 40181 50008=
0089010330999992016011523004+70250+019500FM-12+002499999V0200501N009019999999N999999999-00011-00431101841ADDMA1999999101521MD1110091+9999REMSYN04801033 46/// /0509 11001 21043 30152 40184 51009=
0093010330999992016011600004+70245+019500FM-12+002199999V0200561N0084199999999999999999-00051-00511101861ADDKA1010M+00041KA2010N-00061MA1999999101541MD1110071+9999OC101291OD130601841999REMSYN004BUFR
0093010330999992016011601004+70245+019500FM-12+002199999V0200341N0090199999999999999999+00051-00441101861ADDKA1010M+00061KA2010N-00061MA1999999101541MD1010051+9999OC101251OD130101431999REMSYN004BUFR
0093010330999992016011602004+70245+019500FM-12+002199999V0200321N0109199999999999999999+00071-00641101871ADDKA1010M+00091KA2010N+00051MA1999999101551MD1310021+9999OC101401OD130101531999REMSYN004BUFR
0093010330999992016011603004+70245+019500FM-12+002199999V0200301N0105199999999999999999+00051-00471101891ADDKA1010M+00101KA2010N-00031MA1999999101571MD1310011+9999OC101451OD130101581999REMSYN004BUFR
0093010330999992016011604004+70245+019500FM-12+002199999V0200061N0115199999999999999999+00101-00631101871ADDKA1010M+00121KA2010N+00051MA1999999101551MD1010021+9999OC101451OD130101491999REMSYN004BUFR
0093010330999992016011605004+70245+019500FM-12+002199999V0200151N0114199999999999999999+00121-00771101881ADDKA1010M+00131KA2010N+00101MA1999999101561MD1010011+9999OC101441OD130101521999REMSYN004BUFR
0093010330999992016011606004+70245+019500FM-12+002199999V0200201N0108199999999999999999+00121-00781101871ADDKA1120M+00131KA2120N-00111MA1999999101551MD1710011+9999OC101321OD130601581999REMSYN004BUFR
0112010330999992016011607004+70245+019500FM-12+002199999V0200221N0106199999999999999999+00141-00661101881ADDKA1010M+00141KA2010N+00131MA1999999101561MD1290019+9999OC101361OD130101381999REMSYN004BUFREQDQ01.1    3APC3  
0108010330999992016011608004+70250+019500FM-12+002499999V0203601N010019999999N999999999+00131-00551101881ADDMA1999999101561MD1410009+9999REMSYN04801033 46/// /3610 10013 21055 30156 40188 54001=EQDQ01.1    3APC3  
0089010330999992016011609004+70250+019500FM-12+002499999V0203601N011019999999N999999999+00121-00621101901ADDMA1999999101581MD1210031+9999REMSYN04801033 46/// /3611 10012 21062 30158 40190 52003=
0093010330999992016011610004+70245+019500FM-12+002199999V0200141N0093199999999999999999+00121-00691101881ADDKA1010M+00131KA2010N+00121MA1999999101561MD1410001+9999OC101261OD130101261999REMSYN004BUFR
0089010330999992016011611004+70250+019500FM-12+002499999V0200201N010019999999N999999999+00141-00491101861ADDMA1999999101541MD1710031+9999REMSYN04801033 46/// /0210 10014 21049 30154 40186 57003=
0113010330999992016011612004+70250+019500FM-12+002499999V0203501N009019999999N999999999+00091-00331101851ADDMA1999999101531MD1710041+9999OD139907701999REMSYN05801033 46/// /3509 10009 21033 30153 40185 57004 333 91177=
0093010330999992016011613004+70245+019500FM-12+002199999V0200221N0099199999999999999999+00121-00651101831ADDKA1010M+00131KA2010N+00081MA1999999101511MD1710041+9999OC101181OD130101191999REMSYN004BUFR
0089010330999992016011614004+70250+019500FM-12+002499999V0200101N009019999999N999999999+00131-00741101811ADDMA1999999101491MD1710061+9999REMSYN04801033 46/// /0109 10013 21074 30149 40181 57006=
0089010330999992016011615004+70250+019500FM-12+002499999V0200101N009019999999N999999999+00131-00601101791ADDMA1999999101471MD1710061+9999REMSYN04801033 46/// /0109 10013 21060 30147 40179 57006=
0089010330999992016011616004+70250+019500FM-12+002499999V0200101N009019999999N999999999+00151-00521101781ADDMA1999999101461MD1710061+9999REMSYN04801033 46/// /0109 10015 21052 30146 40178 57006=
0089010330999992016011617004+70250+019500FM-12+002499999V0200101N010019999999N999999999+00131-00631101761ADDMA1999999101441MD1810051+9999REMSYN04801033 46/// /0110 10013 21063 30144 40176 58005=
0132010330999992016011618004+70250+019500FM-12+002499999V0200101N010019999999N999999999+00121-00701101711ADDKA1120M+00151MA1999999101391MD1810081+9999OD139904301999REMSYN06401033 46/// /0110 10012 21070 30139 40171 58008 333 10015 91143=
0089010330999992016011619004+70250+019500FM-12+002499999V0203601N010019999999N999999999+00121-00611101681ADDMA1999999101361MD1710101+9999REMSYN04801033 46/// /3610 10012 21061 30136 40168 57010=
0093010330999992016011620004+70245+019500FM-12+002199999V0200031N0091199999999999999999+00121-00611101651ADDKA1010M+00141KA2010N+00111MA1999999101331MD1710101+9999OC101051OD130101281999REMSYN004BUFR
0093010330999992016011621004+70245+019500FM-12+002199999V0203571N0092199999999999999999+00121-00571101621ADDKA1010M+00131KA2010N+00121MA1999999101301MD1710101+9999OC101151OD130101291999REMSYN004BUFR
0093010330999992016011622004+70245+019500FM-12+002199999V0203591N0100199999999999999999+00121-00581101591ADDKA1010M+00141KA2010N+00121MA1999999101271MD1710091+9999OC101271OD130101311999REMSYN004BUFR
0093010330999992016011623004+70245+019500FM-12+002199999V0203491N0103199999999999999999+00141-00571101491ADDKA1010M+00161KA2010N+00121MA1999999101171MD1810161+9999OC101321OD130101321999REMSYN004BUFR
0113010330999992016011700004+70250+019500FM-12+002499999V0203501N010019999999N999999999+00161-00451101451ADDMA1999999101131MD1810171+9999OD139901301999REMSYN05801033 46/// /3510 10016 21045 30113 40145 58017 333 91113=
0089010330999992016011701004+70250+019500FM-12+002499999V0203501N011019999999N999999999+00161-00491101351ADDMA1999999101041MD1710221+9999REMSYN04801033 46/// /3511 10016 21049 30104 40135 57022=
0089010330999992016011702004+70250+019500FM-12+002499999V0203501N010019999999N999999999+00161-00531101291ADDMA1999999100981MD1710201+9999REMSYN04801033 46/// /3510 10016 21053 30098 40129 57020=
0089010330999992016011703004+70250+019500FM-12+002499999V0203401N011019999999N999999999+00181-00371101211ADDMA1999999100901MD1810231+9999REMSYN04801033 46/// /3411 10018 21037 30090 40121 58023=
0093010330999992016011704004+70245+019500FM-12+002199999V0203171N0051199999999999999999+00041-00131101191ADDKA1010M+00181KA2010N+00041MA1999999100871MD1710181+9999OC100641OD130101321999REMSYN004BUFR
0089010330999992016011705004+70250+019500FM-12+002499999V0203601N009019999999N999999999+00141-00281101051ADDMA1999999100741MD1810231+9999REMSYN04801033 46/// /3609 10014 21028 30074 40105 58023=
0093010330999992016011706004+70245+019500FM-12+002199999V0200491N0059199999999999999999+00001-00291101021ADDKA1120M+00191KA2120N-00011MA1999999100701MD1810191+9999OC100871OD130601411999REMSYN004BUFR
0093010330999992016011707004+70245+019500FM-12+002199999V0200681N0035199999999999999999+00021-00501100991ADDKA1010M+00031KA2010N-00011MA1999999100671MD1610201+9999OC100691OD130100961999REMSYN004BUFR
0093010330999992016011708004+70245+019500FM-12+002199999V0200441N0052199999999999999999-00021-00551100931ADDKA1010M+00021KA2010N-00021MA1999999100611MD1710131+9999OC100691OD130101011999REMSYN004BUFR
0085010330999992016011709004+70245+019500FM-12+002199999V0200541N0029199999999999999999-00051-00581100881ADDKA1010M-00021KA2010N-00061MA1999999100561MD1710141+9999OD130100871999REMSYN004BUFR
0085010330999992016011710004+70245+019500FM-12+002199999V0200531N0029199999999999999999-00051-00431100821ADDKA1010M-00041KA2010N-00061MA1999999100501MD1710171+9999OD130100561999REMSYN004BUFR
0089010330999992016011711004+70250+019500FM-12+002499999V0201501N003019999999N999999999-00091-00421100761ADDMA1999999100441MD1710171+9999REMSYN04801033 46/// /1503 11009 21042 30044 40076 57017=
0113010330999992016011712004+70250+019500FM-12+002499999V0200901N005019999999N999999999-00101-00381100701ADDMA1999999100381MD1710181+9999OD139901001999REMSYN05801033 46/// /0905 11010 21038 30038 40070 57018 333 91110=
0093010330999992016011713004+70245+019500FM-12+002199999V0200711N0027199999999999999999-00121-00481100641ADDKA1010M-00101KA2010N-00131MA1999999100321MD1710181+9999OC100521OD130100651999REMSYN004BUFR
0093010330999992016011714004+70245+019500FM-12+002199999V0201101N0032199999999999999999-00141-00591100581ADDKA1010M-00121KA2010N-00151MA1999999100261MD1710171+9999OC100611OD130100681999REMSYN004BUFR
0093010330999992016011715004+70245+019500FM-12+002199999V0201011N0050199999999999999999-00171-00651100521ADDKA1010M-00141KA2010N-00181MA1999999100201MD1810171+9999OC100681OD130100681999REMSYN004BUFR
0089010330999992016011716004+70250+019500FM-12+002499999V0201301N004019999999N999999999-00181-00721100501ADDMA1999999100181MD1710141+9999REMSYN04801033 46/// /1304 11018 21072 30018 40050 57014=
0093010330999992016011717004+70245+019500FM-12+002199999V0201061N0064199999999999999999-00221-00841100491ADDKA1010M-00171KA2010N-00241MA1999999100181MD1510081+9999OC100991OD130101231999REMSYN004BUFR
0093010330999992016011718004+70245+019500FM-12+002199999V0200761N0029199999999999999999-00201-00871100491ADDKA1120M+00031KA2120N-00251MA1999999100171MD1710041+9999OC100651OD130601231999REMSYN004BUFR
0093010330999992016011719004+70245+019500FM-12+002199999V0201051N0050199999999999999999-00271-01011100501ADDKA1010M-00191KA2010N-00291MA1999999100181MD1510011+9999OC100891OD130100931999REMSYN004BUFR
0089010330999992016011720004+70250+019500FM-12+002499999V0201201N003019999999N999999999-00301-01121100531ADDMA1999999100211MD1310031+9999REMSYN04801033 46/// /1203 11030 21112 30021 40053 53003=
0093010330999992016011721004+70245+019500FM-12+002199999V0201381N0040199999999999999999-00351-01121100521ADDKA1010M-00301KA2010N-00361MA1999999100201MD1210031+9999OC100591OD130100671999REMSYN004BUFR
0089010330999992016011722004+70250+019500FM-12+002499999V0201601N006019999999N999999999-00391-01141100531ADDMA1999999100211MD1210031+9999REMSYN04801033 46/// /1606 11039 21114 30021 40053 52003=
0093010330999992016011723004+70245+019500FM-12+002199999V0201561N0079199999999999999999-00421-00991100521ADDKA1010M-00391KA2010N-00421MA1999999100201MD1410001+9999OC101121OD130101121999REMSYN004BUFR
0093010330999992016011800004+70245+019500FM-12+002199999V0201541N0094199999999999999999-00441-00921100551ADDKA1010M-00391KA2010N-00451MA1999999100231MD1210031+9999OC101291OD130601361999REMSYN004BUFR
0089010330999992016011801004+70250+019500FM-12+002499999V0201601N011019999999N999999999-00481-00931100551ADDMA1999999100231MD1210021+9999REMSYN04801033 46/// /1611 11048 21093 30023 40055 52002=
0089010330999992016011802004+70250+019500FM-12+002499999V0201501N011019999999N999999999-00521-01011100521ADDMA1999999100211MD1990011+9999REMSYN04801033 46/// /1511 11052 21101 30021 40052 50001=
0093010330999992016011803004+70245+019500FM-12+002199999V0201501N0113199999999999999999-00521-01051100501ADDKA1010M-00521KA2010N-00541MA1999999100181MD1710031+9999OC101351OD130101441999REMSYN004BUFR
0093010330999992016011804004+70245+019500FM-12+002199999V0201561N0107199999999999999999-00501-01011100501ADDKA1010M-00501KA2010N-00541MA1999999100181MD1810051+9999OC101371OD130101461999REMSYN004BUFR
0112010330999992016011805004+70245+019500FM-12+002199999V0201531N0117199999999999999999-00551-01131100511ADDKA1010M-00501KA2010N-00561MA1999999100191MD1790019+9999OC101401OD130101481999REMSYN004BUFREQDQ01.1    3APC3  
0093010330999992016011806004+70245+019500FM-12+002199999V0201471N0096199999999999999999-00551-01121100551ADDKA1120M-00191KA2120N-00581MA1999999100231MD1310041+9999OC101291OD130601511999REMSYN004BUFR
0089010330999992016011807004+70250+019500FM-12+002499999V0201501N008019999999N999999999-00571-01121100571ADDMA1999999100251MD1210071+9999REMSYN04801033 46/// /1508 11057 21112 30025 40057 52007=
0093010330999992016011808004+70245+019500FM-12+002199999V0201511N0091199999999999999999-00591-01171100591ADDKA1010M-00541KA2010N-00591MA1999999100271MD1210071+9999OC101181OD130101341999REMSYN004BUFR
0089010330999992016011809004+70250+019500FM-12+002499999V0201501N010019999999N999999999-00581-01121100581ADDMA1999999100261MD1210041+9999REMSYN04801033 46/// /1510 11058 21112 30026 40058 52004=
0089010330999992016011810004+70250+019500FM-12+002499999V0201501N010019999999N999999999-00581-01201100601ADDMA1999999100281MD1210041+9999REMSYN04801033 46/// /1510 11058 21120 30028 40060 52004=
0093010330999992016011811004+70245+019500FM-12+002199999V0201591N0068199999999999999999-00551-01361100571ADDKA1010M-00551KA2010N-00591MA1999999100251MD1810021+9999OC101021OD130101211999REMSYN004BUFR
0113010330999992016011812004+70250+019500FM-12+002499999V0201201N004019999999N999999999-00601-01331100591ADDMA1999999100271MD1310011+9999OD139901401999REMSYN05801033 46/// /1204 11060 21133 30027 40059 53001 333 91114=
0089010330999992016011813004+70250+019500FM-12+002499999V0201401N007019999999N999999999-00571-01061100571ADDMA1999999100251MD1510031+9999REMSYN04801033 46/// /1407 11057 21106 30025 40057 55003=
0093010330999992016011814004+70245+019500FM-12+002199999V0201411N0057199999999999999999-00571-01131100581ADDKA1010M-00501KA2010N-00581MA1999999100261MD1310011+9999OC100811OD130101191999REMSYN004BUFR
0093010330999992016011815004+70245+019500FM-12+002199999V0201381N0058199999999999999999-00571-01081100561ADDKA1010M-00561KA2010N-00591MA1999999100241MD1510031+9999OC100801OD130100801999REMSYN004BUFR
0093010330999992016011816004+70245+019500FM-12+002199999V0201591N0036199999999999999999-00571-01161100531ADDKA1010M-00541KA2010N-00601MA1999999100211MD1810041+9999OC100541OD130100971999REMSYN004BUFR
0089010330999992016011817004+70250+019500FM-12+002499999V0201401N002019999999N999999999-00571-01111100521ADDMA1999999100201MD1710061+9999REMSYN04801033 46/// /1402 11057 21111 30020 40052 57006=
0132010330999992016011818004+70250+019500FM-12+002499999V0201601N004019999999N999999999-00551-01041100531ADDKA1120M-00501MA1999999100211MD1510041+9999OD139901201999REMSYN06401033 46/// /1604 11055 21104 30021 40053 55004 333 11050 91112=
0089010330999992016011819004+70250+019500FM-12+002499999V0201401N003019999999N999999999-00601-01131100491ADDMA1999999100171MD1810041+9999REMSYN04801033 46/// /1403 11060 21113 30017 40049 58004=
0089010330999992016011820004+70250+019500FM-12+002499999V0201501N002019999999N999999999-00621-01211100461ADDMA1999999100141MD1810071+9999REMSYN04801033 46/// /1502 11062 21121 30014 40046 58007=
0089010330999992016011821004+70250+019500FM-12+002499999V0203601N001019999999N999999999-00641-01451100441ADDMA1999999100121MD1710081+9999REMSYN04801033 46/// /3601 11064 21145 30012 40044 57008=
0093010330999992016011822004+70245+019500FM-12+002199999V0202371N0018199999999999999999-00621-01351100441ADDKA1010M-00611KA2010N-00681MA1999999100121MD1710061+9999OC100501OD130100961999REMSYN004BUFR
0089010330999992016011823004+70250+019500FM-12+002499999V0201201N002019999999N999999999-00641-01341100411ADDMA1999999100091MD1810051+9999REMSYN04801033 46/// /1202 11064 21134 30009 40041 58005=
0113010330999992016011900004+70250+019500FM-12+002499999V0201201N003019999999N999999999-00661-01311100421ADDMA1999999100101MD1510031+9999OD139901001999REMSYN05801033 46/// /1203 11066 21131 30010 40042 55003 333 91110=
0071010330999992016011901004+70245+019500FM-12+002199999V0201011N0029199999999999999999-00671-01301100391ADDKA1010M-00631KA2010N-00671MA1999999100071MD1710051+9999REMSYN004BUFR
0071010330999992016011902004+70245+019500FM-12+002199999V0201671N0016199999999999999999-00651-01421100361ADDKA1010M-00651KA2010N-00681MA1999999100041MD1810051+9999REMSYN004BUFR
0089010330999992016011903004+70250+019500FM-12+002499999V0200901N004019999999N999999999-00521-01301100351ADDMA1999999100031MD1710071+9999REMSYN04801033 46/// /0904 11052 21130 30003 40035 57007=
0089010330999992016011904004+70250+019500FM-12+002499999V0200601N002019999999N999999999-00521-01541100341ADDMA1999999100021MD1710051+9999REMSYN04801033 46/// /0602 11052 21154 30002 40034 57005=
0093010330999992016011905004+70245+019500FM-12+002199999V0201251N0061199999999999999999-00551-01401100361ADDKA1010M-00461KA2010N-00561MA1999999100041MD1510001+9999OC101351OD130101441999REMSYN004BUFR
0132010330999992016011906004+70250+019500FM-12+002499999V0201001N003019999999N999999999-00601-01381100401ADDKA1240N-00681MA1999999100081MD1310051+9999OD139901401999REMSYN06401033 46/// /1003 11060 21138 30008 40040 53005 333 21068 91114=
0089010330999992016011907004+70250+019500FM-12+002499999V0201301N001019999999N999999999-00631-01341100401ADDMA1999999100081MD1210061+9999REMSYN04801033 46/// /1301 11063 21134 30008 40040 52006=
0089010330999992016011908004+70250+019500FM-12+002499999V0202001N003019999999N999999999-00601-01331100391ADDMA1999999100071MD1990041+9999REMSYN04801033 46/// /2003 11060 21133 30007 40039 50004=
0093010330999992016011909004+70245+019500FM-12+002199999V0202311N0030199999999999999999-00521-01261100411ADDKA1010M-00511KA2010N-00621MA1999999100091MD1210011+9999OC100661OD130100981999REMSYN004BUFR
0108010330999992016011910004+70250+019500FM-12+002499999V0202201N004019999999N999999999-00541-01141100401ADDMA1999999100081MD1410009+9999REMSYN04801033 46/// /2204 11054 21114 30008 40040 54001=EQDQ01.1    3APC3  
0089010330999992016011911004+70250+019500FM-12+002499999V0201301N003019999999N999999999-00531-01361100411ADDMA1999999100091MD1210031+9999REMSYN04801033 46/// /1303 11053 21136 30009 40041 52003=
0093010330999992016011912004+70245+019500FM-12+002199999V0201041N0094199999999999999999-00471-01421100391ADDKA1010M-00481KA2010N-00561MA1999999100071MD1810011+9999OC101191OD130601191999REMSYN004BUFR
0093010330999992016011913004+70245+019500FM-12+002199999V0200441N0021199999999999999999-00451-01661100451ADDKA1010M-00441KA2010N-00481MA1999999100131MD1310051+9999OC100501OD130101051999REMSYN004BUFR
0089010330999992016011914004+70250+019500FM-12+002499999V0201601N003019999999N999999999-00471-01381100471ADDMA1999999100151MD1310061+9999REMSYN04801033 46/// /1603 11047 21138 30015 40047 53006=
0085010330999992016011915004+70245+019500FM-12+002199999V0200921N0034199999999999999999-00501-01351100481ADDKA1010M-00461KA2010N-00521MA1999999100161MD1110091+9999OD130100731999REMSYN004BUFR
0071010330999992016011916004+70245+019500FM-12+002199999V0200971N0021199999999999999999-00521-01461100491ADDKA1010M-00481KA2010N-00551MA1999999100171MD1210041+9999REMSYN004BUFR
0093010330999992016011917004+70245+019500FM-12+002199999V0201421N0048199999999999999999-00541-01011100511ADDKA1010M-00511KA2010N-00561MA1999999100191MD1210041+9999OC100641OD130100711999REMSYN004BUFR
0093010330999992016011918004+70245+019500FM-12+002199999V0201451N0055199999999999999999-00541-00921100531ADDKA1120M-00431KA2120N-00651MA1999999100211MD1210051+9999OC100701OD130601051999REMSYN004BUFR
0089010330999992016011919004+70250+019500FM-12+002499999V0201401N006019999999N999999999-00551-00871100561ADDMA1999999100241MD1210071+9999REMSYN04801033 46/// /1406 11055 21087 30024 40056 52007=
0089010330999992016011920004+70250+019500FM-12+002499999V0201501N006019999999N999999999-00581-00901100601ADDMA1999999100281MD1210091+9999REMSYN04801033 46/// /1506 11058 21090 30028 40060 52009=
0089010330999992016011921004+70250+019500FM-12+002499999V0201501N006019999999N999999999-00591-00881100621ADDMA1999999100301MD1210091+9999REMSYN04801033 46/// /1506 11059 21088 30030 40062 52009=
0093010330999992016011922004+70245+019500FM-12+002199999V0201431N0066199999999999999999-00601-00881100611ADDKA1010M-00581KA2010N-00611MA1999999100291MD1010051+9999OC100821OD130100921999REMSYN004BUFR
0089010330999992016011923004+70250+019500FM-12+002499999V0201501N006019999999N999999999-00611-00911100621ADDMA1999999100301MD1210021+9999REMSYN04801033 46/// /1506 11061 21091 30030 40062 52002=
0113010330999992016012000004+70250+019500FM-12+002499999V0201501N006019999999N999999999-00601-00891100631ADDMA1999999100321MD1310021+9999OD139900901999REMSYN05801033 46/// /1506 11060 21089 30032 40063 53002 333 91109=
0089010330999992016012001004+70250+019500FM-12+002499999V0201601N005019999999N999999999-00621-00931100641ADDMA1999999100321MD1210041+9999REMSYN04801033 46/// /1605 11062 21093 30032 40064 52004=
0089010330999992016012002004+70250+019500FM-12+002499999V0201601N007019999999N999999999-00611-00891100661ADDMA1999999100341MD1210041+9999REMSYN04801033 46/// /1607 11061 21089 30034 40066 52004=
0093010330999992016012003004+70245+019500FM-12+002199999V0201681N0064199999999999999999-00621-00911100661ADDKA1010M-00601KA2010N-00631MA1999999100341MD1210031+9999OC100901OD130100931999REMSYN004BUFR
0089010330999992016012004004+70250+019500FM-12+002499999V0201701N005019999999N999999999-00631-00961100681ADDMA1999999100361MD1210031+9999REMSYN04801033 46/// /1705 11063 21096 30036 40068 52003=
0089010330999992016012005004+70250+019500FM-12+002499999V0201701N007019999999N999999999-00601-00891100671ADDMA1999999100351MD1210021+9999REMSYN04801033 46/// /1707 11060 21089 30035 40067 52002=
0093010330999992016012006004+70245+019500FM-12+002199999V0201481N0037199999999999999999-00591-00931100691ADDKA1120M-00541KA2120N-00631MA1999999100371MD1210031+9999OC100651OD130601101999REMSYN004BUFR
0089010330999992016012007004+70250+019500FM-12+002499999V0201701N003019999999N999999999-00581-00981100701ADDMA1999999100381MD1210031+9999REMSYN04801033 46/// /1703 11058 21098 30038 40070 52003=
0089010330999992016012008004+70250+019500FM-12+002499999V0201601N004019999999N999999999-00541-00931100721ADDMA1999999100401MD1210051+9999REMSYN04801033 46/// /1604 11054 21093 30040 40072 52005=
0089010330999992016012009004+70250+019500FM-12+002499999V0201701N008019999999N999999999-00531-00831100741ADDMA1999999100421MD1210041+9999REMSYN04801033 46/// /1708 11053 21083 30042 40074 52004=
0089010330999992016012010004+70250+019500FM-12+002499999V0201701N008019999999N999999999-00491-00781100731ADDMA1999999100411MD1990031+9999REMSYN04801033 46/// /1708 11049 21078 30041 40073 50003=
0089010330999992016012011004+70250+019500FM-12+002499999V0201801N007019999999N999999999-00481-00851100741ADDMA1999999100421MD1210021+9999REMSYN04801033 46/// /1807 11048 21085 30042 40074 52002=
0093010330999992016012012004+70245+019500FM-12+002199999V0201611N0055199999999999999999-00351-00741100731ADDKA1010M-00331KA2010N-00481MA1999999100411MD1410001+9999OC100881OD130601301999REMSYN004BUFR
0089010330999992016012013004+70250+019500FM-12+002499999V0201701N007019999999N999999999-00371-00671100771ADDMA1999999100451MD1310031+9999REMSYN04801033 46/// /1707 11037 21067 30045 40077 53003=
0089010330999992016012014004+70250+019500FM-12+002499999V0201701N008019999999N999999999-00341-00631100781ADDMA1999999100461MD1310041+9999REMSYN04801033 46/// /1708 11034 21063 30046 40078 53004=
0089010330999992016012015004+70250+019500FM-12+002499999V0201601N009019999999N999999999-00331-00611100801ADDMA1999999100481MD1210071+9999REMSYN04801033 46/// /1609 11033 21061 30048 40080 52007=
0089010330999992016012016004+70250+019500FM-12+002499999V0201601N007019999999N999999999-00311-00511100831ADDMA1999999100511MD1210061+9999REMSYN04801033 46/// /1607 11031 21051 30051 40083 52006=
0093010330999992016012017004+70245+019500FM-12+002199999V0201611N0086199999999999999999-00321-00401100851ADDKA1010M-00291KA2010N-00331MA1999999100531MD1210071+9999OC101091OD130101091999REMSYN004BUFR
0132010330999992016012018004+70250+019500FM-12+002499999V0201501N008019999999N999999999-00231-00341100841ADDKA1120M-00221MA1999999100521MD1990041+9999OD139901401999REMSYN06401033 46/// /1508 11023 21034 30052 40084 50004 333 11022 91114=
0093010330999992016012019004+70245+019500FM-12+002199999V0201591N0087199999999999999999-00191-00341100851ADDKA1010M-00161KA2010N-00251MA1999999100531MD1010021+9999OC101191OD130101191999REMSYN004BUFR
0089010330999992016012020004+70250+019500FM-12+002499999V0201601N006019999999N999999999-00131-00351100891ADDMA1999999100571MD1310041+9999REMSYN04801033 46/// /1606 11013 21035 30057 40089 53004=
0093010330999992016012021004+70245+019500FM-12+002199999V0201901N0067199999999999999999-00171-00381100911ADDKA1010M-00111KA2010N-00171MA1999999100591MD1310071+9999OC100901OD130100971999REMSYN004BUFR
0089010330999992016012022004+70250+019500FM-12+002499999V0201501N006019999999N999999999-00191-00311100941ADDMA1999999100621MD1110091+9999REMSYN04801033 46/// /1506 11019 21031 30062 40094 51009=
0089010330999992016012023004+70250+019500FM-12+002499999V0201501N005019999999N999999999-00141-00361100941ADDMA1999999100621MD1990051+9999REMSYN04801033 46/// /1505 11014 21036 30062 40094 50005=
0093010330999992016012100004+70245+019500FM-12+002199999V0201921N0065199999999999999999-00091-00561100961ADDKA1010M-00091KA2010N-00131MA1999999100641MD1010051+9999OC100821OD130601191999REMSYN004BUFR
0093010330999992016012101004+70245+019500FM-12+002199999V0201971N0042199999999999999999-00121-00441101001ADDKA1010M-00081KA2010N-00141MA1999999100681MD1310061+9999OC100711OD130100861999REMSYN004BUFR
0093010330999992016012102004+70245+019500FM-12+002199999V0201701N0044199999999999999999-00221-00361101021ADDKA1010M-00131KA2010N-00221MA1999999100701MD1210081+9999OC100751OD130100961999REMSYN004BUFR
0093010330999992016012103004+70245+019500FM-12+002199999V0201811N0058199999999999999999-00241-00341101031ADDKA1010M-00221KA2010N-00261MA1999999100711MD1110071+9999OC100841OD130100841999REMSYN004BUFR
0093010330999992016012104004+70245+019500FM-12+002199999V0201851N0051199999999999999999-00171-00321101031ADDKA1010M-00161KA2010N-00251MA1999999100711MD1010031+9999OC100771OD130100881999REMSYN004BUFR
0089010330999992016012105004+70250+019500FM-12+002499999V0201701N006019999999N999999999-00151-00351101031ADDMA1999999100711MD1990021+9999REMSYN04801033 46/// /1706 11015 21035 30071 40103 50002=
0132010330999992016012106004+70250+019500FM-12+002499999V0201601N006019999999N999999999-00131-00411101031ADDKA1240N-00261MA1999999100711MD1410001+9999OD139901101999REMSYN06401033 46/// /1606 11013 21041 30071 40103 54000 333 21026 91111=
0089010330999992016012107004+70250+019500FM-12+002499999V0201601N006019999999N999999999-00121-00441101071ADDMA1999999100751MD1310041+9999REMSYN04801033 46/// /1606 11012 21044 30075 40107 53004=
0079010330999992016012108004+70245+019500FM-12+002199999V0202091N0072199999999999999999-00051-00391101101ADDKA1010M-00051KA2010N-00111MA1999999100781MD1310061+9999OC101021REMSYN004BUFR
0093010330999992016012109004+70245+019500FM-12+002199999V0201531N0047199999999999999999-00151-00301101111ADDKA1010M-00051KA2010N-00171MA1999999100791MD1210081+9999OC100601OD130101051999REMSYN004BUFR
0089010330999992016012110004+70250+019500FM-12+002499999V0202101N008019999999N999999999-00101-00321101121ADDMA1999999100801MD1210051+9999REMSYN04801033 46/// /2108 11010 21032 30080 40112 52005=
0089010330999992016012111004+70250+019500FM-12+002499999V0202001N007019999999N999999999-00061-00361101121ADDMA1999999100801MD1210031+9999REMSYN04801033 46/// /2007 11006 21036 30080 40112 52003=
0089010330999992016012112004+70250+019500FM-12+002499999V0201701N005019999999N999999999-00031-00421101111ADDMA1999999100791MD1990011+9999REMSYN04801033 46/// /1705 11003 21042 30079 40111 50001=
0093010330999992016012113004+70245+019500FM-12+002199999V0201651N0054199999999999999999-00021-00421101111ADDKA1010M-00011KA2010N-00041MA1999999100791MD1810011+9999OC100961OD130100961999REMSYN004BUFR
0093010330999992016012114004+70245+019500FM-12+002199999V0201581N0074199999999999999999-00051-00511101071ADDKA1010M+00001KA2010N-00061MA1999999100751MD1810051+9999OC101051OD130101111999REMSYN004BUFR
0093010330999992016012115004+70245+019500FM-12+002199999V0201731N0065199999999999999999-00021-00481101071ADDKA1010M-00021KA2010N-00071MA1999999100751MD1810041+9999OC101001OD130101171999REMSYN004BUFR
0093010330999992016012116004+70245+019500FM-12+002199999V0201511N0087199999999999999999-00051-00481100981ADDKA1010M-00011KA2010N-00061MA1999999100661MD1810131+9999OC101061OD130101141999REMSYN004BUFR
0093010330999992016012117004+70245+019500FM-12+002199999V0201441N0090199999999999999999-00021-00451100951ADDKA1010M-00011KA2010N-00061MA1999999100631MD1810131+9999OC101131OD130101181999REMSYN004BUFR
0132010330999992016012118004+70250+019500FM-12+002499999V0201501N009019999999N999999999+00021-00411100911ADDKA1120M+00051MA1999999100601MD1610151+9999OD139901201999REMSYN06401033 46/// /1509 10002 21041 30060 40091 56015 333 10005 91112=
0089010330999992016012119004+70250+019500FM-12+002499999V0201601N009019999999N999999999-00051-00171100871ADDMA1999999100551MD1810111+9999REMSYN04801033 46/// /1609 11005 21017 30055 40087 58011=
0093010330999992016012120004+70245+019500FM-12+002199999V0201721N0085199999999999999999-00051-00121100861ADDKA1010M-00021KA2010N-00091MA1999999100541MD1510081+9999OC101461OD130101541999REMSYN004BUFR
0093010330999992016012121004+70245+019500FM-12+002199999V0201871N0092199999999999999999-00041-00091100851ADDKA1010M-00011KA2010N-00061MA1999999100531MD1510061+9999OC101271OD130101321999REMSYN004BUFR
0089010330999992016012122004+70250+019500FM-12+002499999V0201601N009019999999N999999999+00041-00021100781ADDMA1999999100471MD1810071+9999REMSYN04801033 46/// /1609 10004 21002 30047 40078 58007=
0089010330999992016012123004+70250+019500FM-12+002499999V0201801N008019999999N999999999+00131-00231100731ADDMA1999999100421MD1810111+9999REMSYN04801033 46/// /1808 10013 21023 30042 40073 58011=
0093010330999992016012200004+70245+019500FM-12+002199999V0201841N0084199999999999999999+00141-00241100691ADDKA1010M+00151KA2010N+00111MA1999999100381MD1710151+9999OC101241OD130601541999REMSYN004BUFR
